{
  "txid": "000017bba244a83e478bafd0fe2f4fcefffea0364a8ce9363cbcd32282de5ff5",
  "version": 1,
  "locktime": 0,
  "vin": [
    {
      "txid": "00000a2d1a9e29116b539b85b6e893213b1ed95a08b7526a8d59a4b088fc6571",
      "vout": 1,
      "prevout": {
        "scriptpubkey": "512065fd3d423ea46a70505248db989e7302bfbbdd64ee4193dd9a59f69894f0de48",
        "scriptpubkey_asm": "OP_PUSHNUM_1 OP_PUSHBYTES_32 65fd3d423ea46a70505248db989e7302bfbbdd64ee4193dd9a59f69894f0de48",
        "scriptpubkey_type": "v1_p2tr",
        "scriptpubkey_address": "bc1pvh7n6s375348q5zjfrde38nnq2lmhhtyaeqe8hv6t8mf398smeyqnug47s",
        "value": 8503
      },
      "scriptsig": "",
      "scriptsig_asm": "",
      "witness": [
        "f23a09a1c397692d6c1c8c3c1fc0aa75266303ec8d8aaa92b6829fdb9c5db42da532ff5c1a8a8d49ade7f43850f57d1470634ff5251c13d62fdfef8af59690f9"
      ],
      "is_coinbase": false,
      "sequence": 1073745840
    }
  ],
  "vout": [
    {
      "scriptpubkey": "51208e0dcf094383e7da298a929d2acc47f9308d7237d1e81e75cb9926cc79f1bde9",
      "scriptpubkey_asm": "OP_PUSHNUM_1 OP_PUSHBYTES_32 8e0dcf094383e7da298a929d2acc47f9308d7237d1e81e75cb9926cc79f1bde9",
      "scriptpubkey_type": "v1_p2tr",
      "scriptpubkey_address": "bc1p3cxu7z2rs0na52v2j2wj4nz8lycg6u3h685puawtnynvc703hh5suu5k5a",
      "value": 2908
    },
    {
      "scriptpubkey": "512065fd3d423ea46a70505248db989e7302bfbbdd64ee4193dd9a59f69894f0de48",
      "scriptpubkey_asm": "OP_PUSHNUM_1 OP_PUSHBYTES_32 65fd3d423ea46a70505248db989e7302bfbbdd64ee4193dd9a59f69894f0de48",
      "scriptpubkey_type": "v1_p2tr",
      "scriptpubkey_address": "bc1pvh7n6s375348q5zjfrde38nnq2lmhhtyaeqe8hv6t8mf398smeyqnug47s",
      "value": 3593
    }
  ],
  "size": 205,
  "weight": 616,
  "fee": 2002,
  "status": {
    "confirmed": true,
    "block_height": 834552,
    "block_hash": "00000000000000000001dd0468a70c94f619251d286585cff57aeb4bd9ede330",
    "block_time": 1710355598
  },
  "hex": "010000000001017165fc88b0a4598d6a52b7085ad91e3b2193e8b6859b536b11299e1a2d0a00000100000000b00f0040025c0b0000000000002251208e0dcf094383e7da298a929d2acc47f9308d7237d1e81e75cb9926cc79f1bde9090e00000000000022512065fd3d423ea46a70505248db989e7302bfbbdd64ee4193dd9a59f69894f0de480140f23a09a1c397692d6c1c8c3c1fc0aa75266303ec8d8aaa92b6829fdb9c5db42da532ff5c1a8a8d49ade7f43850f57d1470634ff5251c13d62fdfef8af59690f900000000"
}