{
  "txid": "00000964b698b728022e6d180add7b2c060676e522ab2907f06198af7b2d0b99",
  "version": 1,
  "locktime": 273,
  "vin": [
    {
      "txid": "888888f6769c8b9c5a6be21a0232759104ecf4d69692bb3e20945fad4376223e",
      "vout": 1,
      "prevout": {
        "scriptpubkey": "512077387a1382d46a7cf5bb119bbc623a2586cfce066f8208cb91cf71d7bb9cfb80",
        "scriptpubkey_asm": "OP_PUSHNUM_1 OP_PUSHBYTES_32 77387a1382d46a7cf5bb119bbc623a2586cfce066f8208cb91cf71d7bb9cfb80",
        "scriptpubkey_type": "v1_p2tr",
        "scriptpubkey_address": "bc1pwuu85yuz6348eadmzxdmcc36ykrvlnsxd7pq3ju3eaca0wuulwqq3zl3au",
        "value": 1697
      },
      "scriptsig": "",
      "scriptsig_asm": "",
      "witness": [
        "926b7ed7fb6fb15f45b78818b8728b87d46f830b27f7d8a7e1edf5a4ff79d3a162eb3ad949292a2f4d3f3493179a51d35b7771595256276cec9860aec7b7acc6"
      ],
      "is_coinbase": false,
      "sequence": 357913941
    },
    {
      "txid": "000051b68e30ae3c92a6bab21593329e9fdf88127c0331f792d38809c44795e9",
      "vout": 1,
      "prevout": {
        "scriptpubkey": "512077387a1382d46a7cf5bb119bbc623a2586cfce066f8208cb91cf71d7bb9cfb80",
        "scriptpubkey_asm": "OP_PUSHNUM_1 OP_PUSHBYTES_32 77387a1382d46a7cf5bb119bbc623a2586cfce066f8208cb91cf71d7bb9cfb80",
        "scriptpubkey_type": "v1_p2tr",
        "scriptpubkey_address": "bc1pwuu85yuz6348eadmzxdmcc36ykrvlnsxd7pq3ju3eaca0wuulwqq3zl3au",
        "value": 1512
      },
      "scriptsig": "",
      "scriptsig_asm": "",
      "witness": [
        "24056ce53b8920b5084b10966cfd38637e57cb6a9460d5d00c42a8ff344ee75b7aa3efdbb7188b2814d3576c4ab656062498a1f4bc13e05fa027ccb39c71bba9"
      ],
      "is_coinbase": false,
      "sequence": 4294967295
    },
    {
      "txid": "88888e34d79d3adabf5befcb61dfbb3ed07743b596520d898dd23d7abdd3c9cf",
      "vout": 1,
      "prevout": {
        "scriptpubkey": "512077387a1382d46a7cf5bb119bbc623a2586cfce066f8208cb91cf71d7bb9cfb80",
        "scriptpubkey_asm": "OP_PUSHNUM_1 OP_PUSHBYTES_32 77387a1382d46a7cf5bb119bbc623a2586cfce066f8208cb91cf71d7bb9cfb80",
        "scriptpubkey_type": "v1_p2tr",
        "scriptpubkey_address": "bc1pwuu85yuz6348eadmzxdmcc36ykrvlnsxd7pq3ju3eaca0wuulwqq3zl3au",
        "value": 1483
      },
      "scriptsig": "",
      "scriptsig_asm": "",
      "witness": [
        "7729fd1ae1693aa3101e5eaa4238df7f585ae45a24d4de7479a8d864d571af32e0abb1beaf369586c1b7d4bb3a515545322e494d6cd047d714b8b98bcd2dc2fe"
      ],
      "is_coinbase": false,
      "sequence": 4294967295
    },
    {
      "txid": "546d4f701b0757cb14afb4ca52e578fb0044ad2f70f7f2da7e21308e8caf227f",
      "vout": 0,
      "prevout": {
        "scriptpubkey": "512077387a1382d46a7cf5bb119bbc623a2586cfce066f8208cb91cf71d7bb9cfb80",
        "scriptpubkey_asm": "OP_PUSHNUM_1 OP_PUSHBYTES_32 77387a1382d46a7cf5bb119bbc623a2586cfce066f8208cb91cf71d7bb9cfb80",
        "scriptpubkey_type": "v1_p2tr",
        "scriptpubkey_address": "bc1pwuu85yuz6348eadmzxdmcc36ykrvlnsxd7pq3ju3eaca0wuulwqq3zl3au",
        "value": 1000
      },
      "scriptsig": "",
      "scriptsig_asm": "",
      "witness": [
        "b729342fddf67e1e6e37d7b7aee84edd37b36b0e05dff69e2f036c660d5f1909ae7a278db33d6d85270e15a8dd612f4cff633b7d8bbe2bf9afdba0b7024fcff6"
      ],
      "is_coinbase": false,
      "sequence": 4294967295
    }
  ],
  "vout": [
    {
      "scriptpubkey": "5120a15e30586a58e86361659c3aa59f6f1441af61e969aa49b8195bd13e55edf759",
      "scriptpubkey_asm": "OP_PUSHNUM_1 OP_PUSHBYTES_32 a15e30586a58e86361659c3aa59f6f1441af61e969aa49b8195bd13e55edf759",
      "scriptpubkey_type": "v1_p2tr",
      "scriptpubkey_address": "bc1p590rqkr2tr5xxct9nsa2t8m0z3q67c0fdx4ynwqet0gnu40d7avsevzhhk",
      "value": 3624
    }
  ],
  "size": 483,
  "weight": 1134,
  "fee": 2068,
  "status": {
    "confirmed": true,
    "block_height": 834464,
    "block_hash": "0000000000000000000177a0869a911a2b65c9bdcd5a8bcb02b68f305bee848e",
    "block_time": 1710308296
  },
  "hex": "010000000001043e227643ad5f94203ebb9296d6f4ec04917532021ae26b5a9c8b9c76f6888888010000000055555515e99547c40988d392f731037c1288df9f9e329315b2baa6923cae308eb65100000100000000ffffffffcfc9d3bd7a3dd28d890d5296b54377d03ebbdf61cbef5bbfda3a9dd7348e88880100000000ffffffff7f22af8c8e30217edaf2f7702fad4400fb78e552cab4af14cb57071b704f6d540000000000ffffffff01280e000000000000225120a15e30586a58e86361659c3aa59f6f1441af61e969aa49b8195bd13e55edf7590140926b7ed7fb6fb15f45b78818b8728b87d46f830b27f7d8a7e1edf5a4ff79d3a162eb3ad949292a2f4d3f3493179a51d35b7771595256276cec9860aec7b7acc6014024056ce53b8920b5084b10966cfd38637e57cb6a9460d5d00c42a8ff344ee75b7aa3efdbb7188b2814d3576c4ab656062498a1f4bc13e05fa027ccb39c71bba901407729fd1ae1693aa3101e5eaa4238df7f585ae45a24d4de7479a8d864d571af32e0abb1beaf369586c1b7d4bb3a515545322e494d6cd047d714b8b98bcd2dc2fe0140b729342fddf67e1e6e37d7b7aee84edd37b36b0e05dff69e2f036c660d5f1909ae7a278db33d6d85270e15a8dd612f4cff633b7d8bbe2bf9afdba0b7024fcff611010000"
}