{
  "txid": "0000bfd81efaae6b07e01f166af03dbd6dc61e5ff3c8d84a2f33eecbf3bdc7ef",
  "version": 1,
  "locktime": 0,
  "vin": [
    {
      "txid": "0000a2a923a51f5c09e6d82c51618e447609815d1a4a56d34ddd4eaa05f607fb",
      "vout": 1,
      "prevout": {
        "scriptpubkey": "5120b452558275cc9e8d46e1c29ed7743eba84cbc291b1cb4d880f14860a5ddb7f17",
        "scriptpubkey_asm": "OP_PUSHNUM_1 OP_PUSHBYTES_32 b452558275cc9e8d46e1c29ed7743eba84cbc291b1cb4d880f14860a5ddb7f17",
        "scriptpubkey_type": "v1_p2tr",
        "scriptpubkey_address": "bc1pk3f9tqn4ej0g63hpc20dwap7h2zvhs53k895mzq0zjrq5hwm0utsvjfuux",
        "value": 13315
      },
      "scriptsig": "",
      "scriptsig_asm": "",
      "witness": [
        "76cd02e3ef36858f9680843689b346eb3b06755209265c1353f3deb0a643aa499e51f89b9f42d6f2c75441a0d521376aedcf9bcae0468eca94485642477cb7b8"
      ],
      "is_coinbase": false,
      "sequence": 4994
    }
  ],
  "vout": [
    {
      "scriptpubkey": "5120f9cc348f70a1ce6e6858bc6e22bf8c87142b9b029e17e9dfc23914fe03324eb8",
      "scriptpubkey_asm": "OP_PUSHNUM_1 OP_PUSHBYTES_32 f9cc348f70a1ce6e6858bc6e22bf8c87142b9b029e17e9dfc23914fe03324eb8",
      "scriptpubkey_type": "v1_p2tr",
      "scriptpubkey_address": "bc1pl8xrfrms588xu6zch3hz90uvsu2zhxcznct7nh7z8y20uqejf6uqeauqhn",
      "value": 2615
    },
    {
      "scriptpubkey": "5120b452558275cc9e8d46e1c29ed7743eba84cbc291b1cb4d880f14860a5ddb7f17",
      "scriptpubkey_asm": "OP_PUSHNUM_1 OP_PUSHBYTES_32 b452558275cc9e8d46e1c29ed7743eba84cbc291b1cb4d880f14860a5ddb7f17",
      "scriptpubkey_type": "v1_p2tr",
      "scriptpubkey_address": "bc1pk3f9tqn4ej0g63hpc20dwap7h2zvhs53k895mzq0zjrq5hwm0utsvjfuux",
      "value": 9160
    }
  ],
  "size": 205,
  "weight": 616,
  "fee": 1540,
  "status": {
    "confirmed": true,
    "block_height": 834464,
    "block_hash": "0000000000000000000177a0869a911a2b65c9bdcd5a8bcb02b68f305bee848e",
    "block_time": 1710308296
  },
  "hex": "01000000000101fb07f605aa4edd4dd3564a1a5d810976448e61512cd8e6095c1fa523a9a2000001000000008213000002370a000000000000225120f9cc348f70a1ce6e6858bc6e22bf8c87142b9b029e17e9dfc23914fe03324eb8c823000000000000225120b452558275cc9e8d46e1c29ed7743eba84cbc291b1cb4d880f14860a5ddb7f17014076cd02e3ef36858f9680843689b346eb3b06755209265c1353f3deb0a643aa499e51f89b9f42d6f2c75441a0d521376aedcf9bcae0468eca94485642477cb7b800000000"
}