{
  "txid": "000069f5fe057c3a15780b7f5816835ee67da2f6b19d1c809823e8f0d7b199b9",
  "version": 1,
  "locktime": 0,
  "vin": [
    {
      "txid": "b7cc8f576e061d4d0d94de9a9e8185e94d5f7b5910c79d4bece0d65af16b3db3",
      "vout": 2,
      "prevout": {
        "scriptpubkey": "5120d4b7fd2c1e3c52c574a6e33fa67806c521eed77ff8f9453ccc77c2a5b8ec3d47",
        "scriptpubkey_asm": "OP_PUSHNUM_1 OP_PUSHBYTES_32 d4b7fd2c1e3c52c574a6e33fa67806c521eed77ff8f9453ccc77c2a5b8ec3d47",
        "scriptpubkey_type": "v1_p2tr",
        "scriptpubkey_address": "bc1p6jml6tq783fv2a9xuvl6v7qxc5s7a4mllru520xvwlp2tw8v84rsh52eq2",
        "value": 2331
      },
      "scriptsig": "",
      "scriptsig_asm": "",
      "witness": [
        "2fd6db0c8f89d0f58952f92b659ffa1ba5ec7dc5276e53e759a00ac9e37442e110939e67733045d3a38e6534bd0f6ee850d1073cdd84abc115d95c538b1fde33"
      ],
      "is_coinbase": false,
      "sequence": 3579141922
    },
    {
      "txid": "8873fc59f63e275a811dc4b1c99e410458e4fb9eeaf7481183b36863a435ad64",
      "vout": 1,
      "prevout": {
        "scriptpubkey": "5120d4b7fd2c1e3c52c574a6e33fa67806c521eed77ff8f9453ccc77c2a5b8ec3d47",
        "scriptpubkey_asm": "OP_PUSHNUM_1 OP_PUSHBYTES_32 d4b7fd2c1e3c52c574a6e33fa67806c521eed77ff8f9453ccc77c2a5b8ec3d47",
        "scriptpubkey_type": "v1_p2tr",
        "scriptpubkey_address": "bc1p6jml6tq783fv2a9xuvl6v7qxc5s7a4mllru520xvwlp2tw8v84rsh52eq2",
        "value": 1930
      },
      "scriptsig": "",
      "scriptsig_asm": "",
      "witness": [
        "4f4e26237650742d5b42dc5e1d8d2ddbc87b6768c491bceda459e0a0f6fa21db020954f013ce564ea5fc24b80c16e4c2754a3b1a8073e52fa012c564a26ff9bb"
      ],
      "is_coinbase": false,
      "sequence": 4294967295
    },
    {
      "txid": "88733653a1461f1d5cb591056d03bb6b9802a3f3015834d8b1c8149a43da8104",
      "vout": 1,
      "prevout": {
        "scriptpubkey": "5120d4b7fd2c1e3c52c574a6e33fa67806c521eed77ff8f9453ccc77c2a5b8ec3d47",
        "scriptpubkey_asm": "OP_PUSHNUM_1 OP_PUSHBYTES_32 d4b7fd2c1e3c52c574a6e33fa67806c521eed77ff8f9453ccc77c2a5b8ec3d47",
        "scriptpubkey_type": "v1_p2tr",
        "scriptpubkey_address": "bc1p6jml6tq783fv2a9xuvl6v7qxc5s7a4mllru520xvwlp2tw8v84rsh52eq2",
        "value": 1881
      },
      "scriptsig": "",
      "scriptsig_asm": "",
      "witness": [
        "36343c856888cace7dc95d3ecd5d019db4b23296668ed63251204058cf9cc248bbddc85f43d60d2788a59c702bd06576ec61b08480916a01a2e2b08ab2c21a4f"
      ],
      "is_coinbase": false,
      "sequence": 4294967295
    }
  ],
  "vout": [
    {
      "scriptpubkey": "512039083a35ec05195862de8745c3d7a5bbbd90d861c74a98846397505291968e35",
      "scriptpubkey_asm": "OP_PUSHNUM_1 OP_PUSHBYTES_32 39083a35ec05195862de8745c3d7a5bbbd90d861c74a98846397505291968e35",
      "scriptpubkey_type": "v1_p2tr",
      "scriptpubkey_address": "bc1p8yyr5d0vq5v4sck7sazu84a9hw7epkrpca9f3prrjag99yvk3c6spg3zyp",
      "value": 3187
    },
    {
      "scriptpubkey": "5120d4b7fd2c1e3c52c574a6e33fa67806c521eed77ff8f9453ccc77c2a5b8ec3d47",
      "scriptpubkey_asm": "OP_PUSHNUM_1 OP_PUSHBYTES_32 d4b7fd2c1e3c52c574a6e33fa67806c521eed77ff8f9453ccc77c2a5b8ec3d47",
      "scriptpubkey_type": "v1_p2tr",
      "scriptpubkey_address": "bc1p6jml6tq783fv2a9xuvl6v7qxc5s7a4mllru520xvwlp2tw8v84rsh52eq2",
      "value": 645
    }
  ],
  "size": 419,
  "weight": 1076,
  "fee": 2310,
  "status": {
    "confirmed": true,
    "block_height": 834464,
    "block_hash": "0000000000000000000177a0869a911a2b65c9bdcd5a8bcb02b68f305bee848e",
    "block_time": 1710308296
  },
  "hex": "01000000000103b33d6bf15ad6e0ec4b9dc710597b5f4de985819e9ade940d4d1d066e578fccb70200000000225f55d564ad35a46368b3831148f7ea9efbe45804419ec9b1c41d815a273ef659fc73880100000000ffffffff0481da439a14c8b1d8345801f3a302986bbb036d0591b55c1d1f46a1533673880100000000ffffffff02730c00000000000022512039083a35ec05195862de8745c3d7a5bbbd90d861c74a98846397505291968e358502000000000000225120d4b7fd2c1e3c52c574a6e33fa67806c521eed77ff8f9453ccc77c2a5b8ec3d4701402fd6db0c8f89d0f58952f92b659ffa1ba5ec7dc5276e53e759a00ac9e37442e110939e67733045d3a38e6534bd0f6ee850d1073cdd84abc115d95c538b1fde3301404f4e26237650742d5b42dc5e1d8d2ddbc87b6768c491bceda459e0a0f6fa21db020954f013ce564ea5fc24b80c16e4c2754a3b1a8073e52fa012c564a26ff9bb014036343c856888cace7dc95d3ecd5d019db4b23296668ed63251204058cf9cc248bbddc85f43d60d2788a59c702bd06576ec61b08480916a01a2e2b08ab2c21a4f00000000"
}