{
  "txid": "0007f518fef4069ed7afe6f093fc73da3447133d5d6abd59c1978a2b597b6aa6",
  "version": 1,
  "locktime": 0,
  "vin": [
    {
      "txid": "948aea89a5edb7feab5bc64312ea03734269afacb48f8e6e7859f94cb1eac77a",
      "vout": 86,
      "prevout": {
        "scriptpubkey": "00145a7f4cdf90f25c9273fca1890d8c4ad3e888e467",
        "scriptpubkey_asm": "OP_0 OP_PUSHBYTES_20 5a7f4cdf90f25c9273fca1890d8c4ad3e888e467",
        "scriptpubkey_type": "v0_p2wpkh",
        "scriptpubkey_address": "bc1qtfl5ehus7fwfyulu5xysmrz2605g3er8vsdty2",
        "value": 156635
      },
      "scriptsig": "",
      "scriptsig_asm": "",
      "witness": [
        "30440220404911b4d74987df9bbf88cd99f369352d51deeb68881a1bf946bf2f878937e20220065308616dcbc9e36026e271938279c322ae6680d69ced529022691c9650395001",
        "026d48ea2fc4594a11171e590207d223173443a87b3515e5183cac931f2809fa2f"
      ],
      "is_coinbase": false,
      "sequence": 4294967295
    }
  ],
  "vout": [
    {
      "scriptpubkey": "a9146ff7986b6b6cea74549a55a6fc0b48780aa8041387",
      "scriptpubkey_asm": "OP_HASH160 OP_PUSHBYTES_20 6ff7986b6b6cea74549a55a6fc0b48780aa80413 OP_EQUAL",
      "scriptpubkey_type": "p2sh",
      "scriptpubkey_address": "3Bu3Y4nomro2obMXFNHPTxvPRApkRaiJ24",
      "value": 10500
    },
    {
      "scriptpubkey": "00145a7f4cdf90f25c9273fca1890d8c4ad3e888e467",
      "scriptpubkey_asm": "OP_0 OP_PUSHBYTES_20 5a7f4cdf90f25c9273fca1890d8c4ad3e888e467",
      "scriptpubkey_type": "v0_p2wpkh",
      "scriptpubkey_address": "bc1qtfl5ehus7fwfyulu5xysmrz2605g3er8vsdty2",
      "value": 142301
    }
  ],
  "size": 223,
  "weight": 565,
  "fee": 3834,
  "status": {
    "confirmed": true,
    "block_height": 834638,
    "block_hash": "000000000000000000025f742c626208ac87e0b7d15054abb4a19ca2d735a54e",
    "block_time": 1710405325
  },
  "hex": "010000000001017ac7eab14cf959786e8e8fb4acaf69427303ea1243c65babfeb7eda589ea8a945600000000ffffffff02042900000000000017a9146ff7986b6b6cea74549a55a6fc0b48780aa8041387dd2b0200000000001600145a7f4cdf90f25c9273fca1890d8c4ad3e888e467024730440220404911b4d74987df9bbf88cd99f369352d51deeb68881a1bf946bf2f878937e20220065308616dcbc9e36026e271938279c322ae6680d69ced529022691c965039500121026d48ea2fc4594a11171e590207d223173443a87b3515e5183cac931f2809fa2f00000000"
}