{
  "txid": "00095486219bfc54650434fbdb83334ac322f7db545e2c156d022c778d782031",
  "version": 2,
  "locktime": 0,
  "vin": [
    {
      "txid": "1d9b2680988b15440e4bd1ea9d9cdcd036e9267f91490382273e2967f30663de",
      "vout": 0,
      "prevout": {
        "scriptpubkey": "001423ec6b8dcd4b0a3d819a6be767740bcd32a78335",
        "scriptpubkey_asm": "OP_0 OP_PUSHBYTES_20 23ec6b8dcd4b0a3d819a6be767740bcd32a78335",
        "scriptpubkey_type": "v0_p2wpkh",
        "scriptpubkey_address": "bc1qy0kxhrwdfv9rmqv6d0nkwaqte5e20qe4ndqh70",
        "value": 1090000
      },
      "scriptsig": "",
      "scriptsig_asm": "",
      "witness": [
        "3045022100cf0816bd6746a9b858bebe908d8d64d6c850f76c1e422c047e2794db411441e3022032ec7b2f3248ddde8e3245c19df6e4352d5feaa88947a8c7258e961fd80075e801",
        "03a15094b55513ba46daefefccbad2da1cf72a0c58c338c562c162dc4fe86676f2"
      ],
      "is_coinbase": false,
      "sequence": 4294967095
    }
  ],
  "vout": [
    {
      "scriptpubkey": "00140a6e4d6ef7c8885ca22439b45f2fab8e4fbe9bbf",
      "scriptpubkey_asm": "OP_0 OP_PUSHBYTES_20 0a6e4d6ef7c8885ca22439b45f2fab8e4fbe9bbf",
      "scriptpubkey_type": "v0_p2wpkh",
      "scriptpubkey_address": "bc1qpfhy6mhhezy9eg3y8x697tat3e8maxaluj0k38",
      "value": 1088350
    }
  ],
  "size": 192,
  "weight": 438,
  "fee": 1650,
  "status": {
    "confirmed": true,
    "block_height": 834460,
    "block_hash": "00000000000000000000484a79b643b2524bbce82e5d8a442013fa5b8905ed98",
    "block_time": 1710307468
  },
  "hex": "02000000000101de6306f367293e27820349917f26e936d0dc9c9dead14b0e44158b9880269b1d000000000037ffffff015e9b1000000000001600140a6e4d6ef7c8885ca22439b45f2fab8e4fbe9bbf02483045022100cf0816bd6746a9b858bebe908d8d64d6c850f76c1e422c047e2794db411441e3022032ec7b2f3248ddde8e3245c19df6e4352d5feaa88947a8c7258e961fd80075e8012103a15094b55513ba46daefefccbad2da1cf72a0c58c338c562c162dc4fe86676f200000000"
}