{
  "txid": "00111f61ac86c945568b440c3fd67128722a5a65fc3f052c63e29ada9ed7416f",
  "version": 2,
  "locktime": 0,
  "vin": [
    {
      "txid": "0eddf93f24b2d392cda3aed855586f759c118678ab0fdf1339c1a2f0871fef42",
      "vout": 3,
      "prevout": {
        "scriptpubkey": "5120d6df2fc86005dffc804a43af8f5036d6f776eb58dda36a5cdfee9cf06603c563",
        "scriptpubkey_asm": "OP_PUSHNUM_1 OP_PUSHBYTES_32 d6df2fc86005dffc804a43af8f5036d6f776eb58dda36a5cdfee9cf06603c563",
        "scriptpubkey_type": "v1_p2tr",
        "scriptpubkey_address": "bc1p6m0jljrqqh0leqz2gwhc75pk6mmhd66cmk3k5hxla6w0qesrc43ssjk2qc",
        "value": 2834
      },
      "scriptsig": "",
      "scriptsig_asm": "",
      "witness": [
        "3dc3dab4176b0dbd41c5366e1d23f1f122c3fba47c0de128877063fc422b87ef69d4a96ed015ae630f106128d2c8d0af9b28a116d65dcdd61f9cb8d73305aaea",
        "20cd8864bfa7e9a9ec59ad0fe2f85591b625fade6be9f967451fe85faa643c03c7ac0063036f726401011e6170706c69636174696f6e2f6a736f6e3b636861727365743d7574662d38004cbf7b2270223a22706f772d3230222c226f70223a226d696e74222c227469636b223a2250455045222c22616d74223a2231303030222c22736f6c7574696f6e223a22504550453a6263317172713238376168727578703271783033726774706379666a327261786e306175667a646a717a3a303030303030303030303030303030303030303139393431613561653132383937363539383134343239323533333030353762306461393666336465613163353a3637323238393038393830227d68",
        "c0f26df831a413724db8123fd1cb518d6560252685500a3c204e36c4bb2a2cc255"
      ],
      "is_coinbase": false,
      "sequence": 4294967295
    }
  ],
  "vout": [
    {
      "scriptpubkey": "001418147f76e3e182a019f11a161c113250fa69bfbc",
      "scriptpubkey_asm": "OP_0 OP_PUSHBYTES_20 18147f76e3e182a019f11a161c113250fa69bfbc",
      "scriptpubkey_type": "v0_p2wpkh",
      "scriptpubkey_address": "bc1qrq287ahruxp2qx03rgtpcyfj2raxn0aufzdjqz",
      "value": 546
    }
  ],
  "size": 455,
  "weight": 701,
  "fee": 2288,
  "status": {
    "confirmed": true,
    "block_height": 834460,
    "block_hash": "00000000000000000000484a79b643b2524bbce82e5d8a442013fa5b8905ed98",
    "block_time": 1710307468
  },
  "hex": "0200000000010142ef1f87f0a2c13913df0fab7886119c756f5855d8aea3cd92d3b2243ff9dd0e0300000000ffffffff01220200000000000016001418147f76e3e182a019f11a161c113250fa69bfbc03403dc3dab4176b0dbd41c5366e1d23f1f122c3fba47c0de128877063fc422b87ef69d4a96ed015ae630f106128d2c8d0af9b28a116d65dcdd61f9cb8d73305aaeafd0c0120cd8864bfa7e9a9ec59ad0fe2f85591b625fade6be9f967451fe85faa643c03c7ac0063036f726401011e6170706c69636174696f6e2f6a736f6e3b636861727365743d7574662d38004cbf7b2270223a22706f772d3230222c226f70223a226d696e74222c227469636b223a2250455045222c22616d74223a2231303030222c22736f6c7574696f6e223a22504550453a6263317172713238376168727578703271783033726774706379666a327261786e306175667a646a717a3a303030303030303030303030303030303030303139393431613561653132383937363539383134343239323533333030353762306461393666336465613163353a3637323238393038393830227d6821c0f26df831a413724db8123fd1cb518d6560252685500a3c204e36c4bb2a2cc25500000000"
}