{
  "txid": "001d79a968a5f679b7b17276bc2d45700b575c0bf40befb52ec7687bc00d4364",
  "version": 2,
  "locktime": 834637,
  "vin": [
    {
      "txid": "b73e65d50a91efc5f7c9c42145569ac42ff083cf5bf1ac68682a62fab5667338",
      "vout": 1,
      "prevout": {
        "scriptpubkey": "0014f602cf9bb747e84025b6700402f5b738a255ca92",
        "scriptpubkey_asm": "OP_0 OP_PUSHBYTES_20 f602cf9bb747e84025b6700402f5b738a255ca92",
        "scriptpubkey_type": "v0_p2wpkh",
        "scriptpubkey_address": "bc1q7cpvlxahgl5yqfdkwqzq9adh8z39tj5j0rmdgw",
        "value": 156310050
      },
      "scriptsig": "",
      "scriptsig_asm": "",
      "witness": [
        "3044022022b144edb9ee46d4089e6e04aea52d30fb6497a609978c5b23ce584e8134b91e022017baa4e4365d0e6be18287b31d5028513f798ae0535953b05f11e751282ceee601",
        "0244c1188441405650d2dfd2d7a80e6fe9db50f5f2a6cb4eee0d0259881dd7bfd8"
      ],
      "is_coinbase": false,
      "sequence": 4294967293
    }
  ],
  "vout": [
    {
      "scriptpubkey": "001490ff5e7434e283a8ec9832d849fbd608a5334cfe",
      "scriptpubkey_asm": "OP_0 OP_PUSHBYTES_20 90ff5e7434e283a8ec9832d849fbd608a5334cfe",
      "scriptpubkey_type": "v0_p2wpkh",
      "scriptpubkey_address": "bc1qjrl4uap5u2p63mycxtvyn77kpzjnxn873zktxx",
      "value": 1152616
    },
    {
      "scriptpubkey": "00149aafdf6be7da645bdefe869b2a75a627c082bf54",
      "scriptpubkey_asm": "OP_0 OP_PUSHBYTES_20 9aafdf6be7da645bdefe869b2a75a627c082bf54",
      "scriptpubkey_type": "v0_p2wpkh",
      "scriptpubkey_address": "bc1qn2ha76l8mfj9hhh7s6dj5adxylqg90658ymnsh",
      "value": 155153627
    }
  ],
  "size": 222,
  "weight": 561,
  "fee": 3807,
  "status": {
    "confirmed": true,
    "block_height": 834638,
    "block_hash": "000000000000000000025f742c626208ac87e0b7d15054abb4a19ca2d735a54e",
    "block_time": 1710405325
  },
  "hex": "02000000000101387366b5fa622a6868acf15bcf83f02fc49a564521c4c9f7c5ef910ad5653eb70100000000fdffffff02689611000000000016001490ff5e7434e283a8ec9832d849fbd608a5334cfedb743f09000000001600149aafdf6be7da645bdefe869b2a75a627c082bf5402473044022022b144edb9ee46d4089e6e04aea52d30fb6497a609978c5b23ce584e8134b91e022017baa4e4365d0e6be18287b31d5028513f798ae0535953b05f11e751282ceee601210244c1188441405650d2dfd2d7a80e6fe9db50f5f2a6cb4eee0d0259881dd7bfd84dbc0c00"
}