{
  "txid": "0031da6252125a1199f740e3c90c45359d27c695c6849e537e4173dccbc9e1e4",
  "version": 2,
  "locktime": 0,
  "vin": [
    {
      "txid": "2cd3e083cbb083ba7d65b0357be77ea9791c788494900e0493010371efecdd4e",
      "vout": 0,
      "prevout": {
        "scriptpubkey": "00149317be4059d77e0809c332a015ea043d750f8212",
        "scriptpubkey_asm": "OP_0 OP_PUSHBYTES_20 9317be4059d77e0809c332a015ea043d750f8212",
        "scriptpubkey_type": "v0_p2wpkh",
        "scriptpubkey_address": "bc1qjvtmusze6alqszwrx2spt6sy846slqsjmlvmgu",
        "value": 10000000
      },
      "scriptsig": "",
      "scriptsig_asm": "",
      "witness": [
        "304402202acec8cd53f87c3e1205d8ab814e40673db9c5f4eb919c4df3a1094c46ab63c502201d55b894bfc8adc8d85f2480be5daa7ebda650a40c9c6ae13c036773b4b870da01",
        "02b82a30b0cad7a10d4e1036d911c1245a3abdf3f4476bd1a233895885db552850"
      ],
      "is_coinbase": false,
      "sequence": 4294967295
    }
  ],
  "vout": [
    {
      "scriptpubkey": "76a91446b660c453db24e6ebed8bb179299619f758dd7188ac",
      "scriptpubkey_asm": "OP_DUP OP_HASH160 OP_PUSHBYTES_20 46b660c453db24e6ebed8bb179299619f758dd71 OP_EQUALVERIFY OP_CHECKSIG",
      "scriptpubkey_type": "p2pkh",
      "scriptpubkey_address": "17StnGroPUsNXBq4AVJQ1fqGftoFZh3zva",
      "value": 9997459
    }
  ],
  "size": 194,
  "weight": 449,
  "fee": 2541,
  "status": {
    "confirmed": true,
    "block_height": 834638,
    "block_hash": "000000000000000000025f742c626208ac87e0b7d15054abb4a19ca2d735a54e",
    "block_time": 1710405325
  },
  "hex": "020000000001014eddecef71030193040e909484781c79a97ee77b35b0657dba83b0cb83e0d32c0000000000ffffffff01938c9800000000001976a91446b660c453db24e6ebed8bb179299619f758dd7188ac0247304402202acec8cd53f87c3e1205d8ab814e40673db9c5f4eb919c4df3a1094c46ab63c502201d55b894bfc8adc8d85f2480be5daa7ebda650a40c9c6ae13c036773b4b870da012102b82a30b0cad7a10d4e1036d911c1245a3abdf3f4476bd1a233895885db55285000000000"
}