{
  "txid": "0039a6f53f95f41589a354498db454a3f9db24ba9dbe6132556c2de830a40772",
  "version": 1,
  "locktime": 0,
  "vin": [
    {
      "txid": "f34c6953f0113278b732206d7ca63b567b86b39c9e989ec6cd613b07af17e616",
      "vout": 0,
      "prevout": {
        "scriptpubkey": "0014654e823a6e55a5319bf8fd80b65f8fb5c0567087",
        "scriptpubkey_asm": "OP_0 OP_PUSHBYTES_20 654e823a6e55a5319bf8fd80b65f8fb5c0567087",
        "scriptpubkey_type": "v0_p2wpkh",
        "scriptpubkey_address": "bc1qv48gywnw2kjnrxlclkqtvhu0khq9vuy82px07s",
        "value": 6325000
      },
      "scriptsig": "",
      "scriptsig_asm": "",
      "witness": [
        "3045022100f630ef34162c0c18205f25e6fb9e00c226ffd25e4ce701fdee54b861ce7d0be4022040cdb99f13475bf1c5c07ec22f40ec8f62775f4c9f3676fc99dd2d7ba3d152e701",
        "03cfc1dc74ca2dc7c5dd1391f7b89ca7d2e718499a6c55e7d2b8afb3b3bcd849fc"
      ],
      "is_coinbase": false,
      "sequence": 4294967295
    },
    {
      "txid": "3a1abcc540b52a60e3fe9edb55713005cb65ac3d411ee01b56d887576214b538",
      "vout": 0,
      "prevout": {
        "scriptpubkey": "0014373aa39a9182f389ac11256315cd474322048556",
        "scriptpubkey_asm": "OP_0 OP_PUSHBYTES_20 373aa39a9182f389ac11256315cd474322048556",
        "scriptpubkey_type": "v0_p2wpkh",
        "scriptpubkey_address": "bc1qxua28x53stecntq3y433tn28gv3qfp2kdc296j",
        "value": 2070000
      },
      "scriptsig": "",
      "scriptsig_asm": "",
      "witness": [
        "3045022100df37c079619d2823c4e7c3a77fc493f4237a06caebaca3a7c214bb4abaa408160220105f93f3c757113843f70194f745a879ddb80d96717af6c376f851427e79002601",
        "02d65a29f55436cb12699effaee557b5dc035de96e07f3f9cc6dd0653c234fb12b"
      ],
      "is_coinbase": false,
      "sequence": 4294967295
    }
  ],
  "vout": [
    {
      "scriptpubkey": "0014ead5cc167dbbd44f5ae329277dc378d5e10ddc0d",
      "scriptpubkey_asm": "OP_0 OP_PUSHBYTES_20 ead5cc167dbbd44f5ae329277dc378d5e10ddc0d",
      "scriptpubkey_type": "v0_p2wpkh",
      "scriptpubkey_address": "bc1qat2uc9nah02y7khr9ynhmsmc6hssmhqd9c4ehj",
      "value": 8392508
    }
  ],
  "size": 341,
  "weight": 710,
  "fee": 2492,
  "status": {
    "confirmed": true,
    "block_height": 834460,
    "block_hash": "00000000000000000000484a79b643b2524bbce82e5d8a442013fa5b8905ed98",
    "block_time": 1710307468
  },
  "hex": "0100000000010216e617af073b61cdc69e989e9cb3867b563ba67c6d2032b7783211f053694cf30000000000ffffffff38b514625787d8561be01e413dac65cb05307155db9efee3602ab540c5bc1a3a0000000000ffffffff013c0f800000000000160014ead5cc167dbbd44f5ae329277dc378d5e10ddc0d02483045022100f630ef34162c0c18205f25e6fb9e00c226ffd25e4ce701fdee54b861ce7d0be4022040cdb99f13475bf1c5c07ec22f40ec8f62775f4c9f3676fc99dd2d7ba3d152e7012103cfc1dc74ca2dc7c5dd1391f7b89ca7d2e718499a6c55e7d2b8afb3b3bcd849fc02483045022100df37c079619d2823c4e7c3a77fc493f4237a06caebaca3a7c214bb4abaa408160220105f93f3c757113843f70194f745a879ddb80d96717af6c376f851427e790026012102d65a29f55436cb12699effaee557b5dc035de96e07f3f9cc6dd0653c234fb12b00000000"
}