{
  "txid": "003ce46193d984b4af5f9f31830630be2a2167b1747fb4565b185430ecd2fc4c",
  "version": 2,
  "locktime": 0,
  "vin": [
    {
      "txid": "acc3ba00869acb582a3f2904ce3a11dd3779350ce234063fc7d0959246213364",
      "vout": 97,
      "prevout": {
        "scriptpubkey": "51201923b66c0841b9284bf62878c1f92d6bb1570b58ee8239f45c2044e6060d0824",
        "scriptpubkey_asm": "OP_PUSHNUM_1 OP_PUSHBYTES_32 1923b66c0841b9284bf62878c1f92d6bb1570b58ee8239f45c2044e6060d0824",
        "scriptpubkey_type": "v1_p2tr",
        "scriptpubkey_address": "bc1pry3mvmqggxujsjlk9puvr7fddwc4wz6ca6prnazuypzwvpsdpqjquxyx6f",
        "value": 1806
      },
      "scriptsig": "",
      "scriptsig_asm": "",
      "witness": [
        "05ff2e5e9d8500b367221790d4736381ed77a2c31427d63754bac4118a1d2c409ea7795ea64f4ecfec2d7b7353b641ee376909a6ed6e5c99b69a07c9e8ef73db",
        "200a2fdd2ce0c2aba5b7682fef2c166a9a9b5d6c81b5a2568e00716898d9a24c65ac0063036f726401010a746578742f706c61696e00357b2270223a226272632d3230222c226f70223a226d696e74222c227469636b223a22646f6765222c22616d74223a2234323030227d68",
        "c10a2fdd2ce0c2aba5b7682fef2c166a9a9b5d6c81b5a2568e00716898d9a24c65"
      ],
      "is_coinbase": false,
      "sequence": 4261412863
    }
  ],
  "vout": [
    {
      "scriptpubkey": "00147a665de7a370f4c9b372ab1fae587500a5bcbdb4",
      "scriptpubkey_asm": "OP_0 OP_PUSHBYTES_20 7a665de7a370f4c9b372ab1fae587500a5bcbdb4",
      "scriptpubkey_type": "v0_p2wpkh",
      "scriptpubkey_address": "bc1q0fn9mearwr6vnvmj4v06ukr4qzjme0d565dzcx",
      "value": 294
    }
  ],
  "size": 294,
  "weight": 540,
  "fee": 1512,
  "status": {
    "confirmed": true,
    "block_height": 834460,
    "block_hash": "00000000000000000000484a79b643b2524bbce82e5d8a442013fa5b8905ed98",
    "block_time": 1710307468
  },
  "hex": "02000000000101643321469295d0c73f0634e20c357937dd113ace04293f2a58cb9a8600bac3ac6100000000fffffffd0126010000000000001600147a665de7a370f4c9b372ab1fae587500a5bcbdb4034005ff2e5e9d8500b367221790d4736381ed77a2c31427d63754bac4118a1d2c409ea7795ea64f4ecfec2d7b7353b641ee376909a6ed6e5c99b69a07c9e8ef73db6d200a2fdd2ce0c2aba5b7682fef2c166a9a9b5d6c81b5a2568e00716898d9a24c65ac0063036f726401010a746578742f706c61696e00357b2270223a226272632d3230222c226f70223a226d696e74222c227469636b223a22646f6765222c22616d74223a2234323030227d6821c10a2fdd2ce0c2aba5b7682fef2c166a9a9b5d6c81b5a2568e00716898d9a24c6500000000"
}