{
  "txid": "005a926f9b47c844bfa40aa36af1f5c5ed969de1dcaf0817e27b8e8114853bfa",
  "version": 2,
  "locktime": 0,
  "vin": [
    {
      "txid": "1cadb1fc4ff5c6fb5175a4c1d8f682be2e6963072bce7aad34e807a3ee4aba55",
      "vout": 1,
      "prevout": {
        "scriptpubkey": "51204b6aba79b884ab607b84ea8d54b544a4e717ee25fd695f72d1e53f1ec6ef5450",
        "scriptpubkey_asm": "OP_PUSHNUM_1 OP_PUSHBYTES_32 4b6aba79b884ab607b84ea8d54b544a4e717ee25fd695f72d1e53f1ec6ef5450",
        "scriptpubkey_type": "v1_p2tr",
        "scriptpubkey_address": "bc1pfd4t57dcsj4kq7uya2x4fd2y5nn30m39l4547uk3u5l3a3h023gqrhzf9m",
        "value": 214999
      },
      "scriptsig": "",
      "scriptsig_asm": "",
      "witness": [
        "c8eafd2c0b671822c6f7a1c789a906d4c85d3c36ddd2a95f6d7b2be666c46db3c66f1aff4c282625b2e28dc808445a639a66a3db9cea78efc55463effae1ba39"
      ],
      "is_coinbase": false,
      "sequence": 4294967295
    }
  ],
  "vout": [
    {
      "scriptpubkey": "5120dfd4f025a2368330ac7e0f94ddbbf9f5f1e157b92bbf7d1504b0b8f7e0c5637a",
      "scriptpubkey_asm": "OP_PUSHNUM_1 OP_PUSHBYTES_32 dfd4f025a2368330ac7e0f94ddbbf9f5f1e157b92bbf7d1504b0b8f7e0c5637a",
      "scriptpubkey_type": "v1_p2tr",
      "scriptpubkey_address": "bc1pml20qfdzx6pnptr7p72dmwle7hc7z4ae9wlh69gykzu00cx9vdaqrl5xxj",
      "value": 4000
    },
    {
      "scriptpubkey": "51204b6aba79b884ab607b84ea8d54b544a4e717ee25fd695f72d1e53f1ec6ef5450",
      "scriptpubkey_asm": "OP_PUSHNUM_1 OP_PUSHBYTES_32 4b6aba79b884ab607b84ea8d54b544a4e717ee25fd695f72d1e53f1ec6ef5450",
      "scriptpubkey_type": "v1_p2tr",
      "scriptpubkey_address": "bc1pfd4t57dcsj4kq7uya2x4fd2y5nn30m39l4547uk3u5l3a3h023gqrhzf9m",
      "value": 209305
    }
  ],
  "size": 205,
  "weight": 616,
  "fee": 1694,
  "status": {
    "confirmed": true,
    "block_height": 834464,
    "block_hash": "0000000000000000000177a0869a911a2b65c9bdcd5a8bcb02b68f305bee848e",
    "block_time": 1710308296
  },
  "hex": "0200000000010155ba4aeea307e834ad7ace2b0763692ebe82f6d8c1a47551fbc6f54ffcb1ad1c0100000000ffffffff02a00f000000000000225120dfd4f025a2368330ac7e0f94ddbbf9f5f1e157b92bbf7d1504b0b8f7e0c5637a99310300000000002251204b6aba79b884ab607b84ea8d54b544a4e717ee25fd695f72d1e53f1ec6ef54500140c8eafd2c0b671822c6f7a1c789a906d4c85d3c36ddd2a95f6d7b2be666c46db3c66f1aff4c282625b2e28dc808445a639a66a3db9cea78efc55463effae1ba3900000000"
}