{
  "txid": "006cee82da34170cdc93bd8de6fb40598b0bf3915afd84cd1f5a7563ec9f9e0b",
  "version": 2,
  "locktime": 0,
  "vin": [
    {
      "txid": "583681f3e0ea3e4ee28c15f30853a876751649c895f2c09e0fc0e479415d62bc",
      "vout": 0,
      "prevout": {
        "scriptpubkey": "5120910042ba1f7508ad73e86c77e340f60dc5236e2fbe83085c6e9fd8bc06b36086",
        "scriptpubkey_asm": "OP_PUSHNUM_1 OP_PUSHBYTES_32 910042ba1f7508ad73e86c77e340f60dc5236e2fbe83085c6e9fd8bc06b36086",
        "scriptpubkey_type": "v1_p2tr",
        "scriptpubkey_address": "bc1pjyqy9wslw5y26ulgd3m7xs8kphzjxm30h6psshrwnlvtcp4nvzrqjgz6wd",
        "value": 1290582
      },
      "scriptsig": "",
      "scriptsig_asm": "",
      "witness": [
        "e13cb775e018230b37e1f0a504e63a1985790a0b6e62d3dffef3ccdb76c54d7833ce3450f910df05c88707be10f5f521a0505009ebbcd45bb8b2b0f8638cd166"
      ],
      "is_coinbase": false,
      "sequence": 0
    }
  ],
  "vout": [
    {
      "scriptpubkey": "0020aa2034b2abd3d6898fac2e4708ea38f9092ab4bb8a674e897ecfe12f2ab8888e",
      "scriptpubkey_asm": "OP_0 OP_PUSHBYTES_32 aa2034b2abd3d6898fac2e4708ea38f9092ab4bb8a674e897ecfe12f2ab8888e",
      "scriptpubkey_type": "v0_p2wsh",
      "scriptpubkey_address": "bc1q4gsrfv4t60tgnrav9ers363clyyj4d9m3fn5azt7elsj724c3z8q20vrws",
      "value": 500000
    },
    {
      "scriptpubkey": "51204ceade159734eff1b3fb7261e148055cbc39d247d9c58091c833ecb0ae8d7df8",
      "scriptpubkey_asm": "OP_PUSHNUM_1 OP_PUSHBYTES_32 4ceade159734eff1b3fb7261e148055cbc39d247d9c58091c833ecb0ae8d7df8",
      "scriptpubkey_type": "v1_p2tr",
      "scriptpubkey_address": "bc1pfn4du9vhxnhlrvlmwfs7zjq9tj7rn5j8m8zcpywgx0ktpt5d0huqmzzgdg",
      "value": 788030
    }
  ],
  "size": 205,
  "weight": 616,
  "fee": 2552,
  "status": {
    "confirmed": true,
    "block_height": 834464,
    "block_hash": "0000000000000000000177a0869a911a2b65c9bdcd5a8bcb02b68f305bee848e",
    "block_time": 1710308296
  },
  "hex": "02000000000101bc625d4179e4c00f9ec0f295c849167576a85308f3158ce24e3eeae0f38136580000000000000000000220a1070000000000220020aa2034b2abd3d6898fac2e4708ea38f9092ab4bb8a674e897ecfe12f2ab8888e3e060c00000000002251204ceade159734eff1b3fb7261e148055cbc39d247d9c58091c833ecb0ae8d7df80140e13cb775e018230b37e1f0a504e63a1985790a0b6e62d3dffef3ccdb76c54d7833ce3450f910df05c88707be10f5f521a0505009ebbcd45bb8b2b0f8638cd16600000000"
}