{
  "txid": "006fa988d1f9f8b5169bb699259eed3d414c3fe933ee31fbed7e0bb10113cf07",
  "version": 2,
  "locktime": 0,
  "vin": [
    {
      "txid": "97ac16406024ee61f31076b6c634a29ac03cd72be860a926f3dc31b0b0228691",
      "vout": 0,
      "prevout": {
        "scriptpubkey": "a9143e5983b31ba14166df5e5eea0bc3b4033221691187",
        "scriptpubkey_asm": "OP_HASH160 OP_PUSHBYTES_20 3e5983b31ba14166df5e5eea0bc3b40332216911 OP_EQUAL",
        "scriptpubkey_type": "p2sh",
        "scriptpubkey_address": "37Nh41ZBGVABzJL6Lm1LqSQbAjM9Ldhfu6",
        "value": 285832
      },
      "scriptsig": "160014e4c8959f805e5c8ae979026ce4823d9035739e4f",
      "scriptsig_asm": "OP_PUSHBYTES_22 0014e4c8959f805e5c8ae979026ce4823d9035739e4f",
      "witness": [
        "3044022002281b40a6141eb73aba7573a58e276c36d710f43d90189610acbbb5ffa3a15c0220413ec928c84844d65c78b43c3141565b15265daa3ed2be9af8aeedd1420cbd0c01",
        "037f81b94d2181e94a9973a88973ebf16d5e7b7c76a30be6bbe7c73acc2938a87f"
      ],
      "is_coinbase": false,
      "sequence": 4294967295,
      "inner_redeemscript_asm": "OP_0 OP_PUSHBYTES_20 e4c8959f805e5c8ae979026ce4823d9035739e4f"
    }
  ],
  "vout": [
    {
      "scriptpubkey": "0014c234f0f0761f8b2cd26af6b379c9958739f3aa31",
      "scriptpubkey_asm": "OP_0 OP_PUSHBYTES_20 c234f0f0761f8b2cd26af6b379c9958739f3aa31",
      "scriptpubkey_type": "v0_p2wpkh",
      "scriptpubkey_address": "bc1qcg60purkr79je5n276ehnjv4suul8233s3293l",
      "value": 262262
    },
    {
      "scriptpubkey": "001411222f65f2ada61bc0e1db71553a2ff0a5092b19",
      "scriptpubkey_asm": "OP_0 OP_PUSHBYTES_20 11222f65f2ada61bc0e1db71553a2ff0a5092b19",
      "scriptpubkey_type": "v0_p2wpkh",
      "scriptpubkey_address": "bc1qzy3z7e0j4knphs8pmdc42w307zjsj2ceh3gj2a",
      "value": 19221
    }
  ],
  "size": 245,
  "weight": 653,
  "fee": 4349,
  "status": {
    "confirmed": true,
    "block_height": 834638,
    "block_hash": "000000000000000000025f742c626208ac87e0b7d15054abb4a19ca2d735a54e",
    "block_time": 1710405325
  },
  "hex": "02000000000101918622b0b031dcf326a960e82bd73cc09aa234c6b67610f361ee24604016ac970000000017160014e4c8959f805e5c8ae979026ce4823d9035739e4fffffffff027600040000000000160014c234f0f0761f8b2cd26af6b379c9958739f3aa31154b00000000000016001411222f65f2ada61bc0e1db71553a2ff0a5092b1902473044022002281b40a6141eb73aba7573a58e276c36d710f43d90189610acbbb5ffa3a15c0220413ec928c84844d65c78b43c3141565b15265daa3ed2be9af8aeedd1420cbd0c0121037f81b94d2181e94a9973a88973ebf16d5e7b7c76a30be6bbe7c73acc2938a87f00000000"
}