{
  "txid": "007c6cc94ee2d36d97c46b20b71ae2d17a207fa976c72759074ff1e984840955",
  "version": 2,
  "locktime": 0,
  "vin": [
    {
      "txid": "acc3ba00869acb582a3f2904ce3a11dd3779350ce234063fc7d0959246213364",
      "vout": 21,
      "prevout": {
        "scriptpubkey": "5120d44d911c9457aec92ac4cdc6114061bd541a54a9dc14e6cb883e1f96d3d39336",
        "scriptpubkey_asm": "OP_PUSHNUM_1 OP_PUSHBYTES_32 d44d911c9457aec92ac4cdc6114061bd541a54a9dc14e6cb883e1f96d3d39336",
        "scriptpubkey_type": "v1_p2tr",
        "scriptpubkey_address": "bc1p63xez8y527hvj2kyehrpzsrph42p549fms2wdjug8c0ed57njvmqw8f2nv",
        "value": 1806
      },
      "scriptsig": "",
      "scriptsig_asm": "",
      "witness": [
        "aaccc18746e87699c7435bb301bad43571874e41b829cab2b7fe0816d2d1c44bfac0e1e988dd94a2602a62152b8103cd9204ee3d5f58a03386354f3861710547",
        "20ecd3fbe59287890f14ae41ce8714008f573abadb2dc2f5b7c03717e7ed84776aac0063036f726401010a746578742f706c61696e00357b2270223a226272632d3230222c226f70223a226d696e74222c227469636b223a22646f6765222c22616d74223a2234323030227d68",
        "c0ecd3fbe59287890f14ae41ce8714008f573abadb2dc2f5b7c03717e7ed84776a"
      ],
      "is_coinbase": false,
      "sequence": 4261412863
    }
  ],
  "vout": [
    {
      "scriptpubkey": "00147a665de7a370f4c9b372ab1fae587500a5bcbdb4",
      "scriptpubkey_asm": "OP_0 OP_PUSHBYTES_20 7a665de7a370f4c9b372ab1fae587500a5bcbdb4",
      "scriptpubkey_type": "v0_p2wpkh",
      "scriptpubkey_address": "bc1q0fn9mearwr6vnvmj4v06ukr4qzjme0d565dzcx",
      "value": 294
    }
  ],
  "size": 294,
  "weight": 540,
  "fee": 1512,
  "status": {
    "confirmed": true,
    "block_height": 834460,
    "block_hash": "00000000000000000000484a79b643b2524bbce82e5d8a442013fa5b8905ed98",
    "block_time": 1710307468
  },
  "hex": "02000000000101643321469295d0c73f0634e20c357937dd113ace04293f2a58cb9a8600bac3ac1500000000fffffffd0126010000000000001600147a665de7a370f4c9b372ab1fae587500a5bcbdb40340aaccc18746e87699c7435bb301bad43571874e41b829cab2b7fe0816d2d1c44bfac0e1e988dd94a2602a62152b8103cd9204ee3d5f58a03386354f38617105476d20ecd3fbe59287890f14ae41ce8714008f573abadb2dc2f5b7c03717e7ed84776aac0063036f726401010a746578742f706c61696e00357b2270223a226272632d3230222c226f70223a226d696e74222c227469636b223a22646f6765222c22616d74223a2234323030227d6821c0ecd3fbe59287890f14ae41ce8714008f573abadb2dc2f5b7c03717e7ed84776a00000000"
}