{
  "txid": "00bbd67a57b7ed2e6f46a0bb0b31c221c0867943778db6922ee9cb4bccb1a931",
  "version": 2,
  "locktime": 0,
  "vin": [
    {
      "txid": "4657cb814142fa68d387f94dfc6124a6ffc57a5bfdc5887167f53fbb6bd047c8",
      "vout": 1,
      "prevout": {
        "scriptpubkey": "00145dd9d550082b9ca8b18eeb85fb32b0149b6e1483",
        "scriptpubkey_asm": "OP_0 OP_PUSHBYTES_20 5dd9d550082b9ca8b18eeb85fb32b0149b6e1483",
        "scriptpubkey_type": "v0_p2wpkh",
        "scriptpubkey_address": "bc1qthva25qg9ww23vvwawzlkv4szjdku9yrtjclsg",
        "value": 545662
      },
      "scriptsig": "",
      "scriptsig_asm": "",
      "witness": [
        "3045022100d0e546f07bfbd8e28df7d2dbc6d2994f0b808431cc98cfa5550a504fed558928022014d71a43b1325dc1bdc64f48eb89909cb733b81de88c160ffcfbf79a23606f4001",
        "03da5857fdcd343ed7a49db210161e9739c44ad0e1378d71e944ecee1cc7f75b52"
      ],
      "is_coinbase": false,
      "sequence": 4294967293
    }
  ],
  "vout": [
    {
      "scriptpubkey": "a914c836d15c7b54e558f9d27ad8f367f44d998493d287",
      "scriptpubkey_asm": "OP_HASH160 OP_PUSHBYTES_20 c836d15c7b54e558f9d27ad8f367f44d998493d2 OP_EQUAL",
      "scriptpubkey_type": "p2sh",
      "scriptpubkey_address": "3KwejidWAkKD8G3RUXc5o7ghK8QharZRMH",
      "value": 204220
    },
    {
      "scriptpubkey": "00145dd9d550082b9ca8b18eeb85fb32b0149b6e1483",
      "scriptpubkey_asm": "OP_0 OP_PUSHBYTES_20 5dd9d550082b9ca8b18eeb85fb32b0149b6e1483",
      "scriptpubkey_type": "v0_p2wpkh",
      "scriptpubkey_address": "bc1qthva25qg9ww23vvwawzlkv4szjdku9yrtjclsg",
      "value": 339056
    }
  ],
  "size": 224,
  "weight": 566,
  "fee": 2386,
  "status": {
    "confirmed": true,
    "block_height": 834638,
    "block_hash": "000000000000000000025f742c626208ac87e0b7d15054abb4a19ca2d735a54e",
    "block_time": 1710405325
  },
  "hex": "02000000000101c847d06bbb3ff5677188c5fd5b7ac5ffa62461fc4df987d368fa424181cb57460100000000fdffffff02bc1d03000000000017a914c836d15c7b54e558f9d27ad8f367f44d998493d287702c0500000000001600145dd9d550082b9ca8b18eeb85fb32b0149b6e148302483045022100d0e546f07bfbd8e28df7d2dbc6d2994f0b808431cc98cfa5550a504fed558928022014d71a43b1325dc1bdc64f48eb89909cb733b81de88c160ffcfbf79a23606f40012103da5857fdcd343ed7a49db210161e9739c44ad0e1378d71e944ecee1cc7f75b5200000000"
}