{
  "txid": "00c09cd66e982b21a0f10bcde8ead1b052dc82b36f0d3d1f971996977734c2fc",
  "version": 2,
  "locktime": 0,
  "vin": [
    {
      "txid": "a75cbd5754b45b96d7f280ba0a5ba887af09a9805dd8a4688d1f7d2fbbe4aa5d",
      "vout": 0,
      "prevout": {
        "scriptpubkey": "5120ad2f454063c07edc0f20890ac09e93c284f3adf33ab068d2de3fb64d82478d37",
        "scriptpubkey_asm": "OP_PUSHNUM_1 OP_PUSHBYTES_32 ad2f454063c07edc0f20890ac09e93c284f3adf33ab068d2de3fb64d82478d37",
        "scriptpubkey_type": "v1_p2tr",
        "scriptpubkey_address": "bc1p45h52srrcpldcreq3y9vp85nc2z08t0n82cx35k787mymqj835mskywupp",
        "value": 546
      },
      "scriptsig": "",
      "scriptsig_asm": "",
      "witness": [
        "b6c1695bac14e387dd04ce89431311f23a06bea08e5ff6b32cc01b7373dd7c63fc724953925c683646fbf0d226b360cae152d471c44609bb6aa7bd1a1774865a"
      ],
      "is_coinbase": false,
      "sequence": 2147483649
    },
    {
      "txid": "2f174a6e97f7b1c9720cb3da7c77c52db6d244db3c41debc8e9eb9c4a40ffab4",
      "vout": 1,
      "prevout": {
        "scriptpubkey": "5120ad2f454063c07edc0f20890ac09e93c284f3adf33ab068d2de3fb64d82478d37",
        "scriptpubkey_asm": "OP_PUSHNUM_1 OP_PUSHBYTES_32 ad2f454063c07edc0f20890ac09e93c284f3adf33ab068d2de3fb64d82478d37",
        "scriptpubkey_type": "v1_p2tr",
        "scriptpubkey_address": "bc1p45h52srrcpldcreq3y9vp85nc2z08t0n82cx35k787mymqj835mskywupp",
        "value": 296145
      },
      "scriptsig": "",
      "scriptsig_asm": "",
      "witness": [
        "dd41b35770120407811bd80456096fd7658b22f9bbae05149b67352515434a08623691e15d9114f7da105347369ab0b48b1bd96186e390b96f9b9e1ebd94a0e5"
      ],
      "is_coinbase": false,
      "sequence": 2147483649
    }
  ],
  "vout": [
    {
      "scriptpubkey": "00145ac2e2b4bd4d8369a96514ef0edfc5bd7553bb7d",
      "scriptpubkey_asm": "OP_0 OP_PUSHBYTES_20 5ac2e2b4bd4d8369a96514ef0edfc5bd7553bb7d",
      "scriptpubkey_type": "v0_p2wpkh",
      "scriptpubkey_address": "bc1qttpw9d9afkpkn2t9znhsah79h4648wma8lrnzs",
      "value": 546
    },
    {
      "scriptpubkey": "5120ad2f454063c07edc0f20890ac09e93c284f3adf33ab068d2de3fb64d82478d37",
      "scriptpubkey_asm": "OP_PUSHNUM_1 OP_PUSHBYTES_32 ad2f454063c07edc0f20890ac09e93c284f3adf33ab068d2de3fb64d82478d37",
      "scriptpubkey_type": "v1_p2tr",
      "scriptpubkey_address": "bc1p45h52srrcpldcreq3y9vp85nc2z08t0n82cx35k787mymqj835mskywupp",
      "value": 293160
    }
  ],
  "size": 300,
  "weight": 798,
  "fee": 2985,
  "status": {
    "confirmed": true,
    "block_height": 834460,
    "block_hash": "00000000000000000000484a79b643b2524bbce82e5d8a442013fa5b8905ed98",
    "block_time": 1710307468
  },
  "hex": "020000000001025daae4bb2f7d1f8d68a4d85d80a909af87a85b0aba80f2d7965bb45457bd5ca7000000000001000080b4fa0fa4c4b99e8ebcde413cdb44d2b62dc5777cdab30c72c9b1f7976e4a172f0100000000010000800222020000000000001600145ac2e2b4bd4d8369a96514ef0edfc5bd7553bb7d2879040000000000225120ad2f454063c07edc0f20890ac09e93c284f3adf33ab068d2de3fb64d82478d370140b6c1695bac14e387dd04ce89431311f23a06bea08e5ff6b32cc01b7373dd7c63fc724953925c683646fbf0d226b360cae152d471c44609bb6aa7bd1a1774865a0140dd41b35770120407811bd80456096fd7658b22f9bbae05149b67352515434a08623691e15d9114f7da105347369ab0b48b1bd96186e390b96f9b9e1ebd94a0e500000000"
}