{
  "txid": "00c4a55f63c44d2e8916cf786988cb22b7cc5630ef25cd571c8d094acd0f5d97",
  "version": 2,
  "locktime": 834637,
  "vin": [
    {
      "txid": "28a93e8d422c208429df5443c3f3f536c44cc93677a99759b55c03a62711e468",
      "vout": 1,
      "prevout": {
        "scriptpubkey": "0014bc4f0b91a441092d7581a8da3416b8c379d5fa8a",
        "scriptpubkey_asm": "OP_0 OP_PUSHBYTES_20 bc4f0b91a441092d7581a8da3416b8c379d5fa8a",
        "scriptpubkey_type": "v0_p2wpkh",
        "scriptpubkey_address": "bc1qh38shydygyyj6avp4rdrg94ccduat752ux28cv",
        "value": 778734544
      },
      "scriptsig": "",
      "scriptsig_asm": "",
      "witness": [
        "304402202d80cd8516732e013019c9febd1652d8c733a90fd0437e05f6804592b3739437022019ac0e6e220717513ec9da1c62e583b844d1de0fd525fae2c262e21374e27fda01",
        "02d0bb6d1025fb5e8f41ec5b99e856f700cf938f6da61c9625011e04c23582b5ee"
      ],
      "is_coinbase": false,
      "sequence": 4294967294
    }
  ],
  "vout": [
    {
      "scriptpubkey": "001406abaca6bdd619098b7e26ae499d3ec055fac14c",
      "scriptpubkey_asm": "OP_0 OP_PUSHBYTES_20 06abaca6bdd619098b7e26ae499d3ec055fac14c",
      "scriptpubkey_type": "v0_p2wpkh",
      "scriptpubkey_address": "bc1qq646ef4a6cvsnzm7y6hyn8f7cp2l4s2v6hfud5",
      "value": 778318088
    },
    {
      "scriptpubkey": "0014a5aaefac8e7916aa6cb043459bf33c6021ed24dc",
      "scriptpubkey_asm": "OP_0 OP_PUSHBYTES_20 a5aaefac8e7916aa6cb043459bf33c6021ed24dc",
      "scriptpubkey_type": "v0_p2wpkh",
      "scriptpubkey_address": "bc1q5k4wltyw0yt25m9sgdzehueuvqs76fxu3sl6nm",
      "value": 413000
    }
  ],
  "size": 222,
  "weight": 561,
  "fee": 3456,
  "status": {
    "confirmed": true,
    "block_height": 834638,
    "block_hash": "000000000000000000025f742c626208ac87e0b7d15054abb4a19ca2d735a54e",
    "block_time": 1710405325
  },
  "hex": "0200000000010168e41127a6035cb55997a97736c94cc436f5f3c34354df2984202c428d3ea9280100000000feffffff020831642e0000000016001406abaca6bdd619098b7e26ae499d3ec055fac14c484d060000000000160014a5aaefac8e7916aa6cb043459bf33c6021ed24dc0247304402202d80cd8516732e013019c9febd1652d8c733a90fd0437e05f6804592b3739437022019ac0e6e220717513ec9da1c62e583b844d1de0fd525fae2c262e21374e27fda012102d0bb6d1025fb5e8f41ec5b99e856f700cf938f6da61c9625011e04c23582b5ee4dbc0c00"
}