{
  "txid": "00d6eda8dab9a1fabc00a0704057f0a9b152c4c5b8183bd019f4888410633d6a",
  "version": 1,
  "locktime": 0,
  "vin": [
    {
      "txid": "41acb7580616005b483b89fbdc91286e67eda06674fddf91a11c295bbfa38512",
      "vout": 564,
      "prevout": {
        "scriptpubkey": "76a914d045b69cf9028665645988cd624bb558ef13ba5b88ac",
        "scriptpubkey_asm": "OP_DUP OP_HASH160 OP_PUSHBYTES_20 d045b69cf9028665645988cd624bb558ef13ba5b OP_EQUALVERIFY OP_CHECKSIG",
        "scriptpubkey_type": "p2pkh",
        "scriptpubkey_address": "1KzF4fkA3HF5KTMuJy9cYorLtYxWyvbswP",
        "value": 9625
      },
      "scriptsig": "47304402203ea4d583d963c7eaf6693c94bf30a78af1bf35aef91d9357d4097f0e08886491022073cd31d66c9f3c035e6cf8c8571de6edf342d45a1d71d1ff74a40b08a9a67e9f0121038ab6d493c7c1052506f50f90e1072389b1f2002fee4b5d79910fb17154f6f2f8",
      "scriptsig_asm": "OP_PUSHBYTES_71 304402203ea4d583d963c7eaf6693c94bf30a78af1bf35aef91d9357d4097f0e08886491022073cd31d66c9f3c035e6cf8c8571de6edf342d45a1d71d1ff74a40b08a9a67e9f01 OP_PUSHBYTES_33 038ab6d493c7c1052506f50f90e1072389b1f2002fee4b5d79910fb17154f6f2f8",
      "is_coinbase": false,
      "sequence": 4294967295
    },
    {
      "txid": "4dcf1b8130bb119d7cf5d8635d58b95df427aaee400f58faca0f8206b889e367",
      "vout": 1214,
      "prevout": {
        "scriptpubkey": "76a9140c68e36c426118c89b11c3a7930ff5d4aca142c288ac",
        "scriptpubkey_asm": "OP_DUP OP_HASH160 OP_PUSHBYTES_20 0c68e36c426118c89b11c3a7930ff5d4aca142c2 OP_EQUALVERIFY OP_CHECKSIG",
        "scriptpubkey_type": "p2pkh",
        "scriptpubkey_address": "128cm5Gzw86X33jEF8zuNwk3nHxY7dtDjH",
        "value": 6951
      },
      "scriptsig": "4730440220759a614a7b19a70ef9b49eb51a3a7d32c0aab148a286f2cd08623fbfee6e18e3022003314ee8257a0c8b53014f2d872ca56bbd795b9a226b9dbd5687ad749115058a012103479cf688742b7dd41f150a9a72d2abcdd22d06ec0aa47354e3d6382253f464bb",
      "scriptsig_asm": "OP_PUSHBYTES_71 30440220759a614a7b19a70ef9b49eb51a3a7d32c0aab148a286f2cd08623fbfee6e18e3022003314ee8257a0c8b53014f2d872ca56bbd795b9a226b9dbd5687ad749115058a01 OP_PUSHBYTES_33 03479cf688742b7dd41f150a9a72d2abcdd22d06ec0aa47354e3d6382253f464bb",
      "is_coinbase": false,
      "sequence": 4294967295
    },
    {
      "txid": "642bb199a37c17ff36d114d98754e9caa008ea9e808a8d22402217e75a89c0b2",
      "vout": 1559,
      "prevout": {
        "scriptpubkey": "76a9143a51e1a13bf6881d8fcec391d7ffdd088b9ae98388ac",
        "scriptpubkey_asm": "OP_DUP OP_HASH160 OP_PUSHBYTES_20 3a51e1a13bf6881d8fcec391d7ffdd088b9ae983 OP_EQUALVERIFY OP_CHECKSIG",
        "scriptpubkey_type": "p2pkh",
        "scriptpubkey_address": "16KNHLugYf2mE1vJPG1scpzdoeRAbtiD7i",
        "value": 4577
      },
      "scriptsig": "473044022063a66b63a7e57d04d536ce70215edeab2ead9463e26ce030d525ec9a76f8d8c10220186d8c7a59b34d5bdfc6403bc79abdf4e1841bacd76168cbe2bea5af5f49b87e012103ed7182c3031f73ebac9d0aa6c1ab5cdc25e1f309f7d8873686edf4eae5c56d08",
      "scriptsig_asm": "OP_PUSHBYTES_71 3044022063a66b63a7e57d04d536ce70215edeab2ead9463e26ce030d525ec9a76f8d8c10220186d8c7a59b34d5bdfc6403bc79abdf4e1841bacd76168cbe2bea5af5f49b87e01 OP_PUSHBYTES_33 03ed7182c3031f73ebac9d0aa6c1ab5cdc25e1f309f7d8873686edf4eae5c56d08",
      "is_coinbase": false,
      "sequence": 4294967295
    },
    {
      "txid": "a4acc723543ee75675629c41588e54ebc3539cf81bd3e7cb339b03af4527844f",
      "vout": 0,
      "prevout": {
        "scriptpubkey": "76a9147a340c520e357154a32626112aabff5f5cd223ea88ac",
        "scriptpubkey_asm": "OP_DUP OP_HASH160 OP_PUSHBYTES_20 7a340c520e357154a32626112aabff5f5cd223ea OP_EQUALVERIFY OP_CHECKSIG",
        "scriptpubkey_type": "p2pkh",
        "scriptpubkey_address": "1C99nmhEDWiyzgEDNoPywNJLVprFGANnAk",
        "value": 4937
      },
      "scriptsig": "483045022100eb453a3e7c02b00407ab44fa97e8eec93c96b70bd57c08de2c7f773ca06dbc06022070938884c2a1f063a372f90dd0147d375d39889c7f0baf6fe8d0f45105090bb50121024bd79c94e92b52e1206c14f733cefb6e3a4db88c967fd9d7287bd4782e4b3929",
      "scriptsig_asm": "OP_PUSHBYTES_72 3045022100eb453a3e7c02b00407ab44fa97e8eec93c96b70bd57c08de2c7f773ca06dbc06022070938884c2a1f063a372f90dd0147d375d39889c7f0baf6fe8d0f45105090bb501 OP_PUSHBYTES_33 024bd79c94e92b52e1206c14f733cefb6e3a4db88c967fd9d7287bd4782e4b3929",
      "is_coinbase": false,
      "sequence": 4294967295
    }
  ],
  "vout": [
    {
      "scriptpubkey": "76a914f4000a59043fe59f9d8e00382732ba34ec04d40688ac",
      "scriptpubkey_asm": "OP_DUP OP_HASH160 OP_PUSHBYTES_20 f4000a59043fe59f9d8e00382732ba34ec04d406 OP_EQUALVERIFY OP_CHECKSIG",
      "scriptpubkey_type": "p2pkh",
      "scriptpubkey_address": "1PF9vcgDv22xriRsfRxZ7xPAcXWd35pRPE",
      "value": 13290
    }
  ],
  "size": 633,
  "weight": 2532,
  "fee": 12800,
  "status": {
    "confirmed": true,
    "block_height": 834638,
    "block_hash": "000000000000000000025f742c626208ac87e0b7d15054abb4a19ca2d735a54e",
    "block_time": 1710405325
  },
  "hex": "01000000041285a3bf5b291ca191dffd7466a0ed676e2891dcfb893b485b00160658b7ac41340200006a47304402203ea4d583d963c7eaf6693c94bf30a78af1bf35aef91d9357d4097f0e08886491022073cd31d66c9f3c035e6cf8c8571de6edf342d45a1d71d1ff74a40b08a9a67e9f0121038ab6d493c7c1052506f50f90e1072389b1f2002fee4b5d79910fb17154f6f2f8ffffffff67e389b806820fcafa580f40eeaa27f45db9585d63d8f57c9d11bb30811bcf4dbe0400006a4730440220759a614a7b19a70ef9b49eb51a3a7d32c0aab148a286f2cd08623fbfee6e18e3022003314ee8257a0c8b53014f2d872ca56bbd795b9a226b9dbd5687ad749115058a012103479cf688742b7dd41f150a9a72d2abcdd22d06ec0aa47354e3d6382253f464bbffffffffb2c0895ae7172240228d8a809eea08a0cae95487d914d136ff177ca399b12b64170600006a473044022063a66b63a7e57d04d536ce70215edeab2ead9463e26ce030d525ec9a76f8d8c10220186d8c7a59b34d5bdfc6403bc79abdf4e1841bacd76168cbe2bea5af5f49b87e012103ed7182c3031f73ebac9d0aa6c1ab5cdc25e1f309f7d8873686edf4eae5c56d08ffffffff4f842745af039b33cbe7d31bf89c53c3eb548e58419c627556e73e5423c7aca4000000006b483045022100eb453a3e7c02b00407ab44fa97e8eec93c96b70bd57c08de2c7f773ca06dbc06022070938884c2a1f063a372f90dd0147d375d39889c7f0baf6fe8d0f45105090bb50121024bd79c94e92b52e1206c14f733cefb6e3a4db88c967fd9d7287bd4782e4b3929ffffffff01ea330000000000001976a914f4000a59043fe59f9d8e00382732ba34ec04d40688ac00000000"
}