{
  "txid": "00e2ad0165ccd45fac719469ee67e6e112520cbc3b60002b630eeb2042a649dd",
  "version": 2,
  "locktime": 0,
  "vin": [
    {
      "txid": "589ed1b6dc2afb625b0cec36920794514b91920408a44cc79b35814f8e51b21d",
      "vout": 9,
      "prevout": {
        "scriptpubkey": "5120c1804a117e3656926d8275a19ec9b4ceb06e357bf1028bc8aed4d7de3558188c",
        "scriptpubkey_asm": "OP_PUSHNUM_1 OP_PUSHBYTES_32 c1804a117e3656926d8275a19ec9b4ceb06e357bf1028bc8aed4d7de3558188c",
        "scriptpubkey_type": "v1_p2tr",
        "scriptpubkey_address": "bc1pcxqy5yt7xetfymvzwkseajd5e6cxudtm7ypghj9w6ntaud2crzxq0qg8cg",
        "value": 628288
      },
      "scriptsig": "",
      "scriptsig_asm": "",
      "witness": [
        "79f6964bbd3f9753ddc9b921f184671249fc2949abec893ba14766d29fbd31910e04463d89ae11d7a6d2bcd7e4b0b4ee0c4d0cb30374ed31b5979568441a859a"
      ],
      "is_coinbase": false,
      "sequence": 4294967295
    },
    {
      "txid": "d669dce459d681608f6dd77df50907e2b003566f4023cf5f0d3c340f4fd923f6",
      "vout": 14,
      "prevout": {
        "scriptpubkey": "5120c1804a117e3656926d8275a19ec9b4ceb06e357bf1028bc8aed4d7de3558188c",
        "scriptpubkey_asm": "OP_PUSHNUM_1 OP_PUSHBYTES_32 c1804a117e3656926d8275a19ec9b4ceb06e357bf1028bc8aed4d7de3558188c",
        "scriptpubkey_type": "v1_p2tr",
        "scriptpubkey_address": "bc1pcxqy5yt7xetfymvzwkseajd5e6cxudtm7ypghj9w6ntaud2crzxq0qg8cg",
        "value": 595174
      },
      "scriptsig": "",
      "scriptsig_asm": "",
      "witness": [
        "f1ee00346a863c362342aa7ab74e322b8fc5f04accf2119829f172301652001bef980f14ba61602514fc83a43ab284150f4c5d8ab5e0f8201d16d7fe9f44a83c"
      ],
      "is_coinbase": false,
      "sequence": 4294967295
    },
    {
      "txid": "0cf69b81ed6449495b236b05f069abcac821a8e686e89fc0e62841a69385cdfb",
      "vout": 6,
      "prevout": {
        "scriptpubkey": "5120c1804a117e3656926d8275a19ec9b4ceb06e357bf1028bc8aed4d7de3558188c",
        "scriptpubkey_asm": "OP_PUSHNUM_1 OP_PUSHBYTES_32 c1804a117e3656926d8275a19ec9b4ceb06e357bf1028bc8aed4d7de3558188c",
        "scriptpubkey_type": "v1_p2tr",
        "scriptpubkey_address": "bc1pcxqy5yt7xetfymvzwkseajd5e6cxudtm7ypghj9w6ntaud2crzxq0qg8cg",
        "value": 378006
      },
      "scriptsig": "",
      "scriptsig_asm": "",
      "witness": [
        "ba107a1d06526d0dca2bdfc2410ea2d0d22eca332cecba2d9211f9393265c20dd8eafd9de41bc67c61a62d6729ec35429b7657649eeefd1588ef29f2a726d6cf"
      ],
      "is_coinbase": false,
      "sequence": 4294967295
    }
  ],
  "vout": [
    {
      "scriptpubkey": "5120ed6f91c44fa6293a36b8674a143af1e1d71dd53e457fb391a85709d312cca5b6",
      "scriptpubkey_asm": "OP_PUSHNUM_1 OP_PUSHBYTES_32 ed6f91c44fa6293a36b8674a143af1e1d71dd53e457fb391a85709d312cca5b6",
      "scriptpubkey_type": "v1_p2tr",
      "scriptpubkey_address": "bc1pa4her3z05c5n5d4cva9pgwh3u8t3m4f7g4lm8ydg2uyaxykv5kmqna66xm",
      "value": 1500000
    },
    {
      "scriptpubkey": "5120c1804a117e3656926d8275a19ec9b4ceb06e357bf1028bc8aed4d7de3558188c",
      "scriptpubkey_asm": "OP_PUSHNUM_1 OP_PUSHBYTES_32 c1804a117e3656926d8275a19ec9b4ceb06e357bf1028bc8aed4d7de3558188c",
      "scriptpubkey_type": "v1_p2tr",
      "scriptpubkey_address": "bc1pcxqy5yt7xetfymvzwkseajd5e6cxudtm7ypghj9w6ntaud2crzxq0qg8cg",
      "value": 97702
    }
  ],
  "size": 419,
  "weight": 1076,
  "fee": 3766,
  "status": {
    "confirmed": true,
    "block_height": 834460,
    "block_hash": "00000000000000000000484a79b643b2524bbce82e5d8a442013fa5b8905ed98",
    "block_time": 1710307468
  },
  "hex": "020000000001031db2518e4f81359bc74ca4080492914b5194079236ec0c5b62fb2adcb6d19e580900000000fffffffff623d94f0f343c0d5fcf23406f5603b0e20709f57dd76d8f6081d659e4dc69d60e00000000fffffffffbcd8593a64128e6c09fe886e6a821c8caab69f0056b235b494964ed819bf60c0600000000ffffffff0260e3160000000000225120ed6f91c44fa6293a36b8674a143af1e1d71dd53e457fb391a85709d312cca5b6a67d010000000000225120c1804a117e3656926d8275a19ec9b4ceb06e357bf1028bc8aed4d7de3558188c014079f6964bbd3f9753ddc9b921f184671249fc2949abec893ba14766d29fbd31910e04463d89ae11d7a6d2bcd7e4b0b4ee0c4d0cb30374ed31b5979568441a859a0140f1ee00346a863c362342aa7ab74e322b8fc5f04accf2119829f172301652001bef980f14ba61602514fc83a43ab284150f4c5d8ab5e0f8201d16d7fe9f44a83c0140ba107a1d06526d0dca2bdfc2410ea2d0d22eca332cecba2d9211f9393265c20dd8eafd9de41bc67c61a62d6729ec35429b7657649eeefd1588ef29f2a726d6cf00000000"
}