{
  "txid": "00e51cd4fe109ce4a505e00ce348e04ff3e841925f4164c073d84d638a3bf14e",
  "version": 2,
  "locktime": 834458,
  "vin": [
    {
      "txid": "6d7952b533e7a2df87fa7b33bb7d41ae8453eb92249944dd3b60b2e7fde1321b",
      "vout": 0,
      "prevout": {
        "scriptpubkey": "00205b6b6395b00f003c6202959b0c9aa611f9be8843c5f36768fb99d43207901647",
        "scriptpubkey_asm": "OP_0 OP_PUSHBYTES_32 5b6b6395b00f003c6202959b0c9aa611f9be8843c5f36768fb99d43207901647",
        "scriptpubkey_type": "v0_p2wsh",
        "scriptpubkey_address": "bc1qtd4k89dspuqrccszjkdsex4xz8umazzrchekw68mn82rypuszers7c7x40",
        "value": 9496692
      },
      "scriptsig": "",
      "scriptsig_asm": "",
      "witness": [
        "",
        "30450221009e7064bc82d5710fd45ef7621e65864f95997b7b85b0c982927c3b2a6e8466ff02206436a3ce22ebbd16056dfdf5ba16648dc53b5274be0eef0000570f03ec42febf01",
        "3045022100d67c1c78d6e59b8e7df69b08c34413a46630a91d93a52de4560e4fa374fe5f6f02203988315c0654bb3fc30af3444efccb09e1960f7a93f0a4570c239a6a9eac413401",
        "5221020a80f3f14062ad3e30eab5e580c2fb6e87326d3ce065c0565607f5c8299ba1f32103a005af626977ae546a8ad45433612d07137a0b70e21f56d10ddf8c9999c9fa7152ae"
      ],
      "is_coinbase": false,
      "sequence": 4294967293,
      "inner_witnessscript_asm": "OP_PUSHNUM_2 OP_PUSHBYTES_33 020a80f3f14062ad3e30eab5e580c2fb6e87326d3ce065c0565607f5c8299ba1f3 OP_PUSHBYTES_33 03a005af626977ae546a8ad45433612d07137a0b70e21f56d10ddf8c9999c9fa71 OP_PUSHNUM_2 OP_CHECKMULTISIG"
    }
  ],
  "vout": [
    {
      "scriptpubkey": "0020674e2f51cb18b2881e0aa77f081ae0a0c0e2d2c94d40938c1eec5046fc3f48ea",
      "scriptpubkey_asm": "OP_0 OP_PUSHBYTES_32 674e2f51cb18b2881e0aa77f081ae0a0c0e2d2c94d40938c1eec5046fc3f48ea",
      "scriptpubkey_type": "v0_p2wsh",
      "scriptpubkey_address": "bc1qva8z75wtrzegs8s25alssxhq5rqw95kff4qf8rq7a3gydlplfr4q2mkppj",
      "value": 9009855
    },
    {
      "scriptpubkey": "00143f537506a6ca2b3648945813d9860ce3d7988046",
      "scriptpubkey_asm": "OP_0 OP_PUSHBYTES_20 3f537506a6ca2b3648945813d9860ce3d7988046",
      "scriptpubkey_type": "v0_p2wpkh",
      "scriptpubkey_address": "bc1q8afh2p4xeg4nvjy5tqfanpsvu0te3qzxpc8mmd",
      "value": 484665
    }
  ],
  "size": 347,
  "weight": 722,
  "fee": 2172,
  "status": {
    "confirmed": true,
    "block_height": 834460,
    "block_hash": "00000000000000000000484a79b643b2524bbce82e5d8a442013fa5b8905ed98",
    "block_time": 1710307468
  },
  "hex": "020000000001011b32e1fde7b2603bdd44992492eb5384ae417dbb337bfa87dfa2e733b552796d0000000000fdffffff02bf7a890000000000220020674e2f51cb18b2881e0aa77f081ae0a0c0e2d2c94d40938c1eec5046fc3f48ea39650700000000001600143f537506a6ca2b3648945813d9860ce3d798804604004830450221009e7064bc82d5710fd45ef7621e65864f95997b7b85b0c982927c3b2a6e8466ff02206436a3ce22ebbd16056dfdf5ba16648dc53b5274be0eef0000570f03ec42febf01483045022100d67c1c78d6e59b8e7df69b08c34413a46630a91d93a52de4560e4fa374fe5f6f02203988315c0654bb3fc30af3444efccb09e1960f7a93f0a4570c239a6a9eac413401475221020a80f3f14062ad3e30eab5e580c2fb6e87326d3ce065c0565607f5c8299ba1f32103a005af626977ae546a8ad45433612d07137a0b70e21f56d10ddf8c9999c9fa7152ae9abb0c00"
}