{
  "txid": "00f9ac308b2efaac33edae87a3042c2293acb4c6fc72a545482b59ac3c087cbf",
  "version": 2,
  "locktime": 0,
  "vin": [
    {
      "txid": "5f846d283984d01eb9829d816f88218abd33effc15a08222518615da3e5f47c5",
      "vout": 15,
      "prevout": {
        "scriptpubkey": "5120f91ff89045279ab0248d3f8be5b118d91f7a2b4dab94ba2ba62ae91535385942",
        "scriptpubkey_asm": "OP_PUSHNUM_1 OP_PUSHBYTES_32 f91ff89045279ab0248d3f8be5b118d91f7a2b4dab94ba2ba62ae91535385942",
        "scriptpubkey_type": "v1_p2tr",
        "scriptpubkey_address": "bc1ply0l3yz9y7dtqfyd8797tvgcmy0h526d4w2t52ax9t532dfct9pqcwtntg",
        "value": 2862
      },
      "scriptsig": "",
      "scriptsig_asm": "",
      "witness": [
        "ed15d7ce11be079bdd77e2a3ab3e4580a74905c64aa48139abfd606ce79e64727518512dcb2f1175d2498bf493e6f87059ee753fbed82f936bd204f496559273",
        "20a148ea5fe09598f6c1d3e00abcaa50fdeeb00bf5cbc9ae1607aad2d841af052aac0063036f726401011e6170706c69636174696f6e2f6a736f6e3b636861727365743d7574662d38004cd37b2270223a22706f772d3230222c226f70223a226d696e74222c227469636b223a2250455045222c22616d74223a2231303030222c22736f6c7574696f6e223a22504550453a626331706d6c3973653572666b6c3076393075786c7972667871717a366c34797364637172647371683735656c727133396676647164777139777276736e3a303030303030303030303030303030303030303139393431613561653132383937363539383134343239323533333030353762306461393666336465613163353a3333323433303138373131227d68",
        "c13beca27a4fc825f712a8ee0e92a93b2e9ce7496e1e1c5bfb1b103e51f3be77b5"
      ],
      "is_coinbase": false,
      "sequence": 4294967295
    }
  ],
  "vout": [
    {
      "scriptpubkey": "5120dfcb0cd069b7dec2bf86f906930002d7ea4837001b600bfa99f8c112a58d035c",
      "scriptpubkey_asm": "OP_PUSHNUM_1 OP_PUSHBYTES_32 dfcb0cd069b7dec2bf86f906930002d7ea4837001b600bfa99f8c112a58d035c",
      "scriptpubkey_type": "v1_p2tr",
      "scriptpubkey_address": "bc1pml9se5rfkl0v90uxlyrfxqqz6l4ysdcqrdsqh75elrq39fvdqdwq9wrvsn",
      "value": 546
    }
  ],
  "size": 487,
  "weight": 769,
  "fee": 2316,
  "status": {
    "confirmed": true,
    "block_height": 834460,
    "block_hash": "00000000000000000000484a79b643b2524bbce82e5d8a442013fa5b8905ed98",
    "block_time": 1710307468
  },
  "hex": "02000000000101c5475f3eda1586512282a015fcef33bd8a21886f819d82b91ed08439286d845f0f00000000ffffffff012202000000000000225120dfcb0cd069b7dec2bf86f906930002d7ea4837001b600bfa99f8c112a58d035c0340ed15d7ce11be079bdd77e2a3ab3e4580a74905c64aa48139abfd606ce79e64727518512dcb2f1175d2498bf493e6f87059ee753fbed82f936bd204f496559273fd200120a148ea5fe09598f6c1d3e00abcaa50fdeeb00bf5cbc9ae1607aad2d841af052aac0063036f726401011e6170706c69636174696f6e2f6a736f6e3b636861727365743d7574662d38004cd37b2270223a22706f772d3230222c226f70223a226d696e74222c227469636b223a2250455045222c22616d74223a2231303030222c22736f6c7574696f6e223a22504550453a626331706d6c3973653572666b6c3076393075786c7972667871717a366c34797364637172647371683735656c727133396676647164777139777276736e3a303030303030303030303030303030303030303139393431613561653132383937363539383134343239323533333030353762306461393666336465613163353a3333323433303138373131227d6821c13beca27a4fc825f712a8ee0e92a93b2e9ce7496e1e1c5bfb1b103e51f3be77b500000000"
}