{
  "txid": "0116cb33d4af228a15d3f2951370c24b3da23274e9835307707067ec7422640c",
  "version": 1,
  "locktime": 0,
  "vin": [
    {
      "txid": "dc87c43ecbee8b9ad72e19764c3c652c3d77eefb80e82ba0a1628709070222dd",
      "vout": 1,
      "prevout": {
        "scriptpubkey": "a91440a97d4cf541846c3f8aac5d609c83aba9dcc90487",
        "scriptpubkey_asm": "OP_HASH160 OP_PUSHBYTES_20 40a97d4cf541846c3f8aac5d609c83aba9dcc904 OP_EQUAL",
        "scriptpubkey_type": "p2sh",
        "scriptpubkey_address": "37avD9vkEPHf2f9rXufvnJXkGvEyjj5Baw",
        "value": 3373497
      },
      "scriptsig": "220020addb77d8201638d1911127e4222df9b2a3c949976b0a2854c6124f882d7c2446",
      "scriptsig_asm": "OP_PUSHBYTES_34 0020addb77d8201638d1911127e4222df9b2a3c949976b0a2854c6124f882d7c2446",
      "witness": [
        "",
        "304402206aa5ccd223e5d5115a7c270232c48e52a34f1fb37da3e168c589086778a2a1b6022051ccf1545e5925df6e9e0aad9280c209b1de16b89d2e2b675eaf7c52633ad78e01",
        "3045022100d81b8cfdb9209b31d0e653613bb4855479252caf08223095bd9947d9a6362eaa02201f44755ad59e2dde8c3a997937f5c53f0e4f82faf8487d4952771ebc737fca6701",
        "52210228263071fd4f321adbb3ff2746492f93c442d1d42f5e2a2f2f87c5c680cd3b4e2103bc8b32f937b621da74624ebb67019c7ddbfb1f2570c90e2a9dfbf2b23434c60c52ae"
      ],
      "is_coinbase": false,
      "sequence": 4294967295,
      "inner_redeemscript_asm": "OP_0 OP_PUSHBYTES_32 addb77d8201638d1911127e4222df9b2a3c949976b0a2854c6124f882d7c2446",
      "inner_witnessscript_asm": "OP_PUSHNUM_2 OP_PUSHBYTES_33 0228263071fd4f321adbb3ff2746492f93c442d1d42f5e2a2f2f87c5c680cd3b4e OP_PUSHBYTES_33 03bc8b32f937b621da74624ebb67019c7ddbfb1f2570c90e2a9dfbf2b23434c60c OP_PUSHNUM_2 OP_CHECKMULTISIG"
    }
  ],
  "vout": [
    {
      "scriptpubkey": "a9147af8fba1611785a5a44fca8b6e87bafbd08d269187",
      "scriptpubkey_asm": "OP_HASH160 OP_PUSHBYTES_20 7af8fba1611785a5a44fca8b6e87bafbd08d2691 OP_EQUAL",
      "scriptpubkey_type": "p2sh",
      "scriptpubkey_address": "3CuEdarCfHXs6qnezwvZJ8SEnmjE2iLxHu",
      "value": 64205
    },
    {
      "scriptpubkey": "a91440a97d4cf541846c3f8aac5d609c83aba9dcc90487",
      "scriptpubkey_asm": "OP_HASH160 OP_PUSHBYTES_20 40a97d4cf541846c3f8aac5d609c83aba9dcc904 OP_EQUAL",
      "scriptpubkey_type": "p2sh",
      "scriptpubkey_address": "37avD9vkEPHf2f9rXufvnJXkGvEyjj5Baw",
      "value": 3305584
    }
  ],
  "size": 371,
  "weight": 821,
  "fee": 3708,
  "status": {
    "confirmed": true,
    "block_height": 834638,
    "block_hash": "000000000000000000025f742c626208ac87e0b7d15054abb4a19ca2d735a54e",
    "block_time": 1710405325
  },
  "hex": "01000000000101dd220207098762a1a02be880fbee773d2c653c4c76192ed79a8beecb3ec487dc0100000023220020addb77d8201638d1911127e4222df9b2a3c949976b0a2854c6124f882d7c2446ffffffff02cdfa00000000000017a9147af8fba1611785a5a44fca8b6e87bafbd08d269187707032000000000017a91440a97d4cf541846c3f8aac5d609c83aba9dcc90487040047304402206aa5ccd223e5d5115a7c270232c48e52a34f1fb37da3e168c589086778a2a1b6022051ccf1545e5925df6e9e0aad9280c209b1de16b89d2e2b675eaf7c52633ad78e01483045022100d81b8cfdb9209b31d0e653613bb4855479252caf08223095bd9947d9a6362eaa02201f44755ad59e2dde8c3a997937f5c53f0e4f82faf8487d4952771ebc737fca67014752210228263071fd4f321adbb3ff2746492f93c442d1d42f5e2a2f2f87c5c680cd3b4e2103bc8b32f937b621da74624ebb67019c7ddbfb1f2570c90e2a9dfbf2b23434c60c52ae00000000"
}