{
  "txid": "011abd80c6e20e22a97a34a36e913fc4f2e80978d07ee2ce587aff0ea9203349",
  "version": 2,
  "locktime": 0,
  "vin": [
    {
      "txid": "b4a3d988dc4421bb226c90c7f727ae48c6cc14157d38f983a3bdb2c5783ffc4e",
      "vout": 2,
      "prevout": {
        "scriptpubkey": "0014bb6a56d0a99b761ef57ef578b1e3f3214cf94708",
        "scriptpubkey_asm": "OP_0 OP_PUSHBYTES_20 bb6a56d0a99b761ef57ef578b1e3f3214cf94708",
        "scriptpubkey_type": "v0_p2wpkh",
        "scriptpubkey_address": "bc1qhd49d59fndmpaat774utrclny9x0j3cga0vzqj",
        "value": 32336
      },
      "scriptsig": "",
      "scriptsig_asm": "",
      "witness": [
        "30440220131544774d28b928e82f6e58cab4c593e8cbc0dd6d82afc65bcfd2f338fe1bba02203a9ba3dfd8edb3fea1a8593c867b2399f9df7fbfb1892001975421e14f41f8cb01",
        "02337225b3e00089e679c8439f2104da6e416bb0dc3d812009ba1f81df122a01b5"
      ],
      "is_coinbase": false,
      "sequence": 4294967293
    }
  ],
  "vout": [
    {
      "scriptpubkey": "76a914f067fc62caa642068da8ec89d2c38cf91409fbb688ac",
      "scriptpubkey_asm": "OP_DUP OP_HASH160 OP_PUSHBYTES_20 f067fc62caa642068da8ec89d2c38cf91409fbb6 OP_EQUALVERIFY OP_CHECKSIG",
      "scriptpubkey_type": "p2pkh",
      "scriptpubkey_address": "1Nv9k76UhZHcD8zYGqX3yFrdm3nxBHccLZ",
      "value": 30798
    }
  ],
  "size": 194,
  "weight": 449,
  "fee": 1538,
  "status": {
    "confirmed": true,
    "block_height": 834464,
    "block_hash": "0000000000000000000177a0869a911a2b65c9bdcd5a8bcb02b68f305bee848e",
    "block_time": 1710308296
  },
  "hex": "020000000001014efc3f78c5b2bda383f9387d1514ccc648ae27f7c7906c22bb2144dc88d9a3b40200000000fdffffff014e780000000000001976a914f067fc62caa642068da8ec89d2c38cf91409fbb688ac024730440220131544774d28b928e82f6e58cab4c593e8cbc0dd6d82afc65bcfd2f338fe1bba02203a9ba3dfd8edb3fea1a8593c867b2399f9df7fbfb1892001975421e14f41f8cb012102337225b3e00089e679c8439f2104da6e416bb0dc3d812009ba1f81df122a01b500000000"
}