{
  "txid": "013295a1dc26d4caa5ee29676e7afe1acbe2bb35eac87ef8430415d98ec57012",
  "version": 1,
  "locktime": 0,
  "vin": [
    {
      "txid": "f32c0e0cca57a1f93f208df811c4819e3efb0a51c7f0b9191472ed660be47a30",
      "vout": 681,
      "prevout": {
        "scriptpubkey": "0014e8a9ada25a5d139a573ec003623ef787b84e0565",
        "scriptpubkey_asm": "OP_0 OP_PUSHBYTES_20 e8a9ada25a5d139a573ec003623ef787b84e0565",
        "scriptpubkey_type": "v0_p2wpkh",
        "scriptpubkey_address": "bc1qaz56mgj6t5fe54e7cqpky0hhs7uyupt9la2vs4",
        "value": 153861
      },
      "scriptsig": "",
      "scriptsig_asm": "",
      "witness": [
        "304402205c85d522e06f61fc76edfe9ce7c552ff7eac5d1e77b8f155d026e4af70056cf102207df16dfc4a0112582c2da03cc8dbc19850bdd3f83bbe215aa9980e89d5bd152d01",
        "0288be78c6ccdad5588a0147720a51bcddd5965db86390a61e36ebfff97fb2bb0c"
      ],
      "is_coinbase": false,
      "sequence": 4294967295
    },
    {
      "txid": "73274e131c130759390eebc4aaec8928acb5c45a7051d0abcf3bbd128b74af63",
      "vout": 622,
      "prevout": {
        "scriptpubkey": "0014e8a9ada25a5d139a573ec003623ef787b84e0565",
        "scriptpubkey_asm": "OP_0 OP_PUSHBYTES_20 e8a9ada25a5d139a573ec003623ef787b84e0565",
        "scriptpubkey_type": "v0_p2wpkh",
        "scriptpubkey_address": "bc1qaz56mgj6t5fe54e7cqpky0hhs7uyupt9la2vs4",
        "value": 154346
      },
      "scriptsig": "",
      "scriptsig_asm": "",
      "witness": [
        "304402207603922e2cfc8aa1b72795fbf21b2b0c61ee9f89dee5e812466a3d159cd3982702207c167d50764763b0fdbb2664cb3753e893ba34f5d5817179c48d94942fce094101",
        "0288be78c6ccdad5588a0147720a51bcddd5965db86390a61e36ebfff97fb2bb0c"
      ],
      "is_coinbase": false,
      "sequence": 4294967295
    },
    {
      "txid": "9f98a410917c61c2d6d5d50104cd41f891d3678f5d31385d71b468faa331c5ed",
      "vout": 714,
      "prevout": {
        "scriptpubkey": "0014e8a9ada25a5d139a573ec003623ef787b84e0565",
        "scriptpubkey_asm": "OP_0 OP_PUSHBYTES_20 e8a9ada25a5d139a573ec003623ef787b84e0565",
        "scriptpubkey_type": "v0_p2wpkh",
        "scriptpubkey_address": "bc1qaz56mgj6t5fe54e7cqpky0hhs7uyupt9la2vs4",
        "value": 157306
      },
      "scriptsig": "",
      "scriptsig_asm": "",
      "witness": [
        "3045022100a8a970378b34b3f12bfb52e161581ce87fd9c3a0aad232dbce367322c6063b5802201ffc34759bdd226a33ddbe455e941c05928387e646653dfe234a75309a2e94cb01",
        "0288be78c6ccdad5588a0147720a51bcddd5965db86390a61e36ebfff97fb2bb0c"
      ],
      "is_coinbase": false,
      "sequence": 4294967295
    },
    {
      "txid": "d12e8f7732c4d93837c534f1cec9d4a2e7aa526088d848d4fa0960ddb9e541e2",
      "vout": 767,
      "prevout": {
        "scriptpubkey": "0014e8a9ada25a5d139a573ec003623ef787b84e0565",
        "scriptpubkey_asm": "OP_0 OP_PUSHBYTES_20 e8a9ada25a5d139a573ec003623ef787b84e0565",
        "scriptpubkey_type": "v0_p2wpkh",
        "scriptpubkey_address": "bc1qaz56mgj6t5fe54e7cqpky0hhs7uyupt9la2vs4",
        "value": 161291
      },
      "scriptsig": "",
      "scriptsig_asm": "",
      "witness": [
        "304402200fe36ff9d9851762aba9ece9410e4d143634e103c9c4d39a9ff085b7516f0eb502207348ee463d91f2f36a689776d45a4220618aa7b839a8e9f0dbc2aafc8bdf2a5501",
        "0288be78c6ccdad5588a0147720a51bcddd5965db86390a61e36ebfff97fb2bb0c"
      ],
      "is_coinbase": false,
      "sequence": 4294967295
    },
    {
      "txid": "ddbe91f60016ae4b6d73845916d80742cdbf4a6342bd30d0134772cc89c7607a",
      "vout": 1,
      "prevout": {
        "scriptpubkey": "0014e8a9ada25a5d139a573ec003623ef787b84e0565",
        "scriptpubkey_asm": "OP_0 OP_PUSHBYTES_20 e8a9ada25a5d139a573ec003623ef787b84e0565",
        "scriptpubkey_type": "v0_p2wpkh",
        "scriptpubkey_address": "bc1qaz56mgj6t5fe54e7cqpky0hhs7uyupt9la2vs4",
        "value": 96248
      },
      "scriptsig": "",
      "scriptsig_asm": "",
      "witness": [
        "3044022100ac58e4a18040b4126b0e9e97faaccd2a2d9affcb8bdece47fe2c25cc3fd43d43021f230dd42bcc741e377f37f3ec7edfa8cb65bbb6fa0a5ce23579a7af9a2c868e01",
        "0288be78c6ccdad5588a0147720a51bcddd5965db86390a61e36ebfff97fb2bb0c"
      ],
      "is_coinbase": false,
      "sequence": 4294967295
    },
    {
      "txid": "7828385a0cc0e87b8fb57d80eb9040b9dd290318773a2283edf628e821188b3c",
      "vout": 592,
      "prevout": {
        "scriptpubkey": "0014e8a9ada25a5d139a573ec003623ef787b84e0565",
        "scriptpubkey_asm": "OP_0 OP_PUSHBYTES_20 e8a9ada25a5d139a573ec003623ef787b84e0565",
        "scriptpubkey_type": "v0_p2wpkh",
        "scriptpubkey_address": "bc1qaz56mgj6t5fe54e7cqpky0hhs7uyupt9la2vs4",
        "value": 150030
      },
      "scriptsig": "",
      "scriptsig_asm": "",
      "witness": [
        "3045022100d34cdf919497d17795722f312e6fcf207f3b72aa2727f5174f2d4a1553fd409a02202d2cfb24233d6c82c063a3655571e33a94cb9e120da3d82516b1b556192dab1001",
        "0288be78c6ccdad5588a0147720a51bcddd5965db86390a61e36ebfff97fb2bb0c"
      ],
      "is_coinbase": false,
      "sequence": 4294967295
    },
    {
      "txid": "f0c2100f89d1118bfe83f7965a81ea9dd42eb0c1fed5ce72c24368d002fbbbff",
      "vout": 573,
      "prevout": {
        "scriptpubkey": "0014e8a9ada25a5d139a573ec003623ef787b84e0565",
        "scriptpubkey_asm": "OP_0 OP_PUSHBYTES_20 e8a9ada25a5d139a573ec003623ef787b84e0565",
        "scriptpubkey_type": "v0_p2wpkh",
        "scriptpubkey_address": "bc1qaz56mgj6t5fe54e7cqpky0hhs7uyupt9la2vs4",
        "value": 150733
      },
      "scriptsig": "",
      "scriptsig_asm": "",
      "witness": [
        "3045022100886da7bd579affa5006fcb237954f1e8300fc3201333929e4618b1aab5134a210220441cda55a6f8c0c571a35fd21962365614a5fa32e58c8024b01e03eb8610a63601",
        "0288be78c6ccdad5588a0147720a51bcddd5965db86390a61e36ebfff97fb2bb0c"
      ],
      "is_coinbase": false,
      "sequence": 4294967295
    },
    {
      "txid": "d4fcbaed6f9e76ea7dc6b1be8fa4654c76ef155128db23232014ab6dc6879414",
      "vout": 590,
      "prevout": {
        "scriptpubkey": "0014e8a9ada25a5d139a573ec003623ef787b84e0565",
        "scriptpubkey_asm": "OP_0 OP_PUSHBYTES_20 e8a9ada25a5d139a573ec003623ef787b84e0565",
        "scriptpubkey_type": "v0_p2wpkh",
        "scriptpubkey_address": "bc1qaz56mgj6t5fe54e7cqpky0hhs7uyupt9la2vs4",
        "value": 150897
      },
      "scriptsig": "",
      "scriptsig_asm": "",
      "witness": [
        "3045022100aa6d1954733b9f8bf55df24c424e93539e5823b2355ef660d4ec1198247c01c302207e64aea56629bb05f98a1b83929556528e5fb3ad3fc4402e7ea4c02d434214b601",
        "0288be78c6ccdad5588a0147720a51bcddd5965db86390a61e36ebfff97fb2bb0c"
      ],
      "is_coinbase": false,
      "sequence": 4294967295
    },
    {
      "txid": "84726ab94444c511635149a2965a6f1978d24471cd5236ed4d16e8a0c9943e35",
      "vout": 588,
      "prevout": {
        "scriptpubkey": "0014e8a9ada25a5d139a573ec003623ef787b84e0565",
        "scriptpubkey_asm": "OP_0 OP_PUSHBYTES_20 e8a9ada25a5d139a573ec003623ef787b84e0565",
        "scriptpubkey_type": "v0_p2wpkh",
        "scriptpubkey_address": "bc1qaz56mgj6t5fe54e7cqpky0hhs7uyupt9la2vs4",
        "value": 150858
      },
      "scriptsig": "",
      "scriptsig_asm": "",
      "witness": [
        "3045022100a102c3966f29019f3e8a6a743c86afb3b53dd3be10f1a2f9caad4a46541cb92a02202f01f088498849e6a1d3e827d0974b850a3ea8b30c6c0f8b45a4ba1d61dbc04e01",
        "0288be78c6ccdad5588a0147720a51bcddd5965db86390a61e36ebfff97fb2bb0c"
      ],
      "is_coinbase": false,
      "sequence": 4294967295
    },
    {
      "txid": "f777f2c3a46e17370525ace8ed061e0a0725eaa6308d438c259920011e947aeb",
      "vout": 1,
      "prevout": {
        "scriptpubkey": "0014e8a9ada25a5d139a573ec003623ef787b84e0565",
        "scriptpubkey_asm": "OP_0 OP_PUSHBYTES_20 e8a9ada25a5d139a573ec003623ef787b84e0565",
        "scriptpubkey_type": "v0_p2wpkh",
        "scriptpubkey_address": "bc1qaz56mgj6t5fe54e7cqpky0hhs7uyupt9la2vs4",
        "value": 42133
      },
      "scriptsig": "",
      "scriptsig_asm": "",
      "witness": [
        "3045022100af480b504f97d7a96ab90270914922cbe250838a119de4abdbdcbaf6ba073c1e02203aa4be50e21796fa2495ea187014efcb762cb8f743d72a23f5fc3280df7ad99b01",
        "0288be78c6ccdad5588a0147720a51bcddd5965db86390a61e36ebfff97fb2bb0c"
      ],
      "is_coinbase": false,
      "sequence": 4294967295
    },
    {
      "txid": "b3fc5232bf5faf569f7429576bc6e2a04fdc566d9d43e22fbd4ee04ee357e23c",
      "vout": 1,
      "prevout": {
        "scriptpubkey": "0014e8a9ada25a5d139a573ec003623ef787b84e0565",
        "scriptpubkey_asm": "OP_0 OP_PUSHBYTES_20 e8a9ada25a5d139a573ec003623ef787b84e0565",
        "scriptpubkey_type": "v0_p2wpkh",
        "scriptpubkey_address": "bc1qaz56mgj6t5fe54e7cqpky0hhs7uyupt9la2vs4",
        "value": 30558
      },
      "scriptsig": "",
      "scriptsig_asm": "",
      "witness": [
        "3044022079af404533659761507a52a3be97661ca02a22ae5f8f43e3f1ab08bf96037e9302207adcf7fe90965e6e7f852daa13027e1982015637179a70ee7834f1cd1763762f01",
        "0288be78c6ccdad5588a0147720a51bcddd5965db86390a61e36ebfff97fb2bb0c"
      ],
      "is_coinbase": false,
      "sequence": 4294967295
    }
  ],
  "vout": [
    {
      "scriptpubkey": "76a914e57cd001342cf416bd91c3a44260ad30e0641f2d88ac",
      "scriptpubkey_asm": "OP_DUP OP_HASH160 OP_PUSHBYTES_20 e57cd001342cf416bd91c3a44260ad30e0641f2d OP_EQUALVERIFY OP_CHECKSIG",
      "scriptpubkey_type": "p2pkh",
      "scriptpubkey_address": "1MvRG4BwGbVUCRT1VC4J8fRDciJMNpyujR",
      "value": 1376850
    }
  ],
  "size": 1680,
  "weight": 3165,
  "fee": 21411,
  "status": {
    "confirmed": true,
    "block_height": 834638,
    "block_hash": "000000000000000000025f742c626208ac87e0b7d15054abb4a19ca2d735a54e",
    "block_time": 1710405325
  },
  "hex": "0100000000010b307ae40b66ed721419b9f0c7510afb3e9e81c411f88d203ff9a157ca0c0e2cf3a902000000ffffffff63af748b12bd3bcfabd051705ac4b5ac2889ecaac4eb0e395907131c134e27736e02000000ffffffffedc531a3fa68b4715d38315d8f67d391f841cd0401d5d5d6c2617c9110a4989fca02000000ffffffffe241e5b9dd6009fad448d8886052aae7a2d4c9cef134c53738d9c432778f2ed1ff02000000ffffffff7a60c789cc724713d030bd42634abfcd4207d8165984736d4bae1600f691bedd0100000000ffffffff3c8b1821e828f6ed83223a77180329ddb94090eb807db58f7be8c00c5a3828785002000000ffffffffffbbfb02d06843c272ced5fec1b02ed49dea815a96f783fe8b11d1890f10c2f03d02000000ffffffff149487c66dab14202323db285115ef764c65a48fbeb1c67dea769e6fedbafcd44e02000000ffffffff353e94c9a0e8164ded3652cd7144d278196f5a96a249516311c54444b96a72844c02000000ffffffffeb7a941e012099258c438d30a6ea25070a1e06ede8ac250537176ea4c3f277f70100000000ffffffff3ce257e34ee04ebd2fe2439d6d56dc4fa0e2c66b5729749f56af5fbf3252fcb30100000000ffffffff0152021500000000001976a914e57cd001342cf416bd91c3a44260ad30e0641f2d88ac0247304402205c85d522e06f61fc76edfe9ce7c552ff7eac5d1e77b8f155d026e4af70056cf102207df16dfc4a0112582c2da03cc8dbc19850bdd3f83bbe215aa9980e89d5bd152d01210288be78c6ccdad5588a0147720a51bcddd5965db86390a61e36ebfff97fb2bb0c0247304402207603922e2cfc8aa1b72795fbf21b2b0c61ee9f89dee5e812466a3d159cd3982702207c167d50764763b0fdbb2664cb3753e893ba34f5d5817179c48d94942fce094101210288be78c6ccdad5588a0147720a51bcddd5965db86390a61e36ebfff97fb2bb0c02483045022100a8a970378b34b3f12bfb52e161581ce87fd9c3a0aad232dbce367322c6063b5802201ffc34759bdd226a33ddbe455e941c05928387e646653dfe234a75309a2e94cb01210288be78c6ccdad5588a0147720a51bcddd5965db86390a61e36ebfff97fb2bb0c0247304402200fe36ff9d9851762aba9ece9410e4d143634e103c9c4d39a9ff085b7516f0eb502207348ee463d91f2f36a689776d45a4220618aa7b839a8e9f0dbc2aafc8bdf2a5501210288be78c6ccdad5588a0147720a51bcddd5965db86390a61e36ebfff97fb2bb0c02473044022100ac58e4a18040b4126b0e9e97faaccd2a2d9affcb8bdece47fe2c25cc3fd43d43021f230dd42bcc741e377f37f3ec7edfa8cb65bbb6fa0a5ce23579a7af9a2c868e01210288be78c6ccdad5588a0147720a51bcddd5965db86390a61e36ebfff97fb2bb0c02483045022100d34cdf919497d17795722f312e6fcf207f3b72aa2727f5174f2d4a1553fd409a02202d2cfb24233d6c82c063a3655571e33a94cb9e120da3d82516b1b556192dab1001210288be78c6ccdad5588a0147720a51bcddd5965db86390a61e36ebfff97fb2bb0c02483045022100886da7bd579affa5006fcb237954f1e8300fc3201333929e4618b1aab5134a210220441cda55a6f8c0c571a35fd21962365614a5fa32e58c8024b01e03eb8610a63601210288be78c6ccdad5588a0147720a51bcddd5965db86390a61e36ebfff97fb2bb0c02483045022100aa6d1954733b9f8bf55df24c424e93539e5823b2355ef660d4ec1198247c01c302207e64aea56629bb05f98a1b83929556528e5fb3ad3fc4402e7ea4c02d434214b601210288be78c6ccdad5588a0147720a51bcddd5965db86390a61e36ebfff97fb2bb0c02483045022100a102c3966f29019f3e8a6a743c86afb3b53dd3be10f1a2f9caad4a46541cb92a02202f01f088498849e6a1d3e827d0974b850a3ea8b30c6c0f8b45a4ba1d61dbc04e01210288be78c6ccdad5588a0147720a51bcddd5965db86390a61e36ebfff97fb2bb0c02483045022100af480b504f97d7a96ab90270914922cbe250838a119de4abdbdcbaf6ba073c1e02203aa4be50e21796fa2495ea187014efcb762cb8f743d72a23f5fc3280df7ad99b01210288be78c6ccdad5588a0147720a51bcddd5965db86390a61e36ebfff97fb2bb0c02473044022079af404533659761507a52a3be97661ca02a22ae5f8f43e3f1ab08bf96037e9302207adcf7fe90965e6e7f852daa13027e1982015637179a70ee7834f1cd1763762f01210288be78c6ccdad5588a0147720a51bcddd5965db86390a61e36ebfff97fb2bb0c00000000"
}