{
  "txid": "0132e5cb9d76ad5b470a4192e01655ee073b383965b1d3aa68cd29f4da983d78",
  "version": 2,
  "locktime": 834637,
  "vin": [
    {
      "txid": "05bc55b5b0c17066e91e8333f010b554be7b43ae90d24e459c21341fd83ab1e2",
      "vout": 3,
      "prevout": {
        "scriptpubkey": "0014252e23d6a6ccc4ab2f988f748fa4b83cc91c0159",
        "scriptpubkey_asm": "OP_0 OP_PUSHBYTES_20 252e23d6a6ccc4ab2f988f748fa4b83cc91c0159",
        "scriptpubkey_type": "v0_p2wpkh",
        "scriptpubkey_address": "bc1qy5hz844xenz2ktuc3a6glf9c8ny3cq2edfqhyw",
        "value": 111525051
      },
      "scriptsig": "",
      "scriptsig_asm": "",
      "witness": [
        "304402201b8de658c910b44bd1609d4d4842ff398f95bbb1a8afa2e59286b117e365a500022034f2b898ecedf2a7e4c71d95079c6d5e4a6f91ca61969783b1802f82c52d32a301",
        "020466d8697818f56c2d79304dcf67bebca9d87214dd0f58867170531da1ac89c9"
      ],
      "is_coinbase": false,
      "sequence": 4294967293
    }
  ],
  "vout": [
    {
      "scriptpubkey": "00149e45579484ae00f41c630590f46512dc79337088",
      "scriptpubkey_asm": "OP_0 OP_PUSHBYTES_20 9e45579484ae00f41c630590f46512dc79337088",
      "scriptpubkey_type": "v0_p2wpkh",
      "scriptpubkey_address": "bc1qnez409yy4cq0g8rrqkg0gegjm3unxuyg3kzgzn",
      "value": 1267109
    },
    {
      "scriptpubkey": "0014a249a6fbcac8d11def2e31209de9d657774e099e",
      "scriptpubkey_asm": "OP_0 OP_PUSHBYTES_20 a249a6fbcac8d11def2e31209de9d657774e099e",
      "scriptpubkey_type": "v0_p2wpkh",
      "scriptpubkey_address": "bc1q5fy6d772erg3mmewxysfm6wk2am5uzv7am6k34",
      "value": 108327199
    },
    {
      "scriptpubkey": "0014953a9febba90c8ec5bf8ba66dab09afe0bac29aa",
      "scriptpubkey_asm": "OP_0 OP_PUSHBYTES_20 953a9febba90c8ec5bf8ba66dab09afe0bac29aa",
      "scriptpubkey_type": "v0_p2wpkh",
      "scriptpubkey_address": "bc1qj5afl6a6jrywcklchfnd4vy6lc96c2d2zcx3dh",
      "value": 1926100
    }
  ],
  "size": 253,
  "weight": 685,
  "fee": 4643,
  "status": {
    "confirmed": true,
    "block_height": 834638,
    "block_hash": "000000000000000000025f742c626208ac87e0b7d15054abb4a19ca2d735a54e",
    "block_time": 1710405325
  },
  "hex": "02000000000101e2b13ad81f34219c454ed290ae437bbe54b510f033831ee96670c1b0b555bc050300000000fdffffff03a5551300000000001600149e45579484ae00f41c630590f46512dc793370881ff1740600000000160014a249a6fbcac8d11def2e31209de9d657774e099ed4631d0000000000160014953a9febba90c8ec5bf8ba66dab09afe0bac29aa0247304402201b8de658c910b44bd1609d4d4842ff398f95bbb1a8afa2e59286b117e365a500022034f2b898ecedf2a7e4c71d95079c6d5e4a6f91ca61969783b1802f82c52d32a30121020466d8697818f56c2d79304dcf67bebca9d87214dd0f58867170531da1ac89c94dbc0c00"
}