{
  "txid": "0148a6661ca58b79ecac28596049ac006b7f915f28f317fc7ceb1414b932f66d",
  "version": 1,
  "locktime": 0,
  "vin": [
    {
      "txid": "bc725542d2e637f762934c852acab1b145e6bd028d90b2b58cfb5297c2e4fb7a",
      "vout": 1,
      "prevout": {
        "scriptpubkey": "001448721845d8d8ad552aecdd259053f9fcc1f10a72",
        "scriptpubkey_asm": "OP_0 OP_PUSHBYTES_20 48721845d8d8ad552aecdd259053f9fcc1f10a72",
        "scriptpubkey_type": "v0_p2wpkh",
        "scriptpubkey_address": "bc1qfpeps3wcmzk422hvm5jeq5lelnqlzznjwyfy69",
        "value": 7637722820
      },
      "scriptsig": "",
      "scriptsig_asm": "",
      "witness": [
        "304402202635eb2d40a7bbc85d814649a921c30de467b4400781391db8858f28d1d0e50302205bfc8a197028435f26fe54431cf78b07325bfa175e1367bc6ef222aa9afb8c8c01",
        "02dc8683704adb6dbea6d1e0bb392ab45b57dcc9c5f919b7d59389fdd9fb096f25"
      ],
      "is_coinbase": false,
      "sequence": 4294967295
    }
  ],
  "vout": [
    {
      "scriptpubkey": "0014b6a641a2d789b7fe00e05ff966a11e588383a7d3",
      "scriptpubkey_asm": "OP_0 OP_PUSHBYTES_20 b6a641a2d789b7fe00e05ff966a11e588383a7d3",
      "scriptpubkey_type": "v0_p2wpkh",
      "scriptpubkey_address": "bc1qk6nyrgkh3xmluq8qtlukdgg7tzpc8f7n3muafh",
      "value": 2244232
    },
    {
      "scriptpubkey": "001448721845d8d8ad552aecdd259053f9fcc1f10a72",
      "scriptpubkey_asm": "OP_0 OP_PUSHBYTES_20 48721845d8d8ad552aecdd259053f9fcc1f10a72",
      "scriptpubkey_type": "v0_p2wpkh",
      "scriptpubkey_address": "bc1qfpeps3wcmzk422hvm5jeq5lelnqlzznjwyfy69",
      "value": 7635476388
    }
  ],
  "size": 222,
  "weight": 561,
  "fee": 2200,
  "status": {
    "confirmed": true,
    "block_height": 834552,
    "block_hash": "00000000000000000001dd0468a70c94f619251d286585cff57aeb4bd9ede330",
    "block_time": 1710355598
  },
  "hex": "010000000001017afbe4c29752fb8cb5b2908d02bde645b1b1ca2a854c9362f737e6d2425572bc0100000000ffffffff02883e220000000000160014b6a641a2d789b7fe00e05ff966a11e588383a7d3a41f1cc70100000016001448721845d8d8ad552aecdd259053f9fcc1f10a720247304402202635eb2d40a7bbc85d814649a921c30de467b4400781391db8858f28d1d0e50302205bfc8a197028435f26fe54431cf78b07325bfa175e1367bc6ef222aa9afb8c8c012102dc8683704adb6dbea6d1e0bb392ab45b57dcc9c5f919b7d59389fdd9fb096f2500000000"
}