{
  "txid": "014b7e65744857c343ce8fc72b04e4427646dcf21a68ed8b10ec65f59093de02",
  "version": 2,
  "locktime": 0,
  "vin": [
    {
      "txid": "acc3ba00869acb582a3f2904ce3a11dd3779350ce234063fc7d0959246213364",
      "vout": 194,
      "prevout": {
        "scriptpubkey": "512067b4263cea1ccc1f3500c73040790fbca2e423ff7ad717e2b4b349de96177543",
        "scriptpubkey_asm": "OP_PUSHNUM_1 OP_PUSHBYTES_32 67b4263cea1ccc1f3500c73040790fbca2e423ff7ad717e2b4b349de96177543",
        "scriptpubkey_type": "v1_p2tr",
        "scriptpubkey_address": "bc1pv76zv082rnxp7dgqcucyq7g0hj3wggll0tt30c45kdyaa9shw4psdsrzm5",
        "value": 1806
      },
      "scriptsig": "",
      "scriptsig_asm": "",
      "witness": [
        "febd05411f58e6e179a81fb11e523cc0c411e2e996ea57f073ba5a536b84b5ff952296de236db6b0212c6c101df583cf18c158df25b23c1b9dfa5c53a3e7c9b5",
        "20a931755c09965cbdd8439b7122ffd3294170940263a698547c49d6c1a39a2a69ac0063036f726401010a746578742f706c61696e00357b2270223a226272632d3230222c226f70223a226d696e74222c227469636b223a22646f6765222c22616d74223a2234323030227d68",
        "c0a931755c09965cbdd8439b7122ffd3294170940263a698547c49d6c1a39a2a69"
      ],
      "is_coinbase": false,
      "sequence": 4261412863
    }
  ],
  "vout": [
    {
      "scriptpubkey": "00147a665de7a370f4c9b372ab1fae587500a5bcbdb4",
      "scriptpubkey_asm": "OP_0 OP_PUSHBYTES_20 7a665de7a370f4c9b372ab1fae587500a5bcbdb4",
      "scriptpubkey_type": "v0_p2wpkh",
      "scriptpubkey_address": "bc1q0fn9mearwr6vnvmj4v06ukr4qzjme0d565dzcx",
      "value": 294
    }
  ],
  "size": 294,
  "weight": 540,
  "fee": 1512,
  "status": {
    "confirmed": true,
    "block_height": 834460,
    "block_hash": "00000000000000000000484a79b643b2524bbce82e5d8a442013fa5b8905ed98",
    "block_time": 1710307468
  },
  "hex": "02000000000101643321469295d0c73f0634e20c357937dd113ace04293f2a58cb9a8600bac3acc200000000fffffffd0126010000000000001600147a665de7a370f4c9b372ab1fae587500a5bcbdb40340febd05411f58e6e179a81fb11e523cc0c411e2e996ea57f073ba5a536b84b5ff952296de236db6b0212c6c101df583cf18c158df25b23c1b9dfa5c53a3e7c9b56d20a931755c09965cbdd8439b7122ffd3294170940263a698547c49d6c1a39a2a69ac0063036f726401010a746578742f706c61696e00357b2270223a226272632d3230222c226f70223a226d696e74222c227469636b223a22646f6765222c22616d74223a2234323030227d6821c0a931755c09965cbdd8439b7122ffd3294170940263a698547c49d6c1a39a2a6900000000"
}