{
  "txid": "015a14c8dc0d3bfe379bb05f6bbd7aa54dfa9f119d6056212f9ff48119926921",
  "version": 1,
  "locktime": 0,
  "vin": [
    {
      "txid": "0097570f03a6e18cd75d215c8ebd1ae4754663e43f99c2bb981d3b213caa5f21",
      "vout": 0,
      "prevout": {
        "scriptpubkey": "001439ea009e99f7b40fb69e61190d74a38e88c06521",
        "scriptpubkey_asm": "OP_0 OP_PUSHBYTES_20 39ea009e99f7b40fb69e61190d74a38e88c06521",
        "scriptpubkey_type": "v0_p2wpkh",
        "scriptpubkey_address": "bc1q884qp85e776qld57vyvs6a9r36yvqefppq55eg",
        "value": 6683198
      },
      "scriptsig": "",
      "scriptsig_asm": "",
      "witness": [
        "3045022100e7aa3a0ba47f29b9dfabf97b5ed92500ff60bfdf4f7101f0e5e3bf37e106913702205ec8a55c12bce697f7853128fbebf8571273f3592f884ce86db36687ddd7c9c801",
        "02ae8a5bdd3d9951c163c9cfe934d92b9915fc97d3dc34c39d98135e0da0bd0452"
      ],
      "is_coinbase": false,
      "sequence": 4294967295
    }
  ],
  "vout": [
    {
      "scriptpubkey": "00146002e2dae150460b467aa7f5fb0297435958efee",
      "scriptpubkey_asm": "OP_0 OP_PUSHBYTES_20 6002e2dae150460b467aa7f5fb0297435958efee",
      "scriptpubkey_type": "v0_p2wpkh",
      "scriptpubkey_address": "bc1qvqpw9khp2prqk3n65l6lkq5hgdv43mlwq6d3z6",
      "value": 6680228
    }
  ],
  "size": 192,
  "weight": 438,
  "fee": 2970,
  "status": {
    "confirmed": true,
    "block_height": 834638,
    "block_hash": "000000000000000000025f742c626208ac87e0b7d15054abb4a19ca2d735a54e",
    "block_time": 1710405325
  },
  "hex": "01000000000101215faa3c213b1d98bbc2993fe4634675e41abd8e5c215dd78ce1a6030f5797000000000000ffffffff01a4ee6500000000001600146002e2dae150460b467aa7f5fb0297435958efee02483045022100e7aa3a0ba47f29b9dfabf97b5ed92500ff60bfdf4f7101f0e5e3bf37e106913702205ec8a55c12bce697f7853128fbebf8571273f3592f884ce86db36687ddd7c9c8012102ae8a5bdd3d9951c163c9cfe934d92b9915fc97d3dc34c39d98135e0da0bd045200000000"
}