{
  "txid": "019588081108b5f38ab101e75cb412be6fb88a37f48a7a70a2b34edcc9c54b4e",
  "version": 1,
  "locktime": 0,
  "vin": [
    {
      "txid": "d8e7e8e82fbed756454bd31b97c31b208c3a5fcee5d9d1f6e298466163716b6b",
      "vout": 0,
      "prevout": {
        "scriptpubkey": "0014d31d3ec9c4b06bba6771e0bcf58d7f3c91850d61",
        "scriptpubkey_asm": "OP_0 OP_PUSHBYTES_20 d31d3ec9c4b06bba6771e0bcf58d7f3c91850d61",
        "scriptpubkey_type": "v0_p2wpkh",
        "scriptpubkey_address": "bc1q6vwnajwykp4m5em3uz70trtl8jgc2rtpfrzsr9",
        "value": 711618
      },
      "scriptsig": "",
      "scriptsig_asm": "",
      "witness": [
        "3045022100dc1863ac13bd78522f45b6a0bff2662cd0a81e889396c2c9f06e6d6eda0d97b10220047a8f04d7d5c6a34cc2e8089d374cedb62cf48426b8071627fd608ce57c4f8201",
        "03a022877725b8ee1e2fe99d860b47b9054338b5bc856908e416dd432c47d946de"
      ],
      "is_coinbase": false,
      "sequence": 4294967295
    }
  ],
  "vout": [
    {
      "scriptpubkey": "0014221f1ffba3be5f3ca08a49e7a6c1ef487589f76e",
      "scriptpubkey_asm": "OP_0 OP_PUSHBYTES_20 221f1ffba3be5f3ca08a49e7a6c1ef487589f76e",
      "scriptpubkey_type": "v0_p2wpkh",
      "scriptpubkey_address": "bc1qyg03l7arhe0negy2f8n6ds00fp6cnamwp0560e",
      "value": 500000
    },
    {
      "scriptpubkey": "0014a0c6160ff295a10728e3ca5ba3ea09807d2d6052",
      "scriptpubkey_asm": "OP_0 OP_PUSHBYTES_20 a0c6160ff295a10728e3ca5ba3ea09807d2d6052",
      "scriptpubkey_type": "v0_p2wpkh",
      "scriptpubkey_address": "bc1q5rrpvrljjkssw28refd686sfsp7j6czjtqsvkv",
      "value": 210076
    }
  ],
  "size": 223,
  "weight": 562,
  "fee": 1542,
  "status": {
    "confirmed": true,
    "block_height": 834464,
    "block_hash": "0000000000000000000177a0869a911a2b65c9bdcd5a8bcb02b68f305bee848e",
    "block_time": 1710308296
  },
  "hex": "010000000001016b6b7163614698e2f6d1d9e5ce5f3a8c201bc3971bd34b4556d7be2fe8e8e7d80000000000ffffffff0220a1070000000000160014221f1ffba3be5f3ca08a49e7a6c1ef487589f76e9c34030000000000160014a0c6160ff295a10728e3ca5ba3ea09807d2d605202483045022100dc1863ac13bd78522f45b6a0bff2662cd0a81e889396c2c9f06e6d6eda0d97b10220047a8f04d7d5c6a34cc2e8089d374cedb62cf48426b8071627fd608ce57c4f82012103a022877725b8ee1e2fe99d860b47b9054338b5bc856908e416dd432c47d946de00000000"
}