{
  "txid": "01982254408efcdeb6f632f3bd79589e62e450950facdb43648172fc8938dafb",
  "version": 1,
  "locktime": 0,
  "vin": [
    {
      "txid": "cf98a92e9e2531bfc36d43b57eda669749faf1727d4dee85f45f11ccebf59e41",
      "vout": 1,
      "prevout": {
        "scriptpubkey": "00146c5aed231370beef0f34fb33b6f7ba1270b9e1f9",
        "scriptpubkey_asm": "OP_0 OP_PUSHBYTES_20 6c5aed231370beef0f34fb33b6f7ba1270b9e1f9",
        "scriptpubkey_type": "v0_p2wpkh",
        "scriptpubkey_address": "bc1qd3dw6gcnwzlw7re5lvemdaa6zfctnc0emlrnp6",
        "value": 3300
      },
      "scriptsig": "",
      "scriptsig_asm": "",
      "witness": [
        "304402206de9d2b330c962ad2a31ca545e001fe42a86c182e56d1d873b881e664a892dfd02200ee177bc4300d2b8adf6d6b56f296b0ac71a0698ce6db053691859ccc8f17ab701",
        "039944794ca9f7df6aa966e020b0b94c29f5e9aa776923773e6cf5eb6de5ffc2e0"
      ],
      "is_coinbase": false,
      "sequence": 4294967295
    }
  ],
  "vout": [
    {
      "scriptpubkey": "0014e2c8f76e5fa88ff998151a0f7a6b844b96bc8ff0",
      "scriptpubkey_asm": "OP_0 OP_PUSHBYTES_20 e2c8f76e5fa88ff998151a0f7a6b844b96bc8ff0",
      "scriptpubkey_type": "v0_p2wpkh",
      "scriptpubkey_address": "bc1quty0wmjl4z8lnxq4rg8h56uyfwtterls6j5s9c",
      "value": 330
    }
  ],
  "size": 191,
  "weight": 437,
  "fee": 2970,
  "status": {
    "confirmed": true,
    "block_height": 834638,
    "block_hash": "000000000000000000025f742c626208ac87e0b7d15054abb4a19ca2d735a54e",
    "block_time": 1710405325
  },
  "hex": "01000000000101419ef5ebcc115ff485ee4d7d72f1fa499766da7eb5436dc3bf31259e2ea998cf0100000000ffffffff014a01000000000000160014e2c8f76e5fa88ff998151a0f7a6b844b96bc8ff00247304402206de9d2b330c962ad2a31ca545e001fe42a86c182e56d1d873b881e664a892dfd02200ee177bc4300d2b8adf6d6b56f296b0ac71a0698ce6db053691859ccc8f17ab70121039944794ca9f7df6aa966e020b0b94c29f5e9aa776923773e6cf5eb6de5ffc2e000000000"
}