{
  "txid": "01a5a631321f8e41e42521472b78f23a5561ff6c2db76e4f567ed679b184444a",
  "version": 2,
  "locktime": 0,
  "vin": [
    {
      "txid": "febf3c02a6d6478185bcd552e5cc3f1b32fbce741f977edf12a5b8256f4ceb76",
      "vout": 2,
      "prevout": {
        "scriptpubkey": "51206fdb72059b162a1366d35a60247217a8662a8df2fdd8498b6baf31ace5a2129d",
        "scriptpubkey_asm": "OP_PUSHNUM_1 OP_PUSHBYTES_32 6fdb72059b162a1366d35a60247217a8662a8df2fdd8498b6baf31ace5a2129d",
        "scriptpubkey_type": "v1_p2tr",
        "scriptpubkey_address": "bc1pdldhypvmzc4pxekntfszgush4pnz4r0jlhvynzmt4uc6eedzz2wsu4465p",
        "value": 106000
      },
      "scriptsig": "",
      "scriptsig_asm": "",
      "witness": [
        "2c2e1d71673103d7b50eaac6e7544b98915fa5fa3f984254e919abeb362f0363bbe9c840e7670e15a4a316e06cf85ceeb8d28f86ad27262c2877737add461954"
      ],
      "is_coinbase": false,
      "sequence": 4294967295
    }
  ],
  "vout": [
    {
      "scriptpubkey": "51206fdb72059b162a1366d35a60247217a8662a8df2fdd8498b6baf31ace5a2129d",
      "scriptpubkey_asm": "OP_PUSHNUM_1 OP_PUSHBYTES_32 6fdb72059b162a1366d35a60247217a8662a8df2fdd8498b6baf31ace5a2129d",
      "scriptpubkey_type": "v1_p2tr",
      "scriptpubkey_address": "bc1pdldhypvmzc4pxekntfszgush4pnz4r0jlhvynzmt4uc6eedzz2wsu4465p",
      "value": 600
    },
    {
      "scriptpubkey": "51206fdb72059b162a1366d35a60247217a8662a8df2fdd8498b6baf31ace5a2129d",
      "scriptpubkey_asm": "OP_PUSHNUM_1 OP_PUSHBYTES_32 6fdb72059b162a1366d35a60247217a8662a8df2fdd8498b6baf31ace5a2129d",
      "scriptpubkey_type": "v1_p2tr",
      "scriptpubkey_address": "bc1pdldhypvmzc4pxekntfszgush4pnz4r0jlhvynzmt4uc6eedzz2wsu4465p",
      "value": 600
    },
    {
      "scriptpubkey": "51206fdb72059b162a1366d35a60247217a8662a8df2fdd8498b6baf31ace5a2129d",
      "scriptpubkey_asm": "OP_PUSHNUM_1 OP_PUSHBYTES_32 6fdb72059b162a1366d35a60247217a8662a8df2fdd8498b6baf31ace5a2129d",
      "scriptpubkey_type": "v1_p2tr",
      "scriptpubkey_address": "bc1pdldhypvmzc4pxekntfszgush4pnz4r0jlhvynzmt4uc6eedzz2wsu4465p",
      "value": 101845
    }
  ],
  "size": 248,
  "weight": 788,
  "fee": 2955,
  "status": {
    "confirmed": true,
    "block_height": 834638,
    "block_hash": "000000000000000000025f742c626208ac87e0b7d15054abb4a19ca2d735a54e",
    "block_time": 1710405325
  },
  "hex": "0200000000010176eb4c6f25b8a512df7e971f74cefb321b3fcce552d5bc858147d6a6023cbffe0200000000ffffffff0358020000000000002251206fdb72059b162a1366d35a60247217a8662a8df2fdd8498b6baf31ace5a2129d58020000000000002251206fdb72059b162a1366d35a60247217a8662a8df2fdd8498b6baf31ace5a2129dd58d0100000000002251206fdb72059b162a1366d35a60247217a8662a8df2fdd8498b6baf31ace5a2129d01402c2e1d71673103d7b50eaac6e7544b98915fa5fa3f984254e919abeb362f0363bbe9c840e7670e15a4a316e06cf85ceeb8d28f86ad27262c2877737add46195400000000"
}