{
  "txid": "01ad7dc7dc1ca50cd21809e59e527dc03c06d77585d99d8f71d0e270859c268d",
  "version": 2,
  "locktime": 832199,
  "vin": [
    {
      "txid": "81112756accded95114f25478a7aa7d5e7bec6f36a3c415b2ca14e466bbf2e5c",
      "vout": 1,
      "prevout": {
        "scriptpubkey": "001415c757379751a4a72c79ab215f09e54fdd134ae4",
        "scriptpubkey_asm": "OP_0 OP_PUSHBYTES_20 15c757379751a4a72c79ab215f09e54fdd134ae4",
        "scriptpubkey_type": "v0_p2wpkh",
        "scriptpubkey_address": "bc1qzhr4wduh2xj2wtre4vs47z09flw3xjhyluskj9",
        "value": 27400
      },
      "scriptsig": "",
      "scriptsig_asm": "",
      "witness": [
        "3044022002e3c71b434cbc85182a5d5d3112440d52c947c8dc155682f52e9047d6f601f5022074a1ffa2cf057d10414ae26a3179ce8a92fb7301f89964f5badd06644f01a40e01",
        "032523b4f962d8ff164593253beec1e83feece3d236486cabafe45107f9af7dbde"
      ],
      "is_coinbase": false,
      "sequence": 4294967294
    }
  ],
  "vout": [
    {
      "scriptpubkey": "001454ce9c71b73bf3adc8e4b40ad5b56ede99c2cde3",
      "scriptpubkey_asm": "OP_0 OP_PUSHBYTES_20 54ce9c71b73bf3adc8e4b40ad5b56ede99c2cde3",
      "scriptpubkey_type": "v0_p2wpkh",
      "scriptpubkey_address": "bc1q2n8fcudh80e6mj8yks9dtdtwm6vu9n0r7qvzgj",
      "value": 25349
    },
    {
      "scriptpubkey": "a914993d16b6a762e3c8a8d86fb7bb8f7fe5678604f987",
      "scriptpubkey_asm": "OP_HASH160 OP_PUSHBYTES_20 993d16b6a762e3c8a8d86fb7bb8f7fe5678604f9 OP_EQUAL",
      "scriptpubkey_type": "p2sh",
      "scriptpubkey_address": "3FfGVQtvUjpGt8mZesyu6otUSpwUW9HdBa",
      "value": 546
    }
  ],
  "size": 223,
  "weight": 565,
  "fee": 1505,
  "status": {
    "confirmed": true,
    "block_height": 834464,
    "block_hash": "0000000000000000000177a0869a911a2b65c9bdcd5a8bcb02b68f305bee848e",
    "block_time": 1710308296
  },
  "hex": "020000000001015c2ebf6b464ea12c5b413c6af3c6bee7d5a77a8a47254f1195edcdac562711810100000000feffffff02056300000000000016001454ce9c71b73bf3adc8e4b40ad5b56ede99c2cde3220200000000000017a914993d16b6a762e3c8a8d86fb7bb8f7fe5678604f98702473044022002e3c71b434cbc85182a5d5d3112440d52c947c8dc155682f52e9047d6f601f5022074a1ffa2cf057d10414ae26a3179ce8a92fb7301f89964f5badd06644f01a40e0121032523b4f962d8ff164593253beec1e83feece3d236486cabafe45107f9af7dbdec7b20c00"
}