{
  "txid": "01c3f0d92f56bad0fa7297e363253ce91afd9fea6f4b220431b1a3006541882c",
  "version": 1,
  "locktime": 0,
  "vin": [
    {
      "txid": "29b7efc6b474fc368b9e4d293629ce62e8f1cf125000d23762549dc0ad94eacc",
      "vout": 1,
      "prevout": {
        "scriptpubkey": "0014e429b5030af618dbf3b6cb13449391e7a873c1e2",
        "scriptpubkey_asm": "OP_0 OP_PUSHBYTES_20 e429b5030af618dbf3b6cb13449391e7a873c1e2",
        "scriptpubkey_type": "v0_p2wpkh",
        "scriptpubkey_address": "bc1qus5m2qc27cvdhuakevf5fyu3u7588s0zrlfnmy",
        "value": 1155000
      },
      "scriptsig": "",
      "scriptsig_asm": "",
      "witness": [
        "304402206aa25fcf0906a540707f62ac257244e9bcd352d6447f7c95a5651c8c6c4ef36602206558e029c98ade624a149b7ffcdc33b5a1341c00d51368710f6d6a5b8a70ef1101",
        "0365c634b86b54bb1688c8e4a5f2b5db279e53578e01cf667b2aa7fd593429a04f"
      ],
      "is_coinbase": false,
      "sequence": 4294967295
    }
  ],
  "vout": [
    {
      "scriptpubkey": "0014ce51070a335bb7b3096944858f5864510dfb9115",
      "scriptpubkey_asm": "OP_0 OP_PUSHBYTES_20 ce51070a335bb7b3096944858f5864510dfb9115",
      "scriptpubkey_type": "v0_p2wpkh",
      "scriptpubkey_address": "bc1qeegswz3ntwmmxztfgjzc7kry2yxlhyg4kr2j88",
      "value": 2200
    },
    {
      "scriptpubkey": "0014b54492dcdc66caaab087302100a2e8092caca3a9",
      "scriptpubkey_asm": "OP_0 OP_PUSHBYTES_20 b54492dcdc66caaab087302100a2e8092caca3a9",
      "scriptpubkey_type": "v0_p2wpkh",
      "scriptpubkey_address": "bc1qk4zf9hxuvm924vy8xqsspghgpyk2egafymceem",
      "value": 1150000
    }
  ],
  "size": 222,
  "weight": 561,
  "fee": 2800,
  "status": {
    "confirmed": true,
    "block_height": 834638,
    "block_hash": "000000000000000000025f742c626208ac87e0b7d15054abb4a19ca2d735a54e",
    "block_time": 1710405325
  },
  "hex": "01000000000101ccea94adc09d546237d2005012cff1e862ce2936294d9e8b36fc74b4c6efb7290100000000ffffffff029808000000000000160014ce51070a335bb7b3096944858f5864510dfb9115308c110000000000160014b54492dcdc66caaab087302100a2e8092caca3a90247304402206aa25fcf0906a540707f62ac257244e9bcd352d6447f7c95a5651c8c6c4ef36602206558e029c98ade624a149b7ffcdc33b5a1341c00d51368710f6d6a5b8a70ef1101210365c634b86b54bb1688c8e4a5f2b5db279e53578e01cf667b2aa7fd593429a04f00000000"
}