{
  "txid": "01ce47fddb3920c763b17ab0a5aa17ba4ead8d651a4b97461dfbc5afa0958c3a",
  "version": 2,
  "locktime": 0,
  "vin": [
    {
      "txid": "c10e48caeee8756d57fbce0e4f26c1d08bb9f0d4a35c2d26269682da8df04dac",
      "vout": 39,
      "prevout": {
        "scriptpubkey": "5120a1703b39bc1550d5563d45a6b0adba176a2de27b9edb241bc3dae7e23ac58743",
        "scriptpubkey_asm": "OP_PUSHNUM_1 OP_PUSHBYTES_32 a1703b39bc1550d5563d45a6b0adba176a2de27b9edb241bc3dae7e23ac58743",
        "scriptpubkey_type": "v1_p2tr",
        "scriptpubkey_address": "bc1p59crkwduz4gd243agkntptd6za4zmcnmnmdjgx7rmtn7ywk9sapsvt9c9y",
        "value": 3634
      },
      "scriptsig": "",
      "scriptsig_asm": "",
      "witness": [
        "1b8ee66cdff5470f0f1f9ed1d4d0ce5ab21586f735c6fd2495d1be9622a8c9ce8393a858dff641e0d58c214d0b58afcc42fa85e8d79e35f8ac3930e941705271",
        "206171b40a180e5d4ba1a4b04e87e3d9eca9a99b4d5185d453b0709d1a53a8a9c4ac0063036f726401011e6170706c69636174696f6e2f6a736f6e3b636861727365743d7574662d38004cd37b2270223a22706f772d3230222c226f70223a226d696e74222c227469636b223a2250455045222c22616d74223a2231303030222c22736f6c7574696f6e223a22504550453a6263317071336e67663775716e73667434706d37357236397371616c6c30637068747278677773757a6d657864356c337039333566366d713666337664383a303030303030303030303030303030303030303139393431613561653132383937363539383134343239323533333030353762306461393666336465613163353a3430323635303936363737227d68",
        "c0406c0f2a67700582b42f36a71eb03478d57ba1acdc179ee1ec758acb282de3fd"
      ],
      "is_coinbase": false,
      "sequence": 4294967295
    }
  ],
  "vout": [
    {
      "scriptpubkey": "5120046684fb809c12ba877ea0f45803bffbf01bac6643a1c16f266d3f1096344eb6",
      "scriptpubkey_asm": "OP_PUSHNUM_1 OP_PUSHBYTES_32 046684fb809c12ba877ea0f45803bffbf01bac6643a1c16f266d3f1096344eb6",
      "scriptpubkey_type": "v1_p2tr",
      "scriptpubkey_address": "bc1pq3ngf7uqnsft4pm75r69sqall0cphtrxgwsuzmexd5l3p935f6mq6f3vd8",
      "value": 546
    }
  ],
  "size": 487,
  "weight": 769,
  "fee": 3088,
  "status": {
    "confirmed": true,
    "block_height": 834460,
    "block_hash": "00000000000000000000484a79b643b2524bbce82e5d8a442013fa5b8905ed98",
    "block_time": 1710307468
  },
  "hex": "02000000000101ac4df08dda829626262d5ca3d4f0b98bd0c1264f0ecefb576d75e8eeca480ec12700000000ffffffff012202000000000000225120046684fb809c12ba877ea0f45803bffbf01bac6643a1c16f266d3f1096344eb603401b8ee66cdff5470f0f1f9ed1d4d0ce5ab21586f735c6fd2495d1be9622a8c9ce8393a858dff641e0d58c214d0b58afcc42fa85e8d79e35f8ac3930e941705271fd2001206171b40a180e5d4ba1a4b04e87e3d9eca9a99b4d5185d453b0709d1a53a8a9c4ac0063036f726401011e6170706c69636174696f6e2f6a736f6e3b636861727365743d7574662d38004cd37b2270223a22706f772d3230222c226f70223a226d696e74222c227469636b223a2250455045222c22616d74223a2231303030222c22736f6c7574696f6e223a22504550453a6263317071336e67663775716e73667434706d37357236397371616c6c30637068747278677773757a6d657864356c337039333566366d713666337664383a303030303030303030303030303030303030303139393431613561653132383937363539383134343239323533333030353762306461393666336465613163353a3430323635303936363737227d6821c0406c0f2a67700582b42f36a71eb03478d57ba1acdc179ee1ec758acb282de3fd00000000"
}