{
  "txid": "01dfaef60604db4eedc66e4414d5c9da0014319a2b2b7442dbd2e2f3a6f40dd1",
  "version": 2,
  "locktime": 0,
  "vin": [
    {
      "txid": "26fecae10ed9f45bc12fb2689d5c09a71c16a72cd35f7c425c1d4208b1f6afe1",
      "vout": 1,
      "prevout": {
        "scriptpubkey": "76a9141dc07dbc6157fd61c059e714a60a1021dffa49ef88ac",
        "scriptpubkey_asm": "OP_DUP OP_HASH160 OP_PUSHBYTES_20 1dc07dbc6157fd61c059e714a60a1021dffa49ef OP_EQUALVERIFY OP_CHECKSIG",
        "scriptpubkey_type": "p2pkh",
        "scriptpubkey_address": "13iKC5pPN8B7BHikgvkimHojbjUwjg3xs4",
        "value": 123104
      },
      "scriptsig": "4830450221008ce94ecbd90f24ad4a1c21a78edfb7b328539a21bc820b99bea423bd2626e9c1022023ab569c40b884bc626d1dff17f9098d312831f7e818d8c635e0de38593e0f8f0121035c8fe6ea5a335d8cbdd53dfc14d3f1fccbff0102fbd8efb6f9fd00672c0dc19b",
      "scriptsig_asm": "OP_PUSHBYTES_72 30450221008ce94ecbd90f24ad4a1c21a78edfb7b328539a21bc820b99bea423bd2626e9c1022023ab569c40b884bc626d1dff17f9098d312831f7e818d8c635e0de38593e0f8f01 OP_PUSHBYTES_33 035c8fe6ea5a335d8cbdd53dfc14d3f1fccbff0102fbd8efb6f9fd00672c0dc19b",
      "is_coinbase": false,
      "sequence": 4294967295
    }
  ],
  "vout": [
    {
      "scriptpubkey": "001448dfa704897f78fdfbc2b9534055dd9b219ef5a8",
      "scriptpubkey_asm": "OP_0 OP_PUSHBYTES_20 48dfa704897f78fdfbc2b9534055dd9b219ef5a8",
      "scriptpubkey_type": "v0_p2wpkh",
      "scriptpubkey_address": "bc1qfr06wpyf0au0m77zh9f5q4wanvseaadgq9qhf9",
      "value": 12465
    },
    {
      "scriptpubkey": "76a9141dc07dbc6157fd61c059e714a60a1021dffa49ef88ac",
      "scriptpubkey_asm": "OP_DUP OP_HASH160 OP_PUSHBYTES_20 1dc07dbc6157fd61c059e714a60a1021dffa49ef OP_EQUALVERIFY OP_CHECKSIG",
      "scriptpubkey_type": "p2pkh",
      "scriptpubkey_address": "13iKC5pPN8B7BHikgvkimHojbjUwjg3xs4",
      "value": 107963
    }
  ],
  "size": 223,
  "weight": 892,
  "fee": 2676,
  "status": {
    "confirmed": true,
    "block_height": 834460,
    "block_hash": "00000000000000000000484a79b643b2524bbce82e5d8a442013fa5b8905ed98",
    "block_time": 1710307468
  },
  "hex": "0200000001e1aff6b108421d5c427c5fd32ca7161ca7095c9d68b22fc15bf4d90ee1cafe26010000006b4830450221008ce94ecbd90f24ad4a1c21a78edfb7b328539a21bc820b99bea423bd2626e9c1022023ab569c40b884bc626d1dff17f9098d312831f7e818d8c635e0de38593e0f8f0121035c8fe6ea5a335d8cbdd53dfc14d3f1fccbff0102fbd8efb6f9fd00672c0dc19bffffffff02b13000000000000016001448dfa704897f78fdfbc2b9534055dd9b219ef5a8bba50100000000001976a9141dc07dbc6157fd61c059e714a60a1021dffa49ef88ac00000000"
}