{
  "txid": "01e1bc3b0791e66f7b6f67fd0cb4572f33fbe9ba79dbc8261696d45976aa8698",
  "version": 2,
  "locktime": 0,
  "vin": [
    {
      "txid": "5891dbd1371ef0f38ba62afa85a10d3e30519743881357dc17679bfce075bc02",
      "vout": 1,
      "prevout": {
        "scriptpubkey": "0014b3db8819178626fc65d33b4f98ef6c0da3cf7a1b",
        "scriptpubkey_asm": "OP_0 OP_PUSHBYTES_20 b3db8819178626fc65d33b4f98ef6c0da3cf7a1b",
        "scriptpubkey_type": "v0_p2wpkh",
        "scriptpubkey_address": "bc1qk0dcsxghscn0cewn8d8e3mmvpk3u77sm5h3hh2",
        "value": 10380937
      },
      "scriptsig": "",
      "scriptsig_asm": "",
      "witness": [
        "304402207ebc69efdfb47dded8bed69fc35cc1ff1622dae651a4cf4f5beeea5c3e7c4653022046e032d014572b417c9ea09c6ed556396d89c29ce75c6af9fd66fa1f6565aef101",
        "02c6f71bf8474689a5f22155e66045ef09d8aa2af2a182c1c74aa5eed621682c95"
      ],
      "is_coinbase": false,
      "sequence": 4294967295
    }
  ],
  "vout": [
    {
      "scriptpubkey": "0014d97d0d823db4185d91fbb33fc3d6da21fb80d312",
      "scriptpubkey_asm": "OP_0 OP_PUSHBYTES_20 d97d0d823db4185d91fbb33fc3d6da21fb80d312",
      "scriptpubkey_type": "v0_p2wpkh",
      "scriptpubkey_address": "bc1qm97smq3aksv9my0mkvlu84k6y8acp5cjufmwf4",
      "value": 4130702
    },
    {
      "scriptpubkey": "0014b3db8819178626fc65d33b4f98ef6c0da3cf7a1b",
      "scriptpubkey_asm": "OP_0 OP_PUSHBYTES_20 b3db8819178626fc65d33b4f98ef6c0da3cf7a1b",
      "scriptpubkey_type": "v0_p2wpkh",
      "scriptpubkey_address": "bc1qk0dcsxghscn0cewn8d8e3mmvpk3u77sm5h3hh2",
      "value": 6247503
    }
  ],
  "size": 222,
  "weight": 561,
  "fee": 2732,
  "status": {
    "confirmed": true,
    "block_height": 834638,
    "block_hash": "000000000000000000025f742c626208ac87e0b7d15054abb4a19ca2d735a54e",
    "block_time": 1710405325
  },
  "hex": "0200000000010102bc75e0fc9b6717dc571388439751303e0da185fa2aa68bf3f01e37d1db91580100000000ffffffff028e073f0000000000160014d97d0d823db4185d91fbb33fc3d6da21fb80d3124f545f0000000000160014b3db8819178626fc65d33b4f98ef6c0da3cf7a1b0247304402207ebc69efdfb47dded8bed69fc35cc1ff1622dae651a4cf4f5beeea5c3e7c4653022046e032d014572b417c9ea09c6ed556396d89c29ce75c6af9fd66fa1f6565aef1012102c6f71bf8474689a5f22155e66045ef09d8aa2af2a182c1c74aa5eed621682c9500000000"
}