{
  "txid": "01e46127a9aa9ecd0b836c0f313368e590c449ded8d53ccb78dd2822fe3448b4",
  "version": 2,
  "locktime": 834637,
  "vin": [
    {
      "txid": "ed5a0fb099fe11c859ef98672591a7465f310665458db13c3cdcd887bd686745",
      "vout": 1,
      "prevout": {
        "scriptpubkey": "00141e7e2ca5c7e67facb41feddbaae15cd4e78151bc",
        "scriptpubkey_asm": "OP_0 OP_PUSHBYTES_20 1e7e2ca5c7e67facb41feddbaae15cd4e78151bc",
        "scriptpubkey_type": "v0_p2wpkh",
        "scriptpubkey_address": "bc1qrelzefw8uel6edqlahd64c2u6nncz5dusn07gu",
        "value": 699532
      },
      "scriptsig": "",
      "scriptsig_asm": "",
      "witness": [
        "30440220688dcf68655bf20a48788b46db1759e558ddb76599ed5bafdf789a21144d969e02200c109a322def722563f62edfaa1956518864887de0f6bc64621e87f831891a2c01",
        "027f4cdd79928ab4aff874597ac1c0ce0584cc0ee909b55f47613d51248f0749f6"
      ],
      "is_coinbase": false,
      "sequence": 4294967293
    },
    {
      "txid": "5c9ae0ca236acf0eb8ab5877cad75bb24ebdac24c63d620033350629bde513fc",
      "vout": 10,
      "prevout": {
        "scriptpubkey": "001488135a41638f3e005dd53d5c3966b6a95d89648a",
        "scriptpubkey_asm": "OP_0 OP_PUSHBYTES_20 88135a41638f3e005dd53d5c3966b6a95d89648a",
        "scriptpubkey_type": "v0_p2wpkh",
        "scriptpubkey_address": "bc1q3qf45str3ulqqhw484wrje4k49wcjey2stvaj2",
        "value": 1017581
      },
      "scriptsig": "",
      "scriptsig_asm": "",
      "witness": [
        "304402207e636805a76cad58bc68f7f7c9f4a86e4544eb83afefd853a8af2c2fa5ff70650220486dc0d7b711df3ca59244d316020bd48ca4815c582d4995b269cff3c56cdd4901",
        "02298ff94f7c5fa22cecbc3d53acc55baeb9f21565408564c88a52833b71bfcfaf"
      ],
      "is_coinbase": false,
      "sequence": 4294967293
    },
    {
      "txid": "d2246147c16b117410319da5c50953252559ad2e250d45eb3828c765603c616e",
      "vout": 1,
      "prevout": {
        "scriptpubkey": "00146f773a600028e63053b906990c15a280629714c8",
        "scriptpubkey_asm": "OP_0 OP_PUSHBYTES_20 6f773a600028e63053b906990c15a280629714c8",
        "scriptpubkey_type": "v0_p2wpkh",
        "scriptpubkey_address": "bc1qdamn5cqq9rnrq5aeq6vsc9dzsp3fw9xgdg3dax",
        "value": 687211
      },
      "scriptsig": "",
      "scriptsig_asm": "",
      "witness": [
        "304402201ce856c096bba29eb5b759cb52713eb86e38295868f18b8121db2a8348c17ac502200bfd9d97d35e00790e054ba5e0bf088505c6eaf740ff2b7527beb165dd3464fb01",
        "02c191e5251be410425c969f4c5a8e086d86e3969c72646b09e69ee8a9107e0a61"
      ],
      "is_coinbase": false,
      "sequence": 4294967293
    }
  ],
  "vout": [
    {
      "scriptpubkey": "0014060843781afac45fccb46f8dc3b5282307080b49",
      "scriptpubkey_asm": "OP_0 OP_PUSHBYTES_20 060843781afac45fccb46f8dc3b5282307080b49",
      "scriptpubkey_type": "v0_p2wpkh",
      "scriptpubkey_address": "bc1qqcyyx7q6ltz9ln95d7xu8dfgyvrssz6f2l6nfu",
      "value": 2400000
    }
  ],
  "size": 487,
  "weight": 979,
  "fee": 4324,
  "status": {
    "confirmed": true,
    "block_height": 834638,
    "block_hash": "000000000000000000025f742c626208ac87e0b7d15054abb4a19ca2d735a54e",
    "block_time": 1710405325
  },
  "hex": "02000000000103456768bd87d8dc3c3cb18d456506315f46a791256798ef59c811fe99b00f5aed0100000000fdfffffffc13e5bd2906353300623dc624acbd4eb25bd7ca7758abb80ecf6a23cae09a5c0a00000000fdffffff6e613c6065c72838eb450d252ead5925255309c5a59d311074116bc1476124d20100000000fdffffff01009f240000000000160014060843781afac45fccb46f8dc3b5282307080b49024730440220688dcf68655bf20a48788b46db1759e558ddb76599ed5bafdf789a21144d969e02200c109a322def722563f62edfaa1956518864887de0f6bc64621e87f831891a2c0121027f4cdd79928ab4aff874597ac1c0ce0584cc0ee909b55f47613d51248f0749f60247304402207e636805a76cad58bc68f7f7c9f4a86e4544eb83afefd853a8af2c2fa5ff70650220486dc0d7b711df3ca59244d316020bd48ca4815c582d4995b269cff3c56cdd49012102298ff94f7c5fa22cecbc3d53acc55baeb9f21565408564c88a52833b71bfcfaf0247304402201ce856c096bba29eb5b759cb52713eb86e38295868f18b8121db2a8348c17ac502200bfd9d97d35e00790e054ba5e0bf088505c6eaf740ff2b7527beb165dd3464fb012102c191e5251be410425c969f4c5a8e086d86e3969c72646b09e69ee8a9107e0a614dbc0c00"
}