{
  "txid": "01ebca32faecd3e433a0240785dcc81441ad546a1a58451b6cafcb3a4b58ee04",
  "version": 2,
  "locktime": 0,
  "vin": [
    {
      "txid": "c3a572e93bb4d4cfc5540f372c79c01e980bcec2e784fa7c990818f465dd90cd",
      "vout": 13,
      "prevout": {
        "scriptpubkey": "0014e309598df8450fe537e32078303c3629d651cdd7",
        "scriptpubkey_asm": "OP_0 OP_PUSHBYTES_20 e309598df8450fe537e32078303c3629d651cdd7",
        "scriptpubkey_type": "v0_p2wpkh",
        "scriptpubkey_address": "bc1quvy4nr0cg5872dlrypurq0pk98t9rnwhanyuun",
        "value": 10000
      },
      "scriptsig": "",
      "scriptsig_asm": "",
      "witness": [
        "3045022100fcea6a912831381f6b94a8fb0a6557bd26cd7264b286ef14e037e6660d1ef6d602205b20d0a20f30daa213e058275bfe34b6506449bdb2a76e25bd00c02c52a28b7201",
        "03d06e1c5b2594246d6e6a9867d7d28a9c7e4bbc7a94a04924e089c8899b7c0079"
      ],
      "is_coinbase": false,
      "sequence": 4294967295
    },
    {
      "txid": "3f64ea86f26bf9e0670dd84afbd9160e41a14fdc9bbe8a8c537501c4cdea34a6",
      "vout": 43,
      "prevout": {
        "scriptpubkey": "0014e309598df8450fe537e32078303c3629d651cdd7",
        "scriptpubkey_asm": "OP_0 OP_PUSHBYTES_20 e309598df8450fe537e32078303c3629d651cdd7",
        "scriptpubkey_type": "v0_p2wpkh",
        "scriptpubkey_address": "bc1quvy4nr0cg5872dlrypurq0pk98t9rnwhanyuun",
        "value": 4988762
      },
      "scriptsig": "",
      "scriptsig_asm": "",
      "witness": [
        "304402201d2ea4325e4a3f2beaf94da85786aca641e2ef645e638e37f7d896a0fbcb124002207b5a046bb453e851cc78d86e488fbdfe2279ef3d31969265d8dd8b242a28606601",
        "03d06e1c5b2594246d6e6a9867d7d28a9c7e4bbc7a94a04924e089c8899b7c0079"
      ],
      "is_coinbase": false,
      "sequence": 4294967295
    },
    {
      "txid": "c1c1f5e573377846e6490be2890909ac9fc4da172e4f4a1c043b96c5d0b623c5",
      "vout": 23,
      "prevout": {
        "scriptpubkey": "0014e309598df8450fe537e32078303c3629d651cdd7",
        "scriptpubkey_asm": "OP_0 OP_PUSHBYTES_20 e309598df8450fe537e32078303c3629d651cdd7",
        "scriptpubkey_type": "v0_p2wpkh",
        "scriptpubkey_address": "bc1quvy4nr0cg5872dlrypurq0pk98t9rnwhanyuun",
        "value": 10000
      },
      "scriptsig": "",
      "scriptsig_asm": "",
      "witness": [
        "3044022072a87cba2de517a839f1f6fb84cea4a85f361fbe511615d6081b1a2ffb578bb502202b2414aeea490fcc13375115f1e95795cbbcbbd8056c2a55d0a183601b4db3df01",
        "03d06e1c5b2594246d6e6a9867d7d28a9c7e4bbc7a94a04924e089c8899b7c0079"
      ],
      "is_coinbase": false,
      "sequence": 4294967295
    },
    {
      "txid": "62eff32de52a220bbefb04bfa86dd94c631f49acc383035e0a46ea425c285462",
      "vout": 45,
      "prevout": {
        "scriptpubkey": "0014e309598df8450fe537e32078303c3629d651cdd7",
        "scriptpubkey_asm": "OP_0 OP_PUSHBYTES_20 e309598df8450fe537e32078303c3629d651cdd7",
        "scriptpubkey_type": "v0_p2wpkh",
        "scriptpubkey_address": "bc1quvy4nr0cg5872dlrypurq0pk98t9rnwhanyuun",
        "value": 3672000
      },
      "scriptsig": "",
      "scriptsig_asm": "",
      "witness": [
        "304402201b8f8f05047278aa15cc2dea19bebe30383acbe83de77ae65fca0bfd22db75f602204eedd8f1f4cd3d06900c2524d28014e0a29ef0e9c9e1d85c7b29582f93a3645b01",
        "03d06e1c5b2594246d6e6a9867d7d28a9c7e4bbc7a94a04924e089c8899b7c0079"
      ],
      "is_coinbase": false,
      "sequence": 4294967295
    }
  ],
  "vout": [
    {
      "scriptpubkey": "0014542c0db80c7508435b9c3716c085d73789a83ee9",
      "scriptpubkey_asm": "OP_0 OP_PUSHBYTES_20 542c0db80c7508435b9c3716c085d73789a83ee9",
      "scriptpubkey_type": "v0_p2wpkh",
      "scriptpubkey_address": "bc1q2skqmwqvw5yyxkuuxutvppwhx7y6s0hfkqfdm7",
      "value": 8675268
    }
  ],
  "size": 636,
  "weight": 1251,
  "fee": 5494,
  "status": {
    "confirmed": true,
    "block_height": 834638,
    "block_hash": "000000000000000000025f742c626208ac87e0b7d15054abb4a19ca2d735a54e",
    "block_time": 1710405325
  },
  "hex": "02000000000104cd90dd65f41808997cfa84e7c2ce0b981ec0792c370f54c5cfd4b43be972a5c30d00000000ffffffffa634eacdc40175538c8abe9bdc4fa1410e16d9fb4ad80d67e0f96bf286ea643f2b00000000ffffffffc523b6d0c5963b041c4a4f2e17dac49fac090989e20b49e646783773e5f5c1c11700000000ffffffff6254285c42ea460a5e0383c3ac491f634cd96da8bf04fbbe0b222ae52df3ef622d00000000ffffffff01c45f840000000000160014542c0db80c7508435b9c3716c085d73789a83ee902483045022100fcea6a912831381f6b94a8fb0a6557bd26cd7264b286ef14e037e6660d1ef6d602205b20d0a20f30daa213e058275bfe34b6506449bdb2a76e25bd00c02c52a28b72012103d06e1c5b2594246d6e6a9867d7d28a9c7e4bbc7a94a04924e089c8899b7c00790247304402201d2ea4325e4a3f2beaf94da85786aca641e2ef645e638e37f7d896a0fbcb124002207b5a046bb453e851cc78d86e488fbdfe2279ef3d31969265d8dd8b242a286066012103d06e1c5b2594246d6e6a9867d7d28a9c7e4bbc7a94a04924e089c8899b7c007902473044022072a87cba2de517a839f1f6fb84cea4a85f361fbe511615d6081b1a2ffb578bb502202b2414aeea490fcc13375115f1e95795cbbcbbd8056c2a55d0a183601b4db3df012103d06e1c5b2594246d6e6a9867d7d28a9c7e4bbc7a94a04924e089c8899b7c00790247304402201b8f8f05047278aa15cc2dea19bebe30383acbe83de77ae65fca0bfd22db75f602204eedd8f1f4cd3d06900c2524d28014e0a29ef0e9c9e1d85c7b29582f93a3645b012103d06e1c5b2594246d6e6a9867d7d28a9c7e4bbc7a94a04924e089c8899b7c007900000000"
}