{
  "txid": "01ebb366917bc0a374872061f9a926517a176e292bce041054fd6780984771a7",
  "version": 2,
  "locktime": 0,
  "vin": [
    {
      "txid": "0ac155bf4c55008664570f776f73a4e5ff0c056281d57abc92bb73f801479a6a",
      "vout": 0,
      "prevout": {
        "scriptpubkey": "0014b8245e3a7da8fced484b90b2a4a88aef06d97b1a",
        "scriptpubkey_asm": "OP_0 OP_PUSHBYTES_20 b8245e3a7da8fced484b90b2a4a88aef06d97b1a",
        "scriptpubkey_type": "v0_p2wpkh",
        "scriptpubkey_address": "bc1qhqj9uwna4r7w6jztjze2f2y2aurdj7c655jvyl",
        "value": 88914
      },
      "scriptsig": "",
      "scriptsig_asm": "",
      "witness": [
        "3045022100c7732b50b39190d8b5ed87b0f1e489ce75406dd8b742275a11b0202a9f8a82c002206192c146166756bb306811f72b758841f65afe29c4462eea2edf5abf68d68cbb01",
        "028269bee3715b959a163e0d19b941d0f4910edf68c1f56825742e3bf883a84037"
      ],
      "is_coinbase": false,
      "sequence": 4294967295
    },
    {
      "txid": "60fa0d9442086447cac4859cdc26fb8657cbf581dfdbb1b9de52b450923fb56c",
      "vout": 0,
      "prevout": {
        "scriptpubkey": "0014b8245e3a7da8fced484b90b2a4a88aef06d97b1a",
        "scriptpubkey_asm": "OP_0 OP_PUSHBYTES_20 b8245e3a7da8fced484b90b2a4a88aef06d97b1a",
        "scriptpubkey_type": "v0_p2wpkh",
        "scriptpubkey_address": "bc1qhqj9uwna4r7w6jztjze2f2y2aurdj7c655jvyl",
        "value": 37742
      },
      "scriptsig": "",
      "scriptsig_asm": "",
      "witness": [
        "304402202cfd9e14c22cddeec15afcfcf0caef5548f1b37033c86449607f5b2c2f4adc1e0220241a7a031fb0d3dc73e5a1bf192512124b647de92727e2299f303cd1b1e483b701",
        "028269bee3715b959a163e0d19b941d0f4910edf68c1f56825742e3bf883a84037"
      ],
      "is_coinbase": false,
      "sequence": 4294967295
    },
    {
      "txid": "6726e76a25754ce65eca0a0870381b1ba1a85e204d0162bacad57258bdc3ba55",
      "vout": 0,
      "prevout": {
        "scriptpubkey": "0014186c9ca556b1a131fe41b9676ab5388e636ccc80",
        "scriptpubkey_asm": "OP_0 OP_PUSHBYTES_20 186c9ca556b1a131fe41b9676ab5388e636ccc80",
        "scriptpubkey_type": "v0_p2wpkh",
        "scriptpubkey_address": "bc1qrpkfef2kkxsnrljph9nk4dfc3e3kenyq938s80",
        "value": 418302
      },
      "scriptsig": "",
      "scriptsig_asm": "",
      "witness": [
        "30450221008848c9004a755928a60369ff3bfab18e785acdbe372d85f328e30825129a2eb402206996877b052da2df65904632d7919857ac06ce169c0611b23f089dc887bada9e01",
        "03daffbb103fb8bcadf9697773e42273ae1581ae8175bbf659b860c639b2aba2ea"
      ],
      "is_coinbase": false,
      "sequence": 4294967295
    }
  ],
  "vout": [
    {
      "scriptpubkey": "76a9141cec8b71cda306d3947c5ede5496c21861693b1088ac",
      "scriptpubkey_asm": "OP_DUP OP_HASH160 OP_PUSHBYTES_20 1cec8b71cda306d3947c5ede5496c21861693b10 OP_EQUALVERIFY OP_CHECKSIG",
      "scriptpubkey_type": "p2pkh",
      "scriptpubkey_address": "13dwHnZSPhiN9py7KZkzV2dLj4tJWFBqxr",
      "value": 542230
    }
  ],
  "size": 492,
  "weight": 993,
  "fee": 2728,
  "status": {
    "confirmed": true,
    "block_height": 834464,
    "block_hash": "0000000000000000000177a0869a911a2b65c9bdcd5a8bcb02b68f305bee848e",
    "block_time": 1710308296
  },
  "hex": "020000000001036a9a4701f873bb92bc7ad58162050cffe5a4736f770f57648600554cbf55c10a0000000000ffffffff6cb53f9250b452deb9b1dbdf81f5cb5786fb26dc9c85c4ca47640842940dfa600000000000ffffffff55bac3bd5872d5caba62014d205ea8a11b1b3870080aca5ee64c75256ae726670000000000ffffffff0116460800000000001976a9141cec8b71cda306d3947c5ede5496c21861693b1088ac02483045022100c7732b50b39190d8b5ed87b0f1e489ce75406dd8b742275a11b0202a9f8a82c002206192c146166756bb306811f72b758841f65afe29c4462eea2edf5abf68d68cbb0121028269bee3715b959a163e0d19b941d0f4910edf68c1f56825742e3bf883a840370247304402202cfd9e14c22cddeec15afcfcf0caef5548f1b37033c86449607f5b2c2f4adc1e0220241a7a031fb0d3dc73e5a1bf192512124b647de92727e2299f303cd1b1e483b70121028269bee3715b959a163e0d19b941d0f4910edf68c1f56825742e3bf883a84037024830450221008848c9004a755928a60369ff3bfab18e785acdbe372d85f328e30825129a2eb402206996877b052da2df65904632d7919857ac06ce169c0611b23f089dc887bada9e012103daffbb103fb8bcadf9697773e42273ae1581ae8175bbf659b860c639b2aba2ea00000000"
}