{
  "txid": "01eb4eea829314dd41034072f5ae7c925694b620c855125d92ce0b4ae21f13f4",
  "version": 2,
  "locktime": 0,
  "vin": [
    {
      "txid": "6bc81b12c8a0d5705d88064c8f7cac1b9e9194230b759e372190278b8e887f6a",
      "vout": 1,
      "prevout": {
        "scriptpubkey": "0014497197dca73ac1193eeb17a224e9e216140b63de",
        "scriptpubkey_asm": "OP_0 OP_PUSHBYTES_20 497197dca73ac1193eeb17a224e9e216140b63de",
        "scriptpubkey_type": "v0_p2wpkh",
        "scriptpubkey_address": "bc1qf9ce0h988tq3j0htz73zf60zzc2qkc7789ldva",
        "value": 176750
      },
      "scriptsig": "",
      "scriptsig_asm": "",
      "witness": [
        "30440220752cda2af7cca4d2632bd9709daaecf21f494b0adc63bafaaa724e0d82179c6002201e0e56f92ac33b5c94f7d4df5dd44e581417185e0e0ea340c85ec0d915cd37d201",
        "02d37a8ec34aaa37ff7cf54fe4a30d81d76344c44a14c9d8a5debec202b042c4ac"
      ],
      "is_coinbase": false,
      "sequence": 4294967295
    }
  ],
  "vout": [
    {
      "scriptpubkey": "6a2a64d8d5496e8f36cc8258929f125b52b1ac24126e9acd1c9cf488aeddf03e0c9aa68349f350faa8b82e56",
      "scriptpubkey_asm": "OP_RETURN OP_PUSHBYTES_42 64d8d5496e8f36cc8258929f125b52b1ac24126e9acd1c9cf488aeddf03e0c9aa68349f350faa8b82e56",
      "scriptpubkey_type": "op_return",
      "value": 0
    },
    {
      "scriptpubkey": "0014497197dca73ac1193eeb17a224e9e216140b63de",
      "scriptpubkey_asm": "OP_0 OP_PUSHBYTES_20 497197dca73ac1193eeb17a224e9e216140b63de",
      "scriptpubkey_type": "v0_p2wpkh",
      "scriptpubkey_address": "bc1qf9ce0h988tq3j0htz73zf60zzc2qkc7789ldva",
      "value": 174839
    }
  ],
  "size": 244,
  "weight": 649,
  "fee": 1911,
  "status": {
    "confirmed": true,
    "block_height": 834460,
    "block_hash": "00000000000000000000484a79b643b2524bbce82e5d8a442013fa5b8905ed98",
    "block_time": 1710307468
  },
  "hex": "020000000001016a7f888e8b279021379e750b2394919e1bac7c8f4c06885d70d5a0c8121bc86b0100000000ffffffff0200000000000000002c6a2a64d8d5496e8f36cc8258929f125b52b1ac24126e9acd1c9cf488aeddf03e0c9aa68349f350faa8b82e56f7aa020000000000160014497197dca73ac1193eeb17a224e9e216140b63de024730440220752cda2af7cca4d2632bd9709daaecf21f494b0adc63bafaaa724e0d82179c6002201e0e56f92ac33b5c94f7d4df5dd44e581417185e0e0ea340c85ec0d915cd37d2012102d37a8ec34aaa37ff7cf54fe4a30d81d76344c44a14c9d8a5debec202b042c4ac00000000"
}