{
  "txid": "01ee8800c65f6014a1e2dac189f34275cf25179f19eeefeaad35c12dc31539d7",
  "version": 1,
  "locktime": 0,
  "vin": [
    {
      "txid": "c44c3fdce0a722c628d70b82dc3fe6ba270004381cdb76e25a9e84098a1ae370",
      "vout": 0,
      "prevout": {
        "scriptpubkey": "0014995f06bf179c0174549b0acf2c7c0595ea3a198a",
        "scriptpubkey_asm": "OP_0 OP_PUSHBYTES_20 995f06bf179c0174549b0acf2c7c0595ea3a198a",
        "scriptpubkey_type": "v0_p2wpkh",
        "scriptpubkey_address": "bc1qn90sd0chnsqhg4ympt8jclq9jh4r5xv2ejpmmc",
        "value": 255042
      },
      "scriptsig": "",
      "scriptsig_asm": "",
      "witness": [
        "30440220525bb89baafcc349ab162a3710248ed31b086c0f0acec4589b9517eee5c242db02200f11242168eabb1eec521d5dc7830131dc198b1f5d6c7beb1e3099a5827fd8ff01",
        "036cc6cba4d5ee6b2bb089a6852e0b12fed1cceaaa49cfc52e52277ec68f016cba"
      ],
      "is_coinbase": false,
      "sequence": 4294967295
    }
  ],
  "vout": [
    {
      "scriptpubkey": "a91456c404166aabb5e1e4caa38a15cefca446d1d13087",
      "scriptpubkey_asm": "OP_HASH160 OP_PUSHBYTES_20 56c404166aabb5e1e4caa38a15cefca446d1d130 OP_EQUAL",
      "scriptpubkey_type": "p2sh",
      "scriptpubkey_address": "39bnrUB4eMsd6zKWY4NKREYBHYXJEK4hfy",
      "value": 245373
    },
    {
      "scriptpubkey": "0014995f06bf179c0174549b0acf2c7c0595ea3a198a",
      "scriptpubkey_asm": "OP_0 OP_PUSHBYTES_20 995f06bf179c0174549b0acf2c7c0595ea3a198a",
      "scriptpubkey_type": "v0_p2wpkh",
      "scriptpubkey_address": "bc1qn90sd0chnsqhg4ympt8jclq9jh4r5xv2ejpmmc",
      "value": 5835
    }
  ],
  "size": 223,
  "weight": 565,
  "fee": 3834,
  "status": {
    "confirmed": true,
    "block_height": 834638,
    "block_hash": "000000000000000000025f742c626208ac87e0b7d15054abb4a19ca2d735a54e",
    "block_time": 1710405325
  },
  "hex": "0100000000010170e31a8a09849e5ae276db1c38040027bae63fdc820bd728c622a7e0dc3f4cc40000000000ffffffff027dbe03000000000017a91456c404166aabb5e1e4caa38a15cefca446d1d13087cb16000000000000160014995f06bf179c0174549b0acf2c7c0595ea3a198a024730440220525bb89baafcc349ab162a3710248ed31b086c0f0acec4589b9517eee5c242db02200f11242168eabb1eec521d5dc7830131dc198b1f5d6c7beb1e3099a5827fd8ff0121036cc6cba4d5ee6b2bb089a6852e0b12fed1cceaaa49cfc52e52277ec68f016cba00000000"
}