{
  "txid": "01fd47418c1684eacb42fca0b7f2a805663b393e09158391c6d2ef3a2790c148",
  "version": 2,
  "locktime": 0,
  "vin": [
    {
      "txid": "b2d9bc1e838e6afa8b6d854432dfd195b426051ec471cfc4f0bc1365ef443412",
      "vout": 1,
      "prevout": {
        "scriptpubkey": "a9147143f3a0ca4f5796c0f3c960cc4c9484f607d64b87",
        "scriptpubkey_asm": "OP_HASH160 OP_PUSHBYTES_20 7143f3a0ca4f5796c0f3c960cc4c9484f607d64b OP_EQUAL",
        "scriptpubkey_type": "p2sh",
        "scriptpubkey_address": "3C1ugav34UuB3Pe68GJXyhGRoLoEsFBjHY",
        "value": 1494000
      },
      "scriptsig": "1600145f82fc3cbcb0bc767e594fc849cb99bda419773d",
      "scriptsig_asm": "OP_PUSHBYTES_22 00145f82fc3cbcb0bc767e594fc849cb99bda419773d",
      "witness": [
        "3045022100e9003e0c7b8fde88f8597d287cd6b466bef02c2e1ea07aee509a767f15ccb73e022055cb6a5fb647e944f4ebe19b7fe15cc2e89fee5babb6b03d0cc91c39bc370cca01",
        "0386d714ab5b68e1c8aea19e16fa4c0813e835e6a3220a534113ae05b7d3b4d5ca"
      ],
      "is_coinbase": false,
      "sequence": 4294967293,
      "inner_redeemscript_asm": "OP_0 OP_PUSHBYTES_20 5f82fc3cbcb0bc767e594fc849cb99bda419773d"
    },
    {
      "txid": "0de4d737847ec4fc263eea203c4f30fa652c3efdaabeddc7bed8825381aae309",
      "vout": 17,
      "prevout": {
        "scriptpubkey": "a9147d9cd5d3e4aa112aae037ecb9ac29d7f18d460fe87",
        "scriptpubkey_asm": "OP_HASH160 OP_PUSHBYTES_20 7d9cd5d3e4aa112aae037ecb9ac29d7f18d460fe OP_EQUAL",
        "scriptpubkey_type": "p2sh",
        "scriptpubkey_address": "3D9CGdN5Syi5pc4kz5Pq23odNfvYkv2aQ4",
        "value": 1561718
      },
      "scriptsig": "160014b0e32942b5fbad12fdef85be8c9ca6aa85c5df19",
      "scriptsig_asm": "OP_PUSHBYTES_22 0014b0e32942b5fbad12fdef85be8c9ca6aa85c5df19",
      "witness": [
        "30440220095922e40f10b673805ea797d4458e293bc070630b48e5da8283f156d3244f820220751c268eb72d929ccb7389bb29c9161320e631ab4dba7d1ed0dbd942f3bdf32101",
        "0380184703fca40015e21ab19f8555bb4c32818ca5bd376be294df73a2e4a38574"
      ],
      "is_coinbase": false,
      "sequence": 4294967293,
      "inner_redeemscript_asm": "OP_0 OP_PUSHBYTES_20 b0e32942b5fbad12fdef85be8c9ca6aa85c5df19"
    },
    {
      "txid": "c75661a3da73c37ac903e61156db923b1ee4fd2b53b6c42aad00abd90570c074",
      "vout": 0,
      "prevout": {
        "scriptpubkey": "a914404cb714801ef179479d3ef408af8d91ef2add3887",
        "scriptpubkey_asm": "OP_HASH160 OP_PUSHBYTES_20 404cb714801ef179479d3ef408af8d91ef2add38 OP_EQUAL",
        "scriptpubkey_type": "p2sh",
        "scriptpubkey_address": "37Z155ntkya3jWZZHwtJTtoYLxkbzYGqqd",
        "value": 1514446
      },
      "scriptsig": "1600149e949db5cf3b1c9c19598a0a4f0a5dc4f6cf4b7b",
      "scriptsig_asm": "OP_PUSHBYTES_22 00149e949db5cf3b1c9c19598a0a4f0a5dc4f6cf4b7b",
      "witness": [
        "304402202323016705bd5df78deae52566c8fd8b6f816a3b405ca082de6cc8fc7f0c13f3022020f908327c0999821c06d30dbf4eb704fa4e50fee5a6e8cd2b86155d1f0723f101",
        "0306ea7261b1a1d6ad484c83b24df6ddd22f94bbf409fbabea0865f503c0307ce9"
      ],
      "is_coinbase": false,
      "sequence": 4294967293,
      "inner_redeemscript_asm": "OP_0 OP_PUSHBYTES_20 9e949db5cf3b1c9c19598a0a4f0a5dc4f6cf4b7b"
    },
    {
      "txid": "09d919e06d202b0cf05796418f28037965367207f2826ed82b392535addc4d47",
      "vout": 2318,
      "prevout": {
        "scriptpubkey": "a91446d68812e33561215bd40f6d0a2a18d0d31ab5c887",
        "scriptpubkey_asm": "OP_HASH160 OP_PUSHBYTES_20 46d68812e33561215bd40f6d0a2a18d0d31ab5c8 OP_EQUAL",
        "scriptpubkey_type": "p2sh",
        "scriptpubkey_address": "389aDtFdTVPRgowFTzgd1HpbuR3pKvH1CC",
        "value": 1553568
      },
      "scriptsig": "160014b6a98bb849c0e9c9a05f5f302de0b6e42d0fa6da",
      "scriptsig_asm": "OP_PUSHBYTES_22 0014b6a98bb849c0e9c9a05f5f302de0b6e42d0fa6da",
      "witness": [
        "30450221008af8b9175a6bcaa20d425a62a9e647e7cee6220ac482dd7bd471f5821322f67f02203cf85cd71dbd8a81cda5712428d35a9efca7030e1fa9b1819abcc2954a3aea6f01",
        "03009040a3714efd25291d1a9e51818c73894acbc69fe7997d5f22096f618c05a2"
      ],
      "is_coinbase": false,
      "sequence": 4294967293,
      "inner_redeemscript_asm": "OP_0 OP_PUSHBYTES_20 b6a98bb849c0e9c9a05f5f302de0b6e42d0fa6da"
    },
    {
      "txid": "9612bdda91ef576340f91e8aeeb2a356a1ce1342acf578e22626448d19bfe98c",
      "vout": 0,
      "prevout": {
        "scriptpubkey": "a914f0f67f30628ba1345aab7b822850733574e7f1d687",
        "scriptpubkey_asm": "OP_HASH160 OP_PUSHBYTES_20 f0f67f30628ba1345aab7b822850733574e7f1d6 OP_EQUAL",
        "scriptpubkey_type": "p2sh",
        "scriptpubkey_address": "3Pf7PUyjjVX2BYhvQsWxbsx5RWu2xaP9XW",
        "value": 1550000
      },
      "scriptsig": "160014372509bdccf7e8971577f281c01613e173d3899c",
      "scriptsig_asm": "OP_PUSHBYTES_22 0014372509bdccf7e8971577f281c01613e173d3899c",
      "witness": [
        "3045022100df999ccbf6f01bca2c5b255dd1eb7bc02957d670354dee21e5a8c1f24562d06c02203228192d4781f29d656f3b342005b916827400dfeefc58a8dfd2335563dfa63101",
        "0248f21a68543c99847c70ec2acf0712a96e5be76cb50c62fc19c9966510d98bf7"
      ],
      "is_coinbase": false,
      "sequence": 4294967293,
      "inner_redeemscript_asm": "OP_0 OP_PUSHBYTES_20 372509bdccf7e8971577f281c01613e173d3899c"
    },
    {
      "txid": "043b60fa147928ba8f013e8d5e2ccfc2f60956a01772ea3cb47fdb388b603204",
      "vout": 0,
      "prevout": {
        "scriptpubkey": "a9146a9176cc055985892cdfc6c237e942d252176c4987",
        "scriptpubkey_asm": "OP_HASH160 OP_PUSHBYTES_20 6a9176cc055985892cdfc6c237e942d252176c49 OP_EQUAL",
        "scriptpubkey_type": "p2sh",
        "scriptpubkey_address": "3BQVotzSgUFsrddr7vD4NRTmvhNdyaQxaa",
        "value": 1452193
      },
      "scriptsig": "160014c0160e2679c7b0f27dc473361d3119940d3cc4ec",
      "scriptsig_asm": "OP_PUSHBYTES_22 0014c0160e2679c7b0f27dc473361d3119940d3cc4ec",
      "witness": [
        "304402205c36036afa8d36fdb38a3519b5de941b536a1257cf3f1d4581d697d4e6bcc72802202869ebf477bf4ed5f556734114157067c32fdb01f95e501880965bfc3715e12901",
        "0214aa3eece4015bfe4a4745c292548f0b75f794e1e62574422c5af5a8f6350a7b"
      ],
      "is_coinbase": false,
      "sequence": 4294967293,
      "inner_redeemscript_asm": "OP_0 OP_PUSHBYTES_20 c0160e2679c7b0f27dc473361d3119940d3cc4ec"
    },
    {
      "txid": "66878e45f0dc790bb945b31cb9f3c681c6ddf8792dfde36be655006d5d6cc9d5",
      "vout": 29,
      "prevout": {
        "scriptpubkey": "a9143e729720afe6c4e9a30868acd6d4a3127749ade187",
        "scriptpubkey_asm": "OP_HASH160 OP_PUSHBYTES_20 3e729720afe6c4e9a30868acd6d4a3127749ade1 OP_EQUAL",
        "scriptpubkey_type": "p2sh",
        "scriptpubkey_address": "37PD6K9wVPCAHECbq9eTZFRp9vrtt4GfRF",
        "value": 1738596
      },
      "scriptsig": "160014acf0c50c4817d69c09b54e91c6ec17fd64dd8091",
      "scriptsig_asm": "OP_PUSHBYTES_22 0014acf0c50c4817d69c09b54e91c6ec17fd64dd8091",
      "witness": [
        "3045022100f800aab2f028071def5e30bb19264e07f198389ce544853ab2591d12550c585902204e86ed177eaf003b8a9dc72835f9807dee6536f0711f0b071592c3ba93eaad4101",
        "02447260aab53680c6ca09d2c884c1bde376413fc7e47137a8fff9b28474f26fdc"
      ],
      "is_coinbase": false,
      "sequence": 4294967293,
      "inner_redeemscript_asm": "OP_0 OP_PUSHBYTES_20 acf0c50c4817d69c09b54e91c6ec17fd64dd8091"
    },
    {
      "txid": "af8b49146f958f1bc74c88b36f7b29a9e78272c3d10a755d5f01abb9aa00cdfe",
      "vout": 0,
      "prevout": {
        "scriptpubkey": "a914928180487a86362f1fe1e7599405c8e7c9c751c887",
        "scriptpubkey_asm": "OP_HASH160 OP_PUSHBYTES_20 928180487a86362f1fe1e7599405c8e7c9c751c8 OP_EQUAL",
        "scriptpubkey_type": "p2sh",
        "scriptpubkey_address": "3F3fiSoBWAhL5r7fASDLaBzw9GRVsky9vY",
        "value": 1700000
      },
      "scriptsig": "1600140267a7c2d4628736443da6e8289fc6f754aab6fc",
      "scriptsig_asm": "OP_PUSHBYTES_22 00140267a7c2d4628736443da6e8289fc6f754aab6fc",
      "witness": [
        "3044022032a7b787acf62467f4ac18435aa73472bbfe4691708d2d3f0979af1edda47d230220091e82b64b15a7bc5ac9789f4d1ab2021b307f8e724f0b8b5c372dc800eaaba201",
        "026233d2a266fbca6cceef10beea73c27fb31fd614b990026ee8c5f7fcbcd15e7b"
      ],
      "is_coinbase": false,
      "sequence": 4294967293,
      "inner_redeemscript_asm": "OP_0 OP_PUSHBYTES_20 0267a7c2d4628736443da6e8289fc6f754aab6fc"
    },
    {
      "txid": "2b3c110218e84cfec078f8880e80ab90cb00572cdc55ed0b8470d64b694dfb02",
      "vout": 2,
      "prevout": {
        "scriptpubkey": "a914b856d5299a0f5fac410e0f8f59ea2c801406b32f87",
        "scriptpubkey_asm": "OP_HASH160 OP_PUSHBYTES_20 b856d5299a0f5fac410e0f8f59ea2c801406b32f OP_EQUAL",
        "scriptpubkey_type": "p2sh",
        "scriptpubkey_address": "3JViH5bEKepQJuYqqt3yTNXu1smZBbSVUa",
        "value": 1558972
      },
      "scriptsig": "160014c0f00eda0303a3067dfc305d464541843987da69",
      "scriptsig_asm": "OP_PUSHBYTES_22 0014c0f00eda0303a3067dfc305d464541843987da69",
      "witness": [
        "304402207aff2c124e65120ed80015e91f86d0737e4509e9d3eab9e6f320147578354cd3022046892142113e0068bc95f7b0a1b33b4c0296a16048b34dda092a805a9ed1e60801",
        "0376f4b970c88d5e04cab4679b62732864f934ca2dc71aa4cd114238aa779aada0"
      ],
      "is_coinbase": false,
      "sequence": 4294967293,
      "inner_redeemscript_asm": "OP_0 OP_PUSHBYTES_20 c0f00eda0303a3067dfc305d464541843987da69"
    },
    {
      "txid": "281bfdaede6db7a769f1ce41e8e1ec4b79171b6a40e063931847e871324580d4",
      "vout": 1,
      "prevout": {
        "scriptpubkey": "a9149b9b644be8251a1e99547538f6e95f5afc46561587",
        "scriptpubkey_asm": "OP_HASH160 OP_PUSHBYTES_20 9b9b644be8251a1e99547538f6e95f5afc465615 OP_EQUAL",
        "scriptpubkey_type": "p2sh",
        "scriptpubkey_address": "3Fsnp63nAeuXTWcPaHmpQFkGceuW5nBPX4",
        "value": 1506518
      },
      "scriptsig": "160014e4f94980617c78a2aeceae93367551bd25ca4e30",
      "scriptsig_asm": "OP_PUSHBYTES_22 0014e4f94980617c78a2aeceae93367551bd25ca4e30",
      "witness": [
        "304402207ffc6e1bb1db18fb1905cd7caced034985db652de643d5038ee5b917f47f4f87022053bc56dff83af760e53af97135f76e3f872a2a6a9597f995793372a068ccc13501",
        "02300ac590a1be8ef121663bb4f770b1e09984ee25f8e18734981b9c9ac49b8cbd"
      ],
      "is_coinbase": false,
      "sequence": 4294967293,
      "inner_redeemscript_asm": "OP_0 OP_PUSHBYTES_20 e4f94980617c78a2aeceae93367551bd25ca4e30"
    },
    {
      "txid": "76025ed3654676bec1e6ebc7734343bce72478259ca2c79033f9faa1c512444a",
      "vout": 0,
      "prevout": {
        "scriptpubkey": "a9146738ac8af22aa337611e3fa598c1559564d857de87",
        "scriptpubkey_asm": "OP_HASH160 OP_PUSHBYTES_20 6738ac8af22aa337611e3fa598c1559564d857de OP_EQUAL",
        "scriptpubkey_type": "p2sh",
        "scriptpubkey_address": "3B6oR5d4uQ5vVfNhnwEEsTZyVTSSaSRfRn",
        "value": 1541535
      },
      "scriptsig": "160014cf4bbb2ee31c912be7ed8f8bde782f2455a3bc53",
      "scriptsig_asm": "OP_PUSHBYTES_22 0014cf4bbb2ee31c912be7ed8f8bde782f2455a3bc53",
      "witness": [
        "3044022075d7ece6a2054e97bf79b3d5330f8d54d475ac05d86fa96938b2db52d6216a06022055c8ed4c7717937c8cf7321e3b8933c7833f8c6a5f918ed88b159c009330853401",
        "02ddd8fa643ab8d0cf36ff814ac8fe47ed129fdfdeac433a6cfb5c71469128aa36"
      ],
      "is_coinbase": false,
      "sequence": 4294967293,
      "inner_redeemscript_asm": "OP_0 OP_PUSHBYTES_20 cf4bbb2ee31c912be7ed8f8bde782f2455a3bc53"
    },
    {
      "txid": "66d83c4cf5c83e1b2531b9d8952b4e70f46a4e775603c813a20a00834a3e0b5a",
      "vout": 0,
      "prevout": {
        "scriptpubkey": "a914efea1486b3f9a2ca34a37ffb1744683c0ae83f8887",
        "scriptpubkey_asm": "OP_HASH160 OP_PUSHBYTES_20 efea1486b3f9a2ca34a37ffb1744683c0ae83f88 OP_EQUAL",
        "scriptpubkey_type": "p2sh",
        "scriptpubkey_address": "3PZZqZrcWcfxUGhQXRnZNErc9LoD5SuCiB",
        "value": 1600864
      },
      "scriptsig": "1600145ec696870092b3377bc43ee9bade55932058b5a0",
      "scriptsig_asm": "OP_PUSHBYTES_22 00145ec696870092b3377bc43ee9bade55932058b5a0",
      "witness": [
        "304402205c8effebb3a29ba949b88290ded20b72014cd44ca4bc46a9f260911fe17d49f602207e71fed95c7558564c7b6ce3210be7de4eda78a3edd750f33dbbedb649e6aae301",
        "023bff141e1dc76de295939b7fd587f805fafd1d45dbeb4f790af825ffa423c0ef"
      ],
      "is_coinbase": false,
      "sequence": 4294967293,
      "inner_redeemscript_asm": "OP_0 OP_PUSHBYTES_20 5ec696870092b3377bc43ee9bade55932058b5a0"
    },
    {
      "txid": "c32e9aea0fd9710185403cf6013a19fc533f11d640d2743daa4455bdd1aaa724",
      "vout": 12,
      "prevout": {
        "scriptpubkey": "a914463a6061cc701256a6717c2a434dcfa56a06f1d187",
        "scriptpubkey_asm": "OP_HASH160 OP_PUSHBYTES_20 463a6061cc701256a6717c2a434dcfa56a06f1d1 OP_EQUAL",
        "scriptpubkey_type": "p2sh",
        "scriptpubkey_address": "386MA3NSxSE7ZbRXcs9zh7ycAsxk8JCnpK",
        "value": 1470000
      },
      "scriptsig": "16001428688954869c495f4bbcff5aae999dc971e65449",
      "scriptsig_asm": "OP_PUSHBYTES_22 001428688954869c495f4bbcff5aae999dc971e65449",
      "witness": [
        "304402202165e84ea13db405367aef8090c5ce8a63af59355b65f70ccef2c0f72eac44a302205543a96f4bdfb8b66e17c09ea99fc0a5ba6dfb06a6bb224324618668d0b1580f01",
        "038cc486824b19496558aefe23e5a7301bcd85cca84f7dbabb2984973e76a70330"
      ],
      "is_coinbase": false,
      "sequence": 4294967293,
      "inner_redeemscript_asm": "OP_0 OP_PUSHBYTES_20 28688954869c495f4bbcff5aae999dc971e65449"
    },
    {
      "txid": "79158133001edac2c24591b55c5614440a22f30261c7028d71d7aa60c8e129bc",
      "vout": 0,
      "prevout": {
        "scriptpubkey": "a91494650992f4008dec7832f36a84c82b26eab5a98e87",
        "scriptpubkey_asm": "OP_HASH160 OP_PUSHBYTES_20 94650992f4008dec7832f36a84c82b26eab5a98e OP_EQUAL",
        "scriptpubkey_type": "p2sh",
        "scriptpubkey_address": "3FDey8rNHmeWA9DXttwQtXbtAYRbATTMMF",
        "value": 1554103
      },
      "scriptsig": "16001434606e610b4b9d36c5ded358cbb8d2d10e935dc0",
      "scriptsig_asm": "OP_PUSHBYTES_22 001434606e610b4b9d36c5ded358cbb8d2d10e935dc0",
      "witness": [
        "304402205d11e61185abd63ee2f2a8402d4d53067a219faf6a3d56762316041eedbabb4602205a7386cf364f4c82d0f24e2e1787b7633d0fa86e37b92fc26dbaa65b647d8fbf01",
        "02397c6b541f743f3ec1140e9e00b4e80c4526ff00834179cf1e4f6ac5c77054d9"
      ],
      "is_coinbase": false,
      "sequence": 4294967293,
      "inner_redeemscript_asm": "OP_0 OP_PUSHBYTES_20 34606e610b4b9d36c5ded358cbb8d2d10e935dc0"
    },
    {
      "txid": "0e2c8d04ec8135b2571dbcc215d097a1d194d2a1bffd21e0fb7057f42f4d60a6",
      "vout": 0,
      "prevout": {
        "scriptpubkey": "a9145c1aab1f63c5332559ec16b0b92899d2e0143e9a87",
        "scriptpubkey_asm": "OP_HASH160 OP_PUSHBYTES_20 5c1aab1f63c5332559ec16b0b92899d2e0143e9a OP_EQUAL",
        "scriptpubkey_type": "p2sh",
        "scriptpubkey_address": "3A6239ZRFAWLGd8DZMRYm2wjHMvoURfWEa",
        "value": 1486939
      },
      "scriptsig": "1600148c34472ac255c10f9c2bceec79a44e98ca874239",
      "scriptsig_asm": "OP_PUSHBYTES_22 00148c34472ac255c10f9c2bceec79a44e98ca874239",
      "witness": [
        "3044022047cc0ecf72f15aeb86947aa8da18cc1e15b90fc48787458ca22aec45801b1754022036135717bcedd56c4462167e794c991ba0e19d48a7b36ec3f899f6d43715782901",
        "030a01ce33a68c1b15ed5449e6cf75d66b2081c32e1d5e235fe3d776db2ed39212"
      ],
      "is_coinbase": false,
      "sequence": 4294967293,
      "inner_redeemscript_asm": "OP_0 OP_PUSHBYTES_20 8c34472ac255c10f9c2bceec79a44e98ca874239"
    },
    {
      "txid": "80868bf8aa859d0fe4c52c17d224d58c6d75406252a7f500e3f0499da119bd62",
      "vout": 0,
      "prevout": {
        "scriptpubkey": "a914913fd1cf4d4468fc39d9bbcbd8dc417f8a500c3d87",
        "scriptpubkey_asm": "OP_HASH160 OP_PUSHBYTES_20 913fd1cf4d4468fc39d9bbcbd8dc417f8a500c3d OP_EQUAL",
        "scriptpubkey_type": "p2sh",
        "scriptpubkey_address": "3Ew2McwuTQy8ChBPW2kbZX55C5yS5fSLfJ",
        "value": 1539885
      },
      "scriptsig": "160014d519d67339d4228159fbd36b19afff5477b573bf",
      "scriptsig_asm": "OP_PUSHBYTES_22 0014d519d67339d4228159fbd36b19afff5477b573bf",
      "witness": [
        "3045022100a76d323a890fbf51f2e96878bcab5ffdc6c263c77471b9655f12ca363cc1db1e022059c46bd32fc7d2f243383bb4b62b83641878e0a048a3050890630e44d345b5b801",
        "03e851aa462de3f47c1409f1afa3be923b3b107946a5dc6e1c95606aff1f34fb9c"
      ],
      "is_coinbase": false,
      "sequence": 4294967293,
      "inner_redeemscript_asm": "OP_0 OP_PUSHBYTES_20 d519d67339d4228159fbd36b19afff5477b573bf"
    },
    {
      "txid": "a11f757f7216cb904b691a4c1e58a84cfba8b795e8647bfe051a3a5ddfad3612",
      "vout": 0,
      "prevout": {
        "scriptpubkey": "a914c1b036e23f766995382bf4b8f471deb282cf89e187",
        "scriptpubkey_asm": "OP_HASH160 OP_PUSHBYTES_20 c1b036e23f766995382bf4b8f471deb282cf89e1 OP_EQUAL",
        "scriptpubkey_type": "p2sh",
        "scriptpubkey_address": "3KM9SA5z3Toox5FQzKXorwmJdi9nnfcSgV",
        "value": 1500000
      },
      "scriptsig": "1600142e3cd0829666bb1c3cd176edce8c8a55b9e55a45",
      "scriptsig_asm": "OP_PUSHBYTES_22 00142e3cd0829666bb1c3cd176edce8c8a55b9e55a45",
      "witness": [
        "30440220471e825763c19e7204558100dfe84b4e192b748f1dfc85e59a5970a1af65754b0220315e82c24cf7a00989365b4c8a98f0484ce21f95985619ee95cbd28d7d8f936601",
        "035cf9206764886b0c767a35092055ccea93bf37e5bfa18e2b4107522638b699ee"
      ],
      "is_coinbase": false,
      "sequence": 4294967293,
      "inner_redeemscript_asm": "OP_0 OP_PUSHBYTES_20 2e3cd0829666bb1c3cd176edce8c8a55b9e55a45"
    },
    {
      "txid": "cbf3e16733add79282f09454d1020b041cf739b6edc7abfdc7ef95895ddb86b4",
      "vout": 11,
      "prevout": {
        "scriptpubkey": "a914fe9a24c150aeb306e27431353dcec66178213b7d87",
        "scriptpubkey_asm": "OP_HASH160 OP_PUSHBYTES_20 fe9a24c150aeb306e27431353dcec66178213b7d OP_EQUAL",
        "scriptpubkey_type": "p2sh",
        "scriptpubkey_address": "3QuEDMNRxqozHcvhLAGwYkb7UaTqDaCfQA",
        "value": 1478901
      },
      "scriptsig": "160014c51136553cb9c0b54f3388ca263215b177e1dbcc",
      "scriptsig_asm": "OP_PUSHBYTES_22 0014c51136553cb9c0b54f3388ca263215b177e1dbcc",
      "witness": [
        "3044022005f5b0f74564059926f3c29826b59691c86e8e98bce2002eb174014c779f509902204e96ed696712d45ca49216a1b6abf3274265777c18b1c91038f57a8163e98de401",
        "03260a1ca6232b91be88ece3a8122b956af9336778071fbf272a0e4402ca61678d"
      ],
      "is_coinbase": false,
      "sequence": 4294967293,
      "inner_redeemscript_asm": "OP_0 OP_PUSHBYTES_20 c51136553cb9c0b54f3388ca263215b177e1dbcc"
    },
    {
      "txid": "ca6bef988fef1c61de34b21c066111ab69ee33ff144ff9d167e487a9a35e2d62",
      "vout": 0,
      "prevout": {
        "scriptpubkey": "a914e7abb53bdaca658c6a734bef7d57bcaa40500fac87",
        "scriptpubkey_asm": "OP_HASH160 OP_PUSHBYTES_20 e7abb53bdaca658c6a734bef7d57bcaa40500fac OP_EQUAL",
        "scriptpubkey_type": "p2sh",
        "scriptpubkey_address": "3NoyiLJuE16P8veu2fx9J6bQEHZWHjC3RB",
        "value": 1571806
      },
      "scriptsig": "160014872a34cf19e1617745b74da9f678d87f6ed00b25",
      "scriptsig_asm": "OP_PUSHBYTES_22 0014872a34cf19e1617745b74da9f678d87f6ed00b25",
      "witness": [
        "304402204c13ec76056b514042d8f307742bded0bd996bb0ba8c3904f8470ee58ed3b4b602203906790859122f460d1b92de8f4a47bb7299429826cada8341c7e7f0ef33808b01",
        "038904cb8236717ed93473b4001f9beb91f29c6bc8e98420df8a48037f4bc321e4"
      ],
      "is_coinbase": false,
      "sequence": 4294967293,
      "inner_redeemscript_asm": "OP_0 OP_PUSHBYTES_20 872a34cf19e1617745b74da9f678d87f6ed00b25"
    },
    {
      "txid": "f92fe9b7dad0bf10fcbee4d024229533bdb30a4c799d5b0d025204d2e51d08f1",
      "vout": 0,
      "prevout": {
        "scriptpubkey": "a9149858c2b8548966016cc62444127fbcb32ca5956387",
        "scriptpubkey_asm": "OP_HASH160 OP_PUSHBYTES_20 9858c2b8548966016cc62444127fbcb32ca59563 OP_EQUAL",
        "scriptpubkey_type": "p2sh",
        "scriptpubkey_address": "3FaYxu4EwZpyyHcYL29DpJ1mDWzPcAJHpX",
        "value": 1458604
      },
      "scriptsig": "160014209871055e26208bff302ede649e336e0ab2a9ff",
      "scriptsig_asm": "OP_PUSHBYTES_22 0014209871055e26208bff302ede649e336e0ab2a9ff",
      "witness": [
        "304402206bc07610c1d4dbb19c930c6daeec3c458ee85ed90d773173b50d11442e6f159802200ffce7af54172883ef3dd4380131449b04f135ac47f6c5b4d8267dfdb33403ee01",
        "03e54a30f467523420d1a0a2e8bbbb35849cee7afdf33cc0f5518ac23bd6270136"
      ],
      "is_coinbase": false,
      "sequence": 4294967293,
      "inner_redeemscript_asm": "OP_0 OP_PUSHBYTES_20 209871055e26208bff302ede649e336e0ab2a9ff"
    }
  ],
  "vout": [
    {
      "scriptpubkey": "00141d5bfa3bbeb7ce4e78aa6e32828a969fd48b4d4a",
      "scriptpubkey_asm": "OP_0 OP_PUSHBYTES_20 1d5bfa3bbeb7ce4e78aa6e32828a969fd48b4d4a",
      "scriptpubkey_type": "v0_p2wpkh",
      "scriptpubkey_address": "bc1qr4dl5wa7kl8yu792dceg9z5knl2gkn220lk7a9",
      "value": 30812177
    }
  ],
  "size": 3468,
  "weight": 7431,
  "fee": 20471,
  "status": {
    "confirmed": true,
    "block_height": 834460,
    "block_hash": "00000000000000000000484a79b643b2524bbce82e5d8a442013fa5b8905ed98",
    "block_time": 1710307468
  },
  "hex": "02000000000114123444ef6513bcf0c4cf71c41e0526b495d1df3244856d8bfa6a8e831ebcd9b201000000171600145f82fc3cbcb0bc767e594fc849cb99bda419773dfdffffff09e3aa815382d8bec7ddbeaafd3e2c65fa304f3c20ea3e26fcc47e8437d7e40d1100000017160014b0e32942b5fbad12fdef85be8c9ca6aa85c5df19fdffffff74c07005d9ab00ad2ac4b6532bfde41e3b92db5611e603c97ac373daa36156c700000000171600149e949db5cf3b1c9c19598a0a4f0a5dc4f6cf4b7bfdffffff474ddcad3525392bd86e82f2077236657903288f419657f00c2b206de019d9090e09000017160014b6a98bb849c0e9c9a05f5f302de0b6e42d0fa6dafdffffff8ce9bf198d442626e278f5ac4213cea156a3b2ee8a1ef9406357ef91dabd12960000000017160014372509bdccf7e8971577f281c01613e173d3899cfdffffff0432608b38db7fb43cea7217a05609f6c2cf2c5e8d3e018fba287914fa603b040000000017160014c0160e2679c7b0f27dc473361d3119940d3cc4ecfdffffffd5c96c5d6d0055e66be3fd2d79f8ddc681c6f3b91cb345b90b79dcf0458e87661d00000017160014acf0c50c4817d69c09b54e91c6ec17fd64dd8091fdfffffffecd00aab9ab015f5d750ad1c37282e7a9297b6fb3884cc71b8f956f14498baf00000000171600140267a7c2d4628736443da6e8289fc6f754aab6fcfdffffff02fb4d694bd670840bed55dc2c5700cb90ab800e88f878c0fe4ce81802113c2b0200000017160014c0f00eda0303a3067dfc305d464541843987da69fdffffffd480453271e847189363e0406a1b17794bece1e841cef169a7b76ddeaefd1b280100000017160014e4f94980617c78a2aeceae93367551bd25ca4e30fdffffff4a4412c5a1faf93390c7a29c257824e7bc434373c7ebe6c1be764665d35e02760000000017160014cf4bbb2ee31c912be7ed8f8bde782f2455a3bc53fdffffff5a0b3e4a83000aa213c80356774e6af4704e2b95d8b931251b3ec8f54c3cd86600000000171600145ec696870092b3377bc43ee9bade55932058b5a0fdffffff24a7aad1bd5544aa3d74d240d6113f53fc193a01f63c40850171d90fea9a2ec30c0000001716001428688954869c495f4bbcff5aae999dc971e65449fdffffffbc29e1c860aad7718d02c76102f3220a4414565cb59145c2c2da1e0033811579000000001716001434606e610b4b9d36c5ded358cbb8d2d10e935dc0fdffffffa6604d2ff45770fbe021fdbfa1d294d1a197d015c2bc1d57b23581ec048d2c0e00000000171600148c34472ac255c10f9c2bceec79a44e98ca874239fdffffff62bd19a19d49f0e300f5a7526240756d8cd524d2172cc5e40f9d85aaf88b86800000000017160014d519d67339d4228159fbd36b19afff5477b573bffdffffff1236addf5d3a1a05fe7b64e895b7a8fb4ca8581e4c1a694b90cb16727f751fa100000000171600142e3cd0829666bb1c3cd176edce8c8a55b9e55a45fdffffffb486db5d8995efc7fdabc7edb639f71c040b02d15494f08292d7ad3367e1f3cb0b00000017160014c51136553cb9c0b54f3388ca263215b177e1dbccfdffffff622d5ea3a987e467d1f94f14ff33ee69ab1161061cb234de611cef8f98ef6bca0000000017160014872a34cf19e1617745b74da9f678d87f6ed00b25fdfffffff1081de5d20452020d5b9d794c0ab3bd33952224d0e4befc10bfd0dab7e92ff90000000017160014209871055e26208bff302ede649e336e0ab2a9fffdffffff011128d601000000001600141d5bfa3bbeb7ce4e78aa6e32828a969fd48b4d4a02483045022100e9003e0c7b8fde88f8597d287cd6b466bef02c2e1ea07aee509a767f15ccb73e022055cb6a5fb647e944f4ebe19b7fe15cc2e89fee5babb6b03d0cc91c39bc370cca01210386d714ab5b68e1c8aea19e16fa4c0813e835e6a3220a534113ae05b7d3b4d5ca024730440220095922e40f10b673805ea797d4458e293bc070630b48e5da8283f156d3244f820220751c268eb72d929ccb7389bb29c9161320e631ab4dba7d1ed0dbd942f3bdf32101210380184703fca40015e21ab19f8555bb4c32818ca5bd376be294df73a2e4a385740247304402202323016705bd5df78deae52566c8fd8b6f816a3b405ca082de6cc8fc7f0c13f3022020f908327c0999821c06d30dbf4eb704fa4e50fee5a6e8cd2b86155d1f0723f101210306ea7261b1a1d6ad484c83b24df6ddd22f94bbf409fbabea0865f503c0307ce9024830450221008af8b9175a6bcaa20d425a62a9e647e7cee6220ac482dd7bd471f5821322f67f02203cf85cd71dbd8a81cda5712428d35a9efca7030e1fa9b1819abcc2954a3aea6f012103009040a3714efd25291d1a9e51818c73894acbc69fe7997d5f22096f618c05a202483045022100df999ccbf6f01bca2c5b255dd1eb7bc02957d670354dee21e5a8c1f24562d06c02203228192d4781f29d656f3b342005b916827400dfeefc58a8dfd2335563dfa63101210248f21a68543c99847c70ec2acf0712a96e5be76cb50c62fc19c9966510d98bf70247304402205c36036afa8d36fdb38a3519b5de941b536a1257cf3f1d4581d697d4e6bcc72802202869ebf477bf4ed5f556734114157067c32fdb01f95e501880965bfc3715e12901210214aa3eece4015bfe4a4745c292548f0b75f794e1e62574422c5af5a8f6350a7b02483045022100f800aab2f028071def5e30bb19264e07f198389ce544853ab2591d12550c585902204e86ed177eaf003b8a9dc72835f9807dee6536f0711f0b071592c3ba93eaad41012102447260aab53680c6ca09d2c884c1bde376413fc7e47137a8fff9b28474f26fdc02473044022032a7b787acf62467f4ac18435aa73472bbfe4691708d2d3f0979af1edda47d230220091e82b64b15a7bc5ac9789f4d1ab2021b307f8e724f0b8b5c372dc800eaaba20121026233d2a266fbca6cceef10beea73c27fb31fd614b990026ee8c5f7fcbcd15e7b0247304402207aff2c124e65120ed80015e91f86d0737e4509e9d3eab9e6f320147578354cd3022046892142113e0068bc95f7b0a1b33b4c0296a16048b34dda092a805a9ed1e60801210376f4b970c88d5e04cab4679b62732864f934ca2dc71aa4cd114238aa779aada00247304402207ffc6e1bb1db18fb1905cd7caced034985db652de643d5038ee5b917f47f4f87022053bc56dff83af760e53af97135f76e3f872a2a6a9597f995793372a068ccc135012102300ac590a1be8ef121663bb4f770b1e09984ee25f8e18734981b9c9ac49b8cbd02473044022075d7ece6a2054e97bf79b3d5330f8d54d475ac05d86fa96938b2db52d6216a06022055c8ed4c7717937c8cf7321e3b8933c7833f8c6a5f918ed88b159c0093308534012102ddd8fa643ab8d0cf36ff814ac8fe47ed129fdfdeac433a6cfb5c71469128aa360247304402205c8effebb3a29ba949b88290ded20b72014cd44ca4bc46a9f260911fe17d49f602207e71fed95c7558564c7b6ce3210be7de4eda78a3edd750f33dbbedb649e6aae30121023bff141e1dc76de295939b7fd587f805fafd1d45dbeb4f790af825ffa423c0ef0247304402202165e84ea13db405367aef8090c5ce8a63af59355b65f70ccef2c0f72eac44a302205543a96f4bdfb8b66e17c09ea99fc0a5ba6dfb06a6bb224324618668d0b1580f0121038cc486824b19496558aefe23e5a7301bcd85cca84f7dbabb2984973e76a703300247304402205d11e61185abd63ee2f2a8402d4d53067a219faf6a3d56762316041eedbabb4602205a7386cf364f4c82d0f24e2e1787b7633d0fa86e37b92fc26dbaa65b647d8fbf012102397c6b541f743f3ec1140e9e00b4e80c4526ff00834179cf1e4f6ac5c77054d902473044022047cc0ecf72f15aeb86947aa8da18cc1e15b90fc48787458ca22aec45801b1754022036135717bcedd56c4462167e794c991ba0e19d48a7b36ec3f899f6d4371578290121030a01ce33a68c1b15ed5449e6cf75d66b2081c32e1d5e235fe3d776db2ed3921202483045022100a76d323a890fbf51f2e96878bcab5ffdc6c263c77471b9655f12ca363cc1db1e022059c46bd32fc7d2f243383bb4b62b83641878e0a048a3050890630e44d345b5b8012103e851aa462de3f47c1409f1afa3be923b3b107946a5dc6e1c95606aff1f34fb9c024730440220471e825763c19e7204558100dfe84b4e192b748f1dfc85e59a5970a1af65754b0220315e82c24cf7a00989365b4c8a98f0484ce21f95985619ee95cbd28d7d8f93660121035cf9206764886b0c767a35092055ccea93bf37e5bfa18e2b4107522638b699ee02473044022005f5b0f74564059926f3c29826b59691c86e8e98bce2002eb174014c779f509902204e96ed696712d45ca49216a1b6abf3274265777c18b1c91038f57a8163e98de4012103260a1ca6232b91be88ece3a8122b956af9336778071fbf272a0e4402ca61678d0247304402204c13ec76056b514042d8f307742bded0bd996bb0ba8c3904f8470ee58ed3b4b602203906790859122f460d1b92de8f4a47bb7299429826cada8341c7e7f0ef33808b0121038904cb8236717ed93473b4001f9beb91f29c6bc8e98420df8a48037f4bc321e40247304402206bc07610c1d4dbb19c930c6daeec3c458ee85ed90d773173b50d11442e6f159802200ffce7af54172883ef3dd4380131449b04f135ac47f6c5b4d8267dfdb33403ee012103e54a30f467523420d1a0a2e8bbbb35849cee7afdf33cc0f5518ac23bd627013600000000"
}