{
  "txid": "0205c30e63e36a248faba5bdbbdde7a4185cb2bd314ae62549578575abb6da72",
  "version": 1,
  "locktime": 0,
  "vin": [
    {
      "txid": "a25d34c28dd5b4ae5e946b88fb715302a3893b743e53e4f4f1355a81ad162884",
      "vout": 0,
      "prevout": {
        "scriptpubkey": "76a9149cd529b0aca0202b52aafd5065d80eb9be538bee88ac",
        "scriptpubkey_asm": "OP_DUP OP_HASH160 OP_PUSHBYTES_20 9cd529b0aca0202b52aafd5065d80eb9be538bee OP_EQUALVERIFY OP_CHECKSIG",
        "scriptpubkey_type": "p2pkh",
        "scriptpubkey_address": "1FJFmjvtzF6GYeqg1or85B9RrT43hHTTrK",
        "value": 12599317
      },
      "scriptsig": "473044022005e7b1f4b6ad8e8070d2e4b20d8fc7b7678110d1cbaec653a84952d706bbe5ce02205bc6d380eb2b72a4f3dd6f626dc5de1cd75a028e4ad1a8e605a5eed5c6a1d765012102694768f5574528ce442a28dfe1df4aa4326ec37050a426622ade6e521696661c",
      "scriptsig_asm": "OP_PUSHBYTES_71 3044022005e7b1f4b6ad8e8070d2e4b20d8fc7b7678110d1cbaec653a84952d706bbe5ce02205bc6d380eb2b72a4f3dd6f626dc5de1cd75a028e4ad1a8e605a5eed5c6a1d76501 OP_PUSHBYTES_33 02694768f5574528ce442a28dfe1df4aa4326ec37050a426622ade6e521696661c",
      "is_coinbase": false,
      "sequence": 268435456
    }
  ],
  "vout": [
    {
      "scriptpubkey": "a9145a486554a77cdd17bdf7536829e02297f2510b3c87",
      "scriptpubkey_asm": "OP_HASH160 OP_PUSHBYTES_20 5a486554a77cdd17bdf7536829e02297f2510b3c OP_EQUAL",
      "scriptpubkey_type": "p2sh",
      "scriptpubkey_address": "39vPTxYVwTSYpUJeExxkGoh393BXxtAX1q",
      "value": 12554200
    }
  ],
  "size": 189,
  "weight": 756,
  "fee": 45117,
  "status": {
    "confirmed": true,
    "block_height": 834638,
    "block_hash": "000000000000000000025f742c626208ac87e0b7d15054abb4a19ca2d735a54e",
    "block_time": 1710405325
  },
  "hex": "0100000001842816ad815a35f1f4e4533e743b89a3025371fb886b945eaeb4d58dc2345da2000000006a473044022005e7b1f4b6ad8e8070d2e4b20d8fc7b7678110d1cbaec653a84952d706bbe5ce02205bc6d380eb2b72a4f3dd6f626dc5de1cd75a028e4ad1a8e605a5eed5c6a1d765012102694768f5574528ce442a28dfe1df4aa4326ec37050a426622ade6e521696661c0000001001d88fbf000000000017a9145a486554a77cdd17bdf7536829e02297f2510b3c8700000000"
}