{
  "txid": "0206e2b63011ec2d38f063d7e0e0e158e2d40539e7d791bf2f00edbd3442157e",
  "version": 1,
  "locktime": 0,
  "vin": [
    {
      "txid": "888888888a9ee56ef0456db7da89a9f32cf8da5d82a7df4b1351cd08f4d672fe",
      "vout": 0,
      "prevout": {
        "scriptpubkey": "512066598c1d25590cdf876660657d68c0a1c9c835d950a4e084038d98282ae57baa",
        "scriptpubkey_asm": "OP_PUSHNUM_1 OP_PUSHBYTES_32 66598c1d25590cdf876660657d68c0a1c9c835d950a4e084038d98282ae57baa",
        "scriptpubkey_type": "v1_p2tr",
        "scriptpubkey_address": "bc1pvevcc8f9tyxdlpmxvpjh66xq58yusdwe2zjwppqr3kvzs2h90w4q60l78n",
        "value": 11923
      },
      "scriptsig": "",
      "scriptsig_asm": "",
      "witness": [
        "48d7fc9bfbacf75b5685e330b1978731dc9a78867f25d5ad35c19ddd4c3eecf55968358fdb87f83ce7aa401875c90d21c2f2d6ac7526f7bfb538853fd8787423",
        "20288fe10385924d019ca2d9b0367651fb2df57f8842b5648100f5af9b72e8cb2bac00630461746f6d03646d7446a16461726773a46474696d651a65f13841656e6f6e63651a0001000068626974776f726b636b3838383838383838382e386b6d696e745f7469636b657268696e66696e69747968",
        "c0288fe10385924d019ca2d9b0367651fb2df57f8842b5648100f5af9b72e8cb2b"
      ],
      "is_coinbase": false,
      "sequence": 4294967295
    }
  ],
  "vout": [
    {
      "scriptpubkey": "5120ee5d73a166b5fcf6fb0e22e1428770d9455bcd536c28912b437450303ef41201",
      "scriptpubkey_asm": "OP_PUSHNUM_1 OP_PUSHBYTES_32 ee5d73a166b5fcf6fb0e22e1428770d9455bcd536c28912b437450303ef41201",
      "scriptpubkey_type": "v1_p2tr",
      "scriptpubkey_address": "bc1paewh8gtxkh70d7cwyts59pmsm9z4hn2nds5fz26rw3grq0h5zgqsmngref",
      "value": 9999
    }
  ],
  "size": 314,
  "weight": 596,
  "fee": 1924,
  "status": {
    "confirmed": true,
    "block_height": 834460,
    "block_hash": "00000000000000000000484a79b643b2524bbce82e5d8a442013fa5b8905ed98",
    "block_time": 1710307468
  },
  "hex": "01000000000101fe72d6f408cd51134bdfa7825ddaf82cf3a989dab76d45f06ee59e8a888888880000000000ffffffff010f27000000000000225120ee5d73a166b5fcf6fb0e22e1428770d9455bcd536c28912b437450303ef41201034048d7fc9bfbacf75b5685e330b1978731dc9a78867f25d5ad35c19ddd4c3eecf55968358fdb87f83ce7aa401875c90d21c2f2d6ac7526f7bfb538853fd87874237520288fe10385924d019ca2d9b0367651fb2df57f8842b5648100f5af9b72e8cb2bac00630461746f6d03646d7446a16461726773a46474696d651a65f13841656e6f6e63651a0001000068626974776f726b636b3838383838383838382e386b6d696e745f7469636b657268696e66696e6974796821c0288fe10385924d019ca2d9b0367651fb2df57f8842b5648100f5af9b72e8cb2b00000000"
}