{
  "txid": "021a25f2bf1b26ab51ed89b33b36c7590468955833a8851e717fdc4da9413f6f",
  "version": 2,
  "locktime": 833405,
  "vin": [
    {
      "txid": "19b897592a72ddb2756c5117fd407d43cb7e437efc3490750b62d4060073e9a6",
      "vout": 0,
      "prevout": {
        "scriptpubkey": "a914a7a59703ea2b0979984cabefd3dfbf40cfba0b3087",
        "scriptpubkey_asm": "OP_HASH160 OP_PUSHBYTES_20 a7a59703ea2b0979984cabefd3dfbf40cfba0b30 OP_EQUAL",
        "scriptpubkey_type": "p2sh",
        "scriptpubkey_address": "3GyT8y5N4twRXoX3cpptYcZou9CkwmDq1o",
        "value": 11460
      },
      "scriptsig": "1600148be5ca0a808a675e50a53fa468ed53b3b5c92eff",
      "scriptsig_asm": "OP_PUSHBYTES_22 00148be5ca0a808a675e50a53fa468ed53b3b5c92eff",
      "witness": [
        "304402201b6b1ca7646c5ebd67390c42df34430783b02a231bc099f1ace2f4c29aedc5870220675c7f795327a59b3a74838fded81122570b5df921b522492290d02693e7950001",
        "02a61dcb3602ad00df6a75ab0935c35ea61dcc0207279f881aba68a71812fb5d9d"
      ],
      "is_coinbase": false,
      "sequence": 4294967293,
      "inner_redeemscript_asm": "OP_0 OP_PUSHBYTES_20 8be5ca0a808a675e50a53fa468ed53b3b5c92eff"
    }
  ],
  "vout": [
    {
      "scriptpubkey": "76a9140ea1f223d7900db924f780da1e13c4de46dd06b288ac",
      "scriptpubkey_asm": "OP_DUP OP_HASH160 OP_PUSHBYTES_20 0ea1f223d7900db924f780da1e13c4de46dd06b2 OP_EQUALVERIFY OP_CHECKSIG",
      "scriptpubkey_type": "p2pkh",
      "scriptpubkey_address": "12LNTt7N1zcRsgAT4754sAEmQHcsNmBXz5",
      "value": 10000
    }
  ],
  "size": 217,
  "weight": 541,
  "fee": 1460,
  "status": {
    "confirmed": true,
    "block_height": 834464,
    "block_hash": "0000000000000000000177a0869a911a2b65c9bdcd5a8bcb02b68f305bee848e",
    "block_time": 1710308296
  },
  "hex": "02000000000101a6e9730006d4620b759034fc7e437ecb437d40fd17516c75b2dd722a5997b81900000000171600148be5ca0a808a675e50a53fa468ed53b3b5c92efffdffffff0110270000000000001976a9140ea1f223d7900db924f780da1e13c4de46dd06b288ac0247304402201b6b1ca7646c5ebd67390c42df34430783b02a231bc099f1ace2f4c29aedc5870220675c7f795327a59b3a74838fded81122570b5df921b522492290d02693e79500012102a61dcb3602ad00df6a75ab0935c35ea61dcc0207279f881aba68a71812fb5d9d7db70c00"
}