{
  "txid": "021f7fba0b72b5f3d31eb93d06ca0f8cca35f948798e133faa75b74047e8c180",
  "version": 2,
  "locktime": 0,
  "vin": [
    {
      "txid": "d14a1e0f39f6db3fa2045c1229452904bebb06481e883dd251ae95723f09a30e",
      "vout": 3,
      "prevout": {
        "scriptpubkey": "512036332e78f46f1633ee0c492e119449d8823afcbd5e87364fb3751680d26596c9",
        "scriptpubkey_asm": "OP_PUSHNUM_1 OP_PUSHBYTES_32 36332e78f46f1633ee0c492e119449d8823afcbd5e87364fb3751680d26596c9",
        "scriptpubkey_type": "v1_p2tr",
        "scriptpubkey_address": "bc1pxceju785dutr8msvfyhpr9zfmzpr4l9at6rnvnanw5tgp5n9jmysjeqv99",
        "value": 600
      },
      "scriptsig": "",
      "scriptsig_asm": "",
      "witness": [
        "fa07425967d52cc415ca79cd1164cbc3ea6919f91af95d5f9d9daa78626d5686ccbf3de0bc3ffcc5a3d54edb27f9acc94c2499e7c87fd75a8961194fb4b59cc2"
      ],
      "is_coinbase": false,
      "sequence": 4294967295
    },
    {
      "txid": "fad3b76fa3f5aa5e83ac999b4f0787bbcffeaf022632e56dbeea4cd1675fb236",
      "vout": 15,
      "prevout": {
        "scriptpubkey": "512036332e78f46f1633ee0c492e119449d8823afcbd5e87364fb3751680d26596c9",
        "scriptpubkey_asm": "OP_PUSHNUM_1 OP_PUSHBYTES_32 36332e78f46f1633ee0c492e119449d8823afcbd5e87364fb3751680d26596c9",
        "scriptpubkey_type": "v1_p2tr",
        "scriptpubkey_address": "bc1pxceju785dutr8msvfyhpr9zfmzpr4l9at6rnvnanw5tgp5n9jmysjeqv99",
        "value": 600
      },
      "scriptsig": "",
      "scriptsig_asm": "",
      "witness": [
        "73221c54f4826c89056be64a61db603180d8ef2196057b04d2c9e8aa6b1fb2cad3e2b563530f97b7ca32bfe9b37bc3e58e339a668b1caee60d6afa70835f79ad"
      ],
      "is_coinbase": false,
      "sequence": 4294967295
    },
    {
      "txid": "516c5ced1fb7708a76a431bb9bcfd7faaff844bef3c9a18bd77b9b30259de654",
      "vout": 0,
      "prevout": {
        "scriptpubkey": "512062641fb4ed18c300178327de7b700e737badaf34052a3d8f6eac837c1778695e",
        "scriptpubkey_asm": "OP_PUSHNUM_1 OP_PUSHBYTES_32 62641fb4ed18c300178327de7b700e737badaf34052a3d8f6eac837c1778695e",
        "scriptpubkey_type": "v1_p2tr",
        "scriptpubkey_address": "bc1pvfjpld8drrpsq9uryl08kuqwwda6mte5q54rmrmw4jphc9mcd90qyngsmd",
        "value": 546
      },
      "scriptsig": "",
      "scriptsig_asm": "",
      "witness": [
        "0cb6647417d99834b01d5eafc74ae135db331270da217e04a0243e65e6c319289b40bfa2cb8099524b0aa01a1bb56e250e22871d06bcf3472248abc9c52b4bea83"
      ],
      "is_coinbase": false,
      "sequence": 4294967295
    },
    {
      "txid": "51d44980795f2ecac580c72152b0c56d89b0a5113aca9e08d3357a0e1c441a09",
      "vout": 1,
      "prevout": {
        "scriptpubkey": "512036332e78f46f1633ee0c492e119449d8823afcbd5e87364fb3751680d26596c9",
        "scriptpubkey_asm": "OP_PUSHNUM_1 OP_PUSHBYTES_32 36332e78f46f1633ee0c492e119449d8823afcbd5e87364fb3751680d26596c9",
        "scriptpubkey_type": "v1_p2tr",
        "scriptpubkey_address": "bc1pxceju785dutr8msvfyhpr9zfmzpr4l9at6rnvnanw5tgp5n9jmysjeqv99",
        "value": 87627382
      },
      "scriptsig": "",
      "scriptsig_asm": "",
      "witness": [
        "fbd94b142e82ed5d0dc39f3c0985e06ac1fff57720e223d4d3beb519e54cda48b1a42824d4671f0e7e9bdd4830b47579ca71d6699e807ea49875d1ba8856c728"
      ],
      "is_coinbase": false,
      "sequence": 4294967295
    }
  ],
  "vout": [
    {
      "scriptpubkey": "512036332e78f46f1633ee0c492e119449d8823afcbd5e87364fb3751680d26596c9",
      "scriptpubkey_asm": "OP_PUSHNUM_1 OP_PUSHBYTES_32 36332e78f46f1633ee0c492e119449d8823afcbd5e87364fb3751680d26596c9",
      "scriptpubkey_type": "v1_p2tr",
      "scriptpubkey_address": "bc1pxceju785dutr8msvfyhpr9zfmzpr4l9at6rnvnanw5tgp5n9jmysjeqv99",
      "value": 1200
    },
    {
      "scriptpubkey": "512036332e78f46f1633ee0c492e119449d8823afcbd5e87364fb3751680d26596c9",
      "scriptpubkey_asm": "OP_PUSHNUM_1 OP_PUSHBYTES_32 36332e78f46f1633ee0c492e119449d8823afcbd5e87364fb3751680d26596c9",
      "scriptpubkey_type": "v1_p2tr",
      "scriptpubkey_address": "bc1pxceju785dutr8msvfyhpr9zfmzpr4l9at6rnvnanw5tgp5n9jmysjeqv99",
      "value": 546
    },
    {
      "scriptpubkey": "512062641fb4ed18c300178327de7b700e737badaf34052a3d8f6eac837c1778695e",
      "scriptpubkey_asm": "OP_PUSHNUM_1 OP_PUSHBYTES_32 62641fb4ed18c300178327de7b700e737badaf34052a3d8f6eac837c1778695e",
      "scriptpubkey_type": "v1_p2tr",
      "scriptpubkey_address": "bc1pvfjpld8drrpsq9uryl08kuqwwda6mte5q54rmrmw4jphc9mcd90qyngsmd",
      "value": 3122333
    },
    {
      "scriptpubkey": "512036332e78f46f1633ee0c492e119449d8823afcbd5e87364fb3751680d26596c9",
      "scriptpubkey_asm": "OP_PUSHNUM_1 OP_PUSHBYTES_32 36332e78f46f1633ee0c492e119449d8823afcbd5e87364fb3751680d26596c9",
      "scriptpubkey_type": "v1_p2tr",
      "scriptpubkey_address": "bc1pxceju785dutr8msvfyhpr9zfmzpr4l9at6rnvnanw5tgp5n9jmysjeqv99",
      "value": 600
    },
    {
      "scriptpubkey": "512036332e78f46f1633ee0c492e119449d8823afcbd5e87364fb3751680d26596c9",
      "scriptpubkey_asm": "OP_PUSHNUM_1 OP_PUSHBYTES_32 36332e78f46f1633ee0c492e119449d8823afcbd5e87364fb3751680d26596c9",
      "scriptpubkey_type": "v1_p2tr",
      "scriptpubkey_address": "bc1pxceju785dutr8msvfyhpr9zfmzpr4l9at6rnvnanw5tgp5n9jmysjeqv99",
      "value": 600
    },
    {
      "scriptpubkey": "512036332e78f46f1633ee0c492e119449d8823afcbd5e87364fb3751680d26596c9",
      "scriptpubkey_asm": "OP_PUSHNUM_1 OP_PUSHBYTES_32 36332e78f46f1633ee0c492e119449d8823afcbd5e87364fb3751680d26596c9",
      "scriptpubkey_type": "v1_p2tr",
      "scriptpubkey_address": "bc1pxceju785dutr8msvfyhpr9zfmzpr4l9at6rnvnanw5tgp5n9jmysjeqv99",
      "value": 84493869
    }
  ],
  "size": 699,
  "weight": 1995,
  "fee": 9980,
  "status": {
    "confirmed": true,
    "block_height": 834638,
    "block_hash": "000000000000000000025f742c626208ac87e0b7d15054abb4a19ca2d735a54e",
    "block_time": 1710405325
  },
  "hex": "020000000001040ea3093f7295ae51d23d881e4806bbbe04294529125c04a23fdbf6390f1e4ad10300000000ffffffff36b25f67d14ceabe6de5322602affecfbb87074f9b99ac835eaaf5a36fb7d3fa0f00000000ffffffff54e69d25309b7bd78ba1c9f3be44f8affad7cf9bbb31a4768a70b71fed5c6c510000000000ffffffff091a441c0e7a35d3089eca3a11a5b0896dc5b05221c780c5ca2e5f798049d4510100000000ffffffff06b00400000000000022512036332e78f46f1633ee0c492e119449d8823afcbd5e87364fb3751680d26596c9220200000000000022512036332e78f46f1633ee0c492e119449d8823afcbd5e87364fb3751680d26596c99da42f000000000022512062641fb4ed18c300178327de7b700e737badaf34052a3d8f6eac837c1778695e580200000000000022512036332e78f46f1633ee0c492e119449d8823afcbd5e87364fb3751680d26596c9580200000000000022512036332e78f46f1633ee0c492e119449d8823afcbd5e87364fb3751680d26596c92d4609050000000022512036332e78f46f1633ee0c492e119449d8823afcbd5e87364fb3751680d26596c90140fa07425967d52cc415ca79cd1164cbc3ea6919f91af95d5f9d9daa78626d5686ccbf3de0bc3ffcc5a3d54edb27f9acc94c2499e7c87fd75a8961194fb4b59cc2014073221c54f4826c89056be64a61db603180d8ef2196057b04d2c9e8aa6b1fb2cad3e2b563530f97b7ca32bfe9b37bc3e58e339a668b1caee60d6afa70835f79ad01410cb6647417d99834b01d5eafc74ae135db331270da217e04a0243e65e6c319289b40bfa2cb8099524b0aa01a1bb56e250e22871d06bcf3472248abc9c52b4bea830140fbd94b142e82ed5d0dc39f3c0985e06ac1fff57720e223d4d3beb519e54cda48b1a42824d4671f0e7e9bdd4830b47579ca71d6699e807ea49875d1ba8856c72800000000"
}