{
  "txid": "0225feb554acb116bf399e804c206761345e212195848f7d574f336f891380d2",
  "version": 1,
  "locktime": 0,
  "vin": [
    {
      "txid": "e777d7100b1f27b95e54a0454690d0f982a42bf864a75ac5d32ea3fd8cec3add",
      "vout": 1,
      "prevout": {
        "scriptpubkey": "00146b59b6e0ab3afad5640df312e62b7934850a9535",
        "scriptpubkey_asm": "OP_0 OP_PUSHBYTES_20 6b59b6e0ab3afad5640df312e62b7934850a9535",
        "scriptpubkey_type": "v0_p2wpkh",
        "scriptpubkey_address": "bc1qddvmdc9t8tad2eqd7vfwv2mexjzs49f42wvg27",
        "value": 3825305
      },
      "scriptsig": "",
      "scriptsig_asm": "",
      "witness": [
        "304402205393e9120c278b928ad4f6f789ce82b26ba5057890f1f096a33a8419a2781ee502201d2a09177b8268771068bd1c5e6114551e5fa2be3d0cab6e8befb417fd50fec401",
        "02e132889faedf23b0e733326505d66c12b820daa8adeb108166703b94522739b7"
      ],
      "is_coinbase": false,
      "sequence": 4294967295
    },
    {
      "txid": "2c0a0272ef558e2d9756d50b91f49fbaae2745a8c614fccf0e8c84a5d058a804",
      "vout": 1,
      "prevout": {
        "scriptpubkey": "00146b59b6e0ab3afad5640df312e62b7934850a9535",
        "scriptpubkey_asm": "OP_0 OP_PUSHBYTES_20 6b59b6e0ab3afad5640df312e62b7934850a9535",
        "scriptpubkey_type": "v0_p2wpkh",
        "scriptpubkey_address": "bc1qddvmdc9t8tad2eqd7vfwv2mexjzs49f42wvg27",
        "value": 1915996254
      },
      "scriptsig": "",
      "scriptsig_asm": "",
      "witness": [
        "3045022100b3f3cbf825c62bae014269e5031955d5672b5c278b669acd3fa1d2140787182302202796c93f71cdcc7edda58e3157a75b840fee33c77437f5caf7ea9ca3d5dd1d4c01",
        "02e132889faedf23b0e733326505d66c12b820daa8adeb108166703b94522739b7"
      ],
      "is_coinbase": false,
      "sequence": 4294967295
    }
  ],
  "vout": [
    {
      "scriptpubkey": "0014bd64b73eafd137f88c17443f51809cf2ba9f2287",
      "scriptpubkey_asm": "OP_0 OP_PUSHBYTES_20 bd64b73eafd137f88c17443f51809cf2ba9f2287",
      "scriptpubkey_type": "v0_p2wpkh",
      "scriptpubkey_address": "bc1qh4jtw0406yml3rqhgsl4rqyu72af7g58ftfw0r",
      "value": 474850000
    },
    {
      "scriptpubkey": "00146b59b6e0ab3afad5640df312e62b7934850a9535",
      "scriptpubkey_asm": "OP_0 OP_PUSHBYTES_20 6b59b6e0ab3afad5640df312e62b7934850a9535",
      "scriptpubkey_type": "v0_p2wpkh",
      "scriptpubkey_address": "bc1qddvmdc9t8tad2eqd7vfwv2mexjzs49f42wvg27",
      "value": 1444966292
    }
  ],
  "size": 371,
  "weight": 833,
  "fee": 5267,
  "status": {
    "confirmed": true,
    "block_height": 834460,
    "block_hash": "00000000000000000000484a79b643b2524bbce82e5d8a442013fa5b8905ed98",
    "block_time": 1710307468
  },
  "hex": "01000000000102dd3aec8cfda32ed3c55aa764f82ba482f9d0904645a0545eb9271f0b10d777e70100000000ffffffff04a858d0a5848c0ecffc14c6a84527aeba9ff4910bd556972d8e55ef72020a2c0100000000ffffffff02d0a24d1c00000000160014bd64b73eafd137f88c17443f51809cf2ba9f2287946f2056000000001600146b59b6e0ab3afad5640df312e62b7934850a95350247304402205393e9120c278b928ad4f6f789ce82b26ba5057890f1f096a33a8419a2781ee502201d2a09177b8268771068bd1c5e6114551e5fa2be3d0cab6e8befb417fd50fec4012102e132889faedf23b0e733326505d66c12b820daa8adeb108166703b94522739b702483045022100b3f3cbf825c62bae014269e5031955d5672b5c278b669acd3fa1d2140787182302202796c93f71cdcc7edda58e3157a75b840fee33c77437f5caf7ea9ca3d5dd1d4c012102e132889faedf23b0e733326505d66c12b820daa8adeb108166703b94522739b700000000"
}