{
  "txid": "0243a0b54e2cbc6581b3c8e73ed72f9ba6ca63d6e03d87d5710483af3ed963c2",
  "version": 2,
  "locktime": 0,
  "vin": [
    {
      "txid": "6f9bda53dc962f99d8c0c74a91250ab23d5f5e48f5027d109c81be2f9a8e4ce4",
      "vout": 0,
      "prevout": {
        "scriptpubkey": "51200d5e22e03ca8e9766da6e32f22fccac2119efca6c87a97a1f1c20381a6b2a2e8",
        "scriptpubkey_asm": "OP_PUSHNUM_1 OP_PUSHBYTES_32 0d5e22e03ca8e9766da6e32f22fccac2119efca6c87a97a1f1c20381a6b2a2e8",
        "scriptpubkey_type": "v1_p2tr",
        "scriptpubkey_address": "bc1pp40z9cpu4r5hvmdxuvhj9lx2cggeal9xepaf0g03cgpcrf4j5t5q0qn2em",
        "value": 546
      },
      "scriptsig": "",
      "scriptsig_asm": "",
      "witness": [
        "0f8d94f441bd10444e11530125601b3b71f9c9f7b5e67874a589ae58bb279b709d791a095d4db03bd707eaaae15c9b83c1245f0c98d30c05d2c4cbea22178609"
      ],
      "is_coinbase": false,
      "sequence": 2147483649
    },
    {
      "txid": "e09d3f289ffa1b6f3f7681de433048a818ecef847c86a4a1f6eca1e54c3bbdde",
      "vout": 1,
      "prevout": {
        "scriptpubkey": "51200d5e22e03ca8e9766da6e32f22fccac2119efca6c87a97a1f1c20381a6b2a2e8",
        "scriptpubkey_asm": "OP_PUSHNUM_1 OP_PUSHBYTES_32 0d5e22e03ca8e9766da6e32f22fccac2119efca6c87a97a1f1c20381a6b2a2e8",
        "scriptpubkey_type": "v1_p2tr",
        "scriptpubkey_address": "bc1pp40z9cpu4r5hvmdxuvhj9lx2cggeal9xepaf0g03cgpcrf4j5t5q0qn2em",
        "value": 49780
      },
      "scriptsig": "",
      "scriptsig_asm": "",
      "witness": [
        "298a0bae862466fd2c28b3db5bc77a364e0ce0a06cedd0034c9711cb2f167c49c3e29d73b9a5f2809c7bc7247c01d49a1c482f27ee16f64445ddc08d6635426b"
      ],
      "is_coinbase": false,
      "sequence": 2147483649
    }
  ],
  "vout": [
    {
      "scriptpubkey": "51203331169e8047d61dd1852fdccb34b2755ab0464ce3646497720213634b2c7bb1",
      "scriptpubkey_asm": "OP_PUSHNUM_1 OP_PUSHBYTES_32 3331169e8047d61dd1852fdccb34b2755ab0464ce3646497720213634b2c7bb1",
      "scriptpubkey_type": "v1_p2tr",
      "scriptpubkey_address": "bc1pxvc3d85qgltpm5v99lwvkd9jw4dtq3jvudjxf9mjqgfkxjev0wcsljym3x",
      "value": 546
    },
    {
      "scriptpubkey": "51200d5e22e03ca8e9766da6e32f22fccac2119efca6c87a97a1f1c20381a6b2a2e8",
      "scriptpubkey_asm": "OP_PUSHNUM_1 OP_PUSHBYTES_32 0d5e22e03ca8e9766da6e32f22fccac2119efca6c87a97a1f1c20381a6b2a2e8",
      "scriptpubkey_type": "v1_p2tr",
      "scriptpubkey_address": "bc1pp40z9cpu4r5hvmdxuvhj9lx2cggeal9xepaf0g03cgpcrf4j5t5q0qn2em",
      "value": 46404
    }
  ],
  "size": 312,
  "weight": 846,
  "fee": 3376,
  "status": {
    "confirmed": true,
    "block_height": 834638,
    "block_hash": "000000000000000000025f742c626208ac87e0b7d15054abb4a19ca2d735a54e",
    "block_time": 1710405325
  },
  "hex": "02000000000102e44c8e9a2fbe819c107d02f5485e5f3db20a25914ac7c0d8992f96dc53da9b6f000000000001000080debd3b4ce5a1ecf6a1a4867c84efec18a8483043de81763f6f1bfa9f283f9de00100000000010000800222020000000000002251203331169e8047d61dd1852fdccb34b2755ab0464ce3646497720213634b2c7bb144b50000000000002251200d5e22e03ca8e9766da6e32f22fccac2119efca6c87a97a1f1c20381a6b2a2e801400f8d94f441bd10444e11530125601b3b71f9c9f7b5e67874a589ae58bb279b709d791a095d4db03bd707eaaae15c9b83c1245f0c98d30c05d2c4cbea221786090140298a0bae862466fd2c28b3db5bc77a364e0ce0a06cedd0034c9711cb2f167c49c3e29d73b9a5f2809c7bc7247c01d49a1c482f27ee16f64445ddc08d6635426b00000000"
}