{
  "txid": "024b79a0c3de513732c0735048333440cde978628fd6e7eb55f0beecea1b3db1",
  "version": 2,
  "locktime": 0,
  "vin": [
    {
      "txid": "f78f8da48401607df21fb31b95523e128e8fe945c35b13c91a01fa559c0b8207",
      "vout": 0,
      "prevout": {
        "scriptpubkey": "0014f29cfc019270d1ae4938f09d2a8e830c884f6a8c",
        "scriptpubkey_asm": "OP_0 OP_PUSHBYTES_20 f29cfc019270d1ae4938f09d2a8e830c884f6a8c",
        "scriptpubkey_type": "v0_p2wpkh",
        "scriptpubkey_address": "bc1q72w0cqvjwrg6ujfc7zwj4r5rpjyy765vu9mx8g",
        "value": 8007
      },
      "scriptsig": "",
      "scriptsig_asm": "",
      "witness": [
        "30440220369012f2a21846fadb5b69d5de37fc5db32de5032c701276aead04f4453959d502202c97674302064a49b9b0ce2163aaa1b812dff84eb6a4e7d2115e01593abfc8c201",
        "0265b1be92e69b7e210877f5b926e92c8e5dc3ddf31902e333e34fa217612cea00"
      ],
      "is_coinbase": false,
      "sequence": 4294967293
    }
  ],
  "vout": [
    {
      "scriptpubkey": "76a914b69dcdfe3d449c6efc5de53c6dfd82cfe4cc89b688ac",
      "scriptpubkey_asm": "OP_DUP OP_HASH160 OP_PUSHBYTES_20 b69dcdfe3d449c6efc5de53c6dfd82cfe4cc89b6 OP_EQUALVERIFY OP_CHECKSIG",
      "scriptpubkey_type": "p2pkh",
      "scriptpubkey_address": "1Heb2NeNLcbLh3kSZUL8ypuaWY3biQRsfA",
      "value": 6787
    }
  ],
  "size": 194,
  "weight": 449,
  "fee": 1220,
  "status": {
    "confirmed": true,
    "block_height": 834464,
    "block_hash": "0000000000000000000177a0869a911a2b65c9bdcd5a8bcb02b68f305bee848e",
    "block_time": 1710308296
  },
  "hex": "0200000000010107820b9c55fa011ac9135bc345e98f8e123e52951bb31ff27d600184a48d8ff70000000000fdffffff01831a0000000000001976a914b69dcdfe3d449c6efc5de53c6dfd82cfe4cc89b688ac024730440220369012f2a21846fadb5b69d5de37fc5db32de5032c701276aead04f4453959d502202c97674302064a49b9b0ce2163aaa1b812dff84eb6a4e7d2115e01593abfc8c201210265b1be92e69b7e210877f5b926e92c8e5dc3ddf31902e333e34fa217612cea0000000000"
}