{
  "txid": "024e73500c65a511234ee4f2cbba24ae8482b59c2021ba3b3fc75bb779892a3e",
  "version": 1,
  "locktime": 0,
  "vin": [
    {
      "txid": "38f8deb27418843258aff53cc81d006b4f8696b01d1e89b03928213d7907c968",
      "vout": 182,
      "prevout": {
        "scriptpubkey": "0014f26b4886a53f6d30251a7d5ede4ae84ea72c7d10",
        "scriptpubkey_asm": "OP_0 OP_PUSHBYTES_20 f26b4886a53f6d30251a7d5ede4ae84ea72c7d10",
        "scriptpubkey_type": "v0_p2wpkh",
        "scriptpubkey_address": "bc1q7f453p498aknqfg6040dujhgf6njclgsvrljn5",
        "value": 31005
      },
      "scriptsig": "",
      "scriptsig_asm": "",
      "witness": [
        "3045022100f61f2545532febf65c2c90a5d9eeb5058d46dea986595392e74fbc5191a8a9cf02205739c8520abb5676d8f2ed12ed3ada63dca5d36c542fae8485cf33d4c89d6e8901",
        "02842777866392ef332922e6915797611582fb65553edb51c292bb732be511bd17"
      ],
      "is_coinbase": false,
      "sequence": 4294967293
    },
    {
      "txid": "28e3b84328fcd4922d6680186b995252845259e6e1d255ccc8bed671e1825357",
      "vout": 130,
      "prevout": {
        "scriptpubkey": "0014c8f82a38d0269ee25dc81ae28ea14fb392623206",
        "scriptpubkey_asm": "OP_0 OP_PUSHBYTES_20 c8f82a38d0269ee25dc81ae28ea14fb392623206",
        "scriptpubkey_type": "v0_p2wpkh",
        "scriptpubkey_address": "bc1qeruz5wxsy60wyhwgrt3gag20kwfxyvsxnd0hrd",
        "value": 31003
      },
      "scriptsig": "",
      "scriptsig_asm": "",
      "witness": [
        "304502210099252e85b14418d33563761002033ff8c8930ff4020ae38883bed8749e258d0d0220156120a56d0bae010c84f0d07e9c0951aca568250a821c7e672d71ccfa650de301",
        "023b10a58942bc8a95bf0d4cf96c855a7443a41639bea2d621ceff6366e2012f69"
      ],
      "is_coinbase": false,
      "sequence": 4294967293
    },
    {
      "txid": "392b88df3c630383716ee591f38d51960151d596ecfaef8ec2a3e6a7d4a4a220",
      "vout": 0,
      "prevout": {
        "scriptpubkey": "0014ee8448ba2805fa4495ef502766977fbe438c94fc",
        "scriptpubkey_asm": "OP_0 OP_PUSHBYTES_20 ee8448ba2805fa4495ef502766977fbe438c94fc",
        "scriptpubkey_type": "v0_p2wpkh",
        "scriptpubkey_address": "bc1qa6zy3w3gqhayf9002qnkd9mlhepce98u6xjjuw",
        "value": 31000
      },
      "scriptsig": "",
      "scriptsig_asm": "",
      "witness": [
        "304402206db0332c8f7fd48f531a784257911a9c6357b9c69c6926dbf97e6390c52c114f022052e85f3f40fb5c2db44da5c36ed482ac029e0280d90a4316e061e6be883f6df401",
        "03634c3cca704e030bcaae90c3a2a7494ac9eeb4df4f187aed7b1b277d2ac06ad3"
      ],
      "is_coinbase": false,
      "sequence": 4294967293
    },
    {
      "txid": "341a3fa9ee3035c9164531fd1abed512a7111386aaaec0975fad75f725813a1e",
      "vout": 0,
      "prevout": {
        "scriptpubkey": "0014b9e8c047073f9ea673685bb88f87765cfaf2d2fc",
        "scriptpubkey_asm": "OP_0 OP_PUSHBYTES_20 b9e8c047073f9ea673685bb88f87765cfaf2d2fc",
        "scriptpubkey_type": "v0_p2wpkh",
        "scriptpubkey_address": "bc1qh85vq3c88702vumgtwuglpmktna095hu0g3hd2",
        "value": 31000
      },
      "scriptsig": "",
      "scriptsig_asm": "",
      "witness": [
        "3045022100b9347307f1a674308929d46fc7d7dd48a310c4e09cff70626d61c64a7d5706e102204eddb8a8310c0ca87e2896625cba43209211054b39001204481e77a0fb7e134101",
        "03797794649fa811c493ed7a53f4b151da236f928a95a1711b684e40b13b0b9f1d"
      ],
      "is_coinbase": false,
      "sequence": 4294967293
    },
    {
      "txid": "fc4b4a5520e87934c5529ea6e2ee5ede7bd47b9b4c8eed12bb880655c7906b6b",
      "vout": 79,
      "prevout": {
        "scriptpubkey": "0014cc883f8f3820ada454d15cc723447986feecc3fb",
        "scriptpubkey_asm": "OP_0 OP_PUSHBYTES_20 cc883f8f3820ada454d15cc723447986feecc3fb",
        "scriptpubkey_type": "v0_p2wpkh",
        "scriptpubkey_address": "bc1qejyrlrecyzk6g4x3tnrjx3resmlweslm5fjs5n",
        "value": 30997
      },
      "scriptsig": "",
      "scriptsig_asm": "",
      "witness": [
        "3044022047e79d22f4de6025792ec06009a0a93d2c0ecf49b80ec6a9f413a53baef13bb502207583473ca36a45e3b9a2aeeedd808c49eba75f5f39869d7bdd5bd92437b4273e01",
        "03df6b18997872bed77a806f1141052885308159e88ee4214c6e7428ed0dfdeaa9"
      ],
      "is_coinbase": false,
      "sequence": 4294967293
    }
  ],
  "vout": [
    {
      "scriptpubkey": "0014dd2894b61995ade0c47ef71d7b4962189871197d",
      "scriptpubkey_asm": "OP_0 OP_PUSHBYTES_20 dd2894b61995ade0c47ef71d7b4962189871197d",
      "scriptpubkey_type": "v0_p2wpkh",
      "scriptpubkey_address": "bc1qm55ffdsejkk7p3r77uwhkjtzrzv8zxtarh5w2r",
      "value": 143101
    }
  ],
  "size": 786,
  "weight": 1524,
  "fee": 11904,
  "status": {
    "confirmed": true,
    "block_height": 834638,
    "block_hash": "000000000000000000025f742c626208ac87e0b7d15054abb4a19ca2d735a54e",
    "block_time": 1710405325
  },
  "hex": "0100000000010568c907793d212839b0891e1db096864f6b001dc83cf5af5832841874b2def838b600000000fdffffff575382e171d6bec8cc55d2e1e65952845252996b1880662d92d4fc2843b8e3288200000000fdffffff20a2a4d4a7e6a3c28eeffaec96d5510196518df391e56e718303633cdf882b390000000000fdffffff1e3a8125f775ad5f97c0aeaa861311a712d5be1afd314516c93530eea93f1a340000000000fdffffff6b6b90c7550688bb12ed8e4c9b7bd47bde5eeee2a69e52c53479e820554a4bfc4f00000000fdffffff01fd2e020000000000160014dd2894b61995ade0c47ef71d7b4962189871197d02483045022100f61f2545532febf65c2c90a5d9eeb5058d46dea986595392e74fbc5191a8a9cf02205739c8520abb5676d8f2ed12ed3ada63dca5d36c542fae8485cf33d4c89d6e89012102842777866392ef332922e6915797611582fb65553edb51c292bb732be511bd170248304502210099252e85b14418d33563761002033ff8c8930ff4020ae38883bed8749e258d0d0220156120a56d0bae010c84f0d07e9c0951aca568250a821c7e672d71ccfa650de30121023b10a58942bc8a95bf0d4cf96c855a7443a41639bea2d621ceff6366e2012f690247304402206db0332c8f7fd48f531a784257911a9c6357b9c69c6926dbf97e6390c52c114f022052e85f3f40fb5c2db44da5c36ed482ac029e0280d90a4316e061e6be883f6df4012103634c3cca704e030bcaae90c3a2a7494ac9eeb4df4f187aed7b1b277d2ac06ad302483045022100b9347307f1a674308929d46fc7d7dd48a310c4e09cff70626d61c64a7d5706e102204eddb8a8310c0ca87e2896625cba43209211054b39001204481e77a0fb7e1341012103797794649fa811c493ed7a53f4b151da236f928a95a1711b684e40b13b0b9f1d02473044022047e79d22f4de6025792ec06009a0a93d2c0ecf49b80ec6a9f413a53baef13bb502207583473ca36a45e3b9a2aeeedd808c49eba75f5f39869d7bdd5bd92437b4273e012103df6b18997872bed77a806f1141052885308159e88ee4214c6e7428ed0dfdeaa900000000"
}