{
  "txid": "027353de3e541828ba02911bb28648cd5b1d2a22fdb32aad88155356a71e07c2",
  "version": 2,
  "locktime": 834637,
  "vin": [
    {
      "txid": "6b9c492813bac34dea1c0fbeca4724f7f7ea19eb65849de7e65b2958fa1f6b1a",
      "vout": 0,
      "prevout": {
        "scriptpubkey": "0014b95e76e79d659773b24842405670e346d2973e8b",
        "scriptpubkey_asm": "OP_0 OP_PUSHBYTES_20 b95e76e79d659773b24842405670e346d2973e8b",
        "scriptpubkey_type": "v0_p2wpkh",
        "scriptpubkey_address": "bc1qh908deuavkth8vjggfq9vu8rgmffw05txk9x02",
        "value": 67022887
      },
      "scriptsig": "",
      "scriptsig_asm": "",
      "witness": [
        "304402201fba8e8e0aedf0fda104e68de4210d98e53db4f07b62309ad6e36fbf675c3e9a02206f932deac7f45293df1ee3da833d47a55804c253446ecdbce291690c9d777c4a01",
        "02e59e9e66cac725ae5a164ed1d579345354b19b0bfacca16a6349be32aed9413f"
      ],
      "is_coinbase": false,
      "sequence": 4294967293
    },
    {
      "txid": "8f043ff69126fdcf034904d2b470f1b6a22ab8ce1f628cb136f69d835521d3aa",
      "vout": 0,
      "prevout": {
        "scriptpubkey": "0014b95e76e79d659773b24842405670e346d2973e8b",
        "scriptpubkey_asm": "OP_0 OP_PUSHBYTES_20 b95e76e79d659773b24842405670e346d2973e8b",
        "scriptpubkey_type": "v0_p2wpkh",
        "scriptpubkey_address": "bc1qh908deuavkth8vjggfq9vu8rgmffw05txk9x02",
        "value": 10000
      },
      "scriptsig": "",
      "scriptsig_asm": "",
      "witness": [
        "3044022041f8c9f9187394da6895652ed32b78d34ccc7621a30cbd17cd78d0e5dd391b8a02200085b49870db52bddc106c4db7c540476c9b5e3edfa93dd00f53568ed94b191701",
        "02e59e9e66cac725ae5a164ed1d579345354b19b0bfacca16a6349be32aed9413f"
      ],
      "is_coinbase": false,
      "sequence": 4294967293
    },
    {
      "txid": "1d69a071cf4f93f37ccc01dee927e2863ee636cff8b348e9dac53f57117e4c2e",
      "vout": 0,
      "prevout": {
        "scriptpubkey": "0014b95e76e79d659773b24842405670e346d2973e8b",
        "scriptpubkey_asm": "OP_0 OP_PUSHBYTES_20 b95e76e79d659773b24842405670e346d2973e8b",
        "scriptpubkey_type": "v0_p2wpkh",
        "scriptpubkey_address": "bc1qh908deuavkth8vjggfq9vu8rgmffw05txk9x02",
        "value": 10000
      },
      "scriptsig": "",
      "scriptsig_asm": "",
      "witness": [
        "3044022042511ffc181208a0579977ca000f9a3ad7923a876d85b2e1b7f6953a26a9fe660220662e050cdd21dfd7c2d385a11a9cf9439a88eb5041188ca269bb653e7207d39a01",
        "02e59e9e66cac725ae5a164ed1d579345354b19b0bfacca16a6349be32aed9413f"
      ],
      "is_coinbase": false,
      "sequence": 4294967293
    }
  ],
  "vout": [
    {
      "scriptpubkey": "00145123994042c81a465176647b8fd03f3deb8419f1",
      "scriptpubkey_asm": "OP_0 OP_PUSHBYTES_20 5123994042c81a465176647b8fd03f3deb8419f1",
      "scriptpubkey_type": "v0_p2wpkh",
      "scriptpubkey_address": "bc1q2y3ejszzeqdyv5tkv3acl5pl8h4cgx03pnyt6x",
      "value": 10000000
    },
    {
      "scriptpubkey": "0014c9826bab99f8353b2b628453560526b693adede8",
      "scriptpubkey_asm": "OP_0 OP_PUSHBYTES_20 c9826bab99f8353b2b628453560526b693adede8",
      "scriptpubkey_type": "v0_p2wpkh",
      "scriptpubkey_address": "bc1qexpxh2uelq6nk2mzs3f4vpfxk6f6mm0gnu0qzc",
      "value": 57038544
    }
  ],
  "size": 518,
  "weight": 1103,
  "fee": 4343,
  "status": {
    "confirmed": true,
    "block_height": 834638,
    "block_hash": "000000000000000000025f742c626208ac87e0b7d15054abb4a19ca2d735a54e",
    "block_time": 1710405325
  },
  "hex": "020000000001031a6b1ffa58295be6e79d8465eb19eaf7f72447cabe0f1cea4dc3ba1328499c6b0000000000fdffffffaad32155839df636b18c621fceb82aa2b6f170b4d2044903cffd2691f63f048f0000000000fdffffff2e4c7e11573fc5dae948b3f8cf36e63e86e227e9de01cc7cf3934fcf71a0691d0000000000fdffffff0280969800000000001600145123994042c81a465176647b8fd03f3deb8419f1d056660300000000160014c9826bab99f8353b2b628453560526b693adede80247304402201fba8e8e0aedf0fda104e68de4210d98e53db4f07b62309ad6e36fbf675c3e9a02206f932deac7f45293df1ee3da833d47a55804c253446ecdbce291690c9d777c4a012102e59e9e66cac725ae5a164ed1d579345354b19b0bfacca16a6349be32aed9413f02473044022041f8c9f9187394da6895652ed32b78d34ccc7621a30cbd17cd78d0e5dd391b8a02200085b49870db52bddc106c4db7c540476c9b5e3edfa93dd00f53568ed94b1917012102e59e9e66cac725ae5a164ed1d579345354b19b0bfacca16a6349be32aed9413f02473044022042511ffc181208a0579977ca000f9a3ad7923a876d85b2e1b7f6953a26a9fe660220662e050cdd21dfd7c2d385a11a9cf9439a88eb5041188ca269bb653e7207d39a012102e59e9e66cac725ae5a164ed1d579345354b19b0bfacca16a6349be32aed9413f4dbc0c00"
}