{
  "txid": "027a478a4f099be9a6096d719d32c69610813cdea69d0a1f1e72b83179d0fc3a",
  "version": 2,
  "locktime": 0,
  "vin": [
    {
      "txid": "90c1f52343c8914914586d3aaadd00469c07cfdb9059e0af531541c3e98592aa",
      "vout": 6,
      "prevout": {
        "scriptpubkey": "5120f322a5bbb790fbb3fc7010d744277b277918e338fdf339f0e7a367a0cc06fc6f",
        "scriptpubkey_asm": "OP_PUSHNUM_1 OP_PUSHBYTES_32 f322a5bbb790fbb3fc7010d744277b277918e338fdf339f0e7a367a0cc06fc6f",
        "scriptpubkey_type": "v1_p2tr",
        "scriptpubkey_address": "bc1p7v32twahjram8lrszrt5gfmmyau33ceclhennu885dn6pnqxl3hs9p5ym0",
        "value": 469334
      },
      "scriptsig": "",
      "scriptsig_asm": "",
      "witness": [
        "f830c84bd82139833f3deeada85023a2e5d4afe720be01344fa6ebcd43acce0547a8afb6f8109e400aa19c8a25d36c8a6efca21894c2879c0e76c1a91517eb4d"
      ],
      "is_coinbase": false,
      "sequence": 4294967295
    }
  ],
  "vout": [
    {
      "scriptpubkey": "5120f322a5bbb790fbb3fc7010d744277b277918e338fdf339f0e7a367a0cc06fc6f",
      "scriptpubkey_asm": "OP_PUSHNUM_1 OP_PUSHBYTES_32 f322a5bbb790fbb3fc7010d744277b277918e338fdf339f0e7a367a0cc06fc6f",
      "scriptpubkey_type": "v1_p2tr",
      "scriptpubkey_address": "bc1p7v32twahjram8lrszrt5gfmmyau33ceclhennu885dn6pnqxl3hs9p5ym0",
      "value": 600
    },
    {
      "scriptpubkey": "5120f322a5bbb790fbb3fc7010d744277b277918e338fdf339f0e7a367a0cc06fc6f",
      "scriptpubkey_asm": "OP_PUSHNUM_1 OP_PUSHBYTES_32 f322a5bbb790fbb3fc7010d744277b277918e338fdf339f0e7a367a0cc06fc6f",
      "scriptpubkey_type": "v1_p2tr",
      "scriptpubkey_address": "bc1p7v32twahjram8lrszrt5gfmmyau33ceclhennu885dn6pnqxl3hs9p5ym0",
      "value": 600
    },
    {
      "scriptpubkey": "5120f322a5bbb790fbb3fc7010d744277b277918e338fdf339f0e7a367a0cc06fc6f",
      "scriptpubkey_asm": "OP_PUSHNUM_1 OP_PUSHBYTES_32 f322a5bbb790fbb3fc7010d744277b277918e338fdf339f0e7a367a0cc06fc6f",
      "scriptpubkey_type": "v1_p2tr",
      "scriptpubkey_address": "bc1p7v32twahjram8lrszrt5gfmmyau33ceclhennu885dn6pnqxl3hs9p5ym0",
      "value": 600
    },
    {
      "scriptpubkey": "5120f322a5bbb790fbb3fc7010d744277b277918e338fdf339f0e7a367a0cc06fc6f",
      "scriptpubkey_asm": "OP_PUSHNUM_1 OP_PUSHBYTES_32 f322a5bbb790fbb3fc7010d744277b277918e338fdf339f0e7a367a0cc06fc6f",
      "scriptpubkey_type": "v1_p2tr",
      "scriptpubkey_address": "bc1p7v32twahjram8lrszrt5gfmmyau33ceclhennu885dn6pnqxl3hs9p5ym0",
      "value": 600
    },
    {
      "scriptpubkey": "5120f322a5bbb790fbb3fc7010d744277b277918e338fdf339f0e7a367a0cc06fc6f",
      "scriptpubkey_asm": "OP_PUSHNUM_1 OP_PUSHBYTES_32 f322a5bbb790fbb3fc7010d744277b277918e338fdf339f0e7a367a0cc06fc6f",
      "scriptpubkey_type": "v1_p2tr",
      "scriptpubkey_address": "bc1p7v32twahjram8lrszrt5gfmmyau33ceclhennu885dn6pnqxl3hs9p5ym0",
      "value": 600
    },
    {
      "scriptpubkey": "5120f322a5bbb790fbb3fc7010d744277b277918e338fdf339f0e7a367a0cc06fc6f",
      "scriptpubkey_asm": "OP_PUSHNUM_1 OP_PUSHBYTES_32 f322a5bbb790fbb3fc7010d744277b277918e338fdf339f0e7a367a0cc06fc6f",
      "scriptpubkey_type": "v1_p2tr",
      "scriptpubkey_address": "bc1p7v32twahjram8lrszrt5gfmmyau33ceclhennu885dn6pnqxl3hs9p5ym0",
      "value": 600
    },
    {
      "scriptpubkey": "5120f322a5bbb790fbb3fc7010d744277b277918e338fdf339f0e7a367a0cc06fc6f",
      "scriptpubkey_asm": "OP_PUSHNUM_1 OP_PUSHBYTES_32 f322a5bbb790fbb3fc7010d744277b277918e338fdf339f0e7a367a0cc06fc6f",
      "scriptpubkey_type": "v1_p2tr",
      "scriptpubkey_address": "bc1p7v32twahjram8lrszrt5gfmmyau33ceclhennu885dn6pnqxl3hs9p5ym0",
      "value": 600
    },
    {
      "scriptpubkey": "5120f322a5bbb790fbb3fc7010d744277b277918e338fdf339f0e7a367a0cc06fc6f",
      "scriptpubkey_asm": "OP_PUSHNUM_1 OP_PUSHBYTES_32 f322a5bbb790fbb3fc7010d744277b277918e338fdf339f0e7a367a0cc06fc6f",
      "scriptpubkey_type": "v1_p2tr",
      "scriptpubkey_address": "bc1p7v32twahjram8lrszrt5gfmmyau33ceclhennu885dn6pnqxl3hs9p5ym0",
      "value": 600
    },
    {
      "scriptpubkey": "5120f322a5bbb790fbb3fc7010d744277b277918e338fdf339f0e7a367a0cc06fc6f",
      "scriptpubkey_asm": "OP_PUSHNUM_1 OP_PUSHBYTES_32 f322a5bbb790fbb3fc7010d744277b277918e338fdf339f0e7a367a0cc06fc6f",
      "scriptpubkey_type": "v1_p2tr",
      "scriptpubkey_address": "bc1p7v32twahjram8lrszrt5gfmmyau33ceclhennu885dn6pnqxl3hs9p5ym0",
      "value": 600
    },
    {
      "scriptpubkey": "5120f322a5bbb790fbb3fc7010d744277b277918e338fdf339f0e7a367a0cc06fc6f",
      "scriptpubkey_asm": "OP_PUSHNUM_1 OP_PUSHBYTES_32 f322a5bbb790fbb3fc7010d744277b277918e338fdf339f0e7a367a0cc06fc6f",
      "scriptpubkey_type": "v1_p2tr",
      "scriptpubkey_address": "bc1p7v32twahjram8lrszrt5gfmmyau33ceclhennu885dn6pnqxl3hs9p5ym0",
      "value": 600
    },
    {
      "scriptpubkey": "5120f322a5bbb790fbb3fc7010d744277b277918e338fdf339f0e7a367a0cc06fc6f",
      "scriptpubkey_asm": "OP_PUSHNUM_1 OP_PUSHBYTES_32 f322a5bbb790fbb3fc7010d744277b277918e338fdf339f0e7a367a0cc06fc6f",
      "scriptpubkey_type": "v1_p2tr",
      "scriptpubkey_address": "bc1p7v32twahjram8lrszrt5gfmmyau33ceclhennu885dn6pnqxl3hs9p5ym0",
      "value": 454120
    }
  ],
  "size": 592,
  "weight": 2164,
  "fee": 9214,
  "status": {
    "confirmed": true,
    "block_height": 834552,
    "block_hash": "00000000000000000001dd0468a70c94f619251d286585cff57aeb4bd9ede330",
    "block_time": 1710355598
  },
  "hex": "02000000000101aa9285e9c3411553afe05990dbcf079c4600ddaa3a6d58144991c84323f5c1900600000000ffffffff0b5802000000000000225120f322a5bbb790fbb3fc7010d744277b277918e338fdf339f0e7a367a0cc06fc6f5802000000000000225120f322a5bbb790fbb3fc7010d744277b277918e338fdf339f0e7a367a0cc06fc6f5802000000000000225120f322a5bbb790fbb3fc7010d744277b277918e338fdf339f0e7a367a0cc06fc6f5802000000000000225120f322a5bbb790fbb3fc7010d744277b277918e338fdf339f0e7a367a0cc06fc6f5802000000000000225120f322a5bbb790fbb3fc7010d744277b277918e338fdf339f0e7a367a0cc06fc6f5802000000000000225120f322a5bbb790fbb3fc7010d744277b277918e338fdf339f0e7a367a0cc06fc6f5802000000000000225120f322a5bbb790fbb3fc7010d744277b277918e338fdf339f0e7a367a0cc06fc6f5802000000000000225120f322a5bbb790fbb3fc7010d744277b277918e338fdf339f0e7a367a0cc06fc6f5802000000000000225120f322a5bbb790fbb3fc7010d744277b277918e338fdf339f0e7a367a0cc06fc6f5802000000000000225120f322a5bbb790fbb3fc7010d744277b277918e338fdf339f0e7a367a0cc06fc6fe8ed060000000000225120f322a5bbb790fbb3fc7010d744277b277918e338fdf339f0e7a367a0cc06fc6f0140f830c84bd82139833f3deeada85023a2e5d4afe720be01344fa6ebcd43acce0547a8afb6f8109e400aa19c8a25d36c8a6efca21894c2879c0e76c1a91517eb4d00000000"
}