{
  "txid": "027f46a3a2a4cec6e71954c53f0260f298fe9b0172ee58c63ff14fefa206dfc7",
  "version": 2,
  "locktime": 0,
  "vin": [
    {
      "txid": "94fe235982213373da7d6ee7efd2aa7aeeea3c71dad9c0c45bd54e31b1557957",
      "vout": 0,
      "prevout": {
        "scriptpubkey": "a914acc8f6b393bd4bda31c883cc0b307f3bd870b7aa87",
        "scriptpubkey_asm": "OP_HASH160 OP_PUSHBYTES_20 acc8f6b393bd4bda31c883cc0b307f3bd870b7aa OP_EQUAL",
        "scriptpubkey_type": "p2sh",
        "scriptpubkey_address": "3HSctjrbp89DkgmC751qXvzBfigbA6NVr8",
        "value": 550887
      },
      "scriptsig": "16001402c16c0cc309e8ac9cb94cafcd5411626419c630",
      "scriptsig_asm": "OP_PUSHBYTES_22 001402c16c0cc309e8ac9cb94cafcd5411626419c630",
      "witness": [
        "30440220460e54a5c011437aa03b262892b23b775245c0f9fd0c9271e91eb417bdd384110220409796acba36895185bfa18b292c676fce97d256d3acc8ad5421ecbe5ae57db901",
        "024ab85df20f305afed593258a5fdddb35d228b325874407f0bce75edf8342cc7e"
      ],
      "is_coinbase": false,
      "sequence": 4294967295,
      "inner_redeemscript_asm": "OP_0 OP_PUSHBYTES_20 02c16c0cc309e8ac9cb94cafcd5411626419c630"
    },
    {
      "txid": "ef739f31026b10391c8ca582c1869fa8f6c28f3c942d7e74967406bb45aff017",
      "vout": 29,
      "prevout": {
        "scriptpubkey": "a914f2508f2b467ac6a5d5556cd96932edd0780e3b8187",
        "scriptpubkey_asm": "OP_HASH160 OP_PUSHBYTES_20 f2508f2b467ac6a5d5556cd96932edd0780e3b81 OP_EQUAL",
        "scriptpubkey_type": "p2sh",
        "scriptpubkey_address": "3PnFxKcr1j1Ftnvz6oq7m5Uj565U4Vd6Uc",
        "value": 54672
      },
      "scriptsig": "1600148e46ac4dc3528b95884604224ca98d4bf81a2780",
      "scriptsig_asm": "OP_PUSHBYTES_22 00148e46ac4dc3528b95884604224ca98d4bf81a2780",
      "witness": [
        "3044022038cc0d1bbf87425f1ae10b62df78f9c71581c318739f7b127b6ca5eeef390b4c02203558cb6af1441d6e3efdc994921ca719318dacbf0116f9756a0511ccc6df36a801",
        "0285a352ce4fed5b763efa8822456cb0e37893eb34336c74c234d616935c95eb3c"
      ],
      "is_coinbase": false,
      "sequence": 4294967295,
      "inner_redeemscript_asm": "OP_0 OP_PUSHBYTES_20 8e46ac4dc3528b95884604224ca98d4bf81a2780"
    },
    {
      "txid": "efa5333a5466dcf03f2384cffb4e99a52e3979fcb53e601b2bb83ff5593e9501",
      "vout": 21,
      "prevout": {
        "scriptpubkey": "a914c770971f0dad4e25f9967bd80ed10b538a198dce87",
        "scriptpubkey_asm": "OP_HASH160 OP_PUSHBYTES_20 c770971f0dad4e25f9967bd80ed10b538a198dce OP_EQUAL",
        "scriptpubkey_type": "p2sh",
        "scriptpubkey_address": "3KsZGdWyorY3zAcW8RytUdeFQAcoCGyQhy",
        "value": 50262
      },
      "scriptsig": "160014a9e54da722ecd99a6319d3b0d8417ee5ac344a92",
      "scriptsig_asm": "OP_PUSHBYTES_22 0014a9e54da722ecd99a6319d3b0d8417ee5ac344a92",
      "witness": [
        "3044022076467483f129b842d405c3c87feb5a1cd5dd7e39ca6ca6c88c7462a4138e13c702206f19867878d70e729fb5f23e5da91ab4c033b4c16ed53fd009430f2c61b85be301",
        "02ae66f7f6fafbc0990cdb042ab3dcc11f40056ce916d9df836c13ced80f4b4552"
      ],
      "is_coinbase": false,
      "sequence": 4294967295,
      "inner_redeemscript_asm": "OP_0 OP_PUSHBYTES_20 a9e54da722ecd99a6319d3b0d8417ee5ac344a92"
    },
    {
      "txid": "efa5333a5466dcf03f2384cffb4e99a52e3979fcb53e601b2bb83ff5593e9501",
      "vout": 178,
      "prevout": {
        "scriptpubkey": "a9148f6f41d2c6fbc6d498e81325bae2864dd7decb7b87",
        "scriptpubkey_asm": "OP_HASH160 OP_PUSHBYTES_20 8f6f41d2c6fbc6d498e81325bae2864dd7decb7b OP_EQUAL",
        "scriptpubkey_type": "p2sh",
        "scriptpubkey_address": "3EmRqFo5SzyDUE31Ecy1xEPm4ahLmsz1RP",
        "value": 54289
      },
      "scriptsig": "16001432c9c80ceb23f4334d8a879b7cf8e19c7fbd5992",
      "scriptsig_asm": "OP_PUSHBYTES_22 001432c9c80ceb23f4334d8a879b7cf8e19c7fbd5992",
      "witness": [
        "30440220369bbf58a9faae28c18bd679455f325be0d83c56e5a3da0464a96e2fd876d59702204feb9ccd958a796be731f5406d78b301cdfcc830d20577e92d40d2a695e8628101",
        "0309fd465a688fd7f83e338c4bf336218a8e8b10e77d8c62adf629313a1e7fd28e"
      ],
      "is_coinbase": false,
      "sequence": 4294967295,
      "inner_redeemscript_asm": "OP_0 OP_PUSHBYTES_20 32c9c80ceb23f4334d8a879b7cf8e19c7fbd5992"
    },
    {
      "txid": "2756569e196567d64c88e95545fbf1ce4b9bc89bd8d750f8b3e85d6049ee3ace",
      "vout": 0,
      "prevout": {
        "scriptpubkey": "a91432650f67c586324482f0b50811131bd6e595d26387",
        "scriptpubkey_asm": "OP_HASH160 OP_PUSHBYTES_20 32650f67c586324482f0b50811131bd6e595d263 OP_EQUAL",
        "scriptpubkey_type": "p2sh",
        "scriptpubkey_address": "36HUmvHQGv1GKTWnjVyYmzATjSao7M7yyE",
        "value": 40725
      },
      "scriptsig": "1600144a89fab87dd8aca59adacf4199ed0c3e6dfb6450",
      "scriptsig_asm": "OP_PUSHBYTES_22 00144a89fab87dd8aca59adacf4199ed0c3e6dfb6450",
      "witness": [
        "3044022060fbbf5a02c2e6714c6b018b460f66a24bc936988b4c092672048f0149b992bc022013b620b572d58b365bf508538876c86696491cc50b1d729493425fb848117e8e01",
        "02c1ca0eae2157d06b650684eef230358d566cf209cbc06c31cea7e47e31851ec5"
      ],
      "is_coinbase": false,
      "sequence": 4294967295,
      "inner_redeemscript_asm": "OP_0 OP_PUSHBYTES_20 4a89fab87dd8aca59adacf4199ed0c3e6dfb6450"
    },
    {
      "txid": "fe6c8d1f3716673fe601320630600601082fa496bb95c229f7087fac752d1fb8",
      "vout": 0,
      "prevout": {
        "scriptpubkey": "a914f8e3cfba4a113cf959997231a622562fad80c92287",
        "scriptpubkey_asm": "OP_HASH160 OP_PUSHBYTES_20 f8e3cfba4a113cf959997231a622562fad80c922 OP_EQUAL",
        "scriptpubkey_type": "p2sh",
        "scriptpubkey_address": "3QP2QjWiAG3JnvmN3CToPTCkfkzCwi1mgf",
        "value": 568200
      },
      "scriptsig": "1600148e85ed2e5109462f1299cf8ed8b9792e93d42d30",
      "scriptsig_asm": "OP_PUSHBYTES_22 00148e85ed2e5109462f1299cf8ed8b9792e93d42d30",
      "witness": [
        "304402202d921f3c00995ef337f4be77492bf7882b7e8b08d450d5f3a77d91edc0fa23ea022076f029161a135b528a0611d27c5973a2e7919c485cd62718bba19fd1d117297d01",
        "0201112c9fbeab9d8a383673f99c6617e6ea3b888aaddccea4ec54c17fe3eee3f2"
      ],
      "is_coinbase": false,
      "sequence": 4294967295,
      "inner_redeemscript_asm": "OP_0 OP_PUSHBYTES_20 8e85ed2e5109462f1299cf8ed8b9792e93d42d30"
    },
    {
      "txid": "624848aea87cadb8c8cceffbf12a33a907e3e7882593a5ec6412bb35e8e58979",
      "vout": 0,
      "prevout": {
        "scriptpubkey": "a914fcbe5a1203cb4942845c6885e5fb2fc6c2edc63d87",
        "scriptpubkey_asm": "OP_HASH160 OP_PUSHBYTES_20 fcbe5a1203cb4942845c6885e5fb2fc6c2edc63d OP_EQUAL",
        "scriptpubkey_type": "p2sh",
        "scriptpubkey_address": "3QjQEmBTaTezur5Sv8KYF9DGyWw9SzbqqJ",
        "value": 24499
      },
      "scriptsig": "1600143e27b2e98078f1eed0b7ddc6ee1f622dacae2810",
      "scriptsig_asm": "OP_PUSHBYTES_22 00143e27b2e98078f1eed0b7ddc6ee1f622dacae2810",
      "witness": [
        "3044022064c23912d36751cb3f16ff7232dbcd3c01640bfd3b7fd95e936c782607f3944d02204dd2cd16ccef83ed06e453a0bf34d053404fdab2e12aec3507ea50d5128e014c01",
        "03f526f9e7b295964320f51eb4d89f099e5fd1a2a852b2fd31c739d3cc7089d5e4"
      ],
      "is_coinbase": false,
      "sequence": 4294967295,
      "inner_redeemscript_asm": "OP_0 OP_PUSHBYTES_20 3e27b2e98078f1eed0b7ddc6ee1f622dacae2810"
    },
    {
      "txid": "83d32f5a68acbd5b3f4c55b5a15d3a109d2c127f70328451cf6115f9b7cd3674",
      "vout": 0,
      "prevout": {
        "scriptpubkey": "a91436ee7436f931c597544490a29d29de89f863800e87",
        "scriptpubkey_asm": "OP_HASH160 OP_PUSHBYTES_20 36ee7436f931c597544490a29d29de89f863800e OP_EQUAL",
        "scriptpubkey_type": "p2sh",
        "scriptpubkey_address": "36hU4yULhUb9Gp56HtjzFwuyG5mtJNAPvW",
        "value": 23184
      },
      "scriptsig": "160014e4cd4faa97c573190954baa0543f673bf5a57951",
      "scriptsig_asm": "OP_PUSHBYTES_22 0014e4cd4faa97c573190954baa0543f673bf5a57951",
      "witness": [
        "304402206d43e4cd08b8084e8d94d24d9a413a66c3c65340a8bbf0e664b65a2aef5cbf0502206ce09049d089d1b3a7c3547ff444d0a8bfe2026285afdd9ec3316d734de2a94e01",
        "02369a29d8576bbe556e0e255ceb2f9bbee3d48e13560a71b6bcc99fe185ccbf44"
      ],
      "is_coinbase": false,
      "sequence": 4294967295,
      "inner_redeemscript_asm": "OP_0 OP_PUSHBYTES_20 e4cd4faa97c573190954baa0543f673bf5a57951"
    },
    {
      "txid": "7fd934f3588c3d949d55de0a74bbbafd34b54d35ba23585313141ecf947396b0",
      "vout": 0,
      "prevout": {
        "scriptpubkey": "a914853a4ce0e29e8aded54342fc03308e70b381931c87",
        "scriptpubkey_asm": "OP_HASH160 OP_PUSHBYTES_20 853a4ce0e29e8aded54342fc03308e70b381931c OP_EQUAL",
        "scriptpubkey_type": "p2sh",
        "scriptpubkey_address": "3DqTdqJBAQe6j7yFqec7MpHzfJn2PNe5Ju",
        "value": 2335003
      },
      "scriptsig": "160014360c51e200250d85a6f6e091a6004ed08c6f9b57",
      "scriptsig_asm": "OP_PUSHBYTES_22 0014360c51e200250d85a6f6e091a6004ed08c6f9b57",
      "witness": [
        "304402200e03dd265a3c0e593647419dda4d3a3aefc3aab34fdbf9877d446bb274e3c8fa022032a0336ca9de656df2f5b5083eb09222f2a670e5f4994898896d324044f452ed01",
        "03e2a7dadaa790a204edc3556e3e93cf0483fe62d1d073ebf56c9b2c6d5ddefe8c"
      ],
      "is_coinbase": false,
      "sequence": 4294967295,
      "inner_redeemscript_asm": "OP_0 OP_PUSHBYTES_20 360c51e200250d85a6f6e091a6004ed08c6f9b57"
    },
    {
      "txid": "dd05b2c08cce81136d8d184026190dc67e227f6c9d2bd57b382b5240c09341f9",
      "vout": 3,
      "prevout": {
        "scriptpubkey": "a914bb2ce2fde4968dff3639a40d4dea46ff2669331d87",
        "scriptpubkey_asm": "OP_HASH160 OP_PUSHBYTES_20 bb2ce2fde4968dff3639a40d4dea46ff2669331d OP_EQUAL",
        "scriptpubkey_type": "p2sh",
        "scriptpubkey_address": "3Jki4CRKu2CFXE7WzFUtouUzTcMYVWi4md",
        "value": 200000
      },
      "scriptsig": "160014e947bdfeb4b9538a48327fb41343cb10a625e971",
      "scriptsig_asm": "OP_PUSHBYTES_22 0014e947bdfeb4b9538a48327fb41343cb10a625e971",
      "witness": [
        "3044022053a405307fe2bce3cd6f8536a097b64dee1cf794c03c78765fdbd06c2a764131022019d99bbcb2bbdd8d6bf3d8ffd9c67d158e46526cf3dbe3d2120d1046fc3ad5f801",
        "03f3aa4bc429e2258a5f900e4d2f879e33d4521800c5f1c31017572b9a8df2cae5"
      ],
      "is_coinbase": false,
      "sequence": 4294967295,
      "inner_redeemscript_asm": "OP_0 OP_PUSHBYTES_20 e947bdfeb4b9538a48327fb41343cb10a625e971"
    },
    {
      "txid": "9d1803b7bd1fb969175095047727da54253983e1430e050b55809c2cd1664592",
      "vout": 17,
      "prevout": {
        "scriptpubkey": "a914ae018afaf41a9eb6bbc6805e13d3e703fce6071b87",
        "scriptpubkey_asm": "OP_HASH160 OP_PUSHBYTES_20 ae018afaf41a9eb6bbc6805e13d3e703fce6071b OP_EQUAL",
        "scriptpubkey_type": "p2sh",
        "scriptpubkey_address": "3HZ5M8ADJhfwJeAn3saLfomDiFviG7wFuN",
        "value": 200000
      },
      "scriptsig": "1600146d273ffbfbe7bc6fa39fa6c53ad7767a8a49de8b",
      "scriptsig_asm": "OP_PUSHBYTES_22 00146d273ffbfbe7bc6fa39fa6c53ad7767a8a49de8b",
      "witness": [
        "304402205ad2b4346ff5a933cce9f6ef61d2f5c999abdd9bc894d8d25520c9ffe5cf328d022058e6538be18df2c695104d8fad67a78565f3f46f3f56cb3b2f13ae2dcf778b4501",
        "02dcae81131278e2d16b935a5ac292a7c8e0b56903fbab08ba963e3f7bac4bf5ff"
      ],
      "is_coinbase": false,
      "sequence": 4294967295,
      "inner_redeemscript_asm": "OP_0 OP_PUSHBYTES_20 6d273ffbfbe7bc6fa39fa6c53ad7767a8a49de8b"
    },
    {
      "txid": "b9d05e897a35fb9e824da81478f97bf25a6904a1bb38e31f8e1d65e084f2b2fd",
      "vout": 8,
      "prevout": {
        "scriptpubkey": "a9140dfd5acf89eff02129ead12d0b0c02dc6226f2de87",
        "scriptpubkey_asm": "OP_HASH160 OP_PUSHBYTES_20 0dfd5acf89eff02129ead12d0b0c02dc6226f2de OP_EQUAL",
        "scriptpubkey_type": "p2sh",
        "scriptpubkey_address": "32xzDS427WQP9aoZVYsc7Jv6d1kQgnDQd7",
        "value": 109194
      },
      "scriptsig": "1600144eda490a6f09721a0a26394a10887e3159c53ef8",
      "scriptsig_asm": "OP_PUSHBYTES_22 00144eda490a6f09721a0a26394a10887e3159c53ef8",
      "witness": [
        "304402203fc4873e4bf7eda07dfdb7ed6382d7f951e40c7c5d40b5355ae88cd9af98de2502201d3aeeb49041ddda7c98869675121792219ba82c48dbc4759646673839f5e1cb01",
        "028b23d8fcfe2bdf48409a33fc647c449923f748a30c93cfe56d1fa815ba841806"
      ],
      "is_coinbase": false,
      "sequence": 4294967295,
      "inner_redeemscript_asm": "OP_0 OP_PUSHBYTES_20 4eda490a6f09721a0a26394a10887e3159c53ef8"
    }
  ],
  "vout": [
    {
      "scriptpubkey": "0014db3f0068a8f43376a2caac0124276b38d9964136",
      "scriptpubkey_asm": "OP_0 OP_PUSHBYTES_20 db3f0068a8f43376a2caac0124276b38d9964136",
      "scriptpubkey_type": "v0_p2wpkh",
      "scriptpubkey_address": "bc1qmvlsq69g7sehdgk24sqjgfmt8rvevsfk0qmtwe",
      "value": 4193917
    }
  ],
  "size": 2095,
  "weight": 4522,
  "fee": 16998,
  "status": {
    "confirmed": true,
    "block_height": 834638,
    "block_hash": "000000000000000000025f742c626208ac87e0b7d15054abb4a19ca2d735a54e",
    "block_time": 1710405325
  },
  "hex": "0200000000010c577955b1314ed55bc4c0d9da713ceaee7aaad2efe76e7dda733321825923fe94000000001716001402c16c0cc309e8ac9cb94cafcd5411626419c630ffffffff17f0af45bb067496747e2d943c8fc2f6a89f86c182a58c1c39106b02319f73ef1d000000171600148e46ac4dc3528b95884604224ca98d4bf81a2780ffffffff01953e59f53fb82b1b603eb5fc79392ea5994efbcf84233ff0dc66543a33a5ef1500000017160014a9e54da722ecd99a6319d3b0d8417ee5ac344a92ffffffff01953e59f53fb82b1b603eb5fc79392ea5994efbcf84233ff0dc66543a33a5efb20000001716001432c9c80ceb23f4334d8a879b7cf8e19c7fbd5992ffffffffce3aee49605de8b3f850d7d89bc89b4bcef1fb4555e9884cd66765199e56562700000000171600144a89fab87dd8aca59adacf4199ed0c3e6dfb6450ffffffffb81f2d75ac7f08f729c295bb96a42f0801066030063201e63f6716371f8d6cfe00000000171600148e85ed2e5109462f1299cf8ed8b9792e93d42d30ffffffff7989e5e835bb1264eca5932588e7e307a9332af1fbefccc8b8ad7ca8ae48486200000000171600143e27b2e98078f1eed0b7ddc6ee1f622dacae2810ffffffff7436cdb7f91561cf518432707f122c9d103a5da1b5554c3f5bbdac685a2fd3830000000017160014e4cd4faa97c573190954baa0543f673bf5a57951ffffffffb0967394cf1e1413535823ba354db534fdbabb740ade559d943d8c58f334d97f0000000017160014360c51e200250d85a6f6e091a6004ed08c6f9b57fffffffff94193c040522b387bd52b9d6c7f227ec60d192640188d6d1381ce8cc0b205dd0300000017160014e947bdfeb4b9538a48327fb41343cb10a625e971ffffffff924566d12c9c80550b050e43e183392554da27770495501769b91fbdb703189d11000000171600146d273ffbfbe7bc6fa39fa6c53ad7767a8a49de8bfffffffffdb2f284e0651d8e1fe338bba104695af27bf97814a84d829efb357a895ed0b908000000171600144eda490a6f09721a0a26394a10887e3159c53ef8ffffffff017dfe3f0000000000160014db3f0068a8f43376a2caac0124276b38d9964136024730440220460e54a5c011437aa03b262892b23b775245c0f9fd0c9271e91eb417bdd384110220409796acba36895185bfa18b292c676fce97d256d3acc8ad5421ecbe5ae57db90121024ab85df20f305afed593258a5fdddb35d228b325874407f0bce75edf8342cc7e02473044022038cc0d1bbf87425f1ae10b62df78f9c71581c318739f7b127b6ca5eeef390b4c02203558cb6af1441d6e3efdc994921ca719318dacbf0116f9756a0511ccc6df36a801210285a352ce4fed5b763efa8822456cb0e37893eb34336c74c234d616935c95eb3c02473044022076467483f129b842d405c3c87feb5a1cd5dd7e39ca6ca6c88c7462a4138e13c702206f19867878d70e729fb5f23e5da91ab4c033b4c16ed53fd009430f2c61b85be3012102ae66f7f6fafbc0990cdb042ab3dcc11f40056ce916d9df836c13ced80f4b4552024730440220369bbf58a9faae28c18bd679455f325be0d83c56e5a3da0464a96e2fd876d59702204feb9ccd958a796be731f5406d78b301cdfcc830d20577e92d40d2a695e8628101210309fd465a688fd7f83e338c4bf336218a8e8b10e77d8c62adf629313a1e7fd28e02473044022060fbbf5a02c2e6714c6b018b460f66a24bc936988b4c092672048f0149b992bc022013b620b572d58b365bf508538876c86696491cc50b1d729493425fb848117e8e012102c1ca0eae2157d06b650684eef230358d566cf209cbc06c31cea7e47e31851ec50247304402202d921f3c00995ef337f4be77492bf7882b7e8b08d450d5f3a77d91edc0fa23ea022076f029161a135b528a0611d27c5973a2e7919c485cd62718bba19fd1d117297d01210201112c9fbeab9d8a383673f99c6617e6ea3b888aaddccea4ec54c17fe3eee3f202473044022064c23912d36751cb3f16ff7232dbcd3c01640bfd3b7fd95e936c782607f3944d02204dd2cd16ccef83ed06e453a0bf34d053404fdab2e12aec3507ea50d5128e014c012103f526f9e7b295964320f51eb4d89f099e5fd1a2a852b2fd31c739d3cc7089d5e40247304402206d43e4cd08b8084e8d94d24d9a413a66c3c65340a8bbf0e664b65a2aef5cbf0502206ce09049d089d1b3a7c3547ff444d0a8bfe2026285afdd9ec3316d734de2a94e012102369a29d8576bbe556e0e255ceb2f9bbee3d48e13560a71b6bcc99fe185ccbf440247304402200e03dd265a3c0e593647419dda4d3a3aefc3aab34fdbf9877d446bb274e3c8fa022032a0336ca9de656df2f5b5083eb09222f2a670e5f4994898896d324044f452ed012103e2a7dadaa790a204edc3556e3e93cf0483fe62d1d073ebf56c9b2c6d5ddefe8c02473044022053a405307fe2bce3cd6f8536a097b64dee1cf794c03c78765fdbd06c2a764131022019d99bbcb2bbdd8d6bf3d8ffd9c67d158e46526cf3dbe3d2120d1046fc3ad5f8012103f3aa4bc429e2258a5f900e4d2f879e33d4521800c5f1c31017572b9a8df2cae50247304402205ad2b4346ff5a933cce9f6ef61d2f5c999abdd9bc894d8d25520c9ffe5cf328d022058e6538be18df2c695104d8fad67a78565f3f46f3f56cb3b2f13ae2dcf778b45012102dcae81131278e2d16b935a5ac292a7c8e0b56903fbab08ba963e3f7bac4bf5ff0247304402203fc4873e4bf7eda07dfdb7ed6382d7f951e40c7c5d40b5355ae88cd9af98de2502201d3aeeb49041ddda7c98869675121792219ba82c48dbc4759646673839f5e1cb0121028b23d8fcfe2bdf48409a33fc647c449923f748a30c93cfe56d1fa815ba84180600000000"
}