{
  "txid": "0286c685b75e4a1baa2b73e10af3b4d347c74c348c582ec347928c207f2cdaa4",
  "version": 2,
  "locktime": 0,
  "vin": [
    {
      "txid": "c1663fc47afde7bbb1d83e6bc0a45340fdc5a9ebdec523fef4b51e392ed21f58",
      "vout": 5,
      "prevout": {
        "scriptpubkey": "5120bbf86e09d7f8c4dc162bc854ca0b61081adfc72abe7e8dcae336e425fddd8c35",
        "scriptpubkey_asm": "OP_PUSHNUM_1 OP_PUSHBYTES_32 bbf86e09d7f8c4dc162bc854ca0b61081adfc72abe7e8dcae336e425fddd8c35",
        "scriptpubkey_type": "v1_p2tr",
        "scriptpubkey_address": "bc1ph0uxuzwhlrzdc93tep2v5zmppqddl3e2helgmjhrxmjztlwa3s6ss9kjyt",
        "value": 2207
      },
      "scriptsig": "",
      "scriptsig_asm": "",
      "witness": [
        "6a3cc3c9fccb599c75681cd44c859cd86cc363c0c5858a5ae90cfaba15aba87ddeb115d748db6c1d9e32fc1ca13ff3d64e653ca8bf2d252ba75c5f41f037a7c5",
        "20efd802fe6f655b0e19c8366a672cc5a04e1e69b15a82083d6cbff671af834666ac0063036f7264010118746578742f706c61696e3b636861727365743d7574662d3800357b2270223a226272632d3230222c226f70223a226d696e74222c227469636b223a22646f6765222c22616d74223a2234323030227d68",
        "c079e7bed0f3caf3813f5bc798799f48026ddc2f656deda6db0c9486dd4ef951ea"
      ],
      "is_coinbase": false,
      "sequence": 4294967295
    }
  ],
  "vout": [
    {
      "scriptpubkey": "5120d5104f8c67a3c8dcf41733f38c1be1855ad29ee4847592a882747f48f31e49bd",
      "scriptpubkey_asm": "OP_PUSHNUM_1 OP_PUSHBYTES_32 d5104f8c67a3c8dcf41733f38c1be1855ad29ee4847592a882747f48f31e49bd",
      "scriptpubkey_type": "v1_p2tr",
      "scriptpubkey_address": "bc1p65gylrr850ydeaqhx0eccxlps4dd98hys36e92yzw3l53uc7fx7spxq2f0",
      "value": 546
    }
  ],
  "size": 320,
  "weight": 602,
  "fee": 1661,
  "status": {
    "confirmed": true,
    "block_height": 834464,
    "block_hash": "0000000000000000000177a0869a911a2b65c9bdcd5a8bcb02b68f305bee848e",
    "block_time": 1710308296
  },
  "hex": "02000000000101581fd22e391eb5f4fe23c5deeba9c5fd4053a4c06b3ed8b1bbe7fd7ac43f66c10500000000ffffffff012202000000000000225120d5104f8c67a3c8dcf41733f38c1be1855ad29ee4847592a882747f48f31e49bd03406a3cc3c9fccb599c75681cd44c859cd86cc363c0c5858a5ae90cfaba15aba87ddeb115d748db6c1d9e32fc1ca13ff3d64e653ca8bf2d252ba75c5f41f037a7c57b20efd802fe6f655b0e19c8366a672cc5a04e1e69b15a82083d6cbff671af834666ac0063036f7264010118746578742f706c61696e3b636861727365743d7574662d3800357b2270223a226272632d3230222c226f70223a226d696e74222c227469636b223a22646f6765222c22616d74223a2234323030227d6821c079e7bed0f3caf3813f5bc798799f48026ddc2f656deda6db0c9486dd4ef951ea00000000"
}