{
  "txid": "02935d56b9ecf8c7198c593b515411a1def3707e3c864443b9c3d56f42f087ca",
  "version": 2,
  "locktime": 0,
  "vin": [
    {
      "txid": "5f846d283984d01eb9829d816f88218abd33effc15a08222518615da3e5f47c5",
      "vout": 6,
      "prevout": {
        "scriptpubkey": "5120ef4c98ab8135469e396d282cc85ec2c9ca6fd431b6deb5eba7e07db01da62b8a",
        "scriptpubkey_asm": "OP_PUSHNUM_1 OP_PUSHBYTES_32 ef4c98ab8135469e396d282cc85ec2c9ca6fd431b6deb5eba7e07db01da62b8a",
        "scriptpubkey_type": "v1_p2tr",
        "scriptpubkey_address": "bc1paaxf32upx4rfuwtd9qkvshkze89xl4p3km0tt6a8up7mq8dx9w9ql3r9ee",
        "value": 2862
      },
      "scriptsig": "",
      "scriptsig_asm": "",
      "witness": [
        "e17101dc683b310a2af48d54af3053913f7c0ac8a172ae61fd41d8274e2cdde041ee50eca7ac07202b3a36e4b0cb7627026f7afcf6d00a51da5399ebb5546c31",
        "2053ad235c9fd447c4355335c08c526ea3728dbbb1804d33724ba1df93f1b2195aac0063036f726401011e6170706c69636174696f6e2f6a736f6e3b636861727365743d7574662d38004cd37b2270223a22706f772d3230222c226f70223a226d696e74222c227469636b223a2250455045222c22616d74223a2231303030222c22736f6c7574696f6e223a22504550453a626331706d6c3973653572666b6c3076393075786c7972667871717a366c34797364637172647371683735656c727133396676647164777139777276736e3a303030303030303030303030303030303030303139393431613561653132383937363539383134343239323533333030353762306461393666336465613163353a3139303431323032373934227d68",
        "c03beca27a4fc825f712a8ee0e92a93b2e9ce7496e1e1c5bfb1b103e51f3be77b5"
      ],
      "is_coinbase": false,
      "sequence": 4294967295
    }
  ],
  "vout": [
    {
      "scriptpubkey": "5120dfcb0cd069b7dec2bf86f906930002d7ea4837001b600bfa99f8c112a58d035c",
      "scriptpubkey_asm": "OP_PUSHNUM_1 OP_PUSHBYTES_32 dfcb0cd069b7dec2bf86f906930002d7ea4837001b600bfa99f8c112a58d035c",
      "scriptpubkey_type": "v1_p2tr",
      "scriptpubkey_address": "bc1pml9se5rfkl0v90uxlyrfxqqz6l4ysdcqrdsqh75elrq39fvdqdwq9wrvsn",
      "value": 546
    }
  ],
  "size": 487,
  "weight": 769,
  "fee": 2316,
  "status": {
    "confirmed": true,
    "block_height": 834460,
    "block_hash": "00000000000000000000484a79b643b2524bbce82e5d8a442013fa5b8905ed98",
    "block_time": 1710307468
  },
  "hex": "02000000000101c5475f3eda1586512282a015fcef33bd8a21886f819d82b91ed08439286d845f0600000000ffffffff012202000000000000225120dfcb0cd069b7dec2bf86f906930002d7ea4837001b600bfa99f8c112a58d035c0340e17101dc683b310a2af48d54af3053913f7c0ac8a172ae61fd41d8274e2cdde041ee50eca7ac07202b3a36e4b0cb7627026f7afcf6d00a51da5399ebb5546c31fd20012053ad235c9fd447c4355335c08c526ea3728dbbb1804d33724ba1df93f1b2195aac0063036f726401011e6170706c69636174696f6e2f6a736f6e3b636861727365743d7574662d38004cd37b2270223a22706f772d3230222c226f70223a226d696e74222c227469636b223a2250455045222c22616d74223a2231303030222c22736f6c7574696f6e223a22504550453a626331706d6c3973653572666b6c3076393075786c7972667871717a366c34797364637172647371683735656c727133396676647164777139777276736e3a303030303030303030303030303030303030303139393431613561653132383937363539383134343239323533333030353762306461393666336465613163353a3139303431323032373934227d6821c03beca27a4fc825f712a8ee0e92a93b2e9ce7496e1e1c5bfb1b103e51f3be77b500000000"
}