{
  "txid": "0297933275e9b87a592b5fe50eac2574def18b5ac071aa88b863986e7db5e3d6",
  "version": 2,
  "locktime": 0,
  "vin": [
    {
      "txid": "045e7f4ba9f87e2735eac593f73c5a26bf5428ff2781072fb4919d33a70ca17c",
      "vout": 0,
      "prevout": {
        "scriptpubkey": "51206a568b27f271b2ebcef7119372ce68f7fedff3627cb1f6ccea82020e21817bbb",
        "scriptpubkey_asm": "OP_PUSHNUM_1 OP_PUSHBYTES_32 6a568b27f271b2ebcef7119372ce68f7fedff3627cb1f6ccea82020e21817bbb",
        "scriptpubkey_type": "v1_p2tr",
        "scriptpubkey_address": "bc1pdftgkfljwxewhnhhzxfh9nng7lldlumz0jcldn82sgpqugvp0wasdrjkvg",
        "value": 53000
      },
      "scriptsig": "",
      "scriptsig_asm": "",
      "witness": [
        "a27585418c3a08a1493284c478b0b649e01e78a1c5162163aa861539691f979a0a19f6ebb357e471d079ac492b01a692b3c2d15df7766fd85d7a3ab23ee729fc",
        "205736dd164568639f96c4ff748d8e5305a8e4b10d4f119f522b42abfc412ff9a2ac0063036f726401011e6170706c69636174696f6e2f6a736f6e3b636861727365743d7574662d38004cbd7b2270223a22706f772d3230222c226f70223a226d696e74222c227469636b223a2250455045222c22616d74223a2231303030222c22736f6c7574696f6e223a22504550453a6263317171633839726a7563797a776c77786d7761646c7763797139353668726e726b6a6833637361723a303030303030303030303030303030303030303139393431613561653132383937363539383134343239323533333030353762306461393666336465613163353a363030323131363831227d68",
        "c0ebc23c5cb62efa16bafbb201dcb9689a89d3be5df33e83929d6fd8751a90bb42"
      ],
      "is_coinbase": false,
      "sequence": 4294967293
    }
  ],
  "vout": [
    {
      "scriptpubkey": "0014060e51cb98209df71b6eeb7eec1005a6ae398ed2",
      "scriptpubkey_asm": "OP_0 OP_PUSHBYTES_20 060e51cb98209df71b6eeb7eec1005a6ae398ed2",
      "scriptpubkey_type": "v0_p2wpkh",
      "scriptpubkey_address": "bc1qqc89rjucyzwlwxmwadlwcyq956hrnrkjh3csar",
      "value": 546
    },
    {
      "scriptpubkey": "512083305d2bb7997f48140bcef86b51f7268528afe627eb1f707512921117dd62bd",
      "scriptpubkey_asm": "OP_PUSHNUM_1 OP_PUSHBYTES_32 83305d2bb7997f48140bcef86b51f7268528afe627eb1f707512921117dd62bd",
      "scriptpubkey_type": "v1_p2tr",
      "scriptpubkey_address": "bc1psvc962ahn9l5s9qtemuxk50hy6zj3tlxyl437ur4z2fpz97av27shkf2ue",
      "value": 3186
    },
    {
      "scriptpubkey": "51206faf264fa08411627672f7ce62454ad5a8b6b590c5471679edce4e23b85e479e",
      "scriptpubkey_asm": "OP_PUSHNUM_1 OP_PUSHBYTES_32 6faf264fa08411627672f7ce62454ad5a8b6b590c5471679edce4e23b85e479e",
      "scriptpubkey_type": "v1_p2tr",
      "scriptpubkey_address": "bc1pd7hjvnaqssgkyanj7l8xy3226k5tddvsc4r3v70dee8z8wz7g70qtzg7dw",
      "value": 3186
    },
    {
      "scriptpubkey": "5120314b5c7a7ab5c148ccc624707caf0dcc91ce04c5be32b43bd5ece08c7f23ffc2",
      "scriptpubkey_asm": "OP_PUSHNUM_1 OP_PUSHBYTES_32 314b5c7a7ab5c148ccc624707caf0dcc91ce04c5be32b43bd5ece08c7f23ffc2",
      "scriptpubkey_type": "v1_p2tr",
      "scriptpubkey_address": "bc1px994c7n6khq53nxxy3c8etcdejguupx9hcetgw74ansgclerllpq5fsyw9",
      "value": 3186
    },
    {
      "scriptpubkey": "5120436c7aef2b4b1f047086562b8878850eaf41ce644b989f1c001f2906c82a38d3",
      "scriptpubkey_asm": "OP_PUSHNUM_1 OP_PUSHBYTES_32 436c7aef2b4b1f047086562b8878850eaf41ce644b989f1c001f2906c82a38d3",
      "scriptpubkey_type": "v1_p2tr",
      "scriptpubkey_address": "bc1pgdk84metfv0sguyx2c4cs7y9p6h5rnnyfwvf78qqru5sdjp28rfs87eaek",
      "value": 3186
    },
    {
      "scriptpubkey": "5120dc5c62c29ce06cebb8cb747892eb5ca8e4a259c9c2ebba67ec89230e6795e9fe",
      "scriptpubkey_asm": "OP_PUSHNUM_1 OP_PUSHBYTES_32 dc5c62c29ce06cebb8cb747892eb5ca8e4a259c9c2ebba67ec89230e6795e9fe",
      "scriptpubkey_type": "v1_p2tr",
      "scriptpubkey_address": "bc1pm3wx9s5uupkwhwxtw3uf966u4rj2ykwfct4m5elv3y3sueu4a8lqw7th8e",
      "value": 3186
    },
    {
      "scriptpubkey": "51203435d6996be5f560ea13106802e57d8e7d4adf65c3d34379fb45a65b775366b1",
      "scriptpubkey_asm": "OP_PUSHNUM_1 OP_PUSHBYTES_32 3435d6996be5f560ea13106802e57d8e7d4adf65c3d34379fb45a65b775366b1",
      "scriptpubkey_type": "v1_p2tr",
      "scriptpubkey_address": "bc1pxs6adxttuh6kp6snzp5q9eta3e754hm9c0f5x70mgkn9ka6nv6csnj2d9c",
      "value": 3186
    },
    {
      "scriptpubkey": "5120b74edac58d4b3ff080821c49826081a81fef4a8cce9e47e20d1035d435b6a9aa",
      "scriptpubkey_asm": "OP_PUSHNUM_1 OP_PUSHBYTES_32 b74edac58d4b3ff080821c49826081a81fef4a8cce9e47e20d1035d435b6a9aa",
      "scriptpubkey_type": "v1_p2tr",
      "scriptpubkey_address": "bc1pka8d43vdfvllpqyzr3ycycyp4q077j5ve60y0csdzq6agddk4x4qc0zzra",
      "value": 3186
    },
    {
      "scriptpubkey": "51206c56141e255df67f0ec26c12f5735aa9443de527a5394fe066e9e58f8756a7c9",
      "scriptpubkey_asm": "OP_PUSHNUM_1 OP_PUSHBYTES_32 6c56141e255df67f0ec26c12f5735aa9443de527a5394fe066e9e58f8756a7c9",
      "scriptpubkey_type": "v1_p2tr",
      "scriptpubkey_address": "bc1pd3tpg839thm87rkzdsf02u6649zrmef855u5lcrxa8jclp6k5lysjz09w4",
      "value": 3186
    },
    {
      "scriptpubkey": "0014a0e3d4593972e274de15ea9d528eed5c618b60c2",
      "scriptpubkey_asm": "OP_0 OP_PUSHBYTES_20 a0e3d4593972e274de15ea9d528eed5c618b60c2",
      "scriptpubkey_type": "v0_p2wpkh",
      "scriptpubkey_address": "bc1q5r3agkfewt38fhs4a2w49rhdt3sckcxz6qfkfk",
      "value": 18716
    }
  ],
  "size": 828,
  "weight": 2199,
  "fee": 8250,
  "status": {
    "confirmed": true,
    "block_height": 834460,
    "block_hash": "00000000000000000000484a79b643b2524bbce82e5d8a442013fa5b8905ed98",
    "block_time": 1710307468
  },
  "hex": "020000000001017ca10ca7339d91b42f078127ff2854bf265a3cf793c5ea35277ef8a94b7f5e040000000000fdffffff0a2202000000000000160014060e51cb98209df71b6eeb7eec1005a6ae398ed2720c00000000000022512083305d2bb7997f48140bcef86b51f7268528afe627eb1f707512921117dd62bd720c0000000000002251206faf264fa08411627672f7ce62454ad5a8b6b590c5471679edce4e23b85e479e720c000000000000225120314b5c7a7ab5c148ccc624707caf0dcc91ce04c5be32b43bd5ece08c7f23ffc2720c000000000000225120436c7aef2b4b1f047086562b8878850eaf41ce644b989f1c001f2906c82a38d3720c000000000000225120dc5c62c29ce06cebb8cb747892eb5ca8e4a259c9c2ebba67ec89230e6795e9fe720c0000000000002251203435d6996be5f560ea13106802e57d8e7d4adf65c3d34379fb45a65b775366b1720c000000000000225120b74edac58d4b3ff080821c49826081a81fef4a8cce9e47e20d1035d435b6a9aa720c0000000000002251206c56141e255df67f0ec26c12f5735aa9443de527a5394fe066e9e58f8756a7c91c49000000000000160014a0e3d4593972e274de15ea9d528eed5c618b60c20340a27585418c3a08a1493284c478b0b649e01e78a1c5162163aa861539691f979a0a19f6ebb357e471d079ac492b01a692b3c2d15df7766fd85d7a3ab23ee729fcfd0a01205736dd164568639f96c4ff748d8e5305a8e4b10d4f119f522b42abfc412ff9a2ac0063036f726401011e6170706c69636174696f6e2f6a736f6e3b636861727365743d7574662d38004cbd7b2270223a22706f772d3230222c226f70223a226d696e74222c227469636b223a2250455045222c22616d74223a2231303030222c22736f6c7574696f6e223a22504550453a6263317171633839726a7563797a776c77786d7761646c7763797139353668726e726b6a6833637361723a303030303030303030303030303030303030303139393431613561653132383937363539383134343239323533333030353762306461393666336465613163353a363030323131363831227d6821c0ebc23c5cb62efa16bafbb201dcb9689a89d3be5df33e83929d6fd8751a90bb4200000000"
}