{
  "txid": "02aec0aea5a968a72b930f664ffa4e82893b992bbcad26f6185d830d1b28cde2",
  "version": 2,
  "locktime": 0,
  "vin": [
    {
      "txid": "8486ecb4df0880316dd6e82b3971b4df187aff23765bc3a47f8d78bb53aa273c",
      "vout": 48,
      "prevout": {
        "scriptpubkey": "5120fbd9e1fab67dac768816afe9caabf3bbd107e060cd9f4f86f0a5398f3ae2ab40",
        "scriptpubkey_asm": "OP_PUSHNUM_1 OP_PUSHBYTES_32 fbd9e1fab67dac768816afe9caabf3bbd107e060cd9f4f86f0a5398f3ae2ab40",
        "scriptpubkey_type": "v1_p2tr",
        "scriptpubkey_address": "bc1pl0v7r74k0kk8dzqk4l5u42lnh0gs0crqek05lphs55uc7whz4dqqqq7g4y",
        "value": 2575
      },
      "scriptsig": "",
      "scriptsig_asm": "",
      "witness": [
        "8d1964d3071f1f94e15852620b0d061b83edf2f01536685965fd350ab374a6a79460233b5f42a6d93cd17bd057f91da65d7db99f1a9dff245e3e481106e360bf",
        "20f44340ca68da535e7fcf679412ef7d24d548cc020b7d8fd3e401147abdd0957dac0063036f726401010a746578742f706c61696e00367b2270223a226272632d3230222c226f70223a226d696e74222c227469636b223a2261616161222c22616d74223a223130303030227d68",
        "c1f44340ca68da535e7fcf679412ef7d24d548cc020b7d8fd3e401147abdd0957d"
      ],
      "is_coinbase": false,
      "sequence": 4261412863
    }
  ],
  "vout": [
    {
      "scriptpubkey": "0014ddd7ef12ea6f78edcc1e8e7afa12c01ab59f3339",
      "scriptpubkey_asm": "OP_0 OP_PUSHBYTES_20 ddd7ef12ea6f78edcc1e8e7afa12c01ab59f3339",
      "scriptpubkey_type": "v0_p2wpkh",
      "scriptpubkey_address": "bc1qmht77yh2dauwmnq73ea05ykqr26e7veea8spz6",
      "value": 546
    }
  ],
  "size": 295,
  "weight": 541,
  "fee": 2029,
  "status": {
    "confirmed": true,
    "block_height": 834460,
    "block_hash": "00000000000000000000484a79b643b2524bbce82e5d8a442013fa5b8905ed98",
    "block_time": 1710307468
  },
  "hex": "020000000001013c27aa53bb788d7fa4c35b7623ff7a18dfb471392be8d66d318008dfb4ec86843000000000fffffffd012202000000000000160014ddd7ef12ea6f78edcc1e8e7afa12c01ab59f333903408d1964d3071f1f94e15852620b0d061b83edf2f01536685965fd350ab374a6a79460233b5f42a6d93cd17bd057f91da65d7db99f1a9dff245e3e481106e360bf6e20f44340ca68da535e7fcf679412ef7d24d548cc020b7d8fd3e401147abdd0957dac0063036f726401010a746578742f706c61696e00367b2270223a226272632d3230222c226f70223a226d696e74222c227469636b223a2261616161222c22616d74223a223130303030227d6821c1f44340ca68da535e7fcf679412ef7d24d548cc020b7d8fd3e401147abdd0957d00000000"
}