{
  "txid": "02bdd691b457189103b410fb8d6c41607ad0c6ed579b06451484f7cdfe760b3d",
  "version": 2,
  "locktime": 0,
  "vin": [
    {
      "txid": "610408ce36d2d790b68ac36934f052b1e9b3d84879b8458f445f2655c0ce5480",
      "vout": 0,
      "prevout": {
        "scriptpubkey": "5120bed3e40853a397d400433ef37526ef280cfb60514d1a855d6b0c510d6b1ff462",
        "scriptpubkey_asm": "OP_PUSHNUM_1 OP_PUSHBYTES_32 bed3e40853a397d400433ef37526ef280cfb60514d1a855d6b0c510d6b1ff462",
        "scriptpubkey_type": "v1_p2tr",
        "scriptpubkey_address": "bc1phmf7gzzn5wtagqzr8meh2fh09qx0kcz3f5dg2http3gs66cl733qyn3rep",
        "value": 546
      },
      "scriptsig": "",
      "scriptsig_asm": "",
      "witness": [
        "d7692bcd1cb86be36f3bbfd392133ce17638e29d5e347759f815706444c57dda1cc6d0dbb8f0a96ceb9d36be71b1cbd810cd81a1c71227ec78588469ec8c69ff"
      ],
      "is_coinbase": false,
      "sequence": 4294967295
    },
    {
      "txid": "b2972a3f5d0c1844159b09e1e0282e4f04a939dcde3165e201a8bbb4100c85fe",
      "vout": 0,
      "prevout": {
        "scriptpubkey": "5120bed3e40853a397d400433ef37526ef280cfb60514d1a855d6b0c510d6b1ff462",
        "scriptpubkey_asm": "OP_PUSHNUM_1 OP_PUSHBYTES_32 bed3e40853a397d400433ef37526ef280cfb60514d1a855d6b0c510d6b1ff462",
        "scriptpubkey_type": "v1_p2tr",
        "scriptpubkey_address": "bc1phmf7gzzn5wtagqzr8meh2fh09qx0kcz3f5dg2http3gs66cl733qyn3rep",
        "value": 546
      },
      "scriptsig": "",
      "scriptsig_asm": "",
      "witness": [
        "d40e7ce3ade8a9ca560d28bcc5757f11f33311073aeca38452ccf1b19d2c4e692b4b14eea5d5c89a83837235fadfb27cce99cded3aa0e0cf4c1f154396335405"
      ],
      "is_coinbase": false,
      "sequence": 4294967295
    },
    {
      "txid": "07cc8d8c3e586aa716a5f8fe216e982b5f279cee5e72bcc7f75c82c8371e3b35",
      "vout": 0,
      "prevout": {
        "scriptpubkey": "5120bed3e40853a397d400433ef37526ef280cfb60514d1a855d6b0c510d6b1ff462",
        "scriptpubkey_asm": "OP_PUSHNUM_1 OP_PUSHBYTES_32 bed3e40853a397d400433ef37526ef280cfb60514d1a855d6b0c510d6b1ff462",
        "scriptpubkey_type": "v1_p2tr",
        "scriptpubkey_address": "bc1phmf7gzzn5wtagqzr8meh2fh09qx0kcz3f5dg2http3gs66cl733qyn3rep",
        "value": 546
      },
      "scriptsig": "",
      "scriptsig_asm": "",
      "witness": [
        "25d2179d5df2eb1e4f99486f3e4bdbee2bb14da7b2241d44ce264e28c0ac5e6cfd12a3738be17223e6222a53775ee5d660d79de93146176b0ffa51cbdd6d5406"
      ],
      "is_coinbase": false,
      "sequence": 4294967295
    },
    {
      "txid": "196db48b35d962d40a6c2576c060eda11a03a4045ee41e5b5287f8901cc1c922",
      "vout": 0,
      "prevout": {
        "scriptpubkey": "5120bed3e40853a397d400433ef37526ef280cfb60514d1a855d6b0c510d6b1ff462",
        "scriptpubkey_asm": "OP_PUSHNUM_1 OP_PUSHBYTES_32 bed3e40853a397d400433ef37526ef280cfb60514d1a855d6b0c510d6b1ff462",
        "scriptpubkey_type": "v1_p2tr",
        "scriptpubkey_address": "bc1phmf7gzzn5wtagqzr8meh2fh09qx0kcz3f5dg2http3gs66cl733qyn3rep",
        "value": 546
      },
      "scriptsig": "",
      "scriptsig_asm": "",
      "witness": [
        "9941c72afcc2e03c85a5448e16b8b172bbab3c20043ff4344682924a3e122d082ca22c711098694fb238e1a0bc99c3d86c501e04ec166ade94258fef967bbcfb"
      ],
      "is_coinbase": false,
      "sequence": 4294967295
    },
    {
      "txid": "97481bea4bd4e873b7b689c6fe0725cda3d35f29fd1ffa2c80175fdd2a9eb895",
      "vout": 0,
      "prevout": {
        "scriptpubkey": "5120bed3e40853a397d400433ef37526ef280cfb60514d1a855d6b0c510d6b1ff462",
        "scriptpubkey_asm": "OP_PUSHNUM_1 OP_PUSHBYTES_32 bed3e40853a397d400433ef37526ef280cfb60514d1a855d6b0c510d6b1ff462",
        "scriptpubkey_type": "v1_p2tr",
        "scriptpubkey_address": "bc1phmf7gzzn5wtagqzr8meh2fh09qx0kcz3f5dg2http3gs66cl733qyn3rep",
        "value": 546
      },
      "scriptsig": "",
      "scriptsig_asm": "",
      "witness": [
        "a3d22dad8df2938f06e9b3fa345e1af74dfe6928def38ad5797f46571f5d703c183c1ef9cc1a5ea817bdf3a03805f8c5d5f9ee8caa38ca9e9ac3f51ea155e8a0"
      ],
      "is_coinbase": false,
      "sequence": 4294967295
    },
    {
      "txid": "fd38e5e47eff0fcc3cd5579b6af89aa7c96cf1ec18db92f6d0702ce8ae2ff0b6",
      "vout": 0,
      "prevout": {
        "scriptpubkey": "5120bed3e40853a397d400433ef37526ef280cfb60514d1a855d6b0c510d6b1ff462",
        "scriptpubkey_asm": "OP_PUSHNUM_1 OP_PUSHBYTES_32 bed3e40853a397d400433ef37526ef280cfb60514d1a855d6b0c510d6b1ff462",
        "scriptpubkey_type": "v1_p2tr",
        "scriptpubkey_address": "bc1phmf7gzzn5wtagqzr8meh2fh09qx0kcz3f5dg2http3gs66cl733qyn3rep",
        "value": 546
      },
      "scriptsig": "",
      "scriptsig_asm": "",
      "witness": [
        "28d7ab60666968f89f4b914d0188f92629ebf21080968c3ca019700834757a40dd1b069611474c8e5565ec6e92858ab091c442c4fc39c35b777ff258098c90d8"
      ],
      "is_coinbase": false,
      "sequence": 4294967295
    },
    {
      "txid": "de66e0c525ee825e7ad0a5af99abc1ac20790c2e60c0dc789b91abf43366ebc8",
      "vout": 0,
      "prevout": {
        "scriptpubkey": "5120bed3e40853a397d400433ef37526ef280cfb60514d1a855d6b0c510d6b1ff462",
        "scriptpubkey_asm": "OP_PUSHNUM_1 OP_PUSHBYTES_32 bed3e40853a397d400433ef37526ef280cfb60514d1a855d6b0c510d6b1ff462",
        "scriptpubkey_type": "v1_p2tr",
        "scriptpubkey_address": "bc1phmf7gzzn5wtagqzr8meh2fh09qx0kcz3f5dg2http3gs66cl733qyn3rep",
        "value": 546
      },
      "scriptsig": "",
      "scriptsig_asm": "",
      "witness": [
        "7490cf96925169cafaeb7c94d184745e1fac1703195a97998f5b613d143accc7b1209a4d1d9b8daa5d2efbd31bb4627c99e19a6d3ab7f5efc65ede3ad7ba220a"
      ],
      "is_coinbase": false,
      "sequence": 4294967295
    },
    {
      "txid": "5f75866f4e05232a34c35afa77c2b9c4cdbab88d9cb60f77a36513d6cbaa4ae3",
      "vout": 0,
      "prevout": {
        "scriptpubkey": "5120bed3e40853a397d400433ef37526ef280cfb60514d1a855d6b0c510d6b1ff462",
        "scriptpubkey_asm": "OP_PUSHNUM_1 OP_PUSHBYTES_32 bed3e40853a397d400433ef37526ef280cfb60514d1a855d6b0c510d6b1ff462",
        "scriptpubkey_type": "v1_p2tr",
        "scriptpubkey_address": "bc1phmf7gzzn5wtagqzr8meh2fh09qx0kcz3f5dg2http3gs66cl733qyn3rep",
        "value": 546
      },
      "scriptsig": "",
      "scriptsig_asm": "",
      "witness": [
        "134c614ed65e8f73cbc1978571094b352d5386d88480d7f6cb80037ad50e453a0c03511bdd20fb468ae158d16fcafd5cb8d3ce65e8667041b5ad4690ffd74fbe"
      ],
      "is_coinbase": false,
      "sequence": 4294967295
    },
    {
      "txid": "1f0440ef606fb20dbfdeafb2112176627339f08702e7e938f6e9871271949b43",
      "vout": 0,
      "prevout": {
        "scriptpubkey": "5120bed3e40853a397d400433ef37526ef280cfb60514d1a855d6b0c510d6b1ff462",
        "scriptpubkey_asm": "OP_PUSHNUM_1 OP_PUSHBYTES_32 bed3e40853a397d400433ef37526ef280cfb60514d1a855d6b0c510d6b1ff462",
        "scriptpubkey_type": "v1_p2tr",
        "scriptpubkey_address": "bc1phmf7gzzn5wtagqzr8meh2fh09qx0kcz3f5dg2http3gs66cl733qyn3rep",
        "value": 546
      },
      "scriptsig": "",
      "scriptsig_asm": "",
      "witness": [
        "e863623551f4095ba67481e5ca3472d675504ab41e1c835113fa50d1979152d2f70d5ab5ebae5501c878af2c808cb5b033bd119a66fd9db301aa2670cadbaa0c"
      ],
      "is_coinbase": false,
      "sequence": 4294967295
    },
    {
      "txid": "4a36b2d28dcdeecf6ab00361fef996b843cf79fd7dbf673d2238ce01162eafed",
      "vout": 0,
      "prevout": {
        "scriptpubkey": "5120bed3e40853a397d400433ef37526ef280cfb60514d1a855d6b0c510d6b1ff462",
        "scriptpubkey_asm": "OP_PUSHNUM_1 OP_PUSHBYTES_32 bed3e40853a397d400433ef37526ef280cfb60514d1a855d6b0c510d6b1ff462",
        "scriptpubkey_type": "v1_p2tr",
        "scriptpubkey_address": "bc1phmf7gzzn5wtagqzr8meh2fh09qx0kcz3f5dg2http3gs66cl733qyn3rep",
        "value": 546
      },
      "scriptsig": "",
      "scriptsig_asm": "",
      "witness": [
        "cb09f28cbc49f2bc47dc5ed2e00e21882eaa35f56789498ada015c18d054a0e80e84ec39015639356541008f00b9200154bfc64eae591c1b71717b0a42379e50"
      ],
      "is_coinbase": false,
      "sequence": 4294967295
    },
    {
      "txid": "1ace9fe7755440e38836bd85c42b9870b6209da88122b55ffcbc0150adc7ad76",
      "vout": 0,
      "prevout": {
        "scriptpubkey": "5120bed3e40853a397d400433ef37526ef280cfb60514d1a855d6b0c510d6b1ff462",
        "scriptpubkey_asm": "OP_PUSHNUM_1 OP_PUSHBYTES_32 bed3e40853a397d400433ef37526ef280cfb60514d1a855d6b0c510d6b1ff462",
        "scriptpubkey_type": "v1_p2tr",
        "scriptpubkey_address": "bc1phmf7gzzn5wtagqzr8meh2fh09qx0kcz3f5dg2http3gs66cl733qyn3rep",
        "value": 546
      },
      "scriptsig": "",
      "scriptsig_asm": "",
      "witness": [
        "d9f60daa24361cb126db063976bcf55c491f22db16264fa3f36f1c98db850813804b12f6af0efa7a6d077b9bd8e5e8c386f8434b4bf6cbbcfb4d27170bb9198d"
      ],
      "is_coinbase": false,
      "sequence": 4294967295
    },
    {
      "txid": "777d1a72dbd277ea665334b020c3d8b1fc13baf016916b01b8558797eec0edd9",
      "vout": 0,
      "prevout": {
        "scriptpubkey": "5120bed3e40853a397d400433ef37526ef280cfb60514d1a855d6b0c510d6b1ff462",
        "scriptpubkey_asm": "OP_PUSHNUM_1 OP_PUSHBYTES_32 bed3e40853a397d400433ef37526ef280cfb60514d1a855d6b0c510d6b1ff462",
        "scriptpubkey_type": "v1_p2tr",
        "scriptpubkey_address": "bc1phmf7gzzn5wtagqzr8meh2fh09qx0kcz3f5dg2http3gs66cl733qyn3rep",
        "value": 546
      },
      "scriptsig": "",
      "scriptsig_asm": "",
      "witness": [
        "41ed58125e37354ef03192988272038041f1847ec92e2e8504e5a23d9db36b3274868325a96524c71f273876fe83e56db788c1b73bc13ab09e3f8daaeb79a8ad"
      ],
      "is_coinbase": false,
      "sequence": 4294967295
    },
    {
      "txid": "8bc5496ae96cc0a2760db1e1477bd4f1adcc11f8fa78c80ea7e5c9465501a9e4",
      "vout": 0,
      "prevout": {
        "scriptpubkey": "5120bed3e40853a397d400433ef37526ef280cfb60514d1a855d6b0c510d6b1ff462",
        "scriptpubkey_asm": "OP_PUSHNUM_1 OP_PUSHBYTES_32 bed3e40853a397d400433ef37526ef280cfb60514d1a855d6b0c510d6b1ff462",
        "scriptpubkey_type": "v1_p2tr",
        "scriptpubkey_address": "bc1phmf7gzzn5wtagqzr8meh2fh09qx0kcz3f5dg2http3gs66cl733qyn3rep",
        "value": 546
      },
      "scriptsig": "",
      "scriptsig_asm": "",
      "witness": [
        "9f245fbe4f07d406291a993086c24f3fc061b3ae70c93c069b74b0f9f8e617f5a5e54f25dd01f3a79a79e9c91a25c9ee0e3b8321c589e55bff49b97533c13275"
      ],
      "is_coinbase": false,
      "sequence": 4294967295
    },
    {
      "txid": "4d3f9de849db6fffaa759952e5bae740f6c2571ce05b116a0474eb490170bd39",
      "vout": 0,
      "prevout": {
        "scriptpubkey": "5120bed3e40853a397d400433ef37526ef280cfb60514d1a855d6b0c510d6b1ff462",
        "scriptpubkey_asm": "OP_PUSHNUM_1 OP_PUSHBYTES_32 bed3e40853a397d400433ef37526ef280cfb60514d1a855d6b0c510d6b1ff462",
        "scriptpubkey_type": "v1_p2tr",
        "scriptpubkey_address": "bc1phmf7gzzn5wtagqzr8meh2fh09qx0kcz3f5dg2http3gs66cl733qyn3rep",
        "value": 546
      },
      "scriptsig": "",
      "scriptsig_asm": "",
      "witness": [
        "0532a3e76cd98c79d9aedbc6705352f777fbb970cdbc636332c5855055f4660a190478209603dc8faafb9bdee7ff680b7f0a5b8a96d6cf54c23664c0f694fdab"
      ],
      "is_coinbase": false,
      "sequence": 4294967295
    },
    {
      "txid": "64097c0a8b4e8d16552165ba0167b34c87fdb29fa02993c51fa2bd79b85be245",
      "vout": 0,
      "prevout": {
        "scriptpubkey": "5120bed3e40853a397d400433ef37526ef280cfb60514d1a855d6b0c510d6b1ff462",
        "scriptpubkey_asm": "OP_PUSHNUM_1 OP_PUSHBYTES_32 bed3e40853a397d400433ef37526ef280cfb60514d1a855d6b0c510d6b1ff462",
        "scriptpubkey_type": "v1_p2tr",
        "scriptpubkey_address": "bc1phmf7gzzn5wtagqzr8meh2fh09qx0kcz3f5dg2http3gs66cl733qyn3rep",
        "value": 546
      },
      "scriptsig": "",
      "scriptsig_asm": "",
      "witness": [
        "e42f45238b6b0a73bb10736bdcdd15bfbcc91277c430ab8dc4aa3ab5ba40f6c6b9b8754c1dc3890c204939599c8ee1109e6904cb6bf10236e03139eff971068f"
      ],
      "is_coinbase": false,
      "sequence": 4294967295
    },
    {
      "txid": "d3238cfe3893068451236de82c888606d29e111f0068c40025fb0e1e35b17f8a",
      "vout": 0,
      "prevout": {
        "scriptpubkey": "5120bed3e40853a397d400433ef37526ef280cfb60514d1a855d6b0c510d6b1ff462",
        "scriptpubkey_asm": "OP_PUSHNUM_1 OP_PUSHBYTES_32 bed3e40853a397d400433ef37526ef280cfb60514d1a855d6b0c510d6b1ff462",
        "scriptpubkey_type": "v1_p2tr",
        "scriptpubkey_address": "bc1phmf7gzzn5wtagqzr8meh2fh09qx0kcz3f5dg2http3gs66cl733qyn3rep",
        "value": 546
      },
      "scriptsig": "",
      "scriptsig_asm": "",
      "witness": [
        "565dfd81b5348369104624106eaec458b9d2f3b8ff28184bd65d1698667caf1497806ac94f790c15e111a8f44522aa3a3686080b7f5e66eb737f76eb1ad8fe65"
      ],
      "is_coinbase": false,
      "sequence": 4294967295
    },
    {
      "txid": "15e305743ad2dac8f3f4d4e7754313ffc1328a7876e8de8f9abc37bcfcd50d2c",
      "vout": 0,
      "prevout": {
        "scriptpubkey": "5120bed3e40853a397d400433ef37526ef280cfb60514d1a855d6b0c510d6b1ff462",
        "scriptpubkey_asm": "OP_PUSHNUM_1 OP_PUSHBYTES_32 bed3e40853a397d400433ef37526ef280cfb60514d1a855d6b0c510d6b1ff462",
        "scriptpubkey_type": "v1_p2tr",
        "scriptpubkey_address": "bc1phmf7gzzn5wtagqzr8meh2fh09qx0kcz3f5dg2http3gs66cl733qyn3rep",
        "value": 546
      },
      "scriptsig": "",
      "scriptsig_asm": "",
      "witness": [
        "b732aaf320036a15db712cf608d83823b63030525555ce0ee49a0e719009e139313a6c530c6bb06504f13fb7a978f23fdc0d3e5e141688de2825ca86f7b46f98"
      ],
      "is_coinbase": false,
      "sequence": 4294967295
    },
    {
      "txid": "bb6ee86376699dba69f964ba36bb6c17e0bba5638e52d7398c082a07f7b2c463",
      "vout": 0,
      "prevout": {
        "scriptpubkey": "5120bed3e40853a397d400433ef37526ef280cfb60514d1a855d6b0c510d6b1ff462",
        "scriptpubkey_asm": "OP_PUSHNUM_1 OP_PUSHBYTES_32 bed3e40853a397d400433ef37526ef280cfb60514d1a855d6b0c510d6b1ff462",
        "scriptpubkey_type": "v1_p2tr",
        "scriptpubkey_address": "bc1phmf7gzzn5wtagqzr8meh2fh09qx0kcz3f5dg2http3gs66cl733qyn3rep",
        "value": 546
      },
      "scriptsig": "",
      "scriptsig_asm": "",
      "witness": [
        "9f6282cf03248b10adbc97f865af7384be708241191a4dc9851f98aa078ac905f35ee316d542f8deca709f9b6b5b433ed1ad7fc84248f8fd7a0cf234f8981b2d"
      ],
      "is_coinbase": false,
      "sequence": 4294967295
    },
    {
      "txid": "0874b4f95be5d8e39ef8575d72739212b383c596b398bf3d926394e3439d3075",
      "vout": 0,
      "prevout": {
        "scriptpubkey": "5120bed3e40853a397d400433ef37526ef280cfb60514d1a855d6b0c510d6b1ff462",
        "scriptpubkey_asm": "OP_PUSHNUM_1 OP_PUSHBYTES_32 bed3e40853a397d400433ef37526ef280cfb60514d1a855d6b0c510d6b1ff462",
        "scriptpubkey_type": "v1_p2tr",
        "scriptpubkey_address": "bc1phmf7gzzn5wtagqzr8meh2fh09qx0kcz3f5dg2http3gs66cl733qyn3rep",
        "value": 546
      },
      "scriptsig": "",
      "scriptsig_asm": "",
      "witness": [
        "07a3cac5d98d7cb83261d97223d1e8e99d1e7604293858e347cb99d61ef203ea18f915998a6f5d7469a800c252d1ad88adfad721ddf549585b81080e65d99d63"
      ],
      "is_coinbase": false,
      "sequence": 4294967295
    },
    {
      "txid": "1e5ccb55bb90fbdfdfd09197611a5c95786653912e1432c0b38ff9f907967dc9",
      "vout": 0,
      "prevout": {
        "scriptpubkey": "5120bed3e40853a397d400433ef37526ef280cfb60514d1a855d6b0c510d6b1ff462",
        "scriptpubkey_asm": "OP_PUSHNUM_1 OP_PUSHBYTES_32 bed3e40853a397d400433ef37526ef280cfb60514d1a855d6b0c510d6b1ff462",
        "scriptpubkey_type": "v1_p2tr",
        "scriptpubkey_address": "bc1phmf7gzzn5wtagqzr8meh2fh09qx0kcz3f5dg2http3gs66cl733qyn3rep",
        "value": 546
      },
      "scriptsig": "",
      "scriptsig_asm": "",
      "witness": [
        "b97eeb3eeb1f652e240f65510ff11c51deea94d5876a513f8a5b15941cbc125f93c4cd97fedc6c63e919ba5e19afa8bc1eea3ae011c30d935a14b5081d61d9d3"
      ],
      "is_coinbase": false,
      "sequence": 4294967295
    },
    {
      "txid": "1554509239215ea0f09175ae59231ef26de6951e4b23c1e656fbf27fe3e9189d",
      "vout": 0,
      "prevout": {
        "scriptpubkey": "5120bed3e40853a397d400433ef37526ef280cfb60514d1a855d6b0c510d6b1ff462",
        "scriptpubkey_asm": "OP_PUSHNUM_1 OP_PUSHBYTES_32 bed3e40853a397d400433ef37526ef280cfb60514d1a855d6b0c510d6b1ff462",
        "scriptpubkey_type": "v1_p2tr",
        "scriptpubkey_address": "bc1phmf7gzzn5wtagqzr8meh2fh09qx0kcz3f5dg2http3gs66cl733qyn3rep",
        "value": 546
      },
      "scriptsig": "",
      "scriptsig_asm": "",
      "witness": [
        "de6ce250b9b3d94f5547eebb564044bf8fa7547c37cb607f8ceba8b753e06f7379c7466ce8bf8ff25a476e863dc5ea8335bfdba5c5bb7053ee98cbb97c7d787b"
      ],
      "is_coinbase": false,
      "sequence": 4294967295
    },
    {
      "txid": "2e4638c50a2e594aca9df8695e3c074342c47359d5eabd17fe185353cfbb7a2e",
      "vout": 0,
      "prevout": {
        "scriptpubkey": "5120bed3e40853a397d400433ef37526ef280cfb60514d1a855d6b0c510d6b1ff462",
        "scriptpubkey_asm": "OP_PUSHNUM_1 OP_PUSHBYTES_32 bed3e40853a397d400433ef37526ef280cfb60514d1a855d6b0c510d6b1ff462",
        "scriptpubkey_type": "v1_p2tr",
        "scriptpubkey_address": "bc1phmf7gzzn5wtagqzr8meh2fh09qx0kcz3f5dg2http3gs66cl733qyn3rep",
        "value": 546
      },
      "scriptsig": "",
      "scriptsig_asm": "",
      "witness": [
        "b276ef4f096e3141d861e4346cd135637d07d435b92b32a2f05d30abeab71b45e51cb41c9ab276c6d6a60f1ba810f8335eb5c42d6b9452cfa52f965560486c50"
      ],
      "is_coinbase": false,
      "sequence": 4294967295
    },
    {
      "txid": "ad9ca4ecc71bba789c6da0c712c2dfcd70839761f69127c7ce355ec2fa8b9ded",
      "vout": 0,
      "prevout": {
        "scriptpubkey": "5120bed3e40853a397d400433ef37526ef280cfb60514d1a855d6b0c510d6b1ff462",
        "scriptpubkey_asm": "OP_PUSHNUM_1 OP_PUSHBYTES_32 bed3e40853a397d400433ef37526ef280cfb60514d1a855d6b0c510d6b1ff462",
        "scriptpubkey_type": "v1_p2tr",
        "scriptpubkey_address": "bc1phmf7gzzn5wtagqzr8meh2fh09qx0kcz3f5dg2http3gs66cl733qyn3rep",
        "value": 546
      },
      "scriptsig": "",
      "scriptsig_asm": "",
      "witness": [
        "d1b5c32823ec1fc22b94076c6bc986624a225794051318076ca73b130c5d1bc06f5bbdcfbea44a957c97e9d0d50d7bbee4baa1e4ba5b50de18bc388513e3b9b9"
      ],
      "is_coinbase": false,
      "sequence": 4294967295
    },
    {
      "txid": "10fc95fb22c015b1daf1b0c43b4b5a230a92142cbd256ca5da149f7c9c2dbc67",
      "vout": 0,
      "prevout": {
        "scriptpubkey": "5120bed3e40853a397d400433ef37526ef280cfb60514d1a855d6b0c510d6b1ff462",
        "scriptpubkey_asm": "OP_PUSHNUM_1 OP_PUSHBYTES_32 bed3e40853a397d400433ef37526ef280cfb60514d1a855d6b0c510d6b1ff462",
        "scriptpubkey_type": "v1_p2tr",
        "scriptpubkey_address": "bc1phmf7gzzn5wtagqzr8meh2fh09qx0kcz3f5dg2http3gs66cl733qyn3rep",
        "value": 546
      },
      "scriptsig": "",
      "scriptsig_asm": "",
      "witness": [
        "9fd213e2a1a845214ee5904a6d017afdcabab472f0ed97ccde879937451d4f0b1a755dbe07452e92ad4def12e6623a5afea62c6800086960a8bdce5d51d696bd"
      ],
      "is_coinbase": false,
      "sequence": 4294967295
    },
    {
      "txid": "c5e7717ba995fd4fdd61b7c5517ad1432654e8a299a6b80b4004ffe0e427114e",
      "vout": 0,
      "prevout": {
        "scriptpubkey": "5120bed3e40853a397d400433ef37526ef280cfb60514d1a855d6b0c510d6b1ff462",
        "scriptpubkey_asm": "OP_PUSHNUM_1 OP_PUSHBYTES_32 bed3e40853a397d400433ef37526ef280cfb60514d1a855d6b0c510d6b1ff462",
        "scriptpubkey_type": "v1_p2tr",
        "scriptpubkey_address": "bc1phmf7gzzn5wtagqzr8meh2fh09qx0kcz3f5dg2http3gs66cl733qyn3rep",
        "value": 546
      },
      "scriptsig": "",
      "scriptsig_asm": "",
      "witness": [
        "bd8d656fd857af34a22412293a4e572a43924a16e75d2b8f5f2e4b0358497bca4993bc86069058503a8e8211d7c465cd01f1e7484714ba8f11ba4115f789dd48"
      ],
      "is_coinbase": false,
      "sequence": 4294967295
    },
    {
      "txid": "9aa08c2d92fa73d78308da1984cb3c5a337b5b61bf1127e9d27d453b22070ff3",
      "vout": 0,
      "prevout": {
        "scriptpubkey": "5120bed3e40853a397d400433ef37526ef280cfb60514d1a855d6b0c510d6b1ff462",
        "scriptpubkey_asm": "OP_PUSHNUM_1 OP_PUSHBYTES_32 bed3e40853a397d400433ef37526ef280cfb60514d1a855d6b0c510d6b1ff462",
        "scriptpubkey_type": "v1_p2tr",
        "scriptpubkey_address": "bc1phmf7gzzn5wtagqzr8meh2fh09qx0kcz3f5dg2http3gs66cl733qyn3rep",
        "value": 546
      },
      "scriptsig": "",
      "scriptsig_asm": "",
      "witness": [
        "5954ab2b40c90e6951cfbede82c252b78ba5fa7bef4791e162fc1c7a8ba2ff922fa34f982094a41457fcdd41011b07b3c29353d4a5b5d6bd564632bae79cc506"
      ],
      "is_coinbase": false,
      "sequence": 4294967295
    },
    {
      "txid": "ca365af3652f264a32bc1a53897fc9da64eb5466257fb366218f8371d3a51737",
      "vout": 0,
      "prevout": {
        "scriptpubkey": "5120bed3e40853a397d400433ef37526ef280cfb60514d1a855d6b0c510d6b1ff462",
        "scriptpubkey_asm": "OP_PUSHNUM_1 OP_PUSHBYTES_32 bed3e40853a397d400433ef37526ef280cfb60514d1a855d6b0c510d6b1ff462",
        "scriptpubkey_type": "v1_p2tr",
        "scriptpubkey_address": "bc1phmf7gzzn5wtagqzr8meh2fh09qx0kcz3f5dg2http3gs66cl733qyn3rep",
        "value": 546
      },
      "scriptsig": "",
      "scriptsig_asm": "",
      "witness": [
        "324c3b910fe51162a393c010b0bdf6d7572ab964a1b7d4f9293dfc4b64735ceefccdd531f8717c02cfdf428b104eb037b4eb34fbd10e2fa1395e051968f7dafc"
      ],
      "is_coinbase": false,
      "sequence": 4294967295
    },
    {
      "txid": "927ce292517cf849f409502bce1099f4c9f5b3ea7013b318d527945939506c5e",
      "vout": 0,
      "prevout": {
        "scriptpubkey": "5120bed3e40853a397d400433ef37526ef280cfb60514d1a855d6b0c510d6b1ff462",
        "scriptpubkey_asm": "OP_PUSHNUM_1 OP_PUSHBYTES_32 bed3e40853a397d400433ef37526ef280cfb60514d1a855d6b0c510d6b1ff462",
        "scriptpubkey_type": "v1_p2tr",
        "scriptpubkey_address": "bc1phmf7gzzn5wtagqzr8meh2fh09qx0kcz3f5dg2http3gs66cl733qyn3rep",
        "value": 30000
      },
      "scriptsig": "",
      "scriptsig_asm": "",
      "witness": [
        "e72310c92d8ef833b13d4b449862647fc68b315dfe9d62c69e5bf565c2fb3ddcfc57244fac4c4cec642997f7d58a0ff35b8f37fa263572e1028861b7b8cdb69b"
      ],
      "is_coinbase": false,
      "sequence": 4294967295
    }
  ],
  "vout": [
    {
      "scriptpubkey": "512034426b4eb106e3c35e593b78fa9d7e8bef5c723d2585b3b2378fcd14bac91ca0",
      "scriptpubkey_asm": "OP_PUSHNUM_1 OP_PUSHBYTES_32 34426b4eb106e3c35e593b78fa9d7e8bef5c723d2585b3b2378fcd14bac91ca0",
      "scriptpubkey_type": "v1_p2tr",
      "scriptpubkey_address": "bc1px3pxkn43qm3uxhje8du048t730h4cu3aykzm8v3h3lx3fwkfrjsq70h0rx",
      "value": 546
    },
    {
      "scriptpubkey": "512034426b4eb106e3c35e593b78fa9d7e8bef5c723d2585b3b2378fcd14bac91ca0",
      "scriptpubkey_asm": "OP_PUSHNUM_1 OP_PUSHBYTES_32 34426b4eb106e3c35e593b78fa9d7e8bef5c723d2585b3b2378fcd14bac91ca0",
      "scriptpubkey_type": "v1_p2tr",
      "scriptpubkey_address": "bc1px3pxkn43qm3uxhje8du048t730h4cu3aykzm8v3h3lx3fwkfrjsq70h0rx",
      "value": 546
    },
    {
      "scriptpubkey": "512034426b4eb106e3c35e593b78fa9d7e8bef5c723d2585b3b2378fcd14bac91ca0",
      "scriptpubkey_asm": "OP_PUSHNUM_1 OP_PUSHBYTES_32 34426b4eb106e3c35e593b78fa9d7e8bef5c723d2585b3b2378fcd14bac91ca0",
      "scriptpubkey_type": "v1_p2tr",
      "scriptpubkey_address": "bc1px3pxkn43qm3uxhje8du048t730h4cu3aykzm8v3h3lx3fwkfrjsq70h0rx",
      "value": 546
    },
    {
      "scriptpubkey": "512034426b4eb106e3c35e593b78fa9d7e8bef5c723d2585b3b2378fcd14bac91ca0",
      "scriptpubkey_asm": "OP_PUSHNUM_1 OP_PUSHBYTES_32 34426b4eb106e3c35e593b78fa9d7e8bef5c723d2585b3b2378fcd14bac91ca0",
      "scriptpubkey_type": "v1_p2tr",
      "scriptpubkey_address": "bc1px3pxkn43qm3uxhje8du048t730h4cu3aykzm8v3h3lx3fwkfrjsq70h0rx",
      "value": 546
    },
    {
      "scriptpubkey": "512034426b4eb106e3c35e593b78fa9d7e8bef5c723d2585b3b2378fcd14bac91ca0",
      "scriptpubkey_asm": "OP_PUSHNUM_1 OP_PUSHBYTES_32 34426b4eb106e3c35e593b78fa9d7e8bef5c723d2585b3b2378fcd14bac91ca0",
      "scriptpubkey_type": "v1_p2tr",
      "scriptpubkey_address": "bc1px3pxkn43qm3uxhje8du048t730h4cu3aykzm8v3h3lx3fwkfrjsq70h0rx",
      "value": 546
    },
    {
      "scriptpubkey": "512034426b4eb106e3c35e593b78fa9d7e8bef5c723d2585b3b2378fcd14bac91ca0",
      "scriptpubkey_asm": "OP_PUSHNUM_1 OP_PUSHBYTES_32 34426b4eb106e3c35e593b78fa9d7e8bef5c723d2585b3b2378fcd14bac91ca0",
      "scriptpubkey_type": "v1_p2tr",
      "scriptpubkey_address": "bc1px3pxkn43qm3uxhje8du048t730h4cu3aykzm8v3h3lx3fwkfrjsq70h0rx",
      "value": 546
    },
    {
      "scriptpubkey": "512034426b4eb106e3c35e593b78fa9d7e8bef5c723d2585b3b2378fcd14bac91ca0",
      "scriptpubkey_asm": "OP_PUSHNUM_1 OP_PUSHBYTES_32 34426b4eb106e3c35e593b78fa9d7e8bef5c723d2585b3b2378fcd14bac91ca0",
      "scriptpubkey_type": "v1_p2tr",
      "scriptpubkey_address": "bc1px3pxkn43qm3uxhje8du048t730h4cu3aykzm8v3h3lx3fwkfrjsq70h0rx",
      "value": 546
    },
    {
      "scriptpubkey": "512034426b4eb106e3c35e593b78fa9d7e8bef5c723d2585b3b2378fcd14bac91ca0",
      "scriptpubkey_asm": "OP_PUSHNUM_1 OP_PUSHBYTES_32 34426b4eb106e3c35e593b78fa9d7e8bef5c723d2585b3b2378fcd14bac91ca0",
      "scriptpubkey_type": "v1_p2tr",
      "scriptpubkey_address": "bc1px3pxkn43qm3uxhje8du048t730h4cu3aykzm8v3h3lx3fwkfrjsq70h0rx",
      "value": 546
    },
    {
      "scriptpubkey": "512034426b4eb106e3c35e593b78fa9d7e8bef5c723d2585b3b2378fcd14bac91ca0",
      "scriptpubkey_asm": "OP_PUSHNUM_1 OP_PUSHBYTES_32 34426b4eb106e3c35e593b78fa9d7e8bef5c723d2585b3b2378fcd14bac91ca0",
      "scriptpubkey_type": "v1_p2tr",
      "scriptpubkey_address": "bc1px3pxkn43qm3uxhje8du048t730h4cu3aykzm8v3h3lx3fwkfrjsq70h0rx",
      "value": 546
    },
    {
      "scriptpubkey": "512034426b4eb106e3c35e593b78fa9d7e8bef5c723d2585b3b2378fcd14bac91ca0",
      "scriptpubkey_asm": "OP_PUSHNUM_1 OP_PUSHBYTES_32 34426b4eb106e3c35e593b78fa9d7e8bef5c723d2585b3b2378fcd14bac91ca0",
      "scriptpubkey_type": "v1_p2tr",
      "scriptpubkey_address": "bc1px3pxkn43qm3uxhje8du048t730h4cu3aykzm8v3h3lx3fwkfrjsq70h0rx",
      "value": 546
    },
    {
      "scriptpubkey": "512034426b4eb106e3c35e593b78fa9d7e8bef5c723d2585b3b2378fcd14bac91ca0",
      "scriptpubkey_asm": "OP_PUSHNUM_1 OP_PUSHBYTES_32 34426b4eb106e3c35e593b78fa9d7e8bef5c723d2585b3b2378fcd14bac91ca0",
      "scriptpubkey_type": "v1_p2tr",
      "scriptpubkey_address": "bc1px3pxkn43qm3uxhje8du048t730h4cu3aykzm8v3h3lx3fwkfrjsq70h0rx",
      "value": 546
    },
    {
      "scriptpubkey": "512034426b4eb106e3c35e593b78fa9d7e8bef5c723d2585b3b2378fcd14bac91ca0",
      "scriptpubkey_asm": "OP_PUSHNUM_1 OP_PUSHBYTES_32 34426b4eb106e3c35e593b78fa9d7e8bef5c723d2585b3b2378fcd14bac91ca0",
      "scriptpubkey_type": "v1_p2tr",
      "scriptpubkey_address": "bc1px3pxkn43qm3uxhje8du048t730h4cu3aykzm8v3h3lx3fwkfrjsq70h0rx",
      "value": 546
    },
    {
      "scriptpubkey": "512034426b4eb106e3c35e593b78fa9d7e8bef5c723d2585b3b2378fcd14bac91ca0",
      "scriptpubkey_asm": "OP_PUSHNUM_1 OP_PUSHBYTES_32 34426b4eb106e3c35e593b78fa9d7e8bef5c723d2585b3b2378fcd14bac91ca0",
      "scriptpubkey_type": "v1_p2tr",
      "scriptpubkey_address": "bc1px3pxkn43qm3uxhje8du048t730h4cu3aykzm8v3h3lx3fwkfrjsq70h0rx",
      "value": 546
    },
    {
      "scriptpubkey": "512034426b4eb106e3c35e593b78fa9d7e8bef5c723d2585b3b2378fcd14bac91ca0",
      "scriptpubkey_asm": "OP_PUSHNUM_1 OP_PUSHBYTES_32 34426b4eb106e3c35e593b78fa9d7e8bef5c723d2585b3b2378fcd14bac91ca0",
      "scriptpubkey_type": "v1_p2tr",
      "scriptpubkey_address": "bc1px3pxkn43qm3uxhje8du048t730h4cu3aykzm8v3h3lx3fwkfrjsq70h0rx",
      "value": 546
    },
    {
      "scriptpubkey": "512034426b4eb106e3c35e593b78fa9d7e8bef5c723d2585b3b2378fcd14bac91ca0",
      "scriptpubkey_asm": "OP_PUSHNUM_1 OP_PUSHBYTES_32 34426b4eb106e3c35e593b78fa9d7e8bef5c723d2585b3b2378fcd14bac91ca0",
      "scriptpubkey_type": "v1_p2tr",
      "scriptpubkey_address": "bc1px3pxkn43qm3uxhje8du048t730h4cu3aykzm8v3h3lx3fwkfrjsq70h0rx",
      "value": 546
    },
    {
      "scriptpubkey": "512034426b4eb106e3c35e593b78fa9d7e8bef5c723d2585b3b2378fcd14bac91ca0",
      "scriptpubkey_asm": "OP_PUSHNUM_1 OP_PUSHBYTES_32 34426b4eb106e3c35e593b78fa9d7e8bef5c723d2585b3b2378fcd14bac91ca0",
      "scriptpubkey_type": "v1_p2tr",
      "scriptpubkey_address": "bc1px3pxkn43qm3uxhje8du048t730h4cu3aykzm8v3h3lx3fwkfrjsq70h0rx",
      "value": 546
    },
    {
      "scriptpubkey": "512034426b4eb106e3c35e593b78fa9d7e8bef5c723d2585b3b2378fcd14bac91ca0",
      "scriptpubkey_asm": "OP_PUSHNUM_1 OP_PUSHBYTES_32 34426b4eb106e3c35e593b78fa9d7e8bef5c723d2585b3b2378fcd14bac91ca0",
      "scriptpubkey_type": "v1_p2tr",
      "scriptpubkey_address": "bc1px3pxkn43qm3uxhje8du048t730h4cu3aykzm8v3h3lx3fwkfrjsq70h0rx",
      "value": 546
    },
    {
      "scriptpubkey": "512034426b4eb106e3c35e593b78fa9d7e8bef5c723d2585b3b2378fcd14bac91ca0",
      "scriptpubkey_asm": "OP_PUSHNUM_1 OP_PUSHBYTES_32 34426b4eb106e3c35e593b78fa9d7e8bef5c723d2585b3b2378fcd14bac91ca0",
      "scriptpubkey_type": "v1_p2tr",
      "scriptpubkey_address": "bc1px3pxkn43qm3uxhje8du048t730h4cu3aykzm8v3h3lx3fwkfrjsq70h0rx",
      "value": 546
    },
    {
      "scriptpubkey": "512034426b4eb106e3c35e593b78fa9d7e8bef5c723d2585b3b2378fcd14bac91ca0",
      "scriptpubkey_asm": "OP_PUSHNUM_1 OP_PUSHBYTES_32 34426b4eb106e3c35e593b78fa9d7e8bef5c723d2585b3b2378fcd14bac91ca0",
      "scriptpubkey_type": "v1_p2tr",
      "scriptpubkey_address": "bc1px3pxkn43qm3uxhje8du048t730h4cu3aykzm8v3h3lx3fwkfrjsq70h0rx",
      "value": 546
    },
    {
      "scriptpubkey": "512034426b4eb106e3c35e593b78fa9d7e8bef5c723d2585b3b2378fcd14bac91ca0",
      "scriptpubkey_asm": "OP_PUSHNUM_1 OP_PUSHBYTES_32 34426b4eb106e3c35e593b78fa9d7e8bef5c723d2585b3b2378fcd14bac91ca0",
      "scriptpubkey_type": "v1_p2tr",
      "scriptpubkey_address": "bc1px3pxkn43qm3uxhje8du048t730h4cu3aykzm8v3h3lx3fwkfrjsq70h0rx",
      "value": 546
    },
    {
      "scriptpubkey": "512034426b4eb106e3c35e593b78fa9d7e8bef5c723d2585b3b2378fcd14bac91ca0",
      "scriptpubkey_asm": "OP_PUSHNUM_1 OP_PUSHBYTES_32 34426b4eb106e3c35e593b78fa9d7e8bef5c723d2585b3b2378fcd14bac91ca0",
      "scriptpubkey_type": "v1_p2tr",
      "scriptpubkey_address": "bc1px3pxkn43qm3uxhje8du048t730h4cu3aykzm8v3h3lx3fwkfrjsq70h0rx",
      "value": 546
    },
    {
      "scriptpubkey": "512034426b4eb106e3c35e593b78fa9d7e8bef5c723d2585b3b2378fcd14bac91ca0",
      "scriptpubkey_asm": "OP_PUSHNUM_1 OP_PUSHBYTES_32 34426b4eb106e3c35e593b78fa9d7e8bef5c723d2585b3b2378fcd14bac91ca0",
      "scriptpubkey_type": "v1_p2tr",
      "scriptpubkey_address": "bc1px3pxkn43qm3uxhje8du048t730h4cu3aykzm8v3h3lx3fwkfrjsq70h0rx",
      "value": 546
    },
    {
      "scriptpubkey": "512034426b4eb106e3c35e593b78fa9d7e8bef5c723d2585b3b2378fcd14bac91ca0",
      "scriptpubkey_asm": "OP_PUSHNUM_1 OP_PUSHBYTES_32 34426b4eb106e3c35e593b78fa9d7e8bef5c723d2585b3b2378fcd14bac91ca0",
      "scriptpubkey_type": "v1_p2tr",
      "scriptpubkey_address": "bc1px3pxkn43qm3uxhje8du048t730h4cu3aykzm8v3h3lx3fwkfrjsq70h0rx",
      "value": 546
    },
    {
      "scriptpubkey": "512034426b4eb106e3c35e593b78fa9d7e8bef5c723d2585b3b2378fcd14bac91ca0",
      "scriptpubkey_asm": "OP_PUSHNUM_1 OP_PUSHBYTES_32 34426b4eb106e3c35e593b78fa9d7e8bef5c723d2585b3b2378fcd14bac91ca0",
      "scriptpubkey_type": "v1_p2tr",
      "scriptpubkey_address": "bc1px3pxkn43qm3uxhje8du048t730h4cu3aykzm8v3h3lx3fwkfrjsq70h0rx",
      "value": 546
    },
    {
      "scriptpubkey": "512034426b4eb106e3c35e593b78fa9d7e8bef5c723d2585b3b2378fcd14bac91ca0",
      "scriptpubkey_asm": "OP_PUSHNUM_1 OP_PUSHBYTES_32 34426b4eb106e3c35e593b78fa9d7e8bef5c723d2585b3b2378fcd14bac91ca0",
      "scriptpubkey_type": "v1_p2tr",
      "scriptpubkey_address": "bc1px3pxkn43qm3uxhje8du048t730h4cu3aykzm8v3h3lx3fwkfrjsq70h0rx",
      "value": 546
    },
    {
      "scriptpubkey": "512034426b4eb106e3c35e593b78fa9d7e8bef5c723d2585b3b2378fcd14bac91ca0",
      "scriptpubkey_asm": "OP_PUSHNUM_1 OP_PUSHBYTES_32 34426b4eb106e3c35e593b78fa9d7e8bef5c723d2585b3b2378fcd14bac91ca0",
      "scriptpubkey_type": "v1_p2tr",
      "scriptpubkey_address": "bc1px3pxkn43qm3uxhje8du048t730h4cu3aykzm8v3h3lx3fwkfrjsq70h0rx",
      "value": 546
    },
    {
      "scriptpubkey": "512034426b4eb106e3c35e593b78fa9d7e8bef5c723d2585b3b2378fcd14bac91ca0",
      "scriptpubkey_asm": "OP_PUSHNUM_1 OP_PUSHBYTES_32 34426b4eb106e3c35e593b78fa9d7e8bef5c723d2585b3b2378fcd14bac91ca0",
      "scriptpubkey_type": "v1_p2tr",
      "scriptpubkey_address": "bc1px3pxkn43qm3uxhje8du048t730h4cu3aykzm8v3h3lx3fwkfrjsq70h0rx",
      "value": 546
    }
  ],
  "size": 4169,
  "weight": 11126,
  "fee": 30000,
  "status": {
    "confirmed": true,
    "block_height": 834464,
    "block_hash": "0000000000000000000177a0869a911a2b65c9bdcd5a8bcb02b68f305bee848e",
    "block_time": 1710308296
  },
  "hex": "0200000000011c8054cec055265f448f45b87948d8b3e9b152f03469c38ab690d7d236ce0804610000000000fffffffffe850c10b4bba801e26531dedc39a9044f2e28e0e1099b1544180c5d3f2a97b20000000000ffffffff353b1e37c8825cf7c7bc725eee9c275f2b986e21fef8a516a76a583e8c8dcc070000000000ffffffff22c9c11c90f887525b1ee45e04a4031aa1ed60c076256c0ad462d9358bb46d190000000000ffffffff95b89e2add5f17802cfa1ffd295fd3a3cd2507fec689b6b773e8d44bea1b48970000000000ffffffffb6f02faee82c70d0f692db18ecf16cc9a79af86a9b57d53ccc0fff7ee4e538fd0000000000ffffffffc8eb6633f4ab919b78dcc0602e0c7920acc1ab99afa5d07a5e82ee25c5e066de0000000000ffffffffe34aaacbd61365a3770fb69c8db8bacdc4b9c277fa5ac3342a23054e6f86755f0000000000ffffffff439b94711287e9f638e9e70287f0397362762111b2afdebf0db26f60ef40041f0000000000ffffffffedaf2e1601ce38223d67bf7dfd79cf43b896f9fe6103b06acfeecd8dd2b2364a0000000000ffffffff76adc7ad5001bcfc5fb52281a89d20b670982bc485bd3688e3405475e79fce1a0000000000ffffffffd9edc0ee978755b8016b9116f0ba13fcb1d8c320b0345366ea77d2db721a7d770000000000ffffffffe4a9015546c9e5a70ec878faf811ccadf1d47b47e1b10d76a2c06ce96a49c58b0000000000ffffffff39bd700149eb74046a115be01c57c2f640e7bae5529975aaff6fdb49e89d3f4d0000000000ffffffff45e25bb879bda21fc59329a09fb2fd874cb36701ba652155168d4e8b0a7c09640000000000ffffffff8a7fb1351e0efb2500c468001f119ed20686882ce86d235184069338fe8c23d30000000000ffffffff2c0dd5fcbc37bc9a8fdee876788a32c1ff134375e7d4f4f3c8dad23a7405e3150000000000ffffffff63c4b2f7072a088c39d7528e63a5bbe0176cbb36ba64f969ba9d697663e86ebb0000000000ffffffff75309d43e39463923dbf98b396c583b3129273725d57f89ee3d8e55bf9b474080000000000ffffffffc97d9607f9f98fb3c032142e91536678955c1a619791d0dfdffb90bb55cb5c1e0000000000ffffffff9d18e9e37ff2fb56e6c1234b1e95e66df21e2359ae7591f0a05e2139925054150000000000ffffffff2e7abbcf535318fe17bdead55973c44243073c5e69f89dca4a592e0ac538462e0000000000ffffffffed9d8bfac25e35cec72791f661978370cddfc212c7a06d9c78ba1bc7eca49cad0000000000ffffffff67bc2d9c7c9f14daa56c25bd2c14920a235a4b3bc4b0f1dab115c022fb95fc100000000000ffffffff4e1127e4e0ff04400bb8a699a2e8542643d17a51c5b761dd4ffd95a97b71e7c50000000000fffffffff30f07223b457dd2e92711bf615b7b335a3ccb8419da0883d773fa922d8ca09a0000000000ffffffff3717a5d371838f2166b37f256654eb64dac97f89531abc324a262f65f35a36ca0000000000ffffffff5e6c5039599427d518b31370eab3f5c9f49910ce2b5009f449f87c5192e27c920000000000ffffffff1b220200000000000022512034426b4eb106e3c35e593b78fa9d7e8bef5c723d2585b3b2378fcd14bac91ca0220200000000000022512034426b4eb106e3c35e593b78fa9d7e8bef5c723d2585b3b2378fcd14bac91ca0220200000000000022512034426b4eb106e3c35e593b78fa9d7e8bef5c723d2585b3b2378fcd14bac91ca0220200000000000022512034426b4eb106e3c35e593b78fa9d7e8bef5c723d2585b3b2378fcd14bac91ca0220200000000000022512034426b4eb106e3c35e593b78fa9d7e8bef5c723d2585b3b2378fcd14bac91ca0220200000000000022512034426b4eb106e3c35e593b78fa9d7e8bef5c723d2585b3b2378fcd14bac91ca0220200000000000022512034426b4eb106e3c35e593b78fa9d7e8bef5c723d2585b3b2378fcd14bac91ca0220200000000000022512034426b4eb106e3c35e593b78fa9d7e8bef5c723d2585b3b2378fcd14bac91ca0220200000000000022512034426b4eb106e3c35e593b78fa9d7e8bef5c723d2585b3b2378fcd14bac91ca0220200000000000022512034426b4eb106e3c35e593b78fa9d7e8bef5c723d2585b3b2378fcd14bac91ca0220200000000000022512034426b4eb106e3c35e593b78fa9d7e8bef5c723d2585b3b2378fcd14bac91ca0220200000000000022512034426b4eb106e3c35e593b78fa9d7e8bef5c723d2585b3b2378fcd14bac91ca0220200000000000022512034426b4eb106e3c35e593b78fa9d7e8bef5c723d2585b3b2378fcd14bac91ca0220200000000000022512034426b4eb106e3c35e593b78fa9d7e8bef5c723d2585b3b2378fcd14bac91ca0220200000000000022512034426b4eb106e3c35e593b78fa9d7e8bef5c723d2585b3b2378fcd14bac91ca0220200000000000022512034426b4eb106e3c35e593b78fa9d7e8bef5c723d2585b3b2378fcd14bac91ca0220200000000000022512034426b4eb106e3c35e593b78fa9d7e8bef5c723d2585b3b2378fcd14bac91ca0220200000000000022512034426b4eb106e3c35e593b78fa9d7e8bef5c723d2585b3b2378fcd14bac91ca0220200000000000022512034426b4eb106e3c35e593b78fa9d7e8bef5c723d2585b3b2378fcd14bac91ca0220200000000000022512034426b4eb106e3c35e593b78fa9d7e8bef5c723d2585b3b2378fcd14bac91ca0220200000000000022512034426b4eb106e3c35e593b78fa9d7e8bef5c723d2585b3b2378fcd14bac91ca0220200000000000022512034426b4eb106e3c35e593b78fa9d7e8bef5c723d2585b3b2378fcd14bac91ca0220200000000000022512034426b4eb106e3c35e593b78fa9d7e8bef5c723d2585b3b2378fcd14bac91ca0220200000000000022512034426b4eb106e3c35e593b78fa9d7e8bef5c723d2585b3b2378fcd14bac91ca0220200000000000022512034426b4eb106e3c35e593b78fa9d7e8bef5c723d2585b3b2378fcd14bac91ca0220200000000000022512034426b4eb106e3c35e593b78fa9d7e8bef5c723d2585b3b2378fcd14bac91ca0220200000000000022512034426b4eb106e3c35e593b78fa9d7e8bef5c723d2585b3b2378fcd14bac91ca00140d7692bcd1cb86be36f3bbfd392133ce17638e29d5e347759f815706444c57dda1cc6d0dbb8f0a96ceb9d36be71b1cbd810cd81a1c71227ec78588469ec8c69ff0140d40e7ce3ade8a9ca560d28bcc5757f11f33311073aeca38452ccf1b19d2c4e692b4b14eea5d5c89a83837235fadfb27cce99cded3aa0e0cf4c1f154396335405014025d2179d5df2eb1e4f99486f3e4bdbee2bb14da7b2241d44ce264e28c0ac5e6cfd12a3738be17223e6222a53775ee5d660d79de93146176b0ffa51cbdd6d540601409941c72afcc2e03c85a5448e16b8b172bbab3c20043ff4344682924a3e122d082ca22c711098694fb238e1a0bc99c3d86c501e04ec166ade94258fef967bbcfb0140a3d22dad8df2938f06e9b3fa345e1af74dfe6928def38ad5797f46571f5d703c183c1ef9cc1a5ea817bdf3a03805f8c5d5f9ee8caa38ca9e9ac3f51ea155e8a0014028d7ab60666968f89f4b914d0188f92629ebf21080968c3ca019700834757a40dd1b069611474c8e5565ec6e92858ab091c442c4fc39c35b777ff258098c90d801407490cf96925169cafaeb7c94d184745e1fac1703195a97998f5b613d143accc7b1209a4d1d9b8daa5d2efbd31bb4627c99e19a6d3ab7f5efc65ede3ad7ba220a0140134c614ed65e8f73cbc1978571094b352d5386d88480d7f6cb80037ad50e453a0c03511bdd20fb468ae158d16fcafd5cb8d3ce65e8667041b5ad4690ffd74fbe0140e863623551f4095ba67481e5ca3472d675504ab41e1c835113fa50d1979152d2f70d5ab5ebae5501c878af2c808cb5b033bd119a66fd9db301aa2670cadbaa0c0140cb09f28cbc49f2bc47dc5ed2e00e21882eaa35f56789498ada015c18d054a0e80e84ec39015639356541008f00b9200154bfc64eae591c1b71717b0a42379e500140d9f60daa24361cb126db063976bcf55c491f22db16264fa3f36f1c98db850813804b12f6af0efa7a6d077b9bd8e5e8c386f8434b4bf6cbbcfb4d27170bb9198d014041ed58125e37354ef03192988272038041f1847ec92e2e8504e5a23d9db36b3274868325a96524c71f273876fe83e56db788c1b73bc13ab09e3f8daaeb79a8ad01409f245fbe4f07d406291a993086c24f3fc061b3ae70c93c069b74b0f9f8e617f5a5e54f25dd01f3a79a79e9c91a25c9ee0e3b8321c589e55bff49b97533c1327501400532a3e76cd98c79d9aedbc6705352f777fbb970cdbc636332c5855055f4660a190478209603dc8faafb9bdee7ff680b7f0a5b8a96d6cf54c23664c0f694fdab0140e42f45238b6b0a73bb10736bdcdd15bfbcc91277c430ab8dc4aa3ab5ba40f6c6b9b8754c1dc3890c204939599c8ee1109e6904cb6bf10236e03139eff971068f0140565dfd81b5348369104624106eaec458b9d2f3b8ff28184bd65d1698667caf1497806ac94f790c15e111a8f44522aa3a3686080b7f5e66eb737f76eb1ad8fe650140b732aaf320036a15db712cf608d83823b63030525555ce0ee49a0e719009e139313a6c530c6bb06504f13fb7a978f23fdc0d3e5e141688de2825ca86f7b46f9801409f6282cf03248b10adbc97f865af7384be708241191a4dc9851f98aa078ac905f35ee316d542f8deca709f9b6b5b433ed1ad7fc84248f8fd7a0cf234f8981b2d014007a3cac5d98d7cb83261d97223d1e8e99d1e7604293858e347cb99d61ef203ea18f915998a6f5d7469a800c252d1ad88adfad721ddf549585b81080e65d99d630140b97eeb3eeb1f652e240f65510ff11c51deea94d5876a513f8a5b15941cbc125f93c4cd97fedc6c63e919ba5e19afa8bc1eea3ae011c30d935a14b5081d61d9d30140de6ce250b9b3d94f5547eebb564044bf8fa7547c37cb607f8ceba8b753e06f7379c7466ce8bf8ff25a476e863dc5ea8335bfdba5c5bb7053ee98cbb97c7d787b0140b276ef4f096e3141d861e4346cd135637d07d435b92b32a2f05d30abeab71b45e51cb41c9ab276c6d6a60f1ba810f8335eb5c42d6b9452cfa52f965560486c500140d1b5c32823ec1fc22b94076c6bc986624a225794051318076ca73b130c5d1bc06f5bbdcfbea44a957c97e9d0d50d7bbee4baa1e4ba5b50de18bc388513e3b9b901409fd213e2a1a845214ee5904a6d017afdcabab472f0ed97ccde879937451d4f0b1a755dbe07452e92ad4def12e6623a5afea62c6800086960a8bdce5d51d696bd0140bd8d656fd857af34a22412293a4e572a43924a16e75d2b8f5f2e4b0358497bca4993bc86069058503a8e8211d7c465cd01f1e7484714ba8f11ba4115f789dd4801405954ab2b40c90e6951cfbede82c252b78ba5fa7bef4791e162fc1c7a8ba2ff922fa34f982094a41457fcdd41011b07b3c29353d4a5b5d6bd564632bae79cc5060140324c3b910fe51162a393c010b0bdf6d7572ab964a1b7d4f9293dfc4b64735ceefccdd531f8717c02cfdf428b104eb037b4eb34fbd10e2fa1395e051968f7dafc0140e72310c92d8ef833b13d4b449862647fc68b315dfe9d62c69e5bf565c2fb3ddcfc57244fac4c4cec642997f7d58a0ff35b8f37fa263572e1028861b7b8cdb69b00000000"
}