{
  "txid": "02c6b48c54ee437c0c1da25863179215f33b1f23ee89e5d13b423174491e1aa4",
  "version": 2,
  "locktime": 0,
  "vin": [
    {
      "txid": "b9238c0d6e4a47af529340bea75b646152e182aa1fa805d021623a2972abc9a1",
      "vout": 3,
      "prevout": {
        "scriptpubkey": "00145832423b9592e6de5bac8a436fd32defc3c55f9a",
        "scriptpubkey_asm": "OP_0 OP_PUSHBYTES_20 5832423b9592e6de5bac8a436fd32defc3c55f9a",
        "scriptpubkey_type": "v0_p2wpkh",
        "scriptpubkey_address": "bc1qtqeyywu4jtndukav3fpkl5edalpu2hu6cg9nr6",
        "value": 141652
      },
      "scriptsig": "",
      "scriptsig_asm": "",
      "witness": [
        "3045022100dcb4947c2833c5d0772635fd8e1770e6ebe5fbeb1a34fcb06bfe818a3c70e06802206a775df6c665f0489f497d170a9501aef6f253578499757cc56a32ecf9ba2c7401",
        "037f9c03de1853725fa438f289ab585330a89180f4df1b96c9d9a35f021e4c3e90"
      ],
      "is_coinbase": false,
      "sequence": 2147483649
    }
  ],
  "vout": [
    {
      "scriptpubkey": "0014e78a329acfadcea9c1ac94a2a26ec783a49950a6",
      "scriptpubkey_asm": "OP_0 OP_PUSHBYTES_20 e78a329acfadcea9c1ac94a2a26ec783a49950a6",
      "scriptpubkey_type": "v0_p2wpkh",
      "scriptpubkey_address": "bc1qu79r9xk04h82nsdvjj32ymk8swjfj59xh7ny03",
      "value": 90000
    },
    {
      "scriptpubkey": "00145832423b9592e6de5bac8a436fd32defc3c55f9a",
      "scriptpubkey_asm": "OP_0 OP_PUSHBYTES_20 5832423b9592e6de5bac8a436fd32defc3c55f9a",
      "scriptpubkey_type": "v0_p2wpkh",
      "scriptpubkey_address": "bc1qtqeyywu4jtndukav3fpkl5edalpu2hu6cg9nr6",
      "value": 49272
    }
  ],
  "size": 223,
  "weight": 562,
  "fee": 2380,
  "status": {
    "confirmed": true,
    "block_height": 834638,
    "block_hash": "000000000000000000025f742c626208ac87e0b7d15054abb4a19ca2d735a54e",
    "block_time": 1710405325
  },
  "hex": "02000000000101a1c9ab72293a6221d005a81faa82e15261645ba7be409352af474a6e0d8c23b903000000000100008002905f010000000000160014e78a329acfadcea9c1ac94a2a26ec783a49950a678c00000000000001600145832423b9592e6de5bac8a436fd32defc3c55f9a02483045022100dcb4947c2833c5d0772635fd8e1770e6ebe5fbeb1a34fcb06bfe818a3c70e06802206a775df6c665f0489f497d170a9501aef6f253578499757cc56a32ecf9ba2c740121037f9c03de1853725fa438f289ab585330a89180f4df1b96c9d9a35f021e4c3e9000000000"
}