{
  "txid": "02c747abb9322fa822dabc623a408f141015f324fbc237319b2bf06b4e361b36",
  "version": 2,
  "locktime": 0,
  "vin": [
    {
      "txid": "3827f16bc18641edef9e6dfe0b5f84da91c422de78a13621aedf1ad94aa0abd4",
      "vout": 1,
      "prevout": {
        "scriptpubkey": "a9141d5a3e0c4223f99c7bc05cee83798dfd9ed572e687",
        "scriptpubkey_asm": "OP_HASH160 OP_PUSHBYTES_20 1d5a3e0c4223f99c7bc05cee83798dfd9ed572e6 OP_EQUAL",
        "scriptpubkey_type": "p2sh",
        "scriptpubkey_address": "34NDdFrcFp6uYCguK7J64kxzzi5PiUtNuX",
        "value": 4269679
      },
      "scriptsig": "160014148e29adbb57a1d5f936a32fd7eeca037d970e9d",
      "scriptsig_asm": "OP_PUSHBYTES_22 0014148e29adbb57a1d5f936a32fd7eeca037d970e9d",
      "witness": [
        "3045022100b5955623362cf0259665ee7940ec3ba2987b644eaf72ca6106152ab9af8bc855022028241d9bf5fea9490f23f58e72384904276af40c781c1b3b30b125a535a1716001",
        "03c58915228d240de82136a26969ad4dd2f47daf194db77ba2bf88d2d5395ed2ea"
      ],
      "is_coinbase": false,
      "sequence": 0,
      "inner_redeemscript_asm": "OP_0 OP_PUSHBYTES_20 148e29adbb57a1d5f936a32fd7eeca037d970e9d"
    }
  ],
  "vout": [
    {
      "scriptpubkey": "0014a5d5d2dd00b989dc8fd16e82d98559286f00242d",
      "scriptpubkey_asm": "OP_0 OP_PUSHBYTES_20 a5d5d2dd00b989dc8fd16e82d98559286f00242d",
      "scriptpubkey_type": "v0_p2wpkh",
      "scriptpubkey_address": "bc1q5h2a9hgqhxyaer73d6pdnp2e9phsqfpdpeafdv",
      "value": 97000
    },
    {
      "scriptpubkey": "a914ba24474e896acd6ad3d672ca3c3ef0430b7314a787",
      "scriptpubkey_asm": "OP_HASH160 OP_PUSHBYTES_20 ba24474e896acd6ad3d672ca3c3ef0430b7314a7 OP_EQUAL",
      "scriptpubkey_type": "p2sh",
      "scriptpubkey_address": "3JfF4uEvvkB9aK56C8Lk4Kf9Uc2yQU4kWg",
      "value": 4169772
    }
  ],
  "size": 247,
  "weight": 658,
  "fee": 2907,
  "status": {
    "confirmed": true,
    "block_height": 834638,
    "block_hash": "000000000000000000025f742c626208ac87e0b7d15054abb4a19ca2d735a54e",
    "block_time": 1710405325
  },
  "hex": "02000000000101d4aba04ad91adfae2136a178de22c491da845f0bfe6d9eefed4186c16bf127380100000017160014148e29adbb57a1d5f936a32fd7eeca037d970e9d0000000002e87a010000000000160014a5d5d2dd00b989dc8fd16e82d98559286f00242d2ca03f000000000017a914ba24474e896acd6ad3d672ca3c3ef0430b7314a78702483045022100b5955623362cf0259665ee7940ec3ba2987b644eaf72ca6106152ab9af8bc855022028241d9bf5fea9490f23f58e72384904276af40c781c1b3b30b125a535a17160012103c58915228d240de82136a26969ad4dd2f47daf194db77ba2bf88d2d5395ed2ea00000000"
}