{
  "txid": "02c8ba2ade03bd5a0a157de7fd57f5e6572854fab40f06c29614909a5b7ead4a",
  "version": 2,
  "locktime": 0,
  "vin": [
    {
      "txid": "e1b65e298254c52b03b35d51637f706c958f3d54aa5e9491f2e5198a8708e88c",
      "vout": 1,
      "prevout": {
        "scriptpubkey": "001490c063a80b31ad78b0e3986920d56322545578a5",
        "scriptpubkey_asm": "OP_0 OP_PUSHBYTES_20 90c063a80b31ad78b0e3986920d56322545578a5",
        "scriptpubkey_type": "v0_p2wpkh",
        "scriptpubkey_address": "bc1qjrqx82qtxxkh3v8rnp5jp4tryf292799ctv87c",
        "value": 3799731
      },
      "scriptsig": "",
      "scriptsig_asm": "",
      "witness": [
        "30450221009edf2e87527ad90fe93b916dc9bc6160ffc6c7b6dc93426c5e62d6f9094a19a1022032f714fc5be378a8e7700c5d9bec42635e8e39787605e444f36ec7f52379464401",
        "0251bcae1ae64786904ececf37387f0def6af36780f99ac08813878251a3550123"
      ],
      "is_coinbase": false,
      "sequence": 0
    }
  ],
  "vout": [
    {
      "scriptpubkey": "a914278ed0c307a96dd0ca62a4e2b6eadcf7f75016f787",
      "scriptpubkey_asm": "OP_HASH160 OP_PUSHBYTES_20 278ed0c307a96dd0ca62a4e2b6eadcf7f75016f7 OP_EQUAL",
      "scriptpubkey_type": "p2sh",
      "scriptpubkey_address": "35JBN223easiPnBub7PCy3nKMvr2ZA4woM",
      "value": 1364
    },
    {
      "scriptpubkey": "001496a790b8165d4546e7b02c503451d32ad5154439",
      "scriptpubkey_asm": "OP_0 OP_PUSHBYTES_20 96a790b8165d4546e7b02c503451d32ad5154439",
      "scriptpubkey_type": "v0_p2wpkh",
      "scriptpubkey_address": "bc1qj6nepwqkt4z5deas93grg5wn9t2323pec0k4sn",
      "value": 3795820
    }
  ],
  "size": 224,
  "weight": 566,
  "fee": 2547,
  "status": {
    "confirmed": true,
    "block_height": 834638,
    "block_hash": "000000000000000000025f742c626208ac87e0b7d15054abb4a19ca2d735a54e",
    "block_time": 1710405325
  },
  "hex": "020000000001018ce808878a19e5f291945eaa543d8f956c707f63515db3032bc55482295eb6e101000000000000000002540500000000000017a914278ed0c307a96dd0ca62a4e2b6eadcf7f75016f7876ceb39000000000016001496a790b8165d4546e7b02c503451d32ad5154439024830450221009edf2e87527ad90fe93b916dc9bc6160ffc6c7b6dc93426c5e62d6f9094a19a1022032f714fc5be378a8e7700c5d9bec42635e8e39787605e444f36ec7f52379464401210251bcae1ae64786904ececf37387f0def6af36780f99ac08813878251a355012300000000"
}