{
  "txid": "02eb7bd21c49abd503dfd285b2549030512515734db133f81a9166fd43f5b3d9",
  "version": 2,
  "locktime": 0,
  "vin": [
    {
      "txid": "8486ecb4df0880316dd6e82b3971b4df187aff23765bc3a47f8d78bb53aa273c",
      "vout": 124,
      "prevout": {
        "scriptpubkey": "5120f666ca98679a26870ee20efabff2bb03ba20cffc9bf481a4d33138f25e7e7544",
        "scriptpubkey_asm": "OP_PUSHNUM_1 OP_PUSHBYTES_32 f666ca98679a26870ee20efabff2bb03ba20cffc9bf481a4d33138f25e7e7544",
        "scriptpubkey_type": "v1_p2tr",
        "scriptpubkey_address": "bc1p7env4xr8ngngwrhzpmatlu4mqwazpnlun06grfxnxyu0yhn7w4zqc67057",
        "value": 2575
      },
      "scriptsig": "",
      "scriptsig_asm": "",
      "witness": [
        "6bd5c327014e6f49f1f56dbe1c82435ae7f71f9670e424753caa3eb2152e9415fb288e14c3d4fc2ab7d93cdbf9696e8cc5a075fdce5f814378a0d5d85c0f5f99",
        "20fead388634816acc649e5b4ce4e142f3859acbd68a3966f4a2c3a64ea7eaf2c5ac0063036f726401010a746578742f706c61696e00367b2270223a226272632d3230222c226f70223a226d696e74222c227469636b223a2261616161222c22616d74223a223130303030227d68",
        "c0fead388634816acc649e5b4ce4e142f3859acbd68a3966f4a2c3a64ea7eaf2c5"
      ],
      "is_coinbase": false,
      "sequence": 4261412863
    }
  ],
  "vout": [
    {
      "scriptpubkey": "0014ddd7ef12ea6f78edcc1e8e7afa12c01ab59f3339",
      "scriptpubkey_asm": "OP_0 OP_PUSHBYTES_20 ddd7ef12ea6f78edcc1e8e7afa12c01ab59f3339",
      "scriptpubkey_type": "v0_p2wpkh",
      "scriptpubkey_address": "bc1qmht77yh2dauwmnq73ea05ykqr26e7veea8spz6",
      "value": 546
    }
  ],
  "size": 295,
  "weight": 541,
  "fee": 2029,
  "status": {
    "confirmed": true,
    "block_height": 834460,
    "block_hash": "00000000000000000000484a79b643b2524bbce82e5d8a442013fa5b8905ed98",
    "block_time": 1710307468
  },
  "hex": "020000000001013c27aa53bb788d7fa4c35b7623ff7a18dfb471392be8d66d318008dfb4ec86847c00000000fffffffd012202000000000000160014ddd7ef12ea6f78edcc1e8e7afa12c01ab59f333903406bd5c327014e6f49f1f56dbe1c82435ae7f71f9670e424753caa3eb2152e9415fb288e14c3d4fc2ab7d93cdbf9696e8cc5a075fdce5f814378a0d5d85c0f5f996e20fead388634816acc649e5b4ce4e142f3859acbd68a3966f4a2c3a64ea7eaf2c5ac0063036f726401010a746578742f706c61696e00367b2270223a226272632d3230222c226f70223a226d696e74222c227469636b223a2261616161222c22616d74223a223130303030227d6821c0fead388634816acc649e5b4ce4e142f3859acbd68a3966f4a2c3a64ea7eaf2c500000000"
}