{
  "txid": "0305a693ef87168586f08c6fb66e0c26641c6a687db523f9f746f6f2ba23859b",
  "version": 2,
  "locktime": 0,
  "vin": [
    {
      "txid": "acc3ba00869acb582a3f2904ce3a11dd3779350ce234063fc7d0959246213364",
      "vout": 154,
      "prevout": {
        "scriptpubkey": "5120d8e51336b23069ce9c604ad547585188655370f30cfe3ab03f0fa448bf19da28",
        "scriptpubkey_asm": "OP_PUSHNUM_1 OP_PUSHBYTES_32 d8e51336b23069ce9c604ad547585188655370f30cfe3ab03f0fa448bf19da28",
        "scriptpubkey_type": "v1_p2tr",
        "scriptpubkey_address": "bc1pmrj3xd4jxp5ua8rqft25wkz33pj4xu8npnlr4vplp7jy30cemg5qwmpxsx",
        "value": 1806
      },
      "scriptsig": "",
      "scriptsig_asm": "",
      "witness": [
        "b3e2b018f57bc79db9e9151a8304e1e40a8b7b797fe7174b9c4960d96339293538a2b9c3e0fa75bc3362e8975747f22a8c53afbe5e1ca27617e0ee80f4620220",
        "2096873149ba42fd05686c53e623b87b834ae4cb957b8d2011b38992eb40e7d860ac0063036f726401010a746578742f706c61696e00357b2270223a226272632d3230222c226f70223a226d696e74222c227469636b223a22646f6765222c22616d74223a2234323030227d68",
        "c096873149ba42fd05686c53e623b87b834ae4cb957b8d2011b38992eb40e7d860"
      ],
      "is_coinbase": false,
      "sequence": 4261412863
    }
  ],
  "vout": [
    {
      "scriptpubkey": "00147a665de7a370f4c9b372ab1fae587500a5bcbdb4",
      "scriptpubkey_asm": "OP_0 OP_PUSHBYTES_20 7a665de7a370f4c9b372ab1fae587500a5bcbdb4",
      "scriptpubkey_type": "v0_p2wpkh",
      "scriptpubkey_address": "bc1q0fn9mearwr6vnvmj4v06ukr4qzjme0d565dzcx",
      "value": 294
    }
  ],
  "size": 294,
  "weight": 540,
  "fee": 1512,
  "status": {
    "confirmed": true,
    "block_height": 834460,
    "block_hash": "00000000000000000000484a79b643b2524bbce82e5d8a442013fa5b8905ed98",
    "block_time": 1710307468
  },
  "hex": "02000000000101643321469295d0c73f0634e20c357937dd113ace04293f2a58cb9a8600bac3ac9a00000000fffffffd0126010000000000001600147a665de7a370f4c9b372ab1fae587500a5bcbdb40340b3e2b018f57bc79db9e9151a8304e1e40a8b7b797fe7174b9c4960d96339293538a2b9c3e0fa75bc3362e8975747f22a8c53afbe5e1ca27617e0ee80f46202206d2096873149ba42fd05686c53e623b87b834ae4cb957b8d2011b38992eb40e7d860ac0063036f726401010a746578742f706c61696e00357b2270223a226272632d3230222c226f70223a226d696e74222c227469636b223a22646f6765222c22616d74223a2234323030227d6821c096873149ba42fd05686c53e623b87b834ae4cb957b8d2011b38992eb40e7d86000000000"
}