{
  "txid": "0309b100056950f36b19f90dc647a27e65083bba6a92a1155e1e26c0a4f86bda",
  "version": 2,
  "locktime": 0,
  "vin": [
    {
      "txid": "432bde2b64636579904df46a67797cbd79e5dfc863716e78ca4a788c73b1514b",
      "vout": 0,
      "prevout": {
        "scriptpubkey": "5120ac9dcb814fdccaa4fc4012c18b67d48a9f3fd418e2e2d23461f75166c53f68a9",
        "scriptpubkey_asm": "OP_PUSHNUM_1 OP_PUSHBYTES_32 ac9dcb814fdccaa4fc4012c18b67d48a9f3fd418e2e2d23461f75166c53f68a9",
        "scriptpubkey_type": "v1_p2tr",
        "scriptpubkey_address": "bc1p4jwuhq20mn92flzqztqcke75320nl4qcut3dydrp7agkd3fldz5sv9pdg0",
        "value": 2108
      },
      "scriptsig": "",
      "scriptsig_asm": "",
      "witness": [
        "4f8dd8c4f46a03af0a15f6638dbe05c7dc68a1c2955baef8a7b3b95e2618c1808db38f62338bd1a346ea486726e0048e456ef2aaf4136bc3025a029af230a47e",
        "20be90820dd64017c68f5e779928353e03747edbec4b6c639e693addf97fec0f0cac0063036f7264010118746578742f706c61696e3b636861727365743d7574662d3800427b2270223a226272632d3230222c226f70223a227472616e73666572222c227469636b223a2258404149222c22616d74223a2231303030303030303030303030227d68",
        "c0be90820dd64017c68f5e779928353e03747edbec4b6c639e693addf97fec0f0c"
      ],
      "is_coinbase": false,
      "sequence": 4294967293
    }
  ],
  "vout": [
    {
      "scriptpubkey": "0014f295bb77cdd39b10fb89898fd18aa1cf792ea056",
      "scriptpubkey_asm": "OP_0 OP_PUSHBYTES_20 f295bb77cdd39b10fb89898fd18aa1cf792ea056",
      "scriptpubkey_type": "v0_p2wpkh",
      "scriptpubkey_address": "bc1q722mka7d6wd3p7uf3x8arz4peaujagzkevvd9p",
      "value": 546
    }
  ],
  "size": 321,
  "weight": 567,
  "fee": 1562,
  "status": {
    "confirmed": true,
    "block_height": 834464,
    "block_hash": "0000000000000000000177a0869a911a2b65c9bdcd5a8bcb02b68f305bee848e",
    "block_time": 1710308296
  },
  "hex": "020000000001014b51b1738c784aca786e7163c8dfe579bd7c79676af44d90796563642bde2b430000000000fdffffff012202000000000000160014f295bb77cdd39b10fb89898fd18aa1cf792ea05603404f8dd8c4f46a03af0a15f6638dbe05c7dc68a1c2955baef8a7b3b95e2618c1808db38f62338bd1a346ea486726e0048e456ef2aaf4136bc3025a029af230a47e8820be90820dd64017c68f5e779928353e03747edbec4b6c639e693addf97fec0f0cac0063036f7264010118746578742f706c61696e3b636861727365743d7574662d3800427b2270223a226272632d3230222c226f70223a227472616e73666572222c227469636b223a2258404149222c22616d74223a2231303030303030303030303030227d6821c0be90820dd64017c68f5e779928353e03747edbec4b6c639e693addf97fec0f0c00000000"
}