{
  "txid": "0319b25f8aceb5b26f50bd2492e0b58cee82a1ea363764778a75396b0d8806fe",
  "version": 2,
  "locktime": 0,
  "vin": [
    {
      "txid": "7c90a5d4a324ee99b17e38bae45f7269c5bdd5a90c5dc9b02f7724f4be65c578",
      "vout": 1,
      "prevout": {
        "scriptpubkey": "0014e5611ea6ed8d809effe036b7a74f0537216c7007",
        "scriptpubkey_asm": "OP_0 OP_PUSHBYTES_20 e5611ea6ed8d809effe036b7a74f0537216c7007",
        "scriptpubkey_type": "v0_p2wpkh",
        "scriptpubkey_address": "bc1qu4s3afhd3kqfallqx6m6wnc9xuskcuq8e8wpja",
        "value": 320398876
      },
      "scriptsig": "",
      "scriptsig_asm": "",
      "witness": [
        "304402202e6c4d001389f603985f216f298d59efde5a04132d7557774358e7f0296fc08d02201bcb8cafa4c1d793bf95f6a55ea9a89abe0754f1b571c71af464b6c074abe09701",
        "02a82f5239c77f2df1cb712ff31c0744a72e079dfaa32927f42deeadf9c272d7e7"
      ],
      "is_coinbase": false,
      "sequence": 4294967293
    }
  ],
  "vout": [
    {
      "scriptpubkey": "001495d92166737a9ccfd8e9efe1273a5c890ccbde70",
      "scriptpubkey_asm": "OP_0 OP_PUSHBYTES_20 95d92166737a9ccfd8e9efe1273a5c890ccbde70",
      "scriptpubkey_type": "v0_p2wpkh",
      "scriptpubkey_address": "bc1qjhvjzenn02wvlk8falsjwwju3yxvhhnsrrlnqr",
      "value": 200000000
    },
    {
      "scriptpubkey": "001415cf43ac54142a96414e186eaa5ecd3a50fcf438",
      "scriptpubkey_asm": "OP_0 OP_PUSHBYTES_20 15cf43ac54142a96414e186eaa5ecd3a50fcf438",
      "scriptpubkey_type": "v0_p2wpkh",
      "scriptpubkey_address": "bc1qzh858tz5zs4fvs2wrph25hkd8fg0eapcdrg8au",
      "value": 120394412
    }
  ],
  "size": 222,
  "weight": 561,
  "fee": 4464,
  "status": {
    "confirmed": true,
    "block_height": 834638,
    "block_hash": "000000000000000000025f742c626208ac87e0b7d15054abb4a19ca2d735a54e",
    "block_time": 1710405325
  },
  "hex": "0200000000010178c565bef424772fb0c95d0ca9d5bdc569725fe4ba387eb199ee24a3d4a5907c0100000000fdffffff0200c2eb0b0000000016001495d92166737a9ccfd8e9efe1273a5c890ccbde70ac122d070000000016001415cf43ac54142a96414e186eaa5ecd3a50fcf4380247304402202e6c4d001389f603985f216f298d59efde5a04132d7557774358e7f0296fc08d02201bcb8cafa4c1d793bf95f6a55ea9a89abe0754f1b571c71af464b6c074abe097012102a82f5239c77f2df1cb712ff31c0744a72e079dfaa32927f42deeadf9c272d7e700000000"
}