{
  "txid": "031bf0ea8333540667cf4dbfc3c42eee999c567f4de6e1e73e3ce4edd540fdca",
  "version": 2,
  "locktime": 0,
  "vin": [
    {
      "txid": "4ee77778659dcfe8d7a4e15882fc6193f4f3d5f6607624e256337b44c2280af5",
      "vout": 72,
      "prevout": {
        "scriptpubkey": "512045fb7a5b75b4a1ef75c1bb2497fb8cd94ff5f975ad6561627e4b3a8b4a923cf1",
        "scriptpubkey_asm": "OP_PUSHNUM_1 OP_PUSHBYTES_32 45fb7a5b75b4a1ef75c1bb2497fb8cd94ff5f975ad6561627e4b3a8b4a923cf1",
        "scriptpubkey_type": "v1_p2tr",
        "scriptpubkey_address": "bc1pghah5km4kjs77awphvjf07uvm98lt7t444jkzcn7fvagkj5j8ncsawakw7",
        "value": 2075
      },
      "scriptsig": "",
      "scriptsig_asm": "",
      "witness": [
        "8f824b708c0714c4a939a6c76e84b965dcbc3ab08a3a4991bbb4fa7f798473d39463e1c1aaaa8b6406377faf14b919d27e5233490a7dba61e5aa2ab12f100a9b",
        "20dcfa63fe710b70936ccd156d09d8af3d89dc06d10ea6784d5091c6a24856fa98ac0063036f7264010118746578742f706c61696e3b636861727365743d7574662d3800357b2270223a224252432d313030222c226f70223a226d696e74222c227469636b223a22696e73222c22616d74223a2231303030227d68",
        "c1c50eac15d7d7889f5ad84f80015e8a209129aeea937c37fa4b8bc0f9be289730"
      ],
      "is_coinbase": false,
      "sequence": 4294967295
    }
  ],
  "vout": [
    {
      "scriptpubkey": "00143e2325412b554cacdd163a93a42204c4707f8851",
      "scriptpubkey_asm": "OP_0 OP_PUSHBYTES_20 3e2325412b554cacdd163a93a42204c4707f8851",
      "scriptpubkey_type": "v0_p2wpkh",
      "scriptpubkey_address": "bc1q8c3j2sft24x2ehgk82f6ggsyc3c8lzz3yw9wsu",
      "value": 546
    }
  ],
  "size": 308,
  "weight": 554,
  "fee": 1529,
  "status": {
    "confirmed": true,
    "block_height": 834464,
    "block_hash": "0000000000000000000177a0869a911a2b65c9bdcd5a8bcb02b68f305bee848e",
    "block_time": 1710308296
  },
  "hex": "02000000000101f50a28c2447b3356e2247660f6d5f3f49361fc8258e1a4d7e8cf9d657877e74e4800000000ffffffff0122020000000000001600143e2325412b554cacdd163a93a42204c4707f885103408f824b708c0714c4a939a6c76e84b965dcbc3ab08a3a4991bbb4fa7f798473d39463e1c1aaaa8b6406377faf14b919d27e5233490a7dba61e5aa2ab12f100a9b7b20dcfa63fe710b70936ccd156d09d8af3d89dc06d10ea6784d5091c6a24856fa98ac0063036f7264010118746578742f706c61696e3b636861727365743d7574662d3800357b2270223a224252432d313030222c226f70223a226d696e74222c227469636b223a22696e73222c22616d74223a2231303030227d6821c1c50eac15d7d7889f5ad84f80015e8a209129aeea937c37fa4b8bc0f9be28973000000000"
}