{
  "txid": "03218fedf3dc2124c9b4b13e882cd99e71ec8b07d42d7449177df65bef427ef9",
  "version": 2,
  "locktime": 0,
  "vin": [
    {
      "txid": "b13bb5512a4904c28a6b7957b88edf574e8cb23551fc1dcfe22d6b239df42cf4",
      "vout": 60,
      "prevout": {
        "scriptpubkey": "5120ea98f2b33e28bc31b4c92d4c7f2ebcf005644b4bd24ad6d83d593fbd8ab1012a",
        "scriptpubkey_asm": "OP_PUSHNUM_1 OP_PUSHBYTES_32 ea98f2b33e28bc31b4c92d4c7f2ebcf005644b4bd24ad6d83d593fbd8ab1012a",
        "scriptpubkey_type": "v1_p2tr",
        "scriptpubkey_address": "bc1pa2v09ve79z7rrdxf94x87t4u7qzkgj6t6f9ddkpatylmmz43qy4qny97s2",
        "value": 2575
      },
      "scriptsig": "",
      "scriptsig_asm": "",
      "witness": [
        "972a80595bfffc0d6a0944c780e01e01fd3a55a0882d1fb36ade8a61ad978135586da5cecde8022681a55e519d207c6a8cfe33126acf6fa6cf7814fd99d20366",
        "2064d19918e2a25d836f4aad983680b38b6328bca81c990bad1113969bc9590e2aac0063036f726401010a746578742f706c61696e00367b2270223a226272632d3230222c226f70223a226d696e74222c227469636b223a2261616161222c22616d74223a223130303030227d68",
        "c164d19918e2a25d836f4aad983680b38b6328bca81c990bad1113969bc9590e2a"
      ],
      "is_coinbase": false,
      "sequence": 4261412863
    }
  ],
  "vout": [
    {
      "scriptpubkey": "0014ce0b5aa0dac72397a8aa5a85d90a2cfb46f0f630",
      "scriptpubkey_asm": "OP_0 OP_PUSHBYTES_20 ce0b5aa0dac72397a8aa5a85d90a2cfb46f0f630",
      "scriptpubkey_type": "v0_p2wpkh",
      "scriptpubkey_address": "bc1qec944gx6cu3e0292t2zajz3vldr0pa3sh356d9",
      "value": 546
    }
  ],
  "size": 295,
  "weight": 541,
  "fee": 2029,
  "status": {
    "confirmed": true,
    "block_height": 834464,
    "block_hash": "0000000000000000000177a0869a911a2b65c9bdcd5a8bcb02b68f305bee848e",
    "block_time": 1710308296
  },
  "hex": "02000000000101f42cf49d236b2de2cf1dfc5135b28c4e57df8eb857796b8ac204492a51b53bb13c00000000fffffffd012202000000000000160014ce0b5aa0dac72397a8aa5a85d90a2cfb46f0f6300340972a80595bfffc0d6a0944c780e01e01fd3a55a0882d1fb36ade8a61ad978135586da5cecde8022681a55e519d207c6a8cfe33126acf6fa6cf7814fd99d203666e2064d19918e2a25d836f4aad983680b38b6328bca81c990bad1113969bc9590e2aac0063036f726401010a746578742f706c61696e00367b2270223a226272632d3230222c226f70223a226d696e74222c227469636b223a2261616161222c22616d74223a223130303030227d6821c164d19918e2a25d836f4aad983680b38b6328bca81c990bad1113969bc9590e2a00000000"
}