{
  "txid": "0324c42952aef579d366bf3fb72e6c346118714e7f6829985c9ff14f2731fe79",
  "version": 2,
  "locktime": 0,
  "vin": [
    {
      "txid": "8486ecb4df0880316dd6e82b3971b4df187aff23765bc3a47f8d78bb53aa273c",
      "vout": 99,
      "prevout": {
        "scriptpubkey": "5120a357b61cbd35748f4a7e42b26441a06b20df1b8ccfd9244259dab7663249875f",
        "scriptpubkey_asm": "OP_PUSHNUM_1 OP_PUSHBYTES_32 a357b61cbd35748f4a7e42b26441a06b20df1b8ccfd9244259dab7663249875f",
        "scriptpubkey_type": "v1_p2tr",
        "scriptpubkey_address": "bc1p5dtmv89ax46g7jn7g2exgsdqdvsd7xuvelvjgsjem2mkvvjfsa0sme0u2c",
        "value": 2575
      },
      "scriptsig": "",
      "scriptsig_asm": "",
      "witness": [
        "879b774419a902e1deb3f7829afef47fb91602c384d8fad7294796f4dfe555abd685d6ab148264e195b031576b952a5354123a78d0016b64377db415d81408cb",
        "20d1c9fdf9c2470eb5c605dc8e0f0dae1f17b5111ab362cfadabf8f921d25bdd13ac0063036f726401010a746578742f706c61696e00367b2270223a226272632d3230222c226f70223a226d696e74222c227469636b223a2261616161222c22616d74223a223130303030227d68",
        "c0d1c9fdf9c2470eb5c605dc8e0f0dae1f17b5111ab362cfadabf8f921d25bdd13"
      ],
      "is_coinbase": false,
      "sequence": 4261412863
    }
  ],
  "vout": [
    {
      "scriptpubkey": "0014ddd7ef12ea6f78edcc1e8e7afa12c01ab59f3339",
      "scriptpubkey_asm": "OP_0 OP_PUSHBYTES_20 ddd7ef12ea6f78edcc1e8e7afa12c01ab59f3339",
      "scriptpubkey_type": "v0_p2wpkh",
      "scriptpubkey_address": "bc1qmht77yh2dauwmnq73ea05ykqr26e7veea8spz6",
      "value": 546
    }
  ],
  "size": 295,
  "weight": 541,
  "fee": 2029,
  "status": {
    "confirmed": true,
    "block_height": 834460,
    "block_hash": "00000000000000000000484a79b643b2524bbce82e5d8a442013fa5b8905ed98",
    "block_time": 1710307468
  },
  "hex": "020000000001013c27aa53bb788d7fa4c35b7623ff7a18dfb471392be8d66d318008dfb4ec86846300000000fffffffd012202000000000000160014ddd7ef12ea6f78edcc1e8e7afa12c01ab59f33390340879b774419a902e1deb3f7829afef47fb91602c384d8fad7294796f4dfe555abd685d6ab148264e195b031576b952a5354123a78d0016b64377db415d81408cb6e20d1c9fdf9c2470eb5c605dc8e0f0dae1f17b5111ab362cfadabf8f921d25bdd13ac0063036f726401010a746578742f706c61696e00367b2270223a226272632d3230222c226f70223a226d696e74222c227469636b223a2261616161222c22616d74223a223130303030227d6821c0d1c9fdf9c2470eb5c605dc8e0f0dae1f17b5111ab362cfadabf8f921d25bdd1300000000"
}