{
  "txid": "033286c61659610c3606af2b93007e24ede4d64e0b0f5df99ef836b5d75d6426",
  "version": 2,
  "locktime": 0,
  "vin": [
    {
      "txid": "0ad82719c5568c4acd81b83e609db57306639901211bd5a5b68a6fc3de4e1473",
      "vout": 12,
      "prevout": {
        "scriptpubkey": "5120368d70119b531820a595bfc1b22f0e206b8979dddcadbc4c848753f4f31531e3",
        "scriptpubkey_asm": "OP_PUSHNUM_1 OP_PUSHBYTES_32 368d70119b531820a595bfc1b22f0e206b8979dddcadbc4c848753f4f31531e3",
        "scriptpubkey_type": "v1_p2tr",
        "scriptpubkey_address": "bc1px6xhqyvm2vvzpfv4hlqmytcwyp4cj7wamjkmcnyysaflfuc4x83syccdzl",
        "value": 2834
      },
      "scriptsig": "",
      "scriptsig_asm": "",
      "witness": [
        "e977dbd104636a492417f5ff0d1f5a2edc4775c2f0bef707da0d3ac0de6d8996a6668e671720e1cbdaff0b14f13564dcf61d360621cd30ef9bd51be89754bf15",
        "2088125b9b5cacb900c62e3f6c5025f762a4ca8cfcf6831254a7e79c50a007d6f8ac0063036f726401011e6170706c69636174696f6e2f6a736f6e3b636861727365743d7574662d38004cbf7b2270223a22706f772d3230222c226f70223a226d696e74222c227469636b223a2250455045222c22616d74223a2231303030222c22736f6c7574696f6e223a22504550453a6263317173637064736c337671777466366a733538786832307637717775716839336e777737783763793a303030303030303030303030303030303030303139393431613561653132383937363539383134343239323533333030353762306461393666336465613163353a3336343534383837363834227d68",
        "c1962df30d9be27fcd73fd9a4053b3728334e273f9929aba028483b2e810075667"
      ],
      "is_coinbase": false,
      "sequence": 4294967295
    }
  ],
  "vout": [
    {
      "scriptpubkey": "00148602d87e2c03969d4a1439aea7b3c0770172c66e",
      "scriptpubkey_asm": "OP_0 OP_PUSHBYTES_20 8602d87e2c03969d4a1439aea7b3c0770172c66e",
      "scriptpubkey_type": "v0_p2wpkh",
      "scriptpubkey_address": "bc1qscpdsl3vqwtf6js58xh20v7qwuqh93nww7x7cy",
      "value": 546
    }
  ],
  "size": 455,
  "weight": 701,
  "fee": 2288,
  "status": {
    "confirmed": true,
    "block_height": 834460,
    "block_hash": "00000000000000000000484a79b643b2524bbce82e5d8a442013fa5b8905ed98",
    "block_time": 1710307468
  },
  "hex": "0200000000010173144edec36f8ab6a5d51b210199630673b59d603eb881cd4a8c56c51927d80a0c00000000ffffffff0122020000000000001600148602d87e2c03969d4a1439aea7b3c0770172c66e0340e977dbd104636a492417f5ff0d1f5a2edc4775c2f0bef707da0d3ac0de6d8996a6668e671720e1cbdaff0b14f13564dcf61d360621cd30ef9bd51be89754bf15fd0c012088125b9b5cacb900c62e3f6c5025f762a4ca8cfcf6831254a7e79c50a007d6f8ac0063036f726401011e6170706c69636174696f6e2f6a736f6e3b636861727365743d7574662d38004cbf7b2270223a22706f772d3230222c226f70223a226d696e74222c227469636b223a2250455045222c22616d74223a2231303030222c22736f6c7574696f6e223a22504550453a6263317173637064736c337671777466366a733538786832307637717775716839336e777737783763793a303030303030303030303030303030303030303139393431613561653132383937363539383134343239323533333030353762306461393666336465613163353a3336343534383837363834227d6821c1962df30d9be27fcd73fd9a4053b3728334e273f9929aba028483b2e81007566700000000"
}