{
  "txid": "0338fdd3cdab503d68a28e4cd4372abbd93a1ffd413e05b01a6ab98289480c1a",
  "version": 2,
  "locktime": 0,
  "vin": [
    {
      "txid": "33198a5cbe2a53fc30099ab53009144888cef479020e7acbc065183b03c26d7b",
      "vout": 18,
      "prevout": {
        "scriptpubkey": "51202dd6b1552058accf57183c12b4129c79345953119a2dbee20b72463751dddfee",
        "scriptpubkey_asm": "OP_PUSHNUM_1 OP_PUSHBYTES_32 2dd6b1552058accf57183c12b4129c79345953119a2dbee20b72463751dddfee",
        "scriptpubkey_type": "v1_p2tr",
        "scriptpubkey_address": "bc1p9httz4fqtzkv74cc8sftgy5u0y69j5c3ngkmacstwfrrw5wamlhqu336m6",
        "value": 2658
      },
      "scriptsig": "",
      "scriptsig_asm": "",
      "witness": [
        "525045f5aa1775dc96cc3b5ecfde8dba0c6957a11b4da88c6ce3d1d97fce6731349e618d2eed137873781953c2285e634e336c0c811916c7d62ece050eb51599",
        "2071abb3849fd5a3316c9b0e7759b4ac25a482f7f8ef9b1c5f6094ae7328e9d7ffac0063036f726401011e6170706c69636174696f6e2f6a736f6e3b636861727365743d7574662d38004cbf7b2270223a22706f772d3230222c226f70223a226d696e74222c227469636b223a2250455045222c22616d74223a2231303030222c22736f6c7574696f6e223a22504550453a626331717832636c7935673578376b356a6b7376396d61346332753661646c7a78657470616e387071733a303030303030303030303030303030303030303139393431613561653132383937363539383134343239323533333030353762306461393666336465613163353a3235393635303339343536227d68",
        "c0da2c9a1920efdfbecd176e4adbb0ca1150e62509fd8a3a19d8331b0c89a8a97b"
      ],
      "is_coinbase": false,
      "sequence": 4294967295
    }
  ],
  "vout": [
    {
      "scriptpubkey": "001432b1f2511437ad495a0c2efb5c2b9aeb7e236561",
      "scriptpubkey_asm": "OP_0 OP_PUSHBYTES_20 32b1f2511437ad495a0c2efb5c2b9aeb7e236561",
      "scriptpubkey_type": "v0_p2wpkh",
      "scriptpubkey_address": "bc1qx2cly5g5x7k5jksv9ma4c2u6adlzxetpan8pqs",
      "value": 546
    }
  ],
  "size": 455,
  "weight": 701,
  "fee": 2112,
  "status": {
    "confirmed": true,
    "block_height": 834460,
    "block_hash": "00000000000000000000484a79b643b2524bbce82e5d8a442013fa5b8905ed98",
    "block_time": 1710307468
  },
  "hex": "020000000001017b6dc2033b1865c0cb7a0e0279f4ce8848140930b59a0930fc532abe5c8a19331200000000ffffffff01220200000000000016001432b1f2511437ad495a0c2efb5c2b9aeb7e2365610340525045f5aa1775dc96cc3b5ecfde8dba0c6957a11b4da88c6ce3d1d97fce6731349e618d2eed137873781953c2285e634e336c0c811916c7d62ece050eb51599fd0c012071abb3849fd5a3316c9b0e7759b4ac25a482f7f8ef9b1c5f6094ae7328e9d7ffac0063036f726401011e6170706c69636174696f6e2f6a736f6e3b636861727365743d7574662d38004cbf7b2270223a22706f772d3230222c226f70223a226d696e74222c227469636b223a2250455045222c22616d74223a2231303030222c22736f6c7574696f6e223a22504550453a626331717832636c7935673578376b356a6b7376396d61346332753661646c7a78657470616e387071733a303030303030303030303030303030303030303139393431613561653132383937363539383134343239323533333030353762306461393666336465613163353a3235393635303339343536227d6821c0da2c9a1920efdfbecd176e4adbb0ca1150e62509fd8a3a19d8331b0c89a8a97b00000000"
}