{
  "txid": "034b16ba7f92180e0e5d4ba5eeef2cbea5da5b2de715baf5371d686caef66857",
  "version": 1,
  "locktime": 0,
  "vin": [
    {
      "txid": "c855ac5f10c8f6dced13a2e52d08cc3ca0747973e36932569b7b3b54a1056e19",
      "vout": 18,
      "prevout": {
        "scriptpubkey": "0014fa006e43a096f51c49e2538bae0ce4a59de3d52d",
        "scriptpubkey_asm": "OP_0 OP_PUSHBYTES_20 fa006e43a096f51c49e2538bae0ce4a59de3d52d",
        "scriptpubkey_type": "v0_p2wpkh",
        "scriptpubkey_address": "bc1qlgqxusaqjm63cj0z2w96ur8y5kw784fdnsc6z3",
        "value": 4100000
      },
      "scriptsig": "",
      "scriptsig_asm": "",
      "witness": [
        "304402204b9e5205dce611ff37ae5b82e8bcef998bccfbb02cbb3143956ec259381cc11f02201f6c55e1bcab0d9213c77b4dad509c0a8cdb995dbb95271aa52817de4f1a828601",
        "02ed57466a58e1d2bed698214d8fd3df64e37617514340dc7c469795a94edb9e96"
      ],
      "is_coinbase": false,
      "sequence": 4294967293
    },
    {
      "txid": "bcac0947693dcc8039ce3621dcd3cd052af9670a0a2939e118e91c66292b0ce6",
      "vout": 1,
      "prevout": {
        "scriptpubkey": "00144f8a2e1f0f001c74433682735d70ebcc79c3cc91",
        "scriptpubkey_asm": "OP_0 OP_PUSHBYTES_20 4f8a2e1f0f001c74433682735d70ebcc79c3cc91",
        "scriptpubkey_type": "v0_p2wpkh",
        "scriptpubkey_address": "bc1qf79zu8c0qqw8gseksfe46u8te3uu8ny33su3ts",
        "value": 3427307
      },
      "scriptsig": "",
      "scriptsig_asm": "",
      "witness": [
        "304402201b2cf9a11a821962c0a14bcfbf9a82de5452388abdec8065e69b39493a2a946c0220348891b4b8d70692ac09048a107311c336fa571785ffb2603535d7a394f26a0f01",
        "026dfa0db320e3667f35b41db14992681a874f5488b13e93bced93f117ed2ce3d9"
      ],
      "is_coinbase": false,
      "sequence": 4294967293
    },
    {
      "txid": "a60359557ccf21152816c0de840d37add9512ffa8a4320b33aca9c0ab392a531",
      "vout": 26,
      "prevout": {
        "scriptpubkey": "0014f73a3075441479aac827853297a2b926f5a3536c",
        "scriptpubkey_asm": "OP_0 OP_PUSHBYTES_20 f73a3075441479aac827853297a2b926f5a3536c",
        "scriptpubkey_type": "v0_p2wpkh",
        "scriptpubkey_address": "bc1q7uarqa2yz3u64jp8s5ef0g4eym66x5mvaplwzp",
        "value": 2847980
      },
      "scriptsig": "",
      "scriptsig_asm": "",
      "witness": [
        "3045022100e2b9d7dd09d5e48610a7c2f02ebf568f27fb0fde792a318f23f1446c4755a51f022023373cf16c340c366b1d1ed85e4395bd980376184ad09c40ac1bbb3a3094bd1d01",
        "024db68f16c2544d20e63ce5d0255bda572c373f19d8d1d9d3bc5488c1da286bc1"
      ],
      "is_coinbase": false,
      "sequence": 4294967293
    },
    {
      "txid": "8556aba17ae66f16a2f2d7bdbdf4f023a05497207886a93c3fae5594b3d86e28",
      "vout": 1,
      "prevout": {
        "scriptpubkey": "00148b33e5edba257d996cd053abea32b2e2976aa9e3",
        "scriptpubkey_asm": "OP_0 OP_PUSHBYTES_20 8b33e5edba257d996cd053abea32b2e2976aa9e3",
        "scriptpubkey_type": "v0_p2wpkh",
        "scriptpubkey_address": "bc1q3ve7tmd6y47ejmxs2w475v4ju2tk420rnllkh2",
        "value": 2747932
      },
      "scriptsig": "",
      "scriptsig_asm": "",
      "witness": [
        "3045022100a6c31406c9d72abce9d547c2a7a532ec6e2a42bdb019477fa5ba029fab96ace502200fa54003d4ae25421fbbe53572c2d2e05dbe8352913aeb058252a93159a7e63d01",
        "03fd6df68399b5714a8ab6e5ba93ab7cd04aea2a08147632ad5227e5cc4473f1ab"
      ],
      "is_coinbase": false,
      "sequence": 4294967293
    }
  ],
  "vout": [
    {
      "scriptpubkey": "0014c43aa88d528bb56442068ae5df6e3e31b356f73e",
      "scriptpubkey_asm": "OP_0 OP_PUSHBYTES_20 c43aa88d528bb56442068ae5df6e3e31b356f73e",
      "scriptpubkey_type": "v0_p2wpkh",
      "scriptpubkey_address": "bc1qcsa23r2j3w6kgssx3tja7m37xxe4dae7s0nuhu",
      "value": 115364
    },
    {
      "scriptpubkey": "00147377d60d338dc2b06b13eb8ed3d1a3b235eed538",
      "scriptpubkey_asm": "OP_0 OP_PUSHBYTES_20 7377d60d338dc2b06b13eb8ed3d1a3b235eed538",
      "scriptpubkey_type": "v0_p2wpkh",
      "scriptpubkey_address": "bc1qwdmavrfn3hptq6cnaw8d85drkg67a4fcn5wv59",
      "value": 12998755
    }
  ],
  "size": 668,
  "weight": 1376,
  "fee": 9100,
  "status": {
    "confirmed": true,
    "block_height": 834552,
    "block_hash": "00000000000000000001dd0468a70c94f619251d286585cff57aeb4bd9ede330",
    "block_time": 1710355598
  },
  "hex": "01000000000104196e05a1543b7b9b563269e3737974a03ccc082de5a213eddcf6c8105fac55c81200000000fdffffffe60c2b29661ce918e139290a0a67f92a05cdd3dc2136ce3980cc3d694709acbc0100000000fdffffff31a592b30a9cca3ab320438afa2f51d9ad370d84dec016281521cf7c555903a61a00000000fdffffff286ed8b39455ae3f3ca98678209754a023f0f4bdbdd7f2a2166fe67aa1ab56850100000000fdffffff02a4c2010000000000160014c43aa88d528bb56442068ae5df6e3e31b356f73e6358c600000000001600147377d60d338dc2b06b13eb8ed3d1a3b235eed5380247304402204b9e5205dce611ff37ae5b82e8bcef998bccfbb02cbb3143956ec259381cc11f02201f6c55e1bcab0d9213c77b4dad509c0a8cdb995dbb95271aa52817de4f1a8286012102ed57466a58e1d2bed698214d8fd3df64e37617514340dc7c469795a94edb9e960247304402201b2cf9a11a821962c0a14bcfbf9a82de5452388abdec8065e69b39493a2a946c0220348891b4b8d70692ac09048a107311c336fa571785ffb2603535d7a394f26a0f0121026dfa0db320e3667f35b41db14992681a874f5488b13e93bced93f117ed2ce3d902483045022100e2b9d7dd09d5e48610a7c2f02ebf568f27fb0fde792a318f23f1446c4755a51f022023373cf16c340c366b1d1ed85e4395bd980376184ad09c40ac1bbb3a3094bd1d0121024db68f16c2544d20e63ce5d0255bda572c373f19d8d1d9d3bc5488c1da286bc102483045022100a6c31406c9d72abce9d547c2a7a532ec6e2a42bdb019477fa5ba029fab96ace502200fa54003d4ae25421fbbe53572c2d2e05dbe8352913aeb058252a93159a7e63d012103fd6df68399b5714a8ab6e5ba93ab7cd04aea2a08147632ad5227e5cc4473f1ab00000000"
}