{
  "txid": "035f34539f9e91fb89cc28a20e34ac2fecfe32c6b488dca969c872e8a8b83889",
  "version": 1,
  "locktime": 0,
  "vin": [
    {
      "txid": "5d71d9433189261ac534fe0afd417bdc5aee244089e4b70ebb56eb9c664626ff",
      "vout": 146,
      "prevout": {
        "scriptpubkey": "0014a24f9c6f46bba7e7c20d42756450f14c86474eac",
        "scriptpubkey_asm": "OP_0 OP_PUSHBYTES_20 a24f9c6f46bba7e7c20d42756450f14c86474eac",
        "scriptpubkey_type": "v0_p2wpkh",
        "scriptpubkey_address": "bc1q5f8ecm6xhwn70ssdgf6kg583fjrywn4vj8nd0e",
        "value": 198721
      },
      "scriptsig": "",
      "scriptsig_asm": "",
      "witness": [
        "3045022100ba4d349070d354e6ede277782cbd9774d09ad0587a73540ab7a65257f048296702203f79356780dd2880035f31cb9853c4438d73afe0d0ae64d39da89213aaa4d65b01",
        "031d3e7effc9b2b57af3a7da6352cfafa98f1786a572a5e5bb500937837b1565d6"
      ],
      "is_coinbase": false,
      "sequence": 4294967295
    }
  ],
  "vout": [
    {
      "scriptpubkey": "76a914e2a9eefb826f9b78a1ea58168b43e38be0f62c2388ac",
      "scriptpubkey_asm": "OP_DUP OP_HASH160 OP_PUSHBYTES_20 e2a9eefb826f9b78a1ea58168b43e38be0f62c23 OP_EQUALVERIFY OP_CHECKSIG",
      "scriptpubkey_type": "p2pkh",
      "scriptpubkey_address": "1MfVHYSJ3xmTPbGjz8nipeipioy82bjVEV",
      "value": 196635
    }
  ],
  "size": 195,
  "weight": 450,
  "fee": 2086,
  "status": {
    "confirmed": true,
    "block_height": 834552,
    "block_hash": "00000000000000000001dd0468a70c94f619251d286585cff57aeb4bd9ede330",
    "block_time": 1710355598
  },
  "hex": "01000000000101ff2646669ceb56bb0eb7e4894024ee5adc7b41fd0afe34c51a26893143d9715d9200000000ffffffff011b000300000000001976a914e2a9eefb826f9b78a1ea58168b43e38be0f62c2388ac02483045022100ba4d349070d354e6ede277782cbd9774d09ad0587a73540ab7a65257f048296702203f79356780dd2880035f31cb9853c4438d73afe0d0ae64d39da89213aaa4d65b0121031d3e7effc9b2b57af3a7da6352cfafa98f1786a572a5e5bb500937837b1565d600000000"
}