{
  "txid": "036da43312463ef1dff92d7c894a5362e07ff5b3111d1f166ba4cd91f3b142b7",
  "version": 1,
  "locktime": 0,
  "vin": [
    {
      "txid": "29c1da61a7f859bfb198406cdaf333eb2dffb0878217e9a91b0451d225f3b985",
      "vout": 46,
      "prevout": {
        "scriptpubkey": "76a914b93e0466997c5ffa7daec8a39746f34c8756ce7788ac",
        "scriptpubkey_asm": "OP_DUP OP_HASH160 OP_PUSHBYTES_20 b93e0466997c5ffa7daec8a39746f34c8756ce77 OP_EQUALVERIFY OP_CHECKSIG",
        "scriptpubkey_type": "p2pkh",
        "scriptpubkey_address": "1HtUJX5U3kh6dqFNmkzBrqmEFvyoVwLrN7",
        "value": 115216
      },
      "scriptsig": "4830450221009ef1e4141890b2a16a788a0ea04bb0133c02ec507649e65e576d6e372cd123020220765c2cfef1ce59ea5e064797d9dbfdcb00f83371f21af06f5b3b91d23717df2e814104019fab1f0b85b95be4905a712e73415cbddb84a1dbb06653e7f9f68782ece6fc630ee111f10ba7cb0dabfe44b899018df73f541368d375f62fe82968eb404adc",
      "scriptsig_asm": "OP_PUSHBYTES_72 30450221009ef1e4141890b2a16a788a0ea04bb0133c02ec507649e65e576d6e372cd123020220765c2cfef1ce59ea5e064797d9dbfdcb00f83371f21af06f5b3b91d23717df2e81 OP_PUSHBYTES_65 04019fab1f0b85b95be4905a712e73415cbddb84a1dbb06653e7f9f68782ece6fc630ee111f10ba7cb0dabfe44b899018df73f541368d375f62fe82968eb404adc",
      "is_coinbase": false,
      "sequence": 4294967295
    },
    {
      "txid": "29c1da61a7f859bfb198406cdaf333eb2dffb0878217e9a91b0451d225f3b985",
      "vout": 937,
      "prevout": {
        "scriptpubkey": "76a9147208148561e8ce36eb6961fde13c6e507c646b9588ac",
        "scriptpubkey_asm": "OP_DUP OP_HASH160 OP_PUSHBYTES_20 7208148561e8ce36eb6961fde13c6e507c646b95 OP_EQUALVERIFY OP_CHECKSIG",
        "scriptpubkey_type": "p2pkh",
        "scriptpubkey_address": "1BPwiHhyyXMuFQJ4J2aU52anNM4j1GfVjY",
        "value": 106018
      },
      "scriptsig": "483045022100ffc0e60d71e03701a4b8b17e19fae07f490929611bad0a7b1b60f02af141efd202201d1b56818d0edbbaf652478134b62e09510d1c41ec4d97eeec52014f379826bc8141049fd33ff7c01fd6f17e10bd220f7f64abc179ae6386b239d91ab8080e335c83f92b7a0e7d2e7127f3fdaf466b5ddc9fa645f9579385dbfb4bbbe76ad028300adc",
      "scriptsig_asm": "OP_PUSHBYTES_72 3045022100ffc0e60d71e03701a4b8b17e19fae07f490929611bad0a7b1b60f02af141efd202201d1b56818d0edbbaf652478134b62e09510d1c41ec4d97eeec52014f379826bc81 OP_PUSHBYTES_65 049fd33ff7c01fd6f17e10bd220f7f64abc179ae6386b239d91ab8080e335c83f92b7a0e7d2e7127f3fdaf466b5ddc9fa645f9579385dbfb4bbbe76ad028300adc",
      "is_coinbase": false,
      "sequence": 4294967295
    },
    {
      "txid": "2cebf56a421673294603c5e1fbebd269fd74b30a6a3fdd48acbdbbca26b0225c",
      "vout": 525,
      "prevout": {
        "scriptpubkey": "76a914571e43b6fe5098e761e86dfdde5e8e219eceb92988ac",
        "scriptpubkey_asm": "OP_DUP OP_HASH160 OP_PUSHBYTES_20 571e43b6fe5098e761e86dfdde5e8e219eceb929 OP_EQUALVERIFY OP_CHECKSIG",
        "scriptpubkey_type": "p2pkh",
        "scriptpubkey_address": "18we3WFb3CpPBkkzCbBUcCSPKiVHrJYfPy",
        "value": 111225
      },
      "scriptsig": "483045022100839d571b36720b7d10a0155caca8653b7d62a996b620ed29657c4b68eb3b9345022004f9ffd2f917825137d5e98a19b5294bc0c1e5c5f9f33172f953e3a75a763703814104a5e3ae2399d6aa527ec7f5bffc40e3dd5d4b9dc2d4f8c91e001f2d179042e144ca509b45f592e4f7cad65063a7fdfae757e19c2a39dce682e56f3179ad8387e3",
      "scriptsig_asm": "OP_PUSHBYTES_72 3045022100839d571b36720b7d10a0155caca8653b7d62a996b620ed29657c4b68eb3b9345022004f9ffd2f917825137d5e98a19b5294bc0c1e5c5f9f33172f953e3a75a76370381 OP_PUSHBYTES_65 04a5e3ae2399d6aa527ec7f5bffc40e3dd5d4b9dc2d4f8c91e001f2d179042e144ca509b45f592e4f7cad65063a7fdfae757e19c2a39dce682e56f3179ad8387e3",
      "is_coinbase": false,
      "sequence": 4294967295
    },
    {
      "txid": "ced733236cd304eafcdbb10bfce1662d9f9ea6a8c3ca5f1fb9a61a67645c7ce6",
      "vout": 0,
      "prevout": {
        "scriptpubkey": "76a914dfe6561dd4df2de04037168b7a84705d48fcec1988ac",
        "scriptpubkey_asm": "OP_DUP OP_HASH160 OP_PUSHBYTES_20 dfe6561dd4df2de04037168b7a84705d48fcec19 OP_EQUALVERIFY OP_CHECKSIG",
        "scriptpubkey_type": "p2pkh",
        "scriptpubkey_address": "1MQscqDZ5S7uGsPXGBkGQS3GqDjd1rKQvE",
        "value": 11761
      },
      "scriptsig": "483045022100daa4d98a46efb36a668b6ceec2d076ef80ae16fc754aec0ed0ecef536e6d565d02204b130560491ef754730ad87aa15f6f98ed48fa354be84ea796639ca2287ccba18141044591aa390ae7e5329fe8b29ba367c7e4fa65ec7147d727139862ac53ec25981c18a2826a89bc2a6fd19dae27328855cb8ffc37307c8634930e7ed81ce05a94c8",
      "scriptsig_asm": "OP_PUSHBYTES_72 3045022100daa4d98a46efb36a668b6ceec2d076ef80ae16fc754aec0ed0ecef536e6d565d02204b130560491ef754730ad87aa15f6f98ed48fa354be84ea796639ca2287ccba181 OP_PUSHBYTES_65 044591aa390ae7e5329fe8b29ba367c7e4fa65ec7147d727139862ac53ec25981c18a2826a89bc2a6fd19dae27328855cb8ffc37307c8634930e7ed81ce05a94c8",
      "is_coinbase": false,
      "sequence": 4294967295
    },
    {
      "txid": "14de8d61ae9bc01491862372a909ba5ac8ec38941ccc8e2831f5f79a0951f529",
      "vout": 275,
      "prevout": {
        "scriptpubkey": "76a914dd67ab7c4fa493e6e9eac33f3f72827d2109fde988ac",
        "scriptpubkey_asm": "OP_DUP OP_HASH160 OP_PUSHBYTES_20 dd67ab7c4fa493e6e9eac33f3f72827d2109fde9 OP_EQUALVERIFY OP_CHECKSIG",
        "scriptpubkey_type": "p2pkh",
        "scriptpubkey_address": "1MBgXWBJZyPvCrTL56Jf533bHnET9RCd8L",
        "value": 130541
      },
      "scriptsig": "473044022042bb90214771653e6511a64d22136e0b4001f5077724d461f17134c8fb38609b02206a23c74ca8879984e1aa617b918289a630f1a47a1c525534ece0506b89ea3df2814104844ecaf938d1610c746155ff15571e63ad890e3bdb51c2adabd7d5399a8a403877e0f92d5abb8bee5bb753e9fb622dc7449de58b830ea208f0b63ab2a663b072",
      "scriptsig_asm": "OP_PUSHBYTES_71 3044022042bb90214771653e6511a64d22136e0b4001f5077724d461f17134c8fb38609b02206a23c74ca8879984e1aa617b918289a630f1a47a1c525534ece0506b89ea3df281 OP_PUSHBYTES_65 04844ecaf938d1610c746155ff15571e63ad890e3bdb51c2adabd7d5399a8a403877e0f92d5abb8bee5bb753e9fb622dc7449de58b830ea208f0b63ab2a663b072",
      "is_coinbase": false,
      "sequence": 4294967295
    },
    {
      "txid": "2cebf56a421673294603c5e1fbebd269fd74b30a6a3fdd48acbdbbca26b0225c",
      "vout": 409,
      "prevout": {
        "scriptpubkey": "76a914dd67ab7c4fa493e6e9eac33f3f72827d2109fde988ac",
        "scriptpubkey_asm": "OP_DUP OP_HASH160 OP_PUSHBYTES_20 dd67ab7c4fa493e6e9eac33f3f72827d2109fde9 OP_EQUALVERIFY OP_CHECKSIG",
        "scriptpubkey_type": "p2pkh",
        "scriptpubkey_address": "1MBgXWBJZyPvCrTL56Jf533bHnET9RCd8L",
        "value": 108089
      },
      "scriptsig": "483045022100a1d233643d1e39211b681f2cf407c21472beb4303da6f6111bdf2de96191803b022047754e545a4d97ac32b2c7b9c4e23d2a2121ab9a299414ad03d5f6b52a28a33b814104844ecaf938d1610c746155ff15571e63ad890e3bdb51c2adabd7d5399a8a403877e0f92d5abb8bee5bb753e9fb622dc7449de58b830ea208f0b63ab2a663b072",
      "scriptsig_asm": "OP_PUSHBYTES_72 3045022100a1d233643d1e39211b681f2cf407c21472beb4303da6f6111bdf2de96191803b022047754e545a4d97ac32b2c7b9c4e23d2a2121ab9a299414ad03d5f6b52a28a33b81 OP_PUSHBYTES_65 04844ecaf938d1610c746155ff15571e63ad890e3bdb51c2adabd7d5399a8a403877e0f92d5abb8bee5bb753e9fb622dc7449de58b830ea208f0b63ab2a663b072",
      "is_coinbase": false,
      "sequence": 4294967295
    }
  ],
  "vout": [
    {
      "scriptpubkey": "76a914dba129909f56d7c889872cc691a4f8ff5c59f6fe88ac",
      "scriptpubkey_asm": "OP_DUP OP_HASH160 OP_PUSHBYTES_20 dba129909f56d7c889872cc691a4f8ff5c59f6fe OP_EQUALVERIFY OP_CHECKSIG",
      "scriptpubkey_type": "p2pkh",
      "scriptpubkey_address": "1M2J3mZ53hf7GPMPPy8EPzEymdGW8cm9u6",
      "value": 554914
    }
  ],
  "size": 1123,
  "weight": 4492,
  "fee": 27936,
  "status": {
    "confirmed": true,
    "block_height": 834638,
    "block_hash": "000000000000000000025f742c626208ac87e0b7d15054abb4a19ca2d735a54e",
    "block_time": 1710405325
  },
  "hex": "010000000685b9f325d251041ba9e9178287b0ff2deb33f3da6c4098b1bf59f8a761dac1292e0000008b4830450221009ef1e4141890b2a16a788a0ea04bb0133c02ec507649e65e576d6e372cd123020220765c2cfef1ce59ea5e064797d9dbfdcb00f83371f21af06f5b3b91d23717df2e814104019fab1f0b85b95be4905a712e73415cbddb84a1dbb06653e7f9f68782ece6fc630ee111f10ba7cb0dabfe44b899018df73f541368d375f62fe82968eb404adcffffffff85b9f325d251041ba9e9178287b0ff2deb33f3da6c4098b1bf59f8a761dac129a90300008b483045022100ffc0e60d71e03701a4b8b17e19fae07f490929611bad0a7b1b60f02af141efd202201d1b56818d0edbbaf652478134b62e09510d1c41ec4d97eeec52014f379826bc8141049fd33ff7c01fd6f17e10bd220f7f64abc179ae6386b239d91ab8080e335c83f92b7a0e7d2e7127f3fdaf466b5ddc9fa645f9579385dbfb4bbbe76ad028300adcffffffff5c22b026cabbbdac48dd3f6a0ab374fd69d2ebfbe1c50346297316426af5eb2c0d0200008b483045022100839d571b36720b7d10a0155caca8653b7d62a996b620ed29657c4b68eb3b9345022004f9ffd2f917825137d5e98a19b5294bc0c1e5c5f9f33172f953e3a75a763703814104a5e3ae2399d6aa527ec7f5bffc40e3dd5d4b9dc2d4f8c91e001f2d179042e144ca509b45f592e4f7cad65063a7fdfae757e19c2a39dce682e56f3179ad8387e3ffffffffe67c5c64671aa6b91f5fcac3a8a69e9f2d66e1fc0bb1dbfcea04d36c2333d7ce000000008b483045022100daa4d98a46efb36a668b6ceec2d076ef80ae16fc754aec0ed0ecef536e6d565d02204b130560491ef754730ad87aa15f6f98ed48fa354be84ea796639ca2287ccba18141044591aa390ae7e5329fe8b29ba367c7e4fa65ec7147d727139862ac53ec25981c18a2826a89bc2a6fd19dae27328855cb8ffc37307c8634930e7ed81ce05a94c8ffffffff29f551099af7f531288ecc1c9438ecc85aba09a97223869114c09bae618dde14130100008a473044022042bb90214771653e6511a64d22136e0b4001f5077724d461f17134c8fb38609b02206a23c74ca8879984e1aa617b918289a630f1a47a1c525534ece0506b89ea3df2814104844ecaf938d1610c746155ff15571e63ad890e3bdb51c2adabd7d5399a8a403877e0f92d5abb8bee5bb753e9fb622dc7449de58b830ea208f0b63ab2a663b072ffffffff5c22b026cabbbdac48dd3f6a0ab374fd69d2ebfbe1c50346297316426af5eb2c990100008b483045022100a1d233643d1e39211b681f2cf407c21472beb4303da6f6111bdf2de96191803b022047754e545a4d97ac32b2c7b9c4e23d2a2121ab9a299414ad03d5f6b52a28a33b814104844ecaf938d1610c746155ff15571e63ad890e3bdb51c2adabd7d5399a8a403877e0f92d5abb8bee5bb753e9fb622dc7449de58b830ea208f0b63ab2a663b072ffffffff01a2770800000000001976a914dba129909f56d7c889872cc691a4f8ff5c59f6fe88ac00000000"
}