{
  "txid": "037abc468787fff73f8d3c8313e561c86d3949ead8858a50519a915ef54725df",
  "version": 1,
  "locktime": 0,
  "vin": [
    {
      "txid": "9c440175d8b817710857b73df13104f1875f45a08290aa10a049891279a61779",
      "vout": 1,
      "prevout": {
        "scriptpubkey": "76a91494fff03415a61f7242fa23e79d153720b8359ab388ac",
        "scriptpubkey_asm": "OP_DUP OP_HASH160 OP_PUSHBYTES_20 94fff03415a61f7242fa23e79d153720b8359ab3 OP_EQUALVERIFY OP_CHECKSIG",
        "scriptpubkey_type": "p2pkh",
        "scriptpubkey_address": "1EaqcJ8eUzu36nQA6rP75u9Ss2LqNYfLtc",
        "value": 8467
      },
      "scriptsig": "47304402207866b811696d68eb5f7b09d1e1db334be65cee7ee5e810405c5ec6f9f0a2d4cb0220066bf0e9d2b51dae69ef95a6686e9b8ca1cf23d538f05b0d855626cda43100860121035b4d6e6dc95e101670cc0115279b682a865b6bc8e761d18487399bf529bbb428",
      "scriptsig_asm": "OP_PUSHBYTES_71 304402207866b811696d68eb5f7b09d1e1db334be65cee7ee5e810405c5ec6f9f0a2d4cb0220066bf0e9d2b51dae69ef95a6686e9b8ca1cf23d538f05b0d855626cda431008601 OP_PUSHBYTES_33 035b4d6e6dc95e101670cc0115279b682a865b6bc8e761d18487399bf529bbb428",
      "is_coinbase": false,
      "sequence": 4294967295
    },
    {
      "txid": "c6dfe77c2e18cf6e86f2995f7d94a9f6bc2cb0db4fe9544d7d66a5300a30b87a",
      "vout": 77,
      "prevout": {
        "scriptpubkey": "76a91491d7dacb751c2a87095303c82212c1a6073739cf88ac",
        "scriptpubkey_asm": "OP_DUP OP_HASH160 OP_PUSHBYTES_20 91d7dacb751c2a87095303c82212c1a6073739cf OP_EQUALVERIFY OP_CHECKSIG",
        "scriptpubkey_type": "p2pkh",
        "scriptpubkey_address": "1EJ9ZfKGwj8aivJgKz6gL43nj37Xy2C5K1",
        "value": 10300
      },
      "scriptsig": "483045022100ddb31a0e84e14ff687b3f043898187bf32ec2a3cbb856c3a5c6bdc1b9cd1e3e802201ba9abac29e2b7fe496658e2ce9f64af2ef787c5101d9d1dbad22fe405112c840121037c1da63f3813ce72366ce9cc3731ba6d89b71d9837493284afbb9c13d338759e",
      "scriptsig_asm": "OP_PUSHBYTES_72 3045022100ddb31a0e84e14ff687b3f043898187bf32ec2a3cbb856c3a5c6bdc1b9cd1e3e802201ba9abac29e2b7fe496658e2ce9f64af2ef787c5101d9d1dbad22fe405112c8401 OP_PUSHBYTES_33 037c1da63f3813ce72366ce9cc3731ba6d89b71d9837493284afbb9c13d338759e",
      "is_coinbase": false,
      "sequence": 4294967295
    }
  ],
  "vout": [
    {
      "scriptpubkey": "001451273798590ddc78e71bb79a0fb3f4c42f753396",
      "scriptpubkey_asm": "OP_0 OP_PUSHBYTES_20 51273798590ddc78e71bb79a0fb3f4c42f753396",
      "scriptpubkey_type": "v0_p2wpkh",
      "scriptpubkey_address": "bc1q2ynn0xzephw83ecmk7dqlvl5cshh2vukyas9s8",
      "value": 15097
    }
  ],
  "size": 336,
  "weight": 1344,
  "fee": 3670,
  "status": {
    "confirmed": true,
    "block_height": 834464,
    "block_hash": "0000000000000000000177a0869a911a2b65c9bdcd5a8bcb02b68f305bee848e",
    "block_time": 1710308296
  },
  "hex": "01000000027917a679128949a010aa9082a0455f87f10431f13db757087117b8d87501449c010000006a47304402207866b811696d68eb5f7b09d1e1db334be65cee7ee5e810405c5ec6f9f0a2d4cb0220066bf0e9d2b51dae69ef95a6686e9b8ca1cf23d538f05b0d855626cda43100860121035b4d6e6dc95e101670cc0115279b682a865b6bc8e761d18487399bf529bbb428ffffffff7ab8300a30a5667d4d54e94fdbb02cbcf6a9947d5f99f2866ecf182e7ce7dfc64d0000006b483045022100ddb31a0e84e14ff687b3f043898187bf32ec2a3cbb856c3a5c6bdc1b9cd1e3e802201ba9abac29e2b7fe496658e2ce9f64af2ef787c5101d9d1dbad22fe405112c840121037c1da63f3813ce72366ce9cc3731ba6d89b71d9837493284afbb9c13d338759effffffff01f93a00000000000016001451273798590ddc78e71bb79a0fb3f4c42f75339600000000"
}