{
  "txid": "037da7389842040606552c1047bd8f583b426010206cfe52b8f1ba70e4885b7c",
  "version": 1,
  "locktime": 0,
  "vin": [
    {
      "txid": "0ead99e100164891ad4a97c9b8298302a09a17c06e0e59947c2b8e2cb3771f5d",
      "vout": 1,
      "prevout": {
        "scriptpubkey": "0014abce9a0e14c56ff7dbe7fdf5fcf8c3a6a26fc066",
        "scriptpubkey_asm": "OP_0 OP_PUSHBYTES_20 abce9a0e14c56ff7dbe7fdf5fcf8c3a6a26fc066",
        "scriptpubkey_type": "v0_p2wpkh",
        "scriptpubkey_address": "bc1q408f5rs5c4hl0kl8lh6le7xr563xlsrx97u43u",
        "value": 50664
      },
      "scriptsig": "",
      "scriptsig_asm": "",
      "witness": [
        "3044022002782d4cd9e6c6bbddc667ea77541ccf6961452f5d8cb14733bb71b2b1c80fd702205dab6fb66f90c9e121c44e866e05427200c5c908e5c270ae4d97ae205e548d2701",
        "0334dc5ac5bd68641807c9aa3b8cd243d343ba4290c6f91f80a1b9c42a9f974cb2"
      ],
      "is_coinbase": false,
      "sequence": 4294967295
    },
    {
      "txid": "f9e8436c3ad720640faf76dd3245a58fad85e5da3f6fef466f89f8112f899cf7",
      "vout": 105,
      "prevout": {
        "scriptpubkey": "00140a48ae01d3be38afd569e9661acbbd2a4f55ae7c",
        "scriptpubkey_asm": "OP_0 OP_PUSHBYTES_20 0a48ae01d3be38afd569e9661acbbd2a4f55ae7c",
        "scriptpubkey_type": "v0_p2wpkh",
        "scriptpubkey_address": "bc1qpfy2uqwnhcu2l4tfa9np4jaa9f84ttnuv2y3dy",
        "value": 151020
      },
      "scriptsig": "",
      "scriptsig_asm": "",
      "witness": [
        "304402204b13b394afa21a1106854d8d5df570e3361b8c7b89d7a065418e009ec0d139e502204db1827207df9a1f1d014d310f30ff59422b867a92fe655280fab3edcdbbe9b801",
        "032c040a3bb780beb7a4eaeab21606e23683712d2a767fb35222fb2a0790f4781e"
      ],
      "is_coinbase": false,
      "sequence": 4294967295
    }
  ],
  "vout": [
    {
      "scriptpubkey": "76a914ac677f5b68b8c9735ca54353435e0996349f12b788ac",
      "scriptpubkey_asm": "OP_DUP OP_HASH160 OP_PUSHBYTES_20 ac677f5b68b8c9735ca54353435e0996349f12b7 OP_EQUALVERIFY OP_CHECKSIG",
      "scriptpubkey_type": "p2pkh",
      "scriptpubkey_address": "1GibD8LE9MxtWn4jTBjpCEuohkUiGR2cVD",
      "value": 135900
    },
    {
      "scriptpubkey": "0014b266d91f597b875b7410e62c39033786b193a256",
      "scriptpubkey_asm": "OP_0 OP_PUSHBYTES_20 b266d91f597b875b7410e62c39033786b193a256",
      "scriptpubkey_type": "v0_p2wpkh",
      "scriptpubkey_address": "bc1qkfndj86e0wr4kaqsuckrjqehs6ce8gjkudte7v",
      "value": 60310
    }
  ],
  "size": 373,
  "weight": 844,
  "fee": 5474,
  "status": {
    "confirmed": true,
    "block_height": 834638,
    "block_hash": "000000000000000000025f742c626208ac87e0b7d15054abb4a19ca2d735a54e",
    "block_time": 1710405325
  },
  "hex": "010000000001025d1f77b32c8e2b7c94590e6ec0179aa0028329b8c9974aad91481600e199ad0e0100000000fffffffff79c892f11f8896f46ef6f3fdae585ad8fa54532dd76af0f6420d73a6c43e8f96900000000ffffffff02dc120200000000001976a914ac677f5b68b8c9735ca54353435e0996349f12b788ac96eb000000000000160014b266d91f597b875b7410e62c39033786b193a25602473044022002782d4cd9e6c6bbddc667ea77541ccf6961452f5d8cb14733bb71b2b1c80fd702205dab6fb66f90c9e121c44e866e05427200c5c908e5c270ae4d97ae205e548d2701210334dc5ac5bd68641807c9aa3b8cd243d343ba4290c6f91f80a1b9c42a9f974cb20247304402204b13b394afa21a1106854d8d5df570e3361b8c7b89d7a065418e009ec0d139e502204db1827207df9a1f1d014d310f30ff59422b867a92fe655280fab3edcdbbe9b80121032c040a3bb780beb7a4eaeab21606e23683712d2a767fb35222fb2a0790f4781e00000000"
}