{
  "txid": "039735c85575d6eb6eec70c1ad85966e7eef8319d17e6e8e3b1043d62ca59e47",
  "version": 2,
  "locktime": 0,
  "vin": [
    {
      "txid": "6b4b1a62660681254e9b7bcf75f5116eb0d5ed694e0669f1733070d87ac786c2",
      "vout": 0,
      "prevout": {
        "scriptpubkey": "001443a786ffd76ea8ae632191c80dabd6ec77f5ff77",
        "scriptpubkey_asm": "OP_0 OP_PUSHBYTES_20 43a786ffd76ea8ae632191c80dabd6ec77f5ff77",
        "scriptpubkey_type": "v0_p2wpkh",
        "scriptpubkey_address": "bc1qgwncdl7hd652ucepj8yqm27ka3mltlmhwukg7w",
        "value": 114101
      },
      "scriptsig": "",
      "scriptsig_asm": "",
      "witness": [
        "304402207fc3c0b256bf441695f1239faac206f3631209cd37658a604eb59b5c28f73b05022067ce9e1bf762bd60627786dd8f11280908bf77fd1cfb321d71bada5dfc0a4f4f01",
        "0271518c1aa63df9eacbeb596e2739e293ee3fc8952cacb67590571aca8c4e2f61"
      ],
      "is_coinbase": false,
      "sequence": 4294967295
    }
  ],
  "vout": [
    {
      "scriptpubkey": "76a91436658d369521e1a6805a3401097d02458339098488ac",
      "scriptpubkey_asm": "OP_DUP OP_HASH160 OP_PUSHBYTES_20 36658d369521e1a6805a3401097d024583390984 OP_EQUALVERIFY OP_CHECKSIG",
      "scriptpubkey_type": "p2pkh",
      "scriptpubkey_address": "15xd9Hk9tbS4T2muyay8fqNa7mq99wkiTt",
      "value": 112754
    }
  ],
  "size": 194,
  "weight": 449,
  "fee": 1347,
  "status": {
    "confirmed": true,
    "block_height": 834460,
    "block_hash": "00000000000000000000484a79b643b2524bbce82e5d8a442013fa5b8905ed98",
    "block_time": 1710307468
  },
  "hex": "02000000000101c286c77ad8703073f169064e69edd5b06e11f575cf7b9b4e25810666621a4b6b0000000000ffffffff0172b80100000000001976a91436658d369521e1a6805a3401097d02458339098488ac0247304402207fc3c0b256bf441695f1239faac206f3631209cd37658a604eb59b5c28f73b05022067ce9e1bf762bd60627786dd8f11280908bf77fd1cfb321d71bada5dfc0a4f4f01210271518c1aa63df9eacbeb596e2739e293ee3fc8952cacb67590571aca8c4e2f6100000000"
}