{
  "txid": "039dc7156f8d2210a3136e670638ee236f560a84e2ec239db3c6728d5be10ba3",
  "version": 1,
  "locktime": 0,
  "vin": [
    {
      "txid": "b2ff151afdae14015429aa474f0cbe64c79d47dc13e62d71c25a62a58f6fa3bc",
      "vout": 34,
      "prevout": {
        "scriptpubkey": "76a9146f4966e417201efc74321a76b77f4e6b31ab0b8788ac",
        "scriptpubkey_asm": "OP_DUP OP_HASH160 OP_PUSHBYTES_20 6f4966e417201efc74321a76b77f4e6b31ab0b87 OP_EQUALVERIFY OP_CHECKSIG",
        "scriptpubkey_type": "p2pkh",
        "scriptpubkey_address": "1B9RwMB8xM8qgGNDoCbB5MDW9wdgixbwj1",
        "value": 558000
      },
      "scriptsig": "483045022100e6f3295e50788ac1b68c607a856868f261bf3ae69a0004ddf37242103f072a8b022049598496dea78b57659a68623f7121bb286af9ff3e25dda6792407b0b2004c60012102b97f839a385eef8407a0ff606d7fa1b84e90de7722bdd93ce013a3b159875387",
      "scriptsig_asm": "OP_PUSHBYTES_72 3045022100e6f3295e50788ac1b68c607a856868f261bf3ae69a0004ddf37242103f072a8b022049598496dea78b57659a68623f7121bb286af9ff3e25dda6792407b0b2004c6001 OP_PUSHBYTES_33 02b97f839a385eef8407a0ff606d7fa1b84e90de7722bdd93ce013a3b159875387",
      "is_coinbase": false,
      "sequence": 4294967295
    }
  ],
  "vout": [
    {
      "scriptpubkey": "76a914fa2dbb2fbdb4b3eedfa06c4c9832ebf1cb46a49688ac",
      "scriptpubkey_asm": "OP_DUP OP_HASH160 OP_PUSHBYTES_20 fa2dbb2fbdb4b3eedfa06c4c9832ebf1cb46a496 OP_EQUALVERIFY OP_CHECKSIG",
      "scriptpubkey_type": "p2pkh",
      "scriptpubkey_address": "1PopiRBRi3TDeQ366et9mLyTKsmijSsQRK",
      "value": 538647
    },
    {
      "scriptpubkey": "76a91409fb40c4d4d361e447be8cf7b68db0abd926a03188ac",
      "scriptpubkey_asm": "OP_DUP OP_HASH160 OP_PUSHBYTES_20 09fb40c4d4d361e447be8cf7b68db0abd926a031 OP_EQUALVERIFY OP_CHECKSIG",
      "scriptpubkey_type": "p2pkh",
      "scriptpubkey_address": "1un56Hny54aLobHJbUeU36n3cXmy7KtN7",
      "value": 11895
    }
  ],
  "size": 226,
  "weight": 904,
  "fee": 7458,
  "status": {
    "confirmed": true,
    "block_height": 834552,
    "block_hash": "00000000000000000001dd0468a70c94f619251d286585cff57aeb4bd9ede330",
    "block_time": 1710355598
  },
  "hex": "0100000001bca36f8fa5625ac2712de613dc479dc764be0c4f47aa29540114aefd1a15ffb2220000006b483045022100e6f3295e50788ac1b68c607a856868f261bf3ae69a0004ddf37242103f072a8b022049598496dea78b57659a68623f7121bb286af9ff3e25dda6792407b0b2004c60012102b97f839a385eef8407a0ff606d7fa1b84e90de7722bdd93ce013a3b159875387ffffffff0217380800000000001976a914fa2dbb2fbdb4b3eedfa06c4c9832ebf1cb46a49688ac772e0000000000001976a91409fb40c4d4d361e447be8cf7b68db0abd926a03188ac00000000"
}