{
  "txid": "03cfdbef79e859473cc833123a843b8afaaacc0411abdd0ebae6a2e4d073a833",
  "version": 1,
  "locktime": 0,
  "vin": [
    {
      "txid": "aab1f55b957cba724dba8d7f78ebad8dddee4473781e653fe52e95324bc7157c",
      "vout": 0,
      "prevout": {
        "scriptpubkey": "76a9149341816355ad6da1acbccea32ee8f751044b5d7688ac",
        "scriptpubkey_asm": "OP_DUP OP_HASH160 OP_PUSHBYTES_20 9341816355ad6da1acbccea32ee8f751044b5d76 OP_EQUALVERIFY OP_CHECKSIG",
        "scriptpubkey_type": "p2pkh",
        "scriptpubkey_address": "1ERcobYYC7Wbz4ZrXDjWn9VxFZvuqoatYP",
        "value": 633354092
      },
      "scriptsig": "47304402205e35d850fec39d712541ba8dd0a1008ab8f3b1f165705c1560e1ba47bfb92c7e022072596cbe28e056864cd8e854e8bffeb216a0a0b0f9189cdd10498f0575e3f4990121031e3ee2d9675e36214a4f3bcf1496b284fcc044bb028056201f238d83d1a16735",
      "scriptsig_asm": "OP_PUSHBYTES_71 304402205e35d850fec39d712541ba8dd0a1008ab8f3b1f165705c1560e1ba47bfb92c7e022072596cbe28e056864cd8e854e8bffeb216a0a0b0f9189cdd10498f0575e3f49901 OP_PUSHBYTES_33 031e3ee2d9675e36214a4f3bcf1496b284fcc044bb028056201f238d83d1a16735",
      "is_coinbase": false,
      "sequence": 4294967295
    },
    {
      "txid": "fa52f1a235d958c742491b6a0e66e45a0451e129eac325d369ffdf6ab6613ba5",
      "vout": 0,
      "prevout": {
        "scriptpubkey": "76a9149341816355ad6da1acbccea32ee8f751044b5d7688ac",
        "scriptpubkey_asm": "OP_DUP OP_HASH160 OP_PUSHBYTES_20 9341816355ad6da1acbccea32ee8f751044b5d76 OP_EQUALVERIFY OP_CHECKSIG",
        "scriptpubkey_type": "p2pkh",
        "scriptpubkey_address": "1ERcobYYC7Wbz4ZrXDjWn9VxFZvuqoatYP",
        "value": 92605120
      },
      "scriptsig": "473044022023c08ccef2c6f2f55e722776c5336a761c431a4c6214eb68de62c8f55db1a0f80220469a5a011bc53120ff65b6fc04bee6c0fead416d50c7263eec3a292842276c810121031e3ee2d9675e36214a4f3bcf1496b284fcc044bb028056201f238d83d1a16735",
      "scriptsig_asm": "OP_PUSHBYTES_71 3044022023c08ccef2c6f2f55e722776c5336a761c431a4c6214eb68de62c8f55db1a0f80220469a5a011bc53120ff65b6fc04bee6c0fead416d50c7263eec3a292842276c8101 OP_PUSHBYTES_33 031e3ee2d9675e36214a4f3bcf1496b284fcc044bb028056201f238d83d1a16735",
      "is_coinbase": false,
      "sequence": 4294967295
    },
    {
      "txid": "2da9f5f19a3bcc2e3361bbb3a3ab5402da2251e8661156f081449cb5038aeb9e",
      "vout": 3,
      "prevout": {
        "scriptpubkey": "76a9149341816355ad6da1acbccea32ee8f751044b5d7688ac",
        "scriptpubkey_asm": "OP_DUP OP_HASH160 OP_PUSHBYTES_20 9341816355ad6da1acbccea32ee8f751044b5d76 OP_EQUALVERIFY OP_CHECKSIG",
        "scriptpubkey_type": "p2pkh",
        "scriptpubkey_address": "1ERcobYYC7Wbz4ZrXDjWn9VxFZvuqoatYP",
        "value": 83981650
      },
      "scriptsig": "473044022038a4290380b998620425cea01921a91138a6ee731534d2cf9fb43a5a2f6cab6002206b8a69741d3daff2e46c2bf378687fd2573b4181ade6d006c8397ae142761dac0121031e3ee2d9675e36214a4f3bcf1496b284fcc044bb028056201f238d83d1a16735",
      "scriptsig_asm": "OP_PUSHBYTES_71 3044022038a4290380b998620425cea01921a91138a6ee731534d2cf9fb43a5a2f6cab6002206b8a69741d3daff2e46c2bf378687fd2573b4181ade6d006c8397ae142761dac01 OP_PUSHBYTES_33 031e3ee2d9675e36214a4f3bcf1496b284fcc044bb028056201f238d83d1a16735",
      "is_coinbase": false,
      "sequence": 4294967295
    },
    {
      "txid": "1a9871a0d18ab7127880e2519fb8daf7a5dd93a18623a5d22a19f2525769b1a3",
      "vout": 0,
      "prevout": {
        "scriptpubkey": "76a9149341816355ad6da1acbccea32ee8f751044b5d7688ac",
        "scriptpubkey_asm": "OP_DUP OP_HASH160 OP_PUSHBYTES_20 9341816355ad6da1acbccea32ee8f751044b5d76 OP_EQUALVERIFY OP_CHECKSIG",
        "scriptpubkey_type": "p2pkh",
        "scriptpubkey_address": "1ERcobYYC7Wbz4ZrXDjWn9VxFZvuqoatYP",
        "value": 21133801
      },
      "scriptsig": "4730440220577b99864bf8f60b8aae264fd39c0b942fda049f81e92cbc560a4ebde956e84b022072c52e5806ae28f20a28c9f1e2232e6a96267e609065fdd0576107ec4c0ada730121031e3ee2d9675e36214a4f3bcf1496b284fcc044bb028056201f238d83d1a16735",
      "scriptsig_asm": "OP_PUSHBYTES_71 30440220577b99864bf8f60b8aae264fd39c0b942fda049f81e92cbc560a4ebde956e84b022072c52e5806ae28f20a28c9f1e2232e6a96267e609065fdd0576107ec4c0ada7301 OP_PUSHBYTES_33 031e3ee2d9675e36214a4f3bcf1496b284fcc044bb028056201f238d83d1a16735",
      "is_coinbase": false,
      "sequence": 4294967295
    },
    {
      "txid": "582ee644c546ab7609d4f1085d03682617045c0a475266a9483528946ba5a58e",
      "vout": 1,
      "prevout": {
        "scriptpubkey": "76a9149341816355ad6da1acbccea32ee8f751044b5d7688ac",
        "scriptpubkey_asm": "OP_DUP OP_HASH160 OP_PUSHBYTES_20 9341816355ad6da1acbccea32ee8f751044b5d76 OP_EQUALVERIFY OP_CHECKSIG",
        "scriptpubkey_type": "p2pkh",
        "scriptpubkey_address": "1ERcobYYC7Wbz4ZrXDjWn9VxFZvuqoatYP",
        "value": 9531250
      },
      "scriptsig": "483045022100ec76b17e5c7e9c477993083caf35bb44ea73462614a99ede474dec91a864d3dd0220614727d83689daaf3a48e5068496504689f58d97a6a0ab8f5af9ad67368da4320121031e3ee2d9675e36214a4f3bcf1496b284fcc044bb028056201f238d83d1a16735",
      "scriptsig_asm": "OP_PUSHBYTES_72 3045022100ec76b17e5c7e9c477993083caf35bb44ea73462614a99ede474dec91a864d3dd0220614727d83689daaf3a48e5068496504689f58d97a6a0ab8f5af9ad67368da43201 OP_PUSHBYTES_33 031e3ee2d9675e36214a4f3bcf1496b284fcc044bb028056201f238d83d1a16735",
      "is_coinbase": false,
      "sequence": 4294967295
    }
  ],
  "vout": [
    {
      "scriptpubkey": "76a9143f563ce54852218908fc64d75d0f76d8f8f2aa8088ac",
      "scriptpubkey_asm": "OP_DUP OP_HASH160 OP_PUSHBYTES_20 3f563ce54852218908fc64d75d0f76d8f8f2aa80 OP_EQUALVERIFY OP_CHECKSIG",
      "scriptpubkey_type": "p2pkh",
      "scriptpubkey_address": "16mtszsfBqNbQjoSyb3zXiRxNzCoX6k27N",
      "value": 840594867
    }
  ],
  "size": 780,
  "weight": 3120,
  "fee": 11046,
  "status": {
    "confirmed": true,
    "block_height": 834460,
    "block_hash": "00000000000000000000484a79b643b2524bbce82e5d8a442013fa5b8905ed98",
    "block_time": 1710307468
  },
  "hex": "01000000057c15c74b32952ee53f651e787344eedd8dadeb787f8dba4d72ba7c955bf5b1aa000000006a47304402205e35d850fec39d712541ba8dd0a1008ab8f3b1f165705c1560e1ba47bfb92c7e022072596cbe28e056864cd8e854e8bffeb216a0a0b0f9189cdd10498f0575e3f4990121031e3ee2d9675e36214a4f3bcf1496b284fcc044bb028056201f238d83d1a16735ffffffffa53b61b66adfff69d325c3ea29e151045ae4660e6a1b4942c758d935a2f152fa000000006a473044022023c08ccef2c6f2f55e722776c5336a761c431a4c6214eb68de62c8f55db1a0f80220469a5a011bc53120ff65b6fc04bee6c0fead416d50c7263eec3a292842276c810121031e3ee2d9675e36214a4f3bcf1496b284fcc044bb028056201f238d83d1a16735ffffffff9eeb8a03b59c4481f0561166e85122da0254aba3b3bb61332ecc3b9af1f5a92d030000006a473044022038a4290380b998620425cea01921a91138a6ee731534d2cf9fb43a5a2f6cab6002206b8a69741d3daff2e46c2bf378687fd2573b4181ade6d006c8397ae142761dac0121031e3ee2d9675e36214a4f3bcf1496b284fcc044bb028056201f238d83d1a16735ffffffffa3b1695752f2192ad2a52386a193dda5f7dab89f51e2807812b78ad1a071981a000000006a4730440220577b99864bf8f60b8aae264fd39c0b942fda049f81e92cbc560a4ebde956e84b022072c52e5806ae28f20a28c9f1e2232e6a96267e609065fdd0576107ec4c0ada730121031e3ee2d9675e36214a4f3bcf1496b284fcc044bb028056201f238d83d1a16735ffffffff8ea5a56b94283548a96652470a5c04172668035d08f1d40976ab46c544e62e58010000006b483045022100ec76b17e5c7e9c477993083caf35bb44ea73462614a99ede474dec91a864d3dd0220614727d83689daaf3a48e5068496504689f58d97a6a0ab8f5af9ad67368da4320121031e3ee2d9675e36214a4f3bcf1496b284fcc044bb028056201f238d83d1a16735ffffffff01b3751a32000000001976a9143f563ce54852218908fc64d75d0f76d8f8f2aa8088ac00000000"
}