{
  "txid": "03e5c620c6c1ea87ed2e7438471ca92cd701614698c0a94369e21c86902743df",
  "version": 1,
  "locktime": 0,
  "vin": [
    {
      "txid": "1ecae288d5834d8fc9b6ff876407b20bd75d720532e15e79c88ab4c285e18c00",
      "vout": 1147,
      "prevout": {
        "scriptpubkey": "0014d40dd29e06d7bab742643f71c4e2c5e5a3ed4487",
        "scriptpubkey_asm": "OP_0 OP_PUSHBYTES_20 d40dd29e06d7bab742643f71c4e2c5e5a3ed4487",
        "scriptpubkey_type": "v0_p2wpkh",
        "scriptpubkey_address": "bc1q6sxa98sx67atwsny8acufck9uk3763y8ctqeug",
        "value": 105438
      },
      "scriptsig": "",
      "scriptsig_asm": "",
      "witness": [
        "30450221008a38ad970546f65f6f4682795271aa2795db7745e4ebd119053670e0713250d402204a82bd2c27275ab5a2fdcfa9d11002c2381dbc3cde1e68f8cfb32bb7cb73158401",
        "02938f94840a793aea6c1e8df4b8e7dfb025d97129dc983c157524656dde4fd8ff"
      ],
      "is_coinbase": false,
      "sequence": 4294967293
    },
    {
      "txid": "73174830b3a387e11982157939ebcf0bb695eb1cc7c128801fc68377f574de02",
      "vout": 839,
      "prevout": {
        "scriptpubkey": "0014d40dd29e06d7bab742643f71c4e2c5e5a3ed4487",
        "scriptpubkey_asm": "OP_0 OP_PUSHBYTES_20 d40dd29e06d7bab742643f71c4e2c5e5a3ed4487",
        "scriptpubkey_type": "v0_p2wpkh",
        "scriptpubkey_address": "bc1q6sxa98sx67atwsny8acufck9uk3763y8ctqeug",
        "value": 115338
      },
      "scriptsig": "",
      "scriptsig_asm": "",
      "witness": [
        "30440220247de4964b48511172e49202283c9ae525be382cc754268af27423fa263773f2022067d3275a2e4286f660b6b22b68d59dc62f0f4b876e9ed5fb358f54a5dbb1709d01",
        "02938f94840a793aea6c1e8df4b8e7dfb025d97129dc983c157524656dde4fd8ff"
      ],
      "is_coinbase": false,
      "sequence": 4294967293
    },
    {
      "txid": "813988cbadcb0408631283dfdd9d6e58fa77e941a31193a60ec7d98e5205873b",
      "vout": 38,
      "prevout": {
        "scriptpubkey": "0014d40dd29e06d7bab742643f71c4e2c5e5a3ed4487",
        "scriptpubkey_asm": "OP_0 OP_PUSHBYTES_20 d40dd29e06d7bab742643f71c4e2c5e5a3ed4487",
        "scriptpubkey_type": "v0_p2wpkh",
        "scriptpubkey_address": "bc1q6sxa98sx67atwsny8acufck9uk3763y8ctqeug",
        "value": 110146
      },
      "scriptsig": "",
      "scriptsig_asm": "",
      "witness": [
        "304502210095bdfd8dedbd3ba82920ebdf5929ef61cd4a76002a2c0134fa0c7a344ad2f5a002202714eba78ec101774ea4b2674c1b87eadb6fdf19f674c92a08e4d8ba4c0633f301",
        "02938f94840a793aea6c1e8df4b8e7dfb025d97129dc983c157524656dde4fd8ff"
      ],
      "is_coinbase": false,
      "sequence": 4294967293
    },
    {
      "txid": "b7c02c5c7845b354bb96933cb133201a958dde4e6764fa560e56e634f607dcee",
      "vout": 594,
      "prevout": {
        "scriptpubkey": "0014d40dd29e06d7bab742643f71c4e2c5e5a3ed4487",
        "scriptpubkey_asm": "OP_0 OP_PUSHBYTES_20 d40dd29e06d7bab742643f71c4e2c5e5a3ed4487",
        "scriptpubkey_type": "v0_p2wpkh",
        "scriptpubkey_address": "bc1q6sxa98sx67atwsny8acufck9uk3763y8ctqeug",
        "value": 113767
      },
      "scriptsig": "",
      "scriptsig_asm": "",
      "witness": [
        "3045022100bc77d586c9d5e115ebc9b5581d566335965ba164fa6522a35aa747d2795c3e5002204f4b43a21f574e6e374b4ab254f04a84e941c6b31b539d8660b8160d6bdc7b5701",
        "02938f94840a793aea6c1e8df4b8e7dfb025d97129dc983c157524656dde4fd8ff"
      ],
      "is_coinbase": false,
      "sequence": 4294967293
    },
    {
      "txid": "1239909fedac32e0e956223c9c8204e6a33df23d7e2cef126552f6f02bc795e7",
      "vout": 1011,
      "prevout": {
        "scriptpubkey": "0014d40dd29e06d7bab742643f71c4e2c5e5a3ed4487",
        "scriptpubkey_asm": "OP_0 OP_PUSHBYTES_20 d40dd29e06d7bab742643f71c4e2c5e5a3ed4487",
        "scriptpubkey_type": "v0_p2wpkh",
        "scriptpubkey_address": "bc1q6sxa98sx67atwsny8acufck9uk3763y8ctqeug",
        "value": 100718
      },
      "scriptsig": "",
      "scriptsig_asm": "",
      "witness": [
        "304502210082b21ec4b07f01e5ec43b995c81e27058f64fe48f6d66beffbd3caa1e83a304f0220499ed210598a71ca32b72c59a0d18e859ccf8f6fd15ed8073a1b8ceba12692df01",
        "02938f94840a793aea6c1e8df4b8e7dfb025d97129dc983c157524656dde4fd8ff"
      ],
      "is_coinbase": false,
      "sequence": 4294967293
    }
  ],
  "vout": [
    {
      "scriptpubkey": "a914ba7348ee2244ef253bf965c999d4bfcbbf9b823f87",
      "scriptpubkey_asm": "OP_HASH160 OP_PUSHBYTES_20 ba7348ee2244ef253bf965c999d4bfcbbf9b823f OP_EQUAL",
      "scriptpubkey_type": "p2sh",
      "scriptpubkey_address": "3JgsiMjkoAn4bd94Be8Jih9Ei3L9h2ED3S",
      "value": 443429
    },
    {
      "scriptpubkey": "00146ac6469e3949cb6fd16d3c531ef1cf3b3520bd1c",
      "scriptpubkey_asm": "OP_0 OP_PUSHBYTES_20 6ac6469e3949cb6fd16d3c531ef1cf3b3520bd1c",
      "scriptpubkey_type": "v0_p2wpkh",
      "scriptpubkey_address": "bc1qdtryd83ef89kl5td83f3auw08v6jp0gu84d6uf",
      "value": 97833
    }
  ],
  "size": 819,
  "weight": 1653,
  "fee": 4145,
  "status": {
    "confirmed": true,
    "block_height": 834464,
    "block_hash": "0000000000000000000177a0869a911a2b65c9bdcd5a8bcb02b68f305bee848e",
    "block_time": 1710308296
  },
  "hex": "01000000000105008ce185c2b48ac8795ee13205725dd70bb2076487ffb6c98f4d83d588e2ca1e7b04000000fdffffff02de74f57783c61f8028c1c71ceb95b60bcfeb3979158219e187a3b3304817734703000000fdffffff3b8705528ed9c70ea69311a341e977fa586e9ddddf8312630804cbadcb8839812600000000fdffffffeedc07f634e6560e56fa64674ede8d951a2033b13c9396bb54b345785c2cc0b75202000000fdffffffe795c72bf0f6526512ef2c7e3df23da3e604829c3c2256e9e032aced9f903912f303000000fdffffff0225c406000000000017a914ba7348ee2244ef253bf965c999d4bfcbbf9b823f87297e0100000000001600146ac6469e3949cb6fd16d3c531ef1cf3b3520bd1c024830450221008a38ad970546f65f6f4682795271aa2795db7745e4ebd119053670e0713250d402204a82bd2c27275ab5a2fdcfa9d11002c2381dbc3cde1e68f8cfb32bb7cb731584012102938f94840a793aea6c1e8df4b8e7dfb025d97129dc983c157524656dde4fd8ff024730440220247de4964b48511172e49202283c9ae525be382cc754268af27423fa263773f2022067d3275a2e4286f660b6b22b68d59dc62f0f4b876e9ed5fb358f54a5dbb1709d012102938f94840a793aea6c1e8df4b8e7dfb025d97129dc983c157524656dde4fd8ff0248304502210095bdfd8dedbd3ba82920ebdf5929ef61cd4a76002a2c0134fa0c7a344ad2f5a002202714eba78ec101774ea4b2674c1b87eadb6fdf19f674c92a08e4d8ba4c0633f3012102938f94840a793aea6c1e8df4b8e7dfb025d97129dc983c157524656dde4fd8ff02483045022100bc77d586c9d5e115ebc9b5581d566335965ba164fa6522a35aa747d2795c3e5002204f4b43a21f574e6e374b4ab254f04a84e941c6b31b539d8660b8160d6bdc7b57012102938f94840a793aea6c1e8df4b8e7dfb025d97129dc983c157524656dde4fd8ff0248304502210082b21ec4b07f01e5ec43b995c81e27058f64fe48f6d66beffbd3caa1e83a304f0220499ed210598a71ca32b72c59a0d18e859ccf8f6fd15ed8073a1b8ceba12692df012102938f94840a793aea6c1e8df4b8e7dfb025d97129dc983c157524656dde4fd8ff00000000"
}