{
  "txid": "03ebac2aaf222d7332789dbb1423e3869edb30bc3760f6f3669ccfd3cd787677",
  "version": 2,
  "locktime": 0,
  "vin": [
    {
      "txid": "859a9ebcf4ef6438d723b30095bf04052c936c14e944690f3d9a9433a05c8dfa",
      "vout": 3,
      "prevout": {
        "scriptpubkey": "76a9144b7118de7695dee7442cecbf2ac6f3a6852c85dc88ac",
        "scriptpubkey_asm": "OP_DUP OP_HASH160 OP_PUSHBYTES_20 4b7118de7695dee7442cecbf2ac6f3a6852c85dc OP_EQUALVERIFY OP_CHECKSIG",
        "scriptpubkey_type": "p2pkh",
        "scriptpubkey_address": "17suAWrGQ3gDGhGepj9NAbZiajCTYg4vG6",
        "value": 2136929
      },
      "scriptsig": "47304402204a0338b881def8d595fe4d71cdcd1265ca4ff6b93a47c98d32764e30808ffe7602202ae2c9fe8e7620e7d213506414952d932c49bd34bbf982a125b64d8a22a1a47701210306e25fffc0a6594da5e98acd89cc08689072683c9a023e75d7af23313229f6f3",
      "scriptsig_asm": "OP_PUSHBYTES_71 304402204a0338b881def8d595fe4d71cdcd1265ca4ff6b93a47c98d32764e30808ffe7602202ae2c9fe8e7620e7d213506414952d932c49bd34bbf982a125b64d8a22a1a47701 OP_PUSHBYTES_33 0306e25fffc0a6594da5e98acd89cc08689072683c9a023e75d7af23313229f6f3",
      "is_coinbase": false,
      "sequence": 4294967293
    }
  ],
  "vout": [
    {
      "scriptpubkey": "001452256573a936d4a3419843e5502fe08c1f4868e1",
      "scriptpubkey_asm": "OP_0 OP_PUSHBYTES_20 52256573a936d4a3419843e5502fe08c1f4868e1",
      "scriptpubkey_type": "v0_p2wpkh",
      "scriptpubkey_address": "bc1q2gjk2uafxm22xsvcg0j4qtlq3s05s68ptge3dr",
      "value": 52057
    },
    {
      "scriptpubkey": "76a914d287217f70e33f04d36252521e752cc81bf0c9e188ac",
      "scriptpubkey_asm": "OP_DUP OP_HASH160 OP_PUSHBYTES_20 d287217f70e33f04d36252521e752cc81bf0c9e1 OP_EQUALVERIFY OP_CHECKSIG",
      "scriptpubkey_type": "p2pkh",
      "scriptpubkey_address": "1LCAnLkTpAmG1qvULNVNh81VmcReYobGaP",
      "value": 2080412
    }
  ],
  "size": 222,
  "weight": 888,
  "fee": 4460,
  "status": {
    "confirmed": true,
    "block_height": 834638,
    "block_hash": "000000000000000000025f742c626208ac87e0b7d15054abb4a19ca2d735a54e",
    "block_time": 1710405325
  },
  "hex": "0200000001fa8d5ca033949a3d0f6944e9146c932c0504bf9500b323d73864eff4bc9e9a85030000006a47304402204a0338b881def8d595fe4d71cdcd1265ca4ff6b93a47c98d32764e30808ffe7602202ae2c9fe8e7620e7d213506414952d932c49bd34bbf982a125b64d8a22a1a47701210306e25fffc0a6594da5e98acd89cc08689072683c9a023e75d7af23313229f6f3fdffffff0259cb00000000000016001452256573a936d4a3419843e5502fe08c1f4868e19cbe1f00000000001976a914d287217f70e33f04d36252521e752cc81bf0c9e188ac00000000"
}