{
  "txid": "03efa7f2b0902c6c1d23d0cbdf945b71975feda3d65dc0cb0698e6b7e552acf1",
  "version": 2,
  "locktime": 0,
  "vin": [
    {
      "txid": "2c974403783e43b61fe2cabfacd749315e0bdf721fd090af443fdf696e6bc42a",
      "vout": 0,
      "prevout": {
        "scriptpubkey": "a9142927ef03b6bc3d5c2c7eac09d230e8899d504c9b87",
        "scriptpubkey_asm": "OP_HASH160 OP_PUSHBYTES_20 2927ef03b6bc3d5c2c7eac09d230e8899d504c9b OP_EQUAL",
        "scriptpubkey_type": "p2sh",
        "scriptpubkey_address": "35SdU3hxYzeFvU2YXRbv49E14RvFeyBeUp",
        "value": 14053584
      },
      "scriptsig": "1600145b40917c2766e4b5f65c5081ca4a583f5a6d8fbf",
      "scriptsig_asm": "OP_PUSHBYTES_22 00145b40917c2766e4b5f65c5081ca4a583f5a6d8fbf",
      "witness": [
        "3044022029077c4322b5bb61aa02a2bddfce8b56f34810b55e7f5c13a3359c1788007071022014152d2e6f0f7673f26e35b863d9722c76cb732071973e11127b63bd99f6ec8801",
        "03b18154b07a1d9dde7b401b645c5eb4f32b30cceed6ac53879df58a49dd38d53d"
      ],
      "is_coinbase": false,
      "sequence": 4294967295,
      "inner_redeemscript_asm": "OP_0 OP_PUSHBYTES_20 5b40917c2766e4b5f65c5081ca4a583f5a6d8fbf"
    },
    {
      "txid": "a08cca8c23810c20269c3f2174630faab05d1fb914f1f2c89a04d6f00c4908e6",
      "vout": 0,
      "prevout": {
        "scriptpubkey": "a9142927ef03b6bc3d5c2c7eac09d230e8899d504c9b87",
        "scriptpubkey_asm": "OP_HASH160 OP_PUSHBYTES_20 2927ef03b6bc3d5c2c7eac09d230e8899d504c9b OP_EQUAL",
        "scriptpubkey_type": "p2sh",
        "scriptpubkey_address": "35SdU3hxYzeFvU2YXRbv49E14RvFeyBeUp",
        "value": 2229731
      },
      "scriptsig": "1600145b40917c2766e4b5f65c5081ca4a583f5a6d8fbf",
      "scriptsig_asm": "OP_PUSHBYTES_22 00145b40917c2766e4b5f65c5081ca4a583f5a6d8fbf",
      "witness": [
        "30440220590c84484cc67f098337739fe10e6af8fa7ee5ec0db23c5dfa3cc1d8248b7bad02206f23180fd53c410cfa870924b4decca07d0f927977de8b341a1f5062803c6f0301",
        "03b18154b07a1d9dde7b401b645c5eb4f32b30cceed6ac53879df58a49dd38d53d"
      ],
      "is_coinbase": false,
      "sequence": 4294967295,
      "inner_redeemscript_asm": "OP_0 OP_PUSHBYTES_20 5b40917c2766e4b5f65c5081ca4a583f5a6d8fbf"
    },
    {
      "txid": "718042f7a7256a0190252cac675c79a29972f9077a508762831efe917e3d1448",
      "vout": 154,
      "prevout": {
        "scriptpubkey": "a9142927ef03b6bc3d5c2c7eac09d230e8899d504c9b87",
        "scriptpubkey_asm": "OP_HASH160 OP_PUSHBYTES_20 2927ef03b6bc3d5c2c7eac09d230e8899d504c9b OP_EQUAL",
        "scriptpubkey_type": "p2sh",
        "scriptpubkey_address": "35SdU3hxYzeFvU2YXRbv49E14RvFeyBeUp",
        "value": 5197
      },
      "scriptsig": "1600145b40917c2766e4b5f65c5081ca4a583f5a6d8fbf",
      "scriptsig_asm": "OP_PUSHBYTES_22 00145b40917c2766e4b5f65c5081ca4a583f5a6d8fbf",
      "witness": [
        "3045022100c0a2afd8a6f1dc5fb93cddde66696b81c6976a92cf6950c53eba0f78dff1a820022002a7518e6128d17a28f8341033624bb9c146a1b92e2d55a6e8caeaeedaf5b1da01",
        "03b18154b07a1d9dde7b401b645c5eb4f32b30cceed6ac53879df58a49dd38d53d"
      ],
      "is_coinbase": false,
      "sequence": 4294967295,
      "inner_redeemscript_asm": "OP_0 OP_PUSHBYTES_20 5b40917c2766e4b5f65c5081ca4a583f5a6d8fbf"
    }
  ],
  "vout": [
    {
      "scriptpubkey": "a9147251603fc57ee15fb87debe093841dffa7a8690c87",
      "scriptpubkey_asm": "OP_HASH160 OP_PUSHBYTES_20 7251603fc57ee15fb87debe093841dffa7a8690c OP_EQUAL",
      "scriptpubkey_type": "p2sh",
      "scriptpubkey_address": "3C7USWmsGd4pnSiHYysU8RHnWyuRKAi54W",
      "value": 16282953
    }
  ],
  "size": 558,
  "weight": 1260,
  "fee": 5559,
  "status": {
    "confirmed": true,
    "block_height": 834638,
    "block_hash": "000000000000000000025f742c626208ac87e0b7d15054abb4a19ca2d735a54e",
    "block_time": 1710405325
  },
  "hex": "020000000001032ac46b6e69df3f44af90d01f72df0b5e3149d7acbfcae21fb6433e780344972c00000000171600145b40917c2766e4b5f65c5081ca4a583f5a6d8fbfffffffffe608490cf0d6049ac8f2f114b91f5db0aa0f6374213f9c26200c81238cca8ca000000000171600145b40917c2766e4b5f65c5081ca4a583f5a6d8fbfffffffff48143d7e91fe1e836287507a07f97299a2795c67ac2c2590016a25a7f74280719a000000171600145b40917c2766e4b5f65c5081ca4a583f5a6d8fbfffffffff014975f8000000000017a9147251603fc57ee15fb87debe093841dffa7a8690c8702473044022029077c4322b5bb61aa02a2bddfce8b56f34810b55e7f5c13a3359c1788007071022014152d2e6f0f7673f26e35b863d9722c76cb732071973e11127b63bd99f6ec88012103b18154b07a1d9dde7b401b645c5eb4f32b30cceed6ac53879df58a49dd38d53d024730440220590c84484cc67f098337739fe10e6af8fa7ee5ec0db23c5dfa3cc1d8248b7bad02206f23180fd53c410cfa870924b4decca07d0f927977de8b341a1f5062803c6f03012103b18154b07a1d9dde7b401b645c5eb4f32b30cceed6ac53879df58a49dd38d53d02483045022100c0a2afd8a6f1dc5fb93cddde66696b81c6976a92cf6950c53eba0f78dff1a820022002a7518e6128d17a28f8341033624bb9c146a1b92e2d55a6e8caeaeedaf5b1da012103b18154b07a1d9dde7b401b645c5eb4f32b30cceed6ac53879df58a49dd38d53d00000000"
}