{
  "txid": "03f3b3550d100d8fb265d7c553c16b3699aabb5628bf0cfacb2608847304bc6f",
  "version": 2,
  "locktime": 0,
  "vin": [
    {
      "txid": "08112944ccb011d9e8544cdbd8b8b2084935707daba95ecb4d269399892a0d81",
      "vout": 1,
      "prevout": {
        "scriptpubkey": "0014488e8463d2ce142564b58a9dfbffdf2cf442df34",
        "scriptpubkey_asm": "OP_0 OP_PUSHBYTES_20 488e8463d2ce142564b58a9dfbffdf2cf442df34",
        "scriptpubkey_type": "v0_p2wpkh",
        "scriptpubkey_address": "bc1qfz8ggc7jec2z2e9432wlhl7l9n6y9he5w4wlk4",
        "value": 277599
      },
      "scriptsig": "",
      "scriptsig_asm": "",
      "witness": [
        "304502210085ee0a3beaef45d2cc51e99f6a1ca63b229eaffdfb5b36a9200a31de9c93e0ab02200bb59b52c1169b6524c44c1806e36b50974b69e905a838403105d433110b0e0001",
        "037e9ab46525bb62496bb6e8bb333aee320cafe603ce49079a6160c0d2a62af199"
      ],
      "is_coinbase": false,
      "sequence": 4294967295
    }
  ],
  "vout": [
    {
      "scriptpubkey": "00143562358f83aea364526be46845955d023619c230",
      "scriptpubkey_asm": "OP_0 OP_PUSHBYTES_20 3562358f83aea364526be46845955d023619c230",
      "scriptpubkey_type": "v0_p2wpkh",
      "scriptpubkey_address": "bc1qx43rtrur463kg5ntu35yt92aqgmpns3snrcpza",
      "value": 275911
    }
  ],
  "size": 192,
  "weight": 438,
  "fee": 1688,
  "status": {
    "confirmed": true,
    "block_height": 834638,
    "block_hash": "000000000000000000025f742c626208ac87e0b7d15054abb4a19ca2d735a54e",
    "block_time": 1710405325
  },
  "hex": "02000000000101810d2a899993264dcb5ea9ab7d70354908b2b8d8db4c54e8d911b0cc442911080100000000ffffffff01c7350400000000001600143562358f83aea364526be46845955d023619c2300248304502210085ee0a3beaef45d2cc51e99f6a1ca63b229eaffdfb5b36a9200a31de9c93e0ab02200bb59b52c1169b6524c44c1806e36b50974b69e905a838403105d433110b0e000121037e9ab46525bb62496bb6e8bb333aee320cafe603ce49079a6160c0d2a62af19900000000"
}