{
  "txid": "03f5bd0a3da53ea4de7a317e4f05af850daa05345927a1433120acfaf85b2e24",
  "version": 2,
  "locktime": 0,
  "vin": [
    {
      "txid": "3fc973a6f37adc6578ec8b705ecd17c048caba73ce1c0d3b7df169c5cfc2abf9",
      "vout": 0,
      "prevout": {
        "scriptpubkey": "0014bbed270be94c8a1dc1232e0f1291956a104c884a",
        "scriptpubkey_asm": "OP_0 OP_PUSHBYTES_20 bbed270be94c8a1dc1232e0f1291956a104c884a",
        "scriptpubkey_type": "v0_p2wpkh",
        "scriptpubkey_address": "bc1qh0kjwzlffj9pmsfr9c839yv4dggyezz2mejtng",
        "value": 110168
      },
      "scriptsig": "",
      "scriptsig_asm": "",
      "witness": [
        "3045022100c7f67448b5293926730b0532e838e8b4b3c2c93830003edb3610b16ebe707abf0220401c54dc51efbe129a5604340d07a67b5ba75cc23b21f3ab50fa9179d4ef70b201",
        "02c951a6ce4edc3e9394c6e9b34bc4b0ae3c56263543788ecbd8a82e6309c126d7"
      ],
      "is_coinbase": false,
      "sequence": 4294967295
    }
  ],
  "vout": [
    {
      "scriptpubkey": "0014ac5066735ba666c8a0cb0906a9c91bbc5064a3cb",
      "scriptpubkey_asm": "OP_0 OP_PUSHBYTES_20 ac5066735ba666c8a0cb0906a9c91bbc5064a3cb",
      "scriptpubkey_type": "v0_p2wpkh",
      "scriptpubkey_address": "bc1q43gxvu6m5env3gxtpyr2njgmh3gxfg7tdertm2",
      "value": 106289
    }
  ],
  "size": 192,
  "weight": 438,
  "fee": 3879,
  "status": {
    "confirmed": true,
    "block_height": 834638,
    "block_hash": "000000000000000000025f742c626208ac87e0b7d15054abb4a19ca2d735a54e",
    "block_time": 1710405325
  },
  "hex": "02000000000101f9abc2cfc569f17d3b0d1cce73baca48c017cd5e708bec7865dc7af3a673c93f0000000000ffffffff01319f010000000000160014ac5066735ba666c8a0cb0906a9c91bbc5064a3cb02483045022100c7f67448b5293926730b0532e838e8b4b3c2c93830003edb3610b16ebe707abf0220401c54dc51efbe129a5604340d07a67b5ba75cc23b21f3ab50fa9179d4ef70b2012102c951a6ce4edc3e9394c6e9b34bc4b0ae3c56263543788ecbd8a82e6309c126d700000000"
}