{
  "txid": "04032ea20e8b0594766e67a6517a247e059bcd547748fd6cd2b659c59a138f66",
  "version": 1,
  "locktime": 0,
  "vin": [
    {
      "txid": "37e5d97c28591102f7b21d3a8b4595c1e0c16472962ebd8d060a876a9d2289f0",
      "vout": 0,
      "prevout": {
        "scriptpubkey": "001498b1d8fa5254e3f4f4e62e50f9d30ad45b58d46f",
        "scriptpubkey_asm": "OP_0 OP_PUSHBYTES_20 98b1d8fa5254e3f4f4e62e50f9d30ad45b58d46f",
        "scriptpubkey_type": "v0_p2wpkh",
        "scriptpubkey_address": "bc1qnzca37jj2n3lfa8x9eg0n5c263d434r0s3frsj",
        "value": 378045
      },
      "scriptsig": "",
      "scriptsig_asm": "",
      "witness": [
        "30450221008d64fed6ff9bf697bc36e7fbc7680eaed5b41b08a0e19c885f6d3e472635dc1f022073f38620d967394a52db4e3989a9a52a7010e3ef64d903e16c157a70b646d67901",
        "03b2a0c02cc94bce1bfd41d3f31aa5d2e3538cc15371c76192aee9a1377cd18c14"
      ],
      "is_coinbase": false,
      "sequence": 4294967295
    }
  ],
  "vout": [
    {
      "scriptpubkey": "76a9144ce1ac4add69bf822f2c600cacea14275b4888ad88ac",
      "scriptpubkey_asm": "OP_DUP OP_HASH160 OP_PUSHBYTES_20 4ce1ac4add69bf822f2c600cacea14275b4888ad OP_EQUALVERIFY OP_CHECKSIG",
      "scriptpubkey_type": "p2pkh",
      "scriptpubkey_address": "181Whcgh1srtq3QTs3wjD3pXWVh1k8x5J9",
      "value": 203913
    },
    {
      "scriptpubkey": "001498b1d8fa5254e3f4f4e62e50f9d30ad45b58d46f",
      "scriptpubkey_asm": "OP_0 OP_PUSHBYTES_20 98b1d8fa5254e3f4f4e62e50f9d30ad45b58d46f",
      "scriptpubkey_type": "v0_p2wpkh",
      "scriptpubkey_address": "bc1qnzca37jj2n3lfa8x9eg0n5c263d434r0s3frsj",
      "value": 170244
    }
  ],
  "size": 226,
  "weight": 574,
  "fee": 3888,
  "status": {
    "confirmed": true,
    "block_height": 834638,
    "block_hash": "000000000000000000025f742c626208ac87e0b7d15054abb4a19ca2d735a54e",
    "block_time": 1710405325
  },
  "hex": "01000000000101f089229d6a870a068dbd2e967264c1e0c195458b3a1db2f7021159287cd9e5370000000000ffffffff02891c0300000000001976a9144ce1ac4add69bf822f2c600cacea14275b4888ad88ac049902000000000016001498b1d8fa5254e3f4f4e62e50f9d30ad45b58d46f024830450221008d64fed6ff9bf697bc36e7fbc7680eaed5b41b08a0e19c885f6d3e472635dc1f022073f38620d967394a52db4e3989a9a52a7010e3ef64d903e16c157a70b646d679012103b2a0c02cc94bce1bfd41d3f31aa5d2e3538cc15371c76192aee9a1377cd18c1400000000"
}