{
  "txid": "040d9e1eb98d7010039a179d4be21d392549fbd7680dbedbf81c2838d6ffdd0c",
  "version": 1,
  "locktime": 0,
  "vin": [
    {
      "txid": "6cf19be1ec0e6303b163b7e258ae8301c6ff05d2559ecf06009decd865d2c136",
      "vout": 33,
      "prevout": {
        "scriptpubkey": "0014b7772f99d2b04676e065e7018919ee46fe2af03a",
        "scriptpubkey_asm": "OP_0 OP_PUSHBYTES_20 b7772f99d2b04676e065e7018919ee46fe2af03a",
        "scriptpubkey_type": "v0_p2wpkh",
        "scriptpubkey_address": "bc1qkamjlxwjkpr8dcr9uuqcjx0wgmlz4up6t2dpay",
        "value": 646709
      },
      "scriptsig": "",
      "scriptsig_asm": "",
      "witness": [
        "3044022017c9953b1f9934d1ff317266313ff063edeb5e93e0219ee6d03cd4daa40162820220085c58bf5db110f90a16804becb93607301fd12471760fd82b5e83416d2c5e6b01",
        "027bda510b81aa2a73dc9d37d6cbaf2ef950e5893d173a1047b345f8c13a193235"
      ],
      "is_coinbase": false,
      "sequence": 4294967293
    },
    {
      "txid": "1afc3bd7baef0675ac02ef268a24d2e8a1c0231824c1cc2e0494754fe7049bc9",
      "vout": 10,
      "prevout": {
        "scriptpubkey": "0014426f6139263e47917ec2a2e27d67e42295dda11d",
        "scriptpubkey_asm": "OP_0 OP_PUSHBYTES_20 426f6139263e47917ec2a2e27d67e42295dda11d",
        "scriptpubkey_type": "v0_p2wpkh",
        "scriptpubkey_address": "bc1qgfhkzwfx8erezlkz5t386elyy22amgga73pz6c",
        "value": 520279
      },
      "scriptsig": "",
      "scriptsig_asm": "",
      "witness": [
        "30450221008ba440f642a046cda2183ad8bc28872b89d86646570776b6752cea0c6dee4cc0022048d3d67eb72ea38bb9a6fa62965ae016af52848703ada70a0bd71ae8d1baedf301",
        "03a95f9dbdf7fc05e744c7ea24d2025eb94f8f5a21bf2923259ad950e77b7247f5"
      ],
      "is_coinbase": false,
      "sequence": 4294967293
    },
    {
      "txid": "2d6fb8a244ac91988a7fa9bf939e88f6b30ad74535e01df26e34cb58b5df1f02",
      "vout": 22,
      "prevout": {
        "scriptpubkey": "00148e87e61f4e98521fb1523e9605f15c72be8f05eb",
        "scriptpubkey_asm": "OP_0 OP_PUSHBYTES_20 8e87e61f4e98521fb1523e9605f15c72be8f05eb",
        "scriptpubkey_type": "v0_p2wpkh",
        "scriptpubkey_address": "bc1q36r7v86wnpfplv2j86tqtu2uw2lg7p0tue99z7",
        "value": 519201
      },
      "scriptsig": "",
      "scriptsig_asm": "",
      "witness": [
        "3044022005f6deff9d51a94eea140011ecf586e385e328bcb820e685980e84eabd8a408b02207676364df65ea35a2363c0c73634d65f0b7ac4fd169493e57f79ae99fce7591801",
        "022af1f0fa3a25eb0393855343db0dc98e36e1cda5ee67f6244edcc2f84746beaf"
      ],
      "is_coinbase": false,
      "sequence": 4294967293
    },
    {
      "txid": "c1c8fb49e43428d5a3b06fb92c23ac9cad03cbac0bd0af1a1dc089d146badc12",
      "vout": 41,
      "prevout": {
        "scriptpubkey": "00147cba0ed52f1a5620ec4e23e97c27de4de63b128e",
        "scriptpubkey_asm": "OP_0 OP_PUSHBYTES_20 7cba0ed52f1a5620ec4e23e97c27de4de63b128e",
        "scriptpubkey_type": "v0_p2wpkh",
        "scriptpubkey_address": "bc1q0jaqa4f0rftzpmzwy05hcf77fhnrky5whhvd6e",
        "value": 394824
      },
      "scriptsig": "",
      "scriptsig_asm": "",
      "witness": [
        "304402203b00d75dfa5e3af090b27e1c3ff3f898c52e30467e95aad615d3183bfb9ad80b022057d3cd93344497b4bcf448aa42a69b5db8f1ea4a12237ede5c3ab56d99df96a201",
        "0322b0cb268727c9b796fae1671fb95db7046018eabb17541e1e9f8e55b382a59c"
      ],
      "is_coinbase": false,
      "sequence": 4294967293
    }
  ],
  "vout": [
    {
      "scriptpubkey": "001443adff3c05fd04d552f82874c2627dddd5475953",
      "scriptpubkey_asm": "OP_0 OP_PUSHBYTES_20 43adff3c05fd04d552f82874c2627dddd5475953",
      "scriptpubkey_type": "v0_p2wpkh",
      "scriptpubkey_address": "bc1qgwkl70q9l5zd25hc9p6vycnamh25wk2nz6nvjg",
      "value": 2071533
    }
  ],
  "size": 636,
  "weight": 1251,
  "fee": 9480,
  "status": {
    "confirmed": true,
    "block_height": 834638,
    "block_hash": "000000000000000000025f742c626208ac87e0b7d15054abb4a19ca2d735a54e",
    "block_time": 1710405325
  },
  "hex": "0100000000010436c1d265d8ec9d0006cf9e55d205ffc60183ae58e2b763b103630eece19bf16c2100000000fdffffffc99b04e74f7594042eccc1241823c0a1e8d2248a26ef02ac7506efbad73bfc1a0a00000000fdffffff021fdfb558cb346ef21de03545d70ab3f6889e93bfa97f8a9891ac44a2b86f2d1600000000fdffffff12dcba46d189c01d1aafd00baccb03ad9cac232cb96fb0a3d52834e449fbc8c12900000000fdffffff01ed9b1f000000000016001443adff3c05fd04d552f82874c2627dddd547595302473044022017c9953b1f9934d1ff317266313ff063edeb5e93e0219ee6d03cd4daa40162820220085c58bf5db110f90a16804becb93607301fd12471760fd82b5e83416d2c5e6b0121027bda510b81aa2a73dc9d37d6cbaf2ef950e5893d173a1047b345f8c13a193235024830450221008ba440f642a046cda2183ad8bc28872b89d86646570776b6752cea0c6dee4cc0022048d3d67eb72ea38bb9a6fa62965ae016af52848703ada70a0bd71ae8d1baedf3012103a95f9dbdf7fc05e744c7ea24d2025eb94f8f5a21bf2923259ad950e77b7247f502473044022005f6deff9d51a94eea140011ecf586e385e328bcb820e685980e84eabd8a408b02207676364df65ea35a2363c0c73634d65f0b7ac4fd169493e57f79ae99fce759180121022af1f0fa3a25eb0393855343db0dc98e36e1cda5ee67f6244edcc2f84746beaf0247304402203b00d75dfa5e3af090b27e1c3ff3f898c52e30467e95aad615d3183bfb9ad80b022057d3cd93344497b4bcf448aa42a69b5db8f1ea4a12237ede5c3ab56d99df96a201210322b0cb268727c9b796fae1671fb95db7046018eabb17541e1e9f8e55b382a59c00000000"
}