{
  "txid": "0412fb2b5b929b19f4dead7ffb8c786216f9913b2afbfbd17ca67744d81fcae9",
  "version": 2,
  "locktime": 0,
  "vin": [
    {
      "txid": "3584badabac8177b8b9b9c4c88e976afae461dc9d5c896ffd7a1492eb695c995",
      "vout": 3,
      "prevout": {
        "scriptpubkey": "5120242bb24da0763b7d0fb014abc73bb0cf38d7e68996d628a761664bfc64543e6b",
        "scriptpubkey_asm": "OP_PUSHNUM_1 OP_PUSHBYTES_32 242bb24da0763b7d0fb014abc73bb0cf38d7e68996d628a761664bfc64543e6b",
        "scriptpubkey_type": "v1_p2tr",
        "scriptpubkey_address": "bc1pys4myndqwcah6raszj4uwwaseuud0e5fjmtz3fmpve9lcez58e4sw27xfr",
        "value": 479272
      },
      "scriptsig": "",
      "scriptsig_asm": "",
      "witness": [
        "ba8ee3fcf79328d996b8c8ed860094ee8b0668a49e075dc5e0e19c2bc280dc80a3b0c78abbe0621b15929c1cc8e82354e1dd2a1a6de04e34862d70b6f504a078"
      ],
      "is_coinbase": false,
      "sequence": 2147483649
    },
    {
      "txid": "f4516fa6f0096617dfbab47e7b3e9224975aebea5fb99dcc063dac12dd901e33",
      "vout": 1,
      "prevout": {
        "scriptpubkey": "5120242bb24da0763b7d0fb014abc73bb0cf38d7e68996d628a761664bfc64543e6b",
        "scriptpubkey_asm": "OP_PUSHNUM_1 OP_PUSHBYTES_32 242bb24da0763b7d0fb014abc73bb0cf38d7e68996d628a761664bfc64543e6b",
        "scriptpubkey_type": "v1_p2tr",
        "scriptpubkey_address": "bc1pys4myndqwcah6raszj4uwwaseuud0e5fjmtz3fmpve9lcez58e4sw27xfr",
        "value": 16027
      },
      "scriptsig": "",
      "scriptsig_asm": "",
      "witness": [
        "857771d370066f31ed5ccc06786749a3a1bf1e82d7fa994f5f4139eda5d2906b806206e94def01d8508fa78830ec04798a871d376ee2ec0dac11f33de9420a4d"
      ],
      "is_coinbase": false,
      "sequence": 2147483649
    },
    {
      "txid": "4d1817f5d52831f0a4cda8a0eed1a7a8e1b1468ed7dae5df95de3961129009e5",
      "vout": 1,
      "prevout": {
        "scriptpubkey": "5120242bb24da0763b7d0fb014abc73bb0cf38d7e68996d628a761664bfc64543e6b",
        "scriptpubkey_asm": "OP_PUSHNUM_1 OP_PUSHBYTES_32 242bb24da0763b7d0fb014abc73bb0cf38d7e68996d628a761664bfc64543e6b",
        "scriptpubkey_type": "v1_p2tr",
        "scriptpubkey_address": "bc1pys4myndqwcah6raszj4uwwaseuud0e5fjmtz3fmpve9lcez58e4sw27xfr",
        "value": 6167
      },
      "scriptsig": "",
      "scriptsig_asm": "",
      "witness": [
        "56ff8e86b593d0d4019d11349279362b758518427419e35283186a8e2221c403d7a2be3487d9f160f7d81acc8cccdb77ead882a47611304763083830e956c7ec"
      ],
      "is_coinbase": false,
      "sequence": 2147483649
    },
    {
      "txid": "b18ff35162549c2d74f1ad1236376811e8305d55eb2dc73e03beb40c70ff2d54",
      "vout": 1,
      "prevout": {
        "scriptpubkey": "5120242bb24da0763b7d0fb014abc73bb0cf38d7e68996d628a761664bfc64543e6b",
        "scriptpubkey_asm": "OP_PUSHNUM_1 OP_PUSHBYTES_32 242bb24da0763b7d0fb014abc73bb0cf38d7e68996d628a761664bfc64543e6b",
        "scriptpubkey_type": "v1_p2tr",
        "scriptpubkey_address": "bc1pys4myndqwcah6raszj4uwwaseuud0e5fjmtz3fmpve9lcez58e4sw27xfr",
        "value": 1846
      },
      "scriptsig": "",
      "scriptsig_asm": "",
      "witness": [
        "6fc50c8059315c0c2be4ded8eeecda3e2e4b101afeda51fd31b156c70bce46ee60a09dd91e1c59742d17d74c6edaf459d0c69f8b1a76f88b8d6218877c3e435a"
      ],
      "is_coinbase": false,
      "sequence": 2147483649
    },
    {
      "txid": "25ea35b962fdeea3dd595719d534c1e09b35f0ae0c853df1c3687d9b243676df",
      "vout": 0,
      "prevout": {
        "scriptpubkey": "5120242bb24da0763b7d0fb014abc73bb0cf38d7e68996d628a761664bfc64543e6b",
        "scriptpubkey_asm": "OP_PUSHNUM_1 OP_PUSHBYTES_32 242bb24da0763b7d0fb014abc73bb0cf38d7e68996d628a761664bfc64543e6b",
        "scriptpubkey_type": "v1_p2tr",
        "scriptpubkey_address": "bc1pys4myndqwcah6raszj4uwwaseuud0e5fjmtz3fmpve9lcez58e4sw27xfr",
        "value": 1200
      },
      "scriptsig": "",
      "scriptsig_asm": "",
      "witness": [
        "6f4454ba98da21fca42244b9125f36e885972e5ca0a00d414240dd616cfbb6cb8d2b4569e2962df46fba9b32eba3fd63ddcbe8c1c6d22a86b18117042330185a"
      ],
      "is_coinbase": false,
      "sequence": 2147483649
    },
    {
      "txid": "da382eab054e621ac4ba3fa9b2bcb1fd6f72c83549cc751ae0f6a14b268c1eeb",
      "vout": 0,
      "prevout": {
        "scriptpubkey": "5120242bb24da0763b7d0fb014abc73bb0cf38d7e68996d628a761664bfc64543e6b",
        "scriptpubkey_asm": "OP_PUSHNUM_1 OP_PUSHBYTES_32 242bb24da0763b7d0fb014abc73bb0cf38d7e68996d628a761664bfc64543e6b",
        "scriptpubkey_type": "v1_p2tr",
        "scriptpubkey_address": "bc1pys4myndqwcah6raszj4uwwaseuud0e5fjmtz3fmpve9lcez58e4sw27xfr",
        "value": 1200
      },
      "scriptsig": "",
      "scriptsig_asm": "",
      "witness": [
        "0c5236531333c5a4aa889b0f62bfde9df07b5009cd80b2d32f4d0040f6bc748bab7ece477a6fb400129247531b1c8452e82b6e3231e71d885fe5a7074e147d64"
      ],
      "is_coinbase": false,
      "sequence": 2147483649
    },
    {
      "txid": "50cacd801da369f6dfe9e03100225def4e613139df0d9cc58ceb1b7fb7892126",
      "vout": 0,
      "prevout": {
        "scriptpubkey": "5120242bb24da0763b7d0fb014abc73bb0cf38d7e68996d628a761664bfc64543e6b",
        "scriptpubkey_asm": "OP_PUSHNUM_1 OP_PUSHBYTES_32 242bb24da0763b7d0fb014abc73bb0cf38d7e68996d628a761664bfc64543e6b",
        "scriptpubkey_type": "v1_p2tr",
        "scriptpubkey_address": "bc1pys4myndqwcah6raszj4uwwaseuud0e5fjmtz3fmpve9lcez58e4sw27xfr",
        "value": 1200
      },
      "scriptsig": "",
      "scriptsig_asm": "",
      "witness": [
        "642231b4a571836cbd1850120876246954a2686443f729b75ea83d705a8e3d926c1b584ade6567ed01b4de7eb2c42a529f5119843986759c17cc02bf98d3b50b"
      ],
      "is_coinbase": false,
      "sequence": 2147483649
    },
    {
      "txid": "d51a6a758bf484a6961fc047c5a1f4f510bb27464e7e156f56f66aa071dfc12d",
      "vout": 0,
      "prevout": {
        "scriptpubkey": "5120242bb24da0763b7d0fb014abc73bb0cf38d7e68996d628a761664bfc64543e6b",
        "scriptpubkey_asm": "OP_PUSHNUM_1 OP_PUSHBYTES_32 242bb24da0763b7d0fb014abc73bb0cf38d7e68996d628a761664bfc64543e6b",
        "scriptpubkey_type": "v1_p2tr",
        "scriptpubkey_address": "bc1pys4myndqwcah6raszj4uwwaseuud0e5fjmtz3fmpve9lcez58e4sw27xfr",
        "value": 808
      },
      "scriptsig": "",
      "scriptsig_asm": "",
      "witness": [
        "2f4011131789e30aafcbd6670e2c21e63ad91b3d7e2961bdb11a5abcad9afb2bfebd8964da59b9fe08d3e7177293133b0bc901f43a94fb2ffe37d7c0a4237174"
      ],
      "is_coinbase": false,
      "sequence": 2147483649
    },
    {
      "txid": "7558ef1624864f70e5afd1a0b62e319400fce510ecb8191cd239c8b434bf4988",
      "vout": 63,
      "prevout": {
        "scriptpubkey": "5120242bb24da0763b7d0fb014abc73bb0cf38d7e68996d628a761664bfc64543e6b",
        "scriptpubkey_asm": "OP_PUSHNUM_1 OP_PUSHBYTES_32 242bb24da0763b7d0fb014abc73bb0cf38d7e68996d628a761664bfc64543e6b",
        "scriptpubkey_type": "v1_p2tr",
        "scriptpubkey_address": "bc1pys4myndqwcah6raszj4uwwaseuud0e5fjmtz3fmpve9lcez58e4sw27xfr",
        "value": 776
      },
      "scriptsig": "",
      "scriptsig_asm": "",
      "witness": [
        "1b137fe40a63b878d24864946e848ac464adb423f04f3a658d883af34005d0018a148489e0ac30ded68cf1caa50ed4a4ee679a0e89d4b59ef3e39e3aac4b3df3"
      ],
      "is_coinbase": false,
      "sequence": 2147483649
    }
  ],
  "vout": [
    {
      "scriptpubkey": "00202953cb5c13ba4da11302ff7e8b3cef0ba623d268d55db73c5855069193eaa292",
      "scriptpubkey_asm": "OP_0 OP_PUSHBYTES_32 2953cb5c13ba4da11302ff7e8b3cef0ba623d268d55db73c5855069193eaa292",
      "scriptpubkey_type": "v0_p2wsh",
      "scriptpubkey_address": "bc1q99fukhqnhfx6zyczlalgk080pwnz85ng64wmw0zc25rfryl252fqyp2mcu",
      "value": 500000
    }
  ],
  "size": 1018,
  "weight": 2284,
  "fee": 8496,
  "status": {
    "confirmed": true,
    "block_height": 834638,
    "block_hash": "000000000000000000025f742c626208ac87e0b7d15054abb4a19ca2d735a54e",
    "block_time": 1710405325
  },
  "hex": "0200000000010995c995b62e49a1d7ff96c8d5c91d46aeaf76e9884c9c9b8b7b17c8badaba8435030000000001000080331e90dd12ac3d06cc9db95feaeb5a9724923e7b7eb4badf176609f0a66f51f4010000000001000080e50990126139de95dfe5dad78e46b1e1a8a7d1eea0a8cda4f03128d5f517184d010000000001000080542dff700cb4be033ec72deb555d30e81168373612adf1742d9c546251f38fb1010000000001000080df7636249b7d68c3f13d850caef0359be0c134d5195759dda3eefd62b935ea25000000000001000080eb1e8c264ba1f6e01a75cc4935c8726ffdb1bcb2a93fbac41a624e05ab2e38da000000000001000080262189b77f1beb8cc59c0ddf3931614eef5d220031e0e9dff669a31d80cdca500000000000010000802dc1df71a06af6566f157e4e4627bb10f5f4a1c547c01f96a684f48b756a1ad50000000000010000808849bf34b4c839d21c19b8ec10e5fc0094312eb6a0d1afe5704f862416ef58753f00000000010000800120a10700000000002200202953cb5c13ba4da11302ff7e8b3cef0ba623d268d55db73c5855069193eaa2920140ba8ee3fcf79328d996b8c8ed860094ee8b0668a49e075dc5e0e19c2bc280dc80a3b0c78abbe0621b15929c1cc8e82354e1dd2a1a6de04e34862d70b6f504a0780140857771d370066f31ed5ccc06786749a3a1bf1e82d7fa994f5f4139eda5d2906b806206e94def01d8508fa78830ec04798a871d376ee2ec0dac11f33de9420a4d014056ff8e86b593d0d4019d11349279362b758518427419e35283186a8e2221c403d7a2be3487d9f160f7d81acc8cccdb77ead882a47611304763083830e956c7ec01406fc50c8059315c0c2be4ded8eeecda3e2e4b101afeda51fd31b156c70bce46ee60a09dd91e1c59742d17d74c6edaf459d0c69f8b1a76f88b8d6218877c3e435a01406f4454ba98da21fca42244b9125f36e885972e5ca0a00d414240dd616cfbb6cb8d2b4569e2962df46fba9b32eba3fd63ddcbe8c1c6d22a86b18117042330185a01400c5236531333c5a4aa889b0f62bfde9df07b5009cd80b2d32f4d0040f6bc748bab7ece477a6fb400129247531b1c8452e82b6e3231e71d885fe5a7074e147d640140642231b4a571836cbd1850120876246954a2686443f729b75ea83d705a8e3d926c1b584ade6567ed01b4de7eb2c42a529f5119843986759c17cc02bf98d3b50b01402f4011131789e30aafcbd6670e2c21e63ad91b3d7e2961bdb11a5abcad9afb2bfebd8964da59b9fe08d3e7177293133b0bc901f43a94fb2ffe37d7c0a423717401401b137fe40a63b878d24864946e848ac464adb423f04f3a658d883af34005d0018a148489e0ac30ded68cf1caa50ed4a4ee679a0e89d4b59ef3e39e3aac4b3df300000000"
}