{
  "txid": "041793f35ee68f0f4e3c381bed41631b9941cf6d1cc01edd5b3e211d0a3104b8",
  "version": 2,
  "locktime": 0,
  "vin": [
    {
      "txid": "33198a5cbe2a53fc30099ab53009144888cef479020e7acbc065183b03c26d7b",
      "vout": 3,
      "prevout": {
        "scriptpubkey": "512042e570bbbf55b474d1ac6bacac3457aa20f1d16beabafcdc256493ed68bb50e7",
        "scriptpubkey_asm": "OP_PUSHNUM_1 OP_PUSHBYTES_32 42e570bbbf55b474d1ac6bacac3457aa20f1d16beabafcdc256493ed68bb50e7",
        "scriptpubkey_type": "v1_p2tr",
        "scriptpubkey_address": "bc1pgtjhpwal2k68f5dvdwk2cdzh4gs0r5tta2a0ehp9vjf7669m2rnsr36l0g",
        "value": 2658
      },
      "scriptsig": "",
      "scriptsig_asm": "",
      "witness": [
        "95a9cdc09922a634228892164e702424f3a9a6defbeb7814930af98634dc7ccc6f1636005bf78916869950a3790226d50a168d9395c8cc728a1c789aefc40a38",
        "205407ac937f2fa9b54e471afaf5520052be4816325c3a9f011fc67b5950543d8bac0063036f726401011e6170706c69636174696f6e2f6a736f6e3b636861727365743d7574662d38004cbf7b2270223a22706f772d3230222c226f70223a226d696e74222c227469636b223a2250455045222c22616d74223a2231303030222c22736f6c7574696f6e223a22504550453a626331717832636c7935673578376b356a6b7376396d61346332753661646c7a78657470616e387071733a303030303030303030303030303030303030303139393431613561653132383937363539383134343239323533333030353762306461393666336465613163353a3630353832303430343530227d68",
        "c0da2c9a1920efdfbecd176e4adbb0ca1150e62509fd8a3a19d8331b0c89a8a97b"
      ],
      "is_coinbase": false,
      "sequence": 4294967295
    }
  ],
  "vout": [
    {
      "scriptpubkey": "001432b1f2511437ad495a0c2efb5c2b9aeb7e236561",
      "scriptpubkey_asm": "OP_0 OP_PUSHBYTES_20 32b1f2511437ad495a0c2efb5c2b9aeb7e236561",
      "scriptpubkey_type": "v0_p2wpkh",
      "scriptpubkey_address": "bc1qx2cly5g5x7k5jksv9ma4c2u6adlzxetpan8pqs",
      "value": 546
    }
  ],
  "size": 455,
  "weight": 701,
  "fee": 2112,
  "status": {
    "confirmed": true,
    "block_height": 834460,
    "block_hash": "00000000000000000000484a79b643b2524bbce82e5d8a442013fa5b8905ed98",
    "block_time": 1710307468
  },
  "hex": "020000000001017b6dc2033b1865c0cb7a0e0279f4ce8848140930b59a0930fc532abe5c8a19330300000000ffffffff01220200000000000016001432b1f2511437ad495a0c2efb5c2b9aeb7e236561034095a9cdc09922a634228892164e702424f3a9a6defbeb7814930af98634dc7ccc6f1636005bf78916869950a3790226d50a168d9395c8cc728a1c789aefc40a38fd0c01205407ac937f2fa9b54e471afaf5520052be4816325c3a9f011fc67b5950543d8bac0063036f726401011e6170706c69636174696f6e2f6a736f6e3b636861727365743d7574662d38004cbf7b2270223a22706f772d3230222c226f70223a226d696e74222c227469636b223a2250455045222c22616d74223a2231303030222c22736f6c7574696f6e223a22504550453a626331717832636c7935673578376b356a6b7376396d61346332753661646c7a78657470616e387071733a303030303030303030303030303030303030303139393431613561653132383937363539383134343239323533333030353762306461393666336465613163353a3630353832303430343530227d6821c0da2c9a1920efdfbecd176e4adbb0ca1150e62509fd8a3a19d8331b0c89a8a97b00000000"
}