{
  "txid": "04384282bf87cceb386f12474b379b33212afa40cbf202e760440dac6d652dd3",
  "version": 2,
  "locktime": 834458,
  "vin": [
    {
      "txid": "c103ae61efdd6b391111e4951a326f5088caac269be1e1f8af9d2a772c19a2f6",
      "vout": 1,
      "prevout": {
        "scriptpubkey": "a91418eb3ee5d422a76e8f868946a89c08190cb0dd0a87",
        "scriptpubkey_asm": "OP_HASH160 OP_PUSHBYTES_20 18eb3ee5d422a76e8f868946a89c08190cb0dd0a OP_EQUAL",
        "scriptpubkey_type": "p2sh",
        "scriptpubkey_address": "33xmxJeYeX1A2NvfJS5KAAmGDCat8B82J5",
        "value": 693463
      },
      "scriptsig": "1600145c37bfd618c1d9cd9e59367964cfc97ee5d8d8c8",
      "scriptsig_asm": "OP_PUSHBYTES_22 00145c37bfd618c1d9cd9e59367964cfc97ee5d8d8c8",
      "witness": [
        "3044022024f9cc1bf492c5e0c633a221e201e0bb7e519add24abf9723ff6930886da5aea0220066e119c327fbe425d3f9f017c7f808d2ab871a44e7fe8e3c4a82dea6bdddbf801",
        "039619d10adeedf7ee25ad575f7a9776fb91ef348b58be29f384727fd3a5f4ca52"
      ],
      "is_coinbase": false,
      "sequence": 4294967293,
      "inner_redeemscript_asm": "OP_0 OP_PUSHBYTES_20 5c37bfd618c1d9cd9e59367964cfc97ee5d8d8c8"
    },
    {
      "txid": "c103ae61efdd6b391111e4951a326f5088caac269be1e1f8af9d2a772c19a2f6",
      "vout": 4,
      "prevout": {
        "scriptpubkey": "a914b2e18ce1d7d0855e2cdb2068d478445ccab8352e87",
        "scriptpubkey_asm": "OP_HASH160 OP_PUSHBYTES_20 b2e18ce1d7d0855e2cdb2068d478445ccab8352e OP_EQUAL",
        "scriptpubkey_type": "p2sh",
        "scriptpubkey_address": "3HzrQCb8dQVw5CdZ1UAM2P84nd751fpRjQ",
        "value": 444092
      },
      "scriptsig": "1600141c48b4838770d9034d48101b2772c65ec297bf4e",
      "scriptsig_asm": "OP_PUSHBYTES_22 00141c48b4838770d9034d48101b2772c65ec297bf4e",
      "witness": [
        "304402205ae34bd53ac809f2ecc19d5c9e8733de4d91aa1c822da3fa2524e68a00a6425d022055304f87f3209d149718c8251d950f4ae0364407118e905ad74a1f16dbfafd3b01",
        "02c589742a035beb9446b6ac9e5f1b2675180fb9eb964708d8aba1062e9261966a"
      ],
      "is_coinbase": false,
      "sequence": 4294967293,
      "inner_redeemscript_asm": "OP_0 OP_PUSHBYTES_20 1c48b4838770d9034d48101b2772c65ec297bf4e"
    },
    {
      "txid": "c103ae61efdd6b391111e4951a326f5088caac269be1e1f8af9d2a772c19a2f6",
      "vout": 7,
      "prevout": {
        "scriptpubkey": "a9146130a2d8011d1cdf0a87e4fc262e6a0d87b064cc87",
        "scriptpubkey_asm": "OP_HASH160 OP_PUSHBYTES_20 6130a2d8011d1cdf0a87e4fc262e6a0d87b064cc OP_EQUAL",
        "scriptpubkey_type": "p2sh",
        "scriptpubkey_address": "3AYujSuBgVcjs7tMP4aaV6vQzQS7vqNcBx",
        "value": 1340008
      },
      "scriptsig": "160014152c0c64709eab5f43ab98525c0843c2bdf5886a",
      "scriptsig_asm": "OP_PUSHBYTES_22 0014152c0c64709eab5f43ab98525c0843c2bdf5886a",
      "witness": [
        "3044022054e5ed6f543cc31b161dc29aeb18d4ce0294c6fb38c07190da9c6cb9fcf8d5f10220476706cf594ac4c3fbdc79784969789dc61a0312b2dc32470f35c5921e1597e701",
        "0223639fd843bb8c905a4112ad924f21d9f21a2aaa14e33a1e8acaf42ad6b49b09"
      ],
      "is_coinbase": false,
      "sequence": 4294967293,
      "inner_redeemscript_asm": "OP_0 OP_PUSHBYTES_20 152c0c64709eab5f43ab98525c0843c2bdf5886a"
    },
    {
      "txid": "c103ae61efdd6b391111e4951a326f5088caac269be1e1f8af9d2a772c19a2f6",
      "vout": 8,
      "prevout": {
        "scriptpubkey": "a91418030620c004e7250fdeb9c9e41f95e4f217598287",
        "scriptpubkey_asm": "OP_HASH160 OP_PUSHBYTES_20 18030620c004e7250fdeb9c9e41f95e4f2175982 OP_EQUAL",
        "scriptpubkey_type": "p2sh",
        "scriptpubkey_address": "33symFiUhFwaTQoJJRqfSVbe2AbUSELNyf",
        "value": 1354940
      },
      "scriptsig": "1600141ce196f41fae8f61dbbede3c46fcc5a66db266c6",
      "scriptsig_asm": "OP_PUSHBYTES_22 00141ce196f41fae8f61dbbede3c46fcc5a66db266c6",
      "witness": [
        "304402203a1ab62b542f4604b40d09ca013a33e4a0975344af3ff4bd15bf521ab545680c02204686507d9d1ef550ed6f0e6ee8c468a71f12770effc20150958aa67bc9b94ae701",
        "03ee0d71d0adf32a34496950ccd7ceea573671d157bba8a2fa3496de60ec6328b0"
      ],
      "is_coinbase": false,
      "sequence": 4294967293,
      "inner_redeemscript_asm": "OP_0 OP_PUSHBYTES_20 1ce196f41fae8f61dbbede3c46fcc5a66db266c6"
    },
    {
      "txid": "c7301f009549f84c83a1851dc385893429242e56ef8095b217534a4377ded1d9",
      "vout": 1,
      "prevout": {
        "scriptpubkey": "a914e7885aa1ef990647a5b21bc7f31819d83fb2091587",
        "scriptpubkey_asm": "OP_HASH160 OP_PUSHBYTES_20 e7885aa1ef990647a5b21bc7f31819d83fb20915 OP_EQUAL",
        "scriptpubkey_type": "p2sh",
        "scriptpubkey_address": "3NoFMuCw8TesqaWZ6bqkJmgTnc1e2EeUWR",
        "value": 72183
      },
      "scriptsig": "16001411626ce5f8e47ccef839991db921cd62a71c67e4",
      "scriptsig_asm": "OP_PUSHBYTES_22 001411626ce5f8e47ccef839991db921cd62a71c67e4",
      "witness": [
        "304402205fdb15c187798a7cb09854c38731545aff51c044d372be6d32764f280124d8af02200a372beeeabfb47b4d315df50e0e189620e3a2fa9002757dcf522c8a07d78eab01",
        "03c7dbe434e742f02df6e2bb2eb1519441f32486d279b911ed61f8947682aeac1f"
      ],
      "is_coinbase": false,
      "sequence": 4294967293,
      "inner_redeemscript_asm": "OP_0 OP_PUSHBYTES_20 11626ce5f8e47ccef839991db921cd62a71c67e4"
    },
    {
      "txid": "c7301f009549f84c83a1851dc385893429242e56ef8095b217534a4377ded1d9",
      "vout": 7,
      "prevout": {
        "scriptpubkey": "a914569ddf585e8bcc554cae0ab80ed76d1a5bca0d5787",
        "scriptpubkey_asm": "OP_HASH160 OP_PUSHBYTES_20 569ddf585e8bcc554cae0ab80ed76d1a5bca0d57 OP_EQUAL",
        "scriptpubkey_type": "p2sh",
        "scriptpubkey_address": "39b1ADBECqh1FohkdPypoXpYQqN8ac6pYV",
        "value": 146995
      },
      "scriptsig": "1600140a260d787428888125dcf7c8cc81bdc80caf8231",
      "scriptsig_asm": "OP_PUSHBYTES_22 00140a260d787428888125dcf7c8cc81bdc80caf8231",
      "witness": [
        "304402202f59088f86ae501f29361e57b621662892c5c24ae8d0519c13033926a5eaf4cd02205bd17429c1c7ea0721321a9512826114a1bd16737fdddef93b1d122ff4bb1afe01",
        "022c6679f300c8b18b42d04bc4e137550268f51ed2f363fe4ea39402cdb9b10455"
      ],
      "is_coinbase": false,
      "sequence": 4294967293,
      "inner_redeemscript_asm": "OP_0 OP_PUSHBYTES_20 0a260d787428888125dcf7c8cc81bdc80caf8231"
    },
    {
      "txid": "c7301f009549f84c83a1851dc385893429242e56ef8095b217534a4377ded1d9",
      "vout": 8,
      "prevout": {
        "scriptpubkey": "a9145aea70e89749325efc3d3aa0afc2614520dcecdc87",
        "scriptpubkey_asm": "OP_HASH160 OP_PUSHBYTES_20 5aea70e89749325efc3d3aa0afc2614520dcecdc OP_EQUAL",
        "scriptpubkey_type": "p2sh",
        "scriptpubkey_address": "39yjb4KsNT7X5ZLUpJrAxqq8pZaCLmzTcn",
        "value": 146995
      },
      "scriptsig": "160014cfcfcd24425ff45377d633853ad35277a019461a",
      "scriptsig_asm": "OP_PUSHBYTES_22 0014cfcfcd24425ff45377d633853ad35277a019461a",
      "witness": [
        "304402205a9e5f006fddd780472db7e946b5d72e998d8f8e3c0ac9c92e273bbcbd348f4a02201c1dad69eb2c1d4113762e6bce3f239acc7d9fcbbff84d168d77b9d3507b5b8a01",
        "02cdcc05f6b288ff52f9c38ca718503e9e14d9bc2e956fadba008a52f7c6f9e410"
      ],
      "is_coinbase": false,
      "sequence": 4294967293,
      "inner_redeemscript_asm": "OP_0 OP_PUSHBYTES_20 cfcfcd24425ff45377d633853ad35277a019461a"
    },
    {
      "txid": "c7301f009549f84c83a1851dc385893429242e56ef8095b217534a4377ded1d9",
      "vout": 12,
      "prevout": {
        "scriptpubkey": "a9145e00181accb215a2d63197574f849b7bcb9a968187",
        "scriptpubkey_asm": "OP_HASH160 OP_PUSHBYTES_20 5e00181accb215a2d63197574f849b7bcb9a9681 OP_EQUAL",
        "scriptpubkey_type": "p2sh",
        "scriptpubkey_address": "3AG3Z7oWWAVbMvx3b86nDSmnnoct1UwcUp",
        "value": 296618
      },
      "scriptsig": "160014939b875985e246e179d6e70b7d0a7e00bcde9b19",
      "scriptsig_asm": "OP_PUSHBYTES_22 0014939b875985e246e179d6e70b7d0a7e00bcde9b19",
      "witness": [
        "304402206a9e140aa72a8277cfd5504dc4b91d509e208bd820098f206973091e6cf8da96022012d4b1902e2de1c3bf57bca8735b5e389b9e5e0105f14ab877c80caca627f2ea01",
        "03fbad85c56e3d3179e13fcc3f1abc4b1e9ca5d35075e5cf66ed9f5c9d8be2840a"
      ],
      "is_coinbase": false,
      "sequence": 4294967293,
      "inner_redeemscript_asm": "OP_0 OP_PUSHBYTES_20 939b875985e246e179d6e70b7d0a7e00bcde9b19"
    },
    {
      "txid": "c7301f009549f84c83a1851dc385893429242e56ef8095b217534a4377ded1d9",
      "vout": 13,
      "prevout": {
        "scriptpubkey": "a914b0df29f838a34826e651fc4cab23fd2a091b878d87",
        "scriptpubkey_asm": "OP_HASH160 OP_PUSHBYTES_20 b0df29f838a34826e651fc4cab23fd2a091b878d OP_EQUAL",
        "scriptpubkey_type": "p2sh",
        "scriptpubkey_address": "3HpEC1T38jLCD83Wu5XToZxh6NWQEGW2z2",
        "value": 296618
      },
      "scriptsig": "1600143d0afee6a51913ea966de64114cb9ba06f820ab4",
      "scriptsig_asm": "OP_PUSHBYTES_22 00143d0afee6a51913ea966de64114cb9ba06f820ab4",
      "witness": [
        "3044022077cc1a9bb9bb2f5a51542a0f913c1fa1164e2d6fa1c9fb95dee26af2f4c7ff2802202325100fb5fa964acb0ac6c145df1e0e3f8eb32f4e8489534478bfe2ab85f4a201",
        "022defa4e37acbeb47f4b9a4f00824ff88159b0dbd061ee205ad7d6e76f50963dd"
      ],
      "is_coinbase": false,
      "sequence": 4294967293,
      "inner_redeemscript_asm": "OP_0 OP_PUSHBYTES_20 3d0afee6a51913ea966de64114cb9ba06f820ab4"
    },
    {
      "txid": "c7301f009549f84c83a1851dc385893429242e56ef8095b217534a4377ded1d9",
      "vout": 17,
      "prevout": {
        "scriptpubkey": "a9145d7a7edbe653b4095fdfdda1c5e2e81c6f7879e087",
        "scriptpubkey_asm": "OP_HASH160 OP_PUSHBYTES_20 5d7a7edbe653b4095fdfdda1c5e2e81c6f7879e0 OP_EQUAL",
        "scriptpubkey_type": "p2sh",
        "scriptpubkey_address": "3ADHWXKMXrtDqPKhENHvdcWvxcuLdQnd6e",
        "value": 595865
      },
      "scriptsig": "160014b3984bb3c2f637fecee789a1869bdb7b6d131a10",
      "scriptsig_asm": "OP_PUSHBYTES_22 0014b3984bb3c2f637fecee789a1869bdb7b6d131a10",
      "witness": [
        "304402205cebb9701f8fff7be5132c9e500603959ed99c6f04459f490a507fa762c7a97602204334e4bda95944e13abf55980ca3d20538255f6121016cddcc0eef24cbdfcc8e01",
        "0258e63b66b9a771617bf5edaec1a2f7897cf30a6f4d5d3bbb0e9caed3af51fce7"
      ],
      "is_coinbase": false,
      "sequence": 4294967293,
      "inner_redeemscript_asm": "OP_0 OP_PUSHBYTES_20 b3984bb3c2f637fecee789a1869bdb7b6d131a10"
    },
    {
      "txid": "c7301f009549f84c83a1851dc385893429242e56ef8095b217534a4377ded1d9",
      "vout": 19,
      "prevout": {
        "scriptpubkey": "a91479e96c0a89b7770ecc600553fd337c6f02684cad87",
        "scriptpubkey_asm": "OP_HASH160 OP_PUSHBYTES_20 79e96c0a89b7770ecc600553fd337c6f02684cad OP_EQUAL",
        "scriptpubkey_type": "p2sh",
        "scriptpubkey_address": "3CodKChqLf9481rNKqTSZjxeQ9HiBGUXrd",
        "value": 738014
      },
      "scriptsig": "1600147bf9cbebbf28eeca2f51840e4fac38ee029b2e60",
      "scriptsig_asm": "OP_PUSHBYTES_22 00147bf9cbebbf28eeca2f51840e4fac38ee029b2e60",
      "witness": [
        "304402202729748a6698a96b26029d107e8e7bb26fc559bc427aa0809b79e8a30a83ca560220212c0ec669eca1cf0e76f7106f5bdfa1da76a5f174be03993c3357d05a608dbb01",
        "035fa6bb24521cd5f49b50b34229eefa833847e52cd94e3595d85db7d5fa6c9834"
      ],
      "is_coinbase": false,
      "sequence": 4294967293,
      "inner_redeemscript_asm": "OP_0 OP_PUSHBYTES_20 7bf9cbebbf28eeca2f51840e4fac38ee029b2e60"
    },
    {
      "txid": "c7301f009549f84c83a1851dc385893429242e56ef8095b217534a4377ded1d9",
      "vout": 20,
      "prevout": {
        "scriptpubkey": "a914a7e02899cde6d947367fd3d6ff4241d1fc7154c387",
        "scriptpubkey_asm": "OP_HASH160 OP_PUSHBYTES_20 a7e02899cde6d947367fd3d6ff4241d1fc7154c3 OP_EQUAL",
        "scriptpubkey_type": "p2sh",
        "scriptpubkey_address": "3GzfJPgEQC5e7NT57J6g69jFSXVvY1MzX4",
        "value": 745488
      },
      "scriptsig": "160014a25e1bbabc5ad0619910a7175f743119ee92cfee",
      "scriptsig_asm": "OP_PUSHBYTES_22 0014a25e1bbabc5ad0619910a7175f743119ee92cfee",
      "witness": [
        "304402200f6cd07cf60f3ba4517a8034b486bdc995f49180f6b3423ced0dddebfdf89fec022058e6d2af2de346c099f4bfce5e4c6f1443b9d7ca150578984abf4d90a186a92001",
        "02f166cfa9721b9f4e2ca424d54f495c82346fa89c05621eb6d923204d63a1827f"
      ],
      "is_coinbase": false,
      "sequence": 4294967293,
      "inner_redeemscript_asm": "OP_0 OP_PUSHBYTES_20 a25e1bbabc5ad0619910a7175f743119ee92cfee"
    },
    {
      "txid": "c7301f009549f84c83a1851dc385893429242e56ef8095b217534a4377ded1d9",
      "vout": 21,
      "prevout": {
        "scriptpubkey": "a9142a971dad769966ed9f6f11300b0b9c3a719d9a1587",
        "scriptpubkey_asm": "OP_HASH160 OP_PUSHBYTES_20 2a971dad769966ed9f6f11300b0b9c3a719d9a15 OP_EQUAL",
        "scriptpubkey_type": "p2sh",
        "scriptpubkey_address": "35aDLKUfzpoPjcxUMchhLizmeoUmzPmbcx",
        "value": 1269170
      },
      "scriptsig": "1600147216c61a207963bdbe979f4e48b5ea1cf2eff482",
      "scriptsig_asm": "OP_PUSHBYTES_22 00147216c61a207963bdbe979f4e48b5ea1cf2eff482",
      "witness": [
        "304402203870b3ca58bee1303e05178d3407efa56104ea15a6def325f2590a381d8827c50220489eb5f6c204f49e4ff1134ba673924c498e34b27240d290e67a8669aed5ea2f01",
        "02883849cdf1c0eb9906902d2f09474668e7c95f9be41d42235e8153f92430f75b"
      ],
      "is_coinbase": false,
      "sequence": 4294967293,
      "inner_redeemscript_asm": "OP_0 OP_PUSHBYTES_20 7216c61a207963bdbe979f4e48b5ea1cf2eff482"
    },
    {
      "txid": "c7301f009549f84c83a1851dc385893429242e56ef8095b217534a4377ded1d9",
      "vout": 24,
      "prevout": {
        "scriptpubkey": "a9142fb05444a3b31942d7ff82368507c638d38ac42a87",
        "scriptpubkey_asm": "OP_HASH160 OP_PUSHBYTES_20 2fb05444a3b31942d7ff82368507c638d38ac42a OP_EQUAL",
        "scriptpubkey_type": "p2sh",
        "scriptpubkey_address": "363Av8EK24CqH6hbgdhfAPv7k5b6oFvR73",
        "value": 1343981
      },
      "scriptsig": "160014486d6d7af4c0358367694a9e97beb63e56739b9f",
      "scriptsig_asm": "OP_PUSHBYTES_22 0014486d6d7af4c0358367694a9e97beb63e56739b9f",
      "witness": [
        "304402204e27ddf6e0b8cd03c42fe6e571e14f62919125a173c679034a7028d6f3516fa3022065fe2afa7200f1f026951e0711dc9b67eb622492390cb8b7790412af11be452c01",
        "027f5445c400f9a9ea88ed37e95a9623971c0b965948284671ec7959ef5dd3a5f5"
      ],
      "is_coinbase": false,
      "sequence": 4294967293,
      "inner_redeemscript_asm": "OP_0 OP_PUSHBYTES_20 486d6d7af4c0358367694a9e97beb63e56739b9f"
    },
    {
      "txid": "c7301f009549f84c83a1851dc385893429242e56ef8095b217534a4377ded1d9",
      "vout": 25,
      "prevout": {
        "scriptpubkey": "a914b37e27df492db923a70a9638ba5190c8e3aea6e387",
        "scriptpubkey_asm": "OP_HASH160 OP_PUSHBYTES_20 b37e27df492db923a70a9638ba5190c8e3aea6e3 OP_EQUAL",
        "scriptpubkey_type": "p2sh",
        "scriptpubkey_address": "3J461LUh99GcJWKJkUaUxnbstG45AzoSNd",
        "value": 1343981
      },
      "scriptsig": "1600147a3c577a81f38e98a824cf5ecbefe6b9a5815056",
      "scriptsig_asm": "OP_PUSHBYTES_22 00147a3c577a81f38e98a824cf5ecbefe6b9a5815056",
      "witness": [
        "304402205588eb1beb8a12a73a600490fbfb07a3ae437156f937677cf7420d9b16b30fed022056f5b0f61fdb1a224c3c1ec0e1da5f34552bfe2b8c8e212f8aeaf86e9e60a09101",
        "02ab97ea58f4554eafa804f724f39e0b5f6990c13da23627a9310fd272985222ea"
      ],
      "is_coinbase": false,
      "sequence": 4294967293,
      "inner_redeemscript_asm": "OP_0 OP_PUSHBYTES_20 7a3c577a81f38e98a824cf5ecbefe6b9a5815056"
    },
    {
      "txid": "c7301f009549f84c83a1851dc385893429242e56ef8095b217534a4377ded1d9",
      "vout": 27,
      "prevout": {
        "scriptpubkey": "a9140243266fa1c7adeb9953c95ea260dd4b334836dd87",
        "scriptpubkey_asm": "OP_HASH160 OP_PUSHBYTES_20 0243266fa1c7adeb9953c95ea260dd4b334836dd OP_EQUAL",
        "scriptpubkey_type": "p2sh",
        "scriptpubkey_address": "31tyibp1NYzpN3RHM1PahN6SDxgNasKxJf",
        "value": 1388868
      },
      "scriptsig": "16001420831737ed40e0cf92300e9ac57c156d07752ff4",
      "scriptsig_asm": "OP_PUSHBYTES_22 001420831737ed40e0cf92300e9ac57c156d07752ff4",
      "witness": [
        "3044022024dcf14144e9a49febdce21cc87939b8a52b6ff1bd41e834e0db5325464b648b02206bbdf6351d89d925a9e49b0693a1bd4eea880c61b6ef4d39e84994d8a804852801",
        "033d2f7a2214fbbfef36ec0bc8a577bdb2ba583e27daf7e4f824865141cc2a7829"
      ],
      "is_coinbase": false,
      "sequence": 4294967293,
      "inner_redeemscript_asm": "OP_0 OP_PUSHBYTES_20 20831737ed40e0cf92300e9ac57c156d07752ff4"
    },
    {
      "txid": "c7301f009549f84c83a1851dc385893429242e56ef8095b217534a4377ded1d9",
      "vout": 28,
      "prevout": {
        "scriptpubkey": "a9146eec7a901faec060f80461b44b02eeaa0d49250087",
        "scriptpubkey_asm": "OP_HASH160 OP_PUSHBYTES_20 6eec7a901faec060f80461b44b02eeaa0d492500 OP_EQUAL",
        "scriptpubkey_type": "p2sh",
        "scriptpubkey_address": "3BoXYUebtU7yWtu5TMfShREYqpPdmfrpGd",
        "value": 1418793
      },
      "scriptsig": "1600148a55ecd2dc6de68a1d19da3778eefad9b9ff6c31",
      "scriptsig_asm": "OP_PUSHBYTES_22 00148a55ecd2dc6de68a1d19da3778eefad9b9ff6c31",
      "witness": [
        "304402205cf4bf2001088ddc070c2cf92e789b6da7441278f46fec74f98468e7c01c2ae9022007c229232dd9fce76af1b99b9d7bdbcfdea124b7929b6a77003390afdf7382fd01",
        "028123bcc58d37030e328143574aad92a3cd52172b145d616a25e2545b4879bdf2"
      ],
      "is_coinbase": false,
      "sequence": 4294967293,
      "inner_redeemscript_asm": "OP_0 OP_PUSHBYTES_20 8a55ecd2dc6de68a1d19da3778eefad9b9ff6c31"
    },
    {
      "txid": "c7301f009549f84c83a1851dc385893429242e56ef8095b217534a4377ded1d9",
      "vout": 29,
      "prevout": {
        "scriptpubkey": "a914fca79a4d0b5bb703c9df70d74c8cf4129856e57287",
        "scriptpubkey_asm": "OP_HASH160 OP_PUSHBYTES_20 fca79a4d0b5bb703c9df70d74c8cf4129856e572 OP_EQUAL",
        "scriptpubkey_type": "p2sh",
        "scriptpubkey_address": "3Qivz8LtQM1ryVBFXrnD9aTeU1RmCkxDCh",
        "value": 1418793
      },
      "scriptsig": "160014a4ff0155b7498d1e571f1d9af01f85b11b3fd02c",
      "scriptsig_asm": "OP_PUSHBYTES_22 0014a4ff0155b7498d1e571f1d9af01f85b11b3fd02c",
      "witness": [
        "304402203a3375c515a5af2692bcc7ec6bed0e89a841c10f15a3a8afaabe16e162cfa11002200457b4b0d2b58ea0e12becd0bb366a541285e1cbb7d24f8c29da8ce551eabf6701",
        "02cc8214a942247a96286c2a5f650c2e9f7e22f218f5a02ae56fb64b86d1f98645"
      ],
      "is_coinbase": false,
      "sequence": 4294967293,
      "inner_redeemscript_asm": "OP_0 OP_PUSHBYTES_20 a4ff0155b7498d1e571f1d9af01f85b11b3fd02c"
    }
  ],
  "vout": [
    {
      "scriptpubkey": "0014923af179b7a1baba9a35adbc63e62376cbc78e7d",
      "scriptpubkey_asm": "OP_0 OP_PUSHBYTES_20 923af179b7a1baba9a35adbc63e62376cbc78e7d",
      "scriptpubkey_type": "v0_p2wpkh",
      "scriptpubkey_address": "bc1qjga0z7dh5xat4x344k7x8e3rwm9u0rnahv7tgl",
      "value": 15033025
    }
  ],
  "size": 3121,
  "weight": 6700,
  "fee": 21840,
  "status": {
    "confirmed": true,
    "block_height": 834460,
    "block_hash": "00000000000000000000484a79b643b2524bbce82e5d8a442013fa5b8905ed98",
    "block_time": 1710307468
  },
  "hex": "02000000000112f6a2192c772a9daff8e1e19b26acca88506f321a95e41111396bddef61ae03c101000000171600145c37bfd618c1d9cd9e59367964cfc97ee5d8d8c8fdfffffff6a2192c772a9daff8e1e19b26acca88506f321a95e41111396bddef61ae03c104000000171600141c48b4838770d9034d48101b2772c65ec297bf4efdfffffff6a2192c772a9daff8e1e19b26acca88506f321a95e41111396bddef61ae03c10700000017160014152c0c64709eab5f43ab98525c0843c2bdf5886afdfffffff6a2192c772a9daff8e1e19b26acca88506f321a95e41111396bddef61ae03c108000000171600141ce196f41fae8f61dbbede3c46fcc5a66db266c6fdffffffd9d1de77434a5317b29580ef562e2429348985c31d85a1834cf84995001f30c7010000001716001411626ce5f8e47ccef839991db921cd62a71c67e4fdffffffd9d1de77434a5317b29580ef562e2429348985c31d85a1834cf84995001f30c707000000171600140a260d787428888125dcf7c8cc81bdc80caf8231fdffffffd9d1de77434a5317b29580ef562e2429348985c31d85a1834cf84995001f30c70800000017160014cfcfcd24425ff45377d633853ad35277a019461afdffffffd9d1de77434a5317b29580ef562e2429348985c31d85a1834cf84995001f30c70c00000017160014939b875985e246e179d6e70b7d0a7e00bcde9b19fdffffffd9d1de77434a5317b29580ef562e2429348985c31d85a1834cf84995001f30c70d000000171600143d0afee6a51913ea966de64114cb9ba06f820ab4fdffffffd9d1de77434a5317b29580ef562e2429348985c31d85a1834cf84995001f30c71100000017160014b3984bb3c2f637fecee789a1869bdb7b6d131a10fdffffffd9d1de77434a5317b29580ef562e2429348985c31d85a1834cf84995001f30c713000000171600147bf9cbebbf28eeca2f51840e4fac38ee029b2e60fdffffffd9d1de77434a5317b29580ef562e2429348985c31d85a1834cf84995001f30c71400000017160014a25e1bbabc5ad0619910a7175f743119ee92cfeefdffffffd9d1de77434a5317b29580ef562e2429348985c31d85a1834cf84995001f30c715000000171600147216c61a207963bdbe979f4e48b5ea1cf2eff482fdffffffd9d1de77434a5317b29580ef562e2429348985c31d85a1834cf84995001f30c71800000017160014486d6d7af4c0358367694a9e97beb63e56739b9ffdffffffd9d1de77434a5317b29580ef562e2429348985c31d85a1834cf84995001f30c719000000171600147a3c577a81f38e98a824cf5ecbefe6b9a5815056fdffffffd9d1de77434a5317b29580ef562e2429348985c31d85a1834cf84995001f30c71b0000001716001420831737ed40e0cf92300e9ac57c156d07752ff4fdffffffd9d1de77434a5317b29580ef562e2429348985c31d85a1834cf84995001f30c71c000000171600148a55ecd2dc6de68a1d19da3778eefad9b9ff6c31fdffffffd9d1de77434a5317b29580ef562e2429348985c31d85a1834cf84995001f30c71d00000017160014a4ff0155b7498d1e571f1d9af01f85b11b3fd02cfdffffff01c162e50000000000160014923af179b7a1baba9a35adbc63e62376cbc78e7d02473044022024f9cc1bf492c5e0c633a221e201e0bb7e519add24abf9723ff6930886da5aea0220066e119c327fbe425d3f9f017c7f808d2ab871a44e7fe8e3c4a82dea6bdddbf80121039619d10adeedf7ee25ad575f7a9776fb91ef348b58be29f384727fd3a5f4ca520247304402205ae34bd53ac809f2ecc19d5c9e8733de4d91aa1c822da3fa2524e68a00a6425d022055304f87f3209d149718c8251d950f4ae0364407118e905ad74a1f16dbfafd3b012102c589742a035beb9446b6ac9e5f1b2675180fb9eb964708d8aba1062e9261966a02473044022054e5ed6f543cc31b161dc29aeb18d4ce0294c6fb38c07190da9c6cb9fcf8d5f10220476706cf594ac4c3fbdc79784969789dc61a0312b2dc32470f35c5921e1597e701210223639fd843bb8c905a4112ad924f21d9f21a2aaa14e33a1e8acaf42ad6b49b090247304402203a1ab62b542f4604b40d09ca013a33e4a0975344af3ff4bd15bf521ab545680c02204686507d9d1ef550ed6f0e6ee8c468a71f12770effc20150958aa67bc9b94ae7012103ee0d71d0adf32a34496950ccd7ceea573671d157bba8a2fa3496de60ec6328b00247304402205fdb15c187798a7cb09854c38731545aff51c044d372be6d32764f280124d8af02200a372beeeabfb47b4d315df50e0e189620e3a2fa9002757dcf522c8a07d78eab012103c7dbe434e742f02df6e2bb2eb1519441f32486d279b911ed61f8947682aeac1f0247304402202f59088f86ae501f29361e57b621662892c5c24ae8d0519c13033926a5eaf4cd02205bd17429c1c7ea0721321a9512826114a1bd16737fdddef93b1d122ff4bb1afe0121022c6679f300c8b18b42d04bc4e137550268f51ed2f363fe4ea39402cdb9b104550247304402205a9e5f006fddd780472db7e946b5d72e998d8f8e3c0ac9c92e273bbcbd348f4a02201c1dad69eb2c1d4113762e6bce3f239acc7d9fcbbff84d168d77b9d3507b5b8a012102cdcc05f6b288ff52f9c38ca718503e9e14d9bc2e956fadba008a52f7c6f9e4100247304402206a9e140aa72a8277cfd5504dc4b91d509e208bd820098f206973091e6cf8da96022012d4b1902e2de1c3bf57bca8735b5e389b9e5e0105f14ab877c80caca627f2ea012103fbad85c56e3d3179e13fcc3f1abc4b1e9ca5d35075e5cf66ed9f5c9d8be2840a02473044022077cc1a9bb9bb2f5a51542a0f913c1fa1164e2d6fa1c9fb95dee26af2f4c7ff2802202325100fb5fa964acb0ac6c145df1e0e3f8eb32f4e8489534478bfe2ab85f4a20121022defa4e37acbeb47f4b9a4f00824ff88159b0dbd061ee205ad7d6e76f50963dd0247304402205cebb9701f8fff7be5132c9e500603959ed99c6f04459f490a507fa762c7a97602204334e4bda95944e13abf55980ca3d20538255f6121016cddcc0eef24cbdfcc8e01210258e63b66b9a771617bf5edaec1a2f7897cf30a6f4d5d3bbb0e9caed3af51fce70247304402202729748a6698a96b26029d107e8e7bb26fc559bc427aa0809b79e8a30a83ca560220212c0ec669eca1cf0e76f7106f5bdfa1da76a5f174be03993c3357d05a608dbb0121035fa6bb24521cd5f49b50b34229eefa833847e52cd94e3595d85db7d5fa6c98340247304402200f6cd07cf60f3ba4517a8034b486bdc995f49180f6b3423ced0dddebfdf89fec022058e6d2af2de346c099f4bfce5e4c6f1443b9d7ca150578984abf4d90a186a920012102f166cfa9721b9f4e2ca424d54f495c82346fa89c05621eb6d923204d63a1827f0247304402203870b3ca58bee1303e05178d3407efa56104ea15a6def325f2590a381d8827c50220489eb5f6c204f49e4ff1134ba673924c498e34b27240d290e67a8669aed5ea2f012102883849cdf1c0eb9906902d2f09474668e7c95f9be41d42235e8153f92430f75b0247304402204e27ddf6e0b8cd03c42fe6e571e14f62919125a173c679034a7028d6f3516fa3022065fe2afa7200f1f026951e0711dc9b67eb622492390cb8b7790412af11be452c0121027f5445c400f9a9ea88ed37e95a9623971c0b965948284671ec7959ef5dd3a5f50247304402205588eb1beb8a12a73a600490fbfb07a3ae437156f937677cf7420d9b16b30fed022056f5b0f61fdb1a224c3c1ec0e1da5f34552bfe2b8c8e212f8aeaf86e9e60a091012102ab97ea58f4554eafa804f724f39e0b5f6990c13da23627a9310fd272985222ea02473044022024dcf14144e9a49febdce21cc87939b8a52b6ff1bd41e834e0db5325464b648b02206bbdf6351d89d925a9e49b0693a1bd4eea880c61b6ef4d39e84994d8a80485280121033d2f7a2214fbbfef36ec0bc8a577bdb2ba583e27daf7e4f824865141cc2a78290247304402205cf4bf2001088ddc070c2cf92e789b6da7441278f46fec74f98468e7c01c2ae9022007c229232dd9fce76af1b99b9d7bdbcfdea124b7929b6a77003390afdf7382fd0121028123bcc58d37030e328143574aad92a3cd52172b145d616a25e2545b4879bdf20247304402203a3375c515a5af2692bcc7ec6bed0e89a841c10f15a3a8afaabe16e162cfa11002200457b4b0d2b58ea0e12becd0bb366a541285e1cbb7d24f8c29da8ce551eabf67012102cc8214a942247a96286c2a5f650c2e9f7e22f218f5a02ae56fb64b86d1f986459abb0c00"
}