{
  "txid": "043d26be9a82e267d723037d50a799b98bce4ea638c4282b7ba31dcb3b1da376",
  "version": 2,
  "locktime": 0,
  "vin": [
    {
      "txid": "9dfda38dac764e652256e5ba640b7bfee606a6ed8e4c5c3349bfdf0e41878bc9",
      "vout": 0,
      "prevout": {
        "scriptpubkey": "00149034584555f77dcce0008f3cc14705d674125f93",
        "scriptpubkey_asm": "OP_0 OP_PUSHBYTES_20 9034584555f77dcce0008f3cc14705d674125f93",
        "scriptpubkey_type": "v0_p2wpkh",
        "scriptpubkey_address": "bc1qjq69s3247a7uecqq3u7vz3c96e6pyhun5mddd6",
        "value": 366039
      },
      "scriptsig": "",
      "scriptsig_asm": "",
      "witness": [
        "304402204ac4731c1d5fb92d819c7fbefdc6829809d37b31499940e52f4ce79bf2b865fd0220724b3a15b6feea301cc0a34899c1fe07496f4ea3ecb32cf4d55c62bde565148601",
        "028be92c140d9b95bf1cc174ba1521aab2b2706112edcbd26e219c553381265e37"
      ],
      "is_coinbase": false,
      "sequence": 4294967295
    }
  ],
  "vout": [
    {
      "scriptpubkey": "00149034584555f77dcce0008f3cc14705d674125f93",
      "scriptpubkey_asm": "OP_0 OP_PUSHBYTES_20 9034584555f77dcce0008f3cc14705d674125f93",
      "scriptpubkey_type": "v0_p2wpkh",
      "scriptpubkey_address": "bc1qjq69s3247a7uecqq3u7vz3c96e6pyhun5mddd6",
      "value": 204274
    },
    {
      "scriptpubkey": "0014273b600e2be364a305ec2866480449b9aecf9eb2",
      "scriptpubkey_asm": "OP_0 OP_PUSHBYTES_20 273b600e2be364a305ec2866480449b9aecf9eb2",
      "scriptpubkey_type": "v0_p2wpkh",
      "scriptpubkey_address": "bc1qyuakqr3tudj2xp0v9pnyspzfhxhvl84j4rh8w3",
      "value": 159355
    }
  ],
  "size": 222,
  "weight": 561,
  "fee": 2410,
  "status": {
    "confirmed": true,
    "block_height": 834638,
    "block_hash": "000000000000000000025f742c626208ac87e0b7d15054abb4a19ca2d735a54e",
    "block_time": 1710405325
  },
  "hex": "02000000000101c98b87410edfbf49335c4c8eeda606e6fe7b0b64bae55622654e76ac8da3fd9d0000000000ffffffff02f21d0300000000001600149034584555f77dcce0008f3cc14705d674125f937b6e020000000000160014273b600e2be364a305ec2866480449b9aecf9eb20247304402204ac4731c1d5fb92d819c7fbefdc6829809d37b31499940e52f4ce79bf2b865fd0220724b3a15b6feea301cc0a34899c1fe07496f4ea3ecb32cf4d55c62bde56514860121028be92c140d9b95bf1cc174ba1521aab2b2706112edcbd26e219c553381265e3700000000"
}