{
  "txid": "045713b06a7b17c9ce83d0a053e19e6635a6c22858afc5984353f27aae4cb2dc",
  "version": 2,
  "locktime": 0,
  "vin": [
    {
      "txid": "c89c193b37e297cf2d93671a93e31c8f2529c96c6ed69cb44a594cc76db89cf2",
      "vout": 3,
      "prevout": {
        "scriptpubkey": "512010099fc454249a4cadeda2fd0ac8ccc44e3137c2cb2fb967c875fbaf952f6dc8",
        "scriptpubkey_asm": "OP_PUSHNUM_1 OP_PUSHBYTES_32 10099fc454249a4cadeda2fd0ac8ccc44e3137c2cb2fb967c875fbaf952f6dc8",
        "scriptpubkey_type": "v1_p2tr",
        "scriptpubkey_address": "bc1pzqyel3z5yjdyet0d5t7s4jxvc38rzd7zevhmje7gwha6l9f0dhyqa997fn",
        "value": 600
      },
      "scriptsig": "",
      "scriptsig_asm": "",
      "witness": [
        "634ee7538fe4f375311dd785eb12dc019da0e6103586ebd984755a9265f36265abad53ef6646127752d03bb7abef9064a91eeb8bfa2b97e39de1908a19896755"
      ],
      "is_coinbase": false,
      "sequence": 4294967295
    },
    {
      "txid": "c89c193b37e297cf2d93671a93e31c8f2529c96c6ed69cb44a594cc76db89cf2",
      "vout": 4,
      "prevout": {
        "scriptpubkey": "512010099fc454249a4cadeda2fd0ac8ccc44e3137c2cb2fb967c875fbaf952f6dc8",
        "scriptpubkey_asm": "OP_PUSHNUM_1 OP_PUSHBYTES_32 10099fc454249a4cadeda2fd0ac8ccc44e3137c2cb2fb967c875fbaf952f6dc8",
        "scriptpubkey_type": "v1_p2tr",
        "scriptpubkey_address": "bc1pzqyel3z5yjdyet0d5t7s4jxvc38rzd7zevhmje7gwha6l9f0dhyqa997fn",
        "value": 600
      },
      "scriptsig": "",
      "scriptsig_asm": "",
      "witness": [
        "ca2f0513d1d499c780e2fdf157c5776b0627b5e625c9976b84ef3f10c7003930c07227b167ad3b8abfe045733e0fc90e7157a4232028569a92892bec7b039982"
      ],
      "is_coinbase": false,
      "sequence": 4294967295
    },
    {
      "txid": "92cb25aa28ee9314c1a5331b93eb45f431cddf9e0a4d960963e4945a522f9ccd",
      "vout": 0,
      "prevout": {
        "scriptpubkey": "512031fd85629e6dbe1879f8e7f8341ae08c9fb8f4a9732c5f0e6cfae79050a990a5",
        "scriptpubkey_asm": "OP_PUSHNUM_1 OP_PUSHBYTES_32 31fd85629e6dbe1879f8e7f8341ae08c9fb8f4a9732c5f0e6cfae79050a990a5",
        "scriptpubkey_type": "v1_p2tr",
        "scriptpubkey_address": "bc1px87c2c57dklps70culurgxhq3j0m3a9fwvk97rnvltneq59fjzjs7fuz86",
        "value": 546
      },
      "scriptsig": "",
      "scriptsig_asm": "",
      "witness": [
        "15ef8b2179cfbe00e721b813541f80d416d3da6b655dd82f8e66d1f5fcd0d693808b91642d411696d882c9ead9f63aea0a80347afa16079bc3d7455c4c7c89ae83"
      ],
      "is_coinbase": false,
      "sequence": 4294967295
    },
    {
      "txid": "40c5e679716a253ec0ed4078870e88e6b3fe5b920b52cc09d261a1cc09b92ce9",
      "vout": 4,
      "prevout": {
        "scriptpubkey": "512010099fc454249a4cadeda2fd0ac8ccc44e3137c2cb2fb967c875fbaf952f6dc8",
        "scriptpubkey_asm": "OP_PUSHNUM_1 OP_PUSHBYTES_32 10099fc454249a4cadeda2fd0ac8ccc44e3137c2cb2fb967c875fbaf952f6dc8",
        "scriptpubkey_type": "v1_p2tr",
        "scriptpubkey_address": "bc1pzqyel3z5yjdyet0d5t7s4jxvc38rzd7zevhmje7gwha6l9f0dhyqa997fn",
        "value": 2763227
      },
      "scriptsig": "",
      "scriptsig_asm": "",
      "witness": [
        "a63eb6833acc057ac3d9ed234e352191eae655fe03d9b5a9ba1c24c2090132d739a73d1684615a70db925ca5b67963fb8c21d6436a26e112b9b684f4344a3d56"
      ],
      "is_coinbase": false,
      "sequence": 4294967295
    }
  ],
  "vout": [
    {
      "scriptpubkey": "512010099fc454249a4cadeda2fd0ac8ccc44e3137c2cb2fb967c875fbaf952f6dc8",
      "scriptpubkey_asm": "OP_PUSHNUM_1 OP_PUSHBYTES_32 10099fc454249a4cadeda2fd0ac8ccc44e3137c2cb2fb967c875fbaf952f6dc8",
      "scriptpubkey_type": "v1_p2tr",
      "scriptpubkey_address": "bc1pzqyel3z5yjdyet0d5t7s4jxvc38rzd7zevhmje7gwha6l9f0dhyqa997fn",
      "value": 1200
    },
    {
      "scriptpubkey": "512010099fc454249a4cadeda2fd0ac8ccc44e3137c2cb2fb967c875fbaf952f6dc8",
      "scriptpubkey_asm": "OP_PUSHNUM_1 OP_PUSHBYTES_32 10099fc454249a4cadeda2fd0ac8ccc44e3137c2cb2fb967c875fbaf952f6dc8",
      "scriptpubkey_type": "v1_p2tr",
      "scriptpubkey_address": "bc1pzqyel3z5yjdyet0d5t7s4jxvc38rzd7zevhmje7gwha6l9f0dhyqa997fn",
      "value": 546
    },
    {
      "scriptpubkey": "512031fd85629e6dbe1879f8e7f8341ae08c9fb8f4a9732c5f0e6cfae79050a990a5",
      "scriptpubkey_asm": "OP_PUSHNUM_1 OP_PUSHBYTES_32 31fd85629e6dbe1879f8e7f8341ae08c9fb8f4a9732c5f0e6cfae79050a990a5",
      "scriptpubkey_type": "v1_p2tr",
      "scriptpubkey_address": "bc1px87c2c57dklps70culurgxhq3j0m3a9fwvk97rnvltneq59fjzjs7fuz86",
      "value": 1577203
    },
    {
      "scriptpubkey": "512010099fc454249a4cadeda2fd0ac8ccc44e3137c2cb2fb967c875fbaf952f6dc8",
      "scriptpubkey_asm": "OP_PUSHNUM_1 OP_PUSHBYTES_32 10099fc454249a4cadeda2fd0ac8ccc44e3137c2cb2fb967c875fbaf952f6dc8",
      "scriptpubkey_type": "v1_p2tr",
      "scriptpubkey_address": "bc1pzqyel3z5yjdyet0d5t7s4jxvc38rzd7zevhmje7gwha6l9f0dhyqa997fn",
      "value": 600
    },
    {
      "scriptpubkey": "512010099fc454249a4cadeda2fd0ac8ccc44e3137c2cb2fb967c875fbaf952f6dc8",
      "scriptpubkey_asm": "OP_PUSHNUM_1 OP_PUSHBYTES_32 10099fc454249a4cadeda2fd0ac8ccc44e3137c2cb2fb967c875fbaf952f6dc8",
      "scriptpubkey_type": "v1_p2tr",
      "scriptpubkey_address": "bc1pzqyel3z5yjdyet0d5t7s4jxvc38rzd7zevhmje7gwha6l9f0dhyqa997fn",
      "value": 600
    },
    {
      "scriptpubkey": "512010099fc454249a4cadeda2fd0ac8ccc44e3137c2cb2fb967c875fbaf952f6dc8",
      "scriptpubkey_asm": "OP_PUSHNUM_1 OP_PUSHBYTES_32 10099fc454249a4cadeda2fd0ac8ccc44e3137c2cb2fb967c875fbaf952f6dc8",
      "scriptpubkey_type": "v1_p2tr",
      "scriptpubkey_address": "bc1pzqyel3z5yjdyet0d5t7s4jxvc38rzd7zevhmje7gwha6l9f0dhyqa997fn",
      "value": 1177339
    }
  ],
  "size": 699,
  "weight": 1995,
  "fee": 7485,
  "status": {
    "confirmed": true,
    "block_height": 834460,
    "block_hash": "00000000000000000000484a79b643b2524bbce82e5d8a442013fa5b8905ed98",
    "block_time": 1710307468
  },
  "hex": "02000000000104f29cb86dc74c594ab49cd66e6cc929258f1ce3931a67932dcf97e2373b199cc80300000000fffffffff29cb86dc74c594ab49cd66e6cc929258f1ce3931a67932dcf97e2373b199cc80400000000ffffffffcd9c2f525a94e46309964d0a9edfcd31f445eb931b33a5c11493ee28aa25cb920000000000ffffffffe92cb909cca161d209cc520b925bfeb3e6880e877840edc03e256a7179e6c5400400000000ffffffff06b00400000000000022512010099fc454249a4cadeda2fd0ac8ccc44e3137c2cb2fb967c875fbaf952f6dc8220200000000000022512010099fc454249a4cadeda2fd0ac8ccc44e3137c2cb2fb967c875fbaf952f6dc8f31018000000000022512031fd85629e6dbe1879f8e7f8341ae08c9fb8f4a9732c5f0e6cfae79050a990a5580200000000000022512010099fc454249a4cadeda2fd0ac8ccc44e3137c2cb2fb967c875fbaf952f6dc8580200000000000022512010099fc454249a4cadeda2fd0ac8ccc44e3137c2cb2fb967c875fbaf952f6dc8fbf611000000000022512010099fc454249a4cadeda2fd0ac8ccc44e3137c2cb2fb967c875fbaf952f6dc80140634ee7538fe4f375311dd785eb12dc019da0e6103586ebd984755a9265f36265abad53ef6646127752d03bb7abef9064a91eeb8bfa2b97e39de1908a198967550140ca2f0513d1d499c780e2fdf157c5776b0627b5e625c9976b84ef3f10c7003930c07227b167ad3b8abfe045733e0fc90e7157a4232028569a92892bec7b039982014115ef8b2179cfbe00e721b813541f80d416d3da6b655dd82f8e66d1f5fcd0d693808b91642d411696d882c9ead9f63aea0a80347afa16079bc3d7455c4c7c89ae830140a63eb6833acc057ac3d9ed234e352191eae655fe03d9b5a9ba1c24c2090132d739a73d1684615a70db925ca5b67963fb8c21d6436a26e112b9b684f4344a3d5600000000"
}