{
  "txid": "045bcc862bb05ad4d930553262026b858821f3a8777e9a0c19f614f8adc763db",
  "version": 1,
  "locktime": 0,
  "vin": [
    {
      "txid": "60e56dc84291cea38e12233c817410ef197767c290c60c7ee30e815013e5feba",
      "vout": 34,
      "prevout": {
        "scriptpubkey": "00145842c9afddd49c709ded125c96e7d6a2a82ef3f2",
        "scriptpubkey_asm": "OP_0 OP_PUSHBYTES_20 5842c9afddd49c709ded125c96e7d6a2a82ef3f2",
        "scriptpubkey_type": "v0_p2wpkh",
        "scriptpubkey_address": "bc1qtppvnt7a6jw8p80dzfwfde7k525zauljut3g2y",
        "value": 33554432
      },
      "scriptsig": "",
      "scriptsig_asm": "",
      "witness": [
        "3044022032769491953018c8627c04eef00eb08537152f299c577269a404c2a83dc009c902205f1bdd481e99445de7286fdc6e037cd9a034050082c16fba32a951009422381d01",
        "0295537597635d4d83fe1f99591ee5155549836c6ef212fc1ac9aa128a9e466349"
      ],
      "is_coinbase": false,
      "sequence": 4294967293
    }
  ],
  "vout": [
    {
      "scriptpubkey": "00147267395ce7b36963d25c9c5cf9e59ec50967af4e",
      "scriptpubkey_asm": "OP_0 OP_PUSHBYTES_20 7267395ce7b36963d25c9c5cf9e59ec50967af4e",
      "scriptpubkey_type": "v0_p2wpkh",
      "scriptpubkey_address": "bc1qwfnnjh88kd5k85jun3w0nev7c5yk0t6w07jl4l",
      "value": 10049497
    },
    {
      "scriptpubkey": "00145ee0ba2ef2e538f41016aabed48d6b56509c5225",
      "scriptpubkey_asm": "OP_0 OP_PUSHBYTES_20 5ee0ba2ef2e538f41016aabed48d6b56509c5225",
      "scriptpubkey_type": "v0_p2wpkh",
      "scriptpubkey_address": "bc1qtmst5thju5u0gyqk42ldfrtt2egfc539y3hk7n",
      "value": 23500000
    }
  ],
  "size": 222,
  "weight": 561,
  "fee": 4935,
  "status": {
    "confirmed": true,
    "block_height": 834638,
    "block_hash": "000000000000000000025f742c626208ac87e0b7d15054abb4a19ca2d735a54e",
    "block_time": 1710405325
  },
  "hex": "01000000000101bafee51350810ee37e0cc690c2677719ef1074813c23128ea3ce9142c86de5602200000000fdffffff02d9579900000000001600147267395ce7b36963d25c9c5cf9e59ec50967af4ee0946601000000001600145ee0ba2ef2e538f41016aabed48d6b56509c522502473044022032769491953018c8627c04eef00eb08537152f299c577269a404c2a83dc009c902205f1bdd481e99445de7286fdc6e037cd9a034050082c16fba32a951009422381d01210295537597635d4d83fe1f99591ee5155549836c6ef212fc1ac9aa128a9e46634900000000"
}