{
  "txid": "0462b6c50461e0c148bae17d500eca31eb72af129dffe53713898d27146847a9",
  "version": 2,
  "locktime": 0,
  "vin": [
    {
      "txid": "8486ecb4df0880316dd6e82b3971b4df187aff23765bc3a47f8d78bb53aa273c",
      "vout": 107,
      "prevout": {
        "scriptpubkey": "5120c9438562f1dd9e684cb2c1411373e6c178eff6ea291d016eda3bacc8c4e6ec7d",
        "scriptpubkey_asm": "OP_PUSHNUM_1 OP_PUSHBYTES_32 c9438562f1dd9e684cb2c1411373e6c178eff6ea291d016eda3bacc8c4e6ec7d",
        "scriptpubkey_type": "v1_p2tr",
        "scriptpubkey_address": "bc1pe9pc2ch3mk0xsn9jc9q3xulxc9uwlah29ywszmk68wkv338xa37s2l6003",
        "value": 2575
      },
      "scriptsig": "",
      "scriptsig_asm": "",
      "witness": [
        "6921d37c0464622d0e12df612f46dce94ae5362ed4e9db311e0e4e36ad2ee9187fd01adf17378e2ecb3ae25113cc621b70d86274b9e74c796f04909029a567b1",
        "20949bbb0837d3e84113828f1748aa81855966bfd7fbe0b7d240984e332ae5fd46ac0063036f726401010a746578742f706c61696e00367b2270223a226272632d3230222c226f70223a226d696e74222c227469636b223a2261616161222c22616d74223a223130303030227d68",
        "c1949bbb0837d3e84113828f1748aa81855966bfd7fbe0b7d240984e332ae5fd46"
      ],
      "is_coinbase": false,
      "sequence": 4261412863
    }
  ],
  "vout": [
    {
      "scriptpubkey": "0014ddd7ef12ea6f78edcc1e8e7afa12c01ab59f3339",
      "scriptpubkey_asm": "OP_0 OP_PUSHBYTES_20 ddd7ef12ea6f78edcc1e8e7afa12c01ab59f3339",
      "scriptpubkey_type": "v0_p2wpkh",
      "scriptpubkey_address": "bc1qmht77yh2dauwmnq73ea05ykqr26e7veea8spz6",
      "value": 546
    }
  ],
  "size": 295,
  "weight": 541,
  "fee": 2029,
  "status": {
    "confirmed": true,
    "block_height": 834460,
    "block_hash": "00000000000000000000484a79b643b2524bbce82e5d8a442013fa5b8905ed98",
    "block_time": 1710307468
  },
  "hex": "020000000001013c27aa53bb788d7fa4c35b7623ff7a18dfb471392be8d66d318008dfb4ec86846b00000000fffffffd012202000000000000160014ddd7ef12ea6f78edcc1e8e7afa12c01ab59f333903406921d37c0464622d0e12df612f46dce94ae5362ed4e9db311e0e4e36ad2ee9187fd01adf17378e2ecb3ae25113cc621b70d86274b9e74c796f04909029a567b16e20949bbb0837d3e84113828f1748aa81855966bfd7fbe0b7d240984e332ae5fd46ac0063036f726401010a746578742f706c61696e00367b2270223a226272632d3230222c226f70223a226d696e74222c227469636b223a2261616161222c22616d74223a223130303030227d6821c1949bbb0837d3e84113828f1748aa81855966bfd7fbe0b7d240984e332ae5fd4600000000"
}