{
  "txid": "046f48cfde9a53e3efbfd691051aa7fd68c560e4fa91edf13c0558c9af158d1d",
  "version": 2,
  "locktime": 0,
  "vin": [
    {
      "txid": "acc3ba00869acb582a3f2904ce3a11dd3779350ce234063fc7d0959246213364",
      "vout": 244,
      "prevout": {
        "scriptpubkey": "512067c1be835b310369bfb0012a177d77941a144c88044e15243051bed6b5b5ef86",
        "scriptpubkey_asm": "OP_PUSHNUM_1 OP_PUSHBYTES_32 67c1be835b310369bfb0012a177d77941a144c88044e15243051bed6b5b5ef86",
        "scriptpubkey_type": "v1_p2tr",
        "scriptpubkey_address": "bc1pvlqmaq6mxypkn0asqy4pwlthjsdpgnygq38p2fps2xldddd4a7rq8v8s9f",
        "value": 1806
      },
      "scriptsig": "",
      "scriptsig_asm": "",
      "witness": [
        "6d487eaddb9924f059b128b5e663fef2f0f076a95cab64ddd9e382e45b0879b5fad3424ee45ea0ced5b77f64aa4d38c034bf31f76c15b2587efaf50de621e3eb",
        "20e6780726bfcaa0d124d5208b5d1b33cd7fc25d2cf8d81a6e3508bf2ad73dc184ac0063036f726401010a746578742f706c61696e00357b2270223a226272632d3230222c226f70223a226d696e74222c227469636b223a22646f6765222c22616d74223a2234323030227d68",
        "c0e6780726bfcaa0d124d5208b5d1b33cd7fc25d2cf8d81a6e3508bf2ad73dc184"
      ],
      "is_coinbase": false,
      "sequence": 4261412863
    }
  ],
  "vout": [
    {
      "scriptpubkey": "00147a665de7a370f4c9b372ab1fae587500a5bcbdb4",
      "scriptpubkey_asm": "OP_0 OP_PUSHBYTES_20 7a665de7a370f4c9b372ab1fae587500a5bcbdb4",
      "scriptpubkey_type": "v0_p2wpkh",
      "scriptpubkey_address": "bc1q0fn9mearwr6vnvmj4v06ukr4qzjme0d565dzcx",
      "value": 294
    }
  ],
  "size": 294,
  "weight": 540,
  "fee": 1512,
  "status": {
    "confirmed": true,
    "block_height": 834460,
    "block_hash": "00000000000000000000484a79b643b2524bbce82e5d8a442013fa5b8905ed98",
    "block_time": 1710307468
  },
  "hex": "02000000000101643321469295d0c73f0634e20c357937dd113ace04293f2a58cb9a8600bac3acf400000000fffffffd0126010000000000001600147a665de7a370f4c9b372ab1fae587500a5bcbdb403406d487eaddb9924f059b128b5e663fef2f0f076a95cab64ddd9e382e45b0879b5fad3424ee45ea0ced5b77f64aa4d38c034bf31f76c15b2587efaf50de621e3eb6d20e6780726bfcaa0d124d5208b5d1b33cd7fc25d2cf8d81a6e3508bf2ad73dc184ac0063036f726401010a746578742f706c61696e00357b2270223a226272632d3230222c226f70223a226d696e74222c227469636b223a22646f6765222c22616d74223a2234323030227d6821c0e6780726bfcaa0d124d5208b5d1b33cd7fc25d2cf8d81a6e3508bf2ad73dc18400000000"
}