{
  "txid": "0490bdc0933495c993bc551d6b34b7dbcb89a807f39d12d9118de54c3b2443fa",
  "version": 2,
  "locktime": 0,
  "vin": [
    {
      "txid": "142ef084bce05900e3573b85abd7d51e79e516481f675f0769a1eb325d824159",
      "vout": 0,
      "prevout": {
        "scriptpubkey": "0014dd1725400936af0ed47ff5960f0d20efe43ab677",
        "scriptpubkey_asm": "OP_0 OP_PUSHBYTES_20 dd1725400936af0ed47ff5960f0d20efe43ab677",
        "scriptpubkey_type": "v0_p2wpkh",
        "scriptpubkey_address": "bc1qm5tj2sqfx6hsa4rl7ktq7rfqaljr4dnhjkr6qc",
        "value": 2327626
      },
      "scriptsig": "",
      "scriptsig_asm": "",
      "witness": [
        "304402200a8dbf9cca96d0397455be45c932b04763073578a1e247b50188ca574db4a2a90220547c794db0e98d8e153ced02b20e0f551526052c741a70f249bd0319798edcd601",
        "02c0d2370fea59204d8d352345c0d232a8b3460db53dcb7967bb51a50f5682cfee"
      ],
      "is_coinbase": false,
      "sequence": 4294967295
    }
  ],
  "vout": [
    {
      "scriptpubkey": "0014dd1725400936af0ed47ff5960f0d20efe43ab677",
      "scriptpubkey_asm": "OP_0 OP_PUSHBYTES_20 dd1725400936af0ed47ff5960f0d20efe43ab677",
      "scriptpubkey_type": "v0_p2wpkh",
      "scriptpubkey_address": "bc1qm5tj2sqfx6hsa4rl7ktq7rfqaljr4dnhjkr6qc",
      "value": 1260153
    },
    {
      "scriptpubkey": "0014db6a0afa44d9684dd25cf294614e3d916300ae2c",
      "scriptpubkey_asm": "OP_0 OP_PUSHBYTES_20 db6a0afa44d9684dd25cf294614e3d916300ae2c",
      "scriptpubkey_type": "v0_p2wpkh",
      "scriptpubkey_address": "bc1qmd4q47jym95ym5ju722xzn3aj93spt3vg4l80n",
      "value": 1065223
    }
  ],
  "size": 222,
  "weight": 561,
  "fee": 2250,
  "status": {
    "confirmed": true,
    "block_height": 834638,
    "block_hash": "000000000000000000025f742c626208ac87e0b7d15054abb4a19ca2d735a54e",
    "block_time": 1710405325
  },
  "hex": "020000000001015941825d32eba169075f671f4816e5791ed5d7ab853b57e30059e0bc84f02e140000000000ffffffff02793a130000000000160014dd1725400936af0ed47ff5960f0d20efe43ab6770741100000000000160014db6a0afa44d9684dd25cf294614e3d916300ae2c0247304402200a8dbf9cca96d0397455be45c932b04763073578a1e247b50188ca574db4a2a90220547c794db0e98d8e153ced02b20e0f551526052c741a70f249bd0319798edcd6012102c0d2370fea59204d8d352345c0d232a8b3460db53dcb7967bb51a50f5682cfee00000000"
}