{
  "txid": "04b98ccd521cd715ddef40d5d75d46a3c7ce6416be6aa61b8e51fd6374dd9b7b",
  "version": 1,
  "locktime": 0,
  "vin": [
    {
      "txid": "e0d35ee48e0e167cc98555970e99b74e424427b25197938599076e150fa1f613",
      "vout": 1,
      "prevout": {
        "scriptpubkey": "76a914ea2e6f4e4fcdec792bdd132390df7fc147fd345788ac",
        "scriptpubkey_asm": "OP_DUP OP_HASH160 OP_PUSHBYTES_20 ea2e6f4e4fcdec792bdd132390df7fc147fd3457 OP_EQUALVERIFY OP_CHECKSIG",
        "scriptpubkey_type": "p2pkh",
        "scriptpubkey_address": "1NMEkEaArNzkNSkVnSGrfEp2ByLcsZhoTk",
        "value": 23331
      },
      "scriptsig": "483045022100c2503c0576c2de6eefd456a6bda103c9833e96b9b6498923b0b4ad3f9ca6c6ec02203552211a55ecf694dd826ecdb72f22368ff64b3c6d2a527f14ba88b79173c522012103f3631e3b6a0dda132f5daf19105e3c3d725b8ee0526e35877d8c9e5484ed7b68",
      "scriptsig_asm": "OP_PUSHBYTES_72 3045022100c2503c0576c2de6eefd456a6bda103c9833e96b9b6498923b0b4ad3f9ca6c6ec02203552211a55ecf694dd826ecdb72f22368ff64b3c6d2a527f14ba88b79173c52201 OP_PUSHBYTES_33 03f3631e3b6a0dda132f5daf19105e3c3d725b8ee0526e35877d8c9e5484ed7b68",
      "is_coinbase": false,
      "sequence": 4294967295
    }
  ],
  "vout": [
    {
      "scriptpubkey": "a9142d84e229406e781e23376a045cc158600e7a2fe687",
      "scriptpubkey_asm": "OP_HASH160 OP_PUSHBYTES_20 2d84e229406e781e23376a045cc158600e7a2fe6 OP_EQUAL",
      "scriptpubkey_type": "p2sh",
      "scriptpubkey_address": "35qhX5ZoX8Le1ZLXkHu4JoBk2xByFhgcaC",
      "value": 16338
    },
    {
      "scriptpubkey": "76a914d31835bb86c358f5f4e2f7bc1b28a78da8943b2588ac",
      "scriptpubkey_asm": "OP_DUP OP_HASH160 OP_PUSHBYTES_20 d31835bb86c358f5f4e2f7bc1b28a78da8943b25 OP_EQUALVERIFY OP_CHECKSIG",
      "scriptpubkey_type": "p2pkh",
      "scriptpubkey_address": "1LFAacKrFFB4p1GrZgK6RZuxe5UQq8oozo",
      "value": 2925
    }
  ],
  "size": 224,
  "weight": 896,
  "fee": 4068,
  "status": {
    "confirmed": true,
    "block_height": 834638,
    "block_hash": "000000000000000000025f742c626208ac87e0b7d15054abb4a19ca2d735a54e",
    "block_time": 1710405325
  },
  "hex": "010000000113f6a10f156e079985939751b22744424eb7990e975585c97c160e8ee45ed3e0010000006b483045022100c2503c0576c2de6eefd456a6bda103c9833e96b9b6498923b0b4ad3f9ca6c6ec02203552211a55ecf694dd826ecdb72f22368ff64b3c6d2a527f14ba88b79173c522012103f3631e3b6a0dda132f5daf19105e3c3d725b8ee0526e35877d8c9e5484ed7b68ffffffff02d23f00000000000017a9142d84e229406e781e23376a045cc158600e7a2fe6876d0b0000000000001976a914d31835bb86c358f5f4e2f7bc1b28a78da8943b2588ac00000000"
}