{
  "txid": "04ba9160b2dd5ec462d5e5012ad7a3486b24e195e239c4e44e3ae5c99c7c54d7",
  "version": 1,
  "locktime": 0,
  "vin": [
    {
      "txid": "88888882d254496b02c3b4564e7ca2840b3813efeb4ed65d9fd4887e4e4ef656",
      "vout": 0,
      "prevout": {
        "scriptpubkey": "5120ae366fb29154c28efe72d28810dbca1aad173f14ba3a4f396179b0479a6baf56",
        "scriptpubkey_asm": "OP_PUSHNUM_1 OP_PUSHBYTES_32 ae366fb29154c28efe72d28810dbca1aad173f14ba3a4f396179b0479a6baf56",
        "scriptpubkey_type": "v1_p2tr",
        "scriptpubkey_address": "bc1p4cmxlv532npgalnj62yppk72r2k3w0c5hgay7wtp0xcy0xnt4atqt4x2d6",
        "value": 11627
      },
      "scriptsig": "",
      "scriptsig_asm": "",
      "witness": [
        "cc663041c1deb9c87e36c2637f2a1f9b5232b8cd87e84496c9f0835173dd31e2951629e42479ae6e3d6b60b8b1b6abf4469e908df7a41e43a7c33330779fcf4783",
        "20930d4ffacedaeeda983fbe6875a3f39bad4c323e8346d8dda5652f8cfd9db2eaac00630461746f6d03646d7442a16461726773a468626974776f726b6367383838383838386b6d696e745f7469636b657268696e66696e697479656e6f6e63651a0031966d6474696d651a65dc6ad168",
        "c0930d4ffacedaeeda983fbe6875a3f39bad4c323e8346d8dda5652f8cfd9db2ea"
      ],
      "is_coinbase": false,
      "sequence": 4294967293
    }
  ],
  "vout": [
    {
      "scriptpubkey": "5120bf94882e5d0c036449dc3f1782adc8fe707e6d03ea0ecdd97e048b8da94a44b1",
      "scriptpubkey_asm": "OP_PUSHNUM_1 OP_PUSHBYTES_32 bf94882e5d0c036449dc3f1782adc8fe707e6d03ea0ecdd97e048b8da94a44b1",
      "scriptpubkey_type": "v1_p2tr",
      "scriptpubkey_address": "bc1ph72gstjapspkgjwu8utc9twglec8umgrag8vmkt7qj9cm222gjcsurlt3p",
      "value": 9999
    }
  ],
  "size": 311,
  "weight": 593,
  "fee": 1628,
  "status": {
    "confirmed": true,
    "block_height": 834464,
    "block_hash": "0000000000000000000177a0869a911a2b65c9bdcd5a8bcb02b68f305bee848e",
    "block_time": 1710308296
  },
  "hex": "0100000000010156f64e4e7e88d49f5dd64eebef13380b84a27c4e56b4c3026b4954d2828888880000000000fdffffff010f27000000000000225120bf94882e5d0c036449dc3f1782adc8fe707e6d03ea0ecdd97e048b8da94a44b10341cc663041c1deb9c87e36c2637f2a1f9b5232b8cd87e84496c9f0835173dd31e2951629e42479ae6e3d6b60b8b1b6abf4469e908df7a41e43a7c33330779fcf47837120930d4ffacedaeeda983fbe6875a3f39bad4c323e8346d8dda5652f8cfd9db2eaac00630461746f6d03646d7442a16461726773a468626974776f726b6367383838383838386b6d696e745f7469636b657268696e66696e697479656e6f6e63651a0031966d6474696d651a65dc6ad16821c0930d4ffacedaeeda983fbe6875a3f39bad4c323e8346d8dda5652f8cfd9db2ea00000000"
}