{
  "txid": "04ca6e279ae6f0a1d10b55b3c9193f686f354c317b9577b425de57fb80294d91",
  "version": 2,
  "locktime": 0,
  "vin": [
    {
      "txid": "9d34c9b4cf094d63b2f332725b20376d9a2f36b1da15e9ed094102d5d7fbb267",
      "vout": 0,
      "prevout": {
        "scriptpubkey": "51206205777949279542c65379e6c59da08f50de9dc5639c9c8328293dcf077c438c",
        "scriptpubkey_asm": "OP_PUSHNUM_1 OP_PUSHBYTES_32 6205777949279542c65379e6c59da08f50de9dc5639c9c8328293dcf077c438c",
        "scriptpubkey_type": "v1_p2tr",
        "scriptpubkey_address": "bc1pvgzhw72fy72593jn08nvt8dq3agda8w9vwwfeqeg9y7u7pmugwxqgldaxx",
        "value": 546
      },
      "scriptsig": "",
      "scriptsig_asm": "",
      "witness": [
        "24fedb62effc9921a588229efbc3804d2a708ec0832ec73171e291c4475f6be55b21b279f13bad3cf5388238f5da01e57c35d4582bf30d0e8d9e2e17a31a09ba83"
      ],
      "is_coinbase": false,
      "sequence": 4294967295
    },
    {
      "txid": "02ea67506a179f076b3e4babd0c3096386f2253d5696b57575491de4c570e43d",
      "vout": 1,
      "prevout": {
        "scriptpubkey": "a9149cc53598ce78ec0b6be35eefe8cb33017373c0d887",
        "scriptpubkey_asm": "OP_HASH160 OP_PUSHBYTES_20 9cc53598ce78ec0b6be35eefe8cb33017373c0d8 OP_EQUAL",
        "scriptpubkey_type": "p2sh",
        "scriptpubkey_address": "3FywapHT4h45FRMZVS5Du4tgFjYCSUwKjo",
        "value": 50807
      },
      "scriptsig": "160014a7439acfad8da3e9950ed70083ab31f3de7b0fdd",
      "scriptsig_asm": "OP_PUSHBYTES_22 0014a7439acfad8da3e9950ed70083ab31f3de7b0fdd",
      "witness": [
        "304402202e0c2f9dfddca000262cda9420958fbd34f00dfe33c1c7963b250d3fe0ba1f2902206ee9b2375002177bc20045f3ff21f44634909903dc29c9b54ca1e8f95d9bae1701",
        "02d20705a506152085f1d1f2cb61a96b64fd8d4b29c21befe1538be57f5303bffd"
      ],
      "is_coinbase": false,
      "sequence": 4294967295,
      "inner_redeemscript_asm": "OP_0 OP_PUSHBYTES_20 a7439acfad8da3e9950ed70083ab31f3de7b0fdd"
    },
    {
      "txid": "535362360abc966ebba772f9296130039b17193ab96d828f4d3473d9d5ca298d",
      "vout": 2,
      "prevout": {
        "scriptpubkey": "a9149cc53598ce78ec0b6be35eefe8cb33017373c0d887",
        "scriptpubkey_asm": "OP_HASH160 OP_PUSHBYTES_20 9cc53598ce78ec0b6be35eefe8cb33017373c0d8 OP_EQUAL",
        "scriptpubkey_type": "p2sh",
        "scriptpubkey_address": "3FywapHT4h45FRMZVS5Du4tgFjYCSUwKjo",
        "value": 23097
      },
      "scriptsig": "160014a7439acfad8da3e9950ed70083ab31f3de7b0fdd",
      "scriptsig_asm": "OP_PUSHBYTES_22 0014a7439acfad8da3e9950ed70083ab31f3de7b0fdd",
      "witness": [
        "304402201cea8b5926d6b71f6f207cabfae7d615c8e247842328ee460a6bf595bb12c5de02202b25adec6327a96bc5e1798203a7675ccf2d0b53fac66cdc5556018d4173cad401",
        "02d20705a506152085f1d1f2cb61a96b64fd8d4b29c21befe1538be57f5303bffd"
      ],
      "is_coinbase": false,
      "sequence": 4294967295,
      "inner_redeemscript_asm": "OP_0 OP_PUSHBYTES_20 a7439acfad8da3e9950ed70083ab31f3de7b0fdd"
    },
    {
      "txid": "5229c99d7dbff689af5165f036ce037d9b637e0773ee1dc5ce66ac2cd3966f92",
      "vout": 1,
      "prevout": {
        "scriptpubkey": "a9149cc53598ce78ec0b6be35eefe8cb33017373c0d887",
        "scriptpubkey_asm": "OP_HASH160 OP_PUSHBYTES_20 9cc53598ce78ec0b6be35eefe8cb33017373c0d8 OP_EQUAL",
        "scriptpubkey_type": "p2sh",
        "scriptpubkey_address": "3FywapHT4h45FRMZVS5Du4tgFjYCSUwKjo",
        "value": 1348
      },
      "scriptsig": "160014a7439acfad8da3e9950ed70083ab31f3de7b0fdd",
      "scriptsig_asm": "OP_PUSHBYTES_22 0014a7439acfad8da3e9950ed70083ab31f3de7b0fdd",
      "witness": [
        "304402200a5879b1909e90aea85a65cfe9d56b94c5b928458894822d960e5b8bf95de23902206443aca03c4ab3a77981e934fa07ddcfc62064ca5686ba362a407b0ce079a4e901",
        "02d20705a506152085f1d1f2cb61a96b64fd8d4b29c21befe1538be57f5303bffd"
      ],
      "is_coinbase": false,
      "sequence": 4294967295,
      "inner_redeemscript_asm": "OP_0 OP_PUSHBYTES_20 a7439acfad8da3e9950ed70083ab31f3de7b0fdd"
    }
  ],
  "vout": [
    {
      "scriptpubkey": "51206205777949279542c65379e6c59da08f50de9dc5639c9c8328293dcf077c438c",
      "scriptpubkey_asm": "OP_PUSHNUM_1 OP_PUSHBYTES_32 6205777949279542c65379e6c59da08f50de9dc5639c9c8328293dcf077c438c",
      "scriptpubkey_type": "v1_p2tr",
      "scriptpubkey_address": "bc1pvgzhw72fy72593jn08nvt8dq3agda8w9vwwfeqeg9y7u7pmugwxqgldaxx",
      "value": 546
    },
    {
      "scriptpubkey": "00206fbdc2398681e4f0db2fb0e3e2a9216fa9585afcfd8e25224dcf10a55ab28ca3",
      "scriptpubkey_asm": "OP_0 OP_PUSHBYTES_32 6fbdc2398681e4f0db2fb0e3e2a9216fa9585afcfd8e25224dcf10a55ab28ca3",
      "scriptpubkey_type": "v0_p2wsh",
      "scriptpubkey_address": "bc1qd77uywvxs8j0pke0kr3792fpd754skhulk8z2gjdeug22k4j3j3sggfy4p",
      "value": 3469
    },
    {
      "scriptpubkey": "a9149cc53598ce78ec0b6be35eefe8cb33017373c0d887",
      "scriptpubkey_asm": "OP_HASH160 OP_PUSHBYTES_20 9cc53598ce78ec0b6be35eefe8cb33017373c0d8 OP_EQUAL",
      "scriptpubkey_type": "p2sh",
      "scriptpubkey_address": "3FywapHT4h45FRMZVS5Du4tgFjYCSUwKjo",
      "value": 2935
    }
  ],
  "size": 751,
  "weight": 1834,
  "fee": 68848,
  "status": {
    "confirmed": true,
    "block_height": 834460,
    "block_hash": "00000000000000000000484a79b643b2524bbce82e5d8a442013fa5b8905ed98",
    "block_time": 1710307468
  },
  "hex": "0200000000010467b2fbd7d5024109ede915dab1362f9a6d37205b7232f3b2634d09cfb4c9349d0000000000ffffffff3de470c5e41d497575b596563d25f2866309c3d0ab4b3e6b079f176a5067ea020100000017160014a7439acfad8da3e9950ed70083ab31f3de7b0fddffffffff8d29cad5d973344d8f826db93a19179b03306129f972a7bb6e96bc0a366253530200000017160014a7439acfad8da3e9950ed70083ab31f3de7b0fddffffffff926f96d32cac66cec51dee73077e639b7d03ce36f06551af89f6bf7d9dc929520100000017160014a7439acfad8da3e9950ed70083ab31f3de7b0fddffffffff0322020000000000002251206205777949279542c65379e6c59da08f50de9dc5639c9c8328293dcf077c438c8d0d0000000000002200206fbdc2398681e4f0db2fb0e3e2a9216fa9585afcfd8e25224dcf10a55ab28ca3770b00000000000017a9149cc53598ce78ec0b6be35eefe8cb33017373c0d887014124fedb62effc9921a588229efbc3804d2a708ec0832ec73171e291c4475f6be55b21b279f13bad3cf5388238f5da01e57c35d4582bf30d0e8d9e2e17a31a09ba830247304402202e0c2f9dfddca000262cda9420958fbd34f00dfe33c1c7963b250d3fe0ba1f2902206ee9b2375002177bc20045f3ff21f44634909903dc29c9b54ca1e8f95d9bae17012102d20705a506152085f1d1f2cb61a96b64fd8d4b29c21befe1538be57f5303bffd0247304402201cea8b5926d6b71f6f207cabfae7d615c8e247842328ee460a6bf595bb12c5de02202b25adec6327a96bc5e1798203a7675ccf2d0b53fac66cdc5556018d4173cad4012102d20705a506152085f1d1f2cb61a96b64fd8d4b29c21befe1538be57f5303bffd0247304402200a5879b1909e90aea85a65cfe9d56b94c5b928458894822d960e5b8bf95de23902206443aca03c4ab3a77981e934fa07ddcfc62064ca5686ba362a407b0ce079a4e9012102d20705a506152085f1d1f2cb61a96b64fd8d4b29c21befe1538be57f5303bffd00000000"
}