{
  "txid": "04f329b2c220448826b3b58d03192014a2bd6f8c987e5a55dd58609b258d3432",
  "version": 1,
  "locktime": 0,
  "vin": [
    {
      "txid": "2e53921225da7352a698693f0cc1f006da8aaa5e36de0b450bd6fc26e9c8d5f1",
      "vout": 1,
      "prevout": {
        "scriptpubkey": "0014559fb241640fc6fae973a8a3d40070ad7cabc862",
        "scriptpubkey_asm": "OP_0 OP_PUSHBYTES_20 559fb241640fc6fae973a8a3d40070ad7cabc862",
        "scriptpubkey_type": "v0_p2wpkh",
        "scriptpubkey_address": "bc1q2k0mystyplr046tn4z3agqrs4472hjrzgxl2sk",
        "value": 16651
      },
      "scriptsig": "",
      "scriptsig_asm": "",
      "witness": [
        "304402207f9369d2a2b7aefe6a1e29506907240695818ec0ddba38c2783ccf09c2bcc3be02205d72f967c75fc1f3b583da3a6ffd64b5a02d5652ada73b8c703ccb7399b7954101",
        "0289533505f32ce23084948480b2008b008d09b36684725ce1ef920d78e702c237"
      ],
      "is_coinbase": false,
      "sequence": 4294967295
    },
    {
      "txid": "ca03a52bd00f922b322235dfe5aa46c82649deabb4c129ab1e007623396b65fc",
      "vout": 0,
      "prevout": {
        "scriptpubkey": "00149cdd2b5a2a49a14614ec4f649a2e2079332149ce",
        "scriptpubkey_asm": "OP_0 OP_PUSHBYTES_20 9cdd2b5a2a49a14614ec4f649a2e2079332149ce",
        "scriptpubkey_type": "v0_p2wpkh",
        "scriptpubkey_address": "bc1qnnwjkk32fxs5v98vfajf5t3q0yejzjwwz7krac",
        "value": 270000
      },
      "scriptsig": "",
      "scriptsig_asm": "",
      "witness": [
        "3045022100aafa578be138acf9441a2cc5a0f9fedbda29c9d5d47af4732b5019b17cbf2eba022042a8256a5692cbc5fce6e84823128788d6e849bd38f04229ba952edddfd3739701",
        "030e2d943d887dbc83de5e35ac399047138523e05022f0eb6b42647c29c8672e28"
      ],
      "is_coinbase": false,
      "sequence": 4294967295
    }
  ],
  "vout": [
    {
      "scriptpubkey": "00141080201f37a67531eaf3d043e82dcaf8ee94eb31",
      "scriptpubkey_asm": "OP_0 OP_PUSHBYTES_20 1080201f37a67531eaf3d043e82dcaf8ee94eb31",
      "scriptpubkey_type": "v0_p2wpkh",
      "scriptpubkey_address": "bc1qzzqzq8eh5e6nr6hn6pp7stw2lrhff6e38tjghr",
      "value": 34259
    },
    {
      "scriptpubkey": "0014cb7ecbf29fa43af4578f54709bc206572e044842",
      "scriptpubkey_asm": "OP_0 OP_PUSHBYTES_20 cb7ecbf29fa43af4578f54709bc206572e044842",
      "scriptpubkey_type": "v0_p2wpkh",
      "scriptpubkey_address": "bc1qedlvhu5l5sa0g4u023cfhssx2uhqgjzzyvyfpa",
      "value": 249278
    }
  ],
  "size": 371,
  "weight": 833,
  "fee": 3114,
  "status": {
    "confirmed": true,
    "block_height": 834638,
    "block_hash": "000000000000000000025f742c626208ac87e0b7d15054abb4a19ca2d735a54e",
    "block_time": 1710405325
  },
  "hex": "01000000000102f1d5c8e926fcd60b450bde365eaa8ada06f0c10c3f6998a65273da251292532e0100000000fffffffffc656b392376001eab29c1b4abde4926c846aae5df3522322b920fd02ba503ca0000000000ffffffff02d3850000000000001600141080201f37a67531eaf3d043e82dcaf8ee94eb31becd030000000000160014cb7ecbf29fa43af4578f54709bc206572e0448420247304402207f9369d2a2b7aefe6a1e29506907240695818ec0ddba38c2783ccf09c2bcc3be02205d72f967c75fc1f3b583da3a6ffd64b5a02d5652ada73b8c703ccb7399b7954101210289533505f32ce23084948480b2008b008d09b36684725ce1ef920d78e702c23702483045022100aafa578be138acf9441a2cc5a0f9fedbda29c9d5d47af4732b5019b17cbf2eba022042a8256a5692cbc5fce6e84823128788d6e849bd38f04229ba952edddfd373970121030e2d943d887dbc83de5e35ac399047138523e05022f0eb6b42647c29c8672e2800000000"
}