{
  "txid": "05029a5f51f975ef455256255acb1e801c126b2c5a09b7d439b37d9f1bed42c1",
  "version": 2,
  "locktime": 0,
  "vin": [
    {
      "txid": "308bf3c6834370df6e71d67a006d980a3c006e49674f958988b3f7bcbb16b361",
      "vout": 1,
      "prevout": {
        "scriptpubkey": "5120eccc06b1aa586e33a3d06875df1e4cd4daaa22b8582d89726f191840ab41ed0e",
        "scriptpubkey_asm": "OP_PUSHNUM_1 OP_PUSHBYTES_32 eccc06b1aa586e33a3d06875df1e4cd4daaa22b8582d89726f191840ab41ed0e",
        "scriptpubkey_type": "v1_p2tr",
        "scriptpubkey_address": "bc1panxqdvd2tphr8g7sdp6a78jv6nd25g4ctqkcjun0ryvyp26pa58q5jqqk2",
        "value": 32953
      },
      "scriptsig": "",
      "scriptsig_asm": "",
      "witness": [
        "687f21a497d7d0a11edee1c48ea530c56b34632fb458da31b907d58ca54310d23399fd0b792d714ffcd4b05f5b79f3ad32fc2a610d1fe0abcd37043563bc17f5"
      ],
      "is_coinbase": false,
      "sequence": 4294967295
    },
    {
      "txid": "ecbdfad8bd55e82791907c3d7a9fa8117ceaf58a1f832df291492930d70fd09c",
      "vout": 3,
      "prevout": {
        "scriptpubkey": "5120eccc06b1aa586e33a3d06875df1e4cd4daaa22b8582d89726f191840ab41ed0e",
        "scriptpubkey_asm": "OP_PUSHNUM_1 OP_PUSHBYTES_32 eccc06b1aa586e33a3d06875df1e4cd4daaa22b8582d89726f191840ab41ed0e",
        "scriptpubkey_type": "v1_p2tr",
        "scriptpubkey_address": "bc1panxqdvd2tphr8g7sdp6a78jv6nd25g4ctqkcjun0ryvyp26pa58q5jqqk2",
        "value": 12785
      },
      "scriptsig": "",
      "scriptsig_asm": "",
      "witness": [
        "25dfdea42c4b29728849915fb7e859750010481b6a5e6eddab40961d7c7e9a9977f2f701249f0337fd6ba77fdd6df77550be1f708828d7929aabc13029b44ebb"
      ],
      "is_coinbase": false,
      "sequence": 4294967295
    },
    {
      "txid": "0392ebb5ceca56c9ffb8c7a9f5d39b15733d878bea99313b53219c56cde1a409",
      "vout": 1,
      "prevout": {
        "scriptpubkey": "5120eccc06b1aa586e33a3d06875df1e4cd4daaa22b8582d89726f191840ab41ed0e",
        "scriptpubkey_asm": "OP_PUSHNUM_1 OP_PUSHBYTES_32 eccc06b1aa586e33a3d06875df1e4cd4daaa22b8582d89726f191840ab41ed0e",
        "scriptpubkey_type": "v1_p2tr",
        "scriptpubkey_address": "bc1panxqdvd2tphr8g7sdp6a78jv6nd25g4ctqkcjun0ryvyp26pa58q5jqqk2",
        "value": 2137
      },
      "scriptsig": "",
      "scriptsig_asm": "",
      "witness": [
        "33165ea664bff924309773f7cf1dbd77da7e84035d2f7a8a3d8c94a3e8dd96db795313d91b8007866d6482f38c7ed9138425f37a194df77d5d1468911ee2592f"
      ],
      "is_coinbase": false,
      "sequence": 4294967295
    },
    {
      "txid": "457db3daaf7ece3337eeadd0dafb1769c048b5d192211fbab9d23c7abf0fe82e",
      "vout": 9,
      "prevout": {
        "scriptpubkey": "5120eccc06b1aa586e33a3d06875df1e4cd4daaa22b8582d89726f191840ab41ed0e",
        "scriptpubkey_asm": "OP_PUSHNUM_1 OP_PUSHBYTES_32 eccc06b1aa586e33a3d06875df1e4cd4daaa22b8582d89726f191840ab41ed0e",
        "scriptpubkey_type": "v1_p2tr",
        "scriptpubkey_address": "bc1panxqdvd2tphr8g7sdp6a78jv6nd25g4ctqkcjun0ryvyp26pa58q5jqqk2",
        "value": 600
      },
      "scriptsig": "",
      "scriptsig_asm": "",
      "witness": [
        "e42ddfb5b63bebfba9bdb0f3fade493f183abcf88d696bb1e05ebee52194d9d951107cfcee6413644b3d50aa198a9283040bdad3e780803eaa12c9fd1d9b3614"
      ],
      "is_coinbase": false,
      "sequence": 4294967295
    },
    {
      "txid": "457db3daaf7ece3337eeadd0dafb1769c048b5d192211fbab9d23c7abf0fe82e",
      "vout": 8,
      "prevout": {
        "scriptpubkey": "5120eccc06b1aa586e33a3d06875df1e4cd4daaa22b8582d89726f191840ab41ed0e",
        "scriptpubkey_asm": "OP_PUSHNUM_1 OP_PUSHBYTES_32 eccc06b1aa586e33a3d06875df1e4cd4daaa22b8582d89726f191840ab41ed0e",
        "scriptpubkey_type": "v1_p2tr",
        "scriptpubkey_address": "bc1panxqdvd2tphr8g7sdp6a78jv6nd25g4ctqkcjun0ryvyp26pa58q5jqqk2",
        "value": 600
      },
      "scriptsig": "",
      "scriptsig_asm": "",
      "witness": [
        "d73c6f5f1ee8f155db10c332219e144b0771f4e097ab73c2815dd7cefe52413e0102422d73d3a92e66e39d671e9d399324e1f63b9d1ada02280085541f749d65"
      ],
      "is_coinbase": false,
      "sequence": 4294967295
    },
    {
      "txid": "457db3daaf7ece3337eeadd0dafb1769c048b5d192211fbab9d23c7abf0fe82e",
      "vout": 7,
      "prevout": {
        "scriptpubkey": "5120eccc06b1aa586e33a3d06875df1e4cd4daaa22b8582d89726f191840ab41ed0e",
        "scriptpubkey_asm": "OP_PUSHNUM_1 OP_PUSHBYTES_32 eccc06b1aa586e33a3d06875df1e4cd4daaa22b8582d89726f191840ab41ed0e",
        "scriptpubkey_type": "v1_p2tr",
        "scriptpubkey_address": "bc1panxqdvd2tphr8g7sdp6a78jv6nd25g4ctqkcjun0ryvyp26pa58q5jqqk2",
        "value": 600
      },
      "scriptsig": "",
      "scriptsig_asm": "",
      "witness": [
        "6d057c2b4e9e8d7f09526a5e6ee6445b5986e1c279e4a6f352717b71c1cdccab63aae7558daf1c109b0cd05ffe53071e780396f6dd75e668ba600b02f709606f"
      ],
      "is_coinbase": false,
      "sequence": 4294967295
    },
    {
      "txid": "457db3daaf7ece3337eeadd0dafb1769c048b5d192211fbab9d23c7abf0fe82e",
      "vout": 6,
      "prevout": {
        "scriptpubkey": "5120eccc06b1aa586e33a3d06875df1e4cd4daaa22b8582d89726f191840ab41ed0e",
        "scriptpubkey_asm": "OP_PUSHNUM_1 OP_PUSHBYTES_32 eccc06b1aa586e33a3d06875df1e4cd4daaa22b8582d89726f191840ab41ed0e",
        "scriptpubkey_type": "v1_p2tr",
        "scriptpubkey_address": "bc1panxqdvd2tphr8g7sdp6a78jv6nd25g4ctqkcjun0ryvyp26pa58q5jqqk2",
        "value": 600
      },
      "scriptsig": "",
      "scriptsig_asm": "",
      "witness": [
        "a9e6c16969925ed8565b6c1b53d87a89268f2f610bda7287d63d34d0018f6163d277da71a092714fb8bf7e051bbe50e9eb24301059e386b5e623d43cb3626e0d"
      ],
      "is_coinbase": false,
      "sequence": 4294967295
    },
    {
      "txid": "457db3daaf7ece3337eeadd0dafb1769c048b5d192211fbab9d23c7abf0fe82e",
      "vout": 5,
      "prevout": {
        "scriptpubkey": "5120eccc06b1aa586e33a3d06875df1e4cd4daaa22b8582d89726f191840ab41ed0e",
        "scriptpubkey_asm": "OP_PUSHNUM_1 OP_PUSHBYTES_32 eccc06b1aa586e33a3d06875df1e4cd4daaa22b8582d89726f191840ab41ed0e",
        "scriptpubkey_type": "v1_p2tr",
        "scriptpubkey_address": "bc1panxqdvd2tphr8g7sdp6a78jv6nd25g4ctqkcjun0ryvyp26pa58q5jqqk2",
        "value": 600
      },
      "scriptsig": "",
      "scriptsig_asm": "",
      "witness": [
        "01a2742ab00e6d961ff92eca78ad843ab7b45fb228bd1855c5b222c1db4dfc49425c208b17cf9169743918be65881025bf363b8f7427a16975a3d48955a51426"
      ],
      "is_coinbase": false,
      "sequence": 4294967295
    },
    {
      "txid": "457db3daaf7ece3337eeadd0dafb1769c048b5d192211fbab9d23c7abf0fe82e",
      "vout": 4,
      "prevout": {
        "scriptpubkey": "5120eccc06b1aa586e33a3d06875df1e4cd4daaa22b8582d89726f191840ab41ed0e",
        "scriptpubkey_asm": "OP_PUSHNUM_1 OP_PUSHBYTES_32 eccc06b1aa586e33a3d06875df1e4cd4daaa22b8582d89726f191840ab41ed0e",
        "scriptpubkey_type": "v1_p2tr",
        "scriptpubkey_address": "bc1panxqdvd2tphr8g7sdp6a78jv6nd25g4ctqkcjun0ryvyp26pa58q5jqqk2",
        "value": 600
      },
      "scriptsig": "",
      "scriptsig_asm": "",
      "witness": [
        "f050dd5bae86ee18fdf055070d50a548984f4aba6b7362d9a3d7ab55318efbaee59024fc197a267032479930af5f1017f516a0d944e5894b1b3354190ac1b050"
      ],
      "is_coinbase": false,
      "sequence": 4294967295
    },
    {
      "txid": "457db3daaf7ece3337eeadd0dafb1769c048b5d192211fbab9d23c7abf0fe82e",
      "vout": 3,
      "prevout": {
        "scriptpubkey": "5120eccc06b1aa586e33a3d06875df1e4cd4daaa22b8582d89726f191840ab41ed0e",
        "scriptpubkey_asm": "OP_PUSHNUM_1 OP_PUSHBYTES_32 eccc06b1aa586e33a3d06875df1e4cd4daaa22b8582d89726f191840ab41ed0e",
        "scriptpubkey_type": "v1_p2tr",
        "scriptpubkey_address": "bc1panxqdvd2tphr8g7sdp6a78jv6nd25g4ctqkcjun0ryvyp26pa58q5jqqk2",
        "value": 600
      },
      "scriptsig": "",
      "scriptsig_asm": "",
      "witness": [
        "8cae7e7c8afc8adc6462e13e01df151763e34c26c9df7dc6302e55bd54cd63e7a577d491f96177557385f68b09bf2ac7904b745e5e2c2ea018ab4525b44a7b08"
      ],
      "is_coinbase": false,
      "sequence": 4294967295
    },
    {
      "txid": "457db3daaf7ece3337eeadd0dafb1769c048b5d192211fbab9d23c7abf0fe82e",
      "vout": 2,
      "prevout": {
        "scriptpubkey": "5120eccc06b1aa586e33a3d06875df1e4cd4daaa22b8582d89726f191840ab41ed0e",
        "scriptpubkey_asm": "OP_PUSHNUM_1 OP_PUSHBYTES_32 eccc06b1aa586e33a3d06875df1e4cd4daaa22b8582d89726f191840ab41ed0e",
        "scriptpubkey_type": "v1_p2tr",
        "scriptpubkey_address": "bc1panxqdvd2tphr8g7sdp6a78jv6nd25g4ctqkcjun0ryvyp26pa58q5jqqk2",
        "value": 600
      },
      "scriptsig": "",
      "scriptsig_asm": "",
      "witness": [
        "c6514161ee3b188df9b0c230bc74c2f1f6bd2fea475a091a2de272ee4458169ee354a81fc809f934bac6908fcdc87f49d13c9b7de52529d765e23d2ebd06c05a"
      ],
      "is_coinbase": false,
      "sequence": 4294967295
    },
    {
      "txid": "457db3daaf7ece3337eeadd0dafb1769c048b5d192211fbab9d23c7abf0fe82e",
      "vout": 1,
      "prevout": {
        "scriptpubkey": "5120eccc06b1aa586e33a3d06875df1e4cd4daaa22b8582d89726f191840ab41ed0e",
        "scriptpubkey_asm": "OP_PUSHNUM_1 OP_PUSHBYTES_32 eccc06b1aa586e33a3d06875df1e4cd4daaa22b8582d89726f191840ab41ed0e",
        "scriptpubkey_type": "v1_p2tr",
        "scriptpubkey_address": "bc1panxqdvd2tphr8g7sdp6a78jv6nd25g4ctqkcjun0ryvyp26pa58q5jqqk2",
        "value": 600
      },
      "scriptsig": "",
      "scriptsig_asm": "",
      "witness": [
        "bb3dcc3d62d5cd29f18558769aa158ff43eef7e35bc1071480459a35098d96bc0e6972269d610ff0147265fcd71e5b4ded4710f00b59ec85e0377bd7a1627864"
      ],
      "is_coinbase": false,
      "sequence": 4294967295
    },
    {
      "txid": "457db3daaf7ece3337eeadd0dafb1769c048b5d192211fbab9d23c7abf0fe82e",
      "vout": 0,
      "prevout": {
        "scriptpubkey": "5120eccc06b1aa586e33a3d06875df1e4cd4daaa22b8582d89726f191840ab41ed0e",
        "scriptpubkey_asm": "OP_PUSHNUM_1 OP_PUSHBYTES_32 eccc06b1aa586e33a3d06875df1e4cd4daaa22b8582d89726f191840ab41ed0e",
        "scriptpubkey_type": "v1_p2tr",
        "scriptpubkey_address": "bc1panxqdvd2tphr8g7sdp6a78jv6nd25g4ctqkcjun0ryvyp26pa58q5jqqk2",
        "value": 600
      },
      "scriptsig": "",
      "scriptsig_asm": "",
      "witness": [
        "192f893d2db838ce6db002830c2f3196d6475e3105bcf183ff753c3ec005a30f097107cd31d1dcc6eb8ba7ba621c2896becd0c1544ec2519dab83aef0f8b5fb4"
      ],
      "is_coinbase": false,
      "sequence": 4294967295
    }
  ],
  "vout": [
    {
      "scriptpubkey": "512007dbff5228e3af7f125851b64349dda0b882aaa07e89266b68bbcc1387517f26",
      "scriptpubkey_asm": "OP_PUSHNUM_1 OP_PUSHBYTES_32 07dbff5228e3af7f125851b64349dda0b882aaa07e89266b68bbcc1387517f26",
      "scriptpubkey_type": "v1_p2tr",
      "scriptpubkey_address": "bc1pqldl753guwhh7yjc2xmyxjwa5zug924q06yjv6mgh0xp8p630unq9yucty",
      "value": 44263
    }
  ],
  "size": 1446,
  "weight": 3204,
  "fee": 9612,
  "status": {
    "confirmed": true,
    "block_height": 834460,
    "block_hash": "00000000000000000000484a79b643b2524bbce82e5d8a442013fa5b8905ed98",
    "block_time": 1710307468
  },
  "hex": "0200000000010d61b316bbbcf7b38889954f67496e003c0a986d007ad6716edf704383c6f38b300100000000ffffffff9cd00fd730294991f22d831f8af5ea7c11a89f7a3d7c909127e855bdd8fabdec0300000000ffffffff09a4e1cd569c21533b3199ea8b873d73159bd3f5a9c7b8ffc956caceb5eb92030100000000ffffffff2ee80fbf7a3cd2b9ba1f2192d1b548c06917fbdad0adee3733ce7eafdab37d450900000000ffffffff2ee80fbf7a3cd2b9ba1f2192d1b548c06917fbdad0adee3733ce7eafdab37d450800000000ffffffff2ee80fbf7a3cd2b9ba1f2192d1b548c06917fbdad0adee3733ce7eafdab37d450700000000ffffffff2ee80fbf7a3cd2b9ba1f2192d1b548c06917fbdad0adee3733ce7eafdab37d450600000000ffffffff2ee80fbf7a3cd2b9ba1f2192d1b548c06917fbdad0adee3733ce7eafdab37d450500000000ffffffff2ee80fbf7a3cd2b9ba1f2192d1b548c06917fbdad0adee3733ce7eafdab37d450400000000ffffffff2ee80fbf7a3cd2b9ba1f2192d1b548c06917fbdad0adee3733ce7eafdab37d450300000000ffffffff2ee80fbf7a3cd2b9ba1f2192d1b548c06917fbdad0adee3733ce7eafdab37d450200000000ffffffff2ee80fbf7a3cd2b9ba1f2192d1b548c06917fbdad0adee3733ce7eafdab37d450100000000ffffffff2ee80fbf7a3cd2b9ba1f2192d1b548c06917fbdad0adee3733ce7eafdab37d450000000000ffffffff01e7ac00000000000022512007dbff5228e3af7f125851b64349dda0b882aaa07e89266b68bbcc1387517f260140687f21a497d7d0a11edee1c48ea530c56b34632fb458da31b907d58ca54310d23399fd0b792d714ffcd4b05f5b79f3ad32fc2a610d1fe0abcd37043563bc17f5014025dfdea42c4b29728849915fb7e859750010481b6a5e6eddab40961d7c7e9a9977f2f701249f0337fd6ba77fdd6df77550be1f708828d7929aabc13029b44ebb014033165ea664bff924309773f7cf1dbd77da7e84035d2f7a8a3d8c94a3e8dd96db795313d91b8007866d6482f38c7ed9138425f37a194df77d5d1468911ee2592f0140e42ddfb5b63bebfba9bdb0f3fade493f183abcf88d696bb1e05ebee52194d9d951107cfcee6413644b3d50aa198a9283040bdad3e780803eaa12c9fd1d9b36140140d73c6f5f1ee8f155db10c332219e144b0771f4e097ab73c2815dd7cefe52413e0102422d73d3a92e66e39d671e9d399324e1f63b9d1ada02280085541f749d6501406d057c2b4e9e8d7f09526a5e6ee6445b5986e1c279e4a6f352717b71c1cdccab63aae7558daf1c109b0cd05ffe53071e780396f6dd75e668ba600b02f709606f0140a9e6c16969925ed8565b6c1b53d87a89268f2f610bda7287d63d34d0018f6163d277da71a092714fb8bf7e051bbe50e9eb24301059e386b5e623d43cb3626e0d014001a2742ab00e6d961ff92eca78ad843ab7b45fb228bd1855c5b222c1db4dfc49425c208b17cf9169743918be65881025bf363b8f7427a16975a3d48955a514260140f050dd5bae86ee18fdf055070d50a548984f4aba6b7362d9a3d7ab55318efbaee59024fc197a267032479930af5f1017f516a0d944e5894b1b3354190ac1b05001408cae7e7c8afc8adc6462e13e01df151763e34c26c9df7dc6302e55bd54cd63e7a577d491f96177557385f68b09bf2ac7904b745e5e2c2ea018ab4525b44a7b080140c6514161ee3b188df9b0c230bc74c2f1f6bd2fea475a091a2de272ee4458169ee354a81fc809f934bac6908fcdc87f49d13c9b7de52529d765e23d2ebd06c05a0140bb3dcc3d62d5cd29f18558769aa158ff43eef7e35bc1071480459a35098d96bc0e6972269d610ff0147265fcd71e5b4ded4710f00b59ec85e0377bd7a16278640140192f893d2db838ce6db002830c2f3196d6475e3105bcf183ff753c3ec005a30f097107cd31d1dcc6eb8ba7ba621c2896becd0c1544ec2519dab83aef0f8b5fb400000000"
}