{
  "txid": "051cb9b2c75d1be936bfeca2027d11be455df845c4f022108874b41e56f225df",
  "version": 2,
  "locktime": 0,
  "vin": [
    {
      "txid": "acc3ba00869acb582a3f2904ce3a11dd3779350ce234063fc7d0959246213364",
      "vout": 174,
      "prevout": {
        "scriptpubkey": "5120617904849c2a7c79c648dc2e88d4250694a93dace04e9078a328c97c7a7d8531",
        "scriptpubkey_asm": "OP_PUSHNUM_1 OP_PUSHBYTES_32 617904849c2a7c79c648dc2e88d4250694a93dace04e9078a328c97c7a7d8531",
        "scriptpubkey_type": "v1_p2tr",
        "scriptpubkey_address": "bc1pv9usfpyu9f78n3jgmshg34p9q622j0dvup8fq79r9ryhc7nas5cscrlgh2",
        "value": 1806
      },
      "scriptsig": "",
      "scriptsig_asm": "",
      "witness": [
        "2d62f7e7b7a1243c129c58f3096a681931c996a7d32a83e793a770c09255516347f6e7daa4da55863fe63ebd3f246b25ec331f99269515d8be13ec9372cad25c",
        "205ccfd81159420c21d986da08d9a2765047d1a8447e7d70ab1619ecdc8c2bddeaac0063036f726401010a746578742f706c61696e00357b2270223a226272632d3230222c226f70223a226d696e74222c227469636b223a22646f6765222c22616d74223a2234323030227d68",
        "c15ccfd81159420c21d986da08d9a2765047d1a8447e7d70ab1619ecdc8c2bddea"
      ],
      "is_coinbase": false,
      "sequence": 4261412863
    }
  ],
  "vout": [
    {
      "scriptpubkey": "00147a665de7a370f4c9b372ab1fae587500a5bcbdb4",
      "scriptpubkey_asm": "OP_0 OP_PUSHBYTES_20 7a665de7a370f4c9b372ab1fae587500a5bcbdb4",
      "scriptpubkey_type": "v0_p2wpkh",
      "scriptpubkey_address": "bc1q0fn9mearwr6vnvmj4v06ukr4qzjme0d565dzcx",
      "value": 294
    }
  ],
  "size": 294,
  "weight": 540,
  "fee": 1512,
  "status": {
    "confirmed": true,
    "block_height": 834460,
    "block_hash": "00000000000000000000484a79b643b2524bbce82e5d8a442013fa5b8905ed98",
    "block_time": 1710307468
  },
  "hex": "02000000000101643321469295d0c73f0634e20c357937dd113ace04293f2a58cb9a8600bac3acae00000000fffffffd0126010000000000001600147a665de7a370f4c9b372ab1fae587500a5bcbdb403402d62f7e7b7a1243c129c58f3096a681931c996a7d32a83e793a770c09255516347f6e7daa4da55863fe63ebd3f246b25ec331f99269515d8be13ec9372cad25c6d205ccfd81159420c21d986da08d9a2765047d1a8447e7d70ab1619ecdc8c2bddeaac0063036f726401010a746578742f706c61696e00357b2270223a226272632d3230222c226f70223a226d696e74222c227469636b223a22646f6765222c22616d74223a2234323030227d6821c15ccfd81159420c21d986da08d9a2765047d1a8447e7d70ab1619ecdc8c2bddea00000000"
}