{
  "txid": "052145eaa4e8adf7e9f349fb9b9bf32ddee6a852fabf3dd95c5c9fc03da0d8e4",
  "version": 2,
  "locktime": 0,
  "vin": [
    {
      "txid": "8486ecb4df0880316dd6e82b3971b4df187aff23765bc3a47f8d78bb53aa273c",
      "vout": 86,
      "prevout": {
        "scriptpubkey": "512036778603b3aa9e761a14aff2b0a24fbae3b940a9740f84a2edf47f100524fa1e",
        "scriptpubkey_asm": "OP_PUSHNUM_1 OP_PUSHBYTES_32 36778603b3aa9e761a14aff2b0a24fbae3b940a9740f84a2edf47f100524fa1e",
        "scriptpubkey_type": "v1_p2tr",
        "scriptpubkey_address": "bc1pxemcvqan4208vxs54letpgj0ht3mjs9fws8cfghd73l3qpfylg0q6xu055",
        "value": 2575
      },
      "scriptsig": "",
      "scriptsig_asm": "",
      "witness": [
        "079105178d5cbb6af9b403b2cb5455bfa5ea395a79b47be83f6ed9d0943a5c98ff5af2da89b5b3ced5a995ea732471aa9d68bac77b9b7984b826a00a126c1a33",
        "20fa1643ab05ec123a422ca5515c3dcc010248358e63ca59e173a532aa0165ed47ac0063036f726401010a746578742f706c61696e00367b2270223a226272632d3230222c226f70223a226d696e74222c227469636b223a2261616161222c22616d74223a223130303030227d68",
        "c0fa1643ab05ec123a422ca5515c3dcc010248358e63ca59e173a532aa0165ed47"
      ],
      "is_coinbase": false,
      "sequence": 4261412863
    }
  ],
  "vout": [
    {
      "scriptpubkey": "0014ddd7ef12ea6f78edcc1e8e7afa12c01ab59f3339",
      "scriptpubkey_asm": "OP_0 OP_PUSHBYTES_20 ddd7ef12ea6f78edcc1e8e7afa12c01ab59f3339",
      "scriptpubkey_type": "v0_p2wpkh",
      "scriptpubkey_address": "bc1qmht77yh2dauwmnq73ea05ykqr26e7veea8spz6",
      "value": 546
    }
  ],
  "size": 295,
  "weight": 541,
  "fee": 2029,
  "status": {
    "confirmed": true,
    "block_height": 834460,
    "block_hash": "00000000000000000000484a79b643b2524bbce82e5d8a442013fa5b8905ed98",
    "block_time": 1710307468
  },
  "hex": "020000000001013c27aa53bb788d7fa4c35b7623ff7a18dfb471392be8d66d318008dfb4ec86845600000000fffffffd012202000000000000160014ddd7ef12ea6f78edcc1e8e7afa12c01ab59f33390340079105178d5cbb6af9b403b2cb5455bfa5ea395a79b47be83f6ed9d0943a5c98ff5af2da89b5b3ced5a995ea732471aa9d68bac77b9b7984b826a00a126c1a336e20fa1643ab05ec123a422ca5515c3dcc010248358e63ca59e173a532aa0165ed47ac0063036f726401010a746578742f706c61696e00367b2270223a226272632d3230222c226f70223a226d696e74222c227469636b223a2261616161222c22616d74223a223130303030227d6821c0fa1643ab05ec123a422ca5515c3dcc010248358e63ca59e173a532aa0165ed4700000000"
}