{
  "txid": "0526ed2c7a5efb144983a4acf9ebad98d8eb8d33290b4f62ed48baa4170a0044",
  "version": 2,
  "locktime": 0,
  "vin": [
    {
      "txid": "40ee709427f4835298a457b60dac0113ce120b113e8434cb40c396deb857f183",
      "vout": 1,
      "prevout": {
        "scriptpubkey": "00142318c6b03ff73594c2054b0a552babcbfca229a5",
        "scriptpubkey_asm": "OP_0 OP_PUSHBYTES_20 2318c6b03ff73594c2054b0a552babcbfca229a5",
        "scriptpubkey_type": "v0_p2wpkh",
        "scriptpubkey_address": "bc1qyvvvdvpl7u6efss9fv9922ate072y2d9waclj8",
        "value": 583410
      },
      "scriptsig": "",
      "scriptsig_asm": "",
      "witness": [
        "3045022100e13ebc41609ad3e7b11a003ea312cfa1407d478ebb70b8a8d9ed27e337dfdd5502204f49467c25d1100ec269421f1e017238d25f6d2aacbfffd5f9d37c46668b04af01",
        "02e68111b22db4e66177b12c3608ac8e19edd0382ad86feff04e2b8a9e0d3d18e9"
      ],
      "is_coinbase": false,
      "sequence": 4294967295
    }
  ],
  "vout": [
    {
      "scriptpubkey": "001493e89a1929ab0d103b0c4da78797bf4f10af10e6",
      "scriptpubkey_asm": "OP_0 OP_PUSHBYTES_20 93e89a1929ab0d103b0c4da78797bf4f10af10e6",
      "scriptpubkey_type": "v0_p2wpkh",
      "scriptpubkey_address": "bc1qj05f5xff4vx3qwcvfknc09alfug27y8xgru9fw",
      "value": 808
    },
    {
      "scriptpubkey": "5121033622f4aec92554f36306ff4febebddab159689cf91c3d28bfd0ba5ef5bcf9dd121024a50b24a065794acd526abec09d37e22be2accdc8faaa69f9737ddeae58c7e402102020202020202020202020202020202020202020202020202020202020202020253ae",
      "scriptpubkey_asm": "OP_PUSHNUM_1 OP_PUSHBYTES_33 033622f4aec92554f36306ff4febebddab159689cf91c3d28bfd0ba5ef5bcf9dd1 OP_PUSHBYTES_33 024a50b24a065794acd526abec09d37e22be2accdc8faaa69f9737ddeae58c7e40 OP_PUSHBYTES_33 020202020202020202020202020202020202020202020202020202020202020202 OP_PUSHNUM_3 OP_CHECKMULTISIG",
      "scriptpubkey_type": "unknown",
      "value": 810
    },
    {
      "scriptpubkey": "512102a353da8f9e19a091f9ab7cf8d603a275a508f65deb5e6df06af835b5570f4c6c210323c1725463b2ddf6a795a75562f010d8defcd73f29f06b7a1eb5dd44579a65192102020202020202020202020202020202020202020202020202020202020202020253ae",
      "scriptpubkey_asm": "OP_PUSHNUM_1 OP_PUSHBYTES_33 02a353da8f9e19a091f9ab7cf8d603a275a508f65deb5e6df06af835b5570f4c6c OP_PUSHBYTES_33 0323c1725463b2ddf6a795a75562f010d8defcd73f29f06b7a1eb5dd44579a6519 OP_PUSHBYTES_33 020202020202020202020202020202020202020202020202020202020202020202 OP_PUSHNUM_3 OP_CHECKMULTISIG",
      "scriptpubkey_type": "unknown",
      "value": 810
    },
    {
      "scriptpubkey": "00142318c6b03ff73594c2054b0a552babcbfca229a5",
      "scriptpubkey_asm": "OP_0 OP_PUSHBYTES_20 2318c6b03ff73594c2054b0a552babcbfca229a5",
      "scriptpubkey_type": "v0_p2wpkh",
      "scriptpubkey_address": "bc1qyvvvdvpl7u6efss9fv9922ate072y2d9waclj8",
      "value": 566713
    }
  ],
  "size": 451,
  "weight": 1474,
  "fee": 14269,
  "status": {
    "confirmed": true,
    "block_height": 834638,
    "block_hash": "000000000000000000025f742c626208ac87e0b7d15054abb4a19ca2d735a54e",
    "block_time": 1710405325
  },
  "hex": "0200000000010183f157b8de96c340cb34843e110b12ce1301ac0db657a4985283f4279470ee400100000000ffffffff04280300000000000016001493e89a1929ab0d103b0c4da78797bf4f10af10e62a03000000000000695121033622f4aec92554f36306ff4febebddab159689cf91c3d28bfd0ba5ef5bcf9dd121024a50b24a065794acd526abec09d37e22be2accdc8faaa69f9737ddeae58c7e402102020202020202020202020202020202020202020202020202020202020202020253ae2a0300000000000069512102a353da8f9e19a091f9ab7cf8d603a275a508f65deb5e6df06af835b5570f4c6c210323c1725463b2ddf6a795a75562f010d8defcd73f29f06b7a1eb5dd44579a65192102020202020202020202020202020202020202020202020202020202020202020253aeb9a50800000000001600142318c6b03ff73594c2054b0a552babcbfca229a502483045022100e13ebc41609ad3e7b11a003ea312cfa1407d478ebb70b8a8d9ed27e337dfdd5502204f49467c25d1100ec269421f1e017238d25f6d2aacbfffd5f9d37c46668b04af012102e68111b22db4e66177b12c3608ac8e19edd0382ad86feff04e2b8a9e0d3d18e900000000"
}