{
  "txid": "05488e148ac6bae282b40e219778317eeb59e30e320f730e6dd3f65d60402d58",
  "version": 1,
  "locktime": 0,
  "vin": [
    {
      "txid": "cc183b54d325a7919c6d08cfaa203a259b4a691d8d01c94c97b44358f040cf9e",
      "vout": 1,
      "prevout": {
        "scriptpubkey": "00143e84be75854fa7f74dfddf1507257bc8f888d1c0",
        "scriptpubkey_asm": "OP_0 OP_PUSHBYTES_20 3e84be75854fa7f74dfddf1507257bc8f888d1c0",
        "scriptpubkey_type": "v0_p2wpkh",
        "scriptpubkey_address": "bc1q86ztuav9f7nlwn0amu2swftmerug35wq003d7p",
        "value": 516882
      },
      "scriptsig": "",
      "scriptsig_asm": "",
      "witness": [
        "3045022100f94668264f976d9f2a9114f761ad2e2ecc63b757cf718e31554eb6efee4ad6ac02204ca0a8c2f21c4f2fe26a95f280932a8df8927d57930a7b798b54cbfec705e43a01",
        "03798d633016218769ab1488c869b889b0e723af386fe385c103f6cba8efef7faf"
      ],
      "is_coinbase": false,
      "sequence": 4294967295
    }
  ],
  "vout": [
    {
      "scriptpubkey": "001483f708285cdc012b4b8756f6f5f49bb0e8a7e983",
      "scriptpubkey_asm": "OP_0 OP_PUSHBYTES_20 83f708285cdc012b4b8756f6f5f49bb0e8a7e983",
      "scriptpubkey_type": "v0_p2wpkh",
      "scriptpubkey_address": "bc1qs0mss2zumsqjkju82mm0taymkr5206vrc268l3",
      "value": 310000
    },
    {
      "scriptpubkey": "00148561512b9fe3bf6afdbd766a81d28a10210cf63e",
      "scriptpubkey_asm": "OP_0 OP_PUSHBYTES_20 8561512b9fe3bf6afdbd766a81d28a10210cf63e",
      "scriptpubkey_type": "v0_p2wpkh",
      "scriptpubkey_address": "bc1qs4s4z2uluwlk4ldawe4gr552zqssea3797pvsg",
      "value": 204767
    }
  ],
  "size": 223,
  "weight": 562,
  "fee": 2115,
  "status": {
    "confirmed": true,
    "block_height": 834638,
    "block_hash": "000000000000000000025f742c626208ac87e0b7d15054abb4a19ca2d735a54e",
    "block_time": 1710405325
  },
  "hex": "010000000001019ecf40f05843b4974cc9018d1d694a9b253a20aacf086d9c91a725d3543b18cc0100000000ffffffff02f0ba04000000000016001483f708285cdc012b4b8756f6f5f49bb0e8a7e983df1f0300000000001600148561512b9fe3bf6afdbd766a81d28a10210cf63e02483045022100f94668264f976d9f2a9114f761ad2e2ecc63b757cf718e31554eb6efee4ad6ac02204ca0a8c2f21c4f2fe26a95f280932a8df8927d57930a7b798b54cbfec705e43a012103798d633016218769ab1488c869b889b0e723af386fe385c103f6cba8efef7faf00000000"
}