{
  "txid": "0571c659eea0a98ccbee0d8638803b5be1153f9421d026bfafc8efe95d3ca2f3",
  "version": 1,
  "locktime": 0,
  "vin": [
    {
      "txid": "c56a53127da3b7031799395c97169e3af33f88849e41d8d7783941508c60b7fd",
      "vout": 1,
      "prevout": {
        "scriptpubkey": "0014a1d81c073c4a75fc489e3ab49ba78df59df5511e",
        "scriptpubkey_asm": "OP_0 OP_PUSHBYTES_20 a1d81c073c4a75fc489e3ab49ba78df59df5511e",
        "scriptpubkey_type": "v0_p2wpkh",
        "scriptpubkey_address": "bc1q58vpcpeuff6lcjy7826fhfud7kwl25g7gq4j95",
        "value": 17602
      },
      "scriptsig": "",
      "scriptsig_asm": "",
      "witness": [
        "304502210091ec6b8e51f688f9eddaa099da91fc8b4e68feb28812e3917206106d0990d12102200cccbc19fc4a4eb5ea4b1fef7fe537ae6587cd346d4d20d1ff89d21b5453737a01",
        "03c800fc0de07adb3b9dd0546a6150a3801b58325808b4120a10ae59fb3666bc64"
      ],
      "is_coinbase": false,
      "sequence": 4294967295
    }
  ],
  "vout": [
    {
      "scriptpubkey": "76a914c364726fc3fe29f0b3dcf99649503eeeb63a15e588ac",
      "scriptpubkey_asm": "OP_DUP OP_HASH160 OP_PUSHBYTES_20 c364726fc3fe29f0b3dcf99649503eeeb63a15e5 OP_EQUALVERIFY OP_CHECKSIG",
      "scriptpubkey_type": "p2pkh",
      "scriptpubkey_address": "1Jp96b7LHRLUcqF7tvdQsJgHfgFpWHa8Lp",
      "value": 6800
    },
    {
      "scriptpubkey": "0014a1d81c073c4a75fc489e3ab49ba78df59df5511e",
      "scriptpubkey_asm": "OP_0 OP_PUSHBYTES_20 a1d81c073c4a75fc489e3ab49ba78df59df5511e",
      "scriptpubkey_type": "v0_p2wpkh",
      "scriptpubkey_address": "bc1q58vpcpeuff6lcjy7826fhfud7kwl25g7gq4j95",
      "value": 6914
    }
  ],
  "size": 226,
  "weight": 574,
  "fee": 3888,
  "status": {
    "confirmed": true,
    "block_height": 834638,
    "block_hash": "000000000000000000025f742c626208ac87e0b7d15054abb4a19ca2d735a54e",
    "block_time": 1710405325
  },
  "hex": "01000000000101fdb7608c50413978d7d8419e84883ff33a9e16975c39991703b7a37d12536ac50100000000ffffffff02901a0000000000001976a914c364726fc3fe29f0b3dcf99649503eeeb63a15e588ac021b000000000000160014a1d81c073c4a75fc489e3ab49ba78df59df5511e0248304502210091ec6b8e51f688f9eddaa099da91fc8b4e68feb28812e3917206106d0990d12102200cccbc19fc4a4eb5ea4b1fef7fe537ae6587cd346d4d20d1ff89d21b5453737a012103c800fc0de07adb3b9dd0546a6150a3801b58325808b4120a10ae59fb3666bc6400000000"
}