{
  "txid": "057bfb3b104bacbe19fb9467e3eb7c2a3947a7c9b2467d758f2cdd82947180a8",
  "version": 2,
  "locktime": 0,
  "vin": [
    {
      "txid": "bc9e2ac144171f145f4c537054e91cb2d8dfa3e39bdc34a541ea971c393e53ac",
      "vout": 0,
      "prevout": {
        "scriptpubkey": "0014b8051c207e4a8378cb92ae0255902d11f611a63b",
        "scriptpubkey_asm": "OP_0 OP_PUSHBYTES_20 b8051c207e4a8378cb92ae0255902d11f611a63b",
        "scriptpubkey_type": "v0_p2wpkh",
        "scriptpubkey_address": "bc1qhqz3cgr7f2ph3juj4cp9typdz8mprf3mfff9r6",
        "value": 8778257
      },
      "scriptsig": "",
      "scriptsig_asm": "",
      "witness": [
        "30440220588a1cc11c2adce9f0f1a655485af16530b11216c5d295c24134fdc5998ea3ea02202881ea9c1ab81ce7025f8212edc23df87cc8f7394c07f6a743863fc63037649801",
        "033524b9676ea2b28890e87320a1999091286bb01a17c5bae0932a3f06e37c9880"
      ],
      "is_coinbase": false,
      "sequence": 4294967295
    }
  ],
  "vout": [
    {
      "scriptpubkey": "0014e35ec3b0f56a4c79de3366382d486362d05aeb40",
      "scriptpubkey_asm": "OP_0 OP_PUSHBYTES_20 e35ec3b0f56a4c79de3366382d486362d05aeb40",
      "scriptpubkey_type": "v0_p2wpkh",
      "scriptpubkey_address": "bc1qud0v8v84dfx8nh3nvcuz6jrrvtg9466q9fw5j6",
      "value": 2860904
    },
    {
      "scriptpubkey": "0014b8051c207e4a8378cb92ae0255902d11f611a63b",
      "scriptpubkey_asm": "OP_0 OP_PUSHBYTES_20 b8051c207e4a8378cb92ae0255902d11f611a63b",
      "scriptpubkey_type": "v0_p2wpkh",
      "scriptpubkey_address": "bc1qhqz3cgr7f2ph3juj4cp9typdz8mprf3mfff9r6",
      "value": 5915425
    }
  ],
  "size": 222,
  "weight": 561,
  "fee": 1928,
  "status": {
    "confirmed": true,
    "block_height": 834638,
    "block_hash": "000000000000000000025f742c626208ac87e0b7d15054abb4a19ca2d735a54e",
    "block_time": 1710405325
  },
  "hex": "02000000000101ac533e391c97ea41a534dc9be3a3dfd8b21ce95470534c5f141f1744c12a9ebc0000000000ffffffff0268a72b0000000000160014e35ec3b0f56a4c79de3366382d486362d05aeb4021435a0000000000160014b8051c207e4a8378cb92ae0255902d11f611a63b024730440220588a1cc11c2adce9f0f1a655485af16530b11216c5d295c24134fdc5998ea3ea02202881ea9c1ab81ce7025f8212edc23df87cc8f7394c07f6a743863fc6303764980121033524b9676ea2b28890e87320a1999091286bb01a17c5bae0932a3f06e37c988000000000"
}