{
  "txid": "057ce720effaabfd7c1579f7f2ab28d57879dedbcd8726c6d0e592e384987e8a",
  "version": 2,
  "locktime": 0,
  "vin": [
    {
      "txid": "05f968955e643ddb0374cb1c060c0ef02527968e38a29d7363a694acc00ee2c7",
      "vout": 0,
      "prevout": {
        "scriptpubkey": "00144c3c583db38b79e652948519d39d5211a31aaafd",
        "scriptpubkey_asm": "OP_0 OP_PUSHBYTES_20 4c3c583db38b79e652948519d39d5211a31aaafd",
        "scriptpubkey_type": "v0_p2wpkh",
        "scriptpubkey_address": "bc1qfs79s0dn3du7v555s5va882jzx3342hakscr6a",
        "value": 1618414
      },
      "scriptsig": "",
      "scriptsig_asm": "",
      "witness": [
        "304402204b3a48109f6d2527bc60dc75a1ed1bf37212ba0bd3c8263ea61c021afaf6a6da022012d2206b2b14e35bf479ceda17cde82c5e5e600485bb8a12e3b264d8bf1ceb2b01",
        "029a990a86782f9247266f575ccada4e1f474dcda2246a8831b188bd799d268519"
      ],
      "is_coinbase": false,
      "sequence": 4294967295
    }
  ],
  "vout": [
    {
      "scriptpubkey": "0014a534b3655249850b670c2c3f261e1812c2432a19",
      "scriptpubkey_asm": "OP_0 OP_PUSHBYTES_20 a534b3655249850b670c2c3f261e1812c2432a19",
      "scriptpubkey_type": "v0_p2wpkh",
      "scriptpubkey_address": "bc1q556txe2jfxzskecv9sljv8scztpyx2seguk8qk",
      "value": 1616364
    }
  ],
  "size": 191,
  "weight": 437,
  "fee": 2050,
  "status": {
    "confirmed": true,
    "block_height": 834552,
    "block_hash": "00000000000000000001dd0468a70c94f619251d286585cff57aeb4bd9ede330",
    "block_time": 1710355598
  },
  "hex": "02000000000101c7e20ec0ac94a663739da2388e962725f00e0c061ccb7403db3d645e9568f9050000000000ffffffff01eca9180000000000160014a534b3655249850b670c2c3f261e1812c2432a190247304402204b3a48109f6d2527bc60dc75a1ed1bf37212ba0bd3c8263ea61c021afaf6a6da022012d2206b2b14e35bf479ceda17cde82c5e5e600485bb8a12e3b264d8bf1ceb2b0121029a990a86782f9247266f575ccada4e1f474dcda2246a8831b188bd799d26851900000000"
}