{
  "txid": "05a5366a6fd57e3a3508eb6938aa4633dca934c79444adf8dbc599feb8213e8e",
  "version": 1,
  "locktime": 0,
  "vin": [
    {
      "txid": "f5884fe4aaeb241226e530b22c5fd1381a01107115166b3e4a4f0483bc9d606e",
      "vout": 78,
      "prevout": {
        "scriptpubkey": "0014ec8007ae1a3e57ddad4907dc9dff0597f52ff094",
        "scriptpubkey_asm": "OP_0 OP_PUSHBYTES_20 ec8007ae1a3e57ddad4907dc9dff0597f52ff094",
        "scriptpubkey_type": "v0_p2wpkh",
        "scriptpubkey_address": "bc1qajqq0ts68etamt2fqlwfmlc9jl6jluy5eh9pjj",
        "value": 77670
      },
      "scriptsig": "",
      "scriptsig_asm": "",
      "witness": [
        "3044022067b6286a1f7496ee5ec0ea91ebb2c0b1ba74c09747f78435b266ab12e5f5c3e702206507a552e9f32c8d4ef8ff893c88f0ef5fe367a6e32d9442c24c7ec8312a29ea01",
        "02beb25a7ccad9d44673b6a2b283a31719be05b6f07c1bf1b5c728c105018061b2"
      ],
      "is_coinbase": false,
      "sequence": 4294967295
    }
  ],
  "vout": [
    {
      "scriptpubkey": "a914d73dd9d276f1b6e50840ec7d3562dcbb62d84b7b87",
      "scriptpubkey_asm": "OP_HASH160 OP_PUSHBYTES_20 d73dd9d276f1b6e50840ec7d3562dcbb62d84b7b OP_EQUAL",
      "scriptpubkey_type": "p2sh",
      "scriptpubkey_address": "3MK7JG5zPorbD6sThP8BN3uwwNZqnxMmQF",
      "value": 61305
    },
    {
      "scriptpubkey": "0014ec8007ae1a3e57ddad4907dc9dff0597f52ff094",
      "scriptpubkey_asm": "OP_0 OP_PUSHBYTES_20 ec8007ae1a3e57ddad4907dc9dff0597f52ff094",
      "scriptpubkey_type": "v0_p2wpkh",
      "scriptpubkey_address": "bc1qajqq0ts68etamt2fqlwfmlc9jl6jluy5eh9pjj",
      "value": 12531
    }
  ],
  "size": 223,
  "weight": 565,
  "fee": 3834,
  "status": {
    "confirmed": true,
    "block_height": 834638,
    "block_hash": "000000000000000000025f742c626208ac87e0b7d15054abb4a19ca2d735a54e",
    "block_time": 1710405325
  },
  "hex": "010000000001016e609dbc83044f4a3e6b16157110011a38d15f2cb230e5261224ebaae44f88f54e00000000ffffffff0279ef00000000000017a914d73dd9d276f1b6e50840ec7d3562dcbb62d84b7b87f330000000000000160014ec8007ae1a3e57ddad4907dc9dff0597f52ff09402473044022067b6286a1f7496ee5ec0ea91ebb2c0b1ba74c09747f78435b266ab12e5f5c3e702206507a552e9f32c8d4ef8ff893c88f0ef5fe367a6e32d9442c24c7ec8312a29ea012102beb25a7ccad9d44673b6a2b283a31719be05b6f07c1bf1b5c728c105018061b200000000"
}