{
  "txid": "05a7ec394fd6145ab02fc44137462df9accd0ea88526914288d3ceeea5b710f5",
  "version": 2,
  "locktime": 0,
  "vin": [
    {
      "txid": "7a93126d46834217ae594ab3fad1de6ae37595c9b8e2092ddf815ce305077fb1",
      "vout": 27,
      "prevout": {
        "scriptpubkey": "76a9142e4ffac0aa9f19c9ef831c7ca7566aa0d1a168fb88ac",
        "scriptpubkey_asm": "OP_DUP OP_HASH160 OP_PUSHBYTES_20 2e4ffac0aa9f19c9ef831c7ca7566aa0d1a168fb OP_EQUALVERIFY OP_CHECKSIG",
        "scriptpubkey_type": "p2pkh",
        "scriptpubkey_address": "15Dstu41KDJZYk5odaePdCscwNGJXRrDB3",
        "value": 13879
      },
      "scriptsig": "47304402200963a84b8f1c965386c0f1fa0c62cb57f64b11067bba802a0064d86937110cd302206e255d6f7298a7e170152bf8c6d4a76fb1084d42b6c113fcb5ba025e75a601be012103eab5836fe4c156f7a5eb6f9ae66c3065dbf34dddddd5537d0f087cb6cbc5e6f7",
      "scriptsig_asm": "OP_PUSHBYTES_71 304402200963a84b8f1c965386c0f1fa0c62cb57f64b11067bba802a0064d86937110cd302206e255d6f7298a7e170152bf8c6d4a76fb1084d42b6c113fcb5ba025e75a601be01 OP_PUSHBYTES_33 03eab5836fe4c156f7a5eb6f9ae66c3065dbf34dddddd5537d0f087cb6cbc5e6f7",
      "is_coinbase": false,
      "sequence": 4294967293
    },
    {
      "txid": "e52cedbdc305af02e00eac9088de318145038ff8568a4b68005da286710a4eb7",
      "vout": 1,
      "prevout": {
        "scriptpubkey": "76a9142e4ffac0aa9f19c9ef831c7ca7566aa0d1a168fb88ac",
        "scriptpubkey_asm": "OP_DUP OP_HASH160 OP_PUSHBYTES_20 2e4ffac0aa9f19c9ef831c7ca7566aa0d1a168fb OP_EQUALVERIFY OP_CHECKSIG",
        "scriptpubkey_type": "p2pkh",
        "scriptpubkey_address": "15Dstu41KDJZYk5odaePdCscwNGJXRrDB3",
        "value": 11318
      },
      "scriptsig": "463043021f0a790ef3502a09b046e93239549b7240cefeb888c7dc5416821473a65743bb0220305b54ae610c14f0c4f5fa12d2a44321017ff4129305cb18ba5080e61a550272012103eab5836fe4c156f7a5eb6f9ae66c3065dbf34dddddd5537d0f087cb6cbc5e6f7",
      "scriptsig_asm": "OP_PUSHBYTES_70 3043021f0a790ef3502a09b046e93239549b7240cefeb888c7dc5416821473a65743bb0220305b54ae610c14f0c4f5fa12d2a44321017ff4129305cb18ba5080e61a55027201 OP_PUSHBYTES_33 03eab5836fe4c156f7a5eb6f9ae66c3065dbf34dddddd5537d0f087cb6cbc5e6f7",
      "is_coinbase": false,
      "sequence": 4294967293
    }
  ],
  "vout": [
    {
      "scriptpubkey": "0014008ce07213b6010f66182fb9cc6d68a2b5a87119",
      "scriptpubkey_asm": "OP_0 OP_PUSHBYTES_20 008ce07213b6010f66182fb9cc6d68a2b5a87119",
      "scriptpubkey_type": "v0_p2wpkh",
      "scriptpubkey_address": "bc1qqzxwqusnkcqs7esc97uucmtg5266sugegrhdks",
      "value": 21589
    }
  ],
  "size": 334,
  "weight": 1336,
  "fee": 3608,
  "status": {
    "confirmed": true,
    "block_height": 834464,
    "block_hash": "0000000000000000000177a0869a911a2b65c9bdcd5a8bcb02b68f305bee848e",
    "block_time": 1710308296
  },
  "hex": "0200000002b17f0705e35c81df2d09e2b8c99575e36aded1fab34a59ae174283466d12937a1b0000006a47304402200963a84b8f1c965386c0f1fa0c62cb57f64b11067bba802a0064d86937110cd302206e255d6f7298a7e170152bf8c6d4a76fb1084d42b6c113fcb5ba025e75a601be012103eab5836fe4c156f7a5eb6f9ae66c3065dbf34dddddd5537d0f087cb6cbc5e6f7fdffffffb74e0a7186a25d00684b8a56f88f03458131de8890ac0ee002af05c3bded2ce50100000069463043021f0a790ef3502a09b046e93239549b7240cefeb888c7dc5416821473a65743bb0220305b54ae610c14f0c4f5fa12d2a44321017ff4129305cb18ba5080e61a550272012103eab5836fe4c156f7a5eb6f9ae66c3065dbf34dddddd5537d0f087cb6cbc5e6f7fdffffff015554000000000000160014008ce07213b6010f66182fb9cc6d68a2b5a8711900000000"
}