{
  "txid": "05b0ab9e186a891133458510c8dddf7912bbbaf930637f0467247c0229808fa0",
  "version": 2,
  "locktime": 834637,
  "vin": [
    {
      "txid": "e6c4f35ce3bdf932519de9c9056b196fa84d1aa9860824b177e89a9010b04ea0",
      "vout": 0,
      "prevout": {
        "scriptpubkey": "0014419b32db24f8c2c485a15377e18bdf33a92bba10",
        "scriptpubkey_asm": "OP_0 OP_PUSHBYTES_20 419b32db24f8c2c485a15377e18bdf33a92bba10",
        "scriptpubkey_type": "v0_p2wpkh",
        "scriptpubkey_address": "bc1qgxdn9keylrpvfpdp2dm7rz7lxw5jhwsszt603p",
        "value": 265298290
      },
      "scriptsig": "",
      "scriptsig_asm": "",
      "witness": [
        "304402200e62bfd7a76411a3814294b14e959d9ff235e75b5254e5794e90f0617b9cbffd02202e806472e4f46e65608afbe86c357eb15ac801b602865bf5a17441a9a155f91101",
        "03630bd38f79229941c5eec010401722591a5d9019df26993140d5b4f0638456bf"
      ],
      "is_coinbase": false,
      "sequence": 4294967294
    }
  ],
  "vout": [
    {
      "scriptpubkey": "0014ce0f747a2e4dc15e77c16d6389c4df6bd2c3cd51",
      "scriptpubkey_asm": "OP_0 OP_PUSHBYTES_20 ce0f747a2e4dc15e77c16d6389c4df6bd2c3cd51",
      "scriptpubkey_type": "v0_p2wpkh",
      "scriptpubkey_address": "bc1qec8hg73wfhq4ua7pd43cn3xld0fv8n236kghc2",
      "value": 264469310
    },
    {
      "scriptpubkey": "a914d1c700c9e8f3770e6df8e67eb196aa0a51ea3a6e87",
      "scriptpubkey_asm": "OP_HASH160 OP_PUSHBYTES_20 d1c700c9e8f3770e6df8e67eb196aa0a51ea3a6e OP_EQUAL",
      "scriptpubkey_type": "p2sh",
      "scriptpubkey_address": "3LpDYcVdZF4LTzT9RVg3ChaEEyzQG1aA6s",
      "value": 825500
    }
  ],
  "size": 223,
  "weight": 565,
  "fee": 3480,
  "status": {
    "confirmed": true,
    "block_height": 834638,
    "block_hash": "000000000000000000025f742c626208ac87e0b7d15054abb4a19ca2d735a54e",
    "block_time": 1710405325
  },
  "hex": "02000000000101a04eb010909ae877b1240886a91a4da86f196b05c9e99d5132f9bde35cf3c4e60000000000feffffff023e7bc30f00000000160014ce0f747a2e4dc15e77c16d6389c4df6bd2c3cd519c980c000000000017a914d1c700c9e8f3770e6df8e67eb196aa0a51ea3a6e870247304402200e62bfd7a76411a3814294b14e959d9ff235e75b5254e5794e90f0617b9cbffd02202e806472e4f46e65608afbe86c357eb15ac801b602865bf5a17441a9a155f911012103630bd38f79229941c5eec010401722591a5d9019df26993140d5b4f0638456bf4dbc0c00"
}