{
  "txid": "05c6c3956d29471641a64c742bc20b0df2f0433967a93551b3b44be45bb1940d",
  "version": 1,
  "locktime": 0,
  "vin": [
    {
      "txid": "05dab9db7e4d77c93a09b28828b5bb455042bf82760fe86cb237bd392e82403c",
      "vout": 1,
      "prevout": {
        "scriptpubkey": "00141902ba577e1398b3c5776307dac3deeafa3f712d",
        "scriptpubkey_asm": "OP_0 OP_PUSHBYTES_20 1902ba577e1398b3c5776307dac3deeafa3f712d",
        "scriptpubkey_type": "v0_p2wpkh",
        "scriptpubkey_address": "bc1qrypt54m7zwvt83thvvra4s77atar7ufdvrlwjz",
        "value": 21575874
      },
      "scriptsig": "",
      "scriptsig_asm": "",
      "witness": [
        "3045022100b1f70d37480f00bd156e5f393226ccbf57bc89ae182ca0cd635248d1ce6ebecb02204cdb21adc1ce38daab2eb35c0152a392e6a7c5b82539095c8a480547811e05c201",
        "03ef20c6a1d3f9ce8123f723dfe8b06e4bb28bc458e3b91fbc644749fa07f38b20"
      ],
      "is_coinbase": false,
      "sequence": 4294967295
    }
  ],
  "vout": [
    {
      "scriptpubkey": "76a914429351203dc470ba92ddda7db475cb18c7a523b488ac",
      "scriptpubkey_asm": "OP_DUP OP_HASH160 OP_PUSHBYTES_20 429351203dc470ba92ddda7db475cb18c7a523b4 OP_EQUALVERIFY OP_CHECKSIG",
      "scriptpubkey_type": "p2pkh",
      "scriptpubkey_address": "17525RGJEaGz6ax8fUC88QRw7M7nfXh7YY",
      "value": 2734000
    },
    {
      "scriptpubkey": "001445d8dcb7f3e7cd6ebda8419379831e312340746c",
      "scriptpubkey_asm": "OP_0 OP_PUSHBYTES_20 45d8dcb7f3e7cd6ebda8419379831e312340746c",
      "scriptpubkey_type": "v0_p2wpkh",
      "scriptpubkey_address": "bc1qghvdedlnulxka0dggxfhnqc7xy35qarvyvugnr",
      "value": 18839304
    }
  ],
  "size": 226,
  "weight": 574,
  "fee": 2570,
  "status": {
    "confirmed": true,
    "block_height": 834552,
    "block_hash": "00000000000000000001dd0468a70c94f619251d286585cff57aeb4bd9ede330",
    "block_time": 1710355598
  },
  "hex": "010000000001013c40822e39bd37b26ce80f7682bf425045bbb52888b2093ac9774d7edbb9da050100000000ffffffff02b0b72900000000001976a914429351203dc470ba92ddda7db475cb18c7a523b488ac08771f010000000016001445d8dcb7f3e7cd6ebda8419379831e312340746c02483045022100b1f70d37480f00bd156e5f393226ccbf57bc89ae182ca0cd635248d1ce6ebecb02204cdb21adc1ce38daab2eb35c0152a392e6a7c5b82539095c8a480547811e05c2012103ef20c6a1d3f9ce8123f723dfe8b06e4bb28bc458e3b91fbc644749fa07f38b2000000000"
}