{
  "txid": "05d4d804ecb533a1c9a0ab8c8a7289b0f4707afa603e4956b88e5de047a4f5c9",
  "version": 2,
  "locktime": 0,
  "vin": [
    {
      "txid": "d18ed70056c00a6cd5de0ccb10b1ae8f7dd5250f9d0f22c727aba826d03302c8",
      "vout": 11,
      "prevout": {
        "scriptpubkey": "512055c7365dd37db425d7c5d4ceffa693e568955600d8da5e05a0cbf8076c52cd50",
        "scriptpubkey_asm": "OP_PUSHNUM_1 OP_PUSHBYTES_32 55c7365dd37db425d7c5d4ceffa693e568955600d8da5e05a0cbf8076c52cd50",
        "scriptpubkey_type": "v1_p2tr",
        "scriptpubkey_address": "bc1p2hrnvhwn0k6zt4796n80lf5nu45f24sqmrd9updqe0uqwmzje4gq75uj0v",
        "value": 3010
      },
      "scriptsig": "",
      "scriptsig_asm": "",
      "witness": [
        "671e26a94f7403a6b7e9f62c2dbbee546e74bee3a74f6264fddd22d2d340ab61defcd434adb490405f8ee5c6325f365957183cccf24e79797d7ca3b43ed315c8",
        "20533889640a8e750565b7507d5d38d1fece2ee121f1bedeea60fa086ff1b9efa6ac0063036f726401011e6170706c69636174696f6e2f6a736f6e3b636861727365743d7574662d38004cbf7b2270223a22706f772d3230222c226f70223a226d696e74222c227469636b223a2250455045222c22616d74223a2231303030222c22736f6c7574696f6e223a22504550453a6263317168337833756334707a796478716436757776376e3732676874787a33753937306564663078613a303030303030303030303030303030303030303139393431613561653132383937363539383134343239323533333030353762306461393666336465613163353a3232323938373338393738227d68",
        "c1e5c6b8d70510d88b341fcdd9a2aa08913e89d9e736480c530fde3fe13419cdab"
      ],
      "is_coinbase": false,
      "sequence": 4294967295
    }
  ],
  "vout": [
    {
      "scriptpubkey": "0014bc4d1e62a1111a60375c733d3f291759851e17cf",
      "scriptpubkey_asm": "OP_0 OP_PUSHBYTES_20 bc4d1e62a1111a60375c733d3f291759851e17cf",
      "scriptpubkey_type": "v0_p2wpkh",
      "scriptpubkey_address": "bc1qh3x3uc4pzydxqd6uwv7n72ghtxz3u970edf0xa",
      "value": 546
    }
  ],
  "size": 455,
  "weight": 701,
  "fee": 2464,
  "status": {
    "confirmed": true,
    "block_height": 834460,
    "block_hash": "00000000000000000000484a79b643b2524bbce82e5d8a442013fa5b8905ed98",
    "block_time": 1710307468
  },
  "hex": "02000000000101c80233d026a8ab27c7220f9d0f25d57d8faeb110cb0cded56c0ac05600d78ed10b00000000ffffffff012202000000000000160014bc4d1e62a1111a60375c733d3f291759851e17cf0340671e26a94f7403a6b7e9f62c2dbbee546e74bee3a74f6264fddd22d2d340ab61defcd434adb490405f8ee5c6325f365957183cccf24e79797d7ca3b43ed315c8fd0c0120533889640a8e750565b7507d5d38d1fece2ee121f1bedeea60fa086ff1b9efa6ac0063036f726401011e6170706c69636174696f6e2f6a736f6e3b636861727365743d7574662d38004cbf7b2270223a22706f772d3230222c226f70223a226d696e74222c227469636b223a2250455045222c22616d74223a2231303030222c22736f6c7574696f6e223a22504550453a6263317168337833756334707a796478716436757776376e3732676874787a33753937306564663078613a303030303030303030303030303030303030303139393431613561653132383937363539383134343239323533333030353762306461393666336465613163353a3232323938373338393738227d6821c1e5c6b8d70510d88b341fcdd9a2aa08913e89d9e736480c530fde3fe13419cdab00000000"
}