{
  "txid": "05d6ba704be1c15b03f503c341076c384605bc14eedaaa7c65c949aeaf9766d3",
  "version": 1,
  "locktime": 0,
  "vin": [
    {
      "txid": "6b954784b477b7afcae6ed062498aaa1727b5be1e2593088f9a35aaedb02fcc0",
      "vout": 9,
      "prevout": {
        "scriptpubkey": "00140c75f69a6080a03d88bca1da3f3c52980fa28443",
        "scriptpubkey_asm": "OP_0 OP_PUSHBYTES_20 0c75f69a6080a03d88bca1da3f3c52980fa28443",
        "scriptpubkey_type": "v0_p2wpkh",
        "scriptpubkey_address": "bc1qp36ldxnqszsrmz9u58dr70zjnq869pzr80j5jf",
        "value": 134244
      },
      "scriptsig": "",
      "scriptsig_asm": "",
      "witness": [
        "3044022052448ffbd9bacbcfc0d36e64b7073e1dfb9031c827deadffdf114fd4b71d4258022060ea798ef1d0f6a84c955ed844e5c8cc38e7ead34abde7c5e0ea58d67148113301",
        "0239001e35c210664d6ff2ff3accc4c2396cda058096e09f761bc5dfed1c7a42f1"
      ],
      "is_coinbase": false,
      "sequence": 4294967295
    }
  ],
  "vout": [
    {
      "scriptpubkey": "76a914ee1851458f29f9ebca848dfc0bd4655a1fb557fa88ac",
      "scriptpubkey_asm": "OP_DUP OP_HASH160 OP_PUSHBYTES_20 ee1851458f29f9ebca848dfc0bd4655a1fb557fa OP_EQUALVERIFY OP_CHECKSIG",
      "scriptpubkey_type": "p2pkh",
      "scriptpubkey_address": "1NhvxGFSLoo5E4ZYaSEAASWdxgihcGYKZs",
      "value": 131193
    }
  ],
  "size": 194,
  "weight": 449,
  "fee": 3051,
  "status": {
    "confirmed": true,
    "block_height": 834638,
    "block_hash": "000000000000000000025f742c626208ac87e0b7d15054abb4a19ca2d735a54e",
    "block_time": 1710405325
  },
  "hex": "01000000000101c0fc02dbae5aa3f9883059e2e15b7b72a1aa982406ede6caafb777b48447956b0900000000ffffffff0179000200000000001976a914ee1851458f29f9ebca848dfc0bd4655a1fb557fa88ac02473044022052448ffbd9bacbcfc0d36e64b7073e1dfb9031c827deadffdf114fd4b71d4258022060ea798ef1d0f6a84c955ed844e5c8cc38e7ead34abde7c5e0ea58d67148113301210239001e35c210664d6ff2ff3accc4c2396cda058096e09f761bc5dfed1c7a42f100000000"
}