{
  "txid": "05d8a8e673e243dbb9e26e1a2919128d326ac9225666e3a4fdd9db198486e442",
  "version": 2,
  "locktime": 0,
  "vin": [
    {
      "txid": "8486ecb4df0880316dd6e82b3971b4df187aff23765bc3a47f8d78bb53aa273c",
      "vout": 85,
      "prevout": {
        "scriptpubkey": "5120b505cca557528edb3d7e29c3df3178706287e4513a8dba1fcdcb71ad344ab258",
        "scriptpubkey_asm": "OP_PUSHNUM_1 OP_PUSHBYTES_32 b505cca557528edb3d7e29c3df3178706287e4513a8dba1fcdcb71ad344ab258",
        "scriptpubkey_type": "v1_p2tr",
        "scriptpubkey_address": "bc1pk5zuef2h228dk0t798pa7vtcwp3g0ez382xm587dedc66dz2kfvql3ycf8",
        "value": 2575
      },
      "scriptsig": "",
      "scriptsig_asm": "",
      "witness": [
        "d43340e1d7b5695968aaa1fa3a8ea665283fe8a370b48efdb7b8fa1637034c5989c3aa09f6ec8aa39c20b81962bdb27eb71e9b8d2b03cf8472e57aae1056ef4a",
        "20a502389d6290f126e8b84fdd0c0eb84d991738905a3344bec22a1cfc2a0a33ecac0063036f726401010a746578742f706c61696e00367b2270223a226272632d3230222c226f70223a226d696e74222c227469636b223a2261616161222c22616d74223a223130303030227d68",
        "c1a502389d6290f126e8b84fdd0c0eb84d991738905a3344bec22a1cfc2a0a33ec"
      ],
      "is_coinbase": false,
      "sequence": 4261412863
    }
  ],
  "vout": [
    {
      "scriptpubkey": "0014ddd7ef12ea6f78edcc1e8e7afa12c01ab59f3339",
      "scriptpubkey_asm": "OP_0 OP_PUSHBYTES_20 ddd7ef12ea6f78edcc1e8e7afa12c01ab59f3339",
      "scriptpubkey_type": "v0_p2wpkh",
      "scriptpubkey_address": "bc1qmht77yh2dauwmnq73ea05ykqr26e7veea8spz6",
      "value": 546
    }
  ],
  "size": 295,
  "weight": 541,
  "fee": 2029,
  "status": {
    "confirmed": true,
    "block_height": 834460,
    "block_hash": "00000000000000000000484a79b643b2524bbce82e5d8a442013fa5b8905ed98",
    "block_time": 1710307468
  },
  "hex": "020000000001013c27aa53bb788d7fa4c35b7623ff7a18dfb471392be8d66d318008dfb4ec86845500000000fffffffd012202000000000000160014ddd7ef12ea6f78edcc1e8e7afa12c01ab59f33390340d43340e1d7b5695968aaa1fa3a8ea665283fe8a370b48efdb7b8fa1637034c5989c3aa09f6ec8aa39c20b81962bdb27eb71e9b8d2b03cf8472e57aae1056ef4a6e20a502389d6290f126e8b84fdd0c0eb84d991738905a3344bec22a1cfc2a0a33ecac0063036f726401010a746578742f706c61696e00367b2270223a226272632d3230222c226f70223a226d696e74222c227469636b223a2261616161222c22616d74223a223130303030227d6821c1a502389d6290f126e8b84fdd0c0eb84d991738905a3344bec22a1cfc2a0a33ec00000000"
}