{
  "txid": "05e178ef5e61b682e6a7979882723c7de34e4984d75ecc7b6fdc063e99deafd7",
  "version": 1,
  "locktime": 0,
  "vin": [
    {
      "txid": "c96769baf7a4459dd3ad054437dd2084f938e40d3f9a24cca6208b3b482fb3c6",
      "vout": 74,
      "prevout": {
        "scriptpubkey": "001470456c6db95f46a4088f5d606b166538f81d365c",
        "scriptpubkey_asm": "OP_0 OP_PUSHBYTES_20 70456c6db95f46a4088f5d606b166538f81d365c",
        "scriptpubkey_type": "v0_p2wpkh",
        "scriptpubkey_address": "bc1qwpzkcmdetar2gzy0t4sxk9n98rup6dju6x2cav",
        "value": 11058
      },
      "scriptsig": "",
      "scriptsig_asm": "",
      "witness": [
        "304402205107177f6109a1261f0f5614a43ad25323ffd4a390799ed42ee841b6c5529c1802201bcc2db670d5077d26f9a1b88942a5d3e33c5a8d7ee2bbb09f7ca6481fe89cb201",
        "03947b19cb4c5f3ea451f08d6081c09705d1acf20e13062025ec84082a2ff3fd54"
      ],
      "is_coinbase": false,
      "sequence": 4294967293
    },
    {
      "txid": "5f2922a379a149d0557f344afa989d9c00e2567883e2f0ca75823e44f887c394",
      "vout": 29,
      "prevout": {
        "scriptpubkey": "0014e1bfee2011e8b93651c754672f0939f432687c7c",
        "scriptpubkey_asm": "OP_0 OP_PUSHBYTES_20 e1bfee2011e8b93651c754672f0939f432687c7c",
        "scriptpubkey_type": "v0_p2wpkh",
        "scriptpubkey_address": "bc1quxl7ugq3azunv5w823nj7zfe7sexslru6472xx",
        "value": 9955
      },
      "scriptsig": "",
      "scriptsig_asm": "",
      "witness": [
        "3044022062217602913904077e9f1a49a27e8fe7884e93628407e8a0b58a8cd10e829a5402205d7c241082ae2e6c455d74f5dd776c33b07b88b3f7795b25c84958b0d64f659601",
        "02a3c8372bca35c7644246f2579b675b05a5a4bac1c159676292b875c4aa39349f"
      ],
      "is_coinbase": false,
      "sequence": 4294967293
    },
    {
      "txid": "fbfc8f167844c8177f9d8d1a546b8caded72d35a73ea9b21025ef720fa525492",
      "vout": 86,
      "prevout": {
        "scriptpubkey": "00143aea24ee2231fc76e71f5c10ae88eb186785264d",
        "scriptpubkey_asm": "OP_0 OP_PUSHBYTES_20 3aea24ee2231fc76e71f5c10ae88eb186785264d",
        "scriptpubkey_type": "v0_p2wpkh",
        "scriptpubkey_address": "bc1q8t4zfm3zx878decltsg2az8trpnc2fjdsp49sn",
        "value": 9095
      },
      "scriptsig": "",
      "scriptsig_asm": "",
      "witness": [
        "3045022100a9f950177afa37e58ccc8cb68188e98e7b3e30f2fb22ca30000626e09f3486a702200f01435d7fb94cece42d020fd0bd4044efc27432bc69a13537c54ac84629687e01",
        "0300e7d35dcf4b63e551b22fa133d1908f04ddcab7c54d73d094c3d8d88f1b0cad"
      ],
      "is_coinbase": false,
      "sequence": 4294967293
    },
    {
      "txid": "2252d4ba82ffb9f5c501bd0a45431b9a1ae3b7bb224d2e98042d2541d28fc8dd",
      "vout": 139,
      "prevout": {
        "scriptpubkey": "0014cdcd908516daee7f60ff0973219c78d19b958cfc",
        "scriptpubkey_asm": "OP_0 OP_PUSHBYTES_20 cdcd908516daee7f60ff0973219c78d19b958cfc",
        "scriptpubkey_type": "v0_p2wpkh",
        "scriptpubkey_address": "bc1qehxeppgkmth87c8lp9ejr8rc6xdetr8uk80fqn",
        "value": 8758
      },
      "scriptsig": "",
      "scriptsig_asm": "",
      "witness": [
        "30450221009d7f53b94616b8f2b8dba5552fec1b33c902916d7b8a35e8e84a28524436ce5102204fc765cfc490e98f11e0ab10aa3a901ee6b75389413ce8db9f7131953bae6d2a01",
        "02de31a6492b96aea0393ab53471c3f4530b328643c573b0b209fe5bb9b02b3b56"
      ],
      "is_coinbase": false,
      "sequence": 4294967293
    },
    {
      "txid": "90f5cbc10f785bfe71369943d628a14bbddb2aa7940151871f82b7c48f227ca7",
      "vout": 0,
      "prevout": {
        "scriptpubkey": "0014cb7f4f80c950f29e401ce2acf438b1d66ee426ee",
        "scriptpubkey_asm": "OP_0 OP_PUSHBYTES_20 cb7f4f80c950f29e401ce2acf438b1d66ee426ee",
        "scriptpubkey_type": "v0_p2wpkh",
        "scriptpubkey_address": "bc1qedl5lqxf2refusquu2k0gw936ehwgfhwwfg0lk",
        "value": 6656
      },
      "scriptsig": "",
      "scriptsig_asm": "",
      "witness": [
        "30450221008619ca8196e8740a75351787800ed32467b109eb765e2adf4d1fb061f321e18f0220412408ae383dc533465888f72f0c1ff422a9a0bd3c158024aa8baeb32bac77dc01",
        "026bfb06411d94338c2fcbbfa2dc0956ea1f32a17124cf3317d63ae5252d9b407e"
      ],
      "is_coinbase": false,
      "sequence": 4294967293
    }
  ],
  "vout": [
    {
      "scriptpubkey": "0014409cbfdeb463b8954bbf86972162f1327a7b66a9",
      "scriptpubkey_asm": "OP_0 OP_PUSHBYTES_20 409cbfdeb463b8954bbf86972162f1327a7b66a9",
      "scriptpubkey_type": "v0_p2wpkh",
      "scriptpubkey_address": "bc1qgzwtlh45vwuf2jals6tjzch3xfa8ke4fvjg60n",
      "value": 34002
    }
  ],
  "size": 786,
  "weight": 1524,
  "fee": 11520,
  "status": {
    "confirmed": true,
    "block_height": 834638,
    "block_hash": "000000000000000000025f742c626208ac87e0b7d15054abb4a19ca2d735a54e",
    "block_time": 1710405325
  },
  "hex": "01000000000105c6b32f483b8b20a6cc249a3f0de438f98420dd374405add39d45a4f7ba6967c94a00000000fdffffff94c387f8443e8275caf0e2837856e2009c9d98fa4a347f55d049a179a322295f1d00000000fdffffff925452fa20f75e02219bea735ad372edad8c6b541a8d9d7f17c84478168ffcfb5600000000fdffffffddc88fd241252d04982e4d22bbb7e31a9a1b43450abd01c5f5b9ff82bad452228b00000000fdffffffa77c228fc4b7821f87510194a72adbbd4ba128d643993671fe5b780fc1cbf5900000000000fdffffff01d284000000000000160014409cbfdeb463b8954bbf86972162f1327a7b66a90247304402205107177f6109a1261f0f5614a43ad25323ffd4a390799ed42ee841b6c5529c1802201bcc2db670d5077d26f9a1b88942a5d3e33c5a8d7ee2bbb09f7ca6481fe89cb2012103947b19cb4c5f3ea451f08d6081c09705d1acf20e13062025ec84082a2ff3fd5402473044022062217602913904077e9f1a49a27e8fe7884e93628407e8a0b58a8cd10e829a5402205d7c241082ae2e6c455d74f5dd776c33b07b88b3f7795b25c84958b0d64f6596012102a3c8372bca35c7644246f2579b675b05a5a4bac1c159676292b875c4aa39349f02483045022100a9f950177afa37e58ccc8cb68188e98e7b3e30f2fb22ca30000626e09f3486a702200f01435d7fb94cece42d020fd0bd4044efc27432bc69a13537c54ac84629687e01210300e7d35dcf4b63e551b22fa133d1908f04ddcab7c54d73d094c3d8d88f1b0cad024830450221009d7f53b94616b8f2b8dba5552fec1b33c902916d7b8a35e8e84a28524436ce5102204fc765cfc490e98f11e0ab10aa3a901ee6b75389413ce8db9f7131953bae6d2a012102de31a6492b96aea0393ab53471c3f4530b328643c573b0b209fe5bb9b02b3b56024830450221008619ca8196e8740a75351787800ed32467b109eb765e2adf4d1fb061f321e18f0220412408ae383dc533465888f72f0c1ff422a9a0bd3c158024aa8baeb32bac77dc0121026bfb06411d94338c2fcbbfa2dc0956ea1f32a17124cf3317d63ae5252d9b407e00000000"
}