{
  "txid": "05e831824eaf2b0610b6f511471aadfec9eb2b088db70359d161a51e767085ab",
  "version": 2,
  "locktime": 0,
  "vin": [
    {
      "txid": "14e2167695fd53b97ae50c0a70e65ac4ef7ad1480621c0c13d9d798945a5d5dc",
      "vout": 6,
      "prevout": {
        "scriptpubkey": "512044168541e8341d164e5a94db7b6646dc7dfca8f0444b43c103419aafbf6fbadc",
        "scriptpubkey_asm": "OP_PUSHNUM_1 OP_PUSHBYTES_32 44168541e8341d164e5a94db7b6646dc7dfca8f0444b43c103419aafbf6fbadc",
        "scriptpubkey_type": "v1_p2tr",
        "scriptpubkey_address": "bc1pgstg2s0gxsw3vnj6jndhkejxm37le28sg3958sgrgxd2l0m0htwq25kgfd",
        "value": 2862
      },
      "scriptsig": "",
      "scriptsig_asm": "",
      "witness": [
        "dd042240ef604344dd7549358aedbfd8b872c796c4c44e9447967486aef2849065c62c8ab1a9c7d8903e97b6adf0b6291febd1b6eb40103b40c7fea08578eb0a",
        "20909c6e1cdea10a4ce78ae2c9a7d7b2abb6c33583ac2e99b86299becd86d80992ac0063036f726401011e6170706c69636174696f6e2f6a736f6e3b636861727365743d7574662d38004cd37b2270223a22706f772d3230222c226f70223a226d696e74222c227469636b223a2250455045222c22616d74223a2231303030222c22736f6c7574696f6e223a22504550453a62633170673935386e6b7a747678347271756e78676d747a6c35666e70666b633330776a323770777367396e6c706a786b796e64793671737376386c6b303a303030303030303030303030303030303030303139393431613561653132383937363539383134343239323533333030353762306461393666336465613163353a3337333236373538373639227d68",
        "c1631b34e489e80d4fba35164e5ad52a60d66865df7d7db84d2adbf53ec13ca2a1"
      ],
      "is_coinbase": false,
      "sequence": 4294967295
    }
  ],
  "vout": [
    {
      "scriptpubkey": "5120416879d84b61aa30726646d62fd1330a6d88bdd25782e820b3f8646b126d2681",
      "scriptpubkey_asm": "OP_PUSHNUM_1 OP_PUSHBYTES_32 416879d84b61aa30726646d62fd1330a6d88bdd25782e820b3f8646b126d2681",
      "scriptpubkey_type": "v1_p2tr",
      "scriptpubkey_address": "bc1pg958nkztvx4rqunxgmtzl5fnpfkc30wj27pwsg9nlpjxkyndy6qssv8lk0",
      "value": 546
    }
  ],
  "size": 487,
  "weight": 769,
  "fee": 2316,
  "status": {
    "confirmed": true,
    "block_height": 834460,
    "block_hash": "00000000000000000000484a79b643b2524bbce82e5d8a442013fa5b8905ed98",
    "block_time": 1710307468
  },
  "hex": "02000000000101dcd5a54589799d3dc1c0210648d17aefc45ae6700a0ce57ab953fd957616e2140600000000ffffffff012202000000000000225120416879d84b61aa30726646d62fd1330a6d88bdd25782e820b3f8646b126d26810340dd042240ef604344dd7549358aedbfd8b872c796c4c44e9447967486aef2849065c62c8ab1a9c7d8903e97b6adf0b6291febd1b6eb40103b40c7fea08578eb0afd200120909c6e1cdea10a4ce78ae2c9a7d7b2abb6c33583ac2e99b86299becd86d80992ac0063036f726401011e6170706c69636174696f6e2f6a736f6e3b636861727365743d7574662d38004cd37b2270223a22706f772d3230222c226f70223a226d696e74222c227469636b223a2250455045222c22616d74223a2231303030222c22736f6c7574696f6e223a22504550453a62633170673935386e6b7a747678347271756e78676d747a6c35666e70666b633330776a323770777367396e6c706a786b796e64793671737376386c6b303a303030303030303030303030303030303030303139393431613561653132383937363539383134343239323533333030353762306461393666336465613163353a3337333236373538373639227d6821c1631b34e489e80d4fba35164e5ad52a60d66865df7d7db84d2adbf53ec13ca2a100000000"
}