{
  "txid": "060310ba5cb72f3be139b05a50cf4d89be78cad3fa61b82b7e00167439a53ee0",
  "version": 1,
  "locktime": 0,
  "vin": [
    {
      "txid": "0fc6a0d8e2b61ded11ceb7b66966b89093be5a49742c0a8795cdff973e6821ad",
      "vout": 31,
      "prevout": {
        "scriptpubkey": "00146cebd51d320ea5805a666b35914b4b2b5efb351d",
        "scriptpubkey_asm": "OP_0 OP_PUSHBYTES_20 6cebd51d320ea5805a666b35914b4b2b5efb351d",
        "scriptpubkey_type": "v0_p2wpkh",
        "scriptpubkey_address": "bc1qdn4a28fjp6jcqknxdv6ezj6t9d00kdgae9886e",
        "value": 49012
      },
      "scriptsig": "",
      "scriptsig_asm": "",
      "witness": [
        "304402202170f603918fee1d8eacc051872d0919c2ab541ef59f587911de3df97a60e3030220180bd1840e793db85f03b3b1664ca2c99242c41557256eb329f185dcaf6d5cd701",
        "03550050e4017436961229527199ce9083da9392bbc1e85960f1f92a05fc7d9423"
      ],
      "is_coinbase": false,
      "sequence": 4294967293
    },
    {
      "txid": "a62ee646d0b279301f577f66ebfa673108a95aeed3174f6edbc204f274b23fce",
      "vout": 135,
      "prevout": {
        "scriptpubkey": "001428933c7188b6b65d63d07d5570870a2d9042cc74",
        "scriptpubkey_asm": "OP_0 OP_PUSHBYTES_20 28933c7188b6b65d63d07d5570870a2d9042cc74",
        "scriptpubkey_type": "v0_p2wpkh",
        "scriptpubkey_address": "bc1q9zfncuvgk6m96c7s042hppc29kgy9nr5nzsc4t",
        "value": 49003
      },
      "scriptsig": "",
      "scriptsig_asm": "",
      "witness": [
        "3045022100d38a011526275dc9bd406e5b420a670c45d5e3b481f7add3ef92d7f3e9192e7c02202b5c720bc57fe8bf404917f83c643b101154f64a5d7bf7b28f1fc9e15175cc2401",
        "0351da23cf1a6247012a8dc911d9d293d568f8056827f8de72fdaf69e76fa6b79f"
      ],
      "is_coinbase": false,
      "sequence": 4294967293
    },
    {
      "txid": "8f29abb1dbd00bb0b61c64744b6a2d7f536461bd37c52102d1eb257d2c0a978a",
      "vout": 160,
      "prevout": {
        "scriptpubkey": "0014372c07ceccd65f3ff14331ea05e7d8ac8197309e",
        "scriptpubkey_asm": "OP_0 OP_PUSHBYTES_20 372c07ceccd65f3ff14331ea05e7d8ac8197309e",
        "scriptpubkey_type": "v0_p2wpkh",
        "scriptpubkey_address": "bc1qxukq0nkv6e0nlu2rx84qte7c4jqewvy7wm8zm5",
        "value": 49003
      },
      "scriptsig": "",
      "scriptsig_asm": "",
      "witness": [
        "3045022100d6dc44ac93e26f38964da7536cb3e52cbc884f27044830295e87fdff233b2d9002201f1f4da96be28bf1b2aa9a441c023ed6c04050f9dd2dae53fee239e2aa63595201",
        "02f1d3000fb7dcc3ca2ccd59f7795275b8568a9f45ea15d1cf1eab6092c69e8142"
      ],
      "is_coinbase": false,
      "sequence": 4294967293
    }
  ],
  "vout": [
    {
      "scriptpubkey": "00142dad7d4c1489987cb6b039f0ba04ab4842c95de6",
      "scriptpubkey_asm": "OP_0 OP_PUSHBYTES_20 2dad7d4c1489987cb6b039f0ba04ab4842c95de6",
      "scriptpubkey_type": "v0_p2wpkh",
      "scriptpubkey_address": "bc1q9kkh6nq53xv8ed4s88ct5p9tfppvjh0xs3chy0",
      "value": 140570
    }
  ],
  "size": 489,
  "weight": 981,
  "fee": 6448,
  "status": {
    "confirmed": true,
    "block_height": 834460,
    "block_hash": "00000000000000000000484a79b643b2524bbce82e5d8a442013fa5b8905ed98",
    "block_time": 1710307468
  },
  "hex": "01000000000103ad21683e97ffcd95870a2c74495abe9390b86669b6b7ce11ed1db6e2d8a0c60f1f00000000fdffffffce3fb274f204c2db6e4f17d3ee5aa9083167faeb667f571f3079b2d046e62ea68700000000fdffffff8a970a2c7d25ebd10221c537bd6164537f2d6a4b74641cb6b00bd0dbb1ab298fa000000000fdffffff011a250200000000001600142dad7d4c1489987cb6b039f0ba04ab4842c95de60247304402202170f603918fee1d8eacc051872d0919c2ab541ef59f587911de3df97a60e3030220180bd1840e793db85f03b3b1664ca2c99242c41557256eb329f185dcaf6d5cd7012103550050e4017436961229527199ce9083da9392bbc1e85960f1f92a05fc7d942302483045022100d38a011526275dc9bd406e5b420a670c45d5e3b481f7add3ef92d7f3e9192e7c02202b5c720bc57fe8bf404917f83c643b101154f64a5d7bf7b28f1fc9e15175cc2401210351da23cf1a6247012a8dc911d9d293d568f8056827f8de72fdaf69e76fa6b79f02483045022100d6dc44ac93e26f38964da7536cb3e52cbc884f27044830295e87fdff233b2d9002201f1f4da96be28bf1b2aa9a441c023ed6c04050f9dd2dae53fee239e2aa635952012102f1d3000fb7dcc3ca2ccd59f7795275b8568a9f45ea15d1cf1eab6092c69e814200000000"
}