{
  "txid": "061b62a9ef7e4c42385f0de28dd4a3eb00be4754db440af47491396e1e551285",
  "version": 2,
  "locktime": 0,
  "vin": [
    {
      "txid": "f99a8ebb116aefaf993afd6ee504af12f39052c9ac153c314bdc22878b4a4a16",
      "vout": 2,
      "prevout": {
        "scriptpubkey": "a914a8bc3251efd8c6fdbadcb1233994ae953944e4f087",
        "scriptpubkey_asm": "OP_HASH160 OP_PUSHBYTES_20 a8bc3251efd8c6fdbadcb1233994ae953944e4f0 OP_EQUAL",
        "scriptpubkey_type": "p2sh",
        "scriptpubkey_address": "3H5Ctu24hXXM5NKwSjCoVmFaXNeSe4R5FM",
        "value": 87840
      },
      "scriptsig": "160014eb92f2125d1bb3ce5b4ac1c0f9ad2c6191e7699c",
      "scriptsig_asm": "OP_PUSHBYTES_22 0014eb92f2125d1bb3ce5b4ac1c0f9ad2c6191e7699c",
      "witness": [
        "3045022100dc00b730b1ba13a6fae5a0315d00aa5b28bd2d420cc389af4af02736ba47f4de0220729468d31ea6697b2e79b37cab577c7e4e4f134b6daf72e7a2b4f83215f8335701",
        "02430f9651e3d91fa760a1795a6719919ac98f32f93f52ef96f39bc18c503581f1"
      ],
      "is_coinbase": false,
      "sequence": 4294967293,
      "inner_redeemscript_asm": "OP_0 OP_PUSHBYTES_20 eb92f2125d1bb3ce5b4ac1c0f9ad2c6191e7699c"
    }
  ],
  "vout": [
    {
      "scriptpubkey": "5120d4456f43aa466cab7004b3c799078f1b5d1bba79c154f92dfb28531601258536",
      "scriptpubkey_asm": "OP_PUSHNUM_1 OP_PUSHBYTES_32 d4456f43aa466cab7004b3c799078f1b5d1bba79c154f92dfb28531601258536",
      "scriptpubkey_type": "v1_p2tr",
      "scriptpubkey_address": "bc1p63zk7sa2gek2kuqyk0rejpu0rdw3hwnec920jt0m9pf3vqf9s5mqq4dfkq",
      "value": 2220
    },
    {
      "scriptpubkey": "5120d4456f43aa466cab7004b3c799078f1b5d1bba79c154f92dfb28531601258536",
      "scriptpubkey_asm": "OP_PUSHNUM_1 OP_PUSHBYTES_32 d4456f43aa466cab7004b3c799078f1b5d1bba79c154f92dfb28531601258536",
      "scriptpubkey_type": "v1_p2tr",
      "scriptpubkey_address": "bc1p63zk7sa2gek2kuqyk0rejpu0rdw3hwnec920jt0m9pf3vqf9s5mqq4dfkq",
      "value": 2220
    },
    {
      "scriptpubkey": "5120d4456f43aa466cab7004b3c799078f1b5d1bba79c154f92dfb28531601258536",
      "scriptpubkey_asm": "OP_PUSHNUM_1 OP_PUSHBYTES_32 d4456f43aa466cab7004b3c799078f1b5d1bba79c154f92dfb28531601258536",
      "scriptpubkey_type": "v1_p2tr",
      "scriptpubkey_address": "bc1p63zk7sa2gek2kuqyk0rejpu0rdw3hwnec920jt0m9pf3vqf9s5mqq4dfkq",
      "value": 2220
    },
    {
      "scriptpubkey": "5120d4456f43aa466cab7004b3c799078f1b5d1bba79c154f92dfb28531601258536",
      "scriptpubkey_asm": "OP_PUSHNUM_1 OP_PUSHBYTES_32 d4456f43aa466cab7004b3c799078f1b5d1bba79c154f92dfb28531601258536",
      "scriptpubkey_type": "v1_p2tr",
      "scriptpubkey_address": "bc1p63zk7sa2gek2kuqyk0rejpu0rdw3hwnec920jt0m9pf3vqf9s5mqq4dfkq",
      "value": 2220
    },
    {
      "scriptpubkey": "5120d4456f43aa466cab7004b3c799078f1b5d1bba79c154f92dfb28531601258536",
      "scriptpubkey_asm": "OP_PUSHNUM_1 OP_PUSHBYTES_32 d4456f43aa466cab7004b3c799078f1b5d1bba79c154f92dfb28531601258536",
      "scriptpubkey_type": "v1_p2tr",
      "scriptpubkey_address": "bc1p63zk7sa2gek2kuqyk0rejpu0rdw3hwnec920jt0m9pf3vqf9s5mqq4dfkq",
      "value": 2220
    },
    {
      "scriptpubkey": "5120d4456f43aa466cab7004b3c799078f1b5d1bba79c154f92dfb28531601258536",
      "scriptpubkey_asm": "OP_PUSHNUM_1 OP_PUSHBYTES_32 d4456f43aa466cab7004b3c799078f1b5d1bba79c154f92dfb28531601258536",
      "scriptpubkey_type": "v1_p2tr",
      "scriptpubkey_address": "bc1p63zk7sa2gek2kuqyk0rejpu0rdw3hwnec920jt0m9pf3vqf9s5mqq4dfkq",
      "value": 2220
    },
    {
      "scriptpubkey": "5120d4456f43aa466cab7004b3c799078f1b5d1bba79c154f92dfb28531601258536",
      "scriptpubkey_asm": "OP_PUSHNUM_1 OP_PUSHBYTES_32 d4456f43aa466cab7004b3c799078f1b5d1bba79c154f92dfb28531601258536",
      "scriptpubkey_type": "v1_p2tr",
      "scriptpubkey_address": "bc1p63zk7sa2gek2kuqyk0rejpu0rdw3hwnec920jt0m9pf3vqf9s5mqq4dfkq",
      "value": 2220
    },
    {
      "scriptpubkey": "5120d4456f43aa466cab7004b3c799078f1b5d1bba79c154f92dfb28531601258536",
      "scriptpubkey_asm": "OP_PUSHNUM_1 OP_PUSHBYTES_32 d4456f43aa466cab7004b3c799078f1b5d1bba79c154f92dfb28531601258536",
      "scriptpubkey_type": "v1_p2tr",
      "scriptpubkey_address": "bc1p63zk7sa2gek2kuqyk0rejpu0rdw3hwnec920jt0m9pf3vqf9s5mqq4dfkq",
      "value": 2220
    },
    {
      "scriptpubkey": "5120d4456f43aa466cab7004b3c799078f1b5d1bba79c154f92dfb28531601258536",
      "scriptpubkey_asm": "OP_PUSHNUM_1 OP_PUSHBYTES_32 d4456f43aa466cab7004b3c799078f1b5d1bba79c154f92dfb28531601258536",
      "scriptpubkey_type": "v1_p2tr",
      "scriptpubkey_address": "bc1p63zk7sa2gek2kuqyk0rejpu0rdw3hwnec920jt0m9pf3vqf9s5mqq4dfkq",
      "value": 2220
    },
    {
      "scriptpubkey": "5120d4456f43aa466cab7004b3c799078f1b5d1bba79c154f92dfb28531601258536",
      "scriptpubkey_asm": "OP_PUSHNUM_1 OP_PUSHBYTES_32 d4456f43aa466cab7004b3c799078f1b5d1bba79c154f92dfb28531601258536",
      "scriptpubkey_type": "v1_p2tr",
      "scriptpubkey_address": "bc1p63zk7sa2gek2kuqyk0rejpu0rdw3hwnec920jt0m9pf3vqf9s5mqq4dfkq",
      "value": 2220
    },
    {
      "scriptpubkey": "5120d4456f43aa466cab7004b3c799078f1b5d1bba79c154f92dfb28531601258536",
      "scriptpubkey_asm": "OP_PUSHNUM_1 OP_PUSHBYTES_32 d4456f43aa466cab7004b3c799078f1b5d1bba79c154f92dfb28531601258536",
      "scriptpubkey_type": "v1_p2tr",
      "scriptpubkey_address": "bc1p63zk7sa2gek2kuqyk0rejpu0rdw3hwnec920jt0m9pf3vqf9s5mqq4dfkq",
      "value": 2220
    },
    {
      "scriptpubkey": "5120d4456f43aa466cab7004b3c799078f1b5d1bba79c154f92dfb28531601258536",
      "scriptpubkey_asm": "OP_PUSHNUM_1 OP_PUSHBYTES_32 d4456f43aa466cab7004b3c799078f1b5d1bba79c154f92dfb28531601258536",
      "scriptpubkey_type": "v1_p2tr",
      "scriptpubkey_address": "bc1p63zk7sa2gek2kuqyk0rejpu0rdw3hwnec920jt0m9pf3vqf9s5mqq4dfkq",
      "value": 2220
    },
    {
      "scriptpubkey": "5120d4456f43aa466cab7004b3c799078f1b5d1bba79c154f92dfb28531601258536",
      "scriptpubkey_asm": "OP_PUSHNUM_1 OP_PUSHBYTES_32 d4456f43aa466cab7004b3c799078f1b5d1bba79c154f92dfb28531601258536",
      "scriptpubkey_type": "v1_p2tr",
      "scriptpubkey_address": "bc1p63zk7sa2gek2kuqyk0rejpu0rdw3hwnec920jt0m9pf3vqf9s5mqq4dfkq",
      "value": 2220
    },
    {
      "scriptpubkey": "5120d4456f43aa466cab7004b3c799078f1b5d1bba79c154f92dfb28531601258536",
      "scriptpubkey_asm": "OP_PUSHNUM_1 OP_PUSHBYTES_32 d4456f43aa466cab7004b3c799078f1b5d1bba79c154f92dfb28531601258536",
      "scriptpubkey_type": "v1_p2tr",
      "scriptpubkey_address": "bc1p63zk7sa2gek2kuqyk0rejpu0rdw3hwnec920jt0m9pf3vqf9s5mqq4dfkq",
      "value": 2220
    },
    {
      "scriptpubkey": "5120d4456f43aa466cab7004b3c799078f1b5d1bba79c154f92dfb28531601258536",
      "scriptpubkey_asm": "OP_PUSHNUM_1 OP_PUSHBYTES_32 d4456f43aa466cab7004b3c799078f1b5d1bba79c154f92dfb28531601258536",
      "scriptpubkey_type": "v1_p2tr",
      "scriptpubkey_address": "bc1p63zk7sa2gek2kuqyk0rejpu0rdw3hwnec920jt0m9pf3vqf9s5mqq4dfkq",
      "value": 2220
    },
    {
      "scriptpubkey": "5120d4456f43aa466cab7004b3c799078f1b5d1bba79c154f92dfb28531601258536",
      "scriptpubkey_asm": "OP_PUSHNUM_1 OP_PUSHBYTES_32 d4456f43aa466cab7004b3c799078f1b5d1bba79c154f92dfb28531601258536",
      "scriptpubkey_type": "v1_p2tr",
      "scriptpubkey_address": "bc1p63zk7sa2gek2kuqyk0rejpu0rdw3hwnec920jt0m9pf3vqf9s5mqq4dfkq",
      "value": 2220
    },
    {
      "scriptpubkey": "5120d4456f43aa466cab7004b3c799078f1b5d1bba79c154f92dfb28531601258536",
      "scriptpubkey_asm": "OP_PUSHNUM_1 OP_PUSHBYTES_32 d4456f43aa466cab7004b3c799078f1b5d1bba79c154f92dfb28531601258536",
      "scriptpubkey_type": "v1_p2tr",
      "scriptpubkey_address": "bc1p63zk7sa2gek2kuqyk0rejpu0rdw3hwnec920jt0m9pf3vqf9s5mqq4dfkq",
      "value": 2220
    },
    {
      "scriptpubkey": "5120d4456f43aa466cab7004b3c799078f1b5d1bba79c154f92dfb28531601258536",
      "scriptpubkey_asm": "OP_PUSHNUM_1 OP_PUSHBYTES_32 d4456f43aa466cab7004b3c799078f1b5d1bba79c154f92dfb28531601258536",
      "scriptpubkey_type": "v1_p2tr",
      "scriptpubkey_address": "bc1p63zk7sa2gek2kuqyk0rejpu0rdw3hwnec920jt0m9pf3vqf9s5mqq4dfkq",
      "value": 2220
    },
    {
      "scriptpubkey": "5120d4456f43aa466cab7004b3c799078f1b5d1bba79c154f92dfb28531601258536",
      "scriptpubkey_asm": "OP_PUSHNUM_1 OP_PUSHBYTES_32 d4456f43aa466cab7004b3c799078f1b5d1bba79c154f92dfb28531601258536",
      "scriptpubkey_type": "v1_p2tr",
      "scriptpubkey_address": "bc1p63zk7sa2gek2kuqyk0rejpu0rdw3hwnec920jt0m9pf3vqf9s5mqq4dfkq",
      "value": 2220
    },
    {
      "scriptpubkey": "5120d4456f43aa466cab7004b3c799078f1b5d1bba79c154f92dfb28531601258536",
      "scriptpubkey_asm": "OP_PUSHNUM_1 OP_PUSHBYTES_32 d4456f43aa466cab7004b3c799078f1b5d1bba79c154f92dfb28531601258536",
      "scriptpubkey_type": "v1_p2tr",
      "scriptpubkey_address": "bc1p63zk7sa2gek2kuqyk0rejpu0rdw3hwnec920jt0m9pf3vqf9s5mqq4dfkq",
      "value": 2220
    },
    {
      "scriptpubkey": "5120d4456f43aa466cab7004b3c799078f1b5d1bba79c154f92dfb28531601258536",
      "scriptpubkey_asm": "OP_PUSHNUM_1 OP_PUSHBYTES_32 d4456f43aa466cab7004b3c799078f1b5d1bba79c154f92dfb28531601258536",
      "scriptpubkey_type": "v1_p2tr",
      "scriptpubkey_address": "bc1p63zk7sa2gek2kuqyk0rejpu0rdw3hwnec920jt0m9pf3vqf9s5mqq4dfkq",
      "value": 2220
    },
    {
      "scriptpubkey": "5120d4456f43aa466cab7004b3c799078f1b5d1bba79c154f92dfb28531601258536",
      "scriptpubkey_asm": "OP_PUSHNUM_1 OP_PUSHBYTES_32 d4456f43aa466cab7004b3c799078f1b5d1bba79c154f92dfb28531601258536",
      "scriptpubkey_type": "v1_p2tr",
      "scriptpubkey_address": "bc1p63zk7sa2gek2kuqyk0rejpu0rdw3hwnec920jt0m9pf3vqf9s5mqq4dfkq",
      "value": 2220
    },
    {
      "scriptpubkey": "5120d4456f43aa466cab7004b3c799078f1b5d1bba79c154f92dfb28531601258536",
      "scriptpubkey_asm": "OP_PUSHNUM_1 OP_PUSHBYTES_32 d4456f43aa466cab7004b3c799078f1b5d1bba79c154f92dfb28531601258536",
      "scriptpubkey_type": "v1_p2tr",
      "scriptpubkey_address": "bc1p63zk7sa2gek2kuqyk0rejpu0rdw3hwnec920jt0m9pf3vqf9s5mqq4dfkq",
      "value": 2220
    },
    {
      "scriptpubkey": "5120d4456f43aa466cab7004b3c799078f1b5d1bba79c154f92dfb28531601258536",
      "scriptpubkey_asm": "OP_PUSHNUM_1 OP_PUSHBYTES_32 d4456f43aa466cab7004b3c799078f1b5d1bba79c154f92dfb28531601258536",
      "scriptpubkey_type": "v1_p2tr",
      "scriptpubkey_address": "bc1p63zk7sa2gek2kuqyk0rejpu0rdw3hwnec920jt0m9pf3vqf9s5mqq4dfkq",
      "value": 2220
    },
    {
      "scriptpubkey": "a914a8bc3251efd8c6fdbadcb1233994ae953944e4f087",
      "scriptpubkey_asm": "OP_HASH160 OP_PUSHBYTES_20 a8bc3251efd8c6fdbadcb1233994ae953944e4f0 OP_EQUAL",
      "scriptpubkey_type": "p2sh",
      "scriptpubkey_address": "3H5Ctu24hXXM5NKwSjCoVmFaXNeSe4R5FM",
      "value": 20568
    }
  ],
  "size": 1248,
  "weight": 4662,
  "fee": 13992,
  "status": {
    "confirmed": true,
    "block_height": 834460,
    "block_hash": "00000000000000000000484a79b643b2524bbce82e5d8a442013fa5b8905ed98",
    "block_time": 1710307468
  },
  "hex": "02000000000101164a4a8b8722dc4b313c15acc95290f312af04e56efd3a99afef6a11bb8e9af90200000017160014eb92f2125d1bb3ce5b4ac1c0f9ad2c6191e7699cfdffffff19ac08000000000000225120d4456f43aa466cab7004b3c799078f1b5d1bba79c154f92dfb28531601258536ac08000000000000225120d4456f43aa466cab7004b3c799078f1b5d1bba79c154f92dfb28531601258536ac08000000000000225120d4456f43aa466cab7004b3c799078f1b5d1bba79c154f92dfb28531601258536ac08000000000000225120d4456f43aa466cab7004b3c799078f1b5d1bba79c154f92dfb28531601258536ac08000000000000225120d4456f43aa466cab7004b3c799078f1b5d1bba79c154f92dfb28531601258536ac08000000000000225120d4456f43aa466cab7004b3c799078f1b5d1bba79c154f92dfb28531601258536ac08000000000000225120d4456f43aa466cab7004b3c799078f1b5d1bba79c154f92dfb28531601258536ac08000000000000225120d4456f43aa466cab7004b3c799078f1b5d1bba79c154f92dfb28531601258536ac08000000000000225120d4456f43aa466cab7004b3c799078f1b5d1bba79c154f92dfb28531601258536ac08000000000000225120d4456f43aa466cab7004b3c799078f1b5d1bba79c154f92dfb28531601258536ac08000000000000225120d4456f43aa466cab7004b3c799078f1b5d1bba79c154f92dfb28531601258536ac08000000000000225120d4456f43aa466cab7004b3c799078f1b5d1bba79c154f92dfb28531601258536ac08000000000000225120d4456f43aa466cab7004b3c799078f1b5d1bba79c154f92dfb28531601258536ac08000000000000225120d4456f43aa466cab7004b3c799078f1b5d1bba79c154f92dfb28531601258536ac08000000000000225120d4456f43aa466cab7004b3c799078f1b5d1bba79c154f92dfb28531601258536ac08000000000000225120d4456f43aa466cab7004b3c799078f1b5d1bba79c154f92dfb28531601258536ac08000000000000225120d4456f43aa466cab7004b3c799078f1b5d1bba79c154f92dfb28531601258536ac08000000000000225120d4456f43aa466cab7004b3c799078f1b5d1bba79c154f92dfb28531601258536ac08000000000000225120d4456f43aa466cab7004b3c799078f1b5d1bba79c154f92dfb28531601258536ac08000000000000225120d4456f43aa466cab7004b3c799078f1b5d1bba79c154f92dfb28531601258536ac08000000000000225120d4456f43aa466cab7004b3c799078f1b5d1bba79c154f92dfb28531601258536ac08000000000000225120d4456f43aa466cab7004b3c799078f1b5d1bba79c154f92dfb28531601258536ac08000000000000225120d4456f43aa466cab7004b3c799078f1b5d1bba79c154f92dfb28531601258536ac08000000000000225120d4456f43aa466cab7004b3c799078f1b5d1bba79c154f92dfb28531601258536585000000000000017a914a8bc3251efd8c6fdbadcb1233994ae953944e4f08702483045022100dc00b730b1ba13a6fae5a0315d00aa5b28bd2d420cc389af4af02736ba47f4de0220729468d31ea6697b2e79b37cab577c7e4e4f134b6daf72e7a2b4f83215f83357012102430f9651e3d91fa760a1795a6719919ac98f32f93f52ef96f39bc18c503581f100000000"
}