{
  "txid": "061b01691efc83a8ac9a6d474953f12e467ea3f8f61296ca8fd7447741c18727",
  "version": 2,
  "locktime": 0,
  "vin": [
    {
      "txid": "534a00089760896ba1777ab1d9b1a3866d363e0fa807f84be20873fc34b0e147",
      "vout": 0,
      "prevout": {
        "scriptpubkey": "0014eac400ba29a318fd83baea9779e88617cba7dc5e",
        "scriptpubkey_asm": "OP_0 OP_PUSHBYTES_20 eac400ba29a318fd83baea9779e88617cba7dc5e",
        "scriptpubkey_type": "v0_p2wpkh",
        "scriptpubkey_address": "bc1qatzqpw3f5vv0mqa6a2thn6yxzl960hz76ejgg7",
        "value": 130265032
      },
      "scriptsig": "",
      "scriptsig_asm": "",
      "witness": [
        "3045022100ff3f3787a06632e87e1995aabcb58e2810dba457fe0983e5f00264654cfa56d70220634fa5f7abef3f4e314e9c78dbd8b8c25b0e4830302af7a165c7fa997e47cf2b01",
        "0333fc0ed2c06b5b98deb34d6ef04ed8c6ad5afedc3993faa81fd532674f68f41a"
      ],
      "is_coinbase": false,
      "sequence": 4294967295
    }
  ],
  "vout": [
    {
      "scriptpubkey": "001493b4a798611ecef2d6cf7e61a0397e1816766f5b",
      "scriptpubkey_asm": "OP_0 OP_PUSHBYTES_20 93b4a798611ecef2d6cf7e61a0397e1816766f5b",
      "scriptpubkey_type": "v0_p2wpkh",
      "scriptpubkey_address": "bc1qjw620xrprm8094k00es6qwt7rqt8vm6m0v99ml",
      "value": 120125528
    },
    {
      "scriptpubkey": "76a9149ca3e550d9fbdc2f8875002a9a8d6156af1f881988ac",
      "scriptpubkey_asm": "OP_DUP OP_HASH160 OP_PUSHBYTES_20 9ca3e550d9fbdc2f8875002a9a8d6156af1f8819 OP_EQUALVERIFY OP_CHECKSIG",
      "scriptpubkey_type": "p2pkh",
      "scriptpubkey_address": "1FHEkbyGXL7Vj2FQWWg3HXoZkCWoP9NK7H",
      "value": 10136397
    }
  ],
  "size": 226,
  "weight": 574,
  "fee": 3107,
  "status": {
    "confirmed": true,
    "block_height": 834638,
    "block_hash": "000000000000000000025f742c626208ac87e0b7d15054abb4a19ca2d735a54e",
    "block_time": 1710405325
  },
  "hex": "0200000000010147e1b034fc7308e24bf807a80f3e366d86a3b1d9b17a77a16b89609708004a530000000000ffffffff0258f828070000000016001493b4a798611ecef2d6cf7e61a0397e1816766f5b4dab9a00000000001976a9149ca3e550d9fbdc2f8875002a9a8d6156af1f881988ac02483045022100ff3f3787a06632e87e1995aabcb58e2810dba457fe0983e5f00264654cfa56d70220634fa5f7abef3f4e314e9c78dbd8b8c25b0e4830302af7a165c7fa997e47cf2b01210333fc0ed2c06b5b98deb34d6ef04ed8c6ad5afedc3993faa81fd532674f68f41a00000000"
}