{
  "txid": "061fddd49a0d550c95dd07e03f8ccabb388212e36ee6f40e6c2090dc878deb34",
  "version": 2,
  "locktime": 0,
  "vin": [
    {
      "txid": "fd43bbdaab890be6f572e3057b7e0a3dd1cdaa2bd92080e7a06ea3ff6aaa8c00",
      "vout": 0,
      "prevout": {
        "scriptpubkey": "5120b34ea2af06d57f78b770a88a5068eafd2039b68c21a105e3ceed7402dc638ce1",
        "scriptpubkey_asm": "OP_PUSHNUM_1 OP_PUSHBYTES_32 b34ea2af06d57f78b770a88a5068eafd2039b68c21a105e3ceed7402dc638ce1",
        "scriptpubkey_type": "v1_p2tr",
        "scriptpubkey_address": "bc1pkd829tcx64lh3dms4z99q682l5srnd5vyxsstc7wa46q9hrr3nssn0eg6f",
        "value": 17000
      },
      "scriptsig": "",
      "scriptsig_asm": "",
      "witness": [
        "d4c1c2a67cbacfe318396df83fbb577ba71c8d5642b34aae02892154db78e07eb3fb727766d8b2711288fc51facb0dbc32948d6e181e8d320ea138d7c19b4e6e",
        "2030ac75c73bc28a5985c2973d6b98fad8b6cfc251792c66d1ee988dbece83fdb6ac",
        "c130ac75c73bc28a5985c2973d6b98fad8b6cfc251792c66d1ee988dbece83fdb6"
      ],
      "is_coinbase": false,
      "sequence": 4294967293
    }
  ],
  "vout": [
    {
      "scriptpubkey": "512044822cea855a46137e0f6c31f7b51324d6bdf64b60d9fd3b09ef23c789c5ee3c",
      "scriptpubkey_asm": "OP_PUSHNUM_1 OP_PUSHBYTES_32 44822cea855a46137e0f6c31f7b51324d6bdf64b60d9fd3b09ef23c789c5ee3c",
      "scriptpubkey_type": "v1_p2tr",
      "scriptpubkey_address": "bc1pgjpze659tfrpxls0dscl0dgnynttmajtvrvl6wcfau3u0zw9ac7qkdx40y",
      "value": 2622
    },
    {
      "scriptpubkey": "512078a36020f0d21f3de371108c8f77241ae5c2811cf004f8320060241186bc1457",
      "scriptpubkey_asm": "OP_PUSHNUM_1 OP_PUSHBYTES_32 78a36020f0d21f3de371108c8f77241ae5c2811cf004f8320060241186bc1457",
      "scriptpubkey_type": "v1_p2tr",
      "scriptpubkey_address": "bc1p0z3kqg8s6g0nmcm3zzxg7aeyrtju9qgu7qz0svsqvqjprp4uz3ts3wplgt",
      "value": 2622
    },
    {
      "scriptpubkey": "5120613b235258f642ff3600ff842fdb7bc5a510e3f0e762e66ebd30a7a3dd0aaef3",
      "scriptpubkey_asm": "OP_PUSHNUM_1 OP_PUSHBYTES_32 613b235258f642ff3600ff842fdb7bc5a510e3f0e762e66ebd30a7a3dd0aaef3",
      "scriptpubkey_type": "v1_p2tr",
      "scriptpubkey_address": "bc1pvyajx5jc7ep07dsql7zzlkmmckj3pclsua3wvm4axzn68hg24mesjm024g",
      "value": 2622
    },
    {
      "scriptpubkey": "0014d9d200ae31c054a355cfc8fd0cceae82dd3dff78",
      "scriptpubkey_asm": "OP_0 OP_PUSHBYTES_20 d9d200ae31c054a355cfc8fd0cceae82dd3dff78",
      "scriptpubkey_type": "v0_p2wpkh",
      "scriptpubkey_address": "bc1qm8fqpt33cp22x4w0er7sen4wstwnmlmc6y0ccz",
      "value": 6326
    }
  ],
  "size": 348,
  "weight": 981,
  "fee": 2808,
  "status": {
    "confirmed": true,
    "block_height": 834460,
    "block_hash": "00000000000000000000484a79b643b2524bbce82e5d8a442013fa5b8905ed98",
    "block_time": 1710307468
  },
  "hex": "02000000000101008caa6affa36ea0e78020d92baacdd13d0a7e7b05e372f5e60b89abdabb43fd0000000000fdffffff043e0a00000000000022512044822cea855a46137e0f6c31f7b51324d6bdf64b60d9fd3b09ef23c789c5ee3c3e0a00000000000022512078a36020f0d21f3de371108c8f77241ae5c2811cf004f8320060241186bc14573e0a000000000000225120613b235258f642ff3600ff842fdb7bc5a510e3f0e762e66ebd30a7a3dd0aaef3b618000000000000160014d9d200ae31c054a355cfc8fd0cceae82dd3dff780340d4c1c2a67cbacfe318396df83fbb577ba71c8d5642b34aae02892154db78e07eb3fb727766d8b2711288fc51facb0dbc32948d6e181e8d320ea138d7c19b4e6e222030ac75c73bc28a5985c2973d6b98fad8b6cfc251792c66d1ee988dbece83fdb6ac21c130ac75c73bc28a5985c2973d6b98fad8b6cfc251792c66d1ee988dbece83fdb600000000"
}