{
  "txid": "062558cdf89b28f6b42181fa116b855ed06e5407bf2dba967f8fdd17d10dcabc",
  "version": 2,
  "locktime": 0,
  "vin": [
    {
      "txid": "acc3ba00869acb582a3f2904ce3a11dd3779350ce234063fc7d0959246213364",
      "vout": 99,
      "prevout": {
        "scriptpubkey": "5120d249a55e836d654ac1da6efec13565714d6a580d43c279b4588664fd2ca928a1",
        "scriptpubkey_asm": "OP_PUSHNUM_1 OP_PUSHBYTES_32 d249a55e836d654ac1da6efec13565714d6a580d43c279b4588664fd2ca928a1",
        "scriptpubkey_type": "v1_p2tr",
        "scriptpubkey_address": "bc1p6fy62h5rd4j54sw6dmlvzdt9w9xk5kqdg0p8ndzcsej06t9f9zssd9vvag",
        "value": 1806
      },
      "scriptsig": "",
      "scriptsig_asm": "",
      "witness": [
        "dd59642ba2c5db3805c65bd3d5274cde591cc245326d60f7ea1d0a46acd15c055db75910f75c40b97d56dcdb9fa7ef88bf0ae273e2b112b3d79543378d1b21ce",
        "20ce7e13b4eca1c9c90f166bd563454e9d50d43eecb50a33bdbb3ae21e3a009018ac0063036f726401010a746578742f706c61696e00357b2270223a226272632d3230222c226f70223a226d696e74222c227469636b223a22646f6765222c22616d74223a2234323030227d68",
        "c0ce7e13b4eca1c9c90f166bd563454e9d50d43eecb50a33bdbb3ae21e3a009018"
      ],
      "is_coinbase": false,
      "sequence": 4261412863
    }
  ],
  "vout": [
    {
      "scriptpubkey": "00147a665de7a370f4c9b372ab1fae587500a5bcbdb4",
      "scriptpubkey_asm": "OP_0 OP_PUSHBYTES_20 7a665de7a370f4c9b372ab1fae587500a5bcbdb4",
      "scriptpubkey_type": "v0_p2wpkh",
      "scriptpubkey_address": "bc1q0fn9mearwr6vnvmj4v06ukr4qzjme0d565dzcx",
      "value": 294
    }
  ],
  "size": 294,
  "weight": 540,
  "fee": 1512,
  "status": {
    "confirmed": true,
    "block_height": 834460,
    "block_hash": "00000000000000000000484a79b643b2524bbce82e5d8a442013fa5b8905ed98",
    "block_time": 1710307468
  },
  "hex": "02000000000101643321469295d0c73f0634e20c357937dd113ace04293f2a58cb9a8600bac3ac6300000000fffffffd0126010000000000001600147a665de7a370f4c9b372ab1fae587500a5bcbdb40340dd59642ba2c5db3805c65bd3d5274cde591cc245326d60f7ea1d0a46acd15c055db75910f75c40b97d56dcdb9fa7ef88bf0ae273e2b112b3d79543378d1b21ce6d20ce7e13b4eca1c9c90f166bd563454e9d50d43eecb50a33bdbb3ae21e3a009018ac0063036f726401010a746578742f706c61696e00357b2270223a226272632d3230222c226f70223a226d696e74222c227469636b223a22646f6765222c22616d74223a2234323030227d6821c0ce7e13b4eca1c9c90f166bd563454e9d50d43eecb50a33bdbb3ae21e3a00901800000000"
}