{
  "txid": "062a618c336ab945580126a14aa4d07ec336ccc8f3e32339cb1cd0a0d1dd7674",
  "version": 2,
  "locktime": 0,
  "vin": [
    {
      "txid": "3d979c822212c9047c99c7744634e72fa04912a8433617fe82918897e5a56d0c",
      "vout": 0,
      "prevout": {
        "scriptpubkey": "0014ddfe06d2bc9ff92240d7491a21299355e2e7c754",
        "scriptpubkey_asm": "OP_0 OP_PUSHBYTES_20 ddfe06d2bc9ff92240d7491a21299355e2e7c754",
        "scriptpubkey_type": "v0_p2wpkh",
        "scriptpubkey_address": "bc1qmhlqd54unlujysxhfydzz2vn2h3w0365knl7yp",
        "value": 294
      },
      "scriptsig": "",
      "scriptsig_asm": "",
      "witness": [
        "3044022079a67986a9e0a9c2df619f5164cf151dbcbec91b6ed6c7e2c1ddd0a83b07573c02207c737615620c50396835f9dda58ce3aa3fd066ea93d541ed5955a3a4c307e2fc01",
        "03296645408f5d47ad58a9ab5a36cb43a848c1f5f4ec8cab2c782a20dd44acb230"
      ],
      "is_coinbase": false,
      "sequence": 4294967295
    },
    {
      "txid": "1bdc81f1527873782e558ef6d9ea7d5ddac8d9c3d4c6d7ac4897b529601e7fce",
      "vout": 1,
      "prevout": {
        "scriptpubkey": "0014ddfe06d2bc9ff92240d7491a21299355e2e7c754",
        "scriptpubkey_asm": "OP_0 OP_PUSHBYTES_20 ddfe06d2bc9ff92240d7491a21299355e2e7c754",
        "scriptpubkey_type": "v0_p2wpkh",
        "scriptpubkey_address": "bc1qmhlqd54unlujysxhfydzz2vn2h3w0365knl7yp",
        "value": 9520048
      },
      "scriptsig": "",
      "scriptsig_asm": "",
      "witness": [
        "3045022100a52e3e8df144c6388b33122b0e2479d9a07289ca7e161df7605b95209965a70c02200f0f8840dbe555233e62ac3b9dad705da108e008c1f8d80131a0b24e71eaa28f01",
        "03296645408f5d47ad58a9ab5a36cb43a848c1f5f4ec8cab2c782a20dd44acb230"
      ],
      "is_coinbase": false,
      "sequence": 4294967295
    }
  ],
  "vout": [
    {
      "scriptpubkey": "76a914fe4841a413f57c0fb56821522a0ebe9891b0407588ac",
      "scriptpubkey_asm": "OP_DUP OP_HASH160 OP_PUSHBYTES_20 fe4841a413f57c0fb56821522a0ebe9891b04075 OP_EQUALVERIFY OP_CHECKSIG",
      "scriptpubkey_type": "p2pkh",
      "scriptpubkey_address": "1QBXCBvSYTeAcoqiHr4jWyxmjyywzXrXhp",
      "value": 546
    },
    {
      "scriptpubkey": "0014ddfe06d2bc9ff92240d7491a21299355e2e7c754",
      "scriptpubkey_asm": "OP_0 OP_PUSHBYTES_20 ddfe06d2bc9ff92240d7491a21299355e2e7c754",
      "scriptpubkey_type": "v0_p2wpkh",
      "scriptpubkey_address": "bc1qmhlqd54unlujysxhfydzz2vn2h3w0365knl7yp",
      "value": 9515980
    }
  ],
  "size": 374,
  "weight": 845,
  "fee": 3816,
  "status": {
    "confirmed": true,
    "block_height": 834460,
    "block_hash": "00000000000000000000484a79b643b2524bbce82e5d8a442013fa5b8905ed98",
    "block_time": 1710307468
  },
  "hex": "020000000001020c6da5e597889182fe173643a81249a02fe7344674c7997c04c91222829c973d0000000000ffffffffce7f1e6029b59748acd7c6d4c3d9c8da5d7dead9f68e552e78737852f181dc1b0100000000ffffffff0222020000000000001976a914fe4841a413f57c0fb56821522a0ebe9891b0407588accc33910000000000160014ddfe06d2bc9ff92240d7491a21299355e2e7c75402473044022079a67986a9e0a9c2df619f5164cf151dbcbec91b6ed6c7e2c1ddd0a83b07573c02207c737615620c50396835f9dda58ce3aa3fd066ea93d541ed5955a3a4c307e2fc012103296645408f5d47ad58a9ab5a36cb43a848c1f5f4ec8cab2c782a20dd44acb23002483045022100a52e3e8df144c6388b33122b0e2479d9a07289ca7e161df7605b95209965a70c02200f0f8840dbe555233e62ac3b9dad705da108e008c1f8d80131a0b24e71eaa28f012103296645408f5d47ad58a9ab5a36cb43a848c1f5f4ec8cab2c782a20dd44acb23000000000"
}