{
  "txid": "062cebe6830405ed6f76e7cec183f659798910fb427bb85dd5331af9ae108b5b",
  "version": 2,
  "locktime": 0,
  "vin": [
    {
      "txid": "46cc7846562d46de57da534811c54871f38de037914da1ad2ae5d387b0213e4e",
      "vout": 1,
      "prevout": {
        "scriptpubkey": "00146a6981446f4faaac904218784b7918a1799b7859",
        "scriptpubkey_asm": "OP_0 OP_PUSHBYTES_20 6a6981446f4faaac904218784b7918a1799b7859",
        "scriptpubkey_type": "v0_p2wpkh",
        "scriptpubkey_address": "bc1qdf5cz3r0f742eyzzrpuyk7gc59uek7zescczx9",
        "value": 114260065
      },
      "scriptsig": "",
      "scriptsig_asm": "",
      "witness": [
        "3045022100cc4aafc89d820adfbfdcce91dfa8e0b1004c1ced52c6c7d7349f09e8db5353d50220144c426b52bfdd63ffbb45c4b14e8459bf3a170c5fd89d61f82b247fe12ca34401",
        "035b6da0e3de5a7b9c7beb677798c0a5fbb38ab6be47d165c84e362764bcadfbc8"
      ],
      "is_coinbase": false,
      "sequence": 0
    }
  ],
  "vout": [
    {
      "scriptpubkey": "0014fc63a6fc409cdf052075cd104238a274ec10d662",
      "scriptpubkey_asm": "OP_0 OP_PUSHBYTES_20 fc63a6fc409cdf052075cd104238a274ec10d662",
      "scriptpubkey_type": "v0_p2wpkh",
      "scriptpubkey_address": "bc1ql336dlzqnn0s2gr4e5gyyw9zwnkpp4nz9fwd4a",
      "value": 37500000
    },
    {
      "scriptpubkey": "001405587c92c58c120d192cba2d2a4a47f0e0980b8d",
      "scriptpubkey_asm": "OP_0 OP_PUSHBYTES_20 05587c92c58c120d192cba2d2a4a47f0e0980b8d",
      "scriptpubkey_type": "v0_p2wpkh",
      "scriptpubkey_address": "bc1qq4v8eyk93sfq6xfvhgkj5jj87rsfszudp892xq",
      "value": 76756298
    }
  ],
  "size": 223,
  "weight": 562,
  "fee": 3767,
  "status": {
    "confirmed": true,
    "block_height": 834638,
    "block_hash": "000000000000000000025f742c626208ac87e0b7d15054abb4a19ca2d735a54e",
    "block_time": 1710405325
  },
  "hex": "020000000001014e3e21b087d3e52aada14d9137e08df37148c5114853da57de462d564678cc460100000000000000000260343c0200000000160014fc63a6fc409cdf052075cd104238a274ec10d6624a3593040000000016001405587c92c58c120d192cba2d2a4a47f0e0980b8d02483045022100cc4aafc89d820adfbfdcce91dfa8e0b1004c1ced52c6c7d7349f09e8db5353d50220144c426b52bfdd63ffbb45c4b14e8459bf3a170c5fd89d61f82b247fe12ca3440121035b6da0e3de5a7b9c7beb677798c0a5fbb38ab6be47d165c84e362764bcadfbc800000000"
}