{
  "txid": "062e970a200653a49b73447a30badc489dd0d54996273222a8ac611089ee1553",
  "version": 2,
  "locktime": 834637,
  "vin": [
    {
      "txid": "d45be3be757d5d3f3683c483cecd6740d491f339dc653e024c1a4957ff5396fe",
      "vout": 1,
      "prevout": {
        "scriptpubkey": "0014c96fce6f461342bab3606c5a9ccba08e2343c4f3",
        "scriptpubkey_asm": "OP_0 OP_PUSHBYTES_20 c96fce6f461342bab3606c5a9ccba08e2343c4f3",
        "scriptpubkey_type": "v0_p2wpkh",
        "scriptpubkey_address": "bc1qe9huum6xzdpt4vmqd3dfejaq3c35838nzkjuzr",
        "value": 244568
      },
      "scriptsig": "",
      "scriptsig_asm": "",
      "witness": [
        "30440220288800022832c7a49dca39c6d97d5e430db59316ca237ae86aca67889c9e8c14022009dc0559cb5583812fafedd275ce155de14f858112357f22b95f3fb7f48a4bc401",
        "0222572f5abf6227694497a25b432b76f45d5834be5f093a42ec7b8ea2700b2e71"
      ],
      "is_coinbase": false,
      "sequence": 4294967293
    }
  ],
  "vout": [
    {
      "scriptpubkey": "0014fedd1e9b53cf4c24caa1d59d39fc40028a29457b",
      "scriptpubkey_asm": "OP_0 OP_PUSHBYTES_20 fedd1e9b53cf4c24caa1d59d39fc40028a29457b",
      "scriptpubkey_type": "v0_p2wpkh",
      "scriptpubkey_address": "bc1qlmw3ax6neaxzfj4p6kwnnlzqq29zj3tm9h9q9q",
      "value": 14871
    },
    {
      "scriptpubkey": "001486700eddc4d030f2a932cc1aa6b829a4da01bfee",
      "scriptpubkey_asm": "OP_0 OP_PUSHBYTES_20 86700eddc4d030f2a932cc1aa6b829a4da01bfee",
      "scriptpubkey_type": "v0_p2wpkh",
      "scriptpubkey_address": "bc1qsecqahwy6qc092fjesd2dwpf5ndqr0lw5ful5j",
      "value": 225890
    }
  ],
  "size": 222,
  "weight": 561,
  "fee": 3807,
  "status": {
    "confirmed": true,
    "block_height": 834638,
    "block_hash": "000000000000000000025f742c626208ac87e0b7d15054abb4a19ca2d735a54e",
    "block_time": 1710405325
  },
  "hex": "02000000000101fe9653ff57491a4c023e65dc39f391d44067cdce83c483363f5d7d75bee35bd40100000000fdffffff02173a000000000000160014fedd1e9b53cf4c24caa1d59d39fc40028a29457b627203000000000016001486700eddc4d030f2a932cc1aa6b829a4da01bfee024730440220288800022832c7a49dca39c6d97d5e430db59316ca237ae86aca67889c9e8c14022009dc0559cb5583812fafedd275ce155de14f858112357f22b95f3fb7f48a4bc401210222572f5abf6227694497a25b432b76f45d5834be5f093a42ec7b8ea2700b2e714dbc0c00"
}