{
  "txid": "0635c503df05d4c7792522000bd03f24eb9d861ce394f3226b9f060c7d020ceb",
  "version": 1,
  "locktime": 0,
  "vin": [
    {
      "txid": "176d30e2d5fb9425bd17ff738c83399d1eff1a0d5995bf6d1884856606a42385",
      "vout": 1,
      "prevout": {
        "scriptpubkey": "0014849cc7c62ce895f1f54eee889eb4798d4d8be421",
        "scriptpubkey_asm": "OP_0 OP_PUSHBYTES_20 849cc7c62ce895f1f54eee889eb4798d4d8be421",
        "scriptpubkey_type": "v0_p2wpkh",
        "scriptpubkey_address": "bc1qsjwv033vaz2lra2wa6yfadre34xcheppxzrqul",
        "value": 1266166
      },
      "scriptsig": "",
      "scriptsig_asm": "",
      "witness": [
        "3045022100ee68a9bbf624b09e27de9805dab783521942f725a990a3b98e692d855a06553102203dadb3e377ba545a1d4f09b2bcf8f57e0509c40a0b25afcffb407e9bd96ad4c201",
        "037605ea8faae5bcdd50a283f064ef3325acf508534f89396c1cdd8a4996028ab6"
      ],
      "is_coinbase": false,
      "sequence": 4294967295
    }
  ],
  "vout": [
    {
      "scriptpubkey": "0020008e61c0dcf7ec23373fb8aefbaf50644f1251317fda5c9a0ae4121a811d77a4",
      "scriptpubkey_asm": "OP_0 OP_PUSHBYTES_32 008e61c0dcf7ec23373fb8aefbaf50644f1251317fda5c9a0ae4121a811d77a4",
      "scriptpubkey_type": "v0_p2wsh",
      "scriptpubkey_address": "bc1qqz8xrsxu7lkzxdelhzh0ht6sv383y5f30ld9exs2usfp4qgaw7jq7grmeq",
      "value": 1263020
    }
  ],
  "size": 204,
  "weight": 486,
  "fee": 3146,
  "status": {
    "confirmed": true,
    "block_height": 834638,
    "block_hash": "000000000000000000025f742c626208ac87e0b7d15054abb4a19ca2d735a54e",
    "block_time": 1710405325
  },
  "hex": "010000000001018523a406668584186dbf95590d1aff1e9d39838c73ff17bd2594fbd5e2306d170100000000ffffffff01ac45130000000000220020008e61c0dcf7ec23373fb8aefbaf50644f1251317fda5c9a0ae4121a811d77a402483045022100ee68a9bbf624b09e27de9805dab783521942f725a990a3b98e692d855a06553102203dadb3e377ba545a1d4f09b2bcf8f57e0509c40a0b25afcffb407e9bd96ad4c20121037605ea8faae5bcdd50a283f064ef3325acf508534f89396c1cdd8a4996028ab600000000"
}