{
  "txid": "063739d777ae4310d036c6461c1a5b3d731c78b26dba37c06c0c6c5fa3cfde63",
  "version": 1,
  "locktime": 0,
  "vin": [
    {
      "txid": "721ca25c2927942a5f68e6670414e8624b4900b406f76fec4bae239f51292006",
      "vout": 41,
      "prevout": {
        "scriptpubkey": "001492d566c7275276fa5b94ca8d76f973d57a2cf014",
        "scriptpubkey_asm": "OP_0 OP_PUSHBYTES_20 92d566c7275276fa5b94ca8d76f973d57a2cf014",
        "scriptpubkey_type": "v0_p2wpkh",
        "scriptpubkey_address": "bc1qjt2kd3e82fm05ku5e2xhd7tn64azeuq5k58xjz",
        "value": 684238
      },
      "scriptsig": "",
      "scriptsig_asm": "",
      "witness": [
        "304402204ce6c86719ed006d53804d47fc362f99f53a1920af327343397d46aac3f7c0c80220795e1e01c86bb796307c2b9a0464fe9c274c840cca2c9177ef0ffde362b7625701",
        "02d2f5c2d56a73eb31ca8b66ce110a898369f7feb2adb036d988ea051d7b761fe8"
      ],
      "is_coinbase": false,
      "sequence": 4294967295
    },
    {
      "txid": "b957fef4a4cf4915179c73549f8eb0fddeb8fbd08f026a8e28446111ed3ef507",
      "vout": 115,
      "prevout": {
        "scriptpubkey": "001492d566c7275276fa5b94ca8d76f973d57a2cf014",
        "scriptpubkey_asm": "OP_0 OP_PUSHBYTES_20 92d566c7275276fa5b94ca8d76f973d57a2cf014",
        "scriptpubkey_type": "v0_p2wpkh",
        "scriptpubkey_address": "bc1qjt2kd3e82fm05ku5e2xhd7tn64azeuq5k58xjz",
        "value": 1019340
      },
      "scriptsig": "",
      "scriptsig_asm": "",
      "witness": [
        "30450221009e0b8ec0bc29c437b4445038a38fd2b2086c29ce6ad1a222b9dafe69ad082f0202204bae8918af3e610605b1d43013844345f7364a0ea9261fa8c63943eef330cf3201",
        "02d2f5c2d56a73eb31ca8b66ce110a898369f7feb2adb036d988ea051d7b761fe8"
      ],
      "is_coinbase": false,
      "sequence": 4294967295
    }
  ],
  "vout": [
    {
      "scriptpubkey": "76a9143990f46fce3efc07623971b0a6afc65b4801387e88ac",
      "scriptpubkey_asm": "OP_DUP OP_HASH160 OP_PUSHBYTES_20 3990f46fce3efc07623971b0a6afc65b4801387e OP_EQUALVERIFY OP_CHECKSIG",
      "scriptpubkey_type": "p2pkh",
      "scriptpubkey_address": "16FPAaD6UqDKYXvQ7Ybdjg9k2bZysgBc6L",
      "value": 1699889
    }
  ],
  "size": 343,
  "weight": 721,
  "fee": 3689,
  "status": {
    "confirmed": true,
    "block_height": 834638,
    "block_hash": "000000000000000000025f742c626208ac87e0b7d15054abb4a19ca2d735a54e",
    "block_time": 1710405325
  },
  "hex": "01000000000102062029519f23ae4bec6ff706b400494b62e8140467e6685f2a9427295ca21c722900000000ffffffff07f53eed116144288e6a028fd0fbb8defdb08e9f54739c171549cfa4f4fe57b97300000000ffffffff0131f01900000000001976a9143990f46fce3efc07623971b0a6afc65b4801387e88ac0247304402204ce6c86719ed006d53804d47fc362f99f53a1920af327343397d46aac3f7c0c80220795e1e01c86bb796307c2b9a0464fe9c274c840cca2c9177ef0ffde362b76257012102d2f5c2d56a73eb31ca8b66ce110a898369f7feb2adb036d988ea051d7b761fe8024830450221009e0b8ec0bc29c437b4445038a38fd2b2086c29ce6ad1a222b9dafe69ad082f0202204bae8918af3e610605b1d43013844345f7364a0ea9261fa8c63943eef330cf32012102d2f5c2d56a73eb31ca8b66ce110a898369f7feb2adb036d988ea051d7b761fe800000000"
}