{
  "txid": "063ff9ad7ecf014ffc549b07617e6c878751df68bbe95975076286dc8dbf746f",
  "version": 2,
  "locktime": 0,
  "vin": [
    {
      "txid": "641f7f12e63796372eee673e700dc87c4ddf45326a640e0747a85c5259e77345",
      "vout": 8,
      "prevout": {
        "scriptpubkey": "51209b69821f2a8fa632a291328785572032d1f84bc5827c6dba923c19a60657d32d",
        "scriptpubkey_asm": "OP_PUSHNUM_1 OP_PUSHBYTES_32 9b69821f2a8fa632a291328785572032d1f84bc5827c6dba923c19a60657d32d",
        "scriptpubkey_type": "v1_p2tr",
        "scriptpubkey_address": "bc1pnd5cy8e237nr9g53x2rc24eqxtglsj79sf7xmw5j8sv6vpjh6vks40nhlk",
        "value": 109382
      },
      "scriptsig": "",
      "scriptsig_asm": "",
      "witness": [
        "c17d27d2aaa4965325c8323303f5c664da01b450effe96ab0a244fd643705f8f17bd8fe3bd90457e76c13014d8d93addb597e228d51bb65572b4769799bc62c0"
      ],
      "is_coinbase": false,
      "sequence": 4294967293
    }
  ],
  "vout": [
    {
      "scriptpubkey": "51207daba59d6d77d95423699a872b3170e99dd1c9751d733d5e9067492896f2bb4c",
      "scriptpubkey_asm": "OP_PUSHNUM_1 OP_PUSHBYTES_32 7daba59d6d77d95423699a872b3170e99dd1c9751d733d5e9067492896f2bb4c",
      "scriptpubkey_type": "v1_p2tr",
      "scriptpubkey_address": "bc1p0k46t8tdwlv4ggmfn2rjkvtsaxwarjt4r4en6h5svayj39hjhdxqhzf2em",
      "value": 18375
    },
    {
      "scriptpubkey": "a9140231a59aa5b81c9a379b6e218da09a5baee2813e87",
      "scriptpubkey_asm": "OP_HASH160 OP_PUSHBYTES_20 0231a59aa5b81c9a379b6e218da09a5baee2813e OP_EQUAL",
      "scriptpubkey_type": "p2sh",
      "scriptpubkey_address": "31tckTH5yZuSN35FEhP9ufeJLtfMLPYjMZ",
      "value": 70200
    },
    {
      "scriptpubkey": "a914bac6519736144c7704e729b7ca98e047b8424ef487",
      "scriptpubkey_asm": "OP_HASH160 OP_PUSHBYTES_20 bac6519736144c7704e729b7ca98e047b8424ef4 OP_EQUAL",
      "scriptpubkey_type": "p2sh",
      "scriptpubkey_address": "3JibBeerFCN5NgxkUk5mjdMwwBYL3H6Kof",
      "value": 18182
    }
  ],
  "size": 226,
  "weight": 700,
  "fee": 2625,
  "status": {
    "confirmed": true,
    "block_height": 834460,
    "block_hash": "00000000000000000000484a79b643b2524bbce82e5d8a442013fa5b8905ed98",
    "block_time": 1710307468
  },
  "hex": "020000000001014573e759525ca847070e646a3245df4d7cc80d703e67ee2e379637e6127f1f640800000000fdffffff03c7470000000000002251207daba59d6d77d95423699a872b3170e99dd1c9751d733d5e9067492896f2bb4c381201000000000017a9140231a59aa5b81c9a379b6e218da09a5baee2813e87064700000000000017a914bac6519736144c7704e729b7ca98e047b8424ef4870140c17d27d2aaa4965325c8323303f5c664da01b450effe96ab0a244fd643705f8f17bd8fe3bd90457e76c13014d8d93addb597e228d51bb65572b4769799bc62c000000000"
}