{
  "txid": "06414dd9c015a9e9e6cd2cc81c7067b2ba81617cdd559e8b5b72697736e7693e",
  "version": 2,
  "locktime": 0,
  "vin": [
    {
      "txid": "4e2fe102e95b0086f09dc55a6409ba7a41cea213abee319ad5d31e56b727aec0",
      "vout": 1,
      "prevout": {
        "scriptpubkey": "001478472cdbf2c56d68af7582d206a9d24e22962502",
        "scriptpubkey_asm": "OP_0 OP_PUSHBYTES_20 78472cdbf2c56d68af7582d206a9d24e22962502",
        "scriptpubkey_type": "v0_p2wpkh",
        "scriptpubkey_address": "bc1q0prjekljc4kk3tm4stfqd2wjfc3fvfgzuznzlp",
        "value": 170452
      },
      "scriptsig": "",
      "scriptsig_asm": "",
      "witness": [
        "30450221008a917a6ec1be206b597e115b178781ea43b31588629892519b39d8af36b7e1e202206feaacb6af6cbb0176e9ac8e2b8aa6e63e3c4369cf916956553bd1542dd9a90c01",
        "036f4f1006ad2fd12c38b31bc65a25699653cb5767be8e69a5eaa9ec166803582d"
      ],
      "is_coinbase": false,
      "sequence": 4294967293
    }
  ],
  "vout": [
    {
      "scriptpubkey": "0014df0bd9888138c255ef6dfad5e05892918bfc1f0f",
      "scriptpubkey_asm": "OP_0 OP_PUSHBYTES_20 df0bd9888138c255ef6dfad5e05892918bfc1f0f",
      "scriptpubkey_type": "v0_p2wpkh",
      "scriptpubkey_address": "bc1qmu9anzyp8rp9tmmdlt27qkyjjx9lc8c08d9720",
      "value": 168914
    }
  ],
  "size": 192,
  "weight": 438,
  "fee": 1538,
  "status": {
    "confirmed": true,
    "block_height": 834460,
    "block_hash": "00000000000000000000484a79b643b2524bbce82e5d8a442013fa5b8905ed98",
    "block_time": 1710307468
  },
  "hex": "02000000000101c0ae27b7561ed3d59a31eeab13a2ce417aba09645ac59df086005be902e12f4e0100000000fdffffff01d293020000000000160014df0bd9888138c255ef6dfad5e05892918bfc1f0f024830450221008a917a6ec1be206b597e115b178781ea43b31588629892519b39d8af36b7e1e202206feaacb6af6cbb0176e9ac8e2b8aa6e63e3c4369cf916956553bd1542dd9a90c0121036f4f1006ad2fd12c38b31bc65a25699653cb5767be8e69a5eaa9ec166803582d00000000"
}