{
  "txid": "0646948e51998dbf4e7841ae1e7a3ce4cef1654a007b75a66bc04cd8df4befd2",
  "version": 1,
  "locktime": 0,
  "vin": [
    {
      "txid": "9d6e346b069c03a3edb7f8405bc461474b6335342d1073c67ec8b2ab83b705f1",
      "vout": 2,
      "prevout": {
        "scriptpubkey": "76a9141fe2de41946c80a5d3c56ac886997cc471b9ab8188ac",
        "scriptpubkey_asm": "OP_DUP OP_HASH160 OP_PUSHBYTES_20 1fe2de41946c80a5d3c56ac886997cc471b9ab81 OP_EQUALVERIFY OP_CHECKSIG",
        "scriptpubkey_type": "p2pkh",
        "scriptpubkey_address": "13ubj2SSDWnCP234Bx1rix8qSk9LhQort3",
        "value": 155388
      },
      "scriptsig": "47304402205a93d3e7cb9f755f1444edb39422780ea9a2b801a6ec8c6f23f659c42b8e97d60220218d719c18fc6b7303ff65ffbe3fc6fd9cd9279929e4b86106fd0a8f5e1fed63012102aee96f8d3e0abaf0759a434c7e5a0c9dd1ea89c99bec10605b27779414da80d9",
      "scriptsig_asm": "OP_PUSHBYTES_71 304402205a93d3e7cb9f755f1444edb39422780ea9a2b801a6ec8c6f23f659c42b8e97d60220218d719c18fc6b7303ff65ffbe3fc6fd9cd9279929e4b86106fd0a8f5e1fed6301 OP_PUSHBYTES_33 02aee96f8d3e0abaf0759a434c7e5a0c9dd1ea89c99bec10605b27779414da80d9",
      "is_coinbase": false,
      "sequence": 4294967295
    }
  ],
  "vout": [
    {
      "scriptpubkey": "6a21dfeed34798470a20ffcd6627a45ad8c0ed6923197b436793c93d3db5d31eb5c922",
      "scriptpubkey_asm": "OP_RETURN OP_PUSHBYTES_33 dfeed34798470a20ffcd6627a45ad8c0ed6923197b436793c93d3db5d31eb5c922",
      "scriptpubkey_type": "op_return",
      "value": 0
    },
    {
      "scriptpubkey": "0014419854753506f2b3e771860f36eb919d89cc890f",
      "scriptpubkey_asm": "OP_0 OP_PUSHBYTES_20 419854753506f2b3e771860f36eb919d89cc890f",
      "scriptpubkey_type": "v0_p2wpkh",
      "scriptpubkey_address": "bc1qgxv9gaf4qmet8em3sc8nd6u3nkyuezg0cg9p36",
      "value": 1111
    },
    {
      "scriptpubkey": "76a9141fe2de41946c80a5d3c56ac886997cc471b9ab8188ac",
      "scriptpubkey_asm": "OP_DUP OP_HASH160 OP_PUSHBYTES_20 1fe2de41946c80a5d3c56ac886997cc471b9ab81 OP_EQUALVERIFY OP_CHECKSIG",
      "scriptpubkey_type": "p2pkh",
      "scriptpubkey_address": "13ubj2SSDWnCP234Bx1rix8qSk9LhQort3",
      "value": 150420
    }
  ],
  "size": 266,
  "weight": 1064,
  "fee": 3857,
  "status": {
    "confirmed": true,
    "block_height": 834460,
    "block_hash": "00000000000000000000484a79b643b2524bbce82e5d8a442013fa5b8905ed98",
    "block_time": 1710307468
  },
  "hex": "0100000001f105b783abb2c87ec673102d3435634b4761c45b40f8b7eda3039c066b346e9d020000006a47304402205a93d3e7cb9f755f1444edb39422780ea9a2b801a6ec8c6f23f659c42b8e97d60220218d719c18fc6b7303ff65ffbe3fc6fd9cd9279929e4b86106fd0a8f5e1fed63012102aee96f8d3e0abaf0759a434c7e5a0c9dd1ea89c99bec10605b27779414da80d9ffffffff030000000000000000236a21dfeed34798470a20ffcd6627a45ad8c0ed6923197b436793c93d3db5d31eb5c9225704000000000000160014419854753506f2b3e771860f36eb919d89cc890f944b0200000000001976a9141fe2de41946c80a5d3c56ac886997cc471b9ab8188ac00000000"
}