{
  "txid": "065084868741e8366b6b414409895e0f7748cbfa5300133e03ddc3886772f422",
  "version": 2,
  "locktime": 0,
  "vin": [
    {
      "txid": "79bf44793d1a28b424a55f00141d2021912fc3fb5b63e0372592727d9294d228",
      "vout": 0,
      "prevout": {
        "scriptpubkey": "76a914b2cb2036399cd50075980b07665223ec5f3f5fa088ac",
        "scriptpubkey_asm": "OP_DUP OP_HASH160 OP_PUSHBYTES_20 b2cb2036399cd50075980b07665223ec5f3f5fa0 OP_EQUALVERIFY OP_CHECKSIG",
        "scriptpubkey_type": "p2pkh",
        "scriptpubkey_address": "1HJNcaPkTdwax5DnYeAhXvVZtqKDXzp9cf",
        "value": 2306
      },
      "scriptsig": "47304402204b13632e301edca67667d1ba89b904a9db2f68b753875fd1467c16d629e0789102205ee89289c483b4bc0d4224a1e42bf0f4ee4999a311479fe936b5bfef8d4664ef01210371014d57f5045634e4e989e37acb9266a574cd3df4c27db4891793f43d813ddf",
      "scriptsig_asm": "OP_PUSHBYTES_71 304402204b13632e301edca67667d1ba89b904a9db2f68b753875fd1467c16d629e0789102205ee89289c483b4bc0d4224a1e42bf0f4ee4999a311479fe936b5bfef8d4664ef01 OP_PUSHBYTES_33 0371014d57f5045634e4e989e37acb9266a574cd3df4c27db4891793f43d813ddf",
      "is_coinbase": false,
      "sequence": 4294967295
    },
    {
      "txid": "820573adf314dd7da0bde03f728a23cb1dc7d5243033687ffcfeb1813b60018a",
      "vout": 0,
      "prevout": {
        "scriptpubkey": "76a914a825708749d0bd3281220275740d06bd7a27485d88ac",
        "scriptpubkey_asm": "OP_DUP OP_HASH160 OP_PUSHBYTES_20 a825708749d0bd3281220275740d06bd7a27485d OP_EQUALVERIFY OP_CHECKSIG",
        "scriptpubkey_type": "p2pkh",
        "scriptpubkey_address": "1GL5NaJ67nMSkZXbMudUd6ozuRCkekX6e2",
        "value": 7981
      },
      "scriptsig": "47304402206275e2f8ef746eaedf8e0a08da07be6f6354e0cac8766a25964671f5e55dc7290220026b83edc0a8955b6738c0ef4fcf6dd17df72456798581c13fb735563e730548012102b83d6825e38895c25092357c8a8f0cfcc3f04b262fc591667f45127bf170ebbd",
      "scriptsig_asm": "OP_PUSHBYTES_71 304402206275e2f8ef746eaedf8e0a08da07be6f6354e0cac8766a25964671f5e55dc7290220026b83edc0a8955b6738c0ef4fcf6dd17df72456798581c13fb735563e73054801 OP_PUSHBYTES_33 02b83d6825e38895c25092357c8a8f0cfcc3f04b262fc591667f45127bf170ebbd",
      "is_coinbase": false,
      "sequence": 4294967295
    },
    {
      "txid": "920f3cb0d838fc7441a56abaf734d3b2063be7b7dbc8871b96c14c5b53901c1b",
      "vout": 1,
      "prevout": {
        "scriptpubkey": "76a9144763275f6df3725fa07c69354385f8fa08d604fd88ac",
        "scriptpubkey_asm": "OP_DUP OP_HASH160 OP_PUSHBYTES_20 4763275f6df3725fa07c69354385f8fa08d604fd OP_EQUALVERIFY OP_CHECKSIG",
        "scriptpubkey_type": "p2pkh",
        "scriptpubkey_address": "17WTkwut5ZTXYD83FXxSZ45era78xD4Kxz",
        "value": 4684
      },
      "scriptsig": "483045022100d451518632f510cf80ff5794b0ea9ab498adc13b86a63888f09511246e533a1702204ab416afbc09c062d4b1ef01451b1a8d9026e3d705b5c9b723d42cefa1645ee2012102958383d2decbb38faf8b2fd359b28cb1d74785b4da2c9310a076519ae4523a31",
      "scriptsig_asm": "OP_PUSHBYTES_72 3045022100d451518632f510cf80ff5794b0ea9ab498adc13b86a63888f09511246e533a1702204ab416afbc09c062d4b1ef01451b1a8d9026e3d705b5c9b723d42cefa1645ee201 OP_PUSHBYTES_33 02958383d2decbb38faf8b2fd359b28cb1d74785b4da2c9310a076519ae4523a31",
      "is_coinbase": false,
      "sequence": 4294967295
    }
  ],
  "vout": [
    {
      "scriptpubkey": "00142f0f0b686671aa8e3cd48ddd0c3a0e3c0e616d75",
      "scriptpubkey_asm": "OP_0 OP_PUSHBYTES_20 2f0f0b686671aa8e3cd48ddd0c3a0e3c0e616d75",
      "scriptpubkey_type": "v0_p2wpkh",
      "scriptpubkey_address": "bc1q9u8sk6rxwx4gu0x53hwscwsw8s8xzmt4hkrlfx",
      "value": 9749
    }
  ],
  "size": 483,
  "weight": 1932,
  "fee": 5222,
  "status": {
    "confirmed": true,
    "block_height": 834464,
    "block_hash": "0000000000000000000177a0869a911a2b65c9bdcd5a8bcb02b68f305bee848e",
    "block_time": 1710308296
  },
  "hex": "020000000328d294927d72922537e0635bfbc32f9121201d14005fa524b4281a3d7944bf79000000006a47304402204b13632e301edca67667d1ba89b904a9db2f68b753875fd1467c16d629e0789102205ee89289c483b4bc0d4224a1e42bf0f4ee4999a311479fe936b5bfef8d4664ef01210371014d57f5045634e4e989e37acb9266a574cd3df4c27db4891793f43d813ddfffffffff8a01603b81b1fefc7f68333024d5c71dcb238a723fe0bda07ddd14f3ad730582000000006a47304402206275e2f8ef746eaedf8e0a08da07be6f6354e0cac8766a25964671f5e55dc7290220026b83edc0a8955b6738c0ef4fcf6dd17df72456798581c13fb735563e730548012102b83d6825e38895c25092357c8a8f0cfcc3f04b262fc591667f45127bf170ebbdffffffff1b1c90535b4cc1961b87c8dbb7e73b06b2d334f7ba6aa54174fc38d8b03c0f92010000006b483045022100d451518632f510cf80ff5794b0ea9ab498adc13b86a63888f09511246e533a1702204ab416afbc09c062d4b1ef01451b1a8d9026e3d705b5c9b723d42cefa1645ee2012102958383d2decbb38faf8b2fd359b28cb1d74785b4da2c9310a076519ae4523a31ffffffff0115260000000000001600142f0f0b686671aa8e3cd48ddd0c3a0e3c0e616d7500000000"
}