{
  "txid": "06567a37846cadd42c2abc9269f0565933bfe83b3af21a8355719a5aa3336ae8",
  "version": 2,
  "locktime": 0,
  "vin": [
    {
      "txid": "2477c20660cfbdca1cdcdfa7de6c420a157338d0cac3069bd390ebf542bbbeb2",
      "vout": 16,
      "prevout": {
        "scriptpubkey": "001483ab67c7ed700decd8d117d8849b5d60acf065e8",
        "scriptpubkey_asm": "OP_0 OP_PUSHBYTES_20 83ab67c7ed700decd8d117d8849b5d60acf065e8",
        "scriptpubkey_type": "v0_p2wpkh",
        "scriptpubkey_address": "bc1qsw4k03ldwqx7ekx3zlvgfx6avzk0qe0gekjr0p",
        "value": 1371000
      },
      "scriptsig": "",
      "scriptsig_asm": "",
      "witness": [
        "30440220184875a23673a860fb843fd1576cfa113345652bbc29e7026712f2c679ce3471022036e874dc17ba779c373be29c82f84f43e673f0e775299c7df20b3d681a957f0801",
        "03565759dc253e3b6207a68e4c54055470af3e150b57dedfdf98fb79083cea1bf2"
      ],
      "is_coinbase": false,
      "sequence": 4294967295
    }
  ],
  "vout": [
    {
      "scriptpubkey": "00144275b8925b4d22767eb9a3ec5315fe0e42bb8d96",
      "scriptpubkey_asm": "OP_0 OP_PUSHBYTES_20 4275b8925b4d22767eb9a3ec5315fe0e42bb8d96",
      "scriptpubkey_type": "v0_p2wpkh",
      "scriptpubkey_address": "bc1qgf6m3yjmf538vl4e50k9x907pepthrvka9l8w2",
      "value": 1366555
    }
  ],
  "size": 191,
  "weight": 437,
  "fee": 4445,
  "status": {
    "confirmed": true,
    "block_height": 834552,
    "block_hash": "00000000000000000001dd0468a70c94f619251d286585cff57aeb4bd9ede330",
    "block_time": 1710355598
  },
  "hex": "02000000000101b2bebb42f5eb90d39b06c3cad03873150a426cdea7dfdc1ccabdcf6006c277241000000000ffffffff011bda1400000000001600144275b8925b4d22767eb9a3ec5315fe0e42bb8d96024730440220184875a23673a860fb843fd1576cfa113345652bbc29e7026712f2c679ce3471022036e874dc17ba779c373be29c82f84f43e673f0e775299c7df20b3d681a957f08012103565759dc253e3b6207a68e4c54055470af3e150b57dedfdf98fb79083cea1bf200000000"
}