{
  "txid": "0659e7f7fd5700ceeafc5c3dcd92be1a4435f1b0b72ae697020e2c364519806e",
  "version": 1,
  "locktime": 0,
  "vin": [
    {
      "txid": "2444b7a25b3c703bc4291c9e26588b7e84bb0d22d4acfbf6f7ebed59f171a7eb",
      "vout": 1,
      "prevout": {
        "scriptpubkey": "001410c9dd2b875c96e6ed0178a07253f88219f912da",
        "scriptpubkey_asm": "OP_0 OP_PUSHBYTES_20 10c9dd2b875c96e6ed0178a07253f88219f912da",
        "scriptpubkey_type": "v0_p2wpkh",
        "scriptpubkey_address": "bc1qzrya62u8tjtwdmgp0zs8y5lcsgvljyk65u9rtk",
        "value": 10051
      },
      "scriptsig": "",
      "scriptsig_asm": "",
      "witness": [
        "304402206868d6594ef2916ffde0d2a3e8c5a90b4c14cb0782effcc69bbfcdb1bcf0771702204b2d76666e5f2c9d5bb5af656730bdb02514a430373055a352e1e437b400714501",
        "0234737aa7305976a9ced58f0360695a21b0c0e618fee982f15f0841862b44c0e7"
      ],
      "is_coinbase": false,
      "sequence": 4294967295
    },
    {
      "txid": "00be4f2f4f94b17c25a701b88b5f3d2ff3d01a05b68e387119e1d43eb7ebcd1c",
      "vout": 36,
      "prevout": {
        "scriptpubkey": "001410c9dd2b875c96e6ed0178a07253f88219f912da",
        "scriptpubkey_asm": "OP_0 OP_PUSHBYTES_20 10c9dd2b875c96e6ed0178a07253f88219f912da",
        "scriptpubkey_type": "v0_p2wpkh",
        "scriptpubkey_address": "bc1qzrya62u8tjtwdmgp0zs8y5lcsgvljyk65u9rtk",
        "value": 171000
      },
      "scriptsig": "",
      "scriptsig_asm": "",
      "witness": [
        "30450221008f115b6bbd10171da86dd8b9259bdb5651851da1896c7b5427d9fe725885168002200795b1ca5a22c779cadbb92944bd6961816afac9cadd8da2f7a51a0ec4bd3d8601",
        "0234737aa7305976a9ced58f0360695a21b0c0e618fee982f15f0841862b44c0e7"
      ],
      "is_coinbase": false,
      "sequence": 4294967295
    }
  ],
  "vout": [
    {
      "scriptpubkey": "0014710b5d7821c85e23c1bb13693c44cb5bc88e3caa",
      "scriptpubkey_asm": "OP_0 OP_PUSHBYTES_20 710b5d7821c85e23c1bb13693c44cb5bc88e3caa",
      "scriptpubkey_type": "v0_p2wpkh",
      "scriptpubkey_address": "bc1qwy9467ppep0z8sdmzd5nc3xtt0ygu092tmuz5l",
      "value": 173414
    },
    {
      "scriptpubkey": "001410c9dd2b875c96e6ed0178a07253f88219f912da",
      "scriptpubkey_asm": "OP_0 OP_PUSHBYTES_20 10c9dd2b875c96e6ed0178a07253f88219f912da",
      "scriptpubkey_type": "v0_p2wpkh",
      "scriptpubkey_address": "bc1qzrya62u8tjtwdmgp0zs8y5lcsgvljyk65u9rtk",
      "value": 4293
    },
    {
      "scriptpubkey": "6a413d3a4c54432e4c54433a6c746331717567336732663263326463767565396d366c72343375756e3379786d326a72726837617565643a302f312f303a74693a3730",
      "scriptpubkey_asm": "OP_RETURN OP_PUSHBYTES_65 3d3a4c54432e4c54433a6c746331717567336732663263326463767565396d366c72343375756e3379786d326a72726837617565643a302f312f303a74693a3730",
      "scriptpubkey_type": "op_return",
      "value": 0
    }
  ],
  "size": 447,
  "weight": 1137,
  "fee": 3344,
  "status": {
    "confirmed": true,
    "block_height": 834460,
    "block_hash": "00000000000000000000484a79b643b2524bbce82e5d8a442013fa5b8905ed98",
    "block_time": 1710307468
  },
  "hex": "01000000000102eba771f159edebf7f6fbacd4220dbb847e8b58269e1c29c43b703c5ba2b744240100000000ffffffff1ccdebb73ed4e11971388eb6051ad0f32f3d5f8bb801a7257cb1944f2f4fbe002400000000ffffffff0366a5020000000000160014710b5d7821c85e23c1bb13693c44cb5bc88e3caac51000000000000016001410c9dd2b875c96e6ed0178a07253f88219f912da0000000000000000436a413d3a4c54432e4c54433a6c746331717567336732663263326463767565396d366c72343375756e3379786d326a72726837617565643a302f312f303a74693a37300247304402206868d6594ef2916ffde0d2a3e8c5a90b4c14cb0782effcc69bbfcdb1bcf0771702204b2d76666e5f2c9d5bb5af656730bdb02514a430373055a352e1e437b400714501210234737aa7305976a9ced58f0360695a21b0c0e618fee982f15f0841862b44c0e7024830450221008f115b6bbd10171da86dd8b9259bdb5651851da1896c7b5427d9fe725885168002200795b1ca5a22c779cadbb92944bd6961816afac9cadd8da2f7a51a0ec4bd3d8601210234737aa7305976a9ced58f0360695a21b0c0e618fee982f15f0841862b44c0e700000000"
}