{
  "txid": "066e102cdb294e5eba2df26dd8968b7406d76540157c86cfdbc3dbce4c20d068",
  "version": 1,
  "locktime": 834637,
  "vin": [
    {
      "txid": "102a162a5dcf6fef8c4006ae310ee95d16b220122297bc45a3c600e375537cc9",
      "vout": 1,
      "prevout": {
        "scriptpubkey": "a91452c4372339b1b736ad94e879d5175b40ca0e1c7a87",
        "scriptpubkey_asm": "OP_HASH160 OP_PUSHBYTES_20 52c4372339b1b736ad94e879d5175b40ca0e1c7a OP_EQUAL",
        "scriptpubkey_type": "p2sh",
        "scriptpubkey_address": "39EePZHqKw8f3xNaMsTBEftcFwSJ4ntUYP",
        "value": 1782883
      },
      "scriptsig": "00483045022100dd11bd5e23266149bd1792d9429f3ae8e6d64da82fc004d9b80da6f7f4ee645d02200157f5879198caa10868883258f0d8ea3f508b738d5b097b893f58563e2eb56c014730440220531e4aa36f363e5529ac3a93de344d2904b9863013df1c97b300a66a69fc86a302200be96faa48db1e371745a381628588e12add3e7f17949be935e753008e0af088014c69522102f45207990c2036ee04a05947a2e437aeab6f742948c757bf576a4b01ccc739512103d00edd7f2701b6664dbbaf2e19eeaaf99965215d19bc3229267ec75b0d0753b52103c14f96c70d1df1aa5e2954455b827b8151f61395067f2bca2193a28e316a938353ae",
      "scriptsig_asm": "OP_0 OP_PUSHBYTES_72 3045022100dd11bd5e23266149bd1792d9429f3ae8e6d64da82fc004d9b80da6f7f4ee645d02200157f5879198caa10868883258f0d8ea3f508b738d5b097b893f58563e2eb56c01 OP_PUSHBYTES_71 30440220531e4aa36f363e5529ac3a93de344d2904b9863013df1c97b300a66a69fc86a302200be96faa48db1e371745a381628588e12add3e7f17949be935e753008e0af08801 OP_PUSHDATA1 522102f45207990c2036ee04a05947a2e437aeab6f742948c757bf576a4b01ccc739512103d00edd7f2701b6664dbbaf2e19eeaaf99965215d19bc3229267ec75b0d0753b52103c14f96c70d1df1aa5e2954455b827b8151f61395067f2bca2193a28e316a938353ae",
      "is_coinbase": false,
      "sequence": 4294967295,
      "inner_redeemscript_asm": "OP_PUSHNUM_2 OP_PUSHBYTES_33 02f45207990c2036ee04a05947a2e437aeab6f742948c757bf576a4b01ccc73951 OP_PUSHBYTES_33 03d00edd7f2701b6664dbbaf2e19eeaaf99965215d19bc3229267ec75b0d0753b5 OP_PUSHBYTES_33 03c14f96c70d1df1aa5e2954455b827b8151f61395067f2bca2193a28e316a9383 OP_PUSHNUM_3 OP_CHECKMULTISIG"
    }
  ],
  "vout": [
    {
      "scriptpubkey": "0014abe3eef577ed8e6d13ed435ef8683bd2e052015a",
      "scriptpubkey_asm": "OP_0 OP_PUSHBYTES_20 abe3eef577ed8e6d13ed435ef8683bd2e052015a",
      "scriptpubkey_type": "v0_p2wpkh",
      "scriptpubkey_address": "bc1q4037aathak8x6yldgd00s6pm6ts9yq26sw4030",
      "value": 42702
    },
    {
      "scriptpubkey": "00207af21b3ee4f3f6125bc7e81b67c8aaf00ee425248eb4b955246359089cb1a6bf",
      "scriptpubkey_asm": "OP_0 OP_PUSHBYTES_32 7af21b3ee4f3f6125bc7e81b67c8aaf00ee425248eb4b955246359089cb1a6bf",
      "scriptpubkey_type": "v0_p2wsh",
      "scriptpubkey_address": "bc1q0tepk0hy70mpyk78aqdk0j927q8wgffy366tj4fyvdvs389356lsrdsuqg",
      "value": 1730631
    }
  ],
  "size": 380,
  "weight": 1520,
  "fee": 9550,
  "status": {
    "confirmed": true,
    "block_height": 834638,
    "block_hash": "000000000000000000025f742c626208ac87e0b7d15054abb4a19ca2d735a54e",
    "block_time": 1710405325
  },
  "hex": "0100000001c97c5375e300c6a345bc97221220b2165de90e31ae06408cef6fcf5d2a162a1001000000fdfd0000483045022100dd11bd5e23266149bd1792d9429f3ae8e6d64da82fc004d9b80da6f7f4ee645d02200157f5879198caa10868883258f0d8ea3f508b738d5b097b893f58563e2eb56c014730440220531e4aa36f363e5529ac3a93de344d2904b9863013df1c97b300a66a69fc86a302200be96faa48db1e371745a381628588e12add3e7f17949be935e753008e0af088014c69522102f45207990c2036ee04a05947a2e437aeab6f742948c757bf576a4b01ccc739512103d00edd7f2701b6664dbbaf2e19eeaaf99965215d19bc3229267ec75b0d0753b52103c14f96c70d1df1aa5e2954455b827b8151f61395067f2bca2193a28e316a938353aeffffffff02cea6000000000000160014abe3eef577ed8e6d13ed435ef8683bd2e052015a47681a00000000002200207af21b3ee4f3f6125bc7e81b67c8aaf00ee425248eb4b955246359089cb1a6bf4dbc0c00"
}