{
  "txid": "067ff79935f3f030ffedbe08a81f5c71c7c2f2d3c2430f66aaf9a78d71f079bb",
  "version": 2,
  "locktime": 834458,
  "vin": [
    {
      "txid": "b078dc76b4f15d6744b09f6cf5c373a7885726f500f6f8efe762c4a4f7e7c805",
      "vout": 6,
      "prevout": {
        "scriptpubkey": "0014e8d07ca630cd7a6f2c2b384b540c743c740d3f53",
        "scriptpubkey_asm": "OP_0 OP_PUSHBYTES_20 e8d07ca630cd7a6f2c2b384b540c743c740d3f53",
        "scriptpubkey_type": "v0_p2wpkh",
        "scriptpubkey_address": "bc1qarg8ef3se4ax7tpt8p94grr5836q606nych7tt",
        "value": 66985
      },
      "scriptsig": "",
      "scriptsig_asm": "",
      "witness": [
        "304402207396907ee7cf3c71797c1a1d780732e17eb44b1f2cebc2b22e4c542f007959ab022028383cc3a6f884ea398669102b19f55c9464363ad624402af1f3ad74ae598d2701",
        "0317120b84b51c4537763d22f1fda9102094361af2b9cebb3c8c7e9cb0109a6ded"
      ],
      "is_coinbase": false,
      "sequence": 4294967293
    },
    {
      "txid": "e9612736318dd28c0d0b64539a66e6d7ac27477a3a410900c8969f4a181c7599",
      "vout": 0,
      "prevout": {
        "scriptpubkey": "0014fccf98001729335b9ac80fa3f0fe667355bef88a",
        "scriptpubkey_asm": "OP_0 OP_PUSHBYTES_20 fccf98001729335b9ac80fa3f0fe667355bef88a",
        "scriptpubkey_type": "v0_p2wpkh",
        "scriptpubkey_address": "bc1qln8esqqh9ye4hxkgp73lplnxwd2ma7y2rcyhez",
        "value": 12901
      },
      "scriptsig": "",
      "scriptsig_asm": "",
      "witness": [
        "304402203fc31c954d51d1e0f9892d45efe47707a4e20351617b561887bebc0e8b49925502201a2833690db9e67a60f195a1fe494d19a1ca3a103f529769223a8b1431c62e4f01",
        "03cdace60fa3bfa6fb7340b59c76194ffa1cd7d88494de105d20d716b8995a5c14"
      ],
      "is_coinbase": false,
      "sequence": 4294967293
    },
    {
      "txid": "950c39c95470bcb03669f35e6cfaf5c8433eddd7759f053c96aa842dda194d40",
      "vout": 1,
      "prevout": {
        "scriptpubkey": "00140f58ca95e5d7f8709ed217c19ecc7d6d94393d74",
        "scriptpubkey_asm": "OP_0 OP_PUSHBYTES_20 0f58ca95e5d7f8709ed217c19ecc7d6d94393d74",
        "scriptpubkey_type": "v0_p2wpkh",
        "scriptpubkey_address": "bc1qpavv49096lu8p8kjzlqeanradk2rj0t5zewczy",
        "value": 51007
      },
      "scriptsig": "",
      "scriptsig_asm": "",
      "witness": [
        "3043021f7960fdbed47528a01bacc18110d25a6ef6f20950e748ccf951640bf2568ba0022058393b1c5297cb86f6a7bdf5436e068d851be414e24b688ac64cdced757a0dab01",
        "0386782effd07c2b9dab0b5bf884db1fd14d87ad4b2f53405c4a93e507d8130ba8"
      ],
      "is_coinbase": false,
      "sequence": 4294967293
    },
    {
      "txid": "cdf719c51cc89b4e7593cd26b52c4ef559307ae054304113d50ecd5db9852800",
      "vout": 5,
      "prevout": {
        "scriptpubkey": "001469bd6f3d3420b6050a129ecd5bd3a86e70854052",
        "scriptpubkey_asm": "OP_0 OP_PUSHBYTES_20 69bd6f3d3420b6050a129ecd5bd3a86e70854052",
        "scriptpubkey_type": "v0_p2wpkh",
        "scriptpubkey_address": "bc1qdx7k70f5yzmq2zsjnmx4h5agdecg2szjm6lyn4",
        "value": 19713
      },
      "scriptsig": "",
      "scriptsig_asm": "",
      "witness": [
        "304402204024ee6f27fc5ffaa55a29cba83f949b492a652c30ad0827dc5ee6cf5188cff502202b73a238cef760a94127891e1b3cbf268928273071be41b8484c55dcc1fe5fb601",
        "03b6f53b80ecb0223420534b4ecee702e33ea8cf2ae2cffe2b5558ecbb8011e0ad"
      ],
      "is_coinbase": false,
      "sequence": 4294967293
    },
    {
      "txid": "468e7f6f306922ab8479d41d9b8a8b6441b3341e5b6e6a82868aca2087312a0c",
      "vout": 1,
      "prevout": {
        "scriptpubkey": "00141b52335fcfcd70e74e040fc08341986c7926efa2",
        "scriptpubkey_asm": "OP_0 OP_PUSHBYTES_20 1b52335fcfcd70e74e040fc08341986c7926efa2",
        "scriptpubkey_type": "v0_p2wpkh",
        "scriptpubkey_address": "bc1qrdfrxh70e4cwwnsyplqgxsvcd3ujdmazx8ct06",
        "value": 51474
      },
      "scriptsig": "",
      "scriptsig_asm": "",
      "witness": [
        "304402206452dc4b5074af0c1d6dba39d29c2081d13365debc65590fc1ee51e7b0da527702202e58417b3f7595276cf4f0442227aa7ae26c89bbcefd79a815bdec8513b7623801",
        "03f53c4a085fbea73b3b74cd3d1650f7df45a46c269baabd3513040f37357697e2"
      ],
      "is_coinbase": false,
      "sequence": 4294967293
    },
    {
      "txid": "f0979ebfb896e12616179390a11dd2ad6e37739c38bfaca153686cef0ac97f85",
      "vout": 2,
      "prevout": {
        "scriptpubkey": "00144c2d343083e2ea737348b0b84ea28497a409be41",
        "scriptpubkey_asm": "OP_0 OP_PUSHBYTES_20 4c2d343083e2ea737348b0b84ea28497a409be41",
        "scriptpubkey_type": "v0_p2wpkh",
        "scriptpubkey_address": "bc1qfskngvyrut48xu6gkzuyag5yj7jqn0jp8n7rwp",
        "value": 51407
      },
      "scriptsig": "",
      "scriptsig_asm": "",
      "witness": [
        "3044022078d2fb767de8b54939ad5388cb8e93ea69b9d2949c673a13a80b62bc3c9eae3102201db1e24a91cdf36eff1ae370fd207b9b71fd24a9c8e1b584baf695620133c9c501",
        "030b7a522cfad6fcb2c458aec7bcef9ce2890297973f9d6dff370222ec7942609d"
      ],
      "is_coinbase": false,
      "sequence": 4294967293
    },
    {
      "txid": "30c91c4d1c8d20908d228d4138ea183b118e210ebeceed43ffc65fd58d9233ef",
      "vout": 0,
      "prevout": {
        "scriptpubkey": "001408aa42c88f444a36ab76c583f4fcc1e4d4f2e6ba",
        "scriptpubkey_asm": "OP_0 OP_PUSHBYTES_20 08aa42c88f444a36ab76c583f4fcc1e4d4f2e6ba",
        "scriptpubkey_type": "v0_p2wpkh",
        "scriptpubkey_address": "bc1qpz4y9jy0g39rd2mkckplflxpun209e464ld2ms",
        "value": 31154
      },
      "scriptsig": "",
      "scriptsig_asm": "",
      "witness": [
        "304402202b2fe448b327fe347bd82359888512cf6e11e7b83d5afc4cba3726edf84e61220220279c209d2b238294db94eee44d20056c2668531ba4d5c613e5fcec863090dd4701",
        "03f31bdd9a89ed1cf7946a2f19bf32f10730e826349a6f0b5fd1fcb09c92685bb7"
      ],
      "is_coinbase": false,
      "sequence": 4294967293
    },
    {
      "txid": "ed04d02e2e05143087f40eee59df5237bf2b76dbcafc6b1d2554fa49d28e4186",
      "vout": 2,
      "prevout": {
        "scriptpubkey": "0014625ed4599ed5aa60dd8603a2401187795bda3486",
        "scriptpubkey_asm": "OP_0 OP_PUSHBYTES_20 625ed4599ed5aa60dd8603a2401187795bda3486",
        "scriptpubkey_type": "v0_p2wpkh",
        "scriptpubkey_address": "bc1qvf0dgkv76k4xphvxqw3yqyv809da5dyxl4pnfe",
        "value": 30453
      },
      "scriptsig": "",
      "scriptsig_asm": "",
      "witness": [
        "304402204397e807cc2023964f046b4063a17830aad8bd457e76ca1927dd5426db5153c7022023972ee9d5be5f3088ff955865cb2d2b20518ac3da9b01dc8466cb333da41d8301",
        "02fdee76645a718a57732cb17f494ac7c36821a30ba9929572476b003d8ff89488"
      ],
      "is_coinbase": false,
      "sequence": 4294967293
    },
    {
      "txid": "e1aa6388d3aefa567675f6bd0a7a3398426a538b0b4d1d44dadd20bcd8dead5f",
      "vout": 0,
      "prevout": {
        "scriptpubkey": "00148a9471b3536dae652a46bd02ccbb036070d51fcc",
        "scriptpubkey_asm": "OP_0 OP_PUSHBYTES_20 8a9471b3536dae652a46bd02ccbb036070d51fcc",
        "scriptpubkey_type": "v0_p2wpkh",
        "scriptpubkey_address": "bc1q3228rv6ndkhx22jxh5pvewcrvpcd287vx2el98",
        "value": 17703
      },
      "scriptsig": "",
      "scriptsig_asm": "",
      "witness": [
        "304402207a2afbae47ece02b5424ae092f78a04ce25c14c9c954e2f64e03f159b878cabd02204d53750a5ff55001bb9449d989ed562852cf80eefb0afe4f97014b98428e0e7d01",
        "03297610dcd1637ea397e51d24092ed84804ba88b5c40f092dd8f4cba006871dfa"
      ],
      "is_coinbase": false,
      "sequence": 4294967293
    },
    {
      "txid": "f3aff7c9e9e2d6115da1d662a5c98e7fdd04be40ae06c492a5cc47d435fd5d27",
      "vout": 0,
      "prevout": {
        "scriptpubkey": "00146ca885b7959db8f4e3a5995eac82387382cece0d",
        "scriptpubkey_asm": "OP_0 OP_PUSHBYTES_20 6ca885b7959db8f4e3a5995eac82387382cece0d",
        "scriptpubkey_type": "v0_p2wpkh",
        "scriptpubkey_address": "bc1qdj5gtdu4nku0fca9n902eq3cwwpvansdgvd2ng",
        "value": 64907
      },
      "scriptsig": "",
      "scriptsig_asm": "",
      "witness": [
        "3044022000ca533c6d0669d1131f9fbb7b29f5592a8aa4a8c843d168dcf4d5bc0aa0cac2022018f2ca32801d1a53d28a38d72a3e7f0a0992bfd91bd21504108447eca6d5a42801",
        "03dd1862c8860cc52bdcbe7e1c0f22b1414005d500d2f91d79682a2f424eacec01"
      ],
      "is_coinbase": false,
      "sequence": 4294967293
    },
    {
      "txid": "f41d0c074c86ff70091b6382d289685aa8ab8f04b72dc75156d1384ff45185d1",
      "vout": 0,
      "prevout": {
        "scriptpubkey": "0014998a1765e38e025e16c30234380ae025c6ef352c",
        "scriptpubkey_asm": "OP_0 OP_PUSHBYTES_20 998a1765e38e025e16c30234380ae025c6ef352c",
        "scriptpubkey_type": "v0_p2wpkh",
        "scriptpubkey_address": "bc1qnx9pwe0r3cp9u9krqg6rszhqyhrw7dfvjrqy2c",
        "value": 32463
      },
      "scriptsig": "",
      "scriptsig_asm": "",
      "witness": [
        "30440220293ea056d19855a999c4b9c4cd50dfc21e4ff5a4b45f252e6562dbc3e2315240022069e6da9ac90f531cb7afd75775113302f3657d6419d709b9d0ca3942b2bfaa9501",
        "03adad02c60cbb1ce51a9b1ba0d77f7ca71411278591510a4cd20997541a8398e2"
      ],
      "is_coinbase": false,
      "sequence": 4294967293
    },
    {
      "txid": "21811622df051cdbfa07985957cf35724407c5ac1439150cd7cc522479b43c22",
      "vout": 0,
      "prevout": {
        "scriptpubkey": "00140451b6c2c36307bdff3481ad93e4c064d08910ee",
        "scriptpubkey_asm": "OP_0 OP_PUSHBYTES_20 0451b6c2c36307bdff3481ad93e4c064d08910ee",
        "scriptpubkey_type": "v0_p2wpkh",
        "scriptpubkey_address": "bc1qq3gmdskrvvrmmle5sxke8exqvnggjy8whr337f",
        "value": 34082
      },
      "scriptsig": "",
      "scriptsig_asm": "",
      "witness": [
        "304402205fce003fd49f2853964ef5e4b97a5eea651fcb67040c6b40442513bb8cfd51ad02203b63e60152d71b627183dcfb47cb5d620acf729b0c513a829f965081fc681f4801",
        "02e5199fa460ab8d12d472d69ae409360b81dab1fb9f43d5893c9bd7c1f15b64f8"
      ],
      "is_coinbase": false,
      "sequence": 4294967293
    },
    {
      "txid": "949e8d39ab4d437856db8b644a2b6a0a92f6edf920c72c7ee32702737ebcdc31",
      "vout": 0,
      "prevout": {
        "scriptpubkey": "00142d7dcc0465a993fc6a311610a28246a97bd19964",
        "scriptpubkey_asm": "OP_0 OP_PUSHBYTES_20 2d7dcc0465a993fc6a311610a28246a97bd19964",
        "scriptpubkey_type": "v0_p2wpkh",
        "scriptpubkey_address": "bc1q947ucpr94xflc633zcg29qjx49aarxtyhpxacw",
        "value": 7893
      },
      "scriptsig": "",
      "scriptsig_asm": "",
      "witness": [
        "30440220543c37b365280ebdf676a0b767f5889fd5e89567ed39e454d019956fafa9117802205f664f2d7c716113ad0725369ad33380198238969702708b7827cd649d99bc8701",
        "0329e1a99ddb06221ace5d058a61ac78e3fdf639318a5da806a26c0c94b8781325"
      ],
      "is_coinbase": false,
      "sequence": 4294967293
    },
    {
      "txid": "a296fe2aaf059c010d04667c6f90fcb29326cb85e13d024c56ee276e442431c5",
      "vout": 0,
      "prevout": {
        "scriptpubkey": "0014eea97bce796e27ad57d7643a49ce51f4615cc625",
        "scriptpubkey_asm": "OP_0 OP_PUSHBYTES_20 eea97bce796e27ad57d7643a49ce51f4615cc625",
        "scriptpubkey_type": "v0_p2wpkh",
        "scriptpubkey_address": "bc1qa65hhnnedcn6647hvsaynnj373s4e339mkh0mm",
        "value": 19805
      },
      "scriptsig": "",
      "scriptsig_asm": "",
      "witness": [
        "3043021f4dfaba6f27ed4222db69b271852b79d35a291fad276d975c697e8e8e8e195a0220341dcbab5742ed2557bb665b48a0e561af294bc3231c20e17c6da6f3f2c7063d01",
        "02c4fe180673a3e77ef6c2aec9d86c31388a9bf99697bc873708580e587c23e6f6"
      ],
      "is_coinbase": false,
      "sequence": 4294967293
    },
    {
      "txid": "a7c865be5bc022bc4df4c60c7ae349528e7d544f7b2bd6638e491f51fc99a7ca",
      "vout": 9,
      "prevout": {
        "scriptpubkey": "0014972708fe7ade637ad4f9012fdf109bbb0b8dc531",
        "scriptpubkey_asm": "OP_0 OP_PUSHBYTES_20 972708fe7ade637ad4f9012fdf109bbb0b8dc531",
        "scriptpubkey_type": "v0_p2wpkh",
        "scriptpubkey_address": "bc1qjuns3ln6me3h448eqyha7yymhv9cm3f3wywlaw",
        "value": 17505
      },
      "scriptsig": "",
      "scriptsig_asm": "",
      "witness": [
        "30440220313746079934a72e397121698f4ecf9cd47eb147c7a995460075b9d270573f17022021685d3b0a2e6778e6021ecfdf23b616bf2f0f38138cdb3857d42b2aac59971001",
        "0290e3294257ab3361851314f69cf34ee959a81967f287129016d33d55bbdebf03"
      ],
      "is_coinbase": false,
      "sequence": 4294967293
    },
    {
      "txid": "537b26ef7de74342d0ec910c5ed54366053adae74940275fd6824590f83ab069",
      "vout": 0,
      "prevout": {
        "scriptpubkey": "00141ee00bb1fcb3d8a77e749d0c017be376e3722cdb",
        "scriptpubkey_asm": "OP_0 OP_PUSHBYTES_20 1ee00bb1fcb3d8a77e749d0c017be376e3722cdb",
        "scriptpubkey_type": "v0_p2wpkh",
        "scriptpubkey_address": "bc1qrmsqhv0uk0v2wln5n5xqz7lrwm3hytxmyj8hgt",
        "value": 35584
      },
      "scriptsig": "",
      "scriptsig_asm": "",
      "witness": [
        "30440220035ab6b2710ddc2c9fcb86314e5ba310d41fa06339277a1872cf7ccc0bbfbb5102201b386c97c22c1da7d590c8f994fccc8ef8ffed086c6d9f85e8142b1aac0dbf4301",
        "03649ef7786a3380bdb79be262c56055ab018458f3c7aac77cd40979a1d20212da"
      ],
      "is_coinbase": false,
      "sequence": 4294967293
    },
    {
      "txid": "1e4ee3f4634af47ef983a81ae2f6d1e553842942206b8b7aabf6558da86084c4",
      "vout": 2,
      "prevout": {
        "scriptpubkey": "0014e378b0cdf813c02db04b2f02619a509f45830afe",
        "scriptpubkey_asm": "OP_0 OP_PUSHBYTES_20 e378b0cdf813c02db04b2f02619a509f45830afe",
        "scriptpubkey_type": "v0_p2wpkh",
        "scriptpubkey_address": "bc1qudutpn0cz0qzmvzt9upxrxjsnazcxzh79l0hmf",
        "value": 76300
      },
      "scriptsig": "",
      "scriptsig_asm": "",
      "witness": [
        "3044022043471003ba0b9557a02c51203aea1eb96a9e4fffb0c82407cfc9d55baba4e04102200128a653417906793078909db75b5550fdaefab17d53b73cfa12b7aed7a828c601",
        "03e55afd4f47e776894ed808370a0881637b65182c72b1a6296c868bf0ee3c937a"
      ],
      "is_coinbase": false,
      "sequence": 4294967293
    },
    {
      "txid": "fc5c3ae6a4604a0a0cf97faceab90d98f06493fa9b5ff1289c3629e1b28386ea",
      "vout": 1,
      "prevout": {
        "scriptpubkey": "a91458b8a3a6f4a2bb31f31ac183224b4b9a76052c9987",
        "scriptpubkey_asm": "OP_HASH160 OP_PUSHBYTES_20 58b8a3a6f4a2bb31f31ac183224b4b9a76052c99 OP_EQUAL",
        "scriptpubkey_type": "p2sh",
        "scriptpubkey_address": "39n8aPLcxzzq6RX3eYk4QGdnktUZXGRXxt",
        "value": 4557
      },
      "scriptsig": "160014e69325502625fb9ebd090291bd1a75455d4ed626",
      "scriptsig_asm": "OP_PUSHBYTES_22 0014e69325502625fb9ebd090291bd1a75455d4ed626",
      "witness": [
        "3044022026bd8d30b064cc346b60294f2316f917fab4b4f58a46c4535b7adacf3e438899022023d678df003c4d4506ef243f3897c6919e116e4570d84b227e5a43660a8232e001",
        "021a502fa9b7bc901341fd467ce95832df8437b77c3480eab3b37170998cd33f8e"
      ],
      "is_coinbase": false,
      "sequence": 4294967293,
      "inner_redeemscript_asm": "OP_0 OP_PUSHBYTES_20 e69325502625fb9ebd090291bd1a75455d4ed626"
    },
    {
      "txid": "c6a76926df512f0a74dc4c0627d232d8c90b3f482f6eaae62ad2ccace24059b8",
      "vout": 1,
      "prevout": {
        "scriptpubkey": "0014d9bba71b1541db8080cb73a88f0ac6028bc8cb89",
        "scriptpubkey_asm": "OP_0 OP_PUSHBYTES_20 d9bba71b1541db8080cb73a88f0ac6028bc8cb89",
        "scriptpubkey_type": "v0_p2wpkh",
        "scriptpubkey_address": "bc1qmxa6wxc4g8dcpqxtww5g7zkxq29u3juftxrr2w",
        "value": 94749
      },
      "scriptsig": "",
      "scriptsig_asm": "",
      "witness": [
        "3044022062f755053b9385a6840fc833909dce8cbfb441a09637c15425613b4de6c16be202205eb6d1dd26728c48cbae1d4ea35b4d9a157a1c59873e1eaee9141d86ce17ae6e01",
        "02eb8130baa48a37165c6c4e53ae1b245b1c67728d6339a3b7255e09ac71d9c818"
      ],
      "is_coinbase": false,
      "sequence": 4294967293
    },
    {
      "txid": "a8f2143fcee93c692e33d947b461b403c6bc17f837f4963f77ebfbf43ed415b5",
      "vout": 0,
      "prevout": {
        "scriptpubkey": "0014e7aa941e17cb2e9c0a5a6231eb6389da90e85d33",
        "scriptpubkey_asm": "OP_0 OP_PUSHBYTES_20 e7aa941e17cb2e9c0a5a6231eb6389da90e85d33",
        "scriptpubkey_type": "v0_p2wpkh",
        "scriptpubkey_address": "bc1qu74fg8shevhfczj6vgc7kcufm2gwshfngcvh4u",
        "value": 45521
      },
      "scriptsig": "",
      "scriptsig_asm": "",
      "witness": [
        "304402205202ba9e3e023d5d1fae91f4b49764898e8e7b6c734cf584a483712098028919022063912e25f0876d3c618792e8563caa7b0d39c3ddb93da515dbccbe5893a0911c01",
        "029ca7a5e248ec3a0c56f068baced6dfb6d62dcb55aa398c5d90554e67a95042cf"
      ],
      "is_coinbase": false,
      "sequence": 4294967293
    },
    {
      "txid": "e460ba113af20b1b7f3c50498ab48f5c88bd716113a6b661bb7aae25ab3d9c3e",
      "vout": 4,
      "prevout": {
        "scriptpubkey": "00148d1a40b1c416dd93e5d1f054b5c8daaa3a9b4143",
        "scriptpubkey_asm": "OP_0 OP_PUSHBYTES_20 8d1a40b1c416dd93e5d1f054b5c8daaa3a9b4143",
        "scriptpubkey_type": "v0_p2wpkh",
        "scriptpubkey_address": "bc1q35dypvwyzmwe8ew37p2ttjx64gafks2rlvpkk8",
        "value": 53143
      },
      "scriptsig": "",
      "scriptsig_asm": "",
      "witness": [
        "304402204578dc9df2484839ad347eaa1a2c76cbf20185490c347f96d7cea2e95813340c0220700dbe99502698e4f06157f16442b351b5544e231f2de9018955b8e8cd88bb8c01",
        "0372310faa50a17f4312e8c07e8794ccaa10a5f3a2c29af359cab9d4cb979510b6"
      ],
      "is_coinbase": false,
      "sequence": 4294967293
    },
    {
      "txid": "3eeb13826fdb9f6a5fb02b2cc916d4408f61ba993d8720dc82c63c82d3b3aa0c",
      "vout": 4,
      "prevout": {
        "scriptpubkey": "0014e16f6d3d319c0c8be0db9752443d4f1d569efb62",
        "scriptpubkey_asm": "OP_0 OP_PUSHBYTES_20 e16f6d3d319c0c8be0db9752443d4f1d569efb62",
        "scriptpubkey_type": "v0_p2wpkh",
        "scriptpubkey_address": "bc1qu9hk60f3nsxghcxmjafyg020r4tfa7mzwxv2yc",
        "value": 51495
      },
      "scriptsig": "",
      "scriptsig_asm": "",
      "witness": [
        "3044022005053ed34c89aa75661f7f9d46ae949018ce27d08ca9fadeda566503eada227602206376f7f142bf9dfcbb674110310be498f36044e1f00c927c539048c29dd9463301",
        "02810e5a16f907de846b0113870db63d37688f7151e862e5349fd665cc4676be99"
      ],
      "is_coinbase": false,
      "sequence": 4294967293
    },
    {
      "txid": "0c8e90f6c3ff0451abaa7b939f92425e128ee34f03f02ec8583b1bcf514ddabd",
      "vout": 0,
      "prevout": {
        "scriptpubkey": "00142b4a87f805b2b4e13446436c559d60295663c357",
        "scriptpubkey_asm": "OP_0 OP_PUSHBYTES_20 2b4a87f805b2b4e13446436c559d60295663c357",
        "scriptpubkey_type": "v0_p2wpkh",
        "scriptpubkey_address": "bc1q9d9g07q9k26wzdzxgdk9t8tq99tx8s6hszvrym",
        "value": 49052
      },
      "scriptsig": "",
      "scriptsig_asm": "",
      "witness": [
        "304402201ca824351abb90a2b807f6ffb018917a14666e06f6430cd784053b23f4d22e38022035892d26b901829490314728dafd8d951997d37c1f3bca35b74dab93ed29804f01",
        "03a194f3b82ad9e51fae5693e01b6a051249b43265e61c93f85fd0dca286e055d7"
      ],
      "is_coinbase": false,
      "sequence": 4294967293
    },
    {
      "txid": "284573775d3ed674725905545b064eaa5f5abd0ae194ddb992ac7d14fe141138",
      "vout": 2,
      "prevout": {
        "scriptpubkey": "0014743d79f585b5bc8d217eec952247716786d6867c",
        "scriptpubkey_asm": "OP_0 OP_PUSHBYTES_20 743d79f585b5bc8d217eec952247716786d6867c",
        "scriptpubkey_type": "v0_p2wpkh",
        "scriptpubkey_address": "bc1qws7hnav9kk7g6gt7aj2jy3m3v7rddpnufjpmh4",
        "value": 36796
      },
      "scriptsig": "",
      "scriptsig_asm": "",
      "witness": [
        "304402201e2a597cc172ba369cc4919aab147003525ddbe59f73d50046ddbb4408eaf97c02202a2ee42030b6a6cad173c1bedcbe3544c0efd1c2f1f58728f7b0ca78e96239af01",
        "035b4d86f2f18e129d3680f1db1feb1a3aebbb53bbdf3fbf3739492a7f63319ae9"
      ],
      "is_coinbase": false,
      "sequence": 4294967293
    },
    {
      "txid": "3a514959c28144ed93e0b85cfc9bf00f006ff5aeea450a45b2efd9a9e2a6f9f8",
      "vout": 0,
      "prevout": {
        "scriptpubkey": "00148c582d4d53fe6e33df1ba9600814b689d608af91",
        "scriptpubkey_asm": "OP_0 OP_PUSHBYTES_20 8c582d4d53fe6e33df1ba9600814b689d608af91",
        "scriptpubkey_type": "v0_p2wpkh",
        "scriptpubkey_address": "bc1q33vz6n2nlehr8hcm49sqs99k38tq3tu3zenu9m",
        "value": 81630
      },
      "scriptsig": "",
      "scriptsig_asm": "",
      "witness": [
        "3044022010e71ee46b6a801c43887915c5db5db21458d7710fa2b5768cddc2f8e2d3522502206c775bf65f2ee1504f08d535753a787bc9b8a9aa791cb56f3526c922c608ff2001",
        "0306d88d354d1a33d60b4fd23e3eff1d1cff3bc274b831ad5eff53225c2187ca93"
      ],
      "is_coinbase": false,
      "sequence": 4294967293
    },
    {
      "txid": "ed04d02e2e05143087f40eee59df5237bf2b76dbcafc6b1d2554fa49d28e4186",
      "vout": 1,
      "prevout": {
        "scriptpubkey": "001493cbb86ab30c180492487be7792e026e5b8e08bc",
        "scriptpubkey_asm": "OP_0 OP_PUSHBYTES_20 93cbb86ab30c180492487be7792e026e5b8e08bc",
        "scriptpubkey_type": "v0_p2wpkh",
        "scriptpubkey_address": "bc1qj09ms64npsvqfyjg00nhjtszdedcuz9u9qelcy",
        "value": 49935
      },
      "scriptsig": "",
      "scriptsig_asm": "",
      "witness": [
        "30440220131156754f862882049c737ab62997b8b1342fbc12903e7a4abc9dfbfb2209bc02206f2ce5c66aba0e4fbbd76ff97843f80da5111e40908ff78ebe56d603898ce83801",
        "030a673fea168b60f99a9caff3272d33eba876a3733fc6b36896e541886873ce20"
      ],
      "is_coinbase": false,
      "sequence": 4294967293
    },
    {
      "txid": "950c39c95470bcb03669f35e6cfaf5c8433eddd7759f053c96aa842dda194d40",
      "vout": 3,
      "prevout": {
        "scriptpubkey": "00145b05a387da2f2222e6011d6b435f836847038db6",
        "scriptpubkey_asm": "OP_0 OP_PUSHBYTES_20 5b05a387da2f2222e6011d6b435f836847038db6",
        "scriptpubkey_type": "v0_p2wpkh",
        "scriptpubkey_address": "bc1qtvz68p769u3z9espr445xhurdprs8rdkk32u02",
        "value": 93072
      },
      "scriptsig": "",
      "scriptsig_asm": "",
      "witness": [
        "304402201e936debe40b459a711dfba26fb2167756d98ebc8f9533fabaac4703b82380bd022056c0529d16bf2f1b6bb524e273b9398aecf6d97d3610a59aae63fe92055c17a701",
        "026be323966520f4b7e2bb4358ef4d01465cea2a97c5fda19ba9e2d114dcb95e2b"
      ],
      "is_coinbase": false,
      "sequence": 4294967293
    },
    {
      "txid": "ed04d02e2e05143087f40eee59df5237bf2b76dbcafc6b1d2554fa49d28e4186",
      "vout": 0,
      "prevout": {
        "scriptpubkey": "00143c6d7ece95cad70a0456bb2d194ef02a8b191a23",
        "scriptpubkey_asm": "OP_0 OP_PUSHBYTES_20 3c6d7ece95cad70a0456bb2d194ef02a8b191a23",
        "scriptpubkey_type": "v0_p2wpkh",
        "scriptpubkey_address": "bc1q83khan54etts5pzkhvk3jnhs9293jx3rxtfqss",
        "value": 70205
      },
      "scriptsig": "",
      "scriptsig_asm": "",
      "witness": [
        "3044022030eaeb569aa118c053a2bd9b45b82fd17bbf10b086608eadc60e733f7a29c8b802202dd04ace4cc76fe01dcdeaf98c9d32e35983a52d754e451b5498d501ac702c7601",
        "03c8d58e2547cdb3d9f12e4334a06c69e1604f9e6b9e089b62071df6c4716e0826"
      ],
      "is_coinbase": false,
      "sequence": 4294967293
    },
    {
      "txid": "2ca40814a7b144cc489a4b0c0d219fc3f0937628b4bee7e479c830c08389bd6e",
      "vout": 0,
      "prevout": {
        "scriptpubkey": "0014b3ede0881929462a41efaa010a05f75b1e681b45",
        "scriptpubkey_asm": "OP_0 OP_PUSHBYTES_20 b3ede0881929462a41efaa010a05f75b1e681b45",
        "scriptpubkey_type": "v0_p2wpkh",
        "scriptpubkey_address": "bc1qk0k7pzqe99rz5s004gqs5p0htv0xsx69j324g4",
        "value": 45192
      },
      "scriptsig": "",
      "scriptsig_asm": "",
      "witness": [
        "3044022029a6f80d9142f921e68259aab8a564ef9301526c87accbf1d4eec07af75b792a022020602a9c0bc01f0c4b8922999b3e71f33029a153ffbde0c58282dfab99f731ca01",
        "02e0f81b0e37a9bb7544cf3e8b3dc4caf4f65fec7adbd764770bfe9344b2f19996"
      ],
      "is_coinbase": false,
      "sequence": 4294967293
    },
    {
      "txid": "54cdfa996046a57de60b07dc22aedd2e96ef14aa101a847c490e47689f3193d6",
      "vout": 0,
      "prevout": {
        "scriptpubkey": "0014bf3222000a10aae6365a56abd305831b757e4099",
        "scriptpubkey_asm": "OP_0 OP_PUSHBYTES_20 bf3222000a10aae6365a56abd305831b757e4099",
        "scriptpubkey_type": "v0_p2wpkh",
        "scriptpubkey_address": "bc1qhuezyqq2zz4wvdj6264axpvrrd6husyec44uwn",
        "value": 5343
      },
      "scriptsig": "",
      "scriptsig_asm": "",
      "witness": [
        "3044022052ae60d00f7e3df11e3204f3b0eed3b3c7db62565c9d22d9252e91e6f149a3360220157822e0630881a6f34baaccf4e38d265a702caf1a802385ade95e3b323b595901",
        "024268d66595d04dad8c88bfe254e0f802ef0b07096168a96845aa6135ba61972e"
      ],
      "is_coinbase": false,
      "sequence": 4294967293
    },
    {
      "txid": "b353a0caa3cebdadb27398929d543bcbe0704362ff2d02beab5a37ee716aedc1",
      "vout": 1,
      "prevout": {
        "scriptpubkey": "0014929cfa3ffd9c9d331e5efb8cb561718a460e142b",
        "scriptpubkey_asm": "OP_0 OP_PUSHBYTES_20 929cfa3ffd9c9d331e5efb8cb561718a460e142b",
        "scriptpubkey_type": "v0_p2wpkh",
        "scriptpubkey_address": "bc1qj2w050lanjwnx8j7lwxt2ct33frqu9pty5tpwu",
        "value": 44944
      },
      "scriptsig": "",
      "scriptsig_asm": "",
      "witness": [
        "304402203187d3a6a97ce0849b5a78412a07830b2b9e84b64469f6aa67413977fa8e12bf02202d6168cd0fc8785c59398a8ed9778a2a6a9947cbef52ecfcb038bdbf8305e84901",
        "0243305b203c7b83402a3ab2d3307faf2139e0ab5d78942e5b27480c698fc852f2"
      ],
      "is_coinbase": false,
      "sequence": 4294967293
    },
    {
      "txid": "af5ee29e0c0bcebf53679488291311e28f7cdb8c591c814551812ed8e6b2617c",
      "vout": 2,
      "prevout": {
        "scriptpubkey": "0014c723ec4d927f22aa2702a9a42ba5e82a73e8ccb3",
        "scriptpubkey_asm": "OP_0 OP_PUSHBYTES_20 c723ec4d927f22aa2702a9a42ba5e82a73e8ccb3",
        "scriptpubkey_type": "v0_p2wpkh",
        "scriptpubkey_address": "bc1qcu37cnvj0u325fcz4xjzhf0g9fe73n9nus5f6e",
        "value": 35596
      },
      "scriptsig": "",
      "scriptsig_asm": "",
      "witness": [
        "3044022016d5e18a245206f5ef06cacea0834f2452291778b76af048d428449a56917907022004bbee8405b2014f688bd989d47546d0fb369d3d65c6a900a1ecc734a22414a801",
        "02beb24f6bd1de13af014c8b57f93a5495591a5c933a423152b53fa9d93a9fc8e4"
      ],
      "is_coinbase": false,
      "sequence": 4294967293
    },
    {
      "txid": "468e7f6f306922ab8479d41d9b8a8b6441b3341e5b6e6a82868aca2087312a0c",
      "vout": 0,
      "prevout": {
        "scriptpubkey": "0014f6178569692a5a72ded6dec2c6973a0118cc9bdf",
        "scriptpubkey_asm": "OP_0 OP_PUSHBYTES_20 f6178569692a5a72ded6dec2c6973a0118cc9bdf",
        "scriptpubkey_type": "v0_p2wpkh",
        "scriptpubkey_address": "bc1q7ctc26tf9fd89hkkmmpvd9e6qyvvex7lhxuft4",
        "value": 56078
      },
      "scriptsig": "",
      "scriptsig_asm": "",
      "witness": [
        "30440220719ce4f7ace0aaf843f119b74c55e80d7bb0a083ced0c6b7d02bd1d709748d5d02203733b2971ef4913373255edbcda7f5289ed2639fdddddda276946e90fdc7d24f01",
        "03c8a56be5b9d3edf9df23cae8c71a16dc47f033e15c69a96237a26e70ee48e9f9"
      ],
      "is_coinbase": false,
      "sequence": 4294967293
    },
    {
      "txid": "3699ea4ae28b56d544258b317a44d612b9386a51d2603a3a4f8099f7e9a4a60b",
      "vout": 0,
      "prevout": {
        "scriptpubkey": "0014c8c60171ec636567e0791dbdd704f34b8ccb4bcc",
        "scriptpubkey_asm": "OP_0 OP_PUSHBYTES_20 c8c60171ec636567e0791dbdd704f34b8ccb4bcc",
        "scriptpubkey_type": "v0_p2wpkh",
        "scriptpubkey_address": "bc1qerrqzu0vvdjk0crerk7awp8nfwxvkj7vh4emyx",
        "value": 60358
      },
      "scriptsig": "",
      "scriptsig_asm": "",
      "witness": [
        "304402201b792a53bee72351ac5ad15b886aa4af98d65c562bdc43ec3729713fd66ff8af0220130ee60804ef3be8c3e4fb9a667ce1b3d9d89c8115c36222b82f4325bd1205f501",
        "03eeb825ef3636b2a64398c315ab917ed9371440e2f33503a1ab6498a1528009b5"
      ],
      "is_coinbase": false,
      "sequence": 4294967293
    },
    {
      "txid": "3eeb13826fdb9f6a5fb02b2cc916d4408f61ba993d8720dc82c63c82d3b3aa0c",
      "vout": 6,
      "prevout": {
        "scriptpubkey": "0014487712f2260a3304c691be479e2313c499db53f4",
        "scriptpubkey_asm": "OP_0 OP_PUSHBYTES_20 487712f2260a3304c691be479e2313c499db53f4",
        "scriptpubkey_type": "v0_p2wpkh",
        "scriptpubkey_address": "bc1qfpm39u3xpgesf353hereugcncjvak5l5d2aktk",
        "value": 64894
      },
      "scriptsig": "",
      "scriptsig_asm": "",
      "witness": [
        "304402207a73e24909e2eb792fc362e5706f6bdfc62c536b115117925f807e3fd12b229d02200b2911c5769bd8ac285dc957a46e8f8a11a09d215f9792bc603ec111ee98400101",
        "025d355e9aba35d6413499200a1b4972d036cca5c134807c7b68e29b16a5dda7d6"
      ],
      "is_coinbase": false,
      "sequence": 4294967293
    }
  ],
  "vout": [
    {
      "scriptpubkey": "00141b2c7539e85030eab3a3521ef4208ad048a99464",
      "scriptpubkey_asm": "OP_0 OP_PUSHBYTES_20 1b2c7539e85030eab3a3521ef4208ad048a99464",
      "scriptpubkey_type": "v0_p2wpkh",
      "scriptpubkey_address": "bc1qrvk82w0g2qcw4var2g00ggy26py2n9ryld5wm4",
      "value": 30680
    },
    {
      "scriptpubkey": "0014e3292951d78090eb9c30cfe518b5da12f663776a",
      "scriptpubkey_asm": "OP_0 OP_PUSHBYTES_20 e3292951d78090eb9c30cfe518b5da12f663776a",
      "scriptpubkey_type": "v0_p2wpkh",
      "scriptpubkey_address": "bc1quv5jj5whszgwh8pselj33dw6ztmxxam2xz9x7z",
      "value": 444980
    },
    {
      "scriptpubkey": "001418868d3fbd6133ed5e20b54ef1b1a805af1d5f3b",
      "scriptpubkey_asm": "OP_0 OP_PUSHBYTES_20 18868d3fbd6133ed5e20b54ef1b1a805af1d5f3b",
      "scriptpubkey_type": "v0_p2wpkh",
      "scriptpubkey_address": "bc1qrzrg60aavye76h3qk480rvdgqkh36hemywgtf8",
      "value": 126860
    },
    {
      "scriptpubkey": "001470335163f04ae9b7309038685e4c6e1f4d1c463a",
      "scriptpubkey_asm": "OP_0 OP_PUSHBYTES_20 70335163f04ae9b7309038685e4c6e1f4d1c463a",
      "scriptpubkey_type": "v0_p2wpkh",
      "scriptpubkey_address": "bc1qwqe4zclsft5mwvys8p59unrwrax3c336a64f83",
      "value": 46080
    },
    {
      "scriptpubkey": "0014fe05c70fcc7d9dc792acd7068fa949d70a813692",
      "scriptpubkey_asm": "OP_0 OP_PUSHBYTES_20 fe05c70fcc7d9dc792acd7068fa949d70a813692",
      "scriptpubkey_type": "v0_p2wpkh",
      "scriptpubkey_address": "bc1qlczuwr7v0kwu0y4v6urgl22f6u9gzd5j62zznj",
      "value": 394440
    },
    {
      "scriptpubkey": "00149e1450f8863235c58fafa8a1e1b47bef0d8e4848",
      "scriptpubkey_asm": "OP_0 OP_PUSHBYTES_20 9e1450f8863235c58fafa8a1e1b47bef0d8e4848",
      "scriptpubkey_type": "v0_p2wpkh",
      "scriptpubkey_address": "bc1qnc29p7yxxg6utra04zs7rdrmauxcujzg525d5d",
      "value": 89780
    },
    {
      "scriptpubkey": "0014b1897a81992da2ce0d4dfeb87ee7d81dbe4f86d2",
      "scriptpubkey_asm": "OP_0 OP_PUSHBYTES_20 b1897a81992da2ce0d4dfeb87ee7d81dbe4f86d2",
      "scriptpubkey_type": "v0_p2wpkh",
      "scriptpubkey_address": "bc1qkxyh4qve9k3vur2dl6u8ae7crklylpkjwe46gj",
      "value": 70580
    },
    {
      "scriptpubkey": "0014da44a07e0963785388fa585054eb9a6e568eeb11",
      "scriptpubkey_asm": "OP_0 OP_PUSHBYTES_20 da44a07e0963785388fa585054eb9a6e568eeb11",
      "scriptpubkey_type": "v0_p2wpkh",
      "scriptpubkey_address": "bc1qmfz2qlsfvdu98z86tpg9f6u6detga6c32nvgfj",
      "value": 51180
    },
    {
      "scriptpubkey": "001409c750c4b56bf79f0624b30e5bd2332ce8e239ca",
      "scriptpubkey_asm": "OP_0 OP_PUSHBYTES_20 09c750c4b56bf79f0624b30e5bd2332ce8e239ca",
      "scriptpubkey_type": "v0_p2wpkh",
      "scriptpubkey_address": "bc1qp8r4p394d0me7p3ykv89h53n9n5wyww2qzmc3g",
      "value": 40280
    },
    {
      "scriptpubkey": "00143bb581e039248aee4655910b907dd793c2e5ba4b",
      "scriptpubkey_asm": "OP_0 OP_PUSHBYTES_20 3bb581e039248aee4655910b907dd793c2e5ba4b",
      "scriptpubkey_type": "v0_p2wpkh",
      "scriptpubkey_address": "bc1q8w6crcpeyj9wu3j4jy9eqlwhj0pwtwjthalxgg",
      "value": 24280
    },
    {
      "scriptpubkey": "001475d14ee65b33a2b395557cb92b81eccf7a35b31d",
      "scriptpubkey_asm": "OP_0 OP_PUSHBYTES_20 75d14ee65b33a2b395557cb92b81eccf7a35b31d",
      "scriptpubkey_type": "v0_p2wpkh",
      "scriptpubkey_address": "bc1qwhg5aejmxw3t89240jujhq0veaartvcaqjmx2f",
      "value": 94740
    },
    {
      "scriptpubkey": "00147264cae2ffe864e2e1e8b3299b3b5bbbe408e4aa",
      "scriptpubkey_asm": "OP_0 OP_PUSHBYTES_20 7264cae2ffe864e2e1e8b3299b3b5bbbe408e4aa",
      "scriptpubkey_type": "v0_p2wpkh",
      "scriptpubkey_address": "bc1qwfjv4chlapjw9c0gkv5ekw6mh0jq3e925sq9ju",
      "value": 30680
    },
    {
      "scriptpubkey": "001401aaba19c013d09a2e12c2f0288190e4bf9b886a",
      "scriptpubkey_asm": "OP_0 OP_PUSHBYTES_20 01aaba19c013d09a2e12c2f0288190e4bf9b886a",
      "scriptpubkey_type": "v0_p2wpkh",
      "scriptpubkey_address": "bc1qqx4t5xwqz0gf5tsjctcz3qvsujlehzr24m4rey",
      "value": 40980
    },
    {
      "scriptpubkey": "001429992f9fc3014076054b960a9c7565ce32da3407",
      "scriptpubkey_asm": "OP_0 OP_PUSHBYTES_20 29992f9fc3014076054b960a9c7565ce32da3407",
      "scriptpubkey_type": "v0_p2wpkh",
      "scriptpubkey_address": "bc1q9xvjl87rq9q8vp2tjc9fcat9eced5dq82wda5u",
      "value": 44180
    }
  ],
  "size": 5647,
  "weight": 11353,
  "fee": 34176,
  "status": {
    "confirmed": true,
    "block_height": 834460,
    "block_hash": "00000000000000000000484a79b643b2524bbce82e5d8a442013fa5b8905ed98",
    "block_time": 1710307468
  },
  "hex": "0200000000012305c8e7f7a4c462e7eff8f600f5265788a773c3f56c9fb044675df1b476dc78b00600000000fdffffff99751c184a9f96c80009413a7a4727acd7e6669a53640b0d8cd28d31362761e90000000000fdffffff404d19da2d84aa963c059f75d7dd3e43c8f5fa6c5ef36936b0bc7054c9390c950100000000fdffffff002885b95dcd0ed513413054e07a3059f54e2cb526cd93754e9bc81cc519f7cd0500000000fdffffff0c2a318720ca8a86826a6e5b1e34b341648b8a9b1dd47984ab2269306f7f8e460100000000fdffffff857fc90aef6c6853a1acbf389c73376eadd21da19093171626e196b8bf9e97f00200000000fdffffffef33928dd55fc6ff43edcebe0e218e113b18ea38418d228d90208d1c4d1cc9300000000000fdffffff86418ed249fa54251d6bfccadb762bbf3752df59ee0ef4873014052e2ed004ed0200000000fdffffff5fadded8bc20ddda441d4d0b8b536a4298337a0abdf6757656faaed38863aae10000000000fdffffff275dfd35d447cca592c406ae40be04dd7f8ec9a562d6a15d11d6e2e9c9f7aff30000000000fdffffffd18551f44f38d15651c72db7048faba85a6889d282631b0970ff864c070c1df40000000000fdffffff223cb4792452ccd70c153914acc507447235cf57599807fadb1c05df221681210000000000fdffffff31dcbc7e730227e37e2cc720f9edf6920a6a2b4a648bdb5678434dab398d9e940000000000fdffffffc53124446e27ee564c023de185cb2693b2fc906f7c66040d019c05af2afe96a20000000000fdffffffcaa799fc511f498e63d62b7b4f547d8e5249e37a0cc6f44dbc22c05bbe65c8a70900000000fdffffff69b03af8904582d65f274049e7da3a056643d55e0c91ecd04243e77def267b530000000000fdffffffc48460a88d55f6ab7a8b6b2042298453e5d1f6e21aa883f97ef44a63f4e34e1e0200000000fdffffffea8683b2e129369c28f15f9bfa9364f0980db9eaac7ff90c0a4a60a4e63a5cfc0100000017160014e69325502625fb9ebd090291bd1a75455d4ed626fdffffffb85940e2acccd22ae6aa6e2f483f0bc9d832d227064cdc740a2f51df2669a7c60100000000fdffffffb515d43ef4fbeb773f96f437f817bcc603b461b447d9332e693ce9ce3f14f2a80000000000fdffffff3e9c3dab25ae7abb61b6a6136171bd885c8fb48a49503c7f1b0bf23a11ba60e40400000000fdffffff0caab3d3823cc682dc20873d99ba618f40d416c92c2bb05f6a9fdb6f8213eb3e0400000000fdffffffbdda4d51cf1b3b58c82ef0034fe38e125e42929f937baaab5104ffc3f6908e0c0000000000fdffffff381114fe147dac92b9dd94e10abd5a5faa4e065b5405597274d63e5d777345280200000000fdfffffff8f9a6e2a9d9efb2450a45eaaef56f000ff09bfc5cb8e093ed4481c25949513a0000000000fdffffff86418ed249fa54251d6bfccadb762bbf3752df59ee0ef4873014052e2ed004ed0100000000fdffffff404d19da2d84aa963c059f75d7dd3e43c8f5fa6c5ef36936b0bc7054c9390c950300000000fdffffff86418ed249fa54251d6bfccadb762bbf3752df59ee0ef4873014052e2ed004ed0000000000fdffffff6ebd8983c030c879e4e7beb4287693f0c39f210d0c4b9a48cc44b1a71408a42c0000000000fdffffffd693319f68470e497c841a10aa14ef962eddae22dc070be67da5466099facd540000000000fdffffffc1ed6a71ee375aabbe022dff624370e0cb3b549d929873b2adbdcea3caa053b30100000000fdffffff7c61b2e6d82e815145811c598cdb7c8fe211132988946753bfce0b0c9ee25eaf0200000000fdffffff0c2a318720ca8a86826a6e5b1e34b341648b8a9b1dd47984ab2269306f7f8e460000000000fdffffff0ba6a4e9f799804f3a3a60d2516a38b912d6447a318b2544d5568be24aea99360000000000fdffffff0caab3d3823cc682dc20873d99ba618f40d416c92c2bb05f6a9fdb6f8213eb3e0600000000fdffffff0ed8770000000000001600141b2c7539e85030eab3a3521ef4208ad048a9946434ca060000000000160014e3292951d78090eb9c30cfe518b5da12f663776a8cef01000000000016001418868d3fbd6133ed5e20b54ef1b1a805af1d5f3b00b400000000000016001470335163f04ae9b7309038685e4c6e1f4d1c463ac804060000000000160014fe05c70fcc7d9dc792acd7068fa949d70a813692b45e0100000000001600149e1450f8863235c58fafa8a1e1b47bef0d8e4848b413010000000000160014b1897a81992da2ce0d4dfeb87ee7d81dbe4f86d2ecc7000000000000160014da44a07e0963785388fa585054eb9a6e568eeb11589d00000000000016001409c750c4b56bf79f0624b30e5bd2332ce8e239cad85e0000000000001600143bb581e039248aee4655910b907dd793c2e5ba4b147201000000000016001475d14ee65b33a2b395557cb92b81eccf7a35b31dd8770000000000001600147264cae2ffe864e2e1e8b3299b3b5bbbe408e4aa14a000000000000016001401aaba19c013d09a2e12c2f0288190e4bf9b886a94ac00000000000016001429992f9fc3014076054b960a9c7565ce32da34070247304402207396907ee7cf3c71797c1a1d780732e17eb44b1f2cebc2b22e4c542f007959ab022028383cc3a6f884ea398669102b19f55c9464363ad624402af1f3ad74ae598d2701210317120b84b51c4537763d22f1fda9102094361af2b9cebb3c8c7e9cb0109a6ded0247304402203fc31c954d51d1e0f9892d45efe47707a4e20351617b561887bebc0e8b49925502201a2833690db9e67a60f195a1fe494d19a1ca3a103f529769223a8b1431c62e4f012103cdace60fa3bfa6fb7340b59c76194ffa1cd7d88494de105d20d716b8995a5c1402463043021f7960fdbed47528a01bacc18110d25a6ef6f20950e748ccf951640bf2568ba0022058393b1c5297cb86f6a7bdf5436e068d851be414e24b688ac64cdced757a0dab01210386782effd07c2b9dab0b5bf884db1fd14d87ad4b2f53405c4a93e507d8130ba80247304402204024ee6f27fc5ffaa55a29cba83f949b492a652c30ad0827dc5ee6cf5188cff502202b73a238cef760a94127891e1b3cbf268928273071be41b8484c55dcc1fe5fb6012103b6f53b80ecb0223420534b4ecee702e33ea8cf2ae2cffe2b5558ecbb8011e0ad0247304402206452dc4b5074af0c1d6dba39d29c2081d13365debc65590fc1ee51e7b0da527702202e58417b3f7595276cf4f0442227aa7ae26c89bbcefd79a815bdec8513b76238012103f53c4a085fbea73b3b74cd3d1650f7df45a46c269baabd3513040f37357697e202473044022078d2fb767de8b54939ad5388cb8e93ea69b9d2949c673a13a80b62bc3c9eae3102201db1e24a91cdf36eff1ae370fd207b9b71fd24a9c8e1b584baf695620133c9c50121030b7a522cfad6fcb2c458aec7bcef9ce2890297973f9d6dff370222ec7942609d0247304402202b2fe448b327fe347bd82359888512cf6e11e7b83d5afc4cba3726edf84e61220220279c209d2b238294db94eee44d20056c2668531ba4d5c613e5fcec863090dd47012103f31bdd9a89ed1cf7946a2f19bf32f10730e826349a6f0b5fd1fcb09c92685bb70247304402204397e807cc2023964f046b4063a17830aad8bd457e76ca1927dd5426db5153c7022023972ee9d5be5f3088ff955865cb2d2b20518ac3da9b01dc8466cb333da41d83012102fdee76645a718a57732cb17f494ac7c36821a30ba9929572476b003d8ff894880247304402207a2afbae47ece02b5424ae092f78a04ce25c14c9c954e2f64e03f159b878cabd02204d53750a5ff55001bb9449d989ed562852cf80eefb0afe4f97014b98428e0e7d012103297610dcd1637ea397e51d24092ed84804ba88b5c40f092dd8f4cba006871dfa02473044022000ca533c6d0669d1131f9fbb7b29f5592a8aa4a8c843d168dcf4d5bc0aa0cac2022018f2ca32801d1a53d28a38d72a3e7f0a0992bfd91bd21504108447eca6d5a428012103dd1862c8860cc52bdcbe7e1c0f22b1414005d500d2f91d79682a2f424eacec01024730440220293ea056d19855a999c4b9c4cd50dfc21e4ff5a4b45f252e6562dbc3e2315240022069e6da9ac90f531cb7afd75775113302f3657d6419d709b9d0ca3942b2bfaa95012103adad02c60cbb1ce51a9b1ba0d77f7ca71411278591510a4cd20997541a8398e20247304402205fce003fd49f2853964ef5e4b97a5eea651fcb67040c6b40442513bb8cfd51ad02203b63e60152d71b627183dcfb47cb5d620acf729b0c513a829f965081fc681f48012102e5199fa460ab8d12d472d69ae409360b81dab1fb9f43d5893c9bd7c1f15b64f8024730440220543c37b365280ebdf676a0b767f5889fd5e89567ed39e454d019956fafa9117802205f664f2d7c716113ad0725369ad33380198238969702708b7827cd649d99bc8701210329e1a99ddb06221ace5d058a61ac78e3fdf639318a5da806a26c0c94b878132502463043021f4dfaba6f27ed4222db69b271852b79d35a291fad276d975c697e8e8e8e195a0220341dcbab5742ed2557bb665b48a0e561af294bc3231c20e17c6da6f3f2c7063d012102c4fe180673a3e77ef6c2aec9d86c31388a9bf99697bc873708580e587c23e6f6024730440220313746079934a72e397121698f4ecf9cd47eb147c7a995460075b9d270573f17022021685d3b0a2e6778e6021ecfdf23b616bf2f0f38138cdb3857d42b2aac59971001210290e3294257ab3361851314f69cf34ee959a81967f287129016d33d55bbdebf03024730440220035ab6b2710ddc2c9fcb86314e5ba310d41fa06339277a1872cf7ccc0bbfbb5102201b386c97c22c1da7d590c8f994fccc8ef8ffed086c6d9f85e8142b1aac0dbf43012103649ef7786a3380bdb79be262c56055ab018458f3c7aac77cd40979a1d20212da02473044022043471003ba0b9557a02c51203aea1eb96a9e4fffb0c82407cfc9d55baba4e04102200128a653417906793078909db75b5550fdaefab17d53b73cfa12b7aed7a828c6012103e55afd4f47e776894ed808370a0881637b65182c72b1a6296c868bf0ee3c937a02473044022026bd8d30b064cc346b60294f2316f917fab4b4f58a46c4535b7adacf3e438899022023d678df003c4d4506ef243f3897c6919e116e4570d84b227e5a43660a8232e00121021a502fa9b7bc901341fd467ce95832df8437b77c3480eab3b37170998cd33f8e02473044022062f755053b9385a6840fc833909dce8cbfb441a09637c15425613b4de6c16be202205eb6d1dd26728c48cbae1d4ea35b4d9a157a1c59873e1eaee9141d86ce17ae6e012102eb8130baa48a37165c6c4e53ae1b245b1c67728d6339a3b7255e09ac71d9c8180247304402205202ba9e3e023d5d1fae91f4b49764898e8e7b6c734cf584a483712098028919022063912e25f0876d3c618792e8563caa7b0d39c3ddb93da515dbccbe5893a0911c0121029ca7a5e248ec3a0c56f068baced6dfb6d62dcb55aa398c5d90554e67a95042cf0247304402204578dc9df2484839ad347eaa1a2c76cbf20185490c347f96d7cea2e95813340c0220700dbe99502698e4f06157f16442b351b5544e231f2de9018955b8e8cd88bb8c01210372310faa50a17f4312e8c07e8794ccaa10a5f3a2c29af359cab9d4cb979510b602473044022005053ed34c89aa75661f7f9d46ae949018ce27d08ca9fadeda566503eada227602206376f7f142bf9dfcbb674110310be498f36044e1f00c927c539048c29dd94633012102810e5a16f907de846b0113870db63d37688f7151e862e5349fd665cc4676be990247304402201ca824351abb90a2b807f6ffb018917a14666e06f6430cd784053b23f4d22e38022035892d26b901829490314728dafd8d951997d37c1f3bca35b74dab93ed29804f012103a194f3b82ad9e51fae5693e01b6a051249b43265e61c93f85fd0dca286e055d70247304402201e2a597cc172ba369cc4919aab147003525ddbe59f73d50046ddbb4408eaf97c02202a2ee42030b6a6cad173c1bedcbe3544c0efd1c2f1f58728f7b0ca78e96239af0121035b4d86f2f18e129d3680f1db1feb1a3aebbb53bbdf3fbf3739492a7f63319ae902473044022010e71ee46b6a801c43887915c5db5db21458d7710fa2b5768cddc2f8e2d3522502206c775bf65f2ee1504f08d535753a787bc9b8a9aa791cb56f3526c922c608ff2001210306d88d354d1a33d60b4fd23e3eff1d1cff3bc274b831ad5eff53225c2187ca93024730440220131156754f862882049c737ab62997b8b1342fbc12903e7a4abc9dfbfb2209bc02206f2ce5c66aba0e4fbbd76ff97843f80da5111e40908ff78ebe56d603898ce8380121030a673fea168b60f99a9caff3272d33eba876a3733fc6b36896e541886873ce200247304402201e936debe40b459a711dfba26fb2167756d98ebc8f9533fabaac4703b82380bd022056c0529d16bf2f1b6bb524e273b9398aecf6d97d3610a59aae63fe92055c17a70121026be323966520f4b7e2bb4358ef4d01465cea2a97c5fda19ba9e2d114dcb95e2b02473044022030eaeb569aa118c053a2bd9b45b82fd17bbf10b086608eadc60e733f7a29c8b802202dd04ace4cc76fe01dcdeaf98c9d32e35983a52d754e451b5498d501ac702c76012103c8d58e2547cdb3d9f12e4334a06c69e1604f9e6b9e089b62071df6c4716e082602473044022029a6f80d9142f921e68259aab8a564ef9301526c87accbf1d4eec07af75b792a022020602a9c0bc01f0c4b8922999b3e71f33029a153ffbde0c58282dfab99f731ca012102e0f81b0e37a9bb7544cf3e8b3dc4caf4f65fec7adbd764770bfe9344b2f1999602473044022052ae60d00f7e3df11e3204f3b0eed3b3c7db62565c9d22d9252e91e6f149a3360220157822e0630881a6f34baaccf4e38d265a702caf1a802385ade95e3b323b59590121024268d66595d04dad8c88bfe254e0f802ef0b07096168a96845aa6135ba61972e0247304402203187d3a6a97ce0849b5a78412a07830b2b9e84b64469f6aa67413977fa8e12bf02202d6168cd0fc8785c59398a8ed9778a2a6a9947cbef52ecfcb038bdbf8305e84901210243305b203c7b83402a3ab2d3307faf2139e0ab5d78942e5b27480c698fc852f202473044022016d5e18a245206f5ef06cacea0834f2452291778b76af048d428449a56917907022004bbee8405b2014f688bd989d47546d0fb369d3d65c6a900a1ecc734a22414a8012102beb24f6bd1de13af014c8b57f93a5495591a5c933a423152b53fa9d93a9fc8e4024730440220719ce4f7ace0aaf843f119b74c55e80d7bb0a083ced0c6b7d02bd1d709748d5d02203733b2971ef4913373255edbcda7f5289ed2639fdddddda276946e90fdc7d24f012103c8a56be5b9d3edf9df23cae8c71a16dc47f033e15c69a96237a26e70ee48e9f90247304402201b792a53bee72351ac5ad15b886aa4af98d65c562bdc43ec3729713fd66ff8af0220130ee60804ef3be8c3e4fb9a667ce1b3d9d89c8115c36222b82f4325bd1205f5012103eeb825ef3636b2a64398c315ab917ed9371440e2f33503a1ab6498a1528009b50247304402207a73e24909e2eb792fc362e5706f6bdfc62c536b115117925f807e3fd12b229d02200b2911c5769bd8ac285dc957a46e8f8a11a09d215f9792bc603ec111ee9840010121025d355e9aba35d6413499200a1b4972d036cca5c134807c7b68e29b16a5dda7d69abb0c00"
}