{
  "txid": "0681e2a73630c4d656885c89c2998b30c7c60d15b40b71f5a2ab7e8b1b203685",
  "version": 2,
  "locktime": 834458,
  "vin": [
    {
      "txid": "ef6361f61adf5132341fb6400efd09c351009b43916825ead376766114b2d50f",
      "vout": 0,
      "prevout": {
        "scriptpubkey": "0014fa28b4ac7eb918ca491247218a8c2b8fa6e36e2d",
        "scriptpubkey_asm": "OP_0 OP_PUSHBYTES_20 fa28b4ac7eb918ca491247218a8c2b8fa6e36e2d",
        "scriptpubkey_type": "v0_p2wpkh",
        "scriptpubkey_address": "bc1qlg5tftr7hyvv5jgjgusc4rpt37nwxm3dguqr00",
        "value": 648
      },
      "scriptsig": "",
      "scriptsig_asm": "",
      "witness": [
        "3043021f26f121ac68cd762458a2681b87b44c15ae2332bb7da33b0ff979e89b3159150220312bb9e176c466050cb7058051555b0857a34838fa4985bc7531c487b2e1670501",
        "037329ec91214229b0e241813cba7c1720b05b4a54746911a847efa76fd294be4f"
      ],
      "is_coinbase": false,
      "sequence": 4294967293
    },
    {
      "txid": "ef6361f61adf5132341fb6400efd09c351009b43916825ead376766114b2d50f",
      "vout": 2,
      "prevout": {
        "scriptpubkey": "0014fa28b4ac7eb918ca491247218a8c2b8fa6e36e2d",
        "scriptpubkey_asm": "OP_0 OP_PUSHBYTES_20 fa28b4ac7eb918ca491247218a8c2b8fa6e36e2d",
        "scriptpubkey_type": "v0_p2wpkh",
        "scriptpubkey_address": "bc1qlg5tftr7hyvv5jgjgusc4rpt37nwxm3dguqr00",
        "value": 652369
      },
      "scriptsig": "",
      "scriptsig_asm": "",
      "witness": [
        "30440220410e9c16440018fc16ad706dd2af74148acd013cd367d69520669207131d914602203411024bea0491eb01c992f427351e0586a29956cb91a15d2a8a7306929c82f101",
        "037329ec91214229b0e241813cba7c1720b05b4a54746911a847efa76fd294be4f"
      ],
      "is_coinbase": false,
      "sequence": 4294967293
    }
  ],
  "vout": [
    {
      "scriptpubkey": "0014fa28b4ac7eb918ca491247218a8c2b8fa6e36e2d",
      "scriptpubkey_asm": "OP_0 OP_PUSHBYTES_20 fa28b4ac7eb918ca491247218a8c2b8fa6e36e2d",
      "scriptpubkey_type": "v0_p2wpkh",
      "scriptpubkey_address": "bc1qlg5tftr7hyvv5jgjgusc4rpt37nwxm3dguqr00",
      "value": 647
    },
    {
      "scriptpubkey": "0014d721227fd9b0029c24b05f50dcc3ef9114e976d7",
      "scriptpubkey_asm": "OP_0 OP_PUSHBYTES_20 d721227fd9b0029c24b05f50dcc3ef9114e976d7",
      "scriptpubkey_type": "v0_p2wpkh",
      "scriptpubkey_address": "bc1q6usjyl7ekqpfcf9stagdesl0jy2wjakh09z97m",
      "value": 546
    },
    {
      "scriptpubkey": "0014fa28b4ac7eb918ca491247218a8c2b8fa6e36e2d",
      "scriptpubkey_asm": "OP_0 OP_PUSHBYTES_20 fa28b4ac7eb918ca491247218a8c2b8fa6e36e2d",
      "scriptpubkey_type": "v0_p2wpkh",
      "scriptpubkey_address": "bc1qlg5tftr7hyvv5jgjgusc4rpt37nwxm3dguqr00",
      "value": 648404
    }
  ],
  "size": 400,
  "weight": 955,
  "fee": 3420,
  "status": {
    "confirmed": true,
    "block_height": 834460,
    "block_hash": "00000000000000000000484a79b643b2524bbce82e5d8a442013fa5b8905ed98",
    "block_time": 1710307468
  },
  "hex": "020000000001020fd5b214617676d3ea256891439b0051c309fd0e40b61f343251df1af66163ef0000000000fdffffff0fd5b214617676d3ea256891439b0051c309fd0e40b61f343251df1af66163ef0200000000fdffffff038702000000000000160014fa28b4ac7eb918ca491247218a8c2b8fa6e36e2d2202000000000000160014d721227fd9b0029c24b05f50dcc3ef9114e976d7d4e4090000000000160014fa28b4ac7eb918ca491247218a8c2b8fa6e36e2d02463043021f26f121ac68cd762458a2681b87b44c15ae2332bb7da33b0ff979e89b3159150220312bb9e176c466050cb7058051555b0857a34838fa4985bc7531c487b2e167050121037329ec91214229b0e241813cba7c1720b05b4a54746911a847efa76fd294be4f024730440220410e9c16440018fc16ad706dd2af74148acd013cd367d69520669207131d914602203411024bea0491eb01c992f427351e0586a29956cb91a15d2a8a7306929c82f10121037329ec91214229b0e241813cba7c1720b05b4a54746911a847efa76fd294be4f9abb0c00"
}