{
  "txid": "0683ac705a28e52cf290a07d9572bcb75be656e8a83f45666d2dea9b7241ab76",
  "version": 2,
  "locktime": 0,
  "vin": [
    {
      "txid": "d18ed70056c00a6cd5de0ccb10b1ae8f7dd5250f9d0f22c727aba826d03302c8",
      "vout": 18,
      "prevout": {
        "scriptpubkey": "5120109a0ea4ee8123df96eb2ace60df5ad0d89d127f95a2c38839240c223ae98ca9",
        "scriptpubkey_asm": "OP_PUSHNUM_1 OP_PUSHBYTES_32 109a0ea4ee8123df96eb2ace60df5ad0d89d127f95a2c38839240c223ae98ca9",
        "scriptpubkey_type": "v1_p2tr",
        "scriptpubkey_address": "bc1pzzdqaf8wsy3al9ht9t8xph666rvf6ynljk3v8zpeysxzywhf3j5sqrv3gv",
        "value": 2996
      },
      "scriptsig": "",
      "scriptsig_asm": "",
      "witness": [
        "989e9864fa23a2921bf08ba0141b1ccc450ba7978fe441e0a9b163efc3f84a99206c51fd43e807e39a328de024189188901d267927e5c0580aa3fe06c9541eb8",
        "2079f6470b691d5458804f8093466b0ca9561b5a1203b3fa340a31da8df4067ec5ac0063036f726401011e6170706c69636174696f6e2f6a736f6e3b636861727365743d7574662d38004cbe7b2270223a22706f772d3230222c226f70223a226d696e74222c227469636b223a2250455045222c22616d74223a2231303030222c22736f6c7574696f6e223a22504550453a6263317168337833756334707a796478716436757776376e3732676874787a33753937306564663078613a303030303030303030303030303030303030303139393431613561653132383937363539383134343239323533333030353762306461393666336465613163353a33353335323534363638227d68",
        "c0e5c6b8d70510d88b341fcdd9a2aa08913e89d9e736480c530fde3fe13419cdab"
      ],
      "is_coinbase": false,
      "sequence": 4294967295
    }
  ],
  "vout": [
    {
      "scriptpubkey": "0014bc4d1e62a1111a60375c733d3f291759851e17cf",
      "scriptpubkey_asm": "OP_0 OP_PUSHBYTES_20 bc4d1e62a1111a60375c733d3f291759851e17cf",
      "scriptpubkey_type": "v0_p2wpkh",
      "scriptpubkey_address": "bc1qh3x3uc4pzydxqd6uwv7n72ghtxz3u970edf0xa",
      "value": 546
    }
  ],
  "size": 454,
  "weight": 700,
  "fee": 2450,
  "status": {
    "confirmed": true,
    "block_height": 834460,
    "block_hash": "00000000000000000000484a79b643b2524bbce82e5d8a442013fa5b8905ed98",
    "block_time": 1710307468
  },
  "hex": "02000000000101c80233d026a8ab27c7220f9d0f25d57d8faeb110cb0cded56c0ac05600d78ed11200000000ffffffff012202000000000000160014bc4d1e62a1111a60375c733d3f291759851e17cf0340989e9864fa23a2921bf08ba0141b1ccc450ba7978fe441e0a9b163efc3f84a99206c51fd43e807e39a328de024189188901d267927e5c0580aa3fe06c9541eb8fd0b012079f6470b691d5458804f8093466b0ca9561b5a1203b3fa340a31da8df4067ec5ac0063036f726401011e6170706c69636174696f6e2f6a736f6e3b636861727365743d7574662d38004cbe7b2270223a22706f772d3230222c226f70223a226d696e74222c227469636b223a2250455045222c22616d74223a2231303030222c22736f6c7574696f6e223a22504550453a6263317168337833756334707a796478716436757776376e3732676874787a33753937306564663078613a303030303030303030303030303030303030303139393431613561653132383937363539383134343239323533333030353762306461393666336465613163353a33353335323534363638227d6821c0e5c6b8d70510d88b341fcdd9a2aa08913e89d9e736480c530fde3fe13419cdab00000000"
}