{
  "txid": "0689a8537bdd0ca6df7090613233c77f75312a98d93290dc219c943351889458",
  "version": 2,
  "locktime": 0,
  "vin": [
    {
      "txid": "a00abfb5c8f16735ee2410a7f3d7562f97c6f38fe424cfff3611071fb23977c6",
      "vout": 1,
      "prevout": {
        "scriptpubkey": "a914fcdd34b4e8b135e1a2481968add49b69208ccbdf87",
        "scriptpubkey_asm": "OP_HASH160 OP_PUSHBYTES_20 fcdd34b4e8b135e1a2481968add49b69208ccbdf OP_EQUAL",
        "scriptpubkey_type": "p2sh",
        "scriptpubkey_address": "3Qk3CYEku89EHsLUXwXnR9xLELkR1VKewP",
        "value": 97479582
      },
      "scriptsig": "160014365979638bb5d2f6ec8712aec4ce06cb498985a3",
      "scriptsig_asm": "OP_PUSHBYTES_22 0014365979638bb5d2f6ec8712aec4ce06cb498985a3",
      "witness": [
        "3045022100ca4fc437944a9694658d4ff96b5dbaef7f2d055f11cf283585531be902ace441022019a8e1a387ecc220c2da1409b4cd70ea8a5a69e69c0e46b4f1efc755c1a5120a01",
        "031ece5c3330ad26c64fc23cc44f8aa144cb24734a3491f6b0ded5aac61c8c9338"
      ],
      "is_coinbase": false,
      "sequence": 4294967295,
      "inner_redeemscript_asm": "OP_0 OP_PUSHBYTES_20 365979638bb5d2f6ec8712aec4ce06cb498985a3"
    }
  ],
  "vout": [
    {
      "scriptpubkey": "a914603d585ae65aeaabe18f618b5877372f5e01fa5a87",
      "scriptpubkey_asm": "OP_HASH160 OP_PUSHBYTES_20 603d585ae65aeaabe18f618b5877372f5e01fa5a OP_EQUAL",
      "scriptpubkey_type": "p2sh",
      "scriptpubkey_address": "3ATtHJ2LeUMeZfzToQiPUx7dJY8m6TN8WJ",
      "value": 10000000
    },
    {
      "scriptpubkey": "a914fcdd34b4e8b135e1a2481968add49b69208ccbdf87",
      "scriptpubkey_asm": "OP_HASH160 OP_PUSHBYTES_20 fcdd34b4e8b135e1a2481968add49b69208ccbdf OP_EQUAL",
      "scriptpubkey_type": "p2sh",
      "scriptpubkey_address": "3Qk3CYEku89EHsLUXwXnR9xLELkR1VKewP",
      "value": 87476926
    }
  ],
  "size": 248,
  "weight": 662,
  "fee": 2656,
  "status": {
    "confirmed": true,
    "block_height": 834638,
    "block_hash": "000000000000000000025f742c626208ac87e0b7d15054abb4a19ca2d735a54e",
    "block_time": 1710405325
  },
  "hex": "02000000000101c67739b21f071136ffcf24e48ff3c6972f56d7f3a71024ee3567f1c8b5bf0aa00100000017160014365979638bb5d2f6ec8712aec4ce06cb498985a3ffffffff02809698000000000017a914603d585ae65aeaabe18f618b5877372f5e01fa5a87beca36050000000017a914fcdd34b4e8b135e1a2481968add49b69208ccbdf8702483045022100ca4fc437944a9694658d4ff96b5dbaef7f2d055f11cf283585531be902ace441022019a8e1a387ecc220c2da1409b4cd70ea8a5a69e69c0e46b4f1efc755c1a5120a0121031ece5c3330ad26c64fc23cc44f8aa144cb24734a3491f6b0ded5aac61c8c933800000000"
}