{
  "txid": "068b1ee1aa9c159b5d68cb8887097ab8713d9a23d04b6b3c495c9346029cc47a",
  "version": 2,
  "locktime": 0,
  "vin": [
    {
      "txid": "acc3ba00869acb582a3f2904ce3a11dd3779350ce234063fc7d0959246213364",
      "vout": 171,
      "prevout": {
        "scriptpubkey": "51208f1ae8ee85fed0f1e799d34d4ab3af07704d7831ca848421ff21555147eba89a",
        "scriptpubkey_asm": "OP_PUSHNUM_1 OP_PUSHBYTES_32 8f1ae8ee85fed0f1e799d34d4ab3af07704d7831ca848421ff21555147eba89a",
        "scriptpubkey_type": "v1_p2tr",
        "scriptpubkey_address": "bc1p3udw3m59lmg0reue6dx54va0qacy67p3e2zggg0ly924z3lt4zdqxaptvz",
        "value": 1806
      },
      "scriptsig": "",
      "scriptsig_asm": "",
      "witness": [
        "53cfdfb1b18873a80cd52cd323a4a1426c9800d4798a3f0e51c567790aaad8b8adfd862a5aea5daa63076c6d4e658f75932e3190d67174489795ef1bd653107f",
        "2063d81cdc577b40203232f3cc4e55d3f418996c69b44ea5c180252c91487f5528ac0063036f726401010a746578742f706c61696e00357b2270223a226272632d3230222c226f70223a226d696e74222c227469636b223a22646f6765222c22616d74223a2234323030227d68",
        "c063d81cdc577b40203232f3cc4e55d3f418996c69b44ea5c180252c91487f5528"
      ],
      "is_coinbase": false,
      "sequence": 4261412863
    }
  ],
  "vout": [
    {
      "scriptpubkey": "00147a665de7a370f4c9b372ab1fae587500a5bcbdb4",
      "scriptpubkey_asm": "OP_0 OP_PUSHBYTES_20 7a665de7a370f4c9b372ab1fae587500a5bcbdb4",
      "scriptpubkey_type": "v0_p2wpkh",
      "scriptpubkey_address": "bc1q0fn9mearwr6vnvmj4v06ukr4qzjme0d565dzcx",
      "value": 294
    }
  ],
  "size": 294,
  "weight": 540,
  "fee": 1512,
  "status": {
    "confirmed": true,
    "block_height": 834460,
    "block_hash": "00000000000000000000484a79b643b2524bbce82e5d8a442013fa5b8905ed98",
    "block_time": 1710307468
  },
  "hex": "02000000000101643321469295d0c73f0634e20c357937dd113ace04293f2a58cb9a8600bac3acab00000000fffffffd0126010000000000001600147a665de7a370f4c9b372ab1fae587500a5bcbdb4034053cfdfb1b18873a80cd52cd323a4a1426c9800d4798a3f0e51c567790aaad8b8adfd862a5aea5daa63076c6d4e658f75932e3190d67174489795ef1bd653107f6d2063d81cdc577b40203232f3cc4e55d3f418996c69b44ea5c180252c91487f5528ac0063036f726401010a746578742f706c61696e00357b2270223a226272632d3230222c226f70223a226d696e74222c227469636b223a22646f6765222c22616d74223a2234323030227d6821c063d81cdc577b40203232f3cc4e55d3f418996c69b44ea5c180252c91487f552800000000"
}