{
  "txid": "0690c27ba648761ef907db118873161d4a86c1355c875a8abd699bbd0b75b155",
  "version": 2,
  "locktime": 0,
  "vin": [
    {
      "txid": "1567b67dbdfac2cd0bcc3f8d48de2dbdfb14fc1c68a5bbc36da8b03f6274aecb",
      "vout": 1,
      "prevout": {
        "scriptpubkey": "0014d631eab830150b319ace31c688ebed4f46ce023b",
        "scriptpubkey_asm": "OP_0 OP_PUSHBYTES_20 d631eab830150b319ace31c688ebed4f46ce023b",
        "scriptpubkey_type": "v0_p2wpkh",
        "scriptpubkey_address": "bc1q6cc74wpsz59nrxkwx8rg36ldfarvuq3mczrvaq",
        "value": 666191
      },
      "scriptsig": "",
      "scriptsig_asm": "",
      "witness": [
        "304402200cab8f2911fd6f226ee034fe42b48588402622221e4f7de10165f1b36dc6cb2602203c82ae55d3c783013348f5e8f73d80d6e91ce47c17eb8b6f6e8ce76dea6e8f0701",
        "02578741fa395f35a704717d10b8708d1586bb33d33fb2d68eedee701cc9396218"
      ],
      "is_coinbase": false,
      "sequence": 4294967295
    }
  ],
  "vout": [
    {
      "scriptpubkey": "001453c9d889ce99389e40592faf77741acf0c4d39b8",
      "scriptpubkey_asm": "OP_0 OP_PUSHBYTES_20 53c9d889ce99389e40592faf77741acf0c4d39b8",
      "scriptpubkey_type": "v0_p2wpkh",
      "scriptpubkey_address": "bc1q20ya3zwwnyufusze97hhwaq6euxy6wdc8q6y0d",
      "value": 568399
    },
    {
      "scriptpubkey": "0014d631eab830150b319ace31c688ebed4f46ce023b",
      "scriptpubkey_asm": "OP_0 OP_PUSHBYTES_20 d631eab830150b319ace31c688ebed4f46ce023b",
      "scriptpubkey_type": "v0_p2wpkh",
      "scriptpubkey_address": "bc1q6cc74wpsz59nrxkwx8rg36ldfarvuq3mczrvaq",
      "value": 91951
    }
  ],
  "size": 222,
  "weight": 561,
  "fee": 5841,
  "status": {
    "confirmed": true,
    "block_height": 834638,
    "block_hash": "000000000000000000025f742c626208ac87e0b7d15054abb4a19ca2d735a54e",
    "block_time": 1710405325
  },
  "hex": "02000000000101cbae74623fb0a86dc3bba5681cfc14fbbd2dde488d3fcc0bcdc2fabd7db667150100000000ffffffff024fac08000000000016001453c9d889ce99389e40592faf77741acf0c4d39b82f67010000000000160014d631eab830150b319ace31c688ebed4f46ce023b0247304402200cab8f2911fd6f226ee034fe42b48588402622221e4f7de10165f1b36dc6cb2602203c82ae55d3c783013348f5e8f73d80d6e91ce47c17eb8b6f6e8ce76dea6e8f07012102578741fa395f35a704717d10b8708d1586bb33d33fb2d68eedee701cc939621800000000"
}