{
  "txid": "0697aefb8dbfeac95fd51c3e0ed814d8cf6779c144b853bf36dc3839b4fffd1a",
  "version": 1,
  "locktime": 0,
  "vin": [
    {
      "txid": "2d61ce9dda7e89a87eda0c99213793a3a6e8f392bfa836a3085326d5918e8b0d",
      "vout": 2,
      "prevout": {
        "scriptpubkey": "0014ac06f5b4541c9ac39333303a5ae34f883488bb83",
        "scriptpubkey_asm": "OP_0 OP_PUSHBYTES_20 ac06f5b4541c9ac39333303a5ae34f883488bb83",
        "scriptpubkey_type": "v0_p2wpkh",
        "scriptpubkey_address": "bc1q4sr0tdz5rjdv8yenxqa94c603q6g3wurz4zhm2",
        "value": 9450181
      },
      "scriptsig": "",
      "scriptsig_asm": "",
      "witness": [
        "3045022100b86e3a01e861c7913506be384acad72c9bf815fe6661a44d9d44a515b65b98fa0220448fbadcde07e929af62cfcbe2053385d7462b101920989c7af451d3b9281a4801",
        "023a07217ccdc24801c9e373cd8dc719c4baf2046c7f3eb9ebb06b611c20e04f9e"
      ],
      "is_coinbase": false,
      "sequence": 4294967293
    },
    {
      "txid": "2133c88f9949c20418715967e77bca267b264872e71aa68b88765544d3810ed4",
      "vout": 9,
      "prevout": {
        "scriptpubkey": "00140a1d6190f050e9552bc08d624dbc31fecd79c3d7",
        "scriptpubkey_asm": "OP_0 OP_PUSHBYTES_20 0a1d6190f050e9552bc08d624dbc31fecd79c3d7",
        "scriptpubkey_type": "v0_p2wpkh",
        "scriptpubkey_address": "bc1qpgwkry8s2r54227q343ym0p3lmxhns7hqshfjz",
        "value": 2557881
      },
      "scriptsig": "",
      "scriptsig_asm": "",
      "witness": [
        "304402203db1e7d880c6200251199e82a14a47aa9c54fda7dbfa6d163f9aa79b8625ccb302204bc6a436209d6a0c09a36299be60c5c90fe4377c584e1c38e158e5c6e3b29b9001",
        "03888b86710ddb0f7428810d883ce2c58c15b6982fb63d5cf939413a0678e87799"
      ],
      "is_coinbase": false,
      "sequence": 4294967293
    },
    {
      "txid": "a0537ce2db7d0dbbfa8f1edeae340817a070534417b740e610a79e498e8b1bd0",
      "vout": 5,
      "prevout": {
        "scriptpubkey": "00147598ab5ddd0844381b09bc2142f0c44b706cff7e",
        "scriptpubkey_asm": "OP_0 OP_PUSHBYTES_20 7598ab5ddd0844381b09bc2142f0c44b706cff7e",
        "scriptpubkey_type": "v0_p2wpkh",
        "scriptpubkey_address": "bc1qwkv2khwappzrsxcfhss59uxyfdcxelm7dxxaaj",
        "value": 1180529
      },
      "scriptsig": "",
      "scriptsig_asm": "",
      "witness": [
        "30450221008764cd662614a8c3e43b86ba2acc4810b318bbbbe1917e0754efbc6457d2914b02205a03ff661ed4e4b47dc83adbc8e04a64a45c0efe4193ac33ef5ca72fc1acb60f01",
        "03f629407f08078eab4d28f8880d51aa3a951cddce09d3676d47b34dcc71bf8afa"
      ],
      "is_coinbase": false,
      "sequence": 4294967293
    }
  ],
  "vout": [
    {
      "scriptpubkey": "0014a90373b7dd0afa2ba95e828b817e631cff207e72",
      "scriptpubkey_asm": "OP_0 OP_PUSHBYTES_20 a90373b7dd0afa2ba95e828b817e631cff207e72",
      "scriptpubkey_type": "v0_p2wpkh",
      "scriptpubkey_address": "bc1q4yph8d7aptazh227s29czlnrrnljqlnjnpa58y",
      "value": 10839
    },
    {
      "scriptpubkey": "a91425135f2dd242fdb9ecd6e04171258c40b04cc10687",
      "scriptpubkey_asm": "OP_HASH160 OP_PUSHBYTES_20 25135f2dd242fdb9ecd6e04171258c40b04cc106 OP_EQUAL",
      "scriptpubkey_type": "p2sh",
      "scriptpubkey_address": "35548ckgFVZQXyrwnRtv6sK8vf2pDqpeWL",
      "value": 13170420
    }
  ],
  "size": 521,
  "weight": 1109,
  "fee": 7332,
  "status": {
    "confirmed": true,
    "block_height": 834464,
    "block_hash": "0000000000000000000177a0869a911a2b65c9bdcd5a8bcb02b68f305bee848e",
    "block_time": 1710308296
  },
  "hex": "010000000001030d8b8e91d5265308a336a8bf92f3e8a6a3933721990cda7ea8897eda9dce612d0200000000fdffffffd40e81d3445576888ba61ae77248267b26ca7be76759711804c249998fc833210900000000fdffffffd01b8b8e499ea710e640b717445370a0170834aede1e8ffabb0d7ddbe27c53a00500000000fdffffff02572a000000000000160014a90373b7dd0afa2ba95e828b817e631cff207e72f4f6c8000000000017a91425135f2dd242fdb9ecd6e04171258c40b04cc1068702483045022100b86e3a01e861c7913506be384acad72c9bf815fe6661a44d9d44a515b65b98fa0220448fbadcde07e929af62cfcbe2053385d7462b101920989c7af451d3b9281a480121023a07217ccdc24801c9e373cd8dc719c4baf2046c7f3eb9ebb06b611c20e04f9e0247304402203db1e7d880c6200251199e82a14a47aa9c54fda7dbfa6d163f9aa79b8625ccb302204bc6a436209d6a0c09a36299be60c5c90fe4377c584e1c38e158e5c6e3b29b90012103888b86710ddb0f7428810d883ce2c58c15b6982fb63d5cf939413a0678e87799024830450221008764cd662614a8c3e43b86ba2acc4810b318bbbbe1917e0754efbc6457d2914b02205a03ff661ed4e4b47dc83adbc8e04a64a45c0efe4193ac33ef5ca72fc1acb60f012103f629407f08078eab4d28f8880d51aa3a951cddce09d3676d47b34dcc71bf8afa00000000"
}