{
  "txid": "06a4a70caddaf2ee025abb13d41dadafe419da511f4c86f0d0f2b63fc439466d",
  "version": 2,
  "locktime": 0,
  "vin": [
    {
      "txid": "246d654c08ac53d370d501753f3ac2c90861e2c8cea715ed4b7554841cced399",
      "vout": 72,
      "prevout": {
        "scriptpubkey": "51201303131861e183f6da1448c78df4788e38606d7305e86c0819a2cd7fc3df9897",
        "scriptpubkey_asm": "OP_PUSHNUM_1 OP_PUSHBYTES_32 1303131861e183f6da1448c78df4788e38606d7305e86c0819a2cd7fc3df9897",
        "scriptpubkey_type": "v1_p2tr",
        "scriptpubkey_address": "bc1pzvp3xxrpuxpldks5frrcmarc3cuxqmtnqh5xczqe5txhls7lnztsuu48w2",
        "value": 3055
      },
      "scriptsig": "",
      "scriptsig_asm": "",
      "witness": [
        "0043e7f3d651e5dd01a6ce81b1f32574b06013482c858fc4ea79793cec7749ff60b2c9f9b450811a8ca1570e7f4c35abd721e1aa0966372ea89fe7e7e8958472",
        "20eb6728e08a42dd0156a2a671fb8e6c13193e7743e608815bad5c1946cba4113fac0063036f726401011e6170706c69636174696f6e2f6a736f6e3b636861727365743d7574662d38004cd37b2270223a22706f772d3230222c226f70223a226d696e74222c227469636b223a2250455045222c22616d74223a2231303030222c22736f6c7574696f6e223a22504550453a62633170756a666d33753333656e70786b38383339796c6b3239323239396b6e6467686c717468396e39647a6c7663647635617076366a717732776e71663a303030303030303030303030303030303030303139393431613561653132383937363539383134343239323533333030353762306461393666336465613163353a3631373639333433393330227d68",
        "c0f4929cb66946e40c5d3e5e2b126f88b9a6070d7490abd3aa8e42bf5bbcfe7b9f"
      ],
      "is_coinbase": false,
      "sequence": 4294967295
    }
  ],
  "vout": [
    {
      "scriptpubkey": "5120e493b8f231ccc26b1cf1293f65154a296d36a2ff02ee5995a2fb30d653a166a4",
      "scriptpubkey_asm": "OP_PUSHNUM_1 OP_PUSHBYTES_32 e493b8f231ccc26b1cf1293f65154a296d36a2ff02ee5995a2fb30d653a166a4",
      "scriptpubkey_type": "v1_p2tr",
      "scriptpubkey_address": "bc1pujfm3u33enpxk8839ylk292299kndghlqth9n9dzlvcdv5apv6jqw2wnqf",
      "value": 546
    }
  ],
  "size": 487,
  "weight": 769,
  "fee": 2509,
  "status": {
    "confirmed": true,
    "block_height": 834460,
    "block_hash": "00000000000000000000484a79b643b2524bbce82e5d8a442013fa5b8905ed98",
    "block_time": 1710307468
  },
  "hex": "0200000000010199d3ce1c8454754bed15a7cec8e26108c9c23a3f7501d570d353ac084c656d244800000000ffffffff012202000000000000225120e493b8f231ccc26b1cf1293f65154a296d36a2ff02ee5995a2fb30d653a166a403400043e7f3d651e5dd01a6ce81b1f32574b06013482c858fc4ea79793cec7749ff60b2c9f9b450811a8ca1570e7f4c35abd721e1aa0966372ea89fe7e7e8958472fd200120eb6728e08a42dd0156a2a671fb8e6c13193e7743e608815bad5c1946cba4113fac0063036f726401011e6170706c69636174696f6e2f6a736f6e3b636861727365743d7574662d38004cd37b2270223a22706f772d3230222c226f70223a226d696e74222c227469636b223a2250455045222c22616d74223a2231303030222c22736f6c7574696f6e223a22504550453a62633170756a666d33753333656e70786b38383339796c6b3239323239396b6e6467686c717468396e39647a6c7663647635617076366a717732776e71663a303030303030303030303030303030303030303139393431613561653132383937363539383134343239323533333030353762306461393666336465613163353a3631373639333433393330227d6821c0f4929cb66946e40c5d3e5e2b126f88b9a6070d7490abd3aa8e42bf5bbcfe7b9f00000000"
}