{
  "txid": "06abb57ed26e5ba5ea10c548e5acf2f4608d8b21b2a296d37eff0320c51b54c3",
  "version": 1,
  "locktime": 0,
  "vin": [
    {
      "txid": "888888888f57308c5aef819a06beab4fa0fa9506caf2f9f3a0f8c1231585da98",
      "vout": 0,
      "prevout": {
        "scriptpubkey": "5120ad2e6835bc4e73febe44e478c57d2b4e361fe2900671eb2921ff61573e370a7b",
        "scriptpubkey_asm": "OP_PUSHNUM_1 OP_PUSHBYTES_32 ad2e6835bc4e73febe44e478c57d2b4e361fe2900671eb2921ff61573e370a7b",
        "scriptpubkey_type": "v1_p2tr",
        "scriptpubkey_address": "bc1p45hxsddufeela0jyu3uv2lftfcmplc5sqec7k2fplas4w03hpfasrwhg2y",
        "value": 11627
      },
      "scriptsig": "",
      "scriptsig_asm": "",
      "witness": [
        "d2f4a1a09a392b50a70e508cca1ae4b564fede63bcb768145abe786e2c05751058ee56df8b356614c0c029670702ee4cc9e2ca7a3da484c97f4553814fb63144",
        "2013a939ea1940d8c5201bfe1926963ae16aa1fbaefc90a6b00388399ce0b4657cac00630461746f6d03646d7446a16461726773a46474696d651a65ef0e54656e6f6e63651a0001000068626974776f726b636b3838383838383838382e376b6d696e745f7469636b657268696e66696e69747968",
        "c113a939ea1940d8c5201bfe1926963ae16aa1fbaefc90a6b00388399ce0b4657c"
      ],
      "is_coinbase": false,
      "sequence": 4294967295
    }
  ],
  "vout": [
    {
      "scriptpubkey": "51205a263ceb749a9db19b79bdaab5c1862ca038177143914ee1a994d2591cdf79a7",
      "scriptpubkey_asm": "OP_PUSHNUM_1 OP_PUSHBYTES_32 5a263ceb749a9db19b79bdaab5c1862ca038177143914ee1a994d2591cdf79a7",
      "scriptpubkey_type": "v1_p2tr",
      "scriptpubkey_address": "bc1ptgnre6m5n2wmrxmehk4ttsvx9jsrs9m3gwg5acdfjnf9j8xl0xnsmagkgl",
      "value": 9999
    }
  ],
  "size": 314,
  "weight": 596,
  "fee": 1628,
  "status": {
    "confirmed": true,
    "block_height": 834464,
    "block_hash": "0000000000000000000177a0869a911a2b65c9bdcd5a8bcb02b68f305bee848e",
    "block_time": 1710308296
  },
  "hex": "0100000000010198da851523c1f8a0f3f9f2ca0695faa04fabbe069a81ef5a8c30578f888888880000000000ffffffff010f270000000000002251205a263ceb749a9db19b79bdaab5c1862ca038177143914ee1a994d2591cdf79a70340d2f4a1a09a392b50a70e508cca1ae4b564fede63bcb768145abe786e2c05751058ee56df8b356614c0c029670702ee4cc9e2ca7a3da484c97f4553814fb63144752013a939ea1940d8c5201bfe1926963ae16aa1fbaefc90a6b00388399ce0b4657cac00630461746f6d03646d7446a16461726773a46474696d651a65ef0e54656e6f6e63651a0001000068626974776f726b636b3838383838383838382e376b6d696e745f7469636b657268696e66696e6974796821c113a939ea1940d8c5201bfe1926963ae16aa1fbaefc90a6b00388399ce0b4657c00000000"
}