{
  "txid": "06bf8802f52ca14bd7edc64e14a30ad09f445b4b709aba8d5e8605a480896d19",
  "version": 2,
  "locktime": 0,
  "vin": [
    {
      "txid": "acc3ba00869acb582a3f2904ce3a11dd3779350ce234063fc7d0959246213364",
      "vout": 280,
      "prevout": {
        "scriptpubkey": "51204cb6a90583ad6b28483ca3287f227954f0b7541fcfc6212892d9467855e5df39",
        "scriptpubkey_asm": "OP_PUSHNUM_1 OP_PUSHBYTES_32 4cb6a90583ad6b28483ca3287f227954f0b7541fcfc6212892d9467855e5df39",
        "scriptpubkey_type": "v1_p2tr",
        "scriptpubkey_address": "bc1pfjm2jpvr444jsjpu5v587gne2nctw4qlelrzz2yjm9r8s409muusqygdt3",
        "value": 1806
      },
      "scriptsig": "",
      "scriptsig_asm": "",
      "witness": [
        "d848a8ddba6b9260b30e097d703d7b90373cdc8d029d3fc88908385b7daa59be7ca10854d07ec88fb6a4678f6298d6e1b6dd7f93d6bbaf267126386170b7f18f",
        "2038a5e65aa7b71f0eda5126973fd7400943fa8dec29fcae7fc341751fa2fa7cb2ac0063036f726401010a746578742f706c61696e00357b2270223a226272632d3230222c226f70223a226d696e74222c227469636b223a22646f6765222c22616d74223a2234323030227d68",
        "c138a5e65aa7b71f0eda5126973fd7400943fa8dec29fcae7fc341751fa2fa7cb2"
      ],
      "is_coinbase": false,
      "sequence": 4261412863
    }
  ],
  "vout": [
    {
      "scriptpubkey": "00147a665de7a370f4c9b372ab1fae587500a5bcbdb4",
      "scriptpubkey_asm": "OP_0 OP_PUSHBYTES_20 7a665de7a370f4c9b372ab1fae587500a5bcbdb4",
      "scriptpubkey_type": "v0_p2wpkh",
      "scriptpubkey_address": "bc1q0fn9mearwr6vnvmj4v06ukr4qzjme0d565dzcx",
      "value": 294
    }
  ],
  "size": 294,
  "weight": 540,
  "fee": 1512,
  "status": {
    "confirmed": true,
    "block_height": 834460,
    "block_hash": "00000000000000000000484a79b643b2524bbce82e5d8a442013fa5b8905ed98",
    "block_time": 1710307468
  },
  "hex": "02000000000101643321469295d0c73f0634e20c357937dd113ace04293f2a58cb9a8600bac3ac1801000000fffffffd0126010000000000001600147a665de7a370f4c9b372ab1fae587500a5bcbdb40340d848a8ddba6b9260b30e097d703d7b90373cdc8d029d3fc88908385b7daa59be7ca10854d07ec88fb6a4678f6298d6e1b6dd7f93d6bbaf267126386170b7f18f6d2038a5e65aa7b71f0eda5126973fd7400943fa8dec29fcae7fc341751fa2fa7cb2ac0063036f726401010a746578742f706c61696e00357b2270223a226272632d3230222c226f70223a226d696e74222c227469636b223a22646f6765222c22616d74223a2234323030227d6821c138a5e65aa7b71f0eda5126973fd7400943fa8dec29fcae7fc341751fa2fa7cb200000000"
}