{
  "txid": "06df0c9ccb11887a2407f093d81f9d37ebb1dc147d982c99173e318c4c5b9733",
  "version": 2,
  "locktime": 0,
  "vin": [
    {
      "txid": "0ad82719c5568c4acd81b83e609db57306639901211bd5a5b68a6fc3de4e1473",
      "vout": 10,
      "prevout": {
        "scriptpubkey": "5120843a8875b689500566ce0be8284dc1b55e27d1f6281108aeb12f8c2de9d59e16",
        "scriptpubkey_asm": "OP_PUSHNUM_1 OP_PUSHBYTES_32 843a8875b689500566ce0be8284dc1b55e27d1f6281108aeb12f8c2de9d59e16",
        "scriptpubkey_type": "v1_p2tr",
        "scriptpubkey_address": "bc1pssagsadk39gq2ekwp05zsnwpk40z050k9qgs3t4397xzm6w4nctqgfny3l",
        "value": 2834
      },
      "scriptsig": "",
      "scriptsig_asm": "",
      "witness": [
        "9b7f2d833b4ce3f5053b60ca9be848ed5283a5b5206f93fe829fc7fc46fa9aa32c20f2e00324e64b5c9189c42d9fac39beb7a453a763e82a985090e83d8bec94",
        "2075b56e662b958d203cd841fb2a941aa587369edc9b4acfb9a5f0bbf0d47d9e76ac0063036f726401011e6170706c69636174696f6e2f6a736f6e3b636861727365743d7574662d38004cbf7b2270223a22706f772d3230222c226f70223a226d696e74222c227469636b223a2250455045222c22616d74223a2231303030222c22736f6c7574696f6e223a22504550453a6263317173637064736c337671777466366a733538786832307637717775716839336e777737783763793a303030303030303030303030303030303030303139393431613561653132383937363539383134343239323533333030353762306461393666336465613163353a3633333735373139373533227d68",
        "c0962df30d9be27fcd73fd9a4053b3728334e273f9929aba028483b2e810075667"
      ],
      "is_coinbase": false,
      "sequence": 4294967295
    }
  ],
  "vout": [
    {
      "scriptpubkey": "00148602d87e2c03969d4a1439aea7b3c0770172c66e",
      "scriptpubkey_asm": "OP_0 OP_PUSHBYTES_20 8602d87e2c03969d4a1439aea7b3c0770172c66e",
      "scriptpubkey_type": "v0_p2wpkh",
      "scriptpubkey_address": "bc1qscpdsl3vqwtf6js58xh20v7qwuqh93nww7x7cy",
      "value": 546
    }
  ],
  "size": 455,
  "weight": 701,
  "fee": 2288,
  "status": {
    "confirmed": true,
    "block_height": 834460,
    "block_hash": "00000000000000000000484a79b643b2524bbce82e5d8a442013fa5b8905ed98",
    "block_time": 1710307468
  },
  "hex": "0200000000010173144edec36f8ab6a5d51b210199630673b59d603eb881cd4a8c56c51927d80a0a00000000ffffffff0122020000000000001600148602d87e2c03969d4a1439aea7b3c0770172c66e03409b7f2d833b4ce3f5053b60ca9be848ed5283a5b5206f93fe829fc7fc46fa9aa32c20f2e00324e64b5c9189c42d9fac39beb7a453a763e82a985090e83d8bec94fd0c012075b56e662b958d203cd841fb2a941aa587369edc9b4acfb9a5f0bbf0d47d9e76ac0063036f726401011e6170706c69636174696f6e2f6a736f6e3b636861727365743d7574662d38004cbf7b2270223a22706f772d3230222c226f70223a226d696e74222c227469636b223a2250455045222c22616d74223a2231303030222c22736f6c7574696f6e223a22504550453a6263317173637064736c337671777466366a733538786832307637717775716839336e777737783763793a303030303030303030303030303030303030303139393431613561653132383937363539383134343239323533333030353762306461393666336465613163353a3633333735373139373533227d6821c0962df30d9be27fcd73fd9a4053b3728334e273f9929aba028483b2e81007566700000000"
}