{
  "txid": "06f66590d610151f94870cfb2be27b38dd798bad8d0c71c3ea558d09ea8911a8",
  "version": 1,
  "locktime": 0,
  "vin": [
    {
      "txid": "98a07e472f1647cb68a2d912e018027cc826b505b9d0b6dab99f662fc927a62e",
      "vout": 1,
      "prevout": {
        "scriptpubkey": "001471c77152013b61c9a1f032c63d94490073ff68f5",
        "scriptpubkey_asm": "OP_0 OP_PUSHBYTES_20 71c77152013b61c9a1f032c63d94490073ff68f5",
        "scriptpubkey_type": "v0_p2wpkh",
        "scriptpubkey_address": "bc1qw8rhz5sp8dsung0sxtrrm9zfqpel7684v2pe6t",
        "value": 9926630
      },
      "scriptsig": "",
      "scriptsig_asm": "",
      "witness": [
        "304402206bc5723efd82ff07be6de125100f57f9a3de909812ffee0c497c22c677a49d4802206ab62d3372acc0f2dc33c2acf9462c05b8bc02617de0285b511f8dfef12448e001",
        "03b4e82970d8b2984599a7e7a031f3479ce278df29bfd4a6cca485520c3e3a62da"
      ],
      "is_coinbase": false,
      "sequence": 4294967295
    },
    {
      "txid": "5b460e3284baf83c414528303e4191b5bc41aa8dd0d8bc3b902fa558c8eee9e2",
      "vout": 0,
      "prevout": {
        "scriptpubkey": "001471c77152013b61c9a1f032c63d94490073ff68f5",
        "scriptpubkey_asm": "OP_0 OP_PUSHBYTES_20 71c77152013b61c9a1f032c63d94490073ff68f5",
        "scriptpubkey_type": "v0_p2wpkh",
        "scriptpubkey_address": "bc1qw8rhz5sp8dsung0sxtrrm9zfqpel7684v2pe6t",
        "value": 27216047
      },
      "scriptsig": "",
      "scriptsig_asm": "",
      "witness": [
        "30440220298b33ea8084d3c8c4bc6e4120e9a7c78ec877b57a4cf3b6ebb13f767128d2a7022010e361cc9392c792f97940140eef8e6ccc3b0faebe3933b9ec8387a23477865301",
        "03b4e82970d8b2984599a7e7a031f3479ce278df29bfd4a6cca485520c3e3a62da"
      ],
      "is_coinbase": false,
      "sequence": 4294967295
    }
  ],
  "vout": [
    {
      "scriptpubkey": "0014032e8d7b09bc362af5eb6045bac6518993bb7213",
      "scriptpubkey_asm": "OP_0 OP_PUSHBYTES_20 032e8d7b09bc362af5eb6045bac6518993bb7213",
      "scriptpubkey_type": "v0_p2wpkh",
      "scriptpubkey_address": "bc1qqvhg67cfhsmz4a0tvpzm43j33xfmkusnu73wec",
      "value": 37137871
    }
  ],
  "size": 339,
  "weight": 708,
  "fee": 4806,
  "status": {
    "confirmed": true,
    "block_height": 834552,
    "block_hash": "00000000000000000001dd0468a70c94f619251d286585cff57aeb4bd9ede330",
    "block_time": 1710355598
  },
  "hex": "010000000001022ea627c92f669fb9dab6d0b905b526c87c0218e012d9a268cb47162f477ea0980100000000ffffffffe2e9eec858a52f903bbcd8d08daa41bcb591413e302845413cf8ba84320e465b0000000000ffffffff01cfad360200000000160014032e8d7b09bc362af5eb6045bac6518993bb72130247304402206bc5723efd82ff07be6de125100f57f9a3de909812ffee0c497c22c677a49d4802206ab62d3372acc0f2dc33c2acf9462c05b8bc02617de0285b511f8dfef12448e0012103b4e82970d8b2984599a7e7a031f3479ce278df29bfd4a6cca485520c3e3a62da024730440220298b33ea8084d3c8c4bc6e4120e9a7c78ec877b57a4cf3b6ebb13f767128d2a7022010e361cc9392c792f97940140eef8e6ccc3b0faebe3933b9ec8387a234778653012103b4e82970d8b2984599a7e7a031f3479ce278df29bfd4a6cca485520c3e3a62da00000000"
}