{
  "txid": "0711c7798de5eb55ee04fc5a0336e70fb2553dc21b857c27f10228dc041dcf89",
  "version": 2,
  "locktime": 0,
  "vin": [
    {
      "txid": "cd5aef02ba8a0f42355e089f80dc047140cb30541e0dbfbbf7045eb10cc06ec6",
      "vout": 1,
      "prevout": {
        "scriptpubkey": "0014fda4e9c8d89503f2d2fa7d75ae77f0c8ddd3153e",
        "scriptpubkey_asm": "OP_0 OP_PUSHBYTES_20 fda4e9c8d89503f2d2fa7d75ae77f0c8ddd3153e",
        "scriptpubkey_type": "v0_p2wpkh",
        "scriptpubkey_address": "bc1qlkjwnjxcj5pl95h60466ualserwax9f7d3skp9",
        "value": 593481
      },
      "scriptsig": "",
      "scriptsig_asm": "",
      "witness": [
        "304402205ffbfb8df63761659d388084a008049fb435ed68116e38a6e47b75df83b0f75402207c9e99c3a4d30403c8c58e19d69d66ad08067a6a7abde80d90aba62045b1ae4801",
        "0382d02f7b3221ae96fcecbae1b745a078f0995a855805bb39fc5148d76b6efa90"
      ],
      "is_coinbase": false,
      "sequence": 4294967293
    }
  ],
  "vout": [
    {
      "scriptpubkey": "0014109822d18391a4895c941dbac651d36407725ee7",
      "scriptpubkey_asm": "OP_0 OP_PUSHBYTES_20 109822d18391a4895c941dbac651d36407725ee7",
      "scriptpubkey_type": "v0_p2wpkh",
      "scriptpubkey_address": "bc1qzzvz95vrjxjgjhy5rkavv5wnvsrhyhh8duq00q",
      "value": 527750
    },
    {
      "scriptpubkey": "0014f0f500b30812183eb5e33a66d78ff0588bcf250f",
      "scriptpubkey_asm": "OP_0 OP_PUSHBYTES_20 f0f500b30812183eb5e33a66d78ff0588bcf250f",
      "scriptpubkey_type": "v0_p2wpkh",
      "scriptpubkey_address": "bc1q7r6spvcgzgvrad0r8fnd0rlstz9u7fg0sn2qlj",
      "value": 64039
    }
  ],
  "size": 222,
  "weight": 561,
  "fee": 1692,
  "status": {
    "confirmed": true,
    "block_height": 834460,
    "block_hash": "00000000000000000000484a79b643b2524bbce82e5d8a442013fa5b8905ed98",
    "block_time": 1710307468
  },
  "hex": "02000000000101c66ec00cb15e04f7bbbf0d1e5430cb407104dc809f085e35420f8aba02ef5acd0100000000fdffffff02860d080000000000160014109822d18391a4895c941dbac651d36407725ee727fa000000000000160014f0f500b30812183eb5e33a66d78ff0588bcf250f0247304402205ffbfb8df63761659d388084a008049fb435ed68116e38a6e47b75df83b0f75402207c9e99c3a4d30403c8c58e19d69d66ad08067a6a7abde80d90aba62045b1ae4801210382d02f7b3221ae96fcecbae1b745a078f0995a855805bb39fc5148d76b6efa9000000000"
}