{
  "txid": "071a6345eae0212ab342367bc187e64868f47c4618fcd6432931f6aaaad106c9",
  "version": 2,
  "locktime": 0,
  "vin": [
    {
      "txid": "f1c942a47a6dc9986ccfe1e5132832ae28d668bbd3b112f78aa4b151f64175a8",
      "vout": 5,
      "prevout": {
        "scriptpubkey": "51200c97079b939a0c33af95bee86e1786d04570fee7495f60f8eaf16f9addca78f6",
        "scriptpubkey_asm": "OP_PUSHNUM_1 OP_PUSHBYTES_32 0c97079b939a0c33af95bee86e1786d04570fee7495f60f8eaf16f9addca78f6",
        "scriptpubkey_type": "v1_p2tr",
        "scriptpubkey_address": "bc1ppjts0xunngxr8tu4hm5xu9ux6pzhplh8f90kp78279he4hw20rmqd4cwpl",
        "value": 1991
      },
      "scriptsig": "",
      "scriptsig_asm": "",
      "witness": [
        "b84a8635ad2203d24508ea57cf5965ed414d1ce73b84b5e371563e74553d954cde69020316a7b03ee8f31a5962b43c5eedc9cd80b050a9845d778115b943f82b",
        "20af2ce6535e9b4e8683bd6896cb7cca8a3a68d4c253ae8996775e8d5369564d1aac0063036f7264010118746578742f706c61696e3b636861727365743d7574662d3800357b2270223a226272632d3230222c226f70223a226d696e74222c227469636b223a22646f6765222c22616d74223a2234323030227d68",
        "c1af2ce6535e9b4e8683bd6896cb7cca8a3a68d4c253ae8996775e8d5369564d1a"
      ],
      "is_coinbase": false,
      "sequence": 4294967293
    }
  ],
  "vout": [
    {
      "scriptpubkey": "5120fae08f3ec3496d19051e8242fef12fb217b224f0d9c7fca9fa7dd57882e3b40c",
      "scriptpubkey_asm": "OP_PUSHNUM_1 OP_PUSHBYTES_32 fae08f3ec3496d19051e8242fef12fb217b224f0d9c7fca9fa7dd57882e3b40c",
      "scriptpubkey_type": "v1_p2tr",
      "scriptpubkey_address": "bc1pltsg70krf9k3jpg7sfp0auf0kgtmyf8sm8rle2060h2h3qhrksxqjq78nc",
      "value": 330
    }
  ],
  "size": 320,
  "weight": 602,
  "fee": 1661,
  "status": {
    "confirmed": true,
    "block_height": 834464,
    "block_hash": "0000000000000000000177a0869a911a2b65c9bdcd5a8bcb02b68f305bee848e",
    "block_time": 1710308296
  },
  "hex": "02000000000101a87541f651b1a48af712b1d3bb68d628ae322813e5e1cf6c98c96d7aa442c9f10500000000fdffffff014a01000000000000225120fae08f3ec3496d19051e8242fef12fb217b224f0d9c7fca9fa7dd57882e3b40c0340b84a8635ad2203d24508ea57cf5965ed414d1ce73b84b5e371563e74553d954cde69020316a7b03ee8f31a5962b43c5eedc9cd80b050a9845d778115b943f82b7b20af2ce6535e9b4e8683bd6896cb7cca8a3a68d4c253ae8996775e8d5369564d1aac0063036f7264010118746578742f706c61696e3b636861727365743d7574662d3800357b2270223a226272632d3230222c226f70223a226d696e74222c227469636b223a22646f6765222c22616d74223a2234323030227d6821c1af2ce6535e9b4e8683bd6896cb7cca8a3a68d4c253ae8996775e8d5369564d1a00000000"
}