{
  "txid": "07319cf4b9a4d5bb01e5f47d8bcc6eba7abdaa1d5d28f5bb68a576e87b84a8a4",
  "version": 2,
  "locktime": 0,
  "vin": [
    {
      "txid": "61bc3636a70ba9e2e56b8ad5922e5eb0e9f39e8dc1d72a44786ef2ddf74910a1",
      "vout": 1,
      "prevout": {
        "scriptpubkey": "0014afacd188872fff12876e944d5c71bd3ddbd4b4e4",
        "scriptpubkey_asm": "OP_0 OP_PUSHBYTES_20 afacd188872fff12876e944d5c71bd3ddbd4b4e4",
        "scriptpubkey_type": "v0_p2wpkh",
        "scriptpubkey_address": "bc1q47kdrzy89ll39pmwj3x4cuda8hdafd8y2y6djj",
        "value": 3309463
      },
      "scriptsig": "",
      "scriptsig_asm": "",
      "witness": [
        "30440220261ec7e15785a510d06e6b90950c8b756b5c205e4e1b4f0aded4948dd586343c02200d44848c1a9f0318e70e39b120e54b16dc6a34e70f9ab7fb9c02367d4481fae301",
        "030c0811de8bfdbdf7e411110b7590b764348d9fcfedb019d400bd43d7933b2f42"
      ],
      "is_coinbase": false,
      "sequence": 4294967295
    }
  ],
  "vout": [
    {
      "scriptpubkey": "0014afacd188872fff12876e944d5c71bd3ddbd4b4e4",
      "scriptpubkey_asm": "OP_0 OP_PUSHBYTES_20 afacd188872fff12876e944d5c71bd3ddbd4b4e4",
      "scriptpubkey_type": "v0_p2wpkh",
      "scriptpubkey_address": "bc1q47kdrzy89ll39pmwj3x4cuda8hdafd8y2y6djj",
      "value": 3028894
    },
    {
      "scriptpubkey": "0014331364ae8d2830e16b0f309496033c6e57371146",
      "scriptpubkey_asm": "OP_0 OP_PUSHBYTES_20 331364ae8d2830e16b0f309496033c6e57371146",
      "scriptpubkey_type": "v0_p2wpkh",
      "scriptpubkey_address": "bc1qxvfkft5d9qcwz6c0xz2fvqeudetnwy2xsakyrc",
      "value": 277998
    }
  ],
  "size": 222,
  "weight": 561,
  "fee": 2571,
  "status": {
    "confirmed": true,
    "block_height": 834638,
    "block_hash": "000000000000000000025f742c626208ac87e0b7d15054abb4a19ca2d735a54e",
    "block_time": 1710405325
  },
  "hex": "02000000000101a11049f7ddf26e78442ad7c18d9ef3e9b05e2e92d58a6be5e2a90ba73636bc610100000000ffffffff029e372e0000000000160014afacd188872fff12876e944d5c71bd3ddbd4b4e4ee3d040000000000160014331364ae8d2830e16b0f309496033c6e57371146024730440220261ec7e15785a510d06e6b90950c8b756b5c205e4e1b4f0aded4948dd586343c02200d44848c1a9f0318e70e39b120e54b16dc6a34e70f9ab7fb9c02367d4481fae30121030c0811de8bfdbdf7e411110b7590b764348d9fcfedb019d400bd43d7933b2f4200000000"
}