{
  "txid": "07394777bd2115041214a71e2f22717d53d81c6e6e69f7687df2b4b49b14bd4e",
  "version": 2,
  "locktime": 0,
  "vin": [
    {
      "txid": "4c1065f9f8f548a8ab83f2dd12ea108280bc743fe79beb28a8c530e275129cfa",
      "vout": 0,
      "prevout": {
        "scriptpubkey": "512036e6947e98e153e23f70a1447c454f4c0785abbf3aee2777a9d0e8ea05cd0fbb",
        "scriptpubkey_asm": "OP_PUSHNUM_1 OP_PUSHBYTES_32 36e6947e98e153e23f70a1447c454f4c0785abbf3aee2777a9d0e8ea05cd0fbb",
        "scriptpubkey_type": "v1_p2tr",
        "scriptpubkey_address": "bc1pxmnfgl5cu9f7y0ms59z8c320fsrct2al8thzwaaf6r5w5pwdp7aszxzpx6",
        "value": 2909
      },
      "scriptsig": "",
      "scriptsig_asm": "",
      "witness": [
        "f2015322a8a18fba36767d6c5208008629ef4bf1a78dc9f9f9d0a1c172478a519907c75d521642b2a8f3758d0b5da24e23c113cbb9fe4750cc058de03bcb1064",
        "202d2888d21c2612b2727936c50c4812009e4d24e69d451b70204b59284c243dbcac0063036f7264010118746578742f706c61696e3b636861727365743d7574662d3800367b2270223a226272632d3230222c226f70223a227472616e73666572222c227469636b223a2223425443222c22616d74223a2238227d68",
        "c02d2888d21c2612b2727936c50c4812009e4d24e69d451b70204b59284c243dbc"
      ],
      "is_coinbase": false,
      "sequence": 4294967293
    }
  ],
  "vout": [
    {
      "scriptpubkey": "0014f3b21536ea4b9510a3a78a7214aaf1aa3709bfc2",
      "scriptpubkey_asm": "OP_0 OP_PUSHBYTES_20 f3b21536ea4b9510a3a78a7214aaf1aa3709bfc2",
      "scriptpubkey_type": "v0_p2wpkh",
      "scriptpubkey_address": "bc1q7wep2dh2fw23pga83fepf2h34gmsn07zeyrmrc",
      "value": 546
    }
  ],
  "size": 309,
  "weight": 555,
  "fee": 2363,
  "status": {
    "confirmed": true,
    "block_height": 834638,
    "block_hash": "000000000000000000025f742c626208ac87e0b7d15054abb4a19ca2d735a54e",
    "block_time": 1710405325
  },
  "hex": "02000000000101fa9c1275e230c5a828eb9be73f74bc808210ea12ddf283aba848f5f8f965104c0000000000fdffffff012202000000000000160014f3b21536ea4b9510a3a78a7214aaf1aa3709bfc20340f2015322a8a18fba36767d6c5208008629ef4bf1a78dc9f9f9d0a1c172478a519907c75d521642b2a8f3758d0b5da24e23c113cbb9fe4750cc058de03bcb10647c202d2888d21c2612b2727936c50c4812009e4d24e69d451b70204b59284c243dbcac0063036f7264010118746578742f706c61696e3b636861727365743d7574662d3800367b2270223a226272632d3230222c226f70223a227472616e73666572222c227469636b223a2223425443222c22616d74223a2238227d6821c02d2888d21c2612b2727936c50c4812009e4d24e69d451b70204b59284c243dbc00000000"
}