{
  "txid": "07426656b6e9e984f955e4c8bcabb541da5b4c0e6c98c7a644f39d5fa12576d3",
  "version": 1,
  "locktime": 0,
  "vin": [
    {
      "txid": "b82879256213d0012998aa5c7ecc65c4ba773f7463551cd770d7ce8eb02832cc",
      "vout": 1,
      "prevout": {
        "scriptpubkey": "0014c7ad8dded2148551e1c3cb15e2a550d97d886e2e",
        "scriptpubkey_asm": "OP_0 OP_PUSHBYTES_20 c7ad8dded2148551e1c3cb15e2a550d97d886e2e",
        "scriptpubkey_type": "v0_p2wpkh",
        "scriptpubkey_address": "bc1qc7kcmhkjzjz4rcwrev279f2sm97csm3wc8mkp3",
        "value": 922854
      },
      "scriptsig": "",
      "scriptsig_asm": "",
      "witness": [
        "30440220340c601f60b960e64491fb8ad67288e95e74e0134abfe5dbb61f76b0eaf07e7a0220527d468f70fc7a8a2233724291b5df3449ba1e1c27d29fd621d4000e7c1a060b01",
        "0251631f6d1d5ed4c329aeefd9cd9130d3b928152a1f3f77cce3fbd2cd165e320f"
      ],
      "is_coinbase": false,
      "sequence": 4294967295
    }
  ],
  "vout": [
    {
      "scriptpubkey": "00144e59b7219bfbb40900b85556ba5a883f6c6da9be",
      "scriptpubkey_asm": "OP_0 OP_PUSHBYTES_20 4e59b7219bfbb40900b85556ba5a883f6c6da9be",
      "scriptpubkey_type": "v0_p2wpkh",
      "scriptpubkey_address": "bc1qfevmwgvmlw6qjq9c24tt5k5g8akxm2d7e6hy6u",
      "value": 8166
    },
    {
      "scriptpubkey": "0014ffe4a12dd5a78d470d9a7ee82dd3c131d8cb5133",
      "scriptpubkey_asm": "OP_0 OP_PUSHBYTES_20 ffe4a12dd5a78d470d9a7ee82dd3c131d8cb5133",
      "scriptpubkey_type": "v0_p2wpkh",
      "scriptpubkey_address": "bc1qllj2ztw457x5wrv60m5zm57px8vvk5fnj7xu9x",
      "value": 912588
    }
  ],
  "size": 222,
  "weight": 561,
  "fee": 2100,
  "status": {
    "confirmed": true,
    "block_height": 834638,
    "block_hash": "000000000000000000025f742c626208ac87e0b7d15054abb4a19ca2d735a54e",
    "block_time": 1710405325
  },
  "hex": "01000000000101cc3228b08eced770d71c5563743f77bac465cc7e5caa982901d01362257928b80100000000ffffffff02e61f0000000000001600144e59b7219bfbb40900b85556ba5a883f6c6da9beccec0d0000000000160014ffe4a12dd5a78d470d9a7ee82dd3c131d8cb5133024730440220340c601f60b960e64491fb8ad67288e95e74e0134abfe5dbb61f76b0eaf07e7a0220527d468f70fc7a8a2233724291b5df3449ba1e1c27d29fd621d4000e7c1a060b01210251631f6d1d5ed4c329aeefd9cd9130d3b928152a1f3f77cce3fbd2cd165e320f00000000"
}