{
  "txid": "07446d97f698b4b0c43c06bb2d687b58300bd632f83d8389bc45ae3df03186ba",
  "version": 2,
  "locktime": 0,
  "vin": [
    {
      "txid": "ca49732a8789b812361e997512b66bc3787f1e3ff39f5f0d8b845e09438043f6",
      "vout": 0,
      "prevout": {
        "scriptpubkey": "51207af90567e62d3673f5a13fdebb3b2a8b0d84cf1d40c583d10cd216bf720b19fa",
        "scriptpubkey_asm": "OP_PUSHNUM_1 OP_PUSHBYTES_32 7af90567e62d3673f5a13fdebb3b2a8b0d84cf1d40c583d10cd216bf720b19fa",
        "scriptpubkey_type": "v1_p2tr",
        "scriptpubkey_address": "bc1p0tus2elx95m88adp8l0tkwe23vxcfncagrzc85gv6gtt7ustr8aqv0jep8",
        "value": 2066
      },
      "scriptsig": "",
      "scriptsig_asm": "",
      "witness": [
        "36c8a065ca74ad335bbaefdd63227e4acc1c515e9b7d114435812358e861f540afb4809c3fdd7bb6b3ce518e3ec3afc2580851875cefa82de5e832a6d88f9ed5",
        "2073251922cd10c5b5b2a837855e40f1183b2c90cdaf69bb1940514fb15927f929ac0063036f726401010a746578742f706c61696e00367b2270223a226272632d3230222c226f70223a226d696e74222c227469636b223a2261616161222c22616d74223a223130303030227d68",
        "c073251922cd10c5b5b2a837855e40f1183b2c90cdaf69bb1940514fb15927f929"
      ],
      "is_coinbase": false,
      "sequence": 4261412863
    }
  ],
  "vout": [
    {
      "scriptpubkey": "0014b12a255b419b46c01324705abea5fd2949f55051",
      "scriptpubkey_asm": "OP_0 OP_PUSHBYTES_20 b12a255b419b46c01324705abea5fd2949f55051",
      "scriptpubkey_type": "v0_p2wpkh",
      "scriptpubkey_address": "bc1qky4z2k6pndrvqyeywpdtaf0a99yl25z3zp84r6",
      "value": 294
    }
  ],
  "size": 295,
  "weight": 541,
  "fee": 1772,
  "status": {
    "confirmed": true,
    "block_height": 834460,
    "block_hash": "00000000000000000000484a79b643b2524bbce82e5d8a442013fa5b8905ed98",
    "block_time": 1710307468
  },
  "hex": "02000000000101f6438043095e848b0d5f9ff33f1e7f78c36bb61275991e3612b889872a7349ca0000000000fffffffd012601000000000000160014b12a255b419b46c01324705abea5fd2949f55051034036c8a065ca74ad335bbaefdd63227e4acc1c515e9b7d114435812358e861f540afb4809c3fdd7bb6b3ce518e3ec3afc2580851875cefa82de5e832a6d88f9ed56e2073251922cd10c5b5b2a837855e40f1183b2c90cdaf69bb1940514fb15927f929ac0063036f726401010a746578742f706c61696e00367b2270223a226272632d3230222c226f70223a226d696e74222c227469636b223a2261616161222c22616d74223a223130303030227d6821c073251922cd10c5b5b2a837855e40f1183b2c90cdaf69bb1940514fb15927f92900000000"
}