{
  "txid": "07494dbec82039c765bdb51243cdf279247136711c34762c5bfb938919cd66c2",
  "version": 2,
  "locktime": 0,
  "vin": [
    {
      "txid": "e57077e10fb3033e49ef31c787fc6294377fc95cc7a38f8f18441dbadb27d035",
      "vout": 14,
      "prevout": {
        "scriptpubkey": "5120f5ec27be3d08c8ce03e171cacc3b403d5e9847b1c192b9ce3d6eb64f7fdcd6f6",
        "scriptpubkey_asm": "OP_PUSHNUM_1 OP_PUSHBYTES_32 f5ec27be3d08c8ce03e171cacc3b403d5e9847b1c192b9ce3d6eb64f7fdcd6f6",
        "scriptpubkey_type": "v1_p2tr",
        "scriptpubkey_address": "bc1p7hkz003apryvuqlpw89vcw6q840fs3a3cxftnn3ad6my7l7u6mmquugahs",
        "value": 2080
      },
      "scriptsig": "",
      "scriptsig_asm": "",
      "witness": [
        "e1cfb8e0d043230e73b30ddd2bd0efa79a516080f12bc9e3c61802082c0986007679764ce8536059df0a86a9001d8b5bdf362695888a3b49a1d801f203887432",
        "20430f9651e3d91fa760a1795a6719919ac98f32f93f52ef96f39bc18c503581f1ac0063036f7264010118746578742f706c61696e3b636861727365743d7574662d3800367b2270223a226272632d3230222c226f70223a226d696e74222c227469636b223a22f09fa9b8222c22616d74223a223130303030227d68",
        "c1430f9651e3d91fa760a1795a6719919ac98f32f93f52ef96f39bc18c503581f1"
      ],
      "is_coinbase": false,
      "sequence": 4294967293
    }
  ],
  "vout": [
    {
      "scriptpubkey": "a914a8bc3251efd8c6fdbadcb1233994ae953944e4f087",
      "scriptpubkey_asm": "OP_HASH160 OP_PUSHBYTES_20 a8bc3251efd8c6fdbadcb1233994ae953944e4f0 OP_EQUAL",
      "scriptpubkey_type": "p2sh",
      "scriptpubkey_address": "3H5Ctu24hXXM5NKwSjCoVmFaXNeSe4R5FM",
      "value": 540
    }
  ],
  "size": 310,
  "weight": 559,
  "fee": 1540,
  "status": {
    "confirmed": true,
    "block_height": 834464,
    "block_hash": "0000000000000000000177a0869a911a2b65c9bdcd5a8bcb02b68f305bee848e",
    "block_time": 1710308296
  },
  "hex": "0200000000010135d027dbba1d44188f8fa3c75cc97f379462fc87c731ef493e03b30fe17770e50e00000000fdffffff011c0200000000000017a914a8bc3251efd8c6fdbadcb1233994ae953944e4f0870340e1cfb8e0d043230e73b30ddd2bd0efa79a516080f12bc9e3c61802082c0986007679764ce8536059df0a86a9001d8b5bdf362695888a3b49a1d801f2038874327c20430f9651e3d91fa760a1795a6719919ac98f32f93f52ef96f39bc18c503581f1ac0063036f7264010118746578742f706c61696e3b636861727365743d7574662d3800367b2270223a226272632d3230222c226f70223a226d696e74222c227469636b223a22f09fa9b8222c22616d74223a223130303030227d6821c1430f9651e3d91fa760a1795a6719919ac98f32f93f52ef96f39bc18c503581f100000000"
}