{
  "txid": "07510bdbf19ffe635112f830f619b576e3225b4e337f0d35ef38235768d4eb0d",
  "version": 2,
  "locktime": 834595,
  "vin": [
    {
      "txid": "b373f3804868fb74be0f35ae0b86f46d581d68f9c2c3ccbeaf5e513d4beb9b04",
      "vout": 18,
      "prevout": {
        "scriptpubkey": "0014482db7d30db6d70929d6471c9d365c9d12966178",
        "scriptpubkey_asm": "OP_0 OP_PUSHBYTES_20 482db7d30db6d70929d6471c9d365c9d12966178",
        "scriptpubkey_type": "v0_p2wpkh",
        "scriptpubkey_address": "bc1qfqkm05cdkmtsj2wkguwf6djun5ffvctcafwatt",
        "value": 78720
      },
      "scriptsig": "",
      "scriptsig_asm": "",
      "witness": [
        "30440220735c1068e13c4b726d90b2de8691b739f80f058c237f6046f1b547e163d04563022072dcee97a53a66c76962d0410effb9bbfc0105282636f88a5d1ebdc8e94ac06301",
        "028056e2d9795f2ec6f749367daa70a87994d28913eaa87901ec35f006e772f76a"
      ],
      "is_coinbase": false,
      "sequence": 4294967294
    },
    {
      "txid": "5e797128e5900884730b756181f96b638657606de797f5ae0495e27c209d2ade",
      "vout": 85,
      "prevout": {
        "scriptpubkey": "001422a18a2eeba0697dc52903fee23ff29b50f09db0",
        "scriptpubkey_asm": "OP_0 OP_PUSHBYTES_20 22a18a2eeba0697dc52903fee23ff29b50f09db0",
        "scriptpubkey_type": "v0_p2wpkh",
        "scriptpubkey_address": "bc1qy2sc5tht5p5hm3ffq0lwy0ljndg0p8dsnexjmw",
        "value": 475213
      },
      "scriptsig": "",
      "scriptsig_asm": "",
      "witness": [
        "30440220309d1b831d5ef782b261936a42569ed515ae9353af862514c01a7001fd3e711002201356750e794b548bebbe1884f56431b45ffeedcd1f08c77ae596c04bdca4f84401",
        "02b35cddb7c5de9213e5ba0be2cb1590e7cb82e7f40b6f3714267fb069031b8418"
      ],
      "is_coinbase": false,
      "sequence": 4294967294
    },
    {
      "txid": "922b91777aaeaa77ccab499bdc1906c408787d73e4409f78bf0938c26d14b028",
      "vout": 14,
      "prevout": {
        "scriptpubkey": "00149dcfbee43b5db9fed909990f3d01f4cd72191c43",
        "scriptpubkey_asm": "OP_0 OP_PUSHBYTES_20 9dcfbee43b5db9fed909990f3d01f4cd72191c43",
        "scriptpubkey_type": "v0_p2wpkh",
        "scriptpubkey_address": "bc1qnh8maepmtkulakgfny8n6q05e4epj8zrc7qkw9",
        "value": 499792
      },
      "scriptsig": "",
      "scriptsig_asm": "",
      "witness": [
        "304402200b09292ebe4ab5284c29aaea6652560e8076b645dd009eddf43c9ee93cac3e07022065e28c8c3560e9731fd82a352040ee1c690b9dee51ee0c7f44a5609a55861c3301",
        "021b3650a5a09fe345f6bd75b4fa7687089bc5592773ce7e1aece4830380716eed"
      ],
      "is_coinbase": false,
      "sequence": 4294967294
    },
    {
      "txid": "062b12c209fb3ccb580691c7e33323ec040c936f81e16e1d93dee43ee12a8433",
      "vout": 135,
      "prevout": {
        "scriptpubkey": "00145c1997c3c043ac773cb7b73ab21172d648df4e13",
        "scriptpubkey_asm": "OP_0 OP_PUSHBYTES_20 5c1997c3c043ac773cb7b73ab21172d648df4e13",
        "scriptpubkey_type": "v0_p2wpkh",
        "scriptpubkey_address": "bc1qtsve0s7qgwk8w09hkuatyytj6eyd7nsnxcfnjq",
        "value": 28324
      },
      "scriptsig": "",
      "scriptsig_asm": "",
      "witness": [
        "30440220157d937f6bca858590c5327e347f62b3db9a30c4cd3abe56842059429edfcbbd02205c84011ba38b2a869127cd1a55fed311805a765c0801c5552406c32d3f72ed5c01",
        "02f9aa36007c8674a4e72526c8241c632e228e575a900d85b286606c6391e6f560"
      ],
      "is_coinbase": false,
      "sequence": 4294967294
    }
  ],
  "vout": [
    {
      "scriptpubkey": "001464493f601d17c03c62fd0286b725816dfce808c1",
      "scriptpubkey_asm": "OP_0 OP_PUSHBYTES_20 64493f601d17c03c62fd0286b725816dfce808c1",
      "scriptpubkey_type": "v0_p2wpkh",
      "scriptpubkey_address": "bc1qv3yn7cqazlqrcchaq2rtwfvpdh7wszxp63r6zd",
      "value": 1001368
    },
    {
      "scriptpubkey": "0014d3f649fdd80260b62a3bcd1489c10281266398ec",
      "scriptpubkey_asm": "OP_0 OP_PUSHBYTES_20 d3f649fdd80260b62a3bcd1489c10281266398ec",
      "scriptpubkey_type": "v0_p2wpkh",
      "scriptpubkey_address": "bc1q60mynlwcqfstv23me52gnsgzsynx8x8vqzflvc",
      "value": 70000
    }
  ],
  "size": 666,
  "weight": 1374,
  "fee": 10681,
  "status": {
    "confirmed": true,
    "block_height": 834638,
    "block_hash": "000000000000000000025f742c626208ac87e0b7d15054abb4a19ca2d735a54e",
    "block_time": 1710405325
  },
  "hex": "02000000000104049beb4b3d515eafbeccc3c2f9681d586df4860bae350fbe74fb684880f373b31200000000feffffffde2a9d207ce29504aef597e76d605786636bf98161750b73840890e52871795e5500000000feffffff28b0146dc23809bf789f40e4737d7808c40619dc9b49abcc77aaae7a77912b920e00000000feffffff33842ae13ee4de931d6ee1816f930c04ec2333e3c7910658cb3cfb09c2122b068700000000feffffff0298470f000000000016001464493f601d17c03c62fd0286b725816dfce808c17011010000000000160014d3f649fdd80260b62a3bcd1489c10281266398ec024730440220735c1068e13c4b726d90b2de8691b739f80f058c237f6046f1b547e163d04563022072dcee97a53a66c76962d0410effb9bbfc0105282636f88a5d1ebdc8e94ac0630121028056e2d9795f2ec6f749367daa70a87994d28913eaa87901ec35f006e772f76a024730440220309d1b831d5ef782b261936a42569ed515ae9353af862514c01a7001fd3e711002201356750e794b548bebbe1884f56431b45ffeedcd1f08c77ae596c04bdca4f844012102b35cddb7c5de9213e5ba0be2cb1590e7cb82e7f40b6f3714267fb069031b84180247304402200b09292ebe4ab5284c29aaea6652560e8076b645dd009eddf43c9ee93cac3e07022065e28c8c3560e9731fd82a352040ee1c690b9dee51ee0c7f44a5609a55861c330121021b3650a5a09fe345f6bd75b4fa7687089bc5592773ce7e1aece4830380716eed024730440220157d937f6bca858590c5327e347f62b3db9a30c4cd3abe56842059429edfcbbd02205c84011ba38b2a869127cd1a55fed311805a765c0801c5552406c32d3f72ed5c012102f9aa36007c8674a4e72526c8241c632e228e575a900d85b286606c6391e6f56023bc0c00"
}