{
  "txid": "076c1e52bd9ddef4e553688ce99ecaea7a0f89c0e2b651ac839802102931da2a",
  "version": 1,
  "locktime": 0,
  "vin": [
    {
      "txid": "94477315d3dae31336dbdbb65b533fd7d19beefc78dbdfa668eeee80b527d29a",
      "vout": 2,
      "prevout": {
        "scriptpubkey": "00141e2aa52974a2532261baece0c0a5e5611bf70e28",
        "scriptpubkey_asm": "OP_0 OP_PUSHBYTES_20 1e2aa52974a2532261baece0c0a5e5611bf70e28",
        "scriptpubkey_type": "v0_p2wpkh",
        "scriptpubkey_address": "bc1qrc4222t55ffjycd6ansvpf09vydlwr3g9nnyxq",
        "value": 1897623
      },
      "scriptsig": "",
      "scriptsig_asm": "",
      "witness": [
        "304402200f02989826387e78e44fa059cc273d1a21e0ba4d4aa9ba0f3c56e19aed70db9702205b71675bf208a81e3dc59c6459cf4788422068107d88c5a10c64c45cb3ad06e101",
        "02a2431d130431a520fadd9a45445c25fbfda8667893e2b61e4f1a1b7818a3f530"
      ],
      "is_coinbase": false,
      "sequence": 4294967295
    }
  ],
  "vout": [
    {
      "scriptpubkey": "a914624696f3167eacd5d121cdf4a561d556b9b93b2787",
      "scriptpubkey_asm": "OP_HASH160 OP_PUSHBYTES_20 624696f3167eacd5d121cdf4a561d556b9b93b27 OP_EQUAL",
      "scriptpubkey_type": "p2sh",
      "scriptpubkey_address": "3AeehzpmK3pAohEhWS53iQpzZhXKuF1Vrq",
      "value": 308038
    },
    {
      "scriptpubkey": "0014529ce9413be635fa6bb9dad84a0ea73c4f1136a4",
      "scriptpubkey_asm": "OP_0 OP_PUSHBYTES_20 529ce9413be635fa6bb9dad84a0ea73c4f1136a4",
      "scriptpubkey_type": "v0_p2wpkh",
      "scriptpubkey_address": "bc1q22wwjsfmuc6l56aemtvy5r488383zd4yjcn9ul",
      "value": 1585925
    }
  ],
  "size": 223,
  "weight": 565,
  "fee": 3660,
  "status": {
    "confirmed": true,
    "block_height": 834638,
    "block_hash": "000000000000000000025f742c626208ac87e0b7d15054abb4a19ca2d735a54e",
    "block_time": 1710405325
  },
  "hex": "010000000001019ad227b580eeee68a6dfdb78fcee9bd1d73f535bb6dbdb3613e3dad3157347940200000000ffffffff0246b304000000000017a914624696f3167eacd5d121cdf4a561d556b9b93b27870533180000000000160014529ce9413be635fa6bb9dad84a0ea73c4f1136a40247304402200f02989826387e78e44fa059cc273d1a21e0ba4d4aa9ba0f3c56e19aed70db9702205b71675bf208a81e3dc59c6459cf4788422068107d88c5a10c64c45cb3ad06e1012102a2431d130431a520fadd9a45445c25fbfda8667893e2b61e4f1a1b7818a3f53000000000"
}