{
  "txid": "07799483358740d519f7cc57e0426027eb33ab3012fa5d565f5cb2fadadde7d8",
  "version": 1,
  "locktime": 0,
  "vin": [
    {
      "txid": "955aa856b3822ea048d0af560377885f39575b6b74f51e49294d321b7747c92d",
      "vout": 4,
      "prevout": {
        "scriptpubkey": "00142ae54e69eedc317f142eec88f16d8eafd80d5fe1",
        "scriptpubkey_asm": "OP_0 OP_PUSHBYTES_20 2ae54e69eedc317f142eec88f16d8eafd80d5fe1",
        "scriptpubkey_type": "v0_p2wpkh",
        "scriptpubkey_address": "bc1q9tj5u60wmsch79pwajy0zmvw4lvq6hlpaagd34",
        "value": 204124
      },
      "scriptsig": "",
      "scriptsig_asm": "",
      "witness": [
        "3045022100c90385fc994f7420d02abe630f09c356d2f6441f20650d3298d5c0bfb40a7d2802207717336cae8a3496684d670fbebfcb1800b472fbae9f5c73ef3449775e00f0db01",
        "02f694e8edfca213f5a5e8c7bcebf96fba4c08e09744c49c93059f84b02efb3428"
      ],
      "is_coinbase": false,
      "sequence": 4294967295
    },
    {
      "txid": "ffd7881bbef702f92989722318cceee364486796101713a4e75a66df971c2c8f",
      "vout": 14,
      "prevout": {
        "scriptpubkey": "00142ae54e69eedc317f142eec88f16d8eafd80d5fe1",
        "scriptpubkey_asm": "OP_0 OP_PUSHBYTES_20 2ae54e69eedc317f142eec88f16d8eafd80d5fe1",
        "scriptpubkey_type": "v0_p2wpkh",
        "scriptpubkey_address": "bc1q9tj5u60wmsch79pwajy0zmvw4lvq6hlpaagd34",
        "value": 267091
      },
      "scriptsig": "",
      "scriptsig_asm": "",
      "witness": [
        "30440220322744aa8393ecf10c60df84ca2e6851ac9c044e2a27484c4e756a8e3c40656d02207f9b7a901e116a66c03ad85cdde90ef81117df1d236240ecee9a552b0ae3b07401",
        "02f694e8edfca213f5a5e8c7bcebf96fba4c08e09744c49c93059f84b02efb3428"
      ],
      "is_coinbase": false,
      "sequence": 4294967295
    }
  ],
  "vout": [
    {
      "scriptpubkey": "a91472a261cea8fcbbb2d6d7a1e652a42871bd512b1b87",
      "scriptpubkey_asm": "OP_HASH160 OP_PUSHBYTES_20 72a261cea8fcbbb2d6d7a1e652a42871bd512b1b OP_EQUAL",
      "scriptpubkey_type": "p2sh",
      "scriptpubkey_address": "3C99Uv4jiepMHcaRNDkhskUvhsf6jzLWAw",
      "value": 466382
    }
  ],
  "size": 341,
  "weight": 713,
  "fee": 4833,
  "status": {
    "confirmed": true,
    "block_height": 834638,
    "block_hash": "000000000000000000025f742c626208ac87e0b7d15054abb4a19ca2d735a54e",
    "block_time": 1710405325
  },
  "hex": "010000000001022dc947771b324d29491ef5746b5b57395f88770356afd048a02e82b356a85a950400000000ffffffff8f2c1c97df665ae7a413171096674864e3eecc1823728929f902f7be1b88d7ff0e00000000ffffffff01ce1d07000000000017a91472a261cea8fcbbb2d6d7a1e652a42871bd512b1b8702483045022100c90385fc994f7420d02abe630f09c356d2f6441f20650d3298d5c0bfb40a7d2802207717336cae8a3496684d670fbebfcb1800b472fbae9f5c73ef3449775e00f0db012102f694e8edfca213f5a5e8c7bcebf96fba4c08e09744c49c93059f84b02efb3428024730440220322744aa8393ecf10c60df84ca2e6851ac9c044e2a27484c4e756a8e3c40656d02207f9b7a901e116a66c03ad85cdde90ef81117df1d236240ecee9a552b0ae3b074012102f694e8edfca213f5a5e8c7bcebf96fba4c08e09744c49c93059f84b02efb342800000000"
}