{
  "txid": "078fcba6851efa72d466f69b711ff9c792d9a66d440cc9f8679cee61e675a531",
  "version": 2,
  "locktime": 0,
  "vin": [
    {
      "txid": "18b1fd113a932758d7185d2ae2627848235facc6756084e72b6450aa46916542",
      "vout": 0,
      "prevout": {
        "scriptpubkey": "5120cf74f9a2c8d0d2e21a96a01ede556585bd25fab0a0198bc8c96126f27e98da0f",
        "scriptpubkey_asm": "OP_PUSHNUM_1 OP_PUSHBYTES_32 cf74f9a2c8d0d2e21a96a01ede556585bd25fab0a0198bc8c96126f27e98da0f",
        "scriptpubkey_type": "v1_p2tr",
        "scriptpubkey_address": "bc1pea60ngkg6rfwyx5k5q0du4t9sk7jt74s5qvchjxfvyn0yl5cmg8scx5r07",
        "value": 1006902
      },
      "scriptsig": "",
      "scriptsig_asm": "",
      "witness": [
        "0cf98cb4a0d78fcb7dd8dc38ea79374fad7ff789d3f2ce43759d251cb55fbf02b6f2e372016c2c985daf216a84a4d5c6d5d5b5f6c7e263b12e0ffe3a919ed612"
      ],
      "is_coinbase": false,
      "sequence": 4294967295
    },
    {
      "txid": "5dd3ac4c230a6aa0df6244bf33402ccdca6cccd44b46d4132b27954037abe626",
      "vout": 0,
      "prevout": {
        "scriptpubkey": "0014380398fa7b5df623ac0bd9cb5a17a3ce80139bb6",
        "scriptpubkey_asm": "OP_0 OP_PUSHBYTES_20 380398fa7b5df623ac0bd9cb5a17a3ce80139bb6",
        "scriptpubkey_type": "v0_p2wpkh",
        "scriptpubkey_address": "bc1q8qpe37nmthmz8tqtm89459are6qp8xak22k2zg",
        "value": 1357342
      },
      "scriptsig": "",
      "scriptsig_asm": "",
      "witness": [
        "304402202b3533d9e1d61f9b725033d3ab26b0ec6dce84e27d63bac6d2f97cba44c6e8cd022017188b77c7a73e38c71041aed27ad9f7853dfba982a3f1e9b7bf0afa93cef48401",
        "026c49950edc50f695d8390e39490e88a39403dc07ea60bbac2f80b5b19dca17a2"
      ],
      "is_coinbase": false,
      "sequence": 4294967295
    },
    {
      "txid": "5dd3ac4c230a6aa0df6244bf33402ccdca6cccd44b46d4132b27954037abe626",
      "vout": 1,
      "prevout": {
        "scriptpubkey": "001440c2b8fc0e997754666fe80defb4947c6129b1de",
        "scriptpubkey_asm": "OP_0 OP_PUSHBYTES_20 40c2b8fc0e997754666fe80defb4947c6129b1de",
        "scriptpubkey_type": "v0_p2wpkh",
        "scriptpubkey_address": "bc1qgrpt3lqwn9m4gen0aqx7ldy503sjnvw73k724q",
        "value": 1354135
      },
      "scriptsig": "",
      "scriptsig_asm": "",
      "witness": [
        "3045022100ac6a77f5a1797599bc5230fac4a68d34c76e66d98c7f6acf6725bcb56d03ea5d0220369676cb35f91be281af1467749bca3f83bc3615cd5d15364fcd55a7d540544801",
        "0256f3d2b91bd781f3f116b86830e2e1cdc9c21499023d27f22543db6d3bcbd8c7"
      ],
      "is_coinbase": false,
      "sequence": 4294967295
    },
    {
      "txid": "5dd3ac4c230a6aa0df6244bf33402ccdca6cccd44b46d4132b27954037abe626",
      "vout": 4,
      "prevout": {
        "scriptpubkey": "00148cb78daa3871d215a83225e1505d51b4c5f2f0a6",
        "scriptpubkey_asm": "OP_0 OP_PUSHBYTES_20 8cb78daa3871d215a83225e1505d51b4c5f2f0a6",
        "scriptpubkey_type": "v0_p2wpkh",
        "scriptpubkey_address": "bc1q3jmcm23cw8fpt2pjyhs4qh23knzl9u9x6uuljg",
        "value": 1357713
      },
      "scriptsig": "",
      "scriptsig_asm": "",
      "witness": [
        "30450221008effea2349d0937662b7b49c195d31432e22ff4d594a396ee9277ba071399e47022012eaefffdf2fe187b27123e093cbce21a040e8137fe78cc5d1737cf213f673cf01",
        "03ef25320854652822c752831f8c4f5d28976fb82ee2c9bc14af49b2b385a96535"
      ],
      "is_coinbase": false,
      "sequence": 4294967295
    },
    {
      "txid": "fd79769611a0b5a1e52f684b814dde3f9e0bea3f435d36bce0e2c7a44998393c",
      "vout": 0,
      "prevout": {
        "scriptpubkey": "5120e09578b09fafddc08a7dba2d21992d421521f2ee864474f5c5eb32ed7d19cec2",
        "scriptpubkey_asm": "OP_PUSHNUM_1 OP_PUSHBYTES_32 e09578b09fafddc08a7dba2d21992d421521f2ee864474f5c5eb32ed7d19cec2",
        "scriptpubkey_type": "v1_p2tr",
        "scriptpubkey_address": "bc1puz2h3vyl4lwupznahgkjrxfdgg2jruhwsez8faw9avew6lgeempqcylm3c",
        "value": 6500000
      },
      "scriptsig": "",
      "scriptsig_asm": "",
      "witness": [
        "2babd8afb5dba022967b071762898f5934edd05ca5a0d15bcc1c7cd3bfdf137c25086ed1c09e2fedfd4fdb99971ea7677e9be7e4edadf0a7103336d6aca478b9"
      ],
      "is_coinbase": false,
      "sequence": 4294967295
    }
  ],
  "vout": [
    {
      "scriptpubkey": "5120a40f9ca510f5069e5169c358daef48cf0eece6aed1c37888563db540934b7127",
      "scriptpubkey_asm": "OP_PUSHNUM_1 OP_PUSHBYTES_32 a40f9ca510f5069e5169c358daef48cf0eece6aed1c37888563db540934b7127",
      "scriptpubkey_type": "v1_p2tr",
      "scriptpubkey_address": "bc1p5s8eefgs75rfu5tfcdvd4m6geu8wee4w68ph3zzk8k65py6twynsleutsx",
      "value": 569553
    },
    {
      "scriptpubkey": "002049b6c83939798c57d99df1383b107b8f542e14b62ceddf21e709745bc257faf8",
      "scriptpubkey_asm": "OP_0 OP_PUSHBYTES_32 49b6c83939798c57d99df1383b107b8f542e14b62ceddf21e709745bc257faf8",
      "scriptpubkey_type": "v0_p2wsh",
      "scriptpubkey_address": "bc1qfxmvswfe0xx90kva7yurkyrm3a2zu99k9nka7g08p969hsjhltuq0zvpg9",
      "value": 3000000
    },
    {
      "scriptpubkey": "0020543e0a32da282041a6c8c164deebe6d16c02ef735982c153812826a1f93ca5e0",
      "scriptpubkey_asm": "OP_0 OP_PUSHBYTES_32 543e0a32da282041a6c8c164deebe6d16c02ef735982c153812826a1f93ca5e0",
      "scriptpubkey_type": "v0_p2wsh",
      "scriptpubkey_address": "bc1q2slq5vk69qsyrfkgc9jda6lx69kq9mmntxpvz5up9qn2r7fu5hsqlmfk3k",
      "value": 3000000
    },
    {
      "scriptpubkey": "0020b3545c58c287586d4d13dcfd06feacb32898cf27471b4c0d19de17cfb3f74659",
      "scriptpubkey_asm": "OP_0 OP_PUSHBYTES_32 b3545c58c287586d4d13dcfd06feacb32898cf27471b4c0d19de17cfb3f74659",
      "scriptpubkey_type": "v0_p2wsh",
      "scriptpubkey_address": "bc1qkd29ckxzsavx6ngnmn7sdl4vkv5f3ne8gud5crgemctulvlhgevsp7qjm2",
      "value": 5000000
    }
  ],
  "size": 844,
  "weight": 2005,
  "fee": 6539,
  "status": {
    "confirmed": true,
    "block_height": 834460,
    "block_hash": "00000000000000000000484a79b643b2524bbce82e5d8a442013fa5b8905ed98",
    "block_time": 1710307468
  },
  "hex": "0200000000010542659146aa50642be7846075c6ac5f23487862e22a5d18d75827933a11fdb1180000000000ffffffff26e6ab374095272b13d4464bd4cc6ccacd2c4033bf4462dfa06a0a234cacd35d0000000000ffffffff26e6ab374095272b13d4464bd4cc6ccacd2c4033bf4462dfa06a0a234cacd35d0100000000ffffffff26e6ab374095272b13d4464bd4cc6ccacd2c4033bf4462dfa06a0a234cacd35d0400000000ffffffff3c399849a4c7e2e0bc365d433fea0b9e3fde4d814b682fe5a1b5a011967679fd0000000000ffffffff04d1b0080000000000225120a40f9ca510f5069e5169c358daef48cf0eece6aed1c37888563db540934b7127c0c62d000000000022002049b6c83939798c57d99df1383b107b8f542e14b62ceddf21e709745bc257faf8c0c62d0000000000220020543e0a32da282041a6c8c164deebe6d16c02ef735982c153812826a1f93ca5e0404b4c0000000000220020b3545c58c287586d4d13dcfd06feacb32898cf27471b4c0d19de17cfb3f7465901400cf98cb4a0d78fcb7dd8dc38ea79374fad7ff789d3f2ce43759d251cb55fbf02b6f2e372016c2c985daf216a84a4d5c6d5d5b5f6c7e263b12e0ffe3a919ed6120247304402202b3533d9e1d61f9b725033d3ab26b0ec6dce84e27d63bac6d2f97cba44c6e8cd022017188b77c7a73e38c71041aed27ad9f7853dfba982a3f1e9b7bf0afa93cef4840121026c49950edc50f695d8390e39490e88a39403dc07ea60bbac2f80b5b19dca17a202483045022100ac6a77f5a1797599bc5230fac4a68d34c76e66d98c7f6acf6725bcb56d03ea5d0220369676cb35f91be281af1467749bca3f83bc3615cd5d15364fcd55a7d540544801210256f3d2b91bd781f3f116b86830e2e1cdc9c21499023d27f22543db6d3bcbd8c7024830450221008effea2349d0937662b7b49c195d31432e22ff4d594a396ee9277ba071399e47022012eaefffdf2fe187b27123e093cbce21a040e8137fe78cc5d1737cf213f673cf012103ef25320854652822c752831f8c4f5d28976fb82ee2c9bc14af49b2b385a9653501402babd8afb5dba022967b071762898f5934edd05ca5a0d15bcc1c7cd3bfdf137c25086ed1c09e2fedfd4fdb99971ea7677e9be7e4edadf0a7103336d6aca478b900000000"
}