{
  "txid": "0791e8bb1bf90039eae6e473095074f0d01a5394c7d09fa3c71fe9b6fcaf5d99",
  "version": 1,
  "locktime": 0,
  "vin": [
    {
      "txid": "1391f8eec361d20dcef84532430ddfab7936c8fa364df19caa36507cf8e81632",
      "vout": 1,
      "prevout": {
        "scriptpubkey": "0020e793647cd6aad65713d7453048b491d6e91d192e09a139fa8232d48534cb6168",
        "scriptpubkey_asm": "OP_0 OP_PUSHBYTES_32 e793647cd6aad65713d7453048b491d6e91d192e09a139fa8232d48534cb6168",
        "scriptpubkey_type": "v0_p2wsh",
        "scriptpubkey_address": "bc1qu7fkglxk4tt9wy7hg5cy3dy36m536xfwpxsnn75zxt2g2dxtv95quyscle",
        "value": 692897
      },
      "scriptsig": "",
      "scriptsig_asm": "",
      "witness": [
        "3827722068042e0f56d63155fb7dfd1cc3b1f31720b7e678394ab5bd6590b359",
        "304502210099cc3528313abad98d0e71e0967ee4051181fc2feb0effda88ac546f91d2254302203b6aaa9d2a96a4b68fdd97f0554b2102accd3e4bbdfe56139aa8d758152c8b1001",
        "21033f873713e8155a9a79d76d17b9e74933f11a19621feddf5caa575a0431ab00177c2102930af0d3a8e71e638f7fd90658acedd943c9f5e2d5c768a96c599ef8444a950aac637c76a91494b2217e1763f7f037144b86b70dfd8c4b726ddc876375677cac686702f003b275ad76a9143f1bc028ae7d00a079b4c65d35df8719e9cbd95b88ac68"
      ],
      "is_coinbase": false,
      "sequence": 4294967293,
      "inner_witnessscript_asm": "OP_PUSHBYTES_33 033f873713e8155a9a79d76d17b9e74933f11a19621feddf5caa575a0431ab0017 OP_SWAP OP_PUSHBYTES_33 02930af0d3a8e71e638f7fd90658acedd943c9f5e2d5c768a96c599ef8444a950a OP_CHECKSIG OP_IF OP_SWAP OP_DUP OP_HASH160 OP_PUSHBYTES_20 94b2217e1763f7f037144b86b70dfd8c4b726ddc OP_EQUAL OP_IF OP_DROP OP_ELSE OP_SWAP OP_CHECKSIG OP_ENDIF OP_ELSE OP_PUSHBYTES_2 f003 OP_CSV OP_DROP OP_CHECKSIGVERIFY OP_DUP OP_HASH160 OP_PUSHBYTES_20 3f1bc028ae7d00a079b4c65d35df8719e9cbd95b OP_EQUALVERIFY OP_CHECKSIG OP_ENDIF"
    }
  ],
  "vout": [
    {
      "scriptpubkey": "00149fbd398ca3edf3a08b1e282c301c5612b00a2e1e",
      "scriptpubkey_asm": "OP_0 OP_PUSHBYTES_20 9fbd398ca3edf3a08b1e282c301c5612b00a2e1e",
      "scriptpubkey_type": "v0_p2wpkh",
      "scriptpubkey_address": "bc1qn77nnr9rahe6pzc79qkrq8zkz2cq5ts77um3tn",
      "value": 690561
    }
  ],
  "size": 327,
  "weight": 573,
  "fee": 2336,
  "status": {
    "confirmed": true,
    "block_height": 834460,
    "block_hash": "00000000000000000000484a79b643b2524bbce82e5d8a442013fa5b8905ed98",
    "block_time": 1710307468
  },
  "hex": "010000000001013216e8f87c5036aa9cf14d36fac83679abdf0d433245f8ce0dd261c3eef891130100000000fdffffff0181890a00000000001600149fbd398ca3edf3a08b1e282c301c5612b00a2e1e03203827722068042e0f56d63155fb7dfd1cc3b1f31720b7e678394ab5bd6590b35948304502210099cc3528313abad98d0e71e0967ee4051181fc2feb0effda88ac546f91d2254302203b6aaa9d2a96a4b68fdd97f0554b2102accd3e4bbdfe56139aa8d758152c8b10018721033f873713e8155a9a79d76d17b9e74933f11a19621feddf5caa575a0431ab00177c2102930af0d3a8e71e638f7fd90658acedd943c9f5e2d5c768a96c599ef8444a950aac637c76a91494b2217e1763f7f037144b86b70dfd8c4b726ddc876375677cac686702f003b275ad76a9143f1bc028ae7d00a079b4c65d35df8719e9cbd95b88ac6800000000"
}