{
  "txid": "07aa11bdcc83c04d7e5607c67bc8c9049fd86a29b4a92787c03501b4f16913f5",
  "version": 2,
  "locktime": 0,
  "vin": [
    {
      "txid": "c4a61bc317e420ad35d00fdfbf4b5f80786d366e33118531e2e5abe12fdce853",
      "vout": 1,
      "prevout": {
        "scriptpubkey": "001446ad581e24592a0b1786a1ed4d148be452b97635",
        "scriptpubkey_asm": "OP_0 OP_PUSHBYTES_20 46ad581e24592a0b1786a1ed4d148be452b97635",
        "scriptpubkey_type": "v0_p2wpkh",
        "scriptpubkey_address": "bc1qg6k4s83yty4qk9ux58k569ytu3ftja34rlmucy",
        "value": 313814
      },
      "scriptsig": "",
      "scriptsig_asm": "",
      "witness": [
        "304402200d21b498d7c638e71f2c353f4d93d5a19556fe96b62a6b1d02e930a35d71e26a022003cf148efd8fa2ed475a8833523aa52fd27cfc5364ef6afe9697d85dd70806b101",
        "020dbc55d7be9f7e966745d6864b72718869d3c6dcba4aab61a9cfdcf71ea97e70"
      ],
      "is_coinbase": false,
      "sequence": 4294967293
    }
  ],
  "vout": [
    {
      "scriptpubkey": "001469da2b028963b579d8cd7beea2e68653b259204d",
      "scriptpubkey_asm": "OP_0 OP_PUSHBYTES_20 69da2b028963b579d8cd7beea2e68653b259204d",
      "scriptpubkey_type": "v0_p2wpkh",
      "scriptpubkey_address": "bc1qd8dzkq5fvw6hnkxd00h29e5x2we9jgzd02lnf4",
      "value": 195689
    },
    {
      "scriptpubkey": "76a914caeb13448a8a75079207f5b690ef8455545ccf5188ac",
      "scriptpubkey_asm": "OP_DUP OP_HASH160 OP_PUSHBYTES_20 caeb13448a8a75079207f5b690ef8455545ccf51 OP_EQUALVERIFY OP_CHECKSIG",
      "scriptpubkey_type": "p2pkh",
      "scriptpubkey_address": "1KVw74oFLQxqMoM4MwHL4cztdZZJU664Ei",
      "value": 113125
    }
  ],
  "size": 225,
  "weight": 573,
  "fee": 5000,
  "status": {
    "confirmed": true,
    "block_height": 834638,
    "block_hash": "000000000000000000025f742c626208ac87e0b7d15054abb4a19ca2d735a54e",
    "block_time": 1710405325
  },
  "hex": "0200000000010153e8dc2fe1abe5e2318511336e366d78805f4bbfdf0fd035ad20e417c31ba6c40100000000fdffffff0269fc02000000000016001469da2b028963b579d8cd7beea2e68653b259204de5b90100000000001976a914caeb13448a8a75079207f5b690ef8455545ccf5188ac0247304402200d21b498d7c638e71f2c353f4d93d5a19556fe96b62a6b1d02e930a35d71e26a022003cf148efd8fa2ed475a8833523aa52fd27cfc5364ef6afe9697d85dd70806b10121020dbc55d7be9f7e966745d6864b72718869d3c6dcba4aab61a9cfdcf71ea97e7000000000"
}