{
  "txid": "07aef103947cdc614bc11b138fffb9dcae3f20329a465734f5ab55e7441b245b",
  "version": 2,
  "locktime": 0,
  "vin": [
    {
      "txid": "e835c4d922fbed17c48b3bb466ba1ffc020ede84c1303bdb67ca1f883dd615bb",
      "vout": 16,
      "prevout": {
        "scriptpubkey": "5120daba40ec8017c825ba8c5cfabd30df52af163e167b3257d9a22c65ae9126e953",
        "scriptpubkey_asm": "OP_PUSHNUM_1 OP_PUSHBYTES_32 daba40ec8017c825ba8c5cfabd30df52af163e167b3257d9a22c65ae9126e953",
        "scriptpubkey_type": "v1_p2tr",
        "scriptpubkey_address": "bc1pm2aypmyqzlyztw5vtnat6vxl22h3v0sk0ve90kdz93j6ayfxa9fsynx8vw",
        "value": 3248
      },
      "scriptsig": "",
      "scriptsig_asm": "",
      "witness": [
        "1640fc0cd1b0c05fb65f4a8512d4af9b368f7e1b1d64e8d4f2839664dfeb34171a7189e3888ee283a57751d8023398173fa850526e353bfb246e94800364b27b",
        "20d8d070ce0d4017d67e066d9b024f28506b25f0c70275be7fe6651dee28565cbeac0063036f726401011e6170706c69636174696f6e2f6a736f6e3b636861727365743d7574662d38004cd37b2270223a22706f772d3230222c226f70223a226d696e74222c227469636b223a2250455045222c22616d74223a2231303030222c22736f6c7574696f6e223a22504550453a626331703378336875706e76383064666366666c34333367327a3776713378706c63673364666d79716365336d6c6d6e78397767753872717265763032653a303030303030303030303030303030303030303139393431613561653132383937363539383134343239323533333030353762306461393666336465613163353a3630333839393139343233227d68",
        "c0bf69a78b1b6433fca38fda21525e43a6c565682ca08e513a8f66feb668723930"
      ],
      "is_coinbase": false,
      "sequence": 4294967295
    }
  ],
  "vout": [
    {
      "scriptpubkey": "512089a37e066c3bda9c253fac62850bcc044c1fe1116a76406331dff73315c8e1c6",
      "scriptpubkey_asm": "OP_PUSHNUM_1 OP_PUSHBYTES_32 89a37e066c3bda9c253fac62850bcc044c1fe1116a76406331dff73315c8e1c6",
      "scriptpubkey_type": "v1_p2tr",
      "scriptpubkey_address": "bc1p3x3hupnv80dfcffl433g2z7vq3xplcg3dfmyqce3mlmnx9wgu8rqrev02e",
      "value": 546
    }
  ],
  "size": 487,
  "weight": 769,
  "fee": 2702,
  "status": {
    "confirmed": true,
    "block_height": 834460,
    "block_hash": "00000000000000000000484a79b643b2524bbce82e5d8a442013fa5b8905ed98",
    "block_time": 1710307468
  },
  "hex": "02000000000101bb15d63d881fca67db3b30c184de0e02fc1fba66b43b8bc417edfb22d9c435e81000000000ffffffff01220200000000000022512089a37e066c3bda9c253fac62850bcc044c1fe1116a76406331dff73315c8e1c603401640fc0cd1b0c05fb65f4a8512d4af9b368f7e1b1d64e8d4f2839664dfeb34171a7189e3888ee283a57751d8023398173fa850526e353bfb246e94800364b27bfd200120d8d070ce0d4017d67e066d9b024f28506b25f0c70275be7fe6651dee28565cbeac0063036f726401011e6170706c69636174696f6e2f6a736f6e3b636861727365743d7574662d38004cd37b2270223a22706f772d3230222c226f70223a226d696e74222c227469636b223a2250455045222c22616d74223a2231303030222c22736f6c7574696f6e223a22504550453a626331703378336875706e76383064666366666c34333367327a3776713378706c63673364666d79716365336d6c6d6e78397767753872717265763032653a303030303030303030303030303030303030303139393431613561653132383937363539383134343239323533333030353762306461393666336465613163353a3630333839393139343233227d6821c0bf69a78b1b6433fca38fda21525e43a6c565682ca08e513a8f66feb66872393000000000"
}