{
  "txid": "07b26af043c8ff5803af941fccb8380826f0b131c77ad3ebe13b7f1cc7227a4f",
  "version": 2,
  "locktime": 0,
  "vin": [
    {
      "txid": "12848a1f84ad552475e874cce291926f292412de23b7537898e98c7370f2e86c",
      "vout": 17,
      "prevout": {
        "scriptpubkey": "5120bf4217ec1827c84737d53ddaafb6cf9eca1b0c9c889a44bb6fb3bf789776e1a0",
        "scriptpubkey_asm": "OP_PUSHNUM_1 OP_PUSHBYTES_32 bf4217ec1827c84737d53ddaafb6cf9eca1b0c9c889a44bb6fb3bf789776e1a0",
        "scriptpubkey_type": "v1_p2tr",
        "scriptpubkey_address": "bc1phapp0mqcylyywd748hd2ldk0nm9pkryu3zdyfwm0kwlh39mkuxsq87ke4r",
        "value": 2358
      },
      "scriptsig": "",
      "scriptsig_asm": "",
      "witness": [
        "5314e8304baffc96b4c50f7a124fc43c5fa5f1f09226ee8f8bf2e056249dad9f544594177cacdd37f1bbaa7b4dd4e180101fba2e550ad992a011de59b47f5aaf",
        "208b05c45f1460179a98c181149ead50e2dcb91400888e8c771d6abf7fbd9b36eeac0063036f7264010118746578742f706c61696e3b636861727365743d7574662d3800377b2270223a226272632d3230222c226f70223a226d696e74222c227469636b223a22424f424f222c22616d74223a22313030303030227d68",
        "c0507504f881a2548efcb0bd8b5287fd78c473d5bd35b181abdd5c5cd6d10de204"
      ],
      "is_coinbase": false,
      "sequence": 4294967295
    }
  ],
  "vout": [
    {
      "scriptpubkey": "512048d62e6aa4ce9b4b4d760b1dc0c3e46b46d84be76ae456792a664139e7aaa19c",
      "scriptpubkey_asm": "OP_PUSHNUM_1 OP_PUSHBYTES_32 48d62e6aa4ce9b4b4d760b1dc0c3e46b46d84be76ae456792a664139e7aaa19c",
      "scriptpubkey_type": "v1_p2tr",
      "scriptpubkey_address": "bc1pfrtzu64ye6d5kntkpvwupslyddrdsjl8dtj9v7f2veqnnea25xwqu8ycu4",
      "value": 546
    }
  ],
  "size": 322,
  "weight": 604,
  "fee": 1812,
  "status": {
    "confirmed": true,
    "block_height": 834460,
    "block_hash": "00000000000000000000484a79b643b2524bbce82e5d8a442013fa5b8905ed98",
    "block_time": 1710307468
  },
  "hex": "020000000001016ce8f270738ce9987853b723de1224296f9291e2cc74e8752455ad841f8a84121100000000ffffffff01220200000000000022512048d62e6aa4ce9b4b4d760b1dc0c3e46b46d84be76ae456792a664139e7aaa19c03405314e8304baffc96b4c50f7a124fc43c5fa5f1f09226ee8f8bf2e056249dad9f544594177cacdd37f1bbaa7b4dd4e180101fba2e550ad992a011de59b47f5aaf7d208b05c45f1460179a98c181149ead50e2dcb91400888e8c771d6abf7fbd9b36eeac0063036f7264010118746578742f706c61696e3b636861727365743d7574662d3800377b2270223a226272632d3230222c226f70223a226d696e74222c227469636b223a22424f424f222c22616d74223a22313030303030227d6821c0507504f881a2548efcb0bd8b5287fd78c473d5bd35b181abdd5c5cd6d10de20400000000"
}