{
  "txid": "07b47665c77f8824b7d254ec23f9557cc602ecc448f6f441875f1070e631616f",
  "version": 2,
  "locktime": 0,
  "vin": [
    {
      "txid": "c97958327f07d177d53a635191f7f63d669ad49fa1fd9f9d7f491ded7a806323",
      "vout": 1,
      "prevout": {
        "scriptpubkey": "001480b76ccd54e23baa8de32587180d09bfb8014f64",
        "scriptpubkey_asm": "OP_0 OP_PUSHBYTES_20 80b76ccd54e23baa8de32587180d09bfb8014f64",
        "scriptpubkey_type": "v0_p2wpkh",
        "scriptpubkey_address": "bc1qszmken25uga64r0rykr3srgfh7uqznmyu55dgs",
        "value": 777574
      },
      "scriptsig": "",
      "scriptsig_asm": "",
      "witness": [
        "30450221009a562f311f44838f3064a3eec7c05c545c2c96e858e46c4c5b25072a9628e3320220092e80b8abec073c554d1d8d5cdb2cce1b60e8d978f14b41ec37ace0ac3a0ebd01",
        "023ae88666299bb3ae46b35dd120a75c36a3c1c360a0b0540829736dfa2fd1709f"
      ],
      "is_coinbase": false,
      "sequence": 4294967295
    }
  ],
  "vout": [
    {
      "scriptpubkey": "001480b76ccd54e23baa8de32587180d09bfb8014f64",
      "scriptpubkey_asm": "OP_0 OP_PUSHBYTES_20 80b76ccd54e23baa8de32587180d09bfb8014f64",
      "scriptpubkey_type": "v0_p2wpkh",
      "scriptpubkey_address": "bc1qszmken25uga64r0rykr3srgfh7uqznmyu55dgs",
      "value": 758286
    },
    {
      "scriptpubkey": "001484db08e26d6cd84651c2e06146d5de562cf1f0b2",
      "scriptpubkey_asm": "OP_0 OP_PUSHBYTES_20 84db08e26d6cd84651c2e06146d5de562cf1f0b2",
      "scriptpubkey_type": "v0_p2wpkh",
      "scriptpubkey_address": "bc1qsnds3cnddnvyv5wzups5d4w72ck0ru9jste2fh",
      "value": 13665
    }
  ],
  "size": 223,
  "weight": 562,
  "fee": 5623,
  "status": {
    "confirmed": true,
    "block_height": 834552,
    "block_hash": "00000000000000000001dd0468a70c94f619251d286585cff57aeb4bd9ede330",
    "block_time": 1710355598
  },
  "hex": "020000000001012363807aed1d497f9d9ffda19fd49a663df6f79151633ad577d1077f325879c90100000000ffffffff020e920b000000000016001480b76ccd54e23baa8de32587180d09bfb8014f64613500000000000016001484db08e26d6cd84651c2e06146d5de562cf1f0b2024830450221009a562f311f44838f3064a3eec7c05c545c2c96e858e46c4c5b25072a9628e3320220092e80b8abec073c554d1d8d5cdb2cce1b60e8d978f14b41ec37ace0ac3a0ebd0121023ae88666299bb3ae46b35dd120a75c36a3c1c360a0b0540829736dfa2fd1709f00000000"
}