{
  "txid": "07ba955a174bb7c67a8f42504fa287db7c0ba1ca9783ba039ae174bc80017564",
  "version": 2,
  "locktime": 0,
  "vin": [
    {
      "txid": "f4e0db0b2f387f3b6717e796f0ed835ef4f5adb68513501b62b1a78552b28368",
      "vout": 0,
      "prevout": {
        "scriptpubkey": "0014794d64b5748cea0935c2e448edbe1b032e42d7d0",
        "scriptpubkey_asm": "OP_0 OP_PUSHBYTES_20 794d64b5748cea0935c2e448edbe1b032e42d7d0",
        "scriptpubkey_type": "v0_p2wpkh",
        "scriptpubkey_address": "bc1q09xkfdt53n4qjdwzu3ywm0smqvhy947stm8tq7",
        "value": 560974
      },
      "scriptsig": "",
      "scriptsig_asm": "",
      "witness": [
        "3045022100bc30c772e978e1cf9d1933511ae610f402615ed93a1bdde72cb2616b6562a9610220295515812fe1bad242a55557c17044e0285785fd769b50a9ec47e22921a385e101",
        "03ec28765bad5487c41b5a23140bab8dfe689bd603827437aa45730a098f3746ba"
      ],
      "is_coinbase": false,
      "sequence": 4294967295
    },
    {
      "txid": "8a0356c51d45244c082db695b947790372a5892e7f2d07d13a3e94f152c423da",
      "vout": 0,
      "prevout": {
        "scriptpubkey": "0014794d64b5748cea0935c2e448edbe1b032e42d7d0",
        "scriptpubkey_asm": "OP_0 OP_PUSHBYTES_20 794d64b5748cea0935c2e448edbe1b032e42d7d0",
        "scriptpubkey_type": "v0_p2wpkh",
        "scriptpubkey_address": "bc1q09xkfdt53n4qjdwzu3ywm0smqvhy947stm8tq7",
        "value": 428566
      },
      "scriptsig": "",
      "scriptsig_asm": "",
      "witness": [
        "30440220690c3ecc8da783dfb7568e07edbd5b1d2a6688228cd420f3663aea3e857fd38202204d91a5e847c90ac83ddee0b602f2496217f67569ec61f35966780e4a1177670801",
        "03ec28765bad5487c41b5a23140bab8dfe689bd603827437aa45730a098f3746ba"
      ],
      "is_coinbase": false,
      "sequence": 4294967295
    },
    {
      "txid": "65a0821556214d0ef9f251824326312c58eaa4bcd743e21e4a92f9f968d1d1f4",
      "vout": 0,
      "prevout": {
        "scriptpubkey": "0014794d64b5748cea0935c2e448edbe1b032e42d7d0",
        "scriptpubkey_asm": "OP_0 OP_PUSHBYTES_20 794d64b5748cea0935c2e448edbe1b032e42d7d0",
        "scriptpubkey_type": "v0_p2wpkh",
        "scriptpubkey_address": "bc1q09xkfdt53n4qjdwzu3ywm0smqvhy947stm8tq7",
        "value": 638409
      },
      "scriptsig": "",
      "scriptsig_asm": "",
      "witness": [
        "304402204b5c887c3670d67d2978e34b8695ba722a211765ab1394223e569bf51f4b453f02205e8cd06cb535c1d1d14ae05bdb59182e5327a1f55094af35d69137d05d41dca701",
        "03ec28765bad5487c41b5a23140bab8dfe689bd603827437aa45730a098f3746ba"
      ],
      "is_coinbase": false,
      "sequence": 4294967295
    },
    {
      "txid": "e58036ea92682996dba094acdabd3ba4f34086d7d7e281ec0cf4f7af40948d8d",
      "vout": 0,
      "prevout": {
        "scriptpubkey": "0014794d64b5748cea0935c2e448edbe1b032e42d7d0",
        "scriptpubkey_asm": "OP_0 OP_PUSHBYTES_20 794d64b5748cea0935c2e448edbe1b032e42d7d0",
        "scriptpubkey_type": "v0_p2wpkh",
        "scriptpubkey_address": "bc1q09xkfdt53n4qjdwzu3ywm0smqvhy947stm8tq7",
        "value": 154822
      },
      "scriptsig": "",
      "scriptsig_asm": "",
      "witness": [
        "3044022013f5dd6025ddf6bca8ccce630afcdf5e43844381f37396193d97da534f2a2eb9022016b922d4f4cb3dc08f24231123949aa12e264ea538e5c4dbbe3a3993619cd30601",
        "03ec28765bad5487c41b5a23140bab8dfe689bd603827437aa45730a098f3746ba"
      ],
      "is_coinbase": false,
      "sequence": 4294967295
    },
    {
      "txid": "8dbe915e47bfd0879df24af60c7f43901cdfe789f0e26e3af7ef79319adc8d94",
      "vout": 0,
      "prevout": {
        "scriptpubkey": "0014794d64b5748cea0935c2e448edbe1b032e42d7d0",
        "scriptpubkey_asm": "OP_0 OP_PUSHBYTES_20 794d64b5748cea0935c2e448edbe1b032e42d7d0",
        "scriptpubkey_type": "v0_p2wpkh",
        "scriptpubkey_address": "bc1q09xkfdt53n4qjdwzu3ywm0smqvhy947stm8tq7",
        "value": 155462
      },
      "scriptsig": "",
      "scriptsig_asm": "",
      "witness": [
        "304502210083ec3589e640a6f622fd6efa64f52cebceeab02ac9f59ff164c5147e9a1235a1022050e08ddc6262378dd99b7b49300a6213758f9b323111aa9d6b5fe3341c5e3e2601",
        "03ec28765bad5487c41b5a23140bab8dfe689bd603827437aa45730a098f3746ba"
      ],
      "is_coinbase": false,
      "sequence": 4294967295
    },
    {
      "txid": "466b88dd3b559ad5b9fa9e21ce680affd5cb1c1fa64a966a900f738ff4d6292b",
      "vout": 0,
      "prevout": {
        "scriptpubkey": "0014794d64b5748cea0935c2e448edbe1b032e42d7d0",
        "scriptpubkey_asm": "OP_0 OP_PUSHBYTES_20 794d64b5748cea0935c2e448edbe1b032e42d7d0",
        "scriptpubkey_type": "v0_p2wpkh",
        "scriptpubkey_address": "bc1q09xkfdt53n4qjdwzu3ywm0smqvhy947stm8tq7",
        "value": 283822
      },
      "scriptsig": "",
      "scriptsig_asm": "",
      "witness": [
        "30440220673c7cd722b0b6cde91c5e45bd3e0eb6b8596b5c8c04fa6186716c9078fca28402203908e72e08faeead4949ede4479f68884dfb0aae48d2dcc3c4175aa98385007601",
        "03ec28765bad5487c41b5a23140bab8dfe689bd603827437aa45730a098f3746ba"
      ],
      "is_coinbase": false,
      "sequence": 4294967295
    }
  ],
  "vout": [
    {
      "scriptpubkey": "76a914a9d303e73d0665965cd09e54c05b23731650900288ac",
      "scriptpubkey_asm": "OP_DUP OP_HASH160 OP_PUSHBYTES_20 a9d303e73d0665965cd09e54c05b237316509002 OP_EQUALVERIFY OP_CHECKSIG",
      "scriptpubkey_type": "p2pkh",
      "scriptpubkey_address": "1GUwz1uyrWHNfmG9DCcZaGoULxNwTs8aun",
      "value": 2214762
    }
  ],
  "size": 936,
  "weight": 1806,
  "fee": 7293,
  "status": {
    "confirmed": true,
    "block_height": 834638,
    "block_hash": "000000000000000000025f742c626208ac87e0b7d15054abb4a19ca2d735a54e",
    "block_time": 1710405325
  },
  "hex": "020000000001066883b25285a7b1621b501385b6adf5f45e83edf096e717673b7f382f0bdbe0f40000000000ffffffffda23c452f1943e3ad1072d7f2e89a572037947b995b62d084c24451dc556038a0000000000fffffffff4d1d168f9f9924a1ee243d7bca4ea582c3126438251f2f90e4d21561582a0650000000000ffffffff8d8d9440aff7f40cec81e2d7d78640f3a43bbddaac94a0db96296892ea3680e50000000000ffffffff948ddc9a3179eff73a6ee2f089e7df1c90437f0cf64af29d87d0bf475e91be8d0000000000ffffffff2b29d6f48f730f906a964aa61f1ccbd5ff0a68ce219efab9d59a553bdd886b460000000000ffffffff016acb2100000000001976a914a9d303e73d0665965cd09e54c05b23731650900288ac02483045022100bc30c772e978e1cf9d1933511ae610f402615ed93a1bdde72cb2616b6562a9610220295515812fe1bad242a55557c17044e0285785fd769b50a9ec47e22921a385e1012103ec28765bad5487c41b5a23140bab8dfe689bd603827437aa45730a098f3746ba024730440220690c3ecc8da783dfb7568e07edbd5b1d2a6688228cd420f3663aea3e857fd38202204d91a5e847c90ac83ddee0b602f2496217f67569ec61f35966780e4a11776708012103ec28765bad5487c41b5a23140bab8dfe689bd603827437aa45730a098f3746ba0247304402204b5c887c3670d67d2978e34b8695ba722a211765ab1394223e569bf51f4b453f02205e8cd06cb535c1d1d14ae05bdb59182e5327a1f55094af35d69137d05d41dca7012103ec28765bad5487c41b5a23140bab8dfe689bd603827437aa45730a098f3746ba02473044022013f5dd6025ddf6bca8ccce630afcdf5e43844381f37396193d97da534f2a2eb9022016b922d4f4cb3dc08f24231123949aa12e264ea538e5c4dbbe3a3993619cd306012103ec28765bad5487c41b5a23140bab8dfe689bd603827437aa45730a098f3746ba0248304502210083ec3589e640a6f622fd6efa64f52cebceeab02ac9f59ff164c5147e9a1235a1022050e08ddc6262378dd99b7b49300a6213758f9b323111aa9d6b5fe3341c5e3e26012103ec28765bad5487c41b5a23140bab8dfe689bd603827437aa45730a098f3746ba024730440220673c7cd722b0b6cde91c5e45bd3e0eb6b8596b5c8c04fa6186716c9078fca28402203908e72e08faeead4949ede4479f68884dfb0aae48d2dcc3c4175aa983850076012103ec28765bad5487c41b5a23140bab8dfe689bd603827437aa45730a098f3746ba00000000"
}