{
  "txid": "07bd8ed721506e4eae7f636032175d512b48acaf848a13795000a42a21369ca9",
  "version": 2,
  "locktime": 0,
  "vin": [
    {
      "txid": "dcb092f8b2b41d9553fb5c5cd354bf7dd946d7486e20cc71fd779086105056a9",
      "vout": 0,
      "prevout": {
        "scriptpubkey": "5120136f7f230715737faf4fabd1c5c2ce427004e0d9488a79cb7578cf91fabaf748",
        "scriptpubkey_asm": "OP_PUSHNUM_1 OP_PUSHBYTES_32 136f7f230715737faf4fabd1c5c2ce427004e0d9488a79cb7578cf91fabaf748",
        "scriptpubkey_type": "v1_p2tr",
        "scriptpubkey_address": "bc1pzdhh7gc8z4ehlt6040gutskwgfcqfcxefz98njm40r8er7467ayqj02wl9",
        "value": 21654
      },
      "scriptsig": "",
      "scriptsig_asm": "",
      "witness": [
        "84f5317f8df05e3bcaabd1691d4697e9308e091e2ab20ec20e3a5a927791d870f6a767abd5a53db60f8d5897c903e8b6549331b26b17817698a8aa8aac069676",
        "20f2d00e1cce0b839d2e197679cac7a15152ec244338032c7767f72c1332d49a65ac0063036f726401010a696d6167652f6a706567004d0802ffd8ffe000104a46494600010100000100010000ffe201d84943435f50524f46494c45000101000001c800000000043000006d6e74725247422058595a2007e00001000100000000000061637370000000000000000000000000000000000000000000000000000000010000f6d6000100000000d32d0000000000000000000000000000000000000000000000000000000000000000000000000000000000000000000000000000000964657363000000f0000000247258595a00000114000000146758595a00000128000000146258595a0000013c00000014777470740000015000000014725452430000016400000028675452430000016400000028625452430000016400000028637072740000018c0000003c6d6c756300000000000000010000000c656e5553000000080000001c007300520047004258595a200000000000006fa2000038f50000039058595a2000000000000062990000b785000018da58595a2000000000000024a000000f840000b6cf58595a20000000000000f6d6000100000000d32d706172610000000000040000000266660000f2a700000d59000013d000000a5b00000000000000006d6c756300000000000000010000000c656e5553000000200000001c0047006f006f0067006c006500200049006e0063002e00200032003000310036ffdb0043000302020302020303030304030304050805050404054d08020a070706080c0a0c0c0b0a0b0b0d0e12100d0e110e0b0b1016101113141515150c0f171816141812141514ffdb00430103040405040509050509140d0b0d1414141414141414141414141414141414141414141414141414141414141414141414141414141414141414141414141414ffc00011080200020003012200021101031101ffc400190001010101010100000000000000000000000708090a06ffc40014100100000000000000000000000000000000ffc4001b01010101010101010100000000000000000007050806040902ffc40014110100000000000000000000000000000000ffda000c03010002110311003f00e5500000000000000000000000000000000000000000000000000000000000000000000000000000000000000000000000000000000000000000000000000000000000000000000000000000000000000000000000000000000000000000000000000000000000000000000000000000000000000000000000000000000000000000000000000000000000000000000000000000000000000000000000000000000000000000000000000000000000000000000000000000000000000000000000000000000000000000000000000000000000000000000000000000000000000000000000000000000000000000000000000000000000000000000000000000000000000000000000000000000000000000004d080200000000000000000000000000000000000000000000000000000000000000000000000000000000000000000000000000000000000000000000000000000000000000000000000000000000000000000000000000000000000000000000000000000000000000000000000000000000000000000000000000000000000000000000000000000000000000000000000000000000000000000000000000000000000000000000000000000000000000000000000000000000000000000000000000000000000000000000000000000000000000000000000000000000000000dd0027eee5000000000000000000000000617014070d00000000000000000000000000000000000000000000000000000000000035100f24ea000051806628acbe0286e170007d50000000000000000000000008680fe1fd8000000000000000000000000000000000000000000002c003115d000000508066a86000a300cc51597c050dc2e000faa0000000000000000000000000010d01fc3fb0000000000000000000000000000000000000000005800622ba000000a100cd50c001460198a2b2f80a1b85c001f540000000000000000000000000021a03f87f6000000000000000000000000000000000000000000b000c457400000142019aa180028c03314565f014370b8003ea80000000000000000000000000043407f0fec00000000000000000000000004d080200000000000000001600188ae80000028403354300051806628aead00bc3f1fc000000000000000000000000001e6f4078774d8000000000000000000000000000000000000000000002c003115d000000508066a86000a300cc515d5a01787e3fb3380f89d4cdfc03ca3e400000000000060101eadf5b7f00f28f90000000000001e55c000000000000000000000000000000000000000005800622ba000a100cd50c001460198a2bb800280e1a00000070fc04fddcafaa01f13d40003b2c029afcf200000070d005f5e09f4a0361f20003b4c039a9487957000000000000000000000000000000000000000001600188ae80028403354300051806628aead00bc3f1fd99c07c4ea66fe01e51f2387e027eee500000077000501c34c0203d5beb6fe01e51f2386802faf04000000ee580813debcab800000000000000000000000000000000000000000b000c457400142019aa180028c033145756805e1f8fecce03e275337f00f28f9000000000000180407ab7d6dfc03ca3e40000000000007957000000000000000000000000000000000000000001600188ae80028403354300051806628aead00bc3f1fc001f60031148000000000000000000000000798d0184a98000000000000000000000000000000000000000000002c003115d000508066a86000a300cc515d5a01787e3f8003ec0062290f3fe0315500000000007a0001b497bcf4d0802f80c55400000000010d01fc3fb0000000000000000000000000000000000000000005800622ba000a100cd50c001460198a2bab402f0fc7f0007d800c4520000000000000000000000001e6340612a6000000000000000000000000000000000000000000000000b000c457542019aa180028c033145756805e1f8fe000fb00188a40000000000000000000000003cc680c254c000000000000000000000000000000000000000000000001600188aea8403354300051806628aead00bc3f1fc001f60031148000000000000000000000000798d0184a98000000000000000000000000000000000000000000000002c003115d508066a86000a300cc515d5a01787e3f800000000000000000383a0258ef8508066a86cba03d6b97c000000000000000000000000000000000000000000000001600188ae80000000000000000000034400f34e88000000000000000000000000000000000617014070d0000000000000000000000000000000002c003115d00000000000000000000068801e69d10000000000000000000000000000000000c2e0280e1a0000000000000000000000000000000005800622ba000000000000000000000d1003cd3a2000000197c050dc2ed400278ee800000000065f014370bb50009e3ba000000185c0501c34000000000000000000000000000000000b000c4574000000000000000000001a20079a744000004cbe032f80a1b85da8004f1dd0000000000cbe0286e176a0013c77400000030b80a03868000000000000000000000000000000001600188ae80000000000000000000034400f34e8800000065f014370bb50009e3ba000000000197c050dc2ed400278ee8000000617014070d0000000000000000000000000000000002c003115d00000000000000000000068801e69d10000000cbe0286e176a0013c77400000000032f80a1b85da8004f1dd0000000c2e0280e1a0000000000000007fffd9680063036f726401011e6170706c69636174696f6e2f6a736f6e3b636861727365743d7574662d38004d4c017b2270223a22766f7264222c2276223a312c227479223a22696e7363222c22636f6c223a2230323336303866343162323735633034313737386331353733383530366633633665336536313539646139333364333761343531373566643833313436666237222c22696964223a224e4f4445205341544f534849222c227075626c223a2231455337623370636a527a4667796969714c7278484b546e43686535364c4a485937222c226e6f6e6365223a333138382c226d696e746572223a22626331716436393036376663677a75366a6c7776657432636b6b32746c3579677177776c3030756e6567222c22736967223a2248437636477a456a775a70546159476b4f6e537037556f7747666377472b356348623476666b6b37594b7a50655a5137582b32582b6b6666585a6e4e4e724c6c4d7a3141455351624f6b5a4c333653456668704f69376f3d227d68",
        "c0f2d00e1cce0b839d2e197679cac7a15152ec244338032c7767f72c1332d49a65675a92934efa5e4869b2432a3e00abfc6819367af43949c2edc693b32d23ac05"
      ],
      "is_coinbase": false,
      "sequence": 4294967293
    }
  ],
  "vout": [
    {
      "scriptpubkey": "00146e8afd793840b9a97dcccad58b594bfd088039df",
      "scriptpubkey_asm": "OP_0 OP_PUSHBYTES_20 6e8afd793840b9a97dcccad58b594bfd088039df",
      "scriptpubkey_type": "v0_p2wpkh",
      "scriptpubkey_address": "bc1qd69067fcgzu6jlwvet2ckk2tl5ygqwwl00uneg",
      "value": 1000
    },
    {
      "scriptpubkey": "5120690fc8b7fefd11506ba7a7176eca71153a3c0390a407d6de8bb6a33aa12dcdf0",
      "scriptpubkey_asm": "OP_PUSHNUM_1 OP_PUSHBYTES_32 690fc8b7fefd11506ba7a7176eca71153a3c0390a407d6de8bb6a33aa12dcdf0",
      "scriptpubkey_type": "v1_p2tr",
      "scriptpubkey_address": "bc1pdy8u3dl7l5g4q6a85utkajn3z5arcqus5sradh5tk63n4gfdehcqryzwum",
      "value": 6705
    },
    {
      "scriptpubkey": "51200705a5767db892e98125775049b1a13dd9ecdc8aea0df413cabbee683e871012",
      "scriptpubkey_asm": "OP_PUSHNUM_1 OP_PUSHBYTES_32 0705a5767db892e98125775049b1a13dd9ecdc8aea0df413cabbee683e871012",
      "scriptpubkey_type": "v1_p2tr",
      "scriptpubkey_address": "bc1pquz62anahzfwnqf9wagynvdp8hv7ehy2agxlgy72h0hxs058zqfqk8ksyq",
      "value": 2817
    }
  ],
  "size": 3543,
  "weight": 4047,
  "fee": 11132,
  "status": {
    "confirmed": true,
    "block_height": 834464,
    "block_hash": "0000000000000000000177a0869a911a2b65c9bdcd5a8bcb02b68f305bee848e",
    "block_time": 1710308296
  },
  "hex": "02000000000101a9565010869077fd71cc206e48d746d97dbf54d35c5cfb53951db4b2f892b0dc0000000000fdffffff03e8030000000000001600146e8afd793840b9a97dcccad58b594bfd088039df311a000000000000225120690fc8b7fefd11506ba7a7176eca71153a3c0390a407d6de8bb6a33aa12dcdf0010b0000000000002251200705a5767db892e98125775049b1a13dd9ecdc8aea0df413cabbee683e871012034084f5317f8df05e3bcaabd1691d4697e9308e091e2ab20ec20e3a5a927791d870f6a767abd5a53db60f8d5897c903e8b6549331b26b17817698a8aa8aac069676fda60c20f2d00e1cce0b839d2e197679cac7a15152ec244338032c7767f72c1332d49a65ac0063036f726401010a696d6167652f6a706567004d0802ffd8ffe000104a46494600010100000100010000ffe201d84943435f50524f46494c45000101000001c800000000043000006d6e74725247422058595a2007e00001000100000000000061637370000000000000000000000000000000000000000000000000000000010000f6d6000100000000d32d0000000000000000000000000000000000000000000000000000000000000000000000000000000000000000000000000000000964657363000000f0000000247258595a00000114000000146758595a00000128000000146258595a0000013c00000014777470740000015000000014725452430000016400000028675452430000016400000028625452430000016400000028637072740000018c0000003c6d6c756300000000000000010000000c656e5553000000080000001c007300520047004258595a200000000000006fa2000038f50000039058595a2000000000000062990000b785000018da58595a2000000000000024a000000f840000b6cf58595a20000000000000f6d6000100000000d32d706172610000000000040000000266660000f2a700000d59000013d000000a5b00000000000000006d6c756300000000000000010000000c656e5553000000200000001c0047006f006f0067006c006500200049006e0063002e00200032003000310036ffdb0043000302020302020303030304030304050805050404054d08020a070706080c0a0c0c0b0a0b0b0d0e12100d0e110e0b0b1016101113141515150c0f171816141812141514ffdb00430103040405040509050509140d0b0d1414141414141414141414141414141414141414141414141414141414141414141414141414141414141414141414141414ffc00011080200020003012200021101031101ffc400190001010101010100000000000000000000000708090a06ffc40014100100000000000000000000000000000000ffc4001b01010101010101010100000000000000000007050806040902ffc40014110100000000000000000000000000000000ffda000c03010002110311003f00e5500000000000000000000000000000000000000000000000000000000000000000000000000000000000000000000000000000000000000000000000000000000000000000000000000000000000000000000000000000000000000000000000000000000000000000000000000000000000000000000000000000000000000000000000000000000000000000000000000000000000000000000000000000000000000000000000000000000000000000000000000000000000000000000000000000000000000000000000000000000000000000000000000000000000000000000000000000000000000000000000000000000000000000000000000000000000000000000000000000000000000000004d080200000000000000000000000000000000000000000000000000000000000000000000000000000000000000000000000000000000000000000000000000000000000000000000000000000000000000000000000000000000000000000000000000000000000000000000000000000000000000000000000000000000000000000000000000000000000000000000000000000000000000000000000000000000000000000000000000000000000000000000000000000000000000000000000000000000000000000000000000000000000000000000000000000000000000dd0027eee5000000000000000000000000617014070d00000000000000000000000000000000000000000000000000000000000035100f24ea000051806628acbe0286e170007d50000000000000000000000008680fe1fd8000000000000000000000000000000000000000000002c003115d000000508066a86000a300cc51597c050dc2e000faa0000000000000000000000000010d01fc3fb0000000000000000000000000000000000000000005800622ba000000a100cd50c001460198a2b2f80a1b85c001f540000000000000000000000000021a03f87f6000000000000000000000000000000000000000000b000c457400000142019aa180028c03314565f014370b8003ea80000000000000000000000000043407f0fec00000000000000000000000004d080200000000000000001600188ae80000028403354300051806628aead00bc3f1fc000000000000000000000000001e6f4078774d8000000000000000000000000000000000000000000002c003115d000000508066a86000a300cc515d5a01787e3fb3380f89d4cdfc03ca3e400000000000060101eadf5b7f00f28f90000000000001e55c000000000000000000000000000000000000000005800622ba000a100cd50c001460198a2bb800280e1a00000070fc04fddcafaa01f13d40003b2c029afcf200000070d005f5e09f4a0361f20003b4c039a9487957000000000000000000000000000000000000000001600188ae80028403354300051806628aead00bc3f1fd99c07c4ea66fe01e51f2387e027eee500000077000501c34c0203d5beb6fe01e51f2386802faf04000000ee580813debcab800000000000000000000000000000000000000000b000c457400142019aa180028c033145756805e1f8fecce03e275337f00f28f9000000000000180407ab7d6dfc03ca3e40000000000007957000000000000000000000000000000000000000001600188ae80028403354300051806628aead00bc3f1fc001f60031148000000000000000000000000798d0184a98000000000000000000000000000000000000000000002c003115d000508066a86000a300cc515d5a01787e3f8003ec0062290f3fe0315500000000007a0001b497bcf4d0802f80c55400000000010d01fc3fb0000000000000000000000000000000000000000005800622ba000a100cd50c001460198a2bab402f0fc7f0007d800c4520000000000000000000000001e6340612a6000000000000000000000000000000000000000000000000b000c457542019aa180028c033145756805e1f8fe000fb00188a40000000000000000000000003cc680c254c000000000000000000000000000000000000000000000001600188aea8403354300051806628aead00bc3f1fc001f60031148000000000000000000000000798d0184a98000000000000000000000000000000000000000000000002c003115d508066a86000a300cc515d5a01787e3f800000000000000000383a0258ef8508066a86cba03d6b97c000000000000000000000000000000000000000000000001600188ae80000000000000000000034400f34e88000000000000000000000000000000000617014070d0000000000000000000000000000000002c003115d00000000000000000000068801e69d10000000000000000000000000000000000c2e0280e1a0000000000000000000000000000000005800622ba000000000000000000000d1003cd3a2000000197c050dc2ed400278ee800000000065f014370bb50009e3ba000000185c0501c34000000000000000000000000000000000b000c4574000000000000000000001a20079a744000004cbe032f80a1b85da8004f1dd0000000000cbe0286e176a0013c77400000030b80a03868000000000000000000000000000000001600188ae80000000000000000000034400f34e8800000065f014370bb50009e3ba000000000197c050dc2ed400278ee8000000617014070d0000000000000000000000000000000002c003115d00000000000000000000068801e69d10000000cbe0286e176a0013c77400000000032f80a1b85da8004f1dd0000000c2e0280e1a0000000000000007fffd9680063036f726401011e6170706c69636174696f6e2f6a736f6e3b636861727365743d7574662d38004d4c017b2270223a22766f7264222c2276223a312c227479223a22696e7363222c22636f6c223a2230323336303866343162323735633034313737386331353733383530366633633665336536313539646139333364333761343531373566643833313436666237222c22696964223a224e4f4445205341544f534849222c227075626c223a2231455337623370636a527a4667796969714c7278484b546e43686535364c4a485937222c226e6f6e6365223a333138382c226d696e746572223a22626331716436393036376663677a75366a6c7776657432636b6b32746c3579677177776c3030756e6567222c22736967223a2248437636477a456a775a70546159476b4f6e537037556f7747666377472b356348623476666b6b37594b7a50655a5137582b32582b6b6666585a6e4e4e724c6c4d7a3141455351624f6b5a4c333653456668704f69376f3d227d6841c0f2d00e1cce0b839d2e197679cac7a15152ec244338032c7767f72c1332d49a65675a92934efa5e4869b2432a3e00abfc6819367af43949c2edc693b32d23ac0500000000"
}