{
  "txid": "07d94cdc2da4f04cabe5eda0197b7371599dc4fec2be2033f89ffd4ce38ec8c6",
  "version": 2,
  "locktime": 0,
  "vin": [
    {
      "txid": "7a008fe827ed4382e40e8661077316d54827773f55365e95ebfcd61b3a93bdb6",
      "vout": 1,
      "prevout": {
        "scriptpubkey": "00200e68ad1cb1aa7a4fa63e3424591c902b88a0a641333a09dd9097935424b9c5c3",
        "scriptpubkey_asm": "OP_0 OP_PUSHBYTES_32 0e68ad1cb1aa7a4fa63e3424591c902b88a0a641333a09dd9097935424b9c5c3",
        "scriptpubkey_type": "v0_p2wsh",
        "scriptpubkey_address": "bc1qpe5268934faylf37xsj9j8ys9wy2pfjpxvaqnhvsj7f4gf9echpsgx7qsh",
        "value": 559156
      },
      "scriptsig": "",
      "scriptsig_asm": "",
      "witness": [
        "",
        "3045022100e8fc3ef3d64a0ccb3d6005236231e4b79b7c800a51bb8d9389d6428b273b3fc902203e618a4d4e543344c1dd8fce2d9f3932618b823732fd4f975bcef394e8e048f801",
        "3045022100834228945fd94fc2bafaabf5d83a2d90dd54bbb974389fb5b67dbf2100bceebd02200c33e333cfccf64a8421b07c6580ce2c1e5e72d0da3f5e64e1f009082337b56901",
        "522102022a40a9f4db233d5e14eb9f29b4fcb9bae1874d1b498531791142c482419189210360fcf800d52408582bec746d7d797f2985aa74d50c9086ebf220de1a6da03ca552ae"
      ],
      "is_coinbase": false,
      "sequence": 4294967295,
      "inner_witnessscript_asm": "OP_PUSHNUM_2 OP_PUSHBYTES_33 02022a40a9f4db233d5e14eb9f29b4fcb9bae1874d1b498531791142c482419189 OP_PUSHBYTES_33 0360fcf800d52408582bec746d7d797f2985aa74d50c9086ebf220de1a6da03ca5 OP_PUSHNUM_2 OP_CHECKMULTISIG"
    }
  ],
  "vout": [
    {
      "scriptpubkey": "002016afb4c775270b308fb40d79191e3922661551cd14557f9d1f0bfa6c7a4dcab8",
      "scriptpubkey_asm": "OP_0 OP_PUSHBYTES_32 16afb4c775270b308fb40d79191e3922661551cd14557f9d1f0bfa6c7a4dcab8",
      "scriptpubkey_type": "v0_p2wsh",
      "scriptpubkey_address": "bc1qz6hmf3m4yu9npra5p4u3j83eyfnp25wdz32hl8glp0axc7jde2uqzw8cks",
      "value": 270029
    },
    {
      "scriptpubkey": "0014305141114a9355d9eed58e8b1752efc4f0937320",
      "scriptpubkey_asm": "OP_0 OP_PUSHBYTES_20 305141114a9355d9eed58e8b1752efc4f0937320",
      "scriptpubkey_type": "v0_p2wpkh",
      "scriptpubkey_address": "bc1qxpg5zy22jd2anmk43693w5h0cncfxuequkcjmg",
      "value": 287656
    }
  ],
  "size": 347,
  "weight": 722,
  "fee": 1471,
  "status": {
    "confirmed": true,
    "block_height": 834464,
    "block_hash": "0000000000000000000177a0869a911a2b65c9bdcd5a8bcb02b68f305bee848e",
    "block_time": 1710308296
  },
  "hex": "02000000000101b6bd933a1bd6fceb955e36553f772748d516730761860ee48243ed27e88f007a0100000000ffffffff02cd1e04000000000022002016afb4c775270b308fb40d79191e3922661551cd14557f9d1f0bfa6c7a4dcab8a863040000000000160014305141114a9355d9eed58e8b1752efc4f09373200400483045022100e8fc3ef3d64a0ccb3d6005236231e4b79b7c800a51bb8d9389d6428b273b3fc902203e618a4d4e543344c1dd8fce2d9f3932618b823732fd4f975bcef394e8e048f801483045022100834228945fd94fc2bafaabf5d83a2d90dd54bbb974389fb5b67dbf2100bceebd02200c33e333cfccf64a8421b07c6580ce2c1e5e72d0da3f5e64e1f009082337b5690147522102022a40a9f4db233d5e14eb9f29b4fcb9bae1874d1b498531791142c482419189210360fcf800d52408582bec746d7d797f2985aa74d50c9086ebf220de1a6da03ca552ae00000000"
}