{
  "txid": "07e02720531abb072492de6cc4f9185d0614cba97b6efda2c513cb6ab397798e",
  "version": 2,
  "locktime": 0,
  "vin": [
    {
      "txid": "97c73b403cc94e61e89ac30a7c3d3146927c5ed52dd1f4fd102cb83c436f93f7",
      "vout": 61,
      "prevout": {
        "scriptpubkey": "5120a5344c9ca37c5fc6b3eae6de30602643618ef397c314607d32bb6288f02e2ee0",
        "scriptpubkey_asm": "OP_PUSHNUM_1 OP_PUSHBYTES_32 a5344c9ca37c5fc6b3eae6de30602643618ef397c314607d32bb6288f02e2ee0",
        "scriptpubkey_type": "v1_p2tr",
        "scriptpubkey_address": "bc1p556ye89r030udvl2um0rqcpxgdscauuhcv2xqlfjhd3g3upw9msqy6t255",
        "value": 600
      },
      "scriptsig": "",
      "scriptsig_asm": "",
      "witness": [
        "dbd137ba917c0baa350523ecdc630216d1e300482d23184e97999c50360e56364d8aa911bc84b13f9f976ef47cee109875609d33ecaad79377c17547a3d10958"
      ],
      "is_coinbase": false,
      "sequence": 4294967295
    },
    {
      "txid": "97c73b403cc94e61e89ac30a7c3d3146927c5ed52dd1f4fd102cb83c436f93f7",
      "vout": 58,
      "prevout": {
        "scriptpubkey": "5120a5344c9ca37c5fc6b3eae6de30602643618ef397c314607d32bb6288f02e2ee0",
        "scriptpubkey_asm": "OP_PUSHNUM_1 OP_PUSHBYTES_32 a5344c9ca37c5fc6b3eae6de30602643618ef397c314607d32bb6288f02e2ee0",
        "scriptpubkey_type": "v1_p2tr",
        "scriptpubkey_address": "bc1p556ye89r030udvl2um0rqcpxgdscauuhcv2xqlfjhd3g3upw9msqy6t255",
        "value": 600
      },
      "scriptsig": "",
      "scriptsig_asm": "",
      "witness": [
        "c77f8a407bbf318d387e5558b4c6ba5fa5450bd518a91cfd724a984c0003339b5503dd5a7f59918677eb2ffad825d8c17d62aba2990d25af6f2d2265a92f2ce3"
      ],
      "is_coinbase": false,
      "sequence": 4294967295
    },
    {
      "txid": "97c73b403cc94e61e89ac30a7c3d3146927c5ed52dd1f4fd102cb83c436f93f7",
      "vout": 54,
      "prevout": {
        "scriptpubkey": "5120a5344c9ca37c5fc6b3eae6de30602643618ef397c314607d32bb6288f02e2ee0",
        "scriptpubkey_asm": "OP_PUSHNUM_1 OP_PUSHBYTES_32 a5344c9ca37c5fc6b3eae6de30602643618ef397c314607d32bb6288f02e2ee0",
        "scriptpubkey_type": "v1_p2tr",
        "scriptpubkey_address": "bc1p556ye89r030udvl2um0rqcpxgdscauuhcv2xqlfjhd3g3upw9msqy6t255",
        "value": 600
      },
      "scriptsig": "",
      "scriptsig_asm": "",
      "witness": [
        "e08d8c5c04648b59d2f21a5460356e6ca355a7581a9bbc96d03e57ec017e31d9a6effde4d48b45744385e612a984b12bbe9205a2bc243c081068b3b3f53f1d8f"
      ],
      "is_coinbase": false,
      "sequence": 4294967295
    },
    {
      "txid": "97c73b403cc94e61e89ac30a7c3d3146927c5ed52dd1f4fd102cb83c436f93f7",
      "vout": 56,
      "prevout": {
        "scriptpubkey": "5120a5344c9ca37c5fc6b3eae6de30602643618ef397c314607d32bb6288f02e2ee0",
        "scriptpubkey_asm": "OP_PUSHNUM_1 OP_PUSHBYTES_32 a5344c9ca37c5fc6b3eae6de30602643618ef397c314607d32bb6288f02e2ee0",
        "scriptpubkey_type": "v1_p2tr",
        "scriptpubkey_address": "bc1p556ye89r030udvl2um0rqcpxgdscauuhcv2xqlfjhd3g3upw9msqy6t255",
        "value": 600
      },
      "scriptsig": "",
      "scriptsig_asm": "",
      "witness": [
        "46bd1da25af464d410bd6f8101ec6120b9e3ac4e027bfa48e449412680118baf4d8905b341c40c98692938d082c3cf1b2ef84f6c347714246a7e4b2387f6940c"
      ],
      "is_coinbase": false,
      "sequence": 4294967295
    },
    {
      "txid": "97c73b403cc94e61e89ac30a7c3d3146927c5ed52dd1f4fd102cb83c436f93f7",
      "vout": 47,
      "prevout": {
        "scriptpubkey": "5120a5344c9ca37c5fc6b3eae6de30602643618ef397c314607d32bb6288f02e2ee0",
        "scriptpubkey_asm": "OP_PUSHNUM_1 OP_PUSHBYTES_32 a5344c9ca37c5fc6b3eae6de30602643618ef397c314607d32bb6288f02e2ee0",
        "scriptpubkey_type": "v1_p2tr",
        "scriptpubkey_address": "bc1p556ye89r030udvl2um0rqcpxgdscauuhcv2xqlfjhd3g3upw9msqy6t255",
        "value": 600
      },
      "scriptsig": "",
      "scriptsig_asm": "",
      "witness": [
        "08c98ddbd7a3a99de0f1bbc2f90ae00810d15bcb33df6db0e742c80dd6d85ca81a75ab231fdb3ca7ab682c7d4de03886169b153ab9637409bf720876806b0afb"
      ],
      "is_coinbase": false,
      "sequence": 4294967295
    },
    {
      "txid": "97c73b403cc94e61e89ac30a7c3d3146927c5ed52dd1f4fd102cb83c436f93f7",
      "vout": 49,
      "prevout": {
        "scriptpubkey": "5120a5344c9ca37c5fc6b3eae6de30602643618ef397c314607d32bb6288f02e2ee0",
        "scriptpubkey_asm": "OP_PUSHNUM_1 OP_PUSHBYTES_32 a5344c9ca37c5fc6b3eae6de30602643618ef397c314607d32bb6288f02e2ee0",
        "scriptpubkey_type": "v1_p2tr",
        "scriptpubkey_address": "bc1p556ye89r030udvl2um0rqcpxgdscauuhcv2xqlfjhd3g3upw9msqy6t255",
        "value": 600
      },
      "scriptsig": "",
      "scriptsig_asm": "",
      "witness": [
        "88f4fcf324082d1454829919cf3c7631a5f85ec963e52d2424e5237c8986b97a4dc981d3fca7ff2170ee04a159272e78873b7dc881188d0445f13ffe9fa8f369"
      ],
      "is_coinbase": false,
      "sequence": 4294967295
    },
    {
      "txid": "97c73b403cc94e61e89ac30a7c3d3146927c5ed52dd1f4fd102cb83c436f93f7",
      "vout": 44,
      "prevout": {
        "scriptpubkey": "5120a5344c9ca37c5fc6b3eae6de30602643618ef397c314607d32bb6288f02e2ee0",
        "scriptpubkey_asm": "OP_PUSHNUM_1 OP_PUSHBYTES_32 a5344c9ca37c5fc6b3eae6de30602643618ef397c314607d32bb6288f02e2ee0",
        "scriptpubkey_type": "v1_p2tr",
        "scriptpubkey_address": "bc1p556ye89r030udvl2um0rqcpxgdscauuhcv2xqlfjhd3g3upw9msqy6t255",
        "value": 600
      },
      "scriptsig": "",
      "scriptsig_asm": "",
      "witness": [
        "6081f9fcd25580dc821a0b1cec6a8498fe3cf974c8d7ef2feabfe6e18a9f41563a7522ef1e50831ad47ce02e90e4d035c3ef65e7fcdb7634c042f92a56dff4e3"
      ],
      "is_coinbase": false,
      "sequence": 4294967295
    },
    {
      "txid": "97c73b403cc94e61e89ac30a7c3d3146927c5ed52dd1f4fd102cb83c436f93f7",
      "vout": 59,
      "prevout": {
        "scriptpubkey": "5120a5344c9ca37c5fc6b3eae6de30602643618ef397c314607d32bb6288f02e2ee0",
        "scriptpubkey_asm": "OP_PUSHNUM_1 OP_PUSHBYTES_32 a5344c9ca37c5fc6b3eae6de30602643618ef397c314607d32bb6288f02e2ee0",
        "scriptpubkey_type": "v1_p2tr",
        "scriptpubkey_address": "bc1p556ye89r030udvl2um0rqcpxgdscauuhcv2xqlfjhd3g3upw9msqy6t255",
        "value": 600
      },
      "scriptsig": "",
      "scriptsig_asm": "",
      "witness": [
        "a2c43848b253d95d218cd4c58ddd3a335826734af0acbf5d0819ad58b41e51c9377b12302967d385a44d47615b49e607343067819039b77b769cfe7626f3fbc9"
      ],
      "is_coinbase": false,
      "sequence": 4294967295
    },
    {
      "txid": "4fda19d4f596c02e57d7078c7562b2240ae68821e4937ee5801c7f67f13f1c6b",
      "vout": 5,
      "prevout": {
        "scriptpubkey": "51206759b53d68fe6e65c1c4800f4aabd3cb3197e1eb53c34d4660e005f72cd350d5",
        "scriptpubkey_asm": "OP_PUSHNUM_1 OP_PUSHBYTES_32 6759b53d68fe6e65c1c4800f4aabd3cb3197e1eb53c34d4660e005f72cd350d5",
        "scriptpubkey_type": "v1_p2tr",
        "scriptpubkey_address": "bc1pvavm20tglehxtswysq85427nevce0c0t20p563nquqzlwtxn2r2srrrk3l",
        "value": 546
      },
      "scriptsig": "",
      "scriptsig_asm": "",
      "witness": [
        "1ec809249c706726e9e2f29067d19d07e9f44e576fb8f32437cd03dcc0919e0ef41ca266537a08c424a4ba472fd1fe1235eb0d28d91ee20e1bf50fff39a9488883"
      ],
      "is_coinbase": false,
      "sequence": 4294967295
    },
    {
      "txid": "4fda19d4f596c02e57d7078c7562b2240ae68821e4937ee5801c7f67f13f1c6b",
      "vout": 6,
      "prevout": {
        "scriptpubkey": "51206759b53d68fe6e65c1c4800f4aabd3cb3197e1eb53c34d4660e005f72cd350d5",
        "scriptpubkey_asm": "OP_PUSHNUM_1 OP_PUSHBYTES_32 6759b53d68fe6e65c1c4800f4aabd3cb3197e1eb53c34d4660e005f72cd350d5",
        "scriptpubkey_type": "v1_p2tr",
        "scriptpubkey_address": "bc1pvavm20tglehxtswysq85427nevce0c0t20p563nquqzlwtxn2r2srrrk3l",
        "value": 546
      },
      "scriptsig": "",
      "scriptsig_asm": "",
      "witness": [
        "3cc9ca364c5383e6a31905db714455956e62b0c2bfb7f93e107b6dd092ec6b2489832ff0d9d9edbb9a3f2ceab3a3b1e8a097b72c2cca02f6b0915b3c67f8af2383"
      ],
      "is_coinbase": false,
      "sequence": 4294967295
    },
    {
      "txid": "4fda19d4f596c02e57d7078c7562b2240ae68821e4937ee5801c7f67f13f1c6b",
      "vout": 7,
      "prevout": {
        "scriptpubkey": "51206759b53d68fe6e65c1c4800f4aabd3cb3197e1eb53c34d4660e005f72cd350d5",
        "scriptpubkey_asm": "OP_PUSHNUM_1 OP_PUSHBYTES_32 6759b53d68fe6e65c1c4800f4aabd3cb3197e1eb53c34d4660e005f72cd350d5",
        "scriptpubkey_type": "v1_p2tr",
        "scriptpubkey_address": "bc1pvavm20tglehxtswysq85427nevce0c0t20p563nquqzlwtxn2r2srrrk3l",
        "value": 546
      },
      "scriptsig": "",
      "scriptsig_asm": "",
      "witness": [
        "8e6bc442db303a0d1eeaf3c3810e758fa185aa4df247bf4cce373913ca6f2375af3f5be6cf57abd79538bfd4b768083ebc0bd81fe617cc46cbf2bbb8c406b7b383"
      ],
      "is_coinbase": false,
      "sequence": 4294967295
    },
    {
      "txid": "4fda19d4f596c02e57d7078c7562b2240ae68821e4937ee5801c7f67f13f1c6b",
      "vout": 8,
      "prevout": {
        "scriptpubkey": "51206759b53d68fe6e65c1c4800f4aabd3cb3197e1eb53c34d4660e005f72cd350d5",
        "scriptpubkey_asm": "OP_PUSHNUM_1 OP_PUSHBYTES_32 6759b53d68fe6e65c1c4800f4aabd3cb3197e1eb53c34d4660e005f72cd350d5",
        "scriptpubkey_type": "v1_p2tr",
        "scriptpubkey_address": "bc1pvavm20tglehxtswysq85427nevce0c0t20p563nquqzlwtxn2r2srrrk3l",
        "value": 546
      },
      "scriptsig": "",
      "scriptsig_asm": "",
      "witness": [
        "793a3a9dd7adf316be6a0c365e6e4b0d977f2b53691d9986dde0e0c7966e8afc67e73bd90b4ee9406dcc2c719909ad3c1e2ee22b77f1b2234be38a1015fe144583"
      ],
      "is_coinbase": false,
      "sequence": 4294967295
    },
    {
      "txid": "4fda19d4f596c02e57d7078c7562b2240ae68821e4937ee5801c7f67f13f1c6b",
      "vout": 9,
      "prevout": {
        "scriptpubkey": "51206759b53d68fe6e65c1c4800f4aabd3cb3197e1eb53c34d4660e005f72cd350d5",
        "scriptpubkey_asm": "OP_PUSHNUM_1 OP_PUSHBYTES_32 6759b53d68fe6e65c1c4800f4aabd3cb3197e1eb53c34d4660e005f72cd350d5",
        "scriptpubkey_type": "v1_p2tr",
        "scriptpubkey_address": "bc1pvavm20tglehxtswysq85427nevce0c0t20p563nquqzlwtxn2r2srrrk3l",
        "value": 546
      },
      "scriptsig": "",
      "scriptsig_asm": "",
      "witness": [
        "5eead199ebfa1ec7a9aa882d1c819547bcae8a638724f2b8e84ed267fb67b753b18e4d1f84d9d580666ec445e977fa223aee7f43885d7a73ae5157be184880b983"
      ],
      "is_coinbase": false,
      "sequence": 4294967295
    },
    {
      "txid": "2cba992d1c375758ca9a7a591cfd8937792dcbd86f1b5419ea8141bc0442a429",
      "vout": 0,
      "prevout": {
        "scriptpubkey": "51206493db42895d6bef4a7f250d28f40e7e2f309dec1410e4bb3b2b2f43d8a93ded",
        "scriptpubkey_asm": "OP_PUSHNUM_1 OP_PUSHBYTES_32 6493db42895d6bef4a7f250d28f40e7e2f309dec1410e4bb3b2b2f43d8a93ded",
        "scriptpubkey_type": "v1_p2tr",
        "scriptpubkey_address": "bc1pvjfaks5ft4477jnly5xj3aqw0chnp80vzsgwfwem9vh58k9f8hksqnglhj",
        "value": 546
      },
      "scriptsig": "",
      "scriptsig_asm": "",
      "witness": [
        "8610707d1d64893dc28e1ba6dc28f437351d7335db57ebe73713d8b9832f407a24c1a3291b95710dc5c7ab50ac426c8e9875e96801faa45d665c24d5db5f17df83"
      ],
      "is_coinbase": false,
      "sequence": 4294967295
    },
    {
      "txid": "8b4ad883d8ee4dd4d518a41bbd15a2589c3d6194fc7795dac10f1fcb95c60e3f",
      "vout": 0,
      "prevout": {
        "scriptpubkey": "51206493db42895d6bef4a7f250d28f40e7e2f309dec1410e4bb3b2b2f43d8a93ded",
        "scriptpubkey_asm": "OP_PUSHNUM_1 OP_PUSHBYTES_32 6493db42895d6bef4a7f250d28f40e7e2f309dec1410e4bb3b2b2f43d8a93ded",
        "scriptpubkey_type": "v1_p2tr",
        "scriptpubkey_address": "bc1pvjfaks5ft4477jnly5xj3aqw0chnp80vzsgwfwem9vh58k9f8hksqnglhj",
        "value": 546
      },
      "scriptsig": "",
      "scriptsig_asm": "",
      "witness": [
        "744ff2b1b3e02c4238fe6e34d59de5c7c5563c7dff966d5fb0cd35f91e37f4275010f9d3249cb25e8e39847ca90b3d7585e3d52757f7050d02eb2a5c9ba1c08883"
      ],
      "is_coinbase": false,
      "sequence": 4294967295
    },
    {
      "txid": "97c73b403cc94e61e89ac30a7c3d3146927c5ed52dd1f4fd102cb83c436f93f7",
      "vout": 63,
      "prevout": {
        "scriptpubkey": "5120a5344c9ca37c5fc6b3eae6de30602643618ef397c314607d32bb6288f02e2ee0",
        "scriptpubkey_asm": "OP_PUSHNUM_1 OP_PUSHBYTES_32 a5344c9ca37c5fc6b3eae6de30602643618ef397c314607d32bb6288f02e2ee0",
        "scriptpubkey_type": "v1_p2tr",
        "scriptpubkey_address": "bc1p556ye89r030udvl2um0rqcpxgdscauuhcv2xqlfjhd3g3upw9msqy6t255",
        "value": 100814
      },
      "scriptsig": "",
      "scriptsig_asm": "",
      "witness": [
        "cf4e7fec3b2fffe31ef1a26af93a38cab96fb55f4e1ac115e88a7c26b0de882a62237bd3cf75e3885737cad7dd293a37826d6a24b2355ca9def674e85ae57d9b"
      ],
      "is_coinbase": false,
      "sequence": 4294967295
    }
  ],
  "vout": [
    {
      "scriptpubkey": "5120a5344c9ca37c5fc6b3eae6de30602643618ef397c314607d32bb6288f02e2ee0",
      "scriptpubkey_asm": "OP_PUSHNUM_1 OP_PUSHBYTES_32 a5344c9ca37c5fc6b3eae6de30602643618ef397c314607d32bb6288f02e2ee0",
      "scriptpubkey_type": "v1_p2tr",
      "scriptpubkey_address": "bc1p556ye89r030udvl2um0rqcpxgdscauuhcv2xqlfjhd3g3upw9msqy6t255",
      "value": 4800
    },
    {
      "scriptpubkey": "5120a5344c9ca37c5fc6b3eae6de30602643618ef397c314607d32bb6288f02e2ee0",
      "scriptpubkey_asm": "OP_PUSHNUM_1 OP_PUSHBYTES_32 a5344c9ca37c5fc6b3eae6de30602643618ef397c314607d32bb6288f02e2ee0",
      "scriptpubkey_type": "v1_p2tr",
      "scriptpubkey_address": "bc1p556ye89r030udvl2um0rqcpxgdscauuhcv2xqlfjhd3g3upw9msqy6t255",
      "value": 546
    },
    {
      "scriptpubkey": "5120a5344c9ca37c5fc6b3eae6de30602643618ef397c314607d32bb6288f02e2ee0",
      "scriptpubkey_asm": "OP_PUSHNUM_1 OP_PUSHBYTES_32 a5344c9ca37c5fc6b3eae6de30602643618ef397c314607d32bb6288f02e2ee0",
      "scriptpubkey_type": "v1_p2tr",
      "scriptpubkey_address": "bc1p556ye89r030udvl2um0rqcpxgdscauuhcv2xqlfjhd3g3upw9msqy6t255",
      "value": 546
    },
    {
      "scriptpubkey": "5120a5344c9ca37c5fc6b3eae6de30602643618ef397c314607d32bb6288f02e2ee0",
      "scriptpubkey_asm": "OP_PUSHNUM_1 OP_PUSHBYTES_32 a5344c9ca37c5fc6b3eae6de30602643618ef397c314607d32bb6288f02e2ee0",
      "scriptpubkey_type": "v1_p2tr",
      "scriptpubkey_address": "bc1p556ye89r030udvl2um0rqcpxgdscauuhcv2xqlfjhd3g3upw9msqy6t255",
      "value": 546
    },
    {
      "scriptpubkey": "5120a5344c9ca37c5fc6b3eae6de30602643618ef397c314607d32bb6288f02e2ee0",
      "scriptpubkey_asm": "OP_PUSHNUM_1 OP_PUSHBYTES_32 a5344c9ca37c5fc6b3eae6de30602643618ef397c314607d32bb6288f02e2ee0",
      "scriptpubkey_type": "v1_p2tr",
      "scriptpubkey_address": "bc1p556ye89r030udvl2um0rqcpxgdscauuhcv2xqlfjhd3g3upw9msqy6t255",
      "value": 546
    },
    {
      "scriptpubkey": "5120a5344c9ca37c5fc6b3eae6de30602643618ef397c314607d32bb6288f02e2ee0",
      "scriptpubkey_asm": "OP_PUSHNUM_1 OP_PUSHBYTES_32 a5344c9ca37c5fc6b3eae6de30602643618ef397c314607d32bb6288f02e2ee0",
      "scriptpubkey_type": "v1_p2tr",
      "scriptpubkey_address": "bc1p556ye89r030udvl2um0rqcpxgdscauuhcv2xqlfjhd3g3upw9msqy6t255",
      "value": 546
    },
    {
      "scriptpubkey": "5120a5344c9ca37c5fc6b3eae6de30602643618ef397c314607d32bb6288f02e2ee0",
      "scriptpubkey_asm": "OP_PUSHNUM_1 OP_PUSHBYTES_32 a5344c9ca37c5fc6b3eae6de30602643618ef397c314607d32bb6288f02e2ee0",
      "scriptpubkey_type": "v1_p2tr",
      "scriptpubkey_address": "bc1p556ye89r030udvl2um0rqcpxgdscauuhcv2xqlfjhd3g3upw9msqy6t255",
      "value": 546
    },
    {
      "scriptpubkey": "5120a5344c9ca37c5fc6b3eae6de30602643618ef397c314607d32bb6288f02e2ee0",
      "scriptpubkey_asm": "OP_PUSHNUM_1 OP_PUSHBYTES_32 a5344c9ca37c5fc6b3eae6de30602643618ef397c314607d32bb6288f02e2ee0",
      "scriptpubkey_type": "v1_p2tr",
      "scriptpubkey_address": "bc1p556ye89r030udvl2um0rqcpxgdscauuhcv2xqlfjhd3g3upw9msqy6t255",
      "value": 546
    },
    {
      "scriptpubkey": "51206759b53d68fe6e65c1c4800f4aabd3cb3197e1eb53c34d4660e005f72cd350d5",
      "scriptpubkey_asm": "OP_PUSHNUM_1 OP_PUSHBYTES_32 6759b53d68fe6e65c1c4800f4aabd3cb3197e1eb53c34d4660e005f72cd350d5",
      "scriptpubkey_type": "v1_p2tr",
      "scriptpubkey_address": "bc1pvavm20tglehxtswysq85427nevce0c0t20p563nquqzlwtxn2r2srrrk3l",
      "value": 7508
    },
    {
      "scriptpubkey": "51206759b53d68fe6e65c1c4800f4aabd3cb3197e1eb53c34d4660e005f72cd350d5",
      "scriptpubkey_asm": "OP_PUSHNUM_1 OP_PUSHBYTES_32 6759b53d68fe6e65c1c4800f4aabd3cb3197e1eb53c34d4660e005f72cd350d5",
      "scriptpubkey_type": "v1_p2tr",
      "scriptpubkey_address": "bc1pvavm20tglehxtswysq85427nevce0c0t20p563nquqzlwtxn2r2srrrk3l",
      "value": 7508
    },
    {
      "scriptpubkey": "51206759b53d68fe6e65c1c4800f4aabd3cb3197e1eb53c34d4660e005f72cd350d5",
      "scriptpubkey_asm": "OP_PUSHNUM_1 OP_PUSHBYTES_32 6759b53d68fe6e65c1c4800f4aabd3cb3197e1eb53c34d4660e005f72cd350d5",
      "scriptpubkey_type": "v1_p2tr",
      "scriptpubkey_address": "bc1pvavm20tglehxtswysq85427nevce0c0t20p563nquqzlwtxn2r2srrrk3l",
      "value": 7508
    },
    {
      "scriptpubkey": "51206759b53d68fe6e65c1c4800f4aabd3cb3197e1eb53c34d4660e005f72cd350d5",
      "scriptpubkey_asm": "OP_PUSHNUM_1 OP_PUSHBYTES_32 6759b53d68fe6e65c1c4800f4aabd3cb3197e1eb53c34d4660e005f72cd350d5",
      "scriptpubkey_type": "v1_p2tr",
      "scriptpubkey_address": "bc1pvavm20tglehxtswysq85427nevce0c0t20p563nquqzlwtxn2r2srrrk3l",
      "value": 7508
    },
    {
      "scriptpubkey": "51206759b53d68fe6e65c1c4800f4aabd3cb3197e1eb53c34d4660e005f72cd350d5",
      "scriptpubkey_asm": "OP_PUSHNUM_1 OP_PUSHBYTES_32 6759b53d68fe6e65c1c4800f4aabd3cb3197e1eb53c34d4660e005f72cd350d5",
      "scriptpubkey_type": "v1_p2tr",
      "scriptpubkey_address": "bc1pvavm20tglehxtswysq85427nevce0c0t20p563nquqzlwtxn2r2srrrk3l",
      "value": 7508
    },
    {
      "scriptpubkey": "51206493db42895d6bef4a7f250d28f40e7e2f309dec1410e4bb3b2b2f43d8a93ded",
      "scriptpubkey_asm": "OP_PUSHNUM_1 OP_PUSHBYTES_32 6493db42895d6bef4a7f250d28f40e7e2f309dec1410e4bb3b2b2f43d8a93ded",
      "scriptpubkey_type": "v1_p2tr",
      "scriptpubkey_address": "bc1pvjfaks5ft4477jnly5xj3aqw0chnp80vzsgwfwem9vh58k9f8hksqnglhj",
      "value": 7511
    },
    {
      "scriptpubkey": "51206493db42895d6bef4a7f250d28f40e7e2f309dec1410e4bb3b2b2f43d8a93ded",
      "scriptpubkey_asm": "OP_PUSHNUM_1 OP_PUSHBYTES_32 6493db42895d6bef4a7f250d28f40e7e2f309dec1410e4bb3b2b2f43d8a93ded",
      "scriptpubkey_type": "v1_p2tr",
      "scriptpubkey_address": "bc1pvjfaks5ft4477jnly5xj3aqw0chnp80vzsgwfwem9vh58k9f8hksqnglhj",
      "value": 7511
    },
    {
      "scriptpubkey": "a914ea6b832a05c6ca578baa3836f3f25553d41068a587",
      "scriptpubkey_asm": "OP_HASH160 OP_PUSHBYTES_20 ea6b832a05c6ca578baa3836f3f25553d41068a5 OP_EQUAL",
      "scriptpubkey_type": "p2sh",
      "scriptpubkey_address": "3P4WqXDbSLRhzo2H6MT6YFbvBKBDPLbVtQ",
      "value": 1220
    },
    {
      "scriptpubkey": "5120a5344c9ca37c5fc6b3eae6de30602643618ef397c314607d32bb6288f02e2ee0",
      "scriptpubkey_asm": "OP_PUSHNUM_1 OP_PUSHBYTES_32 a5344c9ca37c5fc6b3eae6de30602643618ef397c314607d32bb6288f02e2ee0",
      "scriptpubkey_type": "v1_p2tr",
      "scriptpubkey_address": "bc1p556ye89r030udvl2um0rqcpxgdscauuhcv2xqlfjhd3g3upw9msqy6t255",
      "value": 600
    },
    {
      "scriptpubkey": "5120a5344c9ca37c5fc6b3eae6de30602643618ef397c314607d32bb6288f02e2ee0",
      "scriptpubkey_asm": "OP_PUSHNUM_1 OP_PUSHBYTES_32 a5344c9ca37c5fc6b3eae6de30602643618ef397c314607d32bb6288f02e2ee0",
      "scriptpubkey_type": "v1_p2tr",
      "scriptpubkey_address": "bc1p556ye89r030udvl2um0rqcpxgdscauuhcv2xqlfjhd3g3upw9msqy6t255",
      "value": 600
    },
    {
      "scriptpubkey": "5120a5344c9ca37c5fc6b3eae6de30602643618ef397c314607d32bb6288f02e2ee0",
      "scriptpubkey_asm": "OP_PUSHNUM_1 OP_PUSHBYTES_32 a5344c9ca37c5fc6b3eae6de30602643618ef397c314607d32bb6288f02e2ee0",
      "scriptpubkey_type": "v1_p2tr",
      "scriptpubkey_address": "bc1p556ye89r030udvl2um0rqcpxgdscauuhcv2xqlfjhd3g3upw9msqy6t255",
      "value": 600
    },
    {
      "scriptpubkey": "5120a5344c9ca37c5fc6b3eae6de30602643618ef397c314607d32bb6288f02e2ee0",
      "scriptpubkey_asm": "OP_PUSHNUM_1 OP_PUSHBYTES_32 a5344c9ca37c5fc6b3eae6de30602643618ef397c314607d32bb6288f02e2ee0",
      "scriptpubkey_type": "v1_p2tr",
      "scriptpubkey_address": "bc1p556ye89r030udvl2um0rqcpxgdscauuhcv2xqlfjhd3g3upw9msqy6t255",
      "value": 600
    },
    {
      "scriptpubkey": "5120a5344c9ca37c5fc6b3eae6de30602643618ef397c314607d32bb6288f02e2ee0",
      "scriptpubkey_asm": "OP_PUSHNUM_1 OP_PUSHBYTES_32 a5344c9ca37c5fc6b3eae6de30602643618ef397c314607d32bb6288f02e2ee0",
      "scriptpubkey_type": "v1_p2tr",
      "scriptpubkey_address": "bc1p556ye89r030udvl2um0rqcpxgdscauuhcv2xqlfjhd3g3upw9msqy6t255",
      "value": 600
    },
    {
      "scriptpubkey": "5120a5344c9ca37c5fc6b3eae6de30602643618ef397c314607d32bb6288f02e2ee0",
      "scriptpubkey_asm": "OP_PUSHNUM_1 OP_PUSHBYTES_32 a5344c9ca37c5fc6b3eae6de30602643618ef397c314607d32bb6288f02e2ee0",
      "scriptpubkey_type": "v1_p2tr",
      "scriptpubkey_address": "bc1p556ye89r030udvl2um0rqcpxgdscauuhcv2xqlfjhd3g3upw9msqy6t255",
      "value": 600
    },
    {
      "scriptpubkey": "5120a5344c9ca37c5fc6b3eae6de30602643618ef397c314607d32bb6288f02e2ee0",
      "scriptpubkey_asm": "OP_PUSHNUM_1 OP_PUSHBYTES_32 a5344c9ca37c5fc6b3eae6de30602643618ef397c314607d32bb6288f02e2ee0",
      "scriptpubkey_type": "v1_p2tr",
      "scriptpubkey_address": "bc1p556ye89r030udvl2um0rqcpxgdscauuhcv2xqlfjhd3g3upw9msqy6t255",
      "value": 600
    },
    {
      "scriptpubkey": "5120a5344c9ca37c5fc6b3eae6de30602643618ef397c314607d32bb6288f02e2ee0",
      "scriptpubkey_asm": "OP_PUSHNUM_1 OP_PUSHBYTES_32 a5344c9ca37c5fc6b3eae6de30602643618ef397c314607d32bb6288f02e2ee0",
      "scriptpubkey_type": "v1_p2tr",
      "scriptpubkey_address": "bc1p556ye89r030udvl2um0rqcpxgdscauuhcv2xqlfjhd3g3upw9msqy6t255",
      "value": 600
    },
    {
      "scriptpubkey": "5120a5344c9ca37c5fc6b3eae6de30602643618ef397c314607d32bb6288f02e2ee0",
      "scriptpubkey_asm": "OP_PUSHNUM_1 OP_PUSHBYTES_32 a5344c9ca37c5fc6b3eae6de30602643618ef397c314607d32bb6288f02e2ee0",
      "scriptpubkey_type": "v1_p2tr",
      "scriptpubkey_address": "bc1p556ye89r030udvl2um0rqcpxgdscauuhcv2xqlfjhd3g3upw9msqy6t255",
      "value": 12247
    }
  ],
  "size": 2795,
  "weight": 7985,
  "fee": 29985,
  "status": {
    "confirmed": true,
    "block_height": 834638,
    "block_hash": "000000000000000000025f742c626208ac87e0b7d15054abb4a19ca2d735a54e",
    "block_time": 1710405325
  },
  "hex": "02000000000110f7936f433cb82c10fdf4d12dd55e7c9246313d7c0ac39ae8614ec93c403bc7973d00000000fffffffff7936f433cb82c10fdf4d12dd55e7c9246313d7c0ac39ae8614ec93c403bc7973a00000000fffffffff7936f433cb82c10fdf4d12dd55e7c9246313d7c0ac39ae8614ec93c403bc7973600000000fffffffff7936f433cb82c10fdf4d12dd55e7c9246313d7c0ac39ae8614ec93c403bc7973800000000fffffffff7936f433cb82c10fdf4d12dd55e7c9246313d7c0ac39ae8614ec93c403bc7972f00000000fffffffff7936f433cb82c10fdf4d12dd55e7c9246313d7c0ac39ae8614ec93c403bc7973100000000fffffffff7936f433cb82c10fdf4d12dd55e7c9246313d7c0ac39ae8614ec93c403bc7972c00000000fffffffff7936f433cb82c10fdf4d12dd55e7c9246313d7c0ac39ae8614ec93c403bc7973b00000000ffffffff6b1c3ff1677f1c80e57e93e42188e60a24b262758c07d7572ec096f5d419da4f0500000000ffffffff6b1c3ff1677f1c80e57e93e42188e60a24b262758c07d7572ec096f5d419da4f0600000000ffffffff6b1c3ff1677f1c80e57e93e42188e60a24b262758c07d7572ec096f5d419da4f0700000000ffffffff6b1c3ff1677f1c80e57e93e42188e60a24b262758c07d7572ec096f5d419da4f0800000000ffffffff6b1c3ff1677f1c80e57e93e42188e60a24b262758c07d7572ec096f5d419da4f0900000000ffffffff29a44204bc4181ea19541b6fd8cb2d793789fd1c597a9aca5857371c2d99ba2c0000000000ffffffff3f0ec695cb1f0fc1da9577fc94613d9c58a215bd1ba418d5d44deed883d84a8b0000000000fffffffff7936f433cb82c10fdf4d12dd55e7c9246313d7c0ac39ae8614ec93c403bc7973f00000000ffffffff19c012000000000000225120a5344c9ca37c5fc6b3eae6de30602643618ef397c314607d32bb6288f02e2ee02202000000000000225120a5344c9ca37c5fc6b3eae6de30602643618ef397c314607d32bb6288f02e2ee02202000000000000225120a5344c9ca37c5fc6b3eae6de30602643618ef397c314607d32bb6288f02e2ee02202000000000000225120a5344c9ca37c5fc6b3eae6de30602643618ef397c314607d32bb6288f02e2ee02202000000000000225120a5344c9ca37c5fc6b3eae6de30602643618ef397c314607d32bb6288f02e2ee02202000000000000225120a5344c9ca37c5fc6b3eae6de30602643618ef397c314607d32bb6288f02e2ee02202000000000000225120a5344c9ca37c5fc6b3eae6de30602643618ef397c314607d32bb6288f02e2ee02202000000000000225120a5344c9ca37c5fc6b3eae6de30602643618ef397c314607d32bb6288f02e2ee0541d0000000000002251206759b53d68fe6e65c1c4800f4aabd3cb3197e1eb53c34d4660e005f72cd350d5541d0000000000002251206759b53d68fe6e65c1c4800f4aabd3cb3197e1eb53c34d4660e005f72cd350d5541d0000000000002251206759b53d68fe6e65c1c4800f4aabd3cb3197e1eb53c34d4660e005f72cd350d5541d0000000000002251206759b53d68fe6e65c1c4800f4aabd3cb3197e1eb53c34d4660e005f72cd350d5541d0000000000002251206759b53d68fe6e65c1c4800f4aabd3cb3197e1eb53c34d4660e005f72cd350d5571d0000000000002251206493db42895d6bef4a7f250d28f40e7e2f309dec1410e4bb3b2b2f43d8a93ded571d0000000000002251206493db42895d6bef4a7f250d28f40e7e2f309dec1410e4bb3b2b2f43d8a93dedc40400000000000017a914ea6b832a05c6ca578baa3836f3f25553d41068a5875802000000000000225120a5344c9ca37c5fc6b3eae6de30602643618ef397c314607d32bb6288f02e2ee05802000000000000225120a5344c9ca37c5fc6b3eae6de30602643618ef397c314607d32bb6288f02e2ee05802000000000000225120a5344c9ca37c5fc6b3eae6de30602643618ef397c314607d32bb6288f02e2ee05802000000000000225120a5344c9ca37c5fc6b3eae6de30602643618ef397c314607d32bb6288f02e2ee05802000000000000225120a5344c9ca37c5fc6b3eae6de30602643618ef397c314607d32bb6288f02e2ee05802000000000000225120a5344c9ca37c5fc6b3eae6de30602643618ef397c314607d32bb6288f02e2ee05802000000000000225120a5344c9ca37c5fc6b3eae6de30602643618ef397c314607d32bb6288f02e2ee05802000000000000225120a5344c9ca37c5fc6b3eae6de30602643618ef397c314607d32bb6288f02e2ee0d72f000000000000225120a5344c9ca37c5fc6b3eae6de30602643618ef397c314607d32bb6288f02e2ee00140dbd137ba917c0baa350523ecdc630216d1e300482d23184e97999c50360e56364d8aa911bc84b13f9f976ef47cee109875609d33ecaad79377c17547a3d109580140c77f8a407bbf318d387e5558b4c6ba5fa5450bd518a91cfd724a984c0003339b5503dd5a7f59918677eb2ffad825d8c17d62aba2990d25af6f2d2265a92f2ce30140e08d8c5c04648b59d2f21a5460356e6ca355a7581a9bbc96d03e57ec017e31d9a6effde4d48b45744385e612a984b12bbe9205a2bc243c081068b3b3f53f1d8f014046bd1da25af464d410bd6f8101ec6120b9e3ac4e027bfa48e449412680118baf4d8905b341c40c98692938d082c3cf1b2ef84f6c347714246a7e4b2387f6940c014008c98ddbd7a3a99de0f1bbc2f90ae00810d15bcb33df6db0e742c80dd6d85ca81a75ab231fdb3ca7ab682c7d4de03886169b153ab9637409bf720876806b0afb014088f4fcf324082d1454829919cf3c7631a5f85ec963e52d2424e5237c8986b97a4dc981d3fca7ff2170ee04a159272e78873b7dc881188d0445f13ffe9fa8f36901406081f9fcd25580dc821a0b1cec6a8498fe3cf974c8d7ef2feabfe6e18a9f41563a7522ef1e50831ad47ce02e90e4d035c3ef65e7fcdb7634c042f92a56dff4e30140a2c43848b253d95d218cd4c58ddd3a335826734af0acbf5d0819ad58b41e51c9377b12302967d385a44d47615b49e607343067819039b77b769cfe7626f3fbc901411ec809249c706726e9e2f29067d19d07e9f44e576fb8f32437cd03dcc0919e0ef41ca266537a08c424a4ba472fd1fe1235eb0d28d91ee20e1bf50fff39a948888301413cc9ca364c5383e6a31905db714455956e62b0c2bfb7f93e107b6dd092ec6b2489832ff0d9d9edbb9a3f2ceab3a3b1e8a097b72c2cca02f6b0915b3c67f8af238301418e6bc442db303a0d1eeaf3c3810e758fa185aa4df247bf4cce373913ca6f2375af3f5be6cf57abd79538bfd4b768083ebc0bd81fe617cc46cbf2bbb8c406b7b3830141793a3a9dd7adf316be6a0c365e6e4b0d977f2b53691d9986dde0e0c7966e8afc67e73bd90b4ee9406dcc2c719909ad3c1e2ee22b77f1b2234be38a1015fe14458301415eead199ebfa1ec7a9aa882d1c819547bcae8a638724f2b8e84ed267fb67b753b18e4d1f84d9d580666ec445e977fa223aee7f43885d7a73ae5157be184880b98301418610707d1d64893dc28e1ba6dc28f437351d7335db57ebe73713d8b9832f407a24c1a3291b95710dc5c7ab50ac426c8e9875e96801faa45d665c24d5db5f17df830141744ff2b1b3e02c4238fe6e34d59de5c7c5563c7dff966d5fb0cd35f91e37f4275010f9d3249cb25e8e39847ca90b3d7585e3d52757f7050d02eb2a5c9ba1c088830140cf4e7fec3b2fffe31ef1a26af93a38cab96fb55f4e1ac115e88a7c26b0de882a62237bd3cf75e3885737cad7dd293a37826d6a24b2355ca9def674e85ae57d9b00000000"
}