{
  "txid": "07e7dad3f3d04060e508b41a5204af62c4ce49e0b3ceaee0cc83c8fb2d821598",
  "version": 2,
  "locktime": 0,
  "vin": [
    {
      "txid": "eb8c79fb290ba95bba8c23120232f1bb3425d67a63ab4c88e4479bd7e6732b88",
      "vout": 2,
      "prevout": {
        "scriptpubkey": "5120a0339f5d026cda04d519e53ddaab43269e7f4049f6b5753cc1194284a680151d",
        "scriptpubkey_asm": "OP_PUSHNUM_1 OP_PUSHBYTES_32 a0339f5d026cda04d519e53ddaab43269e7f4049f6b5753cc1194284a680151d",
        "scriptpubkey_type": "v1_p2tr",
        "scriptpubkey_address": "bc1p5qee7hgzdndqf4geu57a426ry6087szf766h20xpr9pgff5qz5wsce8sx8",
        "value": 546
      },
      "scriptsig": "",
      "scriptsig_asm": "",
      "witness": [
        "cd68f8ab2e1dceac19398bbc1fed234b49a30156f2e149d58e5a7c79c68eb930296b80c46bde17afd4b37f2e2a838a30e4ec6a3b68369cc14e1eafe6e80771d8"
      ],
      "is_coinbase": false,
      "sequence": 4294967295
    },
    {
      "txid": "6b840fd390d85f3cb4b03e23b08098e5bbf66d9b42b9afc257a3d72138f4ffdd",
      "vout": 1,
      "prevout": {
        "scriptpubkey": "a914a9afb27c801bcf88bac593a5ad7c424e6b2423de87",
        "scriptpubkey_asm": "OP_HASH160 OP_PUSHBYTES_20 a9afb27c801bcf88bac593a5ad7c424e6b2423de OP_EQUAL",
        "scriptpubkey_type": "p2sh",
        "scriptpubkey_address": "3HAEbcsxumYyZ8yCiW8aaZBDGK3L4mi5Kk",
        "value": 2156
      },
      "scriptsig": "160014df44d1869eeec1d8c7b996d35138193e57005b32",
      "scriptsig_asm": "OP_PUSHBYTES_22 0014df44d1869eeec1d8c7b996d35138193e57005b32",
      "witness": [
        "3045022100fa104e925012d23321ee976ff19352aff40bf1fad1ed88bc3c924c0c57c4eb1b0220296459d6120337c115bc399be1092efb90bc1956a173549a96d8005afb7597bb01",
        "0273a4d3b781abd41b2665d069506c0696aee256fddb2c214650ffab2a7c326e6b"
      ],
      "is_coinbase": false,
      "sequence": 4294967295,
      "inner_redeemscript_asm": "OP_0 OP_PUSHBYTES_20 df44d1869eeec1d8c7b996d35138193e57005b32"
    },
    {
      "txid": "092b66c28f28b9e46a91d6bc11e49c167cfb32a13d4d7f12ba3333b44d58f2d1",
      "vout": 1,
      "prevout": {
        "scriptpubkey": "a914a9afb27c801bcf88bac593a5ad7c424e6b2423de87",
        "scriptpubkey_asm": "OP_HASH160 OP_PUSHBYTES_20 a9afb27c801bcf88bac593a5ad7c424e6b2423de OP_EQUAL",
        "scriptpubkey_type": "p2sh",
        "scriptpubkey_address": "3HAEbcsxumYyZ8yCiW8aaZBDGK3L4mi5Kk",
        "value": 2084
      },
      "scriptsig": "160014df44d1869eeec1d8c7b996d35138193e57005b32",
      "scriptsig_asm": "OP_PUSHBYTES_22 0014df44d1869eeec1d8c7b996d35138193e57005b32",
      "witness": [
        "304402201f763dfc3d1db042936d3446fc5283a82c3a731c6066833904a4bdf502c763e50220109b7d1783d22a9875882f2986acdf392e88b396a5d8ea5a13fafd6fce6a4a5c01",
        "0273a4d3b781abd41b2665d069506c0696aee256fddb2c214650ffab2a7c326e6b"
      ],
      "is_coinbase": false,
      "sequence": 4294967295,
      "inner_redeemscript_asm": "OP_0 OP_PUSHBYTES_20 df44d1869eeec1d8c7b996d35138193e57005b32"
    },
    {
      "txid": "c60d8e760260581a4e81569cfd3641338c47b9276051ac52a62d9bd579f6abe4",
      "vout": 1,
      "prevout": {
        "scriptpubkey": "a914a9afb27c801bcf88bac593a5ad7c424e6b2423de87",
        "scriptpubkey_asm": "OP_HASH160 OP_PUSHBYTES_20 a9afb27c801bcf88bac593a5ad7c424e6b2423de OP_EQUAL",
        "scriptpubkey_type": "p2sh",
        "scriptpubkey_address": "3HAEbcsxumYyZ8yCiW8aaZBDGK3L4mi5Kk",
        "value": 1583
      },
      "scriptsig": "160014df44d1869eeec1d8c7b996d35138193e57005b32",
      "scriptsig_asm": "OP_PUSHBYTES_22 0014df44d1869eeec1d8c7b996d35138193e57005b32",
      "witness": [
        "3045022100d970e8e1bd692ff4ff7eb0ca9bed42dd0705f852f1f4c36e10111ae171eabaed02205018fc8a23a2d60b8a7c396ed9ac70bc6f30ce24fb51803f209d6f31c3fca75201",
        "0273a4d3b781abd41b2665d069506c0696aee256fddb2c214650ffab2a7c326e6b"
      ],
      "is_coinbase": false,
      "sequence": 4294967295,
      "inner_redeemscript_asm": "OP_0 OP_PUSHBYTES_20 df44d1869eeec1d8c7b996d35138193e57005b32"
    }
  ],
  "vout": [
    {
      "scriptpubkey": "5120a0339f5d026cda04d519e53ddaab43269e7f4049f6b5753cc1194284a680151d",
      "scriptpubkey_asm": "OP_PUSHNUM_1 OP_PUSHBYTES_32 a0339f5d026cda04d519e53ddaab43269e7f4049f6b5753cc1194284a680151d",
      "scriptpubkey_type": "v1_p2tr",
      "scriptpubkey_address": "bc1p5qee7hgzdndqf4geu57a426ry6087szf766h20xpr9pgff5qz5wsce8sx8",
      "value": 546
    },
    {
      "scriptpubkey": "6a1152554e45414c5048415f5354414b494e47096338323937303835320431303030",
      "scriptpubkey_asm": "OP_RETURN OP_PUSHBYTES_17 52554e45414c5048415f5354414b494e47 OP_PUSHBYTES_9 633832393730383532 OP_PUSHBYTES_4 31303030",
      "scriptpubkey_type": "op_return",
      "value": 0
    },
    {
      "scriptpubkey": "a914a9afb27c801bcf88bac593a5ad7c424e6b2423de87",
      "scriptpubkey_asm": "OP_HASH160 OP_PUSHBYTES_20 a9afb27c801bcf88bac593a5ad7c424e6b2423de OP_EQUAL",
      "scriptpubkey_type": "p2sh",
      "scriptpubkey_address": "3HAEbcsxumYyZ8yCiW8aaZBDGK3L4mi5Kk",
      "value": 805
    }
  ],
  "size": 752,
  "weight": 1835,
  "fee": 5018,
  "status": {
    "confirmed": true,
    "block_height": 834464,
    "block_hash": "0000000000000000000177a0869a911a2b65c9bdcd5a8bcb02b68f305bee848e",
    "block_time": 1710308296
  },
  "hex": "02000000000104882b73e6d79b47e4884cab637ad62534bbf1320212238cba5ba90b29fb798ceb0200000000ffffffffddfff43821d7a357c2afb9429b6df6bbe59880b0233eb0b43c5fd890d30f846b0100000017160014df44d1869eeec1d8c7b996d35138193e57005b32ffffffffd1f2584db43333ba127f4d3da132fb7c169ce411bcd6916ae4b9288fc2662b090100000017160014df44d1869eeec1d8c7b996d35138193e57005b32ffffffffe4abf679d59b2da652ac516027b9478c334136fd9c56814e1a586002768e0dc60100000017160014df44d1869eeec1d8c7b996d35138193e57005b32ffffffff032202000000000000225120a0339f5d026cda04d519e53ddaab43269e7f4049f6b5753cc1194284a680151d0000000000000000226a1152554e45414c5048415f5354414b494e47096338323937303835320431303030250300000000000017a914a9afb27c801bcf88bac593a5ad7c424e6b2423de870140cd68f8ab2e1dceac19398bbc1fed234b49a30156f2e149d58e5a7c79c68eb930296b80c46bde17afd4b37f2e2a838a30e4ec6a3b68369cc14e1eafe6e80771d802483045022100fa104e925012d23321ee976ff19352aff40bf1fad1ed88bc3c924c0c57c4eb1b0220296459d6120337c115bc399be1092efb90bc1956a173549a96d8005afb7597bb01210273a4d3b781abd41b2665d069506c0696aee256fddb2c214650ffab2a7c326e6b0247304402201f763dfc3d1db042936d3446fc5283a82c3a731c6066833904a4bdf502c763e50220109b7d1783d22a9875882f2986acdf392e88b396a5d8ea5a13fafd6fce6a4a5c01210273a4d3b781abd41b2665d069506c0696aee256fddb2c214650ffab2a7c326e6b02483045022100d970e8e1bd692ff4ff7eb0ca9bed42dd0705f852f1f4c36e10111ae171eabaed02205018fc8a23a2d60b8a7c396ed9ac70bc6f30ce24fb51803f209d6f31c3fca75201210273a4d3b781abd41b2665d069506c0696aee256fddb2c214650ffab2a7c326e6b00000000"
}