{
  "txid": "08123a0ae83519fcac8f93cd49080573a0349c7f79f199b66c08cca328ffb107",
  "version": 2,
  "locktime": 834458,
  "vin": [
    {
      "txid": "87821be38af6306128564e17bbcb6530be682e618231198fa415d58078f3d203",
      "vout": 6,
      "prevout": {
        "scriptpubkey": "001411b26d5d6d69f24b9be182cb83018c48931961c6",
        "scriptpubkey_asm": "OP_0 OP_PUSHBYTES_20 11b26d5d6d69f24b9be182cb83018c48931961c6",
        "scriptpubkey_type": "v0_p2wpkh",
        "scriptpubkey_address": "bc1qzxex6htdd8eyhxlpst9cxqvvfzf3jcwxj27sec",
        "value": 438335
      },
      "scriptsig": "",
      "scriptsig_asm": "",
      "witness": [
        "304402203bc0344a679486502189c80305316b6b7a52c23bf334f9c31d31a2eef8ed0a60022042f05945a9bd7f8113f5d4fe6a356dbfc3a0391b5dcc74effa131a4594829beb01",
        "03abf602ae1d844892167e6e4a4b39385b9a5898897546b8f5247a26db17a685ed"
      ],
      "is_coinbase": false,
      "sequence": 4294967293
    },
    {
      "txid": "c67eede0cdc774a1bffbdd0624c525b881df4e97424d60c019f2d8db23ddb957",
      "vout": 0,
      "prevout": {
        "scriptpubkey": "001423862b70519100037d910ce416291b667c50f71a",
        "scriptpubkey_asm": "OP_0 OP_PUSHBYTES_20 23862b70519100037d910ce416291b667c50f71a",
        "scriptpubkey_type": "v0_p2wpkh",
        "scriptpubkey_address": "bc1qywrzkuz3jyqqxlv3pnjpv2gmve79pac6dwqnac",
        "value": 647812
      },
      "scriptsig": "",
      "scriptsig_asm": "",
      "witness": [
        "3044022028251b3905648a25fa130d3b5760699dd4269338077486bccf9ec0e84360db7b022010dcf4a5210d781308f8627f2ecd56a4495421a6aee9f1313bf5fb160aefc98501",
        "0345ce01ca0077b3314faa55be0d10f997b59c7c4b988117cc928e8211e14541d5"
      ],
      "is_coinbase": false,
      "sequence": 4294967293
    },
    {
      "txid": "9e44516b62e04f6535ba9b7c93dc61895b12bed8896fc6d397e697b7b213aa6c",
      "vout": 0,
      "prevout": {
        "scriptpubkey": "0014d39dbd15fba0ae78b5d7574f78d39ffc43ec26fa",
        "scriptpubkey_asm": "OP_0 OP_PUSHBYTES_20 d39dbd15fba0ae78b5d7574f78d39ffc43ec26fa",
        "scriptpubkey_type": "v0_p2wpkh",
        "scriptpubkey_address": "bc1q6wwm690m5zh83dwh2a8h35ull3p7cfh67dhsv3",
        "value": 888000
      },
      "scriptsig": "",
      "scriptsig_asm": "",
      "witness": [
        "3045022100c4c466b2bb71013fd3dafaf8764a6e4f93404b7122de42305689e2b578f9a91002200f598ba6af58370647b114389ea9a35bfb8ffefecbb2120ab81bd1ba6e96157701",
        "0363af8a95474791f4ef74a91282f64a6ea95cd41ef58dad79bb1dc5a633f914d9"
      ],
      "is_coinbase": false,
      "sequence": 4294967293
    },
    {
      "txid": "9594271b9ca8e63c9f1e7afbc284692adf6a699f5f1109ccf05991db40055428",
      "vout": 0,
      "prevout": {
        "scriptpubkey": "00147ad967f6149c487b3178c7f8f2e917d6c2256c75",
        "scriptpubkey_asm": "OP_0 OP_PUSHBYTES_20 7ad967f6149c487b3178c7f8f2e917d6c2256c75",
        "scriptpubkey_type": "v0_p2wpkh",
        "scriptpubkey_address": "bc1q0tvk0as5n3y8kvtcclu096gh6mpz2mr407c0v6",
        "value": 526500
      },
      "scriptsig": "",
      "scriptsig_asm": "",
      "witness": [
        "3045022100d891c5d0623d1f13aa0b234a6fa1db446ba601e047406b99f0becea6e3e118c1022063ca5ba763d3288b589b90c5e87589e7fa1356647c96ae9bb9419f446607844d01",
        "030395c626d3ad6a439a2a9ef50bbdb0d68f93aa851925462d2a92c4e8e77b6f41"
      ],
      "is_coinbase": false,
      "sequence": 4294967293
    },
    {
      "txid": "3b41edb93f1459d2c3d8abce2078d4046ad652166da9d65746eb3fbf2990e696",
      "vout": 21,
      "prevout": {
        "scriptpubkey": "001430afdee2a62624c59b9fd5ce9ada222e08664e31",
        "scriptpubkey_asm": "OP_0 OP_PUSHBYTES_20 30afdee2a62624c59b9fd5ce9ada222e08664e31",
        "scriptpubkey_type": "v0_p2wpkh",
        "scriptpubkey_address": "bc1qxzhaac4xycjvtxul6h8f4k3z9cyxvn33lhdurk",
        "value": 372978
      },
      "scriptsig": "",
      "scriptsig_asm": "",
      "witness": [
        "30450221008dbb30a5df95287e5318135f3fc8365ca42d42264017df0d684a8931133a11c002204c19ed62d56a6bc2be325dd1d9ca26028233d1d37330cb650f5c0639543cbaf301",
        "034dcd048500c134ddc5ef13285eab46185bbc78d9c5dfb3d3b5b67c1e63048113"
      ],
      "is_coinbase": false,
      "sequence": 4294967293
    },
    {
      "txid": "98ebc70f581bc5e7decd2377f7ac251853dc7b0ab44cd3ea8c82353c39204b7a",
      "vout": 0,
      "prevout": {
        "scriptpubkey": "0014a4dc70d0245102099e201155b8acad39b7256c36",
        "scriptpubkey_asm": "OP_0 OP_PUSHBYTES_20 a4dc70d0245102099e201155b8acad39b7256c36",
        "scriptpubkey_type": "v0_p2wpkh",
        "scriptpubkey_address": "bc1q5nw8p5py2ypqn83qz92m3t9d8xmj2mpkgamvkd",
        "value": 980300
      },
      "scriptsig": "",
      "scriptsig_asm": "",
      "witness": [
        "304402206a9cae81f89c45ef7c7877737239ac6200cb80437911fb5968262cccc510a21902207cd1df763c5db81a22a849405722fbecefcdf58e90942bffa2cc2a4f1aa9b3fe01",
        "031ee50043d3f129b3475b5d94a02005a3a18840e0af06d1e2ede0391d6d9a8d57"
      ],
      "is_coinbase": false,
      "sequence": 4294967293
    },
    {
      "txid": "05174ec968458ef756e4239c85c1c16efb70289baab688c5d6210dd4ee542fbe",
      "vout": 19,
      "prevout": {
        "scriptpubkey": "0014cc7a074b2d4622be2ce55c44c5822b8438385e44",
        "scriptpubkey_asm": "OP_0 OP_PUSHBYTES_20 cc7a074b2d4622be2ce55c44c5822b8438385e44",
        "scriptpubkey_type": "v0_p2wpkh",
        "scriptpubkey_address": "bc1qe3aqwjedgc3tut89t3zvtq3tssurshjy2rk05f",
        "value": 522924
      },
      "scriptsig": "",
      "scriptsig_asm": "",
      "witness": [
        "3044022072e53c452add31ccf43f6f638e60addef5ac9c498bb2052696e56a6c481db58e022002dfa7667ab2670716ff9097a2bfc485975bd934c7d9d31da1528d3f4ab0805701",
        "02364522b195be3441b6d5461f343eb948fb3d7f20614f28b2ec36ccadacc5b66a"
      ],
      "is_coinbase": false,
      "sequence": 4294967293
    },
    {
      "txid": "5cdd7cfe2892dc245de3769589c34a39fd41e157abe185d229e0a381be569ccc",
      "vout": 0,
      "prevout": {
        "scriptpubkey": "0014659a589c12911b60f2d9295efe7b32870ed873ea",
        "scriptpubkey_asm": "OP_0 OP_PUSHBYTES_20 659a589c12911b60f2d9295efe7b32870ed873ea",
        "scriptpubkey_type": "v0_p2wpkh",
        "scriptpubkey_address": "bc1qvkd938qjjydkpuke9900u7ejsu8dsul26zvnzs",
        "value": 392874
      },
      "scriptsig": "",
      "scriptsig_asm": "",
      "witness": [
        "304402204971f2b1fd6f22aad774b512bc240c7eef3431b88824105aee733e6f40d75de302203aaa1a150edb4c0ebb08e50386c4efb3636a15b6e347f30c2a6a83bb2b90e31d01",
        "036da09350e59db71c3c6786145eabdaa8695a0386ae42d0868aa0ddd6f0622dc6"
      ],
      "is_coinbase": false,
      "sequence": 4294967293
    },
    {
      "txid": "ed88102590df0ad7d616730a13d3c38f7f18fd1b092a4a498c94bae3dbb830bc",
      "vout": 14,
      "prevout": {
        "scriptpubkey": "00146482095c6ce8e586ebb2bfe5136b0d5ecb75e73e",
        "scriptpubkey_asm": "OP_0 OP_PUSHBYTES_20 6482095c6ce8e586ebb2bfe5136b0d5ecb75e73e",
        "scriptpubkey_type": "v0_p2wpkh",
        "scriptpubkey_address": "bc1qvjpqjhrvarjcd6ajhlj3x6cdtm9htee7yr7gdv",
        "value": 424120
      },
      "scriptsig": "",
      "scriptsig_asm": "",
      "witness": [
        "3045022100d75dbba157a415bd91df6629db656002876d4fe715f87d3a69fc778fb2bfc14e022041463b117bcc401dbedd7f7e7d9cad1ef6da4f8120020b3f1cdaf6a1c386e1ac01",
        "029a54040c433153752ffc34ef2832ae61cb208aee4a4c65e3411dba6ad0123e68"
      ],
      "is_coinbase": false,
      "sequence": 4294967293
    },
    {
      "txid": "d1ccc5ff8bd3a15b1110b99648ae414825ed7f835f5a672cff77bd7c667bd55e",
      "vout": 9,
      "prevout": {
        "scriptpubkey": "001448c1cd9ce1e2b50e3bf944757d2ee3ac79468336",
        "scriptpubkey_asm": "OP_0 OP_PUSHBYTES_20 48c1cd9ce1e2b50e3bf944757d2ee3ac79468336",
        "scriptpubkey_type": "v0_p2wpkh",
        "scriptpubkey_address": "bc1qfrqum88pu26suwleg36h6thr43u5dqekuqzk2p",
        "value": 410917
      },
      "scriptsig": "",
      "scriptsig_asm": "",
      "witness": [
        "30450221009b3c6dffb8ac4ed66580691b4295590ad01e143d242f7a02e896cee0d7f8a89102205c2ef2ef5a1d5f8f93443365146595d133db40f1da0aeaeb0071293bb3dbe7f801",
        "0369577cd326de9f10a76de3d4ba0551840a2e9428da60ea247e142b8eea424f31"
      ],
      "is_coinbase": false,
      "sequence": 4294967293
    }
  ],
  "vout": [
    {
      "scriptpubkey": "00146070ac1b23aa2ba1d5b755e63455a3af779e3902",
      "scriptpubkey_asm": "OP_0 OP_PUSHBYTES_20 6070ac1b23aa2ba1d5b755e63455a3af779e3902",
      "scriptpubkey_type": "v0_p2wpkh",
      "scriptpubkey_address": "bc1qvpc2cxer4g46r4dh2hnrg4dr4ameuwgzp9t69w",
      "value": 5595414
    }
  ],
  "size": 1528,
  "weight": 2881,
  "fee": 9346,
  "status": {
    "confirmed": true,
    "block_height": 834460,
    "block_hash": "00000000000000000000484a79b643b2524bbce82e5d8a442013fa5b8905ed98",
    "block_time": 1710307468
  },
  "hex": "0200000000010a03d2f37880d515a48f193182612e68be3065cbbb174e56286130f68ae31b82870600000000fdffffff57b9dd23dbd8f219c0604d42974edf81b825c52406ddfbbfa174c7cde0ed7ec60000000000fdffffff6caa13b2b797e697d3c66f89d8be125b8961dc937c9bba35654fe0626b51449e0000000000fdffffff28540540db9159f0cc09115f9f696adf2a6984c2fb7a1e9f3ce6a89c1b2794950000000000fdffffff96e69029bf3feb4657d6a96d1652d66a04d47820ceabd8c3d259143fb9ed413b1500000000fdffffff7a4b20393c35828cead34cb40a7bdc531825acf77723cddee7c51b580fc7eb980000000000fdffffffbe2f54eed40d21d6c588b6aa9b2870fb6ec1c1859c23e456f78e4568c94e17051300000000fdffffffcc9c56be81a3e029d285e1ab57e141fd394ac3899576e35d24dc9228fe7cdd5c0000000000fdffffffbc30b8dbe3ba948c494a2a091bfd187f8fc3d3130a7316d6d70adf90251088ed0e00000000fdffffff5ed57b667cbd77ff2c675a5f837fed254841ae4896b910115ba1d38bffc5ccd10900000000fdffffff0116615500000000001600146070ac1b23aa2ba1d5b755e63455a3af779e39020247304402203bc0344a679486502189c80305316b6b7a52c23bf334f9c31d31a2eef8ed0a60022042f05945a9bd7f8113f5d4fe6a356dbfc3a0391b5dcc74effa131a4594829beb012103abf602ae1d844892167e6e4a4b39385b9a5898897546b8f5247a26db17a685ed02473044022028251b3905648a25fa130d3b5760699dd4269338077486bccf9ec0e84360db7b022010dcf4a5210d781308f8627f2ecd56a4495421a6aee9f1313bf5fb160aefc98501210345ce01ca0077b3314faa55be0d10f997b59c7c4b988117cc928e8211e14541d502483045022100c4c466b2bb71013fd3dafaf8764a6e4f93404b7122de42305689e2b578f9a91002200f598ba6af58370647b114389ea9a35bfb8ffefecbb2120ab81bd1ba6e96157701210363af8a95474791f4ef74a91282f64a6ea95cd41ef58dad79bb1dc5a633f914d902483045022100d891c5d0623d1f13aa0b234a6fa1db446ba601e047406b99f0becea6e3e118c1022063ca5ba763d3288b589b90c5e87589e7fa1356647c96ae9bb9419f446607844d0121030395c626d3ad6a439a2a9ef50bbdb0d68f93aa851925462d2a92c4e8e77b6f41024830450221008dbb30a5df95287e5318135f3fc8365ca42d42264017df0d684a8931133a11c002204c19ed62d56a6bc2be325dd1d9ca26028233d1d37330cb650f5c0639543cbaf30121034dcd048500c134ddc5ef13285eab46185bbc78d9c5dfb3d3b5b67c1e630481130247304402206a9cae81f89c45ef7c7877737239ac6200cb80437911fb5968262cccc510a21902207cd1df763c5db81a22a849405722fbecefcdf58e90942bffa2cc2a4f1aa9b3fe0121031ee50043d3f129b3475b5d94a02005a3a18840e0af06d1e2ede0391d6d9a8d5702473044022072e53c452add31ccf43f6f638e60addef5ac9c498bb2052696e56a6c481db58e022002dfa7667ab2670716ff9097a2bfc485975bd934c7d9d31da1528d3f4ab08057012102364522b195be3441b6d5461f343eb948fb3d7f20614f28b2ec36ccadacc5b66a0247304402204971f2b1fd6f22aad774b512bc240c7eef3431b88824105aee733e6f40d75de302203aaa1a150edb4c0ebb08e50386c4efb3636a15b6e347f30c2a6a83bb2b90e31d0121036da09350e59db71c3c6786145eabdaa8695a0386ae42d0868aa0ddd6f0622dc602483045022100d75dbba157a415bd91df6629db656002876d4fe715f87d3a69fc778fb2bfc14e022041463b117bcc401dbedd7f7e7d9cad1ef6da4f8120020b3f1cdaf6a1c386e1ac0121029a54040c433153752ffc34ef2832ae61cb208aee4a4c65e3411dba6ad0123e68024830450221009b3c6dffb8ac4ed66580691b4295590ad01e143d242f7a02e896cee0d7f8a89102205c2ef2ef5a1d5f8f93443365146595d133db40f1da0aeaeb0071293bb3dbe7f801210369577cd326de9f10a76de3d4ba0551840a2e9428da60ea247e142b8eea424f319abb0c00"
}