{
  "txid": "081a4a6f808e8a6e95493aef34d86d683dff6f48657993b2afd16c5821ce739f",
  "version": 1,
  "locktime": 0,
  "vin": [
    {
      "txid": "88a9e1a2d955a0bf5f2c2d288eb1636173183f0e80737f4d1ed0475994563a19",
      "vout": 2,
      "prevout": {
        "scriptpubkey": "a9147f891d53c093938b5716caae47835e6420a7da9b87",
        "scriptpubkey_asm": "OP_HASH160 OP_PUSHBYTES_20 7f891d53c093938b5716caae47835e6420a7da9b OP_EQUAL",
        "scriptpubkey_type": "p2sh",
        "scriptpubkey_address": "3DKMznwG6KWNaK4aqYWVY1GjWBWUDczS2u",
        "value": 328255
      },
      "scriptsig": "160014ba499958c4ad32db992495fdf252a819043c7c7b",
      "scriptsig_asm": "OP_PUSHBYTES_22 0014ba499958c4ad32db992495fdf252a819043c7c7b",
      "witness": [
        "3044022074e04630ce3a31a0a261d65d62babefad49995c40ffcf8a49e5d299bc187e281022027567eff5afd5daecbdc27fd63d37e971dac00864aa7e61bc0c4f5404318116c01",
        "028a2bd8fa87a4e36aea48eb106678a7f895cd3f54eef10d13a8efb466fad5e8fa"
      ],
      "is_coinbase": false,
      "sequence": 4294967285,
      "inner_redeemscript_asm": "OP_0 OP_PUSHBYTES_20 ba499958c4ad32db992495fdf252a819043c7c7b"
    },
    {
      "txid": "f5ca09e4656dbafbea753ae68e8ea91bd8f8c868c4313aa7f657859be1bee028",
      "vout": 0,
      "prevout": {
        "scriptpubkey": "a914a2c392cb6d3e76e8809de423af12725531b3b65687",
        "scriptpubkey_asm": "OP_HASH160 OP_PUSHBYTES_20 a2c392cb6d3e76e8809de423af12725531b3b656 OP_EQUAL",
        "scriptpubkey_type": "p2sh",
        "scriptpubkey_address": "3GXdgJKjYNP4HWBHSCHeDsFeAXDGS4p8VT",
        "value": 547074
      },
      "scriptsig": "160014fe1d8547681dfafecfdfa321ec3bcd0752c12216",
      "scriptsig_asm": "OP_PUSHBYTES_22 0014fe1d8547681dfafecfdfa321ec3bcd0752c12216",
      "witness": [
        "3045022100c5d222e704286b4b900ae40cd79138d0bccaf026ac53cd5a13823979db84ba2202203ae962f38f073a261d1b4e0c8654f92041272e6958e009a191b68532ccb6ca0101",
        "02544702ae3601ec2af56391d11047211d21e12db283f33d0ca87c0ab6da1b895f"
      ],
      "is_coinbase": false,
      "sequence": 4294967285,
      "inner_redeemscript_asm": "OP_0 OP_PUSHBYTES_20 fe1d8547681dfafecfdfa321ec3bcd0752c12216"
    },
    {
      "txid": "74a9828ef9f28cece3bef7519913b40a491318fe3f5f1ba23bc35ab74faa7f3a",
      "vout": 9,
      "prevout": {
        "scriptpubkey": "a91498c232c4ba9719c177ace0de1b29c4883d5bea5c87",
        "scriptpubkey_asm": "OP_HASH160 OP_PUSHBYTES_20 98c232c4ba9719c177ace0de1b29c4883d5bea5c OP_EQUAL",
        "scriptpubkey_type": "p2sh",
        "scriptpubkey_address": "3FcjGqXJAKQsf6a6fpZCKosenVYfQhMJ7y",
        "value": 137012
      },
      "scriptsig": "160014106ff01974824ae71f6f47010ce3c40ee3786353",
      "scriptsig_asm": "OP_PUSHBYTES_22 0014106ff01974824ae71f6f47010ce3c40ee3786353",
      "witness": [
        "30450221008481df4f6f5518802734aee1d85697fef6f28070087a6a9b982ff758a7f19648022037af18cf5de9613b52167cb78cf5d834de54d8b9c2a9769d6404bf720fba902101",
        "020a1225eed42cfd587a5b586a9d73e8e23f335c6a1f92e31a52b97239982385dd"
      ],
      "is_coinbase": false,
      "sequence": 4294967285,
      "inner_redeemscript_asm": "OP_0 OP_PUSHBYTES_20 106ff01974824ae71f6f47010ce3c40ee3786353"
    },
    {
      "txid": "01aec10aa8fb3e935cfdb6e5bb7bd61322dffac9af106803b6b3922e55c86db6",
      "vout": 4,
      "prevout": {
        "scriptpubkey": "a9142da248b12437f252fa1fb94228be0d62a3354d7587",
        "scriptpubkey_asm": "OP_HASH160 OP_PUSHBYTES_20 2da248b12437f252fa1fb94228be0d62a3354d75 OP_EQUAL",
        "scriptpubkey_type": "p2sh",
        "scriptpubkey_address": "35rJjrztBw8nvadsvUNpBD4Wsgeh7QquCL",
        "value": 44561
      },
      "scriptsig": "16001448fe6fdef5f6f324f89baddd291486e985106c92",
      "scriptsig_asm": "OP_PUSHBYTES_22 001448fe6fdef5f6f324f89baddd291486e985106c92",
      "witness": [
        "30450221008a8d0bb79b99646be3330226d519f5fbf10e063c7ddeee75eec3013c53cad5440220477e995154ad6229f537eb4774df3341b7f1cb9d06379c62ea8c0bb4387f303a01",
        "029b457887a29c2479ce2123b977361d75b9aed43a67836395402284a6c22674fc"
      ],
      "is_coinbase": false,
      "sequence": 4294967285,
      "inner_redeemscript_asm": "OP_0 OP_PUSHBYTES_20 48fe6fdef5f6f324f89baddd291486e985106c92"
    },
    {
      "txid": "05ec1968a6dc96723622d2da2d37d024e7d44eaa9987f5f4cfb71e1a2f170e93",
      "vout": 0,
      "prevout": {
        "scriptpubkey": "a9149276162a74940abc0ae1cb772c37aae61164fda087",
        "scriptpubkey_asm": "OP_HASH160 OP_PUSHBYTES_20 9276162a74940abc0ae1cb772c37aae61164fda0 OP_EQUAL",
        "scriptpubkey_type": "p2sh",
        "scriptpubkey_address": "3F3S3MJHakKzRTM6Ei3PRgujCVSQ7KbUNM",
        "value": 27400
      },
      "scriptsig": "160014fff576dfd461b8baa9c8d56a243ebc0cac50e189",
      "scriptsig_asm": "OP_PUSHBYTES_22 0014fff576dfd461b8baa9c8d56a243ebc0cac50e189",
      "witness": [
        "304402201633891daac2efee8831153a7644143d1050ef3bf9e5f9b02d825546722be0f602201faebdff1b00f30d2a3576eea54f0777011bf91a884b9403a1c0bf97d2007eb501",
        "023877c22559f1ed5917cc0ad058a32a0979750ff26e6dfcb421350a35c94cb8ed"
      ],
      "is_coinbase": false,
      "sequence": 4294967285,
      "inner_redeemscript_asm": "OP_0 OP_PUSHBYTES_20 fff576dfd461b8baa9c8d56a243ebc0cac50e189"
    },
    {
      "txid": "35006cee99b2de96f3d2e3c297fd5db7ce2fa0a6744b7050281d4881cffb58e6",
      "vout": 0,
      "prevout": {
        "scriptpubkey": "a9144e880b021c7a9e9da5ddd1947a986873a575638b87",
        "scriptpubkey_asm": "OP_HASH160 OP_PUSHBYTES_20 4e880b021c7a9e9da5ddd1947a986873a575638b OP_EQUAL",
        "scriptpubkey_type": "p2sh",
        "scriptpubkey_address": "38rFbwUENuyPUCHW39zPsnGdibFioJpxLT",
        "value": 109303
      },
      "scriptsig": "16001452356dabe96e72800111ee25ea70a6fd33481413",
      "scriptsig_asm": "OP_PUSHBYTES_22 001452356dabe96e72800111ee25ea70a6fd33481413",
      "witness": [
        "3045022100d632da269ad11c481f38533ac1a7075be5a4ca9ba55913c217036aea8c547a190220433a0d819078f70a3c3e682e795777c89b0ac455ad476a85dc4359c1da42b30801",
        "029ffb5c61e666b3c8dfd6e92f90e994f22e45fcb972d985e39e4593ed99411393"
      ],
      "is_coinbase": false,
      "sequence": 4294967285,
      "inner_redeemscript_asm": "OP_0 OP_PUSHBYTES_20 52356dabe96e72800111ee25ea70a6fd33481413"
    },
    {
      "txid": "4afc1a3274ba53ce2f46f2a947457c0fe78c805e9b5f392289f8debc6d972689",
      "vout": 1,
      "prevout": {
        "scriptpubkey": "a914d9b6479a0e506e7cd6b91f8c9bf7bcb69a2ed1f387",
        "scriptpubkey_asm": "OP_HASH160 OP_PUSHBYTES_20 d9b6479a0e506e7cd6b91f8c9bf7bcb69a2ed1f3 OP_EQUAL",
        "scriptpubkey_type": "p2sh",
        "scriptpubkey_address": "3MYAvBkVPMm7RGfZaWJg4GoXVqpivh2XxG",
        "value": 82000
      },
      "scriptsig": "160014797405793becf22bcc6ca344299cd084adb4cca2",
      "scriptsig_asm": "OP_PUSHBYTES_22 0014797405793becf22bcc6ca344299cd084adb4cca2",
      "witness": [
        "3045022100ade5e4cdaa4f28fd756102e144ca273ce1841d92e08d50d1ea1f69504e94dfd20220402cbae27af4f4957def22d61d60f173eb0130483678aff0ae169ff8d60280b701",
        "03b0b2ccc5b437af2355750600c8b36c687eb1d9e59782b2f22c1ebe5bf6f016f7"
      ],
      "is_coinbase": false,
      "sequence": 4294967285,
      "inner_redeemscript_asm": "OP_0 OP_PUSHBYTES_20 797405793becf22bcc6ca344299cd084adb4cca2"
    },
    {
      "txid": "fbf15e1c9b6907cbbee41d075c25050820e8f11e2bc8bfc918db8c417eca6ad6",
      "vout": 0,
      "prevout": {
        "scriptpubkey": "a91447aff54cd1f6c816097b9e6da4b427b02a33f37187",
        "scriptpubkey_asm": "OP_HASH160 OP_PUSHBYTES_20 47aff54cd1f6c816097b9e6da4b427b02a33f371 OP_EQUAL",
        "scriptpubkey_type": "p2sh",
        "scriptpubkey_address": "38E4gxHaXaUuttx9c4KkKXtTiB9DAEZpPz",
        "value": 54503
      },
      "scriptsig": "160014fdefb69fe94597ae5265fea0b5c1944cc5cf30d9",
      "scriptsig_asm": "OP_PUSHBYTES_22 0014fdefb69fe94597ae5265fea0b5c1944cc5cf30d9",
      "witness": [
        "3045022100dc31b1799bd4185970810b8405750f9659d51b55315fb9b5e4be7b9b22ad9e4d02207ab2d5558be22d18b89e6a3e239ccd0a3e8731eff5cedbfd94f20bef16f8b9c801",
        "03e0e4211a7b41318d8de367f1159a880553d8c418d9a9c5244f6ffe859fe54798"
      ],
      "is_coinbase": false,
      "sequence": 4294967285,
      "inner_redeemscript_asm": "OP_0 OP_PUSHBYTES_20 fdefb69fe94597ae5265fea0b5c1944cc5cf30d9"
    },
    {
      "txid": "8817c2fdb2e9e6fe4978a71bb650dc9af1136eabac0606f245cbd038d3d5bc8f",
      "vout": 0,
      "prevout": {
        "scriptpubkey": "a914d70d0e1422a9f28b67012cd92e08baf7038ac51887",
        "scriptpubkey_asm": "OP_HASH160 OP_PUSHBYTES_20 d70d0e1422a9f28b67012cd92e08baf7038ac518 OP_EQUAL",
        "scriptpubkey_type": "p2sh",
        "scriptpubkey_address": "3MJ6qs5XTmzs9df3FfQ5DF5jWMsXHCtFEw",
        "value": 140055
      },
      "scriptsig": "160014d8e595e4dee962f21a37cb1ef1151bb5a45a8763",
      "scriptsig_asm": "OP_PUSHBYTES_22 0014d8e595e4dee962f21a37cb1ef1151bb5a45a8763",
      "witness": [
        "3045022100ee8ccaa1d23c1c61355491e96b3e74e7e40774ea759371bbed542f771ada2ad5022061918a13c9a9a209165c26e78fc08afe98b92a9e9cb71ea93fdd8b93ee741a4801",
        "03642500e3338ad0c3ff6a5aea3efa724172bb203471cd7c21de733343e5f05d2e"
      ],
      "is_coinbase": false,
      "sequence": 4294967285,
      "inner_redeemscript_asm": "OP_0 OP_PUSHBYTES_20 d8e595e4dee962f21a37cb1ef1151bb5a45a8763"
    },
    {
      "txid": "0f8891c9ace1a9475fcb0c94fbb72a5c418ad49e1a81c41b5dbd3e4cfb765f07",
      "vout": 1,
      "prevout": {
        "scriptpubkey": "a9148766dfe910d8f5f568c7946ba5064fc2574849ae87",
        "scriptpubkey_asm": "OP_HASH160 OP_PUSHBYTES_20 8766dfe910d8f5f568c7946ba5064fc2574849ae OP_EQUAL",
        "scriptpubkey_type": "p2sh",
        "scriptpubkey_address": "3E2xPJAsuThtPRobVptfnNV49xSZ366EGZ",
        "value": 151808
      },
      "scriptsig": "160014e35cf017600ef86f83a9dfd312fcdcfe947987c5",
      "scriptsig_asm": "OP_PUSHBYTES_22 0014e35cf017600ef86f83a9dfd312fcdcfe947987c5",
      "witness": [
        "304402206eb15be393dfee12ea3f9f4050e71fc7ad7a0f5ae588fa4f81e777be3252cd65022071f0ae1918120373276fca9701b5d8a88c1c13457301b217eb77e24a20d0fec601",
        "03fb0ed5a0a856c2cf88a1f0b266d1ccb2de7ac855814f589df0f34533af81be17"
      ],
      "is_coinbase": false,
      "sequence": 4294967285,
      "inner_redeemscript_asm": "OP_0 OP_PUSHBYTES_20 e35cf017600ef86f83a9dfd312fcdcfe947987c5"
    },
    {
      "txid": "09e7fec8423f94572953416a87378c256d226880a9dde080d6342c607dde0f78",
      "vout": 0,
      "prevout": {
        "scriptpubkey": "a914bb6c1f643b8e59cbc5ccf570bcdcdbe2629d985a87",
        "scriptpubkey_asm": "OP_HASH160 OP_PUSHBYTES_20 bb6c1f643b8e59cbc5ccf570bcdcdbe2629d985a OP_EQUAL",
        "scriptpubkey_type": "p2sh",
        "scriptpubkey_address": "3Jn1oubS1Bg7Yn6wUqZw69Nz8NcZQ1cRpG",
        "value": 40033
      },
      "scriptsig": "160014337bc42d26fd69604d715fbc95720673e5b37ec7",
      "scriptsig_asm": "OP_PUSHBYTES_22 0014337bc42d26fd69604d715fbc95720673e5b37ec7",
      "witness": [
        "3044022004ff372bfd4381eab7db463e9dcab6741bad0f9e6ecfe148c26886ff84d5fca8022074bea4cc0dcde3d48d3130b03d3008c66fa471eadc4c9cea921dae8c5b58923b01",
        "02a9863cc0068a804e822baeef766e0b7175d17e69ef33684eb0bbb33f4dcbfad6"
      ],
      "is_coinbase": false,
      "sequence": 4294967285,
      "inner_redeemscript_asm": "OP_0 OP_PUSHBYTES_20 337bc42d26fd69604d715fbc95720673e5b37ec7"
    },
    {
      "txid": "a245ab005dc9f78143699b15caf029715ab7e97682d63272a53851d41e33a763",
      "vout": 0,
      "prevout": {
        "scriptpubkey": "a9144080ad7c260c1e221d64357e4049a312a64c8d4087",
        "scriptpubkey_asm": "OP_HASH160 OP_PUSHBYTES_20 4080ad7c260c1e221d64357e4049a312a64c8d40 OP_EQUAL",
        "scriptpubkey_type": "p2sh",
        "scriptpubkey_address": "37a5KW6ojzsyajVjZY7wr81kbRBEyBqBfw",
        "value": 39544
      },
      "scriptsig": "1600148b66bca47275b09c750b7f12cf28a054787baaf8",
      "scriptsig_asm": "OP_PUSHBYTES_22 00148b66bca47275b09c750b7f12cf28a054787baaf8",
      "witness": [
        "304402204d4b17349a7d7c5725bdb6a2dd68677223114c0cd1392b12819dcac561cb100e022035788532eb1d6712d0622d8aeedc17af233338855ade0d375c791b81508de8f701",
        "03fdaf3966b99b2a64d56f0b20e7b7bf0a8ef65d0653b89f9de3d43bfca394b49b"
      ],
      "is_coinbase": false,
      "sequence": 4294967285,
      "inner_redeemscript_asm": "OP_0 OP_PUSHBYTES_20 8b66bca47275b09c750b7f12cf28a054787baaf8"
    }
  ],
  "vout": [
    {
      "scriptpubkey": "a91401e4fb05a0d97eb845b9c1d585961b2c13dfddad87",
      "scriptpubkey_asm": "OP_HASH160 OP_PUSHBYTES_20 01e4fb05a0d97eb845b9c1d585961b2c13dfddad OP_EQUAL",
      "scriptpubkey_type": "p2sh",
      "scriptpubkey_address": "31s2uanwVDXWkHxpgzhBMKUcQetchTUFzL",
      "value": 1668338
    }
  ],
  "size": 2103,
  "weight": 4533,
  "fee": 33210,
  "status": {
    "confirmed": true,
    "block_height": 834638,
    "block_hash": "000000000000000000025f742c626208ac87e0b7d15054abb4a19ca2d735a54e",
    "block_time": 1710405325
  },
  "hex": "0100000000010c193a56945947d01e4d7f73800e3f18736163b18e282d2c5fbfa055d9a2e1a9880200000017160014ba499958c4ad32db992495fdf252a819043c7c7bf5ffffff28e0bee19b8557f6a73a31c468c8f8d81ba98e8ee63a75eafbba6d65e409caf50000000017160014fe1d8547681dfafecfdfa321ec3bcd0752c12216f5ffffff3a7faa4fb75ac33ba21b5f3ffe1813490ab4139951f7bee3ec8cf2f98e82a9740900000017160014106ff01974824ae71f6f47010ce3c40ee3786353f5ffffffb66dc8552e92b3b6036810afc9fadf2213d67bbbe5b6fd5c933efba80ac1ae01040000001716001448fe6fdef5f6f324f89baddd291486e985106c92f5ffffff930e172f1a1eb7cff4f58799aa4ed4e724d0372ddad222367296dca66819ec050000000017160014fff576dfd461b8baa9c8d56a243ebc0cac50e189f5ffffffe658fbcf81481d2850704b74a6a02fceb75dfd97c2e3d2f396deb299ee6c0035000000001716001452356dabe96e72800111ee25ea70a6fd33481413f5ffffff8926976dbcdef88922395f9b5e808ce70f7c4547a9f2462fce53ba74321afc4a0100000017160014797405793becf22bcc6ca344299cd084adb4cca2f5ffffffd66aca7e418cdb18c9bfc82b1ef1e8200805255c071de4becb07699b1c5ef1fb0000000017160014fdefb69fe94597ae5265fea0b5c1944cc5cf30d9f5ffffff8fbcd5d338d0cb45f20606acab6e13f19adc50b61ba77849fee6e9b2fdc217880000000017160014d8e595e4dee962f21a37cb1ef1151bb5a45a8763f5ffffff075f76fb4c3ebd5d1bc4811a9ed48a415c2ab7fb940ccb5f47a9e1acc991880f0100000017160014e35cf017600ef86f83a9dfd312fcdcfe947987c5f5ffffff780fde7d602c34d680e0dda98068226d258c37876a41532957943f42c8fee7090000000017160014337bc42d26fd69604d715fbc95720673e5b37ec7f5ffffff63a7331ed45138a57232d68276e9b75a7129f0ca159b694381f7c95d00ab45a200000000171600148b66bca47275b09c750b7f12cf28a054787baaf8f5ffffff01f27419000000000017a91401e4fb05a0d97eb845b9c1d585961b2c13dfddad8702473044022074e04630ce3a31a0a261d65d62babefad49995c40ffcf8a49e5d299bc187e281022027567eff5afd5daecbdc27fd63d37e971dac00864aa7e61bc0c4f5404318116c0121028a2bd8fa87a4e36aea48eb106678a7f895cd3f54eef10d13a8efb466fad5e8fa02483045022100c5d222e704286b4b900ae40cd79138d0bccaf026ac53cd5a13823979db84ba2202203ae962f38f073a261d1b4e0c8654f92041272e6958e009a191b68532ccb6ca01012102544702ae3601ec2af56391d11047211d21e12db283f33d0ca87c0ab6da1b895f024830450221008481df4f6f5518802734aee1d85697fef6f28070087a6a9b982ff758a7f19648022037af18cf5de9613b52167cb78cf5d834de54d8b9c2a9769d6404bf720fba90210121020a1225eed42cfd587a5b586a9d73e8e23f335c6a1f92e31a52b97239982385dd024830450221008a8d0bb79b99646be3330226d519f5fbf10e063c7ddeee75eec3013c53cad5440220477e995154ad6229f537eb4774df3341b7f1cb9d06379c62ea8c0bb4387f303a0121029b457887a29c2479ce2123b977361d75b9aed43a67836395402284a6c22674fc0247304402201633891daac2efee8831153a7644143d1050ef3bf9e5f9b02d825546722be0f602201faebdff1b00f30d2a3576eea54f0777011bf91a884b9403a1c0bf97d2007eb50121023877c22559f1ed5917cc0ad058a32a0979750ff26e6dfcb421350a35c94cb8ed02483045022100d632da269ad11c481f38533ac1a7075be5a4ca9ba55913c217036aea8c547a190220433a0d819078f70a3c3e682e795777c89b0ac455ad476a85dc4359c1da42b3080121029ffb5c61e666b3c8dfd6e92f90e994f22e45fcb972d985e39e4593ed9941139302483045022100ade5e4cdaa4f28fd756102e144ca273ce1841d92e08d50d1ea1f69504e94dfd20220402cbae27af4f4957def22d61d60f173eb0130483678aff0ae169ff8d60280b7012103b0b2ccc5b437af2355750600c8b36c687eb1d9e59782b2f22c1ebe5bf6f016f702483045022100dc31b1799bd4185970810b8405750f9659d51b55315fb9b5e4be7b9b22ad9e4d02207ab2d5558be22d18b89e6a3e239ccd0a3e8731eff5cedbfd94f20bef16f8b9c8012103e0e4211a7b41318d8de367f1159a880553d8c418d9a9c5244f6ffe859fe5479802483045022100ee8ccaa1d23c1c61355491e96b3e74e7e40774ea759371bbed542f771ada2ad5022061918a13c9a9a209165c26e78fc08afe98b92a9e9cb71ea93fdd8b93ee741a48012103642500e3338ad0c3ff6a5aea3efa724172bb203471cd7c21de733343e5f05d2e0247304402206eb15be393dfee12ea3f9f4050e71fc7ad7a0f5ae588fa4f81e777be3252cd65022071f0ae1918120373276fca9701b5d8a88c1c13457301b217eb77e24a20d0fec6012103fb0ed5a0a856c2cf88a1f0b266d1ccb2de7ac855814f589df0f34533af81be1702473044022004ff372bfd4381eab7db463e9dcab6741bad0f9e6ecfe148c26886ff84d5fca8022074bea4cc0dcde3d48d3130b03d3008c66fa471eadc4c9cea921dae8c5b58923b012102a9863cc0068a804e822baeef766e0b7175d17e69ef33684eb0bbb33f4dcbfad60247304402204d4b17349a7d7c5725bdb6a2dd68677223114c0cd1392b12819dcac561cb100e022035788532eb1d6712d0622d8aeedc17af233338855ade0d375c791b81508de8f7012103fdaf3966b99b2a64d56f0b20e7b7bf0a8ef65d0653b89f9de3d43bfca394b49b00000000"
}