{
  "txid": "08210703c63db5dd078eef536a83a6b4e68fb8640000244f88a882c8c8455a38",
  "version": 2,
  "locktime": 0,
  "vin": [
    {
      "txid": "8f66bd6dbb675a072073923985b6a6516661b9eac40f5b18422a049a27cc2e99",
      "vout": 0,
      "prevout": {
        "scriptpubkey": "a91436595fe67586fa9100baee37c6f60a05f83fe7b187",
        "scriptpubkey_asm": "OP_HASH160 OP_PUSHBYTES_20 36595fe67586fa9100baee37c6f60a05f83fe7b1 OP_EQUAL",
        "scriptpubkey_type": "p2sh",
        "scriptpubkey_address": "36ePUkzphpHnvbi8qDQiSBUvEo1wtLKYyX",
        "value": 1554302
      },
      "scriptsig": "1600142af31552f7e617b2d55e17cfd5320f5425ce92b9",
      "scriptsig_asm": "OP_PUSHBYTES_22 00142af31552f7e617b2d55e17cfd5320f5425ce92b9",
      "witness": [
        "3044022064d15f08beb3872ed2d5d9789fcfcd0666aa93a40d14a445097132eb5d1c9e8302203fdaef2b9d2cfd896f6384b1985783b56e56452ebe4a1fb9255ca992cc6ac6a301",
        "02183d68d1f04cd3eeea90936817bc43c66b6f2d8cc9c1b34dc1ea73a5b7578057"
      ],
      "is_coinbase": false,
      "sequence": 4294967293,
      "inner_redeemscript_asm": "OP_0 OP_PUSHBYTES_20 2af31552f7e617b2d55e17cfd5320f5425ce92b9"
    },
    {
      "txid": "3f69d68bdcffbfe49094028de62100cc1559daa931ce6a203b80d573777ae614",
      "vout": 1,
      "prevout": {
        "scriptpubkey": "a914ef73178497f0cc28031f1cd6fbc482eca882156f87",
        "scriptpubkey_asm": "OP_HASH160 OP_PUSHBYTES_20 ef73178497f0cc28031f1cd6fbc482eca882156f OP_EQUAL",
        "scriptpubkey_type": "p2sh",
        "scriptpubkey_address": "3PX7J7asP1THLBfeKTKqgTB3REMJE6NKtF",
        "value": 1455350
      },
      "scriptsig": "160014abe9e3b54ef0cd86d9a0f27fcd1700d14e8b97ba",
      "scriptsig_asm": "OP_PUSHBYTES_22 0014abe9e3b54ef0cd86d9a0f27fcd1700d14e8b97ba",
      "witness": [
        "3045022100ba616653689f488b45976b64aeb27efbb6de4ad5a9d1c0c449312c4f41908dc00220234afa94f75bfbeddf1a59ee490fc0441858e3328ba6a1dee38994ae65850f7d01",
        "026fecab7fdfdccac8179ddd1d65d68086d5bb5acd6aa1e532aac30b5d9492bf01"
      ],
      "is_coinbase": false,
      "sequence": 4294967293,
      "inner_redeemscript_asm": "OP_0 OP_PUSHBYTES_20 abe9e3b54ef0cd86d9a0f27fcd1700d14e8b97ba"
    },
    {
      "txid": "8c93e1e187d8dfd56c15fbe5891534859134806343aca73a97e5c41d9d5b87ec",
      "vout": 0,
      "prevout": {
        "scriptpubkey": "a914863c7b57ba66f250db7d7d90b30b42680b70a5e987",
        "scriptpubkey_asm": "OP_HASH160 OP_PUSHBYTES_20 863c7b57ba66f250db7d7d90b30b42680b70a5e9 OP_EQUAL",
        "scriptpubkey_type": "p2sh",
        "scriptpubkey_address": "3DvnvbgD34yz4ym7F2RvTukg7X5LafKyF8",
        "value": 1528327
      },
      "scriptsig": "1600145a8142581135341bf4e1113c5cabe7c32fb17ed3",
      "scriptsig_asm": "OP_PUSHBYTES_22 00145a8142581135341bf4e1113c5cabe7c32fb17ed3",
      "witness": [
        "304402204c9b24122a4f5cdc3753dc0304af28c514df1419463297ed5208ce4ede6a88aa02202bccee7a0f8c1687bfa972368de23ab6ebc123009a139843682bef54d5359c9701",
        "026b653c2e0543a21ff1b23f766afa308abb13ab14a81a869b40fd06a17c61a993"
      ],
      "is_coinbase": false,
      "sequence": 4294967293,
      "inner_redeemscript_asm": "OP_0 OP_PUSHBYTES_20 5a8142581135341bf4e1113c5cabe7c32fb17ed3"
    },
    {
      "txid": "b2a4d3f3129d609ee8db923569d0be52beaa3e938e0274770634ce3958774dab",
      "vout": 0,
      "prevout": {
        "scriptpubkey": "a91427097be675203a1b72549d8ae9a243a4fcfcb33c87",
        "scriptpubkey_asm": "OP_HASH160 OP_PUSHBYTES_20 27097be675203a1b72549d8ae9a243a4fcfcb33c OP_EQUAL",
        "scriptpubkey_type": "p2sh",
        "scriptpubkey_address": "35FRdz2PVmer8NSL5SERRPSvyuW9DLGYYS",
        "value": 1500000
      },
      "scriptsig": "16001434be740659da810b85dab4fb9f88ce0d7bee04ed",
      "scriptsig_asm": "OP_PUSHBYTES_22 001434be740659da810b85dab4fb9f88ce0d7bee04ed",
      "witness": [
        "304402206a59a7b4fda4a53d56bbd721a99beedf58950f02aa99de4eef98f92bc5858d99022004b0888d8c946c34268d2f0e3cc9c3c440d0795ca570356c00003afe8a70d82201",
        "03e10475526b908cb5ea7f9554b930ad219955e8c85238fdf7133124d7f327a5ad"
      ],
      "is_coinbase": false,
      "sequence": 4294967293,
      "inner_redeemscript_asm": "OP_0 OP_PUSHBYTES_20 34be740659da810b85dab4fb9f88ce0d7bee04ed"
    },
    {
      "txid": "d7fcc2b5860b4915ae84edd4734dd165509451842d46537a6a6ff28fb1879e86",
      "vout": 0,
      "prevout": {
        "scriptpubkey": "a914e3842072dcfb64c153f0d7873b255f63d6451d4387",
        "scriptpubkey_asm": "OP_HASH160 OP_PUSHBYTES_20 e3842072dcfb64c153f0d7873b255f63d6451d43 OP_EQUAL",
        "scriptpubkey_type": "p2sh",
        "scriptpubkey_address": "3NS1bR8xq8hzLYdpCRDXgrhrqr7FE2un7a",
        "value": 1550928
      },
      "scriptsig": "1600141d3683dd6d6b87033d9f120dfa13e79eda4c0cf7",
      "scriptsig_asm": "OP_PUSHBYTES_22 00141d3683dd6d6b87033d9f120dfa13e79eda4c0cf7",
      "witness": [
        "3044022008990316952e9c6f7184e836e3a7b030814cf4b1bed005f07b72c49ead0f60a702206f25e940494c6c980bd73851789d2f47837f8166b0ea63ca202d28bafe903a9501",
        "03b1b188e4e8ce114dd30beae60f6cec85b9abfa89bc38d9931dd61aba3ae38d78"
      ],
      "is_coinbase": false,
      "sequence": 4294967293,
      "inner_redeemscript_asm": "OP_0 OP_PUSHBYTES_20 1d3683dd6d6b87033d9f120dfa13e79eda4c0cf7"
    },
    {
      "txid": "dcffd3c62c5a168f2c4e7a2348f1d358970fb81b48a515433d15a60ec9bb8d0a",
      "vout": 0,
      "prevout": {
        "scriptpubkey": "a91463d061090525337580915f1bd35485dcf10a0d2a87",
        "scriptpubkey_asm": "OP_HASH160 OP_PUSHBYTES_20 63d061090525337580915f1bd35485dcf10a0d2a OP_EQUAL",
        "scriptpubkey_type": "p2sh",
        "scriptpubkey_address": "3AnnSxuhcNeybNw6gfTrZKMN2Vt4xj3fME",
        "value": 1466782
      },
      "scriptsig": "160014635122a6f7e1fe13532e852a4cb51425eab40fbf",
      "scriptsig_asm": "OP_PUSHBYTES_22 0014635122a6f7e1fe13532e852a4cb51425eab40fbf",
      "witness": [
        "3044022068ed8a211de6d9c3be2e87f0cfa28fa6434a3c4b366b5fb04f16addacdc8cf2a02200ae1727ef6188085f0652d176c82d14c3115b3357e2f4b23bb8b1cdf572d7a9b01",
        "02d8edfe970b79c67500df0d288cc81493eaaf173ecc5731024d6b8a68bb1b8105"
      ],
      "is_coinbase": false,
      "sequence": 4294967293,
      "inner_redeemscript_asm": "OP_0 OP_PUSHBYTES_20 635122a6f7e1fe13532e852a4cb51425eab40fbf"
    },
    {
      "txid": "fa95a6fe8cd552ca9c317f05cb0f0bed151e059e76f80c6105a16cab7b6532e1",
      "vout": 1,
      "prevout": {
        "scriptpubkey": "a914d6cb0e29194065335335d4c46df4aad6337c1aff87",
        "scriptpubkey_asm": "OP_HASH160 OP_PUSHBYTES_20 d6cb0e29194065335335d4c46df4aad6337c1aff OP_EQUAL",
        "scriptpubkey_type": "p2sh",
        "scriptpubkey_address": "3MGjn8GKv3E6CuKRKyWpGhh6N5xTkqvVf1",
        "value": 1455303
      },
      "scriptsig": "160014c82eb56641c783309a21c894ab571172d683b41e",
      "scriptsig_asm": "OP_PUSHBYTES_22 0014c82eb56641c783309a21c894ab571172d683b41e",
      "witness": [
        "304402207c13574d7a43f7f891aec17290535b056e6cad3e87d021e1207b2e07a0315b5202205ee69cf74c12d4c9f76b92739d666d0ed44ecceff9a3c095d8f9ce42ccdacb0401",
        "03e0f5ef13f2cfc6532aff19e1602a60756033aad8de2773b74948fd8f67e9059c"
      ],
      "is_coinbase": false,
      "sequence": 4294967293,
      "inner_redeemscript_asm": "OP_0 OP_PUSHBYTES_20 c82eb56641c783309a21c894ab571172d683b41e"
    },
    {
      "txid": "379ca3ca3a1b71acb0fcc14746bf75415a27ba852bf1533d509843cbc9b70151",
      "vout": 22,
      "prevout": {
        "scriptpubkey": "a914e2438b767f508c6d5f218e8b5cf63963717225f287",
        "scriptpubkey_asm": "OP_HASH160 OP_PUSHBYTES_20 e2438b767f508c6d5f218e8b5cf63963717225f2 OP_EQUAL",
        "scriptpubkey_type": "p2sh",
        "scriptpubkey_address": "3NKPYzRJuQr4ZfJ8hLRZY6wXdQFGKET9qF",
        "value": 1520585
      },
      "scriptsig": "16001487736c6daa2def8afe39b4faa83b0404695a0232",
      "scriptsig_asm": "OP_PUSHBYTES_22 001487736c6daa2def8afe39b4faa83b0404695a0232",
      "witness": [
        "3045022100de6914374ca3859ebaebc328a23906141d15d71da4fd8bd5b6a2d01a239a80c2022046a9e96e12be051d4b0cad3eadb4105b82b734a5992d9ad6d99906ab8ceb400901",
        "02fcd0423b2523562a9ec9a05576e6b5ec17db3186c66baba2da02cf9532e47d29"
      ],
      "is_coinbase": false,
      "sequence": 4294967293,
      "inner_redeemscript_asm": "OP_0 OP_PUSHBYTES_20 87736c6daa2def8afe39b4faa83b0404695a0232"
    },
    {
      "txid": "95e008298859c6f7287bce26bc5adc20be1daadd7a080e0408f0c99f075bcd2c",
      "vout": 0,
      "prevout": {
        "scriptpubkey": "a9140406496cea4757cbee9dc46570617cfa3a1e3c5c87",
        "scriptpubkey_asm": "OP_HASH160 OP_PUSHBYTES_20 0406496cea4757cbee9dc46570617cfa3a1e3c5c OP_EQUAL",
        "scriptpubkey_type": "p2sh",
        "scriptpubkey_address": "324JA8K1SeeuZZVbJ5p2dxPc3A8HUT5n9U",
        "value": 1522337
      },
      "scriptsig": "1600146c10580d2290c8da2b9ae938acbd04aca0ed57e8",
      "scriptsig_asm": "OP_PUSHBYTES_22 00146c10580d2290c8da2b9ae938acbd04aca0ed57e8",
      "witness": [
        "304402204c7788fb77e34a4b11393dafad299cf9e3cc39d077a30a54a5b9f921464d9a89022066b2628fca2222abda1261b73f26cef8fa879c4d62bcd2922ecbd1cb5f0a8f8901",
        "028974a5574b64ef74fe4b6106dfa0e919f424609977c5e37f39a1c1c903da758c"
      ],
      "is_coinbase": false,
      "sequence": 4294967293,
      "inner_redeemscript_asm": "OP_0 OP_PUSHBYTES_20 6c10580d2290c8da2b9ae938acbd04aca0ed57e8"
    },
    {
      "txid": "0e89c8f7b84cb46746edbffaee817497be81c287763eb15714994a8b8355b13a",
      "vout": 0,
      "prevout": {
        "scriptpubkey": "a914febd2b1751e72ffce30d578dfd055f9661f0fa1c87",
        "scriptpubkey_asm": "OP_HASH160 OP_PUSHBYTES_20 febd2b1751e72ffce30d578dfd055f9661f0fa1c OP_EQUAL",
        "scriptpubkey_type": "p2sh",
        "scriptpubkey_address": "3QuxAuywnyoKAqk7tkp8ktFix1bF47JLF7",
        "value": 1464000
      },
      "scriptsig": "16001416cb49785b95222a9a8bee18cba0ed6c926a9e33",
      "scriptsig_asm": "OP_PUSHBYTES_22 001416cb49785b95222a9a8bee18cba0ed6c926a9e33",
      "witness": [
        "3044022074905e39e32fffdca29c9888a259848e3205841ad6ea479db25fba93a9b4e2cd02203b44e8022277cea8395515bcde9e8f3d856f5dcd23cf208a73de19c19f02110e01",
        "02d878366c60af38319be4aea5a595fadcf980b01b6be2bd7b7883f02e4c9aa943"
      ],
      "is_coinbase": false,
      "sequence": 4294967293,
      "inner_redeemscript_asm": "OP_0 OP_PUSHBYTES_20 16cb49785b95222a9a8bee18cba0ed6c926a9e33"
    },
    {
      "txid": "81e0a78ab4c7ced48f339a83f0d800c12658d4abb3ee585c03f244c690043417",
      "vout": 1,
      "prevout": {
        "scriptpubkey": "a914fc94dcb2cd740789af7883181eaa70faccb35f7c87",
        "scriptpubkey_asm": "OP_HASH160 OP_PUSHBYTES_20 fc94dcb2cd740789af7883181eaa70faccb35f7c OP_EQUAL",
        "scriptpubkey_type": "p2sh",
        "scriptpubkey_address": "3QiYY1G2kkSsxETUPxa2KT21i2Wc8tiDga",
        "value": 1551048
      },
      "scriptsig": "160014b6b03492f99e64c02d615b3e1cb181e7597e1e4a",
      "scriptsig_asm": "OP_PUSHBYTES_22 0014b6b03492f99e64c02d615b3e1cb181e7597e1e4a",
      "witness": [
        "3044022074506c44bd6cc30cdf54c691d5bd9a87a0d34e3204cf2eb0666ce871b9d3c5a7022070ca0f3c1ce14143684d20f8896116b995fdf3bd741600d8ffcc9ed3dd8d655601",
        "038e8fc5726ae472cd346ea11a9f96180cb04259e58ecf92cb93d5d4e9c3d9fdbd"
      ],
      "is_coinbase": false,
      "sequence": 4294967293,
      "inner_redeemscript_asm": "OP_0 OP_PUSHBYTES_20 b6b03492f99e64c02d615b3e1cb181e7597e1e4a"
    },
    {
      "txid": "ed3cc862d97d2471f74e2e9c54c02c5ccb94ce60a04753e11da25a538ecc89dc",
      "vout": 0,
      "prevout": {
        "scriptpubkey": "a9146a09f9f6674c332c82395f1a6cec92f06f404c3a87",
        "scriptpubkey_asm": "OP_HASH160 OP_PUSHBYTES_20 6a09f9f6674c332c82395f1a6cec92f06f404c3a OP_EQUAL",
        "scriptpubkey_type": "p2sh",
        "scriptpubkey_address": "3BMhW3vtbURHSsnVvfXHXZoZLcxAQGdhPM",
        "value": 1878012
      },
      "scriptsig": "160014e3fd4bdd16a3a42040fa2ab787d9bcd2394ef77f",
      "scriptsig_asm": "OP_PUSHBYTES_22 0014e3fd4bdd16a3a42040fa2ab787d9bcd2394ef77f",
      "witness": [
        "3045022100c712679899be756bb799817751edb4b7f4d7aebee1c6a60aa9ffba5c45f30649022060b750693fb49f3bbf01f121e36d51d127902e89279e38ab314c1942039e3c5001",
        "039246e219811e336987e001ffd9751a7b04c9f463f3ff59ab9ecbf19a6dded0f2"
      ],
      "is_coinbase": false,
      "sequence": 4294967293,
      "inner_redeemscript_asm": "OP_0 OP_PUSHBYTES_20 e3fd4bdd16a3a42040fa2ab787d9bcd2394ef77f"
    },
    {
      "txid": "d47528a2960192573e4ad5b77ed22a5bcdb80eeeaf1259f710591fa298cc8d8c",
      "vout": 0,
      "prevout": {
        "scriptpubkey": "a914b205ac84568218bd3260351e605b0bff8582955d87",
        "scriptpubkey_asm": "OP_HASH160 OP_PUSHBYTES_20 b205ac84568218bd3260351e605b0bff8582955d OP_EQUAL",
        "scriptpubkey_type": "p2sh",
        "scriptpubkey_address": "3HvJzvEceMfspYyYZTPzxR3zf8jZQ8HHSo",
        "value": 1582000
      },
      "scriptsig": "1600141788d7c29a092c55f8e0079595f64389b637a139",
      "scriptsig_asm": "OP_PUSHBYTES_22 00141788d7c29a092c55f8e0079595f64389b637a139",
      "witness": [
        "3044022004638cbd590b8f41354628719ab5cc3713259dabe733e0770e7dca221df85541022009c42670cb4aead37e8bf8f2345e507f312f5f51b37240cf105ccb716b43d72b01",
        "024ba465f63eec409a22f54bf40a60bfdce2e939e2f149fbb822c9ddd157d8ef47"
      ],
      "is_coinbase": false,
      "sequence": 4294967293,
      "inner_redeemscript_asm": "OP_0 OP_PUSHBYTES_20 1788d7c29a092c55f8e0079595f64389b637a139"
    },
    {
      "txid": "a0d354d62be1d84b7a4947489b73cb5468808744277abcb4c3cbb26c21177029",
      "vout": 961,
      "prevout": {
        "scriptpubkey": "a9145884aa87f546417c457c83840ed57f47532222a287",
        "scriptpubkey_asm": "OP_HASH160 OP_PUSHBYTES_20 5884aa87f546417c457c83840ed57f47532222a2 OP_EQUAL",
        "scriptpubkey_type": "p2sh",
        "scriptpubkey_address": "39m4KEGjgoxw1gqEto34dfjHzDi2uo7f4p",
        "value": 1504407
      },
      "scriptsig": "1600145e701fb158b34769366c0b6a065496515003235e",
      "scriptsig_asm": "OP_PUSHBYTES_22 00145e701fb158b34769366c0b6a065496515003235e",
      "witness": [
        "3045022100eb7e9568e8a565aee841756299ec7dba3e90030cdc8e8272019516907053a6cf022064269f5a9c095ae2182b6b9de779502e062c42ca62bd1a3bbe36450f561a2c0801",
        "037738feeadb3ddf132050dc9b7b45fb05d57284b0ae3dbe9eeb004c7a4b221b60"
      ],
      "is_coinbase": false,
      "sequence": 4294967293,
      "inner_redeemscript_asm": "OP_0 OP_PUSHBYTES_20 5e701fb158b34769366c0b6a065496515003235e"
    },
    {
      "txid": "8aecd41f7715f226c9958c9519a1fb12649a0a5611a22da4ed2d41b70f61da62",
      "vout": 0,
      "prevout": {
        "scriptpubkey": "a914752a09aabca2932bc6911ea36cf6ab7845a5183d87",
        "scriptpubkey_asm": "OP_HASH160 OP_PUSHBYTES_20 752a09aabca2932bc6911ea36cf6ab7845a5183d OP_EQUAL",
        "scriptpubkey_type": "p2sh",
        "scriptpubkey_address": "3CNXLpg7DzzjJraUCUmpipSiz3z6pFnupD",
        "value": 1505128
      },
      "scriptsig": "160014b946284632ebefc7414c45d52161a1c927ce1a48",
      "scriptsig_asm": "OP_PUSHBYTES_22 0014b946284632ebefc7414c45d52161a1c927ce1a48",
      "witness": [
        "3045022100e05dbec89962b7a7adc86673a461cd115a62650de6e7b040e641dff6e7afd8b602205e82aaf2000ca7784012237a0910c5f3cc83556fcbf75a9ddce13fc9920b05d001",
        "032cf1c1acc646a7d081c5ffca3fa100f6006b7f986eb69e7710c4a88dcffe51ed"
      ],
      "is_coinbase": false,
      "sequence": 4294967293,
      "inner_redeemscript_asm": "OP_0 OP_PUSHBYTES_20 b946284632ebefc7414c45d52161a1c927ce1a48"
    },
    {
      "txid": "8b4875d1dcfaf1ecceab5bc823aac1f3448137f2b89355c16829682941717769",
      "vout": 0,
      "prevout": {
        "scriptpubkey": "a9142a57aaa85e89861403cc4ded4dc6770803e64a8387",
        "scriptpubkey_asm": "OP_HASH160 OP_PUSHBYTES_20 2a57aaa85e89861403cc4ded4dc6770803e64a83 OP_EQUAL",
        "scriptpubkey_type": "p2sh",
        "scriptpubkey_address": "35YuKnUvxJx2zvvbL7BcasfKa7SNjRV2AT",
        "value": 1500000
      },
      "scriptsig": "1600149f983f479217b0adb542760afe69c2535c20f790",
      "scriptsig_asm": "OP_PUSHBYTES_22 00149f983f479217b0adb542760afe69c2535c20f790",
      "witness": [
        "304402206d8fda030f3048b2d87ae2e8627b6bf92fb37ee01028ad07b40ab5c19a6654b4022009e47bb19cf4033668c40ed30305a26a267965abba5c0489519b242866228e0601",
        "03c09e3ef9a90041747da364f135265b513e4f52bb1b93413cf4377da3f1e62d37"
      ],
      "is_coinbase": false,
      "sequence": 4294967293,
      "inner_redeemscript_asm": "OP_0 OP_PUSHBYTES_20 9f983f479217b0adb542760afe69c2535c20f790"
    },
    {
      "txid": "2027fbc1673a8d3ff9c87efb78e1d07f816ed3a3a0ad419264e31b32de85b2a3",
      "vout": 1,
      "prevout": {
        "scriptpubkey": "a91448f79f15bbaef1aeff25c5fda4a55996acff7eb987",
        "scriptpubkey_asm": "OP_HASH160 OP_PUSHBYTES_20 48f79f15bbaef1aeff25c5fda4a55996acff7eb9 OP_EQUAL",
        "scriptpubkey_type": "p2sh",
        "scriptpubkey_address": "38LqDPo1RnWCdL3LDwgNgrtk1YYgNb4kag",
        "value": 1556151
      },
      "scriptsig": "160014988f71ada482c6bc9cfa28c75de1a8b4a77ade1b",
      "scriptsig_asm": "OP_PUSHBYTES_22 0014988f71ada482c6bc9cfa28c75de1a8b4a77ade1b",
      "witness": [
        "3045022100b7012dbe2471398cb2a41c156cb83c5387c2939329124bc226853d89fa4be69f022047a6fcff25fb9cc8570d597586a175f3647383ce455bc0179cec55074858a09a01",
        "025b3e983feb61655a299933210f48f54b417f59abdd571f7977e6a7677681a7e6"
      ],
      "is_coinbase": false,
      "sequence": 4294967293,
      "inner_redeemscript_asm": "OP_0 OP_PUSHBYTES_20 988f71ada482c6bc9cfa28c75de1a8b4a77ade1b"
    },
    {
      "txid": "9a5118c1d25e6d8f417cfb9f375166467293c0ddfe9e4559b0bbbe3b5449e30e",
      "vout": 734,
      "prevout": {
        "scriptpubkey": "a9141540481c640ae23c98266ba98bddc1dffd00d05587",
        "scriptpubkey_asm": "OP_HASH160 OP_PUSHBYTES_20 1540481c640ae23c98266ba98bddc1dffd00d055 OP_EQUAL",
        "scriptpubkey_type": "p2sh",
        "scriptpubkey_address": "33dP7wacULyQAeWEU5Ds2Vz5Ajdbrixa8v",
        "value": 1455516
      },
      "scriptsig": "16001449c8a1c899d14f443c777c2e77f33da44ea31a82",
      "scriptsig_asm": "OP_PUSHBYTES_22 001449c8a1c899d14f443c777c2e77f33da44ea31a82",
      "witness": [
        "304402201100c28070a135f0160483049fffb4f58e710fbe87e1e0d9e648451695730d6002204bd56900d4971dcfde9b7dd26b69964f086bb51341631e979dcbad3d1b8bff4b01",
        "03817187f9497ec2cee9abb6cc9e35e831dade5a04b7d2bc9bf7a46f23933f601f"
      ],
      "is_coinbase": false,
      "sequence": 4294967293,
      "inner_redeemscript_asm": "OP_0 OP_PUSHBYTES_20 49c8a1c899d14f443c777c2e77f33da44ea31a82"
    },
    {
      "txid": "05341ceaa1cc391bcb974347813e45beba18ea536a7a49aa83232dbefdc11aca",
      "vout": 1,
      "prevout": {
        "scriptpubkey": "a914d6cb0e29194065335335d4c46df4aad6337c1aff87",
        "scriptpubkey_asm": "OP_HASH160 OP_PUSHBYTES_20 d6cb0e29194065335335d4c46df4aad6337c1aff OP_EQUAL",
        "scriptpubkey_type": "p2sh",
        "scriptpubkey_address": "3MGjn8GKv3E6CuKRKyWpGhh6N5xTkqvVf1",
        "value": 1457677
      },
      "scriptsig": "160014c82eb56641c783309a21c894ab571172d683b41e",
      "scriptsig_asm": "OP_PUSHBYTES_22 0014c82eb56641c783309a21c894ab571172d683b41e",
      "witness": [
        "3044022039fc7eea661a41568c78d46e5d627f339e4065ddbbe2e009e33634eba59664d7022025e27fcc725d9863e967bec54538a8ba51335f5fb1168979d840176a4495ff8101",
        "03e0f5ef13f2cfc6532aff19e1602a60756033aad8de2773b74948fd8f67e9059c"
      ],
      "is_coinbase": false,
      "sequence": 4294967293,
      "inner_redeemscript_asm": "OP_0 OP_PUSHBYTES_20 c82eb56641c783309a21c894ab571172d683b41e"
    },
    {
      "txid": "b3188cb0c9d5c335fba42084158981b5ebfde4d6d2bfb9ef1ff5342138004425",
      "vout": 0,
      "prevout": {
        "scriptpubkey": "a9141145df8d07f33acbe477a4c04976457865e3bea187",
        "scriptpubkey_asm": "OP_HASH160 OP_PUSHBYTES_20 1145df8d07f33acbe477a4c04976457865e3bea1 OP_EQUAL",
        "scriptpubkey_type": "p2sh",
        "scriptpubkey_address": "33GM7gaBevwsyhDbSybbhY9kqghZSpyt74",
        "value": 1564641
      },
      "scriptsig": "160014325e9de8f6577e77264c2e910018d598d4c97310",
      "scriptsig_asm": "OP_PUSHBYTES_22 0014325e9de8f6577e77264c2e910018d598d4c97310",
      "witness": [
        "3044022043f12566fa11d6090cbc5a42f408379f7f1f87151296bb5842e2413a11e62d9a022078e9344363e565ee3e19c558ada1ed5abe6b24d90ec432de9d7b1af53d66f84c01",
        "023368f65c3a430ab30a583c8ab2dd536ace193af45fdf4a4348d693b33f49989d"
      ],
      "is_coinbase": false,
      "sequence": 4294967293,
      "inner_redeemscript_asm": "OP_0 OP_PUSHBYTES_20 325e9de8f6577e77264c2e910018d598d4c97310"
    }
  ],
  "vout": [
    {
      "scriptpubkey": "00141d5bfa3bbeb7ce4e78aa6e32828a969fd48b4d4a",
      "scriptpubkey_asm": "OP_0 OP_PUSHBYTES_20 1d5bfa3bbeb7ce4e78aa6e32828a969fd48b4d4a",
      "scriptpubkey_type": "v0_p2wpkh",
      "scriptpubkey_address": "bc1qr4dl5wa7kl8yu792dceg9z5knl2gkn220lk7a9",
      "value": 30552023
    }
  ],
  "size": 3469,
  "weight": 7432,
  "fee": 20471,
  "status": {
    "confirmed": true,
    "block_height": 834460,
    "block_hash": "00000000000000000000484a79b643b2524bbce82e5d8a442013fa5b8905ed98",
    "block_time": 1710307468
  },
  "hex": "02000000000114992ecc279a042a42185b0fc4eab9616651a6b68539927320075a67bb6dbd668f00000000171600142af31552f7e617b2d55e17cfd5320f5425ce92b9fdffffff14e67a7773d5803b206ace31a9da5915cc0021e68d029490e4bfffdc8bd6693f0100000017160014abe9e3b54ef0cd86d9a0f27fcd1700d14e8b97bafdffffffec875b9d1dc4e5973aa7ac436380349185341589e5fb156cd5dfd887e1e1938c00000000171600145a8142581135341bf4e1113c5cabe7c32fb17ed3fdffffffab4d775839ce34067774028e933eaabe52bed0693592dbe89e609d12f3d3a4b2000000001716001434be740659da810b85dab4fb9f88ce0d7bee04edfdffffff869e87b18ff26f6a7a53462d8451945065d14d73d4ed84ae15490b86b5c2fcd700000000171600141d3683dd6d6b87033d9f120dfa13e79eda4c0cf7fdffffff0a8dbbc90ea6153d4315a5481bb80f9758d3f148237a4e2c8f165a2cc6d3ffdc0000000017160014635122a6f7e1fe13532e852a4cb51425eab40fbffdffffffe132657bab6ca105610cf8769e051e15ed0b0fcb057f319cca52d58cfea695fa0100000017160014c82eb56641c783309a21c894ab571172d683b41efdffffff5101b7c9cb4398503d53f12b85ba275a4175bf4647c1fcb0ac711b3acaa39c37160000001716001487736c6daa2def8afe39b4faa83b0404695a0232fdffffff2ccd5b079fc9f008040e087addaa1dbe20dc5abc26ce7b28f7c659882908e09500000000171600146c10580d2290c8da2b9ae938acbd04aca0ed57e8fdffffff3ab155838b4a991457b13e7687c281be977481eefabfed4667b44cb8f7c8890e000000001716001416cb49785b95222a9a8bee18cba0ed6c926a9e33fdffffff17340490c644f2035c58eeb3abd45826c100d8f0839a338fd4cec7b48aa7e0810100000017160014b6b03492f99e64c02d615b3e1cb181e7597e1e4afdffffffdc89cc8e535aa21de15347a060ce94cb5c2cc0549c2e4ef771247dd962c83ced0000000017160014e3fd4bdd16a3a42040fa2ab787d9bcd2394ef77ffdffffff8c8dcc98a21f5910f75912afee0eb8cd5b2ad27eb7d54a3e57920196a22875d400000000171600141788d7c29a092c55f8e0079595f64389b637a139fdffffff297017216cb2cbc3b4bc7a274487806854cb739b4847497a4bd8e12bd654d3a0c1030000171600145e701fb158b34769366c0b6a065496515003235efdffffff62da610fb7412deda42da211560a9a6412fba119958c95c926f215771fd4ec8a0000000017160014b946284632ebefc7414c45d52161a1c927ce1a48fdffffff6977714129682968c15593b8f2378144f3c1aa23c85babceecf1fadcd175488b00000000171600149f983f479217b0adb542760afe69c2535c20f790fdffffffa3b285de321be3649241ada0a3d36e817fd0e178fb7ec8f93f8d3a67c1fb27200100000017160014988f71ada482c6bc9cfa28c75de1a8b4a77ade1bfdffffff0ee349543bbebbb059459efeddc09372466651379ffb7c418f6d5ed2c118519ade0200001716001449c8a1c899d14f443c777c2e77f33da44ea31a82fdffffffca1ac1fdbe2d2383aa497a6a53ea18babe453e81474397cb1b39cca1ea1c34050100000017160014c82eb56641c783309a21c894ab571172d683b41efdffffff254400382134f51fefb9bfd2d6e4fdebb58189158420a4fb35c3d5c9b08c18b30000000017160014325e9de8f6577e77264c2e910018d598d4c97310fdffffff01d72fd201000000001600141d5bfa3bbeb7ce4e78aa6e32828a969fd48b4d4a02473044022064d15f08beb3872ed2d5d9789fcfcd0666aa93a40d14a445097132eb5d1c9e8302203fdaef2b9d2cfd896f6384b1985783b56e56452ebe4a1fb9255ca992cc6ac6a3012102183d68d1f04cd3eeea90936817bc43c66b6f2d8cc9c1b34dc1ea73a5b757805702483045022100ba616653689f488b45976b64aeb27efbb6de4ad5a9d1c0c449312c4f41908dc00220234afa94f75bfbeddf1a59ee490fc0441858e3328ba6a1dee38994ae65850f7d0121026fecab7fdfdccac8179ddd1d65d68086d5bb5acd6aa1e532aac30b5d9492bf010247304402204c9b24122a4f5cdc3753dc0304af28c514df1419463297ed5208ce4ede6a88aa02202bccee7a0f8c1687bfa972368de23ab6ebc123009a139843682bef54d5359c970121026b653c2e0543a21ff1b23f766afa308abb13ab14a81a869b40fd06a17c61a9930247304402206a59a7b4fda4a53d56bbd721a99beedf58950f02aa99de4eef98f92bc5858d99022004b0888d8c946c34268d2f0e3cc9c3c440d0795ca570356c00003afe8a70d822012103e10475526b908cb5ea7f9554b930ad219955e8c85238fdf7133124d7f327a5ad02473044022008990316952e9c6f7184e836e3a7b030814cf4b1bed005f07b72c49ead0f60a702206f25e940494c6c980bd73851789d2f47837f8166b0ea63ca202d28bafe903a95012103b1b188e4e8ce114dd30beae60f6cec85b9abfa89bc38d9931dd61aba3ae38d7802473044022068ed8a211de6d9c3be2e87f0cfa28fa6434a3c4b366b5fb04f16addacdc8cf2a02200ae1727ef6188085f0652d176c82d14c3115b3357e2f4b23bb8b1cdf572d7a9b012102d8edfe970b79c67500df0d288cc81493eaaf173ecc5731024d6b8a68bb1b81050247304402207c13574d7a43f7f891aec17290535b056e6cad3e87d021e1207b2e07a0315b5202205ee69cf74c12d4c9f76b92739d666d0ed44ecceff9a3c095d8f9ce42ccdacb04012103e0f5ef13f2cfc6532aff19e1602a60756033aad8de2773b74948fd8f67e9059c02483045022100de6914374ca3859ebaebc328a23906141d15d71da4fd8bd5b6a2d01a239a80c2022046a9e96e12be051d4b0cad3eadb4105b82b734a5992d9ad6d99906ab8ceb4009012102fcd0423b2523562a9ec9a05576e6b5ec17db3186c66baba2da02cf9532e47d290247304402204c7788fb77e34a4b11393dafad299cf9e3cc39d077a30a54a5b9f921464d9a89022066b2628fca2222abda1261b73f26cef8fa879c4d62bcd2922ecbd1cb5f0a8f890121028974a5574b64ef74fe4b6106dfa0e919f424609977c5e37f39a1c1c903da758c02473044022074905e39e32fffdca29c9888a259848e3205841ad6ea479db25fba93a9b4e2cd02203b44e8022277cea8395515bcde9e8f3d856f5dcd23cf208a73de19c19f02110e012102d878366c60af38319be4aea5a595fadcf980b01b6be2bd7b7883f02e4c9aa94302473044022074506c44bd6cc30cdf54c691d5bd9a87a0d34e3204cf2eb0666ce871b9d3c5a7022070ca0f3c1ce14143684d20f8896116b995fdf3bd741600d8ffcc9ed3dd8d65560121038e8fc5726ae472cd346ea11a9f96180cb04259e58ecf92cb93d5d4e9c3d9fdbd02483045022100c712679899be756bb799817751edb4b7f4d7aebee1c6a60aa9ffba5c45f30649022060b750693fb49f3bbf01f121e36d51d127902e89279e38ab314c1942039e3c500121039246e219811e336987e001ffd9751a7b04c9f463f3ff59ab9ecbf19a6dded0f202473044022004638cbd590b8f41354628719ab5cc3713259dabe733e0770e7dca221df85541022009c42670cb4aead37e8bf8f2345e507f312f5f51b37240cf105ccb716b43d72b0121024ba465f63eec409a22f54bf40a60bfdce2e939e2f149fbb822c9ddd157d8ef4702483045022100eb7e9568e8a565aee841756299ec7dba3e90030cdc8e8272019516907053a6cf022064269f5a9c095ae2182b6b9de779502e062c42ca62bd1a3bbe36450f561a2c080121037738feeadb3ddf132050dc9b7b45fb05d57284b0ae3dbe9eeb004c7a4b221b6002483045022100e05dbec89962b7a7adc86673a461cd115a62650de6e7b040e641dff6e7afd8b602205e82aaf2000ca7784012237a0910c5f3cc83556fcbf75a9ddce13fc9920b05d00121032cf1c1acc646a7d081c5ffca3fa100f6006b7f986eb69e7710c4a88dcffe51ed0247304402206d8fda030f3048b2d87ae2e8627b6bf92fb37ee01028ad07b40ab5c19a6654b4022009e47bb19cf4033668c40ed30305a26a267965abba5c0489519b242866228e06012103c09e3ef9a90041747da364f135265b513e4f52bb1b93413cf4377da3f1e62d3702483045022100b7012dbe2471398cb2a41c156cb83c5387c2939329124bc226853d89fa4be69f022047a6fcff25fb9cc8570d597586a175f3647383ce455bc0179cec55074858a09a0121025b3e983feb61655a299933210f48f54b417f59abdd571f7977e6a7677681a7e60247304402201100c28070a135f0160483049fffb4f58e710fbe87e1e0d9e648451695730d6002204bd56900d4971dcfde9b7dd26b69964f086bb51341631e979dcbad3d1b8bff4b012103817187f9497ec2cee9abb6cc9e35e831dade5a04b7d2bc9bf7a46f23933f601f02473044022039fc7eea661a41568c78d46e5d627f339e4065ddbbe2e009e33634eba59664d7022025e27fcc725d9863e967bec54538a8ba51335f5fb1168979d840176a4495ff81012103e0f5ef13f2cfc6532aff19e1602a60756033aad8de2773b74948fd8f67e9059c02473044022043f12566fa11d6090cbc5a42f408379f7f1f87151296bb5842e2413a11e62d9a022078e9344363e565ee3e19c558ada1ed5abe6b24d90ec432de9d7b1af53d66f84c0121023368f65c3a430ab30a583c8ab2dd536ace193af45fdf4a4348d693b33f49989d00000000"
}