{
  "txid": "082c545a2c78588c3fa89819c223a151dcb9c19b05ea0736945781cfc506cb19",
  "version": 2,
  "locktime": 0,
  "vin": [
    {
      "txid": "5c515519543faea1ea8fcf0026f5d6c90584c781df4a7b5d1cadc63b55a789aa",
      "vout": 0,
      "prevout": {
        "scriptpubkey": "0014902d6b208265906d38981d2c694abce6b9c41ad2",
        "scriptpubkey_asm": "OP_0 OP_PUSHBYTES_20 902d6b208265906d38981d2c694abce6b9c41ad2",
        "scriptpubkey_type": "v0_p2wpkh",
        "scriptpubkey_address": "bc1qjqkkkgyzvkgx6wycr5kxjj4uu6uugxkjts6jf9",
        "value": 8450094
      },
      "scriptsig": "",
      "scriptsig_asm": "",
      "witness": [
        "3044022039d62ec0766c4c249ccdf89dad4b1f565eb4f29b913ac58a8f0ea8d0454988d802205fe897d1da59da771382bd63e065a05353fb81d56842a78effc649aaf6ac5a0c01",
        "03e8ca12576f158902507d432bf4a064462fb6c01cdb870b402a0e2857c235b2bc"
      ],
      "is_coinbase": false,
      "sequence": 4294967293
    },
    {
      "txid": "66041f8386aa543f101b31bb3fc4384eb51e3be3d703ac300d4efcad23e8d7e3",
      "vout": 0,
      "prevout": {
        "scriptpubkey": "0014902d6b208265906d38981d2c694abce6b9c41ad2",
        "scriptpubkey_asm": "OP_0 OP_PUSHBYTES_20 902d6b208265906d38981d2c694abce6b9c41ad2",
        "scriptpubkey_type": "v0_p2wpkh",
        "scriptpubkey_address": "bc1qjqkkkgyzvkgx6wycr5kxjj4uu6uugxkjts6jf9",
        "value": 6784288
      },
      "scriptsig": "",
      "scriptsig_asm": "",
      "witness": [
        "30440220338fe57e3b1848629eb9bb99d6f01291afc6003bb5f8481cd05fcabf955a8451022012484438cb01e4c22dec1353c1a86c10f07976714bb3733b97b93f3d562c267b01",
        "03e8ca12576f158902507d432bf4a064462fb6c01cdb870b402a0e2857c235b2bc"
      ],
      "is_coinbase": false,
      "sequence": 4294967293
    }
  ],
  "vout": [
    {
      "scriptpubkey": "0014902d6b208265906d38981d2c694abce6b9c41ad2",
      "scriptpubkey_asm": "OP_0 OP_PUSHBYTES_20 902d6b208265906d38981d2c694abce6b9c41ad2",
      "scriptpubkey_type": "v0_p2wpkh",
      "scriptpubkey_address": "bc1qjqkkkgyzvkgx6wycr5kxjj4uu6uugxkjts6jf9",
      "value": 695702
    },
    {
      "scriptpubkey": "a9149b744b6b0640d0237241db00e0058ad01aa1bcae87",
      "scriptpubkey_asm": "OP_HASH160 OP_PUSHBYTES_20 9b744b6b0640d0237241db00e0058ad01aa1bcae OP_EQUAL",
      "scriptpubkey_type": "p2sh",
      "scriptpubkey_address": "3FryyZuCx17cmH1dZVJw3w8Ub8ZyFKXG2U",
      "value": 14533037
    }
  ],
  "size": 371,
  "weight": 836,
  "fee": 5643,
  "status": {
    "confirmed": true,
    "block_height": 834552,
    "block_hash": "00000000000000000001dd0468a70c94f619251d286585cff57aeb4bd9ede330",
    "block_time": 1710355598
  },
  "hex": "02000000000102aa89a7553bc6ad1c5d7b4adf81c78405c9d6f52600cf8feaa1ae3f541955515c0000000000fdffffffe3d7e823adfc4e0d30ac03d7e33b1eb54e38c43fbb311b103f54aa86831f04660000000000fdffffff02969d0a0000000000160014902d6b208265906d38981d2c694abce6b9c41ad2adc1dd000000000017a9149b744b6b0640d0237241db00e0058ad01aa1bcae8702473044022039d62ec0766c4c249ccdf89dad4b1f565eb4f29b913ac58a8f0ea8d0454988d802205fe897d1da59da771382bd63e065a05353fb81d56842a78effc649aaf6ac5a0c012103e8ca12576f158902507d432bf4a064462fb6c01cdb870b402a0e2857c235b2bc024730440220338fe57e3b1848629eb9bb99d6f01291afc6003bb5f8481cd05fcabf955a8451022012484438cb01e4c22dec1353c1a86c10f07976714bb3733b97b93f3d562c267b012103e8ca12576f158902507d432bf4a064462fb6c01cdb870b402a0e2857c235b2bc00000000"
}