{
  "txid": "082cd5871158ed23473f495c067fd2033e9509b4fd051d4715b67f04c5bf46cc",
  "version": 2,
  "locktime": 0,
  "vin": [
    {
      "txid": "8486ecb4df0880316dd6e82b3971b4df187aff23765bc3a47f8d78bb53aa273c",
      "vout": 56,
      "prevout": {
        "scriptpubkey": "51209914460203e7313fd509bba1dbf2c9d38e545a5620de4ff14a07707501d83b85",
        "scriptpubkey_asm": "OP_PUSHNUM_1 OP_PUSHBYTES_32 9914460203e7313fd509bba1dbf2c9d38e545a5620de4ff14a07707501d83b85",
        "scriptpubkey_type": "v1_p2tr",
        "scriptpubkey_address": "bc1pny2yvqsruucnl4gfhwsahukf6w89gkjkyr0ylu22qac82qwc8wzs6qxxhx",
        "value": 2575
      },
      "scriptsig": "",
      "scriptsig_asm": "",
      "witness": [
        "9aceb00d034229783d9ac3d86269cbfd2ff59556fa7dc52c4dcfb1beed3d98239473d758f6f864334e5b7bf64e7b5c5a960b2e8a24d79eb6402e663049a8ca47",
        "206fbf436cadfcc3b097ea883718e07bc85c58a0cb15a1cb68913506f808b90326ac0063036f726401010a746578742f706c61696e00367b2270223a226272632d3230222c226f70223a226d696e74222c227469636b223a2261616161222c22616d74223a223130303030227d68",
        "c16fbf436cadfcc3b097ea883718e07bc85c58a0cb15a1cb68913506f808b90326"
      ],
      "is_coinbase": false,
      "sequence": 4261412863
    }
  ],
  "vout": [
    {
      "scriptpubkey": "0014ddd7ef12ea6f78edcc1e8e7afa12c01ab59f3339",
      "scriptpubkey_asm": "OP_0 OP_PUSHBYTES_20 ddd7ef12ea6f78edcc1e8e7afa12c01ab59f3339",
      "scriptpubkey_type": "v0_p2wpkh",
      "scriptpubkey_address": "bc1qmht77yh2dauwmnq73ea05ykqr26e7veea8spz6",
      "value": 546
    }
  ],
  "size": 295,
  "weight": 541,
  "fee": 2029,
  "status": {
    "confirmed": true,
    "block_height": 834460,
    "block_hash": "00000000000000000000484a79b643b2524bbce82e5d8a442013fa5b8905ed98",
    "block_time": 1710307468
  },
  "hex": "020000000001013c27aa53bb788d7fa4c35b7623ff7a18dfb471392be8d66d318008dfb4ec86843800000000fffffffd012202000000000000160014ddd7ef12ea6f78edcc1e8e7afa12c01ab59f333903409aceb00d034229783d9ac3d86269cbfd2ff59556fa7dc52c4dcfb1beed3d98239473d758f6f864334e5b7bf64e7b5c5a960b2e8a24d79eb6402e663049a8ca476e206fbf436cadfcc3b097ea883718e07bc85c58a0cb15a1cb68913506f808b90326ac0063036f726401010a746578742f706c61696e00367b2270223a226272632d3230222c226f70223a226d696e74222c227469636b223a2261616161222c22616d74223a223130303030227d6821c16fbf436cadfcc3b097ea883718e07bc85c58a0cb15a1cb68913506f808b9032600000000"
}