{
  "txid": "0841e13a1385b570bb3fb787fd613e623ac32bc3b8c8c6d77b95c6bce57913ef",
  "version": 2,
  "locktime": 0,
  "vin": [
    {
      "txid": "e47c3149329f2525a30a9e6622f4529857f3894865ad5f5f710bc8eb3ec1927c",
      "vout": 1,
      "prevout": {
        "scriptpubkey": "a9142e0b7ec6d14e51abc3edfb3a8a013697b9518bb087",
        "scriptpubkey_asm": "OP_HASH160 OP_PUSHBYTES_20 2e0b7ec6d14e51abc3edfb3a8a013697b9518bb0 OP_EQUAL",
        "scriptpubkey_type": "p2sh",
        "scriptpubkey_address": "35tUn51UwKmsdU11UorT3Nj9Q9cC56U7wD",
        "value": 1537799
      },
      "scriptsig": "160014764ce426143cb00b246c0a4b64aaa410473e9eef",
      "scriptsig_asm": "OP_PUSHBYTES_22 0014764ce426143cb00b246c0a4b64aaa410473e9eef",
      "witness": [
        "304402200d122a577dd380150fb390f3cfc336b340fba6650a429ff9622406c662a51836022023c687693206511b98b7703c85e7914eab304b31eb4ab48c0d7b4484f876c96701",
        "02e497dd3a31a8e65f8d4b8e462467ad7115785f04e97d7e4fcd3aa5bab9002df3"
      ],
      "is_coinbase": false,
      "sequence": 4294967293,
      "inner_redeemscript_asm": "OP_0 OP_PUSHBYTES_20 764ce426143cb00b246c0a4b64aaa410473e9eef"
    }
  ],
  "vout": [
    {
      "scriptpubkey": "0014b94dc78c266166a2bad3658d669b74e603f9b4be",
      "scriptpubkey_asm": "OP_0 OP_PUSHBYTES_20 b94dc78c266166a2bad3658d669b74e603f9b4be",
      "scriptpubkey_type": "v0_p2wpkh",
      "scriptpubkey_address": "bc1qh9xu0rpxv9n29wknvkxkdxm5ucplnd97yhqa9d",
      "value": 1000000
    },
    {
      "scriptpubkey": "a9142e0b7ec6d14e51abc3edfb3a8a013697b9518bb087",
      "scriptpubkey_asm": "OP_HASH160 OP_PUSHBYTES_20 2e0b7ec6d14e51abc3edfb3a8a013697b9518bb0 OP_EQUAL",
      "scriptpubkey_type": "p2sh",
      "scriptpubkey_address": "35tUn51UwKmsdU11UorT3Nj9Q9cC56U7wD",
      "value": 531325
    }
  ],
  "size": 246,
  "weight": 657,
  "fee": 6474,
  "status": {
    "confirmed": true,
    "block_height": 834638,
    "block_hash": "000000000000000000025f742c626208ac87e0b7d15054abb4a19ca2d735a54e",
    "block_time": 1710405325
  },
  "hex": "020000000001017c92c13eebc80b715f5fad654889f3579852f422669e0aa325259f3249317ce40100000017160014764ce426143cb00b246c0a4b64aaa410473e9eeffdffffff0240420f0000000000160014b94dc78c266166a2bad3658d669b74e603f9b4be7d1b08000000000017a9142e0b7ec6d14e51abc3edfb3a8a013697b9518bb0870247304402200d122a577dd380150fb390f3cfc336b340fba6650a429ff9622406c662a51836022023c687693206511b98b7703c85e7914eab304b31eb4ab48c0d7b4484f876c967012102e497dd3a31a8e65f8d4b8e462467ad7115785f04e97d7e4fcd3aa5bab9002df300000000"
}