{
  "txid": "0843a125fdce55b2c87431a295a90732d02e8e547fb0b8e53e9c088d9e2e441b",
  "version": 2,
  "locktime": 0,
  "vin": [
    {
      "txid": "aecef2be80172fef438244c16fb8cb9d8f4456ffbb84f01414b04535909058e8",
      "vout": 0,
      "prevout": {
        "scriptpubkey": "76a9149cbce372957f24d806881e703d34fd1510f103ee88ac",
        "scriptpubkey_asm": "OP_DUP OP_HASH160 OP_PUSHBYTES_20 9cbce372957f24d806881e703d34fd1510f103ee OP_EQUALVERIFY OP_CHECKSIG",
        "scriptpubkey_type": "p2pkh",
        "scriptpubkey_address": "1FHkh8KxqgVXuz8KGCUQnLjE2YPKhiDN3M",
        "value": 108558
      },
      "scriptsig": "473044022048269a87e2c9d26bb5b4a521221e9d3a7e958ffeb39a94c3801f1ffd55df34ce0220723df4bcbedea8559620c5698fdd46b19fa006f447678acd43a96a9f6517b51d0121038e530dafb7ae7d4fbff0f0919a37a60948d9c3f52453cb41d89da4eb3c954ff0",
      "scriptsig_asm": "OP_PUSHBYTES_71 3044022048269a87e2c9d26bb5b4a521221e9d3a7e958ffeb39a94c3801f1ffd55df34ce0220723df4bcbedea8559620c5698fdd46b19fa006f447678acd43a96a9f6517b51d01 OP_PUSHBYTES_33 038e530dafb7ae7d4fbff0f0919a37a60948d9c3f52453cb41d89da4eb3c954ff0",
      "is_coinbase": false,
      "sequence": 4294967293
    },
    {
      "txid": "c4a04333db0cd2b3e38269181b63a815e8b64b1600b87702bade7fee2774a4b2",
      "vout": 1,
      "prevout": {
        "scriptpubkey": "76a9149cbce372957f24d806881e703d34fd1510f103ee88ac",
        "scriptpubkey_asm": "OP_DUP OP_HASH160 OP_PUSHBYTES_20 9cbce372957f24d806881e703d34fd1510f103ee OP_EQUALVERIFY OP_CHECKSIG",
        "scriptpubkey_type": "p2pkh",
        "scriptpubkey_address": "1FHkh8KxqgVXuz8KGCUQnLjE2YPKhiDN3M",
        "value": 3989
      },
      "scriptsig": "483045022100b11cc3fcab95a3a8e0b21d61695872d97bffcea5ed9bac32e1e8152c1c6e1bda022011f464fe0d07298da0e412b1a74a6487a960fcdcce47aa7d60aca4c04cd3a54e0121038e530dafb7ae7d4fbff0f0919a37a60948d9c3f52453cb41d89da4eb3c954ff0",
      "scriptsig_asm": "OP_PUSHBYTES_72 3045022100b11cc3fcab95a3a8e0b21d61695872d97bffcea5ed9bac32e1e8152c1c6e1bda022011f464fe0d07298da0e412b1a74a6487a960fcdcce47aa7d60aca4c04cd3a54e01 OP_PUSHBYTES_33 038e530dafb7ae7d4fbff0f0919a37a60948d9c3f52453cb41d89da4eb3c954ff0",
      "is_coinbase": false,
      "sequence": 4294967293
    }
  ],
  "vout": [
    {
      "scriptpubkey": "001463b9ae18a69711f84dbf921567a74659e0053585",
      "scriptpubkey_asm": "OP_0 OP_PUSHBYTES_20 63b9ae18a69711f84dbf921567a74659e0053585",
      "scriptpubkey_type": "v0_p2wpkh",
      "scriptpubkey_address": "bc1qvwu6ux9xjuglsndljg2k0f6xt8sq2dv9kg3due",
      "value": 103000
    },
    {
      "scriptpubkey": "76a9149cbce372957f24d806881e703d34fd1510f103ee88ac",
      "scriptpubkey_asm": "OP_DUP OP_HASH160 OP_PUSHBYTES_20 9cbce372957f24d806881e703d34fd1510f103ee OP_EQUALVERIFY OP_CHECKSIG",
      "scriptpubkey_type": "p2pkh",
      "scriptpubkey_address": "1FHkh8KxqgVXuz8KGCUQnLjE2YPKhiDN3M",
      "value": 5491
    }
  ],
  "size": 370,
  "weight": 1480,
  "fee": 4056,
  "status": {
    "confirmed": true,
    "block_height": 834464,
    "block_hash": "0000000000000000000177a0869a911a2b65c9bdcd5a8bcb02b68f305bee848e",
    "block_time": 1710308296
  },
  "hex": "0200000002e85890903545b01414f084bbff56448f9dcbb86fc1448243ef2f1780bef2ceae000000006a473044022048269a87e2c9d26bb5b4a521221e9d3a7e958ffeb39a94c3801f1ffd55df34ce0220723df4bcbedea8559620c5698fdd46b19fa006f447678acd43a96a9f6517b51d0121038e530dafb7ae7d4fbff0f0919a37a60948d9c3f52453cb41d89da4eb3c954ff0fdffffffb2a47427ee7fdeba0277b800164bb6e815a8631b186982e3b3d20cdb3343a0c4010000006b483045022100b11cc3fcab95a3a8e0b21d61695872d97bffcea5ed9bac32e1e8152c1c6e1bda022011f464fe0d07298da0e412b1a74a6487a960fcdcce47aa7d60aca4c04cd3a54e0121038e530dafb7ae7d4fbff0f0919a37a60948d9c3f52453cb41d89da4eb3c954ff0fdffffff02589201000000000016001463b9ae18a69711f84dbf921567a74659e005358573150000000000001976a9149cbce372957f24d806881e703d34fd1510f103ee88ac00000000"
}