{
  "txid": "084f663a2e66dd6b9e06a90368555686ecd1026432cb863aae060a45ce09bf5c",
  "version": 2,
  "locktime": 0,
  "vin": [
    {
      "txid": "4adb0bfe50174d241798f7f34c4bd6520514a0288c7bc6239dec02d8cfc7eb29",
      "vout": 41,
      "prevout": {
        "scriptpubkey": "0014b89b3ba85c8bb8cba69e7debc98572ccb0dfe61e",
        "scriptpubkey_asm": "OP_0 OP_PUSHBYTES_20 b89b3ba85c8bb8cba69e7debc98572ccb0dfe61e",
        "scriptpubkey_type": "v0_p2wpkh",
        "scriptpubkey_address": "bc1qhzdnh2zu3wuvhf570h4unptjejcdles7eqjjh0",
        "value": 137000
      },
      "scriptsig": "",
      "scriptsig_asm": "",
      "witness": [
        "30440220696946022dcb5065023216190fcc26fb9855a55d76c0cfb296e852370499c9af02201e8524dec76665fc86f344152b7e580387b619962cfd8320230995fdf8c29d6601",
        "0374a9ca7f97aecd39b5097c4136515a13505f9bc1226852ac353e6c3feb5c7573"
      ],
      "is_coinbase": false,
      "sequence": 4294967293
    }
  ],
  "vout": [
    {
      "scriptpubkey": "76a914697e0f370081f846fd1be1d01f210413810c283888ac",
      "scriptpubkey_asm": "OP_DUP OP_HASH160 OP_PUSHBYTES_20 697e0f370081f846fd1be1d01f210413810c2838 OP_EQUALVERIFY OP_CHECKSIG",
      "scriptpubkey_type": "p2pkh",
      "scriptpubkey_address": "1AcnxuVvsqkPS3kbCk7D59fNKYj3LiBEf9",
      "value": 135780
    }
  ],
  "size": 194,
  "weight": 449,
  "fee": 1220,
  "status": {
    "confirmed": true,
    "block_height": 834464,
    "block_hash": "0000000000000000000177a0869a911a2b65c9bdcd5a8bcb02b68f305bee848e",
    "block_time": 1710308296
  },
  "hex": "0200000000010129ebc7cfd802ec9d23c67b8c28a0140552d64b4cf3f79817244d1750fe0bdb4a2900000000fdffffff0164120200000000001976a914697e0f370081f846fd1be1d01f210413810c283888ac024730440220696946022dcb5065023216190fcc26fb9855a55d76c0cfb296e852370499c9af02201e8524dec76665fc86f344152b7e580387b619962cfd8320230995fdf8c29d6601210374a9ca7f97aecd39b5097c4136515a13505f9bc1226852ac353e6c3feb5c757300000000"
}