{
  "txid": "087742207b0e7f0d171f0ce4999bb1003ec9e7da29dfcb67d2b2b3590b462679",
  "version": 2,
  "locktime": 0,
  "vin": [
    {
      "txid": "4848522510a10703ae24f0355680ccad22393b469abd00776e685a9b9641cd75",
      "vout": 3,
      "prevout": {
        "scriptpubkey": "5120018e047b13fe2ab1e29d295af127aecf17a4645230d59a7e8b35e37d494d1557",
        "scriptpubkey_asm": "OP_PUSHNUM_1 OP_PUSHBYTES_32 018e047b13fe2ab1e29d295af127aecf17a4645230d59a7e8b35e37d494d1557",
        "scriptpubkey_type": "v1_p2tr",
        "scriptpubkey_address": "bc1pqx8qg7cnlc4trc5a99d0zfaweut6gezjxr2e5l5txh3h6j2dz4tsutjzjr",
        "value": 2439006
      },
      "scriptsig": "",
      "scriptsig_asm": "",
      "witness": [
        "f80b329c00bd2c56a0177bec8e4857a21bb8a0a12876f24831d698f54432bc3c2d5061e6e4703f2e28949b772c6c44da42536f9b92c68667ca5f1dc89d28e1a3"
      ],
      "is_coinbase": false,
      "sequence": 4294967295
    }
  ],
  "vout": [
    {
      "scriptpubkey": "76a914672bcdd40d6ef1ce47e5f0bcb84abb8d2832f1e088ac",
      "scriptpubkey_asm": "OP_DUP OP_HASH160 OP_PUSHBYTES_20 672bcdd40d6ef1ce47e5f0bcb84abb8d2832f1e0 OP_EQUALVERIFY OP_CHECKSIG",
      "scriptpubkey_type": "p2pkh",
      "scriptpubkey_address": "1AQX5KGcTY9d46vWVsuVUqqjdTt4AFLGzv",
      "value": 2314354
    },
    {
      "scriptpubkey": "5120018e047b13fe2ab1e29d295af127aecf17a4645230d59a7e8b35e37d494d1557",
      "scriptpubkey_asm": "OP_PUSHNUM_1 OP_PUSHBYTES_32 018e047b13fe2ab1e29d295af127aecf17a4645230d59a7e8b35e37d494d1557",
      "scriptpubkey_type": "v1_p2tr",
      "scriptpubkey_address": "bc1pqx8qg7cnlc4trc5a99d0zfaweut6gezjxr2e5l5txh3h6j2dz4tsutjzjr",
      "value": 122187
    }
  ],
  "size": 196,
  "weight": 580,
  "fee": 2465,
  "status": {
    "confirmed": true,
    "block_height": 834638,
    "block_hash": "000000000000000000025f742c626208ac87e0b7d15054abb4a19ca2d735a54e",
    "block_time": 1710405325
  },
  "hex": "0200000000010175cd41969b5a686e7700bd9a463b3922adcc805635f024ae0307a110255248480300000000ffffffff0272502300000000001976a914672bcdd40d6ef1ce47e5f0bcb84abb8d2832f1e088ac4bdd010000000000225120018e047b13fe2ab1e29d295af127aecf17a4645230d59a7e8b35e37d494d15570140f80b329c00bd2c56a0177bec8e4857a21bb8a0a12876f24831d698f54432bc3c2d5061e6e4703f2e28949b772c6c44da42536f9b92c68667ca5f1dc89d28e1a300000000"
}