{
  "txid": "08884c6932ef204def631a66362123c09c8fa617e13829bdb4b288f4811456be",
  "version": 1,
  "locktime": 0,
  "vin": [
    {
      "txid": "2e7ec8d9718c5fa0d1d3bd36334b26fe082cc13fc57ed0a93355b1346074b14d",
      "vout": 0,
      "prevout": {
        "scriptpubkey": "00146415a8ce0808a910e4435859421b53b38067e514",
        "scriptpubkey_asm": "OP_0 OP_PUSHBYTES_20 6415a8ce0808a910e4435859421b53b38067e514",
        "scriptpubkey_type": "v0_p2wpkh",
        "scriptpubkey_address": "bc1qvs263nsgpz53pezrtpv5yx6nkwqx0eg5sxp57g",
        "value": 8280000
      },
      "scriptsig": "",
      "scriptsig_asm": "",
      "witness": [
        "304402206e987997142bcbf4e88a577ca0b80d0b05f2f05818cd906a5c5cc49a5692755302202df949154e3fe5b20acdf9f669a67dbbcaccbbcc307c344c7bfd8e9dc8383af101",
        "028bf0a1d2214d9e3299c06bd8df187aa6261933f6615881627b87f28beae0fadc"
      ],
      "is_coinbase": false,
      "sequence": 4294967293
    },
    {
      "txid": "3a3e7eccd2c4a62d9742779f1602f940aa7bc9a9220aa2c9ffc381bf700a5bc8",
      "vout": 0,
      "prevout": {
        "scriptpubkey": "00146415a8ce0808a910e4435859421b53b38067e514",
        "scriptpubkey_asm": "OP_0 OP_PUSHBYTES_20 6415a8ce0808a910e4435859421b53b38067e514",
        "scriptpubkey_type": "v0_p2wpkh",
        "scriptpubkey_address": "bc1qvs263nsgpz53pezrtpv5yx6nkwqx0eg5sxp57g",
        "value": 2637410
      },
      "scriptsig": "",
      "scriptsig_asm": "",
      "witness": [
        "3045022100ef498f2910b63e6b8ee22146e4d0eee1b7269a66f3e8bbd2df3cc73817f9aec10220390238a60474dc344cab1add8aa915cbd2d63a7407ddd197dec435eb4ce35d7b01",
        "028bf0a1d2214d9e3299c06bd8df187aa6261933f6615881627b87f28beae0fadc"
      ],
      "is_coinbase": false,
      "sequence": 4294967293
    },
    {
      "txid": "6dabae2c5ec59d502655e7daaa7c051308db1efcf61e8ccfcde123b3b42c79d9",
      "vout": 9,
      "prevout": {
        "scriptpubkey": "00146415a8ce0808a910e4435859421b53b38067e514",
        "scriptpubkey_asm": "OP_0 OP_PUSHBYTES_20 6415a8ce0808a910e4435859421b53b38067e514",
        "scriptpubkey_type": "v0_p2wpkh",
        "scriptpubkey_address": "bc1qvs263nsgpz53pezrtpv5yx6nkwqx0eg5sxp57g",
        "value": 3680872
      },
      "scriptsig": "",
      "scriptsig_asm": "",
      "witness": [
        "304402201748bfb0d335cfbc3a769f3da18b2dd78919c958008efbf0fcce2dad6ce39f6102200c494005c74643b792a7f195e829f31992695a64a5dc2007b13920c103eea10401",
        "028bf0a1d2214d9e3299c06bd8df187aa6261933f6615881627b87f28beae0fadc"
      ],
      "is_coinbase": false,
      "sequence": 4294967293
    },
    {
      "txid": "746a997f5fe294030cff1f441e8311be7e42c20848c269c3264e28f7f3162f63",
      "vout": 24,
      "prevout": {
        "scriptpubkey": "00146415a8ce0808a910e4435859421b53b38067e514",
        "scriptpubkey_asm": "OP_0 OP_PUSHBYTES_20 6415a8ce0808a910e4435859421b53b38067e514",
        "scriptpubkey_type": "v0_p2wpkh",
        "scriptpubkey_address": "bc1qvs263nsgpz53pezrtpv5yx6nkwqx0eg5sxp57g",
        "value": 3641799
      },
      "scriptsig": "",
      "scriptsig_asm": "",
      "witness": [
        "304402203fb6fda26e4d86c65bf90a443309d35bddcc35be299ba7a473f6a773f0e6b102022036c5c07d36bfe88e79728ee7c1c3fed38be64dfe003232f49701d26c03a9138d01",
        "028bf0a1d2214d9e3299c06bd8df187aa6261933f6615881627b87f28beae0fadc"
      ],
      "is_coinbase": false,
      "sequence": 4294967293
    },
    {
      "txid": "99d6881de24979b011bdaf39b35c4d1b73cf19ce6e6a1dd80b60a0dcd076a2a7",
      "vout": 9,
      "prevout": {
        "scriptpubkey": "00146415a8ce0808a910e4435859421b53b38067e514",
        "scriptpubkey_asm": "OP_0 OP_PUSHBYTES_20 6415a8ce0808a910e4435859421b53b38067e514",
        "scriptpubkey_type": "v0_p2wpkh",
        "scriptpubkey_address": "bc1qvs263nsgpz53pezrtpv5yx6nkwqx0eg5sxp57g",
        "value": 3511385
      },
      "scriptsig": "",
      "scriptsig_asm": "",
      "witness": [
        "304402203bad56297fb9015f08a568f108dae47472f34bf8febaf762c1d0d2e80362d0a00220296bb861e56c7bb86e2acc034502bfee0ffc7dbaa908fb3d07eb035728f4f1c701",
        "028bf0a1d2214d9e3299c06bd8df187aa6261933f6615881627b87f28beae0fadc"
      ],
      "is_coinbase": false,
      "sequence": 4294967293
    },
    {
      "txid": "addcf5e3c3a0ec15ba01d6a05bfbfc09b2683746021ebd98e69de5aeef905ce6",
      "vout": 23,
      "prevout": {
        "scriptpubkey": "00146415a8ce0808a910e4435859421b53b38067e514",
        "scriptpubkey_asm": "OP_0 OP_PUSHBYTES_20 6415a8ce0808a910e4435859421b53b38067e514",
        "scriptpubkey_type": "v0_p2wpkh",
        "scriptpubkey_address": "bc1qvs263nsgpz53pezrtpv5yx6nkwqx0eg5sxp57g",
        "value": 4694147
      },
      "scriptsig": "",
      "scriptsig_asm": "",
      "witness": [
        "3045022100ce8a706e20a0c95f885b6f6f2d7d53bd119fc73f85c136622dc10cb29c59fbde0220291fa11e507b9462b45f8c3eeffc0071844121286ba68be17ecb89e0acc78f2201",
        "028bf0a1d2214d9e3299c06bd8df187aa6261933f6615881627b87f28beae0fadc"
      ],
      "is_coinbase": false,
      "sequence": 4294967293
    },
    {
      "txid": "b1b478c53c757ccbaa756ba54451fc299d60af76987008552b6feaa09bdacf3b",
      "vout": 1,
      "prevout": {
        "scriptpubkey": "00147cdee1768d972bbf4dfd9850bc44fda01f1157ab",
        "scriptpubkey_asm": "OP_0 OP_PUSHBYTES_20 7cdee1768d972bbf4dfd9850bc44fda01f1157ab",
        "scriptpubkey_type": "v0_p2wpkh",
        "scriptpubkey_address": "bc1q0n0wza5dju4m7n0anpgtc38a5q03z4ata2fn5t",
        "value": 71974942
      },
      "scriptsig": "",
      "scriptsig_asm": "",
      "witness": [
        "304402202203a5e93c3630808eabe6e66d0aeff5f803adfbd492eab99a9acc732e72d615022072f30859a30044f55875798d17cb79648dd487ff268dcd2b4d52e316f19fec3701",
        "025d5519c04697aac4af081555152ef45bf2a635d675c3e7817123f9550603e11f"
      ],
      "is_coinbase": false,
      "sequence": 4294967293
    },
    {
      "txid": "d0cea73bd5d3905e34ff2801d3a3b3b5005030be3c015fd9a857895f2b455bf7",
      "vout": 12,
      "prevout": {
        "scriptpubkey": "0014874d328a43b8318258f04675d05fd686f110151c",
        "scriptpubkey_asm": "OP_0 OP_PUSHBYTES_20 874d328a43b8318258f04675d05fd686f110151c",
        "scriptpubkey_type": "v0_p2wpkh",
        "scriptpubkey_address": "bc1qsaxn9zjrhqccyk8sge6aqh7ksmc3q9guy6p80c",
        "value": 1226800
      },
      "scriptsig": "",
      "scriptsig_asm": "",
      "witness": [
        "30440220281e5d7152657edb6c73b3ac2f301cb78c54636ebca4c0b94e338d0f5d8b3f4702206c7cbf66881c729b7c2e7ba4adfc84b9d8d6d6cb35360c1f5ec772c392b4de2101",
        "0344f04e9c85c45f857738db69c35e2c4192f772c68357a616dea4fb4222902d88"
      ],
      "is_coinbase": false,
      "sequence": 4294967293
    },
    {
      "txid": "f525755a793707b649e1bb400f492f6b2b22d245c74c5386bbd3253dcf6985b9",
      "vout": 10,
      "prevout": {
        "scriptpubkey": "0014c4d0eb80d64149778e490fff1310c98f6aceb2a9",
        "scriptpubkey_asm": "OP_0 OP_PUSHBYTES_20 c4d0eb80d64149778e490fff1310c98f6aceb2a9",
        "scriptpubkey_type": "v0_p2wpkh",
        "scriptpubkey_address": "bc1qcngwhqxkg9yh0rjfpll3xyxf3a4vav4ffmaan3",
        "value": 356546
      },
      "scriptsig": "",
      "scriptsig_asm": "",
      "witness": [
        "3044022067395bafb9a9d6be8ad5a0c344b9aed49f24dfcef063ebe3d62305301cac465702203ad69d97f384066023371e180283747fa15677d82e9015c9ad971a97279a08da01",
        "03cb9259526d27d8e6702d48149f8acb791df27b51a61e6c25f2c1e60ab48d464f"
      ],
      "is_coinbase": false,
      "sequence": 4294967293
    },
    {
      "txid": "5e50b38f3be17e05e51ec149ff9043f21241da09abb2b62522f19c39fc0fc4f0",
      "vout": 8,
      "prevout": {
        "scriptpubkey": "0014c8e0310ef43facdff8747dcb21ea2bedb642ed62",
        "scriptpubkey_asm": "OP_0 OP_PUSHBYTES_20 c8e0310ef43facdff8747dcb21ea2bedb642ed62",
        "scriptpubkey_type": "v0_p2wpkh",
        "scriptpubkey_address": "bc1qersrzrh587kdl7r50h9jr63takmy9mtz7tdahy",
        "value": 2254700
      },
      "scriptsig": "",
      "scriptsig_asm": "",
      "witness": [
        "3045022100bf96c23ab25121824bf447ba745197c4a80aa0df675ffc0949a25fa7828c154b02200790186765c12429481fc526a20d3230cd8ccd9875c4d88209f195e5c741f07401",
        "034016c11adb6a84ed31c4b780aac33943c3ae930a16a4ff24778e15cc3b8809b1"
      ],
      "is_coinbase": false,
      "sequence": 4294967293
    }
  ],
  "vout": [
    {
      "scriptpubkey": "0014ee19ada973baff63e3b620cf51a3e55052dd154a",
      "scriptpubkey_asm": "OP_0 OP_PUSHBYTES_20 ee19ada973baff63e3b620cf51a3e55052dd154a",
      "scriptpubkey_type": "v0_p2wpkh",
      "scriptpubkey_address": "bc1qacv6m2tnhtlk8cakyr84rgl92pfd6922jg6hqe",
      "value": 100000000
    },
    {
      "scriptpubkey": "0014e0a1849b2f617e16ae204d2cbd543e191517dbf4",
      "scriptpubkey_asm": "OP_0 OP_PUSHBYTES_20 e0a1849b2f617e16ae204d2cbd543e191517dbf4",
      "scriptpubkey_type": "v0_p2wpkh",
      "scriptpubkey_address": "bc1quzscfxe0v9lpdt3qf5kt64p7ry230kl5qzhu4r",
      "value": 2249580
    }
  ],
  "size": 1557,
  "weight": 3003,
  "fee": 9021,
  "status": {
    "confirmed": true,
    "block_height": 834464,
    "block_hash": "0000000000000000000177a0869a911a2b65c9bdcd5a8bcb02b68f305bee848e",
    "block_time": 1710308296
  },
  "hex": "0100000000010a4db1746034b15533a9d07ec53fc12c08fe264b3336bdd3d1a05f8c71d9c87e2e0000000000fdffffffc85b0a70bf81c3ffc9a20a22a9c97baa40f902169f7742972da6c4d2cc7e3e3a0000000000fdffffffd9792cb4b323e1cdcf8c1ef6fc1edb0813057caadae75526509dc55e2caeab6d0900000000fdffffff632f16f3f7284e26c369c24808c2427ebe11831e441fff0c0394e25f7f996a741800000000fdffffffa7a276d0dca0600bd81d6a6ece19cf731b4d5cb339afbd11b07949e21d88d6990900000000fdffffffe65c90efaee59de698bd1e02463768b209fcfb5ba0d601ba15eca0c3e3f5dcad1700000000fdffffff3bcfda9ba0ea6f2b5508709876af609d29fc5144a56b75aacb7c753cc578b4b10100000000fdfffffff75b452b5f8957a8d95f013cbe305000b5b3a3d30128ff345e90d3d53ba7ced00c00000000fdffffffb98569cf3d25d3bb86534cc745d2222b6b2f490f40bbe149b60737795a7525f50a00000000fdfffffff0c40ffc399cf12225b6b2ab09da4112f24390ff49c11ee5057ee13b8fb3505e0800000000fdffffff0200e1f50500000000160014ee19ada973baff63e3b620cf51a3e55052dd154a6c53220000000000160014e0a1849b2f617e16ae204d2cbd543e191517dbf40247304402206e987997142bcbf4e88a577ca0b80d0b05f2f05818cd906a5c5cc49a5692755302202df949154e3fe5b20acdf9f669a67dbbcaccbbcc307c344c7bfd8e9dc8383af10121028bf0a1d2214d9e3299c06bd8df187aa6261933f6615881627b87f28beae0fadc02483045022100ef498f2910b63e6b8ee22146e4d0eee1b7269a66f3e8bbd2df3cc73817f9aec10220390238a60474dc344cab1add8aa915cbd2d63a7407ddd197dec435eb4ce35d7b0121028bf0a1d2214d9e3299c06bd8df187aa6261933f6615881627b87f28beae0fadc0247304402201748bfb0d335cfbc3a769f3da18b2dd78919c958008efbf0fcce2dad6ce39f6102200c494005c74643b792a7f195e829f31992695a64a5dc2007b13920c103eea1040121028bf0a1d2214d9e3299c06bd8df187aa6261933f6615881627b87f28beae0fadc0247304402203fb6fda26e4d86c65bf90a443309d35bddcc35be299ba7a473f6a773f0e6b102022036c5c07d36bfe88e79728ee7c1c3fed38be64dfe003232f49701d26c03a9138d0121028bf0a1d2214d9e3299c06bd8df187aa6261933f6615881627b87f28beae0fadc0247304402203bad56297fb9015f08a568f108dae47472f34bf8febaf762c1d0d2e80362d0a00220296bb861e56c7bb86e2acc034502bfee0ffc7dbaa908fb3d07eb035728f4f1c70121028bf0a1d2214d9e3299c06bd8df187aa6261933f6615881627b87f28beae0fadc02483045022100ce8a706e20a0c95f885b6f6f2d7d53bd119fc73f85c136622dc10cb29c59fbde0220291fa11e507b9462b45f8c3eeffc0071844121286ba68be17ecb89e0acc78f220121028bf0a1d2214d9e3299c06bd8df187aa6261933f6615881627b87f28beae0fadc0247304402202203a5e93c3630808eabe6e66d0aeff5f803adfbd492eab99a9acc732e72d615022072f30859a30044f55875798d17cb79648dd487ff268dcd2b4d52e316f19fec370121025d5519c04697aac4af081555152ef45bf2a635d675c3e7817123f9550603e11f024730440220281e5d7152657edb6c73b3ac2f301cb78c54636ebca4c0b94e338d0f5d8b3f4702206c7cbf66881c729b7c2e7ba4adfc84b9d8d6d6cb35360c1f5ec772c392b4de2101210344f04e9c85c45f857738db69c35e2c4192f772c68357a616dea4fb4222902d8802473044022067395bafb9a9d6be8ad5a0c344b9aed49f24dfcef063ebe3d62305301cac465702203ad69d97f384066023371e180283747fa15677d82e9015c9ad971a97279a08da012103cb9259526d27d8e6702d48149f8acb791df27b51a61e6c25f2c1e60ab48d464f02483045022100bf96c23ab25121824bf447ba745197c4a80aa0df675ffc0949a25fa7828c154b02200790186765c12429481fc526a20d3230cd8ccd9875c4d88209f195e5c741f0740121034016c11adb6a84ed31c4b780aac33943c3ae930a16a4ff24778e15cc3b8809b100000000"
}