{
  "txid": "089aaf0d90529605e92de89f303b6daac6a8b3d2365ab1843a06763ff3a61b65",
  "version": 1,
  "locktime": 0,
  "vin": [
    {
      "txid": "6a2a279e9d2d6f755a1a496f33407b9a01265d6a399c7cd56276baa9dbce3548",
      "vout": 1,
      "prevout": {
        "scriptpubkey": "001437b469b23d66b54115cb2eac917201c1403bd793",
        "scriptpubkey_asm": "OP_0 OP_PUSHBYTES_20 37b469b23d66b54115cb2eac917201c1403bd793",
        "scriptpubkey_type": "v0_p2wpkh",
        "scriptpubkey_address": "bc1qx76xnv3av665z9wt96kfzuspc9qrh4unn2xj8p",
        "value": 387046
      },
      "scriptsig": "",
      "scriptsig_asm": "",
      "witness": [
        "30450221008399784ad95e18b2e93ba19e364f49e238ffdd43953f77187b21f7763403a12b022003cbea3b9595a32fea200f378f6fb0dc39292826c2565fef8a27ee41dd01ef9f01",
        "02c6aedea404ea185bcd8a7186e1e0d0d02643d81d3b2025a770a562af3ed1fc11"
      ],
      "is_coinbase": false,
      "sequence": 4294967295
    }
  ],
  "vout": [
    {
      "scriptpubkey": "a9142f465525446067b7f27099813fb19858ea56e4bf87",
      "scriptpubkey_asm": "OP_HASH160 OP_PUSHBYTES_20 2f465525446067b7f27099813fb19858ea56e4bf OP_EQUAL",
      "scriptpubkey_type": "p2sh",
      "scriptpubkey_address": "35zywMWn4Zbgsih45hNMSwSioHWWs95aff",
      "value": 42000
    },
    {
      "scriptpubkey": "001437b469b23d66b54115cb2eac917201c1403bd793",
      "scriptpubkey_asm": "OP_0 OP_PUSHBYTES_20 37b469b23d66b54115cb2eac917201c1403bd793",
      "scriptpubkey_type": "v0_p2wpkh",
      "scriptpubkey_address": "bc1qx76xnv3av665z9wt96kfzuspc9qrh4unn2xj8p",
      "value": 341212
    }
  ],
  "size": 224,
  "weight": 566,
  "fee": 3834,
  "status": {
    "confirmed": true,
    "block_height": 834638,
    "block_hash": "000000000000000000025f742c626208ac87e0b7d15054abb4a19ca2d735a54e",
    "block_time": 1710405325
  },
  "hex": "010000000001014835cedba9ba7662d57c9c396a5d26019a7b40336f491a5a756f2d9d9e272a6a0100000000ffffffff0210a400000000000017a9142f465525446067b7f27099813fb19858ea56e4bf87dc3405000000000016001437b469b23d66b54115cb2eac917201c1403bd793024830450221008399784ad95e18b2e93ba19e364f49e238ffdd43953f77187b21f7763403a12b022003cbea3b9595a32fea200f378f6fb0dc39292826c2565fef8a27ee41dd01ef9f012102c6aedea404ea185bcd8a7186e1e0d0d02643d81d3b2025a770a562af3ed1fc1100000000"
}