{
  "txid": "08a507b4a8069c40c63d0256070520a12192df1154bcf73358c422286d2c93da",
  "version": 1,
  "locktime": 0,
  "vin": [
    {
      "txid": "11a751c753f0f85b09aa9f171cce8a037b0b75884f56b8e639e6c22f790e5cae",
      "vout": 2,
      "prevout": {
        "scriptpubkey": "5120f74402ef0cfd191c021ce24d24e98c6bc1a3d7e168b43a15e14f7790b5bc015e",
        "scriptpubkey_asm": "OP_PUSHNUM_1 OP_PUSHBYTES_32 f74402ef0cfd191c021ce24d24e98c6bc1a3d7e168b43a15e14f7790b5bc015e",
        "scriptpubkey_type": "v1_p2tr",
        "scriptpubkey_address": "bc1p7azq9mcvl5v3cqsuufxjf6vvd0q684lpdz6r590pfamepdduq90qwd2rrw",
        "value": 38920
      },
      "scriptsig": "",
      "scriptsig_asm": "",
      "witness": [
        "690e0e8b92b239fea21dc7faec97b77fbaa935b9df5e5edeb5bba811ad66425cbb791b8d14e27d1374de287a87a710ade66d017a4f53f975ccbcd2bc64627cc5"
      ],
      "is_coinbase": false,
      "sequence": 4294967293
    }
  ],
  "vout": [
    {
      "scriptpubkey": "76a914e593c5d4f28b04c3c35cfd3960b44704548d9abc88ac",
      "scriptpubkey_asm": "OP_DUP OP_HASH160 OP_PUSHBYTES_20 e593c5d4f28b04c3c35cfd3960b44704548d9abc OP_EQUALVERIFY OP_CHECKSIG",
      "scriptpubkey_type": "p2pkh",
      "scriptpubkey_address": "1MvtmMzdo8nmiwbSA7JyT4acbuQBzk4fY4",
      "value": 37800
    }
  ],
  "size": 153,
  "weight": 408,
  "fee": 1120,
  "status": {
    "confirmed": true,
    "block_height": 834464,
    "block_hash": "0000000000000000000177a0869a911a2b65c9bdcd5a8bcb02b68f305bee848e",
    "block_time": 1710308296
  },
  "hex": "01000000000101ae5c0e792fc2e639e6b8564f88750b7b038ace1c179faa095bf8f053c751a7110200000000fdffffff01a8930000000000001976a914e593c5d4f28b04c3c35cfd3960b44704548d9abc88ac0140690e0e8b92b239fea21dc7faec97b77fbaa935b9df5e5edeb5bba811ad66425cbb791b8d14e27d1374de287a87a710ade66d017a4f53f975ccbcd2bc64627cc500000000"
}