{
  "txid": "08a76911a1e58d455aaaa0360b2b2cfee503d6d40ef17935d354ec4128a71417",
  "version": 1,
  "locktime": 0,
  "vin": [
    {
      "txid": "c84d9ec3a8e1d2bd7ed317bc71fcc4910ffb188c80653c1286386fc9c357bebe",
      "vout": 18,
      "prevout": {
        "scriptpubkey": "76a914768f8bd9aa90155d83b6edc592a765ed990e40a588ac",
        "scriptpubkey_asm": "OP_DUP OP_HASH160 OP_PUSHBYTES_20 768f8bd9aa90155d83b6edc592a765ed990e40a5 OP_EQUALVERIFY OP_CHECKSIG",
        "scriptpubkey_type": "p2pkh",
        "scriptpubkey_address": "1BothQcQNSpgFtkpWsvk5MHviAX9gX2V8h",
        "value": 1509419
      },
      "scriptsig": "4730440220355e140ffe359f86f3a2a1c3166ebdfbc36726e78342069072b570eb77b1f50d022073d1fc77b6deb896e8144d05060641540cb45fc3a9b0ca77c1908c768a84d13a012102d9bc9b5ba9bcb60188a27e6c405ce997ba07df6062c9d0d6b4e359e3822b9211",
      "scriptsig_asm": "OP_PUSHBYTES_71 30440220355e140ffe359f86f3a2a1c3166ebdfbc36726e78342069072b570eb77b1f50d022073d1fc77b6deb896e8144d05060641540cb45fc3a9b0ca77c1908c768a84d13a01 OP_PUSHBYTES_33 02d9bc9b5ba9bcb60188a27e6c405ce997ba07df6062c9d0d6b4e359e3822b9211",
      "is_coinbase": false,
      "sequence": 4294967293
    },
    {
      "txid": "3ad91d487b042ba35a64323079abe3fe03a8eba9b69eae0124eeb149010f26a0",
      "vout": 0,
      "prevout": {
        "scriptpubkey": "76a9143cad367f8898f44ea13ae3043dd48a2cf14746ea88ac",
        "scriptpubkey_asm": "OP_DUP OP_HASH160 OP_PUSHBYTES_20 3cad367f8898f44ea13ae3043dd48a2cf14746ea OP_EQUALVERIFY OP_CHECKSIG",
        "scriptpubkey_type": "p2pkh",
        "scriptpubkey_address": "16Xq3Z1nydqCg1a44zy8eYNA4kCbST96jp",
        "value": 7500000
      },
      "scriptsig": "473044022031b6c81471600f802968cfebe07d3a0563514242acc407a3d50e9d3887fd587b02205009e67b95366fc80c7e7ef712615b441097c5ea2a54e07b284fa4cb5a18b900012103060fc53448644e9a658f0863bfc64461f5a21673aa1713426891baf670a948bf",
      "scriptsig_asm": "OP_PUSHBYTES_71 3044022031b6c81471600f802968cfebe07d3a0563514242acc407a3d50e9d3887fd587b02205009e67b95366fc80c7e7ef712615b441097c5ea2a54e07b284fa4cb5a18b90001 OP_PUSHBYTES_33 03060fc53448644e9a658f0863bfc64461f5a21673aa1713426891baf670a948bf",
      "is_coinbase": false,
      "sequence": 4294967293
    },
    {
      "txid": "bc940b7d28c18317aa98758e9d14450182de86e53576b376cb0e1a17f1ea7536",
      "vout": 0,
      "prevout": {
        "scriptpubkey": "76a91407e258d624921d68e0d5124cecb00e5dc0584e0288ac",
        "scriptpubkey_asm": "OP_DUP OP_HASH160 OP_PUSHBYTES_20 07e258d624921d68e0d5124cecb00e5dc0584e02 OP_EQUALVERIFY OP_CHECKSIG",
        "scriptpubkey_type": "p2pkh",
        "scriptpubkey_address": "1igtD96dgtmDmpdzMFvvYuRVqcCKhTzrz",
        "value": 460000
      },
      "scriptsig": "483045022100e310adab5ec5da964f82696d44bc255a7e4e291b0d6407834de105eea2e6b990022066efc74a74776722c9e981865fed18bc347d559c3c308119e2ccf58824f88cd5012102f2885ec53e431e6f48ab777c941eff0a6005c4c60bed99f6533103eb28d17731",
      "scriptsig_asm": "OP_PUSHBYTES_72 3045022100e310adab5ec5da964f82696d44bc255a7e4e291b0d6407834de105eea2e6b990022066efc74a74776722c9e981865fed18bc347d559c3c308119e2ccf58824f88cd501 OP_PUSHBYTES_33 02f2885ec53e431e6f48ab777c941eff0a6005c4c60bed99f6533103eb28d17731",
      "is_coinbase": false,
      "sequence": 4294967293
    },
    {
      "txid": "a31694b236526840a3cd0d2c73a7e01bd9b33f63cb2558874eec507801aeac1f",
      "vout": 0,
      "prevout": {
        "scriptpubkey": "76a9140e2193a861c18617db7f913b7822d2cd564c486f88ac",
        "scriptpubkey_asm": "OP_DUP OP_HASH160 OP_PUSHBYTES_20 0e2193a861c18617db7f913b7822d2cd564c486f OP_EQUALVERIFY OP_CHECKSIG",
        "scriptpubkey_type": "p2pkh",
        "scriptpubkey_address": "12HigeDswNs6Yizf2oCS4tutUUD9zNuWdo",
        "value": 635339
      },
      "scriptsig": "48304502210080f520bda13594914557f85f7187fd438d3c6172102af2c815937a9c0c6b957302203251fc8ad3c36014c3d947437a7ec30da6a7eba747434e822c13b15093a0824a012102cd2b4d406849cb8690098c8551994f4e90b016b63a5f6878a85d068931ed19c5",
      "scriptsig_asm": "OP_PUSHBYTES_72 304502210080f520bda13594914557f85f7187fd438d3c6172102af2c815937a9c0c6b957302203251fc8ad3c36014c3d947437a7ec30da6a7eba747434e822c13b15093a0824a01 OP_PUSHBYTES_33 02cd2b4d406849cb8690098c8551994f4e90b016b63a5f6878a85d068931ed19c5",
      "is_coinbase": false,
      "sequence": 4294967293
    },
    {
      "txid": "1a79747dcba2e32064139795d576ad7e78b2c7889e45424cc79930a640a625a0",
      "vout": 0,
      "prevout": {
        "scriptpubkey": "76a9140e2193a861c18617db7f913b7822d2cd564c486f88ac",
        "scriptpubkey_asm": "OP_DUP OP_HASH160 OP_PUSHBYTES_20 0e2193a861c18617db7f913b7822d2cd564c486f OP_EQUALVERIFY OP_CHECKSIG",
        "scriptpubkey_type": "p2pkh",
        "scriptpubkey_address": "12HigeDswNs6Yizf2oCS4tutUUD9zNuWdo",
        "value": 22490100
      },
      "scriptsig": "483045022100ed4081ede60a62adca09f81b4bae4a3e58b5f247d6dbaf96e16c8d88b09ae87702200f4cabc35455bbe02f852738091c81daa8c5e1e393854c2c749b5ccd11707357012102cd2b4d406849cb8690098c8551994f4e90b016b63a5f6878a85d068931ed19c5",
      "scriptsig_asm": "OP_PUSHBYTES_72 3045022100ed4081ede60a62adca09f81b4bae4a3e58b5f247d6dbaf96e16c8d88b09ae87702200f4cabc35455bbe02f852738091c81daa8c5e1e393854c2c749b5ccd1170735701 OP_PUSHBYTES_33 02cd2b4d406849cb8690098c8551994f4e90b016b63a5f6878a85d068931ed19c5",
      "is_coinbase": false,
      "sequence": 4294967293
    },
    {
      "txid": "e4fc61618fd31d4803ea2c3c1de15ca006bf7db0de4fc9c74dc712e151be2e40",
      "vout": 298,
      "prevout": {
        "scriptpubkey": "76a914d1503e75f4c785a5641fc8a942e05f3322246c3a88ac",
        "scriptpubkey_asm": "OP_DUP OP_HASH160 OP_PUSHBYTES_20 d1503e75f4c785a5641fc8a942e05f3322246c3a OP_EQUALVERIFY OP_CHECKSIG",
        "scriptpubkey_type": "p2pkh",
        "scriptpubkey_address": "1L5kMYU7tviWG6oHtA4DoFPaYDYeKaSpy4",
        "value": 500021
      },
      "scriptsig": "483045022100bdaa54a9d63d1fafe06deb33743b75de29babc61deaea264db02bc844da81f7802201d6a6090111c16fd34605b775748502ca147e3af2d27934954e9a57271605529012103544aa67db98b54c69688f6fce45ef706e82ef81ca51c31bd879a09c3e9ca1df4",
      "scriptsig_asm": "OP_PUSHBYTES_72 3045022100bdaa54a9d63d1fafe06deb33743b75de29babc61deaea264db02bc844da81f7802201d6a6090111c16fd34605b775748502ca147e3af2d27934954e9a5727160552901 OP_PUSHBYTES_33 03544aa67db98b54c69688f6fce45ef706e82ef81ca51c31bd879a09c3e9ca1df4",
      "is_coinbase": false,
      "sequence": 4294967293
    },
    {
      "txid": "79fd65612a42ce8f995a4c538866837cf03b209aaf8a98888f82a4700625effe",
      "vout": 0,
      "prevout": {
        "scriptpubkey": "76a914a4b78efce8bcbfda0ba7ec39f37e4d3ed1841d9788ac",
        "scriptpubkey_asm": "OP_DUP OP_HASH160 OP_PUSHBYTES_20 a4b78efce8bcbfda0ba7ec39f37e4d3ed1841d97 OP_EQUALVERIFY OP_CHECKSIG",
        "scriptpubkey_type": "p2pkh",
        "scriptpubkey_address": "1G1wiLEVNf2aPtUeW1dYj2kXtQXEvWQKYb",
        "value": 407386
      },
      "scriptsig": "483045022100f5d13af0b4e46e42aac780d9e0c9c2e32d7af2274e2992533d734043291981db02206f12a471202eb170fa98b57408a79e1b7a9ec0d5928097031ed53e158c994d29012102caa87cef6c6bc6785fb8d24ad5ecdea252d3f25bcc48fe01e64f13ce65cbe40f",
      "scriptsig_asm": "OP_PUSHBYTES_72 3045022100f5d13af0b4e46e42aac780d9e0c9c2e32d7af2274e2992533d734043291981db02206f12a471202eb170fa98b57408a79e1b7a9ec0d5928097031ed53e158c994d2901 OP_PUSHBYTES_33 02caa87cef6c6bc6785fb8d24ad5ecdea252d3f25bcc48fe01e64f13ce65cbe40f",
      "is_coinbase": false,
      "sequence": 4294967293
    },
    {
      "txid": "c84d9ec3a8e1d2bd7ed317bc71fcc4910ffb188c80653c1286386fc9c357bebe",
      "vout": 21,
      "prevout": {
        "scriptpubkey": "76a91431c519a33c892b7be72cd8c8644bc05e297e70ab88ac",
        "scriptpubkey_asm": "OP_DUP OP_HASH160 OP_PUSHBYTES_20 31c519a33c892b7be72cd8c8644bc05e297e70ab OP_EQUALVERIFY OP_CHECKSIG",
        "scriptpubkey_type": "p2pkh",
        "scriptpubkey_address": "15YAEAAVB6aTNVBEh1p56qeVKUR9ujZsAo",
        "value": 581235
      },
      "scriptsig": "4730440220206351dbd9da6957ca4b7cb7b5136e6b98e3f996163c052618be21366471968c02201edc1a031ecd43e34aaeebf29ad803d85019bf988dba281703dd340b3852e3d4012103e83754f47ed3c383b5852dd608604108be003e47d8682095e975e623b30fd4dc",
      "scriptsig_asm": "OP_PUSHBYTES_71 30440220206351dbd9da6957ca4b7cb7b5136e6b98e3f996163c052618be21366471968c02201edc1a031ecd43e34aaeebf29ad803d85019bf988dba281703dd340b3852e3d401 OP_PUSHBYTES_33 03e83754f47ed3c383b5852dd608604108be003e47d8682095e975e623b30fd4dc",
      "is_coinbase": false,
      "sequence": 4294967293
    },
    {
      "txid": "c84d9ec3a8e1d2bd7ed317bc71fcc4910ffb188c80653c1286386fc9c357bebe",
      "vout": 226,
      "prevout": {
        "scriptpubkey": "76a9146f1e48e34aa0bdad5184d2392e545eeac7678bb188ac",
        "scriptpubkey_asm": "OP_DUP OP_HASH160 OP_PUSHBYTES_20 6f1e48e34aa0bdad5184d2392e545eeac7678bb1 OP_EQUALVERIFY OP_CHECKSIG",
        "scriptpubkey_type": "p2pkh",
        "scriptpubkey_address": "1B8YHWiLAU5BySzZppi94F9ozniVCoFu6q",
        "value": 988863
      },
      "scriptsig": "48304502210087a8238a82506bdd9dc3d9407188aaf5fd53fe5de06b3c509d312a91d9570f1c02200e5f34ef0023379406b805ad39d612e495e019e45d2d34b477f3d46f0e7cafda01210356cff2772e65d780ba89f8a68048eec972b452bfb2901c3295d80b7bbc4a817f",
      "scriptsig_asm": "OP_PUSHBYTES_72 304502210087a8238a82506bdd9dc3d9407188aaf5fd53fe5de06b3c509d312a91d9570f1c02200e5f34ef0023379406b805ad39d612e495e019e45d2d34b477f3d46f0e7cafda01 OP_PUSHBYTES_33 0356cff2772e65d780ba89f8a68048eec972b452bfb2901c3295d80b7bbc4a817f",
      "is_coinbase": false,
      "sequence": 4294967293
    },
    {
      "txid": "e4fc61618fd31d4803ea2c3c1de15ca006bf7db0de4fc9c74dc712e151be2e40",
      "vout": 93,
      "prevout": {
        "scriptpubkey": "76a9149bfdc32a0e7ad9bc758e68b7388dee1750bc14b188ac",
        "scriptpubkey_asm": "OP_DUP OP_HASH160 OP_PUSHBYTES_20 9bfdc32a0e7ad9bc758e68b7388dee1750bc14b1 OP_EQUALVERIFY OP_CHECKSIG",
        "scriptpubkey_type": "p2pkh",
        "scriptpubkey_address": "1FDojTCGgFWXECSXHZeH1UzC9ZH9mdZVfi",
        "value": 501959
      },
      "scriptsig": "483045022100b7434cb6e7dca14d3f2b129588027dcd8011c8903d1ae9334a048c8ac8466513022037c809cd9681dca1141ae25510e3548d5bf809ab4e30fd541c058e1611001af4012102b0680a7f3154a8cc30ba4518159005eb6636792a359ccde20ca1a87b2cc25376",
      "scriptsig_asm": "OP_PUSHBYTES_72 3045022100b7434cb6e7dca14d3f2b129588027dcd8011c8903d1ae9334a048c8ac8466513022037c809cd9681dca1141ae25510e3548d5bf809ab4e30fd541c058e1611001af401 OP_PUSHBYTES_33 02b0680a7f3154a8cc30ba4518159005eb6636792a359ccde20ca1a87b2cc25376",
      "is_coinbase": false,
      "sequence": 4294967293
    },
    {
      "txid": "c84d9ec3a8e1d2bd7ed317bc71fcc4910ffb188c80653c1286386fc9c357bebe",
      "vout": 393,
      "prevout": {
        "scriptpubkey": "76a914ffd6d3a7e96e218e3d78eb45892de1d9b9d798f488ac",
        "scriptpubkey_asm": "OP_DUP OP_HASH160 OP_PUSHBYTES_20 ffd6d3a7e96e218e3d78eb45892de1d9b9d798f4 OP_EQUALVERIFY OP_CHECKSIG",
        "scriptpubkey_type": "p2pkh",
        "scriptpubkey_address": "1QKkfLuRgHGVdnQUctfhGsn9GNXWeBHXpS",
        "value": 340808
      },
      "scriptsig": "4730440220020bfc224b555a5247e3ee86785683a9469561c850f8b50425b4cda8348cc2f3022038bea9c4d0c92a9773d44757e26d361ee3f27200efd06d01128b987300fb1b6b012102d612c6182ce314ec74be7ab768740db25009fe2b167721fcd58bae841284b52a",
      "scriptsig_asm": "OP_PUSHBYTES_71 30440220020bfc224b555a5247e3ee86785683a9469561c850f8b50425b4cda8348cc2f3022038bea9c4d0c92a9773d44757e26d361ee3f27200efd06d01128b987300fb1b6b01 OP_PUSHBYTES_33 02d612c6182ce314ec74be7ab768740db25009fe2b167721fcd58bae841284b52a",
      "is_coinbase": false,
      "sequence": 4294967293
    },
    {
      "txid": "c84d9ec3a8e1d2bd7ed317bc71fcc4910ffb188c80653c1286386fc9c357bebe",
      "vout": 414,
      "prevout": {
        "scriptpubkey": "76a9143f0e61ceb569819d181d6392c036d3bb3cd142bf88ac",
        "scriptpubkey_asm": "OP_DUP OP_HASH160 OP_PUSHBYTES_20 3f0e61ceb569819d181d6392c036d3bb3cd142bf OP_EQUALVERIFY OP_CHECKSIG",
        "scriptpubkey_type": "p2pkh",
        "scriptpubkey_address": "16kQoNNGGhrprkFBvXvm26dcTQgTy7TpV9",
        "value": 547381
      },
      "scriptsig": "483045022100fe89879c65138b53fa3cabf70157b3f5c32e7a5746b6de34a4c07f160892dc49022002c2fe456e01158c37caa73935d444bf88a550cff45bbde488d9983328f7af83012103886efc3de9dddae9e4861b6c31f8881a5d5698ca6ac1f165f376cbe1255b9779",
      "scriptsig_asm": "OP_PUSHBYTES_72 3045022100fe89879c65138b53fa3cabf70157b3f5c32e7a5746b6de34a4c07f160892dc49022002c2fe456e01158c37caa73935d444bf88a550cff45bbde488d9983328f7af8301 OP_PUSHBYTES_33 03886efc3de9dddae9e4861b6c31f8881a5d5698ca6ac1f165f376cbe1255b9779",
      "is_coinbase": false,
      "sequence": 4294967293
    },
    {
      "txid": "9b46b462cdf111cd9f83bb289a8eeba170aae9b72262a7feccdb8642e0cbd42d",
      "vout": 62,
      "prevout": {
        "scriptpubkey": "76a914223f5b91b1734a5ac6be6bbf8a265b362e4f031088ac",
        "scriptpubkey_asm": "OP_DUP OP_HASH160 OP_PUSHBYTES_20 223f5b91b1734a5ac6be6bbf8a265b362e4f0310 OP_EQUALVERIFY OP_CHECKSIG",
        "scriptpubkey_type": "p2pkh",
        "scriptpubkey_address": "1485sh8M9oh7aRydXgC5wxYmsaSHBkBtVm",
        "value": 4088444
      },
      "scriptsig": "483045022100bbe8e7005f080a8b8650168abe6315e6120b00f400330a5be0b759d49c60b29b02207284693c11b8e9ea2406138fb4dc85ec4e6ed8da92423822442a499b53c1d35101210378950a0a73849c0a893ed68d435cf2b1e78fae6b37a048464eda185127c703ef",
      "scriptsig_asm": "OP_PUSHBYTES_72 3045022100bbe8e7005f080a8b8650168abe6315e6120b00f400330a5be0b759d49c60b29b02207284693c11b8e9ea2406138fb4dc85ec4e6ed8da92423822442a499b53c1d35101 OP_PUSHBYTES_33 0378950a0a73849c0a893ed68d435cf2b1e78fae6b37a048464eda185127c703ef",
      "is_coinbase": false,
      "sequence": 4294967293
    },
    {
      "txid": "5032d895944fdb428e2aeeb022f32070c6db8b7421738bdee91444f3a8fa6465",
      "vout": 3,
      "prevout": {
        "scriptpubkey": "76a9146722fe5e2934e597fec55c44aee492c787d042a688ac",
        "scriptpubkey_asm": "OP_DUP OP_HASH160 OP_PUSHBYTES_20 6722fe5e2934e597fec55c44aee492c787d042a6 OP_EQUALVERIFY OP_CHECKSIG",
        "scriptpubkey_type": "p2pkh",
        "scriptpubkey_address": "1AQLXAB6aXSVbRMjbhSBudLf1kcsbWSEjg",
        "value": 325525685
      },
      "scriptsig": "483045022100c0bd776881f113200f781edc9c75474cb0221099906ef5832b5cafd621421df402203cedb69e20cbb4042c7c8b1b354e7289248041c83ad7dc8de3e6c9f5527535a301210295691e6234d116e9386d91f31c4083c022b502de4210d1d98826d8ac3cf55c24",
      "scriptsig_asm": "OP_PUSHBYTES_72 3045022100c0bd776881f113200f781edc9c75474cb0221099906ef5832b5cafd621421df402203cedb69e20cbb4042c7c8b1b354e7289248041c83ad7dc8de3e6c9f5527535a301 OP_PUSHBYTES_33 0295691e6234d116e9386d91f31c4083c022b502de4210d1d98826d8ac3cf55c24",
      "is_coinbase": false,
      "sequence": 4294967293
    },
    {
      "txid": "6bcde95b47005704cd41cea625d2d0210ed0207e48ed7151edc006b8f5dae691",
      "vout": 2,
      "prevout": {
        "scriptpubkey": "76a9146722fe5e2934e597fec55c44aee492c787d042a688ac",
        "scriptpubkey_asm": "OP_DUP OP_HASH160 OP_PUSHBYTES_20 6722fe5e2934e597fec55c44aee492c787d042a6 OP_EQUALVERIFY OP_CHECKSIG",
        "scriptpubkey_type": "p2pkh",
        "scriptpubkey_address": "1AQLXAB6aXSVbRMjbhSBudLf1kcsbWSEjg",
        "value": 69862440
      },
      "scriptsig": "47304402202217b3c83a9daa3b86accedceb750f93c30b137f2b28054b9dfed3f164bcf44e022005f6dd4311e8dc6241c09acb334edf5c35b5ba58640d4f0b7cfd8544844dea6c01210295691e6234d116e9386d91f31c4083c022b502de4210d1d98826d8ac3cf55c24",
      "scriptsig_asm": "OP_PUSHBYTES_71 304402202217b3c83a9daa3b86accedceb750f93c30b137f2b28054b9dfed3f164bcf44e022005f6dd4311e8dc6241c09acb334edf5c35b5ba58640d4f0b7cfd8544844dea6c01 OP_PUSHBYTES_33 0295691e6234d116e9386d91f31c4083c022b502de4210d1d98826d8ac3cf55c24",
      "is_coinbase": false,
      "sequence": 4294967293
    },
    {
      "txid": "425d85634a447013cd7e5c1859267161d314b7831d8d28f4b6d2c7382f5c046d",
      "vout": 0,
      "prevout": {
        "scriptpubkey": "76a9140e2193a861c18617db7f913b7822d2cd564c486f88ac",
        "scriptpubkey_asm": "OP_DUP OP_HASH160 OP_PUSHBYTES_20 0e2193a861c18617db7f913b7822d2cd564c486f OP_EQUALVERIFY OP_CHECKSIG",
        "scriptpubkey_type": "p2pkh",
        "scriptpubkey_address": "12HigeDswNs6Yizf2oCS4tutUUD9zNuWdo",
        "value": 197742
      },
      "scriptsig": "473044022022f1db1e969d9e7993c0fdbc74dca3f39d6327d513276a665fff81b9f74f3da002206f1b8efdfb0ae6474d0e5413a5021cd01967cf287c1ea0a41cfc1fe68996d437012102cd2b4d406849cb8690098c8551994f4e90b016b63a5f6878a85d068931ed19c5",
      "scriptsig_asm": "OP_PUSHBYTES_71 3044022022f1db1e969d9e7993c0fdbc74dca3f39d6327d513276a665fff81b9f74f3da002206f1b8efdfb0ae6474d0e5413a5021cd01967cf287c1ea0a41cfc1fe68996d43701 OP_PUSHBYTES_33 02cd2b4d406849cb8690098c8551994f4e90b016b63a5f6878a85d068931ed19c5",
      "is_coinbase": false,
      "sequence": 4294967293
    },
    {
      "txid": "c84d9ec3a8e1d2bd7ed317bc71fcc4910ffb188c80653c1286386fc9c357bebe",
      "vout": 413,
      "prevout": {
        "scriptpubkey": "76a914217448b5373e22c57ee899728fce572c7405534b88ac",
        "scriptpubkey_asm": "OP_DUP OP_HASH160 OP_PUSHBYTES_20 217448b5373e22c57ee899728fce572c7405534b OP_EQUALVERIFY OP_CHECKSIG",
        "scriptpubkey_type": "p2pkh",
        "scriptpubkey_address": "143tbtMYxZT7U3fVhEbsytGqCxarLmMHya",
        "value": 515584
      },
      "scriptsig": "473044022029814d8ec0ee50cba0aae088c07bc4087e279902bfc942d6d05d1a70efb7db5202206570a89c2b91d0e58c3f364ceb4bdcc249365dde0be9f33ebaba2343553261ff012102b7696ab0df42b7e5fb0f42ae1f372b99682c56e988f3b5f44a0bf149dfe4a39a",
      "scriptsig_asm": "OP_PUSHBYTES_71 3044022029814d8ec0ee50cba0aae088c07bc4087e279902bfc942d6d05d1a70efb7db5202206570a89c2b91d0e58c3f364ceb4bdcc249365dde0be9f33ebaba2343553261ff01 OP_PUSHBYTES_33 02b7696ab0df42b7e5fb0f42ae1f372b99682c56e988f3b5f44a0bf149dfe4a39a",
      "is_coinbase": false,
      "sequence": 4294967293
    },
    {
      "txid": "fae7c38b4b00c20ea4c6d16b5553262be5d7e245c73f5a2280b421fe114fbd36",
      "vout": 0,
      "prevout": {
        "scriptpubkey": "76a914c622a4d552fff29aefd0ff3b33d7e3ff7fb898af88ac",
        "scriptpubkey_asm": "OP_DUP OP_HASH160 OP_PUSHBYTES_20 c622a4d552fff29aefd0ff3b33d7e3ff7fb898af OP_EQUALVERIFY OP_CHECKSIG",
        "scriptpubkey_type": "p2pkh",
        "scriptpubkey_address": "1K4eJ5irzB45nvxoJEDCpvYHPxbbhL391v",
        "value": 196963
      },
      "scriptsig": "473044022025e71b71862a1d9da22ab31691e079ec92db4c58e105ffab9758b985e46599e502204383ee8a0c4e3889d9a1fc249f517aa18db42fed8da31ac8f4b3106269e93e76012102ed8404d50a4a7eb5b41b5805c7b55e98abdd01ccdae4fe93ec6cd08a0c33f94f",
      "scriptsig_asm": "OP_PUSHBYTES_71 3044022025e71b71862a1d9da22ab31691e079ec92db4c58e105ffab9758b985e46599e502204383ee8a0c4e3889d9a1fc249f517aa18db42fed8da31ac8f4b3106269e93e7601 OP_PUSHBYTES_33 02ed8404d50a4a7eb5b41b5805c7b55e98abdd01ccdae4fe93ec6cd08a0c33f94f",
      "is_coinbase": false,
      "sequence": 4294967293
    },
    {
      "txid": "c84d9ec3a8e1d2bd7ed317bc71fcc4910ffb188c80653c1286386fc9c357bebe",
      "vout": 482,
      "prevout": {
        "scriptpubkey": "76a914a2bd2260a67775766a55fd90244b45d87102f3dc88ac",
        "scriptpubkey_asm": "OP_DUP OP_HASH160 OP_PUSHBYTES_20 a2bd2260a67775766a55fd90244b45d87102f3dc OP_EQUALVERIFY OP_CHECKSIG",
        "scriptpubkey_type": "p2pkh",
        "scriptpubkey_address": "1FqV3MiavnFFqcG3V2FjtZ52i1zEkVuYCg",
        "value": 569797
      },
      "scriptsig": "473044022069c465da4bffb0f98ce57980c42880546add65436be69e5d1af04e5f1316a6bf022049f3211088743ca4a16fe2833cca9319d5e5a26be5f70407b8f445110a72eb71012103f61e774fe68c5cbac075136031bcfb3ba64bc2c16e9aaa8d5e98a2b5eee20a48",
      "scriptsig_asm": "OP_PUSHBYTES_71 3044022069c465da4bffb0f98ce57980c42880546add65436be69e5d1af04e5f1316a6bf022049f3211088743ca4a16fe2833cca9319d5e5a26be5f70407b8f445110a72eb7101 OP_PUSHBYTES_33 03f61e774fe68c5cbac075136031bcfb3ba64bc2c16e9aaa8d5e98a2b5eee20a48",
      "is_coinbase": false,
      "sequence": 4294967293
    },
    {
      "txid": "4f37a1783b911910b86484bf6cbbdff1a7b94ea88c8e81d05c186ded44bf268a",
      "vout": 1,
      "prevout": {
        "scriptpubkey": "76a9146722fe5e2934e597fec55c44aee492c787d042a688ac",
        "scriptpubkey_asm": "OP_DUP OP_HASH160 OP_PUSHBYTES_20 6722fe5e2934e597fec55c44aee492c787d042a6 OP_EQUALVERIFY OP_CHECKSIG",
        "scriptpubkey_type": "p2pkh",
        "scriptpubkey_address": "1AQLXAB6aXSVbRMjbhSBudLf1kcsbWSEjg",
        "value": 199711249
      },
      "scriptsig": "483045022100e3d1f76f2b5005d90a071b804877f6b3d0fb6a8d529311b6559f0eb567a5ab16022079165ad83226865b046aad70caa5cd9238301a5ad829bff7ffa34659217fe9a901210295691e6234d116e9386d91f31c4083c022b502de4210d1d98826d8ac3cf55c24",
      "scriptsig_asm": "OP_PUSHBYTES_72 3045022100e3d1f76f2b5005d90a071b804877f6b3d0fb6a8d529311b6559f0eb567a5ab16022079165ad83226865b046aad70caa5cd9238301a5ad829bff7ffa34659217fe9a901 OP_PUSHBYTES_33 0295691e6234d116e9386d91f31c4083c022b502de4210d1d98826d8ac3cf55c24",
      "is_coinbase": false,
      "sequence": 4294967293
    },
    {
      "txid": "4ef02210188e0e4dc1a9ad5a9e6baa4ae53038ad91ee89a78aa9333f88996591",
      "vout": 0,
      "prevout": {
        "scriptpubkey": "76a914a3c1f5fb191c77178f3018a2a94f88aa2851829d88ac",
        "scriptpubkey_asm": "OP_DUP OP_HASH160 OP_PUSHBYTES_20 a3c1f5fb191c77178f3018a2a94f88aa2851829d OP_EQUALVERIFY OP_CHECKSIG",
        "scriptpubkey_type": "p2pkh",
        "scriptpubkey_address": "1FvsVuWdfJpPmEiFpqVSju3THUqJiGBP4r",
        "value": 6392135
      },
      "scriptsig": "473044022061037f60b1ddef50234aee81910f303491f37f94175f619f9d699f3fa552cc0402206c10d0c659b965d60b37b65c5eff0534f990f8c141a72d1020aae4560d993cb6012103d420e498ef5e9d763bb1cab1511eadcdb181665abac871a7ec72acecd079945f",
      "scriptsig_asm": "OP_PUSHBYTES_71 3044022061037f60b1ddef50234aee81910f303491f37f94175f619f9d699f3fa552cc0402206c10d0c659b965d60b37b65c5eff0534f990f8c141a72d1020aae4560d993cb601 OP_PUSHBYTES_33 03d420e498ef5e9d763bb1cab1511eadcdb181665abac871a7ec72acecd079945f",
      "is_coinbase": false,
      "sequence": 4294967293
    },
    {
      "txid": "a2acda94d9478af5e718f72a5980bd84ab6e433bbc2945ab0af5d6b8aa1589c3",
      "vout": 0,
      "prevout": {
        "scriptpubkey": "76a9140e2193a861c18617db7f913b7822d2cd564c486f88ac",
        "scriptpubkey_asm": "OP_DUP OP_HASH160 OP_PUSHBYTES_20 0e2193a861c18617db7f913b7822d2cd564c486f OP_EQUALVERIFY OP_CHECKSIG",
        "scriptpubkey_type": "p2pkh",
        "scriptpubkey_address": "12HigeDswNs6Yizf2oCS4tutUUD9zNuWdo",
        "value": 99879100
      },
      "scriptsig": "47304402203d4822e6b1834fc5dbcbfcd1bf4c3d513f445d12b38f735a235d8de6af582437022039499031806c3ce5e095a2d2ecf4658e7a2581075bddef6f701391319c04d178012102cd2b4d406849cb8690098c8551994f4e90b016b63a5f6878a85d068931ed19c5",
      "scriptsig_asm": "OP_PUSHBYTES_71 304402203d4822e6b1834fc5dbcbfcd1bf4c3d513f445d12b38f735a235d8de6af582437022039499031806c3ce5e095a2d2ecf4658e7a2581075bddef6f701391319c04d17801 OP_PUSHBYTES_33 02cd2b4d406849cb8690098c8551994f4e90b016b63a5f6878a85d068931ed19c5",
      "is_coinbase": false,
      "sequence": 4294967293
    },
    {
      "txid": "28c91e46db39a4019ac5e5f47f48fbc5589b9761bb1f45012f26210aecd8c082",
      "vout": 6,
      "prevout": {
        "scriptpubkey": "76a91460cd46b5ebba51af4245bdc93c67a15fecb0d2b988ac",
        "scriptpubkey_asm": "OP_DUP OP_HASH160 OP_PUSHBYTES_20 60cd46b5ebba51af4245bdc93c67a15fecb0d2b9 OP_EQUALVERIFY OP_CHECKSIG",
        "scriptpubkey_type": "p2pkh",
        "scriptpubkey_address": "19pqnFunfGjvDabmLzqqpuj7UgeJTm4AQf",
        "value": 226394
      },
      "scriptsig": "483045022100d028c2b81b0c737412c10bf351f0654255ac1ea25ccaf8b1da926415eaa5d4df02204d2a2df75579140bce592a08e2de6e099293cd40224f6ac55754f9f8a42a041101210368e6a90cab67a1421198e9456e59fed67e79a1cba04c84424264637256e0a7b9",
      "scriptsig_asm": "OP_PUSHBYTES_72 3045022100d028c2b81b0c737412c10bf351f0654255ac1ea25ccaf8b1da926415eaa5d4df02204d2a2df75579140bce592a08e2de6e099293cd40224f6ac55754f9f8a42a041101 OP_PUSHBYTES_33 0368e6a90cab67a1421198e9456e59fed67e79a1cba04c84424264637256e0a7b9",
      "is_coinbase": false,
      "sequence": 4294967293
    },
    {
      "txid": "500c86ce725ea082b35508bac0423ea9526b6c61c2af7537303fee8d2a921bf4",
      "vout": 0,
      "prevout": {
        "scriptpubkey": "76a9140e2193a861c18617db7f913b7822d2cd564c486f88ac",
        "scriptpubkey_asm": "OP_DUP OP_HASH160 OP_PUSHBYTES_20 0e2193a861c18617db7f913b7822d2cd564c486f OP_EQUALVERIFY OP_CHECKSIG",
        "scriptpubkey_type": "p2pkh",
        "scriptpubkey_address": "12HigeDswNs6Yizf2oCS4tutUUD9zNuWdo",
        "value": 2709397
      },
      "scriptsig": "473044022023efef69a74e123633063fa051ebe83027cd149f44b6ce5329b529594cac7de7022018032e9a5eec3126bad749dcb3380033d662425afd2313100cc725a409289d95012102cd2b4d406849cb8690098c8551994f4e90b016b63a5f6878a85d068931ed19c5",
      "scriptsig_asm": "OP_PUSHBYTES_71 3044022023efef69a74e123633063fa051ebe83027cd149f44b6ce5329b529594cac7de7022018032e9a5eec3126bad749dcb3380033d662425afd2313100cc725a409289d9501 OP_PUSHBYTES_33 02cd2b4d406849cb8690098c8551994f4e90b016b63a5f6878a85d068931ed19c5",
      "is_coinbase": false,
      "sequence": 4294967293
    },
    {
      "txid": "e4fc61618fd31d4803ea2c3c1de15ca006bf7db0de4fc9c74dc712e151be2e40",
      "vout": 102,
      "prevout": {
        "scriptpubkey": "76a9149740a6381973345bf1ebf93b0870d4c34687d52788ac",
        "scriptpubkey_asm": "OP_DUP OP_HASH160 OP_PUSHBYTES_20 9740a6381973345bf1ebf93b0870d4c34687d527 OP_EQUALVERIFY OP_CHECKSIG",
        "scriptpubkey_type": "p2pkh",
        "scriptpubkey_address": "1EnkUsvn3YRE1NMF9j1vVzkPaRmZUGTHm2",
        "value": 1489664
      },
      "scriptsig": "473044022056eb01b028fb867d463b5d59231ff7cf9d2d2b81a948e6ebfc96b9fcc2b4c8f6022039a0937ea808c921838f72bef4a30338ea67ea9e00ba7fbcf8c880cece21c9560121021ed11f7b4688734c7d6bf0e76a8aa56f8e20adc2d97caafd7f2088552735cbdf",
      "scriptsig_asm": "OP_PUSHBYTES_71 3044022056eb01b028fb867d463b5d59231ff7cf9d2d2b81a948e6ebfc96b9fcc2b4c8f6022039a0937ea808c921838f72bef4a30338ea67ea9e00ba7fbcf8c880cece21c95601 OP_PUSHBYTES_33 021ed11f7b4688734c7d6bf0e76a8aa56f8e20adc2d97caafd7f2088552735cbdf",
      "is_coinbase": false,
      "sequence": 4294967293
    },
    {
      "txid": "e4fc61618fd31d4803ea2c3c1de15ca006bf7db0de4fc9c74dc712e151be2e40",
      "vout": 399,
      "prevout": {
        "scriptpubkey": "76a9145e38ae4a55b25271e3bc59a797bbf041108c3d8788ac",
        "scriptpubkey_asm": "OP_DUP OP_HASH160 OP_PUSHBYTES_20 5e38ae4a55b25271e3bc59a797bbf041108c3d87 OP_EQUALVERIFY OP_CHECKSIG",
        "scriptpubkey_type": "p2pkh",
        "scriptpubkey_address": "19bCRHWPNYAtDYgf2bXkt47ZRZTVmGoRug",
        "value": 1434087
      },
      "scriptsig": "47304402200b23b894b12be7b5e3ceefcf8119a6bc1b5c0870ff431baaae5104524323f40c022022a6288a7c88d79f8cc61a89bbd9f04702d915394e295468708487d1f016c80501210216270c3c356c862ece0f62eb9d3f45e1cfb26842585d45e9c777094a269a089c",
      "scriptsig_asm": "OP_PUSHBYTES_71 304402200b23b894b12be7b5e3ceefcf8119a6bc1b5c0870ff431baaae5104524323f40c022022a6288a7c88d79f8cc61a89bbd9f04702d915394e295468708487d1f016c80501 OP_PUSHBYTES_33 0216270c3c356c862ece0f62eb9d3f45e1cfb26842585d45e9c777094a269a089c",
      "is_coinbase": false,
      "sequence": 4294967293
    },
    {
      "txid": "7247162decf38964d18f55281c32373c93ccf7c6ccf7b17efbc1b315ce16f778",
      "vout": 2,
      "prevout": {
        "scriptpubkey": "76a91487b938e5063d03c0fccff342fa82c008890bb10288ac",
        "scriptpubkey_asm": "OP_DUP OP_HASH160 OP_PUSHBYTES_20 87b938e5063d03c0fccff342fa82c008890bb102 OP_EQUALVERIFY OP_CHECKSIG",
        "scriptpubkey_type": "p2pkh",
        "scriptpubkey_address": "1DNe7N8SYuqK4E6XRBbWcU1THuKtDUyaoq",
        "value": 977983
      },
      "scriptsig": "48304502210098a8065553929285e9a831a71e2a9b978e3b51710cab9e7602027d298ac5aa3c0220704690f2e224d76ad2543419aa85adcec9c0844af740acabd699d9e0bbab983b012103da5f9aec4854a8daf6572d901969980d37e01a68ab66b81df7122b68754df2be",
      "scriptsig_asm": "OP_PUSHBYTES_72 304502210098a8065553929285e9a831a71e2a9b978e3b51710cab9e7602027d298ac5aa3c0220704690f2e224d76ad2543419aa85adcec9c0844af740acabd699d9e0bbab983b01 OP_PUSHBYTES_33 03da5f9aec4854a8daf6572d901969980d37e01a68ab66b81df7122b68754df2be",
      "is_coinbase": false,
      "sequence": 4294967293
    },
    {
      "txid": "45885346ccde24b1918ef8965ff47c6e9c341eafc187207aa4ed01bd404685fc",
      "vout": 0,
      "prevout": {
        "scriptpubkey": "76a914acc98c83c470e1430a1d60f0841dcbaf6f8dd24e88ac",
        "scriptpubkey_asm": "OP_DUP OP_HASH160 OP_PUSHBYTES_20 acc98c83c470e1430a1d60f0841dcbaf6f8dd24e OP_EQUALVERIFY OP_CHECKSIG",
        "scriptpubkey_type": "p2pkh",
        "scriptpubkey_address": "1Gkcfrhe9M7szuspT46Hkzn52G5gmSEKPt",
        "value": 49983232
      },
      "scriptsig": "473044022079dc4687fa52ecd0ef257bcfc3aeb0935ad650db005239ab406a1244c3f0468a022015cc785c3143cc0717ddef40c31b61248ee5d67ef83b37f92b1fd212b8dc7103012102835a75119085975f2c5824a947324a0269c8035d8d3769458e9ee33cdf9d52a7",
      "scriptsig_asm": "OP_PUSHBYTES_71 3044022079dc4687fa52ecd0ef257bcfc3aeb0935ad650db005239ab406a1244c3f0468a022015cc785c3143cc0717ddef40c31b61248ee5d67ef83b37f92b1fd212b8dc710301 OP_PUSHBYTES_33 02835a75119085975f2c5824a947324a0269c8035d8d3769458e9ee33cdf9d52a7",
      "is_coinbase": false,
      "sequence": 4294967293
    },
    {
      "txid": "29fce7187071cfe6885938fdb9c0e433fe087b03ccba759dd6f2cbd1d11fc35a",
      "vout": 0,
      "prevout": {
        "scriptpubkey": "76a9146f709ad03e5f4e9baaf11fa40a4fad1059dc6bec88ac",
        "scriptpubkey_asm": "OP_DUP OP_HASH160 OP_PUSHBYTES_20 6f709ad03e5f4e9baaf11fa40a4fad1059dc6bec OP_EQUALVERIFY OP_CHECKSIG",
        "scriptpubkey_type": "p2pkh",
        "scriptpubkey_address": "1BAEuD3dMS2Mo8ojpWPDQe52CuTNZg8rLq",
        "value": 250000
      },
      "scriptsig": "4830450221008157e8a7f1ccc33916535f1c9bca8a32ba1ddfe0348be954c6a98b20ae328e7702204e520183463228d6e6d5ded9cf14a6c442939d7fa397216b9d909048ebc0019c012103676b70c9b155841e6c76f7e9a007e1aa0852ce832e2bdadb7e844c7f2e1f5fdb",
      "scriptsig_asm": "OP_PUSHBYTES_72 30450221008157e8a7f1ccc33916535f1c9bca8a32ba1ddfe0348be954c6a98b20ae328e7702204e520183463228d6e6d5ded9cf14a6c442939d7fa397216b9d909048ebc0019c01 OP_PUSHBYTES_33 03676b70c9b155841e6c76f7e9a007e1aa0852ce832e2bdadb7e844c7f2e1f5fdb",
      "is_coinbase": false,
      "sequence": 4294967293
    },
    {
      "txid": "c84d9ec3a8e1d2bd7ed317bc71fcc4910ffb188c80653c1286386fc9c357bebe",
      "vout": 222,
      "prevout": {
        "scriptpubkey": "76a9145816b69dbc7859cc5c7b5e156cec08199fa33a9888ac",
        "scriptpubkey_asm": "OP_DUP OP_HASH160 OP_PUSHBYTES_20 5816b69dbc7859cc5c7b5e156cec08199fa33a98 OP_EQUALVERIFY OP_CHECKSIG",
        "scriptpubkey_type": "p2pkh",
        "scriptpubkey_address": "192mg2rM47AVjrkG7fmhpW2eGUBZGwn51f",
        "value": 510424
      },
      "scriptsig": "483045022100accc94c994d667c1f0089338745bfd3b7ed85985026036a28b5ee44cec8c1aa002200f80ce99fcdf20f0d1fac56d35e9c0c2c167a03e5a5a99f9ec7f2e83925a275d012102f930b7d13f880cb84f377a23eebb982da8d6d5a19931f60bf7ebe845ba2c9075",
      "scriptsig_asm": "OP_PUSHBYTES_72 3045022100accc94c994d667c1f0089338745bfd3b7ed85985026036a28b5ee44cec8c1aa002200f80ce99fcdf20f0d1fac56d35e9c0c2c167a03e5a5a99f9ec7f2e83925a275d01 OP_PUSHBYTES_33 02f930b7d13f880cb84f377a23eebb982da8d6d5a19931f60bf7ebe845ba2c9075",
      "is_coinbase": false,
      "sequence": 4294967293
    },
    {
      "txid": "9b46b462cdf111cd9f83bb289a8eeba170aae9b72262a7feccdb8642e0cbd42d",
      "vout": 83,
      "prevout": {
        "scriptpubkey": "76a91477a80df0f7e490388789aca6bdda1b046521bd2688ac",
        "scriptpubkey_asm": "OP_DUP OP_HASH160 OP_PUSHBYTES_20 77a80df0f7e490388789aca6bdda1b046521bd26 OP_EQUALVERIFY OP_CHECKSIG",
        "scriptpubkey_type": "p2pkh",
        "scriptpubkey_address": "1BugjTTuxnrjVzJsE14GftzkX4jvBz6GWU",
        "value": 1388734
      },
      "scriptsig": "47304402204aa45e5c6229e804cf453f185d1cd230f1383be4f61cdad8d7f6a340eb0da26a02204e83ad8ecaaee54f802f9b86630b16d633809be8826da5eead7a721b8b0af7810121033d15d4bca73224d9e89c638577fd4fcbfe7033db857ff1d76279d03c44176091",
      "scriptsig_asm": "OP_PUSHBYTES_71 304402204aa45e5c6229e804cf453f185d1cd230f1383be4f61cdad8d7f6a340eb0da26a02204e83ad8ecaaee54f802f9b86630b16d633809be8826da5eead7a721b8b0af78101 OP_PUSHBYTES_33 033d15d4bca73224d9e89c638577fd4fcbfe7033db857ff1d76279d03c44176091",
      "is_coinbase": false,
      "sequence": 4294967293
    },
    {
      "txid": "8c9a08cc761df7014f6107862293326c0a78111ec2e900880fa29777f56919be",
      "vout": 7,
      "prevout": {
        "scriptpubkey": "76a914f29cfec9e9e16f4a5d588796580bc3497deced1688ac",
        "scriptpubkey_asm": "OP_DUP OP_HASH160 OP_PUSHBYTES_20 f29cfec9e9e16f4a5d588796580bc3497deced16 OP_EQUALVERIFY OP_CHECKSIG",
        "scriptpubkey_type": "p2pkh",
        "scriptpubkey_address": "1P7pbeSHduAw92NeKFyzvcfWvEq5fwWoQS",
        "value": 172370000
      },
      "scriptsig": "4730440220079dc5c86429e69f7e820b8fed7fec7b8872867575a2710a8435a60557ab6dc402201d0e280edc14dbadacd077866e02b56cfbc598fc8c9a7a2a627aa7659cb81f3f012102eea21ecff8b3a809f168a17ea0bfe90bb2458451648f3404507bb16373bc9029",
      "scriptsig_asm": "OP_PUSHBYTES_71 30440220079dc5c86429e69f7e820b8fed7fec7b8872867575a2710a8435a60557ab6dc402201d0e280edc14dbadacd077866e02b56cfbc598fc8c9a7a2a627aa7659cb81f3f01 OP_PUSHBYTES_33 02eea21ecff8b3a809f168a17ea0bfe90bb2458451648f3404507bb16373bc9029",
      "is_coinbase": false,
      "sequence": 4294967293
    }
  ],
  "vout": [
    {
      "scriptpubkey": "a91468ecff0fa91ddb3b8d9704e9e87141e9da07ead987",
      "scriptpubkey_asm": "OP_HASH160 OP_PUSHBYTES_20 68ecff0fa91ddb3b8d9704e9e87141e9da07ead9 OP_EQUAL",
      "scriptpubkey_type": "p2sh",
      "scriptpubkey_address": "3BFp7Hf5F6vyBP6si2ANF5LtD86U7taPVf",
      "value": 181662379
    },
    {
      "scriptpubkey": "76a914c5e5f0a625e4dba10f21eb2bde16b846d5f846c288ac",
      "scriptpubkey_asm": "OP_DUP OP_HASH160 OP_PUSHBYTES_20 c5e5f0a625e4dba10f21eb2bde16b846d5f846c2 OP_EQUALVERIFY OP_CHECKSIG",
      "scriptpubkey_type": "p2pkh",
      "scriptpubkey_address": "1K3PaJeknmpqwvf3KKAtR1KweFDK1pYeAo",
      "value": 631570129
    },
    {
      "scriptpubkey": "76a9146722fe5e2934e597fec55c44aee492c787d042a688ac",
      "scriptpubkey_asm": "OP_DUP OP_HASH160 OP_PUSHBYTES_20 6722fe5e2934e597fec55c44aee492c787d042a6 OP_EQUALVERIFY OP_CHECKSIG",
      "scriptpubkey_type": "p2pkh",
      "scriptpubkey_address": "1AQLXAB6aXSVbRMjbhSBudLf1kcsbWSEjg",
      "value": 161387557
    }
  ],
  "size": 4829,
  "weight": 19316,
  "fee": 121500,
  "status": {
    "confirmed": true,
    "block_height": 834638,
    "block_hash": "000000000000000000025f742c626208ac87e0b7d15054abb4a19ca2d735a54e",
    "block_time": 1710405325
  },
  "hex": "0100000020bebe57c3c96f3886123c65808c18fb0f91c4fc71bc17d37ebdd2e1a8c39e4dc8120000006a4730440220355e140ffe359f86f3a2a1c3166ebdfbc36726e78342069072b570eb77b1f50d022073d1fc77b6deb896e8144d05060641540cb45fc3a9b0ca77c1908c768a84d13a012102d9bc9b5ba9bcb60188a27e6c405ce997ba07df6062c9d0d6b4e359e3822b9211fdffffffa0260f0149b1ee2401ae9eb6a9eba803fee3ab793032645aa32b047b481dd93a000000006a473044022031b6c81471600f802968cfebe07d3a0563514242acc407a3d50e9d3887fd587b02205009e67b95366fc80c7e7ef712615b441097c5ea2a54e07b284fa4cb5a18b900012103060fc53448644e9a658f0863bfc64461f5a21673aa1713426891baf670a948bffdffffff3675eaf1171a0ecb76b37635e586de820145149d8e7598aa1783c1287d0b94bc000000006b483045022100e310adab5ec5da964f82696d44bc255a7e4e291b0d6407834de105eea2e6b990022066efc74a74776722c9e981865fed18bc347d559c3c308119e2ccf58824f88cd5012102f2885ec53e431e6f48ab777c941eff0a6005c4c60bed99f6533103eb28d17731fdffffff1facae017850ec4e875825cb633fb3d91be0a7732c0dcda340685236b29416a3000000006b48304502210080f520bda13594914557f85f7187fd438d3c6172102af2c815937a9c0c6b957302203251fc8ad3c36014c3d947437a7ec30da6a7eba747434e822c13b15093a0824a012102cd2b4d406849cb8690098c8551994f4e90b016b63a5f6878a85d068931ed19c5fdffffffa025a640a63099c74c42459e88c7b2787ead76d59597136420e3a2cb7d74791a000000006b483045022100ed4081ede60a62adca09f81b4bae4a3e58b5f247d6dbaf96e16c8d88b09ae87702200f4cabc35455bbe02f852738091c81daa8c5e1e393854c2c749b5ccd11707357012102cd2b4d406849cb8690098c8551994f4e90b016b63a5f6878a85d068931ed19c5fdffffff402ebe51e112c74dc7c94fdeb07dbf06a05ce11d3c2cea03481dd38f6161fce42a0100006b483045022100bdaa54a9d63d1fafe06deb33743b75de29babc61deaea264db02bc844da81f7802201d6a6090111c16fd34605b775748502ca147e3af2d27934954e9a57271605529012103544aa67db98b54c69688f6fce45ef706e82ef81ca51c31bd879a09c3e9ca1df4fdfffffffeef250670a4828f88988aaf9a203bf07c836688534c5a998fce422a6165fd79000000006b483045022100f5d13af0b4e46e42aac780d9e0c9c2e32d7af2274e2992533d734043291981db02206f12a471202eb170fa98b57408a79e1b7a9ec0d5928097031ed53e158c994d29012102caa87cef6c6bc6785fb8d24ad5ecdea252d3f25bcc48fe01e64f13ce65cbe40ffdffffffbebe57c3c96f3886123c65808c18fb0f91c4fc71bc17d37ebdd2e1a8c39e4dc8150000006a4730440220206351dbd9da6957ca4b7cb7b5136e6b98e3f996163c052618be21366471968c02201edc1a031ecd43e34aaeebf29ad803d85019bf988dba281703dd340b3852e3d4012103e83754f47ed3c383b5852dd608604108be003e47d8682095e975e623b30fd4dcfdffffffbebe57c3c96f3886123c65808c18fb0f91c4fc71bc17d37ebdd2e1a8c39e4dc8e20000006b48304502210087a8238a82506bdd9dc3d9407188aaf5fd53fe5de06b3c509d312a91d9570f1c02200e5f34ef0023379406b805ad39d612e495e019e45d2d34b477f3d46f0e7cafda01210356cff2772e65d780ba89f8a68048eec972b452bfb2901c3295d80b7bbc4a817ffdffffff402ebe51e112c74dc7c94fdeb07dbf06a05ce11d3c2cea03481dd38f6161fce45d0000006b483045022100b7434cb6e7dca14d3f2b129588027dcd8011c8903d1ae9334a048c8ac8466513022037c809cd9681dca1141ae25510e3548d5bf809ab4e30fd541c058e1611001af4012102b0680a7f3154a8cc30ba4518159005eb6636792a359ccde20ca1a87b2cc25376fdffffffbebe57c3c96f3886123c65808c18fb0f91c4fc71bc17d37ebdd2e1a8c39e4dc8890100006a4730440220020bfc224b555a5247e3ee86785683a9469561c850f8b50425b4cda8348cc2f3022038bea9c4d0c92a9773d44757e26d361ee3f27200efd06d01128b987300fb1b6b012102d612c6182ce314ec74be7ab768740db25009fe2b167721fcd58bae841284b52afdffffffbebe57c3c96f3886123c65808c18fb0f91c4fc71bc17d37ebdd2e1a8c39e4dc89e0100006b483045022100fe89879c65138b53fa3cabf70157b3f5c32e7a5746b6de34a4c07f160892dc49022002c2fe456e01158c37caa73935d444bf88a550cff45bbde488d9983328f7af83012103886efc3de9dddae9e4861b6c31f8881a5d5698ca6ac1f165f376cbe1255b9779fdffffff2dd4cbe04286dbccfea76222b7e9aa70a1eb8e9a28bb839fcd11f1cd62b4469b3e0000006b483045022100bbe8e7005f080a8b8650168abe6315e6120b00f400330a5be0b759d49c60b29b02207284693c11b8e9ea2406138fb4dc85ec4e6ed8da92423822442a499b53c1d35101210378950a0a73849c0a893ed68d435cf2b1e78fae6b37a048464eda185127c703effdffffff6564faa8f34414e9de8b7321748bdbc67020f322b0ee2a8e42db4f9495d83250030000006b483045022100c0bd776881f113200f781edc9c75474cb0221099906ef5832b5cafd621421df402203cedb69e20cbb4042c7c8b1b354e7289248041c83ad7dc8de3e6c9f5527535a301210295691e6234d116e9386d91f31c4083c022b502de4210d1d98826d8ac3cf55c24fdffffff91e6daf5b806c0ed5171ed487e20d00e21d0d225a6ce41cd045700475be9cd6b020000006a47304402202217b3c83a9daa3b86accedceb750f93c30b137f2b28054b9dfed3f164bcf44e022005f6dd4311e8dc6241c09acb334edf5c35b5ba58640d4f0b7cfd8544844dea6c01210295691e6234d116e9386d91f31c4083c022b502de4210d1d98826d8ac3cf55c24fdffffff6d045c2f38c7d2b6f4288d1d83b714d361712659185c7ecd1370444a63855d42000000006a473044022022f1db1e969d9e7993c0fdbc74dca3f39d6327d513276a665fff81b9f74f3da002206f1b8efdfb0ae6474d0e5413a5021cd01967cf287c1ea0a41cfc1fe68996d437012102cd2b4d406849cb8690098c8551994f4e90b016b63a5f6878a85d068931ed19c5fdffffffbebe57c3c96f3886123c65808c18fb0f91c4fc71bc17d37ebdd2e1a8c39e4dc89d0100006a473044022029814d8ec0ee50cba0aae088c07bc4087e279902bfc942d6d05d1a70efb7db5202206570a89c2b91d0e58c3f364ceb4bdcc249365dde0be9f33ebaba2343553261ff012102b7696ab0df42b7e5fb0f42ae1f372b99682c56e988f3b5f44a0bf149dfe4a39afdffffff36bd4f11fe21b480225a3fc745e2d7e52b2653556bd1c6a40ec2004b8bc3e7fa000000006a473044022025e71b71862a1d9da22ab31691e079ec92db4c58e105ffab9758b985e46599e502204383ee8a0c4e3889d9a1fc249f517aa18db42fed8da31ac8f4b3106269e93e76012102ed8404d50a4a7eb5b41b5805c7b55e98abdd01ccdae4fe93ec6cd08a0c33f94ffdffffffbebe57c3c96f3886123c65808c18fb0f91c4fc71bc17d37ebdd2e1a8c39e4dc8e20100006a473044022069c465da4bffb0f98ce57980c42880546add65436be69e5d1af04e5f1316a6bf022049f3211088743ca4a16fe2833cca9319d5e5a26be5f70407b8f445110a72eb71012103f61e774fe68c5cbac075136031bcfb3ba64bc2c16e9aaa8d5e98a2b5eee20a48fdffffff8a26bf44ed6d185cd0818e8ca84eb9a7f1dfbb6cbf8464b81019913b78a1374f010000006b483045022100e3d1f76f2b5005d90a071b804877f6b3d0fb6a8d529311b6559f0eb567a5ab16022079165ad83226865b046aad70caa5cd9238301a5ad829bff7ffa34659217fe9a901210295691e6234d116e9386d91f31c4083c022b502de4210d1d98826d8ac3cf55c24fdffffff916599883f33a98aa789ee91ad3830e54aaa6b9e5aada9c14d0e8e181022f04e000000006a473044022061037f60b1ddef50234aee81910f303491f37f94175f619f9d699f3fa552cc0402206c10d0c659b965d60b37b65c5eff0534f990f8c141a72d1020aae4560d993cb6012103d420e498ef5e9d763bb1cab1511eadcdb181665abac871a7ec72acecd079945ffdffffffc38915aab8d6f50aab4529bc3b436eab84bd80592af718e7f58a47d994daaca2000000006a47304402203d4822e6b1834fc5dbcbfcd1bf4c3d513f445d12b38f735a235d8de6af582437022039499031806c3ce5e095a2d2ecf4658e7a2581075bddef6f701391319c04d178012102cd2b4d406849cb8690098c8551994f4e90b016b63a5f6878a85d068931ed19c5fdffffff82c0d8ec0a21262f01451fbb61979b58c5fb487ff4e5c59a01a439db461ec928060000006b483045022100d028c2b81b0c737412c10bf351f0654255ac1ea25ccaf8b1da926415eaa5d4df02204d2a2df75579140bce592a08e2de6e099293cd40224f6ac55754f9f8a42a041101210368e6a90cab67a1421198e9456e59fed67e79a1cba04c84424264637256e0a7b9fdfffffff41b922a8dee3f303775afc2616c6b52a93e42c0ba0855b382a05e72ce860c50000000006a473044022023efef69a74e123633063fa051ebe83027cd149f44b6ce5329b529594cac7de7022018032e9a5eec3126bad749dcb3380033d662425afd2313100cc725a409289d95012102cd2b4d406849cb8690098c8551994f4e90b016b63a5f6878a85d068931ed19c5fdffffff402ebe51e112c74dc7c94fdeb07dbf06a05ce11d3c2cea03481dd38f6161fce4660000006a473044022056eb01b028fb867d463b5d59231ff7cf9d2d2b81a948e6ebfc96b9fcc2b4c8f6022039a0937ea808c921838f72bef4a30338ea67ea9e00ba7fbcf8c880cece21c9560121021ed11f7b4688734c7d6bf0e76a8aa56f8e20adc2d97caafd7f2088552735cbdffdffffff402ebe51e112c74dc7c94fdeb07dbf06a05ce11d3c2cea03481dd38f6161fce48f0100006a47304402200b23b894b12be7b5e3ceefcf8119a6bc1b5c0870ff431baaae5104524323f40c022022a6288a7c88d79f8cc61a89bbd9f04702d915394e295468708487d1f016c80501210216270c3c356c862ece0f62eb9d3f45e1cfb26842585d45e9c777094a269a089cfdffffff78f716ce15b3c1fb7eb1f7ccc6f7cc933c37321c28558fd16489f3ec2d164772020000006b48304502210098a8065553929285e9a831a71e2a9b978e3b51710cab9e7602027d298ac5aa3c0220704690f2e224d76ad2543419aa85adcec9c0844af740acabd699d9e0bbab983b012103da5f9aec4854a8daf6572d901969980d37e01a68ab66b81df7122b68754df2befdfffffffc854640bd01eda47a2087c1af1e349c6e7cf45f96f88e91b124decc46538845000000006a473044022079dc4687fa52ecd0ef257bcfc3aeb0935ad650db005239ab406a1244c3f0468a022015cc785c3143cc0717ddef40c31b61248ee5d67ef83b37f92b1fd212b8dc7103012102835a75119085975f2c5824a947324a0269c8035d8d3769458e9ee33cdf9d52a7fdffffff5ac31fd1d1cbf2d69d75bacc037b08fe33e4c0b9fd385988e6cf717018e7fc29000000006b4830450221008157e8a7f1ccc33916535f1c9bca8a32ba1ddfe0348be954c6a98b20ae328e7702204e520183463228d6e6d5ded9cf14a6c442939d7fa397216b9d909048ebc0019c012103676b70c9b155841e6c76f7e9a007e1aa0852ce832e2bdadb7e844c7f2e1f5fdbfdffffffbebe57c3c96f3886123c65808c18fb0f91c4fc71bc17d37ebdd2e1a8c39e4dc8de0000006b483045022100accc94c994d667c1f0089338745bfd3b7ed85985026036a28b5ee44cec8c1aa002200f80ce99fcdf20f0d1fac56d35e9c0c2c167a03e5a5a99f9ec7f2e83925a275d012102f930b7d13f880cb84f377a23eebb982da8d6d5a19931f60bf7ebe845ba2c9075fdffffff2dd4cbe04286dbccfea76222b7e9aa70a1eb8e9a28bb839fcd11f1cd62b4469b530000006a47304402204aa45e5c6229e804cf453f185d1cd230f1383be4f61cdad8d7f6a340eb0da26a02204e83ad8ecaaee54f802f9b86630b16d633809be8826da5eead7a721b8b0af7810121033d15d4bca73224d9e89c638577fd4fcbfe7033db857ff1d76279d03c44176091fdffffffbe1969f57797a20f8800e9c21e11780a6c3293228607614f01f71d76cc089a8c070000006a4730440220079dc5c86429e69f7e820b8fed7fec7b8872867575a2710a8435a60557ab6dc402201d0e280edc14dbadacd077866e02b56cfbc598fc8c9a7a2a627aa7659cb81f3f012102eea21ecff8b3a809f168a17ea0bfe90bb2458451648f3404507bb16373bc9029fdffffff03abf2d30a0000000017a91468ecff0fa91ddb3b8d9704e9e87141e9da07ead987d1fea425000000001976a914c5e5f0a625e4dba10f21eb2bde16b846d5f846c288ac25949e09000000001976a9146722fe5e2934e597fec55c44aee492c787d042a688ac00000000"
}