{
  "txid": "08ae31a4c7f39147818308dc68c1f179fa893f5bfd56ee3647169233b11df36a",
  "version": 2,
  "locktime": 834636,
  "vin": [
    {
      "txid": "05c82ea978f434ef0d84ba568f192cbef90402e0ea5b1870335caba560f2c229",
      "vout": 1,
      "prevout": {
        "scriptpubkey": "0014cf3efac4c8fd886f8ee88969b807542a899a0949",
        "scriptpubkey_asm": "OP_0 OP_PUSHBYTES_20 cf3efac4c8fd886f8ee88969b807542a899a0949",
        "scriptpubkey_type": "v0_p2wpkh",
        "scriptpubkey_address": "bc1qeul043xglkyxlrhg395msp6592ye5z2f50fksd",
        "value": 2096975
      },
      "scriptsig": "",
      "scriptsig_asm": "",
      "witness": [
        "3044022001b3cab2084f8950a9768d0106b3da50baee41aa198dd24014400337cc12f8110220184d908d11ad3f3f438660f4e1b8fc7435fde30ada1e197234ed5047729f147b01",
        "038544962144efdc3645cf987525ac35ec0fc0cbfdda333fc3f271d3f8cda7d9ea"
      ],
      "is_coinbase": false,
      "sequence": 4294967293
    },
    {
      "txid": "1657726e07a8cd87a261dccb0725781e287f4b4a2d4e436b17c002dd061721cc",
      "vout": 0,
      "prevout": {
        "scriptpubkey": "0014e853929c250363a24cc3bff91e4846c0e121f84a",
        "scriptpubkey_asm": "OP_0 OP_PUSHBYTES_20 e853929c250363a24cc3bff91e4846c0e121f84a",
        "scriptpubkey_type": "v0_p2wpkh",
        "scriptpubkey_address": "bc1qapfe98p9qd36ynxrhlu3ujzxcrsjr7z2296mdp",
        "value": 60000
      },
      "scriptsig": "",
      "scriptsig_asm": "",
      "witness": [
        "304402202d11bb35533558a0a5563e8cc492b8a0569b8132a0fca5fbf083e631df6efdaf02202606d13c67d4b4c8c12ef3be9ffbded6e96a5504e88e585e03d9b9a95ba46fd401",
        "02608bf32e8c1427ba0e8d87c3d089c19819ba5cc2de19c49a8b0ca685bdad25eb"
      ],
      "is_coinbase": false,
      "sequence": 4294967293
    },
    {
      "txid": "32acc2d40e500224125d79277bfe8b1a639ea03edc02129afa15e19c7fe861b6",
      "vout": 1,
      "prevout": {
        "scriptpubkey": "0014c5b3c95c9dafa20fcfa4f3716eeed0dcbbe67622",
        "scriptpubkey_asm": "OP_0 OP_PUSHBYTES_20 c5b3c95c9dafa20fcfa4f3716eeed0dcbbe67622",
        "scriptpubkey_type": "v0_p2wpkh",
        "scriptpubkey_address": "bc1qckeujhya473qlnay7dckamksmja7va3zqepwz0",
        "value": 497000
      },
      "scriptsig": "",
      "scriptsig_asm": "",
      "witness": [
        "304402200337c8e10c8b0e2d63ae7dfda5338cccbb30450b4296b33c75cd8d006daed7e302200241db745928f3e4f0a22ba4d532b0ac814074450906d965ae11e202da30fba301",
        "02ed19215633583818d8fc2bca4da11deec9316591edf08f24d6d14e94a4320cde"
      ],
      "is_coinbase": false,
      "sequence": 4294967293
    },
    {
      "txid": "3ab8cb5cb877aa9b042f77077b294809c52437a7c5391967b4a3fa94e3a50a51",
      "vout": 0,
      "prevout": {
        "scriptpubkey": "0014be95078a70e9ccf400132b8fb2949500be55dfb2",
        "scriptpubkey_asm": "OP_0 OP_PUSHBYTES_20 be95078a70e9ccf400132b8fb2949500be55dfb2",
        "scriptpubkey_type": "v0_p2wpkh",
        "scriptpubkey_address": "bc1qh62s0znsa8x0gqqn9w8m99y4qzl9thajjry8tt",
        "value": 1046600
      },
      "scriptsig": "",
      "scriptsig_asm": "",
      "witness": [
        "304302202e6b776cecea1f6c45d801197e0de9f201374c3a221dfe2937d3433fbde52d30021f7663fc4c8ead2af0fb51f8fbb4724d1021660b6bc05ec806fb4f3d503e8eed01",
        "03daf2a112bc015f4f933146973c8b32d8b0a4a630699039de5360fa13a680eb20"
      ],
      "is_coinbase": false,
      "sequence": 4294967293
    },
    {
      "txid": "5ed9b5c4ccfa13fe1fd53e724007bce2b45e1790378f2c8a46b56dc6016c60bb",
      "vout": 0,
      "prevout": {
        "scriptpubkey": "001425553fdc4b0899400a1e42ceb50ebb2a3431c7a1",
        "scriptpubkey_asm": "OP_0 OP_PUSHBYTES_20 25553fdc4b0899400a1e42ceb50ebb2a3431c7a1",
        "scriptpubkey_type": "v0_p2wpkh",
        "scriptpubkey_address": "bc1qy42nlhztpzv5qzs7gt8t2r4m9g6rr3aphuk76n",
        "value": 400000
      },
      "scriptsig": "",
      "scriptsig_asm": "",
      "witness": [
        "30440220282a45ba0e565c2cca98791523528ff7faecf566cc779dbda94b9d133e7a96d302201ed0fc8757a2cdc3b281227072e54de7ad1aedbc93854aad8a80fa3b4724aff601",
        "020fd319409756ab61e7da8a5ab2b3c3798c85e90c9135f7d04a31e23057e21cbc"
      ],
      "is_coinbase": false,
      "sequence": 4294967293
    },
    {
      "txid": "6ac0701eeed0033087df09c9812187ad95d9ef03b4803b66794a8e0e79ddf8ac",
      "vout": 3,
      "prevout": {
        "scriptpubkey": "0014e853929c250363a24cc3bff91e4846c0e121f84a",
        "scriptpubkey_asm": "OP_0 OP_PUSHBYTES_20 e853929c250363a24cc3bff91e4846c0e121f84a",
        "scriptpubkey_type": "v0_p2wpkh",
        "scriptpubkey_address": "bc1qapfe98p9qd36ynxrhlu3ujzxcrsjr7z2296mdp",
        "value": 551000
      },
      "scriptsig": "",
      "scriptsig_asm": "",
      "witness": [
        "3044022053c24cbaf74cc00512e5469d4b9fdb4723480def8c271e2cd6857457909bb170022071e97fbe16dfcc2f33ef9f22895e2207a79a8f7dc6423178d145b6dc9df06d8901",
        "02608bf32e8c1427ba0e8d87c3d089c19819ba5cc2de19c49a8b0ca685bdad25eb"
      ],
      "is_coinbase": false,
      "sequence": 4294967293
    },
    {
      "txid": "7401306e40c00398242157469927a901f0b70c98dab720a5ad4cbfa192abb1ae",
      "vout": 0,
      "prevout": {
        "scriptpubkey": "001425553fdc4b0899400a1e42ceb50ebb2a3431c7a1",
        "scriptpubkey_asm": "OP_0 OP_PUSHBYTES_20 25553fdc4b0899400a1e42ceb50ebb2a3431c7a1",
        "scriptpubkey_type": "v0_p2wpkh",
        "scriptpubkey_address": "bc1qy42nlhztpzv5qzs7gt8t2r4m9g6rr3aphuk76n",
        "value": 767000
      },
      "scriptsig": "",
      "scriptsig_asm": "",
      "witness": [
        "304402203fab8d71b87acb64fe857d848a0af50638461af2c375becfcc66d28c8543b17c02204457fab9a1b214d6ed026ebb1fa14b4529200835b5659ed5e110a036930cda3501",
        "020fd319409756ab61e7da8a5ab2b3c3798c85e90c9135f7d04a31e23057e21cbc"
      ],
      "is_coinbase": false,
      "sequence": 4294967293
    },
    {
      "txid": "a16ddead13dbb9fff5c5af23c3b05f2009853209b7e5b770e1b971d361aa1261",
      "vout": 0,
      "prevout": {
        "scriptpubkey": "00144a4d6df20933089c976391e72e2faf5720771995",
        "scriptpubkey_asm": "OP_0 OP_PUSHBYTES_20 4a4d6df20933089c976391e72e2faf5720771995",
        "scriptpubkey_type": "v0_p2wpkh",
        "scriptpubkey_address": "bc1qffxkmusfxvyfe9mrj8njuta02us8wxv45u49ms",
        "value": 189000
      },
      "scriptsig": "",
      "scriptsig_asm": "",
      "witness": [
        "3044022016c51f0602956419acfc8863f778f1fa84869ae5c81ce3d8136ce2476ecaad8602207977ac3db0b772f9bbe6f53d9c2cb214a368e4645ef9a7c23ec01aab8b9cacba01",
        "033e60136e7a72d632b959e9b79c14a7cfe8f70aaa21e4146b400a6984e7afa394"
      ],
      "is_coinbase": false,
      "sequence": 4294967293
    },
    {
      "txid": "a509ac83db3eb88cb6b37699a52801ec9282e83544a969fba0a1b9287a7ef25c",
      "vout": 0,
      "prevout": {
        "scriptpubkey": "0014abddaaa8f1d781affc939d27f44b9b6a89362f70",
        "scriptpubkey_asm": "OP_0 OP_PUSHBYTES_20 abddaaa8f1d781affc939d27f44b9b6a89362f70",
        "scriptpubkey_type": "v0_p2wpkh",
        "scriptpubkey_address": "bc1q40w6428367q6llynn5nlgjumd2ynvtmsdh4xzu",
        "value": 1128700
      },
      "scriptsig": "",
      "scriptsig_asm": "",
      "witness": [
        "3044022061c7258a72555a35102bb4db4c9ae482b8eea98551bf61a4e0d18506c0914e1002204f970e921c112562ff0f6149ba4be828135d5e2c52f8caf84d5c87a6b6a1e77c01",
        "0398569939563e55e0b140dd135ebeb209038a85ea9c75f6ec4e326673264bfc50"
      ],
      "is_coinbase": false,
      "sequence": 4294967293
    },
    {
      "txid": "ab7251663473ef8653a8780402a8618509c3874d2b8af4cc8d7e56ed80548e88",
      "vout": 0,
      "prevout": {
        "scriptpubkey": "00144a4d6df20933089c976391e72e2faf5720771995",
        "scriptpubkey_asm": "OP_0 OP_PUSHBYTES_20 4a4d6df20933089c976391e72e2faf5720771995",
        "scriptpubkey_type": "v0_p2wpkh",
        "scriptpubkey_address": "bc1qffxkmusfxvyfe9mrj8njuta02us8wxv45u49ms",
        "value": 283997
      },
      "scriptsig": "",
      "scriptsig_asm": "",
      "witness": [
        "304402204186602df971c47f848cbba3ce491faea31501ac394a80b7770075e5521ba282022016a662d2d0e6add6453ad541ff23a43e156d14ea06d1200e0b09d3a15eff705101",
        "033e60136e7a72d632b959e9b79c14a7cfe8f70aaa21e4146b400a6984e7afa394"
      ],
      "is_coinbase": false,
      "sequence": 4294967293
    },
    {
      "txid": "c39a5709b71e6746596d9750252a853bb93b0062e14f662a02b50fb7c2746212",
      "vout": 0,
      "prevout": {
        "scriptpubkey": "00144a4d6df20933089c976391e72e2faf5720771995",
        "scriptpubkey_asm": "OP_0 OP_PUSHBYTES_20 4a4d6df20933089c976391e72e2faf5720771995",
        "scriptpubkey_type": "v0_p2wpkh",
        "scriptpubkey_address": "bc1qffxkmusfxvyfe9mrj8njuta02us8wxv45u49ms",
        "value": 247000
      },
      "scriptsig": "",
      "scriptsig_asm": "",
      "witness": [
        "30440220024f33d4f7e3cb9b98eed6945ce0d4ae8f8204c8bd91b6c9c0f2d7473627f5080220229cc6d0143e09b59f24888be797cb2f34fc3781e207ee6bcc510fd458d8e0fe01",
        "033e60136e7a72d632b959e9b79c14a7cfe8f70aaa21e4146b400a6984e7afa394"
      ],
      "is_coinbase": false,
      "sequence": 4294967293
    },
    {
      "txid": "f62f716e50a3d62629661321da34de43ce973f3eab0466e7a27f23ba0b1f755e",
      "vout": 16,
      "prevout": {
        "scriptpubkey": "0014e853929c250363a24cc3bff91e4846c0e121f84a",
        "scriptpubkey_asm": "OP_0 OP_PUSHBYTES_20 e853929c250363a24cc3bff91e4846c0e121f84a",
        "scriptpubkey_type": "v0_p2wpkh",
        "scriptpubkey_address": "bc1qapfe98p9qd36ynxrhlu3ujzxcrsjr7z2296mdp",
        "value": 484000
      },
      "scriptsig": "",
      "scriptsig_asm": "",
      "witness": [
        "304402200174061bbbbc1d78f01413e6ac931eb6bedb03caec04713443325f8279dd305202202c70dbe696c1fa87a5d98a79e815919d14e1dec02cbd00418536d594d2a7efb301",
        "02608bf32e8c1427ba0e8d87c3d089c19819ba5cc2de19c49a8b0ca685bdad25eb"
      ],
      "is_coinbase": false,
      "sequence": 4294967293
    }
  ],
  "vout": [
    {
      "scriptpubkey": "001475d9dd5394d429c16c3fe457083f2ad74c4f989f",
      "scriptpubkey_asm": "OP_0 OP_PUSHBYTES_20 75d9dd5394d429c16c3fe457083f2ad74c4f989f",
      "scriptpubkey_type": "v0_p2wpkh",
      "scriptpubkey_address": "bc1qwhva65u56s5uzmplu3tss0e26axylxylumt4kj",
      "value": 237100
    },
    {
      "scriptpubkey": "a914a3cd6b7ed31d49bb8b29f1f78d26549e294dc40987",
      "scriptpubkey_asm": "OP_HASH160 OP_PUSHBYTES_20 a3cd6b7ed31d49bb8b29f1f78d26549e294dc409 OP_EQUAL",
      "scriptpubkey_type": "p2sh",
      "scriptpubkey_address": "3Gd89duzEVVQA2UMYt5edwqDRkosevqPGy",
      "value": 7500000
    }
  ],
  "size": 1850,
  "weight": 3545,
  "fee": 14172,
  "status": {
    "confirmed": true,
    "block_height": 834638,
    "block_hash": "000000000000000000025f742c626208ac87e0b7d15054abb4a19ca2d735a54e",
    "block_time": 1710405325
  },
  "hex": "0200000000010c29c2f260a5ab5c3370185beae00204f9be2c198f56ba840def34f478a92ec8050100000000fdffffffcc211706dd02c0176b434e2d4a4b7f281e782507cbdc61a287cda8076e7257160000000000fdffffffb661e87f9ce115fa9a1202dc3ea09e631a8bfe7b27795d122402500ed4c2ac320100000000fdffffff510aa5e394faa3b4671939c5a73724c50948297b07772f049baa77b85ccbb83a0000000000fdffffffbb606c01c66db5468a2c8f3790175eb4e2bc0740723ed51ffe13faccc4b5d95e0000000000fdffffffacf8dd790e8e4a79663b80b403efd995ad872181c909df873003d0ee1e70c06a0300000000fdffffffaeb1ab92a1bf4cada520b7da980cb7f001a92799465721249803c0406e3001740000000000fdffffff6112aa61d371b9e170b7e5b709328509205fb0c323afc5f5ffb9db13adde6da10000000000fdffffff5cf27e7a28b9a1a0fb69a94435e88292ec0128a59976b3b68cb83edb83ac09a50000000000fdffffff888e5480ed567e8dccf48a2b4d87c3098561a8020478a85386ef7334665172ab0000000000fdffffff126274c2b70fb5022a664fe162003bb93b852a2550976d5946671eb709579ac30000000000fdffffff5e751f0bba237fa2e76604ab3e3f97ce43de34da2113662926d6a3506e712ff61000000000fdffffff022c9e03000000000016001475d9dd5394d429c16c3fe457083f2ad74c4f989fe07072000000000017a914a3cd6b7ed31d49bb8b29f1f78d26549e294dc4098702473044022001b3cab2084f8950a9768d0106b3da50baee41aa198dd24014400337cc12f8110220184d908d11ad3f3f438660f4e1b8fc7435fde30ada1e197234ed5047729f147b0121038544962144efdc3645cf987525ac35ec0fc0cbfdda333fc3f271d3f8cda7d9ea0247304402202d11bb35533558a0a5563e8cc492b8a0569b8132a0fca5fbf083e631df6efdaf02202606d13c67d4b4c8c12ef3be9ffbded6e96a5504e88e585e03d9b9a95ba46fd4012102608bf32e8c1427ba0e8d87c3d089c19819ba5cc2de19c49a8b0ca685bdad25eb0247304402200337c8e10c8b0e2d63ae7dfda5338cccbb30450b4296b33c75cd8d006daed7e302200241db745928f3e4f0a22ba4d532b0ac814074450906d965ae11e202da30fba3012102ed19215633583818d8fc2bca4da11deec9316591edf08f24d6d14e94a4320cde0246304302202e6b776cecea1f6c45d801197e0de9f201374c3a221dfe2937d3433fbde52d30021f7663fc4c8ead2af0fb51f8fbb4724d1021660b6bc05ec806fb4f3d503e8eed012103daf2a112bc015f4f933146973c8b32d8b0a4a630699039de5360fa13a680eb20024730440220282a45ba0e565c2cca98791523528ff7faecf566cc779dbda94b9d133e7a96d302201ed0fc8757a2cdc3b281227072e54de7ad1aedbc93854aad8a80fa3b4724aff60121020fd319409756ab61e7da8a5ab2b3c3798c85e90c9135f7d04a31e23057e21cbc02473044022053c24cbaf74cc00512e5469d4b9fdb4723480def8c271e2cd6857457909bb170022071e97fbe16dfcc2f33ef9f22895e2207a79a8f7dc6423178d145b6dc9df06d89012102608bf32e8c1427ba0e8d87c3d089c19819ba5cc2de19c49a8b0ca685bdad25eb0247304402203fab8d71b87acb64fe857d848a0af50638461af2c375becfcc66d28c8543b17c02204457fab9a1b214d6ed026ebb1fa14b4529200835b5659ed5e110a036930cda350121020fd319409756ab61e7da8a5ab2b3c3798c85e90c9135f7d04a31e23057e21cbc02473044022016c51f0602956419acfc8863f778f1fa84869ae5c81ce3d8136ce2476ecaad8602207977ac3db0b772f9bbe6f53d9c2cb214a368e4645ef9a7c23ec01aab8b9cacba0121033e60136e7a72d632b959e9b79c14a7cfe8f70aaa21e4146b400a6984e7afa39402473044022061c7258a72555a35102bb4db4c9ae482b8eea98551bf61a4e0d18506c0914e1002204f970e921c112562ff0f6149ba4be828135d5e2c52f8caf84d5c87a6b6a1e77c01210398569939563e55e0b140dd135ebeb209038a85ea9c75f6ec4e326673264bfc500247304402204186602df971c47f848cbba3ce491faea31501ac394a80b7770075e5521ba282022016a662d2d0e6add6453ad541ff23a43e156d14ea06d1200e0b09d3a15eff70510121033e60136e7a72d632b959e9b79c14a7cfe8f70aaa21e4146b400a6984e7afa394024730440220024f33d4f7e3cb9b98eed6945ce0d4ae8f8204c8bd91b6c9c0f2d7473627f5080220229cc6d0143e09b59f24888be797cb2f34fc3781e207ee6bcc510fd458d8e0fe0121033e60136e7a72d632b959e9b79c14a7cfe8f70aaa21e4146b400a6984e7afa3940247304402200174061bbbbc1d78f01413e6ac931eb6bedb03caec04713443325f8279dd305202202c70dbe696c1fa87a5d98a79e815919d14e1dec02cbd00418536d594d2a7efb3012102608bf32e8c1427ba0e8d87c3d089c19819ba5cc2de19c49a8b0ca685bdad25eb4cbc0c00"
}