{
  "txid": "08b75653a13105a350552565a8a6ac0dcb6393e8c06681ed08a852f56ab22ed1",
  "version": 2,
  "locktime": 0,
  "vin": [
    {
      "txid": "4ee77778659dcfe8d7a4e15882fc6193f4f3d5f6607624e256337b44c2280af5",
      "vout": 5,
      "prevout": {
        "scriptpubkey": "5120524d0784b07590d0d742a69bd29cf2d03e3e7ad70c63e482d84941ec4b8afdac",
        "scriptpubkey_asm": "OP_PUSHNUM_1 OP_PUSHBYTES_32 524d0784b07590d0d742a69bd29cf2d03e3e7ad70c63e482d84941ec4b8afdac",
        "scriptpubkey_type": "v1_p2tr",
        "scriptpubkey_address": "bc1p2fxs0p9swkgdp46z56da988j6qlru7khp337fqkcf9q7cju2lkkqxfr7lh",
        "value": 2075
      },
      "scriptsig": "",
      "scriptsig_asm": "",
      "witness": [
        "bae34d40b973ab08bfb459de06b081de42ef72d40783769d5f243070d28a66bc18aaf4cc6885d5825bccc2a437f4c02197f65b8d7761019875cb10a84a7f8e19",
        "2038d7a6d67b8ea1c9c1f67c8c835e2809f6a314221b34ee9ad63e1c532d86e467ac0063036f7264010118746578742f706c61696e3b636861727365743d7574662d3800357b2270223a224252432d313030222c226f70223a226d696e74222c227469636b223a22696e73222c22616d74223a2231303030227d68",
        "c0c50eac15d7d7889f5ad84f80015e8a209129aeea937c37fa4b8bc0f9be289730"
      ],
      "is_coinbase": false,
      "sequence": 4294967295
    }
  ],
  "vout": [
    {
      "scriptpubkey": "00143e2325412b554cacdd163a93a42204c4707f8851",
      "scriptpubkey_asm": "OP_0 OP_PUSHBYTES_20 3e2325412b554cacdd163a93a42204c4707f8851",
      "scriptpubkey_type": "v0_p2wpkh",
      "scriptpubkey_address": "bc1q8c3j2sft24x2ehgk82f6ggsyc3c8lzz3yw9wsu",
      "value": 546
    }
  ],
  "size": 308,
  "weight": 554,
  "fee": 1529,
  "status": {
    "confirmed": true,
    "block_height": 834464,
    "block_hash": "0000000000000000000177a0869a911a2b65c9bdcd5a8bcb02b68f305bee848e",
    "block_time": 1710308296
  },
  "hex": "02000000000101f50a28c2447b3356e2247660f6d5f3f49361fc8258e1a4d7e8cf9d657877e74e0500000000ffffffff0122020000000000001600143e2325412b554cacdd163a93a42204c4707f88510340bae34d40b973ab08bfb459de06b081de42ef72d40783769d5f243070d28a66bc18aaf4cc6885d5825bccc2a437f4c02197f65b8d7761019875cb10a84a7f8e197b2038d7a6d67b8ea1c9c1f67c8c835e2809f6a314221b34ee9ad63e1c532d86e467ac0063036f7264010118746578742f706c61696e3b636861727365743d7574662d3800357b2270223a224252432d313030222c226f70223a226d696e74222c227469636b223a22696e73222c22616d74223a2231303030227d6821c0c50eac15d7d7889f5ad84f80015e8a209129aeea937c37fa4b8bc0f9be28973000000000"
}