{
  "txid": "08bcfcc89637115ed776e53e9481d99eab3ba10f1dee866fc03f016b49456a97",
  "version": 2,
  "locktime": 0,
  "vin": [
    {
      "txid": "63149376075288c10506ed42d239b5909279efab2a6cf6378049f5586e7d0360",
      "vout": 1,
      "prevout": {
        "scriptpubkey": "0014adf715cb79cf912f92ae1b6ce2cff51626854f6f",
        "scriptpubkey_asm": "OP_0 OP_PUSHBYTES_20 adf715cb79cf912f92ae1b6ce2cff51626854f6f",
        "scriptpubkey_type": "v0_p2wpkh",
        "scriptpubkey_address": "bc1q4hm3tjmee7gjly4wrdkw9nl4zcng2nm056pxrf",
        "value": 39632
      },
      "scriptsig": "",
      "scriptsig_asm": "",
      "witness": [
        "30450221009033e0b91cda23c471e608c647e3b0fd4ee5e8f8bd4a5fdf857272ac38b8dba80220279d65dc558a5220f32ff7062106f75f003e57500f5655c04322fdaba6c47a0501",
        "02a4105bac12fe7488436f439edae93968d90c6f3b067f061a953baa184bdde23f"
      ],
      "is_coinbase": false,
      "sequence": 4294967295
    }
  ],
  "vout": [
    {
      "scriptpubkey": "6a2aa3ddd19aa798dcdbfdf9f6cb5f7ad7c606bf3ea30b4c0ea677e9485a0cc7af29054c165f5e72ff658f49",
      "scriptpubkey_asm": "OP_RETURN OP_PUSHBYTES_42 a3ddd19aa798dcdbfdf9f6cb5f7ad7c606bf3ea30b4c0ea677e9485a0cc7af29054c165f5e72ff658f49",
      "scriptpubkey_type": "op_return",
      "value": 0
    },
    {
      "scriptpubkey": "0014adf715cb79cf912f92ae1b6ce2cff51626854f6f",
      "scriptpubkey_asm": "OP_0 OP_PUSHBYTES_20 adf715cb79cf912f92ae1b6ce2cff51626854f6f",
      "scriptpubkey_type": "v0_p2wpkh",
      "scriptpubkey_address": "bc1q4hm3tjmee7gjly4wrdkw9nl4zcng2nm056pxrf",
      "value": 37827
    }
  ],
  "size": 245,
  "weight": 650,
  "fee": 1805,
  "status": {
    "confirmed": true,
    "block_height": 834464,
    "block_hash": "0000000000000000000177a0869a911a2b65c9bdcd5a8bcb02b68f305bee848e",
    "block_time": 1710308296
  },
  "hex": "0200000000010160037d6e58f5498037f66c2aabef799290b539d242ed0605c1885207769314630100000000ffffffff0200000000000000002c6a2aa3ddd19aa798dcdbfdf9f6cb5f7ad7c606bf3ea30b4c0ea677e9485a0cc7af29054c165f5e72ff658f49c393000000000000160014adf715cb79cf912f92ae1b6ce2cff51626854f6f024830450221009033e0b91cda23c471e608c647e3b0fd4ee5e8f8bd4a5fdf857272ac38b8dba80220279d65dc558a5220f32ff7062106f75f003e57500f5655c04322fdaba6c47a05012102a4105bac12fe7488436f439edae93968d90c6f3b067f061a953baa184bdde23f00000000"
}