{
  "txid": "08be5031a9f9bf5e8e9bf21d3fda4456002e596ed62ee2bb7dd074a25511d1cf",
  "version": 2,
  "locktime": 0,
  "vin": [
    {
      "txid": "0e28c8b244baf002d4ef1f6e3199b9f889f6329381586e528f6947db836b5a4f",
      "vout": 1,
      "prevout": {
        "scriptpubkey": "a914e87b653eef9c6304800acf81245ec436155de08287",
        "scriptpubkey_asm": "OP_HASH160 OP_PUSHBYTES_20 e87b653eef9c6304800acf81245ec436155de082 OP_EQUAL",
        "scriptpubkey_type": "p2sh",
        "scriptpubkey_address": "3NtGWiZq95mugPh9jnkSmdxQwMzttJ3LzF",
        "value": 246579
      },
      "scriptsig": "160014ee002a9d908f6310faa25a0f1677988f7fa0e444",
      "scriptsig_asm": "OP_PUSHBYTES_22 0014ee002a9d908f6310faa25a0f1677988f7fa0e444",
      "witness": [
        "304502210097c96b686876983daa91e2930f284eac73d4c5bb40a067b6b3486512fdf1641002203c49f3014213c99d8580d9b61f928283cdcf59fc7ae64d30104c415c6582ea5501",
        "02e60b7d811dd6652c286d826a19106f3393f40c226a34704d7097a107b9d7cbbf"
      ],
      "is_coinbase": false,
      "sequence": 4294967295,
      "inner_redeemscript_asm": "OP_0 OP_PUSHBYTES_20 ee002a9d908f6310faa25a0f1677988f7fa0e444"
    }
  ],
  "vout": [
    {
      "scriptpubkey": "512095b729a6df2fcef55048066eb378c879d50cb1b4a3e76ac960baf80bbf55f38d",
      "scriptpubkey_asm": "OP_PUSHNUM_1 OP_PUSHBYTES_32 95b729a6df2fcef55048066eb378c879d50cb1b4a3e76ac960baf80bbf55f38d",
      "scriptpubkey_type": "v1_p2tr",
      "scriptpubkey_address": "bc1pjkmjnfkl9l8025zgqehtx7xg082sevd550nk4jtqhtuqh0647wxsxjaw4v",
      "value": 78575
    },
    {
      "scriptpubkey": "a914e87b653eef9c6304800acf81245ec436155de08287",
      "scriptpubkey_asm": "OP_HASH160 OP_PUSHBYTES_20 e87b653eef9c6304800acf81245ec436155de082 OP_EQUAL",
      "scriptpubkey_type": "p2sh",
      "scriptpubkey_address": "3NtGWiZq95mugPh9jnkSmdxQwMzttJ3LzF",
      "value": 165349
    }
  ],
  "size": 259,
  "weight": 706,
  "fee": 2655,
  "status": {
    "confirmed": true,
    "block_height": 834638,
    "block_hash": "000000000000000000025f742c626208ac87e0b7d15054abb4a19ca2d735a54e",
    "block_time": 1710405325
  },
  "hex": "020000000001014f5a6b83db47698f526e58819332f689f8b999316e1fefd402f0ba44b2c8280e0100000017160014ee002a9d908f6310faa25a0f1677988f7fa0e444ffffffff02ef3201000000000022512095b729a6df2fcef55048066eb378c879d50cb1b4a3e76ac960baf80bbf55f38de58502000000000017a914e87b653eef9c6304800acf81245ec436155de082870248304502210097c96b686876983daa91e2930f284eac73d4c5bb40a067b6b3486512fdf1641002203c49f3014213c99d8580d9b61f928283cdcf59fc7ae64d30104c415c6582ea55012102e60b7d811dd6652c286d826a19106f3393f40c226a34704d7097a107b9d7cbbf00000000"
}