{
  "txid": "08bfd9b83964375d2b206144f38ea9a5e2965ca00425630ab795c9196b3b758e",
  "version": 2,
  "locktime": 834637,
  "vin": [
    {
      "txid": "afbae98bb45ca393b77f3daf65b5ee49f850740e0f720080cc53cba78bf17462",
      "vout": 1,
      "prevout": {
        "scriptpubkey": "0014a60d43293545819c8edec9dd29f97507aa2bc107",
        "scriptpubkey_asm": "OP_0 OP_PUSHBYTES_20 a60d43293545819c8edec9dd29f97507aa2bc107",
        "scriptpubkey_type": "v0_p2wpkh",
        "scriptpubkey_address": "bc1q5cx5x2f4gkqeerk7e8wjn7t4q74zhsg8uahktc",
        "value": 3063145
      },
      "scriptsig": "",
      "scriptsig_asm": "",
      "witness": [
        "304402200c182b94930feb2c8913fe05fa5d980a3de914bac88a430621e1edeb5aae9b8102203fc5378c7296199c959f0146f86f39b6af6a00a0e878cfbb1a79b9e7d52c4f4a01",
        "024dbdd65228a30a0b5ae77770175199a3a8954143e5bed71ec004c021ca0ff1c1"
      ],
      "is_coinbase": false,
      "sequence": 4294967293
    }
  ],
  "vout": [
    {
      "scriptpubkey": "001404b679cde401a369c119f2502a2296cf8fee180e",
      "scriptpubkey_asm": "OP_0 OP_PUSHBYTES_20 04b679cde401a369c119f2502a2296cf8fee180e",
      "scriptpubkey_type": "v0_p2wpkh",
      "scriptpubkey_address": "bc1qqjm8nn0yqx3knsge7fgz5g5ke787uxqwsw2tsf",
      "value": 996475
    },
    {
      "scriptpubkey": "0014733a99d7945c89aab87dbff9fdef9eefe2fb5d40",
      "scriptpubkey_asm": "OP_0 OP_PUSHBYTES_20 733a99d7945c89aab87dbff9fdef9eefe2fb5d40",
      "scriptpubkey_type": "v0_p2wpkh",
      "scriptpubkey_address": "bc1qwvafn4u5tjy64wrahlulmmu7al30kh2q5u2lpd",
      "value": 2063145
    }
  ],
  "size": 222,
  "weight": 561,
  "fee": 3525,
  "status": {
    "confirmed": true,
    "block_height": 834638,
    "block_hash": "000000000000000000025f742c626208ac87e0b7d15054abb4a19ca2d735a54e",
    "block_time": 1710405325
  },
  "hex": "020000000001016274f18ba7cb53cc8000720f0e7450f849eeb565af3d7fb793a35cb48be9baaf0100000000fdffffff027b340f000000000016001404b679cde401a369c119f2502a2296cf8fee180e297b1f0000000000160014733a99d7945c89aab87dbff9fdef9eefe2fb5d400247304402200c182b94930feb2c8913fe05fa5d980a3de914bac88a430621e1edeb5aae9b8102203fc5378c7296199c959f0146f86f39b6af6a00a0e878cfbb1a79b9e7d52c4f4a0121024dbdd65228a30a0b5ae77770175199a3a8954143e5bed71ec004c021ca0ff1c14dbc0c00"
}