{
  "txid": "08bfae28c6be7c32ae8bbea86186e47402cbc3ce70e69e753613782c656b74ac",
  "version": 2,
  "locktime": 0,
  "vin": [
    {
      "txid": "8f9167d1c83147bd531512d9fb5f10eeb2c5cf8614d1ce732add9b7fd8e0cdeb",
      "vout": 16,
      "prevout": {
        "scriptpubkey": "0014edc67425df3d31668e6f1298e155c3a0da724b10",
        "scriptpubkey_asm": "OP_0 OP_PUSHBYTES_20 edc67425df3d31668e6f1298e155c3a0da724b10",
        "scriptpubkey_type": "v0_p2wpkh",
        "scriptpubkey_address": "bc1qahr8gfwl85ckdrn0z2vwz4wr5rd8yjcs0365y3",
        "value": 833475
      },
      "scriptsig": "",
      "scriptsig_asm": "",
      "witness": [
        "3045022100f1ccc5f3843b6f9ea6a1a6b211842bb1c59c8db30cae05b925845d46b11a224802204fd163eac028ba58f9af23ec5ab0f73fe5e351b4c6c6b81a4b65dda482adbac701",
        "02148cfcb114f2187e0ae5f25e78b971382bcbc072c54b6939a641cb253e183d8c"
      ],
      "is_coinbase": false,
      "sequence": 4294967293
    }
  ],
  "vout": [
    {
      "scriptpubkey": "001497374beb643539f99cb04c9b8eabfcde2810c39c",
      "scriptpubkey_asm": "OP_0 OP_PUSHBYTES_20 97374beb643539f99cb04c9b8eabfcde2810c39c",
      "scriptpubkey_type": "v0_p2wpkh",
      "scriptpubkey_address": "bc1qjum5h6myx5uln89sfjdca2lumc5ppsuu70lp4y",
      "value": 353485
    },
    {
      "scriptpubkey": "0014648e64980222567c2c7a0515b11dcfcf7b4a01cd",
      "scriptpubkey_asm": "OP_0 OP_PUSHBYTES_20 648e64980222567c2c7a0515b11dcfcf7b4a01cd",
      "scriptpubkey_type": "v0_p2wpkh",
      "scriptpubkey_address": "bc1qvj8xfxqzyft8ctr6q52mz8w0eaa55qwdk6gpzr",
      "value": 477740
    }
  ],
  "size": 223,
  "weight": 562,
  "fee": 2250,
  "status": {
    "confirmed": true,
    "block_height": 834464,
    "block_hash": "0000000000000000000177a0869a911a2b65c9bdcd5a8bcb02b68f305bee848e",
    "block_time": 1710308296
  },
  "hex": "02000000000101ebcde0d87f9bdd2a73ced11486cfc5b2ee105ffbd9121553bd4731c8d167918f1000000000fdffffff02cd6405000000000016001497374beb643539f99cb04c9b8eabfcde2810c39c2c4a070000000000160014648e64980222567c2c7a0515b11dcfcf7b4a01cd02483045022100f1ccc5f3843b6f9ea6a1a6b211842bb1c59c8db30cae05b925845d46b11a224802204fd163eac028ba58f9af23ec5ab0f73fe5e351b4c6c6b81a4b65dda482adbac7012102148cfcb114f2187e0ae5f25e78b971382bcbc072c54b6939a641cb253e183d8c00000000"
}