{
  "txid": "08cdd7c9ae5549749aec7669cde41cfd3350a168ef14e22ff28ec57e2e800b54",
  "version": 1,
  "locktime": 0,
  "vin": [
    {
      "txid": "0971759901f8f0809d7942ef13b641a441caca03b0a9b48976b161a4ae05a106",
      "vout": 0,
      "prevout": {
        "scriptpubkey": "0014fcf75868207c06c72ae9995f0f1d6ebafe9aa199",
        "scriptpubkey_asm": "OP_0 OP_PUSHBYTES_20 fcf75868207c06c72ae9995f0f1d6ebafe9aa199",
        "scriptpubkey_type": "v0_p2wpkh",
        "scriptpubkey_address": "bc1qlnm4s6pq0srvw2hfn90s78twhtlf4gvem4vaml",
        "value": 2180744
      },
      "scriptsig": "",
      "scriptsig_asm": "",
      "witness": [
        "30440220270f485c2e8f5c77d58bf6aec3c65c1aee63767e77aaaafb09561b93396bb1c60220449a882924858eb6199a295fc5d80e2833955aa965d4f7f5944e1f720a40bc0601",
        "0361d968ffb9888ce6d646e79aee79412a7d4283e0e87163761b7ba1b4d7811090"
      ],
      "is_coinbase": false,
      "sequence": 4294967295
    }
  ],
  "vout": [
    {
      "scriptpubkey": "0014c49d7b8276b8eddbdd934a57d98ff180762ec860",
      "scriptpubkey_asm": "OP_0 OP_PUSHBYTES_20 c49d7b8276b8eddbdd934a57d98ff180762ec860",
      "scriptpubkey_type": "v0_p2wpkh",
      "scriptpubkey_address": "bc1qcjwhhqnkhrkahhvnfftanrl3spmzajrqttcx29",
      "value": 1090228
    },
    {
      "scriptpubkey": "0014fcf75868207c06c72ae9995f0f1d6ebafe9aa199",
      "scriptpubkey_asm": "OP_0 OP_PUSHBYTES_20 fcf75868207c06c72ae9995f0f1d6ebafe9aa199",
      "scriptpubkey_type": "v0_p2wpkh",
      "scriptpubkey_address": "bc1qlnm4s6pq0srvw2hfn90s78twhtlf4gvem4vaml",
      "value": 1086709
    }
  ],
  "size": 222,
  "weight": 561,
  "fee": 3807,
  "status": {
    "confirmed": true,
    "block_height": 834638,
    "block_hash": "000000000000000000025f742c626208ac87e0b7d15054abb4a19ca2d735a54e",
    "block_time": 1710405325
  },
  "hex": "0100000000010106a105aea461b17689b4a9b003caca41a441b613ef42799d80f0f801997571090000000000ffffffff02b4a2100000000000160014c49d7b8276b8eddbdd934a57d98ff180762ec860f594100000000000160014fcf75868207c06c72ae9995f0f1d6ebafe9aa199024730440220270f485c2e8f5c77d58bf6aec3c65c1aee63767e77aaaafb09561b93396bb1c60220449a882924858eb6199a295fc5d80e2833955aa965d4f7f5944e1f720a40bc0601210361d968ffb9888ce6d646e79aee79412a7d4283e0e87163761b7ba1b4d781109000000000"
}