{
  "txid": "08d65b4ff1c2336f80ba3780a5578e129e6805379a340489aba9fdff0c4a6e13",
  "version": 2,
  "locktime": 834561,
  "vin": [
    {
      "txid": "0f77aa190ff3ab7ec9d563cfd66173fce4850f2a349c6073fd0cd9123755dfe4",
      "vout": 1,
      "prevout": {
        "scriptpubkey": "0014317097366ace45d5fba92efa0d2e28c05da3cb05",
        "scriptpubkey_asm": "OP_0 OP_PUSHBYTES_20 317097366ace45d5fba92efa0d2e28c05da3cb05",
        "scriptpubkey_type": "v0_p2wpkh",
        "scriptpubkey_address": "bc1qx9cfwdn2eezat7af9maq6t3gcpw68jc9pevlht",
        "value": 263491248
      },
      "scriptsig": "",
      "scriptsig_asm": "",
      "witness": [
        "30440220011e4b33da456ef26ea2caf04b2ae79d5f784e1d8803647c33166d72c3f1131c0220361c094b9ed772773069e9b12375b451e07fb59eb05f2947ddedb1ef86718fa301",
        "032d65d0882ddea60048327957d1f8eb12fe9a959c68a89c8da2f3491aaf94064b"
      ],
      "is_coinbase": false,
      "sequence": 4294967294
    }
  ],
  "vout": [
    {
      "scriptpubkey": "00149b8dc25a0a623f3a3943b8558ce1b1c9a29b320d",
      "scriptpubkey_asm": "OP_0 OP_PUSHBYTES_20 9b8dc25a0a623f3a3943b8558ce1b1c9a29b320d",
      "scriptpubkey_type": "v0_p2wpkh",
      "scriptpubkey_address": "bc1qnwxuyks2vgln5w2rhp2cecd3ex3fkvsdfxh5nj",
      "value": 261284468
    },
    {
      "scriptpubkey": "a914c577f60b38ee989019d8439db582d98216850c0e87",
      "scriptpubkey_asm": "OP_HASH160 OP_PUSHBYTES_20 c577f60b38ee989019d8439db582d98216850c0e OP_EQUAL",
      "scriptpubkey_type": "p2sh",
      "scriptpubkey_address": "3Kh8kNtsUhnchj3omCWyf4hiasyx8Fja6e",
      "value": 2203300
    }
  ],
  "size": 223,
  "weight": 565,
  "fee": 3480,
  "status": {
    "confirmed": true,
    "block_height": 834638,
    "block_hash": "000000000000000000025f742c626208ac87e0b7d15054abb4a19ca2d735a54e",
    "block_time": 1710405325
  },
  "hex": "02000000000101e4df553712d90cfd73609c342a0f85e4fc7361d6cf63d5c97eabf30f19aa770f0100000000feffffff0274e2920f000000001600149b8dc25a0a623f3a3943b8558ce1b1c9a29b320da49e21000000000017a914c577f60b38ee989019d8439db582d98216850c0e87024730440220011e4b33da456ef26ea2caf04b2ae79d5f784e1d8803647c33166d72c3f1131c0220361c094b9ed772773069e9b12375b451e07fb59eb05f2947ddedb1ef86718fa30121032d65d0882ddea60048327957d1f8eb12fe9a959c68a89c8da2f3491aaf94064b01bc0c00"
}