{
  "txid": "08d92e9e3b4c5a35eb6735a0902a6b65c95f924f19de3f03a6930d3f28d84629",
  "version": 2,
  "locktime": 0,
  "vin": [
    {
      "txid": "b449577f36185692c9418028b089ae17767b2924ad08ce2a0a0c0b615b095c01",
      "vout": 0,
      "prevout": {
        "scriptpubkey": "a91477cde961f942d709292278892ca2683896bce9ef87",
        "scriptpubkey_asm": "OP_HASH160 OP_PUSHBYTES_20 77cde961f942d709292278892ca2683896bce9ef OP_EQUAL",
        "scriptpubkey_type": "p2sh",
        "scriptpubkey_address": "3CcV1N4UU9LEts17NwuSWyf9nthEuzqLVQ",
        "value": 120000
      },
      "scriptsig": "1600146643355f8a5ca0929eba7c99402cb6474057946c",
      "scriptsig_asm": "OP_PUSHBYTES_22 00146643355f8a5ca0929eba7c99402cb6474057946c",
      "witness": [
        "304402201eb35da23b88ea708af6a93913265384aead240412905a0242e93b6ff52e410102201ee58f431bae615bd7a1769e82b398ce7f69d7a28ea86310f04d535ccb6fc74101",
        "033adf01fd537458e8b295adac1382ba79ca199812732b0c106c437817c96a83a8"
      ],
      "is_coinbase": false,
      "sequence": 4294967295,
      "inner_redeemscript_asm": "OP_0 OP_PUSHBYTES_20 6643355f8a5ca0929eba7c99402cb6474057946c"
    }
  ],
  "vout": [
    {
      "scriptpubkey": "5120a8f1c9e34089febb41166d4c73efc0f216f3a9ff0e7304851b460fb0c6c3126f",
      "scriptpubkey_asm": "OP_PUSHNUM_1 OP_PUSHBYTES_32 a8f1c9e34089febb41166d4c73efc0f216f3a9ff0e7304851b460fb0c6c3126f",
      "scriptpubkey_type": "v1_p2tr",
      "scriptpubkey_address": "bc1p4rcunc6q38ltksgkd4x88m7q7gt0820lpeesfpgmgc8mp3krzfhsr6axxh",
      "value": 22000
    },
    {
      "scriptpubkey": "a91477cde961f942d709292278892ca2683896bce9ef87",
      "scriptpubkey_asm": "OP_HASH160 OP_PUSHBYTES_20 77cde961f942d709292278892ca2683896bce9ef OP_EQUAL",
      "scriptpubkey_type": "p2sh",
      "scriptpubkey_address": "3CcV1N4UU9LEts17NwuSWyf9nthEuzqLVQ",
      "value": 95876
    }
  ],
  "size": 258,
  "weight": 705,
  "fee": 2124,
  "status": {
    "confirmed": true,
    "block_height": 834460,
    "block_hash": "00000000000000000000484a79b643b2524bbce82e5d8a442013fa5b8905ed98",
    "block_time": 1710307468
  },
  "hex": "02000000000101015c095b610b0c0a2ace08ad24297b7617ae89b0288041c9925618367f5749b400000000171600146643355f8a5ca0929eba7c99402cb6474057946cffffffff02f055000000000000225120a8f1c9e34089febb41166d4c73efc0f216f3a9ff0e7304851b460fb0c6c3126f847601000000000017a91477cde961f942d709292278892ca2683896bce9ef870247304402201eb35da23b88ea708af6a93913265384aead240412905a0242e93b6ff52e410102201ee58f431bae615bd7a1769e82b398ce7f69d7a28ea86310f04d535ccb6fc7410121033adf01fd537458e8b295adac1382ba79ca199812732b0c106c437817c96a83a800000000"
}