{
  "txid": "08ef1e78a4095367e127c7636e39b18f5902d90b4ab3eedfd32ed2d1093726ba",
  "version": 2,
  "locktime": 0,
  "vin": [
    {
      "txid": "2e62f51e3f1e8ea3668774fb9792424896ad801a1a51e2a894db2e39603f3f44",
      "vout": 33,
      "prevout": {
        "scriptpubkey": "001479078d2a89004bd7a2c662562ed83ee5b4328d1a",
        "scriptpubkey_asm": "OP_0 OP_PUSHBYTES_20 79078d2a89004bd7a2c662562ed83ee5b4328d1a",
        "scriptpubkey_type": "v0_p2wpkh",
        "scriptpubkey_address": "bc1q0yrc625fqp9a0gkxvftzakp7uk6r9rg6tlfxjf",
        "value": 301274
      },
      "scriptsig": "",
      "scriptsig_asm": "",
      "witness": [
        "30450221009fb56cac2aa81ad94b62f2be68b8b0facf1864e9e0d8e01593da3d1a3d321cb902207b87662e47fb3fe6dbde7fe19de89b5961fe8316a8c2c50b95a00fbca41004a001",
        "0329474106ca1e6bcf3e93b7998f7c01a70ed5f501867598da715dd8456417314d"
      ],
      "is_coinbase": false,
      "sequence": 4294967295
    },
    {
      "txid": "049567f74022ac1d16f50356882698f57836d3f00f5689fc91113e480846d06d",
      "vout": 68,
      "prevout": {
        "scriptpubkey": "001479078d2a89004bd7a2c662562ed83ee5b4328d1a",
        "scriptpubkey_asm": "OP_0 OP_PUSHBYTES_20 79078d2a89004bd7a2c662562ed83ee5b4328d1a",
        "scriptpubkey_type": "v0_p2wpkh",
        "scriptpubkey_address": "bc1q0yrc625fqp9a0gkxvftzakp7uk6r9rg6tlfxjf",
        "value": 164072
      },
      "scriptsig": "",
      "scriptsig_asm": "",
      "witness": [
        "30440220026cb43fad562cf8847a0e7dcb46d690eb5adcfde9eeafeccbd7a95b6ed9520902201c528eabd23420501d8e0c64f2cd97570a783ca5407769e1ac54fe65958f7c6001",
        "0329474106ca1e6bcf3e93b7998f7c01a70ed5f501867598da715dd8456417314d"
      ],
      "is_coinbase": false,
      "sequence": 4294967295
    }
  ],
  "vout": [
    {
      "scriptpubkey": "76a9148d52130ff682a898ae991efe9e19244eac0d7edb88ac",
      "scriptpubkey_asm": "OP_DUP OP_HASH160 OP_PUSHBYTES_20 8d52130ff682a898ae991efe9e19244eac0d7edb OP_EQUALVERIFY OP_CHECKSIG",
      "scriptpubkey_type": "p2pkh",
      "scriptpubkey_address": "1DtEbgYFuMBazBdhPiMrBiSxQoUd92ek4G",
      "value": 459674
    }
  ],
  "size": 343,
  "weight": 721,
  "fee": 5672,
  "status": {
    "confirmed": true,
    "block_height": 834638,
    "block_hash": "000000000000000000025f742c626208ac87e0b7d15054abb4a19ca2d735a54e",
    "block_time": 1710405325
  },
  "hex": "02000000000102443f3f60392edb94a8e2511a1a80ad9648429297fb748766a38e1e3f1ef5622e2100000000ffffffff6dd04608483e1191fc89560ff0d33678f59826885603f5161dac2240f76795044400000000ffffffff019a030700000000001976a9148d52130ff682a898ae991efe9e19244eac0d7edb88ac024830450221009fb56cac2aa81ad94b62f2be68b8b0facf1864e9e0d8e01593da3d1a3d321cb902207b87662e47fb3fe6dbde7fe19de89b5961fe8316a8c2c50b95a00fbca41004a001210329474106ca1e6bcf3e93b7998f7c01a70ed5f501867598da715dd8456417314d024730440220026cb43fad562cf8847a0e7dcb46d690eb5adcfde9eeafeccbd7a95b6ed9520902201c528eabd23420501d8e0c64f2cd97570a783ca5407769e1ac54fe65958f7c6001210329474106ca1e6bcf3e93b7998f7c01a70ed5f501867598da715dd8456417314d00000000"
}