{
  "txid": "08faa0ba959ba6c5c724e883b81312532c0e90ff275687a157a27238908e6dbe",
  "version": 2,
  "locktime": 0,
  "vin": [
    {
      "txid": "33198a5cbe2a53fc30099ab53009144888cef479020e7acbc065183b03c26d7b",
      "vout": 13,
      "prevout": {
        "scriptpubkey": "51209635b4b46432e97bed95e88835d567d7fa145e74a524fdc47e1ba798fe37184d",
        "scriptpubkey_asm": "OP_PUSHNUM_1 OP_PUSHBYTES_32 9635b4b46432e97bed95e88835d567d7fa145e74a524fdc47e1ba798fe37184d",
        "scriptpubkey_type": "v1_p2tr",
        "scriptpubkey_address": "bc1pjc6mfdryxt5hhmv4azyrt4t86lapghn555j0m3r7rwne3l3hrpxs3g9yd2",
        "value": 2646
      },
      "scriptsig": "",
      "scriptsig_asm": "",
      "witness": [
        "8bc7e8a5637f8b069fc6ebe50736faaa427cab4bff7f854e132e23e9ea97e45217c589c1d22ccf450c356fc3bf048f43c6705ea7a017bc6194e15ff85ac48a14",
        "206f0b46a471bd83c3581d52259d128b7207f826401b40742d0a97a93936cbe505ac0063036f726401011e6170706c69636174696f6e2f6a736f6e3b636861727365743d7574662d38004cbe7b2270223a22706f772d3230222c226f70223a226d696e74222c227469636b223a2250455045222c22616d74223a2231303030222c22736f6c7574696f6e223a22504550453a626331717832636c7935673578376b356a6b7376396d61346332753661646c7a78657470616e387071733a303030303030303030303030303030303030303139393431613561653132383937363539383134343239323533333030353762306461393666336465613163353a32313038383237313039227d68",
        "c1da2c9a1920efdfbecd176e4adbb0ca1150e62509fd8a3a19d8331b0c89a8a97b"
      ],
      "is_coinbase": false,
      "sequence": 4294967295
    }
  ],
  "vout": [
    {
      "scriptpubkey": "001432b1f2511437ad495a0c2efb5c2b9aeb7e236561",
      "scriptpubkey_asm": "OP_0 OP_PUSHBYTES_20 32b1f2511437ad495a0c2efb5c2b9aeb7e236561",
      "scriptpubkey_type": "v0_p2wpkh",
      "scriptpubkey_address": "bc1qx2cly5g5x7k5jksv9ma4c2u6adlzxetpan8pqs",
      "value": 546
    }
  ],
  "size": 454,
  "weight": 700,
  "fee": 2100,
  "status": {
    "confirmed": true,
    "block_height": 834460,
    "block_hash": "00000000000000000000484a79b643b2524bbce82e5d8a442013fa5b8905ed98",
    "block_time": 1710307468
  },
  "hex": "020000000001017b6dc2033b1865c0cb7a0e0279f4ce8848140930b59a0930fc532abe5c8a19330d00000000ffffffff01220200000000000016001432b1f2511437ad495a0c2efb5c2b9aeb7e23656103408bc7e8a5637f8b069fc6ebe50736faaa427cab4bff7f854e132e23e9ea97e45217c589c1d22ccf450c356fc3bf048f43c6705ea7a017bc6194e15ff85ac48a14fd0b01206f0b46a471bd83c3581d52259d128b7207f826401b40742d0a97a93936cbe505ac0063036f726401011e6170706c69636174696f6e2f6a736f6e3b636861727365743d7574662d38004cbe7b2270223a22706f772d3230222c226f70223a226d696e74222c227469636b223a2250455045222c22616d74223a2231303030222c22736f6c7574696f6e223a22504550453a626331717832636c7935673578376b356a6b7376396d61346332753661646c7a78657470616e387071733a303030303030303030303030303030303030303139393431613561653132383937363539383134343239323533333030353762306461393666336465613163353a32313038383237313039227d6821c1da2c9a1920efdfbecd176e4adbb0ca1150e62509fd8a3a19d8331b0c89a8a97b00000000"
}