{
  "txid": "09111a08e65d372bbff427cc08312cdb5f38e29170211d642f4efe657b27a345",
  "version": 2,
  "locktime": 0,
  "vin": [
    {
      "txid": "3c7b7ce6eb2748846874ba1f2b94de0370106f35c70abdde4237f2e42ea1d478",
      "vout": 1,
      "prevout": {
        "scriptpubkey": "00148756e9255983e6192a9482871e0c447d35009955",
        "scriptpubkey_asm": "OP_0 OP_PUSHBYTES_20 8756e9255983e6192a9482871e0c447d35009955",
        "scriptpubkey_type": "v0_p2wpkh",
        "scriptpubkey_address": "bc1qsatwjf2es0npj255s2r3urzy056spx24xlt9t9",
        "value": 37365
      },
      "scriptsig": "",
      "scriptsig_asm": "",
      "witness": [
        "3045022100b73d9c184f518872903a4bf5c13678d2863a08090e70f998424e0ba3ad408bd502204883c595407e2c7e741feffff2db24c49e7e521206e1e0eeeea3d1d702f4f70401",
        "020c97a4584b6d759a2db2798f4222b21ac36fa264978a38041d97ae8242db327d"
      ],
      "is_coinbase": false,
      "sequence": 4294967295
    },
    {
      "txid": "a3ce07b13ced58415d990de9a5f7e26a018b230f98222c439bd490bf7add88cb",
      "vout": 1,
      "prevout": {
        "scriptpubkey": "00148756e9255983e6192a9482871e0c447d35009955",
        "scriptpubkey_asm": "OP_0 OP_PUSHBYTES_20 8756e9255983e6192a9482871e0c447d35009955",
        "scriptpubkey_type": "v0_p2wpkh",
        "scriptpubkey_address": "bc1qsatwjf2es0npj255s2r3urzy056spx24xlt9t9",
        "value": 2489899
      },
      "scriptsig": "",
      "scriptsig_asm": "",
      "witness": [
        "30440220287f0a913cb6a0d4da8a6fbf67f3bd1530338966c309d0c4133a090acaa7b4a20220130a22fa8e4e18ec123f4e095f6ac4886f2a4fdb58e3c38c0b44ebd00bb45e1101",
        "020c97a4584b6d759a2db2798f4222b21ac36fa264978a38041d97ae8242db327d"
      ],
      "is_coinbase": false,
      "sequence": 4294967295
    }
  ],
  "vout": [
    {
      "scriptpubkey": "00148756e9255983e6192a9482871e0c447d35009955",
      "scriptpubkey_asm": "OP_0 OP_PUSHBYTES_20 8756e9255983e6192a9482871e0c447d35009955",
      "scriptpubkey_type": "v0_p2wpkh",
      "scriptpubkey_address": "bc1qsatwjf2es0npj255s2r3urzy056spx24xlt9t9",
      "value": 1970224
    },
    {
      "scriptpubkey": "76a914d2ebc4792cfb5af428b91f2947199c0b2a1c0e9f88ac",
      "scriptpubkey_asm": "OP_DUP OP_HASH160 OP_PUSHBYTES_20 d2ebc4792cfb5af428b91f2947199c0b2a1c0e9f OP_EQUALVERIFY OP_CHECKSIG",
      "scriptpubkey_type": "p2pkh",
      "scriptpubkey_address": "1LEFLhMDvRbUham5c38KYx1Zf5su2wKk5F",
      "value": 554023
    }
  ],
  "size": 374,
  "weight": 845,
  "fee": 3017,
  "status": {
    "confirmed": true,
    "block_height": 834460,
    "block_hash": "00000000000000000000484a79b643b2524bbce82e5d8a442013fa5b8905ed98",
    "block_time": 1710307468
  },
  "hex": "0200000000010278d4a12ee4f23742debd0ac7356f107003de942b1fba7468844827ebe67c7b3c0100000000ffffffffcb88dd7abf90d49b432c22980f238b016ae2f7a5e90d995d4158ed3cb107cea30100000000ffffffff0230101e00000000001600148756e9255983e6192a9482871e0c447d3500995527740800000000001976a914d2ebc4792cfb5af428b91f2947199c0b2a1c0e9f88ac02483045022100b73d9c184f518872903a4bf5c13678d2863a08090e70f998424e0ba3ad408bd502204883c595407e2c7e741feffff2db24c49e7e521206e1e0eeeea3d1d702f4f7040121020c97a4584b6d759a2db2798f4222b21ac36fa264978a38041d97ae8242db327d024730440220287f0a913cb6a0d4da8a6fbf67f3bd1530338966c309d0c4133a090acaa7b4a20220130a22fa8e4e18ec123f4e095f6ac4886f2a4fdb58e3c38c0b44ebd00bb45e110121020c97a4584b6d759a2db2798f4222b21ac36fa264978a38041d97ae8242db327d00000000"
}