{
  "txid": "0915728f67a77fb7a7dbc32ae7eb87d833b0bb698ed3db900792df6724b70188",
  "version": 2,
  "locktime": 0,
  "vin": [
    {
      "txid": "acc3ba00869acb582a3f2904ce3a11dd3779350ce234063fc7d0959246213364",
      "vout": 278,
      "prevout": {
        "scriptpubkey": "51204ed0aa01b4ac323c9c3f44989f91a90cd3d90b12682193eafea396259ca55e80",
        "scriptpubkey_asm": "OP_PUSHNUM_1 OP_PUSHBYTES_32 4ed0aa01b4ac323c9c3f44989f91a90cd3d90b12682193eafea396259ca55e80",
        "scriptpubkey_type": "v1_p2tr",
        "scriptpubkey_address": "bc1pfmg25qd54sere8plgjvflydfpnfajzcjdqse86h75wtzt899t6qqm9l8k2",
        "value": 1806
      },
      "scriptsig": "",
      "scriptsig_asm": "",
      "witness": [
        "a0cfb15dbd78f9377f422e5d455aece5e2d15d0bb94da524a0f8874ededf1fc8184458992a49a3527837cb9b34c276527224f8f018a54722be474df5bdc08192",
        "200df5c933032be290a211dd7d2cfefd479508f8d724a8ee04e00358a7cc4db504ac0063036f726401010a746578742f706c61696e00357b2270223a226272632d3230222c226f70223a226d696e74222c227469636b223a22646f6765222c22616d74223a2234323030227d68",
        "c00df5c933032be290a211dd7d2cfefd479508f8d724a8ee04e00358a7cc4db504"
      ],
      "is_coinbase": false,
      "sequence": 4261412863
    }
  ],
  "vout": [
    {
      "scriptpubkey": "00147a665de7a370f4c9b372ab1fae587500a5bcbdb4",
      "scriptpubkey_asm": "OP_0 OP_PUSHBYTES_20 7a665de7a370f4c9b372ab1fae587500a5bcbdb4",
      "scriptpubkey_type": "v0_p2wpkh",
      "scriptpubkey_address": "bc1q0fn9mearwr6vnvmj4v06ukr4qzjme0d565dzcx",
      "value": 294
    }
  ],
  "size": 294,
  "weight": 540,
  "fee": 1512,
  "status": {
    "confirmed": true,
    "block_height": 834460,
    "block_hash": "00000000000000000000484a79b643b2524bbce82e5d8a442013fa5b8905ed98",
    "block_time": 1710307468
  },
  "hex": "02000000000101643321469295d0c73f0634e20c357937dd113ace04293f2a58cb9a8600bac3ac1601000000fffffffd0126010000000000001600147a665de7a370f4c9b372ab1fae587500a5bcbdb40340a0cfb15dbd78f9377f422e5d455aece5e2d15d0bb94da524a0f8874ededf1fc8184458992a49a3527837cb9b34c276527224f8f018a54722be474df5bdc081926d200df5c933032be290a211dd7d2cfefd479508f8d724a8ee04e00358a7cc4db504ac0063036f726401010a746578742f706c61696e00357b2270223a226272632d3230222c226f70223a226d696e74222c227469636b223a22646f6765222c22616d74223a2234323030227d6821c00df5c933032be290a211dd7d2cfefd479508f8d724a8ee04e00358a7cc4db50400000000"
}