{
  "txid": "092268318d300c5a121d1b8fcd738caad8c4bdc128c81c88517de89ab816c3b2",
  "version": 2,
  "locktime": 0,
  "vin": [
    {
      "txid": "75aa03855c8f72927cb00671099e695ecf520e1c9f94193d1859d0936f1b4ad2",
      "vout": 1,
      "prevout": {
        "scriptpubkey": "512003e3b5698b33b96658972b7a7f4c5f77426d6e2ecd26e5c68b6b9ef984c720f0",
        "scriptpubkey_asm": "OP_PUSHNUM_1 OP_PUSHBYTES_32 03e3b5698b33b96658972b7a7f4c5f77426d6e2ecd26e5c68b6b9ef984c720f0",
        "scriptpubkey_type": "v1_p2tr",
        "scriptpubkey_address": "bc1pq03m26vtxwukvkyh9da87nzlwapx6m3we5nwt35tdw00npx8yrcqwxm0tf",
        "value": 414818
      },
      "scriptsig": "",
      "scriptsig_asm": "",
      "witness": [
        "6a199693f6a97b535ac6e199153fbc10c8f4e78fe3fc0198366806f7eea92d46fb95ba8f204aadc1c89161f9df916b491dc3dcd7d4525eea7d8da20931ed69cb"
      ],
      "is_coinbase": false,
      "sequence": 4294967295
    },
    {
      "txid": "da14e7827deab402286b764c122e0d9e6637d906ffcf69f18d477e55db16ad75",
      "vout": 5,
      "prevout": {
        "scriptpubkey": "512003e3b5698b33b96658972b7a7f4c5f77426d6e2ecd26e5c68b6b9ef984c720f0",
        "scriptpubkey_asm": "OP_PUSHNUM_1 OP_PUSHBYTES_32 03e3b5698b33b96658972b7a7f4c5f77426d6e2ecd26e5c68b6b9ef984c720f0",
        "scriptpubkey_type": "v1_p2tr",
        "scriptpubkey_address": "bc1pq03m26vtxwukvkyh9da87nzlwapx6m3we5nwt35tdw00npx8yrcqwxm0tf",
        "value": 371488
      },
      "scriptsig": "",
      "scriptsig_asm": "",
      "witness": [
        "6404876c8b7e1f0c2851cb744999dfbeff455da7c7583e621cd5dd446bb68855c17bf6836562ba557a22234530ecddc156c1a4973e065fc8fc9271147a6f31d4"
      ],
      "is_coinbase": false,
      "sequence": 4294967295
    },
    {
      "txid": "52f790b33aeb75a68d00e56904d907001c8570625e1cf1f2ce17b1ed95ea8b3e",
      "vout": 1,
      "prevout": {
        "scriptpubkey": "512003e3b5698b33b96658972b7a7f4c5f77426d6e2ecd26e5c68b6b9ef984c720f0",
        "scriptpubkey_asm": "OP_PUSHNUM_1 OP_PUSHBYTES_32 03e3b5698b33b96658972b7a7f4c5f77426d6e2ecd26e5c68b6b9ef984c720f0",
        "scriptpubkey_type": "v1_p2tr",
        "scriptpubkey_address": "bc1pq03m26vtxwukvkyh9da87nzlwapx6m3we5nwt35tdw00npx8yrcqwxm0tf",
        "value": 350000
      },
      "scriptsig": "",
      "scriptsig_asm": "",
      "witness": [
        "7a2e9d1628c8bdd885db392d333dcdeafca98c647ae81651546a21619924f76ab37c7f56819ffb6e4b428f2d458f8c6807578bb9bd98c8f47affd7c8282de7a8"
      ],
      "is_coinbase": false,
      "sequence": 4294967295
    },
    {
      "txid": "0de90cdae9becfcf61a928a68f6e7cad8c8b215133f4b3910c8059b744cf2830",
      "vout": 18,
      "prevout": {
        "scriptpubkey": "512003e3b5698b33b96658972b7a7f4c5f77426d6e2ecd26e5c68b6b9ef984c720f0",
        "scriptpubkey_asm": "OP_PUSHNUM_1 OP_PUSHBYTES_32 03e3b5698b33b96658972b7a7f4c5f77426d6e2ecd26e5c68b6b9ef984c720f0",
        "scriptpubkey_type": "v1_p2tr",
        "scriptpubkey_address": "bc1pq03m26vtxwukvkyh9da87nzlwapx6m3we5nwt35tdw00npx8yrcqwxm0tf",
        "value": 298116
      },
      "scriptsig": "",
      "scriptsig_asm": "",
      "witness": [
        "5a9c97568acb4fc2f0377aadf802a44b13170a2ea0160ba6090970143c6dd461e936c38866577e75e51ea694f492b64429e388f3277c335be0482d5bd2edb474"
      ],
      "is_coinbase": false,
      "sequence": 4294967295
    },
    {
      "txid": "8a789cab072f6765582e4232339923c8a7fb609c239f71841c65ed46af410d16",
      "vout": 1,
      "prevout": {
        "scriptpubkey": "512003e3b5698b33b96658972b7a7f4c5f77426d6e2ecd26e5c68b6b9ef984c720f0",
        "scriptpubkey_asm": "OP_PUSHNUM_1 OP_PUSHBYTES_32 03e3b5698b33b96658972b7a7f4c5f77426d6e2ecd26e5c68b6b9ef984c720f0",
        "scriptpubkey_type": "v1_p2tr",
        "scriptpubkey_address": "bc1pq03m26vtxwukvkyh9da87nzlwapx6m3we5nwt35tdw00npx8yrcqwxm0tf",
        "value": 99580
      },
      "scriptsig": "",
      "scriptsig_asm": "",
      "witness": [
        "8e99d2f7027f79f6af3346b91dcef987725af0d1c8fd79d6a6f0f1dff60625e7cd8a979aae8933c31a1b440703ce871c05765a701a2877b630aa208a61bae9c0"
      ],
      "is_coinbase": false,
      "sequence": 4294967295
    },
    {
      "txid": "382a5db768bdd7938ac9d3556d2684443bab8ba5d2f182b9bf4f6e4a845c9159",
      "vout": 1,
      "prevout": {
        "scriptpubkey": "512003e3b5698b33b96658972b7a7f4c5f77426d6e2ecd26e5c68b6b9ef984c720f0",
        "scriptpubkey_asm": "OP_PUSHNUM_1 OP_PUSHBYTES_32 03e3b5698b33b96658972b7a7f4c5f77426d6e2ecd26e5c68b6b9ef984c720f0",
        "scriptpubkey_type": "v1_p2tr",
        "scriptpubkey_address": "bc1pq03m26vtxwukvkyh9da87nzlwapx6m3we5nwt35tdw00npx8yrcqwxm0tf",
        "value": 99580
      },
      "scriptsig": "",
      "scriptsig_asm": "",
      "witness": [
        "c4f4e7358a6a4c52185f084835483e5612f4dca4f53f8c7e7d2bf724678c161ff0041f84f0092dce968bf4eb61728526f129e04e569157732d088304adfdfd42"
      ],
      "is_coinbase": false,
      "sequence": 4294967295
    },
    {
      "txid": "15355122358457fafb4319ac86a905e51ef11b5285fb22f312ad13059729b8e3",
      "vout": 1,
      "prevout": {
        "scriptpubkey": "512003e3b5698b33b96658972b7a7f4c5f77426d6e2ecd26e5c68b6b9ef984c720f0",
        "scriptpubkey_asm": "OP_PUSHNUM_1 OP_PUSHBYTES_32 03e3b5698b33b96658972b7a7f4c5f77426d6e2ecd26e5c68b6b9ef984c720f0",
        "scriptpubkey_type": "v1_p2tr",
        "scriptpubkey_address": "bc1pq03m26vtxwukvkyh9da87nzlwapx6m3we5nwt35tdw00npx8yrcqwxm0tf",
        "value": 63580
      },
      "scriptsig": "",
      "scriptsig_asm": "",
      "witness": [
        "02a59cfa1e715be8c09eba40be30ed29224ebedd8796522a1f38d65a5be2eb28a8e38a9189494ed9f35862fbe08194b9643ab721d1397968dccbeac7bda14b07"
      ],
      "is_coinbase": false,
      "sequence": 4294967295
    },
    {
      "txid": "d22a7ca57a30b2fcda6f8a1538f5ebb2ad314570b4c479935ab749001fd3bc21",
      "vout": 1,
      "prevout": {
        "scriptpubkey": "512003e3b5698b33b96658972b7a7f4c5f77426d6e2ecd26e5c68b6b9ef984c720f0",
        "scriptpubkey_asm": "OP_PUSHNUM_1 OP_PUSHBYTES_32 03e3b5698b33b96658972b7a7f4c5f77426d6e2ecd26e5c68b6b9ef984c720f0",
        "scriptpubkey_type": "v1_p2tr",
        "scriptpubkey_address": "bc1pq03m26vtxwukvkyh9da87nzlwapx6m3we5nwt35tdw00npx8yrcqwxm0tf",
        "value": 63580
      },
      "scriptsig": "",
      "scriptsig_asm": "",
      "witness": [
        "37603ae944cb0acd8afd6e9e02e5760e08bbe6511e3336025f7f47a5edf9a2ae65283863a98c65d9f94c8b53cda1c9d7a07287238f1d029b8e9d796a31bbd058"
      ],
      "is_coinbase": false,
      "sequence": 4294967295
    },
    {
      "txid": "bbcf5e0e0bc34386fbeeff63e4b8813cd042061fc7e65af14ba659372c2ed374",
      "vout": 1,
      "prevout": {
        "scriptpubkey": "512003e3b5698b33b96658972b7a7f4c5f77426d6e2ecd26e5c68b6b9ef984c720f0",
        "scriptpubkey_asm": "OP_PUSHNUM_1 OP_PUSHBYTES_32 03e3b5698b33b96658972b7a7f4c5f77426d6e2ecd26e5c68b6b9ef984c720f0",
        "scriptpubkey_type": "v1_p2tr",
        "scriptpubkey_address": "bc1pq03m26vtxwukvkyh9da87nzlwapx6m3we5nwt35tdw00npx8yrcqwxm0tf",
        "value": 63580
      },
      "scriptsig": "",
      "scriptsig_asm": "",
      "witness": [
        "2cdc5491b50edcda0e0cdc38da8b58361088ed79a87a565329d36041949a0e3eb8821869a5eacdc4314b283cd49feb07073ac1d8f7345f710628a5ef5a6efa05"
      ],
      "is_coinbase": false,
      "sequence": 4294967295
    },
    {
      "txid": "1794e08f3faf03f7e31ceb0f52608cbb3a52e59e3a7c5b517dfc3a41d895d722",
      "vout": 1,
      "prevout": {
        "scriptpubkey": "512003e3b5698b33b96658972b7a7f4c5f77426d6e2ecd26e5c68b6b9ef984c720f0",
        "scriptpubkey_asm": "OP_PUSHNUM_1 OP_PUSHBYTES_32 03e3b5698b33b96658972b7a7f4c5f77426d6e2ecd26e5c68b6b9ef984c720f0",
        "scriptpubkey_type": "v1_p2tr",
        "scriptpubkey_address": "bc1pq03m26vtxwukvkyh9da87nzlwapx6m3we5nwt35tdw00npx8yrcqwxm0tf",
        "value": 61149
      },
      "scriptsig": "",
      "scriptsig_asm": "",
      "witness": [
        "c0f18d8f7d6883dc1749de6e586249245b2841a9b3263a2f5c3478408d36dc93fa16557959b6efd6874734246056b35eb8c3710a9dae0efa5bb1bb3985a48b86"
      ],
      "is_coinbase": false,
      "sequence": 4294967295
    },
    {
      "txid": "d08665b76081208714986d3912adeb427718287bf594998d7dd282abbbc3a82e",
      "vout": 1,
      "prevout": {
        "scriptpubkey": "512003e3b5698b33b96658972b7a7f4c5f77426d6e2ecd26e5c68b6b9ef984c720f0",
        "scriptpubkey_asm": "OP_PUSHNUM_1 OP_PUSHBYTES_32 03e3b5698b33b96658972b7a7f4c5f77426d6e2ecd26e5c68b6b9ef984c720f0",
        "scriptpubkey_type": "v1_p2tr",
        "scriptpubkey_address": "bc1pq03m26vtxwukvkyh9da87nzlwapx6m3we5nwt35tdw00npx8yrcqwxm0tf",
        "value": 45270
      },
      "scriptsig": "",
      "scriptsig_asm": "",
      "witness": [
        "35f2a328b4cb6d94d48e2f76b99414e693815b14e9474082da2587253818c8c48ef477a2f545c01f7f316786040ab00fd1b4581753436f3de6a4da9d3bb3aff1"
      ],
      "is_coinbase": false,
      "sequence": 4294967295
    },
    {
      "txid": "48e63345df9b731aee650d4c6b60882f02e2238acb7846cd0592a10d57fa83c8",
      "vout": 1,
      "prevout": {
        "scriptpubkey": "512003e3b5698b33b96658972b7a7f4c5f77426d6e2ecd26e5c68b6b9ef984c720f0",
        "scriptpubkey_asm": "OP_PUSHNUM_1 OP_PUSHBYTES_32 03e3b5698b33b96658972b7a7f4c5f77426d6e2ecd26e5c68b6b9ef984c720f0",
        "scriptpubkey_type": "v1_p2tr",
        "scriptpubkey_address": "bc1pq03m26vtxwukvkyh9da87nzlwapx6m3we5nwt35tdw00npx8yrcqwxm0tf",
        "value": 22885
      },
      "scriptsig": "",
      "scriptsig_asm": "",
      "witness": [
        "4cd9fd7b0f87d04405fd0d5806929912d85fb7cb4b50d79bc2450334bab1d47ba069691ad5118aef72707a6c3b5129eb9f489cd6ba662f1d55c12633e72889a5"
      ],
      "is_coinbase": false,
      "sequence": 4294967295
    },
    {
      "txid": "253ec1c2ac05f721da978cfc7bcb2dab03f6cb1950009d0cd66a286b8adbfc12",
      "vout": 1,
      "prevout": {
        "scriptpubkey": "512003e3b5698b33b96658972b7a7f4c5f77426d6e2ecd26e5c68b6b9ef984c720f0",
        "scriptpubkey_asm": "OP_PUSHNUM_1 OP_PUSHBYTES_32 03e3b5698b33b96658972b7a7f4c5f77426d6e2ecd26e5c68b6b9ef984c720f0",
        "scriptpubkey_type": "v1_p2tr",
        "scriptpubkey_address": "bc1pq03m26vtxwukvkyh9da87nzlwapx6m3we5nwt35tdw00npx8yrcqwxm0tf",
        "value": 9116
      },
      "scriptsig": "",
      "scriptsig_asm": "",
      "witness": [
        "f731aac9039e62842bc8239449f8cb0df7d67232cd6508434c5e4a51cb54105d960b81efa775cbbc06a4cd55971367730d5717b130c31ccdc000650f9345ff6e"
      ],
      "is_coinbase": false,
      "sequence": 4294967295
    },
    {
      "txid": "134b855e2ae86b448494487dfa4e46ac9a32b0a72f2f2f068908861dce675eb8",
      "vout": 0,
      "prevout": {
        "scriptpubkey": "512003e3b5698b33b96658972b7a7f4c5f77426d6e2ecd26e5c68b6b9ef984c720f0",
        "scriptpubkey_asm": "OP_PUSHNUM_1 OP_PUSHBYTES_32 03e3b5698b33b96658972b7a7f4c5f77426d6e2ecd26e5c68b6b9ef984c720f0",
        "scriptpubkey_type": "v1_p2tr",
        "scriptpubkey_address": "bc1pq03m26vtxwukvkyh9da87nzlwapx6m3we5nwt35tdw00npx8yrcqwxm0tf",
        "value": 1000
      },
      "scriptsig": "",
      "scriptsig_asm": "",
      "witness": [
        "7806687efcf3775dedcceef7eb45d4351d83c8334375b9c48aa670246e5721eedb0e3012d87a2e8603a262ebdf63dacc6d62a44db503b2507ee43ea300692daf"
      ],
      "is_coinbase": false,
      "sequence": 4294967295
    }
  ],
  "vout": [
    {
      "scriptpubkey": "0014556d823ed5df6ee06fdeed51a82f943d7e6e3eb7",
      "scriptpubkey_asm": "OP_0 OP_PUSHBYTES_20 556d823ed5df6ee06fdeed51a82f943d7e6e3eb7",
      "scriptpubkey_type": "v0_p2wpkh",
      "scriptpubkey_address": "bc1q24kcy0k4mahwqm77a4g6stu584lxu04hjd79lu",
      "value": 1953566
    }
  ],
  "size": 1541,
  "weight": 3386,
  "fee": 10176,
  "status": {
    "confirmed": true,
    "block_height": 834460,
    "block_hash": "00000000000000000000484a79b643b2524bbce82e5d8a442013fa5b8905ed98",
    "block_time": 1710307468
  },
  "hex": "0200000000010ed24a1b6f93d059183d19949f1c0e52cf5e699e097106b07c92728f5c8503aa750100000000ffffffff75ad16db557e478df169cfff06d937669e0d2e124c766b2802b4ea7d82e714da0500000000ffffffff3e8bea95edb117cef2f11c5e6270851c0007d90469e5008da675eb3ab390f7520100000000ffffffff3028cf44b759800c91b3f43351218b8cad7c6e8fa628a961cfcfbee9da0ce90d1200000000ffffffff160d41af46ed651c84719f239c60fba7c823993332422e5865672f07ab9c788a0100000000ffffffff59915c844a6e4fbfb982f1d2a58bab3b4484266d55d3c98a93d7bd68b75d2a380100000000ffffffffe3b829970513ad12f322fb85521bf11ee505a986ac1943fbfa578435225135150100000000ffffffff21bcd31f0049b75a9379c4b4704531adb2ebf538158a6fdafcb2307aa57c2ad20100000000ffffffff74d32e2c3759a64bf15ae6c71f0642d03c81b8e463ffeefb8643c30b0e5ecfbb0100000000ffffffff22d795d8413afc7d515b7c3a9ee5523abb8c60520feb1ce3f703af3f8fe094170100000000ffffffff2ea8c3bbab82d27d8d9994f57b28187742ebad12396d981487208160b76586d00100000000ffffffffc883fa570da19205cd4678cb8a23e2022f88606b4c0d65ee1a739bdf4533e6480100000000ffffffff12fcdb8a6b286ad60c9d005019cbf603ab2dcb7bfc8c97da21f705acc2c13e250100000000ffffffffb85e67ce1d860889062f2f2fa7b0329aac464efa7d489484446be82a5e854b130000000000ffffffff011ecf1d0000000000160014556d823ed5df6ee06fdeed51a82f943d7e6e3eb701406a199693f6a97b535ac6e199153fbc10c8f4e78fe3fc0198366806f7eea92d46fb95ba8f204aadc1c89161f9df916b491dc3dcd7d4525eea7d8da20931ed69cb01406404876c8b7e1f0c2851cb744999dfbeff455da7c7583e621cd5dd446bb68855c17bf6836562ba557a22234530ecddc156c1a4973e065fc8fc9271147a6f31d401407a2e9d1628c8bdd885db392d333dcdeafca98c647ae81651546a21619924f76ab37c7f56819ffb6e4b428f2d458f8c6807578bb9bd98c8f47affd7c8282de7a801405a9c97568acb4fc2f0377aadf802a44b13170a2ea0160ba6090970143c6dd461e936c38866577e75e51ea694f492b64429e388f3277c335be0482d5bd2edb47401408e99d2f7027f79f6af3346b91dcef987725af0d1c8fd79d6a6f0f1dff60625e7cd8a979aae8933c31a1b440703ce871c05765a701a2877b630aa208a61bae9c00140c4f4e7358a6a4c52185f084835483e5612f4dca4f53f8c7e7d2bf724678c161ff0041f84f0092dce968bf4eb61728526f129e04e569157732d088304adfdfd42014002a59cfa1e715be8c09eba40be30ed29224ebedd8796522a1f38d65a5be2eb28a8e38a9189494ed9f35862fbe08194b9643ab721d1397968dccbeac7bda14b07014037603ae944cb0acd8afd6e9e02e5760e08bbe6511e3336025f7f47a5edf9a2ae65283863a98c65d9f94c8b53cda1c9d7a07287238f1d029b8e9d796a31bbd05801402cdc5491b50edcda0e0cdc38da8b58361088ed79a87a565329d36041949a0e3eb8821869a5eacdc4314b283cd49feb07073ac1d8f7345f710628a5ef5a6efa050140c0f18d8f7d6883dc1749de6e586249245b2841a9b3263a2f5c3478408d36dc93fa16557959b6efd6874734246056b35eb8c3710a9dae0efa5bb1bb3985a48b86014035f2a328b4cb6d94d48e2f76b99414e693815b14e9474082da2587253818c8c48ef477a2f545c01f7f316786040ab00fd1b4581753436f3de6a4da9d3bb3aff101404cd9fd7b0f87d04405fd0d5806929912d85fb7cb4b50d79bc2450334bab1d47ba069691ad5118aef72707a6c3b5129eb9f489cd6ba662f1d55c12633e72889a50140f731aac9039e62842bc8239449f8cb0df7d67232cd6508434c5e4a51cb54105d960b81efa775cbbc06a4cd55971367730d5717b130c31ccdc000650f9345ff6e01407806687efcf3775dedcceef7eb45d4351d83c8334375b9c48aa670246e5721eedb0e3012d87a2e8603a262ebdf63dacc6d62a44db503b2507ee43ea300692daf00000000"
}