{
  "txid": "0922b68bca7566feacc3c1f70d8e910340c509fd4f7234d7c4bbb26d11d304bf",
  "version": 2,
  "locktime": 0,
  "vin": [
    {
      "txid": "fc75eeb010333a7d4cc49e7ca2caa58923b1e1eec3ecd0a8fefb878b2cff45bd",
      "vout": 2,
      "prevout": {
        "scriptpubkey": "001411b3de97ebde821358ce5c1700330116e5d7303c",
        "scriptpubkey_asm": "OP_0 OP_PUSHBYTES_20 11b3de97ebde821358ce5c1700330116e5d7303c",
        "scriptpubkey_type": "v0_p2wpkh",
        "scriptpubkey_address": "bc1qzxeaa9ltm6ppxkxwtstsqvcpzmjawvpuswcyj9",
        "value": 45908
      },
      "scriptsig": "",
      "scriptsig_asm": "",
      "witness": [
        "3045022100c8c031841ed1474935845854da2d9e2f8aa88c41c2b7be31df43ae3a7882d47f02202bf3b2dd6784eddd889e0064c4ea78bc17c102378a4e1efffa4fee72d65bec1d01",
        "031fde1fc2d5e32d21a3d7870b17def989ec539799c18d5c929c1391acd9aa8247"
      ],
      "is_coinbase": false,
      "sequence": 4294967295
    }
  ],
  "vout": [
    {
      "scriptpubkey": "001454364819747f37606835ec00b4f4cfd7da5dd43e",
      "scriptpubkey_asm": "OP_0 OP_PUSHBYTES_20 54364819747f37606835ec00b4f4cfd7da5dd43e",
      "scriptpubkey_type": "v0_p2wpkh",
      "scriptpubkey_address": "bc1q2smysxt50umkq6p4asqtfax06ld9m4p7xmjmyn",
      "value": 333
    },
    {
      "scriptpubkey": "51210293f7a6930a7fbdff0b1c801d2bd5304d8bbc3c260ec8bc979fe479dab15344ad210263a569eea7a3abd00b4a287a679ef623a42de04f317c6f507c3e2bad6ae2c32e2102020202020202020202020202020202020202020202020202020202020202020253ae",
      "scriptpubkey_asm": "OP_PUSHNUM_1 OP_PUSHBYTES_33 0293f7a6930a7fbdff0b1c801d2bd5304d8bbc3c260ec8bc979fe479dab15344ad OP_PUSHBYTES_33 0263a569eea7a3abd00b4a287a679ef623a42de04f317c6f507c3e2bad6ae2c32e OP_PUSHBYTES_33 020202020202020202020202020202020202020202020202020202020202020202 OP_PUSHNUM_3 OP_CHECKMULTISIG",
      "scriptpubkey_type": "unknown",
      "value": 801
    },
    {
      "scriptpubkey": "001411b3de97ebde821358ce5c1700330116e5d7303c",
      "scriptpubkey_asm": "OP_0 OP_PUSHBYTES_20 11b3de97ebde821358ce5c1700330116e5d7303c",
      "scriptpubkey_type": "v0_p2wpkh",
      "scriptpubkey_address": "bc1qzxeaa9ltm6ppxkxwtstsqvcpzmjawvpuswcyj9",
      "value": 39684
    }
  ],
  "size": 337,
  "weight": 1018,
  "fee": 5090,
  "status": {
    "confirmed": true,
    "block_height": 834460,
    "block_hash": "00000000000000000000484a79b643b2524bbce82e5d8a442013fa5b8905ed98",
    "block_time": 1710307468
  },
  "hex": "02000000000101bd45ff2c8b87fbfea8d0ecc3eee1b12389a5caa27c9ec44c7d3a3310b0ee75fc0200000000ffffffff034d0100000000000016001454364819747f37606835ec00b4f4cfd7da5dd43e21030000000000006951210293f7a6930a7fbdff0b1c801d2bd5304d8bbc3c260ec8bc979fe479dab15344ad210263a569eea7a3abd00b4a287a679ef623a42de04f317c6f507c3e2bad6ae2c32e2102020202020202020202020202020202020202020202020202020202020202020253ae049b00000000000016001411b3de97ebde821358ce5c1700330116e5d7303c02483045022100c8c031841ed1474935845854da2d9e2f8aa88c41c2b7be31df43ae3a7882d47f02202bf3b2dd6784eddd889e0064c4ea78bc17c102378a4e1efffa4fee72d65bec1d0121031fde1fc2d5e32d21a3d7870b17def989ec539799c18d5c929c1391acd9aa824700000000"
}