{
  "txid": "0925c6e0b5656de44458df7dbe81592d39a99fe46c15f4b218bf2473d536f890",
  "version": 2,
  "locktime": 0,
  "vin": [
    {
      "txid": "2ab7d4c3230804db30ca91b6d41d1eb387535c0ce560c641051b908134d35f4e",
      "vout": 1,
      "prevout": {
        "scriptpubkey": "0014df22fe259f82526352f86ebb993155e7929ebe61",
        "scriptpubkey_asm": "OP_0 OP_PUSHBYTES_20 df22fe259f82526352f86ebb993155e7929ebe61",
        "scriptpubkey_type": "v0_p2wpkh",
        "scriptpubkey_address": "bc1qmu30ufvlsffxx5hcd6aejv24u7ffa0np9yk2r2",
        "value": 10853
      },
      "scriptsig": "",
      "scriptsig_asm": "",
      "witness": [
        "3045022100eaa024812ff99631779c0d26a2b9d00d58c06b12527a6bd89c4d707d8c01e82302207a247c79282733c513c3c3897d5dfe484c7d4250c7c9550a584f567200d3466901",
        "0201a3189383523e37b5bad45f79d52b6cfa0e6bce74757b54df10791ceb62d20b"
      ],
      "is_coinbase": false,
      "sequence": 4294967293
    }
  ],
  "vout": [
    {
      "scriptpubkey": "76a914d917ebf59764dd9e06b364a203f7c97f0891575088ac",
      "scriptpubkey_asm": "OP_DUP OP_HASH160 OP_PUSHBYTES_20 d917ebf59764dd9e06b364a203f7c97f08915750 OP_EQUALVERIFY OP_CHECKSIG",
      "scriptpubkey_type": "p2pkh",
      "scriptpubkey_address": "1LntHjksdASXFsLLhcuPSsrJuvn7L17WfE",
      "value": 9633
    }
  ],
  "size": 195,
  "weight": 450,
  "fee": 1220,
  "status": {
    "confirmed": true,
    "block_height": 834464,
    "block_hash": "0000000000000000000177a0869a911a2b65c9bdcd5a8bcb02b68f305bee848e",
    "block_time": 1710308296
  },
  "hex": "020000000001014e5fd33481901b0541c660e50c5c5387b31e1dd4b691ca30db040823c3d4b72a0100000000fdffffff01a1250000000000001976a914d917ebf59764dd9e06b364a203f7c97f0891575088ac02483045022100eaa024812ff99631779c0d26a2b9d00d58c06b12527a6bd89c4d707d8c01e82302207a247c79282733c513c3c3897d5dfe484c7d4250c7c9550a584f567200d3466901210201a3189383523e37b5bad45f79d52b6cfa0e6bce74757b54df10791ceb62d20b00000000"
}