{
  "txid": "093b9191e0d8c46978474717260810235f6a6446d1ff1d875c89e236695b4821",
  "version": 2,
  "locktime": 0,
  "vin": [
    {
      "txid": "33198a5cbe2a53fc30099ab53009144888cef479020e7acbc065183b03c26d7b",
      "vout": 1,
      "prevout": {
        "scriptpubkey": "5120ded2233edab1f62cf0e292373c9316840964dd74f9eb5f1ce907eda5cddd8da8",
        "scriptpubkey_asm": "OP_PUSHNUM_1 OP_PUSHBYTES_32 ded2233edab1f62cf0e292373c9316840964dd74f9eb5f1ce907eda5cddd8da8",
        "scriptpubkey_type": "v1_p2tr",
        "scriptpubkey_address": "bc1pmmfzx0k6k8mzeu8zjgmneyckssykfht5l844788fqlk6tnwa3k5q0epqwp",
        "value": 2658
      },
      "scriptsig": "",
      "scriptsig_asm": "",
      "witness": [
        "53a26f63d2359f214910f0d1eac3812694958a5f61a4f2b60161733ac795ac5c5ec573246cd13700a589e6a6a0de048f7b5e657705da6ed615f82d185aeeff8f",
        "2011005bfcbe194e20493495498a8abbf0b6c677efeb64a7c4d3d4b0d64fd469f7ac0063036f726401011e6170706c69636174696f6e2f6a736f6e3b636861727365743d7574662d38004cbf7b2270223a22706f772d3230222c226f70223a226d696e74222c227469636b223a2250455045222c22616d74223a2231303030222c22736f6c7574696f6e223a22504550453a626331717832636c7935673578376b356a6b7376396d61346332753661646c7a78657470616e387071733a303030303030303030303030303030303030303139393431613561653132383937363539383134343239323533333030353762306461393666336465613163353a3231323534313533303339227d68",
        "c1da2c9a1920efdfbecd176e4adbb0ca1150e62509fd8a3a19d8331b0c89a8a97b"
      ],
      "is_coinbase": false,
      "sequence": 4294967295
    }
  ],
  "vout": [
    {
      "scriptpubkey": "001432b1f2511437ad495a0c2efb5c2b9aeb7e236561",
      "scriptpubkey_asm": "OP_0 OP_PUSHBYTES_20 32b1f2511437ad495a0c2efb5c2b9aeb7e236561",
      "scriptpubkey_type": "v0_p2wpkh",
      "scriptpubkey_address": "bc1qx2cly5g5x7k5jksv9ma4c2u6adlzxetpan8pqs",
      "value": 546
    }
  ],
  "size": 455,
  "weight": 701,
  "fee": 2112,
  "status": {
    "confirmed": true,
    "block_height": 834460,
    "block_hash": "00000000000000000000484a79b643b2524bbce82e5d8a442013fa5b8905ed98",
    "block_time": 1710307468
  },
  "hex": "020000000001017b6dc2033b1865c0cb7a0e0279f4ce8848140930b59a0930fc532abe5c8a19330100000000ffffffff01220200000000000016001432b1f2511437ad495a0c2efb5c2b9aeb7e236561034053a26f63d2359f214910f0d1eac3812694958a5f61a4f2b60161733ac795ac5c5ec573246cd13700a589e6a6a0de048f7b5e657705da6ed615f82d185aeeff8ffd0c012011005bfcbe194e20493495498a8abbf0b6c677efeb64a7c4d3d4b0d64fd469f7ac0063036f726401011e6170706c69636174696f6e2f6a736f6e3b636861727365743d7574662d38004cbf7b2270223a22706f772d3230222c226f70223a226d696e74222c227469636b223a2250455045222c22616d74223a2231303030222c22736f6c7574696f6e223a22504550453a626331717832636c7935673578376b356a6b7376396d61346332753661646c7a78657470616e387071733a303030303030303030303030303030303030303139393431613561653132383937363539383134343239323533333030353762306461393666336465613163353a3231323534313533303339227d6821c1da2c9a1920efdfbecd176e4adbb0ca1150e62509fd8a3a19d8331b0c89a8a97b00000000"
}