{
  "txid": "09477bacf10f3e97d2cacda589866dcb82bdad25ff8f3285d3980fbed3455fa9",
  "version": 1,
  "locktime": 0,
  "vin": [
    {
      "txid": "74615e40b36760db26365e9cb79874d654bf2a20b1c3b613ac5ae156de8c5cbe",
      "vout": 1,
      "prevout": {
        "scriptpubkey": "0014bcb1dc984fcf5e619e45922b858ad5d77f6a20ec",
        "scriptpubkey_asm": "OP_0 OP_PUSHBYTES_20 bcb1dc984fcf5e619e45922b858ad5d77f6a20ec",
        "scriptpubkey_type": "v0_p2wpkh",
        "scriptpubkey_address": "bc1qhjcaexz0ea0xr8j9jg4ctzk46alk5g8v0uhx33",
        "value": 2011446
      },
      "scriptsig": "",
      "scriptsig_asm": "",
      "witness": [
        "30450221008d942773d1b07cb5b99fb9c2ac4704f0a777392feb8a81e934c25483e225310902204562c5392fdf06a5b075a1c19cc3e3a0fd88106f10bdc604c72e186e5fef675201",
        "035995dea381cc5848b24e93cf2f6485210cd178a2987392127ec6cb55a66ae41a"
      ],
      "is_coinbase": false,
      "sequence": 4294967295
    }
  ],
  "vout": [
    {
      "scriptpubkey": "0014be8d79cead3ef815b4bd0c52b0f5857bcf716d64",
      "scriptpubkey_asm": "OP_0 OP_PUSHBYTES_20 be8d79cead3ef815b4bd0c52b0f5857bcf716d64",
      "scriptpubkey_type": "v0_p2wpkh",
      "scriptpubkey_address": "bc1qh6xhnn4d8muptd9ap3ftpav9008hzmty3t9xz3",
      "value": 136000
    },
    {
      "scriptpubkey": "0014fbaec17ef458cd2817fe8dde4e41a17cb71f67b7",
      "scriptpubkey_asm": "OP_0 OP_PUSHBYTES_20 fbaec17ef458cd2817fe8dde4e41a17cb71f67b7",
      "scriptpubkey_type": "v0_p2wpkh",
      "scriptpubkey_address": "bc1qlwhvzlh5trxjs9l73h0yusdp0jm37eahkhkq7r",
      "value": 1871812
    }
  ],
  "size": 223,
  "weight": 562,
  "fee": 3634,
  "status": {
    "confirmed": true,
    "block_height": 834638,
    "block_hash": "000000000000000000025f742c626208ac87e0b7d15054abb4a19ca2d735a54e",
    "block_time": 1710405325
  },
  "hex": "01000000000101be5c8cde56e15aac13b6c3b1202abf54d67498b79c5e3626db6067b3405e61740100000000ffffffff024013020000000000160014be8d79cead3ef815b4bd0c52b0f5857bcf716d64c48f1c0000000000160014fbaec17ef458cd2817fe8dde4e41a17cb71f67b7024830450221008d942773d1b07cb5b99fb9c2ac4704f0a777392feb8a81e934c25483e225310902204562c5392fdf06a5b075a1c19cc3e3a0fd88106f10bdc604c72e186e5fef67520121035995dea381cc5848b24e93cf2f6485210cd178a2987392127ec6cb55a66ae41a00000000"
}