{
  "txid": "09489613d4dee865265da94f0c652a7aca4e9369fcb70ed5d8e73845a0d03fd9",
  "version": 1,
  "locktime": 0,
  "vin": [
    {
      "txid": "78b4d2e161768ac9d84a4a67f18a1fc759d49353f6c3ef0a39c49d7b91431fc7",
      "vout": 0,
      "prevout": {
        "scriptpubkey": "51203945cd0464ef9bf552facaa2986f2aa60448cab5bd1f27336cd1154c514d69b4",
        "scriptpubkey_asm": "OP_PUSHNUM_1 OP_PUSHBYTES_32 3945cd0464ef9bf552facaa2986f2aa60448cab5bd1f27336cd1154c514d69b4",
        "scriptpubkey_type": "v1_p2tr",
        "scriptpubkey_address": "bc1p89zu6prya7dl25h6e23fsme25czy3j44h50jwvmv6y25c52ddx6qsas38l",
        "value": 2721
      },
      "scriptsig": "",
      "scriptsig_asm": "",
      "witness": [
        "3da3e07a4f3c0e6e6ed14681e1b081028991da18e3241d4151db4db730e401cbac7f1f768c93d48417e1cacc9cbe2bc6985eb1aea276950bfb19d1afa8e0b688",
        "2079f9d72d9b9b1dcb10f7ce421deb098c111f9504f4c35d2f77d14ee0d7bea71eac0063036f7264010118746578742f706c61696e3b636861727365743d7574662d3800397b2270223a226272632d3230222c226f70223a227472616e73666572222c227469636b223a224d574343222c22616d74223a2235373332227d68",
        "c079f9d72d9b9b1dcb10f7ce421deb098c111f9504f4c35d2f77d14ee0d7bea71e"
      ],
      "is_coinbase": false,
      "sequence": 4294967293
    }
  ],
  "vout": [
    {
      "scriptpubkey": "0014303339128bc1e7928aebac5f28757088066d5977",
      "scriptpubkey_asm": "OP_0 OP_PUSHBYTES_20 303339128bc1e7928aebac5f28757088066d5977",
      "scriptpubkey_type": "v0_p2wpkh",
      "scriptpubkey_address": "bc1qxqenjy5tc8ne9zht430jsats3qrx6kthmqu50d",
      "value": 546
    }
  ],
  "size": 312,
  "weight": 558,
  "fee": 2175,
  "status": {
    "confirmed": true,
    "block_height": 834460,
    "block_hash": "00000000000000000000484a79b643b2524bbce82e5d8a442013fa5b8905ed98",
    "block_time": 1710307468
  },
  "hex": "01000000000101c71f43917b9dc4390aefc3f65393d459c71f8af1674a4ad8c98a7661e1d2b4780000000000fdffffff012202000000000000160014303339128bc1e7928aebac5f28757088066d597703403da3e07a4f3c0e6e6ed14681e1b081028991da18e3241d4151db4db730e401cbac7f1f768c93d48417e1cacc9cbe2bc6985eb1aea276950bfb19d1afa8e0b6887f2079f9d72d9b9b1dcb10f7ce421deb098c111f9504f4c35d2f77d14ee0d7bea71eac0063036f7264010118746578742f706c61696e3b636861727365743d7574662d3800397b2270223a226272632d3230222c226f70223a227472616e73666572222c227469636b223a224d574343222c22616d74223a2235373332227d6821c079f9d72d9b9b1dcb10f7ce421deb098c111f9504f4c35d2f77d14ee0d7bea71e00000000"
}