{
  "txid": "0977d2f7d367d7b3a8ebb4b09463fa9bc5e2eeeb93dcde380a46bbbc2ba72a04",
  "version": 2,
  "locktime": 0,
  "vin": [
    {
      "txid": "e5b34e4dd8b02b5ba1e7f76b0033c3d47169bb5fe68f872731f37fe60cfffd13",
      "vout": 0,
      "prevout": {
        "scriptpubkey": "00149b045f9c97db51fcdbf674293e427c0f8bacd79d",
        "scriptpubkey_asm": "OP_0 OP_PUSHBYTES_20 9b045f9c97db51fcdbf674293e427c0f8bacd79d",
        "scriptpubkey_type": "v0_p2wpkh",
        "scriptpubkey_address": "bc1qnvz9l8yhmdgleklkws5nusnup796e4uafml29t",
        "value": 80568923
      },
      "scriptsig": "",
      "scriptsig_asm": "",
      "witness": [
        "30440220259c26948606db0f79627f1f2cebd35adb4b373f064ee8f057553b003e5a26f002205571f939c1ed6b0a919b6324590d5d7146b6c263a695a834f8a0039778664c0f01",
        "0352724977027b35487a84bddab1d63a28f27d3410fed8cac047d608bdd1ff6cdc"
      ],
      "is_coinbase": false,
      "sequence": 4294967295
    }
  ],
  "vout": [
    {
      "scriptpubkey": "00149b045f9c97db51fcdbf674293e427c0f8bacd79d",
      "scriptpubkey_asm": "OP_0 OP_PUSHBYTES_20 9b045f9c97db51fcdbf674293e427c0f8bacd79d",
      "scriptpubkey_type": "v0_p2wpkh",
      "scriptpubkey_address": "bc1qnvz9l8yhmdgleklkws5nusnup796e4uafml29t",
      "value": 72438684
    },
    {
      "scriptpubkey": "001432163985933dcc5b272f1f76b444f94093ae4dbe",
      "scriptpubkey_asm": "OP_0 OP_PUSHBYTES_20 32163985933dcc5b272f1f76b444f94093ae4dbe",
      "scriptpubkey_type": "v0_p2wpkh",
      "scriptpubkey_address": "bc1qxgtrnpvn8hx9kfe0ramtg38egzf6und70pw4hm",
      "value": 8127239
    }
  ],
  "size": 222,
  "weight": 561,
  "fee": 3000,
  "status": {
    "confirmed": true,
    "block_height": 834638,
    "block_hash": "000000000000000000025f742c626208ac87e0b7d15054abb4a19ca2d735a54e",
    "block_time": 1710405325
  },
  "hex": "0200000000010113fdff0ce67ff33127878fe65fbb6971d4c333006bf7e7a15b2bb0d84d4eb3e50000000000ffffffff029c535104000000001600149b045f9c97db51fcdbf674293e427c0f8bacd79d07037c000000000016001432163985933dcc5b272f1f76b444f94093ae4dbe024730440220259c26948606db0f79627f1f2cebd35adb4b373f064ee8f057553b003e5a26f002205571f939c1ed6b0a919b6324590d5d7146b6c263a695a834f8a0039778664c0f01210352724977027b35487a84bddab1d63a28f27d3410fed8cac047d608bdd1ff6cdc00000000"
}