{
  "txid": "097df028f48a7b2f897296385a4c4c84c81c3a33903d4b65058ddf777af805fb",
  "version": 2,
  "locktime": 0,
  "vin": [
    {
      "txid": "184dc7f74f177acf92139f0e6c4ca17343d3b07ec2bf9ac6258deaef991c7dff",
      "vout": 0,
      "prevout": {
        "scriptpubkey": "76a91431b401a419dbd1598f41ccf224bbd2ffde69a60b88ac",
        "scriptpubkey_asm": "OP_DUP OP_HASH160 OP_PUSHBYTES_20 31b401a419dbd1598f41ccf224bbd2ffde69a60b OP_EQUALVERIFY OP_CHECKSIG",
        "scriptpubkey_type": "p2pkh",
        "scriptpubkey_address": "15XokTw2jxmfSAF1y4uuY53Bmb7AeJpJ61",
        "value": 116099323
      },
      "scriptsig": "473044022038063fd8061ec84293aa71fc34358f5c6151bc48b2794c3e69d8a4aa81fdf1fe02202e621bda46e9c156c32bde880ef2ed5a72300e48cd493d96c5f77899f92d96df01210344744dcf910c6088a85b0c20e9d5906c0a66e8fdd18b15416ab1a706d80edc73",
      "scriptsig_asm": "OP_PUSHBYTES_71 3044022038063fd8061ec84293aa71fc34358f5c6151bc48b2794c3e69d8a4aa81fdf1fe02202e621bda46e9c156c32bde880ef2ed5a72300e48cd493d96c5f77899f92d96df01 OP_PUSHBYTES_33 0344744dcf910c6088a85b0c20e9d5906c0a66e8fdd18b15416ab1a706d80edc73",
      "is_coinbase": false,
      "sequence": 4294967293
    },
    {
      "txid": "472638700f234d5515636ff0f8025a5ba1738d463e875c64bdd4cbfba893fb03",
      "vout": 1,
      "prevout": {
        "scriptpubkey": "76a91431b401a419dbd1598f41ccf224bbd2ffde69a60b88ac",
        "scriptpubkey_asm": "OP_DUP OP_HASH160 OP_PUSHBYTES_20 31b401a419dbd1598f41ccf224bbd2ffde69a60b OP_EQUALVERIFY OP_CHECKSIG",
        "scriptpubkey_type": "p2pkh",
        "scriptpubkey_address": "15XokTw2jxmfSAF1y4uuY53Bmb7AeJpJ61",
        "value": 4342396
      },
      "scriptsig": "47304402203d43d56b6214671fa9030238d7d8d3230fcc0d86a23b179175f120de592968ba022069df59471865f5be3c056584ed05cd2faf0d4c94748319a0fea91b08bcd0f2cd01210344744dcf910c6088a85b0c20e9d5906c0a66e8fdd18b15416ab1a706d80edc73",
      "scriptsig_asm": "OP_PUSHBYTES_71 304402203d43d56b6214671fa9030238d7d8d3230fcc0d86a23b179175f120de592968ba022069df59471865f5be3c056584ed05cd2faf0d4c94748319a0fea91b08bcd0f2cd01 OP_PUSHBYTES_33 0344744dcf910c6088a85b0c20e9d5906c0a66e8fdd18b15416ab1a706d80edc73",
      "is_coinbase": false,
      "sequence": 4294967293
    }
  ],
  "vout": [
    {
      "scriptpubkey": "0014c9ca81f8508e870b8baecc4ac4d2fed294a4d921",
      "scriptpubkey_asm": "OP_0 OP_PUSHBYTES_20 c9ca81f8508e870b8baecc4ac4d2fed294a4d921",
      "scriptpubkey_type": "v0_p2wpkh",
      "scriptpubkey_address": "bc1qe89gr7zs36rshzawe39vf5h76222fkfpxvsywe",
      "value": 120428199
    }
  ],
  "size": 335,
  "weight": 1340,
  "fee": 13520,
  "status": {
    "confirmed": true,
    "block_height": 834552,
    "block_hash": "00000000000000000001dd0468a70c94f619251d286585cff57aeb4bd9ede330",
    "block_time": 1710355598
  },
  "hex": "0200000002ff7d1c99efea8d25c69abfc27eb0d34373a14c6c0e9f1392cf7a174ff7c74d18000000006a473044022038063fd8061ec84293aa71fc34358f5c6151bc48b2794c3e69d8a4aa81fdf1fe02202e621bda46e9c156c32bde880ef2ed5a72300e48cd493d96c5f77899f92d96df01210344744dcf910c6088a85b0c20e9d5906c0a66e8fdd18b15416ab1a706d80edc73fdffffff03fb93a8fbcbd4bd645c873e468d73a15b5a02f8f06f6315554d230f70382647010000006a47304402203d43d56b6214671fa9030238d7d8d3230fcc0d86a23b179175f120de592968ba022069df59471865f5be3c056584ed05cd2faf0d4c94748319a0fea91b08bcd0f2cd01210344744dcf910c6088a85b0c20e9d5906c0a66e8fdd18b15416ab1a706d80edc73fdffffff01a7962d0700000000160014c9ca81f8508e870b8baecc4ac4d2fed294a4d92100000000"
}