{
  "txid": "097e9143da8b6e2a53da13a68a496750cb3bc103275e81bb758af55c3dee6737",
  "version": 1,
  "locktime": 0,
  "vin": [
    {
      "txid": "b0911da46c56de78513f213a4e97459f49ce674343999ba2ad1de30e845948a1",
      "vout": 1,
      "prevout": {
        "scriptpubkey": "0014734459964aa6f61da0274ee25f1d0abd1250f36e",
        "scriptpubkey_asm": "OP_0 OP_PUSHBYTES_20 734459964aa6f61da0274ee25f1d0abd1250f36e",
        "scriptpubkey_type": "v0_p2wpkh",
        "scriptpubkey_address": "bc1qwdz9n9j25mmpmgp8fm3978g2h5f9pumw436jlt",
        "value": 32611
      },
      "scriptsig": "",
      "scriptsig_asm": "",
      "witness": [
        "3045022100a2728b73bebfc17fce3e2f2b397902f497ef456c465d608d457ad4e3bbf6f47c0220507999ea4541c261b5bbf20e2e0987b1cb1d0a033fd0e579acea487adf04951601",
        "020eabfbeeefeaa0dcc2e7325be38c56904919d0f2df32497d63f07645717c32cf"
      ],
      "is_coinbase": false,
      "sequence": 4294967295
    }
  ],
  "vout": [
    {
      "scriptpubkey": "0014ee2bda1ee1ebb26c2ac83d5da6c1d92dc10073a7",
      "scriptpubkey_asm": "OP_0 OP_PUSHBYTES_20 ee2bda1ee1ebb26c2ac83d5da6c1d92dc10073a7",
      "scriptpubkey_type": "v0_p2wpkh",
      "scriptpubkey_address": "bc1qac4a58hpawexc2kg84w6dswe9hqsqua8zlyfjh",
      "value": 10631
    },
    {
      "scriptpubkey": "76a9144ef6f9e973422855f9e583397bd13d3e43960a3c88ac",
      "scriptpubkey_asm": "OP_DUP OP_HASH160 OP_PUSHBYTES_20 4ef6f9e973422855f9e583397bd13d3e43960a3c OP_EQUALVERIFY OP_CHECKSIG",
      "scriptpubkey_type": "p2pkh",
      "scriptpubkey_address": "18CXaAw9G2vNgj38ou62MFvLqy9sK6uxP5",
      "value": 18340
    }
  ],
  "size": 226,
  "weight": 574,
  "fee": 3640,
  "status": {
    "confirmed": true,
    "block_height": 834638,
    "block_hash": "000000000000000000025f742c626208ac87e0b7d15054abb4a19ca2d735a54e",
    "block_time": 1710405325
  },
  "hex": "01000000000101a14859840ee31dada29b99434367ce499f45974e3a213f5178de566ca41d91b00100000000ffffffff028729000000000000160014ee2bda1ee1ebb26c2ac83d5da6c1d92dc10073a7a4470000000000001976a9144ef6f9e973422855f9e583397bd13d3e43960a3c88ac02483045022100a2728b73bebfc17fce3e2f2b397902f497ef456c465d608d457ad4e3bbf6f47c0220507999ea4541c261b5bbf20e2e0987b1cb1d0a033fd0e579acea487adf0495160121020eabfbeeefeaa0dcc2e7325be38c56904919d0f2df32497d63f07645717c32cf00000000"
}