{
  "txid": "0982735aa361b160387df91ce0616bc8507e56bc435d17c7faa03aa47bd69c26",
  "version": 2,
  "locktime": 0,
  "vin": [
    {
      "txid": "928a6d6816eb20e261f085418639264883f689acb3be1cd78cb1eb795f4b45ad",
      "vout": 0,
      "prevout": {
        "scriptpubkey": "0014192e80ed2c7c412bdc2a6c8f371d15cb90f3c85b",
        "scriptpubkey_asm": "OP_0 OP_PUSHBYTES_20 192e80ed2c7c412bdc2a6c8f371d15cb90f3c85b",
        "scriptpubkey_type": "v0_p2wpkh",
        "scriptpubkey_address": "bc1qryhgpmfv03qjhhp2dj8nw8g4ewg08jzmgy3cyx",
        "value": 1234189896
      },
      "scriptsig": "",
      "scriptsig_asm": "",
      "witness": [
        "304402204433af908a0b26c7e4bbedf9cddf53a1bbbaada71f3e7a01b36d7eb306575557022012b42f8221500b3c02980cdf49fcd42232d9a60d6732bd6ecd5a1dbd917ef1b001",
        "03b01bd095f648ea829f000207087f16622431077bb5cc0875225ada601375c885"
      ],
      "is_coinbase": false,
      "sequence": 4294967293
    }
  ],
  "vout": [
    {
      "scriptpubkey": "0014af054dd5fe396dedc26f364331ebb933919cdda0",
      "scriptpubkey_asm": "OP_0 OP_PUSHBYTES_20 af054dd5fe396dedc26f364331ebb933919cdda0",
      "scriptpubkey_type": "v0_p2wpkh",
      "scriptpubkey_address": "bc1q4uz5m40789k7msn0xepnr6aexwgeehdqjc6t85",
      "value": 506255
    },
    {
      "scriptpubkey": "0014192e80ed2c7c412bdc2a6c8f371d15cb90f3c85b",
      "scriptpubkey_asm": "OP_0 OP_PUSHBYTES_20 192e80ed2c7c412bdc2a6c8f371d15cb90f3c85b",
      "scriptpubkey_type": "v0_p2wpkh",
      "scriptpubkey_address": "bc1qryhgpmfv03qjhhp2dj8nw8g4ewg08jzmgy3cyx",
      "value": 1233677155
    }
  ],
  "size": 222,
  "weight": 561,
  "fee": 6486,
  "status": {
    "confirmed": true,
    "block_height": 834638,
    "block_hash": "000000000000000000025f742c626208ac87e0b7d15054abb4a19ca2d735a54e",
    "block_time": 1710405325
  },
  "hex": "02000000000101ad454b5f79ebb18cd71cbeb3ac89f683482639864185f061e220eb16686d8a920000000000fdffffff028fb9070000000000160014af054dd5fe396dedc26f364331ebb933919cdda0636b884900000000160014192e80ed2c7c412bdc2a6c8f371d15cb90f3c85b0247304402204433af908a0b26c7e4bbedf9cddf53a1bbbaada71f3e7a01b36d7eb306575557022012b42f8221500b3c02980cdf49fcd42232d9a60d6732bd6ecd5a1dbd917ef1b0012103b01bd095f648ea829f000207087f16622431077bb5cc0875225ada601375c88500000000"
}