{
  "txid": "09830c9a1b0779420f9eddcaa0c9a03303ea47612716e1d2bdcf9982915f3dca",
  "version": 2,
  "locktime": 0,
  "vin": [
    {
      "txid": "336c191d2717492316adcaf0a40fd122934db2bafa48dd27fee75a16fcb5d449",
      "vout": 0,
      "prevout": {
        "scriptpubkey": "5120ae6ea8202f0a1001cd69532c0fbe8dca0e222a569b4bddea465abdcb9cbb55d5",
        "scriptpubkey_asm": "OP_PUSHNUM_1 OP_PUSHBYTES_32 ae6ea8202f0a1001cd69532c0fbe8dca0e222a569b4bddea465abdcb9cbb55d5",
        "scriptpubkey_type": "v1_p2tr",
        "scriptpubkey_address": "bc1p4eh2sgp0pggqrntf2vkql05deg8zy2jknd9am6jxt27uh89m2h2sq6ux7q",
        "value": 27491
      },
      "scriptsig": "",
      "scriptsig_asm": "",
      "witness": [
        "403e35de3dff4d5a6e204e093e76c8510becb4ed370d5d1b379dd15951ae701e0603ae0467524c822c3159afec6f90f1e82cec34b6c7944464c9dda5addf0186"
      ],
      "is_coinbase": false,
      "sequence": 4294967293
    }
  ],
  "vout": [
    {
      "scriptpubkey": "512023fad87ec8d9d2dec9d3bbcf2f0f2fd19d0fa7cffd40b7a372c844f29ad4d768",
      "scriptpubkey_asm": "OP_PUSHNUM_1 OP_PUSHBYTES_32 23fad87ec8d9d2dec9d3bbcf2f0f2fd19d0fa7cffd40b7a372c844f29ad4d768",
      "scriptpubkey_type": "v1_p2tr",
      "scriptpubkey_address": "bc1py0adslkgm8fdajwnh08j7re06xwslf70l4qt0gmjepz09xk56a5qpsvzdl",
      "value": 11213
    },
    {
      "scriptpubkey": "5120f2b88a524a315a1b374e40671228a19418b84dcdacaa5ec724a96cf00ae4ec32",
      "scriptpubkey_asm": "OP_PUSHNUM_1 OP_PUSHBYTES_32 f2b88a524a315a1b374e40671228a19418b84dcdacaa5ec724a96cf00ae4ec32",
      "scriptpubkey_type": "v1_p2tr",
      "scriptpubkey_address": "bc1p72ug55j2x9dpkd6wgpn3y29pjsvtsnwd4j49a3ey49k0qzhyaseqyx0gyd",
      "value": 14584
    }
  ],
  "size": 205,
  "weight": 616,
  "fee": 1694,
  "status": {
    "confirmed": true,
    "block_height": 834464,
    "block_hash": "0000000000000000000177a0869a911a2b65c9bdcd5a8bcb02b68f305bee848e",
    "block_time": 1710308296
  },
  "hex": "0200000000010149d4b5fc165ae7fe27dd48fabab24d9322d10fa4f0caad16234917271d196c330000000000fdffffff02cd2b00000000000022512023fad87ec8d9d2dec9d3bbcf2f0f2fd19d0fa7cffd40b7a372c844f29ad4d768f838000000000000225120f2b88a524a315a1b374e40671228a19418b84dcdacaa5ec724a96cf00ae4ec320140403e35de3dff4d5a6e204e093e76c8510becb4ed370d5d1b379dd15951ae701e0603ae0467524c822c3159afec6f90f1e82cec34b6c7944464c9dda5addf018600000000"
}