{
  "txid": "09855e57aa717db6337c8123fc893806636b4cfdbc1012fbb50f00024d68313c",
  "version": 2,
  "locktime": 832910,
  "vin": [
    {
      "txid": "faa96d174b7aa4a6cc64730309065d31de323578d41543101086cbd3daee1a0e",
      "vout": 1,
      "prevout": {
        "scriptpubkey": "0014e35847424a5ac8331d4fc0e2b9c5f88d9efca838",
        "scriptpubkey_asm": "OP_0 OP_PUSHBYTES_20 e35847424a5ac8331d4fc0e2b9c5f88d9efca838",
        "scriptpubkey_type": "v0_p2wpkh",
        "scriptpubkey_address": "bc1qudvywsj2ttyrx820cr3tn30c3k00e2pc875h3m",
        "value": 62010
      },
      "scriptsig": "",
      "scriptsig_asm": "",
      "witness": [
        "30450221008d958f0e2d60d51e2c237daad01d3a0df2a445fa98d5d37513c073cf25f05f9f02203be6804629316882972a48daceb67ea820a1d58413f56dd29ea3b6b91cd19fd301",
        "0312b86a1cc93745ddbe25e765e1eaa4e2f5a4dc835ca14633f63a2792f46e89a7"
      ],
      "is_coinbase": false,
      "sequence": 4294967293
    },
    {
      "txid": "193203974060b25420e5ea8dfe2fa03f2f889893ca79bbbd5b8c6270398fd42f",
      "vout": 1,
      "prevout": {
        "scriptpubkey": "001445684483aa2fa1b342ac35934434b6a514c94149",
        "scriptpubkey_asm": "OP_0 OP_PUSHBYTES_20 45684483aa2fa1b342ac35934434b6a514c94149",
        "scriptpubkey_type": "v0_p2wpkh",
        "scriptpubkey_address": "bc1qg45yfqa297smxs4vxkf5gd9k552vjs2f2wwsqh",
        "value": 14597
      },
      "scriptsig": "",
      "scriptsig_asm": "",
      "witness": [
        "3044022055948aa2b626638916d511f473ec23d537c4f143c58142a028dc3e0258769909022049155115af49169785200fa0b3be0a0ea9147737b92f1e7b811f28cebf44fd1901",
        "020c7c18b6ef9a1ccab336f082f1b62616da0abff3dbfea488d3c2dfe76a7ee20c"
      ],
      "is_coinbase": false,
      "sequence": 4294967293
    },
    {
      "txid": "cf9de719344a18230de653177b8a33078739c3f26630dada5d5756e3207b0c7d",
      "vout": 1,
      "prevout": {
        "scriptpubkey": "00149a4a1053645f079e751f7b3e75ed565a1549ccf0",
        "scriptpubkey_asm": "OP_0 OP_PUSHBYTES_20 9a4a1053645f079e751f7b3e75ed565a1549ccf0",
        "scriptpubkey_type": "v0_p2wpkh",
        "scriptpubkey_address": "bc1qnf9pq5mytureuagl0vl8tm2ktg25nn8s0w9z0g",
        "value": 41185
      },
      "scriptsig": "",
      "scriptsig_asm": "",
      "witness": [
        "3045022100874ac2f41469d80f369676ad4f68ba364680205367fe28c1f03240b691b1218602207c865e1774e995608c37e68b46f462383e8722bda3c25cd70a8c46a7d29b362d01",
        "0268af020229012e7716a7e7d16858eb22c8cdf3461f566f4adf1ddb5e13e81a1f"
      ],
      "is_coinbase": false,
      "sequence": 4294967293
    },
    {
      "txid": "9e748acc5bfcc14241d8033f855ab5e1778340a51fdace7d61006b2e4b5ea350",
      "vout": 1,
      "prevout": {
        "scriptpubkey": "0014233ef20d22515dbd31474f485b80cbd0fdb2c415",
        "scriptpubkey_asm": "OP_0 OP_PUSHBYTES_20 233ef20d22515dbd31474f485b80cbd0fdb2c415",
        "scriptpubkey_type": "v0_p2wpkh",
        "scriptpubkey_address": "bc1qyvl0yrfz29wm6v28fay9hqxt6r7m93q46dgaac",
        "value": 42664
      },
      "scriptsig": "",
      "scriptsig_asm": "",
      "witness": [
        "304402207bcd5b910b933c285c9002f8138bd5b1534aa63390bced8fb6f17d24f3afbcc1022032f56869a14c82c529747c8768f20058f58fc707328f4bcbc46b1f9d5bb7bef901",
        "02a8962c934f767c34f480c8a8708dd6c9613a76323c7e7fd05b662ef0988f168b"
      ],
      "is_coinbase": false,
      "sequence": 4294967293
    },
    {
      "txid": "fbc48a94f1586b6ca0565ae0c23d9a3d6adf021546d385092bd30f6df6184ba1",
      "vout": 1,
      "prevout": {
        "scriptpubkey": "00148e91398d9650bb88f92f3bddf4e63db0444edb47",
        "scriptpubkey_asm": "OP_0 OP_PUSHBYTES_20 8e91398d9650bb88f92f3bddf4e63db0444edb47",
        "scriptpubkey_type": "v0_p2wpkh",
        "scriptpubkey_address": "bc1q36gnnrvk2zac37f080wlfe3akpzyak68zp8rey",
        "value": 19267
      },
      "scriptsig": "",
      "scriptsig_asm": "",
      "witness": [
        "304402207b06dbb73de5cfd1fa6f04d022b4f8cfd7fcdfc303b08bbd6bad6dbcaa02d331022069fe6d92a1e77a5131fb08c3fd4a8cae895728162743870a5d17fd39b201ee4501",
        "027a79f04a6ddb95d42d3fbd3d45e79e4b6719fa3e649652b373479141738e499b"
      ],
      "is_coinbase": false,
      "sequence": 4294967293
    },
    {
      "txid": "bf75dae6b62d4880d51e2c55ce4ad0a8b9e4b97a2180bda78a0695755cc79d65",
      "vout": 0,
      "prevout": {
        "scriptpubkey": "0014de14ea71cde3d4a27da9c7733e383b4045c034f2",
        "scriptpubkey_asm": "OP_0 OP_PUSHBYTES_20 de14ea71cde3d4a27da9c7733e383b4045c034f2",
        "scriptpubkey_type": "v0_p2wpkh",
        "scriptpubkey_address": "bc1qmc2w5uwdu022yldfcaenuwpmgpzuqd8jsfnrca",
        "value": 21056
      },
      "scriptsig": "",
      "scriptsig_asm": "",
      "witness": [
        "304402206d236a91c0307eba09d85558dcffef80641ae90e5064ff96137a17b52876d1cb02203aaf149edd50d701afb426ea280a42cf4ba0e94685dc6e01be47401051cb78d101",
        "037eb8759e191e5105d7c9970a9a28730f5f585d5c33488d73dde2389b60c8b5aa"
      ],
      "is_coinbase": false,
      "sequence": 4294967293
    },
    {
      "txid": "c484d75b43656dee66586a8681cbb27ea065f8af9a9c172b5b8be752dcc51a08",
      "vout": 1,
      "prevout": {
        "scriptpubkey": "0014aab81d6a803ee9f079bf3f1d9258f7891bd30988",
        "scriptpubkey_asm": "OP_0 OP_PUSHBYTES_20 aab81d6a803ee9f079bf3f1d9258f7891bd30988",
        "scriptpubkey_type": "v0_p2wpkh",
        "scriptpubkey_address": "bc1q42up665q8m5lq7dl8uweyk8h3ydaxzvg5n4j5x",
        "value": 45564
      },
      "scriptsig": "",
      "scriptsig_asm": "",
      "witness": [
        "30440220086da098593f818c467418ce4117bc9f57b21575f7f147ee75597437c31aaee502200b998fd1e7eb617cf466c3108f1a68fa37bb66e6aee648b8160f0600679fec3f01",
        "023e0971228ecb39d63e8bc19d2685cceb21af242dfc4f6d562cb37bff09861e02"
      ],
      "is_coinbase": false,
      "sequence": 4294967293
    },
    {
      "txid": "22ef85bc676320284db8d56454ca89b5d40b0b1cbf0bf4b54cc7b7564ca703c7",
      "vout": 0,
      "prevout": {
        "scriptpubkey": "001436871679972f9a261501ae8c998565ba924b7560",
        "scriptpubkey_asm": "OP_0 OP_PUSHBYTES_20 36871679972f9a261501ae8c998565ba924b7560",
        "scriptpubkey_type": "v0_p2wpkh",
        "scriptpubkey_address": "bc1qx6r3v7vh97dzv9gp46xfnpt9h2fykatq8tr9tx",
        "value": 17368
      },
      "scriptsig": "",
      "scriptsig_asm": "",
      "witness": [
        "3044022007895fd29739990df931fca0dc4071b6e3aa7eb49beb8a44aaec3076fdc436300220599da86c940ff954e917a61596c7f79b96c3a8d84bc095d615ef6cef99775e7f01",
        "02135185840f35cfc4fbf737d97c1bb57924e233c670c87a35fe3e47cb6325bb4a"
      ],
      "is_coinbase": false,
      "sequence": 4294967293
    },
    {
      "txid": "e6ef4ddb2c4a0add5ae7e5f247d5ae4fa25927c28a855499ba4dba0593f1785b",
      "vout": 1,
      "prevout": {
        "scriptpubkey": "0014960faa9b2284ca937a32197325231dc76005ae5f",
        "scriptpubkey_asm": "OP_0 OP_PUSHBYTES_20 960faa9b2284ca937a32197325231dc76005ae5f",
        "scriptpubkey_type": "v0_p2wpkh",
        "scriptpubkey_address": "bc1qjc864xezsn9fx73jr9ej2gcacasqttjlekvpse",
        "value": 43179
      },
      "scriptsig": "",
      "scriptsig_asm": "",
      "witness": [
        "3045022100e23a6dd55e7efc56801a038b6bd5bc90784bffddff36135210191a692a26c22702206d9ba1b81df7a67897abe68ce85baf2193e32697742e0cc5255335a3bde7503a01",
        "03dde3c648c3b5ede54bba464e57b978e537fdc0e8f7c9c74c1a52cd406e4c6ed4"
      ],
      "is_coinbase": false,
      "sequence": 4294967293
    }
  ],
  "vout": [
    {
      "scriptpubkey": "001450eb72fdde4cdc218283aa12f53ee7420a0b1aea",
      "scriptpubkey_asm": "OP_0 OP_PUSHBYTES_20 50eb72fdde4cdc218283aa12f53ee7420a0b1aea",
      "scriptpubkey_type": "v0_p2wpkh",
      "scriptpubkey_address": "bc1q2r4h9lw7fnwzrq5r4gf020h8gg9qkxh26yrwc5",
      "value": 299890
    }
  ],
  "size": 1378,
  "weight": 2608,
  "fee": 7000,
  "status": {
    "confirmed": true,
    "block_height": 834464,
    "block_hash": "0000000000000000000177a0869a911a2b65c9bdcd5a8bcb02b68f305bee848e",
    "block_time": 1710308296
  },
  "hex": "020000000001090e1aeedad3cb8610104315d4783532de315d0609037364cca6a47a4b176da9fa0100000000fdffffff2fd48f3970628c5bbdbb79ca9398882f3fa02ffe8deae52054b26040970332190100000000fdffffff7d0c7b20e356575ddada3066f2c3398707338a7b1753e60d23184a3419e79dcf0100000000fdffffff50a35e4b2e6b00617dceda1fa5408377e1b55a853f03d84142c1fc5bcc8a749e0100000000fdffffffa14b18f66d0fd32b0985d3461502df6a3d9a3dc2e05a56a06c6b58f1948ac4fb0100000000fdffffff659dc75c7595068aa7bd80217ab9e4b9a8d04ace552c1ed580482db6e6da75bf0000000000fdffffff081ac5dc52e78b5b2b179c9aaff865a07eb2cb81866a5866ee6d65435bd784c40100000000fdffffffc703a74c56b7c74cb5f40bbf1c0b0bd4b589ca5464d5b84d28206367bc85ef220000000000fdffffff5b78f19305ba4dba9954858ac22759a24faed547f2e5e75add0a4a2cdb4defe60100000000fdffffff01729304000000000016001450eb72fdde4cdc218283aa12f53ee7420a0b1aea024830450221008d958f0e2d60d51e2c237daad01d3a0df2a445fa98d5d37513c073cf25f05f9f02203be6804629316882972a48daceb67ea820a1d58413f56dd29ea3b6b91cd19fd301210312b86a1cc93745ddbe25e765e1eaa4e2f5a4dc835ca14633f63a2792f46e89a702473044022055948aa2b626638916d511f473ec23d537c4f143c58142a028dc3e0258769909022049155115af49169785200fa0b3be0a0ea9147737b92f1e7b811f28cebf44fd190121020c7c18b6ef9a1ccab336f082f1b62616da0abff3dbfea488d3c2dfe76a7ee20c02483045022100874ac2f41469d80f369676ad4f68ba364680205367fe28c1f03240b691b1218602207c865e1774e995608c37e68b46f462383e8722bda3c25cd70a8c46a7d29b362d01210268af020229012e7716a7e7d16858eb22c8cdf3461f566f4adf1ddb5e13e81a1f0247304402207bcd5b910b933c285c9002f8138bd5b1534aa63390bced8fb6f17d24f3afbcc1022032f56869a14c82c529747c8768f20058f58fc707328f4bcbc46b1f9d5bb7bef9012102a8962c934f767c34f480c8a8708dd6c9613a76323c7e7fd05b662ef0988f168b0247304402207b06dbb73de5cfd1fa6f04d022b4f8cfd7fcdfc303b08bbd6bad6dbcaa02d331022069fe6d92a1e77a5131fb08c3fd4a8cae895728162743870a5d17fd39b201ee450121027a79f04a6ddb95d42d3fbd3d45e79e4b6719fa3e649652b373479141738e499b0247304402206d236a91c0307eba09d85558dcffef80641ae90e5064ff96137a17b52876d1cb02203aaf149edd50d701afb426ea280a42cf4ba0e94685dc6e01be47401051cb78d10121037eb8759e191e5105d7c9970a9a28730f5f585d5c33488d73dde2389b60c8b5aa024730440220086da098593f818c467418ce4117bc9f57b21575f7f147ee75597437c31aaee502200b998fd1e7eb617cf466c3108f1a68fa37bb66e6aee648b8160f0600679fec3f0121023e0971228ecb39d63e8bc19d2685cceb21af242dfc4f6d562cb37bff09861e0202473044022007895fd29739990df931fca0dc4071b6e3aa7eb49beb8a44aaec3076fdc436300220599da86c940ff954e917a61596c7f79b96c3a8d84bc095d615ef6cef99775e7f012102135185840f35cfc4fbf737d97c1bb57924e233c670c87a35fe3e47cb6325bb4a02483045022100e23a6dd55e7efc56801a038b6bd5bc90784bffddff36135210191a692a26c22702206d9ba1b81df7a67897abe68ce85baf2193e32697742e0cc5255335a3bde7503a012103dde3c648c3b5ede54bba464e57b978e537fdc0e8f7c9c74c1a52cd406e4c6ed48eb50c00"
}