{
  "txid": "098613fb6ecf597581eaf7d9e9d7a5c65979c89a6b58f687b514b52a707e2304",
  "version": 2,
  "locktime": 834637,
  "vin": [
    {
      "txid": "5a32fc52360d43ba7764ca33a5692945ddcb11b7f4e6b2092e439fdef23d7b15",
      "vout": 0,
      "prevout": {
        "scriptpubkey": "00140a35eb3115b38336895a43128860a8baf4b626ca",
        "scriptpubkey_asm": "OP_0 OP_PUSHBYTES_20 0a35eb3115b38336895a43128860a8baf4b626ca",
        "scriptpubkey_type": "v0_p2wpkh",
        "scriptpubkey_address": "bc1qpg67kvg4kwpndz26gvfgsc9ght6tvfk25sgqr8",
        "value": 283880764
      },
      "scriptsig": "",
      "scriptsig_asm": "",
      "witness": [
        "3043021f4c1873dff39528cb1e62c467b26c495ba2627766b774cb5a2b17bb6a2d3198022020b4184e42016baaff4eef75f9b011deb4b899a43dd3187f1b41a7efc3a3c73701",
        "03ea3dd955081e22d3e952152f020765569a5096065af6948d15fb90b0d456fecb"
      ],
      "is_coinbase": false,
      "sequence": 4294967294
    }
  ],
  "vout": [
    {
      "scriptpubkey": "0014b093e87d19a795ea220481be7955c106cce098c2",
      "scriptpubkey_asm": "OP_0 OP_PUSHBYTES_20 b093e87d19a795ea220481be7955c106cce098c2",
      "scriptpubkey_type": "v0_p2wpkh",
      "scriptpubkey_address": "bc1qkzf7slge57275gsysxl8j4wpqmxwpxxz8nfu67",
      "value": 280435684
    },
    {
      "scriptpubkey": "a9146f7343968460414b1837954c25407094ee57aa3987",
      "scriptpubkey_asm": "OP_HASH160 OP_PUSHBYTES_20 6f7343968460414b1837954c25407094ee57aa39 OP_EQUAL",
      "scriptpubkey_type": "p2sh",
      "scriptpubkey_address": "3BrK1XBKci29xxwGcNBK9PE8RHSuDKx2SL",
      "value": 3441600
    }
  ],
  "size": 222,
  "weight": 564,
  "fee": 3480,
  "status": {
    "confirmed": true,
    "block_height": 834638,
    "block_hash": "000000000000000000025f742c626208ac87e0b7d15054abb4a19ca2d735a54e",
    "block_time": 1710405325
  },
  "hex": "02000000000101157b3df2de9f432e09b2e6f4b711cbdd452969a533ca6477ba430d3652fc325a0000000000feffffff02e41bb71000000000160014b093e87d19a795ea220481be7955c106cce098c2c08334000000000017a9146f7343968460414b1837954c25407094ee57aa398702463043021f4c1873dff39528cb1e62c467b26c495ba2627766b774cb5a2b17bb6a2d3198022020b4184e42016baaff4eef75f9b011deb4b899a43dd3187f1b41a7efc3a3c737012103ea3dd955081e22d3e952152f020765569a5096065af6948d15fb90b0d456fecb4dbc0c00"
}