{
  "txid": "0988270f512a54e00c7978aa2fe33b512f6db3744433a19e21d22c95fa7d29e6",
  "version": 2,
  "locktime": 0,
  "vin": [
    {
      "txid": "1f1dd44c822d101882076a11fbc5ca42ff5d6d178ada7302dfeb598144d7ee5d",
      "vout": 1,
      "prevout": {
        "scriptpubkey": "0014d03e3c2a67f23ff404f6ba161f8f37dfcaefce86",
        "scriptpubkey_asm": "OP_0 OP_PUSHBYTES_20 d03e3c2a67f23ff404f6ba161f8f37dfcaefce86",
        "scriptpubkey_type": "v0_p2wpkh",
        "scriptpubkey_address": "bc1q6qlrc2n87gllgp8khgtplrehml9wln5xhrqjl2",
        "value": 1342471
      },
      "scriptsig": "",
      "scriptsig_asm": "",
      "witness": [
        "30440220717c92c572959e4d783590a5321be0bb91d901cedc4c28243fbbe15bf1e07172022024934a76aa83ba790657555faf3082bb2adb76d52b89bfe33fb2c38620a36a1301",
        "03cb5fbc02609812726ac56bba016d99b91321bbdb636ad4e82548e61dea81103d"
      ],
      "is_coinbase": false,
      "sequence": 4294967295
    },
    {
      "txid": "e037f25e937cdd907d2c0abe4071c6ceac527575c128df53d0e521cbc5055333",
      "vout": 1,
      "prevout": {
        "scriptpubkey": "0014cb28a318135fcf70cd25b9d79295107a007d6802",
        "scriptpubkey_asm": "OP_0 OP_PUSHBYTES_20 cb28a318135fcf70cd25b9d79295107a007d6802",
        "scriptpubkey_type": "v0_p2wpkh",
        "scriptpubkey_address": "bc1qev52xxqntl8hpnf9h8te99gs0gq866qzqjhdue",
        "value": 66688489
      },
      "scriptsig": "",
      "scriptsig_asm": "",
      "witness": [
        "304502210080de89977ec1c62d951abacd7a4422c90e614f74fd42e9f0562dde03c5eb2de702207c37ab63197c9d97d7cb0365e2832b7ae2b3145f9d3d59fdc89726350291f69a01",
        "02c968fd068f4b8c1e3542070c247941aee19cdeab1eda5516d968327e5e48febe"
      ],
      "is_coinbase": false,
      "sequence": 4294967295
    }
  ],
  "vout": [
    {
      "scriptpubkey": "0014b1cbb37963c6f9c65e972287441b994096788929",
      "scriptpubkey_asm": "OP_0 OP_PUSHBYTES_20 b1cbb37963c6f9c65e972287441b994096788929",
      "scriptpubkey_type": "v0_p2wpkh",
      "scriptpubkey_address": "bc1qk89mx7trcmuuvh5hy2r5gxuegzt83zff5ae9py",
      "value": 1400000
    },
    {
      "scriptpubkey": "0014a4a56048fdd72fc7dc3662975f403b3e5a803106",
      "scriptpubkey_asm": "OP_0 OP_PUSHBYTES_20 a4a56048fdd72fc7dc3662975f403b3e5a803106",
      "scriptpubkey_type": "v0_p2wpkh",
      "scriptpubkey_address": "bc1q5jjkqj8a6uhu0hpkv2t47spm8edgqvgxmvggen",
      "value": 66627234
    }
  ],
  "size": 371,
  "weight": 833,
  "fee": 3726,
  "status": {
    "confirmed": true,
    "block_height": 834638,
    "block_hash": "000000000000000000025f742c626208ac87e0b7d15054abb4a19ca2d735a54e",
    "block_time": 1710405325
  },
  "hex": "020000000001025deed7448159ebdf0273da8a176d5dff42cac5fb116a078218102d824cd41d1f0100000000ffffffff335305c5cb21e5d053df28c1757552accec67140be0a2c7d90dd7c935ef237e00100000000ffffffff02c05c150000000000160014b1cbb37963c6f9c65e972287441b994096788929a2a6f80300000000160014a4a56048fdd72fc7dc3662975f403b3e5a803106024730440220717c92c572959e4d783590a5321be0bb91d901cedc4c28243fbbe15bf1e07172022024934a76aa83ba790657555faf3082bb2adb76d52b89bfe33fb2c38620a36a13012103cb5fbc02609812726ac56bba016d99b91321bbdb636ad4e82548e61dea81103d0248304502210080de89977ec1c62d951abacd7a4422c90e614f74fd42e9f0562dde03c5eb2de702207c37ab63197c9d97d7cb0365e2832b7ae2b3145f9d3d59fdc89726350291f69a012102c968fd068f4b8c1e3542070c247941aee19cdeab1eda5516d968327e5e48febe00000000"
}