{
  "txid": "09884a34fd10af9f1334d71e0d4a657665aadb7b54c066602db09b059e779e0e",
  "version": 2,
  "locktime": 0,
  "vin": [
    {
      "txid": "b13bb5512a4904c28a6b7957b88edf574e8cb23551fc1dcfe22d6b239df42cf4",
      "vout": 62,
      "prevout": {
        "scriptpubkey": "51201619991ecdb34c93b16221f10e03914181a20b14ccc8f8503cc0377add986172",
        "scriptpubkey_asm": "OP_PUSHNUM_1 OP_PUSHBYTES_32 1619991ecdb34c93b16221f10e03914181a20b14ccc8f8503cc0377add986172",
        "scriptpubkey_type": "v1_p2tr",
        "scriptpubkey_address": "bc1pzcvej8kdkdxf8vtzy8csuqu3gxq6yzc5eny0s5pucqmh4hvcv9eq6gt8mu",
        "value": 2575
      },
      "scriptsig": "",
      "scriptsig_asm": "",
      "witness": [
        "66d9bc97a7104a1d36352a822a6cf42ba430834a3b74be50bc0e1cb1d0fde6321bf184156d0b56110b1d28b8de32c96c017c50b1c36368843ac721f1a8936cce",
        "20ec9bf22a546d9a6f45a98b40f1e53f619c2775c97686cd1738a4e48420b1e902ac0063036f726401010a746578742f706c61696e00367b2270223a226272632d3230222c226f70223a226d696e74222c227469636b223a2261616161222c22616d74223a223130303030227d68",
        "c0ec9bf22a546d9a6f45a98b40f1e53f619c2775c97686cd1738a4e48420b1e902"
      ],
      "is_coinbase": false,
      "sequence": 4261412863
    }
  ],
  "vout": [
    {
      "scriptpubkey": "0014ce0b5aa0dac72397a8aa5a85d90a2cfb46f0f630",
      "scriptpubkey_asm": "OP_0 OP_PUSHBYTES_20 ce0b5aa0dac72397a8aa5a85d90a2cfb46f0f630",
      "scriptpubkey_type": "v0_p2wpkh",
      "scriptpubkey_address": "bc1qec944gx6cu3e0292t2zajz3vldr0pa3sh356d9",
      "value": 546
    }
  ],
  "size": 295,
  "weight": 541,
  "fee": 2029,
  "status": {
    "confirmed": true,
    "block_height": 834464,
    "block_hash": "0000000000000000000177a0869a911a2b65c9bdcd5a8bcb02b68f305bee848e",
    "block_time": 1710308296
  },
  "hex": "02000000000101f42cf49d236b2de2cf1dfc5135b28c4e57df8eb857796b8ac204492a51b53bb13e00000000fffffffd012202000000000000160014ce0b5aa0dac72397a8aa5a85d90a2cfb46f0f630034066d9bc97a7104a1d36352a822a6cf42ba430834a3b74be50bc0e1cb1d0fde6321bf184156d0b56110b1d28b8de32c96c017c50b1c36368843ac721f1a8936cce6e20ec9bf22a546d9a6f45a98b40f1e53f619c2775c97686cd1738a4e48420b1e902ac0063036f726401010a746578742f706c61696e00367b2270223a226272632d3230222c226f70223a226d696e74222c227469636b223a2261616161222c22616d74223a223130303030227d6821c0ec9bf22a546d9a6f45a98b40f1e53f619c2775c97686cd1738a4e48420b1e90200000000"
}