{
  "txid": "098c2489bdbb5d728fd74327edf0303f0a2185bf5871b636ab9322cdfe7e73d5",
  "version": 2,
  "locktime": 834458,
  "vin": [
    {
      "txid": "0dbe0b9ae76e6477114f5f85056fc6cdc598f7c9312749b23c33ddb1416c1ade",
      "vout": 0,
      "prevout": {
        "scriptpubkey": "0014b99921c15dd66572fa0f59107650db85797047c4",
        "scriptpubkey_asm": "OP_0 OP_PUSHBYTES_20 b99921c15dd66572fa0f59107650db85797047c4",
        "scriptpubkey_type": "v0_p2wpkh",
        "scriptpubkey_address": "bc1qhxvjrs2a6ejh97s0tyg8v5xms4uhq37ywjlddx",
        "value": 399944074
      },
      "scriptsig": "",
      "scriptsig_asm": "",
      "witness": [
        "304402200511ef12d25860532c9ae10ba6964df28499ea7e714f308cb86e8a6c29e4e3b7022008b4c625257be6acb6ad6ddb2857a556bde571366d4f4688f1e59195aaa6cc8001",
        "03f5d3b03cee8df879bb8c0b2fafc6442595401dbbaa8a51bea280fa8d1107ec35"
      ],
      "is_coinbase": false,
      "sequence": 4294967293
    }
  ],
  "vout": [
    {
      "scriptpubkey": "00142c802562bdaf4f9370360ff5b37eea49223b7329",
      "scriptpubkey_asm": "OP_0 OP_PUSHBYTES_20 2c802562bdaf4f9370360ff5b37eea49223b7329",
      "scriptpubkey_type": "v0_p2wpkh",
      "scriptpubkey_address": "bc1q9jqz2c4a4a8exupkpl6mxlh2fy3rkuefk9ftl7",
      "value": 200000000
    },
    {
      "scriptpubkey": "00146d6dfce0a7fcb0a8da94c031edab998a47e621f7",
      "scriptpubkey_asm": "OP_0 OP_PUSHBYTES_20 6d6dfce0a7fcb0a8da94c031edab998a47e621f7",
      "scriptpubkey_type": "v0_p2wpkh",
      "scriptpubkey_address": "bc1qd4klec98ljc23k55cqc7m2ue3fr7vg0huw632u",
      "value": 199940967
    }
  ],
  "size": 222,
  "weight": 561,
  "fee": 3107,
  "status": {
    "confirmed": true,
    "block_height": 834460,
    "block_hash": "00000000000000000000484a79b643b2524bbce82e5d8a442013fa5b8905ed98",
    "block_time": 1710307468
  },
  "hex": "02000000000101de1a6c41b1dd333cb2492731c9f798c5cdc66f05855f4f1177646ee79a0bbe0d0000000000fdffffff0200c2eb0b000000001600142c802562bdaf4f9370360ff5b37eea49223b732967dbea0b000000001600146d6dfce0a7fcb0a8da94c031edab998a47e621f70247304402200511ef12d25860532c9ae10ba6964df28499ea7e714f308cb86e8a6c29e4e3b7022008b4c625257be6acb6ad6ddb2857a556bde571366d4f4688f1e59195aaa6cc80012103f5d3b03cee8df879bb8c0b2fafc6442595401dbbaa8a51bea280fa8d1107ec359abb0c00"
}