{
  "txid": "0990b528af48999f36843e379187dcc6a9b1dd19bb0cf93d8c739bc9aef003e6",
  "version": 1,
  "locktime": 0,
  "vin": [
    {
      "txid": "299a9d81b408d61a5fc4fc3b524d811f8d2b645cdf1ef6ef713f67ca5d093322",
      "vout": 0,
      "prevout": {
        "scriptpubkey": "51209c3055cfd831954097a7f152ae25f239a071c80158f0a91cd4907c90e1b1b038",
        "scriptpubkey_asm": "OP_PUSHNUM_1 OP_PUSHBYTES_32 9c3055cfd831954097a7f152ae25f239a071c80158f0a91cd4907c90e1b1b038",
        "scriptpubkey_type": "v1_p2tr",
        "scriptpubkey_address": "bc1pnsc9tn7cxx25p9a879f2uf0j8xs8rjqptrc2j8x5jp7fpcd3kquq939m28",
        "value": 50233
      },
      "scriptsig": "",
      "scriptsig_asm": "",
      "witness": [
        "5a01f247c4f11ebf9414346a92e1b688ce2b29f4e17fb51b6b3a3e771b04c0cb56bf1bc4e12dab37eb42c2d427520010f1ed32e9bd827ada1b97897d0ab1c69b01"
      ],
      "is_coinbase": false,
      "sequence": 4294967295
    }
  ],
  "vout": [
    {
      "scriptpubkey": "5120f26bc1885ed8b4884a68987adacc20eab24f2e47b79f51ec7d4416aec0c24429",
      "scriptpubkey_asm": "OP_PUSHNUM_1 OP_PUSHBYTES_32 f26bc1885ed8b4884a68987adacc20eab24f2e47b79f51ec7d4416aec0c24429",
      "scriptpubkey_type": "v1_p2tr",
      "scriptpubkey_address": "bc1p7f4urzz7mz6gsjngnpad4npqa2ey7tj8k704rmragst2asxzgs5sdnm5j9",
      "value": 668
    },
    {
      "scriptpubkey": "001409563501ffe72f38ec841267ec9969fe1701c74f",
      "scriptpubkey_asm": "OP_0 OP_PUSHBYTES_20 09563501ffe72f38ec841267ec9969fe1701c74f",
      "scriptpubkey_type": "v0_p2wpkh",
      "scriptpubkey_address": "bc1qp9tr2q0luuhn3myyzfn7extflctsr36086szkc",
      "value": 48003
    }
  ],
  "size": 194,
  "weight": 569,
  "fee": 1562,
  "status": {
    "confirmed": true,
    "block_height": 834464,
    "block_hash": "0000000000000000000177a0869a911a2b65c9bdcd5a8bcb02b68f305bee848e",
    "block_time": 1710308296
  },
  "hex": "010000000001012233095dca673f71eff61edf5c642b8d1f814d523bfcc45f1ad608b4819d9a290000000000ffffffff029c02000000000000225120f26bc1885ed8b4884a68987adacc20eab24f2e47b79f51ec7d4416aec0c2442983bb00000000000016001409563501ffe72f38ec841267ec9969fe1701c74f01415a01f247c4f11ebf9414346a92e1b688ce2b29f4e17fb51b6b3a3e771b04c0cb56bf1bc4e12dab37eb42c2d427520010f1ed32e9bd827ada1b97897d0ab1c69b0100000000"
}