{
  "txid": "099a733d869b9eca8e4548b87b8283a508eb09034067f49e11b220f0e1a424c5",
  "version": 2,
  "locktime": 0,
  "vin": [
    {
      "txid": "acc3ba00869acb582a3f2904ce3a11dd3779350ce234063fc7d0959246213364",
      "vout": 84,
      "prevout": {
        "scriptpubkey": "51201988e9310336ffa999f2bd43d842e247dd6aec1fd3bd879113d924c59bca1d18",
        "scriptpubkey_asm": "OP_PUSHNUM_1 OP_PUSHBYTES_32 1988e9310336ffa999f2bd43d842e247dd6aec1fd3bd879113d924c59bca1d18",
        "scriptpubkey_type": "v1_p2tr",
        "scriptpubkey_address": "bc1prxywjvgrxml6nx0jh4passhzglwk4mql6w7c0ygnmyjvtx72r5vq5fv823",
        "value": 1806
      },
      "scriptsig": "",
      "scriptsig_asm": "",
      "witness": [
        "f3805bc6b1f608928079736cbceea6194c731a6c130c4ad003b042c15e5013f021ef0f5cbfc72739df1ef52e60df13cb1d830b17a661219bfeb4a07f20ce6793",
        "20994e87e58e2f1a82533f5e1d6463f6fa42d0d2daf0da039c7f428b118b81f141ac0063036f726401010a746578742f706c61696e00357b2270223a226272632d3230222c226f70223a226d696e74222c227469636b223a22646f6765222c22616d74223a2234323030227d68",
        "c0994e87e58e2f1a82533f5e1d6463f6fa42d0d2daf0da039c7f428b118b81f141"
      ],
      "is_coinbase": false,
      "sequence": 4261412863
    }
  ],
  "vout": [
    {
      "scriptpubkey": "00147a665de7a370f4c9b372ab1fae587500a5bcbdb4",
      "scriptpubkey_asm": "OP_0 OP_PUSHBYTES_20 7a665de7a370f4c9b372ab1fae587500a5bcbdb4",
      "scriptpubkey_type": "v0_p2wpkh",
      "scriptpubkey_address": "bc1q0fn9mearwr6vnvmj4v06ukr4qzjme0d565dzcx",
      "value": 294
    }
  ],
  "size": 294,
  "weight": 540,
  "fee": 1512,
  "status": {
    "confirmed": true,
    "block_height": 834460,
    "block_hash": "00000000000000000000484a79b643b2524bbce82e5d8a442013fa5b8905ed98",
    "block_time": 1710307468
  },
  "hex": "02000000000101643321469295d0c73f0634e20c357937dd113ace04293f2a58cb9a8600bac3ac5400000000fffffffd0126010000000000001600147a665de7a370f4c9b372ab1fae587500a5bcbdb40340f3805bc6b1f608928079736cbceea6194c731a6c130c4ad003b042c15e5013f021ef0f5cbfc72739df1ef52e60df13cb1d830b17a661219bfeb4a07f20ce67936d20994e87e58e2f1a82533f5e1d6463f6fa42d0d2daf0da039c7f428b118b81f141ac0063036f726401010a746578742f706c61696e00357b2270223a226272632d3230222c226f70223a226d696e74222c227469636b223a22646f6765222c22616d74223a2234323030227d6821c0994e87e58e2f1a82533f5e1d6463f6fa42d0d2daf0da039c7f428b118b81f14100000000"
}