{
  "txid": "099c975d37f1c9422e16db0e4d2903717508a550bc54ad27be2713d8d74e276a",
  "version": 1,
  "locktime": 0,
  "vin": [
    {
      "txid": "4690be3645584b96bd5b2f7dafbb13b2d0a0ad0dbfedb788f252ce8b6e187fa1",
      "vout": 1,
      "prevout": {
        "scriptpubkey": "0014ab7b50e60cb9dcbe2310eb3e1d99f25b29eec606",
        "scriptpubkey_asm": "OP_0 OP_PUSHBYTES_20 ab7b50e60cb9dcbe2310eb3e1d99f25b29eec606",
        "scriptpubkey_type": "v0_p2wpkh",
        "scriptpubkey_address": "bc1q4da4pesvh8wtugcsavlpmx0jtv57a3sxuwp76k",
        "value": 2995085
      },
      "scriptsig": "",
      "scriptsig_asm": "",
      "witness": [
        "3045022100b297f0f216d0cd44b20e94e8e225a9986877800da2ebec1d30a70c4cda2066c702206db4dc202eefe72a19163713c42e6a70a1efa58e52715f8b6aca0717ade58f2d01",
        "0263d6c2f799c96f368c6ea3b2757bb06b6b4343e0b24dfac794d6873e5ff00b0f"
      ],
      "is_coinbase": false,
      "sequence": 4294967295
    }
  ],
  "vout": [
    {
      "scriptpubkey": "76a9146b0eee3be74acd87c571899c47520150b8461e8088ac",
      "scriptpubkey_asm": "OP_DUP OP_HASH160 OP_PUSHBYTES_20 6b0eee3be74acd87c571899c47520150b8461e80 OP_EQUALVERIFY OP_CHECKSIG",
      "scriptpubkey_type": "p2pkh",
      "scriptpubkey_address": "1Am5BvVQeDkxGeCAZgUuvDQ4fZFfVGnzBj",
      "value": 200000
    },
    {
      "scriptpubkey": "0014ab7b50e60cb9dcbe2310eb3e1d99f25b29eec606",
      "scriptpubkey_asm": "OP_0 OP_PUSHBYTES_20 ab7b50e60cb9dcbe2310eb3e1d99f25b29eec606",
      "scriptpubkey_type": "v0_p2wpkh",
      "scriptpubkey_address": "bc1q4da4pesvh8wtugcsavlpmx0jtv57a3sxuwp76k",
      "value": 2791197
    }
  ],
  "size": 226,
  "weight": 574,
  "fee": 3888,
  "status": {
    "confirmed": true,
    "block_height": 834638,
    "block_hash": "000000000000000000025f742c626208ac87e0b7d15054abb4a19ca2d735a54e",
    "block_time": 1710405325
  },
  "hex": "01000000000101a17f186e8bce52f288b7edbf0dada0d0b213bbaf7d2f5bbd964b584536be90460100000000ffffffff02400d0300000000001976a9146b0eee3be74acd87c571899c47520150b8461e8088ac1d972a0000000000160014ab7b50e60cb9dcbe2310eb3e1d99f25b29eec60602483045022100b297f0f216d0cd44b20e94e8e225a9986877800da2ebec1d30a70c4cda2066c702206db4dc202eefe72a19163713c42e6a70a1efa58e52715f8b6aca0717ade58f2d01210263d6c2f799c96f368c6ea3b2757bb06b6b4343e0b24dfac794d6873e5ff00b0f00000000"
}