{
  "txid": "099dafdb96d3ebe65b795b35ed22d67a922901b6fa2b8337c92289ea7e4699ae",
  "version": 2,
  "locktime": 0,
  "vin": [
    {
      "txid": "9e126a0d439eab0c209d778e39f31802e1a2e799247e1ed816108e2ee21c7f50",
      "vout": 0,
      "prevout": {
        "scriptpubkey": "001472ffd9bef94b803e9d15eeada312e639f0caa8ae",
        "scriptpubkey_asm": "OP_0 OP_PUSHBYTES_20 72ffd9bef94b803e9d15eeada312e639f0caa8ae",
        "scriptpubkey_type": "v0_p2wpkh",
        "scriptpubkey_address": "bc1qwtlan0hefwqra8g4a6k6xyhx88cv429wavzn4n",
        "value": 394542
      },
      "scriptsig": "",
      "scriptsig_asm": "",
      "witness": [
        "30440220514499cbf5e5f2f2da5ebf7043a14e5f82ae414f2a8fdf42ee8dc3b462fe6249022079e8a7121a4f867771d833f3326f8cf1388ad6417cb8113cf5abc38b1a34d43501",
        "03567009ca95b2cee0efba358b229a7322e7972e7cbb22e5eedef65cd7fc7534a0"
      ],
      "is_coinbase": false,
      "sequence": 4294967293
    }
  ],
  "vout": [
    {
      "scriptpubkey": "76a914121ce1d90a436f847b1e7d15145a97b660caea9f88ac",
      "scriptpubkey_asm": "OP_DUP OP_HASH160 OP_PUSHBYTES_20 121ce1d90a436f847b1e7d15145a97b660caea9f OP_EQUALVERIFY OP_CHECKSIG",
      "scriptpubkey_type": "p2pkh",
      "scriptpubkey_address": "12emmE2gHzQfmyNrrBxUGNUTbBwc8WASxq",
      "value": 392597
    }
  ],
  "size": 194,
  "weight": 449,
  "fee": 1945,
  "status": {
    "confirmed": true,
    "block_height": 834638,
    "block_hash": "000000000000000000025f742c626208ac87e0b7d15054abb4a19ca2d735a54e",
    "block_time": 1710405325
  },
  "hex": "02000000000101507f1ce22e8e1016d81e7e2499e7a2e10218f3398e779d200cab9e430d6a129e0000000000fdffffff0195fd0500000000001976a914121ce1d90a436f847b1e7d15145a97b660caea9f88ac024730440220514499cbf5e5f2f2da5ebf7043a14e5f82ae414f2a8fdf42ee8dc3b462fe6249022079e8a7121a4f867771d833f3326f8cf1388ad6417cb8113cf5abc38b1a34d435012103567009ca95b2cee0efba358b229a7322e7972e7cbb22e5eedef65cd7fc7534a000000000"
}