{
  "txid": "09b341f61a0f40aef8442abe48eece12bb3844178eeee55aee73f003d3e9c37d",
  "version": 2,
  "locktime": 0,
  "vin": [
    {
      "txid": "a8f76e26aa307bbbff3c70927cee68fa7e9311a28a52c09ae4e1ac45ccb7193e",
      "vout": 0,
      "prevout": {
        "scriptpubkey": "5120372e205b858f2a752723cedda5426a54eb129f67a9ea05994b26f2a8e84e2a8c",
        "scriptpubkey_asm": "OP_PUSHNUM_1 OP_PUSHBYTES_32 372e205b858f2a752723cedda5426a54eb129f67a9ea05994b26f2a8e84e2a8c",
        "scriptpubkey_type": "v1_p2tr",
        "scriptpubkey_address": "bc1pxuhzqku93u482feremw62sn22n4398m8484qtx2tyme236zw92xqy4t3mr",
        "value": 5000
      },
      "scriptsig": "",
      "scriptsig_asm": "",
      "witness": [
        "d9bfee29d548cf6b3d21a5d7dd18fdd14cbbf3dbc7b1df01d879aaca938530bdc5ae8f3913c41e31f2043b1d777b83ae35a4fcb0db5b295ef154c07afef00737",
        "20ef3bef0a346710cfc89dc0351eada71465b36fa5ad48a71e1171c1642728798aac0063036f7264010118746578742f706c61696e3b636861727365743d7574662d3800387b2270223a226272632d3230222c226f70223a227472616e73666572222c227469636b223a22316f6e38222c22616d74223a22313830227d68",
        "c09195edbd50db6127253f063af217b3752b227ac919672cc9ecf04ef871d7ab6d"
      ],
      "is_coinbase": false,
      "sequence": 4294967293
    }
  ],
  "vout": [
    {
      "scriptpubkey": "51203863ee247d81f74f5e191d80e32144df0dbdace9be51ab88a63080ac18e61773",
      "scriptpubkey_asm": "OP_PUSHNUM_1 OP_PUSHBYTES_32 3863ee247d81f74f5e191d80e32144df0dbdace9be51ab88a63080ac18e61773",
      "scriptpubkey_type": "v1_p2tr",
      "scriptpubkey_address": "bc1p8p37ufras8m57hserkqwxg2ymuxmmt8fheg6hz9xxzq2cx8xzaesp4p6c2",
      "value": 546
    },
    {
      "scriptpubkey": "0014e79e1795307dc11837a044c741a4807bb6565f46",
      "scriptpubkey_asm": "OP_0 OP_PUSHBYTES_20 e79e1795307dc11837a044c741a4807bb6565f46",
      "scriptpubkey_type": "v0_p2wpkh",
      "scriptpubkey_address": "bc1qu70p09fs0hq3sdaqgnr5rfyq0wm9vh6xda8ge8",
      "value": 2075
    }
  ],
  "size": 354,
  "weight": 729,
  "fee": 2379,
  "status": {
    "confirmed": true,
    "block_height": 834460,
    "block_hash": "00000000000000000000484a79b643b2524bbce82e5d8a442013fa5b8905ed98",
    "block_time": 1710307468
  },
  "hex": "020000000001013e19b7cc45ace1e49ac0528aa211937efa68ee7c92703cffbb7b30aa266ef7a80000000000fdffffff0222020000000000002251203863ee247d81f74f5e191d80e32144df0dbdace9be51ab88a63080ac18e617731b08000000000000160014e79e1795307dc11837a044c741a4807bb6565f460340d9bfee29d548cf6b3d21a5d7dd18fdd14cbbf3dbc7b1df01d879aaca938530bdc5ae8f3913c41e31f2043b1d777b83ae35a4fcb0db5b295ef154c07afef007377e20ef3bef0a346710cfc89dc0351eada71465b36fa5ad48a71e1171c1642728798aac0063036f7264010118746578742f706c61696e3b636861727365743d7574662d3800387b2270223a226272632d3230222c226f70223a227472616e73666572222c227469636b223a22316f6e38222c22616d74223a22313830227d6821c09195edbd50db6127253f063af217b3752b227ac919672cc9ecf04ef871d7ab6d00000000"
}