{
  "txid": "09b6166c4643184817811d12c0d5993df05786da29993f9b6a7050a14bceb186",
  "version": 2,
  "locktime": 0,
  "vin": [
    {
      "txid": "6c28aba0ad259a6d3ba52d6e32c0bfbae52202ca2ff354e3744046f4bc658a1d",
      "vout": 0,
      "prevout": {
        "scriptpubkey": "001411cf75d9425226c1ff085af3a7b3538dd6da49fa",
        "scriptpubkey_asm": "OP_0 OP_PUSHBYTES_20 11cf75d9425226c1ff085af3a7b3538dd6da49fa",
        "scriptpubkey_type": "v0_p2wpkh",
        "scriptpubkey_address": "bc1qz88htk2z2gnvrlcgtte60v6n3htd5j06tqe7d4",
        "value": 260205
      },
      "scriptsig": "",
      "scriptsig_asm": "",
      "witness": [
        "3045022100da6c93af3e10c58d61f6ea0a7014dee50410936a7320f9bf4f3160309c50404302205f1cfbd6fa0a5ca166b783f8eedbedb2cc89224686e5df382d93965d03f85baf01",
        "032512ccc4a919678982e7166d5f011e2221c443c2d0abcb7252afbaf265cbda9a"
      ],
      "is_coinbase": false,
      "sequence": 4294967295
    }
  ],
  "vout": [
    {
      "scriptpubkey": "00146b8c42cae0053fb22df1682245272e48f1df01b8",
      "scriptpubkey_asm": "OP_0 OP_PUSHBYTES_20 6b8c42cae0053fb22df1682245272e48f1df01b8",
      "scriptpubkey_type": "v0_p2wpkh",
      "scriptpubkey_address": "bc1qdwxy9jhqq5lmyt03dq3y2fewfrca7qdc9hz7fq",
      "value": 231815
    },
    {
      "scriptpubkey": "00141e0d286c3ca4c35eca323f1b2581b45a198e3f42",
      "scriptpubkey_asm": "OP_0 OP_PUSHBYTES_20 1e0d286c3ca4c35eca323f1b2581b45a198e3f42",
      "scriptpubkey_type": "v0_p2wpkh",
      "scriptpubkey_address": "bc1qrcxjsmpu5np4aj3j8udjtqd5tgvcu06zf8sk6l",
      "value": 25324
    }
  ],
  "size": 223,
  "weight": 562,
  "fee": 3066,
  "status": {
    "confirmed": true,
    "block_height": 834638,
    "block_hash": "000000000000000000025f742c626208ac87e0b7d15054abb4a19ca2d735a54e",
    "block_time": 1710405325
  },
  "hex": "020000000001011d8a65bcf4464074e354f32fca0222e5babfc0326e2da53b6d9a25ada0ab286c0000000000ffffffff0287890300000000001600146b8c42cae0053fb22df1682245272e48f1df01b8ec620000000000001600141e0d286c3ca4c35eca323f1b2581b45a198e3f4202483045022100da6c93af3e10c58d61f6ea0a7014dee50410936a7320f9bf4f3160309c50404302205f1cfbd6fa0a5ca166b783f8eedbedb2cc89224686e5df382d93965d03f85baf0121032512ccc4a919678982e7166d5f011e2221c443c2d0abcb7252afbaf265cbda9a00000000"
}