{
  "txid": "09bb5719d8be69ce54d400083ffbb9a19bdec1c176e4a47873886d800d557864",
  "version": 2,
  "locktime": 0,
  "vin": [
    {
      "txid": "2cb23df51cc4e874af1d43059fcb615c9047520987a10701b6e6ad6bfa0e9ad9",
      "vout": 25,
      "prevout": {
        "scriptpubkey": "001452bf49deb21c59784922e68df0528ab487569ec8",
        "scriptpubkey_asm": "OP_0 OP_PUSHBYTES_20 52bf49deb21c59784922e68df0528ab487569ec8",
        "scriptpubkey_type": "v0_p2wpkh",
        "scriptpubkey_address": "bc1q22l5nh4jr3vhsjfzu6xlq552kjr4d8kgsrpw88",
        "value": 360000
      },
      "scriptsig": "",
      "scriptsig_asm": "",
      "witness": [
        "30450221009d1e28fab9f36f95565739a20fe468fe37cc36466b42678856847dd79c4d72ff02201ce92f5f673ad868b673b2d0278f83e30c0fa22d21cb0fb6e8a0191718d94be901",
        "03566d7b0198e3641d4ed4a78d435677cc32db9921f2ba0155018b283a9fa600cf"
      ],
      "is_coinbase": false,
      "sequence": 0
    },
    {
      "txid": "5c563fe503dd247314833f7d1bdb5f01a9c93b81fcbf35a17b665c5bc83ea68f",
      "vout": 17,
      "prevout": {
        "scriptpubkey": "00146dd8238f8b952d444b771e0d41a2c3ca3d796ea7",
        "scriptpubkey_asm": "OP_0 OP_PUSHBYTES_20 6dd8238f8b952d444b771e0d41a2c3ca3d796ea7",
        "scriptpubkey_type": "v0_p2wpkh",
        "scriptpubkey_address": "bc1qdhvz8rutj5k5gjmhrcx5rgkreg7hjm48mlkskk",
        "value": 70000
      },
      "scriptsig": "",
      "scriptsig_asm": "",
      "witness": [
        "304402207739451f818dadf8853d619cb13bf56c1d55bfc0fea46a5e3f20be3ac4f7ef8b02205064914bacfe92801f13dff9be902815571b5e7b485eb3b9b0253391f00b87cc01",
        "033edd61ca11b781ca22bf86b83fbd96ed96667e1e13cbcc70cb7bc76c91963bcd"
      ],
      "is_coinbase": false,
      "sequence": 0
    },
    {
      "txid": "f14f408e7747df3f364bed8034681a352861071f08c92a80dd0938bb4a5b2187",
      "vout": 0,
      "prevout": {
        "scriptpubkey": "0014750359d2c0456deeefc5b9a12c182b53cf5e9ae8",
        "scriptpubkey_asm": "OP_0 OP_PUSHBYTES_20 750359d2c0456deeefc5b9a12c182b53cf5e9ae8",
        "scriptpubkey_type": "v0_p2wpkh",
        "scriptpubkey_address": "bc1qw5p4n5kqg4k7am79hxsjcxpt2084axhgjn0u8v",
        "value": 1275000
      },
      "scriptsig": "",
      "scriptsig_asm": "",
      "witness": [
        "304502210088e4a6085d011bb82889736cb9b01bf6a9da0433117bda8b911a64db5131e885022020527a64a7882f8bd748c3a37636749140b70fe7c2763d7ccc8c72fa79c1e5e101",
        "0373c490962c392a9e2207cba5d33833e4663fddfd5d15cd6a7c1b4d36addf3f20"
      ],
      "is_coinbase": false,
      "sequence": 0
    }
  ],
  "vout": [
    {
      "scriptpubkey": "0014b24ef91e955d4cf1c178b000a2a31efbf6812073",
      "scriptpubkey_asm": "OP_0 OP_PUSHBYTES_20 b24ef91e955d4cf1c178b000a2a31efbf6812073",
      "scriptpubkey_type": "v0_p2wpkh",
      "scriptpubkey_address": "bc1qkf80j854t4x0rstckqq29gc7l0mgzgrn4nxlur",
      "value": 1495700
    },
    {
      "scriptpubkey": "00144696939bc29932299495c8147e80205368123a9c",
      "scriptpubkey_asm": "OP_0 OP_PUSHBYTES_20 4696939bc29932299495c8147e80205368123a9c",
      "scriptpubkey_type": "v0_p2wpkh",
      "scriptpubkey_address": "bc1qg6tf8x7znyezn9y4eq28aqpq2d5pyw5u9w6de2",
      "value": 204359
    }
  ],
  "size": 520,
  "weight": 1105,
  "fee": 4941,
  "status": {
    "confirmed": true,
    "block_height": 834638,
    "block_hash": "000000000000000000025f742c626208ac87e0b7d15054abb4a19ca2d735a54e",
    "block_time": 1710405325
  },
  "hex": "02000000000103d99a0efa6bade6b60107a187095247905c61cb9f05431daf74e8c41cf53db22c1900000000000000008fa63ec85b5c667ba135bffc813bc9a9015fdb1b7d3f83147324dd03e53f565c11000000000000000087215b4abb3809dd802ac9081f076128351a683480ed4b363fdf47778e404ff10000000000000000000294d2160000000000160014b24ef91e955d4cf1c178b000a2a31efbf6812073471e0300000000001600144696939bc29932299495c8147e80205368123a9c024830450221009d1e28fab9f36f95565739a20fe468fe37cc36466b42678856847dd79c4d72ff02201ce92f5f673ad868b673b2d0278f83e30c0fa22d21cb0fb6e8a0191718d94be9012103566d7b0198e3641d4ed4a78d435677cc32db9921f2ba0155018b283a9fa600cf0247304402207739451f818dadf8853d619cb13bf56c1d55bfc0fea46a5e3f20be3ac4f7ef8b02205064914bacfe92801f13dff9be902815571b5e7b485eb3b9b0253391f00b87cc0121033edd61ca11b781ca22bf86b83fbd96ed96667e1e13cbcc70cb7bc76c91963bcd0248304502210088e4a6085d011bb82889736cb9b01bf6a9da0433117bda8b911a64db5131e885022020527a64a7882f8bd748c3a37636749140b70fe7c2763d7ccc8c72fa79c1e5e101210373c490962c392a9e2207cba5d33833e4663fddfd5d15cd6a7c1b4d36addf3f2000000000"
}