{
  "txid": "09c12608e99cb664901294cd6653928418e8c33d334fdcf83eaf5e829d8217d8",
  "version": 1,
  "locktime": 0,
  "vin": [
    {
      "txid": "c2f50a3c0f79fde9876349687054cd859d10ef94a5dbd62d928182d386df6e1b",
      "vout": 2,
      "prevout": {
        "scriptpubkey": "76a914f4828ea8c8d468d62be2515ef358095599bd8c8888ac",
        "scriptpubkey_asm": "OP_DUP OP_HASH160 OP_PUSHBYTES_20 f4828ea8c8d468d62be2515ef358095599bd8c88 OP_EQUALVERIFY OP_CHECKSIG",
        "scriptpubkey_type": "p2pkh",
        "scriptpubkey_address": "1PHrH5tXTLBjR3a2XqfVfLoLjR8jVNxrjF",
        "value": 137151
      },
      "scriptsig": "473044022060a70766921f3b6834af9c72f7f49a4f441892f671a686bdb48c8c6e55315a5a02205b84a4a9cb230411105ce57f826d6e3349e6a8533257c56cda31ee16734682a5012103ae183aff0db715b513e0a94119c3dccc74082f73746a4804f911bddec569cbe5",
      "scriptsig_asm": "OP_PUSHBYTES_71 3044022060a70766921f3b6834af9c72f7f49a4f441892f671a686bdb48c8c6e55315a5a02205b84a4a9cb230411105ce57f826d6e3349e6a8533257c56cda31ee16734682a501 OP_PUSHBYTES_33 03ae183aff0db715b513e0a94119c3dccc74082f73746a4804f911bddec569cbe5",
      "is_coinbase": false,
      "sequence": 4294967295
    }
  ],
  "vout": [
    {
      "scriptpubkey": "a9145b2ec770425f040abcb3fb7f7b64d0cb52282e2e87",
      "scriptpubkey_asm": "OP_HASH160 OP_PUSHBYTES_20 5b2ec770425f040abcb3fb7f7b64d0cb52282e2e OP_EQUAL",
      "scriptpubkey_type": "p2sh",
      "scriptpubkey_address": "3A19TGPd2R5sceLKcjtR6WQnmiBcLQ7fib",
      "value": 131261
    }
  ],
  "size": 189,
  "weight": 756,
  "fee": 5890,
  "status": {
    "confirmed": true,
    "block_height": 834638,
    "block_hash": "000000000000000000025f742c626208ac87e0b7d15054abb4a19ca2d735a54e",
    "block_time": 1710405325
  },
  "hex": "01000000011b6edf86d38281922dd6dba594ef109d85cd547068496387e9fd790f3c0af5c2020000006a473044022060a70766921f3b6834af9c72f7f49a4f441892f671a686bdb48c8c6e55315a5a02205b84a4a9cb230411105ce57f826d6e3349e6a8533257c56cda31ee16734682a5012103ae183aff0db715b513e0a94119c3dccc74082f73746a4804f911bddec569cbe5ffffffff01bd0002000000000017a9145b2ec770425f040abcb3fb7f7b64d0cb52282e2e8700000000"
}