{
  "txid": "09c21ea5589264bc17ae372fea55b526138deacd72fe2c5157a2d4d076a12c20",
  "version": 1,
  "locktime": 0,
  "vin": [
    {
      "txid": "36b86891a4c2b93951a7452aba923e81d8007e9438934632080a9208dcaa23c6",
      "vout": 0,
      "prevout": {
        "scriptpubkey": "76a9144577fd07f32b1fd44a0600380fccf6421685be4b88ac",
        "scriptpubkey_asm": "OP_DUP OP_HASH160 OP_PUSHBYTES_20 4577fd07f32b1fd44a0600380fccf6421685be4b OP_EQUALVERIFY OP_CHECKSIG",
        "scriptpubkey_type": "p2pkh",
        "scriptpubkey_address": "17LKNBFJSZC7DqDkX4NHzYMbv4virZn1B8",
        "value": 865880
      },
      "scriptsig": "483045022100d0578c723d8b33222fbc9b1b607264bdb5fe942c9be9a4d32eaa950eb0f19c0002205ca6394d25918483fa67d0e52fed3579b71a41befcc64cd652c703616c6d6126012102de5642d6b299bdbc5ad818f96cf1b041c2a58fb9a69a302c5e457a3b908c216c",
      "scriptsig_asm": "OP_PUSHBYTES_72 3045022100d0578c723d8b33222fbc9b1b607264bdb5fe942c9be9a4d32eaa950eb0f19c0002205ca6394d25918483fa67d0e52fed3579b71a41befcc64cd652c703616c6d612601 OP_PUSHBYTES_33 02de5642d6b299bdbc5ad818f96cf1b041c2a58fb9a69a302c5e457a3b908c216c",
      "is_coinbase": false,
      "sequence": 4294967295
    }
  ],
  "vout": [
    {
      "scriptpubkey": "76a91444da0ed939339d34de4fc6431dd7572ea31631e588ac",
      "scriptpubkey_asm": "OP_DUP OP_HASH160 OP_PUSHBYTES_20 44da0ed939339d34de4fc6431dd7572ea31631e5 OP_EQUALVERIFY OP_CHECKSIG",
      "scriptpubkey_type": "p2pkh",
      "scriptpubkey_address": "17H4AyqwcY8nF9yBSwEvyHeuvR3gBfvEgq",
      "value": 862490
    }
  ],
  "size": 192,
  "weight": 768,
  "fee": 3390,
  "status": {
    "confirmed": true,
    "block_height": 834460,
    "block_hash": "00000000000000000000484a79b643b2524bbce82e5d8a442013fa5b8905ed98",
    "block_time": 1710307468
  },
  "hex": "0100000001c623aadc08920a0832469338947e00d8813e92ba2a45a75139b9c2a49168b836000000006b483045022100d0578c723d8b33222fbc9b1b607264bdb5fe942c9be9a4d32eaa950eb0f19c0002205ca6394d25918483fa67d0e52fed3579b71a41befcc64cd652c703616c6d6126012102de5642d6b299bdbc5ad818f96cf1b041c2a58fb9a69a302c5e457a3b908c216cffffffff011a290d00000000001976a91444da0ed939339d34de4fc6431dd7572ea31631e588ac00000000"
}