{
  "txid": "09d215a9feba586688a6ca4fca243ac637f5aadda42d2b22c0baf9f970392a21",
  "version": 2,
  "locktime": 834637,
  "vin": [
    {
      "txid": "30ff27dea5d2bdfc62b724073d66fdee6d5d7e0935641d36ef639c2255e7ee02",
      "vout": 1,
      "prevout": {
        "scriptpubkey": "76a914c7eb8cb5ec031046bf4fa40959fa58e3b80cdac288ac",
        "scriptpubkey_asm": "OP_DUP OP_HASH160 OP_PUSHBYTES_20 c7eb8cb5ec031046bf4fa40959fa58e3b80cdac2 OP_EQUALVERIFY OP_CHECKSIG",
        "scriptpubkey_type": "p2pkh",
        "scriptpubkey_address": "1KE5eT9teqGL77AVjQaRwRs5b7uSXJWBjq",
        "value": 95126
      },
      "scriptsig": "47304402204088e1a4189db73cabf7a7d7d229b37c74939e42f6124d383843f7c415499322022057d921e84e1dfa2be116b2945f3c6c2eac5eb054e2e6e12490c69a9e08214af10121022a5282d8c84927b65de8e7504a00a979b72f475594d1fe6f3646a2586ea5fe94",
      "scriptsig_asm": "OP_PUSHBYTES_71 304402204088e1a4189db73cabf7a7d7d229b37c74939e42f6124d383843f7c415499322022057d921e84e1dfa2be116b2945f3c6c2eac5eb054e2e6e12490c69a9e08214af101 OP_PUSHBYTES_33 022a5282d8c84927b65de8e7504a00a979b72f475594d1fe6f3646a2586ea5fe94",
      "is_coinbase": false,
      "sequence": 4294967293
    },
    {
      "txid": "e16a9555c3bd263bc5e4a5dc782b6cecc19bf7d1f73b2d7e92d214c97256bd99",
      "vout": 1,
      "prevout": {
        "scriptpubkey": "76a9142b5d3a2034769b1d232117dbe081035b5bac800d88ac",
        "scriptpubkey_asm": "OP_DUP OP_HASH160 OP_PUSHBYTES_20 2b5d3a2034769b1d232117dbe081035b5bac800d OP_EQUALVERIFY OP_CHECKSIG",
        "scriptpubkey_type": "p2pkh",
        "scriptpubkey_address": "14xHjn86jXm81q8pttkHFMwboWGfRfWBiz",
        "value": 2740595
      },
      "scriptsig": "47304402207111e086c0e86f5912e24e1f182988e952b48060ce3e42dfb74fd7568f7bcf1e02200b572e0227c03ef73c0d9aa713403569498f1e60b697a2a0d54af4ac26b2dc6a012103b3481926d892413a9bd4a080bb8f70eb58a4e569358794d17a6a4fd6949cb315",
      "scriptsig_asm": "OP_PUSHBYTES_71 304402207111e086c0e86f5912e24e1f182988e952b48060ce3e42dfb74fd7568f7bcf1e02200b572e0227c03ef73c0d9aa713403569498f1e60b697a2a0d54af4ac26b2dc6a01 OP_PUSHBYTES_33 03b3481926d892413a9bd4a080bb8f70eb58a4e569358794d17a6a4fd6949cb315",
      "is_coinbase": false,
      "sequence": 4294967293
    }
  ],
  "vout": [
    {
      "scriptpubkey": "76a914172be4348d497a776eaf89d128df17e6ac7a209688ac",
      "scriptpubkey_asm": "OP_DUP OP_HASH160 OP_PUSHBYTES_20 172be4348d497a776eaf89d128df17e6ac7a2096 OP_EQUALVERIFY OP_CHECKSIG",
      "scriptpubkey_type": "p2pkh",
      "scriptpubkey_address": "137X83RxjTv7pxYaFYwgA8UMgGmhRSbXvV",
      "value": 2647885
    },
    {
      "scriptpubkey": "76a9146c373533611b5c5c4e7d176d51fbce559fdda9a688ac",
      "scriptpubkey_asm": "OP_DUP OP_HASH160 OP_PUSHBYTES_20 6c373533611b5c5c4e7d176d51fbce559fdda9a6 OP_EQUALVERIFY OP_CHECKSIG",
      "scriptpubkey_type": "p2pkh",
      "scriptpubkey_address": "1AsC7dBvP1GKSLgAju9QcQ7Ro9CofPWcLC",
      "value": 182256
    }
  ],
  "size": 372,
  "weight": 1488,
  "fee": 5580,
  "status": {
    "confirmed": true,
    "block_height": 834638,
    "block_hash": "000000000000000000025f742c626208ac87e0b7d15054abb4a19ca2d735a54e",
    "block_time": 1710405325
  },
  "hex": "020000000202eee755229c63ef361d6435097e5d6deefd663d0724b762fcbdd2a5de27ff30010000006a47304402204088e1a4189db73cabf7a7d7d229b37c74939e42f6124d383843f7c415499322022057d921e84e1dfa2be116b2945f3c6c2eac5eb054e2e6e12490c69a9e08214af10121022a5282d8c84927b65de8e7504a00a979b72f475594d1fe6f3646a2586ea5fe94fdffffff99bd5672c914d2927e2d3bf7d1f79bc1ec6c2b78dca5e4c53b26bdc355956ae1010000006a47304402207111e086c0e86f5912e24e1f182988e952b48060ce3e42dfb74fd7568f7bcf1e02200b572e0227c03ef73c0d9aa713403569498f1e60b697a2a0d54af4ac26b2dc6a012103b3481926d892413a9bd4a080bb8f70eb58a4e569358794d17a6a4fd6949cb315fdffffff024d672800000000001976a914172be4348d497a776eaf89d128df17e6ac7a209688acf0c70200000000001976a9146c373533611b5c5c4e7d176d51fbce559fdda9a688ac4dbc0c00"
}