{
  "txid": "09d8a722a32d7d2871967db6bc55a9b26ea2a1106d0107d148eb2722d3cf2faa",
  "version": 2,
  "locktime": 0,
  "vin": [
    {
      "txid": "8e5263294724dbe252b8b1e733a4db912eb77cea44aab1c38aaec96855c5c01f",
      "vout": 1,
      "prevout": {
        "scriptpubkey": "a914ce05f21304d2168dafecd71ff7fc12c3cd8486e387",
        "scriptpubkey_asm": "OP_HASH160 OP_PUSHBYTES_20 ce05f21304d2168dafecd71ff7fc12c3cd8486e3 OP_EQUAL",
        "scriptpubkey_type": "p2sh",
        "scriptpubkey_address": "3LUNFAjDXQComzuEsa2TJevtbZFUYKsqGz",
        "value": 472421
      },
      "scriptsig": "160014c8be937579716877b1aac5c85756efd00d4e02a1",
      "scriptsig_asm": "OP_PUSHBYTES_22 0014c8be937579716877b1aac5c85756efd00d4e02a1",
      "witness": [
        "3044022008d19362303afa2a72fed645c8028282191ac43070e7d375b1d23e831737c3070220491ab2aa2400e30d879b0b14fd5d4b8275dc93eb21f39536fb709b8da704355b01",
        "03020704651efc91aebf646aff7af357e8817ce2486aaa402176608d7dec69356f"
      ],
      "is_coinbase": false,
      "sequence": 4294967295,
      "inner_redeemscript_asm": "OP_0 OP_PUSHBYTES_20 c8be937579716877b1aac5c85756efd00d4e02a1"
    }
  ],
  "vout": [
    {
      "scriptpubkey": "5120bf08a0232fe99071a6851513044f6fda347ac6e99601bf461a8e399889a17b9c",
      "scriptpubkey_asm": "OP_PUSHNUM_1 OP_PUSHBYTES_32 bf08a0232fe99071a6851513044f6fda347ac6e99601bf461a8e399889a17b9c",
      "scriptpubkey_type": "v1_p2tr",
      "scriptpubkey_address": "bc1phuy2qge0axg8rf59z5fsgnm0mg6843hfjcqm73s63cue3zdp0wwqwhlxkp",
      "value": 78575
    },
    {
      "scriptpubkey": "a914ce05f21304d2168dafecd71ff7fc12c3cd8486e387",
      "scriptpubkey_asm": "OP_HASH160 OP_PUSHBYTES_20 ce05f21304d2168dafecd71ff7fc12c3cd8486e3 OP_EQUAL",
      "scriptpubkey_type": "p2sh",
      "scriptpubkey_address": "3LUNFAjDXQComzuEsa2TJevtbZFUYKsqGz",
      "value": 391191
    }
  ],
  "size": 258,
  "weight": 705,
  "fee": 2655,
  "status": {
    "confirmed": true,
    "block_height": 834638,
    "block_hash": "000000000000000000025f742c626208ac87e0b7d15054abb4a19ca2d735a54e",
    "block_time": 1710405325
  },
  "hex": "020000000001011fc0c55568c9ae8ac3b1aa44ea7cb72e91dba433e7b1b852e2db24472963528e0100000017160014c8be937579716877b1aac5c85756efd00d4e02a1ffffffff02ef32010000000000225120bf08a0232fe99071a6851513044f6fda347ac6e99601bf461a8e399889a17b9c17f805000000000017a914ce05f21304d2168dafecd71ff7fc12c3cd8486e38702473044022008d19362303afa2a72fed645c8028282191ac43070e7d375b1d23e831737c3070220491ab2aa2400e30d879b0b14fd5d4b8275dc93eb21f39536fb709b8da704355b012103020704651efc91aebf646aff7af357e8817ce2486aaa402176608d7dec69356f00000000"
}