{
  "txid": "09daf2014fe3f03c96045a3ef2e6ab907f0c895a9e9e357bfbfa1b3c3d1abc1c",
  "version": 1,
  "locktime": 0,
  "vin": [
    {
      "txid": "14de8d61ae9bc01491862372a909ba5ac8ec38941ccc8e2831f5f79a0951f529",
      "vout": 531,
      "prevout": {
        "scriptpubkey": "00149645d431108eec21c6af92429b949a4b71cface5",
        "scriptpubkey_asm": "OP_0 OP_PUSHBYTES_20 9645d431108eec21c6af92429b949a4b71cface5",
        "scriptpubkey_type": "v0_p2wpkh",
        "scriptpubkey_address": "bc1qjezagvgs3mkzr340jfpfh9y6fdcult89ylnppu",
        "value": 119853
      },
      "scriptsig": "",
      "scriptsig_asm": "",
      "witness": [
        "3045022100dac3365e454c2b4513cb1699eccaa8506f3aefc1a54323792700814979168282022047f2a1926f8b096005ce8a472a4c1445928f1f41cfe154a8a953bb44d72268fa01",
        "02d299177c7bd0aeae629c713222b77dcd07b067808daafac1fbf980da02b66748"
      ],
      "is_coinbase": false,
      "sequence": 4294967295
    },
    {
      "txid": "ed0ff8bdf44aca8ca8588ec8b80736a2655340ba3849c8b8d5b706b389883d75",
      "vout": 0,
      "prevout": {
        "scriptpubkey": "00140a020d44f10a884a23feb96aba3231662b3bf754",
        "scriptpubkey_asm": "OP_0 OP_PUSHBYTES_20 0a020d44f10a884a23feb96aba3231662b3bf754",
        "scriptpubkey_type": "v0_p2wpkh",
        "scriptpubkey_address": "bc1qpgpq6383p2yy5gl7h94t5v33vc4nha65qjnfdl",
        "value": 17562
      },
      "scriptsig": "",
      "scriptsig_asm": "",
      "witness": [
        "3045022100ef08bc5b27321feaa586c34c196c3c2c9075c9b190727a57a24f728e14f7190b02203feee1c7207988f8a8366135ac3f20e2f17ded363e1843afe74a4c27e1b55e2c01",
        "03cf436dcfe48e05a869798367302cc56834cbc29382351c4a296a988b941f3d52"
      ],
      "is_coinbase": false,
      "sequence": 4294967295
    }
  ],
  "vout": [
    {
      "scriptpubkey": "0014ef76f05f6edad4a8cf46ad8f5cf08e1dc55e7e6f",
      "scriptpubkey_asm": "OP_0 OP_PUSHBYTES_20 ef76f05f6edad4a8cf46ad8f5cf08e1dc55e7e6f",
      "scriptpubkey_type": "v0_p2wpkh",
      "scriptpubkey_address": "bc1qaam0qhmwmt223n6x4k84euywrhz4uln0pphptn",
      "value": 4265
    },
    {
      "scriptpubkey": "001496342096998c79275d09e9250e51a9a640f77049",
      "scriptpubkey_asm": "OP_0 OP_PUSHBYTES_20 96342096998c79275d09e9250e51a9a640f77049",
      "scriptpubkey_type": "v0_p2wpkh",
      "scriptpubkey_address": "bc1qjc6zp95e33ujwhgfayjsu5df5eq0wuzf7xepf8",
      "value": 130000
    }
  ],
  "size": 372,
  "weight": 834,
  "fee": 3150,
  "status": {
    "confirmed": true,
    "block_height": 834638,
    "block_hash": "000000000000000000025f742c626208ac87e0b7d15054abb4a19ca2d735a54e",
    "block_time": 1710405325
  },
  "hex": "0100000000010229f551099af7f531288ecc1c9438ecc85aba09a97223869114c09bae618dde141302000000ffffffff753d8889b306b7d5b8c84938ba405365a23607b8c88e58a88cca4af4bdf80fed0000000000ffffffff02a910000000000000160014ef76f05f6edad4a8cf46ad8f5cf08e1dc55e7e6fd0fb01000000000016001496342096998c79275d09e9250e51a9a640f7704902483045022100dac3365e454c2b4513cb1699eccaa8506f3aefc1a54323792700814979168282022047f2a1926f8b096005ce8a472a4c1445928f1f41cfe154a8a953bb44d72268fa012102d299177c7bd0aeae629c713222b77dcd07b067808daafac1fbf980da02b6674802483045022100ef08bc5b27321feaa586c34c196c3c2c9075c9b190727a57a24f728e14f7190b02203feee1c7207988f8a8366135ac3f20e2f17ded363e1843afe74a4c27e1b55e2c012103cf436dcfe48e05a869798367302cc56834cbc29382351c4a296a988b941f3d5200000000"
}