{
  "txid": "09e3542b832f4bdd9eefd92c35c5963846fa5d3a76293207730489e7f9125921",
  "version": 2,
  "locktime": 0,
  "vin": [
    {
      "txid": "9d7ae1b513542bbadeba3b3654aa8f58ecf9f336946b805ca20be5967e1f9aa7",
      "vout": 12,
      "prevout": {
        "scriptpubkey": "a91479841103406fd3f8028fb9ed15ed6db0228a3c7887",
        "scriptpubkey_asm": "OP_HASH160 OP_PUSHBYTES_20 79841103406fd3f8028fb9ed15ed6db0228a3c78 OP_EQUAL",
        "scriptpubkey_type": "p2sh",
        "scriptpubkey_address": "3CmXttmqnj5aCzSeVEnZH3N19KFbZazZDf",
        "value": 600
      },
      "scriptsig": "160014062d626fc9ec6c691e50a36cd9ceca58d77e24ac",
      "scriptsig_asm": "OP_PUSHBYTES_22 0014062d626fc9ec6c691e50a36cd9ceca58d77e24ac",
      "witness": [
        "3044022036dd6fc76928103304253b9a3a7a032c8f9baae766b40321ebccd5934b16176602203d60427ee7779105a2f6b88de16d3d450e211830461ee9161e1f07b51ab90d1a01",
        "03c1174aa22c04caa9b75c8efb56d299b49ddd8cbbb91cfebad84eb342272eb11f"
      ],
      "is_coinbase": false,
      "sequence": 4294967295,
      "inner_redeemscript_asm": "OP_0 OP_PUSHBYTES_20 062d626fc9ec6c691e50a36cd9ceca58d77e24ac"
    },
    {
      "txid": "3dbcf680b24d55c5ebde51ccafe0041e0b867a7a963b47a37efa94ed8163c7bd",
      "vout": 4,
      "prevout": {
        "scriptpubkey": "a91479841103406fd3f8028fb9ed15ed6db0228a3c7887",
        "scriptpubkey_asm": "OP_HASH160 OP_PUSHBYTES_20 79841103406fd3f8028fb9ed15ed6db0228a3c78 OP_EQUAL",
        "scriptpubkey_type": "p2sh",
        "scriptpubkey_address": "3CmXttmqnj5aCzSeVEnZH3N19KFbZazZDf",
        "value": 600
      },
      "scriptsig": "160014062d626fc9ec6c691e50a36cd9ceca58d77e24ac",
      "scriptsig_asm": "OP_PUSHBYTES_22 0014062d626fc9ec6c691e50a36cd9ceca58d77e24ac",
      "witness": [
        "304402202fe7521137de843af0ff23be04230bcbf4df7ef0088a16c3c4520ea9f0906c6e02205dfdd06280a785253fdd28a144abcc63cdcb54b353d9e6ea9f73338762582b7201",
        "03c1174aa22c04caa9b75c8efb56d299b49ddd8cbbb91cfebad84eb342272eb11f"
      ],
      "is_coinbase": false,
      "sequence": 4294967295,
      "inner_redeemscript_asm": "OP_0 OP_PUSHBYTES_20 062d626fc9ec6c691e50a36cd9ceca58d77e24ac"
    },
    {
      "txid": "29645cc6381a29d22bf173e2d34277f2a6b97e223d5b6d2b5947244cb46fc9a9",
      "vout": 1,
      "prevout": {
        "scriptpubkey": "512051b5c15c69fee30f9c9c8622dd4b53fc5c870787869b1d7ada9b46b6f08b73c6",
        "scriptpubkey_asm": "OP_PUSHNUM_1 OP_PUSHBYTES_32 51b5c15c69fee30f9c9c8622dd4b53fc5c870787869b1d7ada9b46b6f08b73c6",
        "scriptpubkey_type": "v1_p2tr",
        "scriptpubkey_address": "bc1p2x6uzhrflm3sl8yusc3d6j6nl3wgwpu8s6d367k6ndrtduytw0rq7h2t5s",
        "value": 550
      },
      "scriptsig": "",
      "scriptsig_asm": "",
      "witness": [
        "1c806c79e6260573870ce1298cb2912c459d57aeef12cceacb0bb4523fed63734411a075aace45e3635a7d8f5db45dd3868eae37a2d8a838d72e427c02d605d483"
      ],
      "is_coinbase": false,
      "sequence": 4294967295
    },
    {
      "txid": "6d4f81abf9ca8ad0fc530dc9d7ba3310787a6539dac0103358a84e588e448465",
      "vout": 2,
      "prevout": {
        "scriptpubkey": "a91479841103406fd3f8028fb9ed15ed6db0228a3c7887",
        "scriptpubkey_asm": "OP_HASH160 OP_PUSHBYTES_20 79841103406fd3f8028fb9ed15ed6db0228a3c78 OP_EQUAL",
        "scriptpubkey_type": "p2sh",
        "scriptpubkey_address": "3CmXttmqnj5aCzSeVEnZH3N19KFbZazZDf",
        "value": 3489000
      },
      "scriptsig": "160014062d626fc9ec6c691e50a36cd9ceca58d77e24ac",
      "scriptsig_asm": "OP_PUSHBYTES_22 0014062d626fc9ec6c691e50a36cd9ceca58d77e24ac",
      "witness": [
        "3045022100b12a48f8688ebc57f0c8ce23a5f377114bf256bc6cd9bb8bef783474723fc5c0022065d27052dd4f3ecb5e4eba81b2a02be2145f3e16cef9f5caf1f6cc58ca15f3ad01",
        "03c1174aa22c04caa9b75c8efb56d299b49ddd8cbbb91cfebad84eb342272eb11f"
      ],
      "is_coinbase": false,
      "sequence": 4294967295,
      "inner_redeemscript_asm": "OP_0 OP_PUSHBYTES_20 062d626fc9ec6c691e50a36cd9ceca58d77e24ac"
    }
  ],
  "vout": [
    {
      "scriptpubkey": "a91479841103406fd3f8028fb9ed15ed6db0228a3c7887",
      "scriptpubkey_asm": "OP_HASH160 OP_PUSHBYTES_20 79841103406fd3f8028fb9ed15ed6db0228a3c78 OP_EQUAL",
      "scriptpubkey_type": "p2sh",
      "scriptpubkey_address": "3CmXttmqnj5aCzSeVEnZH3N19KFbZazZDf",
      "value": 1200
    },
    {
      "scriptpubkey": "512062d80d7e78c28d5f158fea3b41e0dac2505fc6fad64ba2bf3aceab472e40d83d",
      "scriptpubkey_asm": "OP_PUSHNUM_1 OP_PUSHBYTES_32 62d80d7e78c28d5f158fea3b41e0dac2505fc6fad64ba2bf3aceab472e40d83d",
      "scriptpubkey_type": "v1_p2tr",
      "scriptpubkey_address": "bc1pvtvq6lncc2x479v0aga5rcx6cfg9l3h66e9690e6e645wtjqmq7s4rhxwx",
      "value": 550
    },
    {
      "scriptpubkey": "a914b939baba648e7b922c2772ac1232d5ab795f8f5e87",
      "scriptpubkey_asm": "OP_HASH160 OP_PUSHBYTES_20 b939baba648e7b922c2772ac1232d5ab795f8f5e OP_EQUAL",
      "scriptpubkey_type": "p2sh",
      "scriptpubkey_address": "3JaQ69BWsVp9RafqQrEhuahU8qrQRAmUYq",
      "value": 2776600
    },
    {
      "scriptpubkey": "a914ea6b832a05c6ca578baa3836f3f25553d41068a587",
      "scriptpubkey_asm": "OP_HASH160 OP_PUSHBYTES_20 ea6b832a05c6ca578baa3836f3f25553d41068a5 OP_EQUAL",
      "scriptpubkey_type": "p2sh",
      "scriptpubkey_address": "3P4WqXDbSLRhzo2H6MT6YFbvBKBDPLbVtQ",
      "value": 69750
    },
    {
      "scriptpubkey": "a91479841103406fd3f8028fb9ed15ed6db0228a3c7887",
      "scriptpubkey_asm": "OP_HASH160 OP_PUSHBYTES_20 79841103406fd3f8028fb9ed15ed6db0228a3c78 OP_EQUAL",
      "scriptpubkey_type": "p2sh",
      "scriptpubkey_address": "3CmXttmqnj5aCzSeVEnZH3N19KFbZazZDf",
      "value": 600
    },
    {
      "scriptpubkey": "a91479841103406fd3f8028fb9ed15ed6db0228a3c7887",
      "scriptpubkey_asm": "OP_HASH160 OP_PUSHBYTES_20 79841103406fd3f8028fb9ed15ed6db0228a3c78 OP_EQUAL",
      "scriptpubkey_type": "p2sh",
      "scriptpubkey_address": "3CmXttmqnj5aCzSeVEnZH3N19KFbZazZDf",
      "value": 600
    },
    {
      "scriptpubkey": "a91479841103406fd3f8028fb9ed15ed6db0228a3c7887",
      "scriptpubkey_asm": "OP_HASH160 OP_PUSHBYTES_20 79841103406fd3f8028fb9ed15ed6db0228a3c78 OP_EQUAL",
      "scriptpubkey_type": "p2sh",
      "scriptpubkey_address": "3CmXttmqnj5aCzSeVEnZH3N19KFbZazZDf",
      "value": 629333
    }
  ],
  "size": 869,
  "weight": 2303,
  "fee": 12117,
  "status": {
    "confirmed": true,
    "block_height": 834638,
    "block_hash": "000000000000000000025f742c626208ac87e0b7d15054abb4a19ca2d735a54e",
    "block_time": 1710405325
  },
  "hex": "02000000000104a79a1f7e96e50ba25c806b9436f3f9ec588faa54363bbadeba2b5413b5e17a9d0c00000017160014062d626fc9ec6c691e50a36cd9ceca58d77e24acffffffffbdc76381ed94fa7ea3473b967a7a860b1e04e0afcc51deebc5554db280f6bc3d0400000017160014062d626fc9ec6c691e50a36cd9ceca58d77e24acffffffffa9c96fb44c2447592b6d5b3d227eb9a6f27742d3e273f12bd2291a38c65c64290100000000ffffffff6584448e584ea8583310c0da39657a781033bad7c90d53fcd08acaf9ab814f6d0200000017160014062d626fc9ec6c691e50a36cd9ceca58d77e24acffffffff07b00400000000000017a91479841103406fd3f8028fb9ed15ed6db0228a3c7887260200000000000022512062d80d7e78c28d5f158fea3b41e0dac2505fc6fad64ba2bf3aceab472e40d83d185e2a000000000017a914b939baba648e7b922c2772ac1232d5ab795f8f5e87761001000000000017a914ea6b832a05c6ca578baa3836f3f25553d41068a587580200000000000017a91479841103406fd3f8028fb9ed15ed6db0228a3c7887580200000000000017a91479841103406fd3f8028fb9ed15ed6db0228a3c7887559a09000000000017a91479841103406fd3f8028fb9ed15ed6db0228a3c788702473044022036dd6fc76928103304253b9a3a7a032c8f9baae766b40321ebccd5934b16176602203d60427ee7779105a2f6b88de16d3d450e211830461ee9161e1f07b51ab90d1a012103c1174aa22c04caa9b75c8efb56d299b49ddd8cbbb91cfebad84eb342272eb11f0247304402202fe7521137de843af0ff23be04230bcbf4df7ef0088a16c3c4520ea9f0906c6e02205dfdd06280a785253fdd28a144abcc63cdcb54b353d9e6ea9f73338762582b72012103c1174aa22c04caa9b75c8efb56d299b49ddd8cbbb91cfebad84eb342272eb11f01411c806c79e6260573870ce1298cb2912c459d57aeef12cceacb0bb4523fed63734411a075aace45e3635a7d8f5db45dd3868eae37a2d8a838d72e427c02d605d48302483045022100b12a48f8688ebc57f0c8ce23a5f377114bf256bc6cd9bb8bef783474723fc5c0022065d27052dd4f3ecb5e4eba81b2a02be2145f3e16cef9f5caf1f6cc58ca15f3ad012103c1174aa22c04caa9b75c8efb56d299b49ddd8cbbb91cfebad84eb342272eb11f00000000"
}