{
  "txid": "0a331187bb44a28b342bd2fdfd2ff58147f0e4e43444b5efd89c71f3176caea6",
  "version": 2,
  "locktime": 834637,
  "vin": [
    {
      "txid": "0d5ea04b8facfb2f9e4626d3d97bd99be06c63222a39660682c4bfbb85b8858d",
      "vout": 1,
      "prevout": {
        "scriptpubkey": "76a9144fc15c06ef17d58c2929e07ef77adb36583fa61e88ac",
        "scriptpubkey_asm": "OP_DUP OP_HASH160 OP_PUSHBYTES_20 4fc15c06ef17d58c2929e07ef77adb36583fa61e OP_EQUALVERIFY OP_CHECKSIG",
        "scriptpubkey_type": "p2pkh",
        "scriptpubkey_address": "18Gi21Q57a1CiXg9Jat3XW3YkUH8F6XvyK",
        "value": 99990000
      },
      "scriptsig": "4630430220047c908eba3c9b397188c34241d7cebdb19d2781fa6e898d43726a3fc1be2761021f4dfa7227e3830aff487456090837f942f901782400d513e29fc36eb735e9dd012103a562d1dd88059f8de9aaa1132fcffa616c96aa514f37326034073869567095aa",
      "scriptsig_asm": "OP_PUSHBYTES_70 30430220047c908eba3c9b397188c34241d7cebdb19d2781fa6e898d43726a3fc1be2761021f4dfa7227e3830aff487456090837f942f901782400d513e29fc36eb735e9dd01 OP_PUSHBYTES_33 03a562d1dd88059f8de9aaa1132fcffa616c96aa514f37326034073869567095aa",
      "is_coinbase": false,
      "sequence": 4294967293
    },
    {
      "txid": "37833cbd409c03f74a8a4d902550880717bef7af811177cac5b2a7b238e30d37",
      "vout": 0,
      "prevout": {
        "scriptpubkey": "76a914c2a4672cedd638461acc599780f132fd1471f62288ac",
        "scriptpubkey_asm": "OP_DUP OP_HASH160 OP_PUSHBYTES_20 c2a4672cedd638461acc599780f132fd1471f622 OP_EQUALVERIFY OP_CHECKSIG",
        "scriptpubkey_type": "p2pkh",
        "scriptpubkey_address": "1JkB38zgLGQgU8pZQQedW8gJF1gPPt6ycx",
        "value": 99973600
      },
      "scriptsig": "473044022059e077333457f200ae18dbdb1780363baa49dcc597c9feba9ff621c5c425406c02201bf9b98c9dace0b15a5561af0a08cab70072adaec7ee60d26e10cb06bdc669170121021d2457e9c7b412cb76575ad67dba77932884cce5424a423bd4599afa5b158f1e",
      "scriptsig_asm": "OP_PUSHBYTES_71 3044022059e077333457f200ae18dbdb1780363baa49dcc597c9feba9ff621c5c425406c02201bf9b98c9dace0b15a5561af0a08cab70072adaec7ee60d26e10cb06bdc6691701 OP_PUSHBYTES_33 021d2457e9c7b412cb76575ad67dba77932884cce5424a423bd4599afa5b158f1e",
      "is_coinbase": false,
      "sequence": 4294967293
    },
    {
      "txid": "852ab6b05b4d9f2f9f5ddf9aa421e27e43ecbf043a9186361e2b49b7791b736b",
      "vout": 1,
      "prevout": {
        "scriptpubkey": "76a914f8c51a5dcfa0fc7bff73a337240bb258d92bfbf488ac",
        "scriptpubkey_asm": "OP_DUP OP_HASH160 OP_PUSHBYTES_20 f8c51a5dcfa0fc7bff73a337240bb258d92bfbf4 OP_EQUALVERIFY OP_CHECKSIG",
        "scriptpubkey_type": "p2pkh",
        "scriptpubkey_address": "1PgNhXk6VepvoN7czdMBEz23dvVcaXhpdP",
        "value": 24918300
      },
      "scriptsig": "47304402203673c60dc5a2efaccf08abf5d93a7be9d1b862bde9cb60763ebfb4fc0d1b7a1a02207f85ffe004f7a22f86fc131849ba25bf955c6cf2cb22375d702c456088e3f6030121026cf41d60208634835edbfabb6a1fd02239d80861a3ca295a1dda6be832897a73",
      "scriptsig_asm": "OP_PUSHBYTES_71 304402203673c60dc5a2efaccf08abf5d93a7be9d1b862bde9cb60763ebfb4fc0d1b7a1a02207f85ffe004f7a22f86fc131849ba25bf955c6cf2cb22375d702c456088e3f60301 OP_PUSHBYTES_33 026cf41d60208634835edbfabb6a1fd02239d80861a3ca295a1dda6be832897a73",
      "is_coinbase": false,
      "sequence": 4294967293
    },
    {
      "txid": "ed3fdbe042f0d13a91bca021e12aabe6b5532ba56fc69b2c75b28124703a66ac",
      "vout": 1,
      "prevout": {
        "scriptpubkey": "76a914c32394ac70adfeb48363bd8cfb04e7f14825553788ac",
        "scriptpubkey_asm": "OP_DUP OP_HASH160 OP_PUSHBYTES_20 c32394ac70adfeb48363bd8cfb04e7f148255537 OP_EQUALVERIFY OP_CHECKSIG",
        "scriptpubkey_type": "p2pkh",
        "scriptpubkey_address": "1JnoPbsVGR5i6R6WRPU6XAs3Wc8SP52KCK",
        "value": 866400
      },
      "scriptsig": "473044022040b287a7df1ea8cb19e6bd9943d691956864fa1c826d2a2350bdc54d29c8ff9b02204f6baed82abd50350e6fc14de75bc3fb6f33a8e0d778714ffb6f3a15a6b09522012102906a9bc4b010f0834ee113b13df8c131d59b3a5d0688d226622f718c24a20ba0",
      "scriptsig_asm": "OP_PUSHBYTES_71 3044022040b287a7df1ea8cb19e6bd9943d691956864fa1c826d2a2350bdc54d29c8ff9b02204f6baed82abd50350e6fc14de75bc3fb6f33a8e0d778714ffb6f3a15a6b0952201 OP_PUSHBYTES_33 02906a9bc4b010f0834ee113b13df8c131d59b3a5d0688d226622f718c24a20ba0",
      "is_coinbase": false,
      "sequence": 4294967293
    }
  ],
  "vout": [
    {
      "scriptpubkey": "76a91480f9b3efcd88f13eb205e0dc34456b3ed516917488ac",
      "scriptpubkey_asm": "OP_DUP OP_HASH160 OP_PUSHBYTES_20 80f9b3efcd88f13eb205e0dc34456b3ed5169174 OP_EQUALVERIFY OP_CHECKSIG",
      "scriptpubkey_type": "p2pkh",
      "scriptpubkey_address": "1CkxdDSGLje1TjXrbk61TjaiXxkkSbrqcY",
      "value": 737600
    },
    {
      "scriptpubkey": "0014a9a104c9b59d14a264bb52936be24f389a34a17e",
      "scriptpubkey_asm": "OP_0 OP_PUSHBYTES_20 a9a104c9b59d14a264bb52936be24f389a34a17e",
      "scriptpubkey_type": "v0_p2wpkh",
      "scriptpubkey_address": "bc1q4xssfjd4n522ye9m22fkhcj08zdrfgt79lc0jm",
      "value": 225000000
    }
  ],
  "size": 662,
  "weight": 2648,
  "fee": 10700,
  "status": {
    "confirmed": true,
    "block_height": 834638,
    "block_hash": "000000000000000000025f742c626208ac87e0b7d15054abb4a19ca2d735a54e",
    "block_time": 1710405325
  },
  "hex": "02000000048d85b885bbbfc4820666392a22636ce09bd97bd9d326469e2ffbac8f4ba05e0d01000000694630430220047c908eba3c9b397188c34241d7cebdb19d2781fa6e898d43726a3fc1be2761021f4dfa7227e3830aff487456090837f942f901782400d513e29fc36eb735e9dd012103a562d1dd88059f8de9aaa1132fcffa616c96aa514f37326034073869567095aafdffffff370de338b2a7b2c5ca771181aff7be1707885025904d8a4af7039c40bd3c8337000000006a473044022059e077333457f200ae18dbdb1780363baa49dcc597c9feba9ff621c5c425406c02201bf9b98c9dace0b15a5561af0a08cab70072adaec7ee60d26e10cb06bdc669170121021d2457e9c7b412cb76575ad67dba77932884cce5424a423bd4599afa5b158f1efdffffff6b731b79b7492b1e3686913a04bfec437ee221a49adf5d9f2f9f4d5bb0b62a85010000006a47304402203673c60dc5a2efaccf08abf5d93a7be9d1b862bde9cb60763ebfb4fc0d1b7a1a02207f85ffe004f7a22f86fc131849ba25bf955c6cf2cb22375d702c456088e3f6030121026cf41d60208634835edbfabb6a1fd02239d80861a3ca295a1dda6be832897a73fdffffffac663a702481b2752c9bc66fa52b53b5e6ab2ae121a0bc913ad1f042e0db3fed010000006a473044022040b287a7df1ea8cb19e6bd9943d691956864fa1c826d2a2350bdc54d29c8ff9b02204f6baed82abd50350e6fc14de75bc3fb6f33a8e0d778714ffb6f3a15a6b09522012102906a9bc4b010f0834ee113b13df8c131d59b3a5d0688d226622f718c24a20ba0fdffffff0240410b00000000001976a91480f9b3efcd88f13eb205e0dc34456b3ed516917488ac403a690d00000000160014a9a104c9b59d14a264bb52936be24f389a34a17e4dbc0c00"
}