{
  "txid": "0a3d459d2340c4e33b15fe951f8e4807e7ebeb835dc7c8b9b641690a9bb7dede",
  "version": 2,
  "locktime": 0,
  "vin": [
    {
      "txid": "c1663fc47afde7bbb1d83e6bc0a45340fdc5a9ebdec523fef4b51e392ed21f58",
      "vout": 1,
      "prevout": {
        "scriptpubkey": "5120c3a7518de58a2acc1e7553de42a6c6e0e14b5dd9021ed82a8d96f69bfbaca727",
        "scriptpubkey_asm": "OP_PUSHNUM_1 OP_PUSHBYTES_32 c3a7518de58a2acc1e7553de42a6c6e0e14b5dd9021ed82a8d96f69bfbaca727",
        "scriptpubkey_type": "v1_p2tr",
        "scriptpubkey_address": "bc1pcwn4rr093g4vc8n4200y9fkxurs5khweqg0ds25djmmfh7av5unsd795pm",
        "value": 2207
      },
      "scriptsig": "",
      "scriptsig_asm": "",
      "witness": [
        "1619d4c5183d262d039f9f51034e63b413e9f761635c376f4153231bda01432128c066e6301f27b25a8fbbe190766e122c785eeb7136b36db16e98922e4cb048",
        "20a7db3a707373e6155ad62472088e7236a681f86fea5236d29c5fa9b955a63e31ac0063036f7264010118746578742f706c61696e3b636861727365743d7574662d3800357b2270223a226272632d3230222c226f70223a226d696e74222c227469636b223a22646f6765222c22616d74223a2234323030227d68",
        "c179e7bed0f3caf3813f5bc798799f48026ddc2f656deda6db0c9486dd4ef951ea"
      ],
      "is_coinbase": false,
      "sequence": 4294967295
    }
  ],
  "vout": [
    {
      "scriptpubkey": "5120d5104f8c67a3c8dcf41733f38c1be1855ad29ee4847592a882747f48f31e49bd",
      "scriptpubkey_asm": "OP_PUSHNUM_1 OP_PUSHBYTES_32 d5104f8c67a3c8dcf41733f38c1be1855ad29ee4847592a882747f48f31e49bd",
      "scriptpubkey_type": "v1_p2tr",
      "scriptpubkey_address": "bc1p65gylrr850ydeaqhx0eccxlps4dd98hys36e92yzw3l53uc7fx7spxq2f0",
      "value": 546
    }
  ],
  "size": 320,
  "weight": 602,
  "fee": 1661,
  "status": {
    "confirmed": true,
    "block_height": 834464,
    "block_hash": "0000000000000000000177a0869a911a2b65c9bdcd5a8bcb02b68f305bee848e",
    "block_time": 1710308296
  },
  "hex": "02000000000101581fd22e391eb5f4fe23c5deeba9c5fd4053a4c06b3ed8b1bbe7fd7ac43f66c10100000000ffffffff012202000000000000225120d5104f8c67a3c8dcf41733f38c1be1855ad29ee4847592a882747f48f31e49bd03401619d4c5183d262d039f9f51034e63b413e9f761635c376f4153231bda01432128c066e6301f27b25a8fbbe190766e122c785eeb7136b36db16e98922e4cb0487b20a7db3a707373e6155ad62472088e7236a681f86fea5236d29c5fa9b955a63e31ac0063036f7264010118746578742f706c61696e3b636861727365743d7574662d3800357b2270223a226272632d3230222c226f70223a226d696e74222c227469636b223a22646f6765222c22616d74223a2234323030227d6821c179e7bed0f3caf3813f5bc798799f48026ddc2f656deda6db0c9486dd4ef951ea00000000"
}