{
  "txid": "0a3fa2941f316cbf05d7a708f180a4f7cd8034f33ccfea77091252354da41e61",
  "version": 2,
  "locktime": 834458,
  "vin": [
    {
      "txid": "fd4a933edbcb8289266a12b4ae26dab6a202ff76542e4e4d5e6adeb420f239df",
      "vout": 53,
      "prevout": {
        "scriptpubkey": "0014f8e59a78ba87f78186ca7b01b7241cbb51a760b2",
        "scriptpubkey_asm": "OP_0 OP_PUSHBYTES_20 f8e59a78ba87f78186ca7b01b7241cbb51a760b2",
        "scriptpubkey_type": "v0_p2wpkh",
        "scriptpubkey_address": "bc1qlrje5796slmcrpk20vqmwfquhdg6wc9juhzccl",
        "value": 11021
      },
      "scriptsig": "",
      "scriptsig_asm": "",
      "witness": [
        "3044022021eeba776b0079ad668b935ea6bb7580780cb5ccfaf0bf43dd24d92cf25d06030220579faa4193f72b0d1be0a86df0c48fe4dae828cf20038cf81dc6c306a8c794c401",
        "03f03a20222d8cfa77d0a084bee0cc2576849519f665fa58f8519246f12448e8db"
      ],
      "is_coinbase": false,
      "sequence": 4294967293
    },
    {
      "txid": "c1ed81a25c8cad8a4b2f7884f8afb278485ee022ef8b5dcac3eb8e747983c73d",
      "vout": 13,
      "prevout": {
        "scriptpubkey": "0014a6db96baf70b783abab9711cb1b191b2581f0f23",
        "scriptpubkey_asm": "OP_0 OP_PUSHBYTES_20 a6db96baf70b783abab9711cb1b191b2581f0f23",
        "scriptpubkey_type": "v0_p2wpkh",
        "scriptpubkey_address": "bc1q5mdedwhhpdur4w4ewywtrvv3kfvp7rerzph64c",
        "value": 484559
      },
      "scriptsig": "",
      "scriptsig_asm": "",
      "witness": [
        "304402204a0257e118121cdfcca3be19e9bf0062aa7174b5281feeed1d2beb865df6820902203243da10da2a372e101aad857bdadd373987bdb2c7b4c503e5a0050ad6ee948101",
        "031c17e3847fcc4b85a9a557d13e286c963e11446a8b41c062539a1bf03199b86e"
      ],
      "is_coinbase": false,
      "sequence": 4294967293
    },
    {
      "txid": "8e9be9693396b0533854a53c5bbd47c7168657d1964389b03b024b810f962ec7",
      "vout": 0,
      "prevout": {
        "scriptpubkey": "00143bbdad971c926e7479fae32886310688d4ff73e7",
        "scriptpubkey_asm": "OP_0 OP_PUSHBYTES_20 3bbdad971c926e7479fae32886310688d4ff73e7",
        "scriptpubkey_type": "v0_p2wpkh",
        "scriptpubkey_address": "bc1q8w76m9cujfh8g706uv5gvvgx3r207ul8nssy4e",
        "value": 1000884
      },
      "scriptsig": "",
      "scriptsig_asm": "",
      "witness": [
        "30440220748656dee8891e96b4fe1c1c0ac826ecd900d6c679e62aa1128c76cc7a8913c7022038b3e1023e1295e6d918d229b2031082b089cb53511dbb67343635f85640193a01",
        "034e39168f45371c59add7b6d06c177da7f4c2d965af539ed482e160e381dc5a3c"
      ],
      "is_coinbase": false,
      "sequence": 4294967293
    }
  ],
  "vout": [
    {
      "scriptpubkey": "a9148265a694f5544e0dd1b07c85f38d420c54b9879087",
      "scriptpubkey_asm": "OP_HASH160 OP_PUSHBYTES_20 8265a694f5544e0dd1b07c85f38d420c54b98790 OP_EQUAL",
      "scriptpubkey_type": "p2sh",
      "scriptpubkey_address": "3DaVYJAz5cPnrJNtKMcGkKDKh9dEE55su5",
      "value": 491966
    },
    {
      "scriptpubkey": "0014450523091f5923f340092bfeac9b159ebac2ba11",
      "scriptpubkey_asm": "OP_0 OP_PUSHBYTES_20 450523091f5923f340092bfeac9b159ebac2ba11",
      "scriptpubkey_type": "v0_p2wpkh",
      "scriptpubkey_address": "bc1qg5zjxzglty3lxsqf90l2exc4n6av9ws34s907j",
      "value": 1000884
    }
  ],
  "size": 519,
  "weight": 1107,
  "fee": 3614,
  "status": {
    "confirmed": true,
    "block_height": 834460,
    "block_hash": "00000000000000000000484a79b643b2524bbce82e5d8a442013fa5b8905ed98",
    "block_time": 1710307468
  },
  "hex": "02000000000103df39f220b4de6a5e4d4e2e5476ff02a2b6da26aeb4126a268982cbdb3e934afd3500000000fdffffff3dc78379748eebc3ca5d8bef22e05e4878b2aff884782f4b8aad8c5ca281edc10d00000000fdffffffc72e960f814b023bb0894396d1578616c747bd5b3ca5543853b0963369e99b8e0000000000fdffffff02be8107000000000017a9148265a694f5544e0dd1b07c85f38d420c54b9879087b4450f0000000000160014450523091f5923f340092bfeac9b159ebac2ba1102473044022021eeba776b0079ad668b935ea6bb7580780cb5ccfaf0bf43dd24d92cf25d06030220579faa4193f72b0d1be0a86df0c48fe4dae828cf20038cf81dc6c306a8c794c4012103f03a20222d8cfa77d0a084bee0cc2576849519f665fa58f8519246f12448e8db0247304402204a0257e118121cdfcca3be19e9bf0062aa7174b5281feeed1d2beb865df6820902203243da10da2a372e101aad857bdadd373987bdb2c7b4c503e5a0050ad6ee94810121031c17e3847fcc4b85a9a557d13e286c963e11446a8b41c062539a1bf03199b86e024730440220748656dee8891e96b4fe1c1c0ac826ecd900d6c679e62aa1128c76cc7a8913c7022038b3e1023e1295e6d918d229b2031082b089cb53511dbb67343635f85640193a0121034e39168f45371c59add7b6d06c177da7f4c2d965af539ed482e160e381dc5a3c9abb0c00"
}