{
  "txid": "0a403d28dff954a0ff41f056b1c1f95315e7cf337caef05a9e2e7f18e62026b9",
  "version": 1,
  "locktime": 0,
  "vin": [
    {
      "txid": "d248bc0aa6c6630abab5ce532b7ca302801f42b0f5433b47b43894d2b1645e97",
      "vout": 1,
      "prevout": {
        "scriptpubkey": "00149c49aaac50170f4714251937e798b107e910a90b",
        "scriptpubkey_asm": "OP_0 OP_PUSHBYTES_20 9c49aaac50170f4714251937e798b107e910a90b",
        "scriptpubkey_type": "v0_p2wpkh",
        "scriptpubkey_address": "bc1qn3y64tzszu85w9p9rym70x93ql53p2gtnsxljq",
        "value": 6336464
      },
      "scriptsig": "",
      "scriptsig_asm": "",
      "witness": [
        "304402204dc63c2d4ca7b271a2d66dbb139849ef57ea21e10917d34b5a6d9743bc7f097502200d592842ff60a23f19e2059552bd7a754fc9930be6d471c47d8ad17c4a7a7cf001",
        "0388241cc5351c089124d86ca147bd1e4b7d03bbd29b875310cc2dfdcfa79d8f98"
      ],
      "is_coinbase": false,
      "sequence": 4294967295
    }
  ],
  "vout": [
    {
      "scriptpubkey": "00140e21138661c13a2c05b27de363582d2fb0fd784a",
      "scriptpubkey_asm": "OP_0 OP_PUSHBYTES_20 0e21138661c13a2c05b27de363582d2fb0fd784a",
      "scriptpubkey_type": "v0_p2wpkh",
      "scriptpubkey_address": "bc1qpcs38pnpcyazcpdj0h3kxkpd97c067z2an9nhh",
      "value": 156990
    },
    {
      "scriptpubkey": "00149c49aaac50170f4714251937e798b107e910a90b",
      "scriptpubkey_asm": "OP_0 OP_PUSHBYTES_20 9c49aaac50170f4714251937e798b107e910a90b",
      "scriptpubkey_type": "v0_p2wpkh",
      "scriptpubkey_address": "bc1qn3y64tzszu85w9p9rym70x93ql53p2gtnsxljq",
      "value": 6177444
    }
  ],
  "size": 222,
  "weight": 561,
  "fee": 2030,
  "status": {
    "confirmed": true,
    "block_height": 834638,
    "block_hash": "000000000000000000025f742c626208ac87e0b7d15054abb4a19ca2d735a54e",
    "block_time": 1710405325
  },
  "hex": "01000000000101975e64b1d29438b4473b43f5b0421f8002a37c2b53ceb5ba0a63c6a60abc48d20100000000ffffffff023e650200000000001600140e21138661c13a2c05b27de363582d2fb0fd784aa4425e00000000001600149c49aaac50170f4714251937e798b107e910a90b0247304402204dc63c2d4ca7b271a2d66dbb139849ef57ea21e10917d34b5a6d9743bc7f097502200d592842ff60a23f19e2059552bd7a754fc9930be6d471c47d8ad17c4a7a7cf001210388241cc5351c089124d86ca147bd1e4b7d03bbd29b875310cc2dfdcfa79d8f9800000000"
}