{
  "txid": "0a44ec3c4847fe94c14129b74f978753a2757565bb3bd583f10bacd5b2f2a96a",
  "version": 2,
  "locktime": 834637,
  "vin": [
    {
      "txid": "4f9a8c15de9a44b5086e613f6d59c47afa1e15d3b3507814405fb4972f75c8a8",
      "vout": 21,
      "prevout": {
        "scriptpubkey": "00142f2c94157b2cd3dee866df67da44e76c0771c756",
        "scriptpubkey_asm": "OP_0 OP_PUSHBYTES_20 2f2c94157b2cd3dee866df67da44e76c0771c756",
        "scriptpubkey_type": "v0_p2wpkh",
        "scriptpubkey_address": "bc1q9ukfg9tm9nfaa6rxmana5388dsrhr36ksvnqn2",
        "value": 2862413
      },
      "scriptsig": "",
      "scriptsig_asm": "",
      "witness": [
        "30440220590fa54e3573ee34d4fe3b7a37af4ca4e0658795825d7af34320dfd890b867530220047e34e9fa07e7440914508b509c1cc662e8eb1d7549109c9c55e6d595c8036101",
        "02b38ff31f1973a46bbe67b99ab7d0d9dbccb35692d707db9e8f430a46e98fca88"
      ],
      "is_coinbase": false,
      "sequence": 4294967293
    }
  ],
  "vout": [
    {
      "scriptpubkey": "76a9141e4a5534f2fa32b9778af30952cbee73ce876e8188ac",
      "scriptpubkey_asm": "OP_DUP OP_HASH160 OP_PUSHBYTES_20 1e4a5534f2fa32b9778af30952cbee73ce876e81 OP_EQUALVERIFY OP_CHECKSIG",
      "scriptpubkey_type": "p2pkh",
      "scriptpubkey_address": "13mAKVV94tekNe1NS9KhoT9qD3doYhRViw",
      "value": 2860616
    }
  ],
  "size": 194,
  "weight": 449,
  "fee": 1797,
  "status": {
    "confirmed": true,
    "block_height": 834638,
    "block_hash": "000000000000000000025f742c626208ac87e0b7d15054abb4a19ca2d735a54e",
    "block_time": 1710405325
  },
  "hex": "02000000000101a8c8752f97b45f40147850b3d3151efa7ac4596d3f616e08b5449ade158c9a4f1500000000fdffffff0148a62b00000000001976a9141e4a5534f2fa32b9778af30952cbee73ce876e8188ac024730440220590fa54e3573ee34d4fe3b7a37af4ca4e0658795825d7af34320dfd890b867530220047e34e9fa07e7440914508b509c1cc662e8eb1d7549109c9c55e6d595c80361012102b38ff31f1973a46bbe67b99ab7d0d9dbccb35692d707db9e8f430a46e98fca884dbc0c00"
}