{
  "txid": "0a49d4a429e822a7ac896fdb5d5730d64f10b351d1b89379535b76afb409aba4",
  "version": 2,
  "locktime": 0,
  "vin": [
    {
      "txid": "659b82bf51c32df260f3e3563d90fcbcb0098209af4d18020ca9e1a619ccc8c8",
      "vout": 4,
      "prevout": {
        "scriptpubkey": "5120c827896a5bcdba954834c6169284ed8df239862e94e411fb46bfe7a4842168c7",
        "scriptpubkey_asm": "OP_PUSHNUM_1 OP_PUSHBYTES_32 c827896a5bcdba954834c6169284ed8df239862e94e411fb46bfe7a4842168c7",
        "scriptpubkey_type": "v1_p2tr",
        "scriptpubkey_address": "bc1peqncj6jmekaf2jp5cctf9p8d3hernp3wjnjpr76xhln6fpppdrrsnzus7s",
        "value": 1931
      },
      "scriptsig": "",
      "scriptsig_asm": "",
      "witness": [
        "22fc9f2b4299c4fc11c79b0a4384bf2172a33ab0f026e50ac724e9ba00109dd85bef5d5ccb7b7374edc2caeeaa4cf5c1098379ce0482de9656118c6aaab38f63",
        "201a8aa220b0de43c836a6d5a76558332c8a226542d21f01c1115ceb54cda562c3ac0063036f726401010a746578742f706c61696e00367b2270223a226272632d3230222c226f70223a226d696e74222c227469636b223a2261616161222c22616d74223a223130303030227d68",
        "c11a8aa220b0de43c836a6d5a76558332c8a226542d21f01c1115ceb54cda562c3"
      ],
      "is_coinbase": false,
      "sequence": 4261412863
    }
  ],
  "vout": [
    {
      "scriptpubkey": "0014be9f0c070a9b1bd40f5fcb06fba89738d936ceb6",
      "scriptpubkey_asm": "OP_0 OP_PUSHBYTES_20 be9f0c070a9b1bd40f5fcb06fba89738d936ceb6",
      "scriptpubkey_type": "v0_p2wpkh",
      "scriptpubkey_address": "bc1qh60scpc2nvdagr6levr0h2yh8rvndn4k4v5s9g",
      "value": 294
    }
  ],
  "size": 295,
  "weight": 541,
  "fee": 1637,
  "status": {
    "confirmed": true,
    "block_height": 834460,
    "block_hash": "00000000000000000000484a79b643b2524bbce82e5d8a442013fa5b8905ed98",
    "block_time": 1710307468
  },
  "hex": "02000000000101c8c8cc19a6e1a90c02184daf098209b0bcfc903d56e3f360f22dc351bf829b650400000000fffffffd012601000000000000160014be9f0c070a9b1bd40f5fcb06fba89738d936ceb6034022fc9f2b4299c4fc11c79b0a4384bf2172a33ab0f026e50ac724e9ba00109dd85bef5d5ccb7b7374edc2caeeaa4cf5c1098379ce0482de9656118c6aaab38f636e201a8aa220b0de43c836a6d5a76558332c8a226542d21f01c1115ceb54cda562c3ac0063036f726401010a746578742f706c61696e00367b2270223a226272632d3230222c226f70223a226d696e74222c227469636b223a2261616161222c22616d74223a223130303030227d6821c11a8aa220b0de43c836a6d5a76558332c8a226542d21f01c1115ceb54cda562c300000000"
}