{
  "txid": "0a49d038b029e22177869a428fb54078592ae26714a044e7cd8bd396a0d3a0cc",
  "version": 2,
  "locktime": 0,
  "vin": [
    {
      "txid": "ece239ce85e1173f39960b09751b00bbe089d59353ae7f3666f5ea22879dfc1a",
      "vout": 1,
      "prevout": {
        "scriptpubkey": "5120754a37b51ed9348bfd489b85d6a7399aaa58a0aec1c40f66314794cc15622c8b",
        "scriptpubkey_asm": "OP_PUSHNUM_1 OP_PUSHBYTES_32 754a37b51ed9348bfd489b85d6a7399aaa58a0aec1c40f66314794cc15622c8b",
        "scriptpubkey_type": "v1_p2tr",
        "scriptpubkey_address": "bc1pw49r0dg7my6ghl2gnwzadfeen2493g9wc8zq7e33g72vc9tz9j9scvr55g",
        "value": 76951
      },
      "scriptsig": "",
      "scriptsig_asm": "",
      "witness": [
        "faf1808e8818f5bbacfcf756514a41c53585545acc3f779542d595b4d595d889549a9072cfb0ab55f4c5a07422cc45738ec055a865c44fb08131ab5e8bd4ef0e"
      ],
      "is_coinbase": false,
      "sequence": 4294967295
    },
    {
      "txid": "094997756d193133717b99f2ad74075e205842f4fd4ebec5e33eb4daf5686d1d",
      "vout": 12,
      "prevout": {
        "scriptpubkey": "5120754a37b51ed9348bfd489b85d6a7399aaa58a0aec1c40f66314794cc15622c8b",
        "scriptpubkey_asm": "OP_PUSHNUM_1 OP_PUSHBYTES_32 754a37b51ed9348bfd489b85d6a7399aaa58a0aec1c40f66314794cc15622c8b",
        "scriptpubkey_type": "v1_p2tr",
        "scriptpubkey_address": "bc1pw49r0dg7my6ghl2gnwzadfeen2493g9wc8zq7e33g72vc9tz9j9scvr55g",
        "value": 69333
      },
      "scriptsig": "",
      "scriptsig_asm": "",
      "witness": [
        "9003dd93d813602036f37ddd9eb390dbfc272a19ed4008fb74d91cc3915b9709a1dbc7f538d40c9b2f4d89f8d112573c575890407f223adc7c389a8d842938d1"
      ],
      "is_coinbase": false,
      "sequence": 4294967295
    }
  ],
  "vout": [
    {
      "scriptpubkey": "512091458ac69f497b5a757ddb3e14e370913b95fc8f3bf7355f8f210fe20306d991",
      "scriptpubkey_asm": "OP_PUSHNUM_1 OP_PUSHBYTES_32 91458ac69f497b5a757ddb3e14e370913b95fc8f3bf7355f8f210fe20306d991",
      "scriptpubkey_type": "v1_p2tr",
      "scriptpubkey_address": "bc1pj9zc435lf9a45atamvlpfcmsjyaetly080mn2hu0yy87yqcxmxgs86tnts",
      "value": 100000
    },
    {
      "scriptpubkey": "5120754a37b51ed9348bfd489b85d6a7399aaa58a0aec1c40f66314794cc15622c8b",
      "scriptpubkey_asm": "OP_PUSHNUM_1 OP_PUSHBYTES_32 754a37b51ed9348bfd489b85d6a7399aaa58a0aec1c40f66314794cc15622c8b",
      "scriptpubkey_type": "v1_p2tr",
      "scriptpubkey_address": "bc1pw49r0dg7my6ghl2gnwzadfeen2493g9wc8zq7e33g72vc9tz9j9scvr55g",
      "value": 43111
    }
  ],
  "size": 312,
  "weight": 846,
  "fee": 3173,
  "status": {
    "confirmed": true,
    "block_height": 834460,
    "block_hash": "00000000000000000000484a79b643b2524bbce82e5d8a442013fa5b8905ed98",
    "block_time": 1710307468
  },
  "hex": "020000000001021afc9d8722eaf566367fae5393d589e0bb001b75090b96393f17e185ce39e2ec0100000000ffffffff1d6d68f5dab43ee3c5be4efdf44258205e0774adf2997b713331196d759749090c00000000ffffffff02a08601000000000022512091458ac69f497b5a757ddb3e14e370913b95fc8f3bf7355f8f210fe20306d99167a8000000000000225120754a37b51ed9348bfd489b85d6a7399aaa58a0aec1c40f66314794cc15622c8b0140faf1808e8818f5bbacfcf756514a41c53585545acc3f779542d595b4d595d889549a9072cfb0ab55f4c5a07422cc45738ec055a865c44fb08131ab5e8bd4ef0e01409003dd93d813602036f37ddd9eb390dbfc272a19ed4008fb74d91cc3915b9709a1dbc7f538d40c9b2f4d89f8d112573c575890407f223adc7c389a8d842938d100000000"
}