{
  "txid": "0a5c0d0c89c25280910a9ba0b5c2340025d89a77ed0a990dc44eda3cd41e8225",
  "version": 2,
  "locktime": 0,
  "vin": [
    {
      "txid": "acc3ba00869acb582a3f2904ce3a11dd3779350ce234063fc7d0959246213364",
      "vout": 279,
      "prevout": {
        "scriptpubkey": "512016e9856f6eb08d5c7bcbbc0be4a23c2ea5c16f2082e7b036f18d7bf9a0f99ef7",
        "scriptpubkey_asm": "OP_PUSHNUM_1 OP_PUSHBYTES_32 16e9856f6eb08d5c7bcbbc0be4a23c2ea5c16f2082e7b036f18d7bf9a0f99ef7",
        "scriptpubkey_type": "v1_p2tr",
        "scriptpubkey_address": "bc1pzm5c2mmwkzx4c77ths97fg3u96juzmeqstnmqdh334alng8enmms3whf6q",
        "value": 1806
      },
      "scriptsig": "",
      "scriptsig_asm": "",
      "witness": [
        "517d06404477c8a50a0dde4a62ee7bcd05c9472cd3cd20e91fec1e35e9f6b002c125af750d2c4585aec68cba466638a203ff99b5620530088361705813a75f1f",
        "202642dfa45e6e37874a3944633917543838daf016f1f92567dc79f6d614e7474dac0063036f726401010a746578742f706c61696e00357b2270223a226272632d3230222c226f70223a226d696e74222c227469636b223a22646f6765222c22616d74223a2234323030227d68",
        "c12642dfa45e6e37874a3944633917543838daf016f1f92567dc79f6d614e7474d"
      ],
      "is_coinbase": false,
      "sequence": 4261412863
    }
  ],
  "vout": [
    {
      "scriptpubkey": "00147a665de7a370f4c9b372ab1fae587500a5bcbdb4",
      "scriptpubkey_asm": "OP_0 OP_PUSHBYTES_20 7a665de7a370f4c9b372ab1fae587500a5bcbdb4",
      "scriptpubkey_type": "v0_p2wpkh",
      "scriptpubkey_address": "bc1q0fn9mearwr6vnvmj4v06ukr4qzjme0d565dzcx",
      "value": 294
    }
  ],
  "size": 294,
  "weight": 540,
  "fee": 1512,
  "status": {
    "confirmed": true,
    "block_height": 834460,
    "block_hash": "00000000000000000000484a79b643b2524bbce82e5d8a442013fa5b8905ed98",
    "block_time": 1710307468
  },
  "hex": "02000000000101643321469295d0c73f0634e20c357937dd113ace04293f2a58cb9a8600bac3ac1701000000fffffffd0126010000000000001600147a665de7a370f4c9b372ab1fae587500a5bcbdb40340517d06404477c8a50a0dde4a62ee7bcd05c9472cd3cd20e91fec1e35e9f6b002c125af750d2c4585aec68cba466638a203ff99b5620530088361705813a75f1f6d202642dfa45e6e37874a3944633917543838daf016f1f92567dc79f6d614e7474dac0063036f726401010a746578742f706c61696e00357b2270223a226272632d3230222c226f70223a226d696e74222c227469636b223a22646f6765222c22616d74223a2234323030227d6821c12642dfa45e6e37874a3944633917543838daf016f1f92567dc79f6d614e7474d00000000"
}