{
  "txid": "0a8f5a644bfb2e88ca620f47b7cc3fb1b2ca4ffa1e7cad4f9c5e56c6c84d3959",
  "version": 2,
  "locktime": 0,
  "vin": [
    {
      "txid": "2615452f9bc4efa77ad62ea21c7ca25fe387f18f290747ccfb9ebc876f208e5c",
      "vout": 0,
      "prevout": {
        "scriptpubkey": "5120426c88094861f04aab106a513e6426a2150dbc919c318666f20ca7961ca57877",
        "scriptpubkey_asm": "OP_PUSHNUM_1 OP_PUSHBYTES_32 426c88094861f04aab106a513e6426a2150dbc919c318666f20ca7961ca57877",
        "scriptpubkey_type": "v1_p2tr",
        "scriptpubkey_address": "bc1pgfkgsz2gv8cy42csdfgnuepx5g2sm0y3nsccvehjpjnev8990pms7jp9n5",
        "value": 2114
      },
      "scriptsig": "",
      "scriptsig_asm": "",
      "witness": [
        "760612293e817203e0188765a2395e7a7ba6f960cdbbc702be15370baff3589847a2c3c166913bf8dbaa6df60bc7a73cf2f0a9e0ef8f5dacb01bef0d0011a225"
      ],
      "is_coinbase": false,
      "sequence": 4294967295
    }
  ],
  "vout": [
    {
      "scriptpubkey": "5120447e236f855eeb407fe727ba61dcbe14a8c8bb8c3a4fe7e55d2d16a392534b49",
      "scriptpubkey_asm": "OP_PUSHNUM_1 OP_PUSHBYTES_32 447e236f855eeb407fe727ba61dcbe14a8c8bb8c3a4fe7e55d2d16a392534b49",
      "scriptpubkey_type": "v1_p2tr",
      "scriptpubkey_address": "bc1pg3lzxmu9tm45qll8y7axrh97zj5v3wuv8f870e2a95t28yjnfdyslekx9g",
      "value": 546
    }
  ],
  "size": 162,
  "weight": 444,
  "fee": 1568,
  "status": {
    "confirmed": true,
    "block_height": 834638,
    "block_hash": "000000000000000000025f742c626208ac87e0b7d15054abb4a19ca2d735a54e",
    "block_time": 1710405325
  },
  "hex": "020000000001015c8e206f87bc9efbcc4707298ff187e35fa27c1ca22ed67aa7efc49b2f4515260000000000ffffffff012202000000000000225120447e236f855eeb407fe727ba61dcbe14a8c8bb8c3a4fe7e55d2d16a392534b490140760612293e817203e0188765a2395e7a7ba6f960cdbbc702be15370baff3589847a2c3c166913bf8dbaa6df60bc7a73cf2f0a9e0ef8f5dacb01bef0d0011a22500000000"
}