{
  "txid": "0aa1c75311a5fd663420146c5693d08d44aae832d7a1623b25650cd82e802cd0",
  "version": 2,
  "locktime": 0,
  "vin": [
    {
      "txid": "c0c274eeed0237dfdf6b9f3659008c8e8ab2c08a753bd97f6ffb3143eff6aef1",
      "vout": 4,
      "prevout": {
        "scriptpubkey": "5120798c2972fd3f1e2756f7172a00823183bba722a59a4bd77c8c84a8692aa9d4be",
        "scriptpubkey_asm": "OP_PUSHNUM_1 OP_PUSHBYTES_32 798c2972fd3f1e2756f7172a00823183bba722a59a4bd77c8c84a8692aa9d4be",
        "scriptpubkey_type": "v1_p2tr",
        "scriptpubkey_address": "bc1p0xxzjuha8u0zw4hhzu4qpq33swa6wg49nf9awlyvsj5xj24f6jlq50p0a0",
        "value": 600
      },
      "scriptsig": "",
      "scriptsig_asm": "",
      "witness": [
        "b01e73b9f00b48073ab6d3fe5b991d965cc24ae6976dfd22f7d669d2b7d1e896d50865cc1829c6a149149e5dde5a1222fc93fc1c906823e7397a29f5a3a5ee9a"
      ],
      "is_coinbase": false,
      "sequence": 4294967295
    },
    {
      "txid": "c0c274eeed0237dfdf6b9f3659008c8e8ab2c08a753bd97f6ffb3143eff6aef1",
      "vout": 3,
      "prevout": {
        "scriptpubkey": "5120798c2972fd3f1e2756f7172a00823183bba722a59a4bd77c8c84a8692aa9d4be",
        "scriptpubkey_asm": "OP_PUSHNUM_1 OP_PUSHBYTES_32 798c2972fd3f1e2756f7172a00823183bba722a59a4bd77c8c84a8692aa9d4be",
        "scriptpubkey_type": "v1_p2tr",
        "scriptpubkey_address": "bc1p0xxzjuha8u0zw4hhzu4qpq33swa6wg49nf9awlyvsj5xj24f6jlq50p0a0",
        "value": 600
      },
      "scriptsig": "",
      "scriptsig_asm": "",
      "witness": [
        "3ba8486aa73b7acede5f07afb38218ff3c7ba0b7abdc03c3a333fa8c6a4d2cd71818e3bbe6ea00bd1cebebf0157fb2db5cc8cb111c38714e56d855d54133fd18"
      ],
      "is_coinbase": false,
      "sequence": 4294967295
    },
    {
      "txid": "bc740cd988eb9fbbdd75346a82ff7e623cbb8530ebc3555e3b08fba5112c3464",
      "vout": 0,
      "prevout": {
        "scriptpubkey": "5120817c9c61f5af72284d3caf6db20debfded7938e5a5dadbfe1e48ed91a45449b8",
        "scriptpubkey_asm": "OP_PUSHNUM_1 OP_PUSHBYTES_32 817c9c61f5af72284d3caf6db20debfded7938e5a5dadbfe1e48ed91a45449b8",
        "scriptpubkey_type": "v1_p2tr",
        "scriptpubkey_address": "bc1ps97fcc044aezsnfu4akmyr0tlhkhjw895hddhls7frkerfz5fxuqr76f9m",
        "value": 546
      },
      "scriptsig": "",
      "scriptsig_asm": "",
      "witness": [
        "aa5ac1da1943d569990ce9dcad53311129c54ef928f9c91ea84681cd81757456ef076dfc1b4654c36e805e213c6ef04031edc4e7acab2cbeaa7b7f5f51f18b6783"
      ],
      "is_coinbase": false,
      "sequence": 4294967295
    },
    {
      "txid": "c0c274eeed0237dfdf6b9f3659008c8e8ab2c08a753bd97f6ffb3143eff6aef1",
      "vout": 5,
      "prevout": {
        "scriptpubkey": "5120798c2972fd3f1e2756f7172a00823183bba722a59a4bd77c8c84a8692aa9d4be",
        "scriptpubkey_asm": "OP_PUSHNUM_1 OP_PUSHBYTES_32 798c2972fd3f1e2756f7172a00823183bba722a59a4bd77c8c84a8692aa9d4be",
        "scriptpubkey_type": "v1_p2tr",
        "scriptpubkey_address": "bc1p0xxzjuha8u0zw4hhzu4qpq33swa6wg49nf9awlyvsj5xj24f6jlq50p0a0",
        "value": 17266004
      },
      "scriptsig": "",
      "scriptsig_asm": "",
      "witness": [
        "7352d6a0d541d175f23611ebcf90cef05260d03460a316936ebebd4652055282aa0555e8385b50067a33d9b548bb4f53142841022aa2d388c0254a808d3b2808"
      ],
      "is_coinbase": false,
      "sequence": 4294967295
    }
  ],
  "vout": [
    {
      "scriptpubkey": "5120798c2972fd3f1e2756f7172a00823183bba722a59a4bd77c8c84a8692aa9d4be",
      "scriptpubkey_asm": "OP_PUSHNUM_1 OP_PUSHBYTES_32 798c2972fd3f1e2756f7172a00823183bba722a59a4bd77c8c84a8692aa9d4be",
      "scriptpubkey_type": "v1_p2tr",
      "scriptpubkey_address": "bc1p0xxzjuha8u0zw4hhzu4qpq33swa6wg49nf9awlyvsj5xj24f6jlq50p0a0",
      "value": 1200
    },
    {
      "scriptpubkey": "5120798c2972fd3f1e2756f7172a00823183bba722a59a4bd77c8c84a8692aa9d4be",
      "scriptpubkey_asm": "OP_PUSHNUM_1 OP_PUSHBYTES_32 798c2972fd3f1e2756f7172a00823183bba722a59a4bd77c8c84a8692aa9d4be",
      "scriptpubkey_type": "v1_p2tr",
      "scriptpubkey_address": "bc1p0xxzjuha8u0zw4hhzu4qpq33swa6wg49nf9awlyvsj5xj24f6jlq50p0a0",
      "value": 546
    },
    {
      "scriptpubkey": "5120817c9c61f5af72284d3caf6db20debfded7938e5a5dadbfe1e48ed91a45449b8",
      "scriptpubkey_asm": "OP_PUSHNUM_1 OP_PUSHBYTES_32 817c9c61f5af72284d3caf6db20debfded7938e5a5dadbfe1e48ed91a45449b8",
      "scriptpubkey_type": "v1_p2tr",
      "scriptpubkey_address": "bc1ps97fcc044aezsnfu4akmyr0tlhkhjw895hddhls7frkerfz5fxuqr76f9m",
      "value": 959400
    },
    {
      "scriptpubkey": "5120798c2972fd3f1e2756f7172a00823183bba722a59a4bd77c8c84a8692aa9d4be",
      "scriptpubkey_asm": "OP_PUSHNUM_1 OP_PUSHBYTES_32 798c2972fd3f1e2756f7172a00823183bba722a59a4bd77c8c84a8692aa9d4be",
      "scriptpubkey_type": "v1_p2tr",
      "scriptpubkey_address": "bc1p0xxzjuha8u0zw4hhzu4qpq33swa6wg49nf9awlyvsj5xj24f6jlq50p0a0",
      "value": 600
    },
    {
      "scriptpubkey": "5120798c2972fd3f1e2756f7172a00823183bba722a59a4bd77c8c84a8692aa9d4be",
      "scriptpubkey_asm": "OP_PUSHNUM_1 OP_PUSHBYTES_32 798c2972fd3f1e2756f7172a00823183bba722a59a4bd77c8c84a8692aa9d4be",
      "scriptpubkey_type": "v1_p2tr",
      "scriptpubkey_address": "bc1p0xxzjuha8u0zw4hhzu4qpq33swa6wg49nf9awlyvsj5xj24f6jlq50p0a0",
      "value": 600
    },
    {
      "scriptpubkey": "5120798c2972fd3f1e2756f7172a00823183bba722a59a4bd77c8c84a8692aa9d4be",
      "scriptpubkey_asm": "OP_PUSHNUM_1 OP_PUSHBYTES_32 798c2972fd3f1e2756f7172a00823183bba722a59a4bd77c8c84a8692aa9d4be",
      "scriptpubkey_type": "v1_p2tr",
      "scriptpubkey_address": "bc1p0xxzjuha8u0zw4hhzu4qpq33swa6wg49nf9awlyvsj5xj24f6jlq50p0a0",
      "value": 16296921
    }
  ],
  "size": 699,
  "weight": 1995,
  "fee": 8483,
  "status": {
    "confirmed": true,
    "block_height": 834638,
    "block_hash": "000000000000000000025f742c626208ac87e0b7d15054abb4a19ca2d735a54e",
    "block_time": 1710405325
  },
  "hex": "02000000000104f1aef6ef4331fb6f7fd93b758ac0b28a8e8c0059369f6bdfdf3702edee74c2c00400000000fffffffff1aef6ef4331fb6f7fd93b758ac0b28a8e8c0059369f6bdfdf3702edee74c2c00300000000ffffffff64342c11a5fb083b5e55c3eb3085bb3c627eff826a3475ddbb9feb88d90c74bc0000000000fffffffff1aef6ef4331fb6f7fd93b758ac0b28a8e8c0059369f6bdfdf3702edee74c2c00500000000ffffffff06b004000000000000225120798c2972fd3f1e2756f7172a00823183bba722a59a4bd77c8c84a8692aa9d4be2202000000000000225120798c2972fd3f1e2756f7172a00823183bba722a59a4bd77c8c84a8692aa9d4bea8a30e0000000000225120817c9c61f5af72284d3caf6db20debfded7938e5a5dadbfe1e48ed91a45449b85802000000000000225120798c2972fd3f1e2756f7172a00823183bba722a59a4bd77c8c84a8692aa9d4be5802000000000000225120798c2972fd3f1e2756f7172a00823183bba722a59a4bd77c8c84a8692aa9d4bed9abf80000000000225120798c2972fd3f1e2756f7172a00823183bba722a59a4bd77c8c84a8692aa9d4be0140b01e73b9f00b48073ab6d3fe5b991d965cc24ae6976dfd22f7d669d2b7d1e896d50865cc1829c6a149149e5dde5a1222fc93fc1c906823e7397a29f5a3a5ee9a01403ba8486aa73b7acede5f07afb38218ff3c7ba0b7abdc03c3a333fa8c6a4d2cd71818e3bbe6ea00bd1cebebf0157fb2db5cc8cb111c38714e56d855d54133fd180141aa5ac1da1943d569990ce9dcad53311129c54ef928f9c91ea84681cd81757456ef076dfc1b4654c36e805e213c6ef04031edc4e7acab2cbeaa7b7f5f51f18b678301407352d6a0d541d175f23611ebcf90cef05260d03460a316936ebebd4652055282aa0555e8385b50067a33d9b548bb4f53142841022aa2d388c0254a808d3b280800000000"
}