{
  "txid": "0aa93f6345036b0ee9e58f30106a531dae0a385a42e9a9d57551aaee5d228fab",
  "version": 2,
  "locktime": 0,
  "vin": [
    {
      "txid": "b4512b4a0c159a0146a3179446bbfa2bd58c2fcff0dac33316dbc1d5472a726b",
      "vout": 14,
      "prevout": {
        "scriptpubkey": "001442e75dfa77d46b22d8d633a46096d306f2f4a3f8",
        "scriptpubkey_asm": "OP_0 OP_PUSHBYTES_20 42e75dfa77d46b22d8d633a46096d306f2f4a3f8",
        "scriptpubkey_type": "v0_p2wpkh",
        "scriptpubkey_address": "bc1qgtn4m7nh634j9kxkxwjxp9knqme0fglc3y4wh0",
        "value": 81064
      },
      "scriptsig": "",
      "scriptsig_asm": "",
      "witness": [
        "3044022066855a831e48b4e911d15e534cb4887bd7e2795c3751685f6c5521cdf3b83fbb0220046bfdbc00842d5b3d967347568fd4d7116cd7cefdbbe7d6fc587c181f579d9201",
        "03d1b9af172164d4a7aaf13998cdf81e1a15bfac5765306122deec345a5bb0e80e"
      ],
      "is_coinbase": false,
      "sequence": 4294967293
    }
  ],
  "vout": [
    {
      "scriptpubkey": "76a91483959d4a144cdf2a4d72056ecf925bb688b029fc88ac",
      "scriptpubkey_asm": "OP_DUP OP_HASH160 OP_PUSHBYTES_20 83959d4a144cdf2a4d72056ecf925bb688b029fc OP_EQUALVERIFY OP_CHECKSIG",
      "scriptpubkey_type": "p2pkh",
      "scriptpubkey_address": "1CzkkXEp5aANJHr1YWS2z9wJ8HQmLVjkXL",
      "value": 79844
    }
  ],
  "size": 194,
  "weight": 449,
  "fee": 1220,
  "status": {
    "confirmed": true,
    "block_height": 834464,
    "block_hash": "0000000000000000000177a0869a911a2b65c9bdcd5a8bcb02b68f305bee848e",
    "block_time": 1710308296
  },
  "hex": "020000000001016b722a47d5c1db1633c3daf0cf2f8cd52bfabb469417a346019a150c4a2b51b40e00000000fdffffff01e4370100000000001976a91483959d4a144cdf2a4d72056ecf925bb688b029fc88ac02473044022066855a831e48b4e911d15e534cb4887bd7e2795c3751685f6c5521cdf3b83fbb0220046bfdbc00842d5b3d967347568fd4d7116cd7cefdbbe7d6fc587c181f579d92012103d1b9af172164d4a7aaf13998cdf81e1a15bfac5765306122deec345a5bb0e80e00000000"
}