{
  "txid": "0ab3728f08daf1918dbcfe3f866296a5a4b9bdc42c2b86a4cf624ba6196abd84",
  "version": 2,
  "locktime": 0,
  "vin": [
    {
      "txid": "3a66845dcaff290965a9e27db90277ae23ceda3369a906546738735964ccf0f5",
      "vout": 1,
      "prevout": {
        "scriptpubkey": "0014502fc586d0de574c6484df1e3cb56d13c7b81fd2",
        "scriptpubkey_asm": "OP_0 OP_PUSHBYTES_20 502fc586d0de574c6484df1e3cb56d13c7b81fd2",
        "scriptpubkey_type": "v0_p2wpkh",
        "scriptpubkey_address": "bc1q2qhutpksmet5ceyymu0redtdz0rms87j8au8w7",
        "value": 1828570
      },
      "scriptsig": "",
      "scriptsig_asm": "",
      "witness": [
        "30440220031192291c54f14761dc763b0a166b965b621aba5361d6783ceda0aae5269dfa022076f4ed0149ee13881289680352fc52bc3936b92e66d66b3f9127eb8adb8312e001",
        "02c44999fb68d99b09ecf772438e8853a1a5e464c6c396bbeb59267276734bf07b"
      ],
      "is_coinbase": false,
      "sequence": 0
    },
    {
      "txid": "1b3051664f1906cef5f65dc3d3c2983a394b4ad0ebcbbe43cea956a8c3c61d29",
      "vout": 0,
      "prevout": {
        "scriptpubkey": "00149946c30fba42d5cf51311475c0f019dfee60db83",
        "scriptpubkey_asm": "OP_0 OP_PUSHBYTES_20 9946c30fba42d5cf51311475c0f019dfee60db83",
        "scriptpubkey_type": "v0_p2wpkh",
        "scriptpubkey_address": "bc1qn9rvxra6gt2u75f3z36upuqemlhxpkur4rh02c",
        "value": 8825000
      },
      "scriptsig": "",
      "scriptsig_asm": "",
      "witness": [
        "3045022100ac3118670fd1cb1e8ee3e4d9e415ffe1958d97e8bd00586867dfb06bcdd8a1ab02201cfae9d0c199189d6042095b3f0d63bf63d5200c01ef92754a789f6e598a058e01",
        "03d6f5afcf98c56da51832f561818b737ac1d4f202935d847cb07aef3404dd456e"
      ],
      "is_coinbase": false,
      "sequence": 0
    }
  ],
  "vout": [
    {
      "scriptpubkey": "76a91422d9e0331780ee82ed9111e4f01907ffb6d804db88ac",
      "scriptpubkey_asm": "OP_DUP OP_HASH160 OP_PUSHBYTES_20 22d9e0331780ee82ed9111e4f01907ffb6d804db OP_EQUALVERIFY OP_CHECKSIG",
      "scriptpubkey_type": "p2pkh",
      "scriptpubkey_address": "14BGyoDQoFXxM5PEZQy8yXgadrJs5UF6Me",
      "value": 7000000
    },
    {
      "scriptpubkey": "00149dd08edbb829e3ded1536ab1000e944630c03ecb",
      "scriptpubkey_asm": "OP_0 OP_PUSHBYTES_20 9dd08edbb829e3ded1536ab1000e944630c03ecb",
      "scriptpubkey_type": "v0_p2wpkh",
      "scriptpubkey_address": "bc1qnhggakac983aa52nd2csqr55gccvq0ktxnzdv4",
      "value": 3649736
    }
  ],
  "size": 374,
  "weight": 845,
  "fee": 3834,
  "status": {
    "confirmed": true,
    "block_height": 834638,
    "block_hash": "000000000000000000025f742c626208ac87e0b7d15054abb4a19ca2d735a54e",
    "block_time": 1710405325
  },
  "hex": "02000000000102f5f0cc64597338675406a96933dace23ae7702b97de2a9650929ffca5d84663a010000000000000000291dc6c3a856a9ce43becbebd04a4b393a98c2d3c35df6f5ce06194f6651301b00000000000000000002c0cf6a00000000001976a91422d9e0331780ee82ed9111e4f01907ffb6d804db88acc8b03700000000001600149dd08edbb829e3ded1536ab1000e944630c03ecb024730440220031192291c54f14761dc763b0a166b965b621aba5361d6783ceda0aae5269dfa022076f4ed0149ee13881289680352fc52bc3936b92e66d66b3f9127eb8adb8312e0012102c44999fb68d99b09ecf772438e8853a1a5e464c6c396bbeb59267276734bf07b02483045022100ac3118670fd1cb1e8ee3e4d9e415ffe1958d97e8bd00586867dfb06bcdd8a1ab02201cfae9d0c199189d6042095b3f0d63bf63d5200c01ef92754a789f6e598a058e012103d6f5afcf98c56da51832f561818b737ac1d4f202935d847cb07aef3404dd456e00000000"
}