{
  "txid": "0acf2d678a416f19d7dcbca05c8ff935f0b66deb165e6bcd4adede640c803ab7",
  "version": 2,
  "locktime": 0,
  "vin": [
    {
      "txid": "d3d6df0a8569104d6656d561a0d4b88b90c6e919bc8d03b387eba2f308ab1c57",
      "vout": 104,
      "prevout": {
        "scriptpubkey": "001466a37f975ef66b8d3bcba76a76252fe7f542598d",
        "scriptpubkey_asm": "OP_0 OP_PUSHBYTES_20 66a37f975ef66b8d3bcba76a76252fe7f542598d",
        "scriptpubkey_type": "v0_p2wpkh",
        "scriptpubkey_address": "bc1qv63hl9677e4c6w7t5a48vff0ul65ykvdvuhg5w",
        "value": 129916
      },
      "scriptsig": "",
      "scriptsig_asm": "",
      "witness": [
        "3045022100a8632b3ffd621f1d086958e96e8be21cf4d903f1976f1b018ccfecd53e319c5c02204cb5e56b1f2e4b608952f193a413d0a325c62b7a82269fd6f43ecdc8737b03f501",
        "0314e2bf6772674c1c92db69eb1ca23ef274609a0e591cb819390086fe28e47260"
      ],
      "is_coinbase": false,
      "sequence": 4294967295
    }
  ],
  "vout": [
    {
      "scriptpubkey": "76a914b867e0e6ae3fbb1b626bc040a1f82d22a8585a0688ac",
      "scriptpubkey_asm": "OP_DUP OP_HASH160 OP_PUSHBYTES_20 b867e0e6ae3fbb1b626bc040a1f82d22a8585a06 OP_EQUALVERIFY OP_CHECKSIG",
      "scriptpubkey_type": "p2pkh",
      "scriptpubkey_address": "1Hp3muNLMwV5hUbbnigXpzXdWiTvBF83oo",
      "value": 122625
    }
  ],
  "size": 195,
  "weight": 450,
  "fee": 7291,
  "status": {
    "confirmed": true,
    "block_height": 834638,
    "block_hash": "000000000000000000025f742c626208ac87e0b7d15054abb4a19ca2d735a54e",
    "block_time": 1710405325
  },
  "hex": "02000000000101571cab08f3a2eb87b3038dbc19e9c6908bb8d4a061d556664d1069850adfd6d36800000000ffffffff0101df0100000000001976a914b867e0e6ae3fbb1b626bc040a1f82d22a8585a0688ac02483045022100a8632b3ffd621f1d086958e96e8be21cf4d903f1976f1b018ccfecd53e319c5c02204cb5e56b1f2e4b608952f193a413d0a325c62b7a82269fd6f43ecdc8737b03f501210314e2bf6772674c1c92db69eb1ca23ef274609a0e591cb819390086fe28e4726000000000"
}