{
  "txid": "0ad04c1cbefa43938b56ee53e4a9b0c55f96613988042927c5216c490a2e6dc0",
  "version": 1,
  "locktime": 0,
  "vin": [
    {
      "txid": "fbf4ee7a24bef74941b3a51f04a4c5d9e1e71b879a36b1ec07384f13613720e7",
      "vout": 2,
      "prevout": {
        "scriptpubkey": "76a9142d2bc4d0571d39759917a12ba2356f9ef28b627f88ac",
        "scriptpubkey_asm": "OP_DUP OP_HASH160 OP_PUSHBYTES_20 2d2bc4d0571d39759917a12ba2356f9ef28b627f OP_EQUALVERIFY OP_CHECKSIG",
        "scriptpubkey_type": "p2pkh",
        "scriptpubkey_address": "157qqk3iVBXx9geXCctaFwDgdpRa123B3n",
        "value": 9712
      },
      "scriptsig": "47304402206a3229a79fe7199ac9a960e2d0f76c04faa2c6ec0e57a34cdd9b8b5fedfb36f102202a9a5f1dcf9dc8181460dd7292b408e639a4a1e3fcda7d3d1f6e38933d280c760121034b8998645f7a42565b711badb92fd3b1cb58c4bfa1866bd0f2eeb9ca78c272ee",
      "scriptsig_asm": "OP_PUSHBYTES_71 304402206a3229a79fe7199ac9a960e2d0f76c04faa2c6ec0e57a34cdd9b8b5fedfb36f102202a9a5f1dcf9dc8181460dd7292b408e639a4a1e3fcda7d3d1f6e38933d280c7601 OP_PUSHBYTES_33 034b8998645f7a42565b711badb92fd3b1cb58c4bfa1866bd0f2eeb9ca78c272ee",
      "is_coinbase": false,
      "sequence": 4294967295
    },
    {
      "txid": "88cc4aadc36d08eaf1a114f016254fc4a4ae3eddda5ae7fffed9a589f663d20d",
      "vout": 1,
      "prevout": {
        "scriptpubkey": "76a9142d2bc4d0571d39759917a12ba2356f9ef28b627f88ac",
        "scriptpubkey_asm": "OP_DUP OP_HASH160 OP_PUSHBYTES_20 2d2bc4d0571d39759917a12ba2356f9ef28b627f OP_EQUALVERIFY OP_CHECKSIG",
        "scriptpubkey_type": "p2pkh",
        "scriptpubkey_address": "157qqk3iVBXx9geXCctaFwDgdpRa123B3n",
        "value": 3284
      },
      "scriptsig": "483045022100e2f03d39c1e55eddf046ceae96f852e426ae6ca4834b334fc3b5eaedb95b240702202611fe4b533e86703ed34bd13bd0c6fa6548582913b0141d5aeb7b49f225f61a0121034b8998645f7a42565b711badb92fd3b1cb58c4bfa1866bd0f2eeb9ca78c272ee",
      "scriptsig_asm": "OP_PUSHBYTES_72 3045022100e2f03d39c1e55eddf046ceae96f852e426ae6ca4834b334fc3b5eaedb95b240702202611fe4b533e86703ed34bd13bd0c6fa6548582913b0141d5aeb7b49f225f61a01 OP_PUSHBYTES_33 034b8998645f7a42565b711badb92fd3b1cb58c4bfa1866bd0f2eeb9ca78c272ee",
      "is_coinbase": false,
      "sequence": 4294967295
    },
    {
      "txid": "b7cf9a7ca6860a7312073e33661c209925b95fe9b44a093bda85c409d6532c2e",
      "vout": 1,
      "prevout": {
        "scriptpubkey": "76a9142d2bc4d0571d39759917a12ba2356f9ef28b627f88ac",
        "scriptpubkey_asm": "OP_DUP OP_HASH160 OP_PUSHBYTES_20 2d2bc4d0571d39759917a12ba2356f9ef28b627f OP_EQUALVERIFY OP_CHECKSIG",
        "scriptpubkey_type": "p2pkh",
        "scriptpubkey_address": "157qqk3iVBXx9geXCctaFwDgdpRa123B3n",
        "value": 7574
      },
      "scriptsig": "473044022057a4e5ac2815b7a9db7b03c019d4bf53f46affc70c5425cb95a71642fd7422ee022026585975608e966483884ef9f7191e027a19e00b46d3c25fdacf429a35920fea0121034b8998645f7a42565b711badb92fd3b1cb58c4bfa1866bd0f2eeb9ca78c272ee",
      "scriptsig_asm": "OP_PUSHBYTES_71 3044022057a4e5ac2815b7a9db7b03c019d4bf53f46affc70c5425cb95a71642fd7422ee022026585975608e966483884ef9f7191e027a19e00b46d3c25fdacf429a35920fea01 OP_PUSHBYTES_33 034b8998645f7a42565b711badb92fd3b1cb58c4bfa1866bd0f2eeb9ca78c272ee",
      "is_coinbase": false,
      "sequence": 4294967295
    }
  ],
  "vout": [
    {
      "scriptpubkey": "76a91458c2b00463618e3044b5ebade2a0f27b561600a988ac",
      "scriptpubkey_asm": "OP_DUP OP_HASH160 OP_PUSHBYTES_20 58c2b00463618e3044b5ebade2a0f27b561600a9 OP_EQUALVERIFY OP_CHECKSIG",
      "scriptpubkey_type": "p2pkh",
      "scriptpubkey_address": "196Kh1buRsjuFnLogCY3VWczrkKJ76x9N3",
      "value": 15350
    }
  ],
  "size": 486,
  "weight": 1944,
  "fee": 5220,
  "status": {
    "confirmed": true,
    "block_height": 834464,
    "block_hash": "0000000000000000000177a0869a911a2b65c9bdcd5a8bcb02b68f305bee848e",
    "block_time": 1710308296
  },
  "hex": "0100000003e7203761134f3807ecb1369a871be7e1d9c5a4041fa5b34149f7be247aeef4fb020000006a47304402206a3229a79fe7199ac9a960e2d0f76c04faa2c6ec0e57a34cdd9b8b5fedfb36f102202a9a5f1dcf9dc8181460dd7292b408e639a4a1e3fcda7d3d1f6e38933d280c760121034b8998645f7a42565b711badb92fd3b1cb58c4bfa1866bd0f2eeb9ca78c272eeffffffff0dd263f689a5d9feffe75adadd3eaea4c44f2516f014a1f1ea086dc3ad4acc88010000006b483045022100e2f03d39c1e55eddf046ceae96f852e426ae6ca4834b334fc3b5eaedb95b240702202611fe4b533e86703ed34bd13bd0c6fa6548582913b0141d5aeb7b49f225f61a0121034b8998645f7a42565b711badb92fd3b1cb58c4bfa1866bd0f2eeb9ca78c272eeffffffff2e2c53d609c485da3b094ab4e95fb92599201c66333e0712730a86a67c9acfb7010000006a473044022057a4e5ac2815b7a9db7b03c019d4bf53f46affc70c5425cb95a71642fd7422ee022026585975608e966483884ef9f7191e027a19e00b46d3c25fdacf429a35920fea0121034b8998645f7a42565b711badb92fd3b1cb58c4bfa1866bd0f2eeb9ca78c272eeffffffff01f63b0000000000001976a91458c2b00463618e3044b5ebade2a0f27b561600a988ac00000000"
}