{
  "txid": "0ad82719c5568c4acd81b83e609db57306639901211bd5a5b68a6fc3de4e1473",
  "version": 2,
  "locktime": 0,
  "vin": [
    {
      "txid": "45130b6df4c7bd7a8c4ae3d98958703a2caf9859c6b4f50d449cfc14970369e3",
      "vout": 0,
      "prevout": {
        "scriptpubkey": "5120d481dd4bb4e172ce3bec41884c45157f5494a828b3105cca04bba99f8cf2a587",
        "scriptpubkey_asm": "OP_PUSHNUM_1 OP_PUSHBYTES_32 d481dd4bb4e172ce3bec41884c45157f5494a828b3105cca04bba99f8cf2a587",
        "scriptpubkey_type": "v1_p2tr",
        "scriptpubkey_address": "bc1p6jqa6ja5u9evuwlvgxyyc3g40a2ff2pgkvg9ejsyhw5elr8j5krsd9zxsw",
        "value": 71000
      },
      "scriptsig": "",
      "scriptsig_asm": "",
      "witness": [
        "9146a6bbbe35750df8176ef9ea0361305d67ce9fb42b351b128e3a441accbcd28b61e3a1b1d8cfe481cf84dfdf848ce496bde4bb7ee5aa1ec818d8ecf2f3c8ae",
        "2094e1af689ea75226720e757b0fcb445071140c8614cc5589429d796318facf3cac0063036f726401011e6170706c69636174696f6e2f6a736f6e3b636861727365743d7574662d38004cbf7b2270223a22706f772d3230222c226f70223a226d696e74222c227469636b223a2250455045222c22616d74223a2231303030222c22736f6c7574696f6e223a22504550453a6263317173637064736c337671777466366a733538786832307637717775716839336e777737783763793a303030303030303030303030303030303030303139393431613561653132383937363539383134343239323533333030353762306461393666336465613163353a3436393934323337393233227d68",
        "c0962df30d9be27fcd73fd9a4053b3728334e273f9929aba028483b2e810075667"
      ],
      "is_coinbase": false,
      "sequence": 4294967293
    }
  ],
  "vout": [
    {
      "scriptpubkey": "00148602d87e2c03969d4a1439aea7b3c0770172c66e",
      "scriptpubkey_asm": "OP_0 OP_PUSHBYTES_20 8602d87e2c03969d4a1439aea7b3c0770172c66e",
      "scriptpubkey_type": "v0_p2wpkh",
      "scriptpubkey_address": "bc1qscpdsl3vqwtf6js58xh20v7qwuqh93nww7x7cy",
      "value": 546
    },
    {
      "scriptpubkey": "51206ea4d7fee09c9787ccb471f7d5b4574052ecca795f73b4e9e4cf8022835a9806",
      "scriptpubkey_asm": "OP_PUSHNUM_1 OP_PUSHBYTES_32 6ea4d7fee09c9787ccb471f7d5b4574052ecca795f73b4e9e4cf8022835a9806",
      "scriptpubkey_type": "v1_p2tr",
      "scriptpubkey_address": "bc1pd6jd0lhqnjtc0n95w8matdzhgpfwejnetaemf60ye7qz9q66nqrq3rn6zw",
      "value": 2834
    },
    {
      "scriptpubkey": "51207b6558129e2d68d30a20b683edfeb0d9b626ba587577c84d0a22c79649773580",
      "scriptpubkey_asm": "OP_PUSHNUM_1 OP_PUSHBYTES_32 7b6558129e2d68d30a20b683edfeb0d9b626ba587577c84d0a22c79649773580",
      "scriptpubkey_type": "v1_p2tr",
      "scriptpubkey_address": "bc1p0dj4sy57945dxz3qk6p7ml4smxmzdwjcw4musng2ytrevjthxkqq6l6p67",
      "value": 2834
    },
    {
      "scriptpubkey": "5120cd47d5c737e894b28b363936aebf7612a8ed8b746a9eac9519b8e8a75cb6de54",
      "scriptpubkey_asm": "OP_PUSHNUM_1 OP_PUSHBYTES_32 cd47d5c737e894b28b363936aebf7612a8ed8b746a9eac9519b8e8a75cb6de54",
      "scriptpubkey_type": "v1_p2tr",
      "scriptpubkey_address": "bc1pe4rat3ehaz2t9zek8ym2a0mkz25wmzm5d202e9gehr52wh9kme2q208syk",
      "value": 2834
    },
    {
      "scriptpubkey": "51203871ff8d7f0aa9dd06a5a6b991e7cd1794e1ac9e9f535be45b585bda6cc9736c",
      "scriptpubkey_asm": "OP_PUSHNUM_1 OP_PUSHBYTES_32 3871ff8d7f0aa9dd06a5a6b991e7cd1794e1ac9e9f535be45b585bda6cc9736c",
      "scriptpubkey_type": "v1_p2tr",
      "scriptpubkey_address": "bc1p8pcllrtlp25a6p4956uere7dz72wrty7naf4hezmtpda5mxfwdkqz95dtz",
      "value": 2834
    },
    {
      "scriptpubkey": "5120e4fe5e1b932f23b1305a5139525ce7610df5591461834458c34f40166bff88f2",
      "scriptpubkey_asm": "OP_PUSHNUM_1 OP_PUSHBYTES_32 e4fe5e1b932f23b1305a5139525ce7610df5591461834458c34f40166bff88f2",
      "scriptpubkey_type": "v1_p2tr",
      "scriptpubkey_address": "bc1punl9uxun9u3mzvz62yu4yh88vyxl2kg5vxp5gkxrfaqpv6ll3reqe5rddr",
      "value": 2834
    },
    {
      "scriptpubkey": "512052cc9b49312f0d9a5fbe41744851b68ff6d3d7d8b8ce32d9b03e79cf8140852d",
      "scriptpubkey_asm": "OP_PUSHNUM_1 OP_PUSHBYTES_32 52cc9b49312f0d9a5fbe41744851b68ff6d3d7d8b8ce32d9b03e79cf8140852d",
      "scriptpubkey_type": "v1_p2tr",
      "scriptpubkey_address": "bc1p2txfkjf39uxe5ha7g96ys5dk3lmd847chr8r9kds8euulq2qs5ksrf7472",
      "value": 2834
    },
    {
      "scriptpubkey": "5120d88130e7b107ca0ce797cbcf962bfbf1f9a34a10c63c7ffdcd7e5508d73f9e11",
      "scriptpubkey_asm": "OP_PUSHNUM_1 OP_PUSHBYTES_32 d88130e7b107ca0ce797cbcf962bfbf1f9a34a10c63c7ffdcd7e5508d73f9e11",
      "scriptpubkey_type": "v1_p2tr",
      "scriptpubkey_address": "bc1pmzqnpea3ql9qeeuhe08ev2lm78u6xjsscc78llwd0e2s34elncgs7vanaa",
      "value": 2834
    },
    {
      "scriptpubkey": "51202c5d0399ae52948c881041ae7e43fd9eac447595af9754bffee94a3fb78c9465",
      "scriptpubkey_asm": "OP_PUSHNUM_1 OP_PUSHBYTES_32 2c5d0399ae52948c881041ae7e43fd9eac447595af9754bffee94a3fb78c9465",
      "scriptpubkey_type": "v1_p2tr",
      "scriptpubkey_address": "bc1p93ws8xdw222gezqsgxh8uslan6kygav447t4f0l7a99rlduvj3jsgd9ztk",
      "value": 2834
    },
    {
      "scriptpubkey": "5120cdbab90fdf98c57f1cc03cc808966b621019a70cffaf84bea4d4b00ee7fe1c14",
      "scriptpubkey_asm": "OP_PUSHNUM_1 OP_PUSHBYTES_32 cdbab90fdf98c57f1cc03cc808966b621019a70cffaf84bea4d4b00ee7fe1c14",
      "scriptpubkey_type": "v1_p2tr",
      "scriptpubkey_address": "bc1pekatjr7lnrzh78xq8nyq39ntvggpnfcvl7hcf04y6jcqael7rs2qj35gwj",
      "value": 2834
    },
    {
      "scriptpubkey": "5120843a8875b689500566ce0be8284dc1b55e27d1f6281108aeb12f8c2de9d59e16",
      "scriptpubkey_asm": "OP_PUSHNUM_1 OP_PUSHBYTES_32 843a8875b689500566ce0be8284dc1b55e27d1f6281108aeb12f8c2de9d59e16",
      "scriptpubkey_type": "v1_p2tr",
      "scriptpubkey_address": "bc1pssagsadk39gq2ekwp05zsnwpk40z050k9qgs3t4397xzm6w4nctqgfny3l",
      "value": 2834
    },
    {
      "scriptpubkey": "5120479e89d8e6d5f9280a21a655007837695527d97def985a234924ac06f4bff151",
      "scriptpubkey_asm": "OP_PUSHNUM_1 OP_PUSHBYTES_32 479e89d8e6d5f9280a21a655007837695527d97def985a234924ac06f4bff151",
      "scriptpubkey_type": "v1_p2tr",
      "scriptpubkey_address": "bc1pg70gnk8x6hujsz3p5e2sq7phd92j0ktaa7v95g6fyjkqda9l79gsm3r3a7",
      "value": 2834
    },
    {
      "scriptpubkey": "5120368d70119b531820a595bfc1b22f0e206b8979dddcadbc4c848753f4f31531e3",
      "scriptpubkey_asm": "OP_PUSHNUM_1 OP_PUSHBYTES_32 368d70119b531820a595bfc1b22f0e206b8979dddcadbc4c848753f4f31531e3",
      "scriptpubkey_type": "v1_p2tr",
      "scriptpubkey_address": "bc1px6xhqyvm2vvzpfv4hlqmytcwyp4cj7wamjkmcnyysaflfuc4x83syccdzl",
      "value": 2834
    },
    {
      "scriptpubkey": "00149b4c65c5026d31efd16700034e273b5f11ca01b1",
      "scriptpubkey_asm": "OP_0 OP_PUSHBYTES_20 9b4c65c5026d31efd16700034e273b5f11ca01b1",
      "scriptpubkey_type": "v0_p2wpkh",
      "scriptpubkey_address": "bc1qndxxt3gzd5c7l5t8qqp5ufemtugu5qd3azklas",
      "value": 27047
    }
  ],
  "size": 1002,
  "weight": 2889,
  "fee": 9399,
  "status": {
    "confirmed": true,
    "block_height": 834460,
    "block_hash": "00000000000000000000484a79b643b2524bbce82e5d8a442013fa5b8905ed98",
    "block_time": 1710307468
  },
  "hex": "02000000000101e369039714fc9c440df5b4c65998af2c3a705889d9e34a8c7abdc7f46d0b13450000000000fdffffff0e22020000000000001600148602d87e2c03969d4a1439aea7b3c0770172c66e120b0000000000002251206ea4d7fee09c9787ccb471f7d5b4574052ecca795f73b4e9e4cf8022835a9806120b0000000000002251207b6558129e2d68d30a20b683edfeb0d9b626ba587577c84d0a22c79649773580120b000000000000225120cd47d5c737e894b28b363936aebf7612a8ed8b746a9eac9519b8e8a75cb6de54120b0000000000002251203871ff8d7f0aa9dd06a5a6b991e7cd1794e1ac9e9f535be45b585bda6cc9736c120b000000000000225120e4fe5e1b932f23b1305a5139525ce7610df5591461834458c34f40166bff88f2120b00000000000022512052cc9b49312f0d9a5fbe41744851b68ff6d3d7d8b8ce32d9b03e79cf8140852d120b000000000000225120d88130e7b107ca0ce797cbcf962bfbf1f9a34a10c63c7ffdcd7e5508d73f9e11120b0000000000002251202c5d0399ae52948c881041ae7e43fd9eac447595af9754bffee94a3fb78c9465120b000000000000225120cdbab90fdf98c57f1cc03cc808966b621019a70cffaf84bea4d4b00ee7fe1c14120b000000000000225120843a8875b689500566ce0be8284dc1b55e27d1f6281108aeb12f8c2de9d59e16120b000000000000225120479e89d8e6d5f9280a21a655007837695527d97def985a234924ac06f4bff151120b000000000000225120368d70119b531820a595bfc1b22f0e206b8979dddcadbc4c848753f4f31531e3a7690000000000001600149b4c65c5026d31efd16700034e273b5f11ca01b103409146a6bbbe35750df8176ef9ea0361305d67ce9fb42b351b128e3a441accbcd28b61e3a1b1d8cfe481cf84dfdf848ce496bde4bb7ee5aa1ec818d8ecf2f3c8aefd0c012094e1af689ea75226720e757b0fcb445071140c8614cc5589429d796318facf3cac0063036f726401011e6170706c69636174696f6e2f6a736f6e3b636861727365743d7574662d38004cbf7b2270223a22706f772d3230222c226f70223a226d696e74222c227469636b223a2250455045222c22616d74223a2231303030222c22736f6c7574696f6e223a22504550453a6263317173637064736c337671777466366a733538786832307637717775716839336e777737783763793a303030303030303030303030303030303030303139393431613561653132383937363539383134343239323533333030353762306461393666336465613163353a3436393934323337393233227d6821c0962df30d9be27fcd73fd9a4053b3728334e273f9929aba028483b2e81007566700000000"
}