{
  "txid": "0adb5b155f7420324d89de01c624f2e2d77fa826fb6ead3c3ab105f37c57759c",
  "version": 2,
  "locktime": 834458,
  "vin": [
    {
      "txid": "274fe0023c53cc32752c0353d7899100fa42b2b3b4a60d81e36c0ec534ed3ce0",
      "vout": 0,
      "prevout": {
        "scriptpubkey": "76a914fd9d88330c35ecde0bec0d108491d2987b1f271688ac",
        "scriptpubkey_asm": "OP_DUP OP_HASH160 OP_PUSHBYTES_20 fd9d88330c35ecde0bec0d108491d2987b1f2716 OP_EQUALVERIFY OP_CHECKSIG",
        "scriptpubkey_type": "p2pkh",
        "scriptpubkey_address": "1Q7zg3vPd6TeWTALgxpQNiDrDgadVQXJz5",
        "value": 6672878
      },
      "scriptsig": "473044022028b3702260742bfa32c8ef48b79253a25e4556d74c687520fa512c469fbb2ea6022027aa57e27ff535fd03411cf40b97145d7deda0f4ca9f4d6151afc4b9c47d63f8012102007f8b836e04a6d57fbedaa00df1506611217ef88f37a056f8e6bf8872b293b4",
      "scriptsig_asm": "OP_PUSHBYTES_71 3044022028b3702260742bfa32c8ef48b79253a25e4556d74c687520fa512c469fbb2ea6022027aa57e27ff535fd03411cf40b97145d7deda0f4ca9f4d6151afc4b9c47d63f801 OP_PUSHBYTES_33 02007f8b836e04a6d57fbedaa00df1506611217ef88f37a056f8e6bf8872b293b4",
      "is_coinbase": false,
      "sequence": 4294967293
    },
    {
      "txid": "fd99dd7c4f85ddabd26b07c81aaabd5ec2b870368913d653520e3e4610e36fab",
      "vout": 1,
      "prevout": {
        "scriptpubkey": "76a914890c1796826410fbb4a1aa9cdbb33f83d40513e088ac",
        "scriptpubkey_asm": "OP_DUP OP_HASH160 OP_PUSHBYTES_20 890c1796826410fbb4a1aa9cdbb33f83d40513e0 OP_EQUALVERIFY OP_CHECKSIG",
        "scriptpubkey_type": "p2pkh",
        "scriptpubkey_address": "1DVe4TXiiUR8d7F9Y74xP6xQD2E9QJTKpQ",
        "value": 8000000
      },
      "scriptsig": "47304402204bc919290dcaa63d6c597f73544fc9c536f568b978297d776cfd9900eb41977402205f052178b5cc39782e74afefbbbf65db43b42300e37e50d18dbb9c263a00c9ba0121021c315e354cd592f571952385285657f7d49d53a2327c82c25ae7df45b7432a44",
      "scriptsig_asm": "OP_PUSHBYTES_71 304402204bc919290dcaa63d6c597f73544fc9c536f568b978297d776cfd9900eb41977402205f052178b5cc39782e74afefbbbf65db43b42300e37e50d18dbb9c263a00c9ba01 OP_PUSHBYTES_33 021c315e354cd592f571952385285657f7d49d53a2327c82c25ae7df45b7432a44",
      "is_coinbase": false,
      "sequence": 4294967293
    }
  ],
  "vout": [
    {
      "scriptpubkey": "76a91413007dc1ffc3aac2bdd5e9256541a367c601079e88ac",
      "scriptpubkey_asm": "OP_DUP OP_HASH160 OP_PUSHBYTES_20 13007dc1ffc3aac2bdd5e9256541a367c601079e OP_EQUALVERIFY OP_CHECKSIG",
      "scriptpubkey_type": "p2pkh",
      "scriptpubkey_address": "12jURn4GBVrTNy3Eiqsn1AkC8AVYBcu8ZZ",
      "value": 4668000
    },
    {
      "scriptpubkey": "a91475937379be835ac36752e27eac3baa5c710fa78787",
      "scriptpubkey_asm": "OP_HASH160 OP_PUSHBYTES_20 75937379be835ac36752e27eac3baa5c710fa787 OP_EQUAL",
      "scriptpubkey_type": "p2sh",
      "scriptpubkey_address": "3CQhd4v3vCwREsjSA1yhLHP7YyVYMW2fCK",
      "value": 10000000
    }
  ],
  "size": 370,
  "weight": 1480,
  "fee": 4878,
  "status": {
    "confirmed": true,
    "block_height": 834460,
    "block_hash": "00000000000000000000484a79b643b2524bbce82e5d8a442013fa5b8905ed98",
    "block_time": 1710307468
  },
  "hex": "0200000002e03ced34c50e6ce3810da6b4b3b242fa009189d753032c7532cc533c02e04f27000000006a473044022028b3702260742bfa32c8ef48b79253a25e4556d74c687520fa512c469fbb2ea6022027aa57e27ff535fd03411cf40b97145d7deda0f4ca9f4d6151afc4b9c47d63f8012102007f8b836e04a6d57fbedaa00df1506611217ef88f37a056f8e6bf8872b293b4fdffffffab6fe310463e0e5253d613893670b8c25ebdaa1ac8076bd2abdd854f7cdd99fd010000006a47304402204bc919290dcaa63d6c597f73544fc9c536f568b978297d776cfd9900eb41977402205f052178b5cc39782e74afefbbbf65db43b42300e37e50d18dbb9c263a00c9ba0121021c315e354cd592f571952385285657f7d49d53a2327c82c25ae7df45b7432a44fdffffff02603a4700000000001976a91413007dc1ffc3aac2bdd5e9256541a367c601079e88ac809698000000000017a91475937379be835ac36752e27eac3baa5c710fa787879abb0c00"
}