{
  "txid": "0adc4a57d322771a90f93e7b907b6a3510c8065b162bdba54c6d0a9b7e9d1126",
  "version": 2,
  "locktime": 0,
  "vin": [
    {
      "txid": "3deb31dcad74d252d6113f441a4034cad34429abe0fa8a6ac76f0475051f7874",
      "vout": 1,
      "prevout": {
        "scriptpubkey": "5120ac289dbb03e52a0d0d5e6e007205f2590f6b801dc9910143044efcd504578f56",
        "scriptpubkey_asm": "OP_PUSHNUM_1 OP_PUSHBYTES_32 ac289dbb03e52a0d0d5e6e007205f2590f6b801dc9910143044efcd504578f56",
        "scriptpubkey_type": "v1_p2tr",
        "scriptpubkey_address": "bc1p4s5fmwcru54q6r27dcq8yp0jty8khqqaexgszscyfm7d2pzh3atq26ce9u",
        "value": 39873907
      },
      "scriptsig": "",
      "scriptsig_asm": "",
      "witness": [
        "9c505e0361ee58f18ccaf7d33ecd1d37566d773dea3ebc6ca47fdd070752aff5a1fc02f19bed961af19b2a293320d874e988f5198d6cc55febd433e306bcc0db"
      ],
      "is_coinbase": false,
      "sequence": 0
    }
  ],
  "vout": [
    {
      "scriptpubkey": "00209018d7253606c41974362b3ea3450c775d9437155735d249bf0677d88c456e59",
      "scriptpubkey_asm": "OP_0 OP_PUSHBYTES_32 9018d7253606c41974362b3ea3450c775d9437155735d249bf0677d88c456e59",
      "scriptpubkey_type": "v0_p2wsh",
      "scriptpubkey_address": "bc1qjqvdwffkqmzpjapk9vl2x3gvwawegdc42u6ayjdlqema3rz9devsjdhc2h",
      "value": 2050000
    },
    {
      "scriptpubkey": "5120a848947ad50255f6ff0f5c2c76964ccf9dea7ed4b3a5aedd90188084d337b8aa",
      "scriptpubkey_asm": "OP_PUSHNUM_1 OP_PUSHBYTES_32 a848947ad50255f6ff0f5c2c76964ccf9dea7ed4b3a5aedd90188084d337b8aa",
      "scriptpubkey_type": "v1_p2tr",
      "scriptpubkey_address": "bc1p4pyfg7k4qf2ldlc0tsk8d9jve7w75lk5kwj6ahvsrzqgf5ehhz4qp96raq",
      "value": 37821135
    }
  ],
  "size": 205,
  "weight": 616,
  "fee": 2772,
  "status": {
    "confirmed": true,
    "block_height": 834638,
    "block_hash": "000000000000000000025f742c626208ac87e0b7d15054abb4a19ca2d735a54e",
    "block_time": 1710405325
  },
  "hex": "0200000000010174781f0575046fc76a8afae0ab2944d3ca34401a443f11d652d274addc31eb3d01000000000000000002d0471f00000000002200209018d7253606c41974362b3ea3450c775d9437155735d249bf0677d88c456e59cf1a410200000000225120a848947ad50255f6ff0f5c2c76964ccf9dea7ed4b3a5aedd90188084d337b8aa01409c505e0361ee58f18ccaf7d33ecd1d37566d773dea3ebc6ca47fdd070752aff5a1fc02f19bed961af19b2a293320d874e988f5198d6cc55febd433e306bcc0db00000000"
}