{
  "txid": "0ade90373919230062ecf8844c7366dd462c83f40daa60398c873b37a7f9d56b",
  "version": 2,
  "locktime": 0,
  "vin": [
    {
      "txid": "1984280eda302433626f96e7716e240f903841abe95d945f9c93c4bc9ecc99c6",
      "vout": 4,
      "prevout": {
        "scriptpubkey": "00142882bbf1f11b0d7ed70161efcc242073cd32a871",
        "scriptpubkey_asm": "OP_0 OP_PUSHBYTES_20 2882bbf1f11b0d7ed70161efcc242073cd32a871",
        "scriptpubkey_type": "v0_p2wpkh",
        "scriptpubkey_address": "bc1q9zpthu03rvxha4cpv8hucfpqw0xn92r332d0tl",
        "value": 300
      },
      "scriptsig": "",
      "scriptsig_asm": "",
      "witness": [
        "30450221009230a8286119fa055b29a239b70dd8288ed74485c3de7905f4f70a3c1b45e09702200a36356c7f72233dc50a3e576b7b2952f842e4bd9ef0e3a28a4e195ed4d6744901",
        "02f7e74c72541e48e15ef6ac1c8c6de688c26da3fc69c8f60a30b33629948321b1"
      ],
      "is_coinbase": false,
      "sequence": 4294967295
    },
    {
      "txid": "1984280eda302433626f96e7716e240f903841abe95d945f9c93c4bc9ecc99c6",
      "vout": 5,
      "prevout": {
        "scriptpubkey": "00142882bbf1f11b0d7ed70161efcc242073cd32a871",
        "scriptpubkey_asm": "OP_0 OP_PUSHBYTES_20 2882bbf1f11b0d7ed70161efcc242073cd32a871",
        "scriptpubkey_type": "v0_p2wpkh",
        "scriptpubkey_address": "bc1q9zpthu03rvxha4cpv8hucfpqw0xn92r332d0tl",
        "value": 300
      },
      "scriptsig": "",
      "scriptsig_asm": "",
      "witness": [
        "3045022100c224a2aad3dcb58441bab5cacf38afae9b4f65f67fb5af85f31aa6013acf194f0220311ad0cd1ce4f2ead29df2b74bc498c612d162f8e9230c63b89261d18dca582401",
        "02f7e74c72541e48e15ef6ac1c8c6de688c26da3fc69c8f60a30b33629948321b1"
      ],
      "is_coinbase": false,
      "sequence": 4294967295
    },
    {
      "txid": "f5331da37bb4003bafe12d2fe670cf3c0b5a0fbd19b7aa67148848aed6f82220",
      "vout": 0,
      "prevout": {
        "scriptpubkey": "00140483c96213372a3e934f6cbdc195113c64241e69",
        "scriptpubkey_asm": "OP_0 OP_PUSHBYTES_20 0483c96213372a3e934f6cbdc195113c64241e69",
        "scriptpubkey_type": "v0_p2wpkh",
        "scriptpubkey_address": "bc1qqjpujcsnxu4ray60dj7ur9g383jzg8nfkwws9f",
        "value": 546
      },
      "scriptsig": "",
      "scriptsig_asm": "",
      "witness": [
        "304402200d5a705edf171eca1bff92021cf3cef33d3a5b11e69273d5a9e0945a1c33195602206281897e28964201d5106a6030645a62250e0d2a198cd33bb8e0b287130a2b4a83",
        "026ca53aa17e34f7bf35d4560c233f5159b7f63f5ca5e6fa4dacb3eff40f64207b"
      ],
      "is_coinbase": false,
      "sequence": 4294967295
    },
    {
      "txid": "556e25dac4300dae0211a6743d64e77da255e6696db68cd6dac5f7a139dee406",
      "vout": 1,
      "prevout": {
        "scriptpubkey": "001464debcabab6561222074005413447723a40e8e75",
        "scriptpubkey_asm": "OP_0 OP_PUSHBYTES_20 64debcabab6561222074005413447723a40e8e75",
        "scriptpubkey_type": "v0_p2wpkh",
        "scriptpubkey_address": "bc1qvn0te2atv4sjygr5qp2px3rhywjqarn43rmggj",
        "value": 35677
      },
      "scriptsig": "",
      "scriptsig_asm": "",
      "witness": [
        "304402204d09d3bacfaa7af5ce7811c036df084046e6ae5e6bef814a9d130982badccc1802202f8dfdc558587b7d7384beb6bbad3db6f3f3c20c1b4dc8e2bf9d51de0c5a412001",
        "021c309b1b8cb24ba40fa588f6362dd74dcb56c8b8275d1e89493cee38ecc3c78c"
      ],
      "is_coinbase": false,
      "sequence": 4294967295
    },
    {
      "txid": "1984280eda302433626f96e7716e240f903841abe95d945f9c93c4bc9ecc99c6",
      "vout": 0,
      "prevout": {
        "scriptpubkey": "00142882bbf1f11b0d7ed70161efcc242073cd32a871",
        "scriptpubkey_asm": "OP_0 OP_PUSHBYTES_20 2882bbf1f11b0d7ed70161efcc242073cd32a871",
        "scriptpubkey_type": "v0_p2wpkh",
        "scriptpubkey_address": "bc1q9zpthu03rvxha4cpv8hucfpqw0xn92r332d0tl",
        "value": 600
      },
      "scriptsig": "",
      "scriptsig_asm": "",
      "witness": [
        "3045022100f03f86a3a7e5229a8375a46546e30b9e8d3f4c4f702245e8d6829b3e4ab1563202201f2f7caa9b3b52799f68441e1f355ab5417c8b376284b279dbd8b5eff7d978d101",
        "02f7e74c72541e48e15ef6ac1c8c6de688c26da3fc69c8f60a30b33629948321b1"
      ],
      "is_coinbase": false,
      "sequence": 4294967295
    }
  ],
  "vout": [
    {
      "scriptpubkey": "00142882bbf1f11b0d7ed70161efcc242073cd32a871",
      "scriptpubkey_asm": "OP_0 OP_PUSHBYTES_20 2882bbf1f11b0d7ed70161efcc242073cd32a871",
      "scriptpubkey_type": "v0_p2wpkh",
      "scriptpubkey_address": "bc1q9zpthu03rvxha4cpv8hucfpqw0xn92r332d0tl",
      "value": 600
    },
    {
      "scriptpubkey": "001464debcabab6561222074005413447723a40e8e75",
      "scriptpubkey_asm": "OP_0 OP_PUSHBYTES_20 64debcabab6561222074005413447723a40e8e75",
      "scriptpubkey_type": "v0_p2wpkh",
      "scriptpubkey_address": "bc1qvn0te2atv4sjygr5qp2px3rhywjqarn43rmggj",
      "value": 546
    },
    {
      "scriptpubkey": "00140483c96213372a3e934f6cbdc195113c64241e69",
      "scriptpubkey_asm": "OP_0 OP_PUSHBYTES_20 0483c96213372a3e934f6cbdc195113c64241e69",
      "scriptpubkey_type": "v0_p2wpkh",
      "scriptpubkey_address": "bc1qqjpujcsnxu4ray60dj7ur9g383jzg8nfkwws9f",
      "value": 16000
    },
    {
      "scriptpubkey": "001464debcabab6561222074005413447723a40e8e75",
      "scriptpubkey_asm": "OP_0 OP_PUSHBYTES_20 64debcabab6561222074005413447723a40e8e75",
      "scriptpubkey_type": "v0_p2wpkh",
      "scriptpubkey_address": "bc1qvn0te2atv4sjygr5qp2px3rhywjqarn43rmggj",
      "value": 10296
    },
    {
      "scriptpubkey": "00142882bbf1f11b0d7ed70161efcc242073cd32a871",
      "scriptpubkey_asm": "OP_0 OP_PUSHBYTES_20 2882bbf1f11b0d7ed70161efcc242073cd32a871",
      "scriptpubkey_type": "v0_p2wpkh",
      "scriptpubkey_address": "bc1q9zpthu03rvxha4cpv8hucfpqw0xn92r332d0tl",
      "value": 300
    },
    {
      "scriptpubkey": "00142882bbf1f11b0d7ed70161efcc242073cd32a871",
      "scriptpubkey_asm": "OP_0 OP_PUSHBYTES_20 2882bbf1f11b0d7ed70161efcc242073cd32a871",
      "scriptpubkey_type": "v0_p2wpkh",
      "scriptpubkey_address": "bc1q9zpthu03rvxha4cpv8hucfpqw0xn92r332d0tl",
      "value": 300
    }
  ],
  "size": 941,
  "weight": 2144,
  "fee": 9381,
  "status": {
    "confirmed": true,
    "block_height": 834638,
    "block_hash": "000000000000000000025f742c626208ac87e0b7d15054abb4a19ca2d735a54e",
    "block_time": 1710405325
  },
  "hex": "02000000000105c699cc9ebcc4939c5f945de9ab4138900f246e71e7966f62332430da0e2884190400000000ffffffffc699cc9ebcc4939c5f945de9ab4138900f246e71e7966f62332430da0e2884190500000000ffffffff2022f8d6ae48881467aab719bd0f5a0b3ccf70e62f2de1af3b00b47ba31d33f50000000000ffffffff06e4de39a1f7c5dad68cb66d69e655a27de7643d74a61102ae0d30c4da256e550100000000ffffffffc699cc9ebcc4939c5f945de9ab4138900f246e71e7966f62332430da0e2884190000000000ffffffff0658020000000000001600142882bbf1f11b0d7ed70161efcc242073cd32a871220200000000000016001464debcabab6561222074005413447723a40e8e75803e0000000000001600140483c96213372a3e934f6cbdc195113c64241e69382800000000000016001464debcabab6561222074005413447723a40e8e752c010000000000001600142882bbf1f11b0d7ed70161efcc242073cd32a8712c010000000000001600142882bbf1f11b0d7ed70161efcc242073cd32a871024830450221009230a8286119fa055b29a239b70dd8288ed74485c3de7905f4f70a3c1b45e09702200a36356c7f72233dc50a3e576b7b2952f842e4bd9ef0e3a28a4e195ed4d67449012102f7e74c72541e48e15ef6ac1c8c6de688c26da3fc69c8f60a30b33629948321b102483045022100c224a2aad3dcb58441bab5cacf38afae9b4f65f67fb5af85f31aa6013acf194f0220311ad0cd1ce4f2ead29df2b74bc498c612d162f8e9230c63b89261d18dca5824012102f7e74c72541e48e15ef6ac1c8c6de688c26da3fc69c8f60a30b33629948321b10247304402200d5a705edf171eca1bff92021cf3cef33d3a5b11e69273d5a9e0945a1c33195602206281897e28964201d5106a6030645a62250e0d2a198cd33bb8e0b287130a2b4a8321026ca53aa17e34f7bf35d4560c233f5159b7f63f5ca5e6fa4dacb3eff40f64207b0247304402204d09d3bacfaa7af5ce7811c036df084046e6ae5e6bef814a9d130982badccc1802202f8dfdc558587b7d7384beb6bbad3db6f3f3c20c1b4dc8e2bf9d51de0c5a41200121021c309b1b8cb24ba40fa588f6362dd74dcb56c8b8275d1e89493cee38ecc3c78c02483045022100f03f86a3a7e5229a8375a46546e30b9e8d3f4c4f702245e8d6829b3e4ab1563202201f2f7caa9b3b52799f68441e1f355ab5417c8b376284b279dbd8b5eff7d978d1012102f7e74c72541e48e15ef6ac1c8c6de688c26da3fc69c8f60a30b33629948321b100000000"
}