{
  "txid": "0ae92afdd505bf969d05a70acab21640e31983c6d33bb0ca34e2831d7d5163a9",
  "version": 2,
  "locktime": 0,
  "vin": [
    {
      "txid": "4ee77778659dcfe8d7a4e15882fc6193f4f3d5f6607624e256337b44c2280af5",
      "vout": 67,
      "prevout": {
        "scriptpubkey": "5120edebc85e609bd14727b6c8b1f8ab6a7a8bfe0c1c6cf2523eb26aeea9dcbe2361",
        "scriptpubkey_asm": "OP_PUSHNUM_1 OP_PUSHBYTES_32 edebc85e609bd14727b6c8b1f8ab6a7a8bfe0c1c6cf2523eb26aeea9dcbe2361",
        "scriptpubkey_type": "v1_p2tr",
        "scriptpubkey_address": "bc1pah4ushnqn0g5wfakezcl32m2029lurqudne9y04jdth2nh97ydssa0urwk",
        "value": 2075
      },
      "scriptsig": "",
      "scriptsig_asm": "",
      "witness": [
        "a9e8e8cbdf8d214a1bf84c5536358db59e90b8f6519e0b45421430b77292ca2ecb7f675876bf504ad04dd91854c69db4b444c1f66fd4eaaa74e1d79d8e6b11fe",
        "20a34359b80be3c1f9bd0bf6403dcde56e52e1ed69e01c8654c157f5de78569cf1ac0063036f7264010118746578742f706c61696e3b636861727365743d7574662d3800357b2270223a224252432d313030222c226f70223a226d696e74222c227469636b223a22696e73222c22616d74223a2231303030227d68",
        "c1c50eac15d7d7889f5ad84f80015e8a209129aeea937c37fa4b8bc0f9be289730"
      ],
      "is_coinbase": false,
      "sequence": 4294967295
    }
  ],
  "vout": [
    {
      "scriptpubkey": "00143e2325412b554cacdd163a93a42204c4707f8851",
      "scriptpubkey_asm": "OP_0 OP_PUSHBYTES_20 3e2325412b554cacdd163a93a42204c4707f8851",
      "scriptpubkey_type": "v0_p2wpkh",
      "scriptpubkey_address": "bc1q8c3j2sft24x2ehgk82f6ggsyc3c8lzz3yw9wsu",
      "value": 546
    }
  ],
  "size": 308,
  "weight": 554,
  "fee": 1529,
  "status": {
    "confirmed": true,
    "block_height": 834464,
    "block_hash": "0000000000000000000177a0869a911a2b65c9bdcd5a8bcb02b68f305bee848e",
    "block_time": 1710308296
  },
  "hex": "02000000000101f50a28c2447b3356e2247660f6d5f3f49361fc8258e1a4d7e8cf9d657877e74e4300000000ffffffff0122020000000000001600143e2325412b554cacdd163a93a42204c4707f88510340a9e8e8cbdf8d214a1bf84c5536358db59e90b8f6519e0b45421430b77292ca2ecb7f675876bf504ad04dd91854c69db4b444c1f66fd4eaaa74e1d79d8e6b11fe7b20a34359b80be3c1f9bd0bf6403dcde56e52e1ed69e01c8654c157f5de78569cf1ac0063036f7264010118746578742f706c61696e3b636861727365743d7574662d3800357b2270223a224252432d313030222c226f70223a226d696e74222c227469636b223a22696e73222c22616d74223a2231303030227d6821c1c50eac15d7d7889f5ad84f80015e8a209129aeea937c37fa4b8bc0f9be28973000000000"
}