{
  "txid": "0b036dfcd54233607db0240ed765315133c90befe834949c470a7e132897c7e8",
  "version": 1,
  "locktime": 0,
  "vin": [
    {
      "txid": "5a0d08ae8ade511a90cd9473f33836684180574385879959cc33e17b682c16b2",
      "vout": 0,
      "prevout": {
        "scriptpubkey": "002082b4d1821bfb3e303130cefae904bd37634435fd627a474acf0c5d007e8674f4",
        "scriptpubkey_asm": "OP_0 OP_PUSHBYTES_32 82b4d1821bfb3e303130cefae904bd37634435fd627a474acf0c5d007e8674f4",
        "scriptpubkey_type": "v0_p2wsh",
        "scriptpubkey_address": "bc1qs26drqsmlvlrqvfsemawjp9axa35gd0avfaywjk0p3wsql5xwn6qptqshu",
        "value": 12472718
      },
      "scriptsig": "",
      "scriptsig_asm": "",
      "witness": [
        "",
        "304502210097c5b24ae6f0c010cb6ad0ac691e88a40a26444b0e0788811487a67eaf325708022054bde88fb3c8a475163ade4165b06be48b6cf71f43afc771563c270140aad9a201",
        "3044022035e3851f8bb347940c4aa20105f0cdbc6da71149448557370be78668b57c0ca1022007473484dac3de8bc2b4637225844a7de7f7ed8f6ac6e729c6226f8a236316f801",
        "5221032c3caa2af5c5c43f24143890bc5cfa52267c0cbaf5cc73f83eb1621339175b152103d19dcd021f73a1dcb669f5a9426a03294ce13f468d3d9904e3f14c665e16b5222103142ac69ec07d0f138bd0ccbed243229666be012fdd8764893fefefd2014ec5ad53ae"
      ],
      "is_coinbase": false,
      "sequence": 4294967295,
      "inner_witnessscript_asm": "OP_PUSHNUM_2 OP_PUSHBYTES_33 032c3caa2af5c5c43f24143890bc5cfa52267c0cbaf5cc73f83eb1621339175b15 OP_PUSHBYTES_33 03d19dcd021f73a1dcb669f5a9426a03294ce13f468d3d9904e3f14c665e16b522 OP_PUSHBYTES_33 03142ac69ec07d0f138bd0ccbed243229666be012fdd8764893fefefd2014ec5ad OP_PUSHNUM_3 OP_CHECKMULTISIG"
    }
  ],
  "vout": [
    {
      "scriptpubkey": "0014aa5195e7f06e7dafe455fbe55658f9b07a39960b",
      "scriptpubkey_asm": "OP_0 OP_PUSHBYTES_20 aa5195e7f06e7dafe455fbe55658f9b07a39960b",
      "scriptpubkey_type": "v0_p2wpkh",
      "scriptpubkey_address": "bc1q4fgetelsde76lez4l0j4vk8ekparn9stlgkkcj",
      "value": 1755759
    },
    {
      "scriptpubkey": "0020722461cc4cf4bd3f9d5ee0d21e7b115ca1fe1112677fd5f734e46cff9cfa927f",
      "scriptpubkey_asm": "OP_0 OP_PUSHBYTES_32 722461cc4cf4bd3f9d5ee0d21e7b115ca1fe1112677fd5f734e46cff9cfa927f",
      "scriptpubkey_type": "v0_p2wsh",
      "scriptpubkey_address": "bc1qwgjxrnzv7j7nl827urfpu7c3tjsluygjvalatae5u3k0l886jflsppkf74",
      "value": 10712779
    }
  ],
  "size": 380,
  "weight": 755,
  "fee": 4180,
  "status": {
    "confirmed": true,
    "block_height": 834638,
    "block_hash": "000000000000000000025f742c626208ac87e0b7d15054abb4a19ca2d735a54e",
    "block_time": 1710405325
  },
  "hex": "01000000000101b2162c687be133cc5999878543578041683638f37394cd901a51de8aae080d5a0000000000ffffffff026fca1a0000000000160014aa5195e7f06e7dafe455fbe55658f9b07a39960bcb76a30000000000220020722461cc4cf4bd3f9d5ee0d21e7b115ca1fe1112677fd5f734e46cff9cfa927f040048304502210097c5b24ae6f0c010cb6ad0ac691e88a40a26444b0e0788811487a67eaf325708022054bde88fb3c8a475163ade4165b06be48b6cf71f43afc771563c270140aad9a201473044022035e3851f8bb347940c4aa20105f0cdbc6da71149448557370be78668b57c0ca1022007473484dac3de8bc2b4637225844a7de7f7ed8f6ac6e729c6226f8a236316f801695221032c3caa2af5c5c43f24143890bc5cfa52267c0cbaf5cc73f83eb1621339175b152103d19dcd021f73a1dcb669f5a9426a03294ce13f468d3d9904e3f14c665e16b5222103142ac69ec07d0f138bd0ccbed243229666be012fdd8764893fefefd2014ec5ad53ae00000000"
}