{
  "txid": "0b097e47f264d3ca34718261b92242841ba9d21316c4eb682d54fd48e14d0fcb",
  "version": 2,
  "locktime": 0,
  "vin": [
    {
      "txid": "debd84083a78de4d390ed55e463e49bcc19c7c94bc4c10bd385e1eca71f07462",
      "vout": 0,
      "prevout": {
        "scriptpubkey": "76a914d805679ce11934e82059cc450de61a6301e1f84588ac",
        "scriptpubkey_asm": "OP_DUP OP_HASH160 OP_PUSHBYTES_20 d805679ce11934e82059cc450de61a6301e1f845 OP_EQUALVERIFY OP_CHECKSIG",
        "scriptpubkey_type": "p2pkh",
        "scriptpubkey_address": "1LhDRxrvvYrHB7tEGYMy5gpVtTZ1gZEPuN",
        "value": 836632
      },
      "scriptsig": "48304502210095174e35f8c3be04e7b1f1ca184cad1cce818a5b13715d300535031d569d7dfc02202c4487d1e67f7cfcdd109f138d6a75b7dd9c7c8517865b68c8f4cbbb85e01eaf01210235d2f43470db3518ed4d7bea8e94d946ff0759242624479041f2f05845f5c240",
      "scriptsig_asm": "OP_PUSHBYTES_72 304502210095174e35f8c3be04e7b1f1ca184cad1cce818a5b13715d300535031d569d7dfc02202c4487d1e67f7cfcdd109f138d6a75b7dd9c7c8517865b68c8f4cbbb85e01eaf01 OP_PUSHBYTES_33 0235d2f43470db3518ed4d7bea8e94d946ff0759242624479041f2f05845f5c240",
      "is_coinbase": false,
      "sequence": 4294967295
    }
  ],
  "vout": [
    {
      "scriptpubkey": "0014b01b8a58e40afeba109a2a476d2439896fcee362",
      "scriptpubkey_asm": "OP_0 OP_PUSHBYTES_20 b01b8a58e40afeba109a2a476d2439896fcee362",
      "scriptpubkey_type": "v0_p2wpkh",
      "scriptpubkey_address": "bc1qkqdc5k8yptlt5yy69frk6fpe39huacmzytjhlf",
      "value": 833752
    }
  ],
  "size": 189,
  "weight": 756,
  "fee": 2880,
  "status": {
    "confirmed": true,
    "block_height": 834638,
    "block_hash": "000000000000000000025f742c626208ac87e0b7d15054abb4a19ca2d735a54e",
    "block_time": 1710405325
  },
  "hex": "02000000016274f071ca1e5e38bd104cbc947c9cc1bc493e465ed50e394dde783a0884bdde000000006b48304502210095174e35f8c3be04e7b1f1ca184cad1cce818a5b13715d300535031d569d7dfc02202c4487d1e67f7cfcdd109f138d6a75b7dd9c7c8517865b68c8f4cbbb85e01eaf01210235d2f43470db3518ed4d7bea8e94d946ff0759242624479041f2f05845f5c240ffffffff01d8b80c0000000000160014b01b8a58e40afeba109a2a476d2439896fcee36200000000"
}