{
  "txid": "0b16db8e6c08f5ca6f2cd5de51281320bf5bb910ac6a1238f271152b9ade85e4",
  "version": 2,
  "locktime": 0,
  "vin": [
    {
      "txid": "a6a804cfecd8ebc2373c58b7fa342c366ce56a9133a10acf55be4e6994be4ef0",
      "vout": 1,
      "prevout": {
        "scriptpubkey": "0014f60834ef165253c571b11ce9fa74e46692fc5ec1",
        "scriptpubkey_asm": "OP_0 OP_PUSHBYTES_20 f60834ef165253c571b11ce9fa74e46692fc5ec1",
        "scriptpubkey_type": "v0_p2wpkh",
        "scriptpubkey_address": "bc1q7cyrfmck2ffu2ud3rn5l5a8yv6f0chkp0zpemf",
        "value": 567513983
      },
      "scriptsig": "",
      "scriptsig_asm": "",
      "witness": [
        "304402203b8c495cadd98df5c1d7886d9ac0256bca2303d4c6c1a3ef14f7ae58d5a1a9a002205ecd1629e96f9ccb5e41fee98c7b6c97830113d2e835eaf01ca47244dc5fca2c01",
        "026e5628506ecd33242e5ceb5fdafe4d3066b5c0f159b3c05a621ef65f177ea286"
      ],
      "is_coinbase": false,
      "sequence": 4294967293
    }
  ],
  "vout": [
    {
      "scriptpubkey": "0014f079199edef389bb34ed0c50c1bf0b65d5fa0a76",
      "scriptpubkey_asm": "OP_0 OP_PUSHBYTES_20 f079199edef389bb34ed0c50c1bf0b65d5fa0a76",
      "scriptpubkey_type": "v0_p2wpkh",
      "scriptpubkey_address": "bc1q7pu3n8k77wymkd8dp3gvr0ctvh2l5znker3y7a",
      "value": 881940
    },
    {
      "scriptpubkey": "0014f60834ef165253c571b11ce9fa74e46692fc5ec1",
      "scriptpubkey_asm": "OP_0 OP_PUSHBYTES_20 f60834ef165253c571b11ce9fa74e46692fc5ec1",
      "scriptpubkey_type": "v0_p2wpkh",
      "scriptpubkey_address": "bc1q7cyrfmck2ffu2ud3rn5l5a8yv6f0chkp0zpemf",
      "value": 566627147
    }
  ],
  "size": 222,
  "weight": 561,
  "fee": 4896,
  "status": {
    "confirmed": true,
    "block_height": 834638,
    "block_hash": "000000000000000000025f742c626208ac87e0b7d15054abb4a19ca2d735a54e",
    "block_time": 1710405325
  },
  "hex": "02000000000101f04ebe94694ebe55cf0aa133916ae56c362c34fab7583c37c2ebd8eccf04a8a60100000000fdffffff0214750d0000000000160014f079199edef389bb34ed0c50c1bf0b65d5fa0a764b0bc62100000000160014f60834ef165253c571b11ce9fa74e46692fc5ec10247304402203b8c495cadd98df5c1d7886d9ac0256bca2303d4c6c1a3ef14f7ae58d5a1a9a002205ecd1629e96f9ccb5e41fee98c7b6c97830113d2e835eaf01ca47244dc5fca2c0121026e5628506ecd33242e5ceb5fdafe4d3066b5c0f159b3c05a621ef65f177ea28600000000"
}