{
  "txid": "0b27656477bbf51496eef9545bae40975fc98e490073b813e5b87f4d2965e860",
  "version": 1,
  "locktime": 0,
  "vin": [
    {
      "txid": "6b954784b477b7afcae6ed062498aaa1727b5be1e2593088f9a35aaedb02fcc0",
      "vout": 2,
      "prevout": {
        "scriptpubkey": "0014929f5dc763d72e28e1437af70c4dde7447b2d2ed",
        "scriptpubkey_asm": "OP_0 OP_PUSHBYTES_20 929f5dc763d72e28e1437af70c4dde7447b2d2ed",
        "scriptpubkey_type": "v0_p2wpkh",
        "scriptpubkey_address": "bc1qj204m3mr6uhz3c2r0tmscnw7w3rm95hdwkmavv",
        "value": 56788
      },
      "scriptsig": "",
      "scriptsig_asm": "",
      "witness": [
        "3044022023727074f1ec1ea0af63cae6d78ae44f0cdb0c3971e9cd61697ee24de29001b50220311b292e0f64dc07cf25b48d40f77417aa30f2e4e3ca8d945e9a1e4275e381b801",
        "02ef9309422580de1faa4cf801267d67d40c7f6dd447e8ee440e5ecbb312aa2244"
      ],
      "is_coinbase": false,
      "sequence": 4294967295
    }
  ],
  "vout": [
    {
      "scriptpubkey": "001459b3f59ccc76e6c25f776f69713573bc59d7cd4b",
      "scriptpubkey_asm": "OP_0 OP_PUSHBYTES_20 59b3f59ccc76e6c25f776f69713573bc59d7cd4b",
      "scriptpubkey_type": "v0_p2wpkh",
      "scriptpubkey_address": "bc1qtxelt8xvwmnvyhmhda5hzdtnh3va0n2thz6afx",
      "value": 53818
    }
  ],
  "size": 191,
  "weight": 437,
  "fee": 2970,
  "status": {
    "confirmed": true,
    "block_height": 834638,
    "block_hash": "000000000000000000025f742c626208ac87e0b7d15054abb4a19ca2d735a54e",
    "block_time": 1710405325
  },
  "hex": "01000000000101c0fc02dbae5aa3f9883059e2e15b7b72a1aa982406ede6caafb777b48447956b0200000000ffffffff013ad200000000000016001459b3f59ccc76e6c25f776f69713573bc59d7cd4b02473044022023727074f1ec1ea0af63cae6d78ae44f0cdb0c3971e9cd61697ee24de29001b50220311b292e0f64dc07cf25b48d40f77417aa30f2e4e3ca8d945e9a1e4275e381b8012102ef9309422580de1faa4cf801267d67d40c7f6dd447e8ee440e5ecbb312aa224400000000"
}