{
  "txid": "0b2a83eda895580fcc35035178db700ee22fbe3d211dcca75be24dccfd9dba4d",
  "version": 2,
  "locktime": 834458,
  "vin": [
    {
      "txid": "9a1eaaceea5a3498105ccdc0d94a570cc06d9cc5647366a0a5a2fecef6f442d4",
      "vout": 0,
      "prevout": {
        "scriptpubkey": "0014036258927a8ee599dab01a9f1386414a6d62ff59",
        "scriptpubkey_asm": "OP_0 OP_PUSHBYTES_20 036258927a8ee599dab01a9f1386414a6d62ff59",
        "scriptpubkey_type": "v0_p2wpkh",
        "scriptpubkey_address": "bc1qqd393yn63mjenk4sr2038pjpffkk9l6e38jlmc",
        "value": 609
      },
      "scriptsig": "",
      "scriptsig_asm": "",
      "witness": [
        "30440220785c44166b8aa7d4a6f09dd3bdcdd664f589650e7600e13db674b87b2ec4a50f02205e528bab8b845239853296878b790d5f3e20654301a07261df8537b61ff8aefb01",
        "03da4f48d5533a002edf16deb982ccceea29c2e169104c56022d2e9a287fbceb4d"
      ],
      "is_coinbase": false,
      "sequence": 4294967293
    },
    {
      "txid": "706adbefcb66e6a8526c41966c40964ca94a99d01a944367252a65b92a7e48ac",
      "vout": 2,
      "prevout": {
        "scriptpubkey": "0014c2d73611434d23500f8502df4308dd7dbc27f13f",
        "scriptpubkey_asm": "OP_0 OP_PUSHBYTES_20 c2d73611434d23500f8502df4308dd7dbc27f13f",
        "scriptpubkey_type": "v0_p2wpkh",
        "scriptpubkey_address": "bc1qcttnvy2rf534qru9qt05xzxa0k7z0uflw4auwf",
        "value": 671970
      },
      "scriptsig": "",
      "scriptsig_asm": "",
      "witness": [
        "304402206f431764a73814ae3e442cf66110411dbc833a21f38dd42ec2ff027300f6d97d0220096fcb2fb1937e216629fb93db62c9653848d7c11c2f28ecafd3e46bed92f66101",
        "02ed65620597c1000b04222115df6a61a71b5eda7170ea89063f0789f64ebe6340"
      ],
      "is_coinbase": false,
      "sequence": 4294967293
    }
  ],
  "vout": [
    {
      "scriptpubkey": "0014036258927a8ee599dab01a9f1386414a6d62ff59",
      "scriptpubkey_asm": "OP_0 OP_PUSHBYTES_20 036258927a8ee599dab01a9f1386414a6d62ff59",
      "scriptpubkey_type": "v0_p2wpkh",
      "scriptpubkey_address": "bc1qqd393yn63mjenk4sr2038pjpffkk9l6e38jlmc",
      "value": 608
    },
    {
      "scriptpubkey": "0014e4162a5c1e012dbe595cf4c6784b5fe7742f347b",
      "scriptpubkey_asm": "OP_0 OP_PUSHBYTES_20 e4162a5c1e012dbe595cf4c6784b5fe7742f347b",
      "scriptpubkey_type": "v0_p2wpkh",
      "scriptpubkey_address": "bc1qustz5hq7qykmuk2u7nr8sj6lua6z7drmsuees9",
      "value": 546
    },
    {
      "scriptpubkey": "0014036258927a8ee599dab01a9f1386414a6d62ff59",
      "scriptpubkey_asm": "OP_0 OP_PUSHBYTES_20 036258927a8ee599dab01a9f1386414a6d62ff59",
      "scriptpubkey_type": "v0_p2wpkh",
      "scriptpubkey_address": "bc1qqd393yn63mjenk4sr2038pjpffkk9l6e38jlmc",
      "value": 668169
    }
  ],
  "size": 401,
  "weight": 956,
  "fee": 3256,
  "status": {
    "confirmed": true,
    "block_height": 834460,
    "block_hash": "00000000000000000000484a79b643b2524bbce82e5d8a442013fa5b8905ed98",
    "block_time": 1710307468
  },
  "hex": "02000000000102d442f4f6cefea2a5a0667364c59c6dc00c574ad9c0cd5c1098345aeaceaa1e9a0000000000fdffffffac487e2ab9652a256743941ad0994aa94c96406c96416c52a8e666cbefdb6a700200000000fdffffff036002000000000000160014036258927a8ee599dab01a9f1386414a6d62ff592202000000000000160014e4162a5c1e012dbe595cf4c6784b5fe7742f347b09320a0000000000160014036258927a8ee599dab01a9f1386414a6d62ff59024730440220785c44166b8aa7d4a6f09dd3bdcdd664f589650e7600e13db674b87b2ec4a50f02205e528bab8b845239853296878b790d5f3e20654301a07261df8537b61ff8aefb012103da4f48d5533a002edf16deb982ccceea29c2e169104c56022d2e9a287fbceb4d0247304402206f431764a73814ae3e442cf66110411dbc833a21f38dd42ec2ff027300f6d97d0220096fcb2fb1937e216629fb93db62c9653848d7c11c2f28ecafd3e46bed92f661012102ed65620597c1000b04222115df6a61a71b5eda7170ea89063f0789f64ebe63409abb0c00"
}