{
  "txid": "0b2f9091391fb6e29025e397e150a2988efc4e732b6a1a4e8572b2daf4a8fc83",
  "version": 2,
  "locktime": 0,
  "vin": [
    {
      "txid": "a4e564d530fc2b070ac8ab315ddba7365bed90d56073313692d96386a2eb934a",
      "vout": 50,
      "prevout": {
        "scriptpubkey": "5120541c53ced0fb8ad7709263b7f5bb8e801935e07a6db14ee88261726d25911760",
        "scriptpubkey_asm": "OP_PUSHNUM_1 OP_PUSHBYTES_32 541c53ced0fb8ad7709263b7f5bb8e801935e07a6db14ee88261726d25911760",
        "scriptpubkey_type": "v1_p2tr",
        "scriptpubkey_address": "bc1p2sw98nkslw9dwuyjvwmltwuwsqvntcr6dkc5a6yzv9ex6fv3zasqrnpfrf",
        "value": 913237
      },
      "scriptsig": "",
      "scriptsig_asm": "",
      "witness": [
        "c3af967a3ee10d1dbbf4cc4905d1539a1d14f79d303606ee733bb45c10ab3579651b4a00d324efebee8b034ba88eb72d06062383fe8bf8aa5ac49e3a240696b7",
        "20b4195b6f3e8ccd6f9c6327fd7ac32b709a0dd80e920cdb63524e3fd9aaa03513ac",
        "c0b4195b6f3e8ccd6f9c6327fd7ac32b709a0dd80e920cdb63524e3fd9aaa03513"
      ],
      "is_coinbase": false,
      "sequence": 4294967293
    },
    {
      "txid": "5cf5838ec1a20f69603899696bd1c6cbe051cea9f65c7c39518f6eebb0932a49",
      "vout": 17,
      "prevout": {
        "scriptpubkey": "5120541c53ced0fb8ad7709263b7f5bb8e801935e07a6db14ee88261726d25911760",
        "scriptpubkey_asm": "OP_PUSHNUM_1 OP_PUSHBYTES_32 541c53ced0fb8ad7709263b7f5bb8e801935e07a6db14ee88261726d25911760",
        "scriptpubkey_type": "v1_p2tr",
        "scriptpubkey_address": "bc1p2sw98nkslw9dwuyjvwmltwuwsqvntcr6dkc5a6yzv9ex6fv3zasqrnpfrf",
        "value": 1086763
      },
      "scriptsig": "",
      "scriptsig_asm": "",
      "witness": [
        "de3ca01073278a9d46f3d19fd4f8b9cdf922815c63b2602562b445784abe694aebc962325af976c429654569b1091abe7f7cabb28a467c329f88964be6a7c404",
        "20b4195b6f3e8ccd6f9c6327fd7ac32b709a0dd80e920cdb63524e3fd9aaa03513ac",
        "c0b4195b6f3e8ccd6f9c6327fd7ac32b709a0dd80e920cdb63524e3fd9aaa03513"
      ],
      "is_coinbase": false,
      "sequence": 4294967293
    }
  ],
  "vout": [
    {
      "scriptpubkey": "5120b7aa99bf8cbc1455592f690e086f5ca41eca074db1509b6f34843e70549ce736",
      "scriptpubkey_asm": "OP_PUSHNUM_1 OP_PUSHBYTES_32 b7aa99bf8cbc1455592f690e086f5ca41eca074db1509b6f34843e70549ce736",
      "scriptpubkey_type": "v1_p2tr",
      "scriptpubkey_address": "bc1pk74fn0uvhs292kf0dy8qsm6u5s0v5p6dk9gfkme5ssl8q4yuuumqhd5qq3",
      "value": 1711
    },
    {
      "scriptpubkey": "5120b7aa99bf8cbc1455592f690e086f5ca41eca074db1509b6f34843e70549ce736",
      "scriptpubkey_asm": "OP_PUSHNUM_1 OP_PUSHBYTES_32 b7aa99bf8cbc1455592f690e086f5ca41eca074db1509b6f34843e70549ce736",
      "scriptpubkey_type": "v1_p2tr",
      "scriptpubkey_address": "bc1pk74fn0uvhs292kf0dy8qsm6u5s0v5p6dk9gfkme5ssl8q4yuuumqhd5qq3",
      "value": 1711
    },
    {
      "scriptpubkey": "5120b7aa99bf8cbc1455592f690e086f5ca41eca074db1509b6f34843e70549ce736",
      "scriptpubkey_asm": "OP_PUSHNUM_1 OP_PUSHBYTES_32 b7aa99bf8cbc1455592f690e086f5ca41eca074db1509b6f34843e70549ce736",
      "scriptpubkey_type": "v1_p2tr",
      "scriptpubkey_address": "bc1pk74fn0uvhs292kf0dy8qsm6u5s0v5p6dk9gfkme5ssl8q4yuuumqhd5qq3",
      "value": 1711
    },
    {
      "scriptpubkey": "5120b7aa99bf8cbc1455592f690e086f5ca41eca074db1509b6f34843e70549ce736",
      "scriptpubkey_asm": "OP_PUSHNUM_1 OP_PUSHBYTES_32 b7aa99bf8cbc1455592f690e086f5ca41eca074db1509b6f34843e70549ce736",
      "scriptpubkey_type": "v1_p2tr",
      "scriptpubkey_address": "bc1pk74fn0uvhs292kf0dy8qsm6u5s0v5p6dk9gfkme5ssl8q4yuuumqhd5qq3",
      "value": 1711
    },
    {
      "scriptpubkey": "5120b7aa99bf8cbc1455592f690e086f5ca41eca074db1509b6f34843e70549ce736",
      "scriptpubkey_asm": "OP_PUSHNUM_1 OP_PUSHBYTES_32 b7aa99bf8cbc1455592f690e086f5ca41eca074db1509b6f34843e70549ce736",
      "scriptpubkey_type": "v1_p2tr",
      "scriptpubkey_address": "bc1pk74fn0uvhs292kf0dy8qsm6u5s0v5p6dk9gfkme5ssl8q4yuuumqhd5qq3",
      "value": 1711
    },
    {
      "scriptpubkey": "5120b7aa99bf8cbc1455592f690e086f5ca41eca074db1509b6f34843e70549ce736",
      "scriptpubkey_asm": "OP_PUSHNUM_1 OP_PUSHBYTES_32 b7aa99bf8cbc1455592f690e086f5ca41eca074db1509b6f34843e70549ce736",
      "scriptpubkey_type": "v1_p2tr",
      "scriptpubkey_address": "bc1pk74fn0uvhs292kf0dy8qsm6u5s0v5p6dk9gfkme5ssl8q4yuuumqhd5qq3",
      "value": 1711
    },
    {
      "scriptpubkey": "5120b7aa99bf8cbc1455592f690e086f5ca41eca074db1509b6f34843e70549ce736",
      "scriptpubkey_asm": "OP_PUSHNUM_1 OP_PUSHBYTES_32 b7aa99bf8cbc1455592f690e086f5ca41eca074db1509b6f34843e70549ce736",
      "scriptpubkey_type": "v1_p2tr",
      "scriptpubkey_address": "bc1pk74fn0uvhs292kf0dy8qsm6u5s0v5p6dk9gfkme5ssl8q4yuuumqhd5qq3",
      "value": 1711
    },
    {
      "scriptpubkey": "5120b7aa99bf8cbc1455592f690e086f5ca41eca074db1509b6f34843e70549ce736",
      "scriptpubkey_asm": "OP_PUSHNUM_1 OP_PUSHBYTES_32 b7aa99bf8cbc1455592f690e086f5ca41eca074db1509b6f34843e70549ce736",
      "scriptpubkey_type": "v1_p2tr",
      "scriptpubkey_address": "bc1pk74fn0uvhs292kf0dy8qsm6u5s0v5p6dk9gfkme5ssl8q4yuuumqhd5qq3",
      "value": 1711
    },
    {
      "scriptpubkey": "5120b7aa99bf8cbc1455592f690e086f5ca41eca074db1509b6f34843e70549ce736",
      "scriptpubkey_asm": "OP_PUSHNUM_1 OP_PUSHBYTES_32 b7aa99bf8cbc1455592f690e086f5ca41eca074db1509b6f34843e70549ce736",
      "scriptpubkey_type": "v1_p2tr",
      "scriptpubkey_address": "bc1pk74fn0uvhs292kf0dy8qsm6u5s0v5p6dk9gfkme5ssl8q4yuuumqhd5qq3",
      "value": 1711
    },
    {
      "scriptpubkey": "5120b7aa99bf8cbc1455592f690e086f5ca41eca074db1509b6f34843e70549ce736",
      "scriptpubkey_asm": "OP_PUSHNUM_1 OP_PUSHBYTES_32 b7aa99bf8cbc1455592f690e086f5ca41eca074db1509b6f34843e70549ce736",
      "scriptpubkey_type": "v1_p2tr",
      "scriptpubkey_address": "bc1pk74fn0uvhs292kf0dy8qsm6u5s0v5p6dk9gfkme5ssl8q4yuuumqhd5qq3",
      "value": 1711
    },
    {
      "scriptpubkey": "5120b7aa99bf8cbc1455592f690e086f5ca41eca074db1509b6f34843e70549ce736",
      "scriptpubkey_asm": "OP_PUSHNUM_1 OP_PUSHBYTES_32 b7aa99bf8cbc1455592f690e086f5ca41eca074db1509b6f34843e70549ce736",
      "scriptpubkey_type": "v1_p2tr",
      "scriptpubkey_address": "bc1pk74fn0uvhs292kf0dy8qsm6u5s0v5p6dk9gfkme5ssl8q4yuuumqhd5qq3",
      "value": 1711
    },
    {
      "scriptpubkey": "5120b7aa99bf8cbc1455592f690e086f5ca41eca074db1509b6f34843e70549ce736",
      "scriptpubkey_asm": "OP_PUSHNUM_1 OP_PUSHBYTES_32 b7aa99bf8cbc1455592f690e086f5ca41eca074db1509b6f34843e70549ce736",
      "scriptpubkey_type": "v1_p2tr",
      "scriptpubkey_address": "bc1pk74fn0uvhs292kf0dy8qsm6u5s0v5p6dk9gfkme5ssl8q4yuuumqhd5qq3",
      "value": 1711
    },
    {
      "scriptpubkey": "5120b7aa99bf8cbc1455592f690e086f5ca41eca074db1509b6f34843e70549ce736",
      "scriptpubkey_asm": "OP_PUSHNUM_1 OP_PUSHBYTES_32 b7aa99bf8cbc1455592f690e086f5ca41eca074db1509b6f34843e70549ce736",
      "scriptpubkey_type": "v1_p2tr",
      "scriptpubkey_address": "bc1pk74fn0uvhs292kf0dy8qsm6u5s0v5p6dk9gfkme5ssl8q4yuuumqhd5qq3",
      "value": 1711
    },
    {
      "scriptpubkey": "5120b7aa99bf8cbc1455592f690e086f5ca41eca074db1509b6f34843e70549ce736",
      "scriptpubkey_asm": "OP_PUSHNUM_1 OP_PUSHBYTES_32 b7aa99bf8cbc1455592f690e086f5ca41eca074db1509b6f34843e70549ce736",
      "scriptpubkey_type": "v1_p2tr",
      "scriptpubkey_address": "bc1pk74fn0uvhs292kf0dy8qsm6u5s0v5p6dk9gfkme5ssl8q4yuuumqhd5qq3",
      "value": 1711
    },
    {
      "scriptpubkey": "5120b7aa99bf8cbc1455592f690e086f5ca41eca074db1509b6f34843e70549ce736",
      "scriptpubkey_asm": "OP_PUSHNUM_1 OP_PUSHBYTES_32 b7aa99bf8cbc1455592f690e086f5ca41eca074db1509b6f34843e70549ce736",
      "scriptpubkey_type": "v1_p2tr",
      "scriptpubkey_address": "bc1pk74fn0uvhs292kf0dy8qsm6u5s0v5p6dk9gfkme5ssl8q4yuuumqhd5qq3",
      "value": 1711
    },
    {
      "scriptpubkey": "5120b7aa99bf8cbc1455592f690e086f5ca41eca074db1509b6f34843e70549ce736",
      "scriptpubkey_asm": "OP_PUSHNUM_1 OP_PUSHBYTES_32 b7aa99bf8cbc1455592f690e086f5ca41eca074db1509b6f34843e70549ce736",
      "scriptpubkey_type": "v1_p2tr",
      "scriptpubkey_address": "bc1pk74fn0uvhs292kf0dy8qsm6u5s0v5p6dk9gfkme5ssl8q4yuuumqhd5qq3",
      "value": 1711
    },
    {
      "scriptpubkey": "5120b7aa99bf8cbc1455592f690e086f5ca41eca074db1509b6f34843e70549ce736",
      "scriptpubkey_asm": "OP_PUSHNUM_1 OP_PUSHBYTES_32 b7aa99bf8cbc1455592f690e086f5ca41eca074db1509b6f34843e70549ce736",
      "scriptpubkey_type": "v1_p2tr",
      "scriptpubkey_address": "bc1pk74fn0uvhs292kf0dy8qsm6u5s0v5p6dk9gfkme5ssl8q4yuuumqhd5qq3",
      "value": 1711
    },
    {
      "scriptpubkey": "5120b7aa99bf8cbc1455592f690e086f5ca41eca074db1509b6f34843e70549ce736",
      "scriptpubkey_asm": "OP_PUSHNUM_1 OP_PUSHBYTES_32 b7aa99bf8cbc1455592f690e086f5ca41eca074db1509b6f34843e70549ce736",
      "scriptpubkey_type": "v1_p2tr",
      "scriptpubkey_address": "bc1pk74fn0uvhs292kf0dy8qsm6u5s0v5p6dk9gfkme5ssl8q4yuuumqhd5qq3",
      "value": 1711
    },
    {
      "scriptpubkey": "5120b7aa99bf8cbc1455592f690e086f5ca41eca074db1509b6f34843e70549ce736",
      "scriptpubkey_asm": "OP_PUSHNUM_1 OP_PUSHBYTES_32 b7aa99bf8cbc1455592f690e086f5ca41eca074db1509b6f34843e70549ce736",
      "scriptpubkey_type": "v1_p2tr",
      "scriptpubkey_address": "bc1pk74fn0uvhs292kf0dy8qsm6u5s0v5p6dk9gfkme5ssl8q4yuuumqhd5qq3",
      "value": 1711
    },
    {
      "scriptpubkey": "5120b7aa99bf8cbc1455592f690e086f5ca41eca074db1509b6f34843e70549ce736",
      "scriptpubkey_asm": "OP_PUSHNUM_1 OP_PUSHBYTES_32 b7aa99bf8cbc1455592f690e086f5ca41eca074db1509b6f34843e70549ce736",
      "scriptpubkey_type": "v1_p2tr",
      "scriptpubkey_address": "bc1pk74fn0uvhs292kf0dy8qsm6u5s0v5p6dk9gfkme5ssl8q4yuuumqhd5qq3",
      "value": 1711
    },
    {
      "scriptpubkey": "5120b7aa99bf8cbc1455592f690e086f5ca41eca074db1509b6f34843e70549ce736",
      "scriptpubkey_asm": "OP_PUSHNUM_1 OP_PUSHBYTES_32 b7aa99bf8cbc1455592f690e086f5ca41eca074db1509b6f34843e70549ce736",
      "scriptpubkey_type": "v1_p2tr",
      "scriptpubkey_address": "bc1pk74fn0uvhs292kf0dy8qsm6u5s0v5p6dk9gfkme5ssl8q4yuuumqhd5qq3",
      "value": 1711
    },
    {
      "scriptpubkey": "5120b7aa99bf8cbc1455592f690e086f5ca41eca074db1509b6f34843e70549ce736",
      "scriptpubkey_asm": "OP_PUSHNUM_1 OP_PUSHBYTES_32 b7aa99bf8cbc1455592f690e086f5ca41eca074db1509b6f34843e70549ce736",
      "scriptpubkey_type": "v1_p2tr",
      "scriptpubkey_address": "bc1pk74fn0uvhs292kf0dy8qsm6u5s0v5p6dk9gfkme5ssl8q4yuuumqhd5qq3",
      "value": 1711
    },
    {
      "scriptpubkey": "5120b7aa99bf8cbc1455592f690e086f5ca41eca074db1509b6f34843e70549ce736",
      "scriptpubkey_asm": "OP_PUSHNUM_1 OP_PUSHBYTES_32 b7aa99bf8cbc1455592f690e086f5ca41eca074db1509b6f34843e70549ce736",
      "scriptpubkey_type": "v1_p2tr",
      "scriptpubkey_address": "bc1pk74fn0uvhs292kf0dy8qsm6u5s0v5p6dk9gfkme5ssl8q4yuuumqhd5qq3",
      "value": 1711
    },
    {
      "scriptpubkey": "5120b7aa99bf8cbc1455592f690e086f5ca41eca074db1509b6f34843e70549ce736",
      "scriptpubkey_asm": "OP_PUSHNUM_1 OP_PUSHBYTES_32 b7aa99bf8cbc1455592f690e086f5ca41eca074db1509b6f34843e70549ce736",
      "scriptpubkey_type": "v1_p2tr",
      "scriptpubkey_address": "bc1pk74fn0uvhs292kf0dy8qsm6u5s0v5p6dk9gfkme5ssl8q4yuuumqhd5qq3",
      "value": 1711
    },
    {
      "scriptpubkey": "5120b7aa99bf8cbc1455592f690e086f5ca41eca074db1509b6f34843e70549ce736",
      "scriptpubkey_asm": "OP_PUSHNUM_1 OP_PUSHBYTES_32 b7aa99bf8cbc1455592f690e086f5ca41eca074db1509b6f34843e70549ce736",
      "scriptpubkey_type": "v1_p2tr",
      "scriptpubkey_address": "bc1pk74fn0uvhs292kf0dy8qsm6u5s0v5p6dk9gfkme5ssl8q4yuuumqhd5qq3",
      "value": 1711
    },
    {
      "scriptpubkey": "5120541c53ced0fb8ad7709263b7f5bb8e801935e07a6db14ee88261726d25911760",
      "scriptpubkey_asm": "OP_PUSHNUM_1 OP_PUSHBYTES_32 541c53ced0fb8ad7709263b7f5bb8e801935e07a6db14ee88261726d25911760",
      "scriptpubkey_type": "v1_p2tr",
      "scriptpubkey_address": "bc1p2sw98nkslw9dwuyjvwmltwuwsqvntcr6dkc5a6yzv9ex6fv3zasqrnpfrf",
      "value": 1940994
    }
  ],
  "size": 1482,
  "weight": 5112,
  "fee": 16231,
  "status": {
    "confirmed": true,
    "block_height": 834460,
    "block_hash": "00000000000000000000484a79b643b2524bbce82e5d8a442013fa5b8905ed98",
    "block_time": 1710307468
  },
  "hex": "020000000001024a93eba28663d99236317360d590ed5b36a7db5d31abc80a072bfc30d564e5a43200000000fdffffff492a93b0eb6e8f51397c5cf6a9ce51e0cbc6d16b69993860690fa2c18e83f55c1100000000fdffffff1aaf06000000000000225120b7aa99bf8cbc1455592f690e086f5ca41eca074db1509b6f34843e70549ce736af06000000000000225120b7aa99bf8cbc1455592f690e086f5ca41eca074db1509b6f34843e70549ce736af06000000000000225120b7aa99bf8cbc1455592f690e086f5ca41eca074db1509b6f34843e70549ce736af06000000000000225120b7aa99bf8cbc1455592f690e086f5ca41eca074db1509b6f34843e70549ce736af06000000000000225120b7aa99bf8cbc1455592f690e086f5ca41eca074db1509b6f34843e70549ce736af06000000000000225120b7aa99bf8cbc1455592f690e086f5ca41eca074db1509b6f34843e70549ce736af06000000000000225120b7aa99bf8cbc1455592f690e086f5ca41eca074db1509b6f34843e70549ce736af06000000000000225120b7aa99bf8cbc1455592f690e086f5ca41eca074db1509b6f34843e70549ce736af06000000000000225120b7aa99bf8cbc1455592f690e086f5ca41eca074db1509b6f34843e70549ce736af06000000000000225120b7aa99bf8cbc1455592f690e086f5ca41eca074db1509b6f34843e70549ce736af06000000000000225120b7aa99bf8cbc1455592f690e086f5ca41eca074db1509b6f34843e70549ce736af06000000000000225120b7aa99bf8cbc1455592f690e086f5ca41eca074db1509b6f34843e70549ce736af06000000000000225120b7aa99bf8cbc1455592f690e086f5ca41eca074db1509b6f34843e70549ce736af06000000000000225120b7aa99bf8cbc1455592f690e086f5ca41eca074db1509b6f34843e70549ce736af06000000000000225120b7aa99bf8cbc1455592f690e086f5ca41eca074db1509b6f34843e70549ce736af06000000000000225120b7aa99bf8cbc1455592f690e086f5ca41eca074db1509b6f34843e70549ce736af06000000000000225120b7aa99bf8cbc1455592f690e086f5ca41eca074db1509b6f34843e70549ce736af06000000000000225120b7aa99bf8cbc1455592f690e086f5ca41eca074db1509b6f34843e70549ce736af06000000000000225120b7aa99bf8cbc1455592f690e086f5ca41eca074db1509b6f34843e70549ce736af06000000000000225120b7aa99bf8cbc1455592f690e086f5ca41eca074db1509b6f34843e70549ce736af06000000000000225120b7aa99bf8cbc1455592f690e086f5ca41eca074db1509b6f34843e70549ce736af06000000000000225120b7aa99bf8cbc1455592f690e086f5ca41eca074db1509b6f34843e70549ce736af06000000000000225120b7aa99bf8cbc1455592f690e086f5ca41eca074db1509b6f34843e70549ce736af06000000000000225120b7aa99bf8cbc1455592f690e086f5ca41eca074db1509b6f34843e70549ce736af06000000000000225120b7aa99bf8cbc1455592f690e086f5ca41eca074db1509b6f34843e70549ce736029e1d0000000000225120541c53ced0fb8ad7709263b7f5bb8e801935e07a6db14ee88261726d259117600340c3af967a3ee10d1dbbf4cc4905d1539a1d14f79d303606ee733bb45c10ab3579651b4a00d324efebee8b034ba88eb72d06062383fe8bf8aa5ac49e3a240696b72220b4195b6f3e8ccd6f9c6327fd7ac32b709a0dd80e920cdb63524e3fd9aaa03513ac21c0b4195b6f3e8ccd6f9c6327fd7ac32b709a0dd80e920cdb63524e3fd9aaa035130340de3ca01073278a9d46f3d19fd4f8b9cdf922815c63b2602562b445784abe694aebc962325af976c429654569b1091abe7f7cabb28a467c329f88964be6a7c4042220b4195b6f3e8ccd6f9c6327fd7ac32b709a0dd80e920cdb63524e3fd9aaa03513ac21c0b4195b6f3e8ccd6f9c6327fd7ac32b709a0dd80e920cdb63524e3fd9aaa0351300000000"
}