{
  "txid": "0b37866d7a31e8a058d64fca597d96616203fd9e0b7763c67a8e6239d49cc6c7",
  "version": 1,
  "locktime": 0,
  "vin": [
    {
      "txid": "4d36f89421c6750eb806fa61a7ed9f064ca751a77abf053800b1c81e1737d8ba",
      "vout": 0,
      "prevout": {
        "scriptpubkey": "0014da5da1ee86fcb41295fffd36d9142261e8cf5953",
        "scriptpubkey_asm": "OP_0 OP_PUSHBYTES_20 da5da1ee86fcb41295fffd36d9142261e8cf5953",
        "scriptpubkey_type": "v0_p2wpkh",
        "scriptpubkey_address": "bc1qmfw6rm5xlj6p990ll5mdj9pzv85v7k2np5u5zm",
        "value": 546
      },
      "scriptsig": "",
      "scriptsig_asm": "",
      "witness": [
        "3045022100ac40b087da065c5b69f0a2c6b3e3fe29e618b2c7fff1cfdf37001f75a49acabd022032dbe3a61cb6eeb76fb78d0592b92c27ef036fb98a3f115c61094036766881e901",
        "038550f57df1f762d21921144b72c99ace685ac20459f1f4b7616c745b68dedc79"
      ],
      "is_coinbase": false,
      "sequence": 4294967293
    },
    {
      "txid": "b4f5fb0e4a57917885e100a87941304498213271045f2df08ced1274e7b452e3",
      "vout": 1,
      "prevout": {
        "scriptpubkey": "0014da5da1ee86fcb41295fffd36d9142261e8cf5953",
        "scriptpubkey_asm": "OP_0 OP_PUSHBYTES_20 da5da1ee86fcb41295fffd36d9142261e8cf5953",
        "scriptpubkey_type": "v0_p2wpkh",
        "scriptpubkey_address": "bc1qmfw6rm5xlj6p990ll5mdj9pzv85v7k2np5u5zm",
        "value": 498115
      },
      "scriptsig": "",
      "scriptsig_asm": "",
      "witness": [
        "30440220359ac43ff4e60edec792a5ea555e2b079148a53ce29475cffdba70e999fc7a470220366e249db5f40d15b59f46652bfe95b409078a7d63a9a8da07da42fadc12ae8d01",
        "038550f57df1f762d21921144b72c99ace685ac20459f1f4b7616c745b68dedc79"
      ],
      "is_coinbase": false,
      "sequence": 4294967293
    }
  ],
  "vout": [
    {
      "scriptpubkey": "001477bdbbf514d9e58655fb03eb9b9c58802cfa5e29",
      "scriptpubkey_asm": "OP_0 OP_PUSHBYTES_20 77bdbbf514d9e58655fb03eb9b9c58802cfa5e29",
      "scriptpubkey_type": "v0_p2wpkh",
      "scriptpubkey_address": "bc1qw77mhag5m8jcv40mq04eh8zcsqk05h3fs45z2v",
      "value": 546
    },
    {
      "scriptpubkey": "0014da5da1ee86fcb41295fffd36d9142261e8cf5953",
      "scriptpubkey_asm": "OP_0 OP_PUSHBYTES_20 da5da1ee86fcb41295fffd36d9142261e8cf5953",
      "scriptpubkey_type": "v0_p2wpkh",
      "scriptpubkey_address": "bc1qmfw6rm5xlj6p990ll5mdj9pzv85v7k2np5u5zm",
      "value": 495147
    }
  ],
  "size": 371,
  "weight": 833,
  "fee": 2968,
  "status": {
    "confirmed": true,
    "block_height": 834460,
    "block_hash": "00000000000000000000484a79b643b2524bbce82e5d8a442013fa5b8905ed98",
    "block_time": 1710307468
  },
  "hex": "01000000000102bad837171ec8b1003805bf7aa751a74c069feda761fa06b80e75c62194f8364d0000000000fdffffffe352b4e77412ed8cf02d5f047132219844304179a800e1857891574a0efbf5b40100000000fdffffff02220200000000000016001477bdbbf514d9e58655fb03eb9b9c58802cfa5e292b8e070000000000160014da5da1ee86fcb41295fffd36d9142261e8cf595302483045022100ac40b087da065c5b69f0a2c6b3e3fe29e618b2c7fff1cfdf37001f75a49acabd022032dbe3a61cb6eeb76fb78d0592b92c27ef036fb98a3f115c61094036766881e90121038550f57df1f762d21921144b72c99ace685ac20459f1f4b7616c745b68dedc79024730440220359ac43ff4e60edec792a5ea555e2b079148a53ce29475cffdba70e999fc7a470220366e249db5f40d15b59f46652bfe95b409078a7d63a9a8da07da42fadc12ae8d0121038550f57df1f762d21921144b72c99ace685ac20459f1f4b7616c745b68dedc7900000000"
}