{
  "txid": "0b38505cefb64a5220e2b840cf6c1ea1f3f6ca166919635958d1c5ad859fc5da",
  "version": 2,
  "locktime": 0,
  "vin": [
    {
      "txid": "4ee77778659dcfe8d7a4e15882fc6193f4f3d5f6607624e256337b44c2280af5",
      "vout": 96,
      "prevout": {
        "scriptpubkey": "5120ebee1c3ff191ab69af9bd6dc668c802bbe05c06f05a3770580a48bc7a7c2bebd",
        "scriptpubkey_asm": "OP_PUSHNUM_1 OP_PUSHBYTES_32 ebee1c3ff191ab69af9bd6dc668c802bbe05c06f05a3770580a48bc7a7c2bebd",
        "scriptpubkey_type": "v1_p2tr",
        "scriptpubkey_address": "bc1pa0hpc0l3jx4kntum6mwxdryq9wlqtsr0qk3hwpvq5j9u0f7zh67sq006dn",
        "value": 2075
      },
      "scriptsig": "",
      "scriptsig_asm": "",
      "witness": [
        "f05dbf49f1d8c7a13bbdaa36e6cf6e1391187330c82b696508415d9760011cc82bd12dc903440de8b41c799c2c27249244cf2d36657f63ec14a64a58de2a0553",
        "20f185fe2d64f27ba081b9534bf0101d1407e9666dc74a6c8c5e3bdac3e44b72d9ac0063036f7264010118746578742f706c61696e3b636861727365743d7574662d3800357b2270223a224252432d313030222c226f70223a226d696e74222c227469636b223a22696e73222c22616d74223a2231303030227d68",
        "c0c50eac15d7d7889f5ad84f80015e8a209129aeea937c37fa4b8bc0f9be289730"
      ],
      "is_coinbase": false,
      "sequence": 4294967295
    }
  ],
  "vout": [
    {
      "scriptpubkey": "00143e2325412b554cacdd163a93a42204c4707f8851",
      "scriptpubkey_asm": "OP_0 OP_PUSHBYTES_20 3e2325412b554cacdd163a93a42204c4707f8851",
      "scriptpubkey_type": "v0_p2wpkh",
      "scriptpubkey_address": "bc1q8c3j2sft24x2ehgk82f6ggsyc3c8lzz3yw9wsu",
      "value": 546
    }
  ],
  "size": 308,
  "weight": 554,
  "fee": 1529,
  "status": {
    "confirmed": true,
    "block_height": 834464,
    "block_hash": "0000000000000000000177a0869a911a2b65c9bdcd5a8bcb02b68f305bee848e",
    "block_time": 1710308296
  },
  "hex": "02000000000101f50a28c2447b3356e2247660f6d5f3f49361fc8258e1a4d7e8cf9d657877e74e6000000000ffffffff0122020000000000001600143e2325412b554cacdd163a93a42204c4707f88510340f05dbf49f1d8c7a13bbdaa36e6cf6e1391187330c82b696508415d9760011cc82bd12dc903440de8b41c799c2c27249244cf2d36657f63ec14a64a58de2a05537b20f185fe2d64f27ba081b9534bf0101d1407e9666dc74a6c8c5e3bdac3e44b72d9ac0063036f7264010118746578742f706c61696e3b636861727365743d7574662d3800357b2270223a224252432d313030222c226f70223a226d696e74222c227469636b223a22696e73222c22616d74223a2231303030227d6821c0c50eac15d7d7889f5ad84f80015e8a209129aeea937c37fa4b8bc0f9be28973000000000"
}