{
  "txid": "0b5e91f598a32088f57e97852a31cfee6fc53f489de1e4f616a099a42f337f1f",
  "version": 2,
  "locktime": 0,
  "vin": [
    {
      "txid": "8486ecb4df0880316dd6e82b3971b4df187aff23765bc3a47f8d78bb53aa273c",
      "vout": 121,
      "prevout": {
        "scriptpubkey": "5120d7510c8f434373279e685066276ddf378fbf24c43ad5cd7fd92ff8e3d95ce07d",
        "scriptpubkey_asm": "OP_PUSHNUM_1 OP_PUSHBYTES_32 d7510c8f434373279e685066276ddf378fbf24c43ad5cd7fd92ff8e3d95ce07d",
        "scriptpubkey_type": "v1_p2tr",
        "scriptpubkey_address": "bc1p6agser6rgdej08ng2pnzwmwlx78m7fxy8t2u6l7e9luw8k2uup7smc6y28",
        "value": 2575
      },
      "scriptsig": "",
      "scriptsig_asm": "",
      "witness": [
        "e3ff8ae08d763e66676cee8687e7391159cf082497007bbf38baad4cbcb6c6f807e99892df108eba6458ff78765da959f2dede64d95adcddc3d7eb142245ff75",
        "20d341ddf32f009660b856ba76af85851f287872e88f15a8c4121000fa048e9374ac0063036f726401010a746578742f706c61696e00367b2270223a226272632d3230222c226f70223a226d696e74222c227469636b223a2261616161222c22616d74223a223130303030227d68",
        "c1d341ddf32f009660b856ba76af85851f287872e88f15a8c4121000fa048e9374"
      ],
      "is_coinbase": false,
      "sequence": 4261412863
    }
  ],
  "vout": [
    {
      "scriptpubkey": "0014ddd7ef12ea6f78edcc1e8e7afa12c01ab59f3339",
      "scriptpubkey_asm": "OP_0 OP_PUSHBYTES_20 ddd7ef12ea6f78edcc1e8e7afa12c01ab59f3339",
      "scriptpubkey_type": "v0_p2wpkh",
      "scriptpubkey_address": "bc1qmht77yh2dauwmnq73ea05ykqr26e7veea8spz6",
      "value": 546
    }
  ],
  "size": 295,
  "weight": 541,
  "fee": 2029,
  "status": {
    "confirmed": true,
    "block_height": 834460,
    "block_hash": "00000000000000000000484a79b643b2524bbce82e5d8a442013fa5b8905ed98",
    "block_time": 1710307468
  },
  "hex": "020000000001013c27aa53bb788d7fa4c35b7623ff7a18dfb471392be8d66d318008dfb4ec86847900000000fffffffd012202000000000000160014ddd7ef12ea6f78edcc1e8e7afa12c01ab59f33390340e3ff8ae08d763e66676cee8687e7391159cf082497007bbf38baad4cbcb6c6f807e99892df108eba6458ff78765da959f2dede64d95adcddc3d7eb142245ff756e20d341ddf32f009660b856ba76af85851f287872e88f15a8c4121000fa048e9374ac0063036f726401010a746578742f706c61696e00367b2270223a226272632d3230222c226f70223a226d696e74222c227469636b223a2261616161222c22616d74223a223130303030227d6821c1d341ddf32f009660b856ba76af85851f287872e88f15a8c4121000fa048e937400000000"
}