{
  "txid": "0b623297d1c7ebdc96c79b35f04d1a4e32fc62177650678056e77377477b946d",
  "version": 2,
  "locktime": 0,
  "vin": [
    {
      "txid": "e3b3ef1ee6b0f7d4b74b739b674278b0a9cb2d627a58e1168327046c497ed0f4",
      "vout": 0,
      "prevout": {
        "scriptpubkey": "a914f5c1c5818535cb1a18902e3d05db9995c48097f787",
        "scriptpubkey_asm": "OP_HASH160 OP_PUSHBYTES_20 f5c1c5818535cb1a18902e3d05db9995c48097f7 OP_EQUAL",
        "scriptpubkey_type": "p2sh",
        "scriptpubkey_address": "3Q6Tc2GDyHSkygUbzqqQ36jWwYmN59NN7S",
        "value": 179000
      },
      "scriptsig": "160014a5937228bff12b7da32fd34aa95a50d7d34785b4",
      "scriptsig_asm": "OP_PUSHBYTES_22 0014a5937228bff12b7da32fd34aa95a50d7d34785b4",
      "witness": [
        "304402204fb68257107f8058debbbbd17c9c4b9529eab28b8d0332ed2aa57419352b5600022027d8b84678f048b61337ec94520f84d7a09155d6f6764b5be0b5da61383d7b9801",
        "02016f521f750b1066923d9b8945079a3db30706b8fd792efe65081e08e086c550"
      ],
      "is_coinbase": false,
      "sequence": 4294967295,
      "inner_redeemscript_asm": "OP_0 OP_PUSHBYTES_20 a5937228bff12b7da32fd34aa95a50d7d34785b4"
    }
  ],
  "vout": [
    {
      "scriptpubkey": "a914f5c1c5818535cb1a18902e3d05db9995c48097f787",
      "scriptpubkey_asm": "OP_HASH160 OP_PUSHBYTES_20 f5c1c5818535cb1a18902e3d05db9995c48097f7 OP_EQUAL",
      "scriptpubkey_type": "p2sh",
      "scriptpubkey_address": "3Q6Tc2GDyHSkygUbzqqQ36jWwYmN59NN7S",
      "value": 600
    },
    {
      "scriptpubkey": "a914f5c1c5818535cb1a18902e3d05db9995c48097f787",
      "scriptpubkey_asm": "OP_HASH160 OP_PUSHBYTES_20 f5c1c5818535cb1a18902e3d05db9995c48097f7 OP_EQUAL",
      "scriptpubkey_type": "p2sh",
      "scriptpubkey_address": "3Q6Tc2GDyHSkygUbzqqQ36jWwYmN59NN7S",
      "value": 600
    },
    {
      "scriptpubkey": "a914f5c1c5818535cb1a18902e3d05db9995c48097f787",
      "scriptpubkey_asm": "OP_HASH160 OP_PUSHBYTES_20 f5c1c5818535cb1a18902e3d05db9995c48097f7 OP_EQUAL",
      "scriptpubkey_type": "p2sh",
      "scriptpubkey_address": "3Q6Tc2GDyHSkygUbzqqQ36jWwYmN59NN7S",
      "value": 600
    },
    {
      "scriptpubkey": "a914f5c1c5818535cb1a18902e3d05db9995c48097f787",
      "scriptpubkey_asm": "OP_HASH160 OP_PUSHBYTES_20 f5c1c5818535cb1a18902e3d05db9995c48097f7 OP_EQUAL",
      "scriptpubkey_type": "p2sh",
      "scriptpubkey_address": "3Q6Tc2GDyHSkygUbzqqQ36jWwYmN59NN7S",
      "value": 600
    },
    {
      "scriptpubkey": "a914f5c1c5818535cb1a18902e3d05db9995c48097f787",
      "scriptpubkey_asm": "OP_HASH160 OP_PUSHBYTES_20 f5c1c5818535cb1a18902e3d05db9995c48097f7 OP_EQUAL",
      "scriptpubkey_type": "p2sh",
      "scriptpubkey_address": "3Q6Tc2GDyHSkygUbzqqQ36jWwYmN59NN7S",
      "value": 600
    },
    {
      "scriptpubkey": "a914f5c1c5818535cb1a18902e3d05db9995c48097f787",
      "scriptpubkey_asm": "OP_HASH160 OP_PUSHBYTES_20 f5c1c5818535cb1a18902e3d05db9995c48097f7 OP_EQUAL",
      "scriptpubkey_type": "p2sh",
      "scriptpubkey_address": "3Q6Tc2GDyHSkygUbzqqQ36jWwYmN59NN7S",
      "value": 600
    },
    {
      "scriptpubkey": "a914f5c1c5818535cb1a18902e3d05db9995c48097f787",
      "scriptpubkey_asm": "OP_HASH160 OP_PUSHBYTES_20 f5c1c5818535cb1a18902e3d05db9995c48097f7 OP_EQUAL",
      "scriptpubkey_type": "p2sh",
      "scriptpubkey_address": "3Q6Tc2GDyHSkygUbzqqQ36jWwYmN59NN7S",
      "value": 600
    },
    {
      "scriptpubkey": "a914f5c1c5818535cb1a18902e3d05db9995c48097f787",
      "scriptpubkey_asm": "OP_HASH160 OP_PUSHBYTES_20 f5c1c5818535cb1a18902e3d05db9995c48097f7 OP_EQUAL",
      "scriptpubkey_type": "p2sh",
      "scriptpubkey_address": "3Q6Tc2GDyHSkygUbzqqQ36jWwYmN59NN7S",
      "value": 600
    },
    {
      "scriptpubkey": "a914f5c1c5818535cb1a18902e3d05db9995c48097f787",
      "scriptpubkey_asm": "OP_HASH160 OP_PUSHBYTES_20 f5c1c5818535cb1a18902e3d05db9995c48097f7 OP_EQUAL",
      "scriptpubkey_type": "p2sh",
      "scriptpubkey_address": "3Q6Tc2GDyHSkygUbzqqQ36jWwYmN59NN7S",
      "value": 600
    },
    {
      "scriptpubkey": "a914f5c1c5818535cb1a18902e3d05db9995c48097f787",
      "scriptpubkey_asm": "OP_HASH160 OP_PUSHBYTES_20 f5c1c5818535cb1a18902e3d05db9995c48097f7 OP_EQUAL",
      "scriptpubkey_type": "p2sh",
      "scriptpubkey_address": "3Q6Tc2GDyHSkygUbzqqQ36jWwYmN59NN7S",
      "value": 600
    },
    {
      "scriptpubkey": "a914f5c1c5818535cb1a18902e3d05db9995c48097f787",
      "scriptpubkey_asm": "OP_HASH160 OP_PUSHBYTES_20 f5c1c5818535cb1a18902e3d05db9995c48097f7 OP_EQUAL",
      "scriptpubkey_type": "p2sh",
      "scriptpubkey_address": "3Q6Tc2GDyHSkygUbzqqQ36jWwYmN59NN7S",
      "value": 165282
    }
  ],
  "size": 535,
  "weight": 1813,
  "fee": 7718,
  "status": {
    "confirmed": true,
    "block_height": 834638,
    "block_hash": "000000000000000000025f742c626208ac87e0b7d15054abb4a19ca2d735a54e",
    "block_time": 1710405325
  },
  "hex": "02000000000101f4d07e496c04278316e1587a622dcba9b07842679b734bb7d4f7b0e61eefb3e30000000017160014a5937228bff12b7da32fd34aa95a50d7d34785b4ffffffff0b580200000000000017a914f5c1c5818535cb1a18902e3d05db9995c48097f787580200000000000017a914f5c1c5818535cb1a18902e3d05db9995c48097f787580200000000000017a914f5c1c5818535cb1a18902e3d05db9995c48097f787580200000000000017a914f5c1c5818535cb1a18902e3d05db9995c48097f787580200000000000017a914f5c1c5818535cb1a18902e3d05db9995c48097f787580200000000000017a914f5c1c5818535cb1a18902e3d05db9995c48097f787580200000000000017a914f5c1c5818535cb1a18902e3d05db9995c48097f787580200000000000017a914f5c1c5818535cb1a18902e3d05db9995c48097f787580200000000000017a914f5c1c5818535cb1a18902e3d05db9995c48097f787580200000000000017a914f5c1c5818535cb1a18902e3d05db9995c48097f787a28502000000000017a914f5c1c5818535cb1a18902e3d05db9995c48097f7870247304402204fb68257107f8058debbbbd17c9c4b9529eab28b8d0332ed2aa57419352b5600022027d8b84678f048b61337ec94520f84d7a09155d6f6764b5be0b5da61383d7b98012102016f521f750b1066923d9b8945079a3db30706b8fd792efe65081e08e086c55000000000"
}