{
  "txid": "0b63afcbca7fbfae9c7684de73e10266e929e50883a1017429400b6c54694b3c",
  "version": 1,
  "locktime": 0,
  "vin": [
    {
      "txid": "12aebf5bae5b537a3c517b817f5b18f1dd1c1008a414385a27784ad46c501888",
      "vout": 1,
      "prevout": {
        "scriptpubkey": "5120f88100497e2e6ed1029b170af8a936378efe95bfc757af4c95f3db170d24d7cc",
        "scriptpubkey_asm": "OP_PUSHNUM_1 OP_PUSHBYTES_32 f88100497e2e6ed1029b170af8a936378efe95bfc757af4c95f3db170d24d7cc",
        "scriptpubkey_type": "v1_p2tr",
        "scriptpubkey_address": "bc1plzqsqjt79ehdzq5mzu9032fkx780a9dlcat67ny470d3wrfy6lxq6gqkv7",
        "value": 3355296
      },
      "scriptsig": "",
      "scriptsig_asm": "",
      "witness": [
        "c22d64a1122697822f83c3d6a26c864b291daee87b8afd003d835b00a94b9e65d5d0d43b23c1b892fbf61d9d4ec32510e7e1d168540c12b60ba18ca9ff4b1c58"
      ],
      "is_coinbase": false,
      "sequence": 0
    }
  ],
  "vout": [
    {
      "scriptpubkey": "512049b72863ab882d093379f14a1e344e9ad28b052a394130939b840cb044c5a84e",
      "scriptpubkey_asm": "OP_PUSHNUM_1 OP_PUSHBYTES_32 49b72863ab882d093379f14a1e344e9ad28b052a394130939b840cb044c5a84e",
      "scriptpubkey_type": "v1_p2tr",
      "scriptpubkey_address": "bc1pfxmjscat3qksjvme799pudzwntfgkpf289qnpyumssxtq3x94p8qdkhww6",
      "value": 2713
    },
    {
      "scriptpubkey": "5120f88100497e2e6ed1029b170af8a936378efe95bfc757af4c95f3db170d24d7cc",
      "scriptpubkey_asm": "OP_PUSHNUM_1 OP_PUSHBYTES_32 f88100497e2e6ed1029b170af8a936378efe95bfc757af4c95f3db170d24d7cc",
      "scriptpubkey_type": "v1_p2tr",
      "scriptpubkey_address": "bc1plzqsqjt79ehdzq5mzu9032fkx780a9dlcat67ny470d3wrfy6lxq6gqkv7",
      "value": 3350735
    }
  ],
  "size": 205,
  "weight": 616,
  "fee": 1848,
  "status": {
    "confirmed": true,
    "block_height": 834460,
    "block_hash": "00000000000000000000484a79b643b2524bbce82e5d8a442013fa5b8905ed98",
    "block_time": 1710307468
  },
  "hex": "010000000001018818506cd44a78275a3814a408101cddf1185b7f817b513c7a535bae5bbfae1201000000000000000002990a00000000000022512049b72863ab882d093379f14a1e344e9ad28b052a394130939b840cb044c5a84ecf20330000000000225120f88100497e2e6ed1029b170af8a936378efe95bfc757af4c95f3db170d24d7cc0140c22d64a1122697822f83c3d6a26c864b291daee87b8afd003d835b00a94b9e65d5d0d43b23c1b892fbf61d9d4ec32510e7e1d168540c12b60ba18ca9ff4b1c5800000000"
}