{
  "txid": "0b6dc730ba740591cbbdf981a1d8784b7da041773785dd31fe2fcdedf0f10121",
  "version": 2,
  "locktime": 0,
  "vin": [
    {
      "txid": "f7916a89cd43587f3983820ac054002bccc9106ebc17a5b709560a103f02e81a",
      "vout": 2,
      "prevout": {
        "scriptpubkey": "5120c4d6f33b3dabdff90cff99278d6a4d6b57f5307195b4b2e41397c3c02ef49d96",
        "scriptpubkey_asm": "OP_PUSHNUM_1 OP_PUSHBYTES_32 c4d6f33b3dabdff90cff99278d6a4d6b57f5307195b4b2e41397c3c02ef49d96",
        "scriptpubkey_type": "v1_p2tr",
        "scriptpubkey_address": "bc1pcnt0xwea400ljr8lnync66jdddtl2vr3jk6t9eqnjlpuqth5nktqs05r3w",
        "value": 2250000
      },
      "scriptsig": "",
      "scriptsig_asm": "",
      "witness": [
        "23edaf45c6af99db6e0081ada3724b5e5969751ad6bd005ac18846e9e0d7c9ba4478c1729827130396114a850b7a7031e0114e29c7b38836c075597991ffa15e"
      ],
      "is_coinbase": false,
      "sequence": 4294967293
    }
  ],
  "vout": [
    {
      "scriptpubkey": "5120b913e1d5d14c638982390efe1961c1e27045edaebb427587a3764240be903f8e",
      "scriptpubkey_asm": "OP_PUSHNUM_1 OP_PUSHBYTES_32 b913e1d5d14c638982390efe1961c1e27045edaebb427587a3764240be903f8e",
      "scriptpubkey_type": "v1_p2tr",
      "scriptpubkey_address": "bc1phyf7r4w3f33cnq3epmlpjcwpufcytmdwhdp8tparwepyp05s878qk9wkkd",
      "value": 2856
    },
    {
      "scriptpubkey": "5120c4d6f33b3dabdff90cff99278d6a4d6b57f5307195b4b2e41397c3c02ef49d96",
      "scriptpubkey_asm": "OP_PUSHNUM_1 OP_PUSHBYTES_32 c4d6f33b3dabdff90cff99278d6a4d6b57f5307195b4b2e41397c3c02ef49d96",
      "scriptpubkey_type": "v1_p2tr",
      "scriptpubkey_address": "bc1pcnt0xwea400ljr8lnync66jdddtl2vr3jk6t9eqnjlpuqth5nktqs05r3w",
      "value": 2244834
    }
  ],
  "size": 205,
  "weight": 616,
  "fee": 2310,
  "status": {
    "confirmed": true,
    "block_height": 834460,
    "block_hash": "00000000000000000000484a79b643b2524bbce82e5d8a442013fa5b8905ed98",
    "block_time": 1710307468
  },
  "hex": "020000000001011ae8023f100a5609b7a517bc6e10c9cc2b0054c00a8283397f5843cd896a91f70200000000fdffffff02280b000000000000225120b913e1d5d14c638982390efe1961c1e27045edaebb427587a3764240be903f8ee240220000000000225120c4d6f33b3dabdff90cff99278d6a4d6b57f5307195b4b2e41397c3c02ef49d96014023edaf45c6af99db6e0081ada3724b5e5969751ad6bd005ac18846e9e0d7c9ba4478c1729827130396114a850b7a7031e0114e29c7b38836c075597991ffa15e00000000"
}