{
  "txid": "0b730223606fa016fb5f57674158eaf08dac03b91a48d49138f44d6adfc161bf",
  "version": 2,
  "locktime": 0,
  "vin": [
    {
      "txid": "3ab11f6709370a1174d0e436dcc806dc84a3751168de61fc0f9dee4edc0359a5",
      "vout": 0,
      "prevout": {
        "scriptpubkey": "5120c34f089a0503b909e5d14ebea3951a588f5913c608463350f316a6065abc27c4",
        "scriptpubkey_asm": "OP_PUSHNUM_1 OP_PUSHBYTES_32 c34f089a0503b909e5d14ebea3951a588f5913c608463350f316a6065abc27c4",
        "scriptpubkey_type": "v1_p2tr",
        "scriptpubkey_address": "bc1pcd8s3xs9qwusnew3f6l289g6tz84jy7xpprrx58nz6nqvk4uylzq2y20f6",
        "value": 36263
      },
      "scriptsig": "",
      "scriptsig_asm": "",
      "witness": [
        "ebaa957776811a084c39f2074ba59a51949642dad0a1f59c6b7a872ea8c34adb3a0ec62049f8dcbc0c541c032c3f587696109d5fc5408848d9225a7bc2d226bb",
        "20f2d00e1cce0b839d2e197679cac7a15152ec244338032c7767f72c1332d49a65ac0063036f7264010109696d6167652f706e67004d080289504e470d0a1a0a0000000d49484452000000c8000000c80806000000ad58ae9e000000097048597300002e2300002e230178a53f760000123a49444154789ced9dcb8e5e4711c7dbcbf012034228934440042836410807812d10580917c1820d6cd8c0860d6cd864377b242fec57408a849467989d9387f08899459468642f6cd907d5a7f4d0d3ee4b5575f5f5d45f6a79e63b97aeaeaedfa9eaf31d9f319b4aa58acac437a9542a05a4b18c31aca6ea23f5fca040282c63480199040acd2c7da4804c08859660eda4804c0e86ae55ea4a01e13a2eb088ee0d876b8b4a46ea4daac31001d91b1005454e0a08c559c800940c5c85a4af1410aca304aeccd25776cd24f5a58008c3d1baccd192abae14908a70b45c176836a92305a4211cb5615148e4a580a49c4308e4da779ba4ed50e1a49e8a39261148356eed4a4a21919302d2a1b4d2726b1e292021a720e09002a326449a49caa580f80e4904e4285050e1d135095f0a88ef9040c08d00466edf1c280a094f0a48e7b507058a1229203c2920d61185254e8d524a5aa3d83193d423d6118565ce0c8060c7a0fabfd41b08386687c2d7a8768d28f54662edd11284d641aa90e0b47b406281592b538c925946b06106edde13b5ca27a960e364a2d0f1b9732b2461ed1a901670d4008cb25fe867ac0f540a48f7e0a706676e5f6a602b2069edfa32b1022035fda0da3120bd01a002c28148c2174d08027bd76e3d301b1894f160f6c5fa63efdaa5077a43201580d4f3a4faae69e7ccdac5c8fd89ee0d0526f0a40214db7f4bb067d2f223ed0d40af6c530aa482b203407a07746b506a006584c19d4dcb8eae7710b70a36e9805550ae4b0189049654a0d4bce24a9ebb07dc338835aa191c536b827b074aad3e158eb0c89e75276454485a5d0d6b5d617b5dbd357bbcaaac677313d21390904d31fb42508f10d82305e548b64c0588fb73c8193d01b1ffe60096008533ced120a861a35140ae3b32e4e01ef2fbc502121ac7de0283333eb3980f444bacd8eff6b31e4a01eb678ad83ed8edb30323311633d9989baf41dcdffd7d7a890bc8cae5470d5bcd20636b2df40863cee9eda8d4d5cedd2e31b912b0b46e39db4bc7bbbad8b779477254c886da57f9de814f1d07658c35fd369b96002465976490b5b4a1757062fb3283cdfb3480f4761636a066ba3ad60237f41976fc66403f0dffa8c9088ea24ef84ca0944a729c6641ffa4c41edd688ee2c28139769431628519c78b172fb667cf9e292019cd31e39501a19c67245828b69e5f5c6c2f5fbedcee3f78786897979707484e4e4e48633203faa1a696191d25904b03021b2412414481c0b6a3d78faf1ac000203c79f2647bfefcf9d5e78f3ef9f4707e00c5858463d3ca5a6e749889c3ec038103b2c10341c509d616cd05c26f0002c091daee67915cd09b1d6591754796107662dd1add0fac5181e04d0802344a560429200b8b72e573b34749a08d064429244633c8baca05004061757676460a5057fffee8a3edde6f7e3b2c1014507c29200b2b37f9b0a0b56b100a2050e7fb7afbe6ad0324b6ddbe73b779c07ffeaf770e2df4391712a319645da526fef4f4f46aed0170d83b3cb920843b45700b15da679f7d761594b000b6fb001c3d600901128346b3c8abdadd223d0588bd7365b761e08006b74f21f3fcf3c30f0fc16f0330168490597c606a41930244b3485e0a88758431870c62cb2aca5a00b2c67f3efe78fbdbdfff712df85201e803e3c3e237d8470210aa7d26524eeda5cc5a735409c52695bb58768338177c586028e0a4b24ec816df460c280679736145ad39aa46804060419062038f925538f060b245cc4e4eb9657600c97a236a04880d2a7b05b7bf5ba50251129458c6708109d913fa4c0179550a080390d455990a881428a97e7c7b6236c6ca35a319643f92c820a940a40022994d2836c56c8cad718c02b21fb502045bd6480092cb1ebe3d291b436b1c430064b575c85aa3690008361841b1edb50171fb08d994b2115b62999ddccd5a6b340d014905a12fecfa440a0edb07460a485a0a080190d0551aabd095dbfe2b0548aabf9c5d293b8c6690fd889b4152a5542f4072251ec7462db3ae4b33887544e22a097772240311142ab9460144029255b4ce482a6410dbfcc748a4c5cd222d0131091014908594bad2c582403a107d294d080220e34a33c8608050b288a45d391b8c66907ea2de252949e9a96314103940cc22eb10333b18d489191d905e6b90920c0252400484b9ead4864401094b011920836082590191f9a2902a05a42320dcf44b2d8530fd486410c932abf47113099b308fbd182db1ea29b6a8a31c1b3a57ea3cb50191fcc250ea5193926ff931761846f69f5da6f7fa037b1c150a4940428128fdc51c1790524830d9e34801a92fce823a759ed439fdfd627694022259d670e128018402c7916690fae2ae1b28c7bbfbe5ce813d7f2c10a582b214102a24a9712820d7d5bc484c0533b684c22e1831fd4b01521294350089d994b2c1bea1850289abd5d61fa02ea3c05cfd29eb0c6cf62805840a4a6e3f293828b6a5e0e00062168764384042db39c762fac6da25198835e1e0da06c728206175431cbb1ea19655b9ab9614201290d480036ba3bf9f7d49836690c59fc5a2f489b547ea6add0288928601e46867eb90ee23680546a83fac2d9c40c306db6a80ac06c910d66321484d14b52f8a1d0ac8b102328228708440a1f621d57fef0ce2dbc81d8366904133885549504aac4162768c00885429cac9d4479a41faab7492b0e5562b405a06746b480cc2df94391959c358ce9d1c2a249280f40e62c9469907a380b4176762fc6356020463532cb063c7a4ce57320f2161f6994143588e9994dcc2943371187b62766183bb2720b9f1fadbb0f3601880cc0ac9b480484c4d08021cc69e1c88fe3198738d0488fbafbb7fa99f410a88901490310091cc202005642040b0297d960cd2bb29204225562ed86a03422953fcbe240059b14994b220ec9c8cac228ba506cf010433d1b9beb0e30ad9d53b88fd3170fcc105e4e4e4043defbb07c4754489b013c4099e583f1280f8c7f9bec8d9970af4d0b963fb7001a1faffd1279f6ecf9e3dbb06494abb010473052b32047115f3b7bbff62828203512b4062bfb70624973dce2f2eb6b3b33374d0ef0290d4244a0e1e030927abb4048412b8fe3eb173d8cf6b0042f5f9fd070faf00812c727a7a4a9ad76501097d561b90dca46182a21620a1bb59b30012db8e7dc0f2ecececd0a0d402407273bf4b40ece792a060039ed3527d60eca0428af553ecf7d41c70014935184b0a90fb0f1e1ed61f1690972f5f6e2f5ebc40cdfbac7080b256a706870948b4214220a40237d617c6166e992739b65acd8e219741ce2f2e0e900020585fe662685725564f4030415b620b763d44bdd3d61b0ab7614aacf38b8b43e648f92ae5d3a517e923032209492920d860abdda8f6636db682320b16eab98cbd3c20871d89c14a32a2e255916b5f292423005203ea479f7c7acd4fb0504ff9daf7e76c22593c3a20544852f64a0002ef9a5a0d90f38b8b577c6517ef317fbb3e9d4d2c8b4706a40412ce7953c1365b16c9d97bffc1c36beb0fb8c50b65d6f3e7cfd1fe9e4ddd01e1066bead8d4242b20654d080219e4e8f5e3edbfe7e7575f165a48fc2c12f3f56caa0288d4795a5ce93583d00139f2fc0699051ac5bfb3685840b0fd4881929b584eb9b25a897514f10fc79fb3886da9c495011bfcfebeb9632520f1cf132a21141043f2f18c9014595932504c06ea0508dca9b1cf1841b3df1c2b20c7c5d975b672ab9b75d80c1403c6dd260d0a640b58785a48e05eff93274f1490d7d381be22245d2cc3640f7f5fffe7d8366a0b4d9cfb0837fc0eb7360190d84274ef6b102304ca886a6e552e6063fb877e970024d4e0f109abc78f1f1f0081a6801c07833be4ff52d046d15080a4f6c7fc2e0989fbc42a0800a15c8d6fdfb9bb9b0c62c5852406ca083223670ff718cc79317d501aac43ace0674a06a106dcaa7f61ca4c9e4dccc870b8c762ce8de907e3f0d07ef0388502729c052435073382d2a4d7d4802500c1f657e26cc820354b96119ad41fd0590992ea3dc6aeeeee76ca39a8fdc680e4385b01394603929a8752485a8252b5a754e9e36fc79ea72524760d02df837016ea7bce20be66cd244d00890d8e3250ae534a4a3b7b270bf6b390506ff5f60efa5100017100e90d89e90907c7b95276601c0d50b86feea066911501310581ca8143a2df1255e90533985680f8c7522001182e2f2fd9573e05e4ba1490cca321bea3a892ba72503309b77e5640ae8be23fdfdf4b6410ec207a03e29e4b0119b3c432910bd252808c2e2ad09a418e9bae41ecfe4d08025f79edb5e0e72d64f60a074801a13d3b660aef26f980e480c965911612e9a5577d28a19a1904828e73c7a647c33c9e6f2a018285c46693a90099190eacfd0ac8f1e11d5f5280c416de35a01ce2bfdcce0886956bfbde0189d9fbf6cd5bdb1ffef8a7c3f6d2604d0112f2edb48060026b16690639cec2f1f6976f89940224d75290b494d91b1c217b7393be870ce2db0a40dcfb725de2be42b51620a96d3dab1471405a0d127bd54f1dc739df1e00b159e35e60d12e359fb1738c04c7c11ef20105f44b0d947ac5cf7d9edbb63a20ee1dac50d638aa00c82c2a0624f63906104c3062b663415040c280000cf67b10ceb7e92b8b343a4a50521bb61fcef6dce798ed2b6710b0d35d885300b971e3c6b6b28a00c1ec973a9e021ae6fcd8be52c7ee09109b35a8761acd20f28060cb2c0e449280846c6a0108f5851025cdbd43c539de28206300823d17a65ce21c93da260d48e88fd0d468b945b802c22cb128570d4ae9c4c920a9fd2400b13fb70404fe7396fd33cbd437c9636d917a1daad10c322620d84c81b52374ae102c2d008177ff72de019c6bee771a127f33d1104ad515d42c8384ce113a67ee388a6d984ce17f1edbc7ef031370d4c5affdfb7fd437c9c7c0b01943f2668151406801c80504f31926a873f651ce9502d5ef23f628861fa094e0837508a83483d8dbb6d277d10c32abafa46e80a4023917d4d812ac26202e08bff8d5afb79f4d0802bfffc1f6c39ffcf4ea736cbd0feb0efb5a53fb1e2eee1ac45d67d4f813d44601a103920a34cab61c20f6f31420a5a200e24202ed1bdffcd6f6d677bfb77dfb9d9bdbbbeffd78fbe077bf3f80930b3a00030081b2ca0a7ea74062b315e5cb3e85a351064905662ec38ca45c16cb01e2b7afbff9d621a37cfff67ba86004205c40b02fcbaeb1cec0660e33d81c0e0bc80a8ecac14f05c4b6af1ebfb17de7dd1f6c777f796ffbd19d3bd1fddc0c02a516b4d4625df2b62d170eb3c0bc3703647667496710bf7ded8d37b75bb76f6f3f7bfffd2028f60e96fd2ec4def2859fddb2297773a0251866f2396f5a629580320268982b646c1f6af0c182de2f8d00043763d8b5c9d3a74f0ffbd45e806bd6a80048689b1424a9ab568d74df12905036086d07483effe28bedcf7ff96b133052d963af6201922bb35a3a170356ce8e94fd98be4a03d266070b800b0ec0d1faa96085a32220b16dbd95b2830a550d48dc4742dcd2cb96570a471f999aa507ca00c1ef2f28f0e6ec4fd9562b9300247e19c5f9465e4bab0100c1429203805222711ba77fbb8d724cadc055402606a46690d68282d237e5b8990129f1e1ca2a0204135c3d835f626c9ce36b00527b1da2807400c40f300e58352505636d48306f5e97864333081390d06798ec41d508d96314406a97590a4885dbbc94e02a09f2d20c16eb130b7ba99da39759a939535506c4773225784baede94404d0802970224762ea940ae75bbb746765e49d500f18f93382705044cf6c0d8c1726ac52c22f9b889c4585757f5124bf26acec952b13eb07d72542b93482fd61590bcd0114001807a45cff5830d5e0a84d8beb8aa058914200a074ea408c0668b92e0e30666091c297b4b54031289c5bac28117390224aeeab58210bb2f661ca576d58284b2588fbd844e01c18b150598c0c2eec315b50cc3ee2f0d48acef168b75fbbf13150ebecc28015ad26f6c3bd5d6968094404279a590fba646cd1c741545412e73e48e099d4302bcd4364aff924af553abcc0240e0e50ff05f77cfceceb69393936ae35b55c55ec206a7fb39e57cd20ddb570d4942925aac43c680d20afe85973f400340140eba4422817b05a766895cbfa900e042342a20a9ef442c18505ed9b7355e5e5e6ae66048341a4aca1da9a096ca2e352599455277b0a0c4b23a3d3d6d3ac65524eeb15c007202b33413f506823a26a9bb595056f9fda968aae6b15a413d1b083521c9ddcd72c76e5f4ca7a2a96af4280c7c1f95decd8273b81944c55393cbeb6a577e69956691101c704bd72ed0557c7589c2bd0150b3dc0addee8563e0ae15484bab3269940e262a24fe3ac4ee0f806889552e05647240dcef43f65ca6d6927a70912c120244552ef5e2026b120044b3471d2920830a7397cf5f7768f69097023281a880a8e4a4de9c44fafd511f29209349bf5c6d2b056442e9d307eda4804c2a5d9840b7910232b974715e570ac8e4d23b5775a580a8540929202a55420a884a959002a25225a480a8545b1c90ff0111aa093bde68baca0000000049454e44ae426082680063036f726401011e6170706c69636174696f6e2f6a736f6e3b636861727365743d7574662d38004d5e017b2270223a22766f7264222c2276223a312c227479223a22696e7363222c22636f6c223a2262383533613639326462393765393436363865303137323138346466393431326161306136336331616334626138656531333634646138663834366637306232222c22696964223a2252756e65746172647373222c227075626c223a2231455337623370636a527a4667796969714c7278484b546e43686535364c4a485937222c226e6f6e6365223a353431382c226d696e746572223a226263317074366571617936353871676a6c6d6d757677366d786e357a34396334746439636b6c687a743373796c7a6b7275353637673673717470766d6e36222c22736967223a22484f68584c3452734e7a4a73505538336b456c7237596d575843326b777676766b59367275514c444b396d785032313533386f314f6d4d63644c35624f69325755374d2b41346d557349446678656368616950714f68673d227d68",
        "c1f2d00e1cce0b839d2e197679cac7a15152ec244338032c7767f72c1332d49a65675a92934efa5e4869b2432a3e00abfc6819367af43949c2edc693b32d23ac05"
      ],
      "is_coinbase": false,
      "sequence": 4294967293
    }
  ],
  "vout": [
    {
      "scriptpubkey": "51205eb20e935438112fef7c63b5b34e82a97155b4b8b7ee25c604f8ac3e535e46a0",
      "scriptpubkey_asm": "OP_PUSHNUM_1 OP_PUSHBYTES_32 5eb20e935438112fef7c63b5b34e82a97155b4b8b7ee25c604f8ac3e535e46a0",
      "scriptpubkey_type": "v1_p2tr",
      "scriptpubkey_address": "bc1pt6eqay658qgjlmmuvw6mxn5z49c4td9cklhzt3sylzkru567g6sqtpvmn6",
      "value": 1000
    },
    {
      "scriptpubkey": "a914d88afa5bba84515ecba75b9367582017e50045ea87",
      "scriptpubkey_asm": "OP_HASH160 OP_PUSHBYTES_20 d88afa5bba84515ecba75b9367582017e50045ea OP_EQUAL",
      "scriptpubkey_type": "p2sh",
      "scriptpubkey_address": "3MRzNLWfwW82tYdyTRBeu7xzBNSV8cZ6Lb",
      "value": 15733
    },
    {
      "scriptpubkey": "51200705a5767db892e98125775049b1a13dd9ecdc8aea0df413cabbee683e871012",
      "scriptpubkey_asm": "OP_PUSHNUM_1 OP_PUSHBYTES_32 0705a5767db892e98125775049b1a13dd9ecdc8aea0df413cabbee683e871012",
      "scriptpubkey_type": "v1_p2tr",
      "scriptpubkey_address": "bc1pquz62anahzfwnqf9wagynvdp8hv7ehy2agxlgy72h0hxs058zqfqk8ksyq",
      "value": 2931
    }
  ],
  "size": 5526,
  "weight": 6033,
  "fee": 16599,
  "status": {
    "confirmed": true,
    "block_height": 834464,
    "block_hash": "0000000000000000000177a0869a911a2b65c9bdcd5a8bcb02b68f305bee848e",
    "block_time": 1710308296
  },
  "hex": "02000000000101a55903dc4eee9d0ffc61de681175a384dc06c8dc36e4d074110a3709671fb13a0000000000fdffffff03e8030000000000002251205eb20e935438112fef7c63b5b34e82a97155b4b8b7ee25c604f8ac3e535e46a0753d00000000000017a914d88afa5bba84515ecba75b9367582017e50045ea87730b0000000000002251200705a5767db892e98125775049b1a13dd9ecdc8aea0df413cabbee683e8710120340ebaa957776811a084c39f2074ba59a51949642dad0a1f59c6b7a872ea8c34adb3a0ec62049f8dcbc0c541c032c3f587696109d5fc5408848d9225a7bc2d226bbfd641420f2d00e1cce0b839d2e197679cac7a15152ec244338032c7767f72c1332d49a65ac0063036f7264010109696d6167652f706e67004d080289504e470d0a1a0a0000000d49484452000000c8000000c80806000000ad58ae9e000000097048597300002e2300002e230178a53f760000123a49444154789ced9dcb8e5e4711c7dbcbf012034228934440042836410807812d10580917c1820d6cd8c0860d6cd864377b242fec57408a849467989d9387f08899459468642f6cd907d5a7f4d0d3ee4b5575f5f5d45f6a79e63b97aeaeaedfa9eaf31d9f319b4aa58acac437a9542a05a4b18c31aca6ea23f5fca040282c63480199040acd2c7da4804c08859660eda4804c0e86ae55ea4a01e13a2eb088ee0d876b8b4a46ea4daac31001d91b1005454e0a08c559c800940c5c85a4af1410aca304aeccd25776cd24f5a58008c3d1baccd192abae14908a70b45c176836a92305a4211cb5615148e4a580a49c4308e4da779ba4ed50e1a49e8a39261148356eed4a4a21919302d2a1b4d2726b1e292021a720e09002a326449a49caa580f80e4904e4285050e1d135095f0a88ef9040c08d00466edf1c280a094f0a48e7b507058a1229203c2920d61185254e8d524a5aa3d83193d423d6118565ce0c8060c7a0fabfd41b08386687c2d7a8768d28f54662edd11284d641aa90e0b47b406281592b538c925946b06106edde13b5ca27a960e364a2d0f1b9732b2461ed1a901670d4008cb25fe867ac0f540a48f7e0a706676e5f6a602b2069edfa32b1022035fda0da3120bd01a002c28148c2174d08027bd76e3d301b1894f160f6c5fa63efdaa5077a43201580d4f3a4faae69e7ccdac5c8fd89ee0d0526f0a40214db7f4bb067d2f223ed0d40af6c530aa482b203407a07746b506a006584c19d4dcb8eae7710b70a36e9805550ae4b0189049654a0d4bce24a9ebb07dc338835aa191c536b827b074aad3e158eb0c89e75276454485a5d0d6b5d617b5dbd357bbcaaac677313d21390904d31fb42508f10d82305e548b64c0588fb73c8193d01b1ffe60096008533ced120a861a35140ae3b32e4e01ef2fbc502121ac7de0283333eb3980f444bacd8eff6b31e4a01eb678ad83ed8edb30323311633d9989baf41dcdffd7d7a890bc8cae5470d5bcd20636b2df40863cee9eda8d4d5cedd2e31b912b0b46e39db4bc7bbbad8b779477254c886da57f9de814f1d07658c35fd369b96002465976490b5b4a1757062fb3283cdfb3480f4761636a066ba3ad60237f41976fc66403f0dffa8c9088ea24ef84ca0944a729c6641ffa4c41edd688ee2c28139769431628519c78b172fb667cf9e292019cd31e39501a19c67245828b69e5f5c6c2f5fbedcee3f78786897979707484e4e4e48633203faa1a696191d25904b03021b2412414481c0b6a3d78faf1ac000203c79f2647bfefcf9d5e78f3ef9f4707e00c5858463d3ca5a6e749889c3ec038103b2c10341c509d616cd05c26f0002c091daee67915cd09b1d6591754796107662dd1add0fac5181e04d0802344a560429200b8b72e573b34749a08d064429244633c8baca05004061757676460a5057fffee8a3edde6f7e3b2c1014507c29200b2b37f9b0a0b56b100a2050e7fb7afbe6ad0324b6ddbe73b779c07ffeaf770e2df4391712a319645da526fef4f4f46aed0170d83b3cb920843b45700b15da679f7d761594b000b6fb001c3d600901128346b3c8abdadd223d0588bd7365b761e08006b74f21f3fcf3c30f0fc16f0330168490597c606a41930244b3485e0a88758431870c62cb2aca5a00b2c67f3efe78fbdbdfff712df85201e803e3c3e237d8470210aa7d26524eeda5cc5a735409c52695bb58768338177c586028e0a4b24ec816df460c280679736145ad39aa46804060419062038f925538f060b245cc4e4eb9657600c97a236a04880d2a7b05b7bf5ba50251129458c6708109d913fa4c0179550a080390d455990a881428a97e7c7b6236c6ca35a319643f92c820a940a40022994d2836c56c8cad718c02b21fb502045bd6480092cb1ebe3d291b436b1c430064b575c85aa3690008361841b1edb50171fb08d994b2115b62999ddccd5a6b340d014905a12fecfa440a0edb07460a485a0a080190d0551aabd095dbfe2b0548aabf9c5d293b8c6690fd889b4152a5542f4072251ec7462db3ae4b33887544e22a097772240311142ab9460144029255b4ce482a6410dbfcc748a4c5cd222d0131091014908594bad2c582403a107d294d080220e34a33c8608050b288a45d391b8c66907ea2de252949e9a96314103940cc22eb10333b18d489191d905e6b90920c0252400484b9ead4864401094b011920836082590191f9a2902a05a42320dcf44b2d8530fd486410c932abf47113099b308fbd182db1ea29b6a8a31c1b3a57ea3cb50191fcc250ea5193926ff931761846f69f5da6f7fa037b1c150a4940428128fdc51c1790524830d9e34801a92fce823a759ed439fdfd627694022259d670e128018402c7916690fae2ae1b28c7bbfbe5ce813d7f2c10a582b214102a24a9712820d7d5bc484c0533b684c22e1831fd4b01521294350089d994b2c1bea1850289abd5d61fa02ea3c05cfd29eb0c6cf62805840a4a6e3f293828b6a5e0e00062168764384042db39c762fac6da25198835e1e0da06c728206175431cbb1ea19655b9ab9614201290d480036ba3bf9f7d49836690c59fc5a2f489b547ea6add0288928601e46867eb90ee23680546a83fac2d9c40c306db6a80ac06c910d66321484d14b52f8a1d0ac8b102328228708440a1f621d57fef0ce2dbc81d8366904133885549504aac4162768c00885429cac9d4479a41faab7492b0e5562b405a06746b480cc2df94391959c358ce9d1c2a249280f40e62c9469907a380b4176762fc6356020463532cb063c7a4ce57320f2161f6994143588e9994dcc2943371187b62766183bb2720b9f1fadbb0f3601880cc0ac9b480484c4d08021cc69e1c88fe3198738d0488fbafbb7fa99f410a88901490310091cc202005642040b0297d960cd2bb29204225562ed86a03422953fcbe240059b14994b220ec9c8cac228ba506cf010433d1b9beb0e30ad9d53b88fd3170fcc105e4e4e4043defbb07c4754489b013c4099e583f1280f8c7f9bec8d9970af4d0b963fb7001a1faffd1279f6ecf9e3dbb06494abb010473052b32047115f3b7bbff62828203512b4062bfb70624973dce2f2eb6b3b33374d0ef0290d4244a0e1e030927abb4048412b8fe3eb173d8cf6b0042f5f9fd070faf00812c727a7a4a9ad76501097d561b90dca46182a21620a1bb59b30012db8e7dc0f2ecececd0a0d402407273bf4b40ece792a060039ed3527d60eca0428af553ecf7d41c70014935184b0a90fb0f1e1ed61f1690972f5f6e2f5ebc40cdfbac7080b256a706870948b4214220a40237d617c6166e992739b65acd8e219741ce2f2e0e900020585fe662685725564f4030415b620b763d44bdd3d61b0ab7614aacf38b8b43e648f92ae5d3a517e923032209492920d860abdda8f6636db682320b16eab98cbd3c20871d89c14a32a2e255916b5f292423005203ea479f7c7acd4fb0504ff9daf7e76c22593c3a20544852f64a0002ef9a5a0d90f38b8b577c6517ef317fbb3e9d4d2c8b4706a40412ce7953c1365b16c9d97bffc1c36beb0fb8c50b65d6f3e7cfd1fe9e4ddd01e1066bead8d4242b20654d080219e4e8f5e3edbfe7e7575f165a48fc2c12f3f56caa0288d4795a5ce93583d00139f2fc0699051ac5bfb3685840b0fd4881929b584eb9b25a897514f10fc79fb3886da9c495011bfcfebeb9632520f1cf132a21141043f2f18c9014595932504c06ea0508dca9b1cf1841b3df1c2b20c7c5d975b672ab9b75d80c1403c6dd260d0a640b58785a48e05eff93274f1490d7d381be22245d2cc3640f7f5fffe7d8366a0b4d9cfb0837fc0eb7360190d84274ef6b102304ca886a6e552e6063fb877e970024d4e0f109abc78f1f1f0081a6801c07833be4ff52d046d15080a4f6c7fc2e0989fbc42a0800a15c8d6fdfb9bb9b0c62c5852406ca083223670ff718cc79317d501aac43ace0674a06a106dcaa7f61ca4c9e4dccc870b8c762ce8de907e3f0d07ef0388502729c052435073382d2a4d7d4802500c1f657e26cc820354b96119ad41fd0590992ea3dc6aeeeee76ca39a8fdc680e4385b01394603929a8752485a8252b5a754e9e36fc79ea72524760d02df837016ea7bce20be66cd244d00890d8e3250ae534a4a3b7b270bf6b390506ff5f60efa5100017100e90d89e90907c7b95276601c0d50b86feea066911501310581ca8143a2df1255e90533985680f8c7522001182e2f2fd9573e05e4ba1490cca321bea3a892ba72503309b77e5640ae8be23fdfdf4b6410ec207a03e29e4b0119b3c432910bd252808c2e2ad09a418e9bae41ecfe4d08025f79edb5e0e72d64f60a074801a13d3b660aef26f980e480c965911612e9a5577d28a19a1904828e73c7a647c33c9e6f2a018285c46693a90099190eacfd0ac8f1e11d5f5280c416de35a01ce2bfdcce0886956bfbde0189d9fbf6cd5bdb1ffef8a7c3f6d2604d0112f2edb48060026b16690639cec2f1f6976f89940224d75290b494d91b1c217b7393be870ce2db0a40dcfb725de2be42b51620a96d3dab1471405a0d127bd54f1dc739df1e00b159e35e60d12e359fb1738c04c7c11ef20105f44b0d947ac5cf7d9edbb63a20ee1dac50d638aa00c82c2a0624f63906104c3062b663415040c280000cf67b10ceb7e92b8b343a4a50521bb61fcef6dce798ed2b6710b0d35d885300b971e3c6b6b28a00c1ec973a9e021ae6fcd8be52c7ee09109b35a8761acd20f28060cb2c0e449280846c6a0108f5851025cdbd43c539de28206300823d17a65ce21c93da260d48e88fd0d468b945b802c22cb128570d4ae9c4c920a9fd2400b13fb70404fe7396fd33cbd437c9636d917a1daad10c322620d84c81b52374ae102c2d008177ff72de019c6bee771a127f33d1104ad515d42c8384ce113a67ee388a6d984ce17f1edbc7ef031370d4c5affdfb7fd437c9c7c0b01943f2668151406801c80504f31926a873f651ce9502d5ef23f628861fa094e0837508a83483d8dbb6d277d10c32abafa46e80a4023917d4d812ac26202e08bff8d5afb79f4d0802bfffc1f6c39ffcf4ea736cbd0feb0efb5a53fb1e2eee1ac45d67d4f813d44601a103920a34cab61c20f6f31420a5a200e24202ed1bdffcd6f6d677bfb77dfb9d9bdbbbeffd78fbe077bf3f80930b3a00030081b2ca0a7ea74062b315e5cb3e85a351064905662ec38ca45c16cb01e2b7afbff9d621a37cfff67ba86004205c40b02fcbaeb1cec0660e33d81c0e0bc80a8ecac14f05c4b6af1ebfb17de7dd1f6c777f796ffbd19d3bd1fddc0c02a516b4d4625df2b62d170eb3c0bc3703647667496710bf7ded8d37b75bb76f6f3f7bfffd2028f60e96fd2ec4def2859fddb2297773a0251866f2396f5a629580320268982b646c1f6af0c182de2f8d00043763d8b5c9d3a74f0ffbd45e806bd6a80048689b1424a9ab568d74df12905036086d07483effe28bedcf7ff96b133052d963af6201922bb35a3a170356ce8e94fd98be4a03d266070b800b0ec0d1faa96085a32220b16dbd95b2830a550d48dc4742dcd2cb96570a471f999aa507ca00c1ef2f28f0e6ec4fd9562b9300247e19c5f9465e4bab0100c1429203805222711ba77fbb8d724cadc055402606a46690d68282d237e5b8990129f1e1ca2a0204135c3d835f626c9ce36b00527b1da2807400c40f300e58352505636d48306f5e97864333081390d06798ec41d508d96314406a97590a4885dbbc94e02a09f2d20c16eb130b7ba99da39759a939535506c4773225784baede94404d0802970224762ea940ae75bbb746765e49d500f18f93382705044cf6c0d8c1726ac52c22f9b889c4585757f5124bf26acec952b13eb07d72542b93482fd61590bcd0114001807a45cff5830d5e0a84d8beb8aa058914200a074ea408c0668b92e0e30666091c297b4b54031289c5bac28117390224aeeab58210bb2f661ca576d58284b2588fbd844e01c18b150598c0c2eec315b50cc3ee2f0d48acef168b75fbbf13150ebecc28015ad26f6c3bd5d6968094404279a590fba646cd1c741545412e73e48e099d4302bcd4364aff924af553abcc0240e0e50ff05f77cfceceb69393936ae35b55c55ec206a7fb39e57cd20ddb570d4942925aac43c680d20afe85973f400340140eba4422817b05a766895cbfa900e042342a20a9ef442c18505ed9b7355e5e5e6ae66048341a4aca1da9a096ca2e352599455277b0a0c4b23a3d3d6d3ac65524eeb15c007202b33413f506823a26a9bb595056f9fda968aae6b15a413d1b083521c9ddcd72c76e5f4ca7a2a96af4280c7c1f95decd8273b81944c55393cbeb6a577e69956691101c704bd72ed0557c7589c2bd0150b3dc0addee8563e0ae15484bab3269940e262a24fe3ac4ee0f806889552e05647240dcef43f65ca6d6927a70912c120244552ef5e2026b120044b3471d2920830a7397cf5f7768f69097023281a880a8e4a4de9c44fafd511f29209349bf5c6d2b056442e9d307eda4804c2a5d9840b7910232b974715e570ac8e4d23b5775a580a8540929202a55420a884a959002a25225a480a8545b1c90ff0111aa093bde68baca0000000049454e44ae426082680063036f726401011e6170706c69636174696f6e2f6a736f6e3b636861727365743d7574662d38004d5e017b2270223a22766f7264222c2276223a312c227479223a22696e7363222c22636f6c223a2262383533613639326462393765393436363865303137323138346466393431326161306136336331616334626138656531333634646138663834366637306232222c22696964223a2252756e65746172647373222c227075626c223a2231455337623370636a527a4667796969714c7278484b546e43686535364c4a485937222c226e6f6e6365223a353431382c226d696e746572223a226263317074366571617936353871676a6c6d6d757677366d786e357a34396334746439636b6c687a743373796c7a6b7275353637673673717470766d6e36222c22736967223a22484f68584c3452734e7a4a73505538336b456c7237596d575843326b777676766b59367275514c444b396d785032313533386f314f6d4d63644c35624f69325755374d2b41346d557349446678656368616950714f68673d227d6841c1f2d00e1cce0b839d2e197679cac7a15152ec244338032c7767f72c1332d49a65675a92934efa5e4869b2432a3e00abfc6819367af43949c2edc693b32d23ac0500000000"
}