{
  "txid": "0b73e5b6dac15f3f86904b7de03b5f187736679fcb8dad008ea8d99ef2f7baca",
  "version": 2,
  "locktime": 834458,
  "vin": [
    {
      "txid": "8ca6031f7d20e89d567944241954e09a6a391dfc7ab9282b8492fd6dbdd22622",
      "vout": 6,
      "prevout": {
        "scriptpubkey": "00147c601f89905c86eb327735505f43d9d5337ffbad",
        "scriptpubkey_asm": "OP_0 OP_PUSHBYTES_20 7c601f89905c86eb327735505f43d9d5337ffbad",
        "scriptpubkey_type": "v0_p2wpkh",
        "scriptpubkey_address": "bc1q03splzvstjrwkvnhx4g97s7e65ehl7ad0ag7j6",
        "value": 192250
      },
      "scriptsig": "",
      "scriptsig_asm": "",
      "witness": [
        "3044022057358bb9daef6d50a2211fd726a290d7de06f2bfcee98adb9d01f6493a71cfa3022011330d8e258619d18f39e281adaae2c4594344f1df1b9216aba1e8d579411cc401",
        "032240f40920c828b77285f9789a4a35512decf54932701106e783d0f1bed5090b"
      ],
      "is_coinbase": false,
      "sequence": 4294967293
    },
    {
      "txid": "9b62adb07745b8afb1e48877dc2915f48c5dea19500f8657accd2d41efae5f97",
      "vout": 0,
      "prevout": {
        "scriptpubkey": "0014fc7eb1c303590ac7f748ba6ece98e108642b2e2c",
        "scriptpubkey_asm": "OP_0 OP_PUSHBYTES_20 fc7eb1c303590ac7f748ba6ece98e108642b2e2c",
        "scriptpubkey_type": "v0_p2wpkh",
        "scriptpubkey_address": "bc1ql3ltrscrty9v0a6ghfhvax8pppjzkt3vwf5ngg",
        "value": 1002434
      },
      "scriptsig": "",
      "scriptsig_asm": "",
      "witness": [
        "3044022021cbd9b1da8c5bc7043c942bca7f898d6cc24623514d3d8e9b9e57caadf1bb18022031e96f73ee2c29f8e0afbb826d2d7c56fb5641e33bfa29dec7f385b867b0b8a601",
        "0218cf361f5229ca7fbcfb72ed2b85f9de575b24731768581760681bf861c48355"
      ],
      "is_coinbase": false,
      "sequence": 4294967293
    }
  ],
  "vout": [
    {
      "scriptpubkey": "0014e25cc6bfa2c792628abe20fe8695b7af21f0917c",
      "scriptpubkey_asm": "OP_0 OP_PUSHBYTES_20 e25cc6bfa2c792628abe20fe8695b7af21f0917c",
      "scriptpubkey_type": "v0_p2wpkh",
      "scriptpubkey_address": "bc1qufwvd0azc7fx9z47yrlgd9dh4uslpytutlq98a",
      "value": 1001907
    },
    {
      "scriptpubkey": "0014bedb6af7f86763ffbc56f571de48be714d7dee16",
      "scriptpubkey_asm": "OP_0 OP_PUSHBYTES_20 bedb6af7f86763ffbc56f571de48be714d7dee16",
      "scriptpubkey_type": "v0_p2wpkh",
      "scriptpubkey_address": "bc1qhmdk4alcva3ll0zk74cauj97w9xhmmska4tm57",
      "value": 189851
    }
  ],
  "size": 370,
  "weight": 832,
  "fee": 2926,
  "status": {
    "confirmed": true,
    "block_height": 834460,
    "block_hash": "00000000000000000000484a79b643b2524bbce82e5d8a442013fa5b8905ed98",
    "block_time": 1710307468
  },
  "hex": "020000000001022226d2bd6dfd92842b28b97afc1d396a9ae05419244479569de8207d1f03a68c0600000000fdffffff975faeef412dcdac57860f5019ea5d8cf41529dc7788e4b1afb84577b0ad629b0000000000fdffffff02b3490f0000000000160014e25cc6bfa2c792628abe20fe8695b7af21f0917c9be5020000000000160014bedb6af7f86763ffbc56f571de48be714d7dee1602473044022057358bb9daef6d50a2211fd726a290d7de06f2bfcee98adb9d01f6493a71cfa3022011330d8e258619d18f39e281adaae2c4594344f1df1b9216aba1e8d579411cc40121032240f40920c828b77285f9789a4a35512decf54932701106e783d0f1bed5090b02473044022021cbd9b1da8c5bc7043c942bca7f898d6cc24623514d3d8e9b9e57caadf1bb18022031e96f73ee2c29f8e0afbb826d2d7c56fb5641e33bfa29dec7f385b867b0b8a601210218cf361f5229ca7fbcfb72ed2b85f9de575b24731768581760681bf861c483559abb0c00"
}