{
  "txid": "0b76c0fd4b90994ed02ba9fabe22a434aa99baa8723b1472d260a611fe82c93b",
  "version": 1,
  "locktime": 0,
  "vin": [
    {
      "txid": "2d26eca24ef6830603c90bc2355ed00ea4254f3cf53090a903ccf5ad0c3a5473",
      "vout": 1,
      "prevout": {
        "scriptpubkey": "0014ab94c62254ae0e27256392bdddd47428b9523710",
        "scriptpubkey_asm": "OP_0 OP_PUSHBYTES_20 ab94c62254ae0e27256392bdddd47428b9523710",
        "scriptpubkey_type": "v0_p2wpkh",
        "scriptpubkey_address": "bc1q4w2vvgj54c8zwftrj27am4r59zu4ydcs3803n4",
        "value": 82566
      },
      "scriptsig": "",
      "scriptsig_asm": "",
      "witness": [
        "3044022072cc226ee1ef6972cc70ba02851f1fcb28ec9422532b447810a69e113df996bd0220414de3dc9b2dc8d3525dd7d19a7e0984bee1ed5d8809d498b22e8a6d89eddef501",
        "03f969629df848036b6d6c442f0395366a4889058bcae98bd1dc9ec3c87408783c"
      ],
      "is_coinbase": false,
      "sequence": 4294967295
    }
  ],
  "vout": [
    {
      "scriptpubkey": "a91494a36b20a30815a6bf3a0bc910a32abe9f77ef5787",
      "scriptpubkey_asm": "OP_HASH160 OP_PUSHBYTES_20 94a36b20a30815a6bf3a0bc910a32abe9f77ef57 OP_EQUAL",
      "scriptpubkey_type": "p2sh",
      "scriptpubkey_address": "3FEwhSyxj7pAa7o5NCecgF1eTRdBahk7kj",
      "value": 10100
    },
    {
      "scriptpubkey": "0014ab94c62254ae0e27256392bdddd47428b9523710",
      "scriptpubkey_asm": "OP_0 OP_PUSHBYTES_20 ab94c62254ae0e27256392bdddd47428b9523710",
      "scriptpubkey_type": "v0_p2wpkh",
      "scriptpubkey_address": "bc1q4w2vvgj54c8zwftrj27am4r59zu4ydcs3803n4",
      "value": 68632
    }
  ],
  "size": 223,
  "weight": 565,
  "fee": 3834,
  "status": {
    "confirmed": true,
    "block_height": 834638,
    "block_hash": "000000000000000000025f742c626208ac87e0b7d15054abb4a19ca2d735a54e",
    "block_time": 1710405325
  },
  "hex": "0100000000010173543a0cadf5cc03a99030f53c4f25a40ed05e35c20bc9030683f64ea2ec262d0100000000ffffffff02742700000000000017a91494a36b20a30815a6bf3a0bc910a32abe9f77ef5787180c010000000000160014ab94c62254ae0e27256392bdddd47428b952371002473044022072cc226ee1ef6972cc70ba02851f1fcb28ec9422532b447810a69e113df996bd0220414de3dc9b2dc8d3525dd7d19a7e0984bee1ed5d8809d498b22e8a6d89eddef5012103f969629df848036b6d6c442f0395366a4889058bcae98bd1dc9ec3c87408783c00000000"
}