{
  "txid": "0b7f4326eb4c46a3455e6fd8dc6c103bcb71865e126bc86dfea3b43b6389a8ec",
  "version": 2,
  "locktime": 0,
  "vin": [
    {
      "txid": "175780227e64127574f4093cb575858ec773020d017ecccc721b1237ab91de4c",
      "vout": 0,
      "prevout": {
        "scriptpubkey": "51207dc40e30df7d4f8251cbc5cccee45d5a8f11d0044632c0d33def4a6f25cffe87",
        "scriptpubkey_asm": "OP_PUSHNUM_1 OP_PUSHBYTES_32 7dc40e30df7d4f8251cbc5cccee45d5a8f11d0044632c0d33def4a6f25cffe87",
        "scriptpubkey_type": "v1_p2tr",
        "scriptpubkey_address": "bc1p0hzquvxl048cy5wtchxvaezat283r5qygcevp5eaaa9x7fw0l6rsk943ag",
        "value": 200000
      },
      "scriptsig": "",
      "scriptsig_asm": "",
      "witness": [
        "611268bbacb243af781377c5a685f4a7512f3adb764e39567e37eb38b873a59e267c33abdb18d7f5978ec5da870b2b831eea3fc34aa4433340a716078596c70c"
      ],
      "is_coinbase": false,
      "sequence": 4294967295
    },
    {
      "txid": "f085648f79e482703018c823c88a3119b84f39eb8cc0fc6da6fef10bf3216e23",
      "vout": 0,
      "prevout": {
        "scriptpubkey": "51207dc40e30df7d4f8251cbc5cccee45d5a8f11d0044632c0d33def4a6f25cffe87",
        "scriptpubkey_asm": "OP_PUSHNUM_1 OP_PUSHBYTES_32 7dc40e30df7d4f8251cbc5cccee45d5a8f11d0044632c0d33def4a6f25cffe87",
        "scriptpubkey_type": "v1_p2tr",
        "scriptpubkey_address": "bc1p0hzquvxl048cy5wtchxvaezat283r5qygcevp5eaaa9x7fw0l6rsk943ag",
        "value": 20000
      },
      "scriptsig": "",
      "scriptsig_asm": "",
      "witness": [
        "8c790142e704eac807b738e89f74d844c0261331461b50dce2228d25430e733b53adad9e10e4ad7797ce3ef05389dde062eaf68370ef382c87b81065b22e4be6"
      ],
      "is_coinbase": false,
      "sequence": 4294967295
    },
    {
      "txid": "55c8dfc46873342a07a1207a0f5e8eb80a25c7d2ca2d3747f94ca45276c8af6a",
      "vout": 0,
      "prevout": {
        "scriptpubkey": "51207dc40e30df7d4f8251cbc5cccee45d5a8f11d0044632c0d33def4a6f25cffe87",
        "scriptpubkey_asm": "OP_PUSHNUM_1 OP_PUSHBYTES_32 7dc40e30df7d4f8251cbc5cccee45d5a8f11d0044632c0d33def4a6f25cffe87",
        "scriptpubkey_type": "v1_p2tr",
        "scriptpubkey_address": "bc1p0hzquvxl048cy5wtchxvaezat283r5qygcevp5eaaa9x7fw0l6rsk943ag",
        "value": 20000
      },
      "scriptsig": "",
      "scriptsig_asm": "",
      "witness": [
        "6b7b2bb3fa4a2df2c5b8e5a640cb179db2b99d4566e2ae2d2de873426bf58f471c630c13ba1eeed53fd7ae7e5ec96a188444607b42a8712bc5713732f7daa6e7"
      ],
      "is_coinbase": false,
      "sequence": 4294967295
    },
    {
      "txid": "6f9ea55e9ae436179abf872bcf26d5a619f05e6d5723381f82570d3507b6044c",
      "vout": 0,
      "prevout": {
        "scriptpubkey": "51207dc40e30df7d4f8251cbc5cccee45d5a8f11d0044632c0d33def4a6f25cffe87",
        "scriptpubkey_asm": "OP_PUSHNUM_1 OP_PUSHBYTES_32 7dc40e30df7d4f8251cbc5cccee45d5a8f11d0044632c0d33def4a6f25cffe87",
        "scriptpubkey_type": "v1_p2tr",
        "scriptpubkey_address": "bc1p0hzquvxl048cy5wtchxvaezat283r5qygcevp5eaaa9x7fw0l6rsk943ag",
        "value": 20000
      },
      "scriptsig": "",
      "scriptsig_asm": "",
      "witness": [
        "dc5c611a11fb85db47b0bbfc2cadb71ba43efce28dc35e3682e5cd26f55ba382193d6e9ed94bb889b9c3fcbb9b0127cace236f7ef4cee7030880002cad12916a"
      ],
      "is_coinbase": false,
      "sequence": 4294967295
    },
    {
      "txid": "8c9d86a517823be716430cbeb4bc1078d192de7d3b0ce2f671758423026a150a",
      "vout": 0,
      "prevout": {
        "scriptpubkey": "51207dc40e30df7d4f8251cbc5cccee45d5a8f11d0044632c0d33def4a6f25cffe87",
        "scriptpubkey_asm": "OP_PUSHNUM_1 OP_PUSHBYTES_32 7dc40e30df7d4f8251cbc5cccee45d5a8f11d0044632c0d33def4a6f25cffe87",
        "scriptpubkey_type": "v1_p2tr",
        "scriptpubkey_address": "bc1p0hzquvxl048cy5wtchxvaezat283r5qygcevp5eaaa9x7fw0l6rsk943ag",
        "value": 20000
      },
      "scriptsig": "",
      "scriptsig_asm": "",
      "witness": [
        "d07e2c5c8f42d7253860030605991aa37f49ba6ccb5466df91b41c16a33fff49354bcc289929dbeeeaffdba6adc89c99bdf5067d7d8f80905d1bed2c91fefc8c"
      ],
      "is_coinbase": false,
      "sequence": 4294967295
    },
    {
      "txid": "74eab3ae65ad2043c6cff5687a2b1bd3a87c034601bbc005ce0088fb06b5d41e",
      "vout": 0,
      "prevout": {
        "scriptpubkey": "51207dc40e30df7d4f8251cbc5cccee45d5a8f11d0044632c0d33def4a6f25cffe87",
        "scriptpubkey_asm": "OP_PUSHNUM_1 OP_PUSHBYTES_32 7dc40e30df7d4f8251cbc5cccee45d5a8f11d0044632c0d33def4a6f25cffe87",
        "scriptpubkey_type": "v1_p2tr",
        "scriptpubkey_address": "bc1p0hzquvxl048cy5wtchxvaezat283r5qygcevp5eaaa9x7fw0l6rsk943ag",
        "value": 20000
      },
      "scriptsig": "",
      "scriptsig_asm": "",
      "witness": [
        "d8f8e59819fbbab3e8530f77e3277d8a17d6ba833e36eaaf16e357e16b263949e0e59dee3b39d0eec655e3d608c32ef00bbce12b8f857fdaf4f59cf00b63e63b"
      ],
      "is_coinbase": false,
      "sequence": 4294967295
    },
    {
      "txid": "efface6c01b124d8c8346afec4e77dde260d9971ed80aec611b5065c26f84b8c",
      "vout": 0,
      "prevout": {
        "scriptpubkey": "51207dc40e30df7d4f8251cbc5cccee45d5a8f11d0044632c0d33def4a6f25cffe87",
        "scriptpubkey_asm": "OP_PUSHNUM_1 OP_PUSHBYTES_32 7dc40e30df7d4f8251cbc5cccee45d5a8f11d0044632c0d33def4a6f25cffe87",
        "scriptpubkey_type": "v1_p2tr",
        "scriptpubkey_address": "bc1p0hzquvxl048cy5wtchxvaezat283r5qygcevp5eaaa9x7fw0l6rsk943ag",
        "value": 20000
      },
      "scriptsig": "",
      "scriptsig_asm": "",
      "witness": [
        "de1a6b891de425a1b517c987f02f775afc67b7bf4330e7058df7d485f3033af0ad9266e49de315ed4156744fd9dea8fb808417aed47a9486431c7f0a4112a5ce"
      ],
      "is_coinbase": false,
      "sequence": 4294967295
    },
    {
      "txid": "5d0985dd363f6a2865e61758e99205ee97d953ade1a0ed067db2a06f869a5ff8",
      "vout": 0,
      "prevout": {
        "scriptpubkey": "51207dc40e30df7d4f8251cbc5cccee45d5a8f11d0044632c0d33def4a6f25cffe87",
        "scriptpubkey_asm": "OP_PUSHNUM_1 OP_PUSHBYTES_32 7dc40e30df7d4f8251cbc5cccee45d5a8f11d0044632c0d33def4a6f25cffe87",
        "scriptpubkey_type": "v1_p2tr",
        "scriptpubkey_address": "bc1p0hzquvxl048cy5wtchxvaezat283r5qygcevp5eaaa9x7fw0l6rsk943ag",
        "value": 20000
      },
      "scriptsig": "",
      "scriptsig_asm": "",
      "witness": [
        "f92c5993f073e31eba7146d56e79c28165b21ccbb56004678cde4a7a3963cf927ceb8fa1b28a6cea75b517c896ed74163a09ae0013788e33307bed145a79a53a"
      ],
      "is_coinbase": false,
      "sequence": 4294967295
    },
    {
      "txid": "f6aea5afca0a4ac629d865657107c4e86cab197c6c0b7b64e57c5a2f488bd973",
      "vout": 0,
      "prevout": {
        "scriptpubkey": "51207dc40e30df7d4f8251cbc5cccee45d5a8f11d0044632c0d33def4a6f25cffe87",
        "scriptpubkey_asm": "OP_PUSHNUM_1 OP_PUSHBYTES_32 7dc40e30df7d4f8251cbc5cccee45d5a8f11d0044632c0d33def4a6f25cffe87",
        "scriptpubkey_type": "v1_p2tr",
        "scriptpubkey_address": "bc1p0hzquvxl048cy5wtchxvaezat283r5qygcevp5eaaa9x7fw0l6rsk943ag",
        "value": 20000
      },
      "scriptsig": "",
      "scriptsig_asm": "",
      "witness": [
        "1aecb0ca6be0b1f5dbd684d9ac0039591e30e38ebd7e115e81b5c82ca1b8df30767669d28c6c2eede10637f39af89f89d335628da73d0e69d8b33b7e04df7968"
      ],
      "is_coinbase": false,
      "sequence": 4294967295
    },
    {
      "txid": "c2788f8e0fa1960ad635ad8c9348a840c8d01ad48daf828ff5e1ab2345619441",
      "vout": 0,
      "prevout": {
        "scriptpubkey": "51207dc40e30df7d4f8251cbc5cccee45d5a8f11d0044632c0d33def4a6f25cffe87",
        "scriptpubkey_asm": "OP_PUSHNUM_1 OP_PUSHBYTES_32 7dc40e30df7d4f8251cbc5cccee45d5a8f11d0044632c0d33def4a6f25cffe87",
        "scriptpubkey_type": "v1_p2tr",
        "scriptpubkey_address": "bc1p0hzquvxl048cy5wtchxvaezat283r5qygcevp5eaaa9x7fw0l6rsk943ag",
        "value": 20000
      },
      "scriptsig": "",
      "scriptsig_asm": "",
      "witness": [
        "b37391aa4ed94ca606a6e019f21912bef1fd01b52328a00fefa88d13b6a46b35a0b88c02e412c11cbd04f43df6a32586727c6dcca9c1aaa6b37521278e5ff365"
      ],
      "is_coinbase": false,
      "sequence": 4294967295
    },
    {
      "txid": "920839ef985f69bd64f75aaa997b5bd7660321f055dd4c4dc24cab1bdd617556",
      "vout": 0,
      "prevout": {
        "scriptpubkey": "51207dc40e30df7d4f8251cbc5cccee45d5a8f11d0044632c0d33def4a6f25cffe87",
        "scriptpubkey_asm": "OP_PUSHNUM_1 OP_PUSHBYTES_32 7dc40e30df7d4f8251cbc5cccee45d5a8f11d0044632c0d33def4a6f25cffe87",
        "scriptpubkey_type": "v1_p2tr",
        "scriptpubkey_address": "bc1p0hzquvxl048cy5wtchxvaezat283r5qygcevp5eaaa9x7fw0l6rsk943ag",
        "value": 20000
      },
      "scriptsig": "",
      "scriptsig_asm": "",
      "witness": [
        "4341d5841eb7b0c922b26731d77a2bc70a016714ed1472593de20c58fa4f11b6783b9ef5b13937ede0527b3128c7eade41cc8407b9e2bb4ec0ec024999f8d874"
      ],
      "is_coinbase": false,
      "sequence": 4294967295
    },
    {
      "txid": "da80e53b755394a5f51457fbc20560019ed4f3f160cee34dad15eed1e3f1fc02",
      "vout": 0,
      "prevout": {
        "scriptpubkey": "51207dc40e30df7d4f8251cbc5cccee45d5a8f11d0044632c0d33def4a6f25cffe87",
        "scriptpubkey_asm": "OP_PUSHNUM_1 OP_PUSHBYTES_32 7dc40e30df7d4f8251cbc5cccee45d5a8f11d0044632c0d33def4a6f25cffe87",
        "scriptpubkey_type": "v1_p2tr",
        "scriptpubkey_address": "bc1p0hzquvxl048cy5wtchxvaezat283r5qygcevp5eaaa9x7fw0l6rsk943ag",
        "value": 20000
      },
      "scriptsig": "",
      "scriptsig_asm": "",
      "witness": [
        "5277f58bc64a73a94022917dbf073e5b241aea0b7b5dc9296de6be64e2cda7b255838c77cf11dc08c825acee33166d2aaccbe1a7fb9ea534a973fe2399634c9f"
      ],
      "is_coinbase": false,
      "sequence": 4294967295
    },
    {
      "txid": "409951e6c5481d21e9382c6b7f015cf82940fc0ab7eec8584a3d065444370f75",
      "vout": 0,
      "prevout": {
        "scriptpubkey": "51207dc40e30df7d4f8251cbc5cccee45d5a8f11d0044632c0d33def4a6f25cffe87",
        "scriptpubkey_asm": "OP_PUSHNUM_1 OP_PUSHBYTES_32 7dc40e30df7d4f8251cbc5cccee45d5a8f11d0044632c0d33def4a6f25cffe87",
        "scriptpubkey_type": "v1_p2tr",
        "scriptpubkey_address": "bc1p0hzquvxl048cy5wtchxvaezat283r5qygcevp5eaaa9x7fw0l6rsk943ag",
        "value": 20000
      },
      "scriptsig": "",
      "scriptsig_asm": "",
      "witness": [
        "d6a007454d130ef1c9ef84f35d023e6ad83ded397c1c72280b6909f891baa778a9fca4b4e2728f4fff6c7f0e9c6f1f2af741b321247f4a59ff2ab554106ba7e3"
      ],
      "is_coinbase": false,
      "sequence": 4294967295
    },
    {
      "txid": "003b11f1b0c073211e1e6a4326f704394881489aaa2cf48c203ad4a501346d06",
      "vout": 1,
      "prevout": {
        "scriptpubkey": "51207dc40e30df7d4f8251cbc5cccee45d5a8f11d0044632c0d33def4a6f25cffe87",
        "scriptpubkey_asm": "OP_PUSHNUM_1 OP_PUSHBYTES_32 7dc40e30df7d4f8251cbc5cccee45d5a8f11d0044632c0d33def4a6f25cffe87",
        "scriptpubkey_type": "v1_p2tr",
        "scriptpubkey_address": "bc1p0hzquvxl048cy5wtchxvaezat283r5qygcevp5eaaa9x7fw0l6rsk943ag",
        "value": 1364064
      },
      "scriptsig": "",
      "scriptsig_asm": "",
      "witness": [
        "e6d586a4d9374eb6cb0752d28b7064e20abcfb3e8f11962a325acee0bc09ff5b8eced13c6732694dd114699c34e7d8114db53988aaf308e184081bac3bbae29f"
      ],
      "is_coinbase": false,
      "sequence": 4294967295
    }
  ],
  "vout": [
    {
      "scriptpubkey": "5120cb9df43f7c8a967c88c9b120a05eb232b7cdaea3bf8a04450f56a88113bd3253",
      "scriptpubkey_asm": "OP_PUSHNUM_1 OP_PUSHBYTES_32 cb9df43f7c8a967c88c9b120a05eb232b7cdaea3bf8a04450f56a88113bd3253",
      "scriptpubkey_type": "v1_p2tr",
      "scriptpubkey_address": "bc1pewwlg0mu32t8ezxfkys2qh4jx2mumt4rh79qg3g0265gzyaaxffsd43vf5",
      "value": 440000
    },
    {
      "scriptpubkey": "51207dc40e30df7d4f8251cbc5cccee45d5a8f11d0044632c0d33def4a6f25cffe87",
      "scriptpubkey_asm": "OP_PUSHNUM_1 OP_PUSHBYTES_32 7dc40e30df7d4f8251cbc5cccee45d5a8f11d0044632c0d33def4a6f25cffe87",
      "scriptpubkey_type": "v1_p2tr",
      "scriptpubkey_address": "bc1p0hzquvxl048cy5wtchxvaezat283r5qygcevp5eaaa9x7fw0l6rsk943ag",
      "value": 1349616
    }
  ],
  "size": 1596,
  "weight": 3606,
  "fee": 14448,
  "status": {
    "confirmed": true,
    "block_height": 834638,
    "block_hash": "000000000000000000025f742c626208ac87e0b7d15054abb4a19ca2d735a54e",
    "block_time": 1710405325
  },
  "hex": "0200000000010e4cde91ab37121b72cccc7e010d0273c78e8575b53c09f4747512647e228057170000000000ffffffff236e21f30bf1fea66dfcc08ceb394fb819318ac823c818307082e4798f6485f00000000000ffffffff6aafc87652a44cf947372dcad2c7250ab88e5e0f7a20a1072a347368c4dfc8550000000000ffffffff4c04b607350d57821f3823576d5ef019a6d526cf2b87bf9a1736e49a5ea59e6f0000000000ffffffff0a156a0223847571f6e20c3b7dde92d17810bcb4be0c4316e73b8217a5869d8c0000000000ffffffff1ed4b506fb8800ce05c0bb0146037ca8d31b2b7a68f5cfc64320ad65aeb3ea740000000000ffffffff8c4bf8265c06b511c6ae80ed71990d26de7de7c4fe6a34c8d824b1016ccefaef0000000000fffffffff85f9a866fa0b27d06eda0e1ad53d997ee0592e95817e665286a3f36dd85095d0000000000ffffffff73d98b482f5a7ce5647b0b6c7c19ab6ce8c407716565d829c64a0acaafa5aef60000000000ffffffff4194614523abe1f58f82af8dd41ad0c840a848938cad35d60a96a10f8e8f78c20000000000ffffffff567561dd1bab4cc24d4cdd55f0210366d75b7b99aa5af764bd695f98ef3908920000000000ffffffff02fcf1e3d1ee15ad4de3ce60f1f3d49e016005c2fb5714f5a59453753be580da0000000000ffffffff750f374454063d4a58c8eeb70afc4029f85c017f6b2c38e9211d48c5e65199400000000000ffffffff066d3401a5d43a208cf42caa9a4881483904f726436a1e1e2173c0b0f1113b000100000000ffffffff02c0b6060000000000225120cb9df43f7c8a967c88c9b120a05eb232b7cdaea3bf8a04450f56a88113bd3253f0971400000000002251207dc40e30df7d4f8251cbc5cccee45d5a8f11d0044632c0d33def4a6f25cffe870140611268bbacb243af781377c5a685f4a7512f3adb764e39567e37eb38b873a59e267c33abdb18d7f5978ec5da870b2b831eea3fc34aa4433340a716078596c70c01408c790142e704eac807b738e89f74d844c0261331461b50dce2228d25430e733b53adad9e10e4ad7797ce3ef05389dde062eaf68370ef382c87b81065b22e4be601406b7b2bb3fa4a2df2c5b8e5a640cb179db2b99d4566e2ae2d2de873426bf58f471c630c13ba1eeed53fd7ae7e5ec96a188444607b42a8712bc5713732f7daa6e70140dc5c611a11fb85db47b0bbfc2cadb71ba43efce28dc35e3682e5cd26f55ba382193d6e9ed94bb889b9c3fcbb9b0127cace236f7ef4cee7030880002cad12916a0140d07e2c5c8f42d7253860030605991aa37f49ba6ccb5466df91b41c16a33fff49354bcc289929dbeeeaffdba6adc89c99bdf5067d7d8f80905d1bed2c91fefc8c0140d8f8e59819fbbab3e8530f77e3277d8a17d6ba833e36eaaf16e357e16b263949e0e59dee3b39d0eec655e3d608c32ef00bbce12b8f857fdaf4f59cf00b63e63b0140de1a6b891de425a1b517c987f02f775afc67b7bf4330e7058df7d485f3033af0ad9266e49de315ed4156744fd9dea8fb808417aed47a9486431c7f0a4112a5ce0140f92c5993f073e31eba7146d56e79c28165b21ccbb56004678cde4a7a3963cf927ceb8fa1b28a6cea75b517c896ed74163a09ae0013788e33307bed145a79a53a01401aecb0ca6be0b1f5dbd684d9ac0039591e30e38ebd7e115e81b5c82ca1b8df30767669d28c6c2eede10637f39af89f89d335628da73d0e69d8b33b7e04df79680140b37391aa4ed94ca606a6e019f21912bef1fd01b52328a00fefa88d13b6a46b35a0b88c02e412c11cbd04f43df6a32586727c6dcca9c1aaa6b37521278e5ff36501404341d5841eb7b0c922b26731d77a2bc70a016714ed1472593de20c58fa4f11b6783b9ef5b13937ede0527b3128c7eade41cc8407b9e2bb4ec0ec024999f8d87401405277f58bc64a73a94022917dbf073e5b241aea0b7b5dc9296de6be64e2cda7b255838c77cf11dc08c825acee33166d2aaccbe1a7fb9ea534a973fe2399634c9f0140d6a007454d130ef1c9ef84f35d023e6ad83ded397c1c72280b6909f891baa778a9fca4b4e2728f4fff6c7f0e9c6f1f2af741b321247f4a59ff2ab554106ba7e30140e6d586a4d9374eb6cb0752d28b7064e20abcfb3e8f11962a325acee0bc09ff5b8eced13c6732694dd114699c34e7d8114db53988aaf308e184081bac3bbae29f00000000"
}