{
  "txid": "0b926ce2bde0487c7efab5aa886bd557e8b6be89842c68e952eb68f9f13ec43c",
  "version": 2,
  "locktime": 0,
  "vin": [
    {
      "txid": "c2c7aaa4747102b197942b4f446371d272b9d867fbec5bae35c547ec842e0b59",
      "vout": 13,
      "prevout": {
        "scriptpubkey": "512006e10184ceff11fdb27518ea09b2193f50585dff754ae25bacef98a2cc9b920f",
        "scriptpubkey_asm": "OP_PUSHNUM_1 OP_PUSHBYTES_32 06e10184ceff11fdb27518ea09b2193f50585dff754ae25bacef98a2cc9b920f",
        "scriptpubkey_type": "v1_p2tr",
        "scriptpubkey_address": "bc1pqmssrpxwluglmvn4rr4qnvse8ag9sh0lw49wykava7v29nymjg8sqnv00g",
        "value": 10000
      },
      "scriptsig": "",
      "scriptsig_asm": "",
      "witness": [
        "ca06effe23e0c91d172eeea1f3f9a129277c286f224b0f7ef741a56d2ced97f5f298bdbc939b266dbea56ac983882d347c4c518c5c9995e6c53862c409b2b398"
      ],
      "is_coinbase": false,
      "sequence": 4294967293
    },
    {
      "txid": "d71dcababd559b25fc06e4f9d96cf8ceee1a4da69827bf867b7a30b10963e7a9",
      "vout": 1,
      "prevout": {
        "scriptpubkey": "a91444b2c2c599dbfdb9dcccbcd155780466a17265a187",
        "scriptpubkey_asm": "OP_HASH160 OP_PUSHBYTES_20 44b2c2c599dbfdb9dcccbcd155780466a17265a1 OP_EQUAL",
        "scriptpubkey_type": "p2sh",
        "scriptpubkey_address": "37xG27EVCwe8TKsutGC2dNYPR2aMRTUtd7",
        "value": 198479
      },
      "scriptsig": "1600140f1c83b7ea9e7fefd2b10aac8c680ede85e3d50f",
      "scriptsig_asm": "OP_PUSHBYTES_22 00140f1c83b7ea9e7fefd2b10aac8c680ede85e3d50f",
      "witness": [
        "3045022100c7d14334faed7c5ed22a121c28fea2f601ad0011a33b9c789ebb692f1c56b2a302206cc65fe104d7b927eeeb5824316af77232fd8feaf83b42811d2f6ce785659f5801",
        "032efcd4fd0e251037171e8052c58a15ae55f8f959e13948555586147ebe7aa623"
      ],
      "is_coinbase": false,
      "sequence": 4294967293,
      "inner_redeemscript_asm": "OP_0 OP_PUSHBYTES_20 0f1c83b7ea9e7fefd2b10aac8c680ede85e3d50f"
    }
  ],
  "vout": [
    {
      "scriptpubkey": "51207626d14b1403cd6fc869f694f93e680dfa7de4d596498f4446626eb853d724ac",
      "scriptpubkey_asm": "OP_PUSHNUM_1 OP_PUSHBYTES_32 7626d14b1403cd6fc869f694f93e680dfa7de4d596498f4446626eb853d724ac",
      "scriptpubkey_type": "v1_p2tr",
      "scriptpubkey_address": "bc1pwcndzjc5q0xkljrf7620j0ngpha8mex4jeyc73zxvfhts57hyjkqsmj3c0",
      "value": 10000
    },
    {
      "scriptpubkey": "a91444b2c2c599dbfdb9dcccbcd155780466a17265a187",
      "scriptpubkey_asm": "OP_HASH160 OP_PUSHBYTES_20 44b2c2c599dbfdb9dcccbcd155780466a17265a1 OP_EQUAL",
      "scriptpubkey_type": "p2sh",
      "scriptpubkey_address": "37xG27EVCwe8TKsutGC2dNYPR2aMRTUtd7",
      "value": 195799
    }
  ],
  "size": 366,
  "weight": 936,
  "fee": 2680,
  "status": {
    "confirmed": true,
    "block_height": 834464,
    "block_hash": "0000000000000000000177a0869a911a2b65c9bdcd5a8bcb02b68f305bee848e",
    "block_time": 1710308296
  },
  "hex": "02000000000102590b2e84ec47c535ae5becfb67d8b972d27163444f2b9497b1027174a4aac7c20d00000000fdffffffa9e76309b1307a7b86bf2798a64d1aeecef86cd9f9e406fc259b55bdbaca1dd701000000171600140f1c83b7ea9e7fefd2b10aac8c680ede85e3d50ffdffffff0210270000000000002251207626d14b1403cd6fc869f694f93e680dfa7de4d596498f4446626eb853d724acd7fc02000000000017a91444b2c2c599dbfdb9dcccbcd155780466a17265a1870140ca06effe23e0c91d172eeea1f3f9a129277c286f224b0f7ef741a56d2ced97f5f298bdbc939b266dbea56ac983882d347c4c518c5c9995e6c53862c409b2b39802483045022100c7d14334faed7c5ed22a121c28fea2f601ad0011a33b9c789ebb692f1c56b2a302206cc65fe104d7b927eeeb5824316af77232fd8feaf83b42811d2f6ce785659f580121032efcd4fd0e251037171e8052c58a15ae55f8f959e13948555586147ebe7aa62300000000"
}