{
  "txid": "0b9216a8f249d1c2ea14d6b7e34f4596258161f743ef0bc2b27f98ee2b558ab2",
  "version": 1,
  "locktime": 0,
  "vin": [
    {
      "txid": "eb7a6a10d6709e429fe20cdeef281e0d263148efac15b7ff59e6bda54f3c77a0",
      "vout": 6,
      "prevout": {
        "scriptpubkey": "0014790a705905e3f6eabe08e11eb4da99b61185e114",
        "scriptpubkey_asm": "OP_0 OP_PUSHBYTES_20 790a705905e3f6eabe08e11eb4da99b61185e114",
        "scriptpubkey_type": "v0_p2wpkh",
        "scriptpubkey_address": "bc1q0y98qkg9u0mw40sguy0tfk5ekcgctcg506jwnm",
        "value": 680802
      },
      "scriptsig": "",
      "scriptsig_asm": "",
      "witness": [
        "3045022100b66f3f190b2ca8dee584d7b1a41f3c68d5968aa4fdf49464d63d58822760943502202f7b90c6cccd768d5fb0eb9156c3bfa5a7f3ad99b7293f40e4eca093ef6f328a01",
        "03e1b5e85c407f51cd52e778d2e53b6b0d15727bca9c0a62a70111ade51d4ea33e"
      ],
      "is_coinbase": false,
      "sequence": 4294967295
    }
  ],
  "vout": [
    {
      "scriptpubkey": "0014c3044eb133f138071baf18da199cadf0c1e55738",
      "scriptpubkey_asm": "OP_0 OP_PUSHBYTES_20 c3044eb133f138071baf18da199cadf0c1e55738",
      "scriptpubkey_type": "v0_p2wpkh",
      "scriptpubkey_address": "bc1qcvzyavfn7yuqwxa0rrdpn89d7rq724ecrdq332",
      "value": 679159
    }
  ],
  "size": 192,
  "weight": 438,
  "fee": 1643,
  "status": {
    "confirmed": true,
    "block_height": 834638,
    "block_hash": "000000000000000000025f742c626208ac87e0b7d15054abb4a19ca2d735a54e",
    "block_time": 1710405325
  },
  "hex": "01000000000101a0773c4fa5bde659ffb715acef4831260d1e28efde0ce29f429e70d6106a7aeb0600000000ffffffff01f75c0a0000000000160014c3044eb133f138071baf18da199cadf0c1e5573802483045022100b66f3f190b2ca8dee584d7b1a41f3c68d5968aa4fdf49464d63d58822760943502202f7b90c6cccd768d5fb0eb9156c3bfa5a7f3ad99b7293f40e4eca093ef6f328a012103e1b5e85c407f51cd52e778d2e53b6b0d15727bca9c0a62a70111ade51d4ea33e00000000"
}