{
  "txid": "0b93c2ed78f1dbf73f81785e7f038fca002485ed514adabfcb7ee77464125fe5",
  "version": 1,
  "locktime": 0,
  "vin": [
    {
      "txid": "dddbcd4c8af82a6fa4064eefc10db41f2ef6c893daab992d1495336dfcdf7abd",
      "vout": 27,
      "prevout": {
        "scriptpubkey": "0014cd7336dd5fe643ef51c98030458a57ef45429e90",
        "scriptpubkey_asm": "OP_0 OP_PUSHBYTES_20 cd7336dd5fe643ef51c98030458a57ef45429e90",
        "scriptpubkey_type": "v0_p2wpkh",
        "scriptpubkey_address": "bc1qe4endh2luep775wfsqcytzjhaaz5985sfcc9g0",
        "value": 120392772
      },
      "scriptsig": "",
      "scriptsig_asm": "",
      "witness": [
        "3044022051211b112345b71a53fa4776f881f0ccaf67554098ba210c7c94dbb981b21230022052370c66b913d28e30628d1fb7f8ae01abe75dd3cc538eef78d378ba8a4e474701",
        "029f3b514836250eab8711633fecf233015f96420d256997ced2c490e093c41ef4"
      ],
      "is_coinbase": false,
      "sequence": 4294967293
    }
  ],
  "vout": [
    {
      "scriptpubkey": "a91451d11e119ed59918c6b95f5e46fc3607184e77ba87",
      "scriptpubkey_asm": "OP_HASH160 OP_PUSHBYTES_20 51d11e119ed59918c6b95f5e46fc3607184e77ba OP_EQUAL",
      "scriptpubkey_type": "p2sh",
      "scriptpubkey_address": "399dApNh66dSkyVfEM3ezx1g4mHQQzDwZG",
      "value": 120390996
    }
  ],
  "size": 192,
  "weight": 441,
  "fee": 1776,
  "status": {
    "confirmed": true,
    "block_height": 834638,
    "block_hash": "000000000000000000025f742c626208ac87e0b7d15054abb4a19ca2d735a54e",
    "block_time": 1710405325
  },
  "hex": "01000000000101bd7adffc6d3395142d99abda93c8f62e1fb40dc1ef4e06a46f2af88a4ccddbdd1b00000000fdffffff0154052d070000000017a91451d11e119ed59918c6b95f5e46fc3607184e77ba8702473044022051211b112345b71a53fa4776f881f0ccaf67554098ba210c7c94dbb981b21230022052370c66b913d28e30628d1fb7f8ae01abe75dd3cc538eef78d378ba8a4e47470121029f3b514836250eab8711633fecf233015f96420d256997ced2c490e093c41ef400000000"
}