{
  "txid": "0ba06e999b7d04c0f40828169cff0d768db9b27a64504f39cf6cf0bb8360d64e",
  "version": 2,
  "locktime": 0,
  "vin": [
    {
      "txid": "db45ea14ff94336bdf8a98cc94018e9cab5d3b1ff38daeee2c00f72b3ecf139a",
      "vout": 0,
      "prevout": {
        "scriptpubkey": "001427f73585aa367ed5320bf00ae6940459f303e792",
        "scriptpubkey_asm": "OP_0 OP_PUSHBYTES_20 27f73585aa367ed5320bf00ae6940459f303e792",
        "scriptpubkey_type": "v0_p2wpkh",
        "scriptpubkey_address": "bc1qylmntpd2xeld2vst7q9wd9qyt8es8euj4388rx",
        "value": 42836
      },
      "scriptsig": "",
      "scriptsig_asm": "",
      "witness": [
        "304402201ffba02a3a55b7cd7ad9042b6520b99203cf7cf3c1d6a8b505890f9609a25dce022068c8446fef6675ccd13d58d6e71a9c782e1acc5fe55fcdad5361401460dbaff101",
        "02360b420c7276a0bbeb49b6ea09241d380fd400d1f674df6ab3811a759698bf3f"
      ],
      "is_coinbase": false,
      "sequence": 4294967295
    },
    {
      "txid": "09c763b8e5dc8af219717c009ed0e2675caf8dd27f5e0bcde530cf7a59b0f5c5",
      "vout": 75,
      "prevout": {
        "scriptpubkey": "00140101987dae280e5d03820e086b357d9c862cbfaf",
        "scriptpubkey_asm": "OP_0 OP_PUSHBYTES_20 0101987dae280e5d03820e086b357d9c862cbfaf",
        "scriptpubkey_type": "v0_p2wpkh",
        "scriptpubkey_address": "bc1qqyqesldw9q896quzpcyxkdtanjrze0a0m8na32",
        "value": 83183571
      },
      "scriptsig": "",
      "scriptsig_asm": "",
      "witness": [
        "304402203f8541df098c51832ae58ccc3f34303ef3d61f5a5ed29e050573cec16b910eb502203c8f93be97c07f3953a1843019ec8e5770502c5387467ec295ce96dd96e5cda001",
        "0287334814c8f99aa670700058ec10b58e0c8565ccfd502f6c09d0116d29778457"
      ],
      "is_coinbase": false,
      "sequence": 4294967295
    }
  ],
  "vout": [
    {
      "scriptpubkey": "00143077e8e9e64f573e3a0cd16d53d88210fb2f6050",
      "scriptpubkey_asm": "OP_0 OP_PUSHBYTES_20 3077e8e9e64f573e3a0cd16d53d88210fb2f6050",
      "scriptpubkey_type": "v0_p2wpkh",
      "scriptpubkey_address": "bc1qxpm7360xfatnuwsv69k48kyzzraj7czs6zxgu9",
      "value": 111779
    },
    {
      "scriptpubkey": "a9144345abc465d5ebc899ffed2cf3147878ba48a77f87",
      "scriptpubkey_asm": "OP_HASH160 OP_PUSHBYTES_20 4345abc465d5ebc899ffed2cf3147878ba48a77f OP_EQUAL",
      "scriptpubkey_type": "p2sh",
      "scriptpubkey_address": "37pifDi9CxZLdCTfdK6TEj5LGGyRSDJiQp",
      "value": 2726109
    },
    {
      "scriptpubkey": "76a91444f0f30d796e19e4f4279d2cbdb7c7021f9c3e8e88ac",
      "scriptpubkey_asm": "OP_DUP OP_HASH160 OP_PUSHBYTES_20 44f0f30d796e19e4f4279d2cbdb7c7021f9c3e8e OP_EQUALVERIFY OP_CHECKSIG",
      "scriptpubkey_type": "p2pkh",
      "scriptpubkey_address": "17HXbWEMbg96wnZrQu75ivUVksxHZgBxqC",
      "value": 61335
    },
    {
      "scriptpubkey": "a91446218599609dafabb566caf0b3558a9c9fdf02af87",
      "scriptpubkey_asm": "OP_HASH160 OP_PUSHBYTES_20 46218599609dafabb566caf0b3558a9c9fdf02af OP_EQUAL",
      "scriptpubkey_type": "p2sh",
      "scriptpubkey_address": "385qP7UDRPmfgykVqYDo8HgkWeiooTSdpv",
      "value": 204482
    },
    {
      "scriptpubkey": "0014927a5833bf196c35c8d9774749f4d257a727626c",
      "scriptpubkey_asm": "OP_0 OP_PUSHBYTES_20 927a5833bf196c35c8d9774749f4d257a727626c",
      "scriptpubkey_type": "v0_p2wpkh",
      "scriptpubkey_address": "bc1qjfa9svalr9krtjxewar5naxj27njwcnvpv6j3q",
      "value": 55426
    },
    {
      "scriptpubkey": "a914d237eb2b6c184747058de5fa40f0d5c23276fb4087",
      "scriptpubkey_asm": "OP_HASH160 OP_PUSHBYTES_20 d237eb2b6c184747058de5fa40f0d5c23276fb40 OP_EQUAL",
      "scriptpubkey_type": "p2sh",
      "scriptpubkey_address": "3LrYp85DazK8sXf8FEMJbkPVAtMBbZyVvE",
      "value": 61328
    },
    {
      "scriptpubkey": "00145f9edf43fae1489606fd821a367220d85d1f274d",
      "scriptpubkey_asm": "OP_0 OP_PUSHBYTES_20 5f9edf43fae1489606fd821a367220d85d1f274d",
      "scriptpubkey_type": "v0_p2wpkh",
      "scriptpubkey_address": "bc1qt70d7sl6u9yfvphasgdrvu3qmpw37f6dxakzqv",
      "value": 101060
    },
    {
      "scriptpubkey": "001416695ff25ea27e746fb6383d80bc6953c0de4b32",
      "scriptpubkey_asm": "OP_0 OP_PUSHBYTES_20 16695ff25ea27e746fb6383d80bc6953c0de4b32",
      "scriptpubkey_type": "v0_p2wpkh",
      "scriptpubkey_address": "bc1qze54luj75fl8gmak8q7cp0rf20qdujeje7tksh",
      "value": 54515
    },
    {
      "scriptpubkey": "00144087a0bfd60e19d70dacbd5010ac78743b4af502",
      "scriptpubkey_asm": "OP_0 OP_PUSHBYTES_20 4087a0bfd60e19d70dacbd5010ac78743b4af502",
      "scriptpubkey_type": "v0_p2wpkh",
      "scriptpubkey_address": "bc1qgzr6p07kpcvawrdvh4gpptrcwsa54agzd9uzqr",
      "value": 5558
    },
    {
      "scriptpubkey": "a914a3917c750b6768332913b8c3749bf769d57aca7587",
      "scriptpubkey_asm": "OP_HASH160 OP_PUSHBYTES_20 a3917c750b6768332913b8c3749bf769d57aca75 OP_EQUAL",
      "scriptpubkey_type": "p2sh",
      "scriptpubkey_address": "3GbtMNHVzNJCC1Ncx9aCptqU2dfFECfVGh",
      "value": 61362
    },
    {
      "scriptpubkey": "001459cfb55332131374480771edd3317a0e4d8e15a3",
      "scriptpubkey_asm": "OP_0 OP_PUSHBYTES_20 59cfb55332131374480771edd3317a0e4d8e15a3",
      "scriptpubkey_type": "v0_p2wpkh",
      "scriptpubkey_address": "bc1qt88m25ejzvfhgjq8w8kaxvt6pexcu9dr0ee0ch",
      "value": 41435
    },
    {
      "scriptpubkey": "76a914390adc0942fcecbd3748c00c6063ce440b94e90888ac",
      "scriptpubkey_asm": "OP_DUP OP_HASH160 OP_PUSHBYTES_20 390adc0942fcecbd3748c00c6063ce440b94e908 OP_EQUALVERIFY OP_CHECKSIG",
      "scriptpubkey_type": "p2pkh",
      "scriptpubkey_address": "16CcXU5AfDdRDRsYjBTLsMHgpQ6d2d2m4y",
      "value": 260735
    },
    {
      "scriptpubkey": "00143bd1cb9de3374c69d234c40895921efb649b0973",
      "scriptpubkey_asm": "OP_0 OP_PUSHBYTES_20 3bd1cb9de3374c69d234c40895921efb649b0973",
      "scriptpubkey_type": "v0_p2wpkh",
      "scriptpubkey_address": "bc1q80guh80rxaxxn535csyftys7ldjfkztnytpfkd",
      "value": 61331
    },
    {
      "scriptpubkey": "001488b8b2a7a7a071d8e618768bd56ff92ade2df257",
      "scriptpubkey_asm": "OP_0 OP_PUSHBYTES_20 88b8b2a7a7a071d8e618768bd56ff92ade2df257",
      "scriptpubkey_type": "v0_p2wpkh",
      "scriptpubkey_address": "bc1q3zut9fa85pca3escw69a2mle9t0zmujhjz3jqz",
      "value": 54528
    },
    {
      "scriptpubkey": "76a914b1032188a0573d80e469b0cf996078dedefe565e88ac",
      "scriptpubkey_asm": "OP_DUP OP_HASH160 OP_PUSHBYTES_20 b1032188a0573d80e469b0cf996078dedefe565e OP_EQUALVERIFY OP_CHECKSIG",
      "scriptpubkey_type": "p2pkh",
      "scriptpubkey_address": "1H8xMVwpDcbwkrbGy8DFouMWSmh8FmRkfX",
      "value": 61313
    },
    {
      "scriptpubkey": "00142270dd14dd778c87044f2a0d4ca5ae071579561e",
      "scriptpubkey_asm": "OP_0 OP_PUSHBYTES_20 2270dd14dd778c87044f2a0d4ca5ae071579561e",
      "scriptpubkey_type": "v0_p2wpkh",
      "scriptpubkey_address": "bc1qyfcd69xaw7xgwpz09gx5efdwqu2hj4s7y6mzqe",
      "value": 27927
    },
    {
      "scriptpubkey": "0014720a21a260f000661bc99b0845d746fad0b54a83",
      "scriptpubkey_asm": "OP_0 OP_PUSHBYTES_20 720a21a260f000661bc99b0845d746fad0b54a83",
      "scriptpubkey_type": "v0_p2wpkh",
      "scriptpubkey_address": "bc1qwg9zrgnq7qqxvx7fnvyyt46xltgt2j5r8vqqyk",
      "value": 61334
    },
    {
      "scriptpubkey": "a914a8bd5dfd69cf58c657bd60781712b12e092ec0ff87",
      "scriptpubkey_asm": "OP_HASH160 OP_PUSHBYTES_20 a8bd5dfd69cf58c657bd60781712b12e092ec0ff OP_EQUAL",
      "scriptpubkey_type": "p2sh",
      "scriptpubkey_address": "3H5EJENbjxyboXu2kXzLTadj36pzDuFECA",
      "value": 61319
    },
    {
      "scriptpubkey": "76a9141bc7d2f39a406f81c119d6b4f1ee1db61156aaca88ac",
      "scriptpubkey_asm": "OP_DUP OP_HASH160 OP_PUSHBYTES_20 1bc7d2f39a406f81c119d6b4f1ee1db61156aaca OP_EQUALVERIFY OP_CHECKSIG",
      "scriptpubkey_type": "p2pkh",
      "scriptpubkey_address": "13XtdCPgwVnsJBx3LdiChmVZWYzP1LJ9Qj",
      "value": 177201
    },
    {
      "scriptpubkey": "001437a54b723a86bee835bcf1d7e1be411099a62076",
      "scriptpubkey_asm": "OP_0 OP_PUSHBYTES_20 37a54b723a86bee835bcf1d7e1be411099a62076",
      "scriptpubkey_type": "v0_p2wpkh",
      "scriptpubkey_address": "bc1qx7j5ku36s6lwsddu78t7r0jpzzv6vgrkymcvmv",
      "value": 2724755
    },
    {
      "scriptpubkey": "76a914b397cf737f55c6e9a9180af9f40d71b77879f47488ac",
      "scriptpubkey_asm": "OP_DUP OP_HASH160 OP_PUSHBYTES_20 b397cf737f55c6e9a9180af9f40d71b77879f474 OP_EQUALVERIFY OP_CHECKSIG",
      "scriptpubkey_type": "p2pkh",
      "scriptpubkey_address": "1HNbpJkjpFZJJNMbuBuhggTdsks7VYXems",
      "value": 34935
    },
    {
      "scriptpubkey": "001468dc67be0d22f30b516e65f233de4087638ac666",
      "scriptpubkey_asm": "OP_0 OP_PUSHBYTES_20 68dc67be0d22f30b516e65f233de4087638ac666",
      "scriptpubkey_type": "v0_p2wpkh",
      "scriptpubkey_address": "bc1qdrwx00sdytesk5twvher8hjqsa3c43nx3clxr9",
      "value": 45410
    },
    {
      "scriptpubkey": "76a91478512788300b26bab52bb6b93cf2b602d8540ef088ac",
      "scriptpubkey_asm": "OP_DUP OP_HASH160 OP_PUSHBYTES_20 78512788300b26bab52bb6b93cf2b602d8540ef0 OP_EQUALVERIFY OP_CHECKSIG",
      "scriptpubkey_type": "p2pkh",
      "scriptpubkey_address": "1ByBJjD6256L6ayQgDM927Ef8mu46t4Ss2",
      "value": 68154
    },
    {
      "scriptpubkey": "0014705d2eb04190a1c779800e5de2873d9d90edb76e",
      "scriptpubkey_asm": "OP_0 OP_PUSHBYTES_20 705d2eb04190a1c779800e5de2873d9d90edb76e",
      "scriptpubkey_type": "v0_p2wpkh",
      "scriptpubkey_address": "bc1qwpwjavzpjzsuw7vqpew79peankgwmdmwcuenad",
      "value": 20220
    },
    {
      "scriptpubkey": "0014161dbfd49f1b67750dd55121514605d2dfe24666",
      "scriptpubkey_asm": "OP_0 OP_PUSHBYTES_20 161dbfd49f1b67750dd55121514605d2dfe24666",
      "scriptpubkey_type": "v0_p2wpkh",
      "scriptpubkey_address": "bc1qzcwml4ylrdnh2rw42ys4z3s96t07y3nxc07y9x",
      "value": 74579
    },
    {
      "scriptpubkey": "00146d44209987153244df33242693cd276308091a5e",
      "scriptpubkey_asm": "OP_0 OP_PUSHBYTES_20 6d44209987153244df33242693cd276308091a5e",
      "scriptpubkey_type": "v0_p2wpkh",
      "scriptpubkey_address": "bc1qd4zzpxv8z5eyfhenysnf8nf8vvyqjxj7mr9f09",
      "value": 181100
    },
    {
      "scriptpubkey": "a914ce425e99efd6c36dbc0b6d7a745d9a23487d6a4087",
      "scriptpubkey_asm": "OP_HASH160 OP_PUSHBYTES_20 ce425e99efd6c36dbc0b6d7a745d9a23487d6a40 OP_EQUAL",
      "scriptpubkey_type": "p2sh",
      "scriptpubkey_address": "3LVcdVnLaMa2JAB1k4AAcSJSsfTF1u6YKB",
      "value": 127615
    },
    {
      "scriptpubkey": "001482268307ef78bc162b873a13e9ff9b75eb4f85f9",
      "scriptpubkey_asm": "OP_0 OP_PUSHBYTES_20 82268307ef78bc162b873a13e9ff9b75eb4f85f9",
      "scriptpubkey_type": "v0_p2wpkh",
      "scriptpubkey_address": "bc1qsgngxpl00z7pv2u88gf7nlumwh45lp0evgvhmk",
      "value": 428128
    },
    {
      "scriptpubkey": "001455ac50e98534ee28e1e586b99e5edf7722873ab5",
      "scriptpubkey_asm": "OP_0 OP_PUSHBYTES_20 55ac50e98534ee28e1e586b99e5edf7722873ab5",
      "scriptpubkey_type": "v0_p2wpkh",
      "scriptpubkey_address": "bc1q2kk9p6v9xnhz3c09s6ueuhklwu3gww44gnpa2l",
      "value": 65298
    },
    {
      "scriptpubkey": "0014e5deb28ca89bb989eb3691cf4f61ec3069731121",
      "scriptpubkey_asm": "OP_0 OP_PUSHBYTES_20 e5deb28ca89bb989eb3691cf4f61ec3069731121",
      "scriptpubkey_type": "v0_p2wpkh",
      "scriptpubkey_address": "bc1quh0t9r9gnwucn6ekj8857c0vxp5hxyfpcwphxl",
      "value": 927838
    },
    {
      "scriptpubkey": "76a91481d312921e3e31c07e07e14ad9969a36eb52a71c88ac",
      "scriptpubkey_asm": "OP_DUP OP_HASH160 OP_PUSHBYTES_20 81d312921e3e31c07e07e14ad9969a36eb52a71c OP_EQUALVERIFY OP_CHECKSIG",
      "scriptpubkey_type": "p2pkh",
      "scriptpubkey_address": "1CqT2Km6agYd36CDmzmd7pWZ9nTKXikn2d",
      "value": 104793
    },
    {
      "scriptpubkey": "0014b3e42482b1871723a5c0b1e4180feee3093d76d6",
      "scriptpubkey_asm": "OP_0 OP_PUSHBYTES_20 b3e42482b1871723a5c0b1e4180feee3093d76d6",
      "scriptpubkey_type": "v0_p2wpkh",
      "scriptpubkey_address": "bc1qk0jzfq43sutj8fwqk8jpsrlwuvyn6akk7tdz0u",
      "value": 25524
    },
    {
      "scriptpubkey": "00141dd22a021a7a56095504a65189b3dfd0abfc24ed",
      "scriptpubkey_asm": "OP_0 OP_PUSHBYTES_20 1dd22a021a7a56095504a65189b3dfd0abfc24ed",
      "scriptpubkey_type": "v0_p2wpkh",
      "scriptpubkey_address": "bc1qrhfz5qs60ftqj4gy5egcnv7l6z4lcf8dwskaj3",
      "value": 84516
    },
    {
      "scriptpubkey": "a91493988e337063b230d24c71e8022a950b3007e52a87",
      "scriptpubkey_asm": "OP_HASH160 OP_PUSHBYTES_20 93988e337063b230d24c71e8022a950b3007e52a OP_EQUAL",
      "scriptpubkey_type": "p2sh",
      "scriptpubkey_address": "3F9S1Uxe5zu3UjfMHQvsfBBgvESk5viQ1L",
      "value": 35000
    },
    {
      "scriptpubkey": "a91414b9576929fe2c3ad52d1116abaf31de0adcd1b887",
      "scriptpubkey_asm": "OP_HASH160 OP_PUSHBYTES_20 14b9576929fe2c3ad52d1116abaf31de0adcd1b8 OP_EQUAL",
      "scriptpubkey_type": "p2sh",
      "scriptpubkey_address": "33abU8VSbbXZqcDKzGWLmzP2jwyFDQuoWu",
      "value": 31348
    },
    {
      "scriptpubkey": "a9147f7c6c95ee387ef2bfe9900344a839c29f0a4f3587",
      "scriptpubkey_asm": "OP_HASH160 OP_PUSHBYTES_20 7f7c6c95ee387ef2bfe9900344a839c29f0a4f35 OP_EQUAL",
      "scriptpubkey_type": "p2sh",
      "scriptpubkey_address": "3DK6o3mm6WVYjLA61jEdr4GVdPSJRkK7PF",
      "value": 181270
    },
    {
      "scriptpubkey": "0014ac2c65a76938d52e9696f3b17c2e1c1a6dc87d2e",
      "scriptpubkey_asm": "OP_0 OP_PUSHBYTES_20 ac2c65a76938d52e9696f3b17c2e1c1a6dc87d2e",
      "scriptpubkey_type": "v0_p2wpkh",
      "scriptpubkey_address": "bc1q4skxtfmf8r2ja95k7wchctsurfkuslfwyrgvyq",
      "value": 68200
    },
    {
      "scriptpubkey": "76a914af8aa51b4ab9be29089c3f405007fa87c2337a7488ac",
      "scriptpubkey_asm": "OP_DUP OP_HASH160 OP_PUSHBYTES_20 af8aa51b4ab9be29089c3f405007fa87c2337a74 OP_EQUALVERIFY OP_CHECKSIG",
      "scriptpubkey_type": "p2pkh",
      "scriptpubkey_address": "1H1BLnq8nkBTwBT2LkSq2cUgVWnrkYTUUb",
      "value": 1355870
    },
    {
      "scriptpubkey": "00147cd6265265998e90de773137d643a94f23dadfb2",
      "scriptpubkey_asm": "OP_0 OP_PUSHBYTES_20 7cd6265265998e90de773137d643a94f23dadfb2",
      "scriptpubkey_type": "v0_p2wpkh",
      "scriptpubkey_address": "bc1q0ntzv5n9nx8fphnhxymavsaffu3a4hajd96tms",
      "value": 111400
    },
    {
      "scriptpubkey": "a9146112e9fc91370c0ba1c86929120c523d247fcaff87",
      "scriptpubkey_asm": "OP_HASH160 OP_PUSHBYTES_20 6112e9fc91370c0ba1c86929120c523d247fcaff OP_EQUAL",
      "scriptpubkey_type": "p2sh",
      "scriptpubkey_address": "3AYJ8KVwxVc4W4iekbfzzFcp6hgsAwYQkt",
      "value": 74576
    },
    {
      "scriptpubkey": "0014e42f3d40e92ca988fa12cb2393da25d24f80cd1e",
      "scriptpubkey_asm": "OP_0 OP_PUSHBYTES_20 e42f3d40e92ca988fa12cb2393da25d24f80cd1e",
      "scriptpubkey_type": "v0_p2wpkh",
      "scriptpubkey_address": "bc1qushn6s8f9j5c37sjev3e8k396f8cpng7sgn52u",
      "value": 28180
    },
    {
      "scriptpubkey": "a91481a512ff08b174d89dbb7ac49e91fcbcc967423a87",
      "scriptpubkey_asm": "OP_HASH160 OP_PUSHBYTES_20 81a512ff08b174d89dbb7ac49e91fcbcc967423a OP_EQUAL",
      "scriptpubkey_type": "p2sh",
      "scriptpubkey_address": "3DWWqr4NiSqgMo75CLymGCN2FXrKGE9mLv",
      "value": 328196
    },
    {
      "scriptpubkey": "0014cd17ca65343333a63a355be14b594bbe827d0e13",
      "scriptpubkey_asm": "OP_0 OP_PUSHBYTES_20 cd17ca65343333a63a355be14b594bbe827d0e13",
      "scriptpubkey_type": "v0_p2wpkh",
      "scriptpubkey_address": "bc1qe5tu5ef5xve6vw34t0s5kk2th6p86rsnyr52rz",
      "value": 40883
    },
    {
      "scriptpubkey": "001468fc6cf1010ab71c5ecf2512661cd5470292548a",
      "scriptpubkey_asm": "OP_0 OP_PUSHBYTES_20 68fc6cf1010ab71c5ecf2512661cd5470292548a",
      "scriptpubkey_type": "v0_p2wpkh",
      "scriptpubkey_address": "bc1qdr7xeugpp2m3chk0y5fxv8x4gupfy4y27lsn7t",
      "value": 82520
    },
    {
      "scriptpubkey": "00148c0cefa36c2b8327c4783e074152d2e09d57a41a",
      "scriptpubkey_asm": "OP_0 OP_PUSHBYTES_20 8c0cefa36c2b8327c4783e074152d2e09d57a41a",
      "scriptpubkey_type": "v0_p2wpkh",
      "scriptpubkey_address": "bc1q3sxwlgmv9wpj03rc8cr5z5kjuzw40fq6rxwgnz",
      "value": 340649
    },
    {
      "scriptpubkey": "0014cd0510c72968ff420646613718717f13f103973b",
      "scriptpubkey_asm": "OP_0 OP_PUSHBYTES_20 cd0510c72968ff420646613718717f13f103973b",
      "scriptpubkey_type": "v0_p2wpkh",
      "scriptpubkey_address": "bc1qe5z3p3efdrl5ypjxvym3sutlz0cs89em4vtr0z",
      "value": 260489
    },
    {
      "scriptpubkey": "76a914e0a86d16cf70696b8bb7da19d3c0b5346f98a9f988ac",
      "scriptpubkey_asm": "OP_DUP OP_HASH160 OP_PUSHBYTES_20 e0a86d16cf70696b8bb7da19d3c0b5346f98a9f9 OP_EQUALVERIFY OP_CHECKSIG",
      "scriptpubkey_type": "p2pkh",
      "scriptpubkey_address": "1MUt8RWkNRhHwiNGfLfDxTvmjtghW8j1SA",
      "value": 661154
    },
    {
      "scriptpubkey": "a9148fe1ad10d8be85f25a572ad6baf8342922c846b187",
      "scriptpubkey_asm": "OP_HASH160 OP_PUSHBYTES_20 8fe1ad10d8be85f25a572ad6baf8342922c846b1 OP_EQUAL",
      "scriptpubkey_type": "p2sh",
      "scriptpubkey_address": "3EonuDoWXRmbarA4b22aAcZDkwTDFyHsED",
      "value": 61321
    },
    {
      "scriptpubkey": "00143b12ecb0bd3ca2c90216595006ccf5e7f0c2248b",
      "scriptpubkey_asm": "OP_0 OP_PUSHBYTES_20 3b12ecb0bd3ca2c90216595006ccf5e7f0c2248b",
      "scriptpubkey_type": "v0_p2wpkh",
      "scriptpubkey_address": "bc1q8vfwev9a8j3vjqskt9gqdn84ulcvyfytkpdnlg",
      "value": 34080
    },
    {
      "scriptpubkey": "a91448c609b5fdf0ac2acab310c9b280921504dc54b787",
      "scriptpubkey_asm": "OP_HASH160 OP_PUSHBYTES_20 48c609b5fdf0ac2acab310c9b280921504dc54b7 OP_EQUAL",
      "scriptpubkey_type": "p2sh",
      "scriptpubkey_address": "38KopGkWjfKaUX18s3LT4eWBrcXZ5DvSdN",
      "value": 141255
    },
    {
      "scriptpubkey": "0014554ba4e03781f4f4ea05aa799c3844a1a66501c0",
      "scriptpubkey_asm": "OP_0 OP_PUSHBYTES_20 554ba4e03781f4f4ea05aa799c3844a1a66501c0",
      "scriptpubkey_type": "v0_p2wpkh",
      "scriptpubkey_address": "bc1q2496fcphs860f6s94fuecwzy5xnx2qwqzq9dl6",
      "value": 260837
    },
    {
      "scriptpubkey": "a914fbe38d8f92644d7009c82b8a39eb2c0d0e20ca4687",
      "scriptpubkey_asm": "OP_HASH160 OP_PUSHBYTES_20 fbe38d8f92644d7009c82b8a39eb2c0d0e20ca46 OP_EQUAL",
      "scriptpubkey_type": "p2sh",
      "scriptpubkey_address": "3Qet8MJZ2hV7k6PNfZKVgRAovdQCGwcJG2",
      "value": 53070
    },
    {
      "scriptpubkey": "0014480847b17bffdec8d324307f43e50ad73e7ddc9f",
      "scriptpubkey_asm": "OP_0 OP_PUSHBYTES_20 480847b17bffdec8d324307f43e50ad73e7ddc9f",
      "scriptpubkey_type": "v0_p2wpkh",
      "scriptpubkey_address": "bc1qfqyy0vtmll0v35eyxpl58eg26ul8mhyl9hwppt",
      "value": 28176
    },
    {
      "scriptpubkey": "76a914fbb37b19f3571fbf0ccfe8bd4e9c5482849562b588ac",
      "scriptpubkey_asm": "OP_DUP OP_HASH160 OP_PUSHBYTES_20 fbb37b19f3571fbf0ccfe8bd4e9c5482849562b5 OP_EQUALVERIFY OP_CHECKSIG",
      "scriptpubkey_type": "p2pkh",
      "scriptpubkey_address": "1PwschWtVPsudVhSy1WZNHVwHmDyeXUCXT",
      "value": 126759
    },
    {
      "scriptpubkey": "001423973370dedf74c6f71a97a6255c7797a567c0a4",
      "scriptpubkey_asm": "OP_0 OP_PUSHBYTES_20 23973370dedf74c6f71a97a6255c7797a567c0a4",
      "scriptpubkey_type": "v0_p2wpkh",
      "scriptpubkey_address": "bc1qywtnxux7ma6vdac6j7nz2hrhj7jk0s9yd7tx86",
      "value": 62255813
    },
    {
      "scriptpubkey": "76a9146b695a9f06a3cd344db5384e0400f5239b52375188ac",
      "scriptpubkey_asm": "OP_DUP OP_HASH160 OP_PUSHBYTES_20 6b695a9f06a3cd344db5384e0400f5239b523751 OP_EQUALVERIFY OP_CHECKSIG",
      "scriptpubkey_type": "p2pkh",
      "scriptpubkey_address": "1AnwWefPotUyCGCSVaR9v9ksmLEa7EeS7U",
      "value": 161186
    },
    {
      "scriptpubkey": "a9146d4667345b948d3bcd0214eb8b69e272fc60838187",
      "scriptpubkey_asm": "OP_HASH160 OP_PUSHBYTES_20 6d4667345b948d3bcd0214eb8b69e272fc608381 OP_EQUAL",
      "scriptpubkey_type": "p2sh",
      "scriptpubkey_address": "3Beov9cmKfjdD7sMv8QCD1TJUj8m3hLFy7",
      "value": 28183
    },
    {
      "scriptpubkey": "0014c1c24f9810c6da1a58623ada60da0062871c824c",
      "scriptpubkey_asm": "OP_0 OP_PUSHBYTES_20 c1c24f9810c6da1a58623ada60da0062871c824c",
      "scriptpubkey_type": "v0_p2wpkh",
      "scriptpubkey_address": "bc1qc8pylxqscmdp5krz8tdxpksqv2r3eqjv7led9s",
      "value": 40896
    },
    {
      "scriptpubkey": "a9148fc09f5d217ffe6015e071c81584e6d84d91cd7087",
      "scriptpubkey_asm": "OP_HASH160 OP_PUSHBYTES_20 8fc09f5d217ffe6015e071c81584e6d84d91cd70 OP_EQUAL",
      "scriptpubkey_type": "p2sh",
      "scriptpubkey_address": "3Eo7Jd4DtgARPSMYLWvYbDb7Bn3yVzaP2A",
      "value": 13927
    },
    {
      "scriptpubkey": "76a914f7d877a830e6f61ce3c7a7c345eb54681250de3e88ac",
      "scriptpubkey_asm": "OP_DUP OP_HASH160 OP_PUSHBYTES_20 f7d877a830e6f61ce3c7a7c345eb54681250de3e OP_EQUALVERIFY OP_CHECKSIG",
      "scriptpubkey_type": "p2pkh",
      "scriptpubkey_address": "1PbVDoV4qWJVXPsxWPkBVKScynuq7RLTGT",
      "value": 27258
    },
    {
      "scriptpubkey": "00141bc41488395b8854745a44608a5b830ef997ff42",
      "scriptpubkey_asm": "OP_0 OP_PUSHBYTES_20 1bc41488395b8854745a44608a5b830ef997ff42",
      "scriptpubkey_type": "v0_p2wpkh",
      "scriptpubkey_address": "bc1qr0zpfzpetwy9gaz6g3sg5kurpmue0l6z9n7w50",
      "value": 50390
    },
    {
      "scriptpubkey": "0014934c9d98a31861b8f93bdc472110096acf2b3d73",
      "scriptpubkey_asm": "OP_0 OP_PUSHBYTES_20 934c9d98a31861b8f93bdc472110096acf2b3d73",
      "scriptpubkey_type": "v0_p2wpkh",
      "scriptpubkey_address": "bc1qjdxfmx9rrpsm37fmm3rjzyqfdt8jk0tnfn0u8p",
      "value": 27260
    },
    {
      "scriptpubkey": "00145d37eaf64196e045822e27c2f28927ce9ea62324",
      "scriptpubkey_asm": "OP_0 OP_PUSHBYTES_20 5d37eaf64196e045822e27c2f28927ce9ea62324",
      "scriptpubkey_type": "v0_p2wpkh",
      "scriptpubkey_address": "bc1qt5m74ajpjmsytq3wylp09zf8e602vgeyvcxqnc",
      "value": 136318
    },
    {
      "scriptpubkey": "76a9141e945568b98f4f642b989bb1d00c8fec24b746e188ac",
      "scriptpubkey_asm": "OP_DUP OP_HASH160 OP_PUSHBYTES_20 1e945568b98f4f642b989bb1d00c8fec24b746e1 OP_EQUALVERIFY OP_CHECKSIG",
      "scriptpubkey_type": "p2pkh",
      "scriptpubkey_address": "13ngyA4Jc8vaMRC97C6X3cNfYR5iHo6W1t",
      "value": 2726377
    },
    {
      "scriptpubkey": "0014a05a63c10ab22c3fdd1682ef1ef30477db9a2fd6",
      "scriptpubkey_asm": "OP_0 OP_PUSHBYTES_20 a05a63c10ab22c3fdd1682ef1ef30477db9a2fd6",
      "scriptpubkey_type": "v0_p2wpkh",
      "scriptpubkey_address": "bc1q5pdx8sg2kgkrlhgksth3aucywlde5t7k97vfzr",
      "value": 118238
    },
    {
      "scriptpubkey": "a914a8126638cad21fb2a4f84259d767938a66a42a5b87",
      "scriptpubkey_asm": "OP_HASH160 OP_PUSHBYTES_20 a8126638cad21fb2a4f84259d767938a66a42a5b OP_EQUAL",
      "scriptpubkey_type": "p2sh",
      "scriptpubkey_address": "3H1hVBEmfb17q1xNP49p9j2LP28iKRmxGJ",
      "value": 1332259
    },
    {
      "scriptpubkey": "a914c04ee39adab3b55886b602eb7d67f71340d9f9e287",
      "scriptpubkey_asm": "OP_HASH160 OP_PUSHBYTES_20 c04ee39adab3b55886b602eb7d67f71340d9f9e2 OP_EQUAL",
      "scriptpubkey_type": "p2sh",
      "scriptpubkey_address": "3KDrAgfX2zsUG17tLkp7muMeH5aJmAyKMZ",
      "value": 101087
    },
    {
      "scriptpubkey": "0014534a9d0282a99b97f3bdf862b2bb9fe4e3c9b840",
      "scriptpubkey_asm": "OP_0 OP_PUSHBYTES_20 534a9d0282a99b97f3bdf862b2bb9fe4e3c9b840",
      "scriptpubkey_type": "v0_p2wpkh",
      "scriptpubkey_address": "bc1q2d9f6q5z4xde0uaalp3t9wulun3unwzqnztkpa",
      "value": 147883
    },
    {
      "scriptpubkey": "001435da3c7c32a0b4f3de0c53b23fd461b4d06a610e",
      "scriptpubkey_asm": "OP_0 OP_PUSHBYTES_20 35da3c7c32a0b4f3de0c53b23fd461b4d06a610e",
      "scriptpubkey_type": "v0_p2wpkh",
      "scriptpubkey_address": "bc1qxhdrclpj5z608hsv2werl4rpkngx5cgwtv3a7x",
      "value": 68124
    },
    {
      "scriptpubkey": "76a914501bd698a260c3e2368a16e0fb452a18bd13e45388ac",
      "scriptpubkey_asm": "OP_DUP OP_HASH160 OP_PUSHBYTES_20 501bd698a260c3e2368a16e0fb452a18bd13e453 OP_EQUALVERIFY OP_CHECKSIG",
      "scriptpubkey_type": "p2pkh",
      "scriptpubkey_address": "18JaQapYtnnmjE2y3eeTfkpNA7WH7uDQcz",
      "value": 1460505
    },
    {
      "scriptpubkey": "0014623e85ecd83fdb017d3db222877d5895d99f3d29",
      "scriptpubkey_asm": "OP_0 OP_PUSHBYTES_20 623e85ecd83fdb017d3db222877d5895d99f3d29",
      "scriptpubkey_type": "v0_p2wpkh",
      "scriptpubkey_address": "bc1qvglgtmxc8ldszlfakg3gwl2cjhve70ffs85wqp",
      "value": 338076
    },
    {
      "scriptpubkey": "0014e77c06e53f1e9a0eab54d511433c6111521905dd",
      "scriptpubkey_asm": "OP_0 OP_PUSHBYTES_20 e77c06e53f1e9a0eab54d511433c6111521905dd",
      "scriptpubkey_type": "v0_p2wpkh",
      "scriptpubkey_address": "bc1qua7qdeflr6dqa26565g5x0rpz9fpjpwa36063q",
      "value": 120979
    },
    {
      "scriptpubkey": "a914b5f90fc7fd867774f2f5f0ddf0b5b9c8d8bb2c4587",
      "scriptpubkey_asm": "OP_HASH160 OP_PUSHBYTES_20 b5f90fc7fd867774f2f5f0ddf0b5b9c8d8bb2c45 OP_EQUAL",
      "scriptpubkey_type": "p2sh",
      "scriptpubkey_address": "3JHCbNWB937G74FmT6oqPrt1CZagKSVzdN",
      "value": 127621
    },
    {
      "scriptpubkey": "a9141439dc09266dbaa1aed5a975b9e38c4643596c3787",
      "scriptpubkey_asm": "OP_HASH160 OP_PUSHBYTES_20 1439dc09266dbaa1aed5a975b9e38c4643596c37 OP_EQUAL",
      "scriptpubkey_type": "p2sh",
      "scriptpubkey_address": "33XxkXgtcbKp3ScmmW4M6EpQtpHyUFqBiU",
      "value": 40896
    },
    {
      "scriptpubkey": "a914f75ccb059b820d92375acda517aba58dfd35526787",
      "scriptpubkey_asm": "OP_HASH160 OP_PUSHBYTES_20 f75ccb059b820d92375acda517aba58dfd355267 OP_EQUAL",
      "scriptpubkey_type": "p2sh",
      "scriptpubkey_address": "3QEwzJNVyU9zxUUtUb4YG7H84y9HAEG8KK",
      "value": 127447
    },
    {
      "scriptpubkey": "76a91488100b765847d996f012c8281033c50f486e291e88ac",
      "scriptpubkey_asm": "OP_DUP OP_HASH160 OP_PUSHBYTES_20 88100b765847d996f012c8281033c50f486e291e OP_EQUALVERIFY OP_CHECKSIG",
      "scriptpubkey_type": "p2pkh",
      "scriptpubkey_address": "1DQS7uAdzFNsZMAUwwKQtUnYc9MBiQ8rMA",
      "value": 61279
    },
    {
      "scriptpubkey": "a91494aa8a777154b0b2ba3daf813f75b9c38074cf1987",
      "scriptpubkey_asm": "OP_HASH160 OP_PUSHBYTES_20 94aa8a777154b0b2ba3daf813f75b9c38074cf19 OP_EQUAL",
      "scriptpubkey_type": "p2sh",
      "scriptpubkey_address": "3FF6EKh72SQKHVvQbnworxPHHnRXf3YNFT",
      "value": 136303
    },
    {
      "scriptpubkey": "0014269e2e192e6d1fd227c4ae937676b8bb2c2b3b45",
      "scriptpubkey_asm": "OP_0 OP_PUSHBYTES_20 269e2e192e6d1fd227c4ae937676b8bb2c2b3b45",
      "scriptpubkey_type": "v0_p2wpkh",
      "scriptpubkey_address": "bc1qy60zuxfwd50ayf7y46fhva4chvkzkw694z2mea",
      "value": 34802
    },
    {
      "scriptpubkey": "a9148bb7c411126466830967704f82ac0347bfc735f087",
      "scriptpubkey_asm": "OP_HASH160 OP_PUSHBYTES_20 8bb7c411126466830967704f82ac0347bfc735f0 OP_EQUAL",
      "scriptpubkey_type": "p2sh",
      "scriptpubkey_address": "3ERmzV8KBLM3QZpYZNcpvaWrDG3PDeQe6Y",
      "value": 34149
    },
    {
      "scriptpubkey": "0014339227c2526aa7e64c105aa33c6d6bf5ee6ea074",
      "scriptpubkey_asm": "OP_0 OP_PUSHBYTES_20 339227c2526aa7e64c105aa33c6d6bf5ee6ea074",
      "scriptpubkey_type": "v0_p2wpkh",
      "scriptpubkey_address": "bc1qxwfz0sjjd2n7vnqst23ncmtt7hhxagr520al0j",
      "value": 13631
    }
  ],
  "size": 2856,
  "weight": 10776,
  "fee": 27345,
  "status": {
    "confirmed": true,
    "block_height": 834638,
    "block_hash": "000000000000000000025f742c626208ac87e0b7d15054abb4a19ca2d735a54e",
    "block_time": 1710405325
  },
  "hex": "020000000001029a13cf3e2bf7002ceeae8df31f3b5dab9c8e0194cc988adf6b3394ff14ea45db0000000000ffffffffc5f5b0597acf30e5cd0b5e7fd28daf5c67e2d09e007c7119f28adce5b863c7094b00000000ffffffff50a3b40100000000001600143077e8e9e64f573e3a0cd16d53d88210fb2f6050dd9829000000000017a9144345abc465d5ebc899ffed2cf3147878ba48a77f8797ef0000000000001976a91444f0f30d796e19e4f4279d2cbdb7c7021f9c3e8e88acc21e03000000000017a91446218599609dafabb566caf0b3558a9c9fdf02af8782d8000000000000160014927a5833bf196c35c8d9774749f4d257a727626c90ef00000000000017a914d237eb2b6c184747058de5fa40f0d5c23276fb4087c48a0100000000001600145f9edf43fae1489606fd821a367220d85d1f274df3d400000000000016001416695ff25ea27e746fb6383d80bc6953c0de4b32b6150000000000001600144087a0bfd60e19d70dacbd5010ac78743b4af502b2ef00000000000017a914a3917c750b6768332913b8c3749bf769d57aca7587dba100000000000016001459cfb55332131374480771edd3317a0e4d8e15a37ffa0300000000001976a914390adc0942fcecbd3748c00c6063ce440b94e90888ac93ef0000000000001600143bd1cb9de3374c69d234c40895921efb649b097300d500000000000016001488b8b2a7a7a071d8e618768bd56ff92ade2df25781ef0000000000001976a914b1032188a0573d80e469b0cf996078dedefe565e88ac176d0000000000001600142270dd14dd778c87044f2a0d4ca5ae071579561e96ef000000000000160014720a21a260f000661bc99b0845d746fad0b54a8387ef00000000000017a914a8bd5dfd69cf58c657bd60781712b12e092ec0ff8731b40200000000001976a9141bc7d2f39a406f81c119d6b4f1ee1db61156aaca88ac939329000000000016001437a54b723a86bee835bcf1d7e1be411099a6207677880000000000001976a914b397cf737f55c6e9a9180af9f40d71b77879f47488ac62b100000000000016001468dc67be0d22f30b516e65f233de4087638ac6663a0a0100000000001976a91478512788300b26bab52bb6b93cf2b602d8540ef088acfc4e000000000000160014705d2eb04190a1c779800e5de2873d9d90edb76e5323010000000000160014161dbfd49f1b67750dd55121514605d2dfe246666cc30200000000001600146d44209987153244df33242693cd276308091a5e7ff201000000000017a914ce425e99efd6c36dbc0b6d7a745d9a23487d6a4087608806000000000016001482268307ef78bc162b873a13e9ff9b75eb4f85f912ff00000000000016001455ac50e98534ee28e1e586b99e5edf7722873ab55e280e0000000000160014e5deb28ca89bb989eb3691cf4f61ec306973112159990100000000001976a91481d312921e3e31c07e07e14ad9969a36eb52a71c88acb463000000000000160014b3e42482b1871723a5c0b1e4180feee3093d76d6244a0100000000001600141dd22a021a7a56095504a65189b3dfd0abfc24edb88800000000000017a91493988e337063b230d24c71e8022a950b3007e52a87747a00000000000017a91414b9576929fe2c3ad52d1116abaf31de0adcd1b88716c402000000000017a9147f7c6c95ee387ef2bfe9900344a839c29f0a4f3587680a010000000000160014ac2c65a76938d52e9696f3b17c2e1c1a6dc87d2e5eb01400000000001976a914af8aa51b4ab9be29089c3f405007fa87c2337a7488ac28b30100000000001600147cd6265265998e90de773137d643a94f23dadfb2502301000000000017a9146112e9fc91370c0ba1c86929120c523d247fcaff87146e000000000000160014e42f3d40e92ca988fa12cb2393da25d24f80cd1e040205000000000017a91481a512ff08b174d89dbb7ac49e91fcbcc967423a87b39f000000000000160014cd17ca65343333a63a355be14b594bbe827d0e13584201000000000016001468fc6cf1010ab71c5ecf2512661cd5470292548aa9320500000000001600148c0cefa36c2b8327c4783e074152d2e09d57a41a89f9030000000000160014cd0510c72968ff420646613718717f13f103973ba2160a00000000001976a914e0a86d16cf70696b8bb7da19d3c0b5346f98a9f988ac89ef00000000000017a9148fe1ad10d8be85f25a572ad6baf8342922c846b18720850000000000001600143b12ecb0bd3ca2c90216595006ccf5e7f0c2248bc72702000000000017a91448c609b5fdf0ac2acab310c9b280921504dc54b787e5fa030000000000160014554ba4e03781f4f4ea05aa799c3844a1a66501c04ecf00000000000017a914fbe38d8f92644d7009c82b8a39eb2c0d0e20ca4687106e000000000000160014480847b17bffdec8d324307f43e50ad73e7ddc9f27ef0100000000001976a914fbb37b19f3571fbf0ccfe8bd4e9c5482849562b588acc5f2b5030000000016001423973370dedf74c6f71a97a6255c7797a567c0a4a2750200000000001976a9146b695a9f06a3cd344db5384e0400f5239b52375188ac176e00000000000017a9146d4667345b948d3bcd0214eb8b69e272fc60838187c09f000000000000160014c1c24f9810c6da1a58623ada60da0062871c824c673600000000000017a9148fc09f5d217ffe6015e071c81584e6d84d91cd70877a6a0000000000001976a914f7d877a830e6f61ce3c7a7c345eb54681250de3e88acd6c40000000000001600141bc41488395b8854745a44608a5b830ef997ff427c6a000000000000160014934c9d98a31861b8f93bdc472110096acf2b3d737e140200000000001600145d37eaf64196e045822e27c2f28927ce9ea62324e9992900000000001976a9141e945568b98f4f642b989bb1d00c8fec24b746e188acdecd010000000000160014a05a63c10ab22c3fdd1682ef1ef30477db9a2fd6235414000000000017a914a8126638cad21fb2a4f84259d767938a66a42a5b87df8a01000000000017a914c04ee39adab3b55886b602eb7d67f71340d9f9e287ab41020000000000160014534a9d0282a99b97f3bdf862b2bb9fe4e3c9b8401c0a01000000000016001435da3c7c32a0b4f3de0c53b23fd461b4d06a610e19491600000000001976a914501bd698a260c3e2368a16e0fb452a18bd13e45388ac9c28050000000000160014623e85ecd83fdb017d3db222877d5895d99f3d2993d8010000000000160014e77c06e53f1e9a0eab54d511433c6111521905dd85f201000000000017a914b5f90fc7fd867774f2f5f0ddf0b5b9c8d8bb2c4587c09f00000000000017a9141439dc09266dbaa1aed5a975b9e38c4643596c3787d7f101000000000017a914f75ccb059b820d92375acda517aba58dfd355267875fef0000000000001976a91488100b765847d996f012c8281033c50f486e291e88ac6f1402000000000017a91494aa8a777154b0b2ba3daf813f75b9c38074cf1987f287000000000000160014269e2e192e6d1fd227c4ae937676b8bb2c2b3b45658500000000000017a9148bb7c411126466830967704f82ac0347bfc735f0873f35000000000000160014339227c2526aa7e64c105aa33c6d6bf5ee6ea0740247304402201ffba02a3a55b7cd7ad9042b6520b99203cf7cf3c1d6a8b505890f9609a25dce022068c8446fef6675ccd13d58d6e71a9c782e1acc5fe55fcdad5361401460dbaff1012102360b420c7276a0bbeb49b6ea09241d380fd400d1f674df6ab3811a759698bf3f0247304402203f8541df098c51832ae58ccc3f34303ef3d61f5a5ed29e050573cec16b910eb502203c8f93be97c07f3953a1843019ec8e5770502c5387467ec295ce96dd96e5cda001210287334814c8f99aa670700058ec10b58e0c8565ccfd502f6c09d0116d2977845700000000"
}