{
  "txid": "0baa89fc23e6b417d5948eb90a82d419ad31f0579aaaeb1b43488bb9597cc672",
  "version": 2,
  "locktime": 0,
  "vin": [
    {
      "txid": "ca49732a8789b812361e997512b66bc3787f1e3ff39f5f0d8b845e09438043f6",
      "vout": 3,
      "prevout": {
        "scriptpubkey": "5120f0ce7de5c31f5fc8bac7274dbb3550bcec90641477e426dfefcaa4b135f2e5c4",
        "scriptpubkey_asm": "OP_PUSHNUM_1 OP_PUSHBYTES_32 f0ce7de5c31f5fc8bac7274dbb3550bcec90641477e426dfefcaa4b135f2e5c4",
        "scriptpubkey_type": "v1_p2tr",
        "scriptpubkey_address": "bc1p7r88mewrra0u3wk8yaxmkd2shnkfqeq5wljzdhl0e2jtzd0juhzq4lkaw2",
        "value": 2066
      },
      "scriptsig": "",
      "scriptsig_asm": "",
      "witness": [
        "19771016d4686ec38b664e27fbabc98922b1322f8b9fdd71273d67ceeef92553f43e062a9e636ef7e1344660b1f793aef2860c85ca9b60077a754b8dbfd60602",
        "2058608b5f1fe96a1f44e1ca1559acb884b311473bd29d8ee416d526783bd6a256ac0063036f726401010a746578742f706c61696e00367b2270223a226272632d3230222c226f70223a226d696e74222c227469636b223a2261616161222c22616d74223a223130303030227d68",
        "c158608b5f1fe96a1f44e1ca1559acb884b311473bd29d8ee416d526783bd6a256"
      ],
      "is_coinbase": false,
      "sequence": 4261412863
    }
  ],
  "vout": [
    {
      "scriptpubkey": "0014b12a255b419b46c01324705abea5fd2949f55051",
      "scriptpubkey_asm": "OP_0 OP_PUSHBYTES_20 b12a255b419b46c01324705abea5fd2949f55051",
      "scriptpubkey_type": "v0_p2wpkh",
      "scriptpubkey_address": "bc1qky4z2k6pndrvqyeywpdtaf0a99yl25z3zp84r6",
      "value": 294
    }
  ],
  "size": 295,
  "weight": 541,
  "fee": 1772,
  "status": {
    "confirmed": true,
    "block_height": 834460,
    "block_hash": "00000000000000000000484a79b643b2524bbce82e5d8a442013fa5b8905ed98",
    "block_time": 1710307468
  },
  "hex": "02000000000101f6438043095e848b0d5f9ff33f1e7f78c36bb61275991e3612b889872a7349ca0300000000fffffffd012601000000000000160014b12a255b419b46c01324705abea5fd2949f55051034019771016d4686ec38b664e27fbabc98922b1322f8b9fdd71273d67ceeef92553f43e062a9e636ef7e1344660b1f793aef2860c85ca9b60077a754b8dbfd606026e2058608b5f1fe96a1f44e1ca1559acb884b311473bd29d8ee416d526783bd6a256ac0063036f726401010a746578742f706c61696e00367b2270223a226272632d3230222c226f70223a226d696e74222c227469636b223a2261616161222c22616d74223a223130303030227d6821c158608b5f1fe96a1f44e1ca1559acb884b311473bd29d8ee416d526783bd6a25600000000"
}