{
  "txid": "0bdbed6184cd0ab994bdb191929f075d2bfff1c2bb2541a7f6aa2939c8f4adf6",
  "version": 2,
  "locktime": 0,
  "vin": [
    {
      "txid": "994b3080c5512e5152a624d94ed35871596a3efc0d36570a5e824307237db236",
      "vout": 1,
      "prevout": {
        "scriptpubkey": "0014c3a07410a68f6f9b47205d600b64daf943158d8a",
        "scriptpubkey_asm": "OP_0 OP_PUSHBYTES_20 c3a07410a68f6f9b47205d600b64daf943158d8a",
        "scriptpubkey_type": "v0_p2wpkh",
        "scriptpubkey_address": "bc1qcws8gy9x3ahek3eqt4sqkex6l9p3trv2x5y4yf",
        "value": 77382
      },
      "scriptsig": "",
      "scriptsig_asm": "",
      "witness": [
        "304502210089fe376cb3c194a8b5f1e5965ddb341e0955cfeffb5c871c1a92378f0c100bbf02206621f0df00aa286215d89836fc740293a74c0a0ae86449d6186579e9406007ad01",
        "02b4fe6b3f4bab7489e7b97c1d161521bbb296b3f8b4787c6d74a8c7e8de8862dc"
      ],
      "is_coinbase": false,
      "sequence": 4294967295
    }
  ],
  "vout": [
    {
      "scriptpubkey": "0014f8b4afd5958ce860550d8dab53499a6ac0f0fffc",
      "scriptpubkey_asm": "OP_0 OP_PUSHBYTES_20 f8b4afd5958ce860550d8dab53499a6ac0f0fffc",
      "scriptpubkey_type": "v0_p2wpkh",
      "scriptpubkey_address": "bc1qlz62l4v43n5xq4gd3k44xjv6dtq0plluzf7cmf",
      "value": 13925
    },
    {
      "scriptpubkey": "0014abc37094b3c154a1566b30091de1db4611be002c",
      "scriptpubkey_asm": "OP_0 OP_PUSHBYTES_20 abc37094b3c154a1566b30091de1db4611be002c",
      "scriptpubkey_type": "v0_p2wpkh",
      "scriptpubkey_address": "bc1q40php99nc922z4ntxqy3mcwmgcgmuqpvd5xchm",
      "value": 61934
    }
  ],
  "size": 223,
  "weight": 562,
  "fee": 1523,
  "status": {
    "confirmed": true,
    "block_height": 834464,
    "block_hash": "0000000000000000000177a0869a911a2b65c9bdcd5a8bcb02b68f305bee848e",
    "block_time": 1710308296
  },
  "hex": "0200000000010136b27d230743825e0a57360dfc3e6a597158d34ed924a652512e51c580304b990100000000ffffffff026536000000000000160014f8b4afd5958ce860550d8dab53499a6ac0f0fffceef1000000000000160014abc37094b3c154a1566b30091de1db4611be002c0248304502210089fe376cb3c194a8b5f1e5965ddb341e0955cfeffb5c871c1a92378f0c100bbf02206621f0df00aa286215d89836fc740293a74c0a0ae86449d6186579e9406007ad012102b4fe6b3f4bab7489e7b97c1d161521bbb296b3f8b4787c6d74a8c7e8de8862dc00000000"
}