{
  "txid": "0be531f90b7f03eacfde082f494050039b1e81a651fa114b3cea053b3ce7b3aa",
  "version": 2,
  "locktime": 0,
  "vin": [
    {
      "txid": "f416444a4de7a8cfa58a938cb2be6a0ebd0448945123145faf2a825456f2e21f",
      "vout": 1,
      "prevout": {
        "scriptpubkey": "5120cc0cec1234ef55d60e8ba0ab40738e63f02bf578bae17cf8557265e1751f5599",
        "scriptpubkey_asm": "OP_PUSHNUM_1 OP_PUSHBYTES_32 cc0cec1234ef55d60e8ba0ab40738e63f02bf578bae17cf8557265e1751f5599",
        "scriptpubkey_type": "v1_p2tr",
        "scriptpubkey_address": "bc1pesxwcy35aa2avr5t5z45quuwv0czhatchtshe7z4wfj7zagl2kvsphsnjf",
        "value": 726028
      },
      "scriptsig": "",
      "scriptsig_asm": "",
      "witness": [
        "eb4d63ad24bd793cc6858edb5c05a8bcf2b8dd70b290ca351f5e9a4016e23064b6c51688b2a4d33ee9322e8952017856028d78b5c236786dc8839d30b5a574f8"
      ],
      "is_coinbase": false,
      "sequence": 4294967293
    }
  ],
  "vout": [
    {
      "scriptpubkey": "5120b359a9b5efce57b576b6a8ac5a9b4e1a869447f86eeb5c34b89e407afaf741fb",
      "scriptpubkey_asm": "OP_PUSHNUM_1 OP_PUSHBYTES_32 b359a9b5efce57b576b6a8ac5a9b4e1a869447f86eeb5c34b89e407afaf741fb",
      "scriptpubkey_type": "v1_p2tr",
      "scriptpubkey_address": "bc1pkdv6nd00eetm2a4k4zk94x6wr2rfg3lcdm44cd9cneq847hhg8as7dmta3",
      "value": 3164
    },
    {
      "scriptpubkey": "5120cc0cec1234ef55d60e8ba0ab40738e63f02bf578bae17cf8557265e1751f5599",
      "scriptpubkey_asm": "OP_PUSHNUM_1 OP_PUSHBYTES_32 cc0cec1234ef55d60e8ba0ab40738e63f02bf578bae17cf8557265e1751f5599",
      "scriptpubkey_type": "v1_p2tr",
      "scriptpubkey_address": "bc1pesxwcy35aa2avr5t5z45quuwv0czhatchtshe7z4wfj7zagl2kvsphsnjf",
      "value": 720246
    }
  ],
  "size": 205,
  "weight": 616,
  "fee": 2618,
  "status": {
    "confirmed": true,
    "block_height": 834638,
    "block_hash": "000000000000000000025f742c626208ac87e0b7d15054abb4a19ca2d735a54e",
    "block_time": 1710405325
  },
  "hex": "020000000001011fe2f25654822aaf5f142351944804bd0e6abeb28c938aa5cfa8e74d4a4416f40100000000fdffffff025c0c000000000000225120b359a9b5efce57b576b6a8ac5a9b4e1a869447f86eeb5c34b89e407afaf741fb76fd0a0000000000225120cc0cec1234ef55d60e8ba0ab40738e63f02bf578bae17cf8557265e1751f55990140eb4d63ad24bd793cc6858edb5c05a8bcf2b8dd70b290ca351f5e9a4016e23064b6c51688b2a4d33ee9322e8952017856028d78b5c236786dc8839d30b5a574f800000000"
}