{
  "txid": "0bfde97052ae7f8bf710d2d93f6e2f7c4312014d0b159c6f9afc7f65cf34c664",
  "version": 2,
  "locktime": 0,
  "vin": [
    {
      "txid": "effd174ac956c3bda653da0d21d84fa5a1bc0a12513632a69c70717002159629",
      "vout": 1,
      "prevout": {
        "scriptpubkey": "001458cd9fb6ac8e7a76f4a318ac980d7f03ee94c6b6",
        "scriptpubkey_asm": "OP_0 OP_PUSHBYTES_20 58cd9fb6ac8e7a76f4a318ac980d7f03ee94c6b6",
        "scriptpubkey_type": "v0_p2wpkh",
        "scriptpubkey_address": "bc1qtrxeld4v3ea8da9rrzkfsrtlq0hff34k5u00s3",
        "value": 1005458
      },
      "scriptsig": "",
      "scriptsig_asm": "",
      "witness": [
        "3045022100fd95397b643c7734abbc2c4d3bef240f76f130f06420f1c922675f5aab0e927a022049c52e82306261067fc1b0a97e58bd821424592778e9355e6df410bb73a0036601",
        "02d629eeac548614b68ee489ccba692f252208d8c7e865f425feeff59520b7de1a"
      ],
      "is_coinbase": false,
      "sequence": 4294967293
    }
  ],
  "vout": [
    {
      "scriptpubkey": "001458cd9fb6ac8e7a76f4a318ac980d7f03ee94c6b6",
      "scriptpubkey_asm": "OP_0 OP_PUSHBYTES_20 58cd9fb6ac8e7a76f4a318ac980d7f03ee94c6b6",
      "scriptpubkey_type": "v0_p2wpkh",
      "scriptpubkey_address": "bc1qtrxeld4v3ea8da9rrzkfsrtlq0hff34k5u00s3",
      "value": 993150
    },
    {
      "scriptpubkey": "00142b371f52e7ff611596c3b3f323aef847229edbd3",
      "scriptpubkey_asm": "OP_0 OP_PUSHBYTES_20 2b371f52e7ff611596c3b3f323aef847229edbd3",
      "scriptpubkey_type": "v0_p2wpkh",
      "scriptpubkey_address": "bc1q9vm375h8las3t9krk0ej8thcgu3fak7nn6qe7g",
      "value": 7000
    }
  ],
  "size": 223,
  "weight": 562,
  "fee": 5308,
  "status": {
    "confirmed": true,
    "block_height": 834638,
    "block_hash": "000000000000000000025f742c626208ac87e0b7d15054abb4a19ca2d735a54e",
    "block_time": 1710405325
  },
  "hex": "02000000000101299615027071709ca6323651120abca1a54fd8210dda53a6bdc356c94a17fdef0100000000fdffffff027e270f000000000016001458cd9fb6ac8e7a76f4a318ac980d7f03ee94c6b6581b0000000000001600142b371f52e7ff611596c3b3f323aef847229edbd302483045022100fd95397b643c7734abbc2c4d3bef240f76f130f06420f1c922675f5aab0e927a022049c52e82306261067fc1b0a97e58bd821424592778e9355e6df410bb73a00366012102d629eeac548614b68ee489ccba692f252208d8c7e865f425feeff59520b7de1a00000000"
}