{
  "txid": "0c1493482f3199c044f0a9f8ebb83a262544df349809d3aef5c0f19254235fc7",
  "version": 2,
  "locktime": 0,
  "vin": [
    {
      "txid": "192306380dd1170a3b354560048a25762e43af74d88e1fa5547999761098607a",
      "vout": 4,
      "prevout": {
        "scriptpubkey": "5120dd09a82f651659035a0875a0840d2b526e5c0f91ae1ce14baa6c0538094b905d",
        "scriptpubkey_asm": "OP_PUSHNUM_1 OP_PUSHBYTES_32 dd09a82f651659035a0875a0840d2b526e5c0f91ae1ce14baa6c0538094b905d",
        "scriptpubkey_type": "v1_p2tr",
        "scriptpubkey_address": "bc1pm5y6stm9zevsxksgwksggrft2fh9cru34cwwzja2dsznsz2tjpws9e657k",
        "value": 2163
      },
      "scriptsig": "",
      "scriptsig_asm": "",
      "witness": [
        "7391a5b3f5d0077f4b1cb595db9f9025eb7ca279fbecc9ea5a0848378fd7272d8b9d9c08a2ce20ebe5be341151574dabfdbf6c49ae5bd8d7098eb2666a2838a4",
        "209d2d2e483f84d1d1a9451c331d918870b1edbc05fbd6bad8d71ccc269288b7d1ac0063036f726401010a746578742f706c61696e00357b2270223a226272632d3230222c227469636b223a2262637374222c226f70223a226d696e74222c22616d74223a2233303030227d68",
        "c19d2d2e483f84d1d1a9451c331d918870b1edbc05fbd6bad8d71ccc269288b7d1"
      ],
      "is_coinbase": false,
      "sequence": 4294967293
    }
  ],
  "vout": [
    {
      "scriptpubkey": "5120195833b322fa9ca3f92749effec29eb17c0fea2fc1de20782fe2d0ae5e994072",
      "scriptpubkey_asm": "OP_PUSHNUM_1 OP_PUSHBYTES_32 195833b322fa9ca3f92749effec29eb17c0fea2fc1de20782fe2d0ae5e994072",
      "scriptpubkey_type": "v1_p2tr",
      "scriptpubkey_address": "bc1pr9vr8vezl2w287f8f8hlas57k97ql630c80zq7p0utg2uh5egpeqf2kx34",
      "value": 546
    }
  ],
  "size": 306,
  "weight": 588,
  "fee": 1617,
  "status": {
    "confirmed": true,
    "block_height": 834464,
    "block_hash": "0000000000000000000177a0869a911a2b65c9bdcd5a8bcb02b68f305bee848e",
    "block_time": 1710308296
  },
  "hex": "020000000001017a60981076997954a51f8ed874af432e76258a046045353b0a17d10d380623190400000000fdffffff012202000000000000225120195833b322fa9ca3f92749effec29eb17c0fea2fc1de20782fe2d0ae5e99407203407391a5b3f5d0077f4b1cb595db9f9025eb7ca279fbecc9ea5a0848378fd7272d8b9d9c08a2ce20ebe5be341151574dabfdbf6c49ae5bd8d7098eb2666a2838a46d209d2d2e483f84d1d1a9451c331d918870b1edbc05fbd6bad8d71ccc269288b7d1ac0063036f726401010a746578742f706c61696e00357b2270223a226272632d3230222c227469636b223a2262637374222c226f70223a226d696e74222c22616d74223a2233303030227d6821c19d2d2e483f84d1d1a9451c331d918870b1edbc05fbd6bad8d71ccc269288b7d100000000"
}