{
  "txid": "0c1899b4e5cd4ab52aa5c88aa06cfc9e2cd252e7708e41f47f1f1953d6a4d977",
  "version": 2,
  "locktime": 0,
  "vin": [
    {
      "txid": "8552656766a0b5d8442206500b4d4e3d35958b9501d3e19764741864b16a4853",
      "vout": 0,
      "prevout": {
        "scriptpubkey": "51200e0537f64938e0518dd48dfb3034c78c7aa4e63c93c7b62beccabfab942c04be",
        "scriptpubkey_asm": "OP_PUSHNUM_1 OP_PUSHBYTES_32 0e0537f64938e0518dd48dfb3034c78c7aa4e63c93c7b62beccabfab942c04be",
        "scriptpubkey_type": "v1_p2tr",
        "scriptpubkey_address": "bc1ppczn0ajf8rs9rrw53hanqdx833a2fe3uj0rmv2lve2l6h9pvqjlq7ufhxv",
        "value": 3010
      },
      "scriptsig": "",
      "scriptsig_asm": "",
      "witness": [
        "92628e0f75c0d88c2d3d545301f129f43121b9e5c5b13c0b9a9ccf1b15d07283f6fdecc07d3844a845c055db2cb10781bfacd8744a2be739a6aa095f14f27e2b",
        "2070b72b0c467d3cca0d22ec193c23453782cf9bea8f16e7536a3e252ba9eb1c34ac0063036f7264010118746578742f706c61696e3b636861727365743d7574662d3800417b2270223a226272632d3230222c226f70223a227472616e73666572222c227469636b223a22f09d9b91222c22616d74223a22313233303030303030303030227d68",
        "c170b72b0c467d3cca0d22ec193c23453782cf9bea8f16e7536a3e252ba9eb1c34"
      ],
      "is_coinbase": false,
      "sequence": 4294967293
    }
  ],
  "vout": [
    {
      "scriptpubkey": "5120fd85569c7d2f78a19aa67ef22cd8cce487c5b0dd58a04b05c926f7c188056374",
      "scriptpubkey_asm": "OP_PUSHNUM_1 OP_PUSHBYTES_32 fd85569c7d2f78a19aa67ef22cd8cce487c5b0dd58a04b05c926f7c188056374",
      "scriptpubkey_type": "v1_p2tr",
      "scriptpubkey_address": "bc1plkz4d8ra9au2rx4x0mezekxvujrutvxatzsykpwfymmurzq9vd6qvd6mws",
      "value": 546
    }
  ],
  "size": 332,
  "weight": 614,
  "fee": 2464,
  "status": {
    "confirmed": true,
    "block_height": 834464,
    "block_hash": "0000000000000000000177a0869a911a2b65c9bdcd5a8bcb02b68f305bee848e",
    "block_time": 1710308296
  },
  "hex": "0200000000010153486ab16418746497e1d301958b95353d4e4d0b50062244d8b5a066676552850000000000fdffffff012202000000000000225120fd85569c7d2f78a19aa67ef22cd8cce487c5b0dd58a04b05c926f7c188056374034092628e0f75c0d88c2d3d545301f129f43121b9e5c5b13c0b9a9ccf1b15d07283f6fdecc07d3844a845c055db2cb10781bfacd8744a2be739a6aa095f14f27e2b872070b72b0c467d3cca0d22ec193c23453782cf9bea8f16e7536a3e252ba9eb1c34ac0063036f7264010118746578742f706c61696e3b636861727365743d7574662d3800417b2270223a226272632d3230222c226f70223a227472616e73666572222c227469636b223a22f09d9b91222c22616d74223a22313233303030303030303030227d6821c170b72b0c467d3cca0d22ec193c23453782cf9bea8f16e7536a3e252ba9eb1c3400000000"
}