{
  "txid": "0c261e98d0e2ad51db8153439d58fccc34cb886cf462262407c56b2596925f27",
  "version": 2,
  "locktime": 834458,
  "vin": [
    {
      "txid": "33d975a830ff0a396d23fd8d03e846c31a019b82d6a191c73c5098874ed716c3",
      "vout": 1,
      "prevout": {
        "scriptpubkey": "001454279425ba01170cb32ec30e5cd60e71a1472790",
        "scriptpubkey_asm": "OP_0 OP_PUSHBYTES_20 54279425ba01170cb32ec30e5cd60e71a1472790",
        "scriptpubkey_type": "v0_p2wpkh",
        "scriptpubkey_address": "bc1q2snegfd6qytsevewcv89e4swwxs5wfusz2qlnz",
        "value": 42255
      },
      "scriptsig": "",
      "scriptsig_asm": "",
      "witness": [
        "304402204c7539e0bcda98c9ca6bea837febe776a3e2e02d857aafd82b0701a9c5b11d08022036c82bcd7db4efaf6b928aca408b50962d5aa86a8f0c56acbac24fb7678af63601",
        "02de718b7188ef255aef03822ce2416e449a992ef50d202be70c2fe36f82ca6b4f"
      ],
      "is_coinbase": false,
      "sequence": 4294967293
    }
  ],
  "vout": [
    {
      "scriptpubkey": "00144d747c2971383a2ae7988cf565ae91fa2f1b9d97",
      "scriptpubkey_asm": "OP_0 OP_PUSHBYTES_20 4d747c2971383a2ae7988cf565ae91fa2f1b9d97",
      "scriptpubkey_type": "v0_p2wpkh",
      "scriptpubkey_address": "bc1qf468c2t38qaz4euc3n6ktt53lgh3h8vh5af7w2",
      "value": 2956
    },
    {
      "scriptpubkey": "76a9145fb0d4acf8a3296d6b852302550286f668e914ee88ac",
      "scriptpubkey_asm": "OP_DUP OP_HASH160 OP_PUSHBYTES_20 5fb0d4acf8a3296d6b852302550286f668e914ee OP_EQUALVERIFY OP_CHECKSIG",
      "scriptpubkey_type": "p2pkh",
      "scriptpubkey_address": "19iy2eAd1dkGscAmgJyip2fkZ9A7D1y4TZ",
      "value": 37427
    }
  ],
  "size": 225,
  "weight": 573,
  "fee": 1872,
  "status": {
    "confirmed": true,
    "block_height": 834460,
    "block_hash": "00000000000000000000484a79b643b2524bbce82e5d8a442013fa5b8905ed98",
    "block_time": 1710307468
  },
  "hex": "02000000000101c316d74e8798503cc791a1d6829b011ac346e8038dfd236d390aff30a875d9330100000000fdffffff028c0b0000000000001600144d747c2971383a2ae7988cf565ae91fa2f1b9d9733920000000000001976a9145fb0d4acf8a3296d6b852302550286f668e914ee88ac0247304402204c7539e0bcda98c9ca6bea837febe776a3e2e02d857aafd82b0701a9c5b11d08022036c82bcd7db4efaf6b928aca408b50962d5aa86a8f0c56acbac24fb7678af636012102de718b7188ef255aef03822ce2416e449a992ef50d202be70c2fe36f82ca6b4f9abb0c00"
}