{
  "txid": "0c2aa05afa540554f76816b3bccba52fe655bf89b7c1baa0dccae3018624edbd",
  "version": 2,
  "locktime": 0,
  "vin": [
    {
      "txid": "8a0b6ee86e57a2dfa55885575017996d71f88771940837104c141707d24f3bb9",
      "vout": 1,
      "prevout": {
        "scriptpubkey": "0014f533a935acb6edd923a92f9899898344f55b5553",
        "scriptpubkey_asm": "OP_0 OP_PUSHBYTES_20 f533a935acb6edd923a92f9899898344f55b5553",
        "scriptpubkey_type": "v0_p2wpkh",
        "scriptpubkey_address": "bc1q75e6jddvkmkajgaf97vfnzvrgn64k42n39s0xq",
        "value": 152780
      },
      "scriptsig": "",
      "scriptsig_asm": "",
      "witness": [
        "3045022100ca7fc88fb8973a8c04d3d674345ae7dfcbc6d3d888ea95c1444b2b0f93137241022065b5f631b7c1efe4f981a36a5d124492607bd66dfd62c2c70d7e93d65c4c181a01",
        "03f05e971eb8dc5dd8ec2ffa98c0dd21663a22b7be2f04451b873c7bf267049593"
      ],
      "is_coinbase": false,
      "sequence": 4294967295
    }
  ],
  "vout": [
    {
      "scriptpubkey": "5120666cd1926579c0e03a4f559956cea6fb6aaa8c74c381781ad945c9bd992687a2",
      "scriptpubkey_asm": "OP_PUSHNUM_1 OP_PUSHBYTES_32 666cd1926579c0e03a4f559956cea6fb6aaa8c74c381781ad945c9bd992687a2",
      "scriptpubkey_type": "v1_p2tr",
      "scriptpubkey_address": "bc1pvekdryn908qwqwj02kv4dn4xld424rr5cwqhsxkeghymmxfxs73qqt2qrf",
      "value": 4000
    },
    {
      "scriptpubkey": "0014f533a935acb6edd923a92f9899898344f55b5553",
      "scriptpubkey_asm": "OP_0 OP_PUSHBYTES_20 f533a935acb6edd923a92f9899898344f55b5553",
      "scriptpubkey_type": "v0_p2wpkh",
      "scriptpubkey_address": "bc1q75e6jddvkmkajgaf97vfnzvrgn64k42n39s0xq",
      "value": 147097
    }
  ],
  "size": 235,
  "weight": 610,
  "fee": 1683,
  "status": {
    "confirmed": true,
    "block_height": 834464,
    "block_hash": "0000000000000000000177a0869a911a2b65c9bdcd5a8bcb02b68f305bee848e",
    "block_time": 1710308296
  },
  "hex": "02000000000101b93b4fd20717144c103708947187f8716d991750578558a5dfa2576ee86e0b8a0100000000ffffffff02a00f000000000000225120666cd1926579c0e03a4f559956cea6fb6aaa8c74c381781ad945c9bd992687a2993e020000000000160014f533a935acb6edd923a92f9899898344f55b555302483045022100ca7fc88fb8973a8c04d3d674345ae7dfcbc6d3d888ea95c1444b2b0f93137241022065b5f631b7c1efe4f981a36a5d124492607bd66dfd62c2c70d7e93d65c4c181a012103f05e971eb8dc5dd8ec2ffa98c0dd21663a22b7be2f04451b873c7bf26704959300000000"
}