{
  "txid": "0c2fde2e6a550c3553e91c733636e75ebbf6f62052d7b64e79b6c04ec1530b21",
  "version": 2,
  "locktime": 0,
  "vin": [
    {
      "txid": "83905eb34380370c360403ee5dce09ea755f1e06e34732e3372115e5d789add3",
      "vout": 9,
      "prevout": {
        "scriptpubkey": "0014da8cb8d1996b0e88ed8ed779a6149fc54d3f5ff7",
        "scriptpubkey_asm": "OP_0 OP_PUSHBYTES_20 da8cb8d1996b0e88ed8ed779a6149fc54d3f5ff7",
        "scriptpubkey_type": "v0_p2wpkh",
        "scriptpubkey_address": "bc1qm2xt35vedv8g3mvw6au6v9ylc4xn7hlhuyhceg",
        "value": 9644386
      },
      "scriptsig": "",
      "scriptsig_asm": "",
      "witness": [
        "30440220099e7f00b91ccb0f685adbc980f496d2a1feb0c1029702c26f8a64d645299ca8022068f3d9a52a88a28d5b4694dd00d5c9e8aaec648df4601c4fc6a73cb5402f590401",
        "03d81ccb1f16dfde3bad16c52b1a07fa1fe8cc73b034017c2ce1866a3fa7941303"
      ],
      "is_coinbase": false,
      "sequence": 2147483648
    }
  ],
  "vout": [
    {
      "scriptpubkey": "76a91454b3f39c659ae7305b9a360735981282e4c19f2188ac",
      "scriptpubkey_asm": "OP_DUP OP_HASH160 OP_PUSHBYTES_20 54b3f39c659ae7305b9a360735981282e4c19f21 OP_EQUALVERIFY OP_CHECKSIG",
      "scriptpubkey_type": "p2pkh",
      "scriptpubkey_address": "18isLNVJ3vfXHDvZ7nRCThTYRtht4cE42k",
      "value": 50000
    },
    {
      "scriptpubkey": "00146ac78cbea17b5aac4d3bc8fad8257b6498786e99",
      "scriptpubkey_asm": "OP_0 OP_PUSHBYTES_20 6ac78cbea17b5aac4d3bc8fad8257b6498786e99",
      "scriptpubkey_type": "v0_p2wpkh",
      "scriptpubkey_address": "bc1qdtrce04p0dd2cnfmeradsftmvjv8sm5ee8rj80",
      "value": 9591466
    }
  ],
  "size": 225,
  "weight": 573,
  "fee": 2920,
  "status": {
    "confirmed": true,
    "block_height": 834638,
    "block_hash": "000000000000000000025f742c626208ac87e0b7d15054abb4a19ca2d735a54e",
    "block_time": 1710405325
  },
  "hex": "02000000000101d3ad89d7e5152137e33247e3061e5f75ea09ce5dee0304360c378043b35e90830900000000000000800250c30000000000001976a91454b3f39c659ae7305b9a360735981282e4c19f2188acaa5a9200000000001600146ac78cbea17b5aac4d3bc8fad8257b6498786e99024730440220099e7f00b91ccb0f685adbc980f496d2a1feb0c1029702c26f8a64d645299ca8022068f3d9a52a88a28d5b4694dd00d5c9e8aaec648df4601c4fc6a73cb5402f5904012103d81ccb1f16dfde3bad16c52b1a07fa1fe8cc73b034017c2ce1866a3fa794130300000000"
}