{
  "txid": "0c3d66bc640e838589c1c5c9cdb849e5cd09be039b205dea9e29eb4c806d4e2e",
  "version": 2,
  "locktime": 0,
  "vin": [
    {
      "txid": "7cfe674f1e972c513ca134977760af7b0ba5b13e0ddb403dac0aece3bff84943",
      "vout": 1,
      "prevout": {
        "scriptpubkey": "a9147f1463882fd439c069afdb5a5af6085f53718f8387",
        "scriptpubkey_asm": "OP_HASH160 OP_PUSHBYTES_20 7f1463882fd439c069afdb5a5af6085f53718f83 OP_EQUAL",
        "scriptpubkey_type": "p2sh",
        "scriptpubkey_address": "3DGxAYYUA61WrrdbBac8Ra9eA9peAQwTJF",
        "value": 2783232
      },
      "scriptsig": "2200206572d22a14725b0d5d38a2c39bdf0cd54eccb6a82888e2dff26d6ad3e44d5d5d",
      "scriptsig_asm": "OP_PUSHBYTES_34 00206572d22a14725b0d5d38a2c39bdf0cd54eccb6a82888e2dff26d6ad3e44d5d5d",
      "witness": [
        "",
        "304402206df6c77dead7cf9ada894d5960fb7ebe82815fc7d545456bb8af0c54cdbee176022052e5011279ff1665eac1f17f6a0e1ad0d308b39a85bda0e8f34aa200aecc76e801",
        "30440220763a1dbe3b2480c20b0e5b7f55bfad7fe089c42cc2c8d6e6b7bab67aa168f9cb02200af11ec301db59c78cb0a7c44b84166a0ca441bb312c024e67935560ce025b1a01",
        "5221038670f281511910c8f1766760e3443bb9ee3c8ef7d8747723e44469dd1578bffe210206e557618c5df9fb20a3f580632ee11b05d724bd99f6e01df92b5ccc3c2eaa332102f1db4fd7e30f0cf640df8efc312385498241d9562242b7030401c5923948218253ae"
      ],
      "is_coinbase": false,
      "sequence": 4294967294,
      "inner_redeemscript_asm": "OP_0 OP_PUSHBYTES_32 6572d22a14725b0d5d38a2c39bdf0cd54eccb6a82888e2dff26d6ad3e44d5d5d",
      "inner_witnessscript_asm": "OP_PUSHNUM_2 OP_PUSHBYTES_33 038670f281511910c8f1766760e3443bb9ee3c8ef7d8747723e44469dd1578bffe OP_PUSHBYTES_33 0206e557618c5df9fb20a3f580632ee11b05d724bd99f6e01df92b5ccc3c2eaa33 OP_PUSHBYTES_33 02f1db4fd7e30f0cf640df8efc312385498241d9562242b7030401c59239482182 OP_PUSHNUM_3 OP_CHECKMULTISIG"
    },
    {
      "txid": "5d265716d578536b6e56d5446225ecf8bb998e20fc6141156f24da5729914bc1",
      "vout": 0,
      "prevout": {
        "scriptpubkey": "a9147f1463882fd439c069afdb5a5af6085f53718f8387",
        "scriptpubkey_asm": "OP_HASH160 OP_PUSHBYTES_20 7f1463882fd439c069afdb5a5af6085f53718f83 OP_EQUAL",
        "scriptpubkey_type": "p2sh",
        "scriptpubkey_address": "3DGxAYYUA61WrrdbBac8Ra9eA9peAQwTJF",
        "value": 300000000
      },
      "scriptsig": "2200206572d22a14725b0d5d38a2c39bdf0cd54eccb6a82888e2dff26d6ad3e44d5d5d",
      "scriptsig_asm": "OP_PUSHBYTES_34 00206572d22a14725b0d5d38a2c39bdf0cd54eccb6a82888e2dff26d6ad3e44d5d5d",
      "witness": [
        "",
        "3044022034acf666b8aa6ee37b931bc9c3b46364e99126cff174ef626902a3798503b926022005e10456c766a038d9ab5b5b108d31813a9f8e16f65ee7377d8d0ba3efb3c2fb01",
        "3044022063c9e095873f315f20b612ade9e7df9938bda0a3c2b4e439e7598a94e08bad4902204e0c22696aaf124a8206fb8b538833dcbeda6dfa9d7f54063fe6bb24c9aa817a01",
        "5221038670f281511910c8f1766760e3443bb9ee3c8ef7d8747723e44469dd1578bffe210206e557618c5df9fb20a3f580632ee11b05d724bd99f6e01df92b5ccc3c2eaa332102f1db4fd7e30f0cf640df8efc312385498241d9562242b7030401c5923948218253ae"
      ],
      "is_coinbase": false,
      "sequence": 4294967294,
      "inner_redeemscript_asm": "OP_0 OP_PUSHBYTES_32 6572d22a14725b0d5d38a2c39bdf0cd54eccb6a82888e2dff26d6ad3e44d5d5d",
      "inner_witnessscript_asm": "OP_PUSHNUM_2 OP_PUSHBYTES_33 038670f281511910c8f1766760e3443bb9ee3c8ef7d8747723e44469dd1578bffe OP_PUSHBYTES_33 0206e557618c5df9fb20a3f580632ee11b05d724bd99f6e01df92b5ccc3c2eaa33 OP_PUSHBYTES_33 02f1db4fd7e30f0cf640df8efc312385498241d9562242b7030401c59239482182 OP_PUSHNUM_3 OP_CHECKMULTISIG"
    },
    {
      "txid": "0012d413c1818670550716dbad15df4dda10d072ee2cd685b02029725d8dca97",
      "vout": 1,
      "prevout": {
        "scriptpubkey": "a9147f1463882fd439c069afdb5a5af6085f53718f8387",
        "scriptpubkey_asm": "OP_HASH160 OP_PUSHBYTES_20 7f1463882fd439c069afdb5a5af6085f53718f83 OP_EQUAL",
        "scriptpubkey_type": "p2sh",
        "scriptpubkey_address": "3DGxAYYUA61WrrdbBac8Ra9eA9peAQwTJF",
        "value": 58177958
      },
      "scriptsig": "2200206572d22a14725b0d5d38a2c39bdf0cd54eccb6a82888e2dff26d6ad3e44d5d5d",
      "scriptsig_asm": "OP_PUSHBYTES_34 00206572d22a14725b0d5d38a2c39bdf0cd54eccb6a82888e2dff26d6ad3e44d5d5d",
      "witness": [
        "",
        "304402206f7edb6d48b5ce92d74fb0d498fa2d84ad4a7890e2b496b258e4d7f4004c79ff02206ab8690fad5510194cfbaf3f0929a0ab48842fbe9458639dc8f18565a91ab89b01",
        "30440220605447915fba998b6bc2f870f154c6df8e217884b9eadc8cdd0fda1a29f439650220534668b2c394dfdb4bfefe30f21654a18a17ae16b2f43ab8272fb6211e7abb2301",
        "5221038670f281511910c8f1766760e3443bb9ee3c8ef7d8747723e44469dd1578bffe210206e557618c5df9fb20a3f580632ee11b05d724bd99f6e01df92b5ccc3c2eaa332102f1db4fd7e30f0cf640df8efc312385498241d9562242b7030401c5923948218253ae"
      ],
      "is_coinbase": false,
      "sequence": 4294967294,
      "inner_redeemscript_asm": "OP_0 OP_PUSHBYTES_32 6572d22a14725b0d5d38a2c39bdf0cd54eccb6a82888e2dff26d6ad3e44d5d5d",
      "inner_witnessscript_asm": "OP_PUSHNUM_2 OP_PUSHBYTES_33 038670f281511910c8f1766760e3443bb9ee3c8ef7d8747723e44469dd1578bffe OP_PUSHBYTES_33 0206e557618c5df9fb20a3f580632ee11b05d724bd99f6e01df92b5ccc3c2eaa33 OP_PUSHBYTES_33 02f1db4fd7e30f0cf640df8efc312385498241d9562242b7030401c59239482182 OP_PUSHNUM_3 OP_CHECKMULTISIG"
    }
  ],
  "vout": [
    {
      "scriptpubkey": "76a9140074af807f54cca6c8c88f4f9be476b5b14c5e6d88ac",
      "scriptpubkey_asm": "OP_DUP OP_HASH160 OP_PUSHBYTES_20 0074af807f54cca6c8c88f4f9be476b5b14c5e6d OP_EQUALVERIFY OP_CHECKSIG",
      "scriptpubkey_type": "p2pkh",
      "scriptpubkey_address": "113QnTMo6aSRdK6tFm4HHJVBJ3ykYepery",
      "value": 359370000
    },
    {
      "scriptpubkey": "a9147f1463882fd439c069afdb5a5af6085f53718f8387",
      "scriptpubkey_asm": "OP_HASH160 OP_PUSHBYTES_20 7f1463882fd439c069afdb5a5af6085f53718f83 OP_EQUAL",
      "scriptpubkey_type": "p2sh",
      "scriptpubkey_address": "3DGxAYYUA61WrrdbBac8Ra9eA9peAQwTJF",
      "value": 1540205
    }
  ],
  "size": 1062,
  "weight": 1974,
  "fee": 50985,
  "status": {
    "confirmed": true,
    "block_height": 834638,
    "block_hash": "000000000000000000025f742c626208ac87e0b7d15054abb4a19ca2d735a54e",
    "block_time": 1710405325
  },
  "hex": "020000000001034349f8bfe3ec0aac3d40db0d3eb1a50b7baf60779734a13c512c971e4f67fe7c01000000232200206572d22a14725b0d5d38a2c39bdf0cd54eccb6a82888e2dff26d6ad3e44d5d5dfeffffffc14b912957da246f154161fc208e99bbf8ec256244d5566e6b5378d51657265d00000000232200206572d22a14725b0d5d38a2c39bdf0cd54eccb6a82888e2dff26d6ad3e44d5d5dfeffffff97ca8d5d722920b085d62cee72d010da4ddf15addb160755708681c113d4120001000000232200206572d22a14725b0d5d38a2c39bdf0cd54eccb6a82888e2dff26d6ad3e44d5d5dfeffffff02108d6b15000000001976a9140074af807f54cca6c8c88f4f9be476b5b14c5e6d88ac6d8017000000000017a9147f1463882fd439c069afdb5a5af6085f53718f8387040047304402206df6c77dead7cf9ada894d5960fb7ebe82815fc7d545456bb8af0c54cdbee176022052e5011279ff1665eac1f17f6a0e1ad0d308b39a85bda0e8f34aa200aecc76e8014730440220763a1dbe3b2480c20b0e5b7f55bfad7fe089c42cc2c8d6e6b7bab67aa168f9cb02200af11ec301db59c78cb0a7c44b84166a0ca441bb312c024e67935560ce025b1a01695221038670f281511910c8f1766760e3443bb9ee3c8ef7d8747723e44469dd1578bffe210206e557618c5df9fb20a3f580632ee11b05d724bd99f6e01df92b5ccc3c2eaa332102f1db4fd7e30f0cf640df8efc312385498241d9562242b7030401c5923948218253ae0400473044022034acf666b8aa6ee37b931bc9c3b46364e99126cff174ef626902a3798503b926022005e10456c766a038d9ab5b5b108d31813a9f8e16f65ee7377d8d0ba3efb3c2fb01473044022063c9e095873f315f20b612ade9e7df9938bda0a3c2b4e439e7598a94e08bad4902204e0c22696aaf124a8206fb8b538833dcbeda6dfa9d7f54063fe6bb24c9aa817a01695221038670f281511910c8f1766760e3443bb9ee3c8ef7d8747723e44469dd1578bffe210206e557618c5df9fb20a3f580632ee11b05d724bd99f6e01df92b5ccc3c2eaa332102f1db4fd7e30f0cf640df8efc312385498241d9562242b7030401c5923948218253ae040047304402206f7edb6d48b5ce92d74fb0d498fa2d84ad4a7890e2b496b258e4d7f4004c79ff02206ab8690fad5510194cfbaf3f0929a0ab48842fbe9458639dc8f18565a91ab89b014730440220605447915fba998b6bc2f870f154c6df8e217884b9eadc8cdd0fda1a29f439650220534668b2c394dfdb4bfefe30f21654a18a17ae16b2f43ab8272fb6211e7abb2301695221038670f281511910c8f1766760e3443bb9ee3c8ef7d8747723e44469dd1578bffe210206e557618c5df9fb20a3f580632ee11b05d724bd99f6e01df92b5ccc3c2eaa332102f1db4fd7e30f0cf640df8efc312385498241d9562242b7030401c5923948218253ae00000000"
}