{
  "txid": "0c3eea65166073698aa70c12c506fb7f0e89d5b3e924146a22004653a23eaae2",
  "version": 2,
  "locktime": 0,
  "vin": [
    {
      "txid": "db83b888de395c3e42beb421b6eaaff51f6530c6adedc47fada740d897204a3d",
      "vout": 0,
      "prevout": {
        "scriptpubkey": "51203772097cad6e1287834a8ccda2ce8478736662bd0666a2fb8068264d4e344a4b",
        "scriptpubkey_asm": "OP_PUSHNUM_1 OP_PUSHBYTES_32 3772097cad6e1287834a8ccda2ce8478736662bd0666a2fb8068264d4e344a4b",
        "scriptpubkey_type": "v1_p2tr",
        "scriptpubkey_address": "bc1pxaeqjl9ddcfg0q623nx69n5y0pekvc4aqen297uqdqny6n35ff9s7epu6x",
        "value": 16386
      },
      "scriptsig": "",
      "scriptsig_asm": "",
      "witness": [
        "18d93de786ef369e946367518c857205d4406d2cdb4362c9cd28afc10e20cc800338f526fb364bd2c4847ffe9863f5862f28144c4f216b64b98f71451d1914f8",
        "20f2d00e1cce0b839d2e197679cac7a15152ec244338032c7767f72c1332d49a65ac0063036f7264010109696d6167652f706e67004dd30189504e470d0a1a0a0000000d4948445200000018000000180806000000e0773df800000006624b474400ff00ff00ffa0bda79300000188494441544889ed54af6bc340187d095575dba066621185bac1a02ea67f41d55cb79de928545756565617c20ae1b6d54df52fa889281436e20a15313371637fc04da477dc92ef72b7ea3df848f2dd97f7be7bf703f887059e4b516f1e0ad3d86692d4725805eac85d441ab69fbf3ebe6d25b5a89dc1cdddb5b57b89f7d794e4320ab8585306651529700ab949a401009c73c118ab886d2609bad3859574371ba3370fcd059c73c1392f772dcad19d2e2a392d48d4eea2cb8740bd7f3e67d8cdc664be0e3e0030c63ccaa28bab73150010ed73327fb4919c850f14165183cdb3a60a97bc118635905d090022dae72a40accbf1ff0a4703282c32894b5b469d16a27dae9e00f0f4f2666dded76741154812496a22678c01c4b9f2f50f4ae4f1fe96ec8cc83bddcc65543c87b626f87d3648c87340157840e1fd72d0c770b556f6fc05eaa02d077d951caed6d0f314f9a8d372ba46944072c810b60324874ca6842497843a5cc875012fdea60200c27680b01de833a116cff9b6d5ef222fdea622dea6faf8493b43c70fb800bbd1313b4f6d0000000049454e44ae426082680063036f726401011e6170706c69636174696f6e2f6a736f6e3b636861727365743d7574662d38004d63017b2270223a22766f7264222c2276223a312c227479223a22696e7363222c22636f6c223a2232383065333738313138383064303332393933323865643538626562333565653362633362633964343863646365666334633231656534343132303865316463222c22696964223a22426974636f696e204170652050756e6b222c227075626c223a2231455337623370636a527a4667796969714c7278484b546e43686535364c4a485937222c226e6f6e6365223a3131302c226d696e746572223a22626331707533367a6c30736439377a3777353966337075686c6a7038716b72687a7763356d75756c7a72776e776a783974326138716d7573786461713865222c22736967223a2248507a3468686e665746324b474f4e52706733492f334842766653784f576e62722f7a675a5530315649336e4a2f4e496a42646275727679654a4b766b656d68414233716b2b38593578676d6d5a4d763974614e5572453d227d68",
        "c1f2d00e1cce0b839d2e197679cac7a15152ec244338032c7767f72c1332d49a65675a92934efa5e4869b2432a3e00abfc6819367af43949c2edc693b32d23ac05"
      ],
      "is_coinbase": false,
      "sequence": 4294967293
    }
  ],
  "vout": [
    {
      "scriptpubkey": "5120e4742fbe0d2f85e750a988797fc8270587713b14df39f10dd3748c55aba706f9",
      "scriptpubkey_asm": "OP_PUSHNUM_1 OP_PUSHBYTES_32 e4742fbe0d2f85e750a988797fc8270587713b14df39f10dd3748c55aba706f9",
      "scriptpubkey_type": "v1_p2tr",
      "scriptpubkey_address": "bc1pu36zl0sd97z7w59f3puhljp8qkrhzwc5muulzrwnwjx9t2a8qmusxdaq8e",
      "value": 1000
    },
    {
      "scriptpubkey": "76a914d95729ce23666402d6f7251647a44b8fbda5e7a388ac",
      "scriptpubkey_asm": "OP_DUP OP_HASH160 OP_PUSHBYTES_20 d95729ce23666402d6f7251647a44b8fbda5e7a3 OP_EQUALVERIFY OP_CHECKSIG",
      "scriptpubkey_type": "p2pkh",
      "scriptpubkey_address": "1LpC3qhKu2fJ566y2ZGGiEHqkrotiwedoC",
      "value": 7638
    },
    {
      "scriptpubkey": "51200705a5767db892e98125775049b1a13dd9ecdc8aea0df413cabbee683e871012",
      "scriptpubkey_asm": "OP_PUSHNUM_1 OP_PUSHBYTES_32 0705a5767db892e98125775049b1a13dd9ecdc8aea0df413cabbee683e871012",
      "scriptpubkey_type": "v1_p2tr",
      "scriptpubkey_address": "bc1pquz62anahzfwnqf9wagynvdp8hv7ehy2agxlgy72h0hxs058zqfqk8ksyq",
      "value": 2952
    }
  ],
  "size": 1231,
  "weight": 1744,
  "fee": 4796,
  "status": {
    "confirmed": true,
    "block_height": 834464,
    "block_hash": "0000000000000000000177a0869a911a2b65c9bdcd5a8bcb02b68f305bee848e",
    "block_time": 1710308296
  },
  "hex": "020000000001013d4a2097d840a7ad7fc4edadc630651ff5afeab621b4be423e5c39de88b883db0000000000fdffffff03e803000000000000225120e4742fbe0d2f85e750a988797fc8270587713b14df39f10dd3748c55aba706f9d61d0000000000001976a914d95729ce23666402d6f7251647a44b8fbda5e7a388ac880b0000000000002251200705a5767db892e98125775049b1a13dd9ecdc8aea0df413cabbee683e871012034018d93de786ef369e946367518c857205d4406d2cdb4362c9cd28afc10e20cc800338f526fb364bd2c4847ffe9863f5862f28144c4f216b64b98f71451d1914f8fd9b0320f2d00e1cce0b839d2e197679cac7a15152ec244338032c7767f72c1332d49a65ac0063036f7264010109696d6167652f706e67004dd30189504e470d0a1a0a0000000d4948445200000018000000180806000000e0773df800000006624b474400ff00ff00ffa0bda79300000188494441544889ed54af6bc340187d095575dba066621185bac1a02ea67f41d55cb79de928545756565617c20ae1b6d54df52fa889281436e20a15313371637fc04da477dc92ef72b7ea3df848f2dd97f7be7bf703f887059e4b516f1e0ad3d86692d4725805eac85d441ab69fbf3ebe6d25b5a89dc1cdddb5b57b89f7d794e4320ab8585306651529700ab949a401009c73c118ab886d2609bad3859574371ba3370fcd059c73c1392f772dcad19d2e2a392d48d4eea2cb8740bd7f3e67d8cdc664be0e3e0030c63ccaa28bab73150010ed73327fb4919c850f14165183cdb3a60a97bc118635905d090022dae72a40accbf1ff0a4703282c32894b5b469d16a27dae9e00f0f4f2666dded76741154812496a22678c01c4b9f2f50f4ae4f1fe96ec8cc83bddcc65543c87b626f87d3648c87340157840e1fd72d0c770b556f6fc05eaa02d077d951caed6d0f314f9a8d372ba46944072c810b60324874ca6842497843a5cc875012fdea60200c27680b01de833a116cff9b6d5ef222fdea622dea6faf8493b43c70fb800bbd1313b4f6d0000000049454e44ae426082680063036f726401011e6170706c69636174696f6e2f6a736f6e3b636861727365743d7574662d38004d63017b2270223a22766f7264222c2276223a312c227479223a22696e7363222c22636f6c223a2232383065333738313138383064303332393933323865643538626562333565653362633362633964343863646365666334633231656534343132303865316463222c22696964223a22426974636f696e204170652050756e6b222c227075626c223a2231455337623370636a527a4667796969714c7278484b546e43686535364c4a485937222c226e6f6e6365223a3131302c226d696e746572223a22626331707533367a6c30736439377a3777353966337075686c6a7038716b72687a7763356d75756c7a72776e776a783974326138716d7573786461713865222c22736967223a2248507a3468686e665746324b474f4e52706733492f334842766653784f576e62722f7a675a5530315649336e4a2f4e496a42646275727679654a4b766b656d68414233716b2b38593578676d6d5a4d763974614e5572453d227d6841c1f2d00e1cce0b839d2e197679cac7a15152ec244338032c7767f72c1332d49a65675a92934efa5e4869b2432a3e00abfc6819367af43949c2edc693b32d23ac0500000000"
}