{
  "txid": "0c41adc94ce8806bbbb55b7461f9fa56de5895d32e0572dc9a5818d0984d1b18",
  "version": 2,
  "locktime": 0,
  "vin": [
    {
      "txid": "d770bbf2ee6a120cdbe2c40ded56a58054f4e335d9274f64126a00ed936fe6d5",
      "vout": 0,
      "prevout": {
        "scriptpubkey": "51202848fbb53c5d53eee322c78b46f353310aed603c6da064aa677720c8129568dc",
        "scriptpubkey_asm": "OP_PUSHNUM_1 OP_PUSHBYTES_32 2848fbb53c5d53eee322c78b46f353310aed603c6da064aa677720c8129568dc",
        "scriptpubkey_type": "v1_p2tr",
        "scriptpubkey_address": "bc1p9py0hdfut4f7acezc795du6nxy9w6cpudksxf2n8wusvsy54drwqdwta55",
        "value": 3164
      },
      "scriptsig": "",
      "scriptsig_asm": "",
      "witness": [
        "1e2a53e9b1d8fd43de0103a89ce24bb51fd01e8bc2aec11e11a9aa82364d5e2b814b37365e38ba564cf6d74cb50752cc2eec2da97715907bd2b4941e605d73a2",
        "20ea02a77f25f369c3529d79ad241f9fa6f00c7ef9702b27c59def2c073ca80eecac0063036f7264010118746578742f706c61696e3b636861727365743d7574662d3800417b2270223a226272632d3230222c226f70223a227472616e73666572222c227469636b223a2273617478222c22616d74223a22313030303030303030303030227d68",
        "c0ea02a77f25f369c3529d79ad241f9fa6f00c7ef9702b27c59def2c073ca80eec"
      ],
      "is_coinbase": false,
      "sequence": 4294967293
    }
  ],
  "vout": [
    {
      "scriptpubkey": "5120cc0cec1234ef55d60e8ba0ab40738e63f02bf578bae17cf8557265e1751f5599",
      "scriptpubkey_asm": "OP_PUSHNUM_1 OP_PUSHBYTES_32 cc0cec1234ef55d60e8ba0ab40738e63f02bf578bae17cf8557265e1751f5599",
      "scriptpubkey_type": "v1_p2tr",
      "scriptpubkey_address": "bc1pesxwcy35aa2avr5t5z45quuwv0czhatchtshe7z4wfj7zagl2kvsphsnjf",
      "value": 546
    }
  ],
  "size": 332,
  "weight": 614,
  "fee": 2618,
  "status": {
    "confirmed": true,
    "block_height": 834638,
    "block_hash": "000000000000000000025f742c626208ac87e0b7d15054abb4a19ca2d735a54e",
    "block_time": 1710405325
  },
  "hex": "02000000000101d5e66f93ed006a12644f27d935e3f45480a556ed0dc4e2db0c126aeef2bb70d70000000000fdffffff012202000000000000225120cc0cec1234ef55d60e8ba0ab40738e63f02bf578bae17cf8557265e1751f559903401e2a53e9b1d8fd43de0103a89ce24bb51fd01e8bc2aec11e11a9aa82364d5e2b814b37365e38ba564cf6d74cb50752cc2eec2da97715907bd2b4941e605d73a28720ea02a77f25f369c3529d79ad241f9fa6f00c7ef9702b27c59def2c073ca80eecac0063036f7264010118746578742f706c61696e3b636861727365743d7574662d3800417b2270223a226272632d3230222c226f70223a227472616e73666572222c227469636b223a2273617478222c22616d74223a22313030303030303030303030227d6821c0ea02a77f25f369c3529d79ad241f9fa6f00c7ef9702b27c59def2c073ca80eec00000000"
}