{
  "txid": "0c43c7f0c6ba6a59de1a66b7932b56c2737ca0efb26bb6d3d5011ec57d50cc00",
  "version": 2,
  "locktime": 0,
  "vin": [
    {
      "txid": "5525faff4e6da81939ad70703cbf5a2129d34dcff217cb869745f6da0c658e0d",
      "vout": 2,
      "prevout": {
        "scriptpubkey": "a91422baf11c8ab5c935dd0c74d9e898a70d8f20693887",
        "scriptpubkey_asm": "OP_HASH160 OP_PUSHBYTES_20 22baf11c8ab5c935dd0c74d9e898a70d8f206938 OP_EQUAL",
        "scriptpubkey_type": "p2sh",
        "scriptpubkey_address": "34rer1hXqwoXkdkJC9ny6JzHnLSKm6ffQF",
        "value": 917071
      },
      "scriptsig": "16001498d452471b13eee620e8d99770761731d1ffb89c",
      "scriptsig_asm": "OP_PUSHBYTES_22 001498d452471b13eee620e8d99770761731d1ffb89c",
      "witness": [
        "304402201c1a2e2fea485b9678554c0f698701510604e6c84302a8a84656a9e767570277022070de0e63cd5430a5b9e622f6da033ab13c53d568abd89e3c4099df3c452096be01",
        "02742674c19ed520ff01a18d12c624ceb650b75d202b4472e44fd68c642593b061"
      ],
      "is_coinbase": false,
      "sequence": 4294967293,
      "inner_redeemscript_asm": "OP_0 OP_PUSHBYTES_20 98d452471b13eee620e8d99770761731d1ffb89c"
    }
  ],
  "vout": [
    {
      "scriptpubkey": "001421c330dfb348135950a3d58f540e4e484951a4fe",
      "scriptpubkey_asm": "OP_0 OP_PUSHBYTES_20 21c330dfb348135950a3d58f540e4e484951a4fe",
      "scriptpubkey_type": "v0_p2wpkh",
      "scriptpubkey_address": "bc1qy8pnphanfqf4j59r6k84grjwfpy4rf870hfggh",
      "value": 277000
    },
    {
      "scriptpubkey": "a91422baf11c8ab5c935dd0c74d9e898a70d8f20693887",
      "scriptpubkey_asm": "OP_HASH160 OP_PUSHBYTES_20 22baf11c8ab5c935dd0c74d9e898a70d8f206938 OP_EQUAL",
      "scriptpubkey_type": "p2sh",
      "scriptpubkey_address": "34rer1hXqwoXkdkJC9ny6JzHnLSKm6ffQF",
      "value": 635761
    }
  ],
  "size": 246,
  "weight": 657,
  "fee": 4310,
  "status": {
    "confirmed": true,
    "block_height": 834464,
    "block_hash": "0000000000000000000177a0869a911a2b65c9bdcd5a8bcb02b68f305bee848e",
    "block_time": 1710308296
  },
  "hex": "020000000001010d8e650cdaf6459786cb17f2cf4dd329215abf3c7070ad3919a86d4efffa2555020000001716001498d452471b13eee620e8d99770761731d1ffb89cfdffffff02083a04000000000016001421c330dfb348135950a3d58f540e4e484951a4fe71b309000000000017a91422baf11c8ab5c935dd0c74d9e898a70d8f206938870247304402201c1a2e2fea485b9678554c0f698701510604e6c84302a8a84656a9e767570277022070de0e63cd5430a5b9e622f6da033ab13c53d568abd89e3c4099df3c452096be012102742674c19ed520ff01a18d12c624ceb650b75d202b4472e44fd68c642593b06100000000"
}