{
  "txid": "0c5022a8ecc03a4feb624e7efaab43f0f3c8e5af942bd2802399655a3d3e9816",
  "version": 2,
  "locktime": 0,
  "vin": [
    {
      "txid": "5d5299c37c72f8ee3e7f5434e7044f3a5f00f54517f06527a5e96cdd6ba4a268",
      "vout": 33,
      "prevout": {
        "scriptpubkey": "5120c40919634aaefb1ce46941cdc956143bb41faa51ad40f96f2266139fd85d7667",
        "scriptpubkey_asm": "OP_PUSHNUM_1 OP_PUSHBYTES_32 c40919634aaefb1ce46941cdc956143bb41faa51ad40f96f2266139fd85d7667",
        "scriptpubkey_type": "v1_p2tr",
        "scriptpubkey_address": "bc1pcsy3jc624ma3eerfg8xuj4s58w6pl2j344q0jmezvcfelkzawenseqjcam",
        "value": 160000
      },
      "scriptsig": "",
      "scriptsig_asm": "",
      "witness": [
        "66f4db6116b81d14dd6373af4ec6d1fe03650699c8bb79aab2ec8326d941ed6ef8d88b7e6525e06a7148f644c5b4d04b0d4a6701c41dbab26f507d7d196739e2"
      ],
      "is_coinbase": false,
      "sequence": 4294967295
    }
  ],
  "vout": [
    {
      "scriptpubkey": "5120c40919634aaefb1ce46941cdc956143bb41faa51ad40f96f2266139fd85d7667",
      "scriptpubkey_asm": "OP_PUSHNUM_1 OP_PUSHBYTES_32 c40919634aaefb1ce46941cdc956143bb41faa51ad40f96f2266139fd85d7667",
      "scriptpubkey_type": "v1_p2tr",
      "scriptpubkey_address": "bc1pcsy3jc624ma3eerfg8xuj4s58w6pl2j344q0jmezvcfelkzawenseqjcam",
      "value": 600
    },
    {
      "scriptpubkey": "5120c40919634aaefb1ce46941cdc956143bb41faa51ad40f96f2266139fd85d7667",
      "scriptpubkey_asm": "OP_PUSHNUM_1 OP_PUSHBYTES_32 c40919634aaefb1ce46941cdc956143bb41faa51ad40f96f2266139fd85d7667",
      "scriptpubkey_type": "v1_p2tr",
      "scriptpubkey_address": "bc1pcsy3jc624ma3eerfg8xuj4s58w6pl2j344q0jmezvcfelkzawenseqjcam",
      "value": 600
    },
    {
      "scriptpubkey": "5120c40919634aaefb1ce46941cdc956143bb41faa51ad40f96f2266139fd85d7667",
      "scriptpubkey_asm": "OP_PUSHNUM_1 OP_PUSHBYTES_32 c40919634aaefb1ce46941cdc956143bb41faa51ad40f96f2266139fd85d7667",
      "scriptpubkey_type": "v1_p2tr",
      "scriptpubkey_address": "bc1pcsy3jc624ma3eerfg8xuj4s58w6pl2j344q0jmezvcfelkzawenseqjcam",
      "value": 600
    },
    {
      "scriptpubkey": "5120c40919634aaefb1ce46941cdc956143bb41faa51ad40f96f2266139fd85d7667",
      "scriptpubkey_asm": "OP_PUSHNUM_1 OP_PUSHBYTES_32 c40919634aaefb1ce46941cdc956143bb41faa51ad40f96f2266139fd85d7667",
      "scriptpubkey_type": "v1_p2tr",
      "scriptpubkey_address": "bc1pcsy3jc624ma3eerfg8xuj4s58w6pl2j344q0jmezvcfelkzawenseqjcam",
      "value": 600
    },
    {
      "scriptpubkey": "5120c40919634aaefb1ce46941cdc956143bb41faa51ad40f96f2266139fd85d7667",
      "scriptpubkey_asm": "OP_PUSHNUM_1 OP_PUSHBYTES_32 c40919634aaefb1ce46941cdc956143bb41faa51ad40f96f2266139fd85d7667",
      "scriptpubkey_type": "v1_p2tr",
      "scriptpubkey_address": "bc1pcsy3jc624ma3eerfg8xuj4s58w6pl2j344q0jmezvcfelkzawenseqjcam",
      "value": 600
    },
    {
      "scriptpubkey": "5120c40919634aaefb1ce46941cdc956143bb41faa51ad40f96f2266139fd85d7667",
      "scriptpubkey_asm": "OP_PUSHNUM_1 OP_PUSHBYTES_32 c40919634aaefb1ce46941cdc956143bb41faa51ad40f96f2266139fd85d7667",
      "scriptpubkey_type": "v1_p2tr",
      "scriptpubkey_address": "bc1pcsy3jc624ma3eerfg8xuj4s58w6pl2j344q0jmezvcfelkzawenseqjcam",
      "value": 600
    },
    {
      "scriptpubkey": "5120c40919634aaefb1ce46941cdc956143bb41faa51ad40f96f2266139fd85d7667",
      "scriptpubkey_asm": "OP_PUSHNUM_1 OP_PUSHBYTES_32 c40919634aaefb1ce46941cdc956143bb41faa51ad40f96f2266139fd85d7667",
      "scriptpubkey_type": "v1_p2tr",
      "scriptpubkey_address": "bc1pcsy3jc624ma3eerfg8xuj4s58w6pl2j344q0jmezvcfelkzawenseqjcam",
      "value": 600
    },
    {
      "scriptpubkey": "5120c40919634aaefb1ce46941cdc956143bb41faa51ad40f96f2266139fd85d7667",
      "scriptpubkey_asm": "OP_PUSHNUM_1 OP_PUSHBYTES_32 c40919634aaefb1ce46941cdc956143bb41faa51ad40f96f2266139fd85d7667",
      "scriptpubkey_type": "v1_p2tr",
      "scriptpubkey_address": "bc1pcsy3jc624ma3eerfg8xuj4s58w6pl2j344q0jmezvcfelkzawenseqjcam",
      "value": 600
    },
    {
      "scriptpubkey": "5120c40919634aaefb1ce46941cdc956143bb41faa51ad40f96f2266139fd85d7667",
      "scriptpubkey_asm": "OP_PUSHNUM_1 OP_PUSHBYTES_32 c40919634aaefb1ce46941cdc956143bb41faa51ad40f96f2266139fd85d7667",
      "scriptpubkey_type": "v1_p2tr",
      "scriptpubkey_address": "bc1pcsy3jc624ma3eerfg8xuj4s58w6pl2j344q0jmezvcfelkzawenseqjcam",
      "value": 600
    },
    {
      "scriptpubkey": "5120c40919634aaefb1ce46941cdc956143bb41faa51ad40f96f2266139fd85d7667",
      "scriptpubkey_asm": "OP_PUSHNUM_1 OP_PUSHBYTES_32 c40919634aaefb1ce46941cdc956143bb41faa51ad40f96f2266139fd85d7667",
      "scriptpubkey_type": "v1_p2tr",
      "scriptpubkey_address": "bc1pcsy3jc624ma3eerfg8xuj4s58w6pl2j344q0jmezvcfelkzawenseqjcam",
      "value": 600
    },
    {
      "scriptpubkey": "5120c40919634aaefb1ce46941cdc956143bb41faa51ad40f96f2266139fd85d7667",
      "scriptpubkey_asm": "OP_PUSHNUM_1 OP_PUSHBYTES_32 c40919634aaefb1ce46941cdc956143bb41faa51ad40f96f2266139fd85d7667",
      "scriptpubkey_type": "v1_p2tr",
      "scriptpubkey_address": "bc1pcsy3jc624ma3eerfg8xuj4s58w6pl2j344q0jmezvcfelkzawenseqjcam",
      "value": 144786
    }
  ],
  "size": 592,
  "weight": 2164,
  "fee": 9214,
  "status": {
    "confirmed": true,
    "block_height": 834552,
    "block_hash": "00000000000000000001dd0468a70c94f619251d286585cff57aeb4bd9ede330",
    "block_time": 1710355598
  },
  "hex": "0200000000010168a2a46bdd6ce9a52765f01745f5005f3a4f04e734547f3eeef8727cc399525d2100000000ffffffff0b5802000000000000225120c40919634aaefb1ce46941cdc956143bb41faa51ad40f96f2266139fd85d76675802000000000000225120c40919634aaefb1ce46941cdc956143bb41faa51ad40f96f2266139fd85d76675802000000000000225120c40919634aaefb1ce46941cdc956143bb41faa51ad40f96f2266139fd85d76675802000000000000225120c40919634aaefb1ce46941cdc956143bb41faa51ad40f96f2266139fd85d76675802000000000000225120c40919634aaefb1ce46941cdc956143bb41faa51ad40f96f2266139fd85d76675802000000000000225120c40919634aaefb1ce46941cdc956143bb41faa51ad40f96f2266139fd85d76675802000000000000225120c40919634aaefb1ce46941cdc956143bb41faa51ad40f96f2266139fd85d76675802000000000000225120c40919634aaefb1ce46941cdc956143bb41faa51ad40f96f2266139fd85d76675802000000000000225120c40919634aaefb1ce46941cdc956143bb41faa51ad40f96f2266139fd85d76675802000000000000225120c40919634aaefb1ce46941cdc956143bb41faa51ad40f96f2266139fd85d76679235020000000000225120c40919634aaefb1ce46941cdc956143bb41faa51ad40f96f2266139fd85d7667014066f4db6116b81d14dd6373af4ec6d1fe03650699c8bb79aab2ec8326d941ed6ef8d88b7e6525e06a7148f644c5b4d04b0d4a6701c41dbab26f507d7d196739e200000000"
}