{
  "txid": "0c74aa73bd8c3dde03268a2447d1df9dba8ff05c48e14e70f62c785f8c0e0447",
  "version": 2,
  "locktime": 0,
  "vin": [
    {
      "txid": "91c6d2c8760a90ac611e770005db3c1cdda6e2be72ec6ca8a6419b28d73b4b56",
      "vout": 0,
      "prevout": {
        "scriptpubkey": "5120cc789e9232269e422df940756890828332f9b4f07e42fd01b738fcc59f703823",
        "scriptpubkey_asm": "OP_PUSHNUM_1 OP_PUSHBYTES_32 cc789e9232269e422df940756890828332f9b4f07e42fd01b738fcc59f703823",
        "scriptpubkey_type": "v1_p2tr",
        "scriptpubkey_address": "bc1pe3ufay3jy60yyt0egp6k3yyzsve0nd8s0ep06qdh8r7vt8ms8q3snj57tp",
        "value": 2960
      },
      "scriptsig": "",
      "scriptsig_asm": "",
      "witness": [
        "0a4057b71196a4c63a700ded045f85e9197615a2ed6469c6be5c8baa44027a668fd72805a4f1d04bf17ed0b33a448b8521be7167f8dc31a3909472f67680332a",
        "20cab72711cba364b127e261522e6c873ebb6b571439af2f7a0e615b6b59b67296ac0063036f7264010118746578742f706c61696e3b636861727365743d7574662d3800407b2270223a226272632d3230222c226f70223a227472616e73666572222c227469636b223a2273617478222c22616d74223a223530303030303030303030227d68",
        "c0cab72711cba364b127e261522e6c873ebb6b571439af2f7a0e615b6b59b67296"
      ],
      "is_coinbase": false,
      "sequence": 4294967293
    }
  ],
  "vout": [
    {
      "scriptpubkey": "00143ef08ab4e879df454eff0e93ca901f959d786946",
      "scriptpubkey_asm": "OP_0 OP_PUSHBYTES_20 3ef08ab4e879df454eff0e93ca901f959d786946",
      "scriptpubkey_type": "v0_p2wpkh",
      "scriptpubkey_address": "bc1q8mcg4d8g08052nhlp6fu4yqljkwhs62xymhcpr",
      "value": 546
    }
  ],
  "size": 319,
  "weight": 565,
  "fee": 2414,
  "status": {
    "confirmed": true,
    "block_height": 834638,
    "block_hash": "000000000000000000025f742c626208ac87e0b7d15054abb4a19ca2d735a54e",
    "block_time": 1710405325
  },
  "hex": "02000000000101564b3bd7289b41a6a86cec72bee2a6dd1c3cdb0500771e61ac900a76c8d2c6910000000000fdffffff0122020000000000001600143ef08ab4e879df454eff0e93ca901f959d78694603400a4057b71196a4c63a700ded045f85e9197615a2ed6469c6be5c8baa44027a668fd72805a4f1d04bf17ed0b33a448b8521be7167f8dc31a3909472f67680332a8620cab72711cba364b127e261522e6c873ebb6b571439af2f7a0e615b6b59b67296ac0063036f7264010118746578742f706c61696e3b636861727365743d7574662d3800407b2270223a226272632d3230222c226f70223a227472616e73666572222c227469636b223a2273617478222c22616d74223a223530303030303030303030227d6821c0cab72711cba364b127e261522e6c873ebb6b571439af2f7a0e615b6b59b6729600000000"
}