{
  "txid": "0c7694679a8a9c9e01797fe6d50b205f78bfa08c103a6a071f254f315202a472",
  "version": 2,
  "locktime": 0,
  "vin": [
    {
      "txid": "bf667b35f76d8ad47ea6067d93288f41ce1172d9cded6375ae21d65e9d16ced6",
      "vout": 1,
      "prevout": {
        "scriptpubkey": "5120d1eb2b3ecac6bb46e692bc4c679432545d8b5395e3f5c1b26e8db302a2ec31e0",
        "scriptpubkey_asm": "OP_PUSHNUM_1 OP_PUSHBYTES_32 d1eb2b3ecac6bb46e692bc4c679432545d8b5395e3f5c1b26e8db302a2ec31e0",
        "scriptpubkey_type": "v1_p2tr",
        "scriptpubkey_address": "bc1p684jk0k2c6a5de5jh3xx09pj23wck5u4u06urvnw3kes9ghvx8sqgv8kcc",
        "value": 177800
      },
      "scriptsig": "",
      "scriptsig_asm": "",
      "witness": [
        "f2bdcaec4122eb776f5216511a62b76e730fb57f548f27b41e175ddcd412a5f563d78a2970d89063e10c08eefe15ac5e982bfb0a1531a00f36c6ace3ffb7b10f"
      ],
      "is_coinbase": false,
      "sequence": 4294967295
    },
    {
      "txid": "bde94eebba771701ed4a16135c51c08ae0f4bc07fbd7a7d3953b3b5a76be2d3c",
      "vout": 0,
      "prevout": {
        "scriptpubkey": "5120d1eb2b3ecac6bb46e692bc4c679432545d8b5395e3f5c1b26e8db302a2ec31e0",
        "scriptpubkey_asm": "OP_PUSHNUM_1 OP_PUSHBYTES_32 d1eb2b3ecac6bb46e692bc4c679432545d8b5395e3f5c1b26e8db302a2ec31e0",
        "scriptpubkey_type": "v1_p2tr",
        "scriptpubkey_address": "bc1p684jk0k2c6a5de5jh3xx09pj23wck5u4u06urvnw3kes9ghvx8sqgv8kcc",
        "value": 1200
      },
      "scriptsig": "",
      "scriptsig_asm": "",
      "witness": [
        "3af8289846a58010abc6a5593881539590f3a3dddabc3454766b7ff283760bc32837813db2898fa7619bc89f0da03b1ca4f2416becc0c9383753d8df9ff9ca9c"
      ],
      "is_coinbase": false,
      "sequence": 4294967295
    }
  ],
  "vout": [
    {
      "scriptpubkey": "76a914166452f4fa8062110c0ce1d8f655658c936d55a288ac",
      "scriptpubkey_asm": "OP_DUP OP_HASH160 OP_PUSHBYTES_20 166452f4fa8062110c0ce1d8f655658c936d55a2 OP_EQUALVERIFY OP_CHECKSIG",
      "scriptpubkey_type": "p2pkh",
      "scriptpubkey_address": "133Q3rjerBFupmc8DGeXPHUijyBfY4J9fg",
      "value": 175955
    }
  ],
  "size": 260,
  "weight": 638,
  "fee": 3045,
  "status": {
    "confirmed": true,
    "block_height": 834638,
    "block_hash": "000000000000000000025f742c626208ac87e0b7d15054abb4a19ca2d735a54e",
    "block_time": 1710405325
  },
  "hex": "02000000000102d6ce169d5ed621ae7563edcdd97211ce418f28937d06a67ed48a6df7357b66bf0100000000ffffffff3c2dbe765a3b3b95d3a7d7fb07bcf4e08ac0515c13164aed011777baeb4ee9bd0000000000ffffffff0153af0200000000001976a914166452f4fa8062110c0ce1d8f655658c936d55a288ac0140f2bdcaec4122eb776f5216511a62b76e730fb57f548f27b41e175ddcd412a5f563d78a2970d89063e10c08eefe15ac5e982bfb0a1531a00f36c6ace3ffb7b10f01403af8289846a58010abc6a5593881539590f3a3dddabc3454766b7ff283760bc32837813db2898fa7619bc89f0da03b1ca4f2416becc0c9383753d8df9ff9ca9c00000000"
}