{
  "txid": "0c7ce46482a9d9f511c118ba18d1bc505fac643ab3a825ae02fa533220566592",
  "version": 1,
  "locktime": 0,
  "vin": [
    {
      "txid": "0dbd85266a8483b471500c8ccf2e1c772b3aa790835d3aac05c34196fc02ff20",
      "vout": 1,
      "prevout": {
        "scriptpubkey": "a9146e1e69dd38dc5dfe4b117db01c3b868ec31a49b587",
        "scriptpubkey_asm": "OP_HASH160 OP_PUSHBYTES_20 6e1e69dd38dc5dfe4b117db01c3b868ec31a49b5 OP_EQUAL",
        "scriptpubkey_type": "p2sh",
        "scriptpubkey_address": "3BjGgpBgmUxdwg77WsmKyi1sKS5Wi1h28c",
        "value": 13582001
      },
      "scriptsig": "220020d6bac414dc057c9dc15ae3a87db61c92cfa0fa4eecaf14184c78e2ca958f2695",
      "scriptsig_asm": "OP_PUSHBYTES_34 0020d6bac414dc057c9dc15ae3a87db61c92cfa0fa4eecaf14184c78e2ca958f2695",
      "witness": [
        "",
        "3044022010ec8d52edc980e038c95a904e78fad8fec2c852c646128d7d4048e3ee326be6022044f4b07622c3d280f23d97dd9105dd29b202cd7eb964aff8479492cb0602c71a01",
        "3044022028ae4cc67dca966a1c41a0a597964fdaac0a0fa874ac4d37f4779c026d2d5de7022023472f1fe394834e733ba67e82bb9c3ef9275bf0b8313bbc3a0217a22445991701",
        "52210240421d4e9476e77cf21e2356219f4d323f5eb186a9beb004c2a7d10be95f7bff2102377d611305d81fff233285a81e71e1ca28d019904ef8a47bcc1b5d4097c69a0a52ae"
      ],
      "is_coinbase": false,
      "sequence": 4294967295,
      "inner_redeemscript_asm": "OP_0 OP_PUSHBYTES_32 d6bac414dc057c9dc15ae3a87db61c92cfa0fa4eecaf14184c78e2ca958f2695",
      "inner_witnessscript_asm": "OP_PUSHNUM_2 OP_PUSHBYTES_33 0240421d4e9476e77cf21e2356219f4d323f5eb186a9beb004c2a7d10be95f7bff OP_PUSHBYTES_33 02377d611305d81fff233285a81e71e1ca28d019904ef8a47bcc1b5d4097c69a0a OP_PUSHNUM_2 OP_CHECKMULTISIG"
    }
  ],
  "vout": [
    {
      "scriptpubkey": "a914604e91f0c07f08b0c6e465aa1b613c21202e4c3387",
      "scriptpubkey_asm": "OP_HASH160 OP_PUSHBYTES_20 604e91f0c07f08b0c6e465aa1b613c21202e4c33 OP_EQUAL",
      "scriptpubkey_type": "p2sh",
      "scriptpubkey_address": "3AUEv71CwMXa6bREv1ES6GSkYq7Csq4eNh",
      "value": 1609946
    },
    {
      "scriptpubkey": "a9146e1e69dd38dc5dfe4b117db01c3b868ec31a49b587",
      "scriptpubkey_asm": "OP_HASH160 OP_PUSHBYTES_20 6e1e69dd38dc5dfe4b117db01c3b868ec31a49b5 OP_EQUAL",
      "scriptpubkey_type": "p2sh",
      "scriptpubkey_address": "3BjGgpBgmUxdwg77WsmKyi1sKS5Wi1h28c",
      "value": 11968347
    }
  ],
  "size": 370,
  "weight": 820,
  "fee": 3708,
  "status": {
    "confirmed": true,
    "block_height": 834638,
    "block_hash": "000000000000000000025f742c626208ac87e0b7d15054abb4a19ca2d735a54e",
    "block_time": 1710405325
  },
  "hex": "0100000000010120ff02fc9641c305ac3a5d8390a73a2b771c2ecf8c0c5071b483846a2685bd0d0100000023220020d6bac414dc057c9dc15ae3a87db61c92cfa0fa4eecaf14184c78e2ca958f2695ffffffff02da9018000000000017a914604e91f0c07f08b0c6e465aa1b613c21202e4c33875b9fb6000000000017a9146e1e69dd38dc5dfe4b117db01c3b868ec31a49b5870400473044022010ec8d52edc980e038c95a904e78fad8fec2c852c646128d7d4048e3ee326be6022044f4b07622c3d280f23d97dd9105dd29b202cd7eb964aff8479492cb0602c71a01473044022028ae4cc67dca966a1c41a0a597964fdaac0a0fa874ac4d37f4779c026d2d5de7022023472f1fe394834e733ba67e82bb9c3ef9275bf0b8313bbc3a0217a224459917014752210240421d4e9476e77cf21e2356219f4d323f5eb186a9beb004c2a7d10be95f7bff2102377d611305d81fff233285a81e71e1ca28d019904ef8a47bcc1b5d4097c69a0a52ae00000000"
}