{
  "txid": "0c86c33183010597b4d25870b8407f139982987d6f5a93862d81f904aabd6ddf",
  "version": 2,
  "locktime": 0,
  "vin": [
    {
      "txid": "29191c52cdd1e46390ff6db15d3786485759368600f0a86f18bb3d5a2d2a99da",
      "vout": 24,
      "prevout": {
        "scriptpubkey": "51204de8f4ab77db8c556255717e12cca191b9e077a57fc56fcfe3b3dafc56aee116",
        "scriptpubkey_asm": "OP_PUSHNUM_1 OP_PUSHBYTES_32 4de8f4ab77db8c556255717e12cca191b9e077a57fc56fcfe3b3dafc56aee116",
        "scriptpubkey_type": "v1_p2tr",
        "scriptpubkey_address": "bc1pfh50f2mhmwx92cj4w9lp9n9pjxu7qaa90lzklnlrk0d0c44wuytqrfkpfs",
        "value": 355694
      },
      "scriptsig": "",
      "scriptsig_asm": "",
      "witness": [
        "fb771c1d3ced28861651b2701b0f4cef9712ccafe12b5ac3508990d0fe1be4f97945bcf8b63f91d8d0cc5450300565bc41089d69ff85ae3bdbd0699df6a29938"
      ],
      "is_coinbase": false,
      "sequence": 4294967293
    }
  ],
  "vout": [
    {
      "scriptpubkey": "5120cfa3db4c9e4774c0579b1156717c77de6087582e884f42a8d0bcac4274525e80",
      "scriptpubkey_asm": "OP_PUSHNUM_1 OP_PUSHBYTES_32 cfa3db4c9e4774c0579b1156717c77de6087582e884f42a8d0bcac4274525e80",
      "scriptpubkey_type": "v1_p2tr",
      "scriptpubkey_address": "bc1pe73akny7ga6vq4umz9t8zlrhmesgwkpw3p8592xshjkyyazjt6qqn2x925",
      "value": 2826
    },
    {
      "scriptpubkey": "51204de8f4ab77db8c556255717e12cca191b9e077a57fc56fcfe3b3dafc56aee116",
      "scriptpubkey_asm": "OP_PUSHNUM_1 OP_PUSHBYTES_32 4de8f4ab77db8c556255717e12cca191b9e077a57fc56fcfe3b3dafc56aee116",
      "scriptpubkey_type": "v1_p2tr",
      "scriptpubkey_address": "bc1pfh50f2mhmwx92cj4w9lp9n9pjxu7qaa90lzklnlrk0d0c44wuytqrfkpfs",
      "value": 350866
    }
  ],
  "size": 205,
  "weight": 616,
  "fee": 2002,
  "status": {
    "confirmed": true,
    "block_height": 834460,
    "block_hash": "00000000000000000000484a79b643b2524bbce82e5d8a442013fa5b8905ed98",
    "block_time": 1710307468
  },
  "hex": "02000000000101da992a2d5a3dbb186fa8f000863659574886375db16dff9063e4d1cd521c19291800000000fdffffff020a0b000000000000225120cfa3db4c9e4774c0579b1156717c77de6087582e884f42a8d0bcac4274525e80925a0500000000002251204de8f4ab77db8c556255717e12cca191b9e077a57fc56fcfe3b3dafc56aee1160140fb771c1d3ced28861651b2701b0f4cef9712ccafe12b5ac3508990d0fe1be4f97945bcf8b63f91d8d0cc5450300565bc41089d69ff85ae3bdbd0699df6a2993800000000"
}