{
  "txid": "0c8fe350a0473f8dc81146ce3863302f420dc463986915f7f9ff7bf802c2ed66",
  "version": 2,
  "locktime": 0,
  "vin": [
    {
      "txid": "0957a32a41d52fbffc6cd9c7aa42d555bcd78055633e859e92b58b8d94d1e370",
      "vout": 0,
      "prevout": {
        "scriptpubkey": "0014570f642c78a43eac2eca7231aed1d18ab807d3b0",
        "scriptpubkey_asm": "OP_0 OP_PUSHBYTES_20 570f642c78a43eac2eca7231aed1d18ab807d3b0",
        "scriptpubkey_type": "v0_p2wpkh",
        "scriptpubkey_address": "bc1q2u8kgtrc5sl2ctk2wgc6a5w332uq05ass3lrsu",
        "value": 294
      },
      "scriptsig": "",
      "scriptsig_asm": "",
      "witness": [
        "3044022032ff4f538c1ee58e1bcb1846e756262eb75201da8a51f88ec0f6dd35ccd4c90202207acf19916cd69ba63977781f0b621bcd7e97407eca435a43a82a22fcecf5ac0101",
        "02c9ce5794547c41b9e5c5849b49ff4a48f3e81c26246495d809f99e467a02794a"
      ],
      "is_coinbase": false,
      "sequence": 4294967295
    },
    {
      "txid": "23be7ee555e2a1f9c9b944c865da89a457f653485749cf2e13bdf8c8f0ff9e48",
      "vout": 1,
      "prevout": {
        "scriptpubkey": "0014570f642c78a43eac2eca7231aed1d18ab807d3b0",
        "scriptpubkey_asm": "OP_0 OP_PUSHBYTES_20 570f642c78a43eac2eca7231aed1d18ab807d3b0",
        "scriptpubkey_type": "v0_p2wpkh",
        "scriptpubkey_address": "bc1q2u8kgtrc5sl2ctk2wgc6a5w332uq05ass3lrsu",
        "value": 360742
      },
      "scriptsig": "",
      "scriptsig_asm": "",
      "witness": [
        "304402207f581e82052ff342c653cb440669aa92db5f139caacf93dfc0fee93eed1d1f150220236e78d257617301c8e2b4f885c7504d28188957193149485948ac3601bfd21801",
        "02c9ce5794547c41b9e5c5849b49ff4a48f3e81c26246495d809f99e467a02794a"
      ],
      "is_coinbase": false,
      "sequence": 4294967295
    }
  ],
  "vout": [
    {
      "scriptpubkey": "0014570f642c78a43eac2eca7231aed1d18ab807d3b0",
      "scriptpubkey_asm": "OP_0 OP_PUSHBYTES_20 570f642c78a43eac2eca7231aed1d18ab807d3b0",
      "scriptpubkey_type": "v0_p2wpkh",
      "scriptpubkey_address": "bc1q2u8kgtrc5sl2ctk2wgc6a5w332uq05ass3lrsu",
      "value": 294
    },
    {
      "scriptpubkey": "0014570f642c78a43eac2eca7231aed1d18ab807d3b0",
      "scriptpubkey_asm": "OP_0 OP_PUSHBYTES_20 570f642c78a43eac2eca7231aed1d18ab807d3b0",
      "scriptpubkey_type": "v0_p2wpkh",
      "scriptpubkey_address": "bc1q2u8kgtrc5sl2ctk2wgc6a5w332uq05ass3lrsu",
      "value": 357607
    }
  ],
  "size": 370,
  "weight": 832,
  "fee": 3135,
  "status": {
    "confirmed": true,
    "block_height": 834460,
    "block_hash": "00000000000000000000484a79b643b2524bbce82e5d8a442013fa5b8905ed98",
    "block_time": 1710307468
  },
  "hex": "0200000000010270e3d1948d8bb5929e853e635580d7bc55d542aac7d96cfcbf2fd5412aa357090000000000ffffffff489efff0c8f8bd132ecf49574853f657a489da65c844b9c9f9a1e255e57ebe230100000000ffffffff022601000000000000160014570f642c78a43eac2eca7231aed1d18ab807d3b0e774050000000000160014570f642c78a43eac2eca7231aed1d18ab807d3b002473044022032ff4f538c1ee58e1bcb1846e756262eb75201da8a51f88ec0f6dd35ccd4c90202207acf19916cd69ba63977781f0b621bcd7e97407eca435a43a82a22fcecf5ac01012102c9ce5794547c41b9e5c5849b49ff4a48f3e81c26246495d809f99e467a02794a0247304402207f581e82052ff342c653cb440669aa92db5f139caacf93dfc0fee93eed1d1f150220236e78d257617301c8e2b4f885c7504d28188957193149485948ac3601bfd218012102c9ce5794547c41b9e5c5849b49ff4a48f3e81c26246495d809f99e467a02794a00000000"
}