{
  "txid": "0c95e6180f3d708396e8ae45246fe1e6dc0a3dc12a63160ef2f8e526b759e88e",
  "version": 2,
  "locktime": 0,
  "vin": [
    {
      "txid": "83b1303fd891f1954cd87c1d288a2a6bca51045bdda40133839448bcf0a9a8be",
      "vout": 3,
      "prevout": {
        "scriptpubkey": "51201e6bc0c9e79427bc67150805d7f2ff27c6725b4ff6461c9e347ad2851cfb4d09",
        "scriptpubkey_asm": "OP_PUSHNUM_1 OP_PUSHBYTES_32 1e6bc0c9e79427bc67150805d7f2ff27c6725b4ff6461c9e347ad2851cfb4d09",
        "scriptpubkey_type": "v1_p2tr",
        "scriptpubkey_address": "bc1pre4upj08jsnmcec4pqza0uhlylr8yk607erpe8350tfg288mf5ysqzsc22",
        "value": 2850
      },
      "scriptsig": "",
      "scriptsig_asm": "",
      "witness": [
        "225ee2a14cd468e1fb659a276fdc2f4c83f13eaf1099484ec8210afe2f2f79f05c63fa2e2e090e5a268046d7f8e6b9c8b2317c1915482f7c4b6a4be31f7ccf25",
        "20c8c300ffb35555891f73b5f81a57c91b7b7482f49fa2f4fb637879c1f7601401ac0063036f726401011e6170706c69636174696f6e2f6a736f6e3b636861727365743d7574662d38004cd27b2270223a22706f772d3230222c226f70223a226d696e74222c227469636b223a2250455045222c22616d74223a2231303030222c22736f6c7574696f6e223a22504550453a62633170687834336d6b6632633236366e63707a6c7a7067307636616b6a73713470386379736379327a706d746e38326e367a616c7667713972663737363a303030303030303030303030303030303030303139393431613561653132383937363539383134343239323533333030353762306461393666336465613163353a37343931393031333536227d68",
        "c043aa8de0991fd4b61b82f8195f6c835bc5de941a82824922fffa09f24edd0022"
      ],
      "is_coinbase": false,
      "sequence": 4294967295
    }
  ],
  "vout": [
    {
      "scriptpubkey": "5120b9ab1dd92ac2b5a9e022f88287b35db4a00a84f8243045083b5ccea9e85dfb10",
      "scriptpubkey_asm": "OP_PUSHNUM_1 OP_PUSHBYTES_32 b9ab1dd92ac2b5a9e022f88287b35db4a00a84f8243045083b5ccea9e85dfb10",
      "scriptpubkey_type": "v1_p2tr",
      "scriptpubkey_address": "bc1phx43mkf2c266ncpzlzpg0v6akjsq4p8cyscy2zpmtn82n6zalvgq9rf776",
      "value": 546
    }
  ],
  "size": 486,
  "weight": 768,
  "fee": 2304,
  "status": {
    "confirmed": true,
    "block_height": 834460,
    "block_hash": "00000000000000000000484a79b643b2524bbce82e5d8a442013fa5b8905ed98",
    "block_time": 1710307468
  },
  "hex": "02000000000101bea8a9f0bc4894833301a4dd5b0451ca6b2a8a281d7cd84c95f191d83f30b1830300000000ffffffff012202000000000000225120b9ab1dd92ac2b5a9e022f88287b35db4a00a84f8243045083b5ccea9e85dfb100340225ee2a14cd468e1fb659a276fdc2f4c83f13eaf1099484ec8210afe2f2f79f05c63fa2e2e090e5a268046d7f8e6b9c8b2317c1915482f7c4b6a4be31f7ccf25fd1f0120c8c300ffb35555891f73b5f81a57c91b7b7482f49fa2f4fb637879c1f7601401ac0063036f726401011e6170706c69636174696f6e2f6a736f6e3b636861727365743d7574662d38004cd27b2270223a22706f772d3230222c226f70223a226d696e74222c227469636b223a2250455045222c22616d74223a2231303030222c22736f6c7574696f6e223a22504550453a62633170687834336d6b6632633236366e63707a6c7a7067307636616b6a73713470386379736379327a706d746e38326e367a616c7667713972663737363a303030303030303030303030303030303030303139393431613561653132383937363539383134343239323533333030353762306461393666336465613163353a37343931393031333536227d6821c043aa8de0991fd4b61b82f8195f6c835bc5de941a82824922fffa09f24edd002200000000"
}