{
  "txid": "0cc450fc32f9835b45470def3643e723359b3570301087db893075a59c5e994f",
  "version": 2,
  "locktime": 0,
  "vin": [
    {
      "txid": "d1a0e42e6ed1f368f0e397c095c4b7ae8e322ff31662d3d8f6851a9845d7d07a",
      "vout": 1,
      "prevout": {
        "scriptpubkey": "00149fbf1d91253d6a5e7d6a721eaaa4d7d7bcebe663",
        "scriptpubkey_asm": "OP_0 OP_PUSHBYTES_20 9fbf1d91253d6a5e7d6a721eaaa4d7d7bcebe663",
        "scriptpubkey_type": "v0_p2wpkh",
        "scriptpubkey_address": "bc1qn7l3myf98449ult2wg024fxh677whenr9r44xe",
        "value": 14089234
      },
      "scriptsig": "",
      "scriptsig_asm": "",
      "witness": [
        "3045022100e6428478570acc522c17ce526eb461c9f083950cd8ea85e2cbd2c6d26965cd9902202f3f7492d990bdd822a362309a9921f3b0b81b42121c91d7b9deeded8eaa320901",
        "037490568c9ed33ca766adeb5dd4d29bc4ba4d94783094a54d871ca0139012113f"
      ],
      "is_coinbase": false,
      "sequence": 4294967295
    }
  ],
  "vout": [
    {
      "scriptpubkey": "00143bca205ec3e0836f4881baf1baa9b871bc2d022c",
      "scriptpubkey_asm": "OP_0 OP_PUSHBYTES_20 3bca205ec3e0836f4881baf1baa9b871bc2d022c",
      "scriptpubkey_type": "v0_p2wpkh",
      "scriptpubkey_address": "bc1q809zqhkruzpk7jyphtcm42dcwx7z6q3vqrdyu3",
      "value": 9118
    },
    {
      "scriptpubkey": "0014f6d247ed2a81145b0e7abc4a5480b7738f3f320d",
      "scriptpubkey_asm": "OP_0 OP_PUSHBYTES_20 f6d247ed2a81145b0e7abc4a5480b7738f3f320d",
      "scriptpubkey_type": "v0_p2wpkh",
      "scriptpubkey_address": "bc1q7mfy0mf2sy29krn6h399fq9hww8n7vsdzvrekh",
      "value": 78470
    },
    {
      "scriptpubkey": "0014bf0e70524ddfc5ddb26fc3ce0e8a63154bb73aa2",
      "scriptpubkey_asm": "OP_0 OP_PUSHBYTES_20 bf0e70524ddfc5ddb26fc3ce0e8a63154bb73aa2",
      "scriptpubkey_type": "v0_p2wpkh",
      "scriptpubkey_address": "bc1qhu88q5jdmlzamvn0c08qaznrz49mww4zk6te5x",
      "value": 13998722
    }
  ],
  "size": 254,
  "weight": 686,
  "fee": 2924,
  "status": {
    "confirmed": true,
    "block_height": 834638,
    "block_hash": "000000000000000000025f742c626208ac87e0b7d15054abb4a19ca2d735a54e",
    "block_time": 1710405325
  },
  "hex": "020000000001017ad0d745981a85f6d8d36216f32f328eaeb7c495c097e3f068f3d16e2ee4a0d10100000000ffffffff039e230000000000001600143bca205ec3e0836f4881baf1baa9b871bc2d022c8632010000000000160014f6d247ed2a81145b0e7abc4a5480b7738f3f320d829ad50000000000160014bf0e70524ddfc5ddb26fc3ce0e8a63154bb73aa202483045022100e6428478570acc522c17ce526eb461c9f083950cd8ea85e2cbd2c6d26965cd9902202f3f7492d990bdd822a362309a9921f3b0b81b42121c91d7b9deeded8eaa32090121037490568c9ed33ca766adeb5dd4d29bc4ba4d94783094a54d871ca0139012113f00000000"
}