{
  "txid": "0cca72a6471a124b710a974ebe899348c13aa2e8832a007ad2c31ef9d9f61f95",
  "version": 1,
  "locktime": 0,
  "vin": [
    {
      "txid": "e889b04c26ced952e274295c361b8ac091675a74d1676a5476b6b59f3bb863f8",
      "vout": 8,
      "prevout": {
        "scriptpubkey": "00140246473d4ef6992672b2e06d84cc8b97d2962c8c",
        "scriptpubkey_asm": "OP_0 OP_PUSHBYTES_20 0246473d4ef6992672b2e06d84cc8b97d2962c8c",
        "scriptpubkey_type": "v0_p2wpkh",
        "scriptpubkey_address": "bc1qqfryw02w76vjvu4jupkcfnytjlffvtyvrge595",
        "value": 39441
      },
      "scriptsig": "",
      "scriptsig_asm": "",
      "witness": [
        "304402200f0382afdb4eca94d40838f8f61142d98f98dd6f2f30948411a828ca58fc1581022042e1a2dbef24224a765aef64305faf952b37823b8d5378ea024cee66d6cc8ba701",
        "020137c332ae5f239bae2aa0c590cd884876396fd67b9ab31537ec8a50c4404fd3"
      ],
      "is_coinbase": false,
      "sequence": 4294967295
    }
  ],
  "vout": [
    {
      "scriptpubkey": "76a91481d54e08fdaeaaacda0a60d874812f45ece720f788ac",
      "scriptpubkey_asm": "OP_DUP OP_HASH160 OP_PUSHBYTES_20 81d54e08fdaeaaacda0a60d874812f45ece720f7 OP_EQUALVERIFY OP_CHECKSIG",
      "scriptpubkey_type": "p2pkh",
      "scriptpubkey_address": "1CqVhRfGJeLtTqRbEsS3SC516dFaNUyvQT",
      "value": 36390
    }
  ],
  "size": 194,
  "weight": 449,
  "fee": 3051,
  "status": {
    "confirmed": true,
    "block_height": 834464,
    "block_hash": "0000000000000000000177a0869a911a2b65c9bdcd5a8bcb02b68f305bee848e",
    "block_time": 1710308296
  },
  "hex": "01000000000101f863b83b9fb5b676546a67d1745a6791c08a1b365c2974e252d9ce264cb089e80800000000ffffffff01268e0000000000001976a91481d54e08fdaeaaacda0a60d874812f45ece720f788ac0247304402200f0382afdb4eca94d40838f8f61142d98f98dd6f2f30948411a828ca58fc1581022042e1a2dbef24224a765aef64305faf952b37823b8d5378ea024cee66d6cc8ba70121020137c332ae5f239bae2aa0c590cd884876396fd67b9ab31537ec8a50c4404fd300000000"
}