{
  "txid": "0cdff720de14fd97a5c53057b225f7def8dd7f77fae48cda3bb3ea5cb15880e2",
  "version": 2,
  "locktime": 0,
  "vin": [
    {
      "txid": "6521d9f45ec5449e50fef19bd0d54e72036c1a13dd6c9e7507145cac47d295c7",
      "vout": 25,
      "prevout": {
        "scriptpubkey": "5120df114192263590b4ddf06b8fd3de1cc631f60e3041665c743e93f3ba582d6667",
        "scriptpubkey_asm": "OP_PUSHNUM_1 OP_PUSHBYTES_32 df114192263590b4ddf06b8fd3de1cc631f60e3041665c743e93f3ba582d6667",
        "scriptpubkey_type": "v1_p2tr",
        "scriptpubkey_address": "bc1pmug5ry3xxkgtfh0sdw8a8hsuccclvr3sg9n9cap7j0em5kpdvenswyl6h3",
        "value": 600
      },
      "scriptsig": "",
      "scriptsig_asm": "",
      "witness": [
        "0f586bf3a62a42b7d12b856d5e971f963ed18ca9d1eb222308c2dce312820a90e855d3932e1ddfaacc0c5c385b6fd618c205526d99067b260adc5b9826199170"
      ],
      "is_coinbase": false,
      "sequence": 4294967295
    },
    {
      "txid": "6521d9f45ec5449e50fef19bd0d54e72036c1a13dd6c9e7507145cac47d295c7",
      "vout": 31,
      "prevout": {
        "scriptpubkey": "5120df114192263590b4ddf06b8fd3de1cc631f60e3041665c743e93f3ba582d6667",
        "scriptpubkey_asm": "OP_PUSHNUM_1 OP_PUSHBYTES_32 df114192263590b4ddf06b8fd3de1cc631f60e3041665c743e93f3ba582d6667",
        "scriptpubkey_type": "v1_p2tr",
        "scriptpubkey_address": "bc1pmug5ry3xxkgtfh0sdw8a8hsuccclvr3sg9n9cap7j0em5kpdvenswyl6h3",
        "value": 600
      },
      "scriptsig": "",
      "scriptsig_asm": "",
      "witness": [
        "a2cd463b73e181f1c4eefe38761c18033258c68dc3b91e44801ad4820057bfcc105678277593c4f3445c5aac2d9fcc092b39792e9aa526f43f1c10967e2e3bf0"
      ],
      "is_coinbase": false,
      "sequence": 4294967295
    },
    {
      "txid": "6521d9f45ec5449e50fef19bd0d54e72036c1a13dd6c9e7507145cac47d295c7",
      "vout": 21,
      "prevout": {
        "scriptpubkey": "5120df114192263590b4ddf06b8fd3de1cc631f60e3041665c743e93f3ba582d6667",
        "scriptpubkey_asm": "OP_PUSHNUM_1 OP_PUSHBYTES_32 df114192263590b4ddf06b8fd3de1cc631f60e3041665c743e93f3ba582d6667",
        "scriptpubkey_type": "v1_p2tr",
        "scriptpubkey_address": "bc1pmug5ry3xxkgtfh0sdw8a8hsuccclvr3sg9n9cap7j0em5kpdvenswyl6h3",
        "value": 600
      },
      "scriptsig": "",
      "scriptsig_asm": "",
      "witness": [
        "2637fe83a0ace3a8746c88c0559153cab3b00820de7af0af0701faca8c2771a46ec331e5fb743426270bb3064379c37e5dd1972e802148564899cbb0ce5d2271"
      ],
      "is_coinbase": false,
      "sequence": 4294967295
    },
    {
      "txid": "048157482c2ac1a27283bee25bd5022d67a05b1079355ec3e82c05874aaede22",
      "vout": 25,
      "prevout": {
        "scriptpubkey": "5120df114192263590b4ddf06b8fd3de1cc631f60e3041665c743e93f3ba582d6667",
        "scriptpubkey_asm": "OP_PUSHNUM_1 OP_PUSHBYTES_32 df114192263590b4ddf06b8fd3de1cc631f60e3041665c743e93f3ba582d6667",
        "scriptpubkey_type": "v1_p2tr",
        "scriptpubkey_address": "bc1pmug5ry3xxkgtfh0sdw8a8hsuccclvr3sg9n9cap7j0em5kpdvenswyl6h3",
        "value": 600
      },
      "scriptsig": "",
      "scriptsig_asm": "",
      "witness": [
        "e2ca1fee4daeef28e9536c6877137fb8fb9c64968f36f51e77dc67ddb59f91105bb662864a5ab40937f8315327bcfcf945d27a541fde081cc36b4349d9e906b1"
      ],
      "is_coinbase": false,
      "sequence": 4294967295
    },
    {
      "txid": "6521d9f45ec5449e50fef19bd0d54e72036c1a13dd6c9e7507145cac47d295c7",
      "vout": 30,
      "prevout": {
        "scriptpubkey": "5120df114192263590b4ddf06b8fd3de1cc631f60e3041665c743e93f3ba582d6667",
        "scriptpubkey_asm": "OP_PUSHNUM_1 OP_PUSHBYTES_32 df114192263590b4ddf06b8fd3de1cc631f60e3041665c743e93f3ba582d6667",
        "scriptpubkey_type": "v1_p2tr",
        "scriptpubkey_address": "bc1pmug5ry3xxkgtfh0sdw8a8hsuccclvr3sg9n9cap7j0em5kpdvenswyl6h3",
        "value": 600
      },
      "scriptsig": "",
      "scriptsig_asm": "",
      "witness": [
        "c8da44c201eb2440bd311f3cea7f6d17f9975b2222dc052103766a8f9c088db5de523fbfec425d45f2241dcef992ed83b74f22a317ae77221b01ce9e88ed2809"
      ],
      "is_coinbase": false,
      "sequence": 4294967295
    },
    {
      "txid": "6521d9f45ec5449e50fef19bd0d54e72036c1a13dd6c9e7507145cac47d295c7",
      "vout": 24,
      "prevout": {
        "scriptpubkey": "5120df114192263590b4ddf06b8fd3de1cc631f60e3041665c743e93f3ba582d6667",
        "scriptpubkey_asm": "OP_PUSHNUM_1 OP_PUSHBYTES_32 df114192263590b4ddf06b8fd3de1cc631f60e3041665c743e93f3ba582d6667",
        "scriptpubkey_type": "v1_p2tr",
        "scriptpubkey_address": "bc1pmug5ry3xxkgtfh0sdw8a8hsuccclvr3sg9n9cap7j0em5kpdvenswyl6h3",
        "value": 600
      },
      "scriptsig": "",
      "scriptsig_asm": "",
      "witness": [
        "e10dc4ad29908aacf81c15cfaf8b04a629648fec2c4c4b606c8431a8b784b48341643bf2795aeaf807c037c0513aaf5b35a27e21bb1d8809a8587bb400242d5f"
      ],
      "is_coinbase": false,
      "sequence": 4294967295
    },
    {
      "txid": "73dda48557bb26243a8142cd2c3b24615b52d61af58c07771b77c3d201f5f7fe",
      "vout": 0,
      "prevout": {
        "scriptpubkey": "51202b6ffac31dc6905e278a7d19e7ee4a876bea20b54b9496f6a5f60717e9d971c5",
        "scriptpubkey_asm": "OP_PUSHNUM_1 OP_PUSHBYTES_32 2b6ffac31dc6905e278a7d19e7ee4a876bea20b54b9496f6a5f60717e9d971c5",
        "scriptpubkey_type": "v1_p2tr",
        "scriptpubkey_address": "bc1p9dhl4scac6g9ufu205v70mj2sa475g94fw2fda497cr306wew8zs5yy9ar",
        "value": 1000
      },
      "scriptsig": "",
      "scriptsig_asm": "",
      "witness": [
        "5befd5ea8f0dc15fe464033fcff986d3f808fcb9c3f0ea8c6365d73e0455e01b3c73bed53216cce79ae1b9d59be2ecdf0319ae8bf958dd9a44d3572688eb290a83"
      ],
      "is_coinbase": false,
      "sequence": 4294967295
    },
    {
      "txid": "8c5f1177bab6171bd59e834f443c161e5c8c2e5a130314bc8e3aa332bfc8463e",
      "vout": 0,
      "prevout": {
        "scriptpubkey": "51202b6ffac31dc6905e278a7d19e7ee4a876bea20b54b9496f6a5f60717e9d971c5",
        "scriptpubkey_asm": "OP_PUSHNUM_1 OP_PUSHBYTES_32 2b6ffac31dc6905e278a7d19e7ee4a876bea20b54b9496f6a5f60717e9d971c5",
        "scriptpubkey_type": "v1_p2tr",
        "scriptpubkey_address": "bc1p9dhl4scac6g9ufu205v70mj2sa475g94fw2fda497cr306wew8zs5yy9ar",
        "value": 1000
      },
      "scriptsig": "",
      "scriptsig_asm": "",
      "witness": [
        "fd410b77cb1324b09bfafc5a7b64948c6f345a1c5450cabce84cc90260e3cd550c29f94425d33e9b55a461fe34bd08469d3f6205f3b91b922eb11ca901bd83ba83"
      ],
      "is_coinbase": false,
      "sequence": 4294967295
    },
    {
      "txid": "fb48f8a2451623bfae710847c8f38567b9ea8df07cc71ce82b1f2b6d6d6edbcc",
      "vout": 0,
      "prevout": {
        "scriptpubkey": "51202b6ffac31dc6905e278a7d19e7ee4a876bea20b54b9496f6a5f60717e9d971c5",
        "scriptpubkey_asm": "OP_PUSHNUM_1 OP_PUSHBYTES_32 2b6ffac31dc6905e278a7d19e7ee4a876bea20b54b9496f6a5f60717e9d971c5",
        "scriptpubkey_type": "v1_p2tr",
        "scriptpubkey_address": "bc1p9dhl4scac6g9ufu205v70mj2sa475g94fw2fda497cr306wew8zs5yy9ar",
        "value": 1000
      },
      "scriptsig": "",
      "scriptsig_asm": "",
      "witness": [
        "5ecf9b1018132dfd37b70d464ac69f43fc74bd4c3ff34e7745264e04591d0d3c4dcc30cf5e137207a93abb064a62a09b7b613226c131506264491b0987c19d6f83"
      ],
      "is_coinbase": false,
      "sequence": 4294967295
    },
    {
      "txid": "e97a311d3549560f4f0b6988b62c13f18a14b9043424d7ce80e92701a6125511",
      "vout": 2,
      "prevout": {
        "scriptpubkey": "51205f3ac3441f06186c031d2042660d25f5ecbeeb1ee12a137d4f08d4e89d66fcb0",
        "scriptpubkey_asm": "OP_PUSHNUM_1 OP_PUSHBYTES_32 5f3ac3441f06186c031d2042660d25f5ecbeeb1ee12a137d4f08d4e89d66fcb0",
        "scriptpubkey_type": "v1_p2tr",
        "scriptpubkey_address": "bc1ptuavx3qlqcvxcqcayppxvrf97hkta6c7uy4pxl20pr2w38txljcq9ww0t4",
        "value": 1000
      },
      "scriptsig": "",
      "scriptsig_asm": "",
      "witness": [
        "b9756d09064c4e7c99435993ef9d0e7e0b38d56719c701ead3051202005f03d1b0977926791740d02eb08cacf610c6110e1b44eec40e2210a5c48255695e4fa383"
      ],
      "is_coinbase": false,
      "sequence": 4294967295
    },
    {
      "txid": "e97a311d3549560f4f0b6988b62c13f18a14b9043424d7ce80e92701a6125511",
      "vout": 1,
      "prevout": {
        "scriptpubkey": "51205f3ac3441f06186c031d2042660d25f5ecbeeb1ee12a137d4f08d4e89d66fcb0",
        "scriptpubkey_asm": "OP_PUSHNUM_1 OP_PUSHBYTES_32 5f3ac3441f06186c031d2042660d25f5ecbeeb1ee12a137d4f08d4e89d66fcb0",
        "scriptpubkey_type": "v1_p2tr",
        "scriptpubkey_address": "bc1ptuavx3qlqcvxcqcayppxvrf97hkta6c7uy4pxl20pr2w38txljcq9ww0t4",
        "value": 1000
      },
      "scriptsig": "",
      "scriptsig_asm": "",
      "witness": [
        "7b726a5376b1456e69470f900d1736c1787b82be8dece9f4131f5ab1e3d5fa8cde67fb0992ca17035e6a3749e61daf3e42ec3baacc2e0e659d2a69e48a74c9da83"
      ],
      "is_coinbase": false,
      "sequence": 4294967295
    },
    {
      "txid": "6521d9f45ec5449e50fef19bd0d54e72036c1a13dd6c9e7507145cac47d295c7",
      "vout": 32,
      "prevout": {
        "scriptpubkey": "5120df114192263590b4ddf06b8fd3de1cc631f60e3041665c743e93f3ba582d6667",
        "scriptpubkey_asm": "OP_PUSHNUM_1 OP_PUSHBYTES_32 df114192263590b4ddf06b8fd3de1cc631f60e3041665c743e93f3ba582d6667",
        "scriptpubkey_type": "v1_p2tr",
        "scriptpubkey_address": "bc1pmug5ry3xxkgtfh0sdw8a8hsuccclvr3sg9n9cap7j0em5kpdvenswyl6h3",
        "value": 6432712
      },
      "scriptsig": "",
      "scriptsig_asm": "",
      "witness": [
        "6eb84bc68ebaa7d978790057f832312493d014ef3952ae98eca211fde2f64bdc40094bbec0cc53de62b1132d9ae53d8fe38a1f20df2ec2ad81a8381ba420ca9d"
      ],
      "is_coinbase": false,
      "sequence": 4294967295
    }
  ],
  "vout": [
    {
      "scriptpubkey": "5120df114192263590b4ddf06b8fd3de1cc631f60e3041665c743e93f3ba582d6667",
      "scriptpubkey_asm": "OP_PUSHNUM_1 OP_PUSHBYTES_32 df114192263590b4ddf06b8fd3de1cc631f60e3041665c743e93f3ba582d6667",
      "scriptpubkey_type": "v1_p2tr",
      "scriptpubkey_address": "bc1pmug5ry3xxkgtfh0sdw8a8hsuccclvr3sg9n9cap7j0em5kpdvenswyl6h3",
      "value": 3600
    },
    {
      "scriptpubkey": "5120df114192263590b4ddf06b8fd3de1cc631f60e3041665c743e93f3ba582d6667",
      "scriptpubkey_asm": "OP_PUSHNUM_1 OP_PUSHBYTES_32 df114192263590b4ddf06b8fd3de1cc631f60e3041665c743e93f3ba582d6667",
      "scriptpubkey_type": "v1_p2tr",
      "scriptpubkey_address": "bc1pmug5ry3xxkgtfh0sdw8a8hsuccclvr3sg9n9cap7j0em5kpdvenswyl6h3",
      "value": 1000
    },
    {
      "scriptpubkey": "5120df114192263590b4ddf06b8fd3de1cc631f60e3041665c743e93f3ba582d6667",
      "scriptpubkey_asm": "OP_PUSHNUM_1 OP_PUSHBYTES_32 df114192263590b4ddf06b8fd3de1cc631f60e3041665c743e93f3ba582d6667",
      "scriptpubkey_type": "v1_p2tr",
      "scriptpubkey_address": "bc1pmug5ry3xxkgtfh0sdw8a8hsuccclvr3sg9n9cap7j0em5kpdvenswyl6h3",
      "value": 1000
    },
    {
      "scriptpubkey": "5120df114192263590b4ddf06b8fd3de1cc631f60e3041665c743e93f3ba582d6667",
      "scriptpubkey_asm": "OP_PUSHNUM_1 OP_PUSHBYTES_32 df114192263590b4ddf06b8fd3de1cc631f60e3041665c743e93f3ba582d6667",
      "scriptpubkey_type": "v1_p2tr",
      "scriptpubkey_address": "bc1pmug5ry3xxkgtfh0sdw8a8hsuccclvr3sg9n9cap7j0em5kpdvenswyl6h3",
      "value": 1000
    },
    {
      "scriptpubkey": "5120df114192263590b4ddf06b8fd3de1cc631f60e3041665c743e93f3ba582d6667",
      "scriptpubkey_asm": "OP_PUSHNUM_1 OP_PUSHBYTES_32 df114192263590b4ddf06b8fd3de1cc631f60e3041665c743e93f3ba582d6667",
      "scriptpubkey_type": "v1_p2tr",
      "scriptpubkey_address": "bc1pmug5ry3xxkgtfh0sdw8a8hsuccclvr3sg9n9cap7j0em5kpdvenswyl6h3",
      "value": 1000
    },
    {
      "scriptpubkey": "5120df114192263590b4ddf06b8fd3de1cc631f60e3041665c743e93f3ba582d6667",
      "scriptpubkey_asm": "OP_PUSHNUM_1 OP_PUSHBYTES_32 df114192263590b4ddf06b8fd3de1cc631f60e3041665c743e93f3ba582d6667",
      "scriptpubkey_type": "v1_p2tr",
      "scriptpubkey_address": "bc1pmug5ry3xxkgtfh0sdw8a8hsuccclvr3sg9n9cap7j0em5kpdvenswyl6h3",
      "value": 1000
    },
    {
      "scriptpubkey": "51202b6ffac31dc6905e278a7d19e7ee4a876bea20b54b9496f6a5f60717e9d971c5",
      "scriptpubkey_asm": "OP_PUSHNUM_1 OP_PUSHBYTES_32 2b6ffac31dc6905e278a7d19e7ee4a876bea20b54b9496f6a5f60717e9d971c5",
      "scriptpubkey_type": "v1_p2tr",
      "scriptpubkey_address": "bc1p9dhl4scac6g9ufu205v70mj2sa475g94fw2fda497cr306wew8zs5yy9ar",
      "value": 47000
    },
    {
      "scriptpubkey": "51202b6ffac31dc6905e278a7d19e7ee4a876bea20b54b9496f6a5f60717e9d971c5",
      "scriptpubkey_asm": "OP_PUSHNUM_1 OP_PUSHBYTES_32 2b6ffac31dc6905e278a7d19e7ee4a876bea20b54b9496f6a5f60717e9d971c5",
      "scriptpubkey_type": "v1_p2tr",
      "scriptpubkey_address": "bc1p9dhl4scac6g9ufu205v70mj2sa475g94fw2fda497cr306wew8zs5yy9ar",
      "value": 47000
    },
    {
      "scriptpubkey": "51202b6ffac31dc6905e278a7d19e7ee4a876bea20b54b9496f6a5f60717e9d971c5",
      "scriptpubkey_asm": "OP_PUSHNUM_1 OP_PUSHBYTES_32 2b6ffac31dc6905e278a7d19e7ee4a876bea20b54b9496f6a5f60717e9d971c5",
      "scriptpubkey_type": "v1_p2tr",
      "scriptpubkey_address": "bc1p9dhl4scac6g9ufu205v70mj2sa475g94fw2fda497cr306wew8zs5yy9ar",
      "value": 47000
    },
    {
      "scriptpubkey": "51205f3ac3441f06186c031d2042660d25f5ecbeeb1ee12a137d4f08d4e89d66fcb0",
      "scriptpubkey_asm": "OP_PUSHNUM_1 OP_PUSHBYTES_32 5f3ac3441f06186c031d2042660d25f5ecbeeb1ee12a137d4f08d4e89d66fcb0",
      "scriptpubkey_type": "v1_p2tr",
      "scriptpubkey_address": "bc1ptuavx3qlqcvxcqcayppxvrf97hkta6c7uy4pxl20pr2w38txljcq9ww0t4",
      "value": 60000
    },
    {
      "scriptpubkey": "51205f3ac3441f06186c031d2042660d25f5ecbeeb1ee12a137d4f08d4e89d66fcb0",
      "scriptpubkey_asm": "OP_PUSHNUM_1 OP_PUSHBYTES_32 5f3ac3441f06186c031d2042660d25f5ecbeeb1ee12a137d4f08d4e89d66fcb0",
      "scriptpubkey_type": "v1_p2tr",
      "scriptpubkey_address": "bc1ptuavx3qlqcvxcqcayppxvrf97hkta6c7uy4pxl20pr2w38txljcq9ww0t4",
      "value": 50000
    },
    {
      "scriptpubkey": "5120df114192263590b4ddf06b8fd3de1cc631f60e3041665c743e93f3ba582d6667",
      "scriptpubkey_asm": "OP_PUSHNUM_1 OP_PUSHBYTES_32 df114192263590b4ddf06b8fd3de1cc631f60e3041665c743e93f3ba582d6667",
      "scriptpubkey_type": "v1_p2tr",
      "scriptpubkey_address": "bc1pmug5ry3xxkgtfh0sdw8a8hsuccclvr3sg9n9cap7j0em5kpdvenswyl6h3",
      "value": 600
    },
    {
      "scriptpubkey": "5120df114192263590b4ddf06b8fd3de1cc631f60e3041665c743e93f3ba582d6667",
      "scriptpubkey_asm": "OP_PUSHNUM_1 OP_PUSHBYTES_32 df114192263590b4ddf06b8fd3de1cc631f60e3041665c743e93f3ba582d6667",
      "scriptpubkey_type": "v1_p2tr",
      "scriptpubkey_address": "bc1pmug5ry3xxkgtfh0sdw8a8hsuccclvr3sg9n9cap7j0em5kpdvenswyl6h3",
      "value": 600
    },
    {
      "scriptpubkey": "5120df114192263590b4ddf06b8fd3de1cc631f60e3041665c743e93f3ba582d6667",
      "scriptpubkey_asm": "OP_PUSHNUM_1 OP_PUSHBYTES_32 df114192263590b4ddf06b8fd3de1cc631f60e3041665c743e93f3ba582d6667",
      "scriptpubkey_type": "v1_p2tr",
      "scriptpubkey_address": "bc1pmug5ry3xxkgtfh0sdw8a8hsuccclvr3sg9n9cap7j0em5kpdvenswyl6h3",
      "value": 600
    },
    {
      "scriptpubkey": "5120df114192263590b4ddf06b8fd3de1cc631f60e3041665c743e93f3ba582d6667",
      "scriptpubkey_asm": "OP_PUSHNUM_1 OP_PUSHBYTES_32 df114192263590b4ddf06b8fd3de1cc631f60e3041665c743e93f3ba582d6667",
      "scriptpubkey_type": "v1_p2tr",
      "scriptpubkey_address": "bc1pmug5ry3xxkgtfh0sdw8a8hsuccclvr3sg9n9cap7j0em5kpdvenswyl6h3",
      "value": 600
    },
    {
      "scriptpubkey": "5120df114192263590b4ddf06b8fd3de1cc631f60e3041665c743e93f3ba582d6667",
      "scriptpubkey_asm": "OP_PUSHNUM_1 OP_PUSHBYTES_32 df114192263590b4ddf06b8fd3de1cc631f60e3041665c743e93f3ba582d6667",
      "scriptpubkey_type": "v1_p2tr",
      "scriptpubkey_address": "bc1pmug5ry3xxkgtfh0sdw8a8hsuccclvr3sg9n9cap7j0em5kpdvenswyl6h3",
      "value": 600
    },
    {
      "scriptpubkey": "5120df114192263590b4ddf06b8fd3de1cc631f60e3041665c743e93f3ba582d6667",
      "scriptpubkey_asm": "OP_PUSHNUM_1 OP_PUSHBYTES_32 df114192263590b4ddf06b8fd3de1cc631f60e3041665c743e93f3ba582d6667",
      "scriptpubkey_type": "v1_p2tr",
      "scriptpubkey_address": "bc1pmug5ry3xxkgtfh0sdw8a8hsuccclvr3sg9n9cap7j0em5kpdvenswyl6h3",
      "value": 600
    },
    {
      "scriptpubkey": "5120df114192263590b4ddf06b8fd3de1cc631f60e3041665c743e93f3ba582d6667",
      "scriptpubkey_asm": "OP_PUSHNUM_1 OP_PUSHBYTES_32 df114192263590b4ddf06b8fd3de1cc631f60e3041665c743e93f3ba582d6667",
      "scriptpubkey_type": "v1_p2tr",
      "scriptpubkey_address": "bc1pmug5ry3xxkgtfh0sdw8a8hsuccclvr3sg9n9cap7j0em5kpdvenswyl6h3",
      "value": 6161876
    }
  ],
  "size": 2075,
  "weight": 5903,
  "fee": 16236,
  "status": {
    "confirmed": true,
    "block_height": 834464,
    "block_hash": "0000000000000000000177a0869a911a2b65c9bdcd5a8bcb02b68f305bee848e",
    "block_time": 1710308296
  },
  "hex": "0200000000010cc795d247ac5c1407759e6cdd131a6c03724ed5d09bf1fe509e44c55ef4d921651900000000ffffffffc795d247ac5c1407759e6cdd131a6c03724ed5d09bf1fe509e44c55ef4d921651f00000000ffffffffc795d247ac5c1407759e6cdd131a6c03724ed5d09bf1fe509e44c55ef4d921651500000000ffffffff22deae4a87052ce8c35e3579105ba0672d02d55be2be8372a2c12a2c485781041900000000ffffffffc795d247ac5c1407759e6cdd131a6c03724ed5d09bf1fe509e44c55ef4d921651e00000000ffffffffc795d247ac5c1407759e6cdd131a6c03724ed5d09bf1fe509e44c55ef4d921651800000000fffffffffef7f501d2c3771b77078cf51ad6525b61243b2ccd42813a2426bb5785a4dd730000000000ffffffff3e46c8bf32a33a8ebc1403135a2e8c5c1e163c444f839ed51b17b6ba77115f8c0000000000ffffffffccdb6e6d6d2b1f2be81cc77cf08deab96785f3c8470871aebf231645a2f848fb0000000000ffffffff115512a60127e980ced7243404b9148af1132cb688690b4f0f5649351d317ae90200000000ffffffff115512a60127e980ced7243404b9148af1132cb688690b4f0f5649351d317ae90100000000ffffffffc795d247ac5c1407759e6cdd131a6c03724ed5d09bf1fe509e44c55ef4d921652000000000ffffffff12100e000000000000225120df114192263590b4ddf06b8fd3de1cc631f60e3041665c743e93f3ba582d6667e803000000000000225120df114192263590b4ddf06b8fd3de1cc631f60e3041665c743e93f3ba582d6667e803000000000000225120df114192263590b4ddf06b8fd3de1cc631f60e3041665c743e93f3ba582d6667e803000000000000225120df114192263590b4ddf06b8fd3de1cc631f60e3041665c743e93f3ba582d6667e803000000000000225120df114192263590b4ddf06b8fd3de1cc631f60e3041665c743e93f3ba582d6667e803000000000000225120df114192263590b4ddf06b8fd3de1cc631f60e3041665c743e93f3ba582d666798b70000000000002251202b6ffac31dc6905e278a7d19e7ee4a876bea20b54b9496f6a5f60717e9d971c598b70000000000002251202b6ffac31dc6905e278a7d19e7ee4a876bea20b54b9496f6a5f60717e9d971c598b70000000000002251202b6ffac31dc6905e278a7d19e7ee4a876bea20b54b9496f6a5f60717e9d971c560ea0000000000002251205f3ac3441f06186c031d2042660d25f5ecbeeb1ee12a137d4f08d4e89d66fcb050c30000000000002251205f3ac3441f06186c031d2042660d25f5ecbeeb1ee12a137d4f08d4e89d66fcb05802000000000000225120df114192263590b4ddf06b8fd3de1cc631f60e3041665c743e93f3ba582d66675802000000000000225120df114192263590b4ddf06b8fd3de1cc631f60e3041665c743e93f3ba582d66675802000000000000225120df114192263590b4ddf06b8fd3de1cc631f60e3041665c743e93f3ba582d66675802000000000000225120df114192263590b4ddf06b8fd3de1cc631f60e3041665c743e93f3ba582d66675802000000000000225120df114192263590b4ddf06b8fd3de1cc631f60e3041665c743e93f3ba582d66675802000000000000225120df114192263590b4ddf06b8fd3de1cc631f60e3041665c743e93f3ba582d6667d4055e0000000000225120df114192263590b4ddf06b8fd3de1cc631f60e3041665c743e93f3ba582d666701400f586bf3a62a42b7d12b856d5e971f963ed18ca9d1eb222308c2dce312820a90e855d3932e1ddfaacc0c5c385b6fd618c205526d99067b260adc5b98261991700140a2cd463b73e181f1c4eefe38761c18033258c68dc3b91e44801ad4820057bfcc105678277593c4f3445c5aac2d9fcc092b39792e9aa526f43f1c10967e2e3bf001402637fe83a0ace3a8746c88c0559153cab3b00820de7af0af0701faca8c2771a46ec331e5fb743426270bb3064379c37e5dd1972e802148564899cbb0ce5d22710140e2ca1fee4daeef28e9536c6877137fb8fb9c64968f36f51e77dc67ddb59f91105bb662864a5ab40937f8315327bcfcf945d27a541fde081cc36b4349d9e906b10140c8da44c201eb2440bd311f3cea7f6d17f9975b2222dc052103766a8f9c088db5de523fbfec425d45f2241dcef992ed83b74f22a317ae77221b01ce9e88ed28090140e10dc4ad29908aacf81c15cfaf8b04a629648fec2c4c4b606c8431a8b784b48341643bf2795aeaf807c037c0513aaf5b35a27e21bb1d8809a8587bb400242d5f01415befd5ea8f0dc15fe464033fcff986d3f808fcb9c3f0ea8c6365d73e0455e01b3c73bed53216cce79ae1b9d59be2ecdf0319ae8bf958dd9a44d3572688eb290a830141fd410b77cb1324b09bfafc5a7b64948c6f345a1c5450cabce84cc90260e3cd550c29f94425d33e9b55a461fe34bd08469d3f6205f3b91b922eb11ca901bd83ba8301415ecf9b1018132dfd37b70d464ac69f43fc74bd4c3ff34e7745264e04591d0d3c4dcc30cf5e137207a93abb064a62a09b7b613226c131506264491b0987c19d6f830141b9756d09064c4e7c99435993ef9d0e7e0b38d56719c701ead3051202005f03d1b0977926791740d02eb08cacf610c6110e1b44eec40e2210a5c48255695e4fa38301417b726a5376b1456e69470f900d1736c1787b82be8dece9f4131f5ab1e3d5fa8cde67fb0992ca17035e6a3749e61daf3e42ec3baacc2e0e659d2a69e48a74c9da8301406eb84bc68ebaa7d978790057f832312493d014ef3952ae98eca211fde2f64bdc40094bbec0cc53de62b1132d9ae53d8fe38a1f20df2ec2ad81a8381ba420ca9d00000000"
}