{
  "txid": "0ce80f60e096ccaefcb787ef0ee3cf7bfbf7164649a3c7e63c4705684d373045",
  "version": 1,
  "locktime": 0,
  "vin": [
    {
      "txid": "e8c5fceeceba4f823d83c1db7ba6be3828c0d76cc1e42ebd2002074bf826918a",
      "vout": 1,
      "prevout": {
        "scriptpubkey": "0014c5ba90af8faedcd48c3bfc34d6a98a5e3d370e3d",
        "scriptpubkey_asm": "OP_0 OP_PUSHBYTES_20 c5ba90af8faedcd48c3bfc34d6a98a5e3d370e3d",
        "scriptpubkey_type": "v0_p2wpkh",
        "scriptpubkey_address": "bc1qckafptu04mwdfrpmls6dd2v2tc7nwr3a9yf98u",
        "value": 9194
      },
      "scriptsig": "",
      "scriptsig_asm": "",
      "witness": [
        "304402202782f557c9df839ccf6f598d014eb5abe68c61b6853aff3f006d952ac377beda022033afe7f9299b9c0bf5841764a9f3330a1d6b5b1491a87bedd3e5ca0895fe744301",
        "0257b4d3ce41c719681e7f591e26205af7bb0fbe0114587f667c6813815d2fd9cf"
      ],
      "is_coinbase": false,
      "sequence": 4294967295
    },
    {
      "txid": "040c0c371ebd0f29e5828b761d5ea2a978534641b847b2ba86b7f94b7da87e48",
      "vout": 1,
      "prevout": {
        "scriptpubkey": "0014c5ba90af8faedcd48c3bfc34d6a98a5e3d370e3d",
        "scriptpubkey_asm": "OP_0 OP_PUSHBYTES_20 c5ba90af8faedcd48c3bfc34d6a98a5e3d370e3d",
        "scriptpubkey_type": "v0_p2wpkh",
        "scriptpubkey_address": "bc1qckafptu04mwdfrpmls6dd2v2tc7nwr3a9yf98u",
        "value": 539908
      },
      "scriptsig": "",
      "scriptsig_asm": "",
      "witness": [
        "3045022100e3ac90e11f75d30845ddb379242b8f1c5c8c2566173a94d9d6315f81aecfc65a02202e458b64183505be2cde28b5fdc8a4300d1f7e16f3e5a3cc3e29e18fdfe6ee0301",
        "0257b4d3ce41c719681e7f591e26205af7bb0fbe0114587f667c6813815d2fd9cf"
      ],
      "is_coinbase": false,
      "sequence": 4294967295
    }
  ],
  "vout": [
    {
      "scriptpubkey": "76a914a16bd36843fa46eeb03e5f52fc04edadaabf698f88ac",
      "scriptpubkey_asm": "OP_DUP OP_HASH160 OP_PUSHBYTES_20 a16bd36843fa46eeb03e5f52fc04edadaabf698f OP_EQUALVERIFY OP_CHECKSIG",
      "scriptpubkey_type": "p2pkh",
      "scriptpubkey_address": "1FiWxkh6TeQCoU9FG4swRiGW5J85yKKePt",
      "value": 540000
    },
    {
      "scriptpubkey": "0014c5ba90af8faedcd48c3bfc34d6a98a5e3d370e3d",
      "scriptpubkey_asm": "OP_0 OP_PUSHBYTES_20 c5ba90af8faedcd48c3bfc34d6a98a5e3d370e3d",
      "scriptpubkey_type": "v0_p2wpkh",
      "scriptpubkey_address": "bc1qckafptu04mwdfrpmls6dd2v2tc7nwr3a9yf98u",
      "value": 3378
    }
  ],
  "size": 374,
  "weight": 845,
  "fee": 5724,
  "status": {
    "confirmed": true,
    "block_height": 834638,
    "block_hash": "000000000000000000025f742c626208ac87e0b7d15054abb4a19ca2d735a54e",
    "block_time": 1710405325
  },
  "hex": "010000000001028a9126f84b070220bd2ee4c16cd7c02838bea67bdbc1833d824fbaceeefcc5e80100000000ffffffff487ea87d4bf9b786bab247b841465378a9a25e1d768b82e5290fbd1e370c0c040100000000ffffffff02603d0800000000001976a914a16bd36843fa46eeb03e5f52fc04edadaabf698f88ac320d000000000000160014c5ba90af8faedcd48c3bfc34d6a98a5e3d370e3d0247304402202782f557c9df839ccf6f598d014eb5abe68c61b6853aff3f006d952ac377beda022033afe7f9299b9c0bf5841764a9f3330a1d6b5b1491a87bedd3e5ca0895fe744301210257b4d3ce41c719681e7f591e26205af7bb0fbe0114587f667c6813815d2fd9cf02483045022100e3ac90e11f75d30845ddb379242b8f1c5c8c2566173a94d9d6315f81aecfc65a02202e458b64183505be2cde28b5fdc8a4300d1f7e16f3e5a3cc3e29e18fdfe6ee0301210257b4d3ce41c719681e7f591e26205af7bb0fbe0114587f667c6813815d2fd9cf00000000"
}