{
  "txid": "0ce90994acbe4ce246bc371815f50c06ce5b1cebe6a42f165073ad64736905d8",
  "version": 2,
  "locktime": 0,
  "vin": [
    {
      "txid": "c5c8f19178fed3ad166d0a6be48695a10ee173c590f72e54e501da7189ccec7f",
      "vout": 9,
      "prevout": {
        "scriptpubkey": "51202db166ad775eb7fc16b75ffaca8a5ce5fc9f5118428d7d19b4c8d9967113a6db",
        "scriptpubkey_asm": "OP_PUSHNUM_1 OP_PUSHBYTES_32 2db166ad775eb7fc16b75ffaca8a5ce5fc9f5118428d7d19b4c8d9967113a6db",
        "scriptpubkey_type": "v1_p2tr",
        "scriptpubkey_address": "bc1p9kckdttht6mlc94htlav4zjuuh7f75gcg2xh6xd5ervevugn5mdstgdn0f",
        "value": 2586
      },
      "scriptsig": "",
      "scriptsig_asm": "",
      "witness": [
        "6f29b4193843870b517683e7d236ac8fa6de8d1e45b9fb3d6b7bf90acc714a68ffe39665df426154a4b5d67d2af9fb6dd60d7606b9b1348c580bb8cd0a7d99e6",
        "20efdf21fabcbbda63732e380c9cb64331690c0dec8e192552cf9d31f786755532ac0063036f7264010118746578742f706c61696e3b636861727365743d7574662d38004c827b2270223a22746170222c226f70223a22646d742d6d696e74222c22646570223a22303238313934396339656438363764633061323338346636303239623438633766333032663831613163333162653763363030306333636439626135616435656930222c227469636b223a22626268222c22626c6b223a22383334343430227d68",
        "c0efdf21fabcbbda63732e380c9cb64331690c0dec8e192552cf9d31f786755532"
      ],
      "is_coinbase": false,
      "sequence": 4294967293
    }
  ],
  "vout": [
    {
      "scriptpubkey": "5120343476391501163ffc69f78bf5566876e8cc2b880ae6b0093327194a6c7b04b5",
      "scriptpubkey_asm": "OP_PUSHNUM_1 OP_PUSHBYTES_32 343476391501163ffc69f78bf5566876e8cc2b880ae6b0093327194a6c7b04b5",
      "scriptpubkey_type": "v1_p2tr",
      "scriptpubkey_address": "bc1pxs68vwg4qytrllrf779l24ngwm5vc2ugptntqzfnyuv55mrmqj6sgcwchg",
      "value": 546
    }
  ],
  "size": 398,
  "weight": 680,
  "fee": 2040,
  "status": {
    "confirmed": true,
    "block_height": 834460,
    "block_hash": "00000000000000000000484a79b643b2524bbce82e5d8a442013fa5b8905ed98",
    "block_time": 1710307468
  },
  "hex": "020000000001017feccc8971da01e5542ef790c573e10ea19586e46b0a6d16add3fe7891f1c8c50900000000fdffffff012202000000000000225120343476391501163ffc69f78bf5566876e8cc2b880ae6b0093327194a6c7b04b503406f29b4193843870b517683e7d236ac8fa6de8d1e45b9fb3d6b7bf90acc714a68ffe39665df426154a4b5d67d2af9fb6dd60d7606b9b1348c580bb8cd0a7d99e6c920efdf21fabcbbda63732e380c9cb64331690c0dec8e192552cf9d31f786755532ac0063036f7264010118746578742f706c61696e3b636861727365743d7574662d38004c827b2270223a22746170222c226f70223a22646d742d6d696e74222c22646570223a22303238313934396339656438363764633061323338346636303239623438633766333032663831613163333162653763363030306333636439626135616435656930222c227469636b223a22626268222c22626c6b223a22383334343430227d6821c0efdf21fabcbbda63732e380c9cb64331690c0dec8e192552cf9d31f78675553200000000"
}