{
  "txid": "0cf9bbb08d0ef4d77b5e0e83b18d92a713a8198a7b8c4de9d4c25b92a5014386",
  "version": 1,
  "locktime": 0,
  "vin": [
    {
      "txid": "7b8cf87338ae92fa30ccffb0bf98862568080634b69ebb61228576050e919375",
      "vout": 1,
      "prevout": {
        "scriptpubkey": "0014d4ff79d703265c28531755b7c1f6ff8cc726939e",
        "scriptpubkey_asm": "OP_0 OP_PUSHBYTES_20 d4ff79d703265c28531755b7c1f6ff8cc726939e",
        "scriptpubkey_type": "v0_p2wpkh",
        "scriptpubkey_address": "bc1q6nlhn4cryewzs5ch2kmurahl3nrjdyu7z2snu5",
        "value": 33826516
      },
      "scriptsig": "",
      "scriptsig_asm": "",
      "witness": [
        "304502210092da937ad5d1837350f02752725d858017b0bf838e881d2c9a458418f1b6c62b02205dde5fd44878eb0eb161671fa00f805e06c4f8cd30fba125979d6299296db33d01",
        "026a05c0f01d12c9b6785d4eb309307768507452033f2415285d3ab1bb3484e645"
      ],
      "is_coinbase": false,
      "sequence": 4294967295
    }
  ],
  "vout": [
    {
      "scriptpubkey": "a9147ae3c8bfb4c64ff5853fea39aeb560c543e4272787",
      "scriptpubkey_asm": "OP_HASH160 OP_PUSHBYTES_20 7ae3c8bfb4c64ff5853fea39aeb560c543e42727 OP_EQUAL",
      "scriptpubkey_type": "p2sh",
      "scriptpubkey_address": "3CtoEfkqLaAr5t3Y3hee3H6RCdspctQAiU",
      "value": 68150
    },
    {
      "scriptpubkey": "001422e088ec5e0c9f50930cbbe50a011f7cc7050464",
      "scriptpubkey_asm": "OP_0 OP_PUSHBYTES_20 22e088ec5e0c9f50930cbbe50a011f7cc7050464",
      "scriptpubkey_type": "v0_p2wpkh",
      "scriptpubkey_address": "bc1qytsg3mz7pj04pycvh0js5qgl0nrs2prye04lk9",
      "value": 33754706
    }
  ],
  "size": 224,
  "weight": 566,
  "fee": 3660,
  "status": {
    "confirmed": true,
    "block_height": 834638,
    "block_hash": "000000000000000000025f742c626208ac87e0b7d15054abb4a19ca2d735a54e",
    "block_time": 1710405325
  },
  "hex": "010000000001017593910e0576852261bb9eb634060868258698bfb0ffcc30fa92ae3873f88c7b0100000000ffffffff02360a01000000000017a9147ae3c8bfb4c64ff5853fea39aeb560c543e4272787520e03020000000016001422e088ec5e0c9f50930cbbe50a011f7cc70504640248304502210092da937ad5d1837350f02752725d858017b0bf838e881d2c9a458418f1b6c62b02205dde5fd44878eb0eb161671fa00f805e06c4f8cd30fba125979d6299296db33d0121026a05c0f01d12c9b6785d4eb309307768507452033f2415285d3ab1bb3484e64500000000"
}