{
  "txid": "0cfd610197f872fcd0a7e8bdd65a26be95cff63303cf709015d0d5b90f802af9",
  "version": 2,
  "locktime": 0,
  "vin": [
    {
      "txid": "4ee77778659dcfe8d7a4e15882fc6193f4f3d5f6607624e256337b44c2280af5",
      "vout": 30,
      "prevout": {
        "scriptpubkey": "512094c9764ded3a9dd361c17ed515c5092d8567e1e66f96f72d261e28d1e8478ea1",
        "scriptpubkey_asm": "OP_PUSHNUM_1 OP_PUSHBYTES_32 94c9764ded3a9dd361c17ed515c5092d8567e1e66f96f72d261e28d1e8478ea1",
        "scriptpubkey_type": "v1_p2tr",
        "scriptpubkey_address": "bc1pjnyhvn0d82waxcwp0m23t3gf9kzk0c0xd7t0wtfxrc5dr6z836ss6z0ywj",
        "value": 2075
      },
      "scriptsig": "",
      "scriptsig_asm": "",
      "witness": [
        "9a42c4ddef19cfa1616aaf8e6ce168843c1dea5da9da099b0210677f6b446fa47850e8bc664d1e2a118da88314d4b3fdb9a11cb1d69fa55c81ca1f30fca8ba10",
        "20494c9f3f1127a638f51a62fb2c91226df6d7b949da5dee693d656cc06246a23bac0063036f7264010118746578742f706c61696e3b636861727365743d7574662d3800357b2270223a224252432d313030222c226f70223a226d696e74222c227469636b223a22696e73222c22616d74223a2231303030227d68",
        "c0c50eac15d7d7889f5ad84f80015e8a209129aeea937c37fa4b8bc0f9be289730"
      ],
      "is_coinbase": false,
      "sequence": 4294967295
    }
  ],
  "vout": [
    {
      "scriptpubkey": "00143e2325412b554cacdd163a93a42204c4707f8851",
      "scriptpubkey_asm": "OP_0 OP_PUSHBYTES_20 3e2325412b554cacdd163a93a42204c4707f8851",
      "scriptpubkey_type": "v0_p2wpkh",
      "scriptpubkey_address": "bc1q8c3j2sft24x2ehgk82f6ggsyc3c8lzz3yw9wsu",
      "value": 546
    }
  ],
  "size": 308,
  "weight": 554,
  "fee": 1529,
  "status": {
    "confirmed": true,
    "block_height": 834464,
    "block_hash": "0000000000000000000177a0869a911a2b65c9bdcd5a8bcb02b68f305bee848e",
    "block_time": 1710308296
  },
  "hex": "02000000000101f50a28c2447b3356e2247660f6d5f3f49361fc8258e1a4d7e8cf9d657877e74e1e00000000ffffffff0122020000000000001600143e2325412b554cacdd163a93a42204c4707f885103409a42c4ddef19cfa1616aaf8e6ce168843c1dea5da9da099b0210677f6b446fa47850e8bc664d1e2a118da88314d4b3fdb9a11cb1d69fa55c81ca1f30fca8ba107b20494c9f3f1127a638f51a62fb2c91226df6d7b949da5dee693d656cc06246a23bac0063036f7264010118746578742f706c61696e3b636861727365743d7574662d3800357b2270223a224252432d313030222c226f70223a226d696e74222c227469636b223a22696e73222c22616d74223a2231303030227d6821c0c50eac15d7d7889f5ad84f80015e8a209129aeea937c37fa4b8bc0f9be28973000000000"
}