{
  "txid": "0d15be900e19b304b3a036428ef9abc5e5ca72666d08f6f67d3b38b41118b695",
  "version": 1,
  "locktime": 0,
  "vin": [
    {
      "txid": "22a5dc0e8257f0e25997eed630f8b7ac96cc7531984abe0c64cc8c46657b6ae3",
      "vout": 13,
      "prevout": {
        "scriptpubkey": "76a9141ed8a96c59557f6fb762e7f94f7d482f451dcee488ac",
        "scriptpubkey_asm": "OP_DUP OP_HASH160 OP_PUSHBYTES_20 1ed8a96c59557f6fb762e7f94f7d482f451dcee4 OP_EQUALVERIFY OP_CHECKSIG",
        "scriptpubkey_type": "p2pkh",
        "scriptpubkey_address": "13p6pgX4q4eXXJdrGNpZSJMaxSgeNWs5Wo",
        "value": 24512
      },
      "scriptsig": "483045022100d301fe101bed08b06e6d79e5725c00f0da87726a787185b0448d44732474b0b6022069f1fa7c6b8906659a9eb6bbf81ce9af03fe48bad53069554cc51a2564eaf1380121038de6e00e7fc851641f5868abbd79506166d982190c308741107a8a83eaa60224",
      "scriptsig_asm": "OP_PUSHBYTES_72 3045022100d301fe101bed08b06e6d79e5725c00f0da87726a787185b0448d44732474b0b6022069f1fa7c6b8906659a9eb6bbf81ce9af03fe48bad53069554cc51a2564eaf13801 OP_PUSHBYTES_33 038de6e00e7fc851641f5868abbd79506166d982190c308741107a8a83eaa60224",
      "is_coinbase": false,
      "sequence": 4294967295
    }
  ],
  "vout": [
    {
      "scriptpubkey": "00146dbf66e255d82deb15dc2918cef8a95c7bf56753",
      "scriptpubkey_asm": "OP_0 OP_PUSHBYTES_20 6dbf66e255d82deb15dc2918cef8a95c7bf56753",
      "scriptpubkey_type": "v0_p2wpkh",
      "scriptpubkey_address": "bc1qdklkdcj4mqk7k9wu9yvva79ft3al2e6n2jzakl",
      "value": 17368
    }
  ],
  "size": 189,
  "weight": 756,
  "fee": 7144,
  "status": {
    "confirmed": true,
    "block_height": 834638,
    "block_hash": "000000000000000000025f742c626208ac87e0b7d15054abb4a19ca2d735a54e",
    "block_time": 1710405325
  },
  "hex": "0100000001e36a7b65468ccc640cbe4a983175cc96acb7f830d6ee9759e2f057820edca5220d0000006b483045022100d301fe101bed08b06e6d79e5725c00f0da87726a787185b0448d44732474b0b6022069f1fa7c6b8906659a9eb6bbf81ce9af03fe48bad53069554cc51a2564eaf1380121038de6e00e7fc851641f5868abbd79506166d982190c308741107a8a83eaa60224ffffffff01d8430000000000001600146dbf66e255d82deb15dc2918cef8a95c7bf5675300000000"
}