{
  "txid": "0d20a23d144ec67f162eb8fdb0df7156d81ba64e0373ac4529e9ea2b829984c6",
  "version": 2,
  "locktime": 0,
  "vin": [
    {
      "txid": "697984eb89937391d48070b51c2f64212e06d7cf98a96a6a164c945f978b7a4d",
      "vout": 0,
      "prevout": {
        "scriptpubkey": "0014fefed39dde57b701a1ff5f332a6f7d9df40e98c3",
        "scriptpubkey_asm": "OP_0 OP_PUSHBYTES_20 fefed39dde57b701a1ff5f332a6f7d9df40e98c3",
        "scriptpubkey_type": "v0_p2wpkh",
        "scriptpubkey_address": "bc1qlmld88w727msrg0ltuej5mmanh6qaxxrrtnz5u",
        "value": 250000
      },
      "scriptsig": "",
      "scriptsig_asm": "",
      "witness": [
        "3045022100de38025fec9d0180c1841cde597c5196adec508846650892562163334ef97123022037f8f65123c090c0e093ada76b9cf869c3274d1479aa94ebfedd3b505f94725a01",
        "032b1226e7f1f47f2e44df4ed475b8966016b191998c2b2a5b6b279df8d79e3283"
      ],
      "is_coinbase": false,
      "sequence": 4294967295
    }
  ],
  "vout": [
    {
      "scriptpubkey": "0014fefed39dde57b701a1ff5f332a6f7d9df40e98c3",
      "scriptpubkey_asm": "OP_0 OP_PUSHBYTES_20 fefed39dde57b701a1ff5f332a6f7d9df40e98c3",
      "scriptpubkey_type": "v0_p2wpkh",
      "scriptpubkey_address": "bc1qlmld88w727msrg0ltuej5mmanh6qaxxrrtnz5u",
      "value": 600
    },
    {
      "scriptpubkey": "0014fefed39dde57b701a1ff5f332a6f7d9df40e98c3",
      "scriptpubkey_asm": "OP_0 OP_PUSHBYTES_20 fefed39dde57b701a1ff5f332a6f7d9df40e98c3",
      "scriptpubkey_type": "v0_p2wpkh",
      "scriptpubkey_address": "bc1qlmld88w727msrg0ltuej5mmanh6qaxxrrtnz5u",
      "value": 600
    },
    {
      "scriptpubkey": "0014fefed39dde57b701a1ff5f332a6f7d9df40e98c3",
      "scriptpubkey_asm": "OP_0 OP_PUSHBYTES_20 fefed39dde57b701a1ff5f332a6f7d9df40e98c3",
      "scriptpubkey_type": "v0_p2wpkh",
      "scriptpubkey_address": "bc1qlmld88w727msrg0ltuej5mmanh6qaxxrrtnz5u",
      "value": 600
    },
    {
      "scriptpubkey": "0014fefed39dde57b701a1ff5f332a6f7d9df40e98c3",
      "scriptpubkey_asm": "OP_0 OP_PUSHBYTES_20 fefed39dde57b701a1ff5f332a6f7d9df40e98c3",
      "scriptpubkey_type": "v0_p2wpkh",
      "scriptpubkey_address": "bc1qlmld88w727msrg0ltuej5mmanh6qaxxrrtnz5u",
      "value": 600
    },
    {
      "scriptpubkey": "0014fefed39dde57b701a1ff5f332a6f7d9df40e98c3",
      "scriptpubkey_asm": "OP_0 OP_PUSHBYTES_20 fefed39dde57b701a1ff5f332a6f7d9df40e98c3",
      "scriptpubkey_type": "v0_p2wpkh",
      "scriptpubkey_address": "bc1qlmld88w727msrg0ltuej5mmanh6qaxxrrtnz5u",
      "value": 600
    },
    {
      "scriptpubkey": "0014fefed39dde57b701a1ff5f332a6f7d9df40e98c3",
      "scriptpubkey_asm": "OP_0 OP_PUSHBYTES_20 fefed39dde57b701a1ff5f332a6f7d9df40e98c3",
      "scriptpubkey_type": "v0_p2wpkh",
      "scriptpubkey_address": "bc1qlmld88w727msrg0ltuej5mmanh6qaxxrrtnz5u",
      "value": 600
    },
    {
      "scriptpubkey": "0014fefed39dde57b701a1ff5f332a6f7d9df40e98c3",
      "scriptpubkey_asm": "OP_0 OP_PUSHBYTES_20 fefed39dde57b701a1ff5f332a6f7d9df40e98c3",
      "scriptpubkey_type": "v0_p2wpkh",
      "scriptpubkey_address": "bc1qlmld88w727msrg0ltuej5mmanh6qaxxrrtnz5u",
      "value": 600
    },
    {
      "scriptpubkey": "0014fefed39dde57b701a1ff5f332a6f7d9df40e98c3",
      "scriptpubkey_asm": "OP_0 OP_PUSHBYTES_20 fefed39dde57b701a1ff5f332a6f7d9df40e98c3",
      "scriptpubkey_type": "v0_p2wpkh",
      "scriptpubkey_address": "bc1qlmld88w727msrg0ltuej5mmanh6qaxxrrtnz5u",
      "value": 600
    },
    {
      "scriptpubkey": "0014fefed39dde57b701a1ff5f332a6f7d9df40e98c3",
      "scriptpubkey_asm": "OP_0 OP_PUSHBYTES_20 fefed39dde57b701a1ff5f332a6f7d9df40e98c3",
      "scriptpubkey_type": "v0_p2wpkh",
      "scriptpubkey_address": "bc1qlmld88w727msrg0ltuej5mmanh6qaxxrrtnz5u",
      "value": 600
    },
    {
      "scriptpubkey": "0014fefed39dde57b701a1ff5f332a6f7d9df40e98c3",
      "scriptpubkey_asm": "OP_0 OP_PUSHBYTES_20 fefed39dde57b701a1ff5f332a6f7d9df40e98c3",
      "scriptpubkey_type": "v0_p2wpkh",
      "scriptpubkey_address": "bc1qlmld88w727msrg0ltuej5mmanh6qaxxrrtnz5u",
      "value": 600
    },
    {
      "scriptpubkey": "0014fefed39dde57b701a1ff5f332a6f7d9df40e98c3",
      "scriptpubkey_asm": "OP_0 OP_PUSHBYTES_20 fefed39dde57b701a1ff5f332a6f7d9df40e98c3",
      "scriptpubkey_type": "v0_p2wpkh",
      "scriptpubkey_address": "bc1qlmld88w727msrg0ltuej5mmanh6qaxxrrtnz5u",
      "value": 236860
    }
  ],
  "size": 502,
  "weight": 1678,
  "fee": 7140,
  "status": {
    "confirmed": true,
    "block_height": 834638,
    "block_hash": "000000000000000000025f742c626208ac87e0b7d15054abb4a19ca2d735a54e",
    "block_time": 1710405325
  },
  "hex": "020000000001014d7a8b975f944c166a6aa998cfd7062e21642f1cb57080d491739389eb8479690000000000ffffffff0b5802000000000000160014fefed39dde57b701a1ff5f332a6f7d9df40e98c35802000000000000160014fefed39dde57b701a1ff5f332a6f7d9df40e98c35802000000000000160014fefed39dde57b701a1ff5f332a6f7d9df40e98c35802000000000000160014fefed39dde57b701a1ff5f332a6f7d9df40e98c35802000000000000160014fefed39dde57b701a1ff5f332a6f7d9df40e98c35802000000000000160014fefed39dde57b701a1ff5f332a6f7d9df40e98c35802000000000000160014fefed39dde57b701a1ff5f332a6f7d9df40e98c35802000000000000160014fefed39dde57b701a1ff5f332a6f7d9df40e98c35802000000000000160014fefed39dde57b701a1ff5f332a6f7d9df40e98c35802000000000000160014fefed39dde57b701a1ff5f332a6f7d9df40e98c33c9d030000000000160014fefed39dde57b701a1ff5f332a6f7d9df40e98c302483045022100de38025fec9d0180c1841cde597c5196adec508846650892562163334ef97123022037f8f65123c090c0e093ada76b9cf869c3274d1479aa94ebfedd3b505f94725a0121032b1226e7f1f47f2e44df4ed475b8966016b191998c2b2a5b6b279df8d79e328300000000"
}