{
  "txid": "0d2f1793b999109f5997e0a3163090c1369cbd67d9f7054084d6a5c33cd690f3",
  "version": 2,
  "locktime": 834637,
  "vin": [
    {
      "txid": "8ca3c7b7d05502d3d07b475ee0b212e92ec325e0bc8baec92ad7beae44dfd24f",
      "vout": 1,
      "prevout": {
        "scriptpubkey": "0014dac77cae1c224e4dcda3c5b1ac6c934e61e4e311",
        "scriptpubkey_asm": "OP_0 OP_PUSHBYTES_20 dac77cae1c224e4dcda3c5b1ac6c934e61e4e311",
        "scriptpubkey_type": "v0_p2wpkh",
        "scriptpubkey_address": "bc1qmtrhetsuyf8ymndrckc6cmynfes7fcc3lddq3s",
        "value": 305702
      },
      "scriptsig": "",
      "scriptsig_asm": "",
      "witness": [
        "304402203087429630451e7b7ae60db2e01d3ba0362501786a6a1a2071fbbeb200d35c330220670eb725d610914308eb975050cf694a7e5eac7fe2a56ca7d08a81d5e819914d01",
        "035c7b213a281a837568ebeb01b8eb089d7549d14caf8d3628ff9ecf0228ff3381"
      ],
      "is_coinbase": false,
      "sequence": 4294967293
    }
  ],
  "vout": [
    {
      "scriptpubkey": "0014a70df4dd9aa23d9e5596184c265c905bd0e54388",
      "scriptpubkey_asm": "OP_0 OP_PUSHBYTES_20 a70df4dd9aa23d9e5596184c265c905bd0e54388",
      "scriptpubkey_type": "v0_p2wpkh",
      "scriptpubkey_address": "bc1q5uxlfhv65g7eu4vkrpxzvhyst0gw2sugjg96zg",
      "value": 129900
    },
    {
      "scriptpubkey": "001431fc545c27329cd2b3da0af6008aece7447fa797",
      "scriptpubkey_asm": "OP_0 OP_PUSHBYTES_20 31fc545c27329cd2b3da0af6008aece7447fa797",
      "scriptpubkey_type": "v0_p2wpkh",
      "scriptpubkey_address": "bc1qx879ghp8x2wd9v76ptmqpzhvuaz8lfuhf2m2vn",
      "value": 170000
    }
  ],
  "size": 222,
  "weight": 561,
  "fee": 5802,
  "status": {
    "confirmed": true,
    "block_height": 834638,
    "block_hash": "000000000000000000025f742c626208ac87e0b7d15054abb4a19ca2d735a54e",
    "block_time": 1710405325
  },
  "hex": "020000000001014fd2df44aebed72ac9ae8bbce025c32ee912b2e05e477bd0d30255d0b7c7a38c0100000000fdffffff026cfb010000000000160014a70df4dd9aa23d9e5596184c265c905bd0e54388109802000000000016001431fc545c27329cd2b3da0af6008aece7447fa7970247304402203087429630451e7b7ae60db2e01d3ba0362501786a6a1a2071fbbeb200d35c330220670eb725d610914308eb975050cf694a7e5eac7fe2a56ca7d08a81d5e819914d0121035c7b213a281a837568ebeb01b8eb089d7549d14caf8d3628ff9ecf0228ff33814dbc0c00"
}