{
  "txid": "0d304e551199d09c277bd2269ca9e9bd02dd5267ff2d97373295ac6507337913",
  "version": 1,
  "locktime": 0,
  "vin": [
    {
      "txid": "fc6b5f78c47e6009596ded1c2cb7927da764e5a3ce4f3113bc4829f6300c1c15",
      "vout": 104,
      "prevout": {
        "scriptpubkey": "0014e4fa38be8d852a103d0d49a93509f0a175d9270f",
        "scriptpubkey_asm": "OP_0 OP_PUSHBYTES_20 e4fa38be8d852a103d0d49a93509f0a175d9270f",
        "scriptpubkey_type": "v0_p2wpkh",
        "scriptpubkey_address": "bc1qunar305ds54pq0gdfx5n2z0s596ajfc06sj9fl",
        "value": 187278
      },
      "scriptsig": "",
      "scriptsig_asm": "",
      "witness": [
        "3045022100dabd11aa8714ebfc8daa31c5a04615aa23d49ff8a56377b15cfb5238d88ff3870220498df4ab97617e693e48865ee81d0ca1efcfec82d31938c6c0583129ebd8107d01",
        "02c953da7c485d8d013ce73919906e7d067b7e46d891b77c01494911021eec9c65"
      ],
      "is_coinbase": false,
      "sequence": 4294967295
    }
  ],
  "vout": [
    {
      "scriptpubkey": "00144f423bce0c36d943e84ee11916f10bca21d39002",
      "scriptpubkey_asm": "OP_0 OP_PUSHBYTES_20 4f423bce0c36d943e84ee11916f10bca21d39002",
      "scriptpubkey_type": "v0_p2wpkh",
      "scriptpubkey_address": "bc1qfaprhnsvxmv586zwuyv3dugtegsa8yqzndjuk5",
      "value": 180000
    },
    {
      "scriptpubkey": "0014e4fa38be8d852a103d0d49a93509f0a175d9270f",
      "scriptpubkey_asm": "OP_0 OP_PUSHBYTES_20 e4fa38be8d852a103d0d49a93509f0a175d9270f",
      "scriptpubkey_type": "v0_p2wpkh",
      "scriptpubkey_address": "bc1qunar305ds54pq0gdfx5n2z0s596ajfc06sj9fl",
      "value": 3471
    },
    {
      "scriptpubkey": "6a403d3a4253432e424e423a3078336137423332663546653334304646393230433838383837313345623538633332433533304239373a302f312f303a74693a3730",
      "scriptpubkey_asm": "OP_RETURN OP_PUSHBYTES_64 3d3a4253432e424e423a3078336137423332663546653334304646393230433838383837313345623538633332433533304239373a302f312f303a74693a3730",
      "scriptpubkey_type": "op_return",
      "value": 0
    }
  ],
  "size": 298,
  "weight": 862,
  "fee": 3807,
  "status": {
    "confirmed": true,
    "block_height": 834638,
    "block_hash": "000000000000000000025f742c626208ac87e0b7d15054abb4a19ca2d735a54e",
    "block_time": 1710405325
  },
  "hex": "01000000000101151c0c30f62948bc13314fcea3e564a77d92b72c1ced6d5909607ec4785f6bfc6800000000ffffffff0320bf0200000000001600144f423bce0c36d943e84ee11916f10bca21d390028f0d000000000000160014e4fa38be8d852a103d0d49a93509f0a175d9270f0000000000000000426a403d3a4253432e424e423a3078336137423332663546653334304646393230433838383837313345623538633332433533304239373a302f312f303a74693a373002483045022100dabd11aa8714ebfc8daa31c5a04615aa23d49ff8a56377b15cfb5238d88ff3870220498df4ab97617e693e48865ee81d0ca1efcfec82d31938c6c0583129ebd8107d012102c953da7c485d8d013ce73919906e7d067b7e46d891b77c01494911021eec9c6500000000"
}