{
  "txid": "0d3ad95c9fbad1d968e62976bafe29bf372a13c82e532bdc9285de7c57f92824",
  "version": 2,
  "locktime": 0,
  "vin": [
    {
      "txid": "e60d01f1eeee2dbec06ec3a8d448424ca93ea4dcefc453871fc404580cc03558",
      "vout": 3,
      "prevout": {
        "scriptpubkey": "5120199470284499e676f3ea52331edccf300a0aaec617e24c8ad3a72d1f46bd7a61",
        "scriptpubkey_asm": "OP_PUSHNUM_1 OP_PUSHBYTES_32 199470284499e676f3ea52331edccf300a0aaec617e24c8ad3a72d1f46bd7a61",
        "scriptpubkey_type": "v1_p2tr",
        "scriptpubkey_address": "bc1prx28q2zyn8n8dul22ge3ahx0xq9q4tkxzl3yezkn5uk3734a0fssmjlp39",
        "value": 2646
      },
      "scriptsig": "",
      "scriptsig_asm": "",
      "witness": [
        "fc0473b39dbdd7340c6bd2dd675c91eb107775c70aab1f52b4ebc7c2fdef2763b834e95d7238edd7427f58e8cf3ca67cb1bbfc77bf12c99fb2062dac2fc7ebb8",
        "200ad3f0b3e468a5d27e5a41dfa8f6074f7172092c0ea366a8865d66b4ca7987acac0063036f726401011e6170706c69636174696f6e2f6a736f6e3b636861727365743d7574662d38004cb77b2270223a22706f772d3230222c226f70223a226d696e74222c227469636b223a2250455045222c22616d74223a2231303030222c22736f6c7574696f6e223a22504550453a3351345a614567486177466561585773437a6d775a743766465543593771377759703a303030303030303030303030303030303030303139393431613561653132383937363539383134343239323533333030353762306461393666336465613163353a3539353332303832323432227d68",
        "c08db7ab6533b96c0773861c29df1705bf8b1dfa6577ecaa232ec7cdccd60ed417"
      ],
      "is_coinbase": false,
      "sequence": 4294967295
    }
  ],
  "vout": [
    {
      "scriptpubkey": "a914f565ec243898a586d6342e6d91e39b804127827787",
      "scriptpubkey_asm": "OP_HASH160 OP_PUSHBYTES_20 f565ec243898a586d6342e6d91e39b8041278277 OP_EQUAL",
      "scriptpubkey_type": "p2sh",
      "scriptpubkey_address": "3Q4ZaEgHawFeaXWsCzmwZt7fFUCY7q7wYp",
      "value": 546
    }
  ],
  "size": 448,
  "weight": 697,
  "fee": 2100,
  "status": {
    "confirmed": true,
    "block_height": 834460,
    "block_hash": "00000000000000000000484a79b643b2524bbce82e5d8a442013fa5b8905ed98",
    "block_time": 1710307468
  },
  "hex": "020000000001015835c00c5804c41f8753c4efdca43ea94c4248d4a8c36ec0be2deeeef1010de60300000000ffffffff01220200000000000017a914f565ec243898a586d6342e6d91e39b8041278277870340fc0473b39dbdd7340c6bd2dd675c91eb107775c70aab1f52b4ebc7c2fdef2763b834e95d7238edd7427f58e8cf3ca67cb1bbfc77bf12c99fb2062dac2fc7ebb8fd0401200ad3f0b3e468a5d27e5a41dfa8f6074f7172092c0ea366a8865d66b4ca7987acac0063036f726401011e6170706c69636174696f6e2f6a736f6e3b636861727365743d7574662d38004cb77b2270223a22706f772d3230222c226f70223a226d696e74222c227469636b223a2250455045222c22616d74223a2231303030222c22736f6c7574696f6e223a22504550453a3351345a614567486177466561585773437a6d775a743766465543593771377759703a303030303030303030303030303030303030303139393431613561653132383937363539383134343239323533333030353762306461393666336465613163353a3539353332303832323432227d6821c08db7ab6533b96c0773861c29df1705bf8b1dfa6577ecaa232ec7cdccd60ed41700000000"
}