{
  "txid": "0d56ed05e06b6db528708bcc691e3dceba256f51f9b9408e1b4c4b4d5123acbe",
  "version": 2,
  "locktime": 0,
  "vin": [
    {
      "txid": "acc3ba00869acb582a3f2904ce3a11dd3779350ce234063fc7d0959246213364",
      "vout": 261,
      "prevout": {
        "scriptpubkey": "51203f93fc2297a9bac118e3950187c1c02f0051c0110a964cee5aebd1f0c867c020",
        "scriptpubkey_asm": "OP_PUSHNUM_1 OP_PUSHBYTES_32 3f93fc2297a9bac118e3950187c1c02f0051c0110a964cee5aebd1f0c867c020",
        "scriptpubkey_type": "v1_p2tr",
        "scriptpubkey_address": "bc1p87flcg5h4xavzx8rj5qc0swq9uq9rsq3p2tyemj6a0glpjr8cqsqcvzqf6",
        "value": 1806
      },
      "scriptsig": "",
      "scriptsig_asm": "",
      "witness": [
        "64ceaf1ca4536cd0ee5a7b468e669b14c671c999cb56c71f3b3a4c90e545b27bc36da079c7ef7eb7a3fd78dd4f486ec075e3e719f927a594d526e2ee25bcf18d",
        "20e916861228b4fd671b0c07a195104ec139339ac43ee665681b9fc2cea6b2d583ac0063036f726401010a746578742f706c61696e00357b2270223a226272632d3230222c226f70223a226d696e74222c227469636b223a22646f6765222c22616d74223a2234323030227d68",
        "c0e916861228b4fd671b0c07a195104ec139339ac43ee665681b9fc2cea6b2d583"
      ],
      "is_coinbase": false,
      "sequence": 4261412863
    }
  ],
  "vout": [
    {
      "scriptpubkey": "00147a665de7a370f4c9b372ab1fae587500a5bcbdb4",
      "scriptpubkey_asm": "OP_0 OP_PUSHBYTES_20 7a665de7a370f4c9b372ab1fae587500a5bcbdb4",
      "scriptpubkey_type": "v0_p2wpkh",
      "scriptpubkey_address": "bc1q0fn9mearwr6vnvmj4v06ukr4qzjme0d565dzcx",
      "value": 294
    }
  ],
  "size": 294,
  "weight": 540,
  "fee": 1512,
  "status": {
    "confirmed": true,
    "block_height": 834460,
    "block_hash": "00000000000000000000484a79b643b2524bbce82e5d8a442013fa5b8905ed98",
    "block_time": 1710307468
  },
  "hex": "02000000000101643321469295d0c73f0634e20c357937dd113ace04293f2a58cb9a8600bac3ac0501000000fffffffd0126010000000000001600147a665de7a370f4c9b372ab1fae587500a5bcbdb4034064ceaf1ca4536cd0ee5a7b468e669b14c671c999cb56c71f3b3a4c90e545b27bc36da079c7ef7eb7a3fd78dd4f486ec075e3e719f927a594d526e2ee25bcf18d6d20e916861228b4fd671b0c07a195104ec139339ac43ee665681b9fc2cea6b2d583ac0063036f726401010a746578742f706c61696e00357b2270223a226272632d3230222c226f70223a226d696e74222c227469636b223a22646f6765222c22616d74223a2234323030227d6821c0e916861228b4fd671b0c07a195104ec139339ac43ee665681b9fc2cea6b2d58300000000"
}