{
  "txid": "0d692e5522d6b11e7002769ce6708342d0da684a54537ec49b2b6efd3d0f1d7f",
  "version": 2,
  "locktime": 834458,
  "vin": [
    {
      "txid": "7123bab0227f56022ee7a29e6755f277cc82d82c80e8707f4d8758f5c57ce8ef",
      "vout": 1,
      "prevout": {
        "scriptpubkey": "0014c19d898c1944d569e3438945a331fd5eb58dd2c5",
        "scriptpubkey_asm": "OP_0 OP_PUSHBYTES_20 c19d898c1944d569e3438945a331fd5eb58dd2c5",
        "scriptpubkey_type": "v0_p2wpkh",
        "scriptpubkey_address": "bc1qcxwcnrqegn2knc6r39z6xv0at66cm5k98gd9kd",
        "value": 790600
      },
      "scriptsig": "",
      "scriptsig_asm": "",
      "witness": [
        "304402206ed8986a1c8bd4da8d821d5726deb64db959169162c61107c3633440e4d7a58902206c1fecab6cbca455ec0e0d44696dceb6aadcd0210921efa39d9f62370db0746201",
        "034a0c608d84e1edb63bd490d1310feba1af3c46bfc5509b9dd01d95b7687e07a9"
      ],
      "is_coinbase": false,
      "sequence": 4294967293
    }
  ],
  "vout": [
    {
      "scriptpubkey": "a91490f83549c6184bce8886e48068f4213359a4307c87",
      "scriptpubkey_asm": "OP_HASH160 OP_PUSHBYTES_20 90f83549c6184bce8886e48068f4213359a4307c OP_EQUAL",
      "scriptpubkey_type": "p2sh",
      "scriptpubkey_address": "3EuYZyMU9AurczaXAvSawMMeYedwzcVwvc",
      "value": 789000
    }
  ],
  "size": 192,
  "weight": 441,
  "fee": 1600,
  "status": {
    "confirmed": true,
    "block_height": 834460,
    "block_hash": "00000000000000000000484a79b643b2524bbce82e5d8a442013fa5b8905ed98",
    "block_time": 1710307468
  },
  "hex": "02000000000101efe87cc5f558874d7f70e8802cd882cc77f255679ea2e72e02567f22b0ba23710100000000fdffffff01080a0c000000000017a91490f83549c6184bce8886e48068f4213359a4307c870247304402206ed8986a1c8bd4da8d821d5726deb64db959169162c61107c3633440e4d7a58902206c1fecab6cbca455ec0e0d44696dceb6aadcd0210921efa39d9f62370db074620121034a0c608d84e1edb63bd490d1310feba1af3c46bfc5509b9dd01d95b7687e07a99abb0c00"
}