{
  "txid": "0d8b53b61a7b853a15585e5129e857ac7d0104e47e2f9abc037b12e4b17cc0fa",
  "version": 1,
  "locktime": 0,
  "vin": [
    {
      "txid": "92cc1a71207fabcc39cab02fcbe5869cafc6e4fe93de33bd8b3b5e15285c3cc6",
      "vout": 59,
      "prevout": {
        "scriptpubkey": "00147dfa46178debf8313674c8c8e09b96a4a6f954c9",
        "scriptpubkey_asm": "OP_0 OP_PUSHBYTES_20 7dfa46178debf8313674c8c8e09b96a4a6f954c9",
        "scriptpubkey_type": "v0_p2wpkh",
        "scriptpubkey_address": "bc1q0hayv9uda0urzdn5erywpxuk5jn0j4xfjfjqd7",
        "value": 88688
      },
      "scriptsig": "",
      "scriptsig_asm": "",
      "witness": [
        "3045022100d6241e184ff7ce9af4e1d44d628c7208b03905f0e5faeb49e55714cecf09678602202ebc071527caed827e522f38de84f72938b526c0abb063c668952c0ee817976601",
        "02dba92f531d50a2c96c5c5260e32a2ef769656607319dc03547121f2c89c2356c"
      ],
      "is_coinbase": false,
      "sequence": 4294967293
    },
    {
      "txid": "cc43ac34398ac89f3260f4117d1b828b688a0d98d4c493d0c122421e38e45f52",
      "vout": 141,
      "prevout": {
        "scriptpubkey": "001440b46028260e2e39fe4181a3583ec8faa1a03b43",
        "scriptpubkey_asm": "OP_0 OP_PUSHBYTES_20 40b46028260e2e39fe4181a3583ec8faa1a03b43",
        "scriptpubkey_type": "v0_p2wpkh",
        "scriptpubkey_address": "bc1qgz6xq2pxpchrnljpsx34s0kgl2s6qw6rdh8gye",
        "value": 88677
      },
      "scriptsig": "",
      "scriptsig_asm": "",
      "witness": [
        "30440220426344e3958d8aaa61368644513d9e7ccd21c924497496529d1adc9b25185dde022007b2bc24983d46380a68344655fa24d587d19bf5933edd6e2af7fa194fc8dcd301",
        "035c81a9b11a300082a531c2e69e9bd62a1c4d343f8af34b6e75e4d5cbeb0ae685"
      ],
      "is_coinbase": false,
      "sequence": 4294967293
    },
    {
      "txid": "3ad6b9ccb045c163edd48310b65210f0bbd1ab13ce53561775fa05ba23804a84",
      "vout": 68,
      "prevout": {
        "scriptpubkey": "001414d887682e95b564912e29487fc538aadbf46f33",
        "scriptpubkey_asm": "OP_0 OP_PUSHBYTES_20 14d887682e95b564912e29487fc538aadbf46f33",
        "scriptpubkey_type": "v0_p2wpkh",
        "scriptpubkey_address": "bc1qznvgw6pwjk6kfyfw99y8l3fc4tdlgmen7s85zt",
        "value": 88676
      },
      "scriptsig": "",
      "scriptsig_asm": "",
      "witness": [
        "304402203865fd9d31cb1ab2c8acf3ccdecc96e41cc221167b07ba08bd3d8badda9625940220374a3033a6372ddb863821efff865937aef399b5d1fdd70ba94960903e958d6101",
        "032eff48e2f3bb29bf0efb1e9e0fdccafc74ca65decb8b9bd4df3ea9905518eb99"
      ],
      "is_coinbase": false,
      "sequence": 4294967293
    }
  ],
  "vout": [
    {
      "scriptpubkey": "00143ed625a82447f712baa49b4eba4488e85b0ca964",
      "scriptpubkey_asm": "OP_0 OP_PUSHBYTES_20 3ed625a82447f712baa49b4eba4488e85b0ca964",
      "scriptpubkey_type": "v0_p2wpkh",
      "scriptpubkey_address": "bc1q8mtzt2pyglm39w4ynd8t53ygapdse2tyte934k",
      "value": 258601
    }
  ],
  "size": 488,
  "weight": 980,
  "fee": 7440,
  "status": {
    "confirmed": true,
    "block_height": 834638,
    "block_hash": "000000000000000000025f742c626208ac87e0b7d15054abb4a19ca2d735a54e",
    "block_time": 1710405325
  },
  "hex": "01000000000103c63c5c28155e3b8bbd33de93fee4c6af9c86e5cb2fb0ca39ccab7f20711acc923b00000000fdffffff525fe4381e4222c1d093c4d4980d8a688b821b7d11f460329fc88a3934ac43cc8d00000000fdffffff844a8023ba05fa75175653ce13abd1bbf01052b61083d4ed63c145b0ccb9d63a4400000000fdffffff0129f20300000000001600143ed625a82447f712baa49b4eba4488e85b0ca96402483045022100d6241e184ff7ce9af4e1d44d628c7208b03905f0e5faeb49e55714cecf09678602202ebc071527caed827e522f38de84f72938b526c0abb063c668952c0ee8179766012102dba92f531d50a2c96c5c5260e32a2ef769656607319dc03547121f2c89c2356c024730440220426344e3958d8aaa61368644513d9e7ccd21c924497496529d1adc9b25185dde022007b2bc24983d46380a68344655fa24d587d19bf5933edd6e2af7fa194fc8dcd30121035c81a9b11a300082a531c2e69e9bd62a1c4d343f8af34b6e75e4d5cbeb0ae6850247304402203865fd9d31cb1ab2c8acf3ccdecc96e41cc221167b07ba08bd3d8badda9625940220374a3033a6372ddb863821efff865937aef399b5d1fdd70ba94960903e958d610121032eff48e2f3bb29bf0efb1e9e0fdccafc74ca65decb8b9bd4df3ea9905518eb9900000000"
}