{
  "txid": "0d966ef3945eace43140c426d7a84a77a35126028d9ac9228260671b645efbaa",
  "version": 2,
  "locktime": 833995,
  "vin": [
    {
      "txid": "6eeaae0dc92bc2fe4c7488b8314af1be68fddcfcb70947e54c9875186837de64",
      "vout": 1,
      "prevout": {
        "scriptpubkey": "a91436128c2b703327cd253017c1faa056f835e1001187",
        "scriptpubkey_asm": "OP_HASH160 OP_PUSHBYTES_20 36128c2b703327cd253017c1faa056f835e10011 OP_EQUAL",
        "scriptpubkey_type": "p2sh",
        "scriptpubkey_address": "36cvdcDxU8Zbb3T8Z71XDphYGp7dJHd4YT",
        "value": 46954
      },
      "scriptsig": "160014a0c1b8e026c1d15111d693e286bda1e62c11d639",
      "scriptsig_asm": "OP_PUSHBYTES_22 0014a0c1b8e026c1d15111d693e286bda1e62c11d639",
      "witness": [
        "304402200792ebcedadd94ab8ebeb1b8d8d92e1662d919c38cc98a955c80288694288d1d02200ea4ca24b8388538601f59235f879607584e1d626f1ff7ae83fd1cba24e0522b01",
        "03c65cb3b238b660a47daad8ff61e379cbb07e5be8913214994fd20336440737c3"
      ],
      "is_coinbase": false,
      "sequence": 4294967293,
      "inner_redeemscript_asm": "OP_0 OP_PUSHBYTES_20 a0c1b8e026c1d15111d693e286bda1e62c11d639"
    }
  ],
  "vout": [
    {
      "scriptpubkey": "a9142afaba3a94f83924e86858c6f10a4e5a693f388987",
      "scriptpubkey_asm": "OP_HASH160 OP_PUSHBYTES_20 2afaba3a94f83924e86858c6f10a4e5a693f3889 OP_EQUAL",
      "scriptpubkey_type": "p2sh",
      "scriptpubkey_address": "35cGfT35M6X5XuavhHEMXSyVWddvVXbK2Y",
      "value": 1500
    },
    {
      "scriptpubkey": "a914dd41e469e34cf358ab7f420a52f1569e671363a187",
      "scriptpubkey_asm": "OP_HASH160 OP_PUSHBYTES_20 dd41e469e34cf358ab7f420a52f1569e671363a1 OP_EQUAL",
      "scriptpubkey_type": "p2sh",
      "scriptpubkey_address": "3MrvCDDV65WcSb5js4m9b2qeDv3U2E1B6U",
      "value": 43200
    }
  ],
  "size": 247,
  "weight": 661,
  "fee": 2254,
  "status": {
    "confirmed": true,
    "block_height": 834464,
    "block_hash": "0000000000000000000177a0869a911a2b65c9bdcd5a8bcb02b68f305bee848e",
    "block_time": 1710308296
  },
  "hex": "0200000000010164de37681875984ce54709b7fcdcfd68bef14a31b888744cfec22bc90daeea6e0100000017160014a0c1b8e026c1d15111d693e286bda1e62c11d639fdffffff02dc0500000000000017a9142afaba3a94f83924e86858c6f10a4e5a693f388987c0a800000000000017a914dd41e469e34cf358ab7f420a52f1569e671363a1870247304402200792ebcedadd94ab8ebeb1b8d8d92e1662d919c38cc98a955c80288694288d1d02200ea4ca24b8388538601f59235f879607584e1d626f1ff7ae83fd1cba24e0522b012103c65cb3b238b660a47daad8ff61e379cbb07e5be8913214994fd20336440737c3cbb90c00"
}