{
  "txid": "0dc58ee231b90c98191e4eb12d0b713100393239c4e1423f56e5a9fbe9a47a46",
  "version": 2,
  "locktime": 834554,
  "vin": [
    {
      "txid": "48fc3c6b33f89c68acb16b82ab00aadcd2286fce1f5ccc35980c33973e186894",
      "vout": 1,
      "prevout": {
        "scriptpubkey": "00142b8f2b4207d236df4ecbdea50445150e2f5ce218",
        "scriptpubkey_asm": "OP_0 OP_PUSHBYTES_20 2b8f2b4207d236df4ecbdea50445150e2f5ce218",
        "scriptpubkey_type": "v0_p2wpkh",
        "scriptpubkey_address": "bc1q9w8jkss86gmd7nktm6jsg3g4pch4ecscly028t",
        "value": 973960
      },
      "scriptsig": "",
      "scriptsig_asm": "",
      "witness": [
        "30440220690f86f1d07d4a099b9ef0447746fa7f03c275e8e9c3841c201ebfcbcca35c50022015a82e58096792198ac2f2fcd7665111a1d9bb7a9fed3190bf7d266717ef2eae01",
        "0390f23edd8a8a971aff85137c9fce280e961569228658915c34d818544d851aa3"
      ],
      "is_coinbase": false,
      "sequence": 4294967293
    }
  ],
  "vout": [
    {
      "scriptpubkey": "0014d5596e7fe280d0e6e4fb36c2fdef695b56eeb838",
      "scriptpubkey_asm": "OP_0 OP_PUSHBYTES_20 d5596e7fe280d0e6e4fb36c2fdef695b56eeb838",
      "scriptpubkey_type": "v0_p2wpkh",
      "scriptpubkey_address": "bc1q64vkullzsrgwde8mxmp0mmmftdtwawpcsleh25",
      "value": 376724
    },
    {
      "scriptpubkey": "0014cfb45daac889e2d5d816b3702facf2ce83f9c8ea",
      "scriptpubkey_asm": "OP_0 OP_PUSHBYTES_20 cfb45daac889e2d5d816b3702facf2ce83f9c8ea",
      "scriptpubkey_type": "v0_p2wpkh",
      "scriptpubkey_address": "bc1qe769m2kg383dtkqkkdczlt8je6plnj82yfc6v0",
      "value": 594994
    }
  ],
  "size": 222,
  "weight": 561,
  "fee": 2242,
  "status": {
    "confirmed": true,
    "block_height": 834638,
    "block_hash": "000000000000000000025f742c626208ac87e0b7d15054abb4a19ca2d735a54e",
    "block_time": 1710405325
  },
  "hex": "020000000001019468183e97330c9835cc5c1fce6f28d2dcaa00ab826bb1ac689cf8336b3cfc480100000000fdffffff0294bf050000000000160014d5596e7fe280d0e6e4fb36c2fdef695b56eeb8383214090000000000160014cfb45daac889e2d5d816b3702facf2ce83f9c8ea024730440220690f86f1d07d4a099b9ef0447746fa7f03c275e8e9c3841c201ebfcbcca35c50022015a82e58096792198ac2f2fcd7665111a1d9bb7a9fed3190bf7d266717ef2eae01210390f23edd8a8a971aff85137c9fce280e961569228658915c34d818544d851aa3fabb0c00"
}