{
  "txid": "0deff07842092b641c5f003f85b19eb7c03be71191ee1b4cd7af6581edbaeb76",
  "version": 2,
  "locktime": 0,
  "vin": [
    {
      "txid": "f21e8fc26bcce5dc36e0705ced70c738d1b0db8d7a6d6b64de4c07a08cf11de1",
      "vout": 1,
      "prevout": {
        "scriptpubkey": "00142b3b6832f1969c694622b7445d3330f8be75fce2",
        "scriptpubkey_asm": "OP_0 OP_PUSHBYTES_20 2b3b6832f1969c694622b7445d3330f8be75fce2",
        "scriptpubkey_type": "v0_p2wpkh",
        "scriptpubkey_address": "bc1q9vaksvh3j6wxj33zkaz96veslzl8tl8zyyhe4v",
        "value": 165639814
      },
      "scriptsig": "",
      "scriptsig_asm": "",
      "witness": [
        "3044022100bfdfe7c4f8f57e81373632d021a9da9fd2c55d6633f8f3a006d72cb6d15fc16d021f1de415e5b5d7c2bbabf086dc081551d5548d49695df4aa6f654f450c6411c901",
        "02197a26b97c1a99ebcd466fbf76f0959d2b41b6fe4fed69aea1de77718373cb6f"
      ],
      "is_coinbase": false,
      "sequence": 4294967295
    }
  ],
  "vout": [
    {
      "scriptpubkey": "a91463d11bee457e02ded27b018c91805cbe49db88c187",
      "scriptpubkey_asm": "OP_HASH160 OP_PUSHBYTES_20 63d11bee457e02ded27b018c91805cbe49db88c1 OP_EQUAL",
      "scriptpubkey_type": "p2sh",
      "scriptpubkey_address": "3AnoKgzHJ45pBNZg8f3XoaGCzv3XhRrKMV",
      "value": 1337547
    },
    {
      "scriptpubkey": "0014e8ace5696a01537c9e8d2f401cfaded978dc907a",
      "scriptpubkey_asm": "OP_0 OP_PUSHBYTES_20 e8ace5696a01537c9e8d2f401cfaded978dc907a",
      "scriptpubkey_type": "v0_p2wpkh",
      "scriptpubkey_address": "bc1qazkw26t2q9fhe85d9aqpe7k7m9udeyr6trpqx9",
      "value": 164300155
    }
  ],
  "size": 223,
  "weight": 565,
  "fee": 2112,
  "status": {
    "confirmed": true,
    "block_height": 834638,
    "block_hash": "000000000000000000025f742c626208ac87e0b7d15054abb4a19ca2d735a54e",
    "block_time": 1710405325
  },
  "hex": "02000000000101e11df18ca0074cde646b6d7a8ddbb0d138c770ed5c70e036dce5cc6bc28f1ef20100000000ffffffff02cb6814000000000017a91463d11bee457e02ded27b018c91805cbe49db88c1877b05cb0900000000160014e8ace5696a01537c9e8d2f401cfaded978dc907a02473044022100bfdfe7c4f8f57e81373632d021a9da9fd2c55d6633f8f3a006d72cb6d15fc16d021f1de415e5b5d7c2bbabf086dc081551d5548d49695df4aa6f654f450c6411c9012102197a26b97c1a99ebcd466fbf76f0959d2b41b6fe4fed69aea1de77718373cb6f00000000"
}