{
  "txid": "0df37a82c00ca6816c1b9831495919b07b3b50fc6faaaa40927d21a900eee47b",
  "version": 2,
  "locktime": 0,
  "vin": [
    {
      "txid": "e0250705e12c1cb1f9d8345170eb6b46409b94d9e56f4124f8c115045ed56abe",
      "vout": 1,
      "prevout": {
        "scriptpubkey": "5120c8ef2b6bf8b5c941a59a042c68788bdfe655af342c8b999c1d0ddfecda04651f",
        "scriptpubkey_asm": "OP_PUSHNUM_1 OP_PUSHBYTES_32 c8ef2b6bf8b5c941a59a042c68788bdfe655af342c8b999c1d0ddfecda04651f",
        "scriptpubkey_type": "v1_p2tr",
        "scriptpubkey_address": "bc1perhjk6lckhy5rfv6qskxs7ytmln9tte59j9en8qaph07eksyv50sp6v644",
        "value": 546
      },
      "scriptsig": "",
      "scriptsig_asm": "",
      "witness": [
        "2519fd39d3678b457433f2cae9c883a436bdb94646a3861803cf57e506a043c96e18ae484219b2a28f1404d0ae901e6a92966b7d0dd82ef3d8091beeb5a05e7f01"
      ],
      "is_coinbase": false,
      "sequence": 4294967295
    },
    {
      "txid": "bc8ae5bc2279b4bf44454833c5a4a4d0b47bbe53a6348132896879357e85ebcd",
      "vout": 2,
      "prevout": {
        "scriptpubkey": "0014e7cb1b98e6c68f5e545ce32db4b8c998ce8e34f4",
        "scriptpubkey_asm": "OP_0 OP_PUSHBYTES_20 e7cb1b98e6c68f5e545ce32db4b8c998ce8e34f4",
        "scriptpubkey_type": "v0_p2wpkh",
        "scriptpubkey_address": "bc1qul93hx8xc684u4zuuvkmfwxfnr8gud855nr94s",
        "value": 7680113
      },
      "scriptsig": "",
      "scriptsig_asm": "",
      "witness": [
        "3043021f59380c85b31fea290b4307a382cb3a91872e020c5914dd2caea29bcebd944202203313c007e4949d298c8efdc318d40e51339f36cd5b9698cb4c943a22a31b1e3f01",
        "02e98e78af9053d57f46ac7c8ea19db1f010b9467f41f5d16dc68b51e011d4e582"
      ],
      "is_coinbase": false,
      "sequence": 4294967295
    }
  ],
  "vout": [
    {
      "scriptpubkey": "5120530c0da39bfb33ff873251f86a7410b03e3827058e882568e2eab910d657f3df",
      "scriptpubkey_asm": "OP_PUSHNUM_1 OP_PUSHBYTES_32 530c0da39bfb33ff873251f86a7410b03e3827058e882568e2eab910d657f3df",
      "scriptpubkey_type": "v1_p2tr",
      "scriptpubkey_address": "bc1p2vxqmgumlvellpej28ux5aqskqlrsfc936yz268za2u3p4jh700sj8kq48",
      "value": 546
    },
    {
      "scriptpubkey": "a9147c50a49f527653800d698ded4c752381a40d199087",
      "scriptpubkey_asm": "OP_HASH160 OP_PUSHBYTES_20 7c50a49f527653800d698ded4c752381a40d1990 OP_EQUAL",
      "scriptpubkey_type": "p2sh",
      "scriptpubkey_address": "3D2LKWSpRji4hx4Sk4K83CCPStzDuLDhgg",
      "value": 547
    },
    {
      "scriptpubkey": "a914ea6b832a05c6ca578baa3836f3f25553d41068a587",
      "scriptpubkey_asm": "OP_HASH160 OP_PUSHBYTES_20 ea6b832a05c6ca578baa3836f3f25553d41068a5 OP_EQUAL",
      "scriptpubkey_type": "p2sh",
      "scriptpubkey_address": "3P4WqXDbSLRhzo2H6MT6YFbvBKBDPLbVtQ",
      "value": 579
    },
    {
      "scriptpubkey": "0014e7cb1b98e6c68f5e545ce32db4b8c998ce8e34f4",
      "scriptpubkey_asm": "OP_0 OP_PUSHBYTES_20 e7cb1b98e6c68f5e545ce32db4b8c998ce8e34f4",
      "scriptpubkey_type": "v0_p2wpkh",
      "scriptpubkey_address": "bc1qul93hx8xc684u4zuuvkmfwxfnr8gud855nr94s",
      "value": 7674862
    }
  ],
  "size": 405,
  "weight": 1095,
  "fee": 4125,
  "status": {
    "confirmed": true,
    "block_height": 834638,
    "block_hash": "000000000000000000025f742c626208ac87e0b7d15054abb4a19ca2d735a54e",
    "block_time": 1710405325
  },
  "hex": "02000000000102be6ad55e0415c1f824416fe5d9949b40466beb705134d8f9b11c2ce1050725e00100000000ffffffffcdeb857e35796889328134a653be7bb4d0a4a4c533484544bfb47922bce58abc0200000000ffffffff042202000000000000225120530c0da39bfb33ff873251f86a7410b03e3827058e882568e2eab910d657f3df230200000000000017a9147c50a49f527653800d698ded4c752381a40d199087430200000000000017a914ea6b832a05c6ca578baa3836f3f25553d41068a587ee1b750000000000160014e7cb1b98e6c68f5e545ce32db4b8c998ce8e34f401412519fd39d3678b457433f2cae9c883a436bdb94646a3861803cf57e506a043c96e18ae484219b2a28f1404d0ae901e6a92966b7d0dd82ef3d8091beeb5a05e7f0102463043021f59380c85b31fea290b4307a382cb3a91872e020c5914dd2caea29bcebd944202203313c007e4949d298c8efdc318d40e51339f36cd5b9698cb4c943a22a31b1e3f012102e98e78af9053d57f46ac7c8ea19db1f010b9467f41f5d16dc68b51e011d4e58200000000"
}