{
  "txid": "0df4c61bd5dbbae778a595f568b9e5c62be14de45c40294df5795c31d43f9221",
  "version": 2,
  "locktime": 834637,
  "vin": [
    {
      "txid": "e94179b43eadeda982bf0b2910101b4d650d70096ec3af4dcd0d8fdf963390e9",
      "vout": 1,
      "prevout": {
        "scriptpubkey": "0014d80670c3379a824595c61a77a4ae2b72234d104f",
        "scriptpubkey_asm": "OP_0 OP_PUSHBYTES_20 d80670c3379a824595c61a77a4ae2b72234d104f",
        "scriptpubkey_type": "v0_p2wpkh",
        "scriptpubkey_address": "bc1qmqr8psehn2pyt9wxrfm6ft3twg356yz05yemza",
        "value": 3084621
      },
      "scriptsig": "",
      "scriptsig_asm": "",
      "witness": [
        "304402203c00e5735280dab1c80807522cc9ea709153de0af89edd91053c1525b4f5a08202202944a1c9a167703a8a54c031a2cbab531c7d0b785b71ac1d10d45c33a3c8bff701",
        "038bb69d4f2f87bb196fe9f11f856c01352da39dca07b414aab5a51866bff9e705"
      ],
      "is_coinbase": false,
      "sequence": 4294967293
    }
  ],
  "vout": [
    {
      "scriptpubkey": "0014d039615de9c01ca4f51efd1c225528d93d9d5059",
      "scriptpubkey_asm": "OP_0 OP_PUSHBYTES_20 d039615de9c01ca4f51efd1c225528d93d9d5059",
      "scriptpubkey_type": "v0_p2wpkh",
      "scriptpubkey_address": "bc1q6qukzh0fcqw2fag7l5wzy4fgmy7e65zetprc98",
      "value": 327388
    },
    {
      "scriptpubkey": "00141ca8645acf35605aa208b19885561dedbd3a757d",
      "scriptpubkey_asm": "OP_0 OP_PUSHBYTES_20 1ca8645acf35605aa208b19885561dedbd3a757d",
      "scriptpubkey_type": "v0_p2wpkh",
      "scriptpubkey_address": "bc1qrj5xgkk0x4s94gsgkxvg24saak7n5atas2nhsl",
      "value": 2751523
    }
  ],
  "size": 222,
  "weight": 561,
  "fee": 5710,
  "status": {
    "confirmed": true,
    "block_height": 834638,
    "block_hash": "000000000000000000025f742c626208ac87e0b7d15054abb4a19ca2d735a54e",
    "block_time": 1710405325
  },
  "hex": "02000000000101e9903396df8f0dcd4dafc36e09700d654d1b1010290bbf82a9edad3eb47941e90100000000fdffffff02dcfe040000000000160014d039615de9c01ca4f51efd1c225528d93d9d505923fc2900000000001600141ca8645acf35605aa208b19885561dedbd3a757d0247304402203c00e5735280dab1c80807522cc9ea709153de0af89edd91053c1525b4f5a08202202944a1c9a167703a8a54c031a2cbab531c7d0b785b71ac1d10d45c33a3c8bff70121038bb69d4f2f87bb196fe9f11f856c01352da39dca07b414aab5a51866bff9e7054dbc0c00"
}