{
  "txid": "0dfd89c14925f44746f457b8486ce1c01ad9112f6fbe959e17df36ff563f863b",
  "version": 2,
  "locktime": 0,
  "vin": [
    {
      "txid": "f089076c2c97ae6b0368884831776ed5c2ff6d75cd6ab658f03681bf535b148c",
      "vout": 66,
      "prevout": {
        "scriptpubkey": "0014626d8a9d9dd16e19509668b71d4e1a48dfeb3d24",
        "scriptpubkey_asm": "OP_0 OP_PUSHBYTES_20 626d8a9d9dd16e19509668b71d4e1a48dfeb3d24",
        "scriptpubkey_type": "v0_p2wpkh",
        "scriptpubkey_address": "bc1qvfkc48va69hpj5ykdzm36ns6fr07k0fyktn7qf",
        "value": 274347
      },
      "scriptsig": "",
      "scriptsig_asm": "",
      "witness": [
        "30450221008ac8c544b1774d72a564f9932dd8ae43bc6268bc1c3165056f413be026d5ae9c02200979115097bc6be6df2e33521d6240517ba3a2c0e3c1874ee75085f2cba68b5701",
        "033a7a72d3f867dec2d976dd4e960b6847df6896783903cf7356456c8953ad9104"
      ],
      "is_coinbase": false,
      "sequence": 4294967293
    },
    {
      "txid": "ff24f3181f4c11d08a8fc9d4f51cf8d2cb6d456c520f6463e12145098d3e6258",
      "vout": 1,
      "prevout": {
        "scriptpubkey": "00147350b3ea746ca9473df7c129cca9dac56af84421",
        "scriptpubkey_asm": "OP_0 OP_PUSHBYTES_20 7350b3ea746ca9473df7c129cca9dac56af84421",
        "scriptpubkey_type": "v0_p2wpkh",
        "scriptpubkey_address": "bc1qwdgt86n5dj55w00hcy5ue2w6c440s3pp4jmk0e",
        "value": 1000012
      },
      "scriptsig": "",
      "scriptsig_asm": "",
      "witness": [
        "304402206e495cf045f59e8a0a18280dd3df85b1db2f0b11b1ab32e4273b80eee2f85fe702201504d263fd1fe1e9bbe1a0a975a589524ae4a6fbcfbb0e49b8c589317eeb1f6801",
        "03906687a036a15be05df01431f13c11885e8e1308277b658c38a3a98e9fcb0036"
      ],
      "is_coinbase": false,
      "sequence": 4294967293
    }
  ],
  "vout": [
    {
      "scriptpubkey": "a91464395cf2e0864821e0ebb5bc8f0b76484dc6b05d87",
      "scriptpubkey_asm": "OP_HASH160 OP_PUSHBYTES_20 64395cf2e0864821e0ebb5bc8f0b76484dc6b05d OP_EQUAL",
      "scriptpubkey_type": "p2sh",
      "scriptpubkey_address": "3ApxDPCUSb4K6z5auDFFdFB8Qsb3B8EYLc",
      "value": 271476
    },
    {
      "scriptpubkey": "001490da75e7c1930b849f59792334c814e4c0d4f4a6",
      "scriptpubkey_asm": "OP_0 OP_PUSHBYTES_20 90da75e7c1930b849f59792334c814e4c0d4f4a6",
      "scriptpubkey_type": "v0_p2wpkh",
      "scriptpubkey_address": "bc1qjrd8te7pjv9cf86e0y3nfjq5unqdfa9x5f3pal",
      "value": 1000153
    }
  ],
  "size": 372,
  "weight": 837,
  "fee": 2730,
  "status": {
    "confirmed": true,
    "block_height": 834460,
    "block_hash": "00000000000000000000484a79b643b2524bbce82e5d8a442013fa5b8905ed98",
    "block_time": 1710307468
  },
  "hex": "020000000001028c145b53bf8136f058b66acd756dffc2d56e7731488868036bae972c6c0789f04200000000fdffffff58623e8d094521e163640f526c456dcbd2f81cf5d4c98f8ad0114c1f18f324ff0100000000fdffffff02742404000000000017a91464395cf2e0864821e0ebb5bc8f0b76484dc6b05d87d9420f000000000016001490da75e7c1930b849f59792334c814e4c0d4f4a6024830450221008ac8c544b1774d72a564f9932dd8ae43bc6268bc1c3165056f413be026d5ae9c02200979115097bc6be6df2e33521d6240517ba3a2c0e3c1874ee75085f2cba68b570121033a7a72d3f867dec2d976dd4e960b6847df6896783903cf7356456c8953ad91040247304402206e495cf045f59e8a0a18280dd3df85b1db2f0b11b1ab32e4273b80eee2f85fe702201504d263fd1fe1e9bbe1a0a975a589524ae4a6fbcfbb0e49b8c589317eeb1f68012103906687a036a15be05df01431f13c11885e8e1308277b658c38a3a98e9fcb003600000000"
}