{
  "txid": "0e02e5472d03e5fbf4b2d4b818a778d04af8ce00be730c8bd7efa30bb430c8c7",
  "version": 2,
  "locktime": 0,
  "vin": [
    {
      "txid": "60a03e09c0caed84c2e3d8386e45e749d6cdca1c729afdd8f99f4fb2c281fc73",
      "vout": 5,
      "prevout": {
        "scriptpubkey": "5120a9cc25c4ee0b606ac11ce228cd2642706ecefffbb5d44907052aaf6a77119c83",
        "scriptpubkey_asm": "OP_PUSHNUM_1 OP_PUSHBYTES_32 a9cc25c4ee0b606ac11ce228cd2642706ecefffbb5d44907052aaf6a77119c83",
        "scriptpubkey_type": "v1_p2tr",
        "scriptpubkey_address": "bc1p48xzt38wpdsx4sguug5v6fjzwphvallmkh2yjpc992hk5ac3njpsdr9q02",
        "value": 332747
      },
      "scriptsig": "",
      "scriptsig_asm": "",
      "witness": [
        "8d1f52cf2b35f4bd817dd6e1dc5b2ca35e3b722d0e39d68c9fb6da127677a90e2e52777e358b57956393369f9688a6cd49e9010e6bb1238221359393e28662f2"
      ],
      "is_coinbase": false,
      "sequence": 4294967295
    }
  ],
  "vout": [
    {
      "scriptpubkey": "51208b718cb7c4275647df912cd3ea024fe3781c0f3ff58d19208d595e6715d30926",
      "scriptpubkey_asm": "OP_PUSHNUM_1 OP_PUSHBYTES_32 8b718cb7c4275647df912cd3ea024fe3781c0f3ff58d19208d595e6715d30926",
      "scriptpubkey_type": "v1_p2tr",
      "scriptpubkey_address": "bc1p3dcced7yyaty0hu39nf75qj0udupcrel7kx3jgydt90xw9wnpynqcw06fx",
      "value": 55000
    },
    {
      "scriptpubkey": "5120a9cc25c4ee0b606ac11ce228cd2642706ecefffbb5d44907052aaf6a77119c83",
      "scriptpubkey_asm": "OP_PUSHNUM_1 OP_PUSHBYTES_32 a9cc25c4ee0b606ac11ce228cd2642706ecefffbb5d44907052aaf6a77119c83",
      "scriptpubkey_type": "v1_p2tr",
      "scriptpubkey_address": "bc1p48xzt38wpdsx4sguug5v6fjzwphvallmkh2yjpc992hk5ac3njpsdr9q02",
      "value": 275437
    }
  ],
  "size": 205,
  "weight": 616,
  "fee": 2310,
  "status": {
    "confirmed": true,
    "block_height": 834460,
    "block_hash": "00000000000000000000484a79b643b2524bbce82e5d8a442013fa5b8905ed98",
    "block_time": 1710307468
  },
  "hex": "0200000000010173fc81c2b24f9ff9d8fd9a721ccacdd649e7456e38d8e3c284edcac0093ea0600500000000ffffffff02d8d60000000000002251208b718cb7c4275647df912cd3ea024fe3781c0f3ff58d19208d595e6715d30926ed33040000000000225120a9cc25c4ee0b606ac11ce228cd2642706ecefffbb5d44907052aaf6a77119c8301408d1f52cf2b35f4bd817dd6e1dc5b2ca35e3b722d0e39d68c9fb6da127677a90e2e52777e358b57956393369f9688a6cd49e9010e6bb1238221359393e28662f200000000"
}