{
  "txid": "0e113ef2cbb645f8b806e417a52d32c166d40f0bfba2f2d569018aeb707f17b7",
  "version": 2,
  "locktime": 834359,
  "vin": [
    {
      "txid": "3376310225ef4ceb43aad95add0a3b5cb88685b58062394ae6bd9b0501b3abe3",
      "vout": 1,
      "prevout": {
        "scriptpubkey": "0014a2fd28d7ec7fd8306d921b2b809604cd92a044da",
        "scriptpubkey_asm": "OP_0 OP_PUSHBYTES_20 a2fd28d7ec7fd8306d921b2b809604cd92a044da",
        "scriptpubkey_type": "v0_p2wpkh",
        "scriptpubkey_address": "bc1q5t7j34lv0lvrqmvjrv4cp9syekf2q3x64rs9f2",
        "value": 11857
      },
      "scriptsig": "",
      "scriptsig_asm": "",
      "witness": [
        "304402203f3fdf9ff02edbb7a3769e70da7bdc5f4bfd149f0b9b99a2b2547293d9d7332502204dd28c8465fb38f359fac50b7a4945bb4baec071cc710069aad8f1bdfb8dba0501",
        "02adce2e89dfb3a3bf945e88e35c4aba5faf7ad359cc6723f252ddc58caf8aa09c"
      ],
      "is_coinbase": false,
      "sequence": 4294967293
    }
  ],
  "vout": [
    {
      "scriptpubkey": "001490fb04e6cf33692f52569034b90447ec3dd10aa1",
      "scriptpubkey_asm": "OP_0 OP_PUSHBYTES_20 90fb04e6cf33692f52569034b90447ec3dd10aa1",
      "scriptpubkey_type": "v0_p2wpkh",
      "scriptpubkey_address": "bc1qjrasfek0xd5j75jkjq6tjpz8as7azz4p2wrgv7",
      "value": 10895
    }
  ],
  "size": 191,
  "weight": 437,
  "fee": 962,
  "status": {
    "confirmed": true,
    "block_height": 834464,
    "block_hash": "0000000000000000000177a0869a911a2b65c9bdcd5a8bcb02b68f305bee848e",
    "block_time": 1710308296
  },
  "hex": "02000000000101e3abb301059bbde64a396280b58586b85c3b0add5ad9aa43eb4cef25023176330100000000fdffffff018f2a00000000000016001490fb04e6cf33692f52569034b90447ec3dd10aa10247304402203f3fdf9ff02edbb7a3769e70da7bdc5f4bfd149f0b9b99a2b2547293d9d7332502204dd28c8465fb38f359fac50b7a4945bb4baec071cc710069aad8f1bdfb8dba05012102adce2e89dfb3a3bf945e88e35c4aba5faf7ad359cc6723f252ddc58caf8aa09c37bb0c00"
}