{
  "txid": "0e225b7b4a92ca1af8e51d0445f57c60275d1592a78af747321edfac8b2379ba",
  "version": 1,
  "locktime": 0,
  "vin": [
    {
      "txid": "6ddea041caef103b2bc1dd5be12d0e20a248f1195045ec02c558715fa7817d35",
      "vout": 1,
      "prevout": {
        "scriptpubkey": "0014b6273e6fadfd81507d887ec1da52118a0e60c26b",
        "scriptpubkey_asm": "OP_0 OP_PUSHBYTES_20 b6273e6fadfd81507d887ec1da52118a0e60c26b",
        "scriptpubkey_type": "v0_p2wpkh",
        "scriptpubkey_address": "bc1qkcnnumadlkq4qlvg0mqa55s33g8xpsntt77aqn",
        "value": 566331532
      },
      "scriptsig": "",
      "scriptsig_asm": "",
      "witness": [
        "3044022044d0163d5794b9287ee5d4bd7accc111e6f65cc52a12d714601994557a7bbcc402201cefa5c90f2c60a90b6856740fa13a72a2558f1ef9073acd1c44525c36d0283201",
        "03a73b97984c956ee7332093e98ea049303c6195cfea830db531b590abf46d625e"
      ],
      "is_coinbase": false,
      "sequence": 4294967293
    }
  ],
  "vout": [
    {
      "scriptpubkey": "00148b3aaab2003391408a44e54e59d7ce57c7aeaeb8",
      "scriptpubkey_asm": "OP_0 OP_PUSHBYTES_20 8b3aaab2003391408a44e54e59d7ce57c7aeaeb8",
      "scriptpubkey_type": "v0_p2wpkh",
      "scriptpubkey_address": "bc1q3va24vsqxwg5pzjyu489n47w2lr6at4c9xedrj",
      "value": 1000000
    },
    {
      "scriptpubkey": "001421a23dcebac2667d403c78f839a2bc49fdf468bf",
      "scriptpubkey_asm": "OP_0 OP_PUSHBYTES_20 21a23dcebac2667d403c78f839a2bc49fdf468bf",
      "scriptpubkey_type": "v0_p2wpkh",
      "scriptpubkey_address": "bc1qyx3rmn46cfn86spu0rurng4uf87lg69ldtcyd6",
      "value": 565329981
    }
  ],
  "size": 222,
  "weight": 561,
  "fee": 1551,
  "status": {
    "confirmed": true,
    "block_height": 834464,
    "block_hash": "0000000000000000000177a0869a911a2b65c9bdcd5a8bcb02b68f305bee848e",
    "block_time": 1710308296
  },
  "hex": "01000000000101357d81a75f7158c502ec455019f148a2200e2de15bddc12b3b10efca41a0de6d0100000000fdffffff0240420f00000000001600148b3aaab2003391408a44e54e59d7ce57c7aeaeb83d40b2210000000016001421a23dcebac2667d403c78f839a2bc49fdf468bf02473044022044d0163d5794b9287ee5d4bd7accc111e6f65cc52a12d714601994557a7bbcc402201cefa5c90f2c60a90b6856740fa13a72a2558f1ef9073acd1c44525c36d02832012103a73b97984c956ee7332093e98ea049303c6195cfea830db531b590abf46d625e00000000"
}