{
  "txid": "0e27250947c4752966c4d0d4d2ad7f0199872f530403b06bc8af5a2ba92f058c",
  "version": 2,
  "locktime": 0,
  "vin": [
    {
      "txid": "26b1d0e297b7ff91b4ec4ef21fc91c42375675c5cbf47f7598bfa8b5c969fd3d",
      "vout": 1,
      "prevout": {
        "scriptpubkey": "0014aa52dec444fb057a487c177229e03b7baf34ae93",
        "scriptpubkey_asm": "OP_0 OP_PUSHBYTES_20 aa52dec444fb057a487c177229e03b7baf34ae93",
        "scriptpubkey_type": "v0_p2wpkh",
        "scriptpubkey_address": "bc1q4ffda3zylvzh5jruzaezncpm0whnft5nfaf4nf",
        "value": 11623
      },
      "scriptsig": "",
      "scriptsig_asm": "",
      "witness": [
        "30450221008aed05b0bdd76109f9a303b22e76c99e178bcbf0fa4d6827df31d668ee404cf902206872b290b01ab710dd8ab90aae62d0b54f46bbda9cf4e6f6e4a3876aa59bdc2501",
        "03c573ff031a4bf35fec1ae24ff35d4ea43e88e4448ab1042c5270b6ad55285e22"
      ],
      "is_coinbase": false,
      "sequence": 4294967293
    },
    {
      "txid": "a334086cf90ed998ae6ea006e6aa9d9d804a1c72917ab849fff73d1c3d0e93c4",
      "vout": 1,
      "prevout": {
        "scriptpubkey": "0014aa52dec444fb057a487c177229e03b7baf34ae93",
        "scriptpubkey_asm": "OP_0 OP_PUSHBYTES_20 aa52dec444fb057a487c177229e03b7baf34ae93",
        "scriptpubkey_type": "v0_p2wpkh",
        "scriptpubkey_address": "bc1q4ffda3zylvzh5jruzaezncpm0whnft5nfaf4nf",
        "value": 11243
      },
      "scriptsig": "",
      "scriptsig_asm": "",
      "witness": [
        "30440220055a9949340377a53bde551252ce4c86a02ccf19b354dfb3bf91df54f472a22c022030352893acd18c118891d531a4258c0023ce52d4da360062098364155a02637601",
        "03c573ff031a4bf35fec1ae24ff35d4ea43e88e4448ab1042c5270b6ad55285e22"
      ],
      "is_coinbase": false,
      "sequence": 4294967293
    }
  ],
  "vout": [
    {
      "scriptpubkey": "51200cbdda1172e1e3d9e1f2c57c81964cd3d6d9e19253444be71730bf65a77c25ad",
      "scriptpubkey_asm": "OP_PUSHNUM_1 OP_PUSHBYTES_32 0cbdda1172e1e3d9e1f2c57c81964cd3d6d9e19253444be71730bf65a77c25ad",
      "scriptpubkey_type": "v1_p2tr",
      "scriptpubkey_address": "bc1ppj7a5ytju83anc0jc47gr9jv60tdncvj2dzyhechxzlktfmuykks6xurtx",
      "value": 18809
    },
    {
      "scriptpubkey": "0014aa52dec444fb057a487c177229e03b7baf34ae93",
      "scriptpubkey_asm": "OP_0 OP_PUSHBYTES_20 aa52dec444fb057a487c177229e03b7baf34ae93",
      "scriptpubkey_type": "v0_p2wpkh",
      "scriptpubkey_address": "bc1q4ffda3zylvzh5jruzaezncpm0whnft5nfaf4nf",
      "value": 1637
    }
  ],
  "size": 383,
  "weight": 881,
  "fee": 2420,
  "status": {
    "confirmed": true,
    "block_height": 834464,
    "block_hash": "0000000000000000000177a0869a911a2b65c9bdcd5a8bcb02b68f305bee848e",
    "block_time": 1710308296
  },
  "hex": "020000000001023dfd69c9b5a8bf98757ff4cbc5755637421cc91ff24eecb491ffb797e2d0b1260100000000fdffffffc4930e3d1c3df7ff49b87a91721c4a809d9daae606a06eae98d90ef96c0834a30100000000fdffffff0279490000000000002251200cbdda1172e1e3d9e1f2c57c81964cd3d6d9e19253444be71730bf65a77c25ad6506000000000000160014aa52dec444fb057a487c177229e03b7baf34ae93024830450221008aed05b0bdd76109f9a303b22e76c99e178bcbf0fa4d6827df31d668ee404cf902206872b290b01ab710dd8ab90aae62d0b54f46bbda9cf4e6f6e4a3876aa59bdc25012103c573ff031a4bf35fec1ae24ff35d4ea43e88e4448ab1042c5270b6ad55285e22024730440220055a9949340377a53bde551252ce4c86a02ccf19b354dfb3bf91df54f472a22c022030352893acd18c118891d531a4258c0023ce52d4da360062098364155a026376012103c573ff031a4bf35fec1ae24ff35d4ea43e88e4448ab1042c5270b6ad55285e2200000000"
}