{
  "txid": "0e30768d6bdb4b26f6076b3bbd9526ab9d3a5784515520539cf18719d48d9568",
  "version": 2,
  "locktime": 834637,
  "vin": [
    {
      "txid": "6034098ee67854d378ed086b710409f0e2249358196eeb2f69c59a177551e036",
      "vout": 0,
      "prevout": {
        "scriptpubkey": "00146a0c9b2606ea09cfc28f8c52193ffa217708c7df",
        "scriptpubkey_asm": "OP_0 OP_PUSHBYTES_20 6a0c9b2606ea09cfc28f8c52193ffa217708c7df",
        "scriptpubkey_type": "v0_p2wpkh",
        "scriptpubkey_address": "bc1qdgxfkfsxagyuls5033fpj0l6y9ms337l2gnw8g",
        "value": 10017351
      },
      "scriptsig": "",
      "scriptsig_asm": "",
      "witness": [
        "304402207cdb3c2555ccad09a319e60e8daf20b897483ee7ecb308536b460e6b471ec2160220149eb6eef194bc4b1116edf65a27f29f603d1111285c4168d3fdc7668b18b24901",
        "032c6d029d5e18be7ae9d4cf4f0979bcc83632f64f6f138154ccd9b71e4ddd389a"
      ],
      "is_coinbase": false,
      "sequence": 4294967293
    }
  ],
  "vout": [
    {
      "scriptpubkey": "76a9148f4aecc3fb3e6d12c41a5c12724a17ee2cd2b10188ac",
      "scriptpubkey_asm": "OP_DUP OP_HASH160 OP_PUSHBYTES_20 8f4aecc3fb3e6d12c41a5c12724a17ee2cd2b101 OP_EQUALVERIFY OP_CHECKSIG",
      "scriptpubkey_type": "p2pkh",
      "scriptpubkey_address": "1E4fPJZAixxujqdEGqwW8VgS9w4jxmu7eo",
      "value": 10014187
    }
  ],
  "size": 194,
  "weight": 449,
  "fee": 3164,
  "status": {
    "confirmed": true,
    "block_height": 834638,
    "block_hash": "000000000000000000025f742c626208ac87e0b7d15054abb4a19ca2d735a54e",
    "block_time": 1710405325
  },
  "hex": "0200000000010136e05175179ac5692feb6e19589324e2f00904716b08ed78d35478e68e0934600000000000fdffffff01ebcd9800000000001976a9148f4aecc3fb3e6d12c41a5c12724a17ee2cd2b10188ac0247304402207cdb3c2555ccad09a319e60e8daf20b897483ee7ecb308536b460e6b471ec2160220149eb6eef194bc4b1116edf65a27f29f603d1111285c4168d3fdc7668b18b2490121032c6d029d5e18be7ae9d4cf4f0979bcc83632f64f6f138154ccd9b71e4ddd389a4dbc0c00"
}