{
  "txid": "0e366ae2120a3cfb879e8ca1c9b1e698a52138148b185bb0ffe5e3af2651a7bb",
  "version": 1,
  "locktime": 0,
  "vin": [
    {
      "txid": "7c545e84e17b4c43599720e6cd1ce6b2e7d1818ff4363588c7275e9582ac50c5",
      "vout": 1,
      "prevout": {
        "scriptpubkey": "0014f9237394e033dbd8761edc01b6b392367cfbf9fa",
        "scriptpubkey_asm": "OP_0 OP_PUSHBYTES_20 f9237394e033dbd8761edc01b6b392367cfbf9fa",
        "scriptpubkey_type": "v0_p2wpkh",
        "scriptpubkey_address": "bc1qly3h898qx0dasas7msqmdvujxe70h706lhkxcl",
        "value": 2191083
      },
      "scriptsig": "",
      "scriptsig_asm": "",
      "witness": [
        "30450221008f57dc09a3846a7fb49432f6419de98aa0853d01952b135a24b368889cf7c52302207b8b74e8338865f87dfa175862a6ebf8a4d4bd772450f5aa34a805547c4a700a01",
        "03dd4e14783e03126128e14078d7039285cd9535295879130fe1fc6c292be98e30"
      ],
      "is_coinbase": false,
      "sequence": 4294967295
    }
  ],
  "vout": [
    {
      "scriptpubkey": "a9146ba88c5117f2f87c917f8b83e3e6453d574f39cc87",
      "scriptpubkey_asm": "OP_HASH160 OP_PUSHBYTES_20 6ba88c5117f2f87c917f8b83e3e6453d574f39cc OP_EQUAL",
      "scriptpubkey_type": "p2sh",
      "scriptpubkey_address": "3BWG8zpjN8b7aos93u3MmtLMTopXH9e7FZ",
      "value": 161600
    },
    {
      "scriptpubkey": "0014dcb285097e3bc876955d29e22fa71d93ce9d2c9a",
      "scriptpubkey_asm": "OP_0 OP_PUSHBYTES_20 dcb285097e3bc876955d29e22fa71d93ce9d2c9a",
      "scriptpubkey_type": "v0_p2wpkh",
      "scriptpubkey_address": "bc1qmjeg2zt780y8d92a983zlfcaj08f6ty6ny8ua8",
      "value": 2027943
    }
  ],
  "size": 224,
  "weight": 566,
  "fee": 1540,
  "status": {
    "confirmed": true,
    "block_height": 834464,
    "block_hash": "0000000000000000000177a0869a911a2b65c9bdcd5a8bcb02b68f305bee848e",
    "block_time": 1710308296
  },
  "hex": "01000000000101c550ac82955e27c7883536f48f81d1e7b2e61ccde6209759434c7be1845e547c0100000000ffffffff02407702000000000017a9146ba88c5117f2f87c917f8b83e3e6453d574f39cc87a7f11e0000000000160014dcb285097e3bc876955d29e22fa71d93ce9d2c9a024830450221008f57dc09a3846a7fb49432f6419de98aa0853d01952b135a24b368889cf7c52302207b8b74e8338865f87dfa175862a6ebf8a4d4bd772450f5aa34a805547c4a700a012103dd4e14783e03126128e14078d7039285cd9535295879130fe1fc6c292be98e3000000000"
}