{
  "txid": "0e37eb5a34197814cb05b199bdef273b73a6d2513fcfed62aa2cc37f3bc854cf",
  "version": 1,
  "locktime": 0,
  "vin": [
    {
      "txid": "595044656e737976314facae99e5659d5d7403c64b2e3ef92ed0492083d4a19b",
      "vout": 23,
      "prevout": {
        "scriptpubkey": "0014e184a5c2489e5c3efbd1923ccaa2c7f6900b4c43",
        "scriptpubkey_asm": "OP_0 OP_PUSHBYTES_20 e184a5c2489e5c3efbd1923ccaa2c7f6900b4c43",
        "scriptpubkey_type": "v0_p2wpkh",
        "scriptpubkey_address": "bc1quxz2tsjgnewra773jg7v4gk876gqknzren68gw",
        "value": 125313
      },
      "scriptsig": "",
      "scriptsig_asm": "",
      "witness": [
        "30440220642fc03b253d15b3f3314f16a431143055eb75fe2001611e001a0583a45d5fb102207ee6312d8edeef2d44212e700c34f447fb08e14888b6f58cee6ed1450910c3e601",
        "020f1fabc6cb4d2da659005c8587cb98c44990f8ba8810ecc0ce8f7652dcfdaec3"
      ],
      "is_coinbase": false,
      "sequence": 4294967293
    },
    {
      "txid": "f59fd611761bbee52bbc772ef882ec662976989fffcd60ab683dad70453c0ecb",
      "vout": 95,
      "prevout": {
        "scriptpubkey": "00145bc49eeffc3634d14abb462d32f36058a6c7b31f",
        "scriptpubkey_asm": "OP_0 OP_PUSHBYTES_20 5bc49eeffc3634d14abb462d32f36058a6c7b31f",
        "scriptpubkey_type": "v0_p2wpkh",
        "scriptpubkey_address": "bc1qt0zfamluxc6dzj4mgckn9umqtznv0vclejnsk3",
        "value": 125192
      },
      "scriptsig": "",
      "scriptsig_asm": "",
      "witness": [
        "3044022100ee0619886406c60ffd9a5c0f4627237bcae63e3f9a7bf238e33970e2517f7d7f021f7e31558b576b66bd1abaa74e903527a28ea13b5f27ea536f8f89c255da171901",
        "020864401bedaa8504fd500d37a3921dcd5a07563300dd20a9c79bd83b353c53f5"
      ],
      "is_coinbase": false,
      "sequence": 4294967293
    },
    {
      "txid": "8921f7ffe90a8ec9bafe8823c4740950499ddfdb897fc50985c3fd4da120ba57",
      "vout": 186,
      "prevout": {
        "scriptpubkey": "0014e696a5723221c3b91e91f3649a104e50e50bfc7b",
        "scriptpubkey_asm": "OP_0 OP_PUSHBYTES_20 e696a5723221c3b91e91f3649a104e50e50bfc7b",
        "scriptpubkey_type": "v0_p2wpkh",
        "scriptpubkey_address": "bc1qu6t22u3jy8pmj8537djf5yzw2rjshlrmfhhc2r",
        "value": 125143
      },
      "scriptsig": "",
      "scriptsig_asm": "",
      "witness": [
        "3045022100d107535b15335efb312f4cc7c1fbe9906a2eea0fdd1c684cec5e63f7ff610f3f02207c1a61d49683a35613eb89c9a0d7330c56d4dab75c51420700a9c53cc445c7d401",
        "03badd709be4378a32d517ccf00068cf2f596ca8681072e89747b25ea75b6fa821"
      ],
      "is_coinbase": false,
      "sequence": 4294967293
    }
  ],
  "vout": [
    {
      "scriptpubkey": "00142948217ebd7e5fba95bb5e94310ed082b6c89efd",
      "scriptpubkey_asm": "OP_0 OP_PUSHBYTES_20 2948217ebd7e5fba95bb5e94310ed082b6c89efd",
      "scriptpubkey_type": "v0_p2wpkh",
      "scriptpubkey_address": "bc1q99yzzl4a0e0m49dmt62rzrkss2mv38hapuvkjd",
      "value": 368208
    }
  ],
  "size": 488,
  "weight": 980,
  "fee": 7440,
  "status": {
    "confirmed": true,
    "block_height": 834638,
    "block_hash": "000000000000000000025f742c626208ac87e0b7d15054abb4a19ca2d735a54e",
    "block_time": 1710405325
  },
  "hex": "010000000001039ba1d4832049d02ef93e2e4bc603745d9d65e599aeac4f317679736e654450591700000000fdffffffcb0e3c4570ad3d68ab60cdff9f98762966ec82f82e77bc2be5be1b7611d69ff55f00000000fdffffff57ba20a14dfdc38509c57f89dbdf9d49500974c42388febac98e0ae9fff72189ba00000000fdffffff01509e0500000000001600142948217ebd7e5fba95bb5e94310ed082b6c89efd024730440220642fc03b253d15b3f3314f16a431143055eb75fe2001611e001a0583a45d5fb102207ee6312d8edeef2d44212e700c34f447fb08e14888b6f58cee6ed1450910c3e60121020f1fabc6cb4d2da659005c8587cb98c44990f8ba8810ecc0ce8f7652dcfdaec302473044022100ee0619886406c60ffd9a5c0f4627237bcae63e3f9a7bf238e33970e2517f7d7f021f7e31558b576b66bd1abaa74e903527a28ea13b5f27ea536f8f89c255da17190121020864401bedaa8504fd500d37a3921dcd5a07563300dd20a9c79bd83b353c53f502483045022100d107535b15335efb312f4cc7c1fbe9906a2eea0fdd1c684cec5e63f7ff610f3f02207c1a61d49683a35613eb89c9a0d7330c56d4dab75c51420700a9c53cc445c7d4012103badd709be4378a32d517ccf00068cf2f596ca8681072e89747b25ea75b6fa82100000000"
}