{
  "txid": "0e5075865c62573797890b953d7edb62a6fce9e9ab7d7c7a4e44b9696932c403",
  "version": 2,
  "locktime": 0,
  "vin": [
    {
      "txid": "7b766c53b36a2c21d881467d7449b61a3812dc3a0d6a3faf7f7e55b95b75db96",
      "vout": 1,
      "prevout": {
        "scriptpubkey": "0014019a8ea9321f13a6baec8344507e997486234bcf",
        "scriptpubkey_asm": "OP_0 OP_PUSHBYTES_20 019a8ea9321f13a6baec8344507e997486234bcf",
        "scriptpubkey_type": "v0_p2wpkh",
        "scriptpubkey_address": "bc1qqxdga2fjruf6dwhvsdz9ql5ewjrzxj707wfrnp",
        "value": 801736
      },
      "scriptsig": "",
      "scriptsig_asm": "",
      "witness": [
        "3045022100b9a12e0fca2ac7ae57d8b18a56ad96758bd5360923a5fc8b0daf8b71b5ac365e02203b83d2fc24a21710dc7ca9c55d1b683900f298c5e7d2ca4a29f35997d6988d2a01",
        "025af1f6cd772e723587aee23c472dedd2e0992f5945f277d1e521f7f968afa318"
      ],
      "is_coinbase": false,
      "sequence": 4294967095
    }
  ],
  "vout": [
    {
      "scriptpubkey": "a9144a6292668967b5461c1f31c82eb8cda1c07fc33587",
      "scriptpubkey_asm": "OP_HASH160 OP_PUSHBYTES_20 4a6292668967b5461c1f31c82eb8cda1c07fc335 OP_EQUAL",
      "scriptpubkey_type": "p2sh",
      "scriptpubkey_address": "38UL1dgevDNyxepaUW14nv99qEtXBiVhQA",
      "value": 750000
    },
    {
      "scriptpubkey": "0014019a8ea9321f13a6baec8344507e997486234bcf",
      "scriptpubkey_asm": "OP_0 OP_PUSHBYTES_20 019a8ea9321f13a6baec8344507e997486234bcf",
      "scriptpubkey_type": "v0_p2wpkh",
      "scriptpubkey_address": "bc1qqxdga2fjruf6dwhvsdz9ql5ewjrzxj707wfrnp",
      "value": 49464
    }
  ],
  "size": 224,
  "weight": 566,
  "fee": 2272,
  "status": {
    "confirmed": true,
    "block_height": 834552,
    "block_hash": "00000000000000000001dd0468a70c94f619251d286585cff57aeb4bd9ede330",
    "block_time": 1710355598
  },
  "hex": "0200000000010196db755bb9557e7faf3f6a0d3adc12381ab649747d4681d8212c6ab3536c767b010000000037ffffff02b0710b000000000017a9144a6292668967b5461c1f31c82eb8cda1c07fc3358738c1000000000000160014019a8ea9321f13a6baec8344507e997486234bcf02483045022100b9a12e0fca2ac7ae57d8b18a56ad96758bd5360923a5fc8b0daf8b71b5ac365e02203b83d2fc24a21710dc7ca9c55d1b683900f298c5e7d2ca4a29f35997d6988d2a0121025af1f6cd772e723587aee23c472dedd2e0992f5945f277d1e521f7f968afa31800000000"
}