{
  "txid": "0e5e00559933b5929a632ae4f9d86fcaa6b26d6adcd06438ee1594300931a574",
  "version": 2,
  "locktime": 0,
  "vin": [
    {
      "txid": "61ae3de45f658eb5023509cd127cc15993d6f063b567075e5f6e238bd326b84b",
      "vout": 0,
      "prevout": {
        "scriptpubkey": "0014518f0e4ac8b4ecfae753176d518cd59ec38851ac",
        "scriptpubkey_asm": "OP_0 OP_PUSHBYTES_20 518f0e4ac8b4ecfae753176d518cd59ec38851ac",
        "scriptpubkey_type": "v0_p2wpkh",
        "scriptpubkey_address": "bc1q2x8sujkgknk04e6nzak4rrx4nmpcs5dvyyaxjl",
        "value": 36500000
      },
      "scriptsig": "",
      "scriptsig_asm": "",
      "witness": [
        "304402206376c44362fd5bfa48b74ad2213ca88932f937122ed5ded204571596d782590f0220178734dc9015575619d8fa8dde3a558a5479bd2ec245321a31333ab46ed50bba01",
        "032349ea0870c925d0b9eac7d4cea5bd39e32db0d3dd286a1185df72c38d4998ba"
      ],
      "is_coinbase": false,
      "sequence": 4294967293
    },
    {
      "txid": "bfca6eb52a3306a4446a34e85f96dd0020b5a9eb04059facc083494dd76c4600",
      "vout": 1,
      "prevout": {
        "scriptpubkey": "0014518f0e4ac8b4ecfae753176d518cd59ec38851ac",
        "scriptpubkey_asm": "OP_0 OP_PUSHBYTES_20 518f0e4ac8b4ecfae753176d518cd59ec38851ac",
        "scriptpubkey_type": "v0_p2wpkh",
        "scriptpubkey_address": "bc1q2x8sujkgknk04e6nzak4rrx4nmpcs5dvyyaxjl",
        "value": 797429
      },
      "scriptsig": "",
      "scriptsig_asm": "",
      "witness": [
        "30440220027509bf344df993a9bed32dc8ef7fee8b5d1db5a9a61a27acd0947cf4a62c23022062c1a7c653c8a1796daaad5222f485a743b5b0ab3ad0246dfdab5a476c0c5b0701",
        "032349ea0870c925d0b9eac7d4cea5bd39e32db0d3dd286a1185df72c38d4998ba"
      ],
      "is_coinbase": false,
      "sequence": 4294967293
    }
  ],
  "vout": [
    {
      "scriptpubkey": "00145e2f3778568b5a60afbd075b5dd8af0c54a18ff0",
      "scriptpubkey_asm": "OP_0 OP_PUSHBYTES_20 5e2f3778568b5a60afbd075b5dd8af0c54a18ff0",
      "scriptpubkey_type": "v0_p2wpkh",
      "scriptpubkey_address": "bc1qtchnw7zk3ddxptaaqad4mk90p322rrls5cayd9",
      "value": 9100000
    },
    {
      "scriptpubkey": "00146a767f32e6323c9f276f45919b1e80b9582ab013",
      "scriptpubkey_asm": "OP_0 OP_PUSHBYTES_20 6a767f32e6323c9f276f45919b1e80b9582ab013",
      "scriptpubkey_type": "v0_p2wpkh",
      "scriptpubkey_address": "bc1qdfm87vhxxg7f7fm0gkgek85qh9vz4vqn4mvqmg",
      "value": 9000000
    },
    {
      "scriptpubkey": "00143b3d063ade365acca6bdb8e659fee6233064f0ee",
      "scriptpubkey_asm": "OP_0 OP_PUSHBYTES_20 3b3d063ade365acca6bdb8e659fee6233064f0ee",
      "scriptpubkey_type": "v0_p2wpkh",
      "scriptpubkey_address": "bc1q8v7svwk7xedvef4ahrn9nlhxyvcxfu8w7tgwvk",
      "value": 9100000
    },
    {
      "scriptpubkey": "0014a7407f3368d1f050777da26d7f36775e67eea432",
      "scriptpubkey_asm": "OP_0 OP_PUSHBYTES_20 a7407f3368d1f050777da26d7f36775e67eea432",
      "scriptpubkey_type": "v0_p2wpkh",
      "scriptpubkey_address": "bc1q5aq87vmg68c9qama5fkh7dnhten7afpjt2lnuc",
      "value": 9100000
    },
    {
      "scriptpubkey": "0014518f0e4ac8b4ecfae753176d518cd59ec38851ac",
      "scriptpubkey_asm": "OP_0 OP_PUSHBYTES_20 518f0e4ac8b4ecfae753176d518cd59ec38851ac",
      "scriptpubkey_type": "v0_p2wpkh",
      "scriptpubkey_address": "bc1q2x8sujkgknk04e6nzak4rrx4nmpcs5dvyyaxjl",
      "value": 992236
    }
  ],
  "size": 463,
  "weight": 1204,
  "fee": 5193,
  "status": {
    "confirmed": true,
    "block_height": 834638,
    "block_hash": "000000000000000000025f742c626208ac87e0b7d15054abb4a19ca2d735a54e",
    "block_time": 1710405325
  },
  "hex": "020000000001024bb826d38b236e5f5e0767b563f0d69359c17c12cd093502b58e655fe43dae610000000000fdffffff00466cd74d4983c0ac9f0504eba9b52000dd965fe8346a44a406332ab56ecabf0100000000fdffffff05e0da8a00000000001600145e2f3778568b5a60afbd075b5dd8af0c54a18ff040548900000000001600146a767f32e6323c9f276f45919b1e80b9582ab013e0da8a00000000001600143b3d063ade365acca6bdb8e659fee6233064f0eee0da8a0000000000160014a7407f3368d1f050777da26d7f36775e67eea432ec230f0000000000160014518f0e4ac8b4ecfae753176d518cd59ec38851ac0247304402206376c44362fd5bfa48b74ad2213ca88932f937122ed5ded204571596d782590f0220178734dc9015575619d8fa8dde3a558a5479bd2ec245321a31333ab46ed50bba0121032349ea0870c925d0b9eac7d4cea5bd39e32db0d3dd286a1185df72c38d4998ba024730440220027509bf344df993a9bed32dc8ef7fee8b5d1db5a9a61a27acd0947cf4a62c23022062c1a7c653c8a1796daaad5222f485a743b5b0ab3ad0246dfdab5a476c0c5b070121032349ea0870c925d0b9eac7d4cea5bd39e32db0d3dd286a1185df72c38d4998ba00000000"
}