{
  "txid": "0e6d2f414fcf9b377ab0fc670074ab79f8bd51bb9d384870db2bba18e1d367e7",
  "version": 2,
  "locktime": 0,
  "vin": [
    {
      "txid": "40e7fab99a6fa78b167123f1da93af9179a922e649c672d814b89183700b4134",
      "vout": 1,
      "prevout": {
        "scriptpubkey": "5120ba2fde26dc7a4efdb5d30a08ca73e7455fedafd7c86edb7a29e805cbaf967a42",
        "scriptpubkey_asm": "OP_PUSHNUM_1 OP_PUSHBYTES_32 ba2fde26dc7a4efdb5d30a08ca73e7455fedafd7c86edb7a29e805cbaf967a42",
        "scriptpubkey_type": "v1_p2tr",
        "scriptpubkey_address": "bc1phghaufku0f80mdwnpgyv5ul8g407mt7hephdk73faqzuhtuk0fpq4rvmkw",
        "value": 5284
      },
      "scriptsig": "",
      "scriptsig_asm": "",
      "witness": [
        "31427a9f5071da60d065e249038025941f9a34d215052c4285da1ddcaee02b2326bf8ccf71153ab0f8bd333135780f2a939c09d4f8a667b3ccc63d4459c4d4db"
      ],
      "is_coinbase": false,
      "sequence": 4294967295
    }
  ],
  "vout": [
    {
      "scriptpubkey": "76a914d4da3f6c66a3ee938232a96337efb3262c2da49388ac",
      "scriptpubkey_asm": "OP_DUP OP_HASH160 OP_PUSHBYTES_20 d4da3f6c66a3ee938232a96337efb3262c2da493 OP_EQUALVERIFY OP_CHECKSIG",
      "scriptpubkey_type": "p2pkh",
      "scriptpubkey_address": "1LQThnfrZb1gdumuLTRR4HrhjiTwCgPx4S",
      "value": 4162
    }
  ],
  "size": 153,
  "weight": 408,
  "fee": 1122,
  "status": {
    "confirmed": true,
    "block_height": 834464,
    "block_hash": "0000000000000000000177a0869a911a2b65c9bdcd5a8bcb02b68f305bee848e",
    "block_time": 1710308296
  },
  "hex": "0200000000010134410b708391b814d872c649e622a97991af93daf12371168ba76f9ab9fae7400100000000ffffffff0142100000000000001976a914d4da3f6c66a3ee938232a96337efb3262c2da49388ac014031427a9f5071da60d065e249038025941f9a34d215052c4285da1ddcaee02b2326bf8ccf71153ab0f8bd333135780f2a939c09d4f8a667b3ccc63d4459c4d4db00000000"
}