{
  "txid": "0e72defd4c2c372adb75a821316c5e48d4f3b0d2254b648c123ed0d707dd8ac7",
  "version": 1,
  "locktime": 0,
  "vin": [
    {
      "txid": "88888889a24f20478ab1566c20719c7586f7efdf936bf703d4faff903266655f",
      "vout": 0,
      "prevout": {
        "scriptpubkey": "51208937a3281455cf876aa56ce2c2f12175b7454a81cc77913d7023b89c4bc1a4f5",
        "scriptpubkey_asm": "OP_PUSHNUM_1 OP_PUSHBYTES_32 8937a3281455cf876aa56ce2c2f12175b7454a81cc77913d7023b89c4bc1a4f5",
        "scriptpubkey_type": "v1_p2tr",
        "scriptpubkey_address": "bc1p3ym6x2q52h8cw649dn3v9ufpwkm52j5pe3mez0tsywufcj7p5n6sq3w5v5",
        "value": 11704
      },
      "scriptsig": "",
      "scriptsig_asm": "",
      "witness": [
        "3c4c0e5d98ab5319b3fdd9d22d18a3c8811e71fa19adb25c0fbc6fce787a702cd29827a1ea9291c3f761030e9fed7ea071740f95b3fd41500b3f4e08df3feaf0",
        "2099cbd44037dd56e50918bef0cbae5f12fa81634779477755a3c4bd0607aae23fac00630461746f6d03646d7442a16461726773a46474696d651a65dc0f03656e6f6e63651903f668626974776f726b6369383838383838382e316b6d696e745f7469636b657268696e66696e69747968",
        "c199cbd44037dd56e50918bef0cbae5f12fa81634779477755a3c4bd0607aae23f"
      ],
      "is_coinbase": false,
      "sequence": 1
    }
  ],
  "vout": [
    {
      "scriptpubkey": "5120f9492bb122c5d1e0793742d6755378a79064945f115813f48db0b7cef852ae6b",
      "scriptpubkey_asm": "OP_PUSHNUM_1 OP_PUSHBYTES_32 f9492bb122c5d1e0793742d6755378a79064945f115813f48db0b7cef852ae6b",
      "scriptpubkey_type": "v1_p2tr",
      "scriptpubkey_address": "bc1pl9yjhvfzchg7q7fhgtt825mc57gxf9zlz9vp8aydkzmua7zj4e4sfj3cjc",
      "value": 9999
    }
  ],
  "size": 310,
  "weight": 592,
  "fee": 1705,
  "status": {
    "confirmed": true,
    "block_height": 834464,
    "block_hash": "0000000000000000000177a0869a911a2b65c9bdcd5a8bcb02b68f305bee848e",
    "block_time": 1710308296
  },
  "hex": "010000000001015f65663290fffad403f76b93dfeff786759c71206c56b18a47204fa289888888000000000001000000010f27000000000000225120f9492bb122c5d1e0793742d6755378a79064945f115813f48db0b7cef852ae6b03403c4c0e5d98ab5319b3fdd9d22d18a3c8811e71fa19adb25c0fbc6fce787a702cd29827a1ea9291c3f761030e9fed7ea071740f95b3fd41500b3f4e08df3feaf0712099cbd44037dd56e50918bef0cbae5f12fa81634779477755a3c4bd0607aae23fac00630461746f6d03646d7442a16461726773a46474696d651a65dc0f03656e6f6e63651903f668626974776f726b6369383838383838382e316b6d696e745f7469636b657268696e66696e6974796821c199cbd44037dd56e50918bef0cbae5f12fa81634779477755a3c4bd0607aae23f00000000"
}