{
  "txid": "0e8495fb47bb88e98adeb7f20fc306146104ac59c05c14e6ad76292e80e54e86",
  "version": 2,
  "locktime": 0,
  "vin": [
    {
      "txid": "8486ecb4df0880316dd6e82b3971b4df187aff23765bc3a47f8d78bb53aa273c",
      "vout": 88,
      "prevout": {
        "scriptpubkey": "5120c9ec1f30265defcc2c57c1ae87b554dc399bafe5dbb2a7b8144a6f6c374bf6cf",
        "scriptpubkey_asm": "OP_PUSHNUM_1 OP_PUSHBYTES_32 c9ec1f30265defcc2c57c1ae87b554dc399bafe5dbb2a7b8144a6f6c374bf6cf",
        "scriptpubkey_type": "v1_p2tr",
        "scriptpubkey_address": "bc1pe8kp7vpxthhuctzhcxhg0d25msuehtl9mwe20wq5ffhkcd6t7m8s3v6fsa",
        "value": 2575
      },
      "scriptsig": "",
      "scriptsig_asm": "",
      "witness": [
        "f7d1bc6de63689f50e4896e5906db0a6f2f0359bbe8bf2d4e418c5f1ce0805dcd4608f93f993a934f96726a6799594d22e4637f73f3531217628edcdae1b4f88",
        "203018dd46632690d45f55a4539eb0901324eb3cb578b763c230d1d54e0cb3855bac0063036f726401010a746578742f706c61696e00367b2270223a226272632d3230222c226f70223a226d696e74222c227469636b223a2261616161222c22616d74223a223130303030227d68",
        "c13018dd46632690d45f55a4539eb0901324eb3cb578b763c230d1d54e0cb3855b"
      ],
      "is_coinbase": false,
      "sequence": 4261412863
    }
  ],
  "vout": [
    {
      "scriptpubkey": "0014ddd7ef12ea6f78edcc1e8e7afa12c01ab59f3339",
      "scriptpubkey_asm": "OP_0 OP_PUSHBYTES_20 ddd7ef12ea6f78edcc1e8e7afa12c01ab59f3339",
      "scriptpubkey_type": "v0_p2wpkh",
      "scriptpubkey_address": "bc1qmht77yh2dauwmnq73ea05ykqr26e7veea8spz6",
      "value": 546
    }
  ],
  "size": 295,
  "weight": 541,
  "fee": 2029,
  "status": {
    "confirmed": true,
    "block_height": 834460,
    "block_hash": "00000000000000000000484a79b643b2524bbce82e5d8a442013fa5b8905ed98",
    "block_time": 1710307468
  },
  "hex": "020000000001013c27aa53bb788d7fa4c35b7623ff7a18dfb471392be8d66d318008dfb4ec86845800000000fffffffd012202000000000000160014ddd7ef12ea6f78edcc1e8e7afa12c01ab59f33390340f7d1bc6de63689f50e4896e5906db0a6f2f0359bbe8bf2d4e418c5f1ce0805dcd4608f93f993a934f96726a6799594d22e4637f73f3531217628edcdae1b4f886e203018dd46632690d45f55a4539eb0901324eb3cb578b763c230d1d54e0cb3855bac0063036f726401010a746578742f706c61696e00367b2270223a226272632d3230222c226f70223a226d696e74222c227469636b223a2261616161222c22616d74223a223130303030227d6821c13018dd46632690d45f55a4539eb0901324eb3cb578b763c230d1d54e0cb3855b00000000"
}