{
  "txid": "0e8dfbe308483b9b6397f3e773313be0dfd1533a2fa613bc09af5aaf872fa816",
  "version": 1,
  "locktime": 0,
  "vin": [
    {
      "txid": "96bb2170a17a30248308e81a915656db0d6733831126b9894b2ffc598de39a72",
      "vout": 19,
      "prevout": {
        "scriptpubkey": "51203d3e36335ec050a4383968e44633446b73279310ef0e13a67722de9628773ee0",
        "scriptpubkey_asm": "OP_PUSHNUM_1 OP_PUSHBYTES_32 3d3e36335ec050a4383968e44633446b73279310ef0e13a67722de9628773ee0",
        "scriptpubkey_type": "v1_p2tr",
        "scriptpubkey_address": "bc1p85lrvv67cpg2gwpedrjyvv6yddej0ycsau8p8fnhyt0fv2rh8msqzpr7h8",
        "value": 2759
      },
      "scriptsig": "",
      "scriptsig_asm": "",
      "witness": [
        "7e7fd2640fab5b1faf6e4aaaeb716291ddb5a0f48a062202dc25ec7da7f20b4294c4e05ba08ad7f102cae9d0105ec661fdbd06d4f265bd323c83d2036cef4940",
        "20f62780a9e4239811809cd77143c95c8823bcb0410e5a945cad71bfd1049884b3ac0063036f7264010118746578742f706c61696e3b636861727365743d7574662d3800407b2270223a226272632d3230222c226f70223a226d696e74222c227469636b223a2242494241222c22616d74223a22343230343230363930363930362e39227d68",
        "c1f62780a9e4239811809cd77143c95c8823bcb0410e5a945cad71bfd1049884b3"
      ],
      "is_coinbase": false,
      "sequence": 4294967293
    }
  ],
  "vout": [
    {
      "scriptpubkey": "00146d37601965cb1b6763ab5d3ffb0670679025e6ac",
      "scriptpubkey_asm": "OP_0 OP_PUSHBYTES_20 6d37601965cb1b6763ab5d3ffb0670679025e6ac",
      "scriptpubkey_type": "v0_p2wpkh",
      "scriptpubkey_address": "bc1qd5mkqxt9evdkwcatt5llkpnsv7gzte4ve5ex54",
      "value": 294
    }
  ],
  "size": 319,
  "weight": 565,
  "fee": 2465,
  "status": {
    "confirmed": true,
    "block_height": 834460,
    "block_hash": "00000000000000000000484a79b643b2524bbce82e5d8a442013fa5b8905ed98",
    "block_time": 1710307468
  },
  "hex": "01000000000101729ae38d59fc2f4b89b926118333670ddb5656911ae8088324307aa17021bb961300000000fdffffff0126010000000000001600146d37601965cb1b6763ab5d3ffb0670679025e6ac03407e7fd2640fab5b1faf6e4aaaeb716291ddb5a0f48a062202dc25ec7da7f20b4294c4e05ba08ad7f102cae9d0105ec661fdbd06d4f265bd323c83d2036cef49408620f62780a9e4239811809cd77143c95c8823bcb0410e5a945cad71bfd1049884b3ac0063036f7264010118746578742f706c61696e3b636861727365743d7574662d3800407b2270223a226272632d3230222c226f70223a226d696e74222c227469636b223a2242494241222c22616d74223a22343230343230363930363930362e39227d6821c1f62780a9e4239811809cd77143c95c8823bcb0410e5a945cad71bfd1049884b300000000"
}