{
  "txid": "0e91714cc5efd828292f4245ef9875853fa464a5ac6400816652da269d36dda3",
  "version": 2,
  "locktime": 0,
  "vin": [
    {
      "txid": "65d249fa9930b31c192034e7f039e51c17e0a5ce9470adad12eb2b1dbef5a080",
      "vout": 0,
      "prevout": {
        "scriptpubkey": "5120dea2b15282ed13334cae86a6919409c17d37182b0fab11d7bef7c0a97bac3979",
        "scriptpubkey_asm": "OP_PUSHNUM_1 OP_PUSHBYTES_32 dea2b15282ed13334cae86a6919409c17d37182b0fab11d7bef7c0a97bac3979",
        "scriptpubkey_type": "v1_p2tr",
        "scriptpubkey_address": "bc1pm63tz55za5fnxn9ws6nfr9qfc97nwxptp743r4a77lq2j7av89us6kx8ex",
        "value": 3130
      },
      "scriptsig": "",
      "scriptsig_asm": "",
      "witness": [
        "29df8cf5158dbd44801e5bd9070a7d802b07196072f74c6a37ac7a407a52ecad8878734c172ae1ebc6c1bd50f49760f4fdb65a11d238e70824a5eab79c0f6e29",
        "20de6fb788179f3a85d15bbf424dd46a8cbef4905d3164f87fab48ecbeb05e9953ac0063036f7264010118746578742f706c61696e3b636861727365743d7574662d38003a7b2270223a226272632d3230222c226f70223a227472616e73666572222c227469636b223a2239353237222c22616d74223a223530303030227d68",
        "c1de6fb788179f3a85d15bbf424dd46a8cbef4905d3164f87fab48ecbeb05e9953"
      ],
      "is_coinbase": false,
      "sequence": 4294967293
    }
  ],
  "vout": [
    {
      "scriptpubkey": "5120be951788baf076e486e6ebe0f82a1b7f77bf92114a50453d94fe02d9746e2b1e",
      "scriptpubkey_asm": "OP_PUSHNUM_1 OP_PUSHBYTES_32 be951788baf076e486e6ebe0f82a1b7f77bf92114a50453d94fe02d9746e2b1e",
      "scriptpubkey_type": "v1_p2tr",
      "scriptpubkey_address": "bc1ph6230z967pmwfphxa0s0s2sm0ammlys3ffgy20v5lcpdjarw9v0q8ssywx",
      "value": 546
    }
  ],
  "size": 325,
  "weight": 607,
  "fee": 2584,
  "status": {
    "confirmed": true,
    "block_height": 834638,
    "block_hash": "000000000000000000025f742c626208ac87e0b7d15054abb4a19ca2d735a54e",
    "block_time": 1710405325
  },
  "hex": "0200000000010180a0f5be1d2beb12adad7094cea5e0171ce539f0e73420191cb33099fa49d2650000000000fdffffff012202000000000000225120be951788baf076e486e6ebe0f82a1b7f77bf92114a50453d94fe02d9746e2b1e034029df8cf5158dbd44801e5bd9070a7d802b07196072f74c6a37ac7a407a52ecad8878734c172ae1ebc6c1bd50f49760f4fdb65a11d238e70824a5eab79c0f6e298020de6fb788179f3a85d15bbf424dd46a8cbef4905d3164f87fab48ecbeb05e9953ac0063036f7264010118746578742f706c61696e3b636861727365743d7574662d38003a7b2270223a226272632d3230222c226f70223a227472616e73666572222c227469636b223a2239353237222c22616d74223a223530303030227d6821c1de6fb788179f3a85d15bbf424dd46a8cbef4905d3164f87fab48ecbeb05e995300000000"
}