{
  "txid": "0e994bce6fbb521a1a97a67717e318fe863699d7b3972021588aab9b99ba4e64",
  "version": 1,
  "locktime": 0,
  "vin": [
    {
      "txid": "a640b5f46f1381b321430a48889c43a583e5b973e23e1309cb93719500e5cbbd",
      "vout": 0,
      "prevout": {
        "scriptpubkey": "00141c6977423aa4b82a0d7f8496cdf3fc2f8b4f580c",
        "scriptpubkey_asm": "OP_0 OP_PUSHBYTES_20 1c6977423aa4b82a0d7f8496cdf3fc2f8b4f580c",
        "scriptpubkey_type": "v0_p2wpkh",
        "scriptpubkey_address": "bc1qr35hws365juz5rtlsjtvmulu97957kqvr3zpw3",
        "value": 88292527
      },
      "scriptsig": "",
      "scriptsig_asm": "",
      "witness": [
        "3045022100d3200a85849cce1551a28ccf6cc722efd99bc1d1ee2eab4bd1c24239cd85b830022075efafdf4638bbbd440c216264165f9c42339ef793eaea2d7d3d09d0a6cfd9f501",
        "02084ad9ff2a070ef71f32375ff91e5f98448afc62bfb5934c3c15b4348cf11df7"
      ],
      "is_coinbase": false,
      "sequence": 4294967293
    }
  ],
  "vout": [
    {
      "scriptpubkey": "00141c6977423aa4b82a0d7f8496cdf3fc2f8b4f580c",
      "scriptpubkey_asm": "OP_0 OP_PUSHBYTES_20 1c6977423aa4b82a0d7f8496cdf3fc2f8b4f580c",
      "scriptpubkey_type": "v0_p2wpkh",
      "scriptpubkey_address": "bc1qr35hws365juz5rtlsjtvmulu97957kqvr3zpw3",
      "value": 86978396
    },
    {
      "scriptpubkey": "001438c09ccfe3c0d0c6f3638482b802ea03b56ced3f",
      "scriptpubkey_asm": "OP_0 OP_PUSHBYTES_20 38c09ccfe3c0d0c6f3638482b802ea03b56ced3f",
      "scriptpubkey_type": "v0_p2wpkh",
      "scriptpubkey_address": "bc1q8rqfenlrcrgvdumrsjptsqh2qw6kemfl5aj2me",
      "value": 476237
    },
    {
      "scriptpubkey": "a914ce1ea224549d5daf620c5ba770ae17cc784b692587",
      "scriptpubkey_asm": "OP_HASH160 OP_PUSHBYTES_20 ce1ea224549d5daf620c5ba770ae17cc784b6925 OP_EQUAL",
      "scriptpubkey_type": "p2sh",
      "scriptpubkey_address": "3LUspWDGbfKWCaRjUhXt8tCGneLFrxUP1p",
      "value": 287153
    },
    {
      "scriptpubkey": "a9148b68148ca34c50ed8d3a75785621664fe17d617187",
      "scriptpubkey_asm": "OP_HASH160 OP_PUSHBYTES_20 8b68148ca34c50ed8d3a75785621664fe17d6171 OP_EQUAL",
      "scriptpubkey_type": "p2sh",
      "scriptpubkey_address": "3EQ8XqDjScBrXhHRcJ8qab34YnCqp5EbFM",
      "value": 150455
    },
    {
      "scriptpubkey": "0014bda1015132d86b47b7650b2a91649a1a437f270f",
      "scriptpubkey_asm": "OP_0 OP_PUSHBYTES_20 bda1015132d86b47b7650b2a91649a1a437f270f",
      "scriptpubkey_type": "v0_p2wpkh",
      "scriptpubkey_address": "bc1qhkssz5fjmp450dm9pv4fzey6rfph7fc0q3ypq0",
      "value": 136120
    },
    {
      "scriptpubkey": "a914e205b2529779dec881a6710f0f77505213b2d30d87",
      "scriptpubkey_asm": "OP_HASH160 OP_PUSHBYTES_20 e205b2529779dec881a6710f0f77505213b2d30d OP_EQUAL",
      "scriptpubkey_type": "p2sh",
      "scriptpubkey_address": "3NJ7ThgbY88TbKZ2eP3Xg97PTN8ornapCz",
      "value": 133147
    },
    {
      "scriptpubkey": "002063ea09d62b4def81e333173e96de1a0725a1f3b76c053a814ca479068a701ab5",
      "scriptpubkey_asm": "OP_0 OP_PUSHBYTES_32 63ea09d62b4def81e333173e96de1a0725a1f3b76c053a814ca479068a701ab5",
      "scriptpubkey_type": "v0_p2wsh",
      "scriptpubkey_address": "bc1qv04qn43tfhhcrcenzulfdhs6quj6ruahdszn4q2v53usdznsr26svrm7az",
      "value": 119412
    }
  ],
  "size": 393,
  "weight": 1242,
  "fee": 11607,
  "status": {
    "confirmed": true,
    "block_height": 834638,
    "block_hash": "000000000000000000025f742c626208ac87e0b7d15054abb4a19ca2d735a54e",
    "block_time": 1710405325
  },
  "hex": "01000000000101bdcbe500957193cb09133ee273b9e583a5439c88480a4321b381136ff4b540a60000000000fdffffff075c2f2f05000000001600141c6977423aa4b82a0d7f8496cdf3fc2f8b4f580c4d4407000000000016001438c09ccfe3c0d0c6f3638482b802ea03b56ced3fb16104000000000017a914ce1ea224549d5daf620c5ba770ae17cc784b692587b74b02000000000017a9148b68148ca34c50ed8d3a75785621664fe17d617187b813020000000000160014bda1015132d86b47b7650b2a91649a1a437f270f1b0802000000000017a914e205b2529779dec881a6710f0f77505213b2d30d8774d201000000000022002063ea09d62b4def81e333173e96de1a0725a1f3b76c053a814ca479068a701ab502483045022100d3200a85849cce1551a28ccf6cc722efd99bc1d1ee2eab4bd1c24239cd85b830022075efafdf4638bbbd440c216264165f9c42339ef793eaea2d7d3d09d0a6cfd9f5012102084ad9ff2a070ef71f32375ff91e5f98448afc62bfb5934c3c15b4348cf11df700000000"
}