{
  "txid": "0eb252c01c7a74e104b664fe14a99b6d6fc4ef5b9eb22a4deb6708030bb993ae",
  "version": 2,
  "locktime": 0,
  "vin": [
    {
      "txid": "c9721056171cfc929a30b7d99f5fc25e8d33f310572a912e700d8abdf0487190",
      "vout": 0,
      "prevout": {
        "scriptpubkey": "0014d56134d8a3699b96e7876bb5cce6241e98d6aaed",
        "scriptpubkey_asm": "OP_0 OP_PUSHBYTES_20 d56134d8a3699b96e7876bb5cce6241e98d6aaed",
        "scriptpubkey_type": "v0_p2wpkh",
        "scriptpubkey_address": "bc1q64snfk9rdxdedeu8dw6uee3yr6vdd2hd9v6zfm",
        "value": 1284882
      },
      "scriptsig": "",
      "scriptsig_asm": "",
      "witness": [
        "3045022100867b6fc04f57578b7172d96671af8b42d672b509223ace4fc3980d841dfb7529022004b1b29513e22c6c76ae3a3bdacbb83e9210c0136cffe7d4f70f9f6e8f2ea30c01",
        "03aebbc56a6cd569f43f93c4aca6efbfece80b401a17edbf6f760659cc14c5f06e"
      ],
      "is_coinbase": false,
      "sequence": 4294967295
    }
  ],
  "vout": [
    {
      "scriptpubkey": "0014d56134d8a3699b96e7876bb5cce6241e98d6aaed",
      "scriptpubkey_asm": "OP_0 OP_PUSHBYTES_20 d56134d8a3699b96e7876bb5cce6241e98d6aaed",
      "scriptpubkey_type": "v0_p2wpkh",
      "scriptpubkey_address": "bc1q64snfk9rdxdedeu8dw6uee3yr6vdd2hd9v6zfm",
      "value": 1202899
    },
    {
      "scriptpubkey": "0014b293d7b9d424b1d432027723fbe823ae5ae3ccf5",
      "scriptpubkey_asm": "OP_0 OP_PUSHBYTES_20 b293d7b9d424b1d432027723fbe823ae5ae3ccf5",
      "scriptpubkey_type": "v0_p2wpkh",
      "scriptpubkey_address": "bc1qk2fa0ww5yjcagvszwu3lh6pr4edw8n84uvh2wz",
      "value": 79251
    }
  ],
  "size": 223,
  "weight": 562,
  "fee": 2732,
  "status": {
    "confirmed": true,
    "block_height": 834638,
    "block_hash": "000000000000000000025f742c626208ac87e0b7d15054abb4a19ca2d735a54e",
    "block_time": 1710405325
  },
  "hex": "02000000000101907148f0bd8a0d702e912a5710f3338d5ec25f9fd9b7309a92fc1c17561072c90000000000ffffffff02d35a120000000000160014d56134d8a3699b96e7876bb5cce6241e98d6aaed9335010000000000160014b293d7b9d424b1d432027723fbe823ae5ae3ccf502483045022100867b6fc04f57578b7172d96671af8b42d672b509223ace4fc3980d841dfb7529022004b1b29513e22c6c76ae3a3bdacbb83e9210c0136cffe7d4f70f9f6e8f2ea30c012103aebbc56a6cd569f43f93c4aca6efbfece80b401a17edbf6f760659cc14c5f06e00000000"
}