{
  "txid": "0eb6f127f2eb7771f5e1cadf9e54064d1791d9b992b7b6afc78923e123ab44cb",
  "version": 2,
  "locktime": 0,
  "vin": [
    {
      "txid": "f825106b72d066e38ef356460221a52ae731575526a3b056957abf2ef238b812",
      "vout": 0,
      "prevout": {
        "scriptpubkey": "51207589a7e6a151c4a8ac636c98855fd8a04199b6a750e79a08bcab2f5c6cd07e80",
        "scriptpubkey_asm": "OP_PUSHNUM_1 OP_PUSHBYTES_32 7589a7e6a151c4a8ac636c98855fd8a04199b6a750e79a08bcab2f5c6cd07e80",
        "scriptpubkey_type": "v1_p2tr",
        "scriptpubkey_address": "bc1pwky60e4p28z23trrdjvg2h7c5pqend482rne5z9u4vh4cmxs06qq2rxeq9",
        "value": 600
      },
      "scriptsig": "",
      "scriptsig_asm": "",
      "witness": [
        "82ede7b68a0fb79ac1fdd099c6a000a657ee444d8292c8c4c7588795607448d241e91a4a683ed6c58c05b5f451cbcd49c05f65597874445c5d1f6d9ce78d9fb6"
      ],
      "is_coinbase": false,
      "sequence": 4294967295
    },
    {
      "txid": "f825106b72d066e38ef356460221a52ae731575526a3b056957abf2ef238b812",
      "vout": 1,
      "prevout": {
        "scriptpubkey": "51207589a7e6a151c4a8ac636c98855fd8a04199b6a750e79a08bcab2f5c6cd07e80",
        "scriptpubkey_asm": "OP_PUSHNUM_1 OP_PUSHBYTES_32 7589a7e6a151c4a8ac636c98855fd8a04199b6a750e79a08bcab2f5c6cd07e80",
        "scriptpubkey_type": "v1_p2tr",
        "scriptpubkey_address": "bc1pwky60e4p28z23trrdjvg2h7c5pqend482rne5z9u4vh4cmxs06qq2rxeq9",
        "value": 600
      },
      "scriptsig": "",
      "scriptsig_asm": "",
      "witness": [
        "4beaa565fc31c56472fddd18aa714a4d9a95138a4f9df21a4924bb3947b08b9c50dc6ecdebbe92d543606169e2c6d0d2e8b5befb223a1b569d68cab643a96fa8"
      ],
      "is_coinbase": false,
      "sequence": 4294967295
    },
    {
      "txid": "f727f657dd9941a4b6fb6222121cbbbbe027a2b264842fa7503444ec4af1c757",
      "vout": 0,
      "prevout": {
        "scriptpubkey": "51202a727244c4f77d6226fdfae05e1e543d962cf89663318643067c0abe32b431f0",
        "scriptpubkey_asm": "OP_PUSHNUM_1 OP_PUSHBYTES_32 2a727244c4f77d6226fdfae05e1e543d962cf89663318643067c0abe32b431f0",
        "scriptpubkey_type": "v1_p2tr",
        "scriptpubkey_address": "bc1p9fe8y3xy7a7kyfhalts9u8j58ktze7ykvvccvscx0s9tuv45x8cquyrhvk",
        "value": 546
      },
      "scriptsig": "",
      "scriptsig_asm": "",
      "witness": [
        "7b859d5d38acacd3a90228693f87607465bcc15a1ca2dc011681c765f9e3bc33277830419ea854cb6682723c6fdbd5bb7b79c5d2e3c1e04f725cf04d4a906ee083"
      ],
      "is_coinbase": false,
      "sequence": 4294967295
    },
    {
      "txid": "f825106b72d066e38ef356460221a52ae731575526a3b056957abf2ef238b812",
      "vout": 2,
      "prevout": {
        "scriptpubkey": "51207589a7e6a151c4a8ac636c98855fd8a04199b6a750e79a08bcab2f5c6cd07e80",
        "scriptpubkey_asm": "OP_PUSHNUM_1 OP_PUSHBYTES_32 7589a7e6a151c4a8ac636c98855fd8a04199b6a750e79a08bcab2f5c6cd07e80",
        "scriptpubkey_type": "v1_p2tr",
        "scriptpubkey_address": "bc1pwky60e4p28z23trrdjvg2h7c5pqend482rne5z9u4vh4cmxs06qq2rxeq9",
        "value": 443033
      },
      "scriptsig": "",
      "scriptsig_asm": "",
      "witness": [
        "ce3271d0be8c0aa56f0c6a96c45b5a9e7b895ea6a163c865a717564cedc8db28cb22997e021aa1ce2aea299afc2f5ea7eae77fb2489f56d2b9284b47bcc48cfc"
      ],
      "is_coinbase": false,
      "sequence": 4294967295
    }
  ],
  "vout": [
    {
      "scriptpubkey": "51207589a7e6a151c4a8ac636c98855fd8a04199b6a750e79a08bcab2f5c6cd07e80",
      "scriptpubkey_asm": "OP_PUSHNUM_1 OP_PUSHBYTES_32 7589a7e6a151c4a8ac636c98855fd8a04199b6a750e79a08bcab2f5c6cd07e80",
      "scriptpubkey_type": "v1_p2tr",
      "scriptpubkey_address": "bc1pwky60e4p28z23trrdjvg2h7c5pqend482rne5z9u4vh4cmxs06qq2rxeq9",
      "value": 1200
    },
    {
      "scriptpubkey": "51207589a7e6a151c4a8ac636c98855fd8a04199b6a750e79a08bcab2f5c6cd07e80",
      "scriptpubkey_asm": "OP_PUSHNUM_1 OP_PUSHBYTES_32 7589a7e6a151c4a8ac636c98855fd8a04199b6a750e79a08bcab2f5c6cd07e80",
      "scriptpubkey_type": "v1_p2tr",
      "scriptpubkey_address": "bc1pwky60e4p28z23trrdjvg2h7c5pqend482rne5z9u4vh4cmxs06qq2rxeq9",
      "value": 546
    },
    {
      "scriptpubkey": "51202a727244c4f77d6226fdfae05e1e543d962cf89663318643067c0abe32b431f0",
      "scriptpubkey_asm": "OP_PUSHNUM_1 OP_PUSHBYTES_32 2a727244c4f77d6226fdfae05e1e543d962cf89663318643067c0abe32b431f0",
      "scriptpubkey_type": "v1_p2tr",
      "scriptpubkey_address": "bc1p9fe8y3xy7a7kyfhalts9u8j58ktze7ykvvccvscx0s9tuv45x8cquyrhvk",
      "value": 250000
    },
    {
      "scriptpubkey": "51207589a7e6a151c4a8ac636c98855fd8a04199b6a750e79a08bcab2f5c6cd07e80",
      "scriptpubkey_asm": "OP_PUSHNUM_1 OP_PUSHBYTES_32 7589a7e6a151c4a8ac636c98855fd8a04199b6a750e79a08bcab2f5c6cd07e80",
      "scriptpubkey_type": "v1_p2tr",
      "scriptpubkey_address": "bc1pwky60e4p28z23trrdjvg2h7c5pqend482rne5z9u4vh4cmxs06qq2rxeq9",
      "value": 600
    },
    {
      "scriptpubkey": "51207589a7e6a151c4a8ac636c98855fd8a04199b6a750e79a08bcab2f5c6cd07e80",
      "scriptpubkey_asm": "OP_PUSHNUM_1 OP_PUSHBYTES_32 7589a7e6a151c4a8ac636c98855fd8a04199b6a750e79a08bcab2f5c6cd07e80",
      "scriptpubkey_type": "v1_p2tr",
      "scriptpubkey_address": "bc1pwky60e4p28z23trrdjvg2h7c5pqend482rne5z9u4vh4cmxs06qq2rxeq9",
      "value": 600
    },
    {
      "scriptpubkey": "51207589a7e6a151c4a8ac636c98855fd8a04199b6a750e79a08bcab2f5c6cd07e80",
      "scriptpubkey_asm": "OP_PUSHNUM_1 OP_PUSHBYTES_32 7589a7e6a151c4a8ac636c98855fd8a04199b6a750e79a08bcab2f5c6cd07e80",
      "scriptpubkey_type": "v1_p2tr",
      "scriptpubkey_address": "bc1pwky60e4p28z23trrdjvg2h7c5pqend482rne5z9u4vh4cmxs06qq2rxeq9",
      "value": 186344
    }
  ],
  "size": 699,
  "weight": 1995,
  "fee": 5489,
  "status": {
    "confirmed": true,
    "block_height": 834464,
    "block_hash": "0000000000000000000177a0869a911a2b65c9bdcd5a8bcb02b68f305bee848e",
    "block_time": 1710308296
  },
  "hex": "0200000000010412b838f22ebf7a9556b0a326555731e72aa521024656f38ee366d0726b1025f80000000000ffffffff12b838f22ebf7a9556b0a326555731e72aa521024656f38ee366d0726b1025f80100000000ffffffff57c7f14aec443450a72f8464b2a227e0bbbb1c122262fbb6a44199dd57f627f70000000000ffffffff12b838f22ebf7a9556b0a326555731e72aa521024656f38ee366d0726b1025f80200000000ffffffff06b0040000000000002251207589a7e6a151c4a8ac636c98855fd8a04199b6a750e79a08bcab2f5c6cd07e8022020000000000002251207589a7e6a151c4a8ac636c98855fd8a04199b6a750e79a08bcab2f5c6cd07e8090d00300000000002251202a727244c4f77d6226fdfae05e1e543d962cf89663318643067c0abe32b431f058020000000000002251207589a7e6a151c4a8ac636c98855fd8a04199b6a750e79a08bcab2f5c6cd07e8058020000000000002251207589a7e6a151c4a8ac636c98855fd8a04199b6a750e79a08bcab2f5c6cd07e80e8d70200000000002251207589a7e6a151c4a8ac636c98855fd8a04199b6a750e79a08bcab2f5c6cd07e80014082ede7b68a0fb79ac1fdd099c6a000a657ee444d8292c8c4c7588795607448d241e91a4a683ed6c58c05b5f451cbcd49c05f65597874445c5d1f6d9ce78d9fb601404beaa565fc31c56472fddd18aa714a4d9a95138a4f9df21a4924bb3947b08b9c50dc6ecdebbe92d543606169e2c6d0d2e8b5befb223a1b569d68cab643a96fa801417b859d5d38acacd3a90228693f87607465bcc15a1ca2dc011681c765f9e3bc33277830419ea854cb6682723c6fdbd5bb7b79c5d2e3c1e04f725cf04d4a906ee0830140ce3271d0be8c0aa56f0c6a96c45b5a9e7b895ea6a163c865a717564cedc8db28cb22997e021aa1ce2aea299afc2f5ea7eae77fb2489f56d2b9284b47bcc48cfc00000000"
}