{
  "txid": "0eddf93f24b2d392cda3aed855586f759c118678ab0fdf1339c1a2f0871fef42",
  "version": 2,
  "locktime": 0,
  "vin": [
    {
      "txid": "9d3324c6247091a7a0e9bd19fb1bb0e4084caa75cdf2ade6471068ef3dcbca3f",
      "vout": 0,
      "prevout": {
        "scriptpubkey": "5120a3795cbf8adb1b82674e61a942e2496ee102054c73f4d247a4e4ce77c6019b08",
        "scriptpubkey_asm": "OP_PUSHNUM_1 OP_PUSHBYTES_32 a3795cbf8adb1b82674e61a942e2496ee102054c73f4d247a4e4ce77c6019b08",
        "scriptpubkey_type": "v1_p2tr",
        "scriptpubkey_address": "bc1p5du4e0u2mvdcye6wvx559cjfdmssyp2vw06dy3ayun8803spnvyq6ufcya",
        "value": 60000
      },
      "scriptsig": "",
      "scriptsig_asm": "",
      "witness": [
        "5e99e802c086687be63093b30bd51d731360a2cf2ed06d5b1ccf165c8360cf13f7b28e5be5d318a9a32b35eeaac25abe5d9c646f218e947e5cd36b93743c732a",
        "2060d060fac96035c4a3daab9639f008ade04e918855e7a8fa7d9bbbe826694d5cac0063036f726401011e6170706c69636174696f6e2f6a736f6e3b636861727365743d7574662d38004cbf7b2270223a22706f772d3230222c226f70223a226d696e74222c227469636b223a2250455045222c22616d74223a2231303030222c22736f6c7574696f6e223a22504550453a6263317172713238376168727578703271783033726774706379666a327261786e306175667a646a717a3a303030303030303030303030303030303030303139393431613561653132383937363539383134343239323533333030353762306461393666336465613163353a3130323035383936393933227d68",
        "c1f26df831a413724db8123fd1cb518d6560252685500a3c204e36c4bb2a2cc255"
      ],
      "is_coinbase": false,
      "sequence": 4294967293
    }
  ],
  "vout": [
    {
      "scriptpubkey": "001418147f76e3e182a019f11a161c113250fa69bfbc",
      "scriptpubkey_asm": "OP_0 OP_PUSHBYTES_20 18147f76e3e182a019f11a161c113250fa69bfbc",
      "scriptpubkey_type": "v0_p2wpkh",
      "scriptpubkey_address": "bc1qrq287ahruxp2qx03rgtpcyfj2raxn0aufzdjqz",
      "value": 546
    },
    {
      "scriptpubkey": "5120cd3434958207f9f49b04c685594b5b119981e15e849a9c4bfc7f14923ea4b4e0",
      "scriptpubkey_asm": "OP_PUSHNUM_1 OP_PUSHBYTES_32 cd3434958207f9f49b04c685594b5b119981e15e849a9c4bfc7f14923ea4b4e0",
      "scriptpubkey_type": "v1_p2tr",
      "scriptpubkey_address": "bc1pe56rf9vzqlulfxcyc6z4jj6mzxvcrc27sjdfcjlu0u2fy04yknsqvqpm2l",
      "value": 2834
    },
    {
      "scriptpubkey": "51201edb8c769d129d0a4b87e1b216349808bb98907e391163dd531ffc5e54ccb975",
      "scriptpubkey_asm": "OP_PUSHNUM_1 OP_PUSHBYTES_32 1edb8c769d129d0a4b87e1b216349808bb98907e391163dd531ffc5e54ccb975",
      "scriptpubkey_type": "v1_p2tr",
      "scriptpubkey_address": "bc1prmdcca5az2ws5ju8uxepvdycpzae3yr78ygk8h2nrl79u4xvh96sc5cx4v",
      "value": 2834
    },
    {
      "scriptpubkey": "5120d6df2fc86005dffc804a43af8f5036d6f776eb58dda36a5cdfee9cf06603c563",
      "scriptpubkey_asm": "OP_PUSHNUM_1 OP_PUSHBYTES_32 d6df2fc86005dffc804a43af8f5036d6f776eb58dda36a5cdfee9cf06603c563",
      "scriptpubkey_type": "v1_p2tr",
      "scriptpubkey_address": "bc1p6m0jljrqqh0leqz2gwhc75pk6mmhd66cmk3k5hxla6w0qesrc43ssjk2qc",
      "value": 2834
    },
    {
      "scriptpubkey": "5120b5fafc08b600af5a22ff42607ac4e1e8d1ae17be9d529c1a6e37f01d3fbc5280",
      "scriptpubkey_asm": "OP_PUSHNUM_1 OP_PUSHBYTES_32 b5fafc08b600af5a22ff42607ac4e1e8d1ae17be9d529c1a6e37f01d3fbc5280",
      "scriptpubkey_type": "v1_p2tr",
      "scriptpubkey_address": "bc1pkha0cz9kqzh45ghlgfs8438parg6u9a7n4ffcxnwxlcp60au22qq7362yp",
      "value": 2834
    },
    {
      "scriptpubkey": "5120b95f04a088b04bc6b9e6bc288afc8c06c79f1c521b6db41f28cf6c22b922a793",
      "scriptpubkey_asm": "OP_PUSHNUM_1 OP_PUSHBYTES_32 b95f04a088b04bc6b9e6bc288afc8c06c79f1c521b6db41f28cf6c22b922a793",
      "scriptpubkey_type": "v1_p2tr",
      "scriptpubkey_address": "bc1ph90sfgygkp9udw0xhs5g4lyvqmre78zjrdkmg8egeakz9wfz57fselnck5",
      "value": 2821
    },
    {
      "scriptpubkey": "5120014a68891cfebcd106724b0c1640f432d8a03b7ae040797126301e34558acf0f",
      "scriptpubkey_asm": "OP_PUSHNUM_1 OP_PUSHBYTES_32 014a68891cfebcd106724b0c1640f432d8a03b7ae040797126301e34558acf0f",
      "scriptpubkey_type": "v1_p2tr",
      "scriptpubkey_address": "bc1pq99x3zgul67dzpnjfvxpvs85xtv2qwm6upq8jufxxq0rg4v2eu8sczl7mh",
      "value": 2834
    },
    {
      "scriptpubkey": "5120f07085138d1d8291b989d9c5c8961b21221b83bbcc866480d4164de86a667566",
      "scriptpubkey_asm": "OP_PUSHNUM_1 OP_PUSHBYTES_32 f07085138d1d8291b989d9c5c8961b21221b83bbcc866480d4164de86a667566",
      "scriptpubkey_type": "v1_p2tr",
      "scriptpubkey_address": "bc1p7pcg2yudrkpfrwvfm8zu39smyy3phqamejrxfqx5zex7s6nxw4nqw76v2e",
      "value": 2834
    },
    {
      "scriptpubkey": "5120f130d4ece11a55a88053c7068144cb54ff54e2e92f8c73a7a20bc6d33e282f7b",
      "scriptpubkey_asm": "OP_PUSHNUM_1 OP_PUSHBYTES_32 f130d4ece11a55a88053c7068144cb54ff54e2e92f8c73a7a20bc6d33e282f7b",
      "scriptpubkey_type": "v1_p2tr",
      "scriptpubkey_address": "bc1p7ycdfm8prf263qzncurgz3xt2nl4fchf97x88fazp0rdx03g9aaswcff82",
      "value": 2834
    },
    {
      "scriptpubkey": "5120fbf15487f8e0d1a083f366d66304e862e9f741339c2074c3077ff25aed969f41",
      "scriptpubkey_asm": "OP_PUSHNUM_1 OP_PUSHBYTES_32 fbf15487f8e0d1a083f366d66304e862e9f741339c2074c3077ff25aed969f41",
      "scriptpubkey_type": "v1_p2tr",
      "scriptpubkey_address": "bc1pl0c4fplcurg6pqlnvmtxxp8gvt5lwsfnnss8fsc80le94mvknaqsu7r8mf",
      "value": 2821
    },
    {
      "scriptpubkey": "512057d797cd068eaad458775da78d4f6688dec5fbbd0f454d4416d72542f970b1de",
      "scriptpubkey_asm": "OP_PUSHNUM_1 OP_PUSHBYTES_32 57d797cd068eaad458775da78d4f6688dec5fbbd0f454d4416d72542f970b1de",
      "scriptpubkey_type": "v1_p2tr",
      "scriptpubkey_address": "bc1p2lte0ngx364dgkrhtknc6nmx3r0vt7aapaz563qk6uj597tsk80qlhu9cw",
      "value": 2821
    },
    {
      "scriptpubkey": "0014ba55807557b5d1f4d5c72a0b00580330f3e2927c",
      "scriptpubkey_asm": "OP_0 OP_PUSHBYTES_20 ba55807557b5d1f4d5c72a0b00580330f3e2927c",
      "scriptpubkey_type": "v0_p2wpkh",
      "scriptpubkey_address": "bc1qhf2cqa2hkhglf4w89g9sqkqrxre79ynuw76lud",
      "value": 22872
    }
  ],
  "size": 916,
  "weight": 2545,
  "fee": 8281,
  "status": {
    "confirmed": true,
    "block_height": 834460,
    "block_hash": "00000000000000000000484a79b643b2524bbce82e5d8a442013fa5b8905ed98",
    "block_time": 1710307468
  },
  "hex": "020000000001013fcacb3def681047e6adf2cd75aa4c08e4b01bfb19bde9a0a7917024c624339d0000000000fdffffff0c220200000000000016001418147f76e3e182a019f11a161c113250fa69bfbc120b000000000000225120cd3434958207f9f49b04c685594b5b119981e15e849a9c4bfc7f14923ea4b4e0120b0000000000002251201edb8c769d129d0a4b87e1b216349808bb98907e391163dd531ffc5e54ccb975120b000000000000225120d6df2fc86005dffc804a43af8f5036d6f776eb58dda36a5cdfee9cf06603c563120b000000000000225120b5fafc08b600af5a22ff42607ac4e1e8d1ae17be9d529c1a6e37f01d3fbc5280050b000000000000225120b95f04a088b04bc6b9e6bc288afc8c06c79f1c521b6db41f28cf6c22b922a793120b000000000000225120014a68891cfebcd106724b0c1640f432d8a03b7ae040797126301e34558acf0f120b000000000000225120f07085138d1d8291b989d9c5c8961b21221b83bbcc866480d4164de86a667566120b000000000000225120f130d4ece11a55a88053c7068144cb54ff54e2e92f8c73a7a20bc6d33e282f7b050b000000000000225120fbf15487f8e0d1a083f366d66304e862e9f741339c2074c3077ff25aed969f41050b00000000000022512057d797cd068eaad458775da78d4f6688dec5fbbd0f454d4416d72542f970b1de5859000000000000160014ba55807557b5d1f4d5c72a0b00580330f3e2927c03405e99e802c086687be63093b30bd51d731360a2cf2ed06d5b1ccf165c8360cf13f7b28e5be5d318a9a32b35eeaac25abe5d9c646f218e947e5cd36b93743c732afd0c012060d060fac96035c4a3daab9639f008ade04e918855e7a8fa7d9bbbe826694d5cac0063036f726401011e6170706c69636174696f6e2f6a736f6e3b636861727365743d7574662d38004cbf7b2270223a22706f772d3230222c226f70223a226d696e74222c227469636b223a2250455045222c22616d74223a2231303030222c22736f6c7574696f6e223a22504550453a6263317172713238376168727578703271783033726774706379666a327261786e306175667a646a717a3a303030303030303030303030303030303030303139393431613561653132383937363539383134343239323533333030353762306461393666336465613163353a3130323035383936393933227d6821c1f26df831a413724db8123fd1cb518d6560252685500a3c204e36c4bb2a2cc25500000000"
}