{
  "txid": "0edf9bed57bb4d663c690e17eb20692f0339f337f3c8f881d9834650a38c4b62",
  "version": 2,
  "locktime": 0,
  "vin": [
    {
      "txid": "a7713454e5cddc05ba7be51c7fd6c8cdd1c62b73d018e33c943a9a811c06c37e",
      "vout": 0,
      "prevout": {
        "scriptpubkey": "0014192e80ed2c7c412bdc2a6c8f371d15cb90f3c85b",
        "scriptpubkey_asm": "OP_0 OP_PUSHBYTES_20 192e80ed2c7c412bdc2a6c8f371d15cb90f3c85b",
        "scriptpubkey_type": "v0_p2wpkh",
        "scriptpubkey_address": "bc1qryhgpmfv03qjhhp2dj8nw8g4ewg08jzmgy3cyx",
        "value": 1215400549
      },
      "scriptsig": "",
      "scriptsig_asm": "",
      "witness": [
        "3044022044d41c8da6ed383c5d610f4c24a56919b8693f0a758eb1908d22c837cc7d3fc802206be92b88c2b7862b9b0a4fca99020ac605eec17e7d28e0d612750341b94f42f401",
        "03b01bd095f648ea829f000207087f16622431077bb5cc0875225ada601375c885"
      ],
      "is_coinbase": false,
      "sequence": 4294967293
    }
  ],
  "vout": [
    {
      "scriptpubkey": "0014192e80ed2c7c412bdc2a6c8f371d15cb90f3c85b",
      "scriptpubkey_asm": "OP_0 OP_PUSHBYTES_20 192e80ed2c7c412bdc2a6c8f371d15cb90f3c85b",
      "scriptpubkey_type": "v0_p2wpkh",
      "scriptpubkey_address": "bc1qryhgpmfv03qjhhp2dj8nw8g4ewg08jzmgy3cyx",
      "value": 1214560221
    },
    {
      "scriptpubkey": "0014ebbed0e53aa5e2272b70d6ea25a85927c8167f16",
      "scriptpubkey_asm": "OP_0 OP_PUSHBYTES_20 ebbed0e53aa5e2272b70d6ea25a85927c8167f16",
      "scriptpubkey_type": "v0_p2wpkh",
      "scriptpubkey_address": "bc1qawldpef65h3zw2ms6m4zt2zeylypvlck2q0xep",
      "value": 833842
    }
  ],
  "size": 222,
  "weight": 561,
  "fee": 6486,
  "status": {
    "confirmed": true,
    "block_height": 834638,
    "block_hash": "000000000000000000025f742c626208ac87e0b7d15054abb4a19ca2d735a54e",
    "block_time": 1710405325
  },
  "hex": "020000000001017ec3061c819a3a943ce318d0732bc6d1cdc8d67f1ce57bba05dccde5543471a70000000000fdffffff02ddb7644800000000160014192e80ed2c7c412bdc2a6c8f371d15cb90f3c85b32b90c0000000000160014ebbed0e53aa5e2272b70d6ea25a85927c8167f1602473044022044d41c8da6ed383c5d610f4c24a56919b8693f0a758eb1908d22c837cc7d3fc802206be92b88c2b7862b9b0a4fca99020ac605eec17e7d28e0d612750341b94f42f4012103b01bd095f648ea829f000207087f16622431077bb5cc0875225ada601375c88500000000"
}