{
  "txid": "0ee4922271023cf9b3b86855fe695f05f2dd797294f4b24f7f62f3eff8dfd455",
  "version": 2,
  "locktime": 0,
  "vin": [
    {
      "txid": "b13bb5512a4904c28a6b7957b88edf574e8cb23551fc1dcfe22d6b239df42cf4",
      "vout": 91,
      "prevout": {
        "scriptpubkey": "51204ac3a13c73c5d2165e7edbecf59185ae52bea67b598993c9f4bf16763f8f635e",
        "scriptpubkey_asm": "OP_PUSHNUM_1 OP_PUSHBYTES_32 4ac3a13c73c5d2165e7edbecf59185ae52bea67b598993c9f4bf16763f8f635e",
        "scriptpubkey_type": "v1_p2tr",
        "scriptpubkey_address": "bc1pftp6z0rnchfpvhn7m0k0tyv94eftafnmtxye8j05hut8v0u0vd0qp8x39f",
        "value": 2575
      },
      "scriptsig": "",
      "scriptsig_asm": "",
      "witness": [
        "80a3d0e77c9728875bc4eb2eb0bd57e348ee923db5579d5f1b18f354a9568056ecd8763ba84f5df8efdb9c9eb6c360b32142a77be06c524f67112d3ee6369556",
        "205306b7450da3a777527610c7abb91d9cedbdc3b32758d6d909d1b2f17e16cdefac0063036f726401010a746578742f706c61696e00367b2270223a226272632d3230222c226f70223a226d696e74222c227469636b223a2261616161222c22616d74223a223130303030227d68",
        "c15306b7450da3a777527610c7abb91d9cedbdc3b32758d6d909d1b2f17e16cdef"
      ],
      "is_coinbase": false,
      "sequence": 4261412863
    }
  ],
  "vout": [
    {
      "scriptpubkey": "0014ce0b5aa0dac72397a8aa5a85d90a2cfb46f0f630",
      "scriptpubkey_asm": "OP_0 OP_PUSHBYTES_20 ce0b5aa0dac72397a8aa5a85d90a2cfb46f0f630",
      "scriptpubkey_type": "v0_p2wpkh",
      "scriptpubkey_address": "bc1qec944gx6cu3e0292t2zajz3vldr0pa3sh356d9",
      "value": 546
    }
  ],
  "size": 295,
  "weight": 541,
  "fee": 2029,
  "status": {
    "confirmed": true,
    "block_height": 834464,
    "block_hash": "0000000000000000000177a0869a911a2b65c9bdcd5a8bcb02b68f305bee848e",
    "block_time": 1710308296
  },
  "hex": "02000000000101f42cf49d236b2de2cf1dfc5135b28c4e57df8eb857796b8ac204492a51b53bb15b00000000fffffffd012202000000000000160014ce0b5aa0dac72397a8aa5a85d90a2cfb46f0f630034080a3d0e77c9728875bc4eb2eb0bd57e348ee923db5579d5f1b18f354a9568056ecd8763ba84f5df8efdb9c9eb6c360b32142a77be06c524f67112d3ee63695566e205306b7450da3a777527610c7abb91d9cedbdc3b32758d6d909d1b2f17e16cdefac0063036f726401010a746578742f706c61696e00367b2270223a226272632d3230222c226f70223a226d696e74222c227469636b223a2261616161222c22616d74223a223130303030227d6821c15306b7450da3a777527610c7abb91d9cedbdc3b32758d6d909d1b2f17e16cdef00000000"
}