{
  "txid": "0ee403e1573c2c6566df09638c2e3b753b6756cfa89b60dafbb0ab85280baabc",
  "version": 2,
  "locktime": 0,
  "vin": [
    {
      "txid": "5633960711e0af00c6d8b24406986a77bd0aed3c49d929728d4e44470c679bab",
      "vout": 0,
      "prevout": {
        "scriptpubkey": "51208fa2966ae5ca0100f9f12b4000b72d07578d2c5f34206b551b30c4e612a48430",
        "scriptpubkey_asm": "OP_PUSHNUM_1 OP_PUSHBYTES_32 8fa2966ae5ca0100f9f12b4000b72d07578d2c5f34206b551b30c4e612a48430",
        "scriptpubkey_type": "v1_p2tr",
        "scriptpubkey_address": "bc1p373fv6h9egqsp7039dqqpdedqatc6tzlxssxk4gmxrzwvy4ysscqtphd60",
        "value": 2207
      },
      "scriptsig": "",
      "scriptsig_asm": "",
      "witness": [
        "1e702c41cf2e86ca84f5d354483f6455167a3431c94273bf7077561a2d6dab011fee622c561e1e3c9d6e9d577b959cdae4cbb694ef6f9cd69cafd13b0bc3a3e3",
        "205f763f6d8a11d1f7256766d834b5342d28b1bfb9f812318dba5ed1c690b4ec49ac0063036f7264010118746578742f706c61696e3b636861727365743d7574662d3800357b2270223a226272632d3230222c226f70223a226d696e74222c227469636b223a22626f7473222c22616d74223a2231303030227d68",
        "c05f763f6d8a11d1f7256766d834b5342d28b1bfb9f812318dba5ed1c690b4ec49"
      ],
      "is_coinbase": false,
      "sequence": 4294967293
    }
  ],
  "vout": [
    {
      "scriptpubkey": "512069901183fe376c9f8da07381264c608824664cf8b941f17b0647b957af08b894",
      "scriptpubkey_asm": "OP_PUSHNUM_1 OP_PUSHBYTES_32 69901183fe376c9f8da07381264c608824664cf8b941f17b0647b957af08b894",
      "scriptpubkey_type": "v1_p2tr",
      "scriptpubkey_address": "bc1pdxgprql7xakflrdqwwqjvnrq3qjxvn8ch9qlz7cxg7u40tcghz2qdp5g6a",
      "value": 546
    }
  ],
  "size": 320,
  "weight": 602,
  "fee": 1661,
  "status": {
    "confirmed": true,
    "block_height": 834464,
    "block_hash": "0000000000000000000177a0869a911a2b65c9bdcd5a8bcb02b68f305bee848e",
    "block_time": 1710308296
  },
  "hex": "02000000000101ab9b670c47444e8d7229d9493ced0abd776a980644b2d8c600afe011079633560000000000fdffffff01220200000000000022512069901183fe376c9f8da07381264c608824664cf8b941f17b0647b957af08b89403401e702c41cf2e86ca84f5d354483f6455167a3431c94273bf7077561a2d6dab011fee622c561e1e3c9d6e9d577b959cdae4cbb694ef6f9cd69cafd13b0bc3a3e37b205f763f6d8a11d1f7256766d834b5342d28b1bfb9f812318dba5ed1c690b4ec49ac0063036f7264010118746578742f706c61696e3b636861727365743d7574662d3800357b2270223a226272632d3230222c226f70223a226d696e74222c227469636b223a22626f7473222c22616d74223a2231303030227d6821c05f763f6d8a11d1f7256766d834b5342d28b1bfb9f812318dba5ed1c690b4ec4900000000"
}