{
  "txid": "0eeb328b6ff661f9502104fdef5337cf3b98dcab276811f4d4a0d59c72bc2c74",
  "version": 2,
  "locktime": 0,
  "vin": [
    {
      "txid": "023e40a7e6736c6c57645260f030e269c29067721f2a95fda352041696a67047",
      "vout": 0,
      "prevout": {
        "scriptpubkey": "5120548e2a0677699f618193d5c0eabfc5b4f51d1f8b98bd15d0b17e3f29d22298dd",
        "scriptpubkey_asm": "OP_PUSHNUM_1 OP_PUSHBYTES_32 548e2a0677699f618193d5c0eabfc5b4f51d1f8b98bd15d0b17e3f29d22298dd",
        "scriptpubkey_type": "v1_p2tr",
        "scriptpubkey_address": "bc1p2j8z5pnhdx0krqvn6hqw4079kn6368utnz73t5930cljn53znrwse3qx3f",
        "value": 546
      },
      "scriptsig": "",
      "scriptsig_asm": "",
      "witness": [
        "75a2f2df88cee4bc6b654a6db37c46b6206f2883071c4e0778192e5a858aff2d620aab78be95367b5274d8f0f66c0362dc2e7130e3906a385a356b2457f3e5f7"
      ],
      "is_coinbase": false,
      "sequence": 2147483649
    },
    {
      "txid": "9bfaf7e15c49697f544afc853d1dc0d1f167d957833911d8dd10882c2df9c453",
      "vout": 1,
      "prevout": {
        "scriptpubkey": "5120548e2a0677699f618193d5c0eabfc5b4f51d1f8b98bd15d0b17e3f29d22298dd",
        "scriptpubkey_asm": "OP_PUSHNUM_1 OP_PUSHBYTES_32 548e2a0677699f618193d5c0eabfc5b4f51d1f8b98bd15d0b17e3f29d22298dd",
        "scriptpubkey_type": "v1_p2tr",
        "scriptpubkey_address": "bc1p2j8z5pnhdx0krqvn6hqw4079kn6368utnz73t5930cljn53znrwse3qx3f",
        "value": 35244
      },
      "scriptsig": "",
      "scriptsig_asm": "",
      "witness": [
        "e6e6ebcbac18f3837fa11bb06f89b47d3078125fce3acd5ad83cc0a1dc87c02c688eaa15777037e5381942d96f6fac20df6c016c2c6ed9bdba3eb0470466f588"
      ],
      "is_coinbase": false,
      "sequence": 2147483649
    }
  ],
  "vout": [
    {
      "scriptpubkey": "5120fa2116319924a3fc4601d2032ed6921256838731b82d8bffa0232f2fde7c110b",
      "scriptpubkey_asm": "OP_PUSHNUM_1 OP_PUSHBYTES_32 fa2116319924a3fc4601d2032ed6921256838731b82d8bffa0232f2fde7c110b",
      "scriptpubkey_type": "v1_p2tr",
      "scriptpubkey_address": "bc1plgs3vvveyj3lc3sp6gpja45jzftg8pe3hqkchlaqyvhjlhnuzy9s9kjzf3",
      "value": 546
    },
    {
      "scriptpubkey": "5120548e2a0677699f618193d5c0eabfc5b4f51d1f8b98bd15d0b17e3f29d22298dd",
      "scriptpubkey_asm": "OP_PUSHNUM_1 OP_PUSHBYTES_32 548e2a0677699f618193d5c0eabfc5b4f51d1f8b98bd15d0b17e3f29d22298dd",
      "scriptpubkey_type": "v1_p2tr",
      "scriptpubkey_address": "bc1p2j8z5pnhdx0krqvn6hqw4079kn6368utnz73t5930cljn53znrwse3qx3f",
      "value": 32501
    }
  ],
  "size": 312,
  "weight": 846,
  "fee": 2743,
  "status": {
    "confirmed": true,
    "block_height": 834460,
    "block_hash": "00000000000000000000484a79b643b2524bbce82e5d8a442013fa5b8905ed98",
    "block_time": 1710307468
  },
  "hex": "020000000001024770a696160452a3fd952a1f726790c269e230f0605264576c6c73e6a7403e0200000000000100008053c4f92d2c8810ddd811398357d967f1d1c01d3d85fc4a547f69495ce1f7fa9b010000000001000080022202000000000000225120fa2116319924a3fc4601d2032ed6921256838731b82d8bffa0232f2fde7c110bf57e000000000000225120548e2a0677699f618193d5c0eabfc5b4f51d1f8b98bd15d0b17e3f29d22298dd014075a2f2df88cee4bc6b654a6db37c46b6206f2883071c4e0778192e5a858aff2d620aab78be95367b5274d8f0f66c0362dc2e7130e3906a385a356b2457f3e5f70140e6e6ebcbac18f3837fa11bb06f89b47d3078125fce3acd5ad83cc0a1dc87c02c688eaa15777037e5381942d96f6fac20df6c016c2c6ed9bdba3eb0470466f58800000000"
}