{
  "txid": "0eecc0e8090dc51caf6527fc05b576f94639d172f047d4cde2d56872ce967637",
  "version": 2,
  "locktime": 0,
  "vin": [
    {
      "txid": "55f8f32e03f2f1176dafbd0f5a19b1d00beca33321be454e11762f85910a0732",
      "vout": 0,
      "prevout": {
        "scriptpubkey": "5120cb2750a2b03e9cbab9b616fa874787847fc8f828b84aab71470405a902b76f32",
        "scriptpubkey_asm": "OP_PUSHNUM_1 OP_PUSHBYTES_32 cb2750a2b03e9cbab9b616fa874787847fc8f828b84aab71470405a902b76f32",
        "scriptpubkey_type": "v1_p2tr",
        "scriptpubkey_address": "bc1pevn4pg4s86wt4wdkzmagw3u8s3lu37pghp92ku28qsz6jq4hdueqw4ssrw",
        "value": 1496085
      },
      "scriptsig": "",
      "scriptsig_asm": "",
      "witness": [
        "593720c13f47dfe2cbe41d693bb2fadf286e8bb9ed768615fbf998b80239cdf792bbf49baf597ef16dba0951e4e7dcdef4606bb0a0ff4099bfd710e022a57901"
      ],
      "is_coinbase": false,
      "sequence": 4294967295
    }
  ],
  "vout": [
    {
      "scriptpubkey": "512050a166a87cff55e016cde5b5ee6216f8c9c5fafc77c91af84bc777099573fdc9",
      "scriptpubkey_asm": "OP_PUSHNUM_1 OP_PUSHBYTES_32 50a166a87cff55e016cde5b5ee6216f8c9c5fafc77c91af84bc777099573fdc9",
      "scriptpubkey_type": "v1_p2tr",
      "scriptpubkey_address": "bc1p2zskd2rula27q9kduk67ucsklryut7huwly347ztcamsn9tnlhysafdnh6",
      "value": 78575
    },
    {
      "scriptpubkey": "5120cb2750a2b03e9cbab9b616fa874787847fc8f828b84aab71470405a902b76f32",
      "scriptpubkey_asm": "OP_PUSHNUM_1 OP_PUSHBYTES_32 cb2750a2b03e9cbab9b616fa874787847fc8f828b84aab71470405a902b76f32",
      "scriptpubkey_type": "v1_p2tr",
      "scriptpubkey_address": "bc1pevn4pg4s86wt4wdkzmagw3u8s3lu37pghp92ku28qsz6jq4hdueqw4ssrw",
      "value": 1415200
    }
  ],
  "size": 205,
  "weight": 616,
  "fee": 2310,
  "status": {
    "confirmed": true,
    "block_height": 834638,
    "block_hash": "000000000000000000025f742c626208ac87e0b7d15054abb4a19ca2d735a54e",
    "block_time": 1710405325
  },
  "hex": "0200000000010132070a91852f76114e45be2133a3ec0bd0b1195a0fbdaf6d17f1f2032ef3f8550000000000ffffffff02ef3201000000000022512050a166a87cff55e016cde5b5ee6216f8c9c5fafc77c91af84bc777099573fdc92098150000000000225120cb2750a2b03e9cbab9b616fa874787847fc8f828b84aab71470405a902b76f320140593720c13f47dfe2cbe41d693bb2fadf286e8bb9ed768615fbf998b80239cdf792bbf49baf597ef16dba0951e4e7dcdef4606bb0a0ff4099bfd710e022a5790100000000"
}