{
  "txid": "0eee63cc7561e6909a0215fe338c2271ea5b09ec726abe605b2bf207266600fa",
  "version": 1,
  "locktime": 0,
  "vin": [
    {
      "txid": "21aba62793b68aef1a2ee232e3db245fab0eb6b0c7b7d365aac8564da150aca4",
      "vout": 1,
      "prevout": {
        "scriptpubkey": "76a914a36713b17013b52251fbe6f7588840c48f1abdb688ac",
        "scriptpubkey_asm": "OP_DUP OP_HASH160 OP_PUSHBYTES_20 a36713b17013b52251fbe6f7588840c48f1abdb6 OP_EQUALVERIFY OP_CHECKSIG",
        "scriptpubkey_type": "p2pkh",
        "scriptpubkey_address": "1FtzdBNKGepnreARyq45GRhqNmDedvLruc",
        "value": 155700
      },
      "scriptsig": "483045022100a011b81fd75134d4727617f90fdadd8ea45b8baeccfafdfc48530f538c425d6802203c0c0bd03b602dc7ef53aabbb04c81354c68bf7b8f58d55f3125d28a59e072bf0121038e339acb431ab2cc6ad0b51f73524f1b641904b89c8e942a93034f1ce911643b",
      "scriptsig_asm": "OP_PUSHBYTES_72 3045022100a011b81fd75134d4727617f90fdadd8ea45b8baeccfafdfc48530f538c425d6802203c0c0bd03b602dc7ef53aabbb04c81354c68bf7b8f58d55f3125d28a59e072bf01 OP_PUSHBYTES_33 038e339acb431ab2cc6ad0b51f73524f1b641904b89c8e942a93034f1ce911643b",
      "is_coinbase": false,
      "sequence": 4294967295
    }
  ],
  "vout": [
    {
      "scriptpubkey": "76a91439b187f53722973c52c159f6286a406f0a7764cc88ac",
      "scriptpubkey_asm": "OP_DUP OP_HASH160 OP_PUSHBYTES_20 39b187f53722973c52c159f6286a406f0a7764cc OP_EQUALVERIFY OP_CHECKSIG",
      "scriptpubkey_type": "p2pkh",
      "scriptpubkey_address": "16G4C1byuZHipNEaEKyEfLbGP65AYd7hWf",
      "value": 130000
    }
  ],
  "size": 192,
  "weight": 768,
  "fee": 25700,
  "status": {
    "confirmed": true,
    "block_height": 834638,
    "block_hash": "000000000000000000025f742c626208ac87e0b7d15054abb4a19ca2d735a54e",
    "block_time": 1710405325
  },
  "hex": "0100000001a4ac50a14d56c8aa65d3b7c7b0b60eab5f24dbe332e22e1aef8ab69327a6ab21010000006b483045022100a011b81fd75134d4727617f90fdadd8ea45b8baeccfafdfc48530f538c425d6802203c0c0bd03b602dc7ef53aabbb04c81354c68bf7b8f58d55f3125d28a59e072bf0121038e339acb431ab2cc6ad0b51f73524f1b641904b89c8e942a93034f1ce911643bffffffff01d0fb0100000000001976a91439b187f53722973c52c159f6286a406f0a7764cc88ac00000000"
}