{
  "txid": "0eef5de84d6660777744672a74e8deac645ce27b8fcbaeecce7bc682ed7aeba1",
  "version": 2,
  "locktime": 0,
  "vin": [
    {
      "txid": "d653e691949f3c9c00a80f77d700445570cfacfa8acde524fd49800a507a5875",
      "vout": 0,
      "prevout": {
        "scriptpubkey": "51205ce068d8dbcd83a0e5687d73380163ab216668ad3e630f6180089ff324e16458",
        "scriptpubkey_asm": "OP_PUSHNUM_1 OP_PUSHBYTES_32 5ce068d8dbcd83a0e5687d73380163ab216668ad3e630f6180089ff324e16458",
        "scriptpubkey_type": "v1_p2tr",
        "scriptpubkey_address": "bc1ptnsx3kxmekp6petg04ensqtr4vskv69d8e3s7cvqpz0lxf8pv3vq628q8u",
        "value": 21651
      },
      "scriptsig": "",
      "scriptsig_asm": "",
      "witness": [
        "bc5d7d31745cab14e27562d0defeec3ceda005d13604e9beb5007237e255374b1205b62f93c26e6795f8138f1f36a1273645f455fd06ee9751735133de228dba",
        "20f2d00e1cce0b839d2e197679cac7a15152ec244338032c7767f72c1332d49a65ac0063036f726401010a696d6167652f6a706567004d0802ffd8ffe000104a46494600010100000100010000ffe201d84943435f50524f46494c45000101000001c800000000043000006d6e74725247422058595a2007e00001000100000000000061637370000000000000000000000000000000000000000000000000000000010000f6d6000100000000d32d0000000000000000000000000000000000000000000000000000000000000000000000000000000000000000000000000000000964657363000000f0000000247258595a00000114000000146758595a00000128000000146258595a0000013c00000014777470740000015000000014725452430000016400000028675452430000016400000028625452430000016400000028637072740000018c0000003c6d6c756300000000000000010000000c656e5553000000080000001c007300520047004258595a200000000000006fa2000038f50000039058595a2000000000000062990000b785000018da58595a2000000000000024a000000f840000b6cf58595a20000000000000f6d6000100000000d32d706172610000000000040000000266660000f2a700000d59000013d000000a5b00000000000000006d6c756300000000000000010000000c656e5553000000200000001c0047006f006f0067006c006500200049006e0063002e00200032003000310036ffdb0043000302020302020303030304030304050805050404054d08020a070706080c0a0c0c0b0a0b0b0d0e12100d0e110e0b0b1016101113141515150c0f171816141812141514ffdb00430103040405040509050509140d0b0d1414141414141414141414141414141414141414141414141414141414141414141414141414141414141414141414141414ffc00011080200020003012200021101031101ffc4001a000100020301000000000000000000000000060907080a05ffc40014100100000000000000000000000000000000ffc4001c0101000203010101000000000000000000000507040608030209ffc40014110100000000000000000000000000000000ffda000c03010002110311003f00aaa0000000000000000000000000000000000000000000000000000000000000000000000000000000000000000000000000000000000000000000000000000000000000000000000000000000000000000000000000000000000000000000000000000000000000000000000000000000000000000000000000000000000000000000000000000000000000000000000000000000000000000000000000000000000000000000000000000000000000000000000000000000000000000000000000000000000000000000000000000000000000000000000000000000000000000000000000000000000000000000000000000000000000000000000000000000000000000000000000000000000000004d0802000000000000000000000000000000000000000000000000000000000000000000000000000000000000000000000000000000000000000000000000000000000000000000000000000000000000000000000000000000000000000000000000000000000000000000000000000000000000000000000000000000000000000000000000000000000000000000000000000000000000000000000000000000000000000000000000000000000000000000000000000000000000000000000000000000000000000000000000000000000000000000000000000000000000000001d18009b590000000000000000000000000e73c0422b7000000000000000000000000000000000000000000000000000000000000742003655c00009000c543a85c043ab40004b4000000000000000000006e000f563ab28063b2c00000000000000000000000000000000000000000000174a037d75180000033580875780009000c543a85c043ab40006f680f5638000002c40006b900f5790002af0062b35b8003d58ed3f01e4c860a01f0fb0000000000000000000000000000000000000000005d280df5d46000000cd6021d5e00024003150eab90118abc0018280793d4000000000001b8003d58ed3f01e4c86e000f563b4fc07932182807c3ec00000000000000000000000000000000000000000174a037d75180000033580875780009000c543a85c04d080243ab40006f680f5638000002c400051780f264370007ab1da7e03c990dc001eac769f80f26430500f87d8000000000000000000000000000000000000000002e9406faea300000066b010eaf000120018a8755c808c55e000b5801b839b0000000000000000000001cde80d1dd36000000000000000000000000000000000000000000000ba501beba8c0000019ac043abc000480062a1d42e021d5a2f00070e2de4b4053ec7000000000000000000000000000000000000000000000000000739403f501560000000000000000002e9406faea300066b010eaf000120018a877a40275c389400e6a75f27c02dd6b8000000000000000000000000000000000000000000000000000e55c000000000000000000005d280df5d46000cd6021d5e00024003150ef4804eb8710501f9ceef64b4053ec7000000000000000000000000000000000000000000000000000739403f501560000000000000000002e9406faea300066b010eaf000120018a877a40275c38000980084590000000000000000000000000e6340412d30000000000000000000000000000000000000000000005d280df5d46000cd6021d5e00024003150ef4804eb870001300108b20000000000000000000000001cc680825a6000000000000000000000000000000000000000000000ba501beba8c0019ac043abc000480062a1de9009d70e00026002116400000000000004d080200000000000398d0104b4c00000000000000000000000000000000000000000000174a037d75180033580875780009000c543bd2013ae1c0004c00422c8000000000000000000000000731a0209698000000000000000000000000000000000000000000000002e9406faea366b010eaf000120018a877a40275c38000980084590000000000000000000000000e6340412d30000000000000000000000000000000000000000000000005d280df5d46cd6021d5e00024003150ef4804eb870001300108b20000000000000000000000001cc680825a6000000000000000000000000000000000000000000000000ba501beba8d9ac043abc000480062a1de9009d70e000000000000000000358807abf4f99ac043abc73de035a53e000000000000000000000000000000000000000000000000ba501beba8c000000000000000000001b16035d548000000000000000000000000000000000e73c0422b70000000000000000000000000000000005d280df5d46000000000000000000000d8b01aeaa4000000000000000000000000000000000739e02115b8000000000000000000000000000000002e9406faea30000000000000000000006c580d7552000000285c043ab45f40098596000000000a17010ead17d002616580000039cf0108adc00000000000000000000000000000000174a037d751800000000000000000000362c06baa904cbe00000142e021d5a2fa004c2cb00000000050b8087568be80130b2c000001ce7808456e000000000000000000000000000000000ba501beba8c000000000000000000001b16035d548000000a17010ead17d0026165800000000285c043ab45f40098596000000e73c0422b70000000000000000000000000000000005d280df5d46000000000000000000000d8b01aeaa400000050b8087568be80130b2c00000000142e021d5a2fa004c2cb000000739e02115b8000000000000003ffd9680063036f726401011e6170706c69636174696f6e2f6a736f6e3b636861727365743d7574662d38004d4c017b2270223a22766f7264222c2276223a312c227479223a22696e7363222c22636f6c223a2230323336303866343162323735633034313737386331353733383530366633633665336536313539646139333364333761343531373566643833313436666237222c22696964223a224e4f4445205341544f534849222c227075626c223a2231455337623370636a527a4667796969714c7278484b546e43686535364c4a485937222c226e6f6e6365223a333237332c226d696e746572223a22626331716a7a79746b7176336c676636756e6b373572367733717364796b63617179637a386b74717472222c22736967223a22484e716f34656b2f70435950635752395341346f316e716f546b593169433136382b4b48596f58794f3435544c4546545273437a48513763385a5051715a58432f76353250553247654b3961534c614370646d3855796f3d227d68",
        "c1f2d00e1cce0b839d2e197679cac7a15152ec244338032c7767f72c1332d49a65675a92934efa5e4869b2432a3e00abfc6819367af43949c2edc693b32d23ac05"
      ],
      "is_coinbase": false,
      "sequence": 4294967293
    }
  ],
  "vout": [
    {
      "scriptpubkey": "00149088bb0191fa13ae4edea0f4e8820d25b1d01302",
      "scriptpubkey_asm": "OP_0 OP_PUSHBYTES_20 9088bb0191fa13ae4edea0f4e8820d25b1d01302",
      "scriptpubkey_type": "v0_p2wpkh",
      "scriptpubkey_address": "bc1qjzytkqv3lgf6unk75r6w3qsdykcaqycz8ktqtr",
      "value": 1000
    },
    {
      "scriptpubkey": "5120690fc8b7fefd11506ba7a7176eca71153a3c0390a407d6de8bb6a33aa12dcdf0",
      "scriptpubkey_asm": "OP_PUSHNUM_1 OP_PUSHBYTES_32 690fc8b7fefd11506ba7a7176eca71153a3c0390a407d6de8bb6a33aa12dcdf0",
      "scriptpubkey_type": "v1_p2tr",
      "scriptpubkey_address": "bc1pdy8u3dl7l5g4q6a85utkajn3z5arcqus5sradh5tk63n4gfdehcqryzwum",
      "value": 6704
    },
    {
      "scriptpubkey": "51200705a5767db892e98125775049b1a13dd9ecdc8aea0df413cabbee683e871012",
      "scriptpubkey_asm": "OP_PUSHNUM_1 OP_PUSHBYTES_32 0705a5767db892e98125775049b1a13dd9ecdc8aea0df413cabbee683e871012",
      "scriptpubkey_type": "v1_p2tr",
      "scriptpubkey_address": "bc1pquz62anahzfwnqf9wagynvdp8hv7ehy2agxlgy72h0hxs058zqfqk8ksyq",
      "value": 2815
    }
  ],
  "size": 3543,
  "weight": 4047,
  "fee": 11132,
  "status": {
    "confirmed": true,
    "block_height": 834464,
    "block_hash": "0000000000000000000177a0869a911a2b65c9bdcd5a8bcb02b68f305bee848e",
    "block_time": 1710308296
  },
  "hex": "0200000000010175587a500a8049fd24e5cd8afaaccf70554400d7770fa8009c3c9f9491e653d60000000000fdffffff03e8030000000000001600149088bb0191fa13ae4edea0f4e8820d25b1d01302301a000000000000225120690fc8b7fefd11506ba7a7176eca71153a3c0390a407d6de8bb6a33aa12dcdf0ff0a0000000000002251200705a5767db892e98125775049b1a13dd9ecdc8aea0df413cabbee683e8710120340bc5d7d31745cab14e27562d0defeec3ceda005d13604e9beb5007237e255374b1205b62f93c26e6795f8138f1f36a1273645f455fd06ee9751735133de228dbafda60c20f2d00e1cce0b839d2e197679cac7a15152ec244338032c7767f72c1332d49a65ac0063036f726401010a696d6167652f6a706567004d0802ffd8ffe000104a46494600010100000100010000ffe201d84943435f50524f46494c45000101000001c800000000043000006d6e74725247422058595a2007e00001000100000000000061637370000000000000000000000000000000000000000000000000000000010000f6d6000100000000d32d0000000000000000000000000000000000000000000000000000000000000000000000000000000000000000000000000000000964657363000000f0000000247258595a00000114000000146758595a00000128000000146258595a0000013c00000014777470740000015000000014725452430000016400000028675452430000016400000028625452430000016400000028637072740000018c0000003c6d6c756300000000000000010000000c656e5553000000080000001c007300520047004258595a200000000000006fa2000038f50000039058595a2000000000000062990000b785000018da58595a2000000000000024a000000f840000b6cf58595a20000000000000f6d6000100000000d32d706172610000000000040000000266660000f2a700000d59000013d000000a5b00000000000000006d6c756300000000000000010000000c656e5553000000200000001c0047006f006f0067006c006500200049006e0063002e00200032003000310036ffdb0043000302020302020303030304030304050805050404054d08020a070706080c0a0c0c0b0a0b0b0d0e12100d0e110e0b0b1016101113141515150c0f171816141812141514ffdb00430103040405040509050509140d0b0d1414141414141414141414141414141414141414141414141414141414141414141414141414141414141414141414141414ffc00011080200020003012200021101031101ffc4001a000100020301000000000000000000000000060907080a05ffc40014100100000000000000000000000000000000ffc4001c0101000203010101000000000000000000000507040608030209ffc40014110100000000000000000000000000000000ffda000c03010002110311003f00aaa0000000000000000000000000000000000000000000000000000000000000000000000000000000000000000000000000000000000000000000000000000000000000000000000000000000000000000000000000000000000000000000000000000000000000000000000000000000000000000000000000000000000000000000000000000000000000000000000000000000000000000000000000000000000000000000000000000000000000000000000000000000000000000000000000000000000000000000000000000000000000000000000000000000000000000000000000000000000000000000000000000000000000000000000000000000000000000000000000000000000000004d0802000000000000000000000000000000000000000000000000000000000000000000000000000000000000000000000000000000000000000000000000000000000000000000000000000000000000000000000000000000000000000000000000000000000000000000000000000000000000000000000000000000000000000000000000000000000000000000000000000000000000000000000000000000000000000000000000000000000000000000000000000000000000000000000000000000000000000000000000000000000000000000000000000000000000000001d18009b590000000000000000000000000e73c0422b7000000000000000000000000000000000000000000000000000000000000742003655c00009000c543a85c043ab40004b4000000000000000000006e000f563ab28063b2c00000000000000000000000000000000000000000000174a037d75180000033580875780009000c543a85c043ab40006f680f5638000002c40006b900f5790002af0062b35b8003d58ed3f01e4c860a01f0fb0000000000000000000000000000000000000000005d280df5d46000000cd6021d5e00024003150eab90118abc0018280793d4000000000001b8003d58ed3f01e4c86e000f563b4fc07932182807c3ec00000000000000000000000000000000000000000174a037d75180000033580875780009000c543a85c04d080243ab40006f680f5638000002c400051780f264370007ab1da7e03c990dc001eac769f80f26430500f87d8000000000000000000000000000000000000000002e9406faea300000066b010eaf000120018a8755c808c55e000b5801b839b0000000000000000000001cde80d1dd36000000000000000000000000000000000000000000000ba501beba8c0000019ac043abc000480062a1d42e021d5a2f00070e2de4b4053ec7000000000000000000000000000000000000000000000000000739403f501560000000000000000002e9406faea300066b010eaf000120018a877a40275c389400e6a75f27c02dd6b8000000000000000000000000000000000000000000000000000e55c000000000000000000005d280df5d46000cd6021d5e00024003150ef4804eb8710501f9ceef64b4053ec7000000000000000000000000000000000000000000000000000739403f501560000000000000000002e9406faea300066b010eaf000120018a877a40275c38000980084590000000000000000000000000e6340412d30000000000000000000000000000000000000000000005d280df5d46000cd6021d5e00024003150ef4804eb870001300108b20000000000000000000000001cc680825a6000000000000000000000000000000000000000000000ba501beba8c0019ac043abc000480062a1de9009d70e00026002116400000000000004d080200000000000398d0104b4c00000000000000000000000000000000000000000000174a037d75180033580875780009000c543bd2013ae1c0004c00422c8000000000000000000000000731a0209698000000000000000000000000000000000000000000000002e9406faea366b010eaf000120018a877a40275c38000980084590000000000000000000000000e6340412d30000000000000000000000000000000000000000000000005d280df5d46cd6021d5e00024003150ef4804eb870001300108b20000000000000000000000001cc680825a6000000000000000000000000000000000000000000000000ba501beba8d9ac043abc000480062a1de9009d70e000000000000000000358807abf4f99ac043abc73de035a53e000000000000000000000000000000000000000000000000ba501beba8c000000000000000000001b16035d548000000000000000000000000000000000e73c0422b70000000000000000000000000000000005d280df5d46000000000000000000000d8b01aeaa4000000000000000000000000000000000739e02115b8000000000000000000000000000000002e9406faea30000000000000000000006c580d7552000000285c043ab45f40098596000000000a17010ead17d002616580000039cf0108adc00000000000000000000000000000000174a037d751800000000000000000000362c06baa904cbe00000142e021d5a2fa004c2cb00000000050b8087568be80130b2c000001ce7808456e000000000000000000000000000000000ba501beba8c000000000000000000001b16035d548000000a17010ead17d0026165800000000285c043ab45f40098596000000e73c0422b70000000000000000000000000000000005d280df5d46000000000000000000000d8b01aeaa400000050b8087568be80130b2c00000000142e021d5a2fa004c2cb000000739e02115b8000000000000003ffd9680063036f726401011e6170706c69636174696f6e2f6a736f6e3b636861727365743d7574662d38004d4c017b2270223a22766f7264222c2276223a312c227479223a22696e7363222c22636f6c223a2230323336303866343162323735633034313737386331353733383530366633633665336536313539646139333364333761343531373566643833313436666237222c22696964223a224e4f4445205341544f534849222c227075626c223a2231455337623370636a527a4667796969714c7278484b546e43686535364c4a485937222c226e6f6e6365223a333237332c226d696e746572223a22626331716a7a79746b7176336c676636756e6b373572367733717364796b63617179637a386b74717472222c22736967223a22484e716f34656b2f70435950635752395341346f316e716f546b593169433136382b4b48596f58794f3435544c4546545273437a48513763385a5051715a58432f76353250553247654b3961534c614370646d3855796f3d227d6841c1f2d00e1cce0b839d2e197679cac7a15152ec244338032c7767f72c1332d49a65675a92934efa5e4869b2432a3e00abfc6819367af43949c2edc693b32d23ac0500000000"
}