{
  "txid": "0f17db0f0057ae61cf7ea6096d8a50f8f873dcbcd943091e2d5afdea02978041",
  "version": 2,
  "locktime": 0,
  "vin": [
    {
      "txid": "1107424a0572271c92498eec63843e3f7f831f5752995307f312e51967c20439",
      "vout": 0,
      "prevout": {
        "scriptpubkey": "00145b2041c1f171c2ae7adddb3b4c2e4f3f7eb82550",
        "scriptpubkey_asm": "OP_0 OP_PUSHBYTES_20 5b2041c1f171c2ae7adddb3b4c2e4f3f7eb82550",
        "scriptpubkey_type": "v0_p2wpkh",
        "scriptpubkey_address": "bc1qtvsyrs03w8p2u7kamva5ctj08altsf2s56ug5q",
        "value": 140527
      },
      "scriptsig": "",
      "scriptsig_asm": "",
      "witness": [
        "3044022034965247eb0b43ec96b279db5d7188baa995e48e26f26edb5161bc367088eb7702203ad02ebf19d2f044ecb24e93323f34e97f9411f20f132e951e00983c39ca406901",
        "03f159e10bc88ee03a516671a1b30b373eb643d5bd07924860c187c502ef9b51b4"
      ],
      "is_coinbase": false,
      "sequence": 4294967295
    }
  ],
  "vout": [
    {
      "scriptpubkey": "76a914fa206c12c8c744a4c32bb60e5d388077d0b1f2ba88ac",
      "scriptpubkey_asm": "OP_DUP OP_HASH160 OP_PUSHBYTES_20 fa206c12c8c744a4c32bb60e5d388077d0b1f2ba OP_EQUALVERIFY OP_CHECKSIG",
      "scriptpubkey_type": "p2pkh",
      "scriptpubkey_address": "1PoYmgxRFi4DZmh8YMzdtViRstQXezdXfc",
      "value": 136298
    }
  ],
  "size": 194,
  "weight": 449,
  "fee": 4229,
  "status": {
    "confirmed": true,
    "block_height": 834638,
    "block_hash": "000000000000000000025f742c626208ac87e0b7d15054abb4a19ca2d735a54e",
    "block_time": 1710405325
  },
  "hex": "020000000001013904c26719e512f307539952571f837f3f3e8463ec8e49921c2772054a4207110000000000ffffffff016a140200000000001976a914fa206c12c8c744a4c32bb60e5d388077d0b1f2ba88ac02473044022034965247eb0b43ec96b279db5d7188baa995e48e26f26edb5161bc367088eb7702203ad02ebf19d2f044ecb24e93323f34e97f9411f20f132e951e00983c39ca4069012103f159e10bc88ee03a516671a1b30b373eb643d5bd07924860c187c502ef9b51b400000000"
}