{
  "txid": "0f1b4b0f3c6a68b2b86c98808f5ad6534337edda484f3289bcc303754ec0b6d6",
  "version": 1,
  "locktime": 0,
  "vin": [
    {
      "txid": "378880e936667a631a28796b3951a5312889a3e7e9870a1f7fa19edf7b79f4c0",
      "vout": 1,
      "prevout": {
        "scriptpubkey": "0014ca52391f11fe713307f04937f533544a92c2f8fc",
        "scriptpubkey_asm": "OP_0 OP_PUSHBYTES_20 ca52391f11fe713307f04937f533544a92c2f8fc",
        "scriptpubkey_type": "v0_p2wpkh",
        "scriptpubkey_address": "bc1qeffrj8c3lecnxplsfyml2v65f2fv978utp5f7m",
        "value": 619992
      },
      "scriptsig": "",
      "scriptsig_asm": "",
      "witness": [
        "304402202482b8bf2680e4c602aadd81b14972f5c95b859d36ef10d923ac4c22d3a808a4022051582c9ab40d56a5951929bc74fe44cbe7c600952cdd481f90d49b2e066bf94101",
        "024b4b5d1800cc510617b917a9e7a0e8e4caf8b20d781b187deb863cba50247188"
      ],
      "is_coinbase": false,
      "sequence": 4294967295
    }
  ],
  "vout": [
    {
      "scriptpubkey": "0014ff71bb0aa044e3c2b1da086b91e9e7cdbf33363f",
      "scriptpubkey_asm": "OP_0 OP_PUSHBYTES_20 ff71bb0aa044e3c2b1da086b91e9e7cdbf33363f",
      "scriptpubkey_type": "v0_p2wpkh",
      "scriptpubkey_address": "bc1qlacmkz4qgn3u9vw6pp4er608eklnxd3lrqx3vs",
      "value": 205350
    },
    {
      "scriptpubkey": "0014aa1b1c32f6deea272fd39810d4b04f8a4b168678",
      "scriptpubkey_asm": "OP_0 OP_PUSHBYTES_20 aa1b1c32f6deea272fd39810d4b04f8a4b168678",
      "scriptpubkey_type": "v0_p2wpkh",
      "scriptpubkey_address": "bc1q4gd3cvhkmm4zwt7nnqgdfvz03f93dpncmwn6rd",
      "value": 412126
    }
  ],
  "size": 222,
  "weight": 561,
  "fee": 2516,
  "status": {
    "confirmed": true,
    "block_height": 834552,
    "block_hash": "00000000000000000001dd0468a70c94f619251d286585cff57aeb4bd9ede330",
    "block_time": 1710355598
  },
  "hex": "01000000000101c0f4797bdf9ea17f1f0a87e9e7a3892831a551396b79281a637a6636e98088370100000000ffffffff022622030000000000160014ff71bb0aa044e3c2b1da086b91e9e7cdbf33363fde49060000000000160014aa1b1c32f6deea272fd39810d4b04f8a4b1686780247304402202482b8bf2680e4c602aadd81b14972f5c95b859d36ef10d923ac4c22d3a808a4022051582c9ab40d56a5951929bc74fe44cbe7c600952cdd481f90d49b2e066bf9410121024b4b5d1800cc510617b917a9e7a0e8e4caf8b20d781b187deb863cba5024718800000000"
}