{
  "txid": "0f285500b80c0a1a6d571ab85a2950991028e6f2072c18f5b0f26e549c22fd15",
  "version": 1,
  "locktime": 0,
  "vin": [
    {
      "txid": "c746fcffb685219c4f165f89fde44e0ab62d8ce5c0bbba01df71b375734e88ca",
      "vout": 0,
      "prevout": {
        "scriptpubkey": "a9141d682d0b469a099eaee009533a5e69628d7f802887",
        "scriptpubkey_asm": "OP_HASH160 OP_PUSHBYTES_20 1d682d0b469a099eaee009533a5e69628d7f8028 OP_EQUAL",
        "scriptpubkey_type": "p2sh",
        "scriptpubkey_address": "34NWKNw6g37JwcuBnZMntqC9yiKtQDNWAk",
        "value": 430492
      },
      "scriptsig": "1600145628313cf890e730427cfd8fe3e2bf93bf86d50f",
      "scriptsig_asm": "OP_PUSHBYTES_22 00145628313cf890e730427cfd8fe3e2bf93bf86d50f",
      "witness": [
        "30440220284fa060dfc70dfa5ec47689fe4ae48e5626691286b02342292f39a4f7e5414f0220673d1e3b33d2c7235990a428dbeea9b7022ca2d513e8dbfe9b69c6c2b6aff1e201",
        "032ac587d761f43db14c9bb3302a1513cf730e00be468234a7fc25c253cd23d72c"
      ],
      "is_coinbase": false,
      "sequence": 4294967295,
      "inner_redeemscript_asm": "OP_0 OP_PUSHBYTES_20 5628313cf890e730427cfd8fe3e2bf93bf86d50f"
    }
  ],
  "vout": [
    {
      "scriptpubkey": "a9143ab3291d65625d0fb19ea6a4cdd6fab52654f44787",
      "scriptpubkey_asm": "OP_HASH160 OP_PUSHBYTES_20 3ab3291d65625d0fb19ea6a4cdd6fab52654f447 OP_EQUAL",
      "scriptpubkey_type": "p2sh",
      "scriptpubkey_address": "373Pjy39f2mzP7W8NETq9pL1XGFH8jS57N",
      "value": 270000
    },
    {
      "scriptpubkey": "a91456ffdf1a018bf46736619d9ab5d5e204bedcabb687",
      "scriptpubkey_asm": "OP_HASH160 OP_PUSHBYTES_20 56ffdf1a018bf46736619d9ab5d5e204bedcabb6 OP_EQUAL",
      "scriptpubkey_type": "p2sh",
      "scriptpubkey_address": "39d2ZJawPbFrX14ucGHCfBCyhNftWrhnQs",
      "value": 157836
    }
  ],
  "size": 247,
  "weight": 661,
  "fee": 2656,
  "status": {
    "confirmed": true,
    "block_height": 834638,
    "block_hash": "000000000000000000025f742c626208ac87e0b7d15054abb4a19ca2d735a54e",
    "block_time": 1710405325
  },
  "hex": "01000000000101ca884e7375b371df01babbc0e58c2db60a4ee4fd895f164f9c2185b6fffc46c700000000171600145628313cf890e730427cfd8fe3e2bf93bf86d50fffffffff02b01e04000000000017a9143ab3291d65625d0fb19ea6a4cdd6fab52654f447878c6802000000000017a91456ffdf1a018bf46736619d9ab5d5e204bedcabb687024730440220284fa060dfc70dfa5ec47689fe4ae48e5626691286b02342292f39a4f7e5414f0220673d1e3b33d2c7235990a428dbeea9b7022ca2d513e8dbfe9b69c6c2b6aff1e20121032ac587d761f43db14c9bb3302a1513cf730e00be468234a7fc25c253cd23d72c00000000"
}