{
  "txid": "0f316ecece716443f3e9bf753014cc5f375bb73a9a451756e975487ee65ca39f",
  "version": 2,
  "locktime": 0,
  "vin": [
    {
      "txid": "acc3ba00869acb582a3f2904ce3a11dd3779350ce234063fc7d0959246213364",
      "vout": 288,
      "prevout": {
        "scriptpubkey": "5120c95f7ece8dc183540a514323350c207e451ad2842a4a9e8956c1c641bc5a5e90",
        "scriptpubkey_asm": "OP_PUSHNUM_1 OP_PUSHBYTES_32 c95f7ece8dc183540a514323350c207e451ad2842a4a9e8956c1c641bc5a5e90",
        "scriptpubkey_type": "v1_p2tr",
        "scriptpubkey_address": "bc1pe90han5dcxp4gzj3gv3n2rpq0ez3455y9f9faz2kc8ryr0z6t6gq3nyzpt",
        "value": 1806
      },
      "scriptsig": "",
      "scriptsig_asm": "",
      "witness": [
        "a522a908e4e59bdae3b3b9266001bd67b85f30368a46a60aedd227c20e8ad42f34c7747297cc022a483ba8b85b6d0bb8c88795aec7a63e2347534a77d1532206",
        "20688981f3398064b2f9975e162b76c65b8ce63f5e043c7ef8aec496d2f19cf939ac0063036f726401010a746578742f706c61696e00357b2270223a226272632d3230222c226f70223a226d696e74222c227469636b223a22646f6765222c22616d74223a2234323030227d68",
        "c0688981f3398064b2f9975e162b76c65b8ce63f5e043c7ef8aec496d2f19cf939"
      ],
      "is_coinbase": false,
      "sequence": 4261412863
    }
  ],
  "vout": [
    {
      "scriptpubkey": "00147a665de7a370f4c9b372ab1fae587500a5bcbdb4",
      "scriptpubkey_asm": "OP_0 OP_PUSHBYTES_20 7a665de7a370f4c9b372ab1fae587500a5bcbdb4",
      "scriptpubkey_type": "v0_p2wpkh",
      "scriptpubkey_address": "bc1q0fn9mearwr6vnvmj4v06ukr4qzjme0d565dzcx",
      "value": 294
    }
  ],
  "size": 294,
  "weight": 540,
  "fee": 1512,
  "status": {
    "confirmed": true,
    "block_height": 834460,
    "block_hash": "00000000000000000000484a79b643b2524bbce82e5d8a442013fa5b8905ed98",
    "block_time": 1710307468
  },
  "hex": "02000000000101643321469295d0c73f0634e20c357937dd113ace04293f2a58cb9a8600bac3ac2001000000fffffffd0126010000000000001600147a665de7a370f4c9b372ab1fae587500a5bcbdb40340a522a908e4e59bdae3b3b9266001bd67b85f30368a46a60aedd227c20e8ad42f34c7747297cc022a483ba8b85b6d0bb8c88795aec7a63e2347534a77d15322066d20688981f3398064b2f9975e162b76c65b8ce63f5e043c7ef8aec496d2f19cf939ac0063036f726401010a746578742f706c61696e00357b2270223a226272632d3230222c226f70223a226d696e74222c227469636b223a22646f6765222c22616d74223a2234323030227d6821c0688981f3398064b2f9975e162b76c65b8ce63f5e043c7ef8aec496d2f19cf93900000000"
}