{
  "txid": "0f38c3747879991e918ef90a978eb3e266e9d20fbe54fc9f4fe75237a75c9f1c",
  "version": 1,
  "locktime": 0,
  "vin": [
    {
      "txid": "2bb087eda8ba7e6e29912fefe45c9952229b181dd8f656f478c971ca919cde21",
      "vout": 1,
      "prevout": {
        "scriptpubkey": "0014db768602c27ad91579d14605814fd93ab7b7c56d",
        "scriptpubkey_asm": "OP_0 OP_PUSHBYTES_20 db768602c27ad91579d14605814fd93ab7b7c56d",
        "scriptpubkey_type": "v0_p2wpkh",
        "scriptpubkey_address": "bc1qmdmgvqkz0tv327w3gczczn7e82mm03tdwlr9wj",
        "value": 15241
      },
      "scriptsig": "",
      "scriptsig_asm": "",
      "witness": [
        "304502210080dac93b8d4102e5bd3d7ab0f9dfec9c32c3005277edec6fce898542a1f46bca022060ad1427921ef56d1a643b5ea44cd80edf756725ca79a7afd9bc9be954dff23701",
        "02ce27e290619fe74f41626805af09dd15d3251847bd49c9638b86b58683056ad5"
      ],
      "is_coinbase": false,
      "sequence": 4294967295
    }
  ],
  "vout": [
    {
      "scriptpubkey": "001401257af9b90395bfc508d0827e19704f0a55b862",
      "scriptpubkey_asm": "OP_0 OP_PUSHBYTES_20 01257af9b90395bfc508d0827e19704f0a55b862",
      "scriptpubkey_type": "v0_p2wpkh",
      "scriptpubkey_address": "bc1qqyjh47deqw2ml3gg6zp8uxtsfu99twrzluuqtm",
      "value": 13590
    }
  ],
  "size": 192,
  "weight": 438,
  "fee": 1651,
  "status": {
    "confirmed": true,
    "block_height": 834638,
    "block_hash": "000000000000000000025f742c626208ac87e0b7d15054abb4a19ca2d735a54e",
    "block_time": 1710405325
  },
  "hex": "0100000000010121de9c91ca71c978f456f6d81d189b2252995ce4ef2f91296e7ebaa8ed87b02b0100000000ffffffff01163500000000000016001401257af9b90395bfc508d0827e19704f0a55b8620248304502210080dac93b8d4102e5bd3d7ab0f9dfec9c32c3005277edec6fce898542a1f46bca022060ad1427921ef56d1a643b5ea44cd80edf756725ca79a7afd9bc9be954dff237012102ce27e290619fe74f41626805af09dd15d3251847bd49c9638b86b58683056ad500000000"
}