{
  "txid": "0f443c93552e2cb76e9ce698c46a66b05be7d23e9a7098d8ae2c1720f57cb1a3",
  "version": 1,
  "locktime": 0,
  "vin": [
    {
      "txid": "5f7b316650495e7e6302a3c1b264eab2a50ec617c6f6551cf5fabdc501085041",
      "vout": 1,
      "prevout": {
        "scriptpubkey": "00148414479258c8d47f4fed231a3546aa721a9ee711",
        "scriptpubkey_asm": "OP_0 OP_PUSHBYTES_20 8414479258c8d47f4fed231a3546aa721a9ee711",
        "scriptpubkey_type": "v0_p2wpkh",
        "scriptpubkey_address": "bc1qss2y0yjcer287nldyvdr2342wgdfaec3g4cd3t",
        "value": 235029
      },
      "scriptsig": "",
      "scriptsig_asm": "",
      "witness": [
        "304402204765ad299cc95bbce8db01b56819cdbc0f4050afcbd2758cbcc4fce0af07545e022062761da2c692689e3e4664c3a9fe1f0216ac87304c181d676fe78889dd19c7c601",
        "02a64a05ef81f633f712da4cb9c837f9fca434d51094073a66d7cfa780f07a3ae0"
      ],
      "is_coinbase": false,
      "sequence": 4294967295
    }
  ],
  "vout": [
    {
      "scriptpubkey": "0014273faaf0268b1c6143583971258b92c620ec8ff1",
      "scriptpubkey_asm": "OP_0 OP_PUSHBYTES_20 273faaf0268b1c6143583971258b92c620ec8ff1",
      "scriptpubkey_type": "v0_p2wpkh",
      "scriptpubkey_address": "bc1qyul64upx3vwxzs6c89cjtzujccswerl3lghmtl",
      "value": 232059
    }
  ],
  "size": 191,
  "weight": 437,
  "fee": 2970,
  "status": {
    "confirmed": true,
    "block_height": 834638,
    "block_hash": "000000000000000000025f742c626208ac87e0b7d15054abb4a19ca2d735a54e",
    "block_time": 1710405325
  },
  "hex": "0100000000010141500801c5bdfaf51c55f6c617c60ea5b2ea64b2c1a302637e5e495066317b5f0100000000ffffffff017b8a030000000000160014273faaf0268b1c6143583971258b92c620ec8ff10247304402204765ad299cc95bbce8db01b56819cdbc0f4050afcbd2758cbcc4fce0af07545e022062761da2c692689e3e4664c3a9fe1f0216ac87304c181d676fe78889dd19c7c6012102a64a05ef81f633f712da4cb9c837f9fca434d51094073a66d7cfa780f07a3ae000000000"
}