{
  "txid": "0f5a9d1884ad420d48bd6a767c5a5cf16db2431d2c728407191a02d4ea466017",
  "version": 2,
  "locktime": 0,
  "vin": [
    {
      "txid": "5606b8ac2cac919e269c623f8dcba2125320d6f460d8af86de397ecd05e3840f",
      "vout": 4,
      "prevout": {
        "scriptpubkey": "5120768554d8e20e2ad30a93c938b1d0291d1c538f146acc44062989eeb1f821f80a",
        "scriptpubkey_asm": "OP_PUSHNUM_1 OP_PUSHBYTES_32 768554d8e20e2ad30a93c938b1d0291d1c538f146acc44062989eeb1f821f80a",
        "scriptpubkey_type": "v1_p2tr",
        "scriptpubkey_address": "bc1pw6z4fk8zpc4dxz5neyutr5pfr5w98rc5dtxygp3f38htr7pplq9qytfxsm",
        "value": 3426
      },
      "scriptsig": "",
      "scriptsig_asm": "",
      "witness": [
        "af0124fceceeb884cbe0b045950aad8cd0428dbc2f21f8396528c2eb5ef58f4c2fd2b13f07e64295b3b9ea2e10952bb7daff2e62ec5065cf2fc332955ec2691c",
        "2030a7fab1aa593725bd5efa0611730742c26e3deb558b7a3c2dbad3f84b86bf82ac0063036f726401011e6170706c69636174696f6e2f6a736f6e3b636861727365743d7574662d38004cd07b2270223a22706f772d3230222c226f70223a226d696e74222c227469636b223a2250554e4b222c22616d74223a2231222c22736f6c7574696f6e223a2250554e4b3a6263317079326c633774336c746371643470656833653670703839386a3635763778726d736d7a6e7a366b397a63356a66303578366877717a7167336e793a303030303030303030303030303030303030303164363332346233346661396639643231623835373366623937656538666534396465643439313934373962643a3232383734383630393739227d68",
        "c10012eef0dd5686971201ee0affa8d24f6230a970f914fa050cfc5fbfb49107dd"
      ],
      "is_coinbase": false,
      "sequence": 4294967295
    }
  ],
  "vout": [
    {
      "scriptpubkey": "512022bf8f2e3f5e00da87378e74109ca796a8cf187b86c5316ac5162924be86d5dc",
      "scriptpubkey_asm": "OP_PUSHNUM_1 OP_PUSHBYTES_32 22bf8f2e3f5e00da87378e74109ca796a8cf187b86c5316ac5162924be86d5dc",
      "scriptpubkey_type": "v1_p2tr",
      "scriptpubkey_address": "bc1py2lc7t3ltcqd4peh3e6pp898j65v7xrmsmznz6k9zc5jf05x6hwqzqg3ny",
      "value": 546
    }
  ],
  "size": 484,
  "weight": 766,
  "fee": 2880,
  "status": {
    "confirmed": true,
    "block_height": 834638,
    "block_hash": "000000000000000000025f742c626208ac87e0b7d15054abb4a19ca2d735a54e",
    "block_time": 1710405325
  },
  "hex": "020000000001010f84e305cd7e39de86afd860f4d6205312a2cb8d3f629c269e91ac2cacb806560400000000ffffffff01220200000000000022512022bf8f2e3f5e00da87378e74109ca796a8cf187b86c5316ac5162924be86d5dc0340af0124fceceeb884cbe0b045950aad8cd0428dbc2f21f8396528c2eb5ef58f4c2fd2b13f07e64295b3b9ea2e10952bb7daff2e62ec5065cf2fc332955ec2691cfd1d012030a7fab1aa593725bd5efa0611730742c26e3deb558b7a3c2dbad3f84b86bf82ac0063036f726401011e6170706c69636174696f6e2f6a736f6e3b636861727365743d7574662d38004cd07b2270223a22706f772d3230222c226f70223a226d696e74222c227469636b223a2250554e4b222c22616d74223a2231222c22736f6c7574696f6e223a2250554e4b3a6263317079326c633774336c746371643470656833653670703839386a3635763778726d736d7a6e7a366b397a63356a66303578366877717a7167336e793a303030303030303030303030303030303030303164363332346233346661396639643231623835373366623937656538666534396465643439313934373962643a3232383734383630393739227d6821c10012eef0dd5686971201ee0affa8d24f6230a970f914fa050cfc5fbfb49107dd00000000"
}