{
  "txid": "0f72a4a65d4e319055313bc032f98f7425beb91affe1c18c9d55f209ae562af7",
  "version": 2,
  "locktime": 0,
  "vin": [
    {
      "txid": "838a91750115716cd9be0aa19d2c466eebe4bcff2da969521e558e74e8ecf065",
      "vout": 0,
      "prevout": {
        "scriptpubkey": "51206054b7fabad8a04305ec5af48865c9ea2dedea0609b0898800c20975c81cb423",
        "scriptpubkey_asm": "OP_PUSHNUM_1 OP_PUSHBYTES_32 6054b7fabad8a04305ec5af48865c9ea2dedea0609b0898800c20975c81cb423",
        "scriptpubkey_type": "v1_p2tr",
        "scriptpubkey_address": "bc1pvp2t0746mzsyxp0vtt6gsewfagk7m6sxpxcgnzqqcgyhtjquks3sgqmph9",
        "value": 3130
      },
      "scriptsig": "",
      "scriptsig_asm": "",
      "witness": [
        "e834d9d98a773e42650458964a8ef1e861fdce2b1273661baee26bbd61415cec0e9cdf7208c49198142e70d390fe50a362cee7029b006da1eb9621a6161228ba",
        "201ddd10c2ee81aea20b94515c346c4c875fa6db506e28fe8bfbc35290740e425bac0063036f7264010118746578742f706c61696e3b636861727365743d7574662d3800397b2270223a226272632d3230222c226f70223a227472616e73666572222c227469636b223a22736c6f72222c22616d74223a2231303030227d68",
        "c11ddd10c2ee81aea20b94515c346c4c875fa6db506e28fe8bfbc35290740e425b"
      ],
      "is_coinbase": false,
      "sequence": 4294967293
    }
  ],
  "vout": [
    {
      "scriptpubkey": "51209dead1c03201f35382995522bac27b2dad1f828411c66c177d7853cfadd3ba71",
      "scriptpubkey_asm": "OP_PUSHNUM_1 OP_PUSHBYTES_32 9dead1c03201f35382995522bac27b2dad1f828411c66c177d7853cfadd3ba71",
      "scriptpubkey_type": "v1_p2tr",
      "scriptpubkey_address": "bc1pnh4drspjq8e48q5e253t4snm9kk3lq5yz8rxc9ma0pfultwnhfcsv2jxxs",
      "value": 546
    }
  ],
  "size": 324,
  "weight": 606,
  "fee": 2584,
  "status": {
    "confirmed": true,
    "block_height": 834638,
    "block_hash": "000000000000000000025f742c626208ac87e0b7d15054abb4a19ca2d735a54e",
    "block_time": 1710405325
  },
  "hex": "0200000000010165f0ece8748e551e5269a92dffbce4eb6e462c9da10abed96c71150175918a830000000000fdffffff0122020000000000002251209dead1c03201f35382995522bac27b2dad1f828411c66c177d7853cfadd3ba710340e834d9d98a773e42650458964a8ef1e861fdce2b1273661baee26bbd61415cec0e9cdf7208c49198142e70d390fe50a362cee7029b006da1eb9621a6161228ba7f201ddd10c2ee81aea20b94515c346c4c875fa6db506e28fe8bfbc35290740e425bac0063036f7264010118746578742f706c61696e3b636861727365743d7574662d3800397b2270223a226272632d3230222c226f70223a227472616e73666572222c227469636b223a22736c6f72222c22616d74223a2231303030227d6821c11ddd10c2ee81aea20b94515c346c4c875fa6db506e28fe8bfbc35290740e425b00000000"
}