{
  "txid": "0f74c58e39cef7493b87318a2e6edbc8cf34ab3a0e83db5f43f40d7cc7af0d26",
  "version": 2,
  "locktime": 834637,
  "vin": [
    {
      "txid": "3130e1de4fa47a4bb3976388e0ad80d5d2e95ebf1de12a2a3484322aaed6df20",
      "vout": 1,
      "prevout": {
        "scriptpubkey": "00142360637cca09671af2bab4f832197c5aaf3e4e12",
        "scriptpubkey_asm": "OP_0 OP_PUSHBYTES_20 2360637cca09671af2bab4f832197c5aaf3e4e12",
        "scriptpubkey_type": "v0_p2wpkh",
        "scriptpubkey_address": "bc1qydsxxlx2p9n34u46knuryxtut2hnunsj80wpyl",
        "value": 290087530
      },
      "scriptsig": "",
      "scriptsig_asm": "",
      "witness": [
        "3044022067656f8eb587f57c7b4183cf08ea615d22c11b796dfe9405c2a3e0c5c148ceac022055737bb0b8700014096d06468cb269aec7aaf3850e6f0c5d10d0fb7b3fb0c53501",
        "03228900c3998e36812b3607252bc1002b37ecbb1447d2a3148fcbcf0099a2bacc"
      ],
      "is_coinbase": false,
      "sequence": 4294967294
    }
  ],
  "vout": [
    {
      "scriptpubkey": "001468d6d4a982d7b000aaf62dccf314131cfa8939d1",
      "scriptpubkey_asm": "OP_0 OP_PUSHBYTES_20 68d6d4a982d7b000aaf62dccf314131cfa8939d1",
      "scriptpubkey_type": "v0_p2wpkh",
      "scriptpubkey_address": "bc1qdrtdf2vz67cqp2hk9hx0x9qnrnagjww34x60hc",
      "value": 288982700
    },
    {
      "scriptpubkey": "76a91400d5cef976832a19254d7f920d9a8b3d6627008488ac",
      "scriptpubkey_asm": "OP_DUP OP_HASH160 OP_PUSHBYTES_20 00d5cef976832a19254d7f920d9a8b3d66270084 OP_EQUALVERIFY OP_CHECKSIG",
      "scriptpubkey_type": "p2pkh",
      "scriptpubkey_address": "115R8g8MhjxiAGmzp3rbfZWSZLxre7bTfD",
      "value": 1101300
    }
  ],
  "size": 225,
  "weight": 573,
  "fee": 3530,
  "status": {
    "confirmed": true,
    "block_height": 834638,
    "block_hash": "000000000000000000025f742c626208ac87e0b7d15054abb4a19ca2d735a54e",
    "block_time": 1710405325
  },
  "hex": "0200000000010120dfd6ae2a3284342a2ae11dbf5ee9d2d580ade0886397b34b7aa44fdee130310100000000feffffff02ac8639110000000016001468d6d4a982d7b000aaf62dccf314131cfa8939d1f4cd1000000000001976a91400d5cef976832a19254d7f920d9a8b3d6627008488ac02473044022067656f8eb587f57c7b4183cf08ea615d22c11b796dfe9405c2a3e0c5c148ceac022055737bb0b8700014096d06468cb269aec7aaf3850e6f0c5d10d0fb7b3fb0c535012103228900c3998e36812b3607252bc1002b37ecbb1447d2a3148fcbcf0099a2bacc4dbc0c00"
}