{
  "txid": "0f77aa190ff3ab7ec9d563cfd66173fce4850f2a349c6073fd0cd9123755dfe4",
  "version": 2,
  "locktime": 834637,
  "vin": [
    {
      "txid": "83c58937d81962c11ef39d84386438a80ec20b6f40eda53486f56c9c9a451d35",
      "vout": 0,
      "prevout": {
        "scriptpubkey": "001426b066bac35022ac2e263827dcd924188556af71",
        "scriptpubkey_asm": "OP_0 OP_PUSHBYTES_20 26b066bac35022ac2e263827dcd924188556af71",
        "scriptpubkey_type": "v0_p2wpkh",
        "scriptpubkey_address": "bc1qy6cxdwkr2q32ct3x8qnaekfyrzz4dtm393ywv2",
        "value": 263907704
      },
      "scriptsig": "",
      "scriptsig_asm": "",
      "witness": [
        "304402207d3b8691ab800e63b91fa81f38cdef1a8c07b3ebd65a87e06f043f1f0ef0482402201d349f303b5c849328e2f854c445f4153918e3b455b6ca6795db8d258a40445d01",
        "027b392608c0996a329d897cc98b665aa8c74cbec65b1f9bd5ffe512af021261e7"
      ],
      "is_coinbase": false,
      "sequence": 4294967294
    }
  ],
  "vout": [
    {
      "scriptpubkey": "0014ef4746463cfad7a2e94babcb460b940c16b598cc",
      "scriptpubkey_asm": "OP_0 OP_PUSHBYTES_20 ef4746463cfad7a2e94babcb460b940c16b598cc",
      "scriptpubkey_type": "v0_p2wpkh",
      "scriptpubkey_address": "bc1qaar5v33ultt6962t4095vzu5pstttxxv3ek9kz",
      "value": 413000
    },
    {
      "scriptpubkey": "0014317097366ace45d5fba92efa0d2e28c05da3cb05",
      "scriptpubkey_asm": "OP_0 OP_PUSHBYTES_20 317097366ace45d5fba92efa0d2e28c05da3cb05",
      "scriptpubkey_type": "v0_p2wpkh",
      "scriptpubkey_address": "bc1qx9cfwdn2eezat7af9maq6t3gcpw68jc9pevlht",
      "value": 263491248
    }
  ],
  "size": 222,
  "weight": 561,
  "fee": 3456,
  "status": {
    "confirmed": true,
    "block_height": 834638,
    "block_hash": "000000000000000000025f742c626208ac87e0b7d15054abb4a19ca2d735a54e",
    "block_time": 1710405325
  },
  "hex": "02000000000101351d459a9c6cf58634a5ed406f0bc20ea8386438849df31ec16219d83789c5830000000000feffffff02484d060000000000160014ef4746463cfad7a2e94babcb460b940c16b598ccb08eb40f00000000160014317097366ace45d5fba92efa0d2e28c05da3cb050247304402207d3b8691ab800e63b91fa81f38cdef1a8c07b3ebd65a87e06f043f1f0ef0482402201d349f303b5c849328e2f854c445f4153918e3b455b6ca6795db8d258a40445d0121027b392608c0996a329d897cc98b665aa8c74cbec65b1f9bd5ffe512af021261e74dbc0c00"
}