{
  "txid": "0f7b545a2d34c345ffc02b40b4a188ebfbbe286237d0d6a5dab7bfa4d368a4f3",
  "version": 2,
  "locktime": 0,
  "vin": [
    {
      "txid": "12848a1f84ad552475e874cce291926f292412de23b7537898e98c7370f2e86c",
      "vout": 10,
      "prevout": {
        "scriptpubkey": "5120f4f5cf7c67312b74c749c2d4bd452730e2296ff82445dac036e23e203f073b4a",
        "scriptpubkey_asm": "OP_PUSHNUM_1 OP_PUSHBYTES_32 f4f5cf7c67312b74c749c2d4bd452730e2296ff82445dac036e23e203f073b4a",
        "scriptpubkey_type": "v1_p2tr",
        "scriptpubkey_address": "bc1p7n6u7lr8xy4hf36fct2t63f8xr3zjmlcy3za4spkuglzq0c88d9qqwa9e3",
        "value": 2358
      },
      "scriptsig": "",
      "scriptsig_asm": "",
      "witness": [
        "a9ff200319f5eb6d606bbb0a1b1f041245cef1c4c37a64a707fb8a129259d5fb1878c8338dbfd8af19fbe6d63f5446f3f14a3704e353a72defd5ca13c10a821b",
        "20b56e2be17536b69fa97eb44e902bd4ef03c25f39a6695fca5d3f3bfd3e3567d4ac0063036f7264010118746578742f706c61696e3b636861727365743d7574662d3800377b2270223a226272632d3230222c226f70223a226d696e74222c227469636b223a22424f424f222c22616d74223a22313030303030227d68",
        "c0507504f881a2548efcb0bd8b5287fd78c473d5bd35b181abdd5c5cd6d10de204"
      ],
      "is_coinbase": false,
      "sequence": 4294967295
    }
  ],
  "vout": [
    {
      "scriptpubkey": "512048d62e6aa4ce9b4b4d760b1dc0c3e46b46d84be76ae456792a664139e7aaa19c",
      "scriptpubkey_asm": "OP_PUSHNUM_1 OP_PUSHBYTES_32 48d62e6aa4ce9b4b4d760b1dc0c3e46b46d84be76ae456792a664139e7aaa19c",
      "scriptpubkey_type": "v1_p2tr",
      "scriptpubkey_address": "bc1pfrtzu64ye6d5kntkpvwupslyddrdsjl8dtj9v7f2veqnnea25xwqu8ycu4",
      "value": 546
    }
  ],
  "size": 322,
  "weight": 604,
  "fee": 1812,
  "status": {
    "confirmed": true,
    "block_height": 834460,
    "block_hash": "00000000000000000000484a79b643b2524bbce82e5d8a442013fa5b8905ed98",
    "block_time": 1710307468
  },
  "hex": "020000000001016ce8f270738ce9987853b723de1224296f9291e2cc74e8752455ad841f8a84120a00000000ffffffff01220200000000000022512048d62e6aa4ce9b4b4d760b1dc0c3e46b46d84be76ae456792a664139e7aaa19c0340a9ff200319f5eb6d606bbb0a1b1f041245cef1c4c37a64a707fb8a129259d5fb1878c8338dbfd8af19fbe6d63f5446f3f14a3704e353a72defd5ca13c10a821b7d20b56e2be17536b69fa97eb44e902bd4ef03c25f39a6695fca5d3f3bfd3e3567d4ac0063036f7264010118746578742f706c61696e3b636861727365743d7574662d3800377b2270223a226272632d3230222c226f70223a226d696e74222c227469636b223a22424f424f222c22616d74223a22313030303030227d6821c0507504f881a2548efcb0bd8b5287fd78c473d5bd35b181abdd5c5cd6d10de20400000000"
}