{
  "txid": "0f87e62132ede1f231d8194ad4f5f16c1a5ed32652bc58be70c29b243a57bf81",
  "version": 2,
  "locktime": 0,
  "vin": [
    {
      "txid": "1bfadc51dbc52bb4f743450122901fec4f2b54f1b33f9a78e764b844baf5515a",
      "vout": 16,
      "prevout": {
        "scriptpubkey": "0014404e9a897e2f38d0ea4fe7677cc06e4287daf322",
        "scriptpubkey_asm": "OP_0 OP_PUSHBYTES_20 404e9a897e2f38d0ea4fe7677cc06e4287daf322",
        "scriptpubkey_type": "v0_p2wpkh",
        "scriptpubkey_address": "bc1qgp8f4zt79uudp6j0uanhesrwg2ra4uez0zy8yf",
        "value": 100135950
      },
      "scriptsig": "",
      "scriptsig_asm": "",
      "witness": [
        "304402203f0a0c74fdf7f8d09bfc1ab1b9103ce18477ec09b69848156f4db5a86ac3837002207aec3ebab6177d29755f42b4542cbbacbc3421deaaf57d4e13c0d4e46189ee8d01",
        "02981c81a3976e8e1206883c3e0000f7c78c38a718dbf71f20a3aad6e27e3819f3"
      ],
      "is_coinbase": false,
      "sequence": 0
    },
    {
      "txid": "5f7f734e9e363eff58a62ddd47513af5450c8d81685672ee36c06c83d33de036",
      "vout": 1,
      "prevout": {
        "scriptpubkey": "00146b40a232553e5d72211ae87e4e41beca55cfb717",
        "scriptpubkey_asm": "OP_0 OP_PUSHBYTES_20 6b40a232553e5d72211ae87e4e41beca55cfb717",
        "scriptpubkey_type": "v0_p2wpkh",
        "scriptpubkey_address": "bc1qddq2yvj48ewhygg6aplyusd7ef2uldchaasgak",
        "value": 104697113
      },
      "scriptsig": "",
      "scriptsig_asm": "",
      "witness": [
        "3045022100a7664a3b940cd386bdf6740bd1f96fe089b8e4f2c9f6391d5c3f30eefce4285d022062f4b81d4205bf6872e2db89b0a0de3f9783314d3ebd0a1970873bd7b47e70b501",
        "03af44345cbd16821a9943444ddbc43dd1ec1fd647bce59d02add0e0a8cc2dec25"
      ],
      "is_coinbase": false,
      "sequence": 0
    }
  ],
  "vout": [
    {
      "scriptpubkey": "76a91406ef63f44872c379368bd656f93cda82ae21b52e88ac",
      "scriptpubkey_asm": "OP_DUP OP_HASH160 OP_PUSHBYTES_20 06ef63f44872c379368bd656f93cda82ae21b52e OP_EQUALVERIFY OP_CHECKSIG",
      "scriptpubkey_type": "p2pkh",
      "scriptpubkey_address": "1dfqHsCRxpXAVcQ3aH6aJB1G8pNPm1D65",
      "value": 204000000
    },
    {
      "scriptpubkey": "0014b543e9fca084dd34971a72f0df5e3dc2dfc86c22",
      "scriptpubkey_asm": "OP_0 OP_PUSHBYTES_20 b543e9fca084dd34971a72f0df5e3dc2dfc86c22",
      "scriptpubkey_type": "v0_p2wpkh",
      "scriptpubkey_address": "bc1qk4p7nl9qsnwnf9c6wtcd7h3act0usmpzl07zyx",
      "value": 827312
    }
  ],
  "size": 374,
  "weight": 845,
  "fee": 5751,
  "status": {
    "confirmed": true,
    "block_height": 834638,
    "block_hash": "000000000000000000025f742c626208ac87e0b7d15054abb4a19ca2d735a54e",
    "block_time": 1710405325
  },
  "hex": "020000000001025a51f5ba44b864e7789a3fb3f1542b4fec1f9022014543f7b42bc5db51dcfa1b10000000000000000036e03dd3836cc036ee725668818d0c45f53a5147dd2da658ff3e369e4e737f5f0100000000000000000200cb280c000000001976a91406ef63f44872c379368bd656f93cda82ae21b52e88acb09f0c0000000000160014b543e9fca084dd34971a72f0df5e3dc2dfc86c220247304402203f0a0c74fdf7f8d09bfc1ab1b9103ce18477ec09b69848156f4db5a86ac3837002207aec3ebab6177d29755f42b4542cbbacbc3421deaaf57d4e13c0d4e46189ee8d012102981c81a3976e8e1206883c3e0000f7c78c38a718dbf71f20a3aad6e27e3819f302483045022100a7664a3b940cd386bdf6740bd1f96fe089b8e4f2c9f6391d5c3f30eefce4285d022062f4b81d4205bf6872e2db89b0a0de3f9783314d3ebd0a1970873bd7b47e70b5012103af44345cbd16821a9943444ddbc43dd1ec1fd647bce59d02add0e0a8cc2dec2500000000"
}