{
  "txid": "0f95236f5fe00f99cc298898414505efe544c524e5fe5fbd8b407d3330abea64",
  "version": 2,
  "locktime": 0,
  "vin": [
    {
      "txid": "573166c074d1f9d97e74b7e445ae9eee4071bb54005e0e28be99fe4fa5597b23",
      "vout": 32,
      "prevout": {
        "scriptpubkey": "512027144f03c04ab1a7ef7beec4f3a6251bbdf22fa0ff15c8c38f094459914b411c",
        "scriptpubkey_asm": "OP_PUSHNUM_1 OP_PUSHBYTES_32 27144f03c04ab1a7ef7beec4f3a6251bbdf22fa0ff15c8c38f094459914b411c",
        "scriptpubkey_type": "v1_p2tr",
        "scriptpubkey_address": "bc1pyu2y7q7qf2c60mmmamz08f39rw7lytaqlu2u3su0p9z9ny2tgywqxeq5kg",
        "value": 3055
      },
      "scriptsig": "",
      "scriptsig_asm": "",
      "witness": [
        "39e307d150d8f6d1047a5acd885f4a723090677fe2f37a0714eed773d199049c4c9d0f998f40f75490711e333fe31381205b011696ad1a13fde42cb1ec7380f1",
        "2028c10cf8ca6ec07c5af343e882abad94ef6bacbbbe07018f38b3c46cd7b9a1a7ac0063036f726401011e6170706c69636174696f6e2f6a736f6e3b636861727365743d7574662d38004cd37b2270223a22706f772d3230222c226f70223a226d696e74222c227469636b223a2250455045222c22616d74223a2231303030222c22736f6c7574696f6e223a22504550453a6263317070376e727a37746333726c6d6d72373773676a6b6b7561677073323971776830617261393430777a616878666b6d6e61687770717877667139703a303030303030303030303030303030303030303139393431613561653132383937363539383134343239323533333030353762306461393666336465613163353a3231323337313138393330227d68",
        "c1f1b4027b27384657c547a9d6289f3be45ec463ffc50ccbf57ef9c2d60d2b0f32"
      ],
      "is_coinbase": false,
      "sequence": 4294967295
    }
  ],
  "vout": [
    {
      "scriptpubkey": "51200fa631797888ffbd8fde82256b73a80c14503aefe8fa5abdc2edcc9b6e7dbb82",
      "scriptpubkey_asm": "OP_PUSHNUM_1 OP_PUSHBYTES_32 0fa631797888ffbd8fde82256b73a80c14503aefe8fa5abdc2edcc9b6e7dbb82",
      "scriptpubkey_type": "v1_p2tr",
      "scriptpubkey_address": "bc1pp7nrz7tc3rlmmr77sgjkkuagps29qwh0ara940wzahxfkmnahwpqxwfq9p",
      "value": 546
    }
  ],
  "size": 487,
  "weight": 769,
  "fee": 2509,
  "status": {
    "confirmed": true,
    "block_height": 834460,
    "block_hash": "00000000000000000000484a79b643b2524bbce82e5d8a442013fa5b8905ed98",
    "block_time": 1710307468
  },
  "hex": "02000000000101237b59a54ffe99be280e5e0054bb7140ee9eae45e4b7747ed9f9d174c06631572000000000ffffffff0122020000000000002251200fa631797888ffbd8fde82256b73a80c14503aefe8fa5abdc2edcc9b6e7dbb82034039e307d150d8f6d1047a5acd885f4a723090677fe2f37a0714eed773d199049c4c9d0f998f40f75490711e333fe31381205b011696ad1a13fde42cb1ec7380f1fd20012028c10cf8ca6ec07c5af343e882abad94ef6bacbbbe07018f38b3c46cd7b9a1a7ac0063036f726401011e6170706c69636174696f6e2f6a736f6e3b636861727365743d7574662d38004cd37b2270223a22706f772d3230222c226f70223a226d696e74222c227469636b223a2250455045222c22616d74223a2231303030222c22736f6c7574696f6e223a22504550453a6263317070376e727a37746333726c6d6d72373773676a6b6b7561677073323971776830617261393430777a616878666b6d6e61687770717877667139703a303030303030303030303030303030303030303139393431613561653132383937363539383134343239323533333030353762306461393666336465613163353a3231323337313138393330227d6821c1f1b4027b27384657c547a9d6289f3be45ec463ffc50ccbf57ef9c2d60d2b0f3200000000"
}