{
  "txid": "0f9d246f968425d82d181e49d8e450be32c5bb712cdddd6d84e919b6f3c20cbc",
  "version": 2,
  "locktime": 834458,
  "vin": [
    {
      "txid": "c3786136a64e0d6b40cde9f291671bb520adf52b920a354a26951e646a6b59bf",
      "vout": 96,
      "prevout": {
        "scriptpubkey": "00148bb8ae4f86c738c531e1143ec7cb5791c518b3b2",
        "scriptpubkey_asm": "OP_0 OP_PUSHBYTES_20 8bb8ae4f86c738c531e1143ec7cb5791c518b3b2",
        "scriptpubkey_type": "v0_p2wpkh",
        "scriptpubkey_address": "bc1q3wu2unuxcuuv2v0pzslv0j6hj8z33vajpj2mrt",
        "value": 262169
      },
      "scriptsig": "",
      "scriptsig_asm": "",
      "witness": [
        "304402206bc9f22f3de31fc54a4c05e9a26978e71e33ec82e83340851f2ebfff89fa60bc022010ecc8f9cfd05359c785d9c51cd9a6c978c112277125c68655bda2f678def4e301",
        "0228830a5b26cd85b6c1f2b5494856b45ccd916c061de926a4fb0a9dafd66e4a03"
      ],
      "is_coinbase": false,
      "sequence": 4294967293
    }
  ],
  "vout": [
    {
      "scriptpubkey": "0014fd9a8e92b12f6dccf175edb74a526c39e247108d",
      "scriptpubkey_asm": "OP_0 OP_PUSHBYTES_20 fd9a8e92b12f6dccf175edb74a526c39e247108d",
      "scriptpubkey_type": "v0_p2wpkh",
      "scriptpubkey_address": "bc1qlkdgay439akueut4akm555nv883ywyydft2nse",
      "value": 260618
    }
  ],
  "size": 191,
  "weight": 437,
  "fee": 1551,
  "status": {
    "confirmed": true,
    "block_height": 834460,
    "block_hash": "00000000000000000000484a79b643b2524bbce82e5d8a442013fa5b8905ed98",
    "block_time": 1710307468
  },
  "hex": "02000000000101bf596b6a641e95264a350a922bf5ad20b51b6791f2e9cd406b0d4ea6366178c36000000000fdffffff010afa030000000000160014fd9a8e92b12f6dccf175edb74a526c39e247108d0247304402206bc9f22f3de31fc54a4c05e9a26978e71e33ec82e83340851f2ebfff89fa60bc022010ecc8f9cfd05359c785d9c51cd9a6c978c112277125c68655bda2f678def4e301210228830a5b26cd85b6c1f2b5494856b45ccd916c061de926a4fb0a9dafd66e4a039abb0c00"
}