{
  "txid": "0fa17676ce16a01098aaf5e36acb05fc1e5c79e2d5cd6b2f5f1bd7bc5e119834",
  "version": 2,
  "locktime": 0,
  "vin": [
    {
      "txid": "28e880772c9f6300ee90d58cfe27f92327d763fcb1492f43d3e5957fa9f41850",
      "vout": 126,
      "prevout": {
        "scriptpubkey": "0014ffa0cbd879804a010d5cfb94458ff563345be5d9",
        "scriptpubkey_asm": "OP_0 OP_PUSHBYTES_20 ffa0cbd879804a010d5cfb94458ff563345be5d9",
        "scriptpubkey_type": "v0_p2wpkh",
        "scriptpubkey_address": "bc1ql7svhkresp9qzr2ulw2ytrl4vv69hewe7thc4j",
        "value": 222053
      },
      "scriptsig": "",
      "scriptsig_asm": "",
      "witness": [
        "3045022100f977dd647123701983e344bf5e06a2a6565573b472c913cc3b579fd0165f1f6b022030fb840d3ee796fd2eac739f73308ab31015119cd3323e334bec5cd2520b562f01",
        "03f814e5b6fed5c490d0bfdb9150883ec0d733a7d388a784ee0784a2a944343319"
      ],
      "is_coinbase": false,
      "sequence": 4294967295
    },
    {
      "txid": "26263432e820a143c9f44662eaba663333dcc81cedf97d3f9a4a8602eaad4f5a",
      "vout": 180,
      "prevout": {
        "scriptpubkey": "0014ffa0cbd879804a010d5cfb94458ff563345be5d9",
        "scriptpubkey_asm": "OP_0 OP_PUSHBYTES_20 ffa0cbd879804a010d5cfb94458ff563345be5d9",
        "scriptpubkey_type": "v0_p2wpkh",
        "scriptpubkey_address": "bc1ql7svhkresp9qzr2ulw2ytrl4vv69hewe7thc4j",
        "value": 160233
      },
      "scriptsig": "",
      "scriptsig_asm": "",
      "witness": [
        "30450221009f237b8ebe365021b25ac04ca260a23746ab650685a704dd68b97e24b6d49e540220695c159fbea5417a33a824bcef13592eead3ebc98187ed5fcb3fcd7de5f0045d01",
        "03f814e5b6fed5c490d0bfdb9150883ec0d733a7d388a784ee0784a2a944343319"
      ],
      "is_coinbase": false,
      "sequence": 4294967295
    }
  ],
  "vout": [
    {
      "scriptpubkey": "0014e42d89d56415f2b57d6a856b5737617b2c6322f8",
      "scriptpubkey_asm": "OP_0 OP_PUSHBYTES_20 e42d89d56415f2b57d6a856b5737617b2c6322f8",
      "scriptpubkey_type": "v0_p2wpkh",
      "scriptpubkey_address": "bc1quskcn4tyzhet2lt2s444wdmp0vkxxghcgvval5",
      "value": 379692
    }
  ],
  "size": 341,
  "weight": 710,
  "fee": 2594,
  "status": {
    "confirmed": true,
    "block_height": 834460,
    "block_hash": "00000000000000000000484a79b643b2524bbce82e5d8a442013fa5b8905ed98",
    "block_time": 1710307468
  },
  "hex": "020000000001025018f4a97f95e5d3432f49b1fc63d72723f927fe8cd590ee00639f2c7780e8287e00000000ffffffff5a4fadea02864a9a3f7df9ed1cc8dc333366baea6246f4c943a120e832342626b400000000ffffffff012ccb050000000000160014e42d89d56415f2b57d6a856b5737617b2c6322f802483045022100f977dd647123701983e344bf5e06a2a6565573b472c913cc3b579fd0165f1f6b022030fb840d3ee796fd2eac739f73308ab31015119cd3323e334bec5cd2520b562f012103f814e5b6fed5c490d0bfdb9150883ec0d733a7d388a784ee0784a2a944343319024830450221009f237b8ebe365021b25ac04ca260a23746ab650685a704dd68b97e24b6d49e540220695c159fbea5417a33a824bcef13592eead3ebc98187ed5fcb3fcd7de5f0045d012103f814e5b6fed5c490d0bfdb9150883ec0d733a7d388a784ee0784a2a94434331900000000"
}