{
  "txid": "0fa45a4d4c0e916541612d6ad5fa60602581d204e70746a6292961f7939a5b4a",
  "version": 2,
  "locktime": 0,
  "vin": [
    {
      "txid": "3d0d73f7f8d16bcbbc48b30b491189ed0469215061ab749cdf96cfe75bb19ce9",
      "vout": 1,
      "prevout": {
        "scriptpubkey": "512038f7e10269a62117da1347a604cd42d33f208f8d7bea0e7a278cf8d8c3588c3c",
        "scriptpubkey_asm": "OP_PUSHNUM_1 OP_PUSHBYTES_32 38f7e10269a62117da1347a604cd42d33f208f8d7bea0e7a278cf8d8c3588c3c",
        "scriptpubkey_type": "v1_p2tr",
        "scriptpubkey_address": "bc1p8rm7zqnf5cs30ksng7nqfn2z6vljprud004qu7383nud3s6c3s7qx8t4tw",
        "value": 78399
      },
      "scriptsig": "",
      "scriptsig_asm": "",
      "witness": [
        "7f1d0949639cfdc6e77f3b035ccd6de7ec1a02c1d5a0cfc32842cf610142182699e8b8d607e3ce7a6e7a738bb0747ad0e868b8c6688e354f23d7913e7ca48607"
      ],
      "is_coinbase": false,
      "sequence": 4294967293
    }
  ],
  "vout": [
    {
      "scriptpubkey": "51204cba50238b63af6e4de27e253cbf8e004906b2b536f0ac611c6c003865de1af6",
      "scriptpubkey_asm": "OP_PUSHNUM_1 OP_PUSHBYTES_32 4cba50238b63af6e4de27e253cbf8e004906b2b536f0ac611c6c003865de1af6",
      "scriptpubkey_type": "v1_p2tr",
      "scriptpubkey_address": "bc1pfja9qgutvwhkun0z0cjne0uwqpysdv44xmc2ccgudsqrsew7rtmqzlwr7t",
      "value": 3130
    },
    {
      "scriptpubkey": "512038f7e10269a62117da1347a604cd42d33f208f8d7bea0e7a278cf8d8c3588c3c",
      "scriptpubkey_asm": "OP_PUSHNUM_1 OP_PUSHBYTES_32 38f7e10269a62117da1347a604cd42d33f208f8d7bea0e7a278cf8d8c3588c3c",
      "scriptpubkey_type": "v1_p2tr",
      "scriptpubkey_address": "bc1p8rm7zqnf5cs30ksng7nqfn2z6vljprud004qu7383nud3s6c3s7qx8t4tw",
      "value": 72651
    }
  ],
  "size": 205,
  "weight": 616,
  "fee": 2618,
  "status": {
    "confirmed": true,
    "block_height": 834638,
    "block_hash": "000000000000000000025f742c626208ac87e0b7d15054abb4a19ca2d735a54e",
    "block_time": 1710405325
  },
  "hex": "02000000000101e99cb15be7cf96df9c74ab6150216904ed8911490bb348bccb6bd1f8f7730d3d0100000000fdffffff023a0c0000000000002251204cba50238b63af6e4de27e253cbf8e004906b2b536f0ac611c6c003865de1af6cb1b01000000000022512038f7e10269a62117da1347a604cd42d33f208f8d7bea0e7a278cf8d8c3588c3c01407f1d0949639cfdc6e77f3b035ccd6de7ec1a02c1d5a0cfc32842cf610142182699e8b8d607e3ce7a6e7a738bb0747ad0e868b8c6688e354f23d7913e7ca4860700000000"
}