{
  "txid": "0fbc97ea33417d675744066d45fe70e7136ccca645bf88a3c1dbff3745ccfaad",
  "version": 1,
  "locktime": 0,
  "vin": [
    {
      "txid": "ad37195ce91e6649a683ba4d2394d0115be67ef8d34609e34cf072ee563e4898",
      "vout": 0,
      "prevout": {
        "scriptpubkey": "51204131c169e7f421303ac01ec8388d3ef5abf2a3bc4176962f29cb01aedc77c55a",
        "scriptpubkey_asm": "OP_PUSHNUM_1 OP_PUSHBYTES_32 4131c169e7f421303ac01ec8388d3ef5abf2a3bc4176962f29cb01aedc77c55a",
        "scriptpubkey_type": "v1_p2tr",
        "scriptpubkey_address": "bc1pgycuz6087ssnqwkqrmyr3rf77k4l9gaug9mfvtefevq6ahrhc4dqhahl0g",
        "value": 2346
      },
      "scriptsig": "",
      "scriptsig_asm": "",
      "witness": [
        "005b5873eebff7298506641ce5cf1ab8721276c53e3e797237ef5869bed677de7eb0fdd911f3a47f1d59da436e99e26ae929ddc143f528bb9b28b7bcad372b5a",
        "20fdb4a2f2ac2be77a9056c236d4048f3c28716447099b9cb0727270fd30c6c801ac0063036f726401010a746578742f706c61696e003e7b2270223a226272632d3230222c226f70223a227472616e73666572222c227469636b223a2253415453222c22616d74223a22313030303030303030227d68",
        "c0fdb4a2f2ac2be77a9056c236d4048f3c28716447099b9cb0727270fd30c6c801"
      ],
      "is_coinbase": false,
      "sequence": 4294967293
    }
  ],
  "vout": [
    {
      "scriptpubkey": "5120ad841b457a8b7ae4d64af259083e8d5201b99c81cdf2071b985a747a42049656",
      "scriptpubkey_asm": "OP_PUSHNUM_1 OP_PUSHBYTES_32 ad841b457a8b7ae4d64af259083e8d5201b99c81cdf2071b985a747a42049656",
      "scriptpubkey_type": "v1_p2tr",
      "scriptpubkey_address": "bc1p4kzpk3t63dawf4j27fvss05d2gqmn8ypeheqwxuctf685ssyjetqg3lt4s",
      "value": 546
    }
  ],
  "size": 315,
  "weight": 597,
  "fee": 1800,
  "status": {
    "confirmed": true,
    "block_height": 834460,
    "block_hash": "00000000000000000000484a79b643b2524bbce82e5d8a442013fa5b8905ed98",
    "block_time": 1710307468
  },
  "hex": "0100000000010198483e56ee72f04ce30946d3f87ee65b11d094234dba83a649661ee95c1937ad0000000000fdffffff012202000000000000225120ad841b457a8b7ae4d64af259083e8d5201b99c81cdf2071b985a747a420496560340005b5873eebff7298506641ce5cf1ab8721276c53e3e797237ef5869bed677de7eb0fdd911f3a47f1d59da436e99e26ae929ddc143f528bb9b28b7bcad372b5a7620fdb4a2f2ac2be77a9056c236d4048f3c28716447099b9cb0727270fd30c6c801ac0063036f726401010a746578742f706c61696e003e7b2270223a226272632d3230222c226f70223a227472616e73666572222c227469636b223a2253415453222c22616d74223a22313030303030303030227d6821c0fdb4a2f2ac2be77a9056c236d4048f3c28716447099b9cb0727270fd30c6c80100000000"
}