{
  "txid": "0fbfd137a64949ea2564fdc4dd3fcdedcf5fd35566495cf6a3d88b4e56a0b992",
  "version": 2,
  "locktime": 0,
  "vin": [
    {
      "txid": "4f8545e4615c3391c891b65b7da6842c1266b744bf498deaa6c837081e431329",
      "vout": 0,
      "prevout": {
        "scriptpubkey": "5120dba28cb92bcaccbdacca2800d0da7400c9f5a55f846ef9b0235559c4981548fe",
        "scriptpubkey_asm": "OP_PUSHNUM_1 OP_PUSHBYTES_32 dba28cb92bcaccbdacca2800d0da7400c9f5a55f846ef9b0235559c4981548fe",
        "scriptpubkey_type": "v1_p2tr",
        "scriptpubkey_address": "bc1pmw3gewftetxtmtx29qqdpkn5qryltf2ls3h0nvpr24vufxq4frlqnfy7qj",
        "value": 330
      },
      "scriptsig": "",
      "scriptsig_asm": "",
      "witness": [
        "1f55620964944923a88f18b36e8fa84f645922d1617ccee73e299c9cc49753671c56405a5198510c62edd2f65b23f677230c37e7f7e6c4bd4cd7d67dcd32fd9f"
      ],
      "is_coinbase": false,
      "sequence": 4294967295
    },
    {
      "txid": "fe00cc70376ff388e16b1089785a4d8fbd399b0800da9b8f98dba9c9252e0e53",
      "vout": 1,
      "prevout": {
        "scriptpubkey": "5120dba28cb92bcaccbdacca2800d0da7400c9f5a55f846ef9b0235559c4981548fe",
        "scriptpubkey_asm": "OP_PUSHNUM_1 OP_PUSHBYTES_32 dba28cb92bcaccbdacca2800d0da7400c9f5a55f846ef9b0235559c4981548fe",
        "scriptpubkey_type": "v1_p2tr",
        "scriptpubkey_address": "bc1pmw3gewftetxtmtx29qqdpkn5qryltf2ls3h0nvpr24vufxq4frlqnfy7qj",
        "value": 2932690
      },
      "scriptsig": "",
      "scriptsig_asm": "",
      "witness": [
        "3b4d90c25d9315e4d29782f10bcc4eb0dc8db0a9ca13181def398fedafe252a29a163ed162cfd70286da6d2cac6a8d1488d1785bf6d1c91c4806b28ae589f12e"
      ],
      "is_coinbase": false,
      "sequence": 4294967295
    }
  ],
  "vout": [
    {
      "scriptpubkey": "5120dba28cb92bcaccbdacca2800d0da7400c9f5a55f846ef9b0235559c4981548fe",
      "scriptpubkey_asm": "OP_PUSHNUM_1 OP_PUSHBYTES_32 dba28cb92bcaccbdacca2800d0da7400c9f5a55f846ef9b0235559c4981548fe",
      "scriptpubkey_type": "v1_p2tr",
      "scriptpubkey_address": "bc1pmw3gewftetxtmtx29qqdpkn5qryltf2ls3h0nvpr24vufxq4frlqnfy7qj",
      "value": 330
    },
    {
      "scriptpubkey": "5120dba28cb92bcaccbdacca2800d0da7400c9f5a55f846ef9b0235559c4981548fe",
      "scriptpubkey_asm": "OP_PUSHNUM_1 OP_PUSHBYTES_32 dba28cb92bcaccbdacca2800d0da7400c9f5a55f846ef9b0235559c4981548fe",
      "scriptpubkey_type": "v1_p2tr",
      "scriptpubkey_address": "bc1pmw3gewftetxtmtx29qqdpkn5qryltf2ls3h0nvpr24vufxq4frlqnfy7qj",
      "value": 2929722
    }
  ],
  "size": 312,
  "weight": 846,
  "fee": 2968,
  "status": {
    "confirmed": true,
    "block_height": 834638,
    "block_hash": "000000000000000000025f742c626208ac87e0b7d15054abb4a19ca2d735a54e",
    "block_time": 1710405325
  },
  "hex": "020000000001022913431e0837c8a6ea8d49bf44b766122c84a67d5bb691c891335c61e445854f0000000000ffffffff530e2e25c9a9db988f9bda00089b39bd8f4d5a7889106be188f36f3770cc00fe0100000000ffffffff024a01000000000000225120dba28cb92bcaccbdacca2800d0da7400c9f5a55f846ef9b0235559c4981548fe3ab42c0000000000225120dba28cb92bcaccbdacca2800d0da7400c9f5a55f846ef9b0235559c4981548fe01401f55620964944923a88f18b36e8fa84f645922d1617ccee73e299c9cc49753671c56405a5198510c62edd2f65b23f677230c37e7f7e6c4bd4cd7d67dcd32fd9f01403b4d90c25d9315e4d29782f10bcc4eb0dc8db0a9ca13181def398fedafe252a29a163ed162cfd70286da6d2cac6a8d1488d1785bf6d1c91c4806b28ae589f12e00000000"
}