{
  "txid": "0fdfdce7a90db27147ee168103b36985f61ad43065fe6664951c5861d361c5aa",
  "version": 2,
  "locktime": 0,
  "vin": [
    {
      "txid": "c10e48caeee8756d57fbce0e4f26c1d08bb9f0d4a35c2d26269682da8df04dac",
      "vout": 64,
      "prevout": {
        "scriptpubkey": "51200b13d547434651c50b3775ab0f581eaf16f851bce6c646e6da4cda774f67dfd3",
        "scriptpubkey_asm": "OP_PUSHNUM_1 OP_PUSHBYTES_32 0b13d547434651c50b3775ab0f581eaf16f851bce6c646e6da4cda774f67dfd3",
        "scriptpubkey_type": "v1_p2tr",
        "scriptpubkey_address": "bc1ppvfa236rgegu2zehwk4s7kq74ut0s5duumrydek6fnd8wnm8mlfsjwxlq0",
        "value": 3634
      },
      "scriptsig": "",
      "scriptsig_asm": "",
      "witness": [
        "62a006b9b8b42c537b3e48ef54144104d6d4f8051033d6f26f4a8a857d5da3f6272fc97198cacc158e7f3d4468bd5c2cd1f3bc6687b1d16b14f6930da5c21cf1",
        "20b23b25c059543fec62644e84c8cac0e7cf10fbe947b5d284648d7c2e821ea1f1ac0063036f726401011e6170706c69636174696f6e2f6a736f6e3b636861727365743d7574662d38004cd37b2270223a22706f772d3230222c226f70223a226d696e74222c227469636b223a2250455045222c22616d74223a2231303030222c22736f6c7574696f6e223a22504550453a6263317071336e67663775716e73667434706d37357236397371616c6c30637068747278677773757a6d657864356c337039333566366d713666337664383a303030303030303030303030303030303030303139393431613561653132383937363539383134343239323533333030353762306461393666336465613163353a3133333834343833353133227d68",
        "c1406c0f2a67700582b42f36a71eb03478d57ba1acdc179ee1ec758acb282de3fd"
      ],
      "is_coinbase": false,
      "sequence": 4294967295
    }
  ],
  "vout": [
    {
      "scriptpubkey": "5120046684fb809c12ba877ea0f45803bffbf01bac6643a1c16f266d3f1096344eb6",
      "scriptpubkey_asm": "OP_PUSHNUM_1 OP_PUSHBYTES_32 046684fb809c12ba877ea0f45803bffbf01bac6643a1c16f266d3f1096344eb6",
      "scriptpubkey_type": "v1_p2tr",
      "scriptpubkey_address": "bc1pq3ngf7uqnsft4pm75r69sqall0cphtrxgwsuzmexd5l3p935f6mq6f3vd8",
      "value": 546
    }
  ],
  "size": 487,
  "weight": 769,
  "fee": 3088,
  "status": {
    "confirmed": true,
    "block_height": 834460,
    "block_hash": "00000000000000000000484a79b643b2524bbce82e5d8a442013fa5b8905ed98",
    "block_time": 1710307468
  },
  "hex": "02000000000101ac4df08dda829626262d5ca3d4f0b98bd0c1264f0ecefb576d75e8eeca480ec14000000000ffffffff012202000000000000225120046684fb809c12ba877ea0f45803bffbf01bac6643a1c16f266d3f1096344eb6034062a006b9b8b42c537b3e48ef54144104d6d4f8051033d6f26f4a8a857d5da3f6272fc97198cacc158e7f3d4468bd5c2cd1f3bc6687b1d16b14f6930da5c21cf1fd200120b23b25c059543fec62644e84c8cac0e7cf10fbe947b5d284648d7c2e821ea1f1ac0063036f726401011e6170706c69636174696f6e2f6a736f6e3b636861727365743d7574662d38004cd37b2270223a22706f772d3230222c226f70223a226d696e74222c227469636b223a2250455045222c22616d74223a2231303030222c22736f6c7574696f6e223a22504550453a6263317071336e67663775716e73667434706d37357236397371616c6c30637068747278677773757a6d657864356c337039333566366d713666337664383a303030303030303030303030303030303030303139393431613561653132383937363539383134343239323533333030353762306461393666336465613163353a3133333834343833353133227d6821c1406c0f2a67700582b42f36a71eb03478d57ba1acdc179ee1ec758acb282de3fd00000000"
}