{
  "txid": "0fefa630628a364ec08b79ad9b69dc21aee9e38eef87e3e758ed8c352967e1d7",
  "version": 2,
  "locktime": 0,
  "vin": [
    {
      "txid": "659b82bf51c32df260f3e3563d90fcbcb0098209af4d18020ca9e1a619ccc8c8",
      "vout": 2,
      "prevout": {
        "scriptpubkey": "51201b3da80ea6a0c056050b63d0df75c65410b18c81d5c3095f808ba4267f634bf6",
        "scriptpubkey_asm": "OP_PUSHNUM_1 OP_PUSHBYTES_32 1b3da80ea6a0c056050b63d0df75c65410b18c81d5c3095f808ba4267f634bf6",
        "scriptpubkey_type": "v1_p2tr",
        "scriptpubkey_address": "bc1prv76sr4x5rq9vpgtv0gd7awx2sgtrryp6hpsjhuq3wjzvlmrf0mqth29jl",
        "value": 1931
      },
      "scriptsig": "",
      "scriptsig_asm": "",
      "witness": [
        "370fc1f0e6ee638509f9035119851eee5d609946509c979001865c11e5f63f5c1777c77648fb32b78c35c8340103c6d72ea562e8186590f24141c77d182d7bb9",
        "20af135a356182a42e50f6b2229cf76a6aee983472f6787c7bd67cd4142edfdc97ac0063036f726401010a746578742f706c61696e00367b2270223a226272632d3230222c226f70223a226d696e74222c227469636b223a2261616161222c22616d74223a223130303030227d68",
        "c1af135a356182a42e50f6b2229cf76a6aee983472f6787c7bd67cd4142edfdc97"
      ],
      "is_coinbase": false,
      "sequence": 4261412863
    }
  ],
  "vout": [
    {
      "scriptpubkey": "0014be9f0c070a9b1bd40f5fcb06fba89738d936ceb6",
      "scriptpubkey_asm": "OP_0 OP_PUSHBYTES_20 be9f0c070a9b1bd40f5fcb06fba89738d936ceb6",
      "scriptpubkey_type": "v0_p2wpkh",
      "scriptpubkey_address": "bc1qh60scpc2nvdagr6levr0h2yh8rvndn4k4v5s9g",
      "value": 294
    }
  ],
  "size": 295,
  "weight": 541,
  "fee": 1637,
  "status": {
    "confirmed": true,
    "block_height": 834460,
    "block_hash": "00000000000000000000484a79b643b2524bbce82e5d8a442013fa5b8905ed98",
    "block_time": 1710307468
  },
  "hex": "02000000000101c8c8cc19a6e1a90c02184daf098209b0bcfc903d56e3f360f22dc351bf829b650200000000fffffffd012601000000000000160014be9f0c070a9b1bd40f5fcb06fba89738d936ceb60340370fc1f0e6ee638509f9035119851eee5d609946509c979001865c11e5f63f5c1777c77648fb32b78c35c8340103c6d72ea562e8186590f24141c77d182d7bb96e20af135a356182a42e50f6b2229cf76a6aee983472f6787c7bd67cd4142edfdc97ac0063036f726401010a746578742f706c61696e00367b2270223a226272632d3230222c226f70223a226d696e74222c227469636b223a2261616161222c22616d74223a223130303030227d6821c1af135a356182a42e50f6b2229cf76a6aee983472f6787c7bd67cd4142edfdc9700000000"
}