{
  "txid": "101633e4083da4249bc01bdfce62c02034afb5b6c8a4bde9077a66efa61aa173",
  "version": 2,
  "locktime": 834637,
  "vin": [
    {
      "txid": "72bc1654bf2254ffa0f6a772f18d401cdc85fcd08b5c2cf16268f128ff6cba0a",
      "vout": 1,
      "prevout": {
        "scriptpubkey": "0014a881fe53f37ae1c313c31784c98a33ef48eb6816",
        "scriptpubkey_asm": "OP_0 OP_PUSHBYTES_20 a881fe53f37ae1c313c31784c98a33ef48eb6816",
        "scriptpubkey_type": "v0_p2wpkh",
        "scriptpubkey_address": "bc1q4zqlu5ln0tsuxy7rz7zvnz3naaywk6qk38g4vh",
        "value": 1451400
      },
      "scriptsig": "",
      "scriptsig_asm": "",
      "witness": [
        "304402202d8c04c6b83b79ec7b840c27e9969add17a9c1839e0270e9410399fda7e1e2890220709f334802bc34b475ef52d986cb372c9afc62b08664e1437baa8208a4e9b36c01",
        "0325faabfb91d9dd16081dd6023873f91cab6b03f2ea301a89476a7b43add454d9"
      ],
      "is_coinbase": false,
      "sequence": 4294967293
    }
  ],
  "vout": [
    {
      "scriptpubkey": "001443ebec41a105257bdf57c1e5edacfe40c27eddac",
      "scriptpubkey_asm": "OP_0 OP_PUSHBYTES_20 43ebec41a105257bdf57c1e5edacfe40c27eddac",
      "scriptpubkey_type": "v0_p2wpkh",
      "scriptpubkey_address": "bc1qg047csdpq5jhhh6hc8j7mt87grp8ahdv847m5u",
      "value": 544200
    },
    {
      "scriptpubkey": "0014176d429588ff987f1c7bff7e378b80b76c3519bb",
      "scriptpubkey_asm": "OP_0 OP_PUSHBYTES_20 176d429588ff987f1c7bff7e378b80b76c3519bb",
      "scriptpubkey_type": "v0_p2wpkh",
      "scriptpubkey_address": "bc1qzak599vgl7v878rmlalr0zuqkakr2xdm6t0j0e",
      "value": 904900
    }
  ],
  "size": 222,
  "weight": 561,
  "fee": 2300,
  "status": {
    "confirmed": true,
    "block_height": 834638,
    "block_hash": "000000000000000000025f742c626208ac87e0b7d15054abb4a19ca2d735a54e",
    "block_time": 1710405325
  },
  "hex": "020000000001010aba6cff28f16862f12c5c8bd0fc85dc1c408df172a7f6a0ff5422bf5416bc720100000000fdffffff02c84d08000000000016001443ebec41a105257bdf57c1e5edacfe40c27eddacc4ce0d0000000000160014176d429588ff987f1c7bff7e378b80b76c3519bb0247304402202d8c04c6b83b79ec7b840c27e9969add17a9c1839e0270e9410399fda7e1e2890220709f334802bc34b475ef52d986cb372c9afc62b08664e1437baa8208a4e9b36c01210325faabfb91d9dd16081dd6023873f91cab6b03f2ea301a89476a7b43add454d94dbc0c00"
}