{
  "txid": "10267868aef4a7cf60ac5da26c132d7faa38346273b4f87279f02df87c52116c",
  "version": 2,
  "locktime": 834592,
  "vin": [
    {
      "txid": "8b97c2be125d2d4d404c3383fd8072b25d46a482aaaccf55730a56742fb157e5",
      "vout": 1,
      "prevout": {
        "scriptpubkey": "00147fccb0948337851c7ddd2c5c54df479a3e54c628",
        "scriptpubkey_asm": "OP_0 OP_PUSHBYTES_20 7fccb0948337851c7ddd2c5c54df479a3e54c628",
        "scriptpubkey_type": "v0_p2wpkh",
        "scriptpubkey_address": "bc1q0lxtp9yrx7z3clwa93w9fh68ngl9f33gr7djnv",
        "value": 296514446
      },
      "scriptsig": "",
      "scriptsig_asm": "",
      "witness": [
        "304402202c4ad487fb41a5037267101ff78701c49a214da908dd51d0a432c1645921406d02203d582b23ece863f9053374208c6581b83e59eda82e5d3b03d7895e262445471e01",
        "0320726c309ef632e533f6895d80c53e66dd195b3b214d77bb59883f020b1a115c"
      ],
      "is_coinbase": false,
      "sequence": 4294967294
    }
  ],
  "vout": [
    {
      "scriptpubkey": "00143211bd506813261550932e042b65f9c78996ae21",
      "scriptpubkey_asm": "OP_0 OP_PUSHBYTES_20 3211bd506813261550932e042b65f9c78996ae21",
      "scriptpubkey_type": "v0_p2wpkh",
      "scriptpubkey_address": "bc1qxggm65rgzvnp25yn9czzke0ec7yedt3p5pk9rw",
      "value": 292572666
    },
    {
      "scriptpubkey": "a91439972819834e732320ce8d527dd2b26f70dbec9987",
      "scriptpubkey_asm": "OP_HASH160 OP_PUSHBYTES_20 39972819834e732320ce8d527dd2b26f70dbec99 OP_EQUAL",
      "scriptpubkey_type": "p2sh",
      "scriptpubkey_address": "36wXX2S4ash25UpJqWV1wG78gxYg3MzBJ4",
      "value": 3938300
    }
  ],
  "size": 223,
  "weight": 565,
  "fee": 3480,
  "status": {
    "confirmed": true,
    "block_height": 834638,
    "block_hash": "000000000000000000025f742c626208ac87e0b7d15054abb4a19ca2d735a54e",
    "block_time": 1710405325
  },
  "hex": "02000000000101e557b12f74560a7355cfacaa82a4465db27280fd83334c404d2d5d12bec2978b0100000000feffffff02fa4d7011000000001600143211bd506813261550932e042b65f9c78996ae21fc173c000000000017a91439972819834e732320ce8d527dd2b26f70dbec99870247304402202c4ad487fb41a5037267101ff78701c49a214da908dd51d0a432c1645921406d02203d582b23ece863f9053374208c6581b83e59eda82e5d3b03d7895e262445471e01210320726c309ef632e533f6895d80c53e66dd195b3b214d77bb59883f020b1a115c20bc0c00"
}