{
  "txid": "10271957b61a72887f2c9a08b6cd20bc6a22abac31cdd3df92626e10af72a24c",
  "version": 2,
  "locktime": 0,
  "vin": [
    {
      "txid": "591400524ea634bf7fb292f9c9141d25b5f194c6c6893654593a7e9027ac37e4",
      "vout": 1,
      "prevout": {
        "scriptpubkey": "a9142c21151d54bd219dcc4c52e1cb38672dab8e36cc87",
        "scriptpubkey_asm": "OP_HASH160 OP_PUSHBYTES_20 2c21151d54bd219dcc4c52e1cb38672dab8e36cc OP_EQUAL",
        "scriptpubkey_type": "p2sh",
        "scriptpubkey_address": "35iMHbUZeTssxBodiHwEEkb32jpBfVueEL",
        "value": 999797357
      },
      "scriptsig": "1600147c846a806f4d9e516c9fb2fe364f28eac4e3c3fc",
      "scriptsig_asm": "OP_PUSHBYTES_22 00147c846a806f4d9e516c9fb2fe364f28eac4e3c3fc",
      "witness": [
        "3044022001d11a09e7dd36d85cfc74a13788d170ff6e11a2e8569f21bb49be04063073b2022045ba2380f66da141557906abcfddd6488ea922859e184d7486462b85348dc45701",
        "03789a9d83798d4cbf688f9969a94084ee1655059e137b43492ee94dc4538790ab"
      ],
      "is_coinbase": false,
      "sequence": 4294967295,
      "inner_redeemscript_asm": "OP_0 OP_PUSHBYTES_20 7c846a806f4d9e516c9fb2fe364f28eac4e3c3fc"
    }
  ],
  "vout": [
    {
      "scriptpubkey": "a9142c21151d54bd219dcc4c52e1cb38672dab8e36cc87",
      "scriptpubkey_asm": "OP_HASH160 OP_PUSHBYTES_20 2c21151d54bd219dcc4c52e1cb38672dab8e36cc OP_EQUAL",
      "scriptpubkey_type": "p2sh",
      "scriptpubkey_address": "35iMHbUZeTssxBodiHwEEkb32jpBfVueEL",
      "value": 893406624
    },
    {
      "scriptpubkey": "a914f6eadcc567eb831d9b8217f88c58b751889082d987",
      "scriptpubkey_asm": "OP_HASH160 OP_PUSHBYTES_20 f6eadcc567eb831d9b8217f88c58b751889082d9 OP_EQUAL",
      "scriptpubkey_type": "p2sh",
      "scriptpubkey_address": "3QCbWFxnvijPpRvEFWnqChQKx8U85Zm9WS",
      "value": 106388090
    }
  ],
  "size": 247,
  "weight": 661,
  "fee": 2643,
  "status": {
    "confirmed": true,
    "block_height": 834638,
    "block_hash": "000000000000000000025f742c626208ac87e0b7d15054abb4a19ca2d735a54e",
    "block_time": 1710405325
  },
  "hex": "02000000000101e437ac27907e3a59543689c6c694f1b5251d14c9f992b27fbf34a64e5200145901000000171600147c846a806f4d9e516c9fb2fe364f28eac4e3c3fcffffffff02a04d40350000000017a9142c21151d54bd219dcc4c52e1cb38672dab8e36cc877a5a57060000000017a914f6eadcc567eb831d9b8217f88c58b751889082d98702473044022001d11a09e7dd36d85cfc74a13788d170ff6e11a2e8569f21bb49be04063073b2022045ba2380f66da141557906abcfddd6488ea922859e184d7486462b85348dc457012103789a9d83798d4cbf688f9969a94084ee1655059e137b43492ee94dc4538790ab00000000"
}