{
  "txid": "102f2c7a78469083b9fb968b5e7c8da17df297b6f2493d5bc2c227945fb175be",
  "version": 2,
  "locktime": 0,
  "vin": [
    {
      "txid": "27eb2321f24ebea45cf23db514c0bd9e52f2d4209f1e756c318336fb6b3f7eee",
      "vout": 3,
      "prevout": {
        "scriptpubkey": "51204d34ded1806c9eb0bc0a781dfe07c14c66de4a52a543060dc3e6194a68fe970d",
        "scriptpubkey_asm": "OP_PUSHNUM_1 OP_PUSHBYTES_32 4d34ded1806c9eb0bc0a781dfe07c14c66de4a52a543060dc3e6194a68fe970d",
        "scriptpubkey_type": "v1_p2tr",
        "scriptpubkey_address": "bc1pf56da5vqdj0tp0q20qwlup7pf3ndujjj54psvrwrucv55687juxszzzfdd",
        "value": 600
      },
      "scriptsig": "",
      "scriptsig_asm": "",
      "witness": [
        "2f64563de12f857e31645b7a0c2a9dee1de740f37cf3d03b28e695ef3691a46f79a5b34f01159c43b1fb9cb9a1573d61a98efc9ced9479b53d75105bcd5d3c50"
      ],
      "is_coinbase": false,
      "sequence": 4294967295
    },
    {
      "txid": "27eb2321f24ebea45cf23db514c0bd9e52f2d4209f1e756c318336fb6b3f7eee",
      "vout": 4,
      "prevout": {
        "scriptpubkey": "51204d34ded1806c9eb0bc0a781dfe07c14c66de4a52a543060dc3e6194a68fe970d",
        "scriptpubkey_asm": "OP_PUSHNUM_1 OP_PUSHBYTES_32 4d34ded1806c9eb0bc0a781dfe07c14c66de4a52a543060dc3e6194a68fe970d",
        "scriptpubkey_type": "v1_p2tr",
        "scriptpubkey_address": "bc1pf56da5vqdj0tp0q20qwlup7pf3ndujjj54psvrwrucv55687juxszzzfdd",
        "value": 600
      },
      "scriptsig": "",
      "scriptsig_asm": "",
      "witness": [
        "b408a882d64509c33e17502ae44649cc8047aa6dc855a28d6453dea9a266fd3e183720025b8cb3914bbf7e794766197b6a909d0f8c1d68acd4d7b5dbd1bf0244"
      ],
      "is_coinbase": false,
      "sequence": 4294967295
    },
    {
      "txid": "633691eca6a2d6bd3eee3d9eb62b48778bb59e95c49527871ec295c24226411b",
      "vout": 1,
      "prevout": {
        "scriptpubkey": "51201a6de8952b0ca76a1bb8c85438c2b4afb3b104d6faf4726cf2535726520dc5f1",
        "scriptpubkey_asm": "OP_PUSHNUM_1 OP_PUSHBYTES_32 1a6de8952b0ca76a1bb8c85438c2b4afb3b104d6faf4726cf2535726520dc5f1",
        "scriptpubkey_type": "v1_p2tr",
        "scriptpubkey_address": "bc1prfk739ftpjnk5xacep2r3s4547emzpxklt68ym8j2dtjv5sdchcsa242ur",
        "value": 555
      },
      "scriptsig": "",
      "scriptsig_asm": "",
      "witness": [
        "af50bb44f27467e395ea23a1c162d111ba1a688b4d6cd5b920d857f454f5427b66b098aa5b6916d8e95d9efd4859a8ef91f92ed10881b9198a97d47c270eb83a83"
      ],
      "is_coinbase": false,
      "sequence": 4294967295
    },
    {
      "txid": "65ff9eeb1edb2320cd8c7e147023ec8745f1d7e044ce221807f64439e7a1a1c9",
      "vout": 2,
      "prevout": {
        "scriptpubkey": "51204d34ded1806c9eb0bc0a781dfe07c14c66de4a52a543060dc3e6194a68fe970d",
        "scriptpubkey_asm": "OP_PUSHNUM_1 OP_PUSHBYTES_32 4d34ded1806c9eb0bc0a781dfe07c14c66de4a52a543060dc3e6194a68fe970d",
        "scriptpubkey_type": "v1_p2tr",
        "scriptpubkey_address": "bc1pf56da5vqdj0tp0q20qwlup7pf3ndujjj54psvrwrucv55687juxszzzfdd",
        "value": 6407351
      },
      "scriptsig": "",
      "scriptsig_asm": "",
      "witness": [
        "d7cc59f6743616699d4b79c68f98cc4dc53f166ca32e117dfe036a70606fd01cbc39d63ddcc4e093873dc6dae9d18d3002b98f032094857aa5bb28e6f86352ca"
      ],
      "is_coinbase": false,
      "sequence": 4294967295
    },
    {
      "txid": "927e4721a85e815293368a13af761ff6f069c3462e3317ebae242a1ed241fc5a",
      "vout": 1,
      "prevout": {
        "scriptpubkey": "51204d34ded1806c9eb0bc0a781dfe07c14c66de4a52a543060dc3e6194a68fe970d",
        "scriptpubkey_asm": "OP_PUSHNUM_1 OP_PUSHBYTES_32 4d34ded1806c9eb0bc0a781dfe07c14c66de4a52a543060dc3e6194a68fe970d",
        "scriptpubkey_type": "v1_p2tr",
        "scriptpubkey_address": "bc1pf56da5vqdj0tp0q20qwlup7pf3ndujjj54psvrwrucv55687juxszzzfdd",
        "value": 1161752
      },
      "scriptsig": "",
      "scriptsig_asm": "",
      "witness": [
        "bd3cf2bb1ae88d68923435bb5affa545351ffccaf83ebc725f4a5184247f221836d839716dd45c6646b6aab1e596f7fc2aac0a5d1589e33fa32579ecf94a4525"
      ],
      "is_coinbase": false,
      "sequence": 4294967295
    }
  ],
  "vout": [
    {
      "scriptpubkey": "51204d34ded1806c9eb0bc0a781dfe07c14c66de4a52a543060dc3e6194a68fe970d",
      "scriptpubkey_asm": "OP_PUSHNUM_1 OP_PUSHBYTES_32 4d34ded1806c9eb0bc0a781dfe07c14c66de4a52a543060dc3e6194a68fe970d",
      "scriptpubkey_type": "v1_p2tr",
      "scriptpubkey_address": "bc1pf56da5vqdj0tp0q20qwlup7pf3ndujjj54psvrwrucv55687juxszzzfdd",
      "value": 1200
    },
    {
      "scriptpubkey": "51204d34ded1806c9eb0bc0a781dfe07c14c66de4a52a543060dc3e6194a68fe970d",
      "scriptpubkey_asm": "OP_PUSHNUM_1 OP_PUSHBYTES_32 4d34ded1806c9eb0bc0a781dfe07c14c66de4a52a543060dc3e6194a68fe970d",
      "scriptpubkey_type": "v1_p2tr",
      "scriptpubkey_address": "bc1pf56da5vqdj0tp0q20qwlup7pf3ndujjj54psvrwrucv55687juxszzzfdd",
      "value": 555
    },
    {
      "scriptpubkey": "a91444da563f9f6262f9f72659cdb69e5fa80ba632ee87",
      "scriptpubkey_asm": "OP_HASH160 OP_PUSHBYTES_20 44da563f9f6262f9f72659cdb69e5fa80ba632ee OP_EQUAL",
      "scriptpubkey_type": "p2sh",
      "scriptpubkey_address": "37y5RuJUseb3ZkWmVwPEJ8ocJj5xuZ9YwD",
      "value": 6955605
    },
    {
      "scriptpubkey": "a914ea6b832a05c6ca578baa3836f3f25553d41068a587",
      "scriptpubkey_asm": "OP_HASH160 OP_PUSHBYTES_20 ea6b832a05c6ca578baa3836f3f25553d41068a5 OP_EQUAL",
      "scriptpubkey_type": "p2sh",
      "scriptpubkey_address": "3P4WqXDbSLRhzo2H6MT6YFbvBKBDPLbVtQ",
      "value": 174750
    },
    {
      "scriptpubkey": "51204d34ded1806c9eb0bc0a781dfe07c14c66de4a52a543060dc3e6194a68fe970d",
      "scriptpubkey_asm": "OP_PUSHNUM_1 OP_PUSHBYTES_32 4d34ded1806c9eb0bc0a781dfe07c14c66de4a52a543060dc3e6194a68fe970d",
      "scriptpubkey_type": "v1_p2tr",
      "scriptpubkey_address": "bc1pf56da5vqdj0tp0q20qwlup7pf3ndujjj54psvrwrucv55687juxszzzfdd",
      "value": 600
    },
    {
      "scriptpubkey": "51204d34ded1806c9eb0bc0a781dfe07c14c66de4a52a543060dc3e6194a68fe970d",
      "scriptpubkey_asm": "OP_PUSHNUM_1 OP_PUSHBYTES_32 4d34ded1806c9eb0bc0a781dfe07c14c66de4a52a543060dc3e6194a68fe970d",
      "scriptpubkey_type": "v1_p2tr",
      "scriptpubkey_address": "bc1pf56da5vqdj0tp0q20qwlup7pf3ndujjj54psvrwrucv55687juxszzzfdd",
      "value": 600
    },
    {
      "scriptpubkey": "51204d34ded1806c9eb0bc0a781dfe07c14c66de4a52a543060dc3e6194a68fe970d",
      "scriptpubkey_asm": "OP_PUSHNUM_1 OP_PUSHBYTES_32 4d34ded1806c9eb0bc0a781dfe07c14c66de4a52a543060dc3e6194a68fe970d",
      "scriptpubkey_type": "v1_p2tr",
      "scriptpubkey_address": "bc1pf56da5vqdj0tp0q20qwlup7pf3ndujjj54psvrwrucv55687juxszzzfdd",
      "value": 427705
    }
  ],
  "size": 827,
  "weight": 2309,
  "fee": 9843,
  "status": {
    "confirmed": true,
    "block_height": 834638,
    "block_hash": "000000000000000000025f742c626208ac87e0b7d15054abb4a19ca2d735a54e",
    "block_time": 1710405325
  },
  "hex": "02000000000105ee7e3f6bfb3683316c751e9f20d4f2529ebdc014b53df25ca4be4ef22123eb270300000000ffffffffee7e3f6bfb3683316c751e9f20d4f2529ebdc014b53df25ca4be4ef22123eb270400000000ffffffff1b412642c295c21e872795c4959eb58b77482bb69e3dee3ebdd6a2a6ec9136630100000000ffffffffc9a1a1e73944f6071822ce44e0d7f14587ec2370147e8ccd2023db1eeb9eff650200000000ffffffff5afc41d21e2a24aeeb17332e46c369f0f61f76af138a369352815ea821477e920100000000ffffffff07b0040000000000002251204d34ded1806c9eb0bc0a781dfe07c14c66de4a52a543060dc3e6194a68fe970d2b020000000000002251204d34ded1806c9eb0bc0a781dfe07c14c66de4a52a543060dc3e6194a68fe970d55226a000000000017a91444da563f9f6262f9f72659cdb69e5fa80ba632ee879eaa02000000000017a914ea6b832a05c6ca578baa3836f3f25553d41068a58758020000000000002251204d34ded1806c9eb0bc0a781dfe07c14c66de4a52a543060dc3e6194a68fe970d58020000000000002251204d34ded1806c9eb0bc0a781dfe07c14c66de4a52a543060dc3e6194a68fe970db9860600000000002251204d34ded1806c9eb0bc0a781dfe07c14c66de4a52a543060dc3e6194a68fe970d01402f64563de12f857e31645b7a0c2a9dee1de740f37cf3d03b28e695ef3691a46f79a5b34f01159c43b1fb9cb9a1573d61a98efc9ced9479b53d75105bcd5d3c500140b408a882d64509c33e17502ae44649cc8047aa6dc855a28d6453dea9a266fd3e183720025b8cb3914bbf7e794766197b6a909d0f8c1d68acd4d7b5dbd1bf02440141af50bb44f27467e395ea23a1c162d111ba1a688b4d6cd5b920d857f454f5427b66b098aa5b6916d8e95d9efd4859a8ef91f92ed10881b9198a97d47c270eb83a830140d7cc59f6743616699d4b79c68f98cc4dc53f166ca32e117dfe036a70606fd01cbc39d63ddcc4e093873dc6dae9d18d3002b98f032094857aa5bb28e6f86352ca0140bd3cf2bb1ae88d68923435bb5affa545351ffccaf83ebc725f4a5184247f221836d839716dd45c6646b6aab1e596f7fc2aac0a5d1589e33fa32579ecf94a452500000000"
}