{
  "txid": "103f5a7e6832f4f50637116936a0e93157835929ab284d31011a62494139d33b",
  "version": 2,
  "locktime": 0,
  "vin": [
    {
      "txid": "a97078b6bed9751ad384454043b01d1416cf9f860a9c6b2be681385cf5dd34ed",
      "vout": 0,
      "prevout": {
        "scriptpubkey": "00142371e80749f0ecca0758f86aaad796c4a18240e6",
        "scriptpubkey_asm": "OP_0 OP_PUSHBYTES_20 2371e80749f0ecca0758f86aaad796c4a18240e6",
        "scriptpubkey_type": "v0_p2wpkh",
        "scriptpubkey_address": "bc1qydc7sp6f7rkv5p6clp4244ukcjscys8xxgqvcv",
        "value": 546
      },
      "scriptsig": "",
      "scriptsig_asm": "",
      "witness": [
        "304402200c48656dd7d21ec77b0fb7c22ac8d3b4a23f4e40109f6d4c9e18e725359b2c2402200dc54bfa64c45304a567d0b67442751c332aae7c04011025e31f72e3ea912a4901",
        "02c87dae8393e8cd42a0c795e09870120ac60fd86e8d58d5114f04e928d6892ead"
      ],
      "is_coinbase": false,
      "sequence": 4294967295
    },
    {
      "txid": "ea71c6befe09fe14ad0f73e4b62f53bbc61aebdbcd8a44fd446d881ccf3b8f67",
      "vout": 2,
      "prevout": {
        "scriptpubkey": "00142371e80749f0ecca0758f86aaad796c4a18240e6",
        "scriptpubkey_asm": "OP_0 OP_PUSHBYTES_20 2371e80749f0ecca0758f86aaad796c4a18240e6",
        "scriptpubkey_type": "v0_p2wpkh",
        "scriptpubkey_address": "bc1qydc7sp6f7rkv5p6clp4244ukcjscys8xxgqvcv",
        "value": 777000
      },
      "scriptsig": "",
      "scriptsig_asm": "",
      "witness": [
        "30440220706e6b2814969114987e27474601a45b2e813a7c22685e68f1cc91b6ab475bad02205185c6396476b9680ce7d3dee77cf0ecfb632460388ddc5a3f031fcdc890b10f01",
        "02c87dae8393e8cd42a0c795e09870120ac60fd86e8d58d5114f04e928d6892ead"
      ],
      "is_coinbase": false,
      "sequence": 4294967295
    }
  ],
  "vout": [
    {
      "scriptpubkey": "00142371e80749f0ecca0758f86aaad796c4a18240e6",
      "scriptpubkey_asm": "OP_0 OP_PUSHBYTES_20 2371e80749f0ecca0758f86aaad796c4a18240e6",
      "scriptpubkey_type": "v0_p2wpkh",
      "scriptpubkey_address": "bc1qydc7sp6f7rkv5p6clp4244ukcjscys8xxgqvcv",
      "value": 546
    },
    {
      "scriptpubkey": "00142371e80749f0ecca0758f86aaad796c4a18240e6",
      "scriptpubkey_asm": "OP_0 OP_PUSHBYTES_20 2371e80749f0ecca0758f86aaad796c4a18240e6",
      "scriptpubkey_type": "v0_p2wpkh",
      "scriptpubkey_address": "bc1qydc7sp6f7rkv5p6clp4244ukcjscys8xxgqvcv",
      "value": 774074
    }
  ],
  "size": 370,
  "weight": 832,
  "fee": 2926,
  "status": {
    "confirmed": true,
    "block_height": 834638,
    "block_hash": "000000000000000000025f742c626208ac87e0b7d15054abb4a19ca2d735a54e",
    "block_time": 1710405325
  },
  "hex": "02000000000102ed34ddf55c3881e62b6b9c0a869fcf16141db043404584d31a75d9beb67870a90000000000ffffffff678f3bcf1c886d44fd448acddbeb1ac6bb532fb6e4730fad14fe09febec671ea0200000000ffffffff0222020000000000001600142371e80749f0ecca0758f86aaad796c4a18240e6bacf0b00000000001600142371e80749f0ecca0758f86aaad796c4a18240e60247304402200c48656dd7d21ec77b0fb7c22ac8d3b4a23f4e40109f6d4c9e18e725359b2c2402200dc54bfa64c45304a567d0b67442751c332aae7c04011025e31f72e3ea912a49012102c87dae8393e8cd42a0c795e09870120ac60fd86e8d58d5114f04e928d6892ead024730440220706e6b2814969114987e27474601a45b2e813a7c22685e68f1cc91b6ab475bad02205185c6396476b9680ce7d3dee77cf0ecfb632460388ddc5a3f031fcdc890b10f012102c87dae8393e8cd42a0c795e09870120ac60fd86e8d58d5114f04e928d6892ead00000000"
}