{
  "txid": "104a014e4049e1eff26ce38f890f2b8b0f49ebe249d28ebbde3a96da3d2fcb71",
  "version": 2,
  "locktime": 0,
  "vin": [
    {
      "txid": "92459b3f14f695553abb5d42713a348e02efe9034e236e135c181984d9307459",
      "vout": 1,
      "prevout": {
        "scriptpubkey": "0014224bab1597738224a57ddf7427588532780d2d19",
        "scriptpubkey_asm": "OP_0 OP_PUSHBYTES_20 224bab1597738224a57ddf7427588532780d2d19",
        "scriptpubkey_type": "v0_p2wpkh",
        "scriptpubkey_address": "bc1qyf96k9vhwwpzfftama6zwky9xfuq6tgelk6d9v",
        "value": 160034339
      },
      "scriptsig": "",
      "scriptsig_asm": "",
      "witness": [
        "3044022068c36cd0ad92c179ee7093b5389cf0bd899d221fb452e3d4d51a6d931164c95c02206b5195f2948f2c108f777d5d55889821aab49ccb54533cf5fab736ee0f2255d401",
        "03f019031005dbec77c730f5e6598e9fcac3b57bb9b7fdd12450da1d7850695a3e"
      ],
      "is_coinbase": false,
      "sequence": 4294967295
    }
  ],
  "vout": [
    {
      "scriptpubkey": "00141ab20cf5c88524a590a89c3f02bf27bde41168cd",
      "scriptpubkey_asm": "OP_0 OP_PUSHBYTES_20 1ab20cf5c88524a590a89c3f02bf27bde41168cd",
      "scriptpubkey_type": "v0_p2wpkh",
      "scriptpubkey_address": "bc1qr2eqeawgs5j2ty9gnsls90e8hhjpz6xdpwahga",
      "value": 908101
    },
    {
      "scriptpubkey": "0014b605d901cbce72046ab1199166e4c4f76190a493",
      "scriptpubkey_asm": "OP_0 OP_PUSHBYTES_20 b605d901cbce72046ab1199166e4c4f76190a493",
      "scriptpubkey_type": "v0_p2wpkh",
      "scriptpubkey_address": "bc1qkczajqwteeeqg643rxgkdexy7asepfynccjchp",
      "value": 159124141
    }
  ],
  "size": 222,
  "weight": 561,
  "fee": 2097,
  "status": {
    "confirmed": true,
    "block_height": 834638,
    "block_hash": "000000000000000000025f742c626208ac87e0b7d15054abb4a19ca2d735a54e",
    "block_time": 1710405325
  },
  "hex": "02000000000101597430d98419185c136e234e03e9ef028e343a71425dbb3a5595f6143f9b45920100000000ffffffff0245db0d00000000001600141ab20cf5c88524a590a89c3f02bf27bde41168cdad0a7c0900000000160014b605d901cbce72046ab1199166e4c4f76190a49302473044022068c36cd0ad92c179ee7093b5389cf0bd899d221fb452e3d4d51a6d931164c95c02206b5195f2948f2c108f777d5d55889821aab49ccb54533cf5fab736ee0f2255d4012103f019031005dbec77c730f5e6598e9fcac3b57bb9b7fdd12450da1d7850695a3e00000000"
}