{
  "txid": "104be6348ffacdc097bde9ed4a1daec07fb49a4cc8ee492e3de2a31e76c89418",
  "version": 2,
  "locktime": 0,
  "vin": [
    {
      "txid": "2edcaa23cdf31457167336fba3537b005f5a073522d4a0751386e7ac1e869146",
      "vout": 1,
      "prevout": {
        "scriptpubkey": "00148ff7dd33d81e5b46e3f77baf9baf59eee8fed2bf",
        "scriptpubkey_asm": "OP_0 OP_PUSHBYTES_20 8ff7dd33d81e5b46e3f77baf9baf59eee8fed2bf",
        "scriptpubkey_type": "v0_p2wpkh",
        "scriptpubkey_address": "bc1q3lma6v7cred5dclh0wheht6eam50a54lj8ukf3",
        "value": 2755
      },
      "scriptsig": "",
      "scriptsig_asm": "",
      "witness": [
        "3044022014d0abdbc3b4f5587956ed7fb2482bc48e03e03d8f7a503eb3f69a5d7a3764070220437c3c81a10c1125a0ac2d6ff88d6d357c7785d4a006a1827ed96661f836281f01",
        "0329fb35496643bd213eef78e86b86c6a7003dc1822c1d1402cf1c437d26a134ce"
      ],
      "is_coinbase": false,
      "sequence": 0
    },
    {
      "txid": "c63580df0faa1995fd2ec0a203e1f8198700ed04e4362b1e3f45b6972b2f4ac3",
      "vout": 7,
      "prevout": {
        "scriptpubkey": "00143166c6bbe9f99ae638ea6f2e3e9c6976ec7138ba",
        "scriptpubkey_asm": "OP_0 OP_PUSHBYTES_20 3166c6bbe9f99ae638ea6f2e3e9c6976ec7138ba",
        "scriptpubkey_type": "v0_p2wpkh",
        "scriptpubkey_address": "bc1qx9nvdwlflxdwvw82duhra8rfwmk8zw96lq4dzw",
        "value": 140001000
      },
      "scriptsig": "",
      "scriptsig_asm": "",
      "witness": [
        "30440220231665b8e4c5b20a745a41d6bc4c8be30d88305ae70ad52011fbdd809696284a02205956613b07e46c5c0ae0c1201b3d3d5220d4a262c3bf2615d119b936be89532601",
        "021e1032c30728a50b35ecfad07edcc77d98c191d2e74f01610d59ce105d9e097d"
      ],
      "is_coinbase": false,
      "sequence": 0
    }
  ],
  "vout": [
    {
      "scriptpubkey": "0014bfefbdc7f8cb963d168ccb9d3966342956374a12",
      "scriptpubkey_asm": "OP_0 OP_PUSHBYTES_20 bfefbdc7f8cb963d168ccb9d3966342956374a12",
      "scriptpubkey_type": "v0_p2wpkh",
      "scriptpubkey_address": "bc1qhlhmm3lcewtr695vewwnje3599trwjsjh3k9fl",
      "value": 10000
    },
    {
      "scriptpubkey": "0014087a8d358884ae57c37c929632dc9e9b3b534c26",
      "scriptpubkey_asm": "OP_0 OP_PUSHBYTES_20 087a8d358884ae57c37c929632dc9e9b3b534c26",
      "scriptpubkey_type": "v0_p2wpkh",
      "scriptpubkey_address": "bc1qppag6dvgsjh90smuj2tr9hy7nva4xnpx368uej",
      "value": 139991478
    }
  ],
  "size": 370,
  "weight": 832,
  "fee": 2277,
  "status": {
    "confirmed": true,
    "block_height": 834464,
    "block_hash": "0000000000000000000177a0869a911a2b65c9bdcd5a8bcb02b68f305bee848e",
    "block_time": 1710308296
  },
  "hex": "020000000001024691861eace7861375a0d42235075a5f007b53a3fb3673165714f3cd23aadc2e010000000000000000c34a2f2b97b6453f1e2b36e404ed008719f8e103a2c02efd9519aa0fdf8035c6070000000000000000021027000000000000160014bfefbdc7f8cb963d168ccb9d3966342956374a12b619580800000000160014087a8d358884ae57c37c929632dc9e9b3b534c2602473044022014d0abdbc3b4f5587956ed7fb2482bc48e03e03d8f7a503eb3f69a5d7a3764070220437c3c81a10c1125a0ac2d6ff88d6d357c7785d4a006a1827ed96661f836281f01210329fb35496643bd213eef78e86b86c6a7003dc1822c1d1402cf1c437d26a134ce024730440220231665b8e4c5b20a745a41d6bc4c8be30d88305ae70ad52011fbdd809696284a02205956613b07e46c5c0ae0c1201b3d3d5220d4a262c3bf2615d119b936be8953260121021e1032c30728a50b35ecfad07edcc77d98c191d2e74f01610d59ce105d9e097d00000000"
}