{
  "txid": "105377b32d928c0ba51a870ceffe5f03b990402e973bbeaf85b7da6868faff34",
  "version": 1,
  "locktime": 0,
  "vin": [
    {
      "txid": "30fdf1c3fe06ec50bd020ed445b7155df13ea4470824b25bd4125a0698d4008f",
      "vout": 1,
      "prevout": {
        "scriptpubkey": "0014e1474251a317c72be0c9f4bb30139374d160f6c0",
        "scriptpubkey_asm": "OP_0 OP_PUSHBYTES_20 e1474251a317c72be0c9f4bb30139374d160f6c0",
        "scriptpubkey_type": "v0_p2wpkh",
        "scriptpubkey_address": "bc1qu9r5y5drzlrjhcxf7janqyunwngkpakq9y0gux",
        "value": 12499
      },
      "scriptsig": "",
      "scriptsig_asm": "",
      "witness": [
        "304402205bc36539bfadd3dae568b5d554dddbbf1abf14dff453b04e174fdef5a0cdd7af022029cd90f66232e3f87274ef79de25b5af4ddee898afabb48bff663417b52f8e0e01",
        "033b15233141b907e9d85d464e656f4938c2608ddc9b23dee05f9027025d3a542d"
      ],
      "is_coinbase": false,
      "sequence": 4294967295
    },
    {
      "txid": "d02657c64ed94af02ba1115c65b8d64cdda7069f841a69759ed5ae85027fce5b",
      "vout": 1,
      "prevout": {
        "scriptpubkey": "0014e1474251a317c72be0c9f4bb30139374d160f6c0",
        "scriptpubkey_asm": "OP_0 OP_PUSHBYTES_20 e1474251a317c72be0c9f4bb30139374d160f6c0",
        "scriptpubkey_type": "v0_p2wpkh",
        "scriptpubkey_address": "bc1qu9r5y5drzlrjhcxf7janqyunwngkpakq9y0gux",
        "value": 13968
      },
      "scriptsig": "",
      "scriptsig_asm": "",
      "witness": [
        "3045022100df9877856ace2540711fc441aeb37262e24097b347dce3a9d9a98898e0b1bcce02207734d50d8f428e451ca6f8ab736ccdc5ecb0ef5d80822498103abf96a9963ba301",
        "033b15233141b907e9d85d464e656f4938c2608ddc9b23dee05f9027025d3a542d"
      ],
      "is_coinbase": false,
      "sequence": 4294967295
    },
    {
      "txid": "c4f029d5ca481f927d267e5c5484ca719d0d00ec9bccd9d023858c05644f3ca0",
      "vout": 1,
      "prevout": {
        "scriptpubkey": "0014e1474251a317c72be0c9f4bb30139374d160f6c0",
        "scriptpubkey_asm": "OP_0 OP_PUSHBYTES_20 e1474251a317c72be0c9f4bb30139374d160f6c0",
        "scriptpubkey_type": "v0_p2wpkh",
        "scriptpubkey_address": "bc1qu9r5y5drzlrjhcxf7janqyunwngkpakq9y0gux",
        "value": 14986
      },
      "scriptsig": "",
      "scriptsig_asm": "",
      "witness": [
        "3045022100d67b300d36423738672f6e4bc6722fdf2d726cfcf5d51b0478a2fb418bb976ba0220401a1d94b22091f4d347a0d1d8fbe817c6da4bff6330f0ca6910b442bc60210e01",
        "033b15233141b907e9d85d464e656f4938c2608ddc9b23dee05f9027025d3a542d"
      ],
      "is_coinbase": false,
      "sequence": 4294967295
    },
    {
      "txid": "0c5a17d57ecb589eea846c325fd49f7378cfb8fea919cf800e3634cc16bbcfae",
      "vout": 1,
      "prevout": {
        "scriptpubkey": "0014e1474251a317c72be0c9f4bb30139374d160f6c0",
        "scriptpubkey_asm": "OP_0 OP_PUSHBYTES_20 e1474251a317c72be0c9f4bb30139374d160f6c0",
        "scriptpubkey_type": "v0_p2wpkh",
        "scriptpubkey_address": "bc1qu9r5y5drzlrjhcxf7janqyunwngkpakq9y0gux",
        "value": 16229
      },
      "scriptsig": "",
      "scriptsig_asm": "",
      "witness": [
        "3045022100c79fac649861042ce4c685057c8728074422f4b9ff7f10b785619a8768730b470220150a775176d0f8d4da401f175b023b4786b56ff0df8bcd81a9fb867744d2728f01",
        "033b15233141b907e9d85d464e656f4938c2608ddc9b23dee05f9027025d3a542d"
      ],
      "is_coinbase": false,
      "sequence": 4294967295
    },
    {
      "txid": "54a918297d9a277ec964ff192e9611465083c53a358cf91e93f3e1669d1af882",
      "vout": 1,
      "prevout": {
        "scriptpubkey": "0014e1474251a317c72be0c9f4bb30139374d160f6c0",
        "scriptpubkey_asm": "OP_0 OP_PUSHBYTES_20 e1474251a317c72be0c9f4bb30139374d160f6c0",
        "scriptpubkey_type": "v0_p2wpkh",
        "scriptpubkey_address": "bc1qu9r5y5drzlrjhcxf7janqyunwngkpakq9y0gux",
        "value": 18427
      },
      "scriptsig": "",
      "scriptsig_asm": "",
      "witness": [
        "304402203237315ba36b7827ee2c5802af3ab9814547606364b75e0b64e2ecbe439babba0220332a6ee960b7e2b76ff302d7499bcad54201f8dbaac45a870a508433dd9f297601",
        "033b15233141b907e9d85d464e656f4938c2608ddc9b23dee05f9027025d3a542d"
      ],
      "is_coinbase": false,
      "sequence": 4294967295
    }
  ],
  "vout": [
    {
      "scriptpubkey": "a91427e6517827d69b1266f1a77c09ceca3dfe703a3a87",
      "scriptpubkey_asm": "OP_HASH160 OP_PUSHBYTES_20 27e6517827d69b1266f1a77c09ceca3dfe703a3a OP_EQUAL",
      "scriptpubkey_type": "p2sh",
      "scriptpubkey_address": "35KzBpLaRty5oevYkRpcDY9W6H8ayUpN4R",
      "value": 54527
    },
    {
      "scriptpubkey": "0014e1474251a317c72be0c9f4bb30139374d160f6c0",
      "scriptpubkey_asm": "OP_0 OP_PUSHBYTES_20 e1474251a317c72be0c9f4bb30139374d160f6c0",
      "scriptpubkey_type": "v0_p2wpkh",
      "scriptpubkey_address": "bc1qu9r5y5drzlrjhcxf7janqyunwngkpakq9y0gux",
      "value": 10404
    }
  ],
  "size": 818,
  "weight": 1652,
  "fee": 11178,
  "status": {
    "confirmed": true,
    "block_height": 834638,
    "block_hash": "000000000000000000025f742c626208ac87e0b7d15054abb4a19ca2d735a54e",
    "block_time": 1710405325
  },
  "hex": "010000000001058f00d498065a12d45bb2240847a43ef15d15b745d40e02bd50ec06fec3f1fd300100000000ffffffff5bce7f0285aed59e75691a849f06a7dd4cd6b8655c11a12bf04ad94ec65726d00100000000ffffffffa03c4f64058c8523d0d9cc9bec000d9d71ca84545c7e267d921f48cad529f0c40100000000ffffffffaecfbb16cc34360e80cf19a9feb8cf78739fd45f326c84ea9e58cb7ed5175a0c0100000000ffffffff82f81a9d66e1f3931ef98c353ac583504611962e19ff64c97e279a7d2918a9540100000000ffffffff02ffd400000000000017a91427e6517827d69b1266f1a77c09ceca3dfe703a3a87a428000000000000160014e1474251a317c72be0c9f4bb30139374d160f6c00247304402205bc36539bfadd3dae568b5d554dddbbf1abf14dff453b04e174fdef5a0cdd7af022029cd90f66232e3f87274ef79de25b5af4ddee898afabb48bff663417b52f8e0e0121033b15233141b907e9d85d464e656f4938c2608ddc9b23dee05f9027025d3a542d02483045022100df9877856ace2540711fc441aeb37262e24097b347dce3a9d9a98898e0b1bcce02207734d50d8f428e451ca6f8ab736ccdc5ecb0ef5d80822498103abf96a9963ba30121033b15233141b907e9d85d464e656f4938c2608ddc9b23dee05f9027025d3a542d02483045022100d67b300d36423738672f6e4bc6722fdf2d726cfcf5d51b0478a2fb418bb976ba0220401a1d94b22091f4d347a0d1d8fbe817c6da4bff6330f0ca6910b442bc60210e0121033b15233141b907e9d85d464e656f4938c2608ddc9b23dee05f9027025d3a542d02483045022100c79fac649861042ce4c685057c8728074422f4b9ff7f10b785619a8768730b470220150a775176d0f8d4da401f175b023b4786b56ff0df8bcd81a9fb867744d2728f0121033b15233141b907e9d85d464e656f4938c2608ddc9b23dee05f9027025d3a542d0247304402203237315ba36b7827ee2c5802af3ab9814547606364b75e0b64e2ecbe439babba0220332a6ee960b7e2b76ff302d7499bcad54201f8dbaac45a870a508433dd9f29760121033b15233141b907e9d85d464e656f4938c2608ddc9b23dee05f9027025d3a542d00000000"
}