{
  "txid": "105fdca940fd8da347b538e2bae21160953bec0833c76e8ea58ad208927cdc92",
  "version": 2,
  "locktime": 0,
  "vin": [
    {
      "txid": "ae6aca7b57772ae681c76878cc627b265c43d7a62c6dea926277f90e60c2eac5",
      "vout": 1,
      "prevout": {
        "scriptpubkey": "001412f524338d3fef03d61b7d0653cbf2e2be3debb4",
        "scriptpubkey_asm": "OP_0 OP_PUSHBYTES_20 12f524338d3fef03d61b7d0653cbf2e2be3debb4",
        "scriptpubkey_type": "v0_p2wpkh",
        "scriptpubkey_address": "bc1qzt6jgvud8lhs84sm05r98jlju2lrm6a5ap25s6",
        "value": 66541
      },
      "scriptsig": "",
      "scriptsig_asm": "",
      "witness": [
        "3044022009c5dacc1dd56a7b80a530b1fbb2506b668c99eb65c98586476d9dd238ba9fae02201269db455a89b9a002d55ac66e77216df6e88377fdb1eea156ec0aab73c5320201",
        "0339e4a1b3654b12ff61851e5ccb752f356c3131653c934e814e9bce8182984a18"
      ],
      "is_coinbase": false,
      "sequence": 4294967293
    },
    {
      "txid": "e1b4d932a3502c24ea34c055d2361f6fbecaa0eee182c8fc081d58b6470ddbbf",
      "vout": 61,
      "prevout": {
        "scriptpubkey": "00142fcab7a764923067f7db3b991f9c8ba102cae496",
        "scriptpubkey_asm": "OP_0 OP_PUSHBYTES_20 2fcab7a764923067f7db3b991f9c8ba102cae496",
        "scriptpubkey_type": "v0_p2wpkh",
        "scriptpubkey_address": "bc1q9l9t0fmyjgcx0a7m8wv3l8yt5ypv4eyk92pjes",
        "value": 62626
      },
      "scriptsig": "",
      "scriptsig_asm": "",
      "witness": [
        "304402202309a857992974fae1502c70224b01a1c7e7f564405e13840b16df1484bc7e8b02201100cf3947a20a84cd8bb9f78aa567dc3da23569188d958ff6f575dd318c000d01",
        "0308b6b2adec08921baad5116c3f339c11908c727401f5a9be3522b7b8381d274f"
      ],
      "is_coinbase": false,
      "sequence": 4294967293
    }
  ],
  "vout": [
    {
      "scriptpubkey": "0014ac64a6a5128d41cfd14ea4a6a05b7a2ff0f7426e",
      "scriptpubkey_asm": "OP_0 OP_PUSHBYTES_20 ac64a6a5128d41cfd14ea4a6a05b7a2ff0f7426e",
      "scriptpubkey_type": "v0_p2wpkh",
      "scriptpubkey_address": "bc1q43j2dfgj34qul52w5jn2qkm69lc0wsnwwxf9pj",
      "value": 127267
    }
  ],
  "size": 339,
  "weight": 708,
  "fee": 1900,
  "status": {
    "confirmed": true,
    "block_height": 834464,
    "block_hash": "0000000000000000000177a0869a911a2b65c9bdcd5a8bcb02b68f305bee848e",
    "block_time": 1710308296
  },
  "hex": "02000000000102c5eac2600ef9776292ea6d2ca6d7435c267b62cc7868c781e62a77577bca6aae0100000000fdffffffbfdb0d47b6581d08fcc882e1eea0cabe6f1f36d255c034ea242c50a332d9b4e13d00000000fdffffff0123f1010000000000160014ac64a6a5128d41cfd14ea4a6a05b7a2ff0f7426e02473044022009c5dacc1dd56a7b80a530b1fbb2506b668c99eb65c98586476d9dd238ba9fae02201269db455a89b9a002d55ac66e77216df6e88377fdb1eea156ec0aab73c5320201210339e4a1b3654b12ff61851e5ccb752f356c3131653c934e814e9bce8182984a180247304402202309a857992974fae1502c70224b01a1c7e7f564405e13840b16df1484bc7e8b02201100cf3947a20a84cd8bb9f78aa567dc3da23569188d958ff6f575dd318c000d01210308b6b2adec08921baad5116c3f339c11908c727401f5a9be3522b7b8381d274f00000000"
}