{
  "txid": "106043e339be2d1875f53e1510712c7773c6d85bacb806034bf4ee0d6d7b6b76",
  "version": 2,
  "locktime": 0,
  "vin": [
    {
      "txid": "688580b38dc1a32a68a06266e80fd907435f075b2aa6c0623752ab90543243ac",
      "vout": 0,
      "prevout": {
        "scriptpubkey": "5120e947d4cc37e559b7340cc11be05d54491c21fd9fee438538caf552a12c488e41",
        "scriptpubkey_asm": "OP_PUSHNUM_1 OP_PUSHBYTES_32 e947d4cc37e559b7340cc11be05d54491c21fd9fee438538caf552a12c488e41",
        "scriptpubkey_type": "v1_p2tr",
        "scriptpubkey_address": "bc1pa9rafnphu4vmwdqvcyd7qh25fywzrlvlaepc2wx274f2ztzg3eqsjwl6u5",
        "value": 3375
      },
      "scriptsig": "",
      "scriptsig_asm": "",
      "witness": [
        "9395819fbe8aa9b75738af1241e703b815cd967e7539f37d4194e057fb629aee15afb18015957baf0b043eb7966417ab9bfd6db78a5da12ee727fea4077bec9a",
        "20c81a15497cbf38a0b900443184bccd9f8243591a392026ae566570c997ff5f10ac0063036f7264010117746578742f68746d6c3b636861727365743d7574662d38004cbd3c736372697074207372633d222f636f6e74656e742f6439313635306139313165323763353430326666643435383933623137303233653065646538636236393132616131316665653062626232363464653262666469302220646174612d703d223533363136666463623364646232646337343162663632656432303965666232616361333432663934336339386331633739623437653834373131366563633069302c73732c31352c3130302c312c6c223e3c2f7363726970743e68",
        "c0c81a15497cbf38a0b900443184bccd9f8243591a392026ae566570c997ff5f10"
      ],
      "is_coinbase": false,
      "sequence": 4294967293
    }
  ],
  "vout": [
    {
      "scriptpubkey": "51203ce59705df035380e8f30e1d643f0b6847c01fd4dfbbed2ed6eb101fd6730044",
      "scriptpubkey_asm": "OP_PUSHNUM_1 OP_PUSHBYTES_32 3ce59705df035380e8f30e1d643f0b6847c01fd4dfbbed2ed6eb101fd6730044",
      "scriptpubkey_type": "v1_p2tr",
      "scriptpubkey_address": "bc1p8njewpwlqdfcp68npcwkg0ctdpruq875m7a76tkkavgpl4nnqpzqun8ajx",
      "value": 600
    }
  ],
  "size": 458,
  "weight": 740,
  "fee": 2775,
  "status": {
    "confirmed": true,
    "block_height": 834638,
    "block_hash": "000000000000000000025f742c626208ac87e0b7d15054abb4a19ca2d735a54e",
    "block_time": 1710405325
  },
  "hex": "02000000000101ac43325490ab523762c0a62a5b075f4307d90fe86662a0682aa3c18db38085680000000000fdffffff0158020000000000002251203ce59705df035380e8f30e1d643f0b6847c01fd4dfbbed2ed6eb101fd673004403409395819fbe8aa9b75738af1241e703b815cd967e7539f37d4194e057fb629aee15afb18015957baf0b043eb7966417ab9bfd6db78a5da12ee727fea4077bec9afd030120c81a15497cbf38a0b900443184bccd9f8243591a392026ae566570c997ff5f10ac0063036f7264010117746578742f68746d6c3b636861727365743d7574662d38004cbd3c736372697074207372633d222f636f6e74656e742f6439313635306139313165323763353430326666643435383933623137303233653065646538636236393132616131316665653062626232363464653262666469302220646174612d703d223533363136666463623364646232646337343162663632656432303965666232616361333432663934336339386331633739623437653834373131366563633069302c73732c31352c3130302c312c6c223e3c2f7363726970743e6821c0c81a15497cbf38a0b900443184bccd9f8243591a392026ae566570c997ff5f1000000000"
}