{
  "txid": "106241e45d9da92da84ae874ca22f9a79bf29e928913c4c9cd52428a3da6a2f9",
  "version": 1,
  "locktime": 0,
  "vin": [
    {
      "txid": "888888888ef6f52e344a2bae0a3ea4a8d6ff96774a8c16f814f2c04abcc76e5e",
      "vout": 0,
      "prevout": {
        "scriptpubkey": "512010800209a0b060cfa1e33f31490d965f83d2ad80299b733da28112976aefdf28",
        "scriptpubkey_asm": "OP_PUSHNUM_1 OP_PUSHBYTES_32 10800209a0b060cfa1e33f31490d965f83d2ad80299b733da28112976aefdf28",
        "scriptpubkey_type": "v1_p2tr",
        "scriptpubkey_address": "bc1pzzqqyzdqkpsvlg0r8uc5jrvkt7pa9tvq9xdhx0dzsyffw6h0mu5q7jzqwv",
        "value": 11923
      },
      "scriptsig": "",
      "scriptsig_asm": "",
      "witness": [
        "67df35fa83759b32f570a2beaabacb11e1cc463a78037999235a3b7ba42cd0592f193bf4802e58483e67c9c406bd19128bd0e30df35a6bbc8d3a2211c4dbd140",
        "202b2a0fbe98b5c561ac05931839b1bfbcf3df415309a9da719ae7dfcdf092dabbac00630461746f6d03646d7446a16461726773a46474696d651a65f1f44c656e6f6e63651a0001000068626974776f726b636b3838383838383838382e386b6d696e745f7469636b657268696e66696e69747968",
        "c12b2a0fbe98b5c561ac05931839b1bfbcf3df415309a9da719ae7dfcdf092dabb"
      ],
      "is_coinbase": false,
      "sequence": 4294967295
    }
  ],
  "vout": [
    {
      "scriptpubkey": "5120ee5d73a166b5fcf6fb0e22e1428770d9455bcd536c28912b437450303ef41201",
      "scriptpubkey_asm": "OP_PUSHNUM_1 OP_PUSHBYTES_32 ee5d73a166b5fcf6fb0e22e1428770d9455bcd536c28912b437450303ef41201",
      "scriptpubkey_type": "v1_p2tr",
      "scriptpubkey_address": "bc1paewh8gtxkh70d7cwyts59pmsm9z4hn2nds5fz26rw3grq0h5zgqsmngref",
      "value": 9999
    }
  ],
  "size": 314,
  "weight": 596,
  "fee": 1924,
  "status": {
    "confirmed": true,
    "block_height": 834552,
    "block_hash": "00000000000000000001dd0468a70c94f619251d286585cff57aeb4bd9ede330",
    "block_time": 1710355598
  },
  "hex": "010000000001015e6ec7bc4ac0f214f8168c4a7796ffd6a8a43e0aae2b4a342ef5f68e888888880000000000ffffffff010f27000000000000225120ee5d73a166b5fcf6fb0e22e1428770d9455bcd536c28912b437450303ef41201034067df35fa83759b32f570a2beaabacb11e1cc463a78037999235a3b7ba42cd0592f193bf4802e58483e67c9c406bd19128bd0e30df35a6bbc8d3a2211c4dbd14075202b2a0fbe98b5c561ac05931839b1bfbcf3df415309a9da719ae7dfcdf092dabbac00630461746f6d03646d7446a16461726773a46474696d651a65f1f44c656e6f6e63651a0001000068626974776f726b636b3838383838383838382e386b6d696e745f7469636b657268696e66696e6974796821c12b2a0fbe98b5c561ac05931839b1bfbcf3df415309a9da719ae7dfcdf092dabb00000000"
}