{
  "txid": "1069a8297a96ecdd987c975905d420dd4d2b94dbef1914a4af294a3509fd6e80",
  "version": 1,
  "locktime": 0,
  "vin": [
    {
      "txid": "dda673488a2ac61df3c2271c64095d285563672b7f48f4c71ec40b78fb5f90bc",
      "vout": 2,
      "prevout": {
        "scriptpubkey": "001466ac3e8dd7beaf668ee28b446737e1f55bada6d6",
        "scriptpubkey_asm": "OP_0 OP_PUSHBYTES_20 66ac3e8dd7beaf668ee28b446737e1f55bada6d6",
        "scriptpubkey_type": "v0_p2wpkh",
        "scriptpubkey_address": "bc1qv6krarwhh6hkdrhz3dzxwdlp74d6mfkk09tmgp",
        "value": 287433
      },
      "scriptsig": "",
      "scriptsig_asm": "",
      "witness": [
        "304402207b1fbced8b40c448e6a43316b78c67f0c130ad2bae305b7169260ba6317d30060220677ef2277b7629a23f58926399308c0072ac0f703b2c7ef5a5534ed5729fa87601",
        "02f2911d27fc6dfc0c9408795bc2450f640ec4c9f5ea9bbcd696b514f460197490"
      ],
      "is_coinbase": false,
      "sequence": 4294967295
    }
  ],
  "vout": [
    {
      "scriptpubkey": "51209d8e56d8ee1cf13f6b06e9ee50fdd1d1afb0f4bdb56569cc14d6e7d5e5013779",
      "scriptpubkey_asm": "OP_PUSHNUM_1 OP_PUSHBYTES_32 9d8e56d8ee1cf13f6b06e9ee50fdd1d1afb0f4bdb56569cc14d6e7d5e5013779",
      "scriptpubkey_type": "v1_p2tr",
      "scriptpubkey_address": "bc1pnk89dk8wrncn76cxa8h9plw36xhmpa9ak4jknnq56mnategpxausvwvycj",
      "value": 5793
    },
    {
      "scriptpubkey": "5120d97c3da1c78e36128d8d6a692ff4f7a5ba50a1f4cad642c422fc3afec66222c3",
      "scriptpubkey_asm": "OP_PUSHNUM_1 OP_PUSHBYTES_32 d97c3da1c78e36128d8d6a692ff4f7a5ba50a1f4cad642c422fc3afec66222c3",
      "scriptpubkey_type": "v1_p2tr",
      "scriptpubkey_address": "bc1pm97rmgw83cmp9rvddf5jla8h5ka9pg05etty93pzlsa0a3nzytpsa433vj",
      "value": 4750
    },
    {
      "scriptpubkey": "001466ac3e8dd7beaf668ee28b446737e1f55bada6d6",
      "scriptpubkey_asm": "OP_0 OP_PUSHBYTES_20 66ac3e8dd7beaf668ee28b446737e1f55bada6d6",
      "scriptpubkey_type": "v0_p2wpkh",
      "scriptpubkey_address": "bc1qv6krarwhh6hkdrhz3dzxwdlp74d6mfkk09tmgp",
      "value": 270422
    }
  ],
  "size": 277,
  "weight": 781,
  "fee": 6468,
  "status": {
    "confirmed": true,
    "block_height": 834460,
    "block_hash": "00000000000000000000484a79b643b2524bbce82e5d8a442013fa5b8905ed98",
    "block_time": 1710307468
  },
  "hex": "01000000000101bc905ffb780bc41ec7f4487f2b676355285d09641c27c2f31dc62a8a4873a6dd0200000000ffffffff03a1160000000000002251209d8e56d8ee1cf13f6b06e9ee50fdd1d1afb0f4bdb56569cc14d6e7d5e50137798e12000000000000225120d97c3da1c78e36128d8d6a692ff4f7a5ba50a1f4cad642c422fc3afec66222c3562004000000000016001466ac3e8dd7beaf668ee28b446737e1f55bada6d60247304402207b1fbced8b40c448e6a43316b78c67f0c130ad2bae305b7169260ba6317d30060220677ef2277b7629a23f58926399308c0072ac0f703b2c7ef5a5534ed5729fa876012102f2911d27fc6dfc0c9408795bc2450f640ec4c9f5ea9bbcd696b514f46019749000000000"
}