{
  "txid": "10744ba895073a0c7e50c8dcd45c3318cdd5fb6f969ad5d44a9913879604105d",
  "version": 2,
  "locktime": 0,
  "vin": [
    {
      "txid": "6d64edf2219ddd8345cc09c0f13e9be5dac2b5a19ecfca34b5f437ddeca5b377",
      "vout": 9,
      "prevout": {
        "scriptpubkey": "00144813ffd3d0a1599368a0715a559b04e6afb0b52b",
        "scriptpubkey_asm": "OP_0 OP_PUSHBYTES_20 4813ffd3d0a1599368a0715a559b04e6afb0b52b",
        "scriptpubkey_type": "v0_p2wpkh",
        "scriptpubkey_address": "bc1qfqfll57s59vex69qw9d9txcyu6hmpdft4wt6gj",
        "value": 2385388
      },
      "scriptsig": "",
      "scriptsig_asm": "",
      "witness": [
        "3045022100ca9775d037f8da5b8ffec65a30978f7a73b76d9e04790916c2bc7cd34dd0ff1002204c0dbc03185d0dea4fd03a7bd12d37810481359ee7547839b336a10d2d6d301401",
        "02820989ea97a01e1517fee289bf17e923ff031d9ec62e827262468ea371c158d1"
      ],
      "is_coinbase": false,
      "sequence": 4294967293
    }
  ],
  "vout": [
    {
      "scriptpubkey": "00145f35a124069683ddeb2f1726e9a1173f9340c87e",
      "scriptpubkey_asm": "OP_0 OP_PUSHBYTES_20 5f35a124069683ddeb2f1726e9a1173f9340c87e",
      "scriptpubkey_type": "v0_p2wpkh",
      "scriptpubkey_address": "bc1qtu66zfqxj6pam6e0zunwnggh87f5pjr7vdr5cd",
      "value": 2325388
    },
    {
      "scriptpubkey": "0014fb7a185fc47428a9992c09f70c6add47a5c19223",
      "scriptpubkey_asm": "OP_0 OP_PUSHBYTES_20 fb7a185fc47428a9992c09f70c6add47a5c19223",
      "scriptpubkey_type": "v0_p2wpkh",
      "scriptpubkey_address": "bc1qldapsh7yws52nxfvp8msc6kag7jury3rxrw4dm",
      "value": 30000
    },
    {
      "scriptpubkey": "00144813ffd3d0a1599368a0715a559b04e6afb0b52b",
      "scriptpubkey_asm": "OP_0 OP_PUSHBYTES_20 4813ffd3d0a1599368a0715a559b04e6afb0b52b",
      "scriptpubkey_type": "v0_p2wpkh",
      "scriptpubkey_address": "bc1qfqfll57s59vex69qw9d9txcyu6hmpdft4wt6gj",
      "value": 26346
    }
  ],
  "size": 254,
  "weight": 686,
  "fee": 3654,
  "status": {
    "confirmed": true,
    "block_height": 834638,
    "block_hash": "000000000000000000025f742c626208ac87e0b7d15054abb4a19ca2d735a54e",
    "block_time": 1710405325
  },
  "hex": "0200000000010177b3a5ecdd37f4b534cacf9ea1b5c2dae59b3ef1c009cc4583dd9d21f2ed646d0900000000fdffffff038c7b2300000000001600145f35a124069683ddeb2f1726e9a1173f9340c87e3075000000000000160014fb7a185fc47428a9992c09f70c6add47a5c19223ea660000000000001600144813ffd3d0a1599368a0715a559b04e6afb0b52b02483045022100ca9775d037f8da5b8ffec65a30978f7a73b76d9e04790916c2bc7cd34dd0ff1002204c0dbc03185d0dea4fd03a7bd12d37810481359ee7547839b336a10d2d6d3014012102820989ea97a01e1517fee289bf17e923ff031d9ec62e827262468ea371c158d100000000"
}