{
  "txid": "1074b8e6979809cc6cc15a4d5436400b0e81ea3830b0bf74c7cf7c5ac7663580",
  "version": 1,
  "locktime": 0,
  "vin": [
    {
      "txid": "ecb1b37dadb1eaa7dcc95be9581291ad31c0615ac0d6fec8fef762d6a7474db1",
      "vout": 1,
      "prevout": {
        "scriptpubkey": "00141a296d8834fec750161920e992c80fe597eeef5d",
        "scriptpubkey_asm": "OP_0 OP_PUSHBYTES_20 1a296d8834fec750161920e992c80fe597eeef5d",
        "scriptpubkey_type": "v0_p2wpkh",
        "scriptpubkey_address": "bc1qrg5kmzp5lmr4q9seyr5e9jq0ukt7am6alc0rmz",
        "value": 202436
      },
      "scriptsig": "",
      "scriptsig_asm": "",
      "witness": [
        "3045022100e4abc2571616709da6d46281fe7a98944f5259904897f6abd5a1d64eea63980b02205f57acdc957da2f0177acb7f84245588cc9feb203711985cc39d16a14713523401",
        "03245ab2900480350aaa0ddeaa30439442000f1019b531ded227b1d8d710de3ad4"
      ],
      "is_coinbase": false,
      "sequence": 4294967295
    }
  ],
  "vout": [
    {
      "scriptpubkey": "0014c4ac27a37ae01ff13e4604d76e7dfc2ba567e91c",
      "scriptpubkey_asm": "OP_0 OP_PUSHBYTES_20 c4ac27a37ae01ff13e4604d76e7dfc2ba567e91c",
      "scriptpubkey_type": "v0_p2wpkh",
      "scriptpubkey_address": "bc1qcjkz0gm6uq0lz0jxqntkul0u9wjk06gu6ftx60",
      "value": 200456
    }
  ],
  "size": 192,
  "weight": 438,
  "fee": 1980,
  "status": {
    "confirmed": true,
    "block_height": 834638,
    "block_hash": "000000000000000000025f742c626208ac87e0b7d15054abb4a19ca2d735a54e",
    "block_time": 1710405325
  },
  "hex": "01000000000101b14d47a7d662f7fec8fed6c05a61c031ad911258e95bc9dca7eab1ad7db3b1ec0100000000ffffffff01080f030000000000160014c4ac27a37ae01ff13e4604d76e7dfc2ba567e91c02483045022100e4abc2571616709da6d46281fe7a98944f5259904897f6abd5a1d64eea63980b02205f57acdc957da2f0177acb7f84245588cc9feb203711985cc39d16a147135234012103245ab2900480350aaa0ddeaa30439442000f1019b531ded227b1d8d710de3ad400000000"
}