{
  "txid": "107c20cabee5663797edda4695aec83bb01609c0977b5a59ad40720a3d99d5b9",
  "version": 2,
  "locktime": 834550,
  "vin": [
    {
      "txid": "a9a767e395fe6d48300dcc7bba6c7b5c7adea9e64532232be00f6b21c0137ac6",
      "vout": 0,
      "prevout": {
        "scriptpubkey": "0014df9b62a0b811ec277c5d69028d0aab27a983cb51",
        "scriptpubkey_asm": "OP_0 OP_PUSHBYTES_20 df9b62a0b811ec277c5d69028d0aab27a983cb51",
        "scriptpubkey_type": "v0_p2wpkh",
        "scriptpubkey_address": "bc1qm7dk9g9cz8kzwlzadypg6z4ty75c8j63n8ll4p",
        "value": 115920
      },
      "scriptsig": "",
      "scriptsig_asm": "",
      "witness": [
        "304402200ebd35647fe5128906e99181bc168a1c137b559671d90079e57c49397fb23a24022053f37db56b50268749155a3c9215358b0f5bf766ffae8e64df7b78fb0449b37601",
        "029f9f6ef0562ce02dba8bb378e2fc44aad266c1bc18be3d3ee592a24838d591b5"
      ],
      "is_coinbase": false,
      "sequence": 4294967293
    }
  ],
  "vout": [
    {
      "scriptpubkey": "0014e6166e6d0f9cd0af5e8b984cf74a25f504a7ab51",
      "scriptpubkey_asm": "OP_0 OP_PUSHBYTES_20 e6166e6d0f9cd0af5e8b984cf74a25f504a7ab51",
      "scriptpubkey_type": "v0_p2wpkh",
      "scriptpubkey_address": "bc1quctxumg0nng27h5tnpx0wj3975z20263luut8f",
      "value": 114261
    }
  ],
  "size": 191,
  "weight": 437,
  "fee": 1659,
  "status": {
    "confirmed": true,
    "block_height": 834552,
    "block_hash": "00000000000000000001dd0468a70c94f619251d286585cff57aeb4bd9ede330",
    "block_time": 1710355598
  },
  "hex": "02000000000101c67a13c0216b0fe02b233245e6a9de7a5c7b6cba7bcc0d30486dfe95e367a7a90000000000fdffffff0155be010000000000160014e6166e6d0f9cd0af5e8b984cf74a25f504a7ab510247304402200ebd35647fe5128906e99181bc168a1c137b559671d90079e57c49397fb23a24022053f37db56b50268749155a3c9215358b0f5bf766ffae8e64df7b78fb0449b3760121029f9f6ef0562ce02dba8bb378e2fc44aad266c1bc18be3d3ee592a24838d591b5f6bb0c00"
}