{
  "txid": "1081d42e875f218d6f9dd7fa51ace13263d903b99aca50aded9595da6474ebfe",
  "version": 1,
  "locktime": 0,
  "vin": [
    {
      "txid": "adc3f37e1f7134bcb3d5e50f3a9fb54063730baf6dd8af1a19322901f03dfcdd",
      "vout": 0,
      "prevout": {
        "scriptpubkey": "76a914a8dc98c0706a93ded03924fe7f108f67d7f026b288ac",
        "scriptpubkey_asm": "OP_DUP OP_HASH160 OP_PUSHBYTES_20 a8dc98c0706a93ded03924fe7f108f67d7f026b2 OP_EQUALVERIFY OP_CHECKSIG",
        "scriptpubkey_type": "p2pkh",
        "scriptpubkey_address": "1GPrnZ8cUfQEHHAr7TUVGfT4AB2arNrLJP",
        "value": 8438
      },
      "scriptsig": "4730440220747b0269f3911e43e1cecda7658e2e802fd144d7b2a5f59965e920e4ed9210e402200b0fef4772a81bc55bf7e6274090c700fa9bf83bead13aad753e1cb60769f5190121034fa3e4d33dbdf3d65e40029189d87bfcf662b43169194da723d56981dd1ac233",
      "scriptsig_asm": "OP_PUSHBYTES_71 30440220747b0269f3911e43e1cecda7658e2e802fd144d7b2a5f59965e920e4ed9210e402200b0fef4772a81bc55bf7e6274090c700fa9bf83bead13aad753e1cb60769f51901 OP_PUSHBYTES_33 034fa3e4d33dbdf3d65e40029189d87bfcf662b43169194da723d56981dd1ac233",
      "is_coinbase": false,
      "sequence": 2147483649
    }
  ],
  "vout": [
    {
      "scriptpubkey": "0014f73c60ac4c115eb0be8b3bb9a4f8a6776c35fb6f",
      "scriptpubkey_asm": "OP_0 OP_PUSHBYTES_20 f73c60ac4c115eb0be8b3bb9a4f8a6776c35fb6f",
      "scriptpubkey_type": "v0_p2wpkh",
      "scriptpubkey_address": "bc1q7u7xptzvz90tp05t8wu6f79xwakrt7m0jz03ek",
      "value": 5500
    }
  ],
  "size": 188,
  "weight": 752,
  "fee": 2938,
  "status": {
    "confirmed": true,
    "block_height": 834638,
    "block_hash": "000000000000000000025f742c626208ac87e0b7d15054abb4a19ca2d735a54e",
    "block_time": 1710405325
  },
  "hex": "0100000001ddfc3df0012932191aafd86daf0b736340b59f3a0fe5d5b3bc34711f7ef3c3ad000000006a4730440220747b0269f3911e43e1cecda7658e2e802fd144d7b2a5f59965e920e4ed9210e402200b0fef4772a81bc55bf7e6274090c700fa9bf83bead13aad753e1cb60769f5190121034fa3e4d33dbdf3d65e40029189d87bfcf662b43169194da723d56981dd1ac23301000080017c15000000000000160014f73c60ac4c115eb0be8b3bb9a4f8a6776c35fb6f00000000"
}