{
  "txid": "109a869622bc7450a4b36715220a977bd2acd46255c7945987d8d68f70dcda1b",
  "version": 2,
  "locktime": 0,
  "vin": [
    {
      "txid": "1894acbd01c14369f8901a2243a5e496660b567d7c961e870947adc7ea8e3e18",
      "vout": 1,
      "prevout": {
        "scriptpubkey": "5120afe55f411d954d828597ce9aad90846d077388330a8de911d272c33699eebaaa",
        "scriptpubkey_asm": "OP_PUSHNUM_1 OP_PUSHBYTES_32 afe55f411d954d828597ce9aad90846d077388330a8de911d272c33699eebaaa",
        "scriptpubkey_type": "v1_p2tr",
        "scriptpubkey_address": "bc1p4lj47sgaj4xc9pvhe6d2myyyd5rh8zpnp2x7jywjwtpndx0wh24q872yvt",
        "value": 1322855
      },
      "scriptsig": "",
      "scriptsig_asm": "",
      "witness": [
        "4ba7e28e231982da34ecb2347720cbe04daff6b366f6dd833e509a8c95328a568b0650bf238235c4cbb1679082223824bc596d054cff3cace8d9b73229a755c1"
      ],
      "is_coinbase": false,
      "sequence": 2147483649
    }
  ],
  "vout": [
    {
      "scriptpubkey": "a9142bec66b85451ca4cec022e186d33451fcc6b10db87",
      "scriptpubkey_asm": "OP_HASH160 OP_PUSHBYTES_20 2bec66b85451ca4cec022e186d33451fcc6b10db OP_EQUAL",
      "scriptpubkey_type": "p2sh",
      "scriptpubkey_address": "35hGBEqBuPkCQmAXUMUYQuacZMgeumMohX",
      "value": 901339
    },
    {
      "scriptpubkey": "5120afe55f411d954d828597ce9aad90846d077388330a8de911d272c33699eebaaa",
      "scriptpubkey_asm": "OP_PUSHNUM_1 OP_PUSHBYTES_32 afe55f411d954d828597ce9aad90846d077388330a8de911d272c33699eebaaa",
      "scriptpubkey_type": "v1_p2tr",
      "scriptpubkey_address": "bc1p4lj47sgaj4xc9pvhe6d2myyyd5rh8zpnp2x7jywjwtpndx0wh24q872yvt",
      "value": 419228
    }
  ],
  "size": 194,
  "weight": 572,
  "fee": 2288,
  "status": {
    "confirmed": true,
    "block_height": 834464,
    "block_hash": "0000000000000000000177a0869a911a2b65c9bdcd5a8bcb02b68f305bee848e",
    "block_time": 1710308296
  },
  "hex": "02000000000101183e8eeac7ad4709871e967c7d560b6696e4a543221a90f86943c101bdac941801000000000100008002dbc00d000000000017a9142bec66b85451ca4cec022e186d33451fcc6b10db879c65060000000000225120afe55f411d954d828597ce9aad90846d077388330a8de911d272c33699eebaaa01404ba7e28e231982da34ecb2347720cbe04daff6b366f6dd833e509a8c95328a568b0650bf238235c4cbb1679082223824bc596d054cff3cace8d9b73229a755c100000000"
}