{
  "txid": "10bb3342035a4fb5f253460b243bae73af1829d071faa9f03310ff31d06f2586",
  "version": 2,
  "locktime": 833001,
  "vin": [
    {
      "txid": "20313071dabd51b176d4a32f79a481cf541ceb484006c8a1a732deba77d3617d",
      "vout": 1,
      "prevout": {
        "scriptpubkey": "00141f6542943e81120409e8c400b32e6a561c13aa3f",
        "scriptpubkey_asm": "OP_0 OP_PUSHBYTES_20 1f6542943e81120409e8c400b32e6a561c13aa3f",
        "scriptpubkey_type": "v0_p2wpkh",
        "scriptpubkey_address": "bc1qraj599p7syfqgz0gcsqtxtn22cwp823l7legrl",
        "value": 5000000
      },
      "scriptsig": "",
      "scriptsig_asm": "",
      "witness": [
        "304402206dfbdaf91f2af326f8a0b0e9495bc0bba19b47abac9274c5419c7abbb03fafa902205eef0c8f7a097c67fa651a4e2103dec2f3f7a2458293c4e8eec6761aaa6bf54e01",
        "0236008ff903fee8ba0d6c5e3e7037a18006d4777581d9fac2bacb123ab8c98d5e"
      ],
      "is_coinbase": false,
      "sequence": 4294967293
    }
  ],
  "vout": [
    {
      "scriptpubkey": "00144fd78096415495101dd0ff6ebf3f0b439ecac4e6",
      "scriptpubkey_asm": "OP_0 OP_PUSHBYTES_20 4fd78096415495101dd0ff6ebf3f0b439ecac4e6",
      "scriptpubkey_type": "v0_p2wpkh",
      "scriptpubkey_address": "bc1qfltcp9jp2j23q8wslaht70ctgw0v438xzyf8dy",
      "value": 4998803
    }
  ],
  "size": 191,
  "weight": 437,
  "fee": 1197,
  "status": {
    "confirmed": true,
    "block_height": 834464,
    "block_hash": "0000000000000000000177a0869a911a2b65c9bdcd5a8bcb02b68f305bee848e",
    "block_time": 1710308296
  },
  "hex": "020000000001017d61d377bade32a7a1c8064048eb1c54cf81a4792fa3d476b151bdda713031200100000000fdffffff0193464c00000000001600144fd78096415495101dd0ff6ebf3f0b439ecac4e60247304402206dfbdaf91f2af326f8a0b0e9495bc0bba19b47abac9274c5419c7abbb03fafa902205eef0c8f7a097c67fa651a4e2103dec2f3f7a2458293c4e8eec6761aaa6bf54e01210236008ff903fee8ba0d6c5e3e7037a18006d4777581d9fac2bacb123ab8c98d5ee9b50c00"
}