{
  "txid": "10c2a4bc393742606a14cc236297fca7691a991658e812509c80a1d456e80198",
  "version": 2,
  "locktime": 0,
  "vin": [
    {
      "txid": "acc3ba00869acb582a3f2904ce3a11dd3779350ce234063fc7d0959246213364",
      "vout": 224,
      "prevout": {
        "scriptpubkey": "5120e630060c802efa7bd6872b0bc808d6faa1b53c7a58c484fa8eac939f916cf1ce",
        "scriptpubkey_asm": "OP_PUSHNUM_1 OP_PUSHBYTES_32 e630060c802efa7bd6872b0bc808d6faa1b53c7a58c484fa8eac939f916cf1ce",
        "scriptpubkey_type": "v1_p2tr",
        "scriptpubkey_address": "bc1puccqvryq9ma8h4589v9uszxkl2sm20r6trzgf75w4jfelytv788qctvmjp",
        "value": 1806
      },
      "scriptsig": "",
      "scriptsig_asm": "",
      "witness": [
        "ce52995e45a7871efd38924f91a57b887ac335ae8c59afc381edc30667b2b46dd23641380012d2363d3c5c45e41677d1983bf78dd0b1c33a0cc9aff83d3beea9",
        "20f5d32368a36f9ca2ff939d95aa3c554bd4c4fe8edc9586d90f7fbd7b7d47910cac0063036f726401010a746578742f706c61696e00357b2270223a226272632d3230222c226f70223a226d696e74222c227469636b223a22646f6765222c22616d74223a2234323030227d68",
        "c1f5d32368a36f9ca2ff939d95aa3c554bd4c4fe8edc9586d90f7fbd7b7d47910c"
      ],
      "is_coinbase": false,
      "sequence": 4261412863
    }
  ],
  "vout": [
    {
      "scriptpubkey": "00147a665de7a370f4c9b372ab1fae587500a5bcbdb4",
      "scriptpubkey_asm": "OP_0 OP_PUSHBYTES_20 7a665de7a370f4c9b372ab1fae587500a5bcbdb4",
      "scriptpubkey_type": "v0_p2wpkh",
      "scriptpubkey_address": "bc1q0fn9mearwr6vnvmj4v06ukr4qzjme0d565dzcx",
      "value": 294
    }
  ],
  "size": 294,
  "weight": 540,
  "fee": 1512,
  "status": {
    "confirmed": true,
    "block_height": 834460,
    "block_hash": "00000000000000000000484a79b643b2524bbce82e5d8a442013fa5b8905ed98",
    "block_time": 1710307468
  },
  "hex": "02000000000101643321469295d0c73f0634e20c357937dd113ace04293f2a58cb9a8600bac3ace000000000fffffffd0126010000000000001600147a665de7a370f4c9b372ab1fae587500a5bcbdb40340ce52995e45a7871efd38924f91a57b887ac335ae8c59afc381edc30667b2b46dd23641380012d2363d3c5c45e41677d1983bf78dd0b1c33a0cc9aff83d3beea96d20f5d32368a36f9ca2ff939d95aa3c554bd4c4fe8edc9586d90f7fbd7b7d47910cac0063036f726401010a746578742f706c61696e00357b2270223a226272632d3230222c226f70223a226d696e74222c227469636b223a22646f6765222c22616d74223a2234323030227d6821c1f5d32368a36f9ca2ff939d95aa3c554bd4c4fe8edc9586d90f7fbd7b7d47910c00000000"
}