{
  "txid": "10d44e89c9be89253117ce4af117c8b2b2cf3bb228f964e2b23e84c51044da5a",
  "version": 2,
  "locktime": 834637,
  "vin": [
    {
      "txid": "5589729fb1e1643a57acdee33090e0dc320bdc66939d0ee001532cc4f0e5bf15",
      "vout": 1,
      "prevout": {
        "scriptpubkey": "001492c640978a43b23e227f2eee8cf0ce85c4a352ab",
        "scriptpubkey_asm": "OP_0 OP_PUSHBYTES_20 92c640978a43b23e227f2eee8cf0ce85c4a352ab",
        "scriptpubkey_type": "v0_p2wpkh",
        "scriptpubkey_address": "bc1qjtryp9u2gwerugnl9mhgeuxwshz2x54t5ar0xf",
        "value": 735904588
      },
      "scriptsig": "",
      "scriptsig_asm": "",
      "witness": [
        "304402206acd1d9f3bb0328a5d9a2eecb84420084e944d2f1484ff20f9544906f569fea702206504a255b2925bcb0546260bfef3a4fd66af0583848d426d42133599581f2ffe01",
        "02679f9280aae47622cb7ef1f6d1be0f4f19a2c434ab7c7964f9563d7159fa8ab6"
      ],
      "is_coinbase": false,
      "sequence": 4294967294
    }
  ],
  "vout": [
    {
      "scriptpubkey": "00147ee8a2f1a12f2fa67a680d32c3509e77a47fba83",
      "scriptpubkey_asm": "OP_0 OP_PUSHBYTES_20 7ee8a2f1a12f2fa67a680d32c3509e77a47fba83",
      "scriptpubkey_type": "v0_p2wpkh",
      "scriptpubkey_address": "bc1q0m529udp9uh6v7ngp5evx5y7w7j8lw5rmsy2dh",
      "value": 721033432
    },
    {
      "scriptpubkey": "0014db67d8ba2121f1060d0794f5731ecb4a1085894b",
      "scriptpubkey_asm": "OP_0 OP_PUSHBYTES_20 db67d8ba2121f1060d0794f5731ecb4a1085894b",
      "scriptpubkey_type": "v0_p2wpkh",
      "scriptpubkey_address": "bc1qmdna3w3py8csvrg8jn6hx8ktfgggtz2t4pnnn0",
      "value": 14867700
    }
  ],
  "size": 222,
  "weight": 561,
  "fee": 3456,
  "status": {
    "confirmed": true,
    "block_height": 834638,
    "block_hash": "000000000000000000025f742c626208ac87e0b7d15054abb4a19ca2d735a54e",
    "block_time": 1710405325
  },
  "hex": "0200000000010115bfe5f0c42c5301e00e9d9366dc0b32dce09030e3deac573a64e1b19f7289550100000000feffffff02d818fa2a000000001600147ee8a2f1a12f2fa67a680d32c3509e77a47fba83f4dce20000000000160014db67d8ba2121f1060d0794f5731ecb4a1085894b0247304402206acd1d9f3bb0328a5d9a2eecb84420084e944d2f1484ff20f9544906f569fea702206504a255b2925bcb0546260bfef3a4fd66af0583848d426d42133599581f2ffe012102679f9280aae47622cb7ef1f6d1be0f4f19a2c434ab7c7964f9563d7159fa8ab64dbc0c00"
}