{
  "txid": "10e2810154f407f606c9b40eeaca8976ce5d3c3df43cf9b8f1fa537c1667bc4a",
  "version": 2,
  "locktime": 0,
  "vin": [
    {
      "txid": "acc3ba00869acb582a3f2904ce3a11dd3779350ce234063fc7d0959246213364",
      "vout": 191,
      "prevout": {
        "scriptpubkey": "5120c341bcfba37211237eb63b94eb7c4fc301b338382a8dd84626d4cf11f052d2e9",
        "scriptpubkey_asm": "OP_PUSHNUM_1 OP_PUSHBYTES_32 c341bcfba37211237eb63b94eb7c4fc301b338382a8dd84626d4cf11f052d2e9",
        "scriptpubkey_type": "v1_p2tr",
        "scriptpubkey_address": "bc1pcdqme7arwggjxl4k8w2wklz0cvqmxwpc92xas33x6n83ruzj6t5swxx697",
        "value": 1806
      },
      "scriptsig": "",
      "scriptsig_asm": "",
      "witness": [
        "20f3f1419ec0c86371b5bc7f31bf4164bd8e3f87702fd110074d9de069631ebe02ba3f5939776df7c35febfe7a5da0bae011bdaaafeb1d5800aaa1403ed9aaec",
        "20b54a1dd41dcd1f42ebb889ef76d5647e81eeee863c764dfe24b4b5ed65b65bd2ac0063036f726401010a746578742f706c61696e00357b2270223a226272632d3230222c226f70223a226d696e74222c227469636b223a22646f6765222c22616d74223a2234323030227d68",
        "c1b54a1dd41dcd1f42ebb889ef76d5647e81eeee863c764dfe24b4b5ed65b65bd2"
      ],
      "is_coinbase": false,
      "sequence": 4261412863
    }
  ],
  "vout": [
    {
      "scriptpubkey": "00147a665de7a370f4c9b372ab1fae587500a5bcbdb4",
      "scriptpubkey_asm": "OP_0 OP_PUSHBYTES_20 7a665de7a370f4c9b372ab1fae587500a5bcbdb4",
      "scriptpubkey_type": "v0_p2wpkh",
      "scriptpubkey_address": "bc1q0fn9mearwr6vnvmj4v06ukr4qzjme0d565dzcx",
      "value": 294
    }
  ],
  "size": 294,
  "weight": 540,
  "fee": 1512,
  "status": {
    "confirmed": true,
    "block_height": 834460,
    "block_hash": "00000000000000000000484a79b643b2524bbce82e5d8a442013fa5b8905ed98",
    "block_time": 1710307468
  },
  "hex": "02000000000101643321469295d0c73f0634e20c357937dd113ace04293f2a58cb9a8600bac3acbf00000000fffffffd0126010000000000001600147a665de7a370f4c9b372ab1fae587500a5bcbdb4034020f3f1419ec0c86371b5bc7f31bf4164bd8e3f87702fd110074d9de069631ebe02ba3f5939776df7c35febfe7a5da0bae011bdaaafeb1d5800aaa1403ed9aaec6d20b54a1dd41dcd1f42ebb889ef76d5647e81eeee863c764dfe24b4b5ed65b65bd2ac0063036f726401010a746578742f706c61696e00357b2270223a226272632d3230222c226f70223a226d696e74222c227469636b223a22646f6765222c22616d74223a2234323030227d6821c1b54a1dd41dcd1f42ebb889ef76d5647e81eeee863c764dfe24b4b5ed65b65bd200000000"
}