{
  "txid": "10e5640392798bc6067e23dde163b66165b9e22663886bb43e295fa2886e60b6",
  "version": 2,
  "locktime": 0,
  "vin": [
    {
      "txid": "3da58ba9e381d208aa8964c1e25e09e1207463dcff70062382314661f4ee8dd6",
      "vout": 1,
      "prevout": {
        "scriptpubkey": "00149a5d53d3ba39e71d40dec439a92ad66792cec371",
        "scriptpubkey_asm": "OP_0 OP_PUSHBYTES_20 9a5d53d3ba39e71d40dec439a92ad66792cec371",
        "scriptpubkey_type": "v0_p2wpkh",
        "scriptpubkey_address": "bc1qnfw485a688n36sx7csu6j2kkv7fvasm34m5h53",
        "value": 156700692
      },
      "scriptsig": "",
      "scriptsig_asm": "",
      "witness": [
        "3044022059d4e179cf93f969026c476c113cb6c0c7ae6dce9758ade39ee6a903f9f831f402206c62a678b291add4291cbf1000befa0b125f0129d905dfc85331c8f8ce2eb5c001",
        "036d7c8ef615ba9153c8cfdc45660efa6f5221ce6c4c0ce2df378b46bdb8a2d192"
      ],
      "is_coinbase": false,
      "sequence": 4294967295
    }
  ],
  "vout": [
    {
      "scriptpubkey": "001461fe04ceaa6dc2ab3c42561cae7945fbf99a4ddf",
      "scriptpubkey_asm": "OP_0 OP_PUSHBYTES_20 61fe04ceaa6dc2ab3c42561cae7945fbf99a4ddf",
      "scriptpubkey_type": "v0_p2wpkh",
      "scriptpubkey_address": "bc1qv8lqfn42dhp2k0zz2cw2u729l0ue5nwlaltl3j",
      "value": 745567
    },
    {
      "scriptpubkey": "0014ecfb32752ffb77937f6b038c199c4cb40e0f07db",
      "scriptpubkey_asm": "OP_0 OP_PUSHBYTES_20 ecfb32752ffb77937f6b038c199c4cb40e0f07db",
      "scriptpubkey_type": "v0_p2wpkh",
      "scriptpubkey_address": "bc1qananyaf0ldmexlmtqwxpn8zvks8q7p7m4dzzsv",
      "value": 155953028
    }
  ],
  "size": 222,
  "weight": 561,
  "fee": 2097,
  "status": {
    "confirmed": true,
    "block_height": 834638,
    "block_hash": "000000000000000000025f742c626208ac87e0b7d15054abb4a19ca2d735a54e",
    "block_time": 1710405325
  },
  "hex": "02000000000101d68deef461463182230670ffdc637420e1095ee2c16489aa08d281e3a98ba53d0100000000ffffffff025f600b000000000016001461fe04ceaa6dc2ab3c42561cae7945fbf99a4ddf84a74b0900000000160014ecfb32752ffb77937f6b038c199c4cb40e0f07db02473044022059d4e179cf93f969026c476c113cb6c0c7ae6dce9758ade39ee6a903f9f831f402206c62a678b291add4291cbf1000befa0b125f0129d905dfc85331c8f8ce2eb5c00121036d7c8ef615ba9153c8cfdc45660efa6f5221ce6c4c0ce2df378b46bdb8a2d19200000000"
}