{
  "txid": "10e659b863562fe7d5dd6a42a219a8ef9aa2bb673f6649309ebed9aedcf6d638",
  "version": 2,
  "locktime": 0,
  "vin": [
    {
      "txid": "8486ecb4df0880316dd6e82b3971b4df187aff23765bc3a47f8d78bb53aa273c",
      "vout": 127,
      "prevout": {
        "scriptpubkey": "5120be0be44f59973c241818c7959d7cb964bf072cf1c89bdb0d5a322c9abe9cf0da",
        "scriptpubkey_asm": "OP_PUSHNUM_1 OP_PUSHBYTES_32 be0be44f59973c241818c7959d7cb964bf072cf1c89bdb0d5a322c9abe9cf0da",
        "scriptpubkey_type": "v1_p2tr",
        "scriptpubkey_address": "bc1phc97gn6eju7zgxqcc72e6l9evjlswt83ezdakr26xgkf405u7rdq4t4gq6",
        "value": 2575
      },
      "scriptsig": "",
      "scriptsig_asm": "",
      "witness": [
        "e5d89134448ce3344fbf5d13ec84fca21e52aac37d11d7b3cf118ee592af788dea05c3384b6042aeb3e88008174ffe3a0f4ed6ed2f262f99b09123728f51668b",
        "20a1c26ace4a85032210e991e7ed9e2151f62567e12ab2145146d458adec4babb3ac0063036f726401010a746578742f706c61696e00367b2270223a226272632d3230222c226f70223a226d696e74222c227469636b223a2261616161222c22616d74223a223130303030227d68",
        "c0a1c26ace4a85032210e991e7ed9e2151f62567e12ab2145146d458adec4babb3"
      ],
      "is_coinbase": false,
      "sequence": 4261412863
    }
  ],
  "vout": [
    {
      "scriptpubkey": "0014ddd7ef12ea6f78edcc1e8e7afa12c01ab59f3339",
      "scriptpubkey_asm": "OP_0 OP_PUSHBYTES_20 ddd7ef12ea6f78edcc1e8e7afa12c01ab59f3339",
      "scriptpubkey_type": "v0_p2wpkh",
      "scriptpubkey_address": "bc1qmht77yh2dauwmnq73ea05ykqr26e7veea8spz6",
      "value": 546
    }
  ],
  "size": 295,
  "weight": 541,
  "fee": 2029,
  "status": {
    "confirmed": true,
    "block_height": 834460,
    "block_hash": "00000000000000000000484a79b643b2524bbce82e5d8a442013fa5b8905ed98",
    "block_time": 1710307468
  },
  "hex": "020000000001013c27aa53bb788d7fa4c35b7623ff7a18dfb471392be8d66d318008dfb4ec86847f00000000fffffffd012202000000000000160014ddd7ef12ea6f78edcc1e8e7afa12c01ab59f33390340e5d89134448ce3344fbf5d13ec84fca21e52aac37d11d7b3cf118ee592af788dea05c3384b6042aeb3e88008174ffe3a0f4ed6ed2f262f99b09123728f51668b6e20a1c26ace4a85032210e991e7ed9e2151f62567e12ab2145146d458adec4babb3ac0063036f726401010a746578742f706c61696e00367b2270223a226272632d3230222c226f70223a226d696e74222c227469636b223a2261616161222c22616d74223a223130303030227d6821c0a1c26ace4a85032210e991e7ed9e2151f62567e12ab2145146d458adec4babb300000000"
}