{
  "txid": "10ee123e73945db93c5a1bd8388859a1873cef8763c7e315d9924055472ffe97",
  "version": 2,
  "locktime": 0,
  "vin": [
    {
      "txid": "4515cb55bc9537410a200d0a342bdfdec24f8091cba890acb532c6a05a254546",
      "vout": 1,
      "prevout": {
        "scriptpubkey": "0014074382000e04ac6ae9168880580bc70cb9b455e2",
        "scriptpubkey_asm": "OP_0 OP_PUSHBYTES_20 074382000e04ac6ae9168880580bc70cb9b455e2",
        "scriptpubkey_type": "v0_p2wpkh",
        "scriptpubkey_address": "bc1qqapcyqqwqjkx46gk3zq9sz78pjumg40zaqxp0t",
        "value": 16956
      },
      "scriptsig": "",
      "scriptsig_asm": "",
      "witness": [
        "3044022015bac056ff7059fe8b8f735a1821fabb99933cf64647eecceeebf09c89a49d6002204ee82c51eea12a1329b46e28deb33fca659e0aadaadcfbe0bce6be6ffab2cdbb01",
        "027ba6d0caf28573ec2858f0e508f8d9402bcb2938015e25cea61ca001991bbfd5"
      ],
      "is_coinbase": false,
      "sequence": 4294967295
    }
  ],
  "vout": [
    {
      "scriptpubkey": "6a2a58984ba25ed6a48b0e5b46edff8ac07f0fcc24369915e5311cc06016a222234036a6fb4caf98b4b5934c",
      "scriptpubkey_asm": "OP_RETURN OP_PUSHBYTES_42 58984ba25ed6a48b0e5b46edff8ac07f0fcc24369915e5311cc06016a222234036a6fb4caf98b4b5934c",
      "scriptpubkey_type": "op_return",
      "value": 0
    },
    {
      "scriptpubkey": "0014074382000e04ac6ae9168880580bc70cb9b455e2",
      "scriptpubkey_asm": "OP_0 OP_PUSHBYTES_20 074382000e04ac6ae9168880580bc70cb9b455e2",
      "scriptpubkey_type": "v0_p2wpkh",
      "scriptpubkey_address": "bc1qqapcyqqwqjkx46gk3zq9sz78pjumg40zaqxp0t",
      "value": 15151
    }
  ],
  "size": 244,
  "weight": 649,
  "fee": 1805,
  "status": {
    "confirmed": true,
    "block_height": 834464,
    "block_hash": "0000000000000000000177a0869a911a2b65c9bdcd5a8bcb02b68f305bee848e",
    "block_time": 1710308296
  },
  "hex": "020000000001014645255aa0c632b5ac90a8cb91804fc2dedf2b340a0d200a413795bc55cb15450100000000ffffffff0200000000000000002c6a2a58984ba25ed6a48b0e5b46edff8ac07f0fcc24369915e5311cc06016a222234036a6fb4caf98b4b5934c2f3b000000000000160014074382000e04ac6ae9168880580bc70cb9b455e202473044022015bac056ff7059fe8b8f735a1821fabb99933cf64647eecceeebf09c89a49d6002204ee82c51eea12a1329b46e28deb33fca659e0aadaadcfbe0bce6be6ffab2cdbb0121027ba6d0caf28573ec2858f0e508f8d9402bcb2938015e25cea61ca001991bbfd500000000"
}