{
  "txid": "10fcf1711e8f39ad18774fbd5e87b71a2daf93b9b05b74cf2e98461752623fd8",
  "version": 2,
  "locktime": 0,
  "vin": [
    {
      "txid": "803fb91de9d10a85bb6f18ae6463caa40b1789021dd4f91188173cbcf7c381b6",
      "vout": 0,
      "prevout": {
        "scriptpubkey": "5120284180161991782ae9d10ca0400284bdfe10decb4ccbeea6add2dcadfba30cf3",
        "scriptpubkey_asm": "OP_PUSHNUM_1 OP_PUSHBYTES_32 284180161991782ae9d10ca0400284bdfe10decb4ccbeea6add2dcadfba30cf3",
        "scriptpubkey_type": "v1_p2tr",
        "scriptpubkey_address": "bc1p9pqcq9sej9uz46w3pjsyqq5yhhlpphktfn97af4d6tw2m7arpnesdx47zj",
        "value": 18742
      },
      "scriptsig": "",
      "scriptsig_asm": "",
      "witness": [
        "8708601a9b332542f297acdf5d3cba2810557c38c66185c9fc1ca28adc40dd06f6575816b4267f436b82e9d2c0f4ccf84f0cb843be2b740ca6af8c318f7aa762",
        "20f2d00e1cce0b839d2e197679cac7a15152ec244338032c7767f72c1332d49a65ac0063036f7264010109696d6167652f706e67004d080289504e470d0a1a0a0000000d4948445200000118000001180803000000b05019be000000017352474200aece1ce90000000467414d410000b18f0bfc6105000000fc504c5445ff7b00ee9543ccccccf5933affa653f4b880ddddddffc996fffffffa7f0cfac798db9760c9a48ecbb2a7ccbbbbd39d74bcaeb0bdadadc0b0acbfb1af9d91a97f74c88e69a2ac5353bb5a44fc77004f49dd0000ff2f17cfed72124e47dd2e16d1fe800bf3ab72f4ba929d9be3acacff38388b020155121265010158311847ed7201fe8210f1c8b2eed9d9e6e0dd53535303020211110fd2d2d1e1e1e125231f321904e4dddd121212242223dfd2d2f8ededf7ecec776c6c807676e4d6d3954f10813e02834003dac7c7f1dcdcf0cebffd861af99b49f8a259c8a795eed8d7c6b5b5d0b9b3f4a15bf99a47c2a9a0f5841ee39048e49047d1bfbfd1bfc07e317463000000097048597300000ec300000ec301c76fa8640000039549444154785eeddd5953d3601480e162402cb45014175444ac8a0ab8af5501375c7041fdffffc59b33ce3893375fa68626a5ef739b3393efbc574927336d95b4b9b55d8bb74bd5eab463a1aa1806180618061806180618061806180618061806180618061806180618061806180618061806180618061806180618061806180618061806180618061806180618061806180618061806180618061806180618061806180618061806184d08020618061c9330bdcac3b4f63f0e6dfde0f7af617d898d523a873fcb38cc629d46f8f13d4e7f747a8b71afb162186018601860186018601830c161dad9b7025f0f168656f201afa9613ebcdffe5c201eef8751f295a0c1618e886180618061806180618061806180618061806180618061806180618061806180618061806180618061806180618061806180618061806140c9304b9fe2d3d994fd38f188d41f6621e653b636e3c8a36118601860186018601860186018601860186018601860186018601860186018601860186018601860186018601860186018601860189008f3ae500ce56b7c9895ddbd37686f7767f0120d765ebf2ab01c63b9062f62f194dac2dc7972bfc0f347a70a3c7c1063b9eec554bea7b178ca7886791663b90c030c030c030c030c030c030c038e7598c7c561fee301ef6e2c9e525f98dbb76eb28dfef502fd8d18cb7523a6f2f563f194eeb572d6afc6425559bd7ca9161763f184fa3e995f5d8b938ed895d83cc130c030c030c030c030c030c030c030c030c030c030c030c030c030c030a0c630fe50956fe5c2f972ce9dadd4726c9e505f98d216cf9cae522c9e320e617a71d691320c300c300c300c300c300c300c300c300c300c300c300c300c300c300c300c300c188330f39d72baf1f7c409dd184f998fdb3757bba4b9f8c239612ec693e2f6e36f36364f988df1c96118601860186018601860186018604cf8186018601860186018601860186018601860186018601860186018601860186018601860186018601860186018601860186018601860186018601860186018601860186018601860186018601860186018904d8799933966e2e27416e313283b9163827bfc35152dfe31151727996180618061806180618061806180618061806180618061806180618061806180618061806180618061806180618061806180618061806180618061806180618061806180618061806180618061806180618061806180618061806180618061806180618061806180618061806180614023c3b45a7f00895526d02fe7bf8d0000000049454e44ae426082680063036f726401011e6170706c69636174696f6e2f6a736f6e3b636861727365743d7574662d38004d68017b2270223a22766f7264222c2276223a312c227479223a22696e7363222c22636f6c223a2261643262353365623665333264663466633139386133626262306662663638666637336432666432323832323163313136373630306533316337613163343836222c22696964223a22557073696465646f776e204e6f64654d6f6e6b6573222c227075626c223a2231455337623370636a527a4667796969714c7278484b546e43686535364c4a485937222c226e6f6e6365223a3933332c226d696e746572223a2262633170797035376b6e333777787a6b306335783337366a686a63306c70326e7334787832346b34323039677734797a7174677276613073713863716133222c22736967223a22485036784f3972736d73482b2b59477957494233773833696f565176505a496a696855664473484d347233414f6a6646485670367962724878473033396552396535646b38776730335168706a6377395a746d63584d513d227d68",
        "c0f2d00e1cce0b839d2e197679cac7a15152ec244338032c7767f72c1332d49a65675a92934efa5e4869b2432a3e00abfc6819367af43949c2edc693b32d23ac05"
      ],
      "is_coinbase": false,
      "sequence": 4294967293
    }
  ],
  "vout": [
    {
      "scriptpubkey": "51202069eb4e3e718567e2868fb52bcb0ff8553854c6556d553ca87548202d03675f",
      "scriptpubkey_asm": "OP_PUSHNUM_1 OP_PUSHBYTES_32 2069eb4e3e718567e2868fb52bcb0ff8553854c6556d553ca87548202d03675f",
      "scriptpubkey_type": "v1_p2tr",
      "scriptpubkey_address": "bc1pyp57kn37wxzk0c5x376jhjc0lp2ns4xx24k4209gw4yzqtgrva0sq8cqa3",
      "value": 1000
    },
    {
      "scriptpubkey": "5120f62171bf126320eed697da59179bb0a31c00c0460a1a69c591c3c0d0f8f5038f",
      "scriptpubkey_asm": "OP_PUSHNUM_1 OP_PUSHBYTES_32 f62171bf126320eed697da59179bb0a31c00c0460a1a69c591c3c0d0f8f5038f",
      "scriptpubkey_type": "v1_p2tr",
      "scriptpubkey_address": "bc1p7cshr0cjvvswa45hmfv30xas5vwqpszxpgdxn3v3c0qdp784qw8szjtge2",
      "value": 7632
    },
    {
      "scriptpubkey": "51200705a5767db892e98125775049b1a13dd9ecdc8aea0df413cabbee683e871012",
      "scriptpubkey_asm": "OP_PUSHNUM_1 OP_PUSHBYTES_32 0705a5767db892e98125775049b1a13dd9ecdc8aea0df413cabbee683e871012",
      "scriptpubkey_type": "v1_p2tr",
      "scriptpubkey_address": "bc1pquz62anahzfwnqf9wagynvdp8hv7ehy2agxlgy72h0hxs058zqfqk8ksyq",
      "value": 2927
    }
  ],
  "size": 2071,
  "weight": 2611,
  "fee": 7183,
  "status": {
    "confirmed": true,
    "block_height": 834464,
    "block_hash": "0000000000000000000177a0869a911a2b65c9bdcd5a8bcb02b68f305bee848e",
    "block_time": 1710308296
  },
  "hex": "02000000000101b681c3f7bc3c178811f9d41d0289170ba4ca6364ae186fbb850ad1e91db93f800000000000fdffffff03e8030000000000002251202069eb4e3e718567e2868fb52bcb0ff8553854c6556d553ca87548202d03675fd01d000000000000225120f62171bf126320eed697da59179bb0a31c00c0460a1a69c591c3c0d0f8f5038f6f0b0000000000002251200705a5767db892e98125775049b1a13dd9ecdc8aea0df413cabbee683e87101203408708601a9b332542f297acdf5d3cba2810557c38c66185c9fc1ca28adc40dd06f6575816b4267f436b82e9d2c0f4ccf84f0cb843be2b740ca6af8c318f7aa762fdda0620f2d00e1cce0b839d2e197679cac7a15152ec244338032c7767f72c1332d49a65ac0063036f7264010109696d6167652f706e67004d080289504e470d0a1a0a0000000d4948445200000118000001180803000000b05019be000000017352474200aece1ce90000000467414d410000b18f0bfc6105000000fc504c5445ff7b00ee9543ccccccf5933affa653f4b880ddddddffc996fffffffa7f0cfac798db9760c9a48ecbb2a7ccbbbbd39d74bcaeb0bdadadc0b0acbfb1af9d91a97f74c88e69a2ac5353bb5a44fc77004f49dd0000ff2f17cfed72124e47dd2e16d1fe800bf3ab72f4ba929d9be3acacff38388b020155121265010158311847ed7201fe8210f1c8b2eed9d9e6e0dd53535303020211110fd2d2d1e1e1e125231f321904e4dddd121212242223dfd2d2f8ededf7ecec776c6c807676e4d6d3954f10813e02834003dac7c7f1dcdcf0cebffd861af99b49f8a259c8a795eed8d7c6b5b5d0b9b3f4a15bf99a47c2a9a0f5841ee39048e49047d1bfbfd1bfc07e317463000000097048597300000ec300000ec301c76fa8640000039549444154785eeddd5953d3601480e162402cb45014175444ac8a0ab8af5501375c7041fdffffc59b33ce3893375fa68626a5ef739b3393efbc574927336d95b4b9b55d8bb74bd5eab463a1aa1806180618061806180618061806180618061806180618061806180618061806180618061806180618061806180618061806180618061806180618061806180618061806180618061806180618061806180618061806180618061806184d08020618061c9330bdcac3b4f63f0e6dfde0f7af617d898d523a873fcb38cc629d46f8f13d4e7f747a8b71afb162186018601860186018601830c161dad9b7025f0f168656f201afa9613ebcdffe5c201eef8751f295a0c1618e886180618061806180618061806180618061806180618061806180618061806180618061806180618061806180618061806180618061806140c9304b9fe2d3d994fd38f188d41f6621e653b636e3c8a36118601860186018601860186018601860186018601860186018601860186018601860186018601860186018601860186018601860189008f3ae500ce56b7c9895ddbd37686f7767f0120d765ebf2ab01c63b9062f62f194dac2dc7972bfc0f347a70a3c7c1063b9eec554bea7b178ca7886791663b90c030c030c030c030c030c030c038e7598c7c561fee301ef6e2c9e525f98dbb76eb28dfef502fd8d18cb7523a6f2f563f194eeb572d6afc6425559bd7ca9161763f184fa3e995f5d8b938ed895d83cc130c030c030c030c030c030c030c030c030c030c030c030c030c030c030a0c630fe50956fe5c2f972ce9dadd4726c9e505f98d216cf9cae522c9e320e617a71d691320c300c300c300c300c300c300c300c300c300c300c300c300c300c300c300c300c188330f39d72baf1f7c409dd184f998fdb3757bba4b9f8c239612ec693e2f6e36f36364f988df1c96118601860186018601860186018604cf8186018601860186018601860186018601860186018601860186018601860186018601860186018601860186018601860186018601860186018601860186018601860186018601860186018601860186018904d8799933966e2e27416e313283b9163827bfc35152dfe31151727996180618061806180618061806180618061806180618061806180618061806180618061806180618061806180618061806180618061806180618061806180618061806180618061806180618061806180618061806180618061806180618061806180618061806180618061806180614023c3b45a7f00895526d02fe7bf8d0000000049454e44ae426082680063036f726401011e6170706c69636174696f6e2f6a736f6e3b636861727365743d7574662d38004d68017b2270223a22766f7264222c2276223a312c227479223a22696e7363222c22636f6c223a2261643262353365623665333264663466633139386133626262306662663638666637336432666432323832323163313136373630306533316337613163343836222c22696964223a22557073696465646f776e204e6f64654d6f6e6b6573222c227075626c223a2231455337623370636a527a4667796969714c7278484b546e43686535364c4a485937222c226e6f6e6365223a3933332c226d696e746572223a2262633170797035376b6e333777787a6b306335783337366a686a63306c70326e7334787832346b34323039677734797a7174677276613073713863716133222c22736967223a22485036784f3972736d73482b2b59477957494233773833696f565176505a496a696855664473484d347233414f6a6646485670367962724878473033396552396535646b38776730335168706a6377395a746d63584d513d227d6841c0f2d00e1cce0b839d2e197679cac7a15152ec244338032c7767f72c1332d49a65675a92934efa5e4869b2432a3e00abfc6819367af43949c2edc693b32d23ac0500000000"
}