{
  "txid": "1106850d35ef8b6cddf6d95759462eb0ac8442d2b3cf104eebb1956773978005",
  "version": 1,
  "locktime": 0,
  "vin": [
    {
      "txid": "b153faddfc5cefaa232af6fd9f2e17b86c93fb5ecd57e2bb5b4c3b962decca32",
      "vout": 1,
      "prevout": {
        "scriptpubkey": "001413711828da7f055e1bbbc6dc76f11e9bd2ca07f6",
        "scriptpubkey_asm": "OP_0 OP_PUSHBYTES_20 13711828da7f055e1bbbc6dc76f11e9bd2ca07f6",
        "scriptpubkey_type": "v0_p2wpkh",
        "scriptpubkey_address": "bc1qzdc3s2x60uz4uxamcmw8dug7n0fv5plklaakxn",
        "value": 43247034
      },
      "scriptsig": "",
      "scriptsig_asm": "",
      "witness": [
        "3044022077be5861555ffa62684d95a2a1b4cbcf730a6001d50e076048243673ce287687022002aedacf28633c43de9549bd02611a8350738375f2443fd18358ebdd596a41f201",
        "02588efb0c31d3650775488b8e4f934fada3716a708fa4e92a2ee82e9b4450568a"
      ],
      "is_coinbase": false,
      "sequence": 4294967295
    }
  ],
  "vout": [
    {
      "scriptpubkey": "0014cfce89261cc8e8f491099c19d488af562a9318eb",
      "scriptpubkey_asm": "OP_0 OP_PUSHBYTES_20 cfce89261cc8e8f491099c19d488af562a9318eb",
      "scriptpubkey_type": "v0_p2wpkh",
      "scriptpubkey_address": "bc1qel8gjfsuer50fygfnsvafz902c4fxx8tsus202",
      "value": 680000
    },
    {
      "scriptpubkey": "0014369b89c98e4800483068968d85b3373809509c9d",
      "scriptpubkey_asm": "OP_0 OP_PUSHBYTES_20 369b89c98e4800483068968d85b3373809509c9d",
      "scriptpubkey_type": "v0_p2wpkh",
      "scriptpubkey_address": "bc1qx6dcnjvwfqqysvrgj6xctveh8qy4p8yaq8vcgt",
      "value": 42564937
    }
  ],
  "size": 222,
  "weight": 561,
  "fee": 2097,
  "status": {
    "confirmed": true,
    "block_height": 834638,
    "block_hash": "000000000000000000025f742c626208ac87e0b7d15054abb4a19ca2d735a54e",
    "block_time": 1710405325
  },
  "hex": "0100000000010132caec2d963b4c5bbbe257cd5efb936cb8172e9ffdf62a23aaef5cfcddfa53b10100000000ffffffff0240600a0000000000160014cfce89261cc8e8f491099c19d488af562a9318eb497d890200000000160014369b89c98e4800483068968d85b3373809509c9d02473044022077be5861555ffa62684d95a2a1b4cbcf730a6001d50e076048243673ce287687022002aedacf28633c43de9549bd02611a8350738375f2443fd18358ebdd596a41f2012102588efb0c31d3650775488b8e4f934fada3716a708fa4e92a2ee82e9b4450568a00000000"
}