{
  "txid": "110671802652146bf22e441f041496b2a73501baadb4e3f422aa12d0d9cd03f7",
  "version": 2,
  "locktime": 0,
  "vin": [
    {
      "txid": "0ad82719c5568c4acd81b83e609db57306639901211bd5a5b68a6fc3de4e1473",
      "vout": 4,
      "prevout": {
        "scriptpubkey": "51203871ff8d7f0aa9dd06a5a6b991e7cd1794e1ac9e9f535be45b585bda6cc9736c",
        "scriptpubkey_asm": "OP_PUSHNUM_1 OP_PUSHBYTES_32 3871ff8d7f0aa9dd06a5a6b991e7cd1794e1ac9e9f535be45b585bda6cc9736c",
        "scriptpubkey_type": "v1_p2tr",
        "scriptpubkey_address": "bc1p8pcllrtlp25a6p4956uere7dz72wrty7naf4hezmtpda5mxfwdkqz95dtz",
        "value": 2834
      },
      "scriptsig": "",
      "scriptsig_asm": "",
      "witness": [
        "aac59f34a51b3b183ee86bd6efa74a5522458f74f14fada1e60124013f44c0d66aa28b17c4711a8565b4ac51d0fb906a0567f5425287e6a953e53ce2df216083",
        "20aee00fe48590dc383cd9c94e008d503f2011d7ac9d73f88b3b00ae68b4432af0ac0063036f726401011e6170706c69636174696f6e2f6a736f6e3b636861727365743d7574662d38004cbf7b2270223a22706f772d3230222c226f70223a226d696e74222c227469636b223a2250455045222c22616d74223a2231303030222c22736f6c7574696f6e223a22504550453a6263317173637064736c337671777466366a733538786832307637717775716839336e777737783763793a303030303030303030303030303030303030303139393431613561653132383937363539383134343239323533333030353762306461393666336465613163353a3636333030353937353933227d68",
        "c0962df30d9be27fcd73fd9a4053b3728334e273f9929aba028483b2e810075667"
      ],
      "is_coinbase": false,
      "sequence": 4294967295
    }
  ],
  "vout": [
    {
      "scriptpubkey": "00148602d87e2c03969d4a1439aea7b3c0770172c66e",
      "scriptpubkey_asm": "OP_0 OP_PUSHBYTES_20 8602d87e2c03969d4a1439aea7b3c0770172c66e",
      "scriptpubkey_type": "v0_p2wpkh",
      "scriptpubkey_address": "bc1qscpdsl3vqwtf6js58xh20v7qwuqh93nww7x7cy",
      "value": 546
    }
  ],
  "size": 455,
  "weight": 701,
  "fee": 2288,
  "status": {
    "confirmed": true,
    "block_height": 834460,
    "block_hash": "00000000000000000000484a79b643b2524bbce82e5d8a442013fa5b8905ed98",
    "block_time": 1710307468
  },
  "hex": "0200000000010173144edec36f8ab6a5d51b210199630673b59d603eb881cd4a8c56c51927d80a0400000000ffffffff0122020000000000001600148602d87e2c03969d4a1439aea7b3c0770172c66e0340aac59f34a51b3b183ee86bd6efa74a5522458f74f14fada1e60124013f44c0d66aa28b17c4711a8565b4ac51d0fb906a0567f5425287e6a953e53ce2df216083fd0c0120aee00fe48590dc383cd9c94e008d503f2011d7ac9d73f88b3b00ae68b4432af0ac0063036f726401011e6170706c69636174696f6e2f6a736f6e3b636861727365743d7574662d38004cbf7b2270223a22706f772d3230222c226f70223a226d696e74222c227469636b223a2250455045222c22616d74223a2231303030222c22736f6c7574696f6e223a22504550453a6263317173637064736c337671777466366a733538786832307637717775716839336e777737783763793a303030303030303030303030303030303030303139393431613561653132383937363539383134343239323533333030353762306461393666336465613163353a3636333030353937353933227d6821c0962df30d9be27fcd73fd9a4053b3728334e273f9929aba028483b2e81007566700000000"
}