{
  "txid": "1109f4316b190b4c1171e917bc9a39671e481e9a88fedd5b4cf11aae5eb328b9",
  "version": 2,
  "locktime": 0,
  "vin": [
    {
      "txid": "acc3ba00869acb582a3f2904ce3a11dd3779350ce234063fc7d0959246213364",
      "vout": 200,
      "prevout": {
        "scriptpubkey": "512084554e76686de32cd4cf6678cb57bef59aec89cbb7a2b428930c099227786cf5",
        "scriptpubkey_asm": "OP_PUSHNUM_1 OP_PUSHBYTES_32 84554e76686de32cd4cf6678cb57bef59aec89cbb7a2b428930c099227786cf5",
        "scriptpubkey_type": "v1_p2tr",
        "scriptpubkey_address": "bc1ps325uangdh3je4x0veuvk4a77kdwezwtk73tg2ynpsyeyfmcdn6sdc7fgc",
        "value": 1806
      },
      "scriptsig": "",
      "scriptsig_asm": "",
      "witness": [
        "242cc47221b6d3855662c8afaa934697200e4dcc3a25ca566f64287d2648fd4f06ed692f8587c786ef93c5badacf2ec7d0ef8aace40e098cd56910517090bb5b",
        "2096679789f61a4068d7058a0296c3ddf3b296e3c464d2ad80a0ef804838d8d7beac0063036f726401010a746578742f706c61696e00357b2270223a226272632d3230222c226f70223a226d696e74222c227469636b223a22646f6765222c22616d74223a2234323030227d68",
        "c096679789f61a4068d7058a0296c3ddf3b296e3c464d2ad80a0ef804838d8d7be"
      ],
      "is_coinbase": false,
      "sequence": 4261412863
    }
  ],
  "vout": [
    {
      "scriptpubkey": "00147a665de7a370f4c9b372ab1fae587500a5bcbdb4",
      "scriptpubkey_asm": "OP_0 OP_PUSHBYTES_20 7a665de7a370f4c9b372ab1fae587500a5bcbdb4",
      "scriptpubkey_type": "v0_p2wpkh",
      "scriptpubkey_address": "bc1q0fn9mearwr6vnvmj4v06ukr4qzjme0d565dzcx",
      "value": 294
    }
  ],
  "size": 294,
  "weight": 540,
  "fee": 1512,
  "status": {
    "confirmed": true,
    "block_height": 834460,
    "block_hash": "00000000000000000000484a79b643b2524bbce82e5d8a442013fa5b8905ed98",
    "block_time": 1710307468
  },
  "hex": "02000000000101643321469295d0c73f0634e20c357937dd113ace04293f2a58cb9a8600bac3acc800000000fffffffd0126010000000000001600147a665de7a370f4c9b372ab1fae587500a5bcbdb40340242cc47221b6d3855662c8afaa934697200e4dcc3a25ca566f64287d2648fd4f06ed692f8587c786ef93c5badacf2ec7d0ef8aace40e098cd56910517090bb5b6d2096679789f61a4068d7058a0296c3ddf3b296e3c464d2ad80a0ef804838d8d7beac0063036f726401010a746578742f706c61696e00357b2270223a226272632d3230222c226f70223a226d696e74222c227469636b223a22646f6765222c22616d74223a2234323030227d6821c096679789f61a4068d7058a0296c3ddf3b296e3c464d2ad80a0ef804838d8d7be00000000"
}