{
  "txid": "1112bbde51a5828ea530c58411a6954b6a2b8bb1c5cf2dfba39c8e93626f69ff",
  "version": 2,
  "locktime": 834087,
  "vin": [
    {
      "txid": "1b8921838d455bfd44b7dec3445d986e76f08e8933719ead5432a364adb139e7",
      "vout": 0,
      "prevout": {
        "scriptpubkey": "001468773beb71eb5d86579a70bd9394a9e371ba0cd2",
        "scriptpubkey_asm": "OP_0 OP_PUSHBYTES_20 68773beb71eb5d86579a70bd9394a9e371ba0cd2",
        "scriptpubkey_type": "v0_p2wpkh",
        "scriptpubkey_address": "bc1qdpmnh6m3adwcv4u6wz7e899fudcm5rxj309gnz",
        "value": 11100
      },
      "scriptsig": "",
      "scriptsig_asm": "",
      "witness": [
        "30440220795f3fcfb37dc72b93ed644b2948300ac8f6bcdd3498602c0c15a4087d1ae8080220755a5fcf7cf7a796f99bc1211622872a49c4612e6ea4d724095e8cb3fd9f3bf601",
        "0377fa7a40b1fb812f0163c39368475fdb30c8e0ef1b3b42bb14a2a85de47938c8"
      ],
      "is_coinbase": false,
      "sequence": 4294967293
    }
  ],
  "vout": [
    {
      "scriptpubkey": "001426b63bc2713c34669795be93af3505700fa0ea6d",
      "scriptpubkey_asm": "OP_0 OP_PUSHBYTES_20 26b63bc2713c34669795be93af3505700fa0ea6d",
      "scriptpubkey_type": "v0_p2wpkh",
      "scriptpubkey_address": "bc1qy6mrhsn38s6xd9u4h6f67dg9wq86p6ndc6q0pa",
      "value": 9890
    }
  ],
  "size": 191,
  "weight": 437,
  "fee": 1210,
  "status": {
    "confirmed": true,
    "block_height": 834464,
    "block_hash": "0000000000000000000177a0869a911a2b65c9bdcd5a8bcb02b68f305bee848e",
    "block_time": 1710308296
  },
  "hex": "02000000000101e739b1ad64a33254ad9e7133898ef0766e985d44c3deb744fd5b458d8321891b0000000000fdffffff01a22600000000000016001426b63bc2713c34669795be93af3505700fa0ea6d024730440220795f3fcfb37dc72b93ed644b2948300ac8f6bcdd3498602c0c15a4087d1ae8080220755a5fcf7cf7a796f99bc1211622872a49c4612e6ea4d724095e8cb3fd9f3bf601210377fa7a40b1fb812f0163c39368475fdb30c8e0ef1b3b42bb14a2a85de47938c827ba0c00"
}