{
  "txid": "1116a2e5158c78ee11258838ab43699801b60ba97b51588e526d4e905658873d",
  "version": 2,
  "locktime": 0,
  "vin": [
    {
      "txid": "b92ed2de07829d708b0b2761cf6604a1cb30e403409f6e9dabeb3b09b74f1c42",
      "vout": 1,
      "prevout": {
        "scriptpubkey": "a91476ed074bd093e07efe0cff187ecc87fca1057c8b87",
        "scriptpubkey_asm": "OP_HASH160 OP_PUSHBYTES_20 76ed074bd093e07efe0cff187ecc87fca1057c8b OP_EQUAL",
        "scriptpubkey_type": "p2sh",
        "scriptpubkey_address": "3CXqcD4Gn6nk9e9rGyEH1aAhJGzcj6Ur3B",
        "value": 297838
      },
      "scriptsig": "160014332ee0a0dc546fc319a59e7fa37813a65feda70f",
      "scriptsig_asm": "OP_PUSHBYTES_22 0014332ee0a0dc546fc319a59e7fa37813a65feda70f",
      "witness": [
        "304402201979860321b2da8d3b4624ef5af0c324deeb24db26c9b4d5519205dc9273ea9f02203f14d774572b9853d67372a855656c2f560646cd0d7b0a3cd8205df4a104820301",
        "0366dd3c1eb9e6bc34f1f7c66b5841acf7b9d1e21c90009bee7125c18ec9996336"
      ],
      "is_coinbase": false,
      "sequence": 4294967293,
      "inner_redeemscript_asm": "OP_0 OP_PUSHBYTES_20 332ee0a0dc546fc319a59e7fa37813a65feda70f"
    }
  ],
  "vout": [
    {
      "scriptpubkey": "a9140da29d00ab692c3ef2ccfea19f687159d8cf27d687",
      "scriptpubkey_asm": "OP_HASH160 OP_PUSHBYTES_20 0da29d00ab692c3ef2ccfea19f687159d8cf27d6 OP_EQUAL",
      "scriptpubkey_type": "p2sh",
      "scriptpubkey_address": "32w7WcAbb99YDKdZDUM2UAmkCZsZhMonxE",
      "value": 247839
    },
    {
      "scriptpubkey": "a91476ed074bd093e07efe0cff187ecc87fca1057c8b87",
      "scriptpubkey_asm": "OP_HASH160 OP_PUSHBYTES_20 76ed074bd093e07efe0cff187ecc87fca1057c8b OP_EQUAL",
      "scriptpubkey_type": "p2sh",
      "scriptpubkey_address": "3CXqcD4Gn6nk9e9rGyEH1aAhJGzcj6Ur3B",
      "value": 47509
    }
  ],
  "size": 247,
  "weight": 661,
  "fee": 2490,
  "status": {
    "confirmed": true,
    "block_height": 834638,
    "block_hash": "000000000000000000025f742c626208ac87e0b7d15054abb4a19ca2d735a54e",
    "block_time": 1710405325
  },
  "hex": "02000000000101421c4fb7093bebab9d6e9f4003e430cba10466cf61270b8b709d8207ded22eb90100000017160014332ee0a0dc546fc319a59e7fa37813a65feda70ffdffffff021fc803000000000017a9140da29d00ab692c3ef2ccfea19f687159d8cf27d68795b900000000000017a91476ed074bd093e07efe0cff187ecc87fca1057c8b870247304402201979860321b2da8d3b4624ef5af0c324deeb24db26c9b4d5519205dc9273ea9f02203f14d774572b9853d67372a855656c2f560646cd0d7b0a3cd8205df4a104820301210366dd3c1eb9e6bc34f1f7c66b5841acf7b9d1e21c90009bee7125c18ec999633600000000"
}