{
  "txid": "1123036bcf240cdcfb398a9dfdf4b17e4b0af4d02cfa89c728d2095aa4407026",
  "version": 2,
  "locktime": 834636,
  "vin": [
    {
      "txid": "efb80e57bd69705585f7a7ded1344137b6cdadd1fbaf04d51f38bdae0fc7ad21",
      "vout": 0,
      "prevout": {
        "scriptpubkey": "0014eb471b80ae6a39570504624049075c940ed2ffeb",
        "scriptpubkey_asm": "OP_0 OP_PUSHBYTES_20 eb471b80ae6a39570504624049075c940ed2ffeb",
        "scriptpubkey_type": "v0_p2wpkh",
        "scriptpubkey_address": "bc1qadr3hq9wdgu4wpgyvfqyjp6ujs8d9llt3n27nt",
        "value": 238700
      },
      "scriptsig": "",
      "scriptsig_asm": "",
      "witness": [
        "3044022005ce98f0b3a13b0a15ca11c8e8b3cb19fa0e03d15386e1d8cfec4b1afdbecc5c022068dd57e8287e96794b82945e99c663f2d4484cd048661bbaaeb734e8c01e055f01",
        "0398c00f35640b026294b08a48054c9967a0ed79ec862af6f0e50e74af4ef8664a"
      ],
      "is_coinbase": false,
      "sequence": 4294967293
    }
  ],
  "vout": [
    {
      "scriptpubkey": "00146d689b16f4f33178e4241e907037c367fb1d15d8",
      "scriptpubkey_asm": "OP_0 OP_PUSHBYTES_20 6d689b16f4f33178e4241e907037c367fb1d15d8",
      "scriptpubkey_type": "v0_p2wpkh",
      "scriptpubkey_address": "bc1qd45fk9h57vch3epyr6g8qd7rvla369wc99ppsr",
      "value": 47707
    },
    {
      "scriptpubkey": "0014e88c315774d82dc0a417103c7200d68753686c53",
      "scriptpubkey_asm": "OP_0 OP_PUSHBYTES_20 e88c315774d82dc0a417103c7200d68753686c53",
      "scriptpubkey_type": "v0_p2wpkh",
      "scriptpubkey_address": "bc1qazxrz4m5mqkupfqhzq78yqxksafksmznj4d2un",
      "value": 187792
    }
  ],
  "size": 222,
  "weight": 561,
  "fee": 3201,
  "status": {
    "confirmed": true,
    "block_height": 834638,
    "block_hash": "000000000000000000025f742c626208ac87e0b7d15054abb4a19ca2d735a54e",
    "block_time": 1710405325
  },
  "hex": "0200000000010121adc70faebd381fd504affbd1adcdb6374134d1dea7f785557069bd570eb8ef0000000000fdffffff025bba0000000000001600146d689b16f4f33178e4241e907037c367fb1d15d890dd020000000000160014e88c315774d82dc0a417103c7200d68753686c5302473044022005ce98f0b3a13b0a15ca11c8e8b3cb19fa0e03d15386e1d8cfec4b1afdbecc5c022068dd57e8287e96794b82945e99c663f2d4484cd048661bbaaeb734e8c01e055f01210398c00f35640b026294b08a48054c9967a0ed79ec862af6f0e50e74af4ef8664a4cbc0c00"
}