{
  "txid": "11276d9cff6e97e4dc70ed5e45f8361ebb240d5f208a8aad9d807da3094a0d65",
  "version": 1,
  "locktime": 0,
  "vin": [
    {
      "txid": "4467740f24706d20f19070b2405424b82259379aed26061a1caec6c6b68912d4",
      "vout": 167,
      "prevout": {
        "scriptpubkey": "76a914f9885fc4c939fb1aa932b25a8733b97ee62a274a88ac",
        "scriptpubkey_asm": "OP_DUP OP_HASH160 OP_PUSHBYTES_20 f9885fc4c939fb1aa932b25a8733b97ee62a274a OP_EQUALVERIFY OP_CHECKSIG",
        "scriptpubkey_type": "p2pkh",
        "scriptpubkey_address": "1PkQdCqdpHHnuvSxXAUppRHQ83xDgHMH2d",
        "value": 803715
      },
      "scriptsig": "483045022100d6932fad34dd54521026159159cd017fe66c83efed9d69fbdb701f7bdb51dbc1022073d56a636a50640c5e940bfa1e4a3610b4c533bf62fa9d75485c2e2510f13f2b012102033b05d820db38669ef2c0a20e28dc8df9af56d31b4ed8cf72a129e7206b1028",
      "scriptsig_asm": "OP_PUSHBYTES_72 3045022100d6932fad34dd54521026159159cd017fe66c83efed9d69fbdb701f7bdb51dbc1022073d56a636a50640c5e940bfa1e4a3610b4c533bf62fa9d75485c2e2510f13f2b01 OP_PUSHBYTES_33 02033b05d820db38669ef2c0a20e28dc8df9af56d31b4ed8cf72a129e7206b1028",
      "is_coinbase": false,
      "sequence": 4294967295
    }
  ],
  "vout": [
    {
      "scriptpubkey": "00141a58be0662e3aacee86daee42518a42dbfddbd4b",
      "scriptpubkey_asm": "OP_0 OP_PUSHBYTES_20 1a58be0662e3aacee86daee42518a42dbfddbd4b",
      "scriptpubkey_type": "v0_p2wpkh",
      "scriptpubkey_address": "bc1qrfvtupnzuw4va6rd4mjz2x9y9klam02tx9xm8v",
      "value": 546854
    },
    {
      "scriptpubkey": "76a9140532ea092aefc000814ffd1a043668f25bc29e8588ac",
      "scriptpubkey_asm": "OP_DUP OP_HASH160 OP_PUSHBYTES_20 0532ea092aefc000814ffd1a043668f25bc29e85 OP_EQUALVERIFY OP_CHECKSIG",
      "scriptpubkey_type": "p2pkh",
      "scriptpubkey_address": "1UVNYKQ7buepe6Q3gBT3WJWrBYf6BSFnq",
      "value": 249502
    }
  ],
  "size": 223,
  "weight": 892,
  "fee": 7359,
  "status": {
    "confirmed": true,
    "block_height": 834552,
    "block_hash": "00000000000000000001dd0468a70c94f619251d286585cff57aeb4bd9ede330",
    "block_time": 1710355598
  },
  "hex": "0100000001d41289b6c6c6ae1c1a0626ed9a375922b8245440b27090f1206d70240f746744a70000006b483045022100d6932fad34dd54521026159159cd017fe66c83efed9d69fbdb701f7bdb51dbc1022073d56a636a50640c5e940bfa1e4a3610b4c533bf62fa9d75485c2e2510f13f2b012102033b05d820db38669ef2c0a20e28dc8df9af56d31b4ed8cf72a129e7206b1028ffffffff0226580800000000001600141a58be0662e3aacee86daee42518a42dbfddbd4b9ece0300000000001976a9140532ea092aefc000814ffd1a043668f25bc29e8588ac00000000"
}