{
  "txid": "113204fe9135bc3d3008a8b3ba444f3530546f299774129e0d1799fef670fb35",
  "version": 2,
  "locktime": 834462,
  "vin": [
    {
      "txid": "320980a4fb03d00461db41400724d1d25150b80912231e7df9f749fcd67d35ca",
      "vout": 1,
      "prevout": {
        "scriptpubkey": "5120348eef3b9493640d6032ad9ee575080b7b17f38320f726ed6317d4eef21ba7ea",
        "scriptpubkey_asm": "OP_PUSHNUM_1 OP_PUSHBYTES_32 348eef3b9493640d6032ad9ee575080b7b17f38320f726ed6317d4eef21ba7ea",
        "scriptpubkey_type": "v1_p2tr",
        "scriptpubkey_address": "bc1pxj8w7wu5jdjq6cpj4k0w2aggpda30uuryrmjdmtrzl2wausm5l4qdc9t62",
        "value": 44721584
      },
      "scriptsig": "",
      "scriptsig_asm": "",
      "witness": [
        "0fd4a98bdc789dac08ba125ed3817ac5e6e017a1dc27aedc54d83320623847b337ade714546bc6e313bb16fa9c110d087dcebec0d2414eab21ddd8a09a1ca3e8"
      ],
      "is_coinbase": false,
      "sequence": 4294967293
    }
  ],
  "vout": [
    {
      "scriptpubkey": "00206a29ab18e485106cbcfee412ad4942b6f2b5fced244c44e02489351c445c55b7",
      "scriptpubkey_asm": "OP_0 OP_PUSHBYTES_32 6a29ab18e485106cbcfee412ad4942b6f2b5fced244c44e02489351c445c55b7",
      "scriptpubkey_type": "v0_p2wsh",
      "scriptpubkey_address": "bc1qdg56kx8ys5gxe087usf26j2zkmettl8dy3xyfcpy3y63c3zu2kmsj7c6hh",
      "value": 103798
    },
    {
      "scriptpubkey": "51208bde27950b42f73d526adee52a21500ee0a84ce76690ce966e3d771ae15738e0",
      "scriptpubkey_asm": "OP_PUSHNUM_1 OP_PUSHBYTES_32 8bde27950b42f73d526adee52a21500ee0a84ce76690ce966e3d771ae15738e0",
      "scriptpubkey_type": "v1_p2tr",
      "scriptpubkey_address": "bc1p300z09gtgtmn65n2mmjj5g2spms2sn88v6gva9nw84m34c2h8rsqq0a6zm",
      "value": 44615815
    }
  ],
  "size": 205,
  "weight": 616,
  "fee": 1971,
  "status": {
    "confirmed": true,
    "block_height": 834464,
    "block_hash": "0000000000000000000177a0869a911a2b65c9bdcd5a8bcb02b68f305bee848e",
    "block_time": 1710308296
  },
  "hex": "02000000000101ca357dd6fc49f7f97d1e231209b85051d2d124074041db6104d003fba48009320100000000fdffffff0276950100000000002200206a29ab18e485106cbcfee412ad4942b6f2b5fced244c44e02489351c445c55b787c8a802000000002251208bde27950b42f73d526adee52a21500ee0a84ce76690ce966e3d771ae15738e001400fd4a98bdc789dac08ba125ed3817ac5e6e017a1dc27aedc54d83320623847b337ade714546bc6e313bb16fa9c110d087dcebec0d2414eab21ddd8a09a1ca3e89ebb0c00"
}