{
  "txid": "113727a3553b7d60187bd9d47bbbb099269ee88415c69fa08add2d2029340d84",
  "version": 1,
  "locktime": 0,
  "vin": [
    {
      "txid": "4d1fd6e8f8537006c8e379a233c565d5960b3150888c3a2617a1d3abc2a7ea65",
      "vout": 0,
      "prevout": {
        "scriptpubkey": "00142867a44744e1d6cba280701afc23a355384a5f04",
        "scriptpubkey_asm": "OP_0 OP_PUSHBYTES_20 2867a44744e1d6cba280701afc23a355384a5f04",
        "scriptpubkey_type": "v0_p2wpkh",
        "scriptpubkey_address": "bc1q9pn6g36yu8tvhg5qwqd0cgar25uy5hcy0swndc",
        "value": 726470
      },
      "scriptsig": "",
      "scriptsig_asm": "",
      "witness": [
        "30440220388b475127b069b69524281c54a0f20362a7212b7fe581bfddb772f8a78de2ec02200cc4459cdb498b569550f36b0022c1ff6961fe53ff99b83dacf7424fc0dd18f001",
        "0334e33dcde003bed7a9736eab4bbcd0061f6e2ac79bc936a96b7974c8bbbb2038"
      ],
      "is_coinbase": false,
      "sequence": 4294967293
    }
  ],
  "vout": [
    {
      "scriptpubkey": "00142867a44744e1d6cba280701afc23a355384a5f04",
      "scriptpubkey_asm": "OP_0 OP_PUSHBYTES_20 2867a44744e1d6cba280701afc23a355384a5f04",
      "scriptpubkey_type": "v0_p2wpkh",
      "scriptpubkey_address": "bc1q9pn6g36yu8tvhg5qwqd0cgar25uy5hcy0swndc",
      "value": 13131
    },
    {
      "scriptpubkey": "00142867a44744e1d6cba280701afc23a355384a5f04",
      "scriptpubkey_asm": "OP_0 OP_PUSHBYTES_20 2867a44744e1d6cba280701afc23a355384a5f04",
      "scriptpubkey_type": "v0_p2wpkh",
      "scriptpubkey_address": "bc1q9pn6g36yu8tvhg5qwqd0cgar25uy5hcy0swndc",
      "value": 13131
    },
    {
      "scriptpubkey": "00142867a44744e1d6cba280701afc23a355384a5f04",
      "scriptpubkey_asm": "OP_0 OP_PUSHBYTES_20 2867a44744e1d6cba280701afc23a355384a5f04",
      "scriptpubkey_type": "v0_p2wpkh",
      "scriptpubkey_address": "bc1q9pn6g36yu8tvhg5qwqd0cgar25uy5hcy0swndc",
      "value": 13131
    },
    {
      "scriptpubkey": "00142867a44744e1d6cba280701afc23a355384a5f04",
      "scriptpubkey_asm": "OP_0 OP_PUSHBYTES_20 2867a44744e1d6cba280701afc23a355384a5f04",
      "scriptpubkey_type": "v0_p2wpkh",
      "scriptpubkey_address": "bc1q9pn6g36yu8tvhg5qwqd0cgar25uy5hcy0swndc",
      "value": 13131
    },
    {
      "scriptpubkey": "00142867a44744e1d6cba280701afc23a355384a5f04",
      "scriptpubkey_asm": "OP_0 OP_PUSHBYTES_20 2867a44744e1d6cba280701afc23a355384a5f04",
      "scriptpubkey_type": "v0_p2wpkh",
      "scriptpubkey_address": "bc1q9pn6g36yu8tvhg5qwqd0cgar25uy5hcy0swndc",
      "value": 13131
    },
    {
      "scriptpubkey": "00142867a44744e1d6cba280701afc23a355384a5f04",
      "scriptpubkey_asm": "OP_0 OP_PUSHBYTES_20 2867a44744e1d6cba280701afc23a355384a5f04",
      "scriptpubkey_type": "v0_p2wpkh",
      "scriptpubkey_address": "bc1q9pn6g36yu8tvhg5qwqd0cgar25uy5hcy0swndc",
      "value": 13131
    },
    {
      "scriptpubkey": "00142867a44744e1d6cba280701afc23a355384a5f04",
      "scriptpubkey_asm": "OP_0 OP_PUSHBYTES_20 2867a44744e1d6cba280701afc23a355384a5f04",
      "scriptpubkey_type": "v0_p2wpkh",
      "scriptpubkey_address": "bc1q9pn6g36yu8tvhg5qwqd0cgar25uy5hcy0swndc",
      "value": 13131
    },
    {
      "scriptpubkey": "00142867a44744e1d6cba280701afc23a355384a5f04",
      "scriptpubkey_asm": "OP_0 OP_PUSHBYTES_20 2867a44744e1d6cba280701afc23a355384a5f04",
      "scriptpubkey_type": "v0_p2wpkh",
      "scriptpubkey_address": "bc1q9pn6g36yu8tvhg5qwqd0cgar25uy5hcy0swndc",
      "value": 13131
    },
    {
      "scriptpubkey": "00142867a44744e1d6cba280701afc23a355384a5f04",
      "scriptpubkey_asm": "OP_0 OP_PUSHBYTES_20 2867a44744e1d6cba280701afc23a355384a5f04",
      "scriptpubkey_type": "v0_p2wpkh",
      "scriptpubkey_address": "bc1q9pn6g36yu8tvhg5qwqd0cgar25uy5hcy0swndc",
      "value": 13131
    },
    {
      "scriptpubkey": "00142867a44744e1d6cba280701afc23a355384a5f04",
      "scriptpubkey_asm": "OP_0 OP_PUSHBYTES_20 2867a44744e1d6cba280701afc23a355384a5f04",
      "scriptpubkey_type": "v0_p2wpkh",
      "scriptpubkey_address": "bc1q9pn6g36yu8tvhg5qwqd0cgar25uy5hcy0swndc",
      "value": 13131
    },
    {
      "scriptpubkey": "00142867a44744e1d6cba280701afc23a355384a5f04",
      "scriptpubkey_asm": "OP_0 OP_PUSHBYTES_20 2867a44744e1d6cba280701afc23a355384a5f04",
      "scriptpubkey_type": "v0_p2wpkh",
      "scriptpubkey_address": "bc1q9pn6g36yu8tvhg5qwqd0cgar25uy5hcy0swndc",
      "value": 13131
    },
    {
      "scriptpubkey": "00142867a44744e1d6cba280701afc23a355384a5f04",
      "scriptpubkey_asm": "OP_0 OP_PUSHBYTES_20 2867a44744e1d6cba280701afc23a355384a5f04",
      "scriptpubkey_type": "v0_p2wpkh",
      "scriptpubkey_address": "bc1q9pn6g36yu8tvhg5qwqd0cgar25uy5hcy0swndc",
      "value": 13131
    },
    {
      "scriptpubkey": "00142867a44744e1d6cba280701afc23a355384a5f04",
      "scriptpubkey_asm": "OP_0 OP_PUSHBYTES_20 2867a44744e1d6cba280701afc23a355384a5f04",
      "scriptpubkey_type": "v0_p2wpkh",
      "scriptpubkey_address": "bc1q9pn6g36yu8tvhg5qwqd0cgar25uy5hcy0swndc",
      "value": 13131
    },
    {
      "scriptpubkey": "00142867a44744e1d6cba280701afc23a355384a5f04",
      "scriptpubkey_asm": "OP_0 OP_PUSHBYTES_20 2867a44744e1d6cba280701afc23a355384a5f04",
      "scriptpubkey_type": "v0_p2wpkh",
      "scriptpubkey_address": "bc1q9pn6g36yu8tvhg5qwqd0cgar25uy5hcy0swndc",
      "value": 13131
    },
    {
      "scriptpubkey": "00142867a44744e1d6cba280701afc23a355384a5f04",
      "scriptpubkey_asm": "OP_0 OP_PUSHBYTES_20 2867a44744e1d6cba280701afc23a355384a5f04",
      "scriptpubkey_type": "v0_p2wpkh",
      "scriptpubkey_address": "bc1q9pn6g36yu8tvhg5qwqd0cgar25uy5hcy0swndc",
      "value": 13131
    },
    {
      "scriptpubkey": "00142867a44744e1d6cba280701afc23a355384a5f04",
      "scriptpubkey_asm": "OP_0 OP_PUSHBYTES_20 2867a44744e1d6cba280701afc23a355384a5f04",
      "scriptpubkey_type": "v0_p2wpkh",
      "scriptpubkey_address": "bc1q9pn6g36yu8tvhg5qwqd0cgar25uy5hcy0swndc",
      "value": 13131
    },
    {
      "scriptpubkey": "00142867a44744e1d6cba280701afc23a355384a5f04",
      "scriptpubkey_asm": "OP_0 OP_PUSHBYTES_20 2867a44744e1d6cba280701afc23a355384a5f04",
      "scriptpubkey_type": "v0_p2wpkh",
      "scriptpubkey_address": "bc1q9pn6g36yu8tvhg5qwqd0cgar25uy5hcy0swndc",
      "value": 13131
    },
    {
      "scriptpubkey": "00142867a44744e1d6cba280701afc23a355384a5f04",
      "scriptpubkey_asm": "OP_0 OP_PUSHBYTES_20 2867a44744e1d6cba280701afc23a355384a5f04",
      "scriptpubkey_type": "v0_p2wpkh",
      "scriptpubkey_address": "bc1q9pn6g36yu8tvhg5qwqd0cgar25uy5hcy0swndc",
      "value": 13131
    },
    {
      "scriptpubkey": "00142867a44744e1d6cba280701afc23a355384a5f04",
      "scriptpubkey_asm": "OP_0 OP_PUSHBYTES_20 2867a44744e1d6cba280701afc23a355384a5f04",
      "scriptpubkey_type": "v0_p2wpkh",
      "scriptpubkey_address": "bc1q9pn6g36yu8tvhg5qwqd0cgar25uy5hcy0swndc",
      "value": 13131
    },
    {
      "scriptpubkey": "00142867a44744e1d6cba280701afc23a355384a5f04",
      "scriptpubkey_asm": "OP_0 OP_PUSHBYTES_20 2867a44744e1d6cba280701afc23a355384a5f04",
      "scriptpubkey_type": "v0_p2wpkh",
      "scriptpubkey_address": "bc1q9pn6g36yu8tvhg5qwqd0cgar25uy5hcy0swndc",
      "value": 13131
    },
    {
      "scriptpubkey": "00142867a44744e1d6cba280701afc23a355384a5f04",
      "scriptpubkey_asm": "OP_0 OP_PUSHBYTES_20 2867a44744e1d6cba280701afc23a355384a5f04",
      "scriptpubkey_type": "v0_p2wpkh",
      "scriptpubkey_address": "bc1q9pn6g36yu8tvhg5qwqd0cgar25uy5hcy0swndc",
      "value": 13131
    },
    {
      "scriptpubkey": "00142867a44744e1d6cba280701afc23a355384a5f04",
      "scriptpubkey_asm": "OP_0 OP_PUSHBYTES_20 2867a44744e1d6cba280701afc23a355384a5f04",
      "scriptpubkey_type": "v0_p2wpkh",
      "scriptpubkey_address": "bc1q9pn6g36yu8tvhg5qwqd0cgar25uy5hcy0swndc",
      "value": 13131
    },
    {
      "scriptpubkey": "00142867a44744e1d6cba280701afc23a355384a5f04",
      "scriptpubkey_asm": "OP_0 OP_PUSHBYTES_20 2867a44744e1d6cba280701afc23a355384a5f04",
      "scriptpubkey_type": "v0_p2wpkh",
      "scriptpubkey_address": "bc1q9pn6g36yu8tvhg5qwqd0cgar25uy5hcy0swndc",
      "value": 13131
    },
    {
      "scriptpubkey": "00142867a44744e1d6cba280701afc23a355384a5f04",
      "scriptpubkey_asm": "OP_0 OP_PUSHBYTES_20 2867a44744e1d6cba280701afc23a355384a5f04",
      "scriptpubkey_type": "v0_p2wpkh",
      "scriptpubkey_address": "bc1q9pn6g36yu8tvhg5qwqd0cgar25uy5hcy0swndc",
      "value": 13131
    },
    {
      "scriptpubkey": "00142867a44744e1d6cba280701afc23a355384a5f04",
      "scriptpubkey_asm": "OP_0 OP_PUSHBYTES_20 2867a44744e1d6cba280701afc23a355384a5f04",
      "scriptpubkey_type": "v0_p2wpkh",
      "scriptpubkey_address": "bc1q9pn6g36yu8tvhg5qwqd0cgar25uy5hcy0swndc",
      "value": 13131
    },
    {
      "scriptpubkey": "00142867a44744e1d6cba280701afc23a355384a5f04",
      "scriptpubkey_asm": "OP_0 OP_PUSHBYTES_20 2867a44744e1d6cba280701afc23a355384a5f04",
      "scriptpubkey_type": "v0_p2wpkh",
      "scriptpubkey_address": "bc1q9pn6g36yu8tvhg5qwqd0cgar25uy5hcy0swndc",
      "value": 13131
    },
    {
      "scriptpubkey": "00142867a44744e1d6cba280701afc23a355384a5f04",
      "scriptpubkey_asm": "OP_0 OP_PUSHBYTES_20 2867a44744e1d6cba280701afc23a355384a5f04",
      "scriptpubkey_type": "v0_p2wpkh",
      "scriptpubkey_address": "bc1q9pn6g36yu8tvhg5qwqd0cgar25uy5hcy0swndc",
      "value": 13131
    },
    {
      "scriptpubkey": "00142867a44744e1d6cba280701afc23a355384a5f04",
      "scriptpubkey_asm": "OP_0 OP_PUSHBYTES_20 2867a44744e1d6cba280701afc23a355384a5f04",
      "scriptpubkey_type": "v0_p2wpkh",
      "scriptpubkey_address": "bc1q9pn6g36yu8tvhg5qwqd0cgar25uy5hcy0swndc",
      "value": 13131
    },
    {
      "scriptpubkey": "00142867a44744e1d6cba280701afc23a355384a5f04",
      "scriptpubkey_asm": "OP_0 OP_PUSHBYTES_20 2867a44744e1d6cba280701afc23a355384a5f04",
      "scriptpubkey_type": "v0_p2wpkh",
      "scriptpubkey_address": "bc1q9pn6g36yu8tvhg5qwqd0cgar25uy5hcy0swndc",
      "value": 13131
    },
    {
      "scriptpubkey": "00142867a44744e1d6cba280701afc23a355384a5f04",
      "scriptpubkey_asm": "OP_0 OP_PUSHBYTES_20 2867a44744e1d6cba280701afc23a355384a5f04",
      "scriptpubkey_type": "v0_p2wpkh",
      "scriptpubkey_address": "bc1q9pn6g36yu8tvhg5qwqd0cgar25uy5hcy0swndc",
      "value": 13131
    },
    {
      "scriptpubkey": "00142867a44744e1d6cba280701afc23a355384a5f04",
      "scriptpubkey_asm": "OP_0 OP_PUSHBYTES_20 2867a44744e1d6cba280701afc23a355384a5f04",
      "scriptpubkey_type": "v0_p2wpkh",
      "scriptpubkey_address": "bc1q9pn6g36yu8tvhg5qwqd0cgar25uy5hcy0swndc",
      "value": 13131
    },
    {
      "scriptpubkey": "00142867a44744e1d6cba280701afc23a355384a5f04",
      "scriptpubkey_asm": "OP_0 OP_PUSHBYTES_20 2867a44744e1d6cba280701afc23a355384a5f04",
      "scriptpubkey_type": "v0_p2wpkh",
      "scriptpubkey_address": "bc1q9pn6g36yu8tvhg5qwqd0cgar25uy5hcy0swndc",
      "value": 13131
    },
    {
      "scriptpubkey": "00142867a44744e1d6cba280701afc23a355384a5f04",
      "scriptpubkey_asm": "OP_0 OP_PUSHBYTES_20 2867a44744e1d6cba280701afc23a355384a5f04",
      "scriptpubkey_type": "v0_p2wpkh",
      "scriptpubkey_address": "bc1q9pn6g36yu8tvhg5qwqd0cgar25uy5hcy0swndc",
      "value": 13131
    },
    {
      "scriptpubkey": "00142867a44744e1d6cba280701afc23a355384a5f04",
      "scriptpubkey_asm": "OP_0 OP_PUSHBYTES_20 2867a44744e1d6cba280701afc23a355384a5f04",
      "scriptpubkey_type": "v0_p2wpkh",
      "scriptpubkey_address": "bc1q9pn6g36yu8tvhg5qwqd0cgar25uy5hcy0swndc",
      "value": 13131
    },
    {
      "scriptpubkey": "00142867a44744e1d6cba280701afc23a355384a5f04",
      "scriptpubkey_asm": "OP_0 OP_PUSHBYTES_20 2867a44744e1d6cba280701afc23a355384a5f04",
      "scriptpubkey_type": "v0_p2wpkh",
      "scriptpubkey_address": "bc1q9pn6g36yu8tvhg5qwqd0cgar25uy5hcy0swndc",
      "value": 13131
    },
    {
      "scriptpubkey": "00142867a44744e1d6cba280701afc23a355384a5f04",
      "scriptpubkey_asm": "OP_0 OP_PUSHBYTES_20 2867a44744e1d6cba280701afc23a355384a5f04",
      "scriptpubkey_type": "v0_p2wpkh",
      "scriptpubkey_address": "bc1q9pn6g36yu8tvhg5qwqd0cgar25uy5hcy0swndc",
      "value": 13131
    },
    {
      "scriptpubkey": "00142867a44744e1d6cba280701afc23a355384a5f04",
      "scriptpubkey_asm": "OP_0 OP_PUSHBYTES_20 2867a44744e1d6cba280701afc23a355384a5f04",
      "scriptpubkey_type": "v0_p2wpkh",
      "scriptpubkey_address": "bc1q9pn6g36yu8tvhg5qwqd0cgar25uy5hcy0swndc",
      "value": 13131
    },
    {
      "scriptpubkey": "00142867a44744e1d6cba280701afc23a355384a5f04",
      "scriptpubkey_asm": "OP_0 OP_PUSHBYTES_20 2867a44744e1d6cba280701afc23a355384a5f04",
      "scriptpubkey_type": "v0_p2wpkh",
      "scriptpubkey_address": "bc1q9pn6g36yu8tvhg5qwqd0cgar25uy5hcy0swndc",
      "value": 13131
    },
    {
      "scriptpubkey": "00142867a44744e1d6cba280701afc23a355384a5f04",
      "scriptpubkey_asm": "OP_0 OP_PUSHBYTES_20 2867a44744e1d6cba280701afc23a355384a5f04",
      "scriptpubkey_type": "v0_p2wpkh",
      "scriptpubkey_address": "bc1q9pn6g36yu8tvhg5qwqd0cgar25uy5hcy0swndc",
      "value": 13131
    },
    {
      "scriptpubkey": "00142867a44744e1d6cba280701afc23a355384a5f04",
      "scriptpubkey_asm": "OP_0 OP_PUSHBYTES_20 2867a44744e1d6cba280701afc23a355384a5f04",
      "scriptpubkey_type": "v0_p2wpkh",
      "scriptpubkey_address": "bc1q9pn6g36yu8tvhg5qwqd0cgar25uy5hcy0swndc",
      "value": 13131
    },
    {
      "scriptpubkey": "00142867a44744e1d6cba280701afc23a355384a5f04",
      "scriptpubkey_asm": "OP_0 OP_PUSHBYTES_20 2867a44744e1d6cba280701afc23a355384a5f04",
      "scriptpubkey_type": "v0_p2wpkh",
      "scriptpubkey_address": "bc1q9pn6g36yu8tvhg5qwqd0cgar25uy5hcy0swndc",
      "value": 13131
    },
    {
      "scriptpubkey": "00142867a44744e1d6cba280701afc23a355384a5f04",
      "scriptpubkey_asm": "OP_0 OP_PUSHBYTES_20 2867a44744e1d6cba280701afc23a355384a5f04",
      "scriptpubkey_type": "v0_p2wpkh",
      "scriptpubkey_address": "bc1q9pn6g36yu8tvhg5qwqd0cgar25uy5hcy0swndc",
      "value": 13131
    },
    {
      "scriptpubkey": "00142867a44744e1d6cba280701afc23a355384a5f04",
      "scriptpubkey_asm": "OP_0 OP_PUSHBYTES_20 2867a44744e1d6cba280701afc23a355384a5f04",
      "scriptpubkey_type": "v0_p2wpkh",
      "scriptpubkey_address": "bc1q9pn6g36yu8tvhg5qwqd0cgar25uy5hcy0swndc",
      "value": 13131
    },
    {
      "scriptpubkey": "00142867a44744e1d6cba280701afc23a355384a5f04",
      "scriptpubkey_asm": "OP_0 OP_PUSHBYTES_20 2867a44744e1d6cba280701afc23a355384a5f04",
      "scriptpubkey_type": "v0_p2wpkh",
      "scriptpubkey_address": "bc1q9pn6g36yu8tvhg5qwqd0cgar25uy5hcy0swndc",
      "value": 13131
    },
    {
      "scriptpubkey": "00142867a44744e1d6cba280701afc23a355384a5f04",
      "scriptpubkey_asm": "OP_0 OP_PUSHBYTES_20 2867a44744e1d6cba280701afc23a355384a5f04",
      "scriptpubkey_type": "v0_p2wpkh",
      "scriptpubkey_address": "bc1q9pn6g36yu8tvhg5qwqd0cgar25uy5hcy0swndc",
      "value": 13131
    },
    {
      "scriptpubkey": "00142867a44744e1d6cba280701afc23a355384a5f04",
      "scriptpubkey_asm": "OP_0 OP_PUSHBYTES_20 2867a44744e1d6cba280701afc23a355384a5f04",
      "scriptpubkey_type": "v0_p2wpkh",
      "scriptpubkey_address": "bc1q9pn6g36yu8tvhg5qwqd0cgar25uy5hcy0swndc",
      "value": 13131
    },
    {
      "scriptpubkey": "00142867a44744e1d6cba280701afc23a355384a5f04",
      "scriptpubkey_asm": "OP_0 OP_PUSHBYTES_20 2867a44744e1d6cba280701afc23a355384a5f04",
      "scriptpubkey_type": "v0_p2wpkh",
      "scriptpubkey_address": "bc1q9pn6g36yu8tvhg5qwqd0cgar25uy5hcy0swndc",
      "value": 13131
    },
    {
      "scriptpubkey": "00142867a44744e1d6cba280701afc23a355384a5f04",
      "scriptpubkey_asm": "OP_0 OP_PUSHBYTES_20 2867a44744e1d6cba280701afc23a355384a5f04",
      "scriptpubkey_type": "v0_p2wpkh",
      "scriptpubkey_address": "bc1q9pn6g36yu8tvhg5qwqd0cgar25uy5hcy0swndc",
      "value": 13131
    },
    {
      "scriptpubkey": "00142867a44744e1d6cba280701afc23a355384a5f04",
      "scriptpubkey_asm": "OP_0 OP_PUSHBYTES_20 2867a44744e1d6cba280701afc23a355384a5f04",
      "scriptpubkey_type": "v0_p2wpkh",
      "scriptpubkey_address": "bc1q9pn6g36yu8tvhg5qwqd0cgar25uy5hcy0swndc",
      "value": 13131
    },
    {
      "scriptpubkey": "00142867a44744e1d6cba280701afc23a355384a5f04",
      "scriptpubkey_asm": "OP_0 OP_PUSHBYTES_20 2867a44744e1d6cba280701afc23a355384a5f04",
      "scriptpubkey_type": "v0_p2wpkh",
      "scriptpubkey_address": "bc1q9pn6g36yu8tvhg5qwqd0cgar25uy5hcy0swndc",
      "value": 13131
    },
    {
      "scriptpubkey": "001418b3baded57f56d7ba5b7ce7a510c24795b67040",
      "scriptpubkey_asm": "OP_0 OP_PUSHBYTES_20 18b3baded57f56d7ba5b7ce7a510c24795b67040",
      "scriptpubkey_type": "v0_p2wpkh",
      "scriptpubkey_address": "bc1qrzem4hk40atd0wjm0nn62yxzg72mvuzqmx7c69",
      "value": 50000
    }
  ],
  "size": 1741,
  "weight": 6637,
  "fee": 19920,
  "status": {
    "confirmed": true,
    "block_height": 834460,
    "block_hash": "00000000000000000000484a79b643b2524bbce82e5d8a442013fa5b8905ed98",
    "block_time": 1710307468
  },
  "hex": "0100000000010165eaa7c2abd3a117263a8c8850310b96d565c533a279e3c8067053f8e8d61f4d0000000000fdffffff334b330000000000001600142867a44744e1d6cba280701afc23a355384a5f044b330000000000001600142867a44744e1d6cba280701afc23a355384a5f044b330000000000001600142867a44744e1d6cba280701afc23a355384a5f044b330000000000001600142867a44744e1d6cba280701afc23a355384a5f044b330000000000001600142867a44744e1d6cba280701afc23a355384a5f044b330000000000001600142867a44744e1d6cba280701afc23a355384a5f044b330000000000001600142867a44744e1d6cba280701afc23a355384a5f044b330000000000001600142867a44744e1d6cba280701afc23a355384a5f044b330000000000001600142867a44744e1d6cba280701afc23a355384a5f044b330000000000001600142867a44744e1d6cba280701afc23a355384a5f044b330000000000001600142867a44744e1d6cba280701afc23a355384a5f044b330000000000001600142867a44744e1d6cba280701afc23a355384a5f044b330000000000001600142867a44744e1d6cba280701afc23a355384a5f044b330000000000001600142867a44744e1d6cba280701afc23a355384a5f044b330000000000001600142867a44744e1d6cba280701afc23a355384a5f044b330000000000001600142867a44744e1d6cba280701afc23a355384a5f044b330000000000001600142867a44744e1d6cba280701afc23a355384a5f044b330000000000001600142867a44744e1d6cba280701afc23a355384a5f044b330000000000001600142867a44744e1d6cba280701afc23a355384a5f044b330000000000001600142867a44744e1d6cba280701afc23a355384a5f044b330000000000001600142867a44744e1d6cba280701afc23a355384a5f044b330000000000001600142867a44744e1d6cba280701afc23a355384a5f044b330000000000001600142867a44744e1d6cba280701afc23a355384a5f044b330000000000001600142867a44744e1d6cba280701afc23a355384a5f044b330000000000001600142867a44744e1d6cba280701afc23a355384a5f044b330000000000001600142867a44744e1d6cba280701afc23a355384a5f044b330000000000001600142867a44744e1d6cba280701afc23a355384a5f044b330000000000001600142867a44744e1d6cba280701afc23a355384a5f044b330000000000001600142867a44744e1d6cba280701afc23a355384a5f044b330000000000001600142867a44744e1d6cba280701afc23a355384a5f044b330000000000001600142867a44744e1d6cba280701afc23a355384a5f044b330000000000001600142867a44744e1d6cba280701afc23a355384a5f044b330000000000001600142867a44744e1d6cba280701afc23a355384a5f044b330000000000001600142867a44744e1d6cba280701afc23a355384a5f044b330000000000001600142867a44744e1d6cba280701afc23a355384a5f044b330000000000001600142867a44744e1d6cba280701afc23a355384a5f044b330000000000001600142867a44744e1d6cba280701afc23a355384a5f044b330000000000001600142867a44744e1d6cba280701afc23a355384a5f044b330000000000001600142867a44744e1d6cba280701afc23a355384a5f044b330000000000001600142867a44744e1d6cba280701afc23a355384a5f044b330000000000001600142867a44744e1d6cba280701afc23a355384a5f044b330000000000001600142867a44744e1d6cba280701afc23a355384a5f044b330000000000001600142867a44744e1d6cba280701afc23a355384a5f044b330000000000001600142867a44744e1d6cba280701afc23a355384a5f044b330000000000001600142867a44744e1d6cba280701afc23a355384a5f044b330000000000001600142867a44744e1d6cba280701afc23a355384a5f044b330000000000001600142867a44744e1d6cba280701afc23a355384a5f044b330000000000001600142867a44744e1d6cba280701afc23a355384a5f044b330000000000001600142867a44744e1d6cba280701afc23a355384a5f044b330000000000001600142867a44744e1d6cba280701afc23a355384a5f0450c300000000000016001418b3baded57f56d7ba5b7ce7a510c24795b67040024730440220388b475127b069b69524281c54a0f20362a7212b7fe581bfddb772f8a78de2ec02200cc4459cdb498b569550f36b0022c1ff6961fe53ff99b83dacf7424fc0dd18f001210334e33dcde003bed7a9736eab4bbcd0061f6e2ac79bc936a96b7974c8bbbb203800000000"
}