{
  "txid": "11447e20b4e7ca4c7d4ef7b49ed412582414b35f4d457df735f6ce053067a2cb",
  "version": 2,
  "locktime": 0,
  "vin": [
    {
      "txid": "6c7b5c3f14253daa9c1a781ef1ae833cf4ccb4b1eff412d0f77b843c3a852a4f",
      "vout": 35,
      "prevout": {
        "scriptpubkey": "51205853b5ac0f00772ce0c781bbe3fc41f5e2c7855f33e12000ca539d61b7580c9b",
        "scriptpubkey_asm": "OP_PUSHNUM_1 OP_PUSHBYTES_32 5853b5ac0f00772ce0c781bbe3fc41f5e2c7855f33e12000ca539d61b7580c9b",
        "scriptpubkey_type": "v1_p2tr",
        "scriptpubkey_address": "bc1ptpfmttq0qpmjecx8sxa78lzp7h3v0p2lx0sjqqx22wwkrd6cpjdsua8q3c",
        "value": 33000
      },
      "scriptsig": "",
      "scriptsig_asm": "",
      "witness": [
        "f542c832bbf698cf53915c93d017b233ca564aa1c553fefb0b672c66c4822ce50ea8589d382e9794b2773d892665d0957cd748f9df9cdd1007bfd92d3f4d62d5"
      ],
      "is_coinbase": false,
      "sequence": 4294967295
    }
  ],
  "vout": [
    {
      "scriptpubkey": "51205853b5ac0f00772ce0c781bbe3fc41f5e2c7855f33e12000ca539d61b7580c9b",
      "scriptpubkey_asm": "OP_PUSHNUM_1 OP_PUSHBYTES_32 5853b5ac0f00772ce0c781bbe3fc41f5e2c7855f33e12000ca539d61b7580c9b",
      "scriptpubkey_type": "v1_p2tr",
      "scriptpubkey_address": "bc1ptpfmttq0qpmjecx8sxa78lzp7h3v0p2lx0sjqqx22wwkrd6cpjdsua8q3c",
      "value": 330
    },
    {
      "scriptpubkey": "51205853b5ac0f00772ce0c781bbe3fc41f5e2c7855f33e12000ca539d61b7580c9b",
      "scriptpubkey_asm": "OP_PUSHNUM_1 OP_PUSHBYTES_32 5853b5ac0f00772ce0c781bbe3fc41f5e2c7855f33e12000ca539d61b7580c9b",
      "scriptpubkey_type": "v1_p2tr",
      "scriptpubkey_address": "bc1ptpfmttq0qpmjecx8sxa78lzp7h3v0p2lx0sjqqx22wwkrd6cpjdsua8q3c",
      "value": 28962
    }
  ],
  "size": 205,
  "weight": 616,
  "fee": 3708,
  "status": {
    "confirmed": true,
    "block_height": 834464,
    "block_hash": "0000000000000000000177a0869a911a2b65c9bdcd5a8bcb02b68f305bee848e",
    "block_time": 1710308296
  },
  "hex": "020000000001014f2a853a3c847bf7d012f4efb1b4ccf43c83aef11e781a9caa3d25143f5c7b6c2300000000ffffffff024a010000000000002251205853b5ac0f00772ce0c781bbe3fc41f5e2c7855f33e12000ca539d61b7580c9b22710000000000002251205853b5ac0f00772ce0c781bbe3fc41f5e2c7855f33e12000ca539d61b7580c9b0140f542c832bbf698cf53915c93d017b233ca564aa1c553fefb0b672c66c4822ce50ea8589d382e9794b2773d892665d0957cd748f9df9cdd1007bfd92d3f4d62d500000000"
}