{
  "txid": "114a73b8dd925cb4303f621e91466088a8f560a180e9132d6cb7ef3890a3846c",
  "version": 2,
  "locktime": 0,
  "vin": [
    {
      "txid": "38a5fe92eb8b62602ae2cb3ee723a1b1aff4d7c7a3fed28430b59db91cd40de0",
      "vout": 1,
      "prevout": {
        "scriptpubkey": "5120bb7a04beac484a0b1ce94648c225130e0aeef769c44561def6efe842faa004c1",
        "scriptpubkey_asm": "OP_PUSHNUM_1 OP_PUSHBYTES_32 bb7a04beac484a0b1ce94648c225130e0aeef769c44561def6efe842faa004c1",
        "scriptpubkey_type": "v1_p2tr",
        "scriptpubkey_address": "bc1phdaqf04vfp9qk88fgeyvyfgnpc9waamfc3zkrhhkal5y974qqnqsy6e0l2",
        "value": 546
      },
      "scriptsig": "",
      "scriptsig_asm": "",
      "witness": [
        "50e5b125662d00eb21780f2be0d5719b3fcc9686a711957915b573567759e9c4ef70d990ab9570282825b5150aa51d6dfdc9281accff913abe124991b36b08fd"
      ],
      "is_coinbase": false,
      "sequence": 4294967293
    },
    {
      "txid": "16e1c9ead8c9b80c0186e0f0e974636d5efaf6ae58e07fe126aaad1f90956b05",
      "vout": 1,
      "prevout": {
        "scriptpubkey": "5120bb7a04beac484a0b1ce94648c225130e0aeef769c44561def6efe842faa004c1",
        "scriptpubkey_asm": "OP_PUSHNUM_1 OP_PUSHBYTES_32 bb7a04beac484a0b1ce94648c225130e0aeef769c44561def6efe842faa004c1",
        "scriptpubkey_type": "v1_p2tr",
        "scriptpubkey_address": "bc1phdaqf04vfp9qk88fgeyvyfgnpc9waamfc3zkrhhkal5y974qqnqsy6e0l2",
        "value": 546
      },
      "scriptsig": "",
      "scriptsig_asm": "",
      "witness": [
        "086c42d9269c5228b7e8272d5d06c118fcc90a6a3bbfea47b292d5cb5a7f042c4bb57769b1035f25f86b5da19c1da7019e495e9f0ea70009987949ae4e5df7df"
      ],
      "is_coinbase": false,
      "sequence": 4294967293
    },
    {
      "txid": "824b60edccdf82abac7404bc47b4bfe95b67e9858c38f9268d1757fc36fdaaa2",
      "vout": 1,
      "prevout": {
        "scriptpubkey": "5120bb7a04beac484a0b1ce94648c225130e0aeef769c44561def6efe842faa004c1",
        "scriptpubkey_asm": "OP_PUSHNUM_1 OP_PUSHBYTES_32 bb7a04beac484a0b1ce94648c225130e0aeef769c44561def6efe842faa004c1",
        "scriptpubkey_type": "v1_p2tr",
        "scriptpubkey_address": "bc1phdaqf04vfp9qk88fgeyvyfgnpc9waamfc3zkrhhkal5y974qqnqsy6e0l2",
        "value": 546
      },
      "scriptsig": "",
      "scriptsig_asm": "",
      "witness": [
        "3d5a6b1bb0330ec77bea8596f89a3215f2bf851be9b9e56acf2bc1b1afbf8b562ebb8153744bd626d8b03174f07d33908469864f393b577b3bcd3ef7ab273869"
      ],
      "is_coinbase": false,
      "sequence": 4294967293
    },
    {
      "txid": "0901699154552d9cbdc192d2c528651125a82f427bad1bcdc5405c8a5dc5c351",
      "vout": 0,
      "prevout": {
        "scriptpubkey": "5120bb7a04beac484a0b1ce94648c225130e0aeef769c44561def6efe842faa004c1",
        "scriptpubkey_asm": "OP_PUSHNUM_1 OP_PUSHBYTES_32 bb7a04beac484a0b1ce94648c225130e0aeef769c44561def6efe842faa004c1",
        "scriptpubkey_type": "v1_p2tr",
        "scriptpubkey_address": "bc1phdaqf04vfp9qk88fgeyvyfgnpc9waamfc3zkrhhkal5y974qqnqsy6e0l2",
        "value": 84368
      },
      "scriptsig": "",
      "scriptsig_asm": "",
      "witness": [
        "6cd066a43c997bf169063531360df8c9d2bc815479efb614cdb37486f19fceff8f5d7a19090df9b9fe11ea0090b27d79e421723bc78e0f3388d16f38168e2b0c"
      ],
      "is_coinbase": false,
      "sequence": 4294967293
    }
  ],
  "vout": [
    {
      "scriptpubkey": "00140ad1c96ff6c8bd9d7ab5261629204be3e0b8f95b",
      "scriptpubkey_asm": "OP_0 OP_PUSHBYTES_20 0ad1c96ff6c8bd9d7ab5261629204be3e0b8f95b",
      "scriptpubkey_type": "v0_p2wpkh",
      "scriptpubkey_address": "bc1qptgujmlkez7e6744yctzjgztu0st372mxs6702",
      "value": 546
    },
    {
      "scriptpubkey": "00140ad1c96ff6c8bd9d7ab5261629204be3e0b8f95b",
      "scriptpubkey_asm": "OP_0 OP_PUSHBYTES_20 0ad1c96ff6c8bd9d7ab5261629204be3e0b8f95b",
      "scriptpubkey_type": "v0_p2wpkh",
      "scriptpubkey_address": "bc1qptgujmlkez7e6744yctzjgztu0st372mxs6702",
      "value": 546
    },
    {
      "scriptpubkey": "00140ad1c96ff6c8bd9d7ab5261629204be3e0b8f95b",
      "scriptpubkey_asm": "OP_0 OP_PUSHBYTES_20 0ad1c96ff6c8bd9d7ab5261629204be3e0b8f95b",
      "scriptpubkey_type": "v0_p2wpkh",
      "scriptpubkey_address": "bc1qptgujmlkez7e6744yctzjgztu0st372mxs6702",
      "value": 546
    },
    {
      "scriptpubkey": "0014fb7a185fc47428a9992c09f70c6add47a5c19223",
      "scriptpubkey_asm": "OP_0 OP_PUSHBYTES_20 fb7a185fc47428a9992c09f70c6add47a5c19223",
      "scriptpubkey_type": "v0_p2wpkh",
      "scriptpubkey_address": "bc1qldapsh7yws52nxfvp8msc6kag7jury3rxrw4dm",
      "value": 30000
    },
    {
      "scriptpubkey": "5120bb7a04beac484a0b1ce94648c225130e0aeef769c44561def6efe842faa004c1",
      "scriptpubkey_asm": "OP_PUSHNUM_1 OP_PUSHBYTES_32 bb7a04beac484a0b1ce94648c225130e0aeef769c44561def6efe842faa004c1",
      "scriptpubkey_type": "v1_p2tr",
      "scriptpubkey_address": "bc1phdaqf04vfp9qk88fgeyvyfgnpc9waamfc3zkrhhkal5y974qqnqsy6e0l2",
      "value": 43001
    }
  ],
  "size": 607,
  "weight": 1630,
  "fee": 11367,
  "status": {
    "confirmed": true,
    "block_height": 834638,
    "block_hash": "000000000000000000025f742c626208ac87e0b7d15054abb4a19ca2d735a54e",
    "block_time": 1710405325
  },
  "hex": "02000000000104e00dd41cb99db53084d2fea3c7d7f4afb1a123e73ecbe22a60628beb92fea5380100000000fdffffff056b95901fadaa26e17fe058aef6fa5e6d6374e9f0e086010cb8c9d8eac9e1160100000000fdffffffa2aafd36fc57178d26f9388c85e9675be9bfb447bc0474acab82dfcced604b820100000000fdffffff51c3c55d8a5c40c5cd1bad7b422fa825116528c5d292c1bd9c2d5554916901090000000000fdffffff0522020000000000001600140ad1c96ff6c8bd9d7ab5261629204be3e0b8f95b22020000000000001600140ad1c96ff6c8bd9d7ab5261629204be3e0b8f95b22020000000000001600140ad1c96ff6c8bd9d7ab5261629204be3e0b8f95b3075000000000000160014fb7a185fc47428a9992c09f70c6add47a5c19223f9a7000000000000225120bb7a04beac484a0b1ce94648c225130e0aeef769c44561def6efe842faa004c1014050e5b125662d00eb21780f2be0d5719b3fcc9686a711957915b573567759e9c4ef70d990ab9570282825b5150aa51d6dfdc9281accff913abe124991b36b08fd0140086c42d9269c5228b7e8272d5d06c118fcc90a6a3bbfea47b292d5cb5a7f042c4bb57769b1035f25f86b5da19c1da7019e495e9f0ea70009987949ae4e5df7df01403d5a6b1bb0330ec77bea8596f89a3215f2bf851be9b9e56acf2bc1b1afbf8b562ebb8153744bd626d8b03174f07d33908469864f393b577b3bcd3ef7ab27386901406cd066a43c997bf169063531360df8c9d2bc815479efb614cdb37486f19fceff8f5d7a19090df9b9fe11ea0090b27d79e421723bc78e0f3388d16f38168e2b0c00000000"
}