{
  "txid": "1150dc02fa2bff860d6090e60e05b8e614f8c4bd0771ae0264103ffede3ffbac",
  "version": 1,
  "locktime": 0,
  "vin": [
    {
      "txid": "7a2e8d773c3fbdffec515ee10d8d74253f2e0bad3883cd4ae784acddd08b95e6",
      "vout": 1,
      "prevout": {
        "scriptpubkey": "001411d7453af04e0c156f4688940b3f656d63a33595",
        "scriptpubkey_asm": "OP_0 OP_PUSHBYTES_20 11d7453af04e0c156f4688940b3f656d63a33595",
        "scriptpubkey_type": "v0_p2wpkh",
        "scriptpubkey_address": "bc1qz8t52whsfcxp2m6x3z2qk0m9d436xdv443aua6",
        "value": 908871
      },
      "scriptsig": "",
      "scriptsig_asm": "",
      "witness": [
        "3044022077c680c02ec22b90eb3a142bb4a84c2fdceb390d2b17d1a2824e7b367880d5d902202fd75f1137a2d31dc3c49df60d738f0034c8ffbb3ff0695a9dd79dd03c50973f01",
        "03756625455d1a60c01bd1d0a6fc8d396b33d55f205590f205c8f03daca81237f7"
      ],
      "is_coinbase": false,
      "sequence": 4294967295
    }
  ],
  "vout": [
    {
      "scriptpubkey": "76a914b2c45bab3f3caed6886f3f6431186515eb7a786488ac",
      "scriptpubkey_asm": "OP_DUP OP_HASH160 OP_PUSHBYTES_20 b2c45bab3f3caed6886f3f6431186515eb7a7864 OP_EQUALVERIFY OP_CHECKSIG",
      "scriptpubkey_type": "p2pkh",
      "scriptpubkey_address": "1HJEWLyxWdy1yLvDpRvpKCyDDCayvmNPYT",
      "value": 4859
    },
    {
      "scriptpubkey": "001411d7453af04e0c156f4688940b3f656d63a33595",
      "scriptpubkey_asm": "OP_0 OP_PUSHBYTES_20 11d7453af04e0c156f4688940b3f656d63a33595",
      "scriptpubkey_type": "v0_p2wpkh",
      "scriptpubkey_address": "bc1qz8t52whsfcxp2m6x3z2qk0m9d436xdv443aua6",
      "value": 901474
    }
  ],
  "size": 225,
  "weight": 573,
  "fee": 2538,
  "status": {
    "confirmed": true,
    "block_height": 834460,
    "block_hash": "00000000000000000000484a79b643b2524bbce82e5d8a442013fa5b8905ed98",
    "block_time": 1710307468
  },
  "hex": "01000000000101e6958bd0ddac84e74acd8338ad0b2e3f25748d0de15e51ecffbd3f3c778d2e7a0100000000ffffffff02fb120000000000001976a914b2c45bab3f3caed6886f3f6431186515eb7a786488ac62c10d000000000016001411d7453af04e0c156f4688940b3f656d63a3359502473044022077c680c02ec22b90eb3a142bb4a84c2fdceb390d2b17d1a2824e7b367880d5d902202fd75f1137a2d31dc3c49df60d738f0034c8ffbb3ff0695a9dd79dd03c50973f012103756625455d1a60c01bd1d0a6fc8d396b33d55f205590f205c8f03daca81237f700000000"
}