{
  "txid": "11657c39d51ecc56c9ee2e0d01d98abe6ae032e8c4ba4b5721bf7b9df678567a",
  "version": 2,
  "locktime": 0,
  "vin": [
    {
      "txid": "acc3ba00869acb582a3f2904ce3a11dd3779350ce234063fc7d0959246213364",
      "vout": 178,
      "prevout": {
        "scriptpubkey": "512007fbab9859ae5c68eb320885ec746ed8fbd3971dfe50b4745cedbf60a0bead5d",
        "scriptpubkey_asm": "OP_PUSHNUM_1 OP_PUSHBYTES_32 07fbab9859ae5c68eb320885ec746ed8fbd3971dfe50b4745cedbf60a0bead5d",
        "scriptpubkey_type": "v1_p2tr",
        "scriptpubkey_address": "bc1pqla6hxze4ewx36ejpzz7carwmraa89calegtgazuaklkpg9744wsgyshlm",
        "value": 1806
      },
      "scriptsig": "",
      "scriptsig_asm": "",
      "witness": [
        "fcc2af973316aa1bcd4a64bb8869f56b843e2ced9b2f9515ca901c75f4d4ac3a42bd982a3d313a73b5f0542a3839c7b6ddfc95a2a476a3a455e9cd616bd55eff",
        "209ab6c1c0713f58dc2bde755d6a346bcafbce380239f0b157ec40b35cbcd14fc2ac0063036f726401010a746578742f706c61696e00357b2270223a226272632d3230222c226f70223a226d696e74222c227469636b223a22646f6765222c22616d74223a2234323030227d68",
        "c19ab6c1c0713f58dc2bde755d6a346bcafbce380239f0b157ec40b35cbcd14fc2"
      ],
      "is_coinbase": false,
      "sequence": 4261412863
    }
  ],
  "vout": [
    {
      "scriptpubkey": "00147a665de7a370f4c9b372ab1fae587500a5bcbdb4",
      "scriptpubkey_asm": "OP_0 OP_PUSHBYTES_20 7a665de7a370f4c9b372ab1fae587500a5bcbdb4",
      "scriptpubkey_type": "v0_p2wpkh",
      "scriptpubkey_address": "bc1q0fn9mearwr6vnvmj4v06ukr4qzjme0d565dzcx",
      "value": 294
    }
  ],
  "size": 294,
  "weight": 540,
  "fee": 1512,
  "status": {
    "confirmed": true,
    "block_height": 834460,
    "block_hash": "00000000000000000000484a79b643b2524bbce82e5d8a442013fa5b8905ed98",
    "block_time": 1710307468
  },
  "hex": "02000000000101643321469295d0c73f0634e20c357937dd113ace04293f2a58cb9a8600bac3acb200000000fffffffd0126010000000000001600147a665de7a370f4c9b372ab1fae587500a5bcbdb40340fcc2af973316aa1bcd4a64bb8869f56b843e2ced9b2f9515ca901c75f4d4ac3a42bd982a3d313a73b5f0542a3839c7b6ddfc95a2a476a3a455e9cd616bd55eff6d209ab6c1c0713f58dc2bde755d6a346bcafbce380239f0b157ec40b35cbcd14fc2ac0063036f726401010a746578742f706c61696e00357b2270223a226272632d3230222c226f70223a226d696e74222c227469636b223a22646f6765222c22616d74223a2234323030227d6821c19ab6c1c0713f58dc2bde755d6a346bcafbce380239f0b157ec40b35cbcd14fc200000000"
}