{
  "txid": "1167c5a5d56293055ad589cda956277d8ee36f556b947e3eba75e0ca4a1ae442",
  "version": 2,
  "locktime": 0,
  "vin": [
    {
      "txid": "fdff9357214e963132176c0e62b2d4f91f70e8b5ca0ce3501fd9f571177910f6",
      "vout": 5,
      "prevout": {
        "scriptpubkey": "5120f6015cfec28af095a7d383933e722995ed5b9c74315ba7b7ee593b8618114107",
        "scriptpubkey_asm": "OP_PUSHNUM_1 OP_PUSHBYTES_32 f6015cfec28af095a7d383933e722995ed5b9c74315ba7b7ee593b8618114107",
        "scriptpubkey_type": "v1_p2tr",
        "scriptpubkey_address": "bc1p7cq4elkz3tcftf7nswfnuu3fjhk4h8r5x9d60dlwtyacvxq3gyrs2kmrv3",
        "value": 600
      },
      "scriptsig": "",
      "scriptsig_asm": "",
      "witness": [
        "41a3a62b7c9c587c6062152dbfa44ea8c0db01a8be742cdedad742e615b5c6e2ecbe39f313de21b50df0c26095131a8d0a4cd621b8dcf4b1d66fffc60bdac69b"
      ],
      "is_coinbase": false,
      "sequence": 4294967295
    },
    {
      "txid": "f552b6e353e6ce9f64c6dbd47bf803ab5f6605c2990b6c819ebf2370edcabb1c",
      "vout": 4,
      "prevout": {
        "scriptpubkey": "5120f6015cfec28af095a7d383933e722995ed5b9c74315ba7b7ee593b8618114107",
        "scriptpubkey_asm": "OP_PUSHNUM_1 OP_PUSHBYTES_32 f6015cfec28af095a7d383933e722995ed5b9c74315ba7b7ee593b8618114107",
        "scriptpubkey_type": "v1_p2tr",
        "scriptpubkey_address": "bc1p7cq4elkz3tcftf7nswfnuu3fjhk4h8r5x9d60dlwtyacvxq3gyrs2kmrv3",
        "value": 600
      },
      "scriptsig": "",
      "scriptsig_asm": "",
      "witness": [
        "baa0a6a652b31cdecefc8cf0af91fb80e7ef8e75375bff31a6d582eb623f58d899030931cc1e818e1350b5ac3b10b382cba4e8e40997989583d9f8d768cc12a4"
      ],
      "is_coinbase": false,
      "sequence": 4294967295
    },
    {
      "txid": "c40f9e2db18661e0587e4331dd3431a929cdbc26697e9ae17cccb69671e729b8",
      "vout": 0,
      "prevout": {
        "scriptpubkey": "512090b3875ea0b8755bc2281b7e48b29ced72dcf3c34baf02752c405cd0498293e2",
        "scriptpubkey_asm": "OP_PUSHNUM_1 OP_PUSHBYTES_32 90b3875ea0b8755bc2281b7e48b29ced72dcf3c34baf02752c405cd0498293e2",
        "scriptpubkey_type": "v1_p2tr",
        "scriptpubkey_address": "bc1pjzecwh4qhp64hs3grdly3v5ua4edeu7rfwhsyafvgpwdqjvzj03q53yhww",
        "value": 546
      },
      "scriptsig": "",
      "scriptsig_asm": "",
      "witness": [
        "6e4cd4cd073e995ce44d9409c73964f978aab7796849907032387e7fbae42fdd8f8d786a8df662d3118f884e0d86c146d80c26b060858f392a9c82f711e95df983"
      ],
      "is_coinbase": false,
      "sequence": 4294967295
    },
    {
      "txid": "16faae3c544b5fc61913d4764cd9452d2fc529869027d04a94f4851a0b4854d4",
      "vout": 6,
      "prevout": {
        "scriptpubkey": "5120f6015cfec28af095a7d383933e722995ed5b9c74315ba7b7ee593b8618114107",
        "scriptpubkey_asm": "OP_PUSHNUM_1 OP_PUSHBYTES_32 f6015cfec28af095a7d383933e722995ed5b9c74315ba7b7ee593b8618114107",
        "scriptpubkey_type": "v1_p2tr",
        "scriptpubkey_address": "bc1p7cq4elkz3tcftf7nswfnuu3fjhk4h8r5x9d60dlwtyacvxq3gyrs2kmrv3",
        "value": 32025568
      },
      "scriptsig": "",
      "scriptsig_asm": "",
      "witness": [
        "80f7b009b1d0a2ab0ea3f91c338cf75b23a71b9d6124da7cf4261e311644e98847d3afaa9b3997108e35af1184383c59b1588f037729dd71a05c046eb9a17bcf"
      ],
      "is_coinbase": false,
      "sequence": 4294967295
    }
  ],
  "vout": [
    {
      "scriptpubkey": "5120f6015cfec28af095a7d383933e722995ed5b9c74315ba7b7ee593b8618114107",
      "scriptpubkey_asm": "OP_PUSHNUM_1 OP_PUSHBYTES_32 f6015cfec28af095a7d383933e722995ed5b9c74315ba7b7ee593b8618114107",
      "scriptpubkey_type": "v1_p2tr",
      "scriptpubkey_address": "bc1p7cq4elkz3tcftf7nswfnuu3fjhk4h8r5x9d60dlwtyacvxq3gyrs2kmrv3",
      "value": 1200
    },
    {
      "scriptpubkey": "51200731361c2a16ecc0b212d650887eb1062627bb2a3aef6ce4161201946659cb57",
      "scriptpubkey_asm": "OP_PUSHNUM_1 OP_PUSHBYTES_32 0731361c2a16ecc0b212d650887eb1062627bb2a3aef6ce4161201946659cb57",
      "scriptpubkey_type": "v1_p2tr",
      "scriptpubkey_address": "bc1pqucnv8p2zmkvpvsj6eggsl43qcnz0we28thkeeqkzgqegejeedtsry02nv",
      "value": 546
    },
    {
      "scriptpubkey": "512090b3875ea0b8755bc2281b7e48b29ced72dcf3c34baf02752c405cd0498293e2",
      "scriptpubkey_asm": "OP_PUSHNUM_1 OP_PUSHBYTES_32 90b3875ea0b8755bc2281b7e48b29ced72dcf3c34baf02752c405cd0498293e2",
      "scriptpubkey_type": "v1_p2tr",
      "scriptpubkey_address": "bc1pjzecwh4qhp64hs3grdly3v5ua4edeu7rfwhsyafvgpwdqjvzj03q53yhww",
      "value": 249296
    },
    {
      "scriptpubkey": "a914ea6b832a05c6ca578baa3836f3f25553d41068a587",
      "scriptpubkey_asm": "OP_HASH160 OP_PUSHBYTES_20 ea6b832a05c6ca578baa3836f3f25553d41068a5 OP_EQUAL",
      "scriptpubkey_type": "p2sh",
      "scriptpubkey_address": "3P4WqXDbSLRhzo2H6MT6YFbvBKBDPLbVtQ",
      "value": 6250
    },
    {
      "scriptpubkey": "5120f6015cfec28af095a7d383933e722995ed5b9c74315ba7b7ee593b8618114107",
      "scriptpubkey_asm": "OP_PUSHNUM_1 OP_PUSHBYTES_32 f6015cfec28af095a7d383933e722995ed5b9c74315ba7b7ee593b8618114107",
      "scriptpubkey_type": "v1_p2tr",
      "scriptpubkey_address": "bc1p7cq4elkz3tcftf7nswfnuu3fjhk4h8r5x9d60dlwtyacvxq3gyrs2kmrv3",
      "value": 600
    },
    {
      "scriptpubkey": "5120f6015cfec28af095a7d383933e722995ed5b9c74315ba7b7ee593b8618114107",
      "scriptpubkey_asm": "OP_PUSHNUM_1 OP_PUSHBYTES_32 f6015cfec28af095a7d383933e722995ed5b9c74315ba7b7ee593b8618114107",
      "scriptpubkey_type": "v1_p2tr",
      "scriptpubkey_address": "bc1p7cq4elkz3tcftf7nswfnuu3fjhk4h8r5x9d60dlwtyacvxq3gyrs2kmrv3",
      "value": 600
    },
    {
      "scriptpubkey": "5120f6015cfec28af095a7d383933e722995ed5b9c74315ba7b7ee593b8618114107",
      "scriptpubkey_asm": "OP_PUSHNUM_1 OP_PUSHBYTES_32 f6015cfec28af095a7d383933e722995ed5b9c74315ba7b7ee593b8618114107",
      "scriptpubkey_type": "v1_p2tr",
      "scriptpubkey_address": "bc1p7cq4elkz3tcftf7nswfnuu3fjhk4h8r5x9d60dlwtyacvxq3gyrs2kmrv3",
      "value": 31759778
    }
  ],
  "size": 731,
  "weight": 2123,
  "fee": 9044,
  "status": {
    "confirmed": true,
    "block_height": 834552,
    "block_hash": "00000000000000000001dd0468a70c94f619251d286585cff57aeb4bd9ede330",
    "block_time": 1710355598
  },
  "hex": "02000000000104f610791771f5d91f50e30ccab5e8701ff9d4b2620e6c173231964e215793fffd0500000000ffffffff1cbbcaed7023bf9e816c0b99c205665fab03f87bd4dbc6649fcee653e3b652f50400000000ffffffffb829e77196b6cc7ce19a7e6926bccd29a93134dd31437e58e06186b12d9e0fc40000000000ffffffffd454480b1a85f4944ad027908629c52f2d45d94c76d41319c65f4b543caefa160600000000ffffffff07b004000000000000225120f6015cfec28af095a7d383933e722995ed5b9c74315ba7b7ee593b861811410722020000000000002251200731361c2a16ecc0b212d650887eb1062627bb2a3aef6ce4161201946659cb57d0cd03000000000022512090b3875ea0b8755bc2281b7e48b29ced72dcf3c34baf02752c405cd0498293e26a1800000000000017a914ea6b832a05c6ca578baa3836f3f25553d41068a5875802000000000000225120f6015cfec28af095a7d383933e722995ed5b9c74315ba7b7ee593b86181141075802000000000000225120f6015cfec28af095a7d383933e722995ed5b9c74315ba7b7ee593b8618114107a29de40100000000225120f6015cfec28af095a7d383933e722995ed5b9c74315ba7b7ee593b8618114107014041a3a62b7c9c587c6062152dbfa44ea8c0db01a8be742cdedad742e615b5c6e2ecbe39f313de21b50df0c26095131a8d0a4cd621b8dcf4b1d66fffc60bdac69b0140baa0a6a652b31cdecefc8cf0af91fb80e7ef8e75375bff31a6d582eb623f58d899030931cc1e818e1350b5ac3b10b382cba4e8e40997989583d9f8d768cc12a401416e4cd4cd073e995ce44d9409c73964f978aab7796849907032387e7fbae42fdd8f8d786a8df662d3118f884e0d86c146d80c26b060858f392a9c82f711e95df983014080f7b009b1d0a2ab0ea3f91c338cf75b23a71b9d6124da7cf4261e311644e98847d3afaa9b3997108e35af1184383c59b1588f037729dd71a05c046eb9a17bcf00000000"
}