{
  "txid": "117020b6c86c96efd9c343f2f62991c8dc2ef39e2f70903fa7cc1944a08c3fee",
  "version": 2,
  "locktime": 0,
  "vin": [
    {
      "txid": "1fced5a3187b2195eb80c815082a7543aaff483f45b142261b9f3a2a73122911",
      "vout": 0,
      "prevout": {
        "scriptpubkey": "51207cef855c7bb4b414691945ad60db83af972da8a804e7694c0cbe088193b7767d",
        "scriptpubkey_asm": "OP_PUSHNUM_1 OP_PUSHBYTES_32 7cef855c7bb4b414691945ad60db83af972da8a804e7694c0cbe088193b7767d",
        "scriptpubkey_type": "v1_p2tr",
        "scriptpubkey_address": "bc1p0nhc2hrmkj6pg6gegkkkpkur47tjm29gqnnkjnqvhcygryahwe7spnpedc",
        "value": 36212
      },
      "scriptsig": "",
      "scriptsig_asm": "",
      "witness": [
        "1fcd38cceec77b30ac93297279079fb819dace08ca85a5174b099b4e21671610f05198d04c511e5d621892eb8684f53046bac244e2b4b1d5438d187903e11eca",
        "20dfe86f608dc2b9a3a4de58ca26c20c56b0546b0e7e9f6a6a513de579c62e681eac0063036f7264010109746578742f68746d6c004c6e3c73637269707420683d2231323030333922207372633d222f636f6e74656e742f393565613330386438313937653063383064633736656530343635636532356362336635376336316539373863666437356163326564366163306336346636396930223e3c2f7363726970743e680063036f7264010109746578742f68746d6c0102022202004c6d3c73637269707420683d22333833373022207372633d222f636f6e74656e742f393565613330386438313937653063383064633736656530343635636532356362336635376336316539373863666437356163326564366163306336346636396930223e3c2f7363726970743e680063036f7264010109746578742f68746d6c0102024404004c6d3c73637269707420683d22363030363422207372633d222f636f6e74656e742f393565613330386438313937653063383064633736656530343635636532356362336635376336316539373863666437356163326564366163306336346636396930223e3c2f7363726970743e680063036f7264010109746578742f68746d6c0102026606004c6e3c73637269707420683d2233323037333722207372633d222f636f6e74656e742f393565613330386438313937653063383064633736656530343635636532356362336635376336316539373863666437356163326564366163306336346636396930223e3c2f7363726970743e680063036f7264010109746578742f68746d6c0102028808004c6e3c73637269707420683d2236343839383022207372633d222f636f6e74656e742f393565613330386438313937653063383064633736656530343635636532356362336635376336316539373863666437356163326564366163306336346636396930223e3c2f7363726970743e680063036f7264010109746578742f68746d6c010202aa0a004c6e3c73637269707420683d2237383731333222207372633d222f636f6e74656e742f393565613330386438313937653063383064633736656530343635636532356362336635376336316539373863666437356163326564366163306336346636396930223e3c2f7363726970743e680063036f7264010109746578742f68746d6c010202cc0c004c6e3c73637269707420683d2235343535333522207372633d222f636f6e74656e742f393565613330386438313937653063383064633736656530343635636532356362336635376336316539373863666437356163326564366163306336346636396930223e3c2f7363726970743e680063036f7264010109746578742f68746d6c010202ee0e004c6e3c73637269707420683d2231393631343722207372633d222f636f6e74656e742f393565613330386438313937653063383064633736656530343635636532356362336635376336316539373863666437356163326564366163306336346636396930223e3c2f7363726970743e680063036f7264010109746578742f68746d6c0102021011004c6e3c73637269707420683d2233363830393522207372633d222f636f6e74656e742f393565613330386438313937653063383064633736656530343635636532356362336635376336316539373863666437356163326564366163306336346636396930223e3c2f7363726970743e680063036f7264010109746578742f68746d6c0102023213004c6e3c73637269707420683d2234313936373322207372633d222f636f6e74656e742f393565613330386438313937653063383064633736656530343635636532356362336635376336316539373863666437356163326564366163306336346636396930223e3c2f7363726970743e68",
        "c0dfe86f608dc2b9a3a4de58ca26c20c56b0546b0e7e9f6a6a513de579c62e681e"
      ],
      "is_coinbase": false,
      "sequence": 4294967293
    }
  ],
  "vout": [
    {
      "scriptpubkey": "0014b86d3f79a36b711d1cc6e28ab831d71bc1aaf10c",
      "scriptpubkey_asm": "OP_0 OP_PUSHBYTES_20 b86d3f79a36b711d1cc6e28ab831d71bc1aaf10c",
      "scriptpubkey_type": "v0_p2wpkh",
      "scriptpubkey_address": "bc1qhpkn77drddc368xxu29tsvwhr0q64ugvkk8nat",
      "value": 546
    },
    {
      "scriptpubkey": "0014b86d3f79a36b711d1cc6e28ab831d71bc1aaf10c",
      "scriptpubkey_asm": "OP_0 OP_PUSHBYTES_20 b86d3f79a36b711d1cc6e28ab831d71bc1aaf10c",
      "scriptpubkey_type": "v0_p2wpkh",
      "scriptpubkey_address": "bc1qhpkn77drddc368xxu29tsvwhr0q64ugvkk8nat",
      "value": 546
    },
    {
      "scriptpubkey": "0014b86d3f79a36b711d1cc6e28ab831d71bc1aaf10c",
      "scriptpubkey_asm": "OP_0 OP_PUSHBYTES_20 b86d3f79a36b711d1cc6e28ab831d71bc1aaf10c",
      "scriptpubkey_type": "v0_p2wpkh",
      "scriptpubkey_address": "bc1qhpkn77drddc368xxu29tsvwhr0q64ugvkk8nat",
      "value": 546
    },
    {
      "scriptpubkey": "0014b86d3f79a36b711d1cc6e28ab831d71bc1aaf10c",
      "scriptpubkey_asm": "OP_0 OP_PUSHBYTES_20 b86d3f79a36b711d1cc6e28ab831d71bc1aaf10c",
      "scriptpubkey_type": "v0_p2wpkh",
      "scriptpubkey_address": "bc1qhpkn77drddc368xxu29tsvwhr0q64ugvkk8nat",
      "value": 546
    },
    {
      "scriptpubkey": "0014b86d3f79a36b711d1cc6e28ab831d71bc1aaf10c",
      "scriptpubkey_asm": "OP_0 OP_PUSHBYTES_20 b86d3f79a36b711d1cc6e28ab831d71bc1aaf10c",
      "scriptpubkey_type": "v0_p2wpkh",
      "scriptpubkey_address": "bc1qhpkn77drddc368xxu29tsvwhr0q64ugvkk8nat",
      "value": 546
    },
    {
      "scriptpubkey": "0014b86d3f79a36b711d1cc6e28ab831d71bc1aaf10c",
      "scriptpubkey_asm": "OP_0 OP_PUSHBYTES_20 b86d3f79a36b711d1cc6e28ab831d71bc1aaf10c",
      "scriptpubkey_type": "v0_p2wpkh",
      "scriptpubkey_address": "bc1qhpkn77drddc368xxu29tsvwhr0q64ugvkk8nat",
      "value": 546
    },
    {
      "scriptpubkey": "0014b86d3f79a36b711d1cc6e28ab831d71bc1aaf10c",
      "scriptpubkey_asm": "OP_0 OP_PUSHBYTES_20 b86d3f79a36b711d1cc6e28ab831d71bc1aaf10c",
      "scriptpubkey_type": "v0_p2wpkh",
      "scriptpubkey_address": "bc1qhpkn77drddc368xxu29tsvwhr0q64ugvkk8nat",
      "value": 546
    },
    {
      "scriptpubkey": "0014b86d3f79a36b711d1cc6e28ab831d71bc1aaf10c",
      "scriptpubkey_asm": "OP_0 OP_PUSHBYTES_20 b86d3f79a36b711d1cc6e28ab831d71bc1aaf10c",
      "scriptpubkey_type": "v0_p2wpkh",
      "scriptpubkey_address": "bc1qhpkn77drddc368xxu29tsvwhr0q64ugvkk8nat",
      "value": 546
    },
    {
      "scriptpubkey": "0014b86d3f79a36b711d1cc6e28ab831d71bc1aaf10c",
      "scriptpubkey_asm": "OP_0 OP_PUSHBYTES_20 b86d3f79a36b711d1cc6e28ab831d71bc1aaf10c",
      "scriptpubkey_type": "v0_p2wpkh",
      "scriptpubkey_address": "bc1qhpkn77drddc368xxu29tsvwhr0q64ugvkk8nat",
      "value": 546
    },
    {
      "scriptpubkey": "0014b86d3f79a36b711d1cc6e28ab831d71bc1aaf10c",
      "scriptpubkey_asm": "OP_0 OP_PUSHBYTES_20 b86d3f79a36b711d1cc6e28ab831d71bc1aaf10c",
      "scriptpubkey_type": "v0_p2wpkh",
      "scriptpubkey_address": "bc1qhpkn77drddc368xxu29tsvwhr0q64ugvkk8nat",
      "value": 546
    },
    {
      "scriptpubkey": "00143f80b77fc3256e325670ec6ee54d475979f46a10",
      "scriptpubkey_asm": "OP_0 OP_PUSHBYTES_20 3f80b77fc3256e325670ec6ee54d475979f46a10",
      "scriptpubkey_type": "v0_p2wpkh",
      "scriptpubkey_address": "bc1q87qtwl7ry4hry4nsa3hw2n28t9ulg6ss67x829",
      "value": 20000
    }
  ],
  "size": 1894,
  "weight": 3070,
  "fee": 10752,
  "status": {
    "confirmed": true,
    "block_height": 834460,
    "block_hash": "00000000000000000000484a79b643b2524bbce82e5d8a442013fa5b8905ed98",
    "block_time": 1710307468
  },
  "hex": "02000000000101112912732a3a9f1b2642b1453f48ffaa43752a0815c880eb95217b18a3d5ce1f0000000000fdffffff0b2202000000000000160014b86d3f79a36b711d1cc6e28ab831d71bc1aaf10c2202000000000000160014b86d3f79a36b711d1cc6e28ab831d71bc1aaf10c2202000000000000160014b86d3f79a36b711d1cc6e28ab831d71bc1aaf10c2202000000000000160014b86d3f79a36b711d1cc6e28ab831d71bc1aaf10c2202000000000000160014b86d3f79a36b711d1cc6e28ab831d71bc1aaf10c2202000000000000160014b86d3f79a36b711d1cc6e28ab831d71bc1aaf10c2202000000000000160014b86d3f79a36b711d1cc6e28ab831d71bc1aaf10c2202000000000000160014b86d3f79a36b711d1cc6e28ab831d71bc1aaf10c2202000000000000160014b86d3f79a36b711d1cc6e28ab831d71bc1aaf10c2202000000000000160014b86d3f79a36b711d1cc6e28ab831d71bc1aaf10c204e0000000000001600143f80b77fc3256e325670ec6ee54d475979f46a1003401fcd38cceec77b30ac93297279079fb819dace08ca85a5174b099b4e21671610f05198d04c511e5d621892eb8684f53046bac244e2b4b1d5438d187903e11ecafd750520dfe86f608dc2b9a3a4de58ca26c20c56b0546b0e7e9f6a6a513de579c62e681eac0063036f7264010109746578742f68746d6c004c6e3c73637269707420683d2231323030333922207372633d222f636f6e74656e742f393565613330386438313937653063383064633736656530343635636532356362336635376336316539373863666437356163326564366163306336346636396930223e3c2f7363726970743e680063036f7264010109746578742f68746d6c0102022202004c6d3c73637269707420683d22333833373022207372633d222f636f6e74656e742f393565613330386438313937653063383064633736656530343635636532356362336635376336316539373863666437356163326564366163306336346636396930223e3c2f7363726970743e680063036f7264010109746578742f68746d6c0102024404004c6d3c73637269707420683d22363030363422207372633d222f636f6e74656e742f393565613330386438313937653063383064633736656530343635636532356362336635376336316539373863666437356163326564366163306336346636396930223e3c2f7363726970743e680063036f7264010109746578742f68746d6c0102026606004c6e3c73637269707420683d2233323037333722207372633d222f636f6e74656e742f393565613330386438313937653063383064633736656530343635636532356362336635376336316539373863666437356163326564366163306336346636396930223e3c2f7363726970743e680063036f7264010109746578742f68746d6c0102028808004c6e3c73637269707420683d2236343839383022207372633d222f636f6e74656e742f393565613330386438313937653063383064633736656530343635636532356362336635376336316539373863666437356163326564366163306336346636396930223e3c2f7363726970743e680063036f7264010109746578742f68746d6c010202aa0a004c6e3c73637269707420683d2237383731333222207372633d222f636f6e74656e742f393565613330386438313937653063383064633736656530343635636532356362336635376336316539373863666437356163326564366163306336346636396930223e3c2f7363726970743e680063036f7264010109746578742f68746d6c010202cc0c004c6e3c73637269707420683d2235343535333522207372633d222f636f6e74656e742f393565613330386438313937653063383064633736656530343635636532356362336635376336316539373863666437356163326564366163306336346636396930223e3c2f7363726970743e680063036f7264010109746578742f68746d6c010202ee0e004c6e3c73637269707420683d2231393631343722207372633d222f636f6e74656e742f393565613330386438313937653063383064633736656530343635636532356362336635376336316539373863666437356163326564366163306336346636396930223e3c2f7363726970743e680063036f7264010109746578742f68746d6c0102021011004c6e3c73637269707420683d2233363830393522207372633d222f636f6e74656e742f393565613330386438313937653063383064633736656530343635636532356362336635376336316539373863666437356163326564366163306336346636396930223e3c2f7363726970743e680063036f7264010109746578742f68746d6c0102023213004c6e3c73637269707420683d2234313936373322207372633d222f636f6e74656e742f393565613330386438313937653063383064633736656530343635636532356362336635376336316539373863666437356163326564366163306336346636396930223e3c2f7363726970743e6821c0dfe86f608dc2b9a3a4de58ca26c20c56b0546b0e7e9f6a6a513de579c62e681e00000000"
}