{
  "txid": "117aaf616ad1547be97c088bff1fe0cf701a76b5576ab1a5064dac4bddf0ea24",
  "version": 2,
  "locktime": 834637,
  "vin": [
    {
      "txid": "8d7761f22d60af19063e207e1d6574589ea7b5bf294cf0e5e6811520a1478977",
      "vout": 0,
      "prevout": {
        "scriptpubkey": "0014499ae0bde56d27e1525957796772765d29c7cc59",
        "scriptpubkey_asm": "OP_0 OP_PUSHBYTES_20 499ae0bde56d27e1525957796772765d29c7cc59",
        "scriptpubkey_type": "v0_p2wpkh",
        "scriptpubkey_address": "bc1qfxdwp009d5n7z5je2aukwunkt55u0nzeqcpfqz",
        "value": 39086
      },
      "scriptsig": "",
      "scriptsig_asm": "",
      "witness": [
        "30440220256c04ed8d00ed45f28722bd94329d24672ae8975494b66a1c66b92a2303ea2802204bf0f3a59c8af5c0f7e8098778bc1f6e53298125f347380d3ccc0415ac2adf0801",
        "02c68244220ffebfe0e1af9577eb6302942f34c71422be85f553da65588f2db8f9"
      ],
      "is_coinbase": false,
      "sequence": 4294967294
    },
    {
      "txid": "a0bfa064bf4f60af9e5904ef557986fa3e19460ce128189fff70915e86d3303d",
      "vout": 15,
      "prevout": {
        "scriptpubkey": "0014af0a4377d03f50ed051ce29915a0455303dd1293",
        "scriptpubkey_asm": "OP_0 OP_PUSHBYTES_20 af0a4377d03f50ed051ce29915a0455303dd1293",
        "scriptpubkey_type": "v0_p2wpkh",
        "scriptpubkey_address": "bc1q4u9yxa7s8agw6pguu2v3tgz92vpa6y5nqe5tj6",
        "value": 32000
      },
      "scriptsig": "",
      "scriptsig_asm": "",
      "witness": [
        "304402207637ba0ff0a6aac53c6095670909f73cb2e063698fa25763cdd2b3c60697314e022007260a4b78ffe17dc7779d5295d0ad8d82c8184d28b0d509e24cca0db7728c7701",
        "028a94c346b07c0045ea01aae9d872e1d65080f57b81049e16b622d214a0aa1216"
      ],
      "is_coinbase": false,
      "sequence": 4294967294
    }
  ],
  "vout": [
    {
      "scriptpubkey": "0014bf63c8fe8ed278be2163409558d7b59b12e95cb2",
      "scriptpubkey_asm": "OP_0 OP_PUSHBYTES_20 bf63c8fe8ed278be2163409558d7b59b12e95cb2",
      "scriptpubkey_type": "v0_p2wpkh",
      "scriptpubkey_address": "bc1qha3u3l5w6futugtrgz2434a4nvfwjh9jqw8hmp",
      "value": 65157
    }
  ],
  "size": 339,
  "weight": 708,
  "fee": 5929,
  "status": {
    "confirmed": true,
    "block_height": 834638,
    "block_hash": "000000000000000000025f742c626208ac87e0b7d15054abb4a19ca2d735a54e",
    "block_time": 1710405325
  },
  "hex": "02000000000102778947a1201581e6e5f04c29bfb5a79e5874651d7e203e0619af602df261778d0000000000feffffff3d30d3865e9170ff9f1828e10c46193efa867955ef04599eaf604fbf64a0bfa00f00000000feffffff0185fe000000000000160014bf63c8fe8ed278be2163409558d7b59b12e95cb2024730440220256c04ed8d00ed45f28722bd94329d24672ae8975494b66a1c66b92a2303ea2802204bf0f3a59c8af5c0f7e8098778bc1f6e53298125f347380d3ccc0415ac2adf08012102c68244220ffebfe0e1af9577eb6302942f34c71422be85f553da65588f2db8f90247304402207637ba0ff0a6aac53c6095670909f73cb2e063698fa25763cdd2b3c60697314e022007260a4b78ffe17dc7779d5295d0ad8d82c8184d28b0d509e24cca0db7728c770121028a94c346b07c0045ea01aae9d872e1d65080f57b81049e16b622d214a0aa12164dbc0c00"
}