{
  "txid": "119615351b82c255990a835af2e1130393ca1b3ccae8f408a7c21670e56f3a10",
  "version": 2,
  "locktime": 0,
  "vin": [
    {
      "txid": "8bb232d98c0ff9ed2a914a370bd5af5390f449e8815b2a7e3d9971e2a5f1a780",
      "vout": 1,
      "prevout": {
        "scriptpubkey": "512040f1e7b40b9bcc7c3aba54c34e3ef9157b5e692d46dbf0486cfb3599d0d5c37c",
        "scriptpubkey_asm": "OP_PUSHNUM_1 OP_PUSHBYTES_32 40f1e7b40b9bcc7c3aba54c34e3ef9157b5e692d46dbf0486cfb3599d0d5c37c",
        "scriptpubkey_type": "v1_p2tr",
        "scriptpubkey_address": "bc1pgrc70dqtn0x8cw462np5u0hez4a4u6fdgmdlqjrvlv6en5x4cd7q982jzn",
        "value": 546
      },
      "scriptsig": "",
      "scriptsig_asm": "",
      "witness": [
        "fe41681835fdf0122585aae9e99f7ae107185eeac29a70abe04902c114443fd06be051c3f90d229f5ca08dbc470935afcae5e854558b48ee8da97a3997859cbf"
      ],
      "is_coinbase": false,
      "sequence": 4294967293
    },
    {
      "txid": "cea3f6ab0e4e31a1322853ff375a9b06650b97869aa43e05cbff83844d62ccf3",
      "vout": 0,
      "prevout": {
        "scriptpubkey": "a91451fdefaf9ae96a3dac75e8df067bb07359cc6bad87",
        "scriptpubkey_asm": "OP_HASH160 OP_PUSHBYTES_20 51fdefaf9ae96a3dac75e8df067bb07359cc6bad OP_EQUAL",
        "scriptpubkey_type": "p2sh",
        "scriptpubkey_address": "39AYrtCgsyRKdky65stcHvYd1VsZ8dhQQF",
        "value": 1200
      },
      "scriptsig": "160014f9785a49d177d5dbb06ed90cab76d27ff307f420",
      "scriptsig_asm": "OP_PUSHBYTES_22 0014f9785a49d177d5dbb06ed90cab76d27ff307f420",
      "witness": [
        "30450221009b583703e6df1012d9f3697649ec5e2a5db88e2ee06de37579f56799ffef55d10220243de5b1d3a2b1498ad4085136f73b052f524762a5d5ea0fa0a89b77d37b82a101",
        "0203d9e9e89364c68ede3ca06e6ee134f5f1c85b04fbfe745436e17e22b1fffd0a"
      ],
      "is_coinbase": false,
      "sequence": 4294967293,
      "inner_redeemscript_asm": "OP_0 OP_PUSHBYTES_20 f9785a49d177d5dbb06ed90cab76d27ff307f420"
    },
    {
      "txid": "1e03ba7318b994cb634042d3ccdf75c879eceaf96a48341af1dc6daef765c597",
      "vout": 0,
      "prevout": {
        "scriptpubkey": "a91451fdefaf9ae96a3dac75e8df067bb07359cc6bad87",
        "scriptpubkey_asm": "OP_HASH160 OP_PUSHBYTES_20 51fdefaf9ae96a3dac75e8df067bb07359cc6bad OP_EQUAL",
        "scriptpubkey_type": "p2sh",
        "scriptpubkey_address": "39AYrtCgsyRKdky65stcHvYd1VsZ8dhQQF",
        "value": 1200
      },
      "scriptsig": "160014f9785a49d177d5dbb06ed90cab76d27ff307f420",
      "scriptsig_asm": "OP_PUSHBYTES_22 0014f9785a49d177d5dbb06ed90cab76d27ff307f420",
      "witness": [
        "304402207988414663c6c56662cce27f1cdc028f5674226ba737d7c7cac406a1d6c0d5d3022052560da4b627e8fda16228ab9109601753d3fe5ef6fe990f2fa8520fe79cf64101",
        "0203d9e9e89364c68ede3ca06e6ee134f5f1c85b04fbfe745436e17e22b1fffd0a"
      ],
      "is_coinbase": false,
      "sequence": 4294967293,
      "inner_redeemscript_asm": "OP_0 OP_PUSHBYTES_20 f9785a49d177d5dbb06ed90cab76d27ff307f420"
    },
    {
      "txid": "ae9fe7818f087dbac7fbcdbf7e778faf6b17f2006093dd81f944b8bbfe543ccc",
      "vout": 0,
      "prevout": {
        "scriptpubkey": "a91451fdefaf9ae96a3dac75e8df067bb07359cc6bad87",
        "scriptpubkey_asm": "OP_HASH160 OP_PUSHBYTES_20 51fdefaf9ae96a3dac75e8df067bb07359cc6bad OP_EQUAL",
        "scriptpubkey_type": "p2sh",
        "scriptpubkey_address": "39AYrtCgsyRKdky65stcHvYd1VsZ8dhQQF",
        "value": 1200
      },
      "scriptsig": "160014f9785a49d177d5dbb06ed90cab76d27ff307f420",
      "scriptsig_asm": "OP_PUSHBYTES_22 0014f9785a49d177d5dbb06ed90cab76d27ff307f420",
      "witness": [
        "3045022100d1ab77cdf8c8e460d6a8f6fde8bba36eb35d9cf8859784f879edd6fe2b344f4e0220158f456f1bce7e732c04bd00d052e50638d31c7b9133dd0093b3587762ba7fbd01",
        "0203d9e9e89364c68ede3ca06e6ee134f5f1c85b04fbfe745436e17e22b1fffd0a"
      ],
      "is_coinbase": false,
      "sequence": 4294967293,
      "inner_redeemscript_asm": "OP_0 OP_PUSHBYTES_20 f9785a49d177d5dbb06ed90cab76d27ff307f420"
    },
    {
      "txid": "dca4b1a6f7de648f9bbcac7234191b02ea1870c9fed2be7051034436de176cbd",
      "vout": 0,
      "prevout": {
        "scriptpubkey": "a91451fdefaf9ae96a3dac75e8df067bb07359cc6bad87",
        "scriptpubkey_asm": "OP_HASH160 OP_PUSHBYTES_20 51fdefaf9ae96a3dac75e8df067bb07359cc6bad OP_EQUAL",
        "scriptpubkey_type": "p2sh",
        "scriptpubkey_address": "39AYrtCgsyRKdky65stcHvYd1VsZ8dhQQF",
        "value": 1200
      },
      "scriptsig": "160014f9785a49d177d5dbb06ed90cab76d27ff307f420",
      "scriptsig_asm": "OP_PUSHBYTES_22 0014f9785a49d177d5dbb06ed90cab76d27ff307f420",
      "witness": [
        "3045022100cb2f623988ade4eb8ceab3ad65c81153214c82f49a027a4f49df1d7f6f60b6ef02203983b958c674c6dd6779dfc74eae46a6202fd4cceee491e94fbe9d09a4d4a68a01",
        "0203d9e9e89364c68ede3ca06e6ee134f5f1c85b04fbfe745436e17e22b1fffd0a"
      ],
      "is_coinbase": false,
      "sequence": 4294967293,
      "inner_redeemscript_asm": "OP_0 OP_PUSHBYTES_20 f9785a49d177d5dbb06ed90cab76d27ff307f420"
    },
    {
      "txid": "729cce1ac479a95f452b4643d0b9440a7f4c3f761469b5755b2144933f481a94",
      "vout": 0,
      "prevout": {
        "scriptpubkey": "a91451fdefaf9ae96a3dac75e8df067bb07359cc6bad87",
        "scriptpubkey_asm": "OP_HASH160 OP_PUSHBYTES_20 51fdefaf9ae96a3dac75e8df067bb07359cc6bad OP_EQUAL",
        "scriptpubkey_type": "p2sh",
        "scriptpubkey_address": "39AYrtCgsyRKdky65stcHvYd1VsZ8dhQQF",
        "value": 1200
      },
      "scriptsig": "160014f9785a49d177d5dbb06ed90cab76d27ff307f420",
      "scriptsig_asm": "OP_PUSHBYTES_22 0014f9785a49d177d5dbb06ed90cab76d27ff307f420",
      "witness": [
        "30440220457f9daf54c3155b2c212cd41fa949734c4e3cb8b10eaf3a4238a7ec37b932cb0220116ddd2c587ecec277955372d688990435aedf4d20174461afddeff49576d15c01",
        "0203d9e9e89364c68ede3ca06e6ee134f5f1c85b04fbfe745436e17e22b1fffd0a"
      ],
      "is_coinbase": false,
      "sequence": 4294967293,
      "inner_redeemscript_asm": "OP_0 OP_PUSHBYTES_20 f9785a49d177d5dbb06ed90cab76d27ff307f420"
    },
    {
      "txid": "f65c62635ca1adaa254f69a62f284ace054ccea33d5fe07c59f37145e3f47a9d",
      "vout": 0,
      "prevout": {
        "scriptpubkey": "a91451fdefaf9ae96a3dac75e8df067bb07359cc6bad87",
        "scriptpubkey_asm": "OP_HASH160 OP_PUSHBYTES_20 51fdefaf9ae96a3dac75e8df067bb07359cc6bad OP_EQUAL",
        "scriptpubkey_type": "p2sh",
        "scriptpubkey_address": "39AYrtCgsyRKdky65stcHvYd1VsZ8dhQQF",
        "value": 1200
      },
      "scriptsig": "160014f9785a49d177d5dbb06ed90cab76d27ff307f420",
      "scriptsig_asm": "OP_PUSHBYTES_22 0014f9785a49d177d5dbb06ed90cab76d27ff307f420",
      "witness": [
        "3045022100e3c98fed0dbf0b5cddb98c1847f9ae24ba8641e4b1230fe3186dd90960705a000220296bbcd6964363e8823c6a369e70c5e23c8938d20c554c77de825c9cc48e6fdd01",
        "0203d9e9e89364c68ede3ca06e6ee134f5f1c85b04fbfe745436e17e22b1fffd0a"
      ],
      "is_coinbase": false,
      "sequence": 4294967293,
      "inner_redeemscript_asm": "OP_0 OP_PUSHBYTES_20 f9785a49d177d5dbb06ed90cab76d27ff307f420"
    }
  ],
  "vout": [
    {
      "scriptpubkey": "512036b2e8355bbbd16528ea6869aa07d2306b1b452eb42766b06afc8dd54baa2e9e",
      "scriptpubkey_asm": "OP_PUSHNUM_1 OP_PUSHBYTES_32 36b2e8355bbbd16528ea6869aa07d2306b1b452eb42766b06afc8dd54baa2e9e",
      "scriptpubkey_type": "v1_p2tr",
      "scriptpubkey_address": "bc1px6ewsd2mh0gk2282dp565p7jxp43k3fwksnkdvr2ljxa2ja2960qxr99y3",
      "value": 546
    }
  ],
  "size": 1192,
  "weight": 2626,
  "fee": 7200,
  "status": {
    "confirmed": true,
    "block_height": 834464,
    "block_hash": "0000000000000000000177a0869a911a2b65c9bdcd5a8bcb02b68f305bee848e",
    "block_time": 1710308296
  },
  "hex": "0200000000010780a7f1a5e271993d7e2a5b81e849f49053afd50b374a912aedf90f8cd932b28b0100000000fdfffffff3cc624d8483ffcb053ea49a86970b65069b5a37ff532832a1314e0eabf6a3ce0000000017160014f9785a49d177d5dbb06ed90cab76d27ff307f420fdffffff97c565f7ae6ddcf11a34486af9eaec79c875dfccd3424063cb94b91873ba031e0000000017160014f9785a49d177d5dbb06ed90cab76d27ff307f420fdffffffcc3c54febbb844f981dd936000f2176baf8f777ebfcdfbc7ba7d088f81e79fae0000000017160014f9785a49d177d5dbb06ed90cab76d27ff307f420fdffffffbd6c17de3644035170bed2fec97018ea021b193472acbc9b8f64def7a6b1a4dc0000000017160014f9785a49d177d5dbb06ed90cab76d27ff307f420fdffffff941a483f9344215b75b56914763f4c7f0a44b9d043462b455fa979c41ace9c720000000017160014f9785a49d177d5dbb06ed90cab76d27ff307f420fdffffff9d7af4e34571f3597ce05f3da3ce4c05ce4a282fa6694f25aaada15c63625cf60000000017160014f9785a49d177d5dbb06ed90cab76d27ff307f420fdffffff01220200000000000022512036b2e8355bbbd16528ea6869aa07d2306b1b452eb42766b06afc8dd54baa2e9e0140fe41681835fdf0122585aae9e99f7ae107185eeac29a70abe04902c114443fd06be051c3f90d229f5ca08dbc470935afcae5e854558b48ee8da97a3997859cbf024830450221009b583703e6df1012d9f3697649ec5e2a5db88e2ee06de37579f56799ffef55d10220243de5b1d3a2b1498ad4085136f73b052f524762a5d5ea0fa0a89b77d37b82a101210203d9e9e89364c68ede3ca06e6ee134f5f1c85b04fbfe745436e17e22b1fffd0a0247304402207988414663c6c56662cce27f1cdc028f5674226ba737d7c7cac406a1d6c0d5d3022052560da4b627e8fda16228ab9109601753d3fe5ef6fe990f2fa8520fe79cf64101210203d9e9e89364c68ede3ca06e6ee134f5f1c85b04fbfe745436e17e22b1fffd0a02483045022100d1ab77cdf8c8e460d6a8f6fde8bba36eb35d9cf8859784f879edd6fe2b344f4e0220158f456f1bce7e732c04bd00d052e50638d31c7b9133dd0093b3587762ba7fbd01210203d9e9e89364c68ede3ca06e6ee134f5f1c85b04fbfe745436e17e22b1fffd0a02483045022100cb2f623988ade4eb8ceab3ad65c81153214c82f49a027a4f49df1d7f6f60b6ef02203983b958c674c6dd6779dfc74eae46a6202fd4cceee491e94fbe9d09a4d4a68a01210203d9e9e89364c68ede3ca06e6ee134f5f1c85b04fbfe745436e17e22b1fffd0a024730440220457f9daf54c3155b2c212cd41fa949734c4e3cb8b10eaf3a4238a7ec37b932cb0220116ddd2c587ecec277955372d688990435aedf4d20174461afddeff49576d15c01210203d9e9e89364c68ede3ca06e6ee134f5f1c85b04fbfe745436e17e22b1fffd0a02483045022100e3c98fed0dbf0b5cddb98c1847f9ae24ba8641e4b1230fe3186dd90960705a000220296bbcd6964363e8823c6a369e70c5e23c8938d20c554c77de825c9cc48e6fdd01210203d9e9e89364c68ede3ca06e6ee134f5f1c85b04fbfe745436e17e22b1fffd0a00000000"
}