{
  "txid": "1197360c30877fe7eac48939bf12b7df8d5a4b2a630c335b498ba6f5881909eb",
  "version": 2,
  "locktime": 0,
  "vin": [
    {
      "txid": "0451ab2ae7088c995e30b72b2e459339a6e6fe452a5fc29d2a6c1878e76048b0",
      "vout": 5,
      "prevout": {
        "scriptpubkey": "5120566738e92325ede0f0022d3d7d97e99a786431e4f062f2dc08112221c73d983d",
        "scriptpubkey_asm": "OP_PUSHNUM_1 OP_PUSHBYTES_32 566738e92325ede0f0022d3d7d97e99a786431e4f062f2dc08112221c73d983d",
        "scriptpubkey_type": "v1_p2tr",
        "scriptpubkey_address": "bc1p2enn36fryhk7puqz957hm9lfnfuxgv0y7p309hqgzy3zr3eanq7s67smjr",
        "value": 86019
      },
      "scriptsig": "",
      "scriptsig_asm": "",
      "witness": [
        "090d884a8f0610373d5fc2557940a5e9893d675c11d9a2f3a572f0af441ffe3bf776f14ed14523690a9557ee788f4466effe908f45d86cc48a302760636b5073"
      ],
      "is_coinbase": false,
      "sequence": 4294967293
    }
  ],
  "vout": [
    {
      "scriptpubkey": "51201e9b80148c13946544f05ac87d11c85844f362ce913e9c9ea18cf45d73ca3592",
      "scriptpubkey_asm": "OP_PUSHNUM_1 OP_PUSHBYTES_32 1e9b80148c13946544f05ac87d11c85844f362ce913e9c9ea18cf45d73ca3592",
      "scriptpubkey_type": "v1_p2tr",
      "scriptpubkey_address": "bc1pr6dcq9yvzw2x238stty86ywgtpz0xckwjylfe84p3n696u72xkfq5tafg3",
      "value": 2826
    },
    {
      "scriptpubkey": "5120566738e92325ede0f0022d3d7d97e99a786431e4f062f2dc08112221c73d983d",
      "scriptpubkey_asm": "OP_PUSHNUM_1 OP_PUSHBYTES_32 566738e92325ede0f0022d3d7d97e99a786431e4f062f2dc08112221c73d983d",
      "scriptpubkey_type": "v1_p2tr",
      "scriptpubkey_address": "bc1p2enn36fryhk7puqz957hm9lfnfuxgv0y7p309hqgzy3zr3eanq7s67smjr",
      "value": 80883
    }
  ],
  "size": 205,
  "weight": 616,
  "fee": 2310,
  "status": {
    "confirmed": true,
    "block_height": 834638,
    "block_hash": "000000000000000000025f742c626208ac87e0b7d15054abb4a19ca2d735a54e",
    "block_time": 1710405325
  },
  "hex": "02000000000101b04860e778186c2a9dc25f2a45fee6a63993452e2bb7305e998c08e72aab51040500000000fdffffff020a0b0000000000002251201e9b80148c13946544f05ac87d11c85844f362ce913e9c9ea18cf45d73ca3592f33b010000000000225120566738e92325ede0f0022d3d7d97e99a786431e4f062f2dc08112221c73d983d0140090d884a8f0610373d5fc2557940a5e9893d675c11d9a2f3a572f0af441ffe3bf776f14ed14523690a9557ee788f4466effe908f45d86cc48a302760636b507300000000"
}