{
  "txid": "11af62a102b611ecb44523dda00d88333c60a82dad37d1b788dce1bb37796109",
  "version": 1,
  "locktime": 0,
  "vin": [
    {
      "txid": "04366ade2b4ee79d1ffedf798af0809d0377bd5595c5c4847f04942408e7b5e8",
      "vout": 0,
      "prevout": {
        "scriptpubkey": "0014dc6bf86354105de2fcd9868a2b0376d6731cb92f",
        "scriptpubkey_asm": "OP_0 OP_PUSHBYTES_20 dc6bf86354105de2fcd9868a2b0376d6731cb92f",
        "scriptpubkey_type": "v0_p2wpkh",
        "scriptpubkey_address": "bc1qm34lsc65zpw79lxes69zkqmk6ee3ewf0j77s3h",
        "value": 11481979877
      },
      "scriptsig": "",
      "scriptsig_asm": "",
      "witness": [
        "3044022026c877dc469b23fbbfb87278cb47ff786ff9ad9a2781c865d0c2ac43fdab4b2c022077402f3c6734d9c03379f5b17831fc983c9abf9590399ad443bb3104da250a6a01",
        "02174ee672429ff94304321cdae1fc1e487edf658b34bd1d36da03761658a2bb09"
      ],
      "is_coinbase": false,
      "sequence": 4294967295
    }
  ],
  "vout": [
    {
      "scriptpubkey": "00142be6f8a7a10fa87c02baf0f96a939ff99ae34341",
      "scriptpubkey_asm": "OP_0 OP_PUSHBYTES_20 2be6f8a7a10fa87c02baf0f96a939ff99ae34341",
      "scriptpubkey_type": "v0_p2wpkh",
      "scriptpubkey_address": "bc1q90n03fapp758cq467ruk4yullxdwxs6phlj0v5",
      "value": 107260000
    },
    {
      "scriptpubkey": "0014dc6bf86354105de2fcd9868a2b0376d6731cb92f",
      "scriptpubkey_asm": "OP_0 OP_PUSHBYTES_20 dc6bf86354105de2fcd9868a2b0376d6731cb92f",
      "scriptpubkey_type": "v0_p2wpkh",
      "scriptpubkey_address": "bc1qm34lsc65zpw79lxes69zkqmk6ee3ewf0j77s3h",
      "value": 211898079
    },
    {
      "scriptpubkey": "0014ef180e67e00d193832fb6a4dd0f334421099801f",
      "scriptpubkey_asm": "OP_0 OP_PUSHBYTES_20 ef180e67e00d193832fb6a4dd0f334421099801f",
      "scriptpubkey_type": "v0_p2wpkh",
      "scriptpubkey_address": "bc1qauvquelqp5vnsvhmdfxapue5gggfnqqllvyp7y",
      "value": 80000
    },
    {
      "scriptpubkey": "5120859ed69063e4ad575422b090d8289f130482b446e8a26f6c29b87772fe9be1e9",
      "scriptpubkey_asm": "OP_PUSHNUM_1 OP_PUSHBYTES_32 859ed69063e4ad575422b090d8289f130482b446e8a26f6c29b87772fe9be1e9",
      "scriptpubkey_type": "v1_p2tr",
      "scriptpubkey_address": "bc1psk0ddyrrujk4w4pzkzgds2ylzvzg9dzxaz3x7mpfhpmh9l5mu85srpj6yd",
      "value": 148831
    },
    {
      "scriptpubkey": "a91488bf281ac5f150953524b12ec60b8a6ad94435ca87",
      "scriptpubkey_asm": "OP_HASH160 OP_PUSHBYTES_20 88bf281ac5f150953524b12ec60b8a6ad94435ca OP_EQUAL",
      "scriptpubkey_type": "p2sh",
      "scriptpubkey_address": "3EA4pRuMA4wJ4asA3WebKSDwXv8MaVYg2u",
      "value": 120163
    },
    {
      "scriptpubkey": "0014b28a144550d84183772ffdda97867f00c456e268",
      "scriptpubkey_asm": "OP_0 OP_PUSHBYTES_20 b28a144550d84183772ffdda97867f00c456e268",
      "scriptpubkey_type": "v0_p2wpkh",
      "scriptpubkey_address": "bc1qk29pg32smpqcxae0lhdf0pnlqrz9dcngayrxy9",
      "value": 1326987
    },
    {
      "scriptpubkey": "a914b882226f153663b73ebc7fccba9c3f6acb65e78387",
      "scriptpubkey_asm": "OP_HASH160 OP_PUSHBYTES_20 b882226f153663b73ebc7fccba9c3f6acb65e783 OP_EQUAL",
      "scriptpubkey_type": "p2sh",
      "scriptpubkey_address": "3JWc9k9F9wPca7tJA1dPpeyW9hUkBFwCWd",
      "value": 3191414
    },
    {
      "scriptpubkey": "512063a912de721f0832bc6b07d43bf940d3a5df20a8e904421dbef7b1bb40801a51",
      "scriptpubkey_asm": "OP_PUSHNUM_1 OP_PUSHBYTES_32 63a912de721f0832bc6b07d43bf940d3a5df20a8e904421dbef7b1bb40801a51",
      "scriptpubkey_type": "v1_p2tr",
      "scriptpubkey_address": "bc1pvw539hnjruyr90rtql2rh72q6wja7g9gayzyy8d777cmksyqrfgsfrpwah",
      "value": 14228117
    },
    {
      "scriptpubkey": "0014376d195466183d010da781278e1491ec9b874dd0",
      "scriptpubkey_asm": "OP_0 OP_PUSHBYTES_20 376d195466183d010da781278e1491ec9b874dd0",
      "scriptpubkey_type": "v0_p2wpkh",
      "scriptpubkey_address": "bc1qxak3j4rxrq7szrd8syncu9y3ajdcwnws5t9ks8",
      "value": 470000
    },
    {
      "scriptpubkey": "a914b22a658f956f59f91777f51f147525129ff480ac87",
      "scriptpubkey_asm": "OP_HASH160 OP_PUSHBYTES_20 b22a658f956f59f91777f51f147525129ff480ac OP_EQUAL",
      "scriptpubkey_type": "p2sh",
      "scriptpubkey_address": "3Hw4zTx5vimzDBCGtLh5B5CXvfLy38KFUR",
      "value": 1114190
    },
    {
      "scriptpubkey": "00144d9c604372a7cfeee7326c0a4b9db00879c353fe",
      "scriptpubkey_asm": "OP_0 OP_PUSHBYTES_20 4d9c604372a7cfeee7326c0a4b9db00879c353fe",
      "scriptpubkey_type": "v0_p2wpkh",
      "scriptpubkey_address": "bc1qfkwxqsmj5l87aeejds9yh8dsppuux5l784r880",
      "value": 180254
    },
    {
      "scriptpubkey": "00149177c94cab67b5d6863021b62cb26a9d916c9a9e",
      "scriptpubkey_asm": "OP_0 OP_PUSHBYTES_20 9177c94cab67b5d6863021b62cb26a9d916c9a9e",
      "scriptpubkey_type": "v0_p2wpkh",
      "scriptpubkey_address": "bc1qj9mujn9tv76adp3syxmzevn2nkgkex57336600",
      "value": 757500
    },
    {
      "scriptpubkey": "0020f7f30b915c034a8e20e22be26464e93367b92f442124caf301f78029c7d1f356",
      "scriptpubkey_asm": "OP_0 OP_PUSHBYTES_32 f7f30b915c034a8e20e22be26464e93367b92f442124caf301f78029c7d1f356",
      "scriptpubkey_type": "v0_p2wsh",
      "scriptpubkey_address": "bc1q7leshy2uqd9gug8z903xge8fxdnmjt6yyyjv4ucp77qzn3737dtqpqele6",
      "value": 182616
    },
    {
      "scriptpubkey": "76a9146a187415994971d064cf7e041401f3f96a1151f688ac",
      "scriptpubkey_asm": "OP_DUP OP_HASH160 OP_PUSHBYTES_20 6a187415994971d064cf7e041401f3f96a1151f6 OP_EQUALVERIFY OP_CHECKSIG",
      "scriptpubkey_type": "p2pkh",
      "scriptpubkey_address": "1AfyvPcQPyHKhezogLva33CuTHVbTxDHBP",
      "value": 70609
    },
    {
      "scriptpubkey": "a914b3a73427fdf33ff740ca1c20306b83b89e4cda0e87",
      "scriptpubkey_asm": "OP_HASH160 OP_PUSHBYTES_20 b3a73427fdf33ff740ca1c20306b83b89e4cda0e OP_EQUAL",
      "scriptpubkey_type": "p2sh",
      "scriptpubkey_address": "3J4wBQBqrgkg7sdNmqWmAxnPFZj8KiRYbJ",
      "value": 926053
    },
    {
      "scriptpubkey": "00146cab7e7b85632243f8b0c6546d76728e84efdfdd",
      "scriptpubkey_asm": "OP_0 OP_PUSHBYTES_20 6cab7e7b85632243f8b0c6546d76728e84efdfdd",
      "scriptpubkey_type": "v0_p2wpkh",
      "scriptpubkey_address": "bc1qdj4hu7u9vv3y879sce2x6anj36zwlh7aq6wgvt",
      "value": 320000
    },
    {
      "scriptpubkey": "a9140c31a5e904d23207fc42e00fe39e1e72b986bb1387",
      "scriptpubkey_asm": "OP_HASH160 OP_PUSHBYTES_20 0c31a5e904d23207fc42e00fe39e1e72b986bb13 OP_EQUAL",
      "scriptpubkey_type": "p2sh",
      "scriptpubkey_address": "32oVWTMmtADwgz7gYKuNg2gSWbxjwrGMCs",
      "value": 500000
    },
    {
      "scriptpubkey": "76a9148d76c9987995a652f41e932d98cf656d9be038d088ac",
      "scriptpubkey_asm": "OP_DUP OP_HASH160 OP_PUSHBYTES_20 8d76c9987995a652f41e932d98cf656d9be038d0 OP_EQUALVERIFY OP_CHECKSIG",
      "scriptpubkey_type": "p2pkh",
      "scriptpubkey_address": "1DtzaYjQpL2YHcb9g34hswQwjDizMRMwWB",
      "value": 154580000
    },
    {
      "scriptpubkey": "0014c66e15832832d594bb5d685bcc997f301c12d542",
      "scriptpubkey_asm": "OP_0 OP_PUSHBYTES_20 c66e15832832d594bb5d685bcc997f301c12d542",
      "scriptpubkey_type": "v0_p2wpkh",
      "scriptpubkey_address": "bc1qcehptqegxt2efw6adpduextlxqwp942zu987d4",
      "value": 3029748
    },
    {
      "scriptpubkey": "a914199a6d5d9e4d032b3da95c1b6192d7cde657ee8087",
      "scriptpubkey_asm": "OP_HASH160 OP_PUSHBYTES_20 199a6d5d9e4d032b3da95c1b6192d7cde657ee80 OP_EQUAL",
      "scriptpubkey_type": "p2sh",
      "scriptpubkey_address": "342Pp8W6DyrzBfFJX2QeD8rijgYbk25NVB",
      "value": 30000000
    },
    {
      "scriptpubkey": "76a914f7b53845b2cd548ed0b639e5f675c655c7999b5288ac",
      "scriptpubkey_asm": "OP_DUP OP_HASH160 OP_PUSHBYTES_20 f7b53845b2cd548ed0b639e5f675c655c7999b52 OP_EQUALVERIFY OP_CHECKSIG",
      "scriptpubkey_type": "p2pkh",
      "scriptpubkey_address": "1PakzkpVmLNRae9VeW8oX8mBPRUp2h34db",
      "value": 535259
    },
    {
      "scriptpubkey": "a9144debffa35ff8f2904b6d491991900f336263bf5487",
      "scriptpubkey_asm": "OP_HASH160 OP_PUSHBYTES_20 4debffa35ff8f2904b6d491991900f336263bf54 OP_EQUAL",
      "scriptpubkey_type": "p2sh",
      "scriptpubkey_address": "38o2fnRWPPjSoEbETfH8zcK7Dow6WaQ55m",
      "value": 1273939
    },
    {
      "scriptpubkey": "a914469e2a04fdcf0efd30ba86751254ef7d6b3622b887",
      "scriptpubkey_asm": "OP_HASH160 OP_PUSHBYTES_20 469e2a04fdcf0efd30ba86751254ef7d6b3622b8 OP_EQUAL",
      "scriptpubkey_type": "p2sh",
      "scriptpubkey_address": "388QhQfn2xFGFZEaLB9fHHuSgrranC2CDm",
      "value": 30000000
    },
    {
      "scriptpubkey": "a9140f4c8d8002a406714bdc3283712ff150f71c825087",
      "scriptpubkey_asm": "OP_HASH160 OP_PUSHBYTES_20 0f4c8d8002a406714bdc3283712ff150f71c8250 OP_EQUAL",
      "scriptpubkey_type": "p2sh",
      "scriptpubkey_address": "335umQ4egqMjDo6wSXYwQZYPntZzMveNTJ",
      "value": 10900000000
    },
    {
      "scriptpubkey": "001472c577c5365abea661ad4e8369059c8b9205436a",
      "scriptpubkey_asm": "OP_0 OP_PUSHBYTES_20 72c577c5365abea661ad4e8369059c8b9205436a",
      "scriptpubkey_type": "v0_p2wpkh",
      "scriptpubkey_address": "bc1qwtzh03fkt2l2vcddf6pkjpvu3wfq2sm2luxcp2",
      "value": 15481483
    },
    {
      "scriptpubkey": "001480e32dcefa81da6ae0db3a1aaf070ca8d5b59e76",
      "scriptpubkey_asm": "OP_0 OP_PUSHBYTES_20 80e32dcefa81da6ae0db3a1aaf070ca8d5b59e76",
      "scriptpubkey_type": "v0_p2wpkh",
      "scriptpubkey_address": "bc1qsr3jmnh6s8dx4cxm8gd27pcv4r2mt8nk9q98sn",
      "value": 252989
    },
    {
      "scriptpubkey": "a91484e6df40e4fb134b5df5d0e14784a20f35330fd887",
      "scriptpubkey_asm": "OP_HASH160 OP_PUSHBYTES_20 84e6df40e4fb134b5df5d0e14784a20f35330fd8 OP_EQUAL",
      "scriptpubkey_type": "p2sh",
      "scriptpubkey_address": "3Dojh91oLjfzneXHZjqKcHUEZuwhoynUgo",
      "value": 4003096
    }
  ],
  "size": 1052,
  "weight": 3881,
  "fee": 48550,
  "status": {
    "confirmed": true,
    "block_height": 834638,
    "block_hash": "000000000000000000025f742c626208ac87e0b7d15054abb4a19ca2d735a54e",
    "block_time": 1710405325
  },
  "hex": "01000000000101e8b5e7082494047f84c4c59555bd77039d80f08a79dffe1f9de74e2bde6a36040000000000ffffffff1b60a86406000000001600142be6f8a7a10fa87c02baf0f96a939ff99ae34341df4ea10c00000000160014dc6bf86354105de2fcd9868a2b0376d6731cb92f8038010000000000160014ef180e67e00d193832fb6a4dd0f334421099801f5f45020000000000225120859ed69063e4ad575422b090d8289f130482b446e8a26f6c29b87772fe9be1e963d501000000000017a91488bf281ac5f150953524b12ec60b8a6ad94435ca878b3f140000000000160014b28a144550d84183772ffdda97867f00c456e26876b230000000000017a914b882226f153663b73ebc7fccba9c3f6acb65e78387951ad9000000000022512063a912de721f0832bc6b07d43bf940d3a5df20a8e904421dbef7b1bb40801a51f02b070000000000160014376d195466183d010da781278e1491ec9b874dd04e0011000000000017a914b22a658f956f59f91777f51f147525129ff480ac871ec00200000000001600144d9c604372a7cfeee7326c0a4b9db00879c353fefc8e0b00000000001600149177c94cab67b5d6863021b62cb26a9d916c9a9e58c9020000000000220020f7f30b915c034a8e20e22be26464e93367b92f442124caf301f78029c7d1f356d1130100000000001976a9146a187415994971d064cf7e041401f3f96a1151f688ac65210e000000000017a914b3a73427fdf33ff740ca1c20306b83b89e4cda0e8700e20400000000001600146cab7e7b85632243f8b0c6546d76728e84efdfdd20a107000000000017a9140c31a5e904d23207fc42e00fe39e1e72b986bb138720b43609000000001976a9148d76c9987995a652f41e932d98cf656d9be038d088acf43a2e0000000000160014c66e15832832d594bb5d685bcc997f301c12d54280c3c9010000000017a914199a6d5d9e4d032b3da95c1b6192d7cde657ee8087db2a0800000000001976a914f7b53845b2cd548ed0b639e5f675c655c7999b5288ac537013000000000017a9144debffa35ff8f2904b6d491991900f336263bf548780c3c9010000000017a914469e2a04fdcf0efd30ba86751254ef7d6b3622b88700cdb0890200000017a9140f4c8d8002a406714bdc3283712ff150f71c8250878b3aec000000000016001472c577c5365abea661ad4e8369059c8b9205436a3ddc03000000000016001480e32dcefa81da6ae0db3a1aaf070ca8d5b59e7618153d000000000017a91484e6df40e4fb134b5df5d0e14784a20f35330fd88702473044022026c877dc469b23fbbfb87278cb47ff786ff9ad9a2781c865d0c2ac43fdab4b2c022077402f3c6734d9c03379f5b17831fc983c9abf9590399ad443bb3104da250a6a012102174ee672429ff94304321cdae1fc1e487edf658b34bd1d36da03761658a2bb0900000000"
}