{
  "txid": "11b26c7d7881bae8dfd0378c0a6144f6a9480f68eca67c9e9c1347a5baef105f",
  "version": 1,
  "locktime": 0,
  "vin": [
    {
      "txid": "c7a1682bdf54913a4d825b4f1b79ae9c3ad0638cb70ed4e60cab88ab39a5de26",
      "vout": 1,
      "prevout": {
        "scriptpubkey": "0014d817581d6c580afe261df66d2e2d5e8b809cd9f9",
        "scriptpubkey_asm": "OP_0 OP_PUSHBYTES_20 d817581d6c580afe261df66d2e2d5e8b809cd9f9",
        "scriptpubkey_type": "v0_p2wpkh",
        "scriptpubkey_address": "bc1qmqt4s8tvtq90ufsa7ekjut273wqfek0eejlcju",
        "value": 44714275
      },
      "scriptsig": "",
      "scriptsig_asm": "",
      "witness": [
        "3044022046b55b16617ad822f31d7ac9364dc4535b26e30b57f1ad8c52160e6b88c4a2f20220307ebe829c68cb2489da9e5dd9420c22828ce555ba3daf1de5fa8413583ce0e001",
        "02138ca2409aeb3038672f000b4c01de5389a2ad95fca50f60579ab61d0a2bd7d4"
      ],
      "is_coinbase": false,
      "sequence": 4294967295
    }
  ],
  "vout": [
    {
      "scriptpubkey": "0014a32080f407842f1729a3baf52737617916b90e78",
      "scriptpubkey_asm": "OP_0 OP_PUSHBYTES_20 a32080f407842f1729a3baf52737617916b90e78",
      "scriptpubkey_type": "v0_p2wpkh",
      "scriptpubkey_address": "bc1q5vsgpaq8ssh3w2drht6jwdmp0yttjrnccj66lq",
      "value": 151900
    },
    {
      "scriptpubkey": "0014d817581d6c580afe261df66d2e2d5e8b809cd9f9",
      "scriptpubkey_asm": "OP_0 OP_PUSHBYTES_20 d817581d6c580afe261df66d2e2d5e8b809cd9f9",
      "scriptpubkey_type": "v0_p2wpkh",
      "scriptpubkey_address": "bc1qmqt4s8tvtq90ufsa7ekjut273wqfek0eejlcju",
      "value": 44560006
    }
  ],
  "size": 222,
  "weight": 561,
  "fee": 2369,
  "status": {
    "confirmed": true,
    "block_height": 834638,
    "block_hash": "000000000000000000025f742c626208ac87e0b7d15054abb4a19ca2d735a54e",
    "block_time": 1710405325
  },
  "hex": "0100000000010126dea539ab88ab0ce6d40eb78c63d03a9cae791b4f5b824d3a9154df2b68a1c70100000000ffffffff025c51020000000000160014a32080f407842f1729a3baf52737617916b90e7886eea70200000000160014d817581d6c580afe261df66d2e2d5e8b809cd9f902473044022046b55b16617ad822f31d7ac9364dc4535b26e30b57f1ad8c52160e6b88c4a2f20220307ebe829c68cb2489da9e5dd9420c22828ce555ba3daf1de5fa8413583ce0e0012102138ca2409aeb3038672f000b4c01de5389a2ad95fca50f60579ab61d0a2bd7d400000000"
}