{
  "txid": "11b201edb1b9a91e017f290b00beb852774b912f9bc8b4a7381ca9ec54ef2b01",
  "version": 2,
  "locktime": 834637,
  "vin": [
    {
      "txid": "1bf98b0eb5135d056bdab0e5829e3a9e8917f8abea27fd8e5c2b4ff1b19b7817",
      "vout": 0,
      "prevout": {
        "scriptpubkey": "76a914d11765717407989fc96231f8128e40b65f2c8cad88ac",
        "scriptpubkey_asm": "OP_DUP OP_HASH160 OP_PUSHBYTES_20 d11765717407989fc96231f8128e40b65f2c8cad OP_EQUALVERIFY OP_CHECKSIG",
        "scriptpubkey_type": "p2pkh",
        "scriptpubkey_address": "1L4aFhDVXnzmHwMDx88oPSHeeEbac5AHBr",
        "value": 312910
      },
      "scriptsig": "4730440220283b008f74c305ba3f247cbb08038ccb00fb4175bac1ee959995a70f0a9f09ad02207444873462b8415a556543d7e1e8b4c9113f9ec936a10fee4c6d53030f0bdd93012103f83c9d8b0f7de0d84e8a25b6bda7bac0975a01d6bd581b2c2cbd1f556a84dad9",
      "scriptsig_asm": "OP_PUSHBYTES_71 30440220283b008f74c305ba3f247cbb08038ccb00fb4175bac1ee959995a70f0a9f09ad02207444873462b8415a556543d7e1e8b4c9113f9ec936a10fee4c6d53030f0bdd9301 OP_PUSHBYTES_33 03f83c9d8b0f7de0d84e8a25b6bda7bac0975a01d6bd581b2c2cbd1f556a84dad9",
      "is_coinbase": false,
      "sequence": 4294967293
    },
    {
      "txid": "1d565473248bcd9bc6fb119632500507bf9c5cb3cf18129651bf119031879162",
      "vout": 0,
      "prevout": {
        "scriptpubkey": "76a914f6fe73942e6f8e2819912e3b93e29c41c7f2248788ac",
        "scriptpubkey_asm": "OP_DUP OP_HASH160 OP_PUSHBYTES_20 f6fe73942e6f8e2819912e3b93e29c41c7f22487 OP_EQUALVERIFY OP_CHECKSIG",
        "scriptpubkey_type": "p2pkh",
        "scriptpubkey_address": "1PWz3nmMByUMpp76LZPp7hovkx7LgzGJUx",
        "value": 251583
      },
      "scriptsig": "47304402204a9e8c9bb75c3382c1ddc315a9b69ef55f19ef8f5853e2818d9068afe5ffe8e402207b988b61ca79aecd2debc2d8da2f1864aaf97f401a09297137f65d35c95bbd190121039b2a4bca12e47d37c6b9926ec11a90d596ef0f5578eaecff2bc970aee71c18a0",
      "scriptsig_asm": "OP_PUSHBYTES_71 304402204a9e8c9bb75c3382c1ddc315a9b69ef55f19ef8f5853e2818d9068afe5ffe8e402207b988b61ca79aecd2debc2d8da2f1864aaf97f401a09297137f65d35c95bbd1901 OP_PUSHBYTES_33 039b2a4bca12e47d37c6b9926ec11a90d596ef0f5578eaecff2bc970aee71c18a0",
      "is_coinbase": false,
      "sequence": 4294967293
    },
    {
      "txid": "6a4507179e57ac830fdd598a48bfdf058837154b505f1bc2e1bb167f65be2fb9",
      "vout": 1,
      "prevout": {
        "scriptpubkey": "76a9146406723503f32089c16ad27f7acd0d15879b811d88ac",
        "scriptpubkey_asm": "OP_DUP OP_HASH160 OP_PUSHBYTES_20 6406723503f32089c16ad27f7acd0d15879b811d OP_EQUALVERIFY OP_CHECKSIG",
        "scriptpubkey_type": "p2pkh",
        "scriptpubkey_address": "1A7tJ4umxSBMfcJ4Cjh9sAeMkPKkSWx4DF",
        "value": 361554
      },
      "scriptsig": "473044022063f7be58f2027eee961d9080a3f8d9dca9634ed7d3bccb433a5e0aa42e2fc69202201451fa2239f272b13ee1cdbc5ace091738c8a153979eb6fbedeff9a66fad144a01210237956280b67aca2a204d186b9ae41a39badf1b570fd5f63b9e8570a638503e8f",
      "scriptsig_asm": "OP_PUSHBYTES_71 3044022063f7be58f2027eee961d9080a3f8d9dca9634ed7d3bccb433a5e0aa42e2fc69202201451fa2239f272b13ee1cdbc5ace091738c8a153979eb6fbedeff9a66fad144a01 OP_PUSHBYTES_33 0237956280b67aca2a204d186b9ae41a39badf1b570fd5f63b9e8570a638503e8f",
      "is_coinbase": false,
      "sequence": 4294967293
    },
    {
      "txid": "f563e5b79bbde3f17ab158f4d976977672de18c37768c2ce5908097412d2334b",
      "vout": 1,
      "prevout": {
        "scriptpubkey": "76a914451d673e43d4f105676ee8c2a25bb473cb208b7688ac",
        "scriptpubkey_asm": "OP_DUP OP_HASH160 OP_PUSHBYTES_20 451d673e43d4f105676ee8c2a25bb473cb208b76 OP_EQUALVERIFY OP_CHECKSIG",
        "scriptpubkey_type": "p2pkh",
        "scriptpubkey_address": "17JSrDMS82E6iwSupC54ERVJYJGp2nvRXQ",
        "value": 283032
      },
      "scriptsig": "473044022026a550ceffd5db5d59f36aad11b3ab8490f6bb9853cf1788cbff530c61ca73d002203eae5bfc4917725c7794dd3d7c051c39e8f25476bedf42e19d61095cec29b79b0121022dead9d8c296e0f86d928aaea2114358dc77fd12f4e8b0201835e9139feb0f9e",
      "scriptsig_asm": "OP_PUSHBYTES_71 3044022026a550ceffd5db5d59f36aad11b3ab8490f6bb9853cf1788cbff530c61ca73d002203eae5bfc4917725c7794dd3d7c051c39e8f25476bedf42e19d61095cec29b79b01 OP_PUSHBYTES_33 022dead9d8c296e0f86d928aaea2114358dc77fd12f4e8b0201835e9139feb0f9e",
      "is_coinbase": false,
      "sequence": 4294967293
    }
  ],
  "vout": [
    {
      "scriptpubkey": "76a914dd6892bcbea5d56471d097923d1a81b773678d1288ac",
      "scriptpubkey_asm": "OP_DUP OP_HASH160 OP_PUSHBYTES_20 dd6892bcbea5d56471d097923d1a81b773678d12 OP_EQUALVERIFY OP_CHECKSIG",
      "scriptpubkey_type": "p2pkh",
      "scriptpubkey_address": "1MBhcGWFxc434JW7qQQXanXAjsSjPQgJLh",
      "value": 1200000
    }
  ],
  "size": 632,
  "weight": 2528,
  "fee": 9079,
  "status": {
    "confirmed": true,
    "block_height": 834638,
    "block_hash": "000000000000000000025f742c626208ac87e0b7d15054abb4a19ca2d735a54e",
    "block_time": 1710405325
  },
  "hex": "020000000417789bb1f14f2b5c8efd27eaabf817899e3a9e82e5b0da6b055d13b50e8bf91b000000006a4730440220283b008f74c305ba3f247cbb08038ccb00fb4175bac1ee959995a70f0a9f09ad02207444873462b8415a556543d7e1e8b4c9113f9ec936a10fee4c6d53030f0bdd93012103f83c9d8b0f7de0d84e8a25b6bda7bac0975a01d6bd581b2c2cbd1f556a84dad9fdffffff629187319011bf51961218cfb35c9cbf070550329611fbc69bcd8b247354561d000000006a47304402204a9e8c9bb75c3382c1ddc315a9b69ef55f19ef8f5853e2818d9068afe5ffe8e402207b988b61ca79aecd2debc2d8da2f1864aaf97f401a09297137f65d35c95bbd190121039b2a4bca12e47d37c6b9926ec11a90d596ef0f5578eaecff2bc970aee71c18a0fdffffffb92fbe657f16bbe1c21b5f504b15378805dfbf488a59dd0f83ac579e1707456a010000006a473044022063f7be58f2027eee961d9080a3f8d9dca9634ed7d3bccb433a5e0aa42e2fc69202201451fa2239f272b13ee1cdbc5ace091738c8a153979eb6fbedeff9a66fad144a01210237956280b67aca2a204d186b9ae41a39badf1b570fd5f63b9e8570a638503e8ffdffffff4b33d21274090859cec26877c318de72769776d9f458b17af1e3bd9bb7e563f5010000006a473044022026a550ceffd5db5d59f36aad11b3ab8490f6bb9853cf1788cbff530c61ca73d002203eae5bfc4917725c7794dd3d7c051c39e8f25476bedf42e19d61095cec29b79b0121022dead9d8c296e0f86d928aaea2114358dc77fd12f4e8b0201835e9139feb0f9efdffffff01804f1200000000001976a914dd6892bcbea5d56471d097923d1a81b773678d1288ac4dbc0c00"
}