{
  "txid": "11cc05625f4645043575deab804056c7a517475eabf6719193d7f4d9000a6f47",
  "version": 2,
  "locktime": 834637,
  "vin": [
    {
      "txid": "d128466ffc4c05b162bb51ba979b747b90c98f9704ebb2832ee773c3ac195e46",
      "vout": 0,
      "prevout": {
        "scriptpubkey": "0014c35cb6f9fdd89c100076d325bc2b0327807adcb6",
        "scriptpubkey_asm": "OP_0 OP_PUSHBYTES_20 c35cb6f9fdd89c100076d325bc2b0327807adcb6",
        "scriptpubkey_type": "v0_p2wpkh",
        "scriptpubkey_address": "bc1qcdwtd70amzwpqqrk6vjmc2cry7q84h9kcryfqv",
        "value": 332465888
      },
      "scriptsig": "",
      "scriptsig_asm": "",
      "witness": [
        "304402201aa4b46ec1cd13adbcabb44a0ce5459b4046a2cb543fcec9ff8cc2c0df1dda8202201777ae897b736d1d265fa97983471c5396cdaa67ffe12c0a31cb6ca36ee8939f01",
        "02f86066ae5a7ec3c1a5161680e615d89fb5e956c636632fb1aa3aa1e1c2530ff5"
      ],
      "is_coinbase": false,
      "sequence": 4294967294
    }
  ],
  "vout": [
    {
      "scriptpubkey": "a914ef66f96f01f2ab296cdd1c4020e04bc04f882eab87",
      "scriptpubkey_asm": "OP_HASH160 OP_PUSHBYTES_20 ef66f96f01f2ab296cdd1c4020e04bc04f882eab OP_EQUAL",
      "scriptpubkey_type": "p2sh",
      "scriptpubkey_address": "3PWrnB5GkUF3JswsKfsUuEi9a4EXtDet5r",
      "value": 21336600
    },
    {
      "scriptpubkey": "0014f447171882371bd9e7f904f7d44b35ac9c9c8db1",
      "scriptpubkey_asm": "OP_0 OP_PUSHBYTES_20 f447171882371bd9e7f904f7d44b35ac9c9c8db1",
      "scriptpubkey_type": "v0_p2wpkh",
      "scriptpubkey_address": "bc1q73r3wxyzxudaneleqnmagje44jwferd3r2h5vv",
      "value": 311125808
    }
  ],
  "size": 223,
  "weight": 565,
  "fee": 3480,
  "status": {
    "confirmed": true,
    "block_height": 834638,
    "block_hash": "000000000000000000025f742c626208ac87e0b7d15054abb4a19ca2d735a54e",
    "block_time": 1710405325
  },
  "hex": "02000000000101465e19acc373e72e83b2eb04978fc9907b749b97ba51bb62b1054cfc6f4628d10000000000feffffff02189245010000000017a914ef66f96f01f2ab296cdd1c4020e04bc04f882eab8730678b1200000000160014f447171882371bd9e7f904f7d44b35ac9c9c8db10247304402201aa4b46ec1cd13adbcabb44a0ce5459b4046a2cb543fcec9ff8cc2c0df1dda8202201777ae897b736d1d265fa97983471c5396cdaa67ffe12c0a31cb6ca36ee8939f012102f86066ae5a7ec3c1a5161680e615d89fb5e956c636632fb1aa3aa1e1c2530ff54dbc0c00"
}