{
  "txid": "11cfc4bf15d550f5f03247e357cc385ffa97dcb411012c1f71cbe871c1d3c7b9",
  "version": 2,
  "locktime": 0,
  "vin": [
    {
      "txid": "b13bb5512a4904c28a6b7957b88edf574e8cb23551fc1dcfe22d6b239df42cf4",
      "vout": 93,
      "prevout": {
        "scriptpubkey": "512027b37154e933fdca7f7b85dc1445e95c576265650b7db407e588b1cd146885d7",
        "scriptpubkey_asm": "OP_PUSHNUM_1 OP_PUSHBYTES_32 27b37154e933fdca7f7b85dc1445e95c576265650b7db407e588b1cd146885d7",
        "scriptpubkey_type": "v1_p2tr",
        "scriptpubkey_address": "bc1py7ehz48fx07u5lmmshwpg30ft3tkyet9pd7mgpl93zcu69rgshts8tulxr",
        "value": 2575
      },
      "scriptsig": "",
      "scriptsig_asm": "",
      "witness": [
        "fd35202342935ceea8e6e230336440515cfa214e2bc1747878d8d59502a0232ee09919f7a29db3b911cbcdc4723a61291471229e659e375e7838620fe525313a",
        "2043625e2e6471363da068bcab3dee4d3626fa6bcb0b7e81168836311432cab851ac0063036f726401010a746578742f706c61696e00367b2270223a226272632d3230222c226f70223a226d696e74222c227469636b223a2261616161222c22616d74223a223130303030227d68",
        "c143625e2e6471363da068bcab3dee4d3626fa6bcb0b7e81168836311432cab851"
      ],
      "is_coinbase": false,
      "sequence": 4261412863
    }
  ],
  "vout": [
    {
      "scriptpubkey": "0014ce0b5aa0dac72397a8aa5a85d90a2cfb46f0f630",
      "scriptpubkey_asm": "OP_0 OP_PUSHBYTES_20 ce0b5aa0dac72397a8aa5a85d90a2cfb46f0f630",
      "scriptpubkey_type": "v0_p2wpkh",
      "scriptpubkey_address": "bc1qec944gx6cu3e0292t2zajz3vldr0pa3sh356d9",
      "value": 546
    }
  ],
  "size": 295,
  "weight": 541,
  "fee": 2029,
  "status": {
    "confirmed": true,
    "block_height": 834464,
    "block_hash": "0000000000000000000177a0869a911a2b65c9bdcd5a8bcb02b68f305bee848e",
    "block_time": 1710308296
  },
  "hex": "02000000000101f42cf49d236b2de2cf1dfc5135b28c4e57df8eb857796b8ac204492a51b53bb15d00000000fffffffd012202000000000000160014ce0b5aa0dac72397a8aa5a85d90a2cfb46f0f6300340fd35202342935ceea8e6e230336440515cfa214e2bc1747878d8d59502a0232ee09919f7a29db3b911cbcdc4723a61291471229e659e375e7838620fe525313a6e2043625e2e6471363da068bcab3dee4d3626fa6bcb0b7e81168836311432cab851ac0063036f726401010a746578742f706c61696e00367b2270223a226272632d3230222c226f70223a226d696e74222c227469636b223a2261616161222c22616d74223a223130303030227d6821c143625e2e6471363da068bcab3dee4d3626fa6bcb0b7e81168836311432cab85100000000"
}