{
  "txid": "11d2e1f351394e9afd3fd561d758c1e23d65723f66daf08268ba07e794bdb29d",
  "version": 1,
  "locktime": 0,
  "vin": [
    {
      "txid": "3120dd5bd38e164ce7298caa8c69512a100a75257f0f53ec3c4b4caf6fe3b3df",
      "vout": 1,
      "prevout": {
        "scriptpubkey": "00144d231603157eda19aeafc3003919b71d7f92e8f5",
        "scriptpubkey_asm": "OP_0 OP_PUSHBYTES_20 4d231603157eda19aeafc3003919b71d7f92e8f5",
        "scriptpubkey_type": "v0_p2wpkh",
        "scriptpubkey_address": "bc1qf533vqc40mdpnt40cvqrjxdhr4le9684kdtzgg",
        "value": 2246646
      },
      "scriptsig": "",
      "scriptsig_asm": "",
      "witness": [
        "3045022100efc4fe2586a9acb6dd2e61420a86d1ed13c6e13cea940a91d962ba0bcaa9aeac0220247b2f3be0ee093b227d4c0bb85c5cb47908b3ab53cef25e27b2fbb86b65bf7e01",
        "02a51fb5dd237b6734c3e72d229f9870379a1713c9201c8ed280e4a5111478a224"
      ],
      "is_coinbase": false,
      "sequence": 4294967293
    }
  ],
  "vout": [
    {
      "scriptpubkey": "0014071302f7448bb11bd366c2859e0d6b96454f6552",
      "scriptpubkey_asm": "OP_0 OP_PUSHBYTES_20 071302f7448bb11bd366c2859e0d6b96454f6552",
      "scriptpubkey_type": "v0_p2wpkh",
      "scriptpubkey_address": "bc1qqufs9a6y3wc3h5mxc2zeurttjez57e2jjyn0tf",
      "value": 154715
    },
    {
      "scriptpubkey": "0014eb499e80c591a28dcc8d68797b7eca413eeff2f1",
      "scriptpubkey_asm": "OP_0 OP_PUSHBYTES_20 eb499e80c591a28dcc8d68797b7eca413eeff2f1",
      "scriptpubkey_type": "v0_p2wpkh",
      "scriptpubkey_address": "bc1qadyeaqx9jx3gmnyddpuhklk2gylwluh3cfy5pt",
      "value": 2087278
    }
  ],
  "size": 223,
  "weight": 562,
  "fee": 4653,
  "status": {
    "confirmed": true,
    "block_height": 834638,
    "block_hash": "000000000000000000025f742c626208ac87e0b7d15054abb4a19ca2d735a54e",
    "block_time": 1710405325
  },
  "hex": "01000000000101dfb3e36faf4c4b3cec530f7f25750a102a51698caa8c29e74c168ed35bdd20310100000000fdffffff025b5c020000000000160014071302f7448bb11bd366c2859e0d6b96454f65526ed91f0000000000160014eb499e80c591a28dcc8d68797b7eca413eeff2f102483045022100efc4fe2586a9acb6dd2e61420a86d1ed13c6e13cea940a91d962ba0bcaa9aeac0220247b2f3be0ee093b227d4c0bb85c5cb47908b3ab53cef25e27b2fbb86b65bf7e012102a51fb5dd237b6734c3e72d229f9870379a1713c9201c8ed280e4a5111478a22400000000"
}