{
  "txid": "11dab833a0ef6148102c47175aabcd7f9cf9e2753bd3e6e3edca4aeb489278c2",
  "version": 2,
  "locktime": 0,
  "vin": [
    {
      "txid": "71fab9fddb8fe1af3f5b947a40f192d6513f0f1b5bb754ce20653d78d2ad9280",
      "vout": 7,
      "prevout": {
        "scriptpubkey": "a914600c6ed34585d18b4b07f27156a06da5add7f46187",
        "scriptpubkey_asm": "OP_HASH160 OP_PUSHBYTES_20 600c6ed34585d18b4b07f27156a06da5add7f461 OP_EQUAL",
        "scriptpubkey_type": "p2sh",
        "scriptpubkey_address": "3ASsgp8AgppVvxYwnnHAUkFJq6cT2WymGn",
        "value": 1337633763
      },
      "scriptsig": "16001483f6817d5ac90a0816b908c3ad7f10bac57e4b22",
      "scriptsig_asm": "OP_PUSHBYTES_22 001483f6817d5ac90a0816b908c3ad7f10bac57e4b22",
      "witness": [
        "304402203f41fcb5632144356f496904f97eaf0c60288a240cab5684fb59d32022e5806202202aafb383056184064872ed761eb4987a4fd7c83c8aeee12feea48f8ee276fa2901",
        "02eba0f76c7f10c567169a842743004f0a06b117345e04ea505adf85441d4d93d6"
      ],
      "is_coinbase": false,
      "sequence": 4294967295,
      "inner_redeemscript_asm": "OP_0 OP_PUSHBYTES_20 83f6817d5ac90a0816b908c3ad7f10bac57e4b22"
    }
  ],
  "vout": [
    {
      "scriptpubkey": "001449ce04cbadff8dd50ca31b0c9fd142ab6b2c7d6e",
      "scriptpubkey_asm": "OP_0 OP_PUSHBYTES_20 49ce04cbadff8dd50ca31b0c9fd142ab6b2c7d6e",
      "scriptpubkey_type": "v0_p2wpkh",
      "scriptpubkey_address": "bc1qf88qfjadl7xa2r9rrvxfl52z4d4jcltwg8wzsg",
      "value": 67043
    },
    {
      "scriptpubkey": "0014d9d414165cda832452cafda204e476c9080347f7",
      "scriptpubkey_asm": "OP_0 OP_PUSHBYTES_20 d9d414165cda832452cafda204e476c9080347f7",
      "scriptpubkey_type": "v0_p2wpkh",
      "scriptpubkey_address": "bc1qm82pg9jum2pjg5k2lk3qferkeyyqx3lheuntw8",
      "value": 850000
    },
    {
      "scriptpubkey": "0014d294362e62ca74fa3d46ab72718ca2076bf754aa",
      "scriptpubkey_asm": "OP_0 OP_PUSHBYTES_20 d294362e62ca74fa3d46ab72718ca2076bf754aa",
      "scriptpubkey_type": "v0_p2wpkh",
      "scriptpubkey_address": "bc1q622rvtnzef60502x4de8rr9zqa4lw492fmmdt4",
      "value": 270920
    },
    {
      "scriptpubkey": "0014d506aacb87c15cda67aea6d45d4a48c1928e3cd5",
      "scriptpubkey_asm": "OP_0 OP_PUSHBYTES_20 d506aacb87c15cda67aea6d45d4a48c1928e3cd5",
      "scriptpubkey_type": "v0_p2wpkh",
      "scriptpubkey_address": "bc1q65r24ju8c9wd5eaw5m296jjgcxfgu0x4ldsjs2",
      "value": 744909
    },
    {
      "scriptpubkey": "0014cf0baf87c282576bb9124f64e0a3a4dbd288040d",
      "scriptpubkey_asm": "OP_0 OP_PUSHBYTES_20 cf0baf87c282576bb9124f64e0a3a4dbd288040d",
      "scriptpubkey_type": "v0_p2wpkh",
      "scriptpubkey_address": "bc1qeu96lp7zsftkhwgjfajwpgaym0fgspqds2c7qp",
      "value": 73946
    },
    {
      "scriptpubkey": "00141cc43af112d36a182669260a7c79cb78dae49ad9",
      "scriptpubkey_asm": "OP_0 OP_PUSHBYTES_20 1cc43af112d36a182669260a7c79cb78dae49ad9",
      "scriptpubkey_type": "v0_p2wpkh",
      "scriptpubkey_address": "bc1qrnzr4ugj6d4psfnfyc98c7wt0rdwfxkemz8ucq",
      "value": 700000
    },
    {
      "scriptpubkey": "0014bbac91bda8e423ba8b478e3f38eed876a3fe45e6",
      "scriptpubkey_asm": "OP_0 OP_PUSHBYTES_20 bbac91bda8e423ba8b478e3f38eed876a3fe45e6",
      "scriptpubkey_type": "v0_p2wpkh",
      "scriptpubkey_address": "bc1qhwkfr0dgus3m4z683cln3mkcw63lu30xu4whu2",
      "value": 350000
    },
    {
      "scriptpubkey": "0014aac69f9cbd7af369999e0a1fa39a0b5c51528316",
      "scriptpubkey_asm": "OP_0 OP_PUSHBYTES_20 aac69f9cbd7af369999e0a1fa39a0b5c51528316",
      "scriptpubkey_type": "v0_p2wpkh",
      "scriptpubkey_address": "bc1q4trfl89a0teknxv7pg068xstt3g49qcknmadqj",
      "value": 67660
    },
    {
      "scriptpubkey": "00144668f63a2d551f203b4ec10ffb22b9bb398d2bdf",
      "scriptpubkey_asm": "OP_0 OP_PUSHBYTES_20 4668f63a2d551f203b4ec10ffb22b9bb398d2bdf",
      "scriptpubkey_type": "v0_p2wpkh",
      "scriptpubkey_address": "bc1qge50vw3d250jqw6wcy8lkg4ehvuc627lzxf8d9",
      "value": 67286
    },
    {
      "scriptpubkey": "76a9143c573f2cf4410199145c86e12a0254a1845f49d288ac",
      "scriptpubkey_asm": "OP_DUP OP_HASH160 OP_PUSHBYTES_20 3c573f2cf4410199145c86e12a0254a1845f49d2 OP_EQUALVERIFY OP_CHECKSIG",
      "scriptpubkey_type": "p2pkh",
      "scriptpubkey_address": "16W44XJCGUNpFDkZ7sbtvKAGjfzdVJ6mnr",
      "value": 38835
    },
    {
      "scriptpubkey": "00146ac5376e573af3e7ee2b71fa9b01d97f32f036f7",
      "scriptpubkey_asm": "OP_0 OP_PUSHBYTES_20 6ac5376e573af3e7ee2b71fa9b01d97f32f036f7",
      "scriptpubkey_type": "v0_p2wpkh",
      "scriptpubkey_address": "bc1qdtznwmjh8te70m3tw8afkqwe0ue0qdhhlew89r",
      "value": 66969
    },
    {
      "scriptpubkey": "00141dc63134fa2e38b49b883dfb7d9e01f1e9d0f578",
      "scriptpubkey_asm": "OP_0 OP_PUSHBYTES_20 1dc63134fa2e38b49b883dfb7d9e01f1e9d0f578",
      "scriptpubkey_type": "v0_p2wpkh",
      "scriptpubkey_address": "bc1qrhrrzd869cutfxug8hahm8sp785apatcymac8w",
      "value": 204457429
    },
    {
      "scriptpubkey": "0014754e6bcdf6482dea944089a4d06a84c04e79e319",
      "scriptpubkey_asm": "OP_0 OP_PUSHBYTES_20 754e6bcdf6482dea944089a4d06a84c04e79e319",
      "scriptpubkey_type": "v0_p2wpkh",
      "scriptpubkey_address": "bc1qw48xhn0kfqk749zq3xjdq65ycp88nccev0evw0",
      "value": 95000000
    },
    {
      "scriptpubkey": "a914600c6ed34585d18b4b07f27156a06da5add7f46187",
      "scriptpubkey_asm": "OP_HASH160 OP_PUSHBYTES_20 600c6ed34585d18b4b07f27156a06da5add7f461 OP_EQUAL",
      "scriptpubkey_type": "p2sh",
      "scriptpubkey_address": "3ASsgp8AgppVvxYwnnHAUkFJq6cT2WymGn",
      "value": 1034863660
    }
  ],
  "size": 621,
  "weight": 2157,
  "fee": 15106,
  "status": {
    "confirmed": true,
    "block_height": 834638,
    "block_hash": "000000000000000000025f742c626208ac87e0b7d15054abb4a19ca2d735a54e",
    "block_time": 1710405325
  },
  "hex": "020000000001018092add2783d6520ce54b75b1b0f3f51d692f1407a945b3fafe18fdbfdb9fa71070000001716001483f6817d5ac90a0816b908c3ad7f10bac57e4b22ffffffff0ee30501000000000016001449ce04cbadff8dd50ca31b0c9fd142ab6b2c7d6e50f80c0000000000160014d9d414165cda832452cafda204e476c9080347f74822040000000000160014d294362e62ca74fa3d46ab72718ca2076bf754aacd5d0b0000000000160014d506aacb87c15cda67aea6d45d4a48c1928e3cd5da20010000000000160014cf0baf87c282576bb9124f64e0a3a4dbd288040d60ae0a00000000001600141cc43af112d36a182669260a7c79cb78dae49ad93057050000000000160014bbac91bda8e423ba8b478e3f38eed876a3fe45e64c08010000000000160014aac69f9cbd7af369999e0a1fa39a0b5c51528316d6060100000000001600144668f63a2d551f203b4ec10ffb22b9bb398d2bdfb3970000000000001976a9143c573f2cf4410199145c86e12a0254a1845f49d288ac99050100000000001600146ac5376e573af3e7ee2b71fa9b01d97f32f036f7d5c52f0c000000001600141dc63134fa2e38b49b883dfb7d9e01f1e9d0f578c095a90500000000160014754e6bcdf6482dea944089a4d06a84c04e79e3192cc4ae3d0000000017a914600c6ed34585d18b4b07f27156a06da5add7f461870247304402203f41fcb5632144356f496904f97eaf0c60288a240cab5684fb59d32022e5806202202aafb383056184064872ed761eb4987a4fd7c83c8aeee12feea48f8ee276fa29012102eba0f76c7f10c567169a842743004f0a06b117345e04ea505adf85441d4d93d600000000"
}