{
  "txid": "11ddefc7dd60813830087a43d8f9cbf6314c15c97ba7ccbd60f02ca00fe8f8fe",
  "version": 2,
  "locktime": 0,
  "vin": [
    {
      "txid": "bf3c607024ec016b51d121f63790793c2720955d002417159a165f3964f352f9",
      "vout": 0,
      "prevout": {
        "scriptpubkey": "5120f8d11f6c4f49c842097bf1595d43707e5b4a8d87c5fc580b28c09f01549bfd01",
        "scriptpubkey_asm": "OP_PUSHNUM_1 OP_PUSHBYTES_32 f8d11f6c4f49c842097bf1595d43707e5b4a8d87c5fc580b28c09f01549bfd01",
        "scriptpubkey_type": "v1_p2tr",
        "scriptpubkey_address": "bc1plrg37mz0f8yyyztm79v46sms0ed54rv8ch79szegcz0sz4yml5qs3xeeuy",
        "value": 10008
      },
      "scriptsig": "",
      "scriptsig_asm": "",
      "witness": [
        "3e9421015bb68d3f9190f2c4de2cba1b1994b6b3ded25d00c44ff24debf86f1c82c41f3f533d6a06905f184f4ee63684e128279f82c03c3cd637d39510b9de88",
        "20f2d00e1cce0b839d2e197679cac7a15152ec244338032c7767f72c1332d49a65ac0063036f72640101106170706c69636174696f6e2f6a736f6e004c8c7b2270223a2022746170222c20226f70223a2022646d742d6d696e74222c2022656c656d223a2022376132363533346630353764646632356430386131316566323632303336363034646630376462663665303833626632616138663031323864373365393564376930222c20227469636b223a20225361746f736869222c2022626c6b223a20223139227d680063036f726401011e6170706c69636174696f6e2f6a736f6e3b636861727365743d7574662d38004d66017b2270223a22766f7264222c2276223a312c227479223a22696e7363222c22636f6c223a2237316232663732613033623132646230663937303133336461356130656333383962373035653130613663656133633161663063343661326338353661663362222c22696964223a22444d542d5361746f736869204e616b616d6f746f222c227075626c223a2231455337623370636a527a4667796969714c7278484b546e43686535364c4a485937222c226e6f6e6365223a31342c226d696e746572223a22626331707432763536747a6473393670306e68356a797a3232336a7238617a377639747263366e71347064373866773870713537333377716b6d766a716b222c22736967223a22484d4f47457055765654664b565a4f41637471563279714554656762474363416f75495a5231556d4f7a7a574f73705673754c4347774f327879592f5851745a334f78625463636c4f4c734a70317741625767626a45343d227d68",
        "c1f2d00e1cce0b839d2e197679cac7a15152ec244338032c7767f72c1332d49a65675a92934efa5e4869b2432a3e00abfc6819367af43949c2edc693b32d23ac05"
      ],
      "is_coinbase": false,
      "sequence": 4294967293
    }
  ],
  "vout": [
    {
      "scriptpubkey": "51205a994d2c4d817417cef49104a546433f45e61563c6a60a85be3a5c70829e8c5c",
      "scriptpubkey_asm": "OP_PUSHNUM_1 OP_PUSHBYTES_32 5a994d2c4d817417cef49104a546433f45e61563c6a60a85be3a5c70829e8c5c",
      "scriptpubkey_type": "v1_p2tr",
      "scriptpubkey_address": "bc1pt2v56tzds96p0nh5jyz223jr8az7v9trc6nq4pd78fw8pq5733wqkmvjqk",
      "value": 1000
    },
    {
      "scriptpubkey": "a9142b6d949350a95c2d69f112705c68e0913c29600e87",
      "scriptpubkey_asm": "OP_HASH160 OP_PUSHBYTES_20 2b6d949350a95c2d69f112705c68e0913c29600e OP_EQUAL",
      "scriptpubkey_type": "p2sh",
      "scriptpubkey_address": "35eeFa2ZV632d23KqLfLcHKvgyC6DHYycd",
      "value": 2221
    },
    {
      "scriptpubkey": "51200705a5767db892e98125775049b1a13dd9ecdc8aea0df413cabbee683e871012",
      "scriptpubkey_asm": "OP_PUSHNUM_1 OP_PUSHBYTES_32 0705a5767db892e98125775049b1a13dd9ecdc8aea0df413cabbee683e871012",
      "scriptpubkey_type": "v1_p2tr",
      "scriptpubkey_address": "bc1pquz62anahzfwnqf9wagynvdp8hv7ehy2agxlgy72h0hxs058zqfqk8ksyq",
      "value": 2882
    }
  ],
  "size": 911,
  "weight": 1418,
  "fee": 3905,
  "status": {
    "confirmed": true,
    "block_height": 834464,
    "block_hash": "0000000000000000000177a0869a911a2b65c9bdcd5a8bcb02b68f305bee848e",
    "block_time": 1710308296
  },
  "hex": "02000000000101f952f364395f169a151724005d9520273c799037f621d1516b01ec2470603cbf0000000000fdffffff03e8030000000000002251205a994d2c4d817417cef49104a546433f45e61563c6a60a85be3a5c70829e8c5cad0800000000000017a9142b6d949350a95c2d69f112705c68e0913c29600e87420b0000000000002251200705a5767db892e98125775049b1a13dd9ecdc8aea0df413cabbee683e87101203403e9421015bb68d3f9190f2c4de2cba1b1994b6b3ded25d00c44ff24debf86f1c82c41f3f533d6a06905f184f4ee63684e128279f82c03c3cd637d39510b9de88fd5d0220f2d00e1cce0b839d2e197679cac7a15152ec244338032c7767f72c1332d49a65ac0063036f72640101106170706c69636174696f6e2f6a736f6e004c8c7b2270223a2022746170222c20226f70223a2022646d742d6d696e74222c2022656c656d223a2022376132363533346630353764646632356430386131316566323632303336363034646630376462663665303833626632616138663031323864373365393564376930222c20227469636b223a20225361746f736869222c2022626c6b223a20223139227d680063036f726401011e6170706c69636174696f6e2f6a736f6e3b636861727365743d7574662d38004d66017b2270223a22766f7264222c2276223a312c227479223a22696e7363222c22636f6c223a2237316232663732613033623132646230663937303133336461356130656333383962373035653130613663656133633161663063343661326338353661663362222c22696964223a22444d542d5361746f736869204e616b616d6f746f222c227075626c223a2231455337623370636a527a4667796969714c7278484b546e43686535364c4a485937222c226e6f6e6365223a31342c226d696e746572223a22626331707432763536747a6473393670306e68356a797a3232336a7238617a377639747263366e71347064373866773870713537333377716b6d766a716b222c22736967223a22484d4f47457055765654664b565a4f41637471563279714554656762474363416f75495a5231556d4f7a7a574f73705673754c4347774f327879592f5851745a334f78625463636c4f4c734a70317741625767626a45343d227d6841c1f2d00e1cce0b839d2e197679cac7a15152ec244338032c7767f72c1332d49a65675a92934efa5e4869b2432a3e00abfc6819367af43949c2edc693b32d23ac0500000000"
}