{
  "txid": "11efe081ba7a9b427f1385c783783afce90adc901a8d7545628fb19907b8e5e5",
  "version": 1,
  "locktime": 0,
  "vin": [
    {
      "txid": "aaadf7939a0e45a441037996feed04bdb4b0dfd44fad8d9356d47a6fec8aae7a",
      "vout": 93,
      "prevout": {
        "scriptpubkey": "001476a02cf05751aae39b500d7ea8de4ebffe4f84f7",
        "scriptpubkey_asm": "OP_0 OP_PUSHBYTES_20 76a02cf05751aae39b500d7ea8de4ebffe4f84f7",
        "scriptpubkey_type": "v0_p2wpkh",
        "scriptpubkey_address": "bc1qw6szeuzh2x4w8x6sp4l23hjwhllylp8h2qj0uj",
        "value": 393902
      },
      "scriptsig": "",
      "scriptsig_asm": "",
      "witness": [
        "3044022051da30683119f5ff4b44a65c502d62b96c2e66e45132514c2be43f92c5804130022061b72b497c7198c5e45dbb66b651ecfe9594cd7409a0872f1f8c1d20661f7d2f01",
        "03967ff7a112ce8ea31287fad6bb23c04b809e292cde41c28bc5f12f21ddf9e22f"
      ],
      "is_coinbase": false,
      "sequence": 4294967295
    },
    {
      "txid": "09ff2699d4b49258df2ff7660e7a16de17d815a26e31c9f8e672bb59de61cb07",
      "vout": 1,
      "prevout": {
        "scriptpubkey": "0014c4216c7c4e73f7462593074e80b0550818ad6943",
        "scriptpubkey_asm": "OP_0 OP_PUSHBYTES_20 c4216c7c4e73f7462593074e80b0550818ad6943",
        "scriptpubkey_type": "v0_p2wpkh",
        "scriptpubkey_address": "bc1qcsskclzww0m5vfvnqa8gpvz4pqv2662rg6yk6u",
        "value": 493454
      },
      "scriptsig": "",
      "scriptsig_asm": "",
      "witness": [
        "304402200f729d181b8c4c836ecaac6c693a62a43e1806220c4375e0b71c4af3ca91c6f6022025714c9d3c2a6b099c4acfa1fcf06dba6c2e8b5c7b56bfa000cdb3b49843fb6501",
        "02bbf9bcaabf83c8b268ce4ede2ac751aba95894f11a5eea4b3dd8539f11d09dbb"
      ],
      "is_coinbase": false,
      "sequence": 4294967295
    }
  ],
  "vout": [
    {
      "scriptpubkey": "76a91410e3137617753f0e0e35bbde25453bf7f9f6e8fb88ac",
      "scriptpubkey_asm": "OP_DUP OP_HASH160 OP_PUSHBYTES_20 10e3137617753f0e0e35bbde25453bf7f9f6e8fb OP_EQUALVERIFY OP_CHECKSIG",
      "scriptpubkey_type": "p2pkh",
      "scriptpubkey_address": "12YHqb6NJcnou5moW7rEqWx8VoMKvfaqae",
      "value": 408600
    },
    {
      "scriptpubkey": "00143df7264c2a2936d3f1a71a6b0f28da59f3406133",
      "scriptpubkey_asm": "OP_0 OP_PUSHBYTES_20 3df7264c2a2936d3f1a71a6b0f28da59f3406133",
      "scriptpubkey_type": "v0_p2wpkh",
      "scriptpubkey_address": "bc1q8hmjvnp29ymd8ud8rf4s72x6t8e5qcfn2606fk",
      "value": 473282
    }
  ],
  "size": 373,
  "weight": 844,
  "fee": 5474,
  "status": {
    "confirmed": true,
    "block_height": 834638,
    "block_hash": "000000000000000000025f742c626208ac87e0b7d15054abb4a19ca2d735a54e",
    "block_time": 1710405325
  },
  "hex": "010000000001027aae8aec6f7ad456938dad4fd4dfb0b4bd04edfe96790341a4450e9a93f7adaa5d00000000ffffffff07cb61de59bb72e6f8c9316ea215d817de167a0e66f72fdf5892b4d49926ff090100000000ffffffff02183c0600000000001976a91410e3137617753f0e0e35bbde25453bf7f9f6e8fb88acc2380700000000001600143df7264c2a2936d3f1a71a6b0f28da59f340613302473044022051da30683119f5ff4b44a65c502d62b96c2e66e45132514c2be43f92c5804130022061b72b497c7198c5e45dbb66b651ecfe9594cd7409a0872f1f8c1d20661f7d2f012103967ff7a112ce8ea31287fad6bb23c04b809e292cde41c28bc5f12f21ddf9e22f0247304402200f729d181b8c4c836ecaac6c693a62a43e1806220c4375e0b71c4af3ca91c6f6022025714c9d3c2a6b099c4acfa1fcf06dba6c2e8b5c7b56bfa000cdb3b49843fb65012102bbf9bcaabf83c8b268ce4ede2ac751aba95894f11a5eea4b3dd8539f11d09dbb00000000"
}