{
  "txid": "11fccddd29f350549340ec788eb6fd5319d393e8e4c37d009838dcc32f6fb1ff",
  "version": 2,
  "locktime": 834637,
  "vin": [
    {
      "txid": "57016de4980774883c504f40669c55d9b74a022fbcde67ca071817162951fb1c",
      "vout": 43,
      "prevout": {
        "scriptpubkey": "00140745085f5b0fd7fa1c02b732817abb3ef2d044d0",
        "scriptpubkey_asm": "OP_0 OP_PUSHBYTES_20 0745085f5b0fd7fa1c02b732817abb3ef2d044d0",
        "scriptpubkey_type": "v0_p2wpkh",
        "scriptpubkey_address": "bc1qqazssh6mpltl58qzkuegz74m8medq3xsn7skxy",
        "value": 327293
      },
      "scriptsig": "",
      "scriptsig_asm": "",
      "witness": [
        "304402200ae613cc4773abfdd99dd8d5ab53af7e47633d5d498eda2df9c0fc5a2d4b620702204a12f0e5449c1357351710a45aff49ae6a9df03b4fe91c7845b13134349843a201",
        "0342a16fdfc73b31abb1f122c38851874f14223c2ed83558f72fbdc69fae50c508"
      ],
      "is_coinbase": false,
      "sequence": 4294967294
    },
    {
      "txid": "c6dc88e106d0fe322c428d7499740f53d733742d3abeae6ca9227971fa30c737",
      "vout": 9,
      "prevout": {
        "scriptpubkey": "0014f124017f12817199ff5f3bfa2ac259f8fb6232fc",
        "scriptpubkey_asm": "OP_0 OP_PUSHBYTES_20 f124017f12817199ff5f3bfa2ac259f8fb6232fc",
        "scriptpubkey_type": "v0_p2wpkh",
        "scriptpubkey_address": "bc1q7yjqzlcjs9cenl6l80az4sjelrakyvhuhr34j8",
        "value": 101045
      },
      "scriptsig": "",
      "scriptsig_asm": "",
      "witness": [
        "304402204a869287869d6deb9d56e9cc5d7bdea8d9de5bdba83a03bf14a8d0120dc3b20f02204371e53a9c23ce1fae8907b57ec44ece92901668da19a4567904ce8b6385e08301",
        "021943fde85775798730e1540b065b55b22c2384f5afa6a946411caa2a6cc4dc17"
      ],
      "is_coinbase": false,
      "sequence": 4294967294
    },
    {
      "txid": "ea750e1800450607c77639164662ad92b64045d0b7b6493a58ca1eec4321cda5",
      "vout": 28,
      "prevout": {
        "scriptpubkey": "0014c9ad90b88818202ece542543c937eab67f137f0b",
        "scriptpubkey_asm": "OP_0 OP_PUSHBYTES_20 c9ad90b88818202ece542543c937eab67f137f0b",
        "scriptpubkey_type": "v0_p2wpkh",
        "scriptpubkey_address": "bc1qexkepwygrqszanj5y4pujdl2kel3xlct4sdlf7",
        "value": 127255
      },
      "scriptsig": "",
      "scriptsig_asm": "",
      "witness": [
        "304402202f10581d067cdb662229288d4e149dd93714318309c14acf9fdd59899b87761902200d70a681554bb4412f52a3bfcca63cd1158003f08bc1d9ce37f334bd090eba9701",
        "027c7103dc95fa61e543207b8796009d4968691160a4101e567e84cb19907cbef4"
      ],
      "is_coinbase": false,
      "sequence": 4294967294
    },
    {
      "txid": "575423337f2df03b622c0453a86427a452c94b08fe21ee0d0fb5abd920c0c5a4",
      "vout": 45,
      "prevout": {
        "scriptpubkey": "00140745085f5b0fd7fa1c02b732817abb3ef2d044d0",
        "scriptpubkey_asm": "OP_0 OP_PUSHBYTES_20 0745085f5b0fd7fa1c02b732817abb3ef2d044d0",
        "scriptpubkey_type": "v0_p2wpkh",
        "scriptpubkey_address": "bc1qqazssh6mpltl58qzkuegz74m8medq3xsn7skxy",
        "value": 333995
      },
      "scriptsig": "",
      "scriptsig_asm": "",
      "witness": [
        "304402205a7b87ef17f5957a53f1846ecfffc00f0e211f7d6ef5951eda67bda3748f8947022010998ffdaad50634fa7a52eee628cfb25bc70df74e0a6f8fc3f973da9eca9c0701",
        "0342a16fdfc73b31abb1f122c38851874f14223c2ed83558f72fbdc69fae50c508"
      ],
      "is_coinbase": false,
      "sequence": 4294967294
    },
    {
      "txid": "590460a562a155f196f497b5af4892b71e75a9ad6bae61832d36cbce7cf51a80",
      "vout": 48,
      "prevout": {
        "scriptpubkey": "00140745085f5b0fd7fa1c02b732817abb3ef2d044d0",
        "scriptpubkey_asm": "OP_0 OP_PUSHBYTES_20 0745085f5b0fd7fa1c02b732817abb3ef2d044d0",
        "scriptpubkey_type": "v0_p2wpkh",
        "scriptpubkey_address": "bc1qqazssh6mpltl58qzkuegz74m8medq3xsn7skxy",
        "value": 127356
      },
      "scriptsig": "",
      "scriptsig_asm": "",
      "witness": [
        "30440220269d01e32af2a3bd9488cf8ec6c7d57eb5160f1bbcf04d5bcc6f14ba5ffbe6f402206d568158c874362740b7192c53c55316d3e4bb838a303b90ee5d294746e93e6001",
        "0342a16fdfc73b31abb1f122c38851874f14223c2ed83558f72fbdc69fae50c508"
      ],
      "is_coinbase": false,
      "sequence": 4294967294
    }
  ],
  "vout": [
    {
      "scriptpubkey": "00143d400a8b1885c542ca303946a2f77ca756958425",
      "scriptpubkey_asm": "OP_0 OP_PUSHBYTES_20 3d400a8b1885c542ca303946a2f77ca756958425",
      "scriptpubkey_type": "v0_p2wpkh",
      "scriptpubkey_address": "bc1q84qq4zccshz59j3s89r29amu5atftpp98s76fj",
      "value": 1000059
    },
    {
      "scriptpubkey": "76a9144ab7266c732466e49286943b56cd4dcf7b24817d88ac",
      "scriptpubkey_asm": "OP_DUP OP_HASH160 OP_PUSHBYTES_20 4ab7266c732466e49286943b56cd4dcf7b24817d OP_EQUALVERIFY OP_CHECKSIG",
      "scriptpubkey_type": "p2pkh",
      "scriptpubkey_address": "17p4QgqvhjK3SrMzd4KZsV6FYD3gr5NpQj",
      "value": 4000
    }
  ],
  "size": 817,
  "weight": 1657,
  "fee": 12885,
  "status": {
    "confirmed": true,
    "block_height": 834638,
    "block_hash": "000000000000000000025f742c626208ac87e0b7d15054abb4a19ca2d735a54e",
    "block_time": 1710405325
  },
  "hex": "020000000001051cfb512916171807ca67debc2f024ab7d9559c66404f503c88740798e46d01572b00000000feffffff37c730fa717922a96caebe3a2d7433d7530f7499748d422c32fed006e188dcc60900000000feffffffa5cd2143ec1eca583a49b6b7d04540b692ad6246163976c707064500180e75ea1c00000000feffffffa4c5c020d9abb50f0dee21fe084bc952a42764a853042c623bf02d7f332354572d00000000feffffff801af57ccecb362d8361ae6bada9751eb79248afb597f496f155a162a56004593000000000feffffff027b420f00000000001600143d400a8b1885c542ca303946a2f77ca756958425a00f0000000000001976a9144ab7266c732466e49286943b56cd4dcf7b24817d88ac0247304402200ae613cc4773abfdd99dd8d5ab53af7e47633d5d498eda2df9c0fc5a2d4b620702204a12f0e5449c1357351710a45aff49ae6a9df03b4fe91c7845b13134349843a201210342a16fdfc73b31abb1f122c38851874f14223c2ed83558f72fbdc69fae50c5080247304402204a869287869d6deb9d56e9cc5d7bdea8d9de5bdba83a03bf14a8d0120dc3b20f02204371e53a9c23ce1fae8907b57ec44ece92901668da19a4567904ce8b6385e0830121021943fde85775798730e1540b065b55b22c2384f5afa6a946411caa2a6cc4dc170247304402202f10581d067cdb662229288d4e149dd93714318309c14acf9fdd59899b87761902200d70a681554bb4412f52a3bfcca63cd1158003f08bc1d9ce37f334bd090eba970121027c7103dc95fa61e543207b8796009d4968691160a4101e567e84cb19907cbef40247304402205a7b87ef17f5957a53f1846ecfffc00f0e211f7d6ef5951eda67bda3748f8947022010998ffdaad50634fa7a52eee628cfb25bc70df74e0a6f8fc3f973da9eca9c0701210342a16fdfc73b31abb1f122c38851874f14223c2ed83558f72fbdc69fae50c508024730440220269d01e32af2a3bd9488cf8ec6c7d57eb5160f1bbcf04d5bcc6f14ba5ffbe6f402206d568158c874362740b7192c53c55316d3e4bb838a303b90ee5d294746e93e6001210342a16fdfc73b31abb1f122c38851874f14223c2ed83558f72fbdc69fae50c5084dbc0c00"
}