{
  "txid": "1205d967cab0569406fb616e8376f2a05c878c24143697a72880a8a4ae80ae72",
  "version": 2,
  "locktime": 0,
  "vin": [
    {
      "txid": "a7a39be437c8b0e607897480061cd2a23e7d491336e015487205c05971258f34",
      "vout": 8,
      "prevout": {
        "scriptpubkey": "0014ccfa0f03e6d9e8628175a3cfda383aa6ec5beb37",
        "scriptpubkey_asm": "OP_0 OP_PUSHBYTES_20 ccfa0f03e6d9e8628175a3cfda383aa6ec5beb37",
        "scriptpubkey_type": "v0_p2wpkh",
        "scriptpubkey_address": "bc1qenaq7qlxm85x9qt4508a5wp65mk9h6ehmxan8j",
        "value": 600
      },
      "scriptsig": "",
      "scriptsig_asm": "",
      "witness": [
        "30440220194b391e7ff58390b82db13d5004cc681b1ee555b45aa4bfed98c550d07d9591022049049b2ff540ab07a76a5badabb25c5055a0707c39d555bf52d76ef27297ca5501",
        "028eee75b2513959b188ea6d5d90c5c94eef42b2196616a2764806cc217354c87d"
      ],
      "is_coinbase": false,
      "sequence": 4294967295
    },
    {
      "txid": "54741594d1a6d78760e79a804c20d119cf73c5b7f2624045e1663e2d713705b6",
      "vout": 1,
      "prevout": {
        "scriptpubkey": "0014ccfa0f03e6d9e8628175a3cfda383aa6ec5beb37",
        "scriptpubkey_asm": "OP_0 OP_PUSHBYTES_20 ccfa0f03e6d9e8628175a3cfda383aa6ec5beb37",
        "scriptpubkey_type": "v0_p2wpkh",
        "scriptpubkey_address": "bc1qenaq7qlxm85x9qt4508a5wp65mk9h6ehmxan8j",
        "value": 7651423
      },
      "scriptsig": "",
      "scriptsig_asm": "",
      "witness": [
        "3044022033db45861973a524e4886a3d0544d6323f04c933a772571c0237e730c94297d502204521b88e676031f6046ac1ea459964ad7d3f62539a12b71d46f5178b9cdbfd9401",
        "028eee75b2513959b188ea6d5d90c5c94eef42b2196616a2764806cc217354c87d"
      ],
      "is_coinbase": false,
      "sequence": 4294967295
    }
  ],
  "vout": [
    {
      "scriptpubkey": "5120caa633fd04ff1c275b360c99e34a866b3b2855b2babe7af8c1946e0a7337d960",
      "scriptpubkey_asm": "OP_PUSHNUM_1 OP_PUSHBYTES_32 caa633fd04ff1c275b360c99e34a866b3b2855b2babe7af8c1946e0a7337d960",
      "scriptpubkey_type": "v1_p2tr",
      "scriptpubkey_address": "bc1pe2nr8lgyluwzwkekpjv7xj5xdvajs4djh2l847xpj3hq5uehm9sq2yh4yv",
      "value": 600
    },
    {
      "scriptpubkey": "0014ccfa0f03e6d9e8628175a3cfda383aa6ec5beb37",
      "scriptpubkey_asm": "OP_0 OP_PUSHBYTES_20 ccfa0f03e6d9e8628175a3cfda383aa6ec5beb37",
      "scriptpubkey_type": "v0_p2wpkh",
      "scriptpubkey_address": "bc1qenaq7qlxm85x9qt4508a5wp65mk9h6ehmxan8j",
      "value": 7648992
    }
  ],
  "size": 382,
  "weight": 880,
  "fee": 2431,
  "status": {
    "confirmed": true,
    "block_height": 834464,
    "block_hash": "0000000000000000000177a0869a911a2b65c9bdcd5a8bcb02b68f305bee848e",
    "block_time": 1710308296
  },
  "hex": "02000000000102348f257159c005724815e03613497d3ea2d21c0680748907e6b0c837e49ba3a70800000000ffffffffb60537712d3e66e1454062f2b7c573cf19d1204c809ae76087d7a6d1941574540100000000ffffffff025802000000000000225120caa633fd04ff1c275b360c99e34a866b3b2855b2babe7af8c1946e0a7337d960e0b6740000000000160014ccfa0f03e6d9e8628175a3cfda383aa6ec5beb37024730440220194b391e7ff58390b82db13d5004cc681b1ee555b45aa4bfed98c550d07d9591022049049b2ff540ab07a76a5badabb25c5055a0707c39d555bf52d76ef27297ca550121028eee75b2513959b188ea6d5d90c5c94eef42b2196616a2764806cc217354c87d02473044022033db45861973a524e4886a3d0544d6323f04c933a772571c0237e730c94297d502204521b88e676031f6046ac1ea459964ad7d3f62539a12b71d46f5178b9cdbfd940121028eee75b2513959b188ea6d5d90c5c94eef42b2196616a2764806cc217354c87d00000000"
}