{
  "txid": "120c5ea29685dc1f59d6fc60d494baab02f5ecd31835f70e9d3fa1acab230cc1",
  "version": 2,
  "locktime": 0,
  "vin": [
    {
      "txid": "00490b2a0721674166e28376d17e24e51c7bd5d884daa1bedf1cdbf44d608b02",
      "vout": 4,
      "prevout": {
        "scriptpubkey": "00148e3aba46fdf92694511263c00341e489fb352e12",
        "scriptpubkey_asm": "OP_0 OP_PUSHBYTES_20 8e3aba46fdf92694511263c00341e489fb352e12",
        "scriptpubkey_type": "v0_p2wpkh",
        "scriptpubkey_address": "bc1q3cat53halynfg5gjv0qqxs0y38an2tsj9slkpm",
        "value": 35725005
      },
      "scriptsig": "",
      "scriptsig_asm": "",
      "witness": [
        "304402202b5cee1d67bd5dd0d5469b4fee96aeb4d9530f40511392b711d7b3a5fa85b0190220179bd317f6440b6356bef2299976024b29f314457e2d226fe2f65e00d7d091e601",
        "031bdb505f3289973a9962cdbcc16b0191b2578b26492afc2d8c66dc0b8782244a"
      ],
      "is_coinbase": false,
      "sequence": 4294967295
    }
  ],
  "vout": [
    {
      "scriptpubkey": "0014eda404fec4634e541d489ce9cbced04853fa0bb4",
      "scriptpubkey_asm": "OP_0 OP_PUSHBYTES_20 eda404fec4634e541d489ce9cbced04853fa0bb4",
      "scriptpubkey_type": "v0_p2wpkh",
      "scriptpubkey_address": "bc1qakjqflkyvd89g82gnn5uhnksfpfl5za5gqevuv",
      "value": 135420
    },
    {
      "scriptpubkey": "a91453bd035b6a7e4a384849bc0dea4aefd848522cd287",
      "scriptpubkey_asm": "OP_HASH160 OP_PUSHBYTES_20 53bd035b6a7e4a384849bc0dea4aefd848522cd2 OP_EQUAL",
      "scriptpubkey_type": "p2sh",
      "scriptpubkey_address": "39KnSKvSv5uvDMSUG8Ju1NmCnD91akdP8r",
      "value": 180634
    },
    {
      "scriptpubkey": "001451a8419c0c29488711bea2994ada278ba82bbc94",
      "scriptpubkey_asm": "OP_0 OP_PUSHBYTES_20 51a8419c0c29488711bea2994ada278ba82bbc94",
      "scriptpubkey_type": "v0_p2wpkh",
      "scriptpubkey_address": "bc1q2x5yr8qv99ygwyd752v54k383w5zh0y5aev7u4",
      "value": 356741
    },
    {
      "scriptpubkey": "001472aea73e804283b308088d61eb88c80aa497e8ff",
      "scriptpubkey_asm": "OP_0 OP_PUSHBYTES_20 72aea73e804283b308088d61eb88c80aa497e8ff",
      "scriptpubkey_type": "v0_p2wpkh",
      "scriptpubkey_address": "bc1qw2h2w05qg2pmxzqg34s7hzxgp2jf068l96jhf6",
      "value": 35048130
    }
  ],
  "size": 285,
  "weight": 813,
  "fee": 4080,
  "status": {
    "confirmed": true,
    "block_height": 834638,
    "block_hash": "000000000000000000025f742c626208ac87e0b7d15054abb4a19ca2d735a54e",
    "block_time": 1710405325
  },
  "hex": "02000000000101028b604df4db1cdfbea1da84d8d57b1ce5247ed17683e266416721072a0b49000400000000ffffffff04fc10020000000000160014eda404fec4634e541d489ce9cbced04853fa0bb49ac102000000000017a91453bd035b6a7e4a384849bc0dea4aefd848522cd287857105000000000016001451a8419c0c29488711bea2994ada278ba82bbc94c2ca16020000000016001472aea73e804283b308088d61eb88c80aa497e8ff0247304402202b5cee1d67bd5dd0d5469b4fee96aeb4d9530f40511392b711d7b3a5fa85b0190220179bd317f6440b6356bef2299976024b29f314457e2d226fe2f65e00d7d091e60121031bdb505f3289973a9962cdbcc16b0191b2578b26492afc2d8c66dc0b8782244a00000000"
}