{
  "txid": "120ebd8c6e16cb08c9752f18ac011b7ca71f571d2fb1624712653a7f633a5cc6",
  "version": 2,
  "locktime": 0,
  "vin": [
    {
      "txid": "3f4e7dc28deed494eef7a32e1ec6e00b28f551d23bd32dca920ca5b18bb103e8",
      "vout": 2,
      "prevout": {
        "scriptpubkey": "51202cb2afeebf835200da8a22db9e5eb9bfbd1f3d44c45af8668dd9bb76cb129fd3",
        "scriptpubkey_asm": "OP_PUSHNUM_1 OP_PUSHBYTES_32 2cb2afeebf835200da8a22db9e5eb9bfbd1f3d44c45af8668dd9bb76cb129fd3",
        "scriptpubkey_type": "v1_p2tr",
        "scriptpubkey_address": "bc1p9je2lm4lsdfqpk52ytdeuh4eh773702yc3d0se5dmxahdjcjnlfsnv0cth",
        "value": 900414
      },
      "scriptsig": "",
      "scriptsig_asm": "",
      "witness": [
        "b69e5f293433e0d3d2074f76ea0b55005c5f03fd7c1641ebb3585c7b9b505d67859bd3e1d5fd2877f689e3e5ee5f0321e112738e382d775f43adc344648470b6"
      ],
      "is_coinbase": false,
      "sequence": 4294967295
    },
    {
      "txid": "2513b359e759810e0e8c841644e84805860c3e71e8721c41b0d11f76665bafa9",
      "vout": 2,
      "prevout": {
        "scriptpubkey": "51202cb2afeebf835200da8a22db9e5eb9bfbd1f3d44c45af8668dd9bb76cb129fd3",
        "scriptpubkey_asm": "OP_PUSHNUM_1 OP_PUSHBYTES_32 2cb2afeebf835200da8a22db9e5eb9bfbd1f3d44c45af8668dd9bb76cb129fd3",
        "scriptpubkey_type": "v1_p2tr",
        "scriptpubkey_address": "bc1p9je2lm4lsdfqpk52ytdeuh4eh773702yc3d0se5dmxahdjcjnlfsnv0cth",
        "value": 8520
      },
      "scriptsig": "",
      "scriptsig_asm": "",
      "witness": [
        "8ecb6ddfcda8d4a286551d1c1ba9413257651d560c45c85191fdaba3389048699cbed37dde80aed3ee55eb08fd21edaec4c92750624ae7d9446b46b594dd5884"
      ],
      "is_coinbase": false,
      "sequence": 4294967295
    }
  ],
  "vout": [
    {
      "scriptpubkey": "002081c40ca5e80df8238b72e685ab46357827d2472d76722b1306087cb936075524",
      "scriptpubkey_asm": "OP_0 OP_PUSHBYTES_32 81c40ca5e80df8238b72e685ab46357827d2472d76722b1306087cb936075524",
      "scriptpubkey_type": "v0_p2wsh",
      "scriptpubkey_address": "bc1qs8zqef0gphuz8zmju6z6k3340qnay3edweezkycxpp7tjds825jqnj45hg",
      "value": 900000
    },
    {
      "scriptpubkey": "51202cb2afeebf835200da8a22db9e5eb9bfbd1f3d44c45af8668dd9bb76cb129fd3",
      "scriptpubkey_asm": "OP_PUSHNUM_1 OP_PUSHBYTES_32 2cb2afeebf835200da8a22db9e5eb9bfbd1f3d44c45af8668dd9bb76cb129fd3",
      "scriptpubkey_type": "v1_p2tr",
      "scriptpubkey_address": "bc1p9je2lm4lsdfqpk52ytdeuh4eh773702yc3d0se5dmxahdjcjnlfsnv0cth",
      "value": 5127
    }
  ],
  "size": 312,
  "weight": 846,
  "fee": 3807,
  "status": {
    "confirmed": true,
    "block_height": 834638,
    "block_hash": "000000000000000000025f742c626208ac87e0b7d15054abb4a19ca2d735a54e",
    "block_time": 1710405325
  },
  "hex": "02000000000102e803b18bb1a50c92ca2dd33bd251f5280be0c61e2ea3f7ee94d4ee8dc27d4e3f0200000000ffffffffa9af5b66761fd1b0411c72e8713e0c860548e84416848c0e0e8159e759b313250200000000ffffffff02a0bb0d000000000022002081c40ca5e80df8238b72e685ab46357827d2472d76722b1306087cb93607552407140000000000002251202cb2afeebf835200da8a22db9e5eb9bfbd1f3d44c45af8668dd9bb76cb129fd30140b69e5f293433e0d3d2074f76ea0b55005c5f03fd7c1641ebb3585c7b9b505d67859bd3e1d5fd2877f689e3e5ee5f0321e112738e382d775f43adc344648470b601408ecb6ddfcda8d4a286551d1c1ba9413257651d560c45c85191fdaba3389048699cbed37dde80aed3ee55eb08fd21edaec4c92750624ae7d9446b46b594dd588400000000"
}