{
  "txid": "12109dd8de5f06839fbca58904b1113239f9c6b9e735e3c0771b8ef2cead7dbe",
  "version": 2,
  "locktime": 0,
  "vin": [
    {
      "txid": "2e8ec197d28e2e290e77067caad46e6ab6b66e13ce14b06d6885b444573335bf",
      "vout": 2,
      "prevout": {
        "scriptpubkey": "5120f311349bf414df79c9a448ce477961665aedfb9ba15eb3e839bd070a97e5909a",
        "scriptpubkey_asm": "OP_PUSHNUM_1 OP_PUSHBYTES_32 f311349bf414df79c9a448ce477961665aedfb9ba15eb3e839bd070a97e5909a",
        "scriptpubkey_type": "v1_p2tr",
        "scriptpubkey_address": "bc1p7vgnfxl5zn0hnjdyfr8yw7tpvedwm7um590t86peh5rs49l9jzdq8vlfvj",
        "value": 2353
      },
      "scriptsig": "",
      "scriptsig_asm": "",
      "witness": [
        "a393cf8ddc266acc73564f746a7e6f255e8a7db0a2f298fc533f5885a14dd0bfb07ed5d53516c385b30e5fe94b45dce16132edeb8603029ace28e87186cd7348",
        "205ef2a8916719cec7bd2a252ee03f51d4fc5f4b634aaa013f68ec92fb0601d5b4ac0063036f7264010118746578742f706c61696e3b636861727365743d7574662d3800076d73642e62746368",
        "c0fd409ad511758e81df4d2d0a2798ae74e4a32b94ead6fc2e8c8f070bdb6b8097"
      ],
      "is_coinbase": false,
      "sequence": 4294967295
    }
  ],
  "vout": [
    {
      "scriptpubkey": "51206ae861785fbdae9bc6163a8a8ed044e8a921c6b7483a2a8d02c6c44e7f26fcd3",
      "scriptpubkey_asm": "OP_PUSHNUM_1 OP_PUSHBYTES_32 6ae861785fbdae9bc6163a8a8ed044e8a921c6b7483a2a8d02c6c44e7f26fcd3",
      "scriptpubkey_type": "v1_p2tr",
      "scriptpubkey_address": "bc1pdt5xz7zlhkhfh3sk829ga5zyaz5jr34hfqaz4rgzcmzyulexlnfsf3qkja",
      "value": 546
    }
  ],
  "size": 274,
  "weight": 556,
  "fee": 1807,
  "status": {
    "confirmed": true,
    "block_height": 834460,
    "block_hash": "00000000000000000000484a79b643b2524bbce82e5d8a442013fa5b8905ed98",
    "block_time": 1710307468
  },
  "hex": "02000000000101bf35335744b485686db014ce136eb6b66a6ed4aa7c06770e292e8ed297c18e2e0200000000ffffffff0122020000000000002251206ae861785fbdae9bc6163a8a8ed044e8a921c6b7483a2a8d02c6c44e7f26fcd30340a393cf8ddc266acc73564f746a7e6f255e8a7db0a2f298fc533f5885a14dd0bfb07ed5d53516c385b30e5fe94b45dce16132edeb8603029ace28e87186cd73484d205ef2a8916719cec7bd2a252ee03f51d4fc5f4b634aaa013f68ec92fb0601d5b4ac0063036f7264010118746578742f706c61696e3b636861727365743d7574662d3800076d73642e6274636821c0fd409ad511758e81df4d2d0a2798ae74e4a32b94ead6fc2e8c8f070bdb6b809700000000"
}