{
  "txid": "121baa5e5fff412f85f40f46d10e788c14e841a15cf571f721242dee6cffac0a",
  "version": 2,
  "locktime": 0,
  "vin": [
    {
      "txid": "2c9aa592853455bcdcfee40c3c202db633353ab80ef0ef2a22e67283c3ce0235",
      "vout": 4,
      "prevout": {
        "scriptpubkey": "00143a22d1bec633c4056f9159f4ae94ad256114f8c6",
        "scriptpubkey_asm": "OP_0 OP_PUSHBYTES_20 3a22d1bec633c4056f9159f4ae94ad256114f8c6",
        "scriptpubkey_type": "v0_p2wpkh",
        "scriptpubkey_address": "bc1q8g3dr0kxx0zq2mu3t862a99dy4s3f7xx0g37x0",
        "value": 14592726
      },
      "scriptsig": "",
      "scriptsig_asm": "",
      "witness": [
        "30440220617f23e14317d94e94f6cc994b310e8cbf24e0a1aa26ec9fd5a88cecffeca666022024d91000568b44f06b52ed4b677f190e6178965dade7d3fd3eb94a92f0fc48e701",
        "0208bfc8ad6bde1ef286f0731f7840523bdf0efe2c15d9ff6bc7fd055608f924c4"
      ],
      "is_coinbase": false,
      "sequence": 4294967293
    }
  ],
  "vout": [
    {
      "scriptpubkey": "001489f1638872de677cb681f8fd69661ddb40acb805",
      "scriptpubkey_asm": "OP_0 OP_PUSHBYTES_20 89f1638872de677cb681f8fd69661ddb40acb805",
      "scriptpubkey_type": "v0_p2wpkh",
      "scriptpubkey_address": "bc1q38ck8zrjmenhed5plr7kjesamdq2ewq9w58pn0",
      "value": 81795
    },
    {
      "scriptpubkey": "a91456225c76b3732300a9db0897487ef5d6907a5ca887",
      "scriptpubkey_asm": "OP_HASH160 OP_PUSHBYTES_20 56225c76b3732300a9db0897487ef5d6907a5ca8 OP_EQUAL",
      "scriptpubkey_type": "p2sh",
      "scriptpubkey_address": "39YTCVrM6rDVUf253wBbmHF9yx56cAa1Zs",
      "value": 125245
    },
    {
      "scriptpubkey": "76a914c4121bdf730662721fa919b57925c516ea7ab61788ac",
      "scriptpubkey_asm": "OP_DUP OP_HASH160 OP_PUSHBYTES_20 c4121bdf730662721fa919b57925c516ea7ab617 OP_EQUALVERIFY OP_CHECKSIG",
      "scriptpubkey_type": "p2pkh",
      "scriptpubkey_address": "1Jsj8ptcDY6yruhy8aFDXFLjtfLGs4Suo2",
      "value": 24446
    },
    {
      "scriptpubkey": "a914a510a1cd1da64a6c10f7aa2549cbcc9be641542b87",
      "scriptpubkey_asm": "OP_HASH160 OP_PUSHBYTES_20 a510a1cd1da64a6c10f7aa2549cbcc9be641542b OP_EQUAL",
      "scriptpubkey_type": "p2sh",
      "scriptpubkey_address": "3GjoLovkZ72zRsWmcHWaNLnVvNMkZE4nCK",
      "value": 47786
    },
    {
      "scriptpubkey": "0014edb9ec174b16595bc56b7d1dbf16416bdb314daf",
      "scriptpubkey_asm": "OP_0 OP_PUSHBYTES_20 edb9ec174b16595bc56b7d1dbf16416bdb314daf",
      "scriptpubkey_type": "v0_p2wpkh",
      "scriptpubkey_address": "bc1qaku7c96tzev4h3tt05wm79jpd0dnznd059jy6u",
      "value": 268798
    },
    {
      "scriptpubkey": "0014eb2e06d289a22bb903960fa1933aca682cadda29",
      "scriptpubkey_asm": "OP_0 OP_PUSHBYTES_20 eb2e06d289a22bb903960fa1933aca682cadda29",
      "scriptpubkey_type": "v0_p2wpkh",
      "scriptpubkey_address": "bc1qavhqd55f5g4mjqukp7sexwk2dqk2mk3f8nftmy",
      "value": 242575
    },
    {
      "scriptpubkey": "a9146dc0b51e762193d170eadac9ba2a376e8dba6ae587",
      "scriptpubkey_asm": "OP_HASH160 OP_PUSHBYTES_20 6dc0b51e762193d170eadac9ba2a376e8dba6ae5 OP_EQUAL",
      "scriptpubkey_type": "p2sh",
      "scriptpubkey_address": "3BhLS1EW4JEjnF66DQxYaoVeYiq56RvKmr",
      "value": 74717
    },
    {
      "scriptpubkey": "a91475984f63e9ba0684da49a378ecfecfa255ceab5987",
      "scriptpubkey_asm": "OP_HASH160 OP_PUSHBYTES_20 75984f63e9ba0684da49a378ecfecfa255ceab59 OP_EQUAL",
      "scriptpubkey_type": "p2sh",
      "scriptpubkey_address": "3CQoSgRKUozfwmkXXw2TUeE7GcvcKb7ZdQ",
      "value": 49180
    },
    {
      "scriptpubkey": "a914aa22ebb1f86a3a11000443531db72cae0bd9e06687",
      "scriptpubkey_asm": "OP_HASH160 OP_PUSHBYTES_20 aa22ebb1f86a3a11000443531db72cae0bd9e066 OP_EQUAL",
      "scriptpubkey_type": "p2sh",
      "scriptpubkey_address": "3HCcdVBDKc9gKzgDttYMnVX5uB3X17geM2",
      "value": 45426
    },
    {
      "scriptpubkey": "76a914603589cfce26d37a743de453968e6913eed7de5288ac",
      "scriptpubkey_asm": "OP_DUP OP_HASH160 OP_PUSHBYTES_20 603589cfce26d37a743de453968e6913eed7de52 OP_EQUALVERIFY OP_CHECKSIG",
      "scriptpubkey_type": "p2pkh",
      "scriptpubkey_address": "19mi1KncBCxLpqD4VkbrDCnsrnDdbhJGnb",
      "value": 138049
    },
    {
      "scriptpubkey": "00143a22d1bec633c4056f9159f4ae94ad256114f8c6",
      "scriptpubkey_asm": "OP_0 OP_PUSHBYTES_20 3a22d1bec633c4056f9159f4ae94ad256114f8c6",
      "scriptpubkey_type": "v0_p2wpkh",
      "scriptpubkey_address": "bc1q8g3dr0kxx0zq2mu3t862a99dy4s3f7xx0g37x0",
      "value": 13482473
    }
  ],
  "size": 512,
  "weight": 1721,
  "fee": 12236,
  "status": {
    "confirmed": true,
    "block_height": 834638,
    "block_hash": "000000000000000000025f742c626208ac87e0b7d15054abb4a19ca2d735a54e",
    "block_time": 1710405325
  },
  "hex": "020000000001013502cec38372e6222aeff00eb83a3533b62d203c0ce4fedcbc55348592a59a2c0400000000fdffffff0b833f01000000000016001489f1638872de677cb681f8fd69661ddb40acb8053de901000000000017a91456225c76b3732300a9db0897487ef5d6907a5ca8877e5f0000000000001976a914c4121bdf730662721fa919b57925c516ea7ab61788acaaba00000000000017a914a510a1cd1da64a6c10f7aa2549cbcc9be641542b87fe19040000000000160014edb9ec174b16595bc56b7d1dbf16416bdb314daf8fb3030000000000160014eb2e06d289a22bb903960fa1933aca682cadda29dd2301000000000017a9146dc0b51e762193d170eadac9ba2a376e8dba6ae5871cc000000000000017a91475984f63e9ba0684da49a378ecfecfa255ceab598772b100000000000017a914aa22ebb1f86a3a11000443531db72cae0bd9e06687411b0200000000001976a914603589cfce26d37a743de453968e6913eed7de5288ace9b9cd00000000001600143a22d1bec633c4056f9159f4ae94ad256114f8c6024730440220617f23e14317d94e94f6cc994b310e8cbf24e0a1aa26ec9fd5a88cecffeca666022024d91000568b44f06b52ed4b677f190e6178965dade7d3fd3eb94a92f0fc48e701210208bfc8ad6bde1ef286f0731f7840523bdf0efe2c15d9ff6bc7fd055608f924c400000000"
}