{
  "txid": "122b4117d21ef2ae4acf9158e87ff1feb320f04b81934051803d51a885dae2f8",
  "version": 2,
  "locktime": 0,
  "vin": [
    {
      "txid": "acc3ba00869acb582a3f2904ce3a11dd3779350ce234063fc7d0959246213364",
      "vout": 180,
      "prevout": {
        "scriptpubkey": "51207160b401196ea6aa3fd5c9f99e3eeddd2f36fc0a4fae74ee6876725f486c3e3e",
        "scriptpubkey_asm": "OP_PUSHNUM_1 OP_PUSHBYTES_32 7160b401196ea6aa3fd5c9f99e3eeddd2f36fc0a4fae74ee6876725f486c3e3e",
        "scriptpubkey_type": "v1_p2tr",
        "scriptpubkey_address": "bc1pw9stgqged6n25074e8ueu0hdm5hndlq2f7h8fmngwee97jrv8clq4namqv",
        "value": 1806
      },
      "scriptsig": "",
      "scriptsig_asm": "",
      "witness": [
        "27c46915643a6c30abe922a079665df2d1534dc1a3e090a1efb701edf4f0c04d7fe6cb10d2e57d319e82522ef020ad34e575641220e58f97f499bf67b8c2830b",
        "2060cc460d1261265b2995ca487b33a86fcb88f4fa065b58064b967f63d8a4eeafac0063036f726401010a746578742f706c61696e00357b2270223a226272632d3230222c226f70223a226d696e74222c227469636b223a22646f6765222c22616d74223a2234323030227d68",
        "c060cc460d1261265b2995ca487b33a86fcb88f4fa065b58064b967f63d8a4eeaf"
      ],
      "is_coinbase": false,
      "sequence": 4261412863
    }
  ],
  "vout": [
    {
      "scriptpubkey": "00147a665de7a370f4c9b372ab1fae587500a5bcbdb4",
      "scriptpubkey_asm": "OP_0 OP_PUSHBYTES_20 7a665de7a370f4c9b372ab1fae587500a5bcbdb4",
      "scriptpubkey_type": "v0_p2wpkh",
      "scriptpubkey_address": "bc1q0fn9mearwr6vnvmj4v06ukr4qzjme0d565dzcx",
      "value": 294
    }
  ],
  "size": 294,
  "weight": 540,
  "fee": 1512,
  "status": {
    "confirmed": true,
    "block_height": 834460,
    "block_hash": "00000000000000000000484a79b643b2524bbce82e5d8a442013fa5b8905ed98",
    "block_time": 1710307468
  },
  "hex": "02000000000101643321469295d0c73f0634e20c357937dd113ace04293f2a58cb9a8600bac3acb400000000fffffffd0126010000000000001600147a665de7a370f4c9b372ab1fae587500a5bcbdb4034027c46915643a6c30abe922a079665df2d1534dc1a3e090a1efb701edf4f0c04d7fe6cb10d2e57d319e82522ef020ad34e575641220e58f97f499bf67b8c2830b6d2060cc460d1261265b2995ca487b33a86fcb88f4fa065b58064b967f63d8a4eeafac0063036f726401010a746578742f706c61696e00357b2270223a226272632d3230222c226f70223a226d696e74222c227469636b223a22646f6765222c22616d74223a2234323030227d6821c060cc460d1261265b2995ca487b33a86fcb88f4fa065b58064b967f63d8a4eeaf00000000"
}