{
  "txid": "1240380f1f70c9d167679d61ce11a16567b3ed4fc95632ab94d08609fd76537f",
  "version": 1,
  "locktime": 6468,
  "vin": [
    {
      "txid": "8873f9d4a4f9cf5c9c81e2becbc2890ca67e411f66e948346d2653169f19e21c",
      "vout": 1,
      "prevout": {
        "scriptpubkey": "5120a1e3352d215c371d7181ba45cba88085be161f72f0fb432c6eb5c59fa438eb97",
        "scriptpubkey_asm": "OP_PUSHNUM_1 OP_PUSHBYTES_32 a1e3352d215c371d7181ba45cba88085be161f72f0fb432c6eb5c59fa438eb97",
        "scriptpubkey_type": "v1_p2tr",
        "scriptpubkey_address": "bc1p583n2tfptsm36uvphfzuh2yqsklpv8mj7ra5xtrwkhzelfpcawtswnzule",
        "value": 3474
      },
      "scriptsig": "",
      "scriptsig_asm": "",
      "witness": [
        "1921f6ae40f86bda7d1364a731e6ce60b8ea1ce6b357e602edc7da59f0819bd512fdc1e5ca73c7d4ac8d15e23ebbec7ab8d5ba475eb1d9d0d7f6c5a7284fe040"
      ],
      "is_coinbase": false,
      "sequence": 3221225466
    },
    {
      "txid": "8888888d3a702efe12d4f9bd6715349e8421e5f3db1bcab4d75927954d2d455c",
      "vout": 1,
      "prevout": {
        "scriptpubkey": "5120a1e3352d215c371d7181ba45cba88085be161f72f0fb432c6eb5c59fa438eb97",
        "scriptpubkey_asm": "OP_PUSHNUM_1 OP_PUSHBYTES_32 a1e3352d215c371d7181ba45cba88085be161f72f0fb432c6eb5c59fa438eb97",
        "scriptpubkey_type": "v1_p2tr",
        "scriptpubkey_address": "bc1p583n2tfptsm36uvphfzuh2yqsklpv8mj7ra5xtrwkhzelfpcawtswnzule",
        "value": 3354
      },
      "scriptsig": "",
      "scriptsig_asm": "",
      "witness": [
        "3ddcf8b21e9b7b8af77dbc3aad152dcb8b447e0384ca6c698b1c684490ea1dc3006cf776f85b5ef5e6ecc9b12730ce72a8557b266796fa7d131350185c88eb8f"
      ],
      "is_coinbase": false,
      "sequence": 4294967295
    }
  ],
  "vout": [
    {
      "scriptpubkey": "5120fc4c9324abdb4e4dcd2f4b4c49122d53694b6dea385def596b0c97913b451a69",
      "scriptpubkey_asm": "OP_PUSHNUM_1 OP_PUSHBYTES_32 fc4c9324abdb4e4dcd2f4b4c49122d53694b6dea385def596b0c97913b451a69",
      "scriptpubkey_type": "v1_p2tr",
      "scriptpubkey_address": "bc1pl3xfxf9tmd8ymnf0fdxyjy3d2d55km028pw77kttpjtezw69rf5s0rzte9",
      "value": 2889
    },
    {
      "scriptpubkey": "5120a1e3352d215c371d7181ba45cba88085be161f72f0fb432c6eb5c59fa438eb97",
      "scriptpubkey_asm": "OP_PUSHNUM_1 OP_PUSHBYTES_32 a1e3352d215c371d7181ba45cba88085be161f72f0fb432c6eb5c59fa438eb97",
      "scriptpubkey_type": "v1_p2tr",
      "scriptpubkey_address": "bc1p583n2tfptsm36uvphfzuh2yqsklpv8mj7ra5xtrwkhzelfpcawtswnzule",
      "value": 1937
    }
  ],
  "size": 312,
  "weight": 846,
  "fee": 2002,
  "status": {
    "confirmed": true,
    "block_height": 834464,
    "block_hash": "0000000000000000000177a0869a911a2b65c9bdcd5a8bcb02b68f305bee848e",
    "block_time": 1710308296
  },
  "hex": "010000000001021ce2199f1653266d3448e9661f417ea60c89c2cbbee2819c5ccff9a4d4f973880100000000faffffbf5c452d4d952759d7b4ca1bdbf3e521849e341567bdf9d412fe2e703a8d8888880100000000ffffffff02490b000000000000225120fc4c9324abdb4e4dcd2f4b4c49122d53694b6dea385def596b0c97913b451a699107000000000000225120a1e3352d215c371d7181ba45cba88085be161f72f0fb432c6eb5c59fa438eb9701401921f6ae40f86bda7d1364a731e6ce60b8ea1ce6b357e602edc7da59f0819bd512fdc1e5ca73c7d4ac8d15e23ebbec7ab8d5ba475eb1d9d0d7f6c5a7284fe04001403ddcf8b21e9b7b8af77dbc3aad152dcb8b447e0384ca6c698b1c684490ea1dc3006cf776f85b5ef5e6ecc9b12730ce72a8557b266796fa7d131350185c88eb8f44190000"
}