{
  "txid": "12401b089262bdb9f05d136a884a456a75e2601db732c5f79f37520b52e6d02b",
  "version": 1,
  "locktime": 29971,
  "vin": [
    {
      "txid": "3af48ecd9ad26bdae226ec704cc5b8d8dcaf1267699ef48bef6f50ae81cab5e4",
      "vout": 1,
      "prevout": {
        "scriptpubkey": "0014fee280141d858d4048606b1379c35e291248b7f1",
        "scriptpubkey_asm": "OP_0 OP_PUSHBYTES_20 fee280141d858d4048606b1379c35e291248b7f1",
        "scriptpubkey_type": "v0_p2wpkh",
        "scriptpubkey_address": "bc1qlm3gq9qaskx5qjrqdvfhns679yfy3dl3yvarqn",
        "value": 1742
      },
      "scriptsig": "",
      "scriptsig_asm": "",
      "witness": [
        "30440220432b12f7cc8c9a2978992517e0238355dbfd22b663228511b04698c585d1d89c02202038e28d733edeb7d50e780a58c3fd34d9ceacd464338b1734db0cfc0c18752901",
        "02a8f5949f0c3ca311ba263f8db5ef6fd6af6b35d95422d681fd7c937f23ba5ece"
      ],
      "is_coinbase": false,
      "sequence": 0
    },
    {
      "txid": "5ba779d62934c44bde7b91b289f2b19866ef7f60820f1e478d1f57ccc0efdfaf",
      "vout": 1,
      "prevout": {
        "scriptpubkey": "0014fee280141d858d4048606b1379c35e291248b7f1",
        "scriptpubkey_asm": "OP_0 OP_PUSHBYTES_20 fee280141d858d4048606b1379c35e291248b7f1",
        "scriptpubkey_type": "v0_p2wpkh",
        "scriptpubkey_address": "bc1qlm3gq9qaskx5qjrqdvfhns679yfy3dl3yvarqn",
        "value": 1742
      },
      "scriptsig": "",
      "scriptsig_asm": "",
      "witness": [
        "3045022100a322011e650460019757bc092dd8a500196e8cbc0d165fab7ab13bf5bccee6b20220084681e526b7e78d2620a07c14a099e87c3b8f4f8952d8ca775e2c282fa3035c01",
        "02a8f5949f0c3ca311ba263f8db5ef6fd6af6b35d95422d681fd7c937f23ba5ece"
      ],
      "is_coinbase": false,
      "sequence": 4294967295
    },
    {
      "txid": "007e74078ac6b445038ffb314877c9503b79766e390a1f76ff2df64fe29ed38c",
      "vout": 1,
      "prevout": {
        "scriptpubkey": "0014fee280141d858d4048606b1379c35e291248b7f1",
        "scriptpubkey_asm": "OP_0 OP_PUSHBYTES_20 fee280141d858d4048606b1379c35e291248b7f1",
        "scriptpubkey_type": "v0_p2wpkh",
        "scriptpubkey_address": "bc1qlm3gq9qaskx5qjrqdvfhns679yfy3dl3yvarqn",
        "value": 1742
      },
      "scriptsig": "",
      "scriptsig_asm": "",
      "witness": [
        "3045022100b78c700b3e3faf4949bb1b2dcb0955140cca7ca5c9762019385e5adaef552cd9022018de16cd84cdc090b86039576204fdd41ccca17031262a68a53259625ce3349e01",
        "02a8f5949f0c3ca311ba263f8db5ef6fd6af6b35d95422d681fd7c937f23ba5ece"
      ],
      "is_coinbase": false,
      "sequence": 4294967295
    }
  ],
  "vout": [
    {
      "scriptpubkey": "5120a6016fabc9b71e755057c7680f65f73a19090a96954e7f0f65608cc270cbcde3",
      "scriptpubkey_asm": "OP_PUSHNUM_1 OP_PUSHBYTES_32 a6016fabc9b71e755057c7680f65f73a19090a96954e7f0f65608cc270cbcde3",
      "scriptpubkey_type": "v1_p2tr",
      "scriptpubkey_address": "bc1p5cqkl27fku0825zhca5q7e0h8gvsjz5kj4887rm9vzxvyuxteh3sqwll3v",
      "value": 3034
    }
  ],
  "size": 501,
  "weight": 1029,
  "fee": 2192,
  "status": {
    "confirmed": true,
    "block_height": 834464,
    "block_hash": "0000000000000000000177a0869a911a2b65c9bdcd5a8bcb02b68f305bee848e",
    "block_time": 1710308296
  },
  "hex": "01000000000103e4b5ca81ae506fef8bf49e696712afdcd8b8c54c70ec26e2da6bd29acd8ef43a010000000000000000afdfefc0cc571f8d471e0f82607fef6698b1f289b2917bde4bc43429d679a75b0100000000ffffffff8cd39ee24ff62dff761f0a396e76793b50c9774831fb8f0345b4c68a07747e000100000000ffffffff01da0b000000000000225120a6016fabc9b71e755057c7680f65f73a19090a96954e7f0f65608cc270cbcde3024730440220432b12f7cc8c9a2978992517e0238355dbfd22b663228511b04698c585d1d89c02202038e28d733edeb7d50e780a58c3fd34d9ceacd464338b1734db0cfc0c187529012102a8f5949f0c3ca311ba263f8db5ef6fd6af6b35d95422d681fd7c937f23ba5ece02483045022100a322011e650460019757bc092dd8a500196e8cbc0d165fab7ab13bf5bccee6b20220084681e526b7e78d2620a07c14a099e87c3b8f4f8952d8ca775e2c282fa3035c012102a8f5949f0c3ca311ba263f8db5ef6fd6af6b35d95422d681fd7c937f23ba5ece02483045022100b78c700b3e3faf4949bb1b2dcb0955140cca7ca5c9762019385e5adaef552cd9022018de16cd84cdc090b86039576204fdd41ccca17031262a68a53259625ce3349e012102a8f5949f0c3ca311ba263f8db5ef6fd6af6b35d95422d681fd7c937f23ba5ece13750000"
}