{
  "txid": "12407e96afd7379f406ba732d80f2016d48519fdb32e8defdedf99f582dc93dd",
  "version": 1,
  "locktime": 4803,
  "vin": [
    {
      "txid": "000080013763d90e1ae231a39581e1252aca95041acc8c4b47dfd913e8c67744",
      "vout": 1,
      "prevout": {
        "scriptpubkey": "512054cc7579813b3bac013df56bd482fcbc458bde08182a10f20e7052c7ca676054",
        "scriptpubkey_asm": "OP_PUSHNUM_1 OP_PUSHBYTES_32 54cc7579813b3bac013df56bd482fcbc458bde08182a10f20e7052c7ca676054",
        "scriptpubkey_type": "v1_p2tr",
        "scriptpubkey_address": "bc1p2nx827vp8va6cqfa744afqhuh3zchhsgrq4ppuswwpfv0jn8vp2q83wdq2",
        "value": 3479
      },
      "scriptsig": "",
      "scriptsig_asm": "",
      "witness": [
        "77f51684bcef80696e862cbfcd122cfef69a3dc9344e74e878cf1f37e287f104da13118cc558c119681d1c3fafd762176d1728f81f54d12d285b9fb490df1cc3"
      ],
      "is_coinbase": false,
      "sequence": 1288490187
    },
    {
      "txid": "88888888bccf3301ff406d4c3b4768c9b7cd6924a741be35f830510480c9ce6f",
      "vout": 1,
      "prevout": {
        "scriptpubkey": "512054cc7579813b3bac013df56bd482fcbc458bde08182a10f20e7052c7ca676054",
        "scriptpubkey_asm": "OP_PUSHNUM_1 OP_PUSHBYTES_32 54cc7579813b3bac013df56bd482fcbc458bde08182a10f20e7052c7ca676054",
        "scriptpubkey_type": "v1_p2tr",
        "scriptpubkey_address": "bc1p2nx827vp8va6cqfa744afqhuh3zchhsgrq4ppuswwpfv0jn8vp2q83wdq2",
        "value": 3461
      },
      "scriptsig": "",
      "scriptsig_asm": "",
      "witness": [
        "c88b0c2c86fa3a93ba5f377def8f4fabd7e2583f24ae227005fc94e3847d6927126f2e4aed98a8e1fce584014724bf68c2dbc790f3af0404b203253939c2aade"
      ],
      "is_coinbase": false,
      "sequence": 4294967295
    }
  ],
  "vout": [
    {
      "scriptpubkey": "5120fece469f7450639bbeaac049256f2794a1f4c7ca64f698646761114aff7c9d43",
      "scriptpubkey_asm": "OP_PUSHNUM_1 OP_PUSHBYTES_32 fece469f7450639bbeaac049256f2794a1f4c7ca64f698646761114aff7c9d43",
      "scriptpubkey_type": "v1_p2tr",
      "scriptpubkey_address": "bc1plm8yd8m52p3eh042cpyj2me8jjslf372vnmfser8vyg54lmun4pspemgaz",
      "value": 2889
    },
    {
      "scriptpubkey": "512054cc7579813b3bac013df56bd482fcbc458bde08182a10f20e7052c7ca676054",
      "scriptpubkey_asm": "OP_PUSHNUM_1 OP_PUSHBYTES_32 54cc7579813b3bac013df56bd482fcbc458bde08182a10f20e7052c7ca676054",
      "scriptpubkey_type": "v1_p2tr",
      "scriptpubkey_address": "bc1p2nx827vp8va6cqfa744afqhuh3zchhsgrq4ppuswwpfv0jn8vp2q83wdq2",
      "value": 2049
    }
  ],
  "size": 312,
  "weight": 846,
  "fee": 2002,
  "status": {
    "confirmed": true,
    "block_height": 834464,
    "block_hash": "0000000000000000000177a0869a911a2b65c9bdcd5a8bcb02b68f305bee848e",
    "block_time": 1710308296
  },
  "hex": "010000000001024477c6e813d9df474b8ccc1a0495ca2a25e18195a331e21a0ed96337018000000100000000cbcccc4c6fcec980045130f835be41a72469cdb7c968473b4c6d40ff0133cfbc888888880100000000ffffffff02490b000000000000225120fece469f7450639bbeaac049256f2794a1f4c7ca64f698646761114aff7c9d43010800000000000022512054cc7579813b3bac013df56bd482fcbc458bde08182a10f20e7052c7ca676054014077f51684bcef80696e862cbfcd122cfef69a3dc9344e74e878cf1f37e287f104da13118cc558c119681d1c3fafd762176d1728f81f54d12d285b9fb490df1cc30140c88b0c2c86fa3a93ba5f377def8f4fabd7e2583f24ae227005fc94e3847d6927126f2e4aed98a8e1fce584014724bf68c2dbc790f3af0404b203253939c2aadec3120000"
}