{
  "txid": "12404ed8c8d7fea03da4eb7d48dd7e0e44fbb8238e26a4ce38f82a7908c08b81",
  "version": 1,
  "locktime": 1450,
  "vin": [
    {
      "txid": "8888888509f208e5c040af18f1567defac04886078a47726122f089029f84f29",
      "vout": 1,
      "prevout": {
        "scriptpubkey": "5120a1e3352d215c371d7181ba45cba88085be161f72f0fb432c6eb5c59fa438eb97",
        "scriptpubkey_asm": "OP_PUSHNUM_1 OP_PUSHBYTES_32 a1e3352d215c371d7181ba45cba88085be161f72f0fb432c6eb5c59fa438eb97",
        "scriptpubkey_type": "v1_p2tr",
        "scriptpubkey_address": "bc1p583n2tfptsm36uvphfzuh2yqsklpv8mj7ra5xtrwkhzelfpcawtswnzule",
        "value": 3537
      },
      "scriptsig": "",
      "scriptsig_asm": "",
      "witness": [
        "9795990c1e7b553eec770f1c9e5714311bb2cc005df5fcabbe9b359665ebbec79cc5ac5605700928cea6d815de234302e138c6dc4552f95c19530162d441e523"
      ],
      "is_coinbase": false,
      "sequence": 1073741822
    },
    {
      "txid": "8888888cb6d800476222db54d8a393ca78af348fdb99537f76c8305be8b815e1",
      "vout": 1,
      "prevout": {
        "scriptpubkey": "5120a1e3352d215c371d7181ba45cba88085be161f72f0fb432c6eb5c59fa438eb97",
        "scriptpubkey_asm": "OP_PUSHNUM_1 OP_PUSHBYTES_32 a1e3352d215c371d7181ba45cba88085be161f72f0fb432c6eb5c59fa438eb97",
        "scriptpubkey_type": "v1_p2tr",
        "scriptpubkey_address": "bc1p583n2tfptsm36uvphfzuh2yqsklpv8mj7ra5xtrwkhzelfpcawtswnzule",
        "value": 3537
      },
      "scriptsig": "",
      "scriptsig_asm": "",
      "witness": [
        "0a393a852a77e028a2073addfbc30b93b3129540f330b305636b48e0cee98a959f28182e0f48dcf5805ccbb0ac0181ecd484714138ff8dc55fc70d6ac5b87997"
      ],
      "is_coinbase": false,
      "sequence": 4294967295
    }
  ],
  "vout": [
    {
      "scriptpubkey": "5120ea26a73b838480d27149e8cd77e48a3ef85e2fdf4ab6b27b1d8512adc61d37a9",
      "scriptpubkey_asm": "OP_PUSHNUM_1 OP_PUSHBYTES_32 ea26a73b838480d27149e8cd77e48a3ef85e2fdf4ab6b27b1d8512adc61d37a9",
      "scriptpubkey_type": "v1_p2tr",
      "scriptpubkey_address": "bc1pagn2wwursjqdyu2farxh0ey28mu9ut7lf2mty7cas5f2m3sax75sgnpdux",
      "value": 2889
    },
    {
      "scriptpubkey": "5120a1e3352d215c371d7181ba45cba88085be161f72f0fb432c6eb5c59fa438eb97",
      "scriptpubkey_asm": "OP_PUSHNUM_1 OP_PUSHBYTES_32 a1e3352d215c371d7181ba45cba88085be161f72f0fb432c6eb5c59fa438eb97",
      "scriptpubkey_type": "v1_p2tr",
      "scriptpubkey_address": "bc1p583n2tfptsm36uvphfzuh2yqsklpv8mj7ra5xtrwkhzelfpcawtswnzule",
      "value": 2183
    }
  ],
  "size": 312,
  "weight": 846,
  "fee": 2002,
  "status": {
    "confirmed": true,
    "block_height": 834464,
    "block_hash": "0000000000000000000177a0869a911a2b65c9bdcd5a8bcb02b68f305bee848e",
    "block_time": 1710308296
  },
  "hex": "01000000000102294ff82990082f122677a478608804acef7d56f118af40c0e508f209858888880100000000feffff3fe115b8e85b30c8767f5399db8f34af78ca93a3d854db22624700d8b68c8888880100000000ffffffff02490b000000000000225120ea26a73b838480d27149e8cd77e48a3ef85e2fdf4ab6b27b1d8512adc61d37a98708000000000000225120a1e3352d215c371d7181ba45cba88085be161f72f0fb432c6eb5c59fa438eb9701409795990c1e7b553eec770f1c9e5714311bb2cc005df5fcabbe9b359665ebbec79cc5ac5605700928cea6d815de234302e138c6dc4552f95c19530162d441e52301400a393a852a77e028a2073addfbc30b93b3129540f330b305636b48e0cee98a959f28182e0f48dcf5805ccbb0ac0181ecd484714138ff8dc55fc70d6ac5b87997aa050000"
}