{
  "txid": "12400a09921cb9614f78f65f27d0aeb0857847bab0455360aa1eb67afeb26781",
  "version": 1,
  "locktime": 9336,
  "vin": [
    {
      "txid": "d963c65e17a08dd9d24ad2bc1cc4564975ddbff43532aef08f2bbc4fc0a6f239",
      "vout": 1,
      "prevout": {
        "scriptpubkey": "0014fee280141d858d4048606b1379c35e291248b7f1",
        "scriptpubkey_asm": "OP_0 OP_PUSHBYTES_20 fee280141d858d4048606b1379c35e291248b7f1",
        "scriptpubkey_type": "v0_p2wpkh",
        "scriptpubkey_address": "bc1qlm3gq9qaskx5qjrqdvfhns679yfy3dl3yvarqn",
        "value": 1742
      },
      "scriptsig": "",
      "scriptsig_asm": "",
      "witness": [
        "304402205a0b0186d94ddbe8f9dbfae22697e17ae1a6543aa59fa26a1def3af6add7871c02203876d01835d6f21d7dfd8922e7774e6bb073ec2c72480421c713d15969f6461901",
        "02a8f5949f0c3ca311ba263f8db5ef6fd6af6b35d95422d681fd7c937f23ba5ece"
      ],
      "is_coinbase": false,
      "sequence": 715827882
    },
    {
      "txid": "1f5099ee8331f6293e73dfe92fbc7314f2c6854833f26b34e44f2081a424489c",
      "vout": 1,
      "prevout": {
        "scriptpubkey": "0014fee280141d858d4048606b1379c35e291248b7f1",
        "scriptpubkey_asm": "OP_0 OP_PUSHBYTES_20 fee280141d858d4048606b1379c35e291248b7f1",
        "scriptpubkey_type": "v0_p2wpkh",
        "scriptpubkey_address": "bc1qlm3gq9qaskx5qjrqdvfhns679yfy3dl3yvarqn",
        "value": 1742
      },
      "scriptsig": "",
      "scriptsig_asm": "",
      "witness": [
        "30450221009c972270011b7cb0a44e21510151004b8c16ae2f6268a7ce85c2c2ef21034247022032dc0f06e0a9a6b4853d9fd2a3eeecf59a0b4e6f5fab00d2f1f683463942f93701",
        "02a8f5949f0c3ca311ba263f8db5ef6fd6af6b35d95422d681fd7c937f23ba5ece"
      ],
      "is_coinbase": false,
      "sequence": 4294967295
    },
    {
      "txid": "c0e70a655319a2eafae8b4e3d4206529db046a7a829df68b3d8b4d0cfaf23e3c",
      "vout": 1,
      "prevout": {
        "scriptpubkey": "0014fee280141d858d4048606b1379c35e291248b7f1",
        "scriptpubkey_asm": "OP_0 OP_PUSHBYTES_20 fee280141d858d4048606b1379c35e291248b7f1",
        "scriptpubkey_type": "v0_p2wpkh",
        "scriptpubkey_address": "bc1qlm3gq9qaskx5qjrqdvfhns679yfy3dl3yvarqn",
        "value": 1742
      },
      "scriptsig": "",
      "scriptsig_asm": "",
      "witness": [
        "3044022012cc95de62348f449d668e7c5dab2a64bdd8aede10a3b46b6c2ff9bba74bc8610220093a905551f4a2bc364744897e32f3b468ee4a9b97cc7a02eb23a58902f0333901",
        "02a8f5949f0c3ca311ba263f8db5ef6fd6af6b35d95422d681fd7c937f23ba5ece"
      ],
      "is_coinbase": false,
      "sequence": 4294967295
    }
  ],
  "vout": [
    {
      "scriptpubkey": "5120e3093ed11794240d1042a57e714afee29335c1c4a5f42ab6c59d01d828690933",
      "scriptpubkey_asm": "OP_PUSHNUM_1 OP_PUSHBYTES_32 e3093ed11794240d1042a57e714afee29335c1c4a5f42ab6c59d01d828690933",
      "scriptpubkey_type": "v1_p2tr",
      "scriptpubkey_address": "bc1puvyna5ghjsjq6yzz54l8zjh7u2fntswy5h6z4dk9n5qas2rfpyes3agvxx",
      "value": 3034
    }
  ],
  "size": 500,
  "weight": 1028,
  "fee": 2192,
  "status": {
    "confirmed": true,
    "block_height": 834464,
    "block_hash": "0000000000000000000177a0869a911a2b65c9bdcd5a8bcb02b68f305bee848e",
    "block_time": 1710308296
  },
  "hex": "0100000000010339f2a6c04fbc2b8ff0ae3235f4bfdd754956c41cbcd24ad2d98da0175ec663d90100000000aaaaaa2a9c4824a481204fe4346bf2334885c6f21473bc2fe9df733e29f63183ee99501f0100000000ffffffff3c3ef2fa0c4d8b3d8bf69d827a6a04db296520d4e3b4e8faeaa21953650ae7c00100000000ffffffff01da0b000000000000225120e3093ed11794240d1042a57e714afee29335c1c4a5f42ab6c59d01d8286909330247304402205a0b0186d94ddbe8f9dbfae22697e17ae1a6543aa59fa26a1def3af6add7871c02203876d01835d6f21d7dfd8922e7774e6bb073ec2c72480421c713d15969f64619012102a8f5949f0c3ca311ba263f8db5ef6fd6af6b35d95422d681fd7c937f23ba5ece024830450221009c972270011b7cb0a44e21510151004b8c16ae2f6268a7ce85c2c2ef21034247022032dc0f06e0a9a6b4853d9fd2a3eeecf59a0b4e6f5fab00d2f1f683463942f937012102a8f5949f0c3ca311ba263f8db5ef6fd6af6b35d95422d681fd7c937f23ba5ece02473044022012cc95de62348f449d668e7c5dab2a64bdd8aede10a3b46b6c2ff9bba74bc8610220093a905551f4a2bc364744897e32f3b468ee4a9b97cc7a02eb23a58902f03339012102a8f5949f0c3ca311ba263f8db5ef6fd6af6b35d95422d681fd7c937f23ba5ece78240000"
}