{
  "txid": "1240d97948c9949909704dbb5386b5086dc7e25b72116ca698c9d11afbb4ea1a",
  "version": 1,
  "locktime": 1007,
  "vin": [
    {
      "txid": "0000bafa14f4eb375242c767d70b7df2976389564e2f52044494141d4b9ca91f",
      "vout": 1,
      "prevout": {
        "scriptpubkey": "5120a1e3352d215c371d7181ba45cba88085be161f72f0fb432c6eb5c59fa438eb97",
        "scriptpubkey_asm": "OP_PUSHNUM_1 OP_PUSHBYTES_32 a1e3352d215c371d7181ba45cba88085be161f72f0fb432c6eb5c59fa438eb97",
        "scriptpubkey_type": "v1_p2tr",
        "scriptpubkey_address": "bc1p583n2tfptsm36uvphfzuh2yqsklpv8mj7ra5xtrwkhzelfpcawtswnzule",
        "value": 3338
      },
      "scriptsig": "",
      "scriptsig_asm": "",
      "witness": [
        "07766008e14b0fc4cd68715c9d9885e0d34a82fd9786b5f881ac09f994f7609d0544586632a42ae45669d57f51c1c4dd086ec560f9b87189d86d5f56af75276a"
      ],
      "is_coinbase": false,
      "sequence": 0
    },
    {
      "txid": "8888888774064eed301c4d95bad7b306ca245bca141b54a24d9e276770a6b6b8",
      "vout": 1,
      "prevout": {
        "scriptpubkey": "5120a1e3352d215c371d7181ba45cba88085be161f72f0fb432c6eb5c59fa438eb97",
        "scriptpubkey_asm": "OP_PUSHNUM_1 OP_PUSHBYTES_32 a1e3352d215c371d7181ba45cba88085be161f72f0fb432c6eb5c59fa438eb97",
        "scriptpubkey_type": "v1_p2tr",
        "scriptpubkey_address": "bc1p583n2tfptsm36uvphfzuh2yqsklpv8mj7ra5xtrwkhzelfpcawtswnzule",
        "value": 3337
      },
      "scriptsig": "",
      "scriptsig_asm": "",
      "witness": [
        "95637af3af97bdc9dd38f2ab0e0fbc544b789e777040e7fae8a8a15548881a3483ce4afd249f0bbe5bc966259cb13db14288b244aa1ebdd69fd2b0f0c8c65a98"
      ],
      "is_coinbase": false,
      "sequence": 4294967295
    }
  ],
  "vout": [
    {
      "scriptpubkey": "512048425592e69162a7bd3e0b28c1d4c408397c3fff4aefc5a85dc7a6fc0d48be98",
      "scriptpubkey_asm": "OP_PUSHNUM_1 OP_PUSHBYTES_32 48425592e69162a7bd3e0b28c1d4c408397c3fff4aefc5a85dc7a6fc0d48be98",
      "scriptpubkey_type": "v1_p2tr",
      "scriptpubkey_address": "bc1pfpp9tyhxj93200f7pv5vr4xypquhc0llfthut2zac7n0cr2gh6vqt2m07m",
      "value": 2889
    },
    {
      "scriptpubkey": "5120a1e3352d215c371d7181ba45cba88085be161f72f0fb432c6eb5c59fa438eb97",
      "scriptpubkey_asm": "OP_PUSHNUM_1 OP_PUSHBYTES_32 a1e3352d215c371d7181ba45cba88085be161f72f0fb432c6eb5c59fa438eb97",
      "scriptpubkey_type": "v1_p2tr",
      "scriptpubkey_address": "bc1p583n2tfptsm36uvphfzuh2yqsklpv8mj7ra5xtrwkhzelfpcawtswnzule",
      "value": 1784
    }
  ],
  "size": 312,
  "weight": 846,
  "fee": 2002,
  "status": {
    "confirmed": true,
    "block_height": 834464,
    "block_hash": "0000000000000000000177a0869a911a2b65c9bdcd5a8bcb02b68f305bee848e",
    "block_time": 1710308296
  },
  "hex": "010000000001021fa99c4b1d14944404522f4e56896397f27d0bd767c7425237ebf414faba0000010000000000000000b8b6a67067279e4da2541b14ca5b24ca06b3d7ba954d1c30ed4e0674878888880100000000ffffffff02490b00000000000022512048425592e69162a7bd3e0b28c1d4c408397c3fff4aefc5a85dc7a6fc0d48be98f806000000000000225120a1e3352d215c371d7181ba45cba88085be161f72f0fb432c6eb5c59fa438eb97014007766008e14b0fc4cd68715c9d9885e0d34a82fd9786b5f881ac09f994f7609d0544586632a42ae45669d57f51c1c4dd086ec560f9b87189d86d5f56af75276a014095637af3af97bdc9dd38f2ab0e0fbc544b789e777040e7fae8a8a15548881a3483ce4afd249f0bbe5bc966259cb13db14288b244aa1ebdd69fd2b0f0c8c65a98ef030000"
}