{
  "txid": "12409ed45aa1720ca1aff4f3820d2b42ecd3d773f9c051a1f47765b148123cc0",
  "version": 1,
  "locktime": 22229,
  "vin": [
    {
      "txid": "8888888bd981649297db7c28911bec4db468c1f9f9ed9d5f6357a8e43b5332b1",
      "vout": 1,
      "prevout": {
        "scriptpubkey": "5120a1e3352d215c371d7181ba45cba88085be161f72f0fb432c6eb5c59fa438eb97",
        "scriptpubkey_asm": "OP_PUSHNUM_1 OP_PUSHBYTES_32 a1e3352d215c371d7181ba45cba88085be161f72f0fb432c6eb5c59fa438eb97",
        "scriptpubkey_type": "v1_p2tr",
        "scriptpubkey_address": "bc1p583n2tfptsm36uvphfzuh2yqsklpv8mj7ra5xtrwkhzelfpcawtswnzule",
        "value": 3337
      },
      "scriptsig": "",
      "scriptsig_asm": "",
      "witness": [
        "5723ea9135ecabc4f6785c13752ac32c19e87e544f69f286c83376856e9963f9339f75ecdc7000e2ec13199f7c7a7d0d09b9079a1b183177f8df48968b078f0b"
      ],
      "is_coinbase": false,
      "sequence": 3221225466
    },
    {
      "txid": "888888864f7acf587f6c5bf812b365f9d5ffcd6b3cabc402d70b8aa21f2040c2",
      "vout": 1,
      "prevout": {
        "scriptpubkey": "5120a1e3352d215c371d7181ba45cba88085be161f72f0fb432c6eb5c59fa438eb97",
        "scriptpubkey_asm": "OP_PUSHNUM_1 OP_PUSHBYTES_32 a1e3352d215c371d7181ba45cba88085be161f72f0fb432c6eb5c59fa438eb97",
        "scriptpubkey_type": "v1_p2tr",
        "scriptpubkey_address": "bc1p583n2tfptsm36uvphfzuh2yqsklpv8mj7ra5xtrwkhzelfpcawtswnzule",
        "value": 3337
      },
      "scriptsig": "",
      "scriptsig_asm": "",
      "witness": [
        "441d8bffe1fa5ebfa2fab7beaf0240a38b13a8fa90bcb7d1b6472a6867ceb103b54fcc187adae1d9dfa800df4b872f80e34c2b15384cd096e778ffe2b3aa4751"
      ],
      "is_coinbase": false,
      "sequence": 4294967295
    }
  ],
  "vout": [
    {
      "scriptpubkey": "51206515e01317ad41e28a48066b9ab58e0b12df9fef5341741b827c9087f30369a2",
      "scriptpubkey_asm": "OP_PUSHNUM_1 OP_PUSHBYTES_32 6515e01317ad41e28a48066b9ab58e0b12df9fef5341741b827c9087f30369a2",
      "scriptpubkey_type": "v1_p2tr",
      "scriptpubkey_address": "bc1pv527qych44q79zjgqe4e4dvwpvfdl8l02dqhgxuz0jgg0ucrdx3qc7nj2p",
      "value": 2889
    },
    {
      "scriptpubkey": "5120a1e3352d215c371d7181ba45cba88085be161f72f0fb432c6eb5c59fa438eb97",
      "scriptpubkey_asm": "OP_PUSHNUM_1 OP_PUSHBYTES_32 a1e3352d215c371d7181ba45cba88085be161f72f0fb432c6eb5c59fa438eb97",
      "scriptpubkey_type": "v1_p2tr",
      "scriptpubkey_address": "bc1p583n2tfptsm36uvphfzuh2yqsklpv8mj7ra5xtrwkhzelfpcawtswnzule",
      "value": 1783
    }
  ],
  "size": 312,
  "weight": 846,
  "fee": 2002,
  "status": {
    "confirmed": true,
    "block_height": 834464,
    "block_hash": "0000000000000000000177a0869a911a2b65c9bdcd5a8bcb02b68f305bee848e",
    "block_time": 1710308296
  },
  "hex": "01000000000102b132533be4a857635f9dedf9f9c168b44dec1b91287cdb97926481d98b8888880100000000faffffbfc240201fa28a0bd702c4ab3c6bcdffd5f965b312f85b6c7f58cf7a4f868888880100000000ffffffff02490b0000000000002251206515e01317ad41e28a48066b9ab58e0b12df9fef5341741b827c9087f30369a2f706000000000000225120a1e3352d215c371d7181ba45cba88085be161f72f0fb432c6eb5c59fa438eb9701405723ea9135ecabc4f6785c13752ac32c19e87e544f69f286c83376856e9963f9339f75ecdc7000e2ec13199f7c7a7d0d09b9079a1b183177f8df48968b078f0b0140441d8bffe1fa5ebfa2fab7beaf0240a38b13a8fa90bcb7d1b6472a6867ceb103b54fcc187adae1d9dfa800df4b872f80e34c2b15384cd096e778ffe2b3aa4751d5560000"
}