{
  "txid": "1240a01f91b25ec1a5c22741c632763dff3cfee7176d0e95fadc0b70a23e8987",
  "version": 1,
  "locktime": 16614,
  "vin": [
    {
      "txid": "8888888f302b944c5bc49c512cfd7486d10cb5e897692c5d1ee55344264c9b78",
      "vout": 1,
      "prevout": {
        "scriptpubkey": "5120a1e3352d215c371d7181ba45cba88085be161f72f0fb432c6eb5c59fa438eb97",
        "scriptpubkey_asm": "OP_PUSHNUM_1 OP_PUSHBYTES_32 a1e3352d215c371d7181ba45cba88085be161f72f0fb432c6eb5c59fa438eb97",
        "scriptpubkey_type": "v1_p2tr",
        "scriptpubkey_address": "bc1p583n2tfptsm36uvphfzuh2yqsklpv8mj7ra5xtrwkhzelfpcawtswnzule",
        "value": 3539
      },
      "scriptsig": "",
      "scriptsig_asm": "",
      "witness": [
        "0f12555007c8c07bcab8ab96f8646d0d4215934bcbc37c48f8ff9694510c02ed4947f1654a674d0892eaa4c06f19488b455d152b4463a2f95b8658804e49fa9b"
      ],
      "is_coinbase": false,
      "sequence": 1073741822
    },
    {
      "txid": "8888888d6c5947557ed125a99df21d48c35e5183d6c4239a1d9df69721ab6ee0",
      "vout": 1,
      "prevout": {
        "scriptpubkey": "5120a1e3352d215c371d7181ba45cba88085be161f72f0fb432c6eb5c59fa438eb97",
        "scriptpubkey_asm": "OP_PUSHNUM_1 OP_PUSHBYTES_32 a1e3352d215c371d7181ba45cba88085be161f72f0fb432c6eb5c59fa438eb97",
        "scriptpubkey_type": "v1_p2tr",
        "scriptpubkey_address": "bc1p583n2tfptsm36uvphfzuh2yqsklpv8mj7ra5xtrwkhzelfpcawtswnzule",
        "value": 3539
      },
      "scriptsig": "",
      "scriptsig_asm": "",
      "witness": [
        "6fb7e1c731c5a5de36a57160f141f81e888ef7587e1988b28d37b766ff04edcdc878d9d1dd551fb34ff04f03a6ca3a028932355fd9a47de42a8043052e97230d"
      ],
      "is_coinbase": false,
      "sequence": 4294967295
    }
  ],
  "vout": [
    {
      "scriptpubkey": "512006a936eacae2c6cd841b615ca191c2a9cea133d66e3015c9d36e48295d6ffaee",
      "scriptpubkey_asm": "OP_PUSHNUM_1 OP_PUSHBYTES_32 06a936eacae2c6cd841b615ca191c2a9cea133d66e3015c9d36e48295d6ffaee",
      "scriptpubkey_type": "v1_p2tr",
      "scriptpubkey_address": "bc1pq65nd6k2utrvmpqmv9w2rywz4882zv7kdccptjwndeyzjht0lthq5cmtwd",
      "value": 2889
    },
    {
      "scriptpubkey": "5120a1e3352d215c371d7181ba45cba88085be161f72f0fb432c6eb5c59fa438eb97",
      "scriptpubkey_asm": "OP_PUSHNUM_1 OP_PUSHBYTES_32 a1e3352d215c371d7181ba45cba88085be161f72f0fb432c6eb5c59fa438eb97",
      "scriptpubkey_type": "v1_p2tr",
      "scriptpubkey_address": "bc1p583n2tfptsm36uvphfzuh2yqsklpv8mj7ra5xtrwkhzelfpcawtswnzule",
      "value": 2187
    }
  ],
  "size": 312,
  "weight": 846,
  "fee": 2002,
  "status": {
    "confirmed": true,
    "block_height": 834464,
    "block_hash": "0000000000000000000177a0869a911a2b65c9bdcd5a8bcb02b68f305bee848e",
    "block_time": 1710308296
  },
  "hex": "01000000000102789b4c264453e51e5d2c6997e8b50cd18674fd2c519cc45b4c942b308f8888880100000000feffff3fe06eab2197f69d1d9a23c4d683515ec3481df29da925d17e5547596c8d8888880100000000ffffffff02490b00000000000022512006a936eacae2c6cd841b615ca191c2a9cea133d66e3015c9d36e48295d6ffaee8b08000000000000225120a1e3352d215c371d7181ba45cba88085be161f72f0fb432c6eb5c59fa438eb9701400f12555007c8c07bcab8ab96f8646d0d4215934bcbc37c48f8ff9694510c02ed4947f1654a674d0892eaa4c06f19488b455d152b4463a2f95b8658804e49fa9b01406fb7e1c731c5a5de36a57160f141f81e888ef7587e1988b28d37b766ff04edcdc878d9d1dd551fb34ff04f03a6ca3a028932355fd9a47de42a8043052e97230de6400000"
}