{
  "txid": "124062fd7f3ccd793fc21fdcda4d80ccfe3eb9763931943368e8794846b9f598",
  "version": 1,
  "locktime": 4081,
  "vin": [
    {
      "txid": "8888888f6d233a1b99266795b8550627e2fb0bd1bebed7bc0bae0955526ae175",
      "vout": 1,
      "prevout": {
        "scriptpubkey": "5120a1e3352d215c371d7181ba45cba88085be161f72f0fb432c6eb5c59fa438eb97",
        "scriptpubkey_asm": "OP_PUSHNUM_1 OP_PUSHBYTES_32 a1e3352d215c371d7181ba45cba88085be161f72f0fb432c6eb5c59fa438eb97",
        "scriptpubkey_type": "v1_p2tr",
        "scriptpubkey_address": "bc1p583n2tfptsm36uvphfzuh2yqsklpv8mj7ra5xtrwkhzelfpcawtswnzule",
        "value": 3337
      },
      "scriptsig": "",
      "scriptsig_asm": "",
      "witness": [
        "7eccb1600cc03348effea3243aab625768f4dc192b187dbad207c7faeb732a32983ea933b88353658367b9e636a34699646094d65b28b355b2ac1e8ff9751b5a"
      ],
      "is_coinbase": false,
      "sequence": 536870911
    },
    {
      "txid": "8888888d4b36abf58a888168d9e08eab032c6e474675541bfcc4ea13cb062757",
      "vout": 1,
      "prevout": {
        "scriptpubkey": "5120a1e3352d215c371d7181ba45cba88085be161f72f0fb432c6eb5c59fa438eb97",
        "scriptpubkey_asm": "OP_PUSHNUM_1 OP_PUSHBYTES_32 a1e3352d215c371d7181ba45cba88085be161f72f0fb432c6eb5c59fa438eb97",
        "scriptpubkey_type": "v1_p2tr",
        "scriptpubkey_address": "bc1p583n2tfptsm36uvphfzuh2yqsklpv8mj7ra5xtrwkhzelfpcawtswnzule",
        "value": 3337
      },
      "scriptsig": "",
      "scriptsig_asm": "",
      "witness": [
        "dea8c22a2ae1b73fe4e2edf2618828659fedd88c1d21d1977b003341b6526b20a04d15fc87adff90075c0ebd3e01ab520a115e3764c66d351e2849811c9ff9ed"
      ],
      "is_coinbase": false,
      "sequence": 4294967295
    }
  ],
  "vout": [
    {
      "scriptpubkey": "51201fcb0c16301e19ba26ba0b7bc9d837ebda631e7a9aca9180fad8f5481d78a9ec",
      "scriptpubkey_asm": "OP_PUSHNUM_1 OP_PUSHBYTES_32 1fcb0c16301e19ba26ba0b7bc9d837ebda631e7a9aca9180fad8f5481d78a9ec",
      "scriptpubkey_type": "v1_p2tr",
      "scriptpubkey_address": "bc1prl9sc93srcvm5f46pdaunkpha0dxx8n6nt9frq86mr65s8tc48kqa7qflg",
      "value": 2889
    },
    {
      "scriptpubkey": "5120a1e3352d215c371d7181ba45cba88085be161f72f0fb432c6eb5c59fa438eb97",
      "scriptpubkey_asm": "OP_PUSHNUM_1 OP_PUSHBYTES_32 a1e3352d215c371d7181ba45cba88085be161f72f0fb432c6eb5c59fa438eb97",
      "scriptpubkey_type": "v1_p2tr",
      "scriptpubkey_address": "bc1p583n2tfptsm36uvphfzuh2yqsklpv8mj7ra5xtrwkhzelfpcawtswnzule",
      "value": 1783
    }
  ],
  "size": 312,
  "weight": 846,
  "fee": 2002,
  "status": {
    "confirmed": true,
    "block_height": 834464,
    "block_hash": "0000000000000000000177a0869a911a2b65c9bdcd5a8bcb02b68f305bee848e",
    "block_time": 1710308296
  },
  "hex": "0100000000010275e16a525509ae0bbcd7bebed10bfbe2270655b8956726991b3a236d8f8888880100000000ffffff1f572706cb13eac4fc1b547546476e2c03ab8ee0d96881888af5ab364b8d8888880100000000ffffffff02490b0000000000002251201fcb0c16301e19ba26ba0b7bc9d837ebda631e7a9aca9180fad8f5481d78a9ecf706000000000000225120a1e3352d215c371d7181ba45cba88085be161f72f0fb432c6eb5c59fa438eb9701407eccb1600cc03348effea3243aab625768f4dc192b187dbad207c7faeb732a32983ea933b88353658367b9e636a34699646094d65b28b355b2ac1e8ff9751b5a0140dea8c22a2ae1b73fe4e2edf2618828659fedd88c1d21d1977b003341b6526b20a04d15fc87adff90075c0ebd3e01ab520a115e3764c66d351e2849811c9ff9edf10f0000"
}