{
  "txid": "124010631ee140a18ee696cc60b52858757689b37c282338c9df8ac97c7c52bd",
  "version": 1,
  "locktime": 7124,
  "vin": [
    {
      "txid": "8888888c934fa89882b8b4233a009b8729824a626f1b40c3e38017298cdc9ece",
      "vout": 1,
      "prevout": {
        "scriptpubkey": "5120a1e3352d215c371d7181ba45cba88085be161f72f0fb432c6eb5c59fa438eb97",
        "scriptpubkey_asm": "OP_PUSHNUM_1 OP_PUSHBYTES_32 a1e3352d215c371d7181ba45cba88085be161f72f0fb432c6eb5c59fa438eb97",
        "scriptpubkey_type": "v1_p2tr",
        "scriptpubkey_address": "bc1p583n2tfptsm36uvphfzuh2yqsklpv8mj7ra5xtrwkhzelfpcawtswnzule",
        "value": 3539
      },
      "scriptsig": "",
      "scriptsig_asm": "",
      "witness": [
        "0f7eb1e82d83a13f9b7a953689ea27eb1bf6e2e92ef49c642c7f82027fc65cfe300fed896d48974413ccd46cc48c1973d0cf0cfd2e38e189c11a82dc10611626"
      ],
      "is_coinbase": false,
      "sequence": 1073741822
    },
    {
      "txid": "8888888b48391c7df5814e6600035a898e2b7557af93f1f2c2062b25c8af5bdc",
      "vout": 1,
      "prevout": {
        "scriptpubkey": "5120a1e3352d215c371d7181ba45cba88085be161f72f0fb432c6eb5c59fa438eb97",
        "scriptpubkey_asm": "OP_PUSHNUM_1 OP_PUSHBYTES_32 a1e3352d215c371d7181ba45cba88085be161f72f0fb432c6eb5c59fa438eb97",
        "scriptpubkey_type": "v1_p2tr",
        "scriptpubkey_address": "bc1p583n2tfptsm36uvphfzuh2yqsklpv8mj7ra5xtrwkhzelfpcawtswnzule",
        "value": 3539
      },
      "scriptsig": "",
      "scriptsig_asm": "",
      "witness": [
        "c54139e74b5eb733bfce464f55e880ed8dcdc2dba39bcd1755d3f68df31ea926fe0bcafe840f2527cd6ab4c1a3b4975bb1cb1718302e4113a7c25ebd5efec5b4"
      ],
      "is_coinbase": false,
      "sequence": 4294967295
    }
  ],
  "vout": [
    {
      "scriptpubkey": "51203a7b7153bc94e2f87b21ccfcd063c9d3e53c99429b59b3793c3a4d03475419a3",
      "scriptpubkey_asm": "OP_PUSHNUM_1 OP_PUSHBYTES_32 3a7b7153bc94e2f87b21ccfcd063c9d3e53c99429b59b3793c3a4d03475419a3",
      "scriptpubkey_type": "v1_p2tr",
      "scriptpubkey_address": "bc1p8fahz5aujn30s7epen7dqc7f60jnex2zndvmx7fu8fxsx365rx3sut0yge",
      "value": 2889
    },
    {
      "scriptpubkey": "5120a1e3352d215c371d7181ba45cba88085be161f72f0fb432c6eb5c59fa438eb97",
      "scriptpubkey_asm": "OP_PUSHNUM_1 OP_PUSHBYTES_32 a1e3352d215c371d7181ba45cba88085be161f72f0fb432c6eb5c59fa438eb97",
      "scriptpubkey_type": "v1_p2tr",
      "scriptpubkey_address": "bc1p583n2tfptsm36uvphfzuh2yqsklpv8mj7ra5xtrwkhzelfpcawtswnzule",
      "value": 2187
    }
  ],
  "size": 312,
  "weight": 846,
  "fee": 2002,
  "status": {
    "confirmed": true,
    "block_height": 834464,
    "block_hash": "0000000000000000000177a0869a911a2b65c9bdcd5a8bcb02b68f305bee848e",
    "block_time": 1710308296
  },
  "hex": "01000000000102ce9edc8c291780e3c3401b6f624a8229879b003a23b4b88298a84f938c8888880100000000feffff3fdc5bafc8252b06c2f2f193af57752b8e895a0300664e81f57d1c39488b8888880100000000ffffffff02490b0000000000002251203a7b7153bc94e2f87b21ccfcd063c9d3e53c99429b59b3793c3a4d03475419a38b08000000000000225120a1e3352d215c371d7181ba45cba88085be161f72f0fb432c6eb5c59fa438eb9701400f7eb1e82d83a13f9b7a953689ea27eb1bf6e2e92ef49c642c7f82027fc65cfe300fed896d48974413ccd46cc48c1973d0cf0cfd2e38e189c11a82dc106116260140c54139e74b5eb733bfce464f55e880ed8dcdc2dba39bcd1755d3f68df31ea926fe0bcafe840f2527cd6ab4c1a3b4975bb1cb1718302e4113a7c25ebd5efec5b4d41b0000"
}