{
  "txid": "1240c30733d6299d4858411afa8f5f317f2558859986961cfa56feb40865002a",
  "version": 1,
  "locktime": 18549,
  "vin": [
    {
      "txid": "8888888642973fe91da1a89f0862583dc9dd3c683168c7046e9b4c6c04710634",
      "vout": 1,
      "prevout": {
        "scriptpubkey": "5120a1e3352d215c371d7181ba45cba88085be161f72f0fb432c6eb5c59fa438eb97",
        "scriptpubkey_asm": "OP_PUSHNUM_1 OP_PUSHBYTES_32 a1e3352d215c371d7181ba45cba88085be161f72f0fb432c6eb5c59fa438eb97",
        "scriptpubkey_type": "v1_p2tr",
        "scriptpubkey_address": "bc1p583n2tfptsm36uvphfzuh2yqsklpv8mj7ra5xtrwkhzelfpcawtswnzule",
        "value": 3539
      },
      "scriptsig": "",
      "scriptsig_asm": "",
      "witness": [
        "f2dd3a1c2ae16841e0467effcb232d03f16da8e2d5ee52a60ed61a969514ec8f046a35b97d515af49ed2807fe0544ae2b3779329faa04a8572930cb0ab4f6835"
      ],
      "is_coinbase": false,
      "sequence": 2147483644
    },
    {
      "txid": "8888888881cb9a4b3feb0be0329d9d024c82d8bb3c7072daa79bae957f3aa2e3",
      "vout": 1,
      "prevout": {
        "scriptpubkey": "5120a1e3352d215c371d7181ba45cba88085be161f72f0fb432c6eb5c59fa438eb97",
        "scriptpubkey_asm": "OP_PUSHNUM_1 OP_PUSHBYTES_32 a1e3352d215c371d7181ba45cba88085be161f72f0fb432c6eb5c59fa438eb97",
        "scriptpubkey_type": "v1_p2tr",
        "scriptpubkey_address": "bc1p583n2tfptsm36uvphfzuh2yqsklpv8mj7ra5xtrwkhzelfpcawtswnzule",
        "value": 3539
      },
      "scriptsig": "",
      "scriptsig_asm": "",
      "witness": [
        "13c6c149fe9b181d981591f064457d7d6be8a113af296463ea8fcd0d7204c9c65c3db8ed834e9982c9d132271efd8adf647c6e043a2d148449d4c53c6b2756e6"
      ],
      "is_coinbase": false,
      "sequence": 4294967295
    }
  ],
  "vout": [
    {
      "scriptpubkey": "5120cadc52a4c2d3f5d09a580362b8a4909f1f99e273fa796391f4f7e7ef4dab0090",
      "scriptpubkey_asm": "OP_PUSHNUM_1 OP_PUSHBYTES_32 cadc52a4c2d3f5d09a580362b8a4909f1f99e273fa796391f4f7e7ef4dab0090",
      "scriptpubkey_type": "v1_p2tr",
      "scriptpubkey_address": "bc1petw99fxz606apxjcqd3t3fysnu0encnnlfuk8y057ln77ndtqzgq0th0dv",
      "value": 2889
    },
    {
      "scriptpubkey": "5120a1e3352d215c371d7181ba45cba88085be161f72f0fb432c6eb5c59fa438eb97",
      "scriptpubkey_asm": "OP_PUSHNUM_1 OP_PUSHBYTES_32 a1e3352d215c371d7181ba45cba88085be161f72f0fb432c6eb5c59fa438eb97",
      "scriptpubkey_type": "v1_p2tr",
      "scriptpubkey_address": "bc1p583n2tfptsm36uvphfzuh2yqsklpv8mj7ra5xtrwkhzelfpcawtswnzule",
      "value": 2187
    }
  ],
  "size": 312,
  "weight": 846,
  "fee": 2002,
  "status": {
    "confirmed": true,
    "block_height": 834464,
    "block_hash": "0000000000000000000177a0869a911a2b65c9bdcd5a8bcb02b68f305bee848e",
    "block_time": 1710308296
  },
  "hex": "01000000000102340671046c4c9b6e04c76831683cddc93d5862089fa8a11de93f9742868888880100000000fcffff7fe3a23a7f95ae9ba7da72703cbbd8824c029d9d32e00beb3f4b9acb81888888880100000000ffffffff02490b000000000000225120cadc52a4c2d3f5d09a580362b8a4909f1f99e273fa796391f4f7e7ef4dab00908b08000000000000225120a1e3352d215c371d7181ba45cba88085be161f72f0fb432c6eb5c59fa438eb970140f2dd3a1c2ae16841e0467effcb232d03f16da8e2d5ee52a60ed61a969514ec8f046a35b97d515af49ed2807fe0544ae2b3779329faa04a8572930cb0ab4f6835014013c6c149fe9b181d981591f064457d7d6be8a113af296463ea8fcd0d7204c9c65c3db8ed834e9982c9d132271efd8adf647c6e043a2d148449d4c53c6b2756e675480000"
}