{
  "txid": "1248ea75ce4301c6c7e3a0958afadbcaed1b68f3c2ee3910c8b8f30dedcecd56",
  "version": 2,
  "locktime": 0,
  "vin": [
    {
      "txid": "0cb3648519a77e2c9c20b1f97341011a7769867c922c42b0431a4967aeb7fd72",
      "vout": 0,
      "prevout": {
        "scriptpubkey": "a914d41a1baa081673f53209f8f47a84c38725390e9b87",
        "scriptpubkey_asm": "OP_HASH160 OP_PUSHBYTES_20 d41a1baa081673f53209f8f47a84c38725390e9b OP_EQUAL",
        "scriptpubkey_type": "p2sh",
        "scriptpubkey_address": "3M2WTEQ9xn7wL7ew9FHfmaCLKpEZmjw4TR",
        "value": 278662
      },
      "scriptsig": "16001463a498f0b58db8eab95251f52378d78762c53887",
      "scriptsig_asm": "OP_PUSHBYTES_22 001463a498f0b58db8eab95251f52378d78762c53887",
      "witness": [
        "3044022034d52535deba05a93875c46e80abd9ef63a77747a2df09a4f4ef079ffeb20f4802202aebc455faa9841f44bac0e1ef655dd0c063662bfaa05c8fdbf4568563ce0ea201",
        "03fb65d8452a18d09714d6d4a54d3e2b4ad4c1e6ebb8db96d64e2a18a906e85efa"
      ],
      "is_coinbase": false,
      "sequence": 4294967295,
      "inner_redeemscript_asm": "OP_0 OP_PUSHBYTES_20 63a498f0b58db8eab95251f52378d78762c53887"
    },
    {
      "txid": "7d656d6531f9b83b13391be99e7669efd64759270b60b413904ccc478cff8fa4",
      "vout": 1,
      "prevout": {
        "scriptpubkey": "001481897cd2113b1b0bf0e718cc791d9bd2d246c555",
        "scriptpubkey_asm": "OP_0 OP_PUSHBYTES_20 81897cd2113b1b0bf0e718cc791d9bd2d246c555",
        "scriptpubkey_type": "v0_p2wpkh",
        "scriptpubkey_address": "bc1qsxyhe5s38vdshu88rrx8j8vm6tfyd324l640wa",
        "value": 1270
      },
      "scriptsig": "",
      "scriptsig_asm": "",
      "witness": [
        "30440220533d520a5494253b849b4120d96b6efab8b4ce154d0252b5901f1ec92d928e2b022073e6d5ebc17a5ad71438c1850ef22fa41c2875c9c4f731c0efdc3a945a2d8c7801",
        "021d4033ee84d121ce02c7d7f3dba84139cf68c2287b74f76186c818f153a86e3e"
      ],
      "is_coinbase": false,
      "sequence": 4294967295
    },
    {
      "txid": "054de5be7e677bc49324e4b72a366b3174949fe8ad3ed3f8799546a52ac32129",
      "vout": 1,
      "prevout": {
        "scriptpubkey": "0014189cf87dcee72c1312477ea648141d97db1dd35b",
        "scriptpubkey_asm": "OP_0 OP_PUSHBYTES_20 189cf87dcee72c1312477ea648141d97db1dd35b",
        "scriptpubkey_type": "v0_p2wpkh",
        "scriptpubkey_address": "bc1qrzw0slwwuukpxyj806nys9qajld3m56mxnjftd",
        "value": 6387
      },
      "scriptsig": "",
      "scriptsig_asm": "",
      "witness": [
        "304402200a1e0217cfec329935d282d25ce5620c8bfb1923ea5f85a0fb9cd93f4ce9b9a002202b9ae72c5e22f1c4e70c587df60669c816a48f868e050c6e6a6cf16087d32f7e01",
        "02c08c9567bdfe63cfbf3aaf42c04cb4b3207cf69f53c66d92436209d1aa11bba0"
      ],
      "is_coinbase": false,
      "sequence": 4294967295
    }
  ],
  "vout": [
    {
      "scriptpubkey": "76a914acd783f632ad040fc72d9a06ec17ffb2d8a97a5d88ac",
      "scriptpubkey_asm": "OP_DUP OP_HASH160 OP_PUSHBYTES_20 acd783f632ad040fc72d9a06ec17ffb2d8a97a5d OP_EQUALVERIFY OP_CHECKSIG",
      "scriptpubkey_type": "p2pkh",
      "scriptpubkey_address": "1GkuQGoy1erCJfQKY9AGC75rttCBQRtGer",
      "value": 275995
    },
    {
      "scriptpubkey": "001456789b58e00f0a9e866e2a4ea0b0d97e839c4b0d",
      "scriptpubkey_asm": "OP_0 OP_PUSHBYTES_20 56789b58e00f0a9e866e2a4ea0b0d97e839c4b0d",
      "scriptpubkey_type": "v0_p2wpkh",
      "scriptpubkey_address": "bc1q2eufkk8qpu9fapnw9f82pvxe06pecjcd7ea2x0",
      "value": 1098
    }
  ],
  "size": 544,
  "weight": 1207,
  "fee": 9226,
  "status": {
    "confirmed": true,
    "block_height": 834638,
    "block_hash": "000000000000000000025f742c626208ac87e0b7d15054abb4a19ca2d735a54e",
    "block_time": 1710405325
  },
  "hex": "0200000000010372fdb7ae67491a43b0422c927c8669771a014173f9b1209c2c7ea7198564b30c000000001716001463a498f0b58db8eab95251f52378d78762c53887ffffffffa48fff8c47cc4c9013b4600b275947d6ef69769ee91b39133bb8f931656d657d0100000000ffffffff2921c32aa5469579f8d33eade89f9474316b362ab7e42493c47b677ebee54d050100000000ffffffff021b360400000000001976a914acd783f632ad040fc72d9a06ec17ffb2d8a97a5d88ac4a0400000000000016001456789b58e00f0a9e866e2a4ea0b0d97e839c4b0d02473044022034d52535deba05a93875c46e80abd9ef63a77747a2df09a4f4ef079ffeb20f4802202aebc455faa9841f44bac0e1ef655dd0c063662bfaa05c8fdbf4568563ce0ea2012103fb65d8452a18d09714d6d4a54d3e2b4ad4c1e6ebb8db96d64e2a18a906e85efa024730440220533d520a5494253b849b4120d96b6efab8b4ce154d0252b5901f1ec92d928e2b022073e6d5ebc17a5ad71438c1850ef22fa41c2875c9c4f731c0efdc3a945a2d8c780121021d4033ee84d121ce02c7d7f3dba84139cf68c2287b74f76186c818f153a86e3e0247304402200a1e0217cfec329935d282d25ce5620c8bfb1923ea5f85a0fb9cd93f4ce9b9a002202b9ae72c5e22f1c4e70c587df60669c816a48f868e050c6e6a6cf16087d32f7e012102c08c9567bdfe63cfbf3aaf42c04cb4b3207cf69f53c66d92436209d1aa11bba000000000"
}