{
  "txid": "1256f2aad09dac3361a97edef37c1c4267cc35f064e9ba1ba677993d1b723365",
  "version": 2,
  "locktime": 0,
  "vin": [
    {
      "txid": "8486ecb4df0880316dd6e82b3971b4df187aff23765bc3a47f8d78bb53aa273c",
      "vout": 39,
      "prevout": {
        "scriptpubkey": "51209a5aced46a744eecb2a4d0106981576474c286f96da3c5b201087e0a47aebe24",
        "scriptpubkey_asm": "OP_PUSHNUM_1 OP_PUSHBYTES_32 9a5aced46a744eecb2a4d0106981576474c286f96da3c5b201087e0a47aebe24",
        "scriptpubkey_type": "v1_p2tr",
        "scriptpubkey_address": "bc1pnfdva4r2w38wev4y6qgxnq2hv36v9phedk3utvsppplq53awhcjq66qz6y",
        "value": 2575
      },
      "scriptsig": "",
      "scriptsig_asm": "",
      "witness": [
        "464905ba7321b73cccb201c4849e60c1c3138fed54a8a3f1437f6d3655fb97d524d5cafa8d3ec1576d8d51a3e6a5f921be68727935ba110a43600c64a1638885",
        "20135d7b2c34729169d04dd7709536080192e23f82c4055c2bd13dbd9240ecb4fcac0063036f726401010a746578742f706c61696e00367b2270223a226272632d3230222c226f70223a226d696e74222c227469636b223a2261616161222c22616d74223a223130303030227d68",
        "c1135d7b2c34729169d04dd7709536080192e23f82c4055c2bd13dbd9240ecb4fc"
      ],
      "is_coinbase": false,
      "sequence": 4261412863
    }
  ],
  "vout": [
    {
      "scriptpubkey": "0014ddd7ef12ea6f78edcc1e8e7afa12c01ab59f3339",
      "scriptpubkey_asm": "OP_0 OP_PUSHBYTES_20 ddd7ef12ea6f78edcc1e8e7afa12c01ab59f3339",
      "scriptpubkey_type": "v0_p2wpkh",
      "scriptpubkey_address": "bc1qmht77yh2dauwmnq73ea05ykqr26e7veea8spz6",
      "value": 546
    }
  ],
  "size": 295,
  "weight": 541,
  "fee": 2029,
  "status": {
    "confirmed": true,
    "block_height": 834460,
    "block_hash": "00000000000000000000484a79b643b2524bbce82e5d8a442013fa5b8905ed98",
    "block_time": 1710307468
  },
  "hex": "020000000001013c27aa53bb788d7fa4c35b7623ff7a18dfb471392be8d66d318008dfb4ec86842700000000fffffffd012202000000000000160014ddd7ef12ea6f78edcc1e8e7afa12c01ab59f33390340464905ba7321b73cccb201c4849e60c1c3138fed54a8a3f1437f6d3655fb97d524d5cafa8d3ec1576d8d51a3e6a5f921be68727935ba110a43600c64a16388856e20135d7b2c34729169d04dd7709536080192e23f82c4055c2bd13dbd9240ecb4fcac0063036f726401010a746578742f706c61696e00367b2270223a226272632d3230222c226f70223a226d696e74222c227469636b223a2261616161222c22616d74223a223130303030227d6821c1135d7b2c34729169d04dd7709536080192e23f82c4055c2bd13dbd9240ecb4fc00000000"
}