{
  "txid": "1258be5437a50d58789e1d0c61750adc6da099930dd70c126fb6beb28d3eb6a2",
  "version": 1,
  "locktime": 0,
  "vin": [
    {
      "txid": "2f48758489d71b47896e854714518cf6e51baaca02f6cdf3507d51b0a0ce2ee4",
      "vout": 46,
      "prevout": {
        "scriptpubkey": "001453e9bf30589c8b48509ca3550527e7fc7019a0e2",
        "scriptpubkey_asm": "OP_0 OP_PUSHBYTES_20 53e9bf30589c8b48509ca3550527e7fc7019a0e2",
        "scriptpubkey_type": "v0_p2wpkh",
        "scriptpubkey_address": "bc1q205m7vzcnj95s5yu5d2s2fl8l3cpng8zv3z0pm",
        "value": 648322
      },
      "scriptsig": "",
      "scriptsig_asm": "",
      "witness": [
        "3045022100a31d032741234b814fe13a1c4804ab1ad65670f32ea4d8525fe2c1512f382ca602205f81cab94ea2353342cd42b1e370f48dd4a121567d75aaa8840352a8ea4fdc4c01",
        "03c03c7e193e512f1db418b51db0dc3cdcbea845aeb5db092ca60d96965777fb47"
      ],
      "is_coinbase": false,
      "sequence": 4294967293
    }
  ],
  "vout": [
    {
      "scriptpubkey": "76a91448ff4fa13800fe20624e8f28986907713e65493888ac",
      "scriptpubkey_asm": "OP_DUP OP_HASH160 OP_PUSHBYTES_20 48ff4fa13800fe20624e8f28986907713e654938 OP_EQUALVERIFY OP_CHECKSIG",
      "scriptpubkey_type": "p2pkh",
      "scriptpubkey_address": "17eyW8pTMhpZB4qxs2An6vzE9n1wDo9J4A",
      "value": 647079
    }
  ],
  "size": 195,
  "weight": 450,
  "fee": 1243,
  "status": {
    "confirmed": true,
    "block_height": 834464,
    "block_hash": "0000000000000000000177a0869a911a2b65c9bdcd5a8bcb02b68f305bee848e",
    "block_time": 1710308296
  },
  "hex": "01000000000101e42ecea0b0517d50f3cdf602caaa1be5f68c511447856e89471bd7898475482f2e00000000fdffffff01a7df0900000000001976a91448ff4fa13800fe20624e8f28986907713e65493888ac02483045022100a31d032741234b814fe13a1c4804ab1ad65670f32ea4d8525fe2c1512f382ca602205f81cab94ea2353342cd42b1e370f48dd4a121567d75aaa8840352a8ea4fdc4c012103c03c7e193e512f1db418b51db0dc3cdcbea845aeb5db092ca60d96965777fb4700000000"
}