{
  "txid": "12630f5d1c0c7ce19cda86f9d3e758ffd5828310f5bc60b5f8add0d1c75b4dc1",
  "version": 2,
  "locktime": 0,
  "vin": [
    {
      "txid": "2cf68515fb888237bf45b703643201b80f30d2bb36ab1d73a78f01a83e3b9426",
      "vout": 0,
      "prevout": {
        "scriptpubkey": "0020c8c98a0af8f8a655e9d98a132243ead42d9448c9b09e31e0028904e47384976c",
        "scriptpubkey_asm": "OP_0 OP_PUSHBYTES_32 c8c98a0af8f8a655e9d98a132243ead42d9448c9b09e31e0028904e47384976c",
        "scriptpubkey_type": "v0_p2wsh",
        "scriptpubkey_address": "bc1qeryc5zhclzn9t6we3gfjysl26skegjxfkz0rrcqz3yzwguuyjakqyj3gz2",
        "value": 391509
      },
      "scriptsig": "",
      "scriptsig_asm": "",
      "witness": [
        "3045022100a383bb9f3747458c83c4d63733b5739d15251512d78dc51e0e10fe817229e035022044968b194bcf59025a61341af20a81cc82560c0654c43f9bc107978146a0409901",
        "3044022072d40277aab8e13b62494fff6385498efb9963ecf2ecc62412bee42d2d384890022076d848f47f292a4b95628c35711dbd7d491d61548190b10bcaceda2f3e5d933b01",
        "210280fd47250ebae74cf49ff8daf3460d7943873cf92ff98a44cae11a642f993c80ac646376a914669d4117182dc7cbf28ec010345a5ee3ff68a92888ad76a914bac7c89c3eda677d201bb4da96f36c1d2b68284888ad76a914e2ada0dde6cba9aec736649671578d1131b44bac886776a9147e23cc0b578552d814c24d6232047de7ba48ab2288ad76a914aa636782f76acd926d24f69061794e986cef644b88ad76a91470f9cf8743d93a2126e918432d9956f983e58a16886867210350b6969ca67794abf1a4744d9a14aecdcaff747338ad45f8ff58d76b88fde55168ac"
      ],
      "is_coinbase": false,
      "sequence": 288,
      "inner_witnessscript_asm": "OP_PUSHBYTES_33 0280fd47250ebae74cf49ff8daf3460d7943873cf92ff98a44cae11a642f993c80 OP_CHECKSIG OP_NOTIF OP_IF OP_DUP OP_HASH160 OP_PUSHBYTES_20 669d4117182dc7cbf28ec010345a5ee3ff68a928 OP_EQUALVERIFY OP_CHECKSIGVERIFY OP_DUP OP_HASH160 OP_PUSHBYTES_20 bac7c89c3eda677d201bb4da96f36c1d2b682848 OP_EQUALVERIFY OP_CHECKSIGVERIFY OP_DUP OP_HASH160 OP_PUSHBYTES_20 e2ada0dde6cba9aec736649671578d1131b44bac OP_EQUALVERIFY OP_ELSE OP_DUP OP_HASH160 OP_PUSHBYTES_20 7e23cc0b578552d814c24d6232047de7ba48ab22 OP_EQUALVERIFY OP_CHECKSIGVERIFY OP_DUP OP_HASH160 OP_PUSHBYTES_20 aa636782f76acd926d24f69061794e986cef644b OP_EQUALVERIFY OP_CHECKSIGVERIFY OP_DUP OP_HASH160 OP_PUSHBYTES_20 70f9cf8743d93a2126e918432d9956f983e58a16 OP_EQUALVERIFY OP_ENDIF OP_ELSE OP_PUSHBYTES_33 0350b6969ca67794abf1a4744d9a14aecdcaff747338ad45f8ff58d76b88fde551 OP_ENDIF OP_CHECKSIG"
    }
  ],
  "vout": [
    {
      "scriptpubkey": "0014c9002269e685f5210a933c08708b9e9393cd114b",
      "scriptpubkey_asm": "OP_0 OP_PUSHBYTES_20 c9002269e685f5210a933c08708b9e9393cd114b",
      "scriptpubkey_type": "v0_p2wpkh",
      "scriptpubkey_address": "bc1qeyqzy60xsh6jzz5n8sy8pzu7jwfu6y2t0p27pz",
      "value": 210554
    },
    {
      "scriptpubkey": "00149f8ed1f112046edd5843a48bc605b6acc58d2f55",
      "scriptpubkey_asm": "OP_0 OP_PUSHBYTES_20 9f8ed1f112046edd5843a48bc605b6acc58d2f55",
      "scriptpubkey_type": "v0_p2wpkh",
      "scriptpubkey_address": "bc1qn78drugjq3hd6kzr5j9uvpdk4nzc6t6420pm7k",
      "value": 179308
    }
  ],
  "size": 486,
  "weight": 825,
  "fee": 1647,
  "status": {
    "confirmed": true,
    "block_height": 834464,
    "block_hash": "0000000000000000000177a0869a911a2b65c9bdcd5a8bcb02b68f305bee848e",
    "block_time": 1710308296
  },
  "hex": "0200000000010126943b3ea8018fa7731dab36bbd2300fb801326403b745bf378288fb1585f62c000000000020010000027a36030000000000160014c9002269e685f5210a933c08708b9e9393cd114b6cbc0200000000001600149f8ed1f112046edd5843a48bc605b6acc58d2f5503483045022100a383bb9f3747458c83c4d63733b5739d15251512d78dc51e0e10fe817229e035022044968b194bcf59025a61341af20a81cc82560c0654c43f9bc107978146a0409901473044022072d40277aab8e13b62494fff6385498efb9963ecf2ecc62412bee42d2d384890022076d848f47f292a4b95628c35711dbd7d491d61548190b10bcaceda2f3e5d933b01e0210280fd47250ebae74cf49ff8daf3460d7943873cf92ff98a44cae11a642f993c80ac646376a914669d4117182dc7cbf28ec010345a5ee3ff68a92888ad76a914bac7c89c3eda677d201bb4da96f36c1d2b68284888ad76a914e2ada0dde6cba9aec736649671578d1131b44bac886776a9147e23cc0b578552d814c24d6232047de7ba48ab2288ad76a914aa636782f76acd926d24f69061794e986cef644b88ad76a91470f9cf8743d93a2126e918432d9956f983e58a16886867210350b6969ca67794abf1a4744d9a14aecdcaff747338ad45f8ff58d76b88fde55168ac00000000"
}