{
  "txid": "1270a5bf5bbb42dfb7d0bc9b693bb9e168c4d0d8c692334664fae2429e3efd9c",
  "version": 1,
  "locktime": 0,
  "vin": [
    {
      "txid": "c8df8671f9668ac130fc7765ce316ebbf578b00a1c4d7bcd26f63cd8332ea6e5",
      "vout": 1,
      "prevout": {
        "scriptpubkey": "51209d6dbbf9bad17d0135e06ea56ec304df985f9f9bc809fa52ae6789a0947e0300",
        "scriptpubkey_asm": "OP_PUSHNUM_1 OP_PUSHBYTES_32 9d6dbbf9bad17d0135e06ea56ec304df985f9f9bc809fa52ae6789a0947e0300",
        "scriptpubkey_type": "v1_p2tr",
        "scriptpubkey_address": "bc1pn4kmh7d6697szd0qd6jkascym7v9l8umeqyl554wv7y6p9r7qvqquzkndh",
        "value": 348689
      },
      "scriptsig": "",
      "scriptsig_asm": "",
      "witness": [
        "b06472e1f64165c94ed19d3288c3924b46a3b68e88e8dff04cd27ccc0f7be62649b110dce30418d5a750dce7afb34f9b00ff8db71efbaf762785e694df76b2a6"
      ],
      "is_coinbase": false,
      "sequence": 1879051786
    }
  ],
  "vout": [
    {
      "scriptpubkey": "51204594306cc659ab393203447cc015fa8c767e9dbd1cddd7cd81bd7f1299dfeac8",
      "scriptpubkey_asm": "OP_PUSHNUM_1 OP_PUSHBYTES_32 4594306cc659ab393203447cc015fa8c767e9dbd1cddd7cd81bd7f1299dfeac8",
      "scriptpubkey_type": "v1_p2tr",
      "scriptpubkey_address": "bc1pgk2rqmxxtx4njvsrg37vq90633m8a8darnwa0nvph4l39xwlatyq86ms46",
      "value": 2905
    },
    {
      "scriptpubkey": "51209d6dbbf9bad17d0135e06ea56ec304df985f9f9bc809fa52ae6789a0947e0300",
      "scriptpubkey_asm": "OP_PUSHNUM_1 OP_PUSHBYTES_32 9d6dbbf9bad17d0135e06ea56ec304df985f9f9bc809fa52ae6789a0947e0300",
      "scriptpubkey_type": "v1_p2tr",
      "scriptpubkey_address": "bc1pn4kmh7d6697szd0qd6jkascym7v9l8umeqyl554wv7y6p9r7qvqquzkndh",
      "value": 343782
    }
  ],
  "size": 205,
  "weight": 616,
  "fee": 2002,
  "status": {
    "confirmed": true,
    "block_height": 834460,
    "block_hash": "00000000000000000000484a79b643b2524bbce82e5d8a442013fa5b8905ed98",
    "block_time": 1710307468
  },
  "hex": "01000000000101e5a62e33d83cf626cd7b4d1c0ab078f5bb6e31ce6577fc30c18a66f97186dfc801000000000a0e007002590b0000000000002251204594306cc659ab393203447cc015fa8c767e9dbd1cddd7cd81bd7f1299dfeac8e63e0500000000002251209d6dbbf9bad17d0135e06ea56ec304df985f9f9bc809fa52ae6789a0947e03000140b06472e1f64165c94ed19d3288c3924b46a3b68e88e8dff04cd27ccc0f7be62649b110dce30418d5a750dce7afb34f9b00ff8db71efbaf762785e694df76b2a600000000"
}