{
  "txid": "127716b8e17dd15c3d1f1028fbff69ca3301e060ae65febd72fcf9ad16378366",
  "version": 2,
  "locktime": 0,
  "vin": [
    {
      "txid": "9bdad01a77894e40a80bd7833a8faa475c4198c992d34cb25ae113b8890df1d7",
      "vout": 11,
      "prevout": {
        "scriptpubkey": "0014d936d2a69c90e8885a3180667981f2b787b9459f",
        "scriptpubkey_asm": "OP_0 OP_PUSHBYTES_20 d936d2a69c90e8885a3180667981f2b787b9459f",
        "scriptpubkey_type": "v0_p2wpkh",
        "scriptpubkey_address": "bc1qmymd9f5ujr5gsk33spn8nq0jk7rmj3vl3x2vtd",
        "value": 173334
      },
      "scriptsig": "",
      "scriptsig_asm": "",
      "witness": [
        "3045022100b8e5793a5e404d0728c5188926ddec7f6bbf495f16294a64b30fb5c19e69a8200220724698c51a9277522cc11e3f68104994bf78c91f2c06984aa6851c15771e9d8a01",
        "03da2141d4aa481993ee539dfade8dac8456438d7cc5fb5df3385c691869dab8c6"
      ],
      "is_coinbase": false,
      "sequence": 0
    }
  ],
  "vout": [
    {
      "scriptpubkey": "001438b9cf3939c1e001fa78694bb6336255ad801aee",
      "scriptpubkey_asm": "OP_0 OP_PUSHBYTES_20 38b9cf3939c1e001fa78694bb6336255ad801aee",
      "scriptpubkey_type": "v0_p2wpkh",
      "scriptpubkey_address": "bc1q8zuu7wfec8sqr7ncd99mvvmz2kkcqxhwah20f7",
      "value": 100000
    },
    {
      "scriptpubkey": "00142e7ae6e9cd9e8790ec4bfae8542df8a3d209bb09",
      "scriptpubkey_asm": "OP_0 OP_PUSHBYTES_20 2e7ae6e9cd9e8790ec4bfae8542df8a3d209bb09",
      "scriptpubkey_type": "v0_p2wpkh",
      "scriptpubkey_address": "bc1q9eawd6wdn6repmztlt59gt0c50fqnwcfhd3qml",
      "value": 70823
    }
  ],
  "size": 223,
  "weight": 562,
  "fee": 2511,
  "status": {
    "confirmed": true,
    "block_height": 834638,
    "block_hash": "000000000000000000025f742c626208ac87e0b7d15054abb4a19ca2d735a54e",
    "block_time": 1710405325
  },
  "hex": "02000000000101d7f10d89b813e15ab24cd392c998415c47aa8f3a83d70ba8404e89771ad0da9b0b000000000000000002a08601000000000016001438b9cf3939c1e001fa78694bb6336255ad801aeea7140100000000001600142e7ae6e9cd9e8790ec4bfae8542df8a3d209bb0902483045022100b8e5793a5e404d0728c5188926ddec7f6bbf495f16294a64b30fb5c19e69a8200220724698c51a9277522cc11e3f68104994bf78c91f2c06984aa6851c15771e9d8a012103da2141d4aa481993ee539dfade8dac8456438d7cc5fb5df3385c691869dab8c600000000"
}