{
  "txid": "127ae7c479881992556b4db7dcd780b9a8ddf9e66ad6ba036d0fccc90f92ddfc",
  "version": 1,
  "locktime": 0,
  "vin": [
    {
      "txid": "0ee50cbe2b1f59b90e07497e87b286deb26967db50eeae0847a2b1b9cf9c8449",
      "vout": 9,
      "prevout": {
        "scriptpubkey": "76a914c94336a35d519060779e6ba24c79f1ca936c7e5788ac",
        "scriptpubkey_asm": "OP_DUP OP_HASH160 OP_PUSHBYTES_20 c94336a35d519060779e6ba24c79f1ca936c7e57 OP_EQUALVERIFY OP_CHECKSIG",
        "scriptpubkey_type": "p2pkh",
        "scriptpubkey_address": "1KMBLdUgmAhofDEu6X5J92GRJLKBio7mbw",
        "value": 33000
      },
      "scriptsig": "47304402201ea81570043d33c611abad8c3f7d9ee74d7d6984208bc6333d041ea6635dc84d022028aa51e4a205630e9d9d545e55479d91787ccce11e810d361308c1bf8a6f5351012102e63fc8a7588b9b4b7237d0e2d8a83e276e2abdb1c164cfede23693ac3256c37c",
      "scriptsig_asm": "OP_PUSHBYTES_71 304402201ea81570043d33c611abad8c3f7d9ee74d7d6984208bc6333d041ea6635dc84d022028aa51e4a205630e9d9d545e55479d91787ccce11e810d361308c1bf8a6f535101 OP_PUSHBYTES_33 02e63fc8a7588b9b4b7237d0e2d8a83e276e2abdb1c164cfede23693ac3256c37c",
      "is_coinbase": false,
      "sequence": 4294967295
    }
  ],
  "vout": [
    {
      "scriptpubkey": "0014bf29506cc1e7aa82c7fea15bfabb6aaca42e6062",
      "scriptpubkey_asm": "OP_0 OP_PUSHBYTES_20 bf29506cc1e7aa82c7fea15bfabb6aaca42e6062",
      "scriptpubkey_type": "v0_p2wpkh",
      "scriptpubkey_address": "bc1qhu54qmxpu74g93l759dl4wm24jjzucrzdrsshl",
      "value": 25851
    }
  ],
  "size": 188,
  "weight": 752,
  "fee": 7149,
  "status": {
    "confirmed": true,
    "block_height": 834638,
    "block_hash": "000000000000000000025f742c626208ac87e0b7d15054abb4a19ca2d735a54e",
    "block_time": 1710405325
  },
  "hex": "010000000149849ccfb9b1a24708aeee50db6769b2de86b2877e49070eb9591f2bbe0ce50e090000006a47304402201ea81570043d33c611abad8c3f7d9ee74d7d6984208bc6333d041ea6635dc84d022028aa51e4a205630e9d9d545e55479d91787ccce11e810d361308c1bf8a6f5351012102e63fc8a7588b9b4b7237d0e2d8a83e276e2abdb1c164cfede23693ac3256c37cffffffff01fb64000000000000160014bf29506cc1e7aa82c7fea15bfabb6aaca42e606200000000"
}