{
  "txid": "12806781c7b8efa84ca538d752183cc2bd0852bf0bfb7f5f1f646ef1a18e9cce",
  "version": 1,
  "locktime": 0,
  "vin": [
    {
      "txid": "888888888e40e019a6501b32192f79c8c13e671c5febd25ad9df318e901c9815",
      "vout": 0,
      "prevout": {
        "scriptpubkey": "512039742d67fed8f93a1a949850e2106e1421c30c0c944d3f6ac167ab92b4cba3e2",
        "scriptpubkey_asm": "OP_PUSHNUM_1 OP_PUSHBYTES_32 39742d67fed8f93a1a949850e2106e1421c30c0c944d3f6ac167ab92b4cba3e2",
        "scriptpubkey_type": "v1_p2tr",
        "scriptpubkey_address": "bc1p896z6el7mrun5x55npgwyyrwzssuxrqvj3xn76kpv74e9dxt503qd7dex2",
        "value": 11945
      },
      "scriptsig": "",
      "scriptsig_asm": "",
      "witness": [
        "35247ba643b500a4b85e19d0a3975c9fef8eb0b2be9bdbd58f56a356cf2c7e2e74afb743ddf611bd846a8793bdc6c519bbc0799b5a0713118a67b3ec651d2bd2",
        "2055dd2fdc99df63aa338ccefb97ebddf2a6facf55860239b79fc356fae080b725ac00630461746f6d03646d741ca16461726773a16b6d696e745f7469636b657268696e66696e69747968",
        "c055dd2fdc99df63aa338ccefb97ebddf2a6facf55860239b79fc356fae080b725"
      ],
      "is_coinbase": false,
      "sequence": 4294967295
    }
  ],
  "vout": [
    {
      "scriptpubkey": "51200f63e0fd3c814e9525a93ed5f1dfcc5778fb1e9075e4c9cecdabc220d4b26026",
      "scriptpubkey_asm": "OP_PUSHNUM_1 OP_PUSHBYTES_32 0f63e0fd3c814e9525a93ed5f1dfcc5778fb1e9075e4c9cecdabc220d4b26026",
      "scriptpubkey_type": "v1_p2tr",
      "scriptpubkey_address": "bc1ppa37plfus98f2fdf8m2lrh7v2au0k85swhjvnnkd40pzp49jvqnqxjlhcp",
      "value": 9999
    }
  ],
  "size": 272,
  "weight": 554,
  "fee": 1946,
  "status": {
    "confirmed": true,
    "block_height": 834552,
    "block_hash": "00000000000000000001dd0468a70c94f619251d286585cff57aeb4bd9ede330",
    "block_time": 1710355598
  },
  "hex": "0100000000010115981c908e31dfd95ad2eb5f1c673ec1c8792f19321b50a619e0408e888888880000000000ffffffff010f270000000000002251200f63e0fd3c814e9525a93ed5f1dfcc5778fb1e9075e4c9cecdabc220d4b26026034035247ba643b500a4b85e19d0a3975c9fef8eb0b2be9bdbd58f56a356cf2c7e2e74afb743ddf611bd846a8793bdc6c519bbc0799b5a0713118a67b3ec651d2bd24b2055dd2fdc99df63aa338ccefb97ebddf2a6facf55860239b79fc356fae080b725ac00630461746f6d03646d741ca16461726773a16b6d696e745f7469636b657268696e66696e6974796821c055dd2fdc99df63aa338ccefb97ebddf2a6facf55860239b79fc356fae080b72500000000"
}