{
  "txid": "1286458756197647e666f30b00951c4b8f9033c3f8708659fcacb9f87c99acbd",
  "version": 2,
  "locktime": 0,
  "vin": [
    {
      "txid": "80bf6b9feaeba53ac4bcdb7f7f1d7ae501575d333700eedf1b9d6e4d291d0ac9",
      "vout": 1,
      "prevout": {
        "scriptpubkey": "5120722561ca0fd8ca97c56394b4734d554d914d3cae7707152eb98f2481d0c9cfed",
        "scriptpubkey_asm": "OP_PUSHNUM_1 OP_PUSHBYTES_32 722561ca0fd8ca97c56394b4734d554d914d3cae7707152eb98f2481d0c9cfed",
        "scriptpubkey_type": "v1_p2tr",
        "scriptpubkey_address": "bc1pwgjkrjs0mr9f03trjj68xn24fkg5609wwur32t4e3ujgr5xfelksss9uga",
        "value": 2996
      },
      "scriptsig": "",
      "scriptsig_asm": "",
      "witness": [
        "e550255dad33882a0991b8e6471aa3611fa25201ad9b8f5b7736626d3bebbde7a198d09940106ddcf6349de1c61ca968345ceefd703d86d983ac16f9c30279f3",
        "20f5a245e3baf0ba527a5185fa8ba77c5896e1b03429d0372af206abbe1594b53cac0063036f726401011e6170706c69636174696f6e2f6a736f6e3b636861727365743d7574662d38004cb77b2270223a22706f772d3230222c226f70223a226d696e74222c227469636b223a2250455045222c22616d74223a2231303030222c22736f6c7574696f6e223a22504550453a33436356314e345555394c45747331374e777553577966396e746845757a714c56513a303030303030303030303030303030303030303139393431613561653132383937363539383134343239323533333030353762306461393666336465613163353a3232383234343434313335227d68",
        "c0622ec7e628951f40268acf3dd3204d289dcdec54c93410598d2e422c74fc82f1"
      ],
      "is_coinbase": false,
      "sequence": 4294967295
    }
  ],
  "vout": [
    {
      "scriptpubkey": "a91477cde961f942d709292278892ca2683896bce9ef87",
      "scriptpubkey_asm": "OP_HASH160 OP_PUSHBYTES_20 77cde961f942d709292278892ca2683896bce9ef OP_EQUAL",
      "scriptpubkey_type": "p2sh",
      "scriptpubkey_address": "3CcV1N4UU9LEts17NwuSWyf9nthEuzqLVQ",
      "value": 546
    }
  ],
  "size": 448,
  "weight": 697,
  "fee": 2450,
  "status": {
    "confirmed": true,
    "block_height": 834460,
    "block_hash": "00000000000000000000484a79b643b2524bbce82e5d8a442013fa5b8905ed98",
    "block_time": 1710307468
  },
  "hex": "02000000000101c90a1d294d6e9d1bdfee0037335d5701e57a1d7f7fdbbcc43aa5ebea9f6bbf800100000000ffffffff01220200000000000017a91477cde961f942d709292278892ca2683896bce9ef870340e550255dad33882a0991b8e6471aa3611fa25201ad9b8f5b7736626d3bebbde7a198d09940106ddcf6349de1c61ca968345ceefd703d86d983ac16f9c30279f3fd040120f5a245e3baf0ba527a5185fa8ba77c5896e1b03429d0372af206abbe1594b53cac0063036f726401011e6170706c69636174696f6e2f6a736f6e3b636861727365743d7574662d38004cb77b2270223a22706f772d3230222c226f70223a226d696e74222c227469636b223a2250455045222c22616d74223a2231303030222c22736f6c7574696f6e223a22504550453a33436356314e345555394c45747331374e777553577966396e746845757a714c56513a303030303030303030303030303030303030303139393431613561653132383937363539383134343239323533333030353762306461393666336465613163353a3232383234343434313335227d6821c0622ec7e628951f40268acf3dd3204d289dcdec54c93410598d2e422c74fc82f100000000"
}