{
  "txid": "129214ab7894404fa1382add75aaad04d344569c0d4f7bc11cb8352a332b80be",
  "version": 2,
  "locktime": 0,
  "vin": [
    {
      "txid": "ee6f6e75bc7692dbef704aecb0a5ff34bc1280efa94f2b7103601182dd0a341a",
      "vout": 4,
      "prevout": {
        "scriptpubkey": "5120f61350c06cc3dba66533dd404be69291e4e842bbf18c412cf7fb70e773da7159",
        "scriptpubkey_asm": "OP_PUSHNUM_1 OP_PUSHBYTES_32 f61350c06cc3dba66533dd404be69291e4e842bbf18c412cf7fb70e773da7159",
        "scriptpubkey_type": "v1_p2tr",
        "scriptpubkey_address": "bc1p7cf4psrvc0d6vefnm4qyhe5jj8jwss4m7xxyzt8hldcwwu76w9vsdara49",
        "value": 600
      },
      "scriptsig": "",
      "scriptsig_asm": "",
      "witness": [
        "af383b87f98a4eb974a865a31ac3151a818b6438d6c4f0a3de6461738810235043050fda0d021a3e939017bfb9dc7730a98558a06431b097f8ae70ca905852a9"
      ],
      "is_coinbase": false,
      "sequence": 4294967295
    },
    {
      "txid": "ee6f6e75bc7692dbef704aecb0a5ff34bc1280efa94f2b7103601182dd0a341a",
      "vout": 3,
      "prevout": {
        "scriptpubkey": "5120f61350c06cc3dba66533dd404be69291e4e842bbf18c412cf7fb70e773da7159",
        "scriptpubkey_asm": "OP_PUSHNUM_1 OP_PUSHBYTES_32 f61350c06cc3dba66533dd404be69291e4e842bbf18c412cf7fb70e773da7159",
        "scriptpubkey_type": "v1_p2tr",
        "scriptpubkey_address": "bc1p7cf4psrvc0d6vefnm4qyhe5jj8jwss4m7xxyzt8hldcwwu76w9vsdara49",
        "value": 600
      },
      "scriptsig": "",
      "scriptsig_asm": "",
      "witness": [
        "326ed4d3a8d3ef0e0e1cc85e31f7a3334c9045f93413e1c83ecaa4ce44c1fbc81ce1f947b82db5807855bd65f598077a0796f3b26e397bae3994d5337c6e662c"
      ],
      "is_coinbase": false,
      "sequence": 4294967295
    },
    {
      "txid": "c0c27be7a1e0b7d1805c52d0c9a379d73da25757d92366ca1c56bba163712b10",
      "vout": 0,
      "prevout": {
        "scriptpubkey": "51205233fa67d3255590f7e18458d6806ecb4173e3b56692d967710f6258bfebf95f",
        "scriptpubkey_asm": "OP_PUSHNUM_1 OP_PUSHBYTES_32 5233fa67d3255590f7e18458d6806ecb4173e3b56692d967710f6258bfebf95f",
        "scriptpubkey_type": "v1_p2tr",
        "scriptpubkey_address": "bc1p2gel5e7ny42epalps3vddqrwedqh8ca4v6fdjem3pa3930ltl90s2cfg6e",
        "value": 546
      },
      "scriptsig": "",
      "scriptsig_asm": "",
      "witness": [
        "5b594c3146b668aaa78ba4056369d1ab32f37913c04e93cc7aed4e4e160af712ca0ecc23dea75c06271cb994fc18f77c19ba96783788bb5a55aa06c70bb0ece483"
      ],
      "is_coinbase": false,
      "sequence": 4294967295
    },
    {
      "txid": "ee6f6e75bc7692dbef704aecb0a5ff34bc1280efa94f2b7103601182dd0a341a",
      "vout": 5,
      "prevout": {
        "scriptpubkey": "5120f61350c06cc3dba66533dd404be69291e4e842bbf18c412cf7fb70e773da7159",
        "scriptpubkey_asm": "OP_PUSHNUM_1 OP_PUSHBYTES_32 f61350c06cc3dba66533dd404be69291e4e842bbf18c412cf7fb70e773da7159",
        "scriptpubkey_type": "v1_p2tr",
        "scriptpubkey_address": "bc1p7cf4psrvc0d6vefnm4qyhe5jj8jwss4m7xxyzt8hldcwwu76w9vsdara49",
        "value": 495873
      },
      "scriptsig": "",
      "scriptsig_asm": "",
      "witness": [
        "c9292778a4ec0eabc0db0200dc54bcdee7bbca0f17f2f99cb9be3bb9c9b5ec87e04fecc3d8394b1c55f7198d07cb137dd43244f3c69f72189e67646f6c07a815"
      ],
      "is_coinbase": false,
      "sequence": 4294967295
    }
  ],
  "vout": [
    {
      "scriptpubkey": "5120f61350c06cc3dba66533dd404be69291e4e842bbf18c412cf7fb70e773da7159",
      "scriptpubkey_asm": "OP_PUSHNUM_1 OP_PUSHBYTES_32 f61350c06cc3dba66533dd404be69291e4e842bbf18c412cf7fb70e773da7159",
      "scriptpubkey_type": "v1_p2tr",
      "scriptpubkey_address": "bc1p7cf4psrvc0d6vefnm4qyhe5jj8jwss4m7xxyzt8hldcwwu76w9vsdara49",
      "value": 1200
    },
    {
      "scriptpubkey": "5120f61350c06cc3dba66533dd404be69291e4e842bbf18c412cf7fb70e773da7159",
      "scriptpubkey_asm": "OP_PUSHNUM_1 OP_PUSHBYTES_32 f61350c06cc3dba66533dd404be69291e4e842bbf18c412cf7fb70e773da7159",
      "scriptpubkey_type": "v1_p2tr",
      "scriptpubkey_address": "bc1p7cf4psrvc0d6vefnm4qyhe5jj8jwss4m7xxyzt8hldcwwu76w9vsdara49",
      "value": 546
    },
    {
      "scriptpubkey": "51205233fa67d3255590f7e18458d6806ecb4173e3b56692d967710f6258bfebf95f",
      "scriptpubkey_asm": "OP_PUSHNUM_1 OP_PUSHBYTES_32 5233fa67d3255590f7e18458d6806ecb4173e3b56692d967710f6258bfebf95f",
      "scriptpubkey_type": "v1_p2tr",
      "scriptpubkey_address": "bc1p2gel5e7ny42epalps3vddqrwedqh8ca4v6fdjem3pa3930ltl90s2cfg6e",
      "value": 448888
    },
    {
      "scriptpubkey": "5120f61350c06cc3dba66533dd404be69291e4e842bbf18c412cf7fb70e773da7159",
      "scriptpubkey_asm": "OP_PUSHNUM_1 OP_PUSHBYTES_32 f61350c06cc3dba66533dd404be69291e4e842bbf18c412cf7fb70e773da7159",
      "scriptpubkey_type": "v1_p2tr",
      "scriptpubkey_address": "bc1p7cf4psrvc0d6vefnm4qyhe5jj8jwss4m7xxyzt8hldcwwu76w9vsdara49",
      "value": 600
    },
    {
      "scriptpubkey": "5120f61350c06cc3dba66533dd404be69291e4e842bbf18c412cf7fb70e773da7159",
      "scriptpubkey_asm": "OP_PUSHNUM_1 OP_PUSHBYTES_32 f61350c06cc3dba66533dd404be69291e4e842bbf18c412cf7fb70e773da7159",
      "scriptpubkey_type": "v1_p2tr",
      "scriptpubkey_address": "bc1p7cf4psrvc0d6vefnm4qyhe5jj8jwss4m7xxyzt8hldcwwu76w9vsdara49",
      "value": 600
    },
    {
      "scriptpubkey": "5120f61350c06cc3dba66533dd404be69291e4e842bbf18c412cf7fb70e773da7159",
      "scriptpubkey_asm": "OP_PUSHNUM_1 OP_PUSHBYTES_32 f61350c06cc3dba66533dd404be69291e4e842bbf18c412cf7fb70e773da7159",
      "scriptpubkey_type": "v1_p2tr",
      "scriptpubkey_address": "bc1p7cf4psrvc0d6vefnm4qyhe5jj8jwss4m7xxyzt8hldcwwu76w9vsdara49",
      "value": 36803
    }
  ],
  "size": 699,
  "weight": 1995,
  "fee": 8982,
  "status": {
    "confirmed": true,
    "block_height": 834638,
    "block_hash": "000000000000000000025f742c626208ac87e0b7d15054abb4a19ca2d735a54e",
    "block_time": 1710405325
  },
  "hex": "020000000001041a340add82116003712b4fa9ef8012bc34ffa5b0ec4a70efdb9276bc756e6fee0400000000ffffffff1a340add82116003712b4fa9ef8012bc34ffa5b0ec4a70efdb9276bc756e6fee0300000000ffffffff102b7163a1bb561cca6623d95757a23dd779a3c9d0525c80d1b7e0a1e77bc2c00000000000ffffffff1a340add82116003712b4fa9ef8012bc34ffa5b0ec4a70efdb9276bc756e6fee0500000000ffffffff06b004000000000000225120f61350c06cc3dba66533dd404be69291e4e842bbf18c412cf7fb70e773da71592202000000000000225120f61350c06cc3dba66533dd404be69291e4e842bbf18c412cf7fb70e773da715978d90600000000002251205233fa67d3255590f7e18458d6806ecb4173e3b56692d967710f6258bfebf95f5802000000000000225120f61350c06cc3dba66533dd404be69291e4e842bbf18c412cf7fb70e773da71595802000000000000225120f61350c06cc3dba66533dd404be69291e4e842bbf18c412cf7fb70e773da7159c38f000000000000225120f61350c06cc3dba66533dd404be69291e4e842bbf18c412cf7fb70e773da71590140af383b87f98a4eb974a865a31ac3151a818b6438d6c4f0a3de6461738810235043050fda0d021a3e939017bfb9dc7730a98558a06431b097f8ae70ca905852a90140326ed4d3a8d3ef0e0e1cc85e31f7a3334c9045f93413e1c83ecaa4ce44c1fbc81ce1f947b82db5807855bd65f598077a0796f3b26e397bae3994d5337c6e662c01415b594c3146b668aaa78ba4056369d1ab32f37913c04e93cc7aed4e4e160af712ca0ecc23dea75c06271cb994fc18f77c19ba96783788bb5a55aa06c70bb0ece4830140c9292778a4ec0eabc0db0200dc54bcdee7bbca0f17f2f99cb9be3bb9c9b5ec87e04fecc3d8394b1c55f7198d07cb137dd43244f3c69f72189e67646f6c07a81500000000"
}