{
  "txid": "12a32fbb6f1d8785290fca81c9479b351fa8df646dfa4072fc91e5cec339de14",
  "version": 1,
  "locktime": 0,
  "vin": [
    {
      "txid": "198ab5bed7edd73abb33d4dac121cba92a362f3350e1ac559b9be84a7dac619a",
      "vout": 11,
      "prevout": {
        "scriptpubkey": "76a914c8e3fc772300695aa3c75798c6ce965b1e88438f88ac",
        "scriptpubkey_asm": "OP_DUP OP_HASH160 OP_PUSHBYTES_20 c8e3fc772300695aa3c75798c6ce965b1e88438f OP_EQUALVERIFY OP_CHECKSIG",
        "scriptpubkey_type": "p2pkh",
        "scriptpubkey_address": "1KKDG8Dj5saox1Tm4tsUywW6nV8Vf1JSfs",
        "value": 175775
      },
      "scriptsig": "483045022100f660af4062d1c448fb49e651ff38c8b7cb5296bbce15f20a51093fa70848a99f022023576e9ed9de6bab6d8485798f8faa4977feced74eede4f848eacde84cf14269012102debe69750dadf241ee223bd7b1e5f1c474934081c85fddac0eea7d74a368fe4d",
      "scriptsig_asm": "OP_PUSHBYTES_72 3045022100f660af4062d1c448fb49e651ff38c8b7cb5296bbce15f20a51093fa70848a99f022023576e9ed9de6bab6d8485798f8faa4977feced74eede4f848eacde84cf1426901 OP_PUSHBYTES_33 02debe69750dadf241ee223bd7b1e5f1c474934081c85fddac0eea7d74a368fe4d",
      "is_coinbase": false,
      "sequence": 4294967295
    }
  ],
  "vout": [
    {
      "scriptpubkey": "a9148c0f818c36c9a62cd2d8a3de741a4c8fd806806a87",
      "scriptpubkey_asm": "OP_HASH160 OP_PUSHBYTES_20 8c0f818c36c9a62cd2d8a3de741a4c8fd806806a OP_EQUAL",
      "scriptpubkey_type": "p2sh",
      "scriptpubkey_address": "3ETb6n8frJHxCyLqUhV2GvU7XjjFaHCovp",
      "value": 159200
    },
    {
      "scriptpubkey": "0014530a6c6d7a110a27f85d239012a99633acd6b627",
      "scriptpubkey_asm": "OP_0 OP_PUSHBYTES_20 530a6c6d7a110a27f85d239012a99633acd6b627",
      "scriptpubkey_type": "v0_p2wpkh",
      "scriptpubkey_address": "bc1q2v9xcmt6zy9z07zaywgp92vkxwkddd38eyudgr",
      "value": 10803
    }
  ],
  "size": 221,
  "weight": 884,
  "fee": 5772,
  "status": {
    "confirmed": true,
    "block_height": 834638,
    "block_hash": "000000000000000000025f742c626208ac87e0b7d15054abb4a19ca2d735a54e",
    "block_time": 1710405325
  },
  "hex": "01000000019a61ac7d4ae89b9b55ace150332f362aa9cb21c1dad433bb3ad7edd7beb58a190b0000006b483045022100f660af4062d1c448fb49e651ff38c8b7cb5296bbce15f20a51093fa70848a99f022023576e9ed9de6bab6d8485798f8faa4977feced74eede4f848eacde84cf14269012102debe69750dadf241ee223bd7b1e5f1c474934081c85fddac0eea7d74a368fe4dffffffff02e06d02000000000017a9148c0f818c36c9a62cd2d8a3de741a4c8fd806806a87332a000000000000160014530a6c6d7a110a27f85d239012a99633acd6b62700000000"
}