{
  "txid": "12a6bff9d294949afd4e5d8188531666e9df4ac951527ff4faa161a35c03b8d9",
  "version": 2,
  "locktime": 0,
  "vin": [
    {
      "txid": "8bb8cd6ee300655515c0084552544b080fc367fe01f301c73a6aadedeca092d4",
      "vout": 0,
      "prevout": {
        "scriptpubkey": "51200a08cc4185dd28c9aecdb073704a0b6420d4c4fd6773c84d077662e242422da2",
        "scriptpubkey_asm": "OP_PUSHNUM_1 OP_PUSHBYTES_32 0a08cc4185dd28c9aecdb073704a0b6420d4c4fd6773c84d077662e242422da2",
        "scriptpubkey_type": "v1_p2tr",
        "scriptpubkey_address": "bc1ppgyvcsv9m55vntkdkpehqjstvssdf38avaeusng8we3wysjz9k3qrcj8yt",
        "value": 1000000
      },
      "scriptsig": "",
      "scriptsig_asm": "",
      "witness": [
        "10a1132c89bce828a8b19c1482f1010c5b48a9afea93a113048a9960d955d01d7c66f6bd9e396bc71e24a141374253fc9abc4ac40681e7132f38dd5ba178ed47"
      ],
      "is_coinbase": false,
      "sequence": 4294967295
    },
    {
      "txid": "c984ad38fd5a63e8da2fd788679d13e761e428f84800fabc4596eb6ddfc880c7",
      "vout": 0,
      "prevout": {
        "scriptpubkey": "51200a08cc4185dd28c9aecdb073704a0b6420d4c4fd6773c84d077662e242422da2",
        "scriptpubkey_asm": "OP_PUSHNUM_1 OP_PUSHBYTES_32 0a08cc4185dd28c9aecdb073704a0b6420d4c4fd6773c84d077662e242422da2",
        "scriptpubkey_type": "v1_p2tr",
        "scriptpubkey_address": "bc1ppgyvcsv9m55vntkdkpehqjstvssdf38avaeusng8we3wysjz9k3qrcj8yt",
        "value": 1000000
      },
      "scriptsig": "",
      "scriptsig_asm": "",
      "witness": [
        "16d7a23f904a9e9945aaeba3345b04b67bf5d4c86c36d195eebb57f458088d5ee7dd3ccd010084d66385bbe3497d0eeb669e0c1d01e4bd6436ccb85bf7d5e82b"
      ],
      "is_coinbase": false,
      "sequence": 4294967295
    },
    {
      "txid": "6ad9406912975bcc3fd50dc2e47d78cb4f43fab67316ff6dac0514e3e3655650",
      "vout": 6,
      "prevout": {
        "scriptpubkey": "51200a08cc4185dd28c9aecdb073704a0b6420d4c4fd6773c84d077662e242422da2",
        "scriptpubkey_asm": "OP_PUSHNUM_1 OP_PUSHBYTES_32 0a08cc4185dd28c9aecdb073704a0b6420d4c4fd6773c84d077662e242422da2",
        "scriptpubkey_type": "v1_p2tr",
        "scriptpubkey_address": "bc1ppgyvcsv9m55vntkdkpehqjstvssdf38avaeusng8we3wysjz9k3qrcj8yt",
        "value": 56576
      },
      "scriptsig": "",
      "scriptsig_asm": "",
      "witness": [
        "1e4ffc0abc03085361f4e7d5fc7f6ed6321889735e40370f835202625e7a49d2fda7a614f6259b0757e5d0f00be22b15fc10ac82d98bd38964a0d8e2acfe0297"
      ],
      "is_coinbase": false,
      "sequence": 4294967295
    }
  ],
  "vout": [
    {
      "scriptpubkey": "5120a02a360f8cef672d1ade30396eaaae59e2ead0c2b727bf3e74c5ed88cc673230",
      "scriptpubkey_asm": "OP_PUSHNUM_1 OP_PUSHBYTES_32 a02a360f8cef672d1ade30396eaaae59e2ead0c2b727bf3e74c5ed88cc673230",
      "scriptpubkey_type": "v1_p2tr",
      "scriptpubkey_address": "bc1p5q4rvruvaanj6xk7xquka24wt83w45xzkunm70n5chkc3nr8xgcqkpnc24",
      "value": 2000000
    },
    {
      "scriptpubkey": "51200a08cc4185dd28c9aecdb073704a0b6420d4c4fd6773c84d077662e242422da2",
      "scriptpubkey_asm": "OP_PUSHNUM_1 OP_PUSHBYTES_32 0a08cc4185dd28c9aecdb073704a0b6420d4c4fd6773c84d077662e242422da2",
      "scriptpubkey_type": "v1_p2tr",
      "scriptpubkey_address": "bc1ppgyvcsv9m55vntkdkpehqjstvssdf38avaeusng8we3wysjz9k3qrcj8yt",
      "value": 53079
    }
  ],
  "size": 419,
  "weight": 1076,
  "fee": 3497,
  "status": {
    "confirmed": true,
    "block_height": 834460,
    "block_hash": "00000000000000000000484a79b643b2524bbce82e5d8a442013fa5b8905ed98",
    "block_time": 1710307468
  },
  "hex": "02000000000103d492a0ecedad6a3ac701f301fe67c30f084b54524508c015556500e36ecdb88b0000000000ffffffffc780c8df6deb9645bcfa0048f828e461e7139d6788d72fdae8635afd38ad84c90000000000ffffffff505665e3e31405ac6dff1673b6fa434fcb787de4c20dd53fcc5b97126940d96a0600000000ffffffff0280841e0000000000225120a02a360f8cef672d1ade30396eaaae59e2ead0c2b727bf3e74c5ed88cc67323057cf0000000000002251200a08cc4185dd28c9aecdb073704a0b6420d4c4fd6773c84d077662e242422da2014010a1132c89bce828a8b19c1482f1010c5b48a9afea93a113048a9960d955d01d7c66f6bd9e396bc71e24a141374253fc9abc4ac40681e7132f38dd5ba178ed47014016d7a23f904a9e9945aaeba3345b04b67bf5d4c86c36d195eebb57f458088d5ee7dd3ccd010084d66385bbe3497d0eeb669e0c1d01e4bd6436ccb85bf7d5e82b01401e4ffc0abc03085361f4e7d5fc7f6ed6321889735e40370f835202625e7a49d2fda7a614f6259b0757e5d0f00be22b15fc10ac82d98bd38964a0d8e2acfe029700000000"
}