{
  "txid": "12b1e8304da65a1d9dc6f6ef9c23015678c25188ccc22f86d44ff8858d0279ad",
  "version": 2,
  "locktime": 834230,
  "vin": [
    {
      "txid": "46da8dd761937b8b96b6a19ddc9187f622d90707094e7cafc13d9aaeae1dc095",
      "vout": 5,
      "prevout": {
        "scriptpubkey": "0014f250b62979ff3b67a3dd2ad50e4fe9acc2d8eaa8",
        "scriptpubkey_asm": "OP_0 OP_PUSHBYTES_20 f250b62979ff3b67a3dd2ad50e4fe9acc2d8eaa8",
        "scriptpubkey_type": "v0_p2wpkh",
        "scriptpubkey_address": "bc1q7fgtv2teluak0g7a9t2sunlf4npd364gu0nh6v",
        "value": 430491
      },
      "scriptsig": "",
      "scriptsig_asm": "",
      "witness": [
        "30450221009003e3154a35ccdf4bbf2e05212d2b4ef2826c7cf5acb20182ac3c944f734bee0220473f724b2007083fecd5b2c6e9236ef44952ef053ab174d9d8c7fbe3b383a33a01",
        "02fd765a81055407537e672d47c58d1b16abb32100874135b8a408e02285eab3c1"
      ],
      "is_coinbase": false,
      "sequence": 4294967293
    }
  ],
  "vout": [
    {
      "scriptpubkey": "0014a41e4c18c547853a3e49bab6e198e9e5d225d56b",
      "scriptpubkey_asm": "OP_0 OP_PUSHBYTES_20 a41e4c18c547853a3e49bab6e198e9e5d225d56b",
      "scriptpubkey_type": "v0_p2wpkh",
      "scriptpubkey_address": "bc1q5s0ycxx9g7zn50jfh2mwrx8fuhfzt4ttku5uxf",
      "value": 117141
    },
    {
      "scriptpubkey": "0014cd7dcd81b562435f7abd46206a3f181e9795e523",
      "scriptpubkey_asm": "OP_0 OP_PUSHBYTES_20 cd7dcd81b562435f7abd46206a3f181e9795e523",
      "scriptpubkey_type": "v0_p2wpkh",
      "scriptpubkey_address": "bc1qe47umqd4vfp4774agcsx50ccr6tetefrfgevww",
      "value": 311799
    }
  ],
  "size": 223,
  "weight": 562,
  "fee": 1551,
  "status": {
    "confirmed": true,
    "block_height": 834464,
    "block_hash": "0000000000000000000177a0869a911a2b65c9bdcd5a8bcb02b68f305bee848e",
    "block_time": 1710308296
  },
  "hex": "0200000000010195c01daeae9a3dc1af7c4e090707d922f68791dc9da1b6968b7b9361d78dda460500000000fdffffff0295c9010000000000160014a41e4c18c547853a3e49bab6e198e9e5d225d56bf7c1040000000000160014cd7dcd81b562435f7abd46206a3f181e9795e523024830450221009003e3154a35ccdf4bbf2e05212d2b4ef2826c7cf5acb20182ac3c944f734bee0220473f724b2007083fecd5b2c6e9236ef44952ef053ab174d9d8c7fbe3b383a33a012102fd765a81055407537e672d47c58d1b16abb32100874135b8a408e02285eab3c1b6ba0c00"
}