{
  "txid": "12e7cf76adefc7acfef1a44b2d1236be6fe5057e017034cf7152971916e986f4",
  "version": 2,
  "locktime": 0,
  "vin": [
    {
      "txid": "ac7406ad7e2c738ac3cfecb707b17d638a8f2b6dfcc83e7fca8fb440c437366b",
      "vout": 0,
      "prevout": {
        "scriptpubkey": "a91482c55108792f48f613f7184b1c1542eb10bd73bc87",
        "scriptpubkey_asm": "OP_HASH160 OP_PUSHBYTES_20 82c55108792f48f613f7184b1c1542eb10bd73bc OP_EQUAL",
        "scriptpubkey_type": "p2sh",
        "scriptpubkey_address": "3DcU9GuB4pcL9UEJ1YvYziUAUaYk7uRvtr",
        "value": 150000
      },
      "scriptsig": "160014172a9c6af0e6aa4a7bb31c817249a807752bfaa6",
      "scriptsig_asm": "OP_PUSHBYTES_22 0014172a9c6af0e6aa4a7bb31c817249a807752bfaa6",
      "witness": [
        "3045022100dd94ad2e9dd5d9a3ef0bcb4b84d372f55bde828132f1845dd58c3c33be02e86202200f09e843eaad7d4e269abf2af99f90e7f71d04ec842fc31fdb85dd5b2c0d50ce01",
        "035510895df9d000b0072e9eeef4128e7a1ef94b0cfb2d1dc11f5152912dd4db22"
      ],
      "is_coinbase": false,
      "sequence": 4294967293,
      "inner_redeemscript_asm": "OP_0 OP_PUSHBYTES_20 172a9c6af0e6aa4a7bb31c817249a807752bfaa6"
    },
    {
      "txid": "f90df20623b7c632c6be77bfefeb3b3e9b35bad006a08a863ac91203f52491bc",
      "vout": 0,
      "prevout": {
        "scriptpubkey": "a91482c55108792f48f613f7184b1c1542eb10bd73bc87",
        "scriptpubkey_asm": "OP_HASH160 OP_PUSHBYTES_20 82c55108792f48f613f7184b1c1542eb10bd73bc OP_EQUAL",
        "scriptpubkey_type": "p2sh",
        "scriptpubkey_address": "3DcU9GuB4pcL9UEJ1YvYziUAUaYk7uRvtr",
        "value": 150000
      },
      "scriptsig": "160014172a9c6af0e6aa4a7bb31c817249a807752bfaa6",
      "scriptsig_asm": "OP_PUSHBYTES_22 0014172a9c6af0e6aa4a7bb31c817249a807752bfaa6",
      "witness": [
        "30450221009841c863a9482b21f5f64e35438a2231d9e850090032a5e3417c33e0468284330220450cf0e96fc027f5ca00074644061a65c69965801daa44f265382ddd9687353201",
        "035510895df9d000b0072e9eeef4128e7a1ef94b0cfb2d1dc11f5152912dd4db22"
      ],
      "is_coinbase": false,
      "sequence": 4294967293,
      "inner_redeemscript_asm": "OP_0 OP_PUSHBYTES_20 172a9c6af0e6aa4a7bb31c817249a807752bfaa6"
    },
    {
      "txid": "6c016c355360ef1b114182549599a8d5d4f0203a652c961a273403332233afaa",
      "vout": 0,
      "prevout": {
        "scriptpubkey": "5120c6b0a8ee979e76d7986b771ae85cb022c33be9f500c6562c88b231c3f0a32484",
        "scriptpubkey_asm": "OP_PUSHNUM_1 OP_PUSHBYTES_32 c6b0a8ee979e76d7986b771ae85cb022c33be9f500c6562c88b231c3f0a32484",
        "scriptpubkey_type": "v1_p2tr",
        "scriptpubkey_address": "bc1pc6c23m5hnemd0xrtwudwsh9sytpnh604qrr9vtygkgcu8u9ryjzqgxw6sn",
        "value": 1000
      },
      "scriptsig": "",
      "scriptsig_asm": "",
      "witness": [
        "52046127ab0e945bfb9e87d5b5c6c578a757297a342c02944af4bb15e4b5b7d34b0f4c7c7a1e2aaabcbedc34d23add4e85f0acffd05af1322071a7d3c8dbec5a83"
      ],
      "is_coinbase": false,
      "sequence": 4294967293
    },
    {
      "txid": "8c926afd1610019cac99cc19c729c6cf7f6c05fce988f49e19d40cf901e2fd22",
      "vout": 0,
      "prevout": {
        "scriptpubkey": "a91482c55108792f48f613f7184b1c1542eb10bd73bc87",
        "scriptpubkey_asm": "OP_HASH160 OP_PUSHBYTES_20 82c55108792f48f613f7184b1c1542eb10bd73bc OP_EQUAL",
        "scriptpubkey_type": "p2sh",
        "scriptpubkey_address": "3DcU9GuB4pcL9UEJ1YvYziUAUaYk7uRvtr",
        "value": 150000
      },
      "scriptsig": "160014172a9c6af0e6aa4a7bb31c817249a807752bfaa6",
      "scriptsig_asm": "OP_PUSHBYTES_22 0014172a9c6af0e6aa4a7bb31c817249a807752bfaa6",
      "witness": [
        "3045022100d0a4e09fd16a90de537d0b9fe0bc5af4d12cbba9fd9db928fa87804d29f9b13e022050aa0ce8b6ff6f871abf4a5c311699c117193e62dc9acd86a1c78088500f723e01",
        "035510895df9d000b0072e9eeef4128e7a1ef94b0cfb2d1dc11f5152912dd4db22"
      ],
      "is_coinbase": false,
      "sequence": 4294967293,
      "inner_redeemscript_asm": "OP_0 OP_PUSHBYTES_20 172a9c6af0e6aa4a7bb31c817249a807752bfaa6"
    }
  ],
  "vout": [
    {
      "scriptpubkey": "a91482c55108792f48f613f7184b1c1542eb10bd73bc87",
      "scriptpubkey_asm": "OP_HASH160 OP_PUSHBYTES_20 82c55108792f48f613f7184b1c1542eb10bd73bc OP_EQUAL",
      "scriptpubkey_type": "p2sh",
      "scriptpubkey_address": "3DcU9GuB4pcL9UEJ1YvYziUAUaYk7uRvtr",
      "value": 300000
    },
    {
      "scriptpubkey": "512018c836ccebcf909631e8c342af794ee9ac9cc514dc861ce725361952b16d94f6",
      "scriptpubkey_asm": "OP_PUSHNUM_1 OP_PUSHBYTES_32 18c836ccebcf909631e8c342af794ee9ac9cc514dc861ce725361952b16d94f6",
      "scriptpubkey_type": "v1_p2tr",
      "scriptpubkey_address": "bc1prryrdn8te7gfvv0gcdp2772waxkfe3g5mjrpeee9xcv49vtdjnmqzt0qvs",
      "value": 1000
    },
    {
      "scriptpubkey": "a9146f97a52f7b89cbc8d20e4f0f6e330094612365fe87",
      "scriptpubkey_asm": "OP_HASH160 OP_PUSHBYTES_20 6f97a52f7b89cbc8d20e4f0f6e330094612365fe OP_EQUAL",
      "scriptpubkey_type": "p2sh",
      "scriptpubkey_address": "3Bs4bLKtm9fGqKr9yMi4szmjjUuBE7pJEM",
      "value": 9500
    },
    {
      "scriptpubkey": "a914a6b95d83e6b0a84f9e1e2d38ecac4d9b60a7b79b87",
      "scriptpubkey_asm": "OP_HASH160 OP_PUSHBYTES_20 a6b95d83e6b0a84f9e1e2d38ecac4d9b60a7b79b OP_EQUAL",
      "scriptpubkey_type": "p2sh",
      "scriptpubkey_address": "3Gta9o1KVfQhsr2GWqziKfL8s4psUdSZYR",
      "value": 1500
    },
    {
      "scriptpubkey": "a91482c55108792f48f613f7184b1c1542eb10bd73bc87",
      "scriptpubkey_asm": "OP_HASH160 OP_PUSHBYTES_20 82c55108792f48f613f7184b1c1542eb10bd73bc OP_EQUAL",
      "scriptpubkey_type": "p2sh",
      "scriptpubkey_address": "3DcU9GuB4pcL9UEJ1YvYziUAUaYk7uRvtr",
      "value": 133379
    }
  ],
  "size": 807,
  "weight": 2049,
  "fee": 5621,
  "status": {
    "confirmed": true,
    "block_height": 834464,
    "block_hash": "0000000000000000000177a0869a911a2b65c9bdcd5a8bcb02b68f305bee848e",
    "block_time": 1710308296
  },
  "hex": "020000000001046b3637c440b48fca7f3ec8fc6d2b8f8a637db107b7eccfc38a732c7ead0674ac0000000017160014172a9c6af0e6aa4a7bb31c817249a807752bfaa6fdffffffbc9124f50312c93a868aa006d0ba359b3e3bebefbf77bec632c6b72306f20df90000000017160014172a9c6af0e6aa4a7bb31c817249a807752bfaa6fdffffffaaaf3322330334271a962c653a20f0d4d5a89995548241111bef6053356c016c0000000000fdffffff22fde201f90cd4199ef488e9fc056c7fcfc629c719cc99ac9c011016fd6a928c0000000017160014172a9c6af0e6aa4a7bb31c817249a807752bfaa6fdffffff05e09304000000000017a91482c55108792f48f613f7184b1c1542eb10bd73bc87e80300000000000022512018c836ccebcf909631e8c342af794ee9ac9cc514dc861ce725361952b16d94f61c2500000000000017a9146f97a52f7b89cbc8d20e4f0f6e330094612365fe87dc0500000000000017a914a6b95d83e6b0a84f9e1e2d38ecac4d9b60a7b79b87030902000000000017a91482c55108792f48f613f7184b1c1542eb10bd73bc8702483045022100dd94ad2e9dd5d9a3ef0bcb4b84d372f55bde828132f1845dd58c3c33be02e86202200f09e843eaad7d4e269abf2af99f90e7f71d04ec842fc31fdb85dd5b2c0d50ce0121035510895df9d000b0072e9eeef4128e7a1ef94b0cfb2d1dc11f5152912dd4db22024830450221009841c863a9482b21f5f64e35438a2231d9e850090032a5e3417c33e0468284330220450cf0e96fc027f5ca00074644061a65c69965801daa44f265382ddd968735320121035510895df9d000b0072e9eeef4128e7a1ef94b0cfb2d1dc11f5152912dd4db22014152046127ab0e945bfb9e87d5b5c6c578a757297a342c02944af4bb15e4b5b7d34b0f4c7c7a1e2aaabcbedc34d23add4e85f0acffd05af1322071a7d3c8dbec5a8302483045022100d0a4e09fd16a90de537d0b9fe0bc5af4d12cbba9fd9db928fa87804d29f9b13e022050aa0ce8b6ff6f871abf4a5c311699c117193e62dc9acd86a1c78088500f723e0121035510895df9d000b0072e9eeef4128e7a1ef94b0cfb2d1dc11f5152912dd4db2200000000"
}