{
  "txid": "12f9c5059b52b944b55aabe663fcd2331dd849dfb8223d6be9193ad774707347",
  "version": 2,
  "locktime": 0,
  "vin": [
    {
      "txid": "8486ecb4df0880316dd6e82b3971b4df187aff23765bc3a47f8d78bb53aa273c",
      "vout": 44,
      "prevout": {
        "scriptpubkey": "5120ab313ba98a06d12147fe8dc1fcc1223ae352780866dccc9cc41f1da0650fc94a",
        "scriptpubkey_asm": "OP_PUSHNUM_1 OP_PUSHBYTES_32 ab313ba98a06d12147fe8dc1fcc1223ae352780866dccc9cc41f1da0650fc94a",
        "scriptpubkey_type": "v1_p2tr",
        "scriptpubkey_address": "bc1p4vcnh2v2qmgjz3l73hqlesfz8t34y7qgvmwve8xyruw6qeg0e99q0u34hj",
        "value": 2575
      },
      "scriptsig": "",
      "scriptsig_asm": "",
      "witness": [
        "3d5acee43b2e66b5bd309621cb89d1277c43c9b10c57578e0628a242467b1160a707b7128296e3cded99590515762461e795f25f6bfb97f876a6bd48b2f3df67",
        "20318fdca6d9680f3ae45d476aec0ec5ec58e06b674f2e1e0f927cb7b1e146cac6ac0063036f726401010a746578742f706c61696e00367b2270223a226272632d3230222c226f70223a226d696e74222c227469636b223a2261616161222c22616d74223a223130303030227d68",
        "c0318fdca6d9680f3ae45d476aec0ec5ec58e06b674f2e1e0f927cb7b1e146cac6"
      ],
      "is_coinbase": false,
      "sequence": 4261412863
    }
  ],
  "vout": [
    {
      "scriptpubkey": "0014ddd7ef12ea6f78edcc1e8e7afa12c01ab59f3339",
      "scriptpubkey_asm": "OP_0 OP_PUSHBYTES_20 ddd7ef12ea6f78edcc1e8e7afa12c01ab59f3339",
      "scriptpubkey_type": "v0_p2wpkh",
      "scriptpubkey_address": "bc1qmht77yh2dauwmnq73ea05ykqr26e7veea8spz6",
      "value": 546
    }
  ],
  "size": 295,
  "weight": 541,
  "fee": 2029,
  "status": {
    "confirmed": true,
    "block_height": 834460,
    "block_hash": "00000000000000000000484a79b643b2524bbce82e5d8a442013fa5b8905ed98",
    "block_time": 1710307468
  },
  "hex": "020000000001013c27aa53bb788d7fa4c35b7623ff7a18dfb471392be8d66d318008dfb4ec86842c00000000fffffffd012202000000000000160014ddd7ef12ea6f78edcc1e8e7afa12c01ab59f333903403d5acee43b2e66b5bd309621cb89d1277c43c9b10c57578e0628a242467b1160a707b7128296e3cded99590515762461e795f25f6bfb97f876a6bd48b2f3df676e20318fdca6d9680f3ae45d476aec0ec5ec58e06b674f2e1e0f927cb7b1e146cac6ac0063036f726401010a746578742f706c61696e00367b2270223a226272632d3230222c226f70223a226d696e74222c227469636b223a2261616161222c22616d74223a223130303030227d6821c0318fdca6d9680f3ae45d476aec0ec5ec58e06b674f2e1e0f927cb7b1e146cac600000000"
}