{
  "txid": "132be16da70782dcf43d5a2c8a1c63d9e19ed1d5a25ffe1f42aa6212752cf720",
  "version": 2,
  "locktime": 0,
  "vin": [
    {
      "txid": "995d316876f871b81eb96ba800c61b80ac065351adc8abaf07edfc59bfa6965c",
      "vout": 7,
      "prevout": {
        "scriptpubkey": "5120f463744b7e4eb5aef55b49dd89565b1958fc38cc31a5e8a06160e081bcd4486f",
        "scriptpubkey_asm": "OP_PUSHNUM_1 OP_PUSHBYTES_32 f463744b7e4eb5aef55b49dd89565b1958fc38cc31a5e8a06160e081bcd4486f",
        "scriptpubkey_type": "v1_p2tr",
        "scriptpubkey_address": "bc1p733hgjm7f666aa2mf8wcj4jmr9v0cwxvxxj73grpvrsgr0x5fphsygmusn",
        "value": 342543
      },
      "scriptsig": "",
      "scriptsig_asm": "",
      "witness": [
        "47f0aafc4078e7708133f8445150b3f30c427d5b7f23d761d9ce0f382e85810100d63f8d7fc29ca874f12c48b50640cb714d470a9b4b6515034ea54f9d408099"
      ],
      "is_coinbase": false,
      "sequence": 2147483649
    },
    {
      "txid": "93634ddd2d018c4f82aa936f24968380d763cc59a74acdbfcd34e38ac1c3aadf",
      "vout": 1,
      "prevout": {
        "scriptpubkey": "5120f463744b7e4eb5aef55b49dd89565b1958fc38cc31a5e8a06160e081bcd4486f",
        "scriptpubkey_asm": "OP_PUSHNUM_1 OP_PUSHBYTES_32 f463744b7e4eb5aef55b49dd89565b1958fc38cc31a5e8a06160e081bcd4486f",
        "scriptpubkey_type": "v1_p2tr",
        "scriptpubkey_address": "bc1p733hgjm7f666aa2mf8wcj4jmr9v0cwxvxxj73grpvrsgr0x5fphsygmusn",
        "value": 15731
      },
      "scriptsig": "",
      "scriptsig_asm": "",
      "witness": [
        "d55652416655dbb79480ccbab25df0751b5a811d1c112f83efd3479680aa779773ac07ba50d763e9ffb44edc81184a3e7333423398d42498cae5627568a42673"
      ],
      "is_coinbase": false,
      "sequence": 2147483649
    }
  ],
  "vout": [
    {
      "scriptpubkey": "00201f38b7d5f41c3c67cfcad95f226ed8db30c89197fe977d75104d111358c9fc08",
      "scriptpubkey_asm": "OP_0 OP_PUSHBYTES_32 1f38b7d5f41c3c67cfcad95f226ed8db30c89197fe977d75104d111358c9fc08",
      "scriptpubkey_type": "v0_p2wsh",
      "scriptpubkey_address": "bc1qruut0405rs7x0n72m90jymkcmvcv3yvhl6th6agsf5g3xkxflsyqrzdqkj",
      "value": 347328
    },
    {
      "scriptpubkey": "5120f463744b7e4eb5aef55b49dd89565b1958fc38cc31a5e8a06160e081bcd4486f",
      "scriptpubkey_asm": "OP_PUSHNUM_1 OP_PUSHBYTES_32 f463744b7e4eb5aef55b49dd89565b1958fc38cc31a5e8a06160e081bcd4486f",
      "scriptpubkey_type": "v1_p2tr",
      "scriptpubkey_address": "bc1p733hgjm7f666aa2mf8wcj4jmr9v0cwxvxxj73grpvrsgr0x5fphsygmusn",
      "value": 8414
    }
  ],
  "size": 312,
  "weight": 846,
  "fee": 2532,
  "status": {
    "confirmed": true,
    "block_height": 834460,
    "block_hash": "00000000000000000000484a79b643b2524bbce82e5d8a442013fa5b8905ed98",
    "block_time": 1710307468
  },
  "hex": "020000000001025c96a6bf59fced07afabc8ad515306ac801bc600a86bb91eb871f87668315d99070000000001000080dfaac3c18ae334cdbfcd4aa759cc63d7808396246f93aa824f8c012ddd4d639301000000000100008002c04c0500000000002200201f38b7d5f41c3c67cfcad95f226ed8db30c89197fe977d75104d111358c9fc08de20000000000000225120f463744b7e4eb5aef55b49dd89565b1958fc38cc31a5e8a06160e081bcd4486f014047f0aafc4078e7708133f8445150b3f30c427d5b7f23d761d9ce0f382e85810100d63f8d7fc29ca874f12c48b50640cb714d470a9b4b6515034ea54f9d4080990140d55652416655dbb79480ccbab25df0751b5a811d1c112f83efd3479680aa779773ac07ba50d763e9ffb44edc81184a3e7333423398d42498cae5627568a4267300000000"
}