{
  "txid": "1332bb42b6e501b42f00d07316d40c2591ad9f4125b91b43dd4e1023998349af",
  "version": 2,
  "locktime": 0,
  "vin": [
    {
      "txid": "107c46211fce9112d0204ff266d2806ba591d4751a76f9f5bf86e43984f9c210",
      "vout": 1,
      "prevout": {
        "scriptpubkey": "76a9144ee63e446d3913cc84fdfbbfdb1792a83e164e5488ac",
        "scriptpubkey_asm": "OP_DUP OP_HASH160 OP_PUSHBYTES_20 4ee63e446d3913cc84fdfbbfdb1792a83e164e54 OP_EQUALVERIFY OP_CHECKSIG",
        "scriptpubkey_type": "p2pkh",
        "scriptpubkey_address": "18CBXYVXFzAJNzBJ6SoWZPbvx2DU6oigR5",
        "value": 1607716
      },
      "scriptsig": "47304402201772a039cb2c992d1fab1e9eaca9b59446980e3538460448a73c57330b01a7ab02205de925e7eca82ba4be13657f6538fc924cc7b69a584e9747c4ee571cb9f70bb60121038b20a5eca7145e7e49265bd6d3b0ed8acdc33fcafe1ca6b9ec96f6ca1d437547",
      "scriptsig_asm": "OP_PUSHBYTES_71 304402201772a039cb2c992d1fab1e9eaca9b59446980e3538460448a73c57330b01a7ab02205de925e7eca82ba4be13657f6538fc924cc7b69a584e9747c4ee571cb9f70bb601 OP_PUSHBYTES_33 038b20a5eca7145e7e49265bd6d3b0ed8acdc33fcafe1ca6b9ec96f6ca1d437547",
      "is_coinbase": false,
      "sequence": 4294967295
    },
    {
      "txid": "c2882b4af6335065cefd69b9d273397d9c13ba659ed4c5da0bbe163e610db91f",
      "vout": 1,
      "prevout": {
        "scriptpubkey": "76a914238a1cd2f812c76a5807fdcddbce12ab6169379988ac",
        "scriptpubkey_asm": "OP_DUP OP_HASH160 OP_PUSHBYTES_20 238a1cd2f812c76a5807fdcddbce12ab61693799 OP_EQUALVERIFY OP_CHECKSIG",
        "scriptpubkey_type": "p2pkh",
        "scriptpubkey_address": "14Ev6wq7q8s6oZUCDaQBe8h3QyU4qS9nX2",
        "value": 40177327
      },
      "scriptsig": "473044022065ab64a34ea7870885925f7ff695f25ba37a08eaaa582b093fd9695324b89aea022062a87913c3e4f95b84ea7409fd3cfaa7b139dde130d95db5e1f6df219e796ea00121021574d5f66a671ea423257a35cb6878159edb43a273166925256046b528c985a5",
      "scriptsig_asm": "OP_PUSHBYTES_71 3044022065ab64a34ea7870885925f7ff695f25ba37a08eaaa582b093fd9695324b89aea022062a87913c3e4f95b84ea7409fd3cfaa7b139dde130d95db5e1f6df219e796ea001 OP_PUSHBYTES_33 021574d5f66a671ea423257a35cb6878159edb43a273166925256046b528c985a5",
      "is_coinbase": false,
      "sequence": 4294967295
    }
  ],
  "vout": [
    {
      "scriptpubkey": "76a9148611c8ca845c9e741ee45b1e4b52f1758c9c359588ac",
      "scriptpubkey_asm": "OP_DUP OP_HASH160 OP_PUSHBYTES_20 8611c8ca845c9e741ee45b1e4b52f1758c9c3595 OP_EQUALVERIFY OP_CHECKSIG",
      "scriptpubkey_type": "p2pkh",
      "scriptpubkey_address": "1DDtrPD4AjqUopD9GUxz7ET7GXVj3A8A9X",
      "value": 6900000
    },
    {
      "scriptpubkey": "76a914238a1cd2f812c76a5807fdcddbce12ab6169379988ac",
      "scriptpubkey_asm": "OP_DUP OP_HASH160 OP_PUSHBYTES_20 238a1cd2f812c76a5807fdcddbce12ab61693799 OP_EQUALVERIFY OP_CHECKSIG",
      "scriptpubkey_type": "p2pkh",
      "scriptpubkey_address": "14Ev6wq7q8s6oZUCDaQBe8h3QyU4qS9nX2",
      "value": 34874353
    }
  ],
  "size": 372,
  "weight": 1488,
  "fee": 10690,
  "status": {
    "confirmed": true,
    "block_height": 834460,
    "block_hash": "00000000000000000000484a79b643b2524bbce82e5d8a442013fa5b8905ed98",
    "block_time": 1710307468
  },
  "hex": "020000000210c2f98439e486bff5f9761a75d491a56b80d266f24f20d01291ce1f21467c10010000006a47304402201772a039cb2c992d1fab1e9eaca9b59446980e3538460448a73c57330b01a7ab02205de925e7eca82ba4be13657f6538fc924cc7b69a584e9747c4ee571cb9f70bb60121038b20a5eca7145e7e49265bd6d3b0ed8acdc33fcafe1ca6b9ec96f6ca1d437547ffffffff1fb90d613e16be0bdac5d49e65ba139c7d3973d2b969fdce655033f64a2b88c2010000006a473044022065ab64a34ea7870885925f7ff695f25ba37a08eaaa582b093fd9695324b89aea022062a87913c3e4f95b84ea7409fd3cfaa7b139dde130d95db5e1f6df219e796ea00121021574d5f66a671ea423257a35cb6878159edb43a273166925256046b528c985a5ffffffff0220496900000000001976a9148611c8ca845c9e741ee45b1e4b52f1758c9c359588acf1231402000000001976a914238a1cd2f812c76a5807fdcddbce12ab6169379988ac00000000"
}