{
  "txid": "133e0b0bd67b98f2ef8fc13d36b768ccc316fb51710a9c8f8cdebd709d4db09e",
  "version": 1,
  "locktime": 0,
  "vin": [
    {
      "txid": "15978dce8a08c1b89217ac8a261a8756755930c4ddf128a54725de58554d3b1e",
      "vout": 5,
      "prevout": {
        "scriptpubkey": "00147855bd8c0d69fcd5feaae1bc6eacbf5b87aef8cd",
        "scriptpubkey_asm": "OP_0 OP_PUSHBYTES_20 7855bd8c0d69fcd5feaae1bc6eacbf5b87aef8cd",
        "scriptpubkey_type": "v0_p2wpkh",
        "scriptpubkey_address": "bc1q0p2mmrqdd87dtl42ux7xat9ltwr6a7xdvp6gh9",
        "value": 1095680
      },
      "scriptsig": "",
      "scriptsig_asm": "",
      "witness": [
        "3045022100d48c474fdb050d4e61a4e4a19c52ca16a2988fbb20e3da0da113ba0ceaa682c1022023853b8aa7fbd8c52b9dcb5e280509e50bca3553007ef160f924bffa35a7d67b01",
        "0340b76bcd01abe713bd9e1101dfa167f5bd977542937ba66b00c1cf590a10ffe6"
      ],
      "is_coinbase": false,
      "sequence": 4294967295
    }
  ],
  "vout": [
    {
      "scriptpubkey": "00144741ffc048a83ab347fd1184b929d8c39d386b95",
      "scriptpubkey_asm": "OP_0 OP_PUSHBYTES_20 4741ffc048a83ab347fd1184b929d8c39d386b95",
      "scriptpubkey_type": "v0_p2wpkh",
      "scriptpubkey_address": "bc1qgaqllszg4qatx3lazxztj2wccwwns6u4lq77pd",
      "value": 1092710
    }
  ],
  "size": 192,
  "weight": 438,
  "fee": 2970,
  "status": {
    "confirmed": true,
    "block_height": 834638,
    "block_hash": "000000000000000000025f742c626208ac87e0b7d15054abb4a19ca2d735a54e",
    "block_time": 1710405325
  },
  "hex": "010000000001011e3b4d5558de2547a528f1ddc430597556871a268aac1792b8c1088ace8d97150500000000ffffffff0166ac1000000000001600144741ffc048a83ab347fd1184b929d8c39d386b9502483045022100d48c474fdb050d4e61a4e4a19c52ca16a2988fbb20e3da0da113ba0ceaa682c1022023853b8aa7fbd8c52b9dcb5e280509e50bca3553007ef160f924bffa35a7d67b01210340b76bcd01abe713bd9e1101dfa167f5bd977542937ba66b00c1cf590a10ffe600000000"
}