{
  "txid": "133f5023638328fc13eb7dfce1bf571729b58331f90692dd901f9211f29fe576",
  "version": 2,
  "locktime": 0,
  "vin": [
    {
      "txid": "7628f5f3d134bf3fe877af45d61a086d58de68e770f1173e67dd60a2f8371874",
      "vout": 1,
      "prevout": {
        "scriptpubkey": "00141880844b7469c9532c2d592d8e1c0b14b50ad2d0",
        "scriptpubkey_asm": "OP_0 OP_PUSHBYTES_20 1880844b7469c9532c2d592d8e1c0b14b50ad2d0",
        "scriptpubkey_type": "v0_p2wpkh",
        "scriptpubkey_address": "bc1qrzqggjm5d8y4xtpdtykcu8qtzj6s45kspv6nkq",
        "value": 350571
      },
      "scriptsig": "",
      "scriptsig_asm": "",
      "witness": [
        "30440220277f33966507405119a3fe6e6fd6462043ad480ef8642cd1477a659ff318161a02207cb253acfd706903cf7e5fc668317e5b7755e19b0d85e2e0f96d819f83447a8d01",
        "02366549cb73ebac0f12c59e43b0c060f874b576162cf21d190b16a8dba9f70899"
      ],
      "is_coinbase": false,
      "sequence": 4294967295
    }
  ],
  "vout": [
    {
      "scriptpubkey": "00141880844b7469c9532c2d592d8e1c0b14b50ad2d0",
      "scriptpubkey_asm": "OP_0 OP_PUSHBYTES_20 1880844b7469c9532c2d592d8e1c0b14b50ad2d0",
      "scriptpubkey_type": "v0_p2wpkh",
      "scriptpubkey_address": "bc1qrzqggjm5d8y4xtpdtykcu8qtzj6s45kspv6nkq",
      "value": 600
    },
    {
      "scriptpubkey": "00141880844b7469c9532c2d592d8e1c0b14b50ad2d0",
      "scriptpubkey_asm": "OP_0 OP_PUSHBYTES_20 1880844b7469c9532c2d592d8e1c0b14b50ad2d0",
      "scriptpubkey_type": "v0_p2wpkh",
      "scriptpubkey_address": "bc1qrzqggjm5d8y4xtpdtykcu8qtzj6s45kspv6nkq",
      "value": 600
    },
    {
      "scriptpubkey": "00141880844b7469c9532c2d592d8e1c0b14b50ad2d0",
      "scriptpubkey_asm": "OP_0 OP_PUSHBYTES_20 1880844b7469c9532c2d592d8e1c0b14b50ad2d0",
      "scriptpubkey_type": "v0_p2wpkh",
      "scriptpubkey_address": "bc1qrzqggjm5d8y4xtpdtykcu8qtzj6s45kspv6nkq",
      "value": 600
    },
    {
      "scriptpubkey": "00141880844b7469c9532c2d592d8e1c0b14b50ad2d0",
      "scriptpubkey_asm": "OP_0 OP_PUSHBYTES_20 1880844b7469c9532c2d592d8e1c0b14b50ad2d0",
      "scriptpubkey_type": "v0_p2wpkh",
      "scriptpubkey_address": "bc1qrzqggjm5d8y4xtpdtykcu8qtzj6s45kspv6nkq",
      "value": 600
    },
    {
      "scriptpubkey": "00141880844b7469c9532c2d592d8e1c0b14b50ad2d0",
      "scriptpubkey_asm": "OP_0 OP_PUSHBYTES_20 1880844b7469c9532c2d592d8e1c0b14b50ad2d0",
      "scriptpubkey_type": "v0_p2wpkh",
      "scriptpubkey_address": "bc1qrzqggjm5d8y4xtpdtykcu8qtzj6s45kspv6nkq",
      "value": 600
    },
    {
      "scriptpubkey": "00141880844b7469c9532c2d592d8e1c0b14b50ad2d0",
      "scriptpubkey_asm": "OP_0 OP_PUSHBYTES_20 1880844b7469c9532c2d592d8e1c0b14b50ad2d0",
      "scriptpubkey_type": "v0_p2wpkh",
      "scriptpubkey_address": "bc1qrzqggjm5d8y4xtpdtykcu8qtzj6s45kspv6nkq",
      "value": 600
    },
    {
      "scriptpubkey": "00141880844b7469c9532c2d592d8e1c0b14b50ad2d0",
      "scriptpubkey_asm": "OP_0 OP_PUSHBYTES_20 1880844b7469c9532c2d592d8e1c0b14b50ad2d0",
      "scriptpubkey_type": "v0_p2wpkh",
      "scriptpubkey_address": "bc1qrzqggjm5d8y4xtpdtykcu8qtzj6s45kspv6nkq",
      "value": 600
    },
    {
      "scriptpubkey": "00141880844b7469c9532c2d592d8e1c0b14b50ad2d0",
      "scriptpubkey_asm": "OP_0 OP_PUSHBYTES_20 1880844b7469c9532c2d592d8e1c0b14b50ad2d0",
      "scriptpubkey_type": "v0_p2wpkh",
      "scriptpubkey_address": "bc1qrzqggjm5d8y4xtpdtykcu8qtzj6s45kspv6nkq",
      "value": 600
    },
    {
      "scriptpubkey": "00141880844b7469c9532c2d592d8e1c0b14b50ad2d0",
      "scriptpubkey_asm": "OP_0 OP_PUSHBYTES_20 1880844b7469c9532c2d592d8e1c0b14b50ad2d0",
      "scriptpubkey_type": "v0_p2wpkh",
      "scriptpubkey_address": "bc1qrzqggjm5d8y4xtpdtykcu8qtzj6s45kspv6nkq",
      "value": 600
    },
    {
      "scriptpubkey": "00141880844b7469c9532c2d592d8e1c0b14b50ad2d0",
      "scriptpubkey_asm": "OP_0 OP_PUSHBYTES_20 1880844b7469c9532c2d592d8e1c0b14b50ad2d0",
      "scriptpubkey_type": "v0_p2wpkh",
      "scriptpubkey_address": "bc1qrzqggjm5d8y4xtpdtykcu8qtzj6s45kspv6nkq",
      "value": 600
    },
    {
      "scriptpubkey": "00141880844b7469c9532c2d592d8e1c0b14b50ad2d0",
      "scriptpubkey_asm": "OP_0 OP_PUSHBYTES_20 1880844b7469c9532c2d592d8e1c0b14b50ad2d0",
      "scriptpubkey_type": "v0_p2wpkh",
      "scriptpubkey_address": "bc1qrzqggjm5d8y4xtpdtykcu8qtzj6s45kspv6nkq",
      "value": 338271
    }
  ],
  "size": 501,
  "weight": 1677,
  "fee": 6300,
  "status": {
    "confirmed": true,
    "block_height": 834638,
    "block_hash": "000000000000000000025f742c626208ac87e0b7d15054abb4a19ca2d735a54e",
    "block_time": 1710405325
  },
  "hex": "02000000000101741837f8a260dd673e17f170e768de586d081ad645af77e83fbf34d1f3f528760100000000ffffffff0b58020000000000001600141880844b7469c9532c2d592d8e1c0b14b50ad2d058020000000000001600141880844b7469c9532c2d592d8e1c0b14b50ad2d058020000000000001600141880844b7469c9532c2d592d8e1c0b14b50ad2d058020000000000001600141880844b7469c9532c2d592d8e1c0b14b50ad2d058020000000000001600141880844b7469c9532c2d592d8e1c0b14b50ad2d058020000000000001600141880844b7469c9532c2d592d8e1c0b14b50ad2d058020000000000001600141880844b7469c9532c2d592d8e1c0b14b50ad2d058020000000000001600141880844b7469c9532c2d592d8e1c0b14b50ad2d058020000000000001600141880844b7469c9532c2d592d8e1c0b14b50ad2d058020000000000001600141880844b7469c9532c2d592d8e1c0b14b50ad2d05f290500000000001600141880844b7469c9532c2d592d8e1c0b14b50ad2d0024730440220277f33966507405119a3fe6e6fd6462043ad480ef8642cd1477a659ff318161a02207cb253acfd706903cf7e5fc668317e5b7755e19b0d85e2e0f96d819f83447a8d012102366549cb73ebac0f12c59e43b0c060f874b576162cf21d190b16a8dba9f7089900000000"
}