{
  "txid": "134c7ee24e081594ae033816e39fd1ba289b7324c206c8d1c33ea71fc8fefa59",
  "version": 2,
  "locktime": 0,
  "vin": [
    {
      "txid": "92c3dd32a3cb8375a59bdee44ec48a1e63ffcb45f09913d73173fee3e68da826",
      "vout": 45,
      "prevout": {
        "scriptpubkey": "76a9140e641fdf4fd20073c8a52f7d4e5d20b7c46a272a88ac",
        "scriptpubkey_asm": "OP_DUP OP_HASH160 OP_PUSHBYTES_20 0e641fdf4fd20073c8a52f7d4e5d20b7c46a272a OP_EQUALVERIFY OP_CHECKSIG",
        "scriptpubkey_type": "p2pkh",
        "scriptpubkey_address": "12K6QTZUp3Z8frGHtUuadKEsF9NJAw7YCG",
        "value": 2683596
      },
      "scriptsig": "4730440220492390984202b49c8eb18ab4ec3c96567124a20e82134b5ffe0c74c46e6a61e1022055402273f7201ebc30c922a78a0904c387be37b1c636f8fdfa5e284cedd2511401210335ff59f44950da1797c3a71f43e9c208644fda8d3223b51149f3c8eb69e99e76",
      "scriptsig_asm": "OP_PUSHBYTES_71 30440220492390984202b49c8eb18ab4ec3c96567124a20e82134b5ffe0c74c46e6a61e1022055402273f7201ebc30c922a78a0904c387be37b1c636f8fdfa5e284cedd2511401 OP_PUSHBYTES_33 0335ff59f44950da1797c3a71f43e9c208644fda8d3223b51149f3c8eb69e99e76",
      "is_coinbase": false,
      "sequence": 4294967295
    },
    {
      "txid": "08f3565388e89612ba149c0e9fdadf7cc9b2d0ef7755ac4a6edae3931b0f996c",
      "vout": 177,
      "prevout": {
        "scriptpubkey": "76a9140e641fdf4fd20073c8a52f7d4e5d20b7c46a272a88ac",
        "scriptpubkey_asm": "OP_DUP OP_HASH160 OP_PUSHBYTES_20 0e641fdf4fd20073c8a52f7d4e5d20b7c46a272a OP_EQUALVERIFY OP_CHECKSIG",
        "scriptpubkey_type": "p2pkh",
        "scriptpubkey_address": "12K6QTZUp3Z8frGHtUuadKEsF9NJAw7YCG",
        "value": 2798649
      },
      "scriptsig": "47304402204461de12162dd0ceff8031a6cb5f8087b894d014864e8ba743df0be8c17dcab402207826006421c892b9e62dc7cb3f122a8f70b4ff6d574f6d619b5e1727a258e10f01210335ff59f44950da1797c3a71f43e9c208644fda8d3223b51149f3c8eb69e99e76",
      "scriptsig_asm": "OP_PUSHBYTES_71 304402204461de12162dd0ceff8031a6cb5f8087b894d014864e8ba743df0be8c17dcab402207826006421c892b9e62dc7cb3f122a8f70b4ff6d574f6d619b5e1727a258e10f01 OP_PUSHBYTES_33 0335ff59f44950da1797c3a71f43e9c208644fda8d3223b51149f3c8eb69e99e76",
      "is_coinbase": false,
      "sequence": 4294967295
    },
    {
      "txid": "530c85e2b4413d0d1102347326b9bccab495cf59700f0e3eaec04344bb632bf9",
      "vout": 0,
      "prevout": {
        "scriptpubkey": "0014b7ed34b34477e13bbfce090e75620976d04433a3",
        "scriptpubkey_asm": "OP_0 OP_PUSHBYTES_20 b7ed34b34477e13bbfce090e75620976d04433a3",
        "scriptpubkey_type": "v0_p2wpkh",
        "scriptpubkey_address": "bc1qklknfv6ywlsnh07wpy882csfwmgygvarntq3rg",
        "value": 1974713
      },
      "scriptsig": "",
      "scriptsig_asm": "",
      "witness": [
        "3045022100ced040e21c95a409a63ffa0defc7d1ae3217a7cf779da5d6a8952f53459e9e88022045f13d725df057b2a7ed7a437720c372fc6ee88475ec05d768aa619d6949889b01",
        "03a69e56b2bbabec3f38bd11033068332a7372d1c43f2d3ca772a2ddd7a5f57de5"
      ],
      "is_coinbase": false,
      "sequence": 4294967295
    },
    {
      "txid": "11d014f4afe41ddf56f9f5fef28189205df7828865271dab9d39313113747b97",
      "vout": 193,
      "prevout": {
        "scriptpubkey": "76a9140e641fdf4fd20073c8a52f7d4e5d20b7c46a272a88ac",
        "scriptpubkey_asm": "OP_DUP OP_HASH160 OP_PUSHBYTES_20 0e641fdf4fd20073c8a52f7d4e5d20b7c46a272a OP_EQUALVERIFY OP_CHECKSIG",
        "scriptpubkey_type": "p2pkh",
        "scriptpubkey_address": "12K6QTZUp3Z8frGHtUuadKEsF9NJAw7YCG",
        "value": 2660832
      },
      "scriptsig": "473044022014b30e191f9ac2a0fc58dfc8f08e7f1bfd9fd3374cef48c1a78e55b69a32d4b702206cefa0222290c07729025ae155513506afc0c5ad799425107cd5bfbdaa020e3401210335ff59f44950da1797c3a71f43e9c208644fda8d3223b51149f3c8eb69e99e76",
      "scriptsig_asm": "OP_PUSHBYTES_71 3044022014b30e191f9ac2a0fc58dfc8f08e7f1bfd9fd3374cef48c1a78e55b69a32d4b702206cefa0222290c07729025ae155513506afc0c5ad799425107cd5bfbdaa020e3401 OP_PUSHBYTES_33 0335ff59f44950da1797c3a71f43e9c208644fda8d3223b51149f3c8eb69e99e76",
      "is_coinbase": false,
      "sequence": 4294967295
    },
    {
      "txid": "58d8d458e4e9b41c34a4285f3cad05d9cff6452d8f26ffe6274c262801d505fd",
      "vout": 164,
      "prevout": {
        "scriptpubkey": "76a9140e641fdf4fd20073c8a52f7d4e5d20b7c46a272a88ac",
        "scriptpubkey_asm": "OP_DUP OP_HASH160 OP_PUSHBYTES_20 0e641fdf4fd20073c8a52f7d4e5d20b7c46a272a OP_EQUALVERIFY OP_CHECKSIG",
        "scriptpubkey_type": "p2pkh",
        "scriptpubkey_address": "12K6QTZUp3Z8frGHtUuadKEsF9NJAw7YCG",
        "value": 2657910
      },
      "scriptsig": "483045022100e920888d223d2c1ea342ce9f34e1a8435aaeababaacca117d92d6eff86a5617002201571d34dc37d98c7e35cb95973a03d44f3a19ea24f610dfded6896c2fc8e99f801210335ff59f44950da1797c3a71f43e9c208644fda8d3223b51149f3c8eb69e99e76",
      "scriptsig_asm": "OP_PUSHBYTES_72 3045022100e920888d223d2c1ea342ce9f34e1a8435aaeababaacca117d92d6eff86a5617002201571d34dc37d98c7e35cb95973a03d44f3a19ea24f610dfded6896c2fc8e99f801 OP_PUSHBYTES_33 0335ff59f44950da1797c3a71f43e9c208644fda8d3223b51149f3c8eb69e99e76",
      "is_coinbase": false,
      "sequence": 4294967295
    },
    {
      "txid": "15efe495a1553249a8ca0da26e5f6495d9f751d523dc81c19c674e699005d7b5",
      "vout": 41,
      "prevout": {
        "scriptpubkey": "76a9140e641fdf4fd20073c8a52f7d4e5d20b7c46a272a88ac",
        "scriptpubkey_asm": "OP_DUP OP_HASH160 OP_PUSHBYTES_20 0e641fdf4fd20073c8a52f7d4e5d20b7c46a272a OP_EQUALVERIFY OP_CHECKSIG",
        "scriptpubkey_type": "p2pkh",
        "scriptpubkey_address": "12K6QTZUp3Z8frGHtUuadKEsF9NJAw7YCG",
        "value": 440547
      },
      "scriptsig": "483045022100e1fddceab4cefeb2bd419c6b6071de891b72dc95f944a055a8754ed03f49493402205078cc64dfc35e20222725174b761a8ba59e85765818b4bcb03c52897687db1501210335ff59f44950da1797c3a71f43e9c208644fda8d3223b51149f3c8eb69e99e76",
      "scriptsig_asm": "OP_PUSHBYTES_72 3045022100e1fddceab4cefeb2bd419c6b6071de891b72dc95f944a055a8754ed03f49493402205078cc64dfc35e20222725174b761a8ba59e85765818b4bcb03c52897687db1501 OP_PUSHBYTES_33 0335ff59f44950da1797c3a71f43e9c208644fda8d3223b51149f3c8eb69e99e76",
      "is_coinbase": false,
      "sequence": 4294967295
    },
    {
      "txid": "cbaead6ab41275342fa16d089d9b53080f328948629f4e118bb0458001f4b62b",
      "vout": 10,
      "prevout": {
        "scriptpubkey": "76a9140e641fdf4fd20073c8a52f7d4e5d20b7c46a272a88ac",
        "scriptpubkey_asm": "OP_DUP OP_HASH160 OP_PUSHBYTES_20 0e641fdf4fd20073c8a52f7d4e5d20b7c46a272a OP_EQUALVERIFY OP_CHECKSIG",
        "scriptpubkey_type": "p2pkh",
        "scriptpubkey_address": "12K6QTZUp3Z8frGHtUuadKEsF9NJAw7YCG",
        "value": 353188
      },
      "scriptsig": "483045022100c58d9864c224aa1f3cad5916441cf8bbedc574b660fd4bd510f94b75cdf1a9ee022053662c02c998c7fa14358aaa14d6c52fdf64ef4b7f75ace2015af290f1d1a84101210335ff59f44950da1797c3a71f43e9c208644fda8d3223b51149f3c8eb69e99e76",
      "scriptsig_asm": "OP_PUSHBYTES_72 3045022100c58d9864c224aa1f3cad5916441cf8bbedc574b660fd4bd510f94b75cdf1a9ee022053662c02c998c7fa14358aaa14d6c52fdf64ef4b7f75ace2015af290f1d1a84101 OP_PUSHBYTES_33 0335ff59f44950da1797c3a71f43e9c208644fda8d3223b51149f3c8eb69e99e76",
      "is_coinbase": false,
      "sequence": 4294967295
    }
  ],
  "vout": [
    {
      "scriptpubkey": "76a91468c015742195b8d102ef0de10161cf896cb10f5988ac",
      "scriptpubkey_asm": "OP_DUP OP_HASH160 OP_PUSHBYTES_20 68c015742195b8d102ef0de10161cf896cb10f59 OP_EQUALVERIFY OP_CHECKSIG",
      "scriptpubkey_type": "p2pkh",
      "scriptpubkey_address": "1AYsPAgkijpziDFzxzJ29pLKGxCw8XNzRH",
      "value": 13555621
    }
  ],
  "size": 1086,
  "weight": 3996,
  "fee": 13814,
  "status": {
    "confirmed": true,
    "block_height": 834460,
    "block_hash": "00000000000000000000484a79b643b2524bbce82e5d8a442013fa5b8905ed98",
    "block_time": 1710307468
  },
  "hex": "0200000000010726a88de6e3fe7331d71399f045cbff631e8ac44ee4de9ba57583cba332ddc3922d0000006a4730440220492390984202b49c8eb18ab4ec3c96567124a20e82134b5ffe0c74c46e6a61e1022055402273f7201ebc30c922a78a0904c387be37b1c636f8fdfa5e284cedd2511401210335ff59f44950da1797c3a71f43e9c208644fda8d3223b51149f3c8eb69e99e76ffffffff6c990f1b93e3da6e4aac5577efd0b2c97cdfda9f0e9c14ba1296e8885356f308b10000006a47304402204461de12162dd0ceff8031a6cb5f8087b894d014864e8ba743df0be8c17dcab402207826006421c892b9e62dc7cb3f122a8f70b4ff6d574f6d619b5e1727a258e10f01210335ff59f44950da1797c3a71f43e9c208644fda8d3223b51149f3c8eb69e99e76fffffffff92b63bb4443c0ae3e0e0f7059cf95b4cabcb926733402110d3d41b4e2850c530000000000ffffffff977b74133131399dab1d27658882f75d208981f2fef5f956df1de4aff414d011c10000006a473044022014b30e191f9ac2a0fc58dfc8f08e7f1bfd9fd3374cef48c1a78e55b69a32d4b702206cefa0222290c07729025ae155513506afc0c5ad799425107cd5bfbdaa020e3401210335ff59f44950da1797c3a71f43e9c208644fda8d3223b51149f3c8eb69e99e76fffffffffd05d50128264c27e6ff268f2d45f6cfd905ad3c5f28a4341cb4e9e458d4d858a40000006b483045022100e920888d223d2c1ea342ce9f34e1a8435aaeababaacca117d92d6eff86a5617002201571d34dc37d98c7e35cb95973a03d44f3a19ea24f610dfded6896c2fc8e99f801210335ff59f44950da1797c3a71f43e9c208644fda8d3223b51149f3c8eb69e99e76ffffffffb5d70590694e679cc181dc23d551f7d995645f6ea20dcaa8493255a195e4ef15290000006b483045022100e1fddceab4cefeb2bd419c6b6071de891b72dc95f944a055a8754ed03f49493402205078cc64dfc35e20222725174b761a8ba59e85765818b4bcb03c52897687db1501210335ff59f44950da1797c3a71f43e9c208644fda8d3223b51149f3c8eb69e99e76ffffffff2bb6f4018045b08b114e9f624889320f08539b9d086da12f347512b46aadaecb0a0000006b483045022100c58d9864c224aa1f3cad5916441cf8bbedc574b660fd4bd510f94b75cdf1a9ee022053662c02c998c7fa14358aaa14d6c52fdf64ef4b7f75ace2015af290f1d1a84101210335ff59f44950da1797c3a71f43e9c208644fda8d3223b51149f3c8eb69e99e76ffffffff01a5d7ce00000000001976a91468c015742195b8d102ef0de10161cf896cb10f5988ac000002483045022100ced040e21c95a409a63ffa0defc7d1ae3217a7cf779da5d6a8952f53459e9e88022045f13d725df057b2a7ed7a437720c372fc6ee88475ec05d768aa619d6949889b012103a69e56b2bbabec3f38bd11033068332a7372d1c43f2d3ca772a2ddd7a5f57de50000000000000000"
}