{
  "txid": "134ca7beec62027b08450788784b2e15f0c322d7d62f3ed831a7ef9e743fb23b",
  "version": 1,
  "locktime": 0,
  "vin": [
    {
      "txid": "c4da5fecb9ee797031869cfd18c85032de50c1927f03bc4e3a9effbb2c25627a",
      "vout": 1,
      "prevout": {
        "scriptpubkey": "001473480904a72d4d438b33766761d4677630e8328e",
        "scriptpubkey_asm": "OP_0 OP_PUSHBYTES_20 73480904a72d4d438b33766761d4677630e8328e",
        "scriptpubkey_type": "v0_p2wpkh",
        "scriptpubkey_address": "bc1qwdyqjp9894x58zenwenkr4r8wccwsv5wlswm8v",
        "value": 220065
      },
      "scriptsig": "",
      "scriptsig_asm": "",
      "witness": [
        "30450221009cfa1cd1ca9b595de29208b008d25194e133271279d441d61b8cfa5eb767a9b102203a7ca344195fef19e3b9cea157a425e036dc7ca2d4e4fc47679dd69db980294801",
        "0266540c6741546d2f88c7a6e079b705a33a9cef200cdf7724b13aedb9a4c33c81"
      ],
      "is_coinbase": false,
      "sequence": 4294967293
    }
  ],
  "vout": [
    {
      "scriptpubkey": "76a914f9fd350a4a26a140587949a794a860672b568e6888ac",
      "scriptpubkey_asm": "OP_DUP OP_HASH160 OP_PUSHBYTES_20 f9fd350a4a26a140587949a794a860672b568e68 OP_EQUALVERIFY OP_CHECKSIG",
      "scriptpubkey_type": "p2pkh",
      "scriptpubkey_address": "1Pnpaum3JBKRJtWqBaapibkEnnsrwyMpb4",
      "value": 218340
    }
  ],
  "size": 195,
  "weight": 450,
  "fee": 1725,
  "status": {
    "confirmed": true,
    "block_height": 834460,
    "block_hash": "00000000000000000000484a79b643b2524bbce82e5d8a442013fa5b8905ed98",
    "block_time": 1710307468
  },
  "hex": "010000000001017a62252cbbff9e3a4ebc037f92c150de3250c818fd9c86317079eeb9ec5fdac40100000000fdffffff01e4540300000000001976a914f9fd350a4a26a140587949a794a860672b568e6888ac024830450221009cfa1cd1ca9b595de29208b008d25194e133271279d441d61b8cfa5eb767a9b102203a7ca344195fef19e3b9cea157a425e036dc7ca2d4e4fc47679dd69db980294801210266540c6741546d2f88c7a6e079b705a33a9cef200cdf7724b13aedb9a4c33c8100000000"
}