{
  "txid": "135d993977a161f8a5b694000ed257e48ecdc1ee11bfee7d2f521f4a88227415",
  "version": 2,
  "locktime": 0,
  "vin": [
    {
      "txid": "07141c154ee98bab70b0d348668113c66913efd365c1756f81cb556223e98c29",
      "vout": 1,
      "prevout": {
        "scriptpubkey": "a91436ef2050189c78f7cf99dea805ed1afc0b49d24787",
        "scriptpubkey_asm": "OP_HASH160 OP_PUSHBYTES_20 36ef2050189c78f7cf99dea805ed1afc0b49d247 OP_EQUAL",
        "scriptpubkey_type": "p2sh",
        "scriptpubkey_address": "36hUsgcXCY2fBJSGrRjUHxgPbg3yaDoFJd",
        "value": 33190
      },
      "scriptsig": "160014e450c2dcc921b24addcf7af355a5dba79df81797",
      "scriptsig_asm": "OP_PUSHBYTES_22 0014e450c2dcc921b24addcf7af355a5dba79df81797",
      "witness": [
        "3044022018b14466a8a150d6039b8cc2d10e55aa26d196d4eadbc6d996ec5c6eb07c790a02200a431df6cf4a1e074cecfa4de5f2cc02ec6220632d58bee15b92abe3f76d9a0c01",
        "03c8b3edf68549b02059d02b52e075906bfdb5c8324cd0ffb8f4938d11b088ef29"
      ],
      "is_coinbase": false,
      "sequence": 4294967295,
      "inner_redeemscript_asm": "OP_0 OP_PUSHBYTES_20 e450c2dcc921b24addcf7af355a5dba79df81797"
    }
  ],
  "vout": [
    {
      "scriptpubkey": "a91436ef2050189c78f7cf99dea805ed1afc0b49d24787",
      "scriptpubkey_asm": "OP_HASH160 OP_PUSHBYTES_20 36ef2050189c78f7cf99dea805ed1afc0b49d247 OP_EQUAL",
      "scriptpubkey_type": "p2sh",
      "scriptpubkey_address": "36hUsgcXCY2fBJSGrRjUHxgPbg3yaDoFJd",
      "value": 600
    },
    {
      "scriptpubkey": "a91436ef2050189c78f7cf99dea805ed1afc0b49d24787",
      "scriptpubkey_asm": "OP_HASH160 OP_PUSHBYTES_20 36ef2050189c78f7cf99dea805ed1afc0b49d247 OP_EQUAL",
      "scriptpubkey_type": "p2sh",
      "scriptpubkey_address": "36hUsgcXCY2fBJSGrRjUHxgPbg3yaDoFJd",
      "value": 600
    },
    {
      "scriptpubkey": "a91436ef2050189c78f7cf99dea805ed1afc0b49d24787",
      "scriptpubkey_asm": "OP_HASH160 OP_PUSHBYTES_20 36ef2050189c78f7cf99dea805ed1afc0b49d247 OP_EQUAL",
      "scriptpubkey_type": "p2sh",
      "scriptpubkey_address": "36hUsgcXCY2fBJSGrRjUHxgPbg3yaDoFJd",
      "value": 600
    },
    {
      "scriptpubkey": "a91436ef2050189c78f7cf99dea805ed1afc0b49d24787",
      "scriptpubkey_asm": "OP_HASH160 OP_PUSHBYTES_20 36ef2050189c78f7cf99dea805ed1afc0b49d247 OP_EQUAL",
      "scriptpubkey_type": "p2sh",
      "scriptpubkey_address": "36hUsgcXCY2fBJSGrRjUHxgPbg3yaDoFJd",
      "value": 600
    },
    {
      "scriptpubkey": "a91436ef2050189c78f7cf99dea805ed1afc0b49d24787",
      "scriptpubkey_asm": "OP_HASH160 OP_PUSHBYTES_20 36ef2050189c78f7cf99dea805ed1afc0b49d247 OP_EQUAL",
      "scriptpubkey_type": "p2sh",
      "scriptpubkey_address": "36hUsgcXCY2fBJSGrRjUHxgPbg3yaDoFJd",
      "value": 600
    },
    {
      "scriptpubkey": "a91436ef2050189c78f7cf99dea805ed1afc0b49d24787",
      "scriptpubkey_asm": "OP_HASH160 OP_PUSHBYTES_20 36ef2050189c78f7cf99dea805ed1afc0b49d247 OP_EQUAL",
      "scriptpubkey_type": "p2sh",
      "scriptpubkey_address": "36hUsgcXCY2fBJSGrRjUHxgPbg3yaDoFJd",
      "value": 600
    },
    {
      "scriptpubkey": "a91436ef2050189c78f7cf99dea805ed1afc0b49d24787",
      "scriptpubkey_asm": "OP_HASH160 OP_PUSHBYTES_20 36ef2050189c78f7cf99dea805ed1afc0b49d247 OP_EQUAL",
      "scriptpubkey_type": "p2sh",
      "scriptpubkey_address": "36hUsgcXCY2fBJSGrRjUHxgPbg3yaDoFJd",
      "value": 600
    },
    {
      "scriptpubkey": "a91436ef2050189c78f7cf99dea805ed1afc0b49d24787",
      "scriptpubkey_asm": "OP_HASH160 OP_PUSHBYTES_20 36ef2050189c78f7cf99dea805ed1afc0b49d247 OP_EQUAL",
      "scriptpubkey_type": "p2sh",
      "scriptpubkey_address": "36hUsgcXCY2fBJSGrRjUHxgPbg3yaDoFJd",
      "value": 600
    },
    {
      "scriptpubkey": "a91436ef2050189c78f7cf99dea805ed1afc0b49d24787",
      "scriptpubkey_asm": "OP_HASH160 OP_PUSHBYTES_20 36ef2050189c78f7cf99dea805ed1afc0b49d247 OP_EQUAL",
      "scriptpubkey_type": "p2sh",
      "scriptpubkey_address": "36hUsgcXCY2fBJSGrRjUHxgPbg3yaDoFJd",
      "value": 600
    },
    {
      "scriptpubkey": "a91436ef2050189c78f7cf99dea805ed1afc0b49d24787",
      "scriptpubkey_asm": "OP_HASH160 OP_PUSHBYTES_20 36ef2050189c78f7cf99dea805ed1afc0b49d247 OP_EQUAL",
      "scriptpubkey_type": "p2sh",
      "scriptpubkey_address": "36hUsgcXCY2fBJSGrRjUHxgPbg3yaDoFJd",
      "value": 600
    },
    {
      "scriptpubkey": "a91436ef2050189c78f7cf99dea805ed1afc0b49d24787",
      "scriptpubkey_asm": "OP_HASH160 OP_PUSHBYTES_20 36ef2050189c78f7cf99dea805ed1afc0b49d247 OP_EQUAL",
      "scriptpubkey_type": "p2sh",
      "scriptpubkey_address": "36hUsgcXCY2fBJSGrRjUHxgPbg3yaDoFJd",
      "value": 19472
    }
  ],
  "size": 535,
  "weight": 1813,
  "fee": 7718,
  "status": {
    "confirmed": true,
    "block_height": 834552,
    "block_hash": "00000000000000000001dd0468a70c94f619251d286585cff57aeb4bd9ede330",
    "block_time": 1710355598
  },
  "hex": "02000000000101298ce9236255cb816f75c165d3ef1369c613816648d3b070ab8be94e151c14070100000017160014e450c2dcc921b24addcf7af355a5dba79df81797ffffffff0b580200000000000017a91436ef2050189c78f7cf99dea805ed1afc0b49d24787580200000000000017a91436ef2050189c78f7cf99dea805ed1afc0b49d24787580200000000000017a91436ef2050189c78f7cf99dea805ed1afc0b49d24787580200000000000017a91436ef2050189c78f7cf99dea805ed1afc0b49d24787580200000000000017a91436ef2050189c78f7cf99dea805ed1afc0b49d24787580200000000000017a91436ef2050189c78f7cf99dea805ed1afc0b49d24787580200000000000017a91436ef2050189c78f7cf99dea805ed1afc0b49d24787580200000000000017a91436ef2050189c78f7cf99dea805ed1afc0b49d24787580200000000000017a91436ef2050189c78f7cf99dea805ed1afc0b49d24787580200000000000017a91436ef2050189c78f7cf99dea805ed1afc0b49d24787104c00000000000017a91436ef2050189c78f7cf99dea805ed1afc0b49d2478702473044022018b14466a8a150d6039b8cc2d10e55aa26d196d4eadbc6d996ec5c6eb07c790a02200a431df6cf4a1e074cecfa4de5f2cc02ec6220632d58bee15b92abe3f76d9a0c012103c8b3edf68549b02059d02b52e075906bfdb5c8324cd0ffb8f4938d11b088ef2900000000"
}