{
  "txid": "1364ed183589730bcf71f8e18dad4fc801f5551801412f996f8d65b1df649812",
  "version": 2,
  "locktime": 0,
  "vin": [
    {
      "txid": "404457b0fd3a5741f08f35fdb5cd9d40d396e2210ffdc8642a213996cbddea1b",
      "vout": 0,
      "prevout": {
        "scriptpubkey": "a91455d9884ee4bfedbbe3686782a1fefdcb44250b6487",
        "scriptpubkey_asm": "OP_HASH160 OP_PUSHBYTES_20 55d9884ee4bfedbbe3686782a1fefdcb44250b64 OP_EQUAL",
        "scriptpubkey_type": "p2sh",
        "scriptpubkey_address": "39WwxGZrgVWUpT3uq4iEBfXysyDYmngL5R",
        "value": 208100
      },
      "scriptsig": "160014aae5e5fbca6a14fd488527691ea2bb1c0305c3f1",
      "scriptsig_asm": "OP_PUSHBYTES_22 0014aae5e5fbca6a14fd488527691ea2bb1c0305c3f1",
      "witness": [
        "304402202991368cb2505e5df0bd06cf3f5040d1d1968f8c3c6afa2ee2f5945ff4394ad502202e86c15bfc1dc494bbe5ff6471a4f8bcaed6eb22467da4329d77af669d8d1fcc01",
        "0220d5dc26146ea600d5df022735edc6ca564be7061bfee89b0dd402b553b23cb9"
      ],
      "is_coinbase": false,
      "sequence": 4294967293,
      "inner_redeemscript_asm": "OP_0 OP_PUSHBYTES_20 aae5e5fbca6a14fd488527691ea2bb1c0305c3f1"
    }
  ],
  "vout": [
    {
      "scriptpubkey": "a914c87047aa2bd6e4468cb34f026278a5c4ca390f5487",
      "scriptpubkey_asm": "OP_HASH160 OP_PUSHBYTES_20 c87047aa2bd6e4468cb34f026278a5c4ca390f54 OP_EQUAL",
      "scriptpubkey_type": "p2sh",
      "scriptpubkey_address": "3KxqaFrLEX59kfQ4j9YHmdcnDF95eJrJoJ",
      "value": 136037
    },
    {
      "scriptpubkey": "a91455d9884ee4bfedbbe3686782a1fefdcb44250b6487",
      "scriptpubkey_asm": "OP_HASH160 OP_PUSHBYTES_20 55d9884ee4bfedbbe3686782a1fefdcb44250b64 OP_EQUAL",
      "scriptpubkey_type": "p2sh",
      "scriptpubkey_address": "39WwxGZrgVWUpT3uq4iEBfXysyDYmngL5R",
      "value": 65091
    }
  ],
  "size": 247,
  "weight": 661,
  "fee": 6972,
  "status": {
    "confirmed": true,
    "block_height": 834638,
    "block_hash": "000000000000000000025f742c626208ac87e0b7d15054abb4a19ca2d735a54e",
    "block_time": 1710405325
  },
  "hex": "020000000001011beaddcb9639212a64c8fd0f21e296d3409dcdb5fd358ff041573afdb05744400000000017160014aae5e5fbca6a14fd488527691ea2bb1c0305c3f1fdffffff02651302000000000017a914c87047aa2bd6e4468cb34f026278a5c4ca390f548743fe00000000000017a91455d9884ee4bfedbbe3686782a1fefdcb44250b64870247304402202991368cb2505e5df0bd06cf3f5040d1d1968f8c3c6afa2ee2f5945ff4394ad502202e86c15bfc1dc494bbe5ff6471a4f8bcaed6eb22467da4329d77af669d8d1fcc01210220d5dc26146ea600d5df022735edc6ca564be7061bfee89b0dd402b553b23cb900000000"
}