{
  "txid": "1366d55d8374fbba20c70f7a2dde65a7c0dbb1c9321ea1fb9f5911594fd6a0ad",
  "version": 2,
  "locktime": 834458,
  "vin": [
    {
      "txid": "1ba1d24019e09ec2c85ca603f2e721f7b3c12e56a99dbe9c038d77cd5634801c",
      "vout": 0,
      "prevout": {
        "scriptpubkey": "0014e3fc4fa31b22e802a55ef76854c8fd865b32209b",
        "scriptpubkey_asm": "OP_0 OP_PUSHBYTES_20 e3fc4fa31b22e802a55ef76854c8fd865b32209b",
        "scriptpubkey_type": "v0_p2wpkh",
        "scriptpubkey_address": "bc1qu07ylgcmyt5q9f277a59fj8asednygymvpjr98",
        "value": 282849
      },
      "scriptsig": "",
      "scriptsig_asm": "",
      "witness": [
        "3044022066191a855dae938235a6e36d17a724f2928cd2a7e3d7216bd6b067c5052d76d402206d0c158b094c4c8f14e292241e69955efb8ea833c76e18e340a66c941a02dc2f01",
        "036d99a8e888240dd075e6cdac41b7d9607626a65180b0dce2c54f4dbe6341b2b3"
      ],
      "is_coinbase": false,
      "sequence": 4294967293
    },
    {
      "txid": "ed247ce7d7fc4af3a1912b0e3505d07b50a4232cac098c8327fdb44daf53f829",
      "vout": 1,
      "prevout": {
        "scriptpubkey": "0014cfc0106bbb9d48277041db56b2fe032942efc219",
        "scriptpubkey_asm": "OP_0 OP_PUSHBYTES_20 cfc0106bbb9d48277041db56b2fe032942efc219",
        "scriptpubkey_type": "v0_p2wpkh",
        "scriptpubkey_address": "bc1qelqpq6amn4yzwuzpmdtt9lsr99pwlssetxdvh2",
        "value": 1223
      },
      "scriptsig": "",
      "scriptsig_asm": "",
      "witness": [
        "3044022040667dc4d8fad6a2ea55ea353b7039bd0e7b766eebf45acee08631bdfcaface5022034317fc1788229cdf051ee6934e789f428a9767bc174065f5bafc9ecf50bcc5401",
        "02d50b2048bd48eb4ba4401ecda5a199eeab753ccd8121946fc5dc2edfae383c33"
      ],
      "is_coinbase": false,
      "sequence": 4294967293
    },
    {
      "txid": "2bb3d7d8fd8ffbfd6df8ff1cb8e3ca105f6b88ccab3439039d8d3039bd3c8fc6",
      "vout": 1,
      "prevout": {
        "scriptpubkey": "0014d3c6643c153b3b64a38728077177198c3e26ed5a",
        "scriptpubkey_asm": "OP_0 OP_PUSHBYTES_20 d3c6643c153b3b64a38728077177198c3e26ed5a",
        "scriptpubkey_type": "v0_p2wpkh",
        "scriptpubkey_address": "bc1q60rxg0q48vakfgu89qrhzace3slzdm268rt99m",
        "value": 20821
      },
      "scriptsig": "",
      "scriptsig_asm": "",
      "witness": [
        "30440220497a05b97919f50857b80fd0333f77f4d0e37f8d069a5f9e871a97e3212b438b0220403ebb8c55a434433b5ee61ffadda32c64e64dfb58319ec4503c95d1dfc846e601",
        "024cf2a3355baf8a02c8d7ff5bb0f68eb1aa43855006b7edc59eebd1c2f39ef32b"
      ],
      "is_coinbase": false,
      "sequence": 4294967293
    },
    {
      "txid": "e66591ab4695fff2ce071ce4cba973c742265787907dbb6ae0de2d966641d824",
      "vout": 0,
      "prevout": {
        "scriptpubkey": "0014e45480b2ac08e454f50b78109f29eb3c549609cd",
        "scriptpubkey_asm": "OP_0 OP_PUSHBYTES_20 e45480b2ac08e454f50b78109f29eb3c549609cd",
        "scriptpubkey_type": "v0_p2wpkh",
        "scriptpubkey_address": "bc1qu32gpv4vprj9fagt0qgf720t832fvzwdvmm7jm",
        "value": 1810
      },
      "scriptsig": "",
      "scriptsig_asm": "",
      "witness": [
        "3044022067865afd406482e1c6cc94f6da311f9da64f0fcfd3f866f3c30586cb0edf19a702200ad2d8e246f3931e8b4173c94534246d6b33fa069c097086bdf1ae42f88c9d3601",
        "03ab19b0711626df4d0550927630d656f79cece4ff2334971cacb0adb0fcfd20bc"
      ],
      "is_coinbase": false,
      "sequence": 4294967293
    }
  ],
  "vout": [
    {
      "scriptpubkey": "00206b5b2ddb892d4395dae51bf3efc7c1d1c7513894310bf1d967b4454ac6b7bc39",
      "scriptpubkey_asm": "OP_0 OP_PUSHBYTES_32 6b5b2ddb892d4395dae51bf3efc7c1d1c7513894310bf1d967b4454ac6b7bc39",
      "scriptpubkey_type": "v0_p2wsh",
      "scriptpubkey_address": "bc1qdddjmkuf94petkh9r0e7l37p68r4zwy5xy9lrkt8k3z5434hhsusc5th2z",
      "value": 302121
    }
  ],
  "size": 647,
  "weight": 1298,
  "fee": 4582,
  "status": {
    "confirmed": true,
    "block_height": 834460,
    "block_hash": "00000000000000000000484a79b643b2524bbce82e5d8a442013fa5b8905ed98",
    "block_time": 1710307468
  },
  "hex": "020000000001041c803456cd778d039cbe9da9562ec1b3f721e7f203a65cc8c29ee01940d2a11b0000000000fdffffff29f853af4db4fd27838c09ac2c23a4507bd005350e2b91a1f34afcd7e77c24ed0100000000fdffffffc68f3cbd39308d9d033934abcc886b5f10cae3b81cfff86dfdfb8ffdd8d7b32b0100000000fdffffff24d84166962ddee06abb7d9087572642c773a9cbe41c07cef2ff9546ab9165e60000000000fdffffff01299c0400000000002200206b5b2ddb892d4395dae51bf3efc7c1d1c7513894310bf1d967b4454ac6b7bc3902473044022066191a855dae938235a6e36d17a724f2928cd2a7e3d7216bd6b067c5052d76d402206d0c158b094c4c8f14e292241e69955efb8ea833c76e18e340a66c941a02dc2f0121036d99a8e888240dd075e6cdac41b7d9607626a65180b0dce2c54f4dbe6341b2b302473044022040667dc4d8fad6a2ea55ea353b7039bd0e7b766eebf45acee08631bdfcaface5022034317fc1788229cdf051ee6934e789f428a9767bc174065f5bafc9ecf50bcc54012102d50b2048bd48eb4ba4401ecda5a199eeab753ccd8121946fc5dc2edfae383c33024730440220497a05b97919f50857b80fd0333f77f4d0e37f8d069a5f9e871a97e3212b438b0220403ebb8c55a434433b5ee61ffadda32c64e64dfb58319ec4503c95d1dfc846e60121024cf2a3355baf8a02c8d7ff5bb0f68eb1aa43855006b7edc59eebd1c2f39ef32b02473044022067865afd406482e1c6cc94f6da311f9da64f0fcfd3f866f3c30586cb0edf19a702200ad2d8e246f3931e8b4173c94534246d6b33fa069c097086bdf1ae42f88c9d36012103ab19b0711626df4d0550927630d656f79cece4ff2334971cacb0adb0fcfd20bc9abb0c00"
}