{
  "txid": "137198dc7ae259859b651cd2f0951627bf701eccff266621fbb50069efca09c9",
  "version": 2,
  "locktime": 0,
  "vin": [
    {
      "txid": "c982755cb094a7d54f89e74672d7864336902e4ac9afe421907db9c8ae178536",
      "vout": 9,
      "prevout": {
        "scriptpubkey": "001499060a4e39ebeb0d1085fc4396d593e202afb192",
        "scriptpubkey_asm": "OP_0 OP_PUSHBYTES_20 99060a4e39ebeb0d1085fc4396d593e202afb192",
        "scriptpubkey_type": "v0_p2wpkh",
        "scriptpubkey_address": "bc1qnyrq5n3ea04s6yy9l3ped4vnugp2lvvjc9adgx",
        "value": 1246415
      },
      "scriptsig": "",
      "scriptsig_asm": "",
      "witness": [
        "30440220595d288ba216e23bd96a81a874c37896b5c17bf4b4cb168d594487813233be4202204bcea62dccc9d6a16d0770e398f65b0ebe1f312f0116ce8520d9742663f8363f01",
        "02fb5743b464ca34a44b05f7d276f056bba2e00179c7f73066df10c07ef7e5dd13"
      ],
      "is_coinbase": false,
      "sequence": 4294967293
    }
  ],
  "vout": [
    {
      "scriptpubkey": "001421b4438a49f11a043ff7c1eb3bec56f64a5803a4",
      "scriptpubkey_asm": "OP_0 OP_PUSHBYTES_20 21b4438a49f11a043ff7c1eb3bec56f64a5803a4",
      "scriptpubkey_type": "v0_p2wpkh",
      "scriptpubkey_address": "bc1qyx6y8zjf7ydqg0lhc84nhmzk7e99sqayv25d0r",
      "value": 138622
    },
    {
      "scriptpubkey": "0014de6fc609eb83e7c4d268336b8453f4037451ec82",
      "scriptpubkey_asm": "OP_0 OP_PUSHBYTES_20 de6fc609eb83e7c4d268336b8453f4037451ec82",
      "scriptpubkey_type": "v0_p2wpkh",
      "scriptpubkey_address": "bc1qmehuvz0ts0nuf5ngxd4cg5l5qd69rmyzajukpg",
      "value": 1105543
    }
  ],
  "size": 222,
  "weight": 561,
  "fee": 2250,
  "status": {
    "confirmed": true,
    "block_height": 834464,
    "block_hash": "0000000000000000000177a0869a911a2b65c9bdcd5a8bcb02b68f305bee848e",
    "block_time": 1710308296
  },
  "hex": "02000000000101368517aec8b97d9021e4afc94a2e90364386d77246e7894fd5a794b05c7582c90900000000fdffffff027e1d02000000000016001421b4438a49f11a043ff7c1eb3bec56f64a5803a487de100000000000160014de6fc609eb83e7c4d268336b8453f4037451ec82024730440220595d288ba216e23bd96a81a874c37896b5c17bf4b4cb168d594487813233be4202204bcea62dccc9d6a16d0770e398f65b0ebe1f312f0116ce8520d9742663f8363f012102fb5743b464ca34a44b05f7d276f056bba2e00179c7f73066df10c07ef7e5dd1300000000"
}