{
  "txid": "1371512961e741fe4f4eb0b5481a2685d60d280ff9743e5135029692f6d939cf",
  "version": 2,
  "locktime": 0,
  "vin": [
    {
      "txid": "6d9f8a3dc9322b03414402796b7c4c305da75f5cb9e823d580c5fa1a945b8450",
      "vout": 2,
      "prevout": {
        "scriptpubkey": "51202889d6b6c00220404ec2ebb95d069c16c9f13109afae0d143688c7d2173c7434",
        "scriptpubkey_asm": "OP_PUSHNUM_1 OP_PUSHBYTES_32 2889d6b6c00220404ec2ebb95d069c16c9f13109afae0d143688c7d2173c7434",
        "scriptpubkey_type": "v1_p2tr",
        "scriptpubkey_address": "bc1p9zyaddkqqgsyqnkzawu46p5uzmylzvgf47hq69pk3rray9euws6qjnwc3p",
        "value": 374625
      },
      "scriptsig": "",
      "scriptsig_asm": "",
      "witness": [
        "17d008a580b0f50cb1060fb5524115ad2c24072134c5119a559aa10ade7d3840020ad1b5749f089679174eb95f044021571b497885378ac33a28dbd99a121ffe"
      ],
      "is_coinbase": false,
      "sequence": 4294967295
    }
  ],
  "vout": [
    {
      "scriptpubkey": "51202889d6b6c00220404ec2ebb95d069c16c9f13109afae0d143688c7d2173c7434",
      "scriptpubkey_asm": "OP_PUSHNUM_1 OP_PUSHBYTES_32 2889d6b6c00220404ec2ebb95d069c16c9f13109afae0d143688c7d2173c7434",
      "scriptpubkey_type": "v1_p2tr",
      "scriptpubkey_address": "bc1p9zyaddkqqgsyqnkzawu46p5uzmylzvgf47hq69pk3rray9euws6qjnwc3p",
      "value": 600
    },
    {
      "scriptpubkey": "51202889d6b6c00220404ec2ebb95d069c16c9f13109afae0d143688c7d2173c7434",
      "scriptpubkey_asm": "OP_PUSHNUM_1 OP_PUSHBYTES_32 2889d6b6c00220404ec2ebb95d069c16c9f13109afae0d143688c7d2173c7434",
      "scriptpubkey_type": "v1_p2tr",
      "scriptpubkey_address": "bc1p9zyaddkqqgsyqnkzawu46p5uzmylzvgf47hq69pk3rray9euws6qjnwc3p",
      "value": 600
    },
    {
      "scriptpubkey": "51202889d6b6c00220404ec2ebb95d069c16c9f13109afae0d143688c7d2173c7434",
      "scriptpubkey_asm": "OP_PUSHNUM_1 OP_PUSHBYTES_32 2889d6b6c00220404ec2ebb95d069c16c9f13109afae0d143688c7d2173c7434",
      "scriptpubkey_type": "v1_p2tr",
      "scriptpubkey_address": "bc1p9zyaddkqqgsyqnkzawu46p5uzmylzvgf47hq69pk3rray9euws6qjnwc3p",
      "value": 370200
    }
  ],
  "size": 248,
  "weight": 788,
  "fee": 3225,
  "status": {
    "confirmed": true,
    "block_height": 834638,
    "block_hash": "000000000000000000025f742c626208ac87e0b7d15054abb4a19ca2d735a54e",
    "block_time": 1710405325
  },
  "hex": "0200000000010150845b941afac580d523e8b95c5fa75d304c7c6b79024441032b32c93d8a9f6d0200000000ffffffff0358020000000000002251202889d6b6c00220404ec2ebb95d069c16c9f13109afae0d143688c7d2173c743458020000000000002251202889d6b6c00220404ec2ebb95d069c16c9f13109afae0d143688c7d2173c743418a60500000000002251202889d6b6c00220404ec2ebb95d069c16c9f13109afae0d143688c7d2173c7434014017d008a580b0f50cb1060fb5524115ad2c24072134c5119a559aa10ade7d3840020ad1b5749f089679174eb95f044021571b497885378ac33a28dbd99a121ffe00000000"
}