{
  "txid": "13938be2ecc799bcc779775c67982bc19e52cc3a5ee16c07c8843f3b0df6f7ae",
  "version": 2,
  "locktime": 0,
  "vin": [
    {
      "txid": "6367b1c718a780a3d786b9b63f0244bc3c2d519b42dab7c31b1b138c9146d668",
      "vout": 20,
      "prevout": {
        "scriptpubkey": "5120e01408f6ea2f53834a6b9a24ec326bc372d3e52958b2160105d0c65d82673bd9",
        "scriptpubkey_asm": "OP_PUSHNUM_1 OP_PUSHBYTES_32 e01408f6ea2f53834a6b9a24ec326bc372d3e52958b2160105d0c65d82673bd9",
        "scriptpubkey_type": "v1_p2tr",
        "scriptpubkey_address": "bc1puq2q3ah29afcxjntngjwcvntcded8efftzepvqg96rr9mqn880vs92me58",
        "value": 1075000
      },
      "scriptsig": "",
      "scriptsig_asm": "",
      "witness": [
        "5c1ecafe09d9025061de54992c716543b8639b119bae3a29255357fa6ae516772261644ee99475369a25781f53d4c4164ae66f2a69094b84c476e30935836814"
      ],
      "is_coinbase": false,
      "sequence": 4294967293
    }
  ],
  "vout": [
    {
      "scriptpubkey": "00145f35a124069683ddeb2f1726e9a1173f9340c87e",
      "scriptpubkey_asm": "OP_0 OP_PUSHBYTES_20 5f35a124069683ddeb2f1726e9a1173f9340c87e",
      "scriptpubkey_type": "v0_p2wpkh",
      "scriptpubkey_address": "bc1qtu66zfqxj6pam6e0zunwnggh87f5pjr7vdr5cd",
      "value": 1000000
    },
    {
      "scriptpubkey": "0014fb7a185fc47428a9992c09f70c6add47a5c19223",
      "scriptpubkey_asm": "OP_0 OP_PUSHBYTES_20 fb7a185fc47428a9992c09f70c6add47a5c19223",
      "scriptpubkey_type": "v0_p2wpkh",
      "scriptpubkey_address": "bc1qldapsh7yws52nxfvp8msc6kag7jury3rxrw4dm",
      "value": 30000
    },
    {
      "scriptpubkey": "5120e01408f6ea2f53834a6b9a24ec326bc372d3e52958b2160105d0c65d82673bd9",
      "scriptpubkey_asm": "OP_PUSHNUM_1 OP_PUSHBYTES_32 e01408f6ea2f53834a6b9a24ec326bc372d3e52958b2160105d0c65d82673bd9",
      "scriptpubkey_type": "v1_p2tr",
      "scriptpubkey_address": "bc1puq2q3ah29afcxjntngjwcvntcded8efftzepvqg96rr9mqn880vs92me58",
      "value": 41031
    }
  ],
  "size": 224,
  "weight": 692,
  "fee": 3969,
  "status": {
    "confirmed": true,
    "block_height": 834638,
    "block_hash": "000000000000000000025f742c626208ac87e0b7d15054abb4a19ca2d735a54e",
    "block_time": 1710405325
  },
  "hex": "0200000000010168d646918c131b1bc3b7da429b512d3cbc44023fb6b986d7a380a718c7b167631400000000fdffffff0340420f00000000001600145f35a124069683ddeb2f1726e9a1173f9340c87e3075000000000000160014fb7a185fc47428a9992c09f70c6add47a5c1922347a0000000000000225120e01408f6ea2f53834a6b9a24ec326bc372d3e52958b2160105d0c65d82673bd901405c1ecafe09d9025061de54992c716543b8639b119bae3a29255357fa6ae516772261644ee99475369a25781f53d4c4164ae66f2a69094b84c476e3093583681400000000"
}