{
  "txid": "139f31c4fed4bc91c3f2ddb59ef81af7feaba999693771a91d2d88578c7dfa4b",
  "version": 2,
  "locktime": 0,
  "vin": [
    {
      "txid": "246d654c08ac53d370d501753f3ac2c90861e2c8cea715ed4b7554841cced399",
      "vout": 37,
      "prevout": {
        "scriptpubkey": "5120ccf6e6a37d612220ef936e207e19773b9a0524360c63dba23437ab4a6f214d61",
        "scriptpubkey_asm": "OP_PUSHNUM_1 OP_PUSHBYTES_32 ccf6e6a37d612220ef936e207e19773b9a0524360c63dba23437ab4a6f214d61",
        "scriptpubkey_type": "v1_p2tr",
        "scriptpubkey_address": "bc1penmwdgmavy3zpmundcs8uxth8wdq2fpkp33ahg35x7455mepf4ss0cw88z",
        "value": 3055
      },
      "scriptsig": "",
      "scriptsig_asm": "",
      "witness": [
        "b8ad1711dfece05bfbb47fbff72d6e5d6f029d7c3d882eff4b5b03d01877536a1e92671f97960a6dad0ad84372fd8280668d83377c530a87824b3325f7d5c551",
        "20c6978e6add455305465f4e286a071ca0a6c2c0b433381e4b9810d5c05346b4f8ac0063036f726401011e6170706c69636174696f6e2f6a736f6e3b636861727365743d7574662d38004cd37b2270223a22706f772d3230222c226f70223a226d696e74222c227469636b223a2250455045222c22616d74223a2231303030222c22736f6c7574696f6e223a22504550453a62633170756a666d33753333656e70786b38383339796c6b3239323239396b6e6467686c717468396e39647a6c7663647635617076366a717732776e71663a303030303030303030303030303030303030303139393431613561653132383937363539383134343239323533333030353762306461393666336465613163353a3130353638313638353232227d68",
        "c1f4929cb66946e40c5d3e5e2b126f88b9a6070d7490abd3aa8e42bf5bbcfe7b9f"
      ],
      "is_coinbase": false,
      "sequence": 4294967295
    }
  ],
  "vout": [
    {
      "scriptpubkey": "5120e493b8f231ccc26b1cf1293f65154a296d36a2ff02ee5995a2fb30d653a166a4",
      "scriptpubkey_asm": "OP_PUSHNUM_1 OP_PUSHBYTES_32 e493b8f231ccc26b1cf1293f65154a296d36a2ff02ee5995a2fb30d653a166a4",
      "scriptpubkey_type": "v1_p2tr",
      "scriptpubkey_address": "bc1pujfm3u33enpxk8839ylk292299kndghlqth9n9dzlvcdv5apv6jqw2wnqf",
      "value": 546
    }
  ],
  "size": 487,
  "weight": 769,
  "fee": 2509,
  "status": {
    "confirmed": true,
    "block_height": 834460,
    "block_hash": "00000000000000000000484a79b643b2524bbce82e5d8a442013fa5b8905ed98",
    "block_time": 1710307468
  },
  "hex": "0200000000010199d3ce1c8454754bed15a7cec8e26108c9c23a3f7501d570d353ac084c656d242500000000ffffffff012202000000000000225120e493b8f231ccc26b1cf1293f65154a296d36a2ff02ee5995a2fb30d653a166a40340b8ad1711dfece05bfbb47fbff72d6e5d6f029d7c3d882eff4b5b03d01877536a1e92671f97960a6dad0ad84372fd8280668d83377c530a87824b3325f7d5c551fd200120c6978e6add455305465f4e286a071ca0a6c2c0b433381e4b9810d5c05346b4f8ac0063036f726401011e6170706c69636174696f6e2f6a736f6e3b636861727365743d7574662d38004cd37b2270223a22706f772d3230222c226f70223a226d696e74222c227469636b223a2250455045222c22616d74223a2231303030222c22736f6c7574696f6e223a22504550453a62633170756a666d33753333656e70786b38383339796c6b3239323239396b6e6467686c717468396e39647a6c7663647635617076366a717732776e71663a303030303030303030303030303030303030303139393431613561653132383937363539383134343239323533333030353762306461393666336465613163353a3130353638313638353232227d6821c1f4929cb66946e40c5d3e5e2b126f88b9a6070d7490abd3aa8e42bf5bbcfe7b9f00000000"
}