{
  "txid": "13a46ba2972b11231cd044e20d13b4bf34c3271225b25185189217dcc717107b",
  "version": 2,
  "locktime": 0,
  "vin": [
    {
      "txid": "758443694d4ffbf153ef89861b3c16854e669199aec722327530fdec0311a808",
      "vout": 162,
      "prevout": {
        "scriptpubkey": "0014e03d3a0d884b38e0bcc73e8841da469dd2ed8290",
        "scriptpubkey_asm": "OP_0 OP_PUSHBYTES_20 e03d3a0d884b38e0bcc73e8841da469dd2ed8290",
        "scriptpubkey_type": "v0_p2wpkh",
        "scriptpubkey_address": "bc1quq7n5rvgfvuwp0x886yyrkjxnhfwmq5sqvwqy4",
        "value": 181588
      },
      "scriptsig": "",
      "scriptsig_asm": "",
      "witness": [
        "30440220044e3acc0851605f6deb6fe657945f80d3a4083166bb05f6c93448ff5221b15b02205db02df2f2fc5d0e4f13f625e5d0412511acce50cdd1d22c75f67c6ccae52b2a01",
        "02dff34f28f58b012f8b1bf549f8c136245223acbbb77bc0c0d167eedff9381d8f"
      ],
      "is_coinbase": false,
      "sequence": 4294967295
    },
    {
      "txid": "d7c328f076be128f10a2cae707cea048cf6f71318cd465535f884090d6a5861f",
      "vout": 0,
      "prevout": {
        "scriptpubkey": "0014e03d3a0d884b38e0bcc73e8841da469dd2ed8290",
        "scriptpubkey_asm": "OP_0 OP_PUSHBYTES_20 e03d3a0d884b38e0bcc73e8841da469dd2ed8290",
        "scriptpubkey_type": "v0_p2wpkh",
        "scriptpubkey_address": "bc1quq7n5rvgfvuwp0x886yyrkjxnhfwmq5sqvwqy4",
        "value": 90807
      },
      "scriptsig": "",
      "scriptsig_asm": "",
      "witness": [
        "3044022012e41d254ec240221d86c99f721346180a7c780c1978a1ee628ea1fdcba076d602206f3a05af690e93e0ce793e9716a1e93613f87da4abca65fc245b69c74991783201",
        "02dff34f28f58b012f8b1bf549f8c136245223acbbb77bc0c0d167eedff9381d8f"
      ],
      "is_coinbase": false,
      "sequence": 4294967295
    },
    {
      "txid": "c2c0455caed31953074c6605f9fefa1cc208432925c6b01e1dd7de34a29445a0",
      "vout": 0,
      "prevout": {
        "scriptpubkey": "0014e03d3a0d884b38e0bcc73e8841da469dd2ed8290",
        "scriptpubkey_asm": "OP_0 OP_PUSHBYTES_20 e03d3a0d884b38e0bcc73e8841da469dd2ed8290",
        "scriptpubkey_type": "v0_p2wpkh",
        "scriptpubkey_address": "bc1quq7n5rvgfvuwp0x886yyrkjxnhfwmq5sqvwqy4",
        "value": 541295
      },
      "scriptsig": "",
      "scriptsig_asm": "",
      "witness": [
        "3044022062537a30892689cac5cadb15a08fbf47a5c3852c7b509e85009c22dd901fbd3202201250b0359b9fce0833a6a303332ee73dfe016a53b95b0d3a55e3b40d16459a1e01",
        "02dff34f28f58b012f8b1bf549f8c136245223acbbb77bc0c0d167eedff9381d8f"
      ],
      "is_coinbase": false,
      "sequence": 4294967295
    }
  ],
  "vout": [
    {
      "scriptpubkey": "0014e03d3a0d884b38e0bcc73e8841da469dd2ed8290",
      "scriptpubkey_asm": "OP_0 OP_PUSHBYTES_20 e03d3a0d884b38e0bcc73e8841da469dd2ed8290",
      "scriptpubkey_type": "v0_p2wpkh",
      "scriptpubkey_address": "bc1quq7n5rvgfvuwp0x886yyrkjxnhfwmq5sqvwqy4",
      "value": 116319
    },
    {
      "scriptpubkey": "76a9146739a5f2f1c1edfe86b37dd01ecdaabcf872a65688ac",
      "scriptpubkey_asm": "OP_DUP OP_HASH160 OP_PUSHBYTES_20 6739a5f2f1c1edfe86b37dd01ecdaabcf872a656 OP_EQUALVERIFY OP_CHECKSIG",
      "scriptpubkey_type": "p2pkh",
      "scriptpubkey_address": "1AQofEFApo26PFjsgiQMVJo2T9Rm1Dfg6r",
      "value": 693108
    }
  ],
  "size": 521,
  "weight": 1115,
  "fee": 4263,
  "status": {
    "confirmed": true,
    "block_height": 834464,
    "block_hash": "0000000000000000000177a0869a911a2b65c9bdcd5a8bcb02b68f305bee848e",
    "block_time": 1710308296
  },
  "hex": "0200000000010308a81103ecfd30753222c7ae9991664e85163c1b8689ef53f1fb4f4d69438475a200000000ffffffff1f86a5d69040885f5365d48c31716fcf48a0ce07e7caa2108f12be76f028c3d70000000000ffffffffa04594a234ded71d1eb0c625294308c21cfafef905664c075319d3ae5c45c0c20000000000ffffffff025fc6010000000000160014e03d3a0d884b38e0bcc73e8841da469dd2ed829074930a00000000001976a9146739a5f2f1c1edfe86b37dd01ecdaabcf872a65688ac024730440220044e3acc0851605f6deb6fe657945f80d3a4083166bb05f6c93448ff5221b15b02205db02df2f2fc5d0e4f13f625e5d0412511acce50cdd1d22c75f67c6ccae52b2a012102dff34f28f58b012f8b1bf549f8c136245223acbbb77bc0c0d167eedff9381d8f02473044022012e41d254ec240221d86c99f721346180a7c780c1978a1ee628ea1fdcba076d602206f3a05af690e93e0ce793e9716a1e93613f87da4abca65fc245b69c749917832012102dff34f28f58b012f8b1bf549f8c136245223acbbb77bc0c0d167eedff9381d8f02473044022062537a30892689cac5cadb15a08fbf47a5c3852c7b509e85009c22dd901fbd3202201250b0359b9fce0833a6a303332ee73dfe016a53b95b0d3a55e3b40d16459a1e012102dff34f28f58b012f8b1bf549f8c136245223acbbb77bc0c0d167eedff9381d8f00000000"
}