{
  "txid": "13a82a31476ab851296b0f836e541608b41f9de1251393b9d38bbd198b52f819",
  "version": 2,
  "locktime": 0,
  "vin": [
    {
      "txid": "a997e5aeef36b044533367149950d8230ad4c3be75fd3e25d0b0ed5f3258b7cb",
      "vout": 1,
      "prevout": {
        "scriptpubkey": "512044676717c3d1ade859d2ca1ef30a4f8db891096a9789d4fac4547fb7acc374fa",
        "scriptpubkey_asm": "OP_PUSHNUM_1 OP_PUSHBYTES_32 44676717c3d1ade859d2ca1ef30a4f8db891096a9789d4fac4547fb7acc374fa",
        "scriptpubkey_type": "v1_p2tr",
        "scriptpubkey_address": "bc1pg3nkw97r6xk7skwjeg00xzj03kufzzt2j7yaf7ky23lm0txrwnaqk2dtur",
        "value": 3316208
      },
      "scriptsig": "",
      "scriptsig_asm": "",
      "witness": [
        "366e46d9eca650e4cc77471541c7c8fe0e5b9e8f3dc803a814ce3f5dba9aff851683c2a7457d7b1e50b6dc52e20e4668cf5b47da98b0c830597004f1d05e920a"
      ],
      "is_coinbase": false,
      "sequence": 4294967293
    }
  ],
  "vout": [
    {
      "scriptpubkey": "5120a39b757270907ed9b36d42ddd4282ad9881e8cf8226e75e49c577bc558f36535",
      "scriptpubkey_asm": "OP_PUSHNUM_1 OP_PUSHBYTES_32 a39b757270907ed9b36d42ddd4282ad9881e8cf8226e75e49c577bc558f36535",
      "scriptpubkey_type": "v1_p2tr",
      "scriptpubkey_address": "bc1p5wdh2unsjpldnvmdgtwag2p2mxypar8cyfh8teyu2aau2k8nv56s0f025k",
      "value": 2978
    },
    {
      "scriptpubkey": "512044676717c3d1ade859d2ca1ef30a4f8db891096a9789d4fac4547fb7acc374fa",
      "scriptpubkey_asm": "OP_PUSHNUM_1 OP_PUSHBYTES_32 44676717c3d1ade859d2ca1ef30a4f8db891096a9789d4fac4547fb7acc374fa",
      "scriptpubkey_type": "v1_p2tr",
      "scriptpubkey_address": "bc1pg3nkw97r6xk7skwjeg00xzj03kufzzt2j7yaf7ky23lm0txrwnaqk2dtur",
      "value": 3310766
    }
  ],
  "size": 205,
  "weight": 616,
  "fee": 2464,
  "status": {
    "confirmed": true,
    "block_height": 834638,
    "block_hash": "000000000000000000025f742c626208ac87e0b7d15054abb4a19ca2d735a54e",
    "block_time": 1710405325
  },
  "hex": "02000000000101cbb758325fedb0d0253efd75bec3d40a23d850991467335344b036efaee597a90100000000fdffffff02a20b000000000000225120a39b757270907ed9b36d42ddd4282ad9881e8cf8226e75e49c577bc558f36535ae8432000000000022512044676717c3d1ade859d2ca1ef30a4f8db891096a9789d4fac4547fb7acc374fa0140366e46d9eca650e4cc77471541c7c8fe0e5b9e8f3dc803a814ce3f5dba9aff851683c2a7457d7b1e50b6dc52e20e4668cf5b47da98b0c830597004f1d05e920a00000000"
}