{
  "txid": "13b8a243cfec201d4961ad1f4c4e845ce219b71630dfc0d79e5a733e89d4497e",
  "version": 1,
  "locktime": 0,
  "vin": [
    {
      "txid": "7654bdb0d6100302330442016f63946689aa5aaa93436cba85eabcd94110b051",
      "vout": 1,
      "prevout": {
        "scriptpubkey": "00141a73c160eda5fd469d790770e1d7905ab5242ed1",
        "scriptpubkey_asm": "OP_0 OP_PUSHBYTES_20 1a73c160eda5fd469d790770e1d7905ab5242ed1",
        "scriptpubkey_type": "v0_p2wpkh",
        "scriptpubkey_address": "bc1qrfeuzc8d5h75d8teqacwr4ust26jgtk32t84t3",
        "value": 115728
      },
      "scriptsig": "",
      "scriptsig_asm": "",
      "witness": [
        "304402201af7b5c5523fabf29d9d7176095eeb5dad13c18e36a1b3cf74c8d14d2a7c5fbe02200e60637f41d52c5f6ce2256683c66dfef1c5978708bcf1d9db3e10ffe5a2cfc401",
        "029685f0001b8e8c716ed17c1ee5652f01b07b40b93504cff9eb3d184fda751798"
      ],
      "is_coinbase": false,
      "sequence": 4294967295
    },
    {
      "txid": "259adc9cd0c161f85c3521d8d591908baffac85eb2850b967ccceba97eb88623",
      "vout": 26,
      "prevout": {
        "scriptpubkey": "0014e51f239448fc02296bfba13ed8937f7a72cd2f0f",
        "scriptpubkey_asm": "OP_0 OP_PUSHBYTES_20 e51f239448fc02296bfba13ed8937f7a72cd2f0f",
        "scriptpubkey_type": "v0_p2wpkh",
        "scriptpubkey_address": "bc1qu50j89zglspzj6lm5yld3yml0fev6tc0dpf4zt",
        "value": 220417
      },
      "scriptsig": "",
      "scriptsig_asm": "",
      "witness": [
        "3045022100e520a474dda1f0c59826e543b05b1049971b4c050fca95e54c30cb8b2ef23c60022055c66ea46aa426852e930422c76f0536fbf69addd0fb4a8c85ccb9704e52009201",
        "02f720ab689f2ac31731658b13a409c4661a8f327755c3ae387a0559f9eb1b75e2"
      ],
      "is_coinbase": false,
      "sequence": 4294967295
    },
    {
      "txid": "67d20f427a42d5b4762396ded24cd9de6dfb4ed66c6e7d8a7b132c178fd81a49",
      "vout": 128,
      "prevout": {
        "scriptpubkey": "0014e51f239448fc02296bfba13ed8937f7a72cd2f0f",
        "scriptpubkey_asm": "OP_0 OP_PUSHBYTES_20 e51f239448fc02296bfba13ed8937f7a72cd2f0f",
        "scriptpubkey_type": "v0_p2wpkh",
        "scriptpubkey_address": "bc1qu50j89zglspzj6lm5yld3yml0fev6tc0dpf4zt",
        "value": 255052
      },
      "scriptsig": "",
      "scriptsig_asm": "",
      "witness": [
        "3045022100bd1288d0f074c05eb7abc7c0a60123bd32de118f4a7d6ed4a237084d89739cec022060a5452e4b1a4f2854f66cb0d0ba69aeb2c0ae92572879cdd81abc4f229e3b8101",
        "02f720ab689f2ac31731658b13a409c4661a8f327755c3ae387a0559f9eb1b75e2"
      ],
      "is_coinbase": false,
      "sequence": 4294967295
    },
    {
      "txid": "7dd8787651cf32636babfaee9c43db29238620b04eaa28aca5094264054837af",
      "vout": 83,
      "prevout": {
        "scriptpubkey": "0014e51f239448fc02296bfba13ed8937f7a72cd2f0f",
        "scriptpubkey_asm": "OP_0 OP_PUSHBYTES_20 e51f239448fc02296bfba13ed8937f7a72cd2f0f",
        "scriptpubkey_type": "v0_p2wpkh",
        "scriptpubkey_address": "bc1qu50j89zglspzj6lm5yld3yml0fev6tc0dpf4zt",
        "value": 265635
      },
      "scriptsig": "",
      "scriptsig_asm": "",
      "witness": [
        "304402202b45edb5abc2ca809a1196897b1ab8c2eda5a2541f9bce5a089b85f13d708fc002204fa4a55d9fbbb05d7f797f2bdf9e143f88b26322800b826a472b045e842d19cd01",
        "02f720ab689f2ac31731658b13a409c4661a8f327755c3ae387a0559f9eb1b75e2"
      ],
      "is_coinbase": false,
      "sequence": 4294967295
    },
    {
      "txid": "459c5bb77250fbd3fbe4237e121639351b896cda6994971d7db084d67d10a357",
      "vout": 35,
      "prevout": {
        "scriptpubkey": "0014b0b9a66dbd2304487fa53ba9282d5be330b81057",
        "scriptpubkey_asm": "OP_0 OP_PUSHBYTES_20 b0b9a66dbd2304487fa53ba9282d5be330b81057",
        "scriptpubkey_type": "v0_p2wpkh",
        "scriptpubkey_address": "bc1qkzu6vmdayvzysla98w5jst2muvctsyzhym7m4x",
        "value": 298240
      },
      "scriptsig": "",
      "scriptsig_asm": "",
      "witness": [
        "3045022100854cddad697cd77c9d0ed8a69b9b4c7c855b05a967781c503262c77d5494fe76022068557dd5b21e4df56507f9be7da5f08f676c84bcb3b8b51fd846a9f2a73cbc3501",
        "029910cf82ca4c692578e6a8a160878293a6f5507d056079bb2e3d560c0da353cd"
      ],
      "is_coinbase": false,
      "sequence": 4294967295
    },
    {
      "txid": "8c078d581c762e3af29de052b1b08621c2c2649efa280f7944c4cfd537a61e96",
      "vout": 35,
      "prevout": {
        "scriptpubkey": "0014e51f239448fc02296bfba13ed8937f7a72cd2f0f",
        "scriptpubkey_asm": "OP_0 OP_PUSHBYTES_20 e51f239448fc02296bfba13ed8937f7a72cd2f0f",
        "scriptpubkey_type": "v0_p2wpkh",
        "scriptpubkey_address": "bc1qu50j89zglspzj6lm5yld3yml0fev6tc0dpf4zt",
        "value": 360111
      },
      "scriptsig": "",
      "scriptsig_asm": "",
      "witness": [
        "304402205698ffdfb1880c1b92db6025448f175509095a7d72321bb52a55fcd97c187b65022057517a490cfd63c26c7ed07ecd420b4ae63e2897d25288d82e432e2f8efc560f01",
        "02f720ab689f2ac31731658b13a409c4661a8f327755c3ae387a0559f9eb1b75e2"
      ],
      "is_coinbase": false,
      "sequence": 4294967295
    },
    {
      "txid": "ad871180d8e0e42b221a2fa30d4c7a2663b79887b26adff12d6f444d39179cbe",
      "vout": 19,
      "prevout": {
        "scriptpubkey": "0014c073e5d84b4d56a4fd55d887c03268afd23e87c3",
        "scriptpubkey_asm": "OP_0 OP_PUSHBYTES_20 c073e5d84b4d56a4fd55d887c03268afd23e87c3",
        "scriptpubkey_type": "v0_p2wpkh",
        "scriptpubkey_address": "bc1qcpe7tkztf4t2fl24mzruqvng4lfrap7r93v6w6",
        "value": 428405
      },
      "scriptsig": "",
      "scriptsig_asm": "",
      "witness": [
        "3045022100f2a1abd2b16c20a056a66ce7416bbd65f1fcde3965af9259a9c4735a571e2f6702204c17497e97cb700756216eaef59e955ed39f299a952172033afcb000fe3c9c7001",
        "020289f8c6cfe9eaab6cf60cc07158597291c74113d8814a0e52b2c2437f94af8f"
      ],
      "is_coinbase": false,
      "sequence": 4294967295
    }
  ],
  "vout": [
    {
      "scriptpubkey": "76a914a5ca881033bbf82f4b002ba317e25714bc0ec02e88ac",
      "scriptpubkey_asm": "OP_DUP OP_HASH160 OP_PUSHBYTES_20 a5ca881033bbf82f4b002ba317e25714bc0ec02e OP_EQUALVERIFY OP_CHECKSIG",
      "scriptpubkey_type": "p2pkh",
      "scriptpubkey_address": "1G7d7nexvJorb4ueDQCqMBc5Nb5anm5aWz",
      "value": 1687640
    },
    {
      "scriptpubkey": "001476c1b789272abac5732ae890998a8587957d746e",
      "scriptpubkey_asm": "OP_0 OP_PUSHBYTES_20 76c1b789272abac5732ae890998a8587957d746e",
      "scriptpubkey_type": "v0_p2wpkh",
      "scriptpubkey_address": "bc1qwmqm0zf892av2ue2azgfnz59s72h6arwnps4uj",
      "value": 247704
    }
  ],
  "size": 1117,
  "weight": 2203,
  "fee": 8244,
  "status": {
    "confirmed": true,
    "block_height": 834638,
    "block_hash": "000000000000000000025f742c626208ac87e0b7d15054abb4a19ca2d735a54e",
    "block_time": 1710405325
  },
  "hex": "0100000000010751b01041d9bcea85ba6c4393aa5aaa896694636f01420433020310d6b0bd54760100000000ffffffff2386b87ea9ebcc7c960b85b25ec8faaf8b9091d5d821355cf861c1d09cdc9a251a00000000ffffffff491ad88f172c137b8a7d6e6cd64efb6dded94cd2de962376b4d5427a420fd2678000000000ffffffffaf374805644209a5ac28aa4eb020862329db439ceefaab6b6332cf517678d87d5300000000ffffffff57a3107dd684b07d1d979469da6c891b353916127e23e4fbd3fb5072b75b9c452300000000ffffffff961ea637d5cfc444790f28fa9e64c2c22186b0b152e09df23a2e761c588d078c2300000000ffffffffbe9c17394d446f2df1df6ab28798b763267a4c0da32f1a222be4e0d8801187ad1300000000ffffffff0258c01900000000001976a914a5ca881033bbf82f4b002ba317e25714bc0ec02e88ac98c703000000000016001476c1b789272abac5732ae890998a8587957d746e0247304402201af7b5c5523fabf29d9d7176095eeb5dad13c18e36a1b3cf74c8d14d2a7c5fbe02200e60637f41d52c5f6ce2256683c66dfef1c5978708bcf1d9db3e10ffe5a2cfc40121029685f0001b8e8c716ed17c1ee5652f01b07b40b93504cff9eb3d184fda75179802483045022100e520a474dda1f0c59826e543b05b1049971b4c050fca95e54c30cb8b2ef23c60022055c66ea46aa426852e930422c76f0536fbf69addd0fb4a8c85ccb9704e520092012102f720ab689f2ac31731658b13a409c4661a8f327755c3ae387a0559f9eb1b75e202483045022100bd1288d0f074c05eb7abc7c0a60123bd32de118f4a7d6ed4a237084d89739cec022060a5452e4b1a4f2854f66cb0d0ba69aeb2c0ae92572879cdd81abc4f229e3b81012102f720ab689f2ac31731658b13a409c4661a8f327755c3ae387a0559f9eb1b75e20247304402202b45edb5abc2ca809a1196897b1ab8c2eda5a2541f9bce5a089b85f13d708fc002204fa4a55d9fbbb05d7f797f2bdf9e143f88b26322800b826a472b045e842d19cd012102f720ab689f2ac31731658b13a409c4661a8f327755c3ae387a0559f9eb1b75e202483045022100854cddad697cd77c9d0ed8a69b9b4c7c855b05a967781c503262c77d5494fe76022068557dd5b21e4df56507f9be7da5f08f676c84bcb3b8b51fd846a9f2a73cbc350121029910cf82ca4c692578e6a8a160878293a6f5507d056079bb2e3d560c0da353cd0247304402205698ffdfb1880c1b92db6025448f175509095a7d72321bb52a55fcd97c187b65022057517a490cfd63c26c7ed07ecd420b4ae63e2897d25288d82e432e2f8efc560f012102f720ab689f2ac31731658b13a409c4661a8f327755c3ae387a0559f9eb1b75e202483045022100f2a1abd2b16c20a056a66ce7416bbd65f1fcde3965af9259a9c4735a571e2f6702204c17497e97cb700756216eaef59e955ed39f299a952172033afcb000fe3c9c700121020289f8c6cfe9eaab6cf60cc07158597291c74113d8814a0e52b2c2437f94af8f00000000"
}