{
  "txid": "13bbbc98f8f34a9fc31303dd75b1bc6ec7602348ef5c985816407e1397ae1d6f",
  "version": 1,
  "locktime": 0,
  "vin": [
    {
      "txid": "78455ab4de2179758836e9e614167759d3a1827a7e72b37dab2f8f49f8e45875",
      "vout": 2,
      "prevout": {
        "scriptpubkey": "002098cc29cc5e49fffdd5242985fb09ae9c14419001ea6e42a81feac04caff85eaf",
        "scriptpubkey_asm": "OP_0 OP_PUSHBYTES_32 98cc29cc5e49fffdd5242985fb09ae9c14419001ea6e42a81feac04caff85eaf",
        "scriptpubkey_type": "v0_p2wsh",
        "scriptpubkey_address": "bc1qnrxznnz7f8llm4fy9xzlkzdwns2yryqpafhy92qlatqyetlct6hsj37cv6",
        "value": 8534148
      },
      "scriptsig": "",
      "scriptsig_asm": "",
      "witness": [
        "",
        "3045022100911ed5c845415fd65716793e7f40d9aeedd11912c21712ca2d7afe71ae1bc886022003becca044121a3825d24bc1e5b54e9584a8e42417716a295232c7db04339ce701",
        "304402201ea43b7ee77ed8539c183424e87ec1b9916e1c21023de6bae778cb0376f278a9022010964f48048c3eb583d0bc854dbaa80ede674763ceb5e30a19bd7cc0ada8aed201",
        "522103d82bcc8a91bd3702c779649c77a0ae68420e2f9df7b12b7ef82beb3d641cf5a5210261ff1aee2aab02c5599d6d7f53ff7af3e168b2b10bca67e50447120edf0c1b00210264fafdc6a882d4c596a1bfdf0168b0768a1ac5bc8a6d1f87406490f6cd43ab8e53ae"
      ],
      "is_coinbase": false,
      "sequence": 4294967293,
      "inner_witnessscript_asm": "OP_PUSHNUM_2 OP_PUSHBYTES_33 03d82bcc8a91bd3702c779649c77a0ae68420e2f9df7b12b7ef82beb3d641cf5a5 OP_PUSHBYTES_33 0261ff1aee2aab02c5599d6d7f53ff7af3e168b2b10bca67e50447120edf0c1b00 OP_PUSHBYTES_33 0264fafdc6a882d4c596a1bfdf0168b0768a1ac5bc8a6d1f87406490f6cd43ab8e OP_PUSHNUM_3 OP_CHECKMULTISIG"
    },
    {
      "txid": "d2bb6148888f4b7041a8a2e3857fb2498e1e609d87c6fc4bd29b44449969ca8e",
      "vout": 0,
      "prevout": {
        "scriptpubkey": "a91480fdbe9a66abcbba1cea6347aaf394331d975f9587",
        "scriptpubkey_asm": "OP_HASH160 OP_PUSHBYTES_20 80fdbe9a66abcbba1cea6347aaf394331d975f95 OP_EQUAL",
        "scriptpubkey_type": "p2sh",
        "scriptpubkey_address": "3DT4PaUgZaMA3Dgh5zRStX4m2HPdXv8Nyo",
        "value": 23489900
      },
      "scriptsig": "2200207bd15f27386e867dc01c7ebe273d099c92d3188efc6f190b541ff000a82d2b72",
      "scriptsig_asm": "OP_PUSHBYTES_34 00207bd15f27386e867dc01c7ebe273d099c92d3188efc6f190b541ff000a82d2b72",
      "witness": [
        "",
        "3045022100b35263ee45d033953dfe55ee8ae3a0e4e4fe68b667b2f8eef8959c6e0349c63e02204d42d28056783a69d23751212c6291966d9ad971a10e82f37c877318dfda3ac701",
        "304402201a5fd757726a68a55037ec7be2b0bb475588347e1cc5f4f9c8871ea9d0ca8f240220464b641f6fcf1ecbddb577b9c7069b243244932e854e939c53b149f6f558d19f01",
        "52210351dcc3980140e90bda158c36cbe60bf5ddc3b250166a3ba81d6eda25479ef7b62102563eafd0237f74b5338416c5ed805a0f679ff6f7fe7a15fcfa63f6c21da98f48210242d84386fc38404f83e1a2b2e11f19bc52a1e6cc8d1d1cf331729bf67cb65f9e53ae"
      ],
      "is_coinbase": false,
      "sequence": 4294967293,
      "inner_redeemscript_asm": "OP_0 OP_PUSHBYTES_32 7bd15f27386e867dc01c7ebe273d099c92d3188efc6f190b541ff000a82d2b72",
      "inner_witnessscript_asm": "OP_PUSHNUM_2 OP_PUSHBYTES_33 0351dcc3980140e90bda158c36cbe60bf5ddc3b250166a3ba81d6eda25479ef7b6 OP_PUSHBYTES_33 02563eafd0237f74b5338416c5ed805a0f679ff6f7fe7a15fcfa63f6c21da98f48 OP_PUSHBYTES_33 0242d84386fc38404f83e1a2b2e11f19bc52a1e6cc8d1d1cf331729bf67cb65f9e OP_PUSHNUM_3 OP_CHECKMULTISIG"
    },
    {
      "txid": "ffb75e4ea71f88fbe263274db25ccff6034cfb61ff9e24b6ae4ba5a2370a509b",
      "vout": 4,
      "prevout": {
        "scriptpubkey": "a91480fdbe9a66abcbba1cea6347aaf394331d975f9587",
        "scriptpubkey_asm": "OP_HASH160 OP_PUSHBYTES_20 80fdbe9a66abcbba1cea6347aaf394331d975f95 OP_EQUAL",
        "scriptpubkey_type": "p2sh",
        "scriptpubkey_address": "3DT4PaUgZaMA3Dgh5zRStX4m2HPdXv8Nyo",
        "value": 11643650
      },
      "scriptsig": "2200207bd15f27386e867dc01c7ebe273d099c92d3188efc6f190b541ff000a82d2b72",
      "scriptsig_asm": "OP_PUSHBYTES_34 00207bd15f27386e867dc01c7ebe273d099c92d3188efc6f190b541ff000a82d2b72",
      "witness": [
        "",
        "30450221008c7d6ccfd84b9d259799210db22c89c8f0c869828401d49abb5b28ad6ec63fc90220686da1313a10b75f03acef271de92aa69f54a4866c4faceec0f4bed3ae462be101",
        "3044022024771675b6f96d3e98607f441d3ba8738b498cdd6920c5d84eb7301377fd96bd0220647469e773d79e9a68ecdd8f7a292cfd984512cb0c2a776199b6bb2788111de901",
        "52210351dcc3980140e90bda158c36cbe60bf5ddc3b250166a3ba81d6eda25479ef7b62102563eafd0237f74b5338416c5ed805a0f679ff6f7fe7a15fcfa63f6c21da98f48210242d84386fc38404f83e1a2b2e11f19bc52a1e6cc8d1d1cf331729bf67cb65f9e53ae"
      ],
      "is_coinbase": false,
      "sequence": 4294967293,
      "inner_redeemscript_asm": "OP_0 OP_PUSHBYTES_32 7bd15f27386e867dc01c7ebe273d099c92d3188efc6f190b541ff000a82d2b72",
      "inner_witnessscript_asm": "OP_PUSHNUM_2 OP_PUSHBYTES_33 0351dcc3980140e90bda158c36cbe60bf5ddc3b250166a3ba81d6eda25479ef7b6 OP_PUSHBYTES_33 02563eafd0237f74b5338416c5ed805a0f679ff6f7fe7a15fcfa63f6c21da98f48 OP_PUSHBYTES_33 0242d84386fc38404f83e1a2b2e11f19bc52a1e6cc8d1d1cf331729bf67cb65f9e OP_PUSHNUM_3 OP_CHECKMULTISIG"
    }
  ],
  "vout": [
    {
      "scriptpubkey": "5120f22c71624740fac355e5f4ec324c78993424b63edf68043891d61e6d7f6701f7",
      "scriptpubkey_asm": "OP_PUSHNUM_1 OP_PUSHBYTES_32 f22c71624740fac355e5f4ec324c78993424b63edf68043891d61e6d7f6701f7",
      "scriptpubkey_type": "v1_p2tr",
      "scriptpubkey_address": "bc1p7gk8zcj8gravx4097nkrynrcny6zfd37ma5qgwy36c0x6lm8q8msywa4nw",
      "value": 99437
    },
    {
      "scriptpubkey": "00203c3a01aa843875b6f6447f14dac7c0d9981edfd3b2bfc84fec31d8a21c53e777",
      "scriptpubkey_asm": "OP_0 OP_PUSHBYTES_32 3c3a01aa843875b6f6447f14dac7c0d9981edfd3b2bfc84fec31d8a21c53e777",
      "scriptpubkey_type": "v0_p2wsh",
      "scriptpubkey_address": "bc1q8saqr25y8p6mdajy0u2d437qmxvpah7nk2lusnlvx8v2y8znuamsuh62st",
      "value": 3782745
    },
    {
      "scriptpubkey": "0014280c7cdb3062bb1fbbecc333acc5870832705365",
      "scriptpubkey_asm": "OP_0 OP_PUSHBYTES_20 280c7cdb3062bb1fbbecc333acc5870832705365",
      "scriptpubkey_type": "v0_p2wpkh",
      "scriptpubkey_address": "bc1q9qx8ekesv2a3lwlvcve6e3v8pqe8q5m9yn96fz",
      "value": 39775000
    }
  ],
  "size": 1081,
  "weight": 2041,
  "fee": 10516,
  "status": {
    "confirmed": true,
    "block_height": 834638,
    "block_hash": "000000000000000000025f742c626208ac87e0b7d15054abb4a19ca2d735a54e",
    "block_time": 1710405325
  },
  "hex": "010000000001037558e4f8498f2fab7db3727e7a82a1d359771614e6e93688757921deb45a45780200000000fdffffff8eca699944449bd24bfcc6879d601e8e49b27f85e3a2a841704b8f884861bbd200000000232200207bd15f27386e867dc01c7ebe273d099c92d3188efc6f190b541ff000a82d2b72fdffffff9b500a37a2a54baeb6249eff61fb4c03f6cf5cb24d2763e2fb881fa74e5eb7ff04000000232200207bd15f27386e867dc01c7ebe273d099c92d3188efc6f190b541ff000a82d2b72fdffffff036d84010000000000225120f22c71624740fac355e5f4ec324c78993424b63edf68043891d61e6d7f6701f759b83900000000002200203c3a01aa843875b6f6447f14dac7c0d9981edfd3b2bfc84fec31d8a21c53e77718eb5e0200000000160014280c7cdb3062bb1fbbecc333acc58708327053650400483045022100911ed5c845415fd65716793e7f40d9aeedd11912c21712ca2d7afe71ae1bc886022003becca044121a3825d24bc1e5b54e9584a8e42417716a295232c7db04339ce70147304402201ea43b7ee77ed8539c183424e87ec1b9916e1c21023de6bae778cb0376f278a9022010964f48048c3eb583d0bc854dbaa80ede674763ceb5e30a19bd7cc0ada8aed20169522103d82bcc8a91bd3702c779649c77a0ae68420e2f9df7b12b7ef82beb3d641cf5a5210261ff1aee2aab02c5599d6d7f53ff7af3e168b2b10bca67e50447120edf0c1b00210264fafdc6a882d4c596a1bfdf0168b0768a1ac5bc8a6d1f87406490f6cd43ab8e53ae0400483045022100b35263ee45d033953dfe55ee8ae3a0e4e4fe68b667b2f8eef8959c6e0349c63e02204d42d28056783a69d23751212c6291966d9ad971a10e82f37c877318dfda3ac70147304402201a5fd757726a68a55037ec7be2b0bb475588347e1cc5f4f9c8871ea9d0ca8f240220464b641f6fcf1ecbddb577b9c7069b243244932e854e939c53b149f6f558d19f016952210351dcc3980140e90bda158c36cbe60bf5ddc3b250166a3ba81d6eda25479ef7b62102563eafd0237f74b5338416c5ed805a0f679ff6f7fe7a15fcfa63f6c21da98f48210242d84386fc38404f83e1a2b2e11f19bc52a1e6cc8d1d1cf331729bf67cb65f9e53ae04004830450221008c7d6ccfd84b9d259799210db22c89c8f0c869828401d49abb5b28ad6ec63fc90220686da1313a10b75f03acef271de92aa69f54a4866c4faceec0f4bed3ae462be101473044022024771675b6f96d3e98607f441d3ba8738b498cdd6920c5d84eb7301377fd96bd0220647469e773d79e9a68ecdd8f7a292cfd984512cb0c2a776199b6bb2788111de9016952210351dcc3980140e90bda158c36cbe60bf5ddc3b250166a3ba81d6eda25479ef7b62102563eafd0237f74b5338416c5ed805a0f679ff6f7fe7a15fcfa63f6c21da98f48210242d84386fc38404f83e1a2b2e11f19bc52a1e6cc8d1d1cf331729bf67cb65f9e53ae00000000"
}