{
  "txid": "13c644c4dbacee307d30d6719879ffa546756aaaa3b29d1125382ecb46474b1a",
  "version": 2,
  "locktime": 834637,
  "vin": [
    {
      "txid": "fd7b01d012f67f58e12e076369da78c2b63f34b25598b3a114e59768ddbbb3a2",
      "vout": 0,
      "prevout": {
        "scriptpubkey": "001406f5d85523c63f0b263fb68c52300cfd238f3472",
        "scriptpubkey_asm": "OP_0 OP_PUSHBYTES_20 06f5d85523c63f0b263fb68c52300cfd238f3472",
        "scriptpubkey_type": "v0_p2wpkh",
        "scriptpubkey_address": "bc1qqm6as4frcclskf3lk6x9yvqvl53c7drjsf8hp2",
        "value": 277125232
      },
      "scriptsig": "",
      "scriptsig_asm": "",
      "witness": [
        "304402207aa6544a51ff445de0d4031547e837b44dd63f8c8dc428380bb43142adbc1106022056642467d3bca2e29d51f7f2723257b19ca3d22e38bc630bb929ba39b6b2a19c01",
        "0270d3419caac5ffb405842cd8dda7b80bb6aba06285cb18d2eff25f2b5cde4180"
      ],
      "is_coinbase": false,
      "sequence": 4294967294
    }
  ],
  "vout": [
    {
      "scriptpubkey": "a914087a38405077adad40aad5d16e12e63fc6add78587",
      "scriptpubkey_asm": "OP_HASH160 OP_PUSHBYTES_20 087a38405077adad40aad5d16e12e63fc6add785 OP_EQUAL",
      "scriptpubkey_type": "p2sh",
      "scriptpubkey_address": "32Tqk46bxZSZCp23SdPU82R9QtESX2KY4o",
      "value": 275400
    },
    {
      "scriptpubkey": "0014f81657c54bb9437631500e89e4fb16a047fe0f0c",
      "scriptpubkey_asm": "OP_0 OP_PUSHBYTES_20 f81657c54bb9437631500e89e4fb16a047fe0f0c",
      "scriptpubkey_type": "v0_p2wpkh",
      "scriptpubkey_address": "bc1qlqt9032th9phvv2sp6y7f7ck5prlurcvg4lekk",
      "value": 276846352
    }
  ],
  "size": 223,
  "weight": 565,
  "fee": 3480,
  "status": {
    "confirmed": true,
    "block_height": 834638,
    "block_hash": "000000000000000000025f742c626208ac87e0b7d15054abb4a19ca2d735a54e",
    "block_time": 1710405325
  },
  "hex": "02000000000101a2b3bbdd6897e514a1b39855b2343fb6c278da6963072ee1587ff612d0017bfd0000000000feffffff02c83304000000000017a914087a38405077adad40aad5d16e12e63fc6add785871057801000000000160014f81657c54bb9437631500e89e4fb16a047fe0f0c0247304402207aa6544a51ff445de0d4031547e837b44dd63f8c8dc428380bb43142adbc1106022056642467d3bca2e29d51f7f2723257b19ca3d22e38bc630bb929ba39b6b2a19c01210270d3419caac5ffb405842cd8dda7b80bb6aba06285cb18d2eff25f2b5cde41804dbc0c00"
}