{
  "txid": "13d98f61a5b5f0f11217f0e890d13f3605c39f61ed1e2344baa4cf58d52aa000",
  "version": 2,
  "locktime": 553247588,
  "vin": [
    {
      "txid": "0d02e467fd27eab095adc454140c6759fbadbc992fe33f3bed878db74876d695",
      "vout": 1,
      "prevout": {
        "scriptpubkey": "002007828e12a2e082cfec7f32eef39971a15a195ae85c492a54a29c1a398c301b76",
        "scriptpubkey_asm": "OP_0 OP_PUSHBYTES_32 07828e12a2e082cfec7f32eef39971a15a195ae85c492a54a29c1a398c301b76",
        "scriptpubkey_type": "v0_p2wsh",
        "scriptpubkey_address": "bc1qq7pguy4zuzpvlmrlxth08xt359dpjkhgt3yj549znsdrnrpsrdmqy70ww5",
        "value": 500000
      },
      "scriptsig": "",
      "scriptsig_asm": "",
      "witness": [
        "",
        "3045022100c0aa617f66a52687eb7b537ba1f96f55d01c7db082741f1fd488f7d83d351576022055ebf20d749a84508b13eaee04670ff1ffcf67936ab952ec947226ccc5d3d16c01",
        "3045022100cdc31dfa4c7a85390b3ad669addfb4a0a039f1248fad2451744d69807d4a3d6002201eed879c7beceeb9001efd1006af66e587812c472585c8055060362fb1beca6901",
        "522102969e3ee15c94bb2d45038e0afb7cd56686fc0587c011e2105f7e0ac164c76c4421034576c2eb2ce351b33b3431b54c88771e7e215d63f781bc9b59a91db99647456d52ae"
      ],
      "is_coinbase": false,
      "sequence": 2159223685,
      "inner_witnessscript_asm": "OP_PUSHNUM_2 OP_PUSHBYTES_33 02969e3ee15c94bb2d45038e0afb7cd56686fc0587c011e2105f7e0ac164c76c44 OP_PUSHBYTES_33 034576c2eb2ce351b33b3431b54c88771e7e215d63f781bc9b59a91db99647456d OP_PUSHNUM_2 OP_CHECKMULTISIG"
    }
  ],
  "vout": [
    {
      "scriptpubkey": "002024612c8eecde82904c702e47201bfb6d0eaaf7ff3e2d6d5a1abb8e57e274338d",
      "scriptpubkey_asm": "OP_0 OP_PUSHBYTES_32 24612c8eecde82904c702e47201bfb6d0eaaf7ff3e2d6d5a1abb8e57e274338d",
      "scriptpubkey_type": "v0_p2wsh",
      "scriptpubkey_address": "bc1qy3sjerhvm6pfqnrs9erjqxlmd5824all8ckk6ks6hw890cn5xwxs5exdn4",
      "value": 330
    },
    {
      "scriptpubkey": "0020cd115e27d4800d1fc834eed7f81ff0bc02ac4ef27dee744d8bc9fef3b8bd3ada",
      "scriptpubkey_asm": "OP_0 OP_PUSHBYTES_32 cd115e27d4800d1fc834eed7f81ff0bc02ac4ef27dee744d8bc9fef3b8bd3ada",
      "scriptpubkey_type": "v0_p2wsh",
      "scriptpubkey_address": "bc1qe5g4uf75sqx3ljp5amtls8lshsp2cnhj0hh8gnvte8l08w9a8tdqepcgzw",
      "value": 330
    },
    {
      "scriptpubkey": "00202b2f618e02aa593209e43c42a1849d8d5530d2fc569c6b433ab0d5e5245e99ae",
      "scriptpubkey_asm": "OP_0 OP_PUSHBYTES_32 2b2f618e02aa593209e43c42a1849d8d5530d2fc569c6b433ab0d5e5245e99ae",
      "scriptpubkey_type": "v0_p2wsh",
      "scriptpubkey_address": "bc1q9vhkrrsz4fvnyz0y83p2rpya342np5hu26wxkse6kr272fz7nxhq5g0r2v",
      "value": 246215
    },
    {
      "scriptpubkey": "0020abda8bb769108b300a2abcf786bc2ce68409a4f313a58677df7123daae176796",
      "scriptpubkey_asm": "OP_0 OP_PUSHBYTES_32 abda8bb769108b300a2abcf786bc2ce68409a4f313a58677df7123daae176796",
      "scriptpubkey_type": "v0_p2wsh",
      "scriptpubkey_address": "bc1q40dghdmfzz9nqz32hnmcd0pvu6zqnf8nzwjcva7lwy3a4tshv7tqgylslf",
      "value": 250066
    }
  ],
  "size": 445,
  "weight": 1114,
  "fee": 3059,
  "status": {
    "confirmed": true,
    "block_height": 834464,
    "block_hash": "0000000000000000000177a0869a911a2b65c9bdcd5a8bcb02b68f305bee848e",
    "block_time": 1710308296
  },
  "hex": "0200000000010195d67648b78d87ed3b3fe32f99bcadfb59670c1454c4ad95b0ea27fd67e4020d01000000008523b380044a0100000000000022002024612c8eecde82904c702e47201bfb6d0eaaf7ff3e2d6d5a1abb8e57e274338d4a01000000000000220020cd115e27d4800d1fc834eed7f81ff0bc02ac4ef27dee744d8bc9fef3b8bd3adac7c10300000000002200202b2f618e02aa593209e43c42a1849d8d5530d2fc569c6b433ab0d5e5245e99aed2d0030000000000220020abda8bb769108b300a2abcf786bc2ce68409a4f313a58677df7123daae1767960400483045022100c0aa617f66a52687eb7b537ba1f96f55d01c7db082741f1fd488f7d83d351576022055ebf20d749a84508b13eaee04670ff1ffcf67936ab952ec947226ccc5d3d16c01483045022100cdc31dfa4c7a85390b3ad669addfb4a0a039f1248fad2451744d69807d4a3d6002201eed879c7beceeb9001efd1006af66e587812c472585c8055060362fb1beca690147522102969e3ee15c94bb2d45038e0afb7cd56686fc0587c011e2105f7e0ac164c76c4421034576c2eb2ce351b33b3431b54c88771e7e215d63f781bc9b59a91db99647456d52ae64e3f920"
}