{
  "txid": "13daac68642862161fe904098001c323a4029aec7a560c808b1b37951ab4f891",
  "version": 2,
  "locktime": 0,
  "vin": [
    {
      "txid": "246d654c08ac53d370d501753f3ac2c90861e2c8cea715ed4b7554841cced399",
      "vout": 58,
      "prevout": {
        "scriptpubkey": "51200185938e97af2d5b4ea611ba58af045a030cc9213cc1ddd0be53a56e7315af10",
        "scriptpubkey_asm": "OP_PUSHNUM_1 OP_PUSHBYTES_32 0185938e97af2d5b4ea611ba58af045a030cc9213cc1ddd0be53a56e7315af10",
        "scriptpubkey_type": "v1_p2tr",
        "scriptpubkey_address": "bc1pqxze8r5h4uk4kn4xzxa93tcytgpsejfp8nqam5972wjkuuc44ugqt3las8",
        "value": 3055
      },
      "scriptsig": "",
      "scriptsig_asm": "",
      "witness": [
        "0d6840a3a02651ac760a4c23261574005cdfac1568273552c9529058f3c6741980c2f049381c02f9522e4865e34a35fff8afc16d4913944953c5d43c35d0f7ec",
        "2021445f9761fb2221cd66ee36b20ad7aeb8780299ea5105a490dd851201d72f92ac0063036f726401011e6170706c69636174696f6e2f6a736f6e3b636861727365743d7574662d38004cd37b2270223a22706f772d3230222c226f70223a226d696e74222c227469636b223a2250455045222c22616d74223a2231303030222c22736f6c7574696f6e223a22504550453a62633170756a666d33753333656e70786b38383339796c6b3239323239396b6e6467686c717468396e39647a6c7663647635617076366a717732776e71663a303030303030303030303030303030303030303139393431613561653132383937363539383134343239323533333030353762306461393666336465613163353a3231393135333233373631227d68",
        "c1f4929cb66946e40c5d3e5e2b126f88b9a6070d7490abd3aa8e42bf5bbcfe7b9f"
      ],
      "is_coinbase": false,
      "sequence": 4294967295
    }
  ],
  "vout": [
    {
      "scriptpubkey": "5120e493b8f231ccc26b1cf1293f65154a296d36a2ff02ee5995a2fb30d653a166a4",
      "scriptpubkey_asm": "OP_PUSHNUM_1 OP_PUSHBYTES_32 e493b8f231ccc26b1cf1293f65154a296d36a2ff02ee5995a2fb30d653a166a4",
      "scriptpubkey_type": "v1_p2tr",
      "scriptpubkey_address": "bc1pujfm3u33enpxk8839ylk292299kndghlqth9n9dzlvcdv5apv6jqw2wnqf",
      "value": 546
    }
  ],
  "size": 487,
  "weight": 769,
  "fee": 2509,
  "status": {
    "confirmed": true,
    "block_height": 834460,
    "block_hash": "00000000000000000000484a79b643b2524bbce82e5d8a442013fa5b8905ed98",
    "block_time": 1710307468
  },
  "hex": "0200000000010199d3ce1c8454754bed15a7cec8e26108c9c23a3f7501d570d353ac084c656d243a00000000ffffffff012202000000000000225120e493b8f231ccc26b1cf1293f65154a296d36a2ff02ee5995a2fb30d653a166a403400d6840a3a02651ac760a4c23261574005cdfac1568273552c9529058f3c6741980c2f049381c02f9522e4865e34a35fff8afc16d4913944953c5d43c35d0f7ecfd20012021445f9761fb2221cd66ee36b20ad7aeb8780299ea5105a490dd851201d72f92ac0063036f726401011e6170706c69636174696f6e2f6a736f6e3b636861727365743d7574662d38004cd37b2270223a22706f772d3230222c226f70223a226d696e74222c227469636b223a2250455045222c22616d74223a2231303030222c22736f6c7574696f6e223a22504550453a62633170756a666d33753333656e70786b38383339796c6b3239323239396b6e6467686c717468396e39647a6c7663647635617076366a717732776e71663a303030303030303030303030303030303030303139393431613561653132383937363539383134343239323533333030353762306461393666336465613163353a3231393135333233373631227d6821c1f4929cb66946e40c5d3e5e2b126f88b9a6070d7490abd3aa8e42bf5bbcfe7b9f00000000"
}