{
  "txid": "13ebf847a6a4956190f9f2235683d0e14a45d859a1a34328601a1a83ad09b82e",
  "version": 2,
  "locktime": 0,
  "vin": [
    {
      "txid": "67bc0e3e4fce9a9f39b83dda9db4cbbf8b00fd8803e8722a0ee0658e04e32fe8",
      "vout": 4,
      "prevout": {
        "scriptpubkey": "0014b02e745b06eb34f62e6e81d00d6d507bb99fece0",
        "scriptpubkey_asm": "OP_0 OP_PUSHBYTES_20 b02e745b06eb34f62e6e81d00d6d507bb99fece0",
        "scriptpubkey_type": "v0_p2wpkh",
        "scriptpubkey_address": "bc1qkqh8gkcxav60vtnws8gq6m2s0wuelm8q8cyfcn",
        "value": 300
      },
      "scriptsig": "",
      "scriptsig_asm": "",
      "witness": [
        "304402201fa01d2564f19415589574f616700a73cd29501646b0e144ca9679c970a9896302202b6a79c281301a4ed7ea5863e7bba3f4ea3e9133bbf0d98c974f9c853f23f30901",
        "034043b8b3a88fc7c56f02d37a3d07a15adf74d75473af05397edd67673b280620"
      ],
      "is_coinbase": false,
      "sequence": 4294967295
    },
    {
      "txid": "67bc0e3e4fce9a9f39b83dda9db4cbbf8b00fd8803e8722a0ee0658e04e32fe8",
      "vout": 5,
      "prevout": {
        "scriptpubkey": "0014b02e745b06eb34f62e6e81d00d6d507bb99fece0",
        "scriptpubkey_asm": "OP_0 OP_PUSHBYTES_20 b02e745b06eb34f62e6e81d00d6d507bb99fece0",
        "scriptpubkey_type": "v0_p2wpkh",
        "scriptpubkey_address": "bc1qkqh8gkcxav60vtnws8gq6m2s0wuelm8q8cyfcn",
        "value": 300
      },
      "scriptsig": "",
      "scriptsig_asm": "",
      "witness": [
        "3044022039ee60826519028ab59e6be4079817ab171fe00a99432cfccd8812e9deaa073b02205ae4b9d1b0fc603e0d7866e66f5fd7057c426dd10f66ca3a14f71bc3174f38b901",
        "034043b8b3a88fc7c56f02d37a3d07a15adf74d75473af05397edd67673b280620"
      ],
      "is_coinbase": false,
      "sequence": 4294967295
    },
    {
      "txid": "f1f7e9853f7c7abcf2ca4e4e4cb02584de862a41f013204607744df4799b5ce5",
      "vout": 0,
      "prevout": {
        "scriptpubkey": "0014f9258f698cfd3b673a8a99a2185844e4bc006646",
        "scriptpubkey_asm": "OP_0 OP_PUSHBYTES_20 f9258f698cfd3b673a8a99a2185844e4bc006646",
        "scriptpubkey_type": "v0_p2wpkh",
        "scriptpubkey_address": "bc1qlyjc76vvl5akww52nx3pskzyuj7qqejx4kn48k",
        "value": 546
      },
      "scriptsig": "",
      "scriptsig_asm": "",
      "witness": [
        "3044022078feff7171b43fac607ffbff155c899212dd757015510354b661f46c6ced01240220089dabba7a4f1548a4ab9c1b0d7692435569bde3d6c09ff86f27de2dd0a611d983",
        "034116179d78dc9de5f08e0d129223d761a81dd38d02d86e6b02eab3564241a60d"
      ],
      "is_coinbase": false,
      "sequence": 4294967295
    },
    {
      "txid": "067cf54f421b3c958bf2fc93f6f897f736a19350a375907e21b19f2faa209e25",
      "vout": 2,
      "prevout": {
        "scriptpubkey": "00149d746b894b461750a04a10135c923c0bebf19f30",
        "scriptpubkey_asm": "OP_0 OP_PUSHBYTES_20 9d746b894b461750a04a10135c923c0bebf19f30",
        "scriptpubkey_type": "v0_p2wpkh",
        "scriptpubkey_address": "bc1qn46xhz2tgct4pgz2zqf4ey3up04lr8es0lcm9z",
        "value": 9750000
      },
      "scriptsig": "",
      "scriptsig_asm": "",
      "witness": [
        "3045022100d489584d03044d93dcbbf9245bb16b62e8aad36b87269df9294d71d7df6d9f8c022015290d4e2dc3efbe577ca8ea3af0c3a9e62ba4e09db31fe451cfbb9b73c2137b01",
        "022b304a1489c771913d0291a3a11cffd7e454e57eb0f5a51d68fe50d1a31e79dc"
      ],
      "is_coinbase": false,
      "sequence": 4294967295
    },
    {
      "txid": "40e331c5b79e3e4c0a4af2f8e1ee33c20f6cc85ad2e2219818b9e6978c95d119",
      "vout": 1,
      "prevout": {
        "scriptpubkey": "00149d746b894b461750a04a10135c923c0bebf19f30",
        "scriptpubkey_asm": "OP_0 OP_PUSHBYTES_20 9d746b894b461750a04a10135c923c0bebf19f30",
        "scriptpubkey_type": "v0_p2wpkh",
        "scriptpubkey_address": "bc1qn46xhz2tgct4pgz2zqf4ey3up04lr8es0lcm9z",
        "value": 126129
      },
      "scriptsig": "",
      "scriptsig_asm": "",
      "witness": [
        "304502210096cf15a94240fc1f087e3f33ecacb54adfc6aa85c5d5e308eab4b4ea69c87bd7022062177ce43f94134e439f634b3274a9a8845182db29759272797ce38644fbac6e01",
        "022b304a1489c771913d0291a3a11cffd7e454e57eb0f5a51d68fe50d1a31e79dc"
      ],
      "is_coinbase": false,
      "sequence": 4294967295
    },
    {
      "txid": "67bc0e3e4fce9a9f39b83dda9db4cbbf8b00fd8803e8722a0ee0658e04e32fe8",
      "vout": 0,
      "prevout": {
        "scriptpubkey": "0014b02e745b06eb34f62e6e81d00d6d507bb99fece0",
        "scriptpubkey_asm": "OP_0 OP_PUSHBYTES_20 b02e745b06eb34f62e6e81d00d6d507bb99fece0",
        "scriptpubkey_type": "v0_p2wpkh",
        "scriptpubkey_address": "bc1qkqh8gkcxav60vtnws8gq6m2s0wuelm8q8cyfcn",
        "value": 600
      },
      "scriptsig": "",
      "scriptsig_asm": "",
      "witness": [
        "304402201ab97712aeef89d269c545627dee5354301e4fff6ee7ece4ee22464b78ee241902202f2041dd4021ec6ab8f03a2ca9e449e19ea2d729a90180d55c7424280803c6d801",
        "034043b8b3a88fc7c56f02d37a3d07a15adf74d75473af05397edd67673b280620"
      ],
      "is_coinbase": false,
      "sequence": 4294967295
    }
  ],
  "vout": [
    {
      "scriptpubkey": "0014b02e745b06eb34f62e6e81d00d6d507bb99fece0",
      "scriptpubkey_asm": "OP_0 OP_PUSHBYTES_20 b02e745b06eb34f62e6e81d00d6d507bb99fece0",
      "scriptpubkey_type": "v0_p2wpkh",
      "scriptpubkey_address": "bc1qkqh8gkcxav60vtnws8gq6m2s0wuelm8q8cyfcn",
      "value": 600
    },
    {
      "scriptpubkey": "00149d746b894b461750a04a10135c923c0bebf19f30",
      "scriptpubkey_asm": "OP_0 OP_PUSHBYTES_20 9d746b894b461750a04a10135c923c0bebf19f30",
      "scriptpubkey_type": "v0_p2wpkh",
      "scriptpubkey_address": "bc1qn46xhz2tgct4pgz2zqf4ey3up04lr8es0lcm9z",
      "value": 546
    },
    {
      "scriptpubkey": "0014f9258f698cfd3b673a8a99a2185844e4bc006646",
      "scriptpubkey_asm": "OP_0 OP_PUSHBYTES_20 f9258f698cfd3b673a8a99a2185844e4bc006646",
      "scriptpubkey_type": "v0_p2wpkh",
      "scriptpubkey_address": "bc1qlyjc76vvl5akww52nx3pskzyuj7qqejx4kn48k",
      "value": 9750000
    },
    {
      "scriptpubkey": "00149d746b894b461750a04a10135c923c0bebf19f30",
      "scriptpubkey_asm": "OP_0 OP_PUSHBYTES_20 9d746b894b461750a04a10135c923c0bebf19f30",
      "scriptpubkey_type": "v0_p2wpkh",
      "scriptpubkey_address": "bc1qn46xhz2tgct4pgz2zqf4ey3up04lr8es0lcm9z",
      "value": 116197
    },
    {
      "scriptpubkey": "0014b02e745b06eb34f62e6e81d00d6d507bb99fece0",
      "scriptpubkey_asm": "OP_0 OP_PUSHBYTES_20 b02e745b06eb34f62e6e81d00d6d507bb99fece0",
      "scriptpubkey_type": "v0_p2wpkh",
      "scriptpubkey_address": "bc1qkqh8gkcxav60vtnws8gq6m2s0wuelm8q8cyfcn",
      "value": 300
    },
    {
      "scriptpubkey": "0014b02e745b06eb34f62e6e81d00d6d507bb99fece0",
      "scriptpubkey_asm": "OP_0 OP_PUSHBYTES_20 b02e745b06eb34f62e6e81d00d6d507bb99fece0",
      "scriptpubkey_type": "v0_p2wpkh",
      "scriptpubkey_address": "bc1qkqh8gkcxav60vtnws8gq6m2s0wuelm8q8cyfcn",
      "value": 300
    }
  ],
  "size": 1088,
  "weight": 2414,
  "fee": 9932,
  "status": {
    "confirmed": true,
    "block_height": 834638,
    "block_hash": "000000000000000000025f742c626208ac87e0b7d15054abb4a19ca2d735a54e",
    "block_time": 1710405325
  },
  "hex": "02000000000106e82fe3048e65e00e2a72e80388fd008bbfcbb49dda3db8399f9ace4f3e0ebc670400000000ffffffffe82fe3048e65e00e2a72e80388fd008bbfcbb49dda3db8399f9ace4f3e0ebc670500000000ffffffffe55c9b79f44d7407462013f0412a86de8425b04c4e4ecaf2bc7a7c3f85e9f7f10000000000ffffffff259e20aa2f9fb1217e9075a35093a136f797f8f693fcf28b953c1b424ff57c060200000000ffffffff19d1958c97e6b9189821e2d25ac86c0fc233eee1f8f24a0a4c3e9eb7c531e3400100000000ffffffffe82fe3048e65e00e2a72e80388fd008bbfcbb49dda3db8399f9ace4f3e0ebc670000000000ffffffff065802000000000000160014b02e745b06eb34f62e6e81d00d6d507bb99fece022020000000000001600149d746b894b461750a04a10135c923c0bebf19f30f0c5940000000000160014f9258f698cfd3b673a8a99a2185844e4bc006646e5c50100000000001600149d746b894b461750a04a10135c923c0bebf19f302c01000000000000160014b02e745b06eb34f62e6e81d00d6d507bb99fece02c01000000000000160014b02e745b06eb34f62e6e81d00d6d507bb99fece00247304402201fa01d2564f19415589574f616700a73cd29501646b0e144ca9679c970a9896302202b6a79c281301a4ed7ea5863e7bba3f4ea3e9133bbf0d98c974f9c853f23f3090121034043b8b3a88fc7c56f02d37a3d07a15adf74d75473af05397edd67673b28062002473044022039ee60826519028ab59e6be4079817ab171fe00a99432cfccd8812e9deaa073b02205ae4b9d1b0fc603e0d7866e66f5fd7057c426dd10f66ca3a14f71bc3174f38b90121034043b8b3a88fc7c56f02d37a3d07a15adf74d75473af05397edd67673b28062002473044022078feff7171b43fac607ffbff155c899212dd757015510354b661f46c6ced01240220089dabba7a4f1548a4ab9c1b0d7692435569bde3d6c09ff86f27de2dd0a611d98321034116179d78dc9de5f08e0d129223d761a81dd38d02d86e6b02eab3564241a60d02483045022100d489584d03044d93dcbbf9245bb16b62e8aad36b87269df9294d71d7df6d9f8c022015290d4e2dc3efbe577ca8ea3af0c3a9e62ba4e09db31fe451cfbb9b73c2137b0121022b304a1489c771913d0291a3a11cffd7e454e57eb0f5a51d68fe50d1a31e79dc0248304502210096cf15a94240fc1f087e3f33ecacb54adfc6aa85c5d5e308eab4b4ea69c87bd7022062177ce43f94134e439f634b3274a9a8845182db29759272797ce38644fbac6e0121022b304a1489c771913d0291a3a11cffd7e454e57eb0f5a51d68fe50d1a31e79dc0247304402201ab97712aeef89d269c545627dee5354301e4fff6ee7ece4ee22464b78ee241902202f2041dd4021ec6ab8f03a2ca9e449e19ea2d729a90180d55c7424280803c6d80121034043b8b3a88fc7c56f02d37a3d07a15adf74d75473af05397edd67673b28062000000000"
}