{
  "txid": "14034095e038336c10d445083d6d2eff7cb91ef46c61d3fc2d2f5b2300039045",
  "version": 2,
  "locktime": 834637,
  "vin": [
    {
      "txid": "374091c268fc1fe6f3a60f46f1e5b13ec4856ee57384d551f5335daaebc41812",
      "vout": 0,
      "prevout": {
        "scriptpubkey": "0014d0ec356baa09c3b0415a903a0febab987e3668cd",
        "scriptpubkey_asm": "OP_0 OP_PUSHBYTES_20 d0ec356baa09c3b0415a903a0febab987e3668cd",
        "scriptpubkey_type": "v0_p2wpkh",
        "scriptpubkey_address": "bc1q6rkr26a2p8pmqs26jqaql6atnplrv6xdyzj8dp",
        "value": 2317745
      },
      "scriptsig": "",
      "scriptsig_asm": "",
      "witness": [
        "304402201091147ab39be67be1d266e2d086026e8903be489122ed146ade76ba864a397902201137715e58f55885615985e3c28af62990acbbb9346f1e6fa74144d2d1b6d11b01",
        "034a6be5dcd8a0e4beb1930560ba3a59f5f0e9ebe85c6ae71b9091443d670ea256"
      ],
      "is_coinbase": false,
      "sequence": 4294967294
    }
  ],
  "vout": [
    {
      "scriptpubkey": "a914763a63b6adb7ca4b14d0f6a8d7894a48c45eff0187",
      "scriptpubkey_asm": "OP_HASH160 OP_PUSHBYTES_20 763a63b6adb7ca4b14d0f6a8d7894a48c45eff01 OP_EQUAL",
      "scriptpubkey_type": "p2sh",
      "scriptpubkey_address": "3CU9c9sVfu639LB7qPMXue3J367z461C7z",
      "value": 50150
    },
    {
      "scriptpubkey": "0014178d1f8a702de13a4881fb2ea9e332a3fd2274be",
      "scriptpubkey_asm": "OP_0 OP_PUSHBYTES_20 178d1f8a702de13a4881fb2ea9e332a3fd2274be",
      "scriptpubkey_type": "v0_p2wpkh",
      "scriptpubkey_address": "bc1qz7x3lzns9hsn5jyplvh2ncej507jya97ry9w6v",
      "value": 1122853
    },
    {
      "scriptpubkey": "76a914cc5b62ca10c9ef95ab859c0748bb27aaf8a91bc188ac",
      "scriptpubkey_asm": "OP_DUP OP_HASH160 OP_PUSHBYTES_20 cc5b62ca10c9ef95ab859c0748bb27aaf8a91bc1 OP_EQUALVERIFY OP_CHECKSIG",
      "scriptpubkey_type": "p2pkh",
      "scriptpubkey_address": "1KdYKjjTkKH4Ba4kntnXqaPekgSgx4vum3",
      "value": 63986
    },
    {
      "scriptpubkey": "a914a89fcf396057bc1124699ce9d2c692737748210587",
      "scriptpubkey_asm": "OP_HASH160 OP_PUSHBYTES_20 a89fcf396057bc1124699ce9d2c6927377482105 OP_EQUAL",
      "scriptpubkey_type": "p2sh",
      "scriptpubkey_address": "3H4ctXZwPGhGbvNcetv4SDAfox58uxpsWC",
      "value": 1075142
    }
  ],
  "size": 289,
  "weight": 829,
  "fee": 5614,
  "status": {
    "confirmed": true,
    "block_height": 834638,
    "block_hash": "000000000000000000025f742c626208ac87e0b7d15054abb4a19ca2d735a54e",
    "block_time": 1710405325
  },
  "hex": "020000000001011218c4ebaa5d33f551d58473e56e85c43eb1e5f1460fa6f3e61ffc68c29140370000000000feffffff04e6c300000000000017a914763a63b6adb7ca4b14d0f6a8d7894a48c45eff01872522110000000000160014178d1f8a702de13a4881fb2ea9e332a3fd2274bef2f90000000000001976a914cc5b62ca10c9ef95ab859c0748bb27aaf8a91bc188acc66710000000000017a914a89fcf396057bc1124699ce9d2c6927377482105870247304402201091147ab39be67be1d266e2d086026e8903be489122ed146ade76ba864a397902201137715e58f55885615985e3c28af62990acbbb9346f1e6fa74144d2d1b6d11b0121034a6be5dcd8a0e4beb1930560ba3a59f5f0e9ebe85c6ae71b9091443d670ea2564dbc0c00"
}