{
  "txid": "141655b0e4239480afbdc12874e642ffeb94da72536ee4b8bace750820b26a06",
  "version": 2,
  "locktime": 0,
  "vin": [
    {
      "txid": "8fddfe1ae0d2735d0f8280c99703492dde707a19083bc28c3078044943d35500",
      "vout": 0,
      "prevout": {
        "scriptpubkey": "00147e1363d5f5ec75834f7d5d3a8983f89403799111",
        "scriptpubkey_asm": "OP_0 OP_PUSHBYTES_20 7e1363d5f5ec75834f7d5d3a8983f89403799111",
        "scriptpubkey_type": "v0_p2wpkh",
        "scriptpubkey_address": "bc1q0cfk8404a36cxnmat5agnqlcjsphnyg3es5zgw",
        "value": 40000000
      },
      "scriptsig": "",
      "scriptsig_asm": "",
      "witness": [
        "3044022017d3eb999537bb195303c5c23f8ee172936654f75354b62f3b925f3c17e5784702205b1cadc44b9da2a325fce81446e2dfe1ef48a9414886c98f3e2ff0ca90e7ceb901",
        "034a27569196134f053cdc9f10cb70396a32b8e58cf82f1123e81ee2401ada7479"
      ],
      "is_coinbase": false,
      "sequence": 4294967293
    }
  ],
  "vout": [
    {
      "scriptpubkey": "001455191c698f2cd3324bde26d53900ff9296a608fa",
      "scriptpubkey_asm": "OP_0 OP_PUSHBYTES_20 55191c698f2cd3324bde26d53900ff9296a608fa",
      "scriptpubkey_type": "v0_p2wpkh",
      "scriptpubkey_address": "bc1q25v3c6v09nfnyj77ym2njq8lj2t2vz86cv4uvu",
      "value": 25000000
    },
    {
      "scriptpubkey": "00148ed732e5bb37209e6fc0d13a63122b4a1ac9bba8",
      "scriptpubkey_asm": "OP_0 OP_PUSHBYTES_20 8ed732e5bb37209e6fc0d13a63122b4a1ac9bba8",
      "scriptpubkey_type": "v0_p2wpkh",
      "scriptpubkey_address": "bc1q3mtn9edmxusfum7q6yaxxy3tfgdvnwagkjched",
      "value": 14965460
    }
  ],
  "size": 222,
  "weight": 561,
  "fee": 34540,
  "status": {
    "confirmed": true,
    "block_height": 834638,
    "block_hash": "000000000000000000025f742c626208ac87e0b7d15054abb4a19ca2d735a54e",
    "block_time": 1710405325
  },
  "hex": "020000000001010055d343490478308cc23b08197a70de2d490397c980820f5d73d2e01afedd8f0000000000fdffffff0240787d010000000016001455191c698f2cd3324bde26d53900ff9296a608fad45ae400000000001600148ed732e5bb37209e6fc0d13a63122b4a1ac9bba802473044022017d3eb999537bb195303c5c23f8ee172936654f75354b62f3b925f3c17e5784702205b1cadc44b9da2a325fce81446e2dfe1ef48a9414886c98f3e2ff0ca90e7ceb90121034a27569196134f053cdc9f10cb70396a32b8e58cf82f1123e81ee2401ada747900000000"
}