{
  "txid": "142c68f821042a02f523334fe54c880dcc9536a401d58dad6da2375313df8d72",
  "version": 2,
  "locktime": 0,
  "vin": [
    {
      "txid": "781ac99e68ea97247212eb3cf1f96e432454ad9d5cd24e0d673bf391e022fac7",
      "vout": 5,
      "prevout": {
        "scriptpubkey": "51207416364f42f4272091107ba74cfff9e200a5d31df83a7d9583187fa045ba6b7f",
        "scriptpubkey_asm": "OP_PUSHNUM_1 OP_PUSHBYTES_32 7416364f42f4272091107ba74cfff9e200a5d31df83a7d9583187fa045ba6b7f",
        "scriptpubkey_type": "v1_p2tr",
        "scriptpubkey_address": "bc1pwstrvn6z7snjpygs0wn5elleugq2t5calqa8m9vrrpl6q3d6ddlsqq9kxf",
        "value": 600
      },
      "scriptsig": "",
      "scriptsig_asm": "",
      "witness": [
        "1f2e73ad29fc1ea247de144d4a614145585d9c32c39d24082a2c33340cf19d43a430662d6941274dc024cd196a413ce6187cc49045c2af23f2b1c467b7526b19"
      ],
      "is_coinbase": false,
      "sequence": 4294967295
    },
    {
      "txid": "781ac99e68ea97247212eb3cf1f96e432454ad9d5cd24e0d673bf391e022fac7",
      "vout": 4,
      "prevout": {
        "scriptpubkey": "51207416364f42f4272091107ba74cfff9e200a5d31df83a7d9583187fa045ba6b7f",
        "scriptpubkey_asm": "OP_PUSHNUM_1 OP_PUSHBYTES_32 7416364f42f4272091107ba74cfff9e200a5d31df83a7d9583187fa045ba6b7f",
        "scriptpubkey_type": "v1_p2tr",
        "scriptpubkey_address": "bc1pwstrvn6z7snjpygs0wn5elleugq2t5calqa8m9vrrpl6q3d6ddlsqq9kxf",
        "value": 600
      },
      "scriptsig": "",
      "scriptsig_asm": "",
      "witness": [
        "43597ef8960bf9901bac062d2691b3c09388e61a0b65be9414a92d7a67baa0344ce1003cc976724c03ea33f84e760a25e0202eda43f0c13557d02d7449050aa9"
      ],
      "is_coinbase": false,
      "sequence": 4294967295
    },
    {
      "txid": "e66bf744f7150991e204d4a7a0b4db4b0b7b0c192bb873148435d3b7b583359f",
      "vout": 3,
      "prevout": {
        "scriptpubkey": "5120903621d7adac7df5b12499c30fe087073f02f249b0f8d08b40336ea97a801cf0",
        "scriptpubkey_asm": "OP_PUSHNUM_1 OP_PUSHBYTES_32 903621d7adac7df5b12499c30fe087073f02f249b0f8d08b40336ea97a801cf0",
        "scriptpubkey_type": "v1_p2tr",
        "scriptpubkey_address": "bc1pjqmzr4ad437ltvfyn8pslcy8quls9ujfkrudpz6qxdh2j75qrncq44mp47",
        "value": 546
      },
      "scriptsig": "",
      "scriptsig_asm": "",
      "witness": [
        "648a7eef19e7633eb4d1bf76313098c46105ad3c7b46aea67a7e0a5c18ee8ff03669d96254eb78dc5a401acdebcef7470fb9392122adfc693bf2f1b3d9e2c25683"
      ],
      "is_coinbase": false,
      "sequence": 4294967295
    },
    {
      "txid": "f9da0e5c99ddbf32839731a199f739a689a9bee927f27de60bf099929dfd44f0",
      "vout": 1,
      "prevout": {
        "scriptpubkey": "51207416364f42f4272091107ba74cfff9e200a5d31df83a7d9583187fa045ba6b7f",
        "scriptpubkey_asm": "OP_PUSHNUM_1 OP_PUSHBYTES_32 7416364f42f4272091107ba74cfff9e200a5d31df83a7d9583187fa045ba6b7f",
        "scriptpubkey_type": "v1_p2tr",
        "scriptpubkey_address": "bc1pwstrvn6z7snjpygs0wn5elleugq2t5calqa8m9vrrpl6q3d6ddlsqq9kxf",
        "value": 674106
      },
      "scriptsig": "",
      "scriptsig_asm": "",
      "witness": [
        "0a562c68817f7ffed4ac09c2dd5def3f28f8be893de4360fca77b79c459c4b71a13bd63380c10292bf1e1860e7a7942f09cfa08775c9544db6230d2beac79f60"
      ],
      "is_coinbase": false,
      "sequence": 4294967295
    }
  ],
  "vout": [
    {
      "scriptpubkey": "51207416364f42f4272091107ba74cfff9e200a5d31df83a7d9583187fa045ba6b7f",
      "scriptpubkey_asm": "OP_PUSHNUM_1 OP_PUSHBYTES_32 7416364f42f4272091107ba74cfff9e200a5d31df83a7d9583187fa045ba6b7f",
      "scriptpubkey_type": "v1_p2tr",
      "scriptpubkey_address": "bc1pwstrvn6z7snjpygs0wn5elleugq2t5calqa8m9vrrpl6q3d6ddlsqq9kxf",
      "value": 1200
    },
    {
      "scriptpubkey": "5120dcaa5abb2f4f11148de5f6c71ae679f1fa5a09f6a2eb07020c412ed9e6419abb",
      "scriptpubkey_asm": "OP_PUSHNUM_1 OP_PUSHBYTES_32 dcaa5abb2f4f11148de5f6c71ae679f1fa5a09f6a2eb07020c412ed9e6419abb",
      "scriptpubkey_type": "v1_p2tr",
      "scriptpubkey_address": "bc1pmj494we0fug3fr097mr34ene78a95z0k5t4swqsvgyhdnejpn2aswf37n5",
      "value": 546
    },
    {
      "scriptpubkey": "a914af26fb69434e303b61ab0ca82dc35d797da9ca0387",
      "scriptpubkey_asm": "OP_HASH160 OP_PUSHBYTES_20 af26fb69434e303b61ab0ca82dc35d797da9ca03 OP_EQUAL",
      "scriptpubkey_type": "p2sh",
      "scriptpubkey_address": "3Hf8sdrBivKEGHzaLYGiaXecNHUkPhWdo4",
      "value": 185000
    },
    {
      "scriptpubkey": "a914c4e1178d6dc8426ebd9cd7ee64f3181b6a03bac187",
      "scriptpubkey_asm": "OP_HASH160 OP_PUSHBYTES_20 c4e1178d6dc8426ebd9cd7ee64f3181b6a03bac1 OP_EQUAL",
      "scriptpubkey_type": "p2sh",
      "scriptpubkey_address": "3Ke21osfhEbEryUeqdwAuAY8VKxm5B9uB2",
      "value": 15000
    },
    {
      "scriptpubkey": "51207416364f42f4272091107ba74cfff9e200a5d31df83a7d9583187fa045ba6b7f",
      "scriptpubkey_asm": "OP_PUSHNUM_1 OP_PUSHBYTES_32 7416364f42f4272091107ba74cfff9e200a5d31df83a7d9583187fa045ba6b7f",
      "scriptpubkey_type": "v1_p2tr",
      "scriptpubkey_address": "bc1pwstrvn6z7snjpygs0wn5elleugq2t5calqa8m9vrrpl6q3d6ddlsqq9kxf",
      "value": 600
    },
    {
      "scriptpubkey": "51207416364f42f4272091107ba74cfff9e200a5d31df83a7d9583187fa045ba6b7f",
      "scriptpubkey_asm": "OP_PUSHNUM_1 OP_PUSHBYTES_32 7416364f42f4272091107ba74cfff9e200a5d31df83a7d9583187fa045ba6b7f",
      "scriptpubkey_type": "v1_p2tr",
      "scriptpubkey_address": "bc1pwstrvn6z7snjpygs0wn5elleugq2t5calqa8m9vrrpl6q3d6ddlsqq9kxf",
      "value": 600
    },
    {
      "scriptpubkey": "51207416364f42f4272091107ba74cfff9e200a5d31df83a7d9583187fa045ba6b7f",
      "scriptpubkey_asm": "OP_PUSHNUM_1 OP_PUSHBYTES_32 7416364f42f4272091107ba74cfff9e200a5d31df83a7d9583187fa045ba6b7f",
      "scriptpubkey_type": "v1_p2tr",
      "scriptpubkey_address": "bc1pwstrvn6z7snjpygs0wn5elleugq2t5calqa8m9vrrpl6q3d6ddlsqq9kxf",
      "value": 463546
    }
  ],
  "size": 720,
  "weight": 2079,
  "fee": 9360,
  "status": {
    "confirmed": true,
    "block_height": 834552,
    "block_hash": "00000000000000000001dd0468a70c94f619251d286585cff57aeb4bd9ede330",
    "block_time": 1710355598
  },
  "hex": "02000000000104c7fa22e091f33b670d4ed25c9dad5424436ef9f13ceb12722497ea689ec91a780500000000ffffffffc7fa22e091f33b670d4ed25c9dad5424436ef9f13ceb12722497ea689ec91a780400000000ffffffff9f3583b5b7d335841473b82b190c7b0b4bdbb4a0a7d404e2910915f744f76be60300000000fffffffff044fd9d9299f00be67df227e9bea989a639f799a131978332bfdd995c0edaf90100000000ffffffff07b0040000000000002251207416364f42f4272091107ba74cfff9e200a5d31df83a7d9583187fa045ba6b7f2202000000000000225120dcaa5abb2f4f11148de5f6c71ae679f1fa5a09f6a2eb07020c412ed9e6419abba8d202000000000017a914af26fb69434e303b61ab0ca82dc35d797da9ca0387983a00000000000017a914c4e1178d6dc8426ebd9cd7ee64f3181b6a03bac18758020000000000002251207416364f42f4272091107ba74cfff9e200a5d31df83a7d9583187fa045ba6b7f58020000000000002251207416364f42f4272091107ba74cfff9e200a5d31df83a7d9583187fa045ba6b7fba120700000000002251207416364f42f4272091107ba74cfff9e200a5d31df83a7d9583187fa045ba6b7f01401f2e73ad29fc1ea247de144d4a614145585d9c32c39d24082a2c33340cf19d43a430662d6941274dc024cd196a413ce6187cc49045c2af23f2b1c467b7526b19014043597ef8960bf9901bac062d2691b3c09388e61a0b65be9414a92d7a67baa0344ce1003cc976724c03ea33f84e760a25e0202eda43f0c13557d02d7449050aa90141648a7eef19e7633eb4d1bf76313098c46105ad3c7b46aea67a7e0a5c18ee8ff03669d96254eb78dc5a401acdebcef7470fb9392122adfc693bf2f1b3d9e2c2568301400a562c68817f7ffed4ac09c2dd5def3f28f8be893de4360fca77b79c459c4b71a13bd63380c10292bf1e1860e7a7942f09cfa08775c9544db6230d2beac79f6000000000"
}