{
  "txid": "142ef084bce05900e3573b85abd7d51e79e516481f675f0769a1eb325d824159",
  "version": 2,
  "locktime": 0,
  "vin": [
    {
      "txid": "35e0160605b7e326b6a94c4aac6ee6c8657559a4fb9c131a23d0de6ed71bf23d",
      "vout": 0,
      "prevout": {
        "scriptpubkey": "0014dd1725400936af0ed47ff5960f0d20efe43ab677",
        "scriptpubkey_asm": "OP_0 OP_PUSHBYTES_20 dd1725400936af0ed47ff5960f0d20efe43ab677",
        "scriptpubkey_type": "v0_p2wpkh",
        "scriptpubkey_address": "bc1qm5tj2sqfx6hsa4rl7ktq7rfqaljr4dnhjkr6qc",
        "value": 130359
      },
      "scriptsig": "",
      "scriptsig_asm": "",
      "witness": [
        "3045022100d8eb1020c20ec92e5961fb08076e7929f1f21d7443cdd06de8c8a2dbb856a4aa022064eb811eed06d96cb5286c05875a704141835c9b70b3cf1266f2dc88ed1dc3d301",
        "02c0d2370fea59204d8d352345c0d232a8b3460db53dcb7967bb51a50f5682cfee"
      ],
      "is_coinbase": false,
      "sequence": 4294967295
    },
    {
      "txid": "739b68bedd9159b1644e3e39d2b8e0a7419a1dec5229fe6d67569d928f3c6cc3",
      "vout": 15,
      "prevout": {
        "scriptpubkey": "0014dd1725400936af0ed47ff5960f0d20efe43ab677",
        "scriptpubkey_asm": "OP_0 OP_PUSHBYTES_20 dd1725400936af0ed47ff5960f0d20efe43ab677",
        "scriptpubkey_type": "v0_p2wpkh",
        "scriptpubkey_address": "bc1qm5tj2sqfx6hsa4rl7ktq7rfqaljr4dnhjkr6qc",
        "value": 2970620
      },
      "scriptsig": "",
      "scriptsig_asm": "",
      "witness": [
        "3045022100e3b5ecb74a3b31fb24a2a435f0537278b853f8716c82e5da5ed7627a58527f94022049456d74f0237766d0eddd19a12bba9158481262393655ea45aea6f3a2a95bb001",
        "02c0d2370fea59204d8d352345c0d232a8b3460db53dcb7967bb51a50f5682cfee"
      ],
      "is_coinbase": false,
      "sequence": 4294967295
    }
  ],
  "vout": [
    {
      "scriptpubkey": "0014dd1725400936af0ed47ff5960f0d20efe43ab677",
      "scriptpubkey_asm": "OP_0 OP_PUSHBYTES_20 dd1725400936af0ed47ff5960f0d20efe43ab677",
      "scriptpubkey_type": "v0_p2wpkh",
      "scriptpubkey_address": "bc1qm5tj2sqfx6hsa4rl7ktq7rfqaljr4dnhjkr6qc",
      "value": 2327626
    },
    {
      "scriptpubkey": "001459fef01c6f4d632d2c1b9cf10ffdff2003a08f8b",
      "scriptpubkey_asm": "OP_0 OP_PUSHBYTES_20 59fef01c6f4d632d2c1b9cf10ffdff2003a08f8b",
      "scriptpubkey_type": "v0_p2wpkh",
      "scriptpubkey_address": "bc1qt8l0q8r0f43j6tqmnncsll0lyqp6prut00unyf",
      "value": 769941
    }
  ],
  "size": 372,
  "weight": 834,
  "fee": 3412,
  "status": {
    "confirmed": true,
    "block_height": 834638,
    "block_hash": "000000000000000000025f742c626208ac87e0b7d15054abb4a19ca2d735a54e",
    "block_time": 1710405325
  },
  "hex": "020000000001023df21bd76eded0231a139cfba4597565c8e66eac4a4ca9b626e3b7050616e0350000000000ffffffffc36c3c8f929d56676dfe2952ec1d9a41a7e0b8d2393e4e64b15991ddbe689b730f00000000ffffffff024a84230000000000160014dd1725400936af0ed47ff5960f0d20efe43ab67795bf0b000000000016001459fef01c6f4d632d2c1b9cf10ffdff2003a08f8b02483045022100d8eb1020c20ec92e5961fb08076e7929f1f21d7443cdd06de8c8a2dbb856a4aa022064eb811eed06d96cb5286c05875a704141835c9b70b3cf1266f2dc88ed1dc3d3012102c0d2370fea59204d8d352345c0d232a8b3460db53dcb7967bb51a50f5682cfee02483045022100e3b5ecb74a3b31fb24a2a435f0537278b853f8716c82e5da5ed7627a58527f94022049456d74f0237766d0eddd19a12bba9158481262393655ea45aea6f3a2a95bb0012102c0d2370fea59204d8d352345c0d232a8b3460db53dcb7967bb51a50f5682cfee00000000"
}