{
  "txid": "1474e0663b25437d21cb3247dff190f927311052db377c9001b8104e7d16cbde",
  "version": 2,
  "locktime": 0,
  "vin": [
    {
      "txid": "a7a7d3b5c5592f2c4b69873244dd197a9c5427e3d276b7903547bdc8a7fb63df",
      "vout": 0,
      "prevout": {
        "scriptpubkey": "51205e5bbdd475057741c77479c25ccaa9ac852da399683350cd10beca430efbb058",
        "scriptpubkey_asm": "OP_PUSHNUM_1 OP_PUSHBYTES_32 5e5bbdd475057741c77479c25ccaa9ac852da399683350cd10beca430efbb058",
        "scriptpubkey_type": "v1_p2tr",
        "scriptpubkey_address": "bc1ptedmm4r4q4m5r3m508p9ej4f4jzjmguedqe4pngshm9yxrhmkpvqfl08l2",
        "value": 250000
      },
      "scriptsig": "",
      "scriptsig_asm": "",
      "witness": [
        "c4b70a20a8b31aa1c611d01ab9e1b8a293a993ac7fc1bfc37df7b8ae188224a7a6e858b43471339709033ec9b39972f65d71fd8d0a6319e27097c6ea1538285e"
      ],
      "is_coinbase": false,
      "sequence": 4294967295
    }
  ],
  "vout": [
    {
      "scriptpubkey": "51205e5bbdd475057741c77479c25ccaa9ac852da399683350cd10beca430efbb058",
      "scriptpubkey_asm": "OP_PUSHNUM_1 OP_PUSHBYTES_32 5e5bbdd475057741c77479c25ccaa9ac852da399683350cd10beca430efbb058",
      "scriptpubkey_type": "v1_p2tr",
      "scriptpubkey_address": "bc1ptedmm4r4q4m5r3m508p9ej4f4jzjmguedqe4pngshm9yxrhmkpvqfl08l2",
      "value": 600
    },
    {
      "scriptpubkey": "51205e5bbdd475057741c77479c25ccaa9ac852da399683350cd10beca430efbb058",
      "scriptpubkey_asm": "OP_PUSHNUM_1 OP_PUSHBYTES_32 5e5bbdd475057741c77479c25ccaa9ac852da399683350cd10beca430efbb058",
      "scriptpubkey_type": "v1_p2tr",
      "scriptpubkey_address": "bc1ptedmm4r4q4m5r3m508p9ej4f4jzjmguedqe4pngshm9yxrhmkpvqfl08l2",
      "value": 600
    },
    {
      "scriptpubkey": "51205e5bbdd475057741c77479c25ccaa9ac852da399683350cd10beca430efbb058",
      "scriptpubkey_asm": "OP_PUSHNUM_1 OP_PUSHBYTES_32 5e5bbdd475057741c77479c25ccaa9ac852da399683350cd10beca430efbb058",
      "scriptpubkey_type": "v1_p2tr",
      "scriptpubkey_address": "bc1ptedmm4r4q4m5r3m508p9ej4f4jzjmguedqe4pngshm9yxrhmkpvqfl08l2",
      "value": 600
    },
    {
      "scriptpubkey": "51205e5bbdd475057741c77479c25ccaa9ac852da399683350cd10beca430efbb058",
      "scriptpubkey_asm": "OP_PUSHNUM_1 OP_PUSHBYTES_32 5e5bbdd475057741c77479c25ccaa9ac852da399683350cd10beca430efbb058",
      "scriptpubkey_type": "v1_p2tr",
      "scriptpubkey_address": "bc1ptedmm4r4q4m5r3m508p9ej4f4jzjmguedqe4pngshm9yxrhmkpvqfl08l2",
      "value": 600
    },
    {
      "scriptpubkey": "51205e5bbdd475057741c77479c25ccaa9ac852da399683350cd10beca430efbb058",
      "scriptpubkey_asm": "OP_PUSHNUM_1 OP_PUSHBYTES_32 5e5bbdd475057741c77479c25ccaa9ac852da399683350cd10beca430efbb058",
      "scriptpubkey_type": "v1_p2tr",
      "scriptpubkey_address": "bc1ptedmm4r4q4m5r3m508p9ej4f4jzjmguedqe4pngshm9yxrhmkpvqfl08l2",
      "value": 600
    },
    {
      "scriptpubkey": "51205e5bbdd475057741c77479c25ccaa9ac852da399683350cd10beca430efbb058",
      "scriptpubkey_asm": "OP_PUSHNUM_1 OP_PUSHBYTES_32 5e5bbdd475057741c77479c25ccaa9ac852da399683350cd10beca430efbb058",
      "scriptpubkey_type": "v1_p2tr",
      "scriptpubkey_address": "bc1ptedmm4r4q4m5r3m508p9ej4f4jzjmguedqe4pngshm9yxrhmkpvqfl08l2",
      "value": 600
    },
    {
      "scriptpubkey": "51205e5bbdd475057741c77479c25ccaa9ac852da399683350cd10beca430efbb058",
      "scriptpubkey_asm": "OP_PUSHNUM_1 OP_PUSHBYTES_32 5e5bbdd475057741c77479c25ccaa9ac852da399683350cd10beca430efbb058",
      "scriptpubkey_type": "v1_p2tr",
      "scriptpubkey_address": "bc1ptedmm4r4q4m5r3m508p9ej4f4jzjmguedqe4pngshm9yxrhmkpvqfl08l2",
      "value": 600
    },
    {
      "scriptpubkey": "51205e5bbdd475057741c77479c25ccaa9ac852da399683350cd10beca430efbb058",
      "scriptpubkey_asm": "OP_PUSHNUM_1 OP_PUSHBYTES_32 5e5bbdd475057741c77479c25ccaa9ac852da399683350cd10beca430efbb058",
      "scriptpubkey_type": "v1_p2tr",
      "scriptpubkey_address": "bc1ptedmm4r4q4m5r3m508p9ej4f4jzjmguedqe4pngshm9yxrhmkpvqfl08l2",
      "value": 600
    },
    {
      "scriptpubkey": "51205e5bbdd475057741c77479c25ccaa9ac852da399683350cd10beca430efbb058",
      "scriptpubkey_asm": "OP_PUSHNUM_1 OP_PUSHBYTES_32 5e5bbdd475057741c77479c25ccaa9ac852da399683350cd10beca430efbb058",
      "scriptpubkey_type": "v1_p2tr",
      "scriptpubkey_address": "bc1ptedmm4r4q4m5r3m508p9ej4f4jzjmguedqe4pngshm9yxrhmkpvqfl08l2",
      "value": 600
    },
    {
      "scriptpubkey": "51205e5bbdd475057741c77479c25ccaa9ac852da399683350cd10beca430efbb058",
      "scriptpubkey_asm": "OP_PUSHNUM_1 OP_PUSHBYTES_32 5e5bbdd475057741c77479c25ccaa9ac852da399683350cd10beca430efbb058",
      "scriptpubkey_type": "v1_p2tr",
      "scriptpubkey_address": "bc1ptedmm4r4q4m5r3m508p9ej4f4jzjmguedqe4pngshm9yxrhmkpvqfl08l2",
      "value": 600
    },
    {
      "scriptpubkey": "51205e5bbdd475057741c77479c25ccaa9ac852da399683350cd10beca430efbb058",
      "scriptpubkey_asm": "OP_PUSHNUM_1 OP_PUSHBYTES_32 5e5bbdd475057741c77479c25ccaa9ac852da399683350cd10beca430efbb058",
      "scriptpubkey_type": "v1_p2tr",
      "scriptpubkey_address": "bc1ptedmm4r4q4m5r3m508p9ej4f4jzjmguedqe4pngshm9yxrhmkpvqfl08l2",
      "value": 235328
    }
  ],
  "size": 592,
  "weight": 2164,
  "fee": 8672,
  "status": {
    "confirmed": true,
    "block_height": 834638,
    "block_hash": "000000000000000000025f742c626208ac87e0b7d15054abb4a19ca2d735a54e",
    "block_time": 1710405325
  },
  "hex": "02000000000101df63fba7c8bd473590b776d2e327549c7a19dd443287694b2c2f59c5b5d3a7a70000000000ffffffff0b58020000000000002251205e5bbdd475057741c77479c25ccaa9ac852da399683350cd10beca430efbb05858020000000000002251205e5bbdd475057741c77479c25ccaa9ac852da399683350cd10beca430efbb05858020000000000002251205e5bbdd475057741c77479c25ccaa9ac852da399683350cd10beca430efbb05858020000000000002251205e5bbdd475057741c77479c25ccaa9ac852da399683350cd10beca430efbb05858020000000000002251205e5bbdd475057741c77479c25ccaa9ac852da399683350cd10beca430efbb05858020000000000002251205e5bbdd475057741c77479c25ccaa9ac852da399683350cd10beca430efbb05858020000000000002251205e5bbdd475057741c77479c25ccaa9ac852da399683350cd10beca430efbb05858020000000000002251205e5bbdd475057741c77479c25ccaa9ac852da399683350cd10beca430efbb05858020000000000002251205e5bbdd475057741c77479c25ccaa9ac852da399683350cd10beca430efbb05858020000000000002251205e5bbdd475057741c77479c25ccaa9ac852da399683350cd10beca430efbb05840970300000000002251205e5bbdd475057741c77479c25ccaa9ac852da399683350cd10beca430efbb0580140c4b70a20a8b31aa1c611d01ab9e1b8a293a993ac7fc1bfc37df7b8ae188224a7a6e858b43471339709033ec9b39972f65d71fd8d0a6319e27097c6ea1538285e00000000"
}