{
  "txid": "147652be2b51a411e060a0bf72a4bee43d4ae1ba1aad56ab0304c6f85a637372",
  "version": 1,
  "locktime": 0,
  "vin": [
    {
      "txid": "22b184f58a5875043c70240734c4d883a6b00a8bed472a332a6b5baea4b9cb17",
      "vout": 16,
      "prevout": {
        "scriptpubkey": "0014ea4422f044ecf2783475df7733876e4ae5301626",
        "scriptpubkey_asm": "OP_0 OP_PUSHBYTES_20 ea4422f044ecf2783475df7733876e4ae5301626",
        "scriptpubkey_type": "v0_p2wpkh",
        "scriptpubkey_address": "bc1qafzz9uzyane8sdr4mamn8pmwftjnq93xumuc53",
        "value": 273058
      },
      "scriptsig": "",
      "scriptsig_asm": "",
      "witness": [
        "304402200733edfab78d04fd165a42e7c79b68ae779979f77bab0eb6b350c859cd1ebfb002205ee0adfbe1b364047b7ce4d5133f8adfed90b7b27dd3f546f38f59e4d0b8dc7c01",
        "02b8e013d24e03a24975f05d70e5ebdd67d5ccb2c35508a6f122d13d8a0f3f1738"
      ],
      "is_coinbase": false,
      "sequence": 4294967295
    }
  ],
  "vout": [
    {
      "scriptpubkey": "76a91470fd9ceaea202261a110c7a4cce42d6f685b743688ac",
      "scriptpubkey_asm": "OP_DUP OP_HASH160 OP_PUSHBYTES_20 70fd9ceaea202261a110c7a4cce42d6f685b7436 OP_EQUALVERIFY OP_CHECKSIG",
      "scriptpubkey_type": "p2pkh",
      "scriptpubkey_address": "1BJSVphQesDZ8tMVKGTVYDUGg5FLegVfZt",
      "value": 270007
    }
  ],
  "size": 194,
  "weight": 449,
  "fee": 3051,
  "status": {
    "confirmed": true,
    "block_height": 834638,
    "block_hash": "000000000000000000025f742c626208ac87e0b7d15054abb4a19ca2d735a54e",
    "block_time": 1710405325
  },
  "hex": "0100000000010117cbb9a4ae5b6b2a332a47ed8b0ab0a683d8c4340724703c0475588af584b1221000000000ffffffff01b71e0400000000001976a91470fd9ceaea202261a110c7a4cce42d6f685b743688ac0247304402200733edfab78d04fd165a42e7c79b68ae779979f77bab0eb6b350c859cd1ebfb002205ee0adfbe1b364047b7ce4d5133f8adfed90b7b27dd3f546f38f59e4d0b8dc7c012102b8e013d24e03a24975f05d70e5ebdd67d5ccb2c35508a6f122d13d8a0f3f173800000000"
}