{
  "txid": "14bc088716ada47bf6504bf4ace6554da7c642b2dba3de2c38914f2534468026",
  "version": 2,
  "locktime": 0,
  "vin": [
    {
      "txid": "1fc93c2630679d6f347a6e4482b579bb2f34d13bad5108da5904ad5337ec929e",
      "vout": 0,
      "prevout": {
        "scriptpubkey": "5120011a59714e0719bc7ab659c97488a7f2f8bea40bceffa11862c5ba9098db33df",
        "scriptpubkey_asm": "OP_PUSHNUM_1 OP_PUSHBYTES_32 011a59714e0719bc7ab659c97488a7f2f8bea40bceffa11862c5ba9098db33df",
        "scriptpubkey_type": "v1_p2tr",
        "scriptpubkey_address": "bc1pqyd9ju2wquvmc74kt8yhfz987tutafqteml6zxrzckafpxxmx00ssnua9k",
        "value": 5000
      },
      "scriptsig": "",
      "scriptsig_asm": "",
      "witness": [
        "86838d7c63fd6c6be67e77ebf5845b73aa0ff66ad03cccfb357c6b7d71144d83c3fabe782ae694a3cc67acc0ed5c1ed130d0a17455295167bf5972bb04d90140",
        "2068dd19ae6e1aa1f29050eb7d542411d6fab11956268976ceba62849ba2aad9d9ac0063036f7264010118746578742f706c61696e3b636861727365743d7574662d38004c867b2270223a22746170222c226f70223a22646d742d6d696e74222c22646570223a22333962373532343338626533613435326464623731376230613635346233313662316164343661383139656234343831383933626337313331663738396539616930222c227469636b223a226e61746f776c73222c22626c6b223a22343938343635227d68",
        "c0badbdc772e18aee9de427fd41ec35bfd7df592777fc83ff77330e597220f4b5b"
      ],
      "is_coinbase": false,
      "sequence": 4294967293
    }
  ],
  "vout": [
    {
      "scriptpubkey": "5120c0eb90680173534b3dc472c38efd0e3f9c0c4f032b99d074c66809b38c783bfc",
      "scriptpubkey_asm": "OP_PUSHNUM_1 OP_PUSHBYTES_32 c0eb90680173534b3dc472c38efd0e3f9c0c4f032b99d074c66809b38c783bfc",
      "scriptpubkey_type": "v1_p2tr",
      "scriptpubkey_address": "bc1pcr4eq6qpwdf5k0wywtpcalgw87wqcncr9wvaqaxxdqym8rrc807qzhr4a0",
      "value": 546
    },
    {
      "scriptpubkey": "001471d19984dfbe86f41a4d2e1e3fdcd2d5b648ccef",
      "scriptpubkey_asm": "OP_0 OP_PUSHBYTES_20 71d19984dfbe86f41a4d2e1e3fdcd2d5b648ccef",
      "scriptpubkey_type": "v0_p2wpkh",
      "scriptpubkey_address": "bc1qw8genpxlh6r0gxjd9c0rlhxj6kmy3n80ckyale",
      "value": 1626
    }
  ],
  "size": 433,
  "weight": 808,
  "fee": 2828,
  "status": {
    "confirmed": true,
    "block_height": 834460,
    "block_hash": "00000000000000000000484a79b643b2524bbce82e5d8a442013fa5b8905ed98",
    "block_time": 1710307468
  },
  "hex": "020000000001019e92ec3753ad0459da0851ad3bd1342fbb79b582446e7a346f9d6730263cc91f0000000000fdffffff022202000000000000225120c0eb90680173534b3dc472c38efd0e3f9c0c4f032b99d074c66809b38c783bfc5a0600000000000016001471d19984dfbe86f41a4d2e1e3fdcd2d5b648ccef034086838d7c63fd6c6be67e77ebf5845b73aa0ff66ad03cccfb357c6b7d71144d83c3fabe782ae694a3cc67acc0ed5c1ed130d0a17455295167bf5972bb04d90140cd2068dd19ae6e1aa1f29050eb7d542411d6fab11956268976ceba62849ba2aad9d9ac0063036f7264010118746578742f706c61696e3b636861727365743d7574662d38004c867b2270223a22746170222c226f70223a22646d742d6d696e74222c22646570223a22333962373532343338626533613435326464623731376230613635346233313662316164343661383139656234343831383933626337313331663738396539616930222c227469636b223a226e61746f776c73222c22626c6b223a22343938343635227d6821c0badbdc772e18aee9de427fd41ec35bfd7df592777fc83ff77330e597220f4b5b00000000"
}