{
  "txid": "14c09cdf4e60a8b5bbf1405c178485b55d345b9f28d77277339f1e37af83e92c",
  "version": 2,
  "locktime": 0,
  "vin": [
    {
      "txid": "e054c137725b7a5d163dade8f5cd68c0927a2e8b00d920927dab9a7ba934ce5f",
      "vout": 3,
      "prevout": {
        "scriptpubkey": "512070e0bb4412f8087c3ed897169e232299803d3343dad0924db363fc7a297fc9eb",
        "scriptpubkey_asm": "OP_PUSHNUM_1 OP_PUSHBYTES_32 70e0bb4412f8087c3ed897169e232299803d3343dad0924db363fc7a297fc9eb",
        "scriptpubkey_type": "v1_p2tr",
        "scriptpubkey_address": "bc1pwrstk3qjlqy8c0kcjutfugeznxqr6v6rmtgfyndnv07852tle84s90wc73",
        "value": 2658
      },
      "scriptsig": "",
      "scriptsig_asm": "",
      "witness": [
        "651439c852f0a576e5a9edc3aea0d55cb2045f63d9de3f6839b169338eb8e8b47a3e3c3c1b1f244eaee6d574f8787ca4b0f65e2e98092113a58acdaff8f17318",
        "207a66eb0714f71951a73e37cf0c44b604d594e8626535762951b67c7533acd2fbac0063036f726401011e6170706c69636174696f6e2f6a736f6e3b636861727365743d7574662d38004cbf7b2270223a22706f772d3230222c226f70223a226d696e74222c227469636b223a2250455045222c22616d74223a2231303030222c22736f6c7574696f6e223a22504550453a6263317139736a36303977756e7468646a636d7a746a796379766475616e653071716b78726e773932653a303030303030303030303030303030303030303139393431613561653132383937363539383134343239323533333030353762306461393666336465613163353a3632373835383334313331227d68",
        "c1a0e509a599b6542378e5ac7959d344a1bebc95ec9899fd4ccf1904beefe3f047"
      ],
      "is_coinbase": false,
      "sequence": 4294967295
    }
  ],
  "vout": [
    {
      "scriptpubkey": "00142c25a795dc9aeed963625c898231bcecf2f002c6",
      "scriptpubkey_asm": "OP_0 OP_PUSHBYTES_20 2c25a795dc9aeed963625c898231bcecf2f002c6",
      "scriptpubkey_type": "v0_p2wpkh",
      "scriptpubkey_address": "bc1q9sj609wunthdjcmztjycyvduane0qqkxrnw92e",
      "value": 546
    }
  ],
  "size": 455,
  "weight": 701,
  "fee": 2112,
  "status": {
    "confirmed": true,
    "block_height": 834460,
    "block_hash": "00000000000000000000484a79b643b2524bbce82e5d8a442013fa5b8905ed98",
    "block_time": 1710307468
  },
  "hex": "020000000001015fce34a97b9aab7d9220d9008b2e7a92c068cdf5e8ad3d165d7a5b7237c154e00300000000ffffffff0122020000000000001600142c25a795dc9aeed963625c898231bcecf2f002c60340651439c852f0a576e5a9edc3aea0d55cb2045f63d9de3f6839b169338eb8e8b47a3e3c3c1b1f244eaee6d574f8787ca4b0f65e2e98092113a58acdaff8f17318fd0c01207a66eb0714f71951a73e37cf0c44b604d594e8626535762951b67c7533acd2fbac0063036f726401011e6170706c69636174696f6e2f6a736f6e3b636861727365743d7574662d38004cbf7b2270223a22706f772d3230222c226f70223a226d696e74222c227469636b223a2250455045222c22616d74223a2231303030222c22736f6c7574696f6e223a22504550453a6263317139736a36303977756e7468646a636d7a746a796379766475616e653071716b78726e773932653a303030303030303030303030303030303030303139393431613561653132383937363539383134343239323533333030353762306461393666336465613163353a3632373835383334313331227d6821c1a0e509a599b6542378e5ac7959d344a1bebc95ec9899fd4ccf1904beefe3f04700000000"
}