{
  "txid": "14cbf5058558a52e50d17079b4921681b175316819ed608767263cb1ff25939d",
  "version": 1,
  "locktime": 0,
  "vin": [
    {
      "txid": "a0858b2dbd44409fd01aaad39ab965cba1fd66a315a88bcbf3712ea1e04dec9f",
      "vout": 1,
      "prevout": {
        "scriptpubkey": "0014cf1a7bded4c91700e0ad5aa56b447d2dab1a7ee5",
        "scriptpubkey_asm": "OP_0 OP_PUSHBYTES_20 cf1a7bded4c91700e0ad5aa56b447d2dab1a7ee5",
        "scriptpubkey_type": "v0_p2wpkh",
        "scriptpubkey_address": "bc1qeud8hhk5eytspc9dt2jkk3ra9k435lh9etmter",
        "value": 1155338
      },
      "scriptsig": "",
      "scriptsig_asm": "",
      "witness": [
        "3044022065712fd53a778ca4cfd64df3b2f2afb6301c1721224523b5f93949a278e9749d022003f5de72e15c21b06a490b7ed0e3d8a6f3eeedbc81dfb035ad0a3f0d517c6d4901",
        "023715f7fbee8ac8ad20171000923b8461a532509b63937b64b0a0a895771ff2c6"
      ],
      "is_coinbase": false,
      "sequence": 0
    }
  ],
  "vout": [
    {
      "scriptpubkey": "a914cab25ff4926b3fc9b23207289551f1ccdd90dcbc87",
      "scriptpubkey_asm": "OP_HASH160 OP_PUSHBYTES_20 cab25ff4926b3fc9b23207289551f1ccdd90dcbc OP_EQUAL",
      "scriptpubkey_type": "p2sh",
      "scriptpubkey_address": "3LAn6zavSUFLSMEBE364SAPiuCyoiXTHKH",
      "value": 27300
    },
    {
      "scriptpubkey": "0014cf1a7bded4c91700e0ad5aa56b447d2dab1a7ee5",
      "scriptpubkey_asm": "OP_0 OP_PUSHBYTES_20 cf1a7bded4c91700e0ad5aa56b447d2dab1a7ee5",
      "scriptpubkey_type": "v0_p2wpkh",
      "scriptpubkey_address": "bc1qeud8hhk5eytspc9dt2jkk3ra9k435lh9etmter",
      "value": 1124204
    }
  ],
  "size": 223,
  "weight": 565,
  "fee": 3834,
  "status": {
    "confirmed": true,
    "block_height": 834638,
    "block_hash": "000000000000000000025f742c626208ac87e0b7d15054abb4a19ca2d735a54e",
    "block_time": 1710405325
  },
  "hex": "010000000001019fec4de0a12e71f3cb8ba815a366fda1cb65b99ad3aa1ad09f4044bd2d8b85a001000000000000000002a46a00000000000017a914cab25ff4926b3fc9b23207289551f1ccdd90dcbc876c27110000000000160014cf1a7bded4c91700e0ad5aa56b447d2dab1a7ee502473044022065712fd53a778ca4cfd64df3b2f2afb6301c1721224523b5f93949a278e9749d022003f5de72e15c21b06a490b7ed0e3d8a6f3eeedbc81dfb035ad0a3f0d517c6d490121023715f7fbee8ac8ad20171000923b8461a532509b63937b64b0a0a895771ff2c600000000"
}