{
  "txid": "14cc9d14aeaa57110bfcdfdd298c91b03ecd52e6d4c20f55cd2c6b393a3a8a97",
  "version": 2,
  "locktime": 834637,
  "vin": [
    {
      "txid": "f338f05b8feb259ebe777682bd07e3f52fe3c671e6bbff22c15d4ea2e4a304ab",
      "vout": 1,
      "prevout": {
        "scriptpubkey": "00146e3dd5e3cdf540ef436af87809ed463582f0c3c5",
        "scriptpubkey_asm": "OP_0 OP_PUSHBYTES_20 6e3dd5e3cdf540ef436af87809ed463582f0c3c5",
        "scriptpubkey_type": "v0_p2wpkh",
        "scriptpubkey_address": "bc1qdc7atc7d74qw7sm2lpuqnm2xxkp0ps7987ml98",
        "value": 1917223
      },
      "scriptsig": "",
      "scriptsig_asm": "",
      "witness": [
        "3044022061c370f4ba5239f0415fd94fca9e51c10a1f662c4b0a867b463c7f02bbf1472802202e2c81082ef1aa8a36d93d1fb3eeb9114f73b4e28019f94e2b47785c1f78376a01",
        "038dd0a7a87234f75446a36e7b7d43b864627fabd2c89abb142bdeb00f93ebf851"
      ],
      "is_coinbase": false,
      "sequence": 4294967293
    }
  ],
  "vout": [
    {
      "scriptpubkey": "a914e0396211fa9bc4e0bb1a7e7cd5ce2e43315d97ca87",
      "scriptpubkey_asm": "OP_HASH160 OP_PUSHBYTES_20 e0396211fa9bc4e0bb1a7e7cd5ce2e43315d97ca OP_EQUAL",
      "scriptpubkey_type": "p2sh",
      "scriptpubkey_address": "3N8c2ZTuWpox8UYuKd1VowfzpoFC7zwQic",
      "value": 1485163
    },
    {
      "scriptpubkey": "76a914bf1dbe04b7ba06f8bf0b2a4ab7e9a9653919e65388ac",
      "scriptpubkey_asm": "OP_DUP OP_HASH160 OP_PUSHBYTES_20 bf1dbe04b7ba06f8bf0b2a4ab7e9a9653919e653 OP_EQUALVERIFY OP_CHECKSIG",
      "scriptpubkey_type": "p2pkh",
      "scriptpubkey_address": "1JRXhAkFGKKLvth85wJSHyPkzd3nohhMp8",
      "value": 430000
    }
  ],
  "size": 226,
  "weight": 577,
  "fee": 2060,
  "status": {
    "confirmed": true,
    "block_height": 834638,
    "block_hash": "000000000000000000025f742c626208ac87e0b7d15054abb4a19ca2d735a54e",
    "block_time": 1710405325
  },
  "hex": "02000000000101ab04a3e4a24e5dc122ffbbe671c6e32ff5e307bd827677be9e25eb8f5bf038f30100000000fdffffff026ba916000000000017a914e0396211fa9bc4e0bb1a7e7cd5ce2e43315d97ca87b08f0600000000001976a914bf1dbe04b7ba06f8bf0b2a4ab7e9a9653919e65388ac02473044022061c370f4ba5239f0415fd94fca9e51c10a1f662c4b0a867b463c7f02bbf1472802202e2c81082ef1aa8a36d93d1fb3eeb9114f73b4e28019f94e2b47785c1f78376a0121038dd0a7a87234f75446a36e7b7d43b864627fabd2c89abb142bdeb00f93ebf8514dbc0c00"
}