{
  "txid": "14cdb7403bdab40b2512c5b43f510b763fee6d8efc3f3d52efbd43f862c3e270",
  "version": 2,
  "locktime": 0,
  "vin": [
    {
      "txid": "63ae3f28afd5d0a929109d69e6dd14c64a5f88e60465d97a08caa06060e15e8f",
      "vout": 40,
      "prevout": {
        "scriptpubkey": "5120621fab4af8b599fcb734283557ea7b80f5f8f9015728dfe5a3eef82cb236e562",
        "scriptpubkey_asm": "OP_PUSHNUM_1 OP_PUSHBYTES_32 621fab4af8b599fcb734283557ea7b80f5f8f9015728dfe5a3eef82cb236e562",
        "scriptpubkey_type": "v1_p2tr",
        "scriptpubkey_address": "bc1pvg06kjhckkvlede59q6406nmsr6l37gp2u5dledramuzev3ku43qw4uq96",
        "value": 3055
      },
      "scriptsig": "",
      "scriptsig_asm": "",
      "witness": [
        "3fd76812d661c1fb411a3ee9bcebcfd743da18dc195ceba3acbfa14ac50c181574aeed001c4c91e8f17995df4f3c555dadaac13c797a6e024e1bdc316358b224",
        "206b7a91ba4290e3d3a1e594a335f812de785a5f2c12c9751248f773e3f08414d9ac0063036f726401011e6170706c69636174696f6e2f6a736f6e3b636861727365743d7574662d38004cd37b2270223a22706f772d3230222c226f70223a226d696e74222c227469636b223a2250455045222c22616d74223a2231303030222c22736f6c7574696f6e223a22504550453a626331706a39356d676c663836377961396a32756368377a34647836793635746736373330676e7661796b706b6c77793335757667376a73773033676d713a303030303030303030303030303030303030303139393431613561653132383937363539383134343239323533333030353762306461393666336465613163353a3630323738313935373636227d68",
        "c1ffe2b6185dd514800047a24f9c3d628916daef0b23d9f98ab4cda2a0457a18d1"
      ],
      "is_coinbase": false,
      "sequence": 4294967295
    }
  ],
  "vout": [
    {
      "scriptpubkey": "51209169b47d27d789d2c95cc5fc2ab4da26a8b46bd17a26ce92c1b7dc48d38c47a5",
      "scriptpubkey_asm": "OP_PUSHNUM_1 OP_PUSHBYTES_32 9169b47d27d789d2c95cc5fc2ab4da26a8b46bd17a26ce92c1b7dc48d38c47a5",
      "scriptpubkey_type": "v1_p2tr",
      "scriptpubkey_address": "bc1pj95mglf867ya9j2uch7z4dx6y65tg6730gnvaykpklwy35uvg7jsw03gmq",
      "value": 546
    }
  ],
  "size": 487,
  "weight": 769,
  "fee": 2509,
  "status": {
    "confirmed": true,
    "block_height": 834460,
    "block_hash": "00000000000000000000484a79b643b2524bbce82e5d8a442013fa5b8905ed98",
    "block_time": 1710307468
  },
  "hex": "020000000001018f5ee16060a0ca087ad96504e6885f4ac614dde6699d1029a9d0d5af283fae632800000000ffffffff0122020000000000002251209169b47d27d789d2c95cc5fc2ab4da26a8b46bd17a26ce92c1b7dc48d38c47a503403fd76812d661c1fb411a3ee9bcebcfd743da18dc195ceba3acbfa14ac50c181574aeed001c4c91e8f17995df4f3c555dadaac13c797a6e024e1bdc316358b224fd2001206b7a91ba4290e3d3a1e594a335f812de785a5f2c12c9751248f773e3f08414d9ac0063036f726401011e6170706c69636174696f6e2f6a736f6e3b636861727365743d7574662d38004cd37b2270223a22706f772d3230222c226f70223a226d696e74222c227469636b223a2250455045222c22616d74223a2231303030222c22736f6c7574696f6e223a22504550453a626331706a39356d676c663836377961396a32756368377a34647836793635746736373330676e7661796b706b6c77793335757667376a73773033676d713a303030303030303030303030303030303030303139393431613561653132383937363539383134343239323533333030353762306461393666336465613163353a3630323738313935373636227d6821c1ffe2b6185dd514800047a24f9c3d628916daef0b23d9f98ab4cda2a0457a18d100000000"
}