{
  "txid": "14cf2bc8acbf8a87b007d327f23f632ae89cabf9c5263675aaac8152c797f1ef",
  "version": 2,
  "locktime": 0,
  "vin": [
    {
      "txid": "659b82bf51c32df260f3e3563d90fcbcb0098209af4d18020ca9e1a619ccc8c8",
      "vout": 15,
      "prevout": {
        "scriptpubkey": "51207b8fdfa7750886cd937198f3449be4b378fa719559df8362ad8b82fdc60a4a3e",
        "scriptpubkey_asm": "OP_PUSHNUM_1 OP_PUSHBYTES_32 7b8fdfa7750886cd937198f3449be4b378fa719559df8362ad8b82fdc60a4a3e",
        "scriptpubkey_type": "v1_p2tr",
        "scriptpubkey_address": "bc1p0w8alfm4pzrvmym3nre5fxlykdu05uv4t80cxc4d3wp0m3s2fglqhwncj9",
        "value": 1931
      },
      "scriptsig": "",
      "scriptsig_asm": "",
      "witness": [
        "182c09e778573d7234c1e8a535d7308d863601be33ffc4f2ddf3dfa2e48a0ce1c80c042a12addb6e4f7ad1c0913b2928559bec3bc42ebfd878f10d5f031a9162",
        "206c34736ed2b600a47807ea02fedd9c8963181b6bb171273805a87aa77d17b281ac0063036f726401010a746578742f706c61696e00367b2270223a226272632d3230222c226f70223a226d696e74222c227469636b223a2261616161222c22616d74223a223130303030227d68",
        "c16c34736ed2b600a47807ea02fedd9c8963181b6bb171273805a87aa77d17b281"
      ],
      "is_coinbase": false,
      "sequence": 4261412863
    }
  ],
  "vout": [
    {
      "scriptpubkey": "0014be9f0c070a9b1bd40f5fcb06fba89738d936ceb6",
      "scriptpubkey_asm": "OP_0 OP_PUSHBYTES_20 be9f0c070a9b1bd40f5fcb06fba89738d936ceb6",
      "scriptpubkey_type": "v0_p2wpkh",
      "scriptpubkey_address": "bc1qh60scpc2nvdagr6levr0h2yh8rvndn4k4v5s9g",
      "value": 294
    }
  ],
  "size": 295,
  "weight": 541,
  "fee": 1637,
  "status": {
    "confirmed": true,
    "block_height": 834460,
    "block_hash": "00000000000000000000484a79b643b2524bbce82e5d8a442013fa5b8905ed98",
    "block_time": 1710307468
  },
  "hex": "02000000000101c8c8cc19a6e1a90c02184daf098209b0bcfc903d56e3f360f22dc351bf829b650f00000000fffffffd012601000000000000160014be9f0c070a9b1bd40f5fcb06fba89738d936ceb60340182c09e778573d7234c1e8a535d7308d863601be33ffc4f2ddf3dfa2e48a0ce1c80c042a12addb6e4f7ad1c0913b2928559bec3bc42ebfd878f10d5f031a91626e206c34736ed2b600a47807ea02fedd9c8963181b6bb171273805a87aa77d17b281ac0063036f726401010a746578742f706c61696e00367b2270223a226272632d3230222c226f70223a226d696e74222c227469636b223a2261616161222c22616d74223a223130303030227d6821c16c34736ed2b600a47807ea02fedd9c8963181b6bb171273805a87aa77d17b28100000000"
}