{
  "txid": "14da81f02e68a29953f3a8c395b1ca46cf4818a98a3314458cde3ff77b84d3db",
  "version": 2,
  "locktime": 0,
  "vin": [
    {
      "txid": "12848a1f84ad552475e874cce291926f292412de23b7537898e98c7370f2e86c",
      "vout": 19,
      "prevout": {
        "scriptpubkey": "51203d329952dabac27244781b6bc28c8fc03799d90a8f2a5918d2ce1ed478b804bb",
        "scriptpubkey_asm": "OP_PUSHNUM_1 OP_PUSHBYTES_32 3d329952dabac27244781b6bc28c8fc03799d90a8f2a5918d2ce1ed478b804bb",
        "scriptpubkey_type": "v1_p2tr",
        "scriptpubkey_address": "bc1p85efj5k6htp8y3rcrd4u9ry0cqmenkg23u49jxxjec0dg79cqjasharnsr",
        "value": 2358
      },
      "scriptsig": "",
      "scriptsig_asm": "",
      "witness": [
        "1cdce48daa146a0d0fe464d3c6806603cfd43f1aaebde6c1d0e3f7b2b06b83701d60dde08c6e29a34d842bc70d6aa000a8ce575df3e188913e74b69fa4b4f444",
        "20481d708fa1640e632015445cfd3cce711bf250ddc616b3de4c5e3b95b2dc701aac0063036f7264010118746578742f706c61696e3b636861727365743d7574662d3800377b2270223a226272632d3230222c226f70223a226d696e74222c227469636b223a22424f424f222c22616d74223a22313030303030227d68",
        "c1507504f881a2548efcb0bd8b5287fd78c473d5bd35b181abdd5c5cd6d10de204"
      ],
      "is_coinbase": false,
      "sequence": 4294967295
    }
  ],
  "vout": [
    {
      "scriptpubkey": "512048d62e6aa4ce9b4b4d760b1dc0c3e46b46d84be76ae456792a664139e7aaa19c",
      "scriptpubkey_asm": "OP_PUSHNUM_1 OP_PUSHBYTES_32 48d62e6aa4ce9b4b4d760b1dc0c3e46b46d84be76ae456792a664139e7aaa19c",
      "scriptpubkey_type": "v1_p2tr",
      "scriptpubkey_address": "bc1pfrtzu64ye6d5kntkpvwupslyddrdsjl8dtj9v7f2veqnnea25xwqu8ycu4",
      "value": 546
    }
  ],
  "size": 322,
  "weight": 604,
  "fee": 1812,
  "status": {
    "confirmed": true,
    "block_height": 834460,
    "block_hash": "00000000000000000000484a79b643b2524bbce82e5d8a442013fa5b8905ed98",
    "block_time": 1710307468
  },
  "hex": "020000000001016ce8f270738ce9987853b723de1224296f9291e2cc74e8752455ad841f8a84121300000000ffffffff01220200000000000022512048d62e6aa4ce9b4b4d760b1dc0c3e46b46d84be76ae456792a664139e7aaa19c03401cdce48daa146a0d0fe464d3c6806603cfd43f1aaebde6c1d0e3f7b2b06b83701d60dde08c6e29a34d842bc70d6aa000a8ce575df3e188913e74b69fa4b4f4447d20481d708fa1640e632015445cfd3cce711bf250ddc616b3de4c5e3b95b2dc701aac0063036f7264010118746578742f706c61696e3b636861727365743d7574662d3800377b2270223a226272632d3230222c226f70223a226d696e74222c227469636b223a22424f424f222c22616d74223a22313030303030227d6821c1507504f881a2548efcb0bd8b5287fd78c473d5bd35b181abdd5c5cd6d10de20400000000"
}