{
  "txid": "14dca7836407782411d2f9d7f9b62d770e0dcbc43d30d417dde6745ac00de412",
  "version": 2,
  "locktime": 0,
  "vin": [
    {
      "txid": "48e683098dc9da3c13d8af29da65116dab042d517cf005a39c6e9cd35451e726",
      "vout": 5,
      "prevout": {
        "scriptpubkey": "51209b6d7782334ae2a4afd0da545d8559c526e684785aeda3ff81c09ae219b08c19",
        "scriptpubkey_asm": "OP_PUSHNUM_1 OP_PUSHBYTES_32 9b6d7782334ae2a4afd0da545d8559c526e684785aeda3ff81c09ae219b08c19",
        "scriptpubkey_type": "v1_p2tr",
        "scriptpubkey_address": "bc1pndkh0q3nft32ft7smf29mp2ec5nwdprcttk68lupczdwyxds3svs7er7ks",
        "value": 61128
      },
      "scriptsig": "",
      "scriptsig_asm": "",
      "witness": [
        "62ae7220e9b55a9e686d0d3df730a7b0d64e84f9688a6e28e0c650084941191a89d2c5b3ee5fa5408edfe6e208c90b98558684ec75c001e94a61d5608a579ccf"
      ],
      "is_coinbase": false,
      "sequence": 4294967293
    }
  ],
  "vout": [
    {
      "scriptpubkey": "51205f1f76e5c5063353c6a180f074d4a01f6c31fb5d1b735c920af53474fea0a5b7",
      "scriptpubkey_asm": "OP_PUSHNUM_1 OP_PUSHBYTES_32 5f1f76e5c5063353c6a180f074d4a01f6c31fb5d1b735c920af53474fea0a5b7",
      "scriptpubkey_type": "v1_p2tr",
      "scriptpubkey_address": "bc1ptu0hdew9qce4834psrc8f49qrakrr76arde4eys27568fl4q5kmsnv6s28",
      "value": 2218
    },
    {
      "scriptpubkey": "51209b6d7782334ae2a4afd0da545d8559c526e684785aeda3ff81c09ae219b08c19",
      "scriptpubkey_asm": "OP_PUSHNUM_1 OP_PUSHBYTES_32 9b6d7782334ae2a4afd0da545d8559c526e684785aeda3ff81c09ae219b08c19",
      "scriptpubkey_type": "v1_p2tr",
      "scriptpubkey_address": "bc1pndkh0q3nft32ft7smf29mp2ec5nwdprcttk68lupczdwyxds3svs7er7ks",
      "value": 56292
    }
  ],
  "size": 205,
  "weight": 616,
  "fee": 2618,
  "status": {
    "confirmed": true,
    "block_height": 834638,
    "block_hash": "000000000000000000025f742c626208ac87e0b7d15054abb4a19ca2d735a54e",
    "block_time": 1710405325
  },
  "hex": "0200000000010126e75154d39c6e9ca305f07c512d04ab6d1165da29afd8133cdac98d0983e6480500000000fdffffff02aa080000000000002251205f1f76e5c5063353c6a180f074d4a01f6c31fb5d1b735c920af53474fea0a5b7e4db0000000000002251209b6d7782334ae2a4afd0da545d8559c526e684785aeda3ff81c09ae219b08c19014062ae7220e9b55a9e686d0d3df730a7b0d64e84f9688a6e28e0c650084941191a89d2c5b3ee5fa5408edfe6e208c90b98558684ec75c001e94a61d5608a579ccf00000000"
}