{
  "txid": "14dc80bf5e4b280a9f7b4d7bb2f8f784a233d62c3bc9a7a5b6de1efe9dce79cb",
  "version": 1,
  "locktime": 0,
  "vin": [
    {
      "txid": "73c0962374257223ac6343759b47f5c4bdf2634748e424d7f2d99a2fc62f25e9",
      "vout": 1,
      "prevout": {
        "scriptpubkey": "0014fff83f5faa3760051c774287805605d40b868b80",
        "scriptpubkey_asm": "OP_0 OP_PUSHBYTES_20 fff83f5faa3760051c774287805605d40b868b80",
        "scriptpubkey_type": "v0_p2wpkh",
        "scriptpubkey_address": "bc1qllur7ha2xasq28rhg2rcq4s96s9cdzuqx64k72",
        "value": 37117620
      },
      "scriptsig": "",
      "scriptsig_asm": "",
      "witness": [
        "3044022014fedc0c031bfc3a709988eec49baafaa37dc814adbb6f0c0b0bd33baffc27a30220219a231c094483fe19baecadfb8d62032a8a74691ab2b7b4a9c62c5de5b757a801",
        "022fd4fd771a06c89bfb8dfdc94440eff79aa95bf695d63f2b269263d383045445"
      ],
      "is_coinbase": false,
      "sequence": 4294967295
    }
  ],
  "vout": [
    {
      "scriptpubkey": "001410cf6e3486b8da839df91808d899e5ce558febdc",
      "scriptpubkey_asm": "OP_0 OP_PUSHBYTES_20 10cf6e3486b8da839df91808d899e5ce558febdc",
      "scriptpubkey_type": "v0_p2wpkh",
      "scriptpubkey_address": "bc1qzr8kudyxhrdg880erqyd3x09ee2cl67ug877p9",
      "value": 12000000
    },
    {
      "scriptpubkey": "0014fff83f5faa3760051c774287805605d40b868b80",
      "scriptpubkey_asm": "OP_0 OP_PUSHBYTES_20 fff83f5faa3760051c774287805605d40b868b80",
      "scriptpubkey_type": "v0_p2wpkh",
      "scriptpubkey_address": "bc1qllur7ha2xasq28rhg2rcq4s96s9cdzuqx64k72",
      "value": 25107750
    }
  ],
  "size": 222,
  "weight": 561,
  "fee": 9870,
  "status": {
    "confirmed": true,
    "block_height": 834460,
    "block_hash": "00000000000000000000484a79b643b2524bbce82e5d8a442013fa5b8905ed98",
    "block_time": 1710307468
  },
  "hex": "01000000000101e9252fc62f9ad9f2d724e4484763f2bdc4f5479b754363ac237225742396c0730100000000ffffffff02001bb7000000000016001410cf6e3486b8da839df91808d899e5ce558febdc261d7f0100000000160014fff83f5faa3760051c774287805605d40b868b8002473044022014fedc0c031bfc3a709988eec49baafaa37dc814adbb6f0c0b0bd33baffc27a30220219a231c094483fe19baecadfb8d62032a8a74691ab2b7b4a9c62c5de5b757a80121022fd4fd771a06c89bfb8dfdc94440eff79aa95bf695d63f2b269263d38304544500000000"
}