{
  "txid": "14e2167695fd53b97ae50c0a70e65ac4ef7ad1480621c0c13d9d798945a5d5dc",
  "version": 2,
  "locktime": 0,
  "vin": [
    {
      "txid": "9be75b47c00999968dbf0d0cc64cb2e11a222e65bb480e82c38dab3212dd4935",
      "vout": 0,
      "prevout": {
        "scriptpubkey": "51209f5731b107d4737994d6957237ea66b5e57b43ce57a543e56072378225c014c6",
        "scriptpubkey_asm": "OP_PUSHNUM_1 OP_PUSHBYTES_32 9f5731b107d4737994d6957237ea66b5e57b43ce57a543e56072378225c014c6",
        "scriptpubkey_type": "v1_p2tr",
        "scriptpubkey_address": "bc1pnatnrvg863ehn9xkj4er06nxkhjhks7w27j58etqwgmcyfwqznrq2yyjl8",
        "value": 192000
      },
      "scriptsig": "",
      "scriptsig_asm": "",
      "witness": [
        "1f4e926163a942b55cff22784f1bb0e04a00dbf3f1bf0eda9de67d0fc3b71e564c98ad16ccbdaba6e7a74ce05a5e56aabf108f605dbb4a55993f04f7095c66fe",
        "20c20a50b0e551950afd9390ea0aa8f00ceea0556712274891ff62544d768552a5ac0063036f726401011e6170706c69636174696f6e2f6a736f6e3b636861727365743d7574662d38004cd37b2270223a22706f772d3230222c226f70223a226d696e74222c227469636b223a2250455045222c22616d74223a2231303030222c22736f6c7574696f6e223a22504550453a62633170673935386e6b7a747678347271756e78676d747a6c35666e70666b633330776a323770777367396e6c706a786b796e64793671737376386c6b303a303030303030303030303030303030303030303139393431613561653132383937363539383134343239323533333030353762306461393666336465613163353a3231353737313632393936227d68",
        "c1631b34e489e80d4fba35164e5ad52a60d66865df7d7db84d2adbf53ec13ca2a1"
      ],
      "is_coinbase": false,
      "sequence": 4294967293
    }
  ],
  "vout": [
    {
      "scriptpubkey": "5120416879d84b61aa30726646d62fd1330a6d88bdd25782e820b3f8646b126d2681",
      "scriptpubkey_asm": "OP_PUSHNUM_1 OP_PUSHBYTES_32 416879d84b61aa30726646d62fd1330a6d88bdd25782e820b3f8646b126d2681",
      "scriptpubkey_type": "v1_p2tr",
      "scriptpubkey_address": "bc1pg958nkztvx4rqunxgmtzl5fnpfkc30wj27pwsg9nlpjxkyndy6qssv8lk0",
      "value": 546
    },
    {
      "scriptpubkey": "5120c7d898741247b89357876561773a71b236958e13113ecc940bb8585a513184c3",
      "scriptpubkey_asm": "OP_PUSHNUM_1 OP_PUSHBYTES_32 c7d898741247b89357876561773a71b236958e13113ecc940bb8585a513184c3",
      "scriptpubkey_type": "v1_p2tr",
      "scriptpubkey_address": "bc1pclvfsaqjg7ufx4u8v4shwwn3kgmftrsnzylve9qthpv955f3snpsgsh6lj",
      "value": 2862
    },
    {
      "scriptpubkey": "5120a2766fb00687351962dedf0b4c5a200eefe020b32107f7856ec987cd856f8dff",
      "scriptpubkey_asm": "OP_PUSHNUM_1 OP_PUSHBYTES_32 a2766fb00687351962dedf0b4c5a200eefe020b32107f7856ec987cd856f8dff",
      "scriptpubkey_type": "v1_p2tr",
      "scriptpubkey_address": "bc1p5fmxlvqxsu63jck7mu95ck3qpmh7qg9nyyrl0ptwexrumpt03hls5dz6lg",
      "value": 2862
    },
    {
      "scriptpubkey": "51202e5ab2d37d0a9256cc0ad4dfd49b7efad5bb5539f151f8bbd418642cfac700db",
      "scriptpubkey_asm": "OP_PUSHNUM_1 OP_PUSHBYTES_32 2e5ab2d37d0a9256cc0ad4dfd49b7efad5bb5539f151f8bbd418642cfac700db",
      "scriptpubkey_type": "v1_p2tr",
      "scriptpubkey_address": "bc1p9edt95map2f9dnq26n0afxm7lt2mk4fe79gl3w75rpjze7k8qrdsqjp78u",
      "value": 2850
    },
    {
      "scriptpubkey": "51203a7dc6508e767e4013187c96a297d8d257760aacd11461ab4badee83df458530",
      "scriptpubkey_asm": "OP_PUSHNUM_1 OP_PUSHBYTES_32 3a7dc6508e767e4013187c96a297d8d257760aacd11461ab4badee83df458530",
      "scriptpubkey_type": "v1_p2tr",
      "scriptpubkey_address": "bc1p8f7uv5ywwelyqycc0jt2997c6fthvz4v6y2xr26t4hhg8h69s5cqjrk6yg",
      "value": 2862
    },
    {
      "scriptpubkey": "512090e6238f333397784e46f8037ca445a4cab621e9dffe0fccaf097936fd060e62",
      "scriptpubkey_asm": "OP_PUSHNUM_1 OP_PUSHBYTES_32 90e6238f333397784e46f8037ca445a4cab621e9dffe0fccaf097936fd060e62",
      "scriptpubkey_type": "v1_p2tr",
      "scriptpubkey_address": "bc1pjrnz8renxwthsnjxlqphefz95n9tvg0fmllqln90p9undlgxpe3qxc6nzy",
      "value": 2862
    },
    {
      "scriptpubkey": "512044168541e8341d164e5a94db7b6646dc7dfca8f0444b43c103419aafbf6fbadc",
      "scriptpubkey_asm": "OP_PUSHNUM_1 OP_PUSHBYTES_32 44168541e8341d164e5a94db7b6646dc7dfca8f0444b43c103419aafbf6fbadc",
      "scriptpubkey_type": "v1_p2tr",
      "scriptpubkey_address": "bc1pgstg2s0gxsw3vnj6jndhkejxm37le28sg3958sgrgxd2l0m0htwq25kgfd",
      "value": 2862
    },
    {
      "scriptpubkey": "5120114df4e40e00908d26631a55031a8148ab967006a043a10e141174e562043103",
      "scriptpubkey_asm": "OP_PUSHNUM_1 OP_PUSHBYTES_32 114df4e40e00908d26631a55031a8148ab967006a043a10e141174e562043103",
      "scriptpubkey_type": "v1_p2tr",
      "scriptpubkey_address": "bc1pz9xlfeqwqzgg6fnrrf2sxx5pfz4evuqx5pp6zrs5z96w2csyxypsp82lp0",
      "value": 2850
    },
    {
      "scriptpubkey": "512073350386a2961539edce5b22cf0330d4b2c72c5bf33abadf2cbbfe1f71ce735c",
      "scriptpubkey_asm": "OP_PUSHNUM_1 OP_PUSHBYTES_32 73350386a2961539edce5b22cf0330d4b2c72c5bf33abadf2cbbfe1f71ce735c",
      "scriptpubkey_type": "v1_p2tr",
      "scriptpubkey_address": "bc1pwv6s8p4zjc2nnmwwtv3v7qes6jevwtzm7vat4hevh0lp7uwwwdwql606d9",
      "value": 2850
    },
    {
      "scriptpubkey": "5120ec69d471aea4001f46ccee6473606423a0498ba9dd7c992168fe2742782c1135",
      "scriptpubkey_asm": "OP_PUSHNUM_1 OP_PUSHBYTES_32 ec69d471aea4001f46ccee6473606423a0498ba9dd7c992168fe2742782c1135",
      "scriptpubkey_type": "v1_p2tr",
      "scriptpubkey_address": "bc1pa35agudw5sqp73kvaej8xcryywsynzafm47fjgtglcn5y7pvzy6sde47l2",
      "value": 2862
    },
    {
      "scriptpubkey": "5120b45622da2b01618866597c989ebf099cc33adc87ddb48f905885fda4e22bc315",
      "scriptpubkey_asm": "OP_PUSHNUM_1 OP_PUSHBYTES_32 b45622da2b01618866597c989ebf099cc33adc87ddb48f905885fda4e22bc315",
      "scriptpubkey_type": "v1_p2tr",
      "scriptpubkey_address": "bc1pk3tz9k3tq9scseje0jvfa0cfnnpn4hy8mk6glyzcsh76fc3tcv2sy3sgw8",
      "value": 2862
    },
    {
      "scriptpubkey": "5120b184e14b3cd75289f3037b79764018f89b2c712d51ca8022b23d53622b92cc9d",
      "scriptpubkey_asm": "OP_PUSHNUM_1 OP_PUSHBYTES_32 b184e14b3cd75289f3037b79764018f89b2c712d51ca8022b23d53622b92cc9d",
      "scriptpubkey_type": "v1_p2tr",
      "scriptpubkey_address": "bc1pkxzwzjeu6afgnucr0duhvsqclzdjcufd289gqg4j84fky2ujejwsuraj5v",
      "value": 2862
    },
    {
      "scriptpubkey": "51202a5217915999e5f46a59a83d0a12dc7d32abddfff4e7496679ae3562fcddb349",
      "scriptpubkey_asm": "OP_PUSHNUM_1 OP_PUSHBYTES_32 2a5217915999e5f46a59a83d0a12dc7d32abddfff4e7496679ae3562fcddb349",
      "scriptpubkey_type": "v1_p2tr",
      "scriptpubkey_address": "bc1p9ffp0y2en8jlg6je4q7s5yku05e2hh0l7nn5jene4c6k9lxakdysp8un85",
      "value": 2862
    },
    {
      "scriptpubkey": "51207ffb17dc1738ba3604cd15e4741d355e202b1227b73ee9c4fb2fc92f8934bb56",
      "scriptpubkey_asm": "OP_PUSHNUM_1 OP_PUSHBYTES_32 7ffb17dc1738ba3604cd15e4741d355e202b1227b73ee9c4fb2fc92f8934bb56",
      "scriptpubkey_type": "v1_p2tr",
      "scriptpubkey_address": "bc1p0la30hqh8zarvpxdzhj8g8f4tcszky38kulwn38m9lyjlzf5hdtqadukhr",
      "value": 2850
    },
    {
      "scriptpubkey": "51209b8154d8770c07406de0cf67977d8bc8e895853002bec8aa6d3024a12861d244",
      "scriptpubkey_asm": "OP_PUSHNUM_1 OP_PUSHBYTES_32 9b8154d8770c07406de0cf67977d8bc8e895853002bec8aa6d3024a12861d244",
      "scriptpubkey_type": "v1_p2tr",
      "scriptpubkey_address": "bc1pnwq4fkrhpsr5qm0qeanewlvter5ftpfsq2lv32ndxqj2z2rp6fzq7zk028",
      "value": 2850
    },
    {
      "scriptpubkey": "51204d897a1c1d56400b755bcba135233aec2b7ae7d241529ab65ca4ea3209215a59",
      "scriptpubkey_asm": "OP_PUSHNUM_1 OP_PUSHBYTES_32 4d897a1c1d56400b755bcba135233aec2b7ae7d241529ab65ca4ea3209215a59",
      "scriptpubkey_type": "v1_p2tr",
      "scriptpubkey_address": "bc1pfkyh58qa2eqqka2mewsn2ge6as4h4e7jg9ff4dju5n4ryzfptfvswh2450",
      "value": 2862
    },
    {
      "scriptpubkey": "5120b893749f71735ea0fd3d05ff680b56d58a633a74f2a876836b517c7ef7dfce62",
      "scriptpubkey_asm": "OP_PUSHNUM_1 OP_PUSHBYTES_32 b893749f71735ea0fd3d05ff680b56d58a633a74f2a876836b517c7ef7dfce62",
      "scriptpubkey_type": "v1_p2tr",
      "scriptpubkey_address": "bc1phzfhf8m3wd02plfaqhlksz6k6k9xxwn57258dqmt2978aa7lee3qf75z48",
      "value": 2862
    },
    {
      "scriptpubkey": "51205e6ee8d6d3c1f474f7e056229487995fc013940125717f4a0ea5f7274cb978f0",
      "scriptpubkey_asm": "OP_PUSHNUM_1 OP_PUSHBYTES_32 5e6ee8d6d3c1f474f7e056229487995fc013940125717f4a0ea5f7274cb978f0",
      "scriptpubkey_type": "v1_p2tr",
      "scriptpubkey_address": "bc1ptehw34knc868falq2c3ffpuetlqp89qpy4ch7jsw5hmjwn9e0rcqnztk8x",
      "value": 2862
    },
    {
      "scriptpubkey": "5120b2e393edd920638e409864febdf1f6b5dfe417345d9a960c0c2695a9ff31490c",
      "scriptpubkey_asm": "OP_PUSHNUM_1 OP_PUSHBYTES_32 b2e393edd920638e409864febdf1f6b5dfe417345d9a960c0c2695a9ff31490c",
      "scriptpubkey_type": "v1_p2tr",
      "scriptpubkey_address": "bc1pkt3e8mweyp3cusycvnltmu0kkh07g9e5tkdfvrqvy626nle3fyxqf9n0hv",
      "value": 2862
    },
    {
      "scriptpubkey": "51205baf2b6b35b3cea98aae11e0fe0a085b582a94c1bc4d5f57c4d8eaf9f1a11c8e",
      "scriptpubkey_asm": "OP_PUSHNUM_1 OP_PUSHBYTES_32 5baf2b6b35b3cea98aae11e0fe0a085b582a94c1bc4d5f57c4d8eaf9f1a11c8e",
      "scriptpubkey_type": "v1_p2tr",
      "scriptpubkey_address": "bc1ptwhjk6e4k082nz4wz8s0uzsgtdvz49xph3x4747ymr40nudprj8qcfqpkf",
      "value": 2850
    },
    {
      "scriptpubkey": "5120fc4b9f5458649a1044784dd5d9327408c1edeaf3d9e2ebc648b3507a7003e971",
      "scriptpubkey_asm": "OP_PUSHNUM_1 OP_PUSHBYTES_32 fc4b9f5458649a1044784dd5d9327408c1edeaf3d9e2ebc648b3507a7003e971",
      "scriptpubkey_type": "v1_p2tr",
      "scriptpubkey_address": "bc1pl39e74zcvjdpq3rcfh2ajvn5prq7m6hnm83wh3jgkdg85uqra9csjyldpt",
      "value": 2862
    },
    {
      "scriptpubkey": "512082b40ab123224d6c6a175392d41de727d14df26c6fedb85550ebde51ccae80a1",
      "scriptpubkey_asm": "OP_PUSHNUM_1 OP_PUSHBYTES_32 82b40ab123224d6c6a175392d41de727d14df26c6fedb85550ebde51ccae80a1",
      "scriptpubkey_type": "v1_p2tr",
      "scriptpubkey_address": "bc1ps26q4vfryfxkc6sh2wfdg808ylg5munvdlkms42sa009rn9wszssjdw6j4",
      "value": 2862
    },
    {
      "scriptpubkey": "5120e4d7b4fe992c4d2f143650c2cca4595bc665da6b5ab1797ffa4acf6363af7348",
      "scriptpubkey_asm": "OP_PUSHNUM_1 OP_PUSHBYTES_32 e4d7b4fe992c4d2f143650c2cca4595bc665da6b5ab1797ffa4acf6363af7348",
      "scriptpubkey_type": "v1_p2tr",
      "scriptpubkey_address": "bc1puntmfl5e93xj79pk2rpvefzet0rxtkntt2chjll6ft8kxca0wdyq5xvzac",
      "value": 2862
    },
    {
      "scriptpubkey": "5120a5365cda5f3f242cf8d1cbc265d346d7a023bd9c243307da05c6a24abbd0270d",
      "scriptpubkey_asm": "OP_PUSHNUM_1 OP_PUSHBYTES_32 a5365cda5f3f242cf8d1cbc265d346d7a023bd9c243307da05c6a24abbd0270d",
      "scriptpubkey_type": "v1_p2tr",
      "scriptpubkey_address": "bc1p55m9ekjl8ujze7x3e0pxt56x67sz80vuyses0ks9c63y4w7syuxsmwr90c",
      "value": 2862
    },
    {
      "scriptpubkey": "5120d1fe837200033ade3628f9808cbe4dc20979e2619b1e9dadd1f284ff4fc0c656",
      "scriptpubkey_asm": "OP_PUSHNUM_1 OP_PUSHBYTES_32 d1fe837200033ade3628f9808cbe4dc20979e2619b1e9dadd1f284ff4fc0c656",
      "scriptpubkey_type": "v1_p2tr",
      "scriptpubkey_address": "bc1p68lgxusqqvadud3glxqge0jdcgyhncnpnv0fmtw372z07n7qcetqtpl8tm",
      "value": 2850
    },
    {
      "scriptpubkey": "512062a2a89282da71e1f8e10b647eebdde6248729ccde16d8a25f9bae2dfab64a91",
      "scriptpubkey_asm": "OP_PUSHNUM_1 OP_PUSHBYTES_32 62a2a89282da71e1f8e10b647eebdde6248729ccde16d8a25f9bae2dfab64a91",
      "scriptpubkey_type": "v1_p2tr",
      "scriptpubkey_address": "bc1pv2323y5zmfc7r78ppdj8a67aucjgw2wvmctd3gjlnwhzm74kf2gs47axj5",
      "value": 2862
    },
    {
      "scriptpubkey": "5120ed8640cf40fed96579e62288142b1af3fbf9671ce1f9232c7f41a2c5129f16d2",
      "scriptpubkey_asm": "OP_PUSHNUM_1 OP_PUSHBYTES_32 ed8640cf40fed96579e62288142b1af3fbf9671ce1f9232c7f41a2c5129f16d2",
      "scriptpubkey_type": "v1_p2tr",
      "scriptpubkey_address": "bc1pakrypn6qlmvk270xy2ypg2c670aljecuu8ujxtrlgx3v2y5lzmfqtfwc23",
      "value": 2862
    },
    {
      "scriptpubkey": "51201629055e4d7c28b6813aebddd16c31b21b3df7cf9de02b8c85adfbf5d0d330e8",
      "scriptpubkey_asm": "OP_PUSHNUM_1 OP_PUSHBYTES_32 1629055e4d7c28b6813aebddd16c31b21b3df7cf9de02b8c85adfbf5d0d330e8",
      "scriptpubkey_type": "v1_p2tr",
      "scriptpubkey_address": "bc1pzc5s2hjd0s5tdqf6a0wazmp3kgdnma70nhszhry94halt5xnxr5q7ehpzk",
      "value": 2862
    },
    {
      "scriptpubkey": "512086ca5e913ebc9423162e124999d5080b6a26497713a1611c91a938c82319270c",
      "scriptpubkey_asm": "OP_PUSHNUM_1 OP_PUSHBYTES_32 86ca5e913ebc9423162e124999d5080b6a26497713a1611c91a938c82319270c",
      "scriptpubkey_type": "v1_p2tr",
      "scriptpubkey_address": "bc1psm99ayf7hj2zx93wzfyen4ggpd4zvjthzwskz8y34yuvsgceyuxqr6edtt",
      "value": 2862
    },
    {
      "scriptpubkey": "512070b87a1fd80bf3fbc50cc7d949863921b64d85611bbba7642de0c559a1491ba7",
      "scriptpubkey_asm": "OP_PUSHNUM_1 OP_PUSHBYTES_32 70b87a1fd80bf3fbc50cc7d949863921b64d85611bbba7642de0c559a1491ba7",
      "scriptpubkey_type": "v1_p2tr",
      "scriptpubkey_address": "bc1pwzu8587cp0elh3gvclv5np3eyxmymptprwa6wepdurz4ng2frwnst8pf4k",
      "value": 2862
    },
    {
      "scriptpubkey": "51204a9b345481cd93cd6596b079769c8279c1bb84f928bef953e8b4dfe9f7b887a4",
      "scriptpubkey_asm": "OP_PUSHNUM_1 OP_PUSHBYTES_32 4a9b345481cd93cd6596b079769c8279c1bb84f928bef953e8b4dfe9f7b887a4",
      "scriptpubkey_type": "v1_p2tr",
      "scriptpubkey_address": "bc1pf2dng4ypekfu6evkkpuhd8yz08qmhp8e9zl0j5lgkn07naacs7jq37ct4l",
      "value": 2862
    },
    {
      "scriptpubkey": "512042fbaffccf57c03f3635da481ae638de936310c1f6747888b98acd30d7f88126",
      "scriptpubkey_asm": "OP_PUSHNUM_1 OP_PUSHBYTES_32 42fbaffccf57c03f3635da481ae638de936310c1f6747888b98acd30d7f88126",
      "scriptpubkey_type": "v1_p2tr",
      "scriptpubkey_address": "bc1pgta6llx02lqr7d34mfyp4e3cm6fkxyxp7e683z9e3txnp4lcsynqap9s2u",
      "value": 2862
    },
    {
      "scriptpubkey": "51206c8924115a1b7ac6af1c4cf687b3469c65d3a6a3c1d1ff7978b75a10f491fc59",
      "scriptpubkey_asm": "OP_PUSHNUM_1 OP_PUSHBYTES_32 6c8924115a1b7ac6af1c4cf687b3469c65d3a6a3c1d1ff7978b75a10f491fc59",
      "scriptpubkey_type": "v1_p2tr",
      "scriptpubkey_address": "bc1pdjyjgy26rdavdtcufnmg0v6xn3ja8f4rc8gl77tckadppay3l3vsg5wqy9",
      "value": 2862
    },
    {
      "scriptpubkey": "5120fea6a412b014993a31b1d301558089a040624e3d204772ce6feb84761aa205db",
      "scriptpubkey_asm": "OP_PUSHNUM_1 OP_PUSHBYTES_32 fea6a412b014993a31b1d301558089a040624e3d204772ce6feb84761aa205db",
      "scriptpubkey_type": "v1_p2tr",
      "scriptpubkey_address": "bc1pl6n2gy4szjvn5vd36vq4tqyf5pqxyn3ayprh9nn0awz8vx4zqhdshq0jjm",
      "value": 2862
    },
    {
      "scriptpubkey": "5120edd8b9459ededb95c041896203e8932c6d7f5fcff2c250d0c41f1ebc3d0a6988",
      "scriptpubkey_asm": "OP_PUSHNUM_1 OP_PUSHBYTES_32 edd8b9459ededb95c041896203e8932c6d7f5fcff2c250d0c41f1ebc3d0a6988",
      "scriptpubkey_type": "v1_p2tr",
      "scriptpubkey_address": "bc1pahvtj3v7mmdetszp393q86yn93kh7h707tp9p5xyru0tc0g2dxyq2hxcpn",
      "value": 2862
    },
    {
      "scriptpubkey": "5120c39bd91354975765aaca58dfcdb0fbe97e175f9fb6fccc7aefb1d46ff6afd212",
      "scriptpubkey_asm": "OP_PUSHNUM_1 OP_PUSHBYTES_32 c39bd91354975765aaca58dfcdb0fbe97e175f9fb6fccc7aefb1d46ff6afd212",
      "scriptpubkey_type": "v1_p2tr",
      "scriptpubkey_address": "bc1pcwdajy65jatkt2k2tr0umv8ma9lpwhulkm7vc7h0k82xla406gfqheau55",
      "value": 2862
    },
    {
      "scriptpubkey": "51204507ee0a53a62d95f8a79131eeed5ef39ada88da8b424b174df841a87cfcb337",
      "scriptpubkey_asm": "OP_PUSHNUM_1 OP_PUSHBYTES_32 4507ee0a53a62d95f8a79131eeed5ef39ada88da8b424b174df841a87cfcb337",
      "scriptpubkey_type": "v1_p2tr",
      "scriptpubkey_address": "bc1pg5r7uzjn5cket798jyc7am277wdd4zx63dpyk96dlpq6sl8ukvmsz3gjav",
      "value": 2850
    },
    {
      "scriptpubkey": "51208909806e7d8fc7d262ad0a6af18e2d1c55741c7e0b9d8261f8d0f5787c9a7989",
      "scriptpubkey_asm": "OP_PUSHNUM_1 OP_PUSHBYTES_32 8909806e7d8fc7d262ad0a6af18e2d1c55741c7e0b9d8261f8d0f5787c9a7989",
      "scriptpubkey_type": "v1_p2tr",
      "scriptpubkey_address": "bc1p3yycqmna3lrayc4dpf40rr3dr32hg8r7pwwcyc0c6r6hsly60xyscl8g9r",
      "value": 2862
    },
    {
      "scriptpubkey": "5120909ca7b68d4a702625defae866a8b2a9d6c8d47d76ab5a1ff4b615bbc2c61e8a",
      "scriptpubkey_asm": "OP_PUSHNUM_1 OP_PUSHBYTES_32 909ca7b68d4a702625defae866a8b2a9d6c8d47d76ab5a1ff4b615bbc2c61e8a",
      "scriptpubkey_type": "v1_p2tr",
      "scriptpubkey_address": "bc1pjzw20d5dffczvfw7lt5xd29j48tv34raw64458l5kc2mhskxr69q4766ma",
      "value": 2862
    },
    {
      "scriptpubkey": "512070e645fee00ce14c6b28bf346bc5a3d40ff05051fe84b5cefe1a964818190d5a",
      "scriptpubkey_asm": "OP_PUSHNUM_1 OP_PUSHBYTES_32 70e645fee00ce14c6b28bf346bc5a3d40ff05051fe84b5cefe1a964818190d5a",
      "scriptpubkey_type": "v1_p2tr",
      "scriptpubkey_address": "bc1pwrnytlhqpns5c6eghu6xh3dr6s8lq5z3l6zttnh7r2tysxqep4dqzssffp",
      "value": 2862
    },
    {
      "scriptpubkey": "51205544d86b62484ceed4224e88241027931952f6aca0b008e8a4e02c246ba4e900",
      "scriptpubkey_asm": "OP_PUSHNUM_1 OP_PUSHBYTES_32 5544d86b62484ceed4224e88241027931952f6aca0b008e8a4e02c246ba4e900",
      "scriptpubkey_type": "v1_p2tr",
      "scriptpubkey_address": "bc1p24zds6mzfpxwa4pzf6yzgyp8jvv49a4v5zcq369yuqkzg6ayayqqtvvgrx",
      "value": 2862
    },
    {
      "scriptpubkey": "00142f91b82075041ea33bb574b31a4958b983c91e3e",
      "scriptpubkey_asm": "OP_0 OP_PUSHBYTES_20 2f91b82075041ea33bb574b31a4958b983c91e3e",
      "scriptpubkey_type": "v0_p2wpkh",
      "scriptpubkey_address": "bc1q97gmsgr4qs02xwa4wje35j2chxpuj8374x39dv",
      "value": 53742
    }
  ],
  "size": 2238,
  "weight": 7773,
  "fee": 23328,
  "status": {
    "confirmed": true,
    "block_height": 834460,
    "block_hash": "00000000000000000000484a79b643b2524bbce82e5d8a442013fa5b8905ed98",
    "block_time": 1710307468
  },
  "hex": "020000000001013549dd1232ab8dc3820e48bb652e221ae1b24cc60c0dbf8d969909c0475be79b0000000000fdffffff2a2202000000000000225120416879d84b61aa30726646d62fd1330a6d88bdd25782e820b3f8646b126d26812e0b000000000000225120c7d898741247b89357876561773a71b236958e13113ecc940bb8585a513184c32e0b000000000000225120a2766fb00687351962dedf0b4c5a200eefe020b32107f7856ec987cd856f8dff220b0000000000002251202e5ab2d37d0a9256cc0ad4dfd49b7efad5bb5539f151f8bbd418642cfac700db2e0b0000000000002251203a7dc6508e767e4013187c96a297d8d257760aacd11461ab4badee83df4585302e0b00000000000022512090e6238f333397784e46f8037ca445a4cab621e9dffe0fccaf097936fd060e622e0b00000000000022512044168541e8341d164e5a94db7b6646dc7dfca8f0444b43c103419aafbf6fbadc220b000000000000225120114df4e40e00908d26631a55031a8148ab967006a043a10e141174e562043103220b00000000000022512073350386a2961539edce5b22cf0330d4b2c72c5bf33abadf2cbbfe1f71ce735c2e0b000000000000225120ec69d471aea4001f46ccee6473606423a0498ba9dd7c992168fe2742782c11352e0b000000000000225120b45622da2b01618866597c989ebf099cc33adc87ddb48f905885fda4e22bc3152e0b000000000000225120b184e14b3cd75289f3037b79764018f89b2c712d51ca8022b23d53622b92cc9d2e0b0000000000002251202a5217915999e5f46a59a83d0a12dc7d32abddfff4e7496679ae3562fcddb349220b0000000000002251207ffb17dc1738ba3604cd15e4741d355e202b1227b73ee9c4fb2fc92f8934bb56220b0000000000002251209b8154d8770c07406de0cf67977d8bc8e895853002bec8aa6d3024a12861d2442e0b0000000000002251204d897a1c1d56400b755bcba135233aec2b7ae7d241529ab65ca4ea3209215a592e0b000000000000225120b893749f71735ea0fd3d05ff680b56d58a633a74f2a876836b517c7ef7dfce622e0b0000000000002251205e6ee8d6d3c1f474f7e056229487995fc013940125717f4a0ea5f7274cb978f02e0b000000000000225120b2e393edd920638e409864febdf1f6b5dfe417345d9a960c0c2695a9ff31490c220b0000000000002251205baf2b6b35b3cea98aae11e0fe0a085b582a94c1bc4d5f57c4d8eaf9f1a11c8e2e0b000000000000225120fc4b9f5458649a1044784dd5d9327408c1edeaf3d9e2ebc648b3507a7003e9712e0b00000000000022512082b40ab123224d6c6a175392d41de727d14df26c6fedb85550ebde51ccae80a12e0b000000000000225120e4d7b4fe992c4d2f143650c2cca4595bc665da6b5ab1797ffa4acf6363af73482e0b000000000000225120a5365cda5f3f242cf8d1cbc265d346d7a023bd9c243307da05c6a24abbd0270d220b000000000000225120d1fe837200033ade3628f9808cbe4dc20979e2619b1e9dadd1f284ff4fc0c6562e0b00000000000022512062a2a89282da71e1f8e10b647eebdde6248729ccde16d8a25f9bae2dfab64a912e0b000000000000225120ed8640cf40fed96579e62288142b1af3fbf9671ce1f9232c7f41a2c5129f16d22e0b0000000000002251201629055e4d7c28b6813aebddd16c31b21b3df7cf9de02b8c85adfbf5d0d330e82e0b00000000000022512086ca5e913ebc9423162e124999d5080b6a26497713a1611c91a938c82319270c2e0b00000000000022512070b87a1fd80bf3fbc50cc7d949863921b64d85611bbba7642de0c559a1491ba72e0b0000000000002251204a9b345481cd93cd6596b079769c8279c1bb84f928bef953e8b4dfe9f7b887a42e0b00000000000022512042fbaffccf57c03f3635da481ae638de936310c1f6747888b98acd30d7f881262e0b0000000000002251206c8924115a1b7ac6af1c4cf687b3469c65d3a6a3c1d1ff7978b75a10f491fc592e0b000000000000225120fea6a412b014993a31b1d301558089a040624e3d204772ce6feb84761aa205db2e0b000000000000225120edd8b9459ededb95c041896203e8932c6d7f5fcff2c250d0c41f1ebc3d0a69882e0b000000000000225120c39bd91354975765aaca58dfcdb0fbe97e175f9fb6fccc7aefb1d46ff6afd212220b0000000000002251204507ee0a53a62d95f8a79131eeed5ef39ada88da8b424b174df841a87cfcb3372e0b0000000000002251208909806e7d8fc7d262ad0a6af18e2d1c55741c7e0b9d8261f8d0f5787c9a79892e0b000000000000225120909ca7b68d4a702625defae866a8b2a9d6c8d47d76ab5a1ff4b615bbc2c61e8a2e0b00000000000022512070e645fee00ce14c6b28bf346bc5a3d40ff05051fe84b5cefe1a964818190d5a2e0b0000000000002251205544d86b62484ceed4224e88241027931952f6aca0b008e8a4e02c246ba4e900eed10000000000001600142f91b82075041ea33bb574b31a4958b983c91e3e03401f4e926163a942b55cff22784f1bb0e04a00dbf3f1bf0eda9de67d0fc3b71e564c98ad16ccbdaba6e7a74ce05a5e56aabf108f605dbb4a55993f04f7095c66fefd200120c20a50b0e551950afd9390ea0aa8f00ceea0556712274891ff62544d768552a5ac0063036f726401011e6170706c69636174696f6e2f6a736f6e3b636861727365743d7574662d38004cd37b2270223a22706f772d3230222c226f70223a226d696e74222c227469636b223a2250455045222c22616d74223a2231303030222c22736f6c7574696f6e223a22504550453a62633170673935386e6b7a747678347271756e78676d747a6c35666e70666b633330776a323770777367396e6c706a786b796e64793671737376386c6b303a303030303030303030303030303030303030303139393431613561653132383937363539383134343239323533333030353762306461393666336465613163353a3231353737313632393936227d6821c1631b34e489e80d4fba35164e5ad52a60d66865df7d7db84d2adbf53ec13ca2a100000000"
}