{
  "txid": "14e3dba3758c1ce86a93f7b93a15f5920f3a88e34776609857ca3c1068ca24ae",
  "version": 2,
  "locktime": 0,
  "vin": [
    {
      "txid": "e9da905b834cb7f4cf19124095f8c9078da7a29b04802091e63b6f3aa7f45c02",
      "vout": 0,
      "prevout": {
        "scriptpubkey": "001478dcc49c84bd6377c49b090a15b1739b6930ccfe",
        "scriptpubkey_asm": "OP_0 OP_PUSHBYTES_20 78dcc49c84bd6377c49b090a15b1739b6930ccfe",
        "scriptpubkey_type": "v0_p2wpkh",
        "scriptpubkey_address": "bc1q0rwvf8yyh43h03ympy9ptvtnnd5npn87gq93g2",
        "value": 224011
      },
      "scriptsig": "",
      "scriptsig_asm": "",
      "witness": [
        "304402204426d59c2223137269a64d5a2be41fb578080d8bbabd83e2a704a6b05b1af9fc02202c88bc5348652f1bf355522e0e280f8d981ab5329b191d6e8894560b881721d101",
        "03cdd2fd67e3132fb53e8f3cc729db4d36fdf658ff5b24e9410dbc585701077ee2"
      ],
      "is_coinbase": false,
      "sequence": 4294967293
    }
  ],
  "vout": [
    {
      "scriptpubkey": "a914cc05763722c7a26cae4c99ad5172dcc72b2331f487",
      "scriptpubkey_asm": "OP_HASH160 OP_PUSHBYTES_20 cc05763722c7a26cae4c99ad5172dcc72b2331f4 OP_EQUAL",
      "scriptpubkey_type": "p2sh",
      "scriptpubkey_address": "3LHnKAi6ErKZPGP4dBLcczhjSUvtdcunsj",
      "value": 203956
    },
    {
      "scriptpubkey": "001458d6ba7e28ae5b45b8b36351cf597c90b68cc690",
      "scriptpubkey_asm": "OP_0 OP_PUSHBYTES_20 58d6ba7e28ae5b45b8b36351cf597c90b68cc690",
      "scriptpubkey_type": "v0_p2wpkh",
      "scriptpubkey_address": "bc1qtrtt5l3g4ed5tw9nvdgu7ktujzmge35sapalml",
      "value": 17323
    }
  ],
  "size": 223,
  "weight": 565,
  "fee": 2732,
  "status": {
    "confirmed": true,
    "block_height": 834638,
    "block_hash": "000000000000000000025f742c626208ac87e0b7d15054abb4a19ca2d735a54e",
    "block_time": 1710405325
  },
  "hex": "02000000000101025cf4a73a6f3be6912080049ba2a78d07c9f895401219cff4b74c835b90dae90000000000fdffffff02b41c03000000000017a914cc05763722c7a26cae4c99ad5172dcc72b2331f487ab4300000000000016001458d6ba7e28ae5b45b8b36351cf597c90b68cc6900247304402204426d59c2223137269a64d5a2be41fb578080d8bbabd83e2a704a6b05b1af9fc02202c88bc5348652f1bf355522e0e280f8d981ab5329b191d6e8894560b881721d1012103cdd2fd67e3132fb53e8f3cc729db4d36fdf658ff5b24e9410dbc585701077ee200000000"
}