{
  "txid": "150b2939f4707c283545fd4021fe3cb933742236b58c63ce3ca9aea7aaf38bce",
  "version": 1,
  "locktime": 0,
  "vin": [
    {
      "txid": "2dd1b641ee35e23f089030f0927740a5d7d3738d33681c995dc8efc771b96f7d",
      "vout": 1,
      "prevout": {
        "scriptpubkey": "76a914c30d716b92c8475e54b57ac41dcb43b9d37483f088ac",
        "scriptpubkey_asm": "OP_DUP OP_HASH160 OP_PUSHBYTES_20 c30d716b92c8475e54b57ac41dcb43b9d37483f0 OP_EQUALVERIFY OP_CHECKSIG",
        "scriptpubkey_type": "p2pkh",
        "scriptpubkey_address": "1JnLsStDhZjQqZJ3xiPcjnaE6c9ADG8cST",
        "value": 42316
      },
      "scriptsig": "483045022100ca3f519c6312ca2150711d7a8f9fa076d0c930ef06ea7b64fdaa45d37f9ef07b02202ef9136e72b487624877e6f6b97905209ccf8736f61065e671825430bbcb74c2012102582265281d948e89bd44512f5b5e65140cf69c254db1c1b5142d1f0844a9f143",
      "scriptsig_asm": "OP_PUSHBYTES_72 3045022100ca3f519c6312ca2150711d7a8f9fa076d0c930ef06ea7b64fdaa45d37f9ef07b02202ef9136e72b487624877e6f6b97905209ccf8736f61065e671825430bbcb74c201 OP_PUSHBYTES_33 02582265281d948e89bd44512f5b5e65140cf69c254db1c1b5142d1f0844a9f143",
      "is_coinbase": false,
      "sequence": 4294967295
    },
    {
      "txid": "14a3839262cc31e180ecf48d555ac9b541277e8e32621df4ecbcd0acd4f63603",
      "vout": 1,
      "prevout": {
        "scriptpubkey": "76a914c30d716b92c8475e54b57ac41dcb43b9d37483f088ac",
        "scriptpubkey_asm": "OP_DUP OP_HASH160 OP_PUSHBYTES_20 c30d716b92c8475e54b57ac41dcb43b9d37483f0 OP_EQUALVERIFY OP_CHECKSIG",
        "scriptpubkey_type": "p2pkh",
        "scriptpubkey_address": "1JnLsStDhZjQqZJ3xiPcjnaE6c9ADG8cST",
        "value": 6000
      },
      "scriptsig": "4830450221009eeaa8ed1c14b89ba5192fb0cb076b85c1d235e77b909dac0cc30fbc0e7c2d6602205ed519eae54ce9a3d653e9e52bb7d93c72cd302ea1200a9fc40a5eea9d3b4e94012102582265281d948e89bd44512f5b5e65140cf69c254db1c1b5142d1f0844a9f143",
      "scriptsig_asm": "OP_PUSHBYTES_72 30450221009eeaa8ed1c14b89ba5192fb0cb076b85c1d235e77b909dac0cc30fbc0e7c2d6602205ed519eae54ce9a3d653e9e52bb7d93c72cd302ea1200a9fc40a5eea9d3b4e9401 OP_PUSHBYTES_33 02582265281d948e89bd44512f5b5e65140cf69c254db1c1b5142d1f0844a9f143",
      "is_coinbase": false,
      "sequence": 4294967295
    }
  ],
  "vout": [
    {
      "scriptpubkey": "76a914deee1c035e456225c499ecfd8ccb57d967d4121b88ac",
      "scriptpubkey_asm": "OP_DUP OP_HASH160 OP_PUSHBYTES_20 deee1c035e456225c499ecfd8ccb57d967d4121b OP_EQUALVERIFY OP_CHECKSIG",
      "scriptpubkey_type": "p2pkh",
      "scriptpubkey_address": "1MKkFiirL2oGtz2fgNKfuEbTGTtiMJiB8W",
      "value": 44606
    }
  ],
  "size": 340,
  "weight": 1360,
  "fee": 3710,
  "status": {
    "confirmed": true,
    "block_height": 834464,
    "block_hash": "0000000000000000000177a0869a911a2b65c9bdcd5a8bcb02b68f305bee848e",
    "block_time": 1710308296
  },
  "hex": "01000000027d6fb971c7efc85d991c68338d73d3d7a5407792f03090083fe235ee41b6d12d010000006b483045022100ca3f519c6312ca2150711d7a8f9fa076d0c930ef06ea7b64fdaa45d37f9ef07b02202ef9136e72b487624877e6f6b97905209ccf8736f61065e671825430bbcb74c2012102582265281d948e89bd44512f5b5e65140cf69c254db1c1b5142d1f0844a9f143ffffffff0336f6d4acd0bcecf41d62328e7e2741b5c95a558df4ec80e131cc629283a314010000006b4830450221009eeaa8ed1c14b89ba5192fb0cb076b85c1d235e77b909dac0cc30fbc0e7c2d6602205ed519eae54ce9a3d653e9e52bb7d93c72cd302ea1200a9fc40a5eea9d3b4e94012102582265281d948e89bd44512f5b5e65140cf69c254db1c1b5142d1f0844a9f143ffffffff013eae0000000000001976a914deee1c035e456225c499ecfd8ccb57d967d4121b88ac00000000"
}