{
  "txid": "15229d101ee197bf179a9e11235901992d486cd99aafa632086733afb1e8008d",
  "version": 2,
  "locktime": 0,
  "vin": [
    {
      "txid": "fcda2ee04cf81d91297b9032806d7f014cf33874311ae8464a0268cb3b37feb8",
      "vout": 0,
      "prevout": {
        "scriptpubkey": "0014022ab717bcf519cfc20ab44e8849f549a25e54de",
        "scriptpubkey_asm": "OP_0 OP_PUSHBYTES_20 022ab717bcf519cfc20ab44e8849f549a25e54de",
        "scriptpubkey_type": "v0_p2wpkh",
        "scriptpubkey_address": "bc1qqg4tw9au75vulss2k38gsj04fx39u4x7gudvk8",
        "value": 2516360
      },
      "scriptsig": "",
      "scriptsig_asm": "",
      "witness": [
        "3044022061d8c08b82d2a922bc18c4def0e61821d4e34b8e3a761272a137eb264317d9eb02202134bdadf2ccf1a31dd74f8ebaeb4698de0ed7d5acda6a5aee0bdacfb1ab627a01",
        "02cb3a78e731a49b242722abe1319137ab629d7c1904fa8d11bb33a71a135b4d8c"
      ],
      "is_coinbase": false,
      "sequence": 4294967295
    }
  ],
  "vout": [
    {
      "scriptpubkey": "0014dda3d20f961117778b56757321820862a1d4c966",
      "scriptpubkey_asm": "OP_0 OP_PUSHBYTES_20 dda3d20f961117778b56757321820862a1d4c966",
      "scriptpubkey_type": "v0_p2wpkh",
      "scriptpubkey_address": "bc1qmk3ayrukzyth0z6kw4ejrqsgv2safjtx877gmq",
      "value": 24620
    },
    {
      "scriptpubkey": "0014022ab717bcf519cfc20ab44e8849f549a25e54de",
      "scriptpubkey_asm": "OP_0 OP_PUSHBYTES_20 022ab717bcf519cfc20ab44e8849f549a25e54de",
      "scriptpubkey_type": "v0_p2wpkh",
      "scriptpubkey_address": "bc1qqg4tw9au75vulss2k38gsj04fx39u4x7gudvk8",
      "value": 2488872
    }
  ],
  "size": 222,
  "weight": 561,
  "fee": 2868,
  "status": {
    "confirmed": true,
    "block_height": 834638,
    "block_hash": "000000000000000000025f742c626208ac87e0b7d15054abb4a19ca2d735a54e",
    "block_time": 1710405325
  },
  "hex": "02000000000101b8fe373bcb68024a46e81a317438f34c017f6d8032907b29911df84ce02edafc0000000000ffffffff022c60000000000000160014dda3d20f961117778b56757321820862a1d4c96628fa250000000000160014022ab717bcf519cfc20ab44e8849f549a25e54de02473044022061d8c08b82d2a922bc18c4def0e61821d4e34b8e3a761272a137eb264317d9eb02202134bdadf2ccf1a31dd74f8ebaeb4698de0ed7d5acda6a5aee0bdacfb1ab627a012102cb3a78e731a49b242722abe1319137ab629d7c1904fa8d11bb33a71a135b4d8c00000000"
}