{
  "txid": "1530d8ec1729d18014ff10a270f7919e4951bb403b2a4cd76d67b4df8ee454c6",
  "version": 1,
  "locktime": 0,
  "vin": [
    {
      "txid": "4658d93d45e3ca3a410c2dff39f7cb6e9d034a2984457497468f3038f56cfab8",
      "vout": 0,
      "prevout": {
        "scriptpubkey": "0014afd710b48fb29cf6963c681a60dd1536aba54ef6",
        "scriptpubkey_asm": "OP_0 OP_PUSHBYTES_20 afd710b48fb29cf6963c681a60dd1536aba54ef6",
        "scriptpubkey_type": "v0_p2wpkh",
        "scriptpubkey_address": "bc1q4lt3pdy0k2w0d93udqdxphg4x6462nhkagjc4p",
        "value": 135890006
      },
      "scriptsig": "",
      "scriptsig_asm": "",
      "witness": [
        "3044022020c8b719180fc362575e35d09aa8d031a7aa5f8b173bd0fd3bae1b53e7a0baa102207d8ee46cdeb3919cf2c37aa07dcbd99a20b95aab08e8461279bb7aa1d8e8b77a01",
        "03cdf39728e117cda909ee8679b303f0a2ec5b697281d855caf6565c4c67880f8c"
      ],
      "is_coinbase": false,
      "sequence": 4294967293
    },
    {
      "txid": "4ec723888c208ad1b7112aabd5b2dcdc82278d093692dc358f6e3e64b92a16a2",
      "vout": 0,
      "prevout": {
        "scriptpubkey": "001460b2da2adfe526fa91619ab57c0a416563afac61",
        "scriptpubkey_asm": "OP_0 OP_PUSHBYTES_20 60b2da2adfe526fa91619ab57c0a416563afac61",
        "scriptpubkey_type": "v0_p2wpkh",
        "scriptpubkey_address": "bc1qvzed52klu5n04ytpn26hczjpv436ltrp0q0ucv",
        "value": 70000000
      },
      "scriptsig": "",
      "scriptsig_asm": "",
      "witness": [
        "3045022100dd0406078a8597601fb2cb0a521879b0a678c979896160f0ce238b66845b1cd4022070d05684f51a3b80b7b6a5cc62cff36979acb0dd36da40232bf381f4746ff3da01",
        "021fa7ac2e04491ec57925c864619f6e3322d2513f798c0987f32bf9c13055a092"
      ],
      "is_coinbase": false,
      "sequence": 4294967293
    },
    {
      "txid": "5cbc2e17cc76dc2b3cc36daf81303b8a37182cffba45136585d163af0938f1b4",
      "vout": 0,
      "prevout": {
        "scriptpubkey": "0014e2ebd280e31b41170852621ae7afe5f26193b524",
        "scriptpubkey_asm": "OP_0 OP_PUSHBYTES_20 e2ebd280e31b41170852621ae7afe5f26193b524",
        "scriptpubkey_type": "v0_p2wpkh",
        "scriptpubkey_address": "bc1qut4a9q8rrdq3wzzjvgdw0tl97fse8dfy9mutdf",
        "value": 58843910
      },
      "scriptsig": "",
      "scriptsig_asm": "",
      "witness": [
        "304502210090c841e5bc413bd1a4f9719d1bdba911328f6403c548e2352cff81c3da2221540220337cde57deb4fe312a512cde9a9c6e027339e8d97cd222730bc19865c246772b01",
        "03c3e291fa236145d42854a7400e2782e417a2c0ea510dc4f84e468454fc2e8fb2"
      ],
      "is_coinbase": false,
      "sequence": 4294967293
    },
    {
      "txid": "69e1cebf548c1c803d2340e6f899e8b39679f70e64ce271e803971286accbe67",
      "vout": 0,
      "prevout": {
        "scriptpubkey": "0014afd710b48fb29cf6963c681a60dd1536aba54ef6",
        "scriptpubkey_asm": "OP_0 OP_PUSHBYTES_20 afd710b48fb29cf6963c681a60dd1536aba54ef6",
        "scriptpubkey_type": "v0_p2wpkh",
        "scriptpubkey_address": "bc1q4lt3pdy0k2w0d93udqdxphg4x6462nhkagjc4p",
        "value": 110613743
      },
      "scriptsig": "",
      "scriptsig_asm": "",
      "witness": [
        "304402201b29f8359dd7a4b772ea146c06d04794238dac2b4e3478b5f9e8fbdebba3761002207f0c8dd967a3b29eda446f2eda105a2d0a879843f61c4e2f87d0df20a6773bdb01",
        "03cdf39728e117cda909ee8679b303f0a2ec5b697281d855caf6565c4c67880f8c"
      ],
      "is_coinbase": false,
      "sequence": 4294967293
    },
    {
      "txid": "aa3e579ead472de03b3ce00b91958f14b4f5bbe5fe90d27e87972fd6258971f3",
      "vout": 0,
      "prevout": {
        "scriptpubkey": "0014651c83e9d67f7d43420710ad35f65dc3a1c79f23",
        "scriptpubkey_asm": "OP_0 OP_PUSHBYTES_20 651c83e9d67f7d43420710ad35f65dc3a1c79f23",
        "scriptpubkey_type": "v0_p2wpkh",
        "scriptpubkey_address": "bc1qv5wg86wk0a75xss8zzkntajacwsu08erf26z3x",
        "value": 13659500
      },
      "scriptsig": "",
      "scriptsig_asm": "",
      "witness": [
        "304402206b9348b800f782a073e63504ded86ffb20739028257ea81458a5f1797833e890022076acc0aadc97057aab9ae95513d9c3d2addd87d350e0f300e3730ec9f256f11501",
        "030fac615cf0764f21102b865e19e95411987cefd034dc3185dfcb391663fc1d19"
      ],
      "is_coinbase": false,
      "sequence": 4294967293
    },
    {
      "txid": "b18f08c4c375e1fd8d1b32a2f44e0b296e6b8605b7b538f71d1a5c2fda67e52b",
      "vout": 0,
      "prevout": {
        "scriptpubkey": "0014afd710b48fb29cf6963c681a60dd1536aba54ef6",
        "scriptpubkey_asm": "OP_0 OP_PUSHBYTES_20 afd710b48fb29cf6963c681a60dd1536aba54ef6",
        "scriptpubkey_type": "v0_p2wpkh",
        "scriptpubkey_address": "bc1q4lt3pdy0k2w0d93udqdxphg4x6462nhkagjc4p",
        "value": 124601534
      },
      "scriptsig": "",
      "scriptsig_asm": "",
      "witness": [
        "3044022032ce010f511c03cbc43a6c79156ea64398f0635e519b0d73a8582b16a11a30bc022073f4255c88aad987522f563d7b35392c6e1baba97ad9126aa0659f9b16efb2df01",
        "03cdf39728e117cda909ee8679b303f0a2ec5b697281d855caf6565c4c67880f8c"
      ],
      "is_coinbase": false,
      "sequence": 4294967293
    },
    {
      "txid": "d3009a4bdef18e53b20f0b6a7b455177732192c34dd7bd5b444bdac950d5519b",
      "vout": 1,
      "prevout": {
        "scriptpubkey": "0014ac55899032d9f4f7260a3d97e07c7df7f235bd67",
        "scriptpubkey_asm": "OP_0 OP_PUSHBYTES_20 ac55899032d9f4f7260a3d97e07c7df7f235bd67",
        "scriptpubkey_type": "v0_p2wpkh",
        "scriptpubkey_address": "bc1q432cnypjm860wfs28kt7qlra7lert0t88uez8j",
        "value": 54126462
      },
      "scriptsig": "",
      "scriptsig_asm": "",
      "witness": [
        "30440220418a079c591f3d8b452be549557d1e6eeee8b95d4e8e7fcdb3f993a235c76b0f022033f37dfcab77f6e273039750df62f53cfa796a95c103a8ca6dfcc2452d57676d01",
        "0361d7dd3d4df34dc0f3ddab6f5e4d141b09409dd119790409e2019f375f7e556b"
      ],
      "is_coinbase": false,
      "sequence": 4294967293
    },
    {
      "txid": "df72ea9ed4736df67edc1a4e86dd4e4996d14da88d4147b2cb1f38b7247ab255",
      "vout": 1,
      "prevout": {
        "scriptpubkey": "001479f36d91d15c34af6db4278fe3555377e43b5377",
        "scriptpubkey_asm": "OP_0 OP_PUSHBYTES_20 79f36d91d15c34af6db4278fe3555377e43b5377",
        "scriptpubkey_type": "v0_p2wpkh",
        "scriptpubkey_address": "bc1q08ekmyw3ts627md5y787x42nwljrk5mhd2mph0",
        "value": 53676969
      },
      "scriptsig": "",
      "scriptsig_asm": "",
      "witness": [
        "3045022100cbc4052388d851c94f0f5b30daebe69a2a4bbec60907b14870a5e0a4a16d368e02201fb32d8208200f8e417a436c17feb559f3dc504ebd75c051989d8d135453cd3a01",
        "038031b54d50d7eef7477ee7c65efde12004b36c8eb53835bfef7a755d56a62c8f"
      ],
      "is_coinbase": false,
      "sequence": 4294967293
    }
  ],
  "vout": [
    {
      "scriptpubkey": "001467848e9ba8a0a81c7dcfa4e57716b3aa85c12868",
      "scriptpubkey_asm": "OP_0 OP_PUSHBYTES_20 67848e9ba8a0a81c7dcfa4e57716b3aa85c12868",
      "scriptpubkey_type": "v0_p2wpkh",
      "scriptpubkey_address": "bc1qv7zgaxag5z5pclw05njhw94n42zuz2rg6lz4nx",
      "value": 1403304
    },
    {
      "scriptpubkey": "0014222fb1cdb8b982ebaa66dec054e264d43e05f7b6",
      "scriptpubkey_asm": "OP_0 OP_PUSHBYTES_20 222fb1cdb8b982ebaa66dec054e264d43e05f7b6",
      "scriptpubkey_type": "v0_p2wpkh",
      "scriptpubkey_address": "bc1qyghmrndchxpwh2nxmmq9fcny6slqtaaktxw7ad",
      "value": 620000000
    }
  ],
  "size": 1261,
  "weight": 2461,
  "fee": 8820,
  "status": {
    "confirmed": true,
    "block_height": 834638,
    "block_hash": "000000000000000000025f742c626208ac87e0b7d15054abb4a19ca2d735a54e",
    "block_time": 1710405325
  },
  "hex": "01000000000108b8fa6cf538308f4697744584294a039d6ecbf739ff2d0c413acae3453dd958460000000000fdffffffa2162ab9643e6e8f35dc9236098d2782dcdcb2d5ab2a11b7d18a208c8823c74e0000000000fdffffffb4f13809af63d185651345baff2c18378a3b3081af6dc33c2bdc76cc172ebc5c0000000000fdffffff67becc6a287139801e27ce640ef77996b3e899f8e640233d801c8c54bfcee1690000000000fdfffffff3718925d62f97877ed290fee5bbf5b4148f95910be03c3be02d47ad9e573eaa0000000000fdffffff2be567da2f5c1a1df738b5b705866b6e290b4ef4a2321b8dfde175c3c4088fb10000000000fdffffff9b51d550c9da4b445bbdd74dc39221737751457b6a0b0fb2538ef1de4b9a00d30100000000fdffffff55b27a24b7381fcbb247418da84dd196494edd864e1adc7ef66d73d49eea72df0100000000fdffffff02a86915000000000016001467848e9ba8a0a81c7dcfa4e57716b3aa85c128680073f42400000000160014222fb1cdb8b982ebaa66dec054e264d43e05f7b602473044022020c8b719180fc362575e35d09aa8d031a7aa5f8b173bd0fd3bae1b53e7a0baa102207d8ee46cdeb3919cf2c37aa07dcbd99a20b95aab08e8461279bb7aa1d8e8b77a012103cdf39728e117cda909ee8679b303f0a2ec5b697281d855caf6565c4c67880f8c02483045022100dd0406078a8597601fb2cb0a521879b0a678c979896160f0ce238b66845b1cd4022070d05684f51a3b80b7b6a5cc62cff36979acb0dd36da40232bf381f4746ff3da0121021fa7ac2e04491ec57925c864619f6e3322d2513f798c0987f32bf9c13055a0920248304502210090c841e5bc413bd1a4f9719d1bdba911328f6403c548e2352cff81c3da2221540220337cde57deb4fe312a512cde9a9c6e027339e8d97cd222730bc19865c246772b012103c3e291fa236145d42854a7400e2782e417a2c0ea510dc4f84e468454fc2e8fb20247304402201b29f8359dd7a4b772ea146c06d04794238dac2b4e3478b5f9e8fbdebba3761002207f0c8dd967a3b29eda446f2eda105a2d0a879843f61c4e2f87d0df20a6773bdb012103cdf39728e117cda909ee8679b303f0a2ec5b697281d855caf6565c4c67880f8c0247304402206b9348b800f782a073e63504ded86ffb20739028257ea81458a5f1797833e890022076acc0aadc97057aab9ae95513d9c3d2addd87d350e0f300e3730ec9f256f1150121030fac615cf0764f21102b865e19e95411987cefd034dc3185dfcb391663fc1d1902473044022032ce010f511c03cbc43a6c79156ea64398f0635e519b0d73a8582b16a11a30bc022073f4255c88aad987522f563d7b35392c6e1baba97ad9126aa0659f9b16efb2df012103cdf39728e117cda909ee8679b303f0a2ec5b697281d855caf6565c4c67880f8c024730440220418a079c591f3d8b452be549557d1e6eeee8b95d4e8e7fcdb3f993a235c76b0f022033f37dfcab77f6e273039750df62f53cfa796a95c103a8ca6dfcc2452d57676d01210361d7dd3d4df34dc0f3ddab6f5e4d141b09409dd119790409e2019f375f7e556b02483045022100cbc4052388d851c94f0f5b30daebe69a2a4bbec60907b14870a5e0a4a16d368e02201fb32d8208200f8e417a436c17feb559f3dc504ebd75c051989d8d135453cd3a0121038031b54d50d7eef7477ee7c65efde12004b36c8eb53835bfef7a755d56a62c8f00000000"
}