{
  "txid": "1532f6a2029b5e8c21a0754e4040c3cfd3813057833345de20114743a50682c5",
  "version": 2,
  "locktime": 0,
  "vin": [
    {
      "txid": "2ec861de74f4ee19bb41c910c8cd041538f2ad94a92729115e72c7b6159441b7",
      "vout": 3,
      "prevout": {
        "scriptpubkey": "5120a0e6859fe0005e1d3b01d4333cf6ac51b07472814eb9abe68398eff2675e3d62",
        "scriptpubkey_asm": "OP_PUSHNUM_1 OP_PUSHBYTES_32 a0e6859fe0005e1d3b01d4333cf6ac51b07472814eb9abe68398eff2675e3d62",
        "scriptpubkey_type": "v1_p2tr",
        "scriptpubkey_address": "bc1p5rngt8lqqp0p6wcp6senea4v2xc8gu5pf6u6he5rnrhlye67843qj5wfug",
        "value": 2862
      },
      "scriptsig": "",
      "scriptsig_asm": "",
      "witness": [
        "e552dd61f75504b9121b43669a6fa4663ec7a02242260be185b0fc167d47a748e8a4c98d42b72d4f6c80f92f9cc1729ab991e8c312f24bf741082ef95f2602e6",
        "20db414af483e52512a710389ecd0b20ddf9c3dae235024c638cc7fa7b190ea227ac0063036f726401011e6170706c69636174696f6e2f6a736f6e3b636861727365743d7574662d38004cd37b2270223a22706f772d3230222c226f70223a226d696e74222c227469636b223a2250455045222c22616d74223a2231303030222c22736f6c7574696f6e223a22504550453a62633170746e776d6a6c6e30347468677938776d3632347175746a357163736676646a7179343676366b67747337656e6330797367633871666d646135723a303030303030303030303030303030303030303139393431613561653132383937363539383134343239323533333030353762306461393666336465613163353a3331363430333436383937227d68",
        "c0b3bc6f424055c5ec6ac1dc8b207f1ba18c4db693056bc938ea6425d8b7a62268"
      ],
      "is_coinbase": false,
      "sequence": 4294967295
    }
  ],
  "vout": [
    {
      "scriptpubkey": "51205cddb97e6faaee821ddbd2aa0e2e5406209636402574cd590b87b33c3c90460e",
      "scriptpubkey_asm": "OP_PUSHNUM_1 OP_PUSHBYTES_32 5cddb97e6faaee821ddbd2aa0e2e5406209636402574cd590b87b33c3c90460e",
      "scriptpubkey_type": "v1_p2tr",
      "scriptpubkey_address": "bc1ptnwmjln04thgy8wm624qutj5qcsfvdjqy46v6kgts7enc0ysgc8qfmda5r",
      "value": 546
    }
  ],
  "size": 487,
  "weight": 769,
  "fee": 2316,
  "status": {
    "confirmed": true,
    "block_height": 834460,
    "block_hash": "00000000000000000000484a79b643b2524bbce82e5d8a442013fa5b8905ed98",
    "block_time": 1710307468
  },
  "hex": "02000000000101b7419415b6c7725e112927a994adf2381504cdc810c941bb19eef474de61c82e0300000000ffffffff0122020000000000002251205cddb97e6faaee821ddbd2aa0e2e5406209636402574cd590b87b33c3c90460e0340e552dd61f75504b9121b43669a6fa4663ec7a02242260be185b0fc167d47a748e8a4c98d42b72d4f6c80f92f9cc1729ab991e8c312f24bf741082ef95f2602e6fd200120db414af483e52512a710389ecd0b20ddf9c3dae235024c638cc7fa7b190ea227ac0063036f726401011e6170706c69636174696f6e2f6a736f6e3b636861727365743d7574662d38004cd37b2270223a22706f772d3230222c226f70223a226d696e74222c227469636b223a2250455045222c22616d74223a2231303030222c22736f6c7574696f6e223a22504550453a62633170746e776d6a6c6e30347468677938776d3632347175746a357163736676646a7179343676366b67747337656e6330797367633871666d646135723a303030303030303030303030303030303030303139393431613561653132383937363539383134343239323533333030353762306461393666336465613163353a3331363430333436383937227d6821c0b3bc6f424055c5ec6ac1dc8b207f1ba18c4db693056bc938ea6425d8b7a6226800000000"
}