{
  "txid": "153b5aa84498d5730d45d2b530dd395b6f977e6e83a0e95581d47682eb9465c5",
  "version": 2,
  "locktime": 0,
  "vin": [
    {
      "txid": "3554d89794c28aa9eac672f5037d889baa909eab1fbfdc2b6066b167d4b7f0cb",
      "vout": 1,
      "prevout": {
        "scriptpubkey": "00140fbe890a5822a6c09d09719504845ac33163447e",
        "scriptpubkey_asm": "OP_0 OP_PUSHBYTES_20 0fbe890a5822a6c09d09719504845ac33163447e",
        "scriptpubkey_type": "v0_p2wpkh",
        "scriptpubkey_address": "bc1qp7lgjzjcy2nvp8gfwx2sfpz6cvckx3r7z3gv29",
        "value": 446873
      },
      "scriptsig": "",
      "scriptsig_asm": "",
      "witness": [
        "304402207cc722d97cbb0fefcdc93f73ec12ed8653856798dd6f054ece247ea0157dc17e02207a1a105cadeeda426a8f3a52b3d11bb7ea71347c4af3dcc03628684556d9faa401",
        "03d311f4fda571fd0caeacf55e959d4376a91943d0da6faa715f1f3babd1151877"
      ],
      "is_coinbase": false,
      "sequence": 0
    }
  ],
  "vout": [
    {
      "scriptpubkey": "0014875397deba154470974eb64f60ac441590a22cfd",
      "scriptpubkey_asm": "OP_0 OP_PUSHBYTES_20 875397deba154470974eb64f60ac441590a22cfd",
      "scriptpubkey_type": "v0_p2wpkh",
      "scriptpubkey_address": "bc1qsafe0h46z4z8p96wke8kptzyzkg2yt8axm2pce",
      "value": 8249
    },
    {
      "scriptpubkey": "00144d12f8a0780b0f58ab4f39988f97786e833faca6",
      "scriptpubkey_asm": "OP_0 OP_PUSHBYTES_20 4d12f8a0780b0f58ab4f39988f97786e833faca6",
      "scriptpubkey_type": "v0_p2wpkh",
      "scriptpubkey_address": "bc1qf5f03grcpv8432608xvgl9mcd6pnlt9xshygkz",
      "value": 436113
    }
  ],
  "size": 222,
  "weight": 561,
  "fee": 2511,
  "status": {
    "confirmed": true,
    "block_height": 834638,
    "block_hash": "000000000000000000025f742c626208ac87e0b7d15054abb4a19ca2d735a54e",
    "block_time": 1710405325
  },
  "hex": "02000000000101cbf0b7d467b166602bdcbf1fab9e90aa9b887d03f572c6eaa98ac29497d85435010000000000000000023920000000000000160014875397deba154470974eb64f60ac441590a22cfd91a70600000000001600144d12f8a0780b0f58ab4f39988f97786e833faca60247304402207cc722d97cbb0fefcdc93f73ec12ed8653856798dd6f054ece247ea0157dc17e02207a1a105cadeeda426a8f3a52b3d11bb7ea71347c4af3dcc03628684556d9faa4012103d311f4fda571fd0caeacf55e959d4376a91943d0da6faa715f1f3babd115187700000000"
}