{
  "txid": "15407c71e1538c64d53dd897f02f9d8fe63919e0db0a9037ac98ca9291804592",
  "version": 2,
  "locktime": 0,
  "vin": [
    {
      "txid": "acc3ba00869acb582a3f2904ce3a11dd3779350ce234063fc7d0959246213364",
      "vout": 108,
      "prevout": {
        "scriptpubkey": "5120b9ebb640ad6952b4b2a64d8e4e17829b1fef1f461525d84248d7e740218e6951",
        "scriptpubkey_asm": "OP_PUSHNUM_1 OP_PUSHBYTES_32 b9ebb640ad6952b4b2a64d8e4e17829b1fef1f461525d84248d7e740218e6951",
        "scriptpubkey_type": "v1_p2tr",
        "scriptpubkey_address": "bc1ph84mvs9dd9ftfv4xfk8yu9uznv07786xz5jassjg6ln5qgvwd9gsh35w4d",
        "value": 1806
      },
      "scriptsig": "",
      "scriptsig_asm": "",
      "witness": [
        "f875a208fcb756254c128ae2a95e9401142a9f4568210ff1d00b14f088e46859d309d85d7bb137cc8c94caf09b992055ec0b3bcab3b9539585dd594025680542",
        "20297d040d0204f0f038d63458b36a8d38b963bc159ac3c17e002a314f73452562ac0063036f726401010a746578742f706c61696e00357b2270223a226272632d3230222c226f70223a226d696e74222c227469636b223a22646f6765222c22616d74223a2234323030227d68",
        "c1297d040d0204f0f038d63458b36a8d38b963bc159ac3c17e002a314f73452562"
      ],
      "is_coinbase": false,
      "sequence": 4261412863
    }
  ],
  "vout": [
    {
      "scriptpubkey": "00147a665de7a370f4c9b372ab1fae587500a5bcbdb4",
      "scriptpubkey_asm": "OP_0 OP_PUSHBYTES_20 7a665de7a370f4c9b372ab1fae587500a5bcbdb4",
      "scriptpubkey_type": "v0_p2wpkh",
      "scriptpubkey_address": "bc1q0fn9mearwr6vnvmj4v06ukr4qzjme0d565dzcx",
      "value": 294
    }
  ],
  "size": 294,
  "weight": 540,
  "fee": 1512,
  "status": {
    "confirmed": true,
    "block_height": 834460,
    "block_hash": "00000000000000000000484a79b643b2524bbce82e5d8a442013fa5b8905ed98",
    "block_time": 1710307468
  },
  "hex": "02000000000101643321469295d0c73f0634e20c357937dd113ace04293f2a58cb9a8600bac3ac6c00000000fffffffd0126010000000000001600147a665de7a370f4c9b372ab1fae587500a5bcbdb40340f875a208fcb756254c128ae2a95e9401142a9f4568210ff1d00b14f088e46859d309d85d7bb137cc8c94caf09b992055ec0b3bcab3b9539585dd5940256805426d20297d040d0204f0f038d63458b36a8d38b963bc159ac3c17e002a314f73452562ac0063036f726401010a746578742f706c61696e00357b2270223a226272632d3230222c226f70223a226d696e74222c227469636b223a22646f6765222c22616d74223a2234323030227d6821c1297d040d0204f0f038d63458b36a8d38b963bc159ac3c17e002a314f7345256200000000"
}