{
  "txid": "154cb1f1a6632d3d96e52bb23412cd09518201faba4e4097d2b30290be93432d",
  "version": 1,
  "locktime": 0,
  "vin": [
    {
      "txid": "730f2367b8577cc2f3843be9896ecfd0570864a5209141ad293dcc0009762e57",
      "vout": 18,
      "prevout": {
        "scriptpubkey": "00147f25ad6b98e7c7ae281363d106db083fc7119821",
        "scriptpubkey_asm": "OP_0 OP_PUSHBYTES_20 7f25ad6b98e7c7ae281363d106db083fc7119821",
        "scriptpubkey_type": "v0_p2wpkh",
        "scriptpubkey_address": "bc1q0uj666uculr6u2qnv0gsdkcg8lr3rxppyhdecu",
        "value": 4944820
      },
      "scriptsig": "",
      "scriptsig_asm": "",
      "witness": [
        "30450221008f2a4ac3334af90b9536291f5b3bc183628f292ccddb31218d297584beb6746202205705d3fab2569e0376e8b2f606d5b9236fa02e9ee137134517c7d6d010dde16301",
        "03d4c415d831b7173732c018647b040103319ca39ba8cbe585f48b71bc3c5facf0"
      ],
      "is_coinbase": false,
      "sequence": 4294967293
    },
    {
      "txid": "9a14175c811d511bf15c2eac421570113cd4ab9cc064d17fd9d619a6d52ce6ec",
      "vout": 0,
      "prevout": {
        "scriptpubkey": "001462bef40ebb0564a361e5f08facbaed80089d3270",
        "scriptpubkey_asm": "OP_0 OP_PUSHBYTES_20 62bef40ebb0564a361e5f08facbaed80089d3270",
        "scriptpubkey_type": "v0_p2wpkh",
        "scriptpubkey_address": "bc1qv2l0gr4mq4j2xc097z86ewhdsqyf6vnst795le",
        "value": 2773003
      },
      "scriptsig": "",
      "scriptsig_asm": "",
      "witness": [
        "30450221009d03673d63cff43fb090a73c715817139643c49a85dbc6e97ed3dc6f9c2a5ba102205b01fc2bbe18840f9e2451d8a6dae9d8dfc050ab4448a347d5fe1ff3f19a52e301",
        "03bd29a531d1dca226fdaff7e213eb6247d398f3ab86c1fd3d7f557ba58ead79b8"
      ],
      "is_coinbase": false,
      "sequence": 4294967293
    },
    {
      "txid": "3c6d2fdc1559ca10c6a0d1726ccb63c983ac6a105c5a23c675780055c6dde81f",
      "vout": 5,
      "prevout": {
        "scriptpubkey": "0014222c8637b7aa4753e0b15e6a4275072409174199",
        "scriptpubkey_asm": "OP_0 OP_PUSHBYTES_20 222c8637b7aa4753e0b15e6a4275072409174199",
        "scriptpubkey_type": "v0_p2wpkh",
        "scriptpubkey_address": "bc1qygkgvdah4fr48c93te4yyag8ysy3wsvelhpd94",
        "value": 1714097
      },
      "scriptsig": "",
      "scriptsig_asm": "",
      "witness": [
        "3045022100afd2d0a1040317214f644332adb9ce7fe80c49ac5131a6f6a0df2514ae6179c402201386308d8157bd31ea6b7df2fbfb16d719677636f3e387ef53db8eb1d22e1c4401",
        "0318067a377fcf841406ef49067593c05232da7680ceac81096c2f0650b1d4b294"
      ],
      "is_coinbase": false,
      "sequence": 4294967293
    },
    {
      "txid": "c8c6686a5978c427c634fe16feac9fa808682eb6736eb9e039ffded272baef10",
      "vout": 1,
      "prevout": {
        "scriptpubkey": "0014638e9dcac451b6f42f91bb181edf81076d07a206",
        "scriptpubkey_asm": "OP_0 OP_PUSHBYTES_20 638e9dcac451b6f42f91bb181edf81076d07a206",
        "scriptpubkey_type": "v0_p2wpkh",
        "scriptpubkey_address": "bc1qvw8fmjky2xm0gtu3hvvpahupqaks0gsxzrsg2r",
        "value": 993449
      },
      "scriptsig": "",
      "scriptsig_asm": "",
      "witness": [
        "3045022100f1696a6ed86ffbc4ff23c1cca4da9a08d4d731544d553c6d6e17fe45a49c29f7022020503c03b4e0427d4e14dcdf12eebcfa571b8cf0d113490b86004da9dc40535001",
        "029601ce5c8190881ac5fa0f9fabfb6727cfc42124a738e58f102dfa32cfdb1858"
      ],
      "is_coinbase": false,
      "sequence": 4294967293
    }
  ],
  "vout": [
    {
      "scriptpubkey": "0014abed0becf36b0e2b582fd40d5a2efb155fe7bf09",
      "scriptpubkey_asm": "OP_0 OP_PUSHBYTES_20 abed0becf36b0e2b582fd40d5a2efb155fe7bf09",
      "scriptpubkey_type": "v0_p2wpkh",
      "scriptpubkey_address": "bc1q40kshm8ndv8zkkp06sx45thmz40700cfety6wn",
      "value": 13919
    },
    {
      "scriptpubkey": "00148458aeb3b129a802882a192d65ca8f3bdfec9282",
      "scriptpubkey_asm": "OP_0 OP_PUSHBYTES_20 8458aeb3b129a802882a192d65ca8f3bdfec9282",
      "scriptpubkey_type": "v0_p2wpkh",
      "scriptpubkey_address": "bc1qs3v2ava39x5q9zp2rykktj508007ey5ztewx5f",
      "value": 10402350
    }
  ],
  "size": 670,
  "weight": 1378,
  "fee": 9100,
  "status": {
    "confirmed": true,
    "block_height": 834460,
    "block_hash": "00000000000000000000484a79b643b2524bbce82e5d8a442013fa5b8905ed98",
    "block_time": 1710307468
  },
  "hex": "01000000000104572e760900cc3d29ad419120a5640857d0cf6e89e93b84f3c27c57b867230f731200000000fdffffffece62cd5a619d6d97fd164c09cabd43c11701542ac2e5cf11b511d815c17149a0000000000fdffffff1fe8ddc655007875c6235a5c106aac83c963cb6c72d1a0c610ca5915dc2f6d3c0500000000fdffffff10efba72d2deff39e0b96e73b62e6808a89facfe16fe34c627c478596a68c6c80100000000fdffffff025f36000000000000160014abed0becf36b0e2b582fd40d5a2efb155fe7bf092eba9e00000000001600148458aeb3b129a802882a192d65ca8f3bdfec9282024830450221008f2a4ac3334af90b9536291f5b3bc183628f292ccddb31218d297584beb6746202205705d3fab2569e0376e8b2f606d5b9236fa02e9ee137134517c7d6d010dde163012103d4c415d831b7173732c018647b040103319ca39ba8cbe585f48b71bc3c5facf0024830450221009d03673d63cff43fb090a73c715817139643c49a85dbc6e97ed3dc6f9c2a5ba102205b01fc2bbe18840f9e2451d8a6dae9d8dfc050ab4448a347d5fe1ff3f19a52e3012103bd29a531d1dca226fdaff7e213eb6247d398f3ab86c1fd3d7f557ba58ead79b802483045022100afd2d0a1040317214f644332adb9ce7fe80c49ac5131a6f6a0df2514ae6179c402201386308d8157bd31ea6b7df2fbfb16d719677636f3e387ef53db8eb1d22e1c4401210318067a377fcf841406ef49067593c05232da7680ceac81096c2f0650b1d4b29402483045022100f1696a6ed86ffbc4ff23c1cca4da9a08d4d731544d553c6d6e17fe45a49c29f7022020503c03b4e0427d4e14dcdf12eebcfa571b8cf0d113490b86004da9dc4053500121029601ce5c8190881ac5fa0f9fabfb6727cfc42124a738e58f102dfa32cfdb185800000000"
}