{
  "txid": "15509b01e5ee29fcf75399ecacf7ec7036b6178d64dec1b5c930512a116a692b",
  "version": 2,
  "locktime": 834637,
  "vin": [
    {
      "txid": "10267868aef4a7cf60ac5da26c132d7faa38346273b4f87279f02df87c52116c",
      "vout": 0,
      "prevout": {
        "scriptpubkey": "00143211bd506813261550932e042b65f9c78996ae21",
        "scriptpubkey_asm": "OP_0 OP_PUSHBYTES_20 3211bd506813261550932e042b65f9c78996ae21",
        "scriptpubkey_type": "v0_p2wpkh",
        "scriptpubkey_address": "bc1qxggm65rgzvnp25yn9czzke0ec7yedt3p5pk9rw",
        "value": 292572666
      },
      "scriptsig": "",
      "scriptsig_asm": "",
      "witness": [
        "30440220380956db51b233efd4831cbc20dd46f155d5572fe30d010d21930c5c0175b24e02202f5c366d99f2da5640d62dfbe6d8e939fb5fd427d519c55f74551e28523bded201",
        "02a8ed57cbb014776ded0a4879f8e391af50ad5c2d2f348240ad736f00ede850b9"
      ],
      "is_coinbase": false,
      "sequence": 4294967294
    }
  ],
  "vout": [
    {
      "scriptpubkey": "a914358c3efcc057c521a40a1642ed72df8debe5ee7287",
      "scriptpubkey_asm": "OP_HASH160 OP_PUSHBYTES_20 358c3efcc057c521a40a1642ed72df8debe5ee72 OP_EQUAL",
      "scriptpubkey_type": "p2sh",
      "scriptpubkey_address": "36a9kBCqEZqkPPhSwBmLUmSsvLZyS37HUQ",
      "value": 1101600
    },
    {
      "scriptpubkey": "0014b44d224ba2d969fe930ae46f659fe8d60db1924b",
      "scriptpubkey_asm": "OP_0 OP_PUSHBYTES_20 b44d224ba2d969fe930ae46f659fe8d60db1924b",
      "scriptpubkey_type": "v0_p2wpkh",
      "scriptpubkey_address": "bc1qk3xjyjazm95layc2u3hkt8lg6cxmryjtamhxcd",
      "value": 291467586
    }
  ],
  "size": 223,
  "weight": 565,
  "fee": 3480,
  "status": {
    "confirmed": true,
    "block_height": 834638,
    "block_hash": "000000000000000000025f742c626208ac87e0b7d15054abb4a19ca2d735a54e",
    "block_time": 1710405325
  },
  "hex": "020000000001016c11527cf82df07972f8b473623438aa7f2d136ca25dac60cfa7f4ae687826100000000000feffffff0220cf10000000000017a914358c3efcc057c521a40a1642ed72df8debe5ee728742715f1100000000160014b44d224ba2d969fe930ae46f659fe8d60db1924b024730440220380956db51b233efd4831cbc20dd46f155d5572fe30d010d21930c5c0175b24e02202f5c366d99f2da5640d62dfbe6d8e939fb5fd427d519c55f74551e28523bded2012102a8ed57cbb014776ded0a4879f8e391af50ad5c2d2f348240ad736f00ede850b94dbc0c00"
}