{
  "txid": "156b3c4a51ddc63de48a5cd97dbf15ea7e1450059f459f88d2cf164522b94cdd",
  "version": 2,
  "locktime": 0,
  "vin": [
    {
      "txid": "74ebd56641ecdab1a68730bf99a2dd44593d606fbed8da278f1cbe46aa863296",
      "vout": 0,
      "prevout": {
        "scriptpubkey": "a91489a36a60232d12394a287ff31b3afc3c12d5d6ae87",
        "scriptpubkey_asm": "OP_HASH160 OP_PUSHBYTES_20 89a36a60232d12394a287ff31b3afc3c12d5d6ae OP_EQUAL",
        "scriptpubkey_type": "p2sh",
        "scriptpubkey_address": "3EEnG8kvAtPBzeBo3ssxiAGMJPjaPMbvFH",
        "value": 2867014
      },
      "scriptsig": "160014b2481e4b0a31acd5af0dcd10433266f67996675a",
      "scriptsig_asm": "OP_PUSHBYTES_22 0014b2481e4b0a31acd5af0dcd10433266f67996675a",
      "witness": [
        "304502210095eb4237cdd23327648e72096de190cd5f18133a65c51ca0535aae0571bf7a1f02206f8d45135f50188aa419f9792f1658c0225b8c2e055ed8cc5f3cb88ccd4a9af201",
        "021bfc450a80f04e8a9b02adb19056d2ea08a7b20c88a1b63e0a64c2ccbf3b56b4"
      ],
      "is_coinbase": false,
      "sequence": 4294967293,
      "inner_redeemscript_asm": "OP_0 OP_PUSHBYTES_20 b2481e4b0a31acd5af0dcd10433266f67996675a"
    }
  ],
  "vout": [
    {
      "scriptpubkey": "a91477b7e4608740f14760cbdaf17bbda32ffd2300b987",
      "scriptpubkey_asm": "OP_HASH160 OP_PUSHBYTES_20 77b7e4608740f14760cbdaf17bbda32ffd2300b9 OP_EQUAL",
      "scriptpubkey_type": "p2sh",
      "scriptpubkey_address": "3Cc2dRECSyu48oi4rU7EZ2WyArJ8eMPh1v",
      "value": 2865571
    }
  ],
  "size": 216,
  "weight": 534,
  "fee": 1443,
  "status": {
    "confirmed": true,
    "block_height": 834464,
    "block_hash": "0000000000000000000177a0869a911a2b65c9bdcd5a8bcb02b68f305bee848e",
    "block_time": 1710308296
  },
  "hex": "02000000000101963286aa46be1c8f27dad8be6f603d5944dda299bf3087a6b1daec4166d5eb740000000017160014b2481e4b0a31acd5af0dcd10433266f67996675afdffffff01a3b92b000000000017a91477b7e4608740f14760cbdaf17bbda32ffd2300b9870248304502210095eb4237cdd23327648e72096de190cd5f18133a65c51ca0535aae0571bf7a1f02206f8d45135f50188aa419f9792f1658c0225b8c2e055ed8cc5f3cb88ccd4a9af20121021bfc450a80f04e8a9b02adb19056d2ea08a7b20c88a1b63e0a64c2ccbf3b56b400000000"
}