{
  "txid": "15750e413196f28d589f4ba75c0d21a15c465d2b68a1ab068423b378015196ca",
  "version": 2,
  "locktime": 0,
  "vin": [
    {
      "txid": "773f0f7f6399d9a694ec0611b1f9bd23ed19cf06e53ed05091c8e21805f1da30",
      "vout": 0,
      "prevout": {
        "scriptpubkey": "001494f092de48a705932bed28cf8276f31b194d9d63",
        "scriptpubkey_asm": "OP_0 OP_PUSHBYTES_20 94f092de48a705932bed28cf8276f31b194d9d63",
        "scriptpubkey_type": "v0_p2wpkh",
        "scriptpubkey_address": "bc1qjncf9hjg5uzex2ld9r8cyahnrvv5m8tr9h73nd",
        "value": 546
      },
      "scriptsig": "",
      "scriptsig_asm": "",
      "witness": [
        "3044022052c12e652f7ee3f00bb06d4a51afbb3a5d6898460919237ca6327942169ba8ac02207cbb897dc7481602cf55e3a5604745ab6108cb88464c6161fcc35310e07b31ec01",
        "023e836f8afaa6c239d188ffa153ca0b8791ca261fecf307ced13e97e967a09ed1"
      ],
      "is_coinbase": false,
      "sequence": 4294967295
    },
    {
      "txid": "5824e079d71b29476e5f0f8d81dd9f3e02f3c02f68f39bccbedadece9a130288",
      "vout": 1,
      "prevout": {
        "scriptpubkey": "001494f092de48a705932bed28cf8276f31b194d9d63",
        "scriptpubkey_asm": "OP_0 OP_PUSHBYTES_20 94f092de48a705932bed28cf8276f31b194d9d63",
        "scriptpubkey_type": "v0_p2wpkh",
        "scriptpubkey_address": "bc1qjncf9hjg5uzex2ld9r8cyahnrvv5m8tr9h73nd",
        "value": 54084
      },
      "scriptsig": "",
      "scriptsig_asm": "",
      "witness": [
        "304402206cead11b0492841da0dd80370cb0c73129dc772945f239fa41cf3a2dcdd94d0b02203d52500cef697cd0a5e574f46f892a04db54b286a9929a6826f4ea501d40f87f01",
        "023e836f8afaa6c239d188ffa153ca0b8791ca261fecf307ced13e97e967a09ed1"
      ],
      "is_coinbase": false,
      "sequence": 4294967295
    }
  ],
  "vout": [
    {
      "scriptpubkey": "001494f092de48a705932bed28cf8276f31b194d9d63",
      "scriptpubkey_asm": "OP_0 OP_PUSHBYTES_20 94f092de48a705932bed28cf8276f31b194d9d63",
      "scriptpubkey_type": "v0_p2wpkh",
      "scriptpubkey_address": "bc1qjncf9hjg5uzex2ld9r8cyahnrvv5m8tr9h73nd",
      "value": 546
    },
    {
      "scriptpubkey": "001494f092de48a705932bed28cf8276f31b194d9d63",
      "scriptpubkey_asm": "OP_0 OP_PUSHBYTES_20 94f092de48a705932bed28cf8276f31b194d9d63",
      "scriptpubkey_type": "v0_p2wpkh",
      "scriptpubkey_address": "bc1qjncf9hjg5uzex2ld9r8cyahnrvv5m8tr9h73nd",
      "value": 51158
    }
  ],
  "size": 370,
  "weight": 832,
  "fee": 2926,
  "status": {
    "confirmed": true,
    "block_height": 834638,
    "block_hash": "000000000000000000025f742c626208ac87e0b7d15054abb4a19ca2d735a54e",
    "block_time": 1710405325
  },
  "hex": "0200000000010230daf10518e2c89150d03ee506cf19ed23bdf9b11106ec94a6d999637f0f3f770000000000ffffffff8802139acededabecc9bf3682fc0f3023e9fdd818d0f5f6e47291bd779e024580100000000ffffffff02220200000000000016001494f092de48a705932bed28cf8276f31b194d9d63d6c700000000000016001494f092de48a705932bed28cf8276f31b194d9d6302473044022052c12e652f7ee3f00bb06d4a51afbb3a5d6898460919237ca6327942169ba8ac02207cbb897dc7481602cf55e3a5604745ab6108cb88464c6161fcc35310e07b31ec0121023e836f8afaa6c239d188ffa153ca0b8791ca261fecf307ced13e97e967a09ed10247304402206cead11b0492841da0dd80370cb0c73129dc772945f239fa41cf3a2dcdd94d0b02203d52500cef697cd0a5e574f46f892a04db54b286a9929a6826f4ea501d40f87f0121023e836f8afaa6c239d188ffa153ca0b8791ca261fecf307ced13e97e967a09ed100000000"
}