{
  "txid": "157ba593e460784fffab72c644eb11eddf851f7a1734c1f42258e2924f3cf5e6",
  "version": 2,
  "locktime": 0,
  "vin": [
    {
      "txid": "9960b573fc21be4b6564e3ecee376bc0531c8596fa21c2f421bd5d01cb648609",
      "vout": 1,
      "prevout": {
        "scriptpubkey": "001428a97bd240245cc3b6dc527f18f5bae180ba806c",
        "scriptpubkey_asm": "OP_0 OP_PUSHBYTES_20 28a97bd240245cc3b6dc527f18f5bae180ba806c",
        "scriptpubkey_type": "v0_p2wpkh",
        "scriptpubkey_address": "bc1q9z5hh5jqy3wv8dku2fl33ad6uxqt4qrvk6pwta",
        "value": 39229001
      },
      "scriptsig": "",
      "scriptsig_asm": "",
      "witness": [
        "30450221009529f9b7d4aef3559baf0a0a7223076f6f58193758966c0726a67bdf5f55546102207e9cc273f064a6665df2410504fc1950469d2712dbc4bd188f641b76b2c654e401",
        "036537a65d1fb774c37917d7c1a92dd814711398449c5da950e6dbad1940fc3e2f"
      ],
      "is_coinbase": false,
      "sequence": 4294967295
    }
  ],
  "vout": [
    {
      "scriptpubkey": "0014ad587a057a58c0178b973dab0daab0f0ca5322af",
      "scriptpubkey_asm": "OP_0 OP_PUSHBYTES_20 ad587a057a58c0178b973dab0daab0f0ca5322af",
      "scriptpubkey_type": "v0_p2wpkh",
      "scriptpubkey_address": "bc1q44v85pt6trqp0zuh8k4sm24s7r99xg40w6mjgk",
      "value": 1360276
    },
    {
      "scriptpubkey": "00141130287518644f00dedecb0b59ad2e32eee83aa3",
      "scriptpubkey_asm": "OP_0 OP_PUSHBYTES_20 1130287518644f00dedecb0b59ad2e32eee83aa3",
      "scriptpubkey_type": "v0_p2wpkh",
      "scriptpubkey_address": "bc1qzyczsagcv38sphk7ev94ntfwxthwsw4rcpnjp0",
      "value": 37866628
    }
  ],
  "size": 223,
  "weight": 562,
  "fee": 2097,
  "status": {
    "confirmed": true,
    "block_height": 834638,
    "block_hash": "000000000000000000025f742c626208ac87e0b7d15054abb4a19ca2d735a54e",
    "block_time": 1710405325
  },
  "hex": "02000000000101098664cb015dbd21f4c221fa96851c53c06b37eeece364654bbe21fc73b560990100000000ffffffff0294c1140000000000160014ad587a057a58c0178b973dab0daab0f0ca5322af84cc4102000000001600141130287518644f00dedecb0b59ad2e32eee83aa3024830450221009529f9b7d4aef3559baf0a0a7223076f6f58193758966c0726a67bdf5f55546102207e9cc273f064a6665df2410504fc1950469d2712dbc4bd188f641b76b2c654e40121036537a65d1fb774c37917d7c1a92dd814711398449c5da950e6dbad1940fc3e2f00000000"
}