{
  "txid": "158b6d0cbe9424146a32819da7c743756ea9c18c7ce97ca7c3556ba03ac38c0c",
  "version": 2,
  "locktime": 834458,
  "vin": [
    {
      "txid": "e34cc4735c87aab7078ea8d6d3c32ec9cc6cdbbd6a0856d22e58b0418e095e63",
      "vout": 0,
      "prevout": {
        "scriptpubkey": "0014ff251d1eadd646d8b71b67e120514c268f0ad65a",
        "scriptpubkey_asm": "OP_0 OP_PUSHBYTES_20 ff251d1eadd646d8b71b67e120514c268f0ad65a",
        "scriptpubkey_type": "v0_p2wpkh",
        "scriptpubkey_address": "bc1qluj3684d6erd3dcmvlsjq52vy68s44j6p030r7",
        "value": 68803121
      },
      "scriptsig": "",
      "scriptsig_asm": "",
      "witness": [
        "3044022055192ce8d9f6f4cc346c5226efb783d11d69e6a44092800f596134ffd239300202204b343a30ddb331c0f6a743b2921ec59d5114c7b19318603c557f977f17cedf8001",
        "02452215213b1c1057bb866e7697e88952e442216d86c85b1cadfdb6132e3d389b"
      ],
      "is_coinbase": false,
      "sequence": 4294967293
    }
  ],
  "vout": [
    {
      "scriptpubkey": "00144f3d2fec6084c075288a24ed77fb5b1ca12ccdbe",
      "scriptpubkey_asm": "OP_0 OP_PUSHBYTES_20 4f3d2fec6084c075288a24ed77fb5b1ca12ccdbe",
      "scriptpubkey_type": "v0_p2wpkh",
      "scriptpubkey_address": "bc1qfu7jlmrqsnq822y2ynkh076mrjsjend75xzpw8",
      "value": 68498533
    },
    {
      "scriptpubkey": "0014ccd1f1f2c375094c6df16d5912e36823a72c5997",
      "scriptpubkey_asm": "OP_0 OP_PUSHBYTES_20 ccd1f1f2c375094c6df16d5912e36823a72c5997",
      "scriptpubkey_type": "v0_p2wpkh",
      "scriptpubkey_address": "bc1qenglrukrw5y5cm03d4v39cmgywnjckvhchrcgv",
      "value": 302600
    }
  ],
  "size": 222,
  "weight": 561,
  "fee": 1988,
  "status": {
    "confirmed": true,
    "block_height": 834460,
    "block_hash": "00000000000000000000484a79b643b2524bbce82e5d8a442013fa5b8905ed98",
    "block_time": 1710307468
  },
  "hex": "02000000000101635e098e41b0582ed256086abddb6cccc92ec3d3d6a88e07b7aa875c73c44ce30000000000fdffffff0265341504000000001600144f3d2fec6084c075288a24ed77fb5b1ca12ccdbe089e040000000000160014ccd1f1f2c375094c6df16d5912e36823a72c599702473044022055192ce8d9f6f4cc346c5226efb783d11d69e6a44092800f596134ffd239300202204b343a30ddb331c0f6a743b2921ec59d5114c7b19318603c557f977f17cedf80012102452215213b1c1057bb866e7697e88952e442216d86c85b1cadfdb6132e3d389b9abb0c00"
}