{
  "txid": "15943c30e7902bd647c93f843955c237be94029823eacbaa636e9117a182a771",
  "version": 2,
  "locktime": 0,
  "vin": [
    {
      "txid": "acc3ba00869acb582a3f2904ce3a11dd3779350ce234063fc7d0959246213364",
      "vout": 28,
      "prevout": {
        "scriptpubkey": "5120f1e1a45c263b4180b58a74f94f96ecdae35eaa5fb133945deb52e4f07ab16252",
        "scriptpubkey_asm": "OP_PUSHNUM_1 OP_PUSHBYTES_32 f1e1a45c263b4180b58a74f94f96ecdae35eaa5fb133945deb52e4f07ab16252",
        "scriptpubkey_type": "v1_p2tr",
        "scriptpubkey_address": "bc1p78s6ghpx8dqcpdv2wnu5l9hvmt34a2jlkyeegh0t2tj0q743vffqrqeff8",
        "value": 1806
      },
      "scriptsig": "",
      "scriptsig_asm": "",
      "witness": [
        "7ae738ea1d38f4c03bba384df67e667d6686eb1d7286d01ed13563f8efb7ec99caaade5acdd0ecf01aea4da5c907baf55d4e60d29a16fa602db902fc2bd4ecf9",
        "205a258082eceb8f51ce6266f88d21cc74e5675ee488f75dcc30a63533d06f8214ac0063036f726401010a746578742f706c61696e00357b2270223a226272632d3230222c226f70223a226d696e74222c227469636b223a22646f6765222c22616d74223a2234323030227d68",
        "c15a258082eceb8f51ce6266f88d21cc74e5675ee488f75dcc30a63533d06f8214"
      ],
      "is_coinbase": false,
      "sequence": 4261412863
    }
  ],
  "vout": [
    {
      "scriptpubkey": "00147a665de7a370f4c9b372ab1fae587500a5bcbdb4",
      "scriptpubkey_asm": "OP_0 OP_PUSHBYTES_20 7a665de7a370f4c9b372ab1fae587500a5bcbdb4",
      "scriptpubkey_type": "v0_p2wpkh",
      "scriptpubkey_address": "bc1q0fn9mearwr6vnvmj4v06ukr4qzjme0d565dzcx",
      "value": 294
    }
  ],
  "size": 294,
  "weight": 540,
  "fee": 1512,
  "status": {
    "confirmed": true,
    "block_height": 834460,
    "block_hash": "00000000000000000000484a79b643b2524bbce82e5d8a442013fa5b8905ed98",
    "block_time": 1710307468
  },
  "hex": "02000000000101643321469295d0c73f0634e20c357937dd113ace04293f2a58cb9a8600bac3ac1c00000000fffffffd0126010000000000001600147a665de7a370f4c9b372ab1fae587500a5bcbdb403407ae738ea1d38f4c03bba384df67e667d6686eb1d7286d01ed13563f8efb7ec99caaade5acdd0ecf01aea4da5c907baf55d4e60d29a16fa602db902fc2bd4ecf96d205a258082eceb8f51ce6266f88d21cc74e5675ee488f75dcc30a63533d06f8214ac0063036f726401010a746578742f706c61696e00357b2270223a226272632d3230222c226f70223a226d696e74222c227469636b223a22646f6765222c22616d74223a2234323030227d6821c15a258082eceb8f51ce6266f88d21cc74e5675ee488f75dcc30a63533d06f821400000000"
}