{
  "txid": "15955d365a90bb37480b64b5229f97d71d6a6a040e782ac55f05f7e5ad280ad7",
  "version": 2,
  "locktime": 0,
  "vin": [
    {
      "txid": "da64dbc30a642469a4705657c5239b9d3e78040f0881014b7866ed8478ede5e2",
      "vout": 0,
      "prevout": {
        "scriptpubkey": "0014d6f033a298740d35a6d8d72198777e3dfc19aeba",
        "scriptpubkey_asm": "OP_0 OP_PUSHBYTES_20 d6f033a298740d35a6d8d72198777e3dfc19aeba",
        "scriptpubkey_type": "v0_p2wpkh",
        "scriptpubkey_address": "bc1q6mcr8g5cwsxntfkc6usesam78h7pnt46ralpqq",
        "value": 5226672
      },
      "scriptsig": "",
      "scriptsig_asm": "",
      "witness": [
        "3045022100b0ed820d7dea369d68b09728775862d5a18bee5ad217e3082eaef6fce072980602201e1765fb2759af346f8be1721fc5b23f45eaf86832d3e4ea77e43b569955591501",
        "02c026903fca4a278fd86f83a739cad56b471c2987b75ae4f19074554de2922fc7"
      ],
      "is_coinbase": false,
      "sequence": 4294967295
    }
  ],
  "vout": [
    {
      "scriptpubkey": "00143a137fd6c7ea5d36ede1aad320e48a7aa315de10",
      "scriptpubkey_asm": "OP_0 OP_PUSHBYTES_20 3a137fd6c7ea5d36ede1aad320e48a7aa315de10",
      "scriptpubkey_type": "v0_p2wpkh",
      "scriptpubkey_address": "bc1q8gfhl4k8afwndm0p4tfjpey20233thsst9q4vu",
      "value": 632037
    },
    {
      "scriptpubkey": "0014d6f033a298740d35a6d8d72198777e3dfc19aeba",
      "scriptpubkey_asm": "OP_0 OP_PUSHBYTES_20 d6f033a298740d35a6d8d72198777e3dfc19aeba",
      "scriptpubkey_type": "v0_p2wpkh",
      "scriptpubkey_address": "bc1q6mcr8g5cwsxntfkc6usesam78h7pnt46ralpqq",
      "value": 4592546
    }
  ],
  "size": 223,
  "weight": 562,
  "fee": 2089,
  "status": {
    "confirmed": true,
    "block_height": 834460,
    "block_hash": "00000000000000000000484a79b643b2524bbce82e5d8a442013fa5b8905ed98",
    "block_time": 1710307468
  },
  "hex": "02000000000101e2e5ed7884ed66784b0181080f04783e9d9b23c5575670a46924640ac3db64da0000000000ffffffff02e5a40900000000001600143a137fd6c7ea5d36ede1aad320e48a7aa315de10a213460000000000160014d6f033a298740d35a6d8d72198777e3dfc19aeba02483045022100b0ed820d7dea369d68b09728775862d5a18bee5ad217e3082eaef6fce072980602201e1765fb2759af346f8be1721fc5b23f45eaf86832d3e4ea77e43b5699555915012102c026903fca4a278fd86f83a739cad56b471c2987b75ae4f19074554de2922fc700000000"
}