{
  "txid": "159f308bedeaa90a53c901834aab7627c3d97dece38cdc859e3996dab81aa554",
  "version": 2,
  "locktime": 0,
  "vin": [
    {
      "txid": "69d6664b0aa187fc33705444ac4824a5d4dd953bb38cc767d4b53b4f600bac60",
      "vout": 1,
      "prevout": {
        "scriptpubkey": "5120c8ef2b6bf8b5c941a59a042c68788bdfe655af342c8b999c1d0ddfecda04651f",
        "scriptpubkey_asm": "OP_PUSHNUM_1 OP_PUSHBYTES_32 c8ef2b6bf8b5c941a59a042c68788bdfe655af342c8b999c1d0ddfecda04651f",
        "scriptpubkey_type": "v1_p2tr",
        "scriptpubkey_address": "bc1perhjk6lckhy5rfv6qskxs7ytmln9tte59j9en8qaph07eksyv50sp6v644",
        "value": 546
      },
      "scriptsig": "",
      "scriptsig_asm": "",
      "witness": [
        "71165bcb25049478c276f493e5a3028f1c7cc2b18f6ca63e2e778750a168923fde7a53bea15b030b1a0664c750b8d364fd43b1171fc58767820041d99c4aa96d01"
      ],
      "is_coinbase": false,
      "sequence": 4294967295
    },
    {
      "txid": "f346755e597d5ccf9db3e38dd2ace496f58a44bf7af742bf3b204187de448373",
      "vout": 3,
      "prevout": {
        "scriptpubkey": "a9146e676bdb63bf263ecd3271489fd35ac2efdffc8687",
        "scriptpubkey_asm": "OP_HASH160 OP_PUSHBYTES_20 6e676bdb63bf263ecd3271489fd35ac2efdffc86 OP_EQUAL",
        "scriptpubkey_type": "p2sh",
        "scriptpubkey_address": "3Bkn9V2tiBpbYMH6v8CBi7iegeaQq8cd4d",
        "value": 921089
      },
      "scriptsig": "160014130c8a677b61619dcefdca5ac7ad928a089ad08e",
      "scriptsig_asm": "OP_PUSHBYTES_22 0014130c8a677b61619dcefdca5ac7ad928a089ad08e",
      "witness": [
        "304402207f4778e2e65c061872de0dee200a81724693b203616361b622ea496b6192a6fe022011caf6e92c0742f3b26864dbb968fada826b7714a64708c273815d0789508b0a01",
        "03558252c32d2e6bae7d8c9c083c8f0d65ffaefe1c33f8c3c0f40831ea4ce09273"
      ],
      "is_coinbase": false,
      "sequence": 4294967295,
      "inner_redeemscript_asm": "OP_0 OP_PUSHBYTES_20 130c8a677b61619dcefdca5ac7ad928a089ad08e"
    }
  ],
  "vout": [
    {
      "scriptpubkey": "5120c33fd30719c99b544a5adbd433317f909a34a735cab3bbad1e0fffb684276f1c",
      "scriptpubkey_asm": "OP_PUSHNUM_1 OP_PUSHBYTES_32 c33fd30719c99b544a5adbd433317f909a34a735cab3bbad1e0fffb684276f1c",
      "scriptpubkey_type": "v1_p2tr",
      "scriptpubkey_address": "bc1pcvlaxpceexd4gjj6m02rxvtljzdrffe4e2emhtg7pllmdpp8duwqy5tg6t",
      "value": 546
    },
    {
      "scriptpubkey": "a9147c50a49f527653800d698ded4c752381a40d199087",
      "scriptpubkey_asm": "OP_HASH160 OP_PUSHBYTES_20 7c50a49f527653800d698ded4c752381a40d1990 OP_EQUAL",
      "scriptpubkey_type": "p2sh",
      "scriptpubkey_address": "3D2LKWSpRji4hx4Sk4K83CCPStzDuLDhgg",
      "value": 547
    },
    {
      "scriptpubkey": "a914ea6b832a05c6ca578baa3836f3f25553d41068a587",
      "scriptpubkey_asm": "OP_HASH160 OP_PUSHBYTES_20 ea6b832a05c6ca578baa3836f3f25553d41068a5 OP_EQUAL",
      "scriptpubkey_type": "p2sh",
      "scriptpubkey_address": "3P4WqXDbSLRhzo2H6MT6YFbvBKBDPLbVtQ",
      "value": 579
    },
    {
      "scriptpubkey": "a9146e676bdb63bf263ecd3271489fd35ac2efdffc8687",
      "scriptpubkey_asm": "OP_HASH160 OP_PUSHBYTES_20 6e676bdb63bf263ecd3271489fd35ac2efdffc86 OP_EQUAL",
      "scriptpubkey_type": "p2sh",
      "scriptpubkey_address": "3Bkn9V2tiBpbYMH6v8CBi7iegeaQq8cd4d",
      "value": 915478
    }
  ],
  "size": 430,
  "weight": 1192,
  "fee": 4485,
  "status": {
    "confirmed": true,
    "block_height": 834638,
    "block_hash": "000000000000000000025f742c626208ac87e0b7d15054abb4a19ca2d735a54e",
    "block_time": 1710405325
  },
  "hex": "0200000000010260ac0b604f3bb5d467c78cb33b95ddd4a52448ac44547033fc87a10a4b66d6690100000000ffffffff738344de8741203bbf42f77abf448af596e4acd28de3b39dcf5c7d595e7546f30300000017160014130c8a677b61619dcefdca5ac7ad928a089ad08effffffff042202000000000000225120c33fd30719c99b544a5adbd433317f909a34a735cab3bbad1e0fffb684276f1c230200000000000017a9147c50a49f527653800d698ded4c752381a40d199087430200000000000017a914ea6b832a05c6ca578baa3836f3f25553d41068a58716f80d000000000017a9146e676bdb63bf263ecd3271489fd35ac2efdffc8687014171165bcb25049478c276f493e5a3028f1c7cc2b18f6ca63e2e778750a168923fde7a53bea15b030b1a0664c750b8d364fd43b1171fc58767820041d99c4aa96d010247304402207f4778e2e65c061872de0dee200a81724693b203616361b622ea496b6192a6fe022011caf6e92c0742f3b26864dbb968fada826b7714a64708c273815d0789508b0a012103558252c32d2e6bae7d8c9c083c8f0d65ffaefe1c33f8c3c0f40831ea4ce0927300000000"
}