{
  "txid": "15a5e73f8199fc632c395093f4755f0205f1d062c42cd4c555bf685196a41e75",
  "version": 2,
  "locktime": 0,
  "vin": [
    {
      "txid": "a8c4511e141d8846cec58bdbaba364d872fbe1a96b59e7026081523deac57bb9",
      "vout": 1,
      "prevout": {
        "scriptpubkey": "0014192e80ed2c7c412bdc2a6c8f371d15cb90f3c85b",
        "scriptpubkey_asm": "OP_0 OP_PUSHBYTES_20 192e80ed2c7c412bdc2a6c8f371d15cb90f3c85b",
        "scriptpubkey_type": "v0_p2wpkh",
        "scriptpubkey_address": "bc1qryhgpmfv03qjhhp2dj8nw8g4ewg08jzmgy3cyx",
        "value": 1403521749
      },
      "scriptsig": "",
      "scriptsig_asm": "",
      "witness": [
        "304402200e4f5c5bffe9a81b03a7ba3a1f6ff3802cade19a9703d87867513dba1bea9c2c02204ec24c97399829c911e00c42a546590f347a79631c5ef1eab4f6505c41e3230c01",
        "03b01bd095f648ea829f000207087f16622431077bb5cc0875225ada601375c885"
      ],
      "is_coinbase": false,
      "sequence": 4294967293
    }
  ],
  "vout": [
    {
      "scriptpubkey": "0014192e80ed2c7c412bdc2a6c8f371d15cb90f3c85b",
      "scriptpubkey_asm": "OP_0 OP_PUSHBYTES_20 192e80ed2c7c412bdc2a6c8f371d15cb90f3c85b",
      "scriptpubkey_type": "v0_p2wpkh",
      "scriptpubkey_address": "bc1qryhgpmfv03qjhhp2dj8nw8g4ewg08jzmgy3cyx",
      "value": 1390134066
    },
    {
      "scriptpubkey": "a914ef6b24aeaeaad06e47b21f023787bed1871d74ee87",
      "scriptpubkey_asm": "OP_HASH160 OP_PUSHBYTES_20 ef6b24aeaeaad06e47b21f023787bed1871d74ee OP_EQUAL",
      "scriptpubkey_type": "p2sh",
      "scriptpubkey_address": "3PWwmqXnTN2PJuReuwGMtxyPLeSco8zvMm",
      "value": 13381151
    }
  ],
  "size": 223,
  "weight": 565,
  "fee": 6532,
  "status": {
    "confirmed": true,
    "block_height": 834638,
    "block_hash": "000000000000000000025f742c626208ac87e0b7d15054abb4a19ca2d735a54e",
    "block_time": 1710405325
  },
  "hex": "02000000000101b97bc5ea3d52816002e7596ba9e1fb72d864a3abdb8bc5ce46881d141e51c4a80100000000fdffffff0232c3db5200000000160014192e80ed2c7c412bdc2a6c8f371d15cb90f3c85b1f2ecc000000000017a914ef6b24aeaeaad06e47b21f023787bed1871d74ee870247304402200e4f5c5bffe9a81b03a7ba3a1f6ff3802cade19a9703d87867513dba1bea9c2c02204ec24c97399829c911e00c42a546590f347a79631c5ef1eab4f6505c41e3230c012103b01bd095f648ea829f000207087f16622431077bb5cc0875225ada601375c88500000000"
}