{
  "txid": "15ac79322fa796009cd5f393d5bab90805854d9fb3276c67fcc9449dd454a277",
  "version": 2,
  "locktime": 0,
  "vin": [
    {
      "txid": "e054c137725b7a5d163dade8f5cd68c0927a2e8b00d920927dab9a7ba934ce5f",
      "vout": 4,
      "prevout": {
        "scriptpubkey": "51200a5bd652d9c8a78e4e261cd1b162dde724a0510f824f33bf1692510d39aa82df",
        "scriptpubkey_asm": "OP_PUSHNUM_1 OP_PUSHBYTES_32 0a5bd652d9c8a78e4e261cd1b162dde724a0510f824f33bf1692510d39aa82df",
        "scriptpubkey_type": "v1_p2tr",
        "scriptpubkey_address": "bc1ppfdav5keezncun3xrngmzckauuj2q5g0sf8n80ckjfgs6wd2st0sl2ru6f",
        "value": 2658
      },
      "scriptsig": "",
      "scriptsig_asm": "",
      "witness": [
        "68c1e683922ef6fcd9515d7596f8ec7411f8b45557b18546fcefe0b50d5c333d52737cb85a78d884e6e5a20e88aced7443d4ba19719f702e696a02f715b78f32",
        "208b88827511c19dc98efc7b20fc9a1059962edfc308a6d9efacc298f881868076ac0063036f726401011e6170706c69636174696f6e2f6a736f6e3b636861727365743d7574662d38004cbf7b2270223a22706f772d3230222c226f70223a226d696e74222c227469636b223a2250455045222c22616d74223a2231303030222c22736f6c7574696f6e223a22504550453a6263317139736a36303977756e7468646a636d7a746a796379766475616e653071716b78726e773932653a303030303030303030303030303030303030303139393431613561653132383937363539383134343239323533333030353762306461393666336465613163353a3531393836323435383636227d68",
        "c0a0e509a599b6542378e5ac7959d344a1bebc95ec9899fd4ccf1904beefe3f047"
      ],
      "is_coinbase": false,
      "sequence": 4294967295
    }
  ],
  "vout": [
    {
      "scriptpubkey": "00142c25a795dc9aeed963625c898231bcecf2f002c6",
      "scriptpubkey_asm": "OP_0 OP_PUSHBYTES_20 2c25a795dc9aeed963625c898231bcecf2f002c6",
      "scriptpubkey_type": "v0_p2wpkh",
      "scriptpubkey_address": "bc1q9sj609wunthdjcmztjycyvduane0qqkxrnw92e",
      "value": 546
    }
  ],
  "size": 455,
  "weight": 701,
  "fee": 2112,
  "status": {
    "confirmed": true,
    "block_height": 834460,
    "block_hash": "00000000000000000000484a79b643b2524bbce82e5d8a442013fa5b8905ed98",
    "block_time": 1710307468
  },
  "hex": "020000000001015fce34a97b9aab7d9220d9008b2e7a92c068cdf5e8ad3d165d7a5b7237c154e00400000000ffffffff0122020000000000001600142c25a795dc9aeed963625c898231bcecf2f002c6034068c1e683922ef6fcd9515d7596f8ec7411f8b45557b18546fcefe0b50d5c333d52737cb85a78d884e6e5a20e88aced7443d4ba19719f702e696a02f715b78f32fd0c01208b88827511c19dc98efc7b20fc9a1059962edfc308a6d9efacc298f881868076ac0063036f726401011e6170706c69636174696f6e2f6a736f6e3b636861727365743d7574662d38004cbf7b2270223a22706f772d3230222c226f70223a226d696e74222c227469636b223a2250455045222c22616d74223a2231303030222c22736f6c7574696f6e223a22504550453a6263317139736a36303977756e7468646a636d7a746a796379766475616e653071716b78726e773932653a303030303030303030303030303030303030303139393431613561653132383937363539383134343239323533333030353762306461393666336465613163353a3531393836323435383636227d6821c0a0e509a599b6542378e5ac7959d344a1bebc95ec9899fd4ccf1904beefe3f04700000000"
}