{
  "txid": "15bd9c8055cae840f08ce601d2d3b460ee7af95cd52b1f4f671020fd3192edd8",
  "version": 2,
  "locktime": 0,
  "vin": [
    {
      "txid": "8b3a54d74341542b766e309f42da0035f5e62fc29f4ccc8e089732b34cfc959d",
      "vout": 1,
      "prevout": {
        "scriptpubkey": "512003a16efc254f265a6dc5de988f22319449f8f2a6fdd6f9572eacb31686c13492",
        "scriptpubkey_asm": "OP_PUSHNUM_1 OP_PUSHBYTES_32 03a16efc254f265a6dc5de988f22319449f8f2a6fdd6f9572eacb31686c13492",
        "scriptpubkey_type": "v1_p2tr",
        "scriptpubkey_address": "bc1pqwskalp9fun95mw9m6vg7g33j3yl3u4xlht0j4ew4je3dpkpxjfq6ysy0u",
        "value": 110962
      },
      "scriptsig": "",
      "scriptsig_asm": "",
      "witness": [
        "4f7d16f6124f66d39673f36d68736c66452d931b86999debf555be367e8f0f351e439623c0d2679dc13921d7ae299f95d4ca2df83543ff34f03ac7e524f98798"
      ],
      "is_coinbase": false,
      "sequence": 4294967295
    }
  ],
  "vout": [
    {
      "scriptpubkey": "51205781b9dc8753315191924d7d8e74a7d96ae1726fdab609000f72fa644021837d",
      "scriptpubkey_asm": "OP_PUSHNUM_1 OP_PUSHBYTES_32 5781b9dc8753315191924d7d8e74a7d96ae1726fdab609000f72fa644021837d",
      "scriptpubkey_type": "v1_p2tr",
      "scriptpubkey_address": "bc1p27qmnhy82vc4ryvjf47cua98m94wzun0m2mqjqq0wtaxgsppsd7s0rst4c",
      "value": 30427
    },
    {
      "scriptpubkey": "512003a16efc254f265a6dc5de988f22319449f8f2a6fdd6f9572eacb31686c13492",
      "scriptpubkey_asm": "OP_PUSHNUM_1 OP_PUSHBYTES_32 03a16efc254f265a6dc5de988f22319449f8f2a6fdd6f9572eacb31686c13492",
      "scriptpubkey_type": "v1_p2tr",
      "scriptpubkey_address": "bc1pqwskalp9fun95mw9m6vg7g33j3yl3u4xlht0j4ew4je3dpkpxjfq6ysy0u",
      "value": 78225
    }
  ],
  "size": 205,
  "weight": 616,
  "fee": 2310,
  "status": {
    "confirmed": true,
    "block_height": 834460,
    "block_hash": "00000000000000000000484a79b643b2524bbce82e5d8a442013fa5b8905ed98",
    "block_time": 1710307468
  },
  "hex": "020000000001019d95fc4cb33297088ecc4c9fc22fe6f53500da429f306e762b544143d7543a8b0100000000ffffffff02db760000000000002251205781b9dc8753315191924d7d8e74a7d96ae1726fdab609000f72fa644021837d913101000000000022512003a16efc254f265a6dc5de988f22319449f8f2a6fdd6f9572eacb31686c1349201404f7d16f6124f66d39673f36d68736c66452d931b86999debf555be367e8f0f351e439623c0d2679dc13921d7ae299f95d4ca2df83543ff34f03ac7e524f9879800000000"
}