{
  "txid": "15d49af2d10c487c9d517f68b5bdb0ead1d692c1839e7292c47d9c6d61893dcf",
  "version": 1,
  "locktime": 0,
  "vin": [
    {
      "txid": "e22b0b6b09b53e1180a3a65cfc910ac05bea47370337ffb40547e191be4b7eae",
      "vout": 0,
      "prevout": {
        "scriptpubkey": "00205c3f8f99d69bdab528eff573c3b5ce559a411fb098a7f53a1dd25f89ba07c579",
        "scriptpubkey_asm": "OP_0 OP_PUSHBYTES_32 5c3f8f99d69bdab528eff573c3b5ce559a411fb098a7f53a1dd25f89ba07c579",
        "scriptpubkey_type": "v0_p2wsh",
        "scriptpubkey_address": "bc1qtslclxwkn0dt228074eu8dww2kdyz8asnznl2wsa6f0cnws8c4uskp9eu0",
        "value": 7283
      },
      "scriptsig": "",
      "scriptsig_asm": "",
      "witness": [
        "533dfb938a665e15f388adb655815513661350f8adcd9d7a3e9efb5b7492ec1a",
        "30440220616da33d403f9a732969408c3eb132391fae0f06fa987e2071af5d1c3e8bea6102204b37bd7f12a80927122ae60a760e4f469634d710cb66aee5afc61a7d9fbef71801",
        "3045022100a802b6903cfd2c49a8b2e9ed0a364ad89e0293efd5013a7a8a4562b7c1259cdd02206583e85eeab35c6a3b3c2af4afd6a05a1e6481ce8ce7b5a886138947a87e069601",
        "2103feba871c262bc4b87d292f3d044dec6a7f166ef858c9d37275db104134128940ac6476a914f721b22b85d456393b8a54ede063d3100a7ba3ab88ad03dbbb0cb16721039df063484daa2b98b7593c56db64320ff5d65e84ffbccf9929481c3359b656d9ad82012088a91483f340eae646f24cb0b6609c2f3a6c997b0de4ab8768"
      ],
      "is_coinbase": false,
      "sequence": 4294967295,
      "inner_witnessscript_asm": "OP_PUSHBYTES_33 03feba871c262bc4b87d292f3d044dec6a7f166ef858c9d37275db104134128940 OP_CHECKSIG OP_NOTIF OP_DUP OP_HASH160 OP_PUSHBYTES_20 f721b22b85d456393b8a54ede063d3100a7ba3ab OP_EQUALVERIFY OP_CHECKSIGVERIFY OP_PUSHBYTES_3 dbbb0c OP_CLTV OP_ELSE OP_PUSHBYTES_33 039df063484daa2b98b7593c56db64320ff5d65e84ffbccf9929481c3359b656d9 OP_CHECKSIGVERIFY OP_SIZE OP_PUSHBYTES_1 20 OP_EQUALVERIFY OP_HASH160 OP_PUSHBYTES_20 83f340eae646f24cb0b6609c2f3a6c997b0de4ab OP_EQUAL OP_ENDIF"
    }
  ],
  "vout": [
    {
      "scriptpubkey": "51203144a211e8d2cd2f6d62a13b33876f29adb2f864dde6737135a0562dae21de79",
      "scriptpubkey_asm": "OP_PUSHNUM_1 OP_PUSHBYTES_32 3144a211e8d2cd2f6d62a13b33876f29adb2f864dde6737135a0562dae21de79",
      "scriptpubkey_type": "v1_p2tr",
      "scriptpubkey_address": "bc1px9z2yy0g6txj7mtz5yan8pm09xkm97rymhn8xuf45ptzmt3pmeus3g992n",
      "value": 5000
    }
  ],
  "size": 406,
  "weight": 688,
  "fee": 2283,
  "status": {
    "confirmed": true,
    "block_height": 834460,
    "block_hash": "00000000000000000000484a79b643b2524bbce82e5d8a442013fa5b8905ed98",
    "block_time": 1710307468
  },
  "hex": "01000000000101ae7e4bbe91e14705b4ff37033747ea5bc00a91fc5ca6a380113eb5096b0b2be20000000000ffffffff0188130000000000002251203144a211e8d2cd2f6d62a13b33876f29adb2f864dde6737135a0562dae21de790420533dfb938a665e15f388adb655815513661350f8adcd9d7a3e9efb5b7492ec1a4730440220616da33d403f9a732969408c3eb132391fae0f06fa987e2071af5d1c3e8bea6102204b37bd7f12a80927122ae60a760e4f469634d710cb66aee5afc61a7d9fbef71801483045022100a802b6903cfd2c49a8b2e9ed0a364ad89e0293efd5013a7a8a4562b7c1259cdd02206583e85eeab35c6a3b3c2af4afd6a05a1e6481ce8ce7b5a886138947a87e069601822103feba871c262bc4b87d292f3d044dec6a7f166ef858c9d37275db104134128940ac6476a914f721b22b85d456393b8a54ede063d3100a7ba3ab88ad03dbbb0cb16721039df063484daa2b98b7593c56db64320ff5d65e84ffbccf9929481c3359b656d9ad82012088a91483f340eae646f24cb0b6609c2f3a6c997b0de4ab876800000000"
}