{
  "txid": "15f212bc09cf72c5b3c8e882230e9ab9e139045f0a4c828ac97d669c7dae7940",
  "version": 2,
  "locktime": 0,
  "vin": [
    {
      "txid": "b78718b091a70e58f18c1c4c35c908476fa45add403dbdf934e171eb098af68d",
      "vout": 2,
      "prevout": {
        "scriptpubkey": "76a91433441e3a517f6e2cd637077d440d96375767eedb88ac",
        "scriptpubkey_asm": "OP_DUP OP_HASH160 OP_PUSHBYTES_20 33441e3a517f6e2cd637077d440d96375767eedb OP_EQUALVERIFY OP_CHECKSIG",
        "scriptpubkey_type": "p2pkh",
        "scriptpubkey_address": "15g54iCazPHeQGFnmukwttuQrmQvmir218",
        "value": 122252566
      },
      "scriptsig": "473044022049125cc1f790b92734ab9cc0ae57e7eb7c53d595c6f5e5cc97aac7fecba7f24f02201d3cd5860c300487d9a7e4f240340189ca8b143a3a6e50eb87358716a9c8c78301210354c9f8160d1ddd9e037fc5bd75e5c482a2e5e8bb9a63c9463cdb2ba464c68be2",
      "scriptsig_asm": "OP_PUSHBYTES_71 3044022049125cc1f790b92734ab9cc0ae57e7eb7c53d595c6f5e5cc97aac7fecba7f24f02201d3cd5860c300487d9a7e4f240340189ca8b143a3a6e50eb87358716a9c8c78301 OP_PUSHBYTES_33 0354c9f8160d1ddd9e037fc5bd75e5c482a2e5e8bb9a63c9463cdb2ba464c68be2",
      "is_coinbase": false,
      "sequence": 4294967295
    }
  ],
  "vout": [
    {
      "scriptpubkey": "00143c2d710c35ceed6a4f5076607dbe727c89dfd2d6",
      "scriptpubkey_asm": "OP_0 OP_PUSHBYTES_20 3c2d710c35ceed6a4f5076607dbe727c89dfd2d6",
      "scriptpubkey_type": "v0_p2wpkh",
      "scriptpubkey_address": "bc1q8skhzrp4emkk5n6swes8m0nj0jyal5kkypydsy",
      "value": 13675129
    },
    {
      "scriptpubkey": "76a9149a694871fb352b1f41afaba8991b30decde9783788ac",
      "scriptpubkey_asm": "OP_DUP OP_HASH160 OP_PUSHBYTES_20 9a694871fb352b1f41afaba8991b30decde97837 OP_EQUALVERIFY OP_CHECKSIG",
      "scriptpubkey_type": "p2pkh",
      "scriptpubkey_address": "1F5TBjUBmVKhWZy4H8p93PCNkvqwnsDPxV",
      "value": 108569247
    }
  ],
  "size": 222,
  "weight": 888,
  "fee": 8190,
  "status": {
    "confirmed": true,
    "block_height": 834552,
    "block_hash": "00000000000000000001dd0468a70c94f619251d286585cff57aeb4bd9ede330",
    "block_time": 1710355598
  },
  "hex": "02000000018df68a09eb71e134f9bd3d40dd5aa46f4708c9354c1c8cf1580ea791b01887b7020000006a473044022049125cc1f790b92734ab9cc0ae57e7eb7c53d595c6f5e5cc97aac7fecba7f24f02201d3cd5860c300487d9a7e4f240340189ca8b143a3a6e50eb87358716a9c8c78301210354c9f8160d1ddd9e037fc5bd75e5c482a2e5e8bb9a63c9463cdb2ba464c68be2ffffffff0279aad000000000001600143c2d710c35ceed6a4f5076607dbe727c89dfd2d69fa27806000000001976a9149a694871fb352b1f41afaba8991b30decde9783788ac00000000"
}