{
  "txid": "15fe5fb8fe24ca483dfaa3cc86a477c14fb43f6dfdb8a2f562f2d467038d88e0",
  "version": 2,
  "locktime": 0,
  "vin": [
    {
      "txid": "83b1303fd891f1954cd87c1d288a2a6bca51045bdda40133839448bcf0a9a8be",
      "vout": 15,
      "prevout": {
        "scriptpubkey": "5120e9c1e441ae8b8d21fda1669a41836248c1e89587a6b0c1703926713664e19b42",
        "scriptpubkey_asm": "OP_PUSHNUM_1 OP_PUSHBYTES_32 e9c1e441ae8b8d21fda1669a41836248c1e89587a6b0c1703926713664e19b42",
        "scriptpubkey_type": "v1_p2tr",
        "scriptpubkey_address": "bc1pa8q7gsdw3wxjrldpv6dyrqmzfrq739v856cvzupeyecnve8pndpqrjrqvs",
        "value": 2850
      },
      "scriptsig": "",
      "scriptsig_asm": "",
      "witness": [
        "ede4d1f425d7b3092a962b757e35dad7fde30503945e322d82a358d0c840ad147e8af51f20b24ce93cf8aae616d659b0ace10423924756ed94c2e30ceef2e4d7",
        "2005e076412b34210121319e1a45f804a71616619b7b30709b118fffdd36d77248ac0063036f726401011e6170706c69636174696f6e2f6a736f6e3b636861727365743d7574662d38004cd27b2270223a22706f772d3230222c226f70223a226d696e74222c227469636b223a2250455045222c22616d74223a2231303030222c22736f6c7574696f6e223a22504550453a62633170687834336d6b6632633236366e63707a6c7a7067307636616b6a73713470386379736379327a706d746e38326e367a616c7667713972663737363a303030303030303030303030303030303030303139393431613561653132383937363539383134343239323533333030353762306461393666336465613163353a32333439333331313237227d68",
        "c043aa8de0991fd4b61b82f8195f6c835bc5de941a82824922fffa09f24edd0022"
      ],
      "is_coinbase": false,
      "sequence": 4294967295
    }
  ],
  "vout": [
    {
      "scriptpubkey": "5120b9ab1dd92ac2b5a9e022f88287b35db4a00a84f8243045083b5ccea9e85dfb10",
      "scriptpubkey_asm": "OP_PUSHNUM_1 OP_PUSHBYTES_32 b9ab1dd92ac2b5a9e022f88287b35db4a00a84f8243045083b5ccea9e85dfb10",
      "scriptpubkey_type": "v1_p2tr",
      "scriptpubkey_address": "bc1phx43mkf2c266ncpzlzpg0v6akjsq4p8cyscy2zpmtn82n6zalvgq9rf776",
      "value": 546
    }
  ],
  "size": 486,
  "weight": 768,
  "fee": 2304,
  "status": {
    "confirmed": true,
    "block_height": 834460,
    "block_hash": "00000000000000000000484a79b643b2524bbce82e5d8a442013fa5b8905ed98",
    "block_time": 1710307468
  },
  "hex": "02000000000101bea8a9f0bc4894833301a4dd5b0451ca6b2a8a281d7cd84c95f191d83f30b1830f00000000ffffffff012202000000000000225120b9ab1dd92ac2b5a9e022f88287b35db4a00a84f8243045083b5ccea9e85dfb100340ede4d1f425d7b3092a962b757e35dad7fde30503945e322d82a358d0c840ad147e8af51f20b24ce93cf8aae616d659b0ace10423924756ed94c2e30ceef2e4d7fd1f012005e076412b34210121319e1a45f804a71616619b7b30709b118fffdd36d77248ac0063036f726401011e6170706c69636174696f6e2f6a736f6e3b636861727365743d7574662d38004cd27b2270223a22706f772d3230222c226f70223a226d696e74222c227469636b223a2250455045222c22616d74223a2231303030222c22736f6c7574696f6e223a22504550453a62633170687834336d6b6632633236366e63707a6c7a7067307636616b6a73713470386379736379327a706d746e38326e367a616c7667713972663737363a303030303030303030303030303030303030303139393431613561653132383937363539383134343239323533333030353762306461393666336465613163353a32333439333331313237227d6821c043aa8de0991fd4b61b82f8195f6c835bc5de941a82824922fffa09f24edd002200000000"
}