{
  "txid": "160654beecb414cb57df8fe5bcbc99bab9a8d0a63c9924de7e9d9864bd03d765",
  "version": 2,
  "locktime": 0,
  "vin": [
    {
      "txid": "eefaafc73931c55ddd8341b66969af4eaae2a55df9d470c7320834bf8e2814e6",
      "vout": 4,
      "prevout": {
        "scriptpubkey": "a914bff1171dc385db6eec5cdc37c93f308052315a4d87",
        "scriptpubkey_asm": "OP_HASH160 OP_PUSHBYTES_20 bff1171dc385db6eec5cdc37c93f308052315a4d OP_EQUAL",
        "scriptpubkey_type": "p2sh",
        "scriptpubkey_address": "3KBuoRwuckfDY9113UKYKaZDEDbxhtpjjS",
        "value": 1846980000
      },
      "scriptsig": "1600140ae53e37f211081d219a97e34ee502cfb11f9999",
      "scriptsig_asm": "OP_PUSHBYTES_22 00140ae53e37f211081d219a97e34ee502cfb11f9999",
      "witness": [
        "3044022014a66eacbed5e5dfbf4cfd81374fbd78bf70110f1af5bb8433bb200f948101f5022066f72dafe464aff11c14c40794e05024a170317484590a2c541970314f6f49e001",
        "02e2fe1717c7c3b1d54c29aaa77ccd8270182aa21e8f81aa8a39a2611cc3f1179f"
      ],
      "is_coinbase": false,
      "sequence": 4294967293,
      "inner_redeemscript_asm": "OP_0 OP_PUSHBYTES_20 0ae53e37f211081d219a97e34ee502cfb11f9999"
    }
  ],
  "vout": [
    {
      "scriptpubkey": "0014a8cfc13e10883af58fb7d8979aa1b60ff7d53e1e",
      "scriptpubkey_asm": "OP_0 OP_PUSHBYTES_20 a8cfc13e10883af58fb7d8979aa1b60ff7d53e1e",
      "scriptpubkey_type": "v0_p2wpkh",
      "scriptpubkey_address": "bc1q4r8uz0ss3qa0trahmzte4gdkplma20s7c3yte3",
      "value": 24100476
    },
    {
      "scriptpubkey": "5120db7ddcb3c26386a58e1abef2fa2eaa047e3fa7c4978741e556be5700d935f0c5",
      "scriptpubkey_asm": "OP_PUSHNUM_1 OP_PUSHBYTES_32 db7ddcb3c26386a58e1abef2fa2eaa047e3fa7c4978741e556be5700d935f0c5",
      "scriptpubkey_type": "v1_p2tr",
      "scriptpubkey_address": "bc1pmd7aev7zvwr2trs6hme05t42q3lrlf7yj7r5re2khetspkf47rzs4rqm9r",
      "value": 546
    },
    {
      "scriptpubkey": "0014a8cfc13e10883af58fb7d8979aa1b60ff7d53e1e",
      "scriptpubkey_asm": "OP_0 OP_PUSHBYTES_20 a8cfc13e10883af58fb7d8979aa1b60ff7d53e1e",
      "scriptpubkey_type": "v0_p2wpkh",
      "scriptpubkey_address": "bc1q4r8uz0ss3qa0trahmzte4gdkplma20s7c3yte3",
      "value": 35600610
    },
    {
      "scriptpubkey": "00149852423b8fb3cb553d9436fe9e6bb7c6f69d8c60",
      "scriptpubkey_asm": "OP_0 OP_PUSHBYTES_20 9852423b8fb3cb553d9436fe9e6bb7c6f69d8c60",
      "scriptpubkey_type": "v0_p2wpkh",
      "scriptpubkey_address": "bc1qnpfyywu0k09420v5xmlfu6ahcmmfmrrqduvjz4",
      "value": 546
    },
    {
      "scriptpubkey": "0014a8cfc13e10883af58fb7d8979aa1b60ff7d53e1e",
      "scriptpubkey_asm": "OP_0 OP_PUSHBYTES_20 a8cfc13e10883af58fb7d8979aa1b60ff7d53e1e",
      "scriptpubkey_type": "v0_p2wpkh",
      "scriptpubkey_address": "bc1q4r8uz0ss3qa0trahmzte4gdkplma20s7c3yte3",
      "value": 427965
    },
    {
      "scriptpubkey": "5120db7ddcb3c26386a58e1abef2fa2eaa047e3fa7c4978741e556be5700d935f0c5",
      "scriptpubkey_asm": "OP_PUSHNUM_1 OP_PUSHBYTES_32 db7ddcb3c26386a58e1abef2fa2eaa047e3fa7c4978741e556be5700d935f0c5",
      "scriptpubkey_type": "v1_p2tr",
      "scriptpubkey_address": "bc1pmd7aev7zvwr2trs6hme05t42q3lrlf7yj7r5re2khetspkf47rzs4rqm9r",
      "value": 546
    },
    {
      "scriptpubkey": "0014a8cfc13e10883af58fb7d8979aa1b60ff7d53e1e",
      "scriptpubkey_asm": "OP_0 OP_PUSHBYTES_20 a8cfc13e10883af58fb7d8979aa1b60ff7d53e1e",
      "scriptpubkey_type": "v0_p2wpkh",
      "scriptpubkey_address": "bc1q4r8uz0ss3qa0trahmzte4gdkplma20s7c3yte3",
      "value": 54524155
    },
    {
      "scriptpubkey": "5120db7ddcb3c26386a58e1abef2fa2eaa047e3fa7c4978741e556be5700d935f0c5",
      "scriptpubkey_asm": "OP_PUSHNUM_1 OP_PUSHBYTES_32 db7ddcb3c26386a58e1abef2fa2eaa047e3fa7c4978741e556be5700d935f0c5",
      "scriptpubkey_type": "v1_p2tr",
      "scriptpubkey_address": "bc1pmd7aev7zvwr2trs6hme05t42q3lrlf7yj7r5re2khetspkf47rzs4rqm9r",
      "value": 546
    },
    {
      "scriptpubkey": "0014a8cfc13e10883af58fb7d8979aa1b60ff7d53e1e",
      "scriptpubkey_asm": "OP_0 OP_PUSHBYTES_20 a8cfc13e10883af58fb7d8979aa1b60ff7d53e1e",
      "scriptpubkey_type": "v0_p2wpkh",
      "scriptpubkey_address": "bc1q4r8uz0ss3qa0trahmzte4gdkplma20s7c3yte3",
      "value": 45046241
    },
    {
      "scriptpubkey": "5120db7ddcb3c26386a58e1abef2fa2eaa047e3fa7c4978741e556be5700d935f0c5",
      "scriptpubkey_asm": "OP_PUSHNUM_1 OP_PUSHBYTES_32 db7ddcb3c26386a58e1abef2fa2eaa047e3fa7c4978741e556be5700d935f0c5",
      "scriptpubkey_type": "v1_p2tr",
      "scriptpubkey_address": "bc1pmd7aev7zvwr2trs6hme05t42q3lrlf7yj7r5re2khetspkf47rzs4rqm9r",
      "value": 546
    },
    {
      "scriptpubkey": "0014a8cfc13e10883af58fb7d8979aa1b60ff7d53e1e",
      "scriptpubkey_asm": "OP_0 OP_PUSHBYTES_20 a8cfc13e10883af58fb7d8979aa1b60ff7d53e1e",
      "scriptpubkey_type": "v0_p2wpkh",
      "scriptpubkey_address": "bc1q4r8uz0ss3qa0trahmzte4gdkplma20s7c3yte3",
      "value": 66224859
    },
    {
      "scriptpubkey": "5120db7ddcb3c26386a58e1abef2fa2eaa047e3fa7c4978741e556be5700d935f0c5",
      "scriptpubkey_asm": "OP_PUSHNUM_1 OP_PUSHBYTES_32 db7ddcb3c26386a58e1abef2fa2eaa047e3fa7c4978741e556be5700d935f0c5",
      "scriptpubkey_type": "v1_p2tr",
      "scriptpubkey_address": "bc1pmd7aev7zvwr2trs6hme05t42q3lrlf7yj7r5re2khetspkf47rzs4rqm9r",
      "value": 546
    },
    {
      "scriptpubkey": "0014a8cfc13e10883af58fb7d8979aa1b60ff7d53e1e",
      "scriptpubkey_asm": "OP_0 OP_PUSHBYTES_20 a8cfc13e10883af58fb7d8979aa1b60ff7d53e1e",
      "scriptpubkey_type": "v0_p2wpkh",
      "scriptpubkey_address": "bc1q4r8uz0ss3qa0trahmzte4gdkplma20s7c3yte3",
      "value": 26914629
    },
    {
      "scriptpubkey": "5120db7ddcb3c26386a58e1abef2fa2eaa047e3fa7c4978741e556be5700d935f0c5",
      "scriptpubkey_asm": "OP_PUSHNUM_1 OP_PUSHBYTES_32 db7ddcb3c26386a58e1abef2fa2eaa047e3fa7c4978741e556be5700d935f0c5",
      "scriptpubkey_type": "v1_p2tr",
      "scriptpubkey_address": "bc1pmd7aev7zvwr2trs6hme05t42q3lrlf7yj7r5re2khetspkf47rzs4rqm9r",
      "value": 546
    },
    {
      "scriptpubkey": "0014a8cfc13e10883af58fb7d8979aa1b60ff7d53e1e",
      "scriptpubkey_asm": "OP_0 OP_PUSHBYTES_20 a8cfc13e10883af58fb7d8979aa1b60ff7d53e1e",
      "scriptpubkey_type": "v0_p2wpkh",
      "scriptpubkey_address": "bc1q4r8uz0ss3qa0trahmzte4gdkplma20s7c3yte3",
      "value": 84503206
    },
    {
      "scriptpubkey": "5120db7ddcb3c26386a58e1abef2fa2eaa047e3fa7c4978741e556be5700d935f0c5",
      "scriptpubkey_asm": "OP_PUSHNUM_1 OP_PUSHBYTES_32 db7ddcb3c26386a58e1abef2fa2eaa047e3fa7c4978741e556be5700d935f0c5",
      "scriptpubkey_type": "v1_p2tr",
      "scriptpubkey_address": "bc1pmd7aev7zvwr2trs6hme05t42q3lrlf7yj7r5re2khetspkf47rzs4rqm9r",
      "value": 546
    },
    {
      "scriptpubkey": "0014a8cfc13e10883af58fb7d8979aa1b60ff7d53e1e",
      "scriptpubkey_asm": "OP_0 OP_PUSHBYTES_20 a8cfc13e10883af58fb7d8979aa1b60ff7d53e1e",
      "scriptpubkey_type": "v0_p2wpkh",
      "scriptpubkey_address": "bc1q4r8uz0ss3qa0trahmzte4gdkplma20s7c3yte3",
      "value": 28147982
    },
    {
      "scriptpubkey": "5120db7ddcb3c26386a58e1abef2fa2eaa047e3fa7c4978741e556be5700d935f0c5",
      "scriptpubkey_asm": "OP_PUSHNUM_1 OP_PUSHBYTES_32 db7ddcb3c26386a58e1abef2fa2eaa047e3fa7c4978741e556be5700d935f0c5",
      "scriptpubkey_type": "v1_p2tr",
      "scriptpubkey_address": "bc1pmd7aev7zvwr2trs6hme05t42q3lrlf7yj7r5re2khetspkf47rzs4rqm9r",
      "value": 546
    },
    {
      "scriptpubkey": "0014a8cfc13e10883af58fb7d8979aa1b60ff7d53e1e",
      "scriptpubkey_asm": "OP_0 OP_PUSHBYTES_20 a8cfc13e10883af58fb7d8979aa1b60ff7d53e1e",
      "scriptpubkey_type": "v0_p2wpkh",
      "scriptpubkey_address": "bc1q4r8uz0ss3qa0trahmzte4gdkplma20s7c3yte3",
      "value": 28036578
    },
    {
      "scriptpubkey": "5120db7ddcb3c26386a58e1abef2fa2eaa047e3fa7c4978741e556be5700d935f0c5",
      "scriptpubkey_asm": "OP_PUSHNUM_1 OP_PUSHBYTES_32 db7ddcb3c26386a58e1abef2fa2eaa047e3fa7c4978741e556be5700d935f0c5",
      "scriptpubkey_type": "v1_p2tr",
      "scriptpubkey_address": "bc1pmd7aev7zvwr2trs6hme05t42q3lrlf7yj7r5re2khetspkf47rzs4rqm9r",
      "value": 546
    },
    {
      "scriptpubkey": "0014a8cfc13e10883af58fb7d8979aa1b60ff7d53e1e",
      "scriptpubkey_asm": "OP_0 OP_PUSHBYTES_20 a8cfc13e10883af58fb7d8979aa1b60ff7d53e1e",
      "scriptpubkey_type": "v0_p2wpkh",
      "scriptpubkey_address": "bc1q4r8uz0ss3qa0trahmzte4gdkplma20s7c3yte3",
      "value": 58796337
    },
    {
      "scriptpubkey": "5120db7ddcb3c26386a58e1abef2fa2eaa047e3fa7c4978741e556be5700d935f0c5",
      "scriptpubkey_asm": "OP_PUSHNUM_1 OP_PUSHBYTES_32 db7ddcb3c26386a58e1abef2fa2eaa047e3fa7c4978741e556be5700d935f0c5",
      "scriptpubkey_type": "v1_p2tr",
      "scriptpubkey_address": "bc1pmd7aev7zvwr2trs6hme05t42q3lrlf7yj7r5re2khetspkf47rzs4rqm9r",
      "value": 546
    },
    {
      "scriptpubkey": "0014a8cfc13e10883af58fb7d8979aa1b60ff7d53e1e",
      "scriptpubkey_asm": "OP_0 OP_PUSHBYTES_20 a8cfc13e10883af58fb7d8979aa1b60ff7d53e1e",
      "scriptpubkey_type": "v0_p2wpkh",
      "scriptpubkey_address": "bc1q4r8uz0ss3qa0trahmzte4gdkplma20s7c3yte3",
      "value": 52108816
    },
    {
      "scriptpubkey": "5120db7ddcb3c26386a58e1abef2fa2eaa047e3fa7c4978741e556be5700d935f0c5",
      "scriptpubkey_asm": "OP_PUSHNUM_1 OP_PUSHBYTES_32 db7ddcb3c26386a58e1abef2fa2eaa047e3fa7c4978741e556be5700d935f0c5",
      "scriptpubkey_type": "v1_p2tr",
      "scriptpubkey_address": "bc1pmd7aev7zvwr2trs6hme05t42q3lrlf7yj7r5re2khetspkf47rzs4rqm9r",
      "value": 546
    },
    {
      "scriptpubkey": "0014a8cfc13e10883af58fb7d8979aa1b60ff7d53e1e",
      "scriptpubkey_asm": "OP_0 OP_PUSHBYTES_20 a8cfc13e10883af58fb7d8979aa1b60ff7d53e1e",
      "scriptpubkey_type": "v0_p2wpkh",
      "scriptpubkey_address": "bc1q4r8uz0ss3qa0trahmzte4gdkplma20s7c3yte3",
      "value": 19584474
    },
    {
      "scriptpubkey": "5120db7ddcb3c26386a58e1abef2fa2eaa047e3fa7c4978741e556be5700d935f0c5",
      "scriptpubkey_asm": "OP_PUSHNUM_1 OP_PUSHBYTES_32 db7ddcb3c26386a58e1abef2fa2eaa047e3fa7c4978741e556be5700d935f0c5",
      "scriptpubkey_type": "v1_p2tr",
      "scriptpubkey_address": "bc1pmd7aev7zvwr2trs6hme05t42q3lrlf7yj7r5re2khetspkf47rzs4rqm9r",
      "value": 546
    },
    {
      "scriptpubkey": "0014a8cfc13e10883af58fb7d8979aa1b60ff7d53e1e",
      "scriptpubkey_asm": "OP_0 OP_PUSHBYTES_20 a8cfc13e10883af58fb7d8979aa1b60ff7d53e1e",
      "scriptpubkey_type": "v0_p2wpkh",
      "scriptpubkey_address": "bc1q4r8uz0ss3qa0trahmzte4gdkplma20s7c3yte3",
      "value": 10002866
    },
    {
      "scriptpubkey": "5120db7ddcb3c26386a58e1abef2fa2eaa047e3fa7c4978741e556be5700d935f0c5",
      "scriptpubkey_asm": "OP_PUSHNUM_1 OP_PUSHBYTES_32 db7ddcb3c26386a58e1abef2fa2eaa047e3fa7c4978741e556be5700d935f0c5",
      "scriptpubkey_type": "v1_p2tr",
      "scriptpubkey_address": "bc1pmd7aev7zvwr2trs6hme05t42q3lrlf7yj7r5re2khetspkf47rzs4rqm9r",
      "value": 546
    },
    {
      "scriptpubkey": "0014a8cfc13e10883af58fb7d8979aa1b60ff7d53e1e",
      "scriptpubkey_asm": "OP_0 OP_PUSHBYTES_20 a8cfc13e10883af58fb7d8979aa1b60ff7d53e1e",
      "scriptpubkey_type": "v0_p2wpkh",
      "scriptpubkey_address": "bc1q4r8uz0ss3qa0trahmzte4gdkplma20s7c3yte3",
      "value": 30202241
    },
    {
      "scriptpubkey": "5120db7ddcb3c26386a58e1abef2fa2eaa047e3fa7c4978741e556be5700d935f0c5",
      "scriptpubkey_asm": "OP_PUSHNUM_1 OP_PUSHBYTES_32 db7ddcb3c26386a58e1abef2fa2eaa047e3fa7c4978741e556be5700d935f0c5",
      "scriptpubkey_type": "v1_p2tr",
      "scriptpubkey_address": "bc1pmd7aev7zvwr2trs6hme05t42q3lrlf7yj7r5re2khetspkf47rzs4rqm9r",
      "value": 546
    },
    {
      "scriptpubkey": "0014a8cfc13e10883af58fb7d8979aa1b60ff7d53e1e",
      "scriptpubkey_asm": "OP_0 OP_PUSHBYTES_20 a8cfc13e10883af58fb7d8979aa1b60ff7d53e1e",
      "scriptpubkey_type": "v0_p2wpkh",
      "scriptpubkey_address": "bc1q4r8uz0ss3qa0trahmzte4gdkplma20s7c3yte3",
      "value": 5826332
    },
    {
      "scriptpubkey": "5120db7ddcb3c26386a58e1abef2fa2eaa047e3fa7c4978741e556be5700d935f0c5",
      "scriptpubkey_asm": "OP_PUSHNUM_1 OP_PUSHBYTES_32 db7ddcb3c26386a58e1abef2fa2eaa047e3fa7c4978741e556be5700d935f0c5",
      "scriptpubkey_type": "v1_p2tr",
      "scriptpubkey_address": "bc1pmd7aev7zvwr2trs6hme05t42q3lrlf7yj7r5re2khetspkf47rzs4rqm9r",
      "value": 546
    },
    {
      "scriptpubkey": "0014a8cfc13e10883af58fb7d8979aa1b60ff7d53e1e",
      "scriptpubkey_asm": "OP_0 OP_PUSHBYTES_20 a8cfc13e10883af58fb7d8979aa1b60ff7d53e1e",
      "scriptpubkey_type": "v0_p2wpkh",
      "scriptpubkey_address": "bc1q4r8uz0ss3qa0trahmzte4gdkplma20s7c3yte3",
      "value": 36851164
    },
    {
      "scriptpubkey": "00149852423b8fb3cb553d9436fe9e6bb7c6f69d8c60",
      "scriptpubkey_asm": "OP_0 OP_PUSHBYTES_20 9852423b8fb3cb553d9436fe9e6bb7c6f69d8c60",
      "scriptpubkey_type": "v0_p2wpkh",
      "scriptpubkey_address": "bc1qnpfyywu0k09420v5xmlfu6ahcmmfmrrqduvjz4",
      "value": 546
    },
    {
      "scriptpubkey": "0014a8cfc13e10883af58fb7d8979aa1b60ff7d53e1e",
      "scriptpubkey_asm": "OP_0 OP_PUSHBYTES_20 a8cfc13e10883af58fb7d8979aa1b60ff7d53e1e",
      "scriptpubkey_type": "v0_p2wpkh",
      "scriptpubkey_address": "bc1q4r8uz0ss3qa0trahmzte4gdkplma20s7c3yte3",
      "value": 137941707
    },
    {
      "scriptpubkey": "5120db7ddcb3c26386a58e1abef2fa2eaa047e3fa7c4978741e556be5700d935f0c5",
      "scriptpubkey_asm": "OP_PUSHNUM_1 OP_PUSHBYTES_32 db7ddcb3c26386a58e1abef2fa2eaa047e3fa7c4978741e556be5700d935f0c5",
      "scriptpubkey_type": "v1_p2tr",
      "scriptpubkey_address": "bc1pmd7aev7zvwr2trs6hme05t42q3lrlf7yj7r5re2khetspkf47rzs4rqm9r",
      "value": 546
    },
    {
      "scriptpubkey": "0014a8cfc13e10883af58fb7d8979aa1b60ff7d53e1e",
      "scriptpubkey_asm": "OP_0 OP_PUSHBYTES_20 a8cfc13e10883af58fb7d8979aa1b60ff7d53e1e",
      "scriptpubkey_type": "v0_p2wpkh",
      "scriptpubkey_address": "bc1q4r8uz0ss3qa0trahmzte4gdkplma20s7c3yte3",
      "value": 230581815
    },
    {
      "scriptpubkey": "00149852423b8fb3cb553d9436fe9e6bb7c6f69d8c60",
      "scriptpubkey_asm": "OP_0 OP_PUSHBYTES_20 9852423b8fb3cb553d9436fe9e6bb7c6f69d8c60",
      "scriptpubkey_type": "v0_p2wpkh",
      "scriptpubkey_address": "bc1qnpfyywu0k09420v5xmlfu6ahcmmfmrrqduvjz4",
      "value": 546
    },
    {
      "scriptpubkey": "0014a8cfc13e10883af58fb7d8979aa1b60ff7d53e1e",
      "scriptpubkey_asm": "OP_0 OP_PUSHBYTES_20 a8cfc13e10883af58fb7d8979aa1b60ff7d53e1e",
      "scriptpubkey_type": "v0_p2wpkh",
      "scriptpubkey_address": "bc1q4r8uz0ss3qa0trahmzte4gdkplma20s7c3yte3",
      "value": 67468156
    },
    {
      "scriptpubkey": "5120db7ddcb3c26386a58e1abef2fa2eaa047e3fa7c4978741e556be5700d935f0c5",
      "scriptpubkey_asm": "OP_PUSHNUM_1 OP_PUSHBYTES_32 db7ddcb3c26386a58e1abef2fa2eaa047e3fa7c4978741e556be5700d935f0c5",
      "scriptpubkey_type": "v1_p2tr",
      "scriptpubkey_address": "bc1pmd7aev7zvwr2trs6hme05t42q3lrlf7yj7r5re2khetspkf47rzs4rqm9r",
      "value": 546
    },
    {
      "scriptpubkey": "0014a8cfc13e10883af58fb7d8979aa1b60ff7d53e1e",
      "scriptpubkey_asm": "OP_0 OP_PUSHBYTES_20 a8cfc13e10883af58fb7d8979aa1b60ff7d53e1e",
      "scriptpubkey_type": "v0_p2wpkh",
      "scriptpubkey_address": "bc1q4r8uz0ss3qa0trahmzte4gdkplma20s7c3yte3",
      "value": 12738173
    },
    {
      "scriptpubkey": "5120db7ddcb3c26386a58e1abef2fa2eaa047e3fa7c4978741e556be5700d935f0c5",
      "scriptpubkey_asm": "OP_PUSHNUM_1 OP_PUSHBYTES_32 db7ddcb3c26386a58e1abef2fa2eaa047e3fa7c4978741e556be5700d935f0c5",
      "scriptpubkey_type": "v1_p2tr",
      "scriptpubkey_address": "bc1pmd7aev7zvwr2trs6hme05t42q3lrlf7yj7r5re2khetspkf47rzs4rqm9r",
      "value": 546
    },
    {
      "scriptpubkey": "0014a8cfc13e10883af58fb7d8979aa1b60ff7d53e1e",
      "scriptpubkey_asm": "OP_0 OP_PUSHBYTES_20 a8cfc13e10883af58fb7d8979aa1b60ff7d53e1e",
      "scriptpubkey_type": "v0_p2wpkh",
      "scriptpubkey_address": "bc1q4r8uz0ss3qa0trahmzte4gdkplma20s7c3yte3",
      "value": 20813212
    },
    {
      "scriptpubkey": "5120db7ddcb3c26386a58e1abef2fa2eaa047e3fa7c4978741e556be5700d935f0c5",
      "scriptpubkey_asm": "OP_PUSHNUM_1 OP_PUSHBYTES_32 db7ddcb3c26386a58e1abef2fa2eaa047e3fa7c4978741e556be5700d935f0c5",
      "scriptpubkey_type": "v1_p2tr",
      "scriptpubkey_address": "bc1pmd7aev7zvwr2trs6hme05t42q3lrlf7yj7r5re2khetspkf47rzs4rqm9r",
      "value": 546
    },
    {
      "scriptpubkey": "0014a8cfc13e10883af58fb7d8979aa1b60ff7d53e1e",
      "scriptpubkey_asm": "OP_0 OP_PUSHBYTES_20 a8cfc13e10883af58fb7d8979aa1b60ff7d53e1e",
      "scriptpubkey_type": "v0_p2wpkh",
      "scriptpubkey_address": "bc1q4r8uz0ss3qa0trahmzte4gdkplma20s7c3yte3",
      "value": 74454021
    },
    {
      "scriptpubkey": "5120db7ddcb3c26386a58e1abef2fa2eaa047e3fa7c4978741e556be5700d935f0c5",
      "scriptpubkey_asm": "OP_PUSHNUM_1 OP_PUSHBYTES_32 db7ddcb3c26386a58e1abef2fa2eaa047e3fa7c4978741e556be5700d935f0c5",
      "scriptpubkey_type": "v1_p2tr",
      "scriptpubkey_address": "bc1pmd7aev7zvwr2trs6hme05t42q3lrlf7yj7r5re2khetspkf47rzs4rqm9r",
      "value": 546
    },
    {
      "scriptpubkey": "0014a8cfc13e10883af58fb7d8979aa1b60ff7d53e1e",
      "scriptpubkey_asm": "OP_0 OP_PUSHBYTES_20 a8cfc13e10883af58fb7d8979aa1b60ff7d53e1e",
      "scriptpubkey_type": "v0_p2wpkh",
      "scriptpubkey_address": "bc1q4r8uz0ss3qa0trahmzte4gdkplma20s7c3yte3",
      "value": 18908226
    },
    {
      "scriptpubkey": "5120db7ddcb3c26386a58e1abef2fa2eaa047e3fa7c4978741e556be5700d935f0c5",
      "scriptpubkey_asm": "OP_PUSHNUM_1 OP_PUSHBYTES_32 db7ddcb3c26386a58e1abef2fa2eaa047e3fa7c4978741e556be5700d935f0c5",
      "scriptpubkey_type": "v1_p2tr",
      "scriptpubkey_address": "bc1pmd7aev7zvwr2trs6hme05t42q3lrlf7yj7r5re2khetspkf47rzs4rqm9r",
      "value": 546
    },
    {
      "scriptpubkey": "0014a8cfc13e10883af58fb7d8979aa1b60ff7d53e1e",
      "scriptpubkey_asm": "OP_0 OP_PUSHBYTES_20 a8cfc13e10883af58fb7d8979aa1b60ff7d53e1e",
      "scriptpubkey_type": "v0_p2wpkh",
      "scriptpubkey_address": "bc1q4r8uz0ss3qa0trahmzte4gdkplma20s7c3yte3",
      "value": 24402698
    },
    {
      "scriptpubkey": "5120db7ddcb3c26386a58e1abef2fa2eaa047e3fa7c4978741e556be5700d935f0c5",
      "scriptpubkey_asm": "OP_PUSHNUM_1 OP_PUSHBYTES_32 db7ddcb3c26386a58e1abef2fa2eaa047e3fa7c4978741e556be5700d935f0c5",
      "scriptpubkey_type": "v1_p2tr",
      "scriptpubkey_address": "bc1pmd7aev7zvwr2trs6hme05t42q3lrlf7yj7r5re2khetspkf47rzs4rqm9r",
      "value": 546
    },
    {
      "scriptpubkey": "0014a8cfc13e10883af58fb7d8979aa1b60ff7d53e1e",
      "scriptpubkey_asm": "OP_0 OP_PUSHBYTES_20 a8cfc13e10883af58fb7d8979aa1b60ff7d53e1e",
      "scriptpubkey_type": "v0_p2wpkh",
      "scriptpubkey_address": "bc1q4r8uz0ss3qa0trahmzte4gdkplma20s7c3yte3",
      "value": 137055024
    },
    {
      "scriptpubkey": "5120db7ddcb3c26386a58e1abef2fa2eaa047e3fa7c4978741e556be5700d935f0c5",
      "scriptpubkey_asm": "OP_PUSHNUM_1 OP_PUSHBYTES_32 db7ddcb3c26386a58e1abef2fa2eaa047e3fa7c4978741e556be5700d935f0c5",
      "scriptpubkey_type": "v1_p2tr",
      "scriptpubkey_address": "bc1pmd7aev7zvwr2trs6hme05t42q3lrlf7yj7r5re2khetspkf47rzs4rqm9r",
      "value": 546
    },
    {
      "scriptpubkey": "0014a8cfc13e10883af58fb7d8979aa1b60ff7d53e1e",
      "scriptpubkey_asm": "OP_0 OP_PUSHBYTES_20 a8cfc13e10883af58fb7d8979aa1b60ff7d53e1e",
      "scriptpubkey_type": "v0_p2wpkh",
      "scriptpubkey_address": "bc1q4r8uz0ss3qa0trahmzte4gdkplma20s7c3yte3",
      "value": 10032938
    },
    {
      "scriptpubkey": "5120db7ddcb3c26386a58e1abef2fa2eaa047e3fa7c4978741e556be5700d935f0c5",
      "scriptpubkey_asm": "OP_PUSHNUM_1 OP_PUSHBYTES_32 db7ddcb3c26386a58e1abef2fa2eaa047e3fa7c4978741e556be5700d935f0c5",
      "scriptpubkey_type": "v1_p2tr",
      "scriptpubkey_address": "bc1pmd7aev7zvwr2trs6hme05t42q3lrlf7yj7r5re2khetspkf47rzs4rqm9r",
      "value": 546
    },
    {
      "scriptpubkey": "0014a8cfc13e10883af58fb7d8979aa1b60ff7d53e1e",
      "scriptpubkey_asm": "OP_0 OP_PUSHBYTES_20 a8cfc13e10883af58fb7d8979aa1b60ff7d53e1e",
      "scriptpubkey_type": "v0_p2wpkh",
      "scriptpubkey_address": "bc1q4r8uz0ss3qa0trahmzte4gdkplma20s7c3yte3",
      "value": 609614
    },
    {
      "scriptpubkey": "5120db7ddcb3c26386a58e1abef2fa2eaa047e3fa7c4978741e556be5700d935f0c5",
      "scriptpubkey_asm": "OP_PUSHNUM_1 OP_PUSHBYTES_32 db7ddcb3c26386a58e1abef2fa2eaa047e3fa7c4978741e556be5700d935f0c5",
      "scriptpubkey_type": "v1_p2tr",
      "scriptpubkey_address": "bc1pmd7aev7zvwr2trs6hme05t42q3lrlf7yj7r5re2khetspkf47rzs4rqm9r",
      "value": 546
    },
    {
      "scriptpubkey": "0014a8cfc13e10883af58fb7d8979aa1b60ff7d53e1e",
      "scriptpubkey_asm": "OP_0 OP_PUSHBYTES_20 a8cfc13e10883af58fb7d8979aa1b60ff7d53e1e",
      "scriptpubkey_type": "v0_p2wpkh",
      "scriptpubkey_address": "bc1q4r8uz0ss3qa0trahmzte4gdkplma20s7c3yte3",
      "value": 79921026
    },
    {
      "scriptpubkey": "5120db7ddcb3c26386a58e1abef2fa2eaa047e3fa7c4978741e556be5700d935f0c5",
      "scriptpubkey_asm": "OP_PUSHNUM_1 OP_PUSHBYTES_32 db7ddcb3c26386a58e1abef2fa2eaa047e3fa7c4978741e556be5700d935f0c5",
      "scriptpubkey_type": "v1_p2tr",
      "scriptpubkey_address": "bc1pmd7aev7zvwr2trs6hme05t42q3lrlf7yj7r5re2khetspkf47rzs4rqm9r",
      "value": 546
    },
    {
      "scriptpubkey": "0014a8cfc13e10883af58fb7d8979aa1b60ff7d53e1e",
      "scriptpubkey_asm": "OP_0 OP_PUSHBYTES_20 a8cfc13e10883af58fb7d8979aa1b60ff7d53e1e",
      "scriptpubkey_type": "v0_p2wpkh",
      "scriptpubkey_address": "bc1q4r8uz0ss3qa0trahmzte4gdkplma20s7c3yte3",
      "value": 15135414
    },
    {
      "scriptpubkey": "5120db7ddcb3c26386a58e1abef2fa2eaa047e3fa7c4978741e556be5700d935f0c5",
      "scriptpubkey_asm": "OP_PUSHNUM_1 OP_PUSHBYTES_32 db7ddcb3c26386a58e1abef2fa2eaa047e3fa7c4978741e556be5700d935f0c5",
      "scriptpubkey_type": "v1_p2tr",
      "scriptpubkey_address": "bc1pmd7aev7zvwr2trs6hme05t42q3lrlf7yj7r5re2khetspkf47rzs4rqm9r",
      "value": 546
    },
    {
      "scriptpubkey": "0014a8cfc13e10883af58fb7d8979aa1b60ff7d53e1e",
      "scriptpubkey_asm": "OP_0 OP_PUSHBYTES_20 a8cfc13e10883af58fb7d8979aa1b60ff7d53e1e",
      "scriptpubkey_type": "v0_p2wpkh",
      "scriptpubkey_address": "bc1q4r8uz0ss3qa0trahmzte4gdkplma20s7c3yte3",
      "value": 16641358
    },
    {
      "scriptpubkey": "5120db7ddcb3c26386a58e1abef2fa2eaa047e3fa7c4978741e556be5700d935f0c5",
      "scriptpubkey_asm": "OP_PUSHNUM_1 OP_PUSHBYTES_32 db7ddcb3c26386a58e1abef2fa2eaa047e3fa7c4978741e556be5700d935f0c5",
      "scriptpubkey_type": "v1_p2tr",
      "scriptpubkey_address": "bc1pmd7aev7zvwr2trs6hme05t42q3lrlf7yj7r5re2khetspkf47rzs4rqm9r",
      "value": 546
    },
    {
      "scriptpubkey": "0014a8cfc13e10883af58fb7d8979aa1b60ff7d53e1e",
      "scriptpubkey_asm": "OP_0 OP_PUSHBYTES_20 a8cfc13e10883af58fb7d8979aa1b60ff7d53e1e",
      "scriptpubkey_type": "v0_p2wpkh",
      "scriptpubkey_address": "bc1q4r8uz0ss3qa0trahmzte4gdkplma20s7c3yte3",
      "value": 132784244
    },
    {
      "scriptpubkey": "5120db7ddcb3c26386a58e1abef2fa2eaa047e3fa7c4978741e556be5700d935f0c5",
      "scriptpubkey_asm": "OP_PUSHNUM_1 OP_PUSHBYTES_32 db7ddcb3c26386a58e1abef2fa2eaa047e3fa7c4978741e556be5700d935f0c5",
      "scriptpubkey_type": "v1_p2tr",
      "scriptpubkey_address": "bc1pmd7aev7zvwr2trs6hme05t42q3lrlf7yj7r5re2khetspkf47rzs4rqm9r",
      "value": 546
    },
    {
      "scriptpubkey": "0014a8cfc13e10883af58fb7d8979aa1b60ff7d53e1e",
      "scriptpubkey_asm": "OP_0 OP_PUSHBYTES_20 a8cfc13e10883af58fb7d8979aa1b60ff7d53e1e",
      "scriptpubkey_type": "v0_p2wpkh",
      "scriptpubkey_address": "bc1q4r8uz0ss3qa0trahmzte4gdkplma20s7c3yte3",
      "value": 14475347
    },
    {
      "scriptpubkey": "5120db7ddcb3c26386a58e1abef2fa2eaa047e3fa7c4978741e556be5700d935f0c5",
      "scriptpubkey_asm": "OP_PUSHNUM_1 OP_PUSHBYTES_32 db7ddcb3c26386a58e1abef2fa2eaa047e3fa7c4978741e556be5700d935f0c5",
      "scriptpubkey_type": "v1_p2tr",
      "scriptpubkey_address": "bc1pmd7aev7zvwr2trs6hme05t42q3lrlf7yj7r5re2khetspkf47rzs4rqm9r",
      "value": 546
    },
    {
      "scriptpubkey": "0014a8cfc13e10883af58fb7d8979aa1b60ff7d53e1e",
      "scriptpubkey_asm": "OP_0 OP_PUSHBYTES_20 a8cfc13e10883af58fb7d8979aa1b60ff7d53e1e",
      "scriptpubkey_type": "v0_p2wpkh",
      "scriptpubkey_address": "bc1q4r8uz0ss3qa0trahmzte4gdkplma20s7c3yte3",
      "value": 50380201
    },
    {
      "scriptpubkey": "5120db7ddcb3c26386a58e1abef2fa2eaa047e3fa7c4978741e556be5700d935f0c5",
      "scriptpubkey_asm": "OP_PUSHNUM_1 OP_PUSHBYTES_32 db7ddcb3c26386a58e1abef2fa2eaa047e3fa7c4978741e556be5700d935f0c5",
      "scriptpubkey_type": "v1_p2tr",
      "scriptpubkey_address": "bc1pmd7aev7zvwr2trs6hme05t42q3lrlf7yj7r5re2khetspkf47rzs4rqm9r",
      "value": 546
    },
    {
      "scriptpubkey": "0014a8cfc13e10883af58fb7d8979aa1b60ff7d53e1e",
      "scriptpubkey_asm": "OP_0 OP_PUSHBYTES_20 a8cfc13e10883af58fb7d8979aa1b60ff7d53e1e",
      "scriptpubkey_type": "v0_p2wpkh",
      "scriptpubkey_address": "bc1q4r8uz0ss3qa0trahmzte4gdkplma20s7c3yte3",
      "value": 93893637
    },
    {
      "scriptpubkey": "5120db7ddcb3c26386a58e1abef2fa2eaa047e3fa7c4978741e556be5700d935f0c5",
      "scriptpubkey_asm": "OP_PUSHNUM_1 OP_PUSHBYTES_32 db7ddcb3c26386a58e1abef2fa2eaa047e3fa7c4978741e556be5700d935f0c5",
      "scriptpubkey_type": "v1_p2tr",
      "scriptpubkey_address": "bc1pmd7aev7zvwr2trs6hme05t42q3lrlf7yj7r5re2khetspkf47rzs4rqm9r",
      "value": 546
    },
    {
      "scriptpubkey": "0014a8cfc13e10883af58fb7d8979aa1b60ff7d53e1e",
      "scriptpubkey_asm": "OP_0 OP_PUSHBYTES_20 a8cfc13e10883af58fb7d8979aa1b60ff7d53e1e",
      "scriptpubkey_type": "v0_p2wpkh",
      "scriptpubkey_address": "bc1q4r8uz0ss3qa0trahmzte4gdkplma20s7c3yte3",
      "value": 1989907
    },
    {
      "scriptpubkey": "5120db7ddcb3c26386a58e1abef2fa2eaa047e3fa7c4978741e556be5700d935f0c5",
      "scriptpubkey_asm": "OP_PUSHNUM_1 OP_PUSHBYTES_32 db7ddcb3c26386a58e1abef2fa2eaa047e3fa7c4978741e556be5700d935f0c5",
      "scriptpubkey_type": "v1_p2tr",
      "scriptpubkey_address": "bc1pmd7aev7zvwr2trs6hme05t42q3lrlf7yj7r5re2khetspkf47rzs4rqm9r",
      "value": 546
    },
    {
      "scriptpubkey": "0014a8cfc13e10883af58fb7d8979aa1b60ff7d53e1e",
      "scriptpubkey_asm": "OP_0 OP_PUSHBYTES_20 a8cfc13e10883af58fb7d8979aa1b60ff7d53e1e",
      "scriptpubkey_type": "v0_p2wpkh",
      "scriptpubkey_address": "bc1q4r8uz0ss3qa0trahmzte4gdkplma20s7c3yte3",
      "value": 84724632
    },
    {
      "scriptpubkey": "5120db7ddcb3c26386a58e1abef2fa2eaa047e3fa7c4978741e556be5700d935f0c5",
      "scriptpubkey_asm": "OP_PUSHNUM_1 OP_PUSHBYTES_32 db7ddcb3c26386a58e1abef2fa2eaa047e3fa7c4978741e556be5700d935f0c5",
      "scriptpubkey_type": "v1_p2tr",
      "scriptpubkey_address": "bc1pmd7aev7zvwr2trs6hme05t42q3lrlf7yj7r5re2khetspkf47rzs4rqm9r",
      "value": 546
    },
    {
      "scriptpubkey": "0014a8cfc13e10883af58fb7d8979aa1b60ff7d53e1e",
      "scriptpubkey_asm": "OP_0 OP_PUSHBYTES_20 a8cfc13e10883af58fb7d8979aa1b60ff7d53e1e",
      "scriptpubkey_type": "v0_p2wpkh",
      "scriptpubkey_address": "bc1q4r8uz0ss3qa0trahmzte4gdkplma20s7c3yte3",
      "value": 15026351
    },
    {
      "scriptpubkey": "76a914de77477a708a2ebf31c69850b03a1f9b478fed8388ac",
      "scriptpubkey_asm": "OP_DUP OP_HASH160 OP_PUSHBYTES_20 de77477a708a2ebf31c69850b03a1f9b478fed83 OP_EQUALVERIFY OP_CHECKSIG",
      "scriptpubkey_type": "p2pkh",
      "scriptpubkey_address": "1MHHuFaNAckvbdR2HCjven8PYvnEuW4CsF",
      "value": 43000
    }
  ],
  "size": 2950,
  "weight": 11473,
  "fee": 40166,
  "status": {
    "confirmed": true,
    "block_height": 834460,
    "block_hash": "00000000000000000000484a79b643b2524bbce82e5d8a442013fa5b8905ed98",
    "block_time": 1710307468
  },
  "hex": "02000000000101e614288ebf340832c770d4f95da5e2aa4eaf6969b64183dd5dc53139c7affaee04000000171600140ae53e37f211081d219a97e34ee502cfb11f9999fdffffff4c7cbe6f0100000000160014a8cfc13e10883af58fb7d8979aa1b60ff7d53e1e2202000000000000225120db7ddcb3c26386a58e1abef2fa2eaa047e3fa7c4978741e556be5700d935f0c5e2381f0200000000160014a8cfc13e10883af58fb7d8979aa1b60ff7d53e1e22020000000000001600149852423b8fb3cb553d9436fe9e6bb7c6f69d8c60bd87060000000000160014a8cfc13e10883af58fb7d8979aa1b60ff7d53e1e2202000000000000225120db7ddcb3c26386a58e1abef2fa2eaa047e3fa7c4978741e556be5700d935f0c5fbf83f0300000000160014a8cfc13e10883af58fb7d8979aa1b60ff7d53e1e2202000000000000225120db7ddcb3c26386a58e1abef2fa2eaa047e3fa7c4978741e556be5700d935f0c5e159af0200000000160014a8cfc13e10883af58fb7d8979aa1b60ff7d53e1e2202000000000000225120db7ddcb3c26386a58e1abef2fa2eaa047e3fa7c4978741e556be5700d935f0c5db82f20300000000160014a8cfc13e10883af58fb7d8979aa1b60ff7d53e1e2202000000000000225120db7ddcb3c26386a58e1abef2fa2eaa047e3fa7c4978741e556be5700d935f0c545af9a0100000000160014a8cfc13e10883af58fb7d8979aa1b60ff7d53e1e2202000000000000225120db7ddcb3c26386a58e1abef2fa2eaa047e3fa7c4978741e556be5700d935f0c5a66a090500000000160014a8cfc13e10883af58fb7d8979aa1b60ff7d53e1e2202000000000000225120db7ddcb3c26386a58e1abef2fa2eaa047e3fa7c4978741e556be5700d935f0c50e81ad0100000000160014a8cfc13e10883af58fb7d8979aa1b60ff7d53e1e2202000000000000225120db7ddcb3c26386a58e1abef2fa2eaa047e3fa7c4978741e556be5700d935f0c5e2cdab0100000000160014a8cfc13e10883af58fb7d8979aa1b60ff7d53e1e2202000000000000225120db7ddcb3c26386a58e1abef2fa2eaa047e3fa7c4978741e556be5700d935f0c53129810300000000160014a8cfc13e10883af58fb7d8979aa1b60ff7d53e1e2202000000000000225120db7ddcb3c26386a58e1abef2fa2eaa047e3fa7c4978741e556be5700d935f0c5101e1b0300000000160014a8cfc13e10883af58fb7d8979aa1b60ff7d53e1e2202000000000000225120db7ddcb3c26386a58e1abef2fa2eaa047e3fa7c4978741e556be5700d935f0c5dad52a0100000000160014a8cfc13e10883af58fb7d8979aa1b60ff7d53e1e2202000000000000225120db7ddcb3c26386a58e1abef2fa2eaa047e3fa7c4978741e556be5700d935f0c5b2a1980000000000160014a8cfc13e10883af58fb7d8979aa1b60ff7d53e1e2202000000000000225120db7ddcb3c26386a58e1abef2fa2eaa047e3fa7c4978741e556be5700d935f0c581d9cc0100000000160014a8cfc13e10883af58fb7d8979aa1b60ff7d53e1e2202000000000000225120db7ddcb3c26386a58e1abef2fa2eaa047e3fa7c4978741e556be5700d935f0c51ce7580000000000160014a8cfc13e10883af58fb7d8979aa1b60ff7d53e1e2202000000000000225120db7ddcb3c26386a58e1abef2fa2eaa047e3fa7c4978741e556be5700d935f0c5dc4d320200000000160014a8cfc13e10883af58fb7d8979aa1b60ff7d53e1e22020000000000001600149852423b8fb3cb553d9436fe9e6bb7c6f69d8c60cbd2380800000000160014a8cfc13e10883af58fb7d8979aa1b60ff7d53e1e2202000000000000225120db7ddcb3c26386a58e1abef2fa2eaa047e3fa7c4978741e556be5700d935f0c53766be0d00000000160014a8cfc13e10883af58fb7d8979aa1b60ff7d53e1e22020000000000001600149852423b8fb3cb553d9436fe9e6bb7c6f69d8c607c7b050400000000160014a8cfc13e10883af58fb7d8979aa1b60ff7d53e1e2202000000000000225120db7ddcb3c26386a58e1abef2fa2eaa047e3fa7c4978741e556be5700d935f0c57d5ec20000000000160014a8cfc13e10883af58fb7d8979aa1b60ff7d53e1e2202000000000000225120db7ddcb3c26386a58e1abef2fa2eaa047e3fa7c4978741e556be5700d935f0c59c953d0100000000160014a8cfc13e10883af58fb7d8979aa1b60ff7d53e1e2202000000000000225120db7ddcb3c26386a58e1abef2fa2eaa047e3fa7c4978741e556be5700d935f0c50514700400000000160014a8cfc13e10883af58fb7d8979aa1b60ff7d53e1e2202000000000000225120db7ddcb3c26386a58e1abef2fa2eaa047e3fa7c4978741e556be5700d935f0c54284200100000000160014a8cfc13e10883af58fb7d8979aa1b60ff7d53e1e2202000000000000225120db7ddcb3c26386a58e1abef2fa2eaa047e3fa7c4978741e556be5700d935f0c50a5b740100000000160014a8cfc13e10883af58fb7d8979aa1b60ff7d53e1e2202000000000000225120db7ddcb3c26386a58e1abef2fa2eaa047e3fa7c4978741e556be5700d935f0c5304b2b0800000000160014a8cfc13e10883af58fb7d8979aa1b60ff7d53e1e2202000000000000225120db7ddcb3c26386a58e1abef2fa2eaa047e3fa7c4978741e556be5700d935f0c52a17990000000000160014a8cfc13e10883af58fb7d8979aa1b60ff7d53e1e2202000000000000225120db7ddcb3c26386a58e1abef2fa2eaa047e3fa7c4978741e556be5700d935f0c54e4d090000000000160014a8cfc13e10883af58fb7d8979aa1b60ff7d53e1e2202000000000000225120db7ddcb3c26386a58e1abef2fa2eaa047e3fa7c4978741e556be5700d935f0c5827fc30400000000160014a8cfc13e10883af58fb7d8979aa1b60ff7d53e1e2202000000000000225120db7ddcb3c26386a58e1abef2fa2eaa047e3fa7c4978741e556be5700d935f0c5b6f2e60000000000160014a8cfc13e10883af58fb7d8979aa1b60ff7d53e1e2202000000000000225120db7ddcb3c26386a58e1abef2fa2eaa047e3fa7c4978741e556be5700d935f0c54eedfd0000000000160014a8cfc13e10883af58fb7d8979aa1b60ff7d53e1e2202000000000000225120db7ddcb3c26386a58e1abef2fa2eaa047e3fa7c4978741e556be5700d935f0c57420ea0700000000160014a8cfc13e10883af58fb7d8979aa1b60ff7d53e1e2202000000000000225120db7ddcb3c26386a58e1abef2fa2eaa047e3fa7c4978741e556be5700d935f0c553e0dc0000000000160014a8cfc13e10883af58fb7d8979aa1b60ff7d53e1e2202000000000000225120db7ddcb3c26386a58e1abef2fa2eaa047e3fa7c4978741e556be5700d935f0c5a9bd000300000000160014a8cfc13e10883af58fb7d8979aa1b60ff7d53e1e2202000000000000225120db7ddcb3c26386a58e1abef2fa2eaa047e3fa7c4978741e556be5700d935f0c505b4980500000000160014a8cfc13e10883af58fb7d8979aa1b60ff7d53e1e2202000000000000225120db7ddcb3c26386a58e1abef2fa2eaa047e3fa7c4978741e556be5700d935f0c5135d1e0000000000160014a8cfc13e10883af58fb7d8979aa1b60ff7d53e1e2202000000000000225120db7ddcb3c26386a58e1abef2fa2eaa047e3fa7c4978741e556be5700d935f0c598cb0c0500000000160014a8cfc13e10883af58fb7d8979aa1b60ff7d53e1e2202000000000000225120db7ddcb3c26386a58e1abef2fa2eaa047e3fa7c4978741e556be5700d935f0c5af48e50000000000160014a8cfc13e10883af58fb7d8979aa1b60ff7d53e1ef8a70000000000001976a914de77477a708a2ebf31c69850b03a1f9b478fed8388ac02473044022014a66eacbed5e5dfbf4cfd81374fbd78bf70110f1af5bb8433bb200f948101f5022066f72dafe464aff11c14c40794e05024a170317484590a2c541970314f6f49e0012102e2fe1717c7c3b1d54c29aaa77ccd8270182aa21e8f81aa8a39a2611cc3f1179f00000000"
}