{
  "txid": "160c034564e18d90d6ddcb9eb5abb7724c43b17a69b2953c9b8ff445f06137d3",
  "version": 2,
  "locktime": 834637,
  "vin": [
    {
      "txid": "a0c03d6e5a3a1bdc96c23ffc2055032917f9b1426cb29b93218cbad2e0de23d2",
      "vout": 2,
      "prevout": {
        "scriptpubkey": "0014e7a4777473067dfa17a87ce389d94f5f764aead4",
        "scriptpubkey_asm": "OP_0 OP_PUSHBYTES_20 e7a4777473067dfa17a87ce389d94f5f764aead4",
        "scriptpubkey_type": "v0_p2wpkh",
        "scriptpubkey_address": "bc1qu7j8warnqe7l59ag0n3cnk20tamy46k53gn5u7",
        "value": 10194363
      },
      "scriptsig": "",
      "scriptsig_asm": "",
      "witness": [
        "3044022054af32efca48ee4521f2f2e1b465aa5e3e30cd30a7c1e9d75c1a32e3ee80da90022003a67d4e8a82f060300caada215018bda0a5e638d9e23b3b4cc66c9da8282e4b01",
        "027afe04fab6bb01805e791a66fb1aa04b206aa65a4594e87623a0e3d29702883d"
      ],
      "is_coinbase": false,
      "sequence": 4294967293
    }
  ],
  "vout": [
    {
      "scriptpubkey": "0014fbf3a6945bffbbbf1ae0f05663d6685e66373885",
      "scriptpubkey_asm": "OP_0 OP_PUSHBYTES_20 fbf3a6945bffbbbf1ae0f05663d6685e66373885",
      "scriptpubkey_type": "v0_p2wpkh",
      "scriptpubkey_address": "bc1ql0e6d9zml7am7xhq7ptx84ngtenrwwy9t9cqyy",
      "value": 29400
    },
    {
      "scriptpubkey": "00141d820654537561320f427ea3e0281c94de6f4e9b",
      "scriptpubkey_asm": "OP_0 OP_PUSHBYTES_20 1d820654537561320f427ea3e0281c94de6f4e9b",
      "scriptpubkey_type": "v0_p2wpkh",
      "scriptpubkey_address": "bc1qrkpqv4znw4snyr6z0637q2qujn0x7n5mukhvqf",
      "value": 109832
    },
    {
      "scriptpubkey": "00149e6a7bc59b3906d2275c5fe2e59f97e937f25e7b",
      "scriptpubkey_asm": "OP_0 OP_PUSHBYTES_20 9e6a7bc59b3906d2275c5fe2e59f97e937f25e7b",
      "scriptpubkey_type": "v0_p2wpkh",
      "scriptpubkey_address": "bc1qne48h3vm8yrdyf6utl3wt8uhaymlyhnmkx2sza",
      "value": 10052207
    }
  ],
  "size": 253,
  "weight": 685,
  "fee": 2924,
  "status": {
    "confirmed": true,
    "block_height": 834638,
    "block_hash": "000000000000000000025f742c626208ac87e0b7d15054abb4a19ca2d735a54e",
    "block_time": 1710405325
  },
  "hex": "02000000000101d223dee0d2ba8c21939bb26c42b1f91729035520fc3fc296dc1b3a5a6e3dc0a00200000000fdffffff03d872000000000000160014fbf3a6945bffbbbf1ae0f05663d6685e6637388508ad0100000000001600141d820654537561320f427ea3e0281c94de6f4e9b6f629900000000001600149e6a7bc59b3906d2275c5fe2e59f97e937f25e7b02473044022054af32efca48ee4521f2f2e1b465aa5e3e30cd30a7c1e9d75c1a32e3ee80da90022003a67d4e8a82f060300caada215018bda0a5e638d9e23b3b4cc66c9da8282e4b0121027afe04fab6bb01805e791a66fb1aa04b206aa65a4594e87623a0e3d29702883d4dbc0c00"
}