{
  "txid": "16109de89780244733fd991c3ffac164dc2cc57f0c8c9387bf6fad5a8773d5e5",
  "version": 2,
  "locktime": 0,
  "vin": [
    {
      "txid": "0eddf93f24b2d392cda3aed855586f759c118678ab0fdf1339c1a2f0871fef42",
      "vout": 2,
      "prevout": {
        "scriptpubkey": "51201edb8c769d129d0a4b87e1b216349808bb98907e391163dd531ffc5e54ccb975",
        "scriptpubkey_asm": "OP_PUSHNUM_1 OP_PUSHBYTES_32 1edb8c769d129d0a4b87e1b216349808bb98907e391163dd531ffc5e54ccb975",
        "scriptpubkey_type": "v1_p2tr",
        "scriptpubkey_address": "bc1prmdcca5az2ws5ju8uxepvdycpzae3yr78ygk8h2nrl79u4xvh96sc5cx4v",
        "value": 2834
      },
      "scriptsig": "",
      "scriptsig_asm": "",
      "witness": [
        "40ad5329f9c3798d709aef399850324f6429408c9bb74b6e7c720baa13a8a107ee4165219524eeedcdfaa4db14e95701acda655fbac4308b025fec58271ffb7a",
        "20ff2c668ad98804b95a98a0e9c9bfbf9d1ec6348eab02673239f83bdfcfc52c3dac0063036f726401011e6170706c69636174696f6e2f6a736f6e3b636861727365743d7574662d38004cbf7b2270223a22706f772d3230222c226f70223a226d696e74222c227469636b223a2250455045222c22616d74223a2231303030222c22736f6c7574696f6e223a22504550453a6263317172713238376168727578703271783033726774706379666a327261786e306175667a646a717a3a303030303030303030303030303030303030303139393431613561653132383937363539383134343239323533333030353762306461393666336465613163353a3431303937333738343538227d68",
        "c1f26df831a413724db8123fd1cb518d6560252685500a3c204e36c4bb2a2cc255"
      ],
      "is_coinbase": false,
      "sequence": 4294967295
    }
  ],
  "vout": [
    {
      "scriptpubkey": "001418147f76e3e182a019f11a161c113250fa69bfbc",
      "scriptpubkey_asm": "OP_0 OP_PUSHBYTES_20 18147f76e3e182a019f11a161c113250fa69bfbc",
      "scriptpubkey_type": "v0_p2wpkh",
      "scriptpubkey_address": "bc1qrq287ahruxp2qx03rgtpcyfj2raxn0aufzdjqz",
      "value": 546
    }
  ],
  "size": 455,
  "weight": 701,
  "fee": 2288,
  "status": {
    "confirmed": true,
    "block_height": 834460,
    "block_hash": "00000000000000000000484a79b643b2524bbce82e5d8a442013fa5b8905ed98",
    "block_time": 1710307468
  },
  "hex": "0200000000010142ef1f87f0a2c13913df0fab7886119c756f5855d8aea3cd92d3b2243ff9dd0e0200000000ffffffff01220200000000000016001418147f76e3e182a019f11a161c113250fa69bfbc034040ad5329f9c3798d709aef399850324f6429408c9bb74b6e7c720baa13a8a107ee4165219524eeedcdfaa4db14e95701acda655fbac4308b025fec58271ffb7afd0c0120ff2c668ad98804b95a98a0e9c9bfbf9d1ec6348eab02673239f83bdfcfc52c3dac0063036f726401011e6170706c69636174696f6e2f6a736f6e3b636861727365743d7574662d38004cbf7b2270223a22706f772d3230222c226f70223a226d696e74222c227469636b223a2250455045222c22616d74223a2231303030222c22736f6c7574696f6e223a22504550453a6263317172713238376168727578703271783033726774706379666a327261786e306175667a646a717a3a303030303030303030303030303030303030303139393431613561653132383937363539383134343239323533333030353762306461393666336465613163353a3431303937333738343538227d6821c1f26df831a413724db8123fd1cb518d6560252685500a3c204e36c4bb2a2cc25500000000"
}