{
  "txid": "165ffcf218b4d250aadb2fd12e73fa6f1e87c1c0f5ddc5398722001171439ab4",
  "version": 2,
  "locktime": 0,
  "vin": [
    {
      "txid": "19974325ff81be041e3e3ef606b8982226443c9b134c85707bd00e6bf6164d07",
      "vout": 3,
      "prevout": {
        "scriptpubkey": "5120fce42c7474bacbc65311a81706fecbc46dbc64fc2e3ec84e25b4f307fa3e4dfc",
        "scriptpubkey_asm": "OP_PUSHNUM_1 OP_PUSHBYTES_32 fce42c7474bacbc65311a81706fecbc46dbc64fc2e3ec84e25b4f307fa3e4dfc",
        "scriptpubkey_type": "v1_p2tr",
        "scriptpubkey_address": "bc1plnjzcar5ht9uv5c34qtsdlktc3kmce8u9clvsn39knes0737fh7qk68ph7",
        "value": 600
      },
      "scriptsig": "",
      "scriptsig_asm": "",
      "witness": [
        "6e2fb63fef80f10c7d725a1e5bbfd4de9f5d56062a404b2c72c1da1fcf37b072bab0602cc38a8e54a28d453a0b797af224ba0e2bad09da4d0d497489693e08df"
      ],
      "is_coinbase": false,
      "sequence": 4294967295
    },
    {
      "txid": "19974325ff81be041e3e3ef606b8982226443c9b134c85707bd00e6bf6164d07",
      "vout": 4,
      "prevout": {
        "scriptpubkey": "5120fce42c7474bacbc65311a81706fecbc46dbc64fc2e3ec84e25b4f307fa3e4dfc",
        "scriptpubkey_asm": "OP_PUSHNUM_1 OP_PUSHBYTES_32 fce42c7474bacbc65311a81706fecbc46dbc64fc2e3ec84e25b4f307fa3e4dfc",
        "scriptpubkey_type": "v1_p2tr",
        "scriptpubkey_address": "bc1plnjzcar5ht9uv5c34qtsdlktc3kmce8u9clvsn39knes0737fh7qk68ph7",
        "value": 600
      },
      "scriptsig": "",
      "scriptsig_asm": "",
      "witness": [
        "1df9f55f0f0b649ac131396549f4f2c1f6c9d09857b80341d5260e3ed122c29efc10a5ad4cf8cd97fe7db57f7a986e631c8d54afd7fd0355e8efad1c37b11e83"
      ],
      "is_coinbase": false,
      "sequence": 4294967295
    },
    {
      "txid": "87e7af75f875453562633b0b135fe3462c1675e861fd11e427b55a5d95458f67",
      "vout": 0,
      "prevout": {
        "scriptpubkey": "51209a73204aa6636c0ce234e97fbdab17a4c96daf041142d2e74262a9baf94e6cad",
        "scriptpubkey_asm": "OP_PUSHNUM_1 OP_PUSHBYTES_32 9a73204aa6636c0ce234e97fbdab17a4c96daf041142d2e74262a9baf94e6cad",
        "scriptpubkey_type": "v1_p2tr",
        "scriptpubkey_address": "bc1pnfejqj4xvdkqec35a9lmm2ch5nykmtcyz9pd9e6zv25m472wdjksvkm2sq",
        "value": 546
      },
      "scriptsig": "",
      "scriptsig_asm": "",
      "witness": [
        "0650c61c9c9534a762b3f12ef5ef5307aeb7fa0963a9aa3320870a26915fbabdad9422e0cee0c81edc37fcdbfb059aac6027f910509145a25413c4f6f79fb44783"
      ],
      "is_coinbase": false,
      "sequence": 4294967295
    },
    {
      "txid": "19974325ff81be041e3e3ef606b8982226443c9b134c85707bd00e6bf6164d07",
      "vout": 5,
      "prevout": {
        "scriptpubkey": "5120fce42c7474bacbc65311a81706fecbc46dbc64fc2e3ec84e25b4f307fa3e4dfc",
        "scriptpubkey_asm": "OP_PUSHNUM_1 OP_PUSHBYTES_32 fce42c7474bacbc65311a81706fecbc46dbc64fc2e3ec84e25b4f307fa3e4dfc",
        "scriptpubkey_type": "v1_p2tr",
        "scriptpubkey_address": "bc1plnjzcar5ht9uv5c34qtsdlktc3kmce8u9clvsn39knes0737fh7qk68ph7",
        "value": 176847
      },
      "scriptsig": "",
      "scriptsig_asm": "",
      "witness": [
        "eb4436671e625a394d4575f5e803f8d1593dfa70451883bec65fb5572210c443e3e4ed450da947705e04066729871c1872b5cfb919a6569163a55947be379bae"
      ],
      "is_coinbase": false,
      "sequence": 4294967295
    }
  ],
  "vout": [
    {
      "scriptpubkey": "5120fce42c7474bacbc65311a81706fecbc46dbc64fc2e3ec84e25b4f307fa3e4dfc",
      "scriptpubkey_asm": "OP_PUSHNUM_1 OP_PUSHBYTES_32 fce42c7474bacbc65311a81706fecbc46dbc64fc2e3ec84e25b4f307fa3e4dfc",
      "scriptpubkey_type": "v1_p2tr",
      "scriptpubkey_address": "bc1plnjzcar5ht9uv5c34qtsdlktc3kmce8u9clvsn39knes0737fh7qk68ph7",
      "value": 1200
    },
    {
      "scriptpubkey": "5120fce42c7474bacbc65311a81706fecbc46dbc64fc2e3ec84e25b4f307fa3e4dfc",
      "scriptpubkey_asm": "OP_PUSHNUM_1 OP_PUSHBYTES_32 fce42c7474bacbc65311a81706fecbc46dbc64fc2e3ec84e25b4f307fa3e4dfc",
      "scriptpubkey_type": "v1_p2tr",
      "scriptpubkey_address": "bc1plnjzcar5ht9uv5c34qtsdlktc3kmce8u9clvsn39knes0737fh7qk68ph7",
      "value": 546
    },
    {
      "scriptpubkey": "51209a73204aa6636c0ce234e97fbdab17a4c96daf041142d2e74262a9baf94e6cad",
      "scriptpubkey_asm": "OP_PUSHNUM_1 OP_PUSHBYTES_32 9a73204aa6636c0ce234e97fbdab17a4c96daf041142d2e74262a9baf94e6cad",
      "scriptpubkey_type": "v1_p2tr",
      "scriptpubkey_address": "bc1pnfejqj4xvdkqec35a9lmm2ch5nykmtcyz9pd9e6zv25m472wdjksvkm2sq",
      "value": 159998
    },
    {
      "scriptpubkey": "5120fce42c7474bacbc65311a81706fecbc46dbc64fc2e3ec84e25b4f307fa3e4dfc",
      "scriptpubkey_asm": "OP_PUSHNUM_1 OP_PUSHBYTES_32 fce42c7474bacbc65311a81706fecbc46dbc64fc2e3ec84e25b4f307fa3e4dfc",
      "scriptpubkey_type": "v1_p2tr",
      "scriptpubkey_address": "bc1plnjzcar5ht9uv5c34qtsdlktc3kmce8u9clvsn39knes0737fh7qk68ph7",
      "value": 600
    },
    {
      "scriptpubkey": "5120fce42c7474bacbc65311a81706fecbc46dbc64fc2e3ec84e25b4f307fa3e4dfc",
      "scriptpubkey_asm": "OP_PUSHNUM_1 OP_PUSHBYTES_32 fce42c7474bacbc65311a81706fecbc46dbc64fc2e3ec84e25b4f307fa3e4dfc",
      "scriptpubkey_type": "v1_p2tr",
      "scriptpubkey_address": "bc1plnjzcar5ht9uv5c34qtsdlktc3kmce8u9clvsn39knes0737fh7qk68ph7",
      "value": 600
    },
    {
      "scriptpubkey": "5120fce42c7474bacbc65311a81706fecbc46dbc64fc2e3ec84e25b4f307fa3e4dfc",
      "scriptpubkey_asm": "OP_PUSHNUM_1 OP_PUSHBYTES_32 fce42c7474bacbc65311a81706fecbc46dbc64fc2e3ec84e25b4f307fa3e4dfc",
      "scriptpubkey_type": "v1_p2tr",
      "scriptpubkey_address": "bc1plnjzcar5ht9uv5c34qtsdlktc3kmce8u9clvsn39knes0737fh7qk68ph7",
      "value": 7665
    }
  ],
  "size": 699,
  "weight": 1995,
  "fee": 7984,
  "status": {
    "confirmed": true,
    "block_height": 834638,
    "block_hash": "000000000000000000025f742c626208ac87e0b7d15054abb4a19ca2d735a54e",
    "block_time": 1710405325
  },
  "hex": "02000000000104074d16f66b0ed07b70854c139b3c44262298b806f63e3e1e04be81ff254397190300000000ffffffff074d16f66b0ed07b70854c139b3c44262298b806f63e3e1e04be81ff254397190400000000ffffffff678f45955d5ab527e411fd61e875162c46e35f130b3b6362354575f875afe7870000000000ffffffff074d16f66b0ed07b70854c139b3c44262298b806f63e3e1e04be81ff254397190500000000ffffffff06b004000000000000225120fce42c7474bacbc65311a81706fecbc46dbc64fc2e3ec84e25b4f307fa3e4dfc2202000000000000225120fce42c7474bacbc65311a81706fecbc46dbc64fc2e3ec84e25b4f307fa3e4dfcfe700200000000002251209a73204aa6636c0ce234e97fbdab17a4c96daf041142d2e74262a9baf94e6cad5802000000000000225120fce42c7474bacbc65311a81706fecbc46dbc64fc2e3ec84e25b4f307fa3e4dfc5802000000000000225120fce42c7474bacbc65311a81706fecbc46dbc64fc2e3ec84e25b4f307fa3e4dfcf11d000000000000225120fce42c7474bacbc65311a81706fecbc46dbc64fc2e3ec84e25b4f307fa3e4dfc01406e2fb63fef80f10c7d725a1e5bbfd4de9f5d56062a404b2c72c1da1fcf37b072bab0602cc38a8e54a28d453a0b797af224ba0e2bad09da4d0d497489693e08df01401df9f55f0f0b649ac131396549f4f2c1f6c9d09857b80341d5260e3ed122c29efc10a5ad4cf8cd97fe7db57f7a986e631c8d54afd7fd0355e8efad1c37b11e8301410650c61c9c9534a762b3f12ef5ef5307aeb7fa0963a9aa3320870a26915fbabdad9422e0cee0c81edc37fcdbfb059aac6027f910509145a25413c4f6f79fb447830140eb4436671e625a394d4575f5e803f8d1593dfa70451883bec65fb5572210c443e3e4ed450da947705e04066729871c1872b5cfb919a6569163a55947be379bae00000000"
}