{
  "txid": "16718bad1cbc744cf045988158af9e2ffa02eded398cc08b201f6a39a8a20f51",
  "version": 1,
  "locktime": 0,
  "vin": [
    {
      "txid": "eaf4b61a19f953c68ab629aafc1bf52eaeff06a5f2574c49823be74461043751",
      "vout": 0,
      "prevout": {
        "scriptpubkey": "5120608bcdc5e27d44733b8f0ff5c5a59621e7e5b85c0e5a54847ff56b7056724ede",
        "scriptpubkey_asm": "OP_PUSHNUM_1 OP_PUSHBYTES_32 608bcdc5e27d44733b8f0ff5c5a59621e7e5b85c0e5a54847ff56b7056724ede",
        "scriptpubkey_type": "v1_p2tr",
        "scriptpubkey_address": "bc1pvz9um30z04z8xwu0pl6utfvky8n7twzuped9fprl744hq4njfm0qhm8n0a",
        "value": 2346
      },
      "scriptsig": "",
      "scriptsig_asm": "",
      "witness": [
        "69e9e0f179e6075e88098745681da4b0a0337c17d20f469eedafe8ee495d5682c74f1dd4141e24c596cc9bb3b1c86dcbe0630434232ab424b86a01efbbefb7aa",
        "20f3946a51ed598a43c2a1e5eba35a2a4d96f4bf4fcdc415d5c4eac908bb1343b3ac0063036f726401010a746578742f706c61696e003e7b2270223a226272632d3230222c226f70223a227472616e73666572222c227469636b223a2253415453222c22616d74223a22313030303030303030227d68",
        "c0f3946a51ed598a43c2a1e5eba35a2a4d96f4bf4fcdc415d5c4eac908bb1343b3"
      ],
      "is_coinbase": false,
      "sequence": 4294967293
    }
  ],
  "vout": [
    {
      "scriptpubkey": "5120def26f395491ffab0ac92cde2aebcbf4dc32346fd988522a35649bd0959c4198",
      "scriptpubkey_asm": "OP_PUSHNUM_1 OP_PUSHBYTES_32 def26f395491ffab0ac92cde2aebcbf4dc32346fd988522a35649bd0959c4198",
      "scriptpubkey_type": "v1_p2tr",
      "scriptpubkey_address": "bc1pmmex7w25j8l6kzkf9n0z467t7nwrydr0mxy9y234vjdap9vugxvq967w8a",
      "value": 546
    }
  ],
  "size": 315,
  "weight": 597,
  "fee": 1800,
  "status": {
    "confirmed": true,
    "block_height": 834460,
    "block_hash": "00000000000000000000484a79b643b2524bbce82e5d8a442013fa5b8905ed98",
    "block_time": 1710307468
  },
  "hex": "010000000001015137046144e73b82494c57f2a506ffae2ef51bfcaa29b68ac653f9191ab6f4ea0000000000fdffffff012202000000000000225120def26f395491ffab0ac92cde2aebcbf4dc32346fd988522a35649bd0959c4198034069e9e0f179e6075e88098745681da4b0a0337c17d20f469eedafe8ee495d5682c74f1dd4141e24c596cc9bb3b1c86dcbe0630434232ab424b86a01efbbefb7aa7620f3946a51ed598a43c2a1e5eba35a2a4d96f4bf4fcdc415d5c4eac908bb1343b3ac0063036f726401010a746578742f706c61696e003e7b2270223a226272632d3230222c226f70223a227472616e73666572222c227469636b223a2253415453222c22616d74223a22313030303030303030227d6821c0f3946a51ed598a43c2a1e5eba35a2a4d96f4bf4fcdc415d5c4eac908bb1343b300000000"
}