{
  "txid": "16756221b5f74595cffb914b6b9e15da83bda270dee089caaffc4fbc21a14fac",
  "version": 2,
  "locktime": 0,
  "vin": [
    {
      "txid": "6133613fe0e61fa560b608d47e8c8b4177153c57d0b0ccc604f69954a7ac62af",
      "vout": 0,
      "prevout": {
        "scriptpubkey": "5120a75fc5c0b3227b9d5c5635f7385877ff874df4a9e5e2adf114dd6f479ab7d69d",
        "scriptpubkey_asm": "OP_PUSHNUM_1 OP_PUSHBYTES_32 a75fc5c0b3227b9d5c5635f7385877ff874df4a9e5e2adf114dd6f479ab7d69d",
        "scriptpubkey_type": "v1_p2tr",
        "scriptpubkey_address": "bc1p5a0uts9nyfae6hzkxhmnskrhl7r5ma9fuh32mug5m4h50x4h66ws3gs6l0",
        "value": 21802
      },
      "scriptsig": "",
      "scriptsig_asm": "",
      "witness": [
        "45eee97462d64926f2a04c12bd5a0a34e95109cc00f45b884dd103a7124b4ed714c4fd7bb84ec7c303252e30b9264ad63f121d7712b6f847a829f08a3af884e8",
        "20f2d00e1cce0b839d2e197679cac7a15152ec244338032c7767f72c1332d49a65ac0063036f726401010a696d6167652f6a706567004d0802ffd8ffe000104a46494600010100000100010000ffe201d84943435f50524f46494c45000101000001c800000000043000006d6e74725247422058595a2007e00001000100000000000061637370000000000000000000000000000000000000000000000000000000010000f6d6000100000000d32d0000000000000000000000000000000000000000000000000000000000000000000000000000000000000000000000000000000964657363000000f0000000247258595a00000114000000146758595a00000128000000146258595a0000013c00000014777470740000015000000014725452430000016400000028675452430000016400000028625452430000016400000028637072740000018c0000003c6d6c756300000000000000010000000c656e5553000000080000001c007300520047004258595a200000000000006fa2000038f50000039058595a2000000000000062990000b785000018da58595a2000000000000024a000000f840000b6cf58595a20000000000000f6d6000100000000d32d706172610000000000040000000266660000f2a700000d59000013d000000a5b00000000000000006d6c756300000000000000010000000c656e5553000000200000001c0047006f006f0067006c006500200049006e0063002e00200032003000310036ffdb0043000302020302020303030304030304050805050404054d08020a070706080c0a0c0c0b0a0b0b0d0e12100d0e110e0b0b1016101113141515150c0f171816141812141514ffdb00430103040405040509050509140d0b0d1414141414141414141414141414141414141414141414141414141414141414141414141414141414141414141414141414ffc00011080200020003012200021101031101ffc4001b000100020301010000000000000000000000060905080a0704ffc40014100100000000000000000000000000000000ffc4001b01010003010101010000000000000000000005070906080402ffc40014110100000000000000000000000000000000ffda000c03010002110311003f00aaa0000000000000000000000000000000000000000000000000000000000000000000000000000000000000000000000000000000000000000000000000000000000000000000000000000000000000000000000000000000000000000000000000000000000000000000000000000000000000000000000000000000000000000000000000000000000000000000000000000000000000000000000000000000000000000000000000000000000000000000000000000000000000000000000000000000000000000000000000000000000000000000000000000000000000000000000000000000000000000000000000000000000000000000000000000000000000000000000000000000000000004d0802000000000000000000000000000000000000000000000000000000000000000000000000000000000000000000000000000000000000000000000000000000000000000000000000000000000000000000000000000000000000000000000000000000000000000000000000000000000000000000000000000000000000000000000000000000000000000000000000000000000000000000000000000000000000000000000000000000000000000000000000000000000000000000000000000000000000000000000000000000000000000000000000000000000000000001d0a80cd2704000000000000000000000000e7a80696bbd0000000000000000000000000000000000000000000000000000000000005fd00ce252e000cd808f7569800d357640009000fd8000000000000000000000e66807c8fac0000000000000000000000000000000000000000000017a4033dde540000004a00452c300066c047bab4c0069abb200048007ec000000000000000000000000733403e47d6000000000000000000000000000000000000000000bd2019eef2a000000250022961800336023dd5a60034d5d900024003f6000000000000000000000000399a01f23eb0000000000000000000000000000000000000000005e900cf77950000001280114b0c0019b011eead3001a6aec80012001fb0000000000000000000000001ccd00f91f584d0802000000000000000000000000000000000000000002f48067bbca800000094008a586000cd808f7569680d65542000000000000000000000000000e6f4070ef4d8000000000000000000000000000000000000000000002f48067bbca800000094008a586000cd808f7569680d65542000980084590a02010ab400000000017fa026957a808042ad000000000078500fc3f6000000000000000000000000000000000000000000bd2019eef2a000250022961800336023dd5a8c806983ba0004b40000000000000000000000000000078500fc3f6000000000000000000000000000000000000000000bd2019eef2a000250022961800336023dd5a5a03595508002600211642808042ad00000000005fe809a55ea02010ab40000000001e1403f0fd8000000000000000000000000000000000000000002f48067bbca800094008a586000cd808f7569680d65542000980084590a02010ab400000000017fa026957a808042ad000000000078500fc3f6000000000000000000000000000000000000000000bd2019eef2a000250022961800336023dd5a5a03595508002600211643e2011ab20000000000000000000000001ccd00f91f58000000000000000000000000000000000000000002f48067bbca800094008a586000cd808f7569680d65542000980084590f88046ac80000007da02495b8000003e2011ab20000001ccd00f91f580004d0802000000000000000000000000000000000000002f48067bbca800094008a586000cd808f7569680d65542000980084590f88046ac80000007da02495b8000000003e2011ab20001ccd00f91f58000000000000000000000000000000000000000000002f48067bbca894008a586000cd808f7569680d65542000980084590f88046ac80007da02495b8000000000003e2011ab20001ccd00f91f58000000000000000000000000000000000000000000002f48067bbca894008a586000cd808f7569680d65542000980084590000000000000000000000000e6340412d30000000000000000000000000000000000000000000000005e900cf77951280114b0c0019b011eead2d01acaa84000000000000000001e1e032fd1e94008a586a0501a3aba00000000000000000000000000000000000000000000000017a4033dde540000000000000000000007a180e697700000000000000000000000000000000039ea01a5aef40000000000000000000000000000000017a4033dde540000000000000000000007a180e697700000000000000000000000000000000039ea01a5aef40000000000000000000000000000000017a4033dde540000000000000000000007a180e6977000000364c0696bbd6b600cd2704000000000d9301a5aef5ad803349c100000039ea01a5aef40000000000000000000000000000000017a4033dde540000000004cd20000000000007a180e6977000000364c0696bbd6b600cd2704000000000d9301a5aef5ad803349c100000039ea01a5aef40000000000000000000000000000000017a4033dde540000000000000000000007a180e6977000000364c0696bbd6b600cd2704000000000d9301a5aef5ad803349c100000039ea01a5aef40000000000000000000000000000000017a4033dde540000000000000000000007a180e6977000000364c0696bbd6b600cd2704000000000d9301a5aef5ad803349c100000039ea01a5aef4000000000000001fffd9680063036f726401011e6170706c69636174696f6e2f6a736f6e3b636861727365743d7574662d38004d4c017b2270223a22766f7264222c2276223a312c227479223a22696e7363222c22636f6c223a2230323336303866343162323735633034313737386331353733383530366633633665336536313539646139333364333761343531373566643833313436666237222c22696964223a224e4f4445205341544f534849222c227075626c223a2231455337623370636a527a4667796969714c7278484b546e43686535364c4a485937222c226e6f6e6365223a313630322c226d696e746572223a22626331716a7a79746b7176336c676636756e6b373572367733717364796b63617179637a386b74717472222c22736967223a22484446396e67323472684c5047634161574472524d472b3657766473624e6d364c51686961786a6f464d42305557564e4778716d6b767970676c744f597830564a757a4c6e32396753735675317341505034666e45766b3d227d68",
        "c0f2d00e1cce0b839d2e197679cac7a15152ec244338032c7767f72c1332d49a65675a92934efa5e4869b2432a3e00abfc6819367af43949c2edc693b32d23ac05"
      ],
      "is_coinbase": false,
      "sequence": 4294967293
    }
  ],
  "vout": [
    {
      "scriptpubkey": "00149088bb0191fa13ae4edea0f4e8820d25b1d01302",
      "scriptpubkey_asm": "OP_0 OP_PUSHBYTES_20 9088bb0191fa13ae4edea0f4e8820d25b1d01302",
      "scriptpubkey_type": "v0_p2wpkh",
      "scriptpubkey_address": "bc1qjzytkqv3lgf6unk75r6w3qsdykcaqycz8ktqtr",
      "value": 1000
    },
    {
      "scriptpubkey": "5120690fc8b7fefd11506ba7a7176eca71153a3c0390a407d6de8bb6a33aa12dcdf0",
      "scriptpubkey_asm": "OP_PUSHNUM_1 OP_PUSHBYTES_32 690fc8b7fefd11506ba7a7176eca71153a3c0390a407d6de8bb6a33aa12dcdf0",
      "scriptpubkey_type": "v1_p2tr",
      "scriptpubkey_address": "bc1pdy8u3dl7l5g4q6a85utkajn3z5arcqus5sradh5tk63n4gfdehcqryzwum",
      "value": 6723
    },
    {
      "scriptpubkey": "51200705a5767db892e98125775049b1a13dd9ecdc8aea0df413cabbee683e871012",
      "scriptpubkey_asm": "OP_PUSHNUM_1 OP_PUSHBYTES_32 0705a5767db892e98125775049b1a13dd9ecdc8aea0df413cabbee683e871012",
      "scriptpubkey_type": "v1_p2tr",
      "scriptpubkey_address": "bc1pquz62anahzfwnqf9wagynvdp8hv7ehy2agxlgy72h0hxs058zqfqk8ksyq",
      "value": 2892
    }
  ],
  "size": 3563,
  "weight": 4067,
  "fee": 11187,
  "status": {
    "confirmed": true,
    "block_height": 834464,
    "block_hash": "0000000000000000000177a0869a911a2b65c9bdcd5a8bcb02b68f305bee848e",
    "block_time": 1710308296
  },
  "hex": "02000000000101af62aca75499f604c6ccb0d0573c1577418b8c7ed408b660a51fe6e03f6133610000000000fdffffff03e8030000000000001600149088bb0191fa13ae4edea0f4e8820d25b1d01302431a000000000000225120690fc8b7fefd11506ba7a7176eca71153a3c0390a407d6de8bb6a33aa12dcdf04c0b0000000000002251200705a5767db892e98125775049b1a13dd9ecdc8aea0df413cabbee683e871012034045eee97462d64926f2a04c12bd5a0a34e95109cc00f45b884dd103a7124b4ed714c4fd7bb84ec7c303252e30b9264ad63f121d7712b6f847a829f08a3af884e8fdba0c20f2d00e1cce0b839d2e197679cac7a15152ec244338032c7767f72c1332d49a65ac0063036f726401010a696d6167652f6a706567004d0802ffd8ffe000104a46494600010100000100010000ffe201d84943435f50524f46494c45000101000001c800000000043000006d6e74725247422058595a2007e00001000100000000000061637370000000000000000000000000000000000000000000000000000000010000f6d6000100000000d32d0000000000000000000000000000000000000000000000000000000000000000000000000000000000000000000000000000000964657363000000f0000000247258595a00000114000000146758595a00000128000000146258595a0000013c00000014777470740000015000000014725452430000016400000028675452430000016400000028625452430000016400000028637072740000018c0000003c6d6c756300000000000000010000000c656e5553000000080000001c007300520047004258595a200000000000006fa2000038f50000039058595a2000000000000062990000b785000018da58595a2000000000000024a000000f840000b6cf58595a20000000000000f6d6000100000000d32d706172610000000000040000000266660000f2a700000d59000013d000000a5b00000000000000006d6c756300000000000000010000000c656e5553000000200000001c0047006f006f0067006c006500200049006e0063002e00200032003000310036ffdb0043000302020302020303030304030304050805050404054d08020a070706080c0a0c0c0b0a0b0b0d0e12100d0e110e0b0b1016101113141515150c0f171816141812141514ffdb00430103040405040509050509140d0b0d1414141414141414141414141414141414141414141414141414141414141414141414141414141414141414141414141414ffc00011080200020003012200021101031101ffc4001b000100020301010000000000000000000000060905080a0704ffc40014100100000000000000000000000000000000ffc4001b01010003010101010000000000000000000005070906080402ffc40014110100000000000000000000000000000000ffda000c03010002110311003f00aaa0000000000000000000000000000000000000000000000000000000000000000000000000000000000000000000000000000000000000000000000000000000000000000000000000000000000000000000000000000000000000000000000000000000000000000000000000000000000000000000000000000000000000000000000000000000000000000000000000000000000000000000000000000000000000000000000000000000000000000000000000000000000000000000000000000000000000000000000000000000000000000000000000000000000000000000000000000000000000000000000000000000000000000000000000000000000000000000000000000000000000004d0802000000000000000000000000000000000000000000000000000000000000000000000000000000000000000000000000000000000000000000000000000000000000000000000000000000000000000000000000000000000000000000000000000000000000000000000000000000000000000000000000000000000000000000000000000000000000000000000000000000000000000000000000000000000000000000000000000000000000000000000000000000000000000000000000000000000000000000000000000000000000000000000000000000000000000001d0a80cd2704000000000000000000000000e7a80696bbd0000000000000000000000000000000000000000000000000000000000005fd00ce252e000cd808f7569800d357640009000fd8000000000000000000000e66807c8fac0000000000000000000000000000000000000000000017a4033dde540000004a00452c300066c047bab4c0069abb200048007ec000000000000000000000000733403e47d6000000000000000000000000000000000000000000bd2019eef2a000000250022961800336023dd5a60034d5d900024003f6000000000000000000000000399a01f23eb0000000000000000000000000000000000000000005e900cf77950000001280114b0c0019b011eead3001a6aec80012001fb0000000000000000000000001ccd00f91f584d0802000000000000000000000000000000000000000002f48067bbca800000094008a586000cd808f7569680d65542000000000000000000000000000e6f4070ef4d8000000000000000000000000000000000000000000002f48067bbca800000094008a586000cd808f7569680d65542000980084590a02010ab400000000017fa026957a808042ad000000000078500fc3f6000000000000000000000000000000000000000000bd2019eef2a000250022961800336023dd5a8c806983ba0004b40000000000000000000000000000078500fc3f6000000000000000000000000000000000000000000bd2019eef2a000250022961800336023dd5a5a03595508002600211642808042ad00000000005fe809a55ea02010ab40000000001e1403f0fd8000000000000000000000000000000000000000002f48067bbca800094008a586000cd808f7569680d65542000980084590a02010ab400000000017fa026957a808042ad000000000078500fc3f6000000000000000000000000000000000000000000bd2019eef2a000250022961800336023dd5a5a03595508002600211643e2011ab20000000000000000000000001ccd00f91f58000000000000000000000000000000000000000002f48067bbca800094008a586000cd808f7569680d65542000980084590f88046ac80000007da02495b8000003e2011ab20000001ccd00f91f580004d0802000000000000000000000000000000000000002f48067bbca800094008a586000cd808f7569680d65542000980084590f88046ac80000007da02495b8000000003e2011ab20001ccd00f91f58000000000000000000000000000000000000000000002f48067bbca894008a586000cd808f7569680d65542000980084590f88046ac80007da02495b8000000000003e2011ab20001ccd00f91f58000000000000000000000000000000000000000000002f48067bbca894008a586000cd808f7569680d65542000980084590000000000000000000000000e6340412d30000000000000000000000000000000000000000000000005e900cf77951280114b0c0019b011eead2d01acaa84000000000000000001e1e032fd1e94008a586a0501a3aba00000000000000000000000000000000000000000000000017a4033dde540000000000000000000007a180e697700000000000000000000000000000000039ea01a5aef40000000000000000000000000000000017a4033dde540000000000000000000007a180e697700000000000000000000000000000000039ea01a5aef40000000000000000000000000000000017a4033dde540000000000000000000007a180e6977000000364c0696bbd6b600cd2704000000000d9301a5aef5ad803349c100000039ea01a5aef40000000000000000000000000000000017a4033dde540000000004cd20000000000007a180e6977000000364c0696bbd6b600cd2704000000000d9301a5aef5ad803349c100000039ea01a5aef40000000000000000000000000000000017a4033dde540000000000000000000007a180e6977000000364c0696bbd6b600cd2704000000000d9301a5aef5ad803349c100000039ea01a5aef40000000000000000000000000000000017a4033dde540000000000000000000007a180e6977000000364c0696bbd6b600cd2704000000000d9301a5aef5ad803349c100000039ea01a5aef4000000000000001fffd9680063036f726401011e6170706c69636174696f6e2f6a736f6e3b636861727365743d7574662d38004d4c017b2270223a22766f7264222c2276223a312c227479223a22696e7363222c22636f6c223a2230323336303866343162323735633034313737386331353733383530366633633665336536313539646139333364333761343531373566643833313436666237222c22696964223a224e4f4445205341544f534849222c227075626c223a2231455337623370636a527a4667796969714c7278484b546e43686535364c4a485937222c226e6f6e6365223a313630322c226d696e746572223a22626331716a7a79746b7176336c676636756e6b373572367733717364796b63617179637a386b74717472222c22736967223a22484446396e67323472684c5047634161574472524d472b3657766473624e6d364c51686961786a6f464d42305557564e4778716d6b767970676c744f597830564a757a4c6e32396753735675317341505034666e45766b3d227d6841c0f2d00e1cce0b839d2e197679cac7a15152ec244338032c7767f72c1332d49a65675a92934efa5e4869b2432a3e00abfc6819367af43949c2edc693b32d23ac0500000000"
}