{
  "txid": "16783f0e4a5d86534514280720695825665b2b897b5b1df5e105a1b3b8f4558f",
  "version": 1,
  "locktime": 0,
  "vin": [
    {
      "txid": "37666d40620e231c8c446cf5d030c1a5cba919b75999a67b48aae7bccc6e51dd",
      "vout": 1,
      "prevout": {
        "scriptpubkey": "00144561ebc4a7dbd465c5b062ce54086c6add949aa1",
        "scriptpubkey_asm": "OP_0 OP_PUSHBYTES_20 4561ebc4a7dbd465c5b062ce54086c6add949aa1",
        "scriptpubkey_type": "v0_p2wpkh",
        "scriptpubkey_address": "bc1qg4s7h398m02xt3dsvt89gzrvdtwefx4pg5653n",
        "value": 365861
      },
      "scriptsig": "",
      "scriptsig_asm": "",
      "witness": [
        "3045022100d19daffcb5db10370bd65bc501c28dccf5c008d16ae23d9fe86b6f5b65d1104902200739fb11fa3a8b0d76d77dd8744cce2ec96fe567bc004fcef6c5c281cdbbd4bb01",
        "028ac7dcc72d741fd31398a3d59b6330a39fa0d3afe07aeb322062b9f1933742f6"
      ],
      "is_coinbase": false,
      "sequence": 4294967295
    }
  ],
  "vout": [
    {
      "scriptpubkey": "00149ea9144c63200a629e3672a6fb14a1e014e87158",
      "scriptpubkey_asm": "OP_0 OP_PUSHBYTES_20 9ea9144c63200a629e3672a6fb14a1e014e87158",
      "scriptpubkey_type": "v0_p2wpkh",
      "scriptpubkey_address": "bc1qn653gnrryq9x983kw2n0k99puq2wsu2c8d2eag",
      "value": 89821
    },
    {
      "scriptpubkey": "a91409857928536cace18783eac5aaa06587032425df87",
      "scriptpubkey_asm": "OP_HASH160 OP_PUSHBYTES_20 09857928536cace18783eac5aaa06587032425df OP_EQUAL",
      "scriptpubkey_type": "p2sh",
      "scriptpubkey_address": "32ZMu9z6EyGSzv6R7NN34DmMBJsSSAMaaP",
      "value": 272400
    }
  ],
  "size": 224,
  "weight": 566,
  "fee": 3640,
  "status": {
    "confirmed": true,
    "block_height": 834638,
    "block_hash": "000000000000000000025f742c626208ac87e0b7d15054abb4a19ca2d735a54e",
    "block_time": 1710405325
  },
  "hex": "01000000000101dd516eccbce7aa487ba69959b719a9cba5c130d0f56c448c1c230e62406d66370100000000ffffffff02dd5e0100000000001600149ea9144c63200a629e3672a6fb14a1e014e87158102804000000000017a91409857928536cace18783eac5aaa06587032425df8702483045022100d19daffcb5db10370bd65bc501c28dccf5c008d16ae23d9fe86b6f5b65d1104902200739fb11fa3a8b0d76d77dd8744cce2ec96fe567bc004fcef6c5c281cdbbd4bb0121028ac7dcc72d741fd31398a3d59b6330a39fa0d3afe07aeb322062b9f1933742f600000000"
}