{
  "txid": "167feaf0674f7d6e99943920438688edfbb2c7f031e0aee4b03f2843c369222a",
  "version": 2,
  "locktime": 0,
  "vin": [
    {
      "txid": "246d654c08ac53d370d501753f3ac2c90861e2c8cea715ed4b7554841cced399",
      "vout": 25,
      "prevout": {
        "scriptpubkey": "5120bbeb2fe2a319e160c2ff3c289b6e09332f1a03873858f347eb8993a9aa216cd8",
        "scriptpubkey_asm": "OP_PUSHNUM_1 OP_PUSHBYTES_32 bbeb2fe2a319e160c2ff3c289b6e09332f1a03873858f347eb8993a9aa216cd8",
        "scriptpubkey_type": "v1_p2tr",
        "scriptpubkey_address": "bc1ph04jlc4rr8skpshl8s5fkmsfxvh35qu88pv0x3lt3xf6n23pdnvqdwlu47",
        "value": 3055
      },
      "scriptsig": "",
      "scriptsig_asm": "",
      "witness": [
        "97eb3db76a5745f2263daedb02393c7bdd6960ff4a620deaafd6e61a63a5364d35c41ef5cd2daf650762fd614e394d373fdc1cfe3bac3c03a6bf14887bef0805",
        "20d6d25cbcffb887db62c4995d59ecabf6d38bc566117db441866365ef49d62ddaac0063036f726401011e6170706c69636174696f6e2f6a736f6e3b636861727365743d7574662d38004cd37b2270223a22706f772d3230222c226f70223a226d696e74222c227469636b223a2250455045222c22616d74223a2231303030222c22736f6c7574696f6e223a22504550453a62633170756a666d33753333656e70786b38383339796c6b3239323239396b6e6467686c717468396e39647a6c7663647635617076366a717732776e71663a303030303030303030303030303030303030303139393431613561653132383937363539383134343239323533333030353762306461393666336465613163353a3439333136333036313733227d68",
        "c1f4929cb66946e40c5d3e5e2b126f88b9a6070d7490abd3aa8e42bf5bbcfe7b9f"
      ],
      "is_coinbase": false,
      "sequence": 4294967295
    }
  ],
  "vout": [
    {
      "scriptpubkey": "5120e493b8f231ccc26b1cf1293f65154a296d36a2ff02ee5995a2fb30d653a166a4",
      "scriptpubkey_asm": "OP_PUSHNUM_1 OP_PUSHBYTES_32 e493b8f231ccc26b1cf1293f65154a296d36a2ff02ee5995a2fb30d653a166a4",
      "scriptpubkey_type": "v1_p2tr",
      "scriptpubkey_address": "bc1pujfm3u33enpxk8839ylk292299kndghlqth9n9dzlvcdv5apv6jqw2wnqf",
      "value": 546
    }
  ],
  "size": 487,
  "weight": 769,
  "fee": 2509,
  "status": {
    "confirmed": true,
    "block_height": 834460,
    "block_hash": "00000000000000000000484a79b643b2524bbce82e5d8a442013fa5b8905ed98",
    "block_time": 1710307468
  },
  "hex": "0200000000010199d3ce1c8454754bed15a7cec8e26108c9c23a3f7501d570d353ac084c656d241900000000ffffffff012202000000000000225120e493b8f231ccc26b1cf1293f65154a296d36a2ff02ee5995a2fb30d653a166a4034097eb3db76a5745f2263daedb02393c7bdd6960ff4a620deaafd6e61a63a5364d35c41ef5cd2daf650762fd614e394d373fdc1cfe3bac3c03a6bf14887bef0805fd200120d6d25cbcffb887db62c4995d59ecabf6d38bc566117db441866365ef49d62ddaac0063036f726401011e6170706c69636174696f6e2f6a736f6e3b636861727365743d7574662d38004cd37b2270223a22706f772d3230222c226f70223a226d696e74222c227469636b223a2250455045222c22616d74223a2231303030222c22736f6c7574696f6e223a22504550453a62633170756a666d33753333656e70786b38383339796c6b3239323239396b6e6467686c717468396e39647a6c7663647635617076366a717732776e71663a303030303030303030303030303030303030303139393431613561653132383937363539383134343239323533333030353762306461393666336465613163353a3439333136333036313733227d6821c1f4929cb66946e40c5d3e5e2b126f88b9a6070d7490abd3aa8e42bf5bbcfe7b9f00000000"
}