{
  "txid": "168ac419c605703c4121d1d21c8c3040150967ad41f78747c1a6746beae0c89d",
  "version": 2,
  "locktime": 0,
  "vin": [
    {
      "txid": "acc3ba00869acb582a3f2904ce3a11dd3779350ce234063fc7d0959246213364",
      "vout": 211,
      "prevout": {
        "scriptpubkey": "5120e397974495445af3cae4cebe3208fbfb5cc9166119001e23be8317cded1a030e",
        "scriptpubkey_asm": "OP_PUSHNUM_1 OP_PUSHBYTES_32 e397974495445af3cae4cebe3208fbfb5cc9166119001e23be8317cded1a030e",
        "scriptpubkey_type": "v1_p2tr",
        "scriptpubkey_address": "bc1puwtew3y4g3d08jhye6lryz8mldwvj9npryqpuga7svtummg6qv8qljfgq5",
        "value": 1806
      },
      "scriptsig": "",
      "scriptsig_asm": "",
      "witness": [
        "0c5ca6d3baeca291b60ee520612b796b43faf6b78c6a89d29e77225f3195f977bf26ff77234c660f63f93ba23607751fda91a40a574d3a67a0b3190ec035290e",
        "20828893c69866cb401c89f00ab18470b0c43223759ace7ba8ea23199fc7671808ac0063036f726401010a746578742f706c61696e00357b2270223a226272632d3230222c226f70223a226d696e74222c227469636b223a22646f6765222c22616d74223a2234323030227d68",
        "c1828893c69866cb401c89f00ab18470b0c43223759ace7ba8ea23199fc7671808"
      ],
      "is_coinbase": false,
      "sequence": 4261412863
    }
  ],
  "vout": [
    {
      "scriptpubkey": "00147a665de7a370f4c9b372ab1fae587500a5bcbdb4",
      "scriptpubkey_asm": "OP_0 OP_PUSHBYTES_20 7a665de7a370f4c9b372ab1fae587500a5bcbdb4",
      "scriptpubkey_type": "v0_p2wpkh",
      "scriptpubkey_address": "bc1q0fn9mearwr6vnvmj4v06ukr4qzjme0d565dzcx",
      "value": 294
    }
  ],
  "size": 294,
  "weight": 540,
  "fee": 1512,
  "status": {
    "confirmed": true,
    "block_height": 834460,
    "block_hash": "00000000000000000000484a79b643b2524bbce82e5d8a442013fa5b8905ed98",
    "block_time": 1710307468
  },
  "hex": "02000000000101643321469295d0c73f0634e20c357937dd113ace04293f2a58cb9a8600bac3acd300000000fffffffd0126010000000000001600147a665de7a370f4c9b372ab1fae587500a5bcbdb403400c5ca6d3baeca291b60ee520612b796b43faf6b78c6a89d29e77225f3195f977bf26ff77234c660f63f93ba23607751fda91a40a574d3a67a0b3190ec035290e6d20828893c69866cb401c89f00ab18470b0c43223759ace7ba8ea23199fc7671808ac0063036f726401010a746578742f706c61696e00357b2270223a226272632d3230222c226f70223a226d696e74222c227469636b223a22646f6765222c22616d74223a2234323030227d6821c1828893c69866cb401c89f00ab18470b0c43223759ace7ba8ea23199fc767180800000000"
}