{
  "txid": "16cad399dfcb453dddcd6869f3e7a379a1e61907e0e53c794dd8454e8542d26c",
  "version": 2,
  "locktime": 0,
  "vin": [
    {
      "txid": "24038d8f1b1b3621b211097aaf658d3453f2e347333521d03bd5c8e9fdf1e54c",
      "vout": 3,
      "prevout": {
        "scriptpubkey": "5120478bad54632491f90c1da091e4b701d39d3ffacd0b6b074f18fcf663c11a333a",
        "scriptpubkey_asm": "OP_PUSHNUM_1 OP_PUSHBYTES_32 478bad54632491f90c1da091e4b701d39d3ffacd0b6b074f18fcf663c11a333a",
        "scriptpubkey_type": "v1_p2tr",
        "scriptpubkey_address": "bc1pg79664rryjgljrqa5zg7fdcp6wwnl7kdpd4swncclnmx8sg6xvaqwzgkdu",
        "value": 600
      },
      "scriptsig": "",
      "scriptsig_asm": "",
      "witness": [
        "9de696853432833df2029fc37a7b937d6b1e8bc0db66085ace0ae47485b045576d4a378c9d2a9043103b1c0ef6a1d53e2d6ffb3683766c05b0fc5f7d461b8c56"
      ],
      "is_coinbase": false,
      "sequence": 4294967295
    },
    {
      "txid": "d00ae30f4dd43f36ce385398acee19cc6c26853a3be2dfe35446336362a3fd0b",
      "vout": 3,
      "prevout": {
        "scriptpubkey": "5120478bad54632491f90c1da091e4b701d39d3ffacd0b6b074f18fcf663c11a333a",
        "scriptpubkey_asm": "OP_PUSHNUM_1 OP_PUSHBYTES_32 478bad54632491f90c1da091e4b701d39d3ffacd0b6b074f18fcf663c11a333a",
        "scriptpubkey_type": "v1_p2tr",
        "scriptpubkey_address": "bc1pg79664rryjgljrqa5zg7fdcp6wwnl7kdpd4swncclnmx8sg6xvaqwzgkdu",
        "value": 600
      },
      "scriptsig": "",
      "scriptsig_asm": "",
      "witness": [
        "51464cd52e7c6245e8f5cfc6d74d9c058bab662d0abf66a4a44b3e147a2a4c0c67d45aa48872f707310b9e25b579fac0a739ba107467bf42877dc0a76b6b5f72"
      ],
      "is_coinbase": false,
      "sequence": 4294967295
    },
    {
      "txid": "ce6e7930c719ca9b0bedb2e566e63af2373c2080b19803d95c4f79880148114e",
      "vout": 0,
      "prevout": {
        "scriptpubkey": "5120d99e5cc76bb034cc956de0d8ec302bffe1f0ee0cca9658b1f5a31f98e4489ab3",
        "scriptpubkey_asm": "OP_PUSHNUM_1 OP_PUSHBYTES_32 d99e5cc76bb034cc956de0d8ec302bffe1f0ee0cca9658b1f5a31f98e4489ab3",
        "scriptpubkey_type": "v1_p2tr",
        "scriptpubkey_address": "bc1pmx09e3mtkq6ve9tdurvwcvptllslpmsve2t93v045v0e3ezgn2esp7g28w",
        "value": 546
      },
      "scriptsig": "",
      "scriptsig_asm": "",
      "witness": [
        "913071c2c01ce88511dcdbd49647a2f271211d1ebf926da0445b54de4f88dbd19a63e7674635640f503874328d19a376686fda7d6bd6f6a1826e3d0f6583980983"
      ],
      "is_coinbase": false,
      "sequence": 4294967295
    },
    {
      "txid": "ed6f73537e678b5b433a00318a246558256c7a3776eb2de01be611bea43b60d0",
      "vout": 7,
      "prevout": {
        "scriptpubkey": "5120478bad54632491f90c1da091e4b701d39d3ffacd0b6b074f18fcf663c11a333a",
        "scriptpubkey_asm": "OP_PUSHNUM_1 OP_PUSHBYTES_32 478bad54632491f90c1da091e4b701d39d3ffacd0b6b074f18fcf663c11a333a",
        "scriptpubkey_type": "v1_p2tr",
        "scriptpubkey_address": "bc1pg79664rryjgljrqa5zg7fdcp6wwnl7kdpd4swncclnmx8sg6xvaqwzgkdu",
        "value": 4171573
      },
      "scriptsig": "",
      "scriptsig_asm": "",
      "witness": [
        "f7dcf3c3ddf7328087e2aa69c8c66ff9a147a681e55cc63770c67df2fe34d04956ff96f8131fdc62527498949762df75918e40e7ba83efe1c6a3d115a249ccaa"
      ],
      "is_coinbase": false,
      "sequence": 4294967295
    }
  ],
  "vout": [
    {
      "scriptpubkey": "5120478bad54632491f90c1da091e4b701d39d3ffacd0b6b074f18fcf663c11a333a",
      "scriptpubkey_asm": "OP_PUSHNUM_1 OP_PUSHBYTES_32 478bad54632491f90c1da091e4b701d39d3ffacd0b6b074f18fcf663c11a333a",
      "scriptpubkey_type": "v1_p2tr",
      "scriptpubkey_address": "bc1pg79664rryjgljrqa5zg7fdcp6wwnl7kdpd4swncclnmx8sg6xvaqwzgkdu",
      "value": 1200
    },
    {
      "scriptpubkey": "5120478bad54632491f90c1da091e4b701d39d3ffacd0b6b074f18fcf663c11a333a",
      "scriptpubkey_asm": "OP_PUSHNUM_1 OP_PUSHBYTES_32 478bad54632491f90c1da091e4b701d39d3ffacd0b6b074f18fcf663c11a333a",
      "scriptpubkey_type": "v1_p2tr",
      "scriptpubkey_address": "bc1pg79664rryjgljrqa5zg7fdcp6wwnl7kdpd4swncclnmx8sg6xvaqwzgkdu",
      "value": 546
    },
    {
      "scriptpubkey": "5120d99e5cc76bb034cc956de0d8ec302bffe1f0ee0cca9658b1f5a31f98e4489ab3",
      "scriptpubkey_asm": "OP_PUSHNUM_1 OP_PUSHBYTES_32 d99e5cc76bb034cc956de0d8ec302bffe1f0ee0cca9658b1f5a31f98e4489ab3",
      "scriptpubkey_type": "v1_p2tr",
      "scriptpubkey_address": "bc1pmx09e3mtkq6ve9tdurvwcvptllslpmsve2t93v045v0e3ezgn2esp7g28w",
      "value": 3431331
    },
    {
      "scriptpubkey": "5120478bad54632491f90c1da091e4b701d39d3ffacd0b6b074f18fcf663c11a333a",
      "scriptpubkey_asm": "OP_PUSHNUM_1 OP_PUSHBYTES_32 478bad54632491f90c1da091e4b701d39d3ffacd0b6b074f18fcf663c11a333a",
      "scriptpubkey_type": "v1_p2tr",
      "scriptpubkey_address": "bc1pg79664rryjgljrqa5zg7fdcp6wwnl7kdpd4swncclnmx8sg6xvaqwzgkdu",
      "value": 600
    },
    {
      "scriptpubkey": "5120478bad54632491f90c1da091e4b701d39d3ffacd0b6b074f18fcf663c11a333a",
      "scriptpubkey_asm": "OP_PUSHNUM_1 OP_PUSHBYTES_32 478bad54632491f90c1da091e4b701d39d3ffacd0b6b074f18fcf663c11a333a",
      "scriptpubkey_type": "v1_p2tr",
      "scriptpubkey_address": "bc1pg79664rryjgljrqa5zg7fdcp6wwnl7kdpd4swncclnmx8sg6xvaqwzgkdu",
      "value": 600
    },
    {
      "scriptpubkey": "5120478bad54632491f90c1da091e4b701d39d3ffacd0b6b074f18fcf663c11a333a",
      "scriptpubkey_asm": "OP_PUSHNUM_1 OP_PUSHBYTES_32 478bad54632491f90c1da091e4b701d39d3ffacd0b6b074f18fcf663c11a333a",
      "scriptpubkey_type": "v1_p2tr",
      "scriptpubkey_address": "bc1pg79664rryjgljrqa5zg7fdcp6wwnl7kdpd4swncclnmx8sg6xvaqwzgkdu",
      "value": 731557
    }
  ],
  "size": 699,
  "weight": 1995,
  "fee": 7485,
  "status": {
    "confirmed": true,
    "block_height": 834460,
    "block_hash": "00000000000000000000484a79b643b2524bbce82e5d8a442013fa5b8905ed98",
    "block_time": 1710307468
  },
  "hex": "020000000001044ce5f1fde9c8d53bd021353347e3f253348d65af7a0911b221361b1b8f8d03240300000000ffffffff0bfda36263334654e3dfe23b3a85266ccc19eeac985338ce363fd44d0fe30ad00300000000ffffffff4e11480188794f5cd90398b180203c37f23ae666e5b2ed0b9bca19c730796ece0000000000ffffffffd0603ba4be11e61be02deb76377a6c255865248a31003a435b8b677e53736fed0700000000ffffffff06b004000000000000225120478bad54632491f90c1da091e4b701d39d3ffacd0b6b074f18fcf663c11a333a2202000000000000225120478bad54632491f90c1da091e4b701d39d3ffacd0b6b074f18fcf663c11a333aa35b340000000000225120d99e5cc76bb034cc956de0d8ec302bffe1f0ee0cca9658b1f5a31f98e4489ab35802000000000000225120478bad54632491f90c1da091e4b701d39d3ffacd0b6b074f18fcf663c11a333a5802000000000000225120478bad54632491f90c1da091e4b701d39d3ffacd0b6b074f18fcf663c11a333aa5290b0000000000225120478bad54632491f90c1da091e4b701d39d3ffacd0b6b074f18fcf663c11a333a01409de696853432833df2029fc37a7b937d6b1e8bc0db66085ace0ae47485b045576d4a378c9d2a9043103b1c0ef6a1d53e2d6ffb3683766c05b0fc5f7d461b8c56014051464cd52e7c6245e8f5cfc6d74d9c058bab662d0abf66a4a44b3e147a2a4c0c67d45aa48872f707310b9e25b579fac0a739ba107467bf42877dc0a76b6b5f720141913071c2c01ce88511dcdbd49647a2f271211d1ebf926da0445b54de4f88dbd19a63e7674635640f503874328d19a376686fda7d6bd6f6a1826e3d0f65839809830140f7dcf3c3ddf7328087e2aa69c8c66ff9a147a681e55cc63770c67df2fe34d04956ff96f8131fdc62527498949762df75918e40e7ba83efe1c6a3d115a249ccaa00000000"
}