{
  "txid": "16d99335dd5705186137eb676101a21c79649df906bc3cc1407c884712d76456",
  "version": 2,
  "locktime": 0,
  "vin": [
    {
      "txid": "a24f04b8fa199d9706812158abeb694048a93c97780346b830ac27d6ed8691c9",
      "vout": 1,
      "prevout": {
        "scriptpubkey": "0014c75ae84d1d0c3736c80d2d88eb72728fdd6ae0db",
        "scriptpubkey_asm": "OP_0 OP_PUSHBYTES_20 c75ae84d1d0c3736c80d2d88eb72728fdd6ae0db",
        "scriptpubkey_type": "v0_p2wpkh",
        "scriptpubkey_address": "bc1qcadwsngapsmndjqd9kywkunj3lwk4cxmysrmks",
        "value": 7448608
      },
      "scriptsig": "",
      "scriptsig_asm": "",
      "witness": [
        "304402200e8e7bc746191c0bd40982d8bdd54d3d53d82237679efb0ea178591100d7c33c02201cbf620845364939a1599a295fc8462f8bfb0c36f9f89daf665b9d466e9e4d1201",
        "03117c84fdee807fd57bcac0f9be0d861f03a5f0c14612f79afbe75a2684764a41"
      ],
      "is_coinbase": false,
      "sequence": 4294967295
    }
  ],
  "vout": [
    {
      "scriptpubkey": "0014f490ad702852b300015c8ab79b32aeef42a44bb6",
      "scriptpubkey_asm": "OP_0 OP_PUSHBYTES_20 f490ad702852b300015c8ab79b32aeef42a44bb6",
      "scriptpubkey_type": "v0_p2wpkh",
      "scriptpubkey_address": "bc1q7jg26upg22esqq2u32mekv4waap2gjak6znqsw",
      "value": 2878196
    },
    {
      "scriptpubkey": "0014fce6117681e93e097809729529b6fbcea9b85da8",
      "scriptpubkey_asm": "OP_0 OP_PUSHBYTES_20 fce6117681e93e097809729529b6fbcea9b85da8",
      "scriptpubkey_type": "v0_p2wpkh",
      "scriptpubkey_address": "bc1qlnnpza5paylqj7qfw22jndhme65mshdgqgwjvk",
      "value": 4566645
    }
  ],
  "size": 222,
  "weight": 561,
  "fee": 3767,
  "status": {
    "confirmed": true,
    "block_height": 834552,
    "block_hash": "00000000000000000001dd0468a70c94f619251d286585cff57aeb4bd9ede330",
    "block_time": 1710355598
  },
  "hex": "02000000000101c99186edd627ac30b8460378973ca9484069ebab58218106979d19fab8044fa20100000000ffffffff02f4ea2b0000000000160014f490ad702852b300015c8ab79b32aeef42a44bb675ae450000000000160014fce6117681e93e097809729529b6fbcea9b85da80247304402200e8e7bc746191c0bd40982d8bdd54d3d53d82237679efb0ea178591100d7c33c02201cbf620845364939a1599a295fc8462f8bfb0c36f9f89daf665b9d466e9e4d12012103117c84fdee807fd57bcac0f9be0d861f03a5f0c14612f79afbe75a2684764a4100000000"
}