{
  "txid": "16ecfffad79be11e1f94fe16e0dc0273b9ef018146caf14bc2cbaddbbc67b6ec",
  "version": 2,
  "locktime": 0,
  "vin": [
    {
      "txid": "8486ecb4df0880316dd6e82b3971b4df187aff23765bc3a47f8d78bb53aa273c",
      "vout": 52,
      "prevout": {
        "scriptpubkey": "51208f9076d66e26972943eb47ade8073bf549528cfe7d8afbaf8e90ce9b1a5c7137",
        "scriptpubkey_asm": "OP_PUSHNUM_1 OP_PUSHBYTES_32 8f9076d66e26972943eb47ade8073bf549528cfe7d8afbaf8e90ce9b1a5c7137",
        "scriptpubkey_type": "v1_p2tr",
        "scriptpubkey_address": "bc1p37g8d4nwy6tjjsltg7k7spem74y49r870k90htuwjr8fkxjuwymsgdn2pd",
        "value": 2575
      },
      "scriptsig": "",
      "scriptsig_asm": "",
      "witness": [
        "db061820848d7e7aeff5d3ab040e1c44457021b0d5aa2fe469c9e3f0d5cd7f53a857c723d8c71280a59e81da523fd636b4e2f92ef3681815d195572a5aad41f8",
        "20153e8e48959d04daf8a4c03554a96db21a70a0e4392f6d7d772007faa8dc0100ac0063036f726401010a746578742f706c61696e00367b2270223a226272632d3230222c226f70223a226d696e74222c227469636b223a2261616161222c22616d74223a223130303030227d68",
        "c0153e8e48959d04daf8a4c03554a96db21a70a0e4392f6d7d772007faa8dc0100"
      ],
      "is_coinbase": false,
      "sequence": 4261412863
    }
  ],
  "vout": [
    {
      "scriptpubkey": "0014ddd7ef12ea6f78edcc1e8e7afa12c01ab59f3339",
      "scriptpubkey_asm": "OP_0 OP_PUSHBYTES_20 ddd7ef12ea6f78edcc1e8e7afa12c01ab59f3339",
      "scriptpubkey_type": "v0_p2wpkh",
      "scriptpubkey_address": "bc1qmht77yh2dauwmnq73ea05ykqr26e7veea8spz6",
      "value": 546
    }
  ],
  "size": 295,
  "weight": 541,
  "fee": 2029,
  "status": {
    "confirmed": true,
    "block_height": 834460,
    "block_hash": "00000000000000000000484a79b643b2524bbce82e5d8a442013fa5b8905ed98",
    "block_time": 1710307468
  },
  "hex": "020000000001013c27aa53bb788d7fa4c35b7623ff7a18dfb471392be8d66d318008dfb4ec86843400000000fffffffd012202000000000000160014ddd7ef12ea6f78edcc1e8e7afa12c01ab59f33390340db061820848d7e7aeff5d3ab040e1c44457021b0d5aa2fe469c9e3f0d5cd7f53a857c723d8c71280a59e81da523fd636b4e2f92ef3681815d195572a5aad41f86e20153e8e48959d04daf8a4c03554a96db21a70a0e4392f6d7d772007faa8dc0100ac0063036f726401010a746578742f706c61696e00367b2270223a226272632d3230222c226f70223a226d696e74222c227469636b223a2261616161222c22616d74223a223130303030227d6821c0153e8e48959d04daf8a4c03554a96db21a70a0e4392f6d7d772007faa8dc010000000000"
}