{
  "txid": "16eff1df7b6dbbf538c53d2862c848da9693fe29166753ea1f32d25544b6d86b",
  "version": 1,
  "locktime": 0,
  "vin": [
    {
      "txid": "30f084abfa05053fa8669ebd1b88a75db76576408a8ec055416a481b92e5920e",
      "vout": 1,
      "prevout": {
        "scriptpubkey": "76a914f4350e7af27adf2e0ca2e442704993243f4c7e7488ac",
        "scriptpubkey_asm": "OP_DUP OP_HASH160 OP_PUSHBYTES_20 f4350e7af27adf2e0ca2e442704993243f4c7e74 OP_EQUALVERIFY OP_CHECKSIG",
        "scriptpubkey_type": "p2pkh",
        "scriptpubkey_address": "1PGFSEzgLc4ekPxQAMHBhbq9S4JkNAMa2g",
        "value": 127581
      },
      "scriptsig": "463043021f7698040dd5ff634e1fc218359342f1dc3d95d1494376e080f7ed516273dabc0220747d2cb06e1e8ff7e315db5f1b1c6d3a49a7999749b553f761d3a57f83a0d8eb012102399b133038d7deb14db01b5b76dad206f36a2f9a6a7f9b3e1d5647e3f9f00263",
      "scriptsig_asm": "OP_PUSHBYTES_70 3043021f7698040dd5ff634e1fc218359342f1dc3d95d1494376e080f7ed516273dabc0220747d2cb06e1e8ff7e315db5f1b1c6d3a49a7999749b553f761d3a57f83a0d8eb01 OP_PUSHBYTES_33 02399b133038d7deb14db01b5b76dad206f36a2f9a6a7f9b3e1d5647e3f9f00263",
      "is_coinbase": false,
      "sequence": 4294967295
    }
  ],
  "vout": [
    {
      "scriptpubkey": "a914ce88e433bf24bbb955b22093312db8e78f4dcda487",
      "scriptpubkey_asm": "OP_HASH160 OP_PUSHBYTES_20 ce88e433bf24bbb955b22093312db8e78f4dcda4 OP_EQUAL",
      "scriptpubkey_type": "p2sh",
      "scriptpubkey_address": "3LX57SegNt5zFCmxVHJWBFpfN38wtdDuhk",
      "value": 120171
    }
  ],
  "size": 188,
  "weight": 752,
  "fee": 7410,
  "status": {
    "confirmed": true,
    "block_height": 834638,
    "block_hash": "000000000000000000025f742c626208ac87e0b7d15054abb4a19ca2d735a54e",
    "block_time": 1710405325
  },
  "hex": "01000000010e92e5921b486a4155c08e8a407665b75da7881bbd9e66a83f0505faab84f0300100000069463043021f7698040dd5ff634e1fc218359342f1dc3d95d1494376e080f7ed516273dabc0220747d2cb06e1e8ff7e315db5f1b1c6d3a49a7999749b553f761d3a57f83a0d8eb012102399b133038d7deb14db01b5b76dad206f36a2f9a6a7f9b3e1d5647e3f9f00263ffffffff016bd501000000000017a914ce88e433bf24bbb955b22093312db8e78f4dcda48700000000"
}