{
  "txid": "16f7b3c2975183b8940328b9349c0ee4380bf743b605d2d888fca3fb5dcfd302",
  "version": 1,
  "locktime": 0,
  "vin": [
    {
      "txid": "970322cb730ab10e15d33bc9348b9426432fffdf2d662bd7c82594c61d1520cf",
      "vout": 5,
      "prevout": {
        "scriptpubkey": "a914f43e8b9043563ce153422838c0d8d106c5ce3a5287",
        "scriptpubkey_asm": "OP_HASH160 OP_PUSHBYTES_20 f43e8b9043563ce153422838c0d8d106c5ce3a52 OP_EQUAL",
        "scriptpubkey_type": "p2sh",
        "scriptpubkey_address": "3PxTj4iq86gvHgjaUZwDBbQrqcsEZgNgdi",
        "value": 533494000
      },
      "scriptsig": "160014de2de1a756a9e19b08f96adf0efc247df5c6d12c",
      "scriptsig_asm": "OP_PUSHBYTES_22 0014de2de1a756a9e19b08f96adf0efc247df5c6d12c",
      "witness": [
        "304402206e2c9dcbda8e87e5109aefa0dcddb54b87180b0f7e729151f009da1ae8231a8702200cc177a7379fed96d3b713fb2c7525c1d037ec15c266af734bf4fd91fed8356e01",
        "02189f4dcca5204c060382c331b96c645e74d593764f2b523e651971d6411d7b30"
      ],
      "is_coinbase": false,
      "sequence": 4294967295,
      "inner_redeemscript_asm": "OP_0 OP_PUSHBYTES_20 de2de1a756a9e19b08f96adf0efc247df5c6d12c"
    },
    {
      "txid": "673cb56397ee8d1fbcfca9d045171ea660b5d951fd5e939c6e9b5a06838d5f4e",
      "vout": 2,
      "prevout": {
        "scriptpubkey": "a9146e607c623e8e9ace6c0160f6de2757d8598bfe3f87",
        "scriptpubkey_asm": "OP_HASH160 OP_PUSHBYTES_20 6e607c623e8e9ace6c0160f6de2757d8598bfe3f OP_EQUAL",
        "scriptpubkey_type": "p2sh",
        "scriptpubkey_address": "3BkdqbpZBhRfsn5kAZJu9HKNXY27n2eWnT",
        "value": 380738984
      },
      "scriptsig": "16001459664ff0a6512f074e68b4625da9741ea988dc3f",
      "scriptsig_asm": "OP_PUSHBYTES_22 001459664ff0a6512f074e68b4625da9741ea988dc3f",
      "witness": [
        "304402207c96c73f7e0db98bc8860244071d8da1b4f3b79b10bb248a3997213cc7ca563902201d29c2ec55e4109cc17b03d5a1ea389a3f87043b249716b3cfb6d9285eff0c2901",
        "0367f6f1eb97c22704a8e9c5740d2b60fc60f1b451125a8191f34a61da9130f1d4"
      ],
      "is_coinbase": false,
      "sequence": 4294967295,
      "inner_redeemscript_asm": "OP_0 OP_PUSHBYTES_20 59664ff0a6512f074e68b4625da9741ea988dc3f"
    },
    {
      "txid": "2745aaf7e7455145f513bfc36b21a4af8a42c529454b1de009b526004e0dbdd1",
      "vout": 2,
      "prevout": {
        "scriptpubkey": "a914c58cfc481a7fb42ae2d9d9ad51232c99f3b5c88a87",
        "scriptpubkey_asm": "OP_HASH160 OP_PUSHBYTES_20 c58cfc481a7fb42ae2d9d9ad51232c99f3b5c88a OP_EQUAL",
        "scriptpubkey_type": "p2sh",
        "scriptpubkey_address": "3KhZwBDLMwyuonXorSbTqvCUofsBwJHTK5",
        "value": 752566370
      },
      "scriptsig": "160014abef55b448d2d997e13305f56c93e165f4d9b973",
      "scriptsig_asm": "OP_PUSHBYTES_22 0014abef55b448d2d997e13305f56c93e165f4d9b973",
      "witness": [
        "3045022100e924bb3013cfbfc8f9e5da1bbb5d336a47ce56bf69642a50673b3f86af0185bc02206b2b321196ce6967e5a8c1619630bb9300e05e72a58e8d0559ca987f5bfd674301",
        "03f20f6986c259fb426743f2ae98fa75dbfc4869507ba8ea4262f6e60d8eeafdf9"
      ],
      "is_coinbase": false,
      "sequence": 4294967295,
      "inner_redeemscript_asm": "OP_0 OP_PUSHBYTES_20 abef55b448d2d997e13305f56c93e165f4d9b973"
    },
    {
      "txid": "a53094e8eca8ebcbcd76e7f6c6007182a2a4158ff0e76f227ac6fa5a67db12b1",
      "vout": 8,
      "prevout": {
        "scriptpubkey": "a914e65acfc4e5828edfb243ebf5656428d02b2f9c6e87",
        "scriptpubkey_asm": "OP_HASH160 OP_PUSHBYTES_20 e65acfc4e5828edfb243ebf5656428d02b2f9c6e OP_EQUAL",
        "scriptpubkey_type": "p2sh",
        "scriptpubkey_address": "3Nh28N8opLNWU62Hgc3QSjcsvSF3bUpULv",
        "value": 367846567
      },
      "scriptsig": "1600140689118358f87bab4e78331acd01aa92e9249933",
      "scriptsig_asm": "OP_PUSHBYTES_22 00140689118358f87bab4e78331acd01aa92e9249933",
      "witness": [
        "3045022100efe8a2797bd82d7fdab9c8c5c8f83c001ffd901b982d67eadc443edb5a395b2002202e742a76748b3f642e511f25c319a687a42e0d39e3e430eabc79b672307085c001",
        "035cb53cb90a3ef68d0f110d517c3f8364e6ff24666364cc109a5b54a5cf183e6c"
      ],
      "is_coinbase": false,
      "sequence": 4294967295,
      "inner_redeemscript_asm": "OP_0 OP_PUSHBYTES_20 0689118358f87bab4e78331acd01aa92e9249933"
    },
    {
      "txid": "2745aaf7e7455145f513bfc36b21a4af8a42c529454b1de009b526004e0dbdd1",
      "vout": 6,
      "prevout": {
        "scriptpubkey": "a914c58cfc481a7fb42ae2d9d9ad51232c99f3b5c88a87",
        "scriptpubkey_asm": "OP_HASH160 OP_PUSHBYTES_20 c58cfc481a7fb42ae2d9d9ad51232c99f3b5c88a OP_EQUAL",
        "scriptpubkey_type": "p2sh",
        "scriptpubkey_address": "3KhZwBDLMwyuonXorSbTqvCUofsBwJHTK5",
        "value": 430631032
      },
      "scriptsig": "160014abef55b448d2d997e13305f56c93e165f4d9b973",
      "scriptsig_asm": "OP_PUSHBYTES_22 0014abef55b448d2d997e13305f56c93e165f4d9b973",
      "witness": [
        "3045022100bb0f9a8015ad3434bf3e4a4e2a284afeb40706fe311bf1ae7a74a667e2191351022029765c5e20e3b1a5cda7e6371192ba5ce5cf83c33b8e15b19efee0898fece7d701",
        "03f20f6986c259fb426743f2ae98fa75dbfc4869507ba8ea4262f6e60d8eeafdf9"
      ],
      "is_coinbase": false,
      "sequence": 4294967295,
      "inner_redeemscript_asm": "OP_0 OP_PUSHBYTES_20 abef55b448d2d997e13305f56c93e165f4d9b973"
    },
    {
      "txid": "4c5946366b7ddb91d806389e772e42322b5f5f890319d0424e18c44bd21e8cb1",
      "vout": 0,
      "prevout": {
        "scriptpubkey": "a914f43e8b9043563ce153422838c0d8d106c5ce3a5287",
        "scriptpubkey_asm": "OP_HASH160 OP_PUSHBYTES_20 f43e8b9043563ce153422838c0d8d106c5ce3a52 OP_EQUAL",
        "scriptpubkey_type": "p2sh",
        "scriptpubkey_address": "3PxTj4iq86gvHgjaUZwDBbQrqcsEZgNgdi",
        "value": 576245000
      },
      "scriptsig": "160014de2de1a756a9e19b08f96adf0efc247df5c6d12c",
      "scriptsig_asm": "OP_PUSHBYTES_22 0014de2de1a756a9e19b08f96adf0efc247df5c6d12c",
      "witness": [
        "30450221008c90b2e20530682c49518a088ac54a1293d1cd94b5fb81108628fbd03776ed78022016c1e6b66a2b2d9c0c2a6541a4e6d96a6f891ebba48d4a3050adcd411e8c09d301",
        "02189f4dcca5204c060382c331b96c645e74d593764f2b523e651971d6411d7b30"
      ],
      "is_coinbase": false,
      "sequence": 4294967295,
      "inner_redeemscript_asm": "OP_0 OP_PUSHBYTES_20 de2de1a756a9e19b08f96adf0efc247df5c6d12c"
    },
    {
      "txid": "d3c9636675b02024b3997c41f0608a01329a8e5653622d25087633fa37d05284",
      "vout": 0,
      "prevout": {
        "scriptpubkey": "0014ce2d342bbe775eb60c15fa906120b74c9b6c4516",
        "scriptpubkey_asm": "OP_0 OP_PUSHBYTES_20 ce2d342bbe775eb60c15fa906120b74c9b6c4516",
        "scriptpubkey_type": "v0_p2wpkh",
        "scriptpubkey_address": "bc1qeckng2a7wa0tvrq4l2gxzg9hfjdkc3gk0ylf64",
        "value": 752454819
      },
      "scriptsig": "",
      "scriptsig_asm": "",
      "witness": [
        "30440220361335a7accd256a71e99545a7ed01793b5bacc228563abb0abce6119070f9a2022054c3af41a482becf2394076322fbcd3dcc048e7807e9a25df65fc5e3e3c606b401",
        "02d8526693e6471301575a5e344859939065d0a1d75e5e7c06815dc0c2239c9162"
      ],
      "is_coinbase": false,
      "sequence": 4294967295
    },
    {
      "txid": "8e39dc799307e216f4a53949f98102e9290be84a120a0404a9fdec769f8a2d26",
      "vout": 0,
      "prevout": {
        "scriptpubkey": "a914643c7dc8ae073bee7d809cf89dd65eb3603ae3d987",
        "scriptpubkey_asm": "OP_HASH160 OP_PUSHBYTES_20 643c7dc8ae073bee7d809cf89dd65eb3603ae3d9 OP_EQUAL",
        "scriptpubkey_type": "p2sh",
        "scriptpubkey_address": "3Aq1xjpJs1nZdN1776Ka8sVJYnA52ibmLG",
        "value": 505745522
      },
      "scriptsig": "16001488807d71e7bd370b6cbc2e28bc2d5734816ac67a",
      "scriptsig_asm": "OP_PUSHBYTES_22 001488807d71e7bd370b6cbc2e28bc2d5734816ac67a",
      "witness": [
        "304402205bbe9e86a0d2f0653a02b1e9d4e58e7bbce470d0d96a23237e782ac2479742a702203f2b23d84bc862cbec73b4a69432449b7d06ca6150cee78ea04fc88b053f847601",
        "0330ed6d7b09388c908f2685da2bee5d4e77e51f0fcbd702d713b105e0b28059ce"
      ],
      "is_coinbase": false,
      "sequence": 4294967295,
      "inner_redeemscript_asm": "OP_0 OP_PUSHBYTES_20 88807d71e7bd370b6cbc2e28bc2d5734816ac67a"
    },
    {
      "txid": "2745aaf7e7455145f513bfc36b21a4af8a42c529454b1de009b526004e0dbdd1",
      "vout": 8,
      "prevout": {
        "scriptpubkey": "a914c58cfc481a7fb42ae2d9d9ad51232c99f3b5c88a87",
        "scriptpubkey_asm": "OP_HASH160 OP_PUSHBYTES_20 c58cfc481a7fb42ae2d9d9ad51232c99f3b5c88a OP_EQUAL",
        "scriptpubkey_type": "p2sh",
        "scriptpubkey_address": "3KhZwBDLMwyuonXorSbTqvCUofsBwJHTK5",
        "value": 320987534
      },
      "scriptsig": "160014abef55b448d2d997e13305f56c93e165f4d9b973",
      "scriptsig_asm": "OP_PUSHBYTES_22 0014abef55b448d2d997e13305f56c93e165f4d9b973",
      "witness": [
        "3045022100e3741cdb0a811ba55be7a43522ec73db47869aaeac4874753adaab9e4247aa010220574cc4cd0548856d9f27a14c3a6890f2110b16a003906aaf3dae3939c31e8aa701",
        "03f20f6986c259fb426743f2ae98fa75dbfc4869507ba8ea4262f6e60d8eeafdf9"
      ],
      "is_coinbase": false,
      "sequence": 4294967295,
      "inner_redeemscript_asm": "OP_0 OP_PUSHBYTES_20 abef55b448d2d997e13305f56c93e165f4d9b973"
    },
    {
      "txid": "f07f8d52257d52d69e136ac68a07310a52305bec060c8ea065fb2267243e735f",
      "vout": 2,
      "prevout": {
        "scriptpubkey": "a914acdbb69efbedd7cf265bb243947d9b6c6d4c1e1a87",
        "scriptpubkey_asm": "OP_HASH160 OP_PUSHBYTES_20 acdbb69efbedd7cf265bb243947d9b6c6d4c1e1a OP_EQUAL",
        "scriptpubkey_type": "p2sh",
        "scriptpubkey_address": "3HT1MVQzBbphZzESS5e36E68XqycDu8xEr",
        "value": 380069037
      },
      "scriptsig": "1600146948ad786cfdd82d4150c8a0e696a138916c3e37",
      "scriptsig_asm": "OP_PUSHBYTES_22 00146948ad786cfdd82d4150c8a0e696a138916c3e37",
      "witness": [
        "3045022100cac8a2935608cc4fe90a5a1347f81214f459f1edd08d2a333b4ad7cc52b7dffa02200c55ab28af65158142885f00a4e3b110a5ca3389ec8039055be2b32748cb80b801",
        "039af70f4f593641a180ef57423ba83ac3832ec6aad14ea4c36883b110624372d3"
      ],
      "is_coinbase": false,
      "sequence": 4294967295,
      "inner_redeemscript_asm": "OP_0 OP_PUSHBYTES_20 6948ad786cfdd82d4150c8a0e696a138916c3e37"
    },
    {
      "txid": "d47e8a849f26baa6354c3c7d1e0e088954a57fa55bb6ad0041cbf16dbcd518af",
      "vout": 2,
      "prevout": {
        "scriptpubkey": "a914f43e8b9043563ce153422838c0d8d106c5ce3a5287",
        "scriptpubkey_asm": "OP_HASH160 OP_PUSHBYTES_20 f43e8b9043563ce153422838c0d8d106c5ce3a52 OP_EQUAL",
        "scriptpubkey_type": "p2sh",
        "scriptpubkey_address": "3PxTj4iq86gvHgjaUZwDBbQrqcsEZgNgdi",
        "value": 476405000
      },
      "scriptsig": "160014de2de1a756a9e19b08f96adf0efc247df5c6d12c",
      "scriptsig_asm": "OP_PUSHBYTES_22 0014de2de1a756a9e19b08f96adf0efc247df5c6d12c",
      "witness": [
        "304502210090b5b1a0e0210a0a51b337e082f9b2d946f46af6856b66ffed7d08b718b6637702201e667154a1e72836f972cb014f42d27d43f7e44b8f278cf2b358f2dd6a457ab801",
        "02189f4dcca5204c060382c331b96c645e74d593764f2b523e651971d6411d7b30"
      ],
      "is_coinbase": false,
      "sequence": 4294967295,
      "inner_redeemscript_asm": "OP_0 OP_PUSHBYTES_20 de2de1a756a9e19b08f96adf0efc247df5c6d12c"
    }
  ],
  "vout": [
    {
      "scriptpubkey": "001480c693f9e2b51bd0d52b405a2b6ea68998fce7ef",
      "scriptpubkey_asm": "OP_0 OP_PUSHBYTES_20 80c693f9e2b51bd0d52b405a2b6ea68998fce7ef",
      "scriptpubkey_type": "v0_p2wpkh",
      "scriptpubkey_address": "bc1qsrrf870zk5dap4ftgpdzkm4x3xv0eel03lw6cq",
      "value": 59822
    },
    {
      "scriptpubkey": "00146543992a358bbea7a0236d1d00f44e5429296b41",
      "scriptpubkey_asm": "OP_0 OP_PUSHBYTES_20 6543992a358bbea7a0236d1d00f44e5429296b41",
      "scriptpubkey_type": "v0_p2wpkh",
      "scriptpubkey_address": "bc1qv4pej2343wl20gprd5wspazw2s5jj66pygv2r6",
      "value": 1263303
    },
    {
      "scriptpubkey": "00145584792579a05fe1a3d22f62bbe1a8e35396ab53",
      "scriptpubkey_asm": "OP_0 OP_PUSHBYTES_20 5584792579a05fe1a3d22f62bbe1a8e35396ab53",
      "scriptpubkey_type": "v0_p2wpkh",
      "scriptpubkey_address": "bc1q2kz8jfte5p07rg7j9a3thcdgudfed26nxycc9g",
      "value": 394411
    },
    {
      "scriptpubkey": "0014da65a6a5872873a923e8ce9a36eb5fb604041282",
      "scriptpubkey_asm": "OP_0 OP_PUSHBYTES_20 da65a6a5872873a923e8ce9a36eb5fb604041282",
      "scriptpubkey_type": "v0_p2wpkh",
      "scriptpubkey_address": "bc1qmfj6dfv89pe6jglge6drd66lkczqgy5zmy9g77",
      "value": 66817
    },
    {
      "scriptpubkey": "a91479cee5d2f03943ff36c8971dddb23379421dbfd487",
      "scriptpubkey_asm": "OP_HASH160 OP_PUSHBYTES_20 79cee5d2f03943ff36c8971dddb23379421dbfd4 OP_EQUAL",
      "scriptpubkey_type": "p2sh",
      "scriptpubkey_address": "3Co5YGCi9qyCrYpz3qsjyY4ierdm6ewd6L",
      "value": 291048
    },
    {
      "scriptpubkey": "a914491fc45b76a244065dc7a85864ff380eb394a51787",
      "scriptpubkey_asm": "OP_HASH160 OP_PUSHBYTES_20 491fc45b76a244065dc7a85864ff380eb394a517 OP_EQUAL",
      "scriptpubkey_type": "p2sh",
      "scriptpubkey_address": "38MfJkxPkpwsZxkyfESwjdaKBdXrV8DpWr",
      "value": 5440000000
    },
    {
      "scriptpubkey": "00201cc56643a4c8afe013aa1d37c79325050bd343af8d412f961b942f370532f9e2",
      "scriptpubkey_asm": "OP_0 OP_PUSHBYTES_32 1cc56643a4c8afe013aa1d37c79325050bd343af8d412f961b942f370532f9e2",
      "scriptpubkey_type": "v0_p2wsh",
      "scriptpubkey_address": "bc1qrnzkvsayezh7qya2r5mu0ye9q59axsa034qjl9smjshnwpfjl83qfcjxv6",
      "value": 943454
    },
    {
      "scriptpubkey": "0014864a4cfc6ebd2b09fecdca8f673decf9c0a174cb",
      "scriptpubkey_asm": "OP_0 OP_PUSHBYTES_20 864a4cfc6ebd2b09fecdca8f673decf9c0a174cb",
      "scriptpubkey_type": "v0_p2wpkh",
      "scriptpubkey_address": "bc1qse9yelrwh54snlkde28kw00vl8q2zaxtpf7ngf",
      "value": 32780712
    },
    {
      "scriptpubkey": "a91486f62fb0167b19e2d4a471af67e974a70c75d1f087",
      "scriptpubkey_asm": "OP_HASH160 OP_PUSHBYTES_20 86f62fb0167b19e2d4a471af67e974a70c75d1f0 OP_EQUAL",
      "scriptpubkey_type": "p2sh",
      "scriptpubkey_address": "3DzdPa7QHfyxhigxNUo4qxxLYG8BJ4MhSW",
      "value": 95161
    },
    {
      "scriptpubkey": "0014c7394abbd7a1038c96822e87986770fece674a6b",
      "scriptpubkey_asm": "OP_0 OP_PUSHBYTES_20 c7394abbd7a1038c96822e87986770fece674a6b",
      "scriptpubkey_type": "v0_p2wpkh",
      "scriptpubkey_address": "bc1qcuu54w7h5ypce95z96resemslm8xwjntytst8r",
      "value": 272508
    },
    {
      "scriptpubkey": "00149cc7aa3ea83d5b6ab84026cab14b3e258153e432",
      "scriptpubkey_asm": "OP_0 OP_PUSHBYTES_20 9cc7aa3ea83d5b6ab84026cab14b3e258153e432",
      "scriptpubkey_type": "v0_p2wpkh",
      "scriptpubkey_address": "bc1qnnr6504g84dk4wzqym9tzje7ykq48epja8p2ej",
      "value": 22442
    },
    {
      "scriptpubkey": "00140f4e4b0a2212464edced320b738b5005d1a610bb",
      "scriptpubkey_asm": "OP_0 OP_PUSHBYTES_20 0f4e4b0a2212464edced320b738b5005d1a610bb",
      "scriptpubkey_type": "v0_p2wpkh",
      "scriptpubkey_address": "bc1qpa8ykz3zzfryah8dxg9h8z6sqhg6vy9mpz88z5",
      "value": 650320
    },
    {
      "scriptpubkey": "0014195970673353dc6295a89226c4fe91a81f162afb",
      "scriptpubkey_asm": "OP_0 OP_PUSHBYTES_20 195970673353dc6295a89226c4fe91a81f162afb",
      "scriptpubkey_type": "v0_p2wpkh",
      "scriptpubkey_address": "bc1qr9vhqeen20wx99dgjgnvfl534q03v2hm64gagg",
      "value": 305968
    }
  ],
  "size": 2295,
  "weight": 5622,
  "fee": 37899,
  "status": {
    "confirmed": true,
    "block_height": 834638,
    "block_hash": "000000000000000000025f742c626208ac87e0b7d15054abb4a19ca2d735a54e",
    "block_time": 1710405325
  },
  "hex": "0100000000010bcf20151dc69425c8d72b662ddfff2f4326948b34c93bd3150eb10a73cb2203970500000017160014de2de1a756a9e19b08f96adf0efc247df5c6d12cffffffff4e5f8d83065a9b6e9c935efd51d9b560a61e1745d0a9fcbc1f8dee9763b53c67020000001716001459664ff0a6512f074e68b4625da9741ea988dc3fffffffffd1bd0d4e0026b509e01d4b4529c5428aafa4216bc3bf13f5455145e7f7aa45270200000017160014abef55b448d2d997e13305f56c93e165f4d9b973ffffffffb112db675afac67a226fe7f08f15a4a2827100c6f6e776cdcbeba8ece89430a508000000171600140689118358f87bab4e78331acd01aa92e9249933ffffffffd1bd0d4e0026b509e01d4b4529c5428aafa4216bc3bf13f5455145e7f7aa45270600000017160014abef55b448d2d997e13305f56c93e165f4d9b973ffffffffb18c1ed24bc4184e42d01903895f5f2b32422e779e3806d891db7d6b3646594c0000000017160014de2de1a756a9e19b08f96adf0efc247df5c6d12cffffffff8452d037fa337608252d6253568e9a32018a60f0417c99b32420b0756663c9d30000000000ffffffff262d8a9f76ecfda904040a124ae80b29e90281f94939a5f416e2079379dc398e000000001716001488807d71e7bd370b6cbc2e28bc2d5734816ac67affffffffd1bd0d4e0026b509e01d4b4529c5428aafa4216bc3bf13f5455145e7f7aa45270800000017160014abef55b448d2d997e13305f56c93e165f4d9b973ffffffff5f733e246722fb65a08e0c06ec5b30520a31078ac66a139ed6527d25528d7ff002000000171600146948ad786cfdd82d4150c8a0e696a138916c3e37ffffffffaf18d5bc6df1cb4100adb65ba57fa55489080e1e7d3c4c35a6ba269f848a7ed40200000017160014de2de1a756a9e19b08f96adf0efc247df5c6d12cffffffff0daee900000000000016001480c693f9e2b51bd0d52b405a2b6ea68998fce7efc7461300000000001600146543992a358bbea7a0236d1d00f44e5429296b41ab040600000000001600145584792579a05fe1a3d22f62bbe1a8e35396ab530105010000000000160014da65a6a5872873a923e8ce9a36eb5fb604041282e87004000000000017a91479cee5d2f03943ff36c8971dddb23379421dbfd48700d03f440100000017a914491fc45b76a244065dc7a85864ff380eb394a517875e650e00000000002200201cc56643a4c8afe013aa1d37c79325050bd343af8d412f961b942f370532f9e2a831f40100000000160014864a4cfc6ebd2b09fecdca8f673decf9c0a174cbb97301000000000017a91486f62fb0167b19e2d4a471af67e974a70c75d1f0877c28040000000000160014c7394abbd7a1038c96822e87986770fece674a6baa570000000000001600149cc7aa3ea83d5b6ab84026cab14b3e258153e43250ec0900000000001600140f4e4b0a2212464edced320b738b5005d1a610bb30ab040000000000160014195970673353dc6295a89226c4fe91a81f162afb0247304402206e2c9dcbda8e87e5109aefa0dcddb54b87180b0f7e729151f009da1ae8231a8702200cc177a7379fed96d3b713fb2c7525c1d037ec15c266af734bf4fd91fed8356e012102189f4dcca5204c060382c331b96c645e74d593764f2b523e651971d6411d7b300247304402207c96c73f7e0db98bc8860244071d8da1b4f3b79b10bb248a3997213cc7ca563902201d29c2ec55e4109cc17b03d5a1ea389a3f87043b249716b3cfb6d9285eff0c2901210367f6f1eb97c22704a8e9c5740d2b60fc60f1b451125a8191f34a61da9130f1d402483045022100e924bb3013cfbfc8f9e5da1bbb5d336a47ce56bf69642a50673b3f86af0185bc02206b2b321196ce6967e5a8c1619630bb9300e05e72a58e8d0559ca987f5bfd6743012103f20f6986c259fb426743f2ae98fa75dbfc4869507ba8ea4262f6e60d8eeafdf902483045022100efe8a2797bd82d7fdab9c8c5c8f83c001ffd901b982d67eadc443edb5a395b2002202e742a76748b3f642e511f25c319a687a42e0d39e3e430eabc79b672307085c00121035cb53cb90a3ef68d0f110d517c3f8364e6ff24666364cc109a5b54a5cf183e6c02483045022100bb0f9a8015ad3434bf3e4a4e2a284afeb40706fe311bf1ae7a74a667e2191351022029765c5e20e3b1a5cda7e6371192ba5ce5cf83c33b8e15b19efee0898fece7d7012103f20f6986c259fb426743f2ae98fa75dbfc4869507ba8ea4262f6e60d8eeafdf9024830450221008c90b2e20530682c49518a088ac54a1293d1cd94b5fb81108628fbd03776ed78022016c1e6b66a2b2d9c0c2a6541a4e6d96a6f891ebba48d4a3050adcd411e8c09d3012102189f4dcca5204c060382c331b96c645e74d593764f2b523e651971d6411d7b30024730440220361335a7accd256a71e99545a7ed01793b5bacc228563abb0abce6119070f9a2022054c3af41a482becf2394076322fbcd3dcc048e7807e9a25df65fc5e3e3c606b4012102d8526693e6471301575a5e344859939065d0a1d75e5e7c06815dc0c2239c91620247304402205bbe9e86a0d2f0653a02b1e9d4e58e7bbce470d0d96a23237e782ac2479742a702203f2b23d84bc862cbec73b4a69432449b7d06ca6150cee78ea04fc88b053f847601210330ed6d7b09388c908f2685da2bee5d4e77e51f0fcbd702d713b105e0b28059ce02483045022100e3741cdb0a811ba55be7a43522ec73db47869aaeac4874753adaab9e4247aa010220574cc4cd0548856d9f27a14c3a6890f2110b16a003906aaf3dae3939c31e8aa7012103f20f6986c259fb426743f2ae98fa75dbfc4869507ba8ea4262f6e60d8eeafdf902483045022100cac8a2935608cc4fe90a5a1347f81214f459f1edd08d2a333b4ad7cc52b7dffa02200c55ab28af65158142885f00a4e3b110a5ca3389ec8039055be2b32748cb80b80121039af70f4f593641a180ef57423ba83ac3832ec6aad14ea4c36883b110624372d30248304502210090b5b1a0e0210a0a51b337e082f9b2d946f46af6856b66ffed7d08b718b6637702201e667154a1e72836f972cb014f42d27d43f7e44b8f278cf2b358f2dd6a457ab8012102189f4dcca5204c060382c331b96c645e74d593764f2b523e651971d6411d7b3000000000"
}