{
  "txid": "16fd8522e6aa9171c97571b7f14cda309c75fc34293c2989da0634522d9dbc0e",
  "version": 2,
  "locktime": 0,
  "vin": [
    {
      "txid": "b75c776970a7e1e8af82f5d7111956a0e8a5acc39193615c45533f8e086eb0bb",
      "vout": 10,
      "prevout": {
        "scriptpubkey": "76a91490504e17325ff5d28087b8806469bd0bf138e4de88ac",
        "scriptpubkey_asm": "OP_DUP OP_HASH160 OP_PUSHBYTES_20 90504e17325ff5d28087b8806469bd0bf138e4de OP_EQUALVERIFY OP_CHECKSIG",
        "scriptpubkey_type": "p2pkh",
        "scriptpubkey_address": "1EA4WKJwpFhT3Q3YnSnmFwxrvrYn8PHz4Q",
        "value": 180000
      },
      "scriptsig": "483045022100d868c8180a54a32ed8d9781192fdc1b2402b7cbeb56f77ebff9821333f0f92f20220459bdc307d9bca7b0190699fb7181fee0cbf996a75c586225e0781483771c4dd0121023c0987317d2b4a041d706d9a5acd70e99c0f4003915b4619d8ee1582da79aa8f",
      "scriptsig_asm": "OP_PUSHBYTES_72 3045022100d868c8180a54a32ed8d9781192fdc1b2402b7cbeb56f77ebff9821333f0f92f20220459bdc307d9bca7b0190699fb7181fee0cbf996a75c586225e0781483771c4dd01 OP_PUSHBYTES_33 023c0987317d2b4a041d706d9a5acd70e99c0f4003915b4619d8ee1582da79aa8f",
      "is_coinbase": false,
      "sequence": 4294967293
    },
    {
      "txid": "03b7afc2fa5dd205c21356d950d7065b45ee916a9351596857c5816a3ab13805",
      "vout": 1,
      "prevout": {
        "scriptpubkey": "76a91490504e17325ff5d28087b8806469bd0bf138e4de88ac",
        "scriptpubkey_asm": "OP_DUP OP_HASH160 OP_PUSHBYTES_20 90504e17325ff5d28087b8806469bd0bf138e4de OP_EQUALVERIFY OP_CHECKSIG",
        "scriptpubkey_type": "p2pkh",
        "scriptpubkey_address": "1EA4WKJwpFhT3Q3YnSnmFwxrvrYn8PHz4Q",
        "value": 3450
      },
      "scriptsig": "48304502210093cb026cc648d2eda267485725d4bbd34113e5f274c618d08065bda46db4ca4b02206a15343024848b1fa4a64bc0ea13e9c07355642a0fee064ee7cd67ebbb396cc70121023c0987317d2b4a041d706d9a5acd70e99c0f4003915b4619d8ee1582da79aa8f",
      "scriptsig_asm": "OP_PUSHBYTES_72 304502210093cb026cc648d2eda267485725d4bbd34113e5f274c618d08065bda46db4ca4b02206a15343024848b1fa4a64bc0ea13e9c07355642a0fee064ee7cd67ebbb396cc701 OP_PUSHBYTES_33 023c0987317d2b4a041d706d9a5acd70e99c0f4003915b4619d8ee1582da79aa8f",
      "is_coinbase": false,
      "sequence": 4294967293
    }
  ],
  "vout": [
    {
      "scriptpubkey": "a91462fe4706ebcc0f0385ed26298e692cff225974e487",
      "scriptpubkey_asm": "OP_HASH160 OP_PUSHBYTES_20 62fe4706ebcc0f0385ed26298e692cff225974e4 OP_EQUAL",
      "scriptpubkey_type": "p2sh",
      "scriptpubkey_address": "3AiSkrFpKMiM6eeNWPUT58pW9ZdkCs9XiP",
      "value": 45623
    },
    {
      "scriptpubkey": "76a91490504e17325ff5d28087b8806469bd0bf138e4de88ac",
      "scriptpubkey_asm": "OP_DUP OP_HASH160 OP_PUSHBYTES_20 90504e17325ff5d28087b8806469bd0bf138e4de OP_EQUALVERIFY OP_CHECKSIG",
      "scriptpubkey_type": "p2pkh",
      "scriptpubkey_address": "1EA4WKJwpFhT3Q3YnSnmFwxrvrYn8PHz4Q",
      "value": 92197
    }
  ],
  "size": 372,
  "weight": 1488,
  "fee": 45630,
  "status": {
    "confirmed": true,
    "block_height": 834638,
    "block_hash": "000000000000000000025f742c626208ac87e0b7d15054abb4a19ca2d735a54e",
    "block_time": 1710405325
  },
  "hex": "0200000002bbb06e088e3f53455c619391c3aca5e8a0561911d7f582afe8e1a77069775cb70a0000006b483045022100d868c8180a54a32ed8d9781192fdc1b2402b7cbeb56f77ebff9821333f0f92f20220459bdc307d9bca7b0190699fb7181fee0cbf996a75c586225e0781483771c4dd0121023c0987317d2b4a041d706d9a5acd70e99c0f4003915b4619d8ee1582da79aa8ffdffffff0538b13a6a81c557685951936a91ee455b06d750d95613c205d25dfac2afb703010000006b48304502210093cb026cc648d2eda267485725d4bbd34113e5f274c618d08065bda46db4ca4b02206a15343024848b1fa4a64bc0ea13e9c07355642a0fee064ee7cd67ebbb396cc70121023c0987317d2b4a041d706d9a5acd70e99c0f4003915b4619d8ee1582da79aa8ffdffffff0237b200000000000017a91462fe4706ebcc0f0385ed26298e692cff225974e48725680100000000001976a91490504e17325ff5d28087b8806469bd0bf138e4de88ac00000000"
}