{
  "txid": "170aa3a9bde72a9a8bf76578bc5734df72a6899667ba324ba546214057ccb8ec",
  "version": 1,
  "locktime": 0,
  "vin": [
    {
      "txid": "a8cb15114da7f9b7683c8c69715445be35e32462f78694cf1b44fe180158690e",
      "vout": 0,
      "prevout": {
        "scriptpubkey": "0014881083a47f33a332bb983ac8f03dae97ab0fedf5",
        "scriptpubkey_asm": "OP_0 OP_PUSHBYTES_20 881083a47f33a332bb983ac8f03dae97ab0fedf5",
        "scriptpubkey_type": "v0_p2wpkh",
        "scriptpubkey_address": "bc1q3qgg8frlxw3n9wuc8ty0q0dwj74slm04ln8qp7",
        "value": 10000000
      },
      "scriptsig": "",
      "scriptsig_asm": "",
      "witness": [
        "304402205f7a0795cfb7b834d1be4a52e53317ad9450b263b772ce9f6b0a3ca2c1d3d4fe02206a3bc23f1b45e315b85eddb079a0b8cc34fc1d3f24f1d74d914003133059d60301",
        "020dfafe519f75a5e22037b5faeac07b602a15fe09f1701b9e764374288a3db4e7"
      ],
      "is_coinbase": false,
      "sequence": 4294967293
    }
  ],
  "vout": [
    {
      "scriptpubkey": "0014c2002db8fa975e0ac7596c2fc240f746a82678fe",
      "scriptpubkey_asm": "OP_0 OP_PUSHBYTES_20 c2002db8fa975e0ac7596c2fc240f746a82678fe",
      "scriptpubkey_type": "v0_p2wpkh",
      "scriptpubkey_address": "bc1qcgqzmw86ja0q436edshuys8hg65zv787hkkwrt",
      "value": 1484846
    },
    {
      "scriptpubkey": "001442038f515b35f189dc2a78e62380b25a81228fb8",
      "scriptpubkey_asm": "OP_0 OP_PUSHBYTES_20 42038f515b35f189dc2a78e62380b25a81228fb8",
      "scriptpubkey_type": "v0_p2wpkh",
      "scriptpubkey_address": "bc1qggpc752mxhccnhp20rnz8q9jt2qj9racgushhp",
      "value": 8513603
    }
  ],
  "size": 222,
  "weight": 561,
  "fee": 1551,
  "status": {
    "confirmed": true,
    "block_height": 834464,
    "block_hash": "0000000000000000000177a0869a911a2b65c9bdcd5a8bcb02b68f305bee848e",
    "block_time": 1710308296
  },
  "hex": "010000000001010e69580118fe441bcf9486f76224e335be455471698c3c68b7f9a74d1115cba80000000000fdffffff022ea8160000000000160014c2002db8fa975e0ac7596c2fc240f746a82678fe43e881000000000016001442038f515b35f189dc2a78e62380b25a81228fb80247304402205f7a0795cfb7b834d1be4a52e53317ad9450b263b772ce9f6b0a3ca2c1d3d4fe02206a3bc23f1b45e315b85eddb079a0b8cc34fc1d3f24f1d74d914003133059d6030121020dfafe519f75a5e22037b5faeac07b602a15fe09f1701b9e764374288a3db4e700000000"
}