{
  "txid": "1714823be134e6483152224e7acc7a0763f871ff34cb2d4d5458547d46fc04da",
  "version": 2,
  "locktime": 0,
  "vin": [
    {
      "txid": "ee50ad02618609a9c198b3293d61cb7c454945a26b2bc2422690aa8a89de7b82",
      "vout": 0,
      "prevout": {
        "scriptpubkey": "76a914a3878416df377007648a4cb98efd823190f8407188ac",
        "scriptpubkey_asm": "OP_DUP OP_HASH160 OP_PUSHBYTES_20 a3878416df377007648a4cb98efd823190f84071 OP_EQUALVERIFY OP_CHECKSIG",
        "scriptpubkey_type": "p2pkh",
        "scriptpubkey_address": "1FufV5qEF2mcq3GmxwqKRkqzD7fY9GnB2F",
        "value": 495827
      },
      "scriptsig": "47304402205ffdc99c341f4774c58fe6c4f57d69c09df78ec850755b088691731e43c5ec8f02206df0b5e2f964e8eb62ae8f22d20c08bcc36ffa35e91bc12cdba808748842506f012102c5b2605314e95ce939803702bfa356ac9efa9af5667350893144840b48a7523b",
      "scriptsig_asm": "OP_PUSHBYTES_71 304402205ffdc99c341f4774c58fe6c4f57d69c09df78ec850755b088691731e43c5ec8f02206df0b5e2f964e8eb62ae8f22d20c08bcc36ffa35e91bc12cdba808748842506f01 OP_PUSHBYTES_33 02c5b2605314e95ce939803702bfa356ac9efa9af5667350893144840b48a7523b",
      "is_coinbase": false,
      "sequence": 4294967293
    },
    {
      "txid": "fb65e00c3914a14e3fb58d1bc644c722808ae4956fb77f90d14cd4cef6b4d34f",
      "vout": 1,
      "prevout": {
        "scriptpubkey": "a914dd954f13e2f2e9f615e6aef9349a700495e5f8a287",
        "scriptpubkey_asm": "OP_HASH160 OP_PUSHBYTES_20 dd954f13e2f2e9f615e6aef9349a700495e5f8a2 OP_EQUAL",
        "scriptpubkey_type": "p2sh",
        "scriptpubkey_address": "3Mte86tUUafEPf2jtsweoQ3ZmRwPbDCRMB",
        "value": 11300000
      },
      "scriptsig": "1600141445962417123b104a87e63f0e16c29d1eba4f40",
      "scriptsig_asm": "OP_PUSHBYTES_22 00141445962417123b104a87e63f0e16c29d1eba4f40",
      "witness": [
        "304402203ca5876daef78bf6bc45d89f696ba21d495c95bf08efcdfadc44e6f4ec65111a02206214b635c4a5a53c4e2e8c1900f9a020b3f5f3dc6e27536dd98c8fca1157042001",
        "02c41694a9ca1198f1e354e24d319555129492b261a72aff506aac59d02244273e"
      ],
      "is_coinbase": false,
      "sequence": 4294967293,
      "inner_redeemscript_asm": "OP_0 OP_PUSHBYTES_20 1445962417123b104a87e63f0e16c29d1eba4f40"
    }
  ],
  "vout": [
    {
      "scriptpubkey": "0014ebb67f37c0d124fffc9af31b5a6bc25a98f70ee0",
      "scriptpubkey_asm": "OP_0 OP_PUSHBYTES_20 ebb67f37c0d124fffc9af31b5a6bc25a98f70ee0",
      "scriptpubkey_type": "v0_p2wpkh",
      "scriptpubkey_address": "bc1qawm87d7q6yj0lly67vd4567zt2v0wrhq250mss",
      "value": 793635
    },
    {
      "scriptpubkey": "00149dc5b3b20f5e27e5846e8f386a068ef59cd61825",
      "scriptpubkey_asm": "OP_0 OP_PUSHBYTES_20 9dc5b3b20f5e27e5846e8f386a068ef59cd61825",
      "scriptpubkey_type": "v0_p2wpkh",
      "scriptpubkey_address": "bc1qnhzm8vs0tcn7tprw3uux5p5w7kwdvxp9wwlhsv",
      "value": 10997808
    }
  ],
  "size": 393,
  "weight": 1242,
  "fee": 4384,
  "status": {
    "confirmed": true,
    "block_height": 834460,
    "block_hash": "00000000000000000000484a79b643b2524bbce82e5d8a442013fa5b8905ed98",
    "block_time": 1710307468
  },
  "hex": "02000000000102827bde898aaa902642c22b6ba24549457ccb613d29b398c1a909866102ad50ee000000006a47304402205ffdc99c341f4774c58fe6c4f57d69c09df78ec850755b088691731e43c5ec8f02206df0b5e2f964e8eb62ae8f22d20c08bcc36ffa35e91bc12cdba808748842506f012102c5b2605314e95ce939803702bfa356ac9efa9af5667350893144840b48a7523bfdffffff4fd3b4f6ced44cd1907fb76f95e48a8022c744c61b8db53f4ea114390ce065fb01000000171600141445962417123b104a87e63f0e16c29d1eba4f40fdffffff02231c0c0000000000160014ebb67f37c0d124fffc9af31b5a6bc25a98f70ee030d0a700000000001600149dc5b3b20f5e27e5846e8f386a068ef59cd61825000247304402203ca5876daef78bf6bc45d89f696ba21d495c95bf08efcdfadc44e6f4ec65111a02206214b635c4a5a53c4e2e8c1900f9a020b3f5f3dc6e27536dd98c8fca11570420012102c41694a9ca1198f1e354e24d319555129492b261a72aff506aac59d02244273e00000000"
}