{
  "txid": "17200dad22c5279c536776f132ea3048d7cde91f74e35fdef34a6598d10ddbb5",
  "version": 1,
  "locktime": 0,
  "vin": [
    {
      "txid": "d03c0d4d5455fa517edf1f31f81c1355273b0dfc834e000179404411034b6656",
      "vout": 14,
      "prevout": {
        "scriptpubkey": "0014d63a872fec45cb1a3eb6dfc5c90fe2b03eb78fd7",
        "scriptpubkey_asm": "OP_0 OP_PUSHBYTES_20 d63a872fec45cb1a3eb6dfc5c90fe2b03eb78fd7",
        "scriptpubkey_type": "v0_p2wpkh",
        "scriptpubkey_address": "bc1q6cagwtlvgh93504kmlzujrlzkqlt0r7hrjk7ea",
        "value": 395000
      },
      "scriptsig": "",
      "scriptsig_asm": "",
      "witness": [
        "3044022019f21fb0234195d03221db685db5aa93bb2998513df95685dadc3a6f99d216fd0220261648c7b4b5ee0ef5cbee3de08bd580515d187b08257930ed345621dd44814501",
        "028244dbaece6fa50392c16cee440632ff3664fc09e85f8c9b1b6bdc406ef9f4aa"
      ],
      "is_coinbase": false,
      "sequence": 4294967295
    }
  ],
  "vout": [
    {
      "scriptpubkey": "002019cbb23d280649a4fe30d8543b7bc019f98744beff22d15d74db609e84636a20",
      "scriptpubkey_asm": "OP_0 OP_PUSHBYTES_32 19cbb23d280649a4fe30d8543b7bc019f98744beff22d15d74db609e84636a20",
      "scriptpubkey_type": "v0_p2wsh",
      "scriptpubkey_address": "bc1qr89my0fgqey6fl3smp2rk77qr8ucw397lu3dzht5mdsfaprrdgsq404fm5",
      "value": 391706
    }
  ],
  "size": 203,
  "weight": 485,
  "fee": 3294,
  "status": {
    "confirmed": true,
    "block_height": 834638,
    "block_hash": "000000000000000000025f742c626208ac87e0b7d15054abb4a19ca2d735a54e",
    "block_time": 1710405325
  },
  "hex": "0100000000010156664b031144407901004e83fc0d3b2755131cf8311fdf7e51fa55544d0d3cd00e00000000ffffffff011afa05000000000022002019cbb23d280649a4fe30d8543b7bc019f98744beff22d15d74db609e84636a2002473044022019f21fb0234195d03221db685db5aa93bb2998513df95685dadc3a6f99d216fd0220261648c7b4b5ee0ef5cbee3de08bd580515d187b08257930ed345621dd4481450121028244dbaece6fa50392c16cee440632ff3664fc09e85f8c9b1b6bdc406ef9f4aa00000000"
}