{
  "txid": "1725cb473309413aa98464babffcb9d5c9b48ab1d2942d2bb269f6732cfcdfa8",
  "version": 2,
  "locktime": 0,
  "vin": [
    {
      "txid": "f507731ef32f239cb90abf328e042b66b9515517cf166441e3e6704f98b1215f",
      "vout": 5,
      "prevout": {
        "scriptpubkey": "51208b395fc1d36e6e090db24483763a89da9948736d5427ffc481052c17742924ec",
        "scriptpubkey_asm": "OP_PUSHNUM_1 OP_PUSHBYTES_32 8b395fc1d36e6e090db24483763a89da9948736d5427ffc481052c17742924ec",
        "scriptpubkey_type": "v1_p2tr",
        "scriptpubkey_address": "bc1p3vu4lswndehqjrdjgjphvw5fm2v5sumd2snll3ypq5kpwapfynkqnd3j9e",
        "value": 600
      },
      "scriptsig": "",
      "scriptsig_asm": "",
      "witness": [
        "179d96f25c4adc4751bb46dc924db14f72f1136059fe0a60b21b5cca62cf135b4145679083e78b89f00203e04ff2accfff8203f9cdc31dcadfb8d1dc83878139"
      ],
      "is_coinbase": false,
      "sequence": 4294967295
    },
    {
      "txid": "60400eaf37569429f750ac6fb647a09c3959e4ce57debb37b9fe5d1949ec9476",
      "vout": 8,
      "prevout": {
        "scriptpubkey": "51208b395fc1d36e6e090db24483763a89da9948736d5427ffc481052c17742924ec",
        "scriptpubkey_asm": "OP_PUSHNUM_1 OP_PUSHBYTES_32 8b395fc1d36e6e090db24483763a89da9948736d5427ffc481052c17742924ec",
        "scriptpubkey_type": "v1_p2tr",
        "scriptpubkey_address": "bc1p3vu4lswndehqjrdjgjphvw5fm2v5sumd2snll3ypq5kpwapfynkqnd3j9e",
        "value": 600
      },
      "scriptsig": "",
      "scriptsig_asm": "",
      "witness": [
        "1d5c81378297d18813fc07443f01c674f643c0cb5d7369f02d05b72d15b557e70a6bb90b15d9279468d516206c2b60cbdf2cedd6539358a0cf0e2976dfef0167"
      ],
      "is_coinbase": false,
      "sequence": 4294967295
    },
    {
      "txid": "eb545a81474a001018dc93cfb42b65eb5608f1b75c0c26e3d53bfad6bf346a23",
      "vout": 2,
      "prevout": {
        "scriptpubkey": "512012183518d6bb6cfbe47e0531a5077299673696769cc04af405dee68ec65e664a",
        "scriptpubkey_asm": "OP_PUSHNUM_1 OP_PUSHBYTES_32 12183518d6bb6cfbe47e0531a5077299673696769cc04af405dee68ec65e664a",
        "scriptpubkey_type": "v1_p2tr",
        "scriptpubkey_address": "bc1pzgvr2xxkhdk0her7q5c62pmjn9nnd9nknnqy4aq9mmnga3j7ve9qtc59ct",
        "value": 546
      },
      "scriptsig": "",
      "scriptsig_asm": "",
      "witness": [
        "27c2010fa67a00a594df02918c2e447bf1764339b388065cd2c1d267356ebd74cacb335206e7ddd4144dda44846e5497298cb07470cdb86a9a808102b881246b83"
      ],
      "is_coinbase": false,
      "sequence": 4294967295
    },
    {
      "txid": "54bcdd496bcfc02b715e5dada00c04addf2a4659e22a31c59b06000b86a18b4e",
      "vout": 6,
      "prevout": {
        "scriptpubkey": "51208b395fc1d36e6e090db24483763a89da9948736d5427ffc481052c17742924ec",
        "scriptpubkey_asm": "OP_PUSHNUM_1 OP_PUSHBYTES_32 8b395fc1d36e6e090db24483763a89da9948736d5427ffc481052c17742924ec",
        "scriptpubkey_type": "v1_p2tr",
        "scriptpubkey_address": "bc1p3vu4lswndehqjrdjgjphvw5fm2v5sumd2snll3ypq5kpwapfynkqnd3j9e",
        "value": 213972
      },
      "scriptsig": "",
      "scriptsig_asm": "",
      "witness": [
        "4cccc8932216581584ada1fef8fdfd9b435f38f3e6a506b1cf1afaa8d7c084de941b98333dad7d5bdf874205ed5d6ee8014ccb50921b23d2ca778612c7d78ad0"
      ],
      "is_coinbase": false,
      "sequence": 4294967295
    }
  ],
  "vout": [
    {
      "scriptpubkey": "51208b395fc1d36e6e090db24483763a89da9948736d5427ffc481052c17742924ec",
      "scriptpubkey_asm": "OP_PUSHNUM_1 OP_PUSHBYTES_32 8b395fc1d36e6e090db24483763a89da9948736d5427ffc481052c17742924ec",
      "scriptpubkey_type": "v1_p2tr",
      "scriptpubkey_address": "bc1p3vu4lswndehqjrdjgjphvw5fm2v5sumd2snll3ypq5kpwapfynkqnd3j9e",
      "value": 1200
    },
    {
      "scriptpubkey": "51208b395fc1d36e6e090db24483763a89da9948736d5427ffc481052c17742924ec",
      "scriptpubkey_asm": "OP_PUSHNUM_1 OP_PUSHBYTES_32 8b395fc1d36e6e090db24483763a89da9948736d5427ffc481052c17742924ec",
      "scriptpubkey_type": "v1_p2tr",
      "scriptpubkey_address": "bc1p3vu4lswndehqjrdjgjphvw5fm2v5sumd2snll3ypq5kpwapfynkqnd3j9e",
      "value": 546
    },
    {
      "scriptpubkey": "512012183518d6bb6cfbe47e0531a5077299673696769cc04af405dee68ec65e664a",
      "scriptpubkey_asm": "OP_PUSHNUM_1 OP_PUSHBYTES_32 12183518d6bb6cfbe47e0531a5077299673696769cc04af405dee68ec65e664a",
      "scriptpubkey_type": "v1_p2tr",
      "scriptpubkey_address": "bc1pzgvr2xxkhdk0her7q5c62pmjn9nnd9nknnqy4aq9mmnga3j7ve9qtc59ct",
      "value": 50296
    },
    {
      "scriptpubkey": "a914ea6b832a05c6ca578baa3836f3f25553d41068a587",
      "scriptpubkey_asm": "OP_HASH160 OP_PUSHBYTES_20 ea6b832a05c6ca578baa3836f3f25553d41068a5 OP_EQUAL",
      "scriptpubkey_type": "p2sh",
      "scriptpubkey_address": "3P4WqXDbSLRhzo2H6MT6YFbvBKBDPLbVtQ",
      "value": 1250
    },
    {
      "scriptpubkey": "51208b395fc1d36e6e090db24483763a89da9948736d5427ffc481052c17742924ec",
      "scriptpubkey_asm": "OP_PUSHNUM_1 OP_PUSHBYTES_32 8b395fc1d36e6e090db24483763a89da9948736d5427ffc481052c17742924ec",
      "scriptpubkey_type": "v1_p2tr",
      "scriptpubkey_address": "bc1p3vu4lswndehqjrdjgjphvw5fm2v5sumd2snll3ypq5kpwapfynkqnd3j9e",
      "value": 600
    },
    {
      "scriptpubkey": "51208b395fc1d36e6e090db24483763a89da9948736d5427ffc481052c17742924ec",
      "scriptpubkey_asm": "OP_PUSHNUM_1 OP_PUSHBYTES_32 8b395fc1d36e6e090db24483763a89da9948736d5427ffc481052c17742924ec",
      "scriptpubkey_type": "v1_p2tr",
      "scriptpubkey_address": "bc1p3vu4lswndehqjrdjgjphvw5fm2v5sumd2snll3ypq5kpwapfynkqnd3j9e",
      "value": 600
    },
    {
      "scriptpubkey": "51208b395fc1d36e6e090db24483763a89da9948736d5427ffc481052c17742924ec",
      "scriptpubkey_asm": "OP_PUSHNUM_1 OP_PUSHBYTES_32 8b395fc1d36e6e090db24483763a89da9948736d5427ffc481052c17742924ec",
      "scriptpubkey_type": "v1_p2tr",
      "scriptpubkey_address": "bc1p3vu4lswndehqjrdjgjphvw5fm2v5sumd2snll3ypq5kpwapfynkqnd3j9e",
      "value": 153246
    }
  ],
  "size": 731,
  "weight": 2123,
  "fee": 7980,
  "status": {
    "confirmed": true,
    "block_height": 834638,
    "block_hash": "000000000000000000025f742c626208ac87e0b7d15054abb4a19ca2d735a54e",
    "block_time": 1710405325
  },
  "hex": "020000000001045f21b1984f70e6e3416416cf175551b9662b048e32bf0ab99c232ff31e7307f50500000000ffffffff7694ec49195dfeb937bbde57cee459399ca047b66fac50f729945637af0e40600800000000ffffffff236a34bfd6fa3bd5e3260c5cb7f10856eb652bb4cf93dc1810004a47815a54eb0200000000ffffffff4e8ba1860b00069bc5312ae259462adfad040ca0ad5d5e712bc0cf6b49ddbc540600000000ffffffff07b0040000000000002251208b395fc1d36e6e090db24483763a89da9948736d5427ffc481052c17742924ec22020000000000002251208b395fc1d36e6e090db24483763a89da9948736d5427ffc481052c17742924ec78c400000000000022512012183518d6bb6cfbe47e0531a5077299673696769cc04af405dee68ec65e664ae20400000000000017a914ea6b832a05c6ca578baa3836f3f25553d41068a58758020000000000002251208b395fc1d36e6e090db24483763a89da9948736d5427ffc481052c17742924ec58020000000000002251208b395fc1d36e6e090db24483763a89da9948736d5427ffc481052c17742924ec9e560200000000002251208b395fc1d36e6e090db24483763a89da9948736d5427ffc481052c17742924ec0140179d96f25c4adc4751bb46dc924db14f72f1136059fe0a60b21b5cca62cf135b4145679083e78b89f00203e04ff2accfff8203f9cdc31dcadfb8d1dc8387813901401d5c81378297d18813fc07443f01c674f643c0cb5d7369f02d05b72d15b557e70a6bb90b15d9279468d516206c2b60cbdf2cedd6539358a0cf0e2976dfef0167014127c2010fa67a00a594df02918c2e447bf1764339b388065cd2c1d267356ebd74cacb335206e7ddd4144dda44846e5497298cb07470cdb86a9a808102b881246b8301404cccc8932216581584ada1fef8fdfd9b435f38f3e6a506b1cf1afaa8d7c084de941b98333dad7d5bdf874205ed5d6ee8014ccb50921b23d2ca778612c7d78ad000000000"
}