{
  "txid": "172cc590164b24998be99c99817420235dd3d94dfa168779994707f36e8181c6",
  "version": 2,
  "locktime": 0,
  "vin": [
    {
      "txid": "8486ecb4df0880316dd6e82b3971b4df187aff23765bc3a47f8d78bb53aa273c",
      "vout": 94,
      "prevout": {
        "scriptpubkey": "51205cd335c2a4e1d3a15a209602443aa3661f9022e8e7d7ab3e03a4f0f6fec03df8",
        "scriptpubkey_asm": "OP_PUSHNUM_1 OP_PUSHBYTES_32 5cd335c2a4e1d3a15a209602443aa3661f9022e8e7d7ab3e03a4f0f6fec03df8",
        "scriptpubkey_type": "v1_p2tr",
        "scriptpubkey_address": "bc1ptnfnts4yu8f6zk3qjcpygw4rvc0eqghgult6k0sr5nc0dlkq8huqlpcnem",
        "value": 2575
      },
      "scriptsig": "",
      "scriptsig_asm": "",
      "witness": [
        "ec8c283b8b3a8f5f8be41384db332b2c80800991955c2c713f86b140bb3feb4b0636ebb5a849c392d48154efb3c76e71ad80090e73617b90fde60def6eb0c0a9",
        "20a628cad275fd6c176331eaaf1dcf6a01363805c024a9786c31af9627f8f6034cac0063036f726401010a746578742f706c61696e00367b2270223a226272632d3230222c226f70223a226d696e74222c227469636b223a2261616161222c22616d74223a223130303030227d68",
        "c0a628cad275fd6c176331eaaf1dcf6a01363805c024a9786c31af9627f8f6034c"
      ],
      "is_coinbase": false,
      "sequence": 4261412863
    }
  ],
  "vout": [
    {
      "scriptpubkey": "0014ddd7ef12ea6f78edcc1e8e7afa12c01ab59f3339",
      "scriptpubkey_asm": "OP_0 OP_PUSHBYTES_20 ddd7ef12ea6f78edcc1e8e7afa12c01ab59f3339",
      "scriptpubkey_type": "v0_p2wpkh",
      "scriptpubkey_address": "bc1qmht77yh2dauwmnq73ea05ykqr26e7veea8spz6",
      "value": 546
    }
  ],
  "size": 295,
  "weight": 541,
  "fee": 2029,
  "status": {
    "confirmed": true,
    "block_height": 834460,
    "block_hash": "00000000000000000000484a79b643b2524bbce82e5d8a442013fa5b8905ed98",
    "block_time": 1710307468
  },
  "hex": "020000000001013c27aa53bb788d7fa4c35b7623ff7a18dfb471392be8d66d318008dfb4ec86845e00000000fffffffd012202000000000000160014ddd7ef12ea6f78edcc1e8e7afa12c01ab59f33390340ec8c283b8b3a8f5f8be41384db332b2c80800991955c2c713f86b140bb3feb4b0636ebb5a849c392d48154efb3c76e71ad80090e73617b90fde60def6eb0c0a96e20a628cad275fd6c176331eaaf1dcf6a01363805c024a9786c31af9627f8f6034cac0063036f726401010a746578742f706c61696e00367b2270223a226272632d3230222c226f70223a226d696e74222c227469636b223a2261616161222c22616d74223a223130303030227d6821c0a628cad275fd6c176331eaaf1dcf6a01363805c024a9786c31af9627f8f6034c00000000"
}