{
  "txid": "172ee74f2c13defd1ab4fb05bce2a2750f3c4d0952f8451fb5c736268bd36ff6",
  "version": 2,
  "locktime": 0,
  "vin": [
    {
      "txid": "36d3492ad5f22e98f29ce0cfe575ce63a3f7a04b599580d33ad8b5251a396fa4",
      "vout": 0,
      "prevout": {
        "scriptpubkey": "001450587279399aa15191e7b53258768adc7c44dc43",
        "scriptpubkey_asm": "OP_0 OP_PUSHBYTES_20 50587279399aa15191e7b53258768adc7c44dc43",
        "scriptpubkey_type": "v0_p2wpkh",
        "scriptpubkey_address": "bc1q2pv8y7fen2s4ry08k5e9sa52m37yfhzry8cf89",
        "value": 15336403
      },
      "scriptsig": "",
      "scriptsig_asm": "",
      "witness": [
        "304502210082383634e7acb1ecfc0d331278be402aead34657da926cba172bf0c13bb5174402207aa4a39475c125680a68f943e504453daca967596b65f2cb40207783362be99701",
        "021c0e8ed01b0df036a1f692be10928faab405f25035f38efe2eb0ee7dc30c6801"
      ],
      "is_coinbase": false,
      "sequence": 4294967295
    }
  ],
  "vout": [
    {
      "scriptpubkey": "001450587279399aa15191e7b53258768adc7c44dc43",
      "scriptpubkey_asm": "OP_0 OP_PUSHBYTES_20 50587279399aa15191e7b53258768adc7c44dc43",
      "scriptpubkey_type": "v0_p2wpkh",
      "scriptpubkey_address": "bc1q2pv8y7fen2s4ry08k5e9sa52m37yfhzry8cf89",
      "value": 11366809
    },
    {
      "scriptpubkey": "0014cc135a709b86d83398ce651d6e51ac7e1ce6a45e",
      "scriptpubkey_asm": "OP_0 OP_PUSHBYTES_20 cc135a709b86d83398ce651d6e51ac7e1ce6a45e",
      "scriptpubkey_type": "v0_p2wpkh",
      "scriptpubkey_address": "bc1qesf45uymsmvr8xxwv5wku5dv0cwwdfz77ctrgz",
      "value": 3966444
    }
  ],
  "size": 223,
  "weight": 562,
  "fee": 3150,
  "status": {
    "confirmed": true,
    "block_height": 834638,
    "block_hash": "000000000000000000025f742c626208ac87e0b7d15054abb4a19ca2d735a54e",
    "block_time": 1710405325
  },
  "hex": "02000000000101a46f391a25b5d83ad38095594ba0f7a363ce75e5cfe09cf2982ef2d52a49d3360000000000ffffffff029971ad000000000016001450587279399aa15191e7b53258768adc7c44dc43ec853c0000000000160014cc135a709b86d83398ce651d6e51ac7e1ce6a45e0248304502210082383634e7acb1ecfc0d331278be402aead34657da926cba172bf0c13bb5174402207aa4a39475c125680a68f943e504453daca967596b65f2cb40207783362be9970121021c0e8ed01b0df036a1f692be10928faab405f25035f38efe2eb0ee7dc30c680100000000"
}