{
  "txid": "17373fef0a0014bbf38918157428a4bf11736288c6e7841b35664cefbddfc5d4",
  "version": 2,
  "locktime": 0,
  "vin": [
    {
      "txid": "d31f0c57338740b252539aad87d0f48ebcc53f30be02abd3859a72de733e3d75",
      "vout": 0,
      "prevout": {
        "scriptpubkey": "5120c424eed68b5902ab7e6b3b58d94bda77ea1537736c4014c89fa6579619962436",
        "scriptpubkey_asm": "OP_PUSHNUM_1 OP_PUSHBYTES_32 c424eed68b5902ab7e6b3b58d94bda77ea1537736c4014c89fa6579619962436",
        "scriptpubkey_type": "v1_p2tr",
        "scriptpubkey_address": "bc1pcsjwa45ttyp2klnt8dvdjj76wl4p2dmnd3qpfjyl5etevxvkysmqzt29gr",
        "value": 2769
      },
      "scriptsig": "",
      "scriptsig_asm": "",
      "witness": [
        "cfe26223ea06b518c21d0c41986acb284029f66e4a6d9a9ebf565d602102a7b4365996eba16eb78ccbd6b65c815358b6ae50601f09bfda3bae9b0b71eefb41e4",
        "20d9553d4b79173263371dde8cfc11c9137a38d823ba48f1c15957958632277d29ac0063036f7264010118746578742f706c61696e3b636861727365743d7574662d38004c867b2270223a22746170222c226f70223a22646d742d6d696e74222c22646570223a22333962373532343338626533613435326464623731376230613635346233313662316164343661383139656234343831383933626337313331663738396539616930222c227469636b223a226e61746f776c73222c22626c6b223a22373036353337227d68",
        "c0d9553d4b79173263371dde8cfc11c9137a38d823ba48f1c15957958632277d29"
      ],
      "is_coinbase": false,
      "sequence": 4294967295
    }
  ],
  "vout": [
    {
      "scriptpubkey": "51207f73d17fa1b1c355a2784e2541b134926c5d752653470250262e098a6b1bbe0a",
      "scriptpubkey_asm": "OP_PUSHNUM_1 OP_PUSHBYTES_32 7f73d17fa1b1c355a2784e2541b134926c5d752653470250262e098a6b1bbe0a",
      "scriptpubkey_type": "v1_p2tr",
      "scriptpubkey_address": "bc1p0aeazlapk8p4tgncfcj5rvf5jfk96afx2drsy5px9cyc56cmhc9qeq0y49",
      "value": 546
    }
  ],
  "size": 402,
  "weight": 684,
  "fee": 2223,
  "status": {
    "confirmed": true,
    "block_height": 834460,
    "block_hash": "00000000000000000000484a79b643b2524bbce82e5d8a442013fa5b8905ed98",
    "block_time": 1710307468
  },
  "hex": "02000000000101753d3e73de729a85d3ab02be303fc5bc8ef4d087ad9a5352b2408733570c1fd30000000000ffffffff0122020000000000002251207f73d17fa1b1c355a2784e2541b134926c5d752653470250262e098a6b1bbe0a0340cfe26223ea06b518c21d0c41986acb284029f66e4a6d9a9ebf565d602102a7b4365996eba16eb78ccbd6b65c815358b6ae50601f09bfda3bae9b0b71eefb41e4cd20d9553d4b79173263371dde8cfc11c9137a38d823ba48f1c15957958632277d29ac0063036f7264010118746578742f706c61696e3b636861727365743d7574662d38004c867b2270223a22746170222c226f70223a22646d742d6d696e74222c22646570223a22333962373532343338626533613435326464623731376230613635346233313662316164343661383139656234343831383933626337313331663738396539616930222c227469636b223a226e61746f776c73222c22626c6b223a22373036353337227d6821c0d9553d4b79173263371dde8cfc11c9137a38d823ba48f1c15957958632277d2900000000"
}