{
  "txid": "173a85542a577f34d1731310d94a58e0ecbb7538c84ba021c18aa780d651c7f0",
  "version": 1,
  "locktime": 0,
  "vin": [
    {
      "txid": "df2f8594968e7d544453298bea4398bac006120170e05aae34fa685705702c89",
      "vout": 2,
      "prevout": {
        "scriptpubkey": "76a914a520c86a08366941cd90d22e11ac1c7eefa2db3788ac",
        "scriptpubkey_asm": "OP_DUP OP_HASH160 OP_PUSHBYTES_20 a520c86a08366941cd90d22e11ac1c7eefa2db37 OP_EQUALVERIFY OP_CHECKSIG",
        "scriptpubkey_type": "p2pkh",
        "scriptpubkey_address": "1G47mSr3oANXMafVrR8UC4pzV7FEAzo3r9",
        "value": 855282
      },
      "scriptsig": "483045022100b93a5a1b1e9a118080175858373b19b164dd4f4e06fd6339f76a9d089d8ef08e022031c42d9863dfa4557699adfcd0a25a5f7f1da9259f9065c0cfa2195e74d7acc6012103f3f44c9e80e2cedc1a2909631a3adea8866ee32187f74d0912387359b0ff36a2",
      "scriptsig_asm": "OP_PUSHBYTES_72 3045022100b93a5a1b1e9a118080175858373b19b164dd4f4e06fd6339f76a9d089d8ef08e022031c42d9863dfa4557699adfcd0a25a5f7f1da9259f9065c0cfa2195e74d7acc601 OP_PUSHBYTES_33 03f3f44c9e80e2cedc1a2909631a3adea8866ee32187f74d0912387359b0ff36a2",
      "is_coinbase": false,
      "sequence": 0
    }
  ],
  "vout": [
    {
      "scriptpubkey": "76a914a520c86a08366941cd90d22e11ac1c7eefa2db3788ac",
      "scriptpubkey_asm": "OP_DUP OP_HASH160 OP_PUSHBYTES_20 a520c86a08366941cd90d22e11ac1c7eefa2db37 OP_EQUALVERIFY OP_CHECKSIG",
      "scriptpubkey_type": "p2pkh",
      "scriptpubkey_address": "1G47mSr3oANXMafVrR8UC4pzV7FEAzo3r9",
      "value": 848862
    },
    {
      "scriptpubkey": "51209cc2bb36bd2a7c823818edf6cdecd62e6ca9fa85af0943682c6287ab43ab4049",
      "scriptpubkey_asm": "OP_PUSHNUM_1 OP_PUSHBYTES_32 9cc2bb36bd2a7c823818edf6cdecd62e6ca9fa85af0943682c6287ab43ab4049",
      "scriptpubkey_type": "v1_p2tr",
      "scriptpubkey_address": "bc1pnnptkd4a9f7gywqcahmvmmxk9ek2n7594uy5x6pvv2r6ksatgpys6urxk8",
      "value": 546
    }
  ],
  "size": 235,
  "weight": 940,
  "fee": 5874,
  "status": {
    "confirmed": true,
    "block_height": 834638,
    "block_hash": "000000000000000000025f742c626208ac87e0b7d15054abb4a19ca2d735a54e",
    "block_time": 1710405325
  },
  "hex": "0100000001892c70055768fa34ae5ae070011206c0ba9843ea8b295344547d8e9694852fdf020000006b483045022100b93a5a1b1e9a118080175858373b19b164dd4f4e06fd6339f76a9d089d8ef08e022031c42d9863dfa4557699adfcd0a25a5f7f1da9259f9065c0cfa2195e74d7acc6012103f3f44c9e80e2cedc1a2909631a3adea8866ee32187f74d0912387359b0ff36a20000000002def30c00000000001976a914a520c86a08366941cd90d22e11ac1c7eefa2db3788ac22020000000000002251209cc2bb36bd2a7c823818edf6cdecd62e6ca9fa85af0943682c6287ab43ab404900000000"
}