{
  "txid": "174568b0887e4da8e29ee0865f208791e813b1e5968c922bdaa6c7a49ed36e20",
  "version": 2,
  "locktime": 0,
  "vin": [
    {
      "txid": "797a5bc5c3ee3497b51868a562f398a7511a8189c54227996c850d609fd8d88a",
      "vout": 9,
      "prevout": {
        "scriptpubkey": "0014657765a1d80c7100c0fb1aa843cd6f2e8a70ac11",
        "scriptpubkey_asm": "OP_0 OP_PUSHBYTES_20 657765a1d80c7100c0fb1aa843cd6f2e8a70ac11",
        "scriptpubkey_type": "v0_p2wpkh",
        "scriptpubkey_address": "bc1qv4mktgwcp3csps8mr25y8nt09698ptq3k6mjdd",
        "value": 553369
      },
      "scriptsig": "",
      "scriptsig_asm": "",
      "witness": [
        "304402207dd22f0c81a14bf679e932f3a4c9208ce46ade6b2b53e843ac65c1b9edf1c6700220640a806df1b50879ada617e4a4db135f43461533638606880d708cccbc5895ca01",
        "02b2fa82e54172f3199ba4a6ff6e7af16c3550c4d1e971aac0a18782d10ab6e4a5"
      ],
      "is_coinbase": false,
      "sequence": 4294967295
    }
  ],
  "vout": [
    {
      "scriptpubkey": "a914ac81e266368dbe5462aa0b1738d90a99552ae3cb87",
      "scriptpubkey_asm": "OP_HASH160 OP_PUSHBYTES_20 ac81e266368dbe5462aa0b1738d90a99552ae3cb OP_EQUAL",
      "scriptpubkey_type": "p2sh",
      "scriptpubkey_address": "3HR9k4c6X6CZMJK2U9Qygw1n3qYm5avDPA",
      "value": 551191
    }
  ],
  "size": 192,
  "weight": 441,
  "fee": 2178,
  "status": {
    "confirmed": true,
    "block_height": 834638,
    "block_hash": "000000000000000000025f742c626208ac87e0b7d15054abb4a19ca2d735a54e",
    "block_time": 1710405325
  },
  "hex": "020000000001018ad8d89f600d856c992742c589811a51a798f362a56818b59734eec3c55b7a790900000000ffffffff01176908000000000017a914ac81e266368dbe5462aa0b1738d90a99552ae3cb870247304402207dd22f0c81a14bf679e932f3a4c9208ce46ade6b2b53e843ac65c1b9edf1c6700220640a806df1b50879ada617e4a4db135f43461533638606880d708cccbc5895ca012102b2fa82e54172f3199ba4a6ff6e7af16c3550c4d1e971aac0a18782d10ab6e4a500000000"
}