{
  "txid": "174778a55e20ada4655858d87bc8a1f0e9f0508f419ae0bcfebfdc54b0225471",
  "version": 1,
  "locktime": 0,
  "vin": [
    {
      "txid": "ce33b6702d8f3ff4a7d9f6fa75e975de316151b7df42245531f01db44559f182",
      "vout": 2,
      "prevout": {
        "scriptpubkey": "a9148467291cf0ea5c1f008a2f764a31e038fed1326b87",
        "scriptpubkey_asm": "OP_HASH160 OP_PUSHBYTES_20 8467291cf0ea5c1f008a2f764a31e038fed1326b OP_EQUAL",
        "scriptpubkey_type": "p2sh",
        "scriptpubkey_address": "3Dm6hb8tCqt9SHdCZkHsYFgm5raKG5c9og",
        "value": 554752176
      },
      "scriptsig": "004830450221009ec23ecae06f5168e1d88bc6869f430b8baf44688faf1611177521b885c2555b022064fc953bf3bae81384200318ab293140caebcc52ba2701b30af73796e2e7fe8e01483045022100f97bb281bd73c80c9224c5bb5a3aae95c3d0e0aa5645ee2dc592ed0cd79098cc02205b971fc39459f316b9bf3dd116009be0e92876b7d7926dd19d6441795664e12a014c69522103d7d7694a778021566c5b7f16fff1f31348b47616ad06ca6e4e7a25885cdce83d2102fb48de8e0074ca155e95a10b14548a3569eabf8f8385738c1b42bca87f3f85012103826cf4d69642696d4795d30ca4aa41fb77f3136faa2c42b505b89f7d57a112ca53ae",
      "scriptsig_asm": "OP_0 OP_PUSHBYTES_72 30450221009ec23ecae06f5168e1d88bc6869f430b8baf44688faf1611177521b885c2555b022064fc953bf3bae81384200318ab293140caebcc52ba2701b30af73796e2e7fe8e01 OP_PUSHBYTES_72 3045022100f97bb281bd73c80c9224c5bb5a3aae95c3d0e0aa5645ee2dc592ed0cd79098cc02205b971fc39459f316b9bf3dd116009be0e92876b7d7926dd19d6441795664e12a01 OP_PUSHDATA1 522103d7d7694a778021566c5b7f16fff1f31348b47616ad06ca6e4e7a25885cdce83d2102fb48de8e0074ca155e95a10b14548a3569eabf8f8385738c1b42bca87f3f85012103826cf4d69642696d4795d30ca4aa41fb77f3136faa2c42b505b89f7d57a112ca53ae",
      "is_coinbase": false,
      "sequence": 4294967295,
      "inner_redeemscript_asm": "OP_PUSHNUM_2 OP_PUSHBYTES_33 03d7d7694a778021566c5b7f16fff1f31348b47616ad06ca6e4e7a25885cdce83d OP_PUSHBYTES_33 02fb48de8e0074ca155e95a10b14548a3569eabf8f8385738c1b42bca87f3f8501 OP_PUSHBYTES_33 03826cf4d69642696d4795d30ca4aa41fb77f3136faa2c42b505b89f7d57a112ca OP_PUSHNUM_3 OP_CHECKMULTISIG"
    }
  ],
  "vout": [
    {
      "scriptpubkey": "a9145a6d069885221037eab1939851fa9d22a3c59ca787",
      "scriptpubkey_asm": "OP_HASH160 OP_PUSHBYTES_20 5a6d069885221037eab1939851fa9d22a3c59ca7 OP_EQUAL",
      "scriptpubkey_type": "p2sh",
      "scriptpubkey_address": "39w9M3wGRi2XFaBkC6aze9we6UEgUWukzs",
      "value": 215845518
    },
    {
      "scriptpubkey": "a91450b9f093343b1026541251b20e52a776972f6dda87",
      "scriptpubkey_asm": "OP_HASH160 OP_PUSHBYTES_20 50b9f093343b1026541251b20e52a776972f6dda OP_EQUAL",
      "scriptpubkey_type": "p2sh",
      "scriptpubkey_address": "393rjD9WE5oTfE2NVxWHKndQGiXRpHpSXq",
      "value": 338874698
    }
  ],
  "size": 371,
  "weight": 1484,
  "fee": 31960,
  "status": {
    "confirmed": true,
    "block_height": 834638,
    "block_hash": "000000000000000000025f742c626208ac87e0b7d15054abb4a19ca2d735a54e",
    "block_time": 1710405325
  },
  "hex": "010000000182f15945b41df031552442dfb7516131de75e975faf6d9a7f43f8f2d70b633ce02000000fdfe00004830450221009ec23ecae06f5168e1d88bc6869f430b8baf44688faf1611177521b885c2555b022064fc953bf3bae81384200318ab293140caebcc52ba2701b30af73796e2e7fe8e01483045022100f97bb281bd73c80c9224c5bb5a3aae95c3d0e0aa5645ee2dc592ed0cd79098cc02205b971fc39459f316b9bf3dd116009be0e92876b7d7926dd19d6441795664e12a014c69522103d7d7694a778021566c5b7f16fff1f31348b47616ad06ca6e4e7a25885cdce83d2102fb48de8e0074ca155e95a10b14548a3569eabf8f8385738c1b42bca87f3f85012103826cf4d69642696d4795d30ca4aa41fb77f3136faa2c42b505b89f7d57a112ca53aeffffffff028e8add0c0000000017a9145a6d069885221037eab1939851fa9d22a3c59ca7874ad132140000000017a91450b9f093343b1026541251b20e52a776972f6dda8700000000"
}