{
  "txid": "17514744d6d0dba05cf4f715306e217649fb09cd6ed960a4e492c7563cfd1779",
  "version": 2,
  "locktime": 0,
  "vin": [
    {
      "txid": "31bdf5c8aa1883422b26d608ffdc265089f307a8c25466a896920772faec01d4",
      "vout": 1,
      "prevout": {
        "scriptpubkey": "00144bc8c71372972dbb4a9cdcf045b0de23935eda9a",
        "scriptpubkey_asm": "OP_0 OP_PUSHBYTES_20 4bc8c71372972dbb4a9cdcf045b0de23935eda9a",
        "scriptpubkey_type": "v0_p2wpkh",
        "scriptpubkey_address": "bc1qf0yvwymjjukmkj5umncytvx7ywf4ak56y7n09g",
        "value": 212574
      },
      "scriptsig": "",
      "scriptsig_asm": "",
      "witness": [
        "3044022028e9828955691ff90b29ed17f40e0a4eb268c133cf07637f81c352340ad0fb9c02207297afe73b3f5417bcdb9b089a242e78b2e09dccb0faf4029eb18ddefffafec001",
        "024118123828f40dc0f02df0d79152ad17c378638d321c638b8ef146fd365b3c09"
      ],
      "is_coinbase": false,
      "sequence": 4294967295
    }
  ],
  "vout": [
    {
      "scriptpubkey": "00140126937122ea93ecb2f1519c4ae4666331f88f11",
      "scriptpubkey_asm": "OP_0 OP_PUSHBYTES_20 0126937122ea93ecb2f1519c4ae4666331f88f11",
      "scriptpubkey_type": "v0_p2wpkh",
      "scriptpubkey_address": "bc1qqynfxufza2f7evh32xwy4erxvvcl3rc3qtewsf",
      "value": 6299
    },
    {
      "scriptpubkey": "00143db99f4e6d8653d0c20bec53f920a688aafb70d6",
      "scriptpubkey_asm": "OP_0 OP_PUSHBYTES_20 3db99f4e6d8653d0c20bec53f920a688aafb70d6",
      "scriptpubkey_type": "v0_p2wpkh",
      "scriptpubkey_address": "bc1q8kue7nndsefapssta3fljg9x3z40kuxkdfahv7",
      "value": 204178
    }
  ],
  "size": 222,
  "weight": 561,
  "fee": 2097,
  "status": {
    "confirmed": true,
    "block_height": 834638,
    "block_hash": "000000000000000000025f742c626208ac87e0b7d15054abb4a19ca2d735a54e",
    "block_time": 1710405325
  },
  "hex": "02000000000101d401ecfa72079296a86654c2a807f3895026dcff08d6262b428318aac8f5bd310100000000ffffffff029b180000000000001600140126937122ea93ecb2f1519c4ae4666331f88f11921d0300000000001600143db99f4e6d8653d0c20bec53f920a688aafb70d602473044022028e9828955691ff90b29ed17f40e0a4eb268c133cf07637f81c352340ad0fb9c02207297afe73b3f5417bcdb9b089a242e78b2e09dccb0faf4029eb18ddefffafec00121024118123828f40dc0f02df0d79152ad17c378638d321c638b8ef146fd365b3c0900000000"
}