{
  "txid": "175474b6b1bbc93c4f85bfd7a30040fe2557b2c30ac7c99abbbd9d416defc5bf",
  "version": 2,
  "locktime": 0,
  "vin": [
    {
      "txid": "c94242f2f313a11244dfce319addaa1b3f4dae5a11aabe3c4504741a59fe8316",
      "vout": 0,
      "prevout": {
        "scriptpubkey": "001405ef29438062aaa88195586c9fd8cc9aff5c5280",
        "scriptpubkey_asm": "OP_0 OP_PUSHBYTES_20 05ef29438062aaa88195586c9fd8cc9aff5c5280",
        "scriptpubkey_type": "v0_p2wpkh",
        "scriptpubkey_address": "bc1qqhhjjsuqv2423qv4tpkflkxvntl4c55qvtv4np",
        "value": 542017
      },
      "scriptsig": "",
      "scriptsig_asm": "",
      "witness": [
        "3045022100f2459b805e257da59f4403c2fd98f4414f93ac887e25f3dee6b320397926ac910220270383e00efd627ab946fa962d37ac172c5733829eafee4a91aea7dcd18ed10e01",
        "02c1c0f276ce55a0130a79d7bdec3e95e02d29c3b884561ea619e882784949bb8b"
      ],
      "is_coinbase": false,
      "sequence": 4294967295
    },
    {
      "txid": "17589b06efd0f8a7cc53aefeac523ba9b500306e2b547e8d5db08cb38a092b28",
      "vout": 1,
      "prevout": {
        "scriptpubkey": "001405ef29438062aaa88195586c9fd8cc9aff5c5280",
        "scriptpubkey_asm": "OP_0 OP_PUSHBYTES_20 05ef29438062aaa88195586c9fd8cc9aff5c5280",
        "scriptpubkey_type": "v0_p2wpkh",
        "scriptpubkey_address": "bc1qqhhjjsuqv2423qv4tpkflkxvntl4c55qvtv4np",
        "value": 208842
      },
      "scriptsig": "",
      "scriptsig_asm": "",
      "witness": [
        "3045022100ff1c43cf7425f6fdac48cb2e4c484256773ef89ba3d20b34d17f5fa91ce2c5100220217aef231020f0d9cffe55f42e6a91d6ec65d593b5857cc62b90efc5427231f301",
        "02c1c0f276ce55a0130a79d7bdec3e95e02d29c3b884561ea619e882784949bb8b"
      ],
      "is_coinbase": false,
      "sequence": 4294967295
    }
  ],
  "vout": [
    {
      "scriptpubkey": "0014a988ec37d1b3d3bdae3060b7001476c45b669333",
      "scriptpubkey_asm": "OP_0 OP_PUSHBYTES_20 a988ec37d1b3d3bdae3060b7001476c45b669333",
      "scriptpubkey_type": "v0_p2wpkh",
      "scriptpubkey_address": "bc1q4xywcd73k0fmmt3svzmsq9rkc3dkdyen8uwr48",
      "value": 748345
    }
  ],
  "size": 341,
  "weight": 710,
  "fee": 2514,
  "status": {
    "confirmed": true,
    "block_height": 834638,
    "block_hash": "000000000000000000025f742c626208ac87e0b7d15054abb4a19ca2d735a54e",
    "block_time": 1710405325
  },
  "hex": "020000000001021683fe591a7404453cbeaa115aae4d3f1baadd9a31cedf4412a113f3f24242c90000000000ffffffff282b098ab38cb05d8d7e542b6e3000b5a93b52acfeae53cca7f8d0ef069b58170100000000ffffffff01396b0b0000000000160014a988ec37d1b3d3bdae3060b7001476c45b66933302483045022100f2459b805e257da59f4403c2fd98f4414f93ac887e25f3dee6b320397926ac910220270383e00efd627ab946fa962d37ac172c5733829eafee4a91aea7dcd18ed10e012102c1c0f276ce55a0130a79d7bdec3e95e02d29c3b884561ea619e882784949bb8b02483045022100ff1c43cf7425f6fdac48cb2e4c484256773ef89ba3d20b34d17f5fa91ce2c5100220217aef231020f0d9cffe55f42e6a91d6ec65d593b5857cc62b90efc5427231f3012102c1c0f276ce55a0130a79d7bdec3e95e02d29c3b884561ea619e882784949bb8b00000000"
}