{
  "txid": "17596be44371c32b667845aec2f6262d3e5cc977367b5666d5a85fca302664eb",
  "version": 2,
  "locktime": 0,
  "vin": [
    {
      "txid": "a7a0e98d9ffcdc98c901753f36310c8703295a89ac76f370dd7cf779fa300a40",
      "vout": 0,
      "prevout": {
        "scriptpubkey": "51206090df4fd2f75921cd3cfed7c65d472d78fd07e1a7a6978019760de69fe8cb52",
        "scriptpubkey_asm": "OP_PUSHNUM_1 OP_PUSHBYTES_32 6090df4fd2f75921cd3cfed7c65d472d78fd07e1a7a6978019760de69fe8cb52",
        "scriptpubkey_type": "v1_p2tr",
        "scriptpubkey_address": "bc1pvzgd7n7j7avjrnfulmtuvh2894u06plp57nf0qqewcx7d8lgedfq08ccad",
        "value": 2994
      },
      "scriptsig": "",
      "scriptsig_asm": "",
      "witness": [
        "78bfca2961039df8020a394cf5951cfa409d4f6f7791b88635647d25b23b521406844c2f0be60a1741fd60492b53e3db4318dfe0fdbd5bffb246fd60840887b5",
        "20f0fa0c3dc097e649ed74789231ba6fb703d2daeef7ecd8901de265c7f49949a6ac0063036f7264010118746578742f706c61696e3b636861727365743d7574662d38003c7b2270223a226272632d3230222c226f70223a227472616e73666572222c227469636b223a227069696e222c22616d74223a2231353030303030227d68",
        "c0f0fa0c3dc097e649ed74789231ba6fb703d2daeef7ecd8901de265c7f49949a6"
      ],
      "is_coinbase": false,
      "sequence": 4294967293
    }
  ],
  "vout": [
    {
      "scriptpubkey": "5120287bcc0a7d5d7a4c889a2493c6066f7447cfcca90993196dcd8166a83d5a6eb3",
      "scriptpubkey_asm": "OP_PUSHNUM_1 OP_PUSHBYTES_32 287bcc0a7d5d7a4c889a2493c6066f7447cfcca90993196dcd8166a83d5a6eb3",
      "scriptpubkey_type": "v1_p2tr",
      "scriptpubkey_address": "bc1p9paucznat4ayezy6yjfuvpn0w3ruln9fpxf3jmwds9n2s026d6esug2nez",
      "value": 546
    }
  ],
  "size": 327,
  "weight": 609,
  "fee": 2448,
  "status": {
    "confirmed": true,
    "block_height": 834464,
    "block_hash": "0000000000000000000177a0869a911a2b65c9bdcd5a8bcb02b68f305bee848e",
    "block_time": 1710308296
  },
  "hex": "02000000000101400a30fa79f77cdd70f376ac895a2903870c31363f7501c998dcfc9f8de9a0a70000000000fdffffff012202000000000000225120287bcc0a7d5d7a4c889a2493c6066f7447cfcca90993196dcd8166a83d5a6eb3034078bfca2961039df8020a394cf5951cfa409d4f6f7791b88635647d25b23b521406844c2f0be60a1741fd60492b53e3db4318dfe0fdbd5bffb246fd60840887b58220f0fa0c3dc097e649ed74789231ba6fb703d2daeef7ecd8901de265c7f49949a6ac0063036f7264010118746578742f706c61696e3b636861727365743d7574662d38003c7b2270223a226272632d3230222c226f70223a227472616e73666572222c227469636b223a227069696e222c22616d74223a2231353030303030227d6821c0f0fa0c3dc097e649ed74789231ba6fb703d2daeef7ecd8901de265c7f49949a600000000"
}