{
  "txid": "176a88ba2a00fc943be41ca69c1d1346cc780f550bdab1af72f740a1ad7eb676",
  "version": 2,
  "locktime": 0,
  "vin": [
    {
      "txid": "5d09a427783f1e209a302e714b463130a5aaaffd08f3494fbf8eafb69327fb55",
      "vout": 9,
      "prevout": {
        "scriptpubkey": "0014872f3bc09bd4972bed922d6f862d08c3438bd4ca",
        "scriptpubkey_asm": "OP_0 OP_PUSHBYTES_20 872f3bc09bd4972bed922d6f862d08c3438bd4ca",
        "scriptpubkey_type": "v0_p2wpkh",
        "scriptpubkey_address": "bc1qsuhnhsym6jtjhmvj94hcvtggcdpch4x2nd88dz",
        "value": 665272
      },
      "scriptsig": "",
      "scriptsig_asm": "",
      "witness": [
        "3045022100b9f0f312c91acc7557370989eec5753f278ff4d6adee925856b56ea314b0c21902201d8a4ecc80dd10c4b47fe80894c6253741fea6b5d3d7fe4a60ed58faceefb41801",
        "0286d3f0f5bccad40049e9ad900146b0559c1ebccdf33e053d52ad45d652fe50f9"
      ],
      "is_coinbase": false,
      "sequence": 4294967293
    }
  ],
  "vout": [
    {
      "scriptpubkey": "76a914b180d73b0bed2f7661f81d4fc64ad869ebcfa7af88ac",
      "scriptpubkey_asm": "OP_DUP OP_HASH160 OP_PUSHBYTES_20 b180d73b0bed2f7661f81d4fc64ad869ebcfa7af OP_EQUALVERIFY OP_CHECKSIG",
      "scriptpubkey_type": "p2pkh",
      "scriptpubkey_address": "1HBYwy2BKRLeQrbkphzAkegCXWiwo2ZBke",
      "value": 664052
    }
  ],
  "size": 195,
  "weight": 450,
  "fee": 1220,
  "status": {
    "confirmed": true,
    "block_height": 834464,
    "block_hash": "0000000000000000000177a0869a911a2b65c9bdcd5a8bcb02b68f305bee848e",
    "block_time": 1710308296
  },
  "hex": "0200000000010155fb2793b6af8ebf4f49f308fdafaaa53031464b712e309a201e3f7827a4095d0900000000fdffffff01f4210a00000000001976a914b180d73b0bed2f7661f81d4fc64ad869ebcfa7af88ac02483045022100b9f0f312c91acc7557370989eec5753f278ff4d6adee925856b56ea314b0c21902201d8a4ecc80dd10c4b47fe80894c6253741fea6b5d3d7fe4a60ed58faceefb41801210286d3f0f5bccad40049e9ad900146b0559c1ebccdf33e053d52ad45d652fe50f900000000"
}