{
  "txid": "1770d01208c35e476911614aed6a6edb5e1d33a8195c804dd64a742cb5ed275e",
  "version": 2,
  "locktime": 0,
  "vin": [
    {
      "txid": "594fdc9c8f9b8c84da2ffb2659afb83977818eadbd1851fa6c8e383932cbfd68",
      "vout": 1,
      "prevout": {
        "scriptpubkey": "001438537cce9ecabb7125929ab804266f2d90debc75",
        "scriptpubkey_asm": "OP_0 OP_PUSHBYTES_20 38537cce9ecabb7125929ab804266f2d90debc75",
        "scriptpubkey_type": "v0_p2wpkh",
        "scriptpubkey_address": "bc1q8pfhen57e2ahzfvjn2uqgfn09kgda0r454p373",
        "value": 406809
      },
      "scriptsig": "",
      "scriptsig_asm": "",
      "witness": [
        "304402205dd3bcf0a78077de35b621f3eb1ecfd6e40349a482d3be451bd3f739d5c07ebd022037b52803683f51bb34bd874883d1c172cab85cb152ea65ed9b65b529d52b776801",
        "028b3989fd766da5dbca23c77aa5f0f6f71c1d0bdc8f8686c8599f9f1b1380a14e"
      ],
      "is_coinbase": false,
      "sequence": 4294967293
    }
  ],
  "vout": [
    {
      "scriptpubkey": "a914f923494ae2b1d012e0bcbf14d066113f4dd2c1e187",
      "scriptpubkey_asm": "OP_HASH160 OP_PUSHBYTES_20 f923494ae2b1d012e0bcbf14d066113f4dd2c1e1 OP_EQUAL",
      "scriptpubkey_type": "p2sh",
      "scriptpubkey_address": "3QQLT3Y9ZbzERnHyrPwJsbWiMZJf8d5rwK",
      "value": 162121
    },
    {
      "scriptpubkey": "00141eb5846e1a12604bc9cee336565ca48dd7f52fe8",
      "scriptpubkey_asm": "OP_0 OP_PUSHBYTES_20 1eb5846e1a12604bc9cee336565ca48dd7f52fe8",
      "scriptpubkey_type": "v0_p2wpkh",
      "scriptpubkey_address": "bc1qr66cgms6zfsyhjwwuvm9vh9y3htl2tlgva94fx",
      "value": 242851
    }
  ],
  "size": 223,
  "weight": 565,
  "fee": 1837,
  "status": {
    "confirmed": true,
    "block_height": 834460,
    "block_hash": "00000000000000000000484a79b643b2524bbce82e5d8a442013fa5b8905ed98",
    "block_time": 1710307468
  },
  "hex": "0200000000010168fdcb3239388e6cfa5118bdad8e817739b8af5926fb2fda848c9b8f9cdc4f590100000000fdffffff02497902000000000017a914f923494ae2b1d012e0bcbf14d066113f4dd2c1e187a3b40300000000001600141eb5846e1a12604bc9cee336565ca48dd7f52fe80247304402205dd3bcf0a78077de35b621f3eb1ecfd6e40349a482d3be451bd3f739d5c07ebd022037b52803683f51bb34bd874883d1c172cab85cb152ea65ed9b65b529d52b77680121028b3989fd766da5dbca23c77aa5f0f6f71c1d0bdc8f8686c8599f9f1b1380a14e00000000"
}