{
  "txid": "17889ba32a10258db28c5493f41a669b004204365467c5960ee254ae009e4db1",
  "version": 2,
  "locktime": 0,
  "vin": [
    {
      "txid": "8486ecb4df0880316dd6e82b3971b4df187aff23765bc3a47f8d78bb53aa273c",
      "vout": 80,
      "prevout": {
        "scriptpubkey": "5120db18c0480930e2172e63873599381b66e6f1444582d543ee7888dcb2470d0d30",
        "scriptpubkey_asm": "OP_PUSHNUM_1 OP_PUSHBYTES_32 db18c0480930e2172e63873599381b66e6f1444582d543ee7888dcb2470d0d30",
        "scriptpubkey_type": "v1_p2tr",
        "scriptpubkey_address": "bc1pmvvvqjqfxr3pwtnrsu6ejwqmvmn0z3z9st258mnc3rwty3cdp5cqc3gny4",
        "value": 2575
      },
      "scriptsig": "",
      "scriptsig_asm": "",
      "witness": [
        "c14645b498064e7f6d7bf89caa645d05309ca942f4e6c76b2e5ca6fdff15c3838f9e1fced94b688d1283928ddbe5dd0d063ae84880f336e2b7c7dfb3d4f5839b",
        "20b7e01d213f3d9f52aa5a1067811da1dea0be6fb67ef895d04feecc7aeb4ab74dac0063036f726401010a746578742f706c61696e00367b2270223a226272632d3230222c226f70223a226d696e74222c227469636b223a2261616161222c22616d74223a223130303030227d68",
        "c0b7e01d213f3d9f52aa5a1067811da1dea0be6fb67ef895d04feecc7aeb4ab74d"
      ],
      "is_coinbase": false,
      "sequence": 4261412863
    }
  ],
  "vout": [
    {
      "scriptpubkey": "0014ddd7ef12ea6f78edcc1e8e7afa12c01ab59f3339",
      "scriptpubkey_asm": "OP_0 OP_PUSHBYTES_20 ddd7ef12ea6f78edcc1e8e7afa12c01ab59f3339",
      "scriptpubkey_type": "v0_p2wpkh",
      "scriptpubkey_address": "bc1qmht77yh2dauwmnq73ea05ykqr26e7veea8spz6",
      "value": 546
    }
  ],
  "size": 295,
  "weight": 541,
  "fee": 2029,
  "status": {
    "confirmed": true,
    "block_height": 834460,
    "block_hash": "00000000000000000000484a79b643b2524bbce82e5d8a442013fa5b8905ed98",
    "block_time": 1710307468
  },
  "hex": "020000000001013c27aa53bb788d7fa4c35b7623ff7a18dfb471392be8d66d318008dfb4ec86845000000000fffffffd012202000000000000160014ddd7ef12ea6f78edcc1e8e7afa12c01ab59f33390340c14645b498064e7f6d7bf89caa645d05309ca942f4e6c76b2e5ca6fdff15c3838f9e1fced94b688d1283928ddbe5dd0d063ae84880f336e2b7c7dfb3d4f5839b6e20b7e01d213f3d9f52aa5a1067811da1dea0be6fb67ef895d04feecc7aeb4ab74dac0063036f726401010a746578742f706c61696e00367b2270223a226272632d3230222c226f70223a226d696e74222c227469636b223a2261616161222c22616d74223a223130303030227d6821c0b7e01d213f3d9f52aa5a1067811da1dea0be6fb67ef895d04feecc7aeb4ab74d00000000"
}