{
  "txid": "178e2d42ee98128abdb6e6b9a6590167076dfd05d333aa354e612f06170664d5",
  "version": 2,
  "locktime": 834637,
  "vin": [
    {
      "txid": "001d79a968a5f679b7b17276bc2d45700b575c0bf40befb52ec7687bc00d4364",
      "vout": 1,
      "prevout": {
        "scriptpubkey": "00149aafdf6be7da645bdefe869b2a75a627c082bf54",
        "scriptpubkey_asm": "OP_0 OP_PUSHBYTES_20 9aafdf6be7da645bdefe869b2a75a627c082bf54",
        "scriptpubkey_type": "v0_p2wpkh",
        "scriptpubkey_address": "bc1qn2ha76l8mfj9hhh7s6dj5adxylqg90658ymnsh",
        "value": 155153627
      },
      "scriptsig": "",
      "scriptsig_asm": "",
      "witness": [
        "304402200990b8f61d9647d4da37a48f5c6040bca99610f679062242c02ec97c54464899022036436991ab06739870e6144c687d0fa16dd87ae6cdddd920dba7b4bca6836a5f01",
        "0220165688cc2ff96803b00bc89fd23a607e2c08fee7239d68c269c1b0c94d764c"
      ],
      "is_coinbase": false,
      "sequence": 4294967293
    }
  ],
  "vout": [
    {
      "scriptpubkey": "00149406c3a1588395bb1363e8c411f5fca060c15933",
      "scriptpubkey_asm": "OP_0 OP_PUSHBYTES_20 9406c3a1588395bb1363e8c411f5fca060c15933",
      "scriptpubkey_type": "v0_p2wpkh",
      "scriptpubkey_address": "bc1qjsrv8g2csw2mkymrarzpra0u5psvzkfnqcs4eu",
      "value": 237653
    },
    {
      "scriptpubkey": "0014d1245b1e0b91603652006c2cc60a52d10460332b",
      "scriptpubkey_asm": "OP_0 OP_PUSHBYTES_20 d1245b1e0b91603652006c2cc60a52d10460332b",
      "scriptpubkey_type": "v0_p2wpkh",
      "scriptpubkey_address": "bc1q6yj9k8stj9srv5sqdskvvzjj6yzxqvet53wvyy",
      "value": 154912167
    }
  ],
  "size": 222,
  "weight": 561,
  "fee": 3807,
  "status": {
    "confirmed": true,
    "block_height": 834638,
    "block_hash": "000000000000000000025f742c626208ac87e0b7d15054abb4a19ca2d735a54e",
    "block_time": 1710405325
  },
  "hex": "0200000000010164430dc07b68c72eb5ef0bf40b5c570b70452dbc7672b1b779f6a568a9791d000100000000fdffffff0255a00300000000001600149406c3a1588395bb1363e8c411f5fca060c15933a7c53b0900000000160014d1245b1e0b91603652006c2cc60a52d10460332b0247304402200990b8f61d9647d4da37a48f5c6040bca99610f679062242c02ec97c54464899022036436991ab06739870e6144c687d0fa16dd87ae6cdddd920dba7b4bca6836a5f01210220165688cc2ff96803b00bc89fd23a607e2c08fee7239d68c269c1b0c94d764c4dbc0c00"
}