{
  "txid": "17af26a0fc638c9153a57ca5357382d28d7e8f07f67ff02e9b5921431d3957a0",
  "version": 1,
  "locktime": 0,
  "vin": [
    {
      "txid": "c5c99d66930039e880388a388250958a4c2acda7d4142a1f6a85864b087a568b",
      "vout": 0,
      "prevout": {
        "scriptpubkey": "00207250d91085a77a4568fa4cfd5bebb59f0b9cb3530f8154cd4fab6d28abd548fe",
        "scriptpubkey_asm": "OP_0 OP_PUSHBYTES_32 7250d91085a77a4568fa4cfd5bebb59f0b9cb3530f8154cd4fab6d28abd548fe",
        "scriptpubkey_type": "v0_p2wsh",
        "scriptpubkey_address": "bc1qwfgdjyy95aay2686fn74h6a4nu9eev6np7q4fn204dkj3274frlqrskvx0",
        "value": 162873339
      },
      "scriptsig": "",
      "scriptsig_asm": "",
      "witness": [
        "",
        "304402205d2c384c826f6e95357001587f71c0d672d873db39e50948eceb36538cd47d0c02206427e9c1ae0022daa141ce22215e45cc9c214c6a4517de1550ae4f240ef25eb301",
        "30440220625b32fb52a93db778ec891c3aec3e112b887515904418948595bf7fdc48b4c302200248c0246348b6a61c17a24c777a647548ec993c2cf85684d6c0f84959f7d9f601",
        "5221030fac04165b606dea3b8f81ada5eb66ca181d5215c873fcf46623ea7cf8e98b1b2102b7836a2a9d3ff095415383cb23a5f4f1badd75e44adb17537962eafe3ded3b602102f8cb472df1ae03cfa6b65b013add7862c7d3ac3684a8a92a44192faace228aee53ae"
      ],
      "is_coinbase": false,
      "sequence": 4294967295,
      "inner_witnessscript_asm": "OP_PUSHNUM_2 OP_PUSHBYTES_33 030fac04165b606dea3b8f81ada5eb66ca181d5215c873fcf46623ea7cf8e98b1b OP_PUSHBYTES_33 02b7836a2a9d3ff095415383cb23a5f4f1badd75e44adb17537962eafe3ded3b60 OP_PUSHBYTES_33 02f8cb472df1ae03cfa6b65b013add7862c7d3ac3684a8a92a44192faace228aee OP_PUSHNUM_3 OP_CHECKMULTISIG"
    }
  ],
  "vout": [
    {
      "scriptpubkey": "76a914408f3d894840f89c0bb7b895ca11c09d2321820088ac",
      "scriptpubkey_asm": "OP_DUP OP_HASH160 OP_PUSHBYTES_20 408f3d894840f89c0bb7b895ca11c09d23218200 OP_EQUALVERIFY OP_CHECKSIG",
      "scriptpubkey_type": "p2pkh",
      "scriptpubkey_address": "16tMqnzVLRh6qKaRv9XCiCt8zLjq5cKweq",
      "value": 5169868
    },
    {
      "scriptpubkey": "00207250d91085a77a4568fa4cfd5bebb59f0b9cb3530f8154cd4fab6d28abd548fe",
      "scriptpubkey_asm": "OP_0 OP_PUSHBYTES_32 7250d91085a77a4568fa4cfd5bebb59f0b9cb3530f8154cd4fab6d28abd548fe",
      "scriptpubkey_type": "v0_p2wsh",
      "scriptpubkey_address": "bc1qwfgdjyy95aay2686fn74h6a4nu9eev6np7q4fn204dkj3274frlqrskvx0",
      "value": 157699651
    }
  ],
  "size": 382,
  "weight": 766,
  "fee": 3820,
  "status": {
    "confirmed": true,
    "block_height": 834638,
    "block_hash": "000000000000000000025f742c626208ac87e0b7d15054abb4a19ca2d735a54e",
    "block_time": 1710405325
  },
  "hex": "010000000001018b567a084b86856a1f2a14d4a7cd2a4c8a955082388a3880e8390093669dc9c50000000000ffffffff02cce24e00000000001976a914408f3d894840f89c0bb7b895ca11c09d2321820088ac434e6609000000002200207250d91085a77a4568fa4cfd5bebb59f0b9cb3530f8154cd4fab6d28abd548fe040047304402205d2c384c826f6e95357001587f71c0d672d873db39e50948eceb36538cd47d0c02206427e9c1ae0022daa141ce22215e45cc9c214c6a4517de1550ae4f240ef25eb3014730440220625b32fb52a93db778ec891c3aec3e112b887515904418948595bf7fdc48b4c302200248c0246348b6a61c17a24c777a647548ec993c2cf85684d6c0f84959f7d9f601695221030fac04165b606dea3b8f81ada5eb66ca181d5215c873fcf46623ea7cf8e98b1b2102b7836a2a9d3ff095415383cb23a5f4f1badd75e44adb17537962eafe3ded3b602102f8cb472df1ae03cfa6b65b013add7862c7d3ac3684a8a92a44192faace228aee53ae00000000"
}