{
  "txid": "17c9c49b42f56d14d81889455e733fbdab2cf93fc372b2214716293a1c315e37",
  "version": 2,
  "locktime": 0,
  "vin": [
    {
      "txid": "0fc43bb2a4c1895c3ec0ae07122bb947c68bbb244d9e6665c9c16cbc4652435e",
      "vout": 1,
      "prevout": {
        "scriptpubkey": "51204f66c453fe6f3fb739002b7c9154fe16fae6093e08f676f2babb55eaea1a829c",
        "scriptpubkey_asm": "OP_PUSHNUM_1 OP_PUSHBYTES_32 4f66c453fe6f3fb739002b7c9154fe16fae6093e08f676f2babb55eaea1a829c",
        "scriptpubkey_type": "v1_p2tr",
        "scriptpubkey_address": "bc1pfanvg5l7dulmwwgq9d7fz487zmawvzf7prm8du46hd2746s6s2wqv5en98",
        "value": 64283
      },
      "scriptsig": "",
      "scriptsig_asm": "",
      "witness": [
        "4e3c1dfa7ef89d7218deb6a38350953416152e3e0ca8377ece706cef32de7fe27650d4548a4d02f7c5446c005d11ee270eae993bb4f2b77f99a5519642579e8b"
      ],
      "is_coinbase": false,
      "sequence": 2147483649
    }
  ],
  "vout": [
    {
      "scriptpubkey": "a914f90aec3e92a5bb5110e091d3fb87008459bce4dc87",
      "scriptpubkey_asm": "OP_HASH160 OP_PUSHBYTES_20 f90aec3e92a5bb5110e091d3fb87008459bce4dc OP_EQUAL",
      "scriptpubkey_type": "p2sh",
      "scriptpubkey_address": "3QPqGEw8mzqz83jBH594bFUMZ2JtQ9pNBh",
      "value": 50000
    },
    {
      "scriptpubkey": "51204f66c453fe6f3fb739002b7c9154fe16fae6093e08f676f2babb55eaea1a829c",
      "scriptpubkey_asm": "OP_PUSHNUM_1 OP_PUSHBYTES_32 4f66c453fe6f3fb739002b7c9154fe16fae6093e08f676f2babb55eaea1a829c",
      "scriptpubkey_type": "v1_p2tr",
      "scriptpubkey_address": "bc1pfanvg5l7dulmwwgq9d7fz487zmawvzf7prm8du46hd2746s6s2wqv5en98",
      "value": 12138
    }
  ],
  "size": 194,
  "weight": 572,
  "fee": 2145,
  "status": {
    "confirmed": true,
    "block_height": 834638,
    "block_hash": "000000000000000000025f742c626208ac87e0b7d15054abb4a19ca2d735a54e",
    "block_time": 1710405325
  },
  "hex": "020000000001015e435246bc6cc1c965669e4d24bb8bc647b92b1207aec03e5c89c1a4b23bc40f0100000000010000800250c300000000000017a914f90aec3e92a5bb5110e091d3fb87008459bce4dc876a2f0000000000002251204f66c453fe6f3fb739002b7c9154fe16fae6093e08f676f2babb55eaea1a829c01404e3c1dfa7ef89d7218deb6a38350953416152e3e0ca8377ece706cef32de7fe27650d4548a4d02f7c5446c005d11ee270eae993bb4f2b77f99a5519642579e8b00000000"
}