{
  "txid": "17e2054748c4622fb2c61a6c37ea71fd6cb79321b952a14f52b3823d803ff6ed",
  "version": 2,
  "locktime": 539797092,
  "vin": [
    {
      "txid": "8e2820e9d3bacb1a4d76d2d1c184e55d1654d5cdc5e062c25a234192bcba879b",
      "vout": 1,
      "prevout": {
        "scriptpubkey": "002007d2a3f46128e6ce035a3b05b2eae5b2eb69a305dc77b52ef01de56fe1cb7917",
        "scriptpubkey_asm": "OP_0 OP_PUSHBYTES_32 07d2a3f46128e6ce035a3b05b2eae5b2eb69a305dc77b52ef01de56fe1cb7917",
        "scriptpubkey_type": "v0_p2wsh",
        "scriptpubkey_address": "bc1qqlf28arp9rnvuq668vzm96h9kt4kngc9m3mm2thsrhjklcwt0yts37n2ru",
        "value": 1000000
      },
      "scriptsig": "",
      "scriptsig_asm": "",
      "witness": [
        "",
        "3045022100b92d3cab7b45dc5e7fba4c0f1e682022bc54f8df42d324e6a736180ea8a046d90220442fe50f8af1c39a91ee63dae02af93ec92d7d024f1e8e525101a30e83ccaf0601",
        "304402205e254241ba5a5774bb0a8b2fc60e08820c5c4157ce236194de1ded42c81b1e6b022044e87201aac29dd4602d2a1b30883d6a2310a73d18bfa9e941df4f03ef62babb01",
        "5221024c71961d0e4010a3a409a99659f44722e5f3f4215e8f740db0d78eb58f61ec8e210368ef44352e56ccbd19510f132329fa00bf4b516fc2a865e2fe7cacf3654015b352ae"
      ],
      "is_coinbase": false,
      "sequence": 2162771141,
      "inner_witnessscript_asm": "OP_PUSHNUM_2 OP_PUSHBYTES_33 024c71961d0e4010a3a409a99659f44722e5f3f4215e8f740db0d78eb58f61ec8e OP_PUSHBYTES_33 0368ef44352e56ccbd19510f132329fa00bf4b516fc2a865e2fe7cacf3654015b3 OP_PUSHNUM_2 OP_CHECKMULTISIG"
    }
  ],
  "vout": [
    {
      "scriptpubkey": "002062f4ac9b9ada79d7de4b06ea37a77eea26100748d3bf54efff01d57716379dc0",
      "scriptpubkey_asm": "OP_0 OP_PUSHBYTES_32 62f4ac9b9ada79d7de4b06ea37a77eea26100748d3bf54efff01d57716379dc0",
      "scriptpubkey_type": "v0_p2wsh",
      "scriptpubkey_address": "bc1qvt62exu6mfua0hjtqm4r0fm7agnpqp6g6wl4fmllq82hw93hnhqqkatqj4",
      "value": 330
    },
    {
      "scriptpubkey": "00208baac5351436362e39b8f444c0f1c99ce6c028a39b6d9d2d356d17a0d91256d7",
      "scriptpubkey_asm": "OP_0 OP_PUSHBYTES_32 8baac5351436362e39b8f444c0f1c99ce6c028a39b6d9d2d356d17a0d91256d7",
      "scriptpubkey_type": "v0_p2wsh",
      "scriptpubkey_address": "bc1q3w4v2dg5xcmzuwdc73zvpuwfnnnvq29rndke6tf4d5t6pkgj2mtsq8svsr",
      "value": 330
    },
    {
      "scriptpubkey": "0020b26f00051aaa72aaf882fcdd4e87d1064b57993675060738b26edc62421b506a",
      "scriptpubkey_asm": "OP_0 OP_PUSHBYTES_32 b26f00051aaa72aaf882fcdd4e87d1064b57993675060738b26edc62421b506a",
      "scriptpubkey_type": "v0_p2wsh",
      "scriptpubkey_address": "bc1qkfhsqpg64fe247yzlnw5ap73qe940xfkw5rqww9jdmwxyssm2p4qhgdsus",
      "value": 28199
    },
    {
      "scriptpubkey": "0020ab3696f06719d3b8fdf3967dd15d1553b7bab19ab9e1f6397d2ea0ed58cf6b15",
      "scriptpubkey_asm": "OP_0 OP_PUSHBYTES_32 ab3696f06719d3b8fdf3967dd15d1553b7bab19ab9e1f6397d2ea0ed58cf6b15",
      "scriptpubkey_type": "v0_p2wsh",
      "scriptpubkey_address": "bc1q4vmfdur8r8fm3l0nje7azhg42wmm4vv6h8slvwta96sw6kx0dv2snz37tx",
      "value": 968088
    }
  ],
  "size": 444,
  "weight": 1113,
  "fee": 3053,
  "status": {
    "confirmed": true,
    "block_height": 834464,
    "block_hash": "0000000000000000000177a0869a911a2b65c9bdcd5a8bcb02b68f305bee848e",
    "block_time": 1710308296
  },
  "hex": "020000000001019b87babc9241235ac262e0c5cdd554165de584c1d1d2764d1acbbad3e920288e0100000000c544e980044a0100000000000022002062f4ac9b9ada79d7de4b06ea37a77eea26100748d3bf54efff01d57716379dc04a010000000000002200208baac5351436362e39b8f444c0f1c99ce6c028a39b6d9d2d356d17a0d91256d7276e000000000000220020b26f00051aaa72aaf882fcdd4e87d1064b57993675060738b26edc62421b506a98c50e0000000000220020ab3696f06719d3b8fdf3967dd15d1553b7bab19ab9e1f6397d2ea0ed58cf6b150400483045022100b92d3cab7b45dc5e7fba4c0f1e682022bc54f8df42d324e6a736180ea8a046d90220442fe50f8af1c39a91ee63dae02af93ec92d7d024f1e8e525101a30e83ccaf060147304402205e254241ba5a5774bb0a8b2fc60e08820c5c4157ce236194de1ded42c81b1e6b022044e87201aac29dd4602d2a1b30883d6a2310a73d18bfa9e941df4f03ef62babb01475221024c71961d0e4010a3a409a99659f44722e5f3f4215e8f740db0d78eb58f61ec8e210368ef44352e56ccbd19510f132329fa00bf4b516fc2a865e2fe7cacf3654015b352ae64a62c20"
}