{
  "txid": "17e8a80951f5b676fff4f496c6688905c4151002ef6cdcb4c195ca1ffe696604",
  "version": 1,
  "locktime": 0,
  "vin": [
    {
      "txid": "38915b3163a429bd533173085d7d842e2bf20da293660551c36c5fabc0ea408f",
      "vout": 0,
      "prevout": {
        "scriptpubkey": "0014d017a4abd14d23dd11d5cdbc2aa7354d7aeb4dad",
        "scriptpubkey_asm": "OP_0 OP_PUSHBYTES_20 d017a4abd14d23dd11d5cdbc2aa7354d7aeb4dad",
        "scriptpubkey_type": "v0_p2wpkh",
        "scriptpubkey_address": "bc1q6qt6f273f53a6yw4ek7z4fe4f4awknddk3uq5k",
        "value": 439075
      },
      "scriptsig": "",
      "scriptsig_asm": "",
      "witness": [
        "304402205c3a2d835de821758d960d78852394347c7468cfd20b4be684f9dec2cb84880002204bd07d73731995ddebe6b04379226e6ddd7fad5d9c263c3127bca59dca123b7b01",
        "02b7b833f4bfab51e1be7ed4445cbf145fd65bebda1ea5dcab09581466a1af8f6c"
      ],
      "is_coinbase": false,
      "sequence": 4294967295
    }
  ],
  "vout": [
    {
      "scriptpubkey": "76a9148da8df282a260528ca5eaa42d4471580c7181a8a88ac",
      "scriptpubkey_asm": "OP_DUP OP_HASH160 OP_PUSHBYTES_20 8da8df282a260528ca5eaa42d4471580c7181a8a OP_EQUALVERIFY OP_CHECKSIG",
      "scriptpubkey_type": "p2pkh",
      "scriptpubkey_address": "1Dv2aTgKjcqQiDPSWSy64cxbjFjRuqW9hP",
      "value": 436024
    }
  ],
  "size": 194,
  "weight": 449,
  "fee": 3051,
  "status": {
    "confirmed": true,
    "block_height": 834638,
    "block_hash": "000000000000000000025f742c626208ac87e0b7d15054abb4a19ca2d735a54e",
    "block_time": 1710405325
  },
  "hex": "010000000001018f40eac0ab5f6cc351056693a20df22b2e847d5d08733153bd29a463315b91380000000000ffffffff0138a70600000000001976a9148da8df282a260528ca5eaa42d4471580c7181a8a88ac0247304402205c3a2d835de821758d960d78852394347c7468cfd20b4be684f9dec2cb84880002204bd07d73731995ddebe6b04379226e6ddd7fad5d9c263c3127bca59dca123b7b012102b7b833f4bfab51e1be7ed4445cbf145fd65bebda1ea5dcab09581466a1af8f6c00000000"
}