{
  "txid": "17ee43213721a76948a8b7c5c23c9875cc68ded968dc9ad62baa68857dc3ae8d",
  "version": 2,
  "locktime": 0,
  "vin": [
    {
      "txid": "d4b26982b56cab3896a6933a3e946b3805f3eb8583db8dc84f436fce76c415af",
      "vout": 1,
      "prevout": {
        "scriptpubkey": "51208387b81093129603562c6387da2247bf15c746fa2386578c4dde4f8ea4ac4f23",
        "scriptpubkey_asm": "OP_PUSHNUM_1 OP_PUSHBYTES_32 8387b81093129603562c6387da2247bf15c746fa2386578c4dde4f8ea4ac4f23",
        "scriptpubkey_type": "v1_p2tr",
        "scriptpubkey_address": "bc1pswrmsyynz2tqx43vvwra5gj8hu2uw3h6ywr90rzdme8caf9vfu3sse0s58",
        "value": 166740
      },
      "scriptsig": "",
      "scriptsig_asm": "",
      "witness": [
        "c09c1c0d087417681c17d42ce5770691f7904a6ff6eab7adfb641fd05b72e57e81e8c16edffee3026e82ba39d33b374064b867ff9cc4c8d5076de99636946c26"
      ],
      "is_coinbase": false,
      "sequence": 2147483649
    },
    {
      "txid": "fe1800467042f97874935a2c99973d5a6ccc7aad1c7296cc2eca712eb71049bc",
      "vout": 1,
      "prevout": {
        "scriptpubkey": "51208387b81093129603562c6387da2247bf15c746fa2386578c4dde4f8ea4ac4f23",
        "scriptpubkey_asm": "OP_PUSHNUM_1 OP_PUSHBYTES_32 8387b81093129603562c6387da2247bf15c746fa2386578c4dde4f8ea4ac4f23",
        "scriptpubkey_type": "v1_p2tr",
        "scriptpubkey_address": "bc1pswrmsyynz2tqx43vvwra5gj8hu2uw3h6ywr90rzdme8caf9vfu3sse0s58",
        "value": 11844
      },
      "scriptsig": "",
      "scriptsig_asm": "",
      "witness": [
        "1d44a271588715d4bd5b030f5928379e8dfc32731f4680484eced8ab09fee6b8bead9e86023879ee88930e57426e60e6d8a7d29786f04dc15fc6aae07da4d53e"
      ],
      "is_coinbase": false,
      "sequence": 2147483649
    }
  ],
  "vout": [
    {
      "scriptpubkey": "5120347dbb491f57123c9780b8d8095f62fa75e666db91b7237a0efa779a6e212ef1",
      "scriptpubkey_asm": "OP_PUSHNUM_1 OP_PUSHBYTES_32 347dbb491f57123c9780b8d8095f62fa75e666db91b7237a0efa779a6e212ef1",
      "scriptpubkey_type": "v1_p2tr",
      "scriptpubkey_address": "bc1px37mkjgl2ufre9uqhrvqjhmzlf67vekmjxmjx7swlfme5m3p9mcsuj7z5f",
      "value": 175896
    }
  ],
  "size": 269,
  "weight": 674,
  "fee": 2688,
  "status": {
    "confirmed": true,
    "block_height": 834638,
    "block_hash": "000000000000000000025f742c626208ac87e0b7d15054abb4a19ca2d735a54e",
    "block_time": 1710405325
  },
  "hex": "02000000000102af15c476ce6f434fc88ddb8385ebf305386b943e3a93a69638ab6cb58269b2d4010000000001000080bc4910b72e71ca2ecc96721cad7acc6c5a3d97992c5a937478f94270460018fe0100000000010000800118af020000000000225120347dbb491f57123c9780b8d8095f62fa75e666db91b7237a0efa779a6e212ef10140c09c1c0d087417681c17d42ce5770691f7904a6ff6eab7adfb641fd05b72e57e81e8c16edffee3026e82ba39d33b374064b867ff9cc4c8d5076de99636946c2601401d44a271588715d4bd5b030f5928379e8dfc32731f4680484eced8ab09fee6b8bead9e86023879ee88930e57426e60e6d8a7d29786f04dc15fc6aae07da4d53e00000000"
}