{
  "txid": "17f063e657a7e91a25c08f44f2713e9532981b0594b78b0efe742b5bd69c1cef",
  "version": 2,
  "locktime": 0,
  "vin": [
    {
      "txid": "acc3ba00869acb582a3f2904ce3a11dd3779350ce234063fc7d0959246213364",
      "vout": 127,
      "prevout": {
        "scriptpubkey": "5120ea0183ccdaa82729861ec247b787707047a7563259cbb6f73cb839f927688abc",
        "scriptpubkey_asm": "OP_PUSHNUM_1 OP_PUSHBYTES_32 ea0183ccdaa82729861ec247b787707047a7563259cbb6f73cb839f927688abc",
        "scriptpubkey_type": "v1_p2tr",
        "scriptpubkey_address": "bc1pagqc8nx64qnjnps7cfrm0pmswpr6w43jt89mdaeuhquljfmg327qp4r9ny",
        "value": 1806
      },
      "scriptsig": "",
      "scriptsig_asm": "",
      "witness": [
        "399a82be73dfd63ad29b96a36737ba557766989c504cb3cbecdb64d991c6f88cd81a3bb0ec1d54314c7b7c4e27ddd3ac9581fdf590500e3a6bfed1201b338359",
        "202ff0bda2223abeb3efacc2dba7225642efe6c65cf9e6ffe9cc8a8f70a0d214baac0063036f726401010a746578742f706c61696e00357b2270223a226272632d3230222c226f70223a226d696e74222c227469636b223a22646f6765222c22616d74223a2234323030227d68",
        "c02ff0bda2223abeb3efacc2dba7225642efe6c65cf9e6ffe9cc8a8f70a0d214ba"
      ],
      "is_coinbase": false,
      "sequence": 4261412863
    }
  ],
  "vout": [
    {
      "scriptpubkey": "00147a665de7a370f4c9b372ab1fae587500a5bcbdb4",
      "scriptpubkey_asm": "OP_0 OP_PUSHBYTES_20 7a665de7a370f4c9b372ab1fae587500a5bcbdb4",
      "scriptpubkey_type": "v0_p2wpkh",
      "scriptpubkey_address": "bc1q0fn9mearwr6vnvmj4v06ukr4qzjme0d565dzcx",
      "value": 294
    }
  ],
  "size": 294,
  "weight": 540,
  "fee": 1512,
  "status": {
    "confirmed": true,
    "block_height": 834460,
    "block_hash": "00000000000000000000484a79b643b2524bbce82e5d8a442013fa5b8905ed98",
    "block_time": 1710307468
  },
  "hex": "02000000000101643321469295d0c73f0634e20c357937dd113ace04293f2a58cb9a8600bac3ac7f00000000fffffffd0126010000000000001600147a665de7a370f4c9b372ab1fae587500a5bcbdb40340399a82be73dfd63ad29b96a36737ba557766989c504cb3cbecdb64d991c6f88cd81a3bb0ec1d54314c7b7c4e27ddd3ac9581fdf590500e3a6bfed1201b3383596d202ff0bda2223abeb3efacc2dba7225642efe6c65cf9e6ffe9cc8a8f70a0d214baac0063036f726401010a746578742f706c61696e00357b2270223a226272632d3230222c226f70223a226d696e74222c227469636b223a22646f6765222c22616d74223a2234323030227d6821c02ff0bda2223abeb3efacc2dba7225642efe6c65cf9e6ffe9cc8a8f70a0d214ba00000000"
}