{
  "txid": "17f1914e5c8e1243dd6ce054aee9cc603902291eabfc188108da0737beb66891",
  "version": 2,
  "locktime": 834637,
  "vin": [
    {
      "txid": "75a2485b07644baa16e610b7fd06a67d6b9e884425439ab217e89e3e2e393eb7",
      "vout": 1,
      "prevout": {
        "scriptpubkey": "0014e1c3a648917d7eba0f975b0e0887bffbb1b514f6",
        "scriptpubkey_asm": "OP_0 OP_PUSHBYTES_20 e1c3a648917d7eba0f975b0e0887bffbb1b514f6",
        "scriptpubkey_type": "v0_p2wpkh",
        "scriptpubkey_address": "bc1qu8p6vjy304lt5ruhtv8q3pallwcm298knyu3xw",
        "value": 694582592
      },
      "scriptsig": "",
      "scriptsig_asm": "",
      "witness": [
        "304402202bd21cb95e98b6f77b24f8fb024c2315ef535da700274eaa22120bace71204fa02204416c3b8afa4e3f6244c46f9a26f4f0274a6b032c315085cee1e89cc4870341101",
        "0309c8663071c878e889963cd008e87a1cd7a4b3290f538b4c7020c96e8a17e460"
      ],
      "is_coinbase": false,
      "sequence": 4294967294
    }
  ],
  "vout": [
    {
      "scriptpubkey": "0014b65f4ea86e452e4fcd7b5769d535f56e373bcb9e",
      "scriptpubkey_asm": "OP_0 OP_PUSHBYTES_20 b65f4ea86e452e4fcd7b5769d535f56e373bcb9e",
      "scriptpubkey_type": "v0_p2wpkh",
      "scriptpubkey_address": "bc1qke05a2rwg5hylntm2a5a2d04dcmnhju7nhe4cc",
      "value": 693064812
    },
    {
      "scriptpubkey": "a914d4104caf72f61341e1671de235239bbc48f2df7c87",
      "scriptpubkey_asm": "OP_HASH160 OP_PUSHBYTES_20 d4104caf72f61341e1671de235239bbc48f2df7c OP_EQUAL",
      "scriptpubkey_type": "p2sh",
      "scriptpubkey_address": "3M2Jhiyc4RQoDtwWFmpcY2ocDfi26Q5rwA",
      "value": 1514300
    }
  ],
  "size": 223,
  "weight": 565,
  "fee": 3480,
  "status": {
    "confirmed": true,
    "block_height": 834638,
    "block_hash": "000000000000000000025f742c626208ac87e0b7d15054abb4a19ca2d735a54e",
    "block_time": 1710405325
  },
  "hex": "02000000000101b73e392e3e9ee817b29a432544889e6b7da606fdb710e616aa4b64075b48a2750100000000feffffff026c544f2900000000160014b65f4ea86e452e4fcd7b5769d535f56e373bcb9e3c1b17000000000017a914d4104caf72f61341e1671de235239bbc48f2df7c870247304402202bd21cb95e98b6f77b24f8fb024c2315ef535da700274eaa22120bace71204fa02204416c3b8afa4e3f6244c46f9a26f4f0274a6b032c315085cee1e89cc4870341101210309c8663071c878e889963cd008e87a1cd7a4b3290f538b4c7020c96e8a17e4604dbc0c00"
}