{
  "txid": "17f8ff08714a92852a199283e23de6afa58470e4039a2ac3a4e73189d6e03577",
  "version": 2,
  "locktime": 0,
  "vin": [
    {
      "txid": "da8410e2f20f147509140f96737252dd0b9a6edf04b1b52707222c75c1c0b69f",
      "vout": 1,
      "prevout": {
        "scriptpubkey": "5120c1acaf2bbd9ff41fae3f0d18cbbe265552db7e0fbc6770624cbd1e0b2b190737",
        "scriptpubkey_asm": "OP_PUSHNUM_1 OP_PUSHBYTES_32 c1acaf2bbd9ff41fae3f0d18cbbe265552db7e0fbc6770624cbd1e0b2b190737",
        "scriptpubkey_type": "v1_p2tr",
        "scriptpubkey_address": "bc1pcxk272aanl6plt3lp5vvh03x24fdkls0h3nhqcjvh50qk2cequmsu8v0f5",
        "value": 3248
      },
      "scriptsig": "",
      "scriptsig_asm": "",
      "witness": [
        "b6e40615e86921605df16c323f3b910323287602b2fff223ceb65b1f1fc4b07561a2602f6414b6358251c1a03872e9b3ccacd6098538e76e5de6013a9bc533e8",
        "203c15860c18a9b0b6851926b67a1328f5e9b5030972ff7465a733675fc886cc5fac0063036f726401011e6170706c69636174696f6e2f6a736f6e3b636861727365743d7574662d38004cd37b2270223a22706f772d3230222c226f70223a226d696e74222c227469636b223a2250455045222c22616d74223a2231303030222c22736f6c7574696f6e223a22504550453a62633170397276616c3230386c75767a3230766e647872617065687975666d663067397a6d6b78687a33336d327836613467356b73337471686b7763366c3a303030303030303030303030303030303030303139393431613561653132383937363539383134343239323533333030353762306461393666336465613163353a3335313639353831383031227d68",
        "c00e95d2cb83f01efec0e30ec5989dc6709fea2c93a44b65152e9b5459c47f4202"
      ],
      "is_coinbase": false,
      "sequence": 4294967295
    }
  ],
  "vout": [
    {
      "scriptpubkey": "512028d9dfa9e7ff18253d936987d0e6e4e27697a0a2dd8d71463b51b5daa2968456",
      "scriptpubkey_asm": "OP_PUSHNUM_1 OP_PUSHBYTES_32 28d9dfa9e7ff18253d936987d0e6e4e27697a0a2dd8d71463b51b5daa2968456",
      "scriptpubkey_type": "v1_p2tr",
      "scriptpubkey_address": "bc1p9rval208luvz20vndxrapehyufmf0g9zmkxhz33m2x6a4g5ks3tqhkwc6l",
      "value": 546
    }
  ],
  "size": 487,
  "weight": 769,
  "fee": 2702,
  "status": {
    "confirmed": true,
    "block_height": 834460,
    "block_hash": "00000000000000000000484a79b643b2524bbce82e5d8a442013fa5b8905ed98",
    "block_time": 1710307468
  },
  "hex": "020000000001019fb6c0c1752c220727b5b104df6e9a0bdd527273960f140975140ff2e21084da0100000000ffffffff01220200000000000022512028d9dfa9e7ff18253d936987d0e6e4e27697a0a2dd8d71463b51b5daa29684560340b6e40615e86921605df16c323f3b910323287602b2fff223ceb65b1f1fc4b07561a2602f6414b6358251c1a03872e9b3ccacd6098538e76e5de6013a9bc533e8fd2001203c15860c18a9b0b6851926b67a1328f5e9b5030972ff7465a733675fc886cc5fac0063036f726401011e6170706c69636174696f6e2f6a736f6e3b636861727365743d7574662d38004cd37b2270223a22706f772d3230222c226f70223a226d696e74222c227469636b223a2250455045222c22616d74223a2231303030222c22736f6c7574696f6e223a22504550453a62633170397276616c3230386c75767a3230766e647872617065687975666d663067397a6d6b78687a33336d327836613467356b73337471686b7763366c3a303030303030303030303030303030303030303139393431613561653132383937363539383134343239323533333030353762306461393666336465613163353a3335313639353831383031227d6821c00e95d2cb83f01efec0e30ec5989dc6709fea2c93a44b65152e9b5459c47f420200000000"
}