{
  "txid": "180ac14dcdbf3759430aafcac0a4b28201914a6b2ed15bb4b470cbc9b7244997",
  "version": 2,
  "locktime": 0,
  "vin": [
    {
      "txid": "4266e293438b182fb2905ecde59aae64172fbf677f8518cd352799145aefc381",
      "vout": 0,
      "prevout": {
        "scriptpubkey": "0014ce3671416b4e1c4fb12dfec0e69ede17873449eb",
        "scriptpubkey_asm": "OP_0 OP_PUSHBYTES_20 ce3671416b4e1c4fb12dfec0e69ede17873449eb",
        "scriptpubkey_type": "v0_p2wpkh",
        "scriptpubkey_address": "bc1qecm8zsttfcwylvfdlmqwd8k7z7rngj0t25fklv",
        "value": 573949
      },
      "scriptsig": "",
      "scriptsig_asm": "",
      "witness": [
        "304402201f079ecfd4761e06f39d31e6d87bb93bf11fbf75841a91352b51beae943fbb9a0220093eb67244b24cf2814d2cc6fd515b10f70cb94b2034dea775386c4a06d0ca8401",
        "03208b0fadb1d6339f6679c73d04be1a676254c94476826fbe40fef74bb44afccf"
      ],
      "is_coinbase": false,
      "sequence": 4294967295
    }
  ],
  "vout": [
    {
      "scriptpubkey": "a9140917f66aead9bb9efbc53c94862d23076a2e1d8087",
      "scriptpubkey_asm": "OP_HASH160 OP_PUSHBYTES_20 0917f66aead9bb9efbc53c94862d23076a2e1d80 OP_EQUAL",
      "scriptpubkey_type": "p2sh",
      "scriptpubkey_address": "32X6iDdyhAzMphrKs1Bz2twHhrt5TMCeaN",
      "value": 558823
    },
    {
      "scriptpubkey": "0014ce3671416b4e1c4fb12dfec0e69ede17873449eb",
      "scriptpubkey_asm": "OP_0 OP_PUSHBYTES_20 ce3671416b4e1c4fb12dfec0e69ede17873449eb",
      "scriptpubkey_type": "v0_p2wpkh",
      "scriptpubkey_address": "bc1qecm8zsttfcwylvfdlmqwd8k7z7rngj0t25fklv",
      "value": 12073
    }
  ],
  "size": 223,
  "weight": 565,
  "fee": 3053,
  "status": {
    "confirmed": true,
    "block_height": 834638,
    "block_hash": "000000000000000000025f742c626208ac87e0b7d15054abb4a19ca2d735a54e",
    "block_time": 1710405325
  },
  "hex": "0200000000010181c3ef5a14992735cd18857f67bf2f1764ae9ae5cd5e90b22f188b4393e266420000000000ffffffff02e78608000000000017a9140917f66aead9bb9efbc53c94862d23076a2e1d8087292f000000000000160014ce3671416b4e1c4fb12dfec0e69ede17873449eb0247304402201f079ecfd4761e06f39d31e6d87bb93bf11fbf75841a91352b51beae943fbb9a0220093eb67244b24cf2814d2cc6fd515b10f70cb94b2034dea775386c4a06d0ca84012103208b0fadb1d6339f6679c73d04be1a676254c94476826fbe40fef74bb44afccf00000000"
}