{
  "txid": "180fc03657338cc3d16140554d431d0df85407b8e58b479f565bfbf7370c0b23",
  "version": 2,
  "locktime": 0,
  "vin": [
    {
      "txid": "25e4dbd8b5ae84e3a664b06fd6d1a8783106f9cd3c68500a83a14d0659bd693e",
      "vout": 1,
      "prevout": {
        "scriptpubkey": "0014e0e27d1f7132664e539e2a5f8d8ed410d90887f0",
        "scriptpubkey_asm": "OP_0 OP_PUSHBYTES_20 e0e27d1f7132664e539e2a5f8d8ed410d90887f0",
        "scriptpubkey_type": "v0_p2wpkh",
        "scriptpubkey_address": "bc1qur3868m3xfnyu5u79f0cmrk5zrvs3plsqqz0t2",
        "value": 60922331
      },
      "scriptsig": "",
      "scriptsig_asm": "",
      "witness": [
        "3045022100fa1911fb9a9e3f5a95910eca3d6e6d0caaa04b766d98e06407dbb45a221cb8e6022064600b53e5e7c446fe9bf38db8d2c33fe5ee0bccf319c9aa4ea68d4c90a2246301",
        "038404a4b922f4014cfdd38f2dd19b2d5dad40db0346bdc6cbb0ea928ed6a2166d"
      ],
      "is_coinbase": false,
      "sequence": 4294967295
    }
  ],
  "vout": [
    {
      "scriptpubkey": "0014e20d0a573c210c396efb459b8d24e4f7d81daa71",
      "scriptpubkey_asm": "OP_0 OP_PUSHBYTES_20 e20d0a573c210c396efb459b8d24e4f7d81daa71",
      "scriptpubkey_type": "v0_p2wpkh",
      "scriptpubkey_address": "bc1qugxs54euyyxrjmhmgkdc6f8y7lvpm2n35aefdh",
      "value": 15344894
    },
    {
      "scriptpubkey": "0014e0e27d1f7132664e539e2a5f8d8ed410d90887f0",
      "scriptpubkey_asm": "OP_0 OP_PUSHBYTES_20 e0e27d1f7132664e539e2a5f8d8ed410d90887f0",
      "scriptpubkey_type": "v0_p2wpkh",
      "scriptpubkey_address": "bc1qur3868m3xfnyu5u79f0cmrk5zrvs3plsqqz0t2",
      "value": 45570431
    }
  ],
  "size": 223,
  "weight": 562,
  "fee": 7006,
  "status": {
    "confirmed": true,
    "block_height": 834638,
    "block_hash": "000000000000000000025f742c626208ac87e0b7d15054abb4a19ca2d735a54e",
    "block_time": 1710405325
  },
  "hex": "020000000001013e69bd59064da1830a50683ccdf9063178a8d1d66fb064a6e384aeb5d8dbe4250100000000ffffffff02fe24ea0000000000160014e20d0a573c210c396efb459b8d24e4f7d81daa717f59b70200000000160014e0e27d1f7132664e539e2a5f8d8ed410d90887f002483045022100fa1911fb9a9e3f5a95910eca3d6e6d0caaa04b766d98e06407dbb45a221cb8e6022064600b53e5e7c446fe9bf38db8d2c33fe5ee0bccf319c9aa4ea68d4c90a224630121038404a4b922f4014cfdd38f2dd19b2d5dad40db0346bdc6cbb0ea928ed6a2166d00000000"
}