{
  "txid": "1814376f9bcbbe6bb15cbcf2121ac0f31816a8c92b93febb9e915286b003abe3",
  "version": 2,
  "locktime": 0,
  "vin": [
    {
      "txid": "12848a1f84ad552475e874cce291926f292412de23b7537898e98c7370f2e86c",
      "vout": 23,
      "prevout": {
        "scriptpubkey": "5120dff36b5009ba0dc212be62189d3d50c5e891b3bc8905d55d9804ffe21f08afd3",
        "scriptpubkey_asm": "OP_PUSHNUM_1 OP_PUSHBYTES_32 dff36b5009ba0dc212be62189d3d50c5e891b3bc8905d55d9804ffe21f08afd3",
        "scriptpubkey_type": "v1_p2tr",
        "scriptpubkey_address": "bc1pmlekk5qfhgxuyy47vgvf602sch5frvau3yza2hvcqnl7y8cg4lfs85u9j6",
        "value": 2358
      },
      "scriptsig": "",
      "scriptsig_asm": "",
      "witness": [
        "8317ff33d3c093bf2fc5454f59703107214850e8cfe767d5cd44741700a7514770788817e3c1a776832c26cdba53d5c6c06cd3887e9cf218c54d29df14afd9d5",
        "2093bb9209e5774efa350e5ead991b3afb577aa5c526f76f1b8168762e257e7a77ac0063036f7264010118746578742f706c61696e3b636861727365743d7574662d3800377b2270223a226272632d3230222c226f70223a226d696e74222c227469636b223a22424f424f222c22616d74223a22313030303030227d68",
        "c0507504f881a2548efcb0bd8b5287fd78c473d5bd35b181abdd5c5cd6d10de204"
      ],
      "is_coinbase": false,
      "sequence": 4294967295
    }
  ],
  "vout": [
    {
      "scriptpubkey": "512048d62e6aa4ce9b4b4d760b1dc0c3e46b46d84be76ae456792a664139e7aaa19c",
      "scriptpubkey_asm": "OP_PUSHNUM_1 OP_PUSHBYTES_32 48d62e6aa4ce9b4b4d760b1dc0c3e46b46d84be76ae456792a664139e7aaa19c",
      "scriptpubkey_type": "v1_p2tr",
      "scriptpubkey_address": "bc1pfrtzu64ye6d5kntkpvwupslyddrdsjl8dtj9v7f2veqnnea25xwqu8ycu4",
      "value": 546
    }
  ],
  "size": 322,
  "weight": 604,
  "fee": 1812,
  "status": {
    "confirmed": true,
    "block_height": 834460,
    "block_hash": "00000000000000000000484a79b643b2524bbce82e5d8a442013fa5b8905ed98",
    "block_time": 1710307468
  },
  "hex": "020000000001016ce8f270738ce9987853b723de1224296f9291e2cc74e8752455ad841f8a84121700000000ffffffff01220200000000000022512048d62e6aa4ce9b4b4d760b1dc0c3e46b46d84be76ae456792a664139e7aaa19c03408317ff33d3c093bf2fc5454f59703107214850e8cfe767d5cd44741700a7514770788817e3c1a776832c26cdba53d5c6c06cd3887e9cf218c54d29df14afd9d57d2093bb9209e5774efa350e5ead991b3afb577aa5c526f76f1b8168762e257e7a77ac0063036f7264010118746578742f706c61696e3b636861727365743d7574662d3800377b2270223a226272632d3230222c226f70223a226d696e74222c227469636b223a22424f424f222c22616d74223a22313030303030227d6821c0507504f881a2548efcb0bd8b5287fd78c473d5bd35b181abdd5c5cd6d10de20400000000"
}