{
  "txid": "1822438f78a84c1da77efe797fde11fef3bb37e5e4e7adea9ac52f6fde54de1f",
  "version": 1,
  "locktime": 0,
  "vin": [
    {
      "txid": "db121de8c397bb6d45a2f5ec3b5c8291f2cc5320937fb609df3151b2447bc3bf",
      "vout": 3,
      "prevout": {
        "scriptpubkey": "76a91456defaf4138044dcbd290242b3d29c1845b4c20688ac",
        "scriptpubkey_asm": "OP_DUP OP_HASH160 OP_PUSHBYTES_20 56defaf4138044dcbd290242b3d29c1845b4c206 OP_EQUALVERIFY OP_CHECKSIG",
        "scriptpubkey_type": "p2pkh",
        "scriptpubkey_address": "18vLESUz2t6oqp4HyFuAyzsB9hVAeWuFB4",
        "value": 179150425
      },
      "scriptsig": "48304502210084f03d972847f52ef284edb4011ac8bdf5a762d71f19b631e9c2a698cbf947e7022014a6f674f2d363df974d2b76f8e85ab0c8acc9a05a2d3d9f2e5305c8e1beaae4012103ef32e6773be0ffcd716a6526cf5c21e6bd0090d1ab3ac97f3fd9093516c575c7",
      "scriptsig_asm": "OP_PUSHBYTES_72 304502210084f03d972847f52ef284edb4011ac8bdf5a762d71f19b631e9c2a698cbf947e7022014a6f674f2d363df974d2b76f8e85ab0c8acc9a05a2d3d9f2e5305c8e1beaae401 OP_PUSHBYTES_33 03ef32e6773be0ffcd716a6526cf5c21e6bd0090d1ab3ac97f3fd9093516c575c7",
      "is_coinbase": false,
      "sequence": 4294967293
    }
  ],
  "vout": [
    {
      "scriptpubkey": "6a4c5058325b297fbf3b866295273e53a387240ec5e61e3c3bc1a1005c80337592a84eb0996cfeb9f1477ae0b0004f4dae294e0d6d5d95311ba745a77ccd7ee229157c34e03c000cbc4d003c000c96c605bd4a",
      "scriptpubkey_asm": "OP_RETURN OP_PUSHDATA1 58325b297fbf3b866295273e53a387240ec5e61e3c3bc1a1005c80337592a84eb0996cfeb9f1477ae0b0004f4dae294e0d6d5d95311ba745a77ccd7ee229157c34e03c000cbc4d003c000c96c605bd4a",
      "scriptpubkey_type": "op_return",
      "value": 0
    },
    {
      "scriptpubkey": "0014b312cfae72955d2533e99fe0ce23a2c142017446",
      "scriptpubkey_asm": "OP_0 OP_PUSHBYTES_20 b312cfae72955d2533e99fe0ce23a2c142017446",
      "scriptpubkey_type": "v0_p2wpkh",
      "scriptpubkey_address": "bc1qkvfvltnjj4wj2vlfnlsvugazc9pqzazxdwcfwc",
      "value": 242500
    },
    {
      "scriptpubkey": "a91476779351a0831b2e37c7cfea03656f0e22373cbe87",
      "scriptpubkey_asm": "OP_HASH160 OP_PUSHBYTES_20 76779351a0831b2e37c7cfea03656f0e22373cbe OP_EQUAL",
      "scriptpubkey_type": "p2sh",
      "scriptpubkey_address": "3CVQuRpFMnDV71ABpXNg9yhUpgsWL1L8y6",
      "value": 242500
    },
    {
      "scriptpubkey": "76a91456defaf4138044dcbd290242b3d29c1845b4c20688ac",
      "scriptpubkey_asm": "OP_DUP OP_HASH160 OP_PUSHBYTES_20 56defaf4138044dcbd290242b3d29c1845b4c206 OP_EQUALVERIFY OP_CHECKSIG",
      "scriptpubkey_type": "p2pkh",
      "scriptpubkey_address": "18vLESUz2t6oqp4HyFuAyzsB9hVAeWuFB4",
      "value": 178655624
    }
  ],
  "size": 347,
  "weight": 1388,
  "fee": 9801,
  "status": {
    "confirmed": true,
    "block_height": 834638,
    "block_hash": "000000000000000000025f742c626208ac87e0b7d15054abb4a19ca2d735a54e",
    "block_time": 1710405325
  },
  "hex": "0100000001bfc37b44b25131df09b67f932053ccf291825c3becf5a2456dbb97c3e81d12db030000006b48304502210084f03d972847f52ef284edb4011ac8bdf5a762d71f19b631e9c2a698cbf947e7022014a6f674f2d363df974d2b76f8e85ab0c8acc9a05a2d3d9f2e5305c8e1beaae4012103ef32e6773be0ffcd716a6526cf5c21e6bd0090d1ab3ac97f3fd9093516c575c7fdffffff040000000000000000536a4c5058325b297fbf3b866295273e53a387240ec5e61e3c3bc1a1005c80337592a84eb0996cfeb9f1477ae0b0004f4dae294e0d6d5d95311ba745a77ccd7ee229157c34e03c000cbc4d003c000c96c605bd4a44b3030000000000160014b312cfae72955d2533e99fe0ce23a2c14201744644b303000000000017a91476779351a0831b2e37c7cfea03656f0e22373cbe878811a60a000000001976a91456defaf4138044dcbd290242b3d29c1845b4c20688ac00000000"
}