{
  "txid": "18646b57ceb8c3f7f57fa6bb95ab7d70e4b3265d60ec4bf5ee9a870ae3d91cb2",
  "version": 1,
  "locktime": 0,
  "vin": [
    {
      "txid": "01128d8120a3c638922ca67d23e0e476176a68b860a160ae42fb8f6b3736d7d5",
      "vout": 1,
      "prevout": {
        "scriptpubkey": "001446ad5f4f4c730ea661e1432f61d42b0d730d7a8a",
        "scriptpubkey_asm": "OP_0 OP_PUSHBYTES_20 46ad5f4f4c730ea661e1432f61d42b0d730d7a8a",
        "scriptpubkey_type": "v0_p2wpkh",
        "scriptpubkey_address": "bc1qg6k47n6vwv82vc0pgvhkr4ptp4es6752d7v9xs",
        "value": 33975245
      },
      "scriptsig": "",
      "scriptsig_asm": "",
      "witness": [
        "304402205e159ef826ce597e4003c4927f28aff2ffae4e2e764c5e086771bec4cce38598022008297a603902d72fe3303e1705e615bfbb37de996c34a0d25aa5bcc3fa95712d01",
        "02a54a895bd372beb3a9330913568c0f28c53448d4593ebbd4265443672f967ed4"
      ],
      "is_coinbase": false,
      "sequence": 4294967293
    }
  ],
  "vout": [
    {
      "scriptpubkey": "0014db1f7788a854705a3974876d513778c6122105b1",
      "scriptpubkey_asm": "OP_0 OP_PUSHBYTES_20 db1f7788a854705a3974876d513778c6122105b1",
      "scriptpubkey_type": "v0_p2wpkh",
      "scriptpubkey_address": "bc1qmv0h0z9g23c95wt5sak4zdmcccfzzpd303fthf",
      "value": 16801635
    },
    {
      "scriptpubkey": "001412d96c0f040638e4b21a7110479973dbe059a672",
      "scriptpubkey_asm": "OP_0 OP_PUSHBYTES_20 12d96c0f040638e4b21a7110479973dbe059a672",
      "scriptpubkey_type": "v0_p2wpkh",
      "scriptpubkey_address": "bc1qztvkcrcyqcuwfvs6wygy0xtnm0s9nfnjav7g66",
      "value": 17171495
    }
  ],
  "size": 222,
  "weight": 561,
  "fee": 2115,
  "status": {
    "confirmed": true,
    "block_height": 834638,
    "block_hash": "000000000000000000025f742c626208ac87e0b7d15054abb4a19ca2d735a54e",
    "block_time": 1710405325
  },
  "hex": "01000000000101d5d736376b8ffb42ae60a160b8686a1776e4e0237da62c9238c6a320818d12010100000000fdffffff02635f000100000000160014db1f7788a854705a3974876d513778c6122105b1270406010000000016001412d96c0f040638e4b21a7110479973dbe059a6720247304402205e159ef826ce597e4003c4927f28aff2ffae4e2e764c5e086771bec4cce38598022008297a603902d72fe3303e1705e615bfbb37de996c34a0d25aa5bcc3fa95712d012102a54a895bd372beb3a9330913568c0f28c53448d4593ebbd4265443672f967ed400000000"
}