{
  "txid": "18698d18715a88a45c9a57f08c1e94c94b3d4827620f7a7f1096bc43afdc61dd",
  "version": 2,
  "locktime": 0,
  "vin": [
    {
      "txid": "fe43b2076fc3e63795124194a3e42b411459a38606165c4633bd1cc42e7eefc9",
      "vout": 1,
      "prevout": {
        "scriptpubkey": "00149599001ef0f17d0a82f0e0bea5a1fec337d9b385",
        "scriptpubkey_asm": "OP_0 OP_PUSHBYTES_20 9599001ef0f17d0a82f0e0bea5a1fec337d9b385",
        "scriptpubkey_type": "v0_p2wpkh",
        "scriptpubkey_address": "bc1qjkvsq8hs797s4qhsuzl2tg07cvmanvu9a05eu9",
        "value": 3294327
      },
      "scriptsig": "",
      "scriptsig_asm": "",
      "witness": [
        "3044022079f96cab2af01437b6b384b3cae504bd3c7d5f62cb4cc8b174115e6ece641c5202201130d2b431d3f775c5b6314174f670e62974a5576bee7f3ab7a366693fdb2adf01",
        "024bde73fa7815acb815eef2fc06c265cf9856f0f60eecae715cce31e14d63d19d"
      ],
      "is_coinbase": false,
      "sequence": 4294967293
    },
    {
      "txid": "3ccb398bcc7d01121930fe863b1b62566ed12b49da0f652350349ee74b46814a",
      "vout": 1,
      "prevout": {
        "scriptpubkey": "001401c1007226b523dd4f3e0fe9fa89f5402b77de7e",
        "scriptpubkey_asm": "OP_0 OP_PUSHBYTES_20 01c1007226b523dd4f3e0fe9fa89f5402b77de7e",
        "scriptpubkey_type": "v0_p2wpkh",
        "scriptpubkey_address": "bc1qq8qsqu3xk53a6ne7pl5l4z04gq4h0hn736sly2",
        "value": 33940481
      },
      "scriptsig": "",
      "scriptsig_asm": "",
      "witness": [
        "3045022100b269f3e687a7e164b5a2073b58856dffb9386b9bba92dc0ebfa8811ae584825202206a881c86cd2b8b4257a6d526b1bdf7910cd5fb4583d48f7f086d719fd72fb3a701",
        "03e35273d8af7942f6c3fc774b1472c2502cdd0fae39396b96d08c2565c3ea061b"
      ],
      "is_coinbase": false,
      "sequence": 4294967293
    }
  ],
  "vout": [
    {
      "scriptpubkey": "a914d0b44c2f403842cf2d9ded905d80fcb8f3cb026687",
      "scriptpubkey_asm": "OP_HASH160 OP_PUSHBYTES_20 d0b44c2f403842cf2d9ded905d80fcb8f3cb0266 OP_EQUAL",
      "scriptpubkey_type": "p2sh",
      "scriptpubkey_address": "3LiYTjwD5E6LqDm5BXZzxS2YFoCenCPBqT",
      "value": 1633761
    },
    {
      "scriptpubkey": "a914873d005af2da158251a101b74714d48a1cabb9d087",
      "scriptpubkey_asm": "OP_HASH160 OP_PUSHBYTES_20 873d005af2da158251a101b74714d48a1cabb9d0 OP_EQUAL",
      "scriptpubkey_type": "p2sh",
      "scriptpubkey_address": "3E26DtfZ5GrDTpf9K8VM5yQ79rfcfa76Kz",
      "value": 10000000
    },
    {
      "scriptpubkey": "00149599001ef0f17d0a82f0e0bea5a1fec337d9b385",
      "scriptpubkey_asm": "OP_0 OP_PUSHBYTES_20 9599001ef0f17d0a82f0e0bea5a1fec337d9b385",
      "scriptpubkey_type": "v0_p2wpkh",
      "scriptpubkey_address": "bc1qjkvsq8hs797s4qhsuzl2tg07cvmanvu9a05eu9",
      "value": 25550447
    }
  ],
  "size": 404,
  "weight": 965,
  "fee": 50600,
  "status": {
    "confirmed": true,
    "block_height": 834638,
    "block_hash": "000000000000000000025f742c626208ac87e0b7d15054abb4a19ca2d735a54e",
    "block_time": 1710405325
  },
  "hex": "02000000000102c9ef7e2ec41cbd33465c160686a35914412be4a39441129537e6c36f07b243fe0100000000fdffffff4a81464be79e345023650fda492bd16e56621b3b86fe301912017dcc8b39cb3c0100000000fdffffff03e1ed18000000000017a914d0b44c2f403842cf2d9ded905d80fcb8f3cb026687809698000000000017a914873d005af2da158251a101b74714d48a1cabb9d0876fde8501000000001600149599001ef0f17d0a82f0e0bea5a1fec337d9b38502473044022079f96cab2af01437b6b384b3cae504bd3c7d5f62cb4cc8b174115e6ece641c5202201130d2b431d3f775c5b6314174f670e62974a5576bee7f3ab7a366693fdb2adf0121024bde73fa7815acb815eef2fc06c265cf9856f0f60eecae715cce31e14d63d19d02483045022100b269f3e687a7e164b5a2073b58856dffb9386b9bba92dc0ebfa8811ae584825202206a881c86cd2b8b4257a6d526b1bdf7910cd5fb4583d48f7f086d719fd72fb3a7012103e35273d8af7942f6c3fc774b1472c2502cdd0fae39396b96d08c2565c3ea061b00000000"
}