{
  "txid": "1875fb5a0954b458bdaaf2d2051848f0d20ddcfd1f274551d009829a4ca2a599",
  "version": 2,
  "locktime": 0,
  "vin": [
    {
      "txid": "f2e59546186f5c6634e234c3afb6fc316b965ea1c6d65db1859811ff12e4dac6",
      "vout": 0,
      "prevout": {
        "scriptpubkey": "0014949da6820bd2adc517a85e3b49fa8ebe53189c85",
        "scriptpubkey_asm": "OP_0 OP_PUSHBYTES_20 949da6820bd2adc517a85e3b49fa8ebe53189c85",
        "scriptpubkey_type": "v0_p2wpkh",
        "scriptpubkey_address": "bc1qjjw6dqst62ku29agtca5n75whef338y9y37y0h",
        "value": 77810
      },
      "scriptsig": "",
      "scriptsig_asm": "",
      "witness": [
        "304402207e74ea42bb26f7cab1874a46afd2b1330fc45c05d9ae4711bb238116d2a1f1f2022064d2e04f3807f44d45f4801459dfaa40e17d1a6f9279f74402552d89bd0ec8bc01",
        "031b80ccdf6433ba1f316e1c731de41608abb40b6dc26f658474bac494cef5a051"
      ],
      "is_coinbase": false,
      "sequence": 4294967293
    }
  ],
  "vout": [
    {
      "scriptpubkey": "00146703dc10b5b94784e8083aac0cf632cea73079a6",
      "scriptpubkey_asm": "OP_0 OP_PUSHBYTES_20 6703dc10b5b94784e8083aac0cf632cea73079a6",
      "scriptpubkey_type": "v0_p2wpkh",
      "scriptpubkey_address": "bc1qvupacy94h9rcf6qg82kqea3je6nnq7dxnewdqa",
      "value": 34730
    },
    {
      "scriptpubkey": "00141223e2d714649690ff64b298b411ee80235f3ff7",
      "scriptpubkey_asm": "OP_0 OP_PUSHBYTES_20 1223e2d714649690ff64b298b411ee80235f3ff7",
      "scriptpubkey_type": "v0_p2wpkh",
      "scriptpubkey_address": "bc1qzg3794c5vjtfplmyk2vtgy0wsq3470lhcm47f6",
      "value": 41550
    }
  ],
  "size": 222,
  "weight": 561,
  "fee": 1530,
  "status": {
    "confirmed": true,
    "block_height": 834464,
    "block_hash": "0000000000000000000177a0869a911a2b65c9bdcd5a8bcb02b68f305bee848e",
    "block_time": 1710308296
  },
  "hex": "02000000000101c6dae412ff119885b15dd6c6a15e966b31fcb6afc334e234665c6f184695e5f20000000000fdffffff02aa870000000000001600146703dc10b5b94784e8083aac0cf632cea73079a64ea20000000000001600141223e2d714649690ff64b298b411ee80235f3ff70247304402207e74ea42bb26f7cab1874a46afd2b1330fc45c05d9ae4711bb238116d2a1f1f2022064d2e04f3807f44d45f4801459dfaa40e17d1a6f9279f74402552d89bd0ec8bc0121031b80ccdf6433ba1f316e1c731de41608abb40b6dc26f658474bac494cef5a05100000000"
}