{
  "txid": "188b882612eaade35690d5bf14c67a6b8d825ad88577956a22d687b501ccc280",
  "version": 2,
  "locktime": 834378,
  "vin": [
    {
      "txid": "58ef8b9c98a90dbfb748342fd3591ab6bacadbcba941118f5c3e5f9c976f953f",
      "vout": 0,
      "prevout": {
        "scriptpubkey": "001415fb2b0806f239ed97679dda61e044c6a2946c96",
        "scriptpubkey_asm": "OP_0 OP_PUSHBYTES_20 15fb2b0806f239ed97679dda61e044c6a2946c96",
        "scriptpubkey_type": "v0_p2wpkh",
        "scriptpubkey_address": "bc1qzhajkzqx7gu7m9m8nhdxrczyc63fgmykf9njjf",
        "value": 41670949
      },
      "scriptsig": "",
      "scriptsig_asm": "",
      "witness": [
        "30440220437cbf318f36358de593b73895a6091484b8a46f0289087a94e1c07dddc83fe402202b37a8480e487447ca9c6d622b263a2d9dd7065ca8aedd862936d592f04af15c01",
        "03c037df5e3187a97e547e1cd034ce7ef52f34b2c94af22c58fe420441f90d73d4"
      ],
      "is_coinbase": false,
      "sequence": 4294967293
    }
  ],
  "vout": [
    {
      "scriptpubkey": "00142cd78b73dc9828b3f97a03d920ba703170e45bcc",
      "scriptpubkey_asm": "OP_0 OP_PUSHBYTES_20 2cd78b73dc9828b3f97a03d920ba703170e45bcc",
      "scriptpubkey_type": "v0_p2wpkh",
      "scriptpubkey_address": "bc1q9ntcku7unq5t87t6q0vjpwnsx9cwgk7vqmhmsy",
      "value": 41629147
    },
    {
      "scriptpubkey": "a91436d6ab8d6d0bd155a4ec554473b24aa65f01dd5387",
      "scriptpubkey_asm": "OP_HASH160 OP_PUSHBYTES_20 36d6ab8d6d0bd155a4ec554473b24aa65f01dd53 OP_EQUAL",
      "scriptpubkey_type": "p2sh",
      "scriptpubkey_address": "36gyaSjWrXQuEe4kJLBhHQu6mGxSMGEw7b",
      "value": 39800
    }
  ],
  "size": 223,
  "weight": 565,
  "fee": 2002,
  "status": {
    "confirmed": true,
    "block_height": 834460,
    "block_hash": "00000000000000000000484a79b643b2524bbce82e5d8a442013fa5b8905ed98",
    "block_time": 1710307468
  },
  "hex": "020000000001013f956f979c5f3e5c8f1141a9cbdbcabab61a59d32f3448b7bf0da9989c8bef580000000000fdffffff02db357b02000000001600142cd78b73dc9828b3f97a03d920ba703170e45bcc789b00000000000017a91436d6ab8d6d0bd155a4ec554473b24aa65f01dd5387024730440220437cbf318f36358de593b73895a6091484b8a46f0289087a94e1c07dddc83fe402202b37a8480e487447ca9c6d622b263a2d9dd7065ca8aedd862936d592f04af15c012103c037df5e3187a97e547e1cd034ce7ef52f34b2c94af22c58fe420441f90d73d44abb0c00"
}