{
  "txid": "188b80c55bd013cfd7a2b25db62ac91a1c4a51b68811b20456c9145d91fe0b04",
  "version": 2,
  "locktime": 834637,
  "vin": [
    {
      "txid": "916d480526191e3c82d8f21a5f7879c0b94b640a498992377c050a452efc9caf",
      "vout": 1,
      "prevout": {
        "scriptpubkey": "0014777a25e4d944408b0c672a43b075f1bb8f52c9a7",
        "scriptpubkey_asm": "OP_0 OP_PUSHBYTES_20 777a25e4d944408b0c672a43b075f1bb8f52c9a7",
        "scriptpubkey_type": "v0_p2wpkh",
        "scriptpubkey_address": "bc1qwaaztexeg3qgkrr89fpmqa03hw849jd8g3l2n5",
        "value": 349050
      },
      "scriptsig": "",
      "scriptsig_asm": "",
      "witness": [
        "304402204a8ee5c91d47bb262a8873e7bd676509bfafdc6baa268cac8ea800aab3b17337022012024fc902cf81dbbf9189ffdf9bcb7feaa4c4e55d9acbacd1ba2c6d7130ac3001",
        "035591ede7bccd7785e5e9e278763806d81a02e6cb1377751510e8ae93072cbd4b"
      ],
      "is_coinbase": false,
      "sequence": 4294967293
    }
  ],
  "vout": [
    {
      "scriptpubkey": "001458ced7f5a0e1734068dab4ce9e713eca36ee6cc2",
      "scriptpubkey_asm": "OP_0 OP_PUSHBYTES_20 58ced7f5a0e1734068dab4ce9e713eca36ee6cc2",
      "scriptpubkey_type": "v0_p2wpkh",
      "scriptpubkey_address": "bc1qtr8d0adqu9e5q6x6kn8fuuf7egmwumxzpwfm7a",
      "value": 17839
    },
    {
      "scriptpubkey": "0014a477a13692e6c2791612ca125581e79c6842582a",
      "scriptpubkey_asm": "OP_0 OP_PUSHBYTES_20 a477a13692e6c2791612ca125581e79c6842582a",
      "scriptpubkey_type": "v0_p2wpkh",
      "scriptpubkey_address": "bc1q53m6zd5jump8j9sjegf9tq08n35yykp2ymcc97",
      "value": 71150
    },
    {
      "scriptpubkey": "0014b109a59b1eaf6936cbcfa202d63b3b9e7c13d36d",
      "scriptpubkey_asm": "OP_0 OP_PUSHBYTES_20 b109a59b1eaf6936cbcfa202d63b3b9e7c13d36d",
      "scriptpubkey_type": "v0_p2wpkh",
      "scriptpubkey_address": "bc1qkyy6txc74a5ndj705gpdvwemne7p85mdjpxs02",
      "value": 31210
    },
    {
      "scriptpubkey": "0014b6cfb63eccd8422d6ddc20b74e067e2f239e57f1",
      "scriptpubkey_asm": "OP_0 OP_PUSHBYTES_20 b6cfb63eccd8422d6ddc20b74e067e2f239e57f1",
      "scriptpubkey_type": "v0_p2wpkh",
      "scriptpubkey_address": "bc1qkm8mv0kvmppz6mwuyzm5upn79u3eu4l3s50ef5",
      "value": 23301
    },
    {
      "scriptpubkey": "00142cc9e6ca277fc9e5c667a86518114e07d52920b8",
      "scriptpubkey_asm": "OP_0 OP_PUSHBYTES_20 2cc9e6ca277fc9e5c667a86518114e07d52920b8",
      "scriptpubkey_type": "v0_p2wpkh",
      "scriptpubkey_address": "bc1q9ny7dj380ly7t3n84pj3sy2wql2jjg9cu50erz",
      "value": 29753
    },
    {
      "scriptpubkey": "a914789d2be08b55b54d210b497912b3da0232db153387",
      "scriptpubkey_asm": "OP_HASH160 OP_PUSHBYTES_20 789d2be08b55b54d210b497912b3da0232db1533 OP_EQUAL",
      "scriptpubkey_type": "p2sh",
      "scriptpubkey_address": "3CgmJ2JuAmdZJHW79aRnQwGhGLy3DFbAXw",
      "value": 16874
    },
    {
      "scriptpubkey": "a9143dac28dbae68ff71e9e4ef0694a94bb69339c45587",
      "scriptpubkey_asm": "OP_HASH160 OP_PUSHBYTES_20 3dac28dbae68ff71e9e4ef0694a94bb69339c455 OP_EQUAL",
      "scriptpubkey_type": "p2sh",
      "scriptpubkey_address": "37K7P711MBij5fPn57CCGSEGBzxoyn4Xyk",
      "value": 59480
    },
    {
      "scriptpubkey": "0014b564597324b0360c205f4c5f47c6fa12ccaf16e2",
      "scriptpubkey_asm": "OP_0 OP_PUSHBYTES_20 b564597324b0360c205f4c5f47c6fa12ccaf16e2",
      "scriptpubkey_type": "v0_p2wpkh",
      "scriptpubkey_address": "bc1qk4j9jueykqmqcgzlf30503h6ztx279hz6nezuv",
      "value": 25257
    },
    {
      "scriptpubkey": "0014aee8e169f33306f0f0fdae9a2020af326bba8acd",
      "scriptpubkey_asm": "OP_0 OP_PUSHBYTES_20 aee8e169f33306f0f0fdae9a2020af326bba8acd",
      "scriptpubkey_type": "v0_p2wpkh",
      "scriptpubkey_address": "bc1q4m5wz60nxvr0pu8a46dzqg90xf4m4zkd3ww54v",
      "value": 64826
    }
  ],
  "size": 441,
  "weight": 1437,
  "fee": 9360,
  "status": {
    "confirmed": true,
    "block_height": 834638,
    "block_hash": "000000000000000000025f742c626208ac87e0b7d15054abb4a19ca2d735a54e",
    "block_time": 1710405325
  },
  "hex": "02000000000101af9cfc2e450a057c379289490a644bb9c079785f1af2d8823c1e192605486d910100000000fdffffff09af4500000000000016001458ced7f5a0e1734068dab4ce9e713eca36ee6cc2ee15010000000000160014a477a13692e6c2791612ca125581e79c6842582aea79000000000000160014b109a59b1eaf6936cbcfa202d63b3b9e7c13d36d055b000000000000160014b6cfb63eccd8422d6ddc20b74e067e2f239e57f139740000000000001600142cc9e6ca277fc9e5c667a86518114e07d52920b8ea4100000000000017a914789d2be08b55b54d210b497912b3da0232db15338758e800000000000017a9143dac28dbae68ff71e9e4ef0694a94bb69339c45587a962000000000000160014b564597324b0360c205f4c5f47c6fa12ccaf16e23afd000000000000160014aee8e169f33306f0f0fdae9a2020af326bba8acd0247304402204a8ee5c91d47bb262a8873e7bd676509bfafdc6baa268cac8ea800aab3b17337022012024fc902cf81dbbf9189ffdf9bcb7feaa4c4e55d9acbacd1ba2c6d7130ac300121035591ede7bccd7785e5e9e278763806d81a02e6cb1377751510e8ae93072cbd4b4dbc0c00"
}