{
  "txid": "189874bda89ed07d465fba5564c1365d859219f7491beb207d728b28519e0b0e",
  "version": 2,
  "locktime": 0,
  "vin": [
    {
      "txid": "aa1bcaba88b5591c3d79313727edb9b55491126366e4730f30de9500262f7e7f",
      "vout": 0,
      "prevout": {
        "scriptpubkey": "5120fbced256f6000800dadb13d2ec1b2808c207746b414e6a00812d9b4a9bd9522d",
        "scriptpubkey_asm": "OP_PUSHNUM_1 OP_PUSHBYTES_32 fbced256f6000800dadb13d2ec1b2808c207746b414e6a00812d9b4a9bd9522d",
        "scriptpubkey_type": "v1_p2tr",
        "scriptpubkey_address": "bc1pl08dy4hkqqyqpkkmz0fwcxegprpqwartg98x5qyp9kd54x7e2gksk5yg8c",
        "value": 5000
      },
      "scriptsig": "",
      "scriptsig_asm": "",
      "witness": [
        "6765271cba0f0d5f66095eecc3e8e7f33fe432f16cd4e42ddfb78ede2e638eb7baa4bc9fe04901c4373a47814a2ccb731d3b80ecf05a3a3c71fac0ad4c149fbe",
        "20a9b44362a6d406ae28899cf01728a57840c9bc7f227c5190c7e096cff8718c9bac0063036f7264010118746578742f706c61696e3b636861727365743d7574662d38003a7b2270223a226272632d3230222c226f70223a227472616e73666572222c227469636b223a2224424d50222c22616d74223a223134303030227d68",
        "c0adce073ccbfaf54bbb66d87a3bf8a3487bdc15dd7a98331651f678f4e58f3279"
      ],
      "is_coinbase": false,
      "sequence": 4294967293
    }
  ],
  "vout": [
    {
      "scriptpubkey": "512029c3e9a2a3f40faedfb6b95532ed0a9728c2d31e4f629bce126bbc58a5c378c8",
      "scriptpubkey_asm": "OP_PUSHNUM_1 OP_PUSHBYTES_32 29c3e9a2a3f40faedfb6b95532ed0a9728c2d31e4f629bce126bbc58a5c378c8",
      "scriptpubkey_type": "v1_p2tr",
      "scriptpubkey_address": "bc1p98p7ng4r7s86ahakh92n9mg2ju5v95c7fa3fhnsjdw793fwr0ryqhsewfm",
      "value": 546
    },
    {
      "scriptpubkey": "00143ad4c8cfee27284dbe7165aafc48e41210d4dda9",
      "scriptpubkey_asm": "OP_0 OP_PUSHBYTES_20 3ad4c8cfee27284dbe7165aafc48e41210d4dda9",
      "scriptpubkey_type": "v0_p2wpkh",
      "scriptpubkey_address": "bc1q8t2v3nlwyu5ym0n3vk40cj8yzggdfhdfgctp5f",
      "value": 1709
    }
  ],
  "size": 356,
  "weight": 731,
  "fee": 2745,
  "status": {
    "confirmed": true,
    "block_height": 834460,
    "block_hash": "00000000000000000000484a79b643b2524bbce82e5d8a442013fa5b8905ed98",
    "block_time": 1710307468
  },
  "hex": "020000000001017f7e2f260095de300f73e46663129154b5b9ed273731793d1c59b588baca1baa0000000000fdffffff02220200000000000022512029c3e9a2a3f40faedfb6b95532ed0a9728c2d31e4f629bce126bbc58a5c378c8ad060000000000001600143ad4c8cfee27284dbe7165aafc48e41210d4dda903406765271cba0f0d5f66095eecc3e8e7f33fe432f16cd4e42ddfb78ede2e638eb7baa4bc9fe04901c4373a47814a2ccb731d3b80ecf05a3a3c71fac0ad4c149fbe8020a9b44362a6d406ae28899cf01728a57840c9bc7f227c5190c7e096cff8718c9bac0063036f7264010118746578742f706c61696e3b636861727365743d7574662d38003a7b2270223a226272632d3230222c226f70223a227472616e73666572222c227469636b223a2224424d50222c22616d74223a223134303030227d6821c0adce073ccbfaf54bbb66d87a3bf8a3487bdc15dd7a98331651f678f4e58f327900000000"
}