{
  "txid": "18aa3fd906ad29ddd2154bc2e09781ee50078d2b905214805e4d48aaf9e366b7",
  "version": 2,
  "locktime": 0,
  "vin": [
    {
      "txid": "6055054e3165a5d8f451bbd6cd2f4217d2d079949076154e3ded4e3235f865b6",
      "vout": 0,
      "prevout": {
        "scriptpubkey": "0014796be2385d613c40f54cffba57de87853e0043a4",
        "scriptpubkey_asm": "OP_0 OP_PUSHBYTES_20 796be2385d613c40f54cffba57de87853e0043a4",
        "scriptpubkey_type": "v0_p2wpkh",
        "scriptpubkey_address": "bc1q0947ywzavy7ypa2vl7a90h58s5lqqsayla9zj2",
        "value": 811017
      },
      "scriptsig": "",
      "scriptsig_asm": "",
      "witness": [
        "3045022100b9a9032d43b71cd0a9c3a378f946695a13ef873aeeb2000eb74cc5f1975bd9c7022009f2f22e6bbea2c46ef0a6f3d75fc36a56bf547b3a5a7dfa3d3f50cdccff9fa001",
        "02762d9c06d880f94176c3aaa180db6f927dc1fb1ce4a28064d727cc60d369e337"
      ],
      "is_coinbase": false,
      "sequence": 4294967295
    }
  ],
  "vout": [
    {
      "scriptpubkey": "a9143f0b5dc039705281d76dce8b1818b36b40bc8eba87",
      "scriptpubkey_asm": "OP_HASH160 OP_PUSHBYTES_20 3f0b5dc039705281d76dce8b1818b36b40bc8eba OP_EQUAL",
      "scriptpubkey_type": "p2sh",
      "scriptpubkey_address": "37SN7NGVC3ESx4BguomeYCvyyTr6omyiLT",
      "value": 809351
    }
  ],
  "size": 193,
  "weight": 442,
  "fee": 1666,
  "status": {
    "confirmed": true,
    "block_height": 834552,
    "block_hash": "00000000000000000001dd0468a70c94f619251d286585cff57aeb4bd9ede330",
    "block_time": 1710355598
  },
  "hex": "02000000000101b665f835324eed3d4e1576909479d0d217422fcdd6bb51f4d8a565314e0555600000000000ffffffff0187590c000000000017a9143f0b5dc039705281d76dce8b1818b36b40bc8eba8702483045022100b9a9032d43b71cd0a9c3a378f946695a13ef873aeeb2000eb74cc5f1975bd9c7022009f2f22e6bbea2c46ef0a6f3d75fc36a56bf547b3a5a7dfa3d3f50cdccff9fa0012102762d9c06d880f94176c3aaa180db6f927dc1fb1ce4a28064d727cc60d369e33700000000"
}