{
  "txid": "18b64af98b7126d805f613a901bc1570e0aa0041b96def294299fe1341021a37",
  "version": 2,
  "locktime": 0,
  "vin": [
    {
      "txid": "acc3ba00869acb582a3f2904ce3a11dd3779350ce234063fc7d0959246213364",
      "vout": 201,
      "prevout": {
        "scriptpubkey": "5120c5100fff61ccad97c5eabe5d42c3d338737c0ba5ee546419d3712b0dec170ef7",
        "scriptpubkey_asm": "OP_PUSHNUM_1 OP_PUSHBYTES_32 c5100fff61ccad97c5eabe5d42c3d338737c0ba5ee546419d3712b0dec170ef7",
        "scriptpubkey_type": "v1_p2tr",
        "scriptpubkey_address": "bc1pc5gqllmpejke0302hew59s7n8pehcza9ae2xgxwnwy4smmqhpmmstdtn52",
        "value": 1806
      },
      "scriptsig": "",
      "scriptsig_asm": "",
      "witness": [
        "24b2c5cc7e2e9d00c221861aa9703ca9f5043bc5b407631a68d1ef0ecaaba9b5b5101359f5d78e99174e377868be7dde3e9371cebf282b963513769b284feb6d",
        "2091bc62cf35b2e3d6f3242654fe78fed49ea16f7e70df00f53137fc2463613be2ac0063036f726401010a746578742f706c61696e00357b2270223a226272632d3230222c226f70223a226d696e74222c227469636b223a22646f6765222c22616d74223a2234323030227d68",
        "c191bc62cf35b2e3d6f3242654fe78fed49ea16f7e70df00f53137fc2463613be2"
      ],
      "is_coinbase": false,
      "sequence": 4261412863
    }
  ],
  "vout": [
    {
      "scriptpubkey": "00147a665de7a370f4c9b372ab1fae587500a5bcbdb4",
      "scriptpubkey_asm": "OP_0 OP_PUSHBYTES_20 7a665de7a370f4c9b372ab1fae587500a5bcbdb4",
      "scriptpubkey_type": "v0_p2wpkh",
      "scriptpubkey_address": "bc1q0fn9mearwr6vnvmj4v06ukr4qzjme0d565dzcx",
      "value": 294
    }
  ],
  "size": 294,
  "weight": 540,
  "fee": 1512,
  "status": {
    "confirmed": true,
    "block_height": 834460,
    "block_hash": "00000000000000000000484a79b643b2524bbce82e5d8a442013fa5b8905ed98",
    "block_time": 1710307468
  },
  "hex": "02000000000101643321469295d0c73f0634e20c357937dd113ace04293f2a58cb9a8600bac3acc900000000fffffffd0126010000000000001600147a665de7a370f4c9b372ab1fae587500a5bcbdb4034024b2c5cc7e2e9d00c221861aa9703ca9f5043bc5b407631a68d1ef0ecaaba9b5b5101359f5d78e99174e377868be7dde3e9371cebf282b963513769b284feb6d6d2091bc62cf35b2e3d6f3242654fe78fed49ea16f7e70df00f53137fc2463613be2ac0063036f726401010a746578742f706c61696e00357b2270223a226272632d3230222c226f70223a226d696e74222c227469636b223a22646f6765222c22616d74223a2234323030227d6821c191bc62cf35b2e3d6f3242654fe78fed49ea16f7e70df00f53137fc2463613be200000000"
}