{
  "txid": "18d4ac91dd3ce5830735cb15ce770e3de84d2de3a5412dd094338bddefb85f48",
  "version": 1,
  "locktime": 0,
  "vin": [
    {
      "txid": "8888888353507aaef23d6ebe4b4cf8710e6b7956bcf5b226a4ee9100f222ecba",
      "vout": 0,
      "prevout": {
        "scriptpubkey": "512091f0235b4cc772a97d0f4bc777674a6810493ff4e707b9ff5336341d84867dc0",
        "scriptpubkey_asm": "OP_PUSHNUM_1 OP_PUSHBYTES_32 91f0235b4cc772a97d0f4bc777674a6810493ff4e707b9ff5336341d84867dc0",
        "scriptpubkey_type": "v1_p2tr",
        "scriptpubkey_address": "bc1pj8czxk6vcae2jlg0f0rhwe62dqgyj0l5uurmnl6nxc6pmpyx0hqqrqxxkx",
        "value": 11627
      },
      "scriptsig": "",
      "scriptsig_asm": "",
      "witness": [
        "ce0a3c68e9317010c9562e7dc637791ddec7c5fd328900ef5c9a5eb5bfa2d67af296a2f2abf190dda9a9cafa03957e0f77efb5f84bd2534f75b6e1d61ca6e63b83",
        "206e52c938c29c99e9a77647b2895f750d08ffac8b4128f105ecf15445f35d3cc5ac00630461746f6d03646d7442a16461726773a468626974776f726b6367383838383838386b6d696e745f7469636b657268696e66696e697479656e6f6e63651a00342c656474696d651a65dc6c2168",
        "c06e52c938c29c99e9a77647b2895f750d08ffac8b4128f105ecf15445f35d3cc5"
      ],
      "is_coinbase": false,
      "sequence": 4294967293
    }
  ],
  "vout": [
    {
      "scriptpubkey": "5120bf94882e5d0c036449dc3f1782adc8fe707e6d03ea0ecdd97e048b8da94a44b1",
      "scriptpubkey_asm": "OP_PUSHNUM_1 OP_PUSHBYTES_32 bf94882e5d0c036449dc3f1782adc8fe707e6d03ea0ecdd97e048b8da94a44b1",
      "scriptpubkey_type": "v1_p2tr",
      "scriptpubkey_address": "bc1ph72gstjapspkgjwu8utc9twglec8umgrag8vmkt7qj9cm222gjcsurlt3p",
      "value": 9999
    }
  ],
  "size": 311,
  "weight": 593,
  "fee": 1628,
  "status": {
    "confirmed": true,
    "block_height": 834464,
    "block_hash": "0000000000000000000177a0869a911a2b65c9bdcd5a8bcb02b68f305bee848e",
    "block_time": 1710308296
  },
  "hex": "01000000000101baec22f20091eea426b2f5bc56796b0e71f84c4bbe6e3df2ae7a5053838888880000000000fdffffff010f27000000000000225120bf94882e5d0c036449dc3f1782adc8fe707e6d03ea0ecdd97e048b8da94a44b10341ce0a3c68e9317010c9562e7dc637791ddec7c5fd328900ef5c9a5eb5bfa2d67af296a2f2abf190dda9a9cafa03957e0f77efb5f84bd2534f75b6e1d61ca6e63b8371206e52c938c29c99e9a77647b2895f750d08ffac8b4128f105ecf15445f35d3cc5ac00630461746f6d03646d7442a16461726773a468626974776f726b6367383838383838386b6d696e745f7469636b657268696e66696e697479656e6f6e63651a00342c656474696d651a65dc6c216821c06e52c938c29c99e9a77647b2895f750d08ffac8b4128f105ecf15445f35d3cc500000000"
}