{
  "txid": "18e4220eea2dd52a5f13854cba7ee28f7d37080b0e9060a83981c499da3ac59a",
  "version": 1,
  "locktime": 0,
  "vin": [
    {
      "txid": "8888888ef0fde683df8fb45066e1301caebc04eaed559e9f5e54890de47e6c80",
      "vout": 0,
      "prevout": {
        "scriptpubkey": "512089a4fca073987c7685a29cfce9a92af26f54ab45d58d92b9ad7b214ae656ea2d",
        "scriptpubkey_asm": "OP_PUSHNUM_1 OP_PUSHBYTES_32 89a4fca073987c7685a29cfce9a92af26f54ab45d58d92b9ad7b214ae656ea2d",
        "scriptpubkey_type": "v1_p2tr",
        "scriptpubkey_address": "bc1p3xj0egrnnp78dpdznn7wn2f27fh4f2696kxe9wdd0vs54ejkagks0gtg7x",
        "value": 11487
      },
      "scriptsig": "",
      "scriptsig_asm": "",
      "witness": [
        "5c8bf2225e710a512a1119e74fea1879a6de281ae4c10a9793fd41854a1ce709979210a04b69fe8df5046f6b707ad73318659c2d58a181a2c86cdb2ef3a1ee6383",
        "20be11f1d0580232188e877ef283eb5a1efd4e9e5290a2633605d666f59ad3fff2ac00630461746f6d03646d7445a16461726773a468626974776f726b636a383838383838382e31326b6d696e745f7469636b657268696e66696e697479656e6f6e63651a0027ae0a6474696d651a65e63d0c68",
        "c1be11f1d0580232188e877ef283eb5a1efd4e9e5290a2633605d666f59ad3fff2"
      ],
      "is_coinbase": false,
      "sequence": 4294967293
    }
  ],
  "vout": [
    {
      "scriptpubkey": "0014ddb95f82fd7c5c1d1c001667e198d0749f66aacd",
      "scriptpubkey_asm": "OP_0 OP_PUSHBYTES_20 ddb95f82fd7c5c1d1c001667e198d0749f66aacd",
      "scriptpubkey_type": "v0_p2wpkh",
      "scriptpubkey_address": "bc1qmku4lqha03wp68qqzen7rxxswj0kd2kdnra4x8",
      "value": 9999
    }
  ],
  "size": 302,
  "weight": 548,
  "fee": 1488,
  "status": {
    "confirmed": true,
    "block_height": 834464,
    "block_hash": "0000000000000000000177a0869a911a2b65c9bdcd5a8bcb02b68f305bee848e",
    "block_time": 1710308296
  },
  "hex": "01000000000101806c7ee40d89545e9f9e55edea04bcae1c30e16650b48fdf83e6fdf08e8888880000000000fdffffff010f27000000000000160014ddb95f82fd7c5c1d1c001667e198d0749f66aacd03415c8bf2225e710a512a1119e74fea1879a6de281ae4c10a9793fd41854a1ce709979210a04b69fe8df5046f6b707ad73318659c2d58a181a2c86cdb2ef3a1ee63837420be11f1d0580232188e877ef283eb5a1efd4e9e5290a2633605d666f59ad3fff2ac00630461746f6d03646d7445a16461726773a468626974776f726b636a383838383838382e31326b6d696e745f7469636b657268696e66696e697479656e6f6e63651a0027ae0a6474696d651a65e63d0c6821c1be11f1d0580232188e877ef283eb5a1efd4e9e5290a2633605d666f59ad3fff200000000"
}