{
  "txid": "18e689caf0d26182e5d901db06016671c4b261dc5dc328f85aec98e510c892fc",
  "version": 1,
  "locktime": 0,
  "vin": [
    {
      "txid": "718042f7a7256a0190252cac675c79a29972f9077a508762831efe917e3d1448",
      "vout": 54,
      "prevout": {
        "scriptpubkey": "76a914227c424bbb7a22726eebd396297ca0b5ba7a9ba888ac",
        "scriptpubkey_asm": "OP_DUP OP_HASH160 OP_PUSHBYTES_20 227c424bbb7a22726eebd396297ca0b5ba7a9ba8 OP_EQUALVERIFY OP_CHECKSIG",
        "scriptpubkey_type": "p2pkh",
        "scriptpubkey_address": "149LqBq3SXm4GZG2vDzpV7zMYjXWkaTV8s",
        "value": 91302
      },
      "scriptsig": "483045022100d89f514976b88bef8b7e7603554e6cf82e54cd19d2d2f27c34a5e8c420758bc6022077c96ac5714a107a8270e7fd6b39fb9cc8731b237b9fdced2c54547d106dd7e001210332945a6590ed1c05c7231fbedbea31b61a4a73e359fc2dac039989a2ccd9a1d4",
      "scriptsig_asm": "OP_PUSHBYTES_72 3045022100d89f514976b88bef8b7e7603554e6cf82e54cd19d2d2f27c34a5e8c420758bc6022077c96ac5714a107a8270e7fd6b39fb9cc8731b237b9fdced2c54547d106dd7e001 OP_PUSHBYTES_33 0332945a6590ed1c05c7231fbedbea31b61a4a73e359fc2dac039989a2ccd9a1d4",
      "is_coinbase": false,
      "sequence": 4294967295
    }
  ],
  "vout": [
    {
      "scriptpubkey": "0014073c0d22b4bcb3e62dd2ac78afed661e133d96f9",
      "scriptpubkey_asm": "OP_0 OP_PUSHBYTES_20 073c0d22b4bcb3e62dd2ac78afed661e133d96f9",
      "scriptpubkey_type": "v0_p2wpkh",
      "scriptpubkey_address": "bc1qqu7q6g45hje7vtwj43u2lmtxrcfnm9hejk3uv3",
      "value": 87951
    }
  ],
  "size": 189,
  "weight": 756,
  "fee": 3351,
  "status": {
    "confirmed": true,
    "block_height": 834460,
    "block_hash": "00000000000000000000484a79b643b2524bbce82e5d8a442013fa5b8905ed98",
    "block_time": 1710307468
  },
  "hex": "010000000148143d7e91fe1e836287507a07f97299a2795c67ac2c2590016a25a7f7428071360000006b483045022100d89f514976b88bef8b7e7603554e6cf82e54cd19d2d2f27c34a5e8c420758bc6022077c96ac5714a107a8270e7fd6b39fb9cc8731b237b9fdced2c54547d106dd7e001210332945a6590ed1c05c7231fbedbea31b61a4a73e359fc2dac039989a2ccd9a1d4ffffffff018f57010000000000160014073c0d22b4bcb3e62dd2ac78afed661e133d96f900000000"
}