{
  "txid": "18f8ec9f041df4fea0c82dce53f93f88f658a9ab29b4b0b23712e3293277a87d",
  "version": 2,
  "locktime": 0,
  "vin": [
    {
      "txid": "acc3ba00869acb582a3f2904ce3a11dd3779350ce234063fc7d0959246213364",
      "vout": 111,
      "prevout": {
        "scriptpubkey": "512056c6d999888701b287d24caff1a2e98c8af65c05c624b00dd1060ef1dec9985b",
        "scriptpubkey_asm": "OP_PUSHNUM_1 OP_PUSHBYTES_32 56c6d999888701b287d24caff1a2e98c8af65c05c624b00dd1060ef1dec9985b",
        "scriptpubkey_type": "v1_p2tr",
        "scriptpubkey_address": "bc1p2mrdnxvgsuqm9p7jfjhlrghf3j90vhq9ccjtqrw3qc80rhkfnpdsqrlkev",
        "value": 1806
      },
      "scriptsig": "",
      "scriptsig_asm": "",
      "witness": [
        "69f813d9dfc2fc6c623b9942d1794728a96aceb0cd7b79170b0b498df02115297f7cac36d6660225aa32e937685e2aee55f046947be780c1012970a194e6ddd9",
        "20bdc187b3b85ff99145877163679285485277a50cfe118994a3f4e20696540670ac0063036f726401010a746578742f706c61696e00357b2270223a226272632d3230222c226f70223a226d696e74222c227469636b223a22646f6765222c22616d74223a2234323030227d68",
        "c0bdc187b3b85ff99145877163679285485277a50cfe118994a3f4e20696540670"
      ],
      "is_coinbase": false,
      "sequence": 4261412863
    }
  ],
  "vout": [
    {
      "scriptpubkey": "00147a665de7a370f4c9b372ab1fae587500a5bcbdb4",
      "scriptpubkey_asm": "OP_0 OP_PUSHBYTES_20 7a665de7a370f4c9b372ab1fae587500a5bcbdb4",
      "scriptpubkey_type": "v0_p2wpkh",
      "scriptpubkey_address": "bc1q0fn9mearwr6vnvmj4v06ukr4qzjme0d565dzcx",
      "value": 294
    }
  ],
  "size": 294,
  "weight": 540,
  "fee": 1512,
  "status": {
    "confirmed": true,
    "block_height": 834460,
    "block_hash": "00000000000000000000484a79b643b2524bbce82e5d8a442013fa5b8905ed98",
    "block_time": 1710307468
  },
  "hex": "02000000000101643321469295d0c73f0634e20c357937dd113ace04293f2a58cb9a8600bac3ac6f00000000fffffffd0126010000000000001600147a665de7a370f4c9b372ab1fae587500a5bcbdb4034069f813d9dfc2fc6c623b9942d1794728a96aceb0cd7b79170b0b498df02115297f7cac36d6660225aa32e937685e2aee55f046947be780c1012970a194e6ddd96d20bdc187b3b85ff99145877163679285485277a50cfe118994a3f4e20696540670ac0063036f726401010a746578742f706c61696e00357b2270223a226272632d3230222c226f70223a226d696e74222c227469636b223a22646f6765222c22616d74223a2234323030227d6821c0bdc187b3b85ff99145877163679285485277a50cfe118994a3f4e2069654067000000000"
}