{
  "txid": "19002748a1428ed5bf1cdaffe07196f02830f6659ca8aed53417e2e3cb6b8b7c",
  "version": 1,
  "locktime": 0,
  "vin": [
    {
      "txid": "e90aa508c6cdfdde98c154ff45564b2bdee7269e4a46271711b1223ccb4f97eb",
      "vout": 0,
      "prevout": {
        "scriptpubkey": "0014675e869be941f4317d910c1579844cf1a10dd11c",
        "scriptpubkey_asm": "OP_0 OP_PUSHBYTES_20 675e869be941f4317d910c1579844cf1a10dd11c",
        "scriptpubkey_type": "v0_p2wpkh",
        "scriptpubkey_address": "bc1qva0gdxlfg86rzlv3ps2hnpzv7xssm5gudsf4cg",
        "value": 13751
      },
      "scriptsig": "",
      "scriptsig_asm": "",
      "witness": [
        "304402204c0df817f2f0c3a5ded512bf133171470ab32aed437c60636420ddbadf4deac602204516cc085a3f062299c0649ff437879e3f75f7f16651a4b6e465e9e95bea48d501",
        "02dd45980a73899ab3b346eb88b684a1697ed9f4da8d731b4bff5f5c0db396fbf2"
      ],
      "is_coinbase": false,
      "sequence": 0
    }
  ],
  "vout": [
    {
      "scriptpubkey": "00141cfa413ab1e93b38b37a6f1464b21beac2c9227e",
      "scriptpubkey_asm": "OP_0 OP_PUSHBYTES_20 1cfa413ab1e93b38b37a6f1464b21beac2c9227e",
      "scriptpubkey_type": "v0_p2wpkh",
      "scriptpubkey_address": "bc1qrnayzw43ayan3vm6du2xfvsmatpvjgn7rvvzrl",
      "value": 1367
    },
    {
      "scriptpubkey": "001436a5de2398df4abdf5320a522e4d86e605b76773",
      "scriptpubkey_asm": "OP_0 OP_PUSHBYTES_20 36a5de2398df4abdf5320a522e4d86e605b76773",
      "scriptpubkey_type": "v0_p2wpkh",
      "scriptpubkey_address": "bc1qx6jaugucma9tmafjpffzunvxuczmwemnfwxdv7",
      "value": 10551
    }
  ],
  "size": 222,
  "weight": 561,
  "fee": 1833,
  "status": {
    "confirmed": true,
    "block_height": 834552,
    "block_hash": "00000000000000000001dd0468a70c94f619251d286585cff57aeb4bd9ede330",
    "block_time": 1710355598
  },
  "hex": "01000000000101eb974fcb3c22b1111727464a9e26e7de2b4b5645ff54c198defdcdc608a50ae90000000000000000000257050000000000001600141cfa413ab1e93b38b37a6f1464b21beac2c9227e372900000000000016001436a5de2398df4abdf5320a522e4d86e605b767730247304402204c0df817f2f0c3a5ded512bf133171470ab32aed437c60636420ddbadf4deac602204516cc085a3f062299c0649ff437879e3f75f7f16651a4b6e465e9e95bea48d5012102dd45980a73899ab3b346eb88b684a1697ed9f4da8d731b4bff5f5c0db396fbf200000000"
}