{
  "txid": "1904b89f195d8d617f8a416b80dd7abc2c1ac500be432170bc509b237c5d1283",
  "version": 2,
  "locktime": 0,
  "vin": [
    {
      "txid": "abdcbb8bcefa0f088373ceda41a70fe1aeaa3823b969e1169e2a29269068d8dc",
      "vout": 6,
      "prevout": {
        "scriptpubkey": "51200616d8fa33d5dbbd32e8dea94ec180ec60239dd84fb6f325e8d21d9f3b2306df",
        "scriptpubkey_asm": "OP_PUSHNUM_1 OP_PUSHBYTES_32 0616d8fa33d5dbbd32e8dea94ec180ec60239dd84fb6f325e8d21d9f3b2306df",
        "scriptpubkey_type": "v1_p2tr",
        "scriptpubkey_address": "bc1pqctd373n6hdm6vhgm655asvqa3sz88wcf7m0xf0g6gwe7werqm0sltq7fq",
        "value": 2522
      },
      "scriptsig": "",
      "scriptsig_asm": "",
      "witness": [
        "cc0bbed6d72ce71ade1a08e5b89ded7a3b4afeacfb9c02cbab4bc9f2cf000742a78cba5ea23a3760f3664de83e8237ab3355feaad5260a41c6ec717d477b1420",
        "20c6345a54389f70d7df0126812575b9322a841b0203bf777ce755d28b7424cc00ac0063036f7264010118746578742f706c61696e3b636861727365743d7574662d3800387b2270223a226272632d3230222c226f70223a227472616e73666572222c227469636b223a226f726e6a222c22616d74223a22313030227d68",
        "c025dced391475af84759664675c16f5ed581b243a944241d7ee258c8cfb80c9db"
      ],
      "is_coinbase": false,
      "sequence": 4294967295
    }
  ],
  "vout": [
    {
      "scriptpubkey": "512060e7b9d91ee3091b65165528563dba11a47299520ea2fc67070ec6ac303fc05d",
      "scriptpubkey_asm": "OP_PUSHNUM_1 OP_PUSHBYTES_32 60e7b9d91ee3091b65165528563dba11a47299520ea2fc67070ec6ac303fc05d",
      "scriptpubkey_type": "v1_p2tr",
      "scriptpubkey_address": "bc1pvrnmnkg7uvy3kegk2559v0d6zxj89x2jp630cec8pmr2cvplcpwsn3pn79",
      "value": 546
    }
  ],
  "size": 323,
  "weight": 605,
  "fee": 1976,
  "status": {
    "confirmed": true,
    "block_height": 834460,
    "block_hash": "00000000000000000000484a79b643b2524bbce82e5d8a442013fa5b8905ed98",
    "block_time": 1710307468
  },
  "hex": "02000000000101dcd8689026292a9e16e169b92338aaaee10fa741dace7383080fface8bbbdcab0600000000ffffffff01220200000000000022512060e7b9d91ee3091b65165528563dba11a47299520ea2fc67070ec6ac303fc05d0340cc0bbed6d72ce71ade1a08e5b89ded7a3b4afeacfb9c02cbab4bc9f2cf000742a78cba5ea23a3760f3664de83e8237ab3355feaad5260a41c6ec717d477b14207e20c6345a54389f70d7df0126812575b9322a841b0203bf777ce755d28b7424cc00ac0063036f7264010118746578742f706c61696e3b636861727365743d7574662d3800387b2270223a226272632d3230222c226f70223a227472616e73666572222c227469636b223a226f726e6a222c22616d74223a22313030227d6821c025dced391475af84759664675c16f5ed581b243a944241d7ee258c8cfb80c9db00000000"
}