{
  "txid": "190fc6168a57c4771c15a7d272903a80e395cd0c87b288e748e52eac36b6e801",
  "version": 2,
  "locktime": 0,
  "vin": [
    {
      "txid": "bf864548654cfa8c8558effc7357b378b7280f0930b1cc6e587ef35205cc371d",
      "vout": 1,
      "prevout": {
        "scriptpubkey": "5120b7d5fcdcc03564168d2c102f2e804e38aa188f96665b04db1e84184c57f73b0b",
        "scriptpubkey_asm": "OP_PUSHNUM_1 OP_PUSHBYTES_32 b7d5fcdcc03564168d2c102f2e804e38aa188f96665b04db1e84184c57f73b0b",
        "scriptpubkey_type": "v1_p2tr",
        "scriptpubkey_address": "bc1pkl2lehxqx4jpdrfvzqhjaqzw8z4p3rukvedsfkc7ssvyc4lh8v9sy3rqrw",
        "value": 79427
      },
      "scriptsig": "",
      "scriptsig_asm": "",
      "witness": [
        "e7b2fea4c96680796aba2be39e62648fcc503569ae827774a20da9813d987d948f565facbdab793a5a1e28ad8f398c759f1cdf429fcf4d72d35ef1d201ed5e4c"
      ],
      "is_coinbase": false,
      "sequence": 4294967295
    }
  ],
  "vout": [
    {
      "scriptpubkey": "001448dfa704897f78fdfbc2b9534055dd9b219ef5a8",
      "scriptpubkey_asm": "OP_0 OP_PUSHBYTES_20 48dfa704897f78fdfbc2b9534055dd9b219ef5a8",
      "scriptpubkey_type": "v0_p2wpkh",
      "scriptpubkey_address": "bc1qfr06wpyf0au0m77zh9f5q4wanvseaadgq9qhf9",
      "value": 12471
    },
    {
      "scriptpubkey": "5120b7d5fcdcc03564168d2c102f2e804e38aa188f96665b04db1e84184c57f73b0b",
      "scriptpubkey_asm": "OP_PUSHNUM_1 OP_PUSHBYTES_32 b7d5fcdcc03564168d2c102f2e804e38aa188f96665b04db1e84184c57f73b0b",
      "scriptpubkey_type": "v1_p2tr",
      "scriptpubkey_address": "bc1pkl2lehxqx4jpdrfvzqhjaqzw8z4p3rukvedsfkc7ssvyc4lh8v9sy3rqrw",
      "value": 65110
    }
  ],
  "size": 193,
  "weight": 568,
  "fee": 1846,
  "status": {
    "confirmed": true,
    "block_height": 834460,
    "block_hash": "00000000000000000000484a79b643b2524bbce82e5d8a442013fa5b8905ed98",
    "block_time": 1710307468
  },
  "hex": "020000000001011d37cc0552f37e586eccb130090f28b778b35773fcef58858cfa4c65484586bf0100000000ffffffff02b73000000000000016001448dfa704897f78fdfbc2b9534055dd9b219ef5a856fe000000000000225120b7d5fcdcc03564168d2c102f2e804e38aa188f96665b04db1e84184c57f73b0b0140e7b2fea4c96680796aba2be39e62648fcc503569ae827774a20da9813d987d948f565facbdab793a5a1e28ad8f398c759f1cdf429fcf4d72d35ef1d201ed5e4c00000000"
}