{
  "txid": "191251156bd59ea60fad7a20d75d644f3810e811a62dfa445c322821889afbb2",
  "version": 2,
  "locktime": 0,
  "vin": [
    {
      "txid": "310bc32c22b1cd0cc6444ac27b16cdd72aaeaf6bc603eb099cfe2fa1c9a93de9",
      "vout": 5,
      "prevout": {
        "scriptpubkey": "5120ef8093cb35f6e5ae461f6c527ade4395452b12f7a8db220a806edbc22c6c0c41",
        "scriptpubkey_asm": "OP_PUSHNUM_1 OP_PUSHBYTES_32 ef8093cb35f6e5ae461f6c527ade4395452b12f7a8db220a806edbc22c6c0c41",
        "scriptpubkey_type": "v1_p2tr",
        "scriptpubkey_address": "bc1pa7qf8je47mj6u3sld3f84hjrj4zjkyhh4rdjyz5qdmduytrvp3qs9vktfs",
        "value": 7120387
      },
      "scriptsig": "",
      "scriptsig_asm": "",
      "witness": [
        "6801854cb18e1b7bd5227bac2905451fe1f8e28d49267bd75aaeeba992eeb8ad485749445b1077657539e0f7b3a06da87c4bd699624eb93f59aa96fdbae2bdef"
      ],
      "is_coinbase": false,
      "sequence": 4294967295
    }
  ],
  "vout": [
    {
      "scriptpubkey": "00143756e570e16c8712a7cf229947201f4b555a3cbb",
      "scriptpubkey_asm": "OP_0 OP_PUSHBYTES_20 3756e570e16c8712a7cf229947201f4b555a3cbb",
      "scriptpubkey_type": "v0_p2wpkh",
      "scriptpubkey_address": "bc1qxatw2u8pdjr39f70y2v5wgqlfd24509m3r9l94",
      "value": 22386
    },
    {
      "scriptpubkey": "a9140cc4ed2adc4188383c24980e3d850a8d2b9acb3e87",
      "scriptpubkey_asm": "OP_HASH160 OP_PUSHBYTES_20 0cc4ed2adc4188383c24980e3d850a8d2b9acb3e OP_EQUAL",
      "scriptpubkey_type": "p2sh",
      "scriptpubkey_address": "32rXwXwgdTHXX3Fg3hkCTE6NewtP7c7aU3",
      "value": 29550
    },
    {
      "scriptpubkey": "0014604ca641c834ca849202e304af327de6879da866",
      "scriptpubkey_asm": "OP_0 OP_PUSHBYTES_20 604ca641c834ca849202e304af327de6879da866",
      "scriptpubkey_type": "v0_p2wpkh",
      "scriptpubkey_address": "bc1qvpx2vswgxn9gfyszuvz27vnau6rem2rxx0lgq3",
      "value": 20587
    },
    {
      "scriptpubkey": "5120ef8093cb35f6e5ae461f6c527ade4395452b12f7a8db220a806edbc22c6c0c41",
      "scriptpubkey_asm": "OP_PUSHNUM_1 OP_PUSHBYTES_32 ef8093cb35f6e5ae461f6c527ade4395452b12f7a8db220a806edbc22c6c0c41",
      "scriptpubkey_type": "v1_p2tr",
      "scriptpubkey_address": "bc1pa7qf8je47mj6u3sld3f84hjrj4zjkyhh4rdjyz5qdmduytrvp3qs9vktfs",
      "value": 7044568
    }
  ],
  "size": 256,
  "weight": 820,
  "fee": 3296,
  "status": {
    "confirmed": true,
    "block_height": 834552,
    "block_hash": "00000000000000000001dd0468a70c94f619251d286585cff57aeb4bd9ede330",
    "block_time": 1710355598
  },
  "hex": "02000000000101e93da9c9a12ffe9c09eb03c66bafae2ad7cd167bc24a44c60ccdb1222cc30b310500000000ffffffff0472570000000000001600143756e570e16c8712a7cf229947201f4b555a3cbb6e7300000000000017a9140cc4ed2adc4188383c24980e3d850a8d2b9acb3e876b50000000000000160014604ca641c834ca849202e304af327de6879da866d87d6b0000000000225120ef8093cb35f6e5ae461f6c527ade4395452b12f7a8db220a806edbc22c6c0c4101406801854cb18e1b7bd5227bac2905451fe1f8e28d49267bd75aaeeba992eeb8ad485749445b1077657539e0f7b3a06da87c4bd699624eb93f59aa96fdbae2bdef00000000"
}