{
  "txid": "19266c77718d86cd45872a374537a63c047d323f8cc28e7b0c492e4e7499af7e",
  "version": 2,
  "locktime": 834458,
  "vin": [
    {
      "txid": "66278047038de822eb63c6f718c7da00e0dc090e5e1702d1f3741ead5278e54d",
      "vout": 1,
      "prevout": {
        "scriptpubkey": "51201c2467c3a4c64de601f7473a59e72bfa663ab5ed94069495e67938bd0c93121b",
        "scriptpubkey_asm": "OP_PUSHNUM_1 OP_PUSHBYTES_32 1c2467c3a4c64de601f7473a59e72bfa663ab5ed94069495e67938bd0c93121b",
        "scriptpubkey_type": "v1_p2tr",
        "scriptpubkey_address": "bc1prsjx0saycex7vq0hgua9neetlfnr4d0djsrff90x0yut6rynzgdsvmnf5c",
        "value": 3879406
      },
      "scriptsig": "",
      "scriptsig_asm": "",
      "witness": [
        "fc80a2d4bbe43027c8cca03ebc9c08b0e18838dd9b860d712a34178be8306ed2f77492383a68022b6ae541ba11dc6ae3ee280c83a9f14a8bb9b54a4604af8ef0"
      ],
      "is_coinbase": false,
      "sequence": 4294967293
    }
  ],
  "vout": [
    {
      "scriptpubkey": "00206fcb26cec6bf1ae65fd6af28fd17a6a6d2b16c35ce218808244ebe5c6b8747a9",
      "scriptpubkey_asm": "OP_0 OP_PUSHBYTES_32 6fcb26cec6bf1ae65fd6af28fd17a6a6d2b16c35ce218808244ebe5c6b8747a9",
      "scriptpubkey_type": "v0_p2wsh",
      "scriptpubkey_address": "bc1qdl9jdnkxhudwvh7k4u5069ax5mftzmp4ecscszpyf6l9c6u8g75svznxak",
      "value": 250914
    },
    {
      "scriptpubkey": "5120c17b3e1e752482fbbf1d76236d610be036a2673a370acf82112f27a2090cf209",
      "scriptpubkey_asm": "OP_PUSHNUM_1 OP_PUSHBYTES_32 c17b3e1e752482fbbf1d76236d610be036a2673a370acf82112f27a2090cf209",
      "scriptpubkey_type": "v1_p2tr",
      "scriptpubkey_address": "bc1pc9anu8n4yjp0h0cawc3k6cgtuqm2yee6xu9vlqs39un6yzgv7gys9dfgz3",
      "value": 3626357
    }
  ],
  "size": 205,
  "weight": 616,
  "fee": 2135,
  "status": {
    "confirmed": true,
    "block_height": 834460,
    "block_hash": "00000000000000000000484a79b643b2524bbce82e5d8a442013fa5b8905ed98",
    "block_time": 1710307468
  },
  "hex": "020000000001014de57852ad1e74f3d102175e0e09dce000dac718f7c663eb22e88d03478027660100000000fdffffff0222d40300000000002200206fcb26cec6bf1ae65fd6af28fd17a6a6d2b16c35ce218808244ebe5c6b8747a97555370000000000225120c17b3e1e752482fbbf1d76236d610be036a2673a370acf82112f27a2090cf2090140fc80a2d4bbe43027c8cca03ebc9c08b0e18838dd9b860d712a34178be8306ed2f77492383a68022b6ae541ba11dc6ae3ee280c83a9f14a8bb9b54a4604af8ef09abb0c00"
}