{
  "txid": "192c2f3efa73ad809cc1e800b03b88cda056945c507fc6aab629cde9a61a446d",
  "version": 2,
  "locktime": 0,
  "vin": [
    {
      "txid": "f7f938c35494b65ba0d909d6637d079eb663aa574f170628fe6ebbf03ada6438",
      "vout": 0,
      "prevout": {
        "scriptpubkey": "00147f556b0c452d644d1729b4e705f68ba4dfe6b3a3",
        "scriptpubkey_asm": "OP_0 OP_PUSHBYTES_20 7f556b0c452d644d1729b4e705f68ba4dfe6b3a3",
        "scriptpubkey_type": "v0_p2wpkh",
        "scriptpubkey_address": "bc1q0a2kkrz994jy69efknnsta5t5n07dvardh3pj9",
        "value": 275603
      },
      "scriptsig": "",
      "scriptsig_asm": "",
      "witness": [
        "3045022100e14a3351ffb475204cfeac527bf17446ba1a348bc140c2d0598650f4124996ca022036e72f5cb84191d642934bc5c7c86feddc782868db322cff1d27b235ac1dacdb01",
        "02b0206abb8c283d0f5167eb9156fe9620d9abe1e6763f9d00889b6924aed1e531"
      ],
      "is_coinbase": false,
      "sequence": 4294967293
    },
    {
      "txid": "1a355c4fb40eab0a65ff3b7e15f53fbb87eae3155082108de60c59af415c90ed",
      "vout": 0,
      "prevout": {
        "scriptpubkey": "00142d97824cfcf9d9cfa321e47b1e03e72611b2a69d",
        "scriptpubkey_asm": "OP_0 OP_PUSHBYTES_20 2d97824cfcf9d9cfa321e47b1e03e72611b2a69d",
        "scriptpubkey_type": "v0_p2wpkh",
        "scriptpubkey_address": "bc1q9ktcyn8ul8vulgepu3a3uql8ycgm9f5ap8n5cr",
        "value": 22440
      },
      "scriptsig": "",
      "scriptsig_asm": "",
      "witness": [
        "3045022100898fa91646969ca92927d16e86bfa9ee42287ba9f89699e117483e75d66860340220195b0204ed1e91cfa44dfb6bd1cb9207574ace7f4397530dfa118f27b020b6a101",
        "02a7dd452c40cacf453e5814e02965dbc8d2b56950f8035ade15012c870f4b16be"
      ],
      "is_coinbase": false,
      "sequence": 4294967293
    }
  ],
  "vout": [
    {
      "scriptpubkey": "a914a98dcaa65e437facc3d292b850e838aefde1765d87",
      "scriptpubkey_asm": "OP_HASH160 OP_PUSHBYTES_20 a98dcaa65e437facc3d292b850e838aefde1765d OP_EQUAL",
      "scriptpubkey_type": "p2sh",
      "scriptpubkey_address": "3H9XypJ8FezkhWRxB9yZKXdy5eth1vueti",
      "value": 30789
    },
    {
      "scriptpubkey": "00142d97824cfcf9d9cfa321e47b1e03e72611b2a69d",
      "scriptpubkey_asm": "OP_0 OP_PUSHBYTES_20 2d97824cfcf9d9cfa321e47b1e03e72611b2a69d",
      "scriptpubkey_type": "v0_p2wpkh",
      "scriptpubkey_address": "bc1q9ktcyn8ul8vulgepu3a3uql8ycgm9f5ap8n5cr",
      "value": 264237
    }
  ],
  "size": 373,
  "weight": 838,
  "fee": 3017,
  "status": {
    "confirmed": true,
    "block_height": 834460,
    "block_hash": "00000000000000000000484a79b643b2524bbce82e5d8a442013fa5b8905ed98",
    "block_time": 1710307468
  },
  "hex": "020000000001023864da3af0bb6efe2806174f57aa63b69e077d63d609d9a05bb69454c338f9f70000000000fdffffffed905c41af590ce68d10825015e3ea87bb3ff5157e3bff650aab0eb44f5c351a0000000000fdffffff02457800000000000017a914a98dcaa65e437facc3d292b850e838aefde1765d872d080400000000001600142d97824cfcf9d9cfa321e47b1e03e72611b2a69d02483045022100e14a3351ffb475204cfeac527bf17446ba1a348bc140c2d0598650f4124996ca022036e72f5cb84191d642934bc5c7c86feddc782868db322cff1d27b235ac1dacdb012102b0206abb8c283d0f5167eb9156fe9620d9abe1e6763f9d00889b6924aed1e53102483045022100898fa91646969ca92927d16e86bfa9ee42287ba9f89699e117483e75d66860340220195b0204ed1e91cfa44dfb6bd1cb9207574ace7f4397530dfa118f27b020b6a1012102a7dd452c40cacf453e5814e02965dbc8d2b56950f8035ade15012c870f4b16be00000000"
}