{
  "txid": "192e00b2397d2e856339a6b37c522eaad4119e533ba9b1b50539b5cb763deb21",
  "version": 1,
  "locktime": 0,
  "vin": [
    {
      "txid": "ab3feee174834565aa388c61fa7e7af07c013891efab4d75565b279900fdaf8a",
      "vout": 0,
      "prevout": {
        "scriptpubkey": "0014277502536e498de4d1b4b15b4b41f10586588902",
        "scriptpubkey_asm": "OP_0 OP_PUSHBYTES_20 277502536e498de4d1b4b15b4b41f10586588902",
        "scriptpubkey_type": "v0_p2wpkh",
        "scriptpubkey_address": "bc1qya6sy5mwfxx7f5d5k9d5ks03qkr93zgz8msww8",
        "value": 300000
      },
      "scriptsig": "",
      "scriptsig_asm": "",
      "witness": [
        "3045022100dbb3bd19b29ab99112a7ccc06b73504f2c151120b286af03b054905f63bece8c02200fe5bec397ac341a21a1e16634bcac9e229ba8417c9dd635738ca7811941738b01",
        "03cb17e25096bdd0b6e3e58424c15f93059b78ac55a8a71031b208209dfa5512c7"
      ],
      "is_coinbase": false,
      "sequence": 4294967293
    },
    {
      "txid": "ec8f49f24530ff1afabdddcc9f3606091ef8ac8c3a60678934faea13703ff2c5",
      "vout": 0,
      "prevout": {
        "scriptpubkey": "0014cfffa52a9a8073385cbc0af0a638d5e95ff002fd",
        "scriptpubkey_asm": "OP_0 OP_PUSHBYTES_20 cfffa52a9a8073385cbc0af0a638d5e95ff002fd",
        "scriptpubkey_type": "v0_p2wpkh",
        "scriptpubkey_address": "bc1qell62256spensh9uptc2vwx4a90lqqhalhvh4c",
        "value": 19700000
      },
      "scriptsig": "",
      "scriptsig_asm": "",
      "witness": [
        "304402202630f8213623d805691d186d539f72779c35b3c9ad593cf493d674343ab60fe002207104b448f7e31b72c672dc101e00822df367e47e4ce32a87f3a9863509e46a8d01",
        "036b6e8f24c8654f3b2e432569a4edb6c660503b7a3a02ed9ffdeb973b0a0d9d8c"
      ],
      "is_coinbase": false,
      "sequence": 4294967293
    }
  ],
  "vout": [
    {
      "scriptpubkey": "76a914e1d7c7f4d2736213cb11b298f23af3193d7ca0bf88ac",
      "scriptpubkey_asm": "OP_DUP OP_HASH160 OP_PUSHBYTES_20 e1d7c7f4d2736213cb11b298f23af3193d7ca0bf OP_EQUALVERIFY OP_CHECKSIG",
      "scriptpubkey_type": "p2pkh",
      "scriptpubkey_address": "1Mb9XtrhXZDdCWee5z2ExBQUDDzjpn7EGp",
      "value": 19997647
    }
  ],
  "size": 343,
  "weight": 721,
  "fee": 2353,
  "status": {
    "confirmed": true,
    "block_height": 834460,
    "block_hash": "00000000000000000000484a79b643b2524bbce82e5d8a442013fa5b8905ed98",
    "block_time": 1710307468
  },
  "hex": "010000000001028aaffd0099275b56754dabef9138017cf07a7efa618c38aa65458374e1ee3fab0000000000fdffffffc5f23f7013eafa348967603a8cacf81e0906369fccddbdfa1aff3045f2498fec0000000000fdffffff01cf233101000000001976a914e1d7c7f4d2736213cb11b298f23af3193d7ca0bf88ac02483045022100dbb3bd19b29ab99112a7ccc06b73504f2c151120b286af03b054905f63bece8c02200fe5bec397ac341a21a1e16634bcac9e229ba8417c9dd635738ca7811941738b012103cb17e25096bdd0b6e3e58424c15f93059b78ac55a8a71031b208209dfa5512c70247304402202630f8213623d805691d186d539f72779c35b3c9ad593cf493d674343ab60fe002207104b448f7e31b72c672dc101e00822df367e47e4ce32a87f3a9863509e46a8d0121036b6e8f24c8654f3b2e432569a4edb6c660503b7a3a02ed9ffdeb973b0a0d9d8c00000000"
}