{
  "txid": "19364cc29c68f5190caa6da1c8f8ec23c6b12db4922ec4d72fd5a8847e343699",
  "version": 1,
  "locktime": 0,
  "vin": [
    {
      "txid": "847114a21e947fe76c937597dd44aa95fe5976f5b78df2e8f4670b37375525e3",
      "vout": 14,
      "prevout": {
        "scriptpubkey": "00140751e5fa8778a86a33e6af9d15e7915bf2758d98",
        "scriptpubkey_asm": "OP_0 OP_PUSHBYTES_20 0751e5fa8778a86a33e6af9d15e7915bf2758d98",
        "scriptpubkey_type": "v0_p2wpkh",
        "scriptpubkey_address": "bc1qqag7t7580z5x5vlx47w3teu3t0e8trvcj50n53",
        "value": 13343852
      },
      "scriptsig": "",
      "scriptsig_asm": "",
      "witness": [
        "304402202ff7a920b8baddd1ad72b726863d776674a7f29e3486f593f30fcb804e907b3002204340227f41cafb9a06209815978407f95556a3cd1b4eb254535160017c4ff91c01",
        "03dafc06023c0cf88bac522bab76337c20e725641c1a03b005b1c1c4b53b6ca679"
      ],
      "is_coinbase": false,
      "sequence": 0
    }
  ],
  "vout": [
    {
      "scriptpubkey": "00142d607da7b54570b6eb962b70c3d343b49476dadd",
      "scriptpubkey_asm": "OP_0 OP_PUSHBYTES_20 2d607da7b54570b6eb962b70c3d343b49476dadd",
      "scriptpubkey_type": "v0_p2wpkh",
      "scriptpubkey_address": "bc1q94s8mfa4g4ctd6uk9dcv856rkj28dkkams6phr",
      "value": 10000000
    },
    {
      "scriptpubkey": "0014daa5d9e1aa80c53318cd6ced2d53e54494c31522",
      "scriptpubkey_asm": "OP_0 OP_PUSHBYTES_20 daa5d9e1aa80c53318cd6ced2d53e54494c31522",
      "scriptpubkey_type": "v0_p2wpkh",
      "scriptpubkey_address": "bc1qm2jancd2srznxxxddnkj65l9gj2vx9fzke69ch",
      "value": 3341341
    }
  ],
  "size": 222,
  "weight": 561,
  "fee": 2511,
  "status": {
    "confirmed": true,
    "block_height": 834638,
    "block_hash": "000000000000000000025f742c626208ac87e0b7d15054abb4a19ca2d735a54e",
    "block_time": 1710405325
  },
  "hex": "01000000000101e3255537370b67f4e8f28db7f57659fe95aa44dd9775936ce77f941ea21471840e00000000000000000280969800000000001600142d607da7b54570b6eb962b70c3d343b49476dadd1dfc320000000000160014daa5d9e1aa80c53318cd6ced2d53e54494c315220247304402202ff7a920b8baddd1ad72b726863d776674a7f29e3486f593f30fcb804e907b3002204340227f41cafb9a06209815978407f95556a3cd1b4eb254535160017c4ff91c012103dafc06023c0cf88bac522bab76337c20e725641c1a03b005b1c1c4b53b6ca67900000000"
}