{
  "txid": "194151ed8df351bf35cea9a93761230d929ac4c868e34bd2794307aa4afb8ef0",
  "version": 1,
  "locktime": 0,
  "vin": [
    {
      "txid": "abc592c74636d21b707c0519c0514c082c44ba6c01d8368317aee96a1a9758b7",
      "vout": 0,
      "prevout": {
        "scriptpubkey": "0014e390167869ce6ff210d20a826a28fbc188f8d6df",
        "scriptpubkey_asm": "OP_0 OP_PUSHBYTES_20 e390167869ce6ff210d20a826a28fbc188f8d6df",
        "scriptpubkey_type": "v0_p2wpkh",
        "scriptpubkey_address": "bc1quwgpv7rfeehlyyxjp2px528mcxy034klqqczx9",
        "value": 191014
      },
      "scriptsig": "",
      "scriptsig_asm": "",
      "witness": [
        "304402202a715feff874235a91459be8702a1a737a82f193a718ab0851611bec16390e5802203cfb38d72e5b9c9684e2742ce8611de9cb87a8aca67c7164fb6eb23f8db0e86101",
        "025a534670040ad8767c42ecede19ab406fb81a353278fa0cce884cc9e54e87447"
      ],
      "is_coinbase": false,
      "sequence": 4294967295
    }
  ],
  "vout": [
    {
      "scriptpubkey": "00140a0e2c484394a7698ac0bab399933d34bc0ff4da",
      "scriptpubkey_asm": "OP_0 OP_PUSHBYTES_20 0a0e2c484394a7698ac0bab399933d34bc0ff4da",
      "scriptpubkey_type": "v0_p2wpkh",
      "scriptpubkey_address": "bc1qpg8zcjzrjjnknzkqh2eenyeaxj7qlax6hpy62p",
      "value": 181463
    },
    {
      "scriptpubkey": "0014e390167869ce6ff210d20a826a28fbc188f8d6df",
      "scriptpubkey_asm": "OP_0 OP_PUSHBYTES_20 e390167869ce6ff210d20a826a28fbc188f8d6df",
      "scriptpubkey_type": "v0_p2wpkh",
      "scriptpubkey_address": "bc1quwgpv7rfeehlyyxjp2px528mcxy034klqqczx9",
      "value": 5744
    },
    {
      "scriptpubkey": "6a413d3a4c54432e4c54433a6c746331713673653335736375396c6670646b306a7973686d646a307875753039716665386c33356430763a302f312f303a74693a3730",
      "scriptpubkey_asm": "OP_RETURN OP_PUSHBYTES_65 3d3a4c54432e4c54433a6c746331713673653335736375396c6670646b306a7973686d646a307875753039716665386c33356430763a302f312f303a74693a3730",
      "scriptpubkey_type": "op_return",
      "value": 0
    }
  ],
  "size": 298,
  "weight": 865,
  "fee": 3807,
  "status": {
    "confirmed": true,
    "block_height": 834638,
    "block_hash": "000000000000000000025f742c626208ac87e0b7d15054abb4a19ca2d735a54e",
    "block_time": 1710405325
  },
  "hex": "01000000000101b758971a6ae9ae178336d8016cba442c084c51c019057c701bd23646c792c5ab0000000000ffffffff03d7c40200000000001600140a0e2c484394a7698ac0bab399933d34bc0ff4da7016000000000000160014e390167869ce6ff210d20a826a28fbc188f8d6df0000000000000000436a413d3a4c54432e4c54433a6c746331713673653335736375396c6670646b306a7973686d646a307875753039716665386c33356430763a302f312f303a74693a37300247304402202a715feff874235a91459be8702a1a737a82f193a718ab0851611bec16390e5802203cfb38d72e5b9c9684e2742ce8611de9cb87a8aca67c7164fb6eb23f8db0e8610121025a534670040ad8767c42ecede19ab406fb81a353278fa0cce884cc9e54e8744700000000"
}