{
  "txid": "194b92359e043e1f9295924539dfcc73208117ee0f4863fe52346eba49ae4274",
  "version": 1,
  "locktime": 0,
  "vin": [
    {
      "txid": "c0b792f7ee79e965669fcfbd2c5f5cd1ccbb73219d952b288e595dcd582f541c",
      "vout": 0,
      "prevout": {
        "scriptpubkey": "76a91470a10497b1038b7347cc4cc45f8f957216040dfd88ac",
        "scriptpubkey_asm": "OP_DUP OP_HASH160 OP_PUSHBYTES_20 70a10497b1038b7347cc4cc45f8f957216040dfd OP_EQUALVERIFY OP_CHECKSIG",
        "scriptpubkey_type": "p2pkh",
        "scriptpubkey_address": "1BGXaD3KaajXKtTAFKLXkF6KRepg6g9Vxg",
        "value": 173841
      },
      "scriptsig": "483045022100e1fa227f599a8439054046e5addb31415af1ca22d52bed2639343b153aa9ef2202203add03875fe015fda5a25f55951ef4844562822ccaaed25fffff53c35e8aea1a014104f5edf2a8e0758fc808ddbd56a3f00ad881428bbc6aec9a577576116047564d105b3ae1e720ada2477fef768a2e00c688a593520137829420028e329c76306771",
      "scriptsig_asm": "OP_PUSHBYTES_72 3045022100e1fa227f599a8439054046e5addb31415af1ca22d52bed2639343b153aa9ef2202203add03875fe015fda5a25f55951ef4844562822ccaaed25fffff53c35e8aea1a01 OP_PUSHBYTES_65 04f5edf2a8e0758fc808ddbd56a3f00ad881428bbc6aec9a577576116047564d105b3ae1e720ada2477fef768a2e00c688a593520137829420028e329c76306771",
      "is_coinbase": false,
      "sequence": 4294967295
    },
    {
      "txid": "6173993a6341308d2c949a0c2b1290e0880e73c48fbbd929070d7575f56b85a9",
      "vout": 2,
      "prevout": {
        "scriptpubkey": "76a91470a10497b1038b7347cc4cc45f8f957216040dfd88ac",
        "scriptpubkey_asm": "OP_DUP OP_HASH160 OP_PUSHBYTES_20 70a10497b1038b7347cc4cc45f8f957216040dfd OP_EQUALVERIFY OP_CHECKSIG",
        "scriptpubkey_type": "p2pkh",
        "scriptpubkey_address": "1BGXaD3KaajXKtTAFKLXkF6KRepg6g9Vxg",
        "value": 136137
      },
      "scriptsig": "47304402203be472ef49231dd50741348b3e3c2e8f144a15f4ae74a722b6e401a555ea215e02201122618a61884469a5cf86087c161440ef3f25799ed457f14aa89a3255824d6c014104f5edf2a8e0758fc808ddbd56a3f00ad881428bbc6aec9a577576116047564d105b3ae1e720ada2477fef768a2e00c688a593520137829420028e329c76306771",
      "scriptsig_asm": "OP_PUSHBYTES_71 304402203be472ef49231dd50741348b3e3c2e8f144a15f4ae74a722b6e401a555ea215e02201122618a61884469a5cf86087c161440ef3f25799ed457f14aa89a3255824d6c01 OP_PUSHBYTES_65 04f5edf2a8e0758fc808ddbd56a3f00ad881428bbc6aec9a577576116047564d105b3ae1e720ada2477fef768a2e00c688a593520137829420028e329c76306771",
      "is_coinbase": false,
      "sequence": 4294967295
    },
    {
      "txid": "36a651f7fa37ce65fd2115701cad3e3ce759c6fb360ac5c23909e476f8629431",
      "vout": 1,
      "prevout": {
        "scriptpubkey": "76a91470a10497b1038b7347cc4cc45f8f957216040dfd88ac",
        "scriptpubkey_asm": "OP_DUP OP_HASH160 OP_PUSHBYTES_20 70a10497b1038b7347cc4cc45f8f957216040dfd OP_EQUALVERIFY OP_CHECKSIG",
        "scriptpubkey_type": "p2pkh",
        "scriptpubkey_address": "1BGXaD3KaajXKtTAFKLXkF6KRepg6g9Vxg",
        "value": 3691
      },
      "scriptsig": "483045022100b2ff332e388d2311d86463fb8e4cb4911ab59754cd8b0afcfa29795537739e2c022049852adb0e488ac61904f4d7657ab49b64584f977c79ddcd53b9a95639cb736e014104f5edf2a8e0758fc808ddbd56a3f00ad881428bbc6aec9a577576116047564d105b3ae1e720ada2477fef768a2e00c688a593520137829420028e329c76306771",
      "scriptsig_asm": "OP_PUSHBYTES_72 3045022100b2ff332e388d2311d86463fb8e4cb4911ab59754cd8b0afcfa29795537739e2c022049852adb0e488ac61904f4d7657ab49b64584f977c79ddcd53b9a95639cb736e01 OP_PUSHBYTES_65 04f5edf2a8e0758fc808ddbd56a3f00ad881428bbc6aec9a577576116047564d105b3ae1e720ada2477fef768a2e00c688a593520137829420028e329c76306771",
      "is_coinbase": false,
      "sequence": 4294967295
    },
    {
      "txid": "83efa1da3a425435485baad55724c0d55831712287e596c6e8a3f3f2edfc0cc4",
      "vout": 1,
      "prevout": {
        "scriptpubkey": "76a91470a10497b1038b7347cc4cc45f8f957216040dfd88ac",
        "scriptpubkey_asm": "OP_DUP OP_HASH160 OP_PUSHBYTES_20 70a10497b1038b7347cc4cc45f8f957216040dfd OP_EQUALVERIFY OP_CHECKSIG",
        "scriptpubkey_type": "p2pkh",
        "scriptpubkey_address": "1BGXaD3KaajXKtTAFKLXkF6KRepg6g9Vxg",
        "value": 1182
      },
      "scriptsig": "47304402205a3a785998e0412ed5c78002dc02707de70e13619ffa5b71d8f7ee6b0a47d2dc0220122b3bc7554184f08ca67292bda52ea48268d707135c05438083b715070cf05c014104f5edf2a8e0758fc808ddbd56a3f00ad881428bbc6aec9a577576116047564d105b3ae1e720ada2477fef768a2e00c688a593520137829420028e329c76306771",
      "scriptsig_asm": "OP_PUSHBYTES_71 304402205a3a785998e0412ed5c78002dc02707de70e13619ffa5b71d8f7ee6b0a47d2dc0220122b3bc7554184f08ca67292bda52ea48268d707135c05438083b715070cf05c01 OP_PUSHBYTES_65 04f5edf2a8e0758fc808ddbd56a3f00ad881428bbc6aec9a577576116047564d105b3ae1e720ada2477fef768a2e00c688a593520137829420028e329c76306771",
      "is_coinbase": false,
      "sequence": 4294967295
    },
    {
      "txid": "4114fbf3404e2c73069904d13bfb242a4307feb1f6e8c007126e3f9def8c03aa",
      "vout": 1,
      "prevout": {
        "scriptpubkey": "76a91470a10497b1038b7347cc4cc45f8f957216040dfd88ac",
        "scriptpubkey_asm": "OP_DUP OP_HASH160 OP_PUSHBYTES_20 70a10497b1038b7347cc4cc45f8f957216040dfd OP_EQUALVERIFY OP_CHECKSIG",
        "scriptpubkey_type": "p2pkh",
        "scriptpubkey_address": "1BGXaD3KaajXKtTAFKLXkF6KRepg6g9Vxg",
        "value": 576
      },
      "scriptsig": "47304402200cc4340827cc6c7fabe31ae4f1d5105586a21f0be5e25d97f0dc1b7c2a85764d02201d0eb321c9d8291499b069e78a6ef1e9826b9960a0c95391951fa5ffd7aeb586014104f5edf2a8e0758fc808ddbd56a3f00ad881428bbc6aec9a577576116047564d105b3ae1e720ada2477fef768a2e00c688a593520137829420028e329c76306771",
      "scriptsig_asm": "OP_PUSHBYTES_71 304402200cc4340827cc6c7fabe31ae4f1d5105586a21f0be5e25d97f0dc1b7c2a85764d02201d0eb321c9d8291499b069e78a6ef1e9826b9960a0c95391951fa5ffd7aeb58601 OP_PUSHBYTES_65 04f5edf2a8e0758fc808ddbd56a3f00ad881428bbc6aec9a577576116047564d105b3ae1e720ada2477fef768a2e00c688a593520137829420028e329c76306771",
      "is_coinbase": false,
      "sequence": 4294967295
    },
    {
      "txid": "fc0573a6fbdc665cee37127ceb978718f885aca8773bd859dbca1e01f3ce2bf7",
      "vout": 1,
      "prevout": {
        "scriptpubkey": "76a91470a10497b1038b7347cc4cc45f8f957216040dfd88ac",
        "scriptpubkey_asm": "OP_DUP OP_HASH160 OP_PUSHBYTES_20 70a10497b1038b7347cc4cc45f8f957216040dfd OP_EQUALVERIFY OP_CHECKSIG",
        "scriptpubkey_type": "p2pkh",
        "scriptpubkey_address": "1BGXaD3KaajXKtTAFKLXkF6KRepg6g9Vxg",
        "value": 570
      },
      "scriptsig": "4730440220594592ed6753efb4744b516d0d3384b5b289a06cba93e82173405e049522596602205cb61c52fa406fd98aaaa3fc63f11ca150257f04e1c0c6b92c9e6ce34da0e84a014104f5edf2a8e0758fc808ddbd56a3f00ad881428bbc6aec9a577576116047564d105b3ae1e720ada2477fef768a2e00c688a593520137829420028e329c76306771",
      "scriptsig_asm": "OP_PUSHBYTES_71 30440220594592ed6753efb4744b516d0d3384b5b289a06cba93e82173405e049522596602205cb61c52fa406fd98aaaa3fc63f11ca150257f04e1c0c6b92c9e6ce34da0e84a01 OP_PUSHBYTES_65 04f5edf2a8e0758fc808ddbd56a3f00ad881428bbc6aec9a577576116047564d105b3ae1e720ada2477fef768a2e00c688a593520137829420028e329c76306771",
      "is_coinbase": false,
      "sequence": 4294967295
    }
  ],
  "vout": [
    {
      "scriptpubkey": "76a9140cd3699a928b10cd6655b87cbcd37e19de294e4688ac",
      "scriptpubkey_asm": "OP_DUP OP_HASH160 OP_PUSHBYTES_20 0cd3699a928b10cd6655b87cbcd37e19de294e46 OP_EQUALVERIFY OP_CHECKSIG",
      "scriptpubkey_type": "p2pkh",
      "scriptpubkey_address": "12ApNW4R2g8X7Wq97a8HcfpNBTsf5wYhBX",
      "value": 302885
    },
    {
      "scriptpubkey": "76a91470a10497b1038b7347cc4cc45f8f957216040dfd88ac",
      "scriptpubkey_asm": "OP_DUP OP_HASH160 OP_PUSHBYTES_20 70a10497b1038b7347cc4cc45f8f957216040dfd OP_EQUALVERIFY OP_CHECKSIG",
      "scriptpubkey_type": "p2pkh",
      "scriptpubkey_address": "1BGXaD3KaajXKtTAFKLXkF6KRepg6g9Vxg",
      "value": 554
    }
  ],
  "size": 1154,
  "weight": 4616,
  "fee": 12558,
  "status": {
    "confirmed": true,
    "block_height": 834464,
    "block_hash": "0000000000000000000177a0869a911a2b65c9bdcd5a8bcb02b68f305bee848e",
    "block_time": 1710308296
  },
  "hex": "01000000061c542f58cd5d598e282b959d2173bbccd15c5f2cbdcf9f6665e979eef792b7c0000000008b483045022100e1fa227f599a8439054046e5addb31415af1ca22d52bed2639343b153aa9ef2202203add03875fe015fda5a25f55951ef4844562822ccaaed25fffff53c35e8aea1a014104f5edf2a8e0758fc808ddbd56a3f00ad881428bbc6aec9a577576116047564d105b3ae1e720ada2477fef768a2e00c688a593520137829420028e329c76306771ffffffffa9856bf575750d0729d9bb8fc4730e88e090122b0c9a942c8d3041633a997361020000008a47304402203be472ef49231dd50741348b3e3c2e8f144a15f4ae74a722b6e401a555ea215e02201122618a61884469a5cf86087c161440ef3f25799ed457f14aa89a3255824d6c014104f5edf2a8e0758fc808ddbd56a3f00ad881428bbc6aec9a577576116047564d105b3ae1e720ada2477fef768a2e00c688a593520137829420028e329c76306771ffffffff319462f876e40939c2c50a36fbc659e73c3ead1c701521fd65ce37faf751a636010000008b483045022100b2ff332e388d2311d86463fb8e4cb4911ab59754cd8b0afcfa29795537739e2c022049852adb0e488ac61904f4d7657ab49b64584f977c79ddcd53b9a95639cb736e014104f5edf2a8e0758fc808ddbd56a3f00ad881428bbc6aec9a577576116047564d105b3ae1e720ada2477fef768a2e00c688a593520137829420028e329c76306771ffffffffc40cfcedf2f3a3e8c696e58722713158d5c02457d5aa5b483554423adaa1ef83010000008a47304402205a3a785998e0412ed5c78002dc02707de70e13619ffa5b71d8f7ee6b0a47d2dc0220122b3bc7554184f08ca67292bda52ea48268d707135c05438083b715070cf05c014104f5edf2a8e0758fc808ddbd56a3f00ad881428bbc6aec9a577576116047564d105b3ae1e720ada2477fef768a2e00c688a593520137829420028e329c76306771ffffffffaa038cef9d3f6e1207c0e8f6b1fe07432a24fb3bd1049906732c4e40f3fb1441010000008a47304402200cc4340827cc6c7fabe31ae4f1d5105586a21f0be5e25d97f0dc1b7c2a85764d02201d0eb321c9d8291499b069e78a6ef1e9826b9960a0c95391951fa5ffd7aeb586014104f5edf2a8e0758fc808ddbd56a3f00ad881428bbc6aec9a577576116047564d105b3ae1e720ada2477fef768a2e00c688a593520137829420028e329c76306771fffffffff72bcef3011ecadb59d83b77a8ac85f8188797eb7c1237ee5c66dcfba67305fc010000008a4730440220594592ed6753efb4744b516d0d3384b5b289a06cba93e82173405e049522596602205cb61c52fa406fd98aaaa3fc63f11ca150257f04e1c0c6b92c9e6ce34da0e84a014104f5edf2a8e0758fc808ddbd56a3f00ad881428bbc6aec9a577576116047564d105b3ae1e720ada2477fef768a2e00c688a593520137829420028e329c76306771ffffffff02259f0400000000001976a9140cd3699a928b10cd6655b87cbcd37e19de294e4688ac2a020000000000001976a91470a10497b1038b7347cc4cc45f8f957216040dfd88ac00000000"
}