{
  "txid": "1960c5c74460bd4e6e0dd43ba6ce22b10566ee890b324a5accd6a55dce6b583a",
  "version": 2,
  "locktime": 834637,
  "vin": [
    {
      "txid": "0928d6f5e0515ac9f6fef896514713d686c07d4204e79d28270b4fb860afcf94",
      "vout": 0,
      "prevout": {
        "scriptpubkey": "0014cc869e55686d8d7b1dcb4c8c497480abce055e67",
        "scriptpubkey_asm": "OP_0 OP_PUSHBYTES_20 cc869e55686d8d7b1dcb4c8c497480abce055e67",
        "scriptpubkey_type": "v0_p2wpkh",
        "scriptpubkey_address": "bc1qejrfu4tgdkxhk8wtfjxyjayq408q2hn8u57els",
        "value": 24802078
      },
      "scriptsig": "",
      "scriptsig_asm": "",
      "witness": [
        "3044022028327875bbc9f071a238310111849f0b92645cba9398ea1688ff2ca561d7513c022070dc6cf26d8c1572b8eab40150f348cd17c5dccdd8fd02ced62346785be195dd01",
        "02216ac50f44fb3075c903acd54220dccc42a5871a130e25dd13e213d0c76acc91"
      ],
      "is_coinbase": false,
      "sequence": 4294967293
    },
    {
      "txid": "12941be96afb279e0f65984ffe1a46c64c0ae6b9c7794c2c83f066492bf68440",
      "vout": 0,
      "prevout": {
        "scriptpubkey": "0014cc869e55686d8d7b1dcb4c8c497480abce055e67",
        "scriptpubkey_asm": "OP_0 OP_PUSHBYTES_20 cc869e55686d8d7b1dcb4c8c497480abce055e67",
        "scriptpubkey_type": "v0_p2wpkh",
        "scriptpubkey_address": "bc1qejrfu4tgdkxhk8wtfjxyjayq408q2hn8u57els",
        "value": 12014812
      },
      "scriptsig": "",
      "scriptsig_asm": "",
      "witness": [
        "30440220754d7ecafe96889c8abda65e50b94ae8f3a95c2afa423cd95bb0571b8fbd2ead02202cfbade33812b0708b94f5bbe1ad26233cb20604afea0c43134765bbfda0858201",
        "02216ac50f44fb3075c903acd54220dccc42a5871a130e25dd13e213d0c76acc91"
      ],
      "is_coinbase": false,
      "sequence": 4294967293
    },
    {
      "txid": "134d0ba09824016be07a3980c839af128948dc4a7387410a42e94d6d958f9812",
      "vout": 0,
      "prevout": {
        "scriptpubkey": "0014cc869e55686d8d7b1dcb4c8c497480abce055e67",
        "scriptpubkey_asm": "OP_0 OP_PUSHBYTES_20 cc869e55686d8d7b1dcb4c8c497480abce055e67",
        "scriptpubkey_type": "v0_p2wpkh",
        "scriptpubkey_address": "bc1qejrfu4tgdkxhk8wtfjxyjayq408q2hn8u57els",
        "value": 14758630
      },
      "scriptsig": "",
      "scriptsig_asm": "",
      "witness": [
        "30440220607d70ac9a8d28a28cd95204df6f12bc75f7e78b51994a6b13089986056e4bea02206f149e76f0967e8c16cbd2f0b047079b6c3bf078b6872e4eb17c4fae4e3b4afa01",
        "02216ac50f44fb3075c903acd54220dccc42a5871a130e25dd13e213d0c76acc91"
      ],
      "is_coinbase": false,
      "sequence": 4294967293
    },
    {
      "txid": "3f5bef4980fec7970d341e50d2ac7b7a776b07a8516aef10b0c422ed39cae5c4",
      "vout": 0,
      "prevout": {
        "scriptpubkey": "0014cc869e55686d8d7b1dcb4c8c497480abce055e67",
        "scriptpubkey_asm": "OP_0 OP_PUSHBYTES_20 cc869e55686d8d7b1dcb4c8c497480abce055e67",
        "scriptpubkey_type": "v0_p2wpkh",
        "scriptpubkey_address": "bc1qejrfu4tgdkxhk8wtfjxyjayq408q2hn8u57els",
        "value": 2184638
      },
      "scriptsig": "",
      "scriptsig_asm": "",
      "witness": [
        "3044022021c46f57d7980f0cd67fd40df7fbc33b203e0c04c13b2550be49c7621e602e250220723e780c4d1dd933d60e1e85398d4050bd36aca2157898879c8f31726a97fb0001",
        "02216ac50f44fb3075c903acd54220dccc42a5871a130e25dd13e213d0c76acc91"
      ],
      "is_coinbase": false,
      "sequence": 4294967293
    },
    {
      "txid": "5ebe835f3d94649f07827e99829b02bd9a97a0acb9b9de83508b31d4c9324419",
      "vout": 0,
      "prevout": {
        "scriptpubkey": "0014cc869e55686d8d7b1dcb4c8c497480abce055e67",
        "scriptpubkey_asm": "OP_0 OP_PUSHBYTES_20 cc869e55686d8d7b1dcb4c8c497480abce055e67",
        "scriptpubkey_type": "v0_p2wpkh",
        "scriptpubkey_address": "bc1qejrfu4tgdkxhk8wtfjxyjayq408q2hn8u57els",
        "value": 2467697
      },
      "scriptsig": "",
      "scriptsig_asm": "",
      "witness": [
        "304402204d6c1a289aaea16f07f6619cd94363c3e0c142aa628d860376a39ec2af284e960220771261117399c00ab07635d66c7414d88d76891dc067b7964daf28792e002dc901",
        "02216ac50f44fb3075c903acd54220dccc42a5871a130e25dd13e213d0c76acc91"
      ],
      "is_coinbase": false,
      "sequence": 4294967293
    },
    {
      "txid": "6b3626a57925ae2eb46a79911f5ad2df4acba8e2b64e16e78b7ed9e05008a8d8",
      "vout": 0,
      "prevout": {
        "scriptpubkey": "0014cc869e55686d8d7b1dcb4c8c497480abce055e67",
        "scriptpubkey_asm": "OP_0 OP_PUSHBYTES_20 cc869e55686d8d7b1dcb4c8c497480abce055e67",
        "scriptpubkey_type": "v0_p2wpkh",
        "scriptpubkey_address": "bc1qejrfu4tgdkxhk8wtfjxyjayq408q2hn8u57els",
        "value": 7850318
      },
      "scriptsig": "",
      "scriptsig_asm": "",
      "witness": [
        "304402205415a48df1756bf1243a488ed9b4071b5daba7b028f4aeb2ad5ba36cccff731c022065e31655aaa98452310341fdee3c6782726873bb5fe40a6c5282270a06a38f0201",
        "02216ac50f44fb3075c903acd54220dccc42a5871a130e25dd13e213d0c76acc91"
      ],
      "is_coinbase": false,
      "sequence": 4294967293
    },
    {
      "txid": "7cd747518d86b57d222aee26e3678ce59fc8e5b4a4ef30358f9adb8992f095be",
      "vout": 0,
      "prevout": {
        "scriptpubkey": "0014cc869e55686d8d7b1dcb4c8c497480abce055e67",
        "scriptpubkey_asm": "OP_0 OP_PUSHBYTES_20 cc869e55686d8d7b1dcb4c8c497480abce055e67",
        "scriptpubkey_type": "v0_p2wpkh",
        "scriptpubkey_address": "bc1qejrfu4tgdkxhk8wtfjxyjayq408q2hn8u57els",
        "value": 24872084
      },
      "scriptsig": "",
      "scriptsig_asm": "",
      "witness": [
        "304402204735e1c21e4174cbd37881424cb63b7bc41ec1a658b91726ccc88d8e2a009f95022076e1cccdf54d5272b4626a0f2e0fe2df38361af399bbab811dce4388a02da4ae01",
        "02216ac50f44fb3075c903acd54220dccc42a5871a130e25dd13e213d0c76acc91"
      ],
      "is_coinbase": false,
      "sequence": 4294967293
    },
    {
      "txid": "7fcdbc3c9066c81d1f664b3b163d8afd6849fae64e7c40a498d00f8f0e0cb655",
      "vout": 0,
      "prevout": {
        "scriptpubkey": "0014cc869e55686d8d7b1dcb4c8c497480abce055e67",
        "scriptpubkey_asm": "OP_0 OP_PUSHBYTES_20 cc869e55686d8d7b1dcb4c8c497480abce055e67",
        "scriptpubkey_type": "v0_p2wpkh",
        "scriptpubkey_address": "bc1qejrfu4tgdkxhk8wtfjxyjayq408q2hn8u57els",
        "value": 26997090
      },
      "scriptsig": "",
      "scriptsig_asm": "",
      "witness": [
        "30440220462b5d4107b750a8e7e4fab61cac93908b4c398366249e3b5057c5aee6631992022036941c882ac28ac171e19750d02ec98c7c9bee5e872a50ae08d7893eca55218c01",
        "02216ac50f44fb3075c903acd54220dccc42a5871a130e25dd13e213d0c76acc91"
      ],
      "is_coinbase": false,
      "sequence": 4294967293
    },
    {
      "txid": "81bc9fbe98f34fde6bdb5adc06341810dc6eab081265f7716abf6f7e3e5d3fd6",
      "vout": 0,
      "prevout": {
        "scriptpubkey": "0014cc869e55686d8d7b1dcb4c8c497480abce055e67",
        "scriptpubkey_asm": "OP_0 OP_PUSHBYTES_20 cc869e55686d8d7b1dcb4c8c497480abce055e67",
        "scriptpubkey_type": "v0_p2wpkh",
        "scriptpubkey_address": "bc1qejrfu4tgdkxhk8wtfjxyjayq408q2hn8u57els",
        "value": 2763812
      },
      "scriptsig": "",
      "scriptsig_asm": "",
      "witness": [
        "30440220211afe32b88fac6cccd4bbb3b23f32e9727f52f913c3900debba36c9abcd1c9902204a219c88ad77367b8b57113916ed540389a77aec36636b413f20ea04747266cf01",
        "02216ac50f44fb3075c903acd54220dccc42a5871a130e25dd13e213d0c76acc91"
      ],
      "is_coinbase": false,
      "sequence": 4294967293
    },
    {
      "txid": "9140ab44f841bad2fe8d01066b22735dbea6af3752c2decc64775c0a5024948a",
      "vout": 0,
      "prevout": {
        "scriptpubkey": "0014cc869e55686d8d7b1dcb4c8c497480abce055e67",
        "scriptpubkey_asm": "OP_0 OP_PUSHBYTES_20 cc869e55686d8d7b1dcb4c8c497480abce055e67",
        "scriptpubkey_type": "v0_p2wpkh",
        "scriptpubkey_address": "bc1qejrfu4tgdkxhk8wtfjxyjayq408q2hn8u57els",
        "value": 3701812
      },
      "scriptsig": "",
      "scriptsig_asm": "",
      "witness": [
        "3044022037e0ee3651513e9fcbe21c82270cba5f9827d006e965005bd721aa51518a650002200cba9696503862fbad5e77b5dec3ffa46efd2f7f0894ce93e261ebdef81585c201",
        "02216ac50f44fb3075c903acd54220dccc42a5871a130e25dd13e213d0c76acc91"
      ],
      "is_coinbase": false,
      "sequence": 4294967293
    },
    {
      "txid": "930778fd0394589a6b2d1474810a2fa0bb467f3ef8a3d71c7c810c62d57edab4",
      "vout": 0,
      "prevout": {
        "scriptpubkey": "0014cc869e55686d8d7b1dcb4c8c497480abce055e67",
        "scriptpubkey_asm": "OP_0 OP_PUSHBYTES_20 cc869e55686d8d7b1dcb4c8c497480abce055e67",
        "scriptpubkey_type": "v0_p2wpkh",
        "scriptpubkey_address": "bc1qejrfu4tgdkxhk8wtfjxyjayq408q2hn8u57els",
        "value": 7757438
      },
      "scriptsig": "",
      "scriptsig_asm": "",
      "witness": [
        "30440220258d0c0ebdf5445c48ba503451aea2215d45294b4f461d6c255fe9ffddc1f3bc02206fbf7e84db1eee248c0c2c9822687e3d9402ea0d752838b88a31f7f1e113a05201",
        "02216ac50f44fb3075c903acd54220dccc42a5871a130e25dd13e213d0c76acc91"
      ],
      "is_coinbase": false,
      "sequence": 4294967293
    },
    {
      "txid": "9cc69643180ec97e85e2cfa1ee0584e555632886c7ff5225714ac8787352f199",
      "vout": 0,
      "prevout": {
        "scriptpubkey": "0014cc869e55686d8d7b1dcb4c8c497480abce055e67",
        "scriptpubkey_asm": "OP_0 OP_PUSHBYTES_20 cc869e55686d8d7b1dcb4c8c497480abce055e67",
        "scriptpubkey_type": "v0_p2wpkh",
        "scriptpubkey_address": "bc1qejrfu4tgdkxhk8wtfjxyjayq408q2hn8u57els",
        "value": 2962948
      },
      "scriptsig": "",
      "scriptsig_asm": "",
      "witness": [
        "304402200569136496b3df2c8ac11d9160bda621bc16e3cd55b65f34ba967dc437b3d5f902201a56248a5969b53b67ecf6031561c4415b1429b7bd7b696a28452d5eb4c4976001",
        "02216ac50f44fb3075c903acd54220dccc42a5871a130e25dd13e213d0c76acc91"
      ],
      "is_coinbase": false,
      "sequence": 4294967293
    },
    {
      "txid": "ba0dca85ac61e4239f65c94ee8315e2d95cf15f3f25f7e27541b633d629a4a6d",
      "vout": 0,
      "prevout": {
        "scriptpubkey": "0014cc869e55686d8d7b1dcb4c8c497480abce055e67",
        "scriptpubkey_asm": "OP_0 OP_PUSHBYTES_20 cc869e55686d8d7b1dcb4c8c497480abce055e67",
        "scriptpubkey_type": "v0_p2wpkh",
        "scriptpubkey_address": "bc1qejrfu4tgdkxhk8wtfjxyjayq408q2hn8u57els",
        "value": 4076660
      },
      "scriptsig": "",
      "scriptsig_asm": "",
      "witness": [
        "304402202c2ca530ad604874919d7b54f11f1e1d27ab846e53255f5422757d4ba0f132610220030bd92209796551c0fc2ec26f088729c08479e34831164822c8d54c5c6abc7901",
        "02216ac50f44fb3075c903acd54220dccc42a5871a130e25dd13e213d0c76acc91"
      ],
      "is_coinbase": false,
      "sequence": 4294967293
    },
    {
      "txid": "bc2d2d9a8c9b30dcae62a70c9b05ecf6beef791711712cba41255cc11b9ec909",
      "vout": 0,
      "prevout": {
        "scriptpubkey": "0014cc869e55686d8d7b1dcb4c8c497480abce055e67",
        "scriptpubkey_asm": "OP_0 OP_PUSHBYTES_20 cc869e55686d8d7b1dcb4c8c497480abce055e67",
        "scriptpubkey_type": "v0_p2wpkh",
        "scriptpubkey_address": "bc1qejrfu4tgdkxhk8wtfjxyjayq408q2hn8u57els",
        "value": 4374992
      },
      "scriptsig": "",
      "scriptsig_asm": "",
      "witness": [
        "30440220120f6f8887e39ee84421913c193d75ea13b8b56900d568821c24cecefb3501fb02207ac15b633ad1ba92f616a131a0fea3f0147ea4b24db0ac07140d4f299e9bff2901",
        "02216ac50f44fb3075c903acd54220dccc42a5871a130e25dd13e213d0c76acc91"
      ],
      "is_coinbase": false,
      "sequence": 4294967293
    },
    {
      "txid": "c1bb3b7c51bb424e8abeb18adb8ff2778ae0e877d7b6c69ce0e08bb947139e9a",
      "vout": 0,
      "prevout": {
        "scriptpubkey": "0014cc869e55686d8d7b1dcb4c8c497480abce055e67",
        "scriptpubkey_asm": "OP_0 OP_PUSHBYTES_20 cc869e55686d8d7b1dcb4c8c497480abce055e67",
        "scriptpubkey_type": "v0_p2wpkh",
        "scriptpubkey_address": "bc1qejrfu4tgdkxhk8wtfjxyjayq408q2hn8u57els",
        "value": 709812
      },
      "scriptsig": "",
      "scriptsig_asm": "",
      "witness": [
        "30440220736ab0d5a7238f49e8429967a3abed53fd6394eb68acdc99155ae8a13fa91f5d02205706e191b2ceb9f2553c8bef1fbc819035919169e7b9eaa2058c8ee6bf30b4c701",
        "02216ac50f44fb3075c903acd54220dccc42a5871a130e25dd13e213d0c76acc91"
      ],
      "is_coinbase": false,
      "sequence": 4294967293
    },
    {
      "txid": "ce1af3ce15c9e5e008b8bc2adde428693c827c7cf9a842ae8a5e5b7eb50b5df1",
      "vout": 0,
      "prevout": {
        "scriptpubkey": "0014cc869e55686d8d7b1dcb4c8c497480abce055e67",
        "scriptpubkey_asm": "OP_0 OP_PUSHBYTES_20 cc869e55686d8d7b1dcb4c8c497480abce055e67",
        "scriptpubkey_type": "v0_p2wpkh",
        "scriptpubkey_address": "bc1qejrfu4tgdkxhk8wtfjxyjayq408q2hn8u57els",
        "value": 2453812
      },
      "scriptsig": "",
      "scriptsig_asm": "",
      "witness": [
        "3044022065fa8ae4ae0db929eb99ecade224d86ce70994fcb4e51590993a0e523c0b002902205856fe64bcc647022b5796248867936e73f239510bb004717d4489c5e9c4e41201",
        "02216ac50f44fb3075c903acd54220dccc42a5871a130e25dd13e213d0c76acc91"
      ],
      "is_coinbase": false,
      "sequence": 4294967293
    },
    {
      "txid": "d256fad6b8a9a408a26ff03a5854d64c98bcee1bbca060419ed280d68c43d38d",
      "vout": 0,
      "prevout": {
        "scriptpubkey": "0014cc869e55686d8d7b1dcb4c8c497480abce055e67",
        "scriptpubkey_asm": "OP_0 OP_PUSHBYTES_20 cc869e55686d8d7b1dcb4c8c497480abce055e67",
        "scriptpubkey_type": "v0_p2wpkh",
        "scriptpubkey_address": "bc1qejrfu4tgdkxhk8wtfjxyjayq408q2hn8u57els",
        "value": 38037207
      },
      "scriptsig": "",
      "scriptsig_asm": "",
      "witness": [
        "304402200990ebe3ce8f6870849c24d59d49911c73e45374869ad783247dce551e34c9710220250ff6df038c9ee2e4325c8a6bc9eb6197df4c7f0ab35a719532f9b5bda89c1a01",
        "02216ac50f44fb3075c903acd54220dccc42a5871a130e25dd13e213d0c76acc91"
      ],
      "is_coinbase": false,
      "sequence": 4294967293
    },
    {
      "txid": "d541d8fe0024039827834f553a937b2d4fffc1fbcfdf7093b3e535e7d37b3dfa",
      "vout": 0,
      "prevout": {
        "scriptpubkey": "0014cc869e55686d8d7b1dcb4c8c497480abce055e67",
        "scriptpubkey_asm": "OP_0 OP_PUSHBYTES_20 cc869e55686d8d7b1dcb4c8c497480abce055e67",
        "scriptpubkey_type": "v0_p2wpkh",
        "scriptpubkey_address": "bc1qejrfu4tgdkxhk8wtfjxyjayq408q2hn8u57els",
        "value": 21930856
      },
      "scriptsig": "",
      "scriptsig_asm": "",
      "witness": [
        "304402207ec1d252a794720a1fd93a3d7186849f7e1f6b0faf65b1af980a7b16b0aad5c002204dc8e0c9f891944d6f87ef0b0ac0b5311aaef6e94f84866e03332ac766019ef601",
        "02216ac50f44fb3075c903acd54220dccc42a5871a130e25dd13e213d0c76acc91"
      ],
      "is_coinbase": false,
      "sequence": 4294967293
    },
    {
      "txid": "eec5d9724afb0c41db6806f4a7a87d2320f866385bd4bba9b5419a139b77e5da",
      "vout": 0,
      "prevout": {
        "scriptpubkey": "0014cc869e55686d8d7b1dcb4c8c497480abce055e67",
        "scriptpubkey_asm": "OP_0 OP_PUSHBYTES_20 cc869e55686d8d7b1dcb4c8c497480abce055e67",
        "scriptpubkey_type": "v0_p2wpkh",
        "scriptpubkey_address": "bc1qejrfu4tgdkxhk8wtfjxyjayq408q2hn8u57els",
        "value": 1656412
      },
      "scriptsig": "",
      "scriptsig_asm": "",
      "witness": [
        "30440220313ce1e9215d0d1b401467c1c34a28a4b1930bff04e86418b4e05edcfaeae6b2022063f1ce5ad32bb27c15efcf5f1807969e3627ba6b4fdac5bb3aa9fa3612020bff01",
        "02216ac50f44fb3075c903acd54220dccc42a5871a130e25dd13e213d0c76acc91"
      ],
      "is_coinbase": false,
      "sequence": 4294967293
    },
    {
      "txid": "fb806eff6badce94cd0123e57f6e1b50a080d94a0928a4287a976faa122b2b21",
      "vout": 0,
      "prevout": {
        "scriptpubkey": "0014cc869e55686d8d7b1dcb4c8c497480abce055e67",
        "scriptpubkey_asm": "OP_0 OP_PUSHBYTES_20 cc869e55686d8d7b1dcb4c8c497480abce055e67",
        "scriptpubkey_type": "v0_p2wpkh",
        "scriptpubkey_address": "bc1qejrfu4tgdkxhk8wtfjxyjayq408q2hn8u57els",
        "value": 29455578
      },
      "scriptsig": "",
      "scriptsig_asm": "",
      "witness": [
        "3044022038ca916285961630d7ea3ad544094dd0c8f9ec049068ef7707d41f521606ce7c0220622ab24ff5f677d7694e4a02d39398c1f9011bc1cc64770329f2fcf9caf36fc401",
        "02216ac50f44fb3075c903acd54220dccc42a5871a130e25dd13e213d0c76acc91"
      ],
      "is_coinbase": false,
      "sequence": 4294967293
    }
  ],
  "vout": [
    {
      "scriptpubkey": "0014af6f2ac1c70ace406db5121559d47a48ac4bedfc",
      "scriptpubkey_asm": "OP_0 OP_PUSHBYTES_20 af6f2ac1c70ace406db5121559d47a48ac4bedfc",
      "scriptpubkey_type": "v0_p2wpkh",
      "scriptpubkey_address": "bc1q4ahj4sw8pt8yqmd4zg24n4r6fzkyhm0uqgfnhy",
      "value": 50000000
    },
    {
      "scriptpubkey": "0014c051e54385a805b928c569a2953e2d60d34b09a6",
      "scriptpubkey_asm": "OP_0 OP_PUSHBYTES_20 c051e54385a805b928c569a2953e2d60d34b09a6",
      "scriptpubkey_type": "v0_p2wpkh",
      "scriptpubkey_address": "bc1qcpg72su94qzmj2x9dx3f203dvrf5kzdxruttxl",
      "value": 185770600
    }
  ],
  "size": 3034,
  "weight": 5710,
  "fee": 58086,
  "status": {
    "confirmed": true,
    "block_height": 834638,
    "block_hash": "000000000000000000025f742c626208ac87e0b7d15054abb4a19ca2d735a54e",
    "block_time": 1710405325
  },
  "hex": "0200000000011494cfaf60b84f0b27289de704427dc086d613475196f8fef6c95a51e0f5d628090000000000fdffffff4084f62b4966f0832c4c79c7b9e60a4cc6461afe4f98650f9e27fb6ae91b94120000000000fdffffff12988f956d4de9420a4187734adc488912af39c880397ae06b012498a00b4d130000000000fdffffffc4e5ca39ed22c4b010ef6a51a8076b777a7bacd2501e340d97c7fe8049ef5b3f0000000000fdffffff194432c9d4318b5083deb9b9aca0979abd029b82997e82079f64943d5f83be5e0000000000fdffffffd8a80850e0d97e8be7164eb6e2a8cb4adfd25a1f91796ab42eae2579a526366b0000000000fdffffffbe95f09289db9a8f3530efa4b4e5c89fe58c67e326ee2a227db5868d5147d77c0000000000fdffffff55b60c0e8f0fd098a4407c4ee6fa4968fd8a3d163b4b661f1dc866903cbccd7f0000000000fdffffffd63f5d3e7e6fbf6a71f7651208ab6edc10183406dc5adb6bde4ff398be9fbc810000000000fdffffff8a9424500a5c7764ccdec25237afa6be5d73226b06018dfed2ba41f844ab40910000000000fdffffffb4da7ed5620c817c1cd7a3f83e7f46bba02f0a8174142d6b9a589403fd7807930000000000fdffffff99f1527378c84a712552ffc786286355e58405eea1cfe2857ec90e184396c69c0000000000fdffffff6d4a9a623d631b54277e5ff2f315cf952d5e31e84ec9659f23e461ac85ca0dba0000000000fdffffff09c99e1bc15c2541ba2c71111779efbef6ec059b0ca762aedc309b8c9a2d2dbc0000000000fdffffff9a9e1347b98be0e09cc6b6d777e8e08a77f28fdb8ab1be8a4e42bb517c3bbbc10000000000fdfffffff15d0bb57e5b5e8aae42a8f97c7c823c6928e4dd2abcb808e0e5c915cef31ace0000000000fdffffff8dd3438cd680d29e4160a0bc1beebc984cd654583af06fa208a4a9b8d6fa56d20000000000fdfffffffa3d7bd3e735e5b39370dfcffbc1ff4f2d7b933a554f832798032400fed841d50000000000fdffffffdae5779b139a41b5a9bbd45b3866f820237da8a7f40668db410cfb4a72d9c5ee0000000000fdffffff212b2b12aa6f977a28a428094ad980a0501b6e7fe52301cd94cead6bff6e80fb0000000000fdffffff0280f0fa0200000000160014af6f2ac1c70ace406db5121559d47a48ac4bedfc68a2120b00000000160014c051e54385a805b928c569a2953e2d60d34b09a602473044022028327875bbc9f071a238310111849f0b92645cba9398ea1688ff2ca561d7513c022070dc6cf26d8c1572b8eab40150f348cd17c5dccdd8fd02ced62346785be195dd012102216ac50f44fb3075c903acd54220dccc42a5871a130e25dd13e213d0c76acc91024730440220754d7ecafe96889c8abda65e50b94ae8f3a95c2afa423cd95bb0571b8fbd2ead02202cfbade33812b0708b94f5bbe1ad26233cb20604afea0c43134765bbfda08582012102216ac50f44fb3075c903acd54220dccc42a5871a130e25dd13e213d0c76acc91024730440220607d70ac9a8d28a28cd95204df6f12bc75f7e78b51994a6b13089986056e4bea02206f149e76f0967e8c16cbd2f0b047079b6c3bf078b6872e4eb17c4fae4e3b4afa012102216ac50f44fb3075c903acd54220dccc42a5871a130e25dd13e213d0c76acc9102473044022021c46f57d7980f0cd67fd40df7fbc33b203e0c04c13b2550be49c7621e602e250220723e780c4d1dd933d60e1e85398d4050bd36aca2157898879c8f31726a97fb00012102216ac50f44fb3075c903acd54220dccc42a5871a130e25dd13e213d0c76acc910247304402204d6c1a289aaea16f07f6619cd94363c3e0c142aa628d860376a39ec2af284e960220771261117399c00ab07635d66c7414d88d76891dc067b7964daf28792e002dc9012102216ac50f44fb3075c903acd54220dccc42a5871a130e25dd13e213d0c76acc910247304402205415a48df1756bf1243a488ed9b4071b5daba7b028f4aeb2ad5ba36cccff731c022065e31655aaa98452310341fdee3c6782726873bb5fe40a6c5282270a06a38f02012102216ac50f44fb3075c903acd54220dccc42a5871a130e25dd13e213d0c76acc910247304402204735e1c21e4174cbd37881424cb63b7bc41ec1a658b91726ccc88d8e2a009f95022076e1cccdf54d5272b4626a0f2e0fe2df38361af399bbab811dce4388a02da4ae012102216ac50f44fb3075c903acd54220dccc42a5871a130e25dd13e213d0c76acc91024730440220462b5d4107b750a8e7e4fab61cac93908b4c398366249e3b5057c5aee6631992022036941c882ac28ac171e19750d02ec98c7c9bee5e872a50ae08d7893eca55218c012102216ac50f44fb3075c903acd54220dccc42a5871a130e25dd13e213d0c76acc91024730440220211afe32b88fac6cccd4bbb3b23f32e9727f52f913c3900debba36c9abcd1c9902204a219c88ad77367b8b57113916ed540389a77aec36636b413f20ea04747266cf012102216ac50f44fb3075c903acd54220dccc42a5871a130e25dd13e213d0c76acc9102473044022037e0ee3651513e9fcbe21c82270cba5f9827d006e965005bd721aa51518a650002200cba9696503862fbad5e77b5dec3ffa46efd2f7f0894ce93e261ebdef81585c2012102216ac50f44fb3075c903acd54220dccc42a5871a130e25dd13e213d0c76acc91024730440220258d0c0ebdf5445c48ba503451aea2215d45294b4f461d6c255fe9ffddc1f3bc02206fbf7e84db1eee248c0c2c9822687e3d9402ea0d752838b88a31f7f1e113a052012102216ac50f44fb3075c903acd54220dccc42a5871a130e25dd13e213d0c76acc910247304402200569136496b3df2c8ac11d9160bda621bc16e3cd55b65f34ba967dc437b3d5f902201a56248a5969b53b67ecf6031561c4415b1429b7bd7b696a28452d5eb4c49760012102216ac50f44fb3075c903acd54220dccc42a5871a130e25dd13e213d0c76acc910247304402202c2ca530ad604874919d7b54f11f1e1d27ab846e53255f5422757d4ba0f132610220030bd92209796551c0fc2ec26f088729c08479e34831164822c8d54c5c6abc79012102216ac50f44fb3075c903acd54220dccc42a5871a130e25dd13e213d0c76acc91024730440220120f6f8887e39ee84421913c193d75ea13b8b56900d568821c24cecefb3501fb02207ac15b633ad1ba92f616a131a0fea3f0147ea4b24db0ac07140d4f299e9bff29012102216ac50f44fb3075c903acd54220dccc42a5871a130e25dd13e213d0c76acc91024730440220736ab0d5a7238f49e8429967a3abed53fd6394eb68acdc99155ae8a13fa91f5d02205706e191b2ceb9f2553c8bef1fbc819035919169e7b9eaa2058c8ee6bf30b4c7012102216ac50f44fb3075c903acd54220dccc42a5871a130e25dd13e213d0c76acc9102473044022065fa8ae4ae0db929eb99ecade224d86ce70994fcb4e51590993a0e523c0b002902205856fe64bcc647022b5796248867936e73f239510bb004717d4489c5e9c4e412012102216ac50f44fb3075c903acd54220dccc42a5871a130e25dd13e213d0c76acc910247304402200990ebe3ce8f6870849c24d59d49911c73e45374869ad783247dce551e34c9710220250ff6df038c9ee2e4325c8a6bc9eb6197df4c7f0ab35a719532f9b5bda89c1a012102216ac50f44fb3075c903acd54220dccc42a5871a130e25dd13e213d0c76acc910247304402207ec1d252a794720a1fd93a3d7186849f7e1f6b0faf65b1af980a7b16b0aad5c002204dc8e0c9f891944d6f87ef0b0ac0b5311aaef6e94f84866e03332ac766019ef6012102216ac50f44fb3075c903acd54220dccc42a5871a130e25dd13e213d0c76acc91024730440220313ce1e9215d0d1b401467c1c34a28a4b1930bff04e86418b4e05edcfaeae6b2022063f1ce5ad32bb27c15efcf5f1807969e3627ba6b4fdac5bb3aa9fa3612020bff012102216ac50f44fb3075c903acd54220dccc42a5871a130e25dd13e213d0c76acc9102473044022038ca916285961630d7ea3ad544094dd0c8f9ec049068ef7707d41f521606ce7c0220622ab24ff5f677d7694e4a02d39398c1f9011bc1cc64770329f2fcf9caf36fc4012102216ac50f44fb3075c903acd54220dccc42a5871a130e25dd13e213d0c76acc914dbc0c00"
}