{
  "txid": "1972942d34f8ab8bcf1cf32ef039a82f3c64c3705d88839b1407584d203c2b49",
  "version": 1,
  "locktime": 0,
  "vin": [
    {
      "txid": "85191581505bba5048b1a6ae39a1e3adf65b5f38018406f0d5563cbf51e534c5",
      "vout": 0,
      "prevout": {
        "scriptpubkey": "5120afabe64c64b02761c80f068a3000ecd8eadb2f0ea5ef7281bb42cb7056b3ce1a",
        "scriptpubkey_asm": "OP_PUSHNUM_1 OP_PUSHBYTES_32 afabe64c64b02761c80f068a3000ecd8eadb2f0ea5ef7281bb42cb7056b3ce1a",
        "scriptpubkey_type": "v1_p2tr",
        "scriptpubkey_address": "bc1p4747vnrykqnkrjq0q69rqq8vmr4dktcw5hhh9qdmgt9hq44necdq5w03u2",
        "value": 3344
      },
      "scriptsig": "",
      "scriptsig_asm": "",
      "witness": [
        "3ef4498b2be5497cf83106c9bd86dbe34a7a64b2f3220ad4b5038f4f3714d58ec0ff506789e141514bfd8f5ccee0a94a7712614f1f83c097cb2526c52acec6e183",
        "20be11f1d0580232188e877ef283eb5a1efd4e9e5290a2633605d666f59ad3fff2ac00630461746f6d036e66743ca16461726773a468626974776f726b6364383531396d726571756573745f7265616c6d63e8b5b5656e6f6e63651a005471ad6474696d651a65f1373068",
        "c1be11f1d0580232188e877ef283eb5a1efd4e9e5290a2633605d666f59ad3fff2"
      ],
      "is_coinbase": false,
      "sequence": 4294967293
    }
  ],
  "vout": [
    {
      "scriptpubkey": "51209d6dbbf9bad17d0135e06ea56ec304df985f9f9bc809fa52ae6789a0947e0300",
      "scriptpubkey_asm": "OP_PUSHNUM_1 OP_PUSHBYTES_32 9d6dbbf9bad17d0135e06ea56ec304df985f9f9bc809fa52ae6789a0947e0300",
      "scriptpubkey_type": "v1_p2tr",
      "scriptpubkey_address": "bc1pn4kmh7d6697szd0qd6jkascym7v9l8umeqyl554wv7y6p9r7qvqquzkndh",
      "value": 1000
    }
  ],
  "size": 305,
  "weight": 587,
  "fee": 2344,
  "status": {
    "confirmed": true,
    "block_height": 834460,
    "block_hash": "00000000000000000000484a79b643b2524bbce82e5d8a442013fa5b8905ed98",
    "block_time": 1710307468
  },
  "hex": "01000000000101c534e551bf3c56d5f0068401385f5bf6ade3a139aea6b14850ba5b50811519850000000000fdffffff01e8030000000000002251209d6dbbf9bad17d0135e06ea56ec304df985f9f9bc809fa52ae6789a0947e030003413ef4498b2be5497cf83106c9bd86dbe34a7a64b2f3220ad4b5038f4f3714d58ec0ff506789e141514bfd8f5ccee0a94a7712614f1f83c097cb2526c52acec6e1836b20be11f1d0580232188e877ef283eb5a1efd4e9e5290a2633605d666f59ad3fff2ac00630461746f6d036e66743ca16461726773a468626974776f726b6364383531396d726571756573745f7265616c6d63e8b5b5656e6f6e63651a005471ad6474696d651a65f137306821c1be11f1d0580232188e877ef283eb5a1efd4e9e5290a2633605d666f59ad3fff200000000"
}