{
  "txid": "198fe38e4de28af59069a6d6df1543487694e5c7075c7bcab9534394e6d44160",
  "version": 1,
  "locktime": 0,
  "vin": [
    {
      "txid": "279602c64c3357ca558454b927d74b578ff889c881dc2db6fddaaa3438672b90",
      "vout": 1,
      "prevout": {
        "scriptpubkey": "76a914fb5848ded007e349cbccfae3e914652271ec142988ac",
        "scriptpubkey_asm": "OP_DUP OP_HASH160 OP_PUSHBYTES_20 fb5848ded007e349cbccfae3e914652271ec1429 OP_EQUALVERIFY OP_CHECKSIG",
        "scriptpubkey_type": "p2pkh",
        "scriptpubkey_address": "1PuzNGvEbDqJjJxd8fSBPiCoex7cvwfGVA",
        "value": 184987479
      },
      "scriptsig": "4730440220201e6a9609c1d9a61501441abb726181d53e7b5ecc04194590745e929f51c6c90220095b0b9f2aac2795674976f0fe1c93636931ca3c7ecebbd1992f4f300c600c7e012103f140cb7706d74fb7a1cd9425b0bdf75ee63b75b68b449730d031b9e1e2ffdb07",
      "scriptsig_asm": "OP_PUSHBYTES_71 30440220201e6a9609c1d9a61501441abb726181d53e7b5ecc04194590745e929f51c6c90220095b0b9f2aac2795674976f0fe1c93636931ca3c7ecebbd1992f4f300c600c7e01 OP_PUSHBYTES_33 03f140cb7706d74fb7a1cd9425b0bdf75ee63b75b68b449730d031b9e1e2ffdb07",
      "is_coinbase": false,
      "sequence": 4294967295
    }
  ],
  "vout": [
    {
      "scriptpubkey": "76a914ec823e145fdae4984ced7de1374f754e9034b0fa88ac",
      "scriptpubkey_asm": "OP_DUP OP_HASH160 OP_PUSHBYTES_20 ec823e145fdae4984ced7de1374f754e9034b0fa OP_EQUALVERIFY OP_CHECKSIG",
      "scriptpubkey_type": "p2pkh",
      "scriptpubkey_address": "1NZYVgQYoW41QvbwKVgQiYFK6fiP8aopDy",
      "value": 39474515
    },
    {
      "scriptpubkey": "76a914fb5848ded007e349cbccfae3e914652271ec142988ac",
      "scriptpubkey_asm": "OP_DUP OP_HASH160 OP_PUSHBYTES_20 fb5848ded007e349cbccfae3e914652271ec1429 OP_EQUALVERIFY OP_CHECKSIG",
      "scriptpubkey_type": "p2pkh",
      "scriptpubkey_address": "1PuzNGvEbDqJjJxd8fSBPiCoex7cvwfGVA",
      "value": 145507766
    }
  ],
  "size": 225,
  "weight": 900,
  "fee": 5198,
  "status": {
    "confirmed": true,
    "block_height": 834638,
    "block_hash": "000000000000000000025f742c626208ac87e0b7d15054abb4a19ca2d735a54e",
    "block_time": 1710405325
  },
  "hex": "0100000001902b673834aadafdb62ddc81c889f88f574bd727b9548455ca57334cc6029627010000006a4730440220201e6a9609c1d9a61501441abb726181d53e7b5ecc04194590745e929f51c6c90220095b0b9f2aac2795674976f0fe1c93636931ca3c7ecebbd1992f4f300c600c7e012103f140cb7706d74fb7a1cd9425b0bdf75ee63b75b68b449730d031b9e1e2ffdb07ffffffff0253555a02000000001976a914ec823e145fdae4984ced7de1374f754e9034b0fa88acb645ac08000000001976a914fb5848ded007e349cbccfae3e914652271ec142988ac00000000"
}