{
  "txid": "19900fa683a0a608d0561d96dae615c611e80c473ce329bbf976adbdb1324c5b",
  "version": 2,
  "locktime": 0,
  "vin": [
    {
      "txid": "4a966a0e5f8ad8b63f6e3008b53929e9bdcf06fc80f7fe82dcfe566db50950e2",
      "vout": 0,
      "prevout": {
        "scriptpubkey": "0014015f524f21a6d8e0c8cdf9338467814294dd9fbb",
        "scriptpubkey_asm": "OP_0 OP_PUSHBYTES_20 015f524f21a6d8e0c8cdf9338467814294dd9fbb",
        "scriptpubkey_type": "v0_p2wpkh",
        "scriptpubkey_address": "bc1qq904ynep5mvwpjxdlyecgeupg22dm8am6cfvgq",
        "value": 87986555
      },
      "scriptsig": "",
      "scriptsig_asm": "",
      "witness": [
        "3044022000ec55e1392d49b186e543c5f3906f13a30bfa4519102db42979ca0363b71e0602205169b7edc2e39b05ac7ea5fa6e4e4fa55aa4bd80428ab7a62b4a49e4a6048d3301",
        "03e0ebb9dd2a9314f16c76a0c68ea4dd2355033f95a3294b01eaf1f6aa1aaaa3fd"
      ],
      "is_coinbase": false,
      "sequence": 4294967280
    }
  ],
  "vout": [
    {
      "scriptpubkey": "0014015f524f21a6d8e0c8cdf9338467814294dd9fbb",
      "scriptpubkey_asm": "OP_0 OP_PUSHBYTES_20 015f524f21a6d8e0c8cdf9338467814294dd9fbb",
      "scriptpubkey_type": "v0_p2wpkh",
      "scriptpubkey_address": "bc1qq904ynep5mvwpjxdlyecgeupg22dm8am6cfvgq",
      "value": 87370130
    },
    {
      "scriptpubkey": "00147225bf00704f7ea7c334797fefb9bc533a8b177c",
      "scriptpubkey_asm": "OP_0 OP_PUSHBYTES_20 7225bf00704f7ea7c334797fefb9bc533a8b177c",
      "scriptpubkey_type": "v0_p2wpkh",
      "scriptpubkey_address": "bc1qwgjm7qrsfal20se509l7lwdu2vagk9musuk68r",
      "value": 189505
    },
    {
      "scriptpubkey": "a91438584ab1573633ebeb9d4624a55da4aed894eab987",
      "scriptpubkey_asm": "OP_HASH160 OP_PUSHBYTES_20 38584ab1573633ebeb9d4624a55da4aed894eab9 OP_EQUAL",
      "scriptpubkey_type": "p2sh",
      "scriptpubkey_address": "36pwXuVdjENkjQHByBPRzjVoTXc72hanCW",
      "value": 420000
    }
  ],
  "size": 254,
  "weight": 689,
  "fee": 6920,
  "status": {
    "confirmed": true,
    "block_height": 834638,
    "block_hash": "000000000000000000025f742c626208ac87e0b7d15054abb4a19ca2d735a54e",
    "block_time": 1710405325
  },
  "hex": "02000000000101e25009b56d56fedc82fef780fc06cfbde92939b508306e3fb6d88a5f0e6a964a0000000000f0ffffff039229350500000000160014015f524f21a6d8e0c8cdf9338467814294dd9fbb41e40200000000001600147225bf00704f7ea7c334797fefb9bc533a8b177ca06806000000000017a91438584ab1573633ebeb9d4624a55da4aed894eab98702473044022000ec55e1392d49b186e543c5f3906f13a30bfa4519102db42979ca0363b71e0602205169b7edc2e39b05ac7ea5fa6e4e4fa55aa4bd80428ab7a62b4a49e4a6048d33012103e0ebb9dd2a9314f16c76a0c68ea4dd2355033f95a3294b01eaf1f6aa1aaaa3fd00000000"
}