{
  "txid": "1997cacb8111f42e2759639249a6cc5cdbf8be60446156f1075f4a3c07ba318b",
  "version": 1,
  "locktime": 0,
  "vin": [
    {
      "txid": "9b224ad62ab1c70f1660fc3d051083fae13108e907a385db265d22aecfabd65a",
      "vout": 0,
      "prevout": {
        "scriptpubkey": "51201ce926ad3f5410333f6d3e3bab8f27c3ddc09df1f8e7b731a1cdba380d09858c",
        "scriptpubkey_asm": "OP_PUSHNUM_1 OP_PUSHBYTES_32 1ce926ad3f5410333f6d3e3bab8f27c3ddc09df1f8e7b731a1cdba380d09858c",
        "scriptpubkey_type": "v1_p2tr",
        "scriptpubkey_address": "bc1prn5jdtfl2sgrx0md8ca6hre8c0wup803lrnmwvdpekarsrgfskxqjyqsuw",
        "value": 2710
      },
      "scriptsig": "",
      "scriptsig_asm": "",
      "witness": [
        "d7d8c82219ccd78365fccbb2d057f73cb22f8d45a01bb8dc60afd58fd7215ea98d7d3bbb5dabb87a1aae93bfee71c95f974ffe25329d9e4f524957a85823158983",
        "20be11f1d0580232188e877ef283eb5a1efd4e9e5290a2633605d666f59ad3fff2ac00630461746f6d03646d742ca16461726773a36b6d696e745f7469636b657263627463656e6f6e63651a008a77eb6474696d651a65f10ed168",
        "c0be11f1d0580232188e877ef283eb5a1efd4e9e5290a2633605d666f59ad3fff2"
      ],
      "is_coinbase": false,
      "sequence": 4294967293
    }
  ],
  "vout": [
    {
      "scriptpubkey": "51209d6dbbf9bad17d0135e06ea56ec304df985f9f9bc809fa52ae6789a0947e0300",
      "scriptpubkey_asm": "OP_PUSHNUM_1 OP_PUSHBYTES_32 9d6dbbf9bad17d0135e06ea56ec304df985f9f9bc809fa52ae6789a0947e0300",
      "scriptpubkey_type": "v1_p2tr",
      "scriptpubkey_address": "bc1pn4kmh7d6697szd0qd6jkascym7v9l8umeqyl554wv7y6p9r7qvqquzkndh",
      "value": 1000
    }
  ],
  "size": 289,
  "weight": 571,
  "fee": 1710,
  "status": {
    "confirmed": true,
    "block_height": 834460,
    "block_hash": "00000000000000000000484a79b643b2524bbce82e5d8a442013fa5b8905ed98",
    "block_time": 1710307468
  },
  "hex": "010000000001015ad6abcfae225d26db85a307e90831e1fa8310053dfc60160fc7b12ad64a229b0000000000fdffffff01e8030000000000002251209d6dbbf9bad17d0135e06ea56ec304df985f9f9bc809fa52ae6789a0947e03000341d7d8c82219ccd78365fccbb2d057f73cb22f8d45a01bb8dc60afd58fd7215ea98d7d3bbb5dabb87a1aae93bfee71c95f974ffe25329d9e4f524957a858231589835b20be11f1d0580232188e877ef283eb5a1efd4e9e5290a2633605d666f59ad3fff2ac00630461746f6d03646d742ca16461726773a36b6d696e745f7469636b657263627463656e6f6e63651a008a77eb6474696d651a65f10ed16821c0be11f1d0580232188e877ef283eb5a1efd4e9e5290a2633605d666f59ad3fff200000000"
}