{
  "txid": "19b15029b708cccfcd81d68cf1196e6577c010e7b72b270f3e4b2dc3067985f9",
  "version": 1,
  "locktime": 0,
  "vin": [
    {
      "txid": "d8957a24664ec307ce89f2c9238bec0297d9d3bdb1231a265807e6b5f81735eb",
      "vout": 1,
      "prevout": {
        "scriptpubkey": "001471d81284b868343d217d3ec7e4b51c5a8482ffc4",
        "scriptpubkey_asm": "OP_0 OP_PUSHBYTES_20 71d81284b868343d217d3ec7e4b51c5a8482ffc4",
        "scriptpubkey_type": "v0_p2wpkh",
        "scriptpubkey_address": "bc1qw8vp9p9cdq6r6gta8mr7fdgut2zg9l7yxak88x",
        "value": 3068
      },
      "scriptsig": "",
      "scriptsig_asm": "",
      "witness": [
        "3045022100984e4e67e517571009db938cb97a3c91b6053f70c13bb52db2c97a4300e5c70f022065d8021c35a6147a40bb563e39fd141a58361db837b8b8c0ec346dcdc8e8a89201",
        "038aad256e8b7cafa7ddf640c6561fa20d3bde4eb86639783df85d955f1254fa6a"
      ],
      "is_coinbase": false,
      "sequence": 4294967295
    },
    {
      "txid": "fbcf0859e4f1d763e82f9a02e312e91f38b577f0e2c37ca45bc25950cf8991e6",
      "vout": 1,
      "prevout": {
        "scriptpubkey": "001471d81284b868343d217d3ec7e4b51c5a8482ffc4",
        "scriptpubkey_asm": "OP_0 OP_PUSHBYTES_20 71d81284b868343d217d3ec7e4b51c5a8482ffc4",
        "scriptpubkey_type": "v0_p2wpkh",
        "scriptpubkey_address": "bc1qw8vp9p9cdq6r6gta8mr7fdgut2zg9l7yxak88x",
        "value": 5249
      },
      "scriptsig": "",
      "scriptsig_asm": "",
      "witness": [
        "304402201a94dab912f47782a02af406baf02b506c704498f6e95b5695e28bcd55d4e07e022025f589f58dd1fbed13df9c8f8da54d7d3b0333651e270383603082225db007b501",
        "038aad256e8b7cafa7ddf640c6561fa20d3bde4eb86639783df85d955f1254fa6a"
      ],
      "is_coinbase": false,
      "sequence": 4294967295
    },
    {
      "txid": "e85876f4d2199663177bcd618ef995e7309520dd0936ff0411f49f0bf7f3d786",
      "vout": 0,
      "prevout": {
        "scriptpubkey": "001471d81284b868343d217d3ec7e4b51c5a8482ffc4",
        "scriptpubkey_asm": "OP_0 OP_PUSHBYTES_20 71d81284b868343d217d3ec7e4b51c5a8482ffc4",
        "scriptpubkey_type": "v0_p2wpkh",
        "scriptpubkey_address": "bc1qw8vp9p9cdq6r6gta8mr7fdgut2zg9l7yxak88x",
        "value": 100000
      },
      "scriptsig": "",
      "scriptsig_asm": "",
      "witness": [
        "3045022100e42a0bf5e8b46f60dc4a85daea1690d1b4ec0996c4635354d8f2f590c9b3cf9002203027d54cd5e66bad2cb70b32bc90844fe2d0329f51b5bf95ba940b1dcd24020501",
        "038aad256e8b7cafa7ddf640c6561fa20d3bde4eb86639783df85d955f1254fa6a"
      ],
      "is_coinbase": false,
      "sequence": 4294967295
    }
  ],
  "vout": [
    {
      "scriptpubkey": "76a914caca5dd4f7d730f8e4ecef4c1e1e864075a71b4288ac",
      "scriptpubkey_asm": "OP_DUP OP_HASH160 OP_PUSHBYTES_20 caca5dd4f7d730f8e4ecef4c1e1e864075a71b42 OP_EQUALVERIFY OP_CHECKSIG",
      "scriptpubkey_type": "p2pkh",
      "scriptpubkey_address": "1KVFvRXLUTLrEcGBwpCdPNAFobp6qGSTA5",
      "value": 97922
    },
    {
      "scriptpubkey": "001471d81284b868343d217d3ec7e4b51c5a8482ffc4",
      "scriptpubkey_asm": "OP_0 OP_PUSHBYTES_20 71d81284b868343d217d3ec7e4b51c5a8482ffc4",
      "scriptpubkey_type": "v0_p2wpkh",
      "scriptpubkey_address": "bc1qw8vp9p9cdq6r6gta8mr7fdgut2zg9l7yxak88x",
      "value": 2835
    }
  ],
  "size": 523,
  "weight": 1117,
  "fee": 7560,
  "status": {
    "confirmed": true,
    "block_height": 834638,
    "block_hash": "000000000000000000025f742c626208ac87e0b7d15054abb4a19ca2d735a54e",
    "block_time": 1710405325
  },
  "hex": "01000000000103eb3517f8b5e60758261a23b1bdd3d99702ec8b23c9f289ce07c34e66247a95d80100000000ffffffffe69189cf5059c25ba47cc3e2f077b5381fe912e3029a2fe863d7f1e45908cffb0100000000ffffffff86d7f3f70b9ff41104ff3609dd209530e795f98e61cd7b17639619d2f47658e80000000000ffffffff02827e0100000000001976a914caca5dd4f7d730f8e4ecef4c1e1e864075a71b4288ac130b00000000000016001471d81284b868343d217d3ec7e4b51c5a8482ffc402483045022100984e4e67e517571009db938cb97a3c91b6053f70c13bb52db2c97a4300e5c70f022065d8021c35a6147a40bb563e39fd141a58361db837b8b8c0ec346dcdc8e8a8920121038aad256e8b7cafa7ddf640c6561fa20d3bde4eb86639783df85d955f1254fa6a0247304402201a94dab912f47782a02af406baf02b506c704498f6e95b5695e28bcd55d4e07e022025f589f58dd1fbed13df9c8f8da54d7d3b0333651e270383603082225db007b50121038aad256e8b7cafa7ddf640c6561fa20d3bde4eb86639783df85d955f1254fa6a02483045022100e42a0bf5e8b46f60dc4a85daea1690d1b4ec0996c4635354d8f2f590c9b3cf9002203027d54cd5e66bad2cb70b32bc90844fe2d0329f51b5bf95ba940b1dcd2402050121038aad256e8b7cafa7ddf640c6561fa20d3bde4eb86639783df85d955f1254fa6a00000000"
}