{
  "txid": "19c40dff6bfee010ca3d3f41461b540109ec1d5d9fbb70584810eb2e4226666c",
  "version": 2,
  "locktime": 834637,
  "vin": [
    {
      "txid": "d0fa3356fb263009d4fc8d7d6ba59963a560baba8da03501fdc411ff26b76ad6",
      "vout": 4,
      "prevout": {
        "scriptpubkey": "0014371c620e2a5f79132ddea30020e251ddab5e315f",
        "scriptpubkey_asm": "OP_0 OP_PUSHBYTES_20 371c620e2a5f79132ddea30020e251ddab5e315f",
        "scriptpubkey_type": "v0_p2wpkh",
        "scriptpubkey_address": "bc1qxuwxyr32tau3xtw75vqzpcj3mk44uv2lwv5gtu",
        "value": 68200
      },
      "scriptsig": "",
      "scriptsig_asm": "",
      "witness": [
        "30440220323ad83e9b1c3d3d1f8704f507a044e2a174fc04fa3936f8a0e9f238c0ea7b9102203852a5543a0907d41c79ee6b6750b2a31d43c5632ceaa31aa379defc2edf845b01",
        "035ef2f94376edda64a2edb2acb257b44ab055b336f7e92c5a269144867d39a854"
      ],
      "is_coinbase": false,
      "sequence": 4294967293
    }
  ],
  "vout": [
    {
      "scriptpubkey": "0014c3f0446c20163f8bf338aea7db72b637ce23ff0f",
      "scriptpubkey_asm": "OP_0 OP_PUSHBYTES_20 c3f0446c20163f8bf338aea7db72b637ce23ff0f",
      "scriptpubkey_type": "v0_p2wpkh",
      "scriptpubkey_address": "bc1qc0cygmpqzclchuec46naku4kxl8z8lc0r3cn5e",
      "value": 1500
    },
    {
      "scriptpubkey": "a914a077ab3315cc4c61c780fbc1ebaf92adf9b0b9dc87",
      "scriptpubkey_asm": "OP_HASH160 OP_PUSHBYTES_20 a077ab3315cc4c61c780fbc1ebaf92adf9b0b9dc OP_EQUAL",
      "scriptpubkey_type": "p2sh",
      "scriptpubkey_address": "3GKVPy3J86HQmNK6rwwaxZjzKvYiRBE4wE",
      "value": 59600
    }
  ],
  "size": 223,
  "weight": 565,
  "fee": 7100,
  "status": {
    "confirmed": true,
    "block_height": 834638,
    "block_hash": "000000000000000000025f742c626208ac87e0b7d15054abb4a19ca2d735a54e",
    "block_time": 1710405325
  },
  "hex": "02000000000101d66ab726ff11c4fd0135a08dbaba60a56399a56b7d8dfcd4093026fb5633fad00400000000fdffffff02dc05000000000000160014c3f0446c20163f8bf338aea7db72b637ce23ff0fd0e800000000000017a914a077ab3315cc4c61c780fbc1ebaf92adf9b0b9dc87024730440220323ad83e9b1c3d3d1f8704f507a044e2a174fc04fa3936f8a0e9f238c0ea7b9102203852a5543a0907d41c79ee6b6750b2a31d43c5632ceaa31aa379defc2edf845b0121035ef2f94376edda64a2edb2acb257b44ab055b336f7e92c5a269144867d39a8544dbc0c00"
}