{
  "txid": "19e05e98b13855cd42eb19f67731b24fc28d793a4a36a9f92dde1b962eeaa757",
  "version": 1,
  "locktime": 0,
  "vin": [
    {
      "txid": "cb4e4809cba1a7f02bc38e102fa70dd0888891579a749d670bcf7264528b9eca",
      "vout": 1,
      "prevout": {
        "scriptpubkey": "a914feb0cf6ba02362188288272d6500b97447a28baf87",
        "scriptpubkey_asm": "OP_HASH160 OP_PUSHBYTES_20 feb0cf6ba02362188288272d6500b97447a28baf OP_EQUAL",
        "scriptpubkey_type": "p2sh",
        "scriptpubkey_address": "3QuhNFzMruMWZaB5Got9ydXVLm99KZbBDJ",
        "value": 13513
      },
      "scriptsig": "16001433815527c10ad2255afe033b7b27d45f4817969f",
      "scriptsig_asm": "OP_PUSHBYTES_22 001433815527c10ad2255afe033b7b27d45f4817969f",
      "witness": [
        "304402201a227a3aae3c7afce90bab3f8bce81f220e818e0b257bbe5439547b4dd665fe402201a2b4caf9d93a38a0efc4f5fbb703821a56d2388fa4bd1826762b5bc1a98c07a01",
        "031aa388bb0de369ef9ca969d77a205b9e81532b6c160aeb5d3a87f772f5667460"
      ],
      "is_coinbase": false,
      "sequence": 4294967293,
      "inner_redeemscript_asm": "OP_0 OP_PUSHBYTES_20 33815527c10ad2255afe033b7b27d45f4817969f"
    },
    {
      "txid": "f7547ad659a8b8c4cb4ce48b3207fcdc80c7e68d36267cc6f787585e926fbec3",
      "vout": 39,
      "prevout": {
        "scriptpubkey": "a914feb0cf6ba02362188288272d6500b97447a28baf87",
        "scriptpubkey_asm": "OP_HASH160 OP_PUSHBYTES_20 feb0cf6ba02362188288272d6500b97447a28baf OP_EQUAL",
        "scriptpubkey_type": "p2sh",
        "scriptpubkey_address": "3QuhNFzMruMWZaB5Got9ydXVLm99KZbBDJ",
        "value": 770
      },
      "scriptsig": "16001433815527c10ad2255afe033b7b27d45f4817969f",
      "scriptsig_asm": "OP_PUSHBYTES_22 001433815527c10ad2255afe033b7b27d45f4817969f",
      "witness": [
        "3045022100f921540f5b61348434307bb6eb8768927101f8f786252cafb31afb76c5346cf102202be705062c52966908143973f83f7862a1c8c5a4d80083b9817c1afe8b97935101",
        "031aa388bb0de369ef9ca969d77a205b9e81532b6c160aeb5d3a87f772f5667460"
      ],
      "is_coinbase": false,
      "sequence": 4294967293,
      "inner_redeemscript_asm": "OP_0 OP_PUSHBYTES_20 33815527c10ad2255afe033b7b27d45f4817969f"
    },
    {
      "txid": "78f5644b4f166285813a8db7e49d5679d7f238f66b0aa96e6131f2c8e397cbe0",
      "vout": 0,
      "prevout": {
        "scriptpubkey": "a914feb0cf6ba02362188288272d6500b97447a28baf87",
        "scriptpubkey_asm": "OP_HASH160 OP_PUSHBYTES_20 feb0cf6ba02362188288272d6500b97447a28baf OP_EQUAL",
        "scriptpubkey_type": "p2sh",
        "scriptpubkey_address": "3QuhNFzMruMWZaB5Got9ydXVLm99KZbBDJ",
        "value": 24000
      },
      "scriptsig": "16001433815527c10ad2255afe033b7b27d45f4817969f",
      "scriptsig_asm": "OP_PUSHBYTES_22 001433815527c10ad2255afe033b7b27d45f4817969f",
      "witness": [
        "304402207c1b4b467cdd30e49a903a80809c658bfd2f939c2e8083736241ceb84c900e06022078fffcbb468a57c50ee233568579339bbd77e2fcae68b41f9d14da84e4ec51e001",
        "031aa388bb0de369ef9ca969d77a205b9e81532b6c160aeb5d3a87f772f5667460"
      ],
      "is_coinbase": false,
      "sequence": 4294967293,
      "inner_redeemscript_asm": "OP_0 OP_PUSHBYTES_20 33815527c10ad2255afe033b7b27d45f4817969f"
    }
  ],
  "vout": [
    {
      "scriptpubkey": "a9142a3fe0d35b3a2ee1a3cb38dd732cd3e1ac484fa587",
      "scriptpubkey_asm": "OP_HASH160 OP_PUSHBYTES_20 2a3fe0d35b3a2ee1a3cb38dd732cd3e1ac484fa5 OP_EQUAL",
      "scriptpubkey_type": "p2sh",
      "scriptpubkey_address": "35YQpwL4QGsr9oGueDGhhV7MuNrcU1oBHF",
      "value": 36000
    },
    {
      "scriptpubkey": "a914feb0cf6ba02362188288272d6500b97447a28baf87",
      "scriptpubkey_asm": "OP_HASH160 OP_PUSHBYTES_20 feb0cf6ba02362188288272d6500b97447a28baf OP_EQUAL",
      "scriptpubkey_type": "p2sh",
      "scriptpubkey_address": "3QuhNFzMruMWZaB5Got9ydXVLm99KZbBDJ",
      "value": 1936
    }
  ],
  "size": 590,
  "weight": 1388,
  "fee": 347,
  "status": {
    "confirmed": true,
    "block_height": 834464,
    "block_hash": "0000000000000000000177a0869a911a2b65c9bdcd5a8bcb02b68f305bee848e",
    "block_time": 1710308296
  },
  "hex": "01000000000103ca9e8b526472cf0b679d749a57918888d00da72f108ec32bf0a7a1cb09484ecb010000001716001433815527c10ad2255afe033b7b27d45f4817969ffdffffffc3be6f925e5887f7c67c26368de6c780dcfc07328be44ccbc4b8a859d67a54f7270000001716001433815527c10ad2255afe033b7b27d45f4817969ffdffffffe0cb97e3c8f231616ea90a6bf638f2d779569de4b78d3a818562164f4b64f578000000001716001433815527c10ad2255afe033b7b27d45f4817969ffdffffff02a08c00000000000017a9142a3fe0d35b3a2ee1a3cb38dd732cd3e1ac484fa587900700000000000017a914feb0cf6ba02362188288272d6500b97447a28baf870247304402201a227a3aae3c7afce90bab3f8bce81f220e818e0b257bbe5439547b4dd665fe402201a2b4caf9d93a38a0efc4f5fbb703821a56d2388fa4bd1826762b5bc1a98c07a0121031aa388bb0de369ef9ca969d77a205b9e81532b6c160aeb5d3a87f772f566746002483045022100f921540f5b61348434307bb6eb8768927101f8f786252cafb31afb76c5346cf102202be705062c52966908143973f83f7862a1c8c5a4d80083b9817c1afe8b9793510121031aa388bb0de369ef9ca969d77a205b9e81532b6c160aeb5d3a87f772f56674600247304402207c1b4b467cdd30e49a903a80809c658bfd2f939c2e8083736241ceb84c900e06022078fffcbb468a57c50ee233568579339bbd77e2fcae68b41f9d14da84e4ec51e00121031aa388bb0de369ef9ca969d77a205b9e81532b6c160aeb5d3a87f772f566746000000000"
}