{
  "txid": "19fce64044d9a2506755184188b15a7a486eb95d4c569c88b130695a0de64add",
  "version": 2,
  "locktime": 0,
  "vin": [
    {
      "txid": "d52cf20de047716edfe6949102cecba9a8839410633d5f08c65750e6108ad5dd",
      "vout": 1,
      "prevout": {
        "scriptpubkey": "0014f7ce76aa51edda400a58a5122e7179541fa6010d",
        "scriptpubkey_asm": "OP_0 OP_PUSHBYTES_20 f7ce76aa51edda400a58a5122e7179541fa6010d",
        "scriptpubkey_type": "v0_p2wpkh",
        "scriptpubkey_address": "bc1q7l88d2j3ahdyqzjc55fzuute2s06vqgdt8vrxm",
        "value": 1514656
      },
      "scriptsig": "",
      "scriptsig_asm": "",
      "witness": [
        "304402201a38241704b9a7b39de01495791ac1adaca245198b6b45b1bfc9eb9f220efe520220167adedc9025f56c6ac829cdd618623717b08d07d9d0977b22a7b1aa72f0e5bc01",
        "033e7a8efbe5b9c3b3b651d5a0fcf09f1110c324952f89fab9a5fc2dd76684ed89"
      ],
      "is_coinbase": false,
      "sequence": 4294967295
    }
  ],
  "vout": [
    {
      "scriptpubkey": "00204c8ce733a7bd192be6276cdd8886ef2436c1ed5e030edf0665667d38818cfbdd",
      "scriptpubkey_asm": "OP_0 OP_PUSHBYTES_32 4c8ce733a7bd192be6276cdd8886ef2436c1ed5e030edf0665667d38818cfbdd",
      "scriptpubkey_type": "v0_p2wsh",
      "scriptpubkey_address": "bc1qfjxwwva8h5vjhe38dnwc3ph0ysmvrm27qv8d7pn9ve7n3qvvl0ws32s3jp",
      "value": 572172
    },
    {
      "scriptpubkey": "0014b615f7c63942bc476e484196edbac4fa973d63f0",
      "scriptpubkey_asm": "OP_0 OP_PUSHBYTES_20 b615f7c63942bc476e484196edbac4fa973d63f0",
      "scriptpubkey_type": "v0_p2wpkh",
      "scriptpubkey_address": "bc1qkc2l033eg27ywmjggxtwmwkyl2tn6clshd95h8",
      "value": 939828
    }
  ],
  "size": 234,
  "weight": 609,
  "fee": 2656,
  "status": {
    "confirmed": true,
    "block_height": 834638,
    "block_hash": "000000000000000000025f742c626208ac87e0b7d15054abb4a19ca2d735a54e",
    "block_time": 1710405325
  },
  "hex": "02000000000101ddd58a10e65057c6085f3d63109483a8a9cbce029194e6df6e7147e00df22cd50100000000ffffffff020cbb0800000000002200204c8ce733a7bd192be6276cdd8886ef2436c1ed5e030edf0665667d38818cfbdd34570e0000000000160014b615f7c63942bc476e484196edbac4fa973d63f00247304402201a38241704b9a7b39de01495791ac1adaca245198b6b45b1bfc9eb9f220efe520220167adedc9025f56c6ac829cdd618623717b08d07d9d0977b22a7b1aa72f0e5bc0121033e7a8efbe5b9c3b3b651d5a0fcf09f1110c324952f89fab9a5fc2dd76684ed8900000000"
}