{
  "txid": "1a01d7ed8ef48f1aca8a48404d6dfaaf1e5a6c5bdab4cab7f34a2d8279132a28",
  "version": 2,
  "locktime": 0,
  "vin": [
    {
      "txid": "2b023e1501a00bda81f072552866ae84e4a2348ae77c7ef3fb73347bbe54a93c",
      "vout": 76,
      "prevout": {
        "scriptpubkey": "0014b56304d881cbe977a423dcbdf25491a0c7da847c",
        "scriptpubkey_asm": "OP_0 OP_PUSHBYTES_20 b56304d881cbe977a423dcbdf25491a0c7da847c",
        "scriptpubkey_type": "v0_p2wpkh",
        "scriptpubkey_address": "bc1qk43sfkype05h0fprmj7ly4y35rra4prun8cg9p",
        "value": 794352
      },
      "scriptsig": "",
      "scriptsig_asm": "",
      "witness": [
        "3044022051337ad864432e96c205137660f24d7d1a1f8702d4706dac35fe99d35adfa16102204f7c88b051e45b44adfab5f265f5849417cad5ebf505b2803cbed46073f1cd5301",
        "0249092594131ae32684ecc6e648bdc3034bb476532b41b6a7d2f6dba7ff1ee15a"
      ],
      "is_coinbase": false,
      "sequence": 4294967295
    }
  ],
  "vout": [
    {
      "scriptpubkey": "a914f5ad81487db7af5bb4e948be41a70bea951e4f2d87",
      "scriptpubkey_asm": "OP_HASH160 OP_PUSHBYTES_20 f5ad81487db7af5bb4e948be41a70bea951e4f2d OP_EQUAL",
      "scriptpubkey_type": "p2sh",
      "scriptpubkey_address": "3Q63Kt6fXfUfY1PiAoN1hGX6jnS71Jjczh",
      "value": 792686
    }
  ],
  "size": 192,
  "weight": 441,
  "fee": 1666,
  "status": {
    "confirmed": true,
    "block_height": 834638,
    "block_hash": "000000000000000000025f742c626208ac87e0b7d15054abb4a19ca2d735a54e",
    "block_time": 1710405325
  },
  "hex": "020000000001013ca954be7b3473fbf37e7ce78a34a2e484ae66285572f081da0ba001153e022b4c00000000ffffffff016e180c000000000017a914f5ad81487db7af5bb4e948be41a70bea951e4f2d8702473044022051337ad864432e96c205137660f24d7d1a1f8702d4706dac35fe99d35adfa16102204f7c88b051e45b44adfab5f265f5849417cad5ebf505b2803cbed46073f1cd5301210249092594131ae32684ecc6e648bdc3034bb476532b41b6a7d2f6dba7ff1ee15a00000000"
}