{
  "txid": "1a0692982fbdfc193d188d80e550a75fbc5c0951b0a1e4de1043ffaedd1937f7",
  "version": 1,
  "locktime": 0,
  "vin": [
    {
      "txid": "157bc96ee9f7660a3b8ae2c5152f30f1e8443aad06a301d8e063f3e75a8c9848",
      "vout": 1,
      "prevout": {
        "scriptpubkey": "0014494723bd991c250ae44f3d37e19623a45128b146",
        "scriptpubkey_asm": "OP_0 OP_PUSHBYTES_20 494723bd991c250ae44f3d37e19623a45128b146",
        "scriptpubkey_type": "v0_p2wpkh",
        "scriptpubkey_address": "bc1qf9rj80versjs4ez085m7r93r53gj3v2xx4hwzu",
        "value": 11507016
      },
      "scriptsig": "",
      "scriptsig_asm": "",
      "witness": [
        "304402201bfc7cb40152a89b50a55fe15035f9e787cd7bd93228cbed7438dfe437fea8810220608e7f6dd677357d26f91961febaffb9b6a7b09cfff7f33554d5b28ebcd3f1ec01",
        "039d958f09c1311d4634946a6c5eb03fb7a0355a1035a63eb6011959a175d1127f"
      ],
      "is_coinbase": false,
      "sequence": 4294967295
    },
    {
      "txid": "787deea783e3b9a2fa3caaeda9ef170fc3a11c22b2a74120aa92aa64fdf89686",
      "vout": 0,
      "prevout": {
        "scriptpubkey": "0014494723bd991c250ae44f3d37e19623a45128b146",
        "scriptpubkey_asm": "OP_0 OP_PUSHBYTES_20 494723bd991c250ae44f3d37e19623a45128b146",
        "scriptpubkey_type": "v0_p2wpkh",
        "scriptpubkey_address": "bc1qf9rj80versjs4ez085m7r93r53gj3v2xx4hwzu",
        "value": 1918531
      },
      "scriptsig": "",
      "scriptsig_asm": "",
      "witness": [
        "3045022100a8a51bce24361c351dd6e2d6d661ffcfbe5b5962032dcb88d2b87be6a5f7c57802200e2ce5e83a4ba0e54b9ef27869023f82b08bfbb87848d76cfdea036550491da201",
        "039d958f09c1311d4634946a6c5eb03fb7a0355a1035a63eb6011959a175d1127f"
      ],
      "is_coinbase": false,
      "sequence": 4294967295
    },
    {
      "txid": "d85f2b6f6dea76bb66ca2401de4d68dc977c698a232656306dc4d7fbbb70841b",
      "vout": 0,
      "prevout": {
        "scriptpubkey": "0014494723bd991c250ae44f3d37e19623a45128b146",
        "scriptpubkey_asm": "OP_0 OP_PUSHBYTES_20 494723bd991c250ae44f3d37e19623a45128b146",
        "scriptpubkey_type": "v0_p2wpkh",
        "scriptpubkey_address": "bc1qf9rj80versjs4ez085m7r93r53gj3v2xx4hwzu",
        "value": 100000
      },
      "scriptsig": "",
      "scriptsig_asm": "",
      "witness": [
        "30440220640173b2a2c3f000bd622fb81e4d717fcdc8aa6a0ef284207b59714699fb2719022033e165aa18ae2e0aaf7659e2b3b651cf4c98caf3afdba6da8502b57e318600d001",
        "039d958f09c1311d4634946a6c5eb03fb7a0355a1035a63eb6011959a175d1127f"
      ],
      "is_coinbase": false,
      "sequence": 4294967295
    }
  ],
  "vout": [
    {
      "scriptpubkey": "76a914da50f558937f2f1753138be04f411daed255449088ac",
      "scriptpubkey_asm": "OP_DUP OP_HASH160 OP_PUSHBYTES_20 da50f558937f2f1753138be04f411daed2554490 OP_EQUALVERIFY OP_CHECKSIG",
      "scriptpubkey_type": "p2pkh",
      "scriptpubkey_address": "1LuMHuZ4qQVM8ks1CE41GGPZ9yBDhuRt9v",
      "value": 13518824
    }
  ],
  "size": 491,
  "weight": 992,
  "fee": 6723,
  "status": {
    "confirmed": true,
    "block_height": 834638,
    "block_hash": "000000000000000000025f742c626208ac87e0b7d15054abb4a19ca2d735a54e",
    "block_time": 1710405325
  },
  "hex": "0100000000010348988c5ae7f363e0d801a306ad3a44e8f1302f15c5e28a3b0a66f7e96ec97b150100000000ffffffff8696f8fd64aa92aa2041a7b2221ca1c30f17efa9edaa3cfaa2b9e383a7ee7d780000000000ffffffff1b8470bbfbd7c46d305626238a697c97dc684dde0124ca66bb76ea6d6f2b5fd80000000000ffffffff01e847ce00000000001976a914da50f558937f2f1753138be04f411daed255449088ac0247304402201bfc7cb40152a89b50a55fe15035f9e787cd7bd93228cbed7438dfe437fea8810220608e7f6dd677357d26f91961febaffb9b6a7b09cfff7f33554d5b28ebcd3f1ec0121039d958f09c1311d4634946a6c5eb03fb7a0355a1035a63eb6011959a175d1127f02483045022100a8a51bce24361c351dd6e2d6d661ffcfbe5b5962032dcb88d2b87be6a5f7c57802200e2ce5e83a4ba0e54b9ef27869023f82b08bfbb87848d76cfdea036550491da20121039d958f09c1311d4634946a6c5eb03fb7a0355a1035a63eb6011959a175d1127f024730440220640173b2a2c3f000bd622fb81e4d717fcdc8aa6a0ef284207b59714699fb2719022033e165aa18ae2e0aaf7659e2b3b651cf4c98caf3afdba6da8502b57e318600d00121039d958f09c1311d4634946a6c5eb03fb7a0355a1035a63eb6011959a175d1127f00000000"
}