{
  "txid": "1a11e20dbc9673ed5793b48c636e4ca131d09066b2e656d9aa4f12a0fe003625",
  "version": 2,
  "locktime": 834458,
  "vin": [
    {
      "txid": "5fa02c17ab5c08414964a06e78f65b830a3d8776d34656b623ea3dafb625e2e7",
      "vout": 2,
      "prevout": {
        "scriptpubkey": "00201f884d5b6b374b2b7775b2144f5a66be7c2efd5ffe7bbc4f6abe2387056032a1",
        "scriptpubkey_asm": "OP_0 OP_PUSHBYTES_32 1f884d5b6b374b2b7775b2144f5a66be7c2efd5ffe7bbc4f6abe2387056032a1",
        "scriptpubkey_type": "v0_p2wsh",
        "scriptpubkey_address": "bc1qr7yy6kmtxa9jkam4kg2y7knxhe7zal2lleamcnm2hc3cwptqx2ss7cz29k",
        "value": 26100
      },
      "scriptsig": "",
      "scriptsig_asm": "",
      "witness": [
        "30450221009bfc8b9ab99216c266569159dbd4c4612687e3ffdf7628e4ea589b9d82399af20220524060f9265451ecbda1563c0da68aa978d61e6f2a013563caa5c9a394caa8ca01",
        "2103bd1bb52b849238b996dffac0d84dcf4ceb8f258f285581dbc63fd6f758a45125ad51b2"
      ],
      "is_coinbase": false,
      "sequence": 1,
      "inner_witnessscript_asm": "OP_PUSHBYTES_33 03bd1bb52b849238b996dffac0d84dcf4ceb8f258f285581dbc63fd6f758a45125 OP_CHECKSIGVERIFY OP_PUSHNUM_1 OP_CSV"
    }
  ],
  "vout": [
    {
      "scriptpubkey": "51208b852cd003c7a60df6130aec0f6ad6d922a8177e28a0d0c77eed6044aa47e4de",
      "scriptpubkey_asm": "OP_PUSHNUM_1 OP_PUSHBYTES_32 8b852cd003c7a60df6130aec0f6ad6d922a8177e28a0d0c77eed6044aa47e4de",
      "scriptpubkey_type": "v1_p2tr",
      "scriptpubkey_address": "bc1p3wzje5qrc7nqmasnptkq76kkmy32s9m79zsdp3m7a4syf2j8un0qgnn4lx",
      "value": 24370
    }
  ],
  "size": 208,
  "weight": 490,
  "fee": 1730,
  "status": {
    "confirmed": true,
    "block_height": 834460,
    "block_hash": "00000000000000000000484a79b643b2524bbce82e5d8a442013fa5b8905ed98",
    "block_time": 1710307468
  },
  "hex": "02000000000101e7e225b6af3dea23b65646d376873d0a835bf6786ea0644941085cab172ca05f02000000000100000001325f0000000000002251208b852cd003c7a60df6130aec0f6ad6d922a8177e28a0d0c77eed6044aa47e4de024830450221009bfc8b9ab99216c266569159dbd4c4612687e3ffdf7628e4ea589b9d82399af20220524060f9265451ecbda1563c0da68aa978d61e6f2a013563caa5c9a394caa8ca01252103bd1bb52b849238b996dffac0d84dcf4ceb8f258f285581dbc63fd6f758a45125ad51b29abb0c00"
}