{
  "txid": "1a24dac1b6a224ded2160bc2fa2d6fcf6bc939b6733456bcc533cd7379205eb0",
  "version": 2,
  "locktime": 0,
  "vin": [
    {
      "txid": "e835c4d922fbed17c48b3bb466ba1ffc020ede84c1303bdb67ca1f883dd615bb",
      "vout": 13,
      "prevout": {
        "scriptpubkey": "5120add932594bbe26f957afc25598be54ddadaaeb0dc19938a18b2913d79704884a",
        "scriptpubkey_asm": "OP_PUSHNUM_1 OP_PUSHBYTES_32 add932594bbe26f957afc25598be54ddadaaeb0dc19938a18b2913d79704884a",
        "scriptpubkey_type": "v1_p2tr",
        "scriptpubkey_address": "bc1p4hvnyk2thcn0j4a0cf2e30j5mkk646cdcxvn3gvt9yfa09cy3p9qnae7mm",
        "value": 3234
      },
      "scriptsig": "",
      "scriptsig_asm": "",
      "witness": [
        "4f8c5186283341a80ab44c75471f32aebbaf19311c8ad77ea493305d202f019b6e64b3731d777ab6e5d83f0ad1070c4ccce7694c9d3efed8df0710261826e6c2",
        "20578db49fcad226015a3988775d49238a9ecb57b95b35cb463deb4fd103d42255ac0063036f726401011e6170706c69636174696f6e2f6a736f6e3b636861727365743d7574662d38004cd27b2270223a22706f772d3230222c226f70223a226d696e74222c227469636b223a2250455045222c22616d74223a2231303030222c22736f6c7574696f6e223a22504550453a626331703378336875706e76383064666366666c34333367327a3776713378706c63673364666d79716365336d6c6d6e78397767753872717265763032653a303030303030303030303030303030303030303139393431613561653132383937363539383134343239323533333030353762306461393666336465613163353a37363734313631333236227d68",
        "c0bf69a78b1b6433fca38fda21525e43a6c565682ca08e513a8f66feb668723930"
      ],
      "is_coinbase": false,
      "sequence": 4294967295
    }
  ],
  "vout": [
    {
      "scriptpubkey": "512089a37e066c3bda9c253fac62850bcc044c1fe1116a76406331dff73315c8e1c6",
      "scriptpubkey_asm": "OP_PUSHNUM_1 OP_PUSHBYTES_32 89a37e066c3bda9c253fac62850bcc044c1fe1116a76406331dff73315c8e1c6",
      "scriptpubkey_type": "v1_p2tr",
      "scriptpubkey_address": "bc1p3x3hupnv80dfcffl433g2z7vq3xplcg3dfmyqce3mlmnx9wgu8rqrev02e",
      "value": 546
    }
  ],
  "size": 486,
  "weight": 768,
  "fee": 2688,
  "status": {
    "confirmed": true,
    "block_height": 834460,
    "block_hash": "00000000000000000000484a79b643b2524bbce82e5d8a442013fa5b8905ed98",
    "block_time": 1710307468
  },
  "hex": "02000000000101bb15d63d881fca67db3b30c184de0e02fc1fba66b43b8bc417edfb22d9c435e80d00000000ffffffff01220200000000000022512089a37e066c3bda9c253fac62850bcc044c1fe1116a76406331dff73315c8e1c603404f8c5186283341a80ab44c75471f32aebbaf19311c8ad77ea493305d202f019b6e64b3731d777ab6e5d83f0ad1070c4ccce7694c9d3efed8df0710261826e6c2fd1f0120578db49fcad226015a3988775d49238a9ecb57b95b35cb463deb4fd103d42255ac0063036f726401011e6170706c69636174696f6e2f6a736f6e3b636861727365743d7574662d38004cd27b2270223a22706f772d3230222c226f70223a226d696e74222c227469636b223a2250455045222c22616d74223a2231303030222c22736f6c7574696f6e223a22504550453a626331703378336875706e76383064666366666c34333367327a3776713378706c63673364666d79716365336d6c6d6e78397767753872717265763032653a303030303030303030303030303030303030303139393431613561653132383937363539383134343239323533333030353762306461393666336465613163353a37363734313631333236227d6821c0bf69a78b1b6433fca38fda21525e43a6c565682ca08e513a8f66feb66872393000000000"
}