{
  "txid": "1a3d8bf7369b05c9e2662b8f38e58d7d80a1a9083e52b292f9d4a876a8891815",
  "version": 1,
  "locktime": 0,
  "vin": [
    {
      "txid": "51f70f1afdb43a1ba1e8efed4e638c58792c093e8073e32559f83d0f33f8e11b",
      "vout": 0,
      "prevout": {
        "scriptpubkey": "51208a3144e7e1b7208276ec08a122c7dea672c06f9f33b3d04f1f8754cda73e4252",
        "scriptpubkey_asm": "OP_PUSHNUM_1 OP_PUSHBYTES_32 8a3144e7e1b7208276ec08a122c7dea672c06f9f33b3d04f1f8754cda73e4252",
        "scriptpubkey_type": "v1_p2tr",
        "scriptpubkey_address": "bc1p3gc5felpkusgyahvpzsj93775eevqmulxweaqnclsa2vmfe7gffq6rukwy",
        "value": 2346
      },
      "scriptsig": "",
      "scriptsig_asm": "",
      "witness": [
        "1346516a7068fbbab64c00da1f44227039fc40f3d8a58689eaa3f782822d13167eeefbd70919e7ec29cb653ec4e1811541bb82986d8483f3390d0f07b251ef8e",
        "20f0e647d1a0a789278cf7da59800314bc60afe9a0f27da7dde641d29176ee0fadac0063036f726401010a746578742f706c61696e003e7b2270223a226272632d3230222c226f70223a227472616e73666572222c227469636b223a2253415453222c22616d74223a22313030303030303030227d68",
        "c1f0e647d1a0a789278cf7da59800314bc60afe9a0f27da7dde641d29176ee0fad"
      ],
      "is_coinbase": false,
      "sequence": 4294967293
    }
  ],
  "vout": [
    {
      "scriptpubkey": "512070b04fecfdf4bbd42128cd92706d6970258a982e8159526c9e74c6ab305ec8c5",
      "scriptpubkey_asm": "OP_PUSHNUM_1 OP_PUSHBYTES_32 70b04fecfdf4bbd42128cd92706d6970258a982e8159526c9e74c6ab305ec8c5",
      "scriptpubkey_type": "v1_p2tr",
      "scriptpubkey_address": "bc1pwzcylm8a7jaaggfgekf8qmtfwqjc4xpws9v4ymy7wnr2kvz7erzsy76kvy",
      "value": 546
    }
  ],
  "size": 315,
  "weight": 597,
  "fee": 1800,
  "status": {
    "confirmed": true,
    "block_height": 834460,
    "block_hash": "00000000000000000000484a79b643b2524bbce82e5d8a442013fa5b8905ed98",
    "block_time": 1710307468
  },
  "hex": "010000000001011be1f8330f3df85925e373803e092c79588c634eedefe8a11b3ab4fd1a0ff7510000000000fdffffff01220200000000000022512070b04fecfdf4bbd42128cd92706d6970258a982e8159526c9e74c6ab305ec8c503401346516a7068fbbab64c00da1f44227039fc40f3d8a58689eaa3f782822d13167eeefbd70919e7ec29cb653ec4e1811541bb82986d8483f3390d0f07b251ef8e7620f0e647d1a0a789278cf7da59800314bc60afe9a0f27da7dde641d29176ee0fadac0063036f726401010a746578742f706c61696e003e7b2270223a226272632d3230222c226f70223a227472616e73666572222c227469636b223a2253415453222c22616d74223a22313030303030303030227d6821c1f0e647d1a0a789278cf7da59800314bc60afe9a0f27da7dde641d29176ee0fad00000000"
}