{
  "txid": "1a516bec4ff0b77e462dbb992276c2ba4e659c0d2a79602ea5bb76a5a4d65454",
  "version": 2,
  "locktime": 0,
  "vin": [
    {
      "txid": "52315209f35f31f2be2aaca425f314a11709dc1e63d0796b9fc2b0aa60d36cca",
      "vout": 3,
      "prevout": {
        "scriptpubkey": "51202d071a3b480cd9b47db94593e4592074b81d5edaec2e007722cfb1058d63912e",
        "scriptpubkey_asm": "OP_PUSHNUM_1 OP_PUSHBYTES_32 2d071a3b480cd9b47db94593e4592074b81d5edaec2e007722cfb1058d63912e",
        "scriptpubkey_type": "v1_p2tr",
        "scriptpubkey_address": "bc1p95r35w6gpnvmgldegkf7gkfqwjup6hk6ashqqaeze7cstrtrjyhqnjkr68",
        "value": 688591
      },
      "scriptsig": "",
      "scriptsig_asm": "",
      "witness": [
        "c43dff92b5df7cf8e6fcc4757ee182dbcc17350e1324977e711bda24a178087d88dc62e58495e60385ba5c11a5a3d826534dc8837861c4b24b07420ab1ba8433"
      ],
      "is_coinbase": false,
      "sequence": 4294967295
    },
    {
      "txid": "83f74290d6b39748ab875166df4b9391d823a905ce9f0185711323c988652d26",
      "vout": 0,
      "prevout": {
        "scriptpubkey": "001498e44f85d38486b28bfc804c364b854586ab7ac7",
        "scriptpubkey_asm": "OP_0 OP_PUSHBYTES_20 98e44f85d38486b28bfc804c364b854586ab7ac7",
        "scriptpubkey_type": "v0_p2wpkh",
        "scriptpubkey_address": "bc1qnrjylpwnsjrt9zluspxrvju9gkr2k7k8g0rdv9",
        "value": 100000
      },
      "scriptsig": "",
      "scriptsig_asm": "",
      "witness": [
        "304402201dc3cff2f4bc81ec246b027a4de471addeb52e43b45927f2ada5883af69deacb022029806f50116b0b4966826463b518489414a6504a438f66c1839d9d2f1dfa305583",
        "039265d33e9ff3cda18723b9c3589ab6aba4e749d9efc61b680a0579622c6d8dba"
      ],
      "is_coinbase": false,
      "sequence": 4294967295
    }
  ],
  "vout": [
    {
      "scriptpubkey": "51202d071a3b480cd9b47db94593e4592074b81d5edaec2e007722cfb1058d63912e",
      "scriptpubkey_asm": "OP_PUSHNUM_1 OP_PUSHBYTES_32 2d071a3b480cd9b47db94593e4592074b81d5edaec2e007722cfb1058d63912e",
      "scriptpubkey_type": "v1_p2tr",
      "scriptpubkey_address": "bc1p95r35w6gpnvmgldegkf7gkfqwjup6hk6ashqqaeze7cstrtrjyhqnjkr68",
      "value": 100000
    },
    {
      "scriptpubkey": "001498e44f85d38486b28bfc804c364b854586ab7ac7",
      "scriptpubkey_asm": "OP_0 OP_PUSHBYTES_20 98e44f85d38486b28bfc804c364b854586ab7ac7",
      "scriptpubkey_type": "v0_p2wpkh",
      "scriptpubkey_address": "bc1qnrjylpwnsjrt9zluspxrvju9gkr2k7k8g0rdv9",
      "value": 100899
    },
    {
      "scriptpubkey": "0014e5cb2de82fd4c136218c67a310fde879344c1bef",
      "scriptpubkey_asm": "OP_0 OP_PUSHBYTES_20 e5cb2de82fd4c136218c67a310fde879344c1bef",
      "scriptpubkey_type": "v0_p2wpkh",
      "scriptpubkey_address": "bc1quh9jm6p06nqnvgvvv733pl0g0y6ycxl0aas2t4",
      "value": 2017
    },
    {
      "scriptpubkey": "51202d071a3b480cd9b47db94593e4592074b81d5edaec2e007722cfb1058d63912e",
      "scriptpubkey_asm": "OP_PUSHNUM_1 OP_PUSHBYTES_32 2d071a3b480cd9b47db94593e4592074b81d5edaec2e007722cfb1058d63912e",
      "scriptpubkey_type": "v1_p2tr",
      "scriptpubkey_address": "bc1p95r35w6gpnvmgldegkf7gkfqwjup6hk6ashqqaeze7cstrtrjyhqnjkr68",
      "value": 582031
    }
  ],
  "size": 415,
  "weight": 1135,
  "fee": 3644,
  "status": {
    "confirmed": true,
    "block_height": 834460,
    "block_hash": "00000000000000000000484a79b643b2524bbce82e5d8a442013fa5b8905ed98",
    "block_time": 1710307468
  },
  "hex": "02000000000102ca6cd360aab0c29f6b79d0631edc0917a114f325a4ac2abef2315ff3095231520300000000ffffffff262d6588c923137185019fce05a923d891934bdf665187ab4897b3d69042f7830000000000ffffffff04a0860100000000002251202d071a3b480cd9b47db94593e4592074b81d5edaec2e007722cfb1058d63912e238a01000000000016001498e44f85d38486b28bfc804c364b854586ab7ac7e107000000000000160014e5cb2de82fd4c136218c67a310fde879344c1bef8fe10800000000002251202d071a3b480cd9b47db94593e4592074b81d5edaec2e007722cfb1058d63912e0140c43dff92b5df7cf8e6fcc4757ee182dbcc17350e1324977e711bda24a178087d88dc62e58495e60385ba5c11a5a3d826534dc8837861c4b24b07420ab1ba84330247304402201dc3cff2f4bc81ec246b027a4de471addeb52e43b45927f2ada5883af69deacb022029806f50116b0b4966826463b518489414a6504a438f66c1839d9d2f1dfa30558321039265d33e9ff3cda18723b9c3589ab6aba4e749d9efc61b680a0579622c6d8dba00000000"
}