{
  "txid": "1a5627d7132751ed567d8144723ead630341d4f3f9916f392c6735d9837081ac",
  "version": 1,
  "locktime": 0,
  "vin": [
    {
      "txid": "29c1da61a7f859bfb198406cdaf333eb2dffb0878217e9a91b0451d225f3b985",
      "vout": 828,
      "prevout": {
        "scriptpubkey": "0014dbb89f1245e02e2301a0923c17751257258d6025",
        "scriptpubkey_asm": "OP_0 OP_PUSHBYTES_20 dbb89f1245e02e2301a0923c17751257258d6025",
        "scriptpubkey_type": "v0_p2wpkh",
        "scriptpubkey_address": "bc1qmwuf7yj9uqhzxqdqjg7pwagj2ujc6cp9gh3u8e",
        "value": 101570
      },
      "scriptsig": "",
      "scriptsig_asm": "",
      "witness": [
        "30450221008416b1bb39bf6f691a12165af43255385570addaea1238018e09ef0e14e0eec5022023aef59b762d705cc0fd66b19b324d853fd97000dc81fbf5245abec62aa9416001",
        "03b4500ce1f04fa7ef73e282ae06f235b1745d7238b58c88804043bb38cd8a4aa2"
      ],
      "is_coinbase": false,
      "sequence": 0
    }
  ],
  "vout": [
    {
      "scriptpubkey": "76a914b11f22a61bfe9062d68bfbe8dd7a6ab151e692ec88ac",
      "scriptpubkey_asm": "OP_DUP OP_HASH160 OP_PUSHBYTES_20 b11f22a61bfe9062d68bfbe8dd7a6ab151e692ec OP_EQUALVERIFY OP_CHECKSIG",
      "scriptpubkey_type": "p2pkh",
      "scriptpubkey_address": "1H9XuGztQcwM2uU9UyzXgxzpizWgiYJQ8Z",
      "value": 98519
    }
  ],
  "size": 195,
  "weight": 450,
  "fee": 3051,
  "status": {
    "confirmed": true,
    "block_height": 834638,
    "block_hash": "000000000000000000025f742c626208ac87e0b7d15054abb4a19ca2d735a54e",
    "block_time": 1710405325
  },
  "hex": "0100000000010185b9f325d251041ba9e9178287b0ff2deb33f3da6c4098b1bf59f8a761dac1293c030000000000000001d7800100000000001976a914b11f22a61bfe9062d68bfbe8dd7a6ab151e692ec88ac024830450221008416b1bb39bf6f691a12165af43255385570addaea1238018e09ef0e14e0eec5022023aef59b762d705cc0fd66b19b324d853fd97000dc81fbf5245abec62aa94160012103b4500ce1f04fa7ef73e282ae06f235b1745d7238b58c88804043bb38cd8a4aa200000000"
}