{
  "txid": "1a5885d1f39100f12e8646d096426335f8e76fed0cf63dad0f95642f9b3cbbb1",
  "version": 2,
  "locktime": 0,
  "vin": [
    {
      "txid": "d1f2e56bb0b5c87466a28cf0fb59f1bc198978e6338eafb988f343191f77d743",
      "vout": 2,
      "prevout": {
        "scriptpubkey": "51204721ad60641005445e5e053eda236a650a587ce62bcfa24ebd6023a00cd89b40",
        "scriptpubkey_asm": "OP_PUSHNUM_1 OP_PUSHBYTES_32 4721ad60641005445e5e053eda236a650a587ce62bcfa24ebd6023a00cd89b40",
        "scriptpubkey_type": "v1_p2tr",
        "scriptpubkey_address": "bc1pgus66cryzqz5ghj7q5ld5gm2v599sl8x9086yn4avq36qrxcndqq8xe653",
        "value": 3093
      },
      "scriptsig": "",
      "scriptsig_asm": "",
      "witness": [
        "64ce5dddc23b54e8ad655abdcb9930c13bfd8abf1df1995dc0a754956cbbeca108fb8e5c241c0291477a3944897bd747d83fe7097347a6e9984e0c880c45fa10",
        "208057c0d51199858280f1f556eddbe243577e88a28777bdb38a683689c16c4c9cac0063036f726401010a746578742f706c61696e004c8f7b2270223a2022746170222c20226f70223a2022646d742d6d696e74222c2022646570223a2022333962373532343338626533613435326464623731376230613635346233313662316164343661383139656234343831383933626337313331663738396539616930222c20227469636b223a20226e61746f776c73222c2022626c6b223a2022373036323632227d68",
        "c18057c0d51199858280f1f556eddbe243577e88a28777bdb38a683689c16c4c9c"
      ],
      "is_coinbase": false,
      "sequence": 4294967293
    }
  ],
  "vout": [
    {
      "scriptpubkey": "51202c5c7b584418f7df16e266886880e520a408eb99881dc4d7bb8770bb5b3cbbc9",
      "scriptpubkey_asm": "OP_PUSHNUM_1 OP_PUSHBYTES_32 2c5c7b584418f7df16e266886880e520a408eb99881dc4d7bb8770bb5b3cbbc9",
      "scriptpubkey_type": "v1_p2tr",
      "scriptpubkey_address": "bc1p93w8kkzyrrma79hzv6yx3q89yzjq36ue3qwuf4amsactkkeuh0ysjzsu97",
      "value": 546
    }
  ],
  "size": 397,
  "weight": 679,
  "fee": 2547,
  "status": {
    "confirmed": true,
    "block_height": 834464,
    "block_hash": "0000000000000000000177a0869a911a2b65c9bdcd5a8bcb02b68f305bee848e",
    "block_time": 1710308296
  },
  "hex": "0200000000010143d7771f1943f388b9af8e33e6788919bcf159fbf08ca26674c8b5b06be5f2d10200000000fdffffff0122020000000000002251202c5c7b584418f7df16e266886880e520a408eb99881dc4d7bb8770bb5b3cbbc9034064ce5dddc23b54e8ad655abdcb9930c13bfd8abf1df1995dc0a754956cbbeca108fb8e5c241c0291477a3944897bd747d83fe7097347a6e9984e0c880c45fa10c8208057c0d51199858280f1f556eddbe243577e88a28777bdb38a683689c16c4c9cac0063036f726401010a746578742f706c61696e004c8f7b2270223a2022746170222c20226f70223a2022646d742d6d696e74222c2022646570223a2022333962373532343338626533613435326464623731376230613635346233313662316164343661383139656234343831383933626337313331663738396539616930222c20227469636b223a20226e61746f776c73222c2022626c6b223a2022373036323632227d6821c18057c0d51199858280f1f556eddbe243577e88a28777bdb38a683689c16c4c9c00000000"
}