{
  "txid": "1a64a5e51b9dd78c91c57ca0fc99736563dec32d9243e4b0560369006fa5f016",
  "version": 2,
  "locktime": 0,
  "vin": [
    {
      "txid": "3f3892df496e1b34c01b3c326864294b3767b0bdb1f117fbffda41f48b8979ca",
      "vout": 12,
      "prevout": {
        "scriptpubkey": "5120b0a9a893b844d03abd8ab9ed4a5034ddf149e3d18077d1dce91b3e1507829459",
        "scriptpubkey_asm": "OP_PUSHNUM_1 OP_PUSHBYTES_32 b0a9a893b844d03abd8ab9ed4a5034ddf149e3d18077d1dce91b3e1507829459",
        "scriptpubkey_type": "v1_p2tr",
        "scriptpubkey_address": "bc1pkz563yacgngr40v2h8k555p5mhc5nc73spmarh8frvlp2puzj3vsfe2xxm",
        "value": 2509
      },
      "scriptsig": "",
      "scriptsig_asm": "",
      "witness": [
        "3b713d081da36e24652162e1effe08a550628794dfff5a7a6cbd5bb3f919281f77e8340f780d249a76ed32a59b783d29cd458582ca8d6ac4c2ec5659b8b63e99",
        "20807eecd9f68b0bba2af080f55f6e90d2ff6e4bc6a2b9d5c18035be92361cbefbac0063036f7264010118746578742f706c61696e3b636861727365743d7574662d3800357b2270223a224252432d313030222c226f70223a226d696e74222c227469636b223a22696e73222c22616d74223a2231303030227d68",
        "c0807eecd9f68b0bba2af080f55f6e90d2ff6e4bc6a2b9d5c18035be92361cbefb"
      ],
      "is_coinbase": false,
      "sequence": 4294967293
    }
  ],
  "vout": [
    {
      "scriptpubkey": "5120587658643214cea8bdeda9f58ebb634470db567fff306e1ab97afe76be4e99bf",
      "scriptpubkey_asm": "OP_PUSHNUM_1 OP_PUSHBYTES_32 587658643214cea8bdeda9f58ebb634470db567fff306e1ab97afe76be4e99bf",
      "scriptpubkey_type": "v1_p2tr",
      "scriptpubkey_address": "bc1ptpm9sepjzn82300d486cawmrg3cdk4nllucxux4e0tl8d0jwnxlsrmxpea",
      "value": 546
    }
  ],
  "size": 320,
  "weight": 602,
  "fee": 1963,
  "status": {
    "confirmed": true,
    "block_height": 834552,
    "block_hash": "00000000000000000001dd0468a70c94f619251d286585cff57aeb4bd9ede330",
    "block_time": 1710355598
  },
  "hex": "02000000000101ca79898bf441dafffb17f1b1bdb067374b296468323c1bc0341b6e49df92383f0c00000000fdffffff012202000000000000225120587658643214cea8bdeda9f58ebb634470db567fff306e1ab97afe76be4e99bf03403b713d081da36e24652162e1effe08a550628794dfff5a7a6cbd5bb3f919281f77e8340f780d249a76ed32a59b783d29cd458582ca8d6ac4c2ec5659b8b63e997b20807eecd9f68b0bba2af080f55f6e90d2ff6e4bc6a2b9d5c18035be92361cbefbac0063036f7264010118746578742f706c61696e3b636861727365743d7574662d3800357b2270223a224252432d313030222c226f70223a226d696e74222c227469636b223a22696e73222c22616d74223a2231303030227d6821c0807eecd9f68b0bba2af080f55f6e90d2ff6e4bc6a2b9d5c18035be92361cbefb00000000"
}