{
  "txid": "1a80a66e26f329e57b136e1527582083ba7666299cdb9c7afedd83142abb2523",
  "version": 2,
  "locktime": 0,
  "vin": [
    {
      "txid": "a2477aa1d99d985ef98286333aed4fb70aa0fda499bda987a41b6f9318163b4b",
      "vout": 4,
      "prevout": {
        "scriptpubkey": "51209de30633e79082cbb14c545e287bb360a9a1b66eec9a53b8cf7c00f5cb2046f8",
        "scriptpubkey_asm": "OP_PUSHNUM_1 OP_PUSHBYTES_32 9de30633e79082cbb14c545e287bb360a9a1b66eec9a53b8cf7c00f5cb2046f8",
        "scriptpubkey_type": "v1_p2tr",
        "scriptpubkey_address": "bc1pnh3svvl8jzpvhv2v230zs7anvz56rdnwajd98wx00sq0tjeqgmuq4enu7w",
        "value": 600
      },
      "scriptsig": "",
      "scriptsig_asm": "",
      "witness": [
        "a1cc720002912938aa2173cb4baa0a151a8d9b8effb645f6494063dc2f84401aa579d160bd5a140b862ec63e6c07f37fcd4d50529e4c3b64e89e3e02ba1b8c1b"
      ],
      "is_coinbase": false,
      "sequence": 4294967295
    },
    {
      "txid": "a2477aa1d99d985ef98286333aed4fb70aa0fda499bda987a41b6f9318163b4b",
      "vout": 5,
      "prevout": {
        "scriptpubkey": "51209de30633e79082cbb14c545e287bb360a9a1b66eec9a53b8cf7c00f5cb2046f8",
        "scriptpubkey_asm": "OP_PUSHNUM_1 OP_PUSHBYTES_32 9de30633e79082cbb14c545e287bb360a9a1b66eec9a53b8cf7c00f5cb2046f8",
        "scriptpubkey_type": "v1_p2tr",
        "scriptpubkey_address": "bc1pnh3svvl8jzpvhv2v230zs7anvz56rdnwajd98wx00sq0tjeqgmuq4enu7w",
        "value": 600
      },
      "scriptsig": "",
      "scriptsig_asm": "",
      "witness": [
        "6cdca5bd0dee0c273d07b39cc99f35d13f5f4ae6234821cf73c4b7fdfd4700b933bba61d602cd302049df50255b2c281353383882579c519b369a2ee3e8ab13a"
      ],
      "is_coinbase": false,
      "sequence": 4294967295
    },
    {
      "txid": "02aa7abbf7479a94c24694b792153a8176491eee2fd780118dd09f085c26cca8",
      "vout": 2,
      "prevout": {
        "scriptpubkey": "0014b06d7c837c8aa5d9a1fc797312aaa394abb0e912",
        "scriptpubkey_asm": "OP_0 OP_PUSHBYTES_20 b06d7c837c8aa5d9a1fc797312aaa394abb0e912",
        "scriptpubkey_type": "v0_p2wpkh",
        "scriptpubkey_address": "bc1qkpkheqmu32jang0u09e3924rjj4mp6gj2c38wg",
        "value": 546
      },
      "scriptsig": "",
      "scriptsig_asm": "",
      "witness": [
        "3044022070242c249af866e2c606458337958c1b0bbb3c9ef99bbb9ebf3d7a7ec826a91a022067dc112027b08cb7859741177bbf2b39a92da96ef5cdeb4eac03a8ddddf712a283",
        "03950ff98bddd055f818bd3e0778bb571b4b01c8f5d31da2949e069f1d1d546643"
      ],
      "is_coinbase": false,
      "sequence": 4294967295
    },
    {
      "txid": "3d16c19e6417d9deb6bd6a2c5debdc78210ec96c6b1e673c2122556f35ece2cf",
      "vout": 2,
      "prevout": {
        "scriptpubkey": "51209de30633e79082cbb14c545e287bb360a9a1b66eec9a53b8cf7c00f5cb2046f8",
        "scriptpubkey_asm": "OP_PUSHNUM_1 OP_PUSHBYTES_32 9de30633e79082cbb14c545e287bb360a9a1b66eec9a53b8cf7c00f5cb2046f8",
        "scriptpubkey_type": "v1_p2tr",
        "scriptpubkey_address": "bc1pnh3svvl8jzpvhv2v230zs7anvz56rdnwajd98wx00sq0tjeqgmuq4enu7w",
        "value": 2209446
      },
      "scriptsig": "",
      "scriptsig_asm": "",
      "witness": [
        "fc32fd6b7d9012cd52e902be2f61d866bea3267d3a9e0834b702102881c35a5287743d288b8f82441237bdae9db60df55852a65ddf4944336144d3944bc61303"
      ],
      "is_coinbase": false,
      "sequence": 4294967295
    }
  ],
  "vout": [
    {
      "scriptpubkey": "51209de30633e79082cbb14c545e287bb360a9a1b66eec9a53b8cf7c00f5cb2046f8",
      "scriptpubkey_asm": "OP_PUSHNUM_1 OP_PUSHBYTES_32 9de30633e79082cbb14c545e287bb360a9a1b66eec9a53b8cf7c00f5cb2046f8",
      "scriptpubkey_type": "v1_p2tr",
      "scriptpubkey_address": "bc1pnh3svvl8jzpvhv2v230zs7anvz56rdnwajd98wx00sq0tjeqgmuq4enu7w",
      "value": 1200
    },
    {
      "scriptpubkey": "51209de30633e79082cbb14c545e287bb360a9a1b66eec9a53b8cf7c00f5cb2046f8",
      "scriptpubkey_asm": "OP_PUSHNUM_1 OP_PUSHBYTES_32 9de30633e79082cbb14c545e287bb360a9a1b66eec9a53b8cf7c00f5cb2046f8",
      "scriptpubkey_type": "v1_p2tr",
      "scriptpubkey_address": "bc1pnh3svvl8jzpvhv2v230zs7anvz56rdnwajd98wx00sq0tjeqgmuq4enu7w",
      "value": 546
    },
    {
      "scriptpubkey": "0014b06d7c837c8aa5d9a1fc797312aaa394abb0e912",
      "scriptpubkey_asm": "OP_0 OP_PUSHBYTES_20 b06d7c837c8aa5d9a1fc797312aaa394abb0e912",
      "scriptpubkey_type": "v0_p2wpkh",
      "scriptpubkey_address": "bc1qkpkheqmu32jang0u09e3924rjj4mp6gj2c38wg",
      "value": 1370000
    },
    {
      "scriptpubkey": "51209de30633e79082cbb14c545e287bb360a9a1b66eec9a53b8cf7c00f5cb2046f8",
      "scriptpubkey_asm": "OP_PUSHNUM_1 OP_PUSHBYTES_32 9de30633e79082cbb14c545e287bb360a9a1b66eec9a53b8cf7c00f5cb2046f8",
      "scriptpubkey_type": "v1_p2tr",
      "scriptpubkey_address": "bc1pnh3svvl8jzpvhv2v230zs7anvz56rdnwajd98wx00sq0tjeqgmuq4enu7w",
      "value": 600
    },
    {
      "scriptpubkey": "51209de30633e79082cbb14c545e287bb360a9a1b66eec9a53b8cf7c00f5cb2046f8",
      "scriptpubkey_asm": "OP_PUSHNUM_1 OP_PUSHBYTES_32 9de30633e79082cbb14c545e287bb360a9a1b66eec9a53b8cf7c00f5cb2046f8",
      "scriptpubkey_type": "v1_p2tr",
      "scriptpubkey_address": "bc1pnh3svvl8jzpvhv2v230zs7anvz56rdnwajd98wx00sq0tjeqgmuq4enu7w",
      "value": 600
    },
    {
      "scriptpubkey": "51209de30633e79082cbb14c545e287bb360a9a1b66eec9a53b8cf7c00f5cb2046f8",
      "scriptpubkey_asm": "OP_PUSHNUM_1 OP_PUSHBYTES_32 9de30633e79082cbb14c545e287bb360a9a1b66eec9a53b8cf7c00f5cb2046f8",
      "scriptpubkey_type": "v1_p2tr",
      "scriptpubkey_address": "bc1pnh3svvl8jzpvhv2v230zs7anvz56rdnwajd98wx00sq0tjeqgmuq4enu7w",
      "value": 830791
    }
  ],
  "size": 727,
  "weight": 1987,
  "fee": 7455,
  "status": {
    "confirmed": true,
    "block_height": 834638,
    "block_hash": "000000000000000000025f742c626208ac87e0b7d15054abb4a19ca2d735a54e",
    "block_time": 1710405325
  },
  "hex": "020000000001044b3b1618936f1ba487a9bd99a4fda00ab74fed3a338682f95e989dd9a17a47a20400000000ffffffff4b3b1618936f1ba487a9bd99a4fda00ab74fed3a338682f95e989dd9a17a47a20500000000ffffffffa8cc265c089fd08d1180d72fee1e4976813a1592b79446c2949a47f7bb7aaa020200000000ffffffffcfe2ec356f5522213c671e6b6cc90e2178dceb5d2c6abdb6ded917649ec1163d0200000000ffffffff06b0040000000000002251209de30633e79082cbb14c545e287bb360a9a1b66eec9a53b8cf7c00f5cb2046f822020000000000002251209de30633e79082cbb14c545e287bb360a9a1b66eec9a53b8cf7c00f5cb2046f890e7140000000000160014b06d7c837c8aa5d9a1fc797312aaa394abb0e91258020000000000002251209de30633e79082cbb14c545e287bb360a9a1b66eec9a53b8cf7c00f5cb2046f858020000000000002251209de30633e79082cbb14c545e287bb360a9a1b66eec9a53b8cf7c00f5cb2046f847ad0c00000000002251209de30633e79082cbb14c545e287bb360a9a1b66eec9a53b8cf7c00f5cb2046f80140a1cc720002912938aa2173cb4baa0a151a8d9b8effb645f6494063dc2f84401aa579d160bd5a140b862ec63e6c07f37fcd4d50529e4c3b64e89e3e02ba1b8c1b01406cdca5bd0dee0c273d07b39cc99f35d13f5f4ae6234821cf73c4b7fdfd4700b933bba61d602cd302049df50255b2c281353383882579c519b369a2ee3e8ab13a02473044022070242c249af866e2c606458337958c1b0bbb3c9ef99bbb9ebf3d7a7ec826a91a022067dc112027b08cb7859741177bbf2b39a92da96ef5cdeb4eac03a8ddddf712a2832103950ff98bddd055f818bd3e0778bb571b4b01c8f5d31da2949e069f1d1d5466430140fc32fd6b7d9012cd52e902be2f61d866bea3267d3a9e0834b702102881c35a5287743d288b8f82441237bdae9db60df55852a65ddf4944336144d3944bc6130300000000"
}