{
  "txid": "1a905d194085bc5f81a51d6c1410978f04193c410cafd322304c9d33ab6b23b6",
  "version": 2,
  "locktime": 834637,
  "vin": [
    {
      "txid": "927186a0a7da4559a3e8629cb09158dfddc228107f02b76f2946332204c33133",
      "vout": 1,
      "prevout": {
        "scriptpubkey": "0014ecab96ddf02b54ecaf178f03017be3c7afde9f38",
        "scriptpubkey_asm": "OP_0 OP_PUSHBYTES_20 ecab96ddf02b54ecaf178f03017be3c7afde9f38",
        "scriptpubkey_type": "v0_p2wpkh",
        "scriptpubkey_address": "bc1qaj4edh0s9d2wetch3upsz7lrc7haa8ecesa6gp",
        "value": 334012
      },
      "scriptsig": "",
      "scriptsig_asm": "",
      "witness": [
        "3044022050615bda89f26c40d2d2d7a9e1ded1e58b770dba3871c2cdcf1664a9180650b402203885e1373317bad7dc046e898ed4ffb01b4d9f320ed1e8fa8177e39714dc813301",
        "027199a78a7596526a3642d0bcc2de006be16f93a6176be7e5619960575d15feab"
      ],
      "is_coinbase": false,
      "sequence": 4294967293
    }
  ],
  "vout": [
    {
      "scriptpubkey": "a914d3c87c1a450c0437c582d00ed0d51ed9a342e6ce87",
      "scriptpubkey_asm": "OP_HASH160 OP_PUSHBYTES_20 d3c87c1a450c0437c582d00ed0d51ed9a342e6ce OP_EQUAL",
      "scriptpubkey_type": "p2sh",
      "scriptpubkey_address": "3Lzpfwqxpvr9qL2jJfUieGapvNMaEqeX3W",
      "value": 111280
    },
    {
      "scriptpubkey": "0014fd3f673da85bd51e50eb82531c6fc761efb0691a",
      "scriptpubkey_asm": "OP_0 OP_PUSHBYTES_20 fd3f673da85bd51e50eb82531c6fc761efb0691a",
      "scriptpubkey_type": "v0_p2wpkh",
      "scriptpubkey_address": "bc1ql5lkw0dgt023u58tsff3cm78v8hmq6g63g8c0f",
      "value": 220550
    }
  ],
  "size": 223,
  "weight": 565,
  "fee": 2182,
  "status": {
    "confirmed": true,
    "block_height": 834638,
    "block_hash": "000000000000000000025f742c626208ac87e0b7d15054abb4a19ca2d735a54e",
    "block_time": 1710405325
  },
  "hex": "020000000001013331c304223346296fb7027f1028c2dddf5891b09c62e8a35945daa7a08671920100000000fdffffff02b0b201000000000017a914d3c87c1a450c0437c582d00ed0d51ed9a342e6ce87865d030000000000160014fd3f673da85bd51e50eb82531c6fc761efb0691a02473044022050615bda89f26c40d2d2d7a9e1ded1e58b770dba3871c2cdcf1664a9180650b402203885e1373317bad7dc046e898ed4ffb01b4d9f320ed1e8fa8177e39714dc81330121027199a78a7596526a3642d0bcc2de006be16f93a6176be7e5619960575d15feab4dbc0c00"
}