{
  "txid": "1aae2f09204bd29c25467c394b0c82404748e42e9a06cc6c391f5930b2e15648",
  "version": 2,
  "locktime": 0,
  "vin": [
    {
      "txid": "b13bb5512a4904c28a6b7957b88edf574e8cb23551fc1dcfe22d6b239df42cf4",
      "vout": 38,
      "prevout": {
        "scriptpubkey": "512079c8ee71d0a6eeb60423f03a5bd031cf953255060579517d2123fb5b28ba6c33",
        "scriptpubkey_asm": "OP_PUSHNUM_1 OP_PUSHBYTES_32 79c8ee71d0a6eeb60423f03a5bd031cf953255060579517d2123fb5b28ba6c33",
        "scriptpubkey_type": "v1_p2tr",
        "scriptpubkey_address": "bc1p08ywuuws5mhtvppr7qa9h5p3e72ny4gxq4u4zlfpy0a4k296dsesumqjev",
        "value": 2575
      },
      "scriptsig": "",
      "scriptsig_asm": "",
      "witness": [
        "cb9b0991d27605f09d6b6875a006326f14a5335ccba94cc50d7575dacc439a55a5cb2ed3de808a5478962e112f2cee093966af57963a49161e1de7477d4926ba",
        "2028ddc6b8cd27e5032e2402cddbf62dd4d98757b94f1428852840adf3aa21253aac0063036f726401010a746578742f706c61696e00367b2270223a226272632d3230222c226f70223a226d696e74222c227469636b223a2261616161222c22616d74223a223130303030227d68",
        "c128ddc6b8cd27e5032e2402cddbf62dd4d98757b94f1428852840adf3aa21253a"
      ],
      "is_coinbase": false,
      "sequence": 4261412863
    }
  ],
  "vout": [
    {
      "scriptpubkey": "0014ce0b5aa0dac72397a8aa5a85d90a2cfb46f0f630",
      "scriptpubkey_asm": "OP_0 OP_PUSHBYTES_20 ce0b5aa0dac72397a8aa5a85d90a2cfb46f0f630",
      "scriptpubkey_type": "v0_p2wpkh",
      "scriptpubkey_address": "bc1qec944gx6cu3e0292t2zajz3vldr0pa3sh356d9",
      "value": 546
    }
  ],
  "size": 295,
  "weight": 541,
  "fee": 2029,
  "status": {
    "confirmed": true,
    "block_height": 834464,
    "block_hash": "0000000000000000000177a0869a911a2b65c9bdcd5a8bcb02b68f305bee848e",
    "block_time": 1710308296
  },
  "hex": "02000000000101f42cf49d236b2de2cf1dfc5135b28c4e57df8eb857796b8ac204492a51b53bb12600000000fffffffd012202000000000000160014ce0b5aa0dac72397a8aa5a85d90a2cfb46f0f6300340cb9b0991d27605f09d6b6875a006326f14a5335ccba94cc50d7575dacc439a55a5cb2ed3de808a5478962e112f2cee093966af57963a49161e1de7477d4926ba6e2028ddc6b8cd27e5032e2402cddbf62dd4d98757b94f1428852840adf3aa21253aac0063036f726401010a746578742f706c61696e00367b2270223a226272632d3230222c226f70223a226d696e74222c227469636b223a2261616161222c22616d74223a223130303030227d6821c128ddc6b8cd27e5032e2402cddbf62dd4d98757b94f1428852840adf3aa21253a00000000"
}