{
  "txid": "1ab4803a92eca1586329084df13a0e7876a8e144afd76951ae209222ea41c2ca",
  "version": 2,
  "locktime": 0,
  "vin": [
    {
      "txid": "f4f842eb867148c875473020426bad302cb6d53a2a511cfb98548aa0de351994",
      "vout": 1,
      "prevout": {
        "scriptpubkey": "00149c0a9f112688c85fcb4417b05c8dec775e4cab36",
        "scriptpubkey_asm": "OP_0 OP_PUSHBYTES_20 9c0a9f112688c85fcb4417b05c8dec775e4cab36",
        "scriptpubkey_type": "v0_p2wpkh",
        "scriptpubkey_address": "bc1qns9f7yfx3ry9lj6yz7c9er0vwa0ye2eklpzqfw",
        "value": 205845072
      },
      "scriptsig": "",
      "scriptsig_asm": "",
      "witness": [
        "304402206a779c346e715e7286ba20ce29521093ac6168fd018511f00b18248bcd7ad47d0220477e2d87cf17575b51a06572f2a7920df1a32f38d3bbff02e19899e5bb085ff701",
        "02616129debb96ad4f83f00ad5ef5d16ffd7878e7f5dcfb1b193451680631635ee"
      ],
      "is_coinbase": false,
      "sequence": 4294967293
    }
  ],
  "vout": [
    {
      "scriptpubkey": "0014df235a1cb2df5d3c670d40abdd58dcb69f01a1c0",
      "scriptpubkey_asm": "OP_0 OP_PUSHBYTES_20 df235a1cb2df5d3c670d40abdd58dcb69f01a1c0",
      "scriptpubkey_type": "v0_p2wpkh",
      "scriptpubkey_address": "bc1qmu34589jmawncecdgz4a6kxuk60srgwqgegmpy",
      "value": 35333
    },
    {
      "scriptpubkey": "00149c0a9f112688c85fcb4417b05c8dec775e4cab36",
      "scriptpubkey_asm": "OP_0 OP_PUSHBYTES_20 9c0a9f112688c85fcb4417b05c8dec775e4cab36",
      "scriptpubkey_type": "v0_p2wpkh",
      "scriptpubkey_address": "bc1qns9f7yfx3ry9lj6yz7c9er0vwa0ye2eklpzqfw",
      "value": 205807201
    }
  ],
  "size": 222,
  "weight": 561,
  "fee": 2538,
  "status": {
    "confirmed": true,
    "block_height": 834638,
    "block_hash": "000000000000000000025f742c626208ac87e0b7d15054abb4a19ca2d735a54e",
    "block_time": 1710405325
  },
  "hex": "02000000000101941935dea08a5498fb1c512a3ad5b62c30ad6b4220304775c8487186eb42f8f40100000000fdffffff02058a000000000000160014df235a1cb2df5d3c670d40abdd58dcb69f01a1c0615e440c000000001600149c0a9f112688c85fcb4417b05c8dec775e4cab360247304402206a779c346e715e7286ba20ce29521093ac6168fd018511f00b18248bcd7ad47d0220477e2d87cf17575b51a06572f2a7920df1a32f38d3bbff02e19899e5bb085ff7012102616129debb96ad4f83f00ad5ef5d16ffd7878e7f5dcfb1b193451680631635ee00000000"
}