{
  "txid": "1ab9a612073725423d6626148e72b4b69d00088bdd12340889a7efddbc8620d5",
  "version": 2,
  "locktime": 834637,
  "vin": [
    {
      "txid": "6495d86d2995256fd14b84d9e4f003892adc6a99a16739a6fc555621933d4214",
      "vout": 1,
      "prevout": {
        "scriptpubkey": "0014fdd67f0000b2cb5dcc7ed8b42c877d2aca56372c",
        "scriptpubkey_asm": "OP_0 OP_PUSHBYTES_20 fdd67f0000b2cb5dcc7ed8b42c877d2aca56372c",
        "scriptpubkey_type": "v0_p2wpkh",
        "scriptpubkey_address": "bc1qlht87qqqkt94mnr7mz6zepma9t99vdevqudqg9",
        "value": 777901808
      },
      "scriptsig": "",
      "scriptsig_asm": "",
      "witness": [
        "304402200ba45014c0e17eb3578504c27a5a2c51551c3f0f67aff919840ca9a896c80a9902203beedf79f33fe748fc96923ca305615262e8d728c3c8213438e9706163723f4b01",
        "02b9638a950c48776844f86b890319a0506cf17d8aba952fbecc1408f41eedc5b0"
      ],
      "is_coinbase": false,
      "sequence": 4294967294
    }
  ],
  "vout": [
    {
      "scriptpubkey": "0014418eda5ca342afe22a6e2fc9e625336d624bf761",
      "scriptpubkey_asm": "OP_0 OP_PUSHBYTES_20 418eda5ca342afe22a6e2fc9e625336d624bf761",
      "scriptpubkey_type": "v0_p2wpkh",
      "scriptpubkey_address": "bc1qgx8d5h9rg2h7y2nw9ly7vffnd43yhampc9qfz3",
      "value": 774870878
    },
    {
      "scriptpubkey": "76a9148bc46481f76f158c405458b6c5386e85931d6f3588ac",
      "scriptpubkey_asm": "OP_DUP OP_HASH160 OP_PUSHBYTES_20 8bc46481f76f158c405458b6c5386e85931d6f35 OP_EQUALVERIFY OP_CHECKSIG",
      "scriptpubkey_type": "p2pkh",
      "scriptpubkey_address": "1Dk2CGCayYgy2vhthYfYj4P15o492qRTZS",
      "value": 3027400
    }
  ],
  "size": 225,
  "weight": 573,
  "fee": 3530,
  "status": {
    "confirmed": true,
    "block_height": 834638,
    "block_hash": "000000000000000000025f742c626208ac87e0b7d15054abb4a19ca2d735a54e",
    "block_time": 1710405325
  },
  "hex": "0200000000010114423d93215655fca63967a1996adc2a8903f0e4d9844bd16f2595296dd895640100000000feffffff025e972f2e00000000160014418eda5ca342afe22a6e2fc9e625336d624bf761c8312e00000000001976a9148bc46481f76f158c405458b6c5386e85931d6f3588ac0247304402200ba45014c0e17eb3578504c27a5a2c51551c3f0f67aff919840ca9a896c80a9902203beedf79f33fe748fc96923ca305615262e8d728c3c8213438e9706163723f4b012102b9638a950c48776844f86b890319a0506cf17d8aba952fbecc1408f41eedc5b04dbc0c00"
}