{
  "txid": "1ac207c0dca85dc12d10a043aca99b5c9aaf583d2aa8fd41f41f9b31696963fe",
  "version": 1,
  "locktime": 0,
  "vin": [
    {
      "txid": "53007f5db38dea494b1b2b7f73e697bf2089fa8a7f9097e6cfab23df75d73ec0",
      "vout": 1,
      "prevout": {
        "scriptpubkey": "a914e9f2d9d071c4f9ba4cdc726bc75b9c52915dc30787",
        "scriptpubkey_asm": "OP_HASH160 OP_PUSHBYTES_20 e9f2d9d071c4f9ba4cdc726bc75b9c52915dc307 OP_EQUAL",
        "scriptpubkey_type": "p2sh",
        "scriptpubkey_address": "3P22Hp4VevL1ZXc35THECgXZiiMCyxJCYU",
        "value": 1650269
      },
      "scriptsig": "160014361d150428e70a87d582e03e6158ca551451929b",
      "scriptsig_asm": "OP_PUSHBYTES_22 0014361d150428e70a87d582e03e6158ca551451929b",
      "witness": [
        "3044022067836f6f01882603b1da50e7b20659fdd2347ee35fc569e695364cebf38ff5af022012e15b0fbe03c446e91ad05bd87a49d1b5ab53ae6a3d898066ba656b2c8f0e9a01",
        "03d0f7dfdcf03e6d4574e7fb04133dd16cb18d9527a3caba8e84cf04caccde3879"
      ],
      "is_coinbase": false,
      "sequence": 4294967293,
      "inner_redeemscript_asm": "OP_0 OP_PUSHBYTES_20 361d150428e70a87d582e03e6158ca551451929b"
    }
  ],
  "vout": [
    {
      "scriptpubkey": "001482272d328ca0ac1702031ba6289a680940fc7fbb",
      "scriptpubkey_asm": "OP_0 OP_PUSHBYTES_20 82272d328ca0ac1702031ba6289a680940fc7fbb",
      "scriptpubkey_type": "v0_p2wpkh",
      "scriptpubkey_address": "bc1qsgnj6v5v5zkpwqsrrwnz3xngp9q0clamzn30gt",
      "value": 1335271
    },
    {
      "scriptpubkey": "a914126d828a63e3981d59efb3984631b9930e2c3ee887",
      "scriptpubkey_asm": "OP_HASH160 OP_PUSHBYTES_20 126d828a63e3981d59efb3984631b9930e2c3ee8 OP_EQUAL",
      "scriptpubkey_type": "p2sh",
      "scriptpubkey_address": "33NTGsyK5YPpkVdY8kvPdSWYP7hLyNZvJQ",
      "value": 311203
    }
  ],
  "size": 246,
  "weight": 657,
  "fee": 3795,
  "status": {
    "confirmed": true,
    "block_height": 834638,
    "block_hash": "000000000000000000025f742c626208ac87e0b7d15054abb4a19ca2d735a54e",
    "block_time": 1710405325
  },
  "hex": "01000000000101c03ed775df23abcfe697907f8afa8920bf97e6737f2b1b4b49ea8db35d7f00530100000017160014361d150428e70a87d582e03e6158ca551451929bfdffffff02e75f14000000000016001482272d328ca0ac1702031ba6289a680940fc7fbba3bf04000000000017a914126d828a63e3981d59efb3984631b9930e2c3ee88702473044022067836f6f01882603b1da50e7b20659fdd2347ee35fc569e695364cebf38ff5af022012e15b0fbe03c446e91ad05bd87a49d1b5ab53ae6a3d898066ba656b2c8f0e9a012103d0f7dfdcf03e6d4574e7fb04133dd16cb18d9527a3caba8e84cf04caccde387900000000"
}