{
  "txid": "1ad85e67ca2e0d36ce4d44cc442a73a8c067aac3bc15a1aa339b081f78bdb1dc",
  "version": 1,
  "locktime": 0,
  "vin": [
    {
      "txid": "888888888dc9f154173c3e0748c369cfa919f59fa6c71e6f6e3569d0e65ce8ba",
      "vout": 0,
      "prevout": {
        "scriptpubkey": "5120b88700b6ea3284c85629a98de76700516cd52eaeabb6312c44a906d0d9d8195b",
        "scriptpubkey_asm": "OP_PUSHNUM_1 OP_PUSHBYTES_32 b88700b6ea3284c85629a98de76700516cd52eaeabb6312c44a906d0d9d8195b",
        "scriptpubkey_type": "v1_p2tr",
        "scriptpubkey_address": "bc1phzrspdh2x2zvs43f4xx7wecq29kd2t4w4wmrztzy4yrdpkwcr9ds7dkwz7",
        "value": 12071
      },
      "scriptsig": "",
      "scriptsig_asm": "",
      "witness": [
        "300cbece15962af84b1109abdfdd6b16aa7abf7dbdeffd9bb908125cfe887869bce7fe6930b57b447cf3c4d884d7fd7da88f88ba8d33443860930d8c479ceb95",
        "203060b2bad7c5f4c7e5fb42222f243a95cb39ec6c0ff7fb8dcd2f3870241a6396ac00630461746f6d03646d7446a16461726773a46474696d651a65f133a4656e6f6e63651a0001002068626974776f726b636b3838383838383838382e386b6d696e745f7469636b657268696e66696e69747968",
        "c03060b2bad7c5f4c7e5fb42222f243a95cb39ec6c0ff7fb8dcd2f3870241a6396"
      ],
      "is_coinbase": false,
      "sequence": 4294967295
    }
  ],
  "vout": [
    {
      "scriptpubkey": "512093db24fa9a31d03624560c24bc678ef6143e8cbb4fe9cd39f5f731f7beabf37e",
      "scriptpubkey_asm": "OP_PUSHNUM_1 OP_PUSHBYTES_32 93db24fa9a31d03624560c24bc678ef6143e8cbb4fe9cd39f5f731f7beabf37e",
      "scriptpubkey_type": "v1_p2tr",
      "scriptpubkey_address": "bc1pj0djf756x8grvfzkpsjtceuw7c2rar9mfl5u6w047ucl004t7dlqge98q0",
      "value": 9999
    }
  ],
  "size": 314,
  "weight": 596,
  "fee": 2072,
  "status": {
    "confirmed": true,
    "block_height": 834460,
    "block_hash": "00000000000000000000484a79b643b2524bbce82e5d8a442013fa5b8905ed98",
    "block_time": 1710307468
  },
  "hex": "01000000000101bae85ce6d069356e6f1ec7a69ff519a9cf69c348073e3c1754f1c98d888888880000000000ffffffff010f2700000000000022512093db24fa9a31d03624560c24bc678ef6143e8cbb4fe9cd39f5f731f7beabf37e0340300cbece15962af84b1109abdfdd6b16aa7abf7dbdeffd9bb908125cfe887869bce7fe6930b57b447cf3c4d884d7fd7da88f88ba8d33443860930d8c479ceb9575203060b2bad7c5f4c7e5fb42222f243a95cb39ec6c0ff7fb8dcd2f3870241a6396ac00630461746f6d03646d7446a16461726773a46474696d651a65f133a4656e6f6e63651a0001002068626974776f726b636b3838383838383838382e386b6d696e745f7469636b657268696e66696e6974796821c03060b2bad7c5f4c7e5fb42222f243a95cb39ec6c0ff7fb8dcd2f3870241a639600000000"
}