{
  "txid": "1ae1d54c53aa2010e7e172cd736b28cfba30346c605e74bbfc58114eb1f9f1aa",
  "version": 1,
  "locktime": 0,
  "vin": [
    {
      "txid": "d6b5f4ec73389a64e251ba4f73155cbf48b6f3877c5cafa619eae07153a2baf3",
      "vout": 1,
      "prevout": {
        "scriptpubkey": "001452ae1f4d4775ed4b96a22c59b7d2e93284681f1d",
        "scriptpubkey_asm": "OP_0 OP_PUSHBYTES_20 52ae1f4d4775ed4b96a22c59b7d2e93284681f1d",
        "scriptpubkey_type": "v0_p2wpkh",
        "scriptpubkey_address": "bc1q22hp7n28whk5h94z93vm05hfx2zxs8ca9gglk7",
        "value": 161780584
      },
      "scriptsig": "",
      "scriptsig_asm": "",
      "witness": [
        "304402204f7dcadfad8472b8047d9ea94e711c3c445a345f159a7349edfd1d3c25e76f26022032983ee4c2bc018563bc552c527f3eadc668fee6dbf07175b8efe3bb30e8005901",
        "023d41af70aeb0c7da84da0bfed4153a8792029ff94976b726d6e56819b0a66c96"
      ],
      "is_coinbase": false,
      "sequence": 4294967295
    }
  ],
  "vout": [
    {
      "scriptpubkey": "00141963a6372e29c5cba60d79c8db562b3cbf253692",
      "scriptpubkey_asm": "OP_0 OP_PUSHBYTES_20 1963a6372e29c5cba60d79c8db562b3cbf253692",
      "scriptpubkey_type": "v0_p2wpkh",
      "scriptpubkey_address": "bc1qr936vdew98zuhfsd08ydk43t8jlj2d5jjtpwgl",
      "value": 770859
    },
    {
      "scriptpubkey": "001452ae1f4d4775ed4b96a22c59b7d2e93284681f1d",
      "scriptpubkey_asm": "OP_0 OP_PUSHBYTES_20 52ae1f4d4775ed4b96a22c59b7d2e93284681f1d",
      "scriptpubkey_type": "v0_p2wpkh",
      "scriptpubkey_address": "bc1q22hp7n28whk5h94z93vm05hfx2zxs8ca9gglk7",
      "value": 161007610
    }
  ],
  "size": 222,
  "weight": 561,
  "fee": 2115,
  "status": {
    "confirmed": true,
    "block_height": 834460,
    "block_hash": "00000000000000000000484a79b643b2524bbce82e5d8a442013fa5b8905ed98",
    "block_time": 1710307468
  },
  "hex": "01000000000101f3baa25371e0ea19a6af5c7c87f3b648bf5c15734fba51e2649a3873ecf4b5d60100000000ffffffff022bc30b00000000001600141963a6372e29c5cba60d79c8db562b3cbf253692fac798090000000016001452ae1f4d4775ed4b96a22c59b7d2e93284681f1d0247304402204f7dcadfad8472b8047d9ea94e711c3c445a345f159a7349edfd1d3c25e76f26022032983ee4c2bc018563bc552c527f3eadc668fee6dbf07175b8efe3bb30e800590121023d41af70aeb0c7da84da0bfed4153a8792029ff94976b726d6e56819b0a66c9600000000"
}