{
  "txid": "1ae70dac2bec10471aef198e3b97683600dd1947797b13d0b2ded06ca089fc7d",
  "version": 2,
  "locktime": 0,
  "vin": [
    {
      "txid": "8486ecb4df0880316dd6e82b3971b4df187aff23765bc3a47f8d78bb53aa273c",
      "vout": 59,
      "prevout": {
        "scriptpubkey": "5120ef2fa367768e1e3f486d5fd8997ef303c29a6e0c6749c33d2caada5530a97e12",
        "scriptpubkey_asm": "OP_PUSHNUM_1 OP_PUSHBYTES_32 ef2fa367768e1e3f486d5fd8997ef303c29a6e0c6749c33d2caada5530a97e12",
        "scriptpubkey_type": "v1_p2tr",
        "scriptpubkey_address": "bc1pauh6xemk3c0r7jrdtlvfjlhnq0pf5msvvayux0fv4td92v9f0cfqsu9rpr",
        "value": 2575
      },
      "scriptsig": "",
      "scriptsig_asm": "",
      "witness": [
        "482d54aea40c9007045c4c1d25a302c29152807699dee8d484bbb7adca69f7de84e9d8890b589f1a92b470dcf7227e0ffc170555818a14c02ce67e51ab7b1a22",
        "20cef6dcae1a434c26846d9d0464c5917f941577667cedb214c8fe0027f5e20662ac0063036f726401010a746578742f706c61696e00367b2270223a226272632d3230222c226f70223a226d696e74222c227469636b223a2261616161222c22616d74223a223130303030227d68",
        "c0cef6dcae1a434c26846d9d0464c5917f941577667cedb214c8fe0027f5e20662"
      ],
      "is_coinbase": false,
      "sequence": 4261412863
    }
  ],
  "vout": [
    {
      "scriptpubkey": "0014ddd7ef12ea6f78edcc1e8e7afa12c01ab59f3339",
      "scriptpubkey_asm": "OP_0 OP_PUSHBYTES_20 ddd7ef12ea6f78edcc1e8e7afa12c01ab59f3339",
      "scriptpubkey_type": "v0_p2wpkh",
      "scriptpubkey_address": "bc1qmht77yh2dauwmnq73ea05ykqr26e7veea8spz6",
      "value": 546
    }
  ],
  "size": 295,
  "weight": 541,
  "fee": 2029,
  "status": {
    "confirmed": true,
    "block_height": 834460,
    "block_hash": "00000000000000000000484a79b643b2524bbce82e5d8a442013fa5b8905ed98",
    "block_time": 1710307468
  },
  "hex": "020000000001013c27aa53bb788d7fa4c35b7623ff7a18dfb471392be8d66d318008dfb4ec86843b00000000fffffffd012202000000000000160014ddd7ef12ea6f78edcc1e8e7afa12c01ab59f33390340482d54aea40c9007045c4c1d25a302c29152807699dee8d484bbb7adca69f7de84e9d8890b589f1a92b470dcf7227e0ffc170555818a14c02ce67e51ab7b1a226e20cef6dcae1a434c26846d9d0464c5917f941577667cedb214c8fe0027f5e20662ac0063036f726401010a746578742f706c61696e00367b2270223a226272632d3230222c226f70223a226d696e74222c227469636b223a2261616161222c22616d74223a223130303030227d6821c0cef6dcae1a434c26846d9d0464c5917f941577667cedb214c8fe0027f5e2066200000000"
}