{
  "txid": "1b1495e0e23613ec3a7ea731308fefe9ce3e235eaa0c1709008389ddab0a90d7",
  "version": 2,
  "locktime": 0,
  "vin": [
    {
      "txid": "acc3ba00869acb582a3f2904ce3a11dd3779350ce234063fc7d0959246213364",
      "vout": 74,
      "prevout": {
        "scriptpubkey": "5120f01c943bddf7c3ee1ab7359bf9ce5cd4a632bec0b4d994816ddcf6431bffd8c3",
        "scriptpubkey_asm": "OP_PUSHNUM_1 OP_PUSHBYTES_32 f01c943bddf7c3ee1ab7359bf9ce5cd4a632bec0b4d994816ddcf6431bffd8c3",
        "scriptpubkey_type": "v1_p2tr",
        "scriptpubkey_address": "bc1p7qwfgw7a7lp7ux4hxkdlnnju6jnr90kqknvefqtdmnmyxxllmrpskdlx75",
        "value": 1806
      },
      "scriptsig": "",
      "scriptsig_asm": "",
      "witness": [
        "6896189466754bd358d075f8bbff176b4fc13b880775a3a6191cc07d0f82bd775b7e566f04eec75cb79ae6eb265388361054313e0624400df6b198184f927f92",
        "205e1610a17b54f98b1b3766dddbb4bd963d258a6e29ec3fc60e47e7954fad03e4ac0063036f726401010a746578742f706c61696e00357b2270223a226272632d3230222c226f70223a226d696e74222c227469636b223a22646f6765222c22616d74223a2234323030227d68",
        "c15e1610a17b54f98b1b3766dddbb4bd963d258a6e29ec3fc60e47e7954fad03e4"
      ],
      "is_coinbase": false,
      "sequence": 4261412863
    }
  ],
  "vout": [
    {
      "scriptpubkey": "00147a665de7a370f4c9b372ab1fae587500a5bcbdb4",
      "scriptpubkey_asm": "OP_0 OP_PUSHBYTES_20 7a665de7a370f4c9b372ab1fae587500a5bcbdb4",
      "scriptpubkey_type": "v0_p2wpkh",
      "scriptpubkey_address": "bc1q0fn9mearwr6vnvmj4v06ukr4qzjme0d565dzcx",
      "value": 294
    }
  ],
  "size": 294,
  "weight": 540,
  "fee": 1512,
  "status": {
    "confirmed": true,
    "block_height": 834460,
    "block_hash": "00000000000000000000484a79b643b2524bbce82e5d8a442013fa5b8905ed98",
    "block_time": 1710307468
  },
  "hex": "02000000000101643321469295d0c73f0634e20c357937dd113ace04293f2a58cb9a8600bac3ac4a00000000fffffffd0126010000000000001600147a665de7a370f4c9b372ab1fae587500a5bcbdb403406896189466754bd358d075f8bbff176b4fc13b880775a3a6191cc07d0f82bd775b7e566f04eec75cb79ae6eb265388361054313e0624400df6b198184f927f926d205e1610a17b54f98b1b3766dddbb4bd963d258a6e29ec3fc60e47e7954fad03e4ac0063036f726401010a746578742f706c61696e00357b2270223a226272632d3230222c226f70223a226d696e74222c227469636b223a22646f6765222c22616d74223a2234323030227d6821c15e1610a17b54f98b1b3766dddbb4bd963d258a6e29ec3fc60e47e7954fad03e400000000"
}