{
  "txid": "1b1aad7d15d1f4c8a7117e093730e91d3c6056cdb933f4e9eb2fd05be7ca9f40",
  "version": 2,
  "locktime": 0,
  "vin": [
    {
      "txid": "e835c4d922fbed17c48b3bb466ba1ffc020ede84c1303bdb67ca1f883dd615bb",
      "vout": 18,
      "prevout": {
        "scriptpubkey": "5120c248df01ceb28ac2554aa7b2cd4ec46b5fbf71aa0520b2285106885dfd15c9bd",
        "scriptpubkey_asm": "OP_PUSHNUM_1 OP_PUSHBYTES_32 c248df01ceb28ac2554aa7b2cd4ec46b5fbf71aa0520b2285106885dfd15c9bd",
        "scriptpubkey_type": "v1_p2tr",
        "scriptpubkey_address": "bc1pcfyd7qwwk29vy42257ev6nkydd0m7ud2q5sty2z3q6y9mlg4ex7sxpvrux",
        "value": 3248
      },
      "scriptsig": "",
      "scriptsig_asm": "",
      "witness": [
        "a4ee375543aa57c681187f590f01c6272dfe22252faec18aa32389108071b2d2beeba0d7b0a1fc5e1d47ee8d49df855da07a4eb994b82bf1d1cef60210be8591",
        "20bfc1a224c70e34b89254ad6c7e107829e6652da7f45365862dd274146ed74b2aac0063036f726401011e6170706c69636174696f6e2f6a736f6e3b636861727365743d7574662d38004cd37b2270223a22706f772d3230222c226f70223a226d696e74222c227469636b223a2250455045222c22616d74223a2231303030222c22736f6c7574696f6e223a22504550453a626331703378336875706e76383064666366666c34333367327a3776713378706c63673364666d79716365336d6c6d6e78397767753872717265763032653a303030303030303030303030303030303030303139393431613561653132383937363539383134343239323533333030353762306461393666336465613163353a3631393532333932383230227d68",
        "c0bf69a78b1b6433fca38fda21525e43a6c565682ca08e513a8f66feb668723930"
      ],
      "is_coinbase": false,
      "sequence": 4294967295
    }
  ],
  "vout": [
    {
      "scriptpubkey": "512089a37e066c3bda9c253fac62850bcc044c1fe1116a76406331dff73315c8e1c6",
      "scriptpubkey_asm": "OP_PUSHNUM_1 OP_PUSHBYTES_32 89a37e066c3bda9c253fac62850bcc044c1fe1116a76406331dff73315c8e1c6",
      "scriptpubkey_type": "v1_p2tr",
      "scriptpubkey_address": "bc1p3x3hupnv80dfcffl433g2z7vq3xplcg3dfmyqce3mlmnx9wgu8rqrev02e",
      "value": 546
    }
  ],
  "size": 487,
  "weight": 769,
  "fee": 2702,
  "status": {
    "confirmed": true,
    "block_height": 834460,
    "block_hash": "00000000000000000000484a79b643b2524bbce82e5d8a442013fa5b8905ed98",
    "block_time": 1710307468
  },
  "hex": "02000000000101bb15d63d881fca67db3b30c184de0e02fc1fba66b43b8bc417edfb22d9c435e81200000000ffffffff01220200000000000022512089a37e066c3bda9c253fac62850bcc044c1fe1116a76406331dff73315c8e1c60340a4ee375543aa57c681187f590f01c6272dfe22252faec18aa32389108071b2d2beeba0d7b0a1fc5e1d47ee8d49df855da07a4eb994b82bf1d1cef60210be8591fd200120bfc1a224c70e34b89254ad6c7e107829e6652da7f45365862dd274146ed74b2aac0063036f726401011e6170706c69636174696f6e2f6a736f6e3b636861727365743d7574662d38004cd37b2270223a22706f772d3230222c226f70223a226d696e74222c227469636b223a2250455045222c22616d74223a2231303030222c22736f6c7574696f6e223a22504550453a626331703378336875706e76383064666366666c34333367327a3776713378706c63673364666d79716365336d6c6d6e78397767753872717265763032653a303030303030303030303030303030303030303139393431613561653132383937363539383134343239323533333030353762306461393666336465613163353a3631393532333932383230227d6821c0bf69a78b1b6433fca38fda21525e43a6c565682ca08e513a8f66feb66872393000000000"
}