{
  "txid": "1b25259739a4cb7863103bc3f259c929bc8296406f69bb15d102dbdbd823a84d",
  "version": 2,
  "locktime": 0,
  "vin": [
    {
      "txid": "873a7a121dc4a0ad1ce6f53a16a6c9c3cdf6f5b520e2fbb6b62c95e983d6bb26",
      "vout": 0,
      "prevout": {
        "scriptpubkey": "00145cf9b86c29e7a2ef8303c0271c019a460b11db13",
        "scriptpubkey_asm": "OP_0 OP_PUSHBYTES_20 5cf9b86c29e7a2ef8303c0271c019a460b11db13",
        "scriptpubkey_type": "v0_p2wpkh",
        "scriptpubkey_address": "bc1qtnumsmpfu73wlqcrcqn3cqv6gc93rkcns5rs5z",
        "value": 184880
      },
      "scriptsig": "",
      "scriptsig_asm": "",
      "witness": [
        "3045022100def6fcca406c064d2f35db3400760d94660831d9d1ff39dfcd104ea4d2a78547022045aa195f6e14896126599f156d81dc00af7bb781372af8c77c00195f2d20915401",
        "03b10673b587f90f3a357ef3d43258a9dd4217b5433c63499ae666db811a217ee0"
      ],
      "is_coinbase": false,
      "sequence": 4294967293
    }
  ],
  "vout": [
    {
      "scriptpubkey": "76a914c6b8125f41616355d94341f51a9fec336b38fd1e88ac",
      "scriptpubkey_asm": "OP_DUP OP_HASH160 OP_PUSHBYTES_20 c6b8125f41616355d94341f51a9fec336b38fd1e OP_EQUALVERIFY OP_CHECKSIG",
      "scriptpubkey_type": "p2pkh",
      "scriptpubkey_address": "1K7jJWkXZeHEUpnppT8mwHt2kyGDF1rbTF",
      "value": 183660
    }
  ],
  "size": 195,
  "weight": 450,
  "fee": 1220,
  "status": {
    "confirmed": true,
    "block_height": 834464,
    "block_hash": "0000000000000000000177a0869a911a2b65c9bdcd5a8bcb02b68f305bee848e",
    "block_time": 1710308296
  },
  "hex": "0200000000010126bbd683e9952cb6b6fbe220b5f5f6cdc3c9a6163af5e61cada0c41d127a3a870000000000fdffffff016ccd0200000000001976a914c6b8125f41616355d94341f51a9fec336b38fd1e88ac02483045022100def6fcca406c064d2f35db3400760d94660831d9d1ff39dfcd104ea4d2a78547022045aa195f6e14896126599f156d81dc00af7bb781372af8c77c00195f2d209154012103b10673b587f90f3a357ef3d43258a9dd4217b5433c63499ae666db811a217ee000000000"
}