{
  "txid": "1b29e19a7bc81304c6ff0f8bee5ed79a6158e80cbd2ccd68e53d2df5db4849f0",
  "version": 2,
  "locktime": 0,
  "vin": [
    {
      "txid": "21d9f36d3a8d53b6726e13336a572c5420556dd6c8637f129080ca7af36707bb",
      "vout": 1,
      "prevout": {
        "scriptpubkey": "5120d37af9cd7cadde2b10d924ffce73963cd38981814472e9de131c423cfc1a57a6",
        "scriptpubkey_asm": "OP_PUSHNUM_1 OP_PUSHBYTES_32 d37af9cd7cadde2b10d924ffce73963cd38981814472e9de131c423cfc1a57a6",
        "scriptpubkey_type": "v1_p2tr",
        "scriptpubkey_address": "bc1p6da0nntu4h0zkyxeynluuuuk8nfcnqvpg3ewnhsnr3prelq627nqg2s0jj",
        "value": 323702
      },
      "scriptsig": "",
      "scriptsig_asm": "",
      "witness": [
        "0d2cac8b27ca3529cb9124f9810596eedf9d9f10055892bf82168b798c8354c750f6fcfd7c3104a31efd6451e049ddfa0978b072ab73caf037c77caa8b4e0fd2"
      ],
      "is_coinbase": false,
      "sequence": 4294967295
    }
  ],
  "vout": [
    {
      "scriptpubkey": "a914d0c32dd93baa99457614b2f69964b48315d2e92287",
      "scriptpubkey_asm": "OP_HASH160 OP_PUSHBYTES_20 d0c32dd93baa99457614b2f69964b48315d2e922 OP_EQUAL",
      "scriptpubkey_type": "p2sh",
      "scriptpubkey_address": "3LirHj3tewZd1LoxzrZz19tFbkSziWk9PS",
      "value": 310000
    },
    {
      "scriptpubkey": "5120d37af9cd7cadde2b10d924ffce73963cd38981814472e9de131c423cfc1a57a6",
      "scriptpubkey_asm": "OP_PUSHNUM_1 OP_PUSHBYTES_32 d37af9cd7cadde2b10d924ffce73963cd38981814472e9de131c423cfc1a57a6",
      "scriptpubkey_type": "v1_p2tr",
      "scriptpubkey_address": "bc1p6da0nntu4h0zkyxeynluuuuk8nfcnqvpg3ewnhsnr3prelq627nqg2s0jj",
      "value": 11414
    }
  ],
  "size": 194,
  "weight": 572,
  "fee": 2288,
  "status": {
    "confirmed": true,
    "block_height": 834464,
    "block_hash": "0000000000000000000177a0869a911a2b65c9bdcd5a8bcb02b68f305bee848e",
    "block_time": 1710308296
  },
  "hex": "02000000000101bb0767f37aca8090127f63c8d66d5520542c576a33136e72b6538d3a6df3d9210100000000ffffffff02f0ba04000000000017a914d0c32dd93baa99457614b2f69964b48315d2e92287962c000000000000225120d37af9cd7cadde2b10d924ffce73963cd38981814472e9de131c423cfc1a57a601400d2cac8b27ca3529cb9124f9810596eedf9d9f10055892bf82168b798c8354c750f6fcfd7c3104a31efd6451e049ddfa0978b072ab73caf037c77caa8b4e0fd200000000"
}