{
  "txid": "1b389c93b9724d7a6183ff9d15cff8ecc79504d86de136c63211529a0ba6098a",
  "version": 2,
  "locktime": 834637,
  "vin": [
    {
      "txid": "fefbd2d62ae2be9de44b0d56ed182fe055d0bf580cae9b110ed723883588dfb2",
      "vout": 68,
      "prevout": {
        "scriptpubkey": "00142f369383549e597e4dccb0800af71e5b772ef1a2",
        "scriptpubkey_asm": "OP_0 OP_PUSHBYTES_20 2f369383549e597e4dccb0800af71e5b772ef1a2",
        "scriptpubkey_type": "v0_p2wpkh",
        "scriptpubkey_address": "bc1q9umf8q65nevhunwvkzqq4ac7tdmjaudzzch4ml",
        "value": 173367
      },
      "scriptsig": "",
      "scriptsig_asm": "",
      "witness": [
        "3045022100ca97d994f38a0557955b0aa7d0b5a25d12050ffc94854c30af832fe70b917ed1022012a59feb44fbe04c29f8b4e73961c2f7d07a433e877ff79e46f2b116fd884b4801",
        "027e0647ceebf85ab61a756118a6b9106ffb70c062dffd030ace6fbcf7cff85dee"
      ],
      "is_coinbase": false,
      "sequence": 4294967293
    }
  ],
  "vout": [
    {
      "scriptpubkey": "00143c51346c959e37f64681aac7e49df27a9fef5458",
      "scriptpubkey_asm": "OP_0 OP_PUSHBYTES_20 3c51346c959e37f64681aac7e49df27a9fef5458",
      "scriptpubkey_type": "v0_p2wpkh",
      "scriptpubkey_address": "bc1q83gngmy4ncmlv35p4tr7f80j020774zcpahc3z",
      "value": 68194
    },
    {
      "scriptpubkey": "0014731abc2316fbaa636227aa915eeb264e47acd779",
      "scriptpubkey_asm": "OP_0 OP_PUSHBYTES_20 731abc2316fbaa636227aa915eeb264e47acd779",
      "scriptpubkey_type": "v0_p2wpkh",
      "scriptpubkey_address": "bc1qwvdtcgcklw4xxc3842g4a6exfer6e4me4zqkl9",
      "value": 99463
    }
  ],
  "size": 223,
  "weight": 562,
  "fee": 5710,
  "status": {
    "confirmed": true,
    "block_height": 834638,
    "block_hash": "000000000000000000025f742c626208ac87e0b7d15054abb4a19ca2d735a54e",
    "block_time": 1710405325
  },
  "hex": "02000000000101b2df88358823d70e119bae0c58bfd055e02f18ed560d4be49dbee22ad6d2fbfe4400000000fdffffff02620a0100000000001600143c51346c959e37f64681aac7e49df27a9fef54588784010000000000160014731abc2316fbaa636227aa915eeb264e47acd77902483045022100ca97d994f38a0557955b0aa7d0b5a25d12050ffc94854c30af832fe70b917ed1022012a59feb44fbe04c29f8b4e73961c2f7d07a433e877ff79e46f2b116fd884b480121027e0647ceebf85ab61a756118a6b9106ffb70c062dffd030ace6fbcf7cff85dee4dbc0c00"
}