{
  "txid": "1b3ed3f93d0291d0222c1bf9d7026882f9a122443dd9afa876c99a34d3aee79d",
  "version": 2,
  "locktime": 0,
  "vin": [
    {
      "txid": "6d64edf2219ddd8345cc09c0f13e9be5dac2b5a19ecfca34b5f437ddeca5b377",
      "vout": 11,
      "prevout": {
        "scriptpubkey": "0014a3c5ebfbe46cd0df17cdd7e24c0a2005cc30d1e9",
        "scriptpubkey_asm": "OP_0 OP_PUSHBYTES_20 a3c5ebfbe46cd0df17cdd7e24c0a2005cc30d1e9",
        "scriptpubkey_type": "v0_p2wpkh",
        "scriptpubkey_address": "bc1q50z7h7lydngd797d6l3ycz3qqhxrp50fk3sq8v",
        "value": 921453
      },
      "scriptsig": "",
      "scriptsig_asm": "",
      "witness": [
        "3045022100b93c716b65e7297f925cbe83be1c744f413f0c41d6cae7d29bf0ad140330285802202d79c8ca2992edfa2a146040214987d8afcc1ba93cf2bd40af94b365162757a501",
        "024682ad38f1487fbc748073ac50c9bbad4f4fcfd51b0ed1ac581c6577bcd8cc07"
      ],
      "is_coinbase": false,
      "sequence": 4294967295
    }
  ],
  "vout": [
    {
      "scriptpubkey": "0014a3c5ebfbe46cd0df17cdd7e24c0a2005cc30d1e9",
      "scriptpubkey_asm": "OP_0 OP_PUSHBYTES_20 a3c5ebfbe46cd0df17cdd7e24c0a2005cc30d1e9",
      "scriptpubkey_type": "v0_p2wpkh",
      "scriptpubkey_address": "bc1q50z7h7lydngd797d6l3ycz3qqhxrp50fk3sq8v",
      "value": 313389
    },
    {
      "scriptpubkey": "001410d3b14fee0d889826c7a7e63d69f211eb01c180",
      "scriptpubkey_asm": "OP_0 OP_PUSHBYTES_20 10d3b14fee0d889826c7a7e63d69f211eb01c180",
      "scriptpubkey_type": "v0_p2wpkh",
      "scriptpubkey_address": "bc1qzrfmznlwpkyfsfk85lnr660jz84srsvqyt9jms",
      "value": 605814
    }
  ],
  "size": 223,
  "weight": 562,
  "fee": 2250,
  "status": {
    "confirmed": true,
    "block_height": 834638,
    "block_hash": "000000000000000000025f742c626208ac87e0b7d15054abb4a19ca2d735a54e",
    "block_time": 1710405325
  },
  "hex": "0200000000010177b3a5ecdd37f4b534cacf9ea1b5c2dae59b3ef1c009cc4583dd9d21f2ed646d0b00000000ffffffff022dc8040000000000160014a3c5ebfbe46cd0df17cdd7e24c0a2005cc30d1e9763e09000000000016001410d3b14fee0d889826c7a7e63d69f211eb01c18002483045022100b93c716b65e7297f925cbe83be1c744f413f0c41d6cae7d29bf0ad140330285802202d79c8ca2992edfa2a146040214987d8afcc1ba93cf2bd40af94b365162757a50121024682ad38f1487fbc748073ac50c9bbad4f4fcfd51b0ed1ac581c6577bcd8cc0700000000"
}