{
  "txid": "1b47347427d8c4a8fda115503a96e5350983bd0e454f831d2395528e16542049",
  "version": 2,
  "locktime": 0,
  "vin": [
    {
      "txid": "f44a9b4a93dc30dc69d26a38d24cd2043fb03e3d86a5c139040ac7c2c5aa731f",
      "vout": 0,
      "prevout": {
        "scriptpubkey": "0014032753fe15f06c523d20aafdcd09a970a7b09753",
        "scriptpubkey_asm": "OP_0 OP_PUSHBYTES_20 032753fe15f06c523d20aafdcd09a970a7b09753",
        "scriptpubkey_type": "v0_p2wpkh",
        "scriptpubkey_address": "bc1qqvn48ls47pk9y0fq4t7u6zdfwznmp96nn490m9",
        "value": 70000
      },
      "scriptsig": "",
      "scriptsig_asm": "",
      "witness": [
        "3045022100bb9a0274c376c1f24402a211c1c9d08928e93a05814038e691512aea4f67027f02202939f0721698479b52f11123227fb6ce24a3689b95d6d347a71ede5f1f06985501",
        "037eb45318a687ad4d64c91f488630a94a2d42010f48dede400c459b105f25bfa9"
      ],
      "is_coinbase": false,
      "sequence": 4294967293
    }
  ],
  "vout": [
    {
      "scriptpubkey": "512091b0d54d50c708075768e4d8f3dcc99ad323cc1e9bd13bcf0fc17c8053fabf53",
      "scriptpubkey_asm": "OP_PUSHNUM_1 OP_PUSHBYTES_32 91b0d54d50c708075768e4d8f3dcc99ad323cc1e9bd13bcf0fc17c8053fabf53",
      "scriptpubkey_type": "v1_p2tr",
      "scriptpubkey_address": "bc1pjxcd2n2scuyqw4mgunv08hxfntfj8nq7n0gnhnc0c97gq5l6hafsxtp9rl",
      "value": 790
    },
    {
      "scriptpubkey": "512103a97463b69dd7dd30709527bbe720ae98a841f83b765675f6ed1f74b4a59427002102e3889999cc86afb48c5f2a4c5e2a787acc77b55258ce6f4ddd9bf0dce6516b002102020202020202020202020202020202020202020202020202020202020202020253ae",
      "scriptpubkey_asm": "OP_PUSHNUM_1 OP_PUSHBYTES_33 03a97463b69dd7dd30709527bbe720ae98a841f83b765675f6ed1f74b4a5942700 OP_PUSHBYTES_33 02e3889999cc86afb48c5f2a4c5e2a787acc77b55258ce6f4ddd9bf0dce6516b00 OP_PUSHBYTES_33 020202020202020202020202020202020202020202020202020202020202020202 OP_PUSHNUM_3 OP_CHECKMULTISIG",
      "scriptpubkey_type": "unknown",
      "value": 790
    },
    {
      "scriptpubkey": "51210317718e52f86974af770a62ed0a9f127cce93c0c5494f78c58f7f720f354a380021027ef530d88c9faf54ddfc6310570b331eee1136b37272ae22655fe57dd2d1cf002102020202020202020202020202020202020202020202020202020202020202020253ae",
      "scriptpubkey_asm": "OP_PUSHNUM_1 OP_PUSHBYTES_33 0317718e52f86974af770a62ed0a9f127cce93c0c5494f78c58f7f720f354a3800 OP_PUSHBYTES_33 027ef530d88c9faf54ddfc6310570b331eee1136b37272ae22655fe57dd2d1cf00 OP_PUSHBYTES_33 020202020202020202020202020202020202020202020202020202020202020202 OP_PUSHNUM_3 OP_CHECKMULTISIG",
      "scriptpubkey_type": "unknown",
      "value": 790
    },
    {
      "scriptpubkey": "0014032753fe15f06c523d20aafdcd09a970a7b09753",
      "scriptpubkey_asm": "OP_0 OP_PUSHBYTES_20 032753fe15f06c523d20aafdcd09a970a7b09753",
      "scriptpubkey_type": "v0_p2wpkh",
      "scriptpubkey_address": "bc1qqvn48ls47pk9y0fq4t7u6zdfwznmp96nn490m9",
      "value": 58867
    }
  ],
  "size": 463,
  "weight": 1522,
  "fee": 8763,
  "status": {
    "confirmed": true,
    "block_height": 834464,
    "block_hash": "0000000000000000000177a0869a911a2b65c9bdcd5a8bcb02b68f305bee848e",
    "block_time": 1710308296
  },
  "hex": "020000000001011f73aac5c2c70a0439c1a5863d3eb03f04d24cd2386ad269dc30dc934a9b4af40000000000fdffffff04160300000000000022512091b0d54d50c708075768e4d8f3dcc99ad323cc1e9bd13bcf0fc17c8053fabf53160300000000000069512103a97463b69dd7dd30709527bbe720ae98a841f83b765675f6ed1f74b4a59427002102e3889999cc86afb48c5f2a4c5e2a787acc77b55258ce6f4ddd9bf0dce6516b002102020202020202020202020202020202020202020202020202020202020202020253ae16030000000000006951210317718e52f86974af770a62ed0a9f127cce93c0c5494f78c58f7f720f354a380021027ef530d88c9faf54ddfc6310570b331eee1136b37272ae22655fe57dd2d1cf002102020202020202020202020202020202020202020202020202020202020202020253aef3e5000000000000160014032753fe15f06c523d20aafdcd09a970a7b0975302483045022100bb9a0274c376c1f24402a211c1c9d08928e93a05814038e691512aea4f67027f02202939f0721698479b52f11123227fb6ce24a3689b95d6d347a71ede5f1f0698550121037eb45318a687ad4d64c91f488630a94a2d42010f48dede400c459b105f25bfa900000000"
}