{
  "txid": "1b6a7b3129a41d483a97023d40aab110c4c15e5adef7a7e63dd8d7bff12b3f0d",
  "version": 2,
  "locktime": 0,
  "vin": [
    {
      "txid": "016b0f6fd0daf783ac307682d74df2114dfbc369794f077be4b17b782ff16e41",
      "vout": 1,
      "prevout": {
        "scriptpubkey": "0014060e51cb98209df71b6eeb7eec1005a6ae398ed2",
        "scriptpubkey_asm": "OP_0 OP_PUSHBYTES_20 060e51cb98209df71b6eeb7eec1005a6ae398ed2",
        "scriptpubkey_type": "v0_p2wpkh",
        "scriptpubkey_address": "bc1qqc89rjucyzwlwxmwadlwcyq956hrnrkjh3csar",
        "value": 34168
      },
      "scriptsig": "",
      "scriptsig_asm": "",
      "witness": [
        "30450221008823cc05a324abe539754b370dbabd4c2f80fbdbbf147f1e6bfec66d399df4da02200dc5fa392319316cd1419f01db23c8ec1ee1c2e3e83b69a1d5271ddd100019cb01",
        "02230e0029c47d04fa9578b7058a3b4d204aef6dd4250fbfee0a8dc56fa4bafb78"
      ],
      "is_coinbase": false,
      "sequence": 4294967295
    }
  ],
  "vout": [
    {
      "scriptpubkey": "512003ef01687e4e38878bf28f4be08200368926e42cc2b591792de21753b31d4e19",
      "scriptpubkey_asm": "OP_PUSHNUM_1 OP_PUSHBYTES_32 03ef01687e4e38878bf28f4be08200368926e42cc2b591792de21753b31d4e19",
      "scriptpubkey_type": "v1_p2tr",
      "scriptpubkey_address": "bc1pq0hsz6r7fcug0zlj3a97pqsqx6yjdepvc26ez7fdugt48vcafcvsqfhcr5",
      "value": 5000
    },
    {
      "scriptpubkey": "0014060e51cb98209df71b6eeb7eec1005a6ae398ed2",
      "scriptpubkey_asm": "OP_0 OP_PUSHBYTES_20 060e51cb98209df71b6eeb7eec1005a6ae398ed2",
      "scriptpubkey_type": "v0_p2wpkh",
      "scriptpubkey_address": "bc1qqc89rjucyzwlwxmwadlwcyq956hrnrkjh3csar",
      "value": 27332
    }
  ],
  "size": 235,
  "weight": 610,
  "fee": 1836,
  "status": {
    "confirmed": true,
    "block_height": 834460,
    "block_hash": "00000000000000000000484a79b643b2524bbce82e5d8a442013fa5b8905ed98",
    "block_time": 1710307468
  },
  "hex": "02000000000101416ef12f787bb1e47b074f7969c3fb4d11f24dd7827630ac83f7dad06f0f6b010100000000ffffffff02881300000000000022512003ef01687e4e38878bf28f4be08200368926e42cc2b591792de21753b31d4e19c46a000000000000160014060e51cb98209df71b6eeb7eec1005a6ae398ed2024830450221008823cc05a324abe539754b370dbabd4c2f80fbdbbf147f1e6bfec66d399df4da02200dc5fa392319316cd1419f01db23c8ec1ee1c2e3e83b69a1d5271ddd100019cb012102230e0029c47d04fa9578b7058a3b4d204aef6dd4250fbfee0a8dc56fa4bafb7800000000"
}