{
  "txid": "1b70043130898636433abd0135213ed6891a07ebdcf405b093bfbab82bdcb692",
  "version": 2,
  "locktime": 0,
  "vin": [
    {
      "txid": "7c1a6ef3ec4c7668523cfe22ea740150429919a943578c97a48310685ecdd0e8",
      "vout": 0,
      "prevout": {
        "scriptpubkey": "5120cae2476d322ccec0a05e32490a3f3c76477165af6b002ca2542a4337694565e1",
        "scriptpubkey_asm": "OP_PUSHNUM_1 OP_PUSHBYTES_32 cae2476d322ccec0a05e32490a3f3c76477165af6b002ca2542a4337694565e1",
        "scriptpubkey_type": "v1_p2tr",
        "scriptpubkey_address": "bc1pet3ywmfj9n8vpgz7xfys50euwerhzed0dvqzegj59fpnw629vhssd2f7an",
        "value": 5000
      },
      "scriptsig": "",
      "scriptsig_asm": "",
      "witness": [
        "0f6f3914a2e3dd5574a72dd24a5485e1eda383268b6ad7fc34434cb162c9c7c92f07eeb40ab20c74563f45f32046f4d83f6ee4418f05731b0810d5d7af69e99a01"
      ],
      "is_coinbase": false,
      "sequence": 4294967295
    }
  ],
  "vout": [
    {
      "scriptpubkey": "00143919d928e617770c9b365142cb95d85743baba29",
      "scriptpubkey_asm": "OP_0 OP_PUSHBYTES_20 3919d928e617770c9b365142cb95d85743baba29",
      "scriptpubkey_type": "v0_p2wpkh",
      "scriptpubkey_address": "bc1q8yvaj28xzamsexek29pvh9wc2apm4w3fu7zfkh",
      "value": 3792
    }
  ],
  "size": 151,
  "weight": 397,
  "fee": 1208,
  "status": {
    "confirmed": true,
    "block_height": 834552,
    "block_hash": "00000000000000000001dd0468a70c94f619251d286585cff57aeb4bd9ede330",
    "block_time": 1710355598
  },
  "hex": "02000000000101e8d0cd5e681083a4978c5743a9199942500174ea22fe3c5268764cecf36e1a7c0000000000ffffffff01d00e0000000000001600143919d928e617770c9b365142cb95d85743baba2901410f6f3914a2e3dd5574a72dd24a5485e1eda383268b6ad7fc34434cb162c9c7c92f07eeb40ab20c74563f45f32046f4d83f6ee4418f05731b0810d5d7af69e99a0100000000"
}