{
  "txid": "1b87cae7ece0269f12b7d6e05c20ec604e1af083585b4db7b95386de332af5ca",
  "version": 2,
  "locktime": 0,
  "vin": [
    {
      "txid": "64983621bb3c93ebb5ad38241c318daadb43ee0978790462b860dc308500f1f3",
      "vout": 1,
      "prevout": {
        "scriptpubkey": "5120c4a3ff8565e88dcfcc0d69db5df167b3de6b38c55b79cca7c134674a2af3fc58",
        "scriptpubkey_asm": "OP_PUSHNUM_1 OP_PUSHBYTES_32 c4a3ff8565e88dcfcc0d69db5df167b3de6b38c55b79cca7c134674a2af3fc58",
        "scriptpubkey_type": "v1_p2tr",
        "scriptpubkey_address": "bc1pcj3llpt9azxulnqdd8d4mut8k00xkwx9tduuef7px3n552hnl3vqdnje0a",
        "value": 37517728
      },
      "scriptsig": "",
      "scriptsig_asm": "",
      "witness": [
        "d907d936cf852d4bac1fa9c9cfdd179f05111b68604525c6f3cf34fe51726f7f672478c6ec0276d9d8ecb4cfa6d6b6a0784d089c00c1ddc017de3816ea188508",
        "2088225c0158a85208c9f0a93d3b724953f164a056121b81a87f88ab0a666cbff1ac0063036f726401010a746578742f706c61696e000d3833343535322e6269746d617068",
        "c088225c0158a85208c9f0a93d3b724953f164a056121b81a87f88ab0a666cbff1"
      ],
      "is_coinbase": false,
      "sequence": 4261412863
    }
  ],
  "vout": [
    {
      "scriptpubkey": "0014463d3fb48cc0b5c0493b098f364bc2beab5309eb",
      "scriptpubkey_asm": "OP_0 OP_PUSHBYTES_20 463d3fb48cc0b5c0493b098f364bc2beab5309eb",
      "scriptpubkey_type": "v0_p2wpkh",
      "scriptpubkey_address": "bc1qgc7nldyvcz6uqjfmpx8nvj7zh644xz0tj8k9xp",
      "value": 294
    },
    {
      "scriptpubkey": "5120becc641540427c2c8f64da5718f2dba567043d168fa64f794eadecd797db41e7",
      "scriptpubkey_asm": "OP_PUSHNUM_1 OP_PUSHBYTES_32 becc641540427c2c8f64da5718f2dba567043d168fa64f794eadecd797db41e7",
      "scriptpubkey_type": "v1_p2tr",
      "scriptpubkey_address": "bc1phmxxg92qgf7zermymft33ukm54nsg0gk37ny772w4hkd097mg8nspvuk7c",
      "value": 37510714
    }
  ],
  "size": 297,
  "weight": 672,
  "fee": 6720,
  "status": {
    "confirmed": true,
    "block_height": 834552,
    "block_hash": "00000000000000000001dd0468a70c94f619251d286585cff57aeb4bd9ede330",
    "block_time": 1710355598
  },
  "hex": "02000000000101f3f1008530dc60b86204797809ee43dbaa8d311c2438adb5eb933cbb213698640100000000fffffffd022601000000000000160014463d3fb48cc0b5c0493b098f364bc2beab5309eb3a5e3c0200000000225120becc641540427c2c8f64da5718f2dba567043d168fa64f794eadecd797db41e70340d907d936cf852d4bac1fa9c9cfdd179f05111b68604525c6f3cf34fe51726f7f672478c6ec0276d9d8ecb4cfa6d6b6a0784d089c00c1ddc017de3816ea188508452088225c0158a85208c9f0a93d3b724953f164a056121b81a87f88ab0a666cbff1ac0063036f726401010a746578742f706c61696e000d3833343535322e6269746d61706821c088225c0158a85208c9f0a93d3b724953f164a056121b81a87f88ab0a666cbff100000000"
}