{
  "txid": "1b892e00e8ad5ebdab8793540bd4d1dac3133b0f092e789110cc1b4b99d9ab4f",
  "version": 2,
  "locktime": 0,
  "vin": [
    {
      "txid": "514e938fcf0cf5d4187cd714dbe27826589ec61990e166e96cb5940f19ef740a",
      "vout": 1,
      "prevout": {
        "scriptpubkey": "5120cc0cec1234ef55d60e8ba0ab40738e63f02bf578bae17cf8557265e1751f5599",
        "scriptpubkey_asm": "OP_PUSHNUM_1 OP_PUSHBYTES_32 cc0cec1234ef55d60e8ba0ab40738e63f02bf578bae17cf8557265e1751f5599",
        "scriptpubkey_type": "v1_p2tr",
        "scriptpubkey_address": "bc1pesxwcy35aa2avr5t5z45quuwv0czhatchtshe7z4wfj7zagl2kvsphsnjf",
        "value": 752506
      },
      "scriptsig": "",
      "scriptsig_asm": "",
      "witness": [
        "ad3e53ea0164a611b4c2b619f523ff2154ec7f0466621123fbd53df28be037139196cb2307ca6bbb1d11d7028fe0018a460a1f81ed0a6ce5643bde304bbbe53f"
      ],
      "is_coinbase": false,
      "sequence": 4294967293
    }
  ],
  "vout": [
    {
      "scriptpubkey": "5120bc157a7e9b88daaace49ca402f47f5a4788567313dcbee76128a28e26d3ae8e7",
      "scriptpubkey_asm": "OP_PUSHNUM_1 OP_PUSHBYTES_32 bc157a7e9b88daaace49ca402f47f5a4788567313dcbee76128a28e26d3ae8e7",
      "scriptpubkey_type": "v1_p2tr",
      "scriptpubkey_address": "bc1phs2h5l5m3rd24njfefqz73l453ug2ee38h97uasj3g5wymf6arnszy3wqx",
      "value": 3164
    },
    {
      "scriptpubkey": "5120cc0cec1234ef55d60e8ba0ab40738e63f02bf578bae17cf8557265e1751f5599",
      "scriptpubkey_asm": "OP_PUSHNUM_1 OP_PUSHBYTES_32 cc0cec1234ef55d60e8ba0ab40738e63f02bf578bae17cf8557265e1751f5599",
      "scriptpubkey_type": "v1_p2tr",
      "scriptpubkey_address": "bc1pesxwcy35aa2avr5t5z45quuwv0czhatchtshe7z4wfj7zagl2kvsphsnjf",
      "value": 746724
    }
  ],
  "size": 205,
  "weight": 616,
  "fee": 2618,
  "status": {
    "confirmed": true,
    "block_height": 834638,
    "block_hash": "000000000000000000025f742c626208ac87e0b7d15054abb4a19ca2d735a54e",
    "block_time": 1710405325
  },
  "hex": "020000000001010a74ef190f94b56ce966e19019c69e582678e2db14d77c18d4f50ccf8f934e510100000000fdffffff025c0c000000000000225120bc157a7e9b88daaace49ca402f47f5a4788567313dcbee76128a28e26d3ae8e7e4640b0000000000225120cc0cec1234ef55d60e8ba0ab40738e63f02bf578bae17cf8557265e1751f55990140ad3e53ea0164a611b4c2b619f523ff2154ec7f0466621123fbd53df28be037139196cb2307ca6bbb1d11d7028fe0018a460a1f81ed0a6ce5643bde304bbbe53f00000000"
}