{
  "txid": "1b8aa001ece75ec29c44840a5516093d6f0e449ebacb9c85eb0082f6ae0b356f",
  "version": 1,
  "locktime": 0,
  "vin": [
    {
      "txid": "6af5dafb014927edff1dbfa47d76de76a6374da2cc40023444dbcef3da4b867c",
      "vout": 1,
      "prevout": {
        "scriptpubkey": "00147598678d4bf834e7b46379f6c35fc53d8fc7cb67",
        "scriptpubkey_asm": "OP_0 OP_PUSHBYTES_20 7598678d4bf834e7b46379f6c35fc53d8fc7cb67",
        "scriptpubkey_type": "v0_p2wpkh",
        "scriptpubkey_address": "bc1qwkvx0r2tlq6w0drr08mvxh798k8u0jm8jhj47x",
        "value": 4714
      },
      "scriptsig": "",
      "scriptsig_asm": "",
      "witness": [
        "304402203ff86f6b8cffef9c4b984f212290bdea157a4920c15e42a19a233690c10d324702206588ad2e68683c9211b655c7c1d6cf527a4f1d7b3a068ef7c188411f60a9dbe901",
        "02ffa2f574366870db65b42ef0b4241166341ce01906cad439ce2366d634b359af"
      ],
      "is_coinbase": false,
      "sequence": 4294967295
    },
    {
      "txid": "24406546155376a982d390dd2154fe6d0618cfd4c5ec3946fdd7db26699016dc",
      "vout": 32,
      "prevout": {
        "scriptpubkey": "0014416f829b3dab02e628ba64b29432c1c77eef3b34",
        "scriptpubkey_asm": "OP_0 OP_PUSHBYTES_20 416f829b3dab02e628ba64b29432c1c77eef3b34",
        "scriptpubkey_type": "v0_p2wpkh",
        "scriptpubkey_address": "bc1qg9hc9xea4vpwv296vjefgvkpcalw7we57wvf0q",
        "value": 235353
      },
      "scriptsig": "",
      "scriptsig_asm": "",
      "witness": [
        "3045022100c09eebf6a56580634e93d9857fc91a2e00d25c2aac686bc0300c14c8d642682802202db4db95e34f0169d4616ebacd26a32fbadd230043678ffb18d28961861e0ca001",
        "0316a7d88aa91524db3603f9dcbf157de9fbe096ceb95a957ac8d5111796c6fa9d"
      ],
      "is_coinbase": false,
      "sequence": 4294967295
    }
  ],
  "vout": [
    {
      "scriptpubkey": "a914f9f9f01f2333954545f5af392d1ee0b57d4ac57187",
      "scriptpubkey_asm": "OP_HASH160 OP_PUSHBYTES_20 f9f9f01f2333954545f5af392d1ee0b57d4ac571 OP_EQUAL",
      "scriptpubkey_type": "p2sh",
      "scriptpubkey_address": "3QUmbJcYXxC5JvFA2ivEyZmcw5BHAkvSqv",
      "value": 232560
    },
    {
      "scriptpubkey": "001435c8f655b44a1302596fd7d9adf80f7c396526ed",
      "scriptpubkey_asm": "OP_0 OP_PUSHBYTES_20 35c8f655b44a1302596fd7d9adf80f7c396526ed",
      "scriptpubkey_type": "v0_p2wpkh",
      "scriptpubkey_address": "bc1qxhy0v4d5fgfsykt06lv6m7q00suk2fhdk33uwx",
      "value": 4378
    }
  ],
  "size": 372,
  "weight": 837,
  "fee": 3129,
  "status": {
    "confirmed": true,
    "block_height": 834638,
    "block_hash": "000000000000000000025f742c626208ac87e0b7d15054abb4a19ca2d735a54e",
    "block_time": 1710405325
  },
  "hex": "010000000001027c864bdaf3cedb44340240cca24d37a676de767da4bf1dffed274901fbdaf56a0100000000ffffffffdc16906926dbd7fd4639ecc5d4cf18066dfe5421dd90d382a9765315466540242000000000ffffffff02708c03000000000017a914f9f9f01f2333954545f5af392d1ee0b57d4ac571871a1100000000000016001435c8f655b44a1302596fd7d9adf80f7c396526ed0247304402203ff86f6b8cffef9c4b984f212290bdea157a4920c15e42a19a233690c10d324702206588ad2e68683c9211b655c7c1d6cf527a4f1d7b3a068ef7c188411f60a9dbe9012102ffa2f574366870db65b42ef0b4241166341ce01906cad439ce2366d634b359af02483045022100c09eebf6a56580634e93d9857fc91a2e00d25c2aac686bc0300c14c8d642682802202db4db95e34f0169d4616ebacd26a32fbadd230043678ffb18d28961861e0ca001210316a7d88aa91524db3603f9dcbf157de9fbe096ceb95a957ac8d5111796c6fa9d00000000"
}