{
  "txid": "1b8effb13d53c175ba61d78f654c503580690904e429f29c4a8f1df551c86a90",
  "version": 2,
  "locktime": 0,
  "vin": [
    {
      "txid": "12848a1f84ad552475e874cce291926f292412de23b7537898e98c7370f2e86c",
      "vout": 14,
      "prevout": {
        "scriptpubkey": "51208f66fecb58010cc9e39756f4dcb772c9b01c074c44d17eced48351da67da5bb2",
        "scriptpubkey_asm": "OP_PUSHNUM_1 OP_PUSHBYTES_32 8f66fecb58010cc9e39756f4dcb772c9b01c074c44d17eced48351da67da5bb2",
        "scriptpubkey_type": "v1_p2tr",
        "scriptpubkey_address": "bc1p3an0aj6cqyxvncuh2m6dedmjexcpcp6vgnghank5sdga5e76tweqpdsce5",
        "value": 2358
      },
      "scriptsig": "",
      "scriptsig_asm": "",
      "witness": [
        "469b02e0c2fc3526bc4d0bb06c57ea1dc4a7d6cba258d05a3ff38d43971b5229c4220a4d3a0841e2f0451cfc7b6e808adf365049088080b9dad30c46c198411a",
        "2033198540e3b647bd220e182530daabea6d43baf9bd03be543b226749a5f1a5a8ac0063036f7264010118746578742f706c61696e3b636861727365743d7574662d3800377b2270223a226272632d3230222c226f70223a226d696e74222c227469636b223a22424f424f222c22616d74223a22313030303030227d68",
        "c1507504f881a2548efcb0bd8b5287fd78c473d5bd35b181abdd5c5cd6d10de204"
      ],
      "is_coinbase": false,
      "sequence": 4294967295
    }
  ],
  "vout": [
    {
      "scriptpubkey": "512048d62e6aa4ce9b4b4d760b1dc0c3e46b46d84be76ae456792a664139e7aaa19c",
      "scriptpubkey_asm": "OP_PUSHNUM_1 OP_PUSHBYTES_32 48d62e6aa4ce9b4b4d760b1dc0c3e46b46d84be76ae456792a664139e7aaa19c",
      "scriptpubkey_type": "v1_p2tr",
      "scriptpubkey_address": "bc1pfrtzu64ye6d5kntkpvwupslyddrdsjl8dtj9v7f2veqnnea25xwqu8ycu4",
      "value": 546
    }
  ],
  "size": 322,
  "weight": 604,
  "fee": 1812,
  "status": {
    "confirmed": true,
    "block_height": 834460,
    "block_hash": "00000000000000000000484a79b643b2524bbce82e5d8a442013fa5b8905ed98",
    "block_time": 1710307468
  },
  "hex": "020000000001016ce8f270738ce9987853b723de1224296f9291e2cc74e8752455ad841f8a84120e00000000ffffffff01220200000000000022512048d62e6aa4ce9b4b4d760b1dc0c3e46b46d84be76ae456792a664139e7aaa19c0340469b02e0c2fc3526bc4d0bb06c57ea1dc4a7d6cba258d05a3ff38d43971b5229c4220a4d3a0841e2f0451cfc7b6e808adf365049088080b9dad30c46c198411a7d2033198540e3b647bd220e182530daabea6d43baf9bd03be543b226749a5f1a5a8ac0063036f7264010118746578742f706c61696e3b636861727365743d7574662d3800377b2270223a226272632d3230222c226f70223a226d696e74222c227469636b223a22424f424f222c22616d74223a22313030303030227d6821c1507504f881a2548efcb0bd8b5287fd78c473d5bd35b181abdd5c5cd6d10de20400000000"
}