{
  "txid": "1ba62612eff3453fba41013c31bd4376ca3c34d021b4bd2939dd432dde6251b1",
  "version": 2,
  "locktime": 0,
  "vin": [
    {
      "txid": "246d654c08ac53d370d501753f3ac2c90861e2c8cea715ed4b7554841cced399",
      "vout": 30,
      "prevout": {
        "scriptpubkey": "512037df776bd03fc2c3fc930381c22b7ea5a37e51521b6bc3f18a6b95d272313321",
        "scriptpubkey_asm": "OP_PUSHNUM_1 OP_PUSHBYTES_32 37df776bd03fc2c3fc930381c22b7ea5a37e51521b6bc3f18a6b95d272313321",
        "scriptpubkey_type": "v1_p2tr",
        "scriptpubkey_address": "bc1pxl0hw67s8lpv8lynqwquy2m75k3hu52jrd4u8uv2dw2ayu33xvssm3fqf7",
        "value": 3055
      },
      "scriptsig": "",
      "scriptsig_asm": "",
      "witness": [
        "3c0de870ef6914438b67ef18664c808b2628c3e93315451abc48c3b3e712fd93b877ac674b843aead8179487f9f8f81833a97165cfd0243aac2827c561b12f8f",
        "2087483461d5291f8ebb34f6aebc84ec1ece55cb1db92d81134a1c9b8d8d2d6765ac0063036f726401011e6170706c69636174696f6e2f6a736f6e3b636861727365743d7574662d38004cd37b2270223a22706f772d3230222c226f70223a226d696e74222c227469636b223a2250455045222c22616d74223a2231303030222c22736f6c7574696f6e223a22504550453a62633170756a666d33753333656e70786b38383339796c6b3239323239396b6e6467686c717468396e39647a6c7663647635617076366a717732776e71663a303030303030303030303030303030303030303139393431613561653132383937363539383134343239323533333030353762306461393666336465613163353a3632303235313234383839227d68",
        "c0f4929cb66946e40c5d3e5e2b126f88b9a6070d7490abd3aa8e42bf5bbcfe7b9f"
      ],
      "is_coinbase": false,
      "sequence": 4294967295
    }
  ],
  "vout": [
    {
      "scriptpubkey": "5120e493b8f231ccc26b1cf1293f65154a296d36a2ff02ee5995a2fb30d653a166a4",
      "scriptpubkey_asm": "OP_PUSHNUM_1 OP_PUSHBYTES_32 e493b8f231ccc26b1cf1293f65154a296d36a2ff02ee5995a2fb30d653a166a4",
      "scriptpubkey_type": "v1_p2tr",
      "scriptpubkey_address": "bc1pujfm3u33enpxk8839ylk292299kndghlqth9n9dzlvcdv5apv6jqw2wnqf",
      "value": 546
    }
  ],
  "size": 487,
  "weight": 769,
  "fee": 2509,
  "status": {
    "confirmed": true,
    "block_height": 834460,
    "block_hash": "00000000000000000000484a79b643b2524bbce82e5d8a442013fa5b8905ed98",
    "block_time": 1710307468
  },
  "hex": "0200000000010199d3ce1c8454754bed15a7cec8e26108c9c23a3f7501d570d353ac084c656d241e00000000ffffffff012202000000000000225120e493b8f231ccc26b1cf1293f65154a296d36a2ff02ee5995a2fb30d653a166a403403c0de870ef6914438b67ef18664c808b2628c3e93315451abc48c3b3e712fd93b877ac674b843aead8179487f9f8f81833a97165cfd0243aac2827c561b12f8ffd20012087483461d5291f8ebb34f6aebc84ec1ece55cb1db92d81134a1c9b8d8d2d6765ac0063036f726401011e6170706c69636174696f6e2f6a736f6e3b636861727365743d7574662d38004cd37b2270223a22706f772d3230222c226f70223a226d696e74222c227469636b223a2250455045222c22616d74223a2231303030222c22736f6c7574696f6e223a22504550453a62633170756a666d33753333656e70786b38383339796c6b3239323239396b6e6467686c717468396e39647a6c7663647635617076366a717732776e71663a303030303030303030303030303030303030303139393431613561653132383937363539383134343239323533333030353762306461393666336465613163353a3632303235313234383839227d6821c0f4929cb66946e40c5d3e5e2b126f88b9a6070d7490abd3aa8e42bf5bbcfe7b9f00000000"
}