{
  "txid": "1bbb148f311078dd8831b452cff9104686606a0546c0321c19649fe4addab07d",
  "version": 2,
  "locktime": 0,
  "vin": [
    {
      "txid": "acc3ba00869acb582a3f2904ce3a11dd3779350ce234063fc7d0959246213364",
      "vout": 70,
      "prevout": {
        "scriptpubkey": "5120969dc91fe3b41f684a52e734afcad26ba30800babb3d43b3e497f734ba81446d",
        "scriptpubkey_asm": "OP_PUSHNUM_1 OP_PUSHBYTES_32 969dc91fe3b41f684a52e734afcad26ba30800babb3d43b3e497f734ba81446d",
        "scriptpubkey_type": "v1_p2tr",
        "scriptpubkey_address": "bc1pj6wuj8lrks0ksjjjuu62ljkjdw3ssq96hv758vlyjlmnfw5pg3ksgg6kvk",
        "value": 1806
      },
      "scriptsig": "",
      "scriptsig_asm": "",
      "witness": [
        "731e47c4d41827e4edbce06cf948c885bd696eef8bebbf8e3706df03efb3c4ee2fc550c8095cbeb528885d4c6afa4ba08ebef00239c24d082d348d8d0cf021ca",
        "208f82e399d5d61ce110a6db38baddb2720cb4b60b2409e37bcd084d63a7ed9889ac0063036f726401010a746578742f706c61696e00357b2270223a226272632d3230222c226f70223a226d696e74222c227469636b223a22646f6765222c22616d74223a2234323030227d68",
        "c18f82e399d5d61ce110a6db38baddb2720cb4b60b2409e37bcd084d63a7ed9889"
      ],
      "is_coinbase": false,
      "sequence": 4261412863
    }
  ],
  "vout": [
    {
      "scriptpubkey": "00147a665de7a370f4c9b372ab1fae587500a5bcbdb4",
      "scriptpubkey_asm": "OP_0 OP_PUSHBYTES_20 7a665de7a370f4c9b372ab1fae587500a5bcbdb4",
      "scriptpubkey_type": "v0_p2wpkh",
      "scriptpubkey_address": "bc1q0fn9mearwr6vnvmj4v06ukr4qzjme0d565dzcx",
      "value": 294
    }
  ],
  "size": 294,
  "weight": 540,
  "fee": 1512,
  "status": {
    "confirmed": true,
    "block_height": 834460,
    "block_hash": "00000000000000000000484a79b643b2524bbce82e5d8a442013fa5b8905ed98",
    "block_time": 1710307468
  },
  "hex": "02000000000101643321469295d0c73f0634e20c357937dd113ace04293f2a58cb9a8600bac3ac4600000000fffffffd0126010000000000001600147a665de7a370f4c9b372ab1fae587500a5bcbdb40340731e47c4d41827e4edbce06cf948c885bd696eef8bebbf8e3706df03efb3c4ee2fc550c8095cbeb528885d4c6afa4ba08ebef00239c24d082d348d8d0cf021ca6d208f82e399d5d61ce110a6db38baddb2720cb4b60b2409e37bcd084d63a7ed9889ac0063036f726401010a746578742f706c61696e00357b2270223a226272632d3230222c226f70223a226d696e74222c227469636b223a22646f6765222c22616d74223a2234323030227d6821c18f82e399d5d61ce110a6db38baddb2720cb4b60b2409e37bcd084d63a7ed988900000000"
}