{
  "txid": "1bcae69ef7bc9d3b637a2ea4080f01a9932e6d20290adb87596d49531a6b223b",
  "version": 1,
  "locktime": 0,
  "vin": [
    {
      "txid": "fad7e2bc2b0852289c4a2580f840bca36d39e39ac00e1ae4375cf017c8d7b73d",
      "vout": 1,
      "prevout": {
        "scriptpubkey": "00147eec425def624e926a0ef05a2fcc8669f6c62748",
        "scriptpubkey_asm": "OP_0 OP_PUSHBYTES_20 7eec425def624e926a0ef05a2fcc8669f6c62748",
        "scriptpubkey_type": "v0_p2wpkh",
        "scriptpubkey_address": "bc1q0mkyyh00vf8fy6sw7pdzlnyxd8mvvf6gt6x87k",
        "value": 2076900
      },
      "scriptsig": "",
      "scriptsig_asm": "",
      "witness": [
        "3044022044266d7572bce67d85db14771c3b7c15cf348fafca3911b04fbdd67063a3da2302201fa7570ea6cccd6a52a5442bd97cbdcd13a2c3a0771e397ead67dc733b9b1c3b01",
        "02e84b7e19cb9314e2bb5488e5d85338436ff4b70521915fc6059064e3c4cd4d5c"
      ],
      "is_coinbase": false,
      "sequence": 4294967295
    }
  ],
  "vout": [
    {
      "scriptpubkey": "76a914f0361e297f1536a64a3bb4ee4d6b619bc5c4a4b788ac",
      "scriptpubkey_asm": "OP_DUP OP_HASH160 OP_PUSHBYTES_20 f0361e297f1536a64a3bb4ee4d6b619bc5c4a4b7 OP_EQUALVERIFY OP_CHECKSIG",
      "scriptpubkey_type": "p2pkh",
      "scriptpubkey_address": "1Nu81DGA6fY1kBUGyNBNNeqVqqt3woCXoG",
      "value": 2073984
    }
  ],
  "size": 194,
  "weight": 449,
  "fee": 2916,
  "status": {
    "confirmed": true,
    "block_height": 834638,
    "block_hash": "000000000000000000025f742c626208ac87e0b7d15054abb4a19ca2d735a54e",
    "block_time": 1710405325
  },
  "hex": "010000000001013db7d7c817f05c37e41a0ec09ae3396da3bc40f880254a9c2852082bbce2d7fa0100000000ffffffff0180a51f00000000001976a914f0361e297f1536a64a3bb4ee4d6b619bc5c4a4b788ac02473044022044266d7572bce67d85db14771c3b7c15cf348fafca3911b04fbdd67063a3da2302201fa7570ea6cccd6a52a5442bd97cbdcd13a2c3a0771e397ead67dc733b9b1c3b012102e84b7e19cb9314e2bb5488e5d85338436ff4b70521915fc6059064e3c4cd4d5c00000000"
}