{
  "txid": "1bcf7cd5ec917e27c62f40576eec319d20dfe2f3b5a03a412955d590fb4241d0",
  "version": 2,
  "locktime": 0,
  "vin": [
    {
      "txid": "8486ecb4df0880316dd6e82b3971b4df187aff23765bc3a47f8d78bb53aa273c",
      "vout": 65,
      "prevout": {
        "scriptpubkey": "5120d19908a827fc57d59e7ad52a537c62db3b7ef40a396b22980aa786eeaddfebb8",
        "scriptpubkey_asm": "OP_PUSHNUM_1 OP_PUSHBYTES_32 d19908a827fc57d59e7ad52a537c62db3b7ef40a396b22980aa786eeaddfebb8",
        "scriptpubkey_type": "v1_p2tr",
        "scriptpubkey_address": "bc1p6xvs32p8l3tat8n66549xlrzmvahaaq2894j9xq257rwatwlawuq73kag8",
        "value": 2575
      },
      "scriptsig": "",
      "scriptsig_asm": "",
      "witness": [
        "3a2e4f7716d3c38141fb0e28abf23ca9ed1f240e4e4a13ee922692cf716c5f4a3887efe7683a47c86f2dd56199ea1f50d7eda30f666acbb63ac97dfdd29c3fd5",
        "20b774abbe90f054b4838f3edf54634f0f9c1e714ae1e26909c1cca0e57d87ca9aac0063036f726401010a746578742f706c61696e00367b2270223a226272632d3230222c226f70223a226d696e74222c227469636b223a2261616161222c22616d74223a223130303030227d68",
        "c1b774abbe90f054b4838f3edf54634f0f9c1e714ae1e26909c1cca0e57d87ca9a"
      ],
      "is_coinbase": false,
      "sequence": 4261412863
    }
  ],
  "vout": [
    {
      "scriptpubkey": "0014ddd7ef12ea6f78edcc1e8e7afa12c01ab59f3339",
      "scriptpubkey_asm": "OP_0 OP_PUSHBYTES_20 ddd7ef12ea6f78edcc1e8e7afa12c01ab59f3339",
      "scriptpubkey_type": "v0_p2wpkh",
      "scriptpubkey_address": "bc1qmht77yh2dauwmnq73ea05ykqr26e7veea8spz6",
      "value": 546
    }
  ],
  "size": 295,
  "weight": 541,
  "fee": 2029,
  "status": {
    "confirmed": true,
    "block_height": 834460,
    "block_hash": "00000000000000000000484a79b643b2524bbce82e5d8a442013fa5b8905ed98",
    "block_time": 1710307468
  },
  "hex": "020000000001013c27aa53bb788d7fa4c35b7623ff7a18dfb471392be8d66d318008dfb4ec86844100000000fffffffd012202000000000000160014ddd7ef12ea6f78edcc1e8e7afa12c01ab59f333903403a2e4f7716d3c38141fb0e28abf23ca9ed1f240e4e4a13ee922692cf716c5f4a3887efe7683a47c86f2dd56199ea1f50d7eda30f666acbb63ac97dfdd29c3fd56e20b774abbe90f054b4838f3edf54634f0f9c1e714ae1e26909c1cca0e57d87ca9aac0063036f726401010a746578742f706c61696e00367b2270223a226272632d3230222c226f70223a226d696e74222c227469636b223a2261616161222c22616d74223a223130303030227d6821c1b774abbe90f054b4838f3edf54634f0f9c1e714ae1e26909c1cca0e57d87ca9a00000000"
}