{
  "txid": "1bdafc9721476bc3a0ab401b062decb70960ecdda0af8aa56381ba9c18b4d78a",
  "version": 2,
  "locktime": 0,
  "vin": [
    {
      "txid": "f0c577488f87cbb10bcd7fff1617710b6fe43bd0d4663c1ca0dd4ea390136d7e",
      "vout": 0,
      "prevout": {
        "scriptpubkey": "51205f7bdac8b2a609cea26e491d834d687dd71d96b8e65b87a4fe7b38f7b729307d",
        "scriptpubkey_asm": "OP_PUSHNUM_1 OP_PUSHBYTES_32 5f7bdac8b2a609cea26e491d834d687dd71d96b8e65b87a4fe7b38f7b729307d",
        "scriptpubkey_type": "v1_p2tr",
        "scriptpubkey_address": "bc1ptaaa4j9j5cyuagnwfywcxntg0ht3m94cuedc0f870vu00defxp7se0htkt",
        "value": 4000
      },
      "scriptsig": "",
      "scriptsig_asm": "",
      "witness": [
        "f051c0093f77d72fe1c752cbb8da1ffe326cda195cd9538b60318235534129a94de73a3db77e91838b2fbbe476eb00cb79cf28b9f7da2a5333b8095ba0cd17fb",
        "202a0b41ac6dfa083a8da8d4ab667e19809a9fceb231267cf85a29d5a303f9738bac0063036f7264010118746578742f706c61696e3b636861727365743d7574662d3800367b2270223a226272632d3230222c226f70223a227472616e73666572222c227469636b223a22636f7773222c22616d74223a2231227d68",
        "c00c9c89b5a219aa7b5f0880dc35b4751656e284edd1054ecaefedafae5ea0a81d"
      ],
      "is_coinbase": false,
      "sequence": 4294967293
    }
  ],
  "vout": [
    {
      "scriptpubkey": "512047890c43e02ec01fe874fa5d8967bbfc8d893c5990d0e0774bca1dac982b8b80",
      "scriptpubkey_asm": "OP_PUSHNUM_1 OP_PUSHBYTES_32 47890c43e02ec01fe874fa5d8967bbfc8d893c5990d0e0774bca1dac982b8b80",
      "scriptpubkey_type": "v1_p2tr",
      "scriptpubkey_address": "bc1pg7yscslq9mqpl6r5lfwcjeamljxcj0zejrgwqa6tegw6expt3wqqjvw989",
      "value": 330
    },
    {
      "scriptpubkey": "0014fc9f573c7f7adb7050745f05b07bde9301fdf983",
      "scriptpubkey_asm": "OP_0 OP_PUSHBYTES_20 fc9f573c7f7adb7050745f05b07bde9301fdf983",
      "scriptpubkey_type": "v0_p2wpkh",
      "scriptpubkey_address": "bc1qlj04w0rl0tdhq5r5tuzmq777jvqlm7vr3dllje",
      "value": 1486
    }
  ],
  "size": 352,
  "weight": 727,
  "fee": 2184,
  "status": {
    "confirmed": true,
    "block_height": 834460,
    "block_hash": "00000000000000000000484a79b643b2524bbce82e5d8a442013fa5b8905ed98",
    "block_time": 1710307468
  },
  "hex": "020000000001017e6d1390a34edda01c3c66d4d03be46f0b711716ff7fcd0bb1cb878f4877c5f00000000000fdffffff024a0100000000000022512047890c43e02ec01fe874fa5d8967bbfc8d893c5990d0e0774bca1dac982b8b80ce05000000000000160014fc9f573c7f7adb7050745f05b07bde9301fdf9830340f051c0093f77d72fe1c752cbb8da1ffe326cda195cd9538b60318235534129a94de73a3db77e91838b2fbbe476eb00cb79cf28b9f7da2a5333b8095ba0cd17fb7c202a0b41ac6dfa083a8da8d4ab667e19809a9fceb231267cf85a29d5a303f9738bac0063036f7264010118746578742f706c61696e3b636861727365743d7574662d3800367b2270223a226272632d3230222c226f70223a227472616e73666572222c227469636b223a22636f7773222c22616d74223a2231227d6821c00c9c89b5a219aa7b5f0880dc35b4751656e284edd1054ecaefedafae5ea0a81d00000000"
}