{
  "txid": "1bdfa9f0e90b6b36badbb6e7d812a594cdd8c8aa907d8c2b3822bcfc8e9fa3ee",
  "version": 2,
  "locktime": 0,
  "vin": [
    {
      "txid": "4ee77778659dcfe8d7a4e15882fc6193f4f3d5f6607624e256337b44c2280af5",
      "vout": 12,
      "prevout": {
        "scriptpubkey": "5120cedb6fb36ebd7d563d2116ae8ea95fd18c74b62fd658a381d3f383eb213d99e0",
        "scriptpubkey_asm": "OP_PUSHNUM_1 OP_PUSHBYTES_32 cedb6fb36ebd7d563d2116ae8ea95fd18c74b62fd658a381d3f383eb213d99e0",
        "scriptpubkey_type": "v1_p2tr",
        "scriptpubkey_address": "bc1pemdklvmwh474v0fpz6hga22l6xx8fd306ev28qwn7wp7kgfan8sqj4y76s",
        "value": 2075
      },
      "scriptsig": "",
      "scriptsig_asm": "",
      "witness": [
        "afab7e7a49c61844ce80a3b0caa5a59bee5f58add31f0454befc8f4ea6156bc2e2f722d0812d723575b159a7e28b48acbc4140dffc8672d767047c8c12f4f18b",
        "20360c9a3688a8416044a85e413fe9cb90c669f1d1ab8adbc012e5eb382fa70595ac0063036f7264010118746578742f706c61696e3b636861727365743d7574662d3800357b2270223a224252432d313030222c226f70223a226d696e74222c227469636b223a22696e73222c22616d74223a2231303030227d68",
        "c1c50eac15d7d7889f5ad84f80015e8a209129aeea937c37fa4b8bc0f9be289730"
      ],
      "is_coinbase": false,
      "sequence": 4294967295
    }
  ],
  "vout": [
    {
      "scriptpubkey": "00143e2325412b554cacdd163a93a42204c4707f8851",
      "scriptpubkey_asm": "OP_0 OP_PUSHBYTES_20 3e2325412b554cacdd163a93a42204c4707f8851",
      "scriptpubkey_type": "v0_p2wpkh",
      "scriptpubkey_address": "bc1q8c3j2sft24x2ehgk82f6ggsyc3c8lzz3yw9wsu",
      "value": 546
    }
  ],
  "size": 308,
  "weight": 554,
  "fee": 1529,
  "status": {
    "confirmed": true,
    "block_height": 834464,
    "block_hash": "0000000000000000000177a0869a911a2b65c9bdcd5a8bcb02b68f305bee848e",
    "block_time": 1710308296
  },
  "hex": "02000000000101f50a28c2447b3356e2247660f6d5f3f49361fc8258e1a4d7e8cf9d657877e74e0c00000000ffffffff0122020000000000001600143e2325412b554cacdd163a93a42204c4707f88510340afab7e7a49c61844ce80a3b0caa5a59bee5f58add31f0454befc8f4ea6156bc2e2f722d0812d723575b159a7e28b48acbc4140dffc8672d767047c8c12f4f18b7b20360c9a3688a8416044a85e413fe9cb90c669f1d1ab8adbc012e5eb382fa70595ac0063036f7264010118746578742f706c61696e3b636861727365743d7574662d3800357b2270223a224252432d313030222c226f70223a226d696e74222c227469636b223a22696e73222c22616d74223a2231303030227d6821c1c50eac15d7d7889f5ad84f80015e8a209129aeea937c37fa4b8bc0f9be28973000000000"
}