{
  "txid": "1bead20256df5fbe932c987cc8b2fbc90c74ebc945f8951a1793172b8dea40dc",
  "version": 1,
  "locktime": 0,
  "vin": [
    {
      "txid": "f50cae3f2042bc4d6dae0d80374ed1479faef80948f6290fbdaa7c5fb988e5bf",
      "vout": 0,
      "prevout": {
        "scriptpubkey": "00142927a136d297eef1509a8002d6381e0bad9bd06f",
        "scriptpubkey_asm": "OP_0 OP_PUSHBYTES_20 2927a136d297eef1509a8002d6381e0bad9bd06f",
        "scriptpubkey_type": "v0_p2wpkh",
        "scriptpubkey_address": "bc1q9yn6zdkjjlh0z5y6sqpdvwq7pwkeh5r0ka28ad",
        "value": 63181338
      },
      "scriptsig": "",
      "scriptsig_asm": "",
      "witness": [
        "3045022100cf943a0f8202796c2d48bb60bf8dcb8ecc5dd7198ce2bed3c28f8f598f5e6e4f0220200b1ecd89f071b240a8cd23abec1cab9d0b7b047e52f6836024eb64cc1f863e01",
        "02cf7ff74a9cd3ae162a1ca96a54c3c265a3b81ce4fc4d0195ea3885be2ec6012c"
      ],
      "is_coinbase": false,
      "sequence": 4294967295
    }
  ],
  "vout": [
    {
      "scriptpubkey": "00142927a136d297eef1509a8002d6381e0bad9bd06f",
      "scriptpubkey_asm": "OP_0 OP_PUSHBYTES_20 2927a136d297eef1509a8002d6381e0bad9bd06f",
      "scriptpubkey_type": "v0_p2wpkh",
      "scriptpubkey_address": "bc1q9yn6zdkjjlh0z5y6sqpdvwq7pwkeh5r0ka28ad",
      "value": 62903995
    },
    {
      "scriptpubkey": "00142749d219b013cf675f80ebf22b92aa49de68e705",
      "scriptpubkey_asm": "OP_0 OP_PUSHBYTES_20 2749d219b013cf675f80ebf22b92aa49de68e705",
      "scriptpubkey_type": "v0_p2wpkh",
      "scriptpubkey_address": "bc1qyayayxdsz08kwhuqa0ezhy42f80x3ec9fra556",
      "value": 275803
    }
  ],
  "size": 223,
  "weight": 562,
  "fee": 1540,
  "status": {
    "confirmed": true,
    "block_height": 834464,
    "block_hash": "0000000000000000000177a0869a911a2b65c9bdcd5a8bcb02b68f305bee848e",
    "block_time": 1710308296
  },
  "hex": "01000000000101bfe588b95f7caabd0f29f64809f8ae9f47d14e37800dae6d4dbc42203fae0cf50000000000ffffffff02bbd6bf03000000001600142927a136d297eef1509a8002d6381e0bad9bd06f5b350400000000001600142749d219b013cf675f80ebf22b92aa49de68e70502483045022100cf943a0f8202796c2d48bb60bf8dcb8ecc5dd7198ce2bed3c28f8f598f5e6e4f0220200b1ecd89f071b240a8cd23abec1cab9d0b7b047e52f6836024eb64cc1f863e012102cf7ff74a9cd3ae162a1ca96a54c3c265a3b81ce4fc4d0195ea3885be2ec6012c00000000"
}