{
  "txid": "1bf7e3b41e917a8110419403a02baffdef98da621b7b78068c9313a959c877ab",
  "version": 1,
  "locktime": 0,
  "vin": [
    {
      "txid": "8a2800d5541e61c339934f4351438d6c68690c3014122c11aa32578c2e1618eb",
      "vout": 0,
      "prevout": {
        "scriptpubkey": "0020be4c89e16be272b15edbfd0bece92c06ff2faaf44459e06d9706f23ba6055cc2",
        "scriptpubkey_asm": "OP_0 OP_PUSHBYTES_32 be4c89e16be272b15edbfd0bece92c06ff2faaf44459e06d9706f23ba6055cc2",
        "scriptpubkey_type": "v0_p2wsh",
        "scriptpubkey_address": "bc1qhexgncttufetzhkml597e6fvqmljl2h5g3v7qmvhqmerhfs9tnpq5msvtw",
        "value": 2787070
      },
      "scriptsig": "",
      "scriptsig_asm": "",
      "witness": [
        "304402203c55cf6cdd130489e7581a8e7411f0a2dd00c6c46c32983ec873dfe3e48cd873022073a2d3ce3a1ac9ffabbcef4ffac0e6fd3d22d1273cfe1b9c539f1ab011a0571b01",
        "2102f6382beb061a90c01ee805f29003de0944fb2ce8936af5bce82cf5697acdd99cac635a67006856a0010075"
      ],
      "is_coinbase": false,
      "sequence": 4294967295,
      "inner_witnessscript_asm": "OP_PUSHBYTES_33 02f6382beb061a90c01ee805f29003de0944fb2ce8936af5bce82cf5697acdd99c OP_CHECKSIG OP_IF OP_PUSHNUM_10 OP_ELSE OP_0 OP_ENDIF OP_PUSHNUM_6 OP_GREATERTHAN OP_PUSHBYTES_1 00 OP_DROP"
    },
    {
      "txid": "de4b5256f3b3e9ccda69ff12572886cad03e95f4ce525df3af3205d7d6c38bec",
      "vout": 1,
      "prevout": {
        "scriptpubkey": "0020b7bf09488b0b3a96590ee4d18c14515d57ee18f90e701878c238257d178769fc",
        "scriptpubkey_asm": "OP_0 OP_PUSHBYTES_32 b7bf09488b0b3a96590ee4d18c14515d57ee18f90e701878c238257d178769fc",
        "scriptpubkey_type": "v0_p2wsh",
        "scriptpubkey_address": "bc1qk7lsjjytpvafvkgwungcc9z3t4t7ux8epecps7xz8qjh69u8d87q05vzew",
        "value": 100000
      },
      "scriptsig": "",
      "scriptsig_asm": "",
      "witness": [
        "3045022100951b90510639bdfe2aed952f9960071f1e83cea98bca7bf7d14f4f184f34381102203c856bbb1289d0fdc04f16cd71d9c91709dd028489a4d201bc1a2907b80ec29d01",
        "2102f6382beb061a90c01ee805f29003de0944fb2ce8936af5bce82cf5697acdd99cac635a67006856a020e4f8512df3689ae22f53b0aa106778ba89228cbff31867f6022025ab593a66d375"
      ],
      "is_coinbase": false,
      "sequence": 4294967295,
      "inner_witnessscript_asm": "OP_PUSHBYTES_33 02f6382beb061a90c01ee805f29003de0944fb2ce8936af5bce82cf5697acdd99c OP_CHECKSIG OP_IF OP_PUSHNUM_10 OP_ELSE OP_0 OP_ENDIF OP_PUSHNUM_6 OP_GREATERTHAN OP_PUSHBYTES_32 e4f8512df3689ae22f53b0aa106778ba89228cbff31867f6022025ab593a66d3 OP_DROP"
    },
    {
      "txid": "6a6124966bc17a21b7d1416146536b6c2a61443bd5118b71f9f4c279245c249b",
      "vout": 1,
      "prevout": {
        "scriptpubkey": "0020b7bf09488b0b3a96590ee4d18c14515d57ee18f90e701878c238257d178769fc",
        "scriptpubkey_asm": "OP_0 OP_PUSHBYTES_32 b7bf09488b0b3a96590ee4d18c14515d57ee18f90e701878c238257d178769fc",
        "scriptpubkey_type": "v0_p2wsh",
        "scriptpubkey_address": "bc1qk7lsjjytpvafvkgwungcc9z3t4t7ux8epecps7xz8qjh69u8d87q05vzew",
        "value": 80000
      },
      "scriptsig": "",
      "scriptsig_asm": "",
      "witness": [
        "3045022100c1017a4eb6781ca5d6411526f972c6a8c48afba3631f353ee951a957d49f54fc02203123942b6982864b421bff68f0b9db7240f7f1f0a5ac32a9a32de378cdd03d9501",
        "2102f6382beb061a90c01ee805f29003de0944fb2ce8936af5bce82cf5697acdd99cac635a67006856a020e4f8512df3689ae22f53b0aa106778ba89228cbff31867f6022025ab593a66d375"
      ],
      "is_coinbase": false,
      "sequence": 4294967295,
      "inner_witnessscript_asm": "OP_PUSHBYTES_33 02f6382beb061a90c01ee805f29003de0944fb2ce8936af5bce82cf5697acdd99c OP_CHECKSIG OP_IF OP_PUSHNUM_10 OP_ELSE OP_0 OP_ENDIF OP_PUSHNUM_6 OP_GREATERTHAN OP_PUSHBYTES_32 e4f8512df3689ae22f53b0aa106778ba89228cbff31867f6022025ab593a66d3 OP_DROP"
    }
  ],
  "vout": [
    {
      "scriptpubkey": "00201d7583084e2ebcd2251c734c9d602a2ad6a22a33f74863cb4d20c0e991cdda18",
      "scriptpubkey_asm": "OP_0 OP_PUSHBYTES_32 1d7583084e2ebcd2251c734c9d602a2ad6a22a33f74863cb4d20c0e991cdda18",
      "scriptpubkey_type": "v0_p2wsh",
      "scriptpubkey_address": "bc1qr46cxzzw967dyfguwdxf6cp29tt2y23n7ayx8j6dyrqwnywdmgvqu9awvn",
      "value": 2955610
    },
    {
      "scriptpubkey": "6a20edf3384a4c38c36bb3f9331c69db49b5b5079d07c0d11c0a8977ca47381267b3",
      "scriptpubkey_asm": "OP_RETURN OP_PUSHBYTES_32 edf3384a4c38c36bb3f9331c69db49b5b5079d07c0d11c0a8977ca47381267b3",
      "scriptpubkey_type": "op_return",
      "value": 0
    }
  ],
  "size": 642,
  "weight": 1299,
  "fee": 11460,
  "status": {
    "confirmed": true,
    "block_height": 834464,
    "block_hash": "0000000000000000000177a0869a911a2b65c9bdcd5a8bcb02b68f305bee848e",
    "block_time": 1710308296
  },
  "hex": "01000000000103eb18162e8c5732aa112c1214300c69686c8d4351434f9339c3611e54d500288a0000000000ffffffffec8bc3d6d70532aff35d52cef4953ed0ca86285712ff69dacce9b3f356524bde0100000000ffffffff9b245c2479c2f4f9718b11d53b44612a6c6b53466141d1b7217ac16b9624616a0100000000ffffffff025a192d00000000002200201d7583084e2ebcd2251c734c9d602a2ad6a22a33f74863cb4d20c0e991cdda180000000000000000226a20edf3384a4c38c36bb3f9331c69db49b5b5079d07c0d11c0a8977ca47381267b30247304402203c55cf6cdd130489e7581a8e7411f0a2dd00c6c46c32983ec873dfe3e48cd873022073a2d3ce3a1ac9ffabbcef4ffac0e6fd3d22d1273cfe1b9c539f1ab011a0571b012d2102f6382beb061a90c01ee805f29003de0944fb2ce8936af5bce82cf5697acdd99cac635a67006856a001007502483045022100951b90510639bdfe2aed952f9960071f1e83cea98bca7bf7d14f4f184f34381102203c856bbb1289d0fdc04f16cd71d9c91709dd028489a4d201bc1a2907b80ec29d014c2102f6382beb061a90c01ee805f29003de0944fb2ce8936af5bce82cf5697acdd99cac635a67006856a020e4f8512df3689ae22f53b0aa106778ba89228cbff31867f6022025ab593a66d37502483045022100c1017a4eb6781ca5d6411526f972c6a8c48afba3631f353ee951a957d49f54fc02203123942b6982864b421bff68f0b9db7240f7f1f0a5ac32a9a32de378cdd03d95014c2102f6382beb061a90c01ee805f29003de0944fb2ce8936af5bce82cf5697acdd99cac635a67006856a020e4f8512df3689ae22f53b0aa106778ba89228cbff31867f6022025ab593a66d37500000000"
}