{
  "txid": "1c0226de2a17981aeb5345fea922e10feb5432f04b9a9533524b25d2567213c2",
  "version": 1,
  "locktime": 0,
  "vin": [
    {
      "txid": "888888fc064b3970c65462ed3c610693b89b656b369c54d5acd5aeee449d6c01",
      "vout": 0,
      "prevout": {
        "scriptpubkey": "51202bd26f1a113c3581254d70f6cbb71cbc0ed8c0ee0f8ee17d7cdcb280631c5475",
        "scriptpubkey_asm": "OP_PUSHNUM_1 OP_PUSHBYTES_32 2bd26f1a113c3581254d70f6cbb71cbc0ed8c0ee0f8ee17d7cdcb280631c5475",
        "scriptpubkey_type": "v1_p2tr",
        "scriptpubkey_address": "bc1p90fx7xs38s6czf2dwrmvhdcuhs8d3s8wp78wzltumjegqccu236szmu2zq",
        "value": 11484
      },
      "scriptsig": "",
      "scriptsig_asm": "",
      "witness": [
        "6de52b6e078beddab995dc9e5c6dcadeb8b0f04ffb0e38a4468396d689472a0557c7aceffdc3a3b8a954975cf7996f788ec020d164f3ffe952380c0c265c7f9e83",
        "20b45a9ed8be961ae9776db234f21e7b6aabe8b15c60b8f3b876b6d23b2db4d9c2ac00630461746f6d03646d7444a16461726773a468626974776f726b63693838383838382e31356b6d696e745f7469636b657268696e66696e697479656e6f6e63651a0038314e6474696d651a65dc465268",
        "c1b45a9ed8be961ae9776db234f21e7b6aabe8b15c60b8f3b876b6d23b2db4d9c2"
      ],
      "is_coinbase": false,
      "sequence": 4294967293
    }
  ],
  "vout": [
    {
      "scriptpubkey": "0014bffc61ed576ab45eadbb3252d1e756e9d3d1fa28",
      "scriptpubkey_asm": "OP_0 OP_PUSHBYTES_20 bffc61ed576ab45eadbb3252d1e756e9d3d1fa28",
      "scriptpubkey_type": "v0_p2wpkh",
      "scriptpubkey_address": "bc1qhl7xrm2hd269atdmxffdre6ka8far73g0gxfse",
      "value": 9999
    }
  ],
  "size": 301,
  "weight": 547,
  "fee": 1485,
  "status": {
    "confirmed": true,
    "block_height": 834464,
    "block_hash": "0000000000000000000177a0869a911a2b65c9bdcd5a8bcb02b68f305bee848e",
    "block_time": 1710308296
  },
  "hex": "01000000000101016c9d44eeaed5acd5549c366b659bb89306613ced6254c670394b06fc8888880000000000fdffffff010f27000000000000160014bffc61ed576ab45eadbb3252d1e756e9d3d1fa2803416de52b6e078beddab995dc9e5c6dcadeb8b0f04ffb0e38a4468396d689472a0557c7aceffdc3a3b8a954975cf7996f788ec020d164f3ffe952380c0c265c7f9e837320b45a9ed8be961ae9776db234f21e7b6aabe8b15c60b8f3b876b6d23b2db4d9c2ac00630461746f6d03646d7444a16461726773a468626974776f726b63693838383838382e31356b6d696e745f7469636b657268696e66696e697479656e6f6e63651a0038314e6474696d651a65dc46526821c1b45a9ed8be961ae9776db234f21e7b6aabe8b15c60b8f3b876b6d23b2db4d9c200000000"
}