{
  "txid": "1c0a1655ea3393cf7fc15557a248c09ce11df06453a130fb2a9461ae69c533cb",
  "version": 2,
  "locktime": 0,
  "vin": [
    {
      "txid": "c330c746934792f7db8a24eccb22dc52c928767c802ee6fe7942e0af6316b42b",
      "vout": 0,
      "prevout": {
        "scriptpubkey": "5120c39998d3d3742f88888b24a2b5f798eae31ec2ce932be4d6de6667eae5735d6d",
        "scriptpubkey_asm": "OP_PUSHNUM_1 OP_PUSHBYTES_32 c39998d3d3742f88888b24a2b5f798eae31ec2ce932be4d6de6667eae5735d6d",
        "scriptpubkey_type": "v1_p2tr",
        "scriptpubkey_address": "bc1pcwve357nwshc3zytyj3ttaucat33askwjv47f4k7ven74etnt4ksvwlm6n",
        "value": 2218
      },
      "scriptsig": "",
      "scriptsig_asm": "",
      "witness": [
        "c92fc921544df3f99970144bad6405465d24031d880f6272369d0342e3950e244bab57dfdc0a6a7868499831001a4fe25330f7565071566c73b09189b9387e43",
        "20ab31eae780e60d8691f52f51a1f3225e6e22882ce048203dff25c6ff788efe16ac0063036f7264010118746578742f706c61696e3b636861727365743d7574662d3800397b2270223a226272632d3230222c226f70223a227472616e73666572222c227469636b223a2262616e6b222c22616d74223a2231303030227d68",
        "c0ab31eae780e60d8691f52f51a1f3225e6e22882ce048203dff25c6ff788efe16"
      ],
      "is_coinbase": false,
      "sequence": 4294967293
    }
  ],
  "vout": [
    {
      "scriptpubkey": "5120eb688de4e70deb45f21e90b7e407a3371386707beac2f86f8f47355540428ccc",
      "scriptpubkey_asm": "OP_PUSHNUM_1 OP_PUSHBYTES_32 eb688de4e70deb45f21e90b7e407a3371386707beac2f86f8f47355540428ccc",
      "scriptpubkey_type": "v1_p2tr",
      "scriptpubkey_address": "bc1pad5gme88ph45tus7jzm7gparxufcvurmatp0smu0gu642szz3nxq00amgs",
      "value": 546
    }
  ],
  "size": 324,
  "weight": 606,
  "fee": 1672,
  "status": {
    "confirmed": true,
    "block_height": 834464,
    "block_hash": "0000000000000000000177a0869a911a2b65c9bdcd5a8bcb02b68f305bee848e",
    "block_time": 1710308296
  },
  "hex": "020000000001012bb41663afe04279fee62e807c7628c952dc22cbec248adbf792479346c730c30000000000fdffffff012202000000000000225120eb688de4e70deb45f21e90b7e407a3371386707beac2f86f8f47355540428ccc0340c92fc921544df3f99970144bad6405465d24031d880f6272369d0342e3950e244bab57dfdc0a6a7868499831001a4fe25330f7565071566c73b09189b9387e437f20ab31eae780e60d8691f52f51a1f3225e6e22882ce048203dff25c6ff788efe16ac0063036f7264010118746578742f706c61696e3b636861727365743d7574662d3800397b2270223a226272632d3230222c226f70223a227472616e73666572222c227469636b223a2262616e6b222c22616d74223a2231303030227d6821c0ab31eae780e60d8691f52f51a1f3225e6e22882ce048203dff25c6ff788efe1600000000"
}