{
  "txid": "1c16ff94149b6f31ae6be0d02f8a00fd61bbb248becbc9f1f5cd505c5cd10c65",
  "version": 2,
  "locktime": 0,
  "vin": [
    {
      "txid": "acc3ba00869acb582a3f2904ce3a11dd3779350ce234063fc7d0959246213364",
      "vout": 268,
      "prevout": {
        "scriptpubkey": "5120c5e9502354430e493c127f4feebc227748c3ad7ee331bffa822c1731bf9dc4eb",
        "scriptpubkey_asm": "OP_PUSHNUM_1 OP_PUSHBYTES_32 c5e9502354430e493c127f4feebc227748c3ad7ee331bffa822c1731bf9dc4eb",
        "scriptpubkey_type": "v1_p2tr",
        "scriptpubkey_address": "bc1pch54qg65gv8yj0qj0a87a0pzwayv8tt7uvcml75z9stnr0uacn4skqgygz",
        "value": 1806
      },
      "scriptsig": "",
      "scriptsig_asm": "",
      "witness": [
        "eb2bb4661d226ff9d46aa9a6be64d0802f206bcea96282425971eac1e3616c721f53a7dc8099008d19217f7b538c18db5c03f7a5227618bed577590c68c77720",
        "204f202ecf55ac535666e2a11082ac449e037b979dab2e49e6fc8bd59b1e1f450fac0063036f726401010a746578742f706c61696e00357b2270223a226272632d3230222c226f70223a226d696e74222c227469636b223a22646f6765222c22616d74223a2234323030227d68",
        "c04f202ecf55ac535666e2a11082ac449e037b979dab2e49e6fc8bd59b1e1f450f"
      ],
      "is_coinbase": false,
      "sequence": 4261412863
    }
  ],
  "vout": [
    {
      "scriptpubkey": "00147a665de7a370f4c9b372ab1fae587500a5bcbdb4",
      "scriptpubkey_asm": "OP_0 OP_PUSHBYTES_20 7a665de7a370f4c9b372ab1fae587500a5bcbdb4",
      "scriptpubkey_type": "v0_p2wpkh",
      "scriptpubkey_address": "bc1q0fn9mearwr6vnvmj4v06ukr4qzjme0d565dzcx",
      "value": 294
    }
  ],
  "size": 294,
  "weight": 540,
  "fee": 1512,
  "status": {
    "confirmed": true,
    "block_height": 834460,
    "block_hash": "00000000000000000000484a79b643b2524bbce82e5d8a442013fa5b8905ed98",
    "block_time": 1710307468
  },
  "hex": "02000000000101643321469295d0c73f0634e20c357937dd113ace04293f2a58cb9a8600bac3ac0c01000000fffffffd0126010000000000001600147a665de7a370f4c9b372ab1fae587500a5bcbdb40340eb2bb4661d226ff9d46aa9a6be64d0802f206bcea96282425971eac1e3616c721f53a7dc8099008d19217f7b538c18db5c03f7a5227618bed577590c68c777206d204f202ecf55ac535666e2a11082ac449e037b979dab2e49e6fc8bd59b1e1f450fac0063036f726401010a746578742f706c61696e00357b2270223a226272632d3230222c226f70223a226d696e74222c227469636b223a22646f6765222c22616d74223a2234323030227d6821c04f202ecf55ac535666e2a11082ac449e037b979dab2e49e6fc8bd59b1e1f450f00000000"
}