{
  "txid": "1c287dd24ab55be451ab59ec4d60c3ee889ed77931f919e40bbfe033d3a4f552",
  "version": 2,
  "locktime": 0,
  "vin": [
    {
      "txid": "2d09b826d1376ddbfceb1ba047b7c0dd6ab4cceb2f4f2aed22fc11f05e0f95ea",
      "vout": 1,
      "prevout": {
        "scriptpubkey": "a914ddeb81d26708f04797ba622cf2838b8d9bcb977887",
        "scriptpubkey_asm": "OP_HASH160 OP_PUSHBYTES_20 ddeb81d26708f04797ba622cf2838b8d9bcb9778 OP_EQUAL",
        "scriptpubkey_type": "p2sh",
        "scriptpubkey_address": "3MvRPG1boVuxyZDy2Ru44FLseo4vUL9u6E",
        "value": 150088322
      },
      "scriptsig": "160014274ed23351f8aa7285b3f7c0f92852e9a99e3689",
      "scriptsig_asm": "OP_PUSHBYTES_22 0014274ed23351f8aa7285b3f7c0f92852e9a99e3689",
      "witness": [
        "3045022100f644c848b7365fd479f3e76268a44287a2f01540888473261581f4ac63e16c5c0220474b2ba824ca3e2242a91e8d42d97a2cdfc2c67752c01df73f47bb1e9c97735e01",
        "032f7e3f6255c6012f4b3160e56ed4bd252700d7d2186ffbbd2f3bf1b98986e9ff"
      ],
      "is_coinbase": false,
      "sequence": 4294967295,
      "inner_redeemscript_asm": "OP_0 OP_PUSHBYTES_20 274ed23351f8aa7285b3f7c0f92852e9a99e3689"
    }
  ],
  "vout": [
    {
      "scriptpubkey": "76a9141db06d7754fdc320efb8a6a4b2ed308df25f19c188ac",
      "scriptpubkey_asm": "OP_DUP OP_HASH160 OP_PUSHBYTES_20 1db06d7754fdc320efb8a6a4b2ed308df25f19c1 OP_EQUALVERIFY OP_CHECKSIG",
      "scriptpubkey_type": "p2pkh",
      "scriptpubkey_address": "13hywy8cih3WEb5PLeta3bzGWBpW1NFPiw",
      "value": 100000
    },
    {
      "scriptpubkey": "a9144be4706e11fd4c36a0e597b215ee303615c9f89d87",
      "scriptpubkey_asm": "OP_HASH160 OP_PUSHBYTES_20 4be4706e11fd4c36a0e597b215ee303615c9f89d OP_EQUAL",
      "scriptpubkey_type": "p2sh",
      "scriptpubkey_address": "38cJGASEEyg26L7kjKomQusBogsxeAYFjL",
      "value": 149985844
    }
  ],
  "size": 250,
  "weight": 670,
  "fee": 2478,
  "status": {
    "confirmed": true,
    "block_height": 834638,
    "block_hash": "000000000000000000025f742c626208ac87e0b7d15054abb4a19ca2d735a54e",
    "block_time": 1710405325
  },
  "hex": "02000000000101ea950f5ef011fc22ed2a4f2febccb46addc0b747a01bebfcdb6d37d126b8092d0100000017160014274ed23351f8aa7285b3f7c0f92852e9a99e3689ffffffff02a0860100000000001976a9141db06d7754fdc320efb8a6a4b2ed308df25f19c188ac349af0080000000017a9144be4706e11fd4c36a0e597b215ee303615c9f89d8702483045022100f644c848b7365fd479f3e76268a44287a2f01540888473261581f4ac63e16c5c0220474b2ba824ca3e2242a91e8d42d97a2cdfc2c67752c01df73f47bb1e9c97735e0121032f7e3f6255c6012f4b3160e56ed4bd252700d7d2186ffbbd2f3bf1b98986e9ff00000000"
}