{
  "txid": "1c458f8adfb5c24e6219e920287a37b0d96f812666ed48e0f287868ed38319be",
  "version": 2,
  "locktime": 834593,
  "vin": [
    {
      "txid": "c8a6c5ca8fb8661dbf24e21b5a9fdd2bcb38ab008a9af4105e679c47ca0d9ab8",
      "vout": 1,
      "prevout": {
        "scriptpubkey": "001425bdb830f0f35dbd505cc64c4beadf29f88f55e8",
        "scriptpubkey_asm": "OP_0 OP_PUSHBYTES_20 25bdb830f0f35dbd505cc64c4beadf29f88f55e8",
        "scriptpubkey_type": "v0_p2wpkh",
        "scriptpubkey_address": "bc1qyk7msv8s7dwm65zucexyh6kl98ug740gmt66g4",
        "value": 235576024
      },
      "scriptsig": "",
      "scriptsig_asm": "",
      "witness": [
        "304402207e7ec4efd358a6a64b91e8ba0d9f672d016fee6aa8976df715cedfba5a254f20022063a72b23bb09ca9d547a2f1585f6fa0fbdfb57bf2ea7b971910ab9a8c163649f01",
        "03f26b4103358f0000eabde9011ea51ca38bda5ddf06563408e2bca101e7601c5e"
      ],
      "is_coinbase": false,
      "sequence": 4294967294
    }
  ],
  "vout": [
    {
      "scriptpubkey": "0014d28c6f4618aa45ae5765676b00993c58a2a93cd6",
      "scriptpubkey_asm": "OP_0 OP_PUSHBYTES_20 d28c6f4618aa45ae5765676b00993c58a2a93cd6",
      "scriptpubkey_type": "v0_p2wpkh",
      "scriptpubkey_address": "bc1q62xx73sc4fz6u4m9va4spxfutz32j0xknqufwk",
      "value": 234746444
    },
    {
      "scriptpubkey": "a9148d536f6251024b93b8e2c00f1cbb40120b5268ea87",
      "scriptpubkey_asm": "OP_HASH160 OP_PUSHBYTES_20 8d536f6251024b93b8e2c00f1cbb40120b5268ea OP_EQUAL",
      "scriptpubkey_type": "p2sh",
      "scriptpubkey_address": "3EaH9mFgRyMBGDFi2rVYR8LaWGdA2YcW1k",
      "value": 826100
    }
  ],
  "size": 223,
  "weight": 565,
  "fee": 3480,
  "status": {
    "confirmed": true,
    "block_height": 834638,
    "block_hash": "000000000000000000025f742c626208ac87e0b7d15054abb4a19ca2d735a54e",
    "block_time": 1710405325
  },
  "hex": "02000000000101b89a0dca479c675e10f49a8a00ab38cb2bdd9f5a1be224bf1d66b88fcac5a6c80100000000feffffff024cf2fd0d00000000160014d28c6f4618aa45ae5765676b00993c58a2a93cd6f49a0c000000000017a9148d536f6251024b93b8e2c00f1cbb40120b5268ea870247304402207e7ec4efd358a6a64b91e8ba0d9f672d016fee6aa8976df715cedfba5a254f20022063a72b23bb09ca9d547a2f1585f6fa0fbdfb57bf2ea7b971910ab9a8c163649f012103f26b4103358f0000eabde9011ea51ca38bda5ddf06563408e2bca101e7601c5e21bc0c00"
}