{
  "txid": "1c503f5451d3e4e399ddf8a6aeda787327a78afd01e2ecc161cd74f261297244",
  "version": 1,
  "locktime": 0,
  "vin": [
    {
      "txid": "87961b4a985cb3f8162f49d9db06a04094eb403dbbff645c75a7b396f894dd14",
      "vout": 0,
      "prevout": {
        "scriptpubkey": "001470819cbab5f4941d4353aaefdf9039042441300e",
        "scriptpubkey_asm": "OP_0 OP_PUSHBYTES_20 70819cbab5f4941d4353aaefdf9039042441300e",
        "scriptpubkey_type": "v0_p2wpkh",
        "scriptpubkey_address": "bc1qwzqeew447j2p6s6n4thalypeqsjyzvqwcc7dux",
        "value": 1012000
      },
      "scriptsig": "",
      "scriptsig_asm": "",
      "witness": [
        "304502210091b317726497d4aedd6943ceb6ed93ce3f234d9502dabe42e5be2727cff5cf9d02200aab5f9c57308d3ebfa8e41287ac29bc20a3b58d0a62aad9971cb091810da4e601",
        "0297c98433f6b02165506e99c43dab97107b2c3b6c1bef87f2a5cf4a29a738bf34"
      ],
      "is_coinbase": false,
      "sequence": 4294967295
    }
  ],
  "vout": [
    {
      "scriptpubkey": "0014f66758a0748c715d167b9c45bfc23af35587d478",
      "scriptpubkey_asm": "OP_0 OP_PUSHBYTES_20 f66758a0748c715d167b9c45bfc23af35587d478",
      "scriptpubkey_type": "v0_p2wpkh",
      "scriptpubkey_address": "bc1q7en43gr533c469nmn3zmls367d2c04rcsyugae",
      "value": 11500
    },
    {
      "scriptpubkey": "001484e1d42170a40c5ff7a68506c745a56ad064be16",
      "scriptpubkey_asm": "OP_0 OP_PUSHBYTES_20 84e1d42170a40c5ff7a68506c745a56ad064be16",
      "scriptpubkey_type": "v0_p2wpkh",
      "scriptpubkey_address": "bc1qsnsaggts5sx9laaxs5rvw3d9dtgxf0sk58yhyq",
      "value": 186058
    },
    {
      "scriptpubkey": "0014ea2440c4f32c9e4e9e29fb92a08e9f4477c13652",
      "scriptpubkey_asm": "OP_0 OP_PUSHBYTES_20 ea2440c4f32c9e4e9e29fb92a08e9f4477c13652",
      "scriptpubkey_type": "v0_p2wpkh",
      "scriptpubkey_address": "bc1qagjyp38n9j0ya83flwf2pr5lg3muzdjjyt88fj",
      "value": 811413
    }
  ],
  "size": 254,
  "weight": 686,
  "fee": 3029,
  "status": {
    "confirmed": true,
    "block_height": 834638,
    "block_hash": "000000000000000000025f742c626208ac87e0b7d15054abb4a19ca2d735a54e",
    "block_time": 1710405325
  },
  "hex": "0100000000010114dd94f896b3a7755c64ffbb3d40eb9440a006dbd9492f16f8b35c984a1b96870000000000ffffffff03ec2c000000000000160014f66758a0748c715d167b9c45bfc23af35587d478cad602000000000016001484e1d42170a40c5ff7a68506c745a56ad064be1695610c0000000000160014ea2440c4f32c9e4e9e29fb92a08e9f4477c136520248304502210091b317726497d4aedd6943ceb6ed93ce3f234d9502dabe42e5be2727cff5cf9d02200aab5f9c57308d3ebfa8e41287ac29bc20a3b58d0a62aad9971cb091810da4e601210297c98433f6b02165506e99c43dab97107b2c3b6c1bef87f2a5cf4a29a738bf3400000000"
}