{
  "txid": "1c508ca9f1a4e1b3c17f0b0aafed62de8bdbd3d2d1e068bd404adfe8788b0836",
  "version": 2,
  "locktime": 0,
  "vin": [
    {
      "txid": "82d850f7a71697a5f0dc4b3c929fe78facc208ab1e684a1ac5747b2d207f7d49",
      "vout": 1,
      "prevout": {
        "scriptpubkey": "a9148b08a0d5d244b5bf2fb3def3f78886a6f530d23f87",
        "scriptpubkey_asm": "OP_HASH160 OP_PUSHBYTES_20 8b08a0d5d244b5bf2fb3def3f78886a6f530d23f OP_EQUAL",
        "scriptpubkey_type": "p2sh",
        "scriptpubkey_address": "3ENABi9ybG4cG5SJJvPiMZ9UEAWhRRHtuA",
        "value": 77499938
      },
      "scriptsig": "160014cff29e6380c9586db30b9b1e8fac949618929609",
      "scriptsig_asm": "OP_PUSHBYTES_22 0014cff29e6380c9586db30b9b1e8fac949618929609",
      "witness": [
        "304402202b52a6bd7445c9b1277eec43e87a70cb560cab95689bbf0da8dea6ef4625b9e30220222b173ea33d2822f2a52e8e23f6f3c899bc27d3dfde4a2ee77842504eb7fa9901",
        "03c01f04062935e670513cf4194d4edf01858d15dd2171b5d41de257683f3af51d"
      ],
      "is_coinbase": false,
      "sequence": 4294967295,
      "inner_redeemscript_asm": "OP_0 OP_PUSHBYTES_20 cff29e6380c9586db30b9b1e8fac949618929609"
    }
  ],
  "vout": [
    {
      "scriptpubkey": "0014fa13ea0f81e9fbd310ab0e9e1c50f219a9fe769f",
      "scriptpubkey_asm": "OP_0 OP_PUSHBYTES_20 fa13ea0f81e9fbd310ab0e9e1c50f219a9fe769f",
      "scriptpubkey_type": "v0_p2wpkh",
      "scriptpubkey_address": "bc1qlgf75rupa8aaxy9tp60pc58jrx5lua5lu0jr95",
      "value": 33860987
    },
    {
      "scriptpubkey": "a914f619bee1b2dcd2ccc45f3bab2e0ad80939b1258387",
      "scriptpubkey_asm": "OP_HASH160 OP_PUSHBYTES_20 f619bee1b2dcd2ccc45f3bab2e0ad80939b12583 OP_EQUAL",
      "scriptpubkey_type": "p2sh",
      "scriptpubkey_address": "3Q8Gza81eNys3bB89yqrvsvthBhcY1Wv7V",
      "value": 43634590
    }
  ],
  "size": 246,
  "weight": 657,
  "fee": 4361,
  "status": {
    "confirmed": true,
    "block_height": 834638,
    "block_hash": "000000000000000000025f742c626208ac87e0b7d15054abb4a19ca2d735a54e",
    "block_time": 1710405325
  },
  "hex": "02000000000101497d7f202d7b74c51a4a681eab08c2ac8fe79f923c4bdcf0a59716a7f750d8820100000017160014cff29e6380c9586db30b9b1e8fac949618929609ffffffff027bad040200000000160014fa13ea0f81e9fbd310ab0e9e1c50f219a9fe769f9ecf99020000000017a914f619bee1b2dcd2ccc45f3bab2e0ad80939b12583870247304402202b52a6bd7445c9b1277eec43e87a70cb560cab95689bbf0da8dea6ef4625b9e30220222b173ea33d2822f2a52e8e23f6f3c899bc27d3dfde4a2ee77842504eb7fa99012103c01f04062935e670513cf4194d4edf01858d15dd2171b5d41de257683f3af51d00000000"
}