{
  "txid": "1c61901ace30d6444b0a85b14b8c6af152353d51759d37862e2142fc90834828",
  "version": 2,
  "locktime": 0,
  "vin": [
    {
      "txid": "fb2d2ec87c4a5d460c315b73cc6c05d6aade9526856ddbfb81948a906d8bdce6",
      "vout": 1,
      "prevout": {
        "scriptpubkey": "a914b9c20083dd7628cb595667e66a24c0ee01a6931087",
        "scriptpubkey_asm": "OP_HASH160 OP_PUSHBYTES_20 b9c20083dd7628cb595667e66a24c0ee01a69310 OP_EQUAL",
        "scriptpubkey_type": "p2sh",
        "scriptpubkey_address": "3JdDLXc77tBj1wrYJ5epW7RDmTnXWi41tm",
        "value": 16668335
      },
      "scriptsig": "16001469014fb1c30f5f5f146b59e4f1d967a27fd068af",
      "scriptsig_asm": "OP_PUSHBYTES_22 001469014fb1c30f5f5f146b59e4f1d967a27fd068af",
      "witness": [
        "3044022003f83dc7808475462a0f7563d8a5c88621f8a8f6dd18392e985af57dbf846e3d02202253480bfec6bda8ea92c6be76ecebe60c8f1fe43f43abf665f1f2c9158c8a2a01",
        "03bd56fa56200d930df2348220ffe1ae4bb01cb997873cd565c3c03f384d3e07f4"
      ],
      "is_coinbase": false,
      "sequence": 4294967293,
      "inner_redeemscript_asm": "OP_0 OP_PUSHBYTES_20 69014fb1c30f5f5f146b59e4f1d967a27fd068af"
    }
  ],
  "vout": [
    {
      "scriptpubkey": "0014235a9d6c46641c3185835ce882ea9205b21affb8",
      "scriptpubkey_asm": "OP_0 OP_PUSHBYTES_20 235a9d6c46641c3185835ce882ea9205b21affb8",
      "scriptpubkey_type": "v0_p2wpkh",
      "scriptpubkey_address": "bc1qyddf6mzxvswrrpvrtn5g965jqkep4lacdhx5qs",
      "value": 9100000
    },
    {
      "scriptpubkey": "a914b9c20083dd7628cb595667e66a24c0ee01a6931087",
      "scriptpubkey_asm": "OP_HASH160 OP_PUSHBYTES_20 b9c20083dd7628cb595667e66a24c0ee01a69310 OP_EQUAL",
      "scriptpubkey_type": "p2sh",
      "scriptpubkey_address": "3JdDLXc77tBj1wrYJ5epW7RDmTnXWi41tm",
      "value": 7565530
    }
  ],
  "size": 246,
  "weight": 657,
  "fee": 2805,
  "status": {
    "confirmed": true,
    "block_height": 834638,
    "block_hash": "000000000000000000025f742c626208ac87e0b7d15054abb4a19ca2d735a54e",
    "block_time": 1710405325
  },
  "hex": "02000000000101e6dc8b6d908a9481fbdb6d852695deaad6056ccc735b310c465d4a7cc82e2dfb010000001716001469014fb1c30f5f5f146b59e4f1d967a27fd068affdffffff02e0da8a0000000000160014235a9d6c46641c3185835ce882ea9205b21affb8da7073000000000017a914b9c20083dd7628cb595667e66a24c0ee01a693108702473044022003f83dc7808475462a0f7563d8a5c88621f8a8f6dd18392e985af57dbf846e3d02202253480bfec6bda8ea92c6be76ecebe60c8f1fe43f43abf665f1f2c9158c8a2a012103bd56fa56200d930df2348220ffe1ae4bb01cb997873cd565c3c03f384d3e07f400000000"
}