{
  "txid": "1c8198bc9c979e7278e68ff1d45ba6b5b6709bff19a82f62b950522b97079a04",
  "version": 2,
  "locktime": 0,
  "vin": [
    {
      "txid": "fe4c776e320b074e04ee47d31c9bc5b86389700fb48766f37f10bd4f667df076",
      "vout": 0,
      "prevout": {
        "scriptpubkey": "5120793f9586f4ee2f5a161feb85233bc5516124891f9c850bc5dc594e97298cf046",
        "scriptpubkey_asm": "OP_PUSHNUM_1 OP_PUSHBYTES_32 793f9586f4ee2f5a161feb85233bc5516124891f9c850bc5dc594e97298cf046",
        "scriptpubkey_type": "v1_p2tr",
        "scriptpubkey_address": "bc1p0yletph5ach459slawzjxw7929sjfzglnjzsh3wut98fw2vv7prq3y6r5p",
        "value": 2548
      },
      "scriptsig": "",
      "scriptsig_asm": "",
      "witness": [
        "8f8c97dd8cc0e6205c885df06cce29bc1d51b518a53cd35634a2649f32b39c62c21000c9914ec61413c9406a37b8d3d100151b38023aae97d7a14f6da1a1beb2",
        "2084dec53fdc6ba1e36af7b51de292ffdf9cd7915207234a399470b2d7a557fd69ac0063036f7264010118746578742f706c61696e3b636861727365743d7574662d3800417b2270223a226272632d3230222c226f70223a227472616e73666572222c227469636b223a22f09d9b91222c22616d74223a22313530303030303030303030227d68",
        "c084dec53fdc6ba1e36af7b51de292ffdf9cd7915207234a399470b2d7a557fd69"
      ],
      "is_coinbase": false,
      "sequence": 4294967293
    }
  ],
  "vout": [
    {
      "scriptpubkey": "5120e7ddcf1cce238f708b9128b962480461d34e1e02efa4fd82e7c450c28ee2ac15",
      "scriptpubkey_asm": "OP_PUSHNUM_1 OP_PUSHBYTES_32 e7ddcf1cce238f708b9128b962480461d34e1e02efa4fd82e7c450c28ee2ac15",
      "scriptpubkey_type": "v1_p2tr",
      "scriptpubkey_address": "bc1pulwu78xwyw8hpzu39zukyjqyv8f5u8sza7j0mqh8c3gv9rhz4s2sy0u94w",
      "value": 546
    }
  ],
  "size": 332,
  "weight": 614,
  "fee": 2002,
  "status": {
    "confirmed": true,
    "block_height": 834460,
    "block_hash": "00000000000000000000484a79b643b2524bbce82e5d8a442013fa5b8905ed98",
    "block_time": 1710307468
  },
  "hex": "0200000000010176f07d664fbd107ff36687b40f708963b8c59b1cd347ee044e070b326e774cfe0000000000fdffffff012202000000000000225120e7ddcf1cce238f708b9128b962480461d34e1e02efa4fd82e7c450c28ee2ac1503408f8c97dd8cc0e6205c885df06cce29bc1d51b518a53cd35634a2649f32b39c62c21000c9914ec61413c9406a37b8d3d100151b38023aae97d7a14f6da1a1beb2872084dec53fdc6ba1e36af7b51de292ffdf9cd7915207234a399470b2d7a557fd69ac0063036f7264010118746578742f706c61696e3b636861727365743d7574662d3800417b2270223a226272632d3230222c226f70223a227472616e73666572222c227469636b223a22f09d9b91222c22616d74223a22313530303030303030303030227d6821c084dec53fdc6ba1e36af7b51de292ffdf9cd7915207234a399470b2d7a557fd6900000000"
}