{
  "txid": "1c89165bf0811a71d664613101469e4315137e42fab5c7c6286372f0ab3f038c",
  "version": 2,
  "locktime": 0,
  "vin": [
    {
      "txid": "732a3bea70c7348026f1fed6b29b303a17c6bd3710de9a3e5c30e910b6b41c0b",
      "vout": 1,
      "prevout": {
        "scriptpubkey": "0014a9fa1ed84f8c48b64b00651b9903c4052abb65f2",
        "scriptpubkey_asm": "OP_0 OP_PUSHBYTES_20 a9fa1ed84f8c48b64b00651b9903c4052abb65f2",
        "scriptpubkey_type": "v0_p2wpkh",
        "scriptpubkey_address": "bc1q48apakz033ytvjcqv5dejq7yq54tke0jdrp4eq",
        "value": 144884659
      },
      "scriptsig": "",
      "scriptsig_asm": "",
      "witness": [
        "3045022100f2f1c5161e15e2b8ea6611dc3a65700b7839f2fe7b484c063dcce64381c2be410220218d40f6e6a58009b1264deea15376b6a231ec03c307e90e992ebb00e077e0f601",
        "025fbbe5f488e7302cd0ad6d97b2f0d9cddc19b0b21ce37e393445ffeef78ffe76"
      ],
      "is_coinbase": false,
      "sequence": 4294967295
    }
  ],
  "vout": [
    {
      "scriptpubkey": "001436f08f06903555cc4ce46cd26b71628b26a13dd6",
      "scriptpubkey_asm": "OP_0 OP_PUSHBYTES_20 36f08f06903555cc4ce46cd26b71628b26a13dd6",
      "scriptpubkey_type": "v0_p2wpkh",
      "scriptpubkey_address": "bc1qxmcg7p5sx42ucn8ydnfxkutz3vn2z0wktpjhnn",
      "value": 8000000
    },
    {
      "scriptpubkey": "0014d13af26e840fcc584c3d2d81ca2ed64a6efa3acd",
      "scriptpubkey_asm": "OP_0 OP_PUSHBYTES_20 d13af26e840fcc584c3d2d81ca2ed64a6efa3acd",
      "scriptpubkey_type": "v0_p2wpkh",
      "scriptpubkey_address": "bc1q6ya0ym5yplx9snpa9kqu5tkkffh05wkd637m30",
      "value": 136882143
    }
  ],
  "size": 223,
  "weight": 562,
  "fee": 2516,
  "status": {
    "confirmed": true,
    "block_height": 834552,
    "block_hash": "00000000000000000001dd0468a70c94f619251d286585cff57aeb4bd9ede330",
    "block_time": 1710355598
  },
  "hex": "020000000001010b1cb4b610e9305c3e9ade1037bdc6173a309bb2d6fef1268034c770ea3b2a730100000000ffffffff0200127a000000000016001436f08f06903555cc4ce46cd26b71628b26a13dd6dfa7280800000000160014d13af26e840fcc584c3d2d81ca2ed64a6efa3acd02483045022100f2f1c5161e15e2b8ea6611dc3a65700b7839f2fe7b484c063dcce64381c2be410220218d40f6e6a58009b1264deea15376b6a231ec03c307e90e992ebb00e077e0f60121025fbbe5f488e7302cd0ad6d97b2f0d9cddc19b0b21ce37e393445ffeef78ffe7600000000"
}