{
  "txid": "1c8aa90e20d6cedde86efa10e4a8bfb57a9f9e5b3e63fa7b0fade6c5cdb3def4",
  "version": 2,
  "locktime": 0,
  "vin": [
    {
      "txid": "ad95bcccb7825dc148db77d726be1ad635c5f0b3487e89d381cfa8b2e91644f6",
      "vout": 11,
      "prevout": {
        "scriptpubkey": "76a914ab04fcf4b96b5f8672e5d38c696e08020f6f8d2c88ac",
        "scriptpubkey_asm": "OP_DUP OP_HASH160 OP_PUSHBYTES_20 ab04fcf4b96b5f8672e5d38c696e08020f6f8d2c OP_EQUALVERIFY OP_CHECKSIG",
        "scriptpubkey_type": "p2pkh",
        "scriptpubkey_address": "1GbGXPD6JF5pRZaurPAFX9aAkx8qDmEeci",
        "value": 31587003
      },
      "scriptsig": "483045022100a1c0acad03209bb113df987b13701076a9947d8543df5e6ddae47686ebd330ed022029f4f5f3eec6c56f0e5da64e4020d6b3437028525f857f8bc64d9a2192b0393b01210364c557a80ced74e7011c5e609c8c0289472f08667cc3abf54542560cd7fd360d",
      "scriptsig_asm": "OP_PUSHBYTES_72 3045022100a1c0acad03209bb113df987b13701076a9947d8543df5e6ddae47686ebd330ed022029f4f5f3eec6c56f0e5da64e4020d6b3437028525f857f8bc64d9a2192b0393b01 OP_PUSHBYTES_33 0364c557a80ced74e7011c5e609c8c0289472f08667cc3abf54542560cd7fd360d",
      "is_coinbase": false,
      "sequence": 4294967293
    }
  ],
  "vout": [
    {
      "scriptpubkey": "76a9144c0571c8b80226a0e8e0c98d12069f6b50fe824288ac",
      "scriptpubkey_asm": "OP_DUP OP_HASH160 OP_PUSHBYTES_20 4c0571c8b80226a0e8e0c98d12069f6b50fe8242 OP_EQUALVERIFY OP_CHECKSIG",
      "scriptpubkey_type": "p2pkh",
      "scriptpubkey_address": "17vxssK6YaHmoSLoKcphDQPZmyvXHKutCH",
      "value": 2699241
    },
    {
      "scriptpubkey": "76a914ab04fcf4b96b5f8672e5d38c696e08020f6f8d2c88ac",
      "scriptpubkey_asm": "OP_DUP OP_HASH160 OP_PUSHBYTES_20 ab04fcf4b96b5f8672e5d38c696e08020f6f8d2c OP_EQUALVERIFY OP_CHECKSIG",
      "scriptpubkey_type": "p2pkh",
      "scriptpubkey_address": "1GbGXPD6JF5pRZaurPAFX9aAkx8qDmEeci",
      "value": 28861977
    }
  ],
  "size": 226,
  "weight": 904,
  "fee": 25785,
  "status": {
    "confirmed": true,
    "block_height": 834638,
    "block_hash": "000000000000000000025f742c626208ac87e0b7d15054abb4a19ca2d735a54e",
    "block_time": 1710405325
  },
  "hex": "0200000001f64416e9b2a8cf81d3897e48b3f0c535d61abe26d777db48c15d82b7ccbc95ad0b0000006b483045022100a1c0acad03209bb113df987b13701076a9947d8543df5e6ddae47686ebd330ed022029f4f5f3eec6c56f0e5da64e4020d6b3437028525f857f8bc64d9a2192b0393b01210364c557a80ced74e7011c5e609c8c0289472f08667cc3abf54542560cd7fd360dfdffffff02e92f2900000000001976a9144c0571c8b80226a0e8e0c98d12069f6b50fe824288ac1966b801000000001976a914ab04fcf4b96b5f8672e5d38c696e08020f6f8d2c88ac00000000"
}