{
  "txid": "1c8e1f67804dbadd9f2750f2e558714bad0121fead00636150310040fe21306c",
  "version": 1,
  "locktime": 0,
  "vin": [
    {
      "txid": "553a5f5486725314aa5a95ca5607ba06b8fe33635a0965afb9ad4b9330f878dd",
      "vout": 0,
      "prevout": {
        "scriptpubkey": "0014cf9485e25e2f157f1a74df358f9631f443f2ceda",
        "scriptpubkey_asm": "OP_0 OP_PUSHBYTES_20 cf9485e25e2f157f1a74df358f9631f443f2ceda",
        "scriptpubkey_type": "v0_p2wpkh",
        "scriptpubkey_address": "bc1qe72gtcj79u2h7xn5mu6cl93373pl9nk6ggnhe2",
        "value": 186793
      },
      "scriptsig": "",
      "scriptsig_asm": "",
      "witness": [
        "304502210088293a6e6212333ec670bda8c323df137b29e6134ef56bf75fadf2118e53900002202165f7bf50a7e67029831e12151dbac997a7a62d76498af5918d37496467f19901",
        "022566ca0b1db869de1312f602de41e3933b3ec1a0ec2de35f83996f23da3a0d2c"
      ],
      "is_coinbase": false,
      "sequence": 4294967295
    }
  ],
  "vout": [
    {
      "scriptpubkey": "00148d0dfeb567d8c224af2e9b8e5d2cce8b0ae7551a",
      "scriptpubkey_asm": "OP_0 OP_PUSHBYTES_20 8d0dfeb567d8c224af2e9b8e5d2cce8b0ae7551a",
      "scriptpubkey_type": "v0_p2wpkh",
      "scriptpubkey_address": "bc1q35xladt8mrpzftewnw896txw3v9ww4g67uzlgm",
      "value": 183823
    }
  ],
  "size": 192,
  "weight": 438,
  "fee": 2970,
  "status": {
    "confirmed": true,
    "block_height": 834638,
    "block_hash": "000000000000000000025f742c626208ac87e0b7d15054abb4a19ca2d735a54e",
    "block_time": 1710405325
  },
  "hex": "01000000000101dd78f830934badb9af65095a6333feb806ba0756ca955aaa14537286545f3a550000000000ffffffff010fce0200000000001600148d0dfeb567d8c224af2e9b8e5d2cce8b0ae7551a0248304502210088293a6e6212333ec670bda8c323df137b29e6134ef56bf75fadf2118e53900002202165f7bf50a7e67029831e12151dbac997a7a62d76498af5918d37496467f1990121022566ca0b1db869de1312f602de41e3933b3ec1a0ec2de35f83996f23da3a0d2c00000000"
}