{
  "txid": "1c953063092f0b338818868df48e49aa6e134b6022248a20920456c693dcabc2",
  "version": 1,
  "locktime": 0,
  "vin": [
    {
      "txid": "1cc99aded236fdf980f5d0af1fad9d423bf08ad5c4ea0cb3d7a14933a7595d50",
      "vout": 1,
      "prevout": {
        "scriptpubkey": "a9145b505aaa244fee1e2af9876fc26755aed15a365387",
        "scriptpubkey_asm": "OP_HASH160 OP_PUSHBYTES_20 5b505aaa244fee1e2af9876fc26755aed15a3653 OP_EQUAL",
        "scriptpubkey_type": "p2sh",
        "scriptpubkey_address": "3A1qg73xWfUKThC8WnZhgvDyiYpXsjWPqJ",
        "value": 1378100
      },
      "scriptsig": "220020711d566fc22c291bafbce9b4c093d8b11e01c738d2750a714efc03004c326f09",
      "scriptsig_asm": "OP_PUSHBYTES_34 0020711d566fc22c291bafbce9b4c093d8b11e01c738d2750a714efc03004c326f09",
      "witness": [
        "",
        "304502210099453dbe784c914c7c299853f7a869c0b71f04296ecd0ee7eac5eac519663ba102203e20d5f3078f089da5cf9246dbf84aec4b9bc36cc81d569b8774bbee9e40df2b01",
        "30440220689175a9be910c53f2e00015e2bbb0feb21b22d975e5861f396c67d90c62d77602203f5dcae5f6d415f0e3a9116f71e867d34ddbb6f88895233709aa5069fa08494801",
        "522102e3d4a4beba728ca53b7d37a24971de96948335a88243c82b03504a6feb1718752103210c61450b8ac2db50e43d7d4f34c9b00d7a896a40d17e996eb8797b133702282102261e30711371bc4e8e94d08c64e1455c6ea849190a3a3b09e5818a656641ae0853ae"
      ],
      "is_coinbase": false,
      "sequence": 4294967295,
      "inner_redeemscript_asm": "OP_0 OP_PUSHBYTES_32 711d566fc22c291bafbce9b4c093d8b11e01c738d2750a714efc03004c326f09",
      "inner_witnessscript_asm": "OP_PUSHNUM_2 OP_PUSHBYTES_33 02e3d4a4beba728ca53b7d37a24971de96948335a88243c82b03504a6feb171875 OP_PUSHBYTES_33 03210c61450b8ac2db50e43d7d4f34c9b00d7a896a40d17e996eb8797b13370228 OP_PUSHBYTES_33 02261e30711371bc4e8e94d08c64e1455c6ea849190a3a3b09e5818a656641ae08 OP_PUSHNUM_3 OP_CHECKMULTISIG"
    },
    {
      "txid": "57a42d094e135d9c1935a5d989ae201319c8c5cf5717bbda129146f992b2083e",
      "vout": 13,
      "prevout": {
        "scriptpubkey": "a914acd96f1cc00a4fe7ce69bcb05dc375e18f5ea47a87",
        "scriptpubkey_asm": "OP_HASH160 OP_PUSHBYTES_20 acd96f1cc00a4fe7ce69bcb05dc375e18f5ea47a OP_EQUAL",
        "scriptpubkey_type": "p2sh",
        "scriptpubkey_address": "3HSxd7uyngakCZj9uH3kF7r1X3Etw3gNj1",
        "value": 710900
      },
      "scriptsig": "22002017d6a56835f08d3f05ce846172dd7337a200009f7eb8f89c9a3cb16af150348f",
      "scriptsig_asm": "OP_PUSHBYTES_34 002017d6a56835f08d3f05ce846172dd7337a200009f7eb8f89c9a3cb16af150348f",
      "witness": [
        "",
        "30440220163214458977612e1e6f29c851988bd9eb3f2ac134b5992a280437932c16badf02203b322e37a8f189a9f9172eb4d3ddcf427766501bf134d83b0d38e741c86630b801",
        "30440220166a8f9e6bacaf5fffda5a8aa98447d6558caec4c6024ffd05e41673ecb59275022050dfb21433a3d62569ec977c7db6aa668dcd0a44ad958c16fb3e603743ce66dc01",
        "522102e2b170737b072df953fa7affe6aaa49e69a7f7ef24c55bc18b8d174d378e0bff21025ceb6f8c308195e090561b3c20cb32aecf2fa8976905dd51ff771abfe06861092102ad4d6fdd8805cb97783c8de28c0ec1be223758e0be852529b61da6a0dc2a053253ae"
      ],
      "is_coinbase": false,
      "sequence": 4294967295,
      "inner_redeemscript_asm": "OP_0 OP_PUSHBYTES_32 17d6a56835f08d3f05ce846172dd7337a200009f7eb8f89c9a3cb16af150348f",
      "inner_witnessscript_asm": "OP_PUSHNUM_2 OP_PUSHBYTES_33 02e2b170737b072df953fa7affe6aaa49e69a7f7ef24c55bc18b8d174d378e0bff OP_PUSHBYTES_33 025ceb6f8c308195e090561b3c20cb32aecf2fa8976905dd51ff771abfe0686109 OP_PUSHBYTES_33 02ad4d6fdd8805cb97783c8de28c0ec1be223758e0be852529b61da6a0dc2a0532 OP_PUSHNUM_3 OP_CHECKMULTISIG"
    },
    {
      "txid": "6705234fd44e7eb6ae1620b5557541baa2da5e3cb125d306f65f209268f19974",
      "vout": 0,
      "prevout": {
        "scriptpubkey": "a914425d362d85bf5c4275f4669117666c6fc8810e1e87",
        "scriptpubkey_asm": "OP_HASH160 OP_PUSHBYTES_20 425d362d85bf5c4275f4669117666c6fc8810e1e OP_EQUAL",
        "scriptpubkey_type": "p2sh",
        "scriptpubkey_address": "37jvBfNEXFG5WT8S3Xayw2w3B72kZzXJUX",
        "value": 711200
      },
      "scriptsig": "2200203eddc53beff7e63712679be6467927312d0edf94e7ac48cec37ad5573bab866e",
      "scriptsig_asm": "OP_PUSHBYTES_34 00203eddc53beff7e63712679be6467927312d0edf94e7ac48cec37ad5573bab866e",
      "witness": [
        "",
        "3045022100cf1642c5fedba0f7fd129e97621bc488780b2fcdbaf1b2b1a77dd585300d3508022037b8eacd13fda242363ac65565875fa0e305cb6d5ccd1bbef40cda4a703997fb01",
        "3044022068b246fdc5edd2f8237fa53ac2f0d7489c2d9d263063842788e568907b0002c902203ed3fabaa64851c1703b2160281055dd1a678f4d055ec7677a2ee17f4a3519ce01",
        "5221033e9ddb56d76b5a9dd6a7aaada81061f04174814e84d14416bf18a893f4e33c6f21036001458d9992c44c5d34f043e4b25f6c395b282c149f96743a385294ce473fc021026ed41165cc7775a6d9ef36167f460d590bd02d7f24c255af58ebc63b73ce92b053ae"
      ],
      "is_coinbase": false,
      "sequence": 4294967295,
      "inner_redeemscript_asm": "OP_0 OP_PUSHBYTES_32 3eddc53beff7e63712679be6467927312d0edf94e7ac48cec37ad5573bab866e",
      "inner_witnessscript_asm": "OP_PUSHNUM_2 OP_PUSHBYTES_33 033e9ddb56d76b5a9dd6a7aaada81061f04174814e84d14416bf18a893f4e33c6f OP_PUSHBYTES_33 036001458d9992c44c5d34f043e4b25f6c395b282c149f96743a385294ce473fc0 OP_PUSHBYTES_33 026ed41165cc7775a6d9ef36167f460d590bd02d7f24c255af58ebc63b73ce92b0 OP_PUSHNUM_3 OP_CHECKMULTISIG"
    },
    {
      "txid": "686fd85bace6a3822e6022167054ed4b89f631f4f33f11ed9f7a332511907960",
      "vout": 0,
      "prevout": {
        "scriptpubkey": "0020ea0a0e927ab399ec36d3ec8826a47e1456631224e1fc709f0c6e8fb61cc808e5",
        "scriptpubkey_asm": "OP_0 OP_PUSHBYTES_32 ea0a0e927ab399ec36d3ec8826a47e1456631224e1fc709f0c6e8fb61cc808e5",
        "scriptpubkey_type": "v0_p2wsh",
        "scriptpubkey_address": "bc1qag9qayn6kwv7cdknajyzdfr7z3txxy3yu878p8cvd68mv8xgprjs0pr9fw",
        "value": 7207863
      },
      "scriptsig": "",
      "scriptsig_asm": "",
      "witness": [
        "",
        "304502210092a027c4dabeb3bd9ff081c99f9b4ddc9a7a75f7471caea6eb8a5df87d78c9c20220104436be9f54f09f251ad01b4be61a0b9589fe70b1ef2f27fb3717b91aaf37d101",
        "304402202e129b85501807869c6365e2c554874564463f46bcc34897ef220c88430e74a502204f1e4f9bbc82b519c567d8f69a1b8690e4382e5f2645d5c267100d57bb2aef9801",
        "522102aa7ec178d1c80e4ecdd2abf2aa4f3970f75999fbe848f1342a3fb5dd281d31cd21021db32a000de2d53bf2fd5563552501c1a8ebcd82c511c867c9fef17005f3f97b2102542ed5e18fe57f56422e99ac4d8bee8c32ddb07470efe059c9c7ce4130d58c1753ae"
      ],
      "is_coinbase": false,
      "sequence": 4294967295,
      "inner_witnessscript_asm": "OP_PUSHNUM_2 OP_PUSHBYTES_33 02aa7ec178d1c80e4ecdd2abf2aa4f3970f75999fbe848f1342a3fb5dd281d31cd OP_PUSHBYTES_33 021db32a000de2d53bf2fd5563552501c1a8ebcd82c511c867c9fef17005f3f97b OP_PUSHBYTES_33 02542ed5e18fe57f56422e99ac4d8bee8c32ddb07470efe059c9c7ce4130d58c17 OP_PUSHNUM_3 OP_CHECKMULTISIG"
    },
    {
      "txid": "9da817b0969b6c5cacbfb8e60312143406e74b083777b09f08c9ede60891c1ae",
      "vout": 4,
      "prevout": {
        "scriptpubkey": "a914138947899d11a87b424976d4b8fa0d230f97393b87",
        "scriptpubkey_asm": "OP_HASH160 OP_PUSHBYTES_20 138947899d11a87b424976d4b8fa0d230f97393b OP_EQUAL",
        "scriptpubkey_type": "p2sh",
        "scriptpubkey_address": "33UKDXnBZrNehJ5W3CDwghVbfyn37UeynH",
        "value": 826727
      },
      "scriptsig": "2200204ab93d8c619650df4b8b4f1057df7e03ec8f5fada816a193f9762317d8873ffb",
      "scriptsig_asm": "OP_PUSHBYTES_34 00204ab93d8c619650df4b8b4f1057df7e03ec8f5fada816a193f9762317d8873ffb",
      "witness": [
        "",
        "3045022100f58792dc2ab57474e00063281fdcf005c264a62fbe37030ace0af868c428339c02205987f8566cab853cd26cab106cc8bdf63bba0d24c71d0567946923621ce6f78d01",
        "3044022077bea594e85ee94c146925e0e048d0c199cf42cf7c070323dd807cea3462667b022018e5a213a46ca7dd6c4eb8e7b54148471c23be6e3cf1226d61d2157b4c13917801",
        "52210278511756e41f9967d5fd306e6e7811964b636295c5de70ee944e9d6ae7c0535021030c189d8c3b8de5e94a8299827523181d1f5118ec0aae4918773336bc6a80a9aa2102a6e7746f582443b7f050920f88458cfefcb51c24c5bacdc6a57abac5487cc80753ae"
      ],
      "is_coinbase": false,
      "sequence": 4294967295,
      "inner_redeemscript_asm": "OP_0 OP_PUSHBYTES_32 4ab93d8c619650df4b8b4f1057df7e03ec8f5fada816a193f9762317d8873ffb",
      "inner_witnessscript_asm": "OP_PUSHNUM_2 OP_PUSHBYTES_33 0278511756e41f9967d5fd306e6e7811964b636295c5de70ee944e9d6ae7c05350 OP_PUSHBYTES_33 030c189d8c3b8de5e94a8299827523181d1f5118ec0aae4918773336bc6a80a9aa OP_PUSHBYTES_33 02a6e7746f582443b7f050920f88458cfefcb51c24c5bacdc6a57abac5487cc807 OP_PUSHNUM_3 OP_CHECKMULTISIG"
    },
    {
      "txid": "aacf92c3e60dd62e9072f3a7e064aed5b60145b09fabaa63c215e713f08a8815",
      "vout": 0,
      "prevout": {
        "scriptpubkey": "a9142712566810daa3a8ffe217d0ace7439c5996353687",
        "scriptpubkey_asm": "OP_HASH160 OP_PUSHBYTES_20 2712566810daa3a8ffe217d0ace7439c59963536 OP_EQUAL",
        "scriptpubkey_type": "p2sh",
        "scriptpubkey_address": "35FcF8zz5QeRzGtYH7rU3AfrfDFZU2mYan",
        "value": 198597275
      },
      "scriptsig": "2200206ef09f9d723aafdabb41d6c26183c08ded89957a0deec03c795483d402660738",
      "scriptsig_asm": "OP_PUSHBYTES_34 00206ef09f9d723aafdabb41d6c26183c08ded89957a0deec03c795483d402660738",
      "witness": [
        "",
        "3044022066229bc19e4b84868328539531358feacf4e6b3e00381fd841e4f4dcbefa3627022067d11f0723c9fa0f37235b18f19c977994c8858b5f4530d0a4b2df955fd0050501",
        "30440220112a4e446b8f9ea596b39387b9fed39dada2fe61e25de1522e196bfb42beaf84022079542bac2fc2cdc518ef9ea1643ee7b0333f5e4ba87306b25dc1d234a18d8d0e01",
        "5221039421164cba017ab3b707906bfffd8714458a0bf3a399877b3298aa2777b14d7b2102db062a1ba09cac1ad54133ae4d57b98296d52fd0fa63c3e9be60496916cb33aa210335ada7892f515239613ec01cdf498e7284730f16f10f9351b7ff40b528fa5bd453ae"
      ],
      "is_coinbase": false,
      "sequence": 4294967295,
      "inner_redeemscript_asm": "OP_0 OP_PUSHBYTES_32 6ef09f9d723aafdabb41d6c26183c08ded89957a0deec03c795483d402660738",
      "inner_witnessscript_asm": "OP_PUSHNUM_2 OP_PUSHBYTES_33 039421164cba017ab3b707906bfffd8714458a0bf3a399877b3298aa2777b14d7b OP_PUSHBYTES_33 02db062a1ba09cac1ad54133ae4d57b98296d52fd0fa63c3e9be60496916cb33aa OP_PUSHBYTES_33 0335ada7892f515239613ec01cdf498e7284730f16f10f9351b7ff40b528fa5bd4 OP_PUSHNUM_3 OP_CHECKMULTISIG"
    },
    {
      "txid": "ca6d99f1b2497230097c9ce42a11875587e0332edf43ee8e254bf8b2a4baf44a",
      "vout": 0,
      "prevout": {
        "scriptpubkey": "a914c5c99b7eef9e082de28c7d981d4b24fd1c20d15187",
        "scriptpubkey_asm": "OP_HASH160 OP_PUSHBYTES_20 c5c99b7eef9e082de28c7d981d4b24fd1c20d151 OP_EQUAL",
        "scriptpubkey_type": "p2sh",
        "scriptpubkey_address": "3KipZGBBtHvLpXebGuKsFFDwZi4DCYBQ7D",
        "value": 1485269
      },
      "scriptsig": "22002034d3520f6baf736188e84b0ad781e9f1b492b5af4aff8d2a2b7110ad38f905eb",
      "scriptsig_asm": "OP_PUSHBYTES_34 002034d3520f6baf736188e84b0ad781e9f1b492b5af4aff8d2a2b7110ad38f905eb",
      "witness": [
        "",
        "3045022100cd5acc0f6f17978d2b9a6edfb9207c7654262170b1bdad37c64c7039f105118602202bc7c5f171f06f09444a1d91142cf2d42b132a8ea667a19400bf3be925afd9f501",
        "304402203db082b1be5c237db592d10119dc325bb70921a95ada376461d56a0076521fb602206d79146cce489a98d4b5964acb5aa898b6ec37ac2da0579486076e5555f0208c01",
        "52210224ec0714db989b0aa1076bec27f3cb2f869f0db4aa93890c56c8af20e1252bef21031a8f48329afc50d22ed6eb1fdb700aad50b55d8a823ae9ff26330edd0f73b8b72103394f40fb9d7cd396be8cd543f3cee6464b58d8eb5a312dffc63c95135196f5db53ae"
      ],
      "is_coinbase": false,
      "sequence": 4294967295,
      "inner_redeemscript_asm": "OP_0 OP_PUSHBYTES_32 34d3520f6baf736188e84b0ad781e9f1b492b5af4aff8d2a2b7110ad38f905eb",
      "inner_witnessscript_asm": "OP_PUSHNUM_2 OP_PUSHBYTES_33 0224ec0714db989b0aa1076bec27f3cb2f869f0db4aa93890c56c8af20e1252bef OP_PUSHBYTES_33 031a8f48329afc50d22ed6eb1fdb700aad50b55d8a823ae9ff26330edd0f73b8b7 OP_PUSHBYTES_33 03394f40fb9d7cd396be8cd543f3cee6464b58d8eb5a312dffc63c95135196f5db OP_PUSHNUM_3 OP_CHECKMULTISIG"
    },
    {
      "txid": "d71a14dedfaa991518e491bec300bd97bf7d13ae324f655013e4065a8bd2fc7c",
      "vout": 0,
      "prevout": {
        "scriptpubkey": "a9141ae7e07643d7c4c45ab7b2e60b71402bdad7774687",
        "scriptpubkey_asm": "OP_HASH160 OP_PUSHBYTES_20 1ae7e07643d7c4c45ab7b2e60b71402bdad77746 OP_EQUAL",
        "scriptpubkey_type": "p2sh",
        "scriptpubkey_address": "349HGcaLEFgVAB1VQk9FkBPcQphkJEWoEi",
        "value": 683200
      },
      "scriptsig": "220020d246690e9e0296cb51f6eac0942fdec2656ece5243edfb28d1c082c922c9f4f3",
      "scriptsig_asm": "OP_PUSHBYTES_34 0020d246690e9e0296cb51f6eac0942fdec2656ece5243edfb28d1c082c922c9f4f3",
      "witness": [
        "",
        "304402202b1e1744ca77c40c4dbb997eb232104daaba7deb274c763ad0803bd5a153ea4d0220027e6b525f6a0ec542bda8fcd3aaa4a6ed7637ee5199776fc56b27be6fa6c5b201",
        "3044022073c1b3b8ef9b5d4bae73e32d004332ca30c93f4fd030cf36b9339dc9c8322349022053e6aeee94481a5df07da42289a12a1397705f6992df35439406df4b02081fca01",
        "522103e8834d2b9f50c54cd5abc2b2376668c5e44ddf215ae273f3fd226db003f116b12103b777c212027d5d54924c6e8ee5bb139d172beb39440a46f4b92054012ff5b09c2103c2d3a93644860d2baa7afcd39671c8252e36b19ce548689ac0c4e145eaeeaf1d53ae"
      ],
      "is_coinbase": false,
      "sequence": 4294967295,
      "inner_redeemscript_asm": "OP_0 OP_PUSHBYTES_32 d246690e9e0296cb51f6eac0942fdec2656ece5243edfb28d1c082c922c9f4f3",
      "inner_witnessscript_asm": "OP_PUSHNUM_2 OP_PUSHBYTES_33 03e8834d2b9f50c54cd5abc2b2376668c5e44ddf215ae273f3fd226db003f116b1 OP_PUSHBYTES_33 03b777c212027d5d54924c6e8ee5bb139d172beb39440a46f4b92054012ff5b09c OP_PUSHBYTES_33 03c2d3a93644860d2baa7afcd39671c8252e36b19ce548689ac0c4e145eaeeaf1d OP_PUSHNUM_3 OP_CHECKMULTISIG"
    },
    {
      "txid": "e8be3e07c42b24004fe587088def6b130bf02c51f7aef6707a474e140160590d",
      "vout": 0,
      "prevout": {
        "scriptpubkey": "a9142712566810daa3a8ffe217d0ace7439c5996353687",
        "scriptpubkey_asm": "OP_HASH160 OP_PUSHBYTES_20 2712566810daa3a8ffe217d0ace7439c59963536 OP_EQUAL",
        "scriptpubkey_type": "p2sh",
        "scriptpubkey_address": "35FcF8zz5QeRzGtYH7rU3AfrfDFZU2mYan",
        "value": 1380773
      },
      "scriptsig": "2200206ef09f9d723aafdabb41d6c26183c08ded89957a0deec03c795483d402660738",
      "scriptsig_asm": "OP_PUSHBYTES_34 00206ef09f9d723aafdabb41d6c26183c08ded89957a0deec03c795483d402660738",
      "witness": [
        "",
        "304402204eefea7dcdcc8ce88440f98a449b8fc5e49c40e3f1659fd326370f39752230e9022050b53a5e4dc96ba903f34b7008ca650b400bdb919710dae0ee7814dd7358930501",
        "3044022024bd270edfd8773a6a145b00ad13c393220151e7b0e3a75667228ccc57b9a25a02202f43474cd10af7d2be8c73f099f7c3f14cc9ce958d1dcef69b26826f3e46cf6e01",
        "5221039421164cba017ab3b707906bfffd8714458a0bf3a399877b3298aa2777b14d7b2102db062a1ba09cac1ad54133ae4d57b98296d52fd0fa63c3e9be60496916cb33aa210335ada7892f515239613ec01cdf498e7284730f16f10f9351b7ff40b528fa5bd453ae"
      ],
      "is_coinbase": false,
      "sequence": 4294967295,
      "inner_redeemscript_asm": "OP_0 OP_PUSHBYTES_32 6ef09f9d723aafdabb41d6c26183c08ded89957a0deec03c795483d402660738",
      "inner_witnessscript_asm": "OP_PUSHNUM_2 OP_PUSHBYTES_33 039421164cba017ab3b707906bfffd8714458a0bf3a399877b3298aa2777b14d7b OP_PUSHBYTES_33 02db062a1ba09cac1ad54133ae4d57b98296d52fd0fa63c3e9be60496916cb33aa OP_PUSHBYTES_33 0335ada7892f515239613ec01cdf498e7284730f16f10f9351b7ff40b528fa5bd4 OP_PUSHNUM_3 OP_CHECKMULTISIG"
    },
    {
      "txid": "f625b2f877fbf9665d9d95bef632eb083d81de282d435d1f19b55195fd516fb1",
      "vout": 0,
      "prevout": {
        "scriptpubkey": "a914c87ac35973ecc88e180a1b79bb1a8b593bdaf7ff87",
        "scriptpubkey_asm": "OP_HASH160 OP_PUSHBYTES_20 c87ac35973ecc88e180a1b79bb1a8b593bdaf7ff OP_EQUAL",
        "scriptpubkey_type": "p2sh",
        "scriptpubkey_address": "3Ky48dyvnTxegdwkhWiLEctTgtbTpNTPKt",
        "value": 702800
      },
      "scriptsig": "220020e7736da67decaf89c5ef88d9d422850ca57dd2b4d4870b92055d7bcff24bff7e",
      "scriptsig_asm": "OP_PUSHBYTES_34 0020e7736da67decaf89c5ef88d9d422850ca57dd2b4d4870b92055d7bcff24bff7e",
      "witness": [
        "",
        "304402201df889e71a8da4ed158bf17ea7df0504ca895da70ec43a7edc79c22d977fa17f02206449d13c97dea27ed027af9be2a2bdd9e92a88f2e302cdd530fab2f0266ed33201",
        "304402202866098947a7048151e5dd0ac6c840d883d8acf129beb504399b8c7b974e32fb0220686178b3600a6176654cf595fb7e73a453bdcbc4f14436357c193c2db0cfc00701",
        "522102b5befaff02b92fbc7b0a14f873807c9f59f7c926bfa37514b34dbd599dc4a85a2103f7754fe8fea5eef6d7bc46a84c2df4792a43ff2fc4f512b96133e9eae86b2af82103bfe366ecd4bea77fbeb5ba55dafa76377414f4ad86ca1e419fb8fc804d01df0f53ae"
      ],
      "is_coinbase": false,
      "sequence": 4294967295,
      "inner_redeemscript_asm": "OP_0 OP_PUSHBYTES_32 e7736da67decaf89c5ef88d9d422850ca57dd2b4d4870b92055d7bcff24bff7e",
      "inner_witnessscript_asm": "OP_PUSHNUM_2 OP_PUSHBYTES_33 02b5befaff02b92fbc7b0a14f873807c9f59f7c926bfa37514b34dbd599dc4a85a OP_PUSHBYTES_33 03f7754fe8fea5eef6d7bc46a84c2df4792a43ff2fc4f512b96133e9eae86b2af8 OP_PUSHBYTES_33 03bfe366ecd4bea77fbeb5ba55dafa76377414f4ad86ca1e419fb8fc804d01df0f OP_PUSHNUM_3 OP_CHECKMULTISIG"
    }
  ],
  "vout": [
    {
      "scriptpubkey": "76a914eba497a1b8ae74ae60b27fbfd8d60fcc20b4078288ac",
      "scriptpubkey_asm": "OP_DUP OP_HASH160 OP_PUSHBYTES_20 eba497a1b8ae74ae60b27fbfd8d60fcc20b40782 OP_EQUALVERIFY OP_CHECKSIG",
      "scriptpubkey_type": "p2pkh",
      "scriptpubkey_address": "1NUxy9xWxCCJZy9jprVrE3ZYfgxCVeRC15",
      "value": 100000000
    },
    {
      "scriptpubkey": "0020d58751d67dd8fab3199e15643f43378c7fe14df63a3f613baaaf7fb8a70fc1f7",
      "scriptpubkey_asm": "OP_0 OP_PUSHBYTES_32 d58751d67dd8fab3199e15643f43378c7fe14df63a3f613baaaf7fb8a70fc1f7",
      "scriptpubkey_type": "v0_p2wsh",
      "scriptpubkey_address": "bc1q6kr4r4namratxxv7z4jr7seh33l7zn0k8glkzwa24alm3fc0c8msew68z6",
      "value": 113652145
    }
  ],
  "size": 3339,
  "weight": 5775,
  "fee": 31962,
  "status": {
    "confirmed": true,
    "block_height": 834638,
    "block_hash": "000000000000000000025f742c626208ac87e0b7d15054abb4a19ca2d735a54e",
    "block_time": 1710405325
  },
  "hex": "0100000000010a505d59a73349a1d7b30ceac4d58af03b429dad1fafd0f580f9fd36d2de9ac91c0100000023220020711d566fc22c291bafbce9b4c093d8b11e01c738d2750a714efc03004c326f09ffffffff3e08b292f9469112dabb1757cfc5c8191320ae89d9a535199c5d134e092da4570d0000002322002017d6a56835f08d3f05ce846172dd7337a200009f7eb8f89c9a3cb16af150348fffffffff7499f16892205ff606d325b13c5edaa2ba417555b52016aeb67e4ed44f23056700000000232200203eddc53beff7e63712679be6467927312d0edf94e7ac48cec37ad5573bab866effffffff6079901125337a9fed113ff3f431f6894bed54701622602e82a3e6ac5bd86f680000000000ffffffffaec19108e6edc9089fb07737084be70634141203e6b8bfac5c6c9b96b017a89d04000000232200204ab93d8c619650df4b8b4f1057df7e03ec8f5fada816a193f9762317d8873ffbffffffff15888af013e715c263aaab9fb04501b6d5ae64e0a7f372902ed60de6c392cfaa00000000232200206ef09f9d723aafdabb41d6c26183c08ded89957a0deec03c795483d402660738ffffffff4af4baa4b2f84b258eee43df2e33e0875587112ae49c7c09307249b2f1996dca000000002322002034d3520f6baf736188e84b0ad781e9f1b492b5af4aff8d2a2b7110ad38f905ebffffffff7cfcd28b5a06e41350654f32ae137dbf97bd00c3be91e4181599aadfde141ad70000000023220020d246690e9e0296cb51f6eac0942fdec2656ece5243edfb28d1c082c922c9f4f3ffffffff0d596001144e477a70f6aef7512cf00b136bef8d0887e54f00242bc4073ebee800000000232200206ef09f9d723aafdabb41d6c26183c08ded89957a0deec03c795483d402660738ffffffffb16f51fd9551b5191f5d432d28de813d08eb32f6be959d5d66f9fb77f8b225f60000000023220020e7736da67decaf89c5ef88d9d422850ca57dd2b4d4870b92055d7bcff24bff7effffffff0200e1f505000000001976a914eba497a1b8ae74ae60b27fbfd8d60fcc20b4078288acb131c60600000000220020d58751d67dd8fab3199e15643f43378c7fe14df63a3f613baaaf7fb8a70fc1f7040048304502210099453dbe784c914c7c299853f7a869c0b71f04296ecd0ee7eac5eac519663ba102203e20d5f3078f089da5cf9246dbf84aec4b9bc36cc81d569b8774bbee9e40df2b014730440220689175a9be910c53f2e00015e2bbb0feb21b22d975e5861f396c67d90c62d77602203f5dcae5f6d415f0e3a9116f71e867d34ddbb6f88895233709aa5069fa0849480169522102e3d4a4beba728ca53b7d37a24971de96948335a88243c82b03504a6feb1718752103210c61450b8ac2db50e43d7d4f34c9b00d7a896a40d17e996eb8797b133702282102261e30711371bc4e8e94d08c64e1455c6ea849190a3a3b09e5818a656641ae0853ae04004730440220163214458977612e1e6f29c851988bd9eb3f2ac134b5992a280437932c16badf02203b322e37a8f189a9f9172eb4d3ddcf427766501bf134d83b0d38e741c86630b8014730440220166a8f9e6bacaf5fffda5a8aa98447d6558caec4c6024ffd05e41673ecb59275022050dfb21433a3d62569ec977c7db6aa668dcd0a44ad958c16fb3e603743ce66dc0169522102e2b170737b072df953fa7affe6aaa49e69a7f7ef24c55bc18b8d174d378e0bff21025ceb6f8c308195e090561b3c20cb32aecf2fa8976905dd51ff771abfe06861092102ad4d6fdd8805cb97783c8de28c0ec1be223758e0be852529b61da6a0dc2a053253ae0400483045022100cf1642c5fedba0f7fd129e97621bc488780b2fcdbaf1b2b1a77dd585300d3508022037b8eacd13fda242363ac65565875fa0e305cb6d5ccd1bbef40cda4a703997fb01473044022068b246fdc5edd2f8237fa53ac2f0d7489c2d9d263063842788e568907b0002c902203ed3fabaa64851c1703b2160281055dd1a678f4d055ec7677a2ee17f4a3519ce01695221033e9ddb56d76b5a9dd6a7aaada81061f04174814e84d14416bf18a893f4e33c6f21036001458d9992c44c5d34f043e4b25f6c395b282c149f96743a385294ce473fc021026ed41165cc7775a6d9ef36167f460d590bd02d7f24c255af58ebc63b73ce92b053ae040048304502210092a027c4dabeb3bd9ff081c99f9b4ddc9a7a75f7471caea6eb8a5df87d78c9c20220104436be9f54f09f251ad01b4be61a0b9589fe70b1ef2f27fb3717b91aaf37d10147304402202e129b85501807869c6365e2c554874564463f46bcc34897ef220c88430e74a502204f1e4f9bbc82b519c567d8f69a1b8690e4382e5f2645d5c267100d57bb2aef980169522102aa7ec178d1c80e4ecdd2abf2aa4f3970f75999fbe848f1342a3fb5dd281d31cd21021db32a000de2d53bf2fd5563552501c1a8ebcd82c511c867c9fef17005f3f97b2102542ed5e18fe57f56422e99ac4d8bee8c32ddb07470efe059c9c7ce4130d58c1753ae0400483045022100f58792dc2ab57474e00063281fdcf005c264a62fbe37030ace0af868c428339c02205987f8566cab853cd26cab106cc8bdf63bba0d24c71d0567946923621ce6f78d01473044022077bea594e85ee94c146925e0e048d0c199cf42cf7c070323dd807cea3462667b022018e5a213a46ca7dd6c4eb8e7b54148471c23be6e3cf1226d61d2157b4c139178016952210278511756e41f9967d5fd306e6e7811964b636295c5de70ee944e9d6ae7c0535021030c189d8c3b8de5e94a8299827523181d1f5118ec0aae4918773336bc6a80a9aa2102a6e7746f582443b7f050920f88458cfefcb51c24c5bacdc6a57abac5487cc80753ae0400473044022066229bc19e4b84868328539531358feacf4e6b3e00381fd841e4f4dcbefa3627022067d11f0723c9fa0f37235b18f19c977994c8858b5f4530d0a4b2df955fd00505014730440220112a4e446b8f9ea596b39387b9fed39dada2fe61e25de1522e196bfb42beaf84022079542bac2fc2cdc518ef9ea1643ee7b0333f5e4ba87306b25dc1d234a18d8d0e01695221039421164cba017ab3b707906bfffd8714458a0bf3a399877b3298aa2777b14d7b2102db062a1ba09cac1ad54133ae4d57b98296d52fd0fa63c3e9be60496916cb33aa210335ada7892f515239613ec01cdf498e7284730f16f10f9351b7ff40b528fa5bd453ae0400483045022100cd5acc0f6f17978d2b9a6edfb9207c7654262170b1bdad37c64c7039f105118602202bc7c5f171f06f09444a1d91142cf2d42b132a8ea667a19400bf3be925afd9f50147304402203db082b1be5c237db592d10119dc325bb70921a95ada376461d56a0076521fb602206d79146cce489a98d4b5964acb5aa898b6ec37ac2da0579486076e5555f0208c016952210224ec0714db989b0aa1076bec27f3cb2f869f0db4aa93890c56c8af20e1252bef21031a8f48329afc50d22ed6eb1fdb700aad50b55d8a823ae9ff26330edd0f73b8b72103394f40fb9d7cd396be8cd543f3cee6464b58d8eb5a312dffc63c95135196f5db53ae040047304402202b1e1744ca77c40c4dbb997eb232104daaba7deb274c763ad0803bd5a153ea4d0220027e6b525f6a0ec542bda8fcd3aaa4a6ed7637ee5199776fc56b27be6fa6c5b201473044022073c1b3b8ef9b5d4bae73e32d004332ca30c93f4fd030cf36b9339dc9c8322349022053e6aeee94481a5df07da42289a12a1397705f6992df35439406df4b02081fca0169522103e8834d2b9f50c54cd5abc2b2376668c5e44ddf215ae273f3fd226db003f116b12103b777c212027d5d54924c6e8ee5bb139d172beb39440a46f4b92054012ff5b09c2103c2d3a93644860d2baa7afcd39671c8252e36b19ce548689ac0c4e145eaeeaf1d53ae040047304402204eefea7dcdcc8ce88440f98a449b8fc5e49c40e3f1659fd326370f39752230e9022050b53a5e4dc96ba903f34b7008ca650b400bdb919710dae0ee7814dd7358930501473044022024bd270edfd8773a6a145b00ad13c393220151e7b0e3a75667228ccc57b9a25a02202f43474cd10af7d2be8c73f099f7c3f14cc9ce958d1dcef69b26826f3e46cf6e01695221039421164cba017ab3b707906bfffd8714458a0bf3a399877b3298aa2777b14d7b2102db062a1ba09cac1ad54133ae4d57b98296d52fd0fa63c3e9be60496916cb33aa210335ada7892f515239613ec01cdf498e7284730f16f10f9351b7ff40b528fa5bd453ae040047304402201df889e71a8da4ed158bf17ea7df0504ca895da70ec43a7edc79c22d977fa17f02206449d13c97dea27ed027af9be2a2bdd9e92a88f2e302cdd530fab2f0266ed3320147304402202866098947a7048151e5dd0ac6c840d883d8acf129beb504399b8c7b974e32fb0220686178b3600a6176654cf595fb7e73a453bdcbc4f14436357c193c2db0cfc0070169522102b5befaff02b92fbc7b0a14f873807c9f59f7c926bfa37514b34dbd599dc4a85a2103f7754fe8fea5eef6d7bc46a84c2df4792a43ff2fc4f512b96133e9eae86b2af82103bfe366ecd4bea77fbeb5ba55dafa76377414f4ad86ca1e419fb8fc804d01df0f53ae00000000"
}