{
  "txid": "1c9c35b8e8fe7027321497991a3922626ffe6b452c86c7e49af00aa59718acb8",
  "version": 2,
  "locktime": 0,
  "vin": [
    {
      "txid": "be56d3d2e44219808db3f6bf4f6626ef34914449d17a30154a68c0b782adb2f9",
      "vout": 1,
      "prevout": {
        "scriptpubkey": "5120e76d2285c61fa56ab91a4930d41d85bb749d4d6a6e542eb42c8bbf2e27109088",
        "scriptpubkey_asm": "OP_PUSHNUM_1 OP_PUSHBYTES_32 e76d2285c61fa56ab91a4930d41d85bb749d4d6a6e542eb42c8bbf2e27109088",
        "scriptpubkey_type": "v1_p2tr",
        "scriptpubkey_address": "bc1puakj9pwxr7jk4wg6fycdg8v9hd6f6nt2de2zadpv3wljufcsjzyqjnntyr",
        "value": 82513
      },
      "scriptsig": "",
      "scriptsig_asm": "",
      "witness": [
        "f88d1e7d49b701a3ff37be29042f34844565eed299e421589a0759a182858eb61b41578d652bf31bdcc1255023fb774edd4f1356925acfc85cfa02f52499593e"
      ],
      "is_coinbase": false,
      "sequence": 4294967295
    }
  ],
  "vout": [
    {
      "scriptpubkey": "512073bde32fdbabb20eb396055194c2449c0379b3ffe9ba5689839df87ae2c99c1f",
      "scriptpubkey_asm": "OP_PUSHNUM_1 OP_PUSHBYTES_32 73bde32fdbabb20eb396055194c2449c0379b3ffe9ba5689839df87ae2c99c1f",
      "scriptpubkey_type": "v1_p2tr",
      "scriptpubkey_address": "bc1pww77xt7m4weqavukq4gefsjynsphnvllaxa9dzvrnhu84ckfns0sm22e73",
      "value": 4238
    },
    {
      "scriptpubkey": "5120e76d2285c61fa56ab91a4930d41d85bb749d4d6a6e542eb42c8bbf2e27109088",
      "scriptpubkey_asm": "OP_PUSHNUM_1 OP_PUSHBYTES_32 e76d2285c61fa56ab91a4930d41d85bb749d4d6a6e542eb42c8bbf2e27109088",
      "scriptpubkey_type": "v1_p2tr",
      "scriptpubkey_address": "bc1puakj9pwxr7jk4wg6fycdg8v9hd6f6nt2de2zadpv3wljufcsjzyqjnntyr",
      "value": 74271
    }
  ],
  "size": 205,
  "weight": 616,
  "fee": 4004,
  "status": {
    "confirmed": true,
    "block_height": 834638,
    "block_hash": "000000000000000000025f742c626208ac87e0b7d15054abb4a19ca2d735a54e",
    "block_time": 1710405325
  },
  "hex": "02000000000101f9b2ad82b7c0684a15307ad149449134ef26664fbff6b38d801942e4d2d356be0100000000ffffffff028e1000000000000022512073bde32fdbabb20eb396055194c2449c0379b3ffe9ba5689839df87ae2c99c1f1f22010000000000225120e76d2285c61fa56ab91a4930d41d85bb749d4d6a6e542eb42c8bbf2e271090880140f88d1e7d49b701a3ff37be29042f34844565eed299e421589a0759a182858eb61b41578d652bf31bdcc1255023fb774edd4f1356925acfc85cfa02f52499593e00000000"
}