{
  "txid": "1cb082e64e2de5ca287017c87247313fd6cb4226282ae836c859ff3779532224",
  "version": 2,
  "locktime": 0,
  "vin": [
    {
      "txid": "1c85bd6b0959c37f75132a37b963b77c6ee7e15937f81abf437a1ea9314442c7",
      "vout": 1,
      "prevout": {
        "scriptpubkey": "5120cb83a415fd6a72cdba6f30d867d9fd0eed8a942ddeb9619814c62c762e8435f6",
        "scriptpubkey_asm": "OP_PUSHNUM_1 OP_PUSHBYTES_32 cb83a415fd6a72cdba6f30d867d9fd0eed8a942ddeb9619814c62c762e8435f6",
        "scriptpubkey_type": "v1_p2tr",
        "scriptpubkey_address": "bc1pewp6g90adfevmwn0xrvx0k0apmkc49pdm6ukrxq5cck8vt5yxhmq42u74l",
        "value": 358475
      },
      "scriptsig": "",
      "scriptsig_asm": "",
      "witness": [
        "2df544b2405f20e4575073cb51e1c6098a74959256b6a2c8142b9954a1a40c6c156c9bd4c301e052c96c2de34616274c480909f959d9b0c6166d4900464f6cff"
      ],
      "is_coinbase": false,
      "sequence": 4294967293
    }
  ],
  "vout": [
    {
      "scriptpubkey": "5120a8ca4b57e4be761b8093f8f5bb021df6157c745c3131be4675ab636087da6aa1",
      "scriptpubkey_asm": "OP_PUSHNUM_1 OP_PUSHBYTES_32 a8ca4b57e4be761b8093f8f5bb021df6157c745c3131be4675ab636087da6aa1",
      "scriptpubkey_type": "v1_p2tr",
      "scriptpubkey_address": "bc1p4r9yk4lyhemphqynlr6mkqsa7c2hcazuxycmu3n44d3kpp76d2ssxshkqe",
      "value": 2994
    },
    {
      "scriptpubkey": "5120cb83a415fd6a72cdba6f30d867d9fd0eed8a942ddeb9619814c62c762e8435f6",
      "scriptpubkey_asm": "OP_PUSHNUM_1 OP_PUSHBYTES_32 cb83a415fd6a72cdba6f30d867d9fd0eed8a942ddeb9619814c62c762e8435f6",
      "scriptpubkey_type": "v1_p2tr",
      "scriptpubkey_address": "bc1pewp6g90adfevmwn0xrvx0k0apmkc49pdm6ukrxq5cck8vt5yxhmq42u74l",
      "value": 353017
    }
  ],
  "size": 205,
  "weight": 616,
  "fee": 2464,
  "status": {
    "confirmed": true,
    "block_height": 834638,
    "block_hash": "000000000000000000025f742c626208ac87e0b7d15054abb4a19ca2d735a54e",
    "block_time": 1710405325
  },
  "hex": "02000000000101c7424431a91e7a43bf1af83759e1e76e7cb763b9372a13757fc359096bbd851c0100000000fdffffff02b20b000000000000225120a8ca4b57e4be761b8093f8f5bb021df6157c745c3131be4675ab636087da6aa1f962050000000000225120cb83a415fd6a72cdba6f30d867d9fd0eed8a942ddeb9619814c62c762e8435f601402df544b2405f20e4575073cb51e1c6098a74959256b6a2c8142b9954a1a40c6c156c9bd4c301e052c96c2de34616274c480909f959d9b0c6166d4900464f6cff00000000"
}