{
  "txid": "1cc6dde599434cee96f7f902302dda99011ac6fbf658c67ef2bacb3d833a829f",
  "version": 1,
  "locktime": 0,
  "vin": [
    {
      "txid": "4ff00e6853a4132905f6244afe43d664d0f47e8040c301450100d3017c4c8631",
      "vout": 0,
      "prevout": {
        "scriptpubkey": "51203509ffe83572c5d704409f43a6fb4a58d9c919e47f09c2b30eec137290974095",
        "scriptpubkey_asm": "OP_PUSHNUM_1 OP_PUSHBYTES_32 3509ffe83572c5d704409f43a6fb4a58d9c919e47f09c2b30eec137290974095",
        "scriptpubkey_type": "v1_p2tr",
        "scriptpubkey_address": "bc1px5yll6p4wtzawpzqnap6d762trvujx0y0uyu9vcwasfh9yyhgz2sn27t7v",
        "value": 5034
      },
      "scriptsig": "",
      "scriptsig_asm": "",
      "witness": [
        "2a4c438f636b037c26f3549da2f0e17bafaa67553146dff5283775181ae6bc92f9e7e5e4562206a5e9ea217aaad70348597608b1d336e6565e03a1f42361d390",
        "20d860abd7f688114b426f6574f4121a9e22cd68356f241662ae9f2296260d6474ac0063036f7264010117746578742f68746d6c3b636861727365743d7574662d38004d08023c21444f43545950452068746d6c3e0a3c68746d6c206c616e673d22656e223e0a3c686561643e0a3c7374796c653e0a202020202e636f6e7461696e657220696d67207b0a2020202020202020706f736974696f6e3a206162736f6c7574653b0a202020202020202077696474683a20313030253b0a20202020202020206865696768743a20313030253b0a20202020202020206f626a6563742d6669743a20636f7665723b0a202020207d0a202020202e636f6e7461696e657220696d673a6e74682d6368696c64283129207b207a2d696e6465783a20313b207d0a202020202e636f6e7461696e657220696d673a6e74682d6368696c64283229207b207a2d696e6465783a20323b207d0a202020202e636f6e7461696e657220696d673a6e74682d6368696c64283329207b207a2d696e6465783a20333b207d0a202020202e636f6e7461696e657220696d673a6e74682d6368696c64283429207b207a2d696e6465783a20343b207d0a202020202e636f6e7461696e657220696d673a6e74682d6368696c64283529207b207a2d696e6465783a20353b207d0a202020202e636f6e7461696e657220696d673a6e74682d6368696c64283629207b207a2d696e6465783a20363b207d0a3c2f7374796c653e0a3c2f686561643e0a3c626f64793e0a202020203c64697620636c6173733d22636f6e7461696e6572223e0a202020202020204d0802203c696d67207372633d222f636f6e74656e742f653037383130366231303064343066623261306265663836663931653061346237326439323937653464356139353833363737363532376164666361363432616930223e0a20202020202020203c696d67207372633d222f636f6e74656e742f323332313365633332393661316636313036613662383433333963663533633632366433643335373338333932623730623561393062623965306133333366656930223e0a20202020202020203c696d67207372633d222f636f6e74656e742f626432366330623263333262646130383635616637363036626132636436346135626366666237383439313030333539326663366332333362363861383236336930223e0a20202020202020203c696d67207372633d222f636f6e74656e742f663137666237376138303632316334616330316632303265646462373237643866316462336332306437313935643063336363373862623734323264303935656930223e0a20202020202020203c696d67207372633d222f636f6e74656e742f616430643337653434336238646564656134623165303739626532643339636164323930363961396539343863636166643036316633636264386138336534666930223e0a20202020202020203c696d67207372633d222f636f6e74656e742f66386536366335626235333637303239663333304c4c31383035666561313630656465306363313430373961333334383165636232386436366461633464623636386930223e0a202020203c2f6469763e0a3c2f626f64793e0a3c2f68746d6c3e0a68",
        "c1d860abd7f688114b426f6574f4121a9e22cd68356f241662ae9f2296260d6474"
      ],
      "is_coinbase": false,
      "sequence": 4294967285
    }
  ],
  "vout": [
    {
      "scriptpubkey": "a9140c8525ae2ecb284cc8ff6d26e675cdf55c2361e087",
      "scriptpubkey_asm": "OP_HASH160 OP_PUSHBYTES_20 0c8525ae2ecb284cc8ff6d26e675cdf55c2361e0 OP_EQUAL",
      "scriptpubkey_type": "p2sh",
      "scriptpubkey_address": "32qDY5HD4am2CHNYM6disFpKqNhNtXChZH",
      "value": 546
    }
  ],
  "size": 1380,
  "weight": 1629,
  "fee": 4488,
  "status": {
    "confirmed": true,
    "block_height": 834464,
    "block_hash": "0000000000000000000177a0869a911a2b65c9bdcd5a8bcb02b68f305bee848e",
    "block_time": 1710308296
  },
  "hex": "0100000000010131864c7c01d300014501c340807ef4d064d643fe4a24f6052913a453680ef04f0000000000f5ffffff01220200000000000017a9140c8525ae2ecb284cc8ff6d26e675cdf55c2361e08703402a4c438f636b037c26f3549da2f0e17bafaa67553146dff5283775181ae6bc92f9e7e5e4562206a5e9ea217aaad70348597608b1d336e6565e03a1f42361d390fda80420d860abd7f688114b426f6574f4121a9e22cd68356f241662ae9f2296260d6474ac0063036f7264010117746578742f68746d6c3b636861727365743d7574662d38004d08023c21444f43545950452068746d6c3e0a3c68746d6c206c616e673d22656e223e0a3c686561643e0a3c7374796c653e0a202020202e636f6e7461696e657220696d67207b0a2020202020202020706f736974696f6e3a206162736f6c7574653b0a202020202020202077696474683a20313030253b0a20202020202020206865696768743a20313030253b0a20202020202020206f626a6563742d6669743a20636f7665723b0a202020207d0a202020202e636f6e7461696e657220696d673a6e74682d6368696c64283129207b207a2d696e6465783a20313b207d0a202020202e636f6e7461696e657220696d673a6e74682d6368696c64283229207b207a2d696e6465783a20323b207d0a202020202e636f6e7461696e657220696d673a6e74682d6368696c64283329207b207a2d696e6465783a20333b207d0a202020202e636f6e7461696e657220696d673a6e74682d6368696c64283429207b207a2d696e6465783a20343b207d0a202020202e636f6e7461696e657220696d673a6e74682d6368696c64283529207b207a2d696e6465783a20353b207d0a202020202e636f6e7461696e657220696d673a6e74682d6368696c64283629207b207a2d696e6465783a20363b207d0a3c2f7374796c653e0a3c2f686561643e0a3c626f64793e0a202020203c64697620636c6173733d22636f6e7461696e6572223e0a202020202020204d0802203c696d67207372633d222f636f6e74656e742f653037383130366231303064343066623261306265663836663931653061346237326439323937653464356139353833363737363532376164666361363432616930223e0a20202020202020203c696d67207372633d222f636f6e74656e742f323332313365633332393661316636313036613662383433333963663533633632366433643335373338333932623730623561393062623965306133333366656930223e0a20202020202020203c696d67207372633d222f636f6e74656e742f626432366330623263333262646130383635616637363036626132636436346135626366666237383439313030333539326663366332333362363861383236336930223e0a20202020202020203c696d67207372633d222f636f6e74656e742f663137666237376138303632316334616330316632303265646462373237643866316462336332306437313935643063336363373862623734323264303935656930223e0a20202020202020203c696d67207372633d222f636f6e74656e742f616430643337653434336238646564656134623165303739626532643339636164323930363961396539343863636166643036316633636264386138336534666930223e0a20202020202020203c696d67207372633d222f636f6e74656e742f66386536366335626235333637303239663333304c4c31383035666561313630656465306363313430373961333334383165636232386436366461633464623636386930223e0a202020203c2f6469763e0a3c2f626f64793e0a3c2f68746d6c3e0a6821c1d860abd7f688114b426f6574f4121a9e22cd68356f241662ae9f2296260d647400000000"
}