{
  "txid": "1cdb93b6305c24ef228d28eff9643bbfc83edb58df735081e00430d7770457e2",
  "version": 2,
  "locktime": 0,
  "vin": [
    {
      "txid": "425ed8639af8c8dbe85a2258a807a4b0f823e771e3e5b8c38c2233dc318b616a",
      "vout": 2,
      "prevout": {
        "scriptpubkey": "00140d1b5099a4a6bdf7303aec94fb71472df983862a",
        "scriptpubkey_asm": "OP_0 OP_PUSHBYTES_20 0d1b5099a4a6bdf7303aec94fb71472df983862a",
        "scriptpubkey_type": "v0_p2wpkh",
        "scriptpubkey_address": "bc1qp5d4pxdy567lwvp6aj20ku289huc8p32d5wurr",
        "value": 36000
      },
      "scriptsig": "",
      "scriptsig_asm": "",
      "witness": [
        "3045022100cd8c84085950aa96e9416cc12ff4dbf38ec04d942723b3adb977a47179df6e61022011a152f995101f6525b910192a206c64219ba68e346b283d86c9a432ae5f6ab201",
        "02e0839997e527eb7df6dc7cb354d05884d65152298cdd60cc59c1f9c9d1589479"
      ],
      "is_coinbase": false,
      "sequence": 4294967295
    }
  ],
  "vout": [
    {
      "scriptpubkey": "001433515af4607081eef5ffdee33990c27465adaa31",
      "scriptpubkey_asm": "OP_0 OP_PUSHBYTES_20 33515af4607081eef5ffdee33990c27465adaa31",
      "scriptpubkey_type": "v0_p2wpkh",
      "scriptpubkey_address": "bc1qxdg44arqwzq7aa0lmm3nnyxzw3j6m233djg4ec",
      "value": 34798
    }
  ],
  "size": 192,
  "weight": 438,
  "fee": 1202,
  "status": {
    "confirmed": true,
    "block_height": 834464,
    "block_hash": "0000000000000000000177a0869a911a2b65c9bdcd5a8bcb02b68f305bee848e",
    "block_time": 1710308296
  },
  "hex": "020000000001016a618b31dc33228cc3b8e5e371e723f8b0a407a858225ae8dbc8f89a63d85e420200000000ffffffff01ee8700000000000016001433515af4607081eef5ffdee33990c27465adaa3102483045022100cd8c84085950aa96e9416cc12ff4dbf38ec04d942723b3adb977a47179df6e61022011a152f995101f6525b910192a206c64219ba68e346b283d86c9a432ae5f6ab2012102e0839997e527eb7df6dc7cb354d05884d65152298cdd60cc59c1f9c9d158947900000000"
}