{
  "txid": "1ce32aabb7573f1b4867a3ba675710ceccbf5e05edfd1c7864744ad6c3bf274b",
  "version": 2,
  "locktime": 0,
  "vin": [
    {
      "txid": "acc3ba00869acb582a3f2904ce3a11dd3779350ce234063fc7d0959246213364",
      "vout": 116,
      "prevout": {
        "scriptpubkey": "51202f2af099c0920b7badac960362fc66c09973ee1191c5d36cf70838a9b11d5e5a",
        "scriptpubkey_asm": "OP_PUSHNUM_1 OP_PUSHBYTES_32 2f2af099c0920b7badac960362fc66c09973ee1191c5d36cf70838a9b11d5e5a",
        "scriptpubkey_type": "v1_p2tr",
        "scriptpubkey_address": "bc1p9u40pxwqjg9hhtdvjcpk9lrxczvh8ms3j8zaxm8hpqu2nvgatedqa057mw",
        "value": 1806
      },
      "scriptsig": "",
      "scriptsig_asm": "",
      "witness": [
        "8c3bc6cab82e65442b631c558dc5464d62ca7372bb32894715b73ecae3cfb87e9427fdcd13c4abccd97ad3a27528e4b4b6ef28b421cd0f7f0781bfcc3ab4cbcc",
        "204d541ee049571f0cb2407f5d595d8c9128b39a195eeb53c2143ec7eacc2dc8a3ac0063036f726401010a746578742f706c61696e00357b2270223a226272632d3230222c226f70223a226d696e74222c227469636b223a22646f6765222c22616d74223a2234323030227d68",
        "c04d541ee049571f0cb2407f5d595d8c9128b39a195eeb53c2143ec7eacc2dc8a3"
      ],
      "is_coinbase": false,
      "sequence": 4261412863
    }
  ],
  "vout": [
    {
      "scriptpubkey": "00147a665de7a370f4c9b372ab1fae587500a5bcbdb4",
      "scriptpubkey_asm": "OP_0 OP_PUSHBYTES_20 7a665de7a370f4c9b372ab1fae587500a5bcbdb4",
      "scriptpubkey_type": "v0_p2wpkh",
      "scriptpubkey_address": "bc1q0fn9mearwr6vnvmj4v06ukr4qzjme0d565dzcx",
      "value": 294
    }
  ],
  "size": 294,
  "weight": 540,
  "fee": 1512,
  "status": {
    "confirmed": true,
    "block_height": 834460,
    "block_hash": "00000000000000000000484a79b643b2524bbce82e5d8a442013fa5b8905ed98",
    "block_time": 1710307468
  },
  "hex": "02000000000101643321469295d0c73f0634e20c357937dd113ace04293f2a58cb9a8600bac3ac7400000000fffffffd0126010000000000001600147a665de7a370f4c9b372ab1fae587500a5bcbdb403408c3bc6cab82e65442b631c558dc5464d62ca7372bb32894715b73ecae3cfb87e9427fdcd13c4abccd97ad3a27528e4b4b6ef28b421cd0f7f0781bfcc3ab4cbcc6d204d541ee049571f0cb2407f5d595d8c9128b39a195eeb53c2143ec7eacc2dc8a3ac0063036f726401010a746578742f706c61696e00357b2270223a226272632d3230222c226f70223a226d696e74222c227469636b223a22646f6765222c22616d74223a2234323030227d6821c04d541ee049571f0cb2407f5d595d8c9128b39a195eeb53c2143ec7eacc2dc8a300000000"
}