{
  "txid": "1d029bd990eeefe93b253a25a969b8ebd1bdc5095b8b0e81494c78a6693c07ca",
  "version": 1,
  "locktime": 0,
  "vin": [
    {
      "txid": "038b6fa59828b508d6fcd961b84d654ba726da58938a68208b73606383fc81a6",
      "vout": 7,
      "prevout": {
        "scriptpubkey": "0014740e4c9126112dc07979639c6c888c8f5a52e77f",
        "scriptpubkey_asm": "OP_0 OP_PUSHBYTES_20 740e4c9126112dc07979639c6c888c8f5a52e77f",
        "scriptpubkey_type": "v0_p2wpkh",
        "scriptpubkey_address": "bc1qws8yeyfxzykuq7tevwwxezyv3ad99emlyy9uls",
        "value": 11609027
      },
      "scriptsig": "",
      "scriptsig_asm": "",
      "witness": [
        "3045022100d6222424bd8b143eb50765e7ad36dde911082a64afad8032091d0bd7b8392b2302203b2d5333162c78e5cb4b821248f0d4d7b935d00a6aa748fa9235ae2531d5af1901",
        "025b357ffef2343cf3e9f694932f84e036f35796a6fcb1d718ea54f6c35ae01c80"
      ],
      "is_coinbase": false,
      "sequence": 4294967295
    }
  ],
  "vout": [
    {
      "scriptpubkey": "0014b9929deb3a73f8dc03664a46617b4e0e454cd2d3",
      "scriptpubkey_asm": "OP_0 OP_PUSHBYTES_20 b9929deb3a73f8dc03664a46617b4e0e454cd2d3",
      "scriptpubkey_type": "v0_p2wpkh",
      "scriptpubkey_address": "bc1qhxffm6e6w0udcqmxffrxz76wpez5e5kn80a8s8",
      "value": 383043
    },
    {
      "scriptpubkey": "0014f0ce1ddb86dede092bec70fbf27a3a38c54bd0e4",
      "scriptpubkey_asm": "OP_0 OP_PUSHBYTES_20 f0ce1ddb86dede092bec70fbf27a3a38c54bd0e4",
      "scriptpubkey_type": "v0_p2wpkh",
      "scriptpubkey_address": "bc1q7r8pmkuxmm0qj2lvwraly7368rz5h58yhnrdgs",
      "value": 22108
    },
    {
      "scriptpubkey": "0014ff68155aa6d48620344a19bae2791589e5bdfa56",
      "scriptpubkey_asm": "OP_0 OP_PUSHBYTES_20 ff68155aa6d48620344a19bae2791589e5bdfa56",
      "scriptpubkey_type": "v0_p2wpkh",
      "scriptpubkey_address": "bc1qla5p2k4x6jrzqdz2rxawy7g438jmm7jkhjze3l",
      "value": 66330
    },
    {
      "scriptpubkey": "0014f1cb09e41d8f5abc2fc5618dc2f7db06f884983b",
      "scriptpubkey_asm": "OP_0 OP_PUSHBYTES_20 f1cb09e41d8f5abc2fc5618dc2f7db06f884983b",
      "scriptpubkey_type": "v0_p2wpkh",
      "scriptpubkey_address": "bc1q789sneqa3adtct79vxxu9a7mqmugfxpmaw0jl2",
      "value": 181090
    },
    {
      "scriptpubkey": "0014f20b1095a088080b9ae5129176f8448248b95344",
      "scriptpubkey_asm": "OP_0 OP_PUSHBYTES_20 f20b1095a088080b9ae5129176f8448248b95344",
      "scriptpubkey_type": "v0_p2wpkh",
      "scriptpubkey_address": "bc1q7g93p9dq3qyqhxh9z2ghd7zysfytj56ywrgmax",
      "value": 190960
    },
    {
      "scriptpubkey": "00147d1f760bc53f565457c14b22a5e72c0b3871a327",
      "scriptpubkey_asm": "OP_0 OP_PUSHBYTES_20 7d1f760bc53f565457c14b22a5e72c0b3871a327",
      "scriptpubkey_type": "v0_p2wpkh",
      "scriptpubkey_address": "bc1q050hvz798at9g47pfv32teevpvu8rge8vlcqj3",
      "value": 63701
    },
    {
      "scriptpubkey": "76a9145783c1668ab881303d58ceb423913f58adf74d6a88ac",
      "scriptpubkey_asm": "OP_DUP OP_HASH160 OP_PUSHBYTES_20 5783c1668ab881303d58ceb423913f58adf74d6a OP_EQUALVERIFY OP_CHECKSIG",
      "scriptpubkey_type": "p2pkh",
      "scriptpubkey_address": "18yjdDkbRVV8Wf2qJHnSfjW4ECBP8t6UVW",
      "value": 20978
    },
    {
      "scriptpubkey": "001406e3df4fb4eccd30c16f2c303be751907ffe6ce0",
      "scriptpubkey_asm": "OP_0 OP_PUSHBYTES_20 06e3df4fb4eccd30c16f2c303be751907ffe6ce0",
      "scriptpubkey_type": "v0_p2wpkh",
      "scriptpubkey_address": "bc1qqm3a7na5anxnpst09scrhe63jpllum8q8mesu3",
      "value": 79841
    },
    {
      "scriptpubkey": "0014f239bbf24d0c8d13810e36b11aca786f4c3c0035",
      "scriptpubkey_asm": "OP_0 OP_PUSHBYTES_20 f239bbf24d0c8d13810e36b11aca786f4c3c0035",
      "scriptpubkey_type": "v0_p2wpkh",
      "scriptpubkey_address": "bc1q7gumhujdpjx38qgwx6c34jncdaxrcqp4ah2pg2",
      "value": 191013
    },
    {
      "scriptpubkey": "0014f67500ee14aba7fe715e222c3c4119278cb3377a",
      "scriptpubkey_asm": "OP_0 OP_PUSHBYTES_20 f67500ee14aba7fe715e222c3c4119278cb3377a",
      "scriptpubkey_type": "v0_p2wpkh",
      "scriptpubkey_address": "bc1q7e6spms54wnluu27ygkrcsgey7xtxdm60fkjth",
      "value": 838406
    },
    {
      "scriptpubkey": "00147bd44ba10397723a77c46dc881ff5fa783fc85b7",
      "scriptpubkey_asm": "OP_0 OP_PUSHBYTES_20 7bd44ba10397723a77c46dc881ff5fa783fc85b7",
      "scriptpubkey_type": "v0_p2wpkh",
      "scriptpubkey_address": "bc1q002yhggrjaer5a7ydhygrl6l57plepdh30gkl8",
      "value": 638082
    },
    {
      "scriptpubkey": "00148409757c5bb158d040ccbdf370e45fe1574d0377",
      "scriptpubkey_asm": "OP_0 OP_PUSHBYTES_20 8409757c5bb158d040ccbdf370e45fe1574d0377",
      "scriptpubkey_type": "v0_p2wpkh",
      "scriptpubkey_address": "bc1qssyh2lzmk9vdqsxvhhehpezlu9t56qmhqv4es0",
      "value": 1459585
    },
    {
      "scriptpubkey": "0014dff08e4c86648fc0f1e715b27e8fcce8c3a22aa7",
      "scriptpubkey_asm": "OP_0 OP_PUSHBYTES_20 dff08e4c86648fc0f1e715b27e8fcce8c3a22aa7",
      "scriptpubkey_type": "v0_p2wpkh",
      "scriptpubkey_address": "bc1qmlcgunyxvj8upu08zke8ar7varp6y248g5ptwh",
      "value": 267334
    },
    {
      "scriptpubkey": "0014740e4c9126112dc07979639c6c888c8f5a52e77f",
      "scriptpubkey_asm": "OP_0 OP_PUSHBYTES_20 740e4c9126112dc07979639c6c888c8f5a52e77f",
      "scriptpubkey_type": "v0_p2wpkh",
      "scriptpubkey_address": "bc1qws8yeyfxzykuq7tevwwxezyv3ad99emlyy9uls",
      "value": 7195875
    }
  ],
  "size": 598,
  "weight": 2062,
  "fee": 10681,
  "status": {
    "confirmed": true,
    "block_height": 834638,
    "block_hash": "000000000000000000025f742c626208ac87e0b7d15054abb4a19ca2d735a54e",
    "block_time": 1710405325
  },
  "hex": "01000000000101a681fc836360738b20688a9358da26a74b654db861d9fcd608b52898a56f8b030700000000ffffffff0e43d8050000000000160014b9929deb3a73f8dc03664a46617b4e0e454cd2d35c56000000000000160014f0ce1ddb86dede092bec70fbf27a3a38c54bd0e41a03010000000000160014ff68155aa6d48620344a19bae2791589e5bdfa5662c3020000000000160014f1cb09e41d8f5abc2fc5618dc2f7db06f884983bf0e9020000000000160014f20b1095a088080b9ae5129176f8448248b95344d5f80000000000001600147d1f760bc53f565457c14b22a5e72c0b3871a327f2510000000000001976a9145783c1668ab881303d58ceb423913f58adf74d6a88ace13701000000000016001406e3df4fb4eccd30c16f2c303be751907ffe6ce025ea020000000000160014f239bbf24d0c8d13810e36b11aca786f4c3c003506cb0c0000000000160014f67500ee14aba7fe715e222c3c4119278cb3377a82bc0900000000001600147bd44ba10397723a77c46dc881ff5fa783fc85b781451600000000001600148409757c5bb158d040ccbdf370e45fe1574d03774614040000000000160014dff08e4c86648fc0f1e715b27e8fcce8c3a22aa7e3cc6d0000000000160014740e4c9126112dc07979639c6c888c8f5a52e77f02483045022100d6222424bd8b143eb50765e7ad36dde911082a64afad8032091d0bd7b8392b2302203b2d5333162c78e5cb4b821248f0d4d7b935d00a6aa748fa9235ae2531d5af190121025b357ffef2343cf3e9f694932f84e036f35796a6fcb1d718ea54f6c35ae01c8000000000"
}