{
  "txid": "1d15c5d0d8cb8c943e1f5938731b0639177a7735080ed3127896508b39343446",
  "version": 2,
  "locktime": 0,
  "vin": [
    {
      "txid": "97ff6c9af11e0a992fa63a66e000def2000c976a9bfbce4e27ee481716d56773",
      "vout": 0,
      "prevout": {
        "scriptpubkey": "001453348d76709c1008d55f6422866c99b1174deecd",
        "scriptpubkey_asm": "OP_0 OP_PUSHBYTES_20 53348d76709c1008d55f6422866c99b1174deecd",
        "scriptpubkey_type": "v0_p2wpkh",
        "scriptpubkey_address": "bc1q2v6g6ansnsgq342lvs3gvmyekyt5mmkd4jatte",
        "value": 2320482
      },
      "scriptsig": "",
      "scriptsig_asm": "",
      "witness": [
        "3044022077bfe1750df467607a53170304f946d8c9db974e104f86400a0af5238ac1e94902204338c46f06d85aab7ac54c2359da3041d1576b54cc074f3bef22b3b7b6f0f56801",
        "03933a654cd4fe9c640b027f15649baf7b0d94e49d058fa9f56dbfa972432dcc69"
      ],
      "is_coinbase": false,
      "sequence": 4294967293
    }
  ],
  "vout": [
    {
      "scriptpubkey": "00149f701f15e8d295b187fb65887056136014cd9410",
      "scriptpubkey_asm": "OP_0 OP_PUSHBYTES_20 9f701f15e8d295b187fb65887056136014cd9410",
      "scriptpubkey_type": "v0_p2wpkh",
      "scriptpubkey_address": "bc1qnacp790g622mrplmvky8q4snvq2vm9qsc657c3",
      "value": 2000000
    },
    {
      "scriptpubkey": "0014dcbe2c4e26f399e36f9604c7dadd7f9c3910fc89",
      "scriptpubkey_asm": "OP_0 OP_PUSHBYTES_20 dcbe2c4e26f399e36f9604c7dadd7f9c3910fc89",
      "scriptpubkey_type": "v0_p2wpkh",
      "scriptpubkey_address": "bc1qmjlzcn3x7wv7xmukqnra4htlnsu3plyfe8ca42",
      "value": 316018
    }
  ],
  "size": 222,
  "weight": 561,
  "fee": 4464,
  "status": {
    "confirmed": true,
    "block_height": 834638,
    "block_hash": "000000000000000000025f742c626208ac87e0b7d15054abb4a19ca2d735a54e",
    "block_time": 1710405325
  },
  "hex": "020000000001017367d5161748ee274ecefb9b6a970c00f2de00e0663aa62f990a1ef19a6cff970000000000fdffffff0280841e00000000001600149f701f15e8d295b187fb65887056136014cd941072d2040000000000160014dcbe2c4e26f399e36f9604c7dadd7f9c3910fc8902473044022077bfe1750df467607a53170304f946d8c9db974e104f86400a0af5238ac1e94902204338c46f06d85aab7ac54c2359da3041d1576b54cc074f3bef22b3b7b6f0f568012103933a654cd4fe9c640b027f15649baf7b0d94e49d058fa9f56dbfa972432dcc6900000000"
}