{
  "txid": "1d2129049016f97d52768e92e3ddf2d669915f3f1ad324b8ff23805671b0a88f",
  "version": 1,
  "locktime": 0,
  "vin": [
    {
      "txid": "0a48d00bda86d5c4afe6ebc3951e8c2c1055e72912aa69c685ede1d5698d6e2c",
      "vout": 1,
      "prevout": {
        "scriptpubkey": "00149391e59c2820230b6c7dba545f75a06a8f04b32f",
        "scriptpubkey_asm": "OP_0 OP_PUSHBYTES_20 9391e59c2820230b6c7dba545f75a06a8f04b32f",
        "scriptpubkey_type": "v0_p2wpkh",
        "scriptpubkey_address": "bc1qjwg7t8pgyq3skmrahf297adqd28sfve0xaqvke",
        "value": 572013
      },
      "scriptsig": "",
      "scriptsig_asm": "",
      "witness": [
        "304402207c4bf202fff5cba6917ce481314f556420310df1e95a854c29b895776aff953802203124903bc571ef36fc091de70714ee2bb34ad6e5dd0c1f09812776f6866f328f01",
        "022e7d7fdaea315331467742ac229bd8c4568d98951f4b1a23f9508be5e4f03451"
      ],
      "is_coinbase": false,
      "sequence": 4294967295
    }
  ],
  "vout": [
    {
      "scriptpubkey": "0014576c0d356e8bd95589da9c7c9bc6adb8d22fab59",
      "scriptpubkey_asm": "OP_0 OP_PUSHBYTES_20 576c0d356e8bd95589da9c7c9bc6adb8d22fab59",
      "scriptpubkey_type": "v0_p2wpkh",
      "scriptpubkey_address": "bc1q2akq6dtw30v4tzw6n37fh34dhrfzl26etzt27y",
      "value": 88595
    },
    {
      "scriptpubkey": "0014f69f61562044efb732a3efdfae1cb1670f588051",
      "scriptpubkey_asm": "OP_0 OP_PUSHBYTES_20 f69f61562044efb732a3efdfae1cb1670f588051",
      "scriptpubkey_type": "v0_p2wpkh",
      "scriptpubkey_address": "bc1q760kz43qgnhmwv4ral06u893vu843qz3sr8qkr",
      "value": 479784
    }
  ],
  "size": 222,
  "weight": 561,
  "fee": 3634,
  "status": {
    "confirmed": true,
    "block_height": 834638,
    "block_hash": "000000000000000000025f742c626208ac87e0b7d15054abb4a19ca2d735a54e",
    "block_time": 1710405325
  },
  "hex": "010000000001012c6e8d69d5e1ed85c669aa1229e755102c8c1e95c3ebe6afc4d586da0bd0480a0100000000ffffffff02135a010000000000160014576c0d356e8bd95589da9c7c9bc6adb8d22fab592852070000000000160014f69f61562044efb732a3efdfae1cb1670f5880510247304402207c4bf202fff5cba6917ce481314f556420310df1e95a854c29b895776aff953802203124903bc571ef36fc091de70714ee2bb34ad6e5dd0c1f09812776f6866f328f0121022e7d7fdaea315331467742ac229bd8c4568d98951f4b1a23f9508be5e4f0345100000000"
}