{
  "txid": "1d2a7c42e84b846d2126d2959676c5b65b276cc20c1bd12577e2004eb612912b",
  "version": 2,
  "locktime": 0,
  "vin": [
    {
      "txid": "a8ffa50399966d5acac0effa08c12895a2dea0e791f482cf5cc445be8c4abd90",
      "vout": 0,
      "prevout": {
        "scriptpubkey": "00141332f4ff3d2085b0894709d3740233925f1695a0",
        "scriptpubkey_asm": "OP_0 OP_PUSHBYTES_20 1332f4ff3d2085b0894709d3740233925f1695a0",
        "scriptpubkey_type": "v0_p2wpkh",
        "scriptpubkey_address": "bc1qzve0fleayzzmpz28p8fhgq3njf03d9dqfdydg9",
        "value": 68014
      },
      "scriptsig": "",
      "scriptsig_asm": "",
      "witness": [
        "30440220482fce91f0fbfcdb14d148b5c241f0a9bf66df83787a913af1380778fd4241fc02201556393eeb4bef1f13358e95434c85e585504cddcb8f99961417aa1d6fd935ea01",
        "027cd72da164cd51d9183b277d05e2265166600162cbba4e0af3ab7b899760ee53"
      ],
      "is_coinbase": false,
      "sequence": 4294967295
    }
  ],
  "vout": [
    {
      "scriptpubkey": "0020be71fb84e9fbe94de6bf0eebfe809ddf5ff49adc070fbc5813f5e48947c1a442",
      "scriptpubkey_asm": "OP_0 OP_PUSHBYTES_32 be71fb84e9fbe94de6bf0eebfe809ddf5ff49adc070fbc5813f5e48947c1a442",
      "scriptpubkey_type": "v0_p2wsh",
      "scriptpubkey_address": "bc1qheclhp8fl055me4lpm4laqyama0lfxkuqu8mckqn7hjgj37p53pqjd94lt",
      "value": 66559
    }
  ],
  "size": 203,
  "weight": 485,
  "fee": 1455,
  "status": {
    "confirmed": true,
    "block_height": 834460,
    "block_hash": "00000000000000000000484a79b643b2524bbce82e5d8a442013fa5b8905ed98",
    "block_time": 1710307468
  },
  "hex": "0200000000010190bd4a8cbe45c45ccf82f491e7a0dea29528c108faefc0ca5a6d969903a5ffa80000000000ffffffff01ff03010000000000220020be71fb84e9fbe94de6bf0eebfe809ddf5ff49adc070fbc5813f5e48947c1a442024730440220482fce91f0fbfcdb14d148b5c241f0a9bf66df83787a913af1380778fd4241fc02201556393eeb4bef1f13358e95434c85e585504cddcb8f99961417aa1d6fd935ea0121027cd72da164cd51d9183b277d05e2265166600162cbba4e0af3ab7b899760ee5300000000"
}