{
  "txid": "1d4b1f6de2364dece5ebe66b0c84eac413d9fabb60b260045dcbc257139cb498",
  "version": 2,
  "locktime": 834359,
  "vin": [
    {
      "txid": "882d54c22cbdf42a3d7ea4803fe7c37acaecfa32c83b5ec215effbdf36c7994d",
      "vout": 7,
      "prevout": {
        "scriptpubkey": "001481a2e465406ae37dc6a25009b5bbdee0ba81a8dc",
        "scriptpubkey_asm": "OP_0 OP_PUSHBYTES_20 81a2e465406ae37dc6a25009b5bbdee0ba81a8dc",
        "scriptpubkey_type": "v0_p2wpkh",
        "scriptpubkey_address": "bc1qsx3wge2qdt3hm34z2qymtw77uzagr2xulp8wd6",
        "value": 357872770
      },
      "scriptsig": "",
      "scriptsig_asm": "",
      "witness": [
        "304402201bc50ec190d0794fb4269a316544e23c8c74a63864744e1f02606dda1c96c6ff022021cc96ddbe874e50383dd62b98a55fa03ebbe52dde8254c4f63362a8bfb9962101",
        "03b7766425d18b4c55c706a8a23f5a56e835a7274d8ef02d169278624e1212a636"
      ],
      "is_coinbase": false,
      "sequence": 4294967293
    }
  ],
  "vout": [
    {
      "scriptpubkey": "001416389ec6261dd81d73867cc19b31e9bd61ab0a32",
      "scriptpubkey_asm": "OP_0 OP_PUSHBYTES_20 16389ec6261dd81d73867cc19b31e9bd61ab0a32",
      "scriptpubkey_type": "v0_p2wpkh",
      "scriptpubkey_address": "bc1qzcufa33xrhvp6uux0nqekv0fh4s6kz3j2lf89v",
      "value": 26592
    },
    {
      "scriptpubkey": "001416389ec6261dd81d73867cc19b31e9bd61ab0a32",
      "scriptpubkey_asm": "OP_0 OP_PUSHBYTES_20 16389ec6261dd81d73867cc19b31e9bd61ab0a32",
      "scriptpubkey_type": "v0_p2wpkh",
      "scriptpubkey_address": "bc1qzcufa33xrhvp6uux0nqekv0fh4s6kz3j2lf89v",
      "value": 54674
    },
    {
      "scriptpubkey": "001400f7fea741628458f1a1fd5aa902dc32eb5308ad",
      "scriptpubkey_asm": "OP_0 OP_PUSHBYTES_20 00f7fea741628458f1a1fd5aa902dc32eb5308ad",
      "scriptpubkey_type": "v0_p2wpkh",
      "scriptpubkey_address": "bc1qqrmlaf6pv2z93udpl4d2jqkuxt44xz9d5cpqkk",
      "value": 66206
    },
    {
      "scriptpubkey": "0014bfdc16b2d0bfa164bef97ae27aa72a07c3892ddc",
      "scriptpubkey_asm": "OP_0 OP_PUSHBYTES_20 bfdc16b2d0bfa164bef97ae27aa72a07c3892ddc",
      "scriptpubkey_type": "v0_p2wpkh",
      "scriptpubkey_address": "bc1qhlwpdvksh7skf0he0t384fe2qlpcjtwux76ydz",
      "value": 345761
    },
    {
      "scriptpubkey": "0014844e4a6cc2c3b1967b7f10e8a284fa886fec7b62",
      "scriptpubkey_asm": "OP_0 OP_PUSHBYTES_20 844e4a6cc2c3b1967b7f10e8a284fa886fec7b62",
      "scriptpubkey_type": "v0_p2wpkh",
      "scriptpubkey_address": "bc1qs38y5mxzcwcev7mlzr529p863ph7c7mzmxwccr",
      "value": 357376729
    }
  ],
  "size": 315,
  "weight": 933,
  "fee": 2808,
  "status": {
    "confirmed": true,
    "block_height": 834460,
    "block_hash": "00000000000000000000484a79b643b2524bbce82e5d8a442013fa5b8905ed98",
    "block_time": 1710307468
  },
  "hex": "020000000001014d99c736dffbef15c25e3bc832faecca7ac3e73f80a47e3d2af4bd2cc2542d880700000000fdffffff05e06700000000000016001416389ec6261dd81d73867cc19b31e9bd61ab0a3292d500000000000016001416389ec6261dd81d73867cc19b31e9bd61ab0a329e0201000000000016001400f7fea741628458f1a1fd5aa902dc32eb5308ada146050000000000160014bfdc16b2d0bfa164bef97ae27aa72a07c3892ddcd9224d1500000000160014844e4a6cc2c3b1967b7f10e8a284fa886fec7b620247304402201bc50ec190d0794fb4269a316544e23c8c74a63864744e1f02606dda1c96c6ff022021cc96ddbe874e50383dd62b98a55fa03ebbe52dde8254c4f63362a8bfb99621012103b7766425d18b4c55c706a8a23f5a56e835a7274d8ef02d169278624e1212a63637bb0c00"
}