{
  "txid": "1d523aefb412d6c1923c4520cf514dd4187bccf78e2b10bcc9432456be782c51",
  "version": 1,
  "locktime": 0,
  "vin": [
    {
      "txid": "30848a4d556d513b19459c96244b26d947fc9e09d25c3719a3e40c2f22213aaa",
      "vout": 1,
      "prevout": {
        "scriptpubkey": "76a91477d89ec0c399ea69f72a599ba1103b71ad252dea88ac",
        "scriptpubkey_asm": "OP_DUP OP_HASH160 OP_PUSHBYTES_20 77d89ec0c399ea69f72a599ba1103b71ad252dea OP_EQUALVERIFY OP_CHECKSIG",
        "scriptpubkey_type": "p2pkh",
        "scriptpubkey_address": "1Bvgurn6qrF5UPXx718UxdFjXvkVy8NcJ9",
        "value": 429706
      },
      "scriptsig": "47304402207b30adbaf07247233fbea52444661f45c96bec8462c4b653d609d3a225f7901d022035ddb7adc806241fe1b6ed7395f2552c5a344d2f418c5333cb0ff8d621d81fbd01210380cf04ee6ec2e99c7c9640aa5544551ce21a91a129e7a2620f46b11d1187b1c0",
      "scriptsig_asm": "OP_PUSHBYTES_71 304402207b30adbaf07247233fbea52444661f45c96bec8462c4b653d609d3a225f7901d022035ddb7adc806241fe1b6ed7395f2552c5a344d2f418c5333cb0ff8d621d81fbd01 OP_PUSHBYTES_33 0380cf04ee6ec2e99c7c9640aa5544551ce21a91a129e7a2620f46b11d1187b1c0",
      "is_coinbase": false,
      "sequence": 4294967295
    }
  ],
  "vout": [
    {
      "scriptpubkey": "a9143c7c5beaad26e9061f10549e7af7e448a10c6d5a87",
      "scriptpubkey_asm": "OP_HASH160 OP_PUSHBYTES_20 3c7c5beaad26e9061f10549e7af7e448a10c6d5a OP_EQUAL",
      "scriptpubkey_type": "p2sh",
      "scriptpubkey_address": "37CqSfvHE7cd24d6Eys2fyatarn12rzCxk",
      "value": 40865
    },
    {
      "scriptpubkey": "76a91483a7e1f18e8815358313fd3909529ed45ea8b50288ac",
      "scriptpubkey_asm": "OP_DUP OP_HASH160 OP_PUSHBYTES_20 83a7e1f18e8815358313fd3909529ed45ea8b502 OP_EQUALVERIFY OP_CHECKSIG",
      "scriptpubkey_type": "p2pkh",
      "scriptpubkey_address": "1D18dpNeitkSbBi4YJEhZohYCW7Jg3N5vX",
      "value": 386377
    }
  ],
  "size": 223,
  "weight": 892,
  "fee": 2464,
  "status": {
    "confirmed": true,
    "block_height": 834638,
    "block_hash": "000000000000000000025f742c626208ac87e0b7d15054abb4a19ca2d735a54e",
    "block_time": 1710405325
  },
  "hex": "0100000001aa3a21222f0ce4a319375cd2099efc47d9264b24969c45193b516d554d8a8430010000006a47304402207b30adbaf07247233fbea52444661f45c96bec8462c4b653d609d3a225f7901d022035ddb7adc806241fe1b6ed7395f2552c5a344d2f418c5333cb0ff8d621d81fbd01210380cf04ee6ec2e99c7c9640aa5544551ce21a91a129e7a2620f46b11d1187b1c0ffffffff02a19f00000000000017a9143c7c5beaad26e9061f10549e7af7e448a10c6d5a8749e50500000000001976a91483a7e1f18e8815358313fd3909529ed45ea8b50288ac00000000"
}