{
  "txid": "1d5415a646692c3b55fd9ddcf858dd0802349ceb1d00908c3617bb8bdc0e857d",
  "version": 2,
  "locktime": 834637,
  "vin": [
    {
      "txid": "0b5f4d98d4eb93a94acd59e4e54d6d47b4539e566711fe27edb00828636e575d",
      "vout": 0,
      "prevout": {
        "scriptpubkey": "76a91410e384b3a6dce55890b89a5040b439291af101ab88ac",
        "scriptpubkey_asm": "OP_DUP OP_HASH160 OP_PUSHBYTES_20 10e384b3a6dce55890b89a5040b439291af101ab OP_EQUALVERIFY OP_CHECKSIG",
        "scriptpubkey_type": "p2pkh",
        "scriptpubkey_address": "12YJNKhw36DrfWMoTz1rE8HjxKrn2QTE6u",
        "value": 356354
      },
      "scriptsig": "473044022000b87017da3b719c8a5a5889cfd25c99151ca33a637ab29543edf4a4b8de0b52022039ef8a3e4b2fc663fad483bb183426465023404f4698085469037cfc2ea9794b012102e44fbe411631b96a8af2629049be94445b688e582462b21f87552efa21c26af2",
      "scriptsig_asm": "OP_PUSHBYTES_71 3044022000b87017da3b719c8a5a5889cfd25c99151ca33a637ab29543edf4a4b8de0b52022039ef8a3e4b2fc663fad483bb183426465023404f4698085469037cfc2ea9794b01 OP_PUSHBYTES_33 02e44fbe411631b96a8af2629049be94445b688e582462b21f87552efa21c26af2",
      "is_coinbase": false,
      "sequence": 4294967293
    },
    {
      "txid": "24f3b89b49480ea2cdafafc7e00a6ed0149dc0dddcc48e74f824d3b49de8a7a5",
      "vout": 0,
      "prevout": {
        "scriptpubkey": "76a9148080b0d1624544bc489c9fed228fa54a02482f5d88ac",
        "scriptpubkey_asm": "OP_DUP OP_HASH160 OP_PUSHBYTES_20 8080b0d1624544bc489c9fed228fa54a02482f5d OP_EQUALVERIFY OP_CHECKSIG",
        "scriptpubkey_type": "p2pkh",
        "scriptpubkey_address": "1CiTf99m4YBorgXLcdRpeqocYM3ML5emSW",
        "value": 20409
      },
      "scriptsig": "47304402205f8d7f20344e19959704bb360a4dacff87e51737183cf4fc6610fdff1981305c0220189ed172f350911f38e0568d94c717bc2c49367d478df02c6fd8c062456c581601210247098a7c73faee9a63ebe95477da2f05e6f887c5cf79133ab39f43ec451733c2",
      "scriptsig_asm": "OP_PUSHBYTES_71 304402205f8d7f20344e19959704bb360a4dacff87e51737183cf4fc6610fdff1981305c0220189ed172f350911f38e0568d94c717bc2c49367d478df02c6fd8c062456c581601 OP_PUSHBYTES_33 0247098a7c73faee9a63ebe95477da2f05e6f887c5cf79133ab39f43ec451733c2",
      "is_coinbase": false,
      "sequence": 4294967293
    },
    {
      "txid": "3856d395779fb5eb7c8c11067cc5a80bdc879be476d884fd37538e2d01d63060",
      "vout": 0,
      "prevout": {
        "scriptpubkey": "76a9147da48557aad7a3cd3e470bb4f9d242af4673767488ac",
        "scriptpubkey_asm": "OP_DUP OP_HASH160 OP_PUSHBYTES_20 7da48557aad7a3cd3e470bb4f9d242af46737674 OP_EQUALVERIFY OP_CHECKSIG",
        "scriptpubkey_type": "p2pkh",
        "scriptpubkey_address": "1CTLZ6AzeobkqVccaPvigA3DsPssjiNzPt",
        "value": 206771
      },
      "scriptsig": "4730440220776d568abc3c22bb9650a15a8d5961c65a763878311b8b51efbd7e76a09c21a202200ab49886db9f31db37597cec77d1ee421510e5b804f27befc670252108e37cb70121020fdf3c33f95eaafd6cc16826c7117bd0633d0ac0073f8782734259b0dba492a9",
      "scriptsig_asm": "OP_PUSHBYTES_71 30440220776d568abc3c22bb9650a15a8d5961c65a763878311b8b51efbd7e76a09c21a202200ab49886db9f31db37597cec77d1ee421510e5b804f27befc670252108e37cb701 OP_PUSHBYTES_33 020fdf3c33f95eaafd6cc16826c7117bd0633d0ac0073f8782734259b0dba492a9",
      "is_coinbase": false,
      "sequence": 4294967293
    },
    {
      "txid": "dccbfcb98da8bca72eaf33de4dcb120efca793cffba63927adf8e76fdb7ee7ed",
      "vout": 0,
      "prevout": {
        "scriptpubkey": "76a9142b3bf8257a0d2b56b1c8ae84cec1e2f22629d64e88ac",
        "scriptpubkey_asm": "OP_DUP OP_HASH160 OP_PUSHBYTES_20 2b3bf8257a0d2b56b1c8ae84cec1e2f22629d64e OP_EQUALVERIFY OP_CHECKSIG",
        "scriptpubkey_type": "p2pkh",
        "scriptpubkey_address": "14wbtzSALAKhRX4ChdydPNBUzTzSSFUwr2",
        "value": 250969
      },
      "scriptsig": "47304402205ae3afc3aabc83cd49e8a24cc0cc5a36cbd3c91237fa05f95476be4a53ee83bc0220036e6de4cdf0adf4b3e160b4a99d77c6dd1901dfc14bdac4768dad054772125b012103470b84568aad19a3362dc7c63697d9d715922618f01a9467756e49c47cca6d93",
      "scriptsig_asm": "OP_PUSHBYTES_71 304402205ae3afc3aabc83cd49e8a24cc0cc5a36cbd3c91237fa05f95476be4a53ee83bc0220036e6de4cdf0adf4b3e160b4a99d77c6dd1901dfc14bdac4768dad054772125b01 OP_PUSHBYTES_33 03470b84568aad19a3362dc7c63697d9d715922618f01a9467756e49c47cca6d93",
      "is_coinbase": false,
      "sequence": 4294967293
    }
  ],
  "vout": [
    {
      "scriptpubkey": "76a9146cf2b4a2fe92d7ef62ebbb2284d8baeca2d2926d88ac",
      "scriptpubkey_asm": "OP_DUP OP_HASH160 OP_PUSHBYTES_20 6cf2b4a2fe92d7ef62ebbb2284d8baeca2d2926d OP_EQUALVERIFY OP_CHECKSIG",
      "scriptpubkey_type": "p2pkh",
      "scriptpubkey_address": "1Aw4jCZHB5kEdodPsRYYKfEYTs52v72yYW",
      "value": 816326
    }
  ],
  "size": 632,
  "weight": 2528,
  "fee": 18177,
  "status": {
    "confirmed": true,
    "block_height": 834638,
    "block_hash": "000000000000000000025f742c626208ac87e0b7d15054abb4a19ca2d735a54e",
    "block_time": 1710405325
  },
  "hex": "02000000045d576e632808b0ed27fe1167569e53b4476d4de5e459cd4aa993ebd4984d5f0b000000006a473044022000b87017da3b719c8a5a5889cfd25c99151ca33a637ab29543edf4a4b8de0b52022039ef8a3e4b2fc663fad483bb183426465023404f4698085469037cfc2ea9794b012102e44fbe411631b96a8af2629049be94445b688e582462b21f87552efa21c26af2fdffffffa5a7e89db4d324f8748ec4dcddc09d14d06e0ae0c7afafcda20e48499bb8f324000000006a47304402205f8d7f20344e19959704bb360a4dacff87e51737183cf4fc6610fdff1981305c0220189ed172f350911f38e0568d94c717bc2c49367d478df02c6fd8c062456c581601210247098a7c73faee9a63ebe95477da2f05e6f887c5cf79133ab39f43ec451733c2fdffffff6030d6012d8e5337fd84d876e49b87dc0ba8c57c06118c7cebb59f7795d35638000000006a4730440220776d568abc3c22bb9650a15a8d5961c65a763878311b8b51efbd7e76a09c21a202200ab49886db9f31db37597cec77d1ee421510e5b804f27befc670252108e37cb70121020fdf3c33f95eaafd6cc16826c7117bd0633d0ac0073f8782734259b0dba492a9fdffffffede77edb6fe7f8ad2739a6fbcf93a7fc0e12cb4dde33af2ea7bca88db9fccbdc000000006a47304402205ae3afc3aabc83cd49e8a24cc0cc5a36cbd3c91237fa05f95476be4a53ee83bc0220036e6de4cdf0adf4b3e160b4a99d77c6dd1901dfc14bdac4768dad054772125b012103470b84568aad19a3362dc7c63697d9d715922618f01a9467756e49c47cca6d93fdffffff01c6740c00000000001976a9146cf2b4a2fe92d7ef62ebbb2284d8baeca2d2926d88ac4dbc0c00"
}