{
  "txid": "1d5e6d9f793d1121a075bab2c1b21a6f2e9b668a1047ca7a88d22eea803ebdc3",
  "version": 1,
  "locktime": 0,
  "vin": [
    {
      "txid": "1240261fd1cb715f0d90acd7ac08b45483f5138969d23d6bf4edb3b02e55425c",
      "vout": 1,
      "prevout": {
        "scriptpubkey": "51202cf3cfe57a56e55f9d66b8c9313e1283f273548520643be2519b18235a4815e8",
        "scriptpubkey_asm": "OP_PUSHNUM_1 OP_PUSHBYTES_32 2cf3cfe57a56e55f9d66b8c9313e1283f273548520643be2519b18235a4815e8",
        "scriptpubkey_type": "v1_p2tr",
        "scriptpubkey_address": "bc1p9neulet62mj4l8txhrynz0sjs0e8x4y9ypjrhcj3nvvzxkjgzh5qsrxgx5",
        "value": 144996
      },
      "scriptsig": "",
      "scriptsig_asm": "",
      "witness": [
        "c7a477d2cba7063419902200ca5de9ab60cbabfd7bb2841055c40d7b156a8925322bdb775e4d42ef2b92cb3146832b469df9887180522226ed1a68b344ac11de"
      ],
      "is_coinbase": false,
      "sequence": 0
    }
  ],
  "vout": [
    {
      "scriptpubkey": "5120ad3134a1302e225fce2cbeef52863b4cdc36de05f352cb980eac3c9685fb6018",
      "scriptpubkey_asm": "OP_PUSHNUM_1 OP_PUSHBYTES_32 ad3134a1302e225fce2cbeef52863b4cdc36de05f352cb980eac3c9685fb6018",
      "scriptpubkey_type": "v1_p2tr",
      "scriptpubkey_address": "bc1p45cnfgfs9c39ln3vhmh49p3mfnwrdhs97dfvhxqw4s7fdp0mvqvq9p2lcy",
      "value": 2713
    },
    {
      "scriptpubkey": "51202cf3cfe57a56e55f9d66b8c9313e1283f273548520643be2519b18235a4815e8",
      "scriptpubkey_asm": "OP_PUSHNUM_1 OP_PUSHBYTES_32 2cf3cfe57a56e55f9d66b8c9313e1283f273548520643be2519b18235a4815e8",
      "scriptpubkey_type": "v1_p2tr",
      "scriptpubkey_address": "bc1p9neulet62mj4l8txhrynz0sjs0e8x4y9ypjrhcj3nvvzxkjgzh5qsrxgx5",
      "value": 140435
    }
  ],
  "size": 205,
  "weight": 616,
  "fee": 1848,
  "status": {
    "confirmed": true,
    "block_height": 834460,
    "block_hash": "00000000000000000000484a79b643b2524bbce82e5d8a442013fa5b8905ed98",
    "block_time": 1710307468
  },
  "hex": "010000000001015c42552eb0b3edf46b3dd2698913f58354b408acd7ac900d5f71cbd11f26401201000000000000000002990a000000000000225120ad3134a1302e225fce2cbeef52863b4cdc36de05f352cb980eac3c9685fb601893240200000000002251202cf3cfe57a56e55f9d66b8c9313e1283f273548520643be2519b18235a4815e80140c7a477d2cba7063419902200ca5de9ab60cbabfd7bb2841055c40d7b156a8925322bdb775e4d42ef2b92cb3146832b469df9887180522226ed1a68b344ac11de00000000"
}