{
  "txid": "1d8719a77eeb762272c0dc78e79b49e99701bcd9fcfa0f38ad5c73c33ee46405",
  "version": 2,
  "locktime": 0,
  "vin": [
    {
      "txid": "bf8afa2b5b50c570c7a805eaf97814ebde98f7fce338b862c4ebc31d74d3ae55",
      "vout": 13,
      "prevout": {
        "scriptpubkey": "a9142c0e6867ec03a073598aaf3e1fdf45d102954ba087",
        "scriptpubkey_asm": "OP_HASH160 OP_PUSHBYTES_20 2c0e6867ec03a073598aaf3e1fdf45d102954ba0 OP_EQUAL",
        "scriptpubkey_type": "p2sh",
        "scriptpubkey_address": "35hxv4LGW5akMbcpWTiYZUB9B9YcR7WesZ",
        "value": 600
      },
      "scriptsig": "1600149b4e2665aa7741630bc00a8329c8a52a1ca5befd",
      "scriptsig_asm": "OP_PUSHBYTES_22 00149b4e2665aa7741630bc00a8329c8a52a1ca5befd",
      "witness": [
        "3045022100f8e6b942fe0e4e9301e2d037612308ebe2ba4bd6c36cf045785e5c4bb877e45202207c6b8b7702081a5cdd87b2054d61bf6c77975b52be3bb1a89abf104a054500a301",
        "03490feb3b0b55498e94a43788ebdb66826e13b624efb35472d322b4e05b723066"
      ],
      "is_coinbase": false,
      "sequence": 4294967295,
      "inner_redeemscript_asm": "OP_0 OP_PUSHBYTES_20 9b4e2665aa7741630bc00a8329c8a52a1ca5befd"
    },
    {
      "txid": "1d6d6c58dc6a6aa84e0a6ddd7bb3a68d4df08dcfebe5271445b91a34475d4d09",
      "vout": 5,
      "prevout": {
        "scriptpubkey": "a9142c0e6867ec03a073598aaf3e1fdf45d102954ba087",
        "scriptpubkey_asm": "OP_HASH160 OP_PUSHBYTES_20 2c0e6867ec03a073598aaf3e1fdf45d102954ba0 OP_EQUAL",
        "scriptpubkey_type": "p2sh",
        "scriptpubkey_address": "35hxv4LGW5akMbcpWTiYZUB9B9YcR7WesZ",
        "value": 600
      },
      "scriptsig": "1600149b4e2665aa7741630bc00a8329c8a52a1ca5befd",
      "scriptsig_asm": "OP_PUSHBYTES_22 00149b4e2665aa7741630bc00a8329c8a52a1ca5befd",
      "witness": [
        "3045022100f3c9a24902e82ccc8d05e7928fbcf50aeb9f0454430bb4b45f34f07cd4a7ade5022034578eaf3dd92f8a2f0c8b4bad756b07e49cd52949808165031ede5998517c8501",
        "03490feb3b0b55498e94a43788ebdb66826e13b624efb35472d322b4e05b723066"
      ],
      "is_coinbase": false,
      "sequence": 4294967295,
      "inner_redeemscript_asm": "OP_0 OP_PUSHBYTES_20 9b4e2665aa7741630bc00a8329c8a52a1ca5befd"
    },
    {
      "txid": "bf8afa2b5b50c570c7a805eaf97814ebde98f7fce338b862c4ebc31d74d3ae55",
      "vout": 11,
      "prevout": {
        "scriptpubkey": "a9142c0e6867ec03a073598aaf3e1fdf45d102954ba087",
        "scriptpubkey_asm": "OP_HASH160 OP_PUSHBYTES_20 2c0e6867ec03a073598aaf3e1fdf45d102954ba0 OP_EQUAL",
        "scriptpubkey_type": "p2sh",
        "scriptpubkey_address": "35hxv4LGW5akMbcpWTiYZUB9B9YcR7WesZ",
        "value": 600
      },
      "scriptsig": "1600149b4e2665aa7741630bc00a8329c8a52a1ca5befd",
      "scriptsig_asm": "OP_PUSHBYTES_22 00149b4e2665aa7741630bc00a8329c8a52a1ca5befd",
      "witness": [
        "304402206839289f9b99cc5286705a8da88159b3a031ab16205a46618fbdcd6c5c40111902206949e41baf19932af9e99bccb2577fe8e27c449040e5a44a1eb2453ac377ed3501",
        "03490feb3b0b55498e94a43788ebdb66826e13b624efb35472d322b4e05b723066"
      ],
      "is_coinbase": false,
      "sequence": 4294967295,
      "inner_redeemscript_asm": "OP_0 OP_PUSHBYTES_20 9b4e2665aa7741630bc00a8329c8a52a1ca5befd"
    },
    {
      "txid": "bf8afa2b5b50c570c7a805eaf97814ebde98f7fce338b862c4ebc31d74d3ae55",
      "vout": 12,
      "prevout": {
        "scriptpubkey": "a9142c0e6867ec03a073598aaf3e1fdf45d102954ba087",
        "scriptpubkey_asm": "OP_HASH160 OP_PUSHBYTES_20 2c0e6867ec03a073598aaf3e1fdf45d102954ba0 OP_EQUAL",
        "scriptpubkey_type": "p2sh",
        "scriptpubkey_address": "35hxv4LGW5akMbcpWTiYZUB9B9YcR7WesZ",
        "value": 600
      },
      "scriptsig": "1600149b4e2665aa7741630bc00a8329c8a52a1ca5befd",
      "scriptsig_asm": "OP_PUSHBYTES_22 00149b4e2665aa7741630bc00a8329c8a52a1ca5befd",
      "witness": [
        "3045022100ce78e5f09e2a76efe9b6c9325f0c40562e4a9c92522b2cbfbd414963d28b9ccc022039d0b6c348e5ad3ce407fa87a3f87a8e2591f314629a0e0fd19d5be4610936ca01",
        "03490feb3b0b55498e94a43788ebdb66826e13b624efb35472d322b4e05b723066"
      ],
      "is_coinbase": false,
      "sequence": 4294967295,
      "inner_redeemscript_asm": "OP_0 OP_PUSHBYTES_20 9b4e2665aa7741630bc00a8329c8a52a1ca5befd"
    },
    {
      "txid": "60959ea4a2026bbb3969a1e4fb54c4cbe3af246930087d363969d58702342eee",
      "vout": 4,
      "prevout": {
        "scriptpubkey": "a9142c0e6867ec03a073598aaf3e1fdf45d102954ba087",
        "scriptpubkey_asm": "OP_HASH160 OP_PUSHBYTES_20 2c0e6867ec03a073598aaf3e1fdf45d102954ba0 OP_EQUAL",
        "scriptpubkey_type": "p2sh",
        "scriptpubkey_address": "35hxv4LGW5akMbcpWTiYZUB9B9YcR7WesZ",
        "value": 600
      },
      "scriptsig": "1600149b4e2665aa7741630bc00a8329c8a52a1ca5befd",
      "scriptsig_asm": "OP_PUSHBYTES_22 00149b4e2665aa7741630bc00a8329c8a52a1ca5befd",
      "witness": [
        "3045022100aa9988833f0a4764e207f3354cd483d5b38aad0d5a39885e421904b8232184fa022025563b8bb78510da726e143cec77ca6ec9bb0fe6cbdb9f6fd7242a5e1c6cceb001",
        "03490feb3b0b55498e94a43788ebdb66826e13b624efb35472d322b4e05b723066"
      ],
      "is_coinbase": false,
      "sequence": 4294967295,
      "inner_redeemscript_asm": "OP_0 OP_PUSHBYTES_20 9b4e2665aa7741630bc00a8329c8a52a1ca5befd"
    },
    {
      "txid": "bf8afa2b5b50c570c7a805eaf97814ebde98f7fce338b862c4ebc31d74d3ae55",
      "vout": 14,
      "prevout": {
        "scriptpubkey": "a9142c0e6867ec03a073598aaf3e1fdf45d102954ba087",
        "scriptpubkey_asm": "OP_HASH160 OP_PUSHBYTES_20 2c0e6867ec03a073598aaf3e1fdf45d102954ba0 OP_EQUAL",
        "scriptpubkey_type": "p2sh",
        "scriptpubkey_address": "35hxv4LGW5akMbcpWTiYZUB9B9YcR7WesZ",
        "value": 600
      },
      "scriptsig": "1600149b4e2665aa7741630bc00a8329c8a52a1ca5befd",
      "scriptsig_asm": "OP_PUSHBYTES_22 00149b4e2665aa7741630bc00a8329c8a52a1ca5befd",
      "witness": [
        "30440220323e2f85fc830150083ebcd8f485de1f0f09b163f8d6b95e7dca2155e81b653002206ce1f92a2ff47c9f7d7cdf52b8983653b5480dae8faf54b0aa4718d301fccb1501",
        "03490feb3b0b55498e94a43788ebdb66826e13b624efb35472d322b4e05b723066"
      ],
      "is_coinbase": false,
      "sequence": 4294967295,
      "inner_redeemscript_asm": "OP_0 OP_PUSHBYTES_20 9b4e2665aa7741630bc00a8329c8a52a1ca5befd"
    },
    {
      "txid": "bf8afa2b5b50c570c7a805eaf97814ebde98f7fce338b862c4ebc31d74d3ae55",
      "vout": 10,
      "prevout": {
        "scriptpubkey": "a9142c0e6867ec03a073598aaf3e1fdf45d102954ba087",
        "scriptpubkey_asm": "OP_HASH160 OP_PUSHBYTES_20 2c0e6867ec03a073598aaf3e1fdf45d102954ba0 OP_EQUAL",
        "scriptpubkey_type": "p2sh",
        "scriptpubkey_address": "35hxv4LGW5akMbcpWTiYZUB9B9YcR7WesZ",
        "value": 600
      },
      "scriptsig": "1600149b4e2665aa7741630bc00a8329c8a52a1ca5befd",
      "scriptsig_asm": "OP_PUSHBYTES_22 00149b4e2665aa7741630bc00a8329c8a52a1ca5befd",
      "witness": [
        "30450221008f163407d94ac06d55e10005144b91b252cb79abefb11fc0839abd47c5421f430220705ac413997822d4fd761926d45cbc635c906af2e1e06752374efe324ee64aa101",
        "03490feb3b0b55498e94a43788ebdb66826e13b624efb35472d322b4e05b723066"
      ],
      "is_coinbase": false,
      "sequence": 4294967295,
      "inner_redeemscript_asm": "OP_0 OP_PUSHBYTES_20 9b4e2665aa7741630bc00a8329c8a52a1ca5befd"
    },
    {
      "txid": "9ee5c491852007aea1797e504791de76cc38c476119b56b6579cf79402db0369",
      "vout": 0,
      "prevout": {
        "scriptpubkey": "a9142c0e6867ec03a073598aaf3e1fdf45d102954ba087",
        "scriptpubkey_asm": "OP_HASH160 OP_PUSHBYTES_20 2c0e6867ec03a073598aaf3e1fdf45d102954ba0 OP_EQUAL",
        "scriptpubkey_type": "p2sh",
        "scriptpubkey_address": "35hxv4LGW5akMbcpWTiYZUB9B9YcR7WesZ",
        "value": 1200
      },
      "scriptsig": "1600149b4e2665aa7741630bc00a8329c8a52a1ca5befd",
      "scriptsig_asm": "OP_PUSHBYTES_22 00149b4e2665aa7741630bc00a8329c8a52a1ca5befd",
      "witness": [
        "304402206a20065f6f93250169dc1d8962cf72b48e39f9806f68c864b805226073c4c77602204af4aecc7211c425134d6e331b279caa9ddbe302ae36258334d10b98790bd67801",
        "03490feb3b0b55498e94a43788ebdb66826e13b624efb35472d322b4e05b723066"
      ],
      "is_coinbase": false,
      "sequence": 4294967295,
      "inner_redeemscript_asm": "OP_0 OP_PUSHBYTES_20 9b4e2665aa7741630bc00a8329c8a52a1ca5befd"
    },
    {
      "txid": "1d6d6c58dc6a6aa84e0a6ddd7bb3a68d4df08dcfebe5271445b91a34475d4d09",
      "vout": 0,
      "prevout": {
        "scriptpubkey": "a9142c0e6867ec03a073598aaf3e1fdf45d102954ba087",
        "scriptpubkey_asm": "OP_HASH160 OP_PUSHBYTES_20 2c0e6867ec03a073598aaf3e1fdf45d102954ba0 OP_EQUAL",
        "scriptpubkey_type": "p2sh",
        "scriptpubkey_address": "35hxv4LGW5akMbcpWTiYZUB9B9YcR7WesZ",
        "value": 1200
      },
      "scriptsig": "1600149b4e2665aa7741630bc00a8329c8a52a1ca5befd",
      "scriptsig_asm": "OP_PUSHBYTES_22 00149b4e2665aa7741630bc00a8329c8a52a1ca5befd",
      "witness": [
        "304402203bf88f3fcfe5c7ad356e5d6b8e5682f8f9b58fa20d3c6a87927d8ba1e6972c3a022064710b3532df515b4773496f73142232d78abbeadcfbb009de2b4a19e408e43401",
        "03490feb3b0b55498e94a43788ebdb66826e13b624efb35472d322b4e05b723066"
      ],
      "is_coinbase": false,
      "sequence": 4294967295,
      "inner_redeemscript_asm": "OP_0 OP_PUSHBYTES_20 9b4e2665aa7741630bc00a8329c8a52a1ca5befd"
    },
    {
      "txid": "9206924bc36337da5cf97f1f07854d2a41823277fce37f0a1d10531fca98df7d",
      "vout": 0,
      "prevout": {
        "scriptpubkey": "5120efb637c5f8cfe1f257c6a89d3b979e407baa604ae77884fce1aea020ae12de19",
        "scriptpubkey_asm": "OP_PUSHNUM_1 OP_PUSHBYTES_32 efb637c5f8cfe1f257c6a89d3b979e407baa604ae77884fce1aea020ae12de19",
        "scriptpubkey_type": "v1_p2tr",
        "scriptpubkey_address": "bc1pa7mr030celsly47x4zwnh9u7gpa65cz2uaugfl8p46szptsjmcvs5n4gva",
        "value": 546
      },
      "scriptsig": "",
      "scriptsig_asm": "",
      "witness": [
        "c6c194ad4ad65439d123daf8553ced84820c5cdb3c8f69a55a4a74166dd79a8ae8737c9575d1fa6b205dc20f0892640c5157b8ed6fff0d563817ae36eddb6b8583"
      ],
      "is_coinbase": false,
      "sequence": 4294967295
    },
    {
      "txid": "199ebe9e7e9617d62a6317de113cbdadefe433c30dc7e6d938b3d83b6f66a343",
      "vout": 0,
      "prevout": {
        "scriptpubkey": "5120fc43f9f4f0c43f2b92a01890f25e33ed1a300582da12a9c355cb4f31f5b775c4",
        "scriptpubkey_asm": "OP_PUSHNUM_1 OP_PUSHBYTES_32 fc43f9f4f0c43f2b92a01890f25e33ed1a300582da12a9c355cb4f31f5b775c4",
        "scriptpubkey_type": "v1_p2tr",
        "scriptpubkey_address": "bc1pl3plna8scsljhy4qrzg0yh3na5drqpvzmgf2ns64ed8nradhwhzq664uft",
        "value": 546
      },
      "scriptsig": "",
      "scriptsig_asm": "",
      "witness": [
        "3883e85137029d1edc9639f55a57c93b68e10e45c3727036255241ed30ea9af171b74e4e2e1c4aec08128d3129ca3063683d0b1be4761dd0088d5dd332c2022c83"
      ],
      "is_coinbase": false,
      "sequence": 4294967295
    },
    {
      "txid": "590efe24f5af13edf3779de82d4997fb03e0310b229c42e779a813465a98b7d5",
      "vout": 0,
      "prevout": {
        "scriptpubkey": "51209b4811ac53d4c2ef84266e2c8e86cd3dd57bda833d02a8d2701a41712c2b6172",
        "scriptpubkey_asm": "OP_PUSHNUM_1 OP_PUSHBYTES_32 9b4811ac53d4c2ef84266e2c8e86cd3dd57bda833d02a8d2701a41712c2b6172",
        "scriptpubkey_type": "v1_p2tr",
        "scriptpubkey_address": "bc1pndyprtzn6npwlppxdckgapkd8h2hhk5r85p235nsrfqhztptv9eqxc0ke0",
        "value": 546
      },
      "scriptsig": "",
      "scriptsig_asm": "",
      "witness": [
        "47227c8166f99c653229f7d76e3f363eac79052b2bbe8d49ee03043fc2b5dad5f873be4d2b23eba76e3f4851cd8dd50adc058567a0d1440729fccfd92bc3b6b283"
      ],
      "is_coinbase": false,
      "sequence": 4294967295
    },
    {
      "txid": "e0ffb5274286977c588669a4d7ab6a0b7519519eada57e191de1adc2d9a99f65",
      "vout": 0,
      "prevout": {
        "scriptpubkey": "51209eb59fd4d8927df02d30a471aa310c3466dcc347e96cc0675d1f26d669a2112c",
        "scriptpubkey_asm": "OP_PUSHNUM_1 OP_PUSHBYTES_32 9eb59fd4d8927df02d30a471aa310c3466dcc347e96cc0675d1f26d669a2112c",
        "scriptpubkey_type": "v1_p2tr",
        "scriptpubkey_address": "bc1pn66el4xcjf7lqtfs53c65vgvx3ndes68a9kvqe6arundv6dzzykqh9rgtp",
        "value": 546
      },
      "scriptsig": "",
      "scriptsig_asm": "",
      "witness": [
        "a25a69562c6a1d44e89e67d76e29200e15cc5da3483805cc85f8d4f9a933f9aaf70d80a816267f880f1eb287a8fc8c378b1660ec66a48490c17f0c58cf94c47c83"
      ],
      "is_coinbase": false,
      "sequence": 4294967295
    },
    {
      "txid": "fbc4bd50890e638fc5d0ec546de5cf6b8ddc589fe87f8a9fe3c1a28e9fd4439b",
      "vout": 0,
      "prevout": {
        "scriptpubkey": "51208e03784e6bd200a84a049ba21a36b7bee0911e128998dc24da5ca3745cdc830c",
        "scriptpubkey_asm": "OP_PUSHNUM_1 OP_PUSHBYTES_32 8e03784e6bd200a84a049ba21a36b7bee0911e128998dc24da5ca3745cdc830c",
        "scriptpubkey_type": "v1_p2tr",
        "scriptpubkey_address": "bc1p3cphsnnt6gq2sjsynw3p5d4hhmsfz8sj3xvdcfx6tj3hghxusvxqe42cmn",
        "value": 546
      },
      "scriptsig": "",
      "scriptsig_asm": "",
      "witness": [
        "130ca7ee7e19142cb98d441acc65e4055303d5d9ae818bb35be36e413812566e98d4510c64a9fd29517437a7b1a2e16ba02e98cb6cfa4da17923c9770be10c5583"
      ],
      "is_coinbase": false,
      "sequence": 4294967295
    },
    {
      "txid": "665048ad79b7142b80c8a43c6d4e4a409217b28506f6d3b6b868c5638bb7f8b4",
      "vout": 0,
      "prevout": {
        "scriptpubkey": "512058742b7276edf721bc4110fad753fc47c6bf40a3c68df45d6c586b3a4b0249f8",
        "scriptpubkey_asm": "OP_PUSHNUM_1 OP_PUSHBYTES_32 58742b7276edf721bc4110fad753fc47c6bf40a3c68df45d6c586b3a4b0249f8",
        "scriptpubkey_type": "v1_p2tr",
        "scriptpubkey_address": "bc1ptp6zkunkahmjr0zpzradw5luglrt7s9rc6xlghtvtp4n5jczf8uq4qwqhg",
        "value": 546
      },
      "scriptsig": "",
      "scriptsig_asm": "",
      "witness": [
        "7aaa23d41bb77932820523a7dfd993c608d2b333509c1bc2bfeeffe6a9f699df9ddee71a3220279fa23e8b9a62cf44464ad22328c85956b7710c38da6e6657d483"
      ],
      "is_coinbase": false,
      "sequence": 4294967295
    },
    {
      "txid": "9d0db5dae53f2ee9a902eaf89464b90d6c9db92d4c084833b385ff3d332eefad",
      "vout": 0,
      "prevout": {
        "scriptpubkey": "5120aa8ed7faf76c2180bf56e7d96a32a772001e6e8b539dfedfce6091d18ebc4e1e",
        "scriptpubkey_asm": "OP_PUSHNUM_1 OP_PUSHBYTES_32 aa8ed7faf76c2180bf56e7d96a32a772001e6e8b539dfedfce6091d18ebc4e1e",
        "scriptpubkey_type": "v1_p2tr",
        "scriptpubkey_address": "bc1p428d07hhdsscp06kulvk5v48wgqpum5t2wwlah7wvzgarr4ufc0qmsng8e",
        "value": 546
      },
      "scriptsig": "",
      "scriptsig_asm": "",
      "witness": [
        "892e106b42c850d288a829df933b4dc0a25d543e4e4f06945404883a458c0cee75c451d6987bc71cf4a0b8d7c2d8b0c075da220992f642dca1ec533362cba12383"
      ],
      "is_coinbase": false,
      "sequence": 4294967295
    },
    {
      "txid": "d423602374ba22139b8908e765655750764c8f0cf97debc218f9b9bd4be87ff9",
      "vout": 0,
      "prevout": {
        "scriptpubkey": "5120aefeb10a060416a9011bc0b6630e50bb1cbf4ba0f9cb13d08e3fd9e9f0c7a218",
        "scriptpubkey_asm": "OP_PUSHNUM_1 OP_PUSHBYTES_32 aefeb10a060416a9011bc0b6630e50bb1cbf4ba0f9cb13d08e3fd9e9f0c7a218",
        "scriptpubkey_type": "v1_p2tr",
        "scriptpubkey_address": "bc1p4mltzzsxqst2jqgmczmxxrjshvwt7jaql89385yw8lv7nux85gvqrmvq78",
        "value": 546
      },
      "scriptsig": "",
      "scriptsig_asm": "",
      "witness": [
        "e199f031857487e26e44c255ab492577cfb78e1a9f58f3ca17ac612e4392ab8f0c62942f2b207288d685a85dd0495ba02fb6e27f7624081f6723d94dab11b7a183"
      ],
      "is_coinbase": false,
      "sequence": 4294967295
    },
    {
      "txid": "56314acb1e0904faf00f84d569515bfc51659efa14e3ba0468fb6f631076390f",
      "vout": 2,
      "prevout": {
        "scriptpubkey": "a9142c0e6867ec03a073598aaf3e1fdf45d102954ba087",
        "scriptpubkey_asm": "OP_HASH160 OP_PUSHBYTES_20 2c0e6867ec03a073598aaf3e1fdf45d102954ba0 OP_EQUAL",
        "scriptpubkey_type": "p2sh",
        "scriptpubkey_address": "35hxv4LGW5akMbcpWTiYZUB9B9YcR7WesZ",
        "value": 5373546
      },
      "scriptsig": "1600149b4e2665aa7741630bc00a8329c8a52a1ca5befd",
      "scriptsig_asm": "OP_PUSHBYTES_22 00149b4e2665aa7741630bc00a8329c8a52a1ca5befd",
      "witness": [
        "3044022053f8b47a5255bbf578fd6caa59bb907c1b15e4e5ae4c93c6e319b4ad831852300220551bdd208c18e3ecf9c6b3950248b46d74eebc05b1f22e863e9d86c27262595a01",
        "03490feb3b0b55498e94a43788ebdb66826e13b624efb35472d322b4e05b723066"
      ],
      "is_coinbase": false,
      "sequence": 4294967295,
      "inner_redeemscript_asm": "OP_0 OP_PUSHBYTES_20 9b4e2665aa7741630bc00a8329c8a52a1ca5befd"
    },
    {
      "txid": "4f50c4d319cac2cc516dd84a5733ea0542923de1ff5da9b155f7c247cc2d6c8e",
      "vout": 2,
      "prevout": {
        "scriptpubkey": "a9142c0e6867ec03a073598aaf3e1fdf45d102954ba087",
        "scriptpubkey_asm": "OP_HASH160 OP_PUSHBYTES_20 2c0e6867ec03a073598aaf3e1fdf45d102954ba0 OP_EQUAL",
        "scriptpubkey_type": "p2sh",
        "scriptpubkey_address": "35hxv4LGW5akMbcpWTiYZUB9B9YcR7WesZ",
        "value": 5174546
      },
      "scriptsig": "1600149b4e2665aa7741630bc00a8329c8a52a1ca5befd",
      "scriptsig_asm": "OP_PUSHBYTES_22 00149b4e2665aa7741630bc00a8329c8a52a1ca5befd",
      "witness": [
        "3045022100efee94f69bf65d1ead81577e9c61bdb03fa58ac83beb62cf164d9b40bca077ae0220680717eb18e429c68397cfecd3f3abf2b2daafab242017a47840765a7b92ae7c01",
        "03490feb3b0b55498e94a43788ebdb66826e13b624efb35472d322b4e05b723066"
      ],
      "is_coinbase": false,
      "sequence": 4294967295,
      "inner_redeemscript_asm": "OP_0 OP_PUSHBYTES_20 9b4e2665aa7741630bc00a8329c8a52a1ca5befd"
    }
  ],
  "vout": [
    {
      "scriptpubkey": "a9142c0e6867ec03a073598aaf3e1fdf45d102954ba087",
      "scriptpubkey_asm": "OP_HASH160 OP_PUSHBYTES_20 2c0e6867ec03a073598aaf3e1fdf45d102954ba0 OP_EQUAL",
      "scriptpubkey_type": "p2sh",
      "scriptpubkey_address": "35hxv4LGW5akMbcpWTiYZUB9B9YcR7WesZ",
      "value": 6600
    },
    {
      "scriptpubkey": "51200fe6b9176c693d862809a0a0cb1601cc549dc8c33d0542be315a33a183728ffc",
      "scriptpubkey_asm": "OP_PUSHNUM_1 OP_PUSHBYTES_32 0fe6b9176c693d862809a0a0cb1601cc549dc8c33d0542be315a33a183728ffc",
      "scriptpubkey_type": "v1_p2tr",
      "scriptpubkey_address": "bc1pplntj9mvdy7cv2qf5zsvk9spe32fmjxr85z59033tge6rqmj3l7qs9e84e",
      "value": 546
    },
    {
      "scriptpubkey": "51200fe6b9176c693d862809a0a0cb1601cc549dc8c33d0542be315a33a183728ffc",
      "scriptpubkey_asm": "OP_PUSHNUM_1 OP_PUSHBYTES_32 0fe6b9176c693d862809a0a0cb1601cc549dc8c33d0542be315a33a183728ffc",
      "scriptpubkey_type": "v1_p2tr",
      "scriptpubkey_address": "bc1pplntj9mvdy7cv2qf5zsvk9spe32fmjxr85z59033tge6rqmj3l7qs9e84e",
      "value": 546
    },
    {
      "scriptpubkey": "51200fe6b9176c693d862809a0a0cb1601cc549dc8c33d0542be315a33a183728ffc",
      "scriptpubkey_asm": "OP_PUSHNUM_1 OP_PUSHBYTES_32 0fe6b9176c693d862809a0a0cb1601cc549dc8c33d0542be315a33a183728ffc",
      "scriptpubkey_type": "v1_p2tr",
      "scriptpubkey_address": "bc1pplntj9mvdy7cv2qf5zsvk9spe32fmjxr85z59033tge6rqmj3l7qs9e84e",
      "value": 546
    },
    {
      "scriptpubkey": "51200fe6b9176c693d862809a0a0cb1601cc549dc8c33d0542be315a33a183728ffc",
      "scriptpubkey_asm": "OP_PUSHNUM_1 OP_PUSHBYTES_32 0fe6b9176c693d862809a0a0cb1601cc549dc8c33d0542be315a33a183728ffc",
      "scriptpubkey_type": "v1_p2tr",
      "scriptpubkey_address": "bc1pplntj9mvdy7cv2qf5zsvk9spe32fmjxr85z59033tge6rqmj3l7qs9e84e",
      "value": 546
    },
    {
      "scriptpubkey": "51200fe6b9176c693d862809a0a0cb1601cc549dc8c33d0542be315a33a183728ffc",
      "scriptpubkey_asm": "OP_PUSHNUM_1 OP_PUSHBYTES_32 0fe6b9176c693d862809a0a0cb1601cc549dc8c33d0542be315a33a183728ffc",
      "scriptpubkey_type": "v1_p2tr",
      "scriptpubkey_address": "bc1pplntj9mvdy7cv2qf5zsvk9spe32fmjxr85z59033tge6rqmj3l7qs9e84e",
      "value": 546
    },
    {
      "scriptpubkey": "51200fe6b9176c693d862809a0a0cb1601cc549dc8c33d0542be315a33a183728ffc",
      "scriptpubkey_asm": "OP_PUSHNUM_1 OP_PUSHBYTES_32 0fe6b9176c693d862809a0a0cb1601cc549dc8c33d0542be315a33a183728ffc",
      "scriptpubkey_type": "v1_p2tr",
      "scriptpubkey_address": "bc1pplntj9mvdy7cv2qf5zsvk9spe32fmjxr85z59033tge6rqmj3l7qs9e84e",
      "value": 546
    },
    {
      "scriptpubkey": "51200fe6b9176c693d862809a0a0cb1601cc549dc8c33d0542be315a33a183728ffc",
      "scriptpubkey_asm": "OP_PUSHNUM_1 OP_PUSHBYTES_32 0fe6b9176c693d862809a0a0cb1601cc549dc8c33d0542be315a33a183728ffc",
      "scriptpubkey_type": "v1_p2tr",
      "scriptpubkey_address": "bc1pplntj9mvdy7cv2qf5zsvk9spe32fmjxr85z59033tge6rqmj3l7qs9e84e",
      "value": 546
    },
    {
      "scriptpubkey": "51200fe6b9176c693d862809a0a0cb1601cc549dc8c33d0542be315a33a183728ffc",
      "scriptpubkey_asm": "OP_PUSHNUM_1 OP_PUSHBYTES_32 0fe6b9176c693d862809a0a0cb1601cc549dc8c33d0542be315a33a183728ffc",
      "scriptpubkey_type": "v1_p2tr",
      "scriptpubkey_address": "bc1pplntj9mvdy7cv2qf5zsvk9spe32fmjxr85z59033tge6rqmj3l7qs9e84e",
      "value": 546
    },
    {
      "scriptpubkey": "a914c1caf1305404f8f0e64f8fb53b612b1466672bae87",
      "scriptpubkey_asm": "OP_HASH160 OP_PUSHBYTES_20 c1caf1305404f8f0e64f8fb53b612b1466672bae OP_EQUAL",
      "scriptpubkey_type": "p2sh",
      "scriptpubkey_address": "3KMhTEYfrgnNLJ7zjQgBsYZiawugMPhoEG",
      "value": 1043306
    },
    {
      "scriptpubkey": "5120fc43f9f4f0c43f2b92a01890f25e33ed1a300582da12a9c355cb4f31f5b775c4",
      "scriptpubkey_asm": "OP_PUSHNUM_1 OP_PUSHBYTES_32 fc43f9f4f0c43f2b92a01890f25e33ed1a300582da12a9c355cb4f31f5b775c4",
      "scriptpubkey_type": "v1_p2tr",
      "scriptpubkey_address": "bc1pl3plna8scsljhy4qrzg0yh3na5drqpvzmgf2ns64ed8nradhwhzq664uft",
      "value": 1044301
    },
    {
      "scriptpubkey": "a914e45e3df3a702057f3e2ed1771e549f592dc9429d87",
      "scriptpubkey_asm": "OP_HASH160 OP_PUSHBYTES_20 e45e3df3a702057f3e2ed1771e549f592dc9429d OP_EQUAL",
      "scriptpubkey_type": "p2sh",
      "scriptpubkey_address": "3NWWtL6JxwT28XX5LR1kTNZ3Qtkr3q8g5H",
      "value": 1060022
    },
    {
      "scriptpubkey": "51209eb59fd4d8927df02d30a471aa310c3466dcc347e96cc0675d1f26d669a2112c",
      "scriptpubkey_asm": "OP_PUSHNUM_1 OP_PUSHBYTES_32 9eb59fd4d8927df02d30a471aa310c3466dcc347e96cc0675d1f26d669a2112c",
      "scriptpubkey_type": "v1_p2tr",
      "scriptpubkey_address": "bc1pn66el4xcjf7lqtfs53c65vgvx3ndes68a9kvqe6arundv6dzzykqh9rgtp",
      "value": 1060221
    },
    {
      "scriptpubkey": "51208e03784e6bd200a84a049ba21a36b7bee0911e128998dc24da5ca3745cdc830c",
      "scriptpubkey_asm": "OP_PUSHNUM_1 OP_PUSHBYTES_32 8e03784e6bd200a84a049ba21a36b7bee0911e128998dc24da5ca3745cdc830c",
      "scriptpubkey_type": "v1_p2tr",
      "scriptpubkey_address": "bc1p3cphsnnt6gq2sjsynw3p5d4hhmsfz8sj3xvdcfx6tj3hghxusvxqe42cmn",
      "value": 1061879
    },
    {
      "scriptpubkey": "512058742b7276edf721bc4110fad753fc47c6bf40a3c68df45d6c586b3a4b0249f8",
      "scriptpubkey_asm": "OP_PUSHNUM_1 OP_PUSHBYTES_32 58742b7276edf721bc4110fad753fc47c6bf40a3c68df45d6c586b3a4b0249f8",
      "scriptpubkey_type": "v1_p2tr",
      "scriptpubkey_address": "bc1ptp6zkunkahmjr0zpzradw5luglrt7s9rc6xlghtvtp4n5jczf8uq4qwqhg",
      "value": 1072935
    },
    {
      "scriptpubkey": "5120aa8ed7faf76c2180bf56e7d96a32a772001e6e8b539dfedfce6091d18ebc4e1e",
      "scriptpubkey_asm": "OP_PUSHNUM_1 OP_PUSHBYTES_32 aa8ed7faf76c2180bf56e7d96a32a772001e6e8b539dfedfce6091d18ebc4e1e",
      "scriptpubkey_type": "v1_p2tr",
      "scriptpubkey_address": "bc1p428d07hhdsscp06kulvk5v48wgqpum5t2wwlah7wvzgarr4ufc0qmsng8e",
      "value": 1072935
    },
    {
      "scriptpubkey": "a914fe4b16b81b853fb34a13679a9959f2e93e9aea0e87",
      "scriptpubkey_asm": "OP_HASH160 OP_PUSHBYTES_20 fe4b16b81b853fb34a13679a9959f2e93e9aea0e OP_EQUAL",
      "scriptpubkey_type": "p2sh",
      "scriptpubkey_address": "3QsbWXUdCxP75d5FvcwAeBG9U8EdR8kp5y",
      "value": 1072957
    },
    {
      "scriptpubkey": "a914ea6b832a05c6ca578baa3836f3f25553d41068a587",
      "scriptpubkey_asm": "OP_HASH160 OP_PUSHBYTES_20 ea6b832a05c6ca578baa3836f3f25553d41068a5 OP_EQUAL",
      "scriptpubkey_type": "p2sh",
      "scriptpubkey_address": "3P4WqXDbSLRhzo2H6MT6YFbvBKBDPLbVtQ",
      "value": 213169
    },
    {
      "scriptpubkey": "a9142c0e6867ec03a073598aaf3e1fdf45d102954ba087",
      "scriptpubkey_asm": "OP_HASH160 OP_PUSHBYTES_20 2c0e6867ec03a073598aaf3e1fdf45d102954ba0 OP_EQUAL",
      "scriptpubkey_type": "p2sh",
      "scriptpubkey_address": "35hxv4LGW5akMbcpWTiYZUB9B9YcR7WesZ",
      "value": 600
    },
    {
      "scriptpubkey": "a9142c0e6867ec03a073598aaf3e1fdf45d102954ba087",
      "scriptpubkey_asm": "OP_HASH160 OP_PUSHBYTES_20 2c0e6867ec03a073598aaf3e1fdf45d102954ba0 OP_EQUAL",
      "scriptpubkey_type": "p2sh",
      "scriptpubkey_address": "35hxv4LGW5akMbcpWTiYZUB9B9YcR7WesZ",
      "value": 600
    },
    {
      "scriptpubkey": "a9142c0e6867ec03a073598aaf3e1fdf45d102954ba087",
      "scriptpubkey_asm": "OP_HASH160 OP_PUSHBYTES_20 2c0e6867ec03a073598aaf3e1fdf45d102954ba0 OP_EQUAL",
      "scriptpubkey_type": "p2sh",
      "scriptpubkey_address": "35hxv4LGW5akMbcpWTiYZUB9B9YcR7WesZ",
      "value": 600
    },
    {
      "scriptpubkey": "a9142c0e6867ec03a073598aaf3e1fdf45d102954ba087",
      "scriptpubkey_asm": "OP_HASH160 OP_PUSHBYTES_20 2c0e6867ec03a073598aaf3e1fdf45d102954ba0 OP_EQUAL",
      "scriptpubkey_type": "p2sh",
      "scriptpubkey_address": "35hxv4LGW5akMbcpWTiYZUB9B9YcR7WesZ",
      "value": 600
    },
    {
      "scriptpubkey": "a9142c0e6867ec03a073598aaf3e1fdf45d102954ba087",
      "scriptpubkey_asm": "OP_HASH160 OP_PUSHBYTES_20 2c0e6867ec03a073598aaf3e1fdf45d102954ba0 OP_EQUAL",
      "scriptpubkey_type": "p2sh",
      "scriptpubkey_address": "35hxv4LGW5akMbcpWTiYZUB9B9YcR7WesZ",
      "value": 600
    },
    {
      "scriptpubkey": "a9142c0e6867ec03a073598aaf3e1fdf45d102954ba087",
      "scriptpubkey_asm": "OP_HASH160 OP_PUSHBYTES_20 2c0e6867ec03a073598aaf3e1fdf45d102954ba0 OP_EQUAL",
      "scriptpubkey_type": "p2sh",
      "scriptpubkey_address": "35hxv4LGW5akMbcpWTiYZUB9B9YcR7WesZ",
      "value": 600
    },
    {
      "scriptpubkey": "a9142c0e6867ec03a073598aaf3e1fdf45d102954ba087",
      "scriptpubkey_asm": "OP_HASH160 OP_PUSHBYTES_20 2c0e6867ec03a073598aaf3e1fdf45d102954ba0 OP_EQUAL",
      "scriptpubkey_type": "p2sh",
      "scriptpubkey_address": "35hxv4LGW5akMbcpWTiYZUB9B9YcR7WesZ",
      "value": 600
    },
    {
      "scriptpubkey": "a9142c0e6867ec03a073598aaf3e1fdf45d102954ba087",
      "scriptpubkey_asm": "OP_HASH160 OP_PUSHBYTES_20 2c0e6867ec03a073598aaf3e1fdf45d102954ba0 OP_EQUAL",
      "scriptpubkey_type": "p2sh",
      "scriptpubkey_address": "35hxv4LGW5akMbcpWTiYZUB9B9YcR7WesZ",
      "value": 600
    },
    {
      "scriptpubkey": "a9142c0e6867ec03a073598aaf3e1fdf45d102954ba087",
      "scriptpubkey_asm": "OP_HASH160 OP_PUSHBYTES_20 2c0e6867ec03a073598aaf3e1fdf45d102954ba0 OP_EQUAL",
      "scriptpubkey_type": "p2sh",
      "scriptpubkey_address": "35hxv4LGW5akMbcpWTiYZUB9B9YcR7WesZ",
      "value": 600
    },
    {
      "scriptpubkey": "a9142c0e6867ec03a073598aaf3e1fdf45d102954ba087",
      "scriptpubkey_asm": "OP_HASH160 OP_PUSHBYTES_20 2c0e6867ec03a073598aaf3e1fdf45d102954ba0 OP_EQUAL",
      "scriptpubkey_type": "p2sh",
      "scriptpubkey_address": "35hxv4LGW5akMbcpWTiYZUB9B9YcR7WesZ",
      "value": 1798246
    }
  ],
  "size": 3802,
  "weight": 10045,
  "fee": 42721,
  "status": {
    "confirmed": true,
    "block_height": 834638,
    "block_hash": "000000000000000000025f742c626208ac87e0b7d15054abb4a19ca2d735a54e",
    "block_time": 1710405325
  },
  "hex": "0200000000011355aed3741dc3ebc462b838e3fcf798deeb1478f9ea05a8c770c5505b2bfa8abf0d000000171600149b4e2665aa7741630bc00a8329c8a52a1ca5befdffffffff094d5d47341ab9451427e5ebcf8df04d8da6b37bdd6d0a4ea86a6adc586c6d1d05000000171600149b4e2665aa7741630bc00a8329c8a52a1ca5befdffffffff55aed3741dc3ebc462b838e3fcf798deeb1478f9ea05a8c770c5505b2bfa8abf0b000000171600149b4e2665aa7741630bc00a8329c8a52a1ca5befdffffffff55aed3741dc3ebc462b838e3fcf798deeb1478f9ea05a8c770c5505b2bfa8abf0c000000171600149b4e2665aa7741630bc00a8329c8a52a1ca5befdffffffffee2e340287d56939367d08306924afe3cbc454fbe4a16939bb6b02a2a49e956004000000171600149b4e2665aa7741630bc00a8329c8a52a1ca5befdffffffff55aed3741dc3ebc462b838e3fcf798deeb1478f9ea05a8c770c5505b2bfa8abf0e000000171600149b4e2665aa7741630bc00a8329c8a52a1ca5befdffffffff55aed3741dc3ebc462b838e3fcf798deeb1478f9ea05a8c770c5505b2bfa8abf0a000000171600149b4e2665aa7741630bc00a8329c8a52a1ca5befdffffffff6903db0294f79c57b6569b1176c438cc76de9147507e79a1ae07208591c4e59e00000000171600149b4e2665aa7741630bc00a8329c8a52a1ca5befdffffffff094d5d47341ab9451427e5ebcf8df04d8da6b37bdd6d0a4ea86a6adc586c6d1d00000000171600149b4e2665aa7741630bc00a8329c8a52a1ca5befdffffffff7ddf98ca1f53101d0a7fe3fc773282412a4d85071f7ff95cda3763c34b9206920000000000ffffffff43a3666f3bd8b338d9e6c70dc333e4efadbd3c11de17632ad617967e9ebe9e190000000000ffffffffd5b7985a4613a879e7429c220b31e003fb97492de89d77f3ed13aff524fe0e590000000000ffffffff659fa9d9c2ade11d197ea5ad9e5119750b6aabd7a46986587c97864227b5ffe00000000000ffffffff9b43d49f8ea2c1e39f8a7fe89f58dc8d6bcfe56d54ecd0c58f630e8950bdc4fb0000000000ffffffffb4f8b78b63c568b8b6d3f60685b21792404a4e6d3ca4c8802b14b779ad4850660000000000ffffffffadef2e333dff85b33348084c2db99d6c0db96494f8ea02a9e92e3fe5dab50d9d0000000000fffffffff97fe84bbdb9f918c2eb7df90c8f4c7650576565e708899b1322ba74236023d40000000000ffffffff0f397610636ffb6804bae314fa9e6551fc5b5169d5840ff0fa04091ecb4a315602000000171600149b4e2665aa7741630bc00a8329c8a52a1ca5befdffffffff8e6c2dcc47c2f755b1a95dffe13d924205ea33574ad86d51ccc2ca19d3c4504f02000000171600149b4e2665aa7741630bc00a8329c8a52a1ca5befdffffffff1cc81900000000000017a9142c0e6867ec03a073598aaf3e1fdf45d102954ba08722020000000000002251200fe6b9176c693d862809a0a0cb1601cc549dc8c33d0542be315a33a183728ffc22020000000000002251200fe6b9176c693d862809a0a0cb1601cc549dc8c33d0542be315a33a183728ffc22020000000000002251200fe6b9176c693d862809a0a0cb1601cc549dc8c33d0542be315a33a183728ffc22020000000000002251200fe6b9176c693d862809a0a0cb1601cc549dc8c33d0542be315a33a183728ffc22020000000000002251200fe6b9176c693d862809a0a0cb1601cc549dc8c33d0542be315a33a183728ffc22020000000000002251200fe6b9176c693d862809a0a0cb1601cc549dc8c33d0542be315a33a183728ffc22020000000000002251200fe6b9176c693d862809a0a0cb1601cc549dc8c33d0542be315a33a183728ffc22020000000000002251200fe6b9176c693d862809a0a0cb1601cc549dc8c33d0542be315a33a183728ffc6aeb0f000000000017a914c1caf1305404f8f0e64f8fb53b612b1466672bae874def0f0000000000225120fc43f9f4f0c43f2b92a01890f25e33ed1a300582da12a9c355cb4f31f5b775c4b62c10000000000017a914e45e3df3a702057f3e2ed1771e549f592dc9429d877d2d1000000000002251209eb59fd4d8927df02d30a471aa310c3466dcc347e96cc0675d1f26d669a2112cf7331000000000002251208e03784e6bd200a84a049ba21a36b7bee0911e128998dc24da5ca3745cdc830c275f10000000000022512058742b7276edf721bc4110fad753fc47c6bf40a3c68df45d6c586b3a4b0249f8275f100000000000225120aa8ed7faf76c2180bf56e7d96a32a772001e6e8b539dfedfce6091d18ebc4e1e3d5f10000000000017a914fe4b16b81b853fb34a13679a9959f2e93e9aea0e87b14003000000000017a914ea6b832a05c6ca578baa3836f3f25553d41068a587580200000000000017a9142c0e6867ec03a073598aaf3e1fdf45d102954ba087580200000000000017a9142c0e6867ec03a073598aaf3e1fdf45d102954ba087580200000000000017a9142c0e6867ec03a073598aaf3e1fdf45d102954ba087580200000000000017a9142c0e6867ec03a073598aaf3e1fdf45d102954ba087580200000000000017a9142c0e6867ec03a073598aaf3e1fdf45d102954ba087580200000000000017a9142c0e6867ec03a073598aaf3e1fdf45d102954ba087580200000000000017a9142c0e6867ec03a073598aaf3e1fdf45d102954ba087580200000000000017a9142c0e6867ec03a073598aaf3e1fdf45d102954ba087580200000000000017a9142c0e6867ec03a073598aaf3e1fdf45d102954ba08766701b000000000017a9142c0e6867ec03a073598aaf3e1fdf45d102954ba08702483045022100f8e6b942fe0e4e9301e2d037612308ebe2ba4bd6c36cf045785e5c4bb877e45202207c6b8b7702081a5cdd87b2054d61bf6c77975b52be3bb1a89abf104a054500a3012103490feb3b0b55498e94a43788ebdb66826e13b624efb35472d322b4e05b72306602483045022100f3c9a24902e82ccc8d05e7928fbcf50aeb9f0454430bb4b45f34f07cd4a7ade5022034578eaf3dd92f8a2f0c8b4bad756b07e49cd52949808165031ede5998517c85012103490feb3b0b55498e94a43788ebdb66826e13b624efb35472d322b4e05b7230660247304402206839289f9b99cc5286705a8da88159b3a031ab16205a46618fbdcd6c5c40111902206949e41baf19932af9e99bccb2577fe8e27c449040e5a44a1eb2453ac377ed35012103490feb3b0b55498e94a43788ebdb66826e13b624efb35472d322b4e05b72306602483045022100ce78e5f09e2a76efe9b6c9325f0c40562e4a9c92522b2cbfbd414963d28b9ccc022039d0b6c348e5ad3ce407fa87a3f87a8e2591f314629a0e0fd19d5be4610936ca012103490feb3b0b55498e94a43788ebdb66826e13b624efb35472d322b4e05b72306602483045022100aa9988833f0a4764e207f3354cd483d5b38aad0d5a39885e421904b8232184fa022025563b8bb78510da726e143cec77ca6ec9bb0fe6cbdb9f6fd7242a5e1c6cceb0012103490feb3b0b55498e94a43788ebdb66826e13b624efb35472d322b4e05b723066024730440220323e2f85fc830150083ebcd8f485de1f0f09b163f8d6b95e7dca2155e81b653002206ce1f92a2ff47c9f7d7cdf52b8983653b5480dae8faf54b0aa4718d301fccb15012103490feb3b0b55498e94a43788ebdb66826e13b624efb35472d322b4e05b723066024830450221008f163407d94ac06d55e10005144b91b252cb79abefb11fc0839abd47c5421f430220705ac413997822d4fd761926d45cbc635c906af2e1e06752374efe324ee64aa1012103490feb3b0b55498e94a43788ebdb66826e13b624efb35472d322b4e05b7230660247304402206a20065f6f93250169dc1d8962cf72b48e39f9806f68c864b805226073c4c77602204af4aecc7211c425134d6e331b279caa9ddbe302ae36258334d10b98790bd678012103490feb3b0b55498e94a43788ebdb66826e13b624efb35472d322b4e05b7230660247304402203bf88f3fcfe5c7ad356e5d6b8e5682f8f9b58fa20d3c6a87927d8ba1e6972c3a022064710b3532df515b4773496f73142232d78abbeadcfbb009de2b4a19e408e434012103490feb3b0b55498e94a43788ebdb66826e13b624efb35472d322b4e05b7230660141c6c194ad4ad65439d123daf8553ced84820c5cdb3c8f69a55a4a74166dd79a8ae8737c9575d1fa6b205dc20f0892640c5157b8ed6fff0d563817ae36eddb6b858301413883e85137029d1edc9639f55a57c93b68e10e45c3727036255241ed30ea9af171b74e4e2e1c4aec08128d3129ca3063683d0b1be4761dd0088d5dd332c2022c83014147227c8166f99c653229f7d76e3f363eac79052b2bbe8d49ee03043fc2b5dad5f873be4d2b23eba76e3f4851cd8dd50adc058567a0d1440729fccfd92bc3b6b2830141a25a69562c6a1d44e89e67d76e29200e15cc5da3483805cc85f8d4f9a933f9aaf70d80a816267f880f1eb287a8fc8c378b1660ec66a48490c17f0c58cf94c47c830141130ca7ee7e19142cb98d441acc65e4055303d5d9ae818bb35be36e413812566e98d4510c64a9fd29517437a7b1a2e16ba02e98cb6cfa4da17923c9770be10c558301417aaa23d41bb77932820523a7dfd993c608d2b333509c1bc2bfeeffe6a9f699df9ddee71a3220279fa23e8b9a62cf44464ad22328c85956b7710c38da6e6657d4830141892e106b42c850d288a829df933b4dc0a25d543e4e4f06945404883a458c0cee75c451d6987bc71cf4a0b8d7c2d8b0c075da220992f642dca1ec533362cba123830141e199f031857487e26e44c255ab492577cfb78e1a9f58f3ca17ac612e4392ab8f0c62942f2b207288d685a85dd0495ba02fb6e27f7624081f6723d94dab11b7a18302473044022053f8b47a5255bbf578fd6caa59bb907c1b15e4e5ae4c93c6e319b4ad831852300220551bdd208c18e3ecf9c6b3950248b46d74eebc05b1f22e863e9d86c27262595a012103490feb3b0b55498e94a43788ebdb66826e13b624efb35472d322b4e05b72306602483045022100efee94f69bf65d1ead81577e9c61bdb03fa58ac83beb62cf164d9b40bca077ae0220680717eb18e429c68397cfecd3f3abf2b2daafab242017a47840765a7b92ae7c012103490feb3b0b55498e94a43788ebdb66826e13b624efb35472d322b4e05b72306600000000"
}