{
  "txid": "1d9e3caa9bcda611782372d0186a69bc20759f65a10e6566cb79a375bd5343de",
  "version": 1,
  "locktime": 0,
  "vin": [
    {
      "txid": "d0220f64803bf63f9f4f875f3525ee317c07172e772e777314767cc180d4f814",
      "vout": 1,
      "prevout": {
        "scriptpubkey": "76a9140fcca34b7610f5469fbbc7b81fc2ba036f4eca3a88ac",
        "scriptpubkey_asm": "OP_DUP OP_HASH160 OP_PUSHBYTES_20 0fcca34b7610f5469fbbc7b81fc2ba036f4eca3a OP_EQUALVERIFY OP_CHECKSIG",
        "scriptpubkey_type": "p2pkh",
        "scriptpubkey_address": "12SYHNE39G8PfLLGMztXYJbrSs3rDD64zb",
        "value": 232048
      },
      "scriptsig": "47304402205c54f3c72fe3ea2d6cbef249ef91ba9213954747ea9aaa15c20f2945fea646830220088a0edff47c21c50d56e68f6f3b3c0690dac71b6e51bbafe54ecb06149672a80121036e97e71abf1807b0371bf03b808e3646f67d5e943ae9fb13e5e5b68c6b49b050",
      "scriptsig_asm": "OP_PUSHBYTES_71 304402205c54f3c72fe3ea2d6cbef249ef91ba9213954747ea9aaa15c20f2945fea646830220088a0edff47c21c50d56e68f6f3b3c0690dac71b6e51bbafe54ecb06149672a801 OP_PUSHBYTES_33 036e97e71abf1807b0371bf03b808e3646f67d5e943ae9fb13e5e5b68c6b49b050",
      "is_coinbase": false,
      "sequence": 4294967295
    }
  ],
  "vout": [
    {
      "scriptpubkey": "001458a447d7ecaa585c7a5053241da01d0ed58a17b7",
      "scriptpubkey_asm": "OP_0 OP_PUSHBYTES_20 58a447d7ecaa585c7a5053241da01d0ed58a17b7",
      "scriptpubkey_type": "v0_p2wpkh",
      "scriptpubkey_address": "bc1qtzjy04lv4fv9c7js2vjpmgqapm2c59ahyarajf",
      "value": 224800
    },
    {
      "scriptpubkey": "76a914706a48d8297060f5937ae287d612d4c2f7c34d6488ac",
      "scriptpubkey_asm": "OP_DUP OP_HASH160 OP_PUSHBYTES_20 706a48d8297060f5937ae287d612d4c2f7c34d64 OP_EQUALVERIFY OP_CHECKSIG",
      "scriptpubkey_type": "p2pkh",
      "scriptpubkey_address": "1BFQ1GN6WrzADfvbzFUg72ZnzLw4jqgavj",
      "value": 3680
    }
  ],
  "size": 222,
  "weight": 888,
  "fee": 3568,
  "status": {
    "confirmed": true,
    "block_height": 834464,
    "block_hash": "0000000000000000000177a0869a911a2b65c9bdcd5a8bcb02b68f305bee848e",
    "block_time": 1710308296
  },
  "hex": "010000000114f8d480c17c761473772e772e17077c31ee25355f874f9f3ff63b80640f22d0010000006a47304402205c54f3c72fe3ea2d6cbef249ef91ba9213954747ea9aaa15c20f2945fea646830220088a0edff47c21c50d56e68f6f3b3c0690dac71b6e51bbafe54ecb06149672a80121036e97e71abf1807b0371bf03b808e3646f67d5e943ae9fb13e5e5b68c6b49b050ffffffff02206e03000000000016001458a447d7ecaa585c7a5053241da01d0ed58a17b7600e0000000000001976a914706a48d8297060f5937ae287d612d4c2f7c34d6488ac00000000"
}