{
  "txid": "1da646f93b785043907635ea60dfa3dfaf7c8004dec3e60bd6e322f9adbb3a8a",
  "version": 2,
  "locktime": 0,
  "vin": [
    {
      "txid": "fc89c552e4e86f10809e576924197bd058d495fc7316897ae99f3c6d34dcd493",
      "vout": 1,
      "prevout": {
        "scriptpubkey": "5120cd14d15648f0153346221648f4d59288ed3c63bbcd0ad3a3204c0d104f3b8813",
        "scriptpubkey_asm": "OP_PUSHNUM_1 OP_PUSHBYTES_32 cd14d15648f0153346221648f4d59288ed3c63bbcd0ad3a3204c0d104f3b8813",
        "scriptpubkey_type": "v1_p2tr",
        "scriptpubkey_address": "bc1pe52dz4jg7q2nx33zzey0f4vj3rknccame59d8geqfsx3qnem3qfszhyk0w",
        "value": 2658
      },
      "scriptsig": "",
      "scriptsig_asm": "",
      "witness": [
        "66d28a9216938bd03e5b3b0459ba7b14dbd3524690aa8acb75d47e3a61e66575ccd467a48e8c558c554f79df742545d207282ca0057edb4f77aef52408374bef",
        "2075afd203397eaa3fad85f30988aaa6f8759d0c02605e5b28c4b4caf0bf52f6dcac0063036f726401011e6170706c69636174696f6e2f6a736f6e3b636861727365743d7574662d38004cbf7b2270223a22706f772d3230222c226f70223a226d696e74222c227469636b223a2250455045222c22616d74223a2231303030222c22736f6c7574696f6e223a22504550453a6263317171633839726a7563797a776c77786d7761646c7763797139353668726e726b6a6833637361723a303030303030303030303030303030303030303139393431613561653132383937363539383134343239323533333030353762306461393666336465613163353a3231353336343030323632227d68",
        "c1def3a919f167a22fa6dfb9fa98ee16800d5a99e15fd4f4bd107d87271701c38a"
      ],
      "is_coinbase": false,
      "sequence": 4294967295
    }
  ],
  "vout": [
    {
      "scriptpubkey": "0014060e51cb98209df71b6eeb7eec1005a6ae398ed2",
      "scriptpubkey_asm": "OP_0 OP_PUSHBYTES_20 060e51cb98209df71b6eeb7eec1005a6ae398ed2",
      "scriptpubkey_type": "v0_p2wpkh",
      "scriptpubkey_address": "bc1qqc89rjucyzwlwxmwadlwcyq956hrnrkjh3csar",
      "value": 546
    }
  ],
  "size": 455,
  "weight": 701,
  "fee": 2112,
  "status": {
    "confirmed": true,
    "block_height": 834460,
    "block_hash": "00000000000000000000484a79b643b2524bbce82e5d8a442013fa5b8905ed98",
    "block_time": 1710307468
  },
  "hex": "0200000000010193d4dc346d3c9fe97a891673fc95d458d07b192469579e80106fe8e452c589fc0100000000ffffffff012202000000000000160014060e51cb98209df71b6eeb7eec1005a6ae398ed2034066d28a9216938bd03e5b3b0459ba7b14dbd3524690aa8acb75d47e3a61e66575ccd467a48e8c558c554f79df742545d207282ca0057edb4f77aef52408374beffd0c012075afd203397eaa3fad85f30988aaa6f8759d0c02605e5b28c4b4caf0bf52f6dcac0063036f726401011e6170706c69636174696f6e2f6a736f6e3b636861727365743d7574662d38004cbf7b2270223a22706f772d3230222c226f70223a226d696e74222c227469636b223a2250455045222c22616d74223a2231303030222c22736f6c7574696f6e223a22504550453a6263317171633839726a7563797a776c77786d7761646c7763797139353668726e726b6a6833637361723a303030303030303030303030303030303030303139393431613561653132383937363539383134343239323533333030353762306461393666336465613163353a3231353336343030323632227d6821c1def3a919f167a22fa6dfb9fa98ee16800d5a99e15fd4f4bd107d87271701c38a00000000"
}