{
  "txid": "1da883051a17ab3a8cb2fa64859fbb717aa481a1c821d33e2717a746f1fbdea3",
  "version": 1,
  "locktime": 0,
  "vin": [
    {
      "txid": "b2d41eca53e042fc8ddb2daf1d99b142a05948ab5d3235dfc4a63285a31faa62",
      "vout": 1,
      "prevout": {
        "scriptpubkey": "0014fd00e81a2cc2ce2379dd0df5ed45e486ab48456b",
        "scriptpubkey_asm": "OP_0 OP_PUSHBYTES_20 fd00e81a2cc2ce2379dd0df5ed45e486ab48456b",
        "scriptpubkey_type": "v0_p2wpkh",
        "scriptpubkey_address": "bc1ql5qwsx3vct8zx7waph67630ys645s3tt4d6nf8",
        "value": 137671
      },
      "scriptsig": "",
      "scriptsig_asm": "",
      "witness": [
        "3044022059c609c77f7da2781a1aa62c7997725a4ccac7bbc971510e3dcecc6e3852dbf60220648dc4e90fda92568c4a57c20f5affef9b90c72c569a7d24e8a3e32128210ed201",
        "031e2cfe1466a4aad21c9d832f5b1c072f9f24ec6d4fa9234e4b275bff544d8ae9"
      ],
      "is_coinbase": false,
      "sequence": 4294967295
    }
  ],
  "vout": [
    {
      "scriptpubkey": "76a914ec18e37f26bef7f9cf837a4f42945a9ee9dc894b88ac",
      "scriptpubkey_asm": "OP_DUP OP_HASH160 OP_PUSHBYTES_20 ec18e37f26bef7f9cf837a4f42945a9ee9dc894b OP_EQUALVERIFY OP_CHECKSIG",
      "scriptpubkey_type": "p2pkh",
      "scriptpubkey_address": "1NXNHZr6Pbzi3VStcgaxwEhspTWNXQ3Q4G",
      "value": 27200
    },
    {
      "scriptpubkey": "0014bf5e66428d25b191cb9de4205096578407570683",
      "scriptpubkey_asm": "OP_0 OP_PUSHBYTES_20 bf5e66428d25b191cb9de4205096578407570683",
      "scriptpubkey_type": "v0_p2wpkh",
      "scriptpubkey_address": "bc1qha0xvs5dykcerjuauss9p9jhssr4wp5r6pvav6",
      "value": 106759
    }
  ],
  "size": 225,
  "weight": 573,
  "fee": 3712,
  "status": {
    "confirmed": true,
    "block_height": 834638,
    "block_hash": "000000000000000000025f742c626208ac87e0b7d15054abb4a19ca2d735a54e",
    "block_time": 1710405325
  },
  "hex": "0100000000010162aa1fa38532a6c4df35325dab4859a042b1991daf2ddb8dfc42e053ca1ed4b20100000000ffffffff02406a0000000000001976a914ec18e37f26bef7f9cf837a4f42945a9ee9dc894b88ac07a1010000000000160014bf5e66428d25b191cb9de420509657840757068302473044022059c609c77f7da2781a1aa62c7997725a4ccac7bbc971510e3dcecc6e3852dbf60220648dc4e90fda92568c4a57c20f5affef9b90c72c569a7d24e8a3e32128210ed20121031e2cfe1466a4aad21c9d832f5b1c072f9f24ec6d4fa9234e4b275bff544d8ae900000000"
}