{
  "txid": "1da8788d59a43aec654d688970b044151453076ec26d940f2545a3ceded9e2ef",
  "version": 1,
  "locktime": 0,
  "vin": [
    {
      "txid": "02083f05466938d36d3bc98d45079cf6c8ed71102d14009ba15f07ae259bc11e",
      "vout": 65,
      "prevout": {
        "scriptpubkey": "00147fabc0f6b03eb83a121aa6ba71b54f734090244d",
        "scriptpubkey_asm": "OP_0 OP_PUSHBYTES_20 7fabc0f6b03eb83a121aa6ba71b54f734090244d",
        "scriptpubkey_type": "v0_p2wpkh",
        "scriptpubkey_address": "bc1q074upa4s86ur5ys656a8rd20wdqfqfzdwkhnga",
        "value": 28020
      },
      "scriptsig": "",
      "scriptsig_asm": "",
      "witness": [
        "3045022100bf09eeee79849e4e14c0c66fec1332d231a24e8be073fccb43524f3bccfe1b9502204f88faa04faffcba16d4df63c82f6d3de94c0cfb79a7c21aef0b96a2fec32c9501",
        "035ad1488ad17ceb8c4f740a90b6de24d15e1a773c9f95eb1bcbe628eb18cba49e"
      ],
      "is_coinbase": false,
      "sequence": 4294967295
    }
  ],
  "vout": [
    {
      "scriptpubkey": "76a914fb16172f866ccb2f822f05dadc3de7c4d94edf9188ac",
      "scriptpubkey_asm": "OP_DUP OP_HASH160 OP_PUSHBYTES_20 fb16172f866ccb2f822f05dadc3de7c4d94edf91 OP_EQUALVERIFY OP_CHECKSIG",
      "scriptpubkey_type": "p2pkh",
      "scriptpubkey_address": "1Ptd52goQ1PtEzn29m7R4cx4c52MkyrMoo",
      "value": 25195
    }
  ],
  "size": 195,
  "weight": 450,
  "fee": 2825,
  "status": {
    "confirmed": true,
    "block_height": 834638,
    "block_hash": "000000000000000000025f742c626208ac87e0b7d15054abb4a19ca2d735a54e",
    "block_time": 1710405325
  },
  "hex": "010000000001011ec19b25ae075fa19b00142d1071edc8f69c07458dc93b6dd3386946053f08024100000000ffffffff016b620000000000001976a914fb16172f866ccb2f822f05dadc3de7c4d94edf9188ac02483045022100bf09eeee79849e4e14c0c66fec1332d231a24e8be073fccb43524f3bccfe1b9502204f88faa04faffcba16d4df63c82f6d3de94c0cfb79a7c21aef0b96a2fec32c950121035ad1488ad17ceb8c4f740a90b6de24d15e1a773c9f95eb1bcbe628eb18cba49e00000000"
}