{
  "txid": "1dab7aa7e13a55ab9031bbb7d95f3bc5a81b4fe1cdf664cd572150a3d5ddb87a",
  "version": 1,
  "locktime": 0,
  "vin": [
    {
      "txid": "3c6bdc8cacf2d45e92a22f68900263e9c9799ed7a83ec36b321381fd1ea121d7",
      "vout": 1,
      "prevout": {
        "scriptpubkey": "00140acfec83f3cafca1e239440799eff22b709473f4",
        "scriptpubkey_asm": "OP_0 OP_PUSHBYTES_20 0acfec83f3cafca1e239440799eff22b709473f4",
        "scriptpubkey_type": "v0_p2wpkh",
        "scriptpubkey_address": "bc1qpt87eqlnet72rc3egsrenmlj9dcfgul5c70c9r",
        "value": 61819
      },
      "scriptsig": "",
      "scriptsig_asm": "",
      "witness": [
        "3045022100e953991f7c30c5cc948aa950078bbec15515c3c42061baa4a20b5b727935ff3d02202eab8e68a5bc025cb16f81c1901a5aa434442b4dccef2da80e864d45048a98d101",
        "036d14b157d8fef35bf513b4cb9d3377ccb35bea7e690e0c52593ea49cd34dbc23"
      ],
      "is_coinbase": false,
      "sequence": 4294967295
    }
  ],
  "vout": [
    {
      "scriptpubkey": "76a91447f7895a58283ab4ee212962f16e9921d740f48088ac",
      "scriptpubkey_asm": "OP_DUP OP_HASH160 OP_PUSHBYTES_20 47f7895a58283ab4ee212962f16e9921d740f480 OP_EQUALVERIFY OP_CHECKSIG",
      "scriptpubkey_type": "p2pkh",
      "scriptpubkey_address": "17ZXWm5NETJ3KcERghiMsSYUnufQxLSNHm",
      "value": 40849
    },
    {
      "scriptpubkey": "00140acfec83f3cafca1e239440799eff22b709473f4",
      "scriptpubkey_asm": "OP_0 OP_PUSHBYTES_20 0acfec83f3cafca1e239440799eff22b709473f4",
      "scriptpubkey_type": "v0_p2wpkh",
      "scriptpubkey_address": "bc1qpt87eqlnet72rc3egsrenmlj9dcfgul5c70c9r",
      "value": 17082
    }
  ],
  "size": 226,
  "weight": 574,
  "fee": 3888,
  "status": {
    "confirmed": true,
    "block_height": 834638,
    "block_hash": "000000000000000000025f742c626208ac87e0b7d15054abb4a19ca2d735a54e",
    "block_time": 1710405325
  },
  "hex": "01000000000101d721a11efd8113326bc33ea8d79e79c9e9630290682fa2925ed4f2ac8cdc6b3c0100000000ffffffff02919f0000000000001976a91447f7895a58283ab4ee212962f16e9921d740f48088acba420000000000001600140acfec83f3cafca1e239440799eff22b709473f402483045022100e953991f7c30c5cc948aa950078bbec15515c3c42061baa4a20b5b727935ff3d02202eab8e68a5bc025cb16f81c1901a5aa434442b4dccef2da80e864d45048a98d10121036d14b157d8fef35bf513b4cb9d3377ccb35bea7e690e0c52593ea49cd34dbc2300000000"
}