{
  "txid": "1db51a96fad880e9ba77f07f28b96172f84915116b4b5c809bd6d1267488f4d3",
  "version": 2,
  "locktime": 0,
  "vin": [
    {
      "txid": "1c011809f4e379d78417a36954035e49736319cfec86e25f9cfc5ea1381dc297",
      "vout": 29,
      "prevout": {
        "scriptpubkey": "0014160de0631701c9f8d3ef68a672ea1f3415f08e16",
        "scriptpubkey_asm": "OP_0 OP_PUSHBYTES_20 160de0631701c9f8d3ef68a672ea1f3415f08e16",
        "scriptpubkey_type": "v0_p2wpkh",
        "scriptpubkey_address": "bc1qzcx7qcchq8yl35l0dzn896slxs2lprsk6hewvk",
        "value": 4880546
      },
      "scriptsig": "",
      "scriptsig_asm": "",
      "witness": [
        "3045022100e580e82f109cc265b30d012644a12476cecf2d9260126a412ddc68ec4fe0ad5e02207c754a48da7fe71e5c1f5de69d4158c3777c52c43f6114c0f165192bab4b4ec501",
        "02c0db1f0f085188e15187c3f6f95fdad7394a0b9bd8d80c735c3441128d409832"
      ],
      "is_coinbase": false,
      "sequence": 0
    }
  ],
  "vout": [
    {
      "scriptpubkey": "a9142e695f62397aab99b4ca81822e1d635f55dd245d87",
      "scriptpubkey_asm": "OP_HASH160 OP_PUSHBYTES_20 2e695f62397aab99b4ca81822e1d635f55dd245d OP_EQUAL",
      "scriptpubkey_type": "p2sh",
      "scriptpubkey_address": "35vREnRkRSC58NFKmvHwRE8Simu23d36rD",
      "value": 68000
    },
    {
      "scriptpubkey": "0014186e73f9a7b81d1a3994c7140748ee934c1dd665",
      "scriptpubkey_asm": "OP_0 OP_PUSHBYTES_20 186e73f9a7b81d1a3994c7140748ee934c1dd665",
      "scriptpubkey_type": "v0_p2wpkh",
      "scriptpubkey_address": "bc1qrph887d8hqw35wv5cu2qwj8wjdxpm4n926xdvl",
      "value": 4809716
    }
  ],
  "size": 224,
  "weight": 566,
  "fee": 2830,
  "status": {
    "confirmed": true,
    "block_height": 834552,
    "block_hash": "00000000000000000001dd0468a70c94f619251d286585cff57aeb4bd9ede330",
    "block_time": 1710355598
  },
  "hex": "0200000000010197c21d38a15efc9c5fe286eccf196373495e035469a31784d779e3f40918011c1d000000000000000002a00901000000000017a9142e695f62397aab99b4ca81822e1d635f55dd245d87f463490000000000160014186e73f9a7b81d1a3994c7140748ee934c1dd66502483045022100e580e82f109cc265b30d012644a12476cecf2d9260126a412ddc68ec4fe0ad5e02207c754a48da7fe71e5c1f5de69d4158c3777c52c43f6114c0f165192bab4b4ec5012102c0db1f0f085188e15187c3f6f95fdad7394a0b9bd8d80c735c3441128d40983200000000"
}