{
  "txid": "1dd32d989bd71c1bbab157ebc062696cec35fb719d91e82c8754a91e92f57194",
  "version": 2,
  "locktime": 834637,
  "vin": [
    {
      "txid": "2abf3b48f461e45421fb249b6e7844ec91e546ac6c61dd06f7d1402b982492c0",
      "vout": 1,
      "prevout": {
        "scriptpubkey": "76a914e10cc11147b5edea7b9a0f23a98ff933702826ba88ac",
        "scriptpubkey_asm": "OP_DUP OP_HASH160 OP_PUSHBYTES_20 e10cc11147b5edea7b9a0f23a98ff933702826ba OP_EQUALVERIFY OP_CHECKSIG",
        "scriptpubkey_type": "p2pkh",
        "scriptpubkey_address": "1MWxKLZ2WNbX6fkLyJL4o8m6rrb1673t22",
        "value": 85000000
      },
      "scriptsig": "473044022002084ce75e3f8d250069c3aa77343504a1c72663af733bfab90fd64b5b6ce36f02203da536d610d2668dc81656977231b44f850d26c9377e9c1ca0cca374fb5530c1012102c4af4cd696f5137732d14eae948b73a339992d3df3b4094f605692d140ba08f6",
      "scriptsig_asm": "OP_PUSHBYTES_71 3044022002084ce75e3f8d250069c3aa77343504a1c72663af733bfab90fd64b5b6ce36f02203da536d610d2668dc81656977231b44f850d26c9377e9c1ca0cca374fb5530c101 OP_PUSHBYTES_33 02c4af4cd696f5137732d14eae948b73a339992d3df3b4094f605692d140ba08f6",
      "is_coinbase": false,
      "sequence": 4294967293
    }
  ],
  "vout": [
    {
      "scriptpubkey": "76a914bd700937bfbf9186f69ce80140535be95a32520a88ac",
      "scriptpubkey_asm": "OP_DUP OP_HASH160 OP_PUSHBYTES_20 bd700937bfbf9186f69ce80140535be95a32520a OP_EQUALVERIFY OP_CHECKSIG",
      "scriptpubkey_type": "p2pkh",
      "scriptpubkey_address": "1JGevewfDy9PJgfKS88KuHWxDgZaqBGSep",
      "value": 500000
    },
    {
      "scriptpubkey": "76a914148df3430e846f4f64ed863571594c5bfe73185488ac",
      "scriptpubkey_asm": "OP_DUP OP_HASH160 OP_PUSHBYTES_20 148df3430e846f4f64ed863571594c5bfe731854 OP_EQUALVERIFY OP_CHECKSIG",
      "scriptpubkey_type": "p2pkh",
      "scriptpubkey_address": "12sgZiKGar8L42poEWyRtiawHULzW5A9NJ",
      "value": 714285
    },
    {
      "scriptpubkey": "0014a7ab2f08d3c6ca57156cb815e2d830eef03072a9",
      "scriptpubkey_asm": "OP_0 OP_PUSHBYTES_20 a7ab2f08d3c6ca57156cb815e2d830eef03072a9",
      "scriptpubkey_type": "v0_p2wpkh",
      "scriptpubkey_address": "bc1q574j7zxncm99w9tvhq279kpsamcrqu4f5fw5zh",
      "value": 5342465
    },
    {
      "scriptpubkey": "76a9144adf724805cf4ce76c9fa8b08c182e28136d9a9b88ac",
      "scriptpubkey_asm": "OP_DUP OP_HASH160 OP_PUSHBYTES_20 4adf724805cf4ce76c9fa8b08c182e28136d9a9b OP_EQUALVERIFY OP_CHECKSIG",
      "scriptpubkey_type": "p2pkh",
      "scriptpubkey_address": "17ptgXQjpJXEkStnKGZc2opThsFMV8XVCC",
      "value": 78431464
    }
  ],
  "size": 290,
  "weight": 1160,
  "fee": 11786,
  "status": {
    "confirmed": true,
    "block_height": 834638,
    "block_hash": "000000000000000000025f742c626208ac87e0b7d15054abb4a19ca2d735a54e",
    "block_time": 1710405325
  },
  "hex": "0200000001c09224982b40d1f706dd616cac46e591ec44786e9b24fb2154e461f4483bbf2a010000006a473044022002084ce75e3f8d250069c3aa77343504a1c72663af733bfab90fd64b5b6ce36f02203da536d610d2668dc81656977231b44f850d26c9377e9c1ca0cca374fb5530c1012102c4af4cd696f5137732d14eae948b73a339992d3df3b4094f605692d140ba08f6fdffffff0420a10700000000001976a914bd700937bfbf9186f69ce80140535be95a32520a88ac2de60a00000000001976a914148df3430e846f4f64ed863571594c5bfe73185488ac0185510000000000160014a7ab2f08d3c6ca57156cb815e2d830eef03072a9e8c4ac04000000001976a9144adf724805cf4ce76c9fa8b08c182e28136d9a9b88ac4dbc0c00"
}