{
  "txid": "1dd42c86a9902d4df9a5dd2dbd40998e6106a08173ceeea2113316ff0f37a1dc",
  "version": 2,
  "locktime": 0,
  "vin": [
    {
      "txid": "fa1d5158a69239fc0da49649e092db1e8b6011344da9e21c0f953a8ef8b1d661",
      "vout": 0,
      "prevout": {
        "scriptpubkey": "512038844c32edf0aa75ff1846e0a5150530d8fa343fe6674efe1e1dec99068bbf21",
        "scriptpubkey_asm": "OP_PUSHNUM_1 OP_PUSHBYTES_32 38844c32edf0aa75ff1846e0a5150530d8fa343fe6674efe1e1dec99068bbf21",
        "scriptpubkey_type": "v1_p2tr",
        "scriptpubkey_address": "bc1p8zzycvhd7z48tlccgms229g9xrv05dpluen5als7rhkfjp5thussvqszxn",
        "value": 21766
      },
      "scriptsig": "",
      "scriptsig_asm": "",
      "witness": [
        "fc3e7be956f318d9f49b54903c55ff29999d5b9347ea9bd7b681cb4a35055016beb97a9c510082502f3dffe25dbaed2fdb7d225f6e3cc6d7f60dbc6ca05a5ccc",
        "20f2d00e1cce0b839d2e197679cac7a15152ec244338032c7767f72c1332d49a65ac0063036f726401010a696d6167652f6a706567004d0802ffd8ffe000104a46494600010100000100010000ffe201d84943435f50524f46494c45000101000001c800000000043000006d6e74725247422058595a2007e00001000100000000000061637370000000000000000000000000000000000000000000000000000000010000f6d6000100000000d32d0000000000000000000000000000000000000000000000000000000000000000000000000000000000000000000000000000000964657363000000f0000000247258595a00000114000000146758595a00000128000000146258595a0000013c00000014777470740000015000000014725452430000016400000028675452430000016400000028625452430000016400000028637072740000018c0000003c6d6c756300000000000000010000000c656e5553000000080000001c007300520047004258595a200000000000006fa2000038f50000039058595a2000000000000062990000b785000018da58595a2000000000000024a000000f840000b6cf58595a20000000000000f6d6000100000000d32d706172610000000000040000000266660000f2a700000d59000013d000000a5b00000000000000006d6c756300000000000000010000000c656e5553000000200000001c0047006f006f0067006c006500200049006e0063002e00200032003000310036ffdb0043000302020302020303030304030304050805050404054d08020a070706080c0a0c0c0b0a0b0b0d0e12100d0e110e0b0b1016101113141515150c0f171816141812141514ffdb00430103040405040509050509140d0b0d1414141414141414141414141414141414141414141414141414141414141414141414141414141414141414141414141414ffc00011080200020003012200021101031101ffc4001a000100030101010000000000000000000000070809060a05ffc40014100100000000000000000000000000000000ffc4001c0101000105010100000000000000000000000604050708090302ffc40014110100000000000000000000000000000000ffda000c03010002110311003f00caa0000000000000000000000000000000000000000000000000000000000000000000000000000000000000000000000000000000000000000000000000000000000000000000000000000000000000000000000000000000000000000000000000000000000000000000000000000000000000000000000000000000000000000000000000000000000000000000000000000000000000000000000000000000000000000000000000000000000000000000000000000000000000000000000000000000000000000000000000000000000000000000000000000000000000000000000000000000000000000000000000000000000000000000000000000000000000000000000000000000000000004d0802000000000000000000000000000000000000000000000000000000000000000000000000000000000000000000000000000000000000000000000000000000000000000000000000000000000000000000000000000000000000000000000000000000000000000000000000000000000000000000000000000000000000000000000000000000000000000000000000000000000000000000000000000000000000000000000000000000000000000000000000000000000000000000000000000000000000000000000000000000000000000000000000000000000000000001be40270d2c0000000000000000000000006068083b74c000000000000000000000000000000000000000000000000000000000001b7a027ad1c00076a03c97066d00d6a74cc001f6c0522b400000000000000000000000145c06686120000000000000000000000000000000000000000006be80c96e778000002400142968003b501e4b8336806b53a66000fb602915a000000000000000000000000a2e033430900000000000000000000000000000000000000000035f4064b73bc0000012000a14b4001da80f25c19b4035a9d330007db0148ad000000000000000000000000517019a1848000000000000000000000000000000000000000001afa0325b9de000000900050a5a000ed40792e0cda01ad4e998003ed80a45680000000000000000000000024d08028b80cd0c24000000000000000000000000000000000000000000d7d0192dcef00000048002852d00076a03c9704a0009c0000000000000000000000000003cde8083b66c000000000000000000000000000000000000000000001afa0325b9de000000900050a5a000ed40792e0940013800076002c8c90f3aa02caca0000000000f45402f4c5ef3aa02caca00000000008dc07c3ec000000000000000000000000000000000000000001afa0325b9de000900050a5a000ed40792e0940013800076002c8c90000000000000000000000000f31a02c4ca6000000000000000000000000000000000000000000000d7d0192dcef00048002852d00076a03c9704a0009c0003b0016464876c02c4ca6000f33e03edf0000f45402f4c5eed8058994c001e67c07dbe00011b80f87d80000000000000000000000000000000000000000035f4064b73bc0012000a14b4001da80f25c12800270000ec00591920000000000000000000000001e634058994c000000000000000000000000000000000000000000001afa0325b9de000900050a5a000ed40792e0cda01ad4e99b5d406cab411d800b23240000000000000000000000003cc680b132980000000000000000000000000000000000000000000035f4064b73bc0012000a14b4001da80f25c19b4035a9d330007db0148ad0000000000006c500d8569fb1d406bd370000000000145c06686124d08020000000000000000000000000000000000000000006be80c96e778002400142968003b501e4b8336806b53a66000fb602915a000000000000000000000000000a2e033430900000000000000000000000000000000000000000000035f4064b73bd2000a14b4001da80f25c19b4035a9d330007db0148ad000000000000000000000000000517019a1848000000000000000000000000000000000000000000001afa0325b9de900050a5a000ed40792e0940013864500d6a6fdbed80a45680000000000000000000000028b80cd0c24000000000000000000000000000000000000000000000000d7d0192dcef48002852d00076a03c9704a0009c00000000000000000029d00b9b05240014296b1080409bc6000000000000000000000000000000000000000000000000d7d0192dcef0000000000000000000004ea02d89e8000000000000000000000000000000003034041dba6000000000000000000000000000000000d7d0192dcef0000000000000000000004ea02d89e8000000000000000000000000000000003034041dba6000000000000000000000000000000000d7d0192dcef0000000000000000000004ea02d89e8000002db0083b74d52404e1a58000000000b6c020edd354901386960000003034041dba6000000000000000000000000000000000d7d0192dcef0000000000000000000004ea02d89e8000002db0083b74d4cb952404e1a58000000000b6c020edd354901386960000003034041dba6000000000000000000000000000000000d7d0192dcef0000000000000000000004ea02d89e8000002db0083b74d52404e1a58000000000b6c020edd354901386960000003034041dba6000000000000000000000000000000000d7d0192dcef0000000000000000000004ea02d89e8000002db0083b74d52404e1a58000000000b6c020edd354901386960000003034041dba6000000000000000fffd9680063036f726401011e6170706c69636174696f6e2f6a736f6e3b636861727365743d7574662d38004d4b017b2270223a22766f7264222c2276223a312c227479223a22696e7363222c22636f6c223a2230323336303866343162323735633034313737386331353733383530366633633665336536313539646139333364333761343531373566643833313436666237222c22696964223a224e4f4445205341544f534849222c227075626c223a2231455337623370636a527a4667796969714c7278484b546e43686535364c4a485937222c226e6f6e6365223a3732352c226d696e746572223a22626331716a7a79746b7176336c676636756e6b373572367733717364796b63617179637a386b74717472222c22736967223a2247393343586b6d5a797234732f4c633265737348752b506d6842366830617473474a5265666d6541634c354552327a5a5a354169444a65626b7770354236543563484772785a45416c7372483450596162516b485969773d227d68",
        "c0f2d00e1cce0b839d2e197679cac7a15152ec244338032c7767f72c1332d49a65675a92934efa5e4869b2432a3e00abfc6819367af43949c2edc693b32d23ac05"
      ],
      "is_coinbase": false,
      "sequence": 4294967293
    }
  ],
  "vout": [
    {
      "scriptpubkey": "00149088bb0191fa13ae4edea0f4e8820d25b1d01302",
      "scriptpubkey_asm": "OP_0 OP_PUSHBYTES_20 9088bb0191fa13ae4edea0f4e8820d25b1d01302",
      "scriptpubkey_type": "v0_p2wpkh",
      "scriptpubkey_address": "bc1qjzytkqv3lgf6unk75r6w3qsdykcaqycz8ktqtr",
      "value": 1000
    },
    {
      "scriptpubkey": "5120690fc8b7fefd11506ba7a7176eca71153a3c0390a407d6de8bb6a33aa12dcdf0",
      "scriptpubkey_asm": "OP_PUSHNUM_1 OP_PUSHBYTES_32 690fc8b7fefd11506ba7a7176eca71153a3c0390a407d6de8bb6a33aa12dcdf0",
      "scriptpubkey_type": "v1_p2tr",
      "scriptpubkey_address": "bc1pdy8u3dl7l5g4q6a85utkajn3z5arcqus5sradh5tk63n4gfdehcqryzwum",
      "value": 6729
    },
    {
      "scriptpubkey": "51200705a5767db892e98125775049b1a13dd9ecdc8aea0df413cabbee683e871012",
      "scriptpubkey_asm": "OP_PUSHNUM_1 OP_PUSHBYTES_32 0705a5767db892e98125775049b1a13dd9ecdc8aea0df413cabbee683e871012",
      "scriptpubkey_type": "v1_p2tr",
      "scriptpubkey_address": "bc1pquz62anahzfwnqf9wagynvdp8hv7ehy2agxlgy72h0hxs058zqfqk8ksyq",
      "value": 2916
    }
  ],
  "size": 3537,
  "weight": 4041,
  "fee": 11121,
  "status": {
    "confirmed": true,
    "block_height": 834464,
    "block_hash": "0000000000000000000177a0869a911a2b65c9bdcd5a8bcb02b68f305bee848e",
    "block_time": 1710308296
  },
  "hex": "0200000000010161d6b1f88e3a950f1ce2a94d3411608b1edb92e04996a40dfc3992a658511dfa0000000000fdffffff03e8030000000000001600149088bb0191fa13ae4edea0f4e8820d25b1d01302491a000000000000225120690fc8b7fefd11506ba7a7176eca71153a3c0390a407d6de8bb6a33aa12dcdf0640b0000000000002251200705a5767db892e98125775049b1a13dd9ecdc8aea0df413cabbee683e8710120340fc3e7be956f318d9f49b54903c55ff29999d5b9347ea9bd7b681cb4a35055016beb97a9c510082502f3dffe25dbaed2fdb7d225f6e3cc6d7f60dbc6ca05a5cccfda00c20f2d00e1cce0b839d2e197679cac7a15152ec244338032c7767f72c1332d49a65ac0063036f726401010a696d6167652f6a706567004d0802ffd8ffe000104a46494600010100000100010000ffe201d84943435f50524f46494c45000101000001c800000000043000006d6e74725247422058595a2007e00001000100000000000061637370000000000000000000000000000000000000000000000000000000010000f6d6000100000000d32d0000000000000000000000000000000000000000000000000000000000000000000000000000000000000000000000000000000964657363000000f0000000247258595a00000114000000146758595a00000128000000146258595a0000013c00000014777470740000015000000014725452430000016400000028675452430000016400000028625452430000016400000028637072740000018c0000003c6d6c756300000000000000010000000c656e5553000000080000001c007300520047004258595a200000000000006fa2000038f50000039058595a2000000000000062990000b785000018da58595a2000000000000024a000000f840000b6cf58595a20000000000000f6d6000100000000d32d706172610000000000040000000266660000f2a700000d59000013d000000a5b00000000000000006d6c756300000000000000010000000c656e5553000000200000001c0047006f006f0067006c006500200049006e0063002e00200032003000310036ffdb0043000302020302020303030304030304050805050404054d08020a070706080c0a0c0c0b0a0b0b0d0e12100d0e110e0b0b1016101113141515150c0f171816141812141514ffdb00430103040405040509050509140d0b0d1414141414141414141414141414141414141414141414141414141414141414141414141414141414141414141414141414ffc00011080200020003012200021101031101ffc4001a000100030101010000000000000000000000070809060a05ffc40014100100000000000000000000000000000000ffc4001c0101000105010100000000000000000000000604050708090302ffc40014110100000000000000000000000000000000ffda000c03010002110311003f00caa0000000000000000000000000000000000000000000000000000000000000000000000000000000000000000000000000000000000000000000000000000000000000000000000000000000000000000000000000000000000000000000000000000000000000000000000000000000000000000000000000000000000000000000000000000000000000000000000000000000000000000000000000000000000000000000000000000000000000000000000000000000000000000000000000000000000000000000000000000000000000000000000000000000000000000000000000000000000000000000000000000000000000000000000000000000000000000000000000000000000000004d0802000000000000000000000000000000000000000000000000000000000000000000000000000000000000000000000000000000000000000000000000000000000000000000000000000000000000000000000000000000000000000000000000000000000000000000000000000000000000000000000000000000000000000000000000000000000000000000000000000000000000000000000000000000000000000000000000000000000000000000000000000000000000000000000000000000000000000000000000000000000000000000000000000000000000000001be40270d2c0000000000000000000000006068083b74c000000000000000000000000000000000000000000000000000000000001b7a027ad1c00076a03c97066d00d6a74cc001f6c0522b400000000000000000000000145c06686120000000000000000000000000000000000000000006be80c96e778000002400142968003b501e4b8336806b53a66000fb602915a000000000000000000000000a2e033430900000000000000000000000000000000000000000035f4064b73bc0000012000a14b4001da80f25c19b4035a9d330007db0148ad000000000000000000000000517019a1848000000000000000000000000000000000000000001afa0325b9de000000900050a5a000ed40792e0cda01ad4e998003ed80a45680000000000000000000000024d08028b80cd0c24000000000000000000000000000000000000000000d7d0192dcef00000048002852d00076a03c9704a0009c0000000000000000000000000003cde8083b66c000000000000000000000000000000000000000000001afa0325b9de000000900050a5a000ed40792e0940013800076002c8c90f3aa02caca0000000000f45402f4c5ef3aa02caca00000000008dc07c3ec000000000000000000000000000000000000000001afa0325b9de000900050a5a000ed40792e0940013800076002c8c90000000000000000000000000f31a02c4ca6000000000000000000000000000000000000000000000d7d0192dcef00048002852d00076a03c9704a0009c0003b0016464876c02c4ca6000f33e03edf0000f45402f4c5eed8058994c001e67c07dbe00011b80f87d80000000000000000000000000000000000000000035f4064b73bc0012000a14b4001da80f25c12800270000ec00591920000000000000000000000001e634058994c000000000000000000000000000000000000000000001afa0325b9de000900050a5a000ed40792e0cda01ad4e99b5d406cab411d800b23240000000000000000000000003cc680b132980000000000000000000000000000000000000000000035f4064b73bc0012000a14b4001da80f25c19b4035a9d330007db0148ad0000000000006c500d8569fb1d406bd370000000000145c06686124d08020000000000000000000000000000000000000000006be80c96e778002400142968003b501e4b8336806b53a66000fb602915a000000000000000000000000000a2e033430900000000000000000000000000000000000000000000035f4064b73bd2000a14b4001da80f25c19b4035a9d330007db0148ad000000000000000000000000000517019a1848000000000000000000000000000000000000000000001afa0325b9de900050a5a000ed40792e0940013864500d6a6fdbed80a45680000000000000000000000028b80cd0c24000000000000000000000000000000000000000000000000d7d0192dcef48002852d00076a03c9704a0009c00000000000000000029d00b9b05240014296b1080409bc6000000000000000000000000000000000000000000000000d7d0192dcef0000000000000000000004ea02d89e8000000000000000000000000000000003034041dba6000000000000000000000000000000000d7d0192dcef0000000000000000000004ea02d89e8000000000000000000000000000000003034041dba6000000000000000000000000000000000d7d0192dcef0000000000000000000004ea02d89e8000002db0083b74d52404e1a58000000000b6c020edd354901386960000003034041dba6000000000000000000000000000000000d7d0192dcef0000000000000000000004ea02d89e8000002db0083b74d4cb952404e1a58000000000b6c020edd354901386960000003034041dba6000000000000000000000000000000000d7d0192dcef0000000000000000000004ea02d89e8000002db0083b74d52404e1a58000000000b6c020edd354901386960000003034041dba6000000000000000000000000000000000d7d0192dcef0000000000000000000004ea02d89e8000002db0083b74d52404e1a58000000000b6c020edd354901386960000003034041dba6000000000000000fffd9680063036f726401011e6170706c69636174696f6e2f6a736f6e3b636861727365743d7574662d38004d4b017b2270223a22766f7264222c2276223a312c227479223a22696e7363222c22636f6c223a2230323336303866343162323735633034313737386331353733383530366633633665336536313539646139333364333761343531373566643833313436666237222c22696964223a224e4f4445205341544f534849222c227075626c223a2231455337623370636a527a4667796969714c7278484b546e43686535364c4a485937222c226e6f6e6365223a3732352c226d696e746572223a22626331716a7a79746b7176336c676636756e6b373572367733717364796b63617179637a386b74717472222c22736967223a2247393343586b6d5a797234732f4c633265737348752b506d6842366830617473474a5265666d6541634c354552327a5a5a354169444a65626b7770354236543563484772785a45416c7372483450596162516b485969773d227d6841c0f2d00e1cce0b839d2e197679cac7a15152ec244338032c7767f72c1332d49a65675a92934efa5e4869b2432a3e00abfc6819367af43949c2edc693b32d23ac0500000000"
}