{
  "txid": "1ddae77e15cdeb0eb24af3eb70eb0e4e69ef93f16ed26869b716569b6adf1b8c",
  "version": 1,
  "locktime": 0,
  "vin": [
    {
      "txid": "0f3025dfe1bc922f52961400a34741d1ce68781e88a3ec9b474318163fced4b0",
      "vout": 1,
      "prevout": {
        "scriptpubkey": "0014a3aa51d8873f276aa215131527eef00cfbc372a1",
        "scriptpubkey_asm": "OP_0 OP_PUSHBYTES_20 a3aa51d8873f276aa215131527eef00cfbc372a1",
        "scriptpubkey_type": "v0_p2wpkh",
        "scriptpubkey_address": "bc1q5w49rky88unk4gs4zv2j0mhspnauxu4pjg3kc0",
        "value": 6267022981
      },
      "scriptsig": "",
      "scriptsig_asm": "",
      "witness": [
        "3044022025edb9d5de9dfdcf317cb37fdf5a7a8d3e82ffa9838284599f43b3fb04c0bd9e022008fb4ffc1228e500007f2116216706bce8137b4cc6257bfc277c712a7c365d7601",
        "02f0b244b6f49f967e1c4709a6332b82a6d531da36d57f9b32234de09c6cb599f4"
      ],
      "is_coinbase": false,
      "sequence": 4294967295
    }
  ],
  "vout": [
    {
      "scriptpubkey": "0014341cc97159751f246e33fc4fcfc132b0b0d326ef",
      "scriptpubkey_asm": "OP_0 OP_PUSHBYTES_20 341cc97159751f246e33fc4fcfc132b0b0d326ef",
      "scriptpubkey_type": "v0_p2wpkh",
      "scriptpubkey_address": "bc1qxswvju2ew50jgm3nl38ulsfjkzcdxfh0xn5z5j",
      "value": 200000000
    },
    {
      "scriptpubkey": "0014a3aa51d8873f276aa215131527eef00cfbc372a1",
      "scriptpubkey_asm": "OP_0 OP_PUSHBYTES_20 a3aa51d8873f276aa215131527eef00cfbc372a1",
      "scriptpubkey_type": "v0_p2wpkh",
      "scriptpubkey_address": "bc1q5w49rky88unk4gs4zv2j0mhspnauxu4pjg3kc0",
      "value": 6067020105
    }
  ],
  "size": 222,
  "weight": 561,
  "fee": 2876,
  "status": {
    "confirmed": true,
    "block_height": 834638,
    "block_hash": "000000000000000000025f742c626208ac87e0b7d15054abb4a19ca2d735a54e",
    "block_time": 1710405325
  },
  "hex": "01000000000101b0d4ce3f161843479beca3881e7868ced14147a3001496522f92bce1df25300f0100000000ffffffff0200c2eb0b00000000160014341cc97159751f246e33fc4fcfc132b0b0d326ef49619f6901000000160014a3aa51d8873f276aa215131527eef00cfbc372a102473044022025edb9d5de9dfdcf317cb37fdf5a7a8d3e82ffa9838284599f43b3fb04c0bd9e022008fb4ffc1228e500007f2116216706bce8137b4cc6257bfc277c712a7c365d76012102f0b244b6f49f967e1c4709a6332b82a6d531da36d57f9b32234de09c6cb599f400000000"
}