{
  "txid": "1de3ed4c04240b7ccd44f91c9b525a0106600e0f149ed16a753f178a457b77f9",
  "version": 2,
  "locktime": 0,
  "vin": [
    {
      "txid": "f88a88714681d8ed9a8c95cb134aa8045b52f70f597c7ff60b0fe3f97c27b16d",
      "vout": 1,
      "prevout": {
        "scriptpubkey": "00143f553f7c4efaf77c05d5a24b7e62b13f60b9fe43",
        "scriptpubkey_asm": "OP_0 OP_PUSHBYTES_20 3f553f7c4efaf77c05d5a24b7e62b13f60b9fe43",
        "scriptpubkey_type": "v0_p2wpkh",
        "scriptpubkey_address": "bc1q8a2n7lzwltmhcpw45f9huc438astnljr3425a6",
        "value": 2843672
      },
      "scriptsig": "",
      "scriptsig_asm": "",
      "witness": [
        "3044022019c01fed8659032ed275c4b8b6834d05fab6549b1a301de58621d888d1f621bd022023e9a89eb4017d58e70bbd7e1480a3ded027e1cd8550ac1b63e4f5ddb207860201",
        "0398e16bc2392efe21a6316f7a0efeb9071ebad1fbe999fb54f778d493dac525a1"
      ],
      "is_coinbase": false,
      "sequence": 0
    },
    {
      "txid": "f998ef79c13cf04f889b89d0e5fcde00f8d219b69c369d1d492c9c5b175b2514",
      "vout": 2,
      "prevout": {
        "scriptpubkey": "0014da20212f3d4a176da434b07d75f4ca1688aa945a",
        "scriptpubkey_asm": "OP_0 OP_PUSHBYTES_20 da20212f3d4a176da434b07d75f4ca1688aa945a",
        "scriptpubkey_type": "v0_p2wpkh",
        "scriptpubkey_address": "bc1qmgszzteafgtkmfp5kp7htax2z6y249z6nld3wr",
        "value": 600
      },
      "scriptsig": "",
      "scriptsig_asm": "",
      "witness": [
        "3045022100c8506a9df2f7c621470b48a0446c50bc6afdaa522c68a9e86adf4a6226d7bbc3022074e79658004d8d84223d1a452ce8d514f23e47d4af935d50528778ae0fd0183d01",
        "02787ef26a6eeea25da50957fff51296dae4f0da232d2dbd5cf96a8ce4ae152d0a"
      ],
      "is_coinbase": false,
      "sequence": 0
    },
    {
      "txid": "ce47f7430f959edfefb631013ec5b3809fe9cf345730f83ae1da7c35e94d0777",
      "vout": 0,
      "prevout": {
        "scriptpubkey": "00143f553f7c4efaf77c05d5a24b7e62b13f60b9fe43",
        "scriptpubkey_asm": "OP_0 OP_PUSHBYTES_20 3f553f7c4efaf77c05d5a24b7e62b13f60b9fe43",
        "scriptpubkey_type": "v0_p2wpkh",
        "scriptpubkey_address": "bc1q8a2n7lzwltmhcpw45f9huc438astnljr3425a6",
        "value": 3805077
      },
      "scriptsig": "",
      "scriptsig_asm": "",
      "witness": [
        "3045022100f9e8d842684ef9529a545213695ad4f697e2b95a708c0996f57d4b7a3348afc1022054a018ed9eedb2900a1568767e4c763095bb5ed3d3928ca108dd4fe335d5383b01",
        "0398e16bc2392efe21a6316f7a0efeb9071ebad1fbe999fb54f778d493dac525a1"
      ],
      "is_coinbase": false,
      "sequence": 0
    },
    {
      "txid": "e818d060f25f7f1b621ba4e756dadb685aadbafd09482e3bc370e951aaec2cbc",
      "vout": 0,
      "prevout": {
        "scriptpubkey": "00143f553f7c4efaf77c05d5a24b7e62b13f60b9fe43",
        "scriptpubkey_asm": "OP_0 OP_PUSHBYTES_20 3f553f7c4efaf77c05d5a24b7e62b13f60b9fe43",
        "scriptpubkey_type": "v0_p2wpkh",
        "scriptpubkey_address": "bc1q8a2n7lzwltmhcpw45f9huc438astnljr3425a6",
        "value": 4359797
      },
      "scriptsig": "",
      "scriptsig_asm": "",
      "witness": [
        "3044022038edbf2dd670460fd1dff982ff75d2e197af10561340c71efb78e00a37d4db6e0220265c2e0ed82306e62e0339a36f736059472525c1eeb906c21f9e916c8891d2ba01",
        "0398e16bc2392efe21a6316f7a0efeb9071ebad1fbe999fb54f778d493dac525a1"
      ],
      "is_coinbase": false,
      "sequence": 0
    },
    {
      "txid": "c305e9250c2fcf31bfa57f326b42520eb245fe89ee067194f4f408fdbc0b88fb",
      "vout": 1,
      "prevout": {
        "scriptpubkey": "00142ca877a2db97036d46f36c0c2b886103f1a5becb",
        "scriptpubkey_asm": "OP_0 OP_PUSHBYTES_20 2ca877a2db97036d46f36c0c2b886103f1a5becb",
        "scriptpubkey_type": "v0_p2wpkh",
        "scriptpubkey_address": "bc1q9j580gkmjupk63hndsxzhzrpq0c6t0kt8vlgng",
        "value": 6763665
      },
      "scriptsig": "",
      "scriptsig_asm": "",
      "witness": [
        "3044022049e27695848b7b19420bb77eb444a90668ce646db7c2c4ac542c82db59039016022043ed6812a7756b8ddc1df4ac6009a2de4731845f5fb11e04676428eed890f53201",
        "0319cdcbca973c4e20a2ac0e370bef03641cb20a4f144520d15806336da97304bc"
      ],
      "is_coinbase": false,
      "sequence": 0
    },
    {
      "txid": "b0e4c18a95efa8ed69cf3ee07882053343415bf8b5917999b7f5da3b8c460254",
      "vout": 0,
      "prevout": {
        "scriptpubkey": "00142ca877a2db97036d46f36c0c2b886103f1a5becb",
        "scriptpubkey_asm": "OP_0 OP_PUSHBYTES_20 2ca877a2db97036d46f36c0c2b886103f1a5becb",
        "scriptpubkey_type": "v0_p2wpkh",
        "scriptpubkey_address": "bc1q9j580gkmjupk63hndsxzhzrpq0c6t0kt8vlgng",
        "value": 10397508
      },
      "scriptsig": "",
      "scriptsig_asm": "",
      "witness": [
        "304502210092bdc948b4b40538f4d01d1cb55447caf1296181347d72bea495907dfd00db9602207d2fca35c8f2c34cbbcebebd3646c0a52dc56779e4184da8291606830000768101",
        "0319cdcbca973c4e20a2ac0e370bef03641cb20a4f144520d15806336da97304bc"
      ],
      "is_coinbase": false,
      "sequence": 0
    },
    {
      "txid": "a01dbe206ffc4c558afde99f011106d10fc611cf790d53adb02ef900e7452fb5",
      "vout": 0,
      "prevout": {
        "scriptpubkey": "00142ca877a2db97036d46f36c0c2b886103f1a5becb",
        "scriptpubkey_asm": "OP_0 OP_PUSHBYTES_20 2ca877a2db97036d46f36c0c2b886103f1a5becb",
        "scriptpubkey_type": "v0_p2wpkh",
        "scriptpubkey_address": "bc1q9j580gkmjupk63hndsxzhzrpq0c6t0kt8vlgng",
        "value": 10081343
      },
      "scriptsig": "",
      "scriptsig_asm": "",
      "witness": [
        "304402204b26d52a50cc4b77fc97cbdc5418b61b25ac1bf144b77b58de75fed417110d2302202a50c8519937b1959e5fbf4cdc8d0e3e96e550b273d7cc8c7f8bcdeb17fc44db01",
        "0319cdcbca973c4e20a2ac0e370bef03641cb20a4f144520d15806336da97304bc"
      ],
      "is_coinbase": false,
      "sequence": 0
    }
  ],
  "vout": [
    {
      "scriptpubkey": "a914e18ab2cd67ba8145d24d3f86d4f08fc98a01bcfe87",
      "scriptpubkey_asm": "OP_HASH160 OP_PUSHBYTES_20 e18ab2cd67ba8145d24d3f86d4f08fc98a01bcfe OP_EQUAL",
      "scriptpubkey_type": "p2sh",
      "scriptpubkey_address": "3NFa7eE3MCVeXhVrkEEVuPMb1Tmm9rao3T",
      "value": 30000000
    },
    {
      "scriptpubkey": "0014b273c22279c76807798ba4fe4494aa03c3fccb7e",
      "scriptpubkey_asm": "OP_0 OP_PUSHBYTES_20 b273c22279c76807798ba4fe4494aa03c3fccb7e",
      "scriptpubkey_type": "v0_p2wpkh",
      "scriptpubkey_address": "bc1qkfeuygneca5qw7vt5nlyf992q0plejm7rddd8x",
      "value": 8236906
    }
  ],
  "size": 1114,
  "weight": 2194,
  "fee": 14756,
  "status": {
    "confirmed": true,
    "block_height": 834638,
    "block_hash": "000000000000000000025f742c626208ac87e0b7d15054abb4a19ca2d735a54e",
    "block_time": 1710405325
  },
  "hex": "020000000001076db1277cf9e30f0bf67f7c590ff7525b04a84a13cb958c9aedd8814671888af801000000000000000014255b175b9c2c491d9d369cb619d2f800defce5d0899b884ff03cc179ef98f902000000000000000077074de9357cdae13af8305734cfe99f80b3c53e0131b6efdf9e950f43f747ce000000000000000000bc2cecaa51e970c33b2e4809fdbaad5a68dbda56e7a41b621b7f5ff260d018e8000000000000000000fb880bbcfd08f4f4947106ee89fe45b20e52426b327fa5bf31cf2f0c25e905c30100000000000000005402468c3bdaf5b7997991b5f85b414333058278e03ecf69eda8ef958ac1e4b0000000000000000000b52f45e700f92eb0ad530d79cf11c60fd10611019fe9fd8a554cfc6f20be1da00000000000000000000280c3c9010000000017a914e18ab2cd67ba8145d24d3f86d4f08fc98a01bcfe876aaf7d0000000000160014b273c22279c76807798ba4fe4494aa03c3fccb7e02473044022019c01fed8659032ed275c4b8b6834d05fab6549b1a301de58621d888d1f621bd022023e9a89eb4017d58e70bbd7e1480a3ded027e1cd8550ac1b63e4f5ddb207860201210398e16bc2392efe21a6316f7a0efeb9071ebad1fbe999fb54f778d493dac525a102483045022100c8506a9df2f7c621470b48a0446c50bc6afdaa522c68a9e86adf4a6226d7bbc3022074e79658004d8d84223d1a452ce8d514f23e47d4af935d50528778ae0fd0183d012102787ef26a6eeea25da50957fff51296dae4f0da232d2dbd5cf96a8ce4ae152d0a02483045022100f9e8d842684ef9529a545213695ad4f697e2b95a708c0996f57d4b7a3348afc1022054a018ed9eedb2900a1568767e4c763095bb5ed3d3928ca108dd4fe335d5383b01210398e16bc2392efe21a6316f7a0efeb9071ebad1fbe999fb54f778d493dac525a102473044022038edbf2dd670460fd1dff982ff75d2e197af10561340c71efb78e00a37d4db6e0220265c2e0ed82306e62e0339a36f736059472525c1eeb906c21f9e916c8891d2ba01210398e16bc2392efe21a6316f7a0efeb9071ebad1fbe999fb54f778d493dac525a102473044022049e27695848b7b19420bb77eb444a90668ce646db7c2c4ac542c82db59039016022043ed6812a7756b8ddc1df4ac6009a2de4731845f5fb11e04676428eed890f53201210319cdcbca973c4e20a2ac0e370bef03641cb20a4f144520d15806336da97304bc0248304502210092bdc948b4b40538f4d01d1cb55447caf1296181347d72bea495907dfd00db9602207d2fca35c8f2c34cbbcebebd3646c0a52dc56779e4184da8291606830000768101210319cdcbca973c4e20a2ac0e370bef03641cb20a4f144520d15806336da97304bc0247304402204b26d52a50cc4b77fc97cbdc5418b61b25ac1bf144b77b58de75fed417110d2302202a50c8519937b1959e5fbf4cdc8d0e3e96e550b273d7cc8c7f8bcdeb17fc44db01210319cdcbca973c4e20a2ac0e370bef03641cb20a4f144520d15806336da97304bc00000000"
}