{
  "txid": "1deeb28dd349ffa2560a82ea3d682be183af204e8683bcaca175414896d9bcea",
  "version": 2,
  "locktime": 834637,
  "vin": [
    {
      "txid": "9bb6a1b0a70499912f546cdae5467963fb817f33a742b19bf903cd3350c03757",
      "vout": 0,
      "prevout": {
        "scriptpubkey": "00142d1a90b8eb4dfde147f288465f909b223a3822ff",
        "scriptpubkey_asm": "OP_0 OP_PUSHBYTES_20 2d1a90b8eb4dfde147f288465f909b223a3822ff",
        "scriptpubkey_type": "v0_p2wpkh",
        "scriptpubkey_address": "bc1q95dfpw8tfh77z3lj3pr9lyymygarsghlxqlqnf",
        "value": 139142
      },
      "scriptsig": "",
      "scriptsig_asm": "",
      "witness": [
        "3044022036f83c18fa413280c9a068a40ef2dc5e2359da53595d4014128677a2ab54febd022062db2d84ee36bf79f642d3263743ec823c3796cd0850bb71483a5bcb7029c5b401",
        "03050eee2c40ee4dfa724cd8c4ffc77e4005fc04ff7efa5071d589c517b920c08e"
      ],
      "is_coinbase": false,
      "sequence": 4294967294
    }
  ],
  "vout": [
    {
      "scriptpubkey": "00142c5940e0bd5a73bcfefb56dccabd51aa0ded900f",
      "scriptpubkey_asm": "OP_0 OP_PUSHBYTES_20 2c5940e0bd5a73bcfefb56dccabd51aa0ded900f",
      "scriptpubkey_type": "v0_p2wpkh",
      "scriptpubkey_address": "bc1q93v5pc9atfemelhm2mwv40234gx7myq0d5hn9x",
      "value": 136300
    }
  ],
  "size": 191,
  "weight": 437,
  "fee": 2842,
  "status": {
    "confirmed": true,
    "block_height": 834638,
    "block_hash": "000000000000000000025f742c626208ac87e0b7d15054abb4a19ca2d735a54e",
    "block_time": 1710405325
  },
  "hex": "020000000001015737c05033cd03f99bb142a7337f81fb637946e5da6c542f919904a7b0a1b69b0000000000feffffff016c140200000000001600142c5940e0bd5a73bcfefb56dccabd51aa0ded900f02473044022036f83c18fa413280c9a068a40ef2dc5e2359da53595d4014128677a2ab54febd022062db2d84ee36bf79f642d3263743ec823c3796cd0850bb71483a5bcb7029c5b4012103050eee2c40ee4dfa724cd8c4ffc77e4005fc04ff7efa5071d589c517b920c08e4dbc0c00"
}