{
  "txid": "1dfbd942249f1014eff7f699ce0ac12cad661c5973d959894d9701c8d3b4480e",
  "version": 2,
  "locktime": 0,
  "vin": [
    {
      "txid": "1b6a7b3129a41d483a97023d40aab110c4c15e5adef7a7e63dd8d7bff12b3f0d",
      "vout": 0,
      "prevout": {
        "scriptpubkey": "512003ef01687e4e38878bf28f4be08200368926e42cc2b591792de21753b31d4e19",
        "scriptpubkey_asm": "OP_PUSHNUM_1 OP_PUSHBYTES_32 03ef01687e4e38878bf28f4be08200368926e42cc2b591792de21753b31d4e19",
        "scriptpubkey_type": "v1_p2tr",
        "scriptpubkey_address": "bc1pq0hsz6r7fcug0zlj3a97pqsqx6yjdepvc26ez7fdugt48vcafcvsqfhcr5",
        "value": 5000
      },
      "scriptsig": "",
      "scriptsig_asm": "",
      "witness": [
        "04145c9e830d7e9132c4c750803ae418f549735614d8ffc58feabd06b841e9b0a4a1204dc98d9b5e01785357d6b307ccd8771f68889bcc944d21f8da6786d7b6",
        "20e08c3e61118aa0975ee341481986443c67bd387184b812fb6acc1a74d365f729ac0063036f726401011e6170706c69636174696f6e2f6a736f6e3b636861727365743d7574662d38004cbf7b2270223a22706f772d3230222c226f70223a226d696e74222c227469636b223a2250455045222c22616d74223a2231303030222c22736f6c7574696f6e223a22504550453a6263317171633839726a7563797a776c77786d7761646c7763797139353668726e726b6a6833637361723a303030303030303030303030303030303030303139393431613561653132383937363539383134343239323533333030353762306461393666336465613163353a3333373832383830373531227d68",
        "c0e47fcdfc9fccfd58b0f5c597e262b2697cbea2e833252a6408e4049b7a874765"
      ],
      "is_coinbase": false,
      "sequence": 4294967293
    }
  ],
  "vout": [
    {
      "scriptpubkey": "0014060e51cb98209df71b6eeb7eec1005a6ae398ed2",
      "scriptpubkey_asm": "OP_0 OP_PUSHBYTES_20 060e51cb98209df71b6eeb7eec1005a6ae398ed2",
      "scriptpubkey_type": "v0_p2wpkh",
      "scriptpubkey_address": "bc1qqc89rjucyzwlwxmwadlwcyq956hrnrkjh3csar",
      "value": 546
    },
    {
      "scriptpubkey": "00141b5b7dfe8a3971c53c50a2b599bbde29ec812719",
      "scriptpubkey_asm": "OP_0 OP_PUSHBYTES_20 1b5b7dfe8a3971c53c50a2b599bbde29ec812719",
      "scriptpubkey_type": "v0_p2wpkh",
      "scriptpubkey_address": "bc1qrddhml5289cu20zs526enw7798kgzfcexp52c6",
      "value": 1970
    }
  ],
  "size": 486,
  "weight": 825,
  "fee": 2484,
  "status": {
    "confirmed": true,
    "block_height": 834460,
    "block_hash": "00000000000000000000484a79b643b2524bbce82e5d8a442013fa5b8905ed98",
    "block_time": 1710307468
  },
  "hex": "020000000001010d3f2bf1bfd7d83de6a7f7de5a5ec1c410b1aa403d02973a481da429317b6a1b0000000000fdffffff022202000000000000160014060e51cb98209df71b6eeb7eec1005a6ae398ed2b2070000000000001600141b5b7dfe8a3971c53c50a2b599bbde29ec812719034004145c9e830d7e9132c4c750803ae418f549735614d8ffc58feabd06b841e9b0a4a1204dc98d9b5e01785357d6b307ccd8771f68889bcc944d21f8da6786d7b6fd0c0120e08c3e61118aa0975ee341481986443c67bd387184b812fb6acc1a74d365f729ac0063036f726401011e6170706c69636174696f6e2f6a736f6e3b636861727365743d7574662d38004cbf7b2270223a22706f772d3230222c226f70223a226d696e74222c227469636b223a2250455045222c22616d74223a2231303030222c22736f6c7574696f6e223a22504550453a6263317171633839726a7563797a776c77786d7761646c7763797139353668726e726b6a6833637361723a303030303030303030303030303030303030303139393431613561653132383937363539383134343239323533333030353762306461393666336465613163353a3333373832383830373531227d6821c0e47fcdfc9fccfd58b0f5c597e262b2697cbea2e833252a6408e4049b7a87476500000000"
}