{
  "txid": "1e05deb3e9b1a05c5a29b164b1593ba4a0672b186772bc6524462a81328cbb0e",
  "version": 1,
  "locktime": 0,
  "vin": [
    {
      "txid": "831cdbc79a4a6f7f583e0e16cc3045f3b92bc39a66f8dd7ce56a8369410875a8",
      "vout": 1,
      "prevout": {
        "scriptpubkey": "76a9145e65c2dcf968001e02e6ec3ee1decce993e4799d88ac",
        "scriptpubkey_asm": "OP_DUP OP_HASH160 OP_PUSHBYTES_20 5e65c2dcf968001e02e6ec3ee1decce993e4799d OP_EQUALVERIFY OP_CHECKSIG",
        "scriptpubkey_type": "p2pkh",
        "scriptpubkey_address": "19c8RXLhpDSwaJ4QdxxNRKRjyfUEMGHp7Y",
        "value": 7529
      },
      "scriptsig": "483045022100c465a0f871f8c164b1b247c778fff64005aab66e6a8a22f666d6bb78ac39aa5b02202e49550f9ea5493276e60ddb807f36e01c921e3836cc3bfff4b8cad318172eb90121037b775cd1aff02a5e128185018adcca47e15a68e2d3dba1c78f48a39364d9ff6e",
      "scriptsig_asm": "OP_PUSHBYTES_72 3045022100c465a0f871f8c164b1b247c778fff64005aab66e6a8a22f666d6bb78ac39aa5b02202e49550f9ea5493276e60ddb807f36e01c921e3836cc3bfff4b8cad318172eb901 OP_PUSHBYTES_33 037b775cd1aff02a5e128185018adcca47e15a68e2d3dba1c78f48a39364d9ff6e",
      "is_coinbase": false,
      "sequence": 4294967295
    }
  ],
  "vout": [
    {
      "scriptpubkey": "001418e5a0b3c5ad372ad6133d4ce0a0edcc069b7110",
      "scriptpubkey_asm": "OP_0 OP_PUSHBYTES_20 18e5a0b3c5ad372ad6133d4ce0a0edcc069b7110",
      "scriptpubkey_type": "v0_p2wpkh",
      "scriptpubkey_address": "bc1qrrj6pv7945mj44sn84xwpg8desrfkugshdhamh",
      "value": 4817
    }
  ],
  "size": 189,
  "weight": 756,
  "fee": 2712,
  "status": {
    "confirmed": true,
    "block_height": 834552,
    "block_hash": "00000000000000000001dd0468a70c94f619251d286585cff57aeb4bd9ede330",
    "block_time": 1710355598
  },
  "hex": "0100000001a875084169836ae57cddf8669ac32bb9f34530cc160e3e587f6f4a9ac7db1c83010000006b483045022100c465a0f871f8c164b1b247c778fff64005aab66e6a8a22f666d6bb78ac39aa5b02202e49550f9ea5493276e60ddb807f36e01c921e3836cc3bfff4b8cad318172eb90121037b775cd1aff02a5e128185018adcca47e15a68e2d3dba1c78f48a39364d9ff6effffffff01d11200000000000016001418e5a0b3c5ad372ad6133d4ce0a0edcc069b711000000000"
}