{
  "txid": "1e08b4da220dd0fa4aba50feaf5c2c7e6451da2ad81fa3834300efd733c036ab",
  "version": 2,
  "locktime": 834637,
  "vin": [
    {
      "txid": "5d5683aade2360bd2cf1d69d738886298ca2a80b22c3b5cfd42f6980d9100bf1",
      "vout": 0,
      "prevout": {
        "scriptpubkey": "0014050f08e02fb39c130b3ca37fe921c800f444985d",
        "scriptpubkey_asm": "OP_0 OP_PUSHBYTES_20 050f08e02fb39c130b3ca37fe921c800f444985d",
        "scriptpubkey_type": "v0_p2wpkh",
        "scriptpubkey_address": "bc1qq58s3cp0kwwpxzeu5dl7jgwgqr6yfxza9cp3nl",
        "value": 704593
      },
      "scriptsig": "",
      "scriptsig_asm": "",
      "witness": [
        "304402203512f0f9dd3e46efef7919b9eb15aed6911d113fe96c15540fc278f7d92706dd02200407db91dddbacc699ac906970adc1bed088dc3747a4bf353088436bf6eebc8001",
        "034384d503983b5973a6f4113bd2dcd5739e2cbf432f17332b2fd3f2a662376192"
      ],
      "is_coinbase": false,
      "sequence": 4294967293
    },
    {
      "txid": "f8d372819d2b68318910393029d6b8137ad276d2b92dc8d298145424cc667999",
      "vout": 2,
      "prevout": {
        "scriptpubkey": "00144cdbf90c85b8e1a7d0d2cf027b461c07e39ce7c5",
        "scriptpubkey_asm": "OP_0 OP_PUSHBYTES_20 4cdbf90c85b8e1a7d0d2cf027b461c07e39ce7c5",
        "scriptpubkey_type": "v0_p2wpkh",
        "scriptpubkey_address": "bc1qfndljry9hrs605xjeup8k3suql3eee79zanjxz",
        "value": 78948
      },
      "scriptsig": "",
      "scriptsig_asm": "",
      "witness": [
        "30440220643d33e22538bf778ed904e70109c429ac25f26cfbb997775adcb544d97cfbec022024757daec2c92a891f278e2532707a9f23d9756b8d09747ab4dfbfc450bf153d01",
        "02da9b3d8c264075bd3664172a40efb47756444f420fda7b87673e2be6d02b2b20"
      ],
      "is_coinbase": false,
      "sequence": 4294967293
    }
  ],
  "vout": [
    {
      "scriptpubkey": "a914695ff315d278bc59dc77c0a94d10174ef1e4c9b187",
      "scriptpubkey_asm": "OP_HASH160 OP_PUSHBYTES_20 695ff315d278bc59dc77c0a94d10174ef1e4c9b1 OP_EQUAL",
      "scriptpubkey_type": "p2sh",
      "scriptpubkey_address": "3BJBpNrkyQWfM5UiUMo3LEcxKxFgAfStP1",
      "value": 20785
    },
    {
      "scriptpubkey": "a9145ddf63b2e8c724b4979d82d1094ebcb6d72bb08c87",
      "scriptpubkey_asm": "OP_HASH160 OP_PUSHBYTES_20 5ddf63b2e8c724b4979d82d1094ebcb6d72bb08c OP_EQUAL",
      "scriptpubkey_type": "p2sh",
      "scriptpubkey_address": "3AFNNkk2RNAHt4RxyNX5Nt8veNAt27632v",
      "value": 14841
    },
    {
      "scriptpubkey": "001420a21b0dc2dc7531bc09bcae47452b7f6fb8bc56",
      "scriptpubkey_asm": "OP_0 OP_PUSHBYTES_20 20a21b0dc2dc7531bc09bcae47452b7f6fb8bc56",
      "scriptpubkey_type": "v0_p2wpkh",
      "scriptpubkey_address": "bc1qyz3pkrwzm36nr0qfhjhyw3ft0ahm30zky8zxny",
      "value": 23792
    },
    {
      "scriptpubkey": "0014a78461a000577d39abeb3ca3f4bf069bfed36b00",
      "scriptpubkey_asm": "OP_0 OP_PUSHBYTES_20 a78461a000577d39abeb3ca3f4bf069bfed36b00",
      "scriptpubkey_type": "v0_p2wpkh",
      "scriptpubkey_address": "bc1q57zxrgqq2a7nn2lt8j3lf0cxn0ldx6cqd5w5vy",
      "value": 21894
    },
    {
      "scriptpubkey": "0014c3c7f992d3906324f28c48d35eb4706363ce5023",
      "scriptpubkey_asm": "OP_0 OP_PUSHBYTES_20 c3c7f992d3906324f28c48d35eb4706363ce5023",
      "scriptpubkey_type": "v0_p2wpkh",
      "scriptpubkey_address": "bc1qc0rlnyknjp3jfu5vfrf4adrsvd3uu5prydw5y8",
      "value": 93858
    },
    {
      "scriptpubkey": "001494b00f90b1ebd520022133bdc3731c7614d46143",
      "scriptpubkey_asm": "OP_0 OP_PUSHBYTES_20 94b00f90b1ebd520022133bdc3731c7614d46143",
      "scriptpubkey_type": "v0_p2wpkh",
      "scriptpubkey_address": "bc1qjjcqly93a02jqq3pxw7uxucuwc2dgc2r9t4z9r",
      "value": 33379
    },
    {
      "scriptpubkey": "0014faf0b41934846c40c86bf6e67d09ec6dddba7406",
      "scriptpubkey_asm": "OP_0 OP_PUSHBYTES_20 faf0b41934846c40c86bf6e67d09ec6dddba7406",
      "scriptpubkey_type": "v0_p2wpkh",
      "scriptpubkey_address": "bc1qltctgxf5s3kypjrt7mn86z0vdhwm5aqxqmcgzn",
      "value": 88378
    },
    {
      "scriptpubkey": "0014fbbb22287b3b54995d6090d7898d0c97ef26794f",
      "scriptpubkey_asm": "OP_0 OP_PUSHBYTES_20 fbbb22287b3b54995d6090d7898d0c97ef26794f",
      "scriptpubkey_type": "v0_p2wpkh",
      "scriptpubkey_address": "bc1qlwajy2rm8d2fjhtqjrtcnrgvjlhjv720v33k8p",
      "value": 476318
    }
  ],
  "size": 558,
  "weight": 1584,
  "fee": 10296,
  "status": {
    "confirmed": true,
    "block_height": 834638,
    "block_hash": "000000000000000000025f742c626208ac87e0b7d15054abb4a19ca2d735a54e",
    "block_time": 1710405325
  },
  "hex": "02000000000102f10b10d980692fd4cfb5c3220ba8a28c298688739dd6f12cbd6023deaa83565d0000000000fdffffff997966cc24541498d2c82db9d276d27a13b8d6293039108931682b9d8172d3f80200000000fdffffff08315100000000000017a914695ff315d278bc59dc77c0a94d10174ef1e4c9b187f93900000000000017a9145ddf63b2e8c724b4979d82d1094ebcb6d72bb08c87f05c00000000000016001420a21b0dc2dc7531bc09bcae47452b7f6fb8bc568655000000000000160014a78461a000577d39abeb3ca3f4bf069bfed36b00a26e010000000000160014c3c7f992d3906324f28c48d35eb4706363ce5023638200000000000016001494b00f90b1ebd520022133bdc3731c7614d461433a59010000000000160014faf0b41934846c40c86bf6e67d09ec6dddba74069e44070000000000160014fbbb22287b3b54995d6090d7898d0c97ef26794f0247304402203512f0f9dd3e46efef7919b9eb15aed6911d113fe96c15540fc278f7d92706dd02200407db91dddbacc699ac906970adc1bed088dc3747a4bf353088436bf6eebc800121034384d503983b5973a6f4113bd2dcd5739e2cbf432f17332b2fd3f2a662376192024730440220643d33e22538bf778ed904e70109c429ac25f26cfbb997775adcb544d97cfbec022024757daec2c92a891f278e2532707a9f23d9756b8d09747ab4dfbfc450bf153d012102da9b3d8c264075bd3664172a40efb47756444f420fda7b87673e2be6d02b2b204dbc0c00"
}