{
  "txid": "1e2219a02d4ab33bf2278b5109e007a06049a6bf9301a5efc9d6655b2c89fc5b",
  "version": 1,
  "locktime": 0,
  "vin": [
    {
      "txid": "3fe503253e7d86443a30929ed2a49a7e8eb1c4b00aea3e9fa673c923d31fb758",
      "vout": 1,
      "prevout": {
        "scriptpubkey": "0014f65bc1bbcb6ba3323781155b4f0151eb69133efd",
        "scriptpubkey_asm": "OP_0 OP_PUSHBYTES_20 f65bc1bbcb6ba3323781155b4f0151eb69133efd",
        "scriptpubkey_type": "v0_p2wpkh",
        "scriptpubkey_address": "bc1q7edurw7tdw3nydupz4d57q23ad53x0haagx7rl",
        "value": 546775
      },
      "scriptsig": "",
      "scriptsig_asm": "",
      "witness": [
        "304402205840c0c78db66605f20d6f9370c1409f73ec3fdb376b77a140e36f51682b1e830220675b0ef5ee68b4a2edc883bd676384aeed81aa8b85f7d55c6b3cf7c9837eb43601",
        "0236804c4f05ebf9c69950da66c5fd89f7ce781ebbd6373881bd4feea45ff173f4"
      ],
      "is_coinbase": false,
      "sequence": 4294967295
    },
    {
      "txid": "70ecab2b6b21711b86246603ae7c07aa042d1f9fbd0bd3679cd1a21f7844fc30",
      "vout": 1,
      "prevout": {
        "scriptpubkey": "0014142c589825c7113a08a13e4bebb6f53d691bf0dd",
        "scriptpubkey_asm": "OP_0 OP_PUSHBYTES_20 142c589825c7113a08a13e4bebb6f53d691bf0dd",
        "scriptpubkey_type": "v0_p2wpkh",
        "scriptpubkey_address": "bc1qzsk93xp9cugn5z9p8e97hdh48453huxaxy06d5",
        "value": 1793454
      },
      "scriptsig": "",
      "scriptsig_asm": "",
      "witness": [
        "3045022100dd59b34f90df76d8710ca31e0bb30796a80167a2ada007d9dfd4d0e5196188f8022010b181318cd481768b3ff750bb2fe2c92076ae8892930a274b7734941886d0e401",
        "02c6fdcd8798255054b68b1e89574792a666d031cd89150bf9c46db74e8b2f465d"
      ],
      "is_coinbase": false,
      "sequence": 4294967295
    }
  ],
  "vout": [
    {
      "scriptpubkey": "76a91442b9b00a97a60fbb73719923b08d7f8da2e7c16c88ac",
      "scriptpubkey_asm": "OP_DUP OP_HASH160 OP_PUSHBYTES_20 42b9b00a97a60fbb73719923b08d7f8da2e7c16c OP_EQUALVERIFY OP_CHECKSIG",
      "scriptpubkey_type": "p2pkh",
      "scriptpubkey_address": "175p3U1gpx4rJtJhBZMjgk4CXCzfuobduM",
      "value": 1787085
    },
    {
      "scriptpubkey": "0014be277d0a2bac7b08448d9b7079d2594b9c671c99",
      "scriptpubkey_asm": "OP_0 OP_PUSHBYTES_20 be277d0a2bac7b08448d9b7079d2594b9c671c99",
      "scriptpubkey_type": "v0_p2wpkh",
      "scriptpubkey_address": "bc1qhcnh6z3t43ass3ydndc8n5jefwwxw8yem5phuv",
      "value": 549985
    }
  ],
  "size": 374,
  "weight": 845,
  "fee": 3159,
  "status": {
    "confirmed": true,
    "block_height": 834638,
    "block_hash": "000000000000000000025f742c626208ac87e0b7d15054abb4a19ca2d735a54e",
    "block_time": 1710405325
  },
  "hex": "0100000000010258b71fd323c973a69f3eea0ab0c4b18e7e9aa4d29e92303a44867d3e2503e53f0100000000ffffffff30fc44781fa2d19c67d30bbd9f1f2d04aa077cae036624861b71216b2babec700100000000ffffffff02cd441b00000000001976a91442b9b00a97a60fbb73719923b08d7f8da2e7c16c88ac6164080000000000160014be277d0a2bac7b08448d9b7079d2594b9c671c990247304402205840c0c78db66605f20d6f9370c1409f73ec3fdb376b77a140e36f51682b1e830220675b0ef5ee68b4a2edc883bd676384aeed81aa8b85f7d55c6b3cf7c9837eb43601210236804c4f05ebf9c69950da66c5fd89f7ce781ebbd6373881bd4feea45ff173f402483045022100dd59b34f90df76d8710ca31e0bb30796a80167a2ada007d9dfd4d0e5196188f8022010b181318cd481768b3ff750bb2fe2c92076ae8892930a274b7734941886d0e4012102c6fdcd8798255054b68b1e89574792a666d031cd89150bf9c46db74e8b2f465d00000000"
}