{
  "txid": "1e4927d1e0f67bb9229888755af9e9482fb9947bedf7ab9bdb6b66d6703c14cc",
  "version": 2,
  "locktime": 0,
  "vin": [
    {
      "txid": "4f8bd84fadaafd4a2d8e39f940a171e0f885a166936c9c13c27aeb3a24fb7e7a",
      "vout": 70,
      "prevout": {
        "scriptpubkey": "5120c86028af3a20c1d42082aaeab29f004c3f758f9101a351b444c09dbbe111e6ef",
        "scriptpubkey_asm": "OP_PUSHNUM_1 OP_PUSHBYTES_32 c86028af3a20c1d42082aaeab29f004c3f758f9101a351b444c09dbbe111e6ef",
        "scriptpubkey_type": "v1_p2tr",
        "scriptpubkey_address": "bc1pepsz3te6yrqaggyz4t4t98cqfslhtru3qx34rdzyczwmhcg3umhsfytxac",
        "value": 2461
      },
      "scriptsig": "",
      "scriptsig_asm": "",
      "witness": [
        "f99a18e17d9f68d9a6b23e21b8a1eaa025cc8a3c59f35faddb585a7dab13eb9356cac50705b354796bff488b3818b56ea4fef031af536e1f1b6c318d3d9a7e44",
        "203f4509992bc34b15919155cfc1f06faf30eaf574c4c081e1fa1d46a8d4da02a7ac0063036f726401010a746578742f706c61696e00367b2270223a226272632d3230222c227469636b223a2261616161222c226f70223a226d696e74222c22616d74223a223130303030227d68",
        "c13f4509992bc34b15919155cfc1f06faf30eaf574c4c081e1fa1d46a8d4da02a7"
      ],
      "is_coinbase": false,
      "sequence": 4294967293
    }
  ],
  "vout": [
    {
      "scriptpubkey": "51206d9cd6cb03a216891beaf18c5e00bae230f3306b2f8f395ee0f44d51534e6bb7",
      "scriptpubkey_asm": "OP_PUSHNUM_1 OP_PUSHBYTES_32 6d9cd6cb03a216891beaf18c5e00bae230f3306b2f8f395ee0f44d51534e6bb7",
      "scriptpubkey_type": "v1_p2tr",
      "scriptpubkey_address": "bc1pdkwddjcr5gtgjxl27xx9uq96ugc0xvrt978njhhq73x4z56wdwmssdnt3k",
      "value": 546
    }
  ],
  "size": 307,
  "weight": 589,
  "fee": 1915,
  "status": {
    "confirmed": true,
    "block_height": 834460,
    "block_hash": "00000000000000000000484a79b643b2524bbce82e5d8a442013fa5b8905ed98",
    "block_time": 1710307468
  },
  "hex": "020000000001017a7efb243aeb7ac2139c6c9366a185f8e071a140f9398e2d4afdaaad4fd88b4f4600000000fdffffff0122020000000000002251206d9cd6cb03a216891beaf18c5e00bae230f3306b2f8f395ee0f44d51534e6bb70340f99a18e17d9f68d9a6b23e21b8a1eaa025cc8a3c59f35faddb585a7dab13eb9356cac50705b354796bff488b3818b56ea4fef031af536e1f1b6c318d3d9a7e446e203f4509992bc34b15919155cfc1f06faf30eaf574c4c081e1fa1d46a8d4da02a7ac0063036f726401010a746578742f706c61696e00367b2270223a226272632d3230222c227469636b223a2261616161222c226f70223a226d696e74222c22616d74223a223130303030227d6821c13f4509992bc34b15919155cfc1f06faf30eaf574c4c081e1fa1d46a8d4da02a700000000"
}