{
  "txid": "1e698bfa4efa5a08ca99e64cac5dddbbfab9bf5a0c0c2d47098d85a5c3ca99ad",
  "version": 2,
  "locktime": 0,
  "vin": [
    {
      "txid": "0a57fc25738767d33e2fb1da5f8de567ac6e8f8e5c4f5dbf498170c58b74d793",
      "vout": 2,
      "prevout": {
        "scriptpubkey": "0014f60834ef165253c571b11ce9fa74e46692fc5ec1",
        "scriptpubkey_asm": "OP_0 OP_PUSHBYTES_20 f60834ef165253c571b11ce9fa74e46692fc5ec1",
        "scriptpubkey_type": "v0_p2wpkh",
        "scriptpubkey_address": "bc1q7cyrfmck2ffu2ud3rn5l5a8yv6f0chkp0zpemf",
        "value": 846761705
      },
      "scriptsig": "",
      "scriptsig_asm": "",
      "witness": [
        "30440220693c8a22a65c14c4caad8e3179fc0b23762cdadc42805cbc79c48f017ed6d01802206ed424b78a12570372ff8b5ce3a8a731220c2cb2a6ce08ca7190f131e460af7401",
        "026e5628506ecd33242e5ceb5fdafe4d3066b5c0f159b3c05a621ef65f177ea286"
      ],
      "is_coinbase": false,
      "sequence": 4294967293
    }
  ],
  "vout": [
    {
      "scriptpubkey": "76a91464895c982f4521861e63f24f6957ff6a07cab1cb88ac",
      "scriptpubkey_asm": "OP_DUP OP_HASH160 OP_PUSHBYTES_20 64895c982f4521861e63f24f6957ff6a07cab1cb OP_EQUALVERIFY OP_CHECKSIG",
      "scriptpubkey_type": "p2pkh",
      "scriptpubkey_address": "1AAb8EyzMrCMMrrT3EgfSLiyaqFui3nxew",
      "value": 219090
    },
    {
      "scriptpubkey": "0014e70023124340447303e4a1ba2372db891be6679f",
      "scriptpubkey_asm": "OP_0 OP_PUSHBYTES_20 e70023124340447303e4a1ba2372db891be6679f",
      "scriptpubkey_type": "v0_p2wpkh",
      "scriptpubkey_address": "bc1quuqzxyjrgpz8xqly5xazxukm3yd7veulpaj44w",
      "value": 973273
    },
    {
      "scriptpubkey": "0014f60834ef165253c571b11ce9fa74e46692fc5ec1",
      "scriptpubkey_asm": "OP_0 OP_PUSHBYTES_20 f60834ef165253c571b11ce9fa74e46692fc5ec1",
      "scriptpubkey_type": "v0_p2wpkh",
      "scriptpubkey_address": "bc1q7cyrfmck2ffu2ud3rn5l5a8yv6f0chkp0zpemf",
      "value": 845564002
    }
  ],
  "size": 256,
  "weight": 697,
  "fee": 5340,
  "status": {
    "confirmed": true,
    "block_height": 834638,
    "block_hash": "000000000000000000025f742c626208ac87e0b7d15054abb4a19ca2d735a54e",
    "block_time": 1710405325
  },
  "hex": "0200000000010193d7748bc5708149bf5d4f5c8e8f6eac67e58d5fdab12f3ed367877325fc570a0200000000fdffffff03d2570300000000001976a91464895c982f4521861e63f24f6957ff6a07cab1cb88acd9d90e0000000000160014e70023124340447303e4a1ba2372db891be6679f6248663200000000160014f60834ef165253c571b11ce9fa74e46692fc5ec1024730440220693c8a22a65c14c4caad8e3179fc0b23762cdadc42805cbc79c48f017ed6d01802206ed424b78a12570372ff8b5ce3a8a731220c2cb2a6ce08ca7190f131e460af740121026e5628506ecd33242e5ceb5fdafe4d3066b5c0f159b3c05a621ef65f177ea28600000000"
}