{
  "txid": "1e7e9f8eb8cb5791b0939390be2f915d12327adcf792a39396a63d0fb0dacd09",
  "version": 2,
  "locktime": 0,
  "vin": [
    {
      "txid": "6d2e1a44eb44f5de1d4a9bf675a0242b508f7bfe39d033513eddd9b05af4ffd5",
      "vout": 3,
      "prevout": {
        "scriptpubkey": "0014e27725ff317aa4f2011157028b93d04ae48fe2fe",
        "scriptpubkey_asm": "OP_0 OP_PUSHBYTES_20 e27725ff317aa4f2011157028b93d04ae48fe2fe",
        "scriptpubkey_type": "v0_p2wpkh",
        "scriptpubkey_address": "bc1qufmjtle302j0yqg32upghy7sftjglch7umur40",
        "value": 217929
      },
      "scriptsig": "",
      "scriptsig_asm": "",
      "witness": [
        "3045022100acd40bf5bbe7fc4c286273038d49a98f8cae88dcc675d0af3dde67ba047ae06d022024f522b4f926c733d8901cb018c636e048971ff6b71409df07226121a69dcbbc01",
        "02fb4fee8b08d2fb0fdc68e7452dbf082aa64adb92275eb73782bfdbec4f128d68"
      ],
      "is_coinbase": false,
      "sequence": 4294967295
    }
  ],
  "vout": [
    {
      "scriptpubkey": "00145efd30dc1221e98c5d1d30aa74f88debb6a82e8e",
      "scriptpubkey_asm": "OP_0 OP_PUSHBYTES_20 5efd30dc1221e98c5d1d30aa74f88debb6a82e8e",
      "scriptpubkey_type": "v0_p2wpkh",
      "scriptpubkey_address": "bc1qtm7nphqjy85cchgaxz48f7ydawm2st5wzd95ec",
      "value": 333
    },
    {
      "scriptpubkey": "5121024f3289b09f01f004fda719bb3a1f4424bfbeb584ea87ee33cb4379c3b5f2004f2102be49c5298a59efe8bf6cb1fad0fe3b92df9116eb0e6606f132a4f9e91c3067d72102020202020202020202020202020202020202020202020202020202020202020253ae",
      "scriptpubkey_asm": "OP_PUSHNUM_1 OP_PUSHBYTES_33 024f3289b09f01f004fda719bb3a1f4424bfbeb584ea87ee33cb4379c3b5f2004f OP_PUSHBYTES_33 02be49c5298a59efe8bf6cb1fad0fe3b92df9116eb0e6606f132a4f9e91c3067d7 OP_PUSHBYTES_33 020202020202020202020202020202020202020202020202020202020202020202 OP_PUSHNUM_3 OP_CHECKMULTISIG",
      "scriptpubkey_type": "unknown",
      "value": 801
    },
    {
      "scriptpubkey": "512102708e23fc2e3ce78edfb262e3e2c7f17748e641daffe7ab9dc6ba1439de726e6521036871b632c744cd98151e2e7c9f16a0352ded657321e1e83e88d1304f703f96e22102020202020202020202020202020202020202020202020202020202020202020253ae",
      "scriptpubkey_asm": "OP_PUSHNUM_1 OP_PUSHBYTES_33 02708e23fc2e3ce78edfb262e3e2c7f17748e641daffe7ab9dc6ba1439de726e65 OP_PUSHBYTES_33 036871b632c744cd98151e2e7c9f16a0352ded657321e1e83e88d1304f703f96e2 OP_PUSHBYTES_33 020202020202020202020202020202020202020202020202020202020202020202 OP_PUSHNUM_3 OP_CHECKMULTISIG",
      "scriptpubkey_type": "unknown",
      "value": 801
    },
    {
      "scriptpubkey": "0014e27725ff317aa4f2011157028b93d04ae48fe2fe",
      "scriptpubkey_asm": "OP_0 OP_PUSHBYTES_20 e27725ff317aa4f2011157028b93d04ae48fe2fe",
      "scriptpubkey_type": "v0_p2wpkh",
      "scriptpubkey_address": "bc1qufmjtle302j0yqg32upghy7sftjglch7umur40",
      "value": 199780
    }
  ],
  "size": 451,
  "weight": 1474,
  "fee": 16214,
  "status": {
    "confirmed": true,
    "block_height": 834638,
    "block_hash": "000000000000000000025f742c626208ac87e0b7d15054abb4a19ca2d735a54e",
    "block_time": 1710405325
  },
  "hex": "02000000000101d5fff45ab0d9dd3e5133d039fe7b8f502b24a075f69b4a1ddef544eb441a2e6d0300000000ffffffff044d010000000000001600145efd30dc1221e98c5d1d30aa74f88debb6a82e8e2103000000000000695121024f3289b09f01f004fda719bb3a1f4424bfbeb584ea87ee33cb4379c3b5f2004f2102be49c5298a59efe8bf6cb1fad0fe3b92df9116eb0e6606f132a4f9e91c3067d72102020202020202020202020202020202020202020202020202020202020202020253ae210300000000000069512102708e23fc2e3ce78edfb262e3e2c7f17748e641daffe7ab9dc6ba1439de726e6521036871b632c744cd98151e2e7c9f16a0352ded657321e1e83e88d1304f703f96e22102020202020202020202020202020202020202020202020202020202020202020253ae640c030000000000160014e27725ff317aa4f2011157028b93d04ae48fe2fe02483045022100acd40bf5bbe7fc4c286273038d49a98f8cae88dcc675d0af3dde67ba047ae06d022024f522b4f926c733d8901cb018c636e048971ff6b71409df07226121a69dcbbc012102fb4fee8b08d2fb0fdc68e7452dbf082aa64adb92275eb73782bfdbec4f128d6800000000"
}