{
  "txid": "1e8dd11dc725fe3f65f3310412b9d56e9d8081609aed8cb55bce973cd515fc72",
  "version": 2,
  "locktime": 0,
  "vin": [
    {
      "txid": "3f69fae8ca9bdd774ca5294e86509449f431bb44e2206cae9f7f495b7952d9e2",
      "vout": 1,
      "prevout": {
        "scriptpubkey": "5120498b4cc9570bbd2f63694b43b8060693b3e57e61bc750ab1848bc96098ae471f",
        "scriptpubkey_asm": "OP_PUSHNUM_1 OP_PUSHBYTES_32 498b4cc9570bbd2f63694b43b8060693b3e57e61bc750ab1848bc96098ae471f",
        "scriptpubkey_type": "v1_p2tr",
        "scriptpubkey_address": "bc1pfx95ej2hpw7j7cmffdpmspsxjwe72lnph36s4vvy30ykpx9wgu0svlk9td",
        "value": 2996
      },
      "scriptsig": "",
      "scriptsig_asm": "",
      "witness": [
        "dc797b1035ac96687d06afb703781435808faf6ba4168de46c2512f311ca5864c8184a7e2e88b9f659e6c43c314dd4ee3e5eff1e733e324877cb18463c9117d8",
        "2085c9ca24ec182d54e3415f0800bdc695c18b6653d46a7a072f7f5d7e29f4448cac0063036f726401011e6170706c69636174696f6e2f6a736f6e3b636861727365743d7574662d38004cb77b2270223a22706f772d3230222c226f70223a226d696e74222c227469636b223a2250455045222c22616d74223a2231303030222c22736f6c7574696f6e223a22504550453a334d524d3246744a42504c46315958564766504d33656556746675364446734762623a303030303030303030303030303030303030303139393431613561653132383937363539383134343239323533333030353762306461393666336465613163353a3332393334373838323535227d68",
        "c16b70a06f37e9fa1ff7e7bec8bd1210228b25051d0c17b5264cdd8c73b544f454"
      ],
      "is_coinbase": false,
      "sequence": 4294967295
    }
  ],
  "vout": [
    {
      "scriptpubkey": "a914d86bcd8c487ad519e95c6557e7463d579cce14a287",
      "scriptpubkey_asm": "OP_HASH160 OP_PUSHBYTES_20 d86bcd8c487ad519e95c6557e7463d579cce14a2 OP_EQUAL",
      "scriptpubkey_type": "p2sh",
      "scriptpubkey_address": "3MRM2FtJBPLF1YXVGfPM3eeVtfu6DFsGbb",
      "value": 546
    }
  ],
  "size": 448,
  "weight": 697,
  "fee": 2450,
  "status": {
    "confirmed": true,
    "block_height": 834460,
    "block_hash": "00000000000000000000484a79b643b2524bbce82e5d8a442013fa5b8905ed98",
    "block_time": 1710307468
  },
  "hex": "02000000000101e2d952795b497f9fae6c20e244bb31f4499450864e29a54c77dd9bcae8fa693f0100000000ffffffff01220200000000000017a914d86bcd8c487ad519e95c6557e7463d579cce14a2870340dc797b1035ac96687d06afb703781435808faf6ba4168de46c2512f311ca5864c8184a7e2e88b9f659e6c43c314dd4ee3e5eff1e733e324877cb18463c9117d8fd04012085c9ca24ec182d54e3415f0800bdc695c18b6653d46a7a072f7f5d7e29f4448cac0063036f726401011e6170706c69636174696f6e2f6a736f6e3b636861727365743d7574662d38004cb77b2270223a22706f772d3230222c226f70223a226d696e74222c227469636b223a2250455045222c22616d74223a2231303030222c22736f6c7574696f6e223a22504550453a334d524d3246744a42504c46315958564766504d33656556746675364446734762623a303030303030303030303030303030303030303139393431613561653132383937363539383134343239323533333030353762306461393666336465613163353a3332393334373838323535227d6821c16b70a06f37e9fa1ff7e7bec8bd1210228b25051d0c17b5264cdd8c73b544f45400000000"
}