{
  "txid": "1e93897df26f965d16de3666a7e5cea7c5d6a826e4a4465bec67c934ef0df98c",
  "version": 2,
  "locktime": 0,
  "vin": [
    {
      "txid": "cc4afcf04e85ecac14367fbbeccc0eeea08e305a07603379d88259ced9af7946",
      "vout": 0,
      "prevout": {
        "scriptpubkey": "76a914bf4d2245e8262cc6d2a02ae4556974c6aedc604588ac",
        "scriptpubkey_asm": "OP_DUP OP_HASH160 OP_PUSHBYTES_20 bf4d2245e8262cc6d2a02ae4556974c6aedc6045 OP_EQUALVERIFY OP_CHECKSIG",
        "scriptpubkey_type": "p2pkh",
        "scriptpubkey_address": "1JSWTzjqW7WAoUctPFaUNyr2v1d7SD8KTW",
        "value": 1407859
      },
      "scriptsig": "48304502210089fea0a2afea23c74faac3fe37b28228d86e6814052f787b8a09f0a59592fa5302205f144d7a1810c37e1960d847ca90a5d69ff81216e82b0939fe37dc9df57c8100012102a3093562e7ba2bb888003940c1b90336d9b6a8d7ec555474889f71e67e5dd491",
      "scriptsig_asm": "OP_PUSHBYTES_72 304502210089fea0a2afea23c74faac3fe37b28228d86e6814052f787b8a09f0a59592fa5302205f144d7a1810c37e1960d847ca90a5d69ff81216e82b0939fe37dc9df57c810001 OP_PUSHBYTES_33 02a3093562e7ba2bb888003940c1b90336d9b6a8d7ec555474889f71e67e5dd491",
      "is_coinbase": false,
      "sequence": 4294967295
    }
  ],
  "vout": [
    {
      "scriptpubkey": "a9145b2ec770425f040abcb3fb7f7b64d0cb52282e2e87",
      "scriptpubkey_asm": "OP_HASH160 OP_PUSHBYTES_20 5b2ec770425f040abcb3fb7f7b64d0cb52282e2e OP_EQUAL",
      "scriptpubkey_type": "p2sh",
      "scriptpubkey_address": "3A19TGPd2R5sceLKcjtR6WQnmiBcLQ7fib",
      "value": 1400545
    }
  ],
  "size": 190,
  "weight": 760,
  "fee": 7314,
  "status": {
    "confirmed": true,
    "block_height": 834464,
    "block_hash": "0000000000000000000177a0869a911a2b65c9bdcd5a8bcb02b68f305bee848e",
    "block_time": 1710308296
  },
  "hex": "02000000014679afd9ce5982d8793360075a308ea0ee0eccecbb7f3614acec854ef0fc4acc000000006b48304502210089fea0a2afea23c74faac3fe37b28228d86e6814052f787b8a09f0a59592fa5302205f144d7a1810c37e1960d847ca90a5d69ff81216e82b0939fe37dc9df57c8100012102a3093562e7ba2bb888003940c1b90336d9b6a8d7ec555474889f71e67e5dd491ffffffff01e15e15000000000017a9145b2ec770425f040abcb3fb7f7b64d0cb52282e2e8700000000"
}