{
  "txid": "1e991c6854c4499ab7da19f2754a355d17a2c978816bda6a0ed61aa6af9ad04c",
  "version": 2,
  "locktime": 834551,
  "vin": [
    {
      "txid": "03bd6dae0dffd3d1bc8e2ff38e6348649201ce5db0fdef7d1383a83d358333ed",
      "vout": 4,
      "prevout": {
        "scriptpubkey": "0014b5c1f70eba74565f222894b39ed621085ea3f7d6",
        "scriptpubkey_asm": "OP_0 OP_PUSHBYTES_20 b5c1f70eba74565f222894b39ed621085ea3f7d6",
        "scriptpubkey_type": "v0_p2wpkh",
        "scriptpubkey_address": "bc1qkhqlwr46w3t97g3gjjeea43ppp028a7kp2znrj",
        "value": 813415
      },
      "scriptsig": "",
      "scriptsig_asm": "",
      "witness": [
        "304402206d9792e87a489d2a93faadb9479ddead8038b7bef8a2b06b2028a7bef282b9e6022031a9dc6c03867ab35c6bd488d7be241a2ac604953e7d35d817181b53da44234601",
        "024f9cbd40c334817e135b565dde2615bb58371ecdf8c3ec098b7bea3d1a881ecd"
      ],
      "is_coinbase": false,
      "sequence": 4294967293
    }
  ],
  "vout": [
    {
      "scriptpubkey": "001440056a233640d47eb156c62f0670f2879e6da52e",
      "scriptpubkey_asm": "OP_0 OP_PUSHBYTES_20 40056a233640d47eb156c62f0670f2879e6da52e",
      "scriptpubkey_type": "v0_p2wpkh",
      "scriptpubkey_address": "bc1qgqzk5gekgr28av2kcchsvu8js70xmffw0lera0",
      "value": 19426
    },
    {
      "scriptpubkey": "0014b21c7d3ac6df07dd580fc00a1870b41974e07f89",
      "scriptpubkey_asm": "OP_0 OP_PUSHBYTES_20 b21c7d3ac6df07dd580fc00a1870b41974e07f89",
      "scriptpubkey_type": "v0_p2wpkh",
      "scriptpubkey_address": "bc1qkgw86wkxmura6kq0cq9psu95r96wqlufxp0vn9",
      "value": 18665
    },
    {
      "scriptpubkey": "0014fd60ebebd0f5aec471901c7445dfbd64836dfbf7",
      "scriptpubkey_asm": "OP_0 OP_PUSHBYTES_20 fd60ebebd0f5aec471901c7445dfbd64836dfbf7",
      "scriptpubkey_type": "v0_p2wpkh",
      "scriptpubkey_address": "bc1ql4swh67s7khvguvsr36ythaavjpkm7lhfek877",
      "value": 692065
    },
    {
      "scriptpubkey": "0014e805ab3f19c31ef3fbbc9f9b85fa3519b2d87024",
      "scriptpubkey_asm": "OP_0 OP_PUSHBYTES_20 e805ab3f19c31ef3fbbc9f9b85fa3519b2d87024",
      "scriptpubkey_type": "v0_p2wpkh",
      "scriptpubkey_address": "bc1qaqz6k0cecv0087aun7dct734rxedsupyhqynnr",
      "value": 36682
    },
    {
      "scriptpubkey": "00144d1df13ed0e90087251db1c9cb94983cc042077f",
      "scriptpubkey_asm": "OP_0 OP_PUSHBYTES_20 4d1df13ed0e90087251db1c9cb94983cc042077f",
      "scriptpubkey_type": "v0_p2wpkh",
      "scriptpubkey_address": "bc1qf5wlz0ksayqgwfgak8yuh9yc8nqyypml75yhcv",
      "value": 40493
    }
  ],
  "size": 315,
  "weight": 933,
  "fee": 6084,
  "status": {
    "confirmed": true,
    "block_height": 834552,
    "block_hash": "00000000000000000001dd0468a70c94f619251d286585cff57aeb4bd9ede330",
    "block_time": 1710355598
  },
  "hex": "02000000000101ed3383353da883137deffdb05dce01926448638ef32f8ebcd1d3ff0dae6dbd030400000000fdffffff05e24b00000000000016001440056a233640d47eb156c62f0670f2879e6da52ee948000000000000160014b21c7d3ac6df07dd580fc00a1870b41974e07f89618f0a0000000000160014fd60ebebd0f5aec471901c7445dfbd64836dfbf74a8f000000000000160014e805ab3f19c31ef3fbbc9f9b85fa3519b2d870242d9e0000000000001600144d1df13ed0e90087251db1c9cb94983cc042077f0247304402206d9792e87a489d2a93faadb9479ddead8038b7bef8a2b06b2028a7bef282b9e6022031a9dc6c03867ab35c6bd488d7be241a2ac604953e7d35d817181b53da4423460121024f9cbd40c334817e135b565dde2615bb58371ecdf8c3ec098b7bea3d1a881ecdf7bb0c00"
}