{
  "txid": "1e9ede7d8d7a3d03fd080758fe7f95d77199018874f730e9f4362b262ca51855",
  "version": 2,
  "locktime": 834637,
  "vin": [
    {
      "txid": "b7e7fd78ab94e31ddae4803d7df55a630728a388e716f47471635a0741287342",
      "vout": 1,
      "prevout": {
        "scriptpubkey": "0014cf00479ce94a42d5563153ca7b6a695361a6d6ef",
        "scriptpubkey_asm": "OP_0 OP_PUSHBYTES_20 cf00479ce94a42d5563153ca7b6a695361a6d6ef",
        "scriptpubkey_type": "v0_p2wpkh",
        "scriptpubkey_address": "bc1qeuqy088fffpd24332098k6nf2ds6d4h0u56v9m",
        "value": 436600
      },
      "scriptsig": "",
      "scriptsig_asm": "",
      "witness": [
        "304402203c90dea5d81561764d503fd284bab7c52bbed85fe52b11b1fafb850bba83d1d102202b29a824dcc627697701b582432a0863d5f194158b1deef9084cf13e0936d06a01",
        "03d259d1b4bf568b412215e636c2e2f321c03667a31ce53d905ef6f6b0482f5521"
      ],
      "is_coinbase": false,
      "sequence": 4294967293
    }
  ],
  "vout": [
    {
      "scriptpubkey": "00145e09fa7d1df02dd758f52e022ac2862810ebc808",
      "scriptpubkey_asm": "OP_0 OP_PUSHBYTES_20 5e09fa7d1df02dd758f52e022ac2862810ebc808",
      "scriptpubkey_type": "v0_p2wpkh",
      "scriptpubkey_address": "bc1qtcyl5lga7qkawk849cpz4s5x9qgwhjqg9ucnef",
      "value": 145700
    },
    {
      "scriptpubkey": "0014fdff62046d8e01632b4e975a5b1150a3417ab09a",
      "scriptpubkey_asm": "OP_0 OP_PUSHBYTES_20 fdff62046d8e01632b4e975a5b1150a3417ab09a",
      "scriptpubkey_type": "v0_p2wpkh",
      "scriptpubkey_address": "bc1qlhlkyprd3cqkx26wjad9ky2s5dqh4vy6tmlpsh",
      "value": 287000
    }
  ],
  "size": 222,
  "weight": 561,
  "fee": 3900,
  "status": {
    "confirmed": true,
    "block_height": 834638,
    "block_hash": "000000000000000000025f742c626208ac87e0b7d15054abb4a19ca2d735a54e",
    "block_time": 1710405325
  },
  "hex": "0200000000010142732841075a637174f416e788a32807635af57d3d80e4da1de394ab78fde7b70100000000fdffffff0224390200000000001600145e09fa7d1df02dd758f52e022ac2862810ebc8081861040000000000160014fdff62046d8e01632b4e975a5b1150a3417ab09a0247304402203c90dea5d81561764d503fd284bab7c52bbed85fe52b11b1fafb850bba83d1d102202b29a824dcc627697701b582432a0863d5f194158b1deef9084cf13e0936d06a012103d259d1b4bf568b412215e636c2e2f321c03667a31ce53d905ef6f6b0482f55214dbc0c00"
}