{
  "txid": "1ebe8a62e27939963cf333ea4f3833f04697d4aa52fa1fada1f5189e825417c7",
  "version": 2,
  "locktime": 0,
  "vin": [
    {
      "txid": "b13bb5512a4904c28a6b7957b88edf574e8cb23551fc1dcfe22d6b239df42cf4",
      "vout": 81,
      "prevout": {
        "scriptpubkey": "512087b354a06c0b18cd9aa45ea103583dcb03a78a1cb727cf8627984d66b4837696",
        "scriptpubkey_asm": "OP_PUSHNUM_1 OP_PUSHBYTES_32 87b354a06c0b18cd9aa45ea103583dcb03a78a1cb727cf8627984d66b4837696",
        "scriptpubkey_type": "v1_p2tr",
        "scriptpubkey_address": "bc1ps7e4fgrvpvvvmx4yt6ssxkpaevp60zsukunulp38npxkddyrw6tqjyn7df",
        "value": 2575
      },
      "scriptsig": "",
      "scriptsig_asm": "",
      "witness": [
        "83ed6e8b60e06950fa8973d28d234f259f63d0133f7485dc7ef29fdb434246bd0eb3fe1528392171b6b0626b898bed5db90e4ef103d1f60dc25fcab3b0185bc5",
        "201319d64c3d400ad5fab7ddf0cfa069bcefd61ed8333413028a4ee4f96e0842a6ac0063036f726401010a746578742f706c61696e00367b2270223a226272632d3230222c226f70223a226d696e74222c227469636b223a2261616161222c22616d74223a223130303030227d68",
        "c11319d64c3d400ad5fab7ddf0cfa069bcefd61ed8333413028a4ee4f96e0842a6"
      ],
      "is_coinbase": false,
      "sequence": 4261412863
    }
  ],
  "vout": [
    {
      "scriptpubkey": "0014ce0b5aa0dac72397a8aa5a85d90a2cfb46f0f630",
      "scriptpubkey_asm": "OP_0 OP_PUSHBYTES_20 ce0b5aa0dac72397a8aa5a85d90a2cfb46f0f630",
      "scriptpubkey_type": "v0_p2wpkh",
      "scriptpubkey_address": "bc1qec944gx6cu3e0292t2zajz3vldr0pa3sh356d9",
      "value": 546
    }
  ],
  "size": 295,
  "weight": 541,
  "fee": 2029,
  "status": {
    "confirmed": true,
    "block_height": 834464,
    "block_hash": "0000000000000000000177a0869a911a2b65c9bdcd5a8bcb02b68f305bee848e",
    "block_time": 1710308296
  },
  "hex": "02000000000101f42cf49d236b2de2cf1dfc5135b28c4e57df8eb857796b8ac204492a51b53bb15100000000fffffffd012202000000000000160014ce0b5aa0dac72397a8aa5a85d90a2cfb46f0f630034083ed6e8b60e06950fa8973d28d234f259f63d0133f7485dc7ef29fdb434246bd0eb3fe1528392171b6b0626b898bed5db90e4ef103d1f60dc25fcab3b0185bc56e201319d64c3d400ad5fab7ddf0cfa069bcefd61ed8333413028a4ee4f96e0842a6ac0063036f726401010a746578742f706c61696e00367b2270223a226272632d3230222c226f70223a226d696e74222c227469636b223a2261616161222c22616d74223a223130303030227d6821c11319d64c3d400ad5fab7ddf0cfa069bcefd61ed8333413028a4ee4f96e0842a600000000"
}