{
  "txid": "1ec0199e01f4d9300bc2367af6f1a2bfe40f32239239842bfb98970f5fb599d5",
  "version": 1,
  "locktime": 0,
  "vin": [
    {
      "txid": "30d2e7e5df122e52acf624d83307b8daf9ee92f67cf5e573a6f883351d607cff",
      "vout": 32,
      "prevout": {
        "scriptpubkey": "00141f079810ed78ad0c6f1908adda8f6f8dd23c4de6",
        "scriptpubkey_asm": "OP_0 OP_PUSHBYTES_20 1f079810ed78ad0c6f1908adda8f6f8dd23c4de6",
        "scriptpubkey_type": "v0_p2wpkh",
        "scriptpubkey_address": "bc1qruresy8d0zkscmcepzka4rm03hfrcn0xwaqsk6",
        "value": 79180
      },
      "scriptsig": "",
      "scriptsig_asm": "",
      "witness": [
        "3045022100a789434fecd5687c47705c6ea7236ece270763f018fa99959e234d8d9cf0bbd0022012205e2b9fb1ca2150461bb4d240a9dc1ca94b97fbc583eace18d74589dcddf201",
        "03f06c3cc94f1d2154fb32036edae355c72436bf12f90d97baf435a4ab12b0dfc5"
      ],
      "is_coinbase": false,
      "sequence": 4294967295
    }
  ],
  "vout": [
    {
      "scriptpubkey": "76a914b04be51abd3d2a4f460d0de4d022d7084555dfa788ac",
      "scriptpubkey_asm": "OP_DUP OP_HASH160 OP_PUSHBYTES_20 b04be51abd3d2a4f460d0de4d022d7084555dfa7 OP_EQUALVERIFY OP_CHECKSIG",
      "scriptpubkey_type": "p2pkh",
      "scriptpubkey_address": "1H5Ar32g49Lb7oJNaDS5KdKZciJF362E8U",
      "value": 76253
    }
  ],
  "size": 195,
  "weight": 450,
  "fee": 2927,
  "status": {
    "confirmed": true,
    "block_height": 834638,
    "block_hash": "000000000000000000025f742c626208ac87e0b7d15054abb4a19ca2d735a54e",
    "block_time": 1710405325
  },
  "hex": "01000000000101ff7c601d3583f8a673e5f57cf692eef9dab80733d824f6ac522e12dfe5e7d2302000000000ffffffff01dd290100000000001976a914b04be51abd3d2a4f460d0de4d022d7084555dfa788ac02483045022100a789434fecd5687c47705c6ea7236ece270763f018fa99959e234d8d9cf0bbd0022012205e2b9fb1ca2150461bb4d240a9dc1ca94b97fbc583eace18d74589dcddf2012103f06c3cc94f1d2154fb32036edae355c72436bf12f90d97baf435a4ab12b0dfc500000000"
}