{
  "txid": "1ec355cda7203d797b1765948ab00bca9d915a4408533fc316ff141293fbeb3b",
  "version": 1,
  "locktime": 0,
  "vin": [
    {
      "txid": "12403b72bdd9f84c2a6fbb02178971b97f2802131b87d3f8f427006118d6b38d",
      "vout": 1,
      "prevout": {
        "scriptpubkey": "51202cf3cfe57a56e55f9d66b8c9313e1283f273548520643be2519b18235a4815e8",
        "scriptpubkey_asm": "OP_PUSHNUM_1 OP_PUSHBYTES_32 2cf3cfe57a56e55f9d66b8c9313e1283f273548520643be2519b18235a4815e8",
        "scriptpubkey_type": "v1_p2tr",
        "scriptpubkey_address": "bc1p9neulet62mj4l8txhrynz0sjs0e8x4y9ypjrhcj3nvvzxkjgzh5qsrxgx5",
        "value": 144996
      },
      "scriptsig": "",
      "scriptsig_asm": "",
      "witness": [
        "d99bc89a2ea93654291679ee715a7110bc4e4ba1c4add892b6f09d461306d3bf2aa2fb953483f1d31885875e0e9b437fad2a5b2347f264f7061d6320d0829441"
      ],
      "is_coinbase": false,
      "sequence": 0
    }
  ],
  "vout": [
    {
      "scriptpubkey": "51208273246f427d5a556586face7e975314f0beaf85671bc75df10d81fdb8ac0fe3",
      "scriptpubkey_asm": "OP_PUSHNUM_1 OP_PUSHBYTES_32 8273246f427d5a556586face7e975314f0beaf85671bc75df10d81fdb8ac0fe3",
      "scriptpubkey_type": "v1_p2tr",
      "scriptpubkey_address": "bc1psfejgm6z04d92evxlt88a96nznctatu9vuduwh03pkqlmw9vpl3sw5k8x9",
      "value": 2713
    },
    {
      "scriptpubkey": "51202cf3cfe57a56e55f9d66b8c9313e1283f273548520643be2519b18235a4815e8",
      "scriptpubkey_asm": "OP_PUSHNUM_1 OP_PUSHBYTES_32 2cf3cfe57a56e55f9d66b8c9313e1283f273548520643be2519b18235a4815e8",
      "scriptpubkey_type": "v1_p2tr",
      "scriptpubkey_address": "bc1p9neulet62mj4l8txhrynz0sjs0e8x4y9ypjrhcj3nvvzxkjgzh5qsrxgx5",
      "value": 140435
    }
  ],
  "size": 205,
  "weight": 616,
  "fee": 1848,
  "status": {
    "confirmed": true,
    "block_height": 834460,
    "block_hash": "00000000000000000000484a79b643b2524bbce82e5d8a442013fa5b8905ed98",
    "block_time": 1710307468
  },
  "hex": "010000000001018db3d618610027f4f8d3871b1302287fb971891702bb6f2a4cf8d9bd723b401201000000000000000002990a0000000000002251208273246f427d5a556586face7e975314f0beaf85671bc75df10d81fdb8ac0fe393240200000000002251202cf3cfe57a56e55f9d66b8c9313e1283f273548520643be2519b18235a4815e80140d99bc89a2ea93654291679ee715a7110bc4e4ba1c4add892b6f09d461306d3bf2aa2fb953483f1d31885875e0e9b437fad2a5b2347f264f7061d6320d082944100000000"
}