{
  "txid": "1ece3db9d1ec73c612db8ee27a731873ca6d99e7b0e1bb46d55d9811cf611028",
  "version": 2,
  "locktime": 0,
  "vin": [
    {
      "txid": "8486ecb4df0880316dd6e82b3971b4df187aff23765bc3a47f8d78bb53aa273c",
      "vout": 69,
      "prevout": {
        "scriptpubkey": "51200f6f33aa75d64834f89e0e524b03c2f19dfe6c9b3d555b9cf6fbbc9deda5a9c5",
        "scriptpubkey_asm": "OP_PUSHNUM_1 OP_PUSHBYTES_32 0f6f33aa75d64834f89e0e524b03c2f19dfe6c9b3d555b9cf6fbbc9deda5a9c5",
        "scriptpubkey_type": "v1_p2tr",
        "scriptpubkey_address": "bc1ppahn82n46eyrf7y7pefykq7z7xwlumym8424h88klw7fmmd948zsa9mulf",
        "value": 2575
      },
      "scriptsig": "",
      "scriptsig_asm": "",
      "witness": [
        "b4111741ec1efe9c53c87df8b10e1d140566de73cbd640fb9957403ebe45731c1a9f95e64f75ecbfb934de42730c8129a5232644318a88deb7d894e97d570f4f",
        "20f36647ae7a3b80693e25e3ad4006d3a137a2716663140273e4dbc547e1e121deac0063036f726401010a746578742f706c61696e00367b2270223a226272632d3230222c226f70223a226d696e74222c227469636b223a2261616161222c22616d74223a223130303030227d68",
        "c1f36647ae7a3b80693e25e3ad4006d3a137a2716663140273e4dbc547e1e121de"
      ],
      "is_coinbase": false,
      "sequence": 4261412863
    }
  ],
  "vout": [
    {
      "scriptpubkey": "0014ddd7ef12ea6f78edcc1e8e7afa12c01ab59f3339",
      "scriptpubkey_asm": "OP_0 OP_PUSHBYTES_20 ddd7ef12ea6f78edcc1e8e7afa12c01ab59f3339",
      "scriptpubkey_type": "v0_p2wpkh",
      "scriptpubkey_address": "bc1qmht77yh2dauwmnq73ea05ykqr26e7veea8spz6",
      "value": 546
    }
  ],
  "size": 295,
  "weight": 541,
  "fee": 2029,
  "status": {
    "confirmed": true,
    "block_height": 834460,
    "block_hash": "00000000000000000000484a79b643b2524bbce82e5d8a442013fa5b8905ed98",
    "block_time": 1710307468
  },
  "hex": "020000000001013c27aa53bb788d7fa4c35b7623ff7a18dfb471392be8d66d318008dfb4ec86844500000000fffffffd012202000000000000160014ddd7ef12ea6f78edcc1e8e7afa12c01ab59f33390340b4111741ec1efe9c53c87df8b10e1d140566de73cbd640fb9957403ebe45731c1a9f95e64f75ecbfb934de42730c8129a5232644318a88deb7d894e97d570f4f6e20f36647ae7a3b80693e25e3ad4006d3a137a2716663140273e4dbc547e1e121deac0063036f726401010a746578742f706c61696e00367b2270223a226272632d3230222c226f70223a226d696e74222c227469636b223a2261616161222c22616d74223a223130303030227d6821c1f36647ae7a3b80693e25e3ad4006d3a137a2716663140273e4dbc547e1e121de00000000"
}