{
  "txid": "1ece66443e87cc9694a4af0b4fa55f99d0fd444eb84d0bb4e6904d355dc163f3",
  "version": 2,
  "locktime": 0,
  "vin": [
    {
      "txid": "0aa19d671af7715c45c184b1b113b246e18e12c1077ac71ded2ad3a888ce9801",
      "vout": 1,
      "prevout": {
        "scriptpubkey": "512061950f2a8e4f4c9a2805c8a0d0863939f0baaa3cf30f736d47f5bb09b8bd4b48",
        "scriptpubkey_asm": "OP_PUSHNUM_1 OP_PUSHBYTES_32 61950f2a8e4f4c9a2805c8a0d0863939f0baaa3cf30f736d47f5bb09b8bd4b48",
        "scriptpubkey_type": "v1_p2tr",
        "scriptpubkey_address": "bc1pvx2s725wfaxf52q9ezsdpp3e88ct423u7v8hxm287kasnw9afdyq37lecs",
        "value": 117973
      },
      "scriptsig": "",
      "scriptsig_asm": "",
      "witness": [
        "c7b43dc11eaa705df639b74f2aafb2928b06dcd97de079f7273af1222e917ae62957fca6a59f083560e2ead445261c687ee1cc8c8d74e329b4c87d4cd383e52f"
      ],
      "is_coinbase": false,
      "sequence": 4294967293
    }
  ],
  "vout": [
    {
      "scriptpubkey": "5120efd419c4dd2b5ea32e4fea20c41c7d75bc4c6cc389a7316c5a868574da3ab6e6",
      "scriptpubkey_asm": "OP_PUSHNUM_1 OP_PUSHBYTES_32 efd419c4dd2b5ea32e4fea20c41c7d75bc4c6cc389a7316c5a868574da3ab6e6",
      "scriptpubkey_type": "v1_p2tr",
      "scriptpubkey_address": "bc1pal2pn3xa9d02xtj0agsvg8rawk7ycmxr3xnnzmz6s6zhfk36kmnq6fuph4",
      "value": 2826
    },
    {
      "scriptpubkey": "512061950f2a8e4f4c9a2805c8a0d0863939f0baaa3cf30f736d47f5bb09b8bd4b48",
      "scriptpubkey_asm": "OP_PUSHNUM_1 OP_PUSHBYTES_32 61950f2a8e4f4c9a2805c8a0d0863939f0baaa3cf30f736d47f5bb09b8bd4b48",
      "scriptpubkey_type": "v1_p2tr",
      "scriptpubkey_address": "bc1pvx2s725wfaxf52q9ezsdpp3e88ct423u7v8hxm287kasnw9afdyq37lecs",
      "value": 112837
    }
  ],
  "size": 205,
  "weight": 616,
  "fee": 2310,
  "status": {
    "confirmed": true,
    "block_height": 834460,
    "block_hash": "00000000000000000000484a79b643b2524bbce82e5d8a442013fa5b8905ed98",
    "block_time": 1710307468
  },
  "hex": "020000000001010198ce88a8d32aed1dc77a07c1128ee146b213b1b184c1455c71f71a679da10a0100000000fdffffff020a0b000000000000225120efd419c4dd2b5ea32e4fea20c41c7d75bc4c6cc389a7316c5a868574da3ab6e6c5b801000000000022512061950f2a8e4f4c9a2805c8a0d0863939f0baaa3cf30f736d47f5bb09b8bd4b480140c7b43dc11eaa705df639b74f2aafb2928b06dcd97de079f7273af1222e917ae62957fca6a59f083560e2ead445261c687ee1cc8c8d74e329b4c87d4cd383e52f00000000"
}