{
  "txid": "1efd6749571f61b804e32cbd34259cafe9ef400cfb5a6770555ac5abbf6a8808",
  "version": 2,
  "locktime": 0,
  "vin": [
    {
      "txid": "acc3ba00869acb582a3f2904ce3a11dd3779350ce234063fc7d0959246213364",
      "vout": 152,
      "prevout": {
        "scriptpubkey": "51205c639ed04fa357c04d2f9d33967927f1d5caa907bb10249bbdca3244546933e4",
        "scriptpubkey_asm": "OP_PUSHNUM_1 OP_PUSHBYTES_32 5c639ed04fa357c04d2f9d33967927f1d5caa907bb10249bbdca3244546933e4",
        "scriptpubkey_type": "v1_p2tr",
        "scriptpubkey_address": "bc1pt33ea5z05dtuqnf0n5eev7f8782u42g8hvgzfxaaegeyg4rfx0jqp4snau",
        "value": 1806
      },
      "scriptsig": "",
      "scriptsig_asm": "",
      "witness": [
        "7aab5cd2b645294294358aa20ba35fbabc0128f33cfae78f96e7c82c52765b38280d0dc96c98988389178d1a6c4663c755a595c1d2e24328d42f9863ada93387",
        "2048db313ad80353487b324b00a3db27fd8c69c7d1cc647ba699621a5576f2e189ac0063036f726401010a746578742f706c61696e00357b2270223a226272632d3230222c226f70223a226d696e74222c227469636b223a22646f6765222c22616d74223a2234323030227d68",
        "c148db313ad80353487b324b00a3db27fd8c69c7d1cc647ba699621a5576f2e189"
      ],
      "is_coinbase": false,
      "sequence": 4261412863
    }
  ],
  "vout": [
    {
      "scriptpubkey": "00147a665de7a370f4c9b372ab1fae587500a5bcbdb4",
      "scriptpubkey_asm": "OP_0 OP_PUSHBYTES_20 7a665de7a370f4c9b372ab1fae587500a5bcbdb4",
      "scriptpubkey_type": "v0_p2wpkh",
      "scriptpubkey_address": "bc1q0fn9mearwr6vnvmj4v06ukr4qzjme0d565dzcx",
      "value": 294
    }
  ],
  "size": 294,
  "weight": 540,
  "fee": 1512,
  "status": {
    "confirmed": true,
    "block_height": 834460,
    "block_hash": "00000000000000000000484a79b643b2524bbce82e5d8a442013fa5b8905ed98",
    "block_time": 1710307468
  },
  "hex": "02000000000101643321469295d0c73f0634e20c357937dd113ace04293f2a58cb9a8600bac3ac9800000000fffffffd0126010000000000001600147a665de7a370f4c9b372ab1fae587500a5bcbdb403407aab5cd2b645294294358aa20ba35fbabc0128f33cfae78f96e7c82c52765b38280d0dc96c98988389178d1a6c4663c755a595c1d2e24328d42f9863ada933876d2048db313ad80353487b324b00a3db27fd8c69c7d1cc647ba699621a5576f2e189ac0063036f726401010a746578742f706c61696e00357b2270223a226272632d3230222c226f70223a226d696e74222c227469636b223a22646f6765222c22616d74223a2234323030227d6821c148db313ad80353487b324b00a3db27fd8c69c7d1cc647ba699621a5576f2e18900000000"
}