{
  "txid": "1f2b56a48220656aaa156a87b8b8b563aa13fe8d241a36fcc0285b4474cb7dc9",
  "version": 2,
  "locktime": 0,
  "vin": [
    {
      "txid": "47ac4b61efee8aa77252da8f0758cf918ba8341798c00df58819a43f704780de",
      "vout": 0,
      "prevout": {
        "scriptpubkey": "0014e9e4fff01afe6743f62d1ebb2159f7d3589da4f1",
        "scriptpubkey_asm": "OP_0 OP_PUSHBYTES_20 e9e4fff01afe6743f62d1ebb2159f7d3589da4f1",
        "scriptpubkey_type": "v0_p2wpkh",
        "scriptpubkey_address": "bc1qa8j0luq6len58a3dr6ajzk0h6dvfmf83gt24sz",
        "value": 1659
      },
      "scriptsig": "",
      "scriptsig_asm": "",
      "witness": [
        "304502210084e8ec38994c292f3fbe301d0e12d0b0085f5f4173386a228d1f6ab6dabd749c022038024070b503dacba7be76be3f1407d6cd2f3153584b3c8c435348cf2e898e8201",
        "02a9af57fe98a52ce7dc59b0cdf2cdda3d88a32b5d5a359bf1173dd5dd88b32e11"
      ],
      "is_coinbase": false,
      "sequence": 4294967295
    },
    {
      "txid": "b3bee7f015d85afe5a93205cbcd7343351ae2bf8d193cb2d7af7faf777eb95fb",
      "vout": 0,
      "prevout": {
        "scriptpubkey": "0014e040e95e9fa7597ee9ca6918938acb7ffa067ec2",
        "scriptpubkey_asm": "OP_0 OP_PUSHBYTES_20 e040e95e9fa7597ee9ca6918938acb7ffa067ec2",
        "scriptpubkey_type": "v0_p2wpkh",
        "scriptpubkey_address": "bc1qupqwjh5l5avha6w2dyvf8zkt0laqvlkzeqljwu",
        "value": 13284
      },
      "scriptsig": "",
      "scriptsig_asm": "",
      "witness": [
        "3044022061bfa57ce18667f30d23608725688635e164a697b1c21569158539b9059c45c402201881d391bbbb117f1402b40b6632d244437f80cd3bb7607582c953856885d05501",
        "035299918f6c412b3f78b8f3efca60576bbe5f12f667b406cdd5463801c7b1b7a0"
      ],
      "is_coinbase": false,
      "sequence": 4294967295
    }
  ],
  "vout": [
    {
      "scriptpubkey": "0014611202a7d42ca466f9dedc917f91f96e035bf170",
      "scriptpubkey_asm": "OP_0 OP_PUSHBYTES_20 611202a7d42ca466f9dedc917f91f96e035bf170",
      "scriptpubkey_type": "v0_p2wpkh",
      "scriptpubkey_address": "bc1qvyfq9f759jjxd7w7mjghly0edcp4hutsqvl62m",
      "value": 13000
    }
  ],
  "size": 340,
  "weight": 709,
  "fee": 1943,
  "status": {
    "confirmed": true,
    "block_height": 834464,
    "block_hash": "0000000000000000000177a0869a911a2b65c9bdcd5a8bcb02b68f305bee848e",
    "block_time": 1710308296
  },
  "hex": "02000000000102de8047703fa41988f50dc0981734a88b91cf58078fda5272a78aeeef614bac470000000000fffffffffb95eb77f7faf77a2dcb93d1f82bae513334d7bc5c20935afe5ad815f0e7beb30000000000ffffffff01c832000000000000160014611202a7d42ca466f9dedc917f91f96e035bf1700248304502210084e8ec38994c292f3fbe301d0e12d0b0085f5f4173386a228d1f6ab6dabd749c022038024070b503dacba7be76be3f1407d6cd2f3153584b3c8c435348cf2e898e82012102a9af57fe98a52ce7dc59b0cdf2cdda3d88a32b5d5a359bf1173dd5dd88b32e1102473044022061bfa57ce18667f30d23608725688635e164a697b1c21569158539b9059c45c402201881d391bbbb117f1402b40b6632d244437f80cd3bb7607582c953856885d0550121035299918f6c412b3f78b8f3efca60576bbe5f12f667b406cdd5463801c7b1b7a000000000"
}