{
  "txid": "1f475e98718bad1ef571f381c9104adb1c7b0bf35934dc66a8cefc7a6228ea6e",
  "version": 2,
  "locktime": 0,
  "vin": [
    {
      "txid": "adc79b864024774c1ae0c39da84d8ce5ba2a68b45b00d1164d0e115b4cb5ec04",
      "vout": 0,
      "prevout": {
        "scriptpubkey": "5120a6775959db5cd60f698dbe1a65233d35c9158efe518ba2af6129063f2511c9f1",
        "scriptpubkey_asm": "OP_PUSHNUM_1 OP_PUSHBYTES_32 a6775959db5cd60f698dbe1a65233d35c9158efe518ba2af6129063f2511c9f1",
        "scriptpubkey_type": "v1_p2tr",
        "scriptpubkey_address": "bc1p5em4jkwmtntq76vdhcdx2geaxhy3trh72x969tmp9yrr7fg3e8csv7d5ja",
        "value": 18435
      },
      "scriptsig": "",
      "scriptsig_asm": "",
      "witness": [
        "27c35b75423cecc8dbf905805e452893841b4404bfac3b8d39927de1d7566e99aab362a02dbbb73ba66062761a2176bb956e33f3ce030eea428d78342f1107fc",
        "20f66f1d355d9c1a2f918d6f19e637f69854810fb2a3d5dfd526d74cdff75e87d3ac0063036f7264010109696d6167652f706e67004d080289504e470d0a1a0a0000000d49484452000001f4000001f40803000000fc082fb80000006f504c54457e390fcc8c8c683010548b9e722d045b8495662fc05b8697ef0e0e682a00f2032a920010ec1010f70807050001637c8ae1191ba34c5176707d8d5d68cd282c8c3a19bc373d645647ad26128d1b11774626616b6b612902642000672e856841260f0505c07f794c220a4f2581aa6857b01d8547000000097048597300000b1300000b1301009a9c1800000f9849444154789ced9d0d7b9b381a00bda12af4562c606ce238fdc8eeddffff8df73869cd5aa296c04802de19a77bdbde26c14c47728d8a7639886397fa00203e481708d205827481205d20481708d205827481205d20481708d205827481205d20481708d2058274812c5cbaca9517b9cad783ca133fa7854bf77de26a4dbf0315d25d27c8d3470c549e79e03e189faf13f2392dbc7495abb6eb1ac7475345b1ae7255eddd7894be6f9db8bfcc86a55787b2288b3b1f6551d6fb4c453b1827ce835159533a395492a577a5be7f92751153ba761c8cd63ed22fffdd5d0aa4af477a51f849777d11a4237d5e18defda1f438ac6e4e2f18dee738cf489f1d86777f283d0e941e024af74746e9972b03978f74507afcd2551ee565f1bd03e0855cf4d2abe78cd2a50defd52bc3bb30e9976fbb8de17d70dd423ef2b9c9901efa859cc7129279a4ab29d295f539efd29dec33d7931a924d0802be98ab6c1fd2437d6baf052f991a906e9e208fb761d5c0e214e53c3aeb330eee0be1e53e732c8cc9b3c6be2c2fe67abacad57e5f391e0323eaede9f15844a154de1e3a83d6597a65ad6731bf46d735f69a97fdfbc7bd47633c255d1e1a8376ab2b6754b6af9d98ca75d99927c8b95c4aa9acb38a6c5cbf53f2bd3574db87d75a2177455debfb4fc97c52baecec83d9e81a3995b51ecb8f2ce96d667fa5dc2ddd14d8b8a5dbdfbd341e4563cefc59570efd87379f643fa7eef242e0f690375b7a5b6a3d41ba9a24ddf8428d47e9eec369cd976d03dfc9e339bd4b7fec0f176b923efe0459e7d9fd423ca8f4fcf6394d969ec762add2477ea370d21ba4cb93de221de98ae17dfba537944ee98ad2b75f7a4be9f24a6f902e4f7a8b74a42be6f434a50f5c3d0f39bcdf82f4f54857036b2622bff79ec7629b6fc30edcdfa331afb215d64b30f3ab647ed2cd15123ed28dabbc457940fa83d2556edf26c4753d5d0d94defa0cefd60a09f78d0bca83c56596c863b1c9d287eeefa1adf3dc1ad2336b5dccc1e370ece5525ecf60f4daad39d9aa74731d5d79a84cd4cd80feb1fa61ac3f6bbdde65def07b06e6b042e98f4b373fa9b33f45ddfce4323c8cf6378929ef34ccca664b373fa9abec395b59d2e733fbd833088b1ce98ed5350ae971407a1a28fd27941e094a4f03a5ff84d22341e969a0f49f507a24283d0d94fe134a8f04a5a7416ae96a609d4d0802c582de860dbbcd4b44e943e7d947ba7515a4759e9181ab6c29a56bf3605cd27d6daae5976e1fa29774eb82f5c0d5687b9d8ceb761eca3e9860d287d66f384bafdcaca37473394be53ccfba3c78ec7263d1d8b709314bdf5bab2aea30ca8bdaba73c6de71f55ca9bc3bb8a9b21548af0ed66d397c960c5a19db0b17cc19a0734d802adf8f5ff2328db2b6ee72e4decfa9aaed2539d6f1ae437afd6b7fa5dfdf896340ba3d613bcff361f0fbdffc64afadbb54054197f5d0a57cc79cee73f3b27a25d28bf1371b316fc1e377ebbd81176a66e9ba88c454e9aeafab57227df4103a497af12edd7130fb48d23f4a1f7daa90be66e9c57be9481f01a5ff1e86f75b28fd1ecce9a1614e17f842ae604e97275df3ea5d9ef482d2e549d7942e4f7a41e9f2a46b4a9727bda0f468d25de4314b771e8d757403efbdaff62a5b2ce9f645788b7dbcd287760d7230207dcdd7d363482f0f7b276d3ce9fb09d4a674bdd69533d14abfbf71ce07452c7c0ec6c2fa2d59ef076601a46f9bfab2b00ee9f7d0ce4744f4f8877d7c481748bd9f6dfba68dcee91ba446ba3c6aa4cba346ba3c6aa4cba346ba3c6aa4cba346ba3c6aa4cba346ba3c6aa46f1e6dfe3d6a69d26f11f2366c69a08549bffd3a12a4ebe260dd4065f4df7d5db1747b114c576c1e5d36b35d3d5f9ff4f7d9edde4fb7892e9b6ce004ca912e11fd7ed731c1a5cb959e0702e98b04e902d1942e0f4d08028d747968a4cb43235d1e1ae9f2d048978746ba3c34d2e5a1912e0f6d4a7fbf5bb8cf2d2c7cdebbe56dd86550de2e9a28ecd2559e67ce07efbdaf086ddd65e2b2259551fa6c5bf950fa22a82bc7362f4ae56deddecaa7f5ba2109d217c1c01d07acd21b6b031cf3515c367c43fa5aa85d0be0dea5bb77a942faf6a4170e285da0f482d257444de9f2a8295d1e35a5cba3a67479d4942e8f9ad2e55153ba3c6a4a97474de9f2a85759fae0c28edb27c25f60fc3d4377f03759e07bef43dfcc5cfa51d5e6ad545ccf4208a57d3ddd6689a557d61d238c214be595b6f69e81e27d1380ae71626fe563ffe6892c3d6bad6d488c2350b9b236cfe93c7ef7caa074e2f355624b376fff535a47a0f24943960cf41cfb8f9489a5eb42dba59b207d6652978ef4f8948b936e7f0ea5cf0dd2e551225d202dc3bb384aa40ba4a57471944817484be9e228912e9096d2c551225d1a3af6df5afdcddbb0ae3ba47095ed21accbaf4b90eea4e5d2ea03d4f5c178a497deb443dcaca2a0f4e9e8d2aeca6ff38780d27fb318a4a859249778739f90d27f738b8c8fffeffd031e963e455648e91014a40b4453ba3c34d2e5a1912e0f8d747968a4cb43235d1e1ae9f2d048978746ba3c34d2e5a1912e0fbd04e9dab8ac96faa46c1dbd04e9f685f3d4a765e394e9a5ef9ba66ddaa6ff680e5c327f00e7de1dba482dfdd78a8decd7479e5548f766602ebc5d57364895ba4d0802f4f79dc3fae53b799e23fd01e9baa83cb6d69ba43ce4cd0391fe98f4bdb905e3e0694f3bbc9b20fd71e9a1dc207d11205d20dafe054adf3adafe05a46f1d6dff02d2b78eb67f01e95b47dbbf80747168a4cb43235d1e1ae9f2d0488f74a23d08f5adb7f4422ece298bb6a3461971d399954aaf039db2798ad426f5c14dadcd8d6a2ebfa05d1f6eec67b04ee9aae90c0ef3483f1d4f4edcd60fe6a71c9f2dcec6e3f97c3a1e8fa77f3d8ea77a16babd796f1ed7f67c4b94fe71c8d9bf1ef93c37abd0e5cbd36ee7fa704b3fed6e3f6722c75986afb29b78cfa0c5956e6fd333c7f9d1e58b870af71666a7c99e6fbfd31c0b0175d9d9f7dc5b61e94b975ecc25bd9c4b7a1e8d70c3bbc5464b2f91be1ae905d2297d2a94bea2e1bda0744a9f0aa553fa3478f5ee3c41bc7a7f10b17f642b98d3e5492f912e4f7a817479d24ba48b93ae9757ba7dc125d4dbf1eb7b21577849777f95d35cd28b79a46fe1d2eab0f4f12b5cb4b5d8e1f4c9c3857b99c5692ee9b32c02ab3b73914ebb8dd2f3ca647f729e32fdf2f58bc96e499cdcd41ed7dc4bf3b10de9f67895551b90eec169fc420bbd11e9f6b20a29d20f72a55b88917e42ba3ce907a423dd0386f7b5977ea2744af780d2d75efa81d2e5957e42ba3ce907a423dd03e6f4b5977ea2744af780d2c5cee92e9676eb6f0fc4bc903b4d92ee548ef4257318bfba46976de626f1ce0e535059f5e2e6d3974d0802f597ae27dc24a76b9cecd739bc7ff560fdd28f6e3a6b9ef3b8d555ebb3e3c7f2a47f99c46e739c1b4bbac7e080f4ad49f79af6297dc59c91cef0ee03a5af9c33a553ba0f94be72ce944ee93e50faca39533aa5fb40e92be74ce994ee03a5af9c33a553ba0f942eb0f4820b2eeb973e9a62ea5f61dfe8f5f4ef9fc3f07d8ad140c7f2b95ae9c2c850d23f4b90aea69e78a4af577a95533aa5fb42e9ab2e7d1a485faf74e67481d22b4a97275d215d9ef40ae9f2a42ba4cb935e215d9e74857479d22ba4cb93ae902e4f7ab538e9f6dddd07ee9ec1a5d58d95ae728fdb677ce3d2eac64a7f7d7612ea7afa7f3df83e81e729c37ba883a9a66ee81452fa8f6f4e42497ffbebcdc93f4f139822dd7d286f6f130ee5cb6bb644e95f9ea6497d58faf1ed2f37ff4472bef33896b7afdb911e088fb802497f42fa62a5fb94fe3645bacf3e80949e463aa50b1cde8395bea3f4c54aa7f4bb50fa2828fd2e947e853fb24519de99d3050eefcce902a553ba40e9942e503aa50b944ee902a5f3debb40e9942e51fa3f1e3ced3e7dda3dedc6fd9882cfc1bcbe3e8f7cbc3e2f73e54c3ae96be39ce57936e2f1f131756524d217c139f3d87aef6613be8fff41fa8a394f5df944e9ebe58c748973baa274a4878417728b80d219de0343e98b80d2293d3094be08289dd20343e98b80d2293d3094be08289dd203b38dd28fb3b04b07a58f967efc7b169a5d32903e4d08025efa1fb3d04c5b0d3507489f503ad2c5cde9481f07d27b18de1f85d2c7c09ccef01e1886f71e86f74761781f03c33bc37b6018de7b18de1f85e17d0c0cef0cef816178ef61787f1486f73130bc33bc0786e1bd87e1fd5118dec7c0f0cef01e1886f71e86f74761781f03c33bc37b6018de7b18de1f85e19de19d859177614e674e0f0c737a0f73faa330a78f81e19de13d300cef3d0cef8fc2f03e06867786f7c030bcf730bc3f0ac3bbd0e1fd9b9399feaaf21fb3d0ec92b11de9af6ebe589b554f92febf5938be04428cf45ce5999bcae27982f49978f9330c72a4ffda5cc6b1038db51111d2d75cfab4df1739d2b72d7d0045e911407a0f737a1a283d0694de43e969a0f418507a0fa5a781d26340e93d949e064a8f01a5f7507a1a283d0694de43e9024bdf7169559ef49740d2ff14733d7d85d24fff09c301e9481f80d2293d300cef3d0cef69604e8f01a5f7507a1a283d0694de43e969a0f418507a0fa5a781d26340e93d949e064a8f01a5f7507a1a283d0694de43e969a0f418507a0fa54b5c23770c84fb3bb3882299f474201de981614e5f04944ee981a1f44540e9941e184a5f04944ee981a1f44540e9941e184a5f04944ee981a1f44540e9941e184a5f04944ee981a1f4049ced1d8c72ee39b3f14514679519bb1a45754ee9293857d6ee3594bef9d2abb86553fa0240fa8256c3c602e9488f0e7f644b00a5dfc0f01e034a4f004d0802a5df40e931a0f40450fa0d941e034a4f00a5df40e931a0f40450fa0d941e034a4f00a56fbff4736512f7f2b905a587e79cdd9cf2cbcf923a477af4a5ae1fcb64287debc37b96366c0b86f7f020fd3e941e034a0f0fa5df87d26340e9e1a1f4fb507a0c283d3c947e1f4a8f01a58787d2ef43e931a0f4f050fa7d283d06941e1e4adf7ee9679367aeb26d5efaab3217ca245e3361c1f03e3baf4b0bdb02e9b3f39a59b79359d8ef02a4cf0ea54b9cd3b385856d41e9b383f491507a0c287d76287d24941e034a9f1d4a1f09a5c780d26787d24742e931a0f4d9a1f491507a0c287d76287d24941e831596fef5dba7203cbd8ea41afeb1b82ba91648bff2a332b7d371900fff58bc73a4f7fcb86ca7938f7af4ffe8ff5da5bea38c1b4abf913ef2d1ffe35fffcef0bea639bd5a7ca23341e9b7a58b00e957902e7078ff41e9f2a43f215d9ef41f4847fa76e185dc154a4f04737a0c289dd253c30bb91850fa15e6f44430a7c780d2af507a2298d36340e957283d11cce931a0f42b949e08e6f41850fa154a4f04737a0c28fd0aa52782393d06947e85d213c19c1e034abf42e989604e8f01a55fa1f44430a7c780d2af507a2298d36340e957283d11cce931a0f42b949e08e6f41850fa154a4f04737a0c28fd0aa52782393d06947e85d213c19c1e034abf42e989604e8f01a55fa1f44430a7c780d2af507a2298d36340e957283d11cce931a0f42b21949e08e6f41850fa2779a5ff1f99c5c00c1c0bbbae0000000049454e44ae42608268",
        "c1f66f1d355d9c1a2f918d6f19e637f69854810fb2a3d5dfd526d74cdff75e87d3"
      ],
      "is_coinbase": false,
      "sequence": 4294967293
    }
  ],
  "vout": [
    {
      "scriptpubkey": "512092d0c4be49414c8ce960e04bd67b94f223e9ce71227bcb9ae8584d3d87f33a1e",
      "scriptpubkey_asm": "OP_PUSHNUM_1 OP_PUSHBYTES_32 92d0c4be49414c8ce960e04bd67b94f223e9ce71227bcb9ae8584d3d87f33a1e",
      "scriptpubkey_type": "v1_p2tr",
      "scriptpubkey_address": "bc1pjtgvf0jfg9xge6tqup9av7u57g37nnn3yfauhxhgtpxnmpln8g0qek58d9",
      "value": 600
    }
  ],
  "size": 4471,
  "weight": 4753,
  "fee": 17835,
  "status": {
    "confirmed": true,
    "block_height": 834460,
    "block_hash": "00000000000000000000484a79b643b2524bbce82e5d8a442013fa5b8905ed98",
    "block_time": 1710307468
  },
  "hex": "0200000000010104ecb54c5b110e4d16d1005bb4682abae58c4da89dc3e01a4c772440869bc7ad0000000000fdffffff01580200000000000022512092d0c4be49414c8ce960e04bd67b94f223e9ce71227bcb9ae8584d3d87f33a1e034027c35b75423cecc8dbf905805e452893841b4404bfac3b8d39927de1d7566e99aab362a02dbbb73ba66062761a2176bb956e33f3ce030eea428d78342f1107fcfdb01020f66f1d355d9c1a2f918d6f19e637f69854810fb2a3d5dfd526d74cdff75e87d3ac0063036f7264010109696d6167652f706e67004d080289504e470d0a1a0a0000000d49484452000001f4000001f40803000000fc082fb80000006f504c54457e390fcc8c8c683010548b9e722d045b8495662fc05b8697ef0e0e682a00f2032a920010ec1010f70807050001637c8ae1191ba34c5176707d8d5d68cd282c8c3a19bc373d645647ad26128d1b11774626616b6b612902642000672e856841260f0505c07f794c220a4f2581aa6857b01d8547000000097048597300000b1300000b1301009a9c1800000f9849444154789ced9d0d7b9b381a00bda12af4562c606ce238fdc8eeddffff8df73869cd5aa296c04802de19a77bdbde26c14c47728d8a7639886397fa00203e481708d205827481205d20481708d205827481205d20481708d205827481205d20481708d2058274812c5cbaca9517b9cad783ca133fa7854bf77de26a4dbf0315d25d27c8d3470c549e79e03e189faf13f2392dbc7495abb6eb1ac7475345b1ae7255eddd7894be6f9db8bfcc86a55787b2288b3b1f6551d6fb4c453b1827ce835159533a395492a577a5be7f92751153ba761c8cd63ed22fffdd5d0aa4af477a51f849777d11a4237d5e18defda1f438ac6e4e2f18dee738cf489f1d86777f283d0e941e024af74746e9972b03978f74507afcd2551ee565f1bd03e0855cf4d2abe78cd2a50defd52bc3bb30e9976fbb8de17d70dd423ef2b9c9901efa859cc7129279a4ab29d295f539efd29dec33d7931a924d0802be98ab6c1fd2437d6baf052f991a906e9e208fb761d5c0e214e53c3aeb330eee0be1e53e732c8cc9b3c6be2c2fe67abacad57e5f391e0323eaede9f15844a154de1e3a83d6597a65ad6731bf46d735f69a97fdfbc7bd47633c255d1e1a8376ab2b6754b6af9d98ca75d99927c8b95c4aa9acb38a6c5cbf53f2bd3574db87d75a2177455debfb4fc97c52baecec83d9e81a3995b51ecb8f2ce96d667fa5dc2ddd14d8b8a5dbdfbd341e4563cefc59570efd87379f643fa7eef242e0f690375b7a5b6a3d41ba9a24ddf8428d47e9eec369cd976d03dfc9e339bd4b7fec0f176b923efe0459e7d9fd423ca8f4fcf6394d969ec762add2477ea370d21ba4cb93de221de98ae17dfba537944ee98ad2b75f7a4be9f24a6f902e4f7a8b74a42be6f434a50f5c3d0f39bcdf82f4f54857036b2622bff79ec7629b6fc30edcdfa331afb215d64b30f3ab647ed2cd15123ed28dabbc457940fa83d2556edf26c4753d5d0d94defa0cefd60a09f78d0bca83c56596c863b1c9d287eeefa1adf3dc1ad2336b5dccc1e370ece5525ecf60f4daad39d9aa74731d5d79a84cd4cd80feb1fa61ac3f6bbdde65def07b06e6b042e98f4b373fa9b33f45ddfce4323c8cf6378929ef34ccca664b373fa9abec395b59d2e733fbd833088b1ce98ed5350ae971407a1a28fd27941e094a4f03a5ff84d22341e969a0f49f507a24283d0d94fe134a8f04a5a7416ae96a609d4d0802c582de860dbbcd4b44e943e7d947ba7515a4759e9181ab6c29a56bf3605cd27d6daae5976e1fa29774eb82f5c0d5687b9d8ceb761eca3e9860d287d66f384bafdcaca37473394be53ccfba3c78ec7263d1d8b709314bdf5bab2aea30ca8bdaba73c6de71f55ca9bc3bb8a9b21548af0ed66d397c960c5a19db0b17cc19a0734d802adf8f5ff2328db2b6ee72e4decfa9aaed2539d6f1ae437afd6b7fa5dfdf896340ba3d613bcff361f0fbdffc64afadbb54054197f5d0a57cc79cee73f3b27a25d28bf1371b316fc1e377ebbd81176a66e9ba88c454e9aeafab57227df4103a497af12edd7130fb48d23f4a1f7daa90be66e9c57be9481f01a5ff1e86f75b28fd1ecce9a1614e17f842ae604e97275df3ea5d9ef482d2e549d7942e4f7a41e9f2a46b4a9727bda0f468d25de4314b771e8d757403efbdaff62a5b2ce9f645788b7dbcd287760d7230207dcdd7d363482f0f7b276d3ce9fb09d4a674bdd69533d14abfbf71ce07452c7c0ec6c2fa2d59ef076601a46f9bfab2b00ee9f7d0ce4744f4f8877d7c481748bd9f6dfba68dcee91ba446ba3c6aa4cba346ba3c6aa4cba346ba3c6aa4cba346ba3c6aa4cba346ba3c6aa46f1e6dfe3d6a69d26f11f2366c69a08549bffd3a12a4ebe260dd4065f4df7d5db1747b114c576c1e5d36b35d3d5f9ff4f7d9edde4fb7892e9b6ce004ca912e11fd7ed731c1a5cb959e0702e98b04e902d1942e0f4d08028d747968a4cb43235d1e1ae9f2d048978746ba3c34d2e5a1912e0f6d4a7fbf5bb8cf2d2c7cdebbe56dd86550de2e9a28ecd2559e67ce07efbdaf086ddd65e2b2259551fa6c5bf950fa22a82bc7362f4ae56deddecaa7f5ba2109d217c1c01d07acd21b6b031cf3515c367c43fa5aa85d0be0dea5bb77a942faf6a4170e285da0f482d257444de9f2a8295d1e35a5cba3a67479d4942e8f9ad2e55153ba3c6a4a97474de9f2a85759fae0c28edb27c25f60fc3d4377f03759e07bef43dfcc5cfa51d5e6ad545ccf4208a57d3ddd6689a557d61d238c214be595b6f69e81e27d1380ae71626fe563ffe6892c3d6bad6d488c2350b9b236cfe93c7ef7caa074e2f355624b376fff535a47a0f24943960cf41cfb8f9489a5eb42dba59b207d6652978ef4f8948b936e7f0ea5cf0dd2e551225d202dc3bb384aa40ba4a57471944817484be9e228912e9096d2c551225d1a3af6df5afdcddbb0ae3ba47095ed21accbaf4b90eea4e5d2ea03d4f5c178a497deb443dcaca2a0f4e9e8d2aeca6ff38780d27fb318a4a859249778739f90d27f738b8c8fffeffd031e963e455648e91014a40b4453ba3c34d2e5a1912e0f8d747968a4cb43235d1e1ae9f2d048978746ba3c34d2e5a1912e0fbd04e9dab8ac96faa46c1dbd04e9f685f3d4a765e394e9a5ef9ba66ddaa6ff680e5c327f00e7de1dba482dfdd78a8decd7479e5548f766602ebc5d57364895ba4d0802f4f79dc3fae53b799e23fd01e9baa83cb6d69ba43ce4cd0391fe98f4bdb905e3e0694f3bbc9b20fd71e9a1dc207d11205d20dafe054adf3adafe05a46f1d6dff02d2b78eb67f01e95b47dbbf80747168a4cb43235d1e1ae9f2d0488f74a23d08f5adb7f4422ece298bb6a3461971d399954aaf039db2798ad426f5c14dadcd8d6a2ebfa05d1f6eec67b04ee9aae90c0ef3483f1d4f4edcd60fe6a71c9f2dcec6e3f97c3a1e8fa77f3d8ea77a16babd796f1ed7f67c4b94fe71c8d9bf1ef93c37abd0e5cbd36ee7fa704b3fed6e3f6722c75986afb29b78cfa0c5956e6fd333c7f9d1e58b870af71666a7c99e6fbfd31c0b0175d9d9f7dc5b61e94b975ecc25bd9c4b7a1e8d70c3bbc5464b2f91be1ae905d2297d2a94bea2e1bda0744a9f0aa553fa3478f5ee3c41bc7a7f10b17f642b98d3e5492f912e4f7a817479d24ba48b93ae9757ba7dc125d4dbf1eb7b21577849777f95d35cd28b79a46fe1d2eab0f4f12b5cb4b5d8e1f4c9c3857b99c5692ee9b32c02ab3b73914ebb8dd2f3ca647f729e32fdf2f58bc96e499cdcd41ed7dc4bf3b10de9f67895551b90eec169fc420bbd11e9f6b20a29d20f72a55b88917e42ba3ce907a423dd0386f7b5977ea2744af780d2d75efa81d2e5957e42ba3ce907a423dd03e6f4b5977ea2744af780d2c5cee92e9676eb6f0fc4bc903b4d92ee548ef4257318bfba46976de626f1ce0e535059f5e2e6d3974d0802f597ae27dc24a76b9cecd739bc7ff560fdd28f6e3a6b9ef3b8d555ebb3e3c7f2a47f99c46e739c1b4bbac7e080f4ad49f79af6297dc59c91cef0ee03a5af9c33a553ba0f94be72ce944ee93e50faca39533aa5fb40e92be74ce994ee03a5af9c33a553ba0f942eb0f4820b2eeb973e9a62ea5f61dfe8f5f4ef9fc3f07d8ad140c7f2b95ae9c2c850d23f4b90aea69e78a4af577a95533aa5fb42e9ab2e7d1a485faf74e67481d22b4a97275d215d9ef40ae9f2a42ba4cb935e215d9e74857479d22ba4cb93ae902e4f7ab538e9f6dddd07ee9ec1a5d58d95ae728fdb677ce3d2eac64a7f7d7612ea7afa7f3df83e81e729c37ba883a9a66ee81452fa8f6f4e42497ffbebcdc93f4f139822dd7d286f6f130ee5cb6bb644e95f9ea6497d58faf1ed2f37ff4472bef33896b7afdb911e088fb802497f42fa62a5fb94fe3645bacf3e80949e463aa50b1cde8395bea3f4c54aa7f4bb50fa2828fd2e947e853fb24519de99d3050eefcce902a553ba40e9942e503aa50b944ee902a5f3debb40e9942e51fa3f1e3ced3e7dda3dedc6fd9882cfc1bcbe3e8f7cbc3e2f73e54c3ae96be39ce57936e2f1f131756524d217c139f3d87aef6613be8fff41fa8a394f5df944e9ebe58c748973baa274a4878417728b80d219de0343e98b80d2293d3094be08289dd20343e98b80d2293d3094be08289dd203b38dd28fb3b04b07a58f967efc7b169a5d32903e4d08025efa1fb3d04c5b0d3507489f503ad2c5cde9481f07d27b18de1f85d2c7c09ccef01e1886f71e86f74761781f03c33bc37b6018de7b18de1f85e17d0c0cef0cef816178ef61787f1486f73130bc33bc0786e1bd87e1fd5118dec7c0f0cef01e1886f71e86f74761781f03c33bc37b6018de7b18de1f85e19de19d859177614e674e0f0c737a0f73faa330a78f81e19de13d300cef3d0cef8fc2f03e06867786f7c030bcf730bc3f0ac3bbd0e1fd9b9399feaaf21fb3d0ec92b11de9af6ebe589b554f92febf5938be04428cf45ce5999bcae27982f49978f9330c72a4ffda5cc6b1038db51111d2d75cfab4df1739d2b72d7d0045e911407a0f737a1a283d0694de43e969a0f418507a0fa5a781d26340e93d949e064a8f01a5f7507a1a283d0694de43e9024bdf7169559ef49740d2ff14733d7d85d24fff09c301e9481f80d2293d300cef3d0cef69604e8f01a5f7507a1a283d0694de43e969a0f418507a0fa5a781d26340e93d949e064a8f01a5f7507a1a283d0694de43e969a0f418507a0fa54b5c23770c84fb3bb3882299f474201de981614e5f04944ee981a1f44540e9941e184a5f04944ee981a1f44540e9941e184a5f04944ee981a1f44540e9941e184a5f04944ee981a1f4049ced1d8c72ee39b3f14514679519bb1a45754ee9293857d6ee3594bef9d2abb86553fa0240fa8256c3c602e9488f0e7f644b00a5dfc0f01e034a4f004d0802a5df40e931a0f40450fa0d941e034a4f00a5df40e931a0f40450fa0d941e034a4f00a56fbff4736512f7f2b905a587e79cdd9cf2cbcf923a477af4a5ae1fcb64287debc37b96366c0b86f7f020fd3e941e034a0f0fa5df87d26340e9e1a1f4fb507a0c283d3c947e1f4a8f01a58787d2ef43e931a0f4f050fa7d283d06941e1e4adf7ee9679367aeb26d5efaab3217ca245e3361c1f03e3baf4b0bdb02e9b3f39a59b79359d8ef02a4cf0ea54b9cd3b385856d41e9b383f491507a0c287d76287d24941e034a9f1d4a1f09a5c780d26787d24742e931a0f4d9a1f491507a0c287d76287d24941e831596fef5dba7203cbd8ea41afeb1b82ba91648bff2a332b7d371900fff58bc73a4f7fcb86ca7938f7af4ffe8ff5da5bea38c1b4abf913ef2d1ffe35fffcef0bea639bd5a7ca23341e9b7a58b00e957902e7078ff41e9f2a43f215d9ef41f4847fa76e185dc154a4f04737a0c289dd253c30bb91850fa15e6f44430a7c780d2af507a2298d36340e957283d11cce931a0f42b949e08e6f41850fa154a4f04737a0c28fd0aa52782393d06947e85d213c19c1e034abf42e989604e8f01a55fa1f44430a7c780d2af507a2298d36340e957283d11cce931a0f42b949e08e6f41850fa154a4f04737a0c28fd0aa52782393d06947e85d213c19c1e034abf42e989604e8f01a55fa1f44430a7c780d2af507a2298d36340e957283d11cce931a0f42b21949e08e6f41850fa2779a5ff1f99c5c00c1c0bbbae0000000049454e44ae4260826821c1f66f1d355d9c1a2f918d6f19e637f69854810fb2a3d5dfd526d74cdff75e87d300000000"
}