{
  "txid": "1f59cf23abc74a9bcf4a9cc9c1a68e50480d7c7188e2d20f655a4bb46de6fd19",
  "version": 1,
  "locktime": 0,
  "vin": [
    {
      "txid": "7c9e80e4789142e470f1a0790a30417d9554669c095a28bf69dcd1939ebc188f",
      "vout": 1,
      "prevout": {
        "scriptpubkey": "a9142750743fcf0f76c4c55dc38889e569f757a9b66e87",
        "scriptpubkey_asm": "OP_HASH160 OP_PUSHBYTES_20 2750743fcf0f76c4c55dc38889e569f757a9b66e OP_EQUAL",
        "scriptpubkey_type": "p2sh",
        "scriptpubkey_address": "35Gtf5EuCrGwQEUtVt7pjU485VSGeVNp9P",
        "value": 35162312
      },
      "scriptsig": "1600144f105a0298943fefd3f211064fbe576f87c52a11",
      "scriptsig_asm": "OP_PUSHBYTES_22 00144f105a0298943fefd3f211064fbe576f87c52a11",
      "witness": [
        "3044022059a47ffed8e5ebee3513c6790c51a591838bdc0b9f77ce14e1187bdf1dfe4b9002202bc6bb9c0756cef1c59ac1a22de1f2edea8a002d5bfb19d07e564bf4481d76fc01",
        "032656d20be1d181d753f870188c009f7a4078743d26ebee2f1a1673dc7a0a30e4"
      ],
      "is_coinbase": false,
      "sequence": 4294967293,
      "inner_redeemscript_asm": "OP_0 OP_PUSHBYTES_20 4f105a0298943fefd3f211064fbe576f87c52a11"
    }
  ],
  "vout": [
    {
      "scriptpubkey": "a9145bd7ebf4973f41d67ace874f8b633a3c1b3c81fc87",
      "scriptpubkey_asm": "OP_HASH160 OP_PUSHBYTES_20 5bd7ebf4973f41d67ace874f8b633a3c1b3c81fc OP_EQUAL",
      "scriptpubkey_type": "p2sh",
      "scriptpubkey_address": "3A4e5W8izLPbXy7yDAWcW3rj2xNiwKs4sW",
      "value": 5160154
    },
    {
      "scriptpubkey": "a914a6d79698a33414ed3f6466ab556e0dd666ac390087",
      "scriptpubkey_asm": "OP_HASH160 OP_PUSHBYTES_20 a6d79698a33414ed3f6466ab556e0dd666ac3900 OP_EQUAL",
      "scriptpubkey_type": "p2sh",
      "scriptpubkey_address": "3GuCMitKio45sxPPpwGtqmQ6bk2Jca2A13",
      "value": 30000000
    }
  ],
  "size": 247,
  "weight": 661,
  "fee": 2158,
  "status": {
    "confirmed": true,
    "block_height": 834460,
    "block_hash": "00000000000000000000484a79b643b2524bbce82e5d8a442013fa5b8905ed98",
    "block_time": 1710307468
  },
  "hex": "010000000001018f18bc9e93d1dc69bf285a099c6654957d41300a79a0f170e4429178e4809e7c01000000171600144f105a0298943fefd3f211064fbe576f87c52a11fdffffff02dabc4e000000000017a9145bd7ebf4973f41d67ace874f8b633a3c1b3c81fc8780c3c9010000000017a914a6d79698a33414ed3f6466ab556e0dd666ac39008702473044022059a47ffed8e5ebee3513c6790c51a591838bdc0b9f77ce14e1187bdf1dfe4b9002202bc6bb9c0756cef1c59ac1a22de1f2edea8a002d5bfb19d07e564bf4481d76fc0121032656d20be1d181d753f870188c009f7a4078743d26ebee2f1a1673dc7a0a30e400000000"
}