{
  "txid": "1f667f83543442da94b0a414d9cb0e06d66216e91efb083ca883ee6ae1421d2e",
  "version": 2,
  "locktime": 0,
  "vin": [
    {
      "txid": "e419194ad1a7b87be0da4791bf876225d1d46083e4f2f1bf51435906b303b725",
      "vout": 1,
      "prevout": {
        "scriptpubkey": "512004996bde09e40acdcb11352d2a576ee26248bc16ff5319524019b9e003a8c193",
        "scriptpubkey_asm": "OP_PUSHNUM_1 OP_PUSHBYTES_32 04996bde09e40acdcb11352d2a576ee26248bc16ff5319524019b9e003a8c193",
        "scriptpubkey_type": "v1_p2tr",
        "scriptpubkey_address": "bc1pqjvkhhsfus9vmjc3x5kj54mwuf3y30qklaf3j5jqrxu7qqagcxfsfnpzv6",
        "value": 37563
      },
      "scriptsig": "",
      "scriptsig_asm": "",
      "witness": [
        "eba792a00afaa839752623b7b51aa7d90975e49b6f055fcca93db70af89af1cdae2cfe91629a7c7e494397de6cecdeef10821d515be6f5f4639481ccdedfba5a"
      ],
      "is_coinbase": false,
      "sequence": 4294967295
    },
    {
      "txid": "7e2f2134f4865d611a4684535507593f25f340b6feab9e1de5d0bb339c03dc2d",
      "vout": 1,
      "prevout": {
        "scriptpubkey": "512004996bde09e40acdcb11352d2a576ee26248bc16ff5319524019b9e003a8c193",
        "scriptpubkey_asm": "OP_PUSHNUM_1 OP_PUSHBYTES_32 04996bde09e40acdcb11352d2a576ee26248bc16ff5319524019b9e003a8c193",
        "scriptpubkey_type": "v1_p2tr",
        "scriptpubkey_address": "bc1pqjvkhhsfus9vmjc3x5kj54mwuf3y30qklaf3j5jqrxu7qqagcxfsfnpzv6",
        "value": 35574
      },
      "scriptsig": "",
      "scriptsig_asm": "",
      "witness": [
        "72e9dd316d9154bb22e3ea075f72bff7bd7d9a3268b9ac410bb4e1aed0c9ef4702c566f87b5d4abdeb1275010b64e1b9e8c842696db0794f499e2e4e98821f0d"
      ],
      "is_coinbase": false,
      "sequence": 4294967295
    }
  ],
  "vout": [
    {
      "scriptpubkey": "51207e4a66cc623bd9eaf05e986440d36d16e5a641238b52d5cac932d69b855dc99e",
      "scriptpubkey_asm": "OP_PUSHNUM_1 OP_PUSHBYTES_32 7e4a66cc623bd9eaf05e986440d36d16e5a641238b52d5cac932d69b855dc99e",
      "scriptpubkey_type": "v1_p2tr",
      "scriptpubkey_address": "bc1p0e9xdnrz80v74uz7npjyp5mdzmj6vsfr3dfdtjkfxttfhp2aex0q0frwmp",
      "value": 47528
    },
    {
      "scriptpubkey": "512004996bde09e40acdcb11352d2a576ee26248bc16ff5319524019b9e003a8c193",
      "scriptpubkey_asm": "OP_PUSHNUM_1 OP_PUSHBYTES_32 04996bde09e40acdcb11352d2a576ee26248bc16ff5319524019b9e003a8c193",
      "scriptpubkey_type": "v1_p2tr",
      "scriptpubkey_address": "bc1pqjvkhhsfus9vmjc3x5kj54mwuf3y30qklaf3j5jqrxu7qqagcxfsfnpzv6",
      "value": 22859
    }
  ],
  "size": 312,
  "weight": 846,
  "fee": 2750,
  "status": {
    "confirmed": true,
    "block_height": 834460,
    "block_hash": "00000000000000000000484a79b643b2524bbce82e5d8a442013fa5b8905ed98",
    "block_time": 1710307468
  },
  "hex": "0200000000010225b703b306594351bff1f2e48360d4d1256287bf9147dae07bb8a7d14a1919e40100000000ffffffff2ddc039c33bbd0e51d9eabfeb640f3253f5907555384461a615d86f434212f7e0100000000ffffffff02a8b90000000000002251207e4a66cc623bd9eaf05e986440d36d16e5a641238b52d5cac932d69b855dc99e4b5900000000000022512004996bde09e40acdcb11352d2a576ee26248bc16ff5319524019b9e003a8c1930140eba792a00afaa839752623b7b51aa7d90975e49b6f055fcca93db70af89af1cdae2cfe91629a7c7e494397de6cecdeef10821d515be6f5f4639481ccdedfba5a014072e9dd316d9154bb22e3ea075f72bff7bd7d9a3268b9ac410bb4e1aed0c9ef4702c566f87b5d4abdeb1275010b64e1b9e8c842696db0794f499e2e4e98821f0d00000000"
}