{
  "txid": "1f835e16d0428d234a24cdb83f59c553a09328a4a07abaabd4e78eeea0f6bcaa",
  "version": 2,
  "locktime": 834230,
  "vin": [
    {
      "txid": "714843ff4135b375610de0fdc13081bd6f9b40fd78d03761d9ef493e1588603e",
      "vout": 0,
      "prevout": {
        "scriptpubkey": "0014ef5fd5766315694553137af9c3d9e697c1743882",
        "scriptpubkey_asm": "OP_0 OP_PUSHBYTES_20 ef5fd5766315694553137af9c3d9e697c1743882",
        "scriptpubkey_type": "v0_p2wpkh",
        "scriptpubkey_address": "bc1qaa0a2anrz45525cn0tuu8k0xjlqhgwyzl7kq3v",
        "value": 1087898
      },
      "scriptsig": "",
      "scriptsig_asm": "",
      "witness": [
        "3044022077d4d361e6b872f2b864a9f65b785d2bd48eb62d5144410b1061221dcbc92f7d022001d4ce180c1190200ed125027d7aff8b33b49712e60ce557e3de285bda04a00101",
        "0255d5db76cbf58d91edd64ffd1f71476ea5f5477c244e961896069011b79858f2"
      ],
      "is_coinbase": false,
      "sequence": 4294967293
    }
  ],
  "vout": [
    {
      "scriptpubkey": "0014a41e4c18c547853a3e49bab6e198e9e5d225d56b",
      "scriptpubkey_asm": "OP_0 OP_PUSHBYTES_20 a41e4c18c547853a3e49bab6e198e9e5d225d56b",
      "scriptpubkey_type": "v0_p2wpkh",
      "scriptpubkey_address": "bc1q5s0ycxx9g7zn50jfh2mwrx8fuhfzt4ttku5uxf",
      "value": 1086688
    }
  ],
  "size": 191,
  "weight": 437,
  "fee": 1210,
  "status": {
    "confirmed": true,
    "block_height": 834464,
    "block_hash": "0000000000000000000177a0869a911a2b65c9bdcd5a8bcb02b68f305bee848e",
    "block_time": 1710308296
  },
  "hex": "020000000001013e6088153e49efd96137d078fd409b6fbd8130c1fde00d6175b33541ff4348710000000000fdffffff01e094100000000000160014a41e4c18c547853a3e49bab6e198e9e5d225d56b02473044022077d4d361e6b872f2b864a9f65b785d2bd48eb62d5144410b1061221dcbc92f7d022001d4ce180c1190200ed125027d7aff8b33b49712e60ce557e3de285bda04a00101210255d5db76cbf58d91edd64ffd1f71476ea5f5477c244e961896069011b79858f2b6ba0c00"
}