{
  "txid": "1f8abcfeb56ae49d6d893de20e722e6aab7fc5dd9208e8a52792af13685dc02a",
  "version": 2,
  "locktime": 0,
  "vin": [
    {
      "txid": "a8cc151578fb8b5287045390a4498908abacfbc714aade10e4cba9419fc106b8",
      "vout": 0,
      "prevout": {
        "scriptpubkey": "5120b745858975d80a8e1f2499610b82b8e9308ef8aef661771b3e9e06459a3a0a0b",
        "scriptpubkey_asm": "OP_PUSHNUM_1 OP_PUSHBYTES_32 b745858975d80a8e1f2499610b82b8e9308ef8aef661771b3e9e06459a3a0a0b",
        "scriptpubkey_type": "v1_p2tr",
        "scriptpubkey_address": "bc1pkazctzt4mq9gu8eyn9sshq4caycga79w7eshwxe7ncrytx36pg9ss6rsud",
        "value": 546
      },
      "scriptsig": "",
      "scriptsig_asm": "",
      "witness": [
        "b545ebe282af2a591735113469c695ea3a4dd57f8e2830a9904e1a3ed084fb9d1e33c8773aeabc4a59c1e37b1cedd61a062fd4aea9c6b092008ff3a1c5fa1752"
      ],
      "is_coinbase": false,
      "sequence": 4294967295
    },
    {
      "txid": "f859600dbbbcf25c1828e4c42a0b2f0bbae41919413b3066406873e4ea3b7cb9",
      "vout": 1,
      "prevout": {
        "scriptpubkey": "5120b745858975d80a8e1f2499610b82b8e9308ef8aef661771b3e9e06459a3a0a0b",
        "scriptpubkey_asm": "OP_PUSHNUM_1 OP_PUSHBYTES_32 b745858975d80a8e1f2499610b82b8e9308ef8aef661771b3e9e06459a3a0a0b",
        "scriptpubkey_type": "v1_p2tr",
        "scriptpubkey_address": "bc1pkazctzt4mq9gu8eyn9sshq4caycga79w7eshwxe7ncrytx36pg9ss6rsud",
        "value": 1146438
      },
      "scriptsig": "",
      "scriptsig_asm": "",
      "witness": [
        "c072612fb1fbeca56c82088786cf0f2d193fc54c55b6e40fc54e20f77758d497ab968b8efa186ef6f86a4c0ead94be20760ad66ef5e779dc8f89d6d19e9d0ca7"
      ],
      "is_coinbase": false,
      "sequence": 4294967295
    }
  ],
  "vout": [
    {
      "scriptpubkey": "51200297e69a4802989213c2e2cd323c8822b34338a9fa4dc48a7ff58eaa1f299da4",
      "scriptpubkey_asm": "OP_PUSHNUM_1 OP_PUSHBYTES_32 0297e69a4802989213c2e2cd323c8822b34338a9fa4dc48a7ff58eaa1f299da4",
      "scriptpubkey_type": "v1_p2tr",
      "scriptpubkey_address": "bc1pq2t7dxjgq2vfyy7zutxny0ygy2e5xw9flfxufznl7k8258efnkjqvwck34",
      "value": 546
    },
    {
      "scriptpubkey": "5120b745858975d80a8e1f2499610b82b8e9308ef8aef661771b3e9e06459a3a0a0b",
      "scriptpubkey_asm": "OP_PUSHNUM_1 OP_PUSHBYTES_32 b745858975d80a8e1f2499610b82b8e9308ef8aef661771b3e9e06459a3a0a0b",
      "scriptpubkey_type": "v1_p2tr",
      "scriptpubkey_address": "bc1pkazctzt4mq9gu8eyn9sshq4caycga79w7eshwxe7ncrytx36pg9ss6rsud",
      "value": 1142834
    }
  ],
  "size": 312,
  "weight": 846,
  "fee": 3604,
  "status": {
    "confirmed": true,
    "block_height": 834638,
    "block_hash": "000000000000000000025f742c626208ac87e0b7d15054abb4a19ca2d735a54e",
    "block_time": 1710405325
  },
  "hex": "02000000000102b806c19f41a9cbe410deaa14c7fbacab088949a490530487528bfb781515cca80000000000ffffffffb97c3beae473684066303b411919e4ba0b2f0b2ac4e428185cf2bcbb0d6059f80100000000ffffffff0222020000000000002251200297e69a4802989213c2e2cd323c8822b34338a9fa4dc48a7ff58eaa1f299da43270110000000000225120b745858975d80a8e1f2499610b82b8e9308ef8aef661771b3e9e06459a3a0a0b0140b545ebe282af2a591735113469c695ea3a4dd57f8e2830a9904e1a3ed084fb9d1e33c8773aeabc4a59c1e37b1cedd61a062fd4aea9c6b092008ff3a1c5fa17520140c072612fb1fbeca56c82088786cf0f2d193fc54c55b6e40fc54e20f77758d497ab968b8efa186ef6f86a4c0ead94be20760ad66ef5e779dc8f89d6d19e9d0ca700000000"
}