{
  "txid": "1f908190610cf904552c33c5e4c384cb5adf9994e240973824c7316fd1b12528",
  "version": 1,
  "locktime": 0,
  "vin": [
    {
      "txid": "debdb40140009b2728822feaebbc53a95f6458605237e4cf4530cae77ceb44d6",
      "vout": 0,
      "prevout": {
        "scriptpubkey": "76a914e42e13f7ac3c812845540bb5558961c8e6cc6f5488ac",
        "scriptpubkey_asm": "OP_DUP OP_HASH160 OP_PUSHBYTES_20 e42e13f7ac3c812845540bb5558961c8e6cc6f54 OP_EQUALVERIFY OP_CHECKSIG",
        "scriptpubkey_type": "p2pkh",
        "scriptpubkey_address": "1MoWGHyqsJVfUJ5LjTUZ34zK8zjud6QjCU",
        "value": 10627944
      },
      "scriptsig": "483045022100e1e5d577dfdb560cce738449268f1203f6a3d59ce8b36402b8606e9d20e51ef7022073cecb02585046498dff435aa1bde3d3848c2ab7dc376eae1f18971518d3366d0121020db38cac9a5687bec2e4e1b3066def837cd9952e79ca403d2e5edc2217fcb796",
      "scriptsig_asm": "OP_PUSHBYTES_72 3045022100e1e5d577dfdb560cce738449268f1203f6a3d59ce8b36402b8606e9d20e51ef7022073cecb02585046498dff435aa1bde3d3848c2ab7dc376eae1f18971518d3366d01 OP_PUSHBYTES_33 020db38cac9a5687bec2e4e1b3066def837cd9952e79ca403d2e5edc2217fcb796",
      "is_coinbase": false,
      "sequence": 4294967293
    }
  ],
  "vout": [
    {
      "scriptpubkey": "00142fa411f3d6d58426e02a478644e5cdee4ce72fba",
      "scriptpubkey_asm": "OP_0 OP_PUSHBYTES_20 2fa411f3d6d58426e02a478644e5cdee4ce72fba",
      "scriptpubkey_type": "v0_p2wpkh",
      "scriptpubkey_address": "bc1q97jpru7k6kzzdcp2g7ryfewdaexwwta6trg4a8",
      "value": 88465
    },
    {
      "scriptpubkey": "76a9146722fe5e2934e597fec55c44aee492c787d042a688ac",
      "scriptpubkey_asm": "OP_DUP OP_HASH160 OP_PUSHBYTES_20 6722fe5e2934e597fec55c44aee492c787d042a6 OP_EQUALVERIFY OP_CHECKSIG",
      "scriptpubkey_type": "p2pkh",
      "scriptpubkey_address": "1AQLXAB6aXSVbRMjbhSBudLf1kcsbWSEjg",
      "value": 10532754
    }
  ],
  "size": 223,
  "weight": 892,
  "fee": 6725,
  "status": {
    "confirmed": true,
    "block_height": 834638,
    "block_hash": "000000000000000000025f742c626208ac87e0b7d15054abb4a19ca2d735a54e",
    "block_time": 1710405325
  },
  "hex": "0100000001d644eb7ce7ca3045cfe437526058645fa953bcebea2f8228279b004001b4bdde000000006b483045022100e1e5d577dfdb560cce738449268f1203f6a3d59ce8b36402b8606e9d20e51ef7022073cecb02585046498dff435aa1bde3d3848c2ab7dc376eae1f18971518d3366d0121020db38cac9a5687bec2e4e1b3066def837cd9952e79ca403d2e5edc2217fcb796fdffffff0291590100000000001600142fa411f3d6d58426e02a478644e5cdee4ce72fba92b7a000000000001976a9146722fe5e2934e597fec55c44aee492c787d042a688ac00000000"
}