{
  "txid": "1f915acd578fbc7fee5079b76e1dd31b5748b4985dd7878b2de452bc5d3caaa9",
  "version": 2,
  "locktime": 0,
  "vin": [
    {
      "txid": "63ae3f28afd5d0a929109d69e6dd14c64a5f88e60465d97a08caa06060e15e8f",
      "vout": 30,
      "prevout": {
        "scriptpubkey": "5120e2a96840e6276686cb4e74086b2614c4c73a332771c7d8cd40643695a7fc16cb",
        "scriptpubkey_asm": "OP_PUSHNUM_1 OP_PUSHBYTES_32 e2a96840e6276686cb4e74086b2614c4c73a332771c7d8cd40643695a7fc16cb",
        "scriptpubkey_type": "v1_p2tr",
        "scriptpubkey_address": "bc1pu25kss8xyangdj6wwsyxkfs5cnrn5ve8w8ra3n2qvsmftfluzm9ss86e7q",
        "value": 3042
      },
      "scriptsig": "",
      "scriptsig_asm": "",
      "witness": [
        "337eb397693dc2cd588e917deac88ab1904e33af57acd2a8c9a2ef0c7a99de4ea878582de5e453786b55d94eed2c3124b17a3107393591197b09cc4feb48dd72",
        "20f99c930ade0fe360aa37d80809d1ab74793ea137f40406f73ed44cd6a0783f3aac0063036f726401011e6170706c69636174696f6e2f6a736f6e3b636861727365743d7574662d38004cd27b2270223a22706f772d3230222c226f70223a226d696e74222c227469636b223a2250455045222c22616d74223a2231303030222c22736f6c7574696f6e223a22504550453a626331706a39356d676c663836377961396a32756368377a34647836793635746736373330676e7661796b706b6c77793335757667376a73773033676d713a303030303030303030303030303030303030303139393431613561653132383937363539383134343239323533333030353762306461393666336465613163353a38353132353833393039227d68",
        "c1ffe2b6185dd514800047a24f9c3d628916daef0b23d9f98ab4cda2a0457a18d1"
      ],
      "is_coinbase": false,
      "sequence": 4294967295
    }
  ],
  "vout": [
    {
      "scriptpubkey": "51209169b47d27d789d2c95cc5fc2ab4da26a8b46bd17a26ce92c1b7dc48d38c47a5",
      "scriptpubkey_asm": "OP_PUSHNUM_1 OP_PUSHBYTES_32 9169b47d27d789d2c95cc5fc2ab4da26a8b46bd17a26ce92c1b7dc48d38c47a5",
      "scriptpubkey_type": "v1_p2tr",
      "scriptpubkey_address": "bc1pj95mglf867ya9j2uch7z4dx6y65tg6730gnvaykpklwy35uvg7jsw03gmq",
      "value": 546
    }
  ],
  "size": 486,
  "weight": 768,
  "fee": 2496,
  "status": {
    "confirmed": true,
    "block_height": 834460,
    "block_hash": "00000000000000000000484a79b643b2524bbce82e5d8a442013fa5b8905ed98",
    "block_time": 1710307468
  },
  "hex": "020000000001018f5ee16060a0ca087ad96504e6885f4ac614dde6699d1029a9d0d5af283fae631e00000000ffffffff0122020000000000002251209169b47d27d789d2c95cc5fc2ab4da26a8b46bd17a26ce92c1b7dc48d38c47a50340337eb397693dc2cd588e917deac88ab1904e33af57acd2a8c9a2ef0c7a99de4ea878582de5e453786b55d94eed2c3124b17a3107393591197b09cc4feb48dd72fd1f0120f99c930ade0fe360aa37d80809d1ab74793ea137f40406f73ed44cd6a0783f3aac0063036f726401011e6170706c69636174696f6e2f6a736f6e3b636861727365743d7574662d38004cd27b2270223a22706f772d3230222c226f70223a226d696e74222c227469636b223a2250455045222c22616d74223a2231303030222c22736f6c7574696f6e223a22504550453a626331706a39356d676c663836377961396a32756368377a34647836793635746736373330676e7661796b706b6c77793335757667376a73773033676d713a303030303030303030303030303030303030303139393431613561653132383937363539383134343239323533333030353762306461393666336465613163353a38353132353833393039227d6821c1ffe2b6185dd514800047a24f9c3d628916daef0b23d9f98ab4cda2a0457a18d100000000"
}