{
  "txid": "1faf3dd00c7de2679e2cc35898c98e659d36f73120d72be97c81598e13b0c4ec",
  "version": 2,
  "locktime": 0,
  "vin": [
    {
      "txid": "1704bebb7406556ced75ce836001a73ebea47503ef08db352224e73968c571d6",
      "vout": 0,
      "prevout": {
        "scriptpubkey": "0014ede3bcec06122e1622268ae8c3116c207c6f0f7a",
        "scriptpubkey_asm": "OP_0 OP_PUSHBYTES_20 ede3bcec06122e1622268ae8c3116c207c6f0f7a",
        "scriptpubkey_type": "v0_p2wpkh",
        "scriptpubkey_address": "bc1qah3memqxzghpvg3x3t5vxytvyp7x7rm6xnkmwv",
        "value": 183844
      },
      "scriptsig": "",
      "scriptsig_asm": "",
      "witness": [
        "3044022004e1e0e53bfeb8e9c6339042215be72ca4e33a5571943141ba3126b638d9046f02202ae3278db43bf85d9630deafc2f0a3520c7f698e7a78c72ac580724a0443abc801",
        "03d5bd8b13356a2b97154825ae15af6db047e62fd0ea6cd504e6e08bfb30d0661d"
      ],
      "is_coinbase": false,
      "sequence": 0
    }
  ],
  "vout": [
    {
      "scriptpubkey": "00142d000e87b9f107b9b57fce5717971a415ca6ab88",
      "scriptpubkey_asm": "OP_0 OP_PUSHBYTES_20 2d000e87b9f107b9b57fce5717971a415ca6ab88",
      "scriptpubkey_type": "v0_p2wpkh",
      "scriptpubkey_address": "bc1q95qqapae7yrmndtleet309c6g9w2d2ugtt0sdk",
      "value": 100000
    },
    {
      "scriptpubkey": "0014bbe9788355e00a454bb075552cabb1d49bb5cdb6",
      "scriptpubkey_asm": "OP_0 OP_PUSHBYTES_20 bbe9788355e00a454bb075552cabb1d49bb5cdb6",
      "scriptpubkey_type": "v0_p2wpkh",
      "scriptpubkey_address": "bc1qh05h3q64uq9y2jasw42je2a36jdmtndkzjuh38",
      "value": 81333
    }
  ],
  "size": 222,
  "weight": 561,
  "fee": 2511,
  "status": {
    "confirmed": true,
    "block_height": 834638,
    "block_hash": "000000000000000000025f742c626208ac87e0b7d15054abb4a19ca2d735a54e",
    "block_time": 1710405325
  },
  "hex": "02000000000101d671c56839e7242235db08ef0375a4be3ea7016083ce75ed6c550674bbbe041700000000000000000002a0860100000000001600142d000e87b9f107b9b57fce5717971a415ca6ab88b53d010000000000160014bbe9788355e00a454bb075552cabb1d49bb5cdb602473044022004e1e0e53bfeb8e9c6339042215be72ca4e33a5571943141ba3126b638d9046f02202ae3278db43bf85d9630deafc2f0a3520c7f698e7a78c72ac580724a0443abc8012103d5bd8b13356a2b97154825ae15af6db047e62fd0ea6cd504e6e08bfb30d0661d00000000"
}