{
  "txid": "1fb44fa38b5e264bec226f8841f3005e907bba2fbfbbcca2094b100a7f9272b8",
  "version": 2,
  "locktime": 0,
  "vin": [
    {
      "txid": "acc3ba00869acb582a3f2904ce3a11dd3779350ce234063fc7d0959246213364",
      "vout": 236,
      "prevout": {
        "scriptpubkey": "5120b635d1640636417ae60f0e8f7dd7e894a972fec4ef64538e498c11160c21dd74",
        "scriptpubkey_asm": "OP_PUSHNUM_1 OP_PUSHBYTES_32 b635d1640636417ae60f0e8f7dd7e894a972fec4ef64538e498c11160c21dd74",
        "scriptpubkey_type": "v1_p2tr",
        "scriptpubkey_address": "bc1pkc6azeqxxeqh4es0p68hm4lgjj5h9lkyaaj98rjf3sg3vrppm46qpzgpxv",
        "value": 1806
      },
      "scriptsig": "",
      "scriptsig_asm": "",
      "witness": [
        "2d44e3b67f11a30f67c4ec5a546a5a762d79f5812d3ab11a339177c5d31b7dedf820029c9e2322e9d4042e25f6651c1aff7776e8ea3787b479efe82129d0fa19",
        "2090351779faef046d525b3c5678a30f458c71d5c540159271048afdb1ba8d1540ac0063036f726401010a746578742f706c61696e00357b2270223a226272632d3230222c226f70223a226d696e74222c227469636b223a22646f6765222c22616d74223a2234323030227d68",
        "c090351779faef046d525b3c5678a30f458c71d5c540159271048afdb1ba8d1540"
      ],
      "is_coinbase": false,
      "sequence": 4261412863
    }
  ],
  "vout": [
    {
      "scriptpubkey": "00147a665de7a370f4c9b372ab1fae587500a5bcbdb4",
      "scriptpubkey_asm": "OP_0 OP_PUSHBYTES_20 7a665de7a370f4c9b372ab1fae587500a5bcbdb4",
      "scriptpubkey_type": "v0_p2wpkh",
      "scriptpubkey_address": "bc1q0fn9mearwr6vnvmj4v06ukr4qzjme0d565dzcx",
      "value": 294
    }
  ],
  "size": 294,
  "weight": 540,
  "fee": 1512,
  "status": {
    "confirmed": true,
    "block_height": 834460,
    "block_hash": "00000000000000000000484a79b643b2524bbce82e5d8a442013fa5b8905ed98",
    "block_time": 1710307468
  },
  "hex": "02000000000101643321469295d0c73f0634e20c357937dd113ace04293f2a58cb9a8600bac3acec00000000fffffffd0126010000000000001600147a665de7a370f4c9b372ab1fae587500a5bcbdb403402d44e3b67f11a30f67c4ec5a546a5a762d79f5812d3ab11a339177c5d31b7dedf820029c9e2322e9d4042e25f6651c1aff7776e8ea3787b479efe82129d0fa196d2090351779faef046d525b3c5678a30f458c71d5c540159271048afdb1ba8d1540ac0063036f726401010a746578742f706c61696e00357b2270223a226272632d3230222c226f70223a226d696e74222c227469636b223a22646f6765222c22616d74223a2234323030227d6821c090351779faef046d525b3c5678a30f458c71d5c540159271048afdb1ba8d154000000000"
}