{
  "txid": "1fb4f0ca43898c25340ca1d504c92cb4187fac8d3154f9adfb437d332337b71e",
  "version": 2,
  "locktime": 0,
  "vin": [
    {
      "txid": "e835c4d922fbed17c48b3bb466ba1ffc020ede84c1303bdb67ca1f883dd615bb",
      "vout": 1,
      "prevout": {
        "scriptpubkey": "5120b3a6d850453ea6dc52828423c9263c5d037808e8f52248d65bb1866fe9729848",
        "scriptpubkey_asm": "OP_PUSHNUM_1 OP_PUSHBYTES_32 b3a6d850453ea6dc52828423c9263c5d037808e8f52248d65bb1866fe9729848",
        "scriptpubkey_type": "v1_p2tr",
        "scriptpubkey_address": "bc1pkwnds5z986ndc55zss3ujf3ut5phsz8g753y34jmkxrxl6tjnpyqqjudy5",
        "value": 3248
      },
      "scriptsig": "",
      "scriptsig_asm": "",
      "witness": [
        "86a57a3dd2a2e233fb38754fc4b27e115363ad6fa21fd085a51675b724285f5fb72a474c2fb98992d6fccaa5f9d8b5d5cc1072188c0318e70c977574aa4a05f8",
        "209f8b27ab37b1a8c1022cfb55a382caefc6737d31489602b7c1aca998c3eb9ce1ac0063036f726401011e6170706c69636174696f6e2f6a736f6e3b636861727365743d7574662d38004cd37b2270223a22706f772d3230222c226f70223a226d696e74222c227469636b223a2250455045222c22616d74223a2231303030222c22736f6c7574696f6e223a22504550453a626331703378336875706e76383064666366666c34333367327a3776713378706c63673364666d79716365336d6c6d6e78397767753872717265763032653a303030303030303030303030303030303030303139393431613561653132383937363539383134343239323533333030353762306461393666336465613163353a3333353232303332393236227d68",
        "c1bf69a78b1b6433fca38fda21525e43a6c565682ca08e513a8f66feb668723930"
      ],
      "is_coinbase": false,
      "sequence": 4294967295
    }
  ],
  "vout": [
    {
      "scriptpubkey": "512089a37e066c3bda9c253fac62850bcc044c1fe1116a76406331dff73315c8e1c6",
      "scriptpubkey_asm": "OP_PUSHNUM_1 OP_PUSHBYTES_32 89a37e066c3bda9c253fac62850bcc044c1fe1116a76406331dff73315c8e1c6",
      "scriptpubkey_type": "v1_p2tr",
      "scriptpubkey_address": "bc1p3x3hupnv80dfcffl433g2z7vq3xplcg3dfmyqce3mlmnx9wgu8rqrev02e",
      "value": 546
    }
  ],
  "size": 487,
  "weight": 769,
  "fee": 2702,
  "status": {
    "confirmed": true,
    "block_height": 834460,
    "block_hash": "00000000000000000000484a79b643b2524bbce82e5d8a442013fa5b8905ed98",
    "block_time": 1710307468
  },
  "hex": "02000000000101bb15d63d881fca67db3b30c184de0e02fc1fba66b43b8bc417edfb22d9c435e80100000000ffffffff01220200000000000022512089a37e066c3bda9c253fac62850bcc044c1fe1116a76406331dff73315c8e1c6034086a57a3dd2a2e233fb38754fc4b27e115363ad6fa21fd085a51675b724285f5fb72a474c2fb98992d6fccaa5f9d8b5d5cc1072188c0318e70c977574aa4a05f8fd2001209f8b27ab37b1a8c1022cfb55a382caefc6737d31489602b7c1aca998c3eb9ce1ac0063036f726401011e6170706c69636174696f6e2f6a736f6e3b636861727365743d7574662d38004cd37b2270223a22706f772d3230222c226f70223a226d696e74222c227469636b223a2250455045222c22616d74223a2231303030222c22736f6c7574696f6e223a22504550453a626331703378336875706e76383064666366666c34333367327a3776713378706c63673364666d79716365336d6c6d6e78397767753872717265763032653a303030303030303030303030303030303030303139393431613561653132383937363539383134343239323533333030353762306461393666336465613163353a3333353232303332393236227d6821c1bf69a78b1b6433fca38fda21525e43a6c565682ca08e513a8f66feb66872393000000000"
}