{
  "txid": "1fd049ca0dd0678ac5a944470686453e3e46c8bdb6dc45c89e845b0347a082af",
  "version": 1,
  "locktime": 0,
  "vin": [
    {
      "txid": "29d6a4c7bb3c4053a33a728a4733d280ede9cd67b3101bed040c792103e76586",
      "vout": 0,
      "prevout": {
        "scriptpubkey": "0014f1342a070fd9e4cab78f3315a524b5fbb603766d",
        "scriptpubkey_asm": "OP_0 OP_PUSHBYTES_20 f1342a070fd9e4cab78f3315a524b5fbb603766d",
        "scriptpubkey_type": "v0_p2wpkh",
        "scriptpubkey_address": "bc1q7y6z5pc0m8jv4du0xv262f94lwmqxandkxmumy",
        "value": 1560571
      },
      "scriptsig": "",
      "scriptsig_asm": "",
      "witness": [
        "3045022100e4b7a8920d3f0f43924781110a0b36c4d4d61d12532f482101d4e87a0abc80b8022028a4fb4878a73f83ac9d2df9ec91375985e4626ab0ffb0cf7b59c1670d7a1bff01",
        "02a1693c262111b9fcb936369cf8448c74843904dbb13d5750d2287cf6d3e239f5"
      ],
      "is_coinbase": false,
      "sequence": 4294967293
    }
  ],
  "vout": [
    {
      "scriptpubkey": "001451034d8f11314fec478325395ba327407721f3a4",
      "scriptpubkey_asm": "OP_0 OP_PUSHBYTES_20 51034d8f11314fec478325395ba327407721f3a4",
      "scriptpubkey_type": "v0_p2wpkh",
      "scriptpubkey_address": "bc1q2yp5mrc3x987c3ury5u4hge8gpmjruay09232k",
      "value": 48507
    },
    {
      "scriptpubkey": "0014c66260c274ca925e3e95322f30e1b4c3f3b35f07",
      "scriptpubkey_asm": "OP_0 OP_PUSHBYTES_20 c66260c274ca925e3e95322f30e1b4c3f3b35f07",
      "scriptpubkey_type": "v0_p2wpkh",
      "scriptpubkey_address": "bc1qce3xpsn5e2f9u054xghnpcd5c0emxhc8dn5h7m",
      "value": 1510112
    }
  ],
  "size": 223,
  "weight": 562,
  "fee": 1952,
  "status": {
    "confirmed": true,
    "block_height": 834460,
    "block_hash": "00000000000000000000484a79b643b2524bbce82e5d8a442013fa5b8905ed98",
    "block_time": 1710307468
  },
  "hex": "010000000001018665e70321790c04ed1b10b367cde9ed80d233478a723aa353403cbbc7a4d6290000000000fdffffff027bbd00000000000016001451034d8f11314fec478325395ba327407721f3a4e00a170000000000160014c66260c274ca925e3e95322f30e1b4c3f3b35f0702483045022100e4b7a8920d3f0f43924781110a0b36c4d4d61d12532f482101d4e87a0abc80b8022028a4fb4878a73f83ac9d2df9ec91375985e4626ab0ffb0cf7b59c1670d7a1bff012102a1693c262111b9fcb936369cf8448c74843904dbb13d5750d2287cf6d3e239f500000000"
}