{
  "txid": "1fd68cf514a437e11facb3b452ff45e5849881698a81ad9c24424c8a20ed48f1",
  "version": 2,
  "locktime": 0,
  "vin": [
    {
      "txid": "ec4b87ca63cec112765a1fe9236581ac5567c16be9e6c0cedcdb08283a8033ac",
      "vout": 0,
      "prevout": {
        "scriptpubkey": "5120ba0db8e3fb2a94fbb315a0e7b69dcc91fbfac5fee7ef4f400c937d5c728b267f",
        "scriptpubkey_asm": "OP_PUSHNUM_1 OP_PUSHBYTES_32 ba0db8e3fb2a94fbb315a0e7b69dcc91fbfac5fee7ef4f400c937d5c728b267f",
        "scriptpubkey_type": "v1_p2tr",
        "scriptpubkey_address": "bc1phgxm3clm9220hvc45rnmd8wvj8al4307ulh57sqvjd74cu5tyelsq0hdg6",
        "value": 4000
      },
      "scriptsig": "",
      "scriptsig_asm": "",
      "witness": [
        "1a000b0e97a163c4592fb764c6f6f95bd4aaf0fe75fa879749318b516d175d30a8cc98fde72a1f32b57bc60fd4e56be5374e7ef23d6407f4a4ac99823584f728",
        "2023592a84c929d82789628d54bfdd149b68f176671ee49148413202f87e90ade6ac0063036f7264010118746578742f706c61696e3b636861727365743d7574662d38003b7b2270223a226272632d3230222c226f70223a227472616e73666572222c227469636b223a2261616161222c22616d74223a22323330303030227d68",
        "c16808a42252688f31e3bc2a69ff2cff8b3954e9101965e67e46627c3a41f8f2d5"
      ],
      "is_coinbase": false,
      "sequence": 4294967293
    }
  ],
  "vout": [
    {
      "scriptpubkey": "0014c8096bcd95b1bae34237d1d30544641cca8b58c7",
      "scriptpubkey_asm": "OP_0 OP_PUSHBYTES_20 c8096bcd95b1bae34237d1d30544641cca8b58c7",
      "scriptpubkey_type": "v0_p2wpkh",
      "scriptpubkey_address": "bc1qeqykhnv4kxawxs3h68fs23ryrn9gkkx8cn6f5r",
      "value": 294
    },
    {
      "scriptpubkey": "00145be3831046b77c4a95a45d4296c71f7a428c392e",
      "scriptpubkey_asm": "OP_0 OP_PUSHBYTES_20 5be3831046b77c4a95a45d4296c71f7a428c392e",
      "scriptpubkey_type": "v0_p2wpkh",
      "scriptpubkey_address": "bc1qt03cxyzxka7y49dyt4pfd3cl0fpgcwfw9nn0dx",
      "value": 1141
    }
  ],
  "size": 345,
  "weight": 684,
  "fee": 2565,
  "status": {
    "confirmed": true,
    "block_height": 834460,
    "block_hash": "00000000000000000000484a79b643b2524bbce82e5d8a442013fa5b8905ed98",
    "block_time": 1710307468
  },
  "hex": "02000000000101ac33803a2808dbdccec0e6e96bc16755ac816523e91f5a7612c1ce63ca874bec0000000000fdffffff022601000000000000160014c8096bcd95b1bae34237d1d30544641cca8b58c775040000000000001600145be3831046b77c4a95a45d4296c71f7a428c392e03401a000b0e97a163c4592fb764c6f6f95bd4aaf0fe75fa879749318b516d175d30a8cc98fde72a1f32b57bc60fd4e56be5374e7ef23d6407f4a4ac99823584f728812023592a84c929d82789628d54bfdd149b68f176671ee49148413202f87e90ade6ac0063036f7264010118746578742f706c61696e3b636861727365743d7574662d38003b7b2270223a226272632d3230222c226f70223a227472616e73666572222c227469636b223a2261616161222c22616d74223a22323330303030227d6821c16808a42252688f31e3bc2a69ff2cff8b3954e9101965e67e46627c3a41f8f2d500000000"
}