{
  "txid": "1fe3d42c34d70c8f6192be9f4771061c6fde1d55a086e18184a1f8af5c0fd87c",
  "version": 2,
  "locktime": 834637,
  "vin": [
    {
      "txid": "baf45c152415f62e545f316c9048cae5e19d8b6da792633fd82b55e49262f892",
      "vout": 0,
      "prevout": {
        "scriptpubkey": "00141e557b955fd886c4e636d94aebcf750a1b2ad41a",
        "scriptpubkey_asm": "OP_0 OP_PUSHBYTES_20 1e557b955fd886c4e636d94aebcf750a1b2ad41a",
        "scriptpubkey_type": "v0_p2wpkh",
        "scriptpubkey_address": "bc1qre2hh92lmzrvfe3km99whnm4pgdj44q6rk5ldc",
        "value": 255175368
      },
      "scriptsig": "",
      "scriptsig_asm": "",
      "witness": [
        "304402200f232de9f0c826dfc4a9896adc3a34e9db66a2ecf08ec7966a3aaeb65700f9a602200669dbbbf079089800a8d839692068dcb1184dba98003efcf4a3c745ea90ed1b01",
        "029c7ab2e57164ec91e56b916dbdf47a326966a911f019e218c6d1fd1de8be5d06"
      ],
      "is_coinbase": false,
      "sequence": 4294967294
    }
  ],
  "vout": [
    {
      "scriptpubkey": "0014e78f33bbcc9427f771fa6148e8e64bde2a69648b",
      "scriptpubkey_asm": "OP_0 OP_PUSHBYTES_20 e78f33bbcc9427f771fa6148e8e64bde2a69648b",
      "scriptpubkey_type": "v0_p2wpkh",
      "scriptpubkey_address": "bc1qu78n8w7vjsnlwu06v9yw3ejtmc4xjeyt3jh4aw",
      "value": 254594112
    },
    {
      "scriptpubkey": "0014cf6c898c9360007ef4268b2833234e8896e6df67",
      "scriptpubkey_asm": "OP_0 OP_PUSHBYTES_20 cf6c898c9360007ef4268b2833234e8896e6df67",
      "scriptpubkey_type": "v0_p2wpkh",
      "scriptpubkey_address": "bc1qeakgnrynvqq8aapx3v5rxg6w3ztwdhm8acejjh",
      "value": 577800
    }
  ],
  "size": 222,
  "weight": 561,
  "fee": 3456,
  "status": {
    "confirmed": true,
    "block_height": 834638,
    "block_hash": "000000000000000000025f742c626208ac87e0b7d15054abb4a19ca2d735a54e",
    "block_time": 1710405325
  },
  "hex": "0200000000010192f86292e4552bd83f6392a76d8b9de1e5ca48906c315f542ef61524155cf4ba0000000000feffffff0240cc2c0f00000000160014e78f33bbcc9427f771fa6148e8e64bde2a69648b08d1080000000000160014cf6c898c9360007ef4268b2833234e8896e6df670247304402200f232de9f0c826dfc4a9896adc3a34e9db66a2ecf08ec7966a3aaeb65700f9a602200669dbbbf079089800a8d839692068dcb1184dba98003efcf4a3c745ea90ed1b0121029c7ab2e57164ec91e56b916dbdf47a326966a911f019e218c6d1fd1de8be5d064dbc0c00"
}