{
  "txid": "1fef56c29dfa3033ef3f0b44c2572c279aaa25171f9a77923b07f4eb2145a51a",
  "version": 2,
  "locktime": 0,
  "vin": [
    {
      "txid": "0ad82719c5568c4acd81b83e609db57306639901211bd5a5b68a6fc3de4e1473",
      "vout": 8,
      "prevout": {
        "scriptpubkey": "51202c5d0399ae52948c881041ae7e43fd9eac447595af9754bffee94a3fb78c9465",
        "scriptpubkey_asm": "OP_PUSHNUM_1 OP_PUSHBYTES_32 2c5d0399ae52948c881041ae7e43fd9eac447595af9754bffee94a3fb78c9465",
        "scriptpubkey_type": "v1_p2tr",
        "scriptpubkey_address": "bc1p93ws8xdw222gezqsgxh8uslan6kygav447t4f0l7a99rlduvj3jsgd9ztk",
        "value": 2834
      },
      "scriptsig": "",
      "scriptsig_asm": "",
      "witness": [
        "d6133b173cf1df784332b7e5757b7669b886b327748ea1c67a3c655d1e9d3673b4a08e5fd647ee1d440cb6b1a74b331269b811c56cc3ca7ae56a410df2124ea1",
        "2014f0f627504c17bf3806a735d5466fedb99248aa0bc576aab5165b5eb3996148ac0063036f726401011e6170706c69636174696f6e2f6a736f6e3b636861727365743d7574662d38004cbf7b2270223a22706f772d3230222c226f70223a226d696e74222c227469636b223a2250455045222c22616d74223a2231303030222c22736f6c7574696f6e223a22504550453a6263317173637064736c337671777466366a733538786832307637717775716839336e777737783763793a303030303030303030303030303030303030303139393431613561653132383937363539383134343239323533333030353762306461393666336465613163353a3330373239373437353835227d68",
        "c1962df30d9be27fcd73fd9a4053b3728334e273f9929aba028483b2e810075667"
      ],
      "is_coinbase": false,
      "sequence": 4294967295
    }
  ],
  "vout": [
    {
      "scriptpubkey": "00148602d87e2c03969d4a1439aea7b3c0770172c66e",
      "scriptpubkey_asm": "OP_0 OP_PUSHBYTES_20 8602d87e2c03969d4a1439aea7b3c0770172c66e",
      "scriptpubkey_type": "v0_p2wpkh",
      "scriptpubkey_address": "bc1qscpdsl3vqwtf6js58xh20v7qwuqh93nww7x7cy",
      "value": 546
    }
  ],
  "size": 455,
  "weight": 701,
  "fee": 2288,
  "status": {
    "confirmed": true,
    "block_height": 834460,
    "block_hash": "00000000000000000000484a79b643b2524bbce82e5d8a442013fa5b8905ed98",
    "block_time": 1710307468
  },
  "hex": "0200000000010173144edec36f8ab6a5d51b210199630673b59d603eb881cd4a8c56c51927d80a0800000000ffffffff0122020000000000001600148602d87e2c03969d4a1439aea7b3c0770172c66e0340d6133b173cf1df784332b7e5757b7669b886b327748ea1c67a3c655d1e9d3673b4a08e5fd647ee1d440cb6b1a74b331269b811c56cc3ca7ae56a410df2124ea1fd0c012014f0f627504c17bf3806a735d5466fedb99248aa0bc576aab5165b5eb3996148ac0063036f726401011e6170706c69636174696f6e2f6a736f6e3b636861727365743d7574662d38004cbf7b2270223a22706f772d3230222c226f70223a226d696e74222c227469636b223a2250455045222c22616d74223a2231303030222c22736f6c7574696f6e223a22504550453a6263317173637064736c337671777466366a733538786832307637717775716839336e777737783763793a303030303030303030303030303030303030303139393431613561653132383937363539383134343239323533333030353762306461393666336465613163353a3330373239373437353835227d6821c1962df30d9be27fcd73fd9a4053b3728334e273f9929aba028483b2e81007566700000000"
}