{
  "txid": "1ffef8d3834dd4af2db7f378940e96d850a50dc857b8456515da08ea59b42f76",
  "version": 2,
  "locktime": 0,
  "vin": [
    {
      "txid": "4e71d4d4009023ca367ba9894a4cde43d15a398f49f01e176e6ec881d7bff01e",
      "vout": 0,
      "prevout": {
        "scriptpubkey": "5120f27a1fe23c93eb1473b4173c3e128b4617a57fb0980875e2c38a2c95e8c5c8aa",
        "scriptpubkey_asm": "OP_PUSHNUM_1 OP_PUSHBYTES_32 f27a1fe23c93eb1473b4173c3e128b4617a57fb0980875e2c38a2c95e8c5c8aa",
        "scriptpubkey_type": "v1_p2tr",
        "scriptpubkey_address": "bc1p7faplc3uj043gua5zu7ruy5tgct62lasnqy8tckr3gkft6x9ez4qql4fx3",
        "value": 21000
      },
      "scriptsig": "",
      "scriptsig_asm": "",
      "witness": [
        "19b8e88cfb44438185cfa5232db06b93882d43466032dd226c4fa979deafe802c6a346613692b4a9e068c101085d93558349d81d8c29cecebf051b55d76a85df",
        "2097ace6673bb639c6e3e10b7f056d5c1436fe6794b1784f35af60e13c37e2223dac0063036f726401011e6170706c69636174696f6e2f6a736f6e3b636861727365743d7574662d38004cd27b2270223a22706f772d3230222c226f70223a226d696e74222c227469636b223a2250455045222c22616d74223a2231303030222c22736f6c7574696f6e223a22504550453a6263317067666d706d6439376b6c3534636379746c637636653433656a6365347934766a6435743239656e75376a68726d7775746630337374646e7975303a303030303030303030303030303030303030303139393431613561653132383937363539383134343239323533333030353762306461393666336465613163353a36333436333036373234227d68",
        "c04cc878e83178ea601961baabfa2fc78f27a3c8cae2f1d8f4d8ea0175eee56210"
      ],
      "is_coinbase": false,
      "sequence": 4294967293
    }
  ],
  "vout": [
    {
      "scriptpubkey": "512042761db4beb7e95c608bfe19acd63996335255926d16a2e67cf4ae3dbb8b4be3",
      "scriptpubkey_asm": "OP_PUSHNUM_1 OP_PUSHBYTES_32 42761db4beb7e95c608bfe19acd63996335255926d16a2e67cf4ae3dbb8b4be3",
      "scriptpubkey_type": "v1_p2tr",
      "scriptpubkey_address": "bc1pgfmpmd97kl54ccytlcv6e43ejce4y4vjd5t29enu7jhrmwutf03stdnyu0",
      "value": 546
    },
    {
      "scriptpubkey": "51207002d0595202b57b067acab1076b11f8a368baa5eb065f36ade18f2fec91d72f",
      "scriptpubkey_asm": "OP_PUSHNUM_1 OP_PUSHBYTES_32 7002d0595202b57b067acab1076b11f8a368baa5eb065f36ade18f2fec91d72f",
      "scriptpubkey_type": "v1_p2tr",
      "scriptpubkey_address": "bc1pwqpdqk2jq26hkpn6e2csw6c3lz3k3w49avr97d4dux8jlmy36uhs8f5qvf",
      "value": 2862
    },
    {
      "scriptpubkey": "5120d23651e816b8b0277788b5d16710aaaa59db5a80b6cccee87ba298ab250aa605",
      "scriptpubkey_asm": "OP_PUSHNUM_1 OP_PUSHBYTES_32 d23651e816b8b0277788b5d16710aaaa59db5a80b6cccee87ba298ab250aa605",
      "scriptpubkey_type": "v1_p2tr",
      "scriptpubkey_address": "bc1p6gm9r6qkhzczwaugkhgkwy924fvakk5qkmxva6rm52v2kfg25czstlmxym",
      "value": 2862
    },
    {
      "scriptpubkey": "5120c0cd3fd6dac8f13f38f1722855a8346dc899bac0f98a3664f6011e292b26d735",
      "scriptpubkey_asm": "OP_PUSHNUM_1 OP_PUSHBYTES_32 c0cd3fd6dac8f13f38f1722855a8346dc899bac0f98a3664f6011e292b26d735",
      "scriptpubkey_type": "v1_p2tr",
      "scriptpubkey_address": "bc1pcrxnl4k6ercn7w83wg59t2p5dhyfnwkqlx9rve8kqy0zj2ex6u6s8v6tg9",
      "value": 2862
    },
    {
      "scriptpubkey": "001498b2972fa18b433b63ff93aeeeea71c426d64dea",
      "scriptpubkey_asm": "OP_0 OP_PUSHBYTES_20 98b2972fa18b433b63ff93aeeeea71c426d64dea",
      "scriptpubkey_type": "v0_p2wpkh",
      "scriptpubkey_address": "bc1qnzefwtap3dpnkclljwhwa6n3csndvn02sjxeel",
      "value": 7644
    }
  ],
  "size": 646,
  "weight": 1408,
  "fee": 4224,
  "status": {
    "confirmed": true,
    "block_height": 834460,
    "block_hash": "00000000000000000000484a79b643b2524bbce82e5d8a442013fa5b8905ed98",
    "block_time": 1710307468
  },
  "hex": "020000000001011ef0bfd781c86e6e171ef0498f395ad143de4c4a89a97b36ca239000d4d4714e0000000000fdffffff05220200000000000022512042761db4beb7e95c608bfe19acd63996335255926d16a2e67cf4ae3dbb8b4be32e0b0000000000002251207002d0595202b57b067acab1076b11f8a368baa5eb065f36ade18f2fec91d72f2e0b000000000000225120d23651e816b8b0277788b5d16710aaaa59db5a80b6cccee87ba298ab250aa6052e0b000000000000225120c0cd3fd6dac8f13f38f1722855a8346dc899bac0f98a3664f6011e292b26d735dc1d00000000000016001498b2972fa18b433b63ff93aeeeea71c426d64dea034019b8e88cfb44438185cfa5232db06b93882d43466032dd226c4fa979deafe802c6a346613692b4a9e068c101085d93558349d81d8c29cecebf051b55d76a85dffd1f012097ace6673bb639c6e3e10b7f056d5c1436fe6794b1784f35af60e13c37e2223dac0063036f726401011e6170706c69636174696f6e2f6a736f6e3b636861727365743d7574662d38004cd27b2270223a22706f772d3230222c226f70223a226d696e74222c227469636b223a2250455045222c22616d74223a2231303030222c22736f6c7574696f6e223a22504550453a6263317067666d706d6439376b6c3534636379746c637636653433656a6365347934766a6435743239656e75376a68726d7775746630337374646e7975303a303030303030303030303030303030303030303139393431613561653132383937363539383134343239323533333030353762306461393666336465613163353a36333436333036373234227d6821c04cc878e83178ea601961baabfa2fc78f27a3c8cae2f1d8f4d8ea0175eee5621000000000"
}