{
  "txid": "201fe9ffc664c12b5b8d4d08d241aef5458a20da52bed83b8baff4565606ba9e",
  "version": 2,
  "locktime": 0,
  "vin": [
    {
      "txid": "15ebf25971aab9a37333fffc2f10bb8c45a66e6388a967bb044fb52f2a5c6f23",
      "vout": 1,
      "prevout": {
        "scriptpubkey": "51203863ee247d81f74f5e191d80e32144df0dbdace9be51ab88a63080ac18e61773",
        "scriptpubkey_asm": "OP_PUSHNUM_1 OP_PUSHBYTES_32 3863ee247d81f74f5e191d80e32144df0dbdace9be51ab88a63080ac18e61773",
        "scriptpubkey_type": "v1_p2tr",
        "scriptpubkey_address": "bc1p8p37ufras8m57hserkqwxg2ymuxmmt8fheg6hz9xxzq2cx8xzaesp4p6c2",
        "value": 16584
      },
      "scriptsig": "",
      "scriptsig_asm": "",
      "witness": [
        "cf1ad4b147edef6e563ed8e6984264c855cdc7dccbe3c31f1eb802e0844a74ae65cbbd8a32936526bf64f7d96a1f65ffaf8597a868acb795f9c7070618c39ec3"
      ],
      "is_coinbase": false,
      "sequence": 4294967295
    }
  ],
  "vout": [
    {
      "scriptpubkey": "5120acd3b49e5741c5d81aec0ceeb94c0208f041a335a8d4506f3c16d2d632fd1c5e",
      "scriptpubkey_asm": "OP_PUSHNUM_1 OP_PUSHBYTES_32 acd3b49e5741c5d81aec0ceeb94c0208f041a335a8d4506f3c16d2d632fd1c5e",
      "scriptpubkey_type": "v1_p2tr",
      "scriptpubkey_address": "bc1p4nfmf8jhg8zasxhvpnhtjnqzprcyrge44r29qmeuzmfdvvhar30qa0slyy",
      "value": 5000
    },
    {
      "scriptpubkey": "51203863ee247d81f74f5e191d80e32144df0dbdace9be51ab88a63080ac18e61773",
      "scriptpubkey_asm": "OP_PUSHNUM_1 OP_PUSHBYTES_32 3863ee247d81f74f5e191d80e32144df0dbdace9be51ab88a63080ac18e61773",
      "scriptpubkey_type": "v1_p2tr",
      "scriptpubkey_address": "bc1p8p37ufras8m57hserkqwxg2ymuxmmt8fheg6hz9xxzq2cx8xzaesp4p6c2",
      "value": 9582
    }
  ],
  "size": 205,
  "weight": 616,
  "fee": 2002,
  "status": {
    "confirmed": true,
    "block_height": 834460,
    "block_hash": "00000000000000000000484a79b643b2524bbce82e5d8a442013fa5b8905ed98",
    "block_time": 1710307468
  },
  "hex": "02000000000101236f5c2a2fb54f04bb67a988636ea6458cbb102ffcff3373a3b9aa7159f2eb150100000000ffffffff028813000000000000225120acd3b49e5741c5d81aec0ceeb94c0208f041a335a8d4506f3c16d2d632fd1c5e6e250000000000002251203863ee247d81f74f5e191d80e32144df0dbdace9be51ab88a63080ac18e617730140cf1ad4b147edef6e563ed8e6984264c855cdc7dccbe3c31f1eb802e0844a74ae65cbbd8a32936526bf64f7d96a1f65ffaf8597a868acb795f9c7070618c39ec300000000"
}