{
  "txid": "20269504b5b1295b68a04bbb152356c2ab5232e9c9f6f89f7a0b979ff7a692c0",
  "version": 1,
  "locktime": 0,
  "vin": [
    {
      "txid": "5263c6d8cf340ddb5d1dadac6dc194e18b77376c3732f5ccefc0099753c94779",
      "vout": 1,
      "prevout": {
        "scriptpubkey": "001427572d9b7c31c58e87b5337acd996fa04522eff5",
        "scriptpubkey_asm": "OP_0 OP_PUSHBYTES_20 27572d9b7c31c58e87b5337acd996fa04522eff5",
        "scriptpubkey_type": "v0_p2wpkh",
        "scriptpubkey_address": "bc1qyatjmxmux8zcapa4xdavmxt05pzj9ml47z0qpm",
        "value": 34627
      },
      "scriptsig": "",
      "scriptsig_asm": "",
      "witness": [
        "3044022059043d87d421d40190bb9068eb2bd80ddba4199555875c8242436f5146c1649a022004e5f7e6aeebc6df096478a4ea29d0d0550a0354e05c3acdc087e62a38fda2e801",
        "021b9900e8262857c0837dd4a1225c2b3ef3bc6ca57edcff7742fad3bbb751d621"
      ],
      "is_coinbase": false,
      "sequence": 4294967295
    }
  ],
  "vout": [
    {
      "scriptpubkey": "76a91495d704ebfd179a456aee83fa1e684e1fa67eb0e588ac",
      "scriptpubkey_asm": "OP_DUP OP_HASH160 OP_PUSHBYTES_20 95d704ebfd179a456aee83fa1e684e1fa67eb0e5 OP_EQUALVERIFY OP_CHECKSIG",
      "scriptpubkey_type": "p2pkh",
      "scriptpubkey_address": "1EfHGP4sPEZ5dtNBkmnBX1r6NHMLFkYkbN",
      "value": 31576
    }
  ],
  "size": 194,
  "weight": 449,
  "fee": 3051,
  "status": {
    "confirmed": true,
    "block_height": 834638,
    "block_hash": "000000000000000000025f742c626208ac87e0b7d15054abb4a19ca2d735a54e",
    "block_time": 1710405325
  },
  "hex": "010000000001017947c9539709c0efccf532376c37778be194c16dacad1d5ddb0d34cfd8c663520100000000ffffffff01587b0000000000001976a91495d704ebfd179a456aee83fa1e684e1fa67eb0e588ac02473044022059043d87d421d40190bb9068eb2bd80ddba4199555875c8242436f5146c1649a022004e5f7e6aeebc6df096478a4ea29d0d0550a0354e05c3acdc087e62a38fda2e80121021b9900e8262857c0837dd4a1225c2b3ef3bc6ca57edcff7742fad3bbb751d62100000000"
}