{
  "txid": "20288fd650524b6ce3c45522c412664ceb382bc78b0d72c65e964d7e0a168606",
  "version": 2,
  "locktime": 834462,
  "vin": [
    {
      "txid": "357d04c536611c2fcfb1b52721c25f73ccdcc5cc589ed2c20c6996d659a98dcc",
      "vout": 0,
      "prevout": {
        "scriptpubkey": "0014d4349ae90b932eea2e6362c01166e019b6621b59",
        "scriptpubkey_asm": "OP_0 OP_PUSHBYTES_20 d4349ae90b932eea2e6362c01166e019b6621b59",
        "scriptpubkey_type": "v0_p2wpkh",
        "scriptpubkey_address": "bc1q6s6f46gtjvhw5tnrvtqpzehqrxmxyx6ejpltzm",
        "value": 178170019
      },
      "scriptsig": "",
      "scriptsig_asm": "",
      "witness": [
        "30440220098c3e7a5fdcceff0d4852b64e90ca1c8479f8bfa849549b22e3dcad47da7710022001b5b1c62eec04666c4ea725655ef6b05a8c05a6cba517a844cf1399346b195201",
        "0372706c538a9f29379594b76127c2db39a175b606df47216a1041205c373cc9da"
      ],
      "is_coinbase": false,
      "sequence": 4294967294
    }
  ],
  "vout": [
    {
      "scriptpubkey": "0014ca729ef08ae19b85187860acba8815e24c3f32b1",
      "scriptpubkey_asm": "OP_0 OP_PUSHBYTES_20 ca729ef08ae19b85187860acba8815e24c3f32b1",
      "scriptpubkey_type": "v0_p2wpkh",
      "scriptpubkey_address": "bc1qefefauy2uxdc2xrcvzkt4zq4ufxr7v43ayz8af",
      "value": 177326688
    },
    {
      "scriptpubkey": "a9146771aae8ab09afaaf843276d4d27610b2950bbfe87",
      "scriptpubkey_asm": "OP_HASH160 OP_PUSHBYTES_20 6771aae8ab09afaaf843276d4d27610b2950bbfe OP_EQUAL",
      "scriptpubkey_type": "p2sh",
      "scriptpubkey_address": "3B7yh4ot6QcaYfrcctDsNP91N9M7rPr7vA",
      "value": 840200
    }
  ],
  "size": 223,
  "weight": 565,
  "fee": 3131,
  "status": {
    "confirmed": true,
    "block_height": 834464,
    "block_hash": "0000000000000000000177a0869a911a2b65c9bdcd5a8bcb02b68f305bee848e",
    "block_time": 1710308296
  },
  "hex": "02000000000101cc8da959d696690cc2d29e58ccc5dccc735fc22127b5b1cf2f1c6136c5047d350000000000feffffff0260ca910a00000000160014ca729ef08ae19b85187860acba8815e24c3f32b108d20c000000000017a9146771aae8ab09afaaf843276d4d27610b2950bbfe87024730440220098c3e7a5fdcceff0d4852b64e90ca1c8479f8bfa849549b22e3dcad47da7710022001b5b1c62eec04666c4ea725655ef6b05a8c05a6cba517a844cf1399346b195201210372706c538a9f29379594b76127c2db39a175b606df47216a1041205c373cc9da9ebb0c00"
}