{
  "txid": "2032684cc9136ea9e179a2fad06809e16f5522b5666fab7adbf0566cee482eee",
  "version": 2,
  "locktime": 0,
  "vin": [
    {
      "txid": "b8f5852a0a540af392f4a8d358be7e20853a3249b5f66f44f3cbe7d874ce0c66",
      "vout": 1,
      "prevout": {
        "scriptpubkey": "001412ba43820005364dcf2c27eeebc00dc670ae946a",
        "scriptpubkey_asm": "OP_0 OP_PUSHBYTES_20 12ba43820005364dcf2c27eeebc00dc670ae946a",
        "scriptpubkey_type": "v0_p2wpkh",
        "scriptpubkey_address": "bc1qz2ay8qsqq5mymnevylhwhsqdcec2a9r2lv2nzs",
        "value": 145422
      },
      "scriptsig": "",
      "scriptsig_asm": "",
      "witness": [
        "3045022100ea77fbf0abe484e259320ce24173699922746098abb0fa79ca07f8cd3c7c16f8022049eb578f58e6a9414c379dde5f3c84835a76e3e770e876c692e8e81b9080a83001",
        "03c67919f64c77fe3c458a9b8b6c53406eb32159089abd17a961fe1f5d79995d97"
      ],
      "is_coinbase": false,
      "sequence": 4294967295
    }
  ],
  "vout": [
    {
      "scriptpubkey": "76a9147eda01d1603864f9dc8ea2b8e5988c5c3264978688ac",
      "scriptpubkey_asm": "OP_DUP OP_HASH160 OP_PUSHBYTES_20 7eda01d1603864f9dc8ea2b8e5988c5c32649786 OP_EQUALVERIFY OP_CHECKSIG",
      "scriptpubkey_type": "p2pkh",
      "scriptpubkey_address": "1CZjJa32NrnzT6Tedw2sUuPtwxp7fJYwft",
      "value": 15100
    },
    {
      "scriptpubkey": "001412ba43820005364dcf2c27eeebc00dc670ae946a",
      "scriptpubkey_asm": "OP_0 OP_PUSHBYTES_20 12ba43820005364dcf2c27eeebc00dc670ae946a",
      "scriptpubkey_type": "v0_p2wpkh",
      "scriptpubkey_address": "bc1qz2ay8qsqq5mymnevylhwhsqdcec2a9r2lv2nzs",
      "value": 127751
    }
  ],
  "size": 226,
  "weight": 574,
  "fee": 2571,
  "status": {
    "confirmed": true,
    "block_height": 834638,
    "block_hash": "000000000000000000025f742c626208ac87e0b7d15054abb4a19ca2d735a54e",
    "block_time": 1710405325
  },
  "hex": "02000000000101660cce74d8e7cbf3446ff6b549323a85207ebe58d3a8f492f30a540a2a85f5b80100000000ffffffff02fc3a0000000000001976a9147eda01d1603864f9dc8ea2b8e5988c5c3264978688ac07f301000000000016001412ba43820005364dcf2c27eeebc00dc670ae946a02483045022100ea77fbf0abe484e259320ce24173699922746098abb0fa79ca07f8cd3c7c16f8022049eb578f58e6a9414c379dde5f3c84835a76e3e770e876c692e8e81b9080a830012103c67919f64c77fe3c458a9b8b6c53406eb32159089abd17a961fe1f5d79995d9700000000"
}