{
  "txid": "2034c6bb3c243296a40d47dabeacb28dcdee77e99b2f4a18edb273aa87bfd658",
  "version": 2,
  "locktime": 834463,
  "vin": [
    {
      "txid": "c6ac2906b977ff57ca817dfe39bfdfd1271a2540e2fef5d00e678f5ba7e426b3",
      "vout": 0,
      "prevout": {
        "scriptpubkey": "0014c756cfb9990ddc66f8c1a78630d239eaf403e098",
        "scriptpubkey_asm": "OP_0 OP_PUSHBYTES_20 c756cfb9990ddc66f8c1a78630d239eaf403e098",
        "scriptpubkey_type": "v0_p2wpkh",
        "scriptpubkey_address": "bc1qcatvlwvephwxd7xp57rrp53eat6q8cycjf3f42",
        "value": 422226
      },
      "scriptsig": "",
      "scriptsig_asm": "",
      "witness": [
        "304402205258cb4a7b0e75c2a4d38faeb545083aaa11edef70a8b2f82255282bf11569fe022028653d6b0c19c0a64c80ca0d144aa0ff1212a6e3b4cbe6039ff056fafca0c9a201",
        "030ac13222d223ffc8e1948e9a40c28b6a2d125c15f68b6363e27c3cfd49e2e0a6"
      ],
      "is_coinbase": false,
      "sequence": 4294967293
    }
  ],
  "vout": [
    {
      "scriptpubkey": "76a914b28b156b4cd3987c526aa13dd265f3cf8dd2670c88ac",
      "scriptpubkey_asm": "OP_DUP OP_HASH160 OP_PUSHBYTES_20 b28b156b4cd3987c526aa13dd265f3cf8dd2670c OP_EQUALVERIFY OP_CHECKSIG",
      "scriptpubkey_type": "p2pkh",
      "scriptpubkey_address": "1HH3trDRLrhaCCA1xadGfPqpBTfndzGXc8",
      "value": 23454
    },
    {
      "scriptpubkey": "76a914b13e7c4fdb582ee4e0cf38f5c3f9b119d4a8a79088ac",
      "scriptpubkey_asm": "OP_DUP OP_HASH160 OP_PUSHBYTES_20 b13e7c4fdb582ee4e0cf38f5c3f9b119d4a8a790 OP_EQUALVERIFY OP_CHECKSIG",
      "scriptpubkey_type": "p2pkh",
      "scriptpubkey_address": "1HABTXh1ZRjXBBM5njXECMPzMZB1QyNK8o",
      "value": 396858
    }
  ],
  "size": 228,
  "weight": 585,
  "fee": 1914,
  "status": {
    "confirmed": true,
    "block_height": 834464,
    "block_hash": "0000000000000000000177a0869a911a2b65c9bdcd5a8bcb02b68f305bee848e",
    "block_time": 1710308296
  },
  "hex": "02000000000101b326e4a75b8f670ed0f5fee240251a27d1dfbf39fe7d81ca57ff77b90629acc60000000000fdffffff029e5b0000000000001976a914b28b156b4cd3987c526aa13dd265f3cf8dd2670c88ac3a0e0600000000001976a914b13e7c4fdb582ee4e0cf38f5c3f9b119d4a8a79088ac0247304402205258cb4a7b0e75c2a4d38faeb545083aaa11edef70a8b2f82255282bf11569fe022028653d6b0c19c0a64c80ca0d144aa0ff1212a6e3b4cbe6039ff056fafca0c9a20121030ac13222d223ffc8e1948e9a40c28b6a2d125c15f68b6363e27c3cfd49e2e0a69fbb0c00"
}