{
  "txid": "2050ed8b188e930b783c8bcfec703e3cec813913372390cbab1990eca16499b5",
  "version": 1,
  "locktime": 0,
  "vin": [
    {
      "txid": "1c3a71bf45fc1f0aa3116bf041984cceaf347620c01ff06b8ea97fd37a229aac",
      "vout": 0,
      "prevout": {
        "scriptpubkey": "0014ee0bb493ed69a1eebfcbbe95d81bcefc4b3b2af9",
        "scriptpubkey_asm": "OP_0 OP_PUSHBYTES_20 ee0bb493ed69a1eebfcbbe95d81bcefc4b3b2af9",
        "scriptpubkey_type": "v0_p2wpkh",
        "scriptpubkey_address": "bc1qac9mfylddxs7a07th62asx7wl39nk2hegck247",
        "value": 14944
      },
      "scriptsig": "",
      "scriptsig_asm": "",
      "witness": [
        "30440220537b3f373e9e0c903ce88b00a3af12ed58bf04918d9bc575c2af37a5e5d9a136022065db4806c8636f7539647a816617a2c34863b20a45617be793cb6c679343a47301",
        "03fc818b5e5b63b083079a376328301dfa898487f5e7e9269823c10ccb1c672243"
      ],
      "is_coinbase": false,
      "sequence": 4294967295
    },
    {
      "txid": "5693c267a18d787558d97693bc07b71fb8456cc25eb2a513572b5b41da6b385e",
      "vout": 0,
      "prevout": {
        "scriptpubkey": "001495b83be9ad9c07433103c4fb08c4f4c8b35a18de",
        "scriptpubkey_asm": "OP_0 OP_PUSHBYTES_20 95b83be9ad9c07433103c4fb08c4f4c8b35a18de",
        "scriptpubkey_type": "v0_p2wpkh",
        "scriptpubkey_address": "bc1qjkurh6ddnsr5xvgrcnas3385eze45xx7uy42ya",
        "value": 5565
      },
      "scriptsig": "",
      "scriptsig_asm": "",
      "witness": [
        "3045022100c1f5373c073b8704770ce992f947a4f0ca010bc013651a8f72da5c995b52efa10220130fb60c9cea00bd4686dd5b8d30b59f30642edb47b5d46d7fc5396d6f6fbe8a01",
        "0223905c04f67f542151f9f34b501ac363c8834082fb2d97c07e16344d8ef44214"
      ],
      "is_coinbase": false,
      "sequence": 4294967295
    },
    {
      "txid": "96b1237b40c56e820d44fbecc59ae94b820300bce549b9b806e5f5b198aef8d2",
      "vout": 0,
      "prevout": {
        "scriptpubkey": "0014f3305bcfc736920096278b8de4051e42ee82e12b",
        "scriptpubkey_asm": "OP_0 OP_PUSHBYTES_20 f3305bcfc736920096278b8de4051e42ee82e12b",
        "scriptpubkey_type": "v0_p2wpkh",
        "scriptpubkey_address": "bc1q7vc9hn78x6fqp9383wx7gpg7gthg9cft39utgy",
        "value": 10952
      },
      "scriptsig": "",
      "scriptsig_asm": "",
      "witness": [
        "3044022003a37210f7c761cd9bb95fa638b11f320a0d1265b7343e25f48d6573efb5074b02202d52f44735be9e5c7d7b2ade07f62e4cde79d11e9fd7e2652cf8ab73bfb9f2f501",
        "038b41affb9bfd93bd2525a4827c4a34dd2958f908619ab42e30d6d2314f493b39"
      ],
      "is_coinbase": false,
      "sequence": 4294967295
    },
    {
      "txid": "aaf0e53334e22067125e18a14add84c1a86ee5c9cb24ca84867a16d497b5723d",
      "vout": 0,
      "prevout": {
        "scriptpubkey": "0014b8764f24bc9850c7ed951a4ec7ed60cc0c56354d",
        "scriptpubkey_asm": "OP_0 OP_PUSHBYTES_20 b8764f24bc9850c7ed951a4ec7ed60cc0c56354d",
        "scriptpubkey_type": "v0_p2wpkh",
        "scriptpubkey_address": "bc1qhpmy7f9unpgv0mv4rf8v0mtqesx9vd2d9x6t4e",
        "value": 13265
      },
      "scriptsig": "",
      "scriptsig_asm": "",
      "witness": [
        "3045022100b2f27543b8bf4ab460ccb5ab1b594ae15a130fabffd96f5084976555889fe4ed02204f8922d684d98fd2b5a94df65f64cf488019ca1cd6321f429bd8fa7a85ef0d2601",
        "0318fae481e41c6f72db0f8f9660c9709a52f9d059aee4b0f1bed93f5280a57d62"
      ],
      "is_coinbase": false,
      "sequence": 4294967295
    }
  ],
  "vout": [
    {
      "scriptpubkey": "00146f443d55a80e01fc03b3ac9d1147a95d4b747944",
      "scriptpubkey_asm": "OP_0 OP_PUSHBYTES_20 6f443d55a80e01fc03b3ac9d1147a95d4b747944",
      "scriptpubkey_type": "v0_p2wpkh",
      "scriptpubkey_address": "bc1qdazr64dgpcqlcqan4jw3z3aft49hg72yzf6jrz",
      "value": 1063
    },
    {
      "scriptpubkey": "a914a26ee07b040a592b6ac300b083b8fe2278b3fc2a87",
      "scriptpubkey_asm": "OP_HASH160 OP_PUSHBYTES_20 a26ee07b040a592b6ac300b083b8fe2278b3fc2a OP_EQUAL",
      "scriptpubkey_type": "p2sh",
      "scriptpubkey_address": "3GVtDUqXQdvuMfnWzBFHWuh1DWEKAioMt9",
      "value": 39879
    }
  ],
  "size": 669,
  "weight": 1380,
  "fee": 3784,
  "status": {
    "confirmed": true,
    "block_height": 834464,
    "block_hash": "0000000000000000000177a0869a911a2b65c9bdcd5a8bcb02b68f305bee848e",
    "block_time": 1710308296
  },
  "hex": "01000000000104ac9a227ad37fa98e6bf01fc0207634afce4c9841f06b11a30a1ffc45bf713a1c0000000000ffffffff5e386bda415b2b5713a5b25ec26c45b81fb707bc9376d95875788da167c293560000000000ffffffffd2f8ae98b1f5e506b8b949e5bc0003824be99ac5ecfb440d826ec5407b23b1960000000000ffffffff3d72b597d4167a8684ca24cbc9e56ea8c184dd4aa1185e126720e23433e5f0aa0000000000ffffffff0227040000000000001600146f443d55a80e01fc03b3ac9d1147a95d4b747944c79b00000000000017a914a26ee07b040a592b6ac300b083b8fe2278b3fc2a87024730440220537b3f373e9e0c903ce88b00a3af12ed58bf04918d9bc575c2af37a5e5d9a136022065db4806c8636f7539647a816617a2c34863b20a45617be793cb6c679343a473012103fc818b5e5b63b083079a376328301dfa898487f5e7e9269823c10ccb1c67224302483045022100c1f5373c073b8704770ce992f947a4f0ca010bc013651a8f72da5c995b52efa10220130fb60c9cea00bd4686dd5b8d30b59f30642edb47b5d46d7fc5396d6f6fbe8a01210223905c04f67f542151f9f34b501ac363c8834082fb2d97c07e16344d8ef4421402473044022003a37210f7c761cd9bb95fa638b11f320a0d1265b7343e25f48d6573efb5074b02202d52f44735be9e5c7d7b2ade07f62e4cde79d11e9fd7e2652cf8ab73bfb9f2f50121038b41affb9bfd93bd2525a4827c4a34dd2958f908619ab42e30d6d2314f493b3902483045022100b2f27543b8bf4ab460ccb5ab1b594ae15a130fabffd96f5084976555889fe4ed02204f8922d684d98fd2b5a94df65f64cf488019ca1cd6321f429bd8fa7a85ef0d2601210318fae481e41c6f72db0f8f9660c9709a52f9d059aee4b0f1bed93f5280a57d6200000000"
}