{
  "txid": "20559e49311ac1bc57e553216cb7ee53865d4b2f4416d26e29cad3914d54100f",
  "version": 1,
  "locktime": 0,
  "vin": [
    {
      "txid": "2875a5b341c572d3d126593eecae0d96a5fd197abcd6a275d9d6d2c12e7c5c47",
      "vout": 0,
      "prevout": {
        "scriptpubkey": "0014e0d462f7f79e6575006bb5342e7f83094430fc7f",
        "scriptpubkey_asm": "OP_0 OP_PUSHBYTES_20 e0d462f7f79e6575006bb5342e7f83094430fc7f",
        "scriptpubkey_type": "v0_p2wpkh",
        "scriptpubkey_address": "bc1qur2x9alhnejh2qrtk56zulurp9zrplrlt7vzfe",
        "value": 63210
      },
      "scriptsig": "",
      "scriptsig_asm": "",
      "witness": [
        "3044022046197f39f3e1e3a3708af8228a8a1df44a7d8b0d64a53b85963aa5d31e254222022079fa2d574ceb64091e7d4bcae5583c7eda164cb5c83abd6835550a6f206fdfb801",
        "0244e83f84be96546c00e3e2dd870e7cbd04e9e26008ead24195318b171b939346"
      ],
      "is_coinbase": false,
      "sequence": 4294967295
    }
  ],
  "vout": [
    {
      "scriptpubkey": "0014b1cb95477a3f8b7568c6b076c276046aef3ea72d",
      "scriptpubkey_asm": "OP_0 OP_PUSHBYTES_20 b1cb95477a3f8b7568c6b076c276046aef3ea72d",
      "scriptpubkey_type": "v0_p2wpkh",
      "scriptpubkey_address": "bc1qk89e23m6879h26xxkpmvyasydthnafedef8pgg",
      "value": 25437
    },
    {
      "scriptpubkey": "001480bd0064b70e064c81cae31a9a23aac30aa9a3bd",
      "scriptpubkey_asm": "OP_0 OP_PUSHBYTES_20 80bd0064b70e064c81cae31a9a23aac30aa9a3bd",
      "scriptpubkey_type": "v0_p2wpkh",
      "scriptpubkey_address": "bc1qsz7sqe9hpcryeqw2uvdf5ga2cv92ngaa4tyw9y",
      "value": 34081
    }
  ],
  "size": 222,
  "weight": 561,
  "fee": 3692,
  "status": {
    "confirmed": true,
    "block_height": 834638,
    "block_hash": "000000000000000000025f742c626208ac87e0b7d15054abb4a19ca2d735a54e",
    "block_time": 1710405325
  },
  "hex": "01000000000101475c7c2ec1d2d6d975a2d6bc7a19fda5960daeec3e5926d1d372c541b3a575280000000000ffffffff025d63000000000000160014b1cb95477a3f8b7568c6b076c276046aef3ea72d218500000000000016001480bd0064b70e064c81cae31a9a23aac30aa9a3bd02473044022046197f39f3e1e3a3708af8228a8a1df44a7d8b0d64a53b85963aa5d31e254222022079fa2d574ceb64091e7d4bcae5583c7eda164cb5c83abd6835550a6f206fdfb801210244e83f84be96546c00e3e2dd870e7cbd04e9e26008ead24195318b171b93934600000000"
}