{
  "txid": "2064b4c6f0b236c18a55737212689f86a1c0884e3a6bf03e58cb951ce351d7ef",
  "version": 2,
  "locktime": 0,
  "vin": [
    {
      "txid": "abdcbb8bcefa0f088373ceda41a70fe1aeaa3823b969e1169e2a29269068d8dc",
      "vout": 1,
      "prevout": {
        "scriptpubkey": "512025250ac04f0eb65a525a5eab37636d666afce35542a3fe2c6bc86a1a9b829e12",
        "scriptpubkey_asm": "OP_PUSHNUM_1 OP_PUSHBYTES_32 25250ac04f0eb65a525a5eab37636d666afce35542a3fe2c6bc86a1a9b829e12",
        "scriptpubkey_type": "v1_p2tr",
        "scriptpubkey_address": "bc1py5js4sz0p6m955j6t64nwcmdve40ec64g23lutrtep4p4xuzncfqyc6lv8",
        "value": 2522
      },
      "scriptsig": "",
      "scriptsig_asm": "",
      "witness": [
        "4348a776e84d39ca96152f95fb95bac69643197fc90654902bd62d53e1d8e6ae48f8b5b0ccfb1b8a220397fc6b10cdb21c55da730daa556558bc21586d269bd0",
        "209a48b242cabf3a6a594451181ae8e3c54476f47ea1f4293acf8a2438dca83950ac0063036f7264010118746578742f706c61696e3b636861727365743d7574662d3800387b2270223a226272632d3230222c226f70223a227472616e73666572222c227469636b223a226f726e6a222c22616d74223a22313030227d68",
        "c025dced391475af84759664675c16f5ed581b243a944241d7ee258c8cfb80c9db"
      ],
      "is_coinbase": false,
      "sequence": 4294967295
    }
  ],
  "vout": [
    {
      "scriptpubkey": "512060e7b9d91ee3091b65165528563dba11a47299520ea2fc67070ec6ac303fc05d",
      "scriptpubkey_asm": "OP_PUSHNUM_1 OP_PUSHBYTES_32 60e7b9d91ee3091b65165528563dba11a47299520ea2fc67070ec6ac303fc05d",
      "scriptpubkey_type": "v1_p2tr",
      "scriptpubkey_address": "bc1pvrnmnkg7uvy3kegk2559v0d6zxj89x2jp630cec8pmr2cvplcpwsn3pn79",
      "value": 546
    }
  ],
  "size": 323,
  "weight": 605,
  "fee": 1976,
  "status": {
    "confirmed": true,
    "block_height": 834460,
    "block_hash": "00000000000000000000484a79b643b2524bbce82e5d8a442013fa5b8905ed98",
    "block_time": 1710307468
  },
  "hex": "02000000000101dcd8689026292a9e16e169b92338aaaee10fa741dace7383080fface8bbbdcab0100000000ffffffff01220200000000000022512060e7b9d91ee3091b65165528563dba11a47299520ea2fc67070ec6ac303fc05d03404348a776e84d39ca96152f95fb95bac69643197fc90654902bd62d53e1d8e6ae48f8b5b0ccfb1b8a220397fc6b10cdb21c55da730daa556558bc21586d269bd07e209a48b242cabf3a6a594451181ae8e3c54476f47ea1f4293acf8a2438dca83950ac0063036f7264010118746578742f706c61696e3b636861727365743d7574662d3800387b2270223a226272632d3230222c226f70223a227472616e73666572222c227469636b223a226f726e6a222c22616d74223a22313030227d6821c025dced391475af84759664675c16f5ed581b243a944241d7ee258c8cfb80c9db00000000"
}