{
  "txid": "20794f00c313260de3350ac0529b69deea7f69c4849834dc4c28339e2b9d89fb",
  "version": 2,
  "locktime": 0,
  "vin": [
    {
      "txid": "869801b9dd574f7247d06abb735880c8655b7563f146386b2191fd9843334ebc",
      "vout": 1,
      "prevout": {
        "scriptpubkey": "5120c8ef2b6bf8b5c941a59a042c68788bdfe655af342c8b999c1d0ddfecda04651f",
        "scriptpubkey_asm": "OP_PUSHNUM_1 OP_PUSHBYTES_32 c8ef2b6bf8b5c941a59a042c68788bdfe655af342c8b999c1d0ddfecda04651f",
        "scriptpubkey_type": "v1_p2tr",
        "scriptpubkey_address": "bc1perhjk6lckhy5rfv6qskxs7ytmln9tte59j9en8qaph07eksyv50sp6v644",
        "value": 546
      },
      "scriptsig": "",
      "scriptsig_asm": "",
      "witness": [
        "b33af49eca2a45ed201b4b1b5ef53ed7070ede3ed8201fff8d20bb66e63fd3dafc5af1064f0d665c7cabd9e7723476833f909455882a5a7dfc0f9e222c91c77901"
      ],
      "is_coinbase": false,
      "sequence": 4294967295
    },
    {
      "txid": "349f47dceaf181bc4a91a4d07659b9983134817ef93b336c5847a7af43f6d05f",
      "vout": 1,
      "prevout": {
        "scriptpubkey": "a9148d8024cf0c022209243f09322f7cee5827b82fd787",
        "scriptpubkey_asm": "OP_HASH160 OP_PUSHBYTES_20 8d8024cf0c022209243f09322f7cee5827b82fd7 OP_EQUAL",
        "scriptpubkey_type": "p2sh",
        "scriptpubkey_address": "3EbCiBHGN8fKUHo47meJKn1zT1DgqD1KdV",
        "value": 83998
      },
      "scriptsig": "16001422a6018eaa3fd8c3fa39ac92dc623dac1216e254",
      "scriptsig_asm": "OP_PUSHBYTES_22 001422a6018eaa3fd8c3fa39ac92dc623dac1216e254",
      "witness": [
        "30440220219fafdb63728501aa3434a35cce29091b4451b7a7ac60d150e66fe07660dc060220672576f720eb0096cff591bb1465b70f0b5faf54dc4140b4d8d5404e986386ad01",
        "02934db7d20f1f61b84178e22e31fe44a3c35416d36637616b6d4523cafdae8050"
      ],
      "is_coinbase": false,
      "sequence": 4294967295,
      "inner_redeemscript_asm": "OP_0 OP_PUSHBYTES_20 22a6018eaa3fd8c3fa39ac92dc623dac1216e254"
    }
  ],
  "vout": [
    {
      "scriptpubkey": "51202fcc33ca5bf19de2c9fa707d59ab8a49e7de4068ac4b3aa1e91d31dbda0bf42f",
      "scriptpubkey_asm": "OP_PUSHNUM_1 OP_PUSHBYTES_32 2fcc33ca5bf19de2c9fa707d59ab8a49e7de4068ac4b3aa1e91d31dbda0bf42f",
      "scriptpubkey_type": "v1_p2tr",
      "scriptpubkey_address": "bc1p9lxr8jjm7xw79j06wp74n2u2f8nausrg439n4g0fr5cahkst7shsgyhatt",
      "value": 546
    },
    {
      "scriptpubkey": "a9147c50a49f527653800d698ded4c752381a40d199087",
      "scriptpubkey_asm": "OP_HASH160 OP_PUSHBYTES_20 7c50a49f527653800d698ded4c752381a40d1990 OP_EQUAL",
      "scriptpubkey_type": "p2sh",
      "scriptpubkey_address": "3D2LKWSpRji4hx4Sk4K83CCPStzDuLDhgg",
      "value": 547
    },
    {
      "scriptpubkey": "a914ea6b832a05c6ca578baa3836f3f25553d41068a587",
      "scriptpubkey_asm": "OP_HASH160 OP_PUSHBYTES_20 ea6b832a05c6ca578baa3836f3f25553d41068a5 OP_EQUAL",
      "scriptpubkey_type": "p2sh",
      "scriptpubkey_address": "3P4WqXDbSLRhzo2H6MT6YFbvBKBDPLbVtQ",
      "value": 579
    },
    {
      "scriptpubkey": "a9148d8024cf0c022209243f09322f7cee5827b82fd787",
      "scriptpubkey_asm": "OP_HASH160 OP_PUSHBYTES_20 8d8024cf0c022209243f09322f7cee5827b82fd7 OP_EQUAL",
      "scriptpubkey_type": "p2sh",
      "scriptpubkey_address": "3EbCiBHGN8fKUHo47meJKn1zT1DgqD1KdV",
      "value": 77789
    }
  ],
  "size": 430,
  "weight": 1192,
  "fee": 5083,
  "status": {
    "confirmed": true,
    "block_height": 834552,
    "block_hash": "00000000000000000001dd0468a70c94f619251d286585cff57aeb4bd9ede330",
    "block_time": 1710355598
  },
  "hex": "02000000000102bc4e334398fd91216b3846f163755b65c8805873bb6ad047724f57ddb90198860100000000ffffffff5fd0f643afa747586c333bf97e81343198b95976d0a4914abc81f1eadc479f34010000001716001422a6018eaa3fd8c3fa39ac92dc623dac1216e254ffffffff0422020000000000002251202fcc33ca5bf19de2c9fa707d59ab8a49e7de4068ac4b3aa1e91d31dbda0bf42f230200000000000017a9147c50a49f527653800d698ded4c752381a40d199087430200000000000017a914ea6b832a05c6ca578baa3836f3f25553d41068a587dd2f01000000000017a9148d8024cf0c022209243f09322f7cee5827b82fd7870141b33af49eca2a45ed201b4b1b5ef53ed7070ede3ed8201fff8d20bb66e63fd3dafc5af1064f0d665c7cabd9e7723476833f909455882a5a7dfc0f9e222c91c77901024730440220219fafdb63728501aa3434a35cce29091b4451b7a7ac60d150e66fe07660dc060220672576f720eb0096cff591bb1465b70f0b5faf54dc4140b4d8d5404e986386ad012102934db7d20f1f61b84178e22e31fe44a3c35416d36637616b6d4523cafdae805000000000"
}