{
  "txid": "20ad12bc366328da65d5aec6608704acccc58eb40fa2b67fd313dab2c6925ab1",
  "version": 2,
  "locktime": 0,
  "vin": [
    {
      "txid": "c9852e938f6d80e2ef2cee202e84bb0e8089a946fb0dc73aa270602bf8bce11a",
      "vout": 1,
      "prevout": {
        "scriptpubkey": "0014b7677c1b4212101af5e9c0966c2573fabf66308c",
        "scriptpubkey_asm": "OP_0 OP_PUSHBYTES_20 b7677c1b4212101af5e9c0966c2573fabf66308c",
        "scriptpubkey_type": "v0_p2wpkh",
        "scriptpubkey_address": "bc1qkanhcx6zzggp4a0fcztxcftnl2lkvvyvuwrnav",
        "value": 2362615
      },
      "scriptsig": "",
      "scriptsig_asm": "",
      "witness": [
        "304402202bb8bcaa8b8196770b8975545d239facacccbe4f62198367e42ec4752a4dfecb0220077299b8ea06a5ec4cb2932ff13afa411da37db589db0b3e462820cdbc6e288001",
        "0250d3f631cf1d9758a940f7d2d2702ba27d7c5f78cbc246a2419a93e71da5fc87"
      ],
      "is_coinbase": false,
      "sequence": 4294967295
    }
  ],
  "vout": [
    {
      "scriptpubkey": "0020e2be13207d2b6554251071585f5f4167ef7a8d921fcc6186b1834fe29cc12a0e",
      "scriptpubkey_asm": "OP_0 OP_PUSHBYTES_32 e2be13207d2b6554251071585f5f4167ef7a8d921fcc6186b1834fe29cc12a0e",
      "scriptpubkey_type": "v0_p2wsh",
      "scriptpubkey_address": "bc1qu2lpxgra9dj4gfgsw9v97h6pvlhh4rvjrlxxrp43sd8798xp9g8qf6uyns",
      "value": 27283
    },
    {
      "scriptpubkey": "0014e8c618f14d56d0d18eaa68f700e54312be559006",
      "scriptpubkey_asm": "OP_0 OP_PUSHBYTES_20 e8c618f14d56d0d18eaa68f700e54312be559006",
      "scriptpubkey_type": "v0_p2wpkh",
      "scriptpubkey_address": "bc1qarrp3u2d2mgdrr42drmspe2rz2l9tyqxlr4cd3",
      "value": 2333087
    }
  ],
  "size": 234,
  "weight": 609,
  "fee": 2245,
  "status": {
    "confirmed": true,
    "block_height": 834460,
    "block_hash": "00000000000000000000484a79b643b2524bbce82e5d8a442013fa5b8905ed98",
    "block_time": 1710307468
  },
  "hex": "020000000001011ae1bcf82b6070a23ac70dfb46a989800ebb842e20ee2cefe2806d8f932e85c90100000000ffffffff02936a000000000000220020e2be13207d2b6554251071585f5f4167ef7a8d921fcc6186b1834fe29cc12a0e9f99230000000000160014e8c618f14d56d0d18eaa68f700e54312be5590060247304402202bb8bcaa8b8196770b8975545d239facacccbe4f62198367e42ec4752a4dfecb0220077299b8ea06a5ec4cb2932ff13afa411da37db589db0b3e462820cdbc6e288001210250d3f631cf1d9758a940f7d2d2702ba27d7c5f78cbc246a2419a93e71da5fc8700000000"
}