{
  "txid": "20bc6719eb37f74c9ecaa0e522cb8ded4f21ed28d23396ae0326af6bd33409a9",
  "version": 2,
  "locktime": 0,
  "vin": [
    {
      "txid": "acc3ba00869acb582a3f2904ce3a11dd3779350ce234063fc7d0959246213364",
      "vout": 163,
      "prevout": {
        "scriptpubkey": "5120fb8d30de867bdebe3b2791cf962c36297e6903f4cd0c7e8d0989e054be398ea3",
        "scriptpubkey_asm": "OP_PUSHNUM_1 OP_PUSHBYTES_32 fb8d30de867bdebe3b2791cf962c36297e6903f4cd0c7e8d0989e054be398ea3",
        "scriptpubkey_type": "v1_p2tr",
        "scriptpubkey_address": "bc1plwxnph5x000tuwe8j88evtpk99lxjql5e5x8argf38s9f03e363s9mhacv",
        "value": 1806
      },
      "scriptsig": "",
      "scriptsig_asm": "",
      "witness": [
        "123c68838b7b4e12f4b0f289c6c5620d79e4d1e02fc7cacd1a6984fe08e18847038715e677ac5f82a7efa66ff03912078e95e25e6deb1ab1dd07ed236f091851",
        "202abbd49b91cee8bf547ac18b5d9d7e8f5d8a416e3b28be484dce7190e31cfdabac0063036f726401010a746578742f706c61696e00357b2270223a226272632d3230222c226f70223a226d696e74222c227469636b223a22646f6765222c22616d74223a2234323030227d68",
        "c02abbd49b91cee8bf547ac18b5d9d7e8f5d8a416e3b28be484dce7190e31cfdab"
      ],
      "is_coinbase": false,
      "sequence": 4261412863
    }
  ],
  "vout": [
    {
      "scriptpubkey": "00147a665de7a370f4c9b372ab1fae587500a5bcbdb4",
      "scriptpubkey_asm": "OP_0 OP_PUSHBYTES_20 7a665de7a370f4c9b372ab1fae587500a5bcbdb4",
      "scriptpubkey_type": "v0_p2wpkh",
      "scriptpubkey_address": "bc1q0fn9mearwr6vnvmj4v06ukr4qzjme0d565dzcx",
      "value": 294
    }
  ],
  "size": 294,
  "weight": 540,
  "fee": 1512,
  "status": {
    "confirmed": true,
    "block_height": 834460,
    "block_hash": "00000000000000000000484a79b643b2524bbce82e5d8a442013fa5b8905ed98",
    "block_time": 1710307468
  },
  "hex": "02000000000101643321469295d0c73f0634e20c357937dd113ace04293f2a58cb9a8600bac3aca300000000fffffffd0126010000000000001600147a665de7a370f4c9b372ab1fae587500a5bcbdb40340123c68838b7b4e12f4b0f289c6c5620d79e4d1e02fc7cacd1a6984fe08e18847038715e677ac5f82a7efa66ff03912078e95e25e6deb1ab1dd07ed236f0918516d202abbd49b91cee8bf547ac18b5d9d7e8f5d8a416e3b28be484dce7190e31cfdabac0063036f726401010a746578742f706c61696e00357b2270223a226272632d3230222c226f70223a226d696e74222c227469636b223a22646f6765222c22616d74223a2234323030227d6821c02abbd49b91cee8bf547ac18b5d9d7e8f5d8a416e3b28be484dce7190e31cfdab00000000"
}