{
  "txid": "20ea71321c433eb6221f9f7baac2d61cb06446315d517e3eee827b6f73469306",
  "version": 1,
  "locktime": 0,
  "vin": [
    {
      "txid": "1ce9b39213f71631db15e597c4f601111fa370af97760f5f8b03c7f51a4e9cc6",
      "vout": 91,
      "prevout": {
        "scriptpubkey": "0014bc47da7c44df91c8ba1db32051735b42c14edbfe",
        "scriptpubkey_asm": "OP_0 OP_PUSHBYTES_20 bc47da7c44df91c8ba1db32051735b42c14edbfe",
        "scriptpubkey_type": "v0_p2wpkh",
        "scriptpubkey_address": "bc1qh3ra5lzym7gu3wsakvs9zu6mgtq5akl7u9rp0v",
        "value": 681745
      },
      "scriptsig": "",
      "scriptsig_asm": "",
      "witness": [
        "3045022100f5cc3cde197be62f3d98f6a6e5f5ec884b95f22545886151c1ed5ceb2c0606ca02200db9a09cc41387419cbc5bd9af1231be236091de0ee1e73f021b68893575d81801",
        "030bc59d8509bcfc2086e7a1170d6d4d08769358e7c5645d7d8008551131c473d8"
      ],
      "is_coinbase": false,
      "sequence": 4294967293
    }
  ],
  "vout": [
    {
      "scriptpubkey": "0014a82dd89008579ce79759b4f042b1c9a3f6d2b95d",
      "scriptpubkey_asm": "OP_0 OP_PUSHBYTES_20 a82dd89008579ce79759b4f042b1c9a3f6d2b95d",
      "scriptpubkey_type": "v0_p2wpkh",
      "scriptpubkey_address": "bc1q4qka3yqg27ww096ekncy9vwf50md9w2azwx654",
      "value": 678995
    }
  ],
  "size": 192,
  "weight": 438,
  "fee": 2750,
  "status": {
    "confirmed": true,
    "block_height": 834552,
    "block_hash": "00000000000000000001dd0468a70c94f619251d286585cff57aeb4bd9ede330",
    "block_time": 1710355598
  },
  "hex": "01000000000101c69c4e1af5c7038b5f0f7697af70a31f1101f6c497e515db3116f71392b3e91c5b00000000fdffffff01535c0a0000000000160014a82dd89008579ce79759b4f042b1c9a3f6d2b95d02483045022100f5cc3cde197be62f3d98f6a6e5f5ec884b95f22545886151c1ed5ceb2c0606ca02200db9a09cc41387419cbc5bd9af1231be236091de0ee1e73f021b68893575d8180121030bc59d8509bcfc2086e7a1170d6d4d08769358e7c5645d7d8008551131c473d800000000"
}