{
  "txid": "20eb18e6241b16ddcbfde83d68f42ed4c7a489c56cd5f7dfcda6a55cf08732e8",
  "version": 2,
  "locktime": 0,
  "vin": [
    {
      "txid": "a7bfccc3522b4e3567e5b0765c816d1ebdace778bff55363c6fce5ca6e493c28",
      "vout": 1,
      "prevout": {
        "scriptpubkey": "a914f040741144272e9eaecee3ea260f1beb5a73d96287",
        "scriptpubkey_asm": "OP_HASH160 OP_PUSHBYTES_20 f040741144272e9eaecee3ea260f1beb5a73d962 OP_EQUAL",
        "scriptpubkey_type": "p2sh",
        "scriptpubkey_address": "3PbMJtAeXBzU1jzjNr872MPqpp2XpxvMRR",
        "value": 16920760
      },
      "scriptsig": "1600144a227ab769565e37ddb873cad18278e5929bc93b",
      "scriptsig_asm": "OP_PUSHBYTES_22 00144a227ab769565e37ddb873cad18278e5929bc93b",
      "witness": [
        "3045022100fb45c4ea4ede444a6ee5f1ff637cfa58885d378e0310a77269d7c4c4fd28147b022063b3f2ff22ec1f5eb84b882f82bf0f5f89a5e64d2f1dee0173160674c8396e9a01",
        "03fbc7d0dc1bced37da8988f0e2d37f6181084f1aef62ed6bcb9090c34a0cf13e4"
      ],
      "is_coinbase": false,
      "sequence": 0,
      "inner_redeemscript_asm": "OP_0 OP_PUSHBYTES_20 4a227ab769565e37ddb873cad18278e5929bc93b"
    }
  ],
  "vout": [
    {
      "scriptpubkey": "a914856e986c4233572d440245b915280af1d7bb1e5487",
      "scriptpubkey_asm": "OP_HASH160 OP_PUSHBYTES_20 856e986c4233572d440245b915280af1d7bb1e54 OP_EQUAL",
      "scriptpubkey_type": "p2sh",
      "scriptpubkey_address": "3DrYHMrmUGjjsnyt2fKhXMrPFu9h4Fodsx",
      "value": 15000000
    },
    {
      "scriptpubkey": "a9140ca41cbcc62cef18f77c8208c98c404284d36a1987",
      "scriptpubkey_asm": "OP_HASH160 OP_PUSHBYTES_20 0ca41cbcc62cef18f77c8208c98c404284d36a19 OP_EQUAL",
      "scriptpubkey_type": "p2sh",
      "scriptpubkey_address": "32qrdZjMcosZE5vfQbMVuAQE8VZaorXvQ9",
      "value": 1917817
    }
  ],
  "size": 248,
  "weight": 662,
  "fee": 2943,
  "status": {
    "confirmed": true,
    "block_height": 834638,
    "block_hash": "000000000000000000025f742c626208ac87e0b7d15054abb4a19ca2d735a54e",
    "block_time": 1710405325
  },
  "hex": "02000000000101283c496ecae5fcc66353f5bf78e7acbd1e6d815c76b0e567354e2b52c3ccbfa701000000171600144a227ab769565e37ddb873cad18278e5929bc93b0000000002c0e1e4000000000017a914856e986c4233572d440245b915280af1d7bb1e548779431d000000000017a9140ca41cbcc62cef18f77c8208c98c404284d36a198702483045022100fb45c4ea4ede444a6ee5f1ff637cfa58885d378e0310a77269d7c4c4fd28147b022063b3f2ff22ec1f5eb84b882f82bf0f5f89a5e64d2f1dee0173160674c8396e9a012103fbc7d0dc1bced37da8988f0e2d37f6181084f1aef62ed6bcb9090c34a0cf13e400000000"
}