{
  "txid": "21037e9441bf31c392f86376a6a80d4ad2e005c3b0c0f8d8ceade7f619179d9f",
  "version": 2,
  "locktime": 0,
  "vin": [
    {
      "txid": "bedb422244f04089af5c341119b02342608601d408ecc8c8c405a15976a90a5d",
      "vout": 0,
      "prevout": {
        "scriptpubkey": "a914398743e951b832c8f1c9c27557faaf833a5b377987",
        "scriptpubkey_asm": "OP_HASH160 OP_PUSHBYTES_20 398743e951b832c8f1c9c27557faaf833a5b3779 OP_EQUAL",
        "scriptpubkey_type": "p2sh",
        "scriptpubkey_address": "36wCUsfqpqMvfmpCCwdabht9hjDEXL7Qic",
        "value": 9100000
      },
      "scriptsig": "160014e90d387d1b80273d540b0773ce8887cab577850f",
      "scriptsig_asm": "OP_PUSHBYTES_22 0014e90d387d1b80273d540b0773ce8887cab577850f",
      "witness": [
        "3045022100a407dd63bb8f4c668aad2965d742af0730a3b70a1f6cdac43460ba2cbba9a81602200d61f2cb5ae57c73826a604feb67d2e0fafb42f07ccc4be66fbdc292e1928aa901",
        "02bde29c3eecfb7db418d9384d82c7e2d0eff5caa41ad233158217319409cf7435"
      ],
      "is_coinbase": false,
      "sequence": 4294967295,
      "inner_redeemscript_asm": "OP_0 OP_PUSHBYTES_20 e90d387d1b80273d540b0773ce8887cab577850f"
    }
  ],
  "vout": [
    {
      "scriptpubkey": "a914398743e951b832c8f1c9c27557faaf833a5b377987",
      "scriptpubkey_asm": "OP_HASH160 OP_PUSHBYTES_20 398743e951b832c8f1c9c27557faaf833a5b3779 OP_EQUAL",
      "scriptpubkey_type": "p2sh",
      "scriptpubkey_address": "36wCUsfqpqMvfmpCCwdabht9hjDEXL7Qic",
      "value": 600
    },
    {
      "scriptpubkey": "a914398743e951b832c8f1c9c27557faaf833a5b377987",
      "scriptpubkey_asm": "OP_HASH160 OP_PUSHBYTES_20 398743e951b832c8f1c9c27557faaf833a5b3779 OP_EQUAL",
      "scriptpubkey_type": "p2sh",
      "scriptpubkey_address": "36wCUsfqpqMvfmpCCwdabht9hjDEXL7Qic",
      "value": 600
    },
    {
      "scriptpubkey": "a914398743e951b832c8f1c9c27557faaf833a5b377987",
      "scriptpubkey_asm": "OP_HASH160 OP_PUSHBYTES_20 398743e951b832c8f1c9c27557faaf833a5b3779 OP_EQUAL",
      "scriptpubkey_type": "p2sh",
      "scriptpubkey_address": "36wCUsfqpqMvfmpCCwdabht9hjDEXL7Qic",
      "value": 600
    },
    {
      "scriptpubkey": "a914398743e951b832c8f1c9c27557faaf833a5b377987",
      "scriptpubkey_asm": "OP_HASH160 OP_PUSHBYTES_20 398743e951b832c8f1c9c27557faaf833a5b3779 OP_EQUAL",
      "scriptpubkey_type": "p2sh",
      "scriptpubkey_address": "36wCUsfqpqMvfmpCCwdabht9hjDEXL7Qic",
      "value": 600
    },
    {
      "scriptpubkey": "a914398743e951b832c8f1c9c27557faaf833a5b377987",
      "scriptpubkey_asm": "OP_HASH160 OP_PUSHBYTES_20 398743e951b832c8f1c9c27557faaf833a5b3779 OP_EQUAL",
      "scriptpubkey_type": "p2sh",
      "scriptpubkey_address": "36wCUsfqpqMvfmpCCwdabht9hjDEXL7Qic",
      "value": 600
    },
    {
      "scriptpubkey": "a914398743e951b832c8f1c9c27557faaf833a5b377987",
      "scriptpubkey_asm": "OP_HASH160 OP_PUSHBYTES_20 398743e951b832c8f1c9c27557faaf833a5b3779 OP_EQUAL",
      "scriptpubkey_type": "p2sh",
      "scriptpubkey_address": "36wCUsfqpqMvfmpCCwdabht9hjDEXL7Qic",
      "value": 600
    },
    {
      "scriptpubkey": "a914398743e951b832c8f1c9c27557faaf833a5b377987",
      "scriptpubkey_asm": "OP_HASH160 OP_PUSHBYTES_20 398743e951b832c8f1c9c27557faaf833a5b3779 OP_EQUAL",
      "scriptpubkey_type": "p2sh",
      "scriptpubkey_address": "36wCUsfqpqMvfmpCCwdabht9hjDEXL7Qic",
      "value": 600
    },
    {
      "scriptpubkey": "a914398743e951b832c8f1c9c27557faaf833a5b377987",
      "scriptpubkey_asm": "OP_HASH160 OP_PUSHBYTES_20 398743e951b832c8f1c9c27557faaf833a5b3779 OP_EQUAL",
      "scriptpubkey_type": "p2sh",
      "scriptpubkey_address": "36wCUsfqpqMvfmpCCwdabht9hjDEXL7Qic",
      "value": 600
    },
    {
      "scriptpubkey": "a914398743e951b832c8f1c9c27557faaf833a5b377987",
      "scriptpubkey_asm": "OP_HASH160 OP_PUSHBYTES_20 398743e951b832c8f1c9c27557faaf833a5b3779 OP_EQUAL",
      "scriptpubkey_type": "p2sh",
      "scriptpubkey_address": "36wCUsfqpqMvfmpCCwdabht9hjDEXL7Qic",
      "value": 600
    },
    {
      "scriptpubkey": "a914398743e951b832c8f1c9c27557faaf833a5b377987",
      "scriptpubkey_asm": "OP_HASH160 OP_PUSHBYTES_20 398743e951b832c8f1c9c27557faaf833a5b3779 OP_EQUAL",
      "scriptpubkey_type": "p2sh",
      "scriptpubkey_address": "36wCUsfqpqMvfmpCCwdabht9hjDEXL7Qic",
      "value": 600
    },
    {
      "scriptpubkey": "a914398743e951b832c8f1c9c27557faaf833a5b377987",
      "scriptpubkey_asm": "OP_HASH160 OP_PUSHBYTES_20 398743e951b832c8f1c9c27557faaf833a5b3779 OP_EQUAL",
      "scriptpubkey_type": "p2sh",
      "scriptpubkey_address": "36wCUsfqpqMvfmpCCwdabht9hjDEXL7Qic",
      "value": 9086282
    }
  ],
  "size": 536,
  "weight": 1814,
  "fee": 7718,
  "status": {
    "confirmed": true,
    "block_height": 834638,
    "block_hash": "000000000000000000025f742c626208ac87e0b7d15054abb4a19ca2d735a54e",
    "block_time": 1710405325
  },
  "hex": "020000000001015d0aa97659a105c4c8c8ec08d40186604223b01911345caf8940f0442242dbbe0000000017160014e90d387d1b80273d540b0773ce8887cab577850fffffffff0b580200000000000017a914398743e951b832c8f1c9c27557faaf833a5b377987580200000000000017a914398743e951b832c8f1c9c27557faaf833a5b377987580200000000000017a914398743e951b832c8f1c9c27557faaf833a5b377987580200000000000017a914398743e951b832c8f1c9c27557faaf833a5b377987580200000000000017a914398743e951b832c8f1c9c27557faaf833a5b377987580200000000000017a914398743e951b832c8f1c9c27557faaf833a5b377987580200000000000017a914398743e951b832c8f1c9c27557faaf833a5b377987580200000000000017a914398743e951b832c8f1c9c27557faaf833a5b377987580200000000000017a914398743e951b832c8f1c9c27557faaf833a5b377987580200000000000017a914398743e951b832c8f1c9c27557faaf833a5b3779874aa58a000000000017a914398743e951b832c8f1c9c27557faaf833a5b37798702483045022100a407dd63bb8f4c668aad2965d742af0730a3b70a1f6cdac43460ba2cbba9a81602200d61f2cb5ae57c73826a604feb67d2e0fafb42f07ccc4be66fbdc292e1928aa9012102bde29c3eecfb7db418d9384d82c7e2d0eff5caa41ad233158217319409cf743500000000"
}