{
  "txid": "2107bc0caa700c8c1d42a31f3b3bc34eec1785bf6043de2615ca436dc26bd39d",
  "version": 2,
  "locktime": 0,
  "vin": [
    {
      "txid": "8a333f87db7b9ee0aa2813f563cee13b8be5548c57200da92f3aa9bbd97df4c2",
      "vout": 5,
      "prevout": {
        "scriptpubkey": "51201f94ec8b0fd121e4c6a0b9d6dff9aa92ab2916b91d4c9bf0c7be7f75c7483699",
        "scriptpubkey_asm": "OP_PUSHNUM_1 OP_PUSHBYTES_32 1f94ec8b0fd121e4c6a0b9d6dff9aa92ab2916b91d4c9bf0c7be7f75c7483699",
        "scriptpubkey_type": "v1_p2tr",
        "scriptpubkey_address": "bc1pr72wezc06ys7f34qh8tdl7d2j24jj94er4xfhux8helht36gx6vsjkn0ht",
        "value": 85887
      },
      "scriptsig": "",
      "scriptsig_asm": "",
      "witness": [
        "099a8601b79d4161a27bb7e539a956498bfe726e567ae6581bf17f0e42b2993f4103bc33a0555fa47c90c431ea98fa3f86fffc9caf07d855d8c2c7ab8b643162"
      ],
      "is_coinbase": false,
      "sequence": 4294967293
    }
  ],
  "vout": [
    {
      "scriptpubkey": "5120af3013db93caef61e9c5b72c69236086d5f7ec757211277ae716e727d1662bea",
      "scriptpubkey_asm": "OP_PUSHNUM_1 OP_PUSHBYTES_32 af3013db93caef61e9c5b72c69236086d5f7ec757211277ae716e727d1662bea",
      "scriptpubkey_type": "v1_p2tr",
      "scriptpubkey_address": "bc1p4ucp8kunethkr6w9kukxjgmqsm2l0mr4wggjw7h8zmnj05tx904qc5jq7d",
      "value": 3164
    },
    {
      "scriptpubkey": "51201f94ec8b0fd121e4c6a0b9d6dff9aa92ab2916b91d4c9bf0c7be7f75c7483699",
      "scriptpubkey_asm": "OP_PUSHNUM_1 OP_PUSHBYTES_32 1f94ec8b0fd121e4c6a0b9d6dff9aa92ab2916b91d4c9bf0c7be7f75c7483699",
      "scriptpubkey_type": "v1_p2tr",
      "scriptpubkey_address": "bc1pr72wezc06ys7f34qh8tdl7d2j24jj94er4xfhux8helht36gx6vsjkn0ht",
      "value": 80105
    }
  ],
  "size": 205,
  "weight": 616,
  "fee": 2618,
  "status": {
    "confirmed": true,
    "block_height": 834638,
    "block_hash": "000000000000000000025f742c626208ac87e0b7d15054abb4a19ca2d735a54e",
    "block_time": 1710405325
  },
  "hex": "02000000000101c2f47dd9bba93a2fa90d20578c54e58b3be1ce63f51328aae09e7bdb873f338a0500000000fdffffff025c0c000000000000225120af3013db93caef61e9c5b72c69236086d5f7ec757211277ae716e727d1662beae9380100000000002251201f94ec8b0fd121e4c6a0b9d6dff9aa92ab2916b91d4c9bf0c7be7f75c74836990140099a8601b79d4161a27bb7e539a956498bfe726e567ae6581bf17f0e42b2993f4103bc33a0555fa47c90c431ea98fa3f86fffc9caf07d855d8c2c7ab8b64316200000000"
}