{
  "txid": "21123f563a9c8a28916565cc4f09d15e60d3fc26e3b29efedf2494a9b10a6149",
  "version": 2,
  "locktime": 0,
  "vin": [
    {
      "txid": "95e3c63ed06eb14c2efdbb11d64f0aa37781296175cbbcff225fdf2dd7a34c79",
      "vout": 5,
      "prevout": {
        "scriptpubkey": "001410b8c58dbddfcc66ccdc01e9a5e548aabd78b00b",
        "scriptpubkey_asm": "OP_0 OP_PUSHBYTES_20 10b8c58dbddfcc66ccdc01e9a5e548aabd78b00b",
        "scriptpubkey_type": "v0_p2wpkh",
        "scriptpubkey_address": "bc1qzzuvtrdamlxxdnxuq856te2g427h3vqt8sehac",
        "value": 300
      },
      "scriptsig": "",
      "scriptsig_asm": "",
      "witness": [
        "3044022071d40aa8907391ec7ae29c4c8bb6f88748b679fe375a42cef038b26a0ef9727d022008fe8c99f87913088372f6971979b39bd716d720f41e4df85102ae10f41af30401",
        "02af7f55a1c9eb0efa8c0108e876899ec7bc4f7b68a096f7cfeb21aaf2fa8557b3"
      ],
      "is_coinbase": false,
      "sequence": 4294967295
    },
    {
      "txid": "95e3c63ed06eb14c2efdbb11d64f0aa37781296175cbbcff225fdf2dd7a34c79",
      "vout": 6,
      "prevout": {
        "scriptpubkey": "001410b8c58dbddfcc66ccdc01e9a5e548aabd78b00b",
        "scriptpubkey_asm": "OP_0 OP_PUSHBYTES_20 10b8c58dbddfcc66ccdc01e9a5e548aabd78b00b",
        "scriptpubkey_type": "v0_p2wpkh",
        "scriptpubkey_address": "bc1qzzuvtrdamlxxdnxuq856te2g427h3vqt8sehac",
        "value": 300
      },
      "scriptsig": "",
      "scriptsig_asm": "",
      "witness": [
        "304402203c1d1283f041be48a217fb1ad483619a8e10cbae9c2a1eb75b6c00e708feb46c0220700cdba007f22877aa4c24034346867822a7d2ae410c05bbe441c83c6bf12c6901",
        "02af7f55a1c9eb0efa8c0108e876899ec7bc4f7b68a096f7cfeb21aaf2fa8557b3"
      ],
      "is_coinbase": false,
      "sequence": 4294967295
    },
    {
      "txid": "a20ea69ab01792ba95983805f96718417018860ec22b292d8bd2cc1c66d7e42a",
      "vout": 0,
      "prevout": {
        "scriptpubkey": "512024e04efd23ddf7a5f539f200d8f663421c95215245f4d3a715802637e120b250",
        "scriptpubkey_asm": "OP_PUSHNUM_1 OP_PUSHBYTES_32 24e04efd23ddf7a5f539f200d8f663421c95215245f4d3a715802637e120b250",
        "scriptpubkey_type": "v1_p2tr",
        "scriptpubkey_address": "bc1pynsyalfrmhm6tafe7gqd3anrggwf2g2jgh6d8fc4sqnr0cfqkfgqxftrkx",
        "value": 546
      },
      "scriptsig": "",
      "scriptsig_asm": "",
      "witness": [
        "6477b258be40fb44de454a1a09f63d3718d67484e25257a5981c84bd79176354c8e9abc446d66cacd8a9a41016174f54f0ed2c29e32f4ed0e4100e3f5465746683"
      ],
      "is_coinbase": false,
      "sequence": 4294967295
    },
    {
      "txid": "787107ca9b807954883797fe9f8375f3ec473b2b0958a7900cc4eeb7247f0e4d",
      "vout": 6,
      "prevout": {
        "scriptpubkey": "51205f9284ffafeb86e4a03dea1a209f4b45a68792131bceac3ec8df6356f08ada46",
        "scriptpubkey_asm": "OP_PUSHNUM_1 OP_PUSHBYTES_32 5f9284ffafeb86e4a03dea1a209f4b45a68792131bceac3ec8df6356f08ada46",
        "scriptpubkey_type": "v1_p2tr",
        "scriptpubkey_address": "bc1pt7fgfla0awrwfgpaagdzp86tgkng0ysnr082c0kgma34duy2mfrqcrf9qd",
        "value": 50255305
      },
      "scriptsig": "",
      "scriptsig_asm": "",
      "witness": [
        "1c9f93da83194d00db82831caa1db0cf54b2bea059cf97a717c323957333f40a4f604c036d365c95cbe740c0da982526aa421ff0fd944222bb3813ec51013955"
      ],
      "is_coinbase": false,
      "sequence": 4294967295
    },
    {
      "txid": "95e3c63ed06eb14c2efdbb11d64f0aa37781296175cbbcff225fdf2dd7a34c79",
      "vout": 0,
      "prevout": {
        "scriptpubkey": "001410b8c58dbddfcc66ccdc01e9a5e548aabd78b00b",
        "scriptpubkey_asm": "OP_0 OP_PUSHBYTES_20 10b8c58dbddfcc66ccdc01e9a5e548aabd78b00b",
        "scriptpubkey_type": "v0_p2wpkh",
        "scriptpubkey_address": "bc1qzzuvtrdamlxxdnxuq856te2g427h3vqt8sehac",
        "value": 600
      },
      "scriptsig": "",
      "scriptsig_asm": "",
      "witness": [
        "304402207039a3aa88f1981a3693fea51bb8de21f032105b3b5eb10598519ad527bc7266022058bef54048743652bd385fe4be93cf803b7a8768a607b0d04ecbda0944c6b78401",
        "02af7f55a1c9eb0efa8c0108e876899ec7bc4f7b68a096f7cfeb21aaf2fa8557b3"
      ],
      "is_coinbase": false,
      "sequence": 4294967295
    }
  ],
  "vout": [
    {
      "scriptpubkey": "001410b8c58dbddfcc66ccdc01e9a5e548aabd78b00b",
      "scriptpubkey_asm": "OP_0 OP_PUSHBYTES_20 10b8c58dbddfcc66ccdc01e9a5e548aabd78b00b",
      "scriptpubkey_type": "v0_p2wpkh",
      "scriptpubkey_address": "bc1qzzuvtrdamlxxdnxuq856te2g427h3vqt8sehac",
      "value": 600
    },
    {
      "scriptpubkey": "51205f9284ffafeb86e4a03dea1a209f4b45a68792131bceac3ec8df6356f08ada46",
      "scriptpubkey_asm": "OP_PUSHNUM_1 OP_PUSHBYTES_32 5f9284ffafeb86e4a03dea1a209f4b45a68792131bceac3ec8df6356f08ada46",
      "scriptpubkey_type": "v1_p2tr",
      "scriptpubkey_address": "bc1pt7fgfla0awrwfgpaagdzp86tgkng0ysnr082c0kgma34duy2mfrqcrf9qd",
      "value": 546
    },
    {
      "scriptpubkey": "512024e04efd23ddf7a5f539f200d8f663421c95215245f4d3a715802637e120b250",
      "scriptpubkey_asm": "OP_PUSHNUM_1 OP_PUSHBYTES_32 24e04efd23ddf7a5f539f200d8f663421c95215245f4d3a715802637e120b250",
      "scriptpubkey_type": "v1_p2tr",
      "scriptpubkey_address": "bc1pynsyalfrmhm6tafe7gqd3anrggwf2g2jgh6d8fc4sqnr0cfqkfgqxftrkx",
      "value": 2850000
    },
    {
      "scriptpubkey": "0014ea0ac7f63b4288501e6c2688e51ec806e6798eb3",
      "scriptpubkey_asm": "OP_0 OP_PUSHBYTES_20 ea0ac7f63b4288501e6c2688e51ec806e6798eb3",
      "scriptpubkey_type": "v0_p2wpkh",
      "scriptpubkey_address": "bc1qag9v0a3mg2y9q8nvy6yw28kgqmn8nr4njww0ur",
      "value": 14250
    },
    {
      "scriptpubkey": "51205f9284ffafeb86e4a03dea1a209f4b45a68792131bceac3ec8df6356f08ada46",
      "scriptpubkey_asm": "OP_PUSHNUM_1 OP_PUSHBYTES_32 5f9284ffafeb86e4a03dea1a209f4b45a68792131bceac3ec8df6356f08ada46",
      "scriptpubkey_type": "v1_p2tr",
      "scriptpubkey_address": "bc1pt7fgfla0awrwfgpaagdzp86tgkng0ysnr082c0kgma34duy2mfrqcrf9qd",
      "value": 47382677
    },
    {
      "scriptpubkey": "001410b8c58dbddfcc66ccdc01e9a5e548aabd78b00b",
      "scriptpubkey_asm": "OP_0 OP_PUSHBYTES_20 10b8c58dbddfcc66ccdc01e9a5e548aabd78b00b",
      "scriptpubkey_type": "v0_p2wpkh",
      "scriptpubkey_address": "bc1qzzuvtrdamlxxdnxuq856te2g427h3vqt8sehac",
      "value": 300
    },
    {
      "scriptpubkey": "001410b8c58dbddfcc66ccdc01e9a5e548aabd78b00b",
      "scriptpubkey_asm": "OP_0 OP_PUSHBYTES_20 10b8c58dbddfcc66ccdc01e9a5e548aabd78b00b",
      "scriptpubkey_type": "v0_p2wpkh",
      "scriptpubkey_address": "bc1qzzuvtrdamlxxdnxuq856te2g427h3vqt8sehac",
      "value": 300
    }
  ],
  "size": 924,
  "weight": 2328,
  "fee": 8378,
  "status": {
    "confirmed": true,
    "block_height": 834638,
    "block_hash": "000000000000000000025f742c626208ac87e0b7d15054abb4a19ca2d735a54e",
    "block_time": 1710405325
  },
  "hex": "02000000000105794ca3d72ddf5f22ffbccb7561298177a30a4fd611bbfd2e4cb16ed03ec6e3950500000000ffffffff794ca3d72ddf5f22ffbccb7561298177a30a4fd611bbfd2e4cb16ed03ec6e3950600000000ffffffff2ae4d7661cccd28b2d292bc20e861870411867f905389895ba9217b09aa60ea20000000000ffffffff4d0e7f24b7eec40c90a758092b3b47ecf375839ffe9737885479809bca0771780600000000ffffffff794ca3d72ddf5f22ffbccb7561298177a30a4fd611bbfd2e4cb16ed03ec6e3950000000000ffffffff07580200000000000016001410b8c58dbddfcc66ccdc01e9a5e548aabd78b00b22020000000000002251205f9284ffafeb86e4a03dea1a209f4b45a68792131bceac3ec8df6356f08ada46d07c2b000000000022512024e04efd23ddf7a5f539f200d8f663421c95215245f4d3a715802637e120b250aa37000000000000160014ea0ac7f63b4288501e6c2688e51ec806e6798eb39500d302000000002251205f9284ffafeb86e4a03dea1a209f4b45a68792131bceac3ec8df6356f08ada462c0100000000000016001410b8c58dbddfcc66ccdc01e9a5e548aabd78b00b2c0100000000000016001410b8c58dbddfcc66ccdc01e9a5e548aabd78b00b02473044022071d40aa8907391ec7ae29c4c8bb6f88748b679fe375a42cef038b26a0ef9727d022008fe8c99f87913088372f6971979b39bd716d720f41e4df85102ae10f41af304012102af7f55a1c9eb0efa8c0108e876899ec7bc4f7b68a096f7cfeb21aaf2fa8557b30247304402203c1d1283f041be48a217fb1ad483619a8e10cbae9c2a1eb75b6c00e708feb46c0220700cdba007f22877aa4c24034346867822a7d2ae410c05bbe441c83c6bf12c69012102af7f55a1c9eb0efa8c0108e876899ec7bc4f7b68a096f7cfeb21aaf2fa8557b301416477b258be40fb44de454a1a09f63d3718d67484e25257a5981c84bd79176354c8e9abc446d66cacd8a9a41016174f54f0ed2c29e32f4ed0e4100e3f546574668301401c9f93da83194d00db82831caa1db0cf54b2bea059cf97a717c323957333f40a4f604c036d365c95cbe740c0da982526aa421ff0fd944222bb3813ec510139550247304402207039a3aa88f1981a3693fea51bb8de21f032105b3b5eb10598519ad527bc7266022058bef54048743652bd385fe4be93cf803b7a8768a607b0d04ecbda0944c6b784012102af7f55a1c9eb0efa8c0108e876899ec7bc4f7b68a096f7cfeb21aaf2fa8557b300000000"
}