{
  "txid": "21140d69e8ed63c485e036e3ba4003d4377984069f00a4c9d4678e5643418791",
  "version": 1,
  "locktime": 0,
  "vin": [
    {
      "txid": "48b0ff8cdb043ce49834b115e8ba4180a9e104205cc4e9a77d78db55c2fe7d44",
      "vout": 12,
      "prevout": {
        "scriptpubkey": "001418c6b42dfafbef8538adcc8d030c819ca9ccb28e",
        "scriptpubkey_asm": "OP_0 OP_PUSHBYTES_20 18c6b42dfafbef8538adcc8d030c819ca9ccb28e",
        "scriptpubkey_type": "v0_p2wpkh",
        "scriptpubkey_address": "bc1qrrrtgt06l0hc2w9dejxsxrypnj5uev5wzqhwwy",
        "value": 244830
      },
      "scriptsig": "",
      "scriptsig_asm": "",
      "witness": [
        "30450221008e9f4ffad24468255e1af3197a7ad39bcae93c335f299b7060f09b2b5fffd96c02200bf7a869404164661fcaf247bbe13ba936fd827c80535cd74498c2e528eb314e01",
        "03d62a593d865fa1841e373e9572d743d4ced9da989b3bc3f10fa32744769808ff"
      ],
      "is_coinbase": false,
      "sequence": 4294967293
    },
    {
      "txid": "0341f571cab23f1c16c0fb5ca5caef9a2bf01719509f5372dd3ac54aa7a3be6a",
      "vout": 70,
      "prevout": {
        "scriptpubkey": "0014812b92cf7076da6716ddd2666f2f7d0e2c6796f9",
        "scriptpubkey_asm": "OP_0 OP_PUSHBYTES_20 812b92cf7076da6716ddd2666f2f7d0e2c6796f9",
        "scriptpubkey_type": "v0_p2wpkh",
        "scriptpubkey_address": "bc1qsy4e9nmswmdxw9ka6fnx7tmapckx09helus8ks",
        "value": 7812
      },
      "scriptsig": "",
      "scriptsig_asm": "",
      "witness": [
        "3044022037ddcb22fa788829bae0460e317c6c5263d1dd59f96c0adde86132a2318a576402201ba59d9bf9ebe668d6e886ca092e03f29c9dbedd34eda8876d26a17a6562d95101",
        "0234f64eb7fac9b57fd6e3f55c1101ef0389224b817dc14a9031f59370fe989e55"
      ],
      "is_coinbase": false,
      "sequence": 4294967293
    },
    {
      "txid": "7f304f1dc58893a49eb563ecc793a5a4f7ffe7c32bbdeb2a955a346c10d9f3ab",
      "vout": 1,
      "prevout": {
        "scriptpubkey": "001491545131d5f2bfbca2fac5af4c1aa8afe9220ab2",
        "scriptpubkey_asm": "OP_0 OP_PUSHBYTES_20 91545131d5f2bfbca2fac5af4c1aa8afe9220ab2",
        "scriptpubkey_type": "v0_p2wpkh",
        "scriptpubkey_address": "bc1qj929zvw472lmegh6ckh5cx4g4l5jyz4jxx6cx5",
        "value": 1000007
      },
      "scriptsig": "",
      "scriptsig_asm": "",
      "witness": [
        "304402204c5f990599ca7ce26d95cc04d2bb68caac2ed70ce5754bfbc63cf5f7cbaa1cca02204e6d1da42dc685a2cada66558cb668754c52d66f24b98b2227562c62b0200dd601",
        "025e98047502d7604653ec4e3e8b9e5650221b5bbb744c0ba15fc7d01c7d29ddfb"
      ],
      "is_coinbase": false,
      "sequence": 4294967293
    }
  ],
  "vout": [
    {
      "scriptpubkey": "00142eff74ada4c8adcab52df03101233b4f4d715790",
      "scriptpubkey_asm": "OP_0 OP_PUSHBYTES_20 2eff74ada4c8adcab52df03101233b4f4d715790",
      "scriptpubkey_type": "v0_p2wpkh",
      "scriptpubkey_address": "bc1q9mlhftdyezku4dfd7qcszgemfaxhz4usylgve2",
      "value": 1000000
    },
    {
      "scriptpubkey": "a9146884eb0ecad9b4bf71b91217dabbca7496546d1e87",
      "scriptpubkey_asm": "OP_HASH160 OP_PUSHBYTES_20 6884eb0ecad9b4bf71b91217dabbca7496546d1e OP_EQUAL",
      "scriptpubkey_type": "p2sh",
      "scriptpubkey_address": "3BDfRp4Qi13gPtxxKgsmvZGcCXGTU5w8ni",
      "value": 249313
    }
  ],
  "size": 520,
  "weight": 1108,
  "fee": 3336,
  "status": {
    "confirmed": true,
    "block_height": 834460,
    "block_hash": "00000000000000000000484a79b643b2524bbce82e5d8a442013fa5b8905ed98",
    "block_time": 1710307468
  },
  "hex": "01000000000103447dfec255db787da7e9c45c2004e1a98041bae815b13498e43c04db8cffb0480c00000000fdffffff6abea3a74ac53add72539f501917f02b9aefcaa55cfbc0161c3fb2ca71f541034600000000fdffffffabf3d9106c345a952aebbd2bc3e7fff7a4a593c7ec63b59ea49388c51d4f307f0100000000fdffffff0240420f00000000001600142eff74ada4c8adcab52df03101233b4f4d715790e1cd03000000000017a9146884eb0ecad9b4bf71b91217dabbca7496546d1e87024830450221008e9f4ffad24468255e1af3197a7ad39bcae93c335f299b7060f09b2b5fffd96c02200bf7a869404164661fcaf247bbe13ba936fd827c80535cd74498c2e528eb314e012103d62a593d865fa1841e373e9572d743d4ced9da989b3bc3f10fa32744769808ff02473044022037ddcb22fa788829bae0460e317c6c5263d1dd59f96c0adde86132a2318a576402201ba59d9bf9ebe668d6e886ca092e03f29c9dbedd34eda8876d26a17a6562d95101210234f64eb7fac9b57fd6e3f55c1101ef0389224b817dc14a9031f59370fe989e550247304402204c5f990599ca7ce26d95cc04d2bb68caac2ed70ce5754bfbc63cf5f7cbaa1cca02204e6d1da42dc685a2cada66558cb668754c52d66f24b98b2227562c62b0200dd60121025e98047502d7604653ec4e3e8b9e5650221b5bbb744c0ba15fc7d01c7d29ddfb00000000"
}