{
  "txid": "21173ddc88e389dea03a7ae0fa2175103eda21214df14d4a73d4faf6f92c35d7",
  "version": 1,
  "locktime": 0,
  "vin": [
    {
      "txid": "530cff13fc0b6692a14418cc41d1d16b15b080f6dd07ba5827694fe411a035fb",
      "vout": 2,
      "prevout": {
        "scriptpubkey": "00207250d91085a77a4568fa4cfd5bebb59f0b9cb3530f8154cd4fab6d28abd548fe",
        "scriptpubkey_asm": "OP_0 OP_PUSHBYTES_32 7250d91085a77a4568fa4cfd5bebb59f0b9cb3530f8154cd4fab6d28abd548fe",
        "scriptpubkey_type": "v0_p2wsh",
        "scriptpubkey_address": "bc1qwfgdjyy95aay2686fn74h6a4nu9eev6np7q4fn204dkj3274frlqrskvx0",
        "value": 221246995
      },
      "scriptsig": "",
      "scriptsig_asm": "",
      "witness": [
        "",
        "3045022100c37c30aa9a92ec10ab9ed872f76f8b57232091fa0f7299b61fbdcabbf1d6ec0a0220602fca136b8e315951715b8306eb7264e5fe9687601b533daa311ed51c05a46b01",
        "3044022075530a55131ce62944190ddaad399fc9a880c839b1114038ff2d458d6e3344c5022004c92243d19ba317bd7e0b2d21c1249b4bcd9305d429c9d0a25659da478a544f01",
        "5221030fac04165b606dea3b8f81ada5eb66ca181d5215c873fcf46623ea7cf8e98b1b2102b7836a2a9d3ff095415383cb23a5f4f1badd75e44adb17537962eafe3ded3b602102f8cb472df1ae03cfa6b65b013add7862c7d3ac3684a8a92a44192faace228aee53ae"
      ],
      "is_coinbase": false,
      "sequence": 4294967295,
      "inner_witnessscript_asm": "OP_PUSHNUM_2 OP_PUSHBYTES_33 030fac04165b606dea3b8f81ada5eb66ca181d5215c873fcf46623ea7cf8e98b1b OP_PUSHBYTES_33 02b7836a2a9d3ff095415383cb23a5f4f1badd75e44adb17537962eafe3ded3b60 OP_PUSHBYTES_33 02f8cb472df1ae03cfa6b65b013add7862c7d3ac3684a8a92a44192faace228aee OP_PUSHNUM_3 OP_CHECKMULTISIG"
    }
  ],
  "vout": [
    {
      "scriptpubkey": "76a91499c556e3e3d7ced0ee2c768cfffc5b31b8f22c8888ac",
      "scriptpubkey_asm": "OP_DUP OP_HASH160 OP_PUSHBYTES_20 99c556e3e3d7ced0ee2c768cfffc5b31b8f22c88 OP_EQUALVERIFY OP_CHECKSIG",
      "scriptpubkey_type": "p2pkh",
      "scriptpubkey_address": "1F24njWipmkRoa3gUXhaYfvgaVhSEJFKHk",
      "value": 8653344
    },
    {
      "scriptpubkey": "00207250d91085a77a4568fa4cfd5bebb59f0b9cb3530f8154cd4fab6d28abd548fe",
      "scriptpubkey_asm": "OP_0 OP_PUSHBYTES_32 7250d91085a77a4568fa4cfd5bebb59f0b9cb3530f8154cd4fab6d28abd548fe",
      "scriptpubkey_type": "v0_p2wsh",
      "scriptpubkey_address": "bc1qwfgdjyy95aay2686fn74h6a4nu9eev6np7q4fn204dkj3274frlqrskvx0",
      "value": 106294134
    },
    {
      "scriptpubkey": "0020cffcb0c22ee684012fbd9e04c5fb574a5d7f59fa934e329aea6444b0f68b251b",
      "scriptpubkey_asm": "OP_0 OP_PUSHBYTES_32 cffcb0c22ee684012fbd9e04c5fb574a5d7f59fa934e329aea6444b0f68b251b",
      "scriptpubkey_type": "v0_p2wsh",
      "scriptpubkey_address": "bc1qel7tps3wu6zqztaanczvt76hffwh7k06jd8r9xh2v3ztpa5ty5dsz358ys",
      "value": 106294135
    }
  ],
  "size": 426,
  "weight": 939,
  "fee": 5382,
  "status": {
    "confirmed": true,
    "block_height": 834638,
    "block_hash": "000000000000000000025f742c626208ac87e0b7d15054abb4a19ca2d735a54e",
    "block_time": 1710405325
  },
  "hex": "01000000000101fb35a011e44f692758ba07ddf680b0156bd1d141cc1844a192660bfc13ff0c530200000000ffffffff03200a8400000000001976a91499c556e3e3d7ced0ee2c768cfffc5b31b8f22c8888ac76eb5506000000002200207250d91085a77a4568fa4cfd5bebb59f0b9cb3530f8154cd4fab6d28abd548fe77eb550600000000220020cffcb0c22ee684012fbd9e04c5fb574a5d7f59fa934e329aea6444b0f68b251b0400483045022100c37c30aa9a92ec10ab9ed872f76f8b57232091fa0f7299b61fbdcabbf1d6ec0a0220602fca136b8e315951715b8306eb7264e5fe9687601b533daa311ed51c05a46b01473044022075530a55131ce62944190ddaad399fc9a880c839b1114038ff2d458d6e3344c5022004c92243d19ba317bd7e0b2d21c1249b4bcd9305d429c9d0a25659da478a544f01695221030fac04165b606dea3b8f81ada5eb66ca181d5215c873fcf46623ea7cf8e98b1b2102b7836a2a9d3ff095415383cb23a5f4f1badd75e44adb17537962eafe3ded3b602102f8cb472df1ae03cfa6b65b013add7862c7d3ac3684a8a92a44192faace228aee53ae00000000"
}