{
  "txid": "211a931398dcd6dbc471ac35aa741b70563110c01cf56dd68bba9fc79d4cece3",
  "version": 1,
  "locktime": 0,
  "vin": [
    {
      "txid": "a20d4476663eb470678bbe0c1f4947fe5211fb77aaa9f71de2f7cd4bc8cdb623",
      "vout": 1,
      "prevout": {
        "scriptpubkey": "76a914022a58f18768356f88b24222b8d47170f9d599ec88ac",
        "scriptpubkey_asm": "OP_DUP OP_HASH160 OP_PUSHBYTES_20 022a58f18768356f88b24222b8d47170f9d599ec OP_EQUALVERIFY OP_CHECKSIG",
        "scriptpubkey_type": "p2pkh",
        "scriptpubkey_address": "1CT5jdjeFi4Umw56YbDf4qiWLPsMEJrtW",
        "value": 6187334
      },
      "scriptsig": "4830450221009a675c8457d3388a6ac2860283fb07bc8b33aa00660b7d5be18afca6873b0fe102203fbc3ccbe3ebc8229eea329437cf05360da17d187769de7c6494f9cac5f217ef01210269865418a55e9854605c612ff00320be17fd86876c0d46e9b0fb0a9fdc2d1699",
      "scriptsig_asm": "OP_PUSHBYTES_72 30450221009a675c8457d3388a6ac2860283fb07bc8b33aa00660b7d5be18afca6873b0fe102203fbc3ccbe3ebc8229eea329437cf05360da17d187769de7c6494f9cac5f217ef01 OP_PUSHBYTES_33 0269865418a55e9854605c612ff00320be17fd86876c0d46e9b0fb0a9fdc2d1699",
      "is_coinbase": false,
      "sequence": 4294967295
    }
  ],
  "vout": [
    {
      "scriptpubkey": "76a91442145ff49fe498a7b856de58307b863ef02d2d3d88ac",
      "scriptpubkey_asm": "OP_DUP OP_HASH160 OP_PUSHBYTES_20 42145ff49fe498a7b856de58307b863ef02d2d3d OP_EQUALVERIFY OP_CHECKSIG",
      "scriptpubkey_type": "p2pkh",
      "scriptpubkey_address": "172Q1L4JB4KGLYTnUvyU52KR6LrT4t24Mg",
      "value": 1338302
    },
    {
      "scriptpubkey": "a91438ad2097815079c5ad6a66821146769fd77a77da87",
      "scriptpubkey_asm": "OP_HASH160 OP_PUSHBYTES_20 38ad2097815079c5ad6a66821146769fd77a77da OP_EQUAL",
      "scriptpubkey_type": "p2sh",
      "scriptpubkey_address": "36rhAP9saLNZf9GsQwjgZp2KXsAbZfVREg",
      "value": 4845000
    }
  ],
  "size": 224,
  "weight": 896,
  "fee": 4032,
  "status": {
    "confirmed": true,
    "block_height": 834638,
    "block_hash": "000000000000000000025f742c626208ac87e0b7d15054abb4a19ca2d735a54e",
    "block_time": 1710405325
  },
  "hex": "010000000123b6cdc84bcdf7e21df7a9aa77fb1152fe47491f0cbe8b6770b43e6676440da2010000006b4830450221009a675c8457d3388a6ac2860283fb07bc8b33aa00660b7d5be18afca6873b0fe102203fbc3ccbe3ebc8229eea329437cf05360da17d187769de7c6494f9cac5f217ef01210269865418a55e9854605c612ff00320be17fd86876c0d46e9b0fb0a9fdc2d1699ffffffff02be6b1400000000001976a91442145ff49fe498a7b856de58307b863ef02d2d3d88acc8ed49000000000017a91438ad2097815079c5ad6a66821146769fd77a77da8700000000"
}