{
  "txid": "2147191098d5f49a09c8f647b00c5848b8553960b2a9e7df67be64724a561519",
  "version": 2,
  "locktime": 0,
  "vin": [
    {
      "txid": "75b14912ecc7efe76c229b0d208f17856fc1e5d4aa10b9f381a52ede785c0c11",
      "vout": 1,
      "prevout": {
        "scriptpubkey": "00144e8827a6fe27e25d66eb6bd7e865d79a77c05ab6",
        "scriptpubkey_asm": "OP_0 OP_PUSHBYTES_20 4e8827a6fe27e25d66eb6bd7e865d79a77c05ab6",
        "scriptpubkey_type": "v0_p2wpkh",
        "scriptpubkey_address": "bc1qf6yz0fh7yl396ehtd0t7sewhnfmuqk4khzhl6q",
        "value": 915108
      },
      "scriptsig": "",
      "scriptsig_asm": "",
      "witness": [
        "3045022100aec9f463dc1f0db018667d51732bf68b65db53ba35ac26ded09279989a4b26ab0220617d3f21b5c6bee79ee7536d8f56502a9a3f451291f6cbef5fe3c61d3d9e30a501",
        "0389e72c47e24f2ed4e4c870b759291da56ce80c1bcad3d2389b4c64814ff96e00"
      ],
      "is_coinbase": false,
      "sequence": 4294967295
    }
  ],
  "vout": [
    {
      "scriptpubkey": "00144e8827a6fe27e25d66eb6bd7e865d79a77c05ab6",
      "scriptpubkey_asm": "OP_0 OP_PUSHBYTES_20 4e8827a6fe27e25d66eb6bd7e865d79a77c05ab6",
      "scriptpubkey_type": "v0_p2wpkh",
      "scriptpubkey_address": "bc1qf6yz0fh7yl396ehtd0t7sewhnfmuqk4khzhl6q",
      "value": 220646
    },
    {
      "scriptpubkey": "a914e13c63ce9789746e33e64a2ddad096146dca0df987",
      "scriptpubkey_asm": "OP_HASH160 OP_PUSHBYTES_20 e13c63ce9789746e33e64a2ddad096146dca0df9 OP_EQUAL",
      "scriptpubkey_type": "p2sh",
      "scriptpubkey_address": "3NDxJffPn9LnimKR6mmSknzQ2AjKf2ZQAz",
      "value": 692534
    }
  ],
  "size": 224,
  "weight": 566,
  "fee": 1928,
  "status": {
    "confirmed": true,
    "block_height": 834460,
    "block_hash": "00000000000000000000484a79b643b2524bbce82e5d8a442013fa5b8905ed98",
    "block_time": 1710307468
  },
  "hex": "02000000000101110c5c78de2ea581f3b910aad4e5c16f85178f200d9b226ce7efc7ec1249b1750100000000ffffffff02e65d0300000000001600144e8827a6fe27e25d66eb6bd7e865d79a77c05ab636910a000000000017a914e13c63ce9789746e33e64a2ddad096146dca0df98702483045022100aec9f463dc1f0db018667d51732bf68b65db53ba35ac26ded09279989a4b26ab0220617d3f21b5c6bee79ee7536d8f56502a9a3f451291f6cbef5fe3c61d3d9e30a501210389e72c47e24f2ed4e4c870b759291da56ce80c1bcad3d2389b4c64814ff96e0000000000"
}