{
  "txid": "2152369bb55306c2662ef31e432878b4a7d9cef62ebabf310301e965da618370",
  "version": 1,
  "locktime": 0,
  "vin": [
    {
      "txid": "f3c74090ee9792c9f21760a895fc65bd0b4af0f5e5dbb4cc5646e41a7d16c6ee",
      "vout": 8,
      "prevout": {
        "scriptpubkey": "0014cff58c8f62fb3e3cdfa956b0c0c36495a1033cf7",
        "scriptpubkey_asm": "OP_0 OP_PUSHBYTES_20 cff58c8f62fb3e3cdfa956b0c0c36495a1033cf7",
        "scriptpubkey_type": "v0_p2wpkh",
        "scriptpubkey_address": "bc1qel6cermzlvlrehaf26cvpsmyjkssx08hwnpye8",
        "value": 274129
      },
      "scriptsig": "",
      "scriptsig_asm": "",
      "witness": [
        "3045022100b0d1cfebd13a1461c7a0d2a822322c8ffdfe8a638788642ac67410a26b4154d90220779a9b6210890073fcd0583f4f5dd35480e9251183f3ae38fad9ed1e3442800901",
        "03a1400b638ca92642bbc6ece135a3a10109694e9d73be2037355b40dcb61e0d52"
      ],
      "is_coinbase": false,
      "sequence": 4294967295
    }
  ],
  "vout": [
    {
      "scriptpubkey": "a9148c4ee6cd76d6e2fc10ef98d96c7725f6fbb24d6287",
      "scriptpubkey_asm": "OP_HASH160 OP_PUSHBYTES_20 8c4ee6cd76d6e2fc10ef98d96c7725f6fbb24d62 OP_EQUAL",
      "scriptpubkey_type": "p2sh",
      "scriptpubkey_address": "3EUu3aSb3BGrBPD7d1fYm3rKQQ2EPuYb6m",
      "value": 40901
    },
    {
      "scriptpubkey": "0014cff58c8f62fb3e3cdfa956b0c0c36495a1033cf7",
      "scriptpubkey_asm": "OP_0 OP_PUSHBYTES_20 cff58c8f62fb3e3cdfa956b0c0c36495a1033cf7",
      "scriptpubkey_type": "v0_p2wpkh",
      "scriptpubkey_address": "bc1qel6cermzlvlrehaf26cvpsmyjkssx08hwnpye8",
      "value": 229394
    }
  ],
  "size": 224,
  "weight": 566,
  "fee": 3834,
  "status": {
    "confirmed": true,
    "block_height": 834638,
    "block_hash": "000000000000000000025f742c626208ac87e0b7d15054abb4a19ca2d735a54e",
    "block_time": 1710405325
  },
  "hex": "01000000000101eec6167d1ae44656ccb4dbe5f5f04a0bbd65fc95a86017f2c99297ee9040c7f30800000000ffffffff02c59f00000000000017a9148c4ee6cd76d6e2fc10ef98d96c7725f6fbb24d62871280030000000000160014cff58c8f62fb3e3cdfa956b0c0c36495a1033cf702483045022100b0d1cfebd13a1461c7a0d2a822322c8ffdfe8a638788642ac67410a26b4154d90220779a9b6210890073fcd0583f4f5dd35480e9251183f3ae38fad9ed1e34428009012103a1400b638ca92642bbc6ece135a3a10109694e9d73be2037355b40dcb61e0d5200000000"
}