{
  "txid": "21681215f73c0be304cbb2ad40f52c42743b8c3f11d365a6b7547ab69647dd08",
  "version": 2,
  "locktime": 0,
  "vin": [
    {
      "txid": "6a5fead3d8b1db3dbcb5c4ae9856942851a9c876a6260ec979e4d25a8cbfbfeb",
      "vout": 3,
      "prevout": {
        "scriptpubkey": "512075fdbb324cf8c75158598a0a0badad2719d321ede8611bd17cd68ee523b10d0d",
        "scriptpubkey_asm": "OP_PUSHNUM_1 OP_PUSHBYTES_32 75fdbb324cf8c75158598a0a0badad2719d321ede8611bd17cd68ee523b10d0d",
        "scriptpubkey_type": "v1_p2tr",
        "scriptpubkey_address": "bc1pwh7mkvjvlrr4zkze3g9qhtddyuvaxg0daps3h5tu668w2ga3p5xsh04zw0",
        "value": 600
      },
      "scriptsig": "",
      "scriptsig_asm": "",
      "witness": [
        "d07e12f4624398232f41a104dfc1bed4c390a1da2a685ffc23e52f72dac00a3ee34ec4036b58eb89b4f1d32f9a8002e361b47c61731bfb618b4dcb012c5b7392"
      ],
      "is_coinbase": false,
      "sequence": 4294967295
    },
    {
      "txid": "6a5fead3d8b1db3dbcb5c4ae9856942851a9c876a6260ec979e4d25a8cbfbfeb",
      "vout": 4,
      "prevout": {
        "scriptpubkey": "512075fdbb324cf8c75158598a0a0badad2719d321ede8611bd17cd68ee523b10d0d",
        "scriptpubkey_asm": "OP_PUSHNUM_1 OP_PUSHBYTES_32 75fdbb324cf8c75158598a0a0badad2719d321ede8611bd17cd68ee523b10d0d",
        "scriptpubkey_type": "v1_p2tr",
        "scriptpubkey_address": "bc1pwh7mkvjvlrr4zkze3g9qhtddyuvaxg0daps3h5tu668w2ga3p5xsh04zw0",
        "value": 600
      },
      "scriptsig": "",
      "scriptsig_asm": "",
      "witness": [
        "74639ab3e01e1f1b0f126dc10513f42db9d644292f1a83c3edcdaa387bfd1df3b4a65c779a2431d838be07c38a95d44c925db8960318dcec2e64a6d8b7e92773"
      ],
      "is_coinbase": false,
      "sequence": 4294967295
    },
    {
      "txid": "1aef40c65fd6557ed8ae8d01c97acdf074c2b46c2466f0a20a8b21b135c854fc",
      "vout": 0,
      "prevout": {
        "scriptpubkey": "51203be0eaf114a03c1adfb4442d57b54b80804f63336aca4b4369ace0e10860a1f7",
        "scriptpubkey_asm": "OP_PUSHNUM_1 OP_PUSHBYTES_32 3be0eaf114a03c1adfb4442d57b54b80804f63336aca4b4369ace0e10860a1f7",
        "scriptpubkey_type": "v1_p2tr",
        "scriptpubkey_address": "bc1p80sw4ug55q7p4ha5gsk40d2tszqy7cendt9yksmf4nswzzrq58msp6t7qe",
        "value": 546
      },
      "scriptsig": "",
      "scriptsig_asm": "",
      "witness": [
        "ba9e2dacd035e9d616fd2b1b86113d46a16424ff30700cf2e426c5a8840188f054cfbb676b4b4fdb7b97dfca5b1751ac49e567e3a0e2ffaf783d20324b6cb05a83"
      ],
      "is_coinbase": false,
      "sequence": 4294967295
    },
    {
      "txid": "6a5fead3d8b1db3dbcb5c4ae9856942851a9c876a6260ec979e4d25a8cbfbfeb",
      "vout": 5,
      "prevout": {
        "scriptpubkey": "512075fdbb324cf8c75158598a0a0badad2719d321ede8611bd17cd68ee523b10d0d",
        "scriptpubkey_asm": "OP_PUSHNUM_1 OP_PUSHBYTES_32 75fdbb324cf8c75158598a0a0badad2719d321ede8611bd17cd68ee523b10d0d",
        "scriptpubkey_type": "v1_p2tr",
        "scriptpubkey_address": "bc1pwh7mkvjvlrr4zkze3g9qhtddyuvaxg0daps3h5tu668w2ga3p5xsh04zw0",
        "value": 808422
      },
      "scriptsig": "",
      "scriptsig_asm": "",
      "witness": [
        "2029080247721fda086a3bb11ee55f35e841818e1764392b126df52bfb2c64d6cf5e5441ed896cd87266aceef5ff478a5ca711e719560ad164fd1bd39ff1b2c6"
      ],
      "is_coinbase": false,
      "sequence": 4294967295
    }
  ],
  "vout": [
    {
      "scriptpubkey": "512075fdbb324cf8c75158598a0a0badad2719d321ede8611bd17cd68ee523b10d0d",
      "scriptpubkey_asm": "OP_PUSHNUM_1 OP_PUSHBYTES_32 75fdbb324cf8c75158598a0a0badad2719d321ede8611bd17cd68ee523b10d0d",
      "scriptpubkey_type": "v1_p2tr",
      "scriptpubkey_address": "bc1pwh7mkvjvlrr4zkze3g9qhtddyuvaxg0daps3h5tu668w2ga3p5xsh04zw0",
      "value": 1200
    },
    {
      "scriptpubkey": "512075fdbb324cf8c75158598a0a0badad2719d321ede8611bd17cd68ee523b10d0d",
      "scriptpubkey_asm": "OP_PUSHNUM_1 OP_PUSHBYTES_32 75fdbb324cf8c75158598a0a0badad2719d321ede8611bd17cd68ee523b10d0d",
      "scriptpubkey_type": "v1_p2tr",
      "scriptpubkey_address": "bc1pwh7mkvjvlrr4zkze3g9qhtddyuvaxg0daps3h5tu668w2ga3p5xsh04zw0",
      "value": 546
    },
    {
      "scriptpubkey": "51203be0eaf114a03c1adfb4442d57b54b80804f63336aca4b4369ace0e10860a1f7",
      "scriptpubkey_asm": "OP_PUSHNUM_1 OP_PUSHBYTES_32 3be0eaf114a03c1adfb4442d57b54b80804f63336aca4b4369ace0e10860a1f7",
      "scriptpubkey_type": "v1_p2tr",
      "scriptpubkey_address": "bc1p80sw4ug55q7p4ha5gsk40d2tszqy7cendt9yksmf4nswzzrq58msp6t7qe",
      "value": 655560
    },
    {
      "scriptpubkey": "512075fdbb324cf8c75158598a0a0badad2719d321ede8611bd17cd68ee523b10d0d",
      "scriptpubkey_asm": "OP_PUSHNUM_1 OP_PUSHBYTES_32 75fdbb324cf8c75158598a0a0badad2719d321ede8611bd17cd68ee523b10d0d",
      "scriptpubkey_type": "v1_p2tr",
      "scriptpubkey_address": "bc1pwh7mkvjvlrr4zkze3g9qhtddyuvaxg0daps3h5tu668w2ga3p5xsh04zw0",
      "value": 600
    },
    {
      "scriptpubkey": "512075fdbb324cf8c75158598a0a0badad2719d321ede8611bd17cd68ee523b10d0d",
      "scriptpubkey_asm": "OP_PUSHNUM_1 OP_PUSHBYTES_32 75fdbb324cf8c75158598a0a0badad2719d321ede8611bd17cd68ee523b10d0d",
      "scriptpubkey_type": "v1_p2tr",
      "scriptpubkey_address": "bc1pwh7mkvjvlrr4zkze3g9qhtddyuvaxg0daps3h5tu668w2ga3p5xsh04zw0",
      "value": 600
    },
    {
      "scriptpubkey": "512075fdbb324cf8c75158598a0a0badad2719d321ede8611bd17cd68ee523b10d0d",
      "scriptpubkey_asm": "OP_PUSHNUM_1 OP_PUSHBYTES_32 75fdbb324cf8c75158598a0a0badad2719d321ede8611bd17cd68ee523b10d0d",
      "scriptpubkey_type": "v1_p2tr",
      "scriptpubkey_address": "bc1pwh7mkvjvlrr4zkze3g9qhtddyuvaxg0daps3h5tu668w2ga3p5xsh04zw0",
      "value": 144177
    }
  ],
  "size": 699,
  "weight": 1995,
  "fee": 7485,
  "status": {
    "confirmed": true,
    "block_height": 834638,
    "block_hash": "000000000000000000025f742c626208ac87e0b7d15054abb4a19ca2d735a54e",
    "block_time": 1710405325
  },
  "hex": "02000000000104ebbfbf8c5ad2e479c90e26a676c8a95128945698aec4b5bc3ddbb1d8d3ea5f6a0300000000ffffffffebbfbf8c5ad2e479c90e26a676c8a95128945698aec4b5bc3ddbb1d8d3ea5f6a0400000000fffffffffc54c835b1218b0aa2f066246cb4c274f0cd7ac9018daed87e55d65fc640ef1a0000000000ffffffffebbfbf8c5ad2e479c90e26a676c8a95128945698aec4b5bc3ddbb1d8d3ea5f6a0500000000ffffffff06b00400000000000022512075fdbb324cf8c75158598a0a0badad2719d321ede8611bd17cd68ee523b10d0d220200000000000022512075fdbb324cf8c75158598a0a0badad2719d321ede8611bd17cd68ee523b10d0dc8000a00000000002251203be0eaf114a03c1adfb4442d57b54b80804f63336aca4b4369ace0e10860a1f7580200000000000022512075fdbb324cf8c75158598a0a0badad2719d321ede8611bd17cd68ee523b10d0d580200000000000022512075fdbb324cf8c75158598a0a0badad2719d321ede8611bd17cd68ee523b10d0d313302000000000022512075fdbb324cf8c75158598a0a0badad2719d321ede8611bd17cd68ee523b10d0d0140d07e12f4624398232f41a104dfc1bed4c390a1da2a685ffc23e52f72dac00a3ee34ec4036b58eb89b4f1d32f9a8002e361b47c61731bfb618b4dcb012c5b7392014074639ab3e01e1f1b0f126dc10513f42db9d644292f1a83c3edcdaa387bfd1df3b4a65c779a2431d838be07c38a95d44c925db8960318dcec2e64a6d8b7e927730141ba9e2dacd035e9d616fd2b1b86113d46a16424ff30700cf2e426c5a8840188f054cfbb676b4b4fdb7b97dfca5b1751ac49e567e3a0e2ffaf783d20324b6cb05a8301402029080247721fda086a3bb11ee55f35e841818e1764392b126df52bfb2c64d6cf5e5441ed896cd87266aceef5ff478a5ca711e719560ad164fd1bd39ff1b2c600000000"
}