{
  "txid": "216ce8b3c09534be463fb016d58832e5c4eb1bd2d0ad775007b22b7335fd24c4",
  "version": 2,
  "locktime": 0,
  "vin": [
    {
      "txid": "e72fabaabb7e5aea653f239002d8b5e1bdd6666bd135c88d5d0f696ee42df3fb",
      "vout": 0,
      "prevout": {
        "scriptpubkey": "5120ad2f454063c07edc0f20890ac09e93c284f3adf33ab068d2de3fb64d82478d37",
        "scriptpubkey_asm": "OP_PUSHNUM_1 OP_PUSHBYTES_32 ad2f454063c07edc0f20890ac09e93c284f3adf33ab068d2de3fb64d82478d37",
        "scriptpubkey_type": "v1_p2tr",
        "scriptpubkey_address": "bc1p45h52srrcpldcreq3y9vp85nc2z08t0n82cx35k787mymqj835mskywupp",
        "value": 546
      },
      "scriptsig": "",
      "scriptsig_asm": "",
      "witness": [
        "b12a0db322ec8b24ec2cad887e74054a3b15d20c3420bdb736b8298d0e1ac0ffef434c7153e7dd3e729c937a40adc205fe132a77203962479fef14a3c3b83111"
      ],
      "is_coinbase": false,
      "sequence": 2147483649
    },
    {
      "txid": "4f87597618e8638aaa4df04c7e4b5e4d3ed541a2cd970f6326c0ae6c34d4e3f2",
      "vout": 1,
      "prevout": {
        "scriptpubkey": "5120ad2f454063c07edc0f20890ac09e93c284f3adf33ab068d2de3fb64d82478d37",
        "scriptpubkey_asm": "OP_PUSHNUM_1 OP_PUSHBYTES_32 ad2f454063c07edc0f20890ac09e93c284f3adf33ab068d2de3fb64d82478d37",
        "scriptpubkey_type": "v1_p2tr",
        "scriptpubkey_address": "bc1p45h52srrcpldcreq3y9vp85nc2z08t0n82cx35k787mymqj835mskywupp",
        "value": 305524
      },
      "scriptsig": "",
      "scriptsig_asm": "",
      "witness": [
        "b4a8f68eebf4fab6fc7d02dd690ab96beabbe3ecdf8d87660db30bf9ff1b62a0347f578f7ea13b6549a5fb9dadcc73dfc94e32cb5f9cc457a6ee3be85965773d"
      ],
      "is_coinbase": false,
      "sequence": 2147483649
    }
  ],
  "vout": [
    {
      "scriptpubkey": "51208bfe8fb86c9e90b1c18954d9d3addcf9ac3c5e6db83319050a326e2942863216",
      "scriptpubkey_asm": "OP_PUSHNUM_1 OP_PUSHBYTES_32 8bfe8fb86c9e90b1c18954d9d3addcf9ac3c5e6db83319050a326e2942863216",
      "scriptpubkey_type": "v1_p2tr",
      "scriptpubkey_address": "bc1p30lglwrvn6gtrsvf2nva8twulxkrchndhqe3jpg2xfhzjs5xxgtqcq7994",
      "value": 546
    },
    {
      "scriptpubkey": "5120ad2f454063c07edc0f20890ac09e93c284f3adf33ab068d2de3fb64d82478d37",
      "scriptpubkey_asm": "OP_PUSHNUM_1 OP_PUSHBYTES_32 ad2f454063c07edc0f20890ac09e93c284f3adf33ab068d2de3fb64d82478d37",
      "scriptpubkey_type": "v1_p2tr",
      "scriptpubkey_address": "bc1p45h52srrcpldcreq3y9vp85nc2z08t0n82cx35k787mymqj835mskywupp",
      "value": 302359
    }
  ],
  "size": 312,
  "weight": 846,
  "fee": 3165,
  "status": {
    "confirmed": true,
    "block_height": 834638,
    "block_hash": "000000000000000000025f742c626208ac87e0b7d15054abb4a19ca2d735a54e",
    "block_time": 1710405325
  },
  "hex": "02000000000102fbf32de46e690f5d8dc835d16b66d6bde1b5d80290233f65ea5a7ebbaaab2fe7000000000001000080f2e3d4346caec026630f97cda241d53e4d5e4b7e4cf04daa8a63e8187659874f0100000000010000800222020000000000002251208bfe8fb86c9e90b1c18954d9d3addcf9ac3c5e6db83319050a326e2942863216179d040000000000225120ad2f454063c07edc0f20890ac09e93c284f3adf33ab068d2de3fb64d82478d370140b12a0db322ec8b24ec2cad887e74054a3b15d20c3420bdb736b8298d0e1ac0ffef434c7153e7dd3e729c937a40adc205fe132a77203962479fef14a3c3b831110140b4a8f68eebf4fab6fc7d02dd690ab96beabbe3ecdf8d87660db30bf9ff1b62a0347f578f7ea13b6549a5fb9dadcc73dfc94e32cb5f9cc457a6ee3be85965773d00000000"
}