{
  "txid": "216e83ee1fe7abc8d89c1b0816ad2447ee9f76acece04aeb004f59b4b21468d1",
  "version": 2,
  "locktime": 0,
  "vin": [
    {
      "txid": "3cf6df85536515c0d91b69207d06ad5fa8951a675897f21f2531eb396ccbf03f",
      "vout": 1,
      "prevout": {
        "scriptpubkey": "512017792fcdf806a9c9907b0fd889678aa0e133c82c7cf44166bb738b9a81ceb7c4",
        "scriptpubkey_asm": "OP_PUSHNUM_1 OP_PUSHBYTES_32 17792fcdf806a9c9907b0fd889678aa0e133c82c7cf44166bb738b9a81ceb7c4",
        "scriptpubkey_type": "v1_p2tr",
        "scriptpubkey_address": "bc1pzaujln0cq65unyrmplvgjeu25rsn8jpv0n6yze4mww9e4qwwklzqvjd005",
        "value": 46973
      },
      "scriptsig": "",
      "scriptsig_asm": "",
      "witness": [
        "e3614bb2c832e162234896200327b0668f14c52f6bfe8de2c09c48d684b1204c78e96c6681699e863785f11f5e60d32025e28523f96d759809231eae192a2f56"
      ],
      "is_coinbase": false,
      "sequence": 4294967293
    }
  ],
  "vout": [
    {
      "scriptpubkey": "51200f5a0a89ef97dfc670fe064c4d1179e77745f5864c42c026bffeedbe07282edf",
      "scriptpubkey_asm": "OP_PUSHNUM_1 OP_PUSHBYTES_32 0f5a0a89ef97dfc670fe064c4d1179e77745f5864c42c026bffeedbe07282edf",
      "scriptpubkey_type": "v1_p2tr",
      "scriptpubkey_address": "bc1ppadq4z00jl0uvu87qexy6yteuam5tavxf3pvqf4llmkmupeg9m0slswcwf",
      "value": 2826
    },
    {
      "scriptpubkey": "512017792fcdf806a9c9907b0fd889678aa0e133c82c7cf44166bb738b9a81ceb7c4",
      "scriptpubkey_asm": "OP_PUSHNUM_1 OP_PUSHBYTES_32 17792fcdf806a9c9907b0fd889678aa0e133c82c7cf44166bb738b9a81ceb7c4",
      "scriptpubkey_type": "v1_p2tr",
      "scriptpubkey_address": "bc1pzaujln0cq65unyrmplvgjeu25rsn8jpv0n6yze4mww9e4qwwklzqvjd005",
      "value": 41837
    }
  ],
  "size": 205,
  "weight": 616,
  "fee": 2310,
  "status": {
    "confirmed": true,
    "block_height": 834638,
    "block_hash": "000000000000000000025f742c626208ac87e0b7d15054abb4a19ca2d735a54e",
    "block_time": 1710405325
  },
  "hex": "020000000001013ff0cb6c39eb31251ff29758671a95a85fad067d20691bd9c015655385dff63c0100000000fdffffff020a0b0000000000002251200f5a0a89ef97dfc670fe064c4d1179e77745f5864c42c026bffeedbe07282edf6da300000000000022512017792fcdf806a9c9907b0fd889678aa0e133c82c7cf44166bb738b9a81ceb7c40140e3614bb2c832e162234896200327b0668f14c52f6bfe8de2c09c48d684b1204c78e96c6681699e863785f11f5e60d32025e28523f96d759809231eae192a2f5600000000"
}