{
  "txid": "217867a517b1f8187d8fd94172d4e40289d14043c9df828ff81eb099fb8998d7",
  "version": 1,
  "locktime": 0,
  "vin": [
    {
      "txid": "23fdbdb2cd720904c021d59cd2b4be1dd0d7fdff715afbcb30744668b843216b",
      "vout": 1,
      "prevout": {
        "scriptpubkey": "0014b2f5c869546ea9eb5ba43527f26bb9a41e667218",
        "scriptpubkey_asm": "OP_0 OP_PUSHBYTES_20 b2f5c869546ea9eb5ba43527f26bb9a41e667218",
        "scriptpubkey_type": "v0_p2wpkh",
        "scriptpubkey_address": "bc1qkt6us625d657kkayx5nly6ae5s0xvusca2gjcu",
        "value": 265192
      },
      "scriptsig": "",
      "scriptsig_asm": "",
      "witness": [
        "3045022100a18171ae2d49e4adcfea9bcef9583985c944863730265fcfe214280d473f5ff6022025ef857bdbd21a9db3d46cac5bb023fc564569a3f1fa61615b5b2cb7e968504d01",
        "038b66b86deb3d4ab02d5116a714f500307758fcfd9813de75dac4258fba19e1ff"
      ],
      "is_coinbase": false,
      "sequence": 4294967295
    },
    {
      "txid": "bde3d22986a6cdeaf75d2d57ee86078811c54ebc0e7ad2ee1f54c0330d989406",
      "vout": 0,
      "prevout": {
        "scriptpubkey": "00144bbf1efc9542eb743f06a43665b3889fd4062e8d",
        "scriptpubkey_asm": "OP_0 OP_PUSHBYTES_20 4bbf1efc9542eb743f06a43665b3889fd4062e8d",
        "scriptpubkey_type": "v0_p2wpkh",
        "scriptpubkey_address": "bc1qfwl3aly4gt4hg0cx5smxtvugnl2qvt5dv49wen",
        "value": 500000
      },
      "scriptsig": "",
      "scriptsig_asm": "",
      "witness": [
        "3045022100a0bb58447763df96aa08f0fd97f0e4a52eb51cd6aadb57039804a9bfe0f7b6a202201ee5365bcc7ebdbe421b7a05fab716ff14e74321b631d3da94fbf3e3b3de67cc01",
        "02486dd4464961b72598841f43a3c208bcbedec6671f680824e0e95f9b2408206a"
      ],
      "is_coinbase": false,
      "sequence": 4294967295
    }
  ],
  "vout": [
    {
      "scriptpubkey": "76a914218b1b85db82d9eb0bef3e3492e9bb79c87f3c8188ac",
      "scriptpubkey_asm": "OP_DUP OP_HASH160 OP_PUSHBYTES_20 218b1b85db82d9eb0bef3e3492e9bb79c87f3c81 OP_EQUALVERIFY OP_CHECKSIG",
      "scriptpubkey_type": "p2pkh",
      "scriptpubkey_address": "144Mwh1Fm8cVF3mYoCgXEqijXAsAoxGu5i",
      "value": 681000
    },
    {
      "scriptpubkey": "0014198e222bedf7fa0e6351081996f6dd869447c780",
      "scriptpubkey_asm": "OP_0 OP_PUSHBYTES_20 198e222bedf7fa0e6351081996f6dd869447c780",
      "scriptpubkey_type": "v0_p2wpkh",
      "scriptpubkey_address": "bc1qrx8zy2ld7laquc63pqvedakas62y03uqf08jlz",
      "value": 81033
    }
  ],
  "size": 375,
  "weight": 846,
  "fee": 3159,
  "status": {
    "confirmed": true,
    "block_height": 834638,
    "block_hash": "000000000000000000025f742c626208ac87e0b7d15054abb4a19ca2d735a54e",
    "block_time": 1710405325
  },
  "hex": "010000000001026b2143b868467430cbfb5a71fffdd7d01dbeb4d29cd521c0040972cdb2bdfd230100000000ffffffff0694980d33c0541feed27a0ebc4ec511880786ee572d5df7eacda68629d2e3bd0000000000ffffffff0228640a00000000001976a914218b1b85db82d9eb0bef3e3492e9bb79c87f3c8188ac893c010000000000160014198e222bedf7fa0e6351081996f6dd869447c78002483045022100a18171ae2d49e4adcfea9bcef9583985c944863730265fcfe214280d473f5ff6022025ef857bdbd21a9db3d46cac5bb023fc564569a3f1fa61615b5b2cb7e968504d0121038b66b86deb3d4ab02d5116a714f500307758fcfd9813de75dac4258fba19e1ff02483045022100a0bb58447763df96aa08f0fd97f0e4a52eb51cd6aadb57039804a9bfe0f7b6a202201ee5365bcc7ebdbe421b7a05fab716ff14e74321b631d3da94fbf3e3b3de67cc012102486dd4464961b72598841f43a3c208bcbedec6671f680824e0e95f9b2408206a00000000"
}