{
  "txid": "217ee161fa60f64ca4261bd85212cb45e29365773117f1be89fe6a4cdd943382",
  "version": 2,
  "locktime": 0,
  "vin": [
    {
      "txid": "12848a1f84ad552475e874cce291926f292412de23b7537898e98c7370f2e86c",
      "vout": 20,
      "prevout": {
        "scriptpubkey": "5120462bf816c92344350b8c27d741216d359f72271853c2897af458c7e741421fb2",
        "scriptpubkey_asm": "OP_PUSHNUM_1 OP_PUSHBYTES_32 462bf816c92344350b8c27d741216d359f72271853c2897af458c7e741421fb2",
        "scriptpubkey_type": "v1_p2tr",
        "scriptpubkey_address": "bc1pgc4ls9kfydzr2zuvylt5zgtdxk0hyfcc20pgj7h5trr7ws2zr7eqqr9622",
        "value": 2358
      },
      "scriptsig": "",
      "scriptsig_asm": "",
      "witness": [
        "d840f61478e077b3ec97659b88e18d0fbb46a5758929185698e8acdc910551597eba73073fb5e13fac01c43138268b659899ba767d61589f0df99145d074a503",
        "20b75716733dff4285fee81aca71cefc8bfa8839e1e265444675d93f7fc710b329ac0063036f7264010118746578742f706c61696e3b636861727365743d7574662d3800377b2270223a226272632d3230222c226f70223a226d696e74222c227469636b223a22424f424f222c22616d74223a22313030303030227d68",
        "c1507504f881a2548efcb0bd8b5287fd78c473d5bd35b181abdd5c5cd6d10de204"
      ],
      "is_coinbase": false,
      "sequence": 4294967295
    }
  ],
  "vout": [
    {
      "scriptpubkey": "512048d62e6aa4ce9b4b4d760b1dc0c3e46b46d84be76ae456792a664139e7aaa19c",
      "scriptpubkey_asm": "OP_PUSHNUM_1 OP_PUSHBYTES_32 48d62e6aa4ce9b4b4d760b1dc0c3e46b46d84be76ae456792a664139e7aaa19c",
      "scriptpubkey_type": "v1_p2tr",
      "scriptpubkey_address": "bc1pfrtzu64ye6d5kntkpvwupslyddrdsjl8dtj9v7f2veqnnea25xwqu8ycu4",
      "value": 546
    }
  ],
  "size": 322,
  "weight": 604,
  "fee": 1812,
  "status": {
    "confirmed": true,
    "block_height": 834460,
    "block_hash": "00000000000000000000484a79b643b2524bbce82e5d8a442013fa5b8905ed98",
    "block_time": 1710307468
  },
  "hex": "020000000001016ce8f270738ce9987853b723de1224296f9291e2cc74e8752455ad841f8a84121400000000ffffffff01220200000000000022512048d62e6aa4ce9b4b4d760b1dc0c3e46b46d84be76ae456792a664139e7aaa19c0340d840f61478e077b3ec97659b88e18d0fbb46a5758929185698e8acdc910551597eba73073fb5e13fac01c43138268b659899ba767d61589f0df99145d074a5037d20b75716733dff4285fee81aca71cefc8bfa8839e1e265444675d93f7fc710b329ac0063036f7264010118746578742f706c61696e3b636861727365743d7574662d3800377b2270223a226272632d3230222c226f70223a226d696e74222c227469636b223a22424f424f222c22616d74223a22313030303030227d6821c1507504f881a2548efcb0bd8b5287fd78c473d5bd35b181abdd5c5cd6d10de20400000000"
}