{
  "txid": "218b089e70b2a495c56915dad7a55a9a3c7c729fcf4a45ac48fe8036500929bf",
  "version": 2,
  "locktime": 0,
  "vin": [
    {
      "txid": "b07fe4bffbea495954aed1b7572e2118371de4b618e507fa447735f259c691e5",
      "vout": 0,
      "prevout": {
        "scriptpubkey": "001483bb5251c6f26a8d3ae413a4841eed3eb70fca36",
        "scriptpubkey_asm": "OP_0 OP_PUSHBYTES_20 83bb5251c6f26a8d3ae413a4841eed3eb70fca36",
        "scriptpubkey_type": "v0_p2wpkh",
        "scriptpubkey_address": "bc1qswa4y5wx7f4g6whyzwjgg8hd86mslj3kff08he",
        "value": 550
      },
      "scriptsig": "",
      "scriptsig_asm": "",
      "witness": [
        "3045022100bab97a799964d0d3366efa55e36b9809db38a87250932eaa8055f9517e9929bb02201e535729d45680167593fc0c03e07cb76e67d6e69195529c3719b2574ab8e66901",
        "0359906ab8e37e58f6b07168e0fb79f4a10b73367fad636a6035ccffabe8a06558"
      ],
      "is_coinbase": false,
      "sequence": 4294967295
    },
    {
      "txid": "51ccf2b279756b2495519a75b15a5f35800d143b4f82d5a7b88c7990fafe63dd",
      "vout": 0,
      "prevout": {
        "scriptpubkey": "001483bb5251c6f26a8d3ae413a4841eed3eb70fca36",
        "scriptpubkey_asm": "OP_0 OP_PUSHBYTES_20 83bb5251c6f26a8d3ae413a4841eed3eb70fca36",
        "scriptpubkey_type": "v0_p2wpkh",
        "scriptpubkey_address": "bc1qswa4y5wx7f4g6whyzwjgg8hd86mslj3kff08he",
        "value": 550
      },
      "scriptsig": "",
      "scriptsig_asm": "",
      "witness": [
        "304402207c8aa19e4b9f5cf6ebcb085f6aab4bff13108de3e8ec8d27d30c910505441ac502202464051c9a7d5f951cfaf84bd9b926c8f3d85b9230990089be6257d156ea086201",
        "0359906ab8e37e58f6b07168e0fb79f4a10b73367fad636a6035ccffabe8a06558"
      ],
      "is_coinbase": false,
      "sequence": 4294967295
    },
    {
      "txid": "d4d1ddbf42ba7f4763cbc69886963dff53638988b2068b96bde561a7d9b63aa9",
      "vout": 0,
      "prevout": {
        "scriptpubkey": "001483bb5251c6f26a8d3ae413a4841eed3eb70fca36",
        "scriptpubkey_asm": "OP_0 OP_PUSHBYTES_20 83bb5251c6f26a8d3ae413a4841eed3eb70fca36",
        "scriptpubkey_type": "v0_p2wpkh",
        "scriptpubkey_address": "bc1qswa4y5wx7f4g6whyzwjgg8hd86mslj3kff08he",
        "value": 26579
      },
      "scriptsig": "",
      "scriptsig_asm": "",
      "witness": [
        "30450221009456ddbe4ef44034a861b249439de39fe5aed5c6bd6cfddeac5af24438c53fbd0220460ce54d52834abcbca75c53e872566a06b1fd3c1d23c52846b2d956e0eb7cbf01",
        "0359906ab8e37e58f6b07168e0fb79f4a10b73367fad636a6035ccffabe8a06558"
      ],
      "is_coinbase": false,
      "sequence": 4294967295
    }
  ],
  "vout": [
    {
      "scriptpubkey": "001483bb5251c6f26a8d3ae413a4841eed3eb70fca36",
      "scriptpubkey_asm": "OP_0 OP_PUSHBYTES_20 83bb5251c6f26a8d3ae413a4841eed3eb70fca36",
      "scriptpubkey_type": "v0_p2wpkh",
      "scriptpubkey_address": "bc1qswa4y5wx7f4g6whyzwjgg8hd86mslj3kff08he",
      "value": 550
    },
    {
      "scriptpubkey": "001483bb5251c6f26a8d3ae413a4841eed3eb70fca36",
      "scriptpubkey_asm": "OP_0 OP_PUSHBYTES_20 83bb5251c6f26a8d3ae413a4841eed3eb70fca36",
      "scriptpubkey_type": "v0_p2wpkh",
      "scriptpubkey_address": "bc1qswa4y5wx7f4g6whyzwjgg8hd86mslj3kff08he",
      "value": 2845
    },
    {
      "scriptpubkey": "6a20f78ec62ab826b432548123b56563ce8331312b7abec91d0c385e206edbeebdcf",
      "scriptpubkey_asm": "OP_RETURN OP_PUSHBYTES_32 f78ec62ab826b432548123b56563ce8331312b7abec91d0c385e206edbeebdcf",
      "scriptpubkey_type": "op_return",
      "value": 0
    },
    {
      "scriptpubkey": "001483bb5251c6f26a8d3ae413a4841eed3eb70fca36",
      "scriptpubkey_asm": "OP_0 OP_PUSHBYTES_20 83bb5251c6f26a8d3ae413a4841eed3eb70fca36",
      "scriptpubkey_type": "v0_p2wpkh",
      "scriptpubkey_address": "bc1qswa4y5wx7f4g6whyzwjgg8hd86mslj3kff08he",
      "value": 15359
    }
  ],
  "size": 594,
  "weight": 1401,
  "fee": 8925,
  "status": {
    "confirmed": true,
    "block_height": 834638,
    "block_hash": "000000000000000000025f742c626208ac87e0b7d15054abb4a19ca2d735a54e",
    "block_time": 1710405325
  },
  "hex": "02000000000103e591c659f2357744fa07e518b6e41d3718212e57b7d1ae545949eafbbfe47fb00000000000ffffffffdd63fefa90798cb8a7d5824f3b140d80355f5ab1759a5195246b7579b2f2cc510000000000ffffffffa93ab6d9a761e5bd968b06b288896353ff3d968698c6cb63477fba42bfddd1d40000000000ffffffff04260200000000000016001483bb5251c6f26a8d3ae413a4841eed3eb70fca361d0b00000000000016001483bb5251c6f26a8d3ae413a4841eed3eb70fca360000000000000000226a20f78ec62ab826b432548123b56563ce8331312b7abec91d0c385e206edbeebdcfff3b00000000000016001483bb5251c6f26a8d3ae413a4841eed3eb70fca3602483045022100bab97a799964d0d3366efa55e36b9809db38a87250932eaa8055f9517e9929bb02201e535729d45680167593fc0c03e07cb76e67d6e69195529c3719b2574ab8e66901210359906ab8e37e58f6b07168e0fb79f4a10b73367fad636a6035ccffabe8a065580247304402207c8aa19e4b9f5cf6ebcb085f6aab4bff13108de3e8ec8d27d30c910505441ac502202464051c9a7d5f951cfaf84bd9b926c8f3d85b9230990089be6257d156ea086201210359906ab8e37e58f6b07168e0fb79f4a10b73367fad636a6035ccffabe8a06558024830450221009456ddbe4ef44034a861b249439de39fe5aed5c6bd6cfddeac5af24438c53fbd0220460ce54d52834abcbca75c53e872566a06b1fd3c1d23c52846b2d956e0eb7cbf01210359906ab8e37e58f6b07168e0fb79f4a10b73367fad636a6035ccffabe8a0655800000000"
}