{
  "txid": "219f3b922ac3fa2735f437d6542a26b7d744ac8899b53cb50e7f059ebe1c2960",
  "version": 2,
  "locktime": 0,
  "vin": [
    {
      "txid": "81e8a3f4f664515ed67dd41e6a72f2166986ce7aa915100684562acdb33747af",
      "vout": 6,
      "prevout": {
        "scriptpubkey": "001430eb2b3bddab4ce0a1d32acc3dd025e426d3dd5f",
        "scriptpubkey_asm": "OP_0 OP_PUSHBYTES_20 30eb2b3bddab4ce0a1d32acc3dd025e426d3dd5f",
        "scriptpubkey_type": "v0_p2wpkh",
        "scriptpubkey_address": "bc1qxr4jkw7a4dxwpgwn9txrm5p9usnd8h2lpx3r08",
        "value": 63769370
      },
      "scriptsig": "",
      "scriptsig_asm": "",
      "witness": [
        "3044022074aabd3dee2092ad0dbc623468fd0811ff3a613058b69fa4b22b0fe299f69a2e02200d244de85cb89ee9865f404b8b485521fc53e5e5972f57f8ebe718e1a3fe559201",
        "039e201100c8cca000c9ac73112bf7ffc4f4023028589734b22ce4fa0f48e549c0"
      ],
      "is_coinbase": false,
      "sequence": 4294967293
    }
  ],
  "vout": [
    {
      "scriptpubkey": "0014a93300870c8d1d91852760c3235b89361f453393",
      "scriptpubkey_asm": "OP_0 OP_PUSHBYTES_20 a93300870c8d1d91852760c3235b89361f453393",
      "scriptpubkey_type": "v0_p2wpkh",
      "scriptpubkey_address": "bc1q4yesppcv35werpf8vrpjxkufxc052vunp4mv0x",
      "value": 63749569
    }
  ],
  "size": 191,
  "weight": 437,
  "fee": 19801,
  "status": {
    "confirmed": true,
    "block_height": 834638,
    "block_hash": "000000000000000000025f742c626208ac87e0b7d15054abb4a19ca2d735a54e",
    "block_time": 1710405325
  },
  "hex": "02000000000101af4737b3cd2a5684061015a97ace866916f2726a1ed47dd65e5164f6f4a3e8810600000000fdffffff01c1bdcc0300000000160014a93300870c8d1d91852760c3235b89361f45339302473044022074aabd3dee2092ad0dbc623468fd0811ff3a613058b69fa4b22b0fe299f69a2e02200d244de85cb89ee9865f404b8b485521fc53e5e5972f57f8ebe718e1a3fe55920121039e201100c8cca000c9ac73112bf7ffc4f4023028589734b22ce4fa0f48e549c000000000"
}