{
  "txid": "21a35f23ef8bb1f20bd309738445653b35794f195464d641b823416e0d220ee6",
  "version": 1,
  "locktime": 0,
  "vin": [
    {
      "txid": "caef35542b7d57ed804e2f774963540e62ebbfded44df2a7cd95bc4794b94fed",
      "vout": 5,
      "prevout": {
        "scriptpubkey": "76a9145c979e067fa5d53bf1063e746bb492999b10303388ac",
        "scriptpubkey_asm": "OP_DUP OP_HASH160 OP_PUSHBYTES_20 5c979e067fa5d53bf1063e746bb492999b103033 OP_EQUALVERIFY OP_CHECKSIG",
        "scriptpubkey_type": "p2pkh",
        "scriptpubkey_address": "19SaoCj4e1dNyTsdSbmUQ7KKs3zMfux6D7",
        "value": 4225261
      },
      "scriptsig": "473044022026fd6d18aa3e657a50a27751949969e59c9894e495ccb3ce05fb1692afb3391602207d6a5121d7598da24d8c6895465a80066580a68be41f0a7d86bd1eff9928cdf0012102e471b1184a416616706ae1ed9c0d991008d0efb3dd8b40ebf2b373ccc82e2a47",
      "scriptsig_asm": "OP_PUSHBYTES_71 3044022026fd6d18aa3e657a50a27751949969e59c9894e495ccb3ce05fb1692afb3391602207d6a5121d7598da24d8c6895465a80066580a68be41f0a7d86bd1eff9928cdf001 OP_PUSHBYTES_33 02e471b1184a416616706ae1ed9c0d991008d0efb3dd8b40ebf2b373ccc82e2a47",
      "is_coinbase": false,
      "sequence": 4294967295
    }
  ],
  "vout": [
    {
      "scriptpubkey": "a91467d2832c69040c9ec0c3b217c42a24040fc3c1e687",
      "scriptpubkey_asm": "OP_HASH160 OP_PUSHBYTES_20 67d2832c69040c9ec0c3b217c42a24040fc3c1e6 OP_EQUAL",
      "scriptpubkey_type": "p2sh",
      "scriptpubkey_address": "3B9yhxdjMfuvKVSL7Rg39AF3idVBTU5ATM",
      "value": 4221421
    }
  ],
  "size": 189,
  "weight": 756,
  "fee": 3840,
  "status": {
    "confirmed": true,
    "block_height": 834638,
    "block_hash": "000000000000000000025f742c626208ac87e0b7d15054abb4a19ca2d735a54e",
    "block_time": 1710405325
  },
  "hex": "0100000001ed4fb99447bc95cda7f24dd4debfeb620e546349772f4e80ed577d2b5435efca050000006a473044022026fd6d18aa3e657a50a27751949969e59c9894e495ccb3ce05fb1692afb3391602207d6a5121d7598da24d8c6895465a80066580a68be41f0a7d86bd1eff9928cdf0012102e471b1184a416616706ae1ed9c0d991008d0efb3dd8b40ebf2b373ccc82e2a47ffffffff01ed6940000000000017a91467d2832c69040c9ec0c3b217c42a24040fc3c1e68700000000"
}