{
  "txid": "21aed7f6bdad94bf02279e528f53c49a401a1528f79291cb7f8da7d544d1e97d",
  "version": 1,
  "locktime": 0,
  "vin": [
    {
      "txid": "96a4a6f1bebebdf825b4b0a5546d559de05d965c4484e2b40ce193bf476ba282",
      "vout": 1,
      "prevout": {
        "scriptpubkey": "00146607ce6317ded3f12a88e261323ca3f5f90796bd",
        "scriptpubkey_asm": "OP_0 OP_PUSHBYTES_20 6607ce6317ded3f12a88e261323ca3f5f90796bd",
        "scriptpubkey_type": "v0_p2wpkh",
        "scriptpubkey_address": "bc1qvcruucchmmflz25gufsny09r7hus094awtaf78",
        "value": 1570343
      },
      "scriptsig": "",
      "scriptsig_asm": "",
      "witness": [
        "3045022100b004e4a6519bb16702b6cba984c0226b1422e724fa4aa0ed036d25063e8112f2022055ce5f146291eb6361a7cecb5eb5de2298ef3fc284f2d3b35f03da2073a4c24c01",
        "03462ff0c088ddfdc6aeb6ca87cadc539b27ed2bd7a7afae99dd3a10f09bf12587"
      ],
      "is_coinbase": false,
      "sequence": 4294967295
    }
  ],
  "vout": [
    {
      "scriptpubkey": "00141ca242f8768939794b435f915b80d5e8853cbc92",
      "scriptpubkey_asm": "OP_0 OP_PUSHBYTES_20 1ca242f8768939794b435f915b80d5e8853cbc92",
      "scriptpubkey_type": "v0_p2wpkh",
      "scriptpubkey_address": "bc1qrj3y97rk3yuhjj6rt7g4hqx4azzne0yj8eqzr5",
      "value": 272200
    },
    {
      "scriptpubkey": "0014eea53cfa794bef00090a41f096cd551c1ee359e7",
      "scriptpubkey_asm": "OP_0 OP_PUSHBYTES_20 eea53cfa794bef00090a41f096cd551c1ee359e7",
      "scriptpubkey_type": "v0_p2wpkh",
      "scriptpubkey_address": "bc1qa6jne7nef0hsqzg2g8cfdn24rs0wxk08mjps6h",
      "value": 1295343
    }
  ],
  "size": 223,
  "weight": 562,
  "fee": 2800,
  "status": {
    "confirmed": true,
    "block_height": 834638,
    "block_hash": "000000000000000000025f742c626208ac87e0b7d15054abb4a19ca2d735a54e",
    "block_time": 1710405325
  },
  "hex": "0100000000010182a26b47bf93e10cb4e284445c965de09d556d54a5b0b425f8bdbebef1a6a4960100000000ffffffff0248270400000000001600141ca242f8768939794b435f915b80d5e8853cbc92efc3130000000000160014eea53cfa794bef00090a41f096cd551c1ee359e702483045022100b004e4a6519bb16702b6cba984c0226b1422e724fa4aa0ed036d25063e8112f2022055ce5f146291eb6361a7cecb5eb5de2298ef3fc284f2d3b35f03da2073a4c24c012103462ff0c088ddfdc6aeb6ca87cadc539b27ed2bd7a7afae99dd3a10f09bf1258700000000"
}