{
  "txid": "21bcd9dfc8feef98ca2aa9306fbdfd8bed0f8c2da3d6b04dce3463af1eb676be",
  "version": 1,
  "locktime": 0,
  "vin": [
    {
      "txid": "3e6152bbfa467d185f9ee7f497c9171acc046738b3dfc5c813c68990497ee4b1",
      "vout": 11,
      "prevout": {
        "scriptpubkey": "0014ec70a8e86cd3727181127db3e98ab7b8ccf0cea1",
        "scriptpubkey_asm": "OP_0 OP_PUSHBYTES_20 ec70a8e86cd3727181127db3e98ab7b8ccf0cea1",
        "scriptpubkey_type": "v0_p2wpkh",
        "scriptpubkey_address": "bc1qa3c236rv6de8rqgj0ke7nz4hhrx0pn4pu7dzcu",
        "value": 155376458
      },
      "scriptsig": "",
      "scriptsig_asm": "",
      "witness": [
        "3044022018bb184915c87989394eb419f570cd88f8921c32bb4287513fd77fec2d1c6a73022030a24d17f48d2234244aa35f91a6c2c03fd6c93d984e9c5f4f68aaa80b4f34f201",
        "03d2230e9a3583c83b828376af67fa47c43631a8c243bfe1eac95e9292097f5d49"
      ],
      "is_coinbase": false,
      "sequence": 4294967295
    }
  ],
  "vout": [
    {
      "scriptpubkey": "0014a93c31001cf6d67dbf8a8e777d168658b11a0769",
      "scriptpubkey_asm": "OP_0 OP_PUSHBYTES_20 a93c31001cf6d67dbf8a8e777d168658b11a0769",
      "scriptpubkey_type": "v0_p2wpkh",
      "scriptpubkey_address": "bc1q4y7rzqqu7mt8m0u23emh695xtzc35pmfnx78uw",
      "value": 155373488
    }
  ],
  "size": 191,
  "weight": 437,
  "fee": 2970,
  "status": {
    "confirmed": true,
    "block_height": 834552,
    "block_hash": "00000000000000000001dd0468a70c94f619251d286585cff57aeb4bd9ede330",
    "block_time": 1710355598
  },
  "hex": "01000000000101b1e47e499089c613c8c5dfb3386704cc1a17c997f4e79e5f187d46fabb52613e0b00000000ffffffff01b0cf420900000000160014a93c31001cf6d67dbf8a8e777d168658b11a076902473044022018bb184915c87989394eb419f570cd88f8921c32bb4287513fd77fec2d1c6a73022030a24d17f48d2234244aa35f91a6c2c03fd6c93d984e9c5f4f68aaa80b4f34f2012103d2230e9a3583c83b828376af67fa47c43631a8c243bfe1eac95e9292097f5d4900000000"
}