{
  "txid": "21c0e2c00d337d535ecec130bf4c059e30410ea58875979829427c54ea6f760d",
  "version": 2,
  "locktime": 0,
  "vin": [
    {
      "txid": "e054c137725b7a5d163dade8f5cd68c0927a2e8b00d920927dab9a7ba934ce5f",
      "vout": 12,
      "prevout": {
        "scriptpubkey": "51202be2bb9c85ca4e632da76577837b22f184df2f97c51937848a9aad1e9615f445",
        "scriptpubkey_asm": "OP_PUSHNUM_1 OP_PUSHBYTES_32 2be2bb9c85ca4e632da76577837b22f184df2f97c51937848a9aad1e9615f445",
        "scriptpubkey_type": "v1_p2tr",
        "scriptpubkey_address": "bc1p903th8y9ef8xxtd8v4mcx7ez7xzd7tuhc5vn0py2n2k3a9s473zsdrsch6",
        "value": 2658
      },
      "scriptsig": "",
      "scriptsig_asm": "",
      "witness": [
        "8177a0dc03815f545610772a9af0160d4d84a63b913e658a2af143b64e5b5787773ffd718970c0d7dac712270dc7a49da79acda1b0e4aab279d26c4c0876d373",
        "20bc59470516c4adafac734d7b372ad4d29d7bde1f42a52b093d06568216887769ac0063036f726401011e6170706c69636174696f6e2f6a736f6e3b636861727365743d7574662d38004cbf7b2270223a22706f772d3230222c226f70223a226d696e74222c227469636b223a2250455045222c22616d74223a2231303030222c22736f6c7574696f6e223a22504550453a6263317139736a36303977756e7468646a636d7a746a796379766475616e653071716b78726e773932653a303030303030303030303030303030303030303139393431613561653132383937363539383134343239323533333030353762306461393666336465613163353a3236333139383231313138227d68",
        "c0a0e509a599b6542378e5ac7959d344a1bebc95ec9899fd4ccf1904beefe3f047"
      ],
      "is_coinbase": false,
      "sequence": 4294967295
    }
  ],
  "vout": [
    {
      "scriptpubkey": "00142c25a795dc9aeed963625c898231bcecf2f002c6",
      "scriptpubkey_asm": "OP_0 OP_PUSHBYTES_20 2c25a795dc9aeed963625c898231bcecf2f002c6",
      "scriptpubkey_type": "v0_p2wpkh",
      "scriptpubkey_address": "bc1q9sj609wunthdjcmztjycyvduane0qqkxrnw92e",
      "value": 546
    }
  ],
  "size": 455,
  "weight": 701,
  "fee": 2112,
  "status": {
    "confirmed": true,
    "block_height": 834460,
    "block_hash": "00000000000000000000484a79b643b2524bbce82e5d8a442013fa5b8905ed98",
    "block_time": 1710307468
  },
  "hex": "020000000001015fce34a97b9aab7d9220d9008b2e7a92c068cdf5e8ad3d165d7a5b7237c154e00c00000000ffffffff0122020000000000001600142c25a795dc9aeed963625c898231bcecf2f002c603408177a0dc03815f545610772a9af0160d4d84a63b913e658a2af143b64e5b5787773ffd718970c0d7dac712270dc7a49da79acda1b0e4aab279d26c4c0876d373fd0c0120bc59470516c4adafac734d7b372ad4d29d7bde1f42a52b093d06568216887769ac0063036f726401011e6170706c69636174696f6e2f6a736f6e3b636861727365743d7574662d38004cbf7b2270223a22706f772d3230222c226f70223a226d696e74222c227469636b223a2250455045222c22616d74223a2231303030222c22736f6c7574696f6e223a22504550453a6263317139736a36303977756e7468646a636d7a746a796379766475616e653071716b78726e773932653a303030303030303030303030303030303030303139393431613561653132383937363539383134343239323533333030353762306461393666336465613163353a3236333139383231313138227d6821c0a0e509a599b6542378e5ac7959d344a1bebc95ec9899fd4ccf1904beefe3f04700000000"
}