{
  "txid": "21d92895ac2007bd647bdbf3f08ed66e35568ff25c8380130536fbd5cd2cb79a",
  "version": 1,
  "locktime": 0,
  "vin": [
    {
      "txid": "888888f40ae7ae00a4cc40fc549ee76b03ec1914cce19536e77301bfe5f359c6",
      "vout": 0,
      "prevout": {
        "scriptpubkey": "5120dd6d618f0a7ff5e4cd28088b817307f2e15383411c5c9a1ba9b929f4f3f512b4",
        "scriptpubkey_asm": "OP_PUSHNUM_1 OP_PUSHBYTES_32 dd6d618f0a7ff5e4cd28088b817307f2e15383411c5c9a1ba9b929f4f3f512b4",
        "scriptpubkey_type": "v1_p2tr",
        "scriptpubkey_address": "bc1pm4kkrrc20l67fnfgpz9czuc87ts48q6pr3wf5xafhy5lful4z26qd5txle",
        "value": 11622
      },
      "scriptsig": "",
      "scriptsig_asm": "",
      "witness": [
        "10cf27a4011087d8928516154bd76bb539825ee893883932ac1f01e2130444f94bf971675e19536e20f6c3cb34361b81dc795d2887afcf27181ec89aeecc4120",
        "20d077181dfdb4fc5396e1ab4aacc89bf381409cddb3219dba5b3526a06af6ef9bac00630461746f6d03646d7440a16461726773a46474696d651a65dc0b65656e6f6e63650068626974776f726b63693838383838382e31356b6d696e745f7469636b657268696e66696e69747968",
        "c0d077181dfdb4fc5396e1ab4aacc89bf381409cddb3219dba5b3526a06af6ef9b"
      ],
      "is_coinbase": false,
      "sequence": 4294967295
    }
  ],
  "vout": [
    {
      "scriptpubkey": "512025f35105929f9bf5d8b4361e931d6ae52420af89765bd9d2033017792c93d634",
      "scriptpubkey_asm": "OP_PUSHNUM_1 OP_PUSHBYTES_32 25f35105929f9bf5d8b4361e931d6ae52420af89765bd9d2033017792c93d634",
      "scriptpubkey_type": "v1_p2tr",
      "scriptpubkey_address": "bc1pyhe4zpvjn7dltk95xc0fx8t2u5jzptufwedan5srxqthjtyn6c6qnr7yht",
      "value": 9999
    }
  ],
  "size": 308,
  "weight": 590,
  "fee": 1623,
  "status": {
    "confirmed": true,
    "block_height": 834464,
    "block_hash": "0000000000000000000177a0869a911a2b65c9bdcd5a8bcb02b68f305bee848e",
    "block_time": 1710308296
  },
  "hex": "01000000000101c659f3e5bf0173e73695e1cc1419ec036be79e54fc40cca400aee70af48888880000000000ffffffff010f2700000000000022512025f35105929f9bf5d8b4361e931d6ae52420af89765bd9d2033017792c93d634034010cf27a4011087d8928516154bd76bb539825ee893883932ac1f01e2130444f94bf971675e19536e20f6c3cb34361b81dc795d2887afcf27181ec89aeecc41206f20d077181dfdb4fc5396e1ab4aacc89bf381409cddb3219dba5b3526a06af6ef9bac00630461746f6d03646d7440a16461726773a46474696d651a65dc0b65656e6f6e63650068626974776f726b63693838383838382e31356b6d696e745f7469636b657268696e66696e6974796821c0d077181dfdb4fc5396e1ab4aacc89bf381409cddb3219dba5b3526a06af6ef9b00000000"
}