{
  "txid": "21fd932155561171784ea65cefe5d498701dfcfa4f91b088859f6444bef177ee",
  "version": 1,
  "locktime": 0,
  "vin": [
    {
      "txid": "9f9da35c023fee745d28996ce551f93251c652c2059d6e7f9e9dc1c12ae71a0a",
      "vout": 8,
      "prevout": {
        "scriptpubkey": "0014fa90173584ebe4468d5fa24df70714c6a811dc7a",
        "scriptpubkey_asm": "OP_0 OP_PUSHBYTES_20 fa90173584ebe4468d5fa24df70714c6a811dc7a",
        "scriptpubkey_type": "v0_p2wpkh",
        "scriptpubkey_address": "bc1ql2gpwdvya0jydr2l5fxlwpc5c65prhr6rwhsna",
        "value": 25238029
      },
      "scriptsig": "",
      "scriptsig_asm": "",
      "witness": [
        "3044022037f963c4492cbdb71394ce435d880dbe7409b8e177956f3ceb88f7a246804b9802202bd5e65e6db81fdd43e042832bdb1ab8d2a712e75bd2ddf12b7473bc662a84f501",
        "0216db6e555f57761ae0768c02e8fe10ad15681e701fa8e4844470199ceb6afd19"
      ],
      "is_coinbase": false,
      "sequence": 4294967295
    }
  ],
  "vout": [
    {
      "scriptpubkey": "00143df8f57ce6e3a748f9bc4d46234e58c77555aec2",
      "scriptpubkey_asm": "OP_0 OP_PUSHBYTES_20 3df8f57ce6e3a748f9bc4d46234e58c77555aec2",
      "scriptpubkey_type": "v0_p2wpkh",
      "scriptpubkey_address": "bc1q8hu02l8xuwn537duf4rzxnjcca64ttkzndzz60",
      "value": 170189
    },
    {
      "scriptpubkey": "00143be953cf722282df3c8c483f248c1c5f76ba0671",
      "scriptpubkey_asm": "OP_0 OP_PUSHBYTES_20 3be953cf722282df3c8c483f248c1c5f76ba0671",
      "scriptpubkey_type": "v0_p2wpkh",
      "scriptpubkey_address": "bc1q80548nmjy2pd70yvfqljfrqutamt5pn3dvcj6r",
      "value": 10982261
    },
    {
      "scriptpubkey": "0014d08b17bfb85e97d309ad4b99022a8f2585958ce6",
      "scriptpubkey_asm": "OP_0 OP_PUSHBYTES_20 d08b17bfb85e97d309ad4b99022a8f2585958ce6",
      "scriptpubkey_type": "v0_p2wpkh",
      "scriptpubkey_address": "bc1q6z9300act6taxzddfwvsy250ykzetr8xj2xcty",
      "value": 130694
    },
    {
      "scriptpubkey": "00145d7bbb8511fe8cefb3234ea84fc814b67195d149",
      "scriptpubkey_asm": "OP_0 OP_PUSHBYTES_20 5d7bbb8511fe8cefb3234ea84fc814b67195d149",
      "scriptpubkey_type": "v0_p2wpkh",
      "scriptpubkey_address": "bc1qt4amhpg3l6xwlverf65yljq5kecet52fp9et8v",
      "value": 27226
    },
    {
      "scriptpubkey": "001497724a489adf49e2e8c71b79b78bc180fc4481e0",
      "scriptpubkey_asm": "OP_0 OP_PUSHBYTES_20 97724a489adf49e2e8c71b79b78bc180fc4481e0",
      "scriptpubkey_type": "v0_p2wpkh",
      "scriptpubkey_address": "bc1qjaey5jy6may796x8rdum0z7psr7yfq0q7r7384",
      "value": 3402896
    },
    {
      "scriptpubkey": "76a914a3354d1b21a2550b62f9d417190d875a10fde33388ac",
      "scriptpubkey_asm": "OP_DUP OP_HASH160 OP_PUSHBYTES_20 a3354d1b21a2550b62f9d417190d875a10fde333 OP_EQUALVERIFY OP_CHECKSIG",
      "scriptpubkey_type": "p2pkh",
      "scriptpubkey_address": "1FsxzhcufCdYxKrHviKgcmh2w39Exn1gtc",
      "value": 140000
    },
    {
      "scriptpubkey": "a91420845ca73dfd14960ca73b14f311376bd0fdb4a987",
      "scriptpubkey_asm": "OP_HASH160 OP_PUSHBYTES_20 20845ca73dfd14960ca73b14f311376bd0fdb4a9 OP_EQUAL",
      "scriptpubkey_type": "p2sh",
      "scriptpubkey_address": "34ex7MGTCqxjerxaSYRwdtxG8wnUpPpzeZ",
      "value": 27193
    },
    {
      "scriptpubkey": "001434518b11df8f59eb7d1bf3467785cfa820ec5535",
      "scriptpubkey_asm": "OP_0 OP_PUSHBYTES_20 34518b11df8f59eb7d1bf3467785cfa820ec5535",
      "scriptpubkey_type": "v0_p2wpkh",
      "scriptpubkey_address": "bc1qx3gckywl3av7klgm7dr80pw04qswc4f425nhzd",
      "value": 9454902
    },
    {
      "scriptpubkey": "00145fed730e90ec3589f035e0f189ed5d83e2fe55f0",
      "scriptpubkey_asm": "OP_0 OP_PUSHBYTES_20 5fed730e90ec3589f035e0f189ed5d83e2fe55f0",
      "scriptpubkey_type": "v0_p2wpkh",
      "scriptpubkey_address": "bc1qtlkhxr5sas6cnup4urccnm2as030u40s8xfx7d",
      "value": 343781
    },
    {
      "scriptpubkey": "a91467b6ed0a7eeb18ca8bb7754c3d9492644f4a984287",
      "scriptpubkey_asm": "OP_HASH160 OP_PUSHBYTES_20 67b6ed0a7eeb18ca8bb7754c3d9492644f4a9842 OP_EQUAL",
      "scriptpubkey_type": "p2sh",
      "scriptpubkey_address": "3B9QfDghmZ2nr3zHVT5MJ126M58GB7xCYt",
      "value": 136101
    },
    {
      "scriptpubkey": "0014c50d1717837425b9cfd57db2407d9be12396ef9a",
      "scriptpubkey_asm": "OP_0 OP_PUSHBYTES_20 c50d1717837425b9cfd57db2407d9be12396ef9a",
      "scriptpubkey_type": "v0_p2wpkh",
      "scriptpubkey_address": "bc1qc5x3w9urwsjmnn740keyqlvmuy3edmu6stlfml",
      "value": 339212
    },
    {
      "scriptpubkey": "0014079767604dc395312dc5d0b49919ee822889ffe3",
      "scriptpubkey_asm": "OP_0 OP_PUSHBYTES_20 079767604dc395312dc5d0b49919ee822889ffe3",
      "scriptpubkey_type": "v0_p2wpkh",
      "scriptpubkey_address": "bc1qq7tkwczdcw2nztw96z6fjx0wsg5gnllrxzv0en",
      "value": 43608
    },
    {
      "scriptpubkey": "00144cba7523b35e21eacff76a2c54f46a8699c4d358",
      "scriptpubkey_asm": "OP_0 OP_PUSHBYTES_20 4cba7523b35e21eacff76a2c54f46a8699c4d358",
      "scriptpubkey_type": "v0_p2wpkh",
      "scriptpubkey_address": "bc1qfja82gantcs74nlhdgk9far2s6vuf56cn059cf",
      "value": 26820
    }
  ],
  "size": 568,
  "weight": 1945,
  "fee": 13146,
  "status": {
    "confirmed": true,
    "block_height": 834638,
    "block_hash": "000000000000000000025f742c626208ac87e0b7d15054abb4a19ca2d735a54e",
    "block_time": 1710405325
  },
  "hex": "010000000001010a1ae72ac1c19d9e7f6e9d05c252c65132f951e56c99285d74ee3f025ca39d9f0800000000ffffffff0dcd980200000000001600143df8f57ce6e3a748f9bc4d46234e58c77555aec27593a700000000001600143be953cf722282df3c8c483f248c1c5f76ba067186fe010000000000160014d08b17bfb85e97d309ad4b99022a8f2585958ce65a6a0000000000001600145d7bbb8511fe8cefb3234ea84fc814b67195d14990ec33000000000016001497724a489adf49e2e8c71b79b78bc180fc4481e0e0220200000000001976a914a3354d1b21a2550b62f9d417190d875a10fde33388ac396a00000000000017a91420845ca73dfd14960ca73b14f311376bd0fdb4a987364590000000000016001434518b11df8f59eb7d1bf3467785cfa820ec5535e53e0500000000001600145fed730e90ec3589f035e0f189ed5d83e2fe55f0a51302000000000017a91467b6ed0a7eeb18ca8bb7754c3d9492644f4a9842870c2d050000000000160014c50d1717837425b9cfd57db2407d9be12396ef9a58aa000000000000160014079767604dc395312dc5d0b49919ee822889ffe3c4680000000000001600144cba7523b35e21eacff76a2c54f46a8699c4d35802473044022037f963c4492cbdb71394ce435d880dbe7409b8e177956f3ceb88f7a246804b9802202bd5e65e6db81fdd43e042832bdb1ab8d2a712e75bd2ddf12b7473bc662a84f501210216db6e555f57761ae0768c02e8fe10ad15681e701fa8e4844470199ceb6afd1900000000"
}