{
  "txid": "21fee463413e7849794335ea218f3af5a346b602f2c4d9bf49f10d3e48c90b68",
  "version": 1,
  "locktime": 0,
  "vin": [
    {
      "txid": "d6dc391c0240377a772605d9a21e16e61e77ad514ae036d088344a0b8e9d2560",
      "vout": 1,
      "prevout": {
        "scriptpubkey": "76a9143929cdb300701f16b55795f362babae81654d04a88ac",
        "scriptpubkey_asm": "OP_DUP OP_HASH160 OP_PUSHBYTES_20 3929cdb300701f16b55795f362babae81654d04a OP_EQUALVERIFY OP_CHECKSIG",
        "scriptpubkey_type": "p2pkh",
        "scriptpubkey_address": "16DFbVcVdotUyP3yyYbPN24Dvcn8Z8tUCt",
        "value": 2452
      },
      "scriptsig": "483045022100911bf9d1838c2b5e591eac85e56d4db53cc7f7ab9dfc7838d6472511c4fe9a8a02200c20943b767f03a0c27865154ec826ea79f03249e26d6c23b6d2e649cb7a6844012102c8e7a7b165ad3275db47fa214a83d973d6071b728c25f0e23bfdbd8b10be33ba",
      "scriptsig_asm": "OP_PUSHBYTES_72 3045022100911bf9d1838c2b5e591eac85e56d4db53cc7f7ab9dfc7838d6472511c4fe9a8a02200c20943b767f03a0c27865154ec826ea79f03249e26d6c23b6d2e649cb7a684401 OP_PUSHBYTES_33 02c8e7a7b165ad3275db47fa214a83d973d6071b728c25f0e23bfdbd8b10be33ba",
      "is_coinbase": false,
      "sequence": 4294967295
    },
    {
      "txid": "7ddf490a140377abf4c68e47830ad0d4d7faae425ad4903348955ef1dbba7abe",
      "vout": 1,
      "prevout": {
        "scriptpubkey": "76a9145dfb9effcf22a8f88dc938c2a9bd09dc859864c688ac",
        "scriptpubkey_asm": "OP_DUP OP_HASH160 OP_PUSHBYTES_20 5dfb9effcf22a8f88dc938c2a9bd09dc859864c6 OP_EQUALVERIFY OP_CHECKSIG",
        "scriptpubkey_type": "p2pkh",
        "scriptpubkey_address": "19ZwGnFKBC3BbERZypffN9vUGVAAnn2T23",
        "value": 2574
      },
      "scriptsig": "483045022100f3fdf2493bd626c21c21f2b4445017c14494ceecc0e8ac4d82a63c1dc43a578902204dade365ad17985627d05559eccbe69b11242828c1eb8626d041142ded98cb91012102b8b8405ff8d30a2182ded087d2d4ab95f79ffe91710506e25f44f40962ecfaf1",
      "scriptsig_asm": "OP_PUSHBYTES_72 3045022100f3fdf2493bd626c21c21f2b4445017c14494ceecc0e8ac4d82a63c1dc43a578902204dade365ad17985627d05559eccbe69b11242828c1eb8626d041142ded98cb9101 OP_PUSHBYTES_33 02b8b8405ff8d30a2182ded087d2d4ab95f79ffe91710506e25f44f40962ecfaf1",
      "is_coinbase": false,
      "sequence": 4294967295
    },
    {
      "txid": "13dc4f550b6d2b8f1d009632d1272f71d45ad78d22f1ea896896168663a1d185",
      "vout": 1,
      "prevout": {
        "scriptpubkey": "76a914c8fe6c3bf62844ba6cc9dd87e2aff5e31e7eb9c188ac",
        "scriptpubkey_asm": "OP_DUP OP_HASH160 OP_PUSHBYTES_20 c8fe6c3bf62844ba6cc9dd87e2aff5e31e7eb9c1 OP_EQUALVERIFY OP_CHECKSIG",
        "scriptpubkey_type": "p2pkh",
        "scriptpubkey_address": "1KKkvyLvG1eNdx2var5gLKWLEmcJvQXt87",
        "value": 3032
      },
      "scriptsig": "483045022100e069024c7d60c02a6e8e08608fdb2e3aec839fb8540cdab7bb80b2e91778dfc4022045a98f1e610f4ecae15bf0db61d1bb54ff45a036e27f569eafbceda0a0a86b2701210374da81b79985bebdcd1402b61335b17986fc06590a8665cd986a918b0915939a",
      "scriptsig_asm": "OP_PUSHBYTES_72 3045022100e069024c7d60c02a6e8e08608fdb2e3aec839fb8540cdab7bb80b2e91778dfc4022045a98f1e610f4ecae15bf0db61d1bb54ff45a036e27f569eafbceda0a0a86b2701 OP_PUSHBYTES_33 0374da81b79985bebdcd1402b61335b17986fc06590a8665cd986a918b0915939a",
      "is_coinbase": false,
      "sequence": 4294967295
    }
  ],
  "vout": [
    {
      "scriptpubkey": "a914c8bb162ef2c98038b4dfa2cb874ad0783d6ebac387",
      "scriptpubkey_asm": "OP_HASH160 OP_PUSHBYTES_20 c8bb162ef2c98038b4dfa2cb874ad0783d6ebac3 OP_EQUAL",
      "scriptpubkey_type": "p2sh",
      "scriptpubkey_address": "3KzPBvDsj2QyrdqmbzMjmQcqSRxU6Pnrut",
      "value": 2773
    }
  ],
  "size": 486,
  "weight": 1944,
  "fee": 5285,
  "status": {
    "confirmed": true,
    "block_height": 834464,
    "block_hash": "0000000000000000000177a0869a911a2b65c9bdcd5a8bcb02b68f305bee848e",
    "block_time": 1710308296
  },
  "hex": "010000000360259d8e0b4a3488d036e04a51ad771ee6161ea2d90526777a3740021c39dcd6010000006b483045022100911bf9d1838c2b5e591eac85e56d4db53cc7f7ab9dfc7838d6472511c4fe9a8a02200c20943b767f03a0c27865154ec826ea79f03249e26d6c23b6d2e649cb7a6844012102c8e7a7b165ad3275db47fa214a83d973d6071b728c25f0e23bfdbd8b10be33baffffffffbe7abadbf15e95483390d45a42aefad7d4d00a83478ec6f4ab7703140a49df7d010000006b483045022100f3fdf2493bd626c21c21f2b4445017c14494ceecc0e8ac4d82a63c1dc43a578902204dade365ad17985627d05559eccbe69b11242828c1eb8626d041142ded98cb91012102b8b8405ff8d30a2182ded087d2d4ab95f79ffe91710506e25f44f40962ecfaf1ffffffff85d1a1638616966889eaf1228dd75ad4712f27d13296001d8f2b6d0b554fdc13010000006b483045022100e069024c7d60c02a6e8e08608fdb2e3aec839fb8540cdab7bb80b2e91778dfc4022045a98f1e610f4ecae15bf0db61d1bb54ff45a036e27f569eafbceda0a0a86b2701210374da81b79985bebdcd1402b61335b17986fc06590a8665cd986a918b0915939affffffff01d50a00000000000017a914c8bb162ef2c98038b4dfa2cb874ad0783d6ebac38700000000"
}