{
  "txid": "2200d50c8f74236f7832f49cff4bf957ed8be648236855355d5340028f2397d8",
  "version": 1,
  "locktime": 0,
  "vin": [
    {
      "txid": "ad41f6d0f66b86cee4208eaf94f53c3060ca5cefaead81c41876505b13f55ff3",
      "vout": 0,
      "prevout": {
        "scriptpubkey": "512022538d35bcff1af5f86ee84822f4beadca4ae43d6d17a1e9c93d1589dec52217",
        "scriptpubkey_asm": "OP_PUSHNUM_1 OP_PUSHBYTES_32 22538d35bcff1af5f86ee84822f4beadca4ae43d6d17a1e9c93d1589dec52217",
        "scriptpubkey_type": "v1_p2tr",
        "scriptpubkey_address": "bc1pyffc6ddulud0t7rwapyz9a974h9y4epad5t6r6wf852cnhk9ygtsmvm00q",
        "value": 23703
      },
      "scriptsig": "",
      "scriptsig_asm": "",
      "witness": [
        "2891f28d446a77d5ca8524809499fb06a0bdba215d4271843c3687ae5328eaedf73b6dbae68a9382246d4c5feb3cb2ca6c755ee60acc913f670a89c4aa1b796801"
      ],
      "is_coinbase": false,
      "sequence": 4294967295
    }
  ],
  "vout": [
    {
      "scriptpubkey": "5120ad571a8406972a625aaeb474ab579b2b5fdd3a77680a2f8217da143a792a46af",
      "scriptpubkey_asm": "OP_PUSHNUM_1 OP_PUSHBYTES_32 ad571a8406972a625aaeb474ab579b2b5fdd3a77680a2f8217da143a792a46af",
      "scriptpubkey_type": "v1_p2tr",
      "scriptpubkey_address": "bc1p44t34pqxju4xyk4wk362k4um9d0a6wnhdq9zlqshmg2r57f2g6hszak065",
      "value": 1123
    },
    {
      "scriptpubkey": "0020990ddff426bf7616a5f4976e5fb90964a8be7899cb536d6168536579ab0acdbb",
      "scriptpubkey_asm": "OP_0 OP_PUSHBYTES_32 990ddff426bf7616a5f4976e5fb90964a8be7899cb536d6168536579ab0acdbb",
      "scriptpubkey_type": "v0_p2wsh",
      "scriptpubkey_address": "bc1qnyxalapxhampdf05jah9lwgfvj5tu7yeedfk6ctg2djhn2c2ekas9rtv8c",
      "value": 20879
    }
  ],
  "size": 206,
  "weight": 617,
  "fee": 1701,
  "status": {
    "confirmed": true,
    "block_height": 834464,
    "block_hash": "0000000000000000000177a0869a911a2b65c9bdcd5a8bcb02b68f305bee848e",
    "block_time": 1710308296
  },
  "hex": "01000000000101f35ff5135b507618c481adaeef5cca60303cf594af8e20e4ce866bf6d0f641ad0000000000ffffffff026304000000000000225120ad571a8406972a625aaeb474ab579b2b5fdd3a77680a2f8217da143a792a46af8f51000000000000220020990ddff426bf7616a5f4976e5fb90964a8be7899cb536d6168536579ab0acdbb01412891f28d446a77d5ca8524809499fb06a0bdba215d4271843c3687ae5328eaedf73b6dbae68a9382246d4c5feb3cb2ca6c755ee60acc913f670a89c4aa1b79680100000000"
}