{
  "txid": "2208d4d9cb8d2c4f0d922dfff75a5610e495fa69346ace3e2460c629272d67e7",
  "version": 2,
  "locktime": 0,
  "vin": [
    {
      "txid": "83b1303fd891f1954cd87c1d288a2a6bca51045bdda40133839448bcf0a9a8be",
      "vout": 5,
      "prevout": {
        "scriptpubkey": "51202d9843cd493fbc45346894f3abd7f16d05a9bf53d67321589f514b1f0c7a422c",
        "scriptpubkey_asm": "OP_PUSHNUM_1 OP_PUSHBYTES_32 2d9843cd493fbc45346894f3abd7f16d05a9bf53d67321589f514b1f0c7a422c",
        "scriptpubkey_type": "v1_p2tr",
        "scriptpubkey_address": "bc1p9kvy8n2f877y2drgjne6h4l3d5z6n06n6eejzkyl29937rr6ggkq9hd0aa",
        "value": 2850
      },
      "scriptsig": "",
      "scriptsig_asm": "",
      "witness": [
        "a6c7994671453424b97e97a2d79fedd12499c3af860960294684b091b1f8382832be8d62d926fea0bb287d7c91fbd38022ff2b076883c52a1627badfa05ddcf8",
        "20402e0427bc5006cf586a47da77059c3c873a4971c270be7f274da4dc503dd467ac0063036f726401011e6170706c69636174696f6e2f6a736f6e3b636861727365743d7574662d38004cd27b2270223a22706f772d3230222c226f70223a226d696e74222c227469636b223a2250455045222c22616d74223a2231303030222c22736f6c7574696f6e223a22504550453a62633170687834336d6b6632633236366e63707a6c7a7067307636616b6a73713470386379736379327a706d746e38326e367a616c7667713972663737363a303030303030303030303030303030303030303139393431613561653132383937363539383134343239323533333030353762306461393666336465613163353a37393237383830313331227d68",
        "c143aa8de0991fd4b61b82f8195f6c835bc5de941a82824922fffa09f24edd0022"
      ],
      "is_coinbase": false,
      "sequence": 4294967295
    }
  ],
  "vout": [
    {
      "scriptpubkey": "5120b9ab1dd92ac2b5a9e022f88287b35db4a00a84f8243045083b5ccea9e85dfb10",
      "scriptpubkey_asm": "OP_PUSHNUM_1 OP_PUSHBYTES_32 b9ab1dd92ac2b5a9e022f88287b35db4a00a84f8243045083b5ccea9e85dfb10",
      "scriptpubkey_type": "v1_p2tr",
      "scriptpubkey_address": "bc1phx43mkf2c266ncpzlzpg0v6akjsq4p8cyscy2zpmtn82n6zalvgq9rf776",
      "value": 546
    }
  ],
  "size": 486,
  "weight": 768,
  "fee": 2304,
  "status": {
    "confirmed": true,
    "block_height": 834460,
    "block_hash": "00000000000000000000484a79b643b2524bbce82e5d8a442013fa5b8905ed98",
    "block_time": 1710307468
  },
  "hex": "02000000000101bea8a9f0bc4894833301a4dd5b0451ca6b2a8a281d7cd84c95f191d83f30b1830500000000ffffffff012202000000000000225120b9ab1dd92ac2b5a9e022f88287b35db4a00a84f8243045083b5ccea9e85dfb100340a6c7994671453424b97e97a2d79fedd12499c3af860960294684b091b1f8382832be8d62d926fea0bb287d7c91fbd38022ff2b076883c52a1627badfa05ddcf8fd1f0120402e0427bc5006cf586a47da77059c3c873a4971c270be7f274da4dc503dd467ac0063036f726401011e6170706c69636174696f6e2f6a736f6e3b636861727365743d7574662d38004cd27b2270223a22706f772d3230222c226f70223a226d696e74222c227469636b223a2250455045222c22616d74223a2231303030222c22736f6c7574696f6e223a22504550453a62633170687834336d6b6632633236366e63707a6c7a7067307636616b6a73713470386379736379327a706d746e38326e367a616c7667713972663737363a303030303030303030303030303030303030303139393431613561653132383937363539383134343239323533333030353762306461393666336465613163353a37393237383830313331227d6821c143aa8de0991fd4b61b82f8195f6c835bc5de941a82824922fffa09f24edd002200000000"
}