{
  "txid": "220b5e06c1047a23cc38e7cc434ed12e7049f3e22de3bda349d50d14ba1d7eee",
  "version": 2,
  "locktime": 834637,
  "vin": [
    {
      "txid": "eb2170f2fa0cad571c5988c45d077843e6d6abf6db76c4ed5fc3e3b27a144bb5",
      "vout": 6,
      "prevout": {
        "scriptpubkey": "0014da010aeb07ff78fcc7ecbf612faf981eeec5d0d3",
        "scriptpubkey_asm": "OP_0 OP_PUSHBYTES_20 da010aeb07ff78fcc7ecbf612faf981eeec5d0d3",
        "scriptpubkey_type": "v0_p2wpkh",
        "scriptpubkey_address": "bc1qmgqs46c8lau0e3lvhasjltucrmhvt5xnlj80nu",
        "value": 398292
      },
      "scriptsig": "",
      "scriptsig_asm": "",
      "witness": [
        "3044022000ccee228b26c2b71315de2c9eb6a7a25417c0fb7d8820dcf51ff4c21ec55f0802203adb31dbd66e9e7eb1d6c610ed02882a58ddf91093d9031d51dfeb0f235aafb201",
        "03ce8fb029d7ae09309efada9d0edac466df9c67272ba000c0ce74ca97d5fb569b"
      ],
      "is_coinbase": false,
      "sequence": 4294967294
    },
    {
      "txid": "e39f12ab29c747b93ad113637efb13aa2d0f6e9482a947ae0e55f0a8d0a49db7",
      "vout": 0,
      "prevout": {
        "scriptpubkey": "0014329fb21c3509e0e0cb107ae23dbd023e31609145",
        "scriptpubkey_asm": "OP_0 OP_PUSHBYTES_20 329fb21c3509e0e0cb107ae23dbd023e31609145",
        "scriptpubkey_type": "v0_p2wpkh",
        "scriptpubkey_address": "bc1qx20my8p4p8swpjcs0t3rm0gz8cckpy296qtuds",
        "value": 14918
      },
      "scriptsig": "",
      "scriptsig_asm": "",
      "witness": [
        "304402201dd09296e726e072db29a2c27c38a7095071ebb489b97421a1cc6c7a2b5d853402206d6263399ab7ac536b812211538175d47bebdc42310c9fe5a5de159746cc7ca401",
        "02cacc920e0b23f6327538ed6a93c1ada470adedba89f443d1bba6b7b880c8acdd"
      ],
      "is_coinbase": false,
      "sequence": 4294967294
    },
    {
      "txid": "ae06191be66eb44fe4745b70abf83a6f3c3dda762358efaccb48de146e90b507",
      "vout": 5,
      "prevout": {
        "scriptpubkey": "0014f2c4a4a00a533c3543a0f4b0b406884d5888c9f7",
        "scriptpubkey_asm": "OP_0 OP_PUSHBYTES_20 f2c4a4a00a533c3543a0f4b0b406884d5888c9f7",
        "scriptpubkey_type": "v0_p2wpkh",
        "scriptpubkey_address": "bc1q7tz2fgq22v7r2saq7jctgp5gf4vg3j0hxs4n5r",
        "value": 1107523
      },
      "scriptsig": "",
      "scriptsig_asm": "",
      "witness": [
        "304402207b1307835c04ce3c26131226775bd5c51a4079858df29d1c2049d3cf4aacd4cb02201771cf643ced2f77d25433d54be64e68de38219071f3b00f53593698ab2bbfff01",
        "02f9018e0de60e48c87a1c59ded1e6e0ea54a52f3cfc223df7f6cbfe40f21609b5"
      ],
      "is_coinbase": false,
      "sequence": 4294967294
    }
  ],
  "vout": [
    {
      "scriptpubkey": "00145a855dec7b83736818bc21efc5641867ecb39d10",
      "scriptpubkey_asm": "OP_0 OP_PUSHBYTES_20 5a855dec7b83736818bc21efc5641867ecb39d10",
      "scriptpubkey_type": "v0_p2wpkh",
      "scriptpubkey_address": "bc1qt2z4mmrmsdeksx9uy8hu2eqcvlkt88gs0zc4re",
      "value": 1513008
    }
  ],
  "size": 487,
  "weight": 979,
  "fee": 7725,
  "status": {
    "confirmed": true,
    "block_height": 834638,
    "block_hash": "000000000000000000025f742c626208ac87e0b7d15054abb4a19ca2d735a54e",
    "block_time": 1710405325
  },
  "hex": "02000000000103b54b147ab2e3c35fedc476dbf6abd6e64378075dc488591c57ad0cfaf27021eb0600000000feffffffb79da4d0a8f0550eae47a982946e0f2daa13fb7e6313d13ab947c729ab129fe30000000000feffffff07b5906e14de48cbacef582376da3d3c6f3af8ab705b74e44fb46ee61b1906ae0500000000feffffff0130161700000000001600145a855dec7b83736818bc21efc5641867ecb39d1002473044022000ccee228b26c2b71315de2c9eb6a7a25417c0fb7d8820dcf51ff4c21ec55f0802203adb31dbd66e9e7eb1d6c610ed02882a58ddf91093d9031d51dfeb0f235aafb2012103ce8fb029d7ae09309efada9d0edac466df9c67272ba000c0ce74ca97d5fb569b0247304402201dd09296e726e072db29a2c27c38a7095071ebb489b97421a1cc6c7a2b5d853402206d6263399ab7ac536b812211538175d47bebdc42310c9fe5a5de159746cc7ca4012102cacc920e0b23f6327538ed6a93c1ada470adedba89f443d1bba6b7b880c8acdd0247304402207b1307835c04ce3c26131226775bd5c51a4079858df29d1c2049d3cf4aacd4cb02201771cf643ced2f77d25433d54be64e68de38219071f3b00f53593698ab2bbfff012102f9018e0de60e48c87a1c59ded1e6e0ea54a52f3cfc223df7f6cbfe40f21609b54dbc0c00"
}