{
  "txid": "223331431eca79c16086dedca44d6b40bf07dae7f92213599b1be57b4c59fc60",
  "version": 2,
  "locktime": 834637,
  "vin": [
    {
      "txid": "fc03507bf6c62bfbf3093301ef8a2691a4c35e7165978815fd0782bf60a06f83",
      "vout": 0,
      "prevout": {
        "scriptpubkey": "00140c10758b1c967cf7b118041073b5ea5cbb083bd2",
        "scriptpubkey_asm": "OP_0 OP_PUSHBYTES_20 0c10758b1c967cf7b118041073b5ea5cbb083bd2",
        "scriptpubkey_type": "v0_p2wpkh",
        "scriptpubkey_address": "bc1qpsg8tzcuje700vgcqsg88d02tjassw7j4g4wlr",
        "value": 206172
      },
      "scriptsig": "",
      "scriptsig_asm": "",
      "witness": [
        "304402202aaf735559ccdaf1efbfb1bfbad7e316fc8068cceb7555de6a1e4ee3d7036ae40220301e02b9f521736dc8b60271c29da5d8e857b61d637df896dc6142f8fbfd609701",
        "024b8586faa2db289d006954ca5732d7f71fcab5d3fdee8e49413686e7bb23ef56"
      ],
      "is_coinbase": false,
      "sequence": 4294967293
    }
  ],
  "vout": [
    {
      "scriptpubkey": "00143922bbbc0874290ec5a904d5119cbbe0a3df513d",
      "scriptpubkey_asm": "OP_0 OP_PUSHBYTES_20 3922bbbc0874290ec5a904d5119cbbe0a3df513d",
      "scriptpubkey_type": "v0_p2wpkh",
      "scriptpubkey_address": "bc1q8y3th0qgws5sa3dfqn23r89muz3a75fakm030r",
      "value": 60800
    },
    {
      "scriptpubkey": "00149e3a73f5a7d9c95ad7e1f11dd3fc6d0a01b2a114",
      "scriptpubkey_asm": "OP_0 OP_PUSHBYTES_20 9e3a73f5a7d9c95ad7e1f11dd3fc6d0a01b2a114",
      "scriptpubkey_type": "v0_p2wpkh",
      "scriptpubkey_address": "bc1qnca88ad8m8y444lp7ywa8lrdpgqm9gg56yjtm7",
      "value": 139660
    }
  ],
  "size": 222,
  "weight": 561,
  "fee": 5712,
  "status": {
    "confirmed": true,
    "block_height": 834638,
    "block_hash": "000000000000000000025f742c626208ac87e0b7d15054abb4a19ca2d735a54e",
    "block_time": 1710405325
  },
  "hex": "02000000000101836fa060bf8207fd15889765715ec3a491268aef013309f3fb2bc6f67b5003fc0000000000fdffffff0280ed0000000000001600143922bbbc0874290ec5a904d5119cbbe0a3df513d8c210200000000001600149e3a73f5a7d9c95ad7e1f11dd3fc6d0a01b2a1140247304402202aaf735559ccdaf1efbfb1bfbad7e316fc8068cceb7555de6a1e4ee3d7036ae40220301e02b9f521736dc8b60271c29da5d8e857b61d637df896dc6142f8fbfd60970121024b8586faa2db289d006954ca5732d7f71fcab5d3fdee8e49413686e7bb23ef564dbc0c00"
}