{
  "txid": "22510da10e6a25428caf8f43a535723df010c504bc790479177f1ef093b70cf0",
  "version": 2,
  "locktime": 0,
  "vin": [
    {
      "txid": "58e0d099f91e2d11b15e94f789c3ed461e3c645433b76388b8a26b7004523554",
      "vout": 0,
      "prevout": {
        "scriptpubkey": "512018b4253229d00338967c6c9f7bebcec5780676f0537fcf2e0f79abe8d2246d56",
        "scriptpubkey_asm": "OP_PUSHNUM_1 OP_PUSHBYTES_32 18b4253229d00338967c6c9f7bebcec5780676f0537fcf2e0f79abe8d2246d56",
        "scriptpubkey_type": "v1_p2tr",
        "scriptpubkey_address": "bc1prz6z2v3f6qpn39nudj0hh67wc4uqvahs2dlu7ts00x47353yd4tqtkzk2j",
        "value": 25322
      },
      "scriptsig": "",
      "scriptsig_asm": "",
      "witness": [
        "2975c2a54035bda9ac0d6481564bd9e2fde27d118dc0ff4bf255898943bbd8cf5e215378c859def8580e45b2637b25aa549334a2997d0d3ff5d4bd3e4cb12601",
        "20f2d00e1cce0b839d2e197679cac7a15152ec244338032c7767f72c1332d49a65ac0063036f7264010109696d6167652f706e67004d080289504e470d0a1a0a0000000d4948445200000080000000800806000000c33e61cb000000097048597300000b1300000b1301009a9c1800000e2a49444154789ced9d5d8c55d515c7d7e060fd00a280404d3b26852130043576d2b4f2d1e883356d69da582326f541adfd08c64edfe4c134ad4df0ad5353aa867ef85420855a3b8969fba0a98c56cd9442913bca401aa92180a009c568a4421ff6fa1f72fef7aed9679f8f3b33d9fbf7b2679f7bee3e67ceccfaefb5d75e7b9f9e65bd7241a623776b39a0654bcbedcd5e76e286b9b97afffeffd6d3b0f1fb4cb41aba5e416675f56a8969474f550568cc6240979500bf4fd3968ffbe7e767d194322405889cdeb25f2cfa9f3b5d18b9e32e1111d9b07be7a4e775bb0ff6f1c6b22f8b88c8c83257f7ddbf0f7e0e4901222758012ccbffcdbc411111d9bc2e7f7ccb9e17c2efaac27d58165cd572ba052cbe29f8392405889c360528da57760d78fbea4df3b8b9343fe973e582a3ae5cbabcf379470eb9725360fb7abf231fe9f36ce9f3a4d10b14cbe753597f8faaa396a40091131c07e0ff54eeb35e3e795244eaeffb37afbb454444ee3b3336e9f5bdca05cbffdc659d3f7fed43111119d9ff05d7de03ff74c74395a04bf18baa7198a40091133c0af079a9372f5a54fa66eab8bec9a6f9ae449f2fd4e7abe5830d6777e6cf838fb0e9942bb7be5bee3e2ad2da98af9f1367f1b3c7cbf94649014d080222a774249099aa51c3864b3b7bd7195fa2fa69f50144fb7458367c829fe9f11f9242c00790f9f976ff42edd368a55f2db46adfdf7a547f584f1fbce80a2881ec9fbc9d14094ce4a83c1bd87542bd6b5680357df97ae613189ceeeb7cfc25fd9ea100757bffadbf794e78422fbb23acdda40091539b0f305d3023996bacc89f1101044bb5840f602942c30c7c315fcf14a1a4e583a4009133f37c00e0eb6bd1f7b3e5c3825ff2f4fd8caf9df99efb99a62405889cca3ec0d0d5d78888c8f07bef74fcfca91b6fcad5bfbb6f6fa9ebb4b52381edfc093fa8c51e0fbc81ddfabd255a5f13f8fd82e0f7e4e7c4cf992382208d02124134ee03f06cd5f33dfd22525c09f07d7c0fdc7a61424444fabfe92260433b9c85c83157648a740335b85872e7c992afb972ddb5aebcf3491111f9b5fc564444ee977bddf1df7fcf957f7832df1e226f15c7ffb0f095d77d3a779c9f539be5afd2f260fe705125480a1039990f80f133a82bb6cf965bd60780c53383bfe8111191d12b7596ee523a017db6d5e7bfa9cec19b5aff952beefff6abb9ba885a3ebc7db43b406549ef1f8af5942ac0f85bffc97d0e2544ccffcc92cb454464defa0fdc0998237822ecba49012227f301eace055c32fbf2493f3f7eee83a0f6d897b87bef591111d97ed39cfcf1e3eef8d809726d101768e50fcb77b45ca8e567b47c5a4b5816fa580811e6006aeafb791495f5f5dac70f4d08023ce2ca57beaacf55057b5e9ff11c0b46089302444ee603845abe958deab3fcb2e03ab01891b31dcf5bbbd099f2d8098a4bb0c58213543e439fc3f24f533bcad0bfd482073ac7417cf82cbf6dfe5f39f63ba77ccf9efdbc8888dcf3d3c973309153895c4dfcfd9202444ee948a02ffbf4c7ab56e6eadbfee1b26bdfbeccc8c62d082c6668a1b3bcad08e9eb307e78a35a94d517c39217d0f14354c724e169e98c2a4966f9817dbf379fdfb2fc77d4e7d1d188cff2adeb82a40091537b3e005b3e80b7bef5a85380e1f7c246014cdbdcc3ed810d1cd05295a32d2de034957f0d6cdf43d1fc7dce0358fda1662f6b24f3c0634e09573c4ccf437d08f814b3c7f3eb29405280c8a95d01ac88dd94c15e3f2c1a967f8cca9af1cd963218b74f689e7feb51a71488039cd3b98fd9bbdce7ab8f394538c70db10f31def97a490122a7f6d940fcc76feacbafb441df0f8a5a44305664cee7f55b0ab0da38dee5cc1f6f56b087238fe7e77a561c7e4e449202444fed3ec045cbbec6f37967785efc47075de765ce1d70deff4a64ed52ce1f226b3a6998e505f0dc800514c48a0b3444b622a866b0c6322940e434b62e20b48fbf18e377c0f24d60f9cb3424b6788e79aa885c9ce503a7a88e380094017303a7e938eaa35a223f4009f5fabd50a6cf635bddf0e5e19d61c396a537bab99e23fbf2be405280c899f27501983ddc38276fc13bce769eedcb7c01ce4d0802fb67c63d79ff03546fd1715f1d0a00788d60cdc0178002805025c06a62284b5280c899f2b5816cf95eb8ef6760f9b05464fa9ca2fa8bd2191e15707d21d5b3fbd01d431a52828b1941efe9755d71e6a8e606526610c6fd4b1f9a3ccf232940e4f4627e183b7d628f9fa9daf163f49433d54f69fdedeb297f00d9bd6b4839b0460f1ecd09290662e6ac109662e0380c1fa38fc3ddd933e8eb50182dff885dcbc815f2593e480a103953ee03f8d878d659d8f05534aec65abdb5862f005809b8cef1005fdd5296867d012bd7f2d8dfddf399f78d72f915490122275380a6f7f7b3c0ac21660b91d59b7d7e95fb7cd86a6094fa5eec56ceb37d3c1b088afa0a80338540977d815fde94cf0d2c4b5280c8a9cd07a8ba672de70f94660fd5a1089c0d7cc838ceb0a553eee0e0d37927612cbf14b27660f9a31feb75d5355afd90ae1d7c7cf2e78e4ca2732bdd79490122a73778b76d03c4112e522c5fddb75f7e9b92589140f60580a5080ba8642540dd581f801541a3f27ee7ebd60c22a68893c8d5e5da81e523f7302940e4f4d615f1abfa7e00afcfe09b03f0ed03002c45280a944027e1d62e77a396e1afe8f1d0ddc7ba85463279b5705280c899f691c0c66145e03c0163f49065fc0c4291745c5e73449033a55ed4ebaf57dfe4fbbed95458fe239d3f4e0a1039334e01069fcd670a8dadfac8fd80cca0ddd407df413b7afa7c042b4b18cac0f1024d080244fe10096c28228838c9a6bece16df36fea7cc1f8ba40091632a40ed6fd1aec8d06b1877eb38f8cad9eef8bf350b173b77dee1d9cddbca05f451f4bc9ae175161c313d70cecda1acd0ddc3ce5fe3328166adcf8feeb04a18a300ec09951420724c05c82284fba7c91b4441167ad7f5b05768157dbc95250cb80f2fab08d881947d8a139db399abc24a8051c0f2edb78a88c879eb8bb44a98f7834c0a1039a5d7050c7edc93ab8f5dd2b999ba57caf0b8386bf7363dc0f3fb8810f2ed7104905702f1ac6168de00f0bcc5ab2c5827709e2c1acc7a8794db88072405889cd27100cedc19332cbcee7d0082db63cb8765230268bd3208966fe509ac35e20e0cef560e4a2a83cff2db4891c0c464945680c676f8280b76f1e23d8100fa76ec0e869d3fd8d2d907e0ddc4eaa2a232fcfcf65772f51ffcd9ed189af5fd1ecb0749012267c6cd0504c3397dd7d2f1a2966fed10c29147ac4dc49e4196a55be07c5282d75baecfcfc6fbdbf20a308bf23ad8f2ad8caba4009133e5fb03d48eb52fa00596d7c327b02c9f41c4100ac0966f5150115a8fbb12b17dc07d3cf0f5f54901121da9ec03f07fd6bad6ff72756b772f5f8490d7c285be61a430af539dbd7d4b0100e20045c7f545cf530bffc42eb79f1f7608053e8b0796e583a40091932940b7e7ff1b8f2370de3faf1564a004ac00f81e470c79c551cd317f58f8e0c7fa0ea48aedf3ba8dfbceb8dd4d0802c39302444e9b0f10aa04dce733e8cb43fb705e0973fc92825f84c52f363ef72901228ab7199f5bed62f451f39ec1d62c6b5190d771b3d65f3e7932773c2940e4948e03f8de0e060bc67e7f55df13e8552458a04f0130af0f25f0bd09044ac03e05b7cff9040def1e5e14ce00025811961420721a53008bc6c6f34515a0ecfefe14611cdca31951faaee2b17b2f04b56fc539906955b6efdf3cdfc557b6bc5b6c949514207266fc6c60969bf8bc2bc6ee6c686a43fbf6c1fdee7adb97d00a9d5daee81f98dc57b19413c7c7a49c42c2f2f760ff00326debddd0490122a7b202b4ed5c41547d53a805e612f8ba432fe81cc32dda075afbff8782d18267678eec5dc232791fcccf0d399655dfa7184a5280c829ad003ecbe7f340e87fb8e515f33b84b1a7eff0f56a796ce945c7fd1eb023887c68ec6ae6d9bebfe8732b0a9e0fbcfecdfa3c46691460ed04931420724ac70110a9c30e9fbeffe88b7d5c43b3800f6a69f5f155df018c88a0ce020eed56e5a157760e1f9cfcf7e30827bf4ff1fdb957e4eadb8ebe15749ba12405889c6005f06598588ac02b898a2a81770d222c9f237fbccab7aa0268247068bc9ce533d65cc7037dd7e58e872ac0daf3ee798dce2af6674d0a1039b52b00034528fac6503e8f15008c7dcbddf6e0ab3a4a402c9ec7fb552d1fd05c00c6fba25b140d4f4c8f955249011241b429801533064515a0f1dc42f2ca1bb37c4d0802be1eaf10aaabfd40aaeece0e9202444ee53800e8fa6e62b0486b4b9e9767d8750229ba438b8fa4009133f3d606fad6fea18fae9a93c77d3ec3ab898df326f6689635e7094c939cc1a4009133f519419ccb07ac983e9f67addbaf1bebfe3c966f7ebfa17504a12405889c601fc0172728cc83fe5344a47d6d9e95ed0b78ff7f581eef08ca60ee402d7b64aefe9e9fdc39f975f97a7a9f9bf7df2222225b6ef0bc49a5e17504bebf575280c8e919bfebae0b225d7c5bb8d5e75becd5129364fc3d5ffe7fd9e9742432f95604016ba7511f860284aed12cabcc490122275300d0b812145500f4fd1c812b6a996a916dde38d17f65600413d7b77c92502598e2b584490122a717ebc59b269b3ba04c9dfe7586055a7bf8f26c9ff136ef8956c1bc857b3c9f73aaa335ebc814b5fcc0f805aff6e5bf5fe8fb1b9302444e5b2470f33a1dbf567c1328f0e60f847acd56ec5dfbe2917db010b7bb16bf1bb91d8fcf83544628c1622a81ef7d0296c517cc27b0d6f957252940e4f4debc6851ee80cf27283ade8492bca1edaf38fc5ce7132dcbf058ba0fcbf2f1fb6db95c15ee9962edd546600691cff2b1db57560f8c1f2405889c9e0b9f9d7b41a4dd62aac603a000ac304c761d6b57ae9220966f299acfc799f28c27ba0ffefb588a1a7a9f49012227530080ffb4acaf2c391a8002005682aecd3d0462591ca8fbbeebcac20649011241349611048b8792405455946e010b1a59e6ea4ddfb74f51703f961254f54d9202444e633e4053587de6747bdbf94c212940e4fc1f3ed9e42d74944ade0000000049454e44ae426082680063036f726401011e6170706c69636174696f6e2f6a736f6e3b636861727365743d7574662d38004d61017b2270223a22766f7264222c2276223a312c227479223a22696e7363222c22636f6c223a2232386636653261633234346563653261393834356631626434626563356665626639616530393266393632653865356434626535333238343266623466616634222c22696964223a224f7264692041726d79204d656e222c227075626c223a2231455337623370636a527a4667796969714c7278484b546e43686535364c4a485937222c226e6f6e6365223a343938332c226d696e746572223a22626331707830617963743964366a7a3730643863733932777974637079676e6a7463726c6d75643938387165673438306c6b3473657679716c6474706378222c22736967223a2248496144343366785375457631673975377941753046454d636962722b583376314f50496a476e666d4955486153343539783638723874374f775174492f797a3046494f4834784d62614173344568386c695249464c553d227d68",
        "c1f2d00e1cce0b839d2e197679cac7a15152ec244338032c7767f72c1332d49a65675a92934efa5e4869b2432a3e00abfc6819367af43949c2edc693b32d23ac05"
      ],
      "is_coinbase": false,
      "sequence": 4294967293
    }
  ],
  "vout": [
    {
      "scriptpubkey": "512033fa4c2cadd485e7b4f88154e22f01222725e07fdf1a539c19454effdab0cb08",
      "scriptpubkey_asm": "OP_PUSHNUM_1 OP_PUSHBYTES_32 33fa4c2cadd485e7b4f88154e22f01222725e07fdf1a539c19454effdab0cb08",
      "scriptpubkey_type": "v1_p2tr",
      "scriptpubkey_address": "bc1px0ayct9d6jz70d8cs92wytcpygnjtcrlmud988qeg480lk4sevyqldtpcx",
      "value": 1000
    },
    {
      "scriptpubkey": "51205cb904dc38be4352e47edf3b611d3868854fcab832b9d82f9075282b8cac5ab7",
      "scriptpubkey_asm": "OP_PUSHNUM_1 OP_PUSHBYTES_32 5cb904dc38be4352e47edf3b611d3868854fcab832b9d82f9075282b8cac5ab7",
      "scriptpubkey_type": "v1_p2tr",
      "scriptpubkey_address": "bc1ptjusfhpchep49er7muakz8fcdzz5lj4cx2uastusw55zhr9vt2msk5y7x5",
      "value": 7215
    },
    {
      "scriptpubkey": "51200705a5767db892e98125775049b1a13dd9ecdc8aea0df413cabbee683e871012",
      "scriptpubkey_asm": "OP_PUSHNUM_1 OP_PUSHBYTES_32 0705a5767db892e98125775049b1a13dd9ecdc8aea0df413cabbee683e871012",
      "scriptpubkey_type": "v1_p2tr",
      "scriptpubkey_address": "bc1pquz62anahzfwnqf9wagynvdp8hv7ehy2agxlgy72h0hxs058zqfqk8ksyq",
      "value": 3258
    }
  ],
  "size": 4494,
  "weight": 5034,
  "fee": 13849,
  "status": {
    "confirmed": true,
    "block_height": 834464,
    "block_hash": "0000000000000000000177a0869a911a2b65c9bdcd5a8bcb02b68f305bee848e",
    "block_time": 1710308296
  },
  "hex": "0200000000010154355204706ba2b88863b73354643c1e46edc389f7945eb1112d1ef999d0e0580000000000fdffffff03e80300000000000022512033fa4c2cadd485e7b4f88154e22f01222725e07fdf1a539c19454effdab0cb082f1c0000000000002251205cb904dc38be4352e47edf3b611d3868854fcab832b9d82f9075282b8cac5ab7ba0c0000000000002251200705a5767db892e98125775049b1a13dd9ecdc8aea0df413cabbee683e87101203402975c2a54035bda9ac0d6481564bd9e2fde27d118dc0ff4bf255898943bbd8cf5e215378c859def8580e45b2637b25aa549334a2997d0d3ff5d4bd3e4cb12601fd511020f2d00e1cce0b839d2e197679cac7a15152ec244338032c7767f72c1332d49a65ac0063036f7264010109696d6167652f706e67004d080289504e470d0a1a0a0000000d4948445200000080000000800806000000c33e61cb000000097048597300000b1300000b1301009a9c1800000e2a49444154789ced9d5d8c55d515c7d7e060fd00a280404d3b26852130043576d2b4f2d1e883356d69da582326f541adfd08c64edfe4c134ad4df0ad5353aa867ef85420855a3b8969fba0a98c56cd9442913bca401aa92180a009c568a4421ff6fa1f72fef7aed9679f8f3b33d9fbf7b2679f7bee3e67ceccfaefb5d75e7b9f9e65bd7241a623776b39a0654bcbedcd5e76e286b9b97afffeffd6d3b0f1fb4cb41aba5e416675f56a8969474f550568cc6240979500bf4fd3968ffbe7e767d194322405889cdeb25f2cfa9f3b5d18b9e32e1111d9b07be7a4e775bb0ff6f1c6b22f8b88c8c83257f7ddbf0f7e0e4901222758012ccbffcdbc411111d9bc2e7f7ccb9e17c2efaac27d58165cd572ba052cbe29f8392405889c360528da57760d78fbea4df3b8b9343fe973e582a3ae5cbabcf379470eb9725360fb7abf231fe9f36ce9f3a4d10b14cbe753597f8faaa396a40091131c07e0ff54eeb35e3e795244eaeffb37afbb454444ee3b3336e9f5bdca05cbffdc659d3f7fed43111119d9ff05d7de03ff74c74395a04bf18baa7198a40091133c0af079a9372f5a54fa66eab8bec9a6f9ae449f2fd4e7abe5830d6777e6cf838fb0e9942bb7be5bee3e2ad2da98af9f1367f1b3c7cbf94649014d080222a774249099aa51c3864b3b7bd7195fa2fa69f50144fb7458367c829fe9f11f9242c00790f9f976ff42edd368a55f2db46adfdf7a547f584f1fbce80a2881ec9fbc9d14094ce4a83c1bd87542bd6b5680357df97ae613189ceeeb7cfc25fd9ea100757bffadbf794e78422fbb23acdda40091539b0f305d3023996bacc89f1101044bb5840f602942c30c7c315fcf14a1a4e583a4009133f37c00e0eb6bd1f7b3e5c3825ff2f4fd8caf9df99efb99a62405889cca3ec0d0d5d78888c8f07bef74fcfca91b6fcad5bfbb6f6fa9ebb4b52381edfc093fa8c51e0fbc81ddfabd255a5f13f8fd82e0f7e4e7c4cf992382208d02124134ee03f06cd5f33dfd22525c09f07d7c0fdc7a61424444fabfe92260433b9c85c83157648a740335b85872e7c992afb972ddb5aebcf3491111f9b5fc564444ee977bddf1df7fcf957f7832df1e226f15c7ffb0f095d77d3a779c9f539be5afd2f260fe705125480a1039990f80f133a82bb6cf965bd60780c53383bfe8111191d12b7596ee523a017db6d5e7bfa9cec19b5aff952beefff6abb9ba885a3ebc7db43b406549ef1f8af5942ac0f85bffc97d0e2544ccffcc92cb454464defa0fdc0998237822ecba49012227f301eace055c32fbf2493f3f7eee83a0f6d897b87bef591111d97ed39cfcf1e3eef8d809726d101768e50fcb77b45ca8e567b47c5a4b5816fa580811e6006aeafb791495f5f5dac70f4d08023ce2ca57beaacf55057b5e9ff11c0b46089302444ee603845abe958deab3fcb2e03ab01891b31dcf5bbbd099f2d8098a4bb0c58213543e439fc3f24f533bcad0bfd482073ac7417cf82cbf6dfe5f39f63ba77ccf9efdbc8888dcf3d3c973309153895c4dfcfd9202444ee948a02ffbf4c7ab56e6eadbfee1b26bdfbeccc8c62d082c6668a1b3bcad08e9eb307e78a35a94d517c39217d0f14354c724e169e98c2a4966f9817dbf379fdfb2fc77d4e7d1d188cff2adeb82a40091537b3e005b3e80b7bef5a85380e1f7c246014cdbdcc3ed810d1cd05295a32d2de034957f0d6cdf43d1fc7dce0358fda1662f6b24f3c0634e09573c4ccf437d08f814b3c7f3eb29405280c8a95d01ac88dd94c15e3f2c1a967f8cca9af1cd963218b74f689e7feb51a71488039cd3b98fd9bbdce7ab8f394538c70db10f31def97a490122a7f6d940fcc76feacbafb441df0f8a5a44305664cee7f55b0ab0da38dee5cc1f6f56b087238fe7e77a561c7e4e449202444fed3ec045cbbec6f37967785efc47075de765ce1d70deff4a64ed52ce1f226b3a6998e505f0dc800514c48a0b3444b622a866b0c6322940e434b62e20b48fbf18e377c0f24d60f9cb3424b6788e79aa885c9ce503a7a88e380094017303a7e938eaa35a223f4009f5fabd50a6cf635bddf0e5e19d61c396a537bab99e23fbf2be405280c899f27501983ddc38276fc13bce769eedcb7c01ce4d0802fb67c63d79ff03546fd1715f1d0a00788d60cdc0178002805025c06a62284b5280c899f2b5816cf95eb8ef6760f9b05464fa9ca2fa8bd2191e15707d21d5b3fbd01d431a52828b1941efe9755d71e6a8e606526610c6fd4b1f9a3ccf232940e4f4627e183b7d628f9fa9daf163f49433d54f69fdedeb297f00d9bd6b4839b0460f1ecd09290662e6ac109662e0380c1fa38fc3ddd933e8eb50182dff885dcbc815f2593e480a103953ee03f8d878d659d8f05534aec65abdb5862f005809b8cef1005fdd5296867d012bd7f2d8dfddf399f78d72f915490122275380a6f7f7b3c0ac21660b91d59b7d7e95fb7cd86a6094fa5eec56ceb37d3c1b088afa0a80338540977d815fde94cf0d2c4b5280c8a9cd07a8ba672de70f94660fd5a1089c0d7cc838ceb0a553eee0e0d37927612cbf14b27660f9a31feb75d5355afd90ae1d7c7cf2e78e4ca2732bdd79490122a73778b76d03c4112e522c5fddb75f7e9b92589140f60580a5080ba8642540dd581f801541a3f27ee7ebd60c22a68893c8d5e5da81e523f7302940e4f4d615f1abfa7e00afcfe09b03f0ed03002c45280a944027e1d62e77a396e1afe8f1d0ddc7ba85463279b5705280c899f691c0c66145e03c0163f49065fc0c4291745c5e73449033a55ed4ebaf57dfe4fbbed95458fe239d3f4e0a1039334e01069fcd670a8dadfac8fd80cca0ddd407df413b7afa7c042b4b18cac0f1024d080244fe10096c28228838c9a6bece16df36fea7cc1f8ba40091632a40ed6fd1aec8d06b1877eb38f8cad9eef8bf350b173b77dee1d9cddbca05f451f4bc9ae175161c313d70cecda1acd0ddc3ce5fe3328166adcf8feeb04a18a300ec09951420724c05c82284fba7c91b4441167ad7f5b05768157dbc95250cb80f2fab08d881947d8a139db399abc24a8051c0f2edb78a88c879eb8bb44a98f7834c0a1039a5d7050c7edc93ab8f5dd2b999ba57caf0b8386bf7363dc0f3fb8810f2ed7104905702f1ac6168de00f0bcc5ab2c5827709e2c1acc7a8794db88072405889cd27100cedc19332cbcee7d0082db63cb8765230268bd3208966fe509ac35e20e0cef560e4a2a83cff2db4891c0c464945680c676f8280b76f1e23d8100fa76ec0e869d3fd8d2d907e0ddc4eaa2a232fcfcf65772f51ffcd9ed189af5fd1ecb0749012267c6cd0504c3397dd7d2f1a2966fed10c29147ac4dc49e4196a55be07c5282d75baecfcfc6fbdbf20a308bf23ad8f2ad8caba4009133e5fb03d48eb52fa00596d7c327b02c9f41c4100ac0966f5150115a8fbb12b17dc07d3cf0f5f54901121da9ec03f07fd6bad6ff72756b772f5f8490d7c285be61a430af539dbd7d4b0100e20045c7f545cf530bffc42eb79f1f7608053e8b0796e583a40091932940b7e7ff1b8f2370de3faf1564a004ac00f81e470c79c551cd317f58f8e0c7fa0ea48aedf3ba8dfbceb8dd4d0802c39302444e9b0f10aa04dce733e8cb43fb705e0973fc92825f84c52f363ef72901228ab7199f5bed62f451f39ec1d62c6b5190d771b3d65f3e7932773c2940e4948e03f8de0e060bc67e7f55df13e8552458a04f0130af0f25f0bd09044ac03e05b7cff9040def1e5e14ce00025811961420721a53008bc6c6f34515a0ecfefe14611cdca31951faaee2b17b2f04b56fc539906955b6efdf3cdfc557b6bc5b6c949514207266fc6c60969bf8bc2bc6ee6c686a43fbf6c1fdee7adb97d00a9d5daee81f98dc57b19413c7c7a49c42c2f2f760ff00326debddd0490122a7b202b4ed5c41547d53a805e612f8ba432fe81cc32dda075afbff8782d18267678eec5dc232791fcccf0d399655dfa7184a5280c829ad003ecbe7f340e87fb8e515f33b84b1a7eff0f56a796ce945c7fd1eb023887c68ec6ae6d9bebfe8732b0a9e0fbcfecdfa3c46691460ed04931420724ac70110a9c30e9fbeffe88b7d5c43b3800f6a69f5f155df018c88a0ce020eed56e5a157760e1f9cfcf7e30827bf4ff1fdb957e4eadb8ebe15749ba12405889c6005f06598588ac02b898a2a81770d222c9f237fbccab7aa0268247068bc9ce533d65cc7037dd7e58e872ac0daf3ee798dce2af6674d0a1039b52b00034528fac6503e8f15008c7dcbddf6e0ab3a4a402c9ec7fb552d1fd05c00c6fba25b140d4f4c8f955249011241b429801533064515a0f1dc42f2ca1bb37c4d0802be1eaf10aaabfd40aaeece0e9202444ee53800e8fa6e62b0486b4b9e9767d8750229ba438b8fa4009133f3d606fad6fea18fae9a93c77d3ec3ab898df326f6689635e7094c939cc1a4009133f519419ccb07ac983e9f67addbaf1bebfe3c966f7ebfa17504a12405889c601fc0172728cc83fe5344a47d6d9e95ed0b78ff7f581eef08ca60ee402d7b64aefe9e9fdc39f975f97a7a9f9bf7df2222225b6ef0bc49a5e17504bebf575280c8e919bfebae0b225d7c5bb8d5e75becd5129364fc3d5ffe7fd9e9742432f95604016ba7511f860284aed12cabcc490122275300d0b812145500f4fd1c812b6a996a916dde38d17f65600413d7b77c92502598e2b584490122a717ebc59b269b3ba04c9dfe7586055a7bf8f26c9ff136ef8956c1bc857b3c9f73aaa335ebc814b5fcc0f805aff6e5bf5fe8fb1b9302444e5b2470f33a1dbf567c1328f0e60f847acd56ec5dfbe2917db010b7bb16bf1bb91d8fcf83544628c1622a81ef7d0296c517cc27b0d6f957252940e4f4debc6851ee80cf27283ade8492bca1edaf38fc5ce7132dcbf058ba0fcbf2f1fb6db95c15ee9962edd546600691cff2b1db57560f8c1f2405889c9e0b9f9d7b41a4dd62aac603a000ac304c761d6b57ae9220966f299acfc799f28c27ba0ffefb588a1a7a9f49012227530080ffb4acaf2c391a8002005682aecd3d0462591ca8fbbeebcac20649011241349611048b8792405455946e010b1a59e6ea4ddfb74f51703f961254f54d9202444e633e4053587de6747bdbf94c212940e4fc1f3ed9e42d74944ade0000000049454e44ae426082680063036f726401011e6170706c69636174696f6e2f6a736f6e3b636861727365743d7574662d38004d61017b2270223a22766f7264222c2276223a312c227479223a22696e7363222c22636f6c223a2232386636653261633234346563653261393834356631626434626563356665626639616530393266393632653865356434626535333238343266623466616634222c22696964223a224f7264692041726d79204d656e222c227075626c223a2231455337623370636a527a4667796969714c7278484b546e43686535364c4a485937222c226e6f6e6365223a343938332c226d696e746572223a22626331707830617963743964366a7a3730643863733932777974637079676e6a7463726c6d75643938387165673438306c6b3473657679716c6474706378222c22736967223a2248496144343366785375457631673975377941753046454d636962722b583376314f50496a476e666d4955486153343539783638723874374f775174492f797a3046494f4834784d62614173344568386c695249464c553d227d6841c1f2d00e1cce0b839d2e197679cac7a15152ec244338032c7767f72c1332d49a65675a92934efa5e4869b2432a3e00abfc6819367af43949c2edc693b32d23ac0500000000"
}