{
  "txid": "22592e2d1463064769e39ae6d68f5f23d6327c91aab1fde108b7f4a3e381b51d",
  "version": 2,
  "locktime": 834637,
  "vin": [
    {
      "txid": "b3c16e152733eca6f7052b51376fa3be6f6a97aaaafff75f2609cfd651a9a594",
      "vout": 0,
      "prevout": {
        "scriptpubkey": "0014154f87ab02cd82db18a9d9a7c53c733ab86ac4bc",
        "scriptpubkey_asm": "OP_0 OP_PUSHBYTES_20 154f87ab02cd82db18a9d9a7c53c733ab86ac4bc",
        "scriptpubkey_type": "v0_p2wpkh",
        "scriptpubkey_address": "bc1qz48c02czekpdkx9fmxnu20rn82ux439uu03xlv",
        "value": 309894192
      },
      "scriptsig": "",
      "scriptsig_asm": "",
      "witness": [
        "3044022012681fc02e2e9dfa80bd1d816c9a2efa6206172bc0954b02bef9b4e3ae60e5720220297d8805d226f485b214eca61875faab6be36c04c3e3bfd07004d9c56caa967c01",
        "0304e869c1b176a30906736ac802a0a4b8143904e35440da7e6db1f62b0a33b347"
      ],
      "is_coinbase": false,
      "sequence": 4294967294
    }
  ],
  "vout": [
    {
      "scriptpubkey": "0014da662b27c0f73da93c74eec010306b80daa91309",
      "scriptpubkey_asm": "OP_0 OP_PUSHBYTES_20 da662b27c0f73da93c74eec010306b80daa91309",
      "scriptpubkey_type": "v0_p2wpkh",
      "scriptpubkey_address": "bc1qmfnzkf7q7u76j0r5amqpqvrtsrd2jycffm0rfq",
      "value": 307137612
    },
    {
      "scriptpubkey": "a9141c853212dbc7ebeb1297d0665709ff703bcc1d0687",
      "scriptpubkey_asm": "OP_HASH160 OP_PUSHBYTES_20 1c853212dbc7ebeb1297d0665709ff703bcc1d06 OP_EQUAL",
      "scriptpubkey_type": "p2sh",
      "scriptpubkey_address": "34HpQWPfon55YfGTj5Zte4NJoWWPxqPgMg",
      "value": 2753100
    }
  ],
  "size": 223,
  "weight": 565,
  "fee": 3480,
  "status": {
    "confirmed": true,
    "block_height": 834638,
    "block_hash": "000000000000000000025f742c626208ac87e0b7d15054abb4a19ca2d735a54e",
    "block_time": 1710405325
  },
  "hex": "0200000000010194a5a951d6cf09265ff7ffaaaa976a6fbea36f37512b05f7a6ec3327156ec1b30000000000feffffff024c8c4e1200000000160014da662b27c0f73da93c74eec010306b80daa913094c022a000000000017a9141c853212dbc7ebeb1297d0665709ff703bcc1d068702473044022012681fc02e2e9dfa80bd1d816c9a2efa6206172bc0954b02bef9b4e3ae60e5720220297d8805d226f485b214eca61875faab6be36c04c3e3bfd07004d9c56caa967c01210304e869c1b176a30906736ac802a0a4b8143904e35440da7e6db1f62b0a33b3474dbc0c00"
}