{
  "txid": "229399c8cb0e5809c0e2c61b589d7e4a6ea418ebb78e13a7f3246619c9b01fda",
  "version": 2,
  "locktime": 0,
  "vin": [
    {
      "txid": "5d9353c71e1cef289e478e958010e39e28e9da9aa1c3584c05741b0720b838f3",
      "vout": 1,
      "prevout": {
        "scriptpubkey": "001401e738d78bcd76365baf7e196be82211b2cde75a",
        "scriptpubkey_asm": "OP_0 OP_PUSHBYTES_20 01e738d78bcd76365baf7e196be82211b2cde75a",
        "scriptpubkey_type": "v0_p2wpkh",
        "scriptpubkey_address": "bc1qq8nn34ute4mrvka00cvkh6pzzxevme66jl845q",
        "value": 1495039
      },
      "scriptsig": "",
      "scriptsig_asm": "",
      "witness": [
        "304402206b655070d03eb352e5c2c2ddc2f8f2d586b4b287259afc7a9abfc23b75551e9502207b884ea123d4c956f41f7909a2668afed19a364726f04030739fc62efe70c69301",
        "035a86d5fe41b127f01c14f363fdd557a50a7bead6ce9a72423dd26d63587f82a6"
      ],
      "is_coinbase": false,
      "sequence": 4294967295
    }
  ],
  "vout": [
    {
      "scriptpubkey": "0020e70c5f772276ef776f4b39f27ec1b079a4ff407b23bd3877209bff340d5331fd",
      "scriptpubkey_asm": "OP_0 OP_PUSHBYTES_32 e70c5f772276ef776f4b39f27ec1b079a4ff407b23bd3877209bff340d5331fd",
      "scriptpubkey_type": "v0_p2wsh",
      "scriptpubkey_address": "bc1quux97aezwmhhwm6t88e8asds0xj07srmyw7nsaeqn0lngr2nx87shlplrd",
      "value": 27022
    },
    {
      "scriptpubkey": "001451da1b9062af772a525ab87510ba42d2219aee94",
      "scriptpubkey_asm": "OP_0 OP_PUSHBYTES_20 51da1b9062af772a525ab87510ba42d2219aee94",
      "scriptpubkey_type": "v0_p2wpkh",
      "scriptpubkey_address": "bc1q28dphyrz4amj55j6hp63pwjz6gse4m55ea0x39",
      "value": 1465140
    }
  ],
  "size": 234,
  "weight": 609,
  "fee": 2877,
  "status": {
    "confirmed": true,
    "block_height": 834638,
    "block_hash": "000000000000000000025f742c626208ac87e0b7d15054abb4a19ca2d735a54e",
    "block_time": 1710405325
  },
  "hex": "02000000000101f338b820071b74054c58c3a19adae9289ee31080958e479e28ef1c1ec753935d0100000000ffffffff028e69000000000000220020e70c5f772276ef776f4b39f27ec1b079a4ff407b23bd3877209bff340d5331fd345b16000000000016001451da1b9062af772a525ab87510ba42d2219aee940247304402206b655070d03eb352e5c2c2ddc2f8f2d586b4b287259afc7a9abfc23b75551e9502207b884ea123d4c956f41f7909a2668afed19a364726f04030739fc62efe70c6930121035a86d5fe41b127f01c14f363fdd557a50a7bead6ce9a72423dd26d63587f82a600000000"
}