{
  "txid": "22a37a0a183b02dec4d15a04dcaa6547a7bad9435380b01b0108fb842e704996",
  "version": 1,
  "locktime": 834637,
  "vin": [
    {
      "txid": "e13b0acc659e618342e6bb2dba602ee5aff5754d0973f5193d1bf33a7dac6f26",
      "vout": 74,
      "prevout": {
        "scriptpubkey": "0014f7dfe59361f7680ddad9948936839cfb7057d0ae",
        "scriptpubkey_asm": "OP_0 OP_PUSHBYTES_20 f7dfe59361f7680ddad9948936839cfb7057d0ae",
        "scriptpubkey_type": "v0_p2wpkh",
        "scriptpubkey_address": "bc1q7l07tymp7a5qmkkejjyndquuldc9059wf2az54",
        "value": 43542
      },
      "scriptsig": "",
      "scriptsig_asm": "",
      "witness": [
        "30440220610002e9e9287c2b2a863fef905e18289d8bbec0e9f60b5439f761bacfd2454302200cdc31e741207bb5c57bd046f6e6b03c333d9cc9d5a5e42c9734feea9626149e01",
        "031adf795b6a5cbb9ed280e1e4357a8128de4f1a840b45ab1c06ce1fff0242e0a2"
      ],
      "is_coinbase": false,
      "sequence": 4294967293
    }
  ],
  "vout": [
    {
      "scriptpubkey": "0014cc5f8e536343b9ea489e2bcf10f1a16bb72efae7",
      "scriptpubkey_asm": "OP_0 OP_PUSHBYTES_20 cc5f8e536343b9ea489e2bcf10f1a16bb72efae7",
      "scriptpubkey_type": "v0_p2wpkh",
      "scriptpubkey_address": "bc1qe30cu5mrgwu75jy79083pudpdwmja7h8wduevs",
      "value": 40500
    }
  ],
  "size": 191,
  "weight": 437,
  "fee": 3042,
  "status": {
    "confirmed": true,
    "block_height": 834638,
    "block_hash": "000000000000000000025f742c626208ac87e0b7d15054abb4a19ca2d735a54e",
    "block_time": 1710405325
  },
  "hex": "01000000000101266fac7d3af31b3d19f573094d75f5afe52e60ba2dbbe64283619e65cc0a3be14a00000000fdffffff01349e000000000000160014cc5f8e536343b9ea489e2bcf10f1a16bb72efae7024730440220610002e9e9287c2b2a863fef905e18289d8bbec0e9f60b5439f761bacfd2454302200cdc31e741207bb5c57bd046f6e6b03c333d9cc9d5a5e42c9734feea9626149e0121031adf795b6a5cbb9ed280e1e4357a8128de4f1a840b45ab1c06ce1fff0242e0a24dbc0c00"
}