{
  "txid": "22a5dc0e8257f0e25997eed630f8b7ac96cc7531984abe0c64cc8c46657b6ae3",
  "version": 2,
  "locktime": 0,
  "vin": [
    {
      "txid": "9ec3e6743c2cd96b18bd948bba221c5d67669c46a4ad88cd10393b49682d8f96",
      "vout": 196,
      "prevout": {
        "scriptpubkey": "0014775f8b990c6dd7e27f654a6f3953ae1378db384a",
        "scriptpubkey_asm": "OP_0 OP_PUSHBYTES_20 775f8b990c6dd7e27f654a6f3953ae1378db384a",
        "scriptpubkey_type": "v0_p2wpkh",
        "scriptpubkey_address": "bc1qwa0chxgvdht7ylm9ffhnj5awzdudkwz280sls6",
        "value": 82738402
      },
      "scriptsig": "",
      "scriptsig_asm": "",
      "witness": [
        "304402200e06d08e1be4beffae1289d091553ac30d6b24e3a3a4187ae3e0843eeb709db202203cf8583523f487c308238a7f7d26b6b9bcd21802b20d31f38ad1f2193b9c95d401",
        "02cadd92653cbf7f8fe47f79675880ddea21ce26eef10e8402b2c53035c1935103"
      ],
      "is_coinbase": false,
      "sequence": 4294967295
    }
  ],
  "vout": [
    {
      "scriptpubkey": "0014bd531d5569a2fb5716b6efff600e89b5ee945706",
      "scriptpubkey_asm": "OP_0 OP_PUSHBYTES_20 bd531d5569a2fb5716b6efff600e89b5ee945706",
      "scriptpubkey_type": "v0_p2wpkh",
      "scriptpubkey_address": "bc1qh4f364tf5ta4w94kallkqr5fkhhfg4cx9xqynl",
      "value": 28150
    },
    {
      "scriptpubkey": "76a9141dfaa378107f9570a601066e21a425ccd1b726bc88ac",
      "scriptpubkey_asm": "OP_DUP OP_HASH160 OP_PUSHBYTES_20 1dfaa378107f9570a601066e21a425ccd1b726bc OP_EQUALVERIFY OP_CHECKSIG",
      "scriptpubkey_type": "p2pkh",
      "scriptpubkey_address": "13jWrEdAysHSmBiiGk7xb39P4xpBmB6mUd",
      "value": 321386
    },
    {
      "scriptpubkey": "001404db8d3204c346482911382e302e11c3079d99dd",
      "scriptpubkey_asm": "OP_0 OP_PUSHBYTES_20 04db8d3204c346482911382e302e11c3079d99dd",
      "scriptpubkey_type": "v0_p2wpkh",
      "scriptpubkey_address": "bc1qqndc6vsycdrys2g38qhrqts3cvremxwafxq20q",
      "value": 41399
    },
    {
      "scriptpubkey": "0014916f88b7e56e65a6b05168de4f33fcbedbd8dcea",
      "scriptpubkey_asm": "OP_0 OP_PUSHBYTES_20 916f88b7e56e65a6b05168de4f33fcbedbd8dcea",
      "scriptpubkey_type": "v0_p2wpkh",
      "scriptpubkey_address": "bc1qj9hc3dl9dej6dvz3dr0y7vluhmda3h82v57mv9",
      "value": 29115
    },
    {
      "scriptpubkey": "0014a5f9f12267bef71abbc39723441a3b80e8f01289",
      "scriptpubkey_asm": "OP_0 OP_PUSHBYTES_20 a5f9f12267bef71abbc39723441a3b80e8f01289",
      "scriptpubkey_type": "v0_p2wpkh",
      "scriptpubkey_address": "bc1q5hulzgn8hmm34w7rju35gx3msr50qy5fpk06ac",
      "value": 127563
    },
    {
      "scriptpubkey": "a91476197422d6199b801c04f1966b9bc75b35ef6a4e87",
      "scriptpubkey_asm": "OP_HASH160 OP_PUSHBYTES_20 76197422d6199b801c04f1966b9bc75b35ef6a4e OP_EQUAL",
      "scriptpubkey_type": "p2sh",
      "scriptpubkey_address": "3CTU9jLgfG5V7sxXJPHfWfiRmRewiMCksa",
      "value": 102218
    },
    {
      "scriptpubkey": "0014205d7a3d94595886979bdbad7aa5921cf59b733f",
      "scriptpubkey_asm": "OP_0 OP_PUSHBYTES_20 205d7a3d94595886979bdbad7aa5921cf59b733f",
      "scriptpubkey_type": "v0_p2wpkh",
      "scriptpubkey_address": "bc1qypwh50v5t9vgd9ummwkh4fvjrn6ekuelzufzku",
      "value": 68143
    },
    {
      "scriptpubkey": "00146af03f9f162299e207ec322968c4fcfe902de5e3",
      "scriptpubkey_asm": "OP_0 OP_PUSHBYTES_20 6af03f9f162299e207ec322968c4fcfe902de5e3",
      "scriptpubkey_type": "v0_p2wpkh",
      "scriptpubkey_address": "bc1qdtcrl8cky2v7yplvxg5k338ul6gzme0r97xzxf",
      "value": 408941
    },
    {
      "scriptpubkey": "0014a46baecb715d76397e2a1b6cfab4881824af94b1",
      "scriptpubkey_asm": "OP_0 OP_PUSHBYTES_20 a46baecb715d76397e2a1b6cfab4881824af94b1",
      "scriptpubkey_type": "v0_p2wpkh",
      "scriptpubkey_address": "bc1q5346ajm3t4mrjl32rdk04dygrqj2l993txnx55",
      "value": 125385
    },
    {
      "scriptpubkey": "0014c8293b5f66a4287475f500da3ae57395f9b5c1d2",
      "scriptpubkey_asm": "OP_0 OP_PUSHBYTES_20 c8293b5f66a4287475f500da3ae57395f9b5c1d2",
      "scriptpubkey_type": "v0_p2wpkh",
      "scriptpubkey_address": "bc1qeq5nkhmx5s58ga04qrdr4etnjhumtswjgweger",
      "value": 20855
    },
    {
      "scriptpubkey": "0014f8ca1ff6269a8d54f2b3529bd5a8cef8ba51b755",
      "scriptpubkey_asm": "OP_0 OP_PUSHBYTES_20 f8ca1ff6269a8d54f2b3529bd5a8cef8ba51b755",
      "scriptpubkey_type": "v0_p2wpkh",
      "scriptpubkey_address": "bc1qlr9pla3xn2x4fu4n22dat2xwlza9rd6440wzqf",
      "value": 61286
    },
    {
      "scriptpubkey": "00140d79d2849aac57a6b2b379db90119ce70070b3b5",
      "scriptpubkey_asm": "OP_0 OP_PUSHBYTES_20 0d79d2849aac57a6b2b379db90119ce70070b3b5",
      "scriptpubkey_type": "v0_p2wpkh",
      "scriptpubkey_address": "bc1qp4ua9py643t6dv4n08deqyvuuuq8pva4agp64g",
      "value": 408887
    },
    {
      "scriptpubkey": "a914357ecf25e2d91ca4a62328e88844b7429aa300c587",
      "scriptpubkey_asm": "OP_HASH160 OP_PUSHBYTES_20 357ecf25e2d91ca4a62328e88844b7429aa300c5 OP_EQUAL",
      "scriptpubkey_type": "p2sh",
      "scriptpubkey_address": "36ZseZovmsDMr75U3Ey1fcPmHz4DCXBceS",
      "value": 272580
    },
    {
      "scriptpubkey": "76a9141ed8a96c59557f6fb762e7f94f7d482f451dcee488ac",
      "scriptpubkey_asm": "OP_DUP OP_HASH160 OP_PUSHBYTES_20 1ed8a96c59557f6fb762e7f94f7d482f451dcee4 OP_EQUALVERIFY OP_CHECKSIG",
      "scriptpubkey_type": "p2pkh",
      "scriptpubkey_address": "13p6pgX4q4eXXJdrGNpZSJMaxSgeNWs5Wo",
      "value": 24512
    },
    {
      "scriptpubkey": "76a9147c11a9582401a164ace50e79b47de314f97affb288ac",
      "scriptpubkey_asm": "OP_DUP OP_HASH160 OP_PUSHBYTES_20 7c11a9582401a164ace50e79b47de314f97affb2 OP_EQUALVERIFY OP_CHECKSIG",
      "scriptpubkey_type": "p2pkh",
      "scriptpubkey_address": "1CK1wvv8VWK7rLKjckD6rQRWfsSR8n6fvR",
      "value": 40889
    },
    {
      "scriptpubkey": "0014ec0819ae009baebcb4ebf87ba8fd85a1f2afcb7e",
      "scriptpubkey_asm": "OP_0 OP_PUSHBYTES_20 ec0819ae009baebcb4ebf87ba8fd85a1f2afcb7e",
      "scriptpubkey_type": "v0_p2wpkh",
      "scriptpubkey_address": "bc1qasypntsqnwhted8tlpa63lv958e2ljm75ksa2d",
      "value": 134551
    },
    {
      "scriptpubkey": "0014ace5b2d1d6f4b940e02146b7538409c93812f3db",
      "scriptpubkey_asm": "OP_0 OP_PUSHBYTES_20 ace5b2d1d6f4b940e02146b7538409c93812f3db",
      "scriptpubkey_type": "v0_p2wpkh",
      "scriptpubkey_address": "bc1q4njm95wk7ju5pcppg6m48pqfeyup9u7m3st8j3",
      "value": 8459
    },
    {
      "scriptpubkey": "0014bc8c09dd1980176a0e4023b9f0d5d35de3eceaa2",
      "scriptpubkey_asm": "OP_0 OP_PUSHBYTES_20 bc8c09dd1980176a0e4023b9f0d5d35de3eceaa2",
      "scriptpubkey_type": "v0_p2wpkh",
      "scriptpubkey_address": "bc1qhjxqnhgesqtk5rjqywulp4wnth37e64zzt3rcl",
      "value": 61297
    },
    {
      "scriptpubkey": "76a9149f2afcdf89af973477d38e79b116da15979e7f6f88ac",
      "scriptpubkey_asm": "OP_DUP OP_HASH160 OP_PUSHBYTES_20 9f2afcdf89af973477d38e79b116da15979e7f6f OP_EQUALVERIFY OP_CHECKSIG",
      "scriptpubkey_type": "p2pkh",
      "scriptpubkey_address": "1FWbwLznotQZ7fMzCX7VaTfGx2HEkneYNW",
      "value": 34759
    },
    {
      "scriptpubkey": "001471dee5bf8378d1086307cb229321f4dec09ed549",
      "scriptpubkey_asm": "OP_0 OP_PUSHBYTES_20 71dee5bf8378d1086307cb229321f4dec09ed549",
      "scriptpubkey_type": "v0_p2wpkh",
      "scriptpubkey_address": "bc1qw80wt0ur0rgsscc8ev3fxg05mmqfa42f6d6yyu",
      "value": 53314
    },
    {
      "scriptpubkey": "001468f555e0369a8c298af926f07fda4d99ebcdeaff",
      "scriptpubkey_asm": "OP_0 OP_PUSHBYTES_20 68f555e0369a8c298af926f07fda4d99ebcdeaff",
      "scriptpubkey_type": "v0_p2wpkh",
      "scriptpubkey_address": "bc1qdr64tcpkn2xznzheymc8lkjdn84um6hlzzptll",
      "value": 1131431
    },
    {
      "scriptpubkey": "a9146912a7389b3d988f09d7c3abe427f8f92094c74d87",
      "scriptpubkey_asm": "OP_HASH160 OP_PUSHBYTES_20 6912a7389b3d988f09d7c3abe427f8f92094c74d OP_EQUAL",
      "scriptpubkey_type": "p2sh",
      "scriptpubkey_address": "3BGbDjVqMo89sXEM6M5QXswNFfcKV85V7R",
      "value": 54527
    },
    {
      "scriptpubkey": "a91451e5cb3329c4ee171729e79e2ba31e176f7dea2487",
      "scriptpubkey_asm": "OP_HASH160 OP_PUSHBYTES_20 51e5cb3329c4ee171729e79e2ba31e176f7dea24 OP_EQUAL",
      "scriptpubkey_type": "p2sh",
      "scriptpubkey_address": "39A3wRzHLtt3PmBcmLnafP7bgEH4ng4Gk9",
      "value": 21518
    },
    {
      "scriptpubkey": "0020ddf0a2f840e09d989f1af2a5118f4ad44c01c85d880c14abb10a1bc7e0566f0e",
      "scriptpubkey_asm": "OP_0 OP_PUSHBYTES_32 ddf0a2f840e09d989f1af2a5118f4ad44c01c85d880c14abb10a1bc7e0566f0e",
      "scriptpubkey_type": "v0_p2wsh",
      "scriptpubkey_address": "bc1qmhc297zquzwe38c672j3rr6263xqrjza3qxpf2a3pgdu0czkdu8qc6vqg8",
      "value": 612900
    },
    {
      "scriptpubkey": "0014cd26ba4a07209776d6045220ebcad4f83e9610af",
      "scriptpubkey_asm": "OP_0 OP_PUSHBYTES_20 cd26ba4a07209776d6045220ebcad4f83e9610af",
      "scriptpubkey_type": "v0_p2wpkh",
      "scriptpubkey_address": "bc1qe5nt5js8yzthd4sy2gswhjk5lqlfvy90m3y65d",
      "value": 14886
    },
    {
      "scriptpubkey": "a91490be245cc89ed8f9335ac34098e023bc5bbc8b0787",
      "scriptpubkey_asm": "OP_HASH160 OP_PUSHBYTES_20 90be245cc89ed8f9335ac34098e023bc5bbc8b07 OP_EQUAL",
      "scriptpubkey_type": "p2sh",
      "scriptpubkey_address": "3EtM1U6PewiVm5phvyrVKbhfd9BGnnuo8M",
      "value": 207643
    },
    {
      "scriptpubkey": "00143b32a7a027dd0b7efce9a4a410490fbc6f03d57e",
      "scriptpubkey_asm": "OP_0 OP_PUSHBYTES_20 3b32a7a027dd0b7efce9a4a410490fbc6f03d57e",
      "scriptpubkey_type": "v0_p2wpkh",
      "scriptpubkey_address": "bc1q8ve20gp8m59hal8f5jjpqjg0h3hs84t78axesh",
      "value": 394741
    },
    {
      "scriptpubkey": "0020c8067f25e11c3559c9f2f6df44df6e1fc4c73f993e529ceea5ac752b15fa0d47",
      "scriptpubkey_asm": "OP_0 OP_PUSHBYTES_32 c8067f25e11c3559c9f2f6df44df6e1fc4c73f993e529ceea5ac752b15fa0d47",
      "scriptpubkey_type": "v0_p2wsh",
      "scriptpubkey_address": "bc1qeqr87f0prs64nj0j7m05fhmwrlzvw0ue8effem49436jk906p4rs0efsn4",
      "value": 61291
    },
    {
      "scriptpubkey": "76a9148a189952c500e121349a413bab6fb9d259a23fa888ac",
      "scriptpubkey_asm": "OP_DUP OP_HASH160 OP_PUSHBYTES_20 8a189952c500e121349a413bab6fb9d259a23fa8 OP_EQUALVERIFY OP_CHECKSIG",
      "scriptpubkey_type": "p2pkh",
      "scriptpubkey_address": "1DbBidriXP7zKqpWjUZ1if22cKGCLBnHNo",
      "value": 8269
    },
    {
      "scriptpubkey": "a914a2fb78f24a79ed728bc697d748ca91de6e65dde987",
      "scriptpubkey_asm": "OP_HASH160 OP_PUSHBYTES_20 a2fb78f24a79ed728bc697d748ca91de6e65dde9 OP_EQUAL",
      "scriptpubkey_type": "p2sh",
      "scriptpubkey_address": "3GYneERST4x46FGQvjTJnjmeuXgB8ruZqE",
      "value": 32123
    },
    {
      "scriptpubkey": "0014d12e9ace24036ccf0c21518c85a030fa683df36c",
      "scriptpubkey_asm": "OP_0 OP_PUSHBYTES_20 d12e9ace24036ccf0c21518c85a030fa683df36c",
      "scriptpubkey_type": "v0_p2wpkh",
      "scriptpubkey_address": "bc1q6yhf4n3yqdkv7rpp2xxgtgpslf5rmumvchcarx",
      "value": 37424
    },
    {
      "scriptpubkey": "76a914dbf07d19d6888c072b57f04b412b24fca5c2614088ac",
      "scriptpubkey_asm": "OP_DUP OP_HASH160 OP_PUSHBYTES_20 dbf07d19d6888c072b57f04b412b24fca5c26140 OP_EQUALVERIFY OP_CHECKSIG",
      "scriptpubkey_type": "p2pkh",
      "scriptpubkey_address": "1M3w5TWFoCyx6fNxyaxXpttEk5FSVGj1Xu",
      "value": 661174
    },
    {
      "scriptpubkey": "0014acc89f93f869091b1768db857b55e867ab671e5e",
      "scriptpubkey_asm": "OP_0 OP_PUSHBYTES_20 acc89f93f869091b1768db857b55e867ab671e5e",
      "scriptpubkey_type": "v0_p2wpkh",
      "scriptpubkey_address": "bc1q4nyflylcdyy3k9mgmwzhk40gv74kw8j70m0efa",
      "value": 136400
    },
    {
      "scriptpubkey": "0014a42c6f8c4b24b2bbf6973454b19035f5f4f9e45c",
      "scriptpubkey_asm": "OP_0 OP_PUSHBYTES_20 a42c6f8c4b24b2bbf6973454b19035f5f4f9e45c",
      "scriptpubkey_type": "v0_p2wpkh",
      "scriptpubkey_address": "bc1q5skxlrztyjetha5hx32tryp47h60nezu64at0r",
      "value": 13557
    },
    {
      "scriptpubkey": "0014f2c5fb01f7dbb44167539fae08649dbdab6268c2",
      "scriptpubkey_asm": "OP_0 OP_PUSHBYTES_20 f2c5fb01f7dbb44167539fae08649dbdab6268c2",
      "scriptpubkey_type": "v0_p2wpkh",
      "scriptpubkey_address": "bc1q7tzlkq0hmw6yze6nn7hqseyahk4ky6xzgn9s3y",
      "value": 67921
    },
    {
      "scriptpubkey": "a9142ed5a86c88667bbb1b9efd0926e6244c0791efec87",
      "scriptpubkey_asm": "OP_HASH160 OP_PUSHBYTES_20 2ed5a86c88667bbb1b9efd0926e6244c0791efec OP_EQUAL",
      "scriptpubkey_type": "p2sh",
      "scriptpubkey_address": "35xexaZmGLBVi4j8PsLf2TGKwkNUXDwZKP",
      "value": 48035
    },
    {
      "scriptpubkey": "00143fefed6163160598ad2ff2bd867bad9b2dd58b95",
      "scriptpubkey_asm": "OP_0 OP_PUSHBYTES_20 3fefed6163160598ad2ff2bd867bad9b2dd58b95",
      "scriptpubkey_type": "v0_p2wpkh",
      "scriptpubkey_address": "bc1q8lh76ctrzcze3tf0727cv7adnvkatzu4vhkfkh",
      "value": 74960
    },
    {
      "scriptpubkey": "0014720a026618d200cb8e94dca179ad663b0722f8b7",
      "scriptpubkey_asm": "OP_0 OP_PUSHBYTES_20 720a026618d200cb8e94dca179ad663b0722f8b7",
      "scriptpubkey_type": "v0_p2wpkh",
      "scriptpubkey_address": "bc1qwg9qyesc6gqvhr55mjshnttx8vrj979hzexpnv",
      "value": 28140
    },
    {
      "scriptpubkey": "0014de31569a1c281e72d49b14550c7bfcee60272d8e",
      "scriptpubkey_asm": "OP_0 OP_PUSHBYTES_20 de31569a1c281e72d49b14550c7bfcee60272d8e",
      "scriptpubkey_type": "v0_p2wpkh",
      "scriptpubkey_address": "bc1qmcc4dxsu9q0894ymz32sc7luaeszwtvwdv0tux",
      "value": 174418
    },
    {
      "scriptpubkey": "a914906afa1f42603386911267e5b522949a056dfffc87",
      "scriptpubkey_asm": "OP_HASH160 OP_PUSHBYTES_20 906afa1f42603386911267e5b522949a056dfffc OP_EQUAL",
      "scriptpubkey_type": "p2sh",
      "scriptpubkey_address": "3ErdP4ZyqnZWn7QhS7Xa7MU5eYLiJ6F39S",
      "value": 42710
    },
    {
      "scriptpubkey": "a914ab2149336cb9af74f32df7442a027dbd2d5604e587",
      "scriptpubkey_asm": "OP_HASH160 OP_PUSHBYTES_20 ab2149336cb9af74f32df7442a027dbd2d5604e5 OP_EQUAL",
      "scriptpubkey_type": "p2sh",
      "scriptpubkey_address": "3HHsM6S59uoKsfemAHcpbUYTepHdC9ejmh",
      "value": 40893
    },
    {
      "scriptpubkey": "a914fad34b8901d5d8ca35be06d2e3b63d1debdd854d87",
      "scriptpubkey_asm": "OP_HASH160 OP_PUSHBYTES_20 fad34b8901d5d8ca35be06d2e3b63d1debdd854d OP_EQUAL",
      "scriptpubkey_type": "p2sh",
      "scriptpubkey_address": "3QZFyYEywSboK5n6K7x624BDEbm4PgBJL6",
      "value": 101013
    },
    {
      "scriptpubkey": "76a91415ef485b26253ed548dff64684148a735705d60d88ac",
      "scriptpubkey_asm": "OP_DUP OP_HASH160 OP_PUSHBYTES_20 15ef485b26253ed548dff64684148a735705d60d OP_EQUALVERIFY OP_CHECKSIG",
      "scriptpubkey_type": "p2pkh",
      "scriptpubkey_address": "12zyqgK63nFc5UFrYfzxvYAoAjWAVhK8ZQ",
      "value": 214282
    },
    {
      "scriptpubkey": "001407127dc13e6cf7ecc9f7185be97674eb96ffbaac",
      "scriptpubkey_asm": "OP_0 OP_PUSHBYTES_20 07127dc13e6cf7ecc9f7185be97674eb96ffbaac",
      "scriptpubkey_type": "v0_p2wpkh",
      "scriptpubkey_address": "bc1qquf8msf7dnm7ej0hrpd7jan5awt0lw4vj0hjqa",
      "value": 61293
    },
    {
      "scriptpubkey": "00205f3abe5ac0e6b27ec313ae8319ce3c517e44d41ea17ef8ea7645f22dcdbb090a",
      "scriptpubkey_asm": "OP_0 OP_PUSHBYTES_32 5f3abe5ac0e6b27ec313ae8319ce3c517e44d41ea17ef8ea7645f22dcdbb090a",
      "scriptpubkey_type": "v0_p2wsh",
      "scriptpubkey_address": "bc1qtuatukkqu6e8ascn46p3nn3u29lyf4q759l036nkghezmndmpy9q9sjwyw",
      "value": 81172
    },
    {
      "scriptpubkey": "00143157510eca80af62cb768ed07f91a9e276551760",
      "scriptpubkey_asm": "OP_0 OP_PUSHBYTES_20 3157510eca80af62cb768ed07f91a9e276551760",
      "scriptpubkey_type": "v0_p2wpkh",
      "scriptpubkey_address": "bc1qx9t4zrk2szhk9jmk3mg8lydfufm929mqlc0rvk",
      "value": 71891
    },
    {
      "scriptpubkey": "a9148a31a56e98dcd3d9f8ba6f4b6152174e63895c8c87",
      "scriptpubkey_asm": "OP_HASH160 OP_PUSHBYTES_20 8a31a56e98dcd3d9f8ba6f4b6152174e63895c8c OP_EQUAL",
      "scriptpubkey_type": "p2sh",
      "scriptpubkey_address": "3EHieVjAYSpuvWC8S6aMTtyLPH4yxdHgVq",
      "value": 40871
    },
    {
      "scriptpubkey": "0014cde001149e866a7d62d5c8cf2dd25ddb08622c0b",
      "scriptpubkey_asm": "OP_0 OP_PUSHBYTES_20 cde001149e866a7d62d5c8cf2dd25ddb08622c0b",
      "scriptpubkey_type": "v0_p2wpkh",
      "scriptpubkey_address": "bc1qehsqz9y7se486ck4er8jm5jamvyxytqtu6ulzl",
      "value": 6829
    },
    {
      "scriptpubkey": "a914a238861fa6894fea671876edd8018eb9ce7b9f9087",
      "scriptpubkey_asm": "OP_HASH160 OP_PUSHBYTES_20 a238861fa6894fea671876edd8018eb9ce7b9f90 OP_EQUAL",
      "scriptpubkey_type": "p2sh",
      "scriptpubkey_address": "3GUm6yH7viuSdHSxqK8cAH1BSAr9BmVZYY",
      "value": 62081
    },
    {
      "scriptpubkey": "76a91414b2b1612c8dc9ddb5056ef0e3a9aa524bf45c6f88ac",
      "scriptpubkey_asm": "OP_DUP OP_HASH160 OP_PUSHBYTES_20 14b2b1612c8dc9ddb5056ef0e3a9aa524bf45c6f OP_EQUALVERIFY OP_CHECKSIG",
      "scriptpubkey_type": "p2pkh",
      "scriptpubkey_address": "12tSaduBJnQkeKa8aK1VqkhhQmwefNJH5k",
      "value": 68145
    },
    {
      "scriptpubkey": "76a91428deadcbbc89259c3922fc2091f643532fc0e2df88ac",
      "scriptpubkey_asm": "OP_DUP OP_HASH160 OP_PUSHBYTES_20 28deadcbbc89259c3922fc2091f643532fc0e2df OP_EQUALVERIFY OP_CHECKSIG",
      "scriptpubkey_type": "p2pkh",
      "scriptpubkey_address": "14j6ng5TM82MbCv8rvjiZTpLn6MBvcCQxY",
      "value": 886728
    },
    {
      "scriptpubkey": "a914757ea2354ba12471fed10b0aab4f1a0490ffbd3387",
      "scriptpubkey_asm": "OP_HASH160 OP_PUSHBYTES_20 757ea2354ba12471fed10b0aab4f1a0490ffbd33 OP_EQUAL",
      "scriptpubkey_type": "p2sh",
      "scriptpubkey_address": "3CQGgeT1UWJagt7FME5UWZyBXHYXfAZnEy",
      "value": 41393
    },
    {
      "scriptpubkey": "0014dd8b4377fc74613baa6baf3f61e9a18415aea5f6",
      "scriptpubkey_asm": "OP_0 OP_PUSHBYTES_20 dd8b4377fc74613baa6baf3f61e9a18415aea5f6",
      "scriptpubkey_type": "v0_p2wpkh",
      "scriptpubkey_address": "bc1qmk95xaluw3snh2nt4ulkr6dpss26af0k2jkprd",
      "value": 59970
    },
    {
      "scriptpubkey": "001485712d68f75ba16f135490012a3caad414ae975f",
      "scriptpubkey_asm": "OP_0 OP_PUSHBYTES_20 85712d68f75ba16f135490012a3caad414ae975f",
      "scriptpubkey_type": "v0_p2wpkh",
      "scriptpubkey_address": "bc1qs4cj668htwsk7y65jqqj50926s22a96la85sxk",
      "value": 32140
    },
    {
      "scriptpubkey": "76a914af8aa51b4ab9be29089c3f405007fa87c2337a7488ac",
      "scriptpubkey_asm": "OP_DUP OP_HASH160 OP_PUSHBYTES_20 af8aa51b4ab9be29089c3f405007fa87c2337a74 OP_EQUALVERIFY OP_CHECKSIG",
      "scriptpubkey_type": "p2pkh",
      "scriptpubkey_address": "1H1BLnq8nkBTwBT2LkSq2cUgVWnrkYTUUb",
      "value": 688176
    },
    {
      "scriptpubkey": "76a914fb16172f866ccb2f822f05dadc3de7c4d94edf9188ac",
      "scriptpubkey_asm": "OP_DUP OP_HASH160 OP_PUSHBYTES_20 fb16172f866ccb2f822f05dadc3de7c4d94edf91 OP_EQUALVERIFY OP_CHECKSIG",
      "scriptpubkey_type": "p2pkh",
      "scriptpubkey_address": "1Ptd52goQ1PtEzn29m7R4cx4c52MkyrMoo",
      "value": 34071
    },
    {
      "scriptpubkey": "76a9149918fe1bc3b1bde118bbed9c1d06255957ce770988ac",
      "scriptpubkey_asm": "OP_DUP OP_HASH160 OP_PUSHBYTES_20 9918fe1bc3b1bde118bbed9c1d06255957ce7709 OP_EQUALVERIFY OP_CHECKSIG",
      "scriptpubkey_type": "p2pkh",
      "scriptpubkey_address": "1ExWKsHzZLziVxdEzwG689zxCQVSPDbs71",
      "value": 34078
    },
    {
      "scriptpubkey": "a914775f805789115b1a7c2c03ce36caaad3e470ae7787",
      "scriptpubkey_asm": "OP_HASH160 OP_PUSHBYTES_20 775f805789115b1a7c2c03ce36caaad3e470ae77 OP_EQUAL",
      "scriptpubkey_type": "p2sh",
      "scriptpubkey_address": "3CaCjvMWTxo8TXwxLKuQ1ZxRdmBqspA8az",
      "value": 434616
    },
    {
      "scriptpubkey": "76a9148e0e93c3a7a4621878f029239832e414b89e1e2288ac",
      "scriptpubkey_asm": "OP_DUP OP_HASH160 OP_PUSHBYTES_20 8e0e93c3a7a4621878f029239832e414b89e1e22 OP_EQUALVERIFY OP_CHECKSIG",
      "scriptpubkey_type": "p2pkh",
      "scriptpubkey_address": "1Dx8R5kFsZTQuoPK9Dm2HttRxAM4eMTfv6",
      "value": 139874
    },
    {
      "scriptpubkey": "00149fec7aeffbd53fb8854f358b2b44acd709b1acbd",
      "scriptpubkey_asm": "OP_0 OP_PUSHBYTES_20 9fec7aeffbd53fb8854f358b2b44acd709b1acbd",
      "scriptpubkey_type": "v0_p2wpkh",
      "scriptpubkey_address": "bc1qnlk84mlm65lm3p20xk9jk39v6uymrt9as98d6z",
      "value": 27256
    },
    {
      "scriptpubkey": "0014fa8b77680bcad3be6468aef2000cf1af88251349",
      "scriptpubkey_asm": "OP_0 OP_PUSHBYTES_20 fa8b77680bcad3be6468aef2000cf1af88251349",
      "scriptpubkey_type": "v0_p2wpkh",
      "scriptpubkey_address": "bc1ql29hw6qtetfmuerg4meqqr8347yz2y6f3z46es",
      "value": 26371
    },
    {
      "scriptpubkey": "00146b6034c3c54c782a708c2707bbd2ab3c5ae5fb81",
      "scriptpubkey_asm": "OP_0 OP_PUSHBYTES_20 6b6034c3c54c782a708c2707bbd2ab3c5ae5fb81",
      "scriptpubkey_type": "v0_p2wpkh",
      "scriptpubkey_address": "bc1qddsrfs79f3uz5uyvyurmh54t83dwt7up75eqmx",
      "value": 61292
    },
    {
      "scriptpubkey": "001494747b7be30fcfc1b9cae352dbe54dc9cbe47605",
      "scriptpubkey_asm": "OP_0 OP_PUSHBYTES_20 94747b7be30fcfc1b9cae352dbe54dc9cbe47605",
      "scriptpubkey_type": "v0_p2wpkh",
      "scriptpubkey_address": "bc1qj368k7lrpl8urww2udfdhe2de897gas9gtaulg",
      "value": 207659
    },
    {
      "scriptpubkey": "0014396d73f93ceb1d416dd49b733591a3feba1e8b13",
      "scriptpubkey_asm": "OP_0 OP_PUSHBYTES_20 396d73f93ceb1d416dd49b733591a3feba1e8b13",
      "scriptpubkey_type": "v0_p2wpkh",
      "scriptpubkey_address": "bc1q89kh87fuavw5zmw5ndentydrl6apazcnzqz934",
      "value": 27258
    },
    {
      "scriptpubkey": "0014db55f433bf1ca4a37c4a9e29d30e6ada942ad6ed",
      "scriptpubkey_asm": "OP_0 OP_PUSHBYTES_20 db55f433bf1ca4a37c4a9e29d30e6ada942ad6ed",
      "scriptpubkey_type": "v0_p2wpkh",
      "scriptpubkey_address": "bc1qmd2lgvalrjj2xlz2nc5axrn2m22z44hdyde69a",
      "value": 28141
    },
    {
      "scriptpubkey": "a914bf9ba9e6c608d3160284463d5adc34fab859da7f87",
      "scriptpubkey_asm": "OP_HASH160 OP_PUSHBYTES_20 bf9ba9e6c608d3160284463d5adc34fab859da7f OP_EQUAL",
      "scriptpubkey_type": "p2sh",
      "scriptpubkey_address": "3KA9TtJP7kb5h7HgrWjF99DiTxqYqzJAde",
      "value": 294690
    },
    {
      "scriptpubkey": "a9145de056b6267d21a11a2fc133dd96079b00c7669b87",
      "scriptpubkey_asm": "OP_HASH160 OP_PUSHBYTES_20 5de056b6267d21a11a2fc133dd96079b00c7669b OP_EQUAL",
      "scriptpubkey_type": "p2sh",
      "scriptpubkey_address": "3AFPWiD4Cf8CYLZ6RZjapro8HUZUn3EvN5",
      "value": 21518
    },
    {
      "scriptpubkey": "0014fb23652995c7d19f6204f8e6323103384c29f1ac",
      "scriptpubkey_asm": "OP_0 OP_PUSHBYTES_20 fb23652995c7d19f6204f8e6323103384c29f1ac",
      "scriptpubkey_type": "v0_p2wpkh",
      "scriptpubkey_address": "bc1qlv3k22v4clge7csylrnryvgr8pxznudvvmarlw",
      "value": 53331
    },
    {
      "scriptpubkey": "76a9141a93bd35e85095182e60bd3f9aa8594551e3442788ac",
      "scriptpubkey_asm": "OP_DUP OP_HASH160 OP_PUSHBYTES_20 1a93bd35e85095182e60bd3f9aa8594551e34427 OP_EQUALVERIFY OP_CHECKSIG",
      "scriptpubkey_type": "p2pkh",
      "scriptpubkey_address": "13RXZ5fkCVU8jTdBiADrbYsmMnvcRBp4JJ",
      "value": 2700123
    },
    {
      "scriptpubkey": "a914aa31e51164342fbe751428863a8d9d370985be3387",
      "scriptpubkey_asm": "OP_HASH160 OP_PUSHBYTES_20 aa31e51164342fbe751428863a8d9d370985be33 OP_EQUAL",
      "scriptpubkey_type": "p2sh",
      "scriptpubkey_address": "3HCvZuWcRwqZhwdekqqMRJWhx6RWuSqvtE",
      "value": 127572
    },
    {
      "scriptpubkey": "00146b9e84a4c79ee144ca005f6e9af0f5180ac63b2b",
      "scriptpubkey_asm": "OP_0 OP_PUSHBYTES_20 6b9e84a4c79ee144ca005f6e9af0f5180ac63b2b",
      "scriptpubkey_type": "v0_p2wpkh",
      "scriptpubkey_address": "bc1qdw0gffx8nms5fjsqtahf4u84rq9vvwetqa48pr",
      "value": 1357439
    },
    {
      "scriptpubkey": "00147e75657a6cd322fff59c289ad464725db8105135",
      "scriptpubkey_asm": "OP_0 OP_PUSHBYTES_20 7e75657a6cd322fff59c289ad464725db8105135",
      "scriptpubkey_type": "v0_p2wpkh",
      "scriptpubkey_address": "bc1q0e6k27nv6v30lavu9zddgerjtkupq5f4z5zxzy",
      "value": 429327
    },
    {
      "scriptpubkey": "a9143d63d35d6c6295d36bec2bc6692240c28c7dc11e87",
      "scriptpubkey_asm": "OP_HASH160 OP_PUSHBYTES_20 3d63d35d6c6295d36bec2bc6692240c28c7dc11e OP_EQUAL",
      "scriptpubkey_type": "p2sh",
      "scriptpubkey_address": "37HcjFca9zNTHsAo67XDrbafNvXRZyGcN3",
      "value": 123000
    },
    {
      "scriptpubkey": "0014b233f5a68f94238d56d1fdc033d9190c4870df57",
      "scriptpubkey_asm": "OP_0 OP_PUSHBYTES_20 b233f5a68f94238d56d1fdc033d9190c4870df57",
      "scriptpubkey_type": "v0_p2wpkh",
      "scriptpubkey_address": "bc1qkgeltf50js3c64k3lhqr8kgep3y8ph6h49hn0t",
      "value": 74554
    },
    {
      "scriptpubkey": "a9147b76538eb3debdb070ab4c1501e55d982741257887",
      "scriptpubkey_asm": "OP_HASH160 OP_PUSHBYTES_20 7b76538eb3debdb070ab4c1501e55d9827412578 OP_EQUAL",
      "scriptpubkey_type": "p2sh",
      "scriptpubkey_address": "3Cwpnbp97sFDw5AFB35ojkMQX4w89cy8Du",
      "value": 98132
    },
    {
      "scriptpubkey": "76a9142940bae5435415729ff26f433df7c7a1693fffa088ac",
      "scriptpubkey_asm": "OP_DUP OP_HASH160 OP_PUSHBYTES_20 2940bae5435415729ff26f433df7c7a1693fffa0 OP_EQUALVERIFY OP_CHECKSIG",
      "scriptpubkey_type": "p2pkh",
      "scriptpubkey_address": "14m8FPXyHhCa4GHk8BQYAewgq7Xj1pLLDk",
      "value": 68147
    },
    {
      "scriptpubkey": "0014b8dc319668657d45fc5d979f69fd3d893d5653ac",
      "scriptpubkey_asm": "OP_0 OP_PUSHBYTES_20 b8dc319668657d45fc5d979f69fd3d893d5653ac",
      "scriptpubkey_type": "v0_p2wpkh",
      "scriptpubkey_address": "bc1qhrwrr9ngv475tlzaj70knlfa3y74v5avnlnjhe",
      "value": 62613510
    },
    {
      "scriptpubkey": "a9141019ff0dd4791212e9c50f8f0692835c6b71720b87",
      "scriptpubkey_asm": "OP_HASH160 OP_PUSHBYTES_20 1019ff0dd4791212e9c50f8f0692835c6b71720b OP_EQUAL",
      "scriptpubkey_type": "p2sh",
      "scriptpubkey_address": "33A9ssJ5XCgxMov7PFSkYC8C3PNt3z43ci",
      "value": 38756
    },
    {
      "scriptpubkey": "a914ecdd9226d13c9e43402a4233cf204fc94bb8067f87",
      "scriptpubkey_asm": "OP_HASH160 OP_PUSHBYTES_20 ecdd9226d13c9e43402a4233cf204fc94bb8067f OP_EQUAL",
      "scriptpubkey_type": "p2sh",
      "scriptpubkey_address": "3PHSpqDQhA1vM4NJXACEFkAtN7mRErDAYK",
      "value": 34073
    },
    {
      "scriptpubkey": "0014ce5c722ee0b1509b5fb5935da2a7f95b77adfab1",
      "scriptpubkey_asm": "OP_0 OP_PUSHBYTES_20 ce5c722ee0b1509b5fb5935da2a7f95b77adfab1",
      "scriptpubkey_type": "v0_p2wpkh",
      "scriptpubkey_address": "bc1qeew8ythqk9gfkha4jdw69fletdm6m7439jyvlg",
      "value": 75093
    },
    {
      "scriptpubkey": "00142855dd20e162d4975d6750e621f6f827a4e68c76",
      "scriptpubkey_asm": "OP_0 OP_PUSHBYTES_20 2855dd20e162d4975d6750e621f6f827a4e68c76",
      "scriptpubkey_type": "v0_p2wpkh",
      "scriptpubkey_address": "bc1q9p2a6g8pvt2fwht82rnzrahcy7jwdrrkjsrmc4",
      "value": 68141
    },
    {
      "scriptpubkey": "a9143b60dc5df46d53d211ebed2ca4b7b34288d4bdd887",
      "scriptpubkey_asm": "OP_HASH160 OP_PUSHBYTES_20 3b60dc5df46d53d211ebed2ca4b7b34288d4bdd8 OP_EQUAL",
      "scriptpubkey_type": "p2sh",
      "scriptpubkey_address": "376ypsLct1MW7orezPQ2bXqNAEwpYHsF6X",
      "value": 80055
    },
    {
      "scriptpubkey": "0020eefa5e5061be6fdd59a034d619c6a2ebc98d36d0525242e97aa606268cb7aefc",
      "scriptpubkey_asm": "OP_0 OP_PUSHBYTES_32 eefa5e5061be6fdd59a034d619c6a2ebc98d36d0525242e97aa606268cb7aefc",
      "scriptpubkey_type": "v0_p2wsh",
      "scriptpubkey_address": "bc1qama9u5rpheha6kdqxntpn34za0yc6dks2ffy96t65crzdr9h4m7qwrvqm8",
      "value": 136297
    },
    {
      "scriptpubkey": "00144e532ad79574f65b0cf85c7b62fab79ead833c2d",
      "scriptpubkey_asm": "OP_0 OP_PUSHBYTES_20 4e532ad79574f65b0cf85c7b62fab79ead833c2d",
      "scriptpubkey_type": "v0_p2wpkh",
      "scriptpubkey_address": "bc1qfefj44u4wnm9kr8ct3ak974hn6kcx0pddc5f0u",
      "value": 8280
    },
    {
      "scriptpubkey": "002085d041b374293ca192cb18aa95748af675b79e03a7281881cf86a3c38e3baa38",
      "scriptpubkey_asm": "OP_0 OP_PUSHBYTES_32 85d041b374293ca192cb18aa95748af675b79e03a7281881cf86a3c38e3baa38",
      "scriptpubkey_type": "v0_p2wsh",
      "scriptpubkey_address": "bc1qshgyrvm59y72ryktrz4f2ay27e6m08sr5u5p3qw0s63u8r3m4guqcg2y3h",
      "value": 18873
    },
    {
      "scriptpubkey": "76a914f1344739af43319805beb45a320ef0600286caac88ac",
      "scriptpubkey_asm": "OP_DUP OP_HASH160 OP_PUSHBYTES_20 f1344739af43319805beb45a320ef0600286caac OP_EQUALVERIFY OP_CHECKSIG",
      "scriptpubkey_type": "p2pkh",
      "scriptpubkey_address": "1NzNUayfefwbXeLCeAfxqS65HmPKbeJjfH",
      "value": 101052
    },
    {
      "scriptpubkey": "001437a54b723a86bee835bcf1d7e1be411099a62076",
      "scriptpubkey_asm": "OP_0 OP_PUSHBYTES_20 37a54b723a86bee835bcf1d7e1be411099a62076",
      "scriptpubkey_type": "v0_p2wpkh",
      "scriptpubkey_address": "bc1qx7j5ku36s6lwsddu78t7r0jpzzv6vgrkymcvmv",
      "value": 2725275
    },
    {
      "scriptpubkey": "76a9147302f9647f717a79d1056b1f17ae8a80602aca2188ac",
      "scriptpubkey_asm": "OP_DUP OP_HASH160 OP_PUSHBYTES_20 7302f9647f717a79d1056b1f17ae8a80602aca21 OP_EQUALVERIFY OP_CHECKSIG",
      "scriptpubkey_type": "p2pkh",
      "scriptpubkey_address": "1BV8GiED8httLo2PiLzAKm4KbZ4EjEUTxM",
      "value": 847449
    },
    {
      "scriptpubkey": "76a9143f7c432f3bff711a5c71fb0b6fd916663421ef2788ac",
      "scriptpubkey_asm": "OP_DUP OP_HASH160 OP_PUSHBYTES_20 3f7c432f3bff711a5c71fb0b6fd916663421ef27 OP_EQUALVERIFY OP_CHECKSIG",
      "scriptpubkey_type": "p2pkh",
      "scriptpubkey_address": "16ngRzUe431xN1NmVn32wFfAuVRkEM34RU",
      "value": 654249
    },
    {
      "scriptpubkey": "76a9143153c071940f681b7526a81fd0747ecdfe10e1ef88ac",
      "scriptpubkey_asm": "OP_DUP OP_HASH160 OP_PUSHBYTES_20 3153c071940f681b7526a81fd0747ecdfe10e1ef OP_EQUALVERIFY OP_CHECKSIG",
      "scriptpubkey_type": "p2pkh",
      "scriptpubkey_address": "15VpSaBch1r7NiXagS6K7u2oWhU7tbHwnM",
      "value": 34632
    },
    {
      "scriptpubkey": "00145d9efdfc2a7f138d648f932d762f4b5e33338101",
      "scriptpubkey_asm": "OP_0 OP_PUSHBYTES_20 5d9efdfc2a7f138d648f932d762f4b5e33338101",
      "scriptpubkey_type": "v0_p2wpkh",
      "scriptpubkey_address": "bc1qtk00mlp20ufc6ey0jvkhvt6ttcen8qgpazu9kl",
      "value": 28137
    },
    {
      "scriptpubkey": "a914b10f0796c4c8feac0922f7a36e9e27c9cf9b3c2187",
      "scriptpubkey_asm": "OP_HASH160 OP_PUSHBYTES_20 b10f0796c4c8feac0922f7a36e9e27c9cf9b3c21 OP_EQUAL",
      "scriptpubkey_type": "p2sh",
      "scriptpubkey_address": "3HqDXmwp9Mmb37QWYnu583r3DScQgswyUb",
      "value": 40877
    },
    {
      "scriptpubkey": "a914b9061e8d00a6cede79766c71069942882fdd8a4787",
      "scriptpubkey_asm": "OP_HASH160 OP_PUSHBYTES_20 b9061e8d00a6cede79766c71069942882fdd8a47 OP_EQUAL",
      "scriptpubkey_type": "p2sh",
      "scriptpubkey_address": "3JZLGDDmzY12EkTVFKpso8Wx6kexw83Anw",
      "value": 68158
    },
    {
      "scriptpubkey": "00140b240472f6bc66a978a7f948a46bb0c5c89cfd96",
      "scriptpubkey_asm": "OP_0 OP_PUSHBYTES_20 0b240472f6bc66a978a7f948a46bb0c5c89cfd96",
      "scriptpubkey_type": "v0_p2wpkh",
      "scriptpubkey_address": "bc1qpvjqguhkh3n2j798l9y2g6aschyfelvk3mqf70",
      "value": 69400
    },
    {
      "scriptpubkey": "a914ae2f74c6f8c43e55ebb0b1e86b2762145c2f509187",
      "scriptpubkey_asm": "OP_HASH160 OP_PUSHBYTES_20 ae2f74c6f8c43e55ebb0b1e86b2762145c2f5091 OP_EQUAL",
      "scriptpubkey_type": "p2sh",
      "scriptpubkey_address": "3Ha2MEXqygFKZNUuEMzegk9Ao22fbfWVwU",
      "value": 40887
    }
  ],
  "size": 3247,
  "weight": 12661,
  "fee": 32125,
  "status": {
    "confirmed": true,
    "block_height": 834638,
    "block_hash": "000000000000000000025f742c626208ac87e0b7d15054abb4a19ca2d735a54e",
    "block_time": 1710405325
  },
  "hex": "02000000000101968f2d68493b3910cd88ada4469c66675d1c22ba8b94bd186bd92c3c74e6c39ec400000000ffffffff5ff66d000000000000160014bd531d5569a2fb5716b6efff600e89b5ee9457066ae70400000000001976a9141dfaa378107f9570a601066e21a425ccd1b726bc88acb7a100000000000016001404db8d3204c346482911382e302e11c3079d99ddbb71000000000000160014916f88b7e56e65a6b05168de4f33fcbedbd8dcea4bf2010000000000160014a5f9f12267bef71abbc39723441a3b80e8f012894a8f01000000000017a91476197422d6199b801c04f1966b9bc75b35ef6a4e872f0a010000000000160014205d7a3d94595886979bdbad7aa5921cf59b733f6d3d0600000000001600146af03f9f162299e207ec322968c4fcfe902de5e3c9e9010000000000160014a46baecb715d76397e2a1b6cfab4881824af94b17751000000000000160014c8293b5f66a4287475f500da3ae57395f9b5c1d266ef000000000000160014f8ca1ff6269a8d54f2b3529bd5a8cef8ba51b755373d0600000000001600140d79d2849aac57a6b2b379db90119ce70070b3b5c42804000000000017a914357ecf25e2d91ca4a62328e88844b7429aa300c587c05f0000000000001976a9141ed8a96c59557f6fb762e7f94f7d482f451dcee488acb99f0000000000001976a9147c11a9582401a164ace50e79b47de314f97affb288ac970d020000000000160014ec0819ae009baebcb4ebf87ba8fd85a1f2afcb7e0b21000000000000160014ace5b2d1d6f4b940e02146b7538409c93812f3db71ef000000000000160014bc8c09dd1980176a0e4023b9f0d5d35de3eceaa2c7870000000000001976a9149f2afcdf89af973477d38e79b116da15979e7f6f88ac42d000000000000016001471dee5bf8378d1086307cb229321f4dec09ed549a74311000000000016001468f555e0369a8c298af926f07fda4d99ebcdeaffffd400000000000017a9146912a7389b3d988f09d7c3abe427f8f92094c74d870e5400000000000017a91451e5cb3329c4ee171729e79e2ba31e176f7dea2487245a090000000000220020ddf0a2f840e09d989f1af2a5118f4ad44c01c85d880c14abb10a1bc7e0566f0e263a000000000000160014cd26ba4a07209776d6045220ebcad4f83e9610af1b2b03000000000017a91490be245cc89ed8f9335ac34098e023bc5bbc8b0787f5050600000000001600143b32a7a027dd0b7efce9a4a410490fbc6f03d57e6bef000000000000220020c8067f25e11c3559c9f2f6df44df6e1fc4c73f993e529ceea5ac752b15fa0d474d200000000000001976a9148a189952c500e121349a413bab6fb9d259a23fa888ac7b7d00000000000017a914a2fb78f24a79ed728bc697d748ca91de6e65dde9873092000000000000160014d12e9ace24036ccf0c21518c85a030fa683df36cb6160a00000000001976a914dbf07d19d6888c072b57f04b412b24fca5c2614088acd014020000000000160014acc89f93f869091b1768db857b55e867ab671e5ef534000000000000160014a42c6f8c4b24b2bbf6973454b19035f5f4f9e45c5109010000000000160014f2c5fb01f7dbb44167539fae08649dbdab6268c2a3bb00000000000017a9142ed5a86c88667bbb1b9efd0926e6244c0791efec87d0240100000000001600143fefed6163160598ad2ff2bd867bad9b2dd58b95ec6d000000000000160014720a026618d200cb8e94dca179ad663b0722f8b752a9020000000000160014de31569a1c281e72d49b14550c7bfcee60272d8ed6a600000000000017a914906afa1f42603386911267e5b522949a056dfffc87bd9f00000000000017a914ab2149336cb9af74f32df7442a027dbd2d5604e587958a01000000000017a914fad34b8901d5d8ca35be06d2e3b63d1debdd854d870a450300000000001976a91415ef485b26253ed548dff64684148a735705d60d88ac6def00000000000016001407127dc13e6cf7ecc9f7185be97674eb96ffbaac143d0100000000002200205f3abe5ac0e6b27ec313ae8319ce3c517e44d41ea17ef8ea7645f22dcdbb090ad3180100000000001600143157510eca80af62cb768ed07f91a9e276551760a79f00000000000017a9148a31a56e98dcd3d9f8ba6f4b6152174e63895c8c87ad1a000000000000160014cde001149e866a7d62d5c8cf2dd25ddb08622c0b81f200000000000017a914a238861fa6894fea671876edd8018eb9ce7b9f9087310a0100000000001976a91414b2b1612c8dc9ddb5056ef0e3a9aa524bf45c6f88acc8870d00000000001976a91428deadcbbc89259c3922fc2091f643532fc0e2df88acb1a100000000000017a914757ea2354ba12471fed10b0aab4f1a0490ffbd338742ea000000000000160014dd8b4377fc74613baa6baf3f61e9a18415aea5f68c7d00000000000016001485712d68f75ba16f135490012a3caad414ae975f30800a00000000001976a914af8aa51b4ab9be29089c3f405007fa87c2337a7488ac17850000000000001976a914fb16172f866ccb2f822f05dadc3de7c4d94edf9188ac1e850000000000001976a9149918fe1bc3b1bde118bbed9c1d06255957ce770988acb8a106000000000017a914775f805789115b1a7c2c03ce36caaad3e470ae778762220200000000001976a9148e0e93c3a7a4621878f029239832e414b89e1e2288ac786a0000000000001600149fec7aeffbd53fb8854f358b2b44acd709b1acbd0367000000000000160014fa8b77680bcad3be6468aef2000cf1af882513496cef0000000000001600146b6034c3c54c782a708c2707bbd2ab3c5ae5fb812b2b03000000000016001494747b7be30fcfc1b9cae352dbe54dc9cbe476057a6a000000000000160014396d73f93ceb1d416dd49b733591a3feba1e8b13ed6d000000000000160014db55f433bf1ca4a37c4a9e29d30e6ada942ad6ed227f04000000000017a914bf9ba9e6c608d3160284463d5adc34fab859da7f870e5400000000000017a9145de056b6267d21a11a2fc133dd96079b00c7669b8753d0000000000000160014fb23652995c7d19f6204f8e6323103384c29f1ac5b332900000000001976a9141a93bd35e85095182e60bd3f9aa8594551e3442788ac54f201000000000017a914aa31e51164342fbe751428863a8d9d370985be33877fb61400000000001600146b9e84a4c79ee144ca005f6e9af0f5180ac63b2b0f8d0600000000001600147e75657a6cd322fff59c289ad464725db810513578e001000000000017a9143d63d35d6c6295d36bec2bc6692240c28c7dc11e873a23010000000000160014b233f5a68f94238d56d1fdc033d9190c4870df57547f01000000000017a9147b76538eb3debdb070ab4c1501e55d982741257887330a0100000000001976a9142940bae5435415729ff26f433df7c7a1693fffa088ac0668bb0300000000160014b8dc319668657d45fc5d979f69fd3d893d5653ac649700000000000017a9141019ff0dd4791212e9c50f8f0692835c6b71720b87198500000000000017a914ecdd9226d13c9e43402a4233cf204fc94bb8067f875525010000000000160014ce5c722ee0b1509b5fb5935da2a7f95b77adfab12d0a0100000000001600142855dd20e162d4975d6750e621f6f827a4e68c76b73801000000000017a9143b60dc5df46d53d211ebed2ca4b7b34288d4bdd8876914020000000000220020eefa5e5061be6fdd59a034d619c6a2ebc98d36d0525242e97aa606268cb7aefc58200000000000001600144e532ad79574f65b0cf85c7b62fab79ead833c2db94900000000000022002085d041b374293ca192cb18aa95748af675b79e03a7281881cf86a3c38e3baa38bc8a0100000000001976a914f1344739af43319805beb45a320ef0600286caac88ac9b9529000000000016001437a54b723a86bee835bcf1d7e1be411099a6207659ee0c00000000001976a9147302f9647f717a79d1056b1f17ae8a80602aca2188aca9fb0900000000001976a9143f7c432f3bff711a5c71fb0b6fd916663421ef2788ac48870000000000001976a9143153c071940f681b7526a81fd0747ecdfe10e1ef88ace96d0000000000001600145d9efdfc2a7f138d648f932d762f4b5e33338101ad9f00000000000017a914b10f0796c4c8feac0922f7a36e9e27c9cf9b3c21873e0a01000000000017a914b9061e8d00a6cede79766c71069942882fdd8a4787180f0100000000001600140b240472f6bc66a978a7f948a46bb0c5c89cfd96b79f00000000000017a914ae2f74c6f8c43e55ebb0b1e86b2762145c2f5091870247304402200e06d08e1be4beffae1289d091553ac30d6b24e3a3a4187ae3e0843eeb709db202203cf8583523f487c308238a7f7d26b6b9bcd21802b20d31f38ad1f2193b9c95d4012102cadd92653cbf7f8fe47f79675880ddea21ce26eef10e8402b2c53035c193510300000000"
}