{
  "txid": "22af23f7f1bfd2b9b85aa2dfcf9763a1cba36f933947bcbf588e4cfa33111e6b",
  "version": 2,
  "locktime": 0,
  "vin": [
    {
      "txid": "29d66550ea999ec4d589a95cc1216eb50f1eba6003a710d5986b67c4236e11bd",
      "vout": 0,
      "prevout": {
        "scriptpubkey": "00142ae321b781d22a6c4a8afea9553a76e9f7ca1af2",
        "scriptpubkey_asm": "OP_0 OP_PUSHBYTES_20 2ae321b781d22a6c4a8afea9553a76e9f7ca1af2",
        "scriptpubkey_type": "v0_p2wpkh",
        "scriptpubkey_address": "bc1q9t3jrdup6g4xcj52l6542wnka8mu5xhjpfk9g6",
        "value": 57287
      },
      "scriptsig": "",
      "scriptsig_asm": "",
      "witness": [
        "304402204c683caae25237bfc0e9aac1cb8a7282033c3e2700016e1f18a154dcd879fe9f0220487690dd05985cbe00181b9efe82f259cf638fb8910d13188db93f747f605b0401",
        "02bd5e6bccea7bdd963e949be09a08bf75f8ecd02ae4782af2f69ddd35f7b60db6"
      ],
      "is_coinbase": false,
      "sequence": 4294967293
    },
    {
      "txid": "1ffd5642e05a2615f209ca9401a4b33cbdab8d8ee08ebe6409fc03651e85a524",
      "vout": 0,
      "prevout": {
        "scriptpubkey": "00141faa9c5e648d13fbf7f6663aceb098b542c9d833",
        "scriptpubkey_asm": "OP_0 OP_PUSHBYTES_20 1faa9c5e648d13fbf7f6663aceb098b542c9d833",
        "scriptpubkey_type": "v0_p2wpkh",
        "scriptpubkey_address": "bc1qr74fchny35flhalkvcavavyck4pvnkpnk9m6na",
        "value": 1000
      },
      "scriptsig": "",
      "scriptsig_asm": "",
      "witness": [
        "3044022051dbdbc84796696e758acf4a740930837be70dd89ac1394733c34640de0567e8022034ea60c6d30a28991bfb80e8a4cf8e1558b96b751707ce730a77fd7ecbe1375901",
        "0284dbe92a232dd7ed81f1f41eaf8c7cd379ee345ad957669a06a8cd8bd8ac1d63"
      ],
      "is_coinbase": false,
      "sequence": 4294967293
    },
    {
      "txid": "141cee20ef71cff94c5ef437ad1ba78884a363ff9379f57d6d50c78adab6dd0c",
      "vout": 0,
      "prevout": {
        "scriptpubkey": "00145a6ee8081dd540e959b968d4f49fe60b27a561ad",
        "scriptpubkey_asm": "OP_0 OP_PUSHBYTES_20 5a6ee8081dd540e959b968d4f49fe60b27a561ad",
        "scriptpubkey_type": "v0_p2wpkh",
        "scriptpubkey_address": "bc1qtfhwszqa64qwjkdedr20f8lxpvn62cdd666qrf",
        "value": 20595
      },
      "scriptsig": "",
      "scriptsig_asm": "",
      "witness": [
        "304402202aee5903e172e8f97db253f930b62fbe49c0aa6335abe1c8dce5f9b6b97969280220640878920e176f649650e3b6ab8537496ccd4dbc822e16e1e5015448b9917a2c01",
        "0281d178f18b29a3bb49a10d411bff130c564e71822af28048ebce2ec3abd2b7f4"
      ],
      "is_coinbase": false,
      "sequence": 4294967293
    },
    {
      "txid": "9cff27219e14f494c5b4ddd854780e6066f8926c64a325dabe9f0e161655040e",
      "vout": 0,
      "prevout": {
        "scriptpubkey": "0014a6d4091d25970e55950d2dd7a5c6fa25c5cf5cae",
        "scriptpubkey_asm": "OP_0 OP_PUSHBYTES_20 a6d4091d25970e55950d2dd7a5c6fa25c5cf5cae",
        "scriptpubkey_type": "v0_p2wpkh",
        "scriptpubkey_address": "bc1q5m2qj8f9ju89t9gd9ht6t3h6yhzu7h9wulf2zx",
        "value": 47261
      },
      "scriptsig": "",
      "scriptsig_asm": "",
      "witness": [
        "30440220570b893e84c8a8939c46666bf98fc3b4a9a58fa943f735865cb96f4f956f223502203c89af842caf4bf45bb41621608003c518165c3999d3854657919f849b21f49501",
        "03bd8773391ced2f501392277a5b41fd1ceb72a60e4f742a21c736256cd1a1c11d"
      ],
      "is_coinbase": false,
      "sequence": 4294967293
    }
  ],
  "vout": [
    {
      "scriptpubkey": "00147efc36f03c9cfc3a836c9d644195de3f7a1734f4",
      "scriptpubkey_asm": "OP_0 OP_PUSHBYTES_20 7efc36f03c9cfc3a836c9d644195de3f7a1734f4",
      "scriptpubkey_type": "v0_p2wpkh",
      "scriptpubkey_address": "bc1q0m7rdupunn7r4qmvn4jyr9w78aapwd8587ms77",
      "value": 122736
    }
  ],
  "size": 635,
  "weight": 1250,
  "fee": 3407,
  "status": {
    "confirmed": true,
    "block_height": 834464,
    "block_hash": "0000000000000000000177a0869a911a2b65c9bdcd5a8bcb02b68f305bee848e",
    "block_time": 1710308296
  },
  "hex": "02000000000104bd116e23c4676b98d510a70360ba1e0fb56e21c15ca989d5c49e99ea5065d6290000000000fdffffff24a5851e6503fc0964be8ee08e8dabbd3cb3a40194ca09f215265ae04256fd1f0000000000fdffffff0cddb6da8ac7506d7df57993ff63a38488a71bad37f45e4cf9cf71ef20ee1c140000000000fdffffff0e045516160e9fbeda25a3646c92f866600e7854d8ddb4c594f4149e2127ff9c0000000000fdffffff0170df0100000000001600147efc36f03c9cfc3a836c9d644195de3f7a1734f40247304402204c683caae25237bfc0e9aac1cb8a7282033c3e2700016e1f18a154dcd879fe9f0220487690dd05985cbe00181b9efe82f259cf638fb8910d13188db93f747f605b04012102bd5e6bccea7bdd963e949be09a08bf75f8ecd02ae4782af2f69ddd35f7b60db602473044022051dbdbc84796696e758acf4a740930837be70dd89ac1394733c34640de0567e8022034ea60c6d30a28991bfb80e8a4cf8e1558b96b751707ce730a77fd7ecbe1375901210284dbe92a232dd7ed81f1f41eaf8c7cd379ee345ad957669a06a8cd8bd8ac1d630247304402202aee5903e172e8f97db253f930b62fbe49c0aa6335abe1c8dce5f9b6b97969280220640878920e176f649650e3b6ab8537496ccd4dbc822e16e1e5015448b9917a2c01210281d178f18b29a3bb49a10d411bff130c564e71822af28048ebce2ec3abd2b7f4024730440220570b893e84c8a8939c46666bf98fc3b4a9a58fa943f735865cb96f4f956f223502203c89af842caf4bf45bb41621608003c518165c3999d3854657919f849b21f495012103bd8773391ced2f501392277a5b41fd1ceb72a60e4f742a21c736256cd1a1c11d00000000"
}