{
  "txid": "22c09e3e63325f7e59d179503dd5a5c8cb47280a65c1804527e269f16d64257b",
  "version": 2,
  "locktime": 0,
  "vin": [
    {
      "txid": "7dddfa4e4f005800d336eb714633ef5aedc78381c84ac57f78ac0fc282ed5d43",
      "vout": 1,
      "prevout": {
        "scriptpubkey": "0014ef9b58c105218d42b68c641047730513b215ca81",
        "scriptpubkey_asm": "OP_0 OP_PUSHBYTES_20 ef9b58c105218d42b68c641047730513b215ca81",
        "scriptpubkey_type": "v0_p2wpkh",
        "scriptpubkey_address": "bc1qa7d43sg9yxx59d5vvsgywuc9zweptj5p0j7mke",
        "value": 454118
      },
      "scriptsig": "",
      "scriptsig_asm": "",
      "witness": [
        "30450221009f8b34ddd45e354c1610cbfa1e64e9e4f6baffea2a012031a32c027dabb96c9002203f98877e769e91238a684a02b8707d298977dac19ee482a70cf1a28ea4b8638401",
        "03f488a7c0aae33a9fdb6644833469aa57d414f2c02eaab7576508c44b47d9bf35"
      ],
      "is_coinbase": false,
      "sequence": 4294967293
    }
  ],
  "vout": [
    {
      "scriptpubkey": "76a91493cb796fb45c8a9baeff3ac0f0d6050d8ee7733f88ac",
      "scriptpubkey_asm": "OP_DUP OP_HASH160 OP_PUSHBYTES_20 93cb796fb45c8a9baeff3ac0f0d6050d8ee7733f OP_EQUALVERIFY OP_CHECKSIG",
      "scriptpubkey_type": "p2pkh",
      "scriptpubkey_address": "1EUU5r3H5VabDQijHmg38uirmecxcZoU9Q",
      "value": 136094
    },
    {
      "scriptpubkey": "0014b466267358fa53363961290ae390cc9cba86fb4b",
      "scriptpubkey_asm": "OP_0 OP_PUSHBYTES_20 b466267358fa53363961290ae390cc9cba86fb4b",
      "scriptpubkey_type": "v0_p2wpkh",
      "scriptpubkey_address": "bc1qk3nzvu6clffnvwtp9y9w8yxvnjagd76t27ekz9",
      "value": 313440
    }
  ],
  "size": 226,
  "weight": 574,
  "fee": 4584,
  "status": {
    "confirmed": true,
    "block_height": 834638,
    "block_hash": "000000000000000000025f742c626208ac87e0b7d15054abb4a19ca2d735a54e",
    "block_time": 1710405325
  },
  "hex": "02000000000101435ded82c20fac787fc54ac88183c7ed5aef334671eb36d30058004f4efadd7d0100000000fdffffff029e130200000000001976a91493cb796fb45c8a9baeff3ac0f0d6050d8ee7733f88ac60c8040000000000160014b466267358fa53363961290ae390cc9cba86fb4b024830450221009f8b34ddd45e354c1610cbfa1e64e9e4f6baffea2a012031a32c027dabb96c9002203f98877e769e91238a684a02b8707d298977dac19ee482a70cf1a28ea4b86384012103f488a7c0aae33a9fdb6644833469aa57d414f2c02eaab7576508c44b47d9bf3500000000"
}