{
  "txid": "22cd12a8c47e310d4a8180412a53273f222c7aa1bf6042e49b4ecf491b5072aa",
  "version": 2,
  "locktime": 834637,
  "vin": [
    {
      "txid": "1972a7a21842ad6e1b3964232b9599a6a10663d5dc44d9e20e9e00aaacf1d051",
      "vout": 147,
      "prevout": {
        "scriptpubkey": "0014cd23ceffb25f0d982e9617b8e98a2eab73a0a508",
        "scriptpubkey_asm": "OP_0 OP_PUSHBYTES_20 cd23ceffb25f0d982e9617b8e98a2eab73a0a508",
        "scriptpubkey_type": "v0_p2wpkh",
        "scriptpubkey_address": "bc1qe53ualajtuxest5kz7uwnz3w4de6pfggkd9vpu",
        "value": 122608
      },
      "scriptsig": "",
      "scriptsig_asm": "",
      "witness": [
        "3044022050abf5b7dfaadba7013e950db768a411010e222e91dfc02004a7060d5ddfd60c02200243fda770fc4b3157dc77c7c9a225d5426c74be4d2e6409e841518101a52dc501",
        "025aea74f8b23144b6b75cf5e9e9228c35ee30920c3a5fdbf2be4c3212a8911aca"
      ],
      "is_coinbase": false,
      "sequence": 4294967294
    },
    {
      "txid": "720748395996b7191423c1f2f91c972c2b4491614e97d7d7f503c9d7f8df8089",
      "vout": 0,
      "prevout": {
        "scriptpubkey": "0014e099fe3acc110676c69345553836d28e2cf83f48",
        "scriptpubkey_asm": "OP_0 OP_PUSHBYTES_20 e099fe3acc110676c69345553836d28e2cf83f48",
        "scriptpubkey_type": "v0_p2wpkh",
        "scriptpubkey_address": "bc1quzvluwkvzyr8d35ng42nsdkj3ck0s06g2kjtsh",
        "value": 1000037
      },
      "scriptsig": "",
      "scriptsig_asm": "",
      "witness": [
        "3044022077dca865722c869d09597789a0488fe7f9d46a595b73a568e50d7e097696942202205c79c62255d676dfae41e0e8e6776a8a47b97c9dc5bc5ce4e6cfbaa81f3137ba01",
        "026247c6d9fe63396f1ad0b4b512e4b3e5f5c3c18e9312bf8c41f4b5989ad84066"
      ],
      "is_coinbase": false,
      "sequence": 4294967294
    }
  ],
  "vout": [
    {
      "scriptpubkey": "00148cbd305b68648c7b2810def3d8556d7b7c21117e",
      "scriptpubkey_asm": "OP_0 OP_PUSHBYTES_20 8cbd305b68648c7b2810def3d8556d7b7c21117e",
      "scriptpubkey_type": "v0_p2wpkh",
      "scriptpubkey_address": "bc1q3j7nqkmgvjx8k2qsmmeas4td0d7zzyt77l8rve",
      "value": 1010031
    },
    {
      "scriptpubkey": "00140312c204a37255e9f9f86dec405a60ab9078b41c",
      "scriptpubkey_asm": "OP_0 OP_PUSHBYTES_20 0312c204a37255e9f9f86dec405a60ab9078b41c",
      "scriptpubkey_type": "v0_p2wpkh",
      "scriptpubkey_address": "bc1qqvfvyp9rwf27n70cdhkyqknq4wg83dqu7vter2",
      "value": 106156
    }
  ],
  "size": 370,
  "weight": 832,
  "fee": 6458,
  "status": {
    "confirmed": true,
    "block_height": 834638,
    "block_hash": "000000000000000000025f742c626208ac87e0b7d15054abb4a19ca2d735a54e",
    "block_time": 1710405325
  },
  "hex": "0200000000010251d0f1acaa009e0ee2d944dcd56306a1a699952b2364391b6ead4218a2a772199300000000feffffff8980dff8d7c903f5d7d7974e6191442b2c971cf9f2c1231419b79659394807720000000000feffffff026f690f00000000001600148cbd305b68648c7b2810def3d8556d7b7c21117eac9e0100000000001600140312c204a37255e9f9f86dec405a60ab9078b41c02473044022050abf5b7dfaadba7013e950db768a411010e222e91dfc02004a7060d5ddfd60c02200243fda770fc4b3157dc77c7c9a225d5426c74be4d2e6409e841518101a52dc50121025aea74f8b23144b6b75cf5e9e9228c35ee30920c3a5fdbf2be4c3212a8911aca02473044022077dca865722c869d09597789a0488fe7f9d46a595b73a568e50d7e097696942202205c79c62255d676dfae41e0e8e6776a8a47b97c9dc5bc5ce4e6cfbaa81f3137ba0121026247c6d9fe63396f1ad0b4b512e4b3e5f5c3c18e9312bf8c41f4b5989ad840664dbc0c00"
}