{
  "txid": "22de4ee65ad0bc338d55ce11dee17d4f421ba72a6c9c0523009a8ba61f5237f1",
  "version": 2,
  "locktime": 834037,
  "vin": [
    {
      "txid": "19060f718f5c6fa621e0d7be0f47d353e1d3908a534996e7f03b398475ecf57d",
      "vout": 0,
      "prevout": {
        "scriptpubkey": "001454126f0ace59c8691c4dc3a446dca40b8874cf86",
        "scriptpubkey_asm": "OP_0 OP_PUSHBYTES_20 54126f0ace59c8691c4dc3a446dca40b8874cf86",
        "scriptpubkey_type": "v0_p2wpkh",
        "scriptpubkey_address": "bc1q2sfx7zkwt8yxj8zdcwjydh9ypwy8fnuxgyjurn",
        "value": 31086
      },
      "scriptsig": "",
      "scriptsig_asm": "",
      "witness": [
        "3045022100efd3c7018f8a0570b443d521ec664e50bc60ed59e9642912c1f0651fb75f780602203e081b56df8662095904f3b3b72054f3245c46539a7a55771b5cb1c5a6d8748301",
        "034f7f22a6748c714bc91ac1dc9d16e39e11fdd4b9aff4a0d0c240405ffc231086"
      ],
      "is_coinbase": false,
      "sequence": 4294967293
    },
    {
      "txid": "9f1c17b300820d896957b4f94d68e72faf185b57498b57177afae3db9e4118e9",
      "vout": 0,
      "prevout": {
        "scriptpubkey": "00145fb8de613e81cb097d74dc4fa705ef9424357afe",
        "scriptpubkey_asm": "OP_0 OP_PUSHBYTES_20 5fb8de613e81cb097d74dc4fa705ef9424357afe",
        "scriptpubkey_type": "v0_p2wpkh",
        "scriptpubkey_address": "bc1qt7uducf7s89sjlt5m386wp00jsjr27h7vnvklk",
        "value": 11653
      },
      "scriptsig": "",
      "scriptsig_asm": "",
      "witness": [
        "3044022035a4db16155a14a62ca96131033196f9564f6da16b462f72136a355844a956c902201b893af516e205b6aaff00cf4f2f1adeef3ce61f04a1ea0bee38e318f9051d2c01",
        "027129f7c9f6432d730611edef708314282f30eba346737ab84307034665526c1d"
      ],
      "is_coinbase": false,
      "sequence": 4294967293
    },
    {
      "txid": "a34739eedd5c00f6ac7afac219c534e7f0ab360ed639ca540d7859ffb0f256df",
      "vout": 0,
      "prevout": {
        "scriptpubkey": "001400672df26671bd798ebfca4ee6ce883a1a3c2ce9",
        "scriptpubkey_asm": "OP_0 OP_PUSHBYTES_20 00672df26671bd798ebfca4ee6ce883a1a3c2ce9",
        "scriptpubkey_type": "v0_p2wpkh",
        "scriptpubkey_address": "bc1qqpnjmunxwx7hnr4lef8wdn5g8gdrct8fz55dc3",
        "value": 20663
      },
      "scriptsig": "",
      "scriptsig_asm": "",
      "witness": [
        "304402204bca3e2b9d39d5dd4a2559ae089b3295707836e6ff1390531566000b43e6dcc802201c82b6788a526741e14a4b92b1efbfa5df47ad7a79e9c271cf10d75adadf4ffe01",
        "022902cb31849eeaef37220b08ea3c596e206b6c933a1bfb321720cba42f591af8"
      ],
      "is_coinbase": false,
      "sequence": 4294967293
    }
  ],
  "vout": [
    {
      "scriptpubkey": "001487af3d202dbb092db1bd2bdc44275be9fe202419",
      "scriptpubkey_asm": "OP_0 OP_PUSHBYTES_20 87af3d202dbb092db1bd2bdc44275be9fe202419",
      "scriptpubkey_type": "v0_p2wpkh",
      "scriptpubkey_address": "bc1qs7hn6gpdhvyjmvda90wygf6ma8lzqfqee65c5m",
      "value": 1400
    },
    {
      "scriptpubkey": "0014c7f821532c4554e8c0c7742310df20d40890bb07",
      "scriptpubkey_asm": "OP_0 OP_PUSHBYTES_20 c7f821532c4554e8c0c7742310df20d40890bb07",
      "scriptpubkey_type": "v0_p2wpkh",
      "scriptpubkey_address": "bc1qcluzz5evg42w3sx8ws33pheq6syfpwc87efuz9",
      "value": 59000
    }
  ],
  "size": 519,
  "weight": 1104,
  "fee": 3002,
  "status": {
    "confirmed": true,
    "block_height": 834464,
    "block_hash": "0000000000000000000177a0869a911a2b65c9bdcd5a8bcb02b68f305bee848e",
    "block_time": 1710308296
  },
  "hex": "020000000001037df5ec7584393bf0e79649538a90d3e153d3470fbed7e021a66f5c8f710f06190000000000fdffffffe918419edbe3fa7a17578b49575b18af2fe7684df9b45769890d8200b3171c9f0000000000fdffffffdf56f2b0ff59780d54ca39d60e36abf0e734c519c2fa7aacf6005cddee3947a30000000000fdffffff02780500000000000016001487af3d202dbb092db1bd2bdc44275be9fe20241978e6000000000000160014c7f821532c4554e8c0c7742310df20d40890bb0702483045022100efd3c7018f8a0570b443d521ec664e50bc60ed59e9642912c1f0651fb75f780602203e081b56df8662095904f3b3b72054f3245c46539a7a55771b5cb1c5a6d874830121034f7f22a6748c714bc91ac1dc9d16e39e11fdd4b9aff4a0d0c240405ffc23108602473044022035a4db16155a14a62ca96131033196f9564f6da16b462f72136a355844a956c902201b893af516e205b6aaff00cf4f2f1adeef3ce61f04a1ea0bee38e318f9051d2c0121027129f7c9f6432d730611edef708314282f30eba346737ab84307034665526c1d0247304402204bca3e2b9d39d5dd4a2559ae089b3295707836e6ff1390531566000b43e6dcc802201c82b6788a526741e14a4b92b1efbfa5df47ad7a79e9c271cf10d75adadf4ffe0121022902cb31849eeaef37220b08ea3c596e206b6c933a1bfb321720cba42f591af8f5b90c00"
}