{
  "txid": "22e9b23287b18152799eb8c72f962959c3719c94f5914a38a559e03a090b7ffe",
  "version": 2,
  "locktime": 0,
  "vin": [
    {
      "txid": "acc3ba00869acb582a3f2904ce3a11dd3779350ce234063fc7d0959246213364",
      "vout": 77,
      "prevout": {
        "scriptpubkey": "51200a258e416d0f0dcba73c14efbef5813c034b2cfa4b6f818f5b06c9eb155111b7",
        "scriptpubkey_asm": "OP_PUSHNUM_1 OP_PUSHBYTES_32 0a258e416d0f0dcba73c14efbef5813c034b2cfa4b6f818f5b06c9eb155111b7",
        "scriptpubkey_type": "v1_p2tr",
        "scriptpubkey_address": "bc1ppgjcustdpuxuhfeuznhmaavp8sp5kt86fdhcrr6mqmy7k923zxmscms06j",
        "value": 1806
      },
      "scriptsig": "",
      "scriptsig_asm": "",
      "witness": [
        "f3629d45c52e7a5894507a412705656ae89790a66e8b80fc0ca4710c63473413680f0ae982d97cea12e858fd3f8c39c83f9c89803bc63a7634cccd7593d7fb29",
        "20dd9eaea05c324df74b60e6e4f9575efb3cb69c9e625cb44019fb8d56c07f9f81ac0063036f726401010a746578742f706c61696e00357b2270223a226272632d3230222c226f70223a226d696e74222c227469636b223a22646f6765222c22616d74223a2234323030227d68",
        "c0dd9eaea05c324df74b60e6e4f9575efb3cb69c9e625cb44019fb8d56c07f9f81"
      ],
      "is_coinbase": false,
      "sequence": 4261412863
    }
  ],
  "vout": [
    {
      "scriptpubkey": "00147a665de7a370f4c9b372ab1fae587500a5bcbdb4",
      "scriptpubkey_asm": "OP_0 OP_PUSHBYTES_20 7a665de7a370f4c9b372ab1fae587500a5bcbdb4",
      "scriptpubkey_type": "v0_p2wpkh",
      "scriptpubkey_address": "bc1q0fn9mearwr6vnvmj4v06ukr4qzjme0d565dzcx",
      "value": 294
    }
  ],
  "size": 294,
  "weight": 540,
  "fee": 1512,
  "status": {
    "confirmed": true,
    "block_height": 834460,
    "block_hash": "00000000000000000000484a79b643b2524bbce82e5d8a442013fa5b8905ed98",
    "block_time": 1710307468
  },
  "hex": "02000000000101643321469295d0c73f0634e20c357937dd113ace04293f2a58cb9a8600bac3ac4d00000000fffffffd0126010000000000001600147a665de7a370f4c9b372ab1fae587500a5bcbdb40340f3629d45c52e7a5894507a412705656ae89790a66e8b80fc0ca4710c63473413680f0ae982d97cea12e858fd3f8c39c83f9c89803bc63a7634cccd7593d7fb296d20dd9eaea05c324df74b60e6e4f9575efb3cb69c9e625cb44019fb8d56c07f9f81ac0063036f726401010a746578742f706c61696e00357b2270223a226272632d3230222c226f70223a226d696e74222c227469636b223a22646f6765222c22616d74223a2234323030227d6821c0dd9eaea05c324df74b60e6e4f9575efb3cb69c9e625cb44019fb8d56c07f9f8100000000"
}