{
  "txid": "22ea615c9f50f226d81a21ce7655083124a20de4df222fb2335884637e616692",
  "version": 2,
  "locktime": 834637,
  "vin": [
    {
      "txid": "eb6a5bf60f77d656d6205509c2611f69bec685d147b5e5538d4d03fda578d3de",
      "vout": 1,
      "prevout": {
        "scriptpubkey": "0014981a520addbea3df49aa166816a5e725e96e62d5",
        "scriptpubkey_asm": "OP_0 OP_PUSHBYTES_20 981a520addbea3df49aa166816a5e725e96e62d5",
        "scriptpubkey_type": "v0_p2wpkh",
        "scriptpubkey_address": "bc1qnqd9yzkah63a7jd2ze5pdf08yh5kuck47sm2ef",
        "value": 260335024
      },
      "scriptsig": "",
      "scriptsig_asm": "",
      "witness": [
        "30440220045bef98ad5e21fbc02423bddd8ac496c61deddcbb5770cca1eef5bc53100efd0220450b0bb5ee6d326f3131319154609c50aa22673d80a02895429ce8c66fc4d3dc01",
        "03c71ba5efe1028cac3dc2ac78c1d06a5d4794e621f6f3c40cf9f3d14f30c63c02"
      ],
      "is_coinbase": false,
      "sequence": 4294967294
    }
  ],
  "vout": [
    {
      "scriptpubkey": "001401917d523815a30bbaabde3faea12ecd35622e01",
      "scriptpubkey_asm": "OP_0 OP_PUSHBYTES_20 01917d523815a30bbaabde3faea12ecd35622e01",
      "scriptpubkey_type": "v0_p2wpkh",
      "scriptpubkey_address": "bc1qqxgh653czk3shw4tmcl6agfwe56kytspcf5q75",
      "value": 259781544
    },
    {
      "scriptpubkey": "a914b7ebb3e85dd67e8be2de814955c11950b778868b87",
      "scriptpubkey_asm": "OP_HASH160 OP_PUSHBYTES_20 b7ebb3e85dd67e8be2de814955c11950b778868b OP_EQUAL",
      "scriptpubkey_type": "p2sh",
      "scriptpubkey_address": "3JTVwZfCdTkSs1kEZNz5svQYA88wX4g4b1",
      "value": 550000
    }
  ],
  "size": 223,
  "weight": 565,
  "fee": 3480,
  "status": {
    "confirmed": true,
    "block_height": 834638,
    "block_hash": "000000000000000000025f742c626208ac87e0b7d15054abb4a19ca2d735a54e",
    "block_time": 1710405325
  },
  "hex": "02000000000101ded378a5fd034d8d53e5b547d185c6be691f61c2095520d656d6770ff65b6aeb0100000000feffffff02a8f37b0f0000000016001401917d523815a30bbaabde3faea12ecd35622e01706408000000000017a914b7ebb3e85dd67e8be2de814955c11950b778868b87024730440220045bef98ad5e21fbc02423bddd8ac496c61deddcbb5770cca1eef5bc53100efd0220450b0bb5ee6d326f3131319154609c50aa22673d80a02895429ce8c66fc4d3dc012103c71ba5efe1028cac3dc2ac78c1d06a5d4794e621f6f3c40cf9f3d14f30c63c024dbc0c00"
}