{
  "txid": "22ecce78d190c103f9179d917f7a6a2f347fdac0371a955402d9c5e98bedbd37",
  "version": 2,
  "locktime": 0,
  "vin": [
    {
      "txid": "18c9acc9218e298c6e4d562be454ef5d9a406ba40c1686193398f754e5159cb9",
      "vout": 0,
      "prevout": {
        "scriptpubkey": "00143c3137d384cbe863ca076f8d9f3af337e84a15b5",
        "scriptpubkey_asm": "OP_0 OP_PUSHBYTES_20 3c3137d384cbe863ca076f8d9f3af337e84a15b5",
        "scriptpubkey_type": "v0_p2wpkh",
        "scriptpubkey_address": "bc1q8scn05uye05x8js8d7xe7whnxl5y59d44u5yxq",
        "value": 4642424
      },
      "scriptsig": "",
      "scriptsig_asm": "",
      "witness": [
        "3044022024e5d38f89a0709064280e78a0a0cc38ab493384f504f5de9bee15a3559add260220698df7fd561a0b90b100999e7ec92a023e9b79502de54860f9006192cf4fb3a601",
        "028d5542147757148ac1e791441d8a21c38db33f7c1958618c0f998654dcdcc3ed"
      ],
      "is_coinbase": false,
      "sequence": 4294967295
    }
  ],
  "vout": [
    {
      "scriptpubkey": "00145c9a05fccdb20c5382250faf6982831a149252ff",
      "scriptpubkey_asm": "OP_0 OP_PUSHBYTES_20 5c9a05fccdb20c5382250faf6982831a149252ff",
      "scriptpubkey_type": "v0_p2wpkh",
      "scriptpubkey_address": "bc1qtjdqtlxdkgx98q39p7hknq5rrg2fy5hlzahz2x",
      "value": 1448034
    },
    {
      "scriptpubkey": "a9143fdd726333767a24db9acb10e1b77c30e09ac37e87",
      "scriptpubkey_asm": "OP_HASH160 OP_PUSHBYTES_20 3fdd726333767a24db9acb10e1b77c30e09ac37e OP_EQUAL",
      "scriptpubkey_type": "p2sh",
      "scriptpubkey_address": "37Whn2MyyiUS4QvPjfprc5r4C5C1dW8dAN",
      "value": 3190730
    }
  ],
  "size": 223,
  "weight": 565,
  "fee": 3660,
  "status": {
    "confirmed": true,
    "block_height": 834638,
    "block_hash": "000000000000000000025f742c626208ac87e0b7d15054abb4a19ca2d735a54e",
    "block_time": 1710405325
  },
  "hex": "02000000000101b99c15e554f798331986160ca46b409a5def54e42b564d6e8c298e21c9acc9180000000000ffffffff0262181600000000001600145c9a05fccdb20c5382250faf6982831a149252ffcaaf30000000000017a9143fdd726333767a24db9acb10e1b77c30e09ac37e8702473044022024e5d38f89a0709064280e78a0a0cc38ab493384f504f5de9bee15a3559add260220698df7fd561a0b90b100999e7ec92a023e9b79502de54860f9006192cf4fb3a60121028d5542147757148ac1e791441d8a21c38db33f7c1958618c0f998654dcdcc3ed00000000"
}