{
  "txid": "22f1bcb84b2607883f23508a4b014ffe61aba9b5b44396899840207047c630b0",
  "version": 1,
  "locktime": 0,
  "vin": [
    {
      "txid": "3adf99cd8ea34d0ae4a120f3a4939aac13fe47d1f8b1f8ac44f37d75103ea28c",
      "vout": 0,
      "prevout": {
        "scriptpubkey": "76a914d959c84ab2159bf66617930b90283782438daff988ac",
        "scriptpubkey_asm": "OP_DUP OP_HASH160 OP_PUSHBYTES_20 d959c84ab2159bf66617930b90283782438daff9 OP_EQUALVERIFY OP_CHECKSIG",
        "scriptpubkey_type": "p2pkh",
        "scriptpubkey_address": "1LpFBpPQRzE4AEVodtyd3V3q5iSEhR3YNR",
        "value": 211167
      },
      "scriptsig": "4830450221009b3b49ac4aba566d632e476636be06bad398a083807c079df9b9d8bb63e2a466022029e51f48c02ea87c6601ec525115629b9684b24e4673416ae7698a94bd1afb23012103ccc4d9df04108bfc0db2d24a7f1c51cd0ffa564b39940eda7b3a7962028d43fa",
      "scriptsig_asm": "OP_PUSHBYTES_72 30450221009b3b49ac4aba566d632e476636be06bad398a083807c079df9b9d8bb63e2a466022029e51f48c02ea87c6601ec525115629b9684b24e4673416ae7698a94bd1afb2301 OP_PUSHBYTES_33 03ccc4d9df04108bfc0db2d24a7f1c51cd0ffa564b39940eda7b3a7962028d43fa",
      "is_coinbase": false,
      "sequence": 4294967293
    }
  ],
  "vout": [
    {
      "scriptpubkey": "76a914d959c84ab2159bf66617930b90283782438daff988ac",
      "scriptpubkey_asm": "OP_DUP OP_HASH160 OP_PUSHBYTES_20 d959c84ab2159bf66617930b90283782438daff9 OP_EQUALVERIFY OP_CHECKSIG",
      "scriptpubkey_type": "p2pkh",
      "scriptpubkey_address": "1LpFBpPQRzE4AEVodtyd3V3q5iSEhR3YNR",
      "value": 100000
    },
    {
      "scriptpubkey": "76a914d959c84ab2159bf66617930b90283782438daff988ac",
      "scriptpubkey_asm": "OP_DUP OP_HASH160 OP_PUSHBYTES_20 d959c84ab2159bf66617930b90283782438daff9 OP_EQUALVERIFY OP_CHECKSIG",
      "scriptpubkey_type": "p2pkh",
      "scriptpubkey_address": "1LpFBpPQRzE4AEVodtyd3V3q5iSEhR3YNR",
      "value": 104824
    }
  ],
  "size": 226,
  "weight": 904,
  "fee": 6343,
  "status": {
    "confirmed": true,
    "block_height": 834638,
    "block_hash": "000000000000000000025f742c626208ac87e0b7d15054abb4a19ca2d735a54e",
    "block_time": 1710405325
  },
  "hex": "01000000018ca23e10757df344acf8b1f8d147fe13ac9a93a4f320a1e40a4da38ecd99df3a000000006b4830450221009b3b49ac4aba566d632e476636be06bad398a083807c079df9b9d8bb63e2a466022029e51f48c02ea87c6601ec525115629b9684b24e4673416ae7698a94bd1afb23012103ccc4d9df04108bfc0db2d24a7f1c51cd0ffa564b39940eda7b3a7962028d43fafdffffff02a0860100000000001976a914d959c84ab2159bf66617930b90283782438daff988ac78990100000000001976a914d959c84ab2159bf66617930b90283782438daff988ac00000000"
}