{
  "txid": "22f279a8bc0df2287fdfc3076c90d91db7b286b3cbf0fd7dce69a509f1965583",
  "version": 2,
  "locktime": 0,
  "vin": [
    {
      "txid": "93173c7db030ac478faede0353641260ced7f8d759321e009827d16f5b95a6fa",
      "vout": 8,
      "prevout": {
        "scriptpubkey": "512050a6bbba7cf597fba2f9f7f2065821031f568238867e3147100014ebe186e91d",
        "scriptpubkey_asm": "OP_PUSHNUM_1 OP_PUSHBYTES_32 50a6bbba7cf597fba2f9f7f2065821031f568238867e3147100014ebe186e91d",
        "scriptpubkey_type": "v1_p2tr",
        "scriptpubkey_address": "bc1p2znthwnu7ktlhghe7leqvkppqv04dq3cselrz3csqq2whcvxaywsgu4md3",
        "value": 600
      },
      "scriptsig": "",
      "scriptsig_asm": "",
      "witness": [
        "4089e458279878cb84b7c871f3a7740f934d4e727c01dce803549451b0a13b8a015a14ad6a0d846ea6ba9e1941a14e438ec9e34edba2fee359dbfcf6be251d16"
      ],
      "is_coinbase": false,
      "sequence": 4294967295
    },
    {
      "txid": "93173c7db030ac478faede0353641260ced7f8d759321e009827d16f5b95a6fa",
      "vout": 9,
      "prevout": {
        "scriptpubkey": "512050a6bbba7cf597fba2f9f7f2065821031f568238867e3147100014ebe186e91d",
        "scriptpubkey_asm": "OP_PUSHNUM_1 OP_PUSHBYTES_32 50a6bbba7cf597fba2f9f7f2065821031f568238867e3147100014ebe186e91d",
        "scriptpubkey_type": "v1_p2tr",
        "scriptpubkey_address": "bc1p2znthwnu7ktlhghe7leqvkppqv04dq3cselrz3csqq2whcvxaywsgu4md3",
        "value": 600
      },
      "scriptsig": "",
      "scriptsig_asm": "",
      "witness": [
        "03f31c4331ba466fbe409dc9ca3e632ff6570d1e6fc828121351d6cbb70601ca2a3ebefb9c81574ed7982b75c02c275a18e5c830d1746696cf13febd806a6f34"
      ],
      "is_coinbase": false,
      "sequence": 4294967295
    },
    {
      "txid": "ec4d62dd7400b80168954539940fca3a37b9343c3440a352b74496bd0f30ee1a",
      "vout": 1,
      "prevout": {
        "scriptpubkey": "5120bf447b2175b02e40999fae468a739913bc70cd6929cf29d28f384f1786c9620c",
        "scriptpubkey_asm": "OP_PUSHNUM_1 OP_PUSHBYTES_32 bf447b2175b02e40999fae468a739913bc70cd6929cf29d28f384f1786c9620c",
        "scriptpubkey_type": "v1_p2tr",
        "scriptpubkey_address": "bc1phaz8kgt4kqhypxvl4erg5uuezw78pntf988jn5508p830pkfvgxq0j2t4k",
        "value": 1000
      },
      "scriptsig": "",
      "scriptsig_asm": "",
      "witness": [
        "69a11bf6a3796e7138367ed94d3eb49465e888087d04980dfb545350552f80e49da021da07bbd0eff894cfa6eaac0bb3eff927e43749fcb119d38dce3099917b83"
      ],
      "is_coinbase": false,
      "sequence": 4294967295
    },
    {
      "txid": "be309f415304570b91d78841cc17d9986d6dc5ed73a331d46065fb5619944b80",
      "vout": 2,
      "prevout": {
        "scriptpubkey": "512050a6bbba7cf597fba2f9f7f2065821031f568238867e3147100014ebe186e91d",
        "scriptpubkey_asm": "OP_PUSHNUM_1 OP_PUSHBYTES_32 50a6bbba7cf597fba2f9f7f2065821031f568238867e3147100014ebe186e91d",
        "scriptpubkey_type": "v1_p2tr",
        "scriptpubkey_address": "bc1p2znthwnu7ktlhghe7leqvkppqv04dq3cselrz3csqq2whcvxaywsgu4md3",
        "value": 11722
      },
      "scriptsig": "",
      "scriptsig_asm": "",
      "witness": [
        "b63a4594ed9562a4435a62a8c96659c0301c4dbb5a009eab95c9f3b883fe19ea8329f6736210074c967f47c4dab5b430a2e5a2ff489915df07ed5c54bdefab27"
      ],
      "is_coinbase": false,
      "sequence": 4294967295
    },
    {
      "txid": "c6e700d98dcbcc478c11a78512eedd37d1f29464b3d50d4bae97aabc7d43a236",
      "vout": 1,
      "prevout": {
        "scriptpubkey": "512050a6bbba7cf597fba2f9f7f2065821031f568238867e3147100014ebe186e91d",
        "scriptpubkey_asm": "OP_PUSHNUM_1 OP_PUSHBYTES_32 50a6bbba7cf597fba2f9f7f2065821031f568238867e3147100014ebe186e91d",
        "scriptpubkey_type": "v1_p2tr",
        "scriptpubkey_address": "bc1p2znthwnu7ktlhghe7leqvkppqv04dq3cselrz3csqq2whcvxaywsgu4md3",
        "value": 7754
      },
      "scriptsig": "",
      "scriptsig_asm": "",
      "witness": [
        "47e065a4e26c15061815c6ad8a17193aabee69acb23ba775494d3e411624ad967ae8af79e14f7f7b1134255b07f1fc895c24d6cc433ee89c52b1f2a8c32ad764"
      ],
      "is_coinbase": false,
      "sequence": 4294967295
    },
    {
      "txid": "051c995f6a033d1e86f8f2fd710fa25819db25bfb9b998dd2791b5a4db2ca86d",
      "vout": 1,
      "prevout": {
        "scriptpubkey": "512050a6bbba7cf597fba2f9f7f2065821031f568238867e3147100014ebe186e91d",
        "scriptpubkey_asm": "OP_PUSHNUM_1 OP_PUSHBYTES_32 50a6bbba7cf597fba2f9f7f2065821031f568238867e3147100014ebe186e91d",
        "scriptpubkey_type": "v1_p2tr",
        "scriptpubkey_address": "bc1p2znthwnu7ktlhghe7leqvkppqv04dq3cselrz3csqq2whcvxaywsgu4md3",
        "value": 6706
      },
      "scriptsig": "",
      "scriptsig_asm": "",
      "witness": [
        "8fc9ef08f8c4b5f058c2078833c41dba8ca7085277afb9bbecb7b3a65779971413bdc10f5640cbbc813db3e8fe369ecb8031b38eb5b4bb43098ae70cb8ef1142"
      ],
      "is_coinbase": false,
      "sequence": 4294967295
    },
    {
      "txid": "8c5530acd519578a83967e7751a3ebc6552314200742b30339da5adc7ebe7544",
      "vout": 1,
      "prevout": {
        "scriptpubkey": "512050a6bbba7cf597fba2f9f7f2065821031f568238867e3147100014ebe186e91d",
        "scriptpubkey_asm": "OP_PUSHNUM_1 OP_PUSHBYTES_32 50a6bbba7cf597fba2f9f7f2065821031f568238867e3147100014ebe186e91d",
        "scriptpubkey_type": "v1_p2tr",
        "scriptpubkey_address": "bc1p2znthwnu7ktlhghe7leqvkppqv04dq3cselrz3csqq2whcvxaywsgu4md3",
        "value": 6397
      },
      "scriptsig": "",
      "scriptsig_asm": "",
      "witness": [
        "9f2797536f1b35b17ac5041e41bfaed934b0fd07e8f947c26da6992a2e138d507d092ccfb915c0bd3e44377d6e2bf764659db8a0b3289ad36145eecee1e528c0"
      ],
      "is_coinbase": false,
      "sequence": 4294967295
    },
    {
      "txid": "0902bf6715187e13aef3e0a6caf4191cc5f5116488fa8ec04242b1f8f442ad03",
      "vout": 1,
      "prevout": {
        "scriptpubkey": "512050a6bbba7cf597fba2f9f7f2065821031f568238867e3147100014ebe186e91d",
        "scriptpubkey_asm": "OP_PUSHNUM_1 OP_PUSHBYTES_32 50a6bbba7cf597fba2f9f7f2065821031f568238867e3147100014ebe186e91d",
        "scriptpubkey_type": "v1_p2tr",
        "scriptpubkey_address": "bc1p2znthwnu7ktlhghe7leqvkppqv04dq3cselrz3csqq2whcvxaywsgu4md3",
        "value": 5529
      },
      "scriptsig": "",
      "scriptsig_asm": "",
      "witness": [
        "47245f4360b398336665d05f98a1999317ca11f9a49e75b52b71b29ede58dbe2699e677c91ccd423dfe40bf5179b7f82cfb1cb7a9914211743200a633504b665"
      ],
      "is_coinbase": false,
      "sequence": 4294967295
    }
  ],
  "vout": [
    {
      "scriptpubkey": "512050a6bbba7cf597fba2f9f7f2065821031f568238867e3147100014ebe186e91d",
      "scriptpubkey_asm": "OP_PUSHNUM_1 OP_PUSHBYTES_32 50a6bbba7cf597fba2f9f7f2065821031f568238867e3147100014ebe186e91d",
      "scriptpubkey_type": "v1_p2tr",
      "scriptpubkey_address": "bc1p2znthwnu7ktlhghe7leqvkppqv04dq3cselrz3csqq2whcvxaywsgu4md3",
      "value": 1200
    },
    {
      "scriptpubkey": "512050a6bbba7cf597fba2f9f7f2065821031f568238867e3147100014ebe186e91d",
      "scriptpubkey_asm": "OP_PUSHNUM_1 OP_PUSHBYTES_32 50a6bbba7cf597fba2f9f7f2065821031f568238867e3147100014ebe186e91d",
      "scriptpubkey_type": "v1_p2tr",
      "scriptpubkey_address": "bc1p2znthwnu7ktlhghe7leqvkppqv04dq3cselrz3csqq2whcvxaywsgu4md3",
      "value": 1000
    },
    {
      "scriptpubkey": "5120bf447b2175b02e40999fae468a739913bc70cd6929cf29d28f384f1786c9620c",
      "scriptpubkey_asm": "OP_PUSHNUM_1 OP_PUSHBYTES_32 bf447b2175b02e40999fae468a739913bc70cd6929cf29d28f384f1786c9620c",
      "scriptpubkey_type": "v1_p2tr",
      "scriptpubkey_address": "bc1phaz8kgt4kqhypxvl4erg5uuezw78pntf988jn5508p830pkfvgxq0j2t4k",
      "value": 12940
    },
    {
      "scriptpubkey": "a914ea6b832a05c6ca578baa3836f3f25553d41068a587",
      "scriptpubkey_asm": "OP_HASH160 OP_PUSHBYTES_20 ea6b832a05c6ca578baa3836f3f25553d41068a5 OP_EQUAL",
      "scriptpubkey_type": "p2sh",
      "scriptpubkey_address": "3P4WqXDbSLRhzo2H6MT6YFbvBKBDPLbVtQ",
      "value": 580
    },
    {
      "scriptpubkey": "512050a6bbba7cf597fba2f9f7f2065821031f568238867e3147100014ebe186e91d",
      "scriptpubkey_asm": "OP_PUSHNUM_1 OP_PUSHBYTES_32 50a6bbba7cf597fba2f9f7f2065821031f568238867e3147100014ebe186e91d",
      "scriptpubkey_type": "v1_p2tr",
      "scriptpubkey_address": "bc1p2znthwnu7ktlhghe7leqvkppqv04dq3cselrz3csqq2whcvxaywsgu4md3",
      "value": 600
    },
    {
      "scriptpubkey": "512050a6bbba7cf597fba2f9f7f2065821031f568238867e3147100014ebe186e91d",
      "scriptpubkey_asm": "OP_PUSHNUM_1 OP_PUSHBYTES_32 50a6bbba7cf597fba2f9f7f2065821031f568238867e3147100014ebe186e91d",
      "scriptpubkey_type": "v1_p2tr",
      "scriptpubkey_address": "bc1p2znthwnu7ktlhghe7leqvkppqv04dq3cselrz3csqq2whcvxaywsgu4md3",
      "value": 600
    },
    {
      "scriptpubkey": "512050a6bbba7cf597fba2f9f7f2065821031f568238867e3147100014ebe186e91d",
      "scriptpubkey_asm": "OP_PUSHNUM_1 OP_PUSHBYTES_32 50a6bbba7cf597fba2f9f7f2065821031f568238867e3147100014ebe186e91d",
      "scriptpubkey_type": "v1_p2tr",
      "scriptpubkey_address": "bc1p2znthwnu7ktlhghe7leqvkppqv04dq3cselrz3csqq2whcvxaywsgu4md3",
      "value": 10417
    }
  ],
  "size": 1159,
  "weight": 3043,
  "fee": 12971,
  "status": {
    "confirmed": true,
    "block_height": 834638,
    "block_hash": "000000000000000000025f742c626208ac87e0b7d15054abb4a19ca2d735a54e",
    "block_time": 1710405325
  },
  "hex": "02000000000108faa6955b6fd12798001e3259d7f8d7ce6012645303deae8f47ac30b07d3c17930800000000fffffffffaa6955b6fd12798001e3259d7f8d7ce6012645303deae8f47ac30b07d3c17930900000000ffffffff1aee300fbd9644b752a340343c34b9373aca0f943945956801b80074dd624dec0100000000ffffffff804b941956fb6560d431a373edc56d6d98d917cc4188d7910b570453419f30be0200000000ffffffff36a2437dbcaa97ae4b0dd5b36494f2d137ddee1285a7118c47cccb8dd900e7c60100000000ffffffff6da82cdba4b59127dd98b9b9bf25db1958a20f71fdf2f8861e3d036a5f991c050100000000ffffffff4475be7edc5ada3903b3420720142355c6eba351777e96838a5719d5ac30558c0100000000ffffffff03ad42f4f8b14242c08efa886411f5c51c19f4caa6e0f3ae137e181567bf02090100000000ffffffff07b00400000000000022512050a6bbba7cf597fba2f9f7f2065821031f568238867e3147100014ebe186e91de80300000000000022512050a6bbba7cf597fba2f9f7f2065821031f568238867e3147100014ebe186e91d8c32000000000000225120bf447b2175b02e40999fae468a739913bc70cd6929cf29d28f384f1786c9620c440200000000000017a914ea6b832a05c6ca578baa3836f3f25553d41068a587580200000000000022512050a6bbba7cf597fba2f9f7f2065821031f568238867e3147100014ebe186e91d580200000000000022512050a6bbba7cf597fba2f9f7f2065821031f568238867e3147100014ebe186e91db12800000000000022512050a6bbba7cf597fba2f9f7f2065821031f568238867e3147100014ebe186e91d01404089e458279878cb84b7c871f3a7740f934d4e727c01dce803549451b0a13b8a015a14ad6a0d846ea6ba9e1941a14e438ec9e34edba2fee359dbfcf6be251d16014003f31c4331ba466fbe409dc9ca3e632ff6570d1e6fc828121351d6cbb70601ca2a3ebefb9c81574ed7982b75c02c275a18e5c830d1746696cf13febd806a6f34014169a11bf6a3796e7138367ed94d3eb49465e888087d04980dfb545350552f80e49da021da07bbd0eff894cfa6eaac0bb3eff927e43749fcb119d38dce3099917b830140b63a4594ed9562a4435a62a8c96659c0301c4dbb5a009eab95c9f3b883fe19ea8329f6736210074c967f47c4dab5b430a2e5a2ff489915df07ed5c54bdefab27014047e065a4e26c15061815c6ad8a17193aabee69acb23ba775494d3e411624ad967ae8af79e14f7f7b1134255b07f1fc895c24d6cc433ee89c52b1f2a8c32ad76401408fc9ef08f8c4b5f058c2078833c41dba8ca7085277afb9bbecb7b3a65779971413bdc10f5640cbbc813db3e8fe369ecb8031b38eb5b4bb43098ae70cb8ef114201409f2797536f1b35b17ac5041e41bfaed934b0fd07e8f947c26da6992a2e138d507d092ccfb915c0bd3e44377d6e2bf764659db8a0b3289ad36145eecee1e528c0014047245f4360b398336665d05f98a1999317ca11f9a49e75b52b71b29ede58dbe2699e677c91ccd423dfe40bf5179b7f82cfb1cb7a9914211743200a633504b66500000000"
}