{
  "txid": "22f5187a45c7608296f97889769c8c1238265a1511179b632db2014902bca27e",
  "version": 2,
  "locktime": 0,
  "vin": [
    {
      "txid": "b0a7fb5d138784772c237c9e0a8950050a2cff2259743091aa6032d9b08bbc79",
      "vout": 24,
      "prevout": {
        "scriptpubkey": "0014858ccaca6c4e482f629fdbcc5539e695d8673ea2",
        "scriptpubkey_asm": "OP_0 OP_PUSHBYTES_20 858ccaca6c4e482f629fdbcc5539e695d8673ea2",
        "scriptpubkey_type": "v0_p2wpkh",
        "scriptpubkey_address": "bc1qskxv4jnvfeyz7c5lm0x92w0xjhvxw04zpzg6gn",
        "value": 123144
      },
      "scriptsig": "",
      "scriptsig_asm": "",
      "witness": [
        "3045022100c3c416265a07ae885ec7ca527310fee915964a4b667340cd244a82bd4998e1b7022055bc481b483e5dcfdc47625d13956b5b96ae198144779bc00dbfda365de0597a01",
        "0224f14b181a0f77d670b063836b8942eaafb9714de6ee5bcf9b5ecfaeb76446d1"
      ],
      "is_coinbase": false,
      "sequence": 4294967293
    }
  ],
  "vout": [
    {
      "scriptpubkey": "51207a31300834f7c8e99673d7b0ea7147a30e7992344c70e3869c9500feebb41085",
      "scriptpubkey_asm": "OP_PUSHNUM_1 OP_PUSHBYTES_32 7a31300834f7c8e99673d7b0ea7147a30e7992344c70e3869c9500feebb41085",
      "scriptpubkey_type": "v1_p2tr",
      "scriptpubkey_address": "bc1p0gcnqzp57lywn9nn67cw5u285v88ny35f3cw8p5uj5q0a6a5zzzskqccj9",
      "value": 1962
    },
    {
      "scriptpubkey": "51207a31300834f7c8e99673d7b0ea7147a30e7992344c70e3869c9500feebb41085",
      "scriptpubkey_asm": "OP_PUSHNUM_1 OP_PUSHBYTES_32 7a31300834f7c8e99673d7b0ea7147a30e7992344c70e3869c9500feebb41085",
      "scriptpubkey_type": "v1_p2tr",
      "scriptpubkey_address": "bc1p0gcnqzp57lywn9nn67cw5u285v88ny35f3cw8p5uj5q0a6a5zzzskqccj9",
      "value": 1962
    },
    {
      "scriptpubkey": "51207a31300834f7c8e99673d7b0ea7147a30e7992344c70e3869c9500feebb41085",
      "scriptpubkey_asm": "OP_PUSHNUM_1 OP_PUSHBYTES_32 7a31300834f7c8e99673d7b0ea7147a30e7992344c70e3869c9500feebb41085",
      "scriptpubkey_type": "v1_p2tr",
      "scriptpubkey_address": "bc1p0gcnqzp57lywn9nn67cw5u285v88ny35f3cw8p5uj5q0a6a5zzzskqccj9",
      "value": 1962
    },
    {
      "scriptpubkey": "51207a31300834f7c8e99673d7b0ea7147a30e7992344c70e3869c9500feebb41085",
      "scriptpubkey_asm": "OP_PUSHNUM_1 OP_PUSHBYTES_32 7a31300834f7c8e99673d7b0ea7147a30e7992344c70e3869c9500feebb41085",
      "scriptpubkey_type": "v1_p2tr",
      "scriptpubkey_address": "bc1p0gcnqzp57lywn9nn67cw5u285v88ny35f3cw8p5uj5q0a6a5zzzskqccj9",
      "value": 1962
    },
    {
      "scriptpubkey": "51207a31300834f7c8e99673d7b0ea7147a30e7992344c70e3869c9500feebb41085",
      "scriptpubkey_asm": "OP_PUSHNUM_1 OP_PUSHBYTES_32 7a31300834f7c8e99673d7b0ea7147a30e7992344c70e3869c9500feebb41085",
      "scriptpubkey_type": "v1_p2tr",
      "scriptpubkey_address": "bc1p0gcnqzp57lywn9nn67cw5u285v88ny35f3cw8p5uj5q0a6a5zzzskqccj9",
      "value": 1962
    },
    {
      "scriptpubkey": "51207a31300834f7c8e99673d7b0ea7147a30e7992344c70e3869c9500feebb41085",
      "scriptpubkey_asm": "OP_PUSHNUM_1 OP_PUSHBYTES_32 7a31300834f7c8e99673d7b0ea7147a30e7992344c70e3869c9500feebb41085",
      "scriptpubkey_type": "v1_p2tr",
      "scriptpubkey_address": "bc1p0gcnqzp57lywn9nn67cw5u285v88ny35f3cw8p5uj5q0a6a5zzzskqccj9",
      "value": 1962
    },
    {
      "scriptpubkey": "51207a31300834f7c8e99673d7b0ea7147a30e7992344c70e3869c9500feebb41085",
      "scriptpubkey_asm": "OP_PUSHNUM_1 OP_PUSHBYTES_32 7a31300834f7c8e99673d7b0ea7147a30e7992344c70e3869c9500feebb41085",
      "scriptpubkey_type": "v1_p2tr",
      "scriptpubkey_address": "bc1p0gcnqzp57lywn9nn67cw5u285v88ny35f3cw8p5uj5q0a6a5zzzskqccj9",
      "value": 1962
    },
    {
      "scriptpubkey": "51207a31300834f7c8e99673d7b0ea7147a30e7992344c70e3869c9500feebb41085",
      "scriptpubkey_asm": "OP_PUSHNUM_1 OP_PUSHBYTES_32 7a31300834f7c8e99673d7b0ea7147a30e7992344c70e3869c9500feebb41085",
      "scriptpubkey_type": "v1_p2tr",
      "scriptpubkey_address": "bc1p0gcnqzp57lywn9nn67cw5u285v88ny35f3cw8p5uj5q0a6a5zzzskqccj9",
      "value": 1962
    },
    {
      "scriptpubkey": "51207a31300834f7c8e99673d7b0ea7147a30e7992344c70e3869c9500feebb41085",
      "scriptpubkey_asm": "OP_PUSHNUM_1 OP_PUSHBYTES_32 7a31300834f7c8e99673d7b0ea7147a30e7992344c70e3869c9500feebb41085",
      "scriptpubkey_type": "v1_p2tr",
      "scriptpubkey_address": "bc1p0gcnqzp57lywn9nn67cw5u285v88ny35f3cw8p5uj5q0a6a5zzzskqccj9",
      "value": 1962
    },
    {
      "scriptpubkey": "51207a31300834f7c8e99673d7b0ea7147a30e7992344c70e3869c9500feebb41085",
      "scriptpubkey_asm": "OP_PUSHNUM_1 OP_PUSHBYTES_32 7a31300834f7c8e99673d7b0ea7147a30e7992344c70e3869c9500feebb41085",
      "scriptpubkey_type": "v1_p2tr",
      "scriptpubkey_address": "bc1p0gcnqzp57lywn9nn67cw5u285v88ny35f3cw8p5uj5q0a6a5zzzskqccj9",
      "value": 1962
    },
    {
      "scriptpubkey": "51207a31300834f7c8e99673d7b0ea7147a30e7992344c70e3869c9500feebb41085",
      "scriptpubkey_asm": "OP_PUSHNUM_1 OP_PUSHBYTES_32 7a31300834f7c8e99673d7b0ea7147a30e7992344c70e3869c9500feebb41085",
      "scriptpubkey_type": "v1_p2tr",
      "scriptpubkey_address": "bc1p0gcnqzp57lywn9nn67cw5u285v88ny35f3cw8p5uj5q0a6a5zzzskqccj9",
      "value": 1962
    },
    {
      "scriptpubkey": "51207a31300834f7c8e99673d7b0ea7147a30e7992344c70e3869c9500feebb41085",
      "scriptpubkey_asm": "OP_PUSHNUM_1 OP_PUSHBYTES_32 7a31300834f7c8e99673d7b0ea7147a30e7992344c70e3869c9500feebb41085",
      "scriptpubkey_type": "v1_p2tr",
      "scriptpubkey_address": "bc1p0gcnqzp57lywn9nn67cw5u285v88ny35f3cw8p5uj5q0a6a5zzzskqccj9",
      "value": 1962
    },
    {
      "scriptpubkey": "51207a31300834f7c8e99673d7b0ea7147a30e7992344c70e3869c9500feebb41085",
      "scriptpubkey_asm": "OP_PUSHNUM_1 OP_PUSHBYTES_32 7a31300834f7c8e99673d7b0ea7147a30e7992344c70e3869c9500feebb41085",
      "scriptpubkey_type": "v1_p2tr",
      "scriptpubkey_address": "bc1p0gcnqzp57lywn9nn67cw5u285v88ny35f3cw8p5uj5q0a6a5zzzskqccj9",
      "value": 1962
    },
    {
      "scriptpubkey": "51207a31300834f7c8e99673d7b0ea7147a30e7992344c70e3869c9500feebb41085",
      "scriptpubkey_asm": "OP_PUSHNUM_1 OP_PUSHBYTES_32 7a31300834f7c8e99673d7b0ea7147a30e7992344c70e3869c9500feebb41085",
      "scriptpubkey_type": "v1_p2tr",
      "scriptpubkey_address": "bc1p0gcnqzp57lywn9nn67cw5u285v88ny35f3cw8p5uj5q0a6a5zzzskqccj9",
      "value": 1962
    },
    {
      "scriptpubkey": "51207a31300834f7c8e99673d7b0ea7147a30e7992344c70e3869c9500feebb41085",
      "scriptpubkey_asm": "OP_PUSHNUM_1 OP_PUSHBYTES_32 7a31300834f7c8e99673d7b0ea7147a30e7992344c70e3869c9500feebb41085",
      "scriptpubkey_type": "v1_p2tr",
      "scriptpubkey_address": "bc1p0gcnqzp57lywn9nn67cw5u285v88ny35f3cw8p5uj5q0a6a5zzzskqccj9",
      "value": 1962
    },
    {
      "scriptpubkey": "51207a31300834f7c8e99673d7b0ea7147a30e7992344c70e3869c9500feebb41085",
      "scriptpubkey_asm": "OP_PUSHNUM_1 OP_PUSHBYTES_32 7a31300834f7c8e99673d7b0ea7147a30e7992344c70e3869c9500feebb41085",
      "scriptpubkey_type": "v1_p2tr",
      "scriptpubkey_address": "bc1p0gcnqzp57lywn9nn67cw5u285v88ny35f3cw8p5uj5q0a6a5zzzskqccj9",
      "value": 1962
    },
    {
      "scriptpubkey": "51207a31300834f7c8e99673d7b0ea7147a30e7992344c70e3869c9500feebb41085",
      "scriptpubkey_asm": "OP_PUSHNUM_1 OP_PUSHBYTES_32 7a31300834f7c8e99673d7b0ea7147a30e7992344c70e3869c9500feebb41085",
      "scriptpubkey_type": "v1_p2tr",
      "scriptpubkey_address": "bc1p0gcnqzp57lywn9nn67cw5u285v88ny35f3cw8p5uj5q0a6a5zzzskqccj9",
      "value": 1962
    },
    {
      "scriptpubkey": "51207a31300834f7c8e99673d7b0ea7147a30e7992344c70e3869c9500feebb41085",
      "scriptpubkey_asm": "OP_PUSHNUM_1 OP_PUSHBYTES_32 7a31300834f7c8e99673d7b0ea7147a30e7992344c70e3869c9500feebb41085",
      "scriptpubkey_type": "v1_p2tr",
      "scriptpubkey_address": "bc1p0gcnqzp57lywn9nn67cw5u285v88ny35f3cw8p5uj5q0a6a5zzzskqccj9",
      "value": 1962
    },
    {
      "scriptpubkey": "51207a31300834f7c8e99673d7b0ea7147a30e7992344c70e3869c9500feebb41085",
      "scriptpubkey_asm": "OP_PUSHNUM_1 OP_PUSHBYTES_32 7a31300834f7c8e99673d7b0ea7147a30e7992344c70e3869c9500feebb41085",
      "scriptpubkey_type": "v1_p2tr",
      "scriptpubkey_address": "bc1p0gcnqzp57lywn9nn67cw5u285v88ny35f3cw8p5uj5q0a6a5zzzskqccj9",
      "value": 1962
    },
    {
      "scriptpubkey": "51207a31300834f7c8e99673d7b0ea7147a30e7992344c70e3869c9500feebb41085",
      "scriptpubkey_asm": "OP_PUSHNUM_1 OP_PUSHBYTES_32 7a31300834f7c8e99673d7b0ea7147a30e7992344c70e3869c9500feebb41085",
      "scriptpubkey_type": "v1_p2tr",
      "scriptpubkey_address": "bc1p0gcnqzp57lywn9nn67cw5u285v88ny35f3cw8p5uj5q0a6a5zzzskqccj9",
      "value": 1962
    },
    {
      "scriptpubkey": "51207a31300834f7c8e99673d7b0ea7147a30e7992344c70e3869c9500feebb41085",
      "scriptpubkey_asm": "OP_PUSHNUM_1 OP_PUSHBYTES_32 7a31300834f7c8e99673d7b0ea7147a30e7992344c70e3869c9500feebb41085",
      "scriptpubkey_type": "v1_p2tr",
      "scriptpubkey_address": "bc1p0gcnqzp57lywn9nn67cw5u285v88ny35f3cw8p5uj5q0a6a5zzzskqccj9",
      "value": 1962
    },
    {
      "scriptpubkey": "51207a31300834f7c8e99673d7b0ea7147a30e7992344c70e3869c9500feebb41085",
      "scriptpubkey_asm": "OP_PUSHNUM_1 OP_PUSHBYTES_32 7a31300834f7c8e99673d7b0ea7147a30e7992344c70e3869c9500feebb41085",
      "scriptpubkey_type": "v1_p2tr",
      "scriptpubkey_address": "bc1p0gcnqzp57lywn9nn67cw5u285v88ny35f3cw8p5uj5q0a6a5zzzskqccj9",
      "value": 1962
    },
    {
      "scriptpubkey": "51207a31300834f7c8e99673d7b0ea7147a30e7992344c70e3869c9500feebb41085",
      "scriptpubkey_asm": "OP_PUSHNUM_1 OP_PUSHBYTES_32 7a31300834f7c8e99673d7b0ea7147a30e7992344c70e3869c9500feebb41085",
      "scriptpubkey_type": "v1_p2tr",
      "scriptpubkey_address": "bc1p0gcnqzp57lywn9nn67cw5u285v88ny35f3cw8p5uj5q0a6a5zzzskqccj9",
      "value": 1962
    },
    {
      "scriptpubkey": "51207a31300834f7c8e99673d7b0ea7147a30e7992344c70e3869c9500feebb41085",
      "scriptpubkey_asm": "OP_PUSHNUM_1 OP_PUSHBYTES_32 7a31300834f7c8e99673d7b0ea7147a30e7992344c70e3869c9500feebb41085",
      "scriptpubkey_type": "v1_p2tr",
      "scriptpubkey_address": "bc1p0gcnqzp57lywn9nn67cw5u285v88ny35f3cw8p5uj5q0a6a5zzzskqccj9",
      "value": 1962
    },
    {
      "scriptpubkey": "0014858ccaca6c4e482f629fdbcc5539e695d8673ea2",
      "scriptpubkey_asm": "OP_0 OP_PUSHBYTES_20 858ccaca6c4e482f629fdbcc5539e695d8673ea2",
      "scriptpubkey_type": "v0_p2wpkh",
      "scriptpubkey_address": "bc1qskxv4jnvfeyz7c5lm0x92w0xjhvxw04zpzg6gn",
      "value": 62352
    }
  ],
  "size": 1224,
  "weight": 4566,
  "fee": 13704,
  "status": {
    "confirmed": true,
    "block_height": 834460,
    "block_hash": "00000000000000000000484a79b643b2524bbce82e5d8a442013fa5b8905ed98",
    "block_time": 1710307468
  },
  "hex": "0200000000010179bc8bb0d93260aa9130745922ff2c0a0550890a9e7c232c778487135dfba7b01800000000fdffffff19aa070000000000002251207a31300834f7c8e99673d7b0ea7147a30e7992344c70e3869c9500feebb41085aa070000000000002251207a31300834f7c8e99673d7b0ea7147a30e7992344c70e3869c9500feebb41085aa070000000000002251207a31300834f7c8e99673d7b0ea7147a30e7992344c70e3869c9500feebb41085aa070000000000002251207a31300834f7c8e99673d7b0ea7147a30e7992344c70e3869c9500feebb41085aa070000000000002251207a31300834f7c8e99673d7b0ea7147a30e7992344c70e3869c9500feebb41085aa070000000000002251207a31300834f7c8e99673d7b0ea7147a30e7992344c70e3869c9500feebb41085aa070000000000002251207a31300834f7c8e99673d7b0ea7147a30e7992344c70e3869c9500feebb41085aa070000000000002251207a31300834f7c8e99673d7b0ea7147a30e7992344c70e3869c9500feebb41085aa070000000000002251207a31300834f7c8e99673d7b0ea7147a30e7992344c70e3869c9500feebb41085aa070000000000002251207a31300834f7c8e99673d7b0ea7147a30e7992344c70e3869c9500feebb41085aa070000000000002251207a31300834f7c8e99673d7b0ea7147a30e7992344c70e3869c9500feebb41085aa070000000000002251207a31300834f7c8e99673d7b0ea7147a30e7992344c70e3869c9500feebb41085aa070000000000002251207a31300834f7c8e99673d7b0ea7147a30e7992344c70e3869c9500feebb41085aa070000000000002251207a31300834f7c8e99673d7b0ea7147a30e7992344c70e3869c9500feebb41085aa070000000000002251207a31300834f7c8e99673d7b0ea7147a30e7992344c70e3869c9500feebb41085aa070000000000002251207a31300834f7c8e99673d7b0ea7147a30e7992344c70e3869c9500feebb41085aa070000000000002251207a31300834f7c8e99673d7b0ea7147a30e7992344c70e3869c9500feebb41085aa070000000000002251207a31300834f7c8e99673d7b0ea7147a30e7992344c70e3869c9500feebb41085aa070000000000002251207a31300834f7c8e99673d7b0ea7147a30e7992344c70e3869c9500feebb41085aa070000000000002251207a31300834f7c8e99673d7b0ea7147a30e7992344c70e3869c9500feebb41085aa070000000000002251207a31300834f7c8e99673d7b0ea7147a30e7992344c70e3869c9500feebb41085aa070000000000002251207a31300834f7c8e99673d7b0ea7147a30e7992344c70e3869c9500feebb41085aa070000000000002251207a31300834f7c8e99673d7b0ea7147a30e7992344c70e3869c9500feebb41085aa070000000000002251207a31300834f7c8e99673d7b0ea7147a30e7992344c70e3869c9500feebb4108590f3000000000000160014858ccaca6c4e482f629fdbcc5539e695d8673ea202483045022100c3c416265a07ae885ec7ca527310fee915964a4b667340cd244a82bd4998e1b7022055bc481b483e5dcfdc47625d13956b5b96ae198144779bc00dbfda365de0597a01210224f14b181a0f77d670b063836b8942eaafb9714de6ee5bcf9b5ecfaeb76446d100000000"
}