{
  "txid": "23042ae487a09a15e2ec0ae325959f5a302a30ceb1f998dfd82c4b7426ba0c6b",
  "version": 2,
  "locktime": 834417,
  "vin": [
    {
      "txid": "a85a28b5fd50e7fa846a74e37f29b820ed74f4fe2dfcd08b506bb54f4b64dae8",
      "vout": 1,
      "prevout": {
        "scriptpubkey": "0014bd0c5d57b403aaee47fdf75e02ae9d23e0828802",
        "scriptpubkey_asm": "OP_0 OP_PUSHBYTES_20 bd0c5d57b403aaee47fdf75e02ae9d23e0828802",
        "scriptpubkey_type": "v0_p2wpkh",
        "scriptpubkey_address": "bc1qh5x964a5qw4wu3la7a0q9t5ay0sg9zqz9m5mdg",
        "value": 168896253
      },
      "scriptsig": "",
      "scriptsig_asm": "",
      "witness": [
        "30440220574adaf3712cf27017c7bfb07a6f03f809dda6e8dcb0b9974df89e19d6c5bb9f02205f427d2ad25c71b27c7dc8f39c03a503aa384eb6e5b07949f589b58c6c43626d01",
        "03a8d3d6d1616bf8280375e2926a937bf76b3ff9cd422bdedffd317a2d87cb8675"
      ],
      "is_coinbase": false,
      "sequence": 4294967294
    }
  ],
  "vout": [
    {
      "scriptpubkey": "001401409900d4e1f6643aa6facd69906d3a5d7ed166",
      "scriptpubkey_asm": "OP_0 OP_PUSHBYTES_20 01409900d4e1f6643aa6facd69906d3a5d7ed166",
      "scriptpubkey_type": "v0_p2wpkh",
      "scriptpubkey_address": "bc1qq9qfjqx5u8mxgw4xltxknyrd8fwha5tx8837ve",
      "value": 980300
    },
    {
      "scriptpubkey": "0014a5e600f330428754337d7365c9271348297c6d02",
      "scriptpubkey_asm": "OP_0 OP_PUSHBYTES_20 a5e600f330428754337d7365c9271348297c6d02",
      "scriptpubkey_type": "v0_p2wpkh",
      "scriptpubkey_address": "bc1q5hnqpuesg2r4gvmawdjujfcnfq5hcmgzufqx2u",
      "value": 167912844
    }
  ],
  "size": 222,
  "weight": 561,
  "fee": 3109,
  "status": {
    "confirmed": true,
    "block_height": 834464,
    "block_hash": "0000000000000000000177a0869a911a2b65c9bdcd5a8bcb02b68f305bee848e",
    "block_time": 1710308296
  },
  "hex": "02000000000101e8da644b4fb56b508bd0fc2dfef474ed20b8297fe3746a84fae750fdb5285aa80100000000feffffff024cf50e000000000016001401409900d4e1f6643aa6facd69906d3a5d7ed1668c25020a00000000160014a5e600f330428754337d7365c9271348297c6d02024730440220574adaf3712cf27017c7bfb07a6f03f809dda6e8dcb0b9974df89e19d6c5bb9f02205f427d2ad25c71b27c7dc8f39c03a503aa384eb6e5b07949f589b58c6c43626d012103a8d3d6d1616bf8280375e2926a937bf76b3ff9cd422bdedffd317a2d87cb867571bb0c00"
}