{
  "txid": "231be30df236bf79de2f886d8d9fbf98c412e563bcec75d6635c56e37f62d3ec",
  "version": 1,
  "locktime": 0,
  "vin": [
    {
      "txid": "62317f14aa9340d388694ebfae1ba12da39c6850b3fbde551896229947e82e29",
      "vout": 1,
      "prevout": {
        "scriptpubkey": "00140da615f028af6d682fc19a7091482740ee812beb",
        "scriptpubkey_asm": "OP_0 OP_PUSHBYTES_20 0da615f028af6d682fc19a7091482740ee812beb",
        "scriptpubkey_type": "v0_p2wpkh",
        "scriptpubkey_address": "bc1qpknptupg4akkst7pnfcfzjp8grhgz2ltrank6t",
        "value": 383663
      },
      "scriptsig": "",
      "scriptsig_asm": "",
      "witness": [
        "3045022100f7c3a760a0350dc16375ea622999d4766850c4586e4051de5b96529484ca01bb02205cdb5e1ffcab44d060985aa7fca092f432df0c03c3ebd99f56fc75a99977820601",
        "02e71bb8dcb44696bddb0d6a1e30dec8263243fd4398db5e432534fa59077006ac"
      ],
      "is_coinbase": false,
      "sequence": 4294967295
    },
    {
      "txid": "8a7323b5220c631c94b47366e6499a7d4c5c62f5495bdbb77ace226e0ae9ff35",
      "vout": 1,
      "prevout": {
        "scriptpubkey": "00140da615f028af6d682fc19a7091482740ee812beb",
        "scriptpubkey_asm": "OP_0 OP_PUSHBYTES_20 0da615f028af6d682fc19a7091482740ee812beb",
        "scriptpubkey_type": "v0_p2wpkh",
        "scriptpubkey_address": "bc1qpknptupg4akkst7pnfcfzjp8grhgz2ltrank6t",
        "value": 230743
      },
      "scriptsig": "",
      "scriptsig_asm": "",
      "witness": [
        "30450221008fb3058a94191a1f26c468141a02b10990ab950dc9dd0db8f12b2ad91902c348022068dca1d09e9f4107a718648ce61fe85b3c3f86d296eb0d9824b4dfca6bd7445001",
        "02e71bb8dcb44696bddb0d6a1e30dec8263243fd4398db5e432534fa59077006ac"
      ],
      "is_coinbase": false,
      "sequence": 4294967295
    }
  ],
  "vout": [
    {
      "scriptpubkey": "0014cf3f4eb3ef9942a04ff3b515a2365c21f82a74b0",
      "scriptpubkey_asm": "OP_0 OP_PUSHBYTES_20 cf3f4eb3ef9942a04ff3b515a2365c21f82a74b0",
      "scriptpubkey_type": "v0_p2wpkh",
      "scriptpubkey_address": "bc1qeul5avl0n9p2qnlnk526ydjuy8uz5a9sjnxwpz",
      "value": 612459
    }
  ],
  "size": 341,
  "weight": 710,
  "fee": 1947,
  "status": {
    "confirmed": true,
    "block_height": 834464,
    "block_hash": "0000000000000000000177a0869a911a2b65c9bdcd5a8bcb02b68f305bee848e",
    "block_time": 1710308296
  },
  "hex": "01000000000102292ee8479922961855defbb350689ca32da11baebf4e6988d34093aa147f31620100000000ffffffff35ffe90a6e22ce7ab7db5b49f5625c4c7d9a49e66673b4941c630c22b523738a0100000000ffffffff016b58090000000000160014cf3f4eb3ef9942a04ff3b515a2365c21f82a74b002483045022100f7c3a760a0350dc16375ea622999d4766850c4586e4051de5b96529484ca01bb02205cdb5e1ffcab44d060985aa7fca092f432df0c03c3ebd99f56fc75a999778206012102e71bb8dcb44696bddb0d6a1e30dec8263243fd4398db5e432534fa59077006ac024830450221008fb3058a94191a1f26c468141a02b10990ab950dc9dd0db8f12b2ad91902c348022068dca1d09e9f4107a718648ce61fe85b3c3f86d296eb0d9824b4dfca6bd74450012102e71bb8dcb44696bddb0d6a1e30dec8263243fd4398db5e432534fa59077006ac00000000"
}