{
  "txid": "2323324418795c574fc3273d22164decbce0d92a67859e4d33df2e5b6f7f4239",
  "version": 2,
  "locktime": 0,
  "vin": [
    {
      "txid": "10cc91ae0c3ac64762291a20fe799c15fee8a83b60179d51f7146e79b8ac5135",
      "vout": 0,
      "prevout": {
        "scriptpubkey": "76a914ea0ccf89bfd3a5205ce8a2fe5cfec6c0ba25446688ac",
        "scriptpubkey_asm": "OP_DUP OP_HASH160 OP_PUSHBYTES_20 ea0ccf89bfd3a5205ce8a2fe5cfec6c0ba254466 OP_EQUALVERIFY OP_CHECKSIG",
        "scriptpubkey_type": "p2pkh",
        "scriptpubkey_address": "1NLYTzUurSp7iGpuJt9WJWG5VuxUdJy7us",
        "value": 22854
      },
      "scriptsig": "4730440220450e441ec48a299a8907afd7f73bc71cc51771de4560c977f06770b18e34b7f002203956d458625b6820e74be11e108b7088dce6d887c842747e9bcdb09d117a28eb0121034b40cfd6057a227624884753c05e16ab74d6cb544c9e727d8c1c889aa71851b4",
      "scriptsig_asm": "OP_PUSHBYTES_71 30440220450e441ec48a299a8907afd7f73bc71cc51771de4560c977f06770b18e34b7f002203956d458625b6820e74be11e108b7088dce6d887c842747e9bcdb09d117a28eb01 OP_PUSHBYTES_33 034b40cfd6057a227624884753c05e16ab74d6cb544c9e727d8c1c889aa71851b4",
      "is_coinbase": false,
      "sequence": 4294967295
    },
    {
      "txid": "1af5a88e350fb9f05f74a378b7704130b217d337ba339a1a019617a268600d97",
      "vout": 0,
      "prevout": {
        "scriptpubkey": "76a91495b0d096984741e1637c959c420c2ccd4bec430088ac",
        "scriptpubkey_asm": "OP_DUP OP_HASH160 OP_PUSHBYTES_20 95b0d096984741e1637c959c420c2ccd4bec4300 OP_EQUALVERIFY OP_CHECKSIG",
        "scriptpubkey_type": "p2pkh",
        "scriptpubkey_address": "1EeVVtdrcYN6ND7ZhQqZBqh7SErVc4zcE3",
        "value": 14749
      },
      "scriptsig": "483045022100aef4e24887a13da6aa27cae238918b6c367d7b94c509dc69b329d135bdfa7fc2022035bcc97a41d9f6cb79d1763dda67e4cd22e43f09629ae848bc3f93fb5aca2cea012102bc23e5b80e208b3745a353007fc802c54ff2e756b6806fc69a4b086ac3c97357",
      "scriptsig_asm": "OP_PUSHBYTES_72 3045022100aef4e24887a13da6aa27cae238918b6c367d7b94c509dc69b329d135bdfa7fc2022035bcc97a41d9f6cb79d1763dda67e4cd22e43f09629ae848bc3f93fb5aca2cea01 OP_PUSHBYTES_33 02bc23e5b80e208b3745a353007fc802c54ff2e756b6806fc69a4b086ac3c97357",
      "is_coinbase": false,
      "sequence": 4294967295
    },
    {
      "txid": "1dc714b833d8467b55e8e5d0f51dca76a20aabb2d19f7c77ce08ee59135ce13c",
      "vout": 0,
      "prevout": {
        "scriptpubkey": "76a914455e0e9c4c5bfa130bf1908adbb66d026dbcd54b88ac",
        "scriptpubkey_asm": "OP_DUP OP_HASH160 OP_PUSHBYTES_20 455e0e9c4c5bfa130bf1908adbb66d026dbcd54b OP_EQUALVERIFY OP_CHECKSIG",
        "scriptpubkey_type": "p2pkh",
        "scriptpubkey_address": "17KnJSJagYr2krv8DX8VvR3TqhjSczPxis",
        "value": 8699
      },
      "scriptsig": "4730440220387ef79b6bd6bfda6eebd34d908f8dcac9debdfc5942c2513a44d95e33e17f2602200c82cb1de560bda1e72d099ad2ab5b317f2a501f30179788ce216c19c395d925012102f395431d846142d14adb969ce9cfcc8d6a6c637afe1d2972da058a6117c1c9dd",
      "scriptsig_asm": "OP_PUSHBYTES_71 30440220387ef79b6bd6bfda6eebd34d908f8dcac9debdfc5942c2513a44d95e33e17f2602200c82cb1de560bda1e72d099ad2ab5b317f2a501f30179788ce216c19c395d92501 OP_PUSHBYTES_33 02f395431d846142d14adb969ce9cfcc8d6a6c637afe1d2972da058a6117c1c9dd",
      "is_coinbase": false,
      "sequence": 4294967295
    },
    {
      "txid": "4434e469d786dae820bc6f6f5b3e4ced71dc896cea8b4061fd2db992db3cbe94",
      "vout": 0,
      "prevout": {
        "scriptpubkey": "76a914aa766d28f65ef19b398b861b2c07596a0438220a88ac",
        "scriptpubkey_asm": "OP_DUP OP_HASH160 OP_PUSHBYTES_20 aa766d28f65ef19b398b861b2c07596a0438220a OP_EQUALVERIFY OP_CHECKSIG",
        "scriptpubkey_type": "p2pkh",
        "scriptpubkey_address": "1GYKk2HTaefWWGM8nwhBMQWTdKXqByaCbp",
        "value": 19242
      },
      "scriptsig": "47304402207273aeffeb2d22f704ba5017db072b16814ca3d7911981b16e2738b079c1c52702203f0f84b4819907502b368248ba2525d372410a898252778eb930eca7e00901780121034923ee3ba3a8d839f3448866f9d8a30fc0303457b8b7af6e0fa742f723475c1f",
      "scriptsig_asm": "OP_PUSHBYTES_71 304402207273aeffeb2d22f704ba5017db072b16814ca3d7911981b16e2738b079c1c52702203f0f84b4819907502b368248ba2525d372410a898252778eb930eca7e009017801 OP_PUSHBYTES_33 034923ee3ba3a8d839f3448866f9d8a30fc0303457b8b7af6e0fa742f723475c1f",
      "is_coinbase": false,
      "sequence": 4294967295
    },
    {
      "txid": "871ad0af7e3cf2bd4054440e1a74a0c097325336f1fe9c4c1e3314f05064a41f",
      "vout": 0,
      "prevout": {
        "scriptpubkey": "76a914e96e2626e959188b35743e8a8cb85702cd169fbe88ac",
        "scriptpubkey_asm": "OP_DUP OP_HASH160 OP_PUSHBYTES_20 e96e2626e959188b35743e8a8cb85702cd169fbe OP_EQUALVERIFY OP_CHECKSIG",
        "scriptpubkey_type": "p2pkh",
        "scriptpubkey_address": "1NHGPz9iYhBJGvgKdvyWQKiiR9xZ6YjXVV",
        "value": 19600
      },
      "scriptsig": "483045022100856f675400b934c14a2076d2fa35d6ed1fb3b47f6d67e0ae9de2fe8da2d2469702205ad8daec9f77475bc728e59e1f39982dc997258f85ec122738be332261baa3cd0121033ec6f23ac95055652797565dd57eaf9f0864049bf93ff99bffe9cf07642a7ad9",
      "scriptsig_asm": "OP_PUSHBYTES_72 3045022100856f675400b934c14a2076d2fa35d6ed1fb3b47f6d67e0ae9de2fe8da2d2469702205ad8daec9f77475bc728e59e1f39982dc997258f85ec122738be332261baa3cd01 OP_PUSHBYTES_33 033ec6f23ac95055652797565dd57eaf9f0864049bf93ff99bffe9cf07642a7ad9",
      "is_coinbase": false,
      "sequence": 4294967295
    },
    {
      "txid": "eda42b893fee7550399f2aee190116d9a6c3f0056e698724ad93d1640f4c6f1e",
      "vout": 1,
      "prevout": {
        "scriptpubkey": "76a9147631aaeb5a9cf74626350fdbda8de633f3eab88b88ac",
        "scriptpubkey_asm": "OP_DUP OP_HASH160 OP_PUSHBYTES_20 7631aaeb5a9cf74626350fdbda8de633f3eab88b OP_EQUALVERIFY OP_CHECKSIG",
        "scriptpubkey_type": "p2pkh",
        "scriptpubkey_address": "1BmxEc6TH8gusyuJ6HMSgfc9gUMjuY4o23",
        "value": 37355
      },
      "scriptsig": "4730440220302aaf88bfaf94e6d6cf677de1c6634bc8786f664d045292906b90a32264711302207c1a25d57356e9b07a3f4af9b6a75b44a207d66a7d8651a049f6f6347999d23901210388f5a2ac02c0eaaa753e7ecf7798a525297c4cd0598a53497875bfd859bda738",
      "scriptsig_asm": "OP_PUSHBYTES_71 30440220302aaf88bfaf94e6d6cf677de1c6634bc8786f664d045292906b90a32264711302207c1a25d57356e9b07a3f4af9b6a75b44a207d66a7d8651a049f6f6347999d23901 OP_PUSHBYTES_33 0388f5a2ac02c0eaaa753e7ecf7798a525297c4cd0598a53497875bfd859bda738",
      "is_coinbase": false,
      "sequence": 4294967295
    },
    {
      "txid": "f6c40407dc9c85758470d235240b0dc62d1ee40aae5ca45085beba39c628e705",
      "vout": 1,
      "prevout": {
        "scriptpubkey": "76a914f809904cc8032902c56eff36aa79e3ec8a3aeb6388ac",
        "scriptpubkey_asm": "OP_DUP OP_HASH160 OP_PUSHBYTES_20 f809904cc8032902c56eff36aa79e3ec8a3aeb63 OP_EQUALVERIFY OP_CHECKSIG",
        "scriptpubkey_type": "p2pkh",
        "scriptpubkey_address": "1PcW352nQdL5Q6XeLp9QqWdCVk5rkNmTmE",
        "value": 39300
      },
      "scriptsig": "4730440220332d3c3554f89607f68655ce20f592ba36b06bad578f226c8e2c546a5fd7639d02204e5c859a7daf8bad54341d4ede4f7f2470a50396a1519128d4ba019d9ee3b7e9012102830db8a6ebf4ae68f67f2b79fd9cdd4b77a7d618874e49b5fdccc8fa11e323a6",
      "scriptsig_asm": "OP_PUSHBYTES_71 30440220332d3c3554f89607f68655ce20f592ba36b06bad578f226c8e2c546a5fd7639d02204e5c859a7daf8bad54341d4ede4f7f2470a50396a1519128d4ba019d9ee3b7e901 OP_PUSHBYTES_33 02830db8a6ebf4ae68f67f2b79fd9cdd4b77a7d618874e49b5fdccc8fa11e323a6",
      "is_coinbase": false,
      "sequence": 4294967295
    }
  ],
  "vout": [
    {
      "scriptpubkey": "76a914199dba0a978a0e92731706a9ade44da596eeea7688ac",
      "scriptpubkey_asm": "OP_DUP OP_HASH160 OP_PUSHBYTES_20 199dba0a978a0e92731706a9ade44da596eeea76 OP_EQUALVERIFY OP_CHECKSIG",
      "scriptpubkey_type": "p2pkh",
      "scriptpubkey_address": "13LSqqm3EhXbbK44NzDDjZshfpkfv835z3",
      "value": 145100
    }
  ],
  "size": 1075,
  "weight": 4300,
  "fee": 16699,
  "status": {
    "confirmed": true,
    "block_height": 834638,
    "block_hash": "000000000000000000025f742c626208ac87e0b7d15054abb4a19ca2d735a54e",
    "block_time": 1710405325
  },
  "hex": "02000000073551acb8796e14f7519d17603ba8e8fe159c79fe201a296247c63a0cae91cc10000000006a4730440220450e441ec48a299a8907afd7f73bc71cc51771de4560c977f06770b18e34b7f002203956d458625b6820e74be11e108b7088dce6d887c842747e9bcdb09d117a28eb0121034b40cfd6057a227624884753c05e16ab74d6cb544c9e727d8c1c889aa71851b4ffffffff970d6068a21796011a9a33ba37d317b2304170b778a3745ff0b90f358ea8f51a000000006b483045022100aef4e24887a13da6aa27cae238918b6c367d7b94c509dc69b329d135bdfa7fc2022035bcc97a41d9f6cb79d1763dda67e4cd22e43f09629ae848bc3f93fb5aca2cea012102bc23e5b80e208b3745a353007fc802c54ff2e756b6806fc69a4b086ac3c97357ffffffff3ce15c1359ee08ce777c9fd1b2ab0aa276ca1df5d0e5e8557b46d833b814c71d000000006a4730440220387ef79b6bd6bfda6eebd34d908f8dcac9debdfc5942c2513a44d95e33e17f2602200c82cb1de560bda1e72d099ad2ab5b317f2a501f30179788ce216c19c395d925012102f395431d846142d14adb969ce9cfcc8d6a6c637afe1d2972da058a6117c1c9ddffffffff94be3cdb92b92dfd61408bea6c89dc71ed4c3e5b6f6fbc20e8da86d769e43444000000006a47304402207273aeffeb2d22f704ba5017db072b16814ca3d7911981b16e2738b079c1c52702203f0f84b4819907502b368248ba2525d372410a898252778eb930eca7e00901780121034923ee3ba3a8d839f3448866f9d8a30fc0303457b8b7af6e0fa742f723475c1fffffffff1fa46450f014331e4c9cfef136533297c0a0741a0e445440bdf23c7eafd01a87000000006b483045022100856f675400b934c14a2076d2fa35d6ed1fb3b47f6d67e0ae9de2fe8da2d2469702205ad8daec9f77475bc728e59e1f39982dc997258f85ec122738be332261baa3cd0121033ec6f23ac95055652797565dd57eaf9f0864049bf93ff99bffe9cf07642a7ad9ffffffff1e6f4c0f64d193ad2487696e05f0c3a6d9160119ee2a9f395075ee3f892ba4ed010000006a4730440220302aaf88bfaf94e6d6cf677de1c6634bc8786f664d045292906b90a32264711302207c1a25d57356e9b07a3f4af9b6a75b44a207d66a7d8651a049f6f6347999d23901210388f5a2ac02c0eaaa753e7ecf7798a525297c4cd0598a53497875bfd859bda738ffffffff05e728c639babe8550a45cae0ae41e2dc60d0b2435d2708475859cdc0704c4f6010000006a4730440220332d3c3554f89607f68655ce20f592ba36b06bad578f226c8e2c546a5fd7639d02204e5c859a7daf8bad54341d4ede4f7f2470a50396a1519128d4ba019d9ee3b7e9012102830db8a6ebf4ae68f67f2b79fd9cdd4b77a7d618874e49b5fdccc8fa11e323a6ffffffff01cc360200000000001976a914199dba0a978a0e92731706a9ade44da596eeea7688ac00000000"
}