{
  "txid": "2331814ae1de551b87950fb6540fdc00258971360f341fa848c6cf951144aba9",
  "version": 2,
  "locktime": 834637,
  "vin": [
    {
      "txid": "147d18b275be2298e3a35234a1a5db1f74dc4f8aee8859e04ba12c5b83cea4cd",
      "vout": 0,
      "prevout": {
        "scriptpubkey": "0014ec2e2218b317cffd4ac4abffe6b97f7e0a647d3c",
        "scriptpubkey_asm": "OP_0 OP_PUSHBYTES_20 ec2e2218b317cffd4ac4abffe6b97f7e0a647d3c",
        "scriptpubkey_type": "v0_p2wpkh",
        "scriptpubkey_address": "bc1qashzyx9nzl8l6jky40l7dwtl0c9xglfucgejl4",
        "value": 15041420
      },
      "scriptsig": "",
      "scriptsig_asm": "",
      "witness": [
        "304402201f0ab4c9806758fe2d848d94307cdcb5407ea91413a2f5c0eda6898442d5853c022079ed0b47d065ef5fa1bf699b2818703cc03a48c96c2636d384b393002fb211a301",
        "02ec303d9efdd51273a2e4a1514bccfb5313c439d776fe96379ce5bf1b1c077be7"
      ],
      "is_coinbase": false,
      "sequence": 4294967293
    }
  ],
  "vout": [
    {
      "scriptpubkey": "00141421c6cea835a1fcf6130e501d559cfae721721d",
      "scriptpubkey_asm": "OP_0 OP_PUSHBYTES_20 1421c6cea835a1fcf6130e501d559cfae721721d",
      "scriptpubkey_type": "v0_p2wpkh",
      "scriptpubkey_address": "bc1qzssudn4gxksleasnpegp64vultnjzusameffd5",
      "value": 14464454
    },
    {
      "scriptpubkey": "00148ba1a39a829fa5823db383c582d29ad7f40adb58",
      "scriptpubkey_asm": "OP_0 OP_PUSHBYTES_20 8ba1a39a829fa5823db383c582d29ad7f40adb58",
      "scriptpubkey_type": "v0_p2wpkh",
      "scriptpubkey_address": "bc1q3ws68x5zn7jcy0dns0zc95566l6q4k6czx79mm",
      "value": 573300
    }
  ],
  "size": 222,
  "weight": 561,
  "fee": 3666,
  "status": {
    "confirmed": true,
    "block_height": 834638,
    "block_hash": "000000000000000000025f742c626208ac87e0b7d15054abb4a19ca2d735a54e",
    "block_time": 1710405325
  },
  "hex": "02000000000101cda4ce835b2ca14be05988ee8a4fdc741fdba5a13452a3e39822be75b2187d140000000000fdffffff02c6b5dc00000000001600141421c6cea835a1fcf6130e501d559cfae721721d74bf0800000000001600148ba1a39a829fa5823db383c582d29ad7f40adb580247304402201f0ab4c9806758fe2d848d94307cdcb5407ea91413a2f5c0eda6898442d5853c022079ed0b47d065ef5fa1bf699b2818703cc03a48c96c2636d384b393002fb211a3012102ec303d9efdd51273a2e4a1514bccfb5313c439d776fe96379ce5bf1b1c077be74dbc0c00"
}