{
  "txid": "233f2391b7831db9e0f6284fe9482d9dc8e2969f38808547a0c50a47f1d06b52",
  "version": 2,
  "locktime": 0,
  "vin": [
    {
      "txid": "8486ecb4df0880316dd6e82b3971b4df187aff23765bc3a47f8d78bb53aa273c",
      "vout": 42,
      "prevout": {
        "scriptpubkey": "5120cadb9f9bce83057c06a527949ae657feb5ba87fa60feb24d36c62343f8436905",
        "scriptpubkey_asm": "OP_PUSHNUM_1 OP_PUSHBYTES_32 cadb9f9bce83057c06a527949ae657feb5ba87fa60feb24d36c62343f8436905",
        "scriptpubkey_type": "v1_p2tr",
        "scriptpubkey_address": "bc1petdelx7wsvzhcp49y72f4ejhl66m4pl6vrltynfkcc3587zrdyzsyec9v0",
        "value": 2575
      },
      "scriptsig": "",
      "scriptsig_asm": "",
      "witness": [
        "9251a5e0b6cfe2561690e31977fc8cd5fefa0bbb2a342141b9ff137f88e028859fe78e839d5b8b72cab8517248211aa6462e60bf5d73364160294aeb2c813846",
        "20065c7afe4f7ced7d78770cdc5bf2d49d55d127b665256eb1b1eda58088a6c735ac0063036f726401010a746578742f706c61696e00367b2270223a226272632d3230222c226f70223a226d696e74222c227469636b223a2261616161222c22616d74223a223130303030227d68",
        "c1065c7afe4f7ced7d78770cdc5bf2d49d55d127b665256eb1b1eda58088a6c735"
      ],
      "is_coinbase": false,
      "sequence": 4261412863
    }
  ],
  "vout": [
    {
      "scriptpubkey": "0014ddd7ef12ea6f78edcc1e8e7afa12c01ab59f3339",
      "scriptpubkey_asm": "OP_0 OP_PUSHBYTES_20 ddd7ef12ea6f78edcc1e8e7afa12c01ab59f3339",
      "scriptpubkey_type": "v0_p2wpkh",
      "scriptpubkey_address": "bc1qmht77yh2dauwmnq73ea05ykqr26e7veea8spz6",
      "value": 546
    }
  ],
  "size": 295,
  "weight": 541,
  "fee": 2029,
  "status": {
    "confirmed": true,
    "block_height": 834460,
    "block_hash": "00000000000000000000484a79b643b2524bbce82e5d8a442013fa5b8905ed98",
    "block_time": 1710307468
  },
  "hex": "020000000001013c27aa53bb788d7fa4c35b7623ff7a18dfb471392be8d66d318008dfb4ec86842a00000000fffffffd012202000000000000160014ddd7ef12ea6f78edcc1e8e7afa12c01ab59f333903409251a5e0b6cfe2561690e31977fc8cd5fefa0bbb2a342141b9ff137f88e028859fe78e839d5b8b72cab8517248211aa6462e60bf5d73364160294aeb2c8138466e20065c7afe4f7ced7d78770cdc5bf2d49d55d127b665256eb1b1eda58088a6c735ac0063036f726401010a746578742f706c61696e00367b2270223a226272632d3230222c226f70223a226d696e74222c227469636b223a2261616161222c22616d74223a223130303030227d6821c1065c7afe4f7ced7d78770cdc5bf2d49d55d127b665256eb1b1eda58088a6c73500000000"
}