{
  "txid": "2348e77301e2742d8509993ac7113ee43f44e51910336807219d18a71d4b615e",
  "version": 1,
  "locktime": 0,
  "vin": [
    {
      "txid": "9b8972fcc34603d1d3bff4c53ba6951301c985165024310562c4db4ffafa103e",
      "vout": 7,
      "prevout": {
        "scriptpubkey": "0014f8d1a42535e1559023f366b6e8a37e30bcac7985",
        "scriptpubkey_asm": "OP_0 OP_PUSHBYTES_20 f8d1a42535e1559023f366b6e8a37e30bcac7985",
        "scriptpubkey_type": "v0_p2wpkh",
        "scriptpubkey_address": "bc1qlrg6gff4u92eqglnv6mw3gm7xz72c7v9zmcmss",
        "value": 68870
      },
      "scriptsig": "",
      "scriptsig_asm": "",
      "witness": [
        "3044022073bda63550fb0b35928eca986eff23aae41f2884e0541521502b7a4fed71091c0220603742880810e3fdc8d38570fa21f538e574081a3ee1b6d335749d86389081e901",
        "03e2224e5cfd4c18b2fa00d84a48ed974f7b7a8aeea4859fb3708198c204375b74"
      ],
      "is_coinbase": false,
      "sequence": 4294967295
    },
    {
      "txid": "407e0d9c361daf86cfe52b6f3525687170930f3df2bcc97677d53fab40899b44",
      "vout": 95,
      "prevout": {
        "scriptpubkey": "0014f8d1a42535e1559023f366b6e8a37e30bcac7985",
        "scriptpubkey_asm": "OP_0 OP_PUSHBYTES_20 f8d1a42535e1559023f366b6e8a37e30bcac7985",
        "scriptpubkey_type": "v0_p2wpkh",
        "scriptpubkey_address": "bc1qlrg6gff4u92eqglnv6mw3gm7xz72c7v9zmcmss",
        "value": 166272
      },
      "scriptsig": "",
      "scriptsig_asm": "",
      "witness": [
        "3045022100931b8ded9dc0668a011c8457fcdd847c0279c0dbf79869137fc09f559171d5ce02201a990e3d7ca9e1ae34239b1326464fc40d542297bf67b5c43908f03224a2f09901",
        "03e2224e5cfd4c18b2fa00d84a48ed974f7b7a8aeea4859fb3708198c204375b74"
      ],
      "is_coinbase": false,
      "sequence": 4294967295
    },
    {
      "txid": "20ec3577ba54fecfe937b4ab71a8bd4047e380d2b26b4a99f544e735968b42cb",
      "vout": 49,
      "prevout": {
        "scriptpubkey": "0014f8d1a42535e1559023f366b6e8a37e30bcac7985",
        "scriptpubkey_asm": "OP_0 OP_PUSHBYTES_20 f8d1a42535e1559023f366b6e8a37e30bcac7985",
        "scriptpubkey_type": "v0_p2wpkh",
        "scriptpubkey_address": "bc1qlrg6gff4u92eqglnv6mw3gm7xz72c7v9zmcmss",
        "value": 215456
      },
      "scriptsig": "",
      "scriptsig_asm": "",
      "witness": [
        "3045022100bc844640001909d2eaea53a3c808b73e71bd003cf24884a169fd42053e2cdc2302203b9cb84c700aa0ab23ba94f981199bd187c3658c3a31f79527dcc0e45784947301",
        "03e2224e5cfd4c18b2fa00d84a48ed974f7b7a8aeea4859fb3708198c204375b74"
      ],
      "is_coinbase": false,
      "sequence": 4294967295
    }
  ],
  "vout": [
    {
      "scriptpubkey": "00143e3a258081ce0c6e058ec15aceef734e0f3814a6",
      "scriptpubkey_asm": "OP_0 OP_PUSHBYTES_20 3e3a258081ce0c6e058ec15aceef734e0f3814a6",
      "scriptpubkey_type": "v0_p2wpkh",
      "scriptpubkey_address": "bc1q8caztqypecxxupvwc9dvammnfc8ns99xxc72mk",
      "value": 446792
    }
  ],
  "size": 489,
  "weight": 981,
  "fee": 3806,
  "status": {
    "confirmed": true,
    "block_height": 834638,
    "block_hash": "000000000000000000025f742c626208ac87e0b7d15054abb4a19ca2d735a54e",
    "block_time": 1710405325
  },
  "hex": "010000000001033e10fafa4fdbc462053124501685c9011395a63bc5f4bfd3d10346c3fc72899b0700000000ffffffff449b8940ab3fd57776c9bcf23d0f9370716825356f2be5cf86af1d369c0d7e405f00000000ffffffffcb428b9635e744f5994a6bb2d280e34740bda871abb437e9cffe54ba7735ec203100000000ffffffff0148d10600000000001600143e3a258081ce0c6e058ec15aceef734e0f3814a602473044022073bda63550fb0b35928eca986eff23aae41f2884e0541521502b7a4fed71091c0220603742880810e3fdc8d38570fa21f538e574081a3ee1b6d335749d86389081e9012103e2224e5cfd4c18b2fa00d84a48ed974f7b7a8aeea4859fb3708198c204375b7402483045022100931b8ded9dc0668a011c8457fcdd847c0279c0dbf79869137fc09f559171d5ce02201a990e3d7ca9e1ae34239b1326464fc40d542297bf67b5c43908f03224a2f099012103e2224e5cfd4c18b2fa00d84a48ed974f7b7a8aeea4859fb3708198c204375b7402483045022100bc844640001909d2eaea53a3c808b73e71bd003cf24884a169fd42053e2cdc2302203b9cb84c700aa0ab23ba94f981199bd187c3658c3a31f79527dcc0e457849473012103e2224e5cfd4c18b2fa00d84a48ed974f7b7a8aeea4859fb3708198c204375b7400000000"
}