{
  "txid": "234cfebabdf4d86761197ba3fefe7c9c398a9769db9b4f3fe494c9c40bb52aa8",
  "version": 2,
  "locktime": 0,
  "vin": [
    {
      "txid": "a4ff53c76b2299cd6b45f6e83e76b720ed688054936568774480b11ac3de77bf",
      "vout": 0,
      "prevout": {
        "scriptpubkey": "51200e37d126ed269d5abe28b298c664f8d99c4d30a7d36c22b7c50126fa3ef78a38",
        "scriptpubkey_asm": "OP_PUSHNUM_1 OP_PUSHBYTES_32 0e37d126ed269d5abe28b298c664f8d99c4d30a7d36c22b7c50126fa3ef78a38",
        "scriptpubkey_type": "v1_p2tr",
        "scriptpubkey_address": "bc1ppcmazfhdy6w4403gk2vvve8cmxwy6v986dkz9d79qyn050hh3guqs0zjt8",
        "value": 2634
      },
      "scriptsig": "",
      "scriptsig_asm": "",
      "witness": [
        "b6fa6fe52ee3475cce699809da4e269551479c2714e7c75709c245061f8d14f0da4c753c7b7823471ea8b1b901e382b0e3d16c68de4ab0674879de3311329a9f",
        "2051256dd6146fe8e6e84cf7750ab9b8717743c4b71c658dcf8098890d71757fdfac0063036f7264010118746578742f706c61696e3b636861727365743d7574662d38004c8a7b2270223a22746170222c226f70223a22646d742d6d696e74222c22646570223a22333962373532343338626533613435326464623731376230613635346233313662316164343661383139656234343831383933626337313331663738396539616930222c227469636b223a226e61746f776c73222c22626c6b223a2230783138303064306636227d68",
        "c151256dd6146fe8e6e84cf7750ab9b8717743c4b71c658dcf8098890d71757fdf1a346649bab69fc2daf3349fc29aa59408d89d4e7797bc50f85186de49c2b64a"
      ],
      "is_coinbase": false,
      "sequence": 4294967293
    }
  ],
  "vout": [
    {
      "scriptpubkey": "51202773474df733b3058cc8ab36e1ba8782dc2b5c3aaff2fe73fdbc8e610683e08f",
      "scriptpubkey_asm": "OP_PUSHNUM_1 OP_PUSHBYTES_32 2773474df733b3058cc8ab36e1ba8782dc2b5c3aaff2fe73fdbc8e610683e08f",
      "scriptpubkey_type": "v1_p2tr",
      "scriptpubkey_address": "bc1pyae5wn0hxwestrxg4vmwrw58stwzkhp64le0uulahj8xzp5ruz8s3m6xh7",
      "value": 546
    }
  ],
  "size": 438,
  "weight": 720,
  "fee": 2088,
  "status": {
    "confirmed": true,
    "block_height": 834460,
    "block_hash": "00000000000000000000484a79b643b2524bbce82e5d8a442013fa5b8905ed98",
    "block_time": 1710307468
  },
  "hex": "02000000000101bf77dec31ab1804477686593548068ed20b7763ee8f6456bcd99226bc753ffa40000000000fdffffff0122020000000000002251202773474df733b3058cc8ab36e1ba8782dc2b5c3aaff2fe73fdbc8e610683e08f0340b6fa6fe52ee3475cce699809da4e269551479c2714e7c75709c245061f8d14f0da4c753c7b7823471ea8b1b901e382b0e3d16c68de4ab0674879de3311329a9fd12051256dd6146fe8e6e84cf7750ab9b8717743c4b71c658dcf8098890d71757fdfac0063036f7264010118746578742f706c61696e3b636861727365743d7574662d38004c8a7b2270223a22746170222c226f70223a22646d742d6d696e74222c22646570223a22333962373532343338626533613435326464623731376230613635346233313662316164343661383139656234343831383933626337313331663738396539616930222c227469636b223a226e61746f776c73222c22626c6b223a2230783138303064306636227d6841c151256dd6146fe8e6e84cf7750ab9b8717743c4b71c658dcf8098890d71757fdf1a346649bab69fc2daf3349fc29aa59408d89d4e7797bc50f85186de49c2b64a00000000"
}