{
  "txid": "2352472f30db96b9eaa69ce60fbfbfd6a94abbc7781f783ac297a13c7fb52a85",
  "version": 2,
  "locktime": 834458,
  "vin": [
    {
      "txid": "26add75d9ce9fc37214345e3239dc2cbd5bfa249b2848ade0e1e92d310f16844",
      "vout": 0,
      "prevout": {
        "scriptpubkey": "a914b6bb3d1ec1f6610ba14865e73436b5e139fb385187",
        "scriptpubkey_asm": "OP_HASH160 OP_PUSHBYTES_20 b6bb3d1ec1f6610ba14865e73436b5e139fb3851 OP_EQUAL",
        "scriptpubkey_type": "p2sh",
        "scriptpubkey_address": "3JMDD2tTHi8PSnqZ4Py9pQ89WzJMWrCz5r",
        "value": 261468834
      },
      "scriptsig": "160014f62420cb38636c38450ec0b3525f54e21f040c3f",
      "scriptsig_asm": "OP_PUSHBYTES_22 0014f62420cb38636c38450ec0b3525f54e21f040c3f",
      "witness": [
        "304402200145213cacd9de8335be935688cc7e4e5003d401d19019570be139b51a8ca86a02206c6f87bc806de4811abfe211394d8af727e005fb1f5871456415b8afb321dd1701",
        "02959aad959e4d4a101ff592d85fba749cd0c5dd5f8bf531d67b866d7267197169"
      ],
      "is_coinbase": false,
      "sequence": 4294967293,
      "inner_redeemscript_asm": "OP_0 OP_PUSHBYTES_20 f62420cb38636c38450ec0b3525f54e21f040c3f"
    }
  ],
  "vout": [
    {
      "scriptpubkey": "a914169e3805cbc3d49689bf953075f40fde3f9040ff87",
      "scriptpubkey_asm": "OP_HASH160 OP_PUSHBYTES_20 169e3805cbc3d49689bf953075f40fde3f9040ff OP_EQUAL",
      "scriptpubkey_type": "p2sh",
      "scriptpubkey_address": "33kcL13n56JcPQCkAA42TAohAmx3LPJ5LC",
      "value": 40000000
    },
    {
      "scriptpubkey": "a9142a8e737b02fa9d1321b6a02c0cbb2dbbd955f0fd87",
      "scriptpubkey_asm": "OP_HASH160 OP_PUSHBYTES_20 2a8e737b02fa9d1321b6a02c0cbb2dbbd955f0fd OP_EQUAL",
      "scriptpubkey_type": "p2sh",
      "scriptpubkey_address": "35a2xGyfidMJzwPCBD96RM32Ea2WgTrg3L",
      "value": 221466494
    }
  ],
  "size": 247,
  "weight": 661,
  "fee": 2340,
  "status": {
    "confirmed": true,
    "block_height": 834460,
    "block_hash": "00000000000000000000484a79b643b2524bbce82e5d8a442013fa5b8905ed98",
    "block_time": 1710307468
  },
  "hex": "020000000001014468f110d3921e0ede8a84b249a2bfd5cbc29d23e345432137fce99c5dd7ad260000000017160014f62420cb38636c38450ec0b3525f54e21f040c3ffdffffff02005a62020000000017a914169e3805cbc3d49689bf953075f40fde3f9040ff877e4f330d0000000017a9142a8e737b02fa9d1321b6a02c0cbb2dbbd955f0fd870247304402200145213cacd9de8335be935688cc7e4e5003d401d19019570be139b51a8ca86a02206c6f87bc806de4811abfe211394d8af727e005fb1f5871456415b8afb321dd17012102959aad959e4d4a101ff592d85fba749cd0c5dd5f8bf531d67b866d72671971699abb0c00"
}