{
  "txid": "236b18df40fbb1e29d02f487fe2f450e2f452b1997e813165060be5466b0c6a8",
  "version": 2,
  "locktime": 833580,
  "vin": [
    {
      "txid": "ffa14af9d498b93bcee6c87162d0c02d7a1c692278d1280039eb1952252e500f",
      "vout": 2,
      "prevout": {
        "scriptpubkey": "a914c687296f552aac1ec0755fc9571e4e3ce9f55ddd87",
        "scriptpubkey_asm": "OP_HASH160 OP_PUSHBYTES_20 c687296f552aac1ec0755fc9571e4e3ce9f55ddd OP_EQUAL",
        "scriptpubkey_type": "p2sh",
        "scriptpubkey_address": "3KnjdjfrbddVytAkmBpcDXa3Q2xMC3TQY2",
        "value": 10000
      },
      "scriptsig": "483045022100e188cc2532d35d905718fe5b51f10164dadfc226d3190f446c87720677a2396c022050db86f1ef01a266e045be3d287830bcc3081e1c51897e23e978bbfc75623bb3012102a8dec57acd81beec3b736ab6cd98a20b7610eb2aaf18c9008dbe47d5e7c9dc751f03070040b27576a9148e937cbb57b7239f4e3e6f4def6d3e084d2adcb688ac",
      "scriptsig_asm": "OP_PUSHBYTES_72 3045022100e188cc2532d35d905718fe5b51f10164dadfc226d3190f446c87720677a2396c022050db86f1ef01a266e045be3d287830bcc3081e1c51897e23e978bbfc75623bb301 OP_PUSHBYTES_33 02a8dec57acd81beec3b736ab6cd98a20b7610eb2aaf18c9008dbe47d5e7c9dc75 OP_PUSHBYTES_31 03070040b27576a9148e937cbb57b7239f4e3e6f4def6d3e084d2adcb688ac",
      "is_coinbase": false,
      "sequence": 4194311,
      "inner_redeemscript_asm": "OP_PUSHBYTES_3 070040 OP_CSV OP_DROP OP_DUP OP_HASH160 OP_PUSHBYTES_20 8e937cbb57b7239f4e3e6f4def6d3e084d2adcb6 OP_EQUALVERIFY OP_CHECKSIG"
    },
    {
      "txid": "3b75145765105973b510f08e596438085456caca55616f0b0f1e982e2658e10d",
      "vout": 1,
      "prevout": {
        "scriptpubkey": "a914c687296f552aac1ec0755fc9571e4e3ce9f55ddd87",
        "scriptpubkey_asm": "OP_HASH160 OP_PUSHBYTES_20 c687296f552aac1ec0755fc9571e4e3ce9f55ddd OP_EQUAL",
        "scriptpubkey_type": "p2sh",
        "scriptpubkey_address": "3KnjdjfrbddVytAkmBpcDXa3Q2xMC3TQY2",
        "value": 4000
      },
      "scriptsig": "483045022100c420b2fe3df5285949e7f8b86752eb693c97ebf990b761481aa9ade8d7841b0802207f16fa85ab5f06c221001ac1c3b1096850175885f09f9fc46354bb1722a95417012102a8dec57acd81beec3b736ab6cd98a20b7610eb2aaf18c9008dbe47d5e7c9dc751f03070040b27576a9148e937cbb57b7239f4e3e6f4def6d3e084d2adcb688ac",
      "scriptsig_asm": "OP_PUSHBYTES_72 3045022100c420b2fe3df5285949e7f8b86752eb693c97ebf990b761481aa9ade8d7841b0802207f16fa85ab5f06c221001ac1c3b1096850175885f09f9fc46354bb1722a9541701 OP_PUSHBYTES_33 02a8dec57acd81beec3b736ab6cd98a20b7610eb2aaf18c9008dbe47d5e7c9dc75 OP_PUSHBYTES_31 03070040b27576a9148e937cbb57b7239f4e3e6f4def6d3e084d2adcb688ac",
      "is_coinbase": false,
      "sequence": 4194311,
      "inner_redeemscript_asm": "OP_PUSHBYTES_3 070040 OP_CSV OP_DROP OP_DUP OP_HASH160 OP_PUSHBYTES_20 8e937cbb57b7239f4e3e6f4def6d3e084d2adcb6 OP_EQUALVERIFY OP_CHECKSIG"
    }
  ],
  "vout": [
    {
      "scriptpubkey": "a914d46bc1cd57d9d74ce3a97ae85d5944ef89fcf8bf87",
      "scriptpubkey_asm": "OP_HASH160 OP_PUSHBYTES_20 d46bc1cd57d9d74ce3a97ae85d5944ef89fcf8bf OP_EQUAL",
      "scriptpubkey_type": "p2sh",
      "scriptpubkey_address": "3M4CGJUk99Qi84z8vSM7YGVLTDWcJqk3bM",
      "value": 9578
    }
  ],
  "size": 402,
  "weight": 1608,
  "fee": 4422,
  "status": {
    "confirmed": true,
    "block_height": 834464,
    "block_hash": "0000000000000000000177a0869a911a2b65c9bdcd5a8bcb02b68f305bee848e",
    "block_time": 1710308296
  },
  "hex": "02000000020f502e255219eb390028d17822691c7a2dc0d06271c8e6ce3bb998d4f94aa1ff020000008b483045022100e188cc2532d35d905718fe5b51f10164dadfc226d3190f446c87720677a2396c022050db86f1ef01a266e045be3d287830bcc3081e1c51897e23e978bbfc75623bb3012102a8dec57acd81beec3b736ab6cd98a20b7610eb2aaf18c9008dbe47d5e7c9dc751f03070040b27576a9148e937cbb57b7239f4e3e6f4def6d3e084d2adcb688ac070040000de158262e981e0f0b6f6155caca5654083864598ef010b5735910655714753b010000008b483045022100c420b2fe3df5285949e7f8b86752eb693c97ebf990b761481aa9ade8d7841b0802207f16fa85ab5f06c221001ac1c3b1096850175885f09f9fc46354bb1722a95417012102a8dec57acd81beec3b736ab6cd98a20b7610eb2aaf18c9008dbe47d5e7c9dc751f03070040b27576a9148e937cbb57b7239f4e3e6f4def6d3e084d2adcb688ac07004000016a2500000000000017a914d46bc1cd57d9d74ce3a97ae85d5944ef89fcf8bf872cb80c00"
}