{
  "txid": "2375de1b55ac345a646e0658802a72455225aa7b400e09b93b2201a77fe3a40e",
  "version": 2,
  "locktime": 0,
  "vin": [
    {
      "txid": "508c44b7b3a314bf6492f60483f6242ebfd76e98e77c14fac4deb7f52f27148f",
      "vout": 0,
      "prevout": {
        "scriptpubkey": "00142f8f84a7eb4c8750137957ebcdc5ce88c20f8f27",
        "scriptpubkey_asm": "OP_0 OP_PUSHBYTES_20 2f8f84a7eb4c8750137957ebcdc5ce88c20f8f27",
        "scriptpubkey_type": "v0_p2wpkh",
        "scriptpubkey_address": "bc1q978cffltfjr4qyme2l4um3ww3rpqlre8czsz0g",
        "value": 12585
      },
      "scriptsig": "",
      "scriptsig_asm": "",
      "witness": [
        "304402207179807ee1933ed13c2c98cb39c2504d7eecd6248e45479e0e16b56e9271a77202202b5373685dc672bb0f6c2a006b7b0f3dcd08a0a07ca96999faa2d72389e2d39401",
        "032da795a3e3ecdb1001af448da1507c73e14d11ffb18fe728574272ca3eba7a03"
      ],
      "is_coinbase": false,
      "sequence": 4294967293
    }
  ],
  "vout": [
    {
      "scriptpubkey": "76a91446cb1b319229a794e48b84b8de4881e34aeeb3d288ac",
      "scriptpubkey_asm": "OP_DUP OP_HASH160 OP_PUSHBYTES_20 46cb1b319229a794e48b84b8de4881e34aeeb3d2 OP_EQUALVERIFY OP_CHECKSIG",
      "scriptpubkey_type": "p2pkh",
      "scriptpubkey_address": "17TKcVmiywL5XvvgnTh71jESzP7AAgBU3b",
      "value": 11365
    }
  ],
  "size": 194,
  "weight": 449,
  "fee": 1220,
  "status": {
    "confirmed": true,
    "block_height": 834464,
    "block_hash": "0000000000000000000177a0869a911a2b65c9bdcd5a8bcb02b68f305bee848e",
    "block_time": 1710308296
  },
  "hex": "020000000001018f14272ff5b7dec4fa147ce7986ed7bf2e24f68304f69264bf14a3b3b7448c500000000000fdffffff01652c0000000000001976a91446cb1b319229a794e48b84b8de4881e34aeeb3d288ac0247304402207179807ee1933ed13c2c98cb39c2504d7eecd6248e45479e0e16b56e9271a77202202b5373685dc672bb0f6c2a006b7b0f3dcd08a0a07ca96999faa2d72389e2d3940121032da795a3e3ecdb1001af448da1507c73e14d11ffb18fe728574272ca3eba7a0300000000"
}