{
  "txid": "237da897b97bd740690f192c8b644db259d12edab83fcbb4acfcbe02444ed831",
  "version": 2,
  "locktime": 834462,
  "vin": [
    {
      "txid": "8a0116c4fd43519b5637b5d51e8f132dc73580cf07420dfc53258a890cceb6e2",
      "vout": 1,
      "prevout": {
        "scriptpubkey": "0014ed9d3f364e0a02919a7d541ea00560a5042830b2",
        "scriptpubkey_asm": "OP_0 OP_PUSHBYTES_20 ed9d3f364e0a02919a7d541ea00560a5042830b2",
        "scriptpubkey_type": "v0_p2wpkh",
        "scriptpubkey_address": "bc1qakwn7djwpgpfrxna2s02qptq55zzsv9jvp7v38",
        "value": 1002138
      },
      "scriptsig": "",
      "scriptsig_asm": "",
      "witness": [
        "304402206f989ea042bffc1177c7a1ac60676695ca389d020d54e0633fd32c915b9cd996022044245319cde4a9d12fa2f9e0c45471dda4965810596209994736fc6d6732084701",
        "03c1aef43ab18137e5ff48a7222fb40c07cd1a03007aedc8135fecf107fa3bcd13"
      ],
      "is_coinbase": false,
      "sequence": 4294967294
    },
    {
      "txid": "0de320f1638b4b87f5bc3ee401a4f6eedc76c987c0a306f41d5cc6a4049276e7",
      "vout": 1,
      "prevout": {
        "scriptpubkey": "0014103c691b05785496a20a99e82e16f7e01313cdd3",
        "scriptpubkey_asm": "OP_0 OP_PUSHBYTES_20 103c691b05785496a20a99e82e16f7e01313cdd3",
        "scriptpubkey_type": "v0_p2wpkh",
        "scriptpubkey_address": "bc1qzq7xjxc90p2fdgs2n85zu9hhuqf38nwnqmshl6",
        "value": 1001125
      },
      "scriptsig": "",
      "scriptsig_asm": "",
      "witness": [
        "30440220636b21ac94c613cb3a3b4fbe1ba79f81d8a73998dbdc3810a81cedcd5e4b47da02205f5709daa0f4f6f073b57be630da476716ab04ce470b194c7a8ef9fde8d8af3d01",
        "035136b41692de5d260fd74efdcd909bc53bc0d6446c3cf0fa551c3b11730dcd30"
      ],
      "is_coinbase": false,
      "sequence": 4294967294
    }
  ],
  "vout": [
    {
      "scriptpubkey": "00143fe25b11923090840d30d3f287e4feebbe31d1c2",
      "scriptpubkey_asm": "OP_0 OP_PUSHBYTES_20 3fe25b11923090840d30d3f287e4feebbe31d1c2",
      "scriptpubkey_type": "v0_p2wpkh",
      "scriptpubkey_address": "bc1q8l39kyvjxzgggrfs60eg0e87awlrr5wzr6q5jp",
      "value": 1945911
    },
    {
      "scriptpubkey": "002038674083af92eccc314f4a24236bcd87bc7440cee70f5fef983c8d30722bd0b2",
      "scriptpubkey_asm": "OP_0 OP_PUSHBYTES_32 38674083af92eccc314f4a24236bcd87bc7440cee70f5fef983c8d30722bd0b2",
      "scriptpubkey_type": "v0_p2wsh",
      "scriptpubkey_address": "bc1q8pn5pqa0jtkvcv20fgjzx67ds778gsxwuu84lmuc8jxnqu3t6zeq3hjgny",
      "value": 51349
    }
  ],
  "size": 382,
  "weight": 880,
  "fee": 6003,
  "status": {
    "confirmed": true,
    "block_height": 834464,
    "block_hash": "0000000000000000000177a0869a911a2b65c9bdcd5a8bcb02b68f305bee848e",
    "block_time": 1710308296
  },
  "hex": "02000000000102e2b6ce0c898a2553fc0d4207cf8035c72d138f1ed5b537569b5143fdc416018a0100000000feffffffe7769204a4c65c1df406a3c087c976dceef6a401e43ebcf5874b8b63f120e30d0100000000feffffff0237b11d00000000001600143fe25b11923090840d30d3f287e4feebbe31d1c295c800000000000022002038674083af92eccc314f4a24236bcd87bc7440cee70f5fef983c8d30722bd0b20247304402206f989ea042bffc1177c7a1ac60676695ca389d020d54e0633fd32c915b9cd996022044245319cde4a9d12fa2f9e0c45471dda4965810596209994736fc6d67320847012103c1aef43ab18137e5ff48a7222fb40c07cd1a03007aedc8135fecf107fa3bcd13024730440220636b21ac94c613cb3a3b4fbe1ba79f81d8a73998dbdc3810a81cedcd5e4b47da02205f5709daa0f4f6f073b57be630da476716ab04ce470b194c7a8ef9fde8d8af3d0121035136b41692de5d260fd74efdcd909bc53bc0d6446c3cf0fa551c3b11730dcd309ebb0c00"
}