{
  "txid": "239abad46af37f676d73b160d653d43d8bcd21818accdec68c2ccfe05b767c1e",
  "version": 2,
  "locktime": 0,
  "vin": [
    {
      "txid": "5676b21586b3da13f1f03642a5d4d6eb502792bd1c44563bf6cd59b2737e7553",
      "vout": 0,
      "prevout": {
        "scriptpubkey": "0014035a6801b8d06a2d0f0c4b3dec2b3df8d2f0cc15",
        "scriptpubkey_asm": "OP_0 OP_PUSHBYTES_20 035a6801b8d06a2d0f0c4b3dec2b3df8d2f0cc15",
        "scriptpubkey_type": "v0_p2wpkh",
        "scriptpubkey_address": "bc1qqddxsqdc6p4z6rcvfv77c2ealrf0pnq46se4r9",
        "value": 853573
      },
      "scriptsig": "",
      "scriptsig_asm": "",
      "witness": [
        "304402201a16dd0ef25d1ca32e494b09e046098b4de128bf3a136434c911540f46b6706802203f6228860b7a4ac1d1142edb924581094c213854dce5aba0c2c2da2cbf2a2a1201",
        "02fdd366a2038ebd2e910e72a552dd2dbbd7b196a73e19cc96a930c2a612bf4237"
      ],
      "is_coinbase": false,
      "sequence": 4294967295
    }
  ],
  "vout": [
    {
      "scriptpubkey": "a9148ad2ff050bb86541a52dfe3ef755eaa939dab69b87",
      "scriptpubkey_asm": "OP_HASH160 OP_PUSHBYTES_20 8ad2ff050bb86541a52dfe3ef755eaa939dab69b OP_EQUAL",
      "scriptpubkey_type": "p2sh",
      "scriptpubkey_address": "3EM3wHckeVRyrvkmVxXv98mqzWNnH25JYA",
      "value": 851523
    }
  ],
  "size": 192,
  "weight": 441,
  "fee": 2050,
  "status": {
    "confirmed": true,
    "block_height": 834638,
    "block_hash": "000000000000000000025f742c626208ac87e0b7d15054abb4a19ca2d735a54e",
    "block_time": 1710405325
  },
  "hex": "0200000000010153757e73b259cdf63b56441cbd922750ebd6d4a54236f0f113dab38615b276560000000000ffffffff0143fe0c000000000017a9148ad2ff050bb86541a52dfe3ef755eaa939dab69b870247304402201a16dd0ef25d1ca32e494b09e046098b4de128bf3a136434c911540f46b6706802203f6228860b7a4ac1d1142edb924581094c213854dce5aba0c2c2da2cbf2a2a12012102fdd366a2038ebd2e910e72a552dd2dbbd7b196a73e19cc96a930c2a612bf423700000000"
}