{
  "txid": "239bfa7a46ae6a52586498c3b9c587f4f91c1b152e36778bd3b3c4c1a0f88df6",
  "version": 2,
  "locktime": 0,
  "vin": [
    {
      "txid": "e137a5e5e189c8d6a53305ec3dc205dfc566f64732570b14428c21a1a99026d7",
      "vout": 1,
      "prevout": {
        "scriptpubkey": "0014416710cde658b11c750701e8a1b3b0f1f6f8e3dd",
        "scriptpubkey_asm": "OP_0 OP_PUSHBYTES_20 416710cde658b11c750701e8a1b3b0f1f6f8e3dd",
        "scriptpubkey_type": "v0_p2wpkh",
        "scriptpubkey_address": "bc1qg9n3pn0xtzc3cag8q852rvas78m03c7ah6gk06",
        "value": 15982
      },
      "scriptsig": "",
      "scriptsig_asm": "",
      "witness": [
        "3045022100b7261f7b2992913b7a0011d07e5d4e4fbe11e4fe19f1d60ccc4acb8cfe178ab2022068e8fb263a078eb69ba58d96c530938fd596fc420fbab86699f0e0e567ba7efb01",
        "02c07525838bd1548d39671cc79fef9de9668a24de83cba188bd64739d0bac419d"
      ],
      "is_coinbase": false,
      "sequence": 4294967295
    }
  ],
  "vout": [
    {
      "scriptpubkey": "0014ca5279535fb6dfd75761604be0b2cad88eaff959",
      "scriptpubkey_asm": "OP_0 OP_PUSHBYTES_20 ca5279535fb6dfd75761604be0b2cad88eaff959",
      "scriptpubkey_type": "v0_p2wpkh",
      "scriptpubkey_address": "bc1qeff8j56lkm0aw4mpvp97pvk2mz82l72ezclhhk",
      "value": 12246
    },
    {
      "scriptpubkey": "00140bbc97ea55532d9255e87f157b251110cda60816",
      "scriptpubkey_asm": "OP_0 OP_PUSHBYTES_20 0bbc97ea55532d9255e87f157b251110cda60816",
      "scriptpubkey_type": "v0_p2wpkh",
      "scriptpubkey_address": "bc1qpw7f06j42vkey40g0u2hkfg3zrx6vzqk97xyng",
      "value": 2213
    }
  ],
  "size": 223,
  "weight": 562,
  "fee": 1523,
  "status": {
    "confirmed": true,
    "block_height": 834464,
    "block_hash": "0000000000000000000177a0869a911a2b65c9bdcd5a8bcb02b68f305bee848e",
    "block_time": 1710308296
  },
  "hex": "02000000000101d72690a9a1218c42140b573247f666c5df05c23dec0533a5d6c889e1e5a537e10100000000ffffffff02d62f000000000000160014ca5279535fb6dfd75761604be0b2cad88eaff959a5080000000000001600140bbc97ea55532d9255e87f157b251110cda6081602483045022100b7261f7b2992913b7a0011d07e5d4e4fbe11e4fe19f1d60ccc4acb8cfe178ab2022068e8fb263a078eb69ba58d96c530938fd596fc420fbab86699f0e0e567ba7efb012102c07525838bd1548d39671cc79fef9de9668a24de83cba188bd64739d0bac419d00000000"
}