{
  "txid": "239c58758aa88e340d3c90bb354d2c6d7182904e95504d00d94de424c0f0d04c",
  "version": 2,
  "locktime": 0,
  "vin": [
    {
      "txid": "5f846d283984d01eb9829d816f88218abd33effc15a08222518615da3e5f47c5",
      "vout": 11,
      "prevout": {
        "scriptpubkey": "51203c18ecf876c00cafc4905a827870993e2452a4d51dfceaa62bbd3184e62e4fa7",
        "scriptpubkey_asm": "OP_PUSHNUM_1 OP_PUSHBYTES_32 3c18ecf876c00cafc4905a827870993e2452a4d51dfceaa62bbd3184e62e4fa7",
        "scriptpubkey_type": "v1_p2tr",
        "scriptpubkey_address": "bc1p8svwe7rkcqx2l3yst2p8suye8cj99fx4rh7w4f3th5ccfe3wf7nsmgphcf",
        "value": 2862
      },
      "scriptsig": "",
      "scriptsig_asm": "",
      "witness": [
        "11081161c495fc050a1d108915d70b7ad0f7704bd99f33af75f49e27ce54bc37997d1f32db96b1cd1c92695e02a73add6cdf72a3de0d6ee6f9aa6fd299672e02",
        "20527be9a27e10a5339f9921fde5a71955337f56053c23df5b49f314f0f15a7df9ac0063036f726401011e6170706c69636174696f6e2f6a736f6e3b636861727365743d7574662d38004cd37b2270223a22706f772d3230222c226f70223a226d696e74222c227469636b223a2250455045222c22616d74223a2231303030222c22736f6c7574696f6e223a22504550453a626331706d6c3973653572666b6c3076393075786c7972667871717a366c34797364637172647371683735656c727133396676647164777139777276736e3a303030303030303030303030303030303030303139393431613561653132383937363539383134343239323533333030353762306461393666336465613163353a3133373733393338373035227d68",
        "c03beca27a4fc825f712a8ee0e92a93b2e9ce7496e1e1c5bfb1b103e51f3be77b5"
      ],
      "is_coinbase": false,
      "sequence": 4294967295
    }
  ],
  "vout": [
    {
      "scriptpubkey": "5120dfcb0cd069b7dec2bf86f906930002d7ea4837001b600bfa99f8c112a58d035c",
      "scriptpubkey_asm": "OP_PUSHNUM_1 OP_PUSHBYTES_32 dfcb0cd069b7dec2bf86f906930002d7ea4837001b600bfa99f8c112a58d035c",
      "scriptpubkey_type": "v1_p2tr",
      "scriptpubkey_address": "bc1pml9se5rfkl0v90uxlyrfxqqz6l4ysdcqrdsqh75elrq39fvdqdwq9wrvsn",
      "value": 546
    }
  ],
  "size": 487,
  "weight": 769,
  "fee": 2316,
  "status": {
    "confirmed": true,
    "block_height": 834460,
    "block_hash": "00000000000000000000484a79b643b2524bbce82e5d8a442013fa5b8905ed98",
    "block_time": 1710307468
  },
  "hex": "02000000000101c5475f3eda1586512282a015fcef33bd8a21886f819d82b91ed08439286d845f0b00000000ffffffff012202000000000000225120dfcb0cd069b7dec2bf86f906930002d7ea4837001b600bfa99f8c112a58d035c034011081161c495fc050a1d108915d70b7ad0f7704bd99f33af75f49e27ce54bc37997d1f32db96b1cd1c92695e02a73add6cdf72a3de0d6ee6f9aa6fd299672e02fd200120527be9a27e10a5339f9921fde5a71955337f56053c23df5b49f314f0f15a7df9ac0063036f726401011e6170706c69636174696f6e2f6a736f6e3b636861727365743d7574662d38004cd37b2270223a22706f772d3230222c226f70223a226d696e74222c227469636b223a2250455045222c22616d74223a2231303030222c22736f6c7574696f6e223a22504550453a626331706d6c3973653572666b6c3076393075786c7972667871717a366c34797364637172647371683735656c727133396676647164777139777276736e3a303030303030303030303030303030303030303139393431613561653132383937363539383134343239323533333030353762306461393666336465613163353a3133373733393338373035227d6821c03beca27a4fc825f712a8ee0e92a93b2e9ce7496e1e1c5bfb1b103e51f3be77b500000000"
}