{
  "txid": "23ae5b5165095badd5e49116bc22af92b1755ee4a575e878a5b1f20497cf2686",
  "version": 2,
  "locktime": 0,
  "vin": [
    {
      "txid": "acc3ba00869acb582a3f2904ce3a11dd3779350ce234063fc7d0959246213364",
      "vout": 269,
      "prevout": {
        "scriptpubkey": "51206c4a1a8a92399111d14b8d58dac1ca925dc73539f89e25e7c2cb8977ea5d54e9",
        "scriptpubkey_asm": "OP_PUSHNUM_1 OP_PUSHBYTES_32 6c4a1a8a92399111d14b8d58dac1ca925dc73539f89e25e7c2cb8977ea5d54e9",
        "scriptpubkey_type": "v1_p2tr",
        "scriptpubkey_address": "bc1pd39p4z5j8xg3r52t34vd4sw2jfwuwdfelz0zte7zewyh06ja2n5shz6w0l",
        "value": 1806
      },
      "scriptsig": "",
      "scriptsig_asm": "",
      "witness": [
        "edd15688ca0cc4d2a4d3fb48a6f9b3b37a3a20c53460e2c4470d14624eee2a869adb856696928285307d6976f3a61fe7792c4e2e6ec855e76a6485a47fe9bb17",
        "2024934fda9abb5a75a5a6fa5bde52af127a403f4913691f21b8de7b83aebe5727ac0063036f726401010a746578742f706c61696e00357b2270223a226272632d3230222c226f70223a226d696e74222c227469636b223a22646f6765222c22616d74223a2234323030227d68",
        "c024934fda9abb5a75a5a6fa5bde52af127a403f4913691f21b8de7b83aebe5727"
      ],
      "is_coinbase": false,
      "sequence": 4261412863
    }
  ],
  "vout": [
    {
      "scriptpubkey": "00147a665de7a370f4c9b372ab1fae587500a5bcbdb4",
      "scriptpubkey_asm": "OP_0 OP_PUSHBYTES_20 7a665de7a370f4c9b372ab1fae587500a5bcbdb4",
      "scriptpubkey_type": "v0_p2wpkh",
      "scriptpubkey_address": "bc1q0fn9mearwr6vnvmj4v06ukr4qzjme0d565dzcx",
      "value": 294
    }
  ],
  "size": 294,
  "weight": 540,
  "fee": 1512,
  "status": {
    "confirmed": true,
    "block_height": 834460,
    "block_hash": "00000000000000000000484a79b643b2524bbce82e5d8a442013fa5b8905ed98",
    "block_time": 1710307468
  },
  "hex": "02000000000101643321469295d0c73f0634e20c357937dd113ace04293f2a58cb9a8600bac3ac0d01000000fffffffd0126010000000000001600147a665de7a370f4c9b372ab1fae587500a5bcbdb40340edd15688ca0cc4d2a4d3fb48a6f9b3b37a3a20c53460e2c4470d14624eee2a869adb856696928285307d6976f3a61fe7792c4e2e6ec855e76a6485a47fe9bb176d2024934fda9abb5a75a5a6fa5bde52af127a403f4913691f21b8de7b83aebe5727ac0063036f726401010a746578742f706c61696e00357b2270223a226272632d3230222c226f70223a226d696e74222c227469636b223a22646f6765222c22616d74223a2234323030227d6821c024934fda9abb5a75a5a6fa5bde52af127a403f4913691f21b8de7b83aebe572700000000"
}