{
  "txid": "23be7ee555e2a1f9c9b944c865da89a457f653485749cf2e13bdf8c8f0ff9e48",
  "version": 2,
  "locktime": 0,
  "vin": [
    {
      "txid": "21808abc2419827f0699876c65f1385a381cc20de1deee94001b2e9da5c14014",
      "vout": 0,
      "prevout": {
        "scriptpubkey": "0014570f642c78a43eac2eca7231aed1d18ab807d3b0",
        "scriptpubkey_asm": "OP_0 OP_PUSHBYTES_20 570f642c78a43eac2eca7231aed1d18ab807d3b0",
        "scriptpubkey_type": "v0_p2wpkh",
        "scriptpubkey_address": "bc1q2u8kgtrc5sl2ctk2wgc6a5w332uq05ass3lrsu",
        "value": 294
      },
      "scriptsig": "",
      "scriptsig_asm": "",
      "witness": [
        "304502210093fce34cd00f9d3ad689e8a074b93872a00888d8428962a375d8b8d0344e54a002207c5155a0f4a3a60b1c1d3fab9df8bda692635b2a8b97fe3db3a4541bf7b9e9b201",
        "02c9ce5794547c41b9e5c5849b49ff4a48f3e81c26246495d809f99e467a02794a"
      ],
      "is_coinbase": false,
      "sequence": 4294967295
    },
    {
      "txid": "d93220b2608105362aa569b1d3db76879ab2404c373e070625f0e064ea4d18db",
      "vout": 1,
      "prevout": {
        "scriptpubkey": "0014570f642c78a43eac2eca7231aed1d18ab807d3b0",
        "scriptpubkey_asm": "OP_0 OP_PUSHBYTES_20 570f642c78a43eac2eca7231aed1d18ab807d3b0",
        "scriptpubkey_type": "v0_p2wpkh",
        "scriptpubkey_address": "bc1q2u8kgtrc5sl2ctk2wgc6a5w332uq05ass3lrsu",
        "value": 363877
      },
      "scriptsig": "",
      "scriptsig_asm": "",
      "witness": [
        "3045022100ee7db4665794a0fd94cd85e07279f43213cd2773af62a3d3dd55aeeafa67453002205ddd08858ff49fb5e378a770d3c93f587b9e315fa7a57746f8f169fb26f783a101",
        "02c9ce5794547c41b9e5c5849b49ff4a48f3e81c26246495d809f99e467a02794a"
      ],
      "is_coinbase": false,
      "sequence": 4294967295
    }
  ],
  "vout": [
    {
      "scriptpubkey": "0014570f642c78a43eac2eca7231aed1d18ab807d3b0",
      "scriptpubkey_asm": "OP_0 OP_PUSHBYTES_20 570f642c78a43eac2eca7231aed1d18ab807d3b0",
      "scriptpubkey_type": "v0_p2wpkh",
      "scriptpubkey_address": "bc1q2u8kgtrc5sl2ctk2wgc6a5w332uq05ass3lrsu",
      "value": 294
    },
    {
      "scriptpubkey": "0014570f642c78a43eac2eca7231aed1d18ab807d3b0",
      "scriptpubkey_asm": "OP_0 OP_PUSHBYTES_20 570f642c78a43eac2eca7231aed1d18ab807d3b0",
      "scriptpubkey_type": "v0_p2wpkh",
      "scriptpubkey_address": "bc1q2u8kgtrc5sl2ctk2wgc6a5w332uq05ass3lrsu",
      "value": 360742
    }
  ],
  "size": 372,
  "weight": 834,
  "fee": 3135,
  "status": {
    "confirmed": true,
    "block_height": 834460,
    "block_hash": "00000000000000000000484a79b643b2524bbce82e5d8a442013fa5b8905ed98",
    "block_time": 1710307468
  },
  "hex": "020000000001021440c1a59d2e1b0094eedee10dc21c385a38f1656c8799067f821924bc8a80210000000000ffffffffdb184dea64e0f02506073e374c40b29a8776dbd3b169a52a36058160b22032d90100000000ffffffff022601000000000000160014570f642c78a43eac2eca7231aed1d18ab807d3b02681050000000000160014570f642c78a43eac2eca7231aed1d18ab807d3b00248304502210093fce34cd00f9d3ad689e8a074b93872a00888d8428962a375d8b8d0344e54a002207c5155a0f4a3a60b1c1d3fab9df8bda692635b2a8b97fe3db3a4541bf7b9e9b2012102c9ce5794547c41b9e5c5849b49ff4a48f3e81c26246495d809f99e467a02794a02483045022100ee7db4665794a0fd94cd85e07279f43213cd2773af62a3d3dd55aeeafa67453002205ddd08858ff49fb5e378a770d3c93f587b9e315fa7a57746f8f169fb26f783a1012102c9ce5794547c41b9e5c5849b49ff4a48f3e81c26246495d809f99e467a02794a00000000"
}