{
  "txid": "23c1f8ca022dff9e586aaf43743916b5cb5b45d505ee995b55fa14560bd22516",
  "version": 2,
  "locktime": 0,
  "vin": [
    {
      "txid": "d18ed70056c00a6cd5de0ccb10b1ae8f7dd5250f9d0f22c727aba826d03302c8",
      "vout": 9,
      "prevout": {
        "scriptpubkey": "5120424c463cb66e90697a57daa9229e78dade66e79f7584108149a310a8b34871de",
        "scriptpubkey_asm": "OP_PUSHNUM_1 OP_PUSHBYTES_32 424c463cb66e90697a57daa9229e78dade66e79f7584108149a310a8b34871de",
        "scriptpubkey_type": "v1_p2tr",
        "scriptpubkey_address": "bc1pgfxyv09kd6gxj7jhm25j98ncmt0xdeulwkzppq2f5vg23v6gw80q3tfg8n",
        "value": 3010
      },
      "scriptsig": "",
      "scriptsig_asm": "",
      "witness": [
        "99ef7ca8c59350c0ee91f1f72a332ae837a19fd9c29b30c3672dc418dce20e5464e9890acacff2a0b0b78671ad36bedbb8e1e6e82ab27e893ccb32f9c1688e5b",
        "206928b89c2378bf928d9c2fa82e9c810726f34a96c847a0bef1c5311b9c89d414ac0063036f726401011e6170706c69636174696f6e2f6a736f6e3b636861727365743d7574662d38004cbf7b2270223a22706f772d3230222c226f70223a226d696e74222c227469636b223a2250455045222c22616d74223a2231303030222c22736f6c7574696f6e223a22504550453a6263317168337833756334707a796478716436757776376e3732676874787a33753937306564663078613a303030303030303030303030303030303030303139393431613561653132383937363539383134343239323533333030353762306461393666336465613163353a3236333439363837313433227d68",
        "c1e5c6b8d70510d88b341fcdd9a2aa08913e89d9e736480c530fde3fe13419cdab"
      ],
      "is_coinbase": false,
      "sequence": 4294967295
    }
  ],
  "vout": [
    {
      "scriptpubkey": "0014bc4d1e62a1111a60375c733d3f291759851e17cf",
      "scriptpubkey_asm": "OP_0 OP_PUSHBYTES_20 bc4d1e62a1111a60375c733d3f291759851e17cf",
      "scriptpubkey_type": "v0_p2wpkh",
      "scriptpubkey_address": "bc1qh3x3uc4pzydxqd6uwv7n72ghtxz3u970edf0xa",
      "value": 546
    }
  ],
  "size": 455,
  "weight": 701,
  "fee": 2464,
  "status": {
    "confirmed": true,
    "block_height": 834460,
    "block_hash": "00000000000000000000484a79b643b2524bbce82e5d8a442013fa5b8905ed98",
    "block_time": 1710307468
  },
  "hex": "02000000000101c80233d026a8ab27c7220f9d0f25d57d8faeb110cb0cded56c0ac05600d78ed10900000000ffffffff012202000000000000160014bc4d1e62a1111a60375c733d3f291759851e17cf034099ef7ca8c59350c0ee91f1f72a332ae837a19fd9c29b30c3672dc418dce20e5464e9890acacff2a0b0b78671ad36bedbb8e1e6e82ab27e893ccb32f9c1688e5bfd0c01206928b89c2378bf928d9c2fa82e9c810726f34a96c847a0bef1c5311b9c89d414ac0063036f726401011e6170706c69636174696f6e2f6a736f6e3b636861727365743d7574662d38004cbf7b2270223a22706f772d3230222c226f70223a226d696e74222c227469636b223a2250455045222c22616d74223a2231303030222c22736f6c7574696f6e223a22504550453a6263317168337833756334707a796478716436757776376e3732676874787a33753937306564663078613a303030303030303030303030303030303030303139393431613561653132383937363539383134343239323533333030353762306461393666336465613163353a3236333439363837313433227d6821c1e5c6b8d70510d88b341fcdd9a2aa08913e89d9e736480c530fde3fe13419cdab00000000"
}