{
  "txid": "23ce8649e9e38fd125b51774ea90513317920715a5e6e7c3272da7c500bf0add",
  "version": 2,
  "locktime": 834442,
  "vin": [
    {
      "txid": "f5fe02ab3d224ed869c0e772285b7b35f9ce011ccf3612192e11eb6a6edfe764",
      "vout": 0,
      "prevout": {
        "scriptpubkey": "00145db821344764a212764d56d142a4ae655d50b73e",
        "scriptpubkey_asm": "OP_0 OP_PUSHBYTES_20 5db821344764a212764d56d142a4ae655d50b73e",
        "scriptpubkey_type": "v0_p2wpkh",
        "scriptpubkey_address": "bc1qtkuzzdz8vj3pyajd2mg59f9wv4w4pde769yquj",
        "value": 13571
      },
      "scriptsig": "",
      "scriptsig_asm": "",
      "witness": [
        "3045022100960a8e3b0a0a5430a761e1210809089c59f9ea9a839263301f6716c7bba2c81002205af11e762244718ed5483da5e67073fe15795a48cdcc9b8b3dbc92de8f6e747501",
        "031e6ee33cbbe986b7388fa7f92494c8fb9ee14feb3cb2d147d9edaec7265364c0"
      ],
      "is_coinbase": false,
      "sequence": 4294967294
    }
  ],
  "vout": [
    {
      "scriptpubkey": "00145f967e37a7a44bad454c3a13241f27597c69b955",
      "scriptpubkey_asm": "OP_0 OP_PUSHBYTES_20 5f967e37a7a44bad454c3a13241f27597c69b955",
      "scriptpubkey_type": "v0_p2wpkh",
      "scriptpubkey_address": "bc1qt7t8uda85396632v8gfjg8e8t97xnw24lquzkf",
      "value": 7711
    },
    {
      "scriptpubkey": "001489665384b89ceb5bca620941e29168be013d16ed",
      "scriptpubkey_asm": "OP_0 OP_PUSHBYTES_20 89665384b89ceb5bca620941e29168be013d16ed",
      "scriptpubkey_type": "v0_p2wpkh",
      "scriptpubkey_address": "bc1q39n98p9cnn44hjnzp9q79ytghcqn69hdacrmww",
      "value": 4168
    }
  ],
  "size": 223,
  "weight": 562,
  "fee": 1692,
  "status": {
    "confirmed": true,
    "block_height": 834460,
    "block_hash": "00000000000000000000484a79b643b2524bbce82e5d8a442013fa5b8905ed98",
    "block_time": 1710307468
  },
  "hex": "0200000000010164e7df6e6aeb112e191236cf1c01cef9357b5b2872e7c069d84e223dab02fef50000000000feffffff021f1e0000000000001600145f967e37a7a44bad454c3a13241f27597c69b955481000000000000016001489665384b89ceb5bca620941e29168be013d16ed02483045022100960a8e3b0a0a5430a761e1210809089c59f9ea9a839263301f6716c7bba2c81002205af11e762244718ed5483da5e67073fe15795a48cdcc9b8b3dbc92de8f6e74750121031e6ee33cbbe986b7388fa7f92494c8fb9ee14feb3cb2d147d9edaec7265364c08abb0c00"
}