{
  "txid": "23db54db2353862ac26ebe4df2eed3cd92afa9d11699a3cebf2dba844197d502",
  "version": 2,
  "locktime": 0,
  "vin": [
    {
      "txid": "14e2167695fd53b97ae50c0a70e65ac4ef7ad1480621c0c13d9d798945a5d5dc",
      "vout": 8,
      "prevout": {
        "scriptpubkey": "512073350386a2961539edce5b22cf0330d4b2c72c5bf33abadf2cbbfe1f71ce735c",
        "scriptpubkey_asm": "OP_PUSHNUM_1 OP_PUSHBYTES_32 73350386a2961539edce5b22cf0330d4b2c72c5bf33abadf2cbbfe1f71ce735c",
        "scriptpubkey_type": "v1_p2tr",
        "scriptpubkey_address": "bc1pwv6s8p4zjc2nnmwwtv3v7qes6jevwtzm7vat4hevh0lp7uwwwdwql606d9",
        "value": 2850
      },
      "scriptsig": "",
      "scriptsig_asm": "",
      "witness": [
        "18a9a8330dd0ab20d28bc4f3aa3fd2f08259dd363ae5f5543d5199e912577a955619aae84700e14ccf5e1e1d493bf9e70cf118813ad8f70dc1e8cc61c294f5b1",
        "202a4458d1bfef97bfb4d4bfb3e273f0a1131242b7919a6bae01a35e24a2368df0ac0063036f726401011e6170706c69636174696f6e2f6a736f6e3b636861727365743d7574662d38004cd27b2270223a22706f772d3230222c226f70223a226d696e74222c227469636b223a2250455045222c22616d74223a2231303030222c22736f6c7574696f6e223a22504550453a62633170673935386e6b7a747678347271756e78676d747a6c35666e70666b633330776a323770777367396e6c706a786b796e64793671737376386c6b303a303030303030303030303030303030303030303139393431613561653132383937363539383134343239323533333030353762306461393666336465613163353a39333032313837363236227d68",
        "c1631b34e489e80d4fba35164e5ad52a60d66865df7d7db84d2adbf53ec13ca2a1"
      ],
      "is_coinbase": false,
      "sequence": 4294967295
    }
  ],
  "vout": [
    {
      "scriptpubkey": "5120416879d84b61aa30726646d62fd1330a6d88bdd25782e820b3f8646b126d2681",
      "scriptpubkey_asm": "OP_PUSHNUM_1 OP_PUSHBYTES_32 416879d84b61aa30726646d62fd1330a6d88bdd25782e820b3f8646b126d2681",
      "scriptpubkey_type": "v1_p2tr",
      "scriptpubkey_address": "bc1pg958nkztvx4rqunxgmtzl5fnpfkc30wj27pwsg9nlpjxkyndy6qssv8lk0",
      "value": 546
    }
  ],
  "size": 486,
  "weight": 768,
  "fee": 2304,
  "status": {
    "confirmed": true,
    "block_height": 834460,
    "block_hash": "00000000000000000000484a79b643b2524bbce82e5d8a442013fa5b8905ed98",
    "block_time": 1710307468
  },
  "hex": "02000000000101dcd5a54589799d3dc1c0210648d17aefc45ae6700a0ce57ab953fd957616e2140800000000ffffffff012202000000000000225120416879d84b61aa30726646d62fd1330a6d88bdd25782e820b3f8646b126d2681034018a9a8330dd0ab20d28bc4f3aa3fd2f08259dd363ae5f5543d5199e912577a955619aae84700e14ccf5e1e1d493bf9e70cf118813ad8f70dc1e8cc61c294f5b1fd1f01202a4458d1bfef97bfb4d4bfb3e273f0a1131242b7919a6bae01a35e24a2368df0ac0063036f726401011e6170706c69636174696f6e2f6a736f6e3b636861727365743d7574662d38004cd27b2270223a22706f772d3230222c226f70223a226d696e74222c227469636b223a2250455045222c22616d74223a2231303030222c22736f6c7574696f6e223a22504550453a62633170673935386e6b7a747678347271756e78676d747a6c35666e70666b633330776a323770777367396e6c706a786b796e64793671737376386c6b303a303030303030303030303030303030303030303139393431613561653132383937363539383134343239323533333030353762306461393666336465613163353a39333032313837363236227d6821c1631b34e489e80d4fba35164e5ad52a60d66865df7d7db84d2adbf53ec13ca2a100000000"
}