{
  "txid": "23e0cc5ad0ec4f452f9075b972f1a98b61addfdec0b5695166bec6488281dfb4",
  "version": 2,
  "locktime": 0,
  "vin": [
    {
      "txid": "8486ecb4df0880316dd6e82b3971b4df187aff23765bc3a47f8d78bb53aa273c",
      "vout": 32,
      "prevout": {
        "scriptpubkey": "5120f24434b65156b720015daaafc94290090962bf4c24c9531be91fa59243a82d97",
        "scriptpubkey_asm": "OP_PUSHNUM_1 OP_PUSHBYTES_32 f24434b65156b720015daaafc94290090962bf4c24c9531be91fa59243a82d97",
        "scriptpubkey_type": "v1_p2tr",
        "scriptpubkey_address": "bc1p7fzrfdj326mjqq2a42hujs5spyyk906vyny4xxlfr7jeysag9kts8zjcpw",
        "value": 2575
      },
      "scriptsig": "",
      "scriptsig_asm": "",
      "witness": [
        "071b1c6a807162c05c50f9f91585fa91f0f521a1a31c5ce6b114e66d0936d01055e4d1381e36a253e4f269b1149e85bd27b1797aad166867aeaada8abdd25790",
        "209a98df3fe27556583f26af2c2c82e52ada3000521bfef4593138be2cdfd0cd17ac0063036f726401010a746578742f706c61696e00367b2270223a226272632d3230222c226f70223a226d696e74222c227469636b223a2261616161222c22616d74223a223130303030227d68",
        "c19a98df3fe27556583f26af2c2c82e52ada3000521bfef4593138be2cdfd0cd17"
      ],
      "is_coinbase": false,
      "sequence": 4261412863
    }
  ],
  "vout": [
    {
      "scriptpubkey": "0014ddd7ef12ea6f78edcc1e8e7afa12c01ab59f3339",
      "scriptpubkey_asm": "OP_0 OP_PUSHBYTES_20 ddd7ef12ea6f78edcc1e8e7afa12c01ab59f3339",
      "scriptpubkey_type": "v0_p2wpkh",
      "scriptpubkey_address": "bc1qmht77yh2dauwmnq73ea05ykqr26e7veea8spz6",
      "value": 546
    }
  ],
  "size": 295,
  "weight": 541,
  "fee": 2029,
  "status": {
    "confirmed": true,
    "block_height": 834460,
    "block_hash": "00000000000000000000484a79b643b2524bbce82e5d8a442013fa5b8905ed98",
    "block_time": 1710307468
  },
  "hex": "020000000001013c27aa53bb788d7fa4c35b7623ff7a18dfb471392be8d66d318008dfb4ec86842000000000fffffffd012202000000000000160014ddd7ef12ea6f78edcc1e8e7afa12c01ab59f33390340071b1c6a807162c05c50f9f91585fa91f0f521a1a31c5ce6b114e66d0936d01055e4d1381e36a253e4f269b1149e85bd27b1797aad166867aeaada8abdd257906e209a98df3fe27556583f26af2c2c82e52ada3000521bfef4593138be2cdfd0cd17ac0063036f726401010a746578742f706c61696e00367b2270223a226272632d3230222c226f70223a226d696e74222c227469636b223a2261616161222c22616d74223a223130303030227d6821c19a98df3fe27556583f26af2c2c82e52ada3000521bfef4593138be2cdfd0cd1700000000"
}