{
  "txid": "23fab74d3f31d8dc74ae91a9bec15339022604ef4afc3f2828e2f49d9263d1dd",
  "version": 2,
  "locktime": 0,
  "vin": [
    {
      "txid": "3fff128842e3ce41b52552c55baaec1a82adbb27bce3d39c0ef16319680a98f0",
      "vout": 1453,
      "prevout": {
        "scriptpubkey": "76a914dd5f0c5193df4886c4517c7131372fdeaad7d60488ac",
        "scriptpubkey_asm": "OP_DUP OP_HASH160 OP_PUSHBYTES_20 dd5f0c5193df4886c4517c7131372fdeaad7d604 OP_EQUALVERIFY OP_CHECKSIG",
        "scriptpubkey_type": "p2pkh",
        "scriptpubkey_address": "1MBWCTK7qkoWEGf7EMzcQYCWZXxoWXx2LZ",
        "value": 288599237
      },
      "scriptsig": "47304402200144cadde571afe14b71656ee2765ae8049ba17ef986143c7e0aee954238f92202204a4b00fe0af6e378a86f3c78403d6918381b25b8348141650cab485096ae1428012103fcaac6d0fad10fe670cfc5dca0c434de006b070ec4868e17832061b47f89523a",
      "scriptsig_asm": "OP_PUSHBYTES_71 304402200144cadde571afe14b71656ee2765ae8049ba17ef986143c7e0aee954238f92202204a4b00fe0af6e378a86f3c78403d6918381b25b8348141650cab485096ae142801 OP_PUSHBYTES_33 03fcaac6d0fad10fe670cfc5dca0c434de006b070ec4868e17832061b47f89523a",
      "is_coinbase": false,
      "sequence": 4294967295
    }
  ],
  "vout": [
    {
      "scriptpubkey": "76a91427492e1b3614a3fbabb284c0355cb69fccc6e75d88ac",
      "scriptpubkey_asm": "OP_DUP OP_HASH160 OP_PUSHBYTES_20 27492e1b3614a3fbabb284c0355cb69fccc6e75d OP_EQUALVERIFY OP_CHECKSIG",
      "scriptpubkey_type": "p2pkh",
      "scriptpubkey_address": "14aj28CM5bg45TMbiXC26rebfb91KRKZc2",
      "value": 20737
    },
    {
      "scriptpubkey": "76a914999c23a6cf45fb7593d7272828dba6be563813a488ac",
      "scriptpubkey_asm": "OP_DUP OP_HASH160 OP_PUSHBYTES_20 999c23a6cf45fb7593d7272828dba6be563813a4 OP_EQUALVERIFY OP_CHECKSIG",
      "scriptpubkey_type": "p2pkh",
      "scriptpubkey_address": "1F1DS6azkVTA22X5SxAGdv6rqX4j6FZSZ4",
      "value": 92000
    },
    {
      "scriptpubkey": "76a914c08114645fcd01e038e9131f33597536dd8865c188ac",
      "scriptpubkey_asm": "OP_DUP OP_HASH160 OP_PUSHBYTES_20 c08114645fcd01e038e9131f33597536dd8865c1 OP_EQUALVERIFY OP_CHECKSIG",
      "scriptpubkey_type": "p2pkh",
      "scriptpubkey_address": "1JYsNShxjB8zE1Yj5iBDHRB7kZrGY6PnNq",
      "value": 150806
    },
    {
      "scriptpubkey": "76a914fd20105998f00201e6b2e4b239c9d4146951c4a788ac",
      "scriptpubkey_asm": "OP_DUP OP_HASH160 OP_PUSHBYTES_20 fd20105998f00201e6b2e4b239c9d4146951c4a7 OP_EQUALVERIFY OP_CHECKSIG",
      "scriptpubkey_type": "p2pkh",
      "scriptpubkey_address": "1Q5QNNSUdbKJkqQpWP7iP28PimecbkpYSh",
      "value": 151169
    },
    {
      "scriptpubkey": "a9140ed21b7c92908ac4f8a22b5451331037ef980dfe87",
      "scriptpubkey_asm": "OP_HASH160 OP_PUSHBYTES_20 0ed21b7c92908ac4f8a22b5451331037ef980dfe OP_EQUAL",
      "scriptpubkey_type": "p2sh",
      "scriptpubkey_address": "333P5kBboH4dfFh122VfZWGB8mwT3JmJYv",
      "value": 2638110
    },
    {
      "scriptpubkey": "0014fbbcce89414ad2499fdbd2254615a6b03022436a",
      "scriptpubkey_asm": "OP_0 OP_PUSHBYTES_20 fbbcce89414ad2499fdbd2254615a6b03022436a",
      "scriptpubkey_type": "v0_p2wpkh",
      "scriptpubkey_address": "bc1qlw7vaz2pftfyn87m6gj5v9dxkqczysm2j6g90y",
      "value": 2690315
    },
    {
      "scriptpubkey": "76a9140a74534a496efc303521ff25870e71edad62b88a88ac",
      "scriptpubkey_asm": "OP_DUP OP_HASH160 OP_PUSHBYTES_20 0a74534a496efc303521ff25870e71edad62b88a OP_EQUALVERIFY OP_CHECKSIG",
      "scriptpubkey_type": "p2pkh",
      "scriptpubkey_address": "1xH7M3BJGC7uVkreqY82JaxDFRYhpetv7",
      "value": 7747339
    },
    {
      "scriptpubkey": "76a914d5ca24db9e92f759a4e5e061278df569aee3186e88ac",
      "scriptpubkey_asm": "OP_DUP OP_HASH160 OP_PUSHBYTES_20 d5ca24db9e92f759a4e5e061278df569aee3186e OP_EQUALVERIFY OP_CHECKSIG",
      "scriptpubkey_type": "p2pkh",
      "scriptpubkey_address": "1LVR6532tUcxHWbiPQySGZt7Bo1WN89Q7P",
      "value": 80000000
    },
    {
      "scriptpubkey": "76a914d5f9217d163fa06825aa39eb3bd6a3e72f912aec88ac",
      "scriptpubkey_asm": "OP_DUP OP_HASH160 OP_PUSHBYTES_20 d5f9217d163fa06825aa39eb3bd6a3e72f912aec OP_EQUALVERIFY OP_CHECKSIG",
      "scriptpubkey_type": "p2pkh",
      "scriptpubkey_address": "1LWPNmoEPWcVTqoA9UxotEfSRTbmfx1Bjk",
      "value": 195099110
    }
  ],
  "size": 458,
  "weight": 1832,
  "fee": 9651,
  "status": {
    "confirmed": true,
    "block_height": 834638,
    "block_hash": "000000000000000000025f742c626208ac87e0b7d15054abb4a19ca2d735a54e",
    "block_time": 1710405325
  },
  "hex": "0200000001f0980a681963f10e9cd3e3bc27bbad821aecaa5bc55225b541cee3428812ff3fad0500006a47304402200144cadde571afe14b71656ee2765ae8049ba17ef986143c7e0aee954238f92202204a4b00fe0af6e378a86f3c78403d6918381b25b8348141650cab485096ae1428012103fcaac6d0fad10fe670cfc5dca0c434de006b070ec4868e17832061b47f89523affffffff0901510000000000001976a91427492e1b3614a3fbabb284c0355cb69fccc6e75d88ac60670100000000001976a914999c23a6cf45fb7593d7272828dba6be563813a488ac164d0200000000001976a914c08114645fcd01e038e9131f33597536dd8865c188ac814e0200000000001976a914fd20105998f00201e6b2e4b239c9d4146951c4a788ac1e4128000000000017a9140ed21b7c92908ac4f8a22b5451331037ef980dfe870b0d290000000000160014fbbcce89414ad2499fdbd2254615a6b03022436a0b377600000000001976a9140a74534a496efc303521ff25870e71edad62b88a88ac00b4c404000000001976a914d5ca24db9e92f759a4e5e061278df569aee3186e88ace6f9a00b000000001976a914d5f9217d163fa06825aa39eb3bd6a3e72f912aec88ac00000000"
}