{
  "txid": "240c9d483e0a076e22d7ebee2061550b4285bc7555cda61f7b322604eafe82b1",
  "version": 1,
  "locktime": 0,
  "vin": [
    {
      "txid": "dd5896c9aa9acfb6ac0a2829572dcc0d2a8563e45237cec189eae6f0573bb366",
      "vout": 26,
      "prevout": {
        "scriptpubkey": "0014200839963387318146ac1d32a4c304fa989c8b92",
        "scriptpubkey_asm": "OP_0 OP_PUSHBYTES_20 200839963387318146ac1d32a4c304fa989c8b92",
        "scriptpubkey_type": "v0_p2wpkh",
        "scriptpubkey_address": "bc1qyqyrn93nsuccz34vr5e2fscyl2vfezujz482w4",
        "value": 1645013
      },
      "scriptsig": "",
      "scriptsig_asm": "",
      "witness": [
        "3045022100fccf112d9b810b1b26f0e71bd95c8e22f6c5607f8ae8132aff9a2d4fbadbcb6202205fcf1a2fc06081fb89168f46bc891f081f830d7548e7c4016be7adf97b25edb601",
        "03e006cb8c84a9f475adcdcc4342f6e9b7ece4ca36761daa116ccc9bfee004662a"
      ],
      "is_coinbase": false,
      "sequence": 4294967293
    },
    {
      "txid": "2e604ac280dc905d983690777c3cbe71a145250edde286fdd586dfe19ce2b079",
      "vout": 10,
      "prevout": {
        "scriptpubkey": "0014db1eb25474e4b6fb0123a624c008a1d81e1b7893",
        "scriptpubkey_asm": "OP_0 OP_PUSHBYTES_20 db1eb25474e4b6fb0123a624c008a1d81e1b7893",
        "scriptpubkey_type": "v0_p2wpkh",
        "scriptpubkey_address": "bc1qmv0ty4r5ujm0kqfr5cjvqz9pmq0pk7yn9g0pc5",
        "value": 1569698
      },
      "scriptsig": "",
      "scriptsig_asm": "",
      "witness": [
        "3044022065272686f78a98fbac97b02a92b3db19e38d3e1ecf35d22a6d6fcd41b290fe87022035f1cb3849a07fffa7a89ee8b6323a3a4227d65980e3c709fa3a1b66dc2a9a3a01",
        "02af2b1eef6d19a04215f1214c2e6fcf31cee7ca71293ec73a2ebd12f186029260"
      ],
      "is_coinbase": false,
      "sequence": 4294967293
    },
    {
      "txid": "64743b94d355606314fe934dec689637ebf7dd5f92714913a15636fec68a12bb",
      "vout": 4,
      "prevout": {
        "scriptpubkey": "0014478a3d2aa92ad33b9718ae71d52e63a5ea90d338",
        "scriptpubkey_asm": "OP_0 OP_PUSHBYTES_20 478a3d2aa92ad33b9718ae71d52e63a5ea90d338",
        "scriptpubkey_type": "v0_p2wpkh",
        "scriptpubkey_address": "bc1qg79r624f9tfnh9cc4eca2tnr5h4fp5ec5vhnct",
        "value": 1552792
      },
      "scriptsig": "",
      "scriptsig_asm": "",
      "witness": [
        "3045022100aee691727f5efc5534cc25e994f14e1dfbe81f80ce6c9b8a6a2437635c629cf8022008ea4b4779378e8fefa21754dc69c57539a21ba471c71783a7c87913c5a5ab1c01",
        "03bb0fd18de803125ed89fe7bf142514873cce050fc7e8e25cb733ba5dc37f6546"
      ],
      "is_coinbase": false,
      "sequence": 4294967293
    },
    {
      "txid": "b4c342aaeec7541a68e77b6d7829898bcc2649943890cbfc7bd1af04946d7ee1",
      "vout": 1,
      "prevout": {
        "scriptpubkey": "0014a2b47a11060a594840bc5c365afe35efbfb09be5",
        "scriptpubkey_asm": "OP_0 OP_PUSHBYTES_20 a2b47a11060a594840bc5c365afe35efbfb09be5",
        "scriptpubkey_type": "v0_p2wpkh",
        "scriptpubkey_address": "bc1q52685ygxpfv5ss9utsm94l34a7lmpxl97rhcxa",
        "value": 1490901
      },
      "scriptsig": "",
      "scriptsig_asm": "",
      "witness": [
        "30440220691af07dcea0500b21f5f40d1124d990cbea4427b6087607ccd9bd625b34d77a0220237ed6cb7bea89bf343005a899ef0754fcc45f7b649150c816ef4b2b7802ddf701",
        "038ec43ae973f1de9ec0569c8a6cde7d34c331d2e85c73d9e0fb9ae5298502a6ed"
      ],
      "is_coinbase": false,
      "sequence": 4294967293
    }
  ],
  "vout": [
    {
      "scriptpubkey": "001423bbb7ddb7cc159308744f90c59b082060dadc70",
      "scriptpubkey_asm": "OP_0 OP_PUSHBYTES_20 23bbb7ddb7cc159308744f90c59b082060dadc70",
      "scriptpubkey_type": "v0_p2wpkh",
      "scriptpubkey_address": "bc1qywam0hdhes2exzr5f7gvtxcgypsd4hrsqhflj7",
      "value": 6250168
    }
  ],
  "size": 637,
  "weight": 1252,
  "fee": 8236,
  "status": {
    "confirmed": true,
    "block_height": 834464,
    "block_hash": "0000000000000000000177a0869a911a2b65c9bdcd5a8bcb02b68f305bee848e",
    "block_time": 1710308296
  },
  "hex": "0100000000010466b33b57f0e6ea89c1ce3752e463852a0dcc2d5729280aacb6cf9aaac99658dd1a00000000fdffffff79b0e29ce1df86d5fd86e2dd0e2545a171be3c7c779036985d90dc80c24a602e0a00000000fdffffffbb128ac6fe3656a1134971925fddf7eb379668ec4d93fe14636055d3943b74640400000000fdffffffe17e6d9404afd17bfccb9038944926cc8b8929786d7be7681a54c7eeaa42c3b40100000000fdffffff01b85e5f000000000016001423bbb7ddb7cc159308744f90c59b082060dadc7002483045022100fccf112d9b810b1b26f0e71bd95c8e22f6c5607f8ae8132aff9a2d4fbadbcb6202205fcf1a2fc06081fb89168f46bc891f081f830d7548e7c4016be7adf97b25edb6012103e006cb8c84a9f475adcdcc4342f6e9b7ece4ca36761daa116ccc9bfee004662a02473044022065272686f78a98fbac97b02a92b3db19e38d3e1ecf35d22a6d6fcd41b290fe87022035f1cb3849a07fffa7a89ee8b6323a3a4227d65980e3c709fa3a1b66dc2a9a3a012102af2b1eef6d19a04215f1214c2e6fcf31cee7ca71293ec73a2ebd12f18602926002483045022100aee691727f5efc5534cc25e994f14e1dfbe81f80ce6c9b8a6a2437635c629cf8022008ea4b4779378e8fefa21754dc69c57539a21ba471c71783a7c87913c5a5ab1c012103bb0fd18de803125ed89fe7bf142514873cce050fc7e8e25cb733ba5dc37f6546024730440220691af07dcea0500b21f5f40d1124d990cbea4427b6087607ccd9bd625b34d77a0220237ed6cb7bea89bf343005a899ef0754fcc45f7b649150c816ef4b2b7802ddf70121038ec43ae973f1de9ec0569c8a6cde7d34c331d2e85c73d9e0fb9ae5298502a6ed00000000"
}