{
  "txid": "240f725a10322ea5155bf6c4fb20d106333aac9bd8d309caad4a0b953e960d64",
  "version": 1,
  "locktime": 0,
  "vin": [
    {
      "txid": "fa302f75ebb0e7972af6dcaedf6e2ec7578c6c91ed8e36cb45c281cc20818a6e",
      "vout": 21,
      "prevout": {
        "scriptpubkey": "00140ef170afbc3754dcf169b7b0e39ac1a8b03ecafd",
        "scriptpubkey_asm": "OP_0 OP_PUSHBYTES_20 0ef170afbc3754dcf169b7b0e39ac1a8b03ecafd",
        "scriptpubkey_type": "v0_p2wpkh",
        "scriptpubkey_address": "bc1qpmchptauxa2deutfk7cw8xkp4zcrajhatdqenk",
        "value": 209463
      },
      "scriptsig": "",
      "scriptsig_asm": "",
      "witness": [
        "3044022033fcdc5141d3cf6b6521e8998acb5319cdf9cdbe26bd440fbe8ba58812761f3302206c10fc8ebcc6eed9d89431fdc6eb598518320a38509780604487e0cb8118d80101",
        "03a5eb3b6a12dfde30bb1e51cd19a859e0c806605d94f2b36a9e3d354615d2ddb0"
      ],
      "is_coinbase": false,
      "sequence": 4294967293
    },
    {
      "txid": "fc4b4a5520e87934c5529ea6e2ee5ede7bd47b9b4c8eed12bb880655c7906b6b",
      "vout": 166,
      "prevout": {
        "scriptpubkey": "00146995a17086cbeaaf19f2fe066c71d76fb3bb9c8c",
        "scriptpubkey_asm": "OP_0 OP_PUSHBYTES_20 6995a17086cbeaaf19f2fe066c71d76fb3bb9c8c",
        "scriptpubkey_type": "v0_p2wpkh",
        "scriptpubkey_address": "bc1qdx26zuyxe0427x0jlcrxcuwhd7emh8yv3dezls",
        "value": 207791
      },
      "scriptsig": "",
      "scriptsig_asm": "",
      "witness": [
        "3045022100b8c6c13d33d3fd5cf610036012c7def641e93fb1a12b8814f9efbc73453031a402207ba2cb1202278cc0b763bd6d39d5c21b114bf9f54d339ea1ad1a2424faaf9cd801",
        "03ecdadfce95dca253074cc5a5efd708082ccab27afe573873d1b193d22a379988"
      ],
      "is_coinbase": false,
      "sequence": 4294967293
    },
    {
      "txid": "666bac24755d13979b21d7d06d63195a440684cfe29f8347bcb06c1fb58c9b1d",
      "vout": 1,
      "prevout": {
        "scriptpubkey": "0014622c7d9d773e02ccc9ca970f3ac6072f302f916b",
        "scriptpubkey_asm": "OP_0 OP_PUSHBYTES_20 622c7d9d773e02ccc9ca970f3ac6072f302f916b",
        "scriptpubkey_type": "v0_p2wpkh",
        "scriptpubkey_address": "bc1qvgk8m8th8cpvejw2ju8n43s89uczlyttssyrwf",
        "value": 206432
      },
      "scriptsig": "",
      "scriptsig_asm": "",
      "witness": [
        "304402207807700fc81728ed9b8f1d722d599a72a8f7aebc8b57481756dd9b90955834bc022046cae7b2cd052d74260cc11c86d47bbc4f1a91f4d7450b113dd7801dbaefae7e01",
        "0336dcf44eac4d4bcacbbedc1001aa4d13fd8d007355df8a24f5fb0648dffb6fbf"
      ],
      "is_coinbase": false,
      "sequence": 4294967293
    },
    {
      "txid": "1a09ac2816f6ad644c847cb50fe0c8af1799d98bb9d1a785f501a4941d6cc459",
      "vout": 115,
      "prevout": {
        "scriptpubkey": "00147b94c7ca2d18da5035a101eec63b70b85c4d4ebd",
        "scriptpubkey_asm": "OP_0 OP_PUSHBYTES_20 7b94c7ca2d18da5035a101eec63b70b85c4d4ebd",
        "scriptpubkey_type": "v0_p2wpkh",
        "scriptpubkey_address": "bc1q0w2v0j3drrd9qddpq8hvvwmshpwy6n4aaxqy08",
        "value": 205095
      },
      "scriptsig": "",
      "scriptsig_asm": "",
      "witness": [
        "304402202833e92ad61cdf7472528f99877b0c43b2fc0c308198b0ff3c6ff9f5a135cfba02202882f8e6e2729ff9a536573ef3678c54bca76220ca3eac320d6ab9047e1e502501",
        "0280027769be16f425935ab920551e30d52f63a0dd1a74e6d75a3ad64689eff8b5"
      ],
      "is_coinbase": false,
      "sequence": 4294967293
    }
  ],
  "vout": [
    {
      "scriptpubkey": "0014837cbec4f5647ea73db54533906d4932a47ff26b",
      "scriptpubkey_asm": "OP_0 OP_PUSHBYTES_20 837cbec4f5647ea73db54533906d4932a47ff26b",
      "scriptpubkey_type": "v0_p2wpkh",
      "scriptpubkey_address": "bc1qsd7ta384v3l2w0d4g5eeqm2fx2j8luntr2dftu",
      "value": 819301
    }
  ],
  "size": 636,
  "weight": 1251,
  "fee": 9480,
  "status": {
    "confirmed": true,
    "block_height": 834638,
    "block_hash": "000000000000000000025f742c626208ac87e0b7d15054abb4a19ca2d735a54e",
    "block_time": 1710405325
  },
  "hex": "010000000001046e8a8120cc81c245cb368eed916c8c57c72e6edfaedcf62a97e7b0eb752f30fa1500000000fdffffff6b6b90c7550688bb12ed8e4c9b7bd47bde5eeee2a69e52c53479e820554a4bfca600000000fdffffff1d9b8cb51f6cb0bc47839fe2cf8406445a19636dd0d7219b97135d7524ac6b660100000000fdffffff59c46c1d94a401f585a7d1b98bd99917afc8e00fb57c844c64adf61628ac091a7300000000fdffffff0165800c0000000000160014837cbec4f5647ea73db54533906d4932a47ff26b02473044022033fcdc5141d3cf6b6521e8998acb5319cdf9cdbe26bd440fbe8ba58812761f3302206c10fc8ebcc6eed9d89431fdc6eb598518320a38509780604487e0cb8118d801012103a5eb3b6a12dfde30bb1e51cd19a859e0c806605d94f2b36a9e3d354615d2ddb002483045022100b8c6c13d33d3fd5cf610036012c7def641e93fb1a12b8814f9efbc73453031a402207ba2cb1202278cc0b763bd6d39d5c21b114bf9f54d339ea1ad1a2424faaf9cd8012103ecdadfce95dca253074cc5a5efd708082ccab27afe573873d1b193d22a3799880247304402207807700fc81728ed9b8f1d722d599a72a8f7aebc8b57481756dd9b90955834bc022046cae7b2cd052d74260cc11c86d47bbc4f1a91f4d7450b113dd7801dbaefae7e01210336dcf44eac4d4bcacbbedc1001aa4d13fd8d007355df8a24f5fb0648dffb6fbf0247304402202833e92ad61cdf7472528f99877b0c43b2fc0c308198b0ff3c6ff9f5a135cfba02202882f8e6e2729ff9a536573ef3678c54bca76220ca3eac320d6ab9047e1e502501210280027769be16f425935ab920551e30d52f63a0dd1a74e6d75a3ad64689eff8b500000000"
}