{
  "txid": "243ca60f74b6a49daea14dee226b9d0e607c87236244c9400fa44f3324eabc84",
  "version": 1,
  "locktime": 0,
  "vin": [
    {
      "txid": "d2969710320866ce4b30e9dbaf1569bae01a7e2cc4114d642b19d0b33c3a04ea",
      "vout": 5,
      "prevout": {
        "scriptpubkey": "0014920754e4b5c9e6aa3ba6083a30cd565e2d01964e",
        "scriptpubkey_asm": "OP_0 OP_PUSHBYTES_20 920754e4b5c9e6aa3ba6083a30cd565e2d01964e",
        "scriptpubkey_type": "v0_p2wpkh",
        "scriptpubkey_address": "bc1qjgr4fe94e8n25waxpqarpn2ktcksr9jwqq3xux",
        "value": 7354931
      },
      "scriptsig": "",
      "scriptsig_asm": "",
      "witness": [
        "304402205aab4b013d9688376fd45d10447cda1e432e62aaa97696346215da872eae7373022068bdb8aefe6cb50029e82470ce68eed9b12a68348ba50a5ba80a644bcb217e2901",
        "02e204b84e2cc64a684dce8eb3fca057630b16513e320c6fe314767878d1b21577"
      ],
      "is_coinbase": false,
      "sequence": 4294967295
    }
  ],
  "vout": [
    {
      "scriptpubkey": "76a9148f9310d1344d6134c35dd471f98da23fb77920f588ac",
      "scriptpubkey_asm": "OP_DUP OP_HASH160 OP_PUSHBYTES_20 8f9310d1344d6134c35dd471f98da23fb77920f5 OP_EQUALVERIFY OP_CHECKSIG",
      "scriptpubkey_type": "p2pkh",
      "scriptpubkey_address": "1E69ojeA5Rd3YD2KTxouj1BXvogPMQCgyo",
      "value": 152483
    },
    {
      "scriptpubkey": "0014f1139ded16289f866d0546b2ec1d3e394f2c4f9b",
      "scriptpubkey_asm": "OP_0 OP_PUSHBYTES_20 f1139ded16289f866d0546b2ec1d3e394f2c4f9b",
      "scriptpubkey_type": "v0_p2wpkh",
      "scriptpubkey_address": "bc1q7yfemmgk9z0cvmg9g6ewc8f7898jcnumn6wu5l",
      "value": 41104
    },
    {
      "scriptpubkey": "0020605edd5cde461f7451571c7aa07dccbef49049945c86030d070e1de16e6617e3",
      "scriptpubkey_asm": "OP_0 OP_PUSHBYTES_32 605edd5cde461f7451571c7aa07dccbef49049945c86030d070e1de16e6617e3",
      "scriptpubkey_type": "v0_p2wsh",
      "scriptpubkey_address": "bc1qvp0d6hx7gc0hg52hr3a2qlwvhm6fqjv5tjrqxrg8pcw7zmnxzl3sc4pprj",
      "value": 20100
    },
    {
      "scriptpubkey": "76a9144a3f945be2eeac1619f59b92a61098f81b1c778788ac",
      "scriptpubkey_asm": "OP_DUP OP_HASH160 OP_PUSHBYTES_20 4a3f945be2eeac1619f59b92a61098f81b1c7787 OP_EQUALVERIFY OP_CHECKSIG",
      "scriptpubkey_type": "p2pkh",
      "scriptpubkey_address": "17mbAn9fYRn8PbZ2VQmcDCNZTnU3djBCrq",
      "value": 1870861
    },
    {
      "scriptpubkey": "0014dd2019de776ddb287cd5a967c3f543822a69c938",
      "scriptpubkey_asm": "OP_0 OP_PUSHBYTES_20 dd2019de776ddb287cd5a967c3f543822a69c938",
      "scriptpubkey_type": "v0_p2wpkh",
      "scriptpubkey_address": "bc1qm5spnhnhdhdjslx449nu8a2rsg4xnjfcfaq6wm",
      "value": 454800
    },
    {
      "scriptpubkey": "00148cac3154a579dfdd0e1029ef817529ab762f1f27",
      "scriptpubkey_asm": "OP_0 OP_PUSHBYTES_20 8cac3154a579dfdd0e1029ef817529ab762f1f27",
      "scriptpubkey_type": "v0_p2wpkh",
      "scriptpubkey_address": "bc1q3jkrz499080a6rss98hczaff4dmz78e8r0yz73",
      "value": 735221
    },
    {
      "scriptpubkey": "00144ad8ca43a7eaca9878bfe6a9c510881b46e110a9",
      "scriptpubkey_asm": "OP_0 OP_PUSHBYTES_20 4ad8ca43a7eaca9878bfe6a9c510881b46e110a9",
      "scriptpubkey_type": "v0_p2wpkh",
      "scriptpubkey_address": "bc1qftvv5sa8at9fs79lu65u2yygrdrwzy9fe929gn",
      "value": 57730
    },
    {
      "scriptpubkey": "a914e7d5dc22db9a1e0425ab120b64aff65fc9cee35887",
      "scriptpubkey_asm": "OP_HASH160 OP_PUSHBYTES_20 e7d5dc22db9a1e0425ab120b64aff65fc9cee358 OP_EQUAL",
      "scriptpubkey_type": "p2sh",
      "scriptpubkey_address": "3NprD6x8U79nnjNeEKtrhX4gRPvxpKwSmK",
      "value": 194182
    },
    {
      "scriptpubkey": "a9148dd5a36bc8bcb800a672e594354b8cfa72f0331c87",
      "scriptpubkey_asm": "OP_HASH160 OP_PUSHBYTES_20 8dd5a36bc8bcb800a672e594354b8cfa72f0331c OP_EQUAL",
      "scriptpubkey_type": "p2sh",
      "scriptpubkey_address": "3Ecy8So8Ge162xKWaiCyRePcz1yCTgAS8U",
      "value": 69310
    },
    {
      "scriptpubkey": "0014a622bdfcb88dbbb48acdeed2e878922c79896bb7",
      "scriptpubkey_asm": "OP_0 OP_PUSHBYTES_20 a622bdfcb88dbbb48acdeed2e878922c79896bb7",
      "scriptpubkey_type": "v0_p2wpkh",
      "scriptpubkey_address": "bc1q5c3tml9c3kamfzkdamfws7yj93ucj6ah8dmjjg",
      "value": 207928
    },
    {
      "scriptpubkey": "0014ec237548c5f18fe43ab3b9e9057653d58b00b0a9",
      "scriptpubkey_asm": "OP_0 OP_PUSHBYTES_20 ec237548c5f18fe43ab3b9e9057653d58b00b0a9",
      "scriptpubkey_type": "v0_p2wpkh",
      "scriptpubkey_address": "bc1qas3h2jx97x87gw4nh85s2ajn6k9spv9fpgmrrz",
      "value": 195511
    },
    {
      "scriptpubkey": "00148a59e103bb4efe9016e0c86faf48ef6f953bc515",
      "scriptpubkey_asm": "OP_0 OP_PUSHBYTES_20 8a59e103bb4efe9016e0c86faf48ef6f953bc515",
      "scriptpubkey_type": "v0_p2wpkh",
      "scriptpubkey_address": "bc1q3fv7zqamfmlfq9hqeph67j80d72nh3g42da967",
      "value": 63779
    },
    {
      "scriptpubkey": "a9141d7654b4f995f5ef6f41e53b770838ce79b12cd487",
      "scriptpubkey_asm": "OP_HASH160 OP_PUSHBYTES_20 1d7654b4f995f5ef6f41e53b770838ce79b12cd4 OP_EQUAL",
      "scriptpubkey_type": "p2sh",
      "scriptpubkey_address": "34NoGt3pQKGaDcqsdcfRqFDptHvYcYaR2i",
      "value": 431484
    },
    {
      "scriptpubkey": "0014ff16f78c60f1f637eb5d04264a7c81ec41caf45b",
      "scriptpubkey_asm": "OP_0 OP_PUSHBYTES_20 ff16f78c60f1f637eb5d04264a7c81ec41caf45b",
      "scriptpubkey_type": "v0_p2wpkh",
      "scriptpubkey_address": "bc1qlut00rrq78mr066aqsny5lypa3qu4azmlndxye",
      "value": 2846020
    }
  ],
  "size": 615,
  "weight": 2133,
  "fee": 14418,
  "status": {
    "confirmed": true,
    "block_height": 834464,
    "block_hash": "0000000000000000000177a0869a911a2b65c9bdcd5a8bcb02b68f305bee848e",
    "block_time": 1710308296
  },
  "hex": "01000000000101ea043a3cb3d0192b644d11c42c7e1ae0ba6915afdbe9304bce660832109796d20500000000ffffffff0ea3530200000000001976a9148f9310d1344d6134c35dd471f98da23fb77920f588ac90a0000000000000160014f1139ded16289f866d0546b2ec1d3e394f2c4f9b844e000000000000220020605edd5cde461f7451571c7aa07dccbef49049945c86030d070e1de16e6617e30d8c1c00000000001976a9144a3f945be2eeac1619f59b92a61098f81b1c778788ac90f0060000000000160014dd2019de776ddb287cd5a967c3f543822a69c938f5370b00000000001600148cac3154a579dfdd0e1029ef817529ab762f1f2782e10000000000001600144ad8ca43a7eaca9878bfe6a9c510881b46e110a986f602000000000017a914e7d5dc22db9a1e0425ab120b64aff65fc9cee35887be0e01000000000017a9148dd5a36bc8bcb800a672e594354b8cfa72f0331c87382c030000000000160014a622bdfcb88dbbb48acdeed2e878922c79896bb7b7fb020000000000160014ec237548c5f18fe43ab3b9e9057653d58b00b0a923f90000000000001600148a59e103bb4efe9016e0c86faf48ef6f953bc5157c9506000000000017a9141d7654b4f995f5ef6f41e53b770838ce79b12cd487446d2b0000000000160014ff16f78c60f1f637eb5d04264a7c81ec41caf45b0247304402205aab4b013d9688376fd45d10447cda1e432e62aaa97696346215da872eae7373022068bdb8aefe6cb50029e82470ce68eed9b12a68348ba50a5ba80a644bcb217e29012102e204b84e2cc64a684dce8eb3fca057630b16513e320c6fe314767878d1b2157700000000"
}