{
  "txid": "2450129d3fb94817aa50d0657aa50c40e41a0e2ac1c801005604457262d10ded",
  "version": 2,
  "locktime": 0,
  "vin": [
    {
      "txid": "1d24be2000c445b41d1f414a8fbd561cc2d1b8516b3596bf66cf3c79695f4a9b",
      "vout": 1,
      "prevout": {
        "scriptpubkey": "0014f60834ef165253c571b11ce9fa74e46692fc5ec1",
        "scriptpubkey_asm": "OP_0 OP_PUSHBYTES_20 f60834ef165253c571b11ce9fa74e46692fc5ec1",
        "scriptpubkey_type": "v0_p2wpkh",
        "scriptpubkey_address": "bc1q7cyrfmck2ffu2ud3rn5l5a8yv6f0chkp0zpemf",
        "value": 392747085
      },
      "scriptsig": "",
      "scriptsig_asm": "",
      "witness": [
        "304402205f332b0683d4dbd88073dcf89f9ca0fe258b4259d80a40a922b3d8cdeed0d8fc022067c2fc4618575ffd76ff15f2fb5653f80c8fc4774ee859f766dc05830385b6b501",
        "026e5628506ecd33242e5ceb5fdafe4d3066b5c0f159b3c05a621ef65f177ea286"
      ],
      "is_coinbase": false,
      "sequence": 4294967293
    }
  ],
  "vout": [
    {
      "scriptpubkey": "00140b9145acded9cb86f8d40ca138567384673b18c0",
      "scriptpubkey_asm": "OP_0 OP_PUSHBYTES_20 0b9145acded9cb86f8d40ca138567384673b18c0",
      "scriptpubkey_type": "v0_p2wpkh",
      "scriptpubkey_address": "bc1qpwg5ttx7m89cd7x5pjsns4nns3nnkxxqsq2rnu",
      "value": 76280
    },
    {
      "scriptpubkey": "a9149b2539a25ff6597e80f45c2e5aacdfcfacf3d3d687",
      "scriptpubkey_asm": "OP_HASH160 OP_PUSHBYTES_20 9b2539a25ff6597e80f45c2e5aacdfcfacf3d3d6 OP_EQUAL",
      "scriptpubkey_type": "p2sh",
      "scriptpubkey_address": "3FqMFj1YLyn83P3VB3qAZGWBxS2LfRhS8Y",
      "value": 479360
    },
    {
      "scriptpubkey": "0014f60834ef165253c571b11ce9fa74e46692fc5ec1",
      "scriptpubkey_asm": "OP_0 OP_PUSHBYTES_20 f60834ef165253c571b11ce9fa74e46692fc5ec1",
      "scriptpubkey_type": "v0_p2wpkh",
      "scriptpubkey_address": "bc1q7cyrfmck2ffu2ud3rn5l5a8yv6f0chkp0zpemf",
      "value": 392185813
    }
  ],
  "size": 254,
  "weight": 689,
  "fee": 5632,
  "status": {
    "confirmed": true,
    "block_height": 834638,
    "block_hash": "000000000000000000025f742c626208ac87e0b7d15054abb4a19ca2d735a54e",
    "block_time": 1710405325
  },
  "hex": "020000000001019b4a5f69793ccf66bf96356b51b8d1c21c56bd8f4a411f1db445c40020be241d0100000000fdffffff03f8290100000000001600140b9145acded9cb86f8d40ca138567384673b18c0805007000000000017a9149b2539a25ff6597e80f45c2e5aacdfcfacf3d3d687d547601700000000160014f60834ef165253c571b11ce9fa74e46692fc5ec10247304402205f332b0683d4dbd88073dcf89f9ca0fe258b4259d80a40a922b3d8cdeed0d8fc022067c2fc4618575ffd76ff15f2fb5653f80c8fc4774ee859f766dc05830385b6b50121026e5628506ecd33242e5ceb5fdafe4d3066b5c0f159b3c05a621ef65f177ea28600000000"
}