{
  "txid": "2454b8f91192d97c939e99e0b1cd37e90a64f56fabaccbd198253eedba3e1091",
  "version": 1,
  "locktime": 0,
  "vin": [
    {
      "txid": "232af81a521e8c475e627a2c735b5a73a5c26ff6466dedd67f182aacb00218b5",
      "vout": 1,
      "prevout": {
        "scriptpubkey": "0014095380ecf767f45d20dffb33951b0e53ae3e95b5",
        "scriptpubkey_asm": "OP_0 OP_PUSHBYTES_20 095380ecf767f45d20dffb33951b0e53ae3e95b5",
        "scriptpubkey_type": "v0_p2wpkh",
        "scriptpubkey_address": "bc1qp9fcpm8hvl696gxllvee2xcw2whra9d48u3ngf",
        "value": 360979
      },
      "scriptsig": "",
      "scriptsig_asm": "",
      "witness": [
        "304402202c5e1fb8aaac46425eabacffb73edfaf0b9fd0b8d8d53eda99bfdfb8d792d99902200c05fa509d8dad15a2bf271e3cde4a3b93453e3ba87cb14c0280f245775cc06e01",
        "03a8fe9f38d7ef13c5b2dfb8aba47f0dcdbb4cf46c80eef7dd325ca56aabaa96d5"
      ],
      "is_coinbase": false,
      "sequence": 4294967295
    }
  ],
  "vout": [
    {
      "scriptpubkey": "a914811573a5f690750a44379eefacee7a63d660d58a87",
      "scriptpubkey_asm": "OP_HASH160 OP_PUSHBYTES_20 811573a5f690750a44379eefacee7a63d660d58a OP_EQUAL",
      "scriptpubkey_type": "p2sh",
      "scriptpubkey_address": "3DTYnnQYarQCtxrjQ23TBY3zC9gxWTavw7",
      "value": 174954
    },
    {
      "scriptpubkey": "0014095380ecf767f45d20dffb33951b0e53ae3e95b5",
      "scriptpubkey_asm": "OP_0 OP_PUSHBYTES_20 095380ecf767f45d20dffb33951b0e53ae3e95b5",
      "scriptpubkey_type": "v0_p2wpkh",
      "scriptpubkey_address": "bc1qp9fcpm8hvl696gxllvee2xcw2whra9d48u3ngf",
      "value": 182191
    }
  ],
  "size": 223,
  "weight": 565,
  "fee": 3834,
  "status": {
    "confirmed": true,
    "block_height": 834552,
    "block_hash": "00000000000000000001dd0468a70c94f619251d286585cff57aeb4bd9ede330",
    "block_time": 1710355598
  },
  "hex": "01000000000101b51802b0ac2a187fd6ed6d46f66fc2a5735a5b732c7a625e478c1e521af82a230100000000ffffffff026aab02000000000017a914811573a5f690750a44379eefacee7a63d660d58a87afc7020000000000160014095380ecf767f45d20dffb33951b0e53ae3e95b50247304402202c5e1fb8aaac46425eabacffb73edfaf0b9fd0b8d8d53eda99bfdfb8d792d99902200c05fa509d8dad15a2bf271e3cde4a3b93453e3ba87cb14c0280f245775cc06e012103a8fe9f38d7ef13c5b2dfb8aba47f0dcdbb4cf46c80eef7dd325ca56aabaa96d500000000"
}