{
  "txid": "245c007e0de8e24d7cbc8c6ce3ddd0b5ac8cb97bbccb45b3409ce101e329b5e1",
  "version": 2,
  "locktime": 0,
  "vin": [
    {
      "txid": "bd0b9a6b77c80a21f6b2862bde084972eac85886328881eeeeb868f83a1fffd6",
      "vout": 1,
      "prevout": {
        "scriptpubkey": "00149c0a9f112688c85fcb4417b05c8dec775e4cab36",
        "scriptpubkey_asm": "OP_0 OP_PUSHBYTES_20 9c0a9f112688c85fcb4417b05c8dec775e4cab36",
        "scriptpubkey_type": "v0_p2wpkh",
        "scriptpubkey_address": "bc1qns9f7yfx3ry9lj6yz7c9er0vwa0ye2eklpzqfw",
        "value": 155120410
      },
      "scriptsig": "",
      "scriptsig_asm": "",
      "witness": [
        "304402204dd0a419b345edad4c063265b5338fb4781006b9504820b04a1e4b33bf8eb87f02200a064f1d2a5bb3912a6f6c387c64c01f939970a56caf056d3a7fbc0e1fc2a99d01",
        "02616129debb96ad4f83f00ad5ef5d16ffd7878e7f5dcfb1b193451680631635ee"
      ],
      "is_coinbase": false,
      "sequence": 4294967293
    }
  ],
  "vout": [
    {
      "scriptpubkey": "001413cb620150102e2086c2f74d4563cde766e51091",
      "scriptpubkey_asm": "OP_0 OP_PUSHBYTES_20 13cb620150102e2086c2f74d4563cde766e51091",
      "scriptpubkey_type": "v0_p2wpkh",
      "scriptpubkey_address": "bc1qz09kyq2szqhzppkz7ax52c7duanw2yy38f5f7w",
      "value": 437320
    },
    {
      "scriptpubkey": "00149c0a9f112688c85fcb4417b05c8dec775e4cab36",
      "scriptpubkey_asm": "OP_0 OP_PUSHBYTES_20 9c0a9f112688c85fcb4417b05c8dec775e4cab36",
      "scriptpubkey_type": "v0_p2wpkh",
      "scriptpubkey_address": "bc1qns9f7yfx3ry9lj6yz7c9er0vwa0ye2eklpzqfw",
      "value": 154680552
    }
  ],
  "size": 222,
  "weight": 561,
  "fee": 2538,
  "status": {
    "confirmed": true,
    "block_height": 834638,
    "block_hash": "000000000000000000025f742c626208ac87e0b7d15054abb4a19ca2d735a54e",
    "block_time": 1710405325
  },
  "hex": "02000000000101d6ff1f3af868b8eeee8188328658c8ea724908de2b86b2f6210ac8776b9a0bbd0100000000fdffffff0248ac06000000000016001413cb620150102e2086c2f74d4563cde766e51091e83c3809000000001600149c0a9f112688c85fcb4417b05c8dec775e4cab360247304402204dd0a419b345edad4c063265b5338fb4781006b9504820b04a1e4b33bf8eb87f02200a064f1d2a5bb3912a6f6c387c64c01f939970a56caf056d3a7fbc0e1fc2a99d012102616129debb96ad4f83f00ad5ef5d16ffd7878e7f5dcfb1b193451680631635ee00000000"
}