{
  "txid": "24712f29874d05505fe4c74320dd51cce66def98b76fb1963b26afc1945b4c82",
  "version": 1,
  "locktime": 0,
  "vin": [
    {
      "txid": "0d622a6cd705b5193ff906365f2c721a1359c22ac59d8cd97af7b3a1b304b957",
      "vout": 41,
      "prevout": {
        "scriptpubkey": "76a914d62c42d0603c07b1dc5d886b67434fdafef072e188ac",
        "scriptpubkey_asm": "OP_DUP OP_HASH160 OP_PUSHBYTES_20 d62c42d0603c07b1dc5d886b67434fdafef072e1 OP_EQUALVERIFY OP_CHECKSIG",
        "scriptpubkey_type": "p2pkh",
        "scriptpubkey_address": "1LXSdMqrvYoHCXFhE5DP7EzVZsN6f7Ciu4",
        "value": 16502756
      },
      "scriptsig": "473044022036d21400e9a87802b608d40b5b25f26dd050bcc24e21b257096b71a5b41b27ea0220201240634e3c81df8fd12b485aaf4551dbe5264c59be9389c22047c2b0f4114001210343166e914c86b819f32f2db7c3b7ff60d580b84c6231492054d1c23bf2998580",
      "scriptsig_asm": "OP_PUSHBYTES_71 3044022036d21400e9a87802b608d40b5b25f26dd050bcc24e21b257096b71a5b41b27ea0220201240634e3c81df8fd12b485aaf4551dbe5264c59be9389c22047c2b0f4114001 OP_PUSHBYTES_33 0343166e914c86b819f32f2db7c3b7ff60d580b84c6231492054d1c23bf2998580",
      "is_coinbase": false,
      "sequence": 4294967295
    }
  ],
  "vout": [
    {
      "scriptpubkey": "a914d030837bae5d906156a93d03d5e7b18bb3cd584e87",
      "scriptpubkey_asm": "OP_HASH160 OP_PUSHBYTES_20 d030837bae5d906156a93d03d5e7b18bb3cd584e OP_EQUAL",
      "scriptpubkey_type": "p2sh",
      "scriptpubkey_address": "3LfpbEELJdDsyYgxcwTaompGHLi6DrCgzz",
      "value": 6900000
    },
    {
      "scriptpubkey": "76a9145d7b31db7125a03c6a5f70fd599116ea515f617788ac",
      "scriptpubkey_asm": "OP_DUP OP_HASH160 OP_PUSHBYTES_20 5d7b31db7125a03c6a5f70fd599116ea515f6177 OP_EQUALVERIFY OP_CHECKSIG",
      "scriptpubkey_type": "p2pkh",
      "scriptpubkey_address": "19XHRZb3nTVpjNX4yqNpvzGkdAYRT3uA9d",
      "value": 9598236
    }
  ],
  "size": 223,
  "weight": 892,
  "fee": 4520,
  "status": {
    "confirmed": true,
    "block_height": 834638,
    "block_hash": "000000000000000000025f742c626208ac87e0b7d15054abb4a19ca2d735a54e",
    "block_time": 1710405325
  },
  "hex": "010000000157b904b3a1b3f77ad98c9dc52ac259131a722c5f3606f93f19b505d76c2a620d290000006a473044022036d21400e9a87802b608d40b5b25f26dd050bcc24e21b257096b71a5b41b27ea0220201240634e3c81df8fd12b485aaf4551dbe5264c59be9389c22047c2b0f4114001210343166e914c86b819f32f2db7c3b7ff60d580b84c6231492054d1c23bf2998580ffffffff02204969000000000017a914d030837bae5d906156a93d03d5e7b18bb3cd584e871c759200000000001976a9145d7b31db7125a03c6a5f70fd599116ea515f617788ac00000000"
}