{
  "txid": "24847f0be2a100bb01e22c91c94998d9ef2f4bd4aefb10f16b20b811b3581579",
  "version": 2,
  "locktime": 0,
  "vin": [
    {
      "txid": "20f86ab32e6b3dd049acd38e9c940e957a839edf19b9ed0fa5a3744bb8a1f0e3",
      "vout": 2,
      "prevout": {
        "scriptpubkey": "a9144666aedd6daa29104717b5422144b905969d1f7b87",
        "scriptpubkey_asm": "OP_HASH160 OP_PUSHBYTES_20 4666aedd6daa29104717b5422144b905969d1f7b OP_EQUAL",
        "scriptpubkey_type": "p2sh",
        "scriptpubkey_address": "387GEWuRqGdpvXyP5CkiVW7vSs9WE3mjV7",
        "value": 269196
      },
      "scriptsig": "1600143fc21b682bff3ef64ee099dfaa16adff97b2451a",
      "scriptsig_asm": "OP_PUSHBYTES_22 00143fc21b682bff3ef64ee099dfaa16adff97b2451a",
      "witness": [
        "3044022063dd6a423b5c798dfedb6a481f3769d94d5f7493a45cdd3bb931e3d16dee97f6022003c74d426bb80824e8fc9ad1a0cd07b32f769209c6216e7f08c711c06d89b77901",
        "030b906be1d07aced79a4a94bdbefd08e85790edbcf0fc16997db2990e1c8f260c"
      ],
      "is_coinbase": false,
      "sequence": 4294967293,
      "inner_redeemscript_asm": "OP_0 OP_PUSHBYTES_20 3fc21b682bff3ef64ee099dfaa16adff97b2451a"
    }
  ],
  "vout": [
    {
      "scriptpubkey": "a91407339dd434773cdb2eac386d918b3b9c9973c81c87",
      "scriptpubkey_asm": "OP_HASH160 OP_PUSHBYTES_20 07339dd434773cdb2eac386d918b3b9c9973c81c OP_EQUAL",
      "scriptpubkey_type": "p2sh",
      "scriptpubkey_address": "32M6VGLNn55gSRoH7W5W6v2pojHM4sBm7b",
      "value": 115740
    },
    {
      "scriptpubkey": "a9144666aedd6daa29104717b5422144b905969d1f7b87",
      "scriptpubkey_asm": "OP_HASH160 OP_PUSHBYTES_20 4666aedd6daa29104717b5422144b905969d1f7b OP_EQUAL",
      "scriptpubkey_type": "p2sh",
      "scriptpubkey_address": "387GEWuRqGdpvXyP5CkiVW7vSs9WE3mjV7",
      "value": 150800
    }
  ],
  "size": 247,
  "weight": 661,
  "fee": 2656,
  "status": {
    "confirmed": true,
    "block_height": 834638,
    "block_hash": "000000000000000000025f742c626208ac87e0b7d15054abb4a19ca2d735a54e",
    "block_time": 1710405325
  },
  "hex": "02000000000101e3f0a1b84b74a3a50fedb919df9e837a950e949c8ed3ac49d03d6b2eb36af82002000000171600143fc21b682bff3ef64ee099dfaa16adff97b2451afdffffff021cc401000000000017a91407339dd434773cdb2eac386d918b3b9c9973c81c87104d02000000000017a9144666aedd6daa29104717b5422144b905969d1f7b8702473044022063dd6a423b5c798dfedb6a481f3769d94d5f7493a45cdd3bb931e3d16dee97f6022003c74d426bb80824e8fc9ad1a0cd07b32f769209c6216e7f08c711c06d89b7790121030b906be1d07aced79a4a94bdbefd08e85790edbcf0fc16997db2990e1c8f260c00000000"
}