{
  "txid": "249cc5a1c6053da8586dc854dd4d9adde1b0a7186991022bff7fd1867dfde4ec",
  "version": 2,
  "locktime": 0,
  "vin": [
    {
      "txid": "be2cf71b688892cdde393179858479e2cb227f5f04f6061880ed3edea1439d79",
      "vout": 187,
      "prevout": {
        "scriptpubkey": "00145dbf6c70eb8abf23bd1c8ef36b684c9ddbb61358",
        "scriptpubkey_asm": "OP_0 OP_PUSHBYTES_20 5dbf6c70eb8abf23bd1c8ef36b684c9ddbb61358",
        "scriptpubkey_type": "v0_p2wpkh",
        "scriptpubkey_address": "bc1qtklkcu8t32lj80gu3mekk6zvnhdmvy6cfrsnam",
        "value": 28398
      },
      "scriptsig": "",
      "scriptsig_asm": "",
      "witness": [
        "304402205bccf3200d2114df2b2662d59ee3c8e19b880086261c3ce0912b55a919071a8202207052b614f69ee820f5b03dff6aceafa27c59b5742ce62e33c60aadcdc172a92f01",
        "03a69906a636f26a243e1b1bc2e3838d59fb5f579a829c17d13a42a3fe778bf227"
      ],
      "is_coinbase": false,
      "sequence": 4294967293
    }
  ],
  "vout": [
    {
      "scriptpubkey": "76a914d39224358d22ae6fbe3aeb7bd4f30abf1c9639cb88ac",
      "scriptpubkey_asm": "OP_DUP OP_HASH160 OP_PUSHBYTES_20 d39224358d22ae6fbe3aeb7bd4f30abf1c9639cb OP_EQUALVERIFY OP_CHECKSIG",
      "scriptpubkey_type": "p2pkh",
      "scriptpubkey_address": "1LHgeZaKtNKKdE9WaZKcD6f9ps3fKALXEp",
      "value": 24895
    }
  ],
  "size": 194,
  "weight": 449,
  "fee": 3503,
  "status": {
    "confirmed": true,
    "block_height": 834638,
    "block_hash": "000000000000000000025f742c626208ac87e0b7d15054abb4a19ca2d735a54e",
    "block_time": 1710405325
  },
  "hex": "02000000000101799d43a1de3eed801806f6045f7f22cbe2798485793139decd9288681bf72cbebb00000000fdffffff013f610000000000001976a914d39224358d22ae6fbe3aeb7bd4f30abf1c9639cb88ac0247304402205bccf3200d2114df2b2662d59ee3c8e19b880086261c3ce0912b55a919071a8202207052b614f69ee820f5b03dff6aceafa27c59b5742ce62e33c60aadcdc172a92f012103a69906a636f26a243e1b1bc2e3838d59fb5f579a829c17d13a42a3fe778bf22700000000"
}