{
  "txid": "24a5c4e494dab9094973184060483c1a2b85d1ce1b9a82a626eac5c34b121d8f",
  "version": 2,
  "locktime": 834637,
  "vin": [
    {
      "txid": "77e477cf40815aa6d334b328345907b88bbc6630dde94c289c26103f19db7c46",
      "vout": 1,
      "prevout": {
        "scriptpubkey": "0020de9d7682692004341d9b53eda9d9c2ebd5884a87e10788edd539771b3f03331c",
        "scriptpubkey_asm": "OP_0 OP_PUSHBYTES_32 de9d7682692004341d9b53eda9d9c2ebd5884a87e10788edd539771b3f03331c",
        "scriptpubkey_type": "v0_p2wsh",
        "scriptpubkey_address": "bc1qm6whdqnfyqzrg8vm20k6nkwza02csj58uyrc3mw489m3k0crxvwqfnj64a",
        "value": 2449141300
      },
      "scriptsig": "",
      "scriptsig_asm": "",
      "witness": [
        "",
        "304402207b5db13ce5bb07564f5b14fcea50673f419b6b3e86691210f267eef793d011b0022060b2e7d99077ff8d629516acb4734c332f350ebd70be6c8c27e580951f904b8e01",
        "304402207b315731337833a32cf83347c897bb25f6242ac3c83156f32f098a7f8867637f022038e8c934593423131ffa4579ec4181cb5325ca815bc3cb2812cdaf2d24c378c401",
        "5221020c4ad48bc7c29224534cca2e794b03bc8affcb1cda659fedb96e91a1f6cff9af210331a2ef028214af114e1c1239aa3f7143eaf909d19cf64938864e9ae2e8e2aa2d2103e9eae09530b71e9193049df6a09a9ca6af13c24384a0159deaae0ebc48ed8f8953ae"
      ],
      "is_coinbase": false,
      "sequence": 4294967293,
      "inner_witnessscript_asm": "OP_PUSHNUM_2 OP_PUSHBYTES_33 020c4ad48bc7c29224534cca2e794b03bc8affcb1cda659fedb96e91a1f6cff9af OP_PUSHBYTES_33 0331a2ef028214af114e1c1239aa3f7143eaf909d19cf64938864e9ae2e8e2aa2d OP_PUSHBYTES_33 03e9eae09530b71e9193049df6a09a9ca6af13c24384a0159deaae0ebc48ed8f89 OP_PUSHNUM_3 OP_CHECKMULTISIG"
    },
    {
      "txid": "e4fc61618fd31d4803ea2c3c1de15ca006bf7db0de4fc9c74dc712e151be2e40",
      "vout": 107,
      "prevout": {
        "scriptpubkey": "0020de9d7682692004341d9b53eda9d9c2ebd5884a87e10788edd539771b3f03331c",
        "scriptpubkey_asm": "OP_0 OP_PUSHBYTES_32 de9d7682692004341d9b53eda9d9c2ebd5884a87e10788edd539771b3f03331c",
        "scriptpubkey_type": "v0_p2wsh",
        "scriptpubkey_address": "bc1qm6whdqnfyqzrg8vm20k6nkwza02csj58uyrc3mw489m3k0crxvwqfnj64a",
        "value": 2232594931
      },
      "scriptsig": "",
      "scriptsig_asm": "",
      "witness": [
        "",
        "3044022017153d3e531cecf49c3a3406f9ab3f9ad2eb8489a55e2a908203e0ebd1d43d7802206f4b7138606f658304433076725146019db9f96d5af1adf62c2b0413bd88631901",
        "30440220027f2144168c2730b88d5f3bb8c73c13ede30d9490a7a049332d923b45b9574a022068c78d5b7667f06c5861b7f464b9e8ec27e3cd05aa86fec7c396a5e222cb8ea201",
        "5221020c4ad48bc7c29224534cca2e794b03bc8affcb1cda659fedb96e91a1f6cff9af210331a2ef028214af114e1c1239aa3f7143eaf909d19cf64938864e9ae2e8e2aa2d2103e9eae09530b71e9193049df6a09a9ca6af13c24384a0159deaae0ebc48ed8f8953ae"
      ],
      "is_coinbase": false,
      "sequence": 4294967293,
      "inner_witnessscript_asm": "OP_PUSHNUM_2 OP_PUSHBYTES_33 020c4ad48bc7c29224534cca2e794b03bc8affcb1cda659fedb96e91a1f6cff9af OP_PUSHBYTES_33 0331a2ef028214af114e1c1239aa3f7143eaf909d19cf64938864e9ae2e8e2aa2d OP_PUSHBYTES_33 03e9eae09530b71e9193049df6a09a9ca6af13c24384a0159deaae0ebc48ed8f89 OP_PUSHNUM_3 OP_CHECKMULTISIG"
    }
  ],
  "vout": [
    {
      "scriptpubkey": "002027c82441a95f03c9ad9b245c81d55b92f8ea7c249c5a952ab0504e4b7d28e84f",
      "scriptpubkey_asm": "OP_0 OP_PUSHBYTES_32 27c82441a95f03c9ad9b245c81d55b92f8ea7c249c5a952ab0504e4b7d28e84f",
      "scriptpubkey_type": "v0_p2wsh",
      "scriptpubkey_address": "bc1qylyzgsdftupuntvmy3wgr42mjtuw5lpyn3df224s2p8yklfgap8sy5uar3",
      "value": 200000000
    },
    {
      "scriptpubkey": "0020de9d7682692004341d9b53eda9d9c2ebd5884a87e10788edd539771b3f03331c",
      "scriptpubkey_asm": "OP_0 OP_PUSHBYTES_32 de9d7682692004341d9b53eda9d9c2ebd5884a87e10788edd539771b3f03331c",
      "scriptpubkey_type": "v0_p2wsh",
      "scriptpubkey_address": "bc1qm6whdqnfyqzrg8vm20k6nkwza02csj58uyrc3mw489m3k0crxvwqfnj64a",
      "value": 4481730100
    }
  ],
  "size": 684,
  "weight": 1218,
  "fee": 6131,
  "status": {
    "confirmed": true,
    "block_height": 834638,
    "block_hash": "000000000000000000025f742c626208ac87e0b7d15054abb4a19ca2d735a54e",
    "block_time": 1710405325
  },
  "hex": "02000000000102467cdb193f10269c284ce9dd3066bc8bb807593428b334d3a65a8140cf77e4770100000000fdffffff402ebe51e112c74dc7c94fdeb07dbf06a05ce11d3c2cea03481dd38f6161fce46b00000000fdffffff0200c2eb0b0000000022002027c82441a95f03c9ad9b245c81d55b92f8ea7c249c5a952ab0504e4b7d28e84f34c6210b01000000220020de9d7682692004341d9b53eda9d9c2ebd5884a87e10788edd539771b3f03331c040047304402207b5db13ce5bb07564f5b14fcea50673f419b6b3e86691210f267eef793d011b0022060b2e7d99077ff8d629516acb4734c332f350ebd70be6c8c27e580951f904b8e0147304402207b315731337833a32cf83347c897bb25f6242ac3c83156f32f098a7f8867637f022038e8c934593423131ffa4579ec4181cb5325ca815bc3cb2812cdaf2d24c378c401695221020c4ad48bc7c29224534cca2e794b03bc8affcb1cda659fedb96e91a1f6cff9af210331a2ef028214af114e1c1239aa3f7143eaf909d19cf64938864e9ae2e8e2aa2d2103e9eae09530b71e9193049df6a09a9ca6af13c24384a0159deaae0ebc48ed8f8953ae0400473044022017153d3e531cecf49c3a3406f9ab3f9ad2eb8489a55e2a908203e0ebd1d43d7802206f4b7138606f658304433076725146019db9f96d5af1adf62c2b0413bd886319014730440220027f2144168c2730b88d5f3bb8c73c13ede30d9490a7a049332d923b45b9574a022068c78d5b7667f06c5861b7f464b9e8ec27e3cd05aa86fec7c396a5e222cb8ea201695221020c4ad48bc7c29224534cca2e794b03bc8affcb1cda659fedb96e91a1f6cff9af210331a2ef028214af114e1c1239aa3f7143eaf909d19cf64938864e9ae2e8e2aa2d2103e9eae09530b71e9193049df6a09a9ca6af13c24384a0159deaae0ebc48ed8f8953ae4dbc0c00"
}