{
  "txid": "24b90706f20a1d3a61603284d214f67673d3a37f24669478568e6adf71050f1a",
  "version": 2,
  "locktime": 0,
  "vin": [
    {
      "txid": "09284a74446b1aa50c6e7c19e9db4ccf7165bbdcafbd32aa6d61d1136c33fdaf",
      "vout": 1,
      "prevout": {
        "scriptpubkey": "512044b040d651a6cbd27d168b8ef04ec9f142dc3c08eb31c13204cfb963c507ecf5",
        "scriptpubkey_asm": "OP_PUSHNUM_1 OP_PUSHBYTES_32 44b040d651a6cbd27d168b8ef04ec9f142dc3c08eb31c13204cfb963c507ecf5",
        "scriptpubkey_type": "v1_p2tr",
        "scriptpubkey_address": "bc1pgjcyp4j35m9aylgk3w80qnkf79pdc0qgavcuzvsye7uk83g8an6s5wc550",
        "value": 318570
      },
      "scriptsig": "",
      "scriptsig_asm": "",
      "witness": [
        "95ff4950eb6624731ec12721ebba068a2dd193f7db6e5a5d892f41688138d209439ed7d5983fa11858ac69b1a95cc10c1423677efdffb2bf56ccdc2ef608bab1"
      ],
      "is_coinbase": false,
      "sequence": 2147483649
    },
    {
      "txid": "9e66b3679d4a0157068c1d118053943c28ad1060b862f01dcd393cc170264f6f",
      "vout": 6,
      "prevout": {
        "scriptpubkey": "512044b040d651a6cbd27d168b8ef04ec9f142dc3c08eb31c13204cfb963c507ecf5",
        "scriptpubkey_asm": "OP_PUSHNUM_1 OP_PUSHBYTES_32 44b040d651a6cbd27d168b8ef04ec9f142dc3c08eb31c13204cfb963c507ecf5",
        "scriptpubkey_type": "v1_p2tr",
        "scriptpubkey_address": "bc1pgjcyp4j35m9aylgk3w80qnkf79pdc0qgavcuzvsye7uk83g8an6s5wc550",
        "value": 274259
      },
      "scriptsig": "",
      "scriptsig_asm": "",
      "witness": [
        "9e830971869f88f8a9ae3ca4b4947a669ec241e7895cdf093a9b4ea713bd24801697ec5396b154d3cbf0011c7d62a92735d4b4dc7299499207727ecacae1741a"
      ],
      "is_coinbase": false,
      "sequence": 2147483649
    },
    {
      "txid": "f892315204f8ac3d474c0c7a68f35521cd8223cd3cddb2e9f84b3f79a008572c",
      "vout": 2,
      "prevout": {
        "scriptpubkey": "512044b040d651a6cbd27d168b8ef04ec9f142dc3c08eb31c13204cfb963c507ecf5",
        "scriptpubkey_asm": "OP_PUSHNUM_1 OP_PUSHBYTES_32 44b040d651a6cbd27d168b8ef04ec9f142dc3c08eb31c13204cfb963c507ecf5",
        "scriptpubkey_type": "v1_p2tr",
        "scriptpubkey_address": "bc1pgjcyp4j35m9aylgk3w80qnkf79pdc0qgavcuzvsye7uk83g8an6s5wc550",
        "value": 105698
      },
      "scriptsig": "",
      "scriptsig_asm": "",
      "witness": [
        "e058da8bb0a43466a51c3827ae2a7b0b1b8be5b86f7660a8d9a4a28f2b215439e246ab8ca650fcb7d5b85ab524e74432bff6dc27a6e9f14855cc7338811a066b"
      ],
      "is_coinbase": false,
      "sequence": 2147483649
    },
    {
      "txid": "7c5dd6b37bd7b16452280f222a264abaef4483ccaf6bd2932bf46150f05a3161",
      "vout": 4,
      "prevout": {
        "scriptpubkey": "512044b040d651a6cbd27d168b8ef04ec9f142dc3c08eb31c13204cfb963c507ecf5",
        "scriptpubkey_asm": "OP_PUSHNUM_1 OP_PUSHBYTES_32 44b040d651a6cbd27d168b8ef04ec9f142dc3c08eb31c13204cfb963c507ecf5",
        "scriptpubkey_type": "v1_p2tr",
        "scriptpubkey_address": "bc1pgjcyp4j35m9aylgk3w80qnkf79pdc0qgavcuzvsye7uk83g8an6s5wc550",
        "value": 75000
      },
      "scriptsig": "",
      "scriptsig_asm": "",
      "witness": [
        "997acbcd3cb01dd62df90daa69590c680ea7f150feb6b870c956936dc87dbc41f692504fcba664d761e5a0c8f098c2d1f49b41f83d084f230b09d7d85db7a23b"
      ],
      "is_coinbase": false,
      "sequence": 2147483649
    },
    {
      "txid": "7c5dd6b37bd7b16452280f222a264abaef4483ccaf6bd2932bf46150f05a3161",
      "vout": 5,
      "prevout": {
        "scriptpubkey": "512044b040d651a6cbd27d168b8ef04ec9f142dc3c08eb31c13204cfb963c507ecf5",
        "scriptpubkey_asm": "OP_PUSHNUM_1 OP_PUSHBYTES_32 44b040d651a6cbd27d168b8ef04ec9f142dc3c08eb31c13204cfb963c507ecf5",
        "scriptpubkey_type": "v1_p2tr",
        "scriptpubkey_address": "bc1pgjcyp4j35m9aylgk3w80qnkf79pdc0qgavcuzvsye7uk83g8an6s5wc550",
        "value": 75000
      },
      "scriptsig": "",
      "scriptsig_asm": "",
      "witness": [
        "09b258fa7073c6bd93f1f1e9c30b1c33ddaed782757ee7855fb8fb2f20264aa62bbda4fb75b3bfb82ce83944fc1d7ff42d2df9c34f927dd988672935e0948b4c"
      ],
      "is_coinbase": false,
      "sequence": 2147483649
    },
    {
      "txid": "3323fadda4949f3222d3764f77d95b093ce8e7a1f09726e601625d419ca8fad7",
      "vout": 5,
      "prevout": {
        "scriptpubkey": "512044b040d651a6cbd27d168b8ef04ec9f142dc3c08eb31c13204cfb963c507ecf5",
        "scriptpubkey_asm": "OP_PUSHNUM_1 OP_PUSHBYTES_32 44b040d651a6cbd27d168b8ef04ec9f142dc3c08eb31c13204cfb963c507ecf5",
        "scriptpubkey_type": "v1_p2tr",
        "scriptpubkey_address": "bc1pgjcyp4j35m9aylgk3w80qnkf79pdc0qgavcuzvsye7uk83g8an6s5wc550",
        "value": 75000
      },
      "scriptsig": "",
      "scriptsig_asm": "",
      "witness": [
        "3bd324768dea96a49f72fc7183216fcdcf1f3c2886ad5e9224797de97ffb601ee78e78db0fc9323db328ae0efa0d8a75d7a1693affdff38b2e48a1bf58e5fab4"
      ],
      "is_coinbase": false,
      "sequence": 2147483649
    },
    {
      "txid": "3323fadda4949f3222d3764f77d95b093ce8e7a1f09726e601625d419ca8fad7",
      "vout": 4,
      "prevout": {
        "scriptpubkey": "512044b040d651a6cbd27d168b8ef04ec9f142dc3c08eb31c13204cfb963c507ecf5",
        "scriptpubkey_asm": "OP_PUSHNUM_1 OP_PUSHBYTES_32 44b040d651a6cbd27d168b8ef04ec9f142dc3c08eb31c13204cfb963c507ecf5",
        "scriptpubkey_type": "v1_p2tr",
        "scriptpubkey_address": "bc1pgjcyp4j35m9aylgk3w80qnkf79pdc0qgavcuzvsye7uk83g8an6s5wc550",
        "value": 75000
      },
      "scriptsig": "",
      "scriptsig_asm": "",
      "witness": [
        "ee36a635005cc4e762c5fcef4ad18ee92f0755d4f281462fa640099484d561129dcb2173545795252fca06a5c69e0b93105795e176d2c0ad36679aa9b695e3d9"
      ],
      "is_coinbase": false,
      "sequence": 2147483649
    },
    {
      "txid": "7c5dd6b37bd7b16452280f222a264abaef4483ccaf6bd2932bf46150f05a3161",
      "vout": 6,
      "prevout": {
        "scriptpubkey": "512044b040d651a6cbd27d168b8ef04ec9f142dc3c08eb31c13204cfb963c507ecf5",
        "scriptpubkey_asm": "OP_PUSHNUM_1 OP_PUSHBYTES_32 44b040d651a6cbd27d168b8ef04ec9f142dc3c08eb31c13204cfb963c507ecf5",
        "scriptpubkey_type": "v1_p2tr",
        "scriptpubkey_address": "bc1pgjcyp4j35m9aylgk3w80qnkf79pdc0qgavcuzvsye7uk83g8an6s5wc550",
        "value": 75000
      },
      "scriptsig": "",
      "scriptsig_asm": "",
      "witness": [
        "a22e9784eacd36b36f767b6adc42c59172b123f011151dc86035563116ef0d03deca420c3187a3411b67b957b88dc18e99aa062688d7ace5402e8612a5225e3c"
      ],
      "is_coinbase": false,
      "sequence": 2147483649
    },
    {
      "txid": "93980cf74295dc44c785201b5a529e2032f3be039a37f00dc9a37b3d664cb3f0",
      "vout": 6,
      "prevout": {
        "scriptpubkey": "512044b040d651a6cbd27d168b8ef04ec9f142dc3c08eb31c13204cfb963c507ecf5",
        "scriptpubkey_asm": "OP_PUSHNUM_1 OP_PUSHBYTES_32 44b040d651a6cbd27d168b8ef04ec9f142dc3c08eb31c13204cfb963c507ecf5",
        "scriptpubkey_type": "v1_p2tr",
        "scriptpubkey_address": "bc1pgjcyp4j35m9aylgk3w80qnkf79pdc0qgavcuzvsye7uk83g8an6s5wc550",
        "value": 75000
      },
      "scriptsig": "",
      "scriptsig_asm": "",
      "witness": [
        "ef21e8b130bdc721162aa60a703c3a4fd10928f065c1d11d02581ffdff1a633a8274827cf185b96dbe14135270c5e74bb181d280a55e6ad1ddcd9c015e973ca7"
      ],
      "is_coinbase": false,
      "sequence": 2147483649
    }
  ],
  "vout": [
    {
      "scriptpubkey": "5120215388af514f8510c37c3d7d9b8773a7526981a13c1c5e0dff084d4feaac12a6",
      "scriptpubkey_asm": "OP_PUSHNUM_1 OP_PUSHBYTES_32 215388af514f8510c37c3d7d9b8773a7526981a13c1c5e0dff084d4feaac12a6",
      "scriptpubkey_type": "v1_p2tr",
      "scriptpubkey_address": "bc1py9fc3t63f7z3psmu847ehpmn5afxnqdp8sw9ur0lppx5l64vz2nqf309nx",
      "value": 1088177
    },
    {
      "scriptpubkey": "512044b040d651a6cbd27d168b8ef04ec9f142dc3c08eb31c13204cfb963c507ecf5",
      "scriptpubkey_asm": "OP_PUSHNUM_1 OP_PUSHBYTES_32 44b040d651a6cbd27d168b8ef04ec9f142dc3c08eb31c13204cfb963c507ecf5",
      "scriptpubkey_type": "v1_p2tr",
      "scriptpubkey_address": "bc1pgjcyp4j35m9aylgk3w80qnkf79pdc0qgavcuzvsye7uk83g8an6s5wc550",
      "value": 49912
    }
  ],
  "size": 1061,
  "weight": 2456,
  "fee": 10438,
  "status": {
    "confirmed": true,
    "block_height": 834638,
    "block_hash": "000000000000000000025f742c626208ac87e0b7d15054abb4a19ca2d735a54e",
    "block_time": 1710405325
  },
  "hex": "02000000000109affd336c13d1616daa32bdafdcbb6571cf4cdbe9197c6e0ca51a6b44744a28090100000000010000806f4f2670c13c39cd1df062b86010ad283c945380111d8c0657014a9d67b3669e0600000000010000802c5708a0793f4bf8e9b2dd3ccd2382cd2155f3687a0c4c473dacf804523192f802000000000100008061315af05061f42b93d26bafcc8344efba4a262a220f285264b1d77bb3d65d7c04000000000100008061315af05061f42b93d26bafcc8344efba4a262a220f285264b1d77bb3d65d7c050000000001000080d7faa89c415d6201e62697f0a1e7e83c095bd9774f76d322329f94a4ddfa2333050000000001000080d7faa89c415d6201e62697f0a1e7e83c095bd9774f76d322329f94a4ddfa233304000000000100008061315af05061f42b93d26bafcc8344efba4a262a220f285264b1d77bb3d65d7c060000000001000080f0b34c663d7ba3c90df0379a03bef332209e525a1b2085c744dc9542f70c989306000000000100008002b19a100000000000225120215388af514f8510c37c3d7d9b8773a7526981a13c1c5e0dff084d4feaac12a6f8c200000000000022512044b040d651a6cbd27d168b8ef04ec9f142dc3c08eb31c13204cfb963c507ecf5014095ff4950eb6624731ec12721ebba068a2dd193f7db6e5a5d892f41688138d209439ed7d5983fa11858ac69b1a95cc10c1423677efdffb2bf56ccdc2ef608bab101409e830971869f88f8a9ae3ca4b4947a669ec241e7895cdf093a9b4ea713bd24801697ec5396b154d3cbf0011c7d62a92735d4b4dc7299499207727ecacae1741a0140e058da8bb0a43466a51c3827ae2a7b0b1b8be5b86f7660a8d9a4a28f2b215439e246ab8ca650fcb7d5b85ab524e74432bff6dc27a6e9f14855cc7338811a066b0140997acbcd3cb01dd62df90daa69590c680ea7f150feb6b870c956936dc87dbc41f692504fcba664d761e5a0c8f098c2d1f49b41f83d084f230b09d7d85db7a23b014009b258fa7073c6bd93f1f1e9c30b1c33ddaed782757ee7855fb8fb2f20264aa62bbda4fb75b3bfb82ce83944fc1d7ff42d2df9c34f927dd988672935e0948b4c01403bd324768dea96a49f72fc7183216fcdcf1f3c2886ad5e9224797de97ffb601ee78e78db0fc9323db328ae0efa0d8a75d7a1693affdff38b2e48a1bf58e5fab40140ee36a635005cc4e762c5fcef4ad18ee92f0755d4f281462fa640099484d561129dcb2173545795252fca06a5c69e0b93105795e176d2c0ad36679aa9b695e3d90140a22e9784eacd36b36f767b6adc42c59172b123f011151dc86035563116ef0d03deca420c3187a3411b67b957b88dc18e99aa062688d7ace5402e8612a5225e3c0140ef21e8b130bdc721162aa60a703c3a4fd10928f065c1d11d02581ffdff1a633a8274827cf185b96dbe14135270c5e74bb181d280a55e6ad1ddcd9c015e973ca700000000"
}