{
  "txid": "24dd36b911f4f44654ff6db007316ff4e5afa2b6e060ea81e125fc12a217cb03",
  "version": 1,
  "locktime": 0,
  "vin": [
    {
      "txid": "a14b68d8c6ef9731b2347649187dda40ae44ba21aaa4bdf133003e62b1f2e072",
      "vout": 0,
      "prevout": {
        "scriptpubkey": "00206547cd2a370916286a5c5fc941c7aea72bae0d1e8d03bc6429b5d4cc4696f377",
        "scriptpubkey_asm": "OP_0 OP_PUSHBYTES_32 6547cd2a370916286a5c5fc941c7aea72bae0d1e8d03bc6429b5d4cc4696f377",
        "scriptpubkey_type": "v0_p2wsh",
        "scriptpubkey_address": "bc1qv4ru623hpytzs6jutly5r3aw5u46urg735pmcepfkh2vc35k7dmsqauxf9",
        "value": 7290
      },
      "scriptsig": "",
      "scriptsig_asm": "",
      "witness": [
        "7ec2869bcf18e35ce809ab461d1da06bb0f46345e8a3a97586cceb74ddfbc8e0",
        "30450221008cfbd2a63a7143752d8fd0e26ad86fa3f585a053480cdcddd18c3ee50a6aeb2402201eca98d79329907600898cca2a15f291ed619cc0d9fc0b38dc5e400dd97b269e01",
        "304402203911c4040cc7afd53c8927b5d47eaaad3681fe5fc69886ecadfb946f2135821102203d6c2d75ae768054c0631797f8ac8e8a6d4d401f9f91817f674159f03915c4c201",
        "2102546226029515b87c35e01cb6e2770d22ac37089783aa946d9f19f7c8fdc6156cac6476a914ec9aa6be9e8e1df4d1686bb08e2a591ce35db8be88ad03dbbb0cb1672102209630850118e55b96c3476b6731d97adb6b009d92c9cdf83c263f5f7a186c86ad82012088a9143b6fa743a774bf64619cdf5c24e5be0f46d693fb8768"
      ],
      "is_coinbase": false,
      "sequence": 4294967295,
      "inner_witnessscript_asm": "OP_PUSHBYTES_33 02546226029515b87c35e01cb6e2770d22ac37089783aa946d9f19f7c8fdc6156c OP_CHECKSIG OP_NOTIF OP_DUP OP_HASH160 OP_PUSHBYTES_20 ec9aa6be9e8e1df4d1686bb08e2a591ce35db8be OP_EQUALVERIFY OP_CHECKSIGVERIFY OP_PUSHBYTES_3 dbbb0c OP_CLTV OP_ELSE OP_PUSHBYTES_33 02209630850118e55b96c3476b6731d97adb6b009d92c9cdf83c263f5f7a186c86 OP_CHECKSIGVERIFY OP_SIZE OP_PUSHBYTES_1 20 OP_EQUALVERIFY OP_HASH160 OP_PUSHBYTES_20 3b6fa743a774bf64619cdf5c24e5be0f46d693fb OP_EQUAL OP_ENDIF"
    }
  ],
  "vout": [
    {
      "scriptpubkey": "5120b32817099ad6e87634f0b01b06da6f4864194325f541a862bf68a964b5801e15",
      "scriptpubkey_asm": "OP_PUSHNUM_1 OP_PUSHBYTES_32 b32817099ad6e87634f0b01b06da6f4864194325f541a862bf68a964b5801e15",
      "scriptpubkey_type": "v1_p2tr",
      "scriptpubkey_address": "bc1pkv5pwzv66m58vd8skqdsdkn0fpjpjse974q6sc4ldz5kfdvqrc2s0hgsh4",
      "value": 5000
    }
  ],
  "size": 406,
  "weight": 688,
  "fee": 2290,
  "status": {
    "confirmed": true,
    "block_height": 834460,
    "block_hash": "00000000000000000000484a79b643b2524bbce82e5d8a442013fa5b8905ed98",
    "block_time": 1710307468
  },
  "hex": "0100000000010172e0f2b1623e0033f1bda4aa21ba44ae40da7d18497634b23197efc6d8684ba10000000000ffffffff018813000000000000225120b32817099ad6e87634f0b01b06da6f4864194325f541a862bf68a964b5801e1504207ec2869bcf18e35ce809ab461d1da06bb0f46345e8a3a97586cceb74ddfbc8e04830450221008cfbd2a63a7143752d8fd0e26ad86fa3f585a053480cdcddd18c3ee50a6aeb2402201eca98d79329907600898cca2a15f291ed619cc0d9fc0b38dc5e400dd97b269e0147304402203911c4040cc7afd53c8927b5d47eaaad3681fe5fc69886ecadfb946f2135821102203d6c2d75ae768054c0631797f8ac8e8a6d4d401f9f91817f674159f03915c4c201822102546226029515b87c35e01cb6e2770d22ac37089783aa946d9f19f7c8fdc6156cac6476a914ec9aa6be9e8e1df4d1686bb08e2a591ce35db8be88ad03dbbb0cb1672102209630850118e55b96c3476b6731d97adb6b009d92c9cdf83c263f5f7a186c86ad82012088a9143b6fa743a774bf64619cdf5c24e5be0f46d693fb876800000000"
}