{
  "txid": "24e3949aaf10e4155e3cb7be1f4eac2db9dea04e31cf904c99737fd5322dd0da",
  "version": 1,
  "locktime": 0,
  "vin": [
    {
      "txid": "99e2df00bb294c7876538d2f5b90d1f140ba083df2f05ce54009c8eb0a1a60b2",
      "vout": 1,
      "prevout": {
        "scriptpubkey": "00143875773a53d315db576103ba439362659067d21c",
        "scriptpubkey_asm": "OP_0 OP_PUSHBYTES_20 3875773a53d315db576103ba439362659067d21c",
        "scriptpubkey_type": "v0_p2wpkh",
        "scriptpubkey_address": "bc1q8p6hwwjn6v2ak4mpqway8ymzvkgx05suqu84dj",
        "value": 5259336
      },
      "scriptsig": "",
      "scriptsig_asm": "",
      "witness": [
        "30440220088b82de3d5c3cad7b3c3ef92eab9b14abfdc70ccd1f87b1d69a89e5da5fd78b02206b3a469b4c9a9f1335401c8adf20ce3537004cf6e8acb70ba501d8c908c714c101",
        "026f4afa3627502f396fac280541a8c86fc5c932aa911cef675edd609601bccb87"
      ],
      "is_coinbase": false,
      "sequence": 4294967295
    }
  ],
  "vout": [
    {
      "scriptpubkey": "76a914888b95fd8624ca2f5e7a84858e8e16a56808ab0c88ac",
      "scriptpubkey_asm": "OP_DUP OP_HASH160 OP_PUSHBYTES_20 888b95fd8624ca2f5e7a84858e8e16a56808ab0c OP_EQUALVERIFY OP_CHECKSIG",
      "scriptpubkey_type": "p2pkh",
      "scriptpubkey_address": "1DSz7gs1562uqnHUiaDUD6W28fQdFdkvgZ",
      "value": 413940
    },
    {
      "scriptpubkey": "00143875773a53d315db576103ba439362659067d21c",
      "scriptpubkey_asm": "OP_0 OP_PUSHBYTES_20 3875773a53d315db576103ba439362659067d21c",
      "scriptpubkey_type": "v0_p2wpkh",
      "scriptpubkey_address": "bc1q8p6hwwjn6v2ak4mpqway8ymzvkgx05suqu84dj",
      "value": 4842458
    }
  ],
  "size": 225,
  "weight": 573,
  "fee": 2938,
  "status": {
    "confirmed": true,
    "block_height": 834638,
    "block_hash": "000000000000000000025f742c626208ac87e0b7d15054abb4a19ca2d735a54e",
    "block_time": 1710405325
  },
  "hex": "01000000000101b2601a0aebc80940e55cf0f23d08ba40f1d1905b2f8d5376784c29bb00dfe2990100000000ffffffff02f4500600000000001976a914888b95fd8624ca2f5e7a84858e8e16a56808ab0c88acdae34900000000001600143875773a53d315db576103ba439362659067d21c024730440220088b82de3d5c3cad7b3c3ef92eab9b14abfdc70ccd1f87b1d69a89e5da5fd78b02206b3a469b4c9a9f1335401c8adf20ce3537004cf6e8acb70ba501d8c908c714c10121026f4afa3627502f396fac280541a8c86fc5c932aa911cef675edd609601bccb8700000000"
}