{
  "txid": "24e61a82c563e3517a442af6137fe0f7ae6b88b1d6b09f53af9520bd2159cf1d",
  "version": 2,
  "locktime": 0,
  "vin": [
    {
      "txid": "35d8c692025cb7b15cb20ee04c9b7e7a494f130a310ded8186090d78e29bd836",
      "vout": 1,
      "prevout": {
        "scriptpubkey": "5120d826ab2636fc8fbdecaf2d73e51ed5dcc9e9e9c452a5604cd40d44ab61a2342d",
        "scriptpubkey_asm": "OP_PUSHNUM_1 OP_PUSHBYTES_32 d826ab2636fc8fbdecaf2d73e51ed5dcc9e9e9c452a5604cd40d44ab61a2342d",
        "scriptpubkey_type": "v1_p2tr",
        "scriptpubkey_address": "bc1pmqn2kf3klj8mmm9094e728k4mny7n6wy22jkqnx5p4z2kcdzxsksslj3mr",
        "value": 59037
      },
      "scriptsig": "",
      "scriptsig_asm": "",
      "witness": [
        "d4d9907090e7098a5be01275d74891d3d0de8d7e4c39ed8ee9cda4598f4a3307da475f8d66bd52a49bbf356f45b6d2124933e8bfd1fa5aa6d7199a8afabfe36b"
      ],
      "is_coinbase": false,
      "sequence": 4294967293
    }
  ],
  "vout": [
    {
      "scriptpubkey": "51204d03f3d308bedbd95261cf70d764b34a1d7af59dd777b66d65e69706a46dc13a",
      "scriptpubkey_asm": "OP_PUSHNUM_1 OP_PUSHBYTES_32 4d03f3d308bedbd95261cf70d764b34a1d7af59dd777b66d65e69706a46dc13a",
      "scriptpubkey_type": "v1_p2tr",
      "scriptpubkey_address": "bc1pf5pl85cghmdaj5npeacdwe9nfgwh4ava6ammvmt9u6tsdfrdcyaqz6nt3d",
      "value": 3010
    },
    {
      "scriptpubkey": "5120d826ab2636fc8fbdecaf2d73e51ed5dcc9e9e9c452a5604cd40d44ab61a2342d",
      "scriptpubkey_asm": "OP_PUSHNUM_1 OP_PUSHBYTES_32 d826ab2636fc8fbdecaf2d73e51ed5dcc9e9e9c452a5604cd40d44ab61a2342d",
      "scriptpubkey_type": "v1_p2tr",
      "scriptpubkey_address": "bc1pmqn2kf3klj8mmm9094e728k4mny7n6wy22jkqnx5p4z2kcdzxsksslj3mr",
      "value": 53563
    }
  ],
  "size": 205,
  "weight": 616,
  "fee": 2464,
  "status": {
    "confirmed": true,
    "block_height": 834464,
    "block_hash": "0000000000000000000177a0869a911a2b65c9bdcd5a8bcb02b68f305bee848e",
    "block_time": 1710308296
  },
  "hex": "0200000000010136d89be2780d098681ed0d310a134f497a7e9b4ce00eb25cb1b75c0292c6d8350100000000fdffffff02c20b0000000000002251204d03f3d308bedbd95261cf70d764b34a1d7af59dd777b66d65e69706a46dc13a3bd1000000000000225120d826ab2636fc8fbdecaf2d73e51ed5dcc9e9e9c452a5604cd40d44ab61a2342d0140d4d9907090e7098a5be01275d74891d3d0de8d7e4c39ed8ee9cda4598f4a3307da475f8d66bd52a49bbf356f45b6d2124933e8bfd1fa5aa6d7199a8afabfe36b00000000"
}