{
  "txid": "251434fc78bf0dc080c3b1868fc26e7863ed49c9da982a9fb3768819e7451c0f",
  "version": 1,
  "locktime": 0,
  "vin": [
    {
      "txid": "6375af38dc645bfa16606c03a881383d70bd1ede0df511a0f9fab7b0273d30c0",
      "vout": 0,
      "prevout": {
        "scriptpubkey": "512088d574741e79207c9cd6c606646f7e98f1e7ee68ce40f7988ac01f13fea54dd3",
        "scriptpubkey_asm": "OP_PUSHNUM_1 OP_PUSHBYTES_32 88d574741e79207c9cd6c606646f7e98f1e7ee68ce40f7988ac01f13fea54dd3",
        "scriptpubkey_type": "v1_p2tr",
        "scriptpubkey_address": "bc1p3r2hgaq70ys8e8xkccrxgmm7nrc70mngeeq00xy2cq038l49fhfsquh696",
        "value": 2716
      },
      "scriptsig": "",
      "scriptsig_asm": "",
      "witness": [
        "2bcbaaa830a3cf500ef662706db76984aa5d77b93e441caae4dbe01991def708f4e01537ab7190142a483bb7ba079d03507cb88cfee5b661443866d7cb08a16b",
        "20cf401e88df1e35d9ec692160c17078aed3d5e4559e6fa76880b13177a3a8f40bac0063036f72640101116d6f64656c2f676c74662d62696e617279004b2f636f6e74656e742f37633439306234383938343361346533636639613734613661356432646231386330346561376163353566383832316436353061396266643430656562663137693068",
        "c1cf401e88df1e35d9ec692160c17078aed3d5e4559e6fa76880b13177a3a8f40b"
      ],
      "is_coinbase": false,
      "sequence": 4294967293
    }
  ],
  "vout": [
    {
      "scriptpubkey": "5120f1768c246d76ff8a45c86e479459158c70d9b33887ba83b7b633606f1b0bb536",
      "scriptpubkey_asm": "OP_PUSHNUM_1 OP_PUSHBYTES_32 f1768c246d76ff8a45c86e479459158c70d9b33887ba83b7b633606f1b0bb536",
      "scriptpubkey_type": "v1_p2tr",
      "scriptpubkey_address": "bc1p79mgcfrdwmlc53wgderegkg433cdnvecs7ag8dakxdsx7xctk5mqnszxzv",
      "value": 546
    }
  ],
  "size": 335,
  "weight": 617,
  "fee": 2170,
  "status": {
    "confirmed": true,
    "block_height": 834460,
    "block_hash": "00000000000000000000484a79b643b2524bbce82e5d8a442013fa5b8905ed98",
    "block_time": 1710307468
  },
  "hex": "01000000000101c0303d27b0b7faf9a011f50dde1ebd703d3881a8036c6016fa5b64dc38af75630000000000fdffffff012202000000000000225120f1768c246d76ff8a45c86e479459158c70d9b33887ba83b7b633606f1b0bb53603402bcbaaa830a3cf500ef662706db76984aa5d77b93e441caae4dbe01991def708f4e01537ab7190142a483bb7ba079d03507cb88cfee5b661443866d7cb08a16b8a20cf401e88df1e35d9ec692160c17078aed3d5e4559e6fa76880b13177a3a8f40bac0063036f72640101116d6f64656c2f676c74662d62696e617279004b2f636f6e74656e742f3763343930623438393834336134653363663961373461366135643264623138633034656137616335356638383231643635306139626664343065656266313769306821c1cf401e88df1e35d9ec692160c17078aed3d5e4559e6fa76880b13177a3a8f40b00000000"
}