{
  "txid": "25210853c824cb8a26f3cad66c473d4f8a38b2975f0c167b2f7f56f938f69c82",
  "version": 2,
  "locktime": 834575,
  "vin": [
    {
      "txid": "52f2754cce304036e7ce4fe00cd5689e0001a6cb0deb08989427c41b7ea13b06",
      "vout": 0,
      "prevout": {
        "scriptpubkey": "0014e8594fad97c20cdd8f01dae0f682a195734f9ea0",
        "scriptpubkey_asm": "OP_0 OP_PUSHBYTES_20 e8594fad97c20cdd8f01dae0f682a195734f9ea0",
        "scriptpubkey_type": "v0_p2wpkh",
        "scriptpubkey_address": "bc1qapv5ltvhcgxdmrcpmts0dq4pj4e5l84q8rx9fm",
        "value": 773628498
      },
      "scriptsig": "",
      "scriptsig_asm": "",
      "witness": [
        "30440220652126d9fa55cb0cd2d65e9ac91d8112cbac254a1f755a3fdc620f61e9bf9d1d02204a5c31a502bec1a555aa177b95a3a0c2b6d4fa2efed398e8c66a6723c89a045901",
        "0295de4cac67586d3df136d0d3017bdcc90df5cdbeabc70696f9980e0508a1555c"
      ],
      "is_coinbase": false,
      "sequence": 4294967294
    }
  ],
  "vout": [
    {
      "scriptpubkey": "a914c7d948b293add277fe25c518c2dec788680615bf87",
      "scriptpubkey_asm": "OP_HASH160 OP_PUSHBYTES_20 c7d948b293add277fe25c518c2dec788680615bf OP_EQUAL",
      "scriptpubkey_type": "p2sh",
      "scriptpubkey_address": "3KuigsbsbZ5f4A6oixCwcA3t46nK1RiZSq",
      "value": 550600
    },
    {
      "scriptpubkey": "0014e7a2cbc53c92f894a27759a4ff3307ce8ef2d5e1",
      "scriptpubkey_asm": "OP_0 OP_PUSHBYTES_20 e7a2cbc53c92f894a27759a4ff3307ce8ef2d5e1",
      "scriptpubkey_type": "v0_p2wpkh",
      "scriptpubkey_address": "bc1qu73vh3fujtuffgnhtxj07vc8e680940p7f9f52",
      "value": 773074418
    }
  ],
  "size": 223,
  "weight": 565,
  "fee": 3480,
  "status": {
    "confirmed": true,
    "block_height": 834638,
    "block_hash": "000000000000000000025f742c626208ac87e0b7d15054abb4a19ca2d735a54e",
    "block_time": 1710405325
  },
  "hex": "02000000000101063ba17e1bc427949808eb0dcba601009e68d50ce04fcee7364030ce4c75f2520000000000feffffff02c86608000000000017a914c7d948b293add277fe25c518c2dec788680615bf87f22d142e00000000160014e7a2cbc53c92f894a27759a4ff3307ce8ef2d5e1024730440220652126d9fa55cb0cd2d65e9ac91d8112cbac254a1f755a3fdc620f61e9bf9d1d02204a5c31a502bec1a555aa177b95a3a0c2b6d4fa2efed398e8c66a6723c89a045901210295de4cac67586d3df136d0d3017bdcc90df5cdbeabc70696f9980e0508a1555c0fbc0c00"
}