{
  "txid": "254b130178ad82a2440aa4506bc45c23502772952bd20adb094701c9508040ef",
  "version": 2,
  "locktime": 0,
  "vin": [
    {
      "txid": "5a240796011ce508e4ad558e1db424cab826fa3bd2a0d88f358a95b877e01e0e",
      "vout": 8,
      "prevout": {
        "scriptpubkey": "001443fcb1730ad9ae141f86026a2e1cdc0132a3c384",
        "scriptpubkey_asm": "OP_0 OP_PUSHBYTES_20 43fcb1730ad9ae141f86026a2e1cdc0132a3c384",
        "scriptpubkey_type": "v0_p2wpkh",
        "scriptpubkey_address": "bc1qg07tzuc2mxhpg8uxqf4zu8xuqye28suyms526l",
        "value": 547
      },
      "scriptsig": "",
      "scriptsig_asm": "",
      "witness": [
        "30440220309a3643c626afb03702d6a9b54abe391087c9e833c78a95c7d86eaed573d30802204b3be5cfb469a6cf7361321314d8f07079658762b64e4f21453f4e8717fef7f581",
        "032cc19c1df713aacb13bc3832693fefefb3312229b072b469c1fcb5f9a2a24918"
      ],
      "is_coinbase": false,
      "sequence": 4294967293
    },
    {
      "txid": "550d1c7eac671fb95ce42cf31e42b9fbcf2cdfadc3556096511f2e06e946cff7",
      "vout": 1,
      "prevout": {
        "scriptpubkey": "00140b4bb681ea875a097fa4bba122c223a8278480f4",
        "scriptpubkey_asm": "OP_0 OP_PUSHBYTES_20 0b4bb681ea875a097fa4bba122c223a8278480f4",
        "scriptpubkey_type": "v0_p2wpkh",
        "scriptpubkey_address": "bc1qpd9mdq02sadqjlayhwsj9s3r4qncfq855ccluk",
        "value": 1436309
      },
      "scriptsig": "",
      "scriptsig_asm": "",
      "witness": [
        "304402204e10022446011f50ad07e80ac304b37ee710f554aaac977e8552e0462323c9a002200351d86707963724289b35d06730b59fbf78331eaadb25d6e3e1b056293b9e6501",
        "032149badffd241649f849f0117ebc22a18820dc6bae56f640a72cfcc2072229ed"
      ],
      "is_coinbase": false,
      "sequence": 4294967293
    }
  ],
  "vout": [
    {
      "scriptpubkey": "001475237311a32e1e1aabcaf79bdf1bd65dd09fb36f",
      "scriptpubkey_asm": "OP_0 OP_PUSHBYTES_20 75237311a32e1e1aabcaf79bdf1bd65dd09fb36f",
      "scriptpubkey_type": "v0_p2wpkh",
      "scriptpubkey_address": "bc1qw53hxydr9c0p427277da7x7kthgflvm0szfxd6",
      "value": 1422900
    },
    {
      "scriptpubkey": "512102d51fcf29e1d910875dc00e66442c3051be637720933627dfadafd5c3dbc2bb2c21027b7d1040cf88bd56825b0d914b868bfdc9db08484b7d96635ae5e11c81e4bd5c2103333333333333333333333333333333333333333333333333333333333333333353ae",
      "scriptpubkey_asm": "OP_PUSHNUM_1 OP_PUSHBYTES_33 02d51fcf29e1d910875dc00e66442c3051be637720933627dfadafd5c3dbc2bb2c OP_PUSHBYTES_33 027b7d1040cf88bd56825b0d914b868bfdc9db08484b7d96635ae5e11c81e4bd5c OP_PUSHBYTES_33 033333333333333333333333333333333333333333333333333333333333333333 OP_PUSHNUM_3 OP_CHECKMULTISIG",
      "scriptpubkey_type": "unknown",
      "value": 796
    },
    {
      "scriptpubkey": "51210236d6529cc88f251f55539077761b3e2f491a6ab53b5da1b16d777bb8851874da2102fe9f0049be8170d16732ae94a0ffe86db62d4bc9b940c48dd5bed2fbdaa7f3252102222222222222222222222222222222222222222222222222222222222222222253ae",
      "scriptpubkey_asm": "OP_PUSHNUM_1 OP_PUSHBYTES_33 0236d6529cc88f251f55539077761b3e2f491a6ab53b5da1b16d777bb8851874da OP_PUSHBYTES_33 02fe9f0049be8170d16732ae94a0ffe86db62d4bc9b940c48dd5bed2fbdaa7f325 OP_PUSHBYTES_33 022222222222222222222222222222222222222222222222222222222222222222 OP_PUSHNUM_3 OP_CHECKMULTISIG",
      "scriptpubkey_type": "unknown",
      "value": 796
    },
    {
      "scriptpubkey": "001443fcb1730ad9ae141f86026a2e1cdc0132a3c384",
      "scriptpubkey_asm": "OP_0 OP_PUSHBYTES_20 43fcb1730ad9ae141f86026a2e1cdc0132a3c384",
      "scriptpubkey_type": "v0_p2wpkh",
      "scriptpubkey_address": "bc1qg07tzuc2mxhpg8uxqf4zu8xuqye28suyms526l",
      "value": 547
    }
  ],
  "size": 598,
  "weight": 1744,
  "fee": 11817,
  "status": {
    "confirmed": true,
    "block_height": 834638,
    "block_hash": "000000000000000000025f742c626208ac87e0b7d15054abb4a19ca2d735a54e",
    "block_time": 1710405325
  },
  "hex": "020000000001020e1ee077b8958a358fd8a0d23bfa26b8ca24b41d8e55ade408e51c019607245a0800000000fdfffffff7cf46e9062e1f51966055c3addf2ccffbb9421ef32ce45cb91f67ac7e1c0d550100000000fdffffff0434b615000000000016001475237311a32e1e1aabcaf79bdf1bd65dd09fb36f1c0300000000000069512102d51fcf29e1d910875dc00e66442c3051be637720933627dfadafd5c3dbc2bb2c21027b7d1040cf88bd56825b0d914b868bfdc9db08484b7d96635ae5e11c81e4bd5c2103333333333333333333333333333333333333333333333333333333333333333353ae1c030000000000006951210236d6529cc88f251f55539077761b3e2f491a6ab53b5da1b16d777bb8851874da2102fe9f0049be8170d16732ae94a0ffe86db62d4bc9b940c48dd5bed2fbdaa7f3252102222222222222222222222222222222222222222222222222222222222222222253ae230200000000000016001443fcb1730ad9ae141f86026a2e1cdc0132a3c384024730440220309a3643c626afb03702d6a9b54abe391087c9e833c78a95c7d86eaed573d30802204b3be5cfb469a6cf7361321314d8f07079658762b64e4f21453f4e8717fef7f58121032cc19c1df713aacb13bc3832693fefefb3312229b072b469c1fcb5f9a2a249180247304402204e10022446011f50ad07e80ac304b37ee710f554aaac977e8552e0462323c9a002200351d86707963724289b35d06730b59fbf78331eaadb25d6e3e1b056293b9e650121032149badffd241649f849f0117ebc22a18820dc6bae56f640a72cfcc2072229ed00000000"
}