{
  "txid": "25769fc7a569aed0a28781f9b21e4a672e414a4fc56282363a784b9c6911c4c2",
  "version": 1,
  "locktime": 0,
  "vin": [
    {
      "txid": "6ca07bd17ab2398f816ad1b84950af100b9c5e2ab1fdd29013d846e6de7af071",
      "vout": 0,
      "prevout": {
        "scriptpubkey": "001468195c795cd4132a0a6b5404b1fc075c531a40f4",
        "scriptpubkey_asm": "OP_0 OP_PUSHBYTES_20 68195c795cd4132a0a6b5404b1fc075c531a40f4",
        "scriptpubkey_type": "v0_p2wpkh",
        "scriptpubkey_address": "bc1qdqv4c72u6sfj5znt2sztrlq8t3f35s85tswcjd",
        "value": 7311200
      },
      "scriptsig": "",
      "scriptsig_asm": "",
      "witness": [
        "3044022032bea759ecc05d639d0c1a026009017c6623289f631d36e6c64c0c7c487d71d2022009559d1fe93dd3d7eec319a71c6c5d0f00be7fc914936dc147420a24b3a5398701",
        "03676dae01679f935035f54a817f4528798e19c10d9ab6993c9ca7cbe3a48ee175"
      ],
      "is_coinbase": false,
      "sequence": 4294967295
    }
  ],
  "vout": [
    {
      "scriptpubkey": "0014eb897affc157e24f6b4348ca1139fbf2cc604f5a",
      "scriptpubkey_asm": "OP_0 OP_PUSHBYTES_20 eb897affc157e24f6b4348ca1139fbf2cc604f5a",
      "scriptpubkey_type": "v0_p2wpkh",
      "scriptpubkey_address": "bc1qawyh4l7p2l3y766rfr9pzw0m7txxqn66wxqh8q",
      "value": 7307343
    }
  ],
  "size": 191,
  "weight": 437,
  "fee": 3857,
  "status": {
    "confirmed": true,
    "block_height": 834638,
    "block_hash": "000000000000000000025f742c626208ac87e0b7d15054abb4a19ca2d735a54e",
    "block_time": 1710405325
  },
  "hex": "0100000000010171f07adee646d81390d2fdb12a5e9c0b10af5049b8d16a818f39b27ad17ba06c0000000000ffffffff014f806f0000000000160014eb897affc157e24f6b4348ca1139fbf2cc604f5a02473044022032bea759ecc05d639d0c1a026009017c6623289f631d36e6c64c0c7c487d71d2022009559d1fe93dd3d7eec319a71c6c5d0f00be7fc914936dc147420a24b3a53987012103676dae01679f935035f54a817f4528798e19c10d9ab6993c9ca7cbe3a48ee17500000000"
}