{
  "txid": "2578d2daa8e07914e47f852b4873804db065e98f57d64a2bdc4774cf4ecaddbd",
  "version": 1,
  "locktime": 0,
  "vin": [
    {
      "txid": "1270a5bf5bbb42dfb7d0bc9b693bb9e168c4d0d8c692334664fae2429e3efd9c",
      "vout": 0,
      "prevout": {
        "scriptpubkey": "51204594306cc659ab393203447cc015fa8c767e9dbd1cddd7cd81bd7f1299dfeac8",
        "scriptpubkey_asm": "OP_PUSHNUM_1 OP_PUSHBYTES_32 4594306cc659ab393203447cc015fa8c767e9dbd1cddd7cd81bd7f1299dfeac8",
        "scriptpubkey_type": "v1_p2tr",
        "scriptpubkey_address": "bc1pgk2rqmxxtx4njvsrg37vq90633m8a8darnwa0nvph4l39xwlatyq86ms46",
        "value": 2905
      },
      "scriptsig": "",
      "scriptsig_asm": "",
      "witness": [
        "5135a22b1373d734b70efcfcd851f82a9dde575e2e22a705883131f2ea5c9ec08e9d78553a8ae5c589e787bbff8ae8dc87aac700b522fdf4523c014fd56a532a83",
        "20be11f1d0580232188e877ef283eb5a1efd4e9e5290a2633605d666f59ad3fff2ac00630461746f6d036e66743ca16461726773a468626974776f726b6364313237306d726571756573745f7265616c6d63e69d8e656e6f6e63651a0084d9216474696d651a65f1366868",
        "c0be11f1d0580232188e877ef283eb5a1efd4e9e5290a2633605d666f59ad3fff2"
      ],
      "is_coinbase": false,
      "sequence": 4294967293
    }
  ],
  "vout": [
    {
      "scriptpubkey": "51209d6dbbf9bad17d0135e06ea56ec304df985f9f9bc809fa52ae6789a0947e0300",
      "scriptpubkey_asm": "OP_PUSHNUM_1 OP_PUSHBYTES_32 9d6dbbf9bad17d0135e06ea56ec304df985f9f9bc809fa52ae6789a0947e0300",
      "scriptpubkey_type": "v1_p2tr",
      "scriptpubkey_address": "bc1pn4kmh7d6697szd0qd6jkascym7v9l8umeqyl554wv7y6p9r7qvqquzkndh",
      "value": 1000
    }
  ],
  "size": 305,
  "weight": 587,
  "fee": 1905,
  "status": {
    "confirmed": true,
    "block_height": 834460,
    "block_hash": "00000000000000000000484a79b643b2524bbce82e5d8a442013fa5b8905ed98",
    "block_time": 1710307468
  },
  "hex": "010000000001019cfd3e9e42e2fa64463392c6d8d0c468e1b93b699bbcd0b7df42bb5bbfa570120000000000fdffffff01e8030000000000002251209d6dbbf9bad17d0135e06ea56ec304df985f9f9bc809fa52ae6789a0947e030003415135a22b1373d734b70efcfcd851f82a9dde575e2e22a705883131f2ea5c9ec08e9d78553a8ae5c589e787bbff8ae8dc87aac700b522fdf4523c014fd56a532a836b20be11f1d0580232188e877ef283eb5a1efd4e9e5290a2633605d666f59ad3fff2ac00630461746f6d036e66743ca16461726773a468626974776f726b6364313237306d726571756573745f7265616c6d63e69d8e656e6f6e63651a0084d9216474696d651a65f136686821c0be11f1d0580232188e877ef283eb5a1efd4e9e5290a2633605d666f59ad3fff200000000"
}