{
  "txid": "2585dfec77960a55147bccf47bdb55d0741f2393f97af33a4f618d38a930cad3",
  "version": 2,
  "locktime": 0,
  "vin": [
    {
      "txid": "acc3ba00869acb582a3f2904ce3a11dd3779350ce234063fc7d0959246213364",
      "vout": 119,
      "prevout": {
        "scriptpubkey": "51209c300760e98f0fb4150787bc3bf88f0fafd1b85f23e3444cf55698173042cb4b",
        "scriptpubkey_asm": "OP_PUSHNUM_1 OP_PUSHBYTES_32 9c300760e98f0fb4150787bc3bf88f0fafd1b85f23e3444cf55698173042cb4b",
        "scriptpubkey_type": "v1_p2tr",
        "scriptpubkey_address": "bc1pnscqwc8f3u8mg9g8s77rh7y0p7harwzly035gn8426vpwvzzed9s4smfsv",
        "value": 1806
      },
      "scriptsig": "",
      "scriptsig_asm": "",
      "witness": [
        "e9cfece5f76af986c7ae88159f59cd108a4e7c0be47b10378abf712941bee8e1b487b74aafcb6b09a2837c6202aea2abcda31dd3531a693943fd132571847650",
        "20fe5d506e179035a5dd2f63016f97fdd1ed2e875f753a9abcd122a4788cc56df5ac0063036f726401010a746578742f706c61696e00357b2270223a226272632d3230222c226f70223a226d696e74222c227469636b223a22646f6765222c22616d74223a2234323030227d68",
        "c0fe5d506e179035a5dd2f63016f97fdd1ed2e875f753a9abcd122a4788cc56df5"
      ],
      "is_coinbase": false,
      "sequence": 4261412863
    }
  ],
  "vout": [
    {
      "scriptpubkey": "00147a665de7a370f4c9b372ab1fae587500a5bcbdb4",
      "scriptpubkey_asm": "OP_0 OP_PUSHBYTES_20 7a665de7a370f4c9b372ab1fae587500a5bcbdb4",
      "scriptpubkey_type": "v0_p2wpkh",
      "scriptpubkey_address": "bc1q0fn9mearwr6vnvmj4v06ukr4qzjme0d565dzcx",
      "value": 294
    }
  ],
  "size": 294,
  "weight": 540,
  "fee": 1512,
  "status": {
    "confirmed": true,
    "block_height": 834460,
    "block_hash": "00000000000000000000484a79b643b2524bbce82e5d8a442013fa5b8905ed98",
    "block_time": 1710307468
  },
  "hex": "02000000000101643321469295d0c73f0634e20c357937dd113ace04293f2a58cb9a8600bac3ac7700000000fffffffd0126010000000000001600147a665de7a370f4c9b372ab1fae587500a5bcbdb40340e9cfece5f76af986c7ae88159f59cd108a4e7c0be47b10378abf712941bee8e1b487b74aafcb6b09a2837c6202aea2abcda31dd3531a693943fd1325718476506d20fe5d506e179035a5dd2f63016f97fdd1ed2e875f753a9abcd122a4788cc56df5ac0063036f726401010a746578742f706c61696e00357b2270223a226272632d3230222c226f70223a226d696e74222c227469636b223a22646f6765222c22616d74223a2234323030227d6821c0fe5d506e179035a5dd2f63016f97fdd1ed2e875f753a9abcd122a4788cc56df500000000"
}