{
  "txid": "258c8f866625581ecf01cb2ac7f9e4a53a11ca8907e002403dc4ba969ecd9b07",
  "version": 1,
  "locktime": 0,
  "vin": [
    {
      "txid": "8888888ec213bd574cc00a0a9afd1c65bac278796db4d30b0ac0a49888dc340f",
      "vout": 0,
      "prevout": {
        "scriptpubkey": "5120b9566bad4ff144f35091e4d4ff9ed4dfdeed4ba7fe075fd7d3f413745b069dae",
        "scriptpubkey_asm": "OP_PUSHNUM_1 OP_PUSHBYTES_32 b9566bad4ff144f35091e4d4ff9ed4dfdeed4ba7fe075fd7d3f413745b069dae",
        "scriptpubkey_type": "v1_p2tr",
        "scriptpubkey_address": "bc1ph9txht2079z0x5y3un20l8k5ml0w6ja8lcr4l47n7sfhgkcxnkhqe2vnmk",
        "value": 11634
      },
      "scriptsig": "",
      "scriptsig_asm": "",
      "witness": [
        "7cae476a151f7b89376af8f8e5d3c81bc02366381ad5a16558185557750b9aa5137cb020ab06ea25eda6db8a07659f70607afe23a23861cb232a3f7b7af3ea60",
        "2049bc5c4ff172cbaabb5b16757978d589c7c2eece9c067c2f1ed73b53400f46f5ac00630461746f6d03646d7443a16461726773a46474696d651a65e7626c656e6f6e636519183168626974776f726b636a383838383838382e31336b6d696e745f7469636b657268696e66696e69747968",
        "c049bc5c4ff172cbaabb5b16757978d589c7c2eece9c067c2f1ed73b53400f46f5"
      ],
      "is_coinbase": false,
      "sequence": 1
    }
  ],
  "vout": [
    {
      "scriptpubkey": "512058b825d39fe78e1dba3ebc3a7fa1bd4658aadb58b0f89de5589ffc6f251b9058",
      "scriptpubkey_asm": "OP_PUSHNUM_1 OP_PUSHBYTES_32 58b825d39fe78e1dba3ebc3a7fa1bd4658aadb58b0f89de5589ffc6f251b9058",
      "scriptpubkey_type": "v1_p2tr",
      "scriptpubkey_address": "bc1ptzuzt5ulu78pmw37hsa8lgdagev24k6ckrufme2cnl7x7fgmjpvqgk6kkl",
      "value": 9999
    }
  ],
  "size": 311,
  "weight": 593,
  "fee": 1635,
  "status": {
    "confirmed": true,
    "block_height": 834464,
    "block_hash": "0000000000000000000177a0869a911a2b65c9bdcd5a8bcb02b68f305bee848e",
    "block_time": 1710308296
  },
  "hex": "010000000001010f34dc8898a4c00a0bd3b46d7978c2ba651cfd9a0a0ac04c57bd13c28e888888000000000001000000010f2700000000000022512058b825d39fe78e1dba3ebc3a7fa1bd4658aadb58b0f89de5589ffc6f251b905803407cae476a151f7b89376af8f8e5d3c81bc02366381ad5a16558185557750b9aa5137cb020ab06ea25eda6db8a07659f70607afe23a23861cb232a3f7b7af3ea60722049bc5c4ff172cbaabb5b16757978d589c7c2eece9c067c2f1ed73b53400f46f5ac00630461746f6d03646d7443a16461726773a46474696d651a65e7626c656e6f6e636519183168626974776f726b636a383838383838382e31336b6d696e745f7469636b657268696e66696e6974796821c049bc5c4ff172cbaabb5b16757978d589c7c2eece9c067c2f1ed73b53400f46f500000000"
}