{
  "txid": "25b74a6c21df40b1e90bc990835a3ddbd23191d556ccfbda601d987ddf91fdd7",
  "version": 1,
  "locktime": 0,
  "vin": [
    {
      "txid": "9e537ab3a82b2a870993ee1869679f94c2bd8a89ef83f0e3e3f49f8d355cd276",
      "vout": 1,
      "prevout": {
        "scriptpubkey": "76a9144219cccddd14197771645bc4c95f4a7b7bb42ec688ac",
        "scriptpubkey_asm": "OP_DUP OP_HASH160 OP_PUSHBYTES_20 4219cccddd14197771645bc4c95f4a7b7bb42ec6 OP_EQUALVERIFY OP_CHECKSIG",
        "scriptpubkey_type": "p2pkh",
        "scriptpubkey_address": "172WWH63edaJkCww3wh9hJjdBKvJkVw8PR",
        "value": 9012
      },
      "scriptsig": "4730440220527d451e61557a68bce13bc0afd2c2349fe553403df4cbfa5678c2db631dae94022079c1dd2b4c54f45f7efff91695587a2389747744358ec81fbf1bd3c177dfd9bc0121036b4b96e22caec684a7b7c2b03291fbac3c49d70c857fda9dcc887d1f2e46272d",
      "scriptsig_asm": "OP_PUSHBYTES_71 30440220527d451e61557a68bce13bc0afd2c2349fe553403df4cbfa5678c2db631dae94022079c1dd2b4c54f45f7efff91695587a2389747744358ec81fbf1bd3c177dfd9bc01 OP_PUSHBYTES_33 036b4b96e22caec684a7b7c2b03291fbac3c49d70c857fda9dcc887d1f2e46272d",
      "is_coinbase": false,
      "sequence": 4294967295
    },
    {
      "txid": "4d5815150cd1928dfb2ea823e98aa40d53aec58c607afe976dfae3c264a1c20e",
      "vout": 1,
      "prevout": {
        "scriptpubkey": "76a9144219cccddd14197771645bc4c95f4a7b7bb42ec688ac",
        "scriptpubkey_asm": "OP_DUP OP_HASH160 OP_PUSHBYTES_20 4219cccddd14197771645bc4c95f4a7b7bb42ec6 OP_EQUALVERIFY OP_CHECKSIG",
        "scriptpubkey_type": "p2pkh",
        "scriptpubkey_address": "172WWH63edaJkCww3wh9hJjdBKvJkVw8PR",
        "value": 6464
      },
      "scriptsig": "4730440220434080ecc50e3a08780c67362429ce0ab69fd2ea7dbfc08f6a98212525b4e9f202202b6a60944bbcd8bed3e5e784568da6063cfa7e409e05479e39e28289c3bbebd20121036b4b96e22caec684a7b7c2b03291fbac3c49d70c857fda9dcc887d1f2e46272d",
      "scriptsig_asm": "OP_PUSHBYTES_71 30440220434080ecc50e3a08780c67362429ce0ab69fd2ea7dbfc08f6a98212525b4e9f202202b6a60944bbcd8bed3e5e784568da6063cfa7e409e05479e39e28289c3bbebd201 OP_PUSHBYTES_33 036b4b96e22caec684a7b7c2b03291fbac3c49d70c857fda9dcc887d1f2e46272d",
      "is_coinbase": false,
      "sequence": 4294967295
    }
  ],
  "vout": [
    {
      "scriptpubkey": "76a914deee1c035e456225c499ecfd8ccb57d967d4121b88ac",
      "scriptpubkey_asm": "OP_DUP OP_HASH160 OP_PUSHBYTES_20 deee1c035e456225c499ecfd8ccb57d967d4121b OP_EQUALVERIFY OP_CHECKSIG",
      "scriptpubkey_type": "p2pkh",
      "scriptpubkey_address": "1MKkFiirL2oGtz2fgNKfuEbTGTtiMJiB8W",
      "value": 11766
    }
  ],
  "size": 338,
  "weight": 1352,
  "fee": 3710,
  "status": {
    "confirmed": true,
    "block_height": 834464,
    "block_hash": "0000000000000000000177a0869a911a2b65c9bdcd5a8bcb02b68f305bee848e",
    "block_time": 1710308296
  },
  "hex": "010000000276d25c358d9ff4e3e3f083ef898abdc2949f676918ee9309872a2ba8b37a539e010000006a4730440220527d451e61557a68bce13bc0afd2c2349fe553403df4cbfa5678c2db631dae94022079c1dd2b4c54f45f7efff91695587a2389747744358ec81fbf1bd3c177dfd9bc0121036b4b96e22caec684a7b7c2b03291fbac3c49d70c857fda9dcc887d1f2e46272dffffffff0ec2a164c2e3fa6d97fe7a608cc5ae530da48ae923a82efb8d92d10c1515584d010000006a4730440220434080ecc50e3a08780c67362429ce0ab69fd2ea7dbfc08f6a98212525b4e9f202202b6a60944bbcd8bed3e5e784568da6063cfa7e409e05479e39e28289c3bbebd20121036b4b96e22caec684a7b7c2b03291fbac3c49d70c857fda9dcc887d1f2e46272dffffffff01f62d0000000000001976a914deee1c035e456225c499ecfd8ccb57d967d4121b88ac00000000"
}