{
  "txid": "25b807782e00c5f777e7028f1228ccfd57a706253d07cd1199471eb8224aaaba",
  "version": 2,
  "locktime": 0,
  "vin": [
    {
      "txid": "8486ecb4df0880316dd6e82b3971b4df187aff23765bc3a47f8d78bb53aa273c",
      "vout": 54,
      "prevout": {
        "scriptpubkey": "5120f144aae256ae0b2b66c298d5e53bd90475e96becb8dc8c8a9af74a2baf1a3b9a",
        "scriptpubkey_asm": "OP_PUSHNUM_1 OP_PUSHBYTES_32 f144aae256ae0b2b66c298d5e53bd90475e96becb8dc8c8a9af74a2baf1a3b9a",
        "scriptpubkey_type": "v1_p2tr",
        "scriptpubkey_address": "bc1p79z24cjk4c9jkekznr272w7eq367j6lvhrwgez567a9zhtc68wdq5ays6x",
        "value": 2575
      },
      "scriptsig": "",
      "scriptsig_asm": "",
      "witness": [
        "8e1366822b43440108062b8f48a77f036e3c9bbf289b9ce79a01c9066973263619803a57b644971fb82e76c8525b3527d85c8fe536a0caa71b8db5f861dffe0b",
        "2055aa16e075385ba37895267f966913342c44be821a4ef654f2c7752d8accfd7cac0063036f726401010a746578742f706c61696e00367b2270223a226272632d3230222c226f70223a226d696e74222c227469636b223a2261616161222c22616d74223a223130303030227d68",
        "c155aa16e075385ba37895267f966913342c44be821a4ef654f2c7752d8accfd7c"
      ],
      "is_coinbase": false,
      "sequence": 4261412863
    }
  ],
  "vout": [
    {
      "scriptpubkey": "0014ddd7ef12ea6f78edcc1e8e7afa12c01ab59f3339",
      "scriptpubkey_asm": "OP_0 OP_PUSHBYTES_20 ddd7ef12ea6f78edcc1e8e7afa12c01ab59f3339",
      "scriptpubkey_type": "v0_p2wpkh",
      "scriptpubkey_address": "bc1qmht77yh2dauwmnq73ea05ykqr26e7veea8spz6",
      "value": 546
    }
  ],
  "size": 295,
  "weight": 541,
  "fee": 2029,
  "status": {
    "confirmed": true,
    "block_height": 834460,
    "block_hash": "00000000000000000000484a79b643b2524bbce82e5d8a442013fa5b8905ed98",
    "block_time": 1710307468
  },
  "hex": "020000000001013c27aa53bb788d7fa4c35b7623ff7a18dfb471392be8d66d318008dfb4ec86843600000000fffffffd012202000000000000160014ddd7ef12ea6f78edcc1e8e7afa12c01ab59f333903408e1366822b43440108062b8f48a77f036e3c9bbf289b9ce79a01c9066973263619803a57b644971fb82e76c8525b3527d85c8fe536a0caa71b8db5f861dffe0b6e2055aa16e075385ba37895267f966913342c44be821a4ef654f2c7752d8accfd7cac0063036f726401010a746578742f706c61696e00367b2270223a226272632d3230222c226f70223a226d696e74222c227469636b223a2261616161222c22616d74223a223130303030227d6821c155aa16e075385ba37895267f966913342c44be821a4ef654f2c7752d8accfd7c00000000"
}