{
  "txid": "25c4f8f8cf15c2476d11508794f3399d685afa08302a4281e3659fb0059e056a",
  "version": 2,
  "locktime": 0,
  "vin": [
    {
      "txid": "04b8af129a88a712d5c3cb16eaa493adb9236110ee07b7c75169841c1ab8542b",
      "vout": 0,
      "prevout": {
        "scriptpubkey": "0014eeb6dc4eb667ae70d3abac34069dcc2f604a8c4e",
        "scriptpubkey_asm": "OP_0 OP_PUSHBYTES_20 eeb6dc4eb667ae70d3abac34069dcc2f604a8c4e",
        "scriptpubkey_type": "v0_p2wpkh",
        "scriptpubkey_address": "bc1qa6mdcn4kv7h8p5at4s6qd8wv9asy4rzwpkmyra",
        "value": 15607592
      },
      "scriptsig": "",
      "scriptsig_asm": "",
      "witness": [
        "3045022100aa582f8068192b5a4943b768cae57d46df07f3eaf9ee1b459d9c2dc757b7e067022079aef94c4be6d035551fac914bd793547d5442a20467275e9932d3025a2f58d401",
        "037693b593acfcb47f463a8cccec475c033f60bc686081c82862e59dcab539a39a"
      ],
      "is_coinbase": false,
      "sequence": 4294967295
    }
  ],
  "vout": [
    {
      "scriptpubkey": "001437273c24f1e7b86956351c8ded6f9d1acff63e06",
      "scriptpubkey_asm": "OP_0 OP_PUSHBYTES_20 37273c24f1e7b86956351c8ded6f9d1acff63e06",
      "scriptpubkey_type": "v0_p2wpkh",
      "scriptpubkey_address": "bc1qxunncf83u7uxj434rjx76muart8lv0sx5yqng8",
      "value": 15605567
    }
  ],
  "size": 192,
  "weight": 438,
  "fee": 2025,
  "status": {
    "confirmed": true,
    "block_height": 834552,
    "block_hash": "00000000000000000001dd0468a70c94f619251d286585cff57aeb4bd9ede330",
    "block_time": 1710355598
  },
  "hex": "020000000001012b54b81a1c846951c7b707ee106123b9ad93a4ea16cbc3d512a7889a12afb8040000000000ffffffff013f1fee000000000016001437273c24f1e7b86956351c8ded6f9d1acff63e0602483045022100aa582f8068192b5a4943b768cae57d46df07f3eaf9ee1b459d9c2dc757b7e067022079aef94c4be6d035551fac914bd793547d5442a20467275e9932d3025a2f58d40121037693b593acfcb47f463a8cccec475c033f60bc686081c82862e59dcab539a39a00000000"
}