{
  "txid": "25c50c4a4938207dedfb73c603539c602c1391581fc7c4554bfd7cb186fd3b25",
  "version": 1,
  "locktime": 0,
  "vin": [
    {
      "txid": "9af73cbf7808d99912245b09d887807cac80a4dc8e994ae91ce82132b2649a4c",
      "vout": 1,
      "prevout": {
        "scriptpubkey": "001488a4f50daf1ead67bb96bf5d75dfd8e05ecb5784",
        "scriptpubkey_asm": "OP_0 OP_PUSHBYTES_20 88a4f50daf1ead67bb96bf5d75dfd8e05ecb5784",
        "scriptpubkey_type": "v0_p2wpkh",
        "scriptpubkey_address": "bc1q3zj02rd0r6kk0wukhawhth7cup0vk4uy4mwm6y",
        "value": 26181
      },
      "scriptsig": "",
      "scriptsig_asm": "",
      "witness": [
        "3045022100989051c93cf1f2cafbf85c2d8cb01cc3923c84cf77bd267623fe6d2aed96bd84022062398c9c70effeaea201c8e337d199e490e42bb757fa66fd8c03d6e95ee461a001",
        "025f17a103115862bf99cc9689bb75accb37a116e13dec99db8205338f40954792"
      ],
      "is_coinbase": false,
      "sequence": 4294967295
    },
    {
      "txid": "a659234d166271a4dfe65689c23a261d15ae29b5d76638dc4532f1f4a1a7c764",
      "vout": 0,
      "prevout": {
        "scriptpubkey": "001488a4f50daf1ead67bb96bf5d75dfd8e05ecb5784",
        "scriptpubkey_asm": "OP_0 OP_PUSHBYTES_20 88a4f50daf1ead67bb96bf5d75dfd8e05ecb5784",
        "scriptpubkey_type": "v0_p2wpkh",
        "scriptpubkey_address": "bc1q3zj02rd0r6kk0wukhawhth7cup0vk4uy4mwm6y",
        "value": 295400
      },
      "scriptsig": "",
      "scriptsig_asm": "",
      "witness": [
        "3044022048397be4be5a8c7e7c74d5f898338a7ff031cb4d003551b10c3587b8ef6d332d02205b70529a265254b299da3b7561ab275f7a5ec7d11d5916dcbcf4ce4036b8bd9f01",
        "025f17a103115862bf99cc9689bb75accb37a116e13dec99db8205338f40954792"
      ],
      "is_coinbase": false,
      "sequence": 4294967295
    }
  ],
  "vout": [
    {
      "scriptpubkey": "76a914de0c33c26e34825bd907e4d6695c9e85a048140588ac",
      "scriptpubkey_asm": "OP_DUP OP_HASH160 OP_PUSHBYTES_20 de0c33c26e34825bd907e4d6695c9e85a0481405 OP_EQUALVERIFY OP_CHECKSIG",
      "scriptpubkey_type": "p2pkh",
      "scriptpubkey_address": "1MF5dQj6pVrZuUidfX3oa7Yk14eiAa9dtj",
      "value": 316694
    }
  ],
  "size": 343,
  "weight": 721,
  "fee": 4887,
  "status": {
    "confirmed": true,
    "block_height": 834638,
    "block_hash": "000000000000000000025f742c626208ac87e0b7d15054abb4a19ca2d735a54e",
    "block_time": 1710405325
  },
  "hex": "010000000001024c9a64b23221e81ce94a998edca480ac7c8087d8095b241299d90878bf3cf79a0100000000ffffffff64c7a7a1f4f13245dc3866d7b529ae151d263ac28956e6dfa47162164d2359a60000000000ffffffff0116d50400000000001976a914de0c33c26e34825bd907e4d6695c9e85a048140588ac02483045022100989051c93cf1f2cafbf85c2d8cb01cc3923c84cf77bd267623fe6d2aed96bd84022062398c9c70effeaea201c8e337d199e490e42bb757fa66fd8c03d6e95ee461a00121025f17a103115862bf99cc9689bb75accb37a116e13dec99db8205338f4095479202473044022048397be4be5a8c7e7c74d5f898338a7ff031cb4d003551b10c3587b8ef6d332d02205b70529a265254b299da3b7561ab275f7a5ec7d11d5916dcbcf4ce4036b8bd9f0121025f17a103115862bf99cc9689bb75accb37a116e13dec99db8205338f4095479200000000"
}