{
  "txid": "25cc32d9ce934b9eb341bf1dc568909714ebe438721011fdd0f0fc9a5344ec52",
  "version": 2,
  "locktime": 0,
  "vin": [
    {
      "txid": "5113b79a12f4430daba739b9cb89f77492f1aa249673141b61b2613ac9eaafb9",
      "vout": 0,
      "prevout": {
        "scriptpubkey": "0014c3ff6d6f8135daf49c0445c2d638665731f8ef2d",
        "scriptpubkey_asm": "OP_0 OP_PUSHBYTES_20 c3ff6d6f8135daf49c0445c2d638665731f8ef2d",
        "scriptpubkey_type": "v0_p2wpkh",
        "scriptpubkey_address": "bc1qc0lk6mupxhd0f8qyghpdvwrx2ucl3medr2ucm5",
        "value": 685931
      },
      "scriptsig": "",
      "scriptsig_asm": "",
      "witness": [
        "3045022100a64e5ea88b214d8000efb2d52e125421e1cb152820a0d7175e5cd97177708f0602200adc5dc440cceb0a9a138c9ea39ac91263e9c144e0036957f277764551d4506001",
        "02c5a38c83f11a0f76cddfed83e5bb809ed14af2d32c8d7acebec17472ba897394"
      ],
      "is_coinbase": false,
      "sequence": 4294967295
    },
    {
      "txid": "c2284ecd5122ed5c56371d70b102eb0e20f174c42f89406d3c8d57b2cf4bc0a2",
      "vout": 9,
      "prevout": {
        "scriptpubkey": "0014c3ff6d6f8135daf49c0445c2d638665731f8ef2d",
        "scriptpubkey_asm": "OP_0 OP_PUSHBYTES_20 c3ff6d6f8135daf49c0445c2d638665731f8ef2d",
        "scriptpubkey_type": "v0_p2wpkh",
        "scriptpubkey_address": "bc1qc0lk6mupxhd0f8qyghpdvwrx2ucl3medr2ucm5",
        "value": 888041
      },
      "scriptsig": "",
      "scriptsig_asm": "",
      "witness": [
        "3045022100cae80f2c09b12ad16a5e4913db925aab0f4acf5ddc0f174f766c0d66e9fc3c8c02206df60fc3f9c54bfc152ce385153a19cf65beb04a2d70e03bd8a1b88107e1f1d901",
        "02c5a38c83f11a0f76cddfed83e5bb809ed14af2d32c8d7acebec17472ba897394"
      ],
      "is_coinbase": false,
      "sequence": 4294967295
    },
    {
      "txid": "5dc2da33a3eab542ff173cde45ec54b64f8b571fdbcdca71b80181bb852ce7ea",
      "vout": 3,
      "prevout": {
        "scriptpubkey": "0014c3ff6d6f8135daf49c0445c2d638665731f8ef2d",
        "scriptpubkey_asm": "OP_0 OP_PUSHBYTES_20 c3ff6d6f8135daf49c0445c2d638665731f8ef2d",
        "scriptpubkey_type": "v0_p2wpkh",
        "scriptpubkey_address": "bc1qc0lk6mupxhd0f8qyghpdvwrx2ucl3medr2ucm5",
        "value": 1049436
      },
      "scriptsig": "",
      "scriptsig_asm": "",
      "witness": [
        "3045022100fcfa2ee4c72622f2943e14de7f41259fbf90a253ee14a60ff82cca66354d626502206218e84196a61d44bf2cc55ea5f6417c0d3ba9aa739ed5bca3fedf6b53da5a0c01",
        "02c5a38c83f11a0f76cddfed83e5bb809ed14af2d32c8d7acebec17472ba897394"
      ],
      "is_coinbase": false,
      "sequence": 4294967295
    },
    {
      "txid": "265fa9e9bffb8b61e4503cca7223faa8f7bfcbca06eeb99cc6421523b9be4e02",
      "vout": 0,
      "prevout": {
        "scriptpubkey": "0014c3ff6d6f8135daf49c0445c2d638665731f8ef2d",
        "scriptpubkey_asm": "OP_0 OP_PUSHBYTES_20 c3ff6d6f8135daf49c0445c2d638665731f8ef2d",
        "scriptpubkey_type": "v0_p2wpkh",
        "scriptpubkey_address": "bc1qc0lk6mupxhd0f8qyghpdvwrx2ucl3medr2ucm5",
        "value": 1515578
      },
      "scriptsig": "",
      "scriptsig_asm": "",
      "witness": [
        "304402202a0991a34f23537eba603267fc3d55ab510d462c24fa673004f9bb803374c40a02200d436e9dc12568daa1165b33852fd100d01117528615f5960edfa9577bdf2ada01",
        "02c5a38c83f11a0f76cddfed83e5bb809ed14af2d32c8d7acebec17472ba897394"
      ],
      "is_coinbase": false,
      "sequence": 4294967295
    },
    {
      "txid": "3696cbb7d0049b30f2f42df192be7fa9be4d891174429e9ab23de080dde5f1d0",
      "vout": 0,
      "prevout": {
        "scriptpubkey": "0014c3ff6d6f8135daf49c0445c2d638665731f8ef2d",
        "scriptpubkey_asm": "OP_0 OP_PUSHBYTES_20 c3ff6d6f8135daf49c0445c2d638665731f8ef2d",
        "scriptpubkey_type": "v0_p2wpkh",
        "scriptpubkey_address": "bc1qc0lk6mupxhd0f8qyghpdvwrx2ucl3medr2ucm5",
        "value": 1024985
      },
      "scriptsig": "",
      "scriptsig_asm": "",
      "witness": [
        "3045022100958fa5ef26ea98c14093f182a25f1f8187364c358debbbea8ae8348db17595e6022061049eed60de3bee87391690a2347c3f03bc120bf0aca2f70af7077eae270ac301",
        "02c5a38c83f11a0f76cddfed83e5bb809ed14af2d32c8d7acebec17472ba897394"
      ],
      "is_coinbase": false,
      "sequence": 4294967295
    }
  ],
  "vout": [
    {
      "scriptpubkey": "76a9141282c13f879ded4f3e5f3010a3d64335940dd33f88ac",
      "scriptpubkey_asm": "OP_DUP OP_HASH160 OP_PUSHBYTES_20 1282c13f879ded4f3e5f3010a3d64335940dd33f OP_EQUALVERIFY OP_CHECKSIG",
      "scriptpubkey_type": "p2pkh",
      "scriptpubkey_address": "12gsoTjjHQR6JaRMGAFj93uEKufSFNPFjF",
      "value": 4089495
    },
    {
      "scriptpubkey": "0014c3ff6d6f8135daf49c0445c2d638665731f8ef2d",
      "scriptpubkey_asm": "OP_0 OP_PUSHBYTES_20 c3ff6d6f8135daf49c0445c2d638665731f8ef2d",
      "scriptpubkey_type": "v0_p2wpkh",
      "scriptpubkey_address": "bc1qc0lk6mupxhd0f8qyghpdvwrx2ucl3medr2ucm5",
      "value": 1069659
    }
  ],
  "size": 821,
  "weight": 1661,
  "fee": 4817,
  "status": {
    "confirmed": true,
    "block_height": 834638,
    "block_hash": "000000000000000000025f742c626208ac87e0b7d15054abb4a19ca2d735a54e",
    "block_time": 1710405325
  },
  "hex": "02000000000105b9afeac93a61b2611b14739624aaf19274f789cbb939a7ab0d43f4129ab713510000000000ffffffffa2c04bcfb2578d3c6d40892fc474f1200eeb02b1701d37565ced2251cd4e28c20900000000ffffffffeae72c85bb8101b871cacddb1f578b4fb654ec45de3c17ff42b5eaa333dac25d0300000000ffffffff024ebeb9231542c69cb9ee06cacbbff7a8fa2372ca3c50e4618bfbbfe9a95f260000000000ffffffffd0f1e5dd80e03db29a9e427411894dbea97fbe92f12df4f2309b04d0b7cb96360000000000ffffffff0297663e00000000001976a9141282c13f879ded4f3e5f3010a3d64335940dd33f88ac5b52100000000000160014c3ff6d6f8135daf49c0445c2d638665731f8ef2d02483045022100a64e5ea88b214d8000efb2d52e125421e1cb152820a0d7175e5cd97177708f0602200adc5dc440cceb0a9a138c9ea39ac91263e9c144e0036957f277764551d45060012102c5a38c83f11a0f76cddfed83e5bb809ed14af2d32c8d7acebec17472ba89739402483045022100cae80f2c09b12ad16a5e4913db925aab0f4acf5ddc0f174f766c0d66e9fc3c8c02206df60fc3f9c54bfc152ce385153a19cf65beb04a2d70e03bd8a1b88107e1f1d9012102c5a38c83f11a0f76cddfed83e5bb809ed14af2d32c8d7acebec17472ba89739402483045022100fcfa2ee4c72622f2943e14de7f41259fbf90a253ee14a60ff82cca66354d626502206218e84196a61d44bf2cc55ea5f6417c0d3ba9aa739ed5bca3fedf6b53da5a0c012102c5a38c83f11a0f76cddfed83e5bb809ed14af2d32c8d7acebec17472ba8973940247304402202a0991a34f23537eba603267fc3d55ab510d462c24fa673004f9bb803374c40a02200d436e9dc12568daa1165b33852fd100d01117528615f5960edfa9577bdf2ada012102c5a38c83f11a0f76cddfed83e5bb809ed14af2d32c8d7acebec17472ba89739402483045022100958fa5ef26ea98c14093f182a25f1f8187364c358debbbea8ae8348db17595e6022061049eed60de3bee87391690a2347c3f03bc120bf0aca2f70af7077eae270ac3012102c5a38c83f11a0f76cddfed83e5bb809ed14af2d32c8d7acebec17472ba89739400000000"
}