{
  "txid": "25ce6b8d39d02471c43a804569a72015e81f3400170c1b8f5418e6938cd60b74",
  "version": 2,
  "locktime": 0,
  "vin": [
    {
      "txid": "b7191d119c73019ebdd1a9b6a2d72b9d48cda1980fbdaee01db1ac111d9b2d1b",
      "vout": 0,
      "prevout": {
        "scriptpubkey": "512067fbb758da9db36c7aae40ff09ebe23b4db3a72ea3850f8b2f3d9e470583b944",
        "scriptpubkey_asm": "OP_PUSHNUM_1 OP_PUSHBYTES_32 67fbb758da9db36c7aae40ff09ebe23b4db3a72ea3850f8b2f3d9e470583b944",
        "scriptpubkey_type": "v1_p2tr",
        "scriptpubkey_address": "bc1pvlamwkx6nkekc74wgrlsn6lz8dxm8few5wzslze08k0ywpvrh9zqal559n",
        "value": 5000
      },
      "scriptsig": "",
      "scriptsig_asm": "",
      "witness": [
        "c5891bbe035c899f1358e3afbfdf2e0509f5df38e1c8c07911ae4edcdd2c776434d09c2bed48856ca7cf4cd3d74b52c887430b40cdffaafdfd5fe1c214ea775401"
      ],
      "is_coinbase": false,
      "sequence": 4294967295
    }
  ],
  "vout": [
    {
      "scriptpubkey": "00143919d928e617770c9b365142cb95d85743baba29",
      "scriptpubkey_asm": "OP_0 OP_PUSHBYTES_20 3919d928e617770c9b365142cb95d85743baba29",
      "scriptpubkey_type": "v0_p2wpkh",
      "scriptpubkey_address": "bc1q8yvaj28xzamsexek29pvh9wc2apm4w3fu7zfkh",
      "value": 3792
    }
  ],
  "size": 151,
  "weight": 397,
  "fee": 1208,
  "status": {
    "confirmed": true,
    "block_height": 834552,
    "block_hash": "00000000000000000001dd0468a70c94f619251d286585cff57aeb4bd9ede330",
    "block_time": 1710355598
  },
  "hex": "020000000001011b2d9b1d11acb11de0aebd0f98a1cd489d2bd7a2b6a9d1bd9e01739c111d19b70000000000ffffffff01d00e0000000000001600143919d928e617770c9b365142cb95d85743baba290141c5891bbe035c899f1358e3afbfdf2e0509f5df38e1c8c07911ae4edcdd2c776434d09c2bed48856ca7cf4cd3d74b52c887430b40cdffaafdfd5fe1c214ea77540100000000"
}