{
  "txid": "25da48a74303a1339b8aa7e242fdcc97d6889bc1a2066e4478205607564147e8",
  "version": 1,
  "locktime": 0,
  "vin": [
    {
      "txid": "05c43fd367763f0864fadb80df9216f76cbf09f0e8e050d9cc8999ff70a61ae6",
      "vout": 0,
      "prevout": {
        "scriptpubkey": "0014da92ffafd83c9531b39812f2e5716a6256a05adb",
        "scriptpubkey_asm": "OP_0 OP_PUSHBYTES_20 da92ffafd83c9531b39812f2e5716a6256a05adb",
        "scriptpubkey_type": "v0_p2wpkh",
        "scriptpubkey_address": "bc1qm2f0lt7c8j2nrvucztew2ut2vft2qkkm4ztuef",
        "value": 1717973
      },
      "scriptsig": "",
      "scriptsig_asm": "",
      "witness": [
        "3045022100d9d5f9912daab73d725a0bba3d40d4ec3f319d514e35faa7c6353bab363f83fb022043c21727711da8e7187cffbfd9181cc6b4453d31b76a7dd15b2c337273e190e501",
        "03a725597652b3a67b1f2265b9fe07d75cf3b25085bc4fc5e16642528266c94a24"
      ],
      "is_coinbase": false,
      "sequence": 4294967295
    },
    {
      "txid": "26c5c0837ee8283a5cf6809dff3f5356eb6a91648f412f07bebb0a3702cfdc98",
      "vout": 0,
      "prevout": {
        "scriptpubkey": "0014da92ffafd83c9531b39812f2e5716a6256a05adb",
        "scriptpubkey_asm": "OP_0 OP_PUSHBYTES_20 da92ffafd83c9531b39812f2e5716a6256a05adb",
        "scriptpubkey_type": "v0_p2wpkh",
        "scriptpubkey_address": "bc1qm2f0lt7c8j2nrvucztew2ut2vft2qkkm4ztuef",
        "value": 1358305
      },
      "scriptsig": "",
      "scriptsig_asm": "",
      "witness": [
        "3045022100a34679805400777509091e0611295a7479fcd27b9e0edabcb5775fcea6ae8252022066d61aed83bc3c8e81fe6ab70e9bddc32a4dbeacf4ec5ca1f3402de2c309dd2c01",
        "03a725597652b3a67b1f2265b9fe07d75cf3b25085bc4fc5e16642528266c94a24"
      ],
      "is_coinbase": false,
      "sequence": 4294967295
    },
    {
      "txid": "ef6bf64b1300413178bc790d73ca5af6b426efc37a3a567a3c881a7738bbc933",
      "vout": 0,
      "prevout": {
        "scriptpubkey": "0014da92ffafd83c9531b39812f2e5716a6256a05adb",
        "scriptpubkey_asm": "OP_0 OP_PUSHBYTES_20 da92ffafd83c9531b39812f2e5716a6256a05adb",
        "scriptpubkey_type": "v0_p2wpkh",
        "scriptpubkey_address": "bc1qm2f0lt7c8j2nrvucztew2ut2vft2qkkm4ztuef",
        "value": 2619404
      },
      "scriptsig": "",
      "scriptsig_asm": "",
      "witness": [
        "3045022100fa1555e1f3cda729aaaaf378b247ea86f3e672c337ef6a71c024d462cf0d2831022011fda8dbc486133d2c1284c54e4be53b7d6ceb1951d4bec3b7563658f6f7900301",
        "03a725597652b3a67b1f2265b9fe07d75cf3b25085bc4fc5e16642528266c94a24"
      ],
      "is_coinbase": false,
      "sequence": 4294967295
    },
    {
      "txid": "97e1f18e0fdd6698a0baf94a584848b145dc669187fecb4380c23da78462dda9",
      "vout": 0,
      "prevout": {
        "scriptpubkey": "0014da92ffafd83c9531b39812f2e5716a6256a05adb",
        "scriptpubkey_asm": "OP_0 OP_PUSHBYTES_20 da92ffafd83c9531b39812f2e5716a6256a05adb",
        "scriptpubkey_type": "v0_p2wpkh",
        "scriptpubkey_address": "bc1qm2f0lt7c8j2nrvucztew2ut2vft2qkkm4ztuef",
        "value": 2712134
      },
      "scriptsig": "",
      "scriptsig_asm": "",
      "witness": [
        "3044022077a5bcda96cb22455d0a5ecb249f8812069cb073f371a76c29ac376ae181a1e702206d60b957350a1164c9dcd83b6e3d28d3e3a103ad5cecd209da2cc746c6e4740901",
        "03a725597652b3a67b1f2265b9fe07d75cf3b25085bc4fc5e16642528266c94a24"
      ],
      "is_coinbase": false,
      "sequence": 4294967295
    }
  ],
  "vout": [
    {
      "scriptpubkey": "76a914e99400378960d1879b40b04b0ef9352137637e9888ac",
      "scriptpubkey_asm": "OP_DUP OP_HASH160 OP_PUSHBYTES_20 e99400378960d1879b40b04b0ef9352137637e98 OP_EQUALVERIFY OP_CHECKSIG",
      "scriptpubkey_type": "p2pkh",
      "scriptpubkey_address": "1NJ3jyb4ybYaeyPh82pWpD9wxsYVvCYnJn",
      "value": 8399257
    }
  ],
  "size": 641,
  "weight": 1265,
  "fee": 8559,
  "status": {
    "confirmed": true,
    "block_height": 834638,
    "block_hash": "000000000000000000025f742c626208ac87e0b7d15054abb4a19ca2d735a54e",
    "block_time": 1710405325
  },
  "hex": "01000000000104e61aa670ff9989ccd950e0e8f009bf6cf71692df80dbfa64083f7667d33fc4050000000000ffffffff98dccf02370abbbe072f418f64916aeb56533fff9d80f65c3a28e87e83c0c5260000000000ffffffff33c9bb38771a883c7a563a7ac3ef26b4f65aca730d79bc78314100134bf66bef0000000000ffffffffa9dd6284a73dc28043cbfe879166dc45b14848584af9baa09866dd0f8ef1e1970000000000ffffffff0199298000000000001976a914e99400378960d1879b40b04b0ef9352137637e9888ac02483045022100d9d5f9912daab73d725a0bba3d40d4ec3f319d514e35faa7c6353bab363f83fb022043c21727711da8e7187cffbfd9181cc6b4453d31b76a7dd15b2c337273e190e5012103a725597652b3a67b1f2265b9fe07d75cf3b25085bc4fc5e16642528266c94a2402483045022100a34679805400777509091e0611295a7479fcd27b9e0edabcb5775fcea6ae8252022066d61aed83bc3c8e81fe6ab70e9bddc32a4dbeacf4ec5ca1f3402de2c309dd2c012103a725597652b3a67b1f2265b9fe07d75cf3b25085bc4fc5e16642528266c94a2402483045022100fa1555e1f3cda729aaaaf378b247ea86f3e672c337ef6a71c024d462cf0d2831022011fda8dbc486133d2c1284c54e4be53b7d6ceb1951d4bec3b7563658f6f79003012103a725597652b3a67b1f2265b9fe07d75cf3b25085bc4fc5e16642528266c94a2402473044022077a5bcda96cb22455d0a5ecb249f8812069cb073f371a76c29ac376ae181a1e702206d60b957350a1164c9dcd83b6e3d28d3e3a103ad5cecd209da2cc746c6e47409012103a725597652b3a67b1f2265b9fe07d75cf3b25085bc4fc5e16642528266c94a2400000000"
}