{
  "txid": "25df661abc284c400557b489a24295cfb46cc4122b890fdf4b2d7f254e3a1777",
  "version": 2,
  "locktime": 0,
  "vin": [
    {
      "txid": "586fd6ab5486b800598f41d6bd3e69d066a658766fcb00912341ffcd70db770e",
      "vout": 0,
      "prevout": {
        "scriptpubkey": "5120ce1039e86ac13577cd4326765ba3200b544396098351b2e80f43249242f1df4b",
        "scriptpubkey_asm": "OP_PUSHNUM_1 OP_PUSHBYTES_32 ce1039e86ac13577cd4326765ba3200b544396098351b2e80f43249242f1df4b",
        "scriptpubkey_type": "v1_p2tr",
        "scriptpubkey_address": "bc1pecgrn6r2cy6h0n2ryem9hgeqpd2y89sfsdgm96q0gvjfysh3ma9s5qk0xg",
        "value": 546
      },
      "scriptsig": "",
      "scriptsig_asm": "",
      "witness": [
        "10fefcfc54b8c387b6fca3d7c0be1af967d39fc7b21f323634b5a9f06b16f830e18711be15e8a44fb69fabc75b43b08868c5206a327e47035ee6c1217dc88f0f"
      ],
      "is_coinbase": false,
      "sequence": 4294967295
    },
    {
      "txid": "e8e6d2499c8afba322ed633e63f475e5c9a1ab53fdf55e7ed008c8a1bf769114",
      "vout": 1,
      "prevout": {
        "scriptpubkey": "5120ce1039e86ac13577cd4326765ba3200b544396098351b2e80f43249242f1df4b",
        "scriptpubkey_asm": "OP_PUSHNUM_1 OP_PUSHBYTES_32 ce1039e86ac13577cd4326765ba3200b544396098351b2e80f43249242f1df4b",
        "scriptpubkey_type": "v1_p2tr",
        "scriptpubkey_address": "bc1pecgrn6r2cy6h0n2ryem9hgeqpd2y89sfsdgm96q0gvjfysh3ma9s5qk0xg",
        "value": 80297
      },
      "scriptsig": "",
      "scriptsig_asm": "",
      "witness": [
        "9d460b63ff9a7fe7527e5b36f5f96f42824fa08078e3d3f3c9cfd7ebc95d0cc28069e8f883e2e6b9177ac91ec692d30ac04cf1ada5ce193452b6e4383e656510"
      ],
      "is_coinbase": false,
      "sequence": 4294967295
    }
  ],
  "vout": [
    {
      "scriptpubkey": "51204f080cecd4ac478aef8f3e6ebd6242b159ba800f23f6f62da3cf0dd5d013fa26",
      "scriptpubkey_asm": "OP_PUSHNUM_1 OP_PUSHBYTES_32 4f080cecd4ac478aef8f3e6ebd6242b159ba800f23f6f62da3cf0dd5d013fa26",
      "scriptpubkey_type": "v1_p2tr",
      "scriptpubkey_address": "bc1pfuyqemx543rc4mu08eht6cjzk9vm4qq0y0m0vtdreuxat5qnlgnq9f9dmh",
      "value": 546
    },
    {
      "scriptpubkey": "5120ce1039e86ac13577cd4326765ba3200b544396098351b2e80f43249242f1df4b",
      "scriptpubkey_asm": "OP_PUSHNUM_1 OP_PUSHBYTES_32 ce1039e86ac13577cd4326765ba3200b544396098351b2e80f43249242f1df4b",
      "scriptpubkey_type": "v1_p2tr",
      "scriptpubkey_address": "bc1pecgrn6r2cy6h0n2ryem9hgeqpd2y89sfsdgm96q0gvjfysh3ma9s5qk0xg",
      "value": 77117
    }
  ],
  "size": 312,
  "weight": 846,
  "fee": 3180,
  "status": {
    "confirmed": true,
    "block_height": 834460,
    "block_hash": "00000000000000000000484a79b643b2524bbce82e5d8a442013fa5b8905ed98",
    "block_time": 1710307468
  },
  "hex": "020000000001020e77db70cdff41239100cb6f7658a666d0693ebdd6418f5900b88654abd66f580000000000ffffffff149176bfa1c808d07e5ef5fd53aba1c9e575f4633e63ed22a3fb8a9c49d2e6e80100000000ffffffff0222020000000000002251204f080cecd4ac478aef8f3e6ebd6242b159ba800f23f6f62da3cf0dd5d013fa263d2d010000000000225120ce1039e86ac13577cd4326765ba3200b544396098351b2e80f43249242f1df4b014010fefcfc54b8c387b6fca3d7c0be1af967d39fc7b21f323634b5a9f06b16f830e18711be15e8a44fb69fabc75b43b08868c5206a327e47035ee6c1217dc88f0f01409d460b63ff9a7fe7527e5b36f5f96f42824fa08078e3d3f3c9cfd7ebc95d0cc28069e8f883e2e6b9177ac91ec692d30ac04cf1ada5ce193452b6e4383e65651000000000"
}