{
  "txid": "2609192d014e29a16eee1f82fe3554b2561aa1d9b5d1996118f68f21f3c6bcc4",
  "version": 1,
  "locktime": 0,
  "vin": [
    {
      "txid": "e2c8694c74c101a22796917ea0d2833284ce737e1e5a09a98b9883c3918ec1dd",
      "vout": 22,
      "prevout": {
        "scriptpubkey": "a91412c76ef0cc5ce7f9d2ce99fcc96592960979358087",
        "scriptpubkey_asm": "OP_HASH160 OP_PUSHBYTES_20 12c76ef0cc5ce7f9d2ce99fcc965929609793580 OP_EQUAL",
        "scriptpubkey_type": "p2sh",
        "scriptpubkey_address": "33QJzsPcCJ8ij1CBJs7Xf8H45M2roq9cHT",
        "value": 805301
      },
      "scriptsig": "16001463c2642a0a64dc63bae1d48faaafe15ae06a5bff",
      "scriptsig_asm": "OP_PUSHBYTES_22 001463c2642a0a64dc63bae1d48faaafe15ae06a5bff",
      "witness": [
        "3045022100acd7dbb558c7a3ece1e48460554e4b55d1c5778f5a8366f64d00ab60623d014602203e088b39dc6359f797eab7278e27456eb61be4797ebb6b0d059950f56fa9a28001",
        "03090560eb9579542ffa210da9faf0f0714c94d476dae2240416317b488f832d71"
      ],
      "is_coinbase": false,
      "sequence": 4294967295,
      "inner_redeemscript_asm": "OP_0 OP_PUSHBYTES_20 63c2642a0a64dc63bae1d48faaafe15ae06a5bff"
    }
  ],
  "vout": [
    {
      "scriptpubkey": "a9147b8e7488e97254f75df00f30652d7be5935a54c887",
      "scriptpubkey_asm": "OP_HASH160 OP_PUSHBYTES_20 7b8e7488e97254f75df00f30652d7be5935a54c8 OP_EQUAL",
      "scriptpubkey_type": "p2sh",
      "scriptpubkey_address": "3CxKh6nzQGwGeRuH8i6XBicBUdRB9GhVTv",
      "value": 801723
    },
    {
      "scriptpubkey": "a914ea4eba97560462336f9dd1960b34dbcfc149bf4c87",
      "scriptpubkey_asm": "OP_HASH160 OP_PUSHBYTES_20 ea4eba97560462336f9dd1960b34dbcfc149bf4c OP_EQUAL",
      "scriptpubkey_type": "p2sh",
      "scriptpubkey_address": "3P3vMcLDReHpdzcYTMyYn6Ns9MFPCjvHCX",
      "value": 1254
    }
  ],
  "size": 248,
  "weight": 662,
  "fee": 2324,
  "status": {
    "confirmed": true,
    "block_height": 834460,
    "block_hash": "00000000000000000000484a79b643b2524bbce82e5d8a442013fa5b8905ed98",
    "block_time": 1710307468
  },
  "hex": "01000000000101ddc18e91c383988ba9095a1e7e73ce843283d2a07e919627a201c1744c69c8e2160000001716001463c2642a0a64dc63bae1d48faaafe15ae06a5bffffffffff02bb3b0c000000000017a9147b8e7488e97254f75df00f30652d7be5935a54c887e60400000000000017a914ea4eba97560462336f9dd1960b34dbcfc149bf4c8702483045022100acd7dbb558c7a3ece1e48460554e4b55d1c5778f5a8366f64d00ab60623d014602203e088b39dc6359f797eab7278e27456eb61be4797ebb6b0d059950f56fa9a280012103090560eb9579542ffa210da9faf0f0714c94d476dae2240416317b488f832d7100000000"
}