{
  "txid": "2615452f9bc4efa77ad62ea21c7ca25fe387f18f290747ccfb9ebc876f208e5c",
  "version": 2,
  "locktime": 0,
  "vin": [
    {
      "txid": "865146eff87493d955018723da8ffe2a83473a8432a4cfdc673a712d15646c6f",
      "vout": 0,
      "prevout": {
        "scriptpubkey": "512070812404d87daa3af87d7d9ead7718ec8f5b9c262da7f933ac97583c6ae35199",
        "scriptpubkey_asm": "OP_PUSHNUM_1 OP_PUSHBYTES_32 70812404d87daa3af87d7d9ead7718ec8f5b9c262da7f933ac97583c6ae35199",
        "scriptpubkey_type": "v1_p2tr",
        "scriptpubkey_address": "bc1pwzqjgpxc0k4r47ra0k026accaj84h8px9knljvavjavrc6hr2xvs8uw4rc",
        "value": 4256
      },
      "scriptsig": "",
      "scriptsig_asm": "",
      "witness": [
        "1f46feda39a9100f640b4f7fc741d91aaff1c9f0897ff07d2a763071db01cccd4d96b970865da663ce80a9cfe894769596e5c426c487454b67784183bb2e16e1",
        "20fb4ee56d668c8f153a7f079926b6a61209d1b86f982c854551c4306d006dfeabac0063036f7264010118746578742f706c61696e3b636861727365743d7574662d3800387b2270223a226272632d3230222c226f70223a227472616e73666572222c227469636b223a224d544d54222c22616d74223a22333333227d68",
        "c0fb4ee56d668c8f153a7f079926b6a61209d1b86f982c854551c4306d006dfeab"
      ],
      "is_coinbase": false,
      "sequence": 4294967295
    }
  ],
  "vout": [
    {
      "scriptpubkey": "5120426c88094861f04aab106a513e6426a2150dbc919c318666f20ca7961ca57877",
      "scriptpubkey_asm": "OP_PUSHNUM_1 OP_PUSHBYTES_32 426c88094861f04aab106a513e6426a2150dbc919c318666f20ca7961ca57877",
      "scriptpubkey_type": "v1_p2tr",
      "scriptpubkey_address": "bc1pgfkgsz2gv8cy42csdfgnuepx5g2sm0y3nsccvehjpjnev8990pms7jp9n5",
      "value": 2114
    }
  ],
  "size": 323,
  "weight": 605,
  "fee": 2142,
  "status": {
    "confirmed": true,
    "block_height": 834638,
    "block_hash": "000000000000000000025f742c626208ac87e0b7d15054abb4a19ca2d735a54e",
    "block_time": 1710405325
  },
  "hex": "020000000001016f6c64152d713a67dccfa432843a47832afe8fda23870155d99374f8ef4651860000000000ffffffff014208000000000000225120426c88094861f04aab106a513e6426a2150dbc919c318666f20ca7961ca5787703401f46feda39a9100f640b4f7fc741d91aaff1c9f0897ff07d2a763071db01cccd4d96b970865da663ce80a9cfe894769596e5c426c487454b67784183bb2e16e17e20fb4ee56d668c8f153a7f079926b6a61209d1b86f982c854551c4306d006dfeabac0063036f7264010118746578742f706c61696e3b636861727365743d7574662d3800387b2270223a226272632d3230222c226f70223a227472616e73666572222c227469636b223a224d544d54222c22616d74223a22333333227d6821c0fb4ee56d668c8f153a7f079926b6a61209d1b86f982c854551c4306d006dfeab00000000"
}