{
  "txid": "2615f598299583dfc99c829c129da1eb188ec84cc48653df75558655b409f66e",
  "version": 1,
  "locktime": 0,
  "vin": [
    {
      "txid": "965273d0e68eb778f30f0dd138782e8a7194ba55b3d96703d305b2d34e905e47",
      "vout": 1,
      "prevout": {
        "scriptpubkey": "a9149128bb223c54f84cc247f4eb8bd3e0695a86769387",
        "scriptpubkey_asm": "OP_HASH160 OP_PUSHBYTES_20 9128bb223c54f84cc247f4eb8bd3e0695a867693 OP_EQUAL",
        "scriptpubkey_type": "p2sh",
        "scriptpubkey_address": "3EvYhQ3Ggi2j6dt3HFnuqMizVpxekbfrRw",
        "value": 21553096
      },
      "scriptsig": "160014fabc1cc1ea25a23622bfb2345c0da35e10d32a9f",
      "scriptsig_asm": "OP_PUSHBYTES_22 0014fabc1cc1ea25a23622bfb2345c0da35e10d32a9f",
      "witness": [
        "3044022042f96188fe4c3641c5e1fc6a5d6d46189bcaebb43e10110623ef882c74597e8b022070f5e969e19048554c7c02287acf4b596d6161af972730394e03670a0490531f01",
        "02cfb164ab4088d6a82f6a96e88f109e11beab28b9ed9e093730ad1a09471b9219"
      ],
      "is_coinbase": false,
      "sequence": 4294967293,
      "inner_redeemscript_asm": "OP_0 OP_PUSHBYTES_20 fabc1cc1ea25a23622bfb2345c0da35e10d32a9f"
    }
  ],
  "vout": [
    {
      "scriptpubkey": "a914a937cfd1d2b51dde13346888f1ce213868b38c6487",
      "scriptpubkey_asm": "OP_HASH160 OP_PUSHBYTES_20 a937cfd1d2b51dde13346888f1ce213868b38c64 OP_EQUAL",
      "scriptpubkey_type": "p2sh",
      "scriptpubkey_address": "3H7kyqMvXHQ6ttAomxMhoW8EafKJ1b7SxA",
      "value": 9550786
    },
    {
      "scriptpubkey": "0014f0eafcd519da937f77a83705aa8dd7cf4a9e702a",
      "scriptpubkey_asm": "OP_0 OP_PUSHBYTES_20 f0eafcd519da937f77a83705aa8dd7cf4a9e702a",
      "scriptpubkey_type": "v0_p2wpkh",
      "scriptpubkey_address": "bc1q7r40e4gem2fh7aagxuz64rwhea9fuup2g2cwt5",
      "value": 12000000
    }
  ],
  "size": 246,
  "weight": 657,
  "fee": 2310,
  "status": {
    "confirmed": true,
    "block_height": 834552,
    "block_hash": "00000000000000000001dd0468a70c94f619251d286585cff57aeb4bd9ede330",
    "block_time": 1710355598
  },
  "hex": "01000000000101475e904ed3b205d30367d9b355ba94718a2e7838d10d0ff378b78ee6d07352960100000017160014fabc1cc1ea25a23622bfb2345c0da35e10d32a9ffdffffff02c2bb91000000000017a914a937cfd1d2b51dde13346888f1ce213868b38c6487001bb70000000000160014f0eafcd519da937f77a83705aa8dd7cf4a9e702a02473044022042f96188fe4c3641c5e1fc6a5d6d46189bcaebb43e10110623ef882c74597e8b022070f5e969e19048554c7c02287acf4b596d6161af972730394e03670a0490531f012102cfb164ab4088d6a82f6a96e88f109e11beab28b9ed9e093730ad1a09471b921900000000"
}