{
  "txid": "261bb9755e4299510e74b033ea9d2c4484dd200a49681e0fe12875cb9e0f654f",
  "version": 2,
  "locktime": 834637,
  "vin": [
    {
      "txid": "10d44e89c9be89253117ce4af117c8b2b2cf3bb228f964e2b23e84c51044da5a",
      "vout": 0,
      "prevout": {
        "scriptpubkey": "00147ee8a2f1a12f2fa67a680d32c3509e77a47fba83",
        "scriptpubkey_asm": "OP_0 OP_PUSHBYTES_20 7ee8a2f1a12f2fa67a680d32c3509e77a47fba83",
        "scriptpubkey_type": "v0_p2wpkh",
        "scriptpubkey_address": "bc1q0m529udp9uh6v7ngp5evx5y7w7j8lw5rmsy2dh",
        "value": 721033432
      },
      "scriptsig": "",
      "scriptsig_asm": "",
      "witness": [
        "3044022024366e78550f3798c1e11b488a46a16441ce7458014386112109436edf2089f102202c4db598992fc5e96a6c03c0c190088a1c0cc4e97ae2afe81da98969b5c3e02b01",
        "03a054ad29242ef4a22a59bca1fdd9298da4037af9707f9f67fe32ccb070e67f5f"
      ],
      "is_coinbase": false,
      "sequence": 4294967294
    }
  ],
  "vout": [
    {
      "scriptpubkey": "a9143af06a62d2fdeec28262ccd2df298f0031dbe4ce87",
      "scriptpubkey_asm": "OP_HASH160 OP_PUSHBYTES_20 3af06a62d2fdeec28262ccd2df298f0031dbe4ce OP_EQUAL",
      "scriptpubkey_type": "p2sh",
      "scriptpubkey_address": "374f835NdcDeVVSmH5BWEcjnDVBLtBE6Ab",
      "value": 14867700
    },
    {
      "scriptpubkey": "0014501d134b4fa73e11b79222bc5f64dd3c688f1d24",
      "scriptpubkey_asm": "OP_0 OP_PUSHBYTES_20 501d134b4fa73e11b79222bc5f64dd3c688f1d24",
      "scriptpubkey_type": "v0_p2wpkh",
      "scriptpubkey_address": "bc1q2qw3xj605ulprdujy2797exa835g78fyqey38a",
      "value": 706162252
    }
  ],
  "size": 223,
  "weight": 565,
  "fee": 3480,
  "status": {
    "confirmed": true,
    "block_height": 834638,
    "block_hash": "000000000000000000025f742c626208ac87e0b7d15054abb4a19ca2d735a54e",
    "block_time": 1710405325
  },
  "hex": "020000000001015ada4410c5843eb2e264f928b23bcfb2b2c817f14ace17312589bec9894ed4100000000000feffffff02f4dce2000000000017a9143af06a62d2fdeec28262ccd2df298f0031dbe4ce874c2e172a00000000160014501d134b4fa73e11b79222bc5f64dd3c688f1d2402473044022024366e78550f3798c1e11b488a46a16441ce7458014386112109436edf2089f102202c4db598992fc5e96a6c03c0c190088a1c0cc4e97ae2afe81da98969b5c3e02b012103a054ad29242ef4a22a59bca1fdd9298da4037af9707f9f67fe32ccb070e67f5f4dbc0c00"
}