{
  "txid": "261b872085835c90fc6f61c9a27dc5e40e02f922a9bc444f9c567971458df508",
  "version": 2,
  "locktime": 834637,
  "vin": [
    {
      "txid": "406bb05e8139b222e98e146f20f1ae528087364acefd36434fe38b89dae3aa49",
      "vout": 1,
      "prevout": {
        "scriptpubkey": "0014946185abb5d5df3722df2e3063f38651a11c34ab",
        "scriptpubkey_asm": "OP_0 OP_PUSHBYTES_20 946185abb5d5df3722df2e3063f38651a11c34ab",
        "scriptpubkey_type": "v0_p2wpkh",
        "scriptpubkey_address": "bc1qj3sct2a46h0nwgkl9ccx8uux2xs3cd9twt9xwt",
        "value": 490600
      },
      "scriptsig": "",
      "scriptsig_asm": "",
      "witness": [
        "3044022072be8d0de6411af4ac5e920636eafc767afe7f94672c33593fe50357bcd92eb402207eebf526c8d9d1f18caaca133e9bd642318c4dd456010a4aafd09e6ff56db16001",
        "03029b7f7cf1c05aac886e9c306cad6e0b56b18fbccab88015127621cf0e033aed"
      ],
      "is_coinbase": false,
      "sequence": 4294967293
    }
  ],
  "vout": [
    {
      "scriptpubkey": "0014eba0da330033670df4289a5f5bc17746d4db5518",
      "scriptpubkey_asm": "OP_0 OP_PUSHBYTES_20 eba0da330033670df4289a5f5bc17746d4db5518",
      "scriptpubkey_type": "v0_p2wpkh",
      "scriptpubkey_address": "bc1qawsd5vcqxdnsmapgnf04hsthgm2dk4gc4u2vvc",
      "value": 74700
    },
    {
      "scriptpubkey": "76a9145291363b896fabdb0ade0573a18b0e1e30bbf64988ac",
      "scriptpubkey_asm": "OP_DUP OP_HASH160 OP_PUSHBYTES_20 5291363b896fabdb0ade0573a18b0e1e30bbf649 OP_EQUALVERIFY OP_CHECKSIG",
      "scriptpubkey_type": "p2pkh",
      "scriptpubkey_address": "18XaNE7NehTRLDGjfCCHRtr1vJwYZqCvQz",
      "value": 410000
    }
  ],
  "size": 225,
  "weight": 573,
  "fee": 5900,
  "status": {
    "confirmed": true,
    "block_height": 834638,
    "block_hash": "000000000000000000025f742c626208ac87e0b7d15054abb4a19ca2d735a54e",
    "block_time": 1710405325
  },
  "hex": "0200000000010149aae3da898be34f4336fdce4a36878052aef1206f148ee922b239815eb06b400100000000fdffffff02cc23010000000000160014eba0da330033670df4289a5f5bc17746d4db551890410600000000001976a9145291363b896fabdb0ade0573a18b0e1e30bbf64988ac02473044022072be8d0de6411af4ac5e920636eafc767afe7f94672c33593fe50357bcd92eb402207eebf526c8d9d1f18caaca133e9bd642318c4dd456010a4aafd09e6ff56db160012103029b7f7cf1c05aac886e9c306cad6e0b56b18fbccab88015127621cf0e033aed4dbc0c00"
}