{
  "txid": "262161bef2f4193f852de5c645d00fe155de3c2ec86e7d3bbf2052eb0939d7ab",
  "version": 1,
  "locktime": 0,
  "vin": [
    {
      "txid": "abef42f35b3f75e8748b3ed3e4fac1b39decfc16eafc5de4e7594bf439c5c617",
      "vout": 0,
      "prevout": {
        "scriptpubkey": "51208738aa9b83a2f21e679b8a2451045114d9e04f540ca6c28a4d37fd68404537b0",
        "scriptpubkey_asm": "OP_PUSHNUM_1 OP_PUSHBYTES_32 8738aa9b83a2f21e679b8a2451045114d9e04f540ca6c28a4d37fd68404537b0",
        "scriptpubkey_type": "v1_p2tr",
        "scriptpubkey_address": "bc1psuu24xur5tepueum3gj9zpz3znv7qn65pjnv9zjdxl7kssz9x7cqcn4n7x",
        "value": 133638
      },
      "scriptsig": "",
      "scriptsig_asm": "",
      "witness": [
        "8422fe629ce87ef2656401fef04c21b4ef0a3b5f58441d8826f919e86a70ecfdb0c1b39f6a884dea52f0be7a25490c184329ae0b1d160c97402c9edf0dc5ebfb01"
      ],
      "is_coinbase": false,
      "sequence": 4294967295
    },
    {
      "txid": "352649fd1606c8bdadcba5d5df021525504d260d92814080db6c5f7e014cc667",
      "vout": 0,
      "prevout": {
        "scriptpubkey": "5120787bfd4df5011bf9aa1671eeedb8c4e00d5c19a92fc35811e95cd61cbfa8e250",
        "scriptpubkey_asm": "OP_PUSHNUM_1 OP_PUSHBYTES_32 787bfd4df5011bf9aa1671eeedb8c4e00d5c19a92fc35811e95cd61cbfa8e250",
        "scriptpubkey_type": "v1_p2tr",
        "scriptpubkey_address": "bc1p0pal6n04qydln2skw8hwmwxyuqx4cxdf9lp4sy0ftntpe0agufgqn9s8ux",
        "value": 6829
      },
      "scriptsig": "",
      "scriptsig_asm": "",
      "witness": [
        "8400748c1463d389f64c5e265570828e2f9fb605cf028f368117054dbba9aaadc7f4e37310b58af02589baaaa36487b632394d1e663bd99056c4b57a6d31083901"
      ],
      "is_coinbase": false,
      "sequence": 4294967295
    },
    {
      "txid": "88379fe8311469fffc5c2e5c7119a07a8a7e3ac95610005d6830726630368b53",
      "vout": 0,
      "prevout": {
        "scriptpubkey": "512092293b6abfd8613b27004e9e5a822b32d3f5ef5e0164e6ba77888c6f6b17ea4a",
        "scriptpubkey_asm": "OP_PUSHNUM_1 OP_PUSHBYTES_32 92293b6abfd8613b27004e9e5a822b32d3f5ef5e0164e6ba77888c6f6b17ea4a",
        "scriptpubkey_type": "v1_p2tr",
        "scriptpubkey_address": "bc1pjg5nk64lmpsnkfcqf6094q3txtfltm67q9jwdwnh3zxx76chaf9qtdx6g6",
        "value": 2312
      },
      "scriptsig": "",
      "scriptsig_asm": "",
      "witness": [
        "0cc413dea027b51cc6e43d1c6c7c00bcf9fd0421c7ee7d675d0b03663d9c2385eff69f87220798972900686424349ae3ce42bea82996196dcae06744e769770801"
      ],
      "is_coinbase": false,
      "sequence": 4294967295
    }
  ],
  "vout": [
    {
      "scriptpubkey": "512080eed02e192713ad62193c1b8751e8047bdc7239b2b29972f4a73eaeed651cbb",
      "scriptpubkey_asm": "OP_PUSHNUM_1 OP_PUSHBYTES_32 80eed02e192713ad62193c1b8751e8047bdc7239b2b29972f4a73eaeed651cbb",
      "scriptpubkey_type": "v1_p2tr",
      "scriptpubkey_address": "bc1psrhdqtseyuf66cse8sdcw50gq3aacu3ek2efjuh55ul2amt9rjas50hp8e",
      "value": 1056
    },
    {
      "scriptpubkey": "001461c7d01dc1c3580095c9023945c3f3ad954bad68",
      "scriptpubkey_asm": "OP_0 OP_PUSHBYTES_20 61c7d01dc1c3580095c9023945c3f3ad954bad68",
      "scriptpubkey_type": "v0_p2wpkh",
      "scriptpubkey_address": "bc1qv8raq8wpcdvqp9wfqgu5tsln4k25httgqfpx8x",
      "value": 137359
    }
  ],
  "size": 410,
  "weight": 1031,
  "fee": 4364,
  "status": {
    "confirmed": true,
    "block_height": 834638,
    "block_hash": "000000000000000000025f742c626208ac87e0b7d15054abb4a19ca2d735a54e",
    "block_time": 1710405325
  },
  "hex": "0100000000010317c6c539f44b59e7e45dfcea16fcec9db3c1fae4d33e8b74e8753f5bf342efab0000000000ffffffff67c64c017e5f6cdb804081920d264d50251502dfd5a5cbadbdc80616fd4926350000000000ffffffff538b3630667230685d001056c93a7e8a7aa019715c2e5cfcff691431e89f37880000000000ffffffff02200400000000000022512080eed02e192713ad62193c1b8751e8047bdc7239b2b29972f4a73eaeed651cbb8f1802000000000016001461c7d01dc1c3580095c9023945c3f3ad954bad6801418422fe629ce87ef2656401fef04c21b4ef0a3b5f58441d8826f919e86a70ecfdb0c1b39f6a884dea52f0be7a25490c184329ae0b1d160c97402c9edf0dc5ebfb0101418400748c1463d389f64c5e265570828e2f9fb605cf028f368117054dbba9aaadc7f4e37310b58af02589baaaa36487b632394d1e663bd99056c4b57a6d3108390101410cc413dea027b51cc6e43d1c6c7c00bcf9fd0421c7ee7d675d0b03663d9c2385eff69f87220798972900686424349ae3ce42bea82996196dcae06744e76977080100000000"
}