{
  "txid": "2626f494d095b5653ccbd6b7f521a3d564441082de5dd1bd8d92ea35af0c9fa8",
  "version": 2,
  "locktime": 834637,
  "vin": [
    {
      "txid": "915e0d1d8ece775ccc6dcacfaa7e94a34a597a7714371d7d442dd54384868348",
      "vout": 0,
      "prevout": {
        "scriptpubkey": "0014041801050641036e7dfc91dc7040de4c0043eca8",
        "scriptpubkey_asm": "OP_0 OP_PUSHBYTES_20 041801050641036e7dfc91dc7040de4c0043eca8",
        "scriptpubkey_type": "v0_p2wpkh",
        "scriptpubkey_address": "bc1qqsvqzpgxgypkul0uj8w8qsx7fsqy8m9gs3jzea",
        "value": 3410499
      },
      "scriptsig": "",
      "scriptsig_asm": "",
      "witness": [
        "304402202ba2ad7177b49105b695b5fad46d98524fab1eebf7e5727661bb97ebbd487ff00220672d07fe174231d75e19651bebe99a24dfb8f6e9adb2cb446532fdacf6df4a9601",
        "02d22a441599ebdf9055406097a33aea208fd96b968e1ec6f114af0b9cfc19897f"
      ],
      "is_coinbase": false,
      "sequence": 4294967293
    }
  ],
  "vout": [
    {
      "scriptpubkey": "002017a20ed16f5e02422923cf3385e969ae57a587c88663ec665ad9aeaa23d5a9d2",
      "scriptpubkey_asm": "OP_0 OP_PUSHBYTES_32 17a20ed16f5e02422923cf3385e969ae57a587c88663ec665ad9aeaa23d5a9d2",
      "scriptpubkey_type": "v0_p2wsh",
      "scriptpubkey_address": "bc1qz73qa5t0tcpyy2freuect6tf4et6tp7gse37cej6mxh25g7448fqj5vy0s",
      "value": 815530
    },
    {
      "scriptpubkey": "0014638af4c44f2faa3d5e88dade46927880f84ad941",
      "scriptpubkey_asm": "OP_0 OP_PUSHBYTES_20 638af4c44f2faa3d5e88dade46927880f84ad941",
      "scriptpubkey_type": "v0_p2wpkh",
      "scriptpubkey_address": "bc1qvw90f3z0974r6h5gmt0ydyncsruy4k2phc7tzs",
      "value": 2587310
    }
  ],
  "size": 234,
  "weight": 609,
  "fee": 7659,
  "status": {
    "confirmed": true,
    "block_height": 834638,
    "block_hash": "000000000000000000025f742c626208ac87e0b7d15054abb4a19ca2d735a54e",
    "block_time": 1710405325
  },
  "hex": "020000000001014883868443d52d447d1d3714777a594aa3947eaacfca6dcc5c77ce8e1d0d5e910000000000fdffffff02aa710c000000000022002017a20ed16f5e02422923cf3385e969ae57a587c88663ec665ad9aeaa23d5a9d2ae7a270000000000160014638af4c44f2faa3d5e88dade46927880f84ad9410247304402202ba2ad7177b49105b695b5fad46d98524fab1eebf7e5727661bb97ebbd487ff00220672d07fe174231d75e19651bebe99a24dfb8f6e9adb2cb446532fdacf6df4a96012102d22a441599ebdf9055406097a33aea208fd96b968e1ec6f114af0b9cfc19897f4dbc0c00"
}