{
  "txid": "2636a82421d404415e259898ed307963bba2f87ef6343e0c98fe746948ca9bf8",
  "version": 2,
  "locktime": 0,
  "vin": [
    {
      "txid": "7131f061afd41ce959f7de6370dc52e42bc39174f6e1a9c138153efb8b380d43",
      "vout": 0,
      "prevout": {
        "scriptpubkey": "001474dc863677606ff48d4495d75646f8286bfffe28",
        "scriptpubkey_asm": "OP_0 OP_PUSHBYTES_20 74dc863677606ff48d4495d75646f8286bfffe28",
        "scriptpubkey_type": "v0_p2wpkh",
        "scriptpubkey_address": "bc1qwnwgvdnhvphlfr2yjht4v3hc9p4lll3g8t927h",
        "value": 600
      },
      "scriptsig": "",
      "scriptsig_asm": "",
      "witness": [
        "30450221008cabb299a531fab06f72e155de0868e630397813077be349f476f6d3f863437602203c8d84b362c54a76b768c31ddbb08374f0c3231a11e2527193a74445dbd4953f01",
        "0363d5560d682b56d59d3af6999de2cd37264175d421cab6baffc61cd1c8656200"
      ],
      "is_coinbase": false,
      "sequence": 4294967295
    },
    {
      "txid": "7131f061afd41ce959f7de6370dc52e42bc39174f6e1a9c138153efb8b380d43",
      "vout": 1,
      "prevout": {
        "scriptpubkey": "001474dc863677606ff48d4495d75646f8286bfffe28",
        "scriptpubkey_asm": "OP_0 OP_PUSHBYTES_20 74dc863677606ff48d4495d75646f8286bfffe28",
        "scriptpubkey_type": "v0_p2wpkh",
        "scriptpubkey_address": "bc1qwnwgvdnhvphlfr2yjht4v3hc9p4lll3g8t927h",
        "value": 600
      },
      "scriptsig": "",
      "scriptsig_asm": "",
      "witness": [
        "3044022046319dfe71cdd1e3d6aabc1e97e080030f6999c7cce0807089c296f62439f46e022002dfe4299bf3c1385ac9fa193ce7e7ed2aee252b971c7cf2979c6b7f13f3e8b301",
        "0363d5560d682b56d59d3af6999de2cd37264175d421cab6baffc61cd1c8656200"
      ],
      "is_coinbase": false,
      "sequence": 4294967295
    },
    {
      "txid": "a7ef6da81281e27851e2e5c10a201cba2451cca3e06805447759a6bea7a046a5",
      "vout": 0,
      "prevout": {
        "scriptpubkey": "51205edf08475a0bd16cc9d1fb1d235d86e2942e8eb47d80e09ac06d6b026c1f86a3",
        "scriptpubkey_asm": "OP_PUSHNUM_1 OP_PUSHBYTES_32 5edf08475a0bd16cc9d1fb1d235d86e2942e8eb47d80e09ac06d6b026c1f86a3",
        "scriptpubkey_type": "v1_p2tr",
        "scriptpubkey_address": "bc1ptm0ss366p0gkejw3lvwjxhvxu22zar450kqwpxkqd44symqls63s99lmhg",
        "value": 546
      },
      "scriptsig": "",
      "scriptsig_asm": "",
      "witness": [
        "ab306ec9676abd0a52eec6a9568779f76cd6c37f13129dcca29545c71a14050a9c8c425cc47298e84e1b94a365333b293c7ba175c976b374ca022e1c93d5d9ca83"
      ],
      "is_coinbase": false,
      "sequence": 4294967295
    },
    {
      "txid": "7131f061afd41ce959f7de6370dc52e42bc39174f6e1a9c138153efb8b380d43",
      "vout": 10,
      "prevout": {
        "scriptpubkey": "001474dc863677606ff48d4495d75646f8286bfffe28",
        "scriptpubkey_asm": "OP_0 OP_PUSHBYTES_20 74dc863677606ff48d4495d75646f8286bfffe28",
        "scriptpubkey_type": "v0_p2wpkh",
        "scriptpubkey_address": "bc1qwnwgvdnhvphlfr2yjht4v3hc9p4lll3g8t927h",
        "value": 781860
      },
      "scriptsig": "",
      "scriptsig_asm": "",
      "witness": [
        "30440220018df7e0f21fe5fc42862aab4279ea64a84b5084cf1fbcb2d5df95e36cc19e6a02204b0e68498341ca07240410e9ae4449b3464112f9cec63f3dddaa637e22309ea801",
        "0363d5560d682b56d59d3af6999de2cd37264175d421cab6baffc61cd1c8656200"
      ],
      "is_coinbase": false,
      "sequence": 4294967295
    }
  ],
  "vout": [
    {
      "scriptpubkey": "001474dc863677606ff48d4495d75646f8286bfffe28",
      "scriptpubkey_asm": "OP_0 OP_PUSHBYTES_20 74dc863677606ff48d4495d75646f8286bfffe28",
      "scriptpubkey_type": "v0_p2wpkh",
      "scriptpubkey_address": "bc1qwnwgvdnhvphlfr2yjht4v3hc9p4lll3g8t927h",
      "value": 1200
    },
    {
      "scriptpubkey": "5120aa8bc83dc0ed4c92fa35dacb892f5ab0a8b278f0261fe60c4a52196108713a85",
      "scriptpubkey_asm": "OP_PUSHNUM_1 OP_PUSHBYTES_32 aa8bc83dc0ed4c92fa35dacb892f5ab0a8b278f0261fe60c4a52196108713a85",
      "scriptpubkey_type": "v1_p2tr",
      "scriptpubkey_address": "bc1p429us0wqa4xf9734mt9cjt66kz5ty78syc07vrz22gvkzzr382zs06mc5k",
      "value": 546
    },
    {
      "scriptpubkey": "a9140008b4a09d759cbd4ef40951518df2a0f9b9b00c87",
      "scriptpubkey_asm": "OP_HASH160 OP_PUSHBYTES_20 0008b4a09d759cbd4ef40951518df2a0f9b9b00c OP_EQUAL",
      "scriptpubkey_type": "p2sh",
      "scriptpubkey_address": "31hCMRBcRHZjX11tJRchw65ZhrDDbZYEhx",
      "value": 697046
    },
    {
      "scriptpubkey": "a914ea6b832a05c6ca578baa3836f3f25553d41068a587",
      "scriptpubkey_asm": "OP_HASH160 OP_PUSHBYTES_20 ea6b832a05c6ca578baa3836f3f25553d41068a5 OP_EQUAL",
      "scriptpubkey_type": "p2sh",
      "scriptpubkey_address": "3P4WqXDbSLRhzo2H6MT6YFbvBKBDPLbVtQ",
      "value": 17500
    },
    {
      "scriptpubkey": "001474dc863677606ff48d4495d75646f8286bfffe28",
      "scriptpubkey_asm": "OP_0 OP_PUSHBYTES_20 74dc863677606ff48d4495d75646f8286bfffe28",
      "scriptpubkey_type": "v0_p2wpkh",
      "scriptpubkey_address": "bc1qwnwgvdnhvphlfr2yjht4v3hc9p4lll3g8t927h",
      "value": 600
    },
    {
      "scriptpubkey": "001474dc863677606ff48d4495d75646f8286bfffe28",
      "scriptpubkey_asm": "OP_0 OP_PUSHBYTES_20 74dc863677606ff48d4495d75646f8286bfffe28",
      "scriptpubkey_type": "v0_p2wpkh",
      "scriptpubkey_address": "bc1qwnwgvdnhvphlfr2yjht4v3hc9p4lll3g8t927h",
      "value": 600
    },
    {
      "scriptpubkey": "001474dc863677606ff48d4495d75646f8286bfffe28",
      "scriptpubkey_asm": "OP_0 OP_PUSHBYTES_20 74dc863677606ff48d4495d75646f8286bfffe28",
      "scriptpubkey_type": "v0_p2wpkh",
      "scriptpubkey_address": "bc1qwnwgvdnhvphlfr2yjht4v3hc9p4lll3g8t927h",
      "value": 57546
    }
  ],
  "size": 796,
  "weight": 2011,
  "fee": 8568,
  "status": {
    "confirmed": true,
    "block_height": 834638,
    "block_hash": "000000000000000000025f742c626208ac87e0b7d15054abb4a19ca2d735a54e",
    "block_time": 1710405325
  },
  "hex": "02000000000104430d388bfb3e1538c1a9e1f67491c32be452dc7063def759e91cd4af61f031710000000000ffffffff430d388bfb3e1538c1a9e1f67491c32be452dc7063def759e91cd4af61f031710100000000ffffffffa546a0a7bea65977440568e0a3cc5124ba1c200ac1e5e25178e28112a86defa70000000000ffffffff430d388bfb3e1538c1a9e1f67491c32be452dc7063def759e91cd4af61f031710a00000000ffffffff07b00400000000000016001474dc863677606ff48d4495d75646f8286bfffe282202000000000000225120aa8bc83dc0ed4c92fa35dacb892f5ab0a8b278f0261fe60c4a52196108713a85d6a20a000000000017a9140008b4a09d759cbd4ef40951518df2a0f9b9b00c875c4400000000000017a914ea6b832a05c6ca578baa3836f3f25553d41068a587580200000000000016001474dc863677606ff48d4495d75646f8286bfffe28580200000000000016001474dc863677606ff48d4495d75646f8286bfffe28cae000000000000016001474dc863677606ff48d4495d75646f8286bfffe28024830450221008cabb299a531fab06f72e155de0868e630397813077be349f476f6d3f863437602203c8d84b362c54a76b768c31ddbb08374f0c3231a11e2527193a74445dbd4953f01210363d5560d682b56d59d3af6999de2cd37264175d421cab6baffc61cd1c865620002473044022046319dfe71cdd1e3d6aabc1e97e080030f6999c7cce0807089c296f62439f46e022002dfe4299bf3c1385ac9fa193ce7e7ed2aee252b971c7cf2979c6b7f13f3e8b301210363d5560d682b56d59d3af6999de2cd37264175d421cab6baffc61cd1c86562000141ab306ec9676abd0a52eec6a9568779f76cd6c37f13129dcca29545c71a14050a9c8c425cc47298e84e1b94a365333b293c7ba175c976b374ca022e1c93d5d9ca83024730440220018df7e0f21fe5fc42862aab4279ea64a84b5084cf1fbcb2d5df95e36cc19e6a02204b0e68498341ca07240410e9ae4449b3464112f9cec63f3dddaa637e22309ea801210363d5560d682b56d59d3af6999de2cd37264175d421cab6baffc61cd1c865620000000000"
}