{
  "txid": "263bbb12bfae9f0417e4c268999d34f458eee70724231d05e481a93bb4dd73a7",
  "version": 1,
  "locktime": 0,
  "vin": [
    {
      "txid": "8888888ba904c5b58e9d82a81d96df5ee1785647a3e52e1f0e261cbbe66202d0",
      "vout": 0,
      "prevout": {
        "scriptpubkey": "5120ca5226fd6db8a89bf297b71d08d82501a7cf7feba689ecb23b9fc2f22f230dbf",
        "scriptpubkey_asm": "OP_PUSHNUM_1 OP_PUSHBYTES_32 ca5226fd6db8a89bf297b71d08d82501a7cf7feba689ecb23b9fc2f22f230dbf",
        "scriptpubkey_type": "v1_p2tr",
        "scriptpubkey_address": "bc1peffzdltdhz5fhu5hkuws3kp9qxnu7llt56y7ev3mnlp0yterpkls4g8fxv",
        "value": 11627
      },
      "scriptsig": "",
      "scriptsig_asm": "",
      "witness": [
        "beb5f529ba6b7a8c8dfdc4d8a98804414c98e3e8289c6fb820774e2bd0af23cee339d2bd67749060f32ccb84fc2bb7b9402edb3ce6cdb08b787c850e3ac8b17e83",
        "20930d4ffacedaeeda983fbe6875a3f39bad4c323e8346d8dda5652f8cfd9db2eaac00630461746f6d03646d7442a16461726773a468626974776f726b6367383838383838386b6d696e745f7469636b657268696e66696e697479656e6f6e63651a006286786474696d651a65dc4ecf68",
        "c1930d4ffacedaeeda983fbe6875a3f39bad4c323e8346d8dda5652f8cfd9db2ea"
      ],
      "is_coinbase": false,
      "sequence": 4294967293
    }
  ],
  "vout": [
    {
      "scriptpubkey": "5120bf94882e5d0c036449dc3f1782adc8fe707e6d03ea0ecdd97e048b8da94a44b1",
      "scriptpubkey_asm": "OP_PUSHNUM_1 OP_PUSHBYTES_32 bf94882e5d0c036449dc3f1782adc8fe707e6d03ea0ecdd97e048b8da94a44b1",
      "scriptpubkey_type": "v1_p2tr",
      "scriptpubkey_address": "bc1ph72gstjapspkgjwu8utc9twglec8umgrag8vmkt7qj9cm222gjcsurlt3p",
      "value": 9999
    }
  ],
  "size": 311,
  "weight": 593,
  "fee": 1628,
  "status": {
    "confirmed": true,
    "block_height": 834464,
    "block_hash": "0000000000000000000177a0869a911a2b65c9bdcd5a8bcb02b68f305bee848e",
    "block_time": 1710308296
  },
  "hex": "01000000000101d00262e6bb1c260e1f2ee5a3475678e15edf961da8829d8eb5c504a98b8888880000000000fdffffff010f27000000000000225120bf94882e5d0c036449dc3f1782adc8fe707e6d03ea0ecdd97e048b8da94a44b10341beb5f529ba6b7a8c8dfdc4d8a98804414c98e3e8289c6fb820774e2bd0af23cee339d2bd67749060f32ccb84fc2bb7b9402edb3ce6cdb08b787c850e3ac8b17e837120930d4ffacedaeeda983fbe6875a3f39bad4c323e8346d8dda5652f8cfd9db2eaac00630461746f6d03646d7442a16461726773a468626974776f726b6367383838383838386b6d696e745f7469636b657268696e66696e697479656e6f6e63651a006286786474696d651a65dc4ecf6821c1930d4ffacedaeeda983fbe6875a3f39bad4c323e8346d8dda5652f8cfd9db2ea00000000"
}