{
  "txid": "264dda46242a930297449d5fb74da1c6f7ce7e0a4592a5e30a357fe04eb9622d",
  "version": 2,
  "locktime": 0,
  "vin": [
    {
      "txid": "573166c074d1f9d97e74b7e445ae9eee4071bb54005e0e28be99fe4fa5597b23",
      "vout": 43,
      "prevout": {
        "scriptpubkey": "51203b147a2302c39d19d0a2bce4146af93a16f71e260b0ad120921ab006023198dc",
        "scriptpubkey_asm": "OP_PUSHNUM_1 OP_PUSHBYTES_32 3b147a2302c39d19d0a2bce4146af93a16f71e260b0ad120921ab006023198dc",
        "scriptpubkey_type": "v1_p2tr",
        "scriptpubkey_address": "bc1p8v285gczcww3n59zhnjpg6he8gt0w83xpv9dzgyjr2cqvq33nrwqqxj6rn",
        "value": 3055
      },
      "scriptsig": "",
      "scriptsig_asm": "",
      "witness": [
        "1eae2475e1dff9919d70b08700a79edc2f3842176d2cb8dfce6ea569acb639f1f283495dfeb211019416483ef5b5a5b221e3795ccba9f99e0241b2dc56aa6f7f",
        "20c290b419e12660bd8f75b09813748564ce678b5faa58a3f6df00582fb2a4f660ac0063036f726401011e6170706c69636174696f6e2f6a736f6e3b636861727365743d7574662d38004cd37b2270223a22706f772d3230222c226f70223a226d696e74222c227469636b223a2250455045222c22616d74223a2231303030222c22736f6c7574696f6e223a22504550453a6263317070376e727a37746333726c6d6d72373773676a6b6b7561677073323971776830617261393430777a616878666b6d6e61687770717877667139703a303030303030303030303030303030303030303139393431613561653132383937363539383134343239323533333030353762306461393666336465613163353a3238373039313332343532227d68",
        "c0f1b4027b27384657c547a9d6289f3be45ec463ffc50ccbf57ef9c2d60d2b0f32"
      ],
      "is_coinbase": false,
      "sequence": 4294967295
    }
  ],
  "vout": [
    {
      "scriptpubkey": "51200fa631797888ffbd8fde82256b73a80c14503aefe8fa5abdc2edcc9b6e7dbb82",
      "scriptpubkey_asm": "OP_PUSHNUM_1 OP_PUSHBYTES_32 0fa631797888ffbd8fde82256b73a80c14503aefe8fa5abdc2edcc9b6e7dbb82",
      "scriptpubkey_type": "v1_p2tr",
      "scriptpubkey_address": "bc1pp7nrz7tc3rlmmr77sgjkkuagps29qwh0ara940wzahxfkmnahwpqxwfq9p",
      "value": 546
    }
  ],
  "size": 487,
  "weight": 769,
  "fee": 2509,
  "status": {
    "confirmed": true,
    "block_height": 834460,
    "block_hash": "00000000000000000000484a79b643b2524bbce82e5d8a442013fa5b8905ed98",
    "block_time": 1710307468
  },
  "hex": "02000000000101237b59a54ffe99be280e5e0054bb7140ee9eae45e4b7747ed9f9d174c06631572b00000000ffffffff0122020000000000002251200fa631797888ffbd8fde82256b73a80c14503aefe8fa5abdc2edcc9b6e7dbb8203401eae2475e1dff9919d70b08700a79edc2f3842176d2cb8dfce6ea569acb639f1f283495dfeb211019416483ef5b5a5b221e3795ccba9f99e0241b2dc56aa6f7ffd200120c290b419e12660bd8f75b09813748564ce678b5faa58a3f6df00582fb2a4f660ac0063036f726401011e6170706c69636174696f6e2f6a736f6e3b636861727365743d7574662d38004cd37b2270223a22706f772d3230222c226f70223a226d696e74222c227469636b223a2250455045222c22616d74223a2231303030222c22736f6c7574696f6e223a22504550453a6263317070376e727a37746333726c6d6d72373773676a6b6b7561677073323971776830617261393430777a616878666b6d6e61687770717877667139703a303030303030303030303030303030303030303139393431613561653132383937363539383134343239323533333030353762306461393666336465613163353a3238373039313332343532227d6821c0f1b4027b27384657c547a9d6289f3be45ec463ffc50ccbf57ef9c2d60d2b0f3200000000"
}