{
  "txid": "2658579ef19fc30c16a573883ac4b0d97b943fe7f4c8d3437fb94c4aeff6240f",
  "version": 2,
  "locktime": 0,
  "vin": [
    {
      "txid": "e062d46cf6f07ec34086e8dccfa9e0c5e82e8a46d9af9320e106170cfa794bd2",
      "vout": 1,
      "prevout": {
        "scriptpubkey": "76a914ca315a0f025c240aac234cad03ff386337d9e41f88ac",
        "scriptpubkey_asm": "OP_DUP OP_HASH160 OP_PUSHBYTES_20 ca315a0f025c240aac234cad03ff386337d9e41f OP_EQUALVERIFY OP_CHECKSIG",
        "scriptpubkey_type": "p2pkh",
        "scriptpubkey_address": "1KS6cmo8jtWjCqnLCEZWLzPNCpsaq87DcD",
        "value": 23807
      },
      "scriptsig": "483045022100fb365b6c9c2df6362c401467775f62154c744aafc39259616a47fb8f2713e99a02206444382fc255231f9c88e2ee5de18d145778f6b2e51d85c672d192309a399744012102f32b3ef353792fe947ea77b546e6645344e26ddda9d9ec950c4908b8e495e91f",
      "scriptsig_asm": "OP_PUSHBYTES_72 3045022100fb365b6c9c2df6362c401467775f62154c744aafc39259616a47fb8f2713e99a02206444382fc255231f9c88e2ee5de18d145778f6b2e51d85c672d192309a39974401 OP_PUSHBYTES_33 02f32b3ef353792fe947ea77b546e6645344e26ddda9d9ec950c4908b8e495e91f",
      "is_coinbase": false,
      "sequence": 4294967295
    }
  ],
  "vout": [
    {
      "scriptpubkey": "76a9141f56e4d11528d9a7123c3d03a467724647a1c77888ac",
      "scriptpubkey_asm": "OP_DUP OP_HASH160 OP_PUSHBYTES_20 1f56e4d11528d9a7123c3d03a467724647a1c778 OP_EQUALVERIFY OP_CHECKSIG",
      "scriptpubkey_type": "p2pkh",
      "scriptpubkey_address": "13ri3SDvrT647LTWT2xwGkudDSx7rmDGPE",
      "value": 13703
    },
    {
      "scriptpubkey": "76a914d8e4e8c488344947ff393ac49821ce36df98021e88ac",
      "scriptpubkey_asm": "OP_DUP OP_HASH160 OP_PUSHBYTES_20 d8e4e8c488344947ff393ac49821ce36df98021e OP_EQUALVERIFY OP_CHECKSIG",
      "scriptpubkey_type": "p2pkh",
      "scriptpubkey_address": "1LmqBL586W59yjjY1nnQGbcxPbJ3YaDK92",
      "value": 3017
    }
  ],
  "size": 226,
  "weight": 904,
  "fee": 7087,
  "status": {
    "confirmed": true,
    "block_height": 834638,
    "block_hash": "000000000000000000025f742c626208ac87e0b7d15054abb4a19ca2d735a54e",
    "block_time": 1710405325
  },
  "hex": "0200000001d24b79fa0c1706e12093afd9468a2ee8c5e0a9cfdce88640c37ef0f66cd462e0010000006b483045022100fb365b6c9c2df6362c401467775f62154c744aafc39259616a47fb8f2713e99a02206444382fc255231f9c88e2ee5de18d145778f6b2e51d85c672d192309a399744012102f32b3ef353792fe947ea77b546e6645344e26ddda9d9ec950c4908b8e495e91fffffffff0287350000000000001976a9141f56e4d11528d9a7123c3d03a467724647a1c77888acc90b0000000000001976a914d8e4e8c488344947ff393ac49821ce36df98021e88ac00000000"
}