{
  "txid": "265ff1c60d30b1cf11ff069aaa39d303bfe20ced38b1794dddc3d67d5322805b",
  "version": 1,
  "locktime": 0,
  "vin": [
    {
      "txid": "4b96efea6e2837f681cffe8e4dd9c80836ff0266c6083b3bfca9e3674320900d",
      "vout": 0,
      "prevout": {
        "scriptpubkey": "0014d26aecb47867c317551c5852cfd064908d25599e",
        "scriptpubkey_asm": "OP_0 OP_PUSHBYTES_20 d26aecb47867c317551c5852cfd064908d25599e",
        "scriptpubkey_type": "v0_p2wpkh",
        "scriptpubkey_address": "bc1q6f4wedrcvlp3w4gutpfvl5ryjzxj2kv7k03gux",
        "value": 69551
      },
      "scriptsig": "",
      "scriptsig_asm": "",
      "witness": [
        "304402205013f7be3d437629bb8dbe94ee43901fa1482b6fd747c9c76036ec7cc6a40abf022070a6f4630211d330e60ff86c0ef3c2ba923a184df331e9286c4a6001d09fc3cd01",
        "0325fdd71ea033d9ed08ba2df28dd640b7de08370692aa5f71cf877e9c80a23679"
      ],
      "is_coinbase": false,
      "sequence": 4294967295
    },
    {
      "txid": "3fe49750306a5cead925e41c90a16d58372b9b0b5ce2fe0741b59093e6744ecd",
      "vout": 1,
      "prevout": {
        "scriptpubkey": "0014d26aecb47867c317551c5852cfd064908d25599e",
        "scriptpubkey_asm": "OP_0 OP_PUSHBYTES_20 d26aecb47867c317551c5852cfd064908d25599e",
        "scriptpubkey_type": "v0_p2wpkh",
        "scriptpubkey_address": "bc1q6f4wedrcvlp3w4gutpfvl5ryjzxj2kv7k03gux",
        "value": 145367
      },
      "scriptsig": "",
      "scriptsig_asm": "",
      "witness": [
        "3045022100ca02b0e5fe8eff2e20a8c67b4326425030ac6f4f0c20d554e2b9c55fa1444f7b022041d8dfaf60760238e55dd55997b4ac5b339723fdab933c891dec932a9632f71b01",
        "0325fdd71ea033d9ed08ba2df28dd640b7de08370692aa5f71cf877e9c80a23679"
      ],
      "is_coinbase": false,
      "sequence": 4294967295
    },
    {
      "txid": "52d9388ee5a1fa45339324ee024b109c8164f7107f19e30b036db58e11d984f2",
      "vout": 0,
      "prevout": {
        "scriptpubkey": "0014d26aecb47867c317551c5852cfd064908d25599e",
        "scriptpubkey_asm": "OP_0 OP_PUSHBYTES_20 d26aecb47867c317551c5852cfd064908d25599e",
        "scriptpubkey_type": "v0_p2wpkh",
        "scriptpubkey_address": "bc1q6f4wedrcvlp3w4gutpfvl5ryjzxj2kv7k03gux",
        "value": 330911
      },
      "scriptsig": "",
      "scriptsig_asm": "",
      "witness": [
        "3045022100862bd4c409c97277aeebcea1cd8282fa1d438f22de76eb92c12dba6daaed923c0220122a8519ac19d31a7e03e7c13051da9da4d3341f4f8d00300f6314250eb24a4d01",
        "0325fdd71ea033d9ed08ba2df28dd640b7de08370692aa5f71cf877e9c80a23679"
      ],
      "is_coinbase": false,
      "sequence": 4294967295
    },
    {
      "txid": "c3e319e3314b9cb511d919e7367ee0114738491e7d8ac76cb85e64723f23c2fb",
      "vout": 0,
      "prevout": {
        "scriptpubkey": "0014d26aecb47867c317551c5852cfd064908d25599e",
        "scriptpubkey_asm": "OP_0 OP_PUSHBYTES_20 d26aecb47867c317551c5852cfd064908d25599e",
        "scriptpubkey_type": "v0_p2wpkh",
        "scriptpubkey_address": "bc1q6f4wedrcvlp3w4gutpfvl5ryjzxj2kv7k03gux",
        "value": 671571
      },
      "scriptsig": "",
      "scriptsig_asm": "",
      "witness": [
        "304502210098bbc89e2ee6f3f5f18472af596a31aec5917ba18ec4347a8c51142288bc2dfb0220618f96b6a5171e7fa4d13cb0f73af1b602bde52aaba6460399de3a82caef844d01",
        "0325fdd71ea033d9ed08ba2df28dd640b7de08370692aa5f71cf877e9c80a23679"
      ],
      "is_coinbase": false,
      "sequence": 4294967295
    },
    {
      "txid": "a8c38684eeec23857beec4f6079e46db9c71b2957d1d8ac8e0be7ac54db8609e",
      "vout": 0,
      "prevout": {
        "scriptpubkey": "0014d26aecb47867c317551c5852cfd064908d25599e",
        "scriptpubkey_asm": "OP_0 OP_PUSHBYTES_20 d26aecb47867c317551c5852cfd064908d25599e",
        "scriptpubkey_type": "v0_p2wpkh",
        "scriptpubkey_address": "bc1q6f4wedrcvlp3w4gutpfvl5ryjzxj2kv7k03gux",
        "value": 297417
      },
      "scriptsig": "",
      "scriptsig_asm": "",
      "witness": [
        "3044022024db6d0c329d792997909c50612bd20f59f1968f3006a93dfa85ce66071d8654022074d180ccea64473f220d86be26d9d298894b4adac7984d8b8c38f97f4dc4199901",
        "0325fdd71ea033d9ed08ba2df28dd640b7de08370692aa5f71cf877e9c80a23679"
      ],
      "is_coinbase": false,
      "sequence": 4294967295
    },
    {
      "txid": "5d111ce90677e8bbb3f1358fe271db2caa78ab223eb1e4f109a0984679c7904a",
      "vout": 0,
      "prevout": {
        "scriptpubkey": "0014d26aecb47867c317551c5852cfd064908d25599e",
        "scriptpubkey_asm": "OP_0 OP_PUSHBYTES_20 d26aecb47867c317551c5852cfd064908d25599e",
        "scriptpubkey_type": "v0_p2wpkh",
        "scriptpubkey_address": "bc1q6f4wedrcvlp3w4gutpfvl5ryjzxj2kv7k03gux",
        "value": 280122
      },
      "scriptsig": "",
      "scriptsig_asm": "",
      "witness": [
        "304402200c9ca798bed1a662ae833331c4d8e8fc45cd13f3c2a6dc0d48f646d81e70d9c0022034a4b5006f25697d1ab5f54e1abd4e9fd01af023cfcf16d968d0ae87b7f8117701",
        "0325fdd71ea033d9ed08ba2df28dd640b7de08370692aa5f71cf877e9c80a23679"
      ],
      "is_coinbase": false,
      "sequence": 4294967295
    },
    {
      "txid": "79fa9c3fc6cb54469f3abe9c27865b7c92e5c40f117697596b35ae9d112c89a7",
      "vout": 0,
      "prevout": {
        "scriptpubkey": "0014d26aecb47867c317551c5852cfd064908d25599e",
        "scriptpubkey_asm": "OP_0 OP_PUSHBYTES_20 d26aecb47867c317551c5852cfd064908d25599e",
        "scriptpubkey_type": "v0_p2wpkh",
        "scriptpubkey_address": "bc1q6f4wedrcvlp3w4gutpfvl5ryjzxj2kv7k03gux",
        "value": 300000
      },
      "scriptsig": "",
      "scriptsig_asm": "",
      "witness": [
        "3045022100e6267dd5497259a630f23a47a49dfd3f8d63b3e23461c8edb230aeeefa7d10e3022017c3742bbb21ccc158d4f51736f46024eeeb50287124d70fc16272032e4e58e601",
        "0325fdd71ea033d9ed08ba2df28dd640b7de08370692aa5f71cf877e9c80a23679"
      ],
      "is_coinbase": false,
      "sequence": 4294967295
    },
    {
      "txid": "c7e6b07a08c8088ae6f430cf35d17e9469d8fecb535be01ed131c05599bb0afa",
      "vout": 0,
      "prevout": {
        "scriptpubkey": "0014d26aecb47867c317551c5852cfd064908d25599e",
        "scriptpubkey_asm": "OP_0 OP_PUSHBYTES_20 d26aecb47867c317551c5852cfd064908d25599e",
        "scriptpubkey_type": "v0_p2wpkh",
        "scriptpubkey_address": "bc1q6f4wedrcvlp3w4gutpfvl5ryjzxj2kv7k03gux",
        "value": 310835
      },
      "scriptsig": "",
      "scriptsig_asm": "",
      "witness": [
        "3045022100a5e54215f861ecc157809af029e9ce3f27ed99bc4637e4084969705aab63dfd7022054206a077869b6b0893ff694479b7c647d6468a15a3aa90c0389a77ce2e17b5101",
        "0325fdd71ea033d9ed08ba2df28dd640b7de08370692aa5f71cf877e9c80a23679"
      ],
      "is_coinbase": false,
      "sequence": 4294967295
    },
    {
      "txid": "1e3ab76a18a8925d858d66890fd8897aec295d9c88d62e7bf134f450b51376c9",
      "vout": 0,
      "prevout": {
        "scriptpubkey": "0014d26aecb47867c317551c5852cfd064908d25599e",
        "scriptpubkey_asm": "OP_0 OP_PUSHBYTES_20 d26aecb47867c317551c5852cfd064908d25599e",
        "scriptpubkey_type": "v0_p2wpkh",
        "scriptpubkey_address": "bc1q6f4wedrcvlp3w4gutpfvl5ryjzxj2kv7k03gux",
        "value": 499700
      },
      "scriptsig": "",
      "scriptsig_asm": "",
      "witness": [
        "3044022062f0ff97705d97a37d1d35e989b4c8b84dbd5c7dba13969c17d71e25827efdeb022056998a3553e127f1d476a4d4da9b4b3dba3d2f479da3fed35e584e5a91370de701",
        "0325fdd71ea033d9ed08ba2df28dd640b7de08370692aa5f71cf877e9c80a23679"
      ],
      "is_coinbase": false,
      "sequence": 4294967295
    },
    {
      "txid": "e0d7a92e7977e85f425f675ca582eb218b0f3b8f2919ced0115f7d573d1c47ee",
      "vout": 0,
      "prevout": {
        "scriptpubkey": "0014d26aecb47867c317551c5852cfd064908d25599e",
        "scriptpubkey_asm": "OP_0 OP_PUSHBYTES_20 d26aecb47867c317551c5852cfd064908d25599e",
        "scriptpubkey_type": "v0_p2wpkh",
        "scriptpubkey_address": "bc1q6f4wedrcvlp3w4gutpfvl5ryjzxj2kv7k03gux",
        "value": 305516
      },
      "scriptsig": "",
      "scriptsig_asm": "",
      "witness": [
        "3045022100dfadda123f7811d9068c7fb13a837b97efbc474eb5f3912d3b5954dc18cc38b302207c49840b1b102ee57608e51d29698102c4f9ebf72a0d1c182e1612240c9d19d901",
        "0325fdd71ea033d9ed08ba2df28dd640b7de08370692aa5f71cf877e9c80a23679"
      ],
      "is_coinbase": false,
      "sequence": 4294967295
    },
    {
      "txid": "80787b1d85c07484f57bcdde5ec33805c0f60bc68b006027e40608ea74d66d22",
      "vout": 0,
      "prevout": {
        "scriptpubkey": "0014d26aecb47867c317551c5852cfd064908d25599e",
        "scriptpubkey_asm": "OP_0 OP_PUSHBYTES_20 d26aecb47867c317551c5852cfd064908d25599e",
        "scriptpubkey_type": "v0_p2wpkh",
        "scriptpubkey_address": "bc1q6f4wedrcvlp3w4gutpfvl5ryjzxj2kv7k03gux",
        "value": 219745
      },
      "scriptsig": "",
      "scriptsig_asm": "",
      "witness": [
        "304402203267154a9e0ab672957fefd5412987e2eda337782e52f97c46880f393f29f8730220621331164afde8a953f57b306baea5dcf51f5cf14639b7997e22a8c650db221d01",
        "0325fdd71ea033d9ed08ba2df28dd640b7de08370692aa5f71cf877e9c80a23679"
      ],
      "is_coinbase": false,
      "sequence": 4294967295
    },
    {
      "txid": "9c2a2ee11c098805562a5a3120e975670d8a65efdd2d510b2a28e099f060303d",
      "vout": 0,
      "prevout": {
        "scriptpubkey": "0014d26aecb47867c317551c5852cfd064908d25599e",
        "scriptpubkey_asm": "OP_0 OP_PUSHBYTES_20 d26aecb47867c317551c5852cfd064908d25599e",
        "scriptpubkey_type": "v0_p2wpkh",
        "scriptpubkey_address": "bc1q6f4wedrcvlp3w4gutpfvl5ryjzxj2kv7k03gux",
        "value": 631306
      },
      "scriptsig": "",
      "scriptsig_asm": "",
      "witness": [
        "3044022077f897595f16f0be7c5e2a1f834fcb929d5f69bf0f5b1ae62625f064fb7787e7022038b9ee965f87c559f1c3f4370ae893c93077ec5d554e825552f3d336a8dc282501",
        "0325fdd71ea033d9ed08ba2df28dd640b7de08370692aa5f71cf877e9c80a23679"
      ],
      "is_coinbase": false,
      "sequence": 4294967295
    },
    {
      "txid": "c664c129e91a48e88309a299c9a41d93632fcee89cfc3144acd6c5b9f7b3f00a",
      "vout": 0,
      "prevout": {
        "scriptpubkey": "0014d26aecb47867c317551c5852cfd064908d25599e",
        "scriptpubkey_asm": "OP_0 OP_PUSHBYTES_20 d26aecb47867c317551c5852cfd064908d25599e",
        "scriptpubkey_type": "v0_p2wpkh",
        "scriptpubkey_address": "bc1q6f4wedrcvlp3w4gutpfvl5ryjzxj2kv7k03gux",
        "value": 273220
      },
      "scriptsig": "",
      "scriptsig_asm": "",
      "witness": [
        "3045022100c1d7ab2bcb094bc750f3851c65b503d5254c7af2333d37df55165568b46ddf8c0220318ee4ef4ce32022259b9e83355af7da4021ed84278b1a1d5c93ef84ee95a52501",
        "0325fdd71ea033d9ed08ba2df28dd640b7de08370692aa5f71cf877e9c80a23679"
      ],
      "is_coinbase": false,
      "sequence": 4294967295
    },
    {
      "txid": "897d261d8e656bfb13262848e243c024ff6702d7b59b965f3f064042c011c387",
      "vout": 0,
      "prevout": {
        "scriptpubkey": "0014d26aecb47867c317551c5852cfd064908d25599e",
        "scriptpubkey_asm": "OP_0 OP_PUSHBYTES_20 d26aecb47867c317551c5852cfd064908d25599e",
        "scriptpubkey_type": "v0_p2wpkh",
        "scriptpubkey_address": "bc1q6f4wedrcvlp3w4gutpfvl5ryjzxj2kv7k03gux",
        "value": 243350
      },
      "scriptsig": "",
      "scriptsig_asm": "",
      "witness": [
        "3045022100b83ffd82267a245d8530b80fd9ef67e92c8567cf961a7e981b82cdb623bfd223022049644d251537e7724a450ead1f8286f209731a3150e45e43a75a3e3e64123e2f01",
        "0325fdd71ea033d9ed08ba2df28dd640b7de08370692aa5f71cf877e9c80a23679"
      ],
      "is_coinbase": false,
      "sequence": 4294967295
    }
  ],
  "vout": [
    {
      "scriptpubkey": "0014a0a772f9a97bd5374175c422d984b333fcc25667",
      "scriptpubkey_asm": "OP_0 OP_PUSHBYTES_20 a0a772f9a97bd5374175c422d984b333fcc25667",
      "scriptpubkey_type": "v0_p2wpkh",
      "scriptpubkey_address": "bc1q5znh97df002nwst4cs3dnp9nx07vy4n88395mr",
      "value": 4496639
    },
    {
      "scriptpubkey": "001458e95c2b8f3ca96f6769ba96fbc7f3bf6cd5455a",
      "scriptpubkey_asm": "OP_0 OP_PUSHBYTES_20 58e95c2b8f3ca96f6769ba96fbc7f3bf6cd5455a",
      "scriptpubkey_type": "v0_p2wpkh",
      "scriptpubkey_address": "bc1qtr54c2u08j5k7emfh2t0h3lnhakd2326encflu",
      "value": 54162
    }
  ],
  "size": 2154,
  "weight": 4092,
  "fee": 27810,
  "status": {
    "confirmed": true,
    "block_height": 834638,
    "block_hash": "000000000000000000025f742c626208ac87e0b7d15054abb4a19ca2d735a54e",
    "block_time": 1710405325
  },
  "hex": "0100000000010e0d90204367e3a9fc3b3b08c66602ff3608c8d94d8efecf81f637286eeaef964b0000000000ffffffffcd4e74e69390b54107fee25c0b9b2b37586da1901ce425d9ea5c6a305097e43f0100000000fffffffff284d9118eb56d030be3197f10f764819c104b02ee24933345faa1e58e38d9520000000000fffffffffbc2233f72645eb86cc78a7d1e49384711e07e36e719d911b59c4b31e319e3c30000000000ffffffff9e60b84dc57abee0c88a1d7d95b2719cdb469e07f6c4ee7b8523ecee8486c3a80000000000ffffffff4a90c7794698a009f1e4b13e22ab78aa2cdb71e28f35f1b3bbe87706e91c115d0000000000ffffffffa7892c119dae356b599776110fc4e5927c5b86279cbe3a9f4654cbc63f9cfa790000000000fffffffffa0abb9955c031d11ee05b53cbfed869947ed135cf30f4e68a08c8087ab0e6c70000000000ffffffffc97613b550f434f17b2ed6889c5d29ec7a89d80f89668d855d92a8186ab73a1e0000000000ffffffffee471c3d577d5f11d0ce19298f3b0f8b21eb82a55c675f425fe877792ea9d7e00000000000ffffffff226dd674ea0806e42760008bc60bf6c00538c35edecd7bf58474c0851d7b78800000000000ffffffff3d3060f099e0282a0b512dddef658a0d6775e920315a2a560588091ce12e2a9c0000000000ffffffff0af0b3f7b9c5d6ac4431fc9ce8ce2f63931da4c999a20983e8481ae929c164c60000000000ffffffff87c311c04240063f5f969bb5d70267ff24c043e248282613fb6b658e1d267d890000000000ffffffff02ff9c440000000000160014a0a772f9a97bd5374175c422d984b333fcc2566792d300000000000016001458e95c2b8f3ca96f6769ba96fbc7f3bf6cd5455a0247304402205013f7be3d437629bb8dbe94ee43901fa1482b6fd747c9c76036ec7cc6a40abf022070a6f4630211d330e60ff86c0ef3c2ba923a184df331e9286c4a6001d09fc3cd01210325fdd71ea033d9ed08ba2df28dd640b7de08370692aa5f71cf877e9c80a2367902483045022100ca02b0e5fe8eff2e20a8c67b4326425030ac6f4f0c20d554e2b9c55fa1444f7b022041d8dfaf60760238e55dd55997b4ac5b339723fdab933c891dec932a9632f71b01210325fdd71ea033d9ed08ba2df28dd640b7de08370692aa5f71cf877e9c80a2367902483045022100862bd4c409c97277aeebcea1cd8282fa1d438f22de76eb92c12dba6daaed923c0220122a8519ac19d31a7e03e7c13051da9da4d3341f4f8d00300f6314250eb24a4d01210325fdd71ea033d9ed08ba2df28dd640b7de08370692aa5f71cf877e9c80a236790248304502210098bbc89e2ee6f3f5f18472af596a31aec5917ba18ec4347a8c51142288bc2dfb0220618f96b6a5171e7fa4d13cb0f73af1b602bde52aaba6460399de3a82caef844d01210325fdd71ea033d9ed08ba2df28dd640b7de08370692aa5f71cf877e9c80a2367902473044022024db6d0c329d792997909c50612bd20f59f1968f3006a93dfa85ce66071d8654022074d180ccea64473f220d86be26d9d298894b4adac7984d8b8c38f97f4dc4199901210325fdd71ea033d9ed08ba2df28dd640b7de08370692aa5f71cf877e9c80a236790247304402200c9ca798bed1a662ae833331c4d8e8fc45cd13f3c2a6dc0d48f646d81e70d9c0022034a4b5006f25697d1ab5f54e1abd4e9fd01af023cfcf16d968d0ae87b7f8117701210325fdd71ea033d9ed08ba2df28dd640b7de08370692aa5f71cf877e9c80a2367902483045022100e6267dd5497259a630f23a47a49dfd3f8d63b3e23461c8edb230aeeefa7d10e3022017c3742bbb21ccc158d4f51736f46024eeeb50287124d70fc16272032e4e58e601210325fdd71ea033d9ed08ba2df28dd640b7de08370692aa5f71cf877e9c80a2367902483045022100a5e54215f861ecc157809af029e9ce3f27ed99bc4637e4084969705aab63dfd7022054206a077869b6b0893ff694479b7c647d6468a15a3aa90c0389a77ce2e17b5101210325fdd71ea033d9ed08ba2df28dd640b7de08370692aa5f71cf877e9c80a2367902473044022062f0ff97705d97a37d1d35e989b4c8b84dbd5c7dba13969c17d71e25827efdeb022056998a3553e127f1d476a4d4da9b4b3dba3d2f479da3fed35e584e5a91370de701210325fdd71ea033d9ed08ba2df28dd640b7de08370692aa5f71cf877e9c80a2367902483045022100dfadda123f7811d9068c7fb13a837b97efbc474eb5f3912d3b5954dc18cc38b302207c49840b1b102ee57608e51d29698102c4f9ebf72a0d1c182e1612240c9d19d901210325fdd71ea033d9ed08ba2df28dd640b7de08370692aa5f71cf877e9c80a236790247304402203267154a9e0ab672957fefd5412987e2eda337782e52f97c46880f393f29f8730220621331164afde8a953f57b306baea5dcf51f5cf14639b7997e22a8c650db221d01210325fdd71ea033d9ed08ba2df28dd640b7de08370692aa5f71cf877e9c80a2367902473044022077f897595f16f0be7c5e2a1f834fcb929d5f69bf0f5b1ae62625f064fb7787e7022038b9ee965f87c559f1c3f4370ae893c93077ec5d554e825552f3d336a8dc282501210325fdd71ea033d9ed08ba2df28dd640b7de08370692aa5f71cf877e9c80a2367902483045022100c1d7ab2bcb094bc750f3851c65b503d5254c7af2333d37df55165568b46ddf8c0220318ee4ef4ce32022259b9e83355af7da4021ed84278b1a1d5c93ef84ee95a52501210325fdd71ea033d9ed08ba2df28dd640b7de08370692aa5f71cf877e9c80a2367902483045022100b83ffd82267a245d8530b80fd9ef67e92c8567cf961a7e981b82cdb623bfd223022049644d251537e7724a450ead1f8286f209731a3150e45e43a75a3e3e64123e2f01210325fdd71ea033d9ed08ba2df28dd640b7de08370692aa5f71cf877e9c80a2367900000000"
}