{
  "txid": "26617cec79a786b44cfd546a4d7f731fd3db9c077ba9a6b381f1cafb070f9d7e",
  "version": 2,
  "locktime": 834554,
  "vin": [
    {
      "txid": "05ce60414032b9df2eb96dd85f332435c30c94fdd94810855e07ad300c4e3a1d",
      "vout": 0,
      "prevout": {
        "scriptpubkey": "00144c723ed48f734f6b1aabbdff3dedaa40a19effeb",
        "scriptpubkey_asm": "OP_0 OP_PUSHBYTES_20 4c723ed48f734f6b1aabbdff3dedaa40a19effeb",
        "scriptpubkey_type": "v0_p2wpkh",
        "scriptpubkey_address": "bc1qf3era4y0wd8kkx4thhlnmmd2gzsealltl624u9",
        "value": 276640
      },
      "scriptsig": "",
      "scriptsig_asm": "",
      "witness": [
        "30440220644bd581b70ae3dddb43e8bac6b821a4801e5b3461a68db2cd90c5a56d98bf1302207b59212987033605f6578d79482565cdea31b1334cf9afd1b67656b02778cad401",
        "0310aec69649b34d047d69d0b7600f6b956b3822fa60f9ba85b3ebc28a5ce19683"
      ],
      "is_coinbase": false,
      "sequence": 4294967293
    },
    {
      "txid": "063d1f21fdff43feeb91bc384a8574d00fb0bd981f67f3e209b25f5936286ceb",
      "vout": 0,
      "prevout": {
        "scriptpubkey": "00144c723ed48f734f6b1aabbdff3dedaa40a19effeb",
        "scriptpubkey_asm": "OP_0 OP_PUSHBYTES_20 4c723ed48f734f6b1aabbdff3dedaa40a19effeb",
        "scriptpubkey_type": "v0_p2wpkh",
        "scriptpubkey_address": "bc1qf3era4y0wd8kkx4thhlnmmd2gzsealltl624u9",
        "value": 971700
      },
      "scriptsig": "",
      "scriptsig_asm": "",
      "witness": [
        "304402200f6a655a9d901e89120588d8a9854eaa4b078c202d504cf754d6c25113c537450220311f38745f10607e201833061ab5dc4c511a2a493ed3b8cba77343342154afac01",
        "0310aec69649b34d047d69d0b7600f6b956b3822fa60f9ba85b3ebc28a5ce19683"
      ],
      "is_coinbase": false,
      "sequence": 4294967293
    },
    {
      "txid": "f4b0a16fadebfca5172b9d93e70381b1aae33aa4882748732b46b5374b942a52",
      "vout": 0,
      "prevout": {
        "scriptpubkey": "0014076475614ec7b3bd9057fbce47d781a7910e4f14",
        "scriptpubkey_asm": "OP_0 OP_PUSHBYTES_20 076475614ec7b3bd9057fbce47d781a7910e4f14",
        "scriptpubkey_type": "v0_p2wpkh",
        "scriptpubkey_address": "bc1qqaj82c2wc7emmyzhl08y04up57gsunc5zm59dr",
        "value": 647916
      },
      "scriptsig": "",
      "scriptsig_asm": "",
      "witness": [
        "304402207ad56e6627c389b90020c65aa2e3a1f5847607fd8898fe47c08ef09c0c812f5002206b54bf4efe72cd22fbd1ba5f88b92d954a501264dc441cd1eed00d1d0d07489501",
        "03e4058e9949717f0ab37926916ec9bd5f8d70149df4927c7e5d3499ce9dc78025"
      ],
      "is_coinbase": false,
      "sequence": 4294967293
    }
  ],
  "vout": [
    {
      "scriptpubkey": "001472271f16c0cf585b01012fbaeae07d3bd7756d3a",
      "scriptpubkey_asm": "OP_0 OP_PUSHBYTES_20 72271f16c0cf585b01012fbaeae07d3bd7756d3a",
      "scriptpubkey_type": "v0_p2wpkh",
      "scriptpubkey_address": "bc1qwgn379kqeav9kqgp97aw4cra80th2mf63y84tz",
      "value": 1892345
    }
  ],
  "size": 487,
  "weight": 979,
  "fee": 3911,
  "status": {
    "confirmed": true,
    "block_height": 834638,
    "block_hash": "000000000000000000025f742c626208ac87e0b7d15054abb4a19ca2d735a54e",
    "block_time": 1710405325
  },
  "hex": "020000000001031d3a4e0c30ad075e851048d9fd940cc33524335fd86db92edfb932404160ce050000000000fdffffffeb6c2836595fb209e2f3671f98bdb00fd074854a38bc91ebfe43fffd211f3d060000000000fdffffff522a944b37b5462b73482788a43ae3aab18103e7939d2b17a5fcebad6fa1b0f40000000000fdffffff01f9df1c000000000016001472271f16c0cf585b01012fbaeae07d3bd7756d3a024730440220644bd581b70ae3dddb43e8bac6b821a4801e5b3461a68db2cd90c5a56d98bf1302207b59212987033605f6578d79482565cdea31b1334cf9afd1b67656b02778cad401210310aec69649b34d047d69d0b7600f6b956b3822fa60f9ba85b3ebc28a5ce196830247304402200f6a655a9d901e89120588d8a9854eaa4b078c202d504cf754d6c25113c537450220311f38745f10607e201833061ab5dc4c511a2a493ed3b8cba77343342154afac01210310aec69649b34d047d69d0b7600f6b956b3822fa60f9ba85b3ebc28a5ce196830247304402207ad56e6627c389b90020c65aa2e3a1f5847607fd8898fe47c08ef09c0c812f5002206b54bf4efe72cd22fbd1ba5f88b92d954a501264dc441cd1eed00d1d0d074895012103e4058e9949717f0ab37926916ec9bd5f8d70149df4927c7e5d3499ce9dc78025fabb0c00"
}