{
  "txid": "2688fe682397f0eb42af8a9c2d0f969357cf61d634df8a2284b1bf60ca48f8cd",
  "version": 2,
  "locktime": 0,
  "vin": [
    {
      "txid": "659b82bf51c32df260f3e3563d90fcbcb0098209af4d18020ca9e1a619ccc8c8",
      "vout": 22,
      "prevout": {
        "scriptpubkey": "512013a7f6146563e36f2085b711e1b5202c6ba7269ca865c060d7090f56f2acd4e2",
        "scriptpubkey_asm": "OP_PUSHNUM_1 OP_PUSHBYTES_32 13a7f6146563e36f2085b711e1b5202c6ba7269ca865c060d7090f56f2acd4e2",
        "scriptpubkey_type": "v1_p2tr",
        "scriptpubkey_address": "bc1pzwnlv9r9v03k7gy9kug7rdfq9346wf5u4pjuqcxhpy84du4v6n3qamz8cn",
        "value": 1931
      },
      "scriptsig": "",
      "scriptsig_asm": "",
      "witness": [
        "ad70d9b12cb442a5087f540d7992db269be800d4a8096ab6980e1bb46a90f00c94942af5a8f6c30c285333f4099e67934ab43600f00d8b92aba60a75bb36eb9c",
        "204d10618f450f25a5d1667093d4c41d31436af8320ec3cc950c973d6f2f7f44eeac0063036f726401010a746578742f706c61696e00367b2270223a226272632d3230222c226f70223a226d696e74222c227469636b223a2261616161222c22616d74223a223130303030227d68",
        "c04d10618f450f25a5d1667093d4c41d31436af8320ec3cc950c973d6f2f7f44ee"
      ],
      "is_coinbase": false,
      "sequence": 4261412863
    }
  ],
  "vout": [
    {
      "scriptpubkey": "0014be9f0c070a9b1bd40f5fcb06fba89738d936ceb6",
      "scriptpubkey_asm": "OP_0 OP_PUSHBYTES_20 be9f0c070a9b1bd40f5fcb06fba89738d936ceb6",
      "scriptpubkey_type": "v0_p2wpkh",
      "scriptpubkey_address": "bc1qh60scpc2nvdagr6levr0h2yh8rvndn4k4v5s9g",
      "value": 294
    }
  ],
  "size": 295,
  "weight": 541,
  "fee": 1637,
  "status": {
    "confirmed": true,
    "block_height": 834460,
    "block_hash": "00000000000000000000484a79b643b2524bbce82e5d8a442013fa5b8905ed98",
    "block_time": 1710307468
  },
  "hex": "02000000000101c8c8cc19a6e1a90c02184daf098209b0bcfc903d56e3f360f22dc351bf829b651600000000fffffffd012601000000000000160014be9f0c070a9b1bd40f5fcb06fba89738d936ceb60340ad70d9b12cb442a5087f540d7992db269be800d4a8096ab6980e1bb46a90f00c94942af5a8f6c30c285333f4099e67934ab43600f00d8b92aba60a75bb36eb9c6e204d10618f450f25a5d1667093d4c41d31436af8320ec3cc950c973d6f2f7f44eeac0063036f726401010a746578742f706c61696e00367b2270223a226272632d3230222c226f70223a226d696e74222c227469636b223a2261616161222c22616d74223a223130303030227d6821c04d10618f450f25a5d1667093d4c41d31436af8320ec3cc950c973d6f2f7f44ee00000000"
}