{
  "txid": "2689762a4abf0cfbb31949d364eed11bb0151c37e1f13be424b70bc0ccbeb664",
  "version": 1,
  "locktime": 0,
  "vin": [
    {
      "txid": "51116a3048982609264cfbee700ac31c1162e71eb0df43e38e63ab1025aaacff",
      "vout": 0,
      "prevout": {
        "scriptpubkey": "001437cf34d93e57ca7f92bb06e19a73999f70415e44",
        "scriptpubkey_asm": "OP_0 OP_PUSHBYTES_20 37cf34d93e57ca7f92bb06e19a73999f70415e44",
        "scriptpubkey_type": "v0_p2wpkh",
        "scriptpubkey_address": "bc1qxl8nfkf72l98ly4mqmse5uuenacyzhjyzevu7c",
        "value": 1100000
      },
      "scriptsig": "",
      "scriptsig_asm": "",
      "witness": [
        "3045022100bd754f53fb98464b591492db5e1b23e6fbc41bf1e3076d4020ff397c39621f5202205175e9cd0eefb850ccd9f1ea6add8cdf93c0a17fc04c1487ec97fbf9e6d50a8f01",
        "029bdf18e379b5ba0630c096c27ff37a60c24185ab727937e84f6f8eb46aa51b1e"
      ],
      "is_coinbase": false,
      "sequence": 4294967295
    }
  ],
  "vout": [
    {
      "scriptpubkey": "00143e777f9fa37dc4a372a0f6c0044f81630ca37133",
      "scriptpubkey_asm": "OP_0 OP_PUSHBYTES_20 3e777f9fa37dc4a372a0f6c0044f81630ca37133",
      "scriptpubkey_type": "v0_p2wpkh",
      "scriptpubkey_address": "bc1q8emhl8ar0hz2xu4q7mqqgnupvvx2xufncs662u",
      "value": 875331
    },
    {
      "scriptpubkey": "001482549a7dd19acdf09272c3b9878ddacd4f8df823",
      "scriptpubkey_asm": "OP_0 OP_PUSHBYTES_20 82549a7dd19acdf09272c3b9878ddacd4f8df823",
      "scriptpubkey_type": "v0_p2wpkh",
      "scriptpubkey_address": "bc1qsf2f5lw3ntxlpynjcwuc0rw6e48cm7prnjxvgp",
      "value": 222600
    }
  ],
  "size": 223,
  "weight": 562,
  "fee": 2069,
  "status": {
    "confirmed": true,
    "block_height": 834638,
    "block_hash": "000000000000000000025f742c626208ac87e0b7d15054abb4a19ca2d735a54e",
    "block_time": 1710405325
  },
  "hex": "01000000000101ffacaa2510ab638ee343dfb01ee762111cc30a70eefb4c2609269848306a11510000000000ffffffff02435b0d00000000001600143e777f9fa37dc4a372a0f6c0044f81630ca37133886503000000000016001482549a7dd19acdf09272c3b9878ddacd4f8df82302483045022100bd754f53fb98464b591492db5e1b23e6fbc41bf1e3076d4020ff397c39621f5202205175e9cd0eefb850ccd9f1ea6add8cdf93c0a17fc04c1487ec97fbf9e6d50a8f0121029bdf18e379b5ba0630c096c27ff37a60c24185ab727937e84f6f8eb46aa51b1e00000000"
}