{
  "txid": "2691e1028e87930f98bdffa54397897b1102f5e8f720720545df853b0b523c26",
  "version": 2,
  "locktime": 0,
  "vin": [
    {
      "txid": "adc5b65f8651c991498851f3d4f36e6ac83cd4474a138a691018f4f1af9b750d",
      "vout": 1,
      "prevout": {
        "scriptpubkey": "5120700a3932beead9eaa70212f2af310378a50e9eb1b5ba0ff5248d58a2ed91e424",
        "scriptpubkey_asm": "OP_PUSHNUM_1 OP_PUSHBYTES_32 700a3932beead9eaa70212f2af310378a50e9eb1b5ba0ff5248d58a2ed91e424",
        "scriptpubkey_type": "v1_p2tr",
        "scriptpubkey_address": "bc1pwq9rjv47atv74fczzte27vgr0zjsa843kkaqlafy34v29mv3usjqmnaker",
        "value": 161906
      },
      "scriptsig": "",
      "scriptsig_asm": "",
      "witness": [
        "c76116897308eb9ba621e3efa802587f57353bdb4fa2e22b4a4e824379d9bf11f53b4bbae0910052ca7823600c5b24f61f4f32cf0ecdb271570ecae6f642d92a"
      ],
      "is_coinbase": false,
      "sequence": 4294967295
    }
  ],
  "vout": [
    {
      "scriptpubkey": "512005e83f5e4396c7f4cbdb661eba189d7b5df894d6a71be6c5bbc9f799effdbe19",
      "scriptpubkey_asm": "OP_PUSHNUM_1 OP_PUSHBYTES_32 05e83f5e4396c7f4cbdb661eba189d7b5df894d6a71be6c5bbc9f799effdbe19",
      "scriptpubkey_type": "v1_p2tr",
      "scriptpubkey_address": "bc1pqh5r7hjrjmrlfj7mvc0t5xya0dwl39xk5ud7d3dme8menmlahcvszkwg52",
      "value": 5907
    },
    {
      "scriptpubkey": "5120700a3932beead9eaa70212f2af310378a50e9eb1b5ba0ff5248d58a2ed91e424",
      "scriptpubkey_asm": "OP_PUSHNUM_1 OP_PUSHBYTES_32 700a3932beead9eaa70212f2af310378a50e9eb1b5ba0ff5248d58a2ed91e424",
      "scriptpubkey_type": "v1_p2tr",
      "scriptpubkey_address": "bc1pwq9rjv47atv74fczzte27vgr0zjsa843kkaqlafy34v29mv3usjqmnaker",
      "value": 153843
    }
  ],
  "size": 205,
  "weight": 616,
  "fee": 2156,
  "status": {
    "confirmed": true,
    "block_height": 834460,
    "block_hash": "00000000000000000000484a79b643b2524bbce82e5d8a442013fa5b8905ed98",
    "block_time": 1710307468
  },
  "hex": "020000000001010d759baff1f41810698a134a47d43cc86a6ef3d4f351884991c951865fb6c5ad0100000000ffffffff02131700000000000022512005e83f5e4396c7f4cbdb661eba189d7b5df894d6a71be6c5bbc9f799effdbe19f358020000000000225120700a3932beead9eaa70212f2af310378a50e9eb1b5ba0ff5248d58a2ed91e4240140c76116897308eb9ba621e3efa802587f57353bdb4fa2e22b4a4e824379d9bf11f53b4bbae0910052ca7823600c5b24f61f4f32cf0ecdb271570ecae6f642d92a00000000"
}