{
  "txid": "2697c2453e57e8373bf02c4761e948c720858356ec239a22f28f58474de6e462",
  "version": 2,
  "locktime": 834637,
  "vin": [
    {
      "txid": "150c8473ec97310442e720ed12dfb6facda93cd7d718656ffd159337aca5ab12",
      "vout": 0,
      "prevout": {
        "scriptpubkey": "0014054b05260cbddee4aa0c0d126b8490c3da666bc9",
        "scriptpubkey_asm": "OP_0 OP_PUSHBYTES_20 054b05260cbddee4aa0c0d126b8490c3da666bc9",
        "scriptpubkey_type": "v0_p2wpkh",
        "scriptpubkey_address": "bc1qq49s2fsvhh0wf2svp5fxhpysc0dxv67f2snm57",
        "value": 101112
      },
      "scriptsig": "",
      "scriptsig_asm": "",
      "witness": [
        "304402206b31560752178275b4b22f29037f1d363694431f7c810b5c87a4e5e763857e9a022035a63af476ac4b5f009d194020b2499ff37c87674505eb0cb4addd7c8a1dea6301",
        "025c27e6ce69136d062b8667b9514b71b78b1a4549f30cf045850baddefb1a34bf"
      ],
      "is_coinbase": false,
      "sequence": 4294967294
    }
  ],
  "vout": [
    {
      "scriptpubkey": "0014443191492eace2adcfbb9d2162726d22d2d9fd33",
      "scriptpubkey_asm": "OP_0 OP_PUSHBYTES_20 443191492eace2adcfbb9d2162726d22d2d9fd33",
      "scriptpubkey_type": "v0_p2wpkh",
      "scriptpubkey_address": "bc1qgscezjfw4n32mnamn5skyundytfdnlfn9cv62w",
      "value": 98600
    }
  ],
  "size": 191,
  "weight": 437,
  "fee": 2512,
  "status": {
    "confirmed": true,
    "block_height": 834638,
    "block_hash": "000000000000000000025f742c626208ac87e0b7d15054abb4a19ca2d735a54e",
    "block_time": 1710405325
  },
  "hex": "0200000000010112aba5ac379315fd6f6518d7d73ca9cdfab6df12ed20e742043197ec73840c150000000000feffffff012881010000000000160014443191492eace2adcfbb9d2162726d22d2d9fd330247304402206b31560752178275b4b22f29037f1d363694431f7c810b5c87a4e5e763857e9a022035a63af476ac4b5f009d194020b2499ff37c87674505eb0cb4addd7c8a1dea630121025c27e6ce69136d062b8667b9514b71b78b1a4549f30cf045850baddefb1a34bf4dbc0c00"
}