{
  "txid": "269e84d6dfa82637c0f00564c3dd3ae1184b5c9b470de45a4c2ad5d58a2b781e",
  "version": 2,
  "locktime": 0,
  "vin": [
    {
      "txid": "6a1c9ba256b48f50d989093d780882d3ed41166ca45f08e74ec435c16b5768cf",
      "vout": 0,
      "prevout": {
        "scriptpubkey": "512013a1c818fd168f4c523f1986474f2a8aa8be1bbf3977697c7ffae5fe1a001984",
        "scriptpubkey_asm": "OP_PUSHNUM_1 OP_PUSHBYTES_32 13a1c818fd168f4c523f1986474f2a8aa8be1bbf3977697c7ffae5fe1a001984",
        "scriptpubkey_type": "v1_p2tr",
        "scriptpubkey_address": "bc1pzwsusx8az685c53lrxrywne2325tuxal89mkjlrlltjluxsqrxzqsmes09",
        "value": 8679
      },
      "scriptsig": "",
      "scriptsig_asm": "",
      "witness": [
        "7495e276e06306bdd5a5d4e0c925fe2318af9c908b7529674c1fc10e2bcc3e98c0e74a3a476d931b8148367d45c6d1bdf3fc235dac6f182b38a6bd2a45aacf9f",
        "20a35dc8e96fe49e3b838611507677a78cc5da18e1a0407cd7c7853206d6392731ac0063036f7264010118746578742f706c61696e3b636861727365743d7574662d38004c867b2270223a22746170222c226f70223a22646d742d6d696e74222c22646570223a22333962373532343338626533613435326464623731376230613635346233313662316164343661383139656234343831383933626337313331663738396539616930222c227469636b223a226e61746f776c73222c22626c6b223a22373036353239227d680063036f72640102022202010118746578742f706c61696e3b636861727365743d7574662d38004c867b2270223a22746170222c226f70223a22646d742d6d696e74222c22646570223a22333962373532343338626533613435326464623731376230613635346233313662316164343661383139656234343831383933626337313331663738396539616930222c227469636b223a226e61746f776c73222c22626c6b223a22373036353331227d680063036f72640102024404010118746578742f706c61696e3b636861727365743d7574662d38004c867b2270223a22746170222c226f70223a22646d742d6d696e74222c22646570223a22333962373532343338626533613435326464623731376230613635346233313662316164343661383139656234343831383933626337313331663738396539616930222c227469636b223a226e61746f776c73222c22626c6b223a22373036353333227d680063036f72640102026606010118746578742f706c61696e3b636861727365743d7574662d38004c867b2270223a22746170222c226f70223a22646d742d6d696e74222c22646570223a22333962373532343338626533613435326464623731376230613635346233313662316164343661383139656234343831383933626337313331663738396539616930222c227469636b223a226e61746f776c73222c22626c6b223a22373036353335227d68",
        "c1a35dc8e96fe49e3b838611507677a78cc5da18e1a0407cd7c7853206d6392731"
      ],
      "is_coinbase": false,
      "sequence": 4294967295
    }
  ],
  "vout": [
    {
      "scriptpubkey": "51207f73d17fa1b1c355a2784e2541b134926c5d752653470250262e098a6b1bbe0a",
      "scriptpubkey_asm": "OP_PUSHNUM_1 OP_PUSHBYTES_32 7f73d17fa1b1c355a2784e2541b134926c5d752653470250262e098a6b1bbe0a",
      "scriptpubkey_type": "v1_p2tr",
      "scriptpubkey_address": "bc1p0aeazlapk8p4tgncfcj5rvf5jfk96afx2drsy5px9cyc56cmhc9qeq0y49",
      "value": 546
    },
    {
      "scriptpubkey": "51207f73d17fa1b1c355a2784e2541b134926c5d752653470250262e098a6b1bbe0a",
      "scriptpubkey_asm": "OP_PUSHNUM_1 OP_PUSHBYTES_32 7f73d17fa1b1c355a2784e2541b134926c5d752653470250262e098a6b1bbe0a",
      "scriptpubkey_type": "v1_p2tr",
      "scriptpubkey_address": "bc1p0aeazlapk8p4tgncfcj5rvf5jfk96afx2drsy5px9cyc56cmhc9qeq0y49",
      "value": 546
    },
    {
      "scriptpubkey": "51207f73d17fa1b1c355a2784e2541b134926c5d752653470250262e098a6b1bbe0a",
      "scriptpubkey_asm": "OP_PUSHNUM_1 OP_PUSHBYTES_32 7f73d17fa1b1c355a2784e2541b134926c5d752653470250262e098a6b1bbe0a",
      "scriptpubkey_type": "v1_p2tr",
      "scriptpubkey_address": "bc1p0aeazlapk8p4tgncfcj5rvf5jfk96afx2drsy5px9cyc56cmhc9qeq0y49",
      "value": 546
    },
    {
      "scriptpubkey": "51207f73d17fa1b1c355a2784e2541b134926c5d752653470250262e098a6b1bbe0a",
      "scriptpubkey_asm": "OP_PUSHNUM_1 OP_PUSHBYTES_32 7f73d17fa1b1c355a2784e2541b134926c5d752653470250262e098a6b1bbe0a",
      "scriptpubkey_type": "v1_p2tr",
      "scriptpubkey_address": "bc1p0aeazlapk8p4tgncfcj5rvf5jfk96afx2drsy5px9cyc56cmhc9qeq0y49",
      "value": 546
    }
  ],
  "size": 1061,
  "weight": 1730,
  "fee": 6495,
  "status": {
    "confirmed": true,
    "block_height": 834460,
    "block_hash": "00000000000000000000484a79b643b2524bbce82e5d8a442013fa5b8905ed98",
    "block_time": 1710307468
  },
  "hex": "02000000000101cf68576bc135c44ee7085fa46c1641edd38208783d0989d9508fb456a29b1c6a0000000000ffffffff0422020000000000002251207f73d17fa1b1c355a2784e2541b134926c5d752653470250262e098a6b1bbe0a22020000000000002251207f73d17fa1b1c355a2784e2541b134926c5d752653470250262e098a6b1bbe0a22020000000000002251207f73d17fa1b1c355a2784e2541b134926c5d752653470250262e098a6b1bbe0a22020000000000002251207f73d17fa1b1c355a2784e2541b134926c5d752653470250262e098a6b1bbe0a03407495e276e06306bdd5a5d4e0c925fe2318af9c908b7529674c1fc10e2bcc3e98c0e74a3a476d931b8148367d45c6d1bdf3fc235dac6f182b38a6bd2a45aacf9ffddd0220a35dc8e96fe49e3b838611507677a78cc5da18e1a0407cd7c7853206d6392731ac0063036f7264010118746578742f706c61696e3b636861727365743d7574662d38004c867b2270223a22746170222c226f70223a22646d742d6d696e74222c22646570223a22333962373532343338626533613435326464623731376230613635346233313662316164343661383139656234343831383933626337313331663738396539616930222c227469636b223a226e61746f776c73222c22626c6b223a22373036353239227d680063036f72640102022202010118746578742f706c61696e3b636861727365743d7574662d38004c867b2270223a22746170222c226f70223a22646d742d6d696e74222c22646570223a22333962373532343338626533613435326464623731376230613635346233313662316164343661383139656234343831383933626337313331663738396539616930222c227469636b223a226e61746f776c73222c22626c6b223a22373036353331227d680063036f72640102024404010118746578742f706c61696e3b636861727365743d7574662d38004c867b2270223a22746170222c226f70223a22646d742d6d696e74222c22646570223a22333962373532343338626533613435326464623731376230613635346233313662316164343661383139656234343831383933626337313331663738396539616930222c227469636b223a226e61746f776c73222c22626c6b223a22373036353333227d680063036f72640102026606010118746578742f706c61696e3b636861727365743d7574662d38004c867b2270223a22746170222c226f70223a22646d742d6d696e74222c22646570223a22333962373532343338626533613435326464623731376230613635346233313662316164343661383139656234343831383933626337313331663738396539616930222c227469636b223a226e61746f776c73222c22626c6b223a22373036353335227d6821c1a35dc8e96fe49e3b838611507677a78cc5da18e1a0407cd7c7853206d639273100000000"
}