{
  "txid": "26add75d9ce9fc37214345e3239dc2cbd5bfa249b2848ade0e1e92d310f16844",
  "version": 2,
  "locktime": 834458,
  "vin": [
    {
      "txid": "157c905fbbbbc2653a371f4b1d8e0672963e45d0baa01cb81ad9b41115eef281",
      "vout": 1,
      "prevout": {
        "scriptpubkey": "a914b16e2e7b4c048403d1a92eb0e3bdd38dd5fe973487",
        "scriptpubkey_asm": "OP_HASH160 OP_PUSHBYTES_20 b16e2e7b4c048403d1a92eb0e3bdd38dd5fe9734 OP_EQUAL",
        "scriptpubkey_type": "p2sh",
        "scriptpubkey_address": "3HsBX3hYstkeiX1yYAfFS9NsbAwrzFQzT1",
        "value": 321471174
      },
      "scriptsig": "16001447ba1785600451e8532454b3197f8f733a398b17",
      "scriptsig_asm": "OP_PUSHBYTES_22 001447ba1785600451e8532454b3197f8f733a398b17",
      "witness": [
        "304402205c850d36992b70981f7f01c5388bcbc8192fdfa7a133dd11dc13e4e65585aa6a02204e327889fae3bcce919eea46eb09f32a40c093023221e403c8c33cf14c084ab601",
        "02a497e6f75054fa71c524e09e6e53d2f92db982a79a79b2943bdb4fc515479363"
      ],
      "is_coinbase": false,
      "sequence": 4294967293,
      "inner_redeemscript_asm": "OP_0 OP_PUSHBYTES_20 47ba1785600451e8532454b3197f8f733a398b17"
    }
  ],
  "vout": [
    {
      "scriptpubkey": "a914b6bb3d1ec1f6610ba14865e73436b5e139fb385187",
      "scriptpubkey_asm": "OP_HASH160 OP_PUSHBYTES_20 b6bb3d1ec1f6610ba14865e73436b5e139fb3851 OP_EQUAL",
      "scriptpubkey_type": "p2sh",
      "scriptpubkey_address": "3JMDD2tTHi8PSnqZ4Py9pQ89WzJMWrCz5r",
      "value": 261468834
    },
    {
      "scriptpubkey": "a914084cb5f72fe09176ab3f9efa75d3d278e241249187",
      "scriptpubkey_asm": "OP_HASH160 OP_PUSHBYTES_20 084cb5f72fe09176ab3f9efa75d3d278e2412491 OP_EQUAL",
      "scriptpubkey_type": "p2sh",
      "scriptpubkey_address": "32SuE3BYAKE2gASNfnyLa47KfpQnusnPjt",
      "value": 60000000
    }
  ],
  "size": 247,
  "weight": 661,
  "fee": 2340,
  "status": {
    "confirmed": true,
    "block_height": 834460,
    "block_hash": "00000000000000000000484a79b643b2524bbce82e5d8a442013fa5b8905ed98",
    "block_time": 1710307468
  },
  "hex": "0200000000010181f2ee1511b4d91ab81ca0bad0453e9672068e1d4b1f373a65c2bbbb5f907c15010000001716001447ba1785600451e8532454b3197f8f733a398b17fdffffff02a2b2950f0000000017a914b6bb3d1ec1f6610ba14865e73436b5e139fb385187008793030000000017a914084cb5f72fe09176ab3f9efa75d3d278e2412491870247304402205c850d36992b70981f7f01c5388bcbc8192fdfa7a133dd11dc13e4e65585aa6a02204e327889fae3bcce919eea46eb09f32a40c093023221e403c8c33cf14c084ab6012102a497e6f75054fa71c524e09e6e53d2f92db982a79a79b2943bdb4fc5154793639abb0c00"
}