{
  "txid": "26bbbd1dd14d3191912520bb951c8dbc9c50f22805f3c048c846e1ed999d7dc1",
  "version": 2,
  "locktime": 0,
  "vin": [
    {
      "txid": "8cea9570fc79c6ebb4770c22d6a4816581d490df658ce0b3d57c9450cdda0f46",
      "vout": 0,
      "prevout": {
        "scriptpubkey": "a914be67cea8e0004a9b4a7fb96175465bfaebff620987",
        "scriptpubkey_asm": "OP_HASH160 OP_PUSHBYTES_20 be67cea8e0004a9b4a7fb96175465bfaebff6209 OP_EQUAL",
        "scriptpubkey_type": "p2sh",
        "scriptpubkey_address": "3K3nfeTme6NzeokYaAPioh5tDfgN8WkHY5",
        "value": 9100000
      },
      "scriptsig": "160014fb02bda6a3d3a7c9ac8351831d8b1dba847bdaf4",
      "scriptsig_asm": "OP_PUSHBYTES_22 0014fb02bda6a3d3a7c9ac8351831d8b1dba847bdaf4",
      "witness": [
        "30450221009c9ed7c0fdb2199606027b26d6e22136957ca247d55797808a726eae829b739a0220685edfe356f933721129baaf8eeadde67dfff51dc0d79bc52e152a5792f3493301",
        "02151b7cf0f47bf484186df38632301cff1a3418aa40f41c35cc8c5c24fc54dc57"
      ],
      "is_coinbase": false,
      "sequence": 4294967295,
      "inner_redeemscript_asm": "OP_0 OP_PUSHBYTES_20 fb02bda6a3d3a7c9ac8351831d8b1dba847bdaf4"
    }
  ],
  "vout": [
    {
      "scriptpubkey": "a914be67cea8e0004a9b4a7fb96175465bfaebff620987",
      "scriptpubkey_asm": "OP_HASH160 OP_PUSHBYTES_20 be67cea8e0004a9b4a7fb96175465bfaebff6209 OP_EQUAL",
      "scriptpubkey_type": "p2sh",
      "scriptpubkey_address": "3K3nfeTme6NzeokYaAPioh5tDfgN8WkHY5",
      "value": 600
    },
    {
      "scriptpubkey": "a914be67cea8e0004a9b4a7fb96175465bfaebff620987",
      "scriptpubkey_asm": "OP_HASH160 OP_PUSHBYTES_20 be67cea8e0004a9b4a7fb96175465bfaebff6209 OP_EQUAL",
      "scriptpubkey_type": "p2sh",
      "scriptpubkey_address": "3K3nfeTme6NzeokYaAPioh5tDfgN8WkHY5",
      "value": 600
    },
    {
      "scriptpubkey": "a914be67cea8e0004a9b4a7fb96175465bfaebff620987",
      "scriptpubkey_asm": "OP_HASH160 OP_PUSHBYTES_20 be67cea8e0004a9b4a7fb96175465bfaebff6209 OP_EQUAL",
      "scriptpubkey_type": "p2sh",
      "scriptpubkey_address": "3K3nfeTme6NzeokYaAPioh5tDfgN8WkHY5",
      "value": 600
    },
    {
      "scriptpubkey": "a914be67cea8e0004a9b4a7fb96175465bfaebff620987",
      "scriptpubkey_asm": "OP_HASH160 OP_PUSHBYTES_20 be67cea8e0004a9b4a7fb96175465bfaebff6209 OP_EQUAL",
      "scriptpubkey_type": "p2sh",
      "scriptpubkey_address": "3K3nfeTme6NzeokYaAPioh5tDfgN8WkHY5",
      "value": 600
    },
    {
      "scriptpubkey": "a914be67cea8e0004a9b4a7fb96175465bfaebff620987",
      "scriptpubkey_asm": "OP_HASH160 OP_PUSHBYTES_20 be67cea8e0004a9b4a7fb96175465bfaebff6209 OP_EQUAL",
      "scriptpubkey_type": "p2sh",
      "scriptpubkey_address": "3K3nfeTme6NzeokYaAPioh5tDfgN8WkHY5",
      "value": 600
    },
    {
      "scriptpubkey": "a914be67cea8e0004a9b4a7fb96175465bfaebff620987",
      "scriptpubkey_asm": "OP_HASH160 OP_PUSHBYTES_20 be67cea8e0004a9b4a7fb96175465bfaebff6209 OP_EQUAL",
      "scriptpubkey_type": "p2sh",
      "scriptpubkey_address": "3K3nfeTme6NzeokYaAPioh5tDfgN8WkHY5",
      "value": 600
    },
    {
      "scriptpubkey": "a914be67cea8e0004a9b4a7fb96175465bfaebff620987",
      "scriptpubkey_asm": "OP_HASH160 OP_PUSHBYTES_20 be67cea8e0004a9b4a7fb96175465bfaebff6209 OP_EQUAL",
      "scriptpubkey_type": "p2sh",
      "scriptpubkey_address": "3K3nfeTme6NzeokYaAPioh5tDfgN8WkHY5",
      "value": 600
    },
    {
      "scriptpubkey": "a914be67cea8e0004a9b4a7fb96175465bfaebff620987",
      "scriptpubkey_asm": "OP_HASH160 OP_PUSHBYTES_20 be67cea8e0004a9b4a7fb96175465bfaebff6209 OP_EQUAL",
      "scriptpubkey_type": "p2sh",
      "scriptpubkey_address": "3K3nfeTme6NzeokYaAPioh5tDfgN8WkHY5",
      "value": 600
    },
    {
      "scriptpubkey": "a914be67cea8e0004a9b4a7fb96175465bfaebff620987",
      "scriptpubkey_asm": "OP_HASH160 OP_PUSHBYTES_20 be67cea8e0004a9b4a7fb96175465bfaebff6209 OP_EQUAL",
      "scriptpubkey_type": "p2sh",
      "scriptpubkey_address": "3K3nfeTme6NzeokYaAPioh5tDfgN8WkHY5",
      "value": 600
    },
    {
      "scriptpubkey": "a914be67cea8e0004a9b4a7fb96175465bfaebff620987",
      "scriptpubkey_asm": "OP_HASH160 OP_PUSHBYTES_20 be67cea8e0004a9b4a7fb96175465bfaebff6209 OP_EQUAL",
      "scriptpubkey_type": "p2sh",
      "scriptpubkey_address": "3K3nfeTme6NzeokYaAPioh5tDfgN8WkHY5",
      "value": 600
    },
    {
      "scriptpubkey": "a914be67cea8e0004a9b4a7fb96175465bfaebff620987",
      "scriptpubkey_asm": "OP_HASH160 OP_PUSHBYTES_20 be67cea8e0004a9b4a7fb96175465bfaebff6209 OP_EQUAL",
      "scriptpubkey_type": "p2sh",
      "scriptpubkey_address": "3K3nfeTme6NzeokYaAPioh5tDfgN8WkHY5",
      "value": 9086282
    }
  ],
  "size": 536,
  "weight": 1814,
  "fee": 7718,
  "status": {
    "confirmed": true,
    "block_height": 834638,
    "block_hash": "000000000000000000025f742c626208ac87e0b7d15054abb4a19ca2d735a54e",
    "block_time": 1710405325
  },
  "hex": "02000000000101460fdacd50947cd5b3e08c65df90d4816581a4d6220c77b4ebc679fc7095ea8c0000000017160014fb02bda6a3d3a7c9ac8351831d8b1dba847bdaf4ffffffff0b580200000000000017a914be67cea8e0004a9b4a7fb96175465bfaebff620987580200000000000017a914be67cea8e0004a9b4a7fb96175465bfaebff620987580200000000000017a914be67cea8e0004a9b4a7fb96175465bfaebff620987580200000000000017a914be67cea8e0004a9b4a7fb96175465bfaebff620987580200000000000017a914be67cea8e0004a9b4a7fb96175465bfaebff620987580200000000000017a914be67cea8e0004a9b4a7fb96175465bfaebff620987580200000000000017a914be67cea8e0004a9b4a7fb96175465bfaebff620987580200000000000017a914be67cea8e0004a9b4a7fb96175465bfaebff620987580200000000000017a914be67cea8e0004a9b4a7fb96175465bfaebff620987580200000000000017a914be67cea8e0004a9b4a7fb96175465bfaebff6209874aa58a000000000017a914be67cea8e0004a9b4a7fb96175465bfaebff620987024830450221009c9ed7c0fdb2199606027b26d6e22136957ca247d55797808a726eae829b739a0220685edfe356f933721129baaf8eeadde67dfff51dc0d79bc52e152a5792f34933012102151b7cf0f47bf484186df38632301cff1a3418aa40f41c35cc8c5c24fc54dc5700000000"
}