{
  "txid": "26d7f755d0ab0e344ff40c4a3214108cc4f3d0f2c3f1e6605e24cc0b505bece0",
  "version": 2,
  "locktime": 0,
  "vin": [
    {
      "txid": "cb38f0da4ebd326eeeadcdbf92787f8d5ca895384d74058046e3f1e190499e3f",
      "vout": 0,
      "prevout": {
        "scriptpubkey": "512002ff6a0c3ba3577d3b2b62169d7c90c2f0a8c9381afe48070864f7cd594937d8",
        "scriptpubkey_asm": "OP_PUSHNUM_1 OP_PUSHBYTES_32 02ff6a0c3ba3577d3b2b62169d7c90c2f0a8c9381afe48070864f7cd594937d8",
        "scriptpubkey_type": "v1_p2tr",
        "scriptpubkey_address": "bc1pqtlk5rpm5dth6wetvgtf6lysctc23jfcrtlyspcgvnmu6k2fxlvqsvgwex",
        "value": 5000
      },
      "scriptsig": "",
      "scriptsig_asm": "",
      "witness": [
        "40dd551fa1d7909fbdcd07e32210192969bf01948e356aa3df565a2a9651edb2ae859c3d431e33221193e5bb0cd59b0b77de1f72ba5e8cf7fa7647700ae8589c01"
      ],
      "is_coinbase": false,
      "sequence": 4294967295
    }
  ],
  "vout": [
    {
      "scriptpubkey": "00143919d928e617770c9b365142cb95d85743baba29",
      "scriptpubkey_asm": "OP_0 OP_PUSHBYTES_20 3919d928e617770c9b365142cb95d85743baba29",
      "scriptpubkey_type": "v0_p2wpkh",
      "scriptpubkey_address": "bc1q8yvaj28xzamsexek29pvh9wc2apm4w3fu7zfkh",
      "value": 3792
    }
  ],
  "size": 151,
  "weight": 397,
  "fee": 1208,
  "status": {
    "confirmed": true,
    "block_height": 834552,
    "block_hash": "00000000000000000001dd0468a70c94f619251d286585cff57aeb4bd9ede330",
    "block_time": 1710355598
  },
  "hex": "020000000001013f9e4990e1f1e3468005744d3895a85c8d7f7892bfcdadee6e32bd4edaf038cb0000000000ffffffff01d00e0000000000001600143919d928e617770c9b365142cb95d85743baba29014140dd551fa1d7909fbdcd07e32210192969bf01948e356aa3df565a2a9651edb2ae859c3d431e33221193e5bb0cd59b0b77de1f72ba5e8cf7fa7647700ae8589c0100000000"
}