{
  "txid": "26dcef0933fc0129904955dd9604cbc0b086635ebb9b1203ad743f6fd4ec06ee",
  "version": 2,
  "locktime": 0,
  "vin": [
    {
      "txid": "381e7d018f74d95bc67f91c3b6e85a7eb6fe5801c221ff20bee127528845c265",
      "vout": 0,
      "prevout": {
        "scriptpubkey": "0014e27725ff317aa4f2011157028b93d04ae48fe2fe",
        "scriptpubkey_asm": "OP_0 OP_PUSHBYTES_20 e27725ff317aa4f2011157028b93d04ae48fe2fe",
        "scriptpubkey_type": "v0_p2wpkh",
        "scriptpubkey_address": "bc1qufmjtle302j0yqg32upghy7sftjglch7umur40",
        "value": 290525
      },
      "scriptsig": "",
      "scriptsig_asm": "",
      "witness": [
        "3044022064a086a6441c02bcc62b182345c091057c1cd3cacc75e2210a9535783366fb0202205d5fd34cde56f8d9b2ea8318c0f4c022ea76789d1113c91954b01f72a200b4b401",
        "02fb4fee8b08d2fb0fdc68e7452dbf082aa64adb92275eb73782bfdbec4f128d68"
      ],
      "is_coinbase": false,
      "sequence": 4294967295
    }
  ],
  "vout": [
    {
      "scriptpubkey": "00145efd30dc1221e98c5d1d30aa74f88debb6a82e8e",
      "scriptpubkey_asm": "OP_0 OP_PUSHBYTES_20 5efd30dc1221e98c5d1d30aa74f88debb6a82e8e",
      "scriptpubkey_type": "v0_p2wpkh",
      "scriptpubkey_address": "bc1qtm7nphqjy85cchgaxz48f7ydawm2st5wzd95ec",
      "value": 333
    },
    {
      "scriptpubkey": "512103028ab8e6d7bbfa1ada4165ac168f78d48be7801d6aeb08662a866a36113de5f72102a37672e81e3b0ce6e6a2a3573fd112dc6e3c489c3519c826e61dc9735f73e3f02102020202020202020202020202020202020202020202020202020202020202020253ae",
      "scriptpubkey_asm": "OP_PUSHNUM_1 OP_PUSHBYTES_33 03028ab8e6d7bbfa1ada4165ac168f78d48be7801d6aeb08662a866a36113de5f7 OP_PUSHBYTES_33 02a37672e81e3b0ce6e6a2a3573fd112dc6e3c489c3519c826e61dc9735f73e3f0 OP_PUSHBYTES_33 020202020202020202020202020202020202020202020202020202020202020202 OP_PUSHNUM_3 OP_CHECKMULTISIG",
      "scriptpubkey_type": "unknown",
      "value": 801
    },
    {
      "scriptpubkey": "51210327a626d093ed4857364ef34ff40cf31e92892471d0e03389772c3a7e654df1502103e448ecc8e07a44b4e8ed1251f2488983a98caa1861ed0b61c8659cfcf66a00eb2102020202020202020202020202020202020202020202020202020202020202020253ae",
      "scriptpubkey_asm": "OP_PUSHNUM_1 OP_PUSHBYTES_33 0327a626d093ed4857364ef34ff40cf31e92892471d0e03389772c3a7e654df150 OP_PUSHBYTES_33 03e448ecc8e07a44b4e8ed1251f2488983a98caa1861ed0b61c8659cfcf66a00eb OP_PUSHBYTES_33 020202020202020202020202020202020202020202020202020202020202020202 OP_PUSHNUM_3 OP_CHECKMULTISIG",
      "scriptpubkey_type": "unknown",
      "value": 801
    },
    {
      "scriptpubkey": "0014e27725ff317aa4f2011157028b93d04ae48fe2fe",
      "scriptpubkey_asm": "OP_0 OP_PUSHBYTES_20 e27725ff317aa4f2011157028b93d04ae48fe2fe",
      "scriptpubkey_type": "v0_p2wpkh",
      "scriptpubkey_address": "bc1qufmjtle302j0yqg32upghy7sftjglch7umur40",
      "value": 272376
    }
  ],
  "size": 450,
  "weight": 1473,
  "fee": 16214,
  "status": {
    "confirmed": true,
    "block_height": 834638,
    "block_hash": "000000000000000000025f742c626208ac87e0b7d15054abb4a19ca2d735a54e",
    "block_time": 1710405325
  },
  "hex": "0200000000010165c245885227e1be20ff21c20158feb67e5ae8b6c3917fc65bd9748f017d1e380000000000ffffffff044d010000000000001600145efd30dc1221e98c5d1d30aa74f88debb6a82e8e210300000000000069512103028ab8e6d7bbfa1ada4165ac168f78d48be7801d6aeb08662a866a36113de5f72102a37672e81e3b0ce6e6a2a3573fd112dc6e3c489c3519c826e61dc9735f73e3f02102020202020202020202020202020202020202020202020202020202020202020253ae21030000000000006951210327a626d093ed4857364ef34ff40cf31e92892471d0e03389772c3a7e654df1502103e448ecc8e07a44b4e8ed1251f2488983a98caa1861ed0b61c8659cfcf66a00eb2102020202020202020202020202020202020202020202020202020202020202020253aef827040000000000160014e27725ff317aa4f2011157028b93d04ae48fe2fe02473044022064a086a6441c02bcc62b182345c091057c1cd3cacc75e2210a9535783366fb0202205d5fd34cde56f8d9b2ea8318c0f4c022ea76789d1113c91954b01f72a200b4b4012102fb4fee8b08d2fb0fdc68e7452dbf082aa64adb92275eb73782bfdbec4f128d6800000000"
}