{
  "txid": "26e8b71a8c7c043ca18cf83956ae00f293d397059c3a028e18d49821ef93a10b",
  "version": 2,
  "locktime": 834637,
  "vin": [
    {
      "txid": "3f0cdd5b3e9531849270383e00968d97f210feaa5958bd94c89b8354cea805b2",
      "vout": 1,
      "prevout": {
        "scriptpubkey": "0014e1e49540ca086ad7fbfa557655292304af90c19f",
        "scriptpubkey_asm": "OP_0 OP_PUSHBYTES_20 e1e49540ca086ad7fbfa557655292304af90c19f",
        "scriptpubkey_type": "v0_p2wpkh",
        "scriptpubkey_address": "bc1qu8jf2sx2pp4d07l624m922frqjhepsvlkvtq6l",
        "value": 5602135
      },
      "scriptsig": "",
      "scriptsig_asm": "",
      "witness": [
        "304402203cd7358c231f7981643f8ebb32358af39f30a63ecb1f86b187a1cbcc53a0db3702204f0c2c39eed4ad5bdd1bfb0c62dfb32c1c2dba6a85b041505639933fb975b0b401",
        "02337b9a5ee5f1d5fb34bec10ea71fb9e47a020c068350cbabea0819d535b5750b"
      ],
      "is_coinbase": false,
      "sequence": 4294967293
    }
  ],
  "vout": [
    {
      "scriptpubkey": "0014d5c2f76eb947ce8a9355a7d90f6d6179e94ce5a4",
      "scriptpubkey_asm": "OP_0 OP_PUSHBYTES_20 d5c2f76eb947ce8a9355a7d90f6d6179e94ce5a4",
      "scriptpubkey_type": "v0_p2wpkh",
      "scriptpubkey_address": "bc1q6hp0wm4egl8g4y645lvs7mtp0855eedynancx3",
      "value": 522032
    },
    {
      "scriptpubkey": "0014272209ef62872e7a61a01ced85e0bb96fcb093c9",
      "scriptpubkey_asm": "OP_0 OP_PUSHBYTES_20 272209ef62872e7a61a01ced85e0bb96fcb093c9",
      "scriptpubkey_type": "v0_p2wpkh",
      "scriptpubkey_address": "bc1qyu3qnmmzsuh85cdqrnkctc9mjm7tpy7fpy9nvz",
      "value": 5077861
    }
  ],
  "size": 222,
  "weight": 561,
  "fee": 2242,
  "status": {
    "confirmed": true,
    "block_height": 834638,
    "block_hash": "000000000000000000025f742c626208ac87e0b7d15054abb4a19ca2d735a54e",
    "block_time": 1710405325
  },
  "hex": "02000000000101b205a8ce54839bc894bd5859aafe10f2978d96003e3870928431953e5bdd0c3f0100000000fdffffff0230f7070000000000160014d5c2f76eb947ce8a9355a7d90f6d6179e94ce5a4657b4d0000000000160014272209ef62872e7a61a01ced85e0bb96fcb093c90247304402203cd7358c231f7981643f8ebb32358af39f30a63ecb1f86b187a1cbcc53a0db3702204f0c2c39eed4ad5bdd1bfb0c62dfb32c1c2dba6a85b041505639933fb975b0b4012102337b9a5ee5f1d5fb34bec10ea71fb9e47a020c068350cbabea0819d535b5750b4dbc0c00"
}