{
  "txid": "26eee3889d28f7c059fcc72286d576c4a578ecddba3215e09b793728d0809e16",
  "version": 1,
  "locktime": 0,
  "vin": [
    {
      "txid": "4c1883c5ac1683f3fb0a15fd6c2b713dae942ea1284d9fe562a306966289e839",
      "vout": 1,
      "prevout": {
        "scriptpubkey": "0014eacca18bd40b14fe245679065f20e0088bab8d02",
        "scriptpubkey_asm": "OP_0 OP_PUSHBYTES_20 eacca18bd40b14fe245679065f20e0088bab8d02",
        "scriptpubkey_type": "v0_p2wpkh",
        "scriptpubkey_address": "bc1qatx2rz75pv20ufzk0yr97g8qpz96hrgz57e63j",
        "value": 21238874
      },
      "scriptsig": "",
      "scriptsig_asm": "",
      "witness": [
        "3045022100fdf2b8b461d086f40ed5a49a35e35389bb2c9c829d6ae34689126ebb82b019c002203818f58843acaf658dc7a17bef539ed4af4cd34f58db001e92e42802ffdfefd101",
        "020c32d604f348e4a70e50848abd253c3e5183ad9102c99bd8050d4be4b92943c5"
      ],
      "is_coinbase": false,
      "sequence": 4294967295
    }
  ],
  "vout": [
    {
      "scriptpubkey": "00145e41322c8b371426ce0904310539a75063f64fd2",
      "scriptpubkey_asm": "OP_0 OP_PUSHBYTES_20 5e41322c8b371426ce0904310539a75063f64fd2",
      "scriptpubkey_type": "v0_p2wpkh",
      "scriptpubkey_address": "bc1qteqnytytxu2zdnsfqscs2wd82p3lvn7jkj395k",
      "value": 1480462
    },
    {
      "scriptpubkey": "0014d8e6336ef402a12a5499201f1110c112763bf093",
      "scriptpubkey_asm": "OP_0 OP_PUSHBYTES_20 d8e6336ef402a12a5499201f1110c112763bf093",
      "scriptpubkey_type": "v0_p2wpkh",
      "scriptpubkey_address": "bc1qmrnrxmh5q2sj54yeyq03zyxpzfmrhuynuv7kjn",
      "value": 19754720
    }
  ],
  "size": 223,
  "weight": 562,
  "fee": 3692,
  "status": {
    "confirmed": true,
    "block_height": 834638,
    "block_hash": "000000000000000000025f742c626208ac87e0b7d15054abb4a19ca2d735a54e",
    "block_time": 1710405325
  },
  "hex": "0100000000010139e889629606a362e59f4d28a12e94ae3d712b6cfd150afbf38316acc583184c0100000000ffffffff020e971600000000001600145e41322c8b371426ce0904310539a75063f64fd2e06e2d0100000000160014d8e6336ef402a12a5499201f1110c112763bf09302483045022100fdf2b8b461d086f40ed5a49a35e35389bb2c9c829d6ae34689126ebb82b019c002203818f58843acaf658dc7a17bef539ed4af4cd34f58db001e92e42802ffdfefd10121020c32d604f348e4a70e50848abd253c3e5183ad9102c99bd8050d4be4b92943c500000000"
}