{
  "txid": "26f80bf0a0ed9784cd84a8332a0c609864fc69d982b0f86b9bdec605107c50da",
  "version": 2,
  "locktime": 834458,
  "vin": [
    {
      "txid": "207463dd1f32e431375717bcd648eb0c1a30723f05167485e928af050c411faf",
      "vout": 15,
      "prevout": {
        "scriptpubkey": "00142b94962ff3ea2ef80859ea1b92729e04a98beac2",
        "scriptpubkey_asm": "OP_0 OP_PUSHBYTES_20 2b94962ff3ea2ef80859ea1b92729e04a98beac2",
        "scriptpubkey_type": "v0_p2wpkh",
        "scriptpubkey_address": "bc1q9w2fvtlnagh0szzeagdeyu57qj5ch6kzzt8rkj",
        "value": 55000
      },
      "scriptsig": "",
      "scriptsig_asm": "",
      "witness": [
        "304402204776ced31098f59604e644aeb564f5de67e2f2462770f5e68f2d96e23c63af29022053d62ac9c4e4a338792eafde31c243458d0b34ac52bb0e18594062e0aa35c78001",
        "02a54fda7a59640a0b865589a226c8194b751f8d7489a2a98ff9d287d213c33bfb"
      ],
      "is_coinbase": false,
      "sequence": 4294967293
    },
    {
      "txid": "db900f4eb2ee481f54d28c7babf46d765dfa24682ce8f85fd9065c1c70921b9f",
      "vout": 0,
      "prevout": {
        "scriptpubkey": "00142ed5ce6e665f3b24e141dc594ac70c58f13a9a7c",
        "scriptpubkey_asm": "OP_0 OP_PUSHBYTES_20 2ed5ce6e665f3b24e141dc594ac70c58f13a9a7c",
        "scriptpubkey_type": "v0_p2wpkh",
        "scriptpubkey_address": "bc1q9m2uumnxtuajfc2pm3v543cvtrcn4xnu65gpxh",
        "value": 76450
      },
      "scriptsig": "",
      "scriptsig_asm": "",
      "witness": [
        "304402206404728940e48987a37233b1a874d15222a80301a8b736f89bfa15848b44f24802206b913c379d66adcebd1ac074a307628e8c965dab242104ac2efb42fe0dce34dc01",
        "03c6660b4eae2b56e99d9b97871d1f0fd4a42f71519275d1a6dcac7b8eb8cb9a08"
      ],
      "is_coinbase": false,
      "sequence": 4294967293
    },
    {
      "txid": "c68cd85cc259191f52340ffe1ce245fd84a2e8fa8f8ee18e6b104c9689aed68d",
      "vout": 1,
      "prevout": {
        "scriptpubkey": "0014c6248455572aee15e207fb39809ff775a66d670d",
        "scriptpubkey_asm": "OP_0 OP_PUSHBYTES_20 c6248455572aee15e207fb39809ff775a66d670d",
        "scriptpubkey_type": "v0_p2wpkh",
        "scriptpubkey_address": "bc1qccjgg42h9thptcs8lvucp8lhwknx6ecdfmqqvz",
        "value": 125000
      },
      "scriptsig": "",
      "scriptsig_asm": "",
      "witness": [
        "3044022011bde09ee766078580b1c5cd7d4a4026867c79bd824a3a41e1d7b4923976e67302200fb55d8439ed67e936e131525ec51443b6f2a68c57b3fb4993cdbb63ce28bf0601",
        "02eac9b91f8f6a0cbb8b130c6f174f350da46e2dd90106c3bdbdc4c634014c4ae3"
      ],
      "is_coinbase": false,
      "sequence": 4294967293
    }
  ],
  "vout": [
    {
      "scriptpubkey": "a914743e175c6a35d9788842ae7618ad48910127e14b87",
      "scriptpubkey_asm": "OP_HASH160 OP_PUSHBYTES_20 743e175c6a35d9788842ae7618ad48910127e14b OP_EQUAL",
      "scriptpubkey_type": "p2sh",
      "scriptpubkey_address": "3CHegyLBQdGPtiGMihUJeYuGRFEGQCSDMm",
      "value": 123750
    },
    {
      "scriptpubkey": "a914cd4b4c5cea067099bd858ec46b70831b24c84a0887",
      "scriptpubkey_asm": "OP_HASH160 OP_PUSHBYTES_20 cd4b4c5cea067099bd858ec46b70831b24c84a08 OP_EQUAL",
      "scriptpubkey_type": "p2sh",
      "scriptpubkey_address": "3LQWegkGA1wZrSguR3yJ1m9HT5GfJDYKuA",
      "value": 128700
    }
  ],
  "size": 520,
  "weight": 1111,
  "fee": 4000,
  "status": {
    "confirmed": true,
    "block_height": 834460,
    "block_hash": "00000000000000000000484a79b643b2524bbce82e5d8a442013fa5b8905ed98",
    "block_time": 1710307468
  },
  "hex": "02000000000103af1f410c05af28e9857416053f72301a0ceb48d6bc17573731e4321fdd6374200f00000000fdffffff9f1b92701c5c06d95ff8e82c6824fa5d766df4ab7b8cd2541f48eeb24e0f90db0000000000fdffffff8dd6ae89964c106b8ee18e8ffae8a284fd45e21cfe0f34521f1959c25cd88cc60100000000fdffffff0266e301000000000017a914743e175c6a35d9788842ae7618ad48910127e14b87bcf601000000000017a914cd4b4c5cea067099bd858ec46b70831b24c84a08870247304402204776ced31098f59604e644aeb564f5de67e2f2462770f5e68f2d96e23c63af29022053d62ac9c4e4a338792eafde31c243458d0b34ac52bb0e18594062e0aa35c780012102a54fda7a59640a0b865589a226c8194b751f8d7489a2a98ff9d287d213c33bfb0247304402206404728940e48987a37233b1a874d15222a80301a8b736f89bfa15848b44f24802206b913c379d66adcebd1ac074a307628e8c965dab242104ac2efb42fe0dce34dc012103c6660b4eae2b56e99d9b97871d1f0fd4a42f71519275d1a6dcac7b8eb8cb9a0802473044022011bde09ee766078580b1c5cd7d4a4026867c79bd824a3a41e1d7b4923976e67302200fb55d8439ed67e936e131525ec51443b6f2a68c57b3fb4993cdbb63ce28bf06012102eac9b91f8f6a0cbb8b130c6f174f350da46e2dd90106c3bdbdc4c634014c4ae39abb0c00"
}