{
  "txid": "26fa34ab851518e25844bb109dea1b902a253d8e39acac635c7db5fb18bff9ce",
  "version": 1,
  "locktime": 0,
  "vin": [
    {
      "txid": "dc6fe55192e5c9c5bde9f81cd568e7ac9865d1196089e6430fabcd0e018d7fb4",
      "vout": 92,
      "prevout": {
        "scriptpubkey": "a9145ab1624950be48128007eab5c2813488d49b8e3487",
        "scriptpubkey_asm": "OP_HASH160 OP_PUSHBYTES_20 5ab1624950be48128007eab5c2813488d49b8e34 OP_EQUAL",
        "scriptpubkey_type": "p2sh",
        "scriptpubkey_address": "39xZEfEqFJLfJQzCiCxEG59dZAz4KFu6iV",
        "value": 72788
      },
      "scriptsig": "160014174d2f72a8d59d7c2b930adf5f39313b858cfa04",
      "scriptsig_asm": "OP_PUSHBYTES_22 0014174d2f72a8d59d7c2b930adf5f39313b858cfa04",
      "witness": [
        "3045022100cb705ee8d97e702e4ef785dd79b6cc2917c1567368127e27e2d5c4f15feefb7c02202f648691ca09ea52c4dd0e9a6b4f176b71fbe636b0f62db09b950e3406244b6c01",
        "038fd63df5647557f2b32ec9b0fff2998dea56bee1bd27d7132532fcb92e158ae4"
      ],
      "is_coinbase": false,
      "sequence": 4294967295,
      "inner_redeemscript_asm": "OP_0 OP_PUSHBYTES_20 174d2f72a8d59d7c2b930adf5f39313b858cfa04"
    }
  ],
  "vout": [
    {
      "scriptpubkey": "0014b249bb213edc48a993462cb7ae3173c4f089c0ba",
      "scriptpubkey_asm": "OP_0 OP_PUSHBYTES_20 b249bb213edc48a993462cb7ae3173c4f089c0ba",
      "scriptpubkey_type": "v0_p2wpkh",
      "scriptpubkey_address": "bc1qkfymkgf7m3y2ny6x9jm6uvtncncgns96eaz4hp",
      "value": 69283
    },
    {
      "scriptpubkey": "a914d7870142820dd8fad428e08353fabf8c3468923b87",
      "scriptpubkey_asm": "OP_HASH160 OP_PUSHBYTES_20 d7870142820dd8fad428e08353fabf8c3468923b OP_EQUAL",
      "scriptpubkey_type": "p2sh",
      "scriptpubkey_address": "3MLcw6PKaUuVKHbymVtcc81hnXRC8QLxFQ",
      "value": 1195
    }
  ],
  "size": 247,
  "weight": 658,
  "fee": 2310,
  "status": {
    "confirmed": true,
    "block_height": 834460,
    "block_hash": "00000000000000000000484a79b643b2524bbce82e5d8a442013fa5b8905ed98",
    "block_time": 1710307468
  },
  "hex": "01000000000101b47f8d010ecdab0f43e6896019d16598ace768d51cf8e9bdc5c9e59251e56fdc5c00000017160014174d2f72a8d59d7c2b930adf5f39313b858cfa04ffffffff02a30e010000000000160014b249bb213edc48a993462cb7ae3173c4f089c0baab0400000000000017a914d7870142820dd8fad428e08353fabf8c3468923b8702483045022100cb705ee8d97e702e4ef785dd79b6cc2917c1567368127e27e2d5c4f15feefb7c02202f648691ca09ea52c4dd0e9a6b4f176b71fbe636b0f62db09b950e3406244b6c0121038fd63df5647557f2b32ec9b0fff2998dea56bee1bd27d7132532fcb92e158ae400000000"
}