{
  "txid": "26ff3f3d32f48fb9bc841fad5460bdb5ce1e909dd95c8b1fdad4a63a37fc802e",
  "version": 2,
  "locktime": 0,
  "vin": [
    {
      "txid": "9442a99e2dfe31864b4eac5a61258cc82ee7d9f244db33bfad2a1868aba236a9",
      "vout": 1,
      "prevout": {
        "scriptpubkey": "0014dc75ded86fa08fa426929258933394f4720fc86a",
        "scriptpubkey_asm": "OP_0 OP_PUSHBYTES_20 dc75ded86fa08fa426929258933394f4720fc86a",
        "scriptpubkey_type": "v0_p2wpkh",
        "scriptpubkey_address": "bc1qm36aakr05z86gf5jjfvfxvu573eqljr2ul3d42",
        "value": 1371559
      },
      "scriptsig": "",
      "scriptsig_asm": "",
      "witness": [
        "304402200d2698539826829681fe1544ebdd7625f7921d6b15301a2f69c719742389c34f0220089a3b03294e7eab85a42f755ee64310660b07a7628083a1b27b4f549124001301",
        "03a8b7e27d2fdf3991e1c9421c6feda0b1e82f5c9bbc3b8144404256e7ae198b13"
      ],
      "is_coinbase": false,
      "sequence": 4294967293
    },
    {
      "txid": "d52f7d4a1c3f15db0c7ec77e9ae8fd3c2b4dd25bdeb6e240072729cfede1ab72",
      "vout": 1,
      "prevout": {
        "scriptpubkey": "0014dc75ded86fa08fa426929258933394f4720fc86a",
        "scriptpubkey_asm": "OP_0 OP_PUSHBYTES_20 dc75ded86fa08fa426929258933394f4720fc86a",
        "scriptpubkey_type": "v0_p2wpkh",
        "scriptpubkey_address": "bc1qm36aakr05z86gf5jjfvfxvu573eqljr2ul3d42",
        "value": 923756
      },
      "scriptsig": "",
      "scriptsig_asm": "",
      "witness": [
        "3045022100ea3db14f8625cb30f45fda85eb3a4cb786732e92420f205068785cc79076e42e0220240cfb98ae444dfa6a1ef1f5b299ca8b2b26eba68b7c42311e9aea4dc5455a2101",
        "03a8b7e27d2fdf3991e1c9421c6feda0b1e82f5c9bbc3b8144404256e7ae198b13"
      ],
      "is_coinbase": false,
      "sequence": 4294967293
    }
  ],
  "vout": [
    {
      "scriptpubkey": "76a914f179bd820a5d7ae9c46a39b6dd3103184ebbda2388ac",
      "scriptpubkey_asm": "OP_DUP OP_HASH160 OP_PUSHBYTES_20 f179bd820a5d7ae9c46a39b6dd3103184ebbda23 OP_EQUALVERIFY OP_CHECKSIG",
      "scriptpubkey_type": "p2pkh",
      "scriptpubkey_address": "1P1ogtoHVtUUfJBYS3L7SpKRzRDrsjxjSg",
      "value": 2292522
    }
  ],
  "size": 343,
  "weight": 721,
  "fee": 2793,
  "status": {
    "confirmed": true,
    "block_height": 834464,
    "block_hash": "0000000000000000000177a0869a911a2b65c9bdcd5a8bcb02b68f305bee848e",
    "block_time": 1710308296
  },
  "hex": "02000000000102a936a2ab68182aadbf33db44f2d9e72ec88c25615aac4e4b8631fe2d9ea942940100000000fdffffff72abe1edcf29270740e2b6de5bd24d2b3cfde89a7ec77e0cdb153f1c4a7d2fd50100000000fdffffff012afb2200000000001976a914f179bd820a5d7ae9c46a39b6dd3103184ebbda2388ac0247304402200d2698539826829681fe1544ebdd7625f7921d6b15301a2f69c719742389c34f0220089a3b03294e7eab85a42f755ee64310660b07a7628083a1b27b4f5491240013012103a8b7e27d2fdf3991e1c9421c6feda0b1e82f5c9bbc3b8144404256e7ae198b1302483045022100ea3db14f8625cb30f45fda85eb3a4cb786732e92420f205068785cc79076e42e0220240cfb98ae444dfa6a1ef1f5b299ca8b2b26eba68b7c42311e9aea4dc5455a21012103a8b7e27d2fdf3991e1c9421c6feda0b1e82f5c9bbc3b8144404256e7ae198b1300000000"
}