{
  "txid": "270d3702033f5f4175d70ba59c7a048819e2a301b2c462bc376dfb095ce0de0a",
  "version": 2,
  "locktime": 0,
  "vin": [
    {
      "txid": "367c7995201cb1ac5c45babeeb183f7ce59b193c462f12d07ec31487c91b9e65",
      "vout": 12,
      "prevout": {
        "scriptpubkey": "76a9140fa1ca1b7117b4fc09f0c32c0b731b5f927241f988ac",
        "scriptpubkey_asm": "OP_DUP OP_HASH160 OP_PUSHBYTES_20 0fa1ca1b7117b4fc09f0c32c0b731b5f927241f9 OP_EQUALVERIFY OP_CHECKSIG",
        "scriptpubkey_type": "p2pkh",
        "scriptpubkey_address": "12RexD3ezLbj5A3Z2gBbZp6zzCmJ96oTCH",
        "value": 197547578
      },
      "scriptsig": "473044022041635243c61fab12b49b1134af893c5f42074c507bed25560c701f460ba5ac580220315520b48111e4b07b565a27dc9e2b898edd28aea6f6cfd6dc5a31286c7dd3b40121033d201f8b68b67193bdacc7e74885bc144c9b8693892f455e2d9b531aa78cff7e",
      "scriptsig_asm": "OP_PUSHBYTES_71 3044022041635243c61fab12b49b1134af893c5f42074c507bed25560c701f460ba5ac580220315520b48111e4b07b565a27dc9e2b898edd28aea6f6cfd6dc5a31286c7dd3b401 OP_PUSHBYTES_33 033d201f8b68b67193bdacc7e74885bc144c9b8693892f455e2d9b531aa78cff7e",
      "is_coinbase": false,
      "sequence": 4294967295
    }
  ],
  "vout": [
    {
      "scriptpubkey": "00146997047a94f4b7faec734aa4fde4ad7bc757c823",
      "scriptpubkey_asm": "OP_0 OP_PUSHBYTES_20 6997047a94f4b7faec734aa4fde4ad7bc757c823",
      "scriptpubkey_type": "v0_p2wpkh",
      "scriptpubkey_address": "bc1qdxtsg7557jml4mrnf2j0me9d00r40jprnqf4m8",
      "value": 50854
    },
    {
      "scriptpubkey": "76a9143dca9d03c35bd8f929b730d4cbcc0d28577adbe088ac",
      "scriptpubkey_asm": "OP_DUP OP_HASH160 OP_PUSHBYTES_20 3dca9d03c35bd8f929b730d4cbcc0d28577adbe0 OP_EQUALVERIFY OP_CHECKSIG",
      "scriptpubkey_type": "p2pkh",
      "scriptpubkey_address": "16diwXM8uorRwevu9cRX6TzgPy8XFBKEsf",
      "value": 918260
    },
    {
      "scriptpubkey": "76a914bbee52878f212dc3900dc44309076d042cafc38b88ac",
      "scriptpubkey_asm": "OP_DUP OP_HASH160 OP_PUSHBYTES_20 bbee52878f212dc3900dc44309076d042cafc38b OP_EQUALVERIFY OP_CHECKSIG",
      "scriptpubkey_type": "p2pkh",
      "scriptpubkey_address": "1J8groVdqBh2LAjE3r9f3wn19s2nfNof14",
      "value": 1200000
    },
    {
      "scriptpubkey": "76a914674259cf2653e50d076945e87daf96707629a9de88ac",
      "scriptpubkey_asm": "OP_DUP OP_HASH160 OP_PUSHBYTES_20 674259cf2653e50d076945e87daf96707629a9de OP_EQUALVERIFY OP_CHECKSIG",
      "scriptpubkey_type": "p2pkh",
      "scriptpubkey_address": "1AQz5trqrGRR7CtGHynhFQwycsuSKMB6AW",
      "value": 2566881
    },
    {
      "scriptpubkey": "76a91403b2c5637f2b3e1aecf112ac2160d14e3a16fbd588ac",
      "scriptpubkey_asm": "OP_DUP OP_HASH160 OP_PUSHBYTES_20 03b2c5637f2b3e1aecf112ac2160d14e3a16fbd5 OP_EQUALVERIFY OP_CHECKSIG",
      "scriptpubkey_type": "p2pkh",
      "scriptpubkey_address": "1LZBojbasvzQFvWQCfcED6Q8TBwgPzS5P",
      "value": 2968284
    },
    {
      "scriptpubkey": "001422060bea20146aef6d6d7cd8880699f7cfa3cb41",
      "scriptpubkey_asm": "OP_0 OP_PUSHBYTES_20 22060bea20146aef6d6d7cd8880699f7cfa3cb41",
      "scriptpubkey_type": "v0_p2wpkh",
      "scriptpubkey_address": "bc1qygrqh63qz34w7mtd0nvgsp5e7l868j6php4rkf",
      "value": 3756436
    },
    {
      "scriptpubkey": "76a9148ed08cf9ad7f5fb967f232b9156e2ca2bd4329a188ac",
      "scriptpubkey_asm": "OP_DUP OP_HASH160 OP_PUSHBYTES_20 8ed08cf9ad7f5fb967f232b9156e2ca2bd4329a1 OP_EQUALVERIFY OP_CHECKSIG",
      "scriptpubkey_type": "p2pkh",
      "scriptpubkey_address": "1E28nbYNG7dbW5ZLEcnyGqYiGzoDwiaSgx",
      "value": 4211368
    },
    {
      "scriptpubkey": "76a9143ccc84a474067e5a10fd83b6ab94d406350652f288ac",
      "scriptpubkey_asm": "OP_DUP OP_HASH160 OP_PUSHBYTES_20 3ccc84a474067e5a10fd83b6ab94d406350652f2 OP_EQUALVERIFY OP_CHECKSIG",
      "scriptpubkey_type": "p2pkh",
      "scriptpubkey_address": "16YUYgNthEZaSqAc6yQNChyJEZ4mM43nzn",
      "value": 181866551
    }
  ],
  "size": 423,
  "weight": 1692,
  "fee": 8944,
  "status": {
    "confirmed": true,
    "block_height": 834638,
    "block_hash": "000000000000000000025f742c626208ac87e0b7d15054abb4a19ca2d735a54e",
    "block_time": 1710405325
  },
  "hex": "0200000001659e1bc98714c37ed0122f463c199be57c3f18ebbeba455cacb11c2095797c360c0000006a473044022041635243c61fab12b49b1134af893c5f42074c507bed25560c701f460ba5ac580220315520b48111e4b07b565a27dc9e2b898edd28aea6f6cfd6dc5a31286c7dd3b40121033d201f8b68b67193bdacc7e74885bc144c9b8693892f455e2d9b531aa78cff7effffffff08a6c60000000000001600146997047a94f4b7faec734aa4fde4ad7bc757c823f4020e00000000001976a9143dca9d03c35bd8f929b730d4cbcc0d28577adbe088ac804f1200000000001976a914bbee52878f212dc3900dc44309076d042cafc38b88ace12a2700000000001976a914674259cf2653e50d076945e87daf96707629a9de88acdc4a2d00000000001976a91403b2c5637f2b3e1aecf112ac2160d14e3a16fbd588ac945139000000000016001422060bea20146aef6d6d7cd8880699f7cfa3cb41a8424000000000001976a9148ed08cf9ad7f5fb967f232b9156e2ca2bd4329a188ac3710d70a000000001976a9143ccc84a474067e5a10fd83b6ab94d406350652f288ac00000000"
}