{
  "txid": "271171197888fe90a37ef2fc0f579faf60e1d1075710780be8dbebdc2977c4ee",
  "version": 1,
  "locktime": 0,
  "vin": [
    {
      "txid": "6e177a0037aee209607782f221b41c4da6de2fcc96a3bfc953ecf96740ea7906",
      "vout": 2,
      "prevout": {
        "scriptpubkey": "0020cffcb0c22ee684012fbd9e04c5fb574a5d7f59fa934e329aea6444b0f68b251b",
        "scriptpubkey_asm": "OP_0 OP_PUSHBYTES_32 cffcb0c22ee684012fbd9e04c5fb574a5d7f59fa934e329aea6444b0f68b251b",
        "scriptpubkey_type": "v0_p2wsh",
        "scriptpubkey_address": "bc1qel7tps3wu6zqztaanczvt76hffwh7k06jd8r9xh2v3ztpa5ty5dsz358ys",
        "value": 196252990
      },
      "scriptsig": "",
      "scriptsig_asm": "",
      "witness": [
        "",
        "3044022036eed318e8dc83ded4a3b0c4b3a4ca404c069b4f1b9ad695b9d394e2fdd4638402202fc6cfb6d894bd2b08e16aaab1d7bb163dcaaef84aa9f316c9a7a96059b3c17f01",
        "304402203f21938006593f713ae485fdef4df0b5236ada42b688e866c94af5b93e79415702204c7869b5509d96250b7e6d66533127fd34651f0624b68abf560a77e8285c1db701",
        "522103df45a9e283fc94ae50a4e59e8d1457cc0a9153c862549a581c54abe984a502852103370782f64f5af8aa5155ed3d6c859c7c5055a66f395bd448941c0c77f04f5ecb2102f06ac375535c38d1997330819ea4d6f0de1db6e81221319e98ef526fa2bab07353ae"
      ],
      "is_coinbase": false,
      "sequence": 4294967295,
      "inner_witnessscript_asm": "OP_PUSHNUM_2 OP_PUSHBYTES_33 03df45a9e283fc94ae50a4e59e8d1457cc0a9153c862549a581c54abe984a50285 OP_PUSHBYTES_33 03370782f64f5af8aa5155ed3d6c859c7c5055a66f395bd448941c0c77f04f5ecb OP_PUSHBYTES_33 02f06ac375535c38d1997330819ea4d6f0de1db6e81221319e98ef526fa2bab073 OP_PUSHNUM_3 OP_CHECKMULTISIG"
    }
  ],
  "vout": [
    {
      "scriptpubkey": "00207250d91085a77a4568fa4cfd5bebb59f0b9cb3530f8154cd4fab6d28abd548fe",
      "scriptpubkey_asm": "OP_0 OP_PUSHBYTES_32 7250d91085a77a4568fa4cfd5bebb59f0b9cb3530f8154cd4fab6d28abd548fe",
      "scriptpubkey_type": "v0_p2wsh",
      "scriptpubkey_address": "bc1qwfgdjyy95aay2686fn74h6a4nu9eev6np7q4fn204dkj3274frlqrskvx0",
      "value": 195959956
    },
    {
      "scriptpubkey": "a914f6b4a9f044ef0bf55f0688b94a27e8ae765c1f6187",
      "scriptpubkey_asm": "OP_HASH160 OP_PUSHBYTES_20 f6b4a9f044ef0bf55f0688b94a27e8ae765c1f61 OP_EQUAL",
      "scriptpubkey_type": "p2sh",
      "scriptpubkey_address": "3QBUaUb9tVK3CCXwp4bjR71gndnuAkWFfG",
      "value": 288876
    }
  ],
  "size": 380,
  "weight": 758,
  "fee": 4158,
  "status": {
    "confirmed": true,
    "block_height": 834638,
    "block_hash": "000000000000000000025f742c626208ac87e0b7d15054abb4a19ca2d735a54e",
    "block_time": 1710405325
  },
  "hex": "010000000001010679ea4067f9ec53c9bfa396cc2fdea64d1cb421f282776009e2ae37007a176e0200000000ffffffff02941cae0b000000002200207250d91085a77a4568fa4cfd5bebb59f0b9cb3530f8154cd4fab6d28abd548fe6c6804000000000017a914f6b4a9f044ef0bf55f0688b94a27e8ae765c1f61870400473044022036eed318e8dc83ded4a3b0c4b3a4ca404c069b4f1b9ad695b9d394e2fdd4638402202fc6cfb6d894bd2b08e16aaab1d7bb163dcaaef84aa9f316c9a7a96059b3c17f0147304402203f21938006593f713ae485fdef4df0b5236ada42b688e866c94af5b93e79415702204c7869b5509d96250b7e6d66533127fd34651f0624b68abf560a77e8285c1db70169522103df45a9e283fc94ae50a4e59e8d1457cc0a9153c862549a581c54abe984a502852103370782f64f5af8aa5155ed3d6c859c7c5055a66f395bd448941c0c77f04f5ecb2102f06ac375535c38d1997330819ea4d6f0de1db6e81221319e98ef526fa2bab07353ae00000000"
}