{
  "txid": "271ea297da421ab506d26597c863598fd7b897d26b7514d7904ee828137400a9",
  "version": 1,
  "locktime": 0,
  "vin": [
    {
      "txid": "7579874bb28849a0b64f9946466cb5b4170389ad3ea6409e127521accca14a0b",
      "vout": 1,
      "prevout": {
        "scriptpubkey": "0020aba85046fef9ead63b8d795a761e7aec17e716905b73dfbfe68c37ca5c0637e9",
        "scriptpubkey_asm": "OP_0 OP_PUSHBYTES_32 aba85046fef9ead63b8d795a761e7aec17e716905b73dfbfe68c37ca5c0637e9",
        "scriptpubkey_type": "v0_p2wsh",
        "scriptpubkey_address": "bc1q4w59q3h7l84dvwud09d8v8n6ast7w95stdeal0lx3smu5hqxxl5s28gyp3",
        "value": 7525670
      },
      "scriptsig": "",
      "scriptsig_asm": "",
      "witness": [
        "",
        "3045022100f5d5e5503cf26f4bb0fab91a76e423c6105a09ca297b10d8fda829da76e7fd3f02202671ec1bdb940b7f8751aeebcde8da1a6476c6b2552e26be03c6106b5a97a4d601",
        "3044022010f374fbde9e963d733e5e1ad5b1dcd529dc1417b24b8c64bf289be4f9fccff102207fd0fb48778d2e94e385a1a35402d237b087ae0583e0823bf156b5191213852f01",
        "522102c65773d2321ffa8aa423fd2cea292bf2aaf556ff7017d0b164989c66670234af2103eae17b7552e128bfbfd1e62a3f0ec333158f77d18a611220890af771671814d021038d8c22a035de0093d5b8b2a853491adeee4e103c194b064f9f7a3a91312eb78853ae"
      ],
      "is_coinbase": false,
      "sequence": 4294967295,
      "inner_witnessscript_asm": "OP_PUSHNUM_2 OP_PUSHBYTES_33 02c65773d2321ffa8aa423fd2cea292bf2aaf556ff7017d0b164989c66670234af OP_PUSHBYTES_33 03eae17b7552e128bfbfd1e62a3f0ec333158f77d18a611220890af771671814d0 OP_PUSHBYTES_33 038d8c22a035de0093d5b8b2a853491adeee4e103c194b064f9f7a3a91312eb788 OP_PUSHNUM_3 OP_CHECKMULTISIG"
    }
  ],
  "vout": [
    {
      "scriptpubkey": "0014eb9eb252175940ab9c12511068d78699bc31f042",
      "scriptpubkey_asm": "OP_0 OP_PUSHBYTES_20 eb9eb252175940ab9c12511068d78699bc31f042",
      "scriptpubkey_type": "v0_p2wpkh",
      "scriptpubkey_address": "bc1qaw0ty5sht9q2h8qj2ygx34uxnx7rruzzrqp5ts",
      "value": 1758925
    },
    {
      "scriptpubkey": "0020aa64617e23ba984c6c82255995433a0d13152a15b207f906792109460afa2f7c",
      "scriptpubkey_asm": "OP_0 OP_PUSHBYTES_32 aa64617e23ba984c6c82255995433a0d13152a15b207f906792109460afa2f7c",
      "scriptpubkey_type": "v0_p2wsh",
      "scriptpubkey_address": "bc1q4fjxzl3rh2vycmyzy4ve2se6p5f322s4kgrljpneyyy5vzh69a7q55a64g",
      "value": 5762469
    }
  ],
  "size": 380,
  "weight": 755,
  "fee": 4276,
  "status": {
    "confirmed": true,
    "block_height": 834638,
    "block_hash": "000000000000000000025f742c626208ac87e0b7d15054abb4a19ca2d735a54e",
    "block_time": 1710405325
  },
  "hex": "010000000001010b4aa1ccac2175129e40a63ead890317b4b56c4646994fb6a04988b24b8779750100000000ffffffff02cdd61a0000000000160014eb9eb252175940ab9c12511068d78699bc31f042a5ed570000000000220020aa64617e23ba984c6c82255995433a0d13152a15b207f906792109460afa2f7c0400483045022100f5d5e5503cf26f4bb0fab91a76e423c6105a09ca297b10d8fda829da76e7fd3f02202671ec1bdb940b7f8751aeebcde8da1a6476c6b2552e26be03c6106b5a97a4d601473044022010f374fbde9e963d733e5e1ad5b1dcd529dc1417b24b8c64bf289be4f9fccff102207fd0fb48778d2e94e385a1a35402d237b087ae0583e0823bf156b5191213852f0169522102c65773d2321ffa8aa423fd2cea292bf2aaf556ff7017d0b164989c66670234af2103eae17b7552e128bfbfd1e62a3f0ec333158f77d18a611220890af771671814d021038d8c22a035de0093d5b8b2a853491adeee4e103c194b064f9f7a3a91312eb78853ae00000000"
}