{
  "txid": "271e84e98f0239fc2e7f916275001d326f442475081ac1a88550ee71d56fade5",
  "version": 2,
  "locktime": 0,
  "vin": [
    {
      "txid": "cc6bf230e6ed6367c3eaa1461c8dfb7d7172129d7416eaca2ff04b876bf95992",
      "vout": 1,
      "prevout": {
        "scriptpubkey": "0014c4e860623ed64a072112c243f91ed073a4719ae2",
        "scriptpubkey_asm": "OP_0 OP_PUSHBYTES_20 c4e860623ed64a072112c243f91ed073a4719ae2",
        "scriptpubkey_type": "v0_p2wpkh",
        "scriptpubkey_address": "bc1qcn5xqc376e9qwggjcfplj8kswwj8rxhzjpmzwj",
        "value": 820987
      },
      "scriptsig": "",
      "scriptsig_asm": "",
      "witness": [
        "304402202bf6463f6fef2f6ffe41a9f6bc9386bf83ef4996e58dfbed65d613b9f82b5ccb0220762c88ce1ef6b8e0e1037e53a6e07f890d4b9443d5293aff6000642a486758db01",
        "02b8039633a2097c5243f5aed51cc53d3f74145f00ef2020ebfa3738f29b9b44c7"
      ],
      "is_coinbase": false,
      "sequence": 4294967095
    },
    {
      "txid": "d41b19f88a782665e0ec795297b38cb122c45f01565f3fd8d8efa58de667f879",
      "vout": 2,
      "prevout": {
        "scriptpubkey": "0014c4e860623ed64a072112c243f91ed073a4719ae2",
        "scriptpubkey_asm": "OP_0 OP_PUSHBYTES_20 c4e860623ed64a072112c243f91ed073a4719ae2",
        "scriptpubkey_type": "v0_p2wpkh",
        "scriptpubkey_address": "bc1qcn5xqc376e9qwggjcfplj8kswwj8rxhzjpmzwj",
        "value": 480000
      },
      "scriptsig": "",
      "scriptsig_asm": "",
      "witness": [
        "3045022100a091b489cce7d0043613cfab9e2ff3964beff3d91a46f641e006f8a12019c6a802202845a9350fec1652bdc67d16ed5206bb4961735b006a63d055a9ee45b3c1e0a201",
        "02b8039633a2097c5243f5aed51cc53d3f74145f00ef2020ebfa3738f29b9b44c7"
      ],
      "is_coinbase": false,
      "sequence": 4294967295
    }
  ],
  "vout": [
    {
      "scriptpubkey": "76a9142bba58991703dee7f07b9eb6aa49b817adae56af88ac",
      "scriptpubkey_asm": "OP_DUP OP_HASH160 OP_PUSHBYTES_20 2bba58991703dee7f07b9eb6aa49b817adae56af OP_EQUALVERIFY OP_CHECKSIG",
      "scriptpubkey_type": "p2pkh",
      "scriptpubkey_address": "14zDHoW5S3Ajyo2b193XVH1LYPnYPFcei6",
      "value": 1298272
    }
  ],
  "size": 343,
  "weight": 721,
  "fee": 2715,
  "status": {
    "confirmed": true,
    "block_height": 834460,
    "block_hash": "00000000000000000000484a79b643b2524bbce82e5d8a442013fa5b8905ed98",
    "block_time": 1710307468
  },
  "hex": "020000000001029259f96b874bf02fcaea16749d1272717dfb8d1c46a1eac36763ede630f26bcc010000000037ffffff79f867e68da5efd8d83f5f56015fc422b18cb3975279ece06526788af8191bd40200000000ffffffff0160cf1300000000001976a9142bba58991703dee7f07b9eb6aa49b817adae56af88ac0247304402202bf6463f6fef2f6ffe41a9f6bc9386bf83ef4996e58dfbed65d613b9f82b5ccb0220762c88ce1ef6b8e0e1037e53a6e07f890d4b9443d5293aff6000642a486758db012102b8039633a2097c5243f5aed51cc53d3f74145f00ef2020ebfa3738f29b9b44c702483045022100a091b489cce7d0043613cfab9e2ff3964beff3d91a46f641e006f8a12019c6a802202845a9350fec1652bdc67d16ed5206bb4961735b006a63d055a9ee45b3c1e0a2012102b8039633a2097c5243f5aed51cc53d3f74145f00ef2020ebfa3738f29b9b44c700000000"
}