{
  "txid": "27290145da0856d54f5852cdc3b37ef6b6a9f5de2b199dae290fdd0dd3356e3c",
  "version": 2,
  "locktime": 0,
  "vin": [
    {
      "txid": "a92be594f483c1901d973085b5aca8eed2d53dea294620690dab4dfc028100d9",
      "vout": 1,
      "prevout": {
        "scriptpubkey": "0014de108f35d39c11f52cd7f347e5ecda3447834f0e",
        "scriptpubkey_asm": "OP_0 OP_PUSHBYTES_20 de108f35d39c11f52cd7f347e5ecda3447834f0e",
        "scriptpubkey_type": "v0_p2wpkh",
        "scriptpubkey_address": "bc1qmcgg7dwnnsgl2txh7dr7tmx6x3rcxncw6aagun",
        "value": 70172
      },
      "scriptsig": "",
      "scriptsig_asm": "",
      "witness": [
        "30440220460423bb7a1960e3dc3f24453ede480b73adb990a68e216f9f6f8de1650582640220216f4d62ca1bc2f43b6ee27f28c5242c59da3c702d38fc79c7dbe4635713746401",
        "02b56fd04206226790fd4b2da472d340c27bc3535f3c219f82786c4572f99eae33"
      ],
      "is_coinbase": false,
      "sequence": 4294967295
    }
  ],
  "vout": [
    {
      "scriptpubkey": "0014cabef6e206e3b76420f761b86056b87a17e9de86",
      "scriptpubkey_asm": "OP_0 OP_PUSHBYTES_20 cabef6e206e3b76420f761b86056b87a17e9de86",
      "scriptpubkey_type": "v0_p2wpkh",
      "scriptpubkey_address": "bc1qe2l0dcsxuwmkgg8hvxuxq44c0gt7nh5x3htl9x",
      "value": 36131
    },
    {
      "scriptpubkey": "0014c0bae31c52968a87fcc09f65110c42493adb02c9",
      "scriptpubkey_asm": "OP_0 OP_PUSHBYTES_20 c0bae31c52968a87fcc09f65110c42493adb02c9",
      "scriptpubkey_type": "v0_p2wpkh",
      "scriptpubkey_address": "bc1qczawx8zjj69g0lxqnaj3zrzzfyadkqkf34dfxe",
      "value": 30274
    }
  ],
  "size": 222,
  "weight": 561,
  "fee": 3767,
  "status": {
    "confirmed": true,
    "block_height": 834460,
    "block_hash": "00000000000000000000484a79b643b2524bbce82e5d8a442013fa5b8905ed98",
    "block_time": 1710307468
  },
  "hex": "02000000000101d9008102fc4dab0d69204629ea3dd5d2eea8acb58530971d90c183f494e52ba90100000000ffffffff02238d000000000000160014cabef6e206e3b76420f761b86056b87a17e9de864276000000000000160014c0bae31c52968a87fcc09f65110c42493adb02c9024730440220460423bb7a1960e3dc3f24453ede480b73adb990a68e216f9f6f8de1650582640220216f4d62ca1bc2f43b6ee27f28c5242c59da3c702d38fc79c7dbe46357137464012102b56fd04206226790fd4b2da472d340c27bc3535f3c219f82786c4572f99eae3300000000"
}