{
  "txid": "272c6b9acdf9c14c70e06d2ccc564b9de022f8cec9730546711a5715996574c1",
  "version": 2,
  "locktime": 0,
  "vin": [
    {
      "txid": "5638331e8ac67c2e64b2b9d64acb6f87c98cb8284467d901696167c9aca59ee6",
      "vout": 1,
      "prevout": {
        "scriptpubkey": "00141aa2f8c6b5e0010aa131f6a6ed7a0b9a8546d0c7",
        "scriptpubkey_asm": "OP_0 OP_PUSHBYTES_20 1aa2f8c6b5e0010aa131f6a6ed7a0b9a8546d0c7",
        "scriptpubkey_type": "v0_p2wpkh",
        "scriptpubkey_address": "bc1qr2303344uqqs4gf376nw67stn2z5d5x8lw2sux",
        "value": 4090666
      },
      "scriptsig": "",
      "scriptsig_asm": "",
      "witness": [
        "304402202d11771e568424a3fe63798b51438d83a2388fd1e1c502adfdcf6467fcf80dfc02202af5612b1c8b21baabd951f994928fcc77e91d8e4dd0f12b704df53cec81515501",
        "02307ba29243dde3cb38fc6693ab35fa9cd0015b4652cc258cb5ea9bd26dd49658"
      ],
      "is_coinbase": false,
      "sequence": 4294967295
    }
  ],
  "vout": [
    {
      "scriptpubkey": "00148cc2ed793b9a3d690ead865697c6e1bd725efbf1",
      "scriptpubkey_asm": "OP_0 OP_PUSHBYTES_20 8cc2ed793b9a3d690ead865697c6e1bd725efbf1",
      "scriptpubkey_type": "v0_p2wpkh",
      "scriptpubkey_address": "bc1q3npw67fmng7kjr4dsetf03hph4e9a7l35eq4l5",
      "value": 312818
    },
    {
      "scriptpubkey": "001454e59f8deaabb4b354fb669d7237568888843019",
      "scriptpubkey_asm": "OP_0 OP_PUSHBYTES_20 54e59f8deaabb4b354fb669d7237568888843019",
      "scriptpubkey_type": "v0_p2wpkh",
      "scriptpubkey_address": "bc1q2njelr024w6tx48mv6whyd6k3zyggvqez52fz7",
      "value": 3774214
    }
  ],
  "size": 222,
  "weight": 561,
  "fee": 3634,
  "status": {
    "confirmed": true,
    "block_height": 834638,
    "block_hash": "000000000000000000025f742c626208ac87e0b7d15054abb4a19ca2d735a54e",
    "block_time": 1710405325
  },
  "hex": "02000000000101e69ea5acc967616901d9674428b88cc9876fcb4ad6b9b2642e7cc68a1e3338560100000000ffffffff02f2c50400000000001600148cc2ed793b9a3d690ead865697c6e1bd725efbf1069739000000000016001454e59f8deaabb4b354fb669d72375688888430190247304402202d11771e568424a3fe63798b51438d83a2388fd1e1c502adfdcf6467fcf80dfc02202af5612b1c8b21baabd951f994928fcc77e91d8e4dd0f12b704df53cec815155012102307ba29243dde3cb38fc6693ab35fa9cd0015b4652cc258cb5ea9bd26dd4965800000000"
}