{
  "txid": "2734ec0d4290f62de2948d8c081befb55ec5d4cfa2b5e34a2016ffc521e64d35",
  "version": 2,
  "locktime": 0,
  "vin": [
    {
      "txid": "78e0c64fcacf9f33f0c72ebaf333b71a0c8dbe4bc6e956f8b58db190d33c387e",
      "vout": 0,
      "prevout": {
        "scriptpubkey": "5120ee293222c50688f30eedc49d472a3544e698da28d60cb578dc9cdf402dae7e43",
        "scriptpubkey_asm": "OP_PUSHNUM_1 OP_PUSHBYTES_32 ee293222c50688f30eedc49d472a3544e698da28d60cb578dc9cdf402dae7e43",
        "scriptpubkey_type": "v1_p2tr",
        "scriptpubkey_address": "bc1pac5nygk9q6y0xrhdcjw5w234gnnf3k3g6cxt27xunn05qtdw0epsdfmdrx",
        "value": 20035
      },
      "scriptsig": "",
      "scriptsig_asm": "",
      "witness": [
        "126f7736aeb20deea18d4b7170fa8f14880538bc760ff59a949a28ecb98d4555bb3f929641ee369ec03d7878c264e01ab0d16d66191cea10c3c42ad6843dc320",
        "206d5777b664dfe5bc217fff57a4a521a957ad829db7b88ec12a53c6f8d4ab0f68ac0063036f726401010a746578742f706c61696e004c827b2270223a22746170222c226f70223a22646d742d6d696e74222c22646570223a22393432343830326533386663383839393639343137636439306466346334313437323039643261383365643833373938633063346161343339316164333665356930222c227469636b223a22626974222c22626c6b223a22333938393431227d680063036f726401010a746578742f706c61696e01020100004c827b2270223a22746170222c226f70223a22646d742d6d696e74222c22646570223a22393432343830326533386663383839393639343137636439306466346334313437323039643261383365643833373938633063346161343339316164333665356930222c227469636b223a22626974222c22626c6b223a22373533303639227d680063036f726401010a746578742f706c61696e01020100004c827b2270223a22746170222c226f70223a22646d742d6d696e74222c22646570223a22393432343830326533386663383839393639343137636439306466346334313437323039643261383365643833373938633063346161343339316164333665356930222c227469636b223a22626974222c22626c6b223a22323334393531227d680063036f726401010a746578742f706c61696e01020100004c827b2270223a22746170222c226f70223a22646d742d6d696e74222c22646570223a22393432343830326533386663383839393639343137636439306466346334313437323039643261383365643833373938633063346161343339316164333665356930222c227469636b223a22626974222c22626c6b223a22343038323533227d680063036f726401010a746578742f706c61696e01020100004c827b2270223a22746170222c226f70223a22646d742d6d696e74222c22646570223a22393432343830326533386663383839393639343137636439306466346334313437323039643261383365643833373938633063346161343339316164333665356930222c227469636b223a22626974222c22626c6b223a22333835393833227d680063036f726401010a746578742f706c61696e01020100004c827b2270223a22746170222c226f70223a22646d742d6d696e74222c22646570223a22393432343830326533386663383839393639343137636439306466346334313437323039643261383365643833373938633063346161343339316164333665356930222c227469636b223a22626974222c22626c6b223a22343836363138227d680063036f726401010a746578742f706c61696e01020100004c827b2270223a22746170222c226f70223a22646d742d6d696e74222c22646570223a22393432343830326533386663383839393639343137636439306466346334313437323039643261383365643833373938633063346161343339316164333665356930222c227469636b223a22626974222c22626c6b223a22373134393837227d680063036f726401010a746578742f706c61696e01020100004c827b2270223a22746170222c226f70223a22646d742d6d696e74222c22646570223a22393432343830326533386663383839393639343137636439306466346334313437323039643261383365643833373938633063346161343339316164333665356930222c227469636b223a22626974222c22626c6b223a22343432363631227d680063036f726401010a746578742f706c61696e01020100004c827b2270223a22746170222c226f70223a22646d742d6d696e74222c22646570223a22393432343830326533386663383839393639343137636439306466346334313437323039643261383365643833373938633063346161343339316164333665356930222c227469636b223a22626974222c22626c6b223a22373532313133227d680063036f726401010a746578742f706c61696e01020100004c827b2270223a22746170222c226f70223a22646d742d6d696e74222c22646570223a22393432343830326533386663383839393639343137636439306466346334313437323039643261383365643833373938633063346161343339316164333665356930222c227469636b223a22626974222c22626c6b223a22373137393238227d680063036f726401010a746578742f706c61696e01020100004c827b2270223a22746170222c226f70223a22646d742d6d696e74222c22646570223a22393432343830326533386663383839393639343137636439306466346334313437323039643261383365643833373938633063346161343339316164333665356930222c227469636b223a22626974222c22626c6b223a22383334333831227d680063036f726401010a746578742f706c61696e01020100004c827b2270223a22746170222c226f70223a22646d742d6d696e74222c22646570223a22393432343830326533386663383839393639343137636439306466346334313437323039643261383365643833373938633063346161343339316164333665356930222c227469636b223a22626974222c22626c6b223a22343338373035227d680063036f726401010a746578742f706c61696e01020100004c827b2270223a22746170222c226f70223a22646d742d6d696e74222c22646570223a22393432343830326533386663383839393639343137636439306466346334313437323039643261383365643833373938633063346161343339316164333665356930222c227469636b223a22626974222c22626c6b223a22333635303334227d680063036f726401010a746578742f706c61696e01020100004c827b2270223a22746170222c226f70223a22646d742d6d696e74222c22646570223a22393432343830326533386663383839393639343137636439306466346334313437323039643261383365643833373938633063346161343339316164333665356930222c227469636b223a22626974222c22626c6b223a22363734353334227d680063036f726401010a746578742f706c61696e01020100004c827b2270223a22746170222c226f70223a22646d742d6d696e74222c22646570223a22393432343830326533386663383839393639343137636439306466346334313437323039643261383365643833373938633063346161343339316164333665356930222c227469636b223a22626974222c22626c6b223a22343335353831227d680063036f726401010a746578742f706c61696e01020100004c827b2270223a22746170222c226f70223a22646d742d6d696e74222c22646570223a22393432343830326533386663383839393639343137636439306466346334313437323039643261383365643833373938633063346161343339316164333665356930222c227469636b223a22626974222c22626c6b223a22363937303039227d680063036f726401010a746578742f706c61696e01020100004c827b2270223a22746170222c226f70223a22646d742d6d696e74222c22646570223a22393432343830326533386663383839393639343137636439306466346334313437323039643261383365643833373938633063346161343339316164333665356930222c227469636b223a22626974222c22626c6b223a22323632303732227d680063036f726401010a746578742f706c61696e01020100004c827b2270223a22746170222c226f70223a22646d742d6d696e74222c22646570223a22393432343830326533386663383839393639343137636439306466346334313437323039643261383365643833373938633063346161343339316164333665356930222c227469636b223a22626974222c22626c6b223a22343336333138227d680063036f726401010a746578742f706c61696e01020100004c827b2270223a22746170222c226f70223a22646d742d6d696e74222c22646570223a22393432343830326533386663383839393639343137636439306466346334313437323039643261383365643833373938633063346161343339316164333665356930222c227469636b223a22626974222c22626c6b223a22343838383037227d680063036f726401010a746578742f706c61696e01020100004c827b2270223a22746170222c226f70223a22646d742d6d696e74222c22646570223a22393432343830326533386663383839393639343137636439306466346334313437323039643261383365643833373938633063346161343339316164333665356930222c227469636b223a22626974222c22626c6b223a22353534363334227d680063036f726401010a746578742f706c61696e01020100004c827b2270223a22746170222c226f70223a22646d742d6d696e74222c22646570223a22393432343830326533386663383839393639343137636439306466346334313437323039643261383365643833373938633063346161343339316164333665356930222c227469636b223a22626974222c22626c6b223a22353435343132227d680063036f726401010a746578742f706c61696e01020100004c827b2270223a22746170222c226f70223a22646d742d6d696e74222c22646570223a22393432343830326533386663383839393639343137636439306466346334313437323039643261383365643833373938633063346161343339316164333665356930222c227469636b223a22626974222c22626c6b223a22353830383132227d680063036f726401010a746578742f706c61696e01020100004c827b2270223a22746170222c226f70223a22646d742d6d696e74222c22646570223a22393432343830326533386663383839393639343137636439306466346334313437323039643261383365643833373938633063346161343339316164333665356930222c227469636b223a22626974222c22626c6b223a22313639373731227d68",
        "c16d5777b664dfe5bc217fff57a4a521a957ad829db7b88ec12a53c6f8d4ab0f68"
      ],
      "is_coinbase": false,
      "sequence": 4294967293
    }
  ],
  "vout": [
    {
      "scriptpubkey": "00142dc00bd89757e216724a12f5c1e22d4aabaa3154",
      "scriptpubkey_asm": "OP_0 OP_PUSHBYTES_20 2dc00bd89757e216724a12f5c1e22d4aabaa3154",
      "scriptpubkey_type": "v0_p2wpkh",
      "scriptpubkey_address": "bc1q9hqqhkyh2l3pvuj2zt6urc3df2465v257var2j",
      "value": 546
    },
    {
      "scriptpubkey": "0014862e9c37baad895d8cef4df215ca8fe9b36b93b8",
      "scriptpubkey_asm": "OP_0 OP_PUSHBYTES_20 862e9c37baad895d8cef4df215ca8fe9b36b93b8",
      "scriptpubkey_type": "v0_p2wpkh",
      "scriptpubkey_address": "bc1qschfcda64ky4mr80fheptj50axekhyacak9kqn",
      "value": 6889
    }
  ],
  "size": 3859,
  "weight": 4198,
  "fee": 12600,
  "status": {
    "confirmed": true,
    "block_height": 834460,
    "block_hash": "00000000000000000000484a79b643b2524bbce82e5d8a442013fa5b8905ed98",
    "block_time": 1710307468
  },
  "hex": "020000000001017e383cd390b18db5f856e9c64bbe8d0c1ab733f3ba2ec7f0339fcfca4fc6e0780000000000fdffffff0222020000000000001600142dc00bd89757e216724a12f5c1e22d4aabaa3154e91a000000000000160014862e9c37baad895d8cef4df215ca8fe9b36b93b80340126f7736aeb20deea18d4b7170fa8f14880538bc760ff59a949a28ecb98d4555bb3f929641ee369ec03d7878c264e01ab0d16d66191cea10c3c42ad6843dc320fd390e206d5777b664dfe5bc217fff57a4a521a957ad829db7b88ec12a53c6f8d4ab0f68ac0063036f726401010a746578742f706c61696e004c827b2270223a22746170222c226f70223a22646d742d6d696e74222c22646570223a22393432343830326533386663383839393639343137636439306466346334313437323039643261383365643833373938633063346161343339316164333665356930222c227469636b223a22626974222c22626c6b223a22333938393431227d680063036f726401010a746578742f706c61696e01020100004c827b2270223a22746170222c226f70223a22646d742d6d696e74222c22646570223a22393432343830326533386663383839393639343137636439306466346334313437323039643261383365643833373938633063346161343339316164333665356930222c227469636b223a22626974222c22626c6b223a22373533303639227d680063036f726401010a746578742f706c61696e01020100004c827b2270223a22746170222c226f70223a22646d742d6d696e74222c22646570223a22393432343830326533386663383839393639343137636439306466346334313437323039643261383365643833373938633063346161343339316164333665356930222c227469636b223a22626974222c22626c6b223a22323334393531227d680063036f726401010a746578742f706c61696e01020100004c827b2270223a22746170222c226f70223a22646d742d6d696e74222c22646570223a22393432343830326533386663383839393639343137636439306466346334313437323039643261383365643833373938633063346161343339316164333665356930222c227469636b223a22626974222c22626c6b223a22343038323533227d680063036f726401010a746578742f706c61696e01020100004c827b2270223a22746170222c226f70223a22646d742d6d696e74222c22646570223a22393432343830326533386663383839393639343137636439306466346334313437323039643261383365643833373938633063346161343339316164333665356930222c227469636b223a22626974222c22626c6b223a22333835393833227d680063036f726401010a746578742f706c61696e01020100004c827b2270223a22746170222c226f70223a22646d742d6d696e74222c22646570223a22393432343830326533386663383839393639343137636439306466346334313437323039643261383365643833373938633063346161343339316164333665356930222c227469636b223a22626974222c22626c6b223a22343836363138227d680063036f726401010a746578742f706c61696e01020100004c827b2270223a22746170222c226f70223a22646d742d6d696e74222c22646570223a22393432343830326533386663383839393639343137636439306466346334313437323039643261383365643833373938633063346161343339316164333665356930222c227469636b223a22626974222c22626c6b223a22373134393837227d680063036f726401010a746578742f706c61696e01020100004c827b2270223a22746170222c226f70223a22646d742d6d696e74222c22646570223a22393432343830326533386663383839393639343137636439306466346334313437323039643261383365643833373938633063346161343339316164333665356930222c227469636b223a22626974222c22626c6b223a22343432363631227d680063036f726401010a746578742f706c61696e01020100004c827b2270223a22746170222c226f70223a22646d742d6d696e74222c22646570223a22393432343830326533386663383839393639343137636439306466346334313437323039643261383365643833373938633063346161343339316164333665356930222c227469636b223a22626974222c22626c6b223a22373532313133227d680063036f726401010a746578742f706c61696e01020100004c827b2270223a22746170222c226f70223a22646d742d6d696e74222c22646570223a22393432343830326533386663383839393639343137636439306466346334313437323039643261383365643833373938633063346161343339316164333665356930222c227469636b223a22626974222c22626c6b223a22373137393238227d680063036f726401010a746578742f706c61696e01020100004c827b2270223a22746170222c226f70223a22646d742d6d696e74222c22646570223a22393432343830326533386663383839393639343137636439306466346334313437323039643261383365643833373938633063346161343339316164333665356930222c227469636b223a22626974222c22626c6b223a22383334333831227d680063036f726401010a746578742f706c61696e01020100004c827b2270223a22746170222c226f70223a22646d742d6d696e74222c22646570223a22393432343830326533386663383839393639343137636439306466346334313437323039643261383365643833373938633063346161343339316164333665356930222c227469636b223a22626974222c22626c6b223a22343338373035227d680063036f726401010a746578742f706c61696e01020100004c827b2270223a22746170222c226f70223a22646d742d6d696e74222c22646570223a22393432343830326533386663383839393639343137636439306466346334313437323039643261383365643833373938633063346161343339316164333665356930222c227469636b223a22626974222c22626c6b223a22333635303334227d680063036f726401010a746578742f706c61696e01020100004c827b2270223a22746170222c226f70223a22646d742d6d696e74222c22646570223a22393432343830326533386663383839393639343137636439306466346334313437323039643261383365643833373938633063346161343339316164333665356930222c227469636b223a22626974222c22626c6b223a22363734353334227d680063036f726401010a746578742f706c61696e01020100004c827b2270223a22746170222c226f70223a22646d742d6d696e74222c22646570223a22393432343830326533386663383839393639343137636439306466346334313437323039643261383365643833373938633063346161343339316164333665356930222c227469636b223a22626974222c22626c6b223a22343335353831227d680063036f726401010a746578742f706c61696e01020100004c827b2270223a22746170222c226f70223a22646d742d6d696e74222c22646570223a22393432343830326533386663383839393639343137636439306466346334313437323039643261383365643833373938633063346161343339316164333665356930222c227469636b223a22626974222c22626c6b223a22363937303039227d680063036f726401010a746578742f706c61696e01020100004c827b2270223a22746170222c226f70223a22646d742d6d696e74222c22646570223a22393432343830326533386663383839393639343137636439306466346334313437323039643261383365643833373938633063346161343339316164333665356930222c227469636b223a22626974222c22626c6b223a22323632303732227d680063036f726401010a746578742f706c61696e01020100004c827b2270223a22746170222c226f70223a22646d742d6d696e74222c22646570223a22393432343830326533386663383839393639343137636439306466346334313437323039643261383365643833373938633063346161343339316164333665356930222c227469636b223a22626974222c22626c6b223a22343336333138227d680063036f726401010a746578742f706c61696e01020100004c827b2270223a22746170222c226f70223a22646d742d6d696e74222c22646570223a22393432343830326533386663383839393639343137636439306466346334313437323039643261383365643833373938633063346161343339316164333665356930222c227469636b223a22626974222c22626c6b223a22343838383037227d680063036f726401010a746578742f706c61696e01020100004c827b2270223a22746170222c226f70223a22646d742d6d696e74222c22646570223a22393432343830326533386663383839393639343137636439306466346334313437323039643261383365643833373938633063346161343339316164333665356930222c227469636b223a22626974222c22626c6b223a22353534363334227d680063036f726401010a746578742f706c61696e01020100004c827b2270223a22746170222c226f70223a22646d742d6d696e74222c22646570223a22393432343830326533386663383839393639343137636439306466346334313437323039643261383365643833373938633063346161343339316164333665356930222c227469636b223a22626974222c22626c6b223a22353435343132227d680063036f726401010a746578742f706c61696e01020100004c827b2270223a22746170222c226f70223a22646d742d6d696e74222c22646570223a22393432343830326533386663383839393639343137636439306466346334313437323039643261383365643833373938633063346161343339316164333665356930222c227469636b223a22626974222c22626c6b223a22353830383132227d680063036f726401010a746578742f706c61696e01020100004c827b2270223a22746170222c226f70223a22646d742d6d696e74222c22646570223a22393432343830326533386663383839393639343137636439306466346334313437323039643261383365643833373938633063346161343339316164333665356930222c227469636b223a22626974222c22626c6b223a22313639373731227d6821c16d5777b664dfe5bc217fff57a4a521a957ad829db7b88ec12a53c6f8d4ab0f6800000000"
}