{
  "txid": "276a064030948a10086df5354a0dccf4c731a60ba801872512b25dc58667019b",
  "version": 1,
  "locktime": 0,
  "vin": [
    {
      "txid": "df46f3437fda80ed2654179053ca9b45951b8433f4e0d86afb04fcee40e2c110",
      "vout": 1,
      "prevout": {
        "scriptpubkey": "001462b4853d36f98c0692eaa8fcb0418072d962bda7",
        "scriptpubkey_asm": "OP_0 OP_PUSHBYTES_20 62b4853d36f98c0692eaa8fcb0418072d962bda7",
        "scriptpubkey_type": "v0_p2wpkh",
        "scriptpubkey_address": "bc1qv26g20fklxxqdyh24r7tqsvqwtvk90d88yknq7",
        "value": 646137
      },
      "scriptsig": "",
      "scriptsig_asm": "",
      "witness": [
        "3044022066229bb567f0d47962d79d30046b0195f0241969e2dad0bc3f1a04df631368cb02205e931e6de5f36c67f5b3fcc05e8025f80c7a21d7c7eda5e28ccfee31bff2660801",
        "021bd8fc91a7c906036077910b77087e0b73f1a977b9ba9192b3b4407190aa1afc"
      ],
      "is_coinbase": false,
      "sequence": 4294967295
    }
  ],
  "vout": [
    {
      "scriptpubkey": "a914af5a5c57ffeb30ab2e0c0395b3224696ab67888187",
      "scriptpubkey_asm": "OP_HASH160 OP_PUSHBYTES_20 af5a5c57ffeb30ab2e0c0395b3224696ab678881 OP_EQUAL",
      "scriptpubkey_type": "p2sh",
      "scriptpubkey_address": "3HgCRVBu7wkZg6ag2gR3rJgBcbASmEAWDM",
      "value": 310000
    },
    {
      "scriptpubkey": "001462b4853d36f98c0692eaa8fcb0418072d962bda7",
      "scriptpubkey_asm": "OP_0 OP_PUSHBYTES_20 62b4853d36f98c0692eaa8fcb0418072d962bda7",
      "scriptpubkey_type": "v0_p2wpkh",
      "scriptpubkey_address": "bc1qv26g20fklxxqdyh24r7tqsvqwtvk90d88yknq7",
      "value": 332303
    }
  ],
  "size": 223,
  "weight": 565,
  "fee": 3834,
  "status": {
    "confirmed": true,
    "block_height": 834638,
    "block_hash": "000000000000000000025f742c626208ac87e0b7d15054abb4a19ca2d735a54e",
    "block_time": 1710405325
  },
  "hex": "0100000000010110c1e240eefc04fb6ad8e0f433841b95459bca5390175426ed80da7f43f346df0100000000ffffffff02f0ba04000000000017a914af5a5c57ffeb30ab2e0c0395b3224696ab678881870f1205000000000016001462b4853d36f98c0692eaa8fcb0418072d962bda702473044022066229bb567f0d47962d79d30046b0195f0241969e2dad0bc3f1a04df631368cb02205e931e6de5f36c67f5b3fcc05e8025f80c7a21d7c7eda5e28ccfee31bff266080121021bd8fc91a7c906036077910b77087e0b73f1a977b9ba9192b3b4407190aa1afc00000000"
}