{
  "txid": "278a9746c0b868c3411b826682283c3466eb7a93b863f52bad360521d60b7a02",
  "version": 2,
  "locktime": 834636,
  "vin": [
    {
      "txid": "a6c5736b2ff57bd54cbb335c40a0a0ffb5486b6873b0807f35c7b18387f0d187",
      "vout": 0,
      "prevout": {
        "scriptpubkey": "0014d226e8fdef3478dd21508e70d8247cf6f8dda7fc",
        "scriptpubkey_asm": "OP_0 OP_PUSHBYTES_20 d226e8fdef3478dd21508e70d8247cf6f8dda7fc",
        "scriptpubkey_type": "v0_p2wpkh",
        "scriptpubkey_address": "bc1q6gnw3l00x3ud6g2s3ecdsfru7mudmfluvj38ln",
        "value": 25572
      },
      "scriptsig": "",
      "scriptsig_asm": "",
      "witness": [
        "3044022041c3e7e42ffa8a95eb1afdf7375bb15122bff48a04c4a333df8da2269f0a679602204ae526bcc8756b1c1a0b85ccfbf0a6cd8f701ca94f712002e8d00594ae1bdcab01",
        "03543b66a07c43db91faba88e1ec1184d580c851aab18ef97d00e40f36ca32a2c9"
      ],
      "is_coinbase": false,
      "sequence": 4294967293
    }
  ],
  "vout": [
    {
      "scriptpubkey": "0014840fe328e2bfcf599a67d2fb491d4f71845ba20d",
      "scriptpubkey_asm": "OP_0 OP_PUSHBYTES_20 840fe328e2bfcf599a67d2fb491d4f71845ba20d",
      "scriptpubkey_type": "v0_p2wpkh",
      "scriptpubkey_address": "bc1qss87x28zhl84nxn86ta5j820wxz9hgsdccfyl8",
      "value": 2515
    },
    {
      "scriptpubkey": "0014bb9fc25cde9f430b065e0fb24e4a80d9121ce753",
      "scriptpubkey_asm": "OP_0 OP_PUSHBYTES_20 bb9fc25cde9f430b065e0fb24e4a80d9121ce753",
      "scriptpubkey_type": "v0_p2wpkh",
      "scriptpubkey_address": "bc1qhw0uyhx7napskpj7p7eyuj5qmyfpee6nstteer",
      "value": 20815
    }
  ],
  "size": 222,
  "weight": 561,
  "fee": 2242,
  "status": {
    "confirmed": true,
    "block_height": 834638,
    "block_hash": "000000000000000000025f742c626208ac87e0b7d15054abb4a19ca2d735a54e",
    "block_time": 1710405325
  },
  "hex": "0200000000010187d1f08783b1c7357f80b073686b48b5ffa0a0405c33bb4cd57bf52f6b73c5a60000000000fdffffff02d309000000000000160014840fe328e2bfcf599a67d2fb491d4f71845ba20d4f51000000000000160014bb9fc25cde9f430b065e0fb24e4a80d9121ce75302473044022041c3e7e42ffa8a95eb1afdf7375bb15122bff48a04c4a333df8da2269f0a679602204ae526bcc8756b1c1a0b85ccfbf0a6cd8f701ca94f712002e8d00594ae1bdcab012103543b66a07c43db91faba88e1ec1184d580c851aab18ef97d00e40f36ca32a2c94cbc0c00"
}