{
  "txid": "278fe7a833141ed5e770d3f204cf837137243c59b083fa703486785d9be95cb5",
  "version": 2,
  "locktime": 0,
  "vin": [
    {
      "txid": "11af62a102b611ecb44523dda00d88333c60a82dad37d1b788dce1bb37796109",
      "vout": 24,
      "prevout": {
        "scriptpubkey": "001472c577c5365abea661ad4e8369059c8b9205436a",
        "scriptpubkey_asm": "OP_0 OP_PUSHBYTES_20 72c577c5365abea661ad4e8369059c8b9205436a",
        "scriptpubkey_type": "v0_p2wpkh",
        "scriptpubkey_address": "bc1qwtzh03fkt2l2vcddf6pkjpvu3wfq2sm2luxcp2",
        "value": 15481483
      },
      "scriptsig": "",
      "scriptsig_asm": "",
      "witness": [
        "304402206856632a7fcd99309e8641a4ee57ea63699da45fc24a74156c1c0a756d21968e02202429505f4a4da78830b311b7826554d166dd33d9b920d8c887f0b379d3fce1ef01",
        "03a4d8dc79124f7e6230c72c19c1e63eed769e0f4c4ade6123f4e1271df5189abe"
      ],
      "is_coinbase": false,
      "sequence": 4294967295
    }
  ],
  "vout": [
    {
      "scriptpubkey": "001472c577c5365abea661ad4e8369059c8b9205436a",
      "scriptpubkey_asm": "OP_0 OP_PUSHBYTES_20 72c577c5365abea661ad4e8369059c8b9205436a",
      "scriptpubkey_type": "v0_p2wpkh",
      "scriptpubkey_address": "bc1qwtzh03fkt2l2vcddf6pkjpvu3wfq2sm2luxcp2",
      "value": 2100284
    },
    {
      "scriptpubkey": "0014cb32fc83e08c9e2b0cd2652ec493da620dbbade2",
      "scriptpubkey_asm": "OP_0 OP_PUSHBYTES_20 cb32fc83e08c9e2b0cd2652ec493da620dbbade2",
      "scriptpubkey_type": "v0_p2wpkh",
      "scriptpubkey_address": "bc1qeve0eqlq3j0zkrxjv5hvfy76vgxmht0z3j07a0",
      "value": 13378199
    }
  ],
  "size": 222,
  "weight": 561,
  "fee": 3000,
  "status": {
    "confirmed": true,
    "block_height": 834638,
    "block_hash": "000000000000000000025f742c626208ac87e0b7d15054abb4a19ca2d735a54e",
    "block_time": 1710405325
  },
  "hex": "0200000000010109617937bbe1dc88b7d137ad2da8603c33880da0dd2345b4ec11b602a162af111800000000ffffffff023c0c20000000000016001472c577c5365abea661ad4e8369059c8b9205436a9722cc0000000000160014cb32fc83e08c9e2b0cd2652ec493da620dbbade20247304402206856632a7fcd99309e8641a4ee57ea63699da45fc24a74156c1c0a756d21968e02202429505f4a4da78830b311b7826554d166dd33d9b920d8c887f0b379d3fce1ef012103a4d8dc79124f7e6230c72c19c1e63eed769e0f4c4ade6123f4e1271df5189abe00000000"
}