{
  "txid": "27cc3035e74126bd5762c295a2cb384bf572d296e6936d3941e58e70abfae223",
  "version": 2,
  "locktime": 0,
  "vin": [
    {
      "txid": "1069a8297a96ecdd987c975905d420dd4d2b94dbef1914a4af294a3509fd6e80",
      "vout": 0,
      "prevout": {
        "scriptpubkey": "51209d8e56d8ee1cf13f6b06e9ee50fdd1d1afb0f4bdb56569cc14d6e7d5e5013779",
        "scriptpubkey_asm": "OP_PUSHNUM_1 OP_PUSHBYTES_32 9d8e56d8ee1cf13f6b06e9ee50fdd1d1afb0f4bdb56569cc14d6e7d5e5013779",
        "scriptpubkey_type": "v1_p2tr",
        "scriptpubkey_address": "bc1pnk89dk8wrncn76cxa8h9plw36xhmpa9ak4jknnq56mnategpxausvwvycj",
        "value": 5793
      },
      "scriptsig": "",
      "scriptsig_asm": "",
      "witness": [
        "6f7d912becd024f7f9f4c14bb2088b59f3537e0612bfe0a197d47bdbfdbd5635acd141049941518a081644a7ae84591de358938c02b9ced2309a6e4b12fbab06",
        "2078999929a8495b6c0695ebc34f84ecf2166d1c68dc90b379670e41fc0699b33fac0063036f7264010118746578742f706c61696e3b636861727365743d7574662d38004c867b2270223a22746170222c226f70223a22646d742d6d696e74222c22646570223a22333962373532343338626533613435326464623731376230613635346233313662316164343661383139656234343831383933626337313331663738396539616930222c227469636b223a226e61746f776c73222c22626c6b223a22373035393835227d68",
        "c178999929a8495b6c0695ebc34f84ecf2166d1c68dc90b379670e41fc0699b33f"
      ],
      "is_coinbase": false,
      "sequence": 4294967295
    }
  ],
  "vout": [
    {
      "scriptpubkey": "001466ac3e8dd7beaf668ee28b446737e1f55bada6d6",
      "scriptpubkey_asm": "OP_0 OP_PUSHBYTES_20 66ac3e8dd7beaf668ee28b446737e1f55bada6d6",
      "scriptpubkey_type": "v0_p2wpkh",
      "scriptpubkey_address": "bc1qv6krarwhh6hkdrhz3dzxwdlp74d6mfkk09tmgp",
      "value": 546
    }
  ],
  "size": 390,
  "weight": 636,
  "fee": 5247,
  "status": {
    "confirmed": true,
    "block_height": 834460,
    "block_hash": "00000000000000000000484a79b643b2524bbce82e5d8a442013fa5b8905ed98",
    "block_time": 1710307468
  },
  "hex": "02000000000101806efd09354a29afa41419efdb942b4ddd20d40559977c98ddec967a29a869100000000000ffffffff01220200000000000016001466ac3e8dd7beaf668ee28b446737e1f55bada6d603406f7d912becd024f7f9f4c14bb2088b59f3537e0612bfe0a197d47bdbfdbd5635acd141049941518a081644a7ae84591de358938c02b9ced2309a6e4b12fbab06cd2078999929a8495b6c0695ebc34f84ecf2166d1c68dc90b379670e41fc0699b33fac0063036f7264010118746578742f706c61696e3b636861727365743d7574662d38004c867b2270223a22746170222c226f70223a22646d742d6d696e74222c22646570223a22333962373532343338626533613435326464623731376230613635346233313662316164343661383139656234343831383933626337313331663738396539616930222c227469636b223a226e61746f776c73222c22626c6b223a22373035393835227d6821c178999929a8495b6c0695ebc34f84ecf2166d1c68dc90b379670e41fc0699b33f00000000"
}