{
  "txid": "27cd79255fb2b51a07f435b836a15f15dbcc866055893047c1d7114ec371c181",
  "version": 1,
  "locktime": 0,
  "vin": [
    {
      "txid": "da4396ad784e934e8f70221c4b1d2e6e9936512905aab4a392fbcf09e33135a1",
      "vout": 1,
      "prevout": {
        "scriptpubkey": "0014e6c1331bd9a94a48300ecd9992100872a7c23927",
        "scriptpubkey_asm": "OP_0 OP_PUSHBYTES_20 e6c1331bd9a94a48300ecd9992100872a7c23927",
        "scriptpubkey_type": "v0_p2wpkh",
        "scriptpubkey_address": "bc1qumqnxx7e499ysvqwekveyyqgw2nuywf8mh5n9q",
        "value": 6448099
      },
      "scriptsig": "",
      "scriptsig_asm": "",
      "witness": [
        "3045022100d824e17ce4a239b574cb9f576a3eb3464576d3cadee843f11a8a55d420ac2df40220724fb50d4d96d271efcc20985ba9a3973a1c421b2f7bc70409686529640bd17801",
        "03e89ead104047fcd2983b198bce7cead282c0570482f5669eff729e644858c7b2"
      ],
      "is_coinbase": false,
      "sequence": 4294967295
    }
  ],
  "vout": [
    {
      "scriptpubkey": "76a914c8939745c67b5f5fee02169b3a0b9f63bde417de88ac",
      "scriptpubkey_asm": "OP_DUP OP_HASH160 OP_PUSHBYTES_20 c8939745c67b5f5fee02169b3a0b9f63bde417de OP_EQUALVERIFY OP_CHECKSIG",
      "scriptpubkey_type": "p2pkh",
      "scriptpubkey_address": "1KHYxAQaR5pepRhLUvfTDemwBvtCSvo8SW",
      "value": 1777100
    },
    {
      "scriptpubkey": "00148c2c8c4f23e66e5a79b6f8b0fc71c41af441aae9",
      "scriptpubkey_asm": "OP_0 OP_PUSHBYTES_20 8c2c8c4f23e66e5a79b6f8b0fc71c41af441aae9",
      "scriptpubkey_type": "v0_p2wpkh",
      "scriptpubkey_address": "bc1q3skgcnerueh957dklzc0cuwyrt6yr2hflpj85j",
      "value": 4667287
    }
  ],
  "size": 226,
  "weight": 574,
  "fee": 3712,
  "status": {
    "confirmed": true,
    "block_height": 834552,
    "block_hash": "00000000000000000001dd0468a70c94f619251d286585cff57aeb4bd9ede330",
    "block_time": 1710355598
  },
  "hex": "01000000000101a13531e309cffb92a3b4aa05295136996e2e1d4b1c22708f4e934e78ad9643da0100000000ffffffff02cc1d1b00000000001976a914c8939745c67b5f5fee02169b3a0b9f63bde417de88ac97374700000000001600148c2c8c4f23e66e5a79b6f8b0fc71c41af441aae902483045022100d824e17ce4a239b574cb9f576a3eb3464576d3cadee843f11a8a55d420ac2df40220724fb50d4d96d271efcc20985ba9a3973a1c421b2f7bc70409686529640bd178012103e89ead104047fcd2983b198bce7cead282c0570482f5669eff729e644858c7b200000000"
}