{
  "txid": "27ea85ad0614b2c017560fbe5adf52ecb8cef08b11ece2a8dcbd535ee4d62cfa",
  "version": 2,
  "locktime": 0,
  "vin": [
    {
      "txid": "acc3ba00869acb582a3f2904ce3a11dd3779350ce234063fc7d0959246213364",
      "vout": 55,
      "prevout": {
        "scriptpubkey": "512041ad96f5e2cbb5fa5febac6fd3479babcb14a70d68e1d1de8c949e26a30ef524",
        "scriptpubkey_asm": "OP_PUSHNUM_1 OP_PUSHBYTES_32 41ad96f5e2cbb5fa5febac6fd3479babcb14a70d68e1d1de8c949e26a30ef524",
        "scriptpubkey_type": "v1_p2tr",
        "scriptpubkey_address": "bc1pgxkeda0zew6l5hlt43hax3um4093ffcddrsarh5vjj0zdgcw75jqggzl32",
        "value": 1806
      },
      "scriptsig": "",
      "scriptsig_asm": "",
      "witness": [
        "9594e96137a01d5372407c11f2df47ec3cdd5fc6b8fb87c213789b6405bd5cee2880d7f2a0d38d8d27766938b9f4e26acc2cb1f205072942482f77dad97b1e35",
        "20958a88f93d4e598d15ed982bfc1cd8693783272da8488acac4d11222b18b4102ac0063036f726401010a746578742f706c61696e00357b2270223a226272632d3230222c226f70223a226d696e74222c227469636b223a22646f6765222c22616d74223a2234323030227d68",
        "c0958a88f93d4e598d15ed982bfc1cd8693783272da8488acac4d11222b18b4102"
      ],
      "is_coinbase": false,
      "sequence": 4261412863
    }
  ],
  "vout": [
    {
      "scriptpubkey": "00147a665de7a370f4c9b372ab1fae587500a5bcbdb4",
      "scriptpubkey_asm": "OP_0 OP_PUSHBYTES_20 7a665de7a370f4c9b372ab1fae587500a5bcbdb4",
      "scriptpubkey_type": "v0_p2wpkh",
      "scriptpubkey_address": "bc1q0fn9mearwr6vnvmj4v06ukr4qzjme0d565dzcx",
      "value": 294
    }
  ],
  "size": 294,
  "weight": 540,
  "fee": 1512,
  "status": {
    "confirmed": true,
    "block_height": 834460,
    "block_hash": "00000000000000000000484a79b643b2524bbce82e5d8a442013fa5b8905ed98",
    "block_time": 1710307468
  },
  "hex": "02000000000101643321469295d0c73f0634e20c357937dd113ace04293f2a58cb9a8600bac3ac3700000000fffffffd0126010000000000001600147a665de7a370f4c9b372ab1fae587500a5bcbdb403409594e96137a01d5372407c11f2df47ec3cdd5fc6b8fb87c213789b6405bd5cee2880d7f2a0d38d8d27766938b9f4e26acc2cb1f205072942482f77dad97b1e356d20958a88f93d4e598d15ed982bfc1cd8693783272da8488acac4d11222b18b4102ac0063036f726401010a746578742f706c61696e00357b2270223a226272632d3230222c226f70223a226d696e74222c227469636b223a22646f6765222c22616d74223a2234323030227d6821c0958a88f93d4e598d15ed982bfc1cd8693783272da8488acac4d11222b18b410200000000"
}