{
  "txid": "27ee36ebc959a3d5acfa705a204b22b0715b78f054a2c863711b9139066c94d7",
  "version": 2,
  "locktime": 0,
  "vin": [
    {
      "txid": "5f846d283984d01eb9829d816f88218abd33effc15a08222518615da3e5f47c5",
      "vout": 14,
      "prevout": {
        "scriptpubkey": "51203bec40b5d8fee7df79b622f5f03f2141e38f9770a7cf9f59a94ab80f329b8631",
        "scriptpubkey_asm": "OP_PUSHNUM_1 OP_PUSHBYTES_32 3bec40b5d8fee7df79b622f5f03f2141e38f9770a7cf9f59a94ab80f329b8631",
        "scriptpubkey_type": "v1_p2tr",
        "scriptpubkey_address": "bc1p80kypdwclmna77dkyt6lq0epg83cl9ms5l8e7kdff2uq7v5msccsprd9qw",
        "value": 2862
      },
      "scriptsig": "",
      "scriptsig_asm": "",
      "witness": [
        "0a68dc42c9c2958d9cfbc9f334cbe1c63058987a292f5340ec809e356ee707a626b5dbf1130b476faf0a1ccb7a5dafa6870042f81c0dc539b5c11d45d63da826",
        "203cf6483bd493e9c6eb90ad48ebab4a5489a6693e07419db8c564b5749ab7f5ecac0063036f726401011e6170706c69636174696f6e2f6a736f6e3b636861727365743d7574662d38004cd37b2270223a22706f772d3230222c226f70223a226d696e74222c227469636b223a2250455045222c22616d74223a2231303030222c22736f6c7574696f6e223a22504550453a626331706d6c3973653572666b6c3076393075786c7972667871717a366c34797364637172647371683735656c727133396676647164777139777276736e3a303030303030303030303030303030303030303139393431613561653132383937363539383134343239323533333030353762306461393666336465613163353a3231353230373730303530227d68",
        "c13beca27a4fc825f712a8ee0e92a93b2e9ce7496e1e1c5bfb1b103e51f3be77b5"
      ],
      "is_coinbase": false,
      "sequence": 4294967295
    }
  ],
  "vout": [
    {
      "scriptpubkey": "5120dfcb0cd069b7dec2bf86f906930002d7ea4837001b600bfa99f8c112a58d035c",
      "scriptpubkey_asm": "OP_PUSHNUM_1 OP_PUSHBYTES_32 dfcb0cd069b7dec2bf86f906930002d7ea4837001b600bfa99f8c112a58d035c",
      "scriptpubkey_type": "v1_p2tr",
      "scriptpubkey_address": "bc1pml9se5rfkl0v90uxlyrfxqqz6l4ysdcqrdsqh75elrq39fvdqdwq9wrvsn",
      "value": 546
    }
  ],
  "size": 487,
  "weight": 769,
  "fee": 2316,
  "status": {
    "confirmed": true,
    "block_height": 834460,
    "block_hash": "00000000000000000000484a79b643b2524bbce82e5d8a442013fa5b8905ed98",
    "block_time": 1710307468
  },
  "hex": "02000000000101c5475f3eda1586512282a015fcef33bd8a21886f819d82b91ed08439286d845f0e00000000ffffffff012202000000000000225120dfcb0cd069b7dec2bf86f906930002d7ea4837001b600bfa99f8c112a58d035c03400a68dc42c9c2958d9cfbc9f334cbe1c63058987a292f5340ec809e356ee707a626b5dbf1130b476faf0a1ccb7a5dafa6870042f81c0dc539b5c11d45d63da826fd2001203cf6483bd493e9c6eb90ad48ebab4a5489a6693e07419db8c564b5749ab7f5ecac0063036f726401011e6170706c69636174696f6e2f6a736f6e3b636861727365743d7574662d38004cd37b2270223a22706f772d3230222c226f70223a226d696e74222c227469636b223a2250455045222c22616d74223a2231303030222c22736f6c7574696f6e223a22504550453a626331706d6c3973653572666b6c3076393075786c7972667871717a366c34797364637172647371683735656c727133396676647164777139777276736e3a303030303030303030303030303030303030303139393431613561653132383937363539383134343239323533333030353762306461393666336465613163353a3231353230373730303530227d6821c13beca27a4fc825f712a8ee0e92a93b2e9ce7496e1e1c5bfb1b103e51f3be77b500000000"
}