{
  "txid": "27fde813f981a417db07f007393d75b6d877b39cf07cc3ccb08949531b5ac443",
  "version": 1,
  "locktime": 0,
  "vin": [
    {
      "txid": "63e60c16e10bf4e61087d2dd36fc0292e28392270653080495ff568ddf11c078",
      "vout": 0,
      "prevout": {
        "scriptpubkey": "00149b867f72d5c004a213b0341d837efa8c2f2b5468",
        "scriptpubkey_asm": "OP_0 OP_PUSHBYTES_20 9b867f72d5c004a213b0341d837efa8c2f2b5468",
        "scriptpubkey_type": "v0_p2wpkh",
        "scriptpubkey_address": "bc1qnwr87uk4cqz2yyasxswcxlh63shjk4rgww49zc",
        "value": 53357613
      },
      "scriptsig": "",
      "scriptsig_asm": "",
      "witness": [
        "304402206e356c232c04e5366187abd77eb7e26e49881185269e8a68dd5a83583fad58340220065777067bea1c9b8060ec7516b34b349d783dd51b580c9f969d8c31318285a801",
        "031382b7a9f658ffdd0d99ddcd2f1b754469dd15edc556939ae4431e6bfcbbf9c2"
      ],
      "is_coinbase": false,
      "sequence": 4294967295
    }
  ],
  "vout": [
    {
      "scriptpubkey": "00146ff0678f38c1ca276b7ef9e63926916d050c1b86",
      "scriptpubkey_asm": "OP_0 OP_PUSHBYTES_20 6ff0678f38c1ca276b7ef9e63926916d050c1b86",
      "scriptpubkey_type": "v0_p2wpkh",
      "scriptpubkey_address": "bc1qdlcx0recc89zw6m7l8nrjf53d5zscxuxcwf9e9",
      "value": 700000
    },
    {
      "scriptpubkey": "00149b867f72d5c004a213b0341d837efa8c2f2b5468",
      "scriptpubkey_asm": "OP_0 OP_PUSHBYTES_20 9b867f72d5c004a213b0341d837efa8c2f2b5468",
      "scriptpubkey_type": "v0_p2wpkh",
      "scriptpubkey_address": "bc1qnwr87uk4cqz2yyasxswcxlh63shjk4rgww49zc",
      "value": 52653680
    }
  ],
  "size": 222,
  "weight": 561,
  "fee": 3933,
  "status": {
    "confirmed": true,
    "block_height": 834638,
    "block_hash": "000000000000000000025f742c626208ac87e0b7d15054abb4a19ca2d735a54e",
    "block_time": 1710405325
  },
  "hex": "0100000000010178c011df8d56ff9504085306279283e29202fc36ddd28710e6f40be1160ce6630000000000ffffffff0260ae0a00000000001600146ff0678f38c1ca276b7ef9e63926916d050c1b86706e2303000000001600149b867f72d5c004a213b0341d837efa8c2f2b54680247304402206e356c232c04e5366187abd77eb7e26e49881185269e8a68dd5a83583fad58340220065777067bea1c9b8060ec7516b34b349d783dd51b580c9f969d8c31318285a80121031382b7a9f658ffdd0d99ddcd2f1b754469dd15edc556939ae4431e6bfcbbf9c200000000"
}