{
  "txid": "280428476ef9fa360b6e9334fc1085371a6991a8dea25d21c89bf52303d4ed27",
  "version": 2,
  "locktime": 0,
  "vin": [
    {
      "txid": "57f77319545528b79efac4faed5b717bf57517832116a03a71e225c478c81806",
      "vout": 1,
      "prevout": {
        "scriptpubkey": "0014d47f60cd43b07fc41b06da2f0fbfcbf3d1116dd7",
        "scriptpubkey_asm": "OP_0 OP_PUSHBYTES_20 d47f60cd43b07fc41b06da2f0fbfcbf3d1116dd7",
        "scriptpubkey_type": "v0_p2wpkh",
        "scriptpubkey_address": "bc1q63lkpn2rkplugxcxmghsl07t70g3zmwhd46d0k",
        "value": 154664
      },
      "scriptsig": "",
      "scriptsig_asm": "",
      "witness": [
        "3045022100f58a7d8a11a43a2d99747b414a279c4ae08243ac73ef597a73ce0bb5abd4d3a902203e05784d44ada4623b64a699b393a5488f44435600682e49c138a706a622a31601",
        "039c096635c2689f699946cd4a6b4cfdfedbe43d6db4665117d272f4fcd7362409"
      ],
      "is_coinbase": false,
      "sequence": 4294967295
    },
    {
      "txid": "7e99d3740b222aec6203cdc4bf88538bb7b5b43b8cc01863c6d8c42a6a6411cd",
      "vout": 30,
      "prevout": {
        "scriptpubkey": "0014e27b29b9589c66d9587442cb829d22481250e683",
        "scriptpubkey_asm": "OP_0 OP_PUSHBYTES_20 e27b29b9589c66d9587442cb829d22481250e683",
        "scriptpubkey_type": "v0_p2wpkh",
        "scriptpubkey_address": "bc1qufajnw2cn3ndjkr5gt9c98fzfqf9pe5rsumypa",
        "value": 2913547
      },
      "scriptsig": "",
      "scriptsig_asm": "",
      "witness": [
        "304402205cabe907780663bbc4d3c2b21984ec78a96134e454f4943b165951081ec80366022070b8f8af293ebfb20ab5ab148dccdca2cd1fbface12fdb198b142c2e572676ed01",
        "03ded814c2c01164a9c4f926f6c9d7fe15c2a142d692e8341c915c9ac08ddb5b8b"
      ],
      "is_coinbase": false,
      "sequence": 4294967295
    }
  ],
  "vout": [
    {
      "scriptpubkey": "0014f917cbfe3b20bf3f1fb45a75158f470105c2b127",
      "scriptpubkey_asm": "OP_0 OP_PUSHBYTES_20 f917cbfe3b20bf3f1fb45a75158f470105c2b127",
      "scriptpubkey_type": "v0_p2wpkh",
      "scriptpubkey_address": "bc1qlytuhl3myzln78a5tf63tr68qyzu9vf89n677z",
      "value": 500000
    },
    {
      "scriptpubkey": "0014c06d68516b4b5c01b57ba2b28b5e84a7883cc357",
      "scriptpubkey_asm": "OP_0 OP_PUSHBYTES_20 c06d68516b4b5c01b57ba2b28b5e84a7883cc357",
      "scriptpubkey_type": "v0_p2wpkh",
      "scriptpubkey_address": "bc1qcpkks5ttfdwqrdtm52egkh5y57yres6hfx92wl",
      "value": 2564071
    }
  ],
  "size": 371,
  "weight": 833,
  "fee": 4140,
  "status": {
    "confirmed": true,
    "block_height": 834552,
    "block_hash": "00000000000000000001dd0468a70c94f619251d286585cff57aeb4bd9ede330",
    "block_time": 1710355598
  },
  "hex": "020000000001020618c878c425e2713aa01621831775f57b715bedfac4fa9eb72855541973f7570100000000ffffffffcd11646a2ac4d8c66318c08c3bb4b5b78b5388bfc4cd0362ec2a220b74d3997e1e00000000ffffffff0220a1070000000000160014f917cbfe3b20bf3f1fb45a75158f470105c2b127e71f270000000000160014c06d68516b4b5c01b57ba2b28b5e84a7883cc35702483045022100f58a7d8a11a43a2d99747b414a279c4ae08243ac73ef597a73ce0bb5abd4d3a902203e05784d44ada4623b64a699b393a5488f44435600682e49c138a706a622a3160121039c096635c2689f699946cd4a6b4cfdfedbe43d6db4665117d272f4fcd73624090247304402205cabe907780663bbc4d3c2b21984ec78a96134e454f4943b165951081ec80366022070b8f8af293ebfb20ab5ab148dccdca2cd1fbface12fdb198b142c2e572676ed012103ded814c2c01164a9c4f926f6c9d7fe15c2a142d692e8341c915c9ac08ddb5b8b00000000"
}