{
  "txid": "280aa849df5decfb645429b5cf0032c2b35718cb6fc1dcec7736266f2d775002",
  "version": 2,
  "locktime": 0,
  "vin": [
    {
      "txid": "ade0d3b4d5146455fbc3e494399b239ae66a4d0d1ad50dbc86b025cadbe491f3",
      "vout": 1,
      "prevout": {
        "scriptpubkey": "001421e9157431ad46fbddc987993e0956de6f0a2f7a",
        "scriptpubkey_asm": "OP_0 OP_PUSHBYTES_20 21e9157431ad46fbddc987993e0956de6f0a2f7a",
        "scriptpubkey_type": "v0_p2wpkh",
        "scriptpubkey_address": "bc1qy8532ap344r0hhwfs7vnuz2kmehs5tm6esw2ze",
        "value": 4115639
      },
      "scriptsig": "",
      "scriptsig_asm": "",
      "witness": [
        "304402203c4d53343000ccbf0e1ba0a3e8b3688b412508978fef5970f708da5ce69f3098022011edfa964370a05a9a051b0b3d0957dd4bc195af5a324a18b2a7c24e1b049b7a01",
        "02923efff65a6ca299f07f9a8cbd0349307742d48c51473b2439222ce406e285fb"
      ],
      "is_coinbase": false,
      "sequence": 4294967295
    }
  ],
  "vout": [
    {
      "scriptpubkey": "0014958a7f7252771844500f6683b734a8a7b2e6679d",
      "scriptpubkey_asm": "OP_0 OP_PUSHBYTES_20 958a7f7252771844500f6683b734a8a7b2e6679d",
      "scriptpubkey_type": "v0_p2wpkh",
      "scriptpubkey_address": "bc1qjk987ujjwuvyg5q0v6pmwd9g57ewveuan7nqn0",
      "value": 317262
    },
    {
      "scriptpubkey": "001468eee48148e59213c30c0743cb0c0b372eba50af",
      "scriptpubkey_asm": "OP_0 OP_PUSHBYTES_20 68eee48148e59213c30c0743cb0c0b372eba50af",
      "scriptpubkey_type": "v0_p2wpkh",
      "scriptpubkey_address": "bc1qdrhwfq2gukfp8scvqapukrqtxuht5590746vx0",
      "value": 3794597
    }
  ],
  "size": 222,
  "weight": 561,
  "fee": 3780,
  "status": {
    "confirmed": true,
    "block_height": 834638,
    "block_hash": "000000000000000000025f742c626208ac87e0b7d15054abb4a19ca2d735a54e",
    "block_time": 1710405325
  },
  "hex": "02000000000101f391e4dbca25b086bc0dd51a0d4d6ae69a239b3994e4c3fb556414d5b4d3e0ad0100000000ffffffff024ed7040000000000160014958a7f7252771844500f6683b734a8a7b2e6679da5e639000000000016001468eee48148e59213c30c0743cb0c0b372eba50af0247304402203c4d53343000ccbf0e1ba0a3e8b3688b412508978fef5970f708da5ce69f3098022011edfa964370a05a9a051b0b3d0957dd4bc195af5a324a18b2a7c24e1b049b7a012102923efff65a6ca299f07f9a8cbd0349307742d48c51473b2439222ce406e285fb00000000"
}