{
  "txid": "280f13a1ba4a4582a494a37f047502b44d483d9326b8f32e955c28dca7cbf5e8",
  "version": 1,
  "locktime": 834637,
  "vin": [
    {
      "txid": "f261ca135c20e9a10dc4959e52e36dcd44e9bfab35a66eb0ddeb7d493e35d2c3",
      "vout": 0,
      "prevout": {
        "scriptpubkey": "00145c1e9c33747070609ed2610a374eea857e427e68",
        "scriptpubkey_asm": "OP_0 OP_PUSHBYTES_20 5c1e9c33747070609ed2610a374eea857e427e68",
        "scriptpubkey_type": "v0_p2wpkh",
        "scriptpubkey_address": "bc1qts0fcvm5wpcxp8kjvy9rwnh2s4lyylngnnn3sj",
        "value": 283518355
      },
      "scriptsig": "",
      "scriptsig_asm": "",
      "witness": [
        "3045022100ab10f399ea351d5ca28cea2237f02d6c69ac5877ab72b77be4dd22437afc136402200ccb2a27a5a9f8a7be47660485782ddba90cd5dc49501fea7b42a91797c79ff301",
        "03adcba1b1a9a06b90da95a2de4e13e0367b4a86ff4546da9da90204bbb48055ff"
      ],
      "is_coinbase": false,
      "sequence": 4294967293
    }
  ],
  "vout": [
    {
      "scriptpubkey": "a914145c9600a3f07c282d99d7166d506dbfcb7d5dff87",
      "scriptpubkey_asm": "OP_HASH160 OP_PUSHBYTES_20 145c9600a3f07c282d99d7166d506dbfcb7d5dff OP_EQUAL",
      "scriptpubkey_type": "p2sh",
      "scriptpubkey_address": "33YgMN7J1gKkY6hY6E1KKkCA9Qf6gqqDqv",
      "value": 90000
    },
    {
      "scriptpubkey": "76a914f4c32d2f061e5eef51db21765871aac03d107beb88ac",
      "scriptpubkey_asm": "OP_DUP OP_HASH160 OP_PUSHBYTES_20 f4c32d2f061e5eef51db21765871aac03d107beb OP_EQUALVERIFY OP_CHECKSIG",
      "scriptpubkey_type": "p2pkh",
      "scriptpubkey_address": "1PKBgudq3v4u3gTvhvK3Q7eTUmPPx8R8Rd",
      "value": 1374236
    },
    {
      "scriptpubkey": "001444f2374c4bf8bd3cd61903c6dccf1beb3e734f65",
      "scriptpubkey_asm": "OP_0 OP_PUSHBYTES_20 44f2374c4bf8bd3cd61903c6dccf1beb3e734f65",
      "scriptpubkey_type": "v0_p2wpkh",
      "scriptpubkey_address": "bc1qgnerwnztlz7ne4seq0rdencmavl8xnm9ruuacf",
      "value": 282044615
    }
  ],
  "size": 258,
  "weight": 702,
  "fee": 9504,
  "status": {
    "confirmed": true,
    "block_height": 834638,
    "block_hash": "000000000000000000025f742c626208ac87e0b7d15054abb4a19ca2d735a54e",
    "block_time": 1710405325
  },
  "hex": "01000000000101c3d2353e497debddb06ea635abbfe944cd6de3529e95c40da1e9205c13ca61f20000000000fdffffff03905f01000000000017a914145c9600a3f07c282d99d7166d506dbfcb7d5dff871cf81400000000001976a914f4c32d2f061e5eef51db21765871aac03d107beb88acc7a8cf100000000016001444f2374c4bf8bd3cd61903c6dccf1beb3e734f6502483045022100ab10f399ea351d5ca28cea2237f02d6c69ac5877ab72b77be4dd22437afc136402200ccb2a27a5a9f8a7be47660485782ddba90cd5dc49501fea7b42a91797c79ff3012103adcba1b1a9a06b90da95a2de4e13e0367b4a86ff4546da9da90204bbb48055ff4dbc0c00"
}