{
  "txid": "2811dc3d1be43714d6ea9a41109bb90731bb83bbbc14919da1e5a6534a1f663a",
  "version": 2,
  "locktime": 0,
  "vin": [
    {
      "txid": "3ea12f75bda4a1e667f4a524293c7e6297d9f6963fb788ad45796651e748c54c",
      "vout": 6,
      "prevout": {
        "scriptpubkey": "001416ee7494a93f327c10afe94c04fdcb1dc3744600",
        "scriptpubkey_asm": "OP_0 OP_PUSHBYTES_20 16ee7494a93f327c10afe94c04fdcb1dc3744600",
        "scriptpubkey_type": "v0_p2wpkh",
        "scriptpubkey_address": "bc1qzmh8f99f8ue8cy90a9xqflwtrhphg3sq76srhe",
        "value": 8533696
      },
      "scriptsig": "",
      "scriptsig_asm": "",
      "witness": [
        "3044022035c68300d43f6606e4d1b6b001823fe41d29e1bff781b60711e043a5358455c502207ee79b6a3c458a81f51c1bea852f024dc361809ad6b438834f47cd0379d127d901",
        "02076c2a3862869b95bdadfaaf8bf3376b6ee4bf450aca9587aaa961f7b22533df"
      ],
      "is_coinbase": false,
      "sequence": 4294967293
    }
  ],
  "vout": [
    {
      "scriptpubkey": "0014bf05c6a78a0694d82dd50c04f38998b793eee4d7",
      "scriptpubkey_asm": "OP_0 OP_PUSHBYTES_20 bf05c6a78a0694d82dd50c04f38998b793eee4d7",
      "scriptpubkey_type": "v0_p2wpkh",
      "scriptpubkey_address": "bc1qhuzudfu2q62dstw4psz08zvck7f7aexhzpmryp",
      "value": 336700
    },
    {
      "scriptpubkey": "001416ee7494a93f327c10afe94c04fdcb1dc3744600",
      "scriptpubkey_asm": "OP_0 OP_PUSHBYTES_20 16ee7494a93f327c10afe94c04fdcb1dc3744600",
      "scriptpubkey_type": "v0_p2wpkh",
      "scriptpubkey_address": "bc1qzmh8f99f8ue8cy90a9xqflwtrhphg3sq76srhe",
      "value": 8192100
    }
  ],
  "size": 222,
  "weight": 561,
  "fee": 4896,
  "status": {
    "confirmed": true,
    "block_height": 834638,
    "block_hash": "000000000000000000025f742c626208ac87e0b7d15054abb4a19ca2d735a54e",
    "block_time": 1710405325
  },
  "hex": "020000000001014cc548e751667945ad88b73f96f6d997627e3c2924a5f467e6a1a4bd752fa13e0600000000fdffffff023c23050000000000160014bf05c6a78a0694d82dd50c04f38998b793eee4d764007d000000000016001416ee7494a93f327c10afe94c04fdcb1dc374460002473044022035c68300d43f6606e4d1b6b001823fe41d29e1bff781b60711e043a5358455c502207ee79b6a3c458a81f51c1bea852f024dc361809ad6b438834f47cd0379d127d9012102076c2a3862869b95bdadfaaf8bf3376b6ee4bf450aca9587aaa961f7b22533df00000000"
}