{
  "txid": "28144a330b49c11d2f116f8ee34ade8e7cf405860c0af37347d74188920208c8",
  "version": 2,
  "locktime": 0,
  "vin": [
    {
      "txid": "b13bb5512a4904c28a6b7957b88edf574e8cb23551fc1dcfe22d6b239df42cf4",
      "vout": 32,
      "prevout": {
        "scriptpubkey": "51209d2da48e261a6b9cc6490431db5e5c99bf46910c60a185c2ac127b9bc9989a23",
        "scriptpubkey_asm": "OP_PUSHNUM_1 OP_PUSHBYTES_32 9d2da48e261a6b9cc6490431db5e5c99bf46910c60a185c2ac127b9bc9989a23",
        "scriptpubkey_type": "v1_p2tr",
        "scriptpubkey_address": "bc1pn5k6fr3xrf4ee3jfqscakhjunxl5dygvvzscts4vzfaehjvcng3stxduc6",
        "value": 2575
      },
      "scriptsig": "",
      "scriptsig_asm": "",
      "witness": [
        "53567e0241e9e146ea145f0c1efa15182d0f6c3494c5f957a03680b8990a7acd1d64649922393fc6a0f8f7ef42b3d0da4368ee651757c9aa5d7e8a36e0690951",
        "20d9f237519fa65bbd348cea4f9988922e99ba63af333308ab16e11e79c3a0930bac0063036f726401010a746578742f706c61696e00367b2270223a226272632d3230222c226f70223a226d696e74222c227469636b223a2261616161222c22616d74223a223130303030227d68",
        "c0d9f237519fa65bbd348cea4f9988922e99ba63af333308ab16e11e79c3a0930b"
      ],
      "is_coinbase": false,
      "sequence": 4261412863
    }
  ],
  "vout": [
    {
      "scriptpubkey": "0014ce0b5aa0dac72397a8aa5a85d90a2cfb46f0f630",
      "scriptpubkey_asm": "OP_0 OP_PUSHBYTES_20 ce0b5aa0dac72397a8aa5a85d90a2cfb46f0f630",
      "scriptpubkey_type": "v0_p2wpkh",
      "scriptpubkey_address": "bc1qec944gx6cu3e0292t2zajz3vldr0pa3sh356d9",
      "value": 546
    }
  ],
  "size": 295,
  "weight": 541,
  "fee": 2029,
  "status": {
    "confirmed": true,
    "block_height": 834464,
    "block_hash": "0000000000000000000177a0869a911a2b65c9bdcd5a8bcb02b68f305bee848e",
    "block_time": 1710308296
  },
  "hex": "02000000000101f42cf49d236b2de2cf1dfc5135b28c4e57df8eb857796b8ac204492a51b53bb12000000000fffffffd012202000000000000160014ce0b5aa0dac72397a8aa5a85d90a2cfb46f0f630034053567e0241e9e146ea145f0c1efa15182d0f6c3494c5f957a03680b8990a7acd1d64649922393fc6a0f8f7ef42b3d0da4368ee651757c9aa5d7e8a36e06909516e20d9f237519fa65bbd348cea4f9988922e99ba63af333308ab16e11e79c3a0930bac0063036f726401010a746578742f706c61696e00367b2270223a226272632d3230222c226f70223a226d696e74222c227469636b223a2261616161222c22616d74223a223130303030227d6821c0d9f237519fa65bbd348cea4f9988922e99ba63af333308ab16e11e79c3a0930b00000000"
}