{
  "txid": "281ca10c0afd57fe65ec03f4ab003ee63b0d19f6cfaf4bc69218d2d624a069a7",
  "version": 2,
  "locktime": 0,
  "vin": [
    {
      "txid": "8392e464df255142bc1779000a29962f1dc085b7be5671c0a43fa3a4fe6015f9",
      "vout": 3,
      "prevout": {
        "scriptpubkey": "0014f32d244114865320e3517d8d1adf6793c5d2f5e9",
        "scriptpubkey_asm": "OP_0 OP_PUSHBYTES_20 f32d244114865320e3517d8d1adf6793c5d2f5e9",
        "scriptpubkey_type": "v0_p2wpkh",
        "scriptpubkey_address": "bc1q7vkjgsg5sefjpc630kx34hm8j0za9a0fgw6kdl",
        "value": 547
      },
      "scriptsig": "",
      "scriptsig_asm": "",
      "witness": [
        "304402206717ed1f3ed02e8ffbc1924d6277c56f969ec519d5196f2797454f5ba350600302206e7137e967bd2840989b51107544f202b6b0a171aff2daa0d2e18a861aa1e53281",
        "032a810f496da9ecdef49eb8adc9ef37c41964a8bc4642504b62e8010d00f2ba68"
      ],
      "is_coinbase": false,
      "sequence": 4294967293
    },
    {
      "txid": "0977d2f7d367d7b3a8ebb4b09463fa9bc5e2eeeb93dcde380a46bbbc2ba72a04",
      "vout": 1,
      "prevout": {
        "scriptpubkey": "001432163985933dcc5b272f1f76b444f94093ae4dbe",
        "scriptpubkey_asm": "OP_0 OP_PUSHBYTES_20 32163985933dcc5b272f1f76b444f94093ae4dbe",
        "scriptpubkey_type": "v0_p2wpkh",
        "scriptpubkey_address": "bc1qxgtrnpvn8hx9kfe0ramtg38egzf6und70pw4hm",
        "value": 8127239
      },
      "scriptsig": "",
      "scriptsig_asm": "",
      "witness": [
        "30440220223b2a9ff87056b146eb71a507545871306370fb4ca8f5ca5ab84687a33e3efb02203891cb98ebc9869d445430ebd15a218a8dfc9584b312f7c3b77b413eec9d8be401",
        "02749062e7b78561efafd76ed4cad02593ae136627bb1c8ff32a7a689bb7a7e23d"
      ],
      "is_coinbase": false,
      "sequence": 4294967293
    }
  ],
  "vout": [
    {
      "scriptpubkey": "001452ce093edfc802d8816797f443b19535825f4e12",
      "scriptpubkey_asm": "OP_0 OP_PUSHBYTES_20 52ce093edfc802d8816797f443b19535825f4e12",
      "scriptpubkey_type": "v0_p2wpkh",
      "scriptpubkey_address": "bc1q2t8qj0kleqpd3qt8jl6y8vv4xkp97nsjgkxkzn",
      "value": 8109000
    },
    {
      "scriptpubkey": "51210218d6b384f4dbec990c3718e6296209e01428a27c64bebc6730e5e6abf97f5aec2102d17d3095318f0e977e957535cb64fed8bd377ab85f97eb1bf6ad69c697e842b72103333333333333333333333333333333333333333333333333333333333333333353ae",
      "scriptpubkey_asm": "OP_PUSHNUM_1 OP_PUSHBYTES_33 0218d6b384f4dbec990c3718e6296209e01428a27c64bebc6730e5e6abf97f5aec OP_PUSHBYTES_33 02d17d3095318f0e977e957535cb64fed8bd377ab85f97eb1bf6ad69c697e842b7 OP_PUSHBYTES_33 033333333333333333333333333333333333333333333333333333333333333333 OP_PUSHNUM_3 OP_CHECKMULTISIG",
      "scriptpubkey_type": "unknown",
      "value": 796
    },
    {
      "scriptpubkey": "5121026f4468257a9e8f3e6584e26df3826ffdcf1899c4fc23741bf8e90802be6af8fe21025b2d79e13fab1a1013582eaf2947dd8e962aaa1dd1cb0a569e9002711e74238f2102222222222222222222222222222222222222222222222222222222222222222253ae",
      "scriptpubkey_asm": "OP_PUSHNUM_1 OP_PUSHBYTES_33 026f4468257a9e8f3e6584e26df3826ffdcf1899c4fc23741bf8e90802be6af8fe OP_PUSHBYTES_33 025b2d79e13fab1a1013582eaf2947dd8e962aaa1dd1cb0a569e9002711e74238f OP_PUSHBYTES_33 022222222222222222222222222222222222222222222222222222222222222222 OP_PUSHNUM_3 OP_CHECKMULTISIG",
      "scriptpubkey_type": "unknown",
      "value": 796
    },
    {
      "scriptpubkey": "0014f32d244114865320e3517d8d1adf6793c5d2f5e9",
      "scriptpubkey_asm": "OP_0 OP_PUSHBYTES_20 f32d244114865320e3517d8d1adf6793c5d2f5e9",
      "scriptpubkey_type": "v0_p2wpkh",
      "scriptpubkey_address": "bc1q7vkjgsg5sefjpc630kx34hm8j0za9a0fgw6kdl",
      "value": 547
    }
  ],
  "size": 598,
  "weight": 1744,
  "fee": 16647,
  "status": {
    "confirmed": true,
    "block_height": 834638,
    "block_hash": "000000000000000000025f742c626208ac87e0b7d15054abb4a19ca2d735a54e",
    "block_time": 1710405325
  },
  "hex": "02000000000102f91560fea4a33fa4c07156beb785c01d2f96290a007917bc425125df64e492830300000000fdffffff042aa72bbcbb460a38dedc93ebeee2c59bfa6394b0b4eba8b3d767d3f7d277090100000000fdffffff04c8bb7b000000000016001452ce093edfc802d8816797f443b19535825f4e121c030000000000006951210218d6b384f4dbec990c3718e6296209e01428a27c64bebc6730e5e6abf97f5aec2102d17d3095318f0e977e957535cb64fed8bd377ab85f97eb1bf6ad69c697e842b72103333333333333333333333333333333333333333333333333333333333333333353ae1c03000000000000695121026f4468257a9e8f3e6584e26df3826ffdcf1899c4fc23741bf8e90802be6af8fe21025b2d79e13fab1a1013582eaf2947dd8e962aaa1dd1cb0a569e9002711e74238f2102222222222222222222222222222222222222222222222222222222222222222253ae2302000000000000160014f32d244114865320e3517d8d1adf6793c5d2f5e90247304402206717ed1f3ed02e8ffbc1924d6277c56f969ec519d5196f2797454f5ba350600302206e7137e967bd2840989b51107544f202b6b0a171aff2daa0d2e18a861aa1e5328121032a810f496da9ecdef49eb8adc9ef37c41964a8bc4642504b62e8010d00f2ba68024730440220223b2a9ff87056b146eb71a507545871306370fb4ca8f5ca5ab84687a33e3efb02203891cb98ebc9869d445430ebd15a218a8dfc9584b312f7c3b77b413eec9d8be4012102749062e7b78561efafd76ed4cad02593ae136627bb1c8ff32a7a689bb7a7e23d00000000"
}