{
  "txid": "281f4014eaf8a3d01044382e57e0e3d2b03a1dba8c7da747b456470343564c51",
  "version": 2,
  "locktime": 0,
  "vin": [
    {
      "txid": "fee5b5cdb25f5951b01b6cde6f2180afc75f8e6862a2958bb8323fd72638452b",
      "vout": 0,
      "prevout": {
        "scriptpubkey": "00148e3f9b3bb279f7119ff5261b1ff94bea05fd56e6",
        "scriptpubkey_asm": "OP_0 OP_PUSHBYTES_20 8e3f9b3bb279f7119ff5261b1ff94bea05fd56e6",
        "scriptpubkey_type": "v0_p2wpkh",
        "scriptpubkey_address": "bc1q3clekwaj08m3r8l4ycd3l72tagzl64hx355q8y",
        "value": 170000
      },
      "scriptsig": "",
      "scriptsig_asm": "",
      "witness": [
        "3044022051449dfcfb014bede743093ef6ac52526db2f91acbb96979f219a0732afdd47402203d1540b50d54f671b9da5506184b005645f8cc536fd3d70ac4f3e6add153a58901",
        "03445fd05a97717af785a0fb00525f775b8cda0d5bcfe50e57e61bed6da6ef0779"
      ],
      "is_coinbase": false,
      "sequence": 4294967295
    }
  ],
  "vout": [
    {
      "scriptpubkey": "001462a523663891f3325ba1b787f6d8566b8885e3f8",
      "scriptpubkey_asm": "OP_0 OP_PUSHBYTES_20 62a523663891f3325ba1b787f6d8566b8885e3f8",
      "scriptpubkey_type": "v0_p2wpkh",
      "scriptpubkey_address": "bc1qv2jjxe3cj8enykapk7rldkzkdwygtclcn78rhr",
      "value": 168206
    }
  ],
  "size": 191,
  "weight": 437,
  "fee": 1794,
  "status": {
    "confirmed": true,
    "block_height": 834638,
    "block_hash": "000000000000000000025f742c626208ac87e0b7d15054abb4a19ca2d735a54e",
    "block_time": 1710405325
  },
  "hex": "020000000001012b453826d73f32b88b95a262688e5fc7af80216fde6c1bb051595fb2cdb5e5fe0000000000ffffffff010e9102000000000016001462a523663891f3325ba1b787f6d8566b8885e3f802473044022051449dfcfb014bede743093ef6ac52526db2f91acbb96979f219a0732afdd47402203d1540b50d54f671b9da5506184b005645f8cc536fd3d70ac4f3e6add153a589012103445fd05a97717af785a0fb00525f775b8cda0d5bcfe50e57e61bed6da6ef077900000000"
}