{
  "txid": "282765de8e517b5357cfec15d0cd1c2ea830ef09c5a186f5cb6017c008c6344c",
  "version": 2,
  "locktime": 0,
  "vin": [
    {
      "txid": "9b1df2f0e777d6ee3b5074cfa5e62c6dcd850c3e3cef6f3c61a7918bc8f9af69",
      "vout": 2,
      "prevout": {
        "scriptpubkey": "51202d354a6f7e017e812d168ae022fd90260d9340d3d218e924e1fc11f3d7ccb5a2",
        "scriptpubkey_asm": "OP_PUSHNUM_1 OP_PUSHBYTES_32 2d354a6f7e017e812d168ae022fd90260d9340d3d218e924e1fc11f3d7ccb5a2",
        "scriptpubkey_type": "v1_p2tr",
        "scriptpubkey_address": "bc1p95655mm7q9lgztgk3tsz9lvsycxexsxn6gvwjf8plsgl847vkk3q5ja99k",
        "value": 25431
      },
      "scriptsig": "",
      "scriptsig_asm": "",
      "witness": [
        "8fe3ba8074f55fb986b15c61f0d763fa5641dddd85367825a91009d7950b44e1b9c96c4e21714054b7fdd639f4a82d8b9d15cc8c2f485fe7636b986c2fe03047"
      ],
      "is_coinbase": false,
      "sequence": 2147483649
    },
    {
      "txid": "2dbb264007186c95490edf2eb207bbfbb58787705bdefa9a1276e89072fecbe1",
      "vout": 1,
      "prevout": {
        "scriptpubkey": "51202d354a6f7e017e812d168ae022fd90260d9340d3d218e924e1fc11f3d7ccb5a2",
        "scriptpubkey_asm": "OP_PUSHNUM_1 OP_PUSHBYTES_32 2d354a6f7e017e812d168ae022fd90260d9340d3d218e924e1fc11f3d7ccb5a2",
        "scriptpubkey_type": "v1_p2tr",
        "scriptpubkey_address": "bc1p95655mm7q9lgztgk3tsz9lvsycxexsxn6gvwjf8plsgl847vkk3q5ja99k",
        "value": 4699
      },
      "scriptsig": "",
      "scriptsig_asm": "",
      "witness": [
        "0e46b57ccd3ab4e8ba3639097b5ae7add51f3e07b548c2639544baf1902e77a50b6e25a29080cad139484b3e88b5c0a5cf2c658a7f1d9eac0d714793d7fb3d21"
      ],
      "is_coinbase": false,
      "sequence": 2147483649
    },
    {
      "txid": "e6f96e7189937ef11394b636ea4347a8da1202efd99f4611af8888b3c03c61e5",
      "vout": 0,
      "prevout": {
        "scriptpubkey": "51202d354a6f7e017e812d168ae022fd90260d9340d3d218e924e1fc11f3d7ccb5a2",
        "scriptpubkey_asm": "OP_PUSHNUM_1 OP_PUSHBYTES_32 2d354a6f7e017e812d168ae022fd90260d9340d3d218e924e1fc11f3d7ccb5a2",
        "scriptpubkey_type": "v1_p2tr",
        "scriptpubkey_address": "bc1p95655mm7q9lgztgk3tsz9lvsycxexsxn6gvwjf8plsgl847vkk3q5ja99k",
        "value": 1800
      },
      "scriptsig": "",
      "scriptsig_asm": "",
      "witness": [
        "1b859eddd2f75b055026069bdfc9cd325c50350d1546a18065d667b3420e2d01fdaa87da48d9edd6cf359a720f7cf47b2bf8ad7851bed4fc7a73a8bc0399385f"
      ],
      "is_coinbase": false,
      "sequence": 2147483649
    },
    {
      "txid": "842a0eb2a0ef62fe57fef864a447a145c9a307272f8800f8247e5e2821c574ba",
      "vout": 0,
      "prevout": {
        "scriptpubkey": "51202d354a6f7e017e812d168ae022fd90260d9340d3d218e924e1fc11f3d7ccb5a2",
        "scriptpubkey_asm": "OP_PUSHNUM_1 OP_PUSHBYTES_32 2d354a6f7e017e812d168ae022fd90260d9340d3d218e924e1fc11f3d7ccb5a2",
        "scriptpubkey_type": "v1_p2tr",
        "scriptpubkey_address": "bc1p95655mm7q9lgztgk3tsz9lvsycxexsxn6gvwjf8plsgl847vkk3q5ja99k",
        "value": 1800
      },
      "scriptsig": "",
      "scriptsig_asm": "",
      "witness": [
        "d26d8e8ba960f58293243f49dc15fe2a5c3f15361eea86dd7aa38c3e8f8d7e9c409638170588f2500d62b10065d24167fe55cb2c558936b645dadb91d6f2e5a9"
      ],
      "is_coinbase": false,
      "sequence": 2147483649
    },
    {
      "txid": "618b212d89d47bf1c165704bce19b2c1627c384a5eba4d881f240901c9c5663f",
      "vout": 0,
      "prevout": {
        "scriptpubkey": "51202d354a6f7e017e812d168ae022fd90260d9340d3d218e924e1fc11f3d7ccb5a2",
        "scriptpubkey_asm": "OP_PUSHNUM_1 OP_PUSHBYTES_32 2d354a6f7e017e812d168ae022fd90260d9340d3d218e924e1fc11f3d7ccb5a2",
        "scriptpubkey_type": "v1_p2tr",
        "scriptpubkey_address": "bc1p95655mm7q9lgztgk3tsz9lvsycxexsxn6gvwjf8plsgl847vkk3q5ja99k",
        "value": 1800
      },
      "scriptsig": "",
      "scriptsig_asm": "",
      "witness": [
        "2410d97880a9fb34ea5814491a91d5613cc66b4e373e721a6f468ffa6533f2ddfdf69ee4cd90d3348e8d3ed0f54a97d5c5d9c9dd96602bd2597ac126c0253eef"
      ],
      "is_coinbase": false,
      "sequence": 2147483649
    }
  ],
  "vout": [
    {
      "scriptpubkey": "5120be279e5432dd80578be0096de08d1e4a7364a9959604fdeeee214920fa3bf3c3",
      "scriptpubkey_asm": "OP_PUSHNUM_1 OP_PUSHBYTES_32 be279e5432dd80578be0096de08d1e4a7364a9959604fdeeee214920fa3bf3c3",
      "scriptpubkey_type": "v1_p2tr",
      "scriptpubkey_address": "bc1phcneu4pjmkq90zlqp9k7prg7ffekf2v4jcz0mmhwy9yjp73m70psrfmxhf",
      "value": 30000
    }
  ],
  "size": 590,
  "weight": 1364,
  "fee": 5530,
  "status": {
    "confirmed": true,
    "block_height": 834638,
    "block_hash": "000000000000000000025f742c626208ac87e0b7d15054abb4a19ca2d735a54e",
    "block_time": 1710405325
  },
  "hex": "0200000000010569aff9c88b91a7613c6fef3c3e0c85cd6d2ce6a5cf74503beed677e7f0f21d9b020000000001000080e1cbfe7290e876129afade5b708787b5fbbb07b22edf0e49956c18074026bb2d010000000001000080e5613cc0b38888af11469fd9ef0212daa84743ea36b69413f17e9389716ef9e6000000000001000080ba74c521285e7e24f800882f2707a3c945a147a464f8fe57fe62efa0b20e2a840000000000010000803f66c5c90109241f884dba5e4a387c62c1b219ce4b7065c1f17bd4892d218b61000000000001000080013075000000000000225120be279e5432dd80578be0096de08d1e4a7364a9959604fdeeee214920fa3bf3c301408fe3ba8074f55fb986b15c61f0d763fa5641dddd85367825a91009d7950b44e1b9c96c4e21714054b7fdd639f4a82d8b9d15cc8c2f485fe7636b986c2fe0304701400e46b57ccd3ab4e8ba3639097b5ae7add51f3e07b548c2639544baf1902e77a50b6e25a29080cad139484b3e88b5c0a5cf2c658a7f1d9eac0d714793d7fb3d2101401b859eddd2f75b055026069bdfc9cd325c50350d1546a18065d667b3420e2d01fdaa87da48d9edd6cf359a720f7cf47b2bf8ad7851bed4fc7a73a8bc0399385f0140d26d8e8ba960f58293243f49dc15fe2a5c3f15361eea86dd7aa38c3e8f8d7e9c409638170588f2500d62b10065d24167fe55cb2c558936b645dadb91d6f2e5a901402410d97880a9fb34ea5814491a91d5613cc66b4e373e721a6f468ffa6533f2ddfdf69ee4cd90d3348e8d3ed0f54a97d5c5d9c9dd96602bd2597ac126c0253eef00000000"
}