{
  "txid": "2834f7559dab12bc93227ed3c027b3386186b310a77d8f24098a272dd5c874e3",
  "version": 2,
  "locktime": 0,
  "vin": [
    {
      "txid": "05ca4caadfaca5e5a6247188b33741052d04da5b1492808597f6a761b195fe54",
      "vout": 11,
      "prevout": {
        "scriptpubkey": "a914600c6ed34585d18b4b07f27156a06da5add7f46187",
        "scriptpubkey_asm": "OP_HASH160 OP_PUSHBYTES_20 600c6ed34585d18b4b07f27156a06da5add7f461 OP_EQUAL",
        "scriptpubkey_type": "p2sh",
        "scriptpubkey_address": "3ASsgp8AgppVvxYwnnHAUkFJq6cT2WymGn",
        "value": 1988623
      },
      "scriptsig": "16001483f6817d5ac90a0816b908c3ad7f10bac57e4b22",
      "scriptsig_asm": "OP_PUSHBYTES_22 001483f6817d5ac90a0816b908c3ad7f10bac57e4b22",
      "witness": [
        "304402202287e77f0531a30c298246fb7ca49c0d16e6f6390b2afd547660cb071b2b9e55022007f6ae75f476fc961adeab1f59cf0e838cf8c5613f7cc2de3821931a0cb08a4701",
        "02eba0f76c7f10c567169a842743004f0a06b117345e04ea505adf85441d4d93d6"
      ],
      "is_coinbase": false,
      "sequence": 4294967295,
      "inner_redeemscript_asm": "OP_0 OP_PUSHBYTES_20 83f6817d5ac90a0816b908c3ad7f10bac57e4b22"
    }
  ],
  "vout": [
    {
      "scriptpubkey": "001482736220fdc058f58c0c8b55100553487214b384",
      "scriptpubkey_asm": "OP_0 OP_PUSHBYTES_20 82736220fdc058f58c0c8b55100553487214b384",
      "scriptpubkey_type": "v0_p2wpkh",
      "scriptpubkey_address": "bc1qsfekyg8acpv0trqv3d23qp2nfpepfvuynwgj0n",
      "value": 203231
    },
    {
      "scriptpubkey": "a9147b0fbeeed259df164ede2c0f5102fd207c97d10e87",
      "scriptpubkey_asm": "OP_HASH160 OP_PUSHBYTES_20 7b0fbeeed259df164ede2c0f5102fd207c97d10e OP_EQUAL",
      "scriptpubkey_type": "p2sh",
      "scriptpubkey_address": "3CuhuBJajQqEEa4bi2mdoe9a7nZrNngynv",
      "value": 1133473
    },
    {
      "scriptpubkey": "76a914c7d0b475736ada3cbe2ff13198e24c10a9155efb88ac",
      "scriptpubkey_asm": "OP_DUP OP_HASH160 OP_PUSHBYTES_20 c7d0b475736ada3cbe2ff13198e24c10a9155efb OP_EQUALVERIFY OP_CHECKSIG",
      "scriptpubkey_type": "p2pkh",
      "scriptpubkey_address": "1KDXVFGwfwzcj9Rc2MbcY7jGdiHwNVeXDz",
      "value": 67050
    },
    {
      "scriptpubkey": "00143adc059f7702bdd25092334d0e125effe7f0dcbf",
      "scriptpubkey_asm": "OP_0 OP_PUSHBYTES_20 3adc059f7702bdd25092334d0e125effe7f0dcbf",
      "scriptpubkey_type": "v0_p2wpkh",
      "scriptpubkey_address": "bc1q8twqt8mhq27ay5yjxdxsuyj7llnlph9lk9vhdt",
      "value": 290000
    },
    {
      "scriptpubkey": "a9145b0606a4f56e557a5dbd101c16e0da4f81de2d8a87",
      "scriptpubkey_asm": "OP_HASH160 OP_PUSHBYTES_20 5b0606a4f56e557a5dbd101c16e0da4f81de2d8a OP_EQUAL",
      "scriptpubkey_type": "p2sh",
      "scriptpubkey_address": "39zJdh2jFjjFgdnCwJQnxs4kRafnSxCXwi",
      "value": 167825
    },
    {
      "scriptpubkey": "0014108e1ebff4c3040a68e730bd1f356cb4df58bd34",
      "scriptpubkey_asm": "OP_0 OP_PUSHBYTES_20 108e1ebff4c3040a68e730bd1f356cb4df58bd34",
      "scriptpubkey_type": "v0_p2wpkh",
      "scriptpubkey_address": "bc1qzz8pa0l5cvzq5688xz737dtvkn0430f5gmq280",
      "value": 67105
    },
    {
      "scriptpubkey": "a914600c6ed34585d18b4b07f27156a06da5add7f46187",
      "scriptpubkey_asm": "OP_HASH160 OP_PUSHBYTES_20 600c6ed34585d18b4b07f27156a06da5add7f461 OP_EQUAL",
      "scriptpubkey_type": "p2sh",
      "scriptpubkey_address": "3ASsgp8AgppVvxYwnnHAUkFJq6cT2WymGn",
      "value": 51021
    }
  ],
  "size": 406,
  "weight": 1297,
  "fee": 8918,
  "status": {
    "confirmed": true,
    "block_height": 834638,
    "block_hash": "000000000000000000025f742c626208ac87e0b7d15054abb4a19ca2d735a54e",
    "block_time": 1710405325
  },
  "hex": "0200000000010154fe95b161a7f697858092145bda042d054137b3887124a6e5a5acdfaa4cca050b0000001716001483f6817d5ac90a0816b908c3ad7f10bac57e4b22ffffffff07df1903000000000016001482736220fdc058f58c0c8b55100553487214b384a14b11000000000017a9147b0fbeeed259df164ede2c0f5102fd207c97d10e87ea050100000000001976a914c7d0b475736ada3cbe2ff13198e24c10a9155efb88acd06c0400000000001600143adc059f7702bdd25092334d0e125effe7f0dcbf918f02000000000017a9145b0606a4f56e557a5dbd101c16e0da4f81de2d8a872106010000000000160014108e1ebff4c3040a68e730bd1f356cb4df58bd344dc700000000000017a914600c6ed34585d18b4b07f27156a06da5add7f461870247304402202287e77f0531a30c298246fb7ca49c0d16e6f6390b2afd547660cb071b2b9e55022007f6ae75f476fc961adeab1f59cf0e838cf8c5613f7cc2de3821931a0cb08a47012102eba0f76c7f10c567169a842743004f0a06b117345e04ea505adf85441d4d93d600000000"
}