{
  "txid": "2842576e749d4f68c51eb75c913a88d6ff343dd564cb2650d3e1917b8867a350",
  "version": 2,
  "locktime": 0,
  "vin": [
    {
      "txid": "b283fba042cb670634df01ef9c3ecfc6e91e73922a4078f2789335ed07ee4202",
      "vout": 0,
      "prevout": {
        "scriptpubkey": "0014781f3e041bf60458d49a89104ad5b87601467fbb",
        "scriptpubkey_asm": "OP_0 OP_PUSHBYTES_20 781f3e041bf60458d49a89104ad5b87601467fbb",
        "scriptpubkey_type": "v0_p2wpkh",
        "scriptpubkey_address": "bc1q0q0nupqm7cz934y63ygy44dcwcq5vlampq68yf",
        "value": 514561
      },
      "scriptsig": "",
      "scriptsig_asm": "",
      "witness": [
        "304502210089882fa0d47f436bb276673453403c949c919851b40adeac2e1c6c4f1972ad69022030cfe2d41b8d61288f3bff1fc3d5ffa9ac889365fea01c5be873cec0b9c306e701",
        "02e2d09a0186e0184c55e54c7d833bf59c99ace595a55d22b7e50ce7fb2e53bb4c"
      ],
      "is_coinbase": false,
      "sequence": 2147483648
    }
  ],
  "vout": [
    {
      "scriptpubkey": "0014a0d52488c39770395c6513599aaef22bf28edb0e",
      "scriptpubkey_asm": "OP_0 OP_PUSHBYTES_20 a0d52488c39770395c6513599aaef22bf28edb0e",
      "scriptpubkey_type": "v0_p2wpkh",
      "scriptpubkey_address": "bc1q5r2jfzxrjacrjhr9zdve4thj90egakcwal58e6",
      "value": 335797
    },
    {
      "scriptpubkey": "0014ff45c921f3b6b4904086b21108d4b21de6f87f96",
      "scriptpubkey_asm": "OP_0 OP_PUSHBYTES_20 ff45c921f3b6b4904086b21108d4b21de6f87f96",
      "scriptpubkey_type": "v0_p2wpkh",
      "scriptpubkey_address": "bc1qlazujg0nk66fqsyxkggs349jrhn0sluk4lm46y",
      "value": 176136
    }
  ],
  "size": 223,
  "weight": 562,
  "fee": 2628,
  "status": {
    "confirmed": true,
    "block_height": 834552,
    "block_hash": "00000000000000000001dd0468a70c94f619251d286585cff57aeb4bd9ede330",
    "block_time": 1710355598
  },
  "hex": "020000000001010242ee07ed359378f278402a92731ee9c6cf3e9cef01df340667cb42a0fb83b200000000000000008002b51f050000000000160014a0d52488c39770395c6513599aaef22bf28edb0e08b0020000000000160014ff45c921f3b6b4904086b21108d4b21de6f87f960248304502210089882fa0d47f436bb276673453403c949c919851b40adeac2e1c6c4f1972ad69022030cfe2d41b8d61288f3bff1fc3d5ffa9ac889365fea01c5be873cec0b9c306e7012102e2d09a0186e0184c55e54c7d833bf59c99ace595a55d22b7e50ce7fb2e53bb4c00000000"
}