{
  "txid": "284a31ef4aaecab69aeed51cce585eb4217655f4c5340723aa1bd1a0506a93e2",
  "version": 2,
  "locktime": 0,
  "vin": [
    {
      "txid": "3566d758a339f608daa777920a6780b8cec95ce627cde573596fe2d0cb998667",
      "vout": 0,
      "prevout": {
        "scriptpubkey": "51200e5d4cb4422bcca8e91fbb79ede48f4b5f433993ee55b96851b69a41ea69207d",
        "scriptpubkey_asm": "OP_PUSHNUM_1 OP_PUSHBYTES_32 0e5d4cb4422bcca8e91fbb79ede48f4b5f433993ee55b96851b69a41ea69207d",
        "scriptpubkey_type": "v1_p2tr",
        "scriptpubkey_address": "bc1ppew5edzz90x236glhdu7mey0fd05xwvnae2mj6z3k6dyr6nfyp7s23ewsr",
        "value": 24768
      },
      "scriptsig": "",
      "scriptsig_asm": "",
      "witness": [
        "410ff6ca85f70fe74a10ea74401290260514c88b00e62ea701c26081dd8a312ef34026f1eff135403814c98df092195134370addd3c7e55865e89a524ac0a1fc",
        "20f2d00e1cce0b839d2e197679cac7a15152ec244338032c7767f72c1332d49a65ac0063036f7264010109696d6167652f706e67004d080289504e470d0a1a0a0000000d4948445200000080000000800806000000c33e61cb000000097048597300000b1300000b1301009a9c1800000d7d49444154789ced9d5f8c165719c6df85a594bfe9f24f40bb3501844a43096d43c5c550d3a46aa209f102d0c4368d8da95cd81093860b6bed4dd33b6ed0d036464d947a81a492344dd3582adb6a5240b60905845e9422e02ecbea9685b6087831eff3adf3ecf772ce9c99f9be5dcff9ddccce9f6f66bed9ef79ce3be7bce79c8ea59d7243c6215b74b97c6eb63c31982d77d77cdd9377cfcaad2febfba892f35adfe7999aaee7cba4965e2d31eee828eb00752906b4ca095e9d992d972cc9be4fddcac7fdf3f3b3a8cb199203444e67e8077d7fb9e3857ddfde242222dfdcf3fbdc7628ffaf537579e6a3dcf6af5d6ac9ed991c5ffa0d1111d9b7345be7fb2f0a3f87e4009153d8012ce5ff72f6bd2222b27d7d7efbb307de287e5725eec32a2b2de540f94f0fe6b73fad65b6b4d801a0f8bae0e7901c2072c638805556b60b44cb5b8cf7e650b6cec896f77fd27c3fb6e3b89d23c5ce8fe8ff3bfa3c7fa7cf93df5ee058ae98cafa7fe073a16f09c90122678c0314553ecaac75bafe767fbf88545ff67f7efd03d91fc3079b5ebf415fb1fb470cf02a6dbffad026dd51ce090fedf7fb7c43c105ef1f843a417280c829fc16e08a52d72d58107c33555cdf05caf4f9b7ea7230fbe37d3e70cfcbd94d08027e7d1bd8aa9b8bc60275e31b43582407889ce09a40a65d6f0d5674cdb0f29925333fceadbf7f297f203ee7720244ff785b794a155a772ba66fd99f6a0213394ab706b69aa2ad8350bec545cf327d8e711e768276e53184921c20722a8b01c60bae9a4c28febda227d6cf7d31ecb6c62dc9012267c2c500c0b7acc571acf8e7b4bd1fd17eaf7c2ccd78588ffbf5a5fc79e0048db60acffb196f2407889cd231c0135df3454464c7d040d3fdbb56afc9adffe0c8e1a0ebf079f67b9ec752fe0f55d10b55f9df95bc133c3ce6b89b9fb72af03df939b99e7328c90122a7f61880eba8ffd4b14c44fc9d009fc7e7c0576f9c141191df6a0edfb4eb9942cee97e28e56e3a1feacba068bcc66fa4b21b65f96b83f9e3983e5d968d01a0f03befb83db73dd4317d490e10398d1800efcfa0aaba7d566ee82f1a8a670ef5778888c8cc29174444e4d255dd31b9f9797eae65fb935ab6c311d02a784263006404ed95fc71dce65655f40fc7daa50e70ec830f73fbb9bd7fe19469222272feea958257ca931c20721a3140d5b980f8855a14fde5722cb1e57026e1dd6b66e6b66fd3edfb26e7431bc402f375f963aa07d8abcaef5125f70e363fee793daeeab2df37bae7e79a1c20518ae0b7002b07cda57c10facb85627a2f64653e3bc01f4e674a7dd250143b81d03a940ce004385b5f7eb73ca7f77365527644dd358078be9b6766df7bda5d7789883b07734d0802bbe654e238fcff9203444e704da02b03e5672befccadbf70e86f222272e6562325c71394954fcccb94b7f374b67d91ee871251365b4a640760e5f371ec27387fa8f243b378a17c5034fb9a63a9e4009153793e002b1fa0acdea965f48ea172d12b47cd1c8d5b40d1dcaac735807513da93676b37b75afabd453c4afd29407280c8a9dc01ac1abb76b185d6a113971308ede7e8df97d0563c2b46e07e0070841d4361f7971c20722a6f0dc42f9ecb2a94fda0ea766dc08a078b68fd5d5ac7dd70ce1f3b049868993fdcd6b3e2d42b22921c207a2a8f014695cd6fdabcbf39dc2efed3a3c744c45d7308e5cfa11e4050e812cdf81998ab75fe92df8fbb82b2d11a885c40ee17c0b1c244037d2c930344ceb8c90a86f2c14b97f283f3580e60291f40a98fc81c11113925974564d409d801369253ecd5fdf7895f0de68aaedb4444e4f8d0bf9aee7fd1c83ef6e57b0b178b88c86fce9f0dfa3cc702c90122a7ed0ec0ad5b801d00b01358bd7e07546856df3f94f550b8d5e367862a7f7a57978888ac1cba9cdbbf5ea636fddc01c90f3e74b46bba88885c1eca5ed8439d000e00429d002407889cb6f70d64e5fb82b2dfeaef0fe5f750998edcbfde415da7cfe1bdff3e87f25dc019e004f8fc513ddff7039de0b5c17c959f951be89be1951c20723a51a78c913e31c64fbb46fc40a6cfe774ddca1fb0faeb23aad7348186f22d10f53f6f28d1a57c284d0802dc8a05acf3bde3757438beffbfe40091d3f618c0056204d4208e69dd23e142f96b75394c3576c3a47438c4463aef19a3a60fd1fcbb431772db77cbcd9d6255d73c11291e4b002bd772f4f984e5572407889c8603d435bedf9775d9ad4b28f42d5da2d510ad853df3e6e53eefdbde7d44a37e289f5bfb9ab74c8c75088b86c255c18be4aa719c813ac64a99ee774107a16f4f4c7280c8a92c06f09d3ba8bbe9d666b96ecde13affc38682a178e4019ca3753884d57689978c7fccc8a2fbaf6894bf996a165fbcf66f1111b928d7454464d7e49b2b1ce7931163987207503ede96c0c9357e59c69c69941c20723a79ecddd0f77fd4238c92e5abbf455bbb69f988fe127f5570061070bb4a75509509655b65bed07ecb21868dcfbda4d75b30ed16111139db1062a6a586c22bc6527e51f8792607889cceaa6afc5c3d547c9d808f0356ab1fd6e7aa03e02dbb9e8cc3b1f4680fa5fe2b9fb6e88ad5921c20725a5e13e87202ebb80f55e156eb1f785d970fea92b381cf79ae3b86186e99e239538ae1ded145490e10396d6b0b08758213431db9f539d39a2734add22547f7ec0816d65b40bb403dc9d6eee68a4fb3862582301da0ec7c74bef83ac1fd5a161ed23af55bf4a7bbe0161d276024df5a385b73fe66ebba95c7efeb08ed82fb59d83dae8afd9f9031941c20724c0768d41006ce6357149713a0ededd36bcd3f0fe5bb14ed7a2b00d65b00b74d08020570f6af2f457379ad1e5745fb58a67e01891cc1fd02eebd968fc60f4e6e7e9ad0fef19c470056e8f950f2fd91cebb968ee7bc00d0432381202f60b41e20bbc2e219b373c77d965af142ebfecf8e64ef19657b0a95253940e404d70370e6ce4143e1a1e3005831c1713ddf69698ea578801214e3ffad328f8c83e4009113ec00758df0c1584e6061d59ce36e79c40fce1fc071aeb600c031818baaf2051eebbe23b7fec2e90f82ce931c2072c67dbf008bd52a516403639d7b03b34fb1d2ad758bba327eeac69a5d3c3940e44c1807e058604095ee8a095c704c30da3b787c135ae633c90122a7b40370d9b2febdffe4d6adb17d5c3584d6cc1856ce20a6f5b2c609b4e011405d3140ab29db2a6b95fd203940e4341ca055edffa0ee7a04ce0072d510c2091ea4ed78cf6f57f48fb991ac59d07ce17e1b183d3c3940e48c89018a3a0197f94ce8fc76dc13e6bca702a0f8d9d4dab74aebfe5d4e80ace20d92251ed4f536704a8cc406c26a65f505791deb74fdedfefedcf6e40091d37080a265bf6b763028d81aefcf0567c1baeecf15fdc3117c9d607f230729eb6bb445df32266a4d20e031a09203444e704690effc804cd9992e2d3827906300103abeff0699a2d7c9faffffe55a7eac9f2f798e0bf0e7916ca893e353f2e1179e0b32ad42cbfeed73b29a8c672ffabd652507889c09d3166001c534228d9251b345a7c6047bae65b1c8ce359c4d080231908d10f2589f91e3379239062b1fc0510f4a984342f907307e0049db1a39343940e4947600d7c81565670ab5e03984c16774fb3f07b33210b1c030cd0b5014d40f3ce40899beaef3055873172fd447cecf0d399665e7532c4a7280c8097600df316b783cbba2bf702b2ae6398411fd1f61e5d17bffeb528e6f2d463674f3b2deea6904aa1aeb07e0f920eadfaecfa397de02ac91609203444e703d00da0cd03bd5f58b1e2de3ea6905dca64b4b81b86aa803a095103d8a6ebb9e298d7382adb21f70fb3ccfa738322b5f9f5055e68f457280c829ec00ae0c13cb11b82791af13b8fa2042f95cf3c7e301947500d434aeed0a533e638dac5a36dfbfe77af6bc7a27f9fd5b9303444ee50ec0c0117c670ce5e3d801c03238c1a46cfff2ae6c9d7bf996553ee0d6c6d57abf182bec272dea29e5223940a210631cc035db94af03d49d5bc851795dcae7eb714fa2aace5f14dfd1d95d2407889cd2f500a055d9c4008ab426123934c1ae5314df115a5c2407889cb6cf1d5c9431b386d13acae8a2193f0c97f90cf726b646277b5c9df22972c8b2f75715c90122a7ed1941d6f87e569d3e1fc7337ed4055f77c0d80e1ea718898fc3f76eb7132407889cc23180efacd42eb6b90f1191d1767c8ce66565fb825e6a034019bddcf1b9139431f423fd9e6fe8f7b4aecbd7c37d4e5dff8088887ce2984905ce559713b8fe5fc90122a7e3d8a64d37445a374d9b015bb8ef98bee04d5d7ec1f89c2bffffefde7796a74b971ce55bd7e39a48dfef673940d13e9aa1ce9c1c20721a0e00ea76025f0740d9cf3570beca8422391a673617acc1c4f5ad98a4a813d41d03b8480e10399de82f5e37562be22f0c055a63f8726b5fa3468ea2f1673c5b2d1f959bf75b18989bcffe65859f0b9c8984bf872f3cde3fffff5cf33732c90122674c4de0767d7f2dfa4bb270e50f148d9aadd9bf5016dfb3411572ea1511f99f994f2cfa5ebee9eef9839943c009782e22306c3801b014ef9b4fc0caaf8ae40091d3891123802b26f07ddf84931cd7f3af5045325c9603ab95cd5513082ce5e3fbbd53d4e11c0af7a56806914bf918edabb15eb0fe203940e474dcb867d60d91b18a295b1f0007608761701d1e9faf2ca8cbb71ccd15e3b43be389ef83ff3f96a316bdcfe40091d37000805f1a9413fa36000700ec04ad6a7b288aa53850f57d5795850d9203240a515b4610140f2729eb28ad020adab7345baffbbe5d8e82fbb19ca06c6c921c20726a8b01eac22a335b3ddaf9ff0bc90122e7bf0dea0d29eee3f65d0000000049454e44ae426082680063036f726401011e6170706c69636174696f6e2f6a736f6e3b636861727365743d7574662d38004d61017b2270223a22766f7264222c2276223a312c227479223a22696e7363222c22636f6c223a2232386636653261633234346563653261393834356631626434626563356665626639616530393266393632653865356434626535333238343266623466616634222c22696964223a224f7264692041726d79204d656e222c227075626c223a2231455337623370636a527a4667796969714c7278484b546e43686535364c4a485937222c226e6f6e6365223a383132392c226d696e746572223a226263317068766e77346d3074653875787677797a7778706e32306b6334766838356c74716b356371346c7568797061616464616463797271377472337034222c22736967223a22472b4e456951744e7a38686e63622b796f52485534485336327256646a695567434a5246592b667768447670584b4e517a7537706e51655a566d55415735373241425135792f4b57724534674d537172796e30715339413d227d68",
        "c1f2d00e1cce0b839d2e197679cac7a15152ec244338032c7767f72c1332d49a65675a92934efa5e4869b2432a3e00abfc6819367af43949c2edc693b32d23ac05"
      ],
      "is_coinbase": false,
      "sequence": 4294967293
    }
  ],
  "vout": [
    {
      "scriptpubkey": "5120bb26eaedebc9f86638827183353ed8ab2e7a7d60b5300aff97207bd6b7adc106",
      "scriptpubkey_asm": "OP_PUSHNUM_1 OP_PUSHBYTES_32 bb26eaedebc9f86638827183353ed8ab2e7a7d60b5300aff97207bd6b7adc106",
      "scriptpubkey_type": "v1_p2tr",
      "scriptpubkey_address": "bc1phvnw4m0te8uxvwyzwxpn20kc4vh85ltqk5cq4luhypaaddadcyrq7tr3p4",
      "value": 1000
    },
    {
      "scriptpubkey": "51205cb904dc38be4352e47edf3b611d3868854fcab832b9d82f9075282b8cac5ab7",
      "scriptpubkey_asm": "OP_PUSHNUM_1 OP_PUSHBYTES_32 5cb904dc38be4352e47edf3b611d3868854fcab832b9d82f9075282b8cac5ab7",
      "scriptpubkey_type": "v1_p2tr",
      "scriptpubkey_address": "bc1ptjusfhpchep49er7muakz8fcdzz5lj4cx2uastusw55zhr9vt2msk5y7x5",
      "value": 7201
    },
    {
      "scriptpubkey": "51200705a5767db892e98125775049b1a13dd9ecdc8aea0df413cabbee683e871012",
      "scriptpubkey_asm": "OP_PUSHNUM_1 OP_PUSHBYTES_32 0705a5767db892e98125775049b1a13dd9ecdc8aea0df413cabbee683e871012",
      "scriptpubkey_type": "v1_p2tr",
      "scriptpubkey_address": "bc1pquz62anahzfwnqf9wagynvdp8hv7ehy2agxlgy72h0hxs058zqfqk8ksyq",
      "value": 3202
    }
  ],
  "size": 4320,
  "weight": 4860,
  "fee": 13365,
  "status": {
    "confirmed": true,
    "block_height": 834464,
    "block_hash": "0000000000000000000177a0869a911a2b65c9bdcd5a8bcb02b68f305bee848e",
    "block_time": 1710308296
  },
  "hex": "02000000000101678699cbd0e26f5973e5cd27e65cc9ceb880670a9277a7da08f639a358d766350000000000fdffffff03e803000000000000225120bb26eaedebc9f86638827183353ed8ab2e7a7d60b5300aff97207bd6b7adc106211c0000000000002251205cb904dc38be4352e47edf3b611d3868854fcab832b9d82f9075282b8cac5ab7820c0000000000002251200705a5767db892e98125775049b1a13dd9ecdc8aea0df413cabbee683e8710120340410ff6ca85f70fe74a10ea74401290260514c88b00e62ea701c26081dd8a312ef34026f1eff135403814c98df092195134370addd3c7e55865e89a524ac0a1fcfda30f20f2d00e1cce0b839d2e197679cac7a15152ec244338032c7767f72c1332d49a65ac0063036f7264010109696d6167652f706e67004d080289504e470d0a1a0a0000000d4948445200000080000000800806000000c33e61cb000000097048597300000b1300000b1301009a9c1800000d7d49444154789ced9d5f8c165719c6df85a594bfe9f24f40bb3501844a43096d43c5c550d3a46aa209f102d0c4368d8da95cd81093860b6bed4dd33b6ed0d036464d947a81a492344dd3582adb6a5240b60905845e9422e02ecbea9685b6087831eff3adf3ecf772ce9c99f9be5dcff9ddccce9f6f66bed9ef79ce3be7bce79c8ea59d7243c6215b74b97c6eb63c31982d77d77cdd9377cfcaad2febfba892f35adfe7999aaee7cba4965e2d31eee828eb00752906b4ca095e9d992d972cc9be4fddcac7fdf3f3b3a8cb199203444e67e8077d7fb9e3857ddfde242222dfdcf3fbdc7628ffaf537579e6a3dcf6af5d6ac9ed991c5ffa0d1111d9b7345be7fb2f0a3f87e4009153d8012ce5ff72f6bd2222b27d7d7efbb307de287e5725eec32a2b2de540f94f0fe6b73fad65b6b4d801a0f8bae0e7901c2072c638805556b60b44cb5b8cf7e650b6cec896f77fd27c3fb6e3b89d23c5ce8fe8ff3bfa3c7fa7cf93df5ee058ae98cafa7fe073a16f09c90122678c0314553ecaac75bafe767fbf88545ff67f7efd03d91fc3079b5ebf415fb1fb470cf02a6dbffad026dd51ce090fedf7fb7c43c105ef1f843a417280c829fc16e08a52d72d58107c33555cdf05caf4f9b7ea7230fbe37d3e70cfcbd94d08027e7d1bd8aa9b8bc60275e31b43582407889ce09a40a65d6f0d5674cdb0f29925333fceadbf7f297f203ee7720244ff785b794a155a772ba66fd99f6a0213394ab706b69aa2ad8350bec545cf327d8e711e768276e53184921c20722a8b01c60bae9a4c28febda227d6cf7d31ecb6c62dc9012267c2c500c0b7acc571acf8e7b4bd1fd17eaf7c2ccd78588ffbf5a5fc79e0048db60acffb196f2407889cd231c0135df3454464c7d040d3fdbb56afc9adffe0c8e1a0ebf079f67b9ec752fe0f55d10b55f9df95bc133c3ce6b89b9fb72af03df939b99e7328c90122a7f61880eba8ffd4b14c44fc9d009fc7e7c0576f9c141191df6a0edfb4eb9942cee97e28e56e3a1feacba068bcc66fa4b21b65f96b83f9e3983e5d968d01a0f03befb83db73dd4317d490e10398d1800efcfa0aaba7d566ee82f1a8a670ef5778888c8cc29174444e4d255dd31b9f9797eae65fb935ab6c311d02a784263006404ed95fc71dce65655f40fc7daa50e70ec830f73fbb9bd7fe19469222272feea958257ca931c20721a3140d5b980f8855a14fde5722cb1e57026e1dd6b66e6b66fd3edfb26e7431bc402f375f963aa07d8abcaef5125f70e363fee793daeeab2df37bae7e79a1c20518ae0b7002b07cda57c10facb85627a2f64653e3bc01f4e674a7dd250143b81d03a940ce004385b5f7eb73ca7f77365527644dd358078be9b6766df7bda5d7789883b07734d0802bbe654e238fcff9203444e704da02b03e5672befccadbf70e86f222272e6562325c71394954fcccb94b7f374b67d91ee871251365b4a640760e5f371ec27387fa8f243b378a17c5034fb9a63a9e4009153793e002b1fa0acdea965f48ea172d12b47cd1c8d5b40d1dcaac735807513da93676b37b75afabd453c4afd29407280c8a9dc01ac1abb76b185d6a113971308ede7e8df97d0563c2b46e07e0070841d4361f7971c20722a6f0dc42f9ecb2a94fda0ea766dc08a078b68fd5d5ac7dd70ce1f3b049868993fdcd6b3e2d42b22921c207a2a8f014695cd6fdabcbf39dc2efed3a3c744c45d7308e5cfa11e4050e812cdf81998ab75fe92df8fbb82b2d11a885c40ee17c0b1c244037d2c930344ceb8c90a86f2c14b97f283f3580e60291f40a98fc81c11113925974564d409d801369253ecd5fdf7895f0de68aaedb4444e4f8d0bf9aee7fd1c83ef6e57b0b178b88c86fce9f0dfa3cc702c90122a7ed0ec0ad5b801d00b01358bd7e07546856df3f94f550b8d5e367862a7f7a57978888ac1cba9cdbbf5ea636fddc01c90f3e74b46bba88885c1eca5ed8439d000e00429d002407889cb6f70d64e5fb82b2dfeaef0fe5f750998edcbfde415da7cfe1bdff3e87f25dc019e004f8fc513ddff7039de0b5c17c959f951be89be1951c20723a51a78c913e31c64fbb46fc40a6cfe774ddca1fb0faeb23aad7348186f22d10f53f6f28d1a57c284d0802dc8a05acf3bde3757438beffbfe40091d3f618c0056204d4208e69dd23e142f96b75394c3576c3a47438c4463aef19a3a60fd1fcbb431772db77cbcd9d6255d73c11291e4b002bd772f4f984e5572407889c8603d435bedf9775d9ad4b28f42d5da2d510ad853df3e6e53eefdbde7d44a37e289f5bfb9ab74c8c75088b86c255c18be4aa719c813ac64a99ee774107a16f4f4c7280c8a92c06f09d3ba8bbe9d666b96ecde13affc38682a178e4019ca3753884d57689978c7fccc8a2fbaf6894bf996a165fbcf66f1111b928d7454464d7e49b2b1ce7931163987207503ede96c0c9357e59c69c69941c20723a79ecddd0f77fd4238c92e5abbf455bbb69f988fe127f5570061070bb4a75509509655b65bed07ecb21868dcfbda4d75b30ed16111139db1062a6a586c22bc6527e51f8792607889cceaa6afc5c3d547c9d808f0356ab1fd6e7aa03e02dbb9e8cc3b1f4680fa5fe2b9fb6e88ad5921c20725a5e13e87202ebb80f55e156eb1f785d970fea92b381cf79ae3b86186e99e239538ae1ded145490e10396d6b0b08758213431db9f539d39a2734add22547f7ec0816d65b40bb403dc9d6eee68a4fb3862582301da0ec7c74bef83ac1fd5a161ed23af55bf4a7bbe0161d276024df5a385b73fe66ebba95c7efeb08ed82fb59d83dae8afd9f9031941c20724c0768d41006ce6357149713a0ededd36bcd3f0fe5bb14ed7a2b00d65b00b74d08020570f6af2f457379ad1e5745fb58a67e01891cc1fd02eebd968fc60f4e6e7e9ad0fef19c470056e8f950f2fd91cebb968ee7bc00d0432381202f60b41e20bbc2e219b373c77d965af142ebfecf8e64ef19657b0a95253940e404d70370e6ce4143e1a1e3005831c1713ddf69698ea578801214e3ffad328f8c83e4009113ec00758df0c1584e6061d59ce36e79c40fce1fc071aeb600c031818baaf2051eebbe23b7fec2e90f82ce931c2072c67dbf008bd52a516403639d7b03b34fb1d2ad758bba327eeac69a5d3c3940e44c1807e058604095ee8a095c704c30da3b787c135ae633c90122a7b40370d9b2febdffe4d6adb17d5c3584d6cc1856ce20a6f5b2c609b4e011405d3140ab29db2a6b95fd203940e4341ca055edffa0ee7a04ce0072d510c2091ea4ed78cf6f57f48fb991ac59d07ce17e1b183d3c3940e48c89018a3a0197f94ce8fc76dc13e6bca702a0f8d9d4dab74aebfe5d4e80ace20d92251ed4f536704a8cc406c26a65f505791deb74fdedfefedcf6e40091d37080a265bf6b763028d81aefcf0567c1baeecf15fdc3117c9d607f230729eb6bb445df32266a4d20e031a09203444e704690effc804cd9992e2d3827906300103abeff0699a2d7c9faffffe55a7eac9f2f798e0bf0e7916ca893e353f2e1179e0b32ad42cbfeed73b29a8c672ffabd652507889c09d3166001c534228d9251b345a7c6047bae65b1c8ce359c4d080231908d10f2589f91e3379239062b1fc0510f4a984342f907307e0049db1a39343940e4947600d7c81565670ab5e03984c16774fb3f07b33210b1c030cd0b5014d40f3ce40899beaef3055873172fd447cecf0d399665e7532c4a7280c8097600df316b783cbba2bf702b2ae6398411fd1f61e5d17bffeb528e6f2d463674f3b2deea6904aa1aeb07e0f920eadfaecfa397de02ac91609203444e703d00da0cd03bd5f58b1e2de3ea6905dca64b4b81b86aa803a095103d8a6ebb9e298d7382adb21f70fb3ccfa738322b5f9f5055e68f457280c829ec00ae0c13cb11b82791af13b8fa2042f95cf3c7e301947500d434aeed0a533e638dac5a36dfbfe77af6bc7a27f9fd5b9303444ee50ec0c0117c670ce5e3d801c03238c1a46cfff2ae6c9d7bf996553ee0d6c6d57abf182bec272dea29e5223940a210631cc035db94af03d49d5bc851795dcae7eb714fa2aace5f14dfd1d95d2407889cd2f500a055d9c4008ab426123934c1ae5314df115a5c2407889cb6cf1d5c9431b386d13acae8a2193f0c97f90cf726b646277b5c9df22972c8b2f75715c90122a7ed1941d6f87e569d3e1fc7337ed4055f77c0d80e1ea718898fc3f76eb7132407889cc23180efacd42eb6b90f1191d1767c8ce66565fb825e6a034019bddcf1b9139431f423fd9e6fe8f7b4aecbd7c37d4e5dff8088887ce2984905ce559713b8fe5fc90122a7e3d8a64d37445a374d9b015bb8ef98bee04d5d7ec1f89c2bffffefde7796a74b971ce55bd7e39a48dfef673940d13e9aa1ce9c1c20721a0e00ea76025f0740d9cf3570beca8422391a673617acc1c4f5ad98a4a813d41d03b8480e10399de82f5e37562be22f0c055a63f8726b5fa3468ea2f1673c5b2d1f959bf75b18989bcffe65859f0b9c8984bf872f3cde3fffff5cf33732c90122674c4de0767d7f2dfa4bb270e50f148d9aadd9bf5016dfb3411572ea1511f99f994f2cfa5ebee9eef9839943c009782e22306c3801b014ef9b4fc0caaf8ae40091d3891123802b26f07ddf84931cd7f3af5045325c9603ab95cd5513082ce5e3fbbd53d4e11c0af7a56806914bf918edabb15eb0fe203940e474dcb867d60d91b18a295b1f0007608761701d1e9faf2ca8cbb71ccd15e3b43be389ef83ff3f96a316bdcfe40091d37000805f1a9413fa36000700ec04ad6a7b288aa53850f57d5795850d9203240a515b4610140f2729eb28ad020adab7345baffbbe5d8e82fbb19ca06c6c921c20726a8b01eac22a335b3ddaf9ff0bc90122e7bf0dea0d29eee3f65d0000000049454e44ae426082680063036f726401011e6170706c69636174696f6e2f6a736f6e3b636861727365743d7574662d38004d61017b2270223a22766f7264222c2276223a312c227479223a22696e7363222c22636f6c223a2232386636653261633234346563653261393834356631626434626563356665626639616530393266393632653865356434626535333238343266623466616634222c22696964223a224f7264692041726d79204d656e222c227075626c223a2231455337623370636a527a4667796969714c7278484b546e43686535364c4a485937222c226e6f6e6365223a383132392c226d696e746572223a226263317068766e77346d3074653875787677797a7778706e32306b6334766838356c74716b356371346c7568797061616464616463797271377472337034222c22736967223a22472b4e456951744e7a38686e63622b796f52485534485336327256646a695567434a5246592b667768447670584b4e517a7537706e51655a566d55415735373241425135792f4b57724534674d537172796e30715339413d227d6841c1f2d00e1cce0b839d2e197679cac7a15152ec244338032c7767f72c1332d49a65675a92934efa5e4869b2432a3e00abfc6819367af43949c2edc693b32d23ac0500000000"
}