{
  "txid": "284d0d226ee59d91b836ba783dbd481b0922bff84177b80f67486e96a3a84c80",
  "version": 1,
  "locktime": 0,
  "vin": [
    {
      "txid": "41e673584c2b7c0d09c9eef04702f191dcb742a2f4a9d344f9057747f3677ad3",
      "vout": 19,
      "prevout": {
        "scriptpubkey": "001494afc8e1e12efbed25fe9ff2194a5ef5d7d65c1c",
        "scriptpubkey_asm": "OP_0 OP_PUSHBYTES_20 94afc8e1e12efbed25fe9ff2194a5ef5d7d65c1c",
        "scriptpubkey_type": "v0_p2wpkh",
        "scriptpubkey_address": "bc1qjjhu3c0p9ma76f07nlepjjj77htavhque94ped",
        "value": 68000
      },
      "scriptsig": "",
      "scriptsig_asm": "",
      "witness": [
        "3044022014dad2ddb06e0eff85681e9d13afce2865770e2faad1f42b7f5d3fd8b30157d702205c00659414c207ae5a2abae48270b43ebaae94844f2473a50693103d572636db01",
        "03e77ff2a564ef64bb76dc14614165a23474510b636c03acad32d7d29d9b1f30fc"
      ],
      "is_coinbase": false,
      "sequence": 4294967295
    },
    {
      "txid": "c1f1589af2718992c18dcd474fd1130fb2a3e0e9ed4886f469599a8c5670c0bd",
      "vout": 1,
      "prevout": {
        "scriptpubkey": "001494afc8e1e12efbed25fe9ff2194a5ef5d7d65c1c",
        "scriptpubkey_asm": "OP_0 OP_PUSHBYTES_20 94afc8e1e12efbed25fe9ff2194a5ef5d7d65c1c",
        "scriptpubkey_type": "v0_p2wpkh",
        "scriptpubkey_address": "bc1qjjhu3c0p9ma76f07nlepjjj77htavhque94ped",
        "value": 76400
      },
      "scriptsig": "",
      "scriptsig_asm": "",
      "witness": [
        "30440220539ace91d8efa461393c207135542c710109a114b0d7c1e01edb3d47b29c9f8002207e93483c56822295f6f5871e1c35ca8bd0d48cc08de95b38825c191c0dc80d2501",
        "03e77ff2a564ef64bb76dc14614165a23474510b636c03acad32d7d29d9b1f30fc"
      ],
      "is_coinbase": false,
      "sequence": 4294967295
    },
    {
      "txid": "51334522ac070dd69f699069c0ebe65e33f7886dfc714e9b01b3beda04f7dca5",
      "vout": 1,
      "prevout": {
        "scriptpubkey": "001494afc8e1e12efbed25fe9ff2194a5ef5d7d65c1c",
        "scriptpubkey_asm": "OP_0 OP_PUSHBYTES_20 94afc8e1e12efbed25fe9ff2194a5ef5d7d65c1c",
        "scriptpubkey_type": "v0_p2wpkh",
        "scriptpubkey_address": "bc1qjjhu3c0p9ma76f07nlepjjj77htavhque94ped",
        "value": 9761
      },
      "scriptsig": "",
      "scriptsig_asm": "",
      "witness": [
        "3045022100c3aa5ea91a8e80d245f160452436ffdab0e7493f0c96d4ee5b9959d420aeaa8f0220552b08ef62c7135e2dfca81c13c223d17b23ce42a858d5208483745e6e2aa33d01",
        "03e77ff2a564ef64bb76dc14614165a23474510b636c03acad32d7d29d9b1f30fc"
      ],
      "is_coinbase": false,
      "sequence": 4294967295
    },
    {
      "txid": "a2e98b032371305223f1424295817082d74bd19550fc225c90bc565aac28410e",
      "vout": 1,
      "prevout": {
        "scriptpubkey": "001494afc8e1e12efbed25fe9ff2194a5ef5d7d65c1c",
        "scriptpubkey_asm": "OP_0 OP_PUSHBYTES_20 94afc8e1e12efbed25fe9ff2194a5ef5d7d65c1c",
        "scriptpubkey_type": "v0_p2wpkh",
        "scriptpubkey_address": "bc1qjjhu3c0p9ma76f07nlepjjj77htavhque94ped",
        "value": 9423
      },
      "scriptsig": "",
      "scriptsig_asm": "",
      "witness": [
        "3045022100ae490464d36d50deacd176a81de5dadbb67f8fc1580c56ad0b6e406bd08b92ea02203aa00eaaaff00da3c34bdc459eab443fa5c6385ab356d769c354966706fc980801",
        "03e77ff2a564ef64bb76dc14614165a23474510b636c03acad32d7d29d9b1f30fc"
      ],
      "is_coinbase": false,
      "sequence": 4294967295
    }
  ],
  "vout": [
    {
      "scriptpubkey": "0014fb8c7919bf91b7694791db553995300e0a2c15f3",
      "scriptpubkey_asm": "OP_0 OP_PUSHBYTES_20 fb8c7919bf91b7694791db553995300e0a2c15f3",
      "scriptpubkey_type": "v0_p2wpkh",
      "scriptpubkey_address": "bc1qlwx8jxdljxmkj3u3md2nn9fspc9zc90nghm9pc",
      "value": 155106
    }
  ],
  "size": 637,
  "weight": 1252,
  "fee": 8478,
  "status": {
    "confirmed": true,
    "block_height": 834638,
    "block_hash": "000000000000000000025f742c626208ac87e0b7d15054abb4a19ca2d735a54e",
    "block_time": 1710405325
  },
  "hex": "01000000000104d37a67f3477705f944d3a9f4a242b7dc91f10247f0eec9090d7c2b4c5873e6411300000000ffffffffbdc070568c9a5969f48648ede9e0a3b20f13d14f47cd8dc1928971f29a58f1c10100000000ffffffffa5dcf704dabeb3019b4e71fc6d88f7335ee6ebc06990699fd60d07ac224533510100000000ffffffff0e4128ac5a56bc905c22fc5095d14bd7827081954242f12352307123038be9a20100000000ffffffff01e25d020000000000160014fb8c7919bf91b7694791db553995300e0a2c15f302473044022014dad2ddb06e0eff85681e9d13afce2865770e2faad1f42b7f5d3fd8b30157d702205c00659414c207ae5a2abae48270b43ebaae94844f2473a50693103d572636db012103e77ff2a564ef64bb76dc14614165a23474510b636c03acad32d7d29d9b1f30fc024730440220539ace91d8efa461393c207135542c710109a114b0d7c1e01edb3d47b29c9f8002207e93483c56822295f6f5871e1c35ca8bd0d48cc08de95b38825c191c0dc80d25012103e77ff2a564ef64bb76dc14614165a23474510b636c03acad32d7d29d9b1f30fc02483045022100c3aa5ea91a8e80d245f160452436ffdab0e7493f0c96d4ee5b9959d420aeaa8f0220552b08ef62c7135e2dfca81c13c223d17b23ce42a858d5208483745e6e2aa33d012103e77ff2a564ef64bb76dc14614165a23474510b636c03acad32d7d29d9b1f30fc02483045022100ae490464d36d50deacd176a81de5dadbb67f8fc1580c56ad0b6e406bd08b92ea02203aa00eaaaff00da3c34bdc459eab443fa5c6385ab356d769c354966706fc9808012103e77ff2a564ef64bb76dc14614165a23474510b636c03acad32d7d29d9b1f30fc00000000"
}