{
  "txid": "284f8efc379a6ab3d58afea7f693aa845032b06248bbc4db4cb375deb921d9b1",
  "version": 2,
  "locktime": 0,
  "vin": [
    {
      "txid": "479ceef25b7ab7157d3466372a052d5e50117dc4f523a6083f350aa73af197a8",
      "vout": 1,
      "prevout": {
        "scriptpubkey": "5120bee8acb94035a84e653da8101b8fdd57840aed303aa2487380888edecd8b9309",
        "scriptpubkey_asm": "OP_PUSHNUM_1 OP_PUSHBYTES_32 bee8acb94035a84e653da8101b8fdd57840aed303aa2487380888edecd8b9309",
        "scriptpubkey_type": "v1_p2tr",
        "scriptpubkey_address": "bc1phm52ew2qxk5yuefa4qgphr7a27zq4mfs823ysuuq3z8danvtjvysumad6e",
        "value": 43608
      },
      "scriptsig": "",
      "scriptsig_asm": "",
      "witness": [
        "746cdc78f964d9c7bb2fc1bc15a31ccf3453d84969b20aabd969319752f765caa4b134f60ba156f0ad8fb93422fe9ae9bd1dad739eb0ec5a6a083dc8f8e09c0d"
      ],
      "is_coinbase": false,
      "sequence": 4294967293
    }
  ],
  "vout": [
    {
      "scriptpubkey": "5120042d7e355eeebd65357aaff05bf9e947b9d2d5cf64653cfb94bcf7b05472cb0f",
      "scriptpubkey_asm": "OP_PUSHNUM_1 OP_PUSHBYTES_32 042d7e355eeebd65357aaff05bf9e947b9d2d5cf64653cfb94bcf7b05472cb0f",
      "scriptpubkey_type": "v1_p2tr",
      "scriptpubkey_address": "bc1pqskhud27a67k2dt64lc9h70fg7ua94w0v3jne7u5hnmmq4rjev8s8v0cu3",
      "value": 2978
    },
    {
      "scriptpubkey": "5120bee8acb94035a84e653da8101b8fdd57840aed303aa2487380888edecd8b9309",
      "scriptpubkey_asm": "OP_PUSHNUM_1 OP_PUSHBYTES_32 bee8acb94035a84e653da8101b8fdd57840aed303aa2487380888edecd8b9309",
      "scriptpubkey_type": "v1_p2tr",
      "scriptpubkey_address": "bc1phm52ew2qxk5yuefa4qgphr7a27zq4mfs823ysuuq3z8danvtjvysumad6e",
      "value": 38166
    }
  ],
  "size": 205,
  "weight": 616,
  "fee": 2464,
  "status": {
    "confirmed": true,
    "block_height": 834464,
    "block_hash": "0000000000000000000177a0869a911a2b65c9bdcd5a8bcb02b68f305bee848e",
    "block_time": 1710308296
  },
  "hex": "02000000000101a897f13aa70a353f08a623f5c47d11505e2d052a3766347d15b77a5bf2ee9c470100000000fdffffff02a20b000000000000225120042d7e355eeebd65357aaff05bf9e947b9d2d5cf64653cfb94bcf7b05472cb0f1695000000000000225120bee8acb94035a84e653da8101b8fdd57840aed303aa2487380888edecd8b93090140746cdc78f964d9c7bb2fc1bc15a31ccf3453d84969b20aabd969319752f765caa4b134f60ba156f0ad8fb93422fe9ae9bd1dad739eb0ec5a6a083dc8f8e09c0d00000000"
}