{
  "txid": "2862a129cc7a1e21bf9aa51b410f841ce22fb0d33e0fbc2f2a353ccee1d0cf7e",
  "version": 2,
  "locktime": 0,
  "vin": [
    {
      "txid": "acc3ba00869acb582a3f2904ce3a11dd3779350ce234063fc7d0959246213364",
      "vout": 248,
      "prevout": {
        "scriptpubkey": "51201b9269e5d9e5ef032a6218747df181e288717e3d23db41932b48c3c5ae56627e",
        "scriptpubkey_asm": "OP_PUSHNUM_1 OP_PUSHBYTES_32 1b9269e5d9e5ef032a6218747df181e288717e3d23db41932b48c3c5ae56627e",
        "scriptpubkey_type": "v1_p2tr",
        "scriptpubkey_address": "bc1prwfxneweuhhsx2nzrp68muvpu2y8zl3ay0d5ryetfrputtjkvflqnu6dga",
        "value": 1806
      },
      "scriptsig": "",
      "scriptsig_asm": "",
      "witness": [
        "95d098f554cd868dda055d136c54638ec8aca32a3a01e0a6efdb4438124d9fb54e12688e1a6d4ff8fc10a44332b95c92864cc9c9452bf40a2f4d0658e62a0750",
        "20face4b254bd546d1b3f833c0638ce54f9122320add5a66ba94040719209742cdac0063036f726401010a746578742f706c61696e00357b2270223a226272632d3230222c226f70223a226d696e74222c227469636b223a22646f6765222c22616d74223a2234323030227d68",
        "c0face4b254bd546d1b3f833c0638ce54f9122320add5a66ba94040719209742cd"
      ],
      "is_coinbase": false,
      "sequence": 4261412863
    }
  ],
  "vout": [
    {
      "scriptpubkey": "00147a665de7a370f4c9b372ab1fae587500a5bcbdb4",
      "scriptpubkey_asm": "OP_0 OP_PUSHBYTES_20 7a665de7a370f4c9b372ab1fae587500a5bcbdb4",
      "scriptpubkey_type": "v0_p2wpkh",
      "scriptpubkey_address": "bc1q0fn9mearwr6vnvmj4v06ukr4qzjme0d565dzcx",
      "value": 294
    }
  ],
  "size": 294,
  "weight": 540,
  "fee": 1512,
  "status": {
    "confirmed": true,
    "block_height": 834460,
    "block_hash": "00000000000000000000484a79b643b2524bbce82e5d8a442013fa5b8905ed98",
    "block_time": 1710307468
  },
  "hex": "02000000000101643321469295d0c73f0634e20c357937dd113ace04293f2a58cb9a8600bac3acf800000000fffffffd0126010000000000001600147a665de7a370f4c9b372ab1fae587500a5bcbdb4034095d098f554cd868dda055d136c54638ec8aca32a3a01e0a6efdb4438124d9fb54e12688e1a6d4ff8fc10a44332b95c92864cc9c9452bf40a2f4d0658e62a07506d20face4b254bd546d1b3f833c0638ce54f9122320add5a66ba94040719209742cdac0063036f726401010a746578742f706c61696e00357b2270223a226272632d3230222c226f70223a226d696e74222c227469636b223a22646f6765222c22616d74223a2234323030227d6821c0face4b254bd546d1b3f833c0638ce54f9122320add5a66ba94040719209742cd00000000"
}