{
  "txid": "2866af25cc585fc28693af577192708b1480d517e7cdc61ec7d8741bdda629d0",
  "version": 2,
  "locktime": 0,
  "vin": [
    {
      "txid": "2d6e89fc1b346eaa87054841278374685eedc97f3e1ecb83156597a4c3062acc",
      "vout": 2,
      "prevout": {
        "scriptpubkey": "a91403bf5383230331d46dabbba34d8ed01eb811a5b687",
        "scriptpubkey_asm": "OP_HASH160 OP_PUSHBYTES_20 03bf5383230331d46dabbba34d8ed01eb811a5b6 OP_EQUAL",
        "scriptpubkey_type": "p2sh",
        "scriptpubkey_address": "322q9hSUXjW9whVm8xN1uz3DH27CL5W9VN",
        "value": 578100
      },
      "scriptsig": "16001418f228fa309f2c2c1077e3e1e2e9feae2b1a72be",
      "scriptsig_asm": "OP_PUSHBYTES_22 001418f228fa309f2c2c1077e3e1e2e9feae2b1a72be",
      "witness": [
        "3045022100b69469f84db036f118d4074c0a5f974363fce52cd18022570af21fb954987b560220536c26f2c79d66e78dd4479bfb5c801853fef186acf390b9a65979917e65feb401",
        "035498cf34594204ebfee9e7f681d24fe540883b1785332e45df8a051086cc290b"
      ],
      "is_coinbase": false,
      "sequence": 4294967293,
      "inner_redeemscript_asm": "OP_0 OP_PUSHBYTES_20 18f228fa309f2c2c1077e3e1e2e9feae2b1a72be"
    }
  ],
  "vout": [
    {
      "scriptpubkey": "0014623b0fcd8a4d2233b2242b1bbf3475f6dae86eb9",
      "scriptpubkey_asm": "OP_0 OP_PUSHBYTES_20 623b0fcd8a4d2233b2242b1bbf3475f6dae86eb9",
      "scriptpubkey_type": "v0_p2wpkh",
      "scriptpubkey_address": "bc1qvgaslnv2f53r8v3y9vdm7dr47mdwsm4ejr8kcc",
      "value": 500000
    },
    {
      "scriptpubkey": "a91403bf5383230331d46dabbba34d8ed01eb811a5b687",
      "scriptpubkey_asm": "OP_HASH160 OP_PUSHBYTES_20 03bf5383230331d46dabbba34d8ed01eb811a5b6 OP_EQUAL",
      "scriptpubkey_type": "p2sh",
      "scriptpubkey_address": "322q9hSUXjW9whVm8xN1uz3DH27CL5W9VN",
      "value": 75130
    }
  ],
  "size": 247,
  "weight": 658,
  "fee": 2970,
  "status": {
    "confirmed": true,
    "block_height": 834638,
    "block_hash": "000000000000000000025f742c626208ac87e0b7d15054abb4a19ca2d735a54e",
    "block_time": 1710405325
  },
  "hex": "02000000000101cc2a06c3a497651583cb1e3e7fc9ed5e6874832741480587aa6e341bfc896e2d020000001716001418f228fa309f2c2c1077e3e1e2e9feae2b1a72befdffffff0220a1070000000000160014623b0fcd8a4d2233b2242b1bbf3475f6dae86eb97a2501000000000017a91403bf5383230331d46dabbba34d8ed01eb811a5b68702483045022100b69469f84db036f118d4074c0a5f974363fce52cd18022570af21fb954987b560220536c26f2c79d66e78dd4479bfb5c801853fef186acf390b9a65979917e65feb40121035498cf34594204ebfee9e7f681d24fe540883b1785332e45df8a051086cc290b00000000"
}