{
  "txid": "2879e934d1ca3c1955cddad5edd1b46b706583065180bb6a1d9fe674d1ddbd1c",
  "version": 2,
  "locktime": 0,
  "vin": [
    {
      "txid": "1e9b638f14479bc09308a4a4239e81a1681c3efd585f6c81c8adbf5df708621c",
      "vout": 1,
      "prevout": {
        "scriptpubkey": "0014823ea25183b4adf3a0c3473767b5020fae6b6f55",
        "scriptpubkey_asm": "OP_0 OP_PUSHBYTES_20 823ea25183b4adf3a0c3473767b5020fae6b6f55",
        "scriptpubkey_type": "v0_p2wpkh",
        "scriptpubkey_address": "bc1qsgl2y5vrkjkl8gxrgumk0dgzp7hxkm64ngvzmk",
        "value": 50994571
      },
      "scriptsig": "",
      "scriptsig_asm": "",
      "witness": [
        "30440220280b6890033a2f0932df55f4c4dd958f9e1e3cc13fb702a1c3a6410653b201fb02201764cc7d29ef2fc46ca85e2ef28ba6b9528d41be47eb0cf71cb1eab4fc53624b01",
        "038ac305dbf0c185574321dde10c69ff058c06d492404e4a2d0e505844b8ddb55e"
      ],
      "is_coinbase": false,
      "sequence": 4294967295
    }
  ],
  "vout": [
    {
      "scriptpubkey": "0014f64830ae574266ff7800b005379dca3592d799ac",
      "scriptpubkey_asm": "OP_0 OP_PUSHBYTES_20 f64830ae574266ff7800b005379dca3592d799ac",
      "scriptpubkey_type": "v0_p2wpkh",
      "scriptpubkey_address": "bc1q7eyrptjhgfn077qqkqzn08w2xkfd0xdvp2fkcy",
      "value": 50884994
    },
    {
      "scriptpubkey": "0014823ea25183b4adf3a0c3473767b5020fae6b6f55",
      "scriptpubkey_asm": "OP_0 OP_PUSHBYTES_20 823ea25183b4adf3a0c3473767b5020fae6b6f55",
      "scriptpubkey_type": "v0_p2wpkh",
      "scriptpubkey_address": "bc1qsgl2y5vrkjkl8gxrgumk0dgzp7hxkm64ngvzmk",
      "value": 107167
    }
  ],
  "size": 222,
  "weight": 561,
  "fee": 2410,
  "status": {
    "confirmed": true,
    "block_height": 834638,
    "block_hash": "000000000000000000025f742c626208ac87e0b7d15054abb4a19ca2d735a54e",
    "block_time": 1710405325
  },
  "hex": "020000000001011c6208f75dbfadc8816c5f58fd3e1c68a1819e23a4a40893c09b47148f639b1e0100000000ffffffff028271080300000000160014f64830ae574266ff7800b005379dca3592d799ac9fa2010000000000160014823ea25183b4adf3a0c3473767b5020fae6b6f55024730440220280b6890033a2f0932df55f4c4dd958f9e1e3cc13fb702a1c3a6410653b201fb02201764cc7d29ef2fc46ca85e2ef28ba6b9528d41be47eb0cf71cb1eab4fc53624b0121038ac305dbf0c185574321dde10c69ff058c06d492404e4a2d0e505844b8ddb55e00000000"
}