{
  "txid": "287a71724b0a834ffba9c00ea8ba62155b00629a1e0407290d51e7b6f5eea0f9",
  "version": 2,
  "locktime": 0,
  "vin": [
    {
      "txid": "3db774ef45be39bad54ce04d356bcb52704c5aac795d6b3a03da53a45f938fa7",
      "vout": 0,
      "prevout": {
        "scriptpubkey": "5120bacdcf25f4a1cbd452b71c07eb1fb83e3d78cbfe7779e3070385b779732586a6",
        "scriptpubkey_asm": "OP_PUSHNUM_1 OP_PUSHBYTES_32 bacdcf25f4a1cbd452b71c07eb1fb83e3d78cbfe7779e3070385b779732586a6",
        "scriptpubkey_type": "v1_p2tr",
        "scriptpubkey_address": "bc1phtxu7f05589ag54hrsr7k8ac8c7h3jl7wau7xpcrskmhjue9s6nq4chw0s",
        "value": 2826
      },
      "scriptsig": "",
      "scriptsig_asm": "",
      "witness": [
        "7eb060cfcc8259c179a606bb2ad132385396e2d8d72e6957313ec1d98849c885dfcff06ee5c90f8509796504c135c30862862835e18d92e25e62632ed37fc2cf",
        "20f7f0a65b7c37258099377d84944c36cbc8b3b7ce99855e201e9f3b4e7430ee16ac0063036f7264010118746578742f706c61696e3b636861727365743d7574662d3800397b2270223a226272632d3230222c226f70223a227472616e73666572222c227469636b223a22736c6f72222c22616d74223a2231303136227d68",
        "c0f7f0a65b7c37258099377d84944c36cbc8b3b7ce99855e201e9f3b4e7430ee16"
      ],
      "is_coinbase": false,
      "sequence": 4294967293
    }
  ],
  "vout": [
    {
      "scriptpubkey": "512013c72b6fe24392b12b00b05a5138e3ab794d6e899a648bed201c7239ec7ea814",
      "scriptpubkey_asm": "OP_PUSHNUM_1 OP_PUSHBYTES_32 13c72b6fe24392b12b00b05a5138e3ab794d6e899a648bed201c7239ec7ea814",
      "scriptpubkey_type": "v1_p2tr",
      "scriptpubkey_address": "bc1pz0rjkmlzgwftz2cqkpd9zw8r4du56m5fnfjghmfqr3ernmr74q2qw3c5v6",
      "value": 546
    }
  ],
  "size": 324,
  "weight": 606,
  "fee": 2280,
  "status": {
    "confirmed": true,
    "block_height": 834460,
    "block_hash": "00000000000000000000484a79b643b2524bbce82e5d8a442013fa5b8905ed98",
    "block_time": 1710307468
  },
  "hex": "02000000000101a78f935fa453da033a6b5d79ac5a4c7052cb6b354de04cd5ba39be45ef74b73d0000000000fdffffff01220200000000000022512013c72b6fe24392b12b00b05a5138e3ab794d6e899a648bed201c7239ec7ea81403407eb060cfcc8259c179a606bb2ad132385396e2d8d72e6957313ec1d98849c885dfcff06ee5c90f8509796504c135c30862862835e18d92e25e62632ed37fc2cf7f20f7f0a65b7c37258099377d84944c36cbc8b3b7ce99855e201e9f3b4e7430ee16ac0063036f7264010118746578742f706c61696e3b636861727365743d7574662d3800397b2270223a226272632d3230222c226f70223a227472616e73666572222c227469636b223a22736c6f72222c22616d74223a2231303136227d6821c0f7f0a65b7c37258099377d84944c36cbc8b3b7ce99855e201e9f3b4e7430ee1600000000"
}