{
  "txid": "28903174bf5ed77c2d781777a95c424c55616eb13aaa10328be6d44bf264df81",
  "version": 1,
  "locktime": 0,
  "vin": [
    {
      "txid": "88636e66e0d266dcdc7520cb8fc311bf6087bc34d1f6005a6d2f6c85854e0aea",
      "vout": 1,
      "prevout": {
        "scriptpubkey": "51209d6dbbf9bad17d0135e06ea56ec304df985f9f9bc809fa52ae6789a0947e0300",
        "scriptpubkey_asm": "OP_PUSHNUM_1 OP_PUSHBYTES_32 9d6dbbf9bad17d0135e06ea56ec304df985f9f9bc809fa52ae6789a0947e0300",
        "scriptpubkey_type": "v1_p2tr",
        "scriptpubkey_address": "bc1pn4kmh7d6697szd0qd6jkascym7v9l8umeqyl554wv7y6p9r7qvqquzkndh",
        "value": 357865
      },
      "scriptsig": "",
      "scriptsig_asm": "",
      "witness": [
        "0082faa76ca0e8de742060da08ffa57bfa16d5ca73a361923a9a893285f8660f7d7746bb41abcd62234085c370a8e8c4becd79294c03038a97fe233a6bce3df4"
      ],
      "is_coinbase": false,
      "sequence": 1610613036
    }
  ],
  "vout": [
    {
      "scriptpubkey": "5120c4ab0a9b6aad9ac666916d5678ef472f7a7fb2973729070f446a9c4efbb994a8",
      "scriptpubkey_asm": "OP_PUSHNUM_1 OP_PUSHBYTES_32 c4ab0a9b6aad9ac666916d5678ef472f7a7fb2973729070f446a9c4efbb994a8",
      "scriptpubkey_type": "v1_p2tr",
      "scriptpubkey_address": "bc1pcj4s4xm24kdvve53d4t83m689aa8lv5hxu5swr6yd2wya7aejj5q2xqfa7",
      "value": 2770
    },
    {
      "scriptpubkey": "51209d6dbbf9bad17d0135e06ea56ec304df985f9f9bc809fa52ae6789a0947e0300",
      "scriptpubkey_asm": "OP_PUSHNUM_1 OP_PUSHBYTES_32 9d6dbbf9bad17d0135e06ea56ec304df985f9f9bc809fa52ae6789a0947e0300",
      "scriptpubkey_type": "v1_p2tr",
      "scriptpubkey_address": "bc1pn4kmh7d6697szd0qd6jkascym7v9l8umeqyl554wv7y6p9r7qvqquzkndh",
      "value": 353247
    }
  ],
  "size": 205,
  "weight": 616,
  "fee": 1848,
  "status": {
    "confirmed": true,
    "block_height": 834460,
    "block_hash": "00000000000000000000484a79b643b2524bbce82e5d8a442013fa5b8905ed98",
    "block_time": 1710307468
  },
  "hex": "01000000000101ea0a4e85856c2f6d5a00f6d134bc8760bf11c38fcb2075dcdc66d2e0666e638801000000002c01006002d20a000000000000225120c4ab0a9b6aad9ac666916d5678ef472f7a7fb2973729070f446a9c4efbb994a8df630500000000002251209d6dbbf9bad17d0135e06ea56ec304df985f9f9bc809fa52ae6789a0947e030001400082faa76ca0e8de742060da08ffa57bfa16d5ca73a361923a9a893285f8660f7d7746bb41abcd62234085c370a8e8c4becd79294c03038a97fe233a6bce3df400000000"
}