{
  "txid": "289a6c36994466d9800971f5797735a9ad4355404f255bfe479309226cefe2d5",
  "version": 2,
  "locktime": 0,
  "vin": [
    {
      "txid": "aa7b5536049c2e53be5ea2eb12c94673b257d473e98faaf02d7fd182fc01384f",
      "vout": 0,
      "prevout": {
        "scriptpubkey": "00147a685907bfc36818d003f3ba3cc9046facf6179f",
        "scriptpubkey_asm": "OP_0 OP_PUSHBYTES_20 7a685907bfc36818d003f3ba3cc9046facf6179f",
        "scriptpubkey_type": "v0_p2wpkh",
        "scriptpubkey_address": "bc1q0f59jpalcd5p35qr7warejgyd7k0v9ulpd62ah",
        "value": 1500000
      },
      "scriptsig": "",
      "scriptsig_asm": "",
      "witness": [
        "3045022100d0520f2438256b76be3e812397dd8a2db5822953c7114d4e8b2396c721985112022010541a1a05b2b9829af12da1fa2ca5f6a64d870acc948461a72664d4c0421d6001",
        "037ed00e8dce73fc56ea5be9f4e10e3856f7dde1b6459124a7abd21b9a4c49e79f"
      ],
      "is_coinbase": false,
      "sequence": 4294967293
    },
    {
      "txid": "a41f5dc942cc2e1aee64b5f969da27fe8a1110a0d923df41037cd2e008c5f261",
      "vout": 0,
      "prevout": {
        "scriptpubkey": "0014a0379ab4b7a9610d5abe0022472f72a25e568af9",
        "scriptpubkey_asm": "OP_0 OP_PUSHBYTES_20 a0379ab4b7a9610d5abe0022472f72a25e568af9",
        "scriptpubkey_type": "v0_p2wpkh",
        "scriptpubkey_address": "bc1q5qme4d9h49ss6k47qq3ywtmj5f09dzhemmjfnd",
        "value": 1448650
      },
      "scriptsig": "",
      "scriptsig_asm": "",
      "witness": [
        "3045022100caf156dbc1994a671eb4e5d612733728152cd4fe6d50e1e6fd4197b8b4655fce02207fc74ed26063d3b165943d316a7d9616e340f7a32201637db70b0706e4e4a4f101",
        "02c9a6aba2b4980f7034590d526aa0430329e835e0ef39fc29eba951cb71694ade"
      ],
      "is_coinbase": false,
      "sequence": 4294967293
    }
  ],
  "vout": [
    {
      "scriptpubkey": "00144f5b4d5334c30ea408c2422c6da3999180577d16",
      "scriptpubkey_asm": "OP_0 OP_PUSHBYTES_20 4f5b4d5334c30ea408c2422c6da3999180577d16",
      "scriptpubkey_type": "v0_p2wpkh",
      "scriptpubkey_address": "bc1qfad565e5cv82gzxzggkxmguejxq9wlgkh2fw4k",
      "value": 1583124
    },
    {
      "scriptpubkey": "0014e4b21fbed49bd1d564fa242cc3775de66e14e9bf",
      "scriptpubkey_asm": "OP_0 OP_PUSHBYTES_20 e4b21fbed49bd1d564fa242cc3775de66e14e9bf",
      "scriptpubkey_type": "v0_p2wpkh",
      "scriptpubkey_address": "bc1qujepl0k5n0ga2e86yskvxa6auehpf6dlf84dx0",
      "value": 1360526
    }
  ],
  "size": 372,
  "weight": 834,
  "fee": 5000,
  "status": {
    "confirmed": true,
    "block_height": 834638,
    "block_hash": "000000000000000000025f742c626208ac87e0b7d15054abb4a19ca2d735a54e",
    "block_time": 1710405325
  },
  "hex": "020000000001024f3801fc82d17f2df0aa8fe973d457b27346c912eba25ebe532e9c0436557baa0000000000fdffffff61f2c508e0d27c0341df23d9a010118afe27da69f9b564ee1a2ecc42c95d1fa40000000000fdffffff0214281800000000001600144f5b4d5334c30ea408c2422c6da3999180577d168ec2140000000000160014e4b21fbed49bd1d564fa242cc3775de66e14e9bf02483045022100d0520f2438256b76be3e812397dd8a2db5822953c7114d4e8b2396c721985112022010541a1a05b2b9829af12da1fa2ca5f6a64d870acc948461a72664d4c0421d600121037ed00e8dce73fc56ea5be9f4e10e3856f7dde1b6459124a7abd21b9a4c49e79f02483045022100caf156dbc1994a671eb4e5d612733728152cd4fe6d50e1e6fd4197b8b4655fce02207fc74ed26063d3b165943d316a7d9616e340f7a32201637db70b0706e4e4a4f1012102c9a6aba2b4980f7034590d526aa0430329e835e0ef39fc29eba951cb71694ade00000000"
}