{
  "txid": "28a74895e7c837be1b90a2f652df11994bc9eef27d81ad3dcba9e554b7f5fa78",
  "version": 2,
  "locktime": 834637,
  "vin": [
    {
      "txid": "bac1d15108e79aca982cd760eb931588ceca4669286bdd0a087bd9527554e8cc",
      "vout": 1,
      "prevout": {
        "scriptpubkey": "0014c25e54b5cd62f25de6f7d455d63f66313e1f5e1d",
        "scriptpubkey_asm": "OP_0 OP_PUSHBYTES_20 c25e54b5cd62f25de6f7d455d63f66313e1f5e1d",
        "scriptpubkey_type": "v0_p2wpkh",
        "scriptpubkey_address": "bc1qcf09fdwdvte9mehh632av0mxxylp7hsa75v0ma",
        "value": 286519
      },
      "scriptsig": "",
      "scriptsig_asm": "",
      "witness": [
        "304402203e072bfebc37928af63c5acaedbacec4498594ee64c5a22785ac97eb2eaf174a02207003aec09f0bc3d31ece4d004f961075d6eab8cdcee74452abe00d22aa31aff201",
        "02122db7a5ae6aa34b7914f518a1e6091515b2f6feca0652ca1c30c8b3784b34db"
      ],
      "is_coinbase": false,
      "sequence": 4294967293
    }
  ],
  "vout": [
    {
      "scriptpubkey": "a91415b8028667dc9e3ead7a1bd9257fe234b6c32f7087",
      "scriptpubkey_asm": "OP_HASH160 OP_PUSHBYTES_20 15b8028667dc9e3ead7a1bd9257fe234b6c32f70 OP_EQUAL",
      "scriptpubkey_type": "p2sh",
      "scriptpubkey_address": "33frYoSyAFi8CsKctcBhG9VZBQXJ5AzdNz",
      "value": 17068
    },
    {
      "scriptpubkey": "00149aee5d978e97a4d97b7aed463442bf4b06e5191f",
      "scriptpubkey_asm": "OP_0 OP_PUSHBYTES_20 9aee5d978e97a4d97b7aed463442bf4b06e5191f",
      "scriptpubkey_type": "v0_p2wpkh",
      "scriptpubkey_address": "bc1qnth9m9uwj7jdj7m6a4rrgs4lfvrw2xgl6tnn87",
      "value": 267193
    }
  ],
  "size": 223,
  "weight": 565,
  "fee": 2258,
  "status": {
    "confirmed": true,
    "block_height": 834638,
    "block_hash": "000000000000000000025f742c626208ac87e0b7d15054abb4a19ca2d735a54e",
    "block_time": 1710405325
  },
  "hex": "02000000000101cce8547552d97b080add6b286946cace881593eb60d72c98ca9ae70851d1c1ba0100000000fdffffff02ac4200000000000017a91415b8028667dc9e3ead7a1bd9257fe234b6c32f7087b9130400000000001600149aee5d978e97a4d97b7aed463442bf4b06e5191f0247304402203e072bfebc37928af63c5acaedbacec4498594ee64c5a22785ac97eb2eaf174a02207003aec09f0bc3d31ece4d004f961075d6eab8cdcee74452abe00d22aa31aff2012102122db7a5ae6aa34b7914f518a1e6091515b2f6feca0652ca1c30c8b3784b34db4dbc0c00"
}