{
  "txid": "28aaefaaeab2c648acfe61b53cade9cc9d72985718d85da2936cc80ccc6fe3e0",
  "version": 2,
  "locktime": 0,
  "vin": [
    {
      "txid": "3088df1e1610354296c881e47316e87bb14ea1e43331c3d7bc7ce6fda1364365",
      "vout": 4,
      "prevout": {
        "scriptpubkey": "00148cf0fd355ea44d09709dac647bded47c37c31253",
        "scriptpubkey_asm": "OP_0 OP_PUSHBYTES_20 8cf0fd355ea44d09709dac647bded47c37c31253",
        "scriptpubkey_type": "v0_p2wpkh",
        "scriptpubkey_address": "bc1q3nc06d2753xsjuya43j8hhk50smuxyjnl9c5zl",
        "value": 4734820
      },
      "scriptsig": "",
      "scriptsig_asm": "",
      "witness": [
        "3045022100d49c1c3da05c69bde6b1bafb76e6d478ac853fd97591ff71be61e9620d97be0d02201011311fa06edb27a66865b2be65e2a443f6c2cf4cbe77fdfdec5f08d9d4cd6601",
        "03fb112acb791255ced28241b6d06fa3c10014d6e4f83bd09c2ae3a2340d2b4821"
      ],
      "is_coinbase": false,
      "sequence": 0
    }
  ],
  "vout": [
    {
      "scriptpubkey": "00148b368078942f4cfdac7bc393f49aa27834a7cb8c",
      "scriptpubkey_asm": "OP_0 OP_PUSHBYTES_20 8b368078942f4cfdac7bc393f49aa27834a7cb8c",
      "scriptpubkey_type": "v0_p2wpkh",
      "scriptpubkey_address": "bc1q3vmgq7y59ax0mtrmcwflfx4z0q620juvmlqgul",
      "value": 4732840
    }
  ],
  "size": 192,
  "weight": 438,
  "fee": 1980,
  "status": {
    "confirmed": true,
    "block_height": 834638,
    "block_hash": "000000000000000000025f742c626208ac87e0b7d15054abb4a19ca2d735a54e",
    "block_time": 1710405325
  },
  "hex": "02000000000101654336a1fde67cbcd7c33133e4a14eb17be81673e481c896423510161edf883004000000000000000001a8374800000000001600148b368078942f4cfdac7bc393f49aa27834a7cb8c02483045022100d49c1c3da05c69bde6b1bafb76e6d478ac853fd97591ff71be61e9620d97be0d02201011311fa06edb27a66865b2be65e2a443f6c2cf4cbe77fdfdec5f08d9d4cd66012103fb112acb791255ced28241b6d06fa3c10014d6e4f83bd09c2ae3a2340d2b482100000000"
}