{
  "txid": "28bf4ba94b782e2791817d19d62f5a31a5d667f40f6eca9717c17597600cb11f",
  "version": 2,
  "locktime": 0,
  "vin": [
    {
      "txid": "3ed5dfdfdd4d8eb0e7eb014910d30141e75472ef725508a658d3b4a76492c226",
      "vout": 0,
      "prevout": {
        "scriptpubkey": "0014c85e3cd9ef591b8aea3e774f43303887be1e8505",
        "scriptpubkey_asm": "OP_0 OP_PUSHBYTES_20 c85e3cd9ef591b8aea3e774f43303887be1e8505",
        "scriptpubkey_type": "v0_p2wpkh",
        "scriptpubkey_address": "bc1qep0rek00tydc4637wa85xvpcs7lpapg9g4dkka",
        "value": 23364
      },
      "scriptsig": "",
      "scriptsig_asm": "",
      "witness": [
        "30440220019f5f1368cb0e3a630188409852fe691e3cc408c01e37ff9edf0a8581f8736c02200ac1d45fe2547ef545526837540013c61bc1631ebed1cb3419ad1ad333686cd901",
        "0302a9367ceb8a1b3e3ef8ab0ef609d38bddac4b0f35dfa832c617253446566251"
      ],
      "is_coinbase": false,
      "sequence": 4294967295
    }
  ],
  "vout": [
    {
      "scriptpubkey": "0014213e5c6fff580093f879c3ebcd4671dc26b688b5",
      "scriptpubkey_asm": "OP_0 OP_PUSHBYTES_20 213e5c6fff580093f879c3ebcd4671dc26b688b5",
      "scriptpubkey_type": "v0_p2wpkh",
      "scriptpubkey_address": "bc1qyyl9cmlltqqf87rec04u63n3msntdz94e749c8",
      "value": 2257
    },
    {
      "scriptpubkey": "00144415ce800dc358ac2118f86602e68b30e335bbd0",
      "scriptpubkey_asm": "OP_0 OP_PUSHBYTES_20 4415ce800dc358ac2118f86602e68b30e335bbd0",
      "scriptpubkey_type": "v0_p2wpkh",
      "scriptpubkey_address": "bc1qgs2uaqqdcdv2cggclpnq9e5txr3ntw7s4xv8uk",
      "value": 19569
    }
  ],
  "size": 222,
  "weight": 561,
  "fee": 1538,
  "status": {
    "confirmed": true,
    "block_height": 834464,
    "block_hash": "0000000000000000000177a0869a911a2b65c9bdcd5a8bcb02b68f305bee848e",
    "block_time": 1710308296
  },
  "hex": "0200000000010126c29264a7b4d358a6085572ef7254e74101d3104901ebe7b08e4ddddfdfd53e0000000000ffffffff02d108000000000000160014213e5c6fff580093f879c3ebcd4671dc26b688b5714c0000000000001600144415ce800dc358ac2118f86602e68b30e335bbd0024730440220019f5f1368cb0e3a630188409852fe691e3cc408c01e37ff9edf0a8581f8736c02200ac1d45fe2547ef545526837540013c61bc1631ebed1cb3419ad1ad333686cd901210302a9367ceb8a1b3e3ef8ab0ef609d38bddac4b0f35dfa832c61725344656625100000000"
}