{
  "txid": "290079b62dbdfcfd0ae51082dc6fc7cfe4c22603dabc72083e9fa8b9ca54845f",
  "version": 2,
  "locktime": 0,
  "vin": [
    {
      "txid": "1ea57033d43d9800a1bbe77bdc57974aaf02714f06ced0f5b52cd2be546fa473",
      "vout": 5,
      "prevout": {
        "scriptpubkey": "5120a1cdadfbfe8b6c51d9a662bde7aa417dae377712b59c5c7a7b50717e6fe4cf56",
        "scriptpubkey_asm": "OP_PUSHNUM_1 OP_PUSHBYTES_32 a1cdadfbfe8b6c51d9a662bde7aa417dae377712b59c5c7a7b50717e6fe4cf56",
        "scriptpubkey_type": "v1_p2tr",
        "scriptpubkey_address": "bc1p58x6m7l73dk9rkdxv27702jp0khrwacjkkw9c7nm2pchumlyeatqactmuk",
        "value": 2771727
      },
      "scriptsig": "",
      "scriptsig_asm": "",
      "witness": [
        "8d57fbe18d858aa9345c337fa43136a186ad6ae832b64f33ef71098cf7df3b007e1d08abadf91041a969b77b31504d52720a2d7741c882cdd3fb8a7b8cecbe1a"
      ],
      "is_coinbase": false,
      "sequence": 4294967295
    }
  ],
  "vout": [
    {
      "scriptpubkey": "5120024d0613dd5842779a9ba20f01c3e546873b2daa2976ca5dad08c72f740ad9d3",
      "scriptpubkey_asm": "OP_PUSHNUM_1 OP_PUSHBYTES_32 024d0613dd5842779a9ba20f01c3e546873b2daa2976ca5dad08c72f740ad9d3",
      "scriptpubkey_type": "v1_p2tr",
      "scriptpubkey_address": "bc1pqfxsvy7atpp80x5m5g8srsl9g6rnktd299mv5hddprrj7aq2m8fs6qk6x5",
      "value": 2600000
    },
    {
      "scriptpubkey": "5120a1cdadfbfe8b6c51d9a662bde7aa417dae377712b59c5c7a7b50717e6fe4cf56",
      "scriptpubkey_asm": "OP_PUSHNUM_1 OP_PUSHBYTES_32 a1cdadfbfe8b6c51d9a662bde7aa417dae377712b59c5c7a7b50717e6fe4cf56",
      "scriptpubkey_type": "v1_p2tr",
      "scriptpubkey_address": "bc1p58x6m7l73dk9rkdxv27702jp0khrwacjkkw9c7nm2pchumlyeatqactmuk",
      "value": 168461
    }
  ],
  "size": 205,
  "weight": 616,
  "fee": 3266,
  "status": {
    "confirmed": true,
    "block_height": 834638,
    "block_hash": "000000000000000000025f742c626208ac87e0b7d15054abb4a19ca2d735a54e",
    "block_time": 1710405325
  },
  "hex": "0200000000010173a46f54bed22cb5f5d0ce064f7102af4a9757dc7be7bba100983dd43370a51e0500000000ffffffff0240ac270000000000225120024d0613dd5842779a9ba20f01c3e546873b2daa2976ca5dad08c72f740ad9d30d92020000000000225120a1cdadfbfe8b6c51d9a662bde7aa417dae377712b59c5c7a7b50717e6fe4cf5601408d57fbe18d858aa9345c337fa43136a186ad6ae832b64f33ef71098cf7df3b007e1d08abadf91041a969b77b31504d52720a2d7741c882cdd3fb8a7b8cecbe1a00000000"
}