{
  "txid": "29064c4d131a6ffc8b5143973f9af28cc2ff85a545ea9d498fd740cad6a340db",
  "version": 1,
  "locktime": 0,
  "vin": [
    {
      "txid": "b60f013c28f2b520622d599c97e62195336235e8ed79e9d9600a5a97f17951db",
      "vout": 6,
      "prevout": {
        "scriptpubkey": "0014fd3488e7d726943d63ceaad3544de0424ae4b6ca",
        "scriptpubkey_asm": "OP_0 OP_PUSHBYTES_20 fd3488e7d726943d63ceaad3544de0424ae4b6ca",
        "scriptpubkey_type": "v0_p2wpkh",
        "scriptpubkey_address": "bc1ql56g3e7hy62r6c7w4tf4gn0qgf9wfdk2rmwme9",
        "value": 39647015
      },
      "scriptsig": "",
      "scriptsig_asm": "",
      "witness": [
        "3045022100d452749f89f91b2fcb1f0e6c515a14a6c7e8a114c9d8f0f5d4a381e02527badc0220470203387db8e5dc5e91f3978a67f42b68f7bb2900d2c0839d1d55ca1fd41d3b01",
        "0264327972450fa214008c6af5c9f53ad57d03d6a4c78cdf6fa9f5ec226aa3c9bd"
      ],
      "is_coinbase": false,
      "sequence": 4294967293
    }
  ],
  "vout": [
    {
      "scriptpubkey": "a91445503e78a4d10c9fc99d157b8e04db7d5e438e2987",
      "scriptpubkey_asm": "OP_HASH160 OP_PUSHBYTES_20 45503e78a4d10c9fc99d157b8e04db7d5e438e29 OP_EQUAL",
      "scriptpubkey_type": "p2sh",
      "scriptpubkey_address": "381WgETh3nwZzLCpzmNi44cWG6MChDNCcW",
      "value": 289111
    },
    {
      "scriptpubkey": "a914791065c501c40fbc0a9e385a01acaf1a1ae9aa4a87",
      "scriptpubkey_asm": "OP_HASH160 OP_PUSHBYTES_20 791065c501c40fbc0a9e385a01acaf1a1ae9aa4a OP_EQUAL",
      "scriptpubkey_type": "p2sh",
      "scriptpubkey_address": "3Cj9L5NG9KjoA7Qec4LnvJRM7JvoQP6qdU",
      "value": 72619
    },
    {
      "scriptpubkey": "a91457003cef279c1058293dcb6b97931e8bcd1a8d9387",
      "scriptpubkey_asm": "OP_HASH160 OP_PUSHBYTES_20 57003cef279c1058293dcb6b97931e8bcd1a8d93 OP_EQUAL",
      "scriptpubkey_type": "p2sh",
      "scriptpubkey_address": "39d2zmgcTtskH8c3NSgqdPk1265uvuQLAz",
      "value": 694508
    },
    {
      "scriptpubkey": "00145de192385da164a1722287aded6c907c54ff7e74",
      "scriptpubkey_asm": "OP_0 OP_PUSHBYTES_20 5de192385da164a1722287aded6c907c54ff7e74",
      "scriptpubkey_type": "v0_p2wpkh",
      "scriptpubkey_address": "bc1qthseywza59j2zu3zs7k76mys03207ln5jdrazj",
      "value": 38586787
    }
  ],
  "size": 288,
  "weight": 822,
  "fee": 3990,
  "status": {
    "confirmed": true,
    "block_height": 834638,
    "block_hash": "000000000000000000025f742c626208ac87e0b7d15054abb4a19ca2d735a54e",
    "block_time": 1710405325
  },
  "hex": "01000000000101db5179f1975a0a60d9e979ede83562339521e6979c592d6220b5f2283c010fb60600000000fdffffff04576904000000000017a91445503e78a4d10c9fc99d157b8e04db7d5e438e2987ab1b01000000000017a914791065c501c40fbc0a9e385a01acaf1a1ae9aa4a87ec980a000000000017a91457003cef279c1058293dcb6b97931e8bcd1a8d9387a3c94c02000000001600145de192385da164a1722287aded6c907c54ff7e7402483045022100d452749f89f91b2fcb1f0e6c515a14a6c7e8a114c9d8f0f5d4a381e02527badc0220470203387db8e5dc5e91f3978a67f42b68f7bb2900d2c0839d1d55ca1fd41d3b01210264327972450fa214008c6af5c9f53ad57d03d6a4c78cdf6fa9f5ec226aa3c9bd00000000"
}