{
  "txid": "290d50f8df1565f71fdcd67f62041e27294ca38a4d9342cc160c20b430fe72be",
  "version": 2,
  "locktime": 0,
  "vin": [
    {
      "txid": "c173f3d2ee560a94d21424c67d85949285f4cf5c608da6966eaea7aba5e38605",
      "vout": 0,
      "prevout": {
        "scriptpubkey": "51209032703d9f27b3a887bbddce34c7a755e51fe3ccf6691fc0595cd238a457a523",
        "scriptpubkey_asm": "OP_PUSHNUM_1 OP_PUSHBYTES_32 9032703d9f27b3a887bbddce34c7a755e51fe3ccf6691fc0595cd238a457a523",
        "scriptpubkey_type": "v1_p2tr",
        "scriptpubkey_address": "bc1pjqe8q0vly7e63pammh8rf3a82hj3lc7v7e53lszetnfr3fzh553sha9y34",
        "value": 5000
      },
      "scriptsig": "",
      "scriptsig_asm": "",
      "witness": [
        "8c28b9bac59228f7b9aa0b6fc602413a47d31ac965e79a5953b4808263626fcf1ec80c10f74fdc023a18916742f92598130bd6cfad849686536dee75ff83bb35",
        "2078a47d16ba07c4f8a785d88335e6fefa1228e9abf634723be5a96179ef7818b6ac0063036f7264010118746578742f706c61696e3b636861727365743d7574662d38003a7b2270223a226272632d3230222c226f70223a227472616e73666572222c227469636b223a222444425a222c22616d74223a223433353030227d68",
        "c07c651f1c0c6bd1be3a5a260e3bb49c1e6341dfebee0663640c2f61fea6041475"
      ],
      "is_coinbase": false,
      "sequence": 4294967293
    }
  ],
  "vout": [
    {
      "scriptpubkey": "5120a0ccb615afed19da00fae8b1700ba60350fe2f973fb6b46f456d6e0b91a442b7",
      "scriptpubkey_asm": "OP_PUSHNUM_1 OP_PUSHBYTES_32 a0ccb615afed19da00fae8b1700ba60350fe2f973fb6b46f456d6e0b91a442b7",
      "scriptpubkey_type": "v1_p2tr",
      "scriptpubkey_address": "bc1p5rxtv9d0a5va5q86azchqzaxqdg0utuh87mtgm69d4hqhydyg2mslsxkxy",
      "value": 546
    },
    {
      "scriptpubkey": "00143f5504155e9b61812472abd5ac69df2a8a48d577",
      "scriptpubkey_asm": "OP_0 OP_PUSHBYTES_20 3f5504155e9b61812472abd5ac69df2a8a48d577",
      "scriptpubkey_type": "v0_p2wpkh",
      "scriptpubkey_address": "bc1q8a2sg927ndsczfrj4026c6wl929y34thc6uums",
      "value": 1892
    }
  ],
  "size": 356,
  "weight": 731,
  "fee": 2562,
  "status": {
    "confirmed": true,
    "block_height": 834460,
    "block_hash": "00000000000000000000484a79b643b2524bbce82e5d8a442013fa5b8905ed98",
    "block_time": 1710307468
  },
  "hex": "020000000001010586e3a5aba7ae6e96a68d605ccff4859294857dc62414d2940a56eed2f373c10000000000fdffffff022202000000000000225120a0ccb615afed19da00fae8b1700ba60350fe2f973fb6b46f456d6e0b91a442b764070000000000001600143f5504155e9b61812472abd5ac69df2a8a48d57703408c28b9bac59228f7b9aa0b6fc602413a47d31ac965e79a5953b4808263626fcf1ec80c10f74fdc023a18916742f92598130bd6cfad849686536dee75ff83bb35802078a47d16ba07c4f8a785d88335e6fefa1228e9abf634723be5a96179ef7818b6ac0063036f7264010118746578742f706c61696e3b636861727365743d7574662d38003a7b2270223a226272632d3230222c226f70223a227472616e73666572222c227469636b223a222444425a222c22616d74223a223433353030227d6821c07c651f1c0c6bd1be3a5a260e3bb49c1e6341dfebee0663640c2f61fea604147500000000"
}