{
  "txid": "29206b40de3c7f641971509f8581c80d426b450e80792deb110490d3c047a405",
  "version": 1,
  "locktime": 0,
  "vin": [
    {
      "txid": "97ff6c9af11e0a992fa63a66e000def2000c976a9bfbce4e27ee481716d56773",
      "vout": 2,
      "prevout": {
        "scriptpubkey": "00144ff3e9f9cbd43d38463a6e82f9d939a0886768e4",
        "scriptpubkey_asm": "OP_0 OP_PUSHBYTES_20 4ff3e9f9cbd43d38463a6e82f9d939a0886768e4",
        "scriptpubkey_type": "v0_p2wpkh",
        "scriptpubkey_address": "bc1qfle7n7wt6s7ns336d6p0nkfe5zyxw68yx2nw49",
        "value": 215263
      },
      "scriptsig": "",
      "scriptsig_asm": "",
      "witness": [
        "3044022055c994190628f4da5b765b9acfff00f7e78af12fac740a7faeb80b0279e4059802200bbcdfd5c2b38c8bc8b6a9eed81cc5a81f13bdc43b990eed1b88c2b98978d72701",
        "0243c528c1da2f69d65335a49b70700b862f6e08138c0bdb18f8ad604bf037bf69"
      ],
      "is_coinbase": false,
      "sequence": 4294967295
    }
  ],
  "vout": [
    {
      "scriptpubkey": "76a914f384e633a6fc0207e834fcadc75f1165a6105c2388ac",
      "scriptpubkey_asm": "OP_DUP OP_HASH160 OP_PUSHBYTES_20 f384e633a6fc0207e834fcadc75f1165a6105c23 OP_EQUALVERIFY OP_CHECKSIG",
      "scriptpubkey_type": "p2pkh",
      "scriptpubkey_address": "1PCcQcfS8BvzJtoa5XSBLzC44sgZquyyrq",
      "value": 212212
    }
  ],
  "size": 194,
  "weight": 449,
  "fee": 3051,
  "status": {
    "confirmed": true,
    "block_height": 834638,
    "block_hash": "000000000000000000025f742c626208ac87e0b7d15054abb4a19ca2d735a54e",
    "block_time": 1710405325
  },
  "hex": "010000000001017367d5161748ee274ecefb9b6a970c00f2de00e0663aa62f990a1ef19a6cff970200000000ffffffff01f43c0300000000001976a914f384e633a6fc0207e834fcadc75f1165a6105c2388ac02473044022055c994190628f4da5b765b9acfff00f7e78af12fac740a7faeb80b0279e4059802200bbcdfd5c2b38c8bc8b6a9eed81cc5a81f13bdc43b990eed1b88c2b98978d72701210243c528c1da2f69d65335a49b70700b862f6e08138c0bdb18f8ad604bf037bf6900000000"
}