{
  "txid": "2925b92af2d3243960f13cac1cdc478d984b3e9c8d758c6e1262d7a8f48d6373",
  "version": 2,
  "locktime": 0,
  "vin": [
    {
      "txid": "79c473a9d17a2cc1988eac19d6c9dddee855bac5a8e93592ce8674c5b89e47ca",
      "vout": 1,
      "prevout": {
        "scriptpubkey": "76a9147c919e11307a0ac24e4be30f63e82275827b0f5c88ac",
        "scriptpubkey_asm": "OP_DUP OP_HASH160 OP_PUSHBYTES_20 7c919e11307a0ac24e4be30f63e82275827b0f5c OP_EQUALVERIFY OP_CHECKSIG",
        "scriptpubkey_type": "p2pkh",
        "scriptpubkey_address": "1CMfETxStyu3tVBenJXWkuuGfaGLQuXsqH",
        "value": 70511
      },
      "scriptsig": "483045022100c0f72e472fc707bc0521f26467976f479ec53d1004e1d89e97938383af0390d00220128e886bec53e627e4f8c91730c89ae05d79e3a8f19a7b4143d4117d7dba5382012103c0020a46b94c7ab15ce27863a2400d6cfda4218850857f2d3b88a0f337f3be9d",
      "scriptsig_asm": "OP_PUSHBYTES_72 3045022100c0f72e472fc707bc0521f26467976f479ec53d1004e1d89e97938383af0390d00220128e886bec53e627e4f8c91730c89ae05d79e3a8f19a7b4143d4117d7dba538201 OP_PUSHBYTES_33 03c0020a46b94c7ab15ce27863a2400d6cfda4218850857f2d3b88a0f337f3be9d",
      "is_coinbase": false,
      "sequence": 4294967293
    },
    {
      "txid": "f38a77bc0d3a85579228f62ff78924b0e388e33ecf4460a2698434e34ef418a5",
      "vout": 1,
      "prevout": {
        "scriptpubkey": "0014ea972f996c959c2e39d35c2b4a3d2078903ff9a5",
        "scriptpubkey_asm": "OP_0 OP_PUSHBYTES_20 ea972f996c959c2e39d35c2b4a3d2078903ff9a5",
        "scriptpubkey_type": "v0_p2wpkh",
        "scriptpubkey_address": "bc1qa2tjlxtvjkwzuwwnts4550fq0zgrl7d9dtr9gd",
        "value": 1294000
      },
      "scriptsig": "",
      "scriptsig_asm": "",
      "witness": [
        "30440220419cedff9d720f5fab97ec3e718b9d3e5606935e65a3acac1423da2ca3fad8fc022026283055459da636a97229c162be8698d422b6087434b691558b5e5ce9722d0201",
        "03e0f67ee3f24773a82ed06b0ffd6ce17d29c6cb67f8e11c8251c646a66ca3a039"
      ],
      "is_coinbase": false,
      "sequence": 4294967293
    }
  ],
  "vout": [
    {
      "scriptpubkey": "001452e3c57c4876777576334bab437915c2f90201b8",
      "scriptpubkey_asm": "OP_0 OP_PUSHBYTES_20 52e3c57c4876777576334bab437915c2f90201b8",
      "scriptpubkey_type": "v0_p2wpkh",
      "scriptpubkey_address": "bc1q2t3u2lzgwemh2a3nfw45x7g4ctusyqdcre7rwh",
      "value": 138738
    },
    {
      "scriptpubkey": "76a9147c919e11307a0ac24e4be30f63e82275827b0f5c88ac",
      "scriptpubkey_asm": "OP_DUP OP_HASH160 OP_PUSHBYTES_20 7c919e11307a0ac24e4be30f63e82275827b0f5c OP_EQUALVERIFY OP_CHECKSIG",
      "scriptpubkey_type": "p2pkh",
      "scriptpubkey_address": "1CMfETxStyu3tVBenJXWkuuGfaGLQuXsqH",
      "value": 1220917
    }
  ],
  "size": 374,
  "weight": 1166,
  "fee": 4856,
  "status": {
    "confirmed": true,
    "block_height": 834638,
    "block_hash": "000000000000000000025f742c626208ac87e0b7d15054abb4a19ca2d735a54e",
    "block_time": 1710405325
  },
  "hex": "02000000000102ca479eb8c57486ce9235e9a8c5ba55e8deddc9d619ac8e98c12c7ad1a973c479010000006b483045022100c0f72e472fc707bc0521f26467976f479ec53d1004e1d89e97938383af0390d00220128e886bec53e627e4f8c91730c89ae05d79e3a8f19a7b4143d4117d7dba5382012103c0020a46b94c7ab15ce27863a2400d6cfda4218850857f2d3b88a0f337f3be9dfdffffffa518f44ee3348469a26044cf3ee388e3b02489f72ff6289257853a0dbc778af30100000000fdffffff02f21d02000000000016001452e3c57c4876777576334bab437915c2f90201b835a11200000000001976a9147c919e11307a0ac24e4be30f63e82275827b0f5c88ac00024730440220419cedff9d720f5fab97ec3e718b9d3e5606935e65a3acac1423da2ca3fad8fc022026283055459da636a97229c162be8698d422b6087434b691558b5e5ce9722d02012103e0f67ee3f24773a82ed06b0ffd6ce17d29c6cb67f8e11c8251c646a66ca3a03900000000"
}