{
  "txid": "29296df29ac136b161296ff89457eebc2ab4834bcce794ecd5df17a5e16d2aca",
  "version": 2,
  "locktime": 834627,
  "vin": [
    {
      "txid": "a78ff8e64973f8efeac7a608591d790e946ca6f01066b5304bb1632aa716573c",
      "vout": 19,
      "prevout": {
        "scriptpubkey": "0014882c56a32e6a02788818242e5262f048ecf7e565",
        "scriptpubkey_asm": "OP_0 OP_PUSHBYTES_20 882c56a32e6a02788818242e5262f048ecf7e565",
        "scriptpubkey_type": "v0_p2wpkh",
        "scriptpubkey_address": "bc1q3qk9dgewdgp83zqcysh9ychsfrk00et9zsyefv",
        "value": 540111
      },
      "scriptsig": "",
      "scriptsig_asm": "",
      "witness": [
        "304402205ab33c2fe0e97f22f2ef4dfe1af55cf41995ade4812b962d150d8c0f98b9907702202960be4545dac9fbde844948f8ef8543d4f90cf6854a42db3ff2cae1ba98cdd601",
        "02c2da78db37a79bc98aee41e891e5569df8453dc2f2c91b396ae7996756281599"
      ],
      "is_coinbase": false,
      "sequence": 4294967293
    },
    {
      "txid": "f788fe4478765c8a9d0c85f92c1a55175179ad0e7f6f3a60002e66fbab625bee",
      "vout": 0,
      "prevout": {
        "scriptpubkey": "00140d0a09f129455e7a252e87cdfb69e4da016bc9b8",
        "scriptpubkey_asm": "OP_0 OP_PUSHBYTES_20 0d0a09f129455e7a252e87cdfb69e4da016bc9b8",
        "scriptpubkey_type": "v0_p2wpkh",
        "scriptpubkey_address": "bc1qp59qnuffg4085ffwslxlk60ymgqkhjdcjthjaw",
        "value": 324220
      },
      "scriptsig": "",
      "scriptsig_asm": "",
      "witness": [
        "30440220607488c79ec8ddb95c7bd5d460cf27c65b3e712ce17ce5b13e13c0afd58012450220615e23e380dd18ac93b4a36f62b355253f1c2e0e6004fa722d7db3be29f67e6801",
        "029fbce30cf13b342eddfa111f2e43e164107caaf825e47d638887ac5e2c871182"
      ],
      "is_coinbase": false,
      "sequence": 4294967293
    },
    {
      "txid": "a60d74a0639a48853a83d2216994c08484e2cfd225915bb18a6131d47f2d7bb7",
      "vout": 10,
      "prevout": {
        "scriptpubkey": "001405047590374ce51bc1396632646d8d191c08abe7",
        "scriptpubkey_asm": "OP_0 OP_PUSHBYTES_20 05047590374ce51bc1396632646d8d191c08abe7",
        "scriptpubkey_type": "v0_p2wpkh",
        "scriptpubkey_address": "bc1qq5z8typhfnj3hsfevcexgmvdrywq32l80fp0f8",
        "value": 448833
      },
      "scriptsig": "",
      "scriptsig_asm": "",
      "witness": [
        "3044022023dd720e9c6c907a4594032f75d9c949036eb113c9ed487f205b930ce27246460220066e49048aa4876fe97141df4c26c76f95a8bceea9e9f751bf82ebacb3015f0e01",
        "03f1c1c2a99c24f54fa93ff54ef51be26ba056fb1b753ea7211622129060927936"
      ],
      "is_coinbase": false,
      "sequence": 4294967293
    }
  ],
  "vout": [
    {
      "scriptpubkey": "001490aee18a486d941fd836242c4d00e7a47ca72427",
      "scriptpubkey_asm": "OP_0 OP_PUSHBYTES_20 90aee18a486d941fd836242c4d00e7a47ca72427",
      "scriptpubkey_type": "v0_p2wpkh",
      "scriptpubkey_address": "bc1qjzhwrzjgdk2plkpkysky6q885372wfp8e60pj8",
      "value": 1309490
    }
  ],
  "size": 487,
  "weight": 979,
  "fee": 3674,
  "status": {
    "confirmed": true,
    "block_height": 834638,
    "block_hash": "000000000000000000025f742c626208ac87e0b7d15054abb4a19ca2d735a54e",
    "block_time": 1710405325
  },
  "hex": "020000000001033c5716a72a63b14b30b56610f0a66c940e791d5908a6c7eaeff87349e6f88fa71300000000fdffffffee5b62abfb662e00603a6f7f0ead795117551a2cf9850c9d8a5c767844fe88f70000000000fdffffffb77b2d7fd431618ab15b9125d2cfe28484c0946921d2833a85489a63a0740da60a00000000fdffffff0132fb13000000000016001490aee18a486d941fd836242c4d00e7a47ca724270247304402205ab33c2fe0e97f22f2ef4dfe1af55cf41995ade4812b962d150d8c0f98b9907702202960be4545dac9fbde844948f8ef8543d4f90cf6854a42db3ff2cae1ba98cdd6012102c2da78db37a79bc98aee41e891e5569df8453dc2f2c91b396ae7996756281599024730440220607488c79ec8ddb95c7bd5d460cf27c65b3e712ce17ce5b13e13c0afd58012450220615e23e380dd18ac93b4a36f62b355253f1c2e0e6004fa722d7db3be29f67e680121029fbce30cf13b342eddfa111f2e43e164107caaf825e47d638887ac5e2c87118202473044022023dd720e9c6c907a4594032f75d9c949036eb113c9ed487f205b930ce27246460220066e49048aa4876fe97141df4c26c76f95a8bceea9e9f751bf82ebacb3015f0e012103f1c1c2a99c24f54fa93ff54ef51be26ba056fb1b753ea721162212906092793643bc0c00"
}