{
  "txid": "293e6998f29681dd306c7226d837bee850c75c12eed2b0a95416433b3e4eaace",
  "version": 1,
  "locktime": 0,
  "vin": [
    {
      "txid": "36f302526823cba734dae91ccca4a666648136f0b7c6065e332d633716d660d7",
      "vout": 1,
      "prevout": {
        "scriptpubkey": "76a9141925f1a010e871bcc9077ca7a60a32eb5305b79488ac",
        "scriptpubkey_asm": "OP_DUP OP_HASH160 OP_PUSHBYTES_20 1925f1a010e871bcc9077ca7a60a32eb5305b794 OP_EQUALVERIFY OP_CHECKSIG",
        "scriptpubkey_type": "p2pkh",
        "scriptpubkey_address": "13HyMBUVDtzhaUp38hKK3CB5s3EkGDBSM7",
        "value": 90221
      },
      "scriptsig": "483045022100ff96eff557ca6e5fbca33ac00a025756049812cf06f0e7975b6b2f82652ee51502206b4b585e4930c04993475e5e41fd58e1f0e9917e963048d00619cb4d30ef4dc2012102f3d33df8307c3eaf841abcfc8dd7f4bfe965763f7ce1c79f88338f94d6b9468f",
      "scriptsig_asm": "OP_PUSHBYTES_72 3045022100ff96eff557ca6e5fbca33ac00a025756049812cf06f0e7975b6b2f82652ee51502206b4b585e4930c04993475e5e41fd58e1f0e9917e963048d00619cb4d30ef4dc201 OP_PUSHBYTES_33 02f3d33df8307c3eaf841abcfc8dd7f4bfe965763f7ce1c79f88338f94d6b9468f",
      "is_coinbase": false,
      "sequence": 4294967295
    }
  ],
  "vout": [
    {
      "scriptpubkey": "76a914a6f3dfe29e8b3e341af026d97b67a1d739d67ab888ac",
      "scriptpubkey_asm": "OP_DUP OP_HASH160 OP_PUSHBYTES_20 a6f3dfe29e8b3e341af026d97b67a1d739d67ab8 OP_EQUALVERIFY OP_CHECKSIG",
      "scriptpubkey_type": "p2pkh",
      "scriptpubkey_address": "1GDmKYbaV2Ph6qmtWdESVy7TGpVfeqEuky",
      "value": 80489
    },
    {
      "scriptpubkey": "0014dc3fa7ca0035221a2961db06e2a89ea6247be3c0",
      "scriptpubkey_asm": "OP_0 OP_PUSHBYTES_20 dc3fa7ca0035221a2961db06e2a89ea6247be3c0",
      "scriptpubkey_type": "v0_p2wpkh",
      "scriptpubkey_address": "bc1qmsl60jsqx53p52tpmvrw92y75cj8hc7q62r0sa",
      "value": 7279
    }
  ],
  "size": 223,
  "weight": 892,
  "fee": 2453,
  "status": {
    "confirmed": true,
    "block_height": 834464,
    "block_hash": "0000000000000000000177a0869a911a2b65c9bdcd5a8bcb02b68f305bee848e",
    "block_time": 1710308296
  },
  "hex": "0100000001d760d61637632d335e06c6b7f036816466a6a4cc1ce9da34a7cb23685202f336010000006b483045022100ff96eff557ca6e5fbca33ac00a025756049812cf06f0e7975b6b2f82652ee51502206b4b585e4930c04993475e5e41fd58e1f0e9917e963048d00619cb4d30ef4dc2012102f3d33df8307c3eaf841abcfc8dd7f4bfe965763f7ce1c79f88338f94d6b9468fffffffff02693a0100000000001976a914a6f3dfe29e8b3e341af026d97b67a1d739d67ab888ac6f1c000000000000160014dc3fa7ca0035221a2961db06e2a89ea6247be3c000000000"
}