{
  "txid": "294c652c9b90151515d6f6200601293632c9c8a368b1f667f6aab236dedd5261",
  "version": 2,
  "locktime": 0,
  "vin": [
    {
      "txid": "acc3ba00869acb582a3f2904ce3a11dd3779350ce234063fc7d0959246213364",
      "vout": 132,
      "prevout": {
        "scriptpubkey": "51205a9a3996d27c9aa45d50097098510daa7eb531aa526695e8371fb1a55926909e",
        "scriptpubkey_asm": "OP_PUSHNUM_1 OP_PUSHBYTES_32 5a9a3996d27c9aa45d50097098510daa7eb531aa526695e8371fb1a55926909e",
        "scriptpubkey_type": "v1_p2tr",
        "scriptpubkey_address": "bc1pt2drn9kj0jd2gh2sp9cfs5gd4flt2vd22fnft6phr7c62kfxjz0qklv0rz",
        "value": 1806
      },
      "scriptsig": "",
      "scriptsig_asm": "",
      "witness": [
        "0aaf8433fff2acaf71b90180e298907f8ce1cbba3b4dc4d20847616a5c0e7c553c5cc1149d872c6b73d21c7ee8cddca485ba44e25cb53afb76c3ad2762773523",
        "20ac79d928abe6821efd99ee3337a746d7217b25119044d27d7e79dff33761bde8ac0063036f726401010a746578742f706c61696e00357b2270223a226272632d3230222c226f70223a226d696e74222c227469636b223a22646f6765222c22616d74223a2234323030227d68",
        "c0ac79d928abe6821efd99ee3337a746d7217b25119044d27d7e79dff33761bde8"
      ],
      "is_coinbase": false,
      "sequence": 4261412863
    }
  ],
  "vout": [
    {
      "scriptpubkey": "00147a665de7a370f4c9b372ab1fae587500a5bcbdb4",
      "scriptpubkey_asm": "OP_0 OP_PUSHBYTES_20 7a665de7a370f4c9b372ab1fae587500a5bcbdb4",
      "scriptpubkey_type": "v0_p2wpkh",
      "scriptpubkey_address": "bc1q0fn9mearwr6vnvmj4v06ukr4qzjme0d565dzcx",
      "value": 294
    }
  ],
  "size": 294,
  "weight": 540,
  "fee": 1512,
  "status": {
    "confirmed": true,
    "block_height": 834460,
    "block_hash": "00000000000000000000484a79b643b2524bbce82e5d8a442013fa5b8905ed98",
    "block_time": 1710307468
  },
  "hex": "02000000000101643321469295d0c73f0634e20c357937dd113ace04293f2a58cb9a8600bac3ac8400000000fffffffd0126010000000000001600147a665de7a370f4c9b372ab1fae587500a5bcbdb403400aaf8433fff2acaf71b90180e298907f8ce1cbba3b4dc4d20847616a5c0e7c553c5cc1149d872c6b73d21c7ee8cddca485ba44e25cb53afb76c3ad27627735236d20ac79d928abe6821efd99ee3337a746d7217b25119044d27d7e79dff33761bde8ac0063036f726401010a746578742f706c61696e00357b2270223a226272632d3230222c226f70223a226d696e74222c227469636b223a22646f6765222c22616d74223a2234323030227d6821c0ac79d928abe6821efd99ee3337a746d7217b25119044d27d7e79dff33761bde800000000"
}