{
  "txid": "2951bf02e2bd928f995391b37ac9bf9bf777d7bf4c8208968af57cb086111718",
  "version": 2,
  "locktime": 0,
  "vin": [
    {
      "txid": "abdcbb8bcefa0f088373ceda41a70fe1aeaa3823b969e1169e2a29269068d8dc",
      "vout": 3,
      "prevout": {
        "scriptpubkey": "5120984fff2851a78bb183e41be1e3158b43dc16b71c296965f8ffb4feacf994c335",
        "scriptpubkey_asm": "OP_PUSHNUM_1 OP_PUSHBYTES_32 984fff2851a78bb183e41be1e3158b43dc16b71c296965f8ffb4feacf994c335",
        "scriptpubkey_type": "v1_p2tr",
        "scriptpubkey_address": "bc1pnp8l72z3579mrqlyr0s7x9vtg0wpddcu995kt78lknl2e7v5cv6s5xxd2k",
        "value": 2522
      },
      "scriptsig": "",
      "scriptsig_asm": "",
      "witness": [
        "8d6db3b3a0b173a70fbe84be8c8cc2aa8eb66e9df6e4f0549ceaf3cdf2e994a6cb545a5bff78ea68aa6b4af3937055ed4be6491ea520b0d976aedada84a26c27",
        "20022f54a6c8b2ef0cbca3ce1c0208f3af125faf7a98e42223cf9ded5a1fd2c3bdac0063036f7264010118746578742f706c61696e3b636861727365743d7574662d3800387b2270223a226272632d3230222c226f70223a227472616e73666572222c227469636b223a226f726e6a222c22616d74223a22313030227d68",
        "c025dced391475af84759664675c16f5ed581b243a944241d7ee258c8cfb80c9db"
      ],
      "is_coinbase": false,
      "sequence": 4294967295
    }
  ],
  "vout": [
    {
      "scriptpubkey": "512060e7b9d91ee3091b65165528563dba11a47299520ea2fc67070ec6ac303fc05d",
      "scriptpubkey_asm": "OP_PUSHNUM_1 OP_PUSHBYTES_32 60e7b9d91ee3091b65165528563dba11a47299520ea2fc67070ec6ac303fc05d",
      "scriptpubkey_type": "v1_p2tr",
      "scriptpubkey_address": "bc1pvrnmnkg7uvy3kegk2559v0d6zxj89x2jp630cec8pmr2cvplcpwsn3pn79",
      "value": 546
    }
  ],
  "size": 323,
  "weight": 605,
  "fee": 1976,
  "status": {
    "confirmed": true,
    "block_height": 834460,
    "block_hash": "00000000000000000000484a79b643b2524bbce82e5d8a442013fa5b8905ed98",
    "block_time": 1710307468
  },
  "hex": "02000000000101dcd8689026292a9e16e169b92338aaaee10fa741dace7383080fface8bbbdcab0300000000ffffffff01220200000000000022512060e7b9d91ee3091b65165528563dba11a47299520ea2fc67070ec6ac303fc05d03408d6db3b3a0b173a70fbe84be8c8cc2aa8eb66e9df6e4f0549ceaf3cdf2e994a6cb545a5bff78ea68aa6b4af3937055ed4be6491ea520b0d976aedada84a26c277e20022f54a6c8b2ef0cbca3ce1c0208f3af125faf7a98e42223cf9ded5a1fd2c3bdac0063036f7264010118746578742f706c61696e3b636861727365743d7574662d3800387b2270223a226272632d3230222c226f70223a227472616e73666572222c227469636b223a226f726e6a222c22616d74223a22313030227d6821c025dced391475af84759664675c16f5ed581b243a944241d7ee258c8cfb80c9db00000000"
}