{
  "txid": "29669228da84ae0f0496bc10dd38cb220b42a2559e4ee289a646f610b6ffc47e",
  "version": 2,
  "locktime": 0,
  "vin": [
    {
      "txid": "4760ae9d6c9388b441d06a61b2afa4b0e5338ca2e9cb8c4b33a97f68471a3669",
      "vout": 0,
      "prevout": {
        "scriptpubkey": "5120a3cb7dca8900fb1064006e7f09a20b5b9ea1e18f15604929a156f07d7ccbbc94",
        "scriptpubkey_asm": "OP_PUSHNUM_1 OP_PUSHBYTES_32 a3cb7dca8900fb1064006e7f09a20b5b9ea1e18f15604929a156f07d7ccbbc94",
        "scriptpubkey_type": "v1_p2tr",
        "scriptpubkey_address": "bc1p509hmj5fqra3qeqqdelsngsttw02rcv0z4syj2dp2mc86lxthj2q36hnr3",
        "value": 600
      },
      "scriptsig": "",
      "scriptsig_asm": "",
      "witness": [
        "f31f6e087311fac90e60ca7c1f25b5aed7969a25900d595f43cd44c8bc2184b5acccb7cf7e477dae9eebd8fec45ddf59a103c08c4cb2fd0a94c55edbe777589c"
      ],
      "is_coinbase": false,
      "sequence": 4294967295
    },
    {
      "txid": "4760ae9d6c9388b441d06a61b2afa4b0e5338ca2e9cb8c4b33a97f68471a3669",
      "vout": 1,
      "prevout": {
        "scriptpubkey": "5120a3cb7dca8900fb1064006e7f09a20b5b9ea1e18f15604929a156f07d7ccbbc94",
        "scriptpubkey_asm": "OP_PUSHNUM_1 OP_PUSHBYTES_32 a3cb7dca8900fb1064006e7f09a20b5b9ea1e18f15604929a156f07d7ccbbc94",
        "scriptpubkey_type": "v1_p2tr",
        "scriptpubkey_address": "bc1p509hmj5fqra3qeqqdelsngsttw02rcv0z4syj2dp2mc86lxthj2q36hnr3",
        "value": 600
      },
      "scriptsig": "",
      "scriptsig_asm": "",
      "witness": [
        "1ced7149adf5c5412e4a6694f66f6f4215bc08ecaa124ed07a7f8872695c847b728c054634c417a4a5d94e9523ab2ccd1025ab0d57499cf647ad767844bbc9e0"
      ],
      "is_coinbase": false,
      "sequence": 4294967295
    },
    {
      "txid": "bc844493b3bf2b852107a570c7c2aed0c13100793cf43ee15cbea8c41ee7a3be",
      "vout": 0,
      "prevout": {
        "scriptpubkey": "5120c2ab692b4d7dcd7d1bffc132d0745904fd9182c4b4ae9c85293042ad73e02f5e",
        "scriptpubkey_asm": "OP_PUSHNUM_1 OP_PUSHBYTES_32 c2ab692b4d7dcd7d1bffc132d0745904fd9182c4b4ae9c85293042ad73e02f5e",
        "scriptpubkey_type": "v1_p2tr",
        "scriptpubkey_address": "bc1pc24kj26d0hxh6xllcyedqazeqn7erqkykjhfepffxpp26ulq9a0q8q8vht",
        "value": 1000
      },
      "scriptsig": "",
      "scriptsig_asm": "",
      "witness": [
        "1a85e54e0739d8a64a411e0c53d4346d095f3e6e28015d6d30ef002eba7089aa28c1d16dc4cc33f76853748cb3acb0dcf9efd0e7a70a08213e8a8d8f75ed795483"
      ],
      "is_coinbase": false,
      "sequence": 4294967295
    },
    {
      "txid": "4760ae9d6c9388b441d06a61b2afa4b0e5338ca2e9cb8c4b33a97f68471a3669",
      "vout": 2,
      "prevout": {
        "scriptpubkey": "5120a3cb7dca8900fb1064006e7f09a20b5b9ea1e18f15604929a156f07d7ccbbc94",
        "scriptpubkey_asm": "OP_PUSHNUM_1 OP_PUSHBYTES_32 a3cb7dca8900fb1064006e7f09a20b5b9ea1e18f15604929a156f07d7ccbbc94",
        "scriptpubkey_type": "v1_p2tr",
        "scriptpubkey_address": "bc1p509hmj5fqra3qeqqdelsngsttw02rcv0z4syj2dp2mc86lxthj2q36hnr3",
        "value": 36135
      },
      "scriptsig": "",
      "scriptsig_asm": "",
      "witness": [
        "de60263d72663671490a77a7c110817bf531b1664ac279ce7b3893fb4767a75cc26fbcc040d06af64297d93961f5f9b94081972035541f4534fed106a6baf57f"
      ],
      "is_coinbase": false,
      "sequence": 4294967295
    }
  ],
  "vout": [
    {
      "scriptpubkey": "5120a3cb7dca8900fb1064006e7f09a20b5b9ea1e18f15604929a156f07d7ccbbc94",
      "scriptpubkey_asm": "OP_PUSHNUM_1 OP_PUSHBYTES_32 a3cb7dca8900fb1064006e7f09a20b5b9ea1e18f15604929a156f07d7ccbbc94",
      "scriptpubkey_type": "v1_p2tr",
      "scriptpubkey_address": "bc1p509hmj5fqra3qeqqdelsngsttw02rcv0z4syj2dp2mc86lxthj2q36hnr3",
      "value": 1200
    },
    {
      "scriptpubkey": "5120a3cb7dca8900fb1064006e7f09a20b5b9ea1e18f15604929a156f07d7ccbbc94",
      "scriptpubkey_asm": "OP_PUSHNUM_1 OP_PUSHBYTES_32 a3cb7dca8900fb1064006e7f09a20b5b9ea1e18f15604929a156f07d7ccbbc94",
      "scriptpubkey_type": "v1_p2tr",
      "scriptpubkey_address": "bc1p509hmj5fqra3qeqqdelsngsttw02rcv0z4syj2dp2mc86lxthj2q36hnr3",
      "value": 1000
    },
    {
      "scriptpubkey": "5120c2ab692b4d7dcd7d1bffc132d0745904fd9182c4b4ae9c85293042ad73e02f5e",
      "scriptpubkey_asm": "OP_PUSHNUM_1 OP_PUSHBYTES_32 c2ab692b4d7dcd7d1bffc132d0745904fd9182c4b4ae9c85293042ad73e02f5e",
      "scriptpubkey_type": "v1_p2tr",
      "scriptpubkey_address": "bc1pc24kj26d0hxh6xllcyedqazeqn7erqkykjhfepffxpp26ulq9a0q8q8vht",
      "value": 30000
    },
    {
      "scriptpubkey": "5120a3cb7dca8900fb1064006e7f09a20b5b9ea1e18f15604929a156f07d7ccbbc94",
      "scriptpubkey_asm": "OP_PUSHNUM_1 OP_PUSHBYTES_32 a3cb7dca8900fb1064006e7f09a20b5b9ea1e18f15604929a156f07d7ccbbc94",
      "scriptpubkey_type": "v1_p2tr",
      "scriptpubkey_address": "bc1p509hmj5fqra3qeqqdelsngsttw02rcv0z4syj2dp2mc86lxthj2q36hnr3",
      "value": 600
    },
    {
      "scriptpubkey": "5120a3cb7dca8900fb1064006e7f09a20b5b9ea1e18f15604929a156f07d7ccbbc94",
      "scriptpubkey_asm": "OP_PUSHNUM_1 OP_PUSHBYTES_32 a3cb7dca8900fb1064006e7f09a20b5b9ea1e18f15604929a156f07d7ccbbc94",
      "scriptpubkey_type": "v1_p2tr",
      "scriptpubkey_address": "bc1p509hmj5fqra3qeqqdelsngsttw02rcv0z4syj2dp2mc86lxthj2q36hnr3",
      "value": 600
    }
  ],
  "size": 656,
  "weight": 1823,
  "fee": 4935,
  "status": {
    "confirmed": true,
    "block_height": 834464,
    "block_hash": "0000000000000000000177a0869a911a2b65c9bdcd5a8bcb02b68f305bee848e",
    "block_time": 1710308296
  },
  "hex": "0200000000010469361a47687fa9334b8ccbe9a28c33e5b0a4afb2616ad041b488936c9dae60470000000000ffffffff69361a47687fa9334b8ccbe9a28c33e5b0a4afb2616ad041b488936c9dae60470100000000ffffffffbea3e71ec4a8be5ce13ef43c790031c1d0aec2c770a50721852bbfb3934484bc0000000000ffffffff69361a47687fa9334b8ccbe9a28c33e5b0a4afb2616ad041b488936c9dae60470200000000ffffffff05b004000000000000225120a3cb7dca8900fb1064006e7f09a20b5b9ea1e18f15604929a156f07d7ccbbc94e803000000000000225120a3cb7dca8900fb1064006e7f09a20b5b9ea1e18f15604929a156f07d7ccbbc943075000000000000225120c2ab692b4d7dcd7d1bffc132d0745904fd9182c4b4ae9c85293042ad73e02f5e5802000000000000225120a3cb7dca8900fb1064006e7f09a20b5b9ea1e18f15604929a156f07d7ccbbc945802000000000000225120a3cb7dca8900fb1064006e7f09a20b5b9ea1e18f15604929a156f07d7ccbbc940140f31f6e087311fac90e60ca7c1f25b5aed7969a25900d595f43cd44c8bc2184b5acccb7cf7e477dae9eebd8fec45ddf59a103c08c4cb2fd0a94c55edbe777589c01401ced7149adf5c5412e4a6694f66f6f4215bc08ecaa124ed07a7f8872695c847b728c054634c417a4a5d94e9523ab2ccd1025ab0d57499cf647ad767844bbc9e001411a85e54e0739d8a64a411e0c53d4346d095f3e6e28015d6d30ef002eba7089aa28c1d16dc4cc33f76853748cb3acb0dcf9efd0e7a70a08213e8a8d8f75ed7954830140de60263d72663671490a77a7c110817bf531b1664ac279ce7b3893fb4767a75cc26fbcc040d06af64297d93961f5f9b94081972035541f4534fed106a6baf57f00000000"
}