{
  "txid": "297e076cd2263379b16a46e289afc44267427178ea501fa6d89c2543400016b1",
  "version": 2,
  "locktime": 834458,
  "vin": [
    {
      "txid": "eaa6bb29e1e14b7242daa599635df7bb930f02932552c80326aa50041e1fdc8a",
      "vout": 10,
      "prevout": {
        "scriptpubkey": "a9144ef9d5e209b4c6df0b0c8b40e35d697400fb2b5a87",
        "scriptpubkey_asm": "OP_HASH160 OP_PUSHBYTES_20 4ef9d5e209b4c6df0b0c8b40e35d697400fb2b5a OP_EQUAL",
        "scriptpubkey_type": "p2sh",
        "scriptpubkey_address": "38tbvNzeBSL4FQSoeikHRbzCJVCu94LzNs",
        "value": 299803
      },
      "scriptsig": "160014d257163fa76cc98da296981e04e27a98188df59d",
      "scriptsig_asm": "OP_PUSHBYTES_22 0014d257163fa76cc98da296981e04e27a98188df59d",
      "witness": [
        "30440220735fd1e624a2af704beace43324aa3afb917282bc4709d76af6b7b09ad8749cc0220434c31ef386df841a451c7b0b316306ee4802e50a2f490d315ae2456a66e36b701",
        "03668d02af04bc6ea033875248243af5f592f46d95afbd143a6f76327fb5a037ee"
      ],
      "is_coinbase": false,
      "sequence": 4294967293,
      "inner_redeemscript_asm": "OP_0 OP_PUSHBYTES_20 d257163fa76cc98da296981e04e27a98188df59d"
    },
    {
      "txid": "1825f3112131220972238aae46c2ca72f2b7baa1a6f9abb93caf0e291b119111",
      "vout": 0,
      "prevout": {
        "scriptpubkey": "a9147b977d32861a6f8a8fe0a9abf76327fafacd122e87",
        "scriptpubkey_asm": "OP_HASH160 OP_PUSHBYTES_20 7b977d32861a6f8a8fe0a9abf76327fafacd122e OP_EQUAL",
        "scriptpubkey_type": "p2sh",
        "scriptpubkey_address": "3CxWWnMV674MyDGoW8eFcTyTo84V1ChZZ8",
        "value": 6302
      },
      "scriptsig": "160014d9db2f706bc5919243297f4d47e0eed8dd6fd5f6",
      "scriptsig_asm": "OP_PUSHBYTES_22 0014d9db2f706bc5919243297f4d47e0eed8dd6fd5f6",
      "witness": [
        "304402206fbf6272b205d9fa47b12d0bca6eca0b4cad80f7e41c7641f9f291a6453e1dac02204f683aa1e07d61f2256f021aeaba1d09e9f92b2aa9d4868fd57a76ca903b4e2301",
        "0228ee1ce4a260b6db759c1b9f16696c89d69917237b97048d72d7a1c36295c232"
      ],
      "is_coinbase": false,
      "sequence": 4294967293,
      "inner_redeemscript_asm": "OP_0 OP_PUSHBYTES_20 d9db2f706bc5919243297f4d47e0eed8dd6fd5f6"
    },
    {
      "txid": "42837ae4d3f5610cefae68ee7fc80a5cca50bb077d42725e9ae6cb5bfdfdc5f4",
      "vout": 0,
      "prevout": {
        "scriptpubkey": "a914b8cfd94975e8478c54e2db2b290ea0d131ea229887",
        "scriptpubkey_asm": "OP_HASH160 OP_PUSHBYTES_20 b8cfd94975e8478c54e2db2b290ea0d131ea2298 OP_EQUAL",
        "scriptpubkey_type": "p2sh",
        "scriptpubkey_address": "3JYDFRhtyWZgog1KgsG1BMMa5CDKSrUFaR",
        "value": 8283
      },
      "scriptsig": "1600144594790410f6358f664aca9c2be38f41287cdece",
      "scriptsig_asm": "OP_PUSHBYTES_22 00144594790410f6358f664aca9c2be38f41287cdece",
      "witness": [
        "3044022029d9b00cc6db65a52ced689dd839ffe2c2b8b9932dd3b6542ee09355e34176f002207b1ef196347b4a61ef2e754f57df882d9d68e37cfa3241751089a9165db090db01",
        "03db56b6dc8a1a7814c5764da3859674b29035ba745ebcb5726b22641b20e15428"
      ],
      "is_coinbase": false,
      "sequence": 4294967293,
      "inner_redeemscript_asm": "OP_0 OP_PUSHBYTES_20 4594790410f6358f664aca9c2be38f41287cdece"
    },
    {
      "txid": "746daf11856f539dfe7b34628fbe60de1d1814e452760e952e9a64c8ca358a17",
      "vout": 0,
      "prevout": {
        "scriptpubkey": "a914e38ecf2e9642da9b21ffefc28876a6a6359d5a3387",
        "scriptpubkey_asm": "OP_HASH160 OP_PUSHBYTES_20 e38ecf2e9642da9b21ffefc28876a6a6359d5a33 OP_EQUAL",
        "scriptpubkey_type": "p2sh",
        "scriptpubkey_address": "3NSEPesHuuymvV7qAUXkoW911xVdB4Nm6F",
        "value": 5779
      },
      "scriptsig": "160014236b95d8befef83f0c0c29da5cd62e2241e3e40b",
      "scriptsig_asm": "OP_PUSHBYTES_22 0014236b95d8befef83f0c0c29da5cd62e2241e3e40b",
      "witness": [
        "304402200940ed22e090c73b00d4c8a76f1659d74fdf091a0446c0b891fd672714aca2790220581cf532ed78ff79e75431d5acd0d6690d88de08cb83280eec6be87f18bb15e601",
        "03fb6dd8eb203c6d2ac68afee046805948b96030deeb06b22f0bb44b087876c51f"
      ],
      "is_coinbase": false,
      "sequence": 4294967293,
      "inner_redeemscript_asm": "OP_0 OP_PUSHBYTES_20 236b95d8befef83f0c0c29da5cd62e2241e3e40b"
    },
    {
      "txid": "d0f7be56b43c3313fe3cc8939fefbbaf5f3b8338641e4e9935c3fa54f032bd34",
      "vout": 0,
      "prevout": {
        "scriptpubkey": "a91411600b63f38c379f94b6618fe98d1711a0d2f3ec87",
        "scriptpubkey_asm": "OP_HASH160 OP_PUSHBYTES_20 11600b63f38c379f94b6618fe98d1711a0d2f3ec OP_EQUAL",
        "scriptpubkey_type": "p2sh",
        "scriptpubkey_address": "33GtU6N6yuWPwVNsiCg8JG7XLBHK4FkvWk",
        "value": 13685
      },
      "scriptsig": "160014ee76891dd6310010d0d5a5dd98aad7c6cc01029e",
      "scriptsig_asm": "OP_PUSHBYTES_22 0014ee76891dd6310010d0d5a5dd98aad7c6cc01029e",
      "witness": [
        "304402204f56cdb8a693a807aaa95282951a1640eebcc4d28e5b428056a03a2d3ce9ffc80220572e3ca04d12501ef5d9c7a674a9a062a632a729bce5dd44c1eed5ffdc8865dc01",
        "029f45ad6fbcad70efe507b314a3b7c8fd98674db58603ea4e7f30e4cbaaffcf9f"
      ],
      "is_coinbase": false,
      "sequence": 4294967293,
      "inner_redeemscript_asm": "OP_0 OP_PUSHBYTES_20 ee76891dd6310010d0d5a5dd98aad7c6cc01029e"
    },
    {
      "txid": "72b66e5ba5e41a96d82834aafa590f49328b7863a9fa4541114a5cdf7846291a",
      "vout": 0,
      "prevout": {
        "scriptpubkey": "a9148b78c464c238f05013dca12fd932dab0e946595c87",
        "scriptpubkey_asm": "OP_HASH160 OP_PUSHBYTES_20 8b78c464c238f05013dca12fd932dab0e946595c OP_EQUAL",
        "scriptpubkey_type": "p2sh",
        "scriptpubkey_address": "3EQUXFuGkp2E6SQPXeN8TXk7aZYNV1ZJJK",
        "value": 4217
      },
      "scriptsig": "1600140c81422ffbef76af50412f18b69d5230b65c5f7b",
      "scriptsig_asm": "OP_PUSHBYTES_22 00140c81422ffbef76af50412f18b69d5230b65c5f7b",
      "witness": [
        "304402202d3e9323347c64d17ec83d04fc56b6723d9ab22018953f0c09b197c4084e4b7202204eb6fe0a0ff96ea4d9e32a542a85f3a3e56fa96467efd008f1fdbdf3b1da92ee01",
        "034a843bfbdc25115cf176c8b66e2c60526d72779d1f30d5347cf2047ba720ab26"
      ],
      "is_coinbase": false,
      "sequence": 4294967293,
      "inner_redeemscript_asm": "OP_0 OP_PUSHBYTES_20 0c81422ffbef76af50412f18b69d5230b65c5f7b"
    },
    {
      "txid": "b4cc15833f9c738ad9870bab7f7e25939ae932563b63af67fed9c5f24fd2eee5",
      "vout": 1,
      "prevout": {
        "scriptpubkey": "a9144a7c3775a877f239b11ed8caa992f872ad3b452587",
        "scriptpubkey_asm": "OP_HASH160 OP_PUSHBYTES_20 4a7c3775a877f239b11ed8caa992f872ad3b4525 OP_EQUAL",
        "scriptpubkey_type": "p2sh",
        "scriptpubkey_address": "38UrjTnRLGajXLQsGkfFSx4CkT5fpDfXGW",
        "value": 170215
      },
      "scriptsig": "160014e449a3196d738d95051240a14cecc92b1c0b3a25",
      "scriptsig_asm": "OP_PUSHBYTES_22 0014e449a3196d738d95051240a14cecc92b1c0b3a25",
      "witness": [
        "304402202bfe2e2caef7cc2018ab0bb266031b582adf3d6a1c116d8302cff63a70b1958c0220507a360ee3ae180ebdf1b6b8983cb54993df61963fb82161aeeef429f08d61a601",
        "02a8d63bd2f19ceddf813c117c7377c909a710f860c21db8c870fca3c8ffd2e123"
      ],
      "is_coinbase": false,
      "sequence": 4294967293,
      "inner_redeemscript_asm": "OP_0 OP_PUSHBYTES_20 e449a3196d738d95051240a14cecc92b1c0b3a25"
    },
    {
      "txid": "8e6b6549648ac6d2efe9fabe79c3b190e089060463d6822906c972959474e4b9",
      "vout": 1,
      "prevout": {
        "scriptpubkey": "a9147f8c28705f905f2e1dbf1c2c9b32b13cb7abd21787",
        "scriptpubkey_asm": "OP_HASH160 OP_PUSHBYTES_20 7f8c28705f905f2e1dbf1c2c9b32b13cb7abd217 OP_EQUAL",
        "scriptpubkey_type": "p2sh",
        "scriptpubkey_address": "3DKReFb5qMGLYErC8hyGBQcoEqX5RvDAJC",
        "value": 164023
      },
      "scriptsig": "160014cc7aadfd8bbef877111504868739ef118c81fc56",
      "scriptsig_asm": "OP_PUSHBYTES_22 0014cc7aadfd8bbef877111504868739ef118c81fc56",
      "witness": [
        "30440220091d377644c61e42468cfae663e34dd8d64912c19d95cd6fde4781a8ae65f5e7022030f0ba329f971ad0dc451f111518d0ca987963188e0ae1988c5e8a8e996e9fe301",
        "0255193c7d51ed3ac716ef54c07463bab4cb6d02b95b22318ba29c05f9a053a40e"
      ],
      "is_coinbase": false,
      "sequence": 4294967293,
      "inner_redeemscript_asm": "OP_0 OP_PUSHBYTES_20 cc7aadfd8bbef877111504868739ef118c81fc56"
    }
  ],
  "vout": [
    {
      "scriptpubkey": "0014e1425f573b1aba1de142fb630234b0da7529fb0d",
      "scriptpubkey_asm": "OP_0 OP_PUSHBYTES_20 e1425f573b1aba1de142fb630234b0da7529fb0d",
      "scriptpubkey_type": "v0_p2wpkh",
      "scriptpubkey_address": "bc1qu9p974emr2apmc2zld3syd9smf6jn7cdw5t895",
      "value": 119540
    },
    {
      "scriptpubkey": "001448f2901c97c348614a2e41719452f24d8db5985d",
      "scriptpubkey_asm": "OP_0 OP_PUSHBYTES_20 48f2901c97c348614a2e41719452f24d8db5985d",
      "scriptpubkey_type": "v0_p2wpkh",
      "scriptpubkey_address": "bc1qfrefq8yhcdyxzj3wg9ceg5hjfkxmtxzawtvl8c",
      "value": 41080
    },
    {
      "scriptpubkey": "001475d14ee65b33a2b395557cb92b81eccf7a35b31d",
      "scriptpubkey_asm": "OP_0 OP_PUSHBYTES_20 75d14ee65b33a2b395557cb92b81eccf7a35b31d",
      "scriptpubkey_type": "v0_p2wpkh",
      "scriptpubkey_address": "bc1qwhg5aejmxw3t89240jujhq0veaartvcaqjmx2f",
      "value": 55060
    },
    {
      "scriptpubkey": "0014dee6fb543d1dc4370068f3903632e31e64ef9c7b",
      "scriptpubkey_asm": "OP_0 OP_PUSHBYTES_20 dee6fb543d1dc4370068f3903632e31e64ef9c7b",
      "scriptpubkey_type": "v0_p2wpkh",
      "scriptpubkey_address": "bc1qmmn0k4parhzrwqrg7wgrvvhrrejwl8rm9nx00q",
      "value": 73880
    },
    {
      "scriptpubkey": "001478786558623c7f8546639726abd56f6c8974de3d",
      "scriptpubkey_asm": "OP_0 OP_PUSHBYTES_20 78786558623c7f8546639726abd56f6c8974de3d",
      "scriptpubkey_type": "v0_p2wpkh",
      "scriptpubkey_address": "bc1q0pux2krz83lc23nrjun2h4t0djyhfh3arzjpue",
      "value": 2780
    },
    {
      "scriptpubkey": "0014e3292951d78090eb9c30cfe518b5da12f663776a",
      "scriptpubkey_asm": "OP_0 OP_PUSHBYTES_20 e3292951d78090eb9c30cfe518b5da12f663776a",
      "scriptpubkey_type": "v0_p2wpkh",
      "scriptpubkey_address": "bc1quv5jj5whszgwh8pselj33dw6ztmxxam2xz9x7z",
      "value": 15180
    },
    {
      "scriptpubkey": "00147ed99f03f7a2342e06b0cca1b7ae744c116ccb71",
      "scriptpubkey_asm": "OP_0 OP_PUSHBYTES_20 7ed99f03f7a2342e06b0cca1b7ae744c116ccb71",
      "scriptpubkey_type": "v0_p2wpkh",
      "scriptpubkey_address": "bc1q0mve7qlh5g6zup4sejsm0tn5fsgkejm3kjlcrj",
      "value": 325360
    },
    {
      "scriptpubkey": "0014e13b1a1eb704c2a807a1749bb5dbc4cdfd6e00de",
      "scriptpubkey_asm": "OP_0 OP_PUSHBYTES_20 e13b1a1eb704c2a807a1749bb5dbc4cdfd6e00de",
      "scriptpubkey_type": "v0_p2wpkh",
      "scriptpubkey_address": "bc1quya3584hqnp2spapwjdmtk7yeh7kuqx7hy6can",
      "value": 27580
    }
  ],
  "size": 1628,
  "weight": 3938,
  "fee": 11847,
  "status": {
    "confirmed": true,
    "block_height": 834460,
    "block_hash": "00000000000000000000484a79b643b2524bbce82e5d8a442013fa5b8905ed98",
    "block_time": 1710307468
  },
  "hex": "020000000001088adc1f1e0450aa2603c8522593020f93bbf75d6399a5da42724be1e129bba6ea0a00000017160014d257163fa76cc98da296981e04e27a98188df59dfdffffff1191111b290eaf3cb9abf9a6a1bab7f272cac246ae8a23720922312111f325180000000017160014d9db2f706bc5919243297f4d47e0eed8dd6fd5f6fdfffffff4c5fdfd5bcbe69a5e72427d07bb50ca5c0ac87fee68aeef0c61f5d3e47a834200000000171600144594790410f6358f664aca9c2be38f41287cdecefdffffff178a35cac8649a2e950e7652e414181dde60be8f62347bfe9d536f8511af6d740000000017160014236b95d8befef83f0c0c29da5cd62e2241e3e40bfdffffff34bd32f054fac335994e1e6438833b5fafbbef9f93c83cfe13333cb456bef7d00000000017160014ee76891dd6310010d0d5a5dd98aad7c6cc01029efdffffff1a294678df5c4a114145faa963788b32490f59faaa3428d8961ae4a55b6eb67200000000171600140c81422ffbef76af50412f18b69d5230b65c5f7bfdffffffe5eed24ff2c5d9fe67af633b5632e99a93257e7fab0b87d98a739c3f8315ccb40100000017160014e449a3196d738d95051240a14cecc92b1c0b3a25fdffffffb9e474949572c9062982d663040689e090b1c379befae9efd2c68a6449656b8e0100000017160014cc7aadfd8bbef877111504868739ef118c81fc56fdffffff08f4d2010000000000160014e1425f573b1aba1de142fb630234b0da7529fb0d78a000000000000016001448f2901c97c348614a2e41719452f24d8db5985d14d700000000000016001475d14ee65b33a2b395557cb92b81eccf7a35b31d9820010000000000160014dee6fb543d1dc4370068f3903632e31e64ef9c7bdc0a00000000000016001478786558623c7f8546639726abd56f6c8974de3d4c3b000000000000160014e3292951d78090eb9c30cfe518b5da12f663776af0f60400000000001600147ed99f03f7a2342e06b0cca1b7ae744c116ccb71bc6b000000000000160014e13b1a1eb704c2a807a1749bb5dbc4cdfd6e00de024730440220735fd1e624a2af704beace43324aa3afb917282bc4709d76af6b7b09ad8749cc0220434c31ef386df841a451c7b0b316306ee4802e50a2f490d315ae2456a66e36b7012103668d02af04bc6ea033875248243af5f592f46d95afbd143a6f76327fb5a037ee0247304402206fbf6272b205d9fa47b12d0bca6eca0b4cad80f7e41c7641f9f291a6453e1dac02204f683aa1e07d61f2256f021aeaba1d09e9f92b2aa9d4868fd57a76ca903b4e2301210228ee1ce4a260b6db759c1b9f16696c89d69917237b97048d72d7a1c36295c23202473044022029d9b00cc6db65a52ced689dd839ffe2c2b8b9932dd3b6542ee09355e34176f002207b1ef196347b4a61ef2e754f57df882d9d68e37cfa3241751089a9165db090db012103db56b6dc8a1a7814c5764da3859674b29035ba745ebcb5726b22641b20e154280247304402200940ed22e090c73b00d4c8a76f1659d74fdf091a0446c0b891fd672714aca2790220581cf532ed78ff79e75431d5acd0d6690d88de08cb83280eec6be87f18bb15e6012103fb6dd8eb203c6d2ac68afee046805948b96030deeb06b22f0bb44b087876c51f0247304402204f56cdb8a693a807aaa95282951a1640eebcc4d28e5b428056a03a2d3ce9ffc80220572e3ca04d12501ef5d9c7a674a9a062a632a729bce5dd44c1eed5ffdc8865dc0121029f45ad6fbcad70efe507b314a3b7c8fd98674db58603ea4e7f30e4cbaaffcf9f0247304402202d3e9323347c64d17ec83d04fc56b6723d9ab22018953f0c09b197c4084e4b7202204eb6fe0a0ff96ea4d9e32a542a85f3a3e56fa96467efd008f1fdbdf3b1da92ee0121034a843bfbdc25115cf176c8b66e2c60526d72779d1f30d5347cf2047ba720ab260247304402202bfe2e2caef7cc2018ab0bb266031b582adf3d6a1c116d8302cff63a70b1958c0220507a360ee3ae180ebdf1b6b8983cb54993df61963fb82161aeeef429f08d61a6012102a8d63bd2f19ceddf813c117c7377c909a710f860c21db8c870fca3c8ffd2e123024730440220091d377644c61e42468cfae663e34dd8d64912c19d95cd6fde4781a8ae65f5e7022030f0ba329f971ad0dc451f111518d0ca987963188e0ae1988c5e8a8e996e9fe301210255193c7d51ed3ac716ef54c07463bab4cb6d02b95b22318ba29c05f9a053a40e9abb0c00"
}