{
  "txid": "298ef9d30184ef7324454cd741a30e4cf7534f2a6c85b19763fec7dea0126178",
  "version": 2,
  "locktime": 0,
  "vin": [
    {
      "txid": "d63e5aa48b96bcc0d1a5d9296fc77c637d20bf1de5b4fb102c8bb0bfda46774e",
      "vout": 0,
      "prevout": {
        "scriptpubkey": "0014015f524f21a6d8e0c8cdf9338467814294dd9fbb",
        "scriptpubkey_asm": "OP_0 OP_PUSHBYTES_20 015f524f21a6d8e0c8cdf9338467814294dd9fbb",
        "scriptpubkey_type": "v0_p2wpkh",
        "scriptpubkey_address": "bc1qq904ynep5mvwpjxdlyecgeupg22dm8am6cfvgq",
        "value": 86348756
      },
      "scriptsig": "",
      "scriptsig_asm": "",
      "witness": [
        "3045022100a875fdddf0d2da6a651cd98b4e54ebb1dca1514a1422227243be6c266645897c022012fca599de45b7b46f15bb40e8aeaef2f9cfb25b01ba408fc8d8b75881dfc82401",
        "03e0ebb9dd2a9314f16c76a0c68ea4dd2355033f95a3294b01eaf1f6aa1aaaa3fd"
      ],
      "is_coinbase": false,
      "sequence": 4294967280
    }
  ],
  "vout": [
    {
      "scriptpubkey": "0014015f524f21a6d8e0c8cdf9338467814294dd9fbb",
      "scriptpubkey_asm": "OP_0 OP_PUSHBYTES_20 015f524f21a6d8e0c8cdf9338467814294dd9fbb",
      "scriptpubkey_type": "v0_p2wpkh",
      "scriptpubkey_address": "bc1qq904ynep5mvwpjxdlyecgeupg22dm8am6cfvgq",
      "value": 85620589
    },
    {
      "scriptpubkey": "0014e2ea8312702ee50b9eef33aec050b6c6c7e14ae9",
      "scriptpubkey_asm": "OP_0 OP_PUSHBYTES_20 e2ea8312702ee50b9eef33aec050b6c6c7e14ae9",
      "scriptpubkey_type": "v0_p2wpkh",
      "scriptpubkey_address": "bc1qut4gxyns9mjsh8h0xwhvq59kcmr7zjhfe3z0c0",
      "value": 400000
    },
    {
      "scriptpubkey": "a9140cd0dfaa7e3ad36e4252c193894373e3ae69aab387",
      "scriptpubkey_asm": "OP_HASH160 OP_PUSHBYTES_20 0cd0dfaa7e3ad36e4252c193894373e3ae69aab3 OP_EQUAL",
      "scriptpubkey_type": "p2sh",
      "scriptpubkey_address": "32rnFeLKt8AYCHKdcPRpWpgHuSac8HMx4X",
      "value": 300000
    },
    {
      "scriptpubkey": "001466c1eca94c3fa212fdfc5acd1c0a419dae0020e9",
      "scriptpubkey_asm": "OP_0 OP_PUSHBYTES_20 66c1eca94c3fa212fdfc5acd1c0a419dae0020e9",
      "scriptpubkey_type": "v0_p2wpkh",
      "scriptpubkey_address": "bc1qvmq7e22v873p9l0uttx3czjpnkhqqg8fnd3gxp",
      "value": 19191
    }
  ],
  "size": 286,
  "weight": 814,
  "fee": 8976,
  "status": {
    "confirmed": true,
    "block_height": 834638,
    "block_hash": "000000000000000000025f742c626208ac87e0b7d15054abb4a19ca2d735a54e",
    "block_time": 1710405325
  },
  "hex": "020000000001014e7746dabfb08b2c10fbb4e51dbf207d637cc76f29d9a5d1c0bc968ba45a3ed60000000000f0ffffff046d771a0500000000160014015f524f21a6d8e0c8cdf9338467814294dd9fbb801a060000000000160014e2ea8312702ee50b9eef33aec050b6c6c7e14ae9e09304000000000017a9140cd0dfaa7e3ad36e4252c193894373e3ae69aab387f74a00000000000016001466c1eca94c3fa212fdfc5acd1c0a419dae0020e902483045022100a875fdddf0d2da6a651cd98b4e54ebb1dca1514a1422227243be6c266645897c022012fca599de45b7b46f15bb40e8aeaef2f9cfb25b01ba408fc8d8b75881dfc824012103e0ebb9dd2a9314f16c76a0c68ea4dd2355033f95a3294b01eaf1f6aa1aaaa3fd00000000"
}