{
  "txid": "29a21710d9356373534d3b5ac515c0f52a2d9ae58068781fecbeee46bd5e3130",
  "version": 1,
  "locktime": 0,
  "vin": [
    {
      "txid": "7d68da74c9eef8938d7e17d09965b73b3a097fd87d34862ffc0f60737d807286",
      "vout": 0,
      "prevout": {
        "scriptpubkey": "0014d38ca0e012b540f1319d0d1e1ae85f2bbdaaf22e",
        "scriptpubkey_asm": "OP_0 OP_PUSHBYTES_20 d38ca0e012b540f1319d0d1e1ae85f2bbdaaf22e",
        "scriptpubkey_type": "v0_p2wpkh",
        "scriptpubkey_address": "bc1q6wx2pcqjk4q0zvvap50p46zl9w764u3wjmu50c",
        "value": 340500
      },
      "scriptsig": "",
      "scriptsig_asm": "",
      "witness": [
        "304402203a20b77c8426fda8c08315c14e5bf20bb842cd283f9c40f6892792461eaf665002200a6d2f496fcbca1892f3e042a244a3e1365cbf5c3c037c077119640da1be4aac01",
        "02f33a5e8f76515ca5781f083fe9cdc768eedbcbc1b983807e960338401128cdc9"
      ],
      "is_coinbase": false,
      "sequence": 4294967295
    }
  ],
  "vout": [
    {
      "scriptpubkey": "a91434e5aae8cb72a96d07dee8a827631795f0e7691387",
      "scriptpubkey_asm": "OP_HASH160 OP_PUSHBYTES_20 34e5aae8cb72a96d07dee8a827631795f0e76913 OP_EQUAL",
      "scriptpubkey_type": "p2sh",
      "scriptpubkey_address": "36WiC71z9fyCNBwUd7gjiaHiDPexF27Fac",
      "value": 136163
    },
    {
      "scriptpubkey": "0014d38ca0e012b540f1319d0d1e1ae85f2bbdaaf22e",
      "scriptpubkey_asm": "OP_0 OP_PUSHBYTES_20 d38ca0e012b540f1319d0d1e1ae85f2bbdaaf22e",
      "scriptpubkey_type": "v0_p2wpkh",
      "scriptpubkey_address": "bc1q6wx2pcqjk4q0zvvap50p46zl9w764u3wjmu50c",
      "value": 200503
    }
  ],
  "size": 223,
  "weight": 565,
  "fee": 3834,
  "status": {
    "confirmed": true,
    "block_height": 834638,
    "block_hash": "000000000000000000025f742c626208ac87e0b7d15054abb4a19ca2d735a54e",
    "block_time": 1710405325
  },
  "hex": "010000000001018672807d73600ffc2f86347dd87f093a3bb76599d0177e8d93f8eec974da687d0000000000ffffffff02e31302000000000017a91434e5aae8cb72a96d07dee8a827631795f0e7691387370f030000000000160014d38ca0e012b540f1319d0d1e1ae85f2bbdaaf22e0247304402203a20b77c8426fda8c08315c14e5bf20bb842cd283f9c40f6892792461eaf665002200a6d2f496fcbca1892f3e042a244a3e1365cbf5c3c037c077119640da1be4aac012102f33a5e8f76515ca5781f083fe9cdc768eedbcbc1b983807e960338401128cdc900000000"
}