{
  "txid": "29aabdcec34d19c0ad54a62c32dea3df1d2c30cce5161abfdf77ad04333414fb",
  "version": 2,
  "locktime": 0,
  "vin": [
    {
      "txid": "8564b8d6a3a16b00c0e986c0fa030b5d14876d5d4a4ea696885e524b5bae5bbc",
      "vout": 0,
      "prevout": {
        "scriptpubkey": "512018f54727f59d2a4eab39f168e4bae343bfab79789a9ef8656a6f0b2a36b7dfea",
        "scriptpubkey_asm": "OP_PUSHNUM_1 OP_PUSHBYTES_32 18f54727f59d2a4eab39f168e4bae343bfab79789a9ef8656a6f0b2a36b7dfea",
        "scriptpubkey_type": "v1_p2tr",
        "scriptpubkey_address": "bc1prr65wfl4n54ya2ee795wfwhrgwl6k7tcn200set2du9j5d4hml4qhqhmkx",
        "value": 4000
      },
      "scriptsig": "",
      "scriptsig_asm": "",
      "witness": [
        "76c3a071b9051b495862abb2c3b3774251f73961dd3d067ad4827337ca8ab8e085bdacd72526f9e0ac94b6f289a9bc18aba5f59b7a41fe02d2b306b440e5d853",
        "207b9cd2f1a4d2dd55910af78ade8bb47a68db43e263b939ed57c2f4ab0483fac0ac0063036f7264010118746578742f706c61696e3b636861727365743d7574662d3800387b2270223a226272632d3230222c226f70223a227472616e73666572222c227469636b223a22686f7478222c22616d74223a22373230227d68",
        "c0618c97177726620550b24b34af89b3a86f262bb1d0b0e19e08483cab356f7609"
      ],
      "is_coinbase": false,
      "sequence": 4294967293
    }
  ],
  "vout": [
    {
      "scriptpubkey": "512098f8eac4004bc7cf3453bfb0e3aee939fc511bde7f58e465b134ac7d13795435",
      "scriptpubkey_asm": "OP_PUSHNUM_1 OP_PUSHBYTES_32 98f8eac4004bc7cf3453bfb0e3aee939fc511bde7f58e465b134ac7d13795435",
      "scriptpubkey_type": "v1_p2tr",
      "scriptpubkey_address": "bc1pnruw43qqf0ru7dznh7cw8thf8879zx770avwged3xjk86yme2s6sxhsgqh",
      "value": 330
    },
    {
      "scriptpubkey": "0014dd0f299c9e92c1be3759c794afdcdc9a4637bf5f",
      "scriptpubkey_asm": "OP_0 OP_PUSHBYTES_20 dd0f299c9e92c1be3759c794afdcdc9a4637bf5f",
      "scriptpubkey_type": "v0_p2wpkh",
      "scriptpubkey_address": "bc1qm58jn8y7jtqmud6ec722lhxunfrr006l039rn4",
      "value": 1291
    }
  ],
  "size": 354,
  "weight": 729,
  "fee": 2379,
  "status": {
    "confirmed": true,
    "block_height": 834464,
    "block_hash": "0000000000000000000177a0869a911a2b65c9bdcd5a8bcb02b68f305bee848e",
    "block_time": 1710308296
  },
  "hex": "02000000000101bc5bae5b4b525e8896a64e4a5d6d87145d0b03fac086e9c0006ba1a3d6b864850000000000fdffffff024a0100000000000022512098f8eac4004bc7cf3453bfb0e3aee939fc511bde7f58e465b134ac7d137954350b05000000000000160014dd0f299c9e92c1be3759c794afdcdc9a4637bf5f034076c3a071b9051b495862abb2c3b3774251f73961dd3d067ad4827337ca8ab8e085bdacd72526f9e0ac94b6f289a9bc18aba5f59b7a41fe02d2b306b440e5d8537e207b9cd2f1a4d2dd55910af78ade8bb47a68db43e263b939ed57c2f4ab0483fac0ac0063036f7264010118746578742f706c61696e3b636861727365743d7574662d3800387b2270223a226272632d3230222c226f70223a227472616e73666572222c227469636b223a22686f7478222c22616d74223a22373230227d6821c0618c97177726620550b24b34af89b3a86f262bb1d0b0e19e08483cab356f760900000000"
}