{
  "txid": "29b4f96ec2fb7f49cb1f234994f924906bee5d551d353c3612ff306e880a67c8",
  "version": 1,
  "locktime": 0,
  "vin": [
    {
      "txid": "888888888a001cc6b58c7b734783a664cbd85faa2a74e9b54c181782fe5f3298",
      "vout": 0,
      "prevout": {
        "scriptpubkey": "51207d70b5636adf533a62e9404c419780d2241eb7028d43dfa9c45c44ff592d54bc",
        "scriptpubkey_asm": "OP_PUSHNUM_1 OP_PUSHBYTES_32 7d70b5636adf533a62e9404c419780d2241eb7028d43dfa9c45c44ff592d54bc",
        "scriptpubkey_type": "v1_p2tr",
        "scriptpubkey_address": "bc1p04ct2cm2mafn5chfgpxyr9uq6gjpadcz34pal2wyt3z07kfd2j7qz488t9",
        "value": 11923
      },
      "scriptsig": "",
      "scriptsig_asm": "",
      "witness": [
        "a088e49cbc0041c75ba1f9427f691b16ded073b3f8091888b003c928b99f727c9d54e7044fd2a5f8701f677ed4e472326394f76e899c7a0aade714488090d832",
        "20e7d104cc147353819cbf8c2350272c8e4e6665b5892f94acee747375027d1c5aac00630461746f6d03646d7446a16461726773a46474696d651a65f13596656e6f6e63651a0001000468626974776f726b636b3838383838383838382e386b6d696e745f7469636b657268696e66696e69747968",
        "c0e7d104cc147353819cbf8c2350272c8e4e6665b5892f94acee747375027d1c5a"
      ],
      "is_coinbase": false,
      "sequence": 4294967295
    }
  ],
  "vout": [
    {
      "scriptpubkey": "5120ee5d73a166b5fcf6fb0e22e1428770d9455bcd536c28912b437450303ef41201",
      "scriptpubkey_asm": "OP_PUSHNUM_1 OP_PUSHBYTES_32 ee5d73a166b5fcf6fb0e22e1428770d9455bcd536c28912b437450303ef41201",
      "scriptpubkey_type": "v1_p2tr",
      "scriptpubkey_address": "bc1paewh8gtxkh70d7cwyts59pmsm9z4hn2nds5fz26rw3grq0h5zgqsmngref",
      "value": 9999
    }
  ],
  "size": 314,
  "weight": 596,
  "fee": 1924,
  "status": {
    "confirmed": true,
    "block_height": 834460,
    "block_hash": "00000000000000000000484a79b643b2524bbce82e5d8a442013fa5b8905ed98",
    "block_time": 1710307468
  },
  "hex": "0100000000010198325ffe8217184cb5e9742aaa5fd8cb64a68347737b8cb5c61c008a888888880000000000ffffffff010f27000000000000225120ee5d73a166b5fcf6fb0e22e1428770d9455bcd536c28912b437450303ef412010340a088e49cbc0041c75ba1f9427f691b16ded073b3f8091888b003c928b99f727c9d54e7044fd2a5f8701f677ed4e472326394f76e899c7a0aade714488090d8327520e7d104cc147353819cbf8c2350272c8e4e6665b5892f94acee747375027d1c5aac00630461746f6d03646d7446a16461726773a46474696d651a65f13596656e6f6e63651a0001000468626974776f726b636b3838383838383838382e386b6d696e745f7469636b657268696e66696e6974796821c0e7d104cc147353819cbf8c2350272c8e4e6665b5892f94acee747375027d1c5a00000000"
}