{
  "txid": "29c563858081e8b6c8143ce5611fdd6ea5a523bea18cff94f8bc3c0310c8707a",
  "version": 1,
  "locktime": 0,
  "vin": [
    {
      "txid": "a2dee365d7ba78ec2f47e4e63b8c29827244a36312e4132620ca558cb529c9c4",
      "vout": 1,
      "prevout": {
        "scriptpubkey": "0014f7122fb0e14191aaa45c63a2bbc344cd9a0e15ad",
        "scriptpubkey_asm": "OP_0 OP_PUSHBYTES_20 f7122fb0e14191aaa45c63a2bbc344cd9a0e15ad",
        "scriptpubkey_type": "v0_p2wpkh",
        "scriptpubkey_address": "bc1q7ufzlv8pgxg64fzuvw3ths6yekdqu9ddw9jhpg",
        "value": 4738845
      },
      "scriptsig": "",
      "scriptsig_asm": "",
      "witness": [
        "3045022100d350c037328e530263b49b9b3bdcc3760bd210fa3bdec83eeb95b75677c4f75202202a7940a60a8ae20530d3e58288f7e03a502457266c7ac8b26060c58a01eda75301",
        "02140b97bae98fe062bf5fd6c04cead9305c5ba996bdb9c2aa0f236f5f54b8e5a9"
      ],
      "is_coinbase": false,
      "sequence": 4294967293
    }
  ],
  "vout": [
    {
      "scriptpubkey": "00143779f9e39bc42ccbda3a88085c38b92d09354ff9",
      "scriptpubkey_asm": "OP_0 OP_PUSHBYTES_20 3779f9e39bc42ccbda3a88085c38b92d09354ff9",
      "scriptpubkey_type": "v0_p2wpkh",
      "scriptpubkey_address": "bc1qxaulncumcskvhk363qy9cw9e95yn2nle6vh29m",
      "value": 68522
    },
    {
      "scriptpubkey": "0014a8495d1b759c1a3604b017fae1410c3ecfd9c29e",
      "scriptpubkey_asm": "OP_0 OP_PUSHBYTES_20 a8495d1b759c1a3604b017fae1410c3ecfd9c29e",
      "scriptpubkey_type": "v0_p2wpkh",
      "scriptpubkey_address": "bc1q4py46xm4nsdrvp9szlawzsgv8m8ans57t5xuc3",
      "value": 4666093
    }
  ],
  "size": 223,
  "weight": 562,
  "fee": 4230,
  "status": {
    "confirmed": true,
    "block_height": 834552,
    "block_hash": "00000000000000000001dd0468a70c94f619251d286585cff57aeb4bd9ede330",
    "block_time": 1710355598
  },
  "hex": "01000000000101c4c929b58c55ca202613e41263a3447282298c3be6e4472fec78bad765e3dea20100000000fdffffff02aa0b0100000000001600143779f9e39bc42ccbda3a88085c38b92d09354ff9ed32470000000000160014a8495d1b759c1a3604b017fae1410c3ecfd9c29e02483045022100d350c037328e530263b49b9b3bdcc3760bd210fa3bdec83eeb95b75677c4f75202202a7940a60a8ae20530d3e58288f7e03a502457266c7ac8b26060c58a01eda753012102140b97bae98fe062bf5fd6c04cead9305c5ba996bdb9c2aa0f236f5f54b8e5a900000000"
}