{
  "txid": "29cec9f021239f053eb04668e7a46c7908580f00e1a21a055590216531bcade8",
  "version": 2,
  "locktime": 834637,
  "vin": [
    {
      "txid": "83be6caf298c70effdb8b589622a6e0356f47c65a87ed0da373add7c7066bcfa",
      "vout": 0,
      "prevout": {
        "scriptpubkey": "00142879c7ad5422b4281e90b476322c1a8725ca1d4d",
        "scriptpubkey_asm": "OP_0 OP_PUSHBYTES_20 2879c7ad5422b4281e90b476322c1a8725ca1d4d",
        "scriptpubkey_type": "v0_p2wpkh",
        "scriptpubkey_address": "bc1q9puu0t25y26zs85sk3mrytq6suju582dl5ev88",
        "value": 260382
      },
      "scriptsig": "",
      "scriptsig_asm": "",
      "witness": [
        "3044022000a2ffdbd9df27fe03df0ae7240fc838fd776f8d5726b8f348b475dec6472c50022067b65069efd91b99e6a3bdd508047dbb688b6385b14e012ab3853ea82d14408f01",
        "03977a36d041d1ba65102a97b1b6f456fec411d55648b79fea623e5b9ef11a70c4"
      ],
      "is_coinbase": false,
      "sequence": 4294967293
    },
    {
      "txid": "ac97737fe167306348b4a0da8d9e9b21b0feac51fcd4a142aa6f920c72268c1e",
      "vout": 1,
      "prevout": {
        "scriptpubkey": "00143fe42f902c604e5e7b580a88d6a1b205af93ee40",
        "scriptpubkey_asm": "OP_0 OP_PUSHBYTES_20 3fe42f902c604e5e7b580a88d6a1b205af93ee40",
        "scriptpubkey_type": "v0_p2wpkh",
        "scriptpubkey_address": "bc1q8ljzlypvvp89u76cp2yddgdjqkhe8mjq4f4pel",
        "value": 11290
      },
      "scriptsig": "",
      "scriptsig_asm": "",
      "witness": [
        "304402200567465f4e1d8a6c555bca7d1f6135f34b3d97ce7ba5d617bb83e6fae04efb3c022069341bf351801356d1424ca82edaf39a7d0de0ab809a283030fca003b2cd2fb901",
        "033fa92af13bceb5e9e7ff500b3b99e702dee8a9c92656528340428a26d13526f3"
      ],
      "is_coinbase": false,
      "sequence": 4294967293
    }
  ],
  "vout": [
    {
      "scriptpubkey": "0014cac59f9b1485c86942031e2f6b5b4a8e317a282a",
      "scriptpubkey_asm": "OP_0 OP_PUSHBYTES_20 cac59f9b1485c86942031e2f6b5b4a8e317a282a",
      "scriptpubkey_type": "v0_p2wpkh",
      "scriptpubkey_address": "bc1qetzelxc5shyxjssrrchkkk623cch52p2lwjc2f",
      "value": 268842
    }
  ],
  "size": 339,
  "weight": 708,
  "fee": 2830,
  "status": {
    "confirmed": true,
    "block_height": 834638,
    "block_hash": "000000000000000000025f742c626208ac87e0b7d15054abb4a19ca2d735a54e",
    "block_time": 1710405325
  },
  "hex": "02000000000102fabc66707cdd3a37dad07ea8657cf456036e2a6289b5b8fdef708c29af6cbe830000000000fdffffff1e8c26720c926faa42a1d4fc51acfeb0219b9e8ddaa0b448633067e17f7397ac0100000000fdffffff012a1a040000000000160014cac59f9b1485c86942031e2f6b5b4a8e317a282a02473044022000a2ffdbd9df27fe03df0ae7240fc838fd776f8d5726b8f348b475dec6472c50022067b65069efd91b99e6a3bdd508047dbb688b6385b14e012ab3853ea82d14408f012103977a36d041d1ba65102a97b1b6f456fec411d55648b79fea623e5b9ef11a70c40247304402200567465f4e1d8a6c555bca7d1f6135f34b3d97ce7ba5d617bb83e6fae04efb3c022069341bf351801356d1424ca82edaf39a7d0de0ab809a283030fca003b2cd2fb90121033fa92af13bceb5e9e7ff500b3b99e702dee8a9c92656528340428a26d13526f34dbc0c00"
}