{
  "txid": "29e6271526fe93d3700e91c4fa914e0d4fb660abc797e1ad95c5d4cd6602d9a5",
  "version": 2,
  "locktime": 0,
  "vin": [
    {
      "txid": "4c5c02edd62bb59490c9996a2d92ad6f304a643f146393c77bc777692db502d1",
      "vout": 2,
      "prevout": {
        "scriptpubkey": "a9140b253f829b0df859c8c150a6056580cc23b0411287",
        "scriptpubkey_asm": "OP_HASH160 OP_PUSHBYTES_20 0b253f829b0df859c8c150a6056580cc23b04112 OP_EQUAL",
        "scriptpubkey_type": "p2sh",
        "scriptpubkey_address": "32hwyhLftpnAKvQpaCwGD4aXnuniQpxLND",
        "value": 1194546
      },
      "scriptsig": "1600143b1837c4337029e51a302de7788852f11b3ba321",
      "scriptsig_asm": "OP_PUSHBYTES_22 00143b1837c4337029e51a302de7788852f11b3ba321",
      "witness": [
        "30450221008223870f01cee351be8645f538c2556d579816537e69af0bc388f10e69be4f5002206e55d2fe7a9e063b1c44fcdf2233273c445561f9f3afeff0eb75398649e023fd01",
        "031cab46feef7769e0a454ee3e2297033b831506b94b65dc2906e286af350a1ba8"
      ],
      "is_coinbase": false,
      "sequence": 4294967293,
      "inner_redeemscript_asm": "OP_0 OP_PUSHBYTES_20 3b1837c4337029e51a302de7788852f11b3ba321"
    }
  ],
  "vout": [
    {
      "scriptpubkey": "a914ee9435cc0f0646fb9fb76377c7025e8cec982d2887",
      "scriptpubkey_asm": "OP_HASH160 OP_PUSHBYTES_20 ee9435cc0f0646fb9fb76377c7025e8cec982d28 OP_EQUAL",
      "scriptpubkey_type": "p2sh",
      "scriptpubkey_address": "3PSWJ2ADPedgNr7ehSr7xt9MLq1WyJrfFB",
      "value": 122366
    },
    {
      "scriptpubkey": "a9140b253f829b0df859c8c150a6056580cc23b0411287",
      "scriptpubkey_asm": "OP_HASH160 OP_PUSHBYTES_20 0b253f829b0df859c8c150a6056580cc23b04112 OP_EQUAL",
      "scriptpubkey_type": "p2sh",
      "scriptpubkey_address": "32hwyhLftpnAKvQpaCwGD4aXnuniQpxLND",
      "value": 1069358
    }
  ],
  "size": 248,
  "weight": 662,
  "fee": 2822,
  "status": {
    "confirmed": true,
    "block_height": 834638,
    "block_hash": "000000000000000000025f742c626208ac87e0b7d15054abb4a19ca2d735a54e",
    "block_time": 1710405325
  },
  "hex": "02000000000101d102b52d6977c77bc79363143f644a306fad922d6a99c99094b52bd6ed025c4c02000000171600143b1837c4337029e51a302de7788852f11b3ba321fdffffff02fedd01000000000017a914ee9435cc0f0646fb9fb76377c7025e8cec982d28872e5110000000000017a9140b253f829b0df859c8c150a6056580cc23b0411287024830450221008223870f01cee351be8645f538c2556d579816537e69af0bc388f10e69be4f5002206e55d2fe7a9e063b1c44fcdf2233273c445561f9f3afeff0eb75398649e023fd0121031cab46feef7769e0a454ee3e2297033b831506b94b65dc2906e286af350a1ba800000000"
}