{
  "txid": "29ebc7fe9c2bd71e05ce4427430ab9ea9fc8f0f6302c6eb0f146bebf6787f6d6",
  "version": 1,
  "locktime": 0,
  "vin": [
    {
      "txid": "8502bc65a8e9b11996a912da4eb42378c57b6a89a0c940422a9e61e62e5932e1",
      "vout": 0,
      "prevout": {
        "scriptpubkey": "002032cf73321cba9ba880807cd10cc9d58d73b25a8b1e9910662ece538e6ed6860f",
        "scriptpubkey_asm": "OP_0 OP_PUSHBYTES_32 32cf73321cba9ba880807cd10cc9d58d73b25a8b1e9910662ece538e6ed6860f",
        "scriptpubkey_type": "v0_p2wsh",
        "scriptpubkey_address": "bc1qxt8hxvsuh2d63qyq0ngsejw434emyk5tr6v3qe3weefcumkksc8s40skt0",
        "value": 7320
      },
      "scriptsig": "",
      "scriptsig_asm": "",
      "witness": [
        "9ace113fc000919095b4fedd321e560cd14652ce208ed5bfdf43c4c6015211ad",
        "3045022100aaa95ed8cf4d2e2a5c7d1d38fa18b12a0af4a3a699cd28e6d8081dd1984a625402202e8978041cb6005a43274bf96322f2add910643bcc9b8862be25dee1eedf20d301",
        "3045022100ecd9f8e3fcb94bbefa00ba8833ad3bf04e8e156cbb7649c50b17e983e70782c602204c412b7b69650d7fda78666994b0856a72eeafccfd288a71b79d63fd28c77e1301",
        "2103c9cdeed621eeb531138e1910c7a318f4a0f9fa2d24c5094b5f973cbe743f901cac6476a914bc931f3a7bcf1dd3ec0372cad56d7f3d8382a76788ad03dcbb0cb16721028e08c22a13a1ec0eec797ff0bffb334f930e2b92ed929814d14458e501bd20cbad82012088a91415d6bdfc2cd8d245ac6afe8c24385bd4155b2f778768"
      ],
      "is_coinbase": false,
      "sequence": 4294967295,
      "inner_witnessscript_asm": "OP_PUSHBYTES_33 03c9cdeed621eeb531138e1910c7a318f4a0f9fa2d24c5094b5f973cbe743f901c OP_CHECKSIG OP_NOTIF OP_DUP OP_HASH160 OP_PUSHBYTES_20 bc931f3a7bcf1dd3ec0372cad56d7f3d8382a767 OP_EQUALVERIFY OP_CHECKSIGVERIFY OP_PUSHBYTES_3 dcbb0c OP_CLTV OP_ELSE OP_PUSHBYTES_33 028e08c22a13a1ec0eec797ff0bffb334f930e2b92ed929814d14458e501bd20cb OP_CHECKSIGVERIFY OP_SIZE OP_PUSHBYTES_1 20 OP_EQUALVERIFY OP_HASH160 OP_PUSHBYTES_20 15d6bdfc2cd8d245ac6afe8c24385bd4155b2f77 OP_EQUAL OP_ENDIF"
    }
  ],
  "vout": [
    {
      "scriptpubkey": "51208ba512ebc3df0512af9048f74c20694a4aae4b8d7e2d55a906d54ffac6348c30",
      "scriptpubkey_asm": "OP_PUSHNUM_1 OP_PUSHBYTES_32 8ba512ebc3df0512af9048f74c20694a4aae4b8d7e2d55a906d54ffac6348c30",
      "scriptpubkey_type": "v1_p2tr",
      "scriptpubkey_address": "bc1p3wj3967rmuz39tusfrm5cgrfff92ujud0ck4t2gx648l43353scq2m6emr",
      "value": 5000
    }
  ],
  "size": 407,
  "weight": 689,
  "fee": 2320,
  "status": {
    "confirmed": true,
    "block_height": 834460,
    "block_hash": "00000000000000000000484a79b643b2524bbce82e5d8a442013fa5b8905ed98",
    "block_time": 1710307468
  },
  "hex": "01000000000101e132592ee6619e2a4240c9a0896a7bc57823b44eda12a99619b1e9a865bc02850000000000ffffffff0188130000000000002251208ba512ebc3df0512af9048f74c20694a4aae4b8d7e2d55a906d54ffac6348c3004209ace113fc000919095b4fedd321e560cd14652ce208ed5bfdf43c4c6015211ad483045022100aaa95ed8cf4d2e2a5c7d1d38fa18b12a0af4a3a699cd28e6d8081dd1984a625402202e8978041cb6005a43274bf96322f2add910643bcc9b8862be25dee1eedf20d301483045022100ecd9f8e3fcb94bbefa00ba8833ad3bf04e8e156cbb7649c50b17e983e70782c602204c412b7b69650d7fda78666994b0856a72eeafccfd288a71b79d63fd28c77e1301822103c9cdeed621eeb531138e1910c7a318f4a0f9fa2d24c5094b5f973cbe743f901cac6476a914bc931f3a7bcf1dd3ec0372cad56d7f3d8382a76788ad03dcbb0cb16721028e08c22a13a1ec0eec797ff0bffb334f930e2b92ed929814d14458e501bd20cbad82012088a91415d6bdfc2cd8d245ac6afe8c24385bd4155b2f77876800000000"
}