{
  "txid": "29fd68962c30655aa6ef9b192d19649b133468999480b2d1fd4ab8fc0b535a30",
  "version": 1,
  "locktime": 0,
  "vin": [
    {
      "txid": "be46df165ecad385ce431cf29380e2e3c9e469b3ea7539e0ee3246579085b466",
      "vout": 0,
      "prevout": {
        "scriptpubkey": "00144ce51717a2799206b9f16d99ea72b29b999142c7",
        "scriptpubkey_asm": "OP_0 OP_PUSHBYTES_20 4ce51717a2799206b9f16d99ea72b29b999142c7",
        "scriptpubkey_type": "v0_p2wpkh",
        "scriptpubkey_address": "bc1qfnj3w9az0xfqdw03dkv75u4jnwvezsk8cec7eu",
        "value": 33134
      },
      "scriptsig": "",
      "scriptsig_asm": "",
      "witness": [
        "304402206e729e817d1c5a57bdf2183a266b2a584afba2b2f9983164f5a15cadb44ba790022036e97fb9f5e4b0aaa6977abaac7ad43ded12c9c73493a9579ad1091ca07eceef01",
        "039361cae956f04648cb5cf271a5fa8ea494fc2479079a5d5ccde1207f3142f6db"
      ],
      "is_coinbase": false,
      "sequence": 4294967295
    },
    {
      "txid": "6361364fa03d08f6c5cce271ff0b8e383dc351ff1bdcea5305bafaaf1e35f89e",
      "vout": 0,
      "prevout": {
        "scriptpubkey": "0014f0abfd7f25a285abf6e871592236ad66d0bce313",
        "scriptpubkey_asm": "OP_0 OP_PUSHBYTES_20 f0abfd7f25a285abf6e871592236ad66d0bce313",
        "scriptpubkey_type": "v0_p2wpkh",
        "scriptpubkey_address": "bc1q7z4l6le952z6hahgw9vjyd4dvmgteccnhz8csg",
        "value": 39240
      },
      "scriptsig": "",
      "scriptsig_asm": "",
      "witness": [
        "304402205e9aa0d4796a620830e6d09be79d4af1be729541c174477454266c262cc792b40220126c9b0e73dcd26f75351965d697fb472eb219c23c4f32e20cfd6c386d8278bd01",
        "02485dff26bee2aa39f68ca98e0a216d4414b6bc68e106427201fe31e73153479e"
      ],
      "is_coinbase": false,
      "sequence": 4294967295
    },
    {
      "txid": "0952e862ed62273e932514e9d7b10eafda75293f417a3034c81704b14b8b7c80",
      "vout": 17,
      "prevout": {
        "scriptpubkey": "0014ccce9edf0b1560d627ed87ad453cbd4101294eff",
        "scriptpubkey_asm": "OP_0 OP_PUSHBYTES_20 ccce9edf0b1560d627ed87ad453cbd4101294eff",
        "scriptpubkey_type": "v0_p2wpkh",
        "scriptpubkey_address": "bc1qen8fahctz4sdvflds7k5209agyqjjnhl7h5xss",
        "value": 41000
      },
      "scriptsig": "",
      "scriptsig_asm": "",
      "witness": [
        "304402203f60fbb202f5e7b9cb9b5dae5da532b6b6b7a5982ce0f36871511e4fdde9013502206b3ebf41f9b69771a26f21405b71819f531fb367c1c9a8d8473d46ace11214ce01",
        "023dbcb260f529bc5e6d06b2933a18faac7f765860d0d0317649c8abb769646b2d"
      ],
      "is_coinbase": false,
      "sequence": 4294967295
    }
  ],
  "vout": [
    {
      "scriptpubkey": "a9142e38a9b5ed65741f7ecbd057bc6e09815671f12887",
      "scriptpubkey_asm": "OP_HASH160 OP_PUSHBYTES_20 2e38a9b5ed65741f7ecbd057bc6e09815671f128 OP_EQUAL",
      "scriptpubkey_type": "p2sh",
      "scriptpubkey_address": "35uQtNrBXrcexLkDi7W8PwyueSyCkZm5uX",
      "value": 72053
    },
    {
      "scriptpubkey": "0014ecd330a111d922fdfd18a82c37c0c913b2cbc25a",
      "scriptpubkey_asm": "OP_0 OP_PUSHBYTES_20 ecd330a111d922fdfd18a82c37c0c913b2cbc25a",
      "scriptpubkey_type": "v0_p2wpkh",
      "scriptpubkey_address": "bc1qanfnpgg3my30mlgc4qkr0sxfzwevhsj6csnspj",
      "value": 35581
    }
  ],
  "size": 519,
  "weight": 1107,
  "fee": 5740,
  "status": {
    "confirmed": true,
    "block_height": 834638,
    "block_hash": "000000000000000000025f742c626208ac87e0b7d15054abb4a19ca2d735a54e",
    "block_time": 1710405325
  },
  "hex": "0100000000010366b48590574632eee03975eab369e4c9e3e28093f21c43ce85d3ca5e16df46be0000000000ffffffff9ef8351eaffaba0553eadc1bff51c33d388e0bff71e2ccc5f6083da04f3661630000000000ffffffff807c8b4bb10417c834307a413f2975daaf0eb1d7e91425933e2762ed62e852091100000000ffffffff02751901000000000017a9142e38a9b5ed65741f7ecbd057bc6e09815671f12887fd8a000000000000160014ecd330a111d922fdfd18a82c37c0c913b2cbc25a0247304402206e729e817d1c5a57bdf2183a266b2a584afba2b2f9983164f5a15cadb44ba790022036e97fb9f5e4b0aaa6977abaac7ad43ded12c9c73493a9579ad1091ca07eceef0121039361cae956f04648cb5cf271a5fa8ea494fc2479079a5d5ccde1207f3142f6db0247304402205e9aa0d4796a620830e6d09be79d4af1be729541c174477454266c262cc792b40220126c9b0e73dcd26f75351965d697fb472eb219c23c4f32e20cfd6c386d8278bd012102485dff26bee2aa39f68ca98e0a216d4414b6bc68e106427201fe31e73153479e0247304402203f60fbb202f5e7b9cb9b5dae5da532b6b6b7a5982ce0f36871511e4fdde9013502206b3ebf41f9b69771a26f21405b71819f531fb367c1c9a8d8473d46ace11214ce0121023dbcb260f529bc5e6d06b2933a18faac7f765860d0d0317649c8abb769646b2d00000000"
}