{
  "txid": "2a1dca190c10185db93d34a9a493b720cc033ddaa97b6a88a531062ff1efd14a",
  "version": 2,
  "locktime": 0,
  "vin": [
    {
      "txid": "acc3ba00869acb582a3f2904ce3a11dd3779350ce234063fc7d0959246213364",
      "vout": 148,
      "prevout": {
        "scriptpubkey": "512042a6850af97f8e5f6ce8c3b80bf65456e7cf610cc7134addfe992f954d134e7f",
        "scriptpubkey_asm": "OP_PUSHNUM_1 OP_PUSHBYTES_32 42a6850af97f8e5f6ce8c3b80bf65456e7cf610cc7134addfe992f954d134e7f",
        "scriptpubkey_type": "v1_p2tr",
        "scriptpubkey_address": "bc1pg2ng2zhe07897m8gcwuqhaj52mnu7cgvcuf54h07nyhe2ngnfelswlnlfa",
        "value": 1806
      },
      "scriptsig": "",
      "scriptsig_asm": "",
      "witness": [
        "220432706e0c371653c571162d12005057e7eff75ea63a5d96dc4176642a5234207f4c8d4d0cbb6835f97135779f629f03f9bc48d4d7e05fe57cafc88f25384c",
        "20b94083ee5cde0f16971ed105b62acffa5d26abdc8af0cda61ee96b2de043c632ac0063036f726401010a746578742f706c61696e00357b2270223a226272632d3230222c226f70223a226d696e74222c227469636b223a22646f6765222c22616d74223a2234323030227d68",
        "c0b94083ee5cde0f16971ed105b62acffa5d26abdc8af0cda61ee96b2de043c632"
      ],
      "is_coinbase": false,
      "sequence": 4261412863
    }
  ],
  "vout": [
    {
      "scriptpubkey": "00147a665de7a370f4c9b372ab1fae587500a5bcbdb4",
      "scriptpubkey_asm": "OP_0 OP_PUSHBYTES_20 7a665de7a370f4c9b372ab1fae587500a5bcbdb4",
      "scriptpubkey_type": "v0_p2wpkh",
      "scriptpubkey_address": "bc1q0fn9mearwr6vnvmj4v06ukr4qzjme0d565dzcx",
      "value": 294
    }
  ],
  "size": 294,
  "weight": 540,
  "fee": 1512,
  "status": {
    "confirmed": true,
    "block_height": 834460,
    "block_hash": "00000000000000000000484a79b643b2524bbce82e5d8a442013fa5b8905ed98",
    "block_time": 1710307468
  },
  "hex": "02000000000101643321469295d0c73f0634e20c357937dd113ace04293f2a58cb9a8600bac3ac9400000000fffffffd0126010000000000001600147a665de7a370f4c9b372ab1fae587500a5bcbdb40340220432706e0c371653c571162d12005057e7eff75ea63a5d96dc4176642a5234207f4c8d4d0cbb6835f97135779f629f03f9bc48d4d7e05fe57cafc88f25384c6d20b94083ee5cde0f16971ed105b62acffa5d26abdc8af0cda61ee96b2de043c632ac0063036f726401010a746578742f706c61696e00357b2270223a226272632d3230222c226f70223a226d696e74222c227469636b223a22646f6765222c22616d74223a2234323030227d6821c0b94083ee5cde0f16971ed105b62acffa5d26abdc8af0cda61ee96b2de043c63200000000"
}