{
  "txid": "2a22457b1e2830b6338a9b573b4739a3c8ed460fc71b5fdf52027f24e90cecc0",
  "version": 2,
  "locktime": 0,
  "vin": [
    {
      "txid": "19955810ca4e6a2fbe08a8708296a6318b0e3e9cecac7120474d53f651cd5bb6",
      "vout": 2,
      "prevout": {
        "scriptpubkey": "a9141917f184d6cce8b2e278043ca3aa301358a31dbc87",
        "scriptpubkey_asm": "OP_HASH160 OP_PUSHBYTES_20 1917f184d6cce8b2e278043ca3aa301358a31dbc OP_EQUAL",
        "scriptpubkey_type": "p2sh",
        "scriptpubkey_address": "33yhVxYNje5E1ki2kdHWZySLQnTCzP6C5Q",
        "value": 28402
      },
      "scriptsig": "1600140e93a2c055f10f0eddd1d4f2b76226df3fdb6e08",
      "scriptsig_asm": "OP_PUSHBYTES_22 00140e93a2c055f10f0eddd1d4f2b76226df3fdb6e08",
      "witness": [
        "30440220749478305b72fbfe29db62f042185b6d71e3e96d6eabc142aa5e6f9fb56b940c02201e76b40a833833a3cab354cbb02dc024e4b5c2959a2cfd6a26d106ee688cf05701",
        "02771082a06504c8597e4c1983f1358dda7db08a4fe1071c4b123d1a4cc54d3029"
      ],
      "is_coinbase": false,
      "sequence": 4294967295,
      "inner_redeemscript_asm": "OP_0 OP_PUSHBYTES_20 0e93a2c055f10f0eddd1d4f2b76226df3fdb6e08"
    }
  ],
  "vout": [
    {
      "scriptpubkey": "51200bcaaef3205879520d5f641edbbb41a1e2aacacf0a802d54f7b3f9011db345b7",
      "scriptpubkey_asm": "OP_PUSHNUM_1 OP_PUSHBYTES_32 0bcaaef3205879520d5f641edbbb41a1e2aacacf0a802d54f7b3f9011db345b7",
      "scriptpubkey_type": "v1_p2tr",
      "scriptpubkey_address": "bc1pp092aueqtpu4yr2lvs0dhw6p58324jk0p2qz648hk0usz8dngkmsk2vkce",
      "value": 4992
    },
    {
      "scriptpubkey": "00141331b668d2b056b631f9f88cc0cda7059f0496b2",
      "scriptpubkey_asm": "OP_0 OP_PUSHBYTES_20 1331b668d2b056b631f9f88cc0cda7059f0496b2",
      "scriptpubkey_type": "v0_p2wpkh",
      "scriptpubkey_address": "bc1qzvcmv6xjkpttvv0elzxvpnd8qk0sf94jlegpkh",
      "value": 7031
    },
    {
      "scriptpubkey": "a9141917f184d6cce8b2e278043ca3aa301358a31dbc87",
      "scriptpubkey_asm": "OP_HASH160 OP_PUSHBYTES_20 1917f184d6cce8b2e278043ca3aa301358a31dbc OP_EQUAL",
      "scriptpubkey_type": "p2sh",
      "scriptpubkey_address": "33yhVxYNje5E1ki2kdHWZySLQnTCzP6C5Q",
      "value": 12427
    }
  ],
  "size": 289,
  "weight": 829,
  "fee": 3952,
  "status": {
    "confirmed": true,
    "block_height": 834638,
    "block_hash": "000000000000000000025f742c626208ac87e0b7d15054abb4a19ca2d735a54e",
    "block_time": 1710405325
  },
  "hex": "02000000000101b65bcd51f6534d472071acec9c3e0e8b31a6968270a808be2f6a4eca1058951902000000171600140e93a2c055f10f0eddd1d4f2b76226df3fdb6e08ffffffff0380130000000000002251200bcaaef3205879520d5f641edbbb41a1e2aacacf0a802d54f7b3f9011db345b7771b0000000000001600141331b668d2b056b631f9f88cc0cda7059f0496b28b3000000000000017a9141917f184d6cce8b2e278043ca3aa301358a31dbc87024730440220749478305b72fbfe29db62f042185b6d71e3e96d6eabc142aa5e6f9fb56b940c02201e76b40a833833a3cab354cbb02dc024e4b5c2959a2cfd6a26d106ee688cf057012102771082a06504c8597e4c1983f1358dda7db08a4fe1071c4b123d1a4cc54d302900000000"
}