{
  "txid": "2a271beb48576c7348841af80e8e112bc91cc4c2e2dca1366d1220a50ff1fff6",
  "version": 2,
  "locktime": 0,
  "vin": [
    {
      "txid": "586dbdec2559bef74bbfe6b13f1d3dd57dcafb50337aa07037c75798d62d5f44",
      "vout": 1,
      "prevout": {
        "scriptpubkey": "00141d57d482ca6f59ce4ba91fa7ecf8e27405ddcc7a",
        "scriptpubkey_asm": "OP_0 OP_PUSHBYTES_20 1d57d482ca6f59ce4ba91fa7ecf8e27405ddcc7a",
        "scriptpubkey_type": "v0_p2wpkh",
        "scriptpubkey_address": "bc1qr4tafqk2davuujafr7n7e78zwszamnr62etwkw",
        "value": 438323
      },
      "scriptsig": "",
      "scriptsig_asm": "",
      "witness": [
        "3045022100cd93e7d67ab74bf88aded45ed5705b3d8fdb7caeaeee569340ee037661168cd90220640825114a20994befbda11ddaaeca53831586df3a43224009730ddca14b02d201",
        "03d777e41c24a4910d3bdb2e5acf5ef9d37a6e590c73b3f3545a411e5a8387d630"
      ],
      "is_coinbase": false,
      "sequence": 4294967295
    }
  ],
  "vout": [
    {
      "scriptpubkey": "5120403dea15d377c41115d3eeca7429c25b1dbfc554dc07c82b08a54c2650a788c0",
      "scriptpubkey_asm": "OP_PUSHNUM_1 OP_PUSHBYTES_32 403dea15d377c41115d3eeca7429c25b1dbfc554dc07c82b08a54c2650a788c0",
      "scriptpubkey_type": "v1_p2tr",
      "scriptpubkey_address": "bc1pgq7759wnwlzpz9wnam98g2wztvwml325msrus2cg54xzv5983rqqc9ktmf",
      "value": 5000
    },
    {
      "scriptpubkey": "00141d57d482ca6f59ce4ba91fa7ecf8e27405ddcc7a",
      "scriptpubkey_asm": "OP_0 OP_PUSHBYTES_20 1d57d482ca6f59ce4ba91fa7ecf8e27405ddcc7a",
      "scriptpubkey_type": "v0_p2wpkh",
      "scriptpubkey_address": "bc1qr4tafqk2davuujafr7n7e78zwszamnr62etwkw",
      "value": 430722
    }
  ],
  "size": 235,
  "weight": 610,
  "fee": 2601,
  "status": {
    "confirmed": true,
    "block_height": 834460,
    "block_hash": "00000000000000000000484a79b643b2524bbce82e5d8a442013fa5b8905ed98",
    "block_time": 1710307468
  },
  "hex": "02000000000101445f2dd69857c73770a07a3350fbca7dd53d1d3fb1e6bf4bf7be5925ecbd6d580100000000ffffffff028813000000000000225120403dea15d377c41115d3eeca7429c25b1dbfc554dc07c82b08a54c2650a788c082920600000000001600141d57d482ca6f59ce4ba91fa7ecf8e27405ddcc7a02483045022100cd93e7d67ab74bf88aded45ed5705b3d8fdb7caeaeee569340ee037661168cd90220640825114a20994befbda11ddaaeca53831586df3a43224009730ddca14b02d2012103d777e41c24a4910d3bdb2e5acf5ef9d37a6e590c73b3f3545a411e5a8387d63000000000"
}