{
  "txid": "2a37970cbfa424697e09da4c7a4900f4562096f71cfcb9e24f5046e0b92b07ff",
  "version": 2,
  "locktime": 833232,
  "vin": [
    {
      "txid": "0c600e10c51549aa537742f4f47b39e43371ff4a104a7d79b4f378cb72a33e14",
      "vout": 0,
      "prevout": {
        "scriptpubkey": "0014063ab4aa4ebe7f1b1d1854c2251662017f1ca9d6",
        "scriptpubkey_asm": "OP_0 OP_PUSHBYTES_20 063ab4aa4ebe7f1b1d1854c2251662017f1ca9d6",
        "scriptpubkey_type": "v0_p2wpkh",
        "scriptpubkey_address": "bc1qqcatf2jwhel3k8gc2npz29nzq9l3e2wkfens8m",
        "value": 1836
      },
      "scriptsig": "",
      "scriptsig_asm": "",
      "witness": [
        "3044022077afd9d7b6fe39f39d5de64ad3004b0992d2d4f728c5eeb3ff83635ee5bb54d5022054d1004f27e76b41ef65b89aef588811a0309b0ddbc55665fc8320b1e8d2b2b201",
        "032b7350a4108fa1e48f3f957c7f6b811263352906b2aefa1cfdaee637548285c1"
      ],
      "is_coinbase": false,
      "sequence": 4294967293
    },
    {
      "txid": "11cbe85244aea8810adca98d3dab1b6e0da0be811047dbcb0274b930b9129e0f",
      "vout": 0,
      "prevout": {
        "scriptpubkey": "0014c42c596fb192cf07e152b65847172b26e45de6b3",
        "scriptpubkey_asm": "OP_0 OP_PUSHBYTES_20 c42c596fb192cf07e152b65847172b26e45de6b3",
        "scriptpubkey_type": "v0_p2wpkh",
        "scriptpubkey_address": "bc1qcsk9jma3jt8s0c2jkevyw9etymj9me4nu3nee6",
        "value": 1262
      },
      "scriptsig": "",
      "scriptsig_asm": "",
      "witness": [
        "3044022067429db0197f3071713d0ee16225260af0f1021396d1883632038beeb78aea5d02200a45112d3772d1fee006052dfc60db86429dcc24877eae288dd7e18075bb9b2f01",
        "02149252b95075d0bf20e2faa5543e5eec094419b45b07c3fd5fc48aa4083c0eee"
      ],
      "is_coinbase": false,
      "sequence": 4294967293
    },
    {
      "txid": "216ad64b294eadaf79567691acbaefcdd92a718a58c75d8db6ce2d6100a54470",
      "vout": 0,
      "prevout": {
        "scriptpubkey": "0014963e56e87643e1c0fff8df9fa25d83e802e8c12f",
        "scriptpubkey_asm": "OP_0 OP_PUSHBYTES_20 963e56e87643e1c0fff8df9fa25d83e802e8c12f",
        "scriptpubkey_type": "v0_p2wpkh",
        "scriptpubkey_address": "bc1qjcl9d6rkg0supllcm706yhvraqpw3sf0kfue6c",
        "value": 1719
      },
      "scriptsig": "",
      "scriptsig_asm": "",
      "witness": [
        "3044022018b80f097d60125a7f7e68db9c6e94a5648e64b62b4904e4b6256e47a947b00302207ccf2f705954d336264f9b2c65456ac063cade358225c061ec69496222bac96c01",
        "022d42c19c0ae77dc0e36f89743599c64dea27f34d3bea9dd80addb529487594ec"
      ],
      "is_coinbase": false,
      "sequence": 4294967293
    },
    {
      "txid": "27e66be4c80b1daca32a40525eb316d375178b9f40f41662544e595f78a8542d",
      "vout": 0,
      "prevout": {
        "scriptpubkey": "00147845339af0cad0b3bcb453765a7beade64eab0e6",
        "scriptpubkey_asm": "OP_0 OP_PUSHBYTES_20 7845339af0cad0b3bcb453765a7beade64eab0e6",
        "scriptpubkey_type": "v0_p2wpkh",
        "scriptpubkey_address": "bc1q0pzn8xhsetgt80952dm957l2mejw4v8x8gxqdg",
        "value": 4746
      },
      "scriptsig": "",
      "scriptsig_asm": "",
      "witness": [
        "3044022015cb91788800aee3032c565a6a2ea4477f6de4663f3881b556647cf77d164e3a0220711aa5e3f60242feba5c1073ae74129832adaf6f7aa31bcb5b962a00c2d85fbe01",
        "030d8325bd95c7df2a8bfbfe1b3820d9bf06ad33935f757f167e64479d48e21960"
      ],
      "is_coinbase": false,
      "sequence": 4294967293
    },
    {
      "txid": "287b3ab6c73899195c38f1c09e0710d51174a1c9020537b33c77c90dcb99aaab",
      "vout": 0,
      "prevout": {
        "scriptpubkey": "0014184a0e1d67777a8c07c392d42ed4fe39b9f6bf1e",
        "scriptpubkey_asm": "OP_0 OP_PUSHBYTES_20 184a0e1d67777a8c07c392d42ed4fe39b9f6bf1e",
        "scriptpubkey_type": "v0_p2wpkh",
        "scriptpubkey_address": "bc1qrp9qu8t8waagcp7rjt2za4878xuld0c74avp6j",
        "value": 2916
      },
      "scriptsig": "",
      "scriptsig_asm": "",
      "witness": [
        "30440220384c7fc63d9378abbaea0d8c0f779613c25b533d07f1b88ccbd2af57d944dcf5022067a7c7924974cd2dbbbd4fda6023eda5311402047112793fd52c784ae992970b01",
        "02292ef13e60769c36b5936a36058d4a7e3e709ccd9ed436ba9b537233cf6c0961"
      ],
      "is_coinbase": false,
      "sequence": 4294967293
    },
    {
      "txid": "2b30b34e4806ec4152a73c5657fa93d8788d3de53fe47bf23bc1131a3cabaef9",
      "vout": 0,
      "prevout": {
        "scriptpubkey": "0014cd7dd8e132595cea07a0772935d3fed22eddd6cc",
        "scriptpubkey_asm": "OP_0 OP_PUSHBYTES_20 cd7dd8e132595cea07a0772935d3fed22eddd6cc",
        "scriptpubkey_type": "v0_p2wpkh",
        "scriptpubkey_address": "bc1qe47a3cfjt9ww5paqwu5nt5l76ghdm4kvaej3zn",
        "value": 2617
      },
      "scriptsig": "",
      "scriptsig_asm": "",
      "witness": [
        "30440220661637d1a8bbb9b59ed02fab98e8e13b95d0edf181c0cd7dcfab4b4ff8530977022021c71c3b0d6fa6f04cf6526ad59fc4012b2b6d073cf7f1b5ecc91ffea501303301",
        "0305d6eae569f632e2e126582f862031241fcd38ce81f13734d3145292781cba0b"
      ],
      "is_coinbase": false,
      "sequence": 4294967293
    },
    {
      "txid": "355a70521c72dbaf6cab060347e4ec76105732685b6d12d8ee72934b745e4cd5",
      "vout": 0,
      "prevout": {
        "scriptpubkey": "001415eeb554d53205aac4972bb91a9d357b074f34ff",
        "scriptpubkey_asm": "OP_0 OP_PUSHBYTES_20 15eeb554d53205aac4972bb91a9d357b074f34ff",
        "scriptpubkey_type": "v0_p2wpkh",
        "scriptpubkey_address": "bc1qzhht24x4xgz643yh9wu348f40vr57d8ldm79ku",
        "value": 1867
      },
      "scriptsig": "",
      "scriptsig_asm": "",
      "witness": [
        "304402200763b419b453cf124a186004bec81d144b42cd94666a081d72e08bd031ba58d502200d7ba944c16d1303ab654b008b1025740ec249799486f91f72149e1264682cc501",
        "03f5b4fdd2a1284bb223d05f53c0a34674a2b02120c9b911fcbce56cd43b8651ee"
      ],
      "is_coinbase": false,
      "sequence": 4294967293
    },
    {
      "txid": "bd7c298c7b670534a4c75eb408f0d429693521b368e3d58ded9b894c192d5743",
      "vout": 0,
      "prevout": {
        "scriptpubkey": "00147d754eda2bc9890fb5097d68032dd2fbb45f11fa",
        "scriptpubkey_asm": "OP_0 OP_PUSHBYTES_20 7d754eda2bc9890fb5097d68032dd2fbb45f11fa",
        "scriptpubkey_type": "v0_p2wpkh",
        "scriptpubkey_address": "bc1q0465ak3texysldgf045qxtwjlw697y06cls99l",
        "value": 2219
      },
      "scriptsig": "",
      "scriptsig_asm": "",
      "witness": [
        "30440220094251df71bfa89ccbdec29d0b21f9fdee6dbb491ebac27e5646c0812b00cf0802207b738642c36f977f39591ef07b78e6dae46e0178b634fc5ec1d49a1995c0952101",
        "031b17da9bc2ea48ab347b063bc8079d7d2909dbb8c9f62fac1ac2a48e8886cd2c"
      ],
      "is_coinbase": false,
      "sequence": 4294967293
    },
    {
      "txid": "d2d1a18a654e5b6a7afd41c060b614959a574d5d8ae1c2a905cd88c5e97b3b3d",
      "vout": 0,
      "prevout": {
        "scriptpubkey": "0014ba7ccd68d8f6e77c993cac97a249c126c7004bc7",
        "scriptpubkey_asm": "OP_0 OP_PUSHBYTES_20 ba7ccd68d8f6e77c993cac97a249c126c7004bc7",
        "scriptpubkey_type": "v0_p2wpkh",
        "scriptpubkey_address": "bc1qhf7v66xc7mnhexfu4jt6yjwpymrsqj78s6hu4l",
        "value": 1893
      },
      "scriptsig": "",
      "scriptsig_asm": "",
      "witness": [
        "304402204c134d07607ca4da206b03ef9086815d59bb277007c0a23aa1bee9edf7800cd70220212d264a25355e2708588dc6b5de6265eaaa862914e8afe2eed2a2ba7cfea7ff01",
        "03c0090d3937973ea662638d90f21cf6f9d3a28662a11183a003927d60b171d77a"
      ],
      "is_coinbase": false,
      "sequence": 4294967293
    },
    {
      "txid": "e51e61ae824ba9a2943bfd69a1f3192bcf14e41c28243a60635f955f9ca6f5ba",
      "vout": 0,
      "prevout": {
        "scriptpubkey": "00149320c1e3b1e4e292fdce2ae0cf46b4c16cb85da5",
        "scriptpubkey_asm": "OP_0 OP_PUSHBYTES_20 9320c1e3b1e4e292fdce2ae0cf46b4c16cb85da5",
        "scriptpubkey_type": "v0_p2wpkh",
        "scriptpubkey_address": "bc1qjvsvrca3un3f9lww9tsv7345c9ktshd9ygmnsr",
        "value": 1610
      },
      "scriptsig": "",
      "scriptsig_asm": "",
      "witness": [
        "3044022072d914d933c8b5907b4c0d7b1be5dffb7a66943d932d1cbebfb66045cacbb73102203f5c529267cc573a1c61ccbd7635cc116c3e41363446e1153f4b2a116638833401",
        "02b4666980b1e5107f4ecc0b27b5f1fb09a8eccebacc000740d659234f8d4a9737"
      ],
      "is_coinbase": false,
      "sequence": 4294967293
    }
  ],
  "vout": [
    {
      "scriptpubkey": "0014632c0260e0cb372635a5fc005d60ecc3ed83aa79",
      "scriptpubkey_asm": "OP_0 OP_PUSHBYTES_20 632c0260e0cb372635a5fc005d60ecc3ed83aa79",
      "scriptpubkey_type": "v0_p2wpkh",
      "scriptpubkey_address": "bc1qvvkqyc8qevmjvdd9lsq96c8vc0kc82neu2lflr",
      "value": 14974
    }
  ],
  "size": 1523,
  "weight": 2876,
  "fee": 7711,
  "status": {
    "confirmed": true,
    "block_height": 834464,
    "block_hash": "0000000000000000000177a0869a911a2b65c9bdcd5a8bcb02b68f305bee848e",
    "block_time": 1710308296
  },
  "hex": "0200000000010a143ea372cb78f3b4797d4a104aff7133e4397bf4f4427753aa4915c5100e600c0000000000fdffffff0f9e12b930b97402cbdb471081bea00d6e1bab3d8da9dc0a81a8ae4452e8cb110000000000fdffffff7044a500612dceb68d5dc7588a712ad9cdefbaac91765679afad4e294bd66a210000000000fdffffff2d54a8785f594e546216f4409f8b1775d316b35e52402aa3ac1d0bc8e46be6270000000000fdffffffabaa99cb0dc9773cb3370502c9a17411d510079ec0f1385c199938c7b63a7b280000000000fdfffffff9aeab3c1a13c13bf27be43fe53d8d78d893fa57563ca75241ec06484eb3302b0000000000fdffffffd54c5e744b9372eed8126d5b6832571076ece4470306ab6cafdb721c52705a350000000000fdffffff43572d194c899bed8dd5e368b321356929d4f008b45ec7a43405677b8c297cbd0000000000fdffffff3d3b7be9c588cd05a9c2e18a5d4d579a9514b660c041fd7a6a5b4e658aa1d1d20000000000fdffffffbaf5a69c5f955f63603a24281ce414cf2b19f3a169fd3b94a2a94b82ae611ee50000000000fdffffff017e3a000000000000160014632c0260e0cb372635a5fc005d60ecc3ed83aa7902473044022077afd9d7b6fe39f39d5de64ad3004b0992d2d4f728c5eeb3ff83635ee5bb54d5022054d1004f27e76b41ef65b89aef588811a0309b0ddbc55665fc8320b1e8d2b2b20121032b7350a4108fa1e48f3f957c7f6b811263352906b2aefa1cfdaee637548285c102473044022067429db0197f3071713d0ee16225260af0f1021396d1883632038beeb78aea5d02200a45112d3772d1fee006052dfc60db86429dcc24877eae288dd7e18075bb9b2f012102149252b95075d0bf20e2faa5543e5eec094419b45b07c3fd5fc48aa4083c0eee02473044022018b80f097d60125a7f7e68db9c6e94a5648e64b62b4904e4b6256e47a947b00302207ccf2f705954d336264f9b2c65456ac063cade358225c061ec69496222bac96c0121022d42c19c0ae77dc0e36f89743599c64dea27f34d3bea9dd80addb529487594ec02473044022015cb91788800aee3032c565a6a2ea4477f6de4663f3881b556647cf77d164e3a0220711aa5e3f60242feba5c1073ae74129832adaf6f7aa31bcb5b962a00c2d85fbe0121030d8325bd95c7df2a8bfbfe1b3820d9bf06ad33935f757f167e64479d48e21960024730440220384c7fc63d9378abbaea0d8c0f779613c25b533d07f1b88ccbd2af57d944dcf5022067a7c7924974cd2dbbbd4fda6023eda5311402047112793fd52c784ae992970b012102292ef13e60769c36b5936a36058d4a7e3e709ccd9ed436ba9b537233cf6c0961024730440220661637d1a8bbb9b59ed02fab98e8e13b95d0edf181c0cd7dcfab4b4ff8530977022021c71c3b0d6fa6f04cf6526ad59fc4012b2b6d073cf7f1b5ecc91ffea501303301210305d6eae569f632e2e126582f862031241fcd38ce81f13734d3145292781cba0b0247304402200763b419b453cf124a186004bec81d144b42cd94666a081d72e08bd031ba58d502200d7ba944c16d1303ab654b008b1025740ec249799486f91f72149e1264682cc5012103f5b4fdd2a1284bb223d05f53c0a34674a2b02120c9b911fcbce56cd43b8651ee024730440220094251df71bfa89ccbdec29d0b21f9fdee6dbb491ebac27e5646c0812b00cf0802207b738642c36f977f39591ef07b78e6dae46e0178b634fc5ec1d49a1995c095210121031b17da9bc2ea48ab347b063bc8079d7d2909dbb8c9f62fac1ac2a48e8886cd2c0247304402204c134d07607ca4da206b03ef9086815d59bb277007c0a23aa1bee9edf7800cd70220212d264a25355e2708588dc6b5de6265eaaa862914e8afe2eed2a2ba7cfea7ff012103c0090d3937973ea662638d90f21cf6f9d3a28662a11183a003927d60b171d77a02473044022072d914d933c8b5907b4c0d7b1be5dffb7a66943d932d1cbebfb66045cacbb73102203f5c529267cc573a1c61ccbd7635cc116c3e41363446e1153f4b2a1166388334012102b4666980b1e5107f4ecc0b27b5f1fb09a8eccebacc000740d659234f8d4a9737d0b60c00"
}