{
  "txid": "2a57dae85320543d698e929ad435447f58e772b1e01f56366903dc43702ce609",
  "version": 2,
  "locktime": 0,
  "vin": [
    {
      "txid": "56de342fa50a3dd1bfc303bcb20a898e5a1c4659425b69c087a9a79b86ad71d0",
      "vout": 0,
      "prevout": {
        "scriptpubkey": "0014c619c5bec0dbd15314ba6d61e50493920c4ed784",
        "scriptpubkey_asm": "OP_0 OP_PUSHBYTES_20 c619c5bec0dbd15314ba6d61e50493920c4ed784",
        "scriptpubkey_type": "v0_p2wpkh",
        "scriptpubkey_address": "bc1qccvut0kqm0g4x996d4s72pynjgxya4uyvz9cr4",
        "value": 715038
      },
      "scriptsig": "",
      "scriptsig_asm": "",
      "witness": [
        "30440220093bf8141f570db1e44723c7203851572f90c35966456f5a7c1a26b98c25f4bb02203821693287c955f998eea8cf4165c380ed41354a46f963c64e1a27b69866c5c401",
        "0283c27c9b03278c1e9bbaa344a934f9c66b14f532951cf564cb4b789f7ef1f402"
      ],
      "is_coinbase": false,
      "sequence": 4294967295
    }
  ],
  "vout": [
    {
      "scriptpubkey": "00146147925eb9200ef8d9b02a95cb8f6c631e708a01",
      "scriptpubkey_asm": "OP_0 OP_PUSHBYTES_20 6147925eb9200ef8d9b02a95cb8f6c631e708a01",
      "scriptpubkey_type": "v0_p2wpkh",
      "scriptpubkey_address": "bc1qv9reyh4eyq803kds922uhrmvvv08pzspj67vls",
      "value": 354122
    },
    {
      "scriptpubkey": "0014c619c5bec0dbd15314ba6d61e50493920c4ed784",
      "scriptpubkey_asm": "OP_0 OP_PUSHBYTES_20 c619c5bec0dbd15314ba6d61e50493920c4ed784",
      "scriptpubkey_type": "v0_p2wpkh",
      "scriptpubkey_address": "bc1qccvut0kqm0g4x996d4s72pynjgxya4uyvz9cr4",
      "value": 358506
    }
  ],
  "size": 222,
  "weight": 561,
  "fee": 2410,
  "status": {
    "confirmed": true,
    "block_height": 834638,
    "block_hash": "000000000000000000025f742c626208ac87e0b7d15054abb4a19ca2d735a54e",
    "block_time": 1710405325
  },
  "hex": "02000000000101d071ad869ba7a987c0695b4259461c5a8e890ab2bc03c3bfd13d0aa52f34de560000000000ffffffff024a670500000000001600146147925eb9200ef8d9b02a95cb8f6c631e708a016a78050000000000160014c619c5bec0dbd15314ba6d61e50493920c4ed784024730440220093bf8141f570db1e44723c7203851572f90c35966456f5a7c1a26b98c25f4bb02203821693287c955f998eea8cf4165c380ed41354a46f963c64e1a27b69866c5c401210283c27c9b03278c1e9bbaa344a934f9c66b14f532951cf564cb4b789f7ef1f40200000000"
}