{
  "txid": "2a71c8abbe494f5a7b77e210023aba67ee3ad72873d80d9106a6a904cb08110d",
  "version": 2,
  "locktime": 0,
  "vin": [
    {
      "txid": "e0f32eea489a7b23e1c85d27f5713904b778e544351306fbe1953acbc8afb3a6",
      "vout": 0,
      "prevout": {
        "scriptpubkey": "51200c6c77ced3f9ffd1648903a47bf10d369a6dcc4d785be171522e206c75e5eab0",
        "scriptpubkey_asm": "OP_PUSHNUM_1 OP_PUSHBYTES_32 0c6c77ced3f9ffd1648903a47bf10d369a6dcc4d785be171522e206c75e5eab0",
        "scriptpubkey_type": "v1_p2tr",
        "scriptpubkey_address": "bc1pp3k80nknl8lazeyfqwj8hugdx6dxmnzd0pd7zu2j9csxca09a2cq9jprqg",
        "value": 750000
      },
      "scriptsig": "",
      "scriptsig_asm": "",
      "witness": [
        "620c8cada619480981db91b963d6ccb4b4708335ee8d6ba7fc203422484b67b2f58775beb84f1232964a29ac1cc0be1dd3c716aedfc92807589aa49de78d337e"
      ],
      "is_coinbase": false,
      "sequence": 4294967295
    }
  ],
  "vout": [
    {
      "scriptpubkey": "a9143828e426c8134cf094da4c64ff61a4268672c07c87",
      "scriptpubkey_asm": "OP_HASH160 OP_PUSHBYTES_20 3828e426c8134cf094da4c64ff61a4268672c07c OP_EQUAL",
      "scriptpubkey_type": "p2sh",
      "scriptpubkey_address": "36oxkTWKGKTsLks6C1iVqrouTTLhKSzTtE",
      "value": 747855
    }
  ],
  "size": 151,
  "weight": 400,
  "fee": 2145,
  "status": {
    "confirmed": true,
    "block_height": 834638,
    "block_hash": "000000000000000000025f742c626208ac87e0b7d15054abb4a19ca2d735a54e",
    "block_time": 1710405325
  },
  "hex": "02000000000101a6b3afc8cb3a95e1fb06133544e578b7043971f5275dc8e1237b9a48ea2ef3e00000000000ffffffff014f690b000000000017a9143828e426c8134cf094da4c64ff61a4268672c07c870140620c8cada619480981db91b963d6ccb4b4708335ee8d6ba7fc203422484b67b2f58775beb84f1232964a29ac1cc0be1dd3c716aedfc92807589aa49de78d337e00000000"
}