{
  "txid": "2a77e5dcff25bb79934ea02150cc90d1e969a7f5abd4759212be578d72d611b1",
  "version": 2,
  "locktime": 0,
  "vin": [
    {
      "txid": "2e96e5c17e44f5f8f2f163ae467ee11d45931b0ab1139a601b1ac94e8ff0cc2d",
      "vout": 3,
      "prevout": {
        "scriptpubkey": "512008b89b92c73604750cae4958be37fafb8649fd3ec6f8d58cb78913d87e1f47b4",
        "scriptpubkey_asm": "OP_PUSHNUM_1 OP_PUSHBYTES_32 08b89b92c73604750cae4958be37fafb8649fd3ec6f8d58cb78913d87e1f47b4",
        "scriptpubkey_type": "v1_p2tr",
        "scriptpubkey_address": "bc1ppzufhyk8xcz82r9wf9vtudl6lwrynlf7cmudtr9h3yfaslslg76qg52hd3",
        "value": 600
      },
      "scriptsig": "",
      "scriptsig_asm": "",
      "witness": [
        "907146c55e7c191f0e178f0f750afa68bb35705d5f2d651c4c49c21b46469c70e8e74538ae37515a13eb797458f93382c70d6d8369526aa2b68d2be7e979c035"
      ],
      "is_coinbase": false,
      "sequence": 4294967295
    },
    {
      "txid": "2e96e5c17e44f5f8f2f163ae467ee11d45931b0ab1139a601b1ac94e8ff0cc2d",
      "vout": 4,
      "prevout": {
        "scriptpubkey": "512008b89b92c73604750cae4958be37fafb8649fd3ec6f8d58cb78913d87e1f47b4",
        "scriptpubkey_asm": "OP_PUSHNUM_1 OP_PUSHBYTES_32 08b89b92c73604750cae4958be37fafb8649fd3ec6f8d58cb78913d87e1f47b4",
        "scriptpubkey_type": "v1_p2tr",
        "scriptpubkey_address": "bc1ppzufhyk8xcz82r9wf9vtudl6lwrynlf7cmudtr9h3yfaslslg76qg52hd3",
        "value": 600
      },
      "scriptsig": "",
      "scriptsig_asm": "",
      "witness": [
        "3b118099fcc6d0a155da1721e7e88ca7f550f7b56fb81f6355901f3299032e01a22e1414d707b58f594b60957a5212aa6cf897340f9e9c498db038c36a84da27"
      ],
      "is_coinbase": false,
      "sequence": 4294967295
    },
    {
      "txid": "17f3f396a62ae82b9db4df213bb08f871c64227445f39381882e1fa06a5c76ba",
      "vout": 1,
      "prevout": {
        "scriptpubkey": "5120c425353b9c1b3f157d56fcd8fb25e18eb0b9795d3c5f27419a99b45d41482393",
        "scriptpubkey_asm": "OP_PUSHNUM_1 OP_PUSHBYTES_32 c425353b9c1b3f157d56fcd8fb25e18eb0b9795d3c5f27419a99b45d41482393",
        "scriptpubkey_type": "v1_p2tr",
        "scriptpubkey_address": "bc1pcsjn2wuurvl32l2klnv0kf0p36ctj72a830jwsv6nx696s2gywfs7ash2w",
        "value": 546
      },
      "scriptsig": "",
      "scriptsig_asm": "",
      "witness": [
        "6e1c5cede1415fdc05f5a58d2d356cfce608e9ac4c91b541e16584e6fffd2e33cb6d27b5a0db2e88758611b4a8744cfe9153546696e5dc27a1cbab5381c979c083"
      ],
      "is_coinbase": false,
      "sequence": 4294967295
    },
    {
      "txid": "2e96e5c17e44f5f8f2f163ae467ee11d45931b0ab1139a601b1ac94e8ff0cc2d",
      "vout": 5,
      "prevout": {
        "scriptpubkey": "512008b89b92c73604750cae4958be37fafb8649fd3ec6f8d58cb78913d87e1f47b4",
        "scriptpubkey_asm": "OP_PUSHNUM_1 OP_PUSHBYTES_32 08b89b92c73604750cae4958be37fafb8649fd3ec6f8d58cb78913d87e1f47b4",
        "scriptpubkey_type": "v1_p2tr",
        "scriptpubkey_address": "bc1ppzufhyk8xcz82r9wf9vtudl6lwrynlf7cmudtr9h3yfaslslg76qg52hd3",
        "value": 137395
      },
      "scriptsig": "",
      "scriptsig_asm": "",
      "witness": [
        "9f577288ec45e5a62a530ab59b5fd4ab9617b7e753c35482897fe82e19db393204242a4b009fafc3a901d622b353aadf7f2d2b6c411349c7b4224ac02cb4c6ee"
      ],
      "is_coinbase": false,
      "sequence": 4294967295
    },
    {
      "txid": "455cc62f51ac3949114f8ef37c59aab557bcd2bd68db0b2aa27b343543fd10a6",
      "vout": 1,
      "prevout": {
        "scriptpubkey": "512008b89b92c73604750cae4958be37fafb8649fd3ec6f8d58cb78913d87e1f47b4",
        "scriptpubkey_asm": "OP_PUSHNUM_1 OP_PUSHBYTES_32 08b89b92c73604750cae4958be37fafb8649fd3ec6f8d58cb78913d87e1f47b4",
        "scriptpubkey_type": "v1_p2tr",
        "scriptpubkey_address": "bc1ppzufhyk8xcz82r9wf9vtudl6lwrynlf7cmudtr9h3yfaslslg76qg52hd3",
        "value": 20400
      },
      "scriptsig": "",
      "scriptsig_asm": "",
      "witness": [
        "1b1681a2426c6064ea33185c95dd70978c267bf6abd1e4659be2a3808a78d2b938b506d3954be0f1976de060bcf2ce91850e46913ba6484fea4a3909575d52ea"
      ],
      "is_coinbase": false,
      "sequence": 4294967295
    }
  ],
  "vout": [
    {
      "scriptpubkey": "512008b89b92c73604750cae4958be37fafb8649fd3ec6f8d58cb78913d87e1f47b4",
      "scriptpubkey_asm": "OP_PUSHNUM_1 OP_PUSHBYTES_32 08b89b92c73604750cae4958be37fafb8649fd3ec6f8d58cb78913d87e1f47b4",
      "scriptpubkey_type": "v1_p2tr",
      "scriptpubkey_address": "bc1ppzufhyk8xcz82r9wf9vtudl6lwrynlf7cmudtr9h3yfaslslg76qg52hd3",
      "value": 1200
    },
    {
      "scriptpubkey": "512008b89b92c73604750cae4958be37fafb8649fd3ec6f8d58cb78913d87e1f47b4",
      "scriptpubkey_asm": "OP_PUSHNUM_1 OP_PUSHBYTES_32 08b89b92c73604750cae4958be37fafb8649fd3ec6f8d58cb78913d87e1f47b4",
      "scriptpubkey_type": "v1_p2tr",
      "scriptpubkey_address": "bc1ppzufhyk8xcz82r9wf9vtudl6lwrynlf7cmudtr9h3yfaslslg76qg52hd3",
      "value": 546
    },
    {
      "scriptpubkey": "5120c425353b9c1b3f157d56fcd8fb25e18eb0b9795d3c5f27419a99b45d41482393",
      "scriptpubkey_asm": "OP_PUSHNUM_1 OP_PUSHBYTES_32 c425353b9c1b3f157d56fcd8fb25e18eb0b9795d3c5f27419a99b45d41482393",
      "scriptpubkey_type": "v1_p2tr",
      "scriptpubkey_address": "bc1pcsjn2wuurvl32l2klnv0kf0p36ctj72a830jwsv6nx696s2gywfs7ash2w",
      "value": 139000
    },
    {
      "scriptpubkey": "512008b89b92c73604750cae4958be37fafb8649fd3ec6f8d58cb78913d87e1f47b4",
      "scriptpubkey_asm": "OP_PUSHNUM_1 OP_PUSHBYTES_32 08b89b92c73604750cae4958be37fafb8649fd3ec6f8d58cb78913d87e1f47b4",
      "scriptpubkey_type": "v1_p2tr",
      "scriptpubkey_address": "bc1ppzufhyk8xcz82r9wf9vtudl6lwrynlf7cmudtr9h3yfaslslg76qg52hd3",
      "value": 600
    },
    {
      "scriptpubkey": "512008b89b92c73604750cae4958be37fafb8649fd3ec6f8d58cb78913d87e1f47b4",
      "scriptpubkey_asm": "OP_PUSHNUM_1 OP_PUSHBYTES_32 08b89b92c73604750cae4958be37fafb8649fd3ec6f8d58cb78913d87e1f47b4",
      "scriptpubkey_type": "v1_p2tr",
      "scriptpubkey_address": "bc1ppzufhyk8xcz82r9wf9vtudl6lwrynlf7cmudtr9h3yfaslslg76qg52hd3",
      "value": 600
    },
    {
      "scriptpubkey": "512008b89b92c73604750cae4958be37fafb8649fd3ec6f8d58cb78913d87e1f47b4",
      "scriptpubkey_asm": "OP_PUSHNUM_1 OP_PUSHBYTES_32 08b89b92c73604750cae4958be37fafb8649fd3ec6f8d58cb78913d87e1f47b4",
      "scriptpubkey_type": "v1_p2tr",
      "scriptpubkey_address": "bc1ppzufhyk8xcz82r9wf9vtudl6lwrynlf7cmudtr9h3yfaslslg76qg52hd3",
      "value": 11468
    }
  ],
  "size": 806,
  "weight": 2225,
  "fee": 6127,
  "status": {
    "confirmed": true,
    "block_height": 834464,
    "block_hash": "0000000000000000000177a0869a911a2b65c9bdcd5a8bcb02b68f305bee848e",
    "block_time": 1710308296
  },
  "hex": "020000000001052dccf08f4ec91a1b609a13b10a1b93451de17e46ae63f1f2f8f5447ec1e5962e0300000000ffffffff2dccf08f4ec91a1b609a13b10a1b93451de17e46ae63f1f2f8f5447ec1e5962e0400000000ffffffffba765c6aa01f2e888193f3457422641c878fb03b21dfb49d2be82aa696f3f3170100000000ffffffff2dccf08f4ec91a1b609a13b10a1b93451de17e46ae63f1f2f8f5447ec1e5962e0500000000ffffffffa610fd4335347ba22a0bdb68bdd2bc57b5aa597cf38e4f114939ac512fc65c450100000000ffffffff06b00400000000000022512008b89b92c73604750cae4958be37fafb8649fd3ec6f8d58cb78913d87e1f47b4220200000000000022512008b89b92c73604750cae4958be37fafb8649fd3ec6f8d58cb78913d87e1f47b4f81e020000000000225120c425353b9c1b3f157d56fcd8fb25e18eb0b9795d3c5f27419a99b45d41482393580200000000000022512008b89b92c73604750cae4958be37fafb8649fd3ec6f8d58cb78913d87e1f47b4580200000000000022512008b89b92c73604750cae4958be37fafb8649fd3ec6f8d58cb78913d87e1f47b4cc2c00000000000022512008b89b92c73604750cae4958be37fafb8649fd3ec6f8d58cb78913d87e1f47b40140907146c55e7c191f0e178f0f750afa68bb35705d5f2d651c4c49c21b46469c70e8e74538ae37515a13eb797458f93382c70d6d8369526aa2b68d2be7e979c03501403b118099fcc6d0a155da1721e7e88ca7f550f7b56fb81f6355901f3299032e01a22e1414d707b58f594b60957a5212aa6cf897340f9e9c498db038c36a84da2701416e1c5cede1415fdc05f5a58d2d356cfce608e9ac4c91b541e16584e6fffd2e33cb6d27b5a0db2e88758611b4a8744cfe9153546696e5dc27a1cbab5381c979c08301409f577288ec45e5a62a530ab59b5fd4ab9617b7e753c35482897fe82e19db393204242a4b009fafc3a901d622b353aadf7f2d2b6c411349c7b4224ac02cb4c6ee01401b1681a2426c6064ea33185c95dd70978c267bf6abd1e4659be2a3808a78d2b938b506d3954be0f1976de060bcf2ce91850e46913ba6484fea4a3909575d52ea00000000"
}