{
  "txid": "2a86d46e4403c4c63ae49cdee6e9e28b0eacebf2f1f3b6008d076e12b40fdfde",
  "version": 1,
  "locktime": 0,
  "vin": [
    {
      "txid": "df27bb3c113f54a267ceef28a9f78ef3f1a83c65066f8e438ab63daa3b0ae7af",
      "vout": 1,
      "prevout": {
        "scriptpubkey": "0014902b3c57c449a33fa3a208932ed3586a886a5361",
        "scriptpubkey_asm": "OP_0 OP_PUSHBYTES_20 902b3c57c449a33fa3a208932ed3586a886a5361",
        "scriptpubkey_type": "v0_p2wpkh",
        "scriptpubkey_address": "bc1qjq4nc47yfx3nlgazpzfja56cd2yx55mpjx4yp2",
        "value": 428551
      },
      "scriptsig": "",
      "scriptsig_asm": "",
      "witness": [
        "304402200f02c9724e9a3a3e1ee81721c5baed4df6ed1941f2fd8a6def38941eab6cf08c0220633aefc23a76cb83bb8429f860e471a6a8085860a5b7c4a50198062e490ca24701",
        "02fe18569cf05e4b5b76e4b17c63af4500bebcc9866afadf7190d0f423dca82e3f"
      ],
      "is_coinbase": false,
      "sequence": 4294967295
    }
  ],
  "vout": [
    {
      "scriptpubkey": "76a9143d4c26634583d4d28704301227397023010f44f188ac",
      "scriptpubkey_asm": "OP_DUP OP_HASH160 OP_PUSHBYTES_20 3d4c26634583d4d28704301227397023010f44f1 OP_EQUALVERIFY OP_CHECKSIG",
      "scriptpubkey_type": "p2pkh",
      "scriptpubkey_address": "16b7ShCaP8qLJXfufh9Bihx2395oeWKSfJ",
      "value": 416000
    },
    {
      "scriptpubkey": "0014902b3c57c449a33fa3a208932ed3586a886a5361",
      "scriptpubkey_asm": "OP_0 OP_PUSHBYTES_20 902b3c57c449a33fa3a208932ed3586a886a5361",
      "scriptpubkey_type": "v0_p2wpkh",
      "scriptpubkey_address": "bc1qjq4nc47yfx3nlgazpzfja56cd2yx55mpjx4yp2",
      "value": 8663
    }
  ],
  "size": 225,
  "weight": 573,
  "fee": 3888,
  "status": {
    "confirmed": true,
    "block_height": 834464,
    "block_hash": "0000000000000000000177a0869a911a2b65c9bdcd5a8bcb02b68f305bee848e",
    "block_time": 1710308296
  },
  "hex": "01000000000101afe70a3baa3db68a438e6f06653ca8f1f38ef7a928efce67a2543f113cbb27df0100000000ffffffff0200590600000000001976a9143d4c26634583d4d28704301227397023010f44f188acd721000000000000160014902b3c57c449a33fa3a208932ed3586a886a53610247304402200f02c9724e9a3a3e1ee81721c5baed4df6ed1941f2fd8a6def38941eab6cf08c0220633aefc23a76cb83bb8429f860e471a6a8085860a5b7c4a50198062e490ca247012102fe18569cf05e4b5b76e4b17c63af4500bebcc9866afadf7190d0f423dca82e3f00000000"
}