{
  "txid": "2a91a4c02433af6c9d3732d34f6a15ac81914e239b1486aa0a2582e8b0572b5a",
  "version": 1,
  "locktime": 0,
  "vin": [
    {
      "txid": "31c76d68f2ae14ddf5b464036a6036dd4ee430d9d5e34a4ab9d7f3a152c62594",
      "vout": 0,
      "prevout": {
        "scriptpubkey": "a914d2d07df2a06a66f00c5342a02bbab6bbd537dfde87",
        "scriptpubkey_asm": "OP_HASH160 OP_PUSHBYTES_20 d2d07df2a06a66f00c5342a02bbab6bbd537dfde OP_EQUAL",
        "scriptpubkey_type": "p2sh",
        "scriptpubkey_address": "3Luhb73rQustNxv5RVsKjbwwbiF1BLKTVL",
        "value": 7663355
      },
      "scriptsig": "16001427de1cc829895e0c5a8b412a22260857110c8098",
      "scriptsig_asm": "OP_PUSHBYTES_22 001427de1cc829895e0c5a8b412a22260857110c8098",
      "witness": [
        "3045022100846af20ea7f47c27895943a826b4f797aeb468418f523a742121d66b1195c519022007ceff5475fba871feabf77556147184ac2d36a1fe49b8fdd34b54604391ae2e01",
        "02126a4277cddaf2d051ce3da298374e3891a8f1d8c9085368682337d440b3bea4"
      ],
      "is_coinbase": false,
      "sequence": 4294967293,
      "inner_redeemscript_asm": "OP_0 OP_PUSHBYTES_20 27de1cc829895e0c5a8b412a22260857110c8098"
    },
    {
      "txid": "a187ca88164e40652818dce6fda981e3960add382e81358bfbe3dd876d783ddb",
      "vout": 74,
      "prevout": {
        "scriptpubkey": "a914c87f876c6eb00f597e1bbd5ce77d202f9902bac487",
        "scriptpubkey_asm": "OP_HASH160 OP_PUSHBYTES_20 c87f876c6eb00f597e1bbd5ce77d202f9902bac4 OP_EQUAL",
        "scriptpubkey_type": "p2sh",
        "scriptpubkey_address": "3Ky9qnC7Hcj1ubeS4TzaR7p1VkA77rqSs4",
        "value": 1667938
      },
      "scriptsig": "160014ebfe4bfa38bdc328f0515f06b35e3f5f77a2c1ab",
      "scriptsig_asm": "OP_PUSHBYTES_22 0014ebfe4bfa38bdc328f0515f06b35e3f5f77a2c1ab",
      "witness": [
        "3045022100f0ee6eaa233a761c3e657497c677fe80d0e6f363bdd42256e66c82ede1617d260220520481266f4daaefbd9f1d17360544a3ae4864b4542293c2d4d8b6f65e067b5e01",
        "028338f9afe28528b4d3500bc291b9ead7a127de0593d9732b60fc8580716be6ab"
      ],
      "is_coinbase": false,
      "sequence": 4294967293,
      "inner_redeemscript_asm": "OP_0 OP_PUSHBYTES_20 ebfe4bfa38bdc328f0515f06b35e3f5f77a2c1ab"
    },
    {
      "txid": "c4faff810e898a013f1cb787591c242c98260b8a8e8bcbddbc7eed3c59a22c42",
      "vout": 1,
      "prevout": {
        "scriptpubkey": "a914d2d07df2a06a66f00c5342a02bbab6bbd537dfde87",
        "scriptpubkey_asm": "OP_HASH160 OP_PUSHBYTES_20 d2d07df2a06a66f00c5342a02bbab6bbd537dfde OP_EQUAL",
        "scriptpubkey_type": "p2sh",
        "scriptpubkey_address": "3Luhb73rQustNxv5RVsKjbwwbiF1BLKTVL",
        "value": 1933525
      },
      "scriptsig": "16001427de1cc829895e0c5a8b412a22260857110c8098",
      "scriptsig_asm": "OP_PUSHBYTES_22 001427de1cc829895e0c5a8b412a22260857110c8098",
      "witness": [
        "30450221008bc570c728d4c96b60f4bc8cee00d2773701011b5dd97a35f72fea14362d2b220220427988839286f7cc8915a1d2ec4e62696718fac35a1094d7368aa8956f4eb7f801",
        "02126a4277cddaf2d051ce3da298374e3891a8f1d8c9085368682337d440b3bea4"
      ],
      "is_coinbase": false,
      "sequence": 4294967293,
      "inner_redeemscript_asm": "OP_0 OP_PUSHBYTES_20 27de1cc829895e0c5a8b412a22260857110c8098"
    }
  ],
  "vout": [
    {
      "scriptpubkey": "a914b7d9b72282ff96d0d6c63f5d3854975a9618350387",
      "scriptpubkey_asm": "OP_HASH160 OP_PUSHBYTES_20 b7d9b72282ff96d0d6c63f5d3854975a96183503 OP_EQUAL",
      "scriptpubkey_type": "p2sh",
      "scriptpubkey_address": "3JT8Pn4wQcahWYgnpgW1Sm7GgFy7gwxoh9",
      "value": 1260654
    },
    {
      "scriptpubkey": "001405460f3d27e3dc3ee588f7a06b2ea07e15190dcc",
      "scriptpubkey_asm": "OP_0 OP_PUSHBYTES_20 05460f3d27e3dc3ee588f7a06b2ea07e15190dcc",
      "scriptpubkey_type": "v0_p2wpkh",
      "scriptpubkey_address": "bc1qq4rq70f8u0wraevg77sxkt4q0c23jrwv5vsd5k",
      "value": 10000000
    }
  ],
  "size": 591,
  "weight": 1386,
  "fee": 4164,
  "status": {
    "confirmed": true,
    "block_height": 834460,
    "block_hash": "00000000000000000000484a79b643b2524bbce82e5d8a442013fa5b8905ed98",
    "block_time": 1710307468
  },
  "hex": "010000000001039425c652a1f3d7b94a4ae3d5d930e44edd36606a0364b4f5dd14aef2686dc731000000001716001427de1cc829895e0c5a8b412a22260857110c8098fdffffffdb3d786d87dde3fb8b35812e38dd0a96e381a9fde6dc182865404e1688ca87a14a00000017160014ebfe4bfa38bdc328f0515f06b35e3f5f77a2c1abfdffffff422ca2593ced7ebcddcb8b8e8a0b26982c241c5987b71c3f018a890e81fffac4010000001716001427de1cc829895e0c5a8b412a22260857110c8098fdffffff026e3c13000000000017a914b7d9b72282ff96d0d6c63f5d3854975a9618350387809698000000000016001405460f3d27e3dc3ee588f7a06b2ea07e15190dcc02483045022100846af20ea7f47c27895943a826b4f797aeb468418f523a742121d66b1195c519022007ceff5475fba871feabf77556147184ac2d36a1fe49b8fdd34b54604391ae2e012102126a4277cddaf2d051ce3da298374e3891a8f1d8c9085368682337d440b3bea402483045022100f0ee6eaa233a761c3e657497c677fe80d0e6f363bdd42256e66c82ede1617d260220520481266f4daaefbd9f1d17360544a3ae4864b4542293c2d4d8b6f65e067b5e0121028338f9afe28528b4d3500bc291b9ead7a127de0593d9732b60fc8580716be6ab024830450221008bc570c728d4c96b60f4bc8cee00d2773701011b5dd97a35f72fea14362d2b220220427988839286f7cc8915a1d2ec4e62696718fac35a1094d7368aa8956f4eb7f8012102126a4277cddaf2d051ce3da298374e3891a8f1d8c9085368682337d440b3bea400000000"
}