{
  "txid": "2a9bcabe1748c6b7b26ed323f5bb7aee44ba13c0675581cb0e651ab68f499d4a",
  "version": 2,
  "locktime": 0,
  "vin": [
    {
      "txid": "acc3ba00869acb582a3f2904ce3a11dd3779350ce234063fc7d0959246213364",
      "vout": 118,
      "prevout": {
        "scriptpubkey": "5120cf111b396a0d6df2c2499524eb3315c39b0a67aaac933638222d05c93dcb020b",
        "scriptpubkey_asm": "OP_PUSHNUM_1 OP_PUSHBYTES_32 cf111b396a0d6df2c2499524eb3315c39b0a67aaac933638222d05c93dcb020b",
        "scriptpubkey_type": "v1_p2tr",
        "scriptpubkey_address": "bc1peug3kwt2p4kl9sjfj5jwkvc4cwds5ea24jfnvwpz95zuj0wtqg9s7enme0",
        "value": 1806
      },
      "scriptsig": "",
      "scriptsig_asm": "",
      "witness": [
        "14224d14e1107c7d74c85ec00e169e6dd75e92993341868d1a91e9081699f6f3ca43b17d195e8989882bff05aea3a8cf1b505c9213e7f8dbc8f6189e318c6255",
        "20609661bb9a7bcc8d019e7830d4093f0027f7c41a6da4eb236d98ca7a65dd07f5ac0063036f726401010a746578742f706c61696e00357b2270223a226272632d3230222c226f70223a226d696e74222c227469636b223a22646f6765222c22616d74223a2234323030227d68",
        "c0609661bb9a7bcc8d019e7830d4093f0027f7c41a6da4eb236d98ca7a65dd07f5"
      ],
      "is_coinbase": false,
      "sequence": 4261412863
    }
  ],
  "vout": [
    {
      "scriptpubkey": "00147a665de7a370f4c9b372ab1fae587500a5bcbdb4",
      "scriptpubkey_asm": "OP_0 OP_PUSHBYTES_20 7a665de7a370f4c9b372ab1fae587500a5bcbdb4",
      "scriptpubkey_type": "v0_p2wpkh",
      "scriptpubkey_address": "bc1q0fn9mearwr6vnvmj4v06ukr4qzjme0d565dzcx",
      "value": 294
    }
  ],
  "size": 294,
  "weight": 540,
  "fee": 1512,
  "status": {
    "confirmed": true,
    "block_height": 834460,
    "block_hash": "00000000000000000000484a79b643b2524bbce82e5d8a442013fa5b8905ed98",
    "block_time": 1710307468
  },
  "hex": "02000000000101643321469295d0c73f0634e20c357937dd113ace04293f2a58cb9a8600bac3ac7600000000fffffffd0126010000000000001600147a665de7a370f4c9b372ab1fae587500a5bcbdb4034014224d14e1107c7d74c85ec00e169e6dd75e92993341868d1a91e9081699f6f3ca43b17d195e8989882bff05aea3a8cf1b505c9213e7f8dbc8f6189e318c62556d20609661bb9a7bcc8d019e7830d4093f0027f7c41a6da4eb236d98ca7a65dd07f5ac0063036f726401010a746578742f706c61696e00357b2270223a226272632d3230222c226f70223a226d696e74222c227469636b223a22646f6765222c22616d74223a2234323030227d6821c0609661bb9a7bcc8d019e7830d4093f0027f7c41a6da4eb236d98ca7a65dd07f500000000"
}