{
  "txid": "2aa77a090823b10d01e1023ff86c2577f23af0b4e10abf5a2baf069a606707c7",
  "version": 1,
  "locktime": 0,
  "vin": [
    {
      "txid": "5fb4b80f88517cf7234213850664110853445a27da0df39c711e6674a835bb69",
      "vout": 1,
      "prevout": {
        "scriptpubkey": "001484708da21a193cc9e937589e2f697ff494db870d",
        "scriptpubkey_asm": "OP_0 OP_PUSHBYTES_20 84708da21a193cc9e937589e2f697ff494db870d",
        "scriptpubkey_type": "v0_p2wpkh",
        "scriptpubkey_address": "bc1qs3cgmgs6ry7vn6fhtz0z76tl7j2dhpcdavxuwy",
        "value": 327200
      },
      "scriptsig": "",
      "scriptsig_asm": "",
      "witness": [
        "304402201369d7a7442635138ea47ef55d7dde116a3ca2922bf5f5770aeb55dd870f4cb5022009cfc352a6693acc011728a0b7093c46f0f48500041a7f3e06ec42c9374c81bf01",
        "0365453f4839d94fb38cc6abb7d5d50be0a44be9731789d1421ec2a8c1ec70ca17"
      ],
      "is_coinbase": false,
      "sequence": 4294967295
    }
  ],
  "vout": [
    {
      "scriptpubkey": "a9149743c2945c2a775e8223f55003eea074ce782ffd87",
      "scriptpubkey_asm": "OP_HASH160 OP_PUSHBYTES_20 9743c2945c2a775e8223f55003eea074ce782ffd OP_EQUAL",
      "scriptpubkey_type": "p2sh",
      "scriptpubkey_address": "3FUq8ZbTvTCiU2KWhENDv15mwzFhtnEuV2",
      "value": 135900
    },
    {
      "scriptpubkey": "001471e20e7d3cf24331593fd329d77dfb08b69a080d",
      "scriptpubkey_asm": "OP_0 OP_PUSHBYTES_20 71e20e7d3cf24331593fd329d77dfb08b69a080d",
      "scriptpubkey_type": "v0_p2wpkh",
      "scriptpubkey_address": "bc1qw83qulfu7fpnzkfl6v5awl0mpzmf5zqddt2n3y",
      "value": 188485
    }
  ],
  "size": 223,
  "weight": 565,
  "fee": 2815,
  "status": {
    "confirmed": true,
    "block_height": 834638,
    "block_hash": "000000000000000000025f742c626208ac87e0b7d15054abb4a19ca2d735a54e",
    "block_time": 1710405325
  },
  "hex": "0100000000010169bb35a874661e719cf30dda275a44530811640685134223f77c51880fb8b45f0100000000ffffffff02dc1202000000000017a9149743c2945c2a775e8223f55003eea074ce782ffd8745e002000000000016001471e20e7d3cf24331593fd329d77dfb08b69a080d0247304402201369d7a7442635138ea47ef55d7dde116a3ca2922bf5f5770aeb55dd870f4cb5022009cfc352a6693acc011728a0b7093c46f0f48500041a7f3e06ec42c9374c81bf01210365453f4839d94fb38cc6abb7d5d50be0a44be9731789d1421ec2a8c1ec70ca1700000000"
}