{
  "txid": "2aae23125a349be545cf1b1220b3f04ad5ac648de82b9bc62ca678a1fec7d5cb",
  "version": 2,
  "locktime": 0,
  "vin": [
    {
      "txid": "e6994ca594a1fc4a2cd1052cde7558b0f7211f251f2ca4db34a79e3649e3f7f7",
      "vout": 0,
      "prevout": {
        "scriptpubkey": "512003cd6c401b0a030e7cb358a4fbc15c49d8c137e3ab467a5647bb31d602a6d6b5",
        "scriptpubkey_asm": "OP_PUSHNUM_1 OP_PUSHBYTES_32 03cd6c401b0a030e7cb358a4fbc15c49d8c137e3ab467a5647bb31d602a6d6b5",
        "scriptpubkey_type": "v1_p2tr",
        "scriptpubkey_address": "bc1pq0xkcsqmpgpsul9ntzj0hs2uf8vvzdlr4dr854j8hvcavq4x666s93jesu",
        "value": 4880
      },
      "scriptsig": "",
      "scriptsig_asm": "",
      "witness": [
        "5d916b6ae67a1774b9003b30556b0670cede9759fbe45c3db3da3927f748ae0ed80f83b1ac4e6fb2c4a25b85af643ad0c516ed55c96265516e296183aaf69bbb",
        "20bb89adc627713ae94582d3d5b84c3fca2f6526b8c51175116edb9919f9e6ee1aac0063036f7264010117746578742f68746d6c3b636861727365743d7574662d3801054ce0ae646e616d65744672656e6368204d6f6e74616e612023343339366b6465736372697074696f6e6e4672656e6368204d6f6e74616e616a4261636b67726f756e6467236636366530356448616c6f65426c6f6f6d64536b696e613169536b656c65626f6479644e6f6e656448656164684d616344616464796445796573644e6f6e6563486174644e6f6e6568436c6f7468696e67724e6f4c6f766572734c656674426568696e6465436861696e6a476f696e67546f57617264486f6f646a436173696e6f4c6966656648656164657265416c62756d65466c616972645843414c004d08023c7363726970740a2020202069643d226f72642d726f6f74220a202020207372633d222f636f6e74656e742f386336336232636334336138623863613339346563333461666630373534346335336437383931613133643632613164353066613439373666376237633136386930220a20202020646174612d623d2223663636653035220a20202020646174612d6c3d275b222f636f6e74656e742f326361613463313365366438356536636162356436323933646364313436633236373138333335303737333132383235656338366265393533666332343666346930222c20222f636f6e74656e742f306635633237656566653339656237326533396362346639343061383166323936613666643133643635653661623933346639306134393339376430653038376930222c20222f636f6e74656e742f336338653439373332653934336565353536343132386665616138383837353637393839303261613961333663356663313565663534343034306330666466346930222c20222f636f6e74656e742f393266623433666234363530373235323066323739613763323836626536383937613964626164366163343431613833376330653234303161393962313238626930222c20222f636f6e74656e742f6335363435643465643137376231643866653631303837313162616139393462633266326266336361363331646631614d0e01363435306366383339333966333233336930222c20222f636f6e74656e742f323938653230393034316432636265303234613732346365633666363331626137306231376564613734373138333866373730646333616461643032303636326930222c20222f636f6e74656e742f376339353435383435356532653161623839343931663734633839356463633637353939343162626632616632373932363966373532366137616431383366666930222c20222f636f6e74656e742f396433346162386532393437313362323163346631306639326365616133613933373334303766393562653832343765623464333736326266396564396165336930225d273e0a3c2f7363726970743e0a68",
        "c0bb89adc627713ae94582d3d5b84c3fca2f6526b8c51175116edb9919f9e6ee1a"
      ],
      "is_coinbase": false,
      "sequence": 4294967293
    }
  ],
  "vout": [
    {
      "scriptpubkey": "5120682d656d6433661a394da6fdcf2bd4598c8ff36ddefba20c2560edd9182a94b0",
      "scriptpubkey_asm": "OP_PUSHNUM_1 OP_PUSHBYTES_32 682d656d6433661a394da6fdcf2bd4598c8ff36ddefba20c2560edd9182a94b0",
      "scriptpubkey_type": "v1_p2tr",
      "scriptpubkey_address": "bc1pdqkk2mtyxdnp5w2d5m7u7275txxglumdmma6yrp9vrkajxp2jjcqz0jh6u",
      "value": 546
    }
  ],
  "size": 1291,
  "weight": 1573,
  "fee": 4334,
  "status": {
    "confirmed": true,
    "block_height": 834464,
    "block_hash": "0000000000000000000177a0869a911a2b65c9bdcd5a8bcb02b68f305bee848e",
    "block_time": 1710308296
  },
  "hex": "02000000000101f7f7e349369ea734dba42c1f251f21f7b05875de2c05d12c4afca194a54c99e60000000000fdffffff012202000000000000225120682d656d6433661a394da6fdcf2bd4598c8ff36ddefba20c2560edd9182a94b003405d916b6ae67a1774b9003b30556b0670cede9759fbe45c3db3da3927f748ae0ed80f83b1ac4e6fb2c4a25b85af643ad0c516ed55c96265516e296183aaf69bbbfd440420bb89adc627713ae94582d3d5b84c3fca2f6526b8c51175116edb9919f9e6ee1aac0063036f7264010117746578742f68746d6c3b636861727365743d7574662d3801054ce0ae646e616d65744672656e6368204d6f6e74616e612023343339366b6465736372697074696f6e6e4672656e6368204d6f6e74616e616a4261636b67726f756e6467236636366530356448616c6f65426c6f6f6d64536b696e613169536b656c65626f6479644e6f6e656448656164684d616344616464796445796573644e6f6e6563486174644e6f6e6568436c6f7468696e67724e6f4c6f766572734c656674426568696e6465436861696e6a476f696e67546f57617264486f6f646a436173696e6f4c6966656648656164657265416c62756d65466c616972645843414c004d08023c7363726970740a2020202069643d226f72642d726f6f74220a202020207372633d222f636f6e74656e742f386336336232636334336138623863613339346563333461666630373534346335336437383931613133643632613164353066613439373666376237633136386930220a20202020646174612d623d2223663636653035220a20202020646174612d6c3d275b222f636f6e74656e742f326361613463313365366438356536636162356436323933646364313436633236373138333335303737333132383235656338366265393533666332343666346930222c20222f636f6e74656e742f306635633237656566653339656237326533396362346639343061383166323936613666643133643635653661623933346639306134393339376430653038376930222c20222f636f6e74656e742f336338653439373332653934336565353536343132386665616138383837353637393839303261613961333663356663313565663534343034306330666466346930222c20222f636f6e74656e742f393266623433666234363530373235323066323739613763323836626536383937613964626164366163343431613833376330653234303161393962313238626930222c20222f636f6e74656e742f6335363435643465643137376231643866653631303837313162616139393462633266326266336361363331646631614d0e01363435306366383339333966333233336930222c20222f636f6e74656e742f323938653230393034316432636265303234613732346365633666363331626137306231376564613734373138333866373730646333616461643032303636326930222c20222f636f6e74656e742f376339353435383435356532653161623839343931663734633839356463633637353939343162626632616632373932363966373532366137616431383366666930222c20222f636f6e74656e742f396433346162386532393437313362323163346631306639326365616133613933373334303766393562653832343765623464333736326266396564396165336930225d273e0a3c2f7363726970743e0a6821c0bb89adc627713ae94582d3d5b84c3fca2f6526b8c51175116edb9919f9e6ee1a00000000"
}