{
  "txid": "2af29573578cf55118c8c6d3bac95887ef7c20a0cd0b782e608b80b92aff0ea1",
  "version": 2,
  "locktime": 0,
  "vin": [
    {
      "txid": "c6a9b2bb1e7b905cd966efd9c58e8898e1eacd48eae067b8efd3b553a3ba5104",
      "vout": 1,
      "prevout": {
        "scriptpubkey": "0014292d46f2863710939848bddef719a50064b4300e",
        "scriptpubkey_asm": "OP_0 OP_PUSHBYTES_20 292d46f2863710939848bddef719a50064b4300e",
        "scriptpubkey_type": "v0_p2wpkh",
        "scriptpubkey_address": "bc1q9yk5du5xxugf8xzghh00wxd9qpjtgvqwnl00k5",
        "value": 111043
      },
      "scriptsig": "",
      "scriptsig_asm": "",
      "witness": [
        "3045022100881da78a976d2ae882285b3e3c312171174adb8a07ec39e80577def2a8800952022078ad2d202d64d78c22066e8b3047224a9a657a970e5d756c6ab0c277117712b701",
        "0304593df398ebac64ad42c576407a417b5ee064c3c7eb95e62696b344e405aec9"
      ],
      "is_coinbase": false,
      "sequence": 4294967293
    }
  ],
  "vout": [
    {
      "scriptpubkey": "001437322f44610970bef6db45f18ad1be862cbe060b",
      "scriptpubkey_asm": "OP_0 OP_PUSHBYTES_20 37322f44610970bef6db45f18ad1be862cbe060b",
      "scriptpubkey_type": "v0_p2wpkh",
      "scriptpubkey_address": "bc1qxuez73rpp9ctaakmghcc45d7scktupstxztr57",
      "value": 106659
    }
  ],
  "size": 192,
  "weight": 438,
  "fee": 4384,
  "status": {
    "confirmed": true,
    "block_height": 834638,
    "block_hash": "000000000000000000025f742c626208ac87e0b7d15054abb4a19ca2d735a54e",
    "block_time": 1710405325
  },
  "hex": "020000000001010451baa353b5d3efb867e0ea48cdeae198888ec5d9ef66d95c907b1ebbb2a9c60100000000fdffffff01a3a001000000000016001437322f44610970bef6db45f18ad1be862cbe060b02483045022100881da78a976d2ae882285b3e3c312171174adb8a07ec39e80577def2a8800952022078ad2d202d64d78c22066e8b3047224a9a657a970e5d756c6ab0c277117712b701210304593df398ebac64ad42c576407a417b5ee064c3c7eb95e62696b344e405aec900000000"
}