{
  "txid": "2b04dca720c5f72999836cc47ae147bb163f9aaf548b0c7b501ce3bccee1894f",
  "version": 2,
  "locktime": 0,
  "vin": [
    {
      "txid": "e55b973c2720840edcf7cdd71d8d8a6717b96a65e04b10cd7f9bdd77668e630c",
      "vout": 1,
      "prevout": {
        "scriptpubkey": "51206a2a98e77e4f6cca637938f92f5dfbb2c5f8ba38ac8abf6868a3958c24b49693",
        "scriptpubkey_asm": "OP_PUSHNUM_1 OP_PUSHBYTES_32 6a2a98e77e4f6cca637938f92f5dfbb2c5f8ba38ac8abf6868a3958c24b49693",
        "scriptpubkey_type": "v1_p2tr",
        "scriptpubkey_address": "bc1pdg4f3em7fakv5cme8ruj7h0mktzl3w3c4j9t76rg5w2ccf95j6fsqxe47f",
        "value": 1261979
      },
      "scriptsig": "",
      "scriptsig_asm": "",
      "witness": [
        "55d7d59b4d1324d7fc3a7c1eb583380dace0615295d10d4b838aecf12f6ac6c7c767be3d7b28836a96f879bff1e822b387767155df0673e7301a9f608d449f70"
      ],
      "is_coinbase": false,
      "sequence": 4294967295
    }
  ],
  "vout": [
    {
      "scriptpubkey": "5120f875c9f7d63f1fc2605be95ab82da598459ea540a75115c019b90108590e211c",
      "scriptpubkey_asm": "OP_PUSHNUM_1 OP_PUSHBYTES_32 f875c9f7d63f1fc2605be95ab82da598459ea540a75115c019b90108590e211c",
      "scriptpubkey_type": "v1_p2tr",
      "scriptpubkey_address": "bc1plp6una7k8u0uyczma9dtstd9npzeaf2q5ag3tsqehyqsskgwyywqngznl4",
      "value": 87471
    },
    {
      "scriptpubkey": "51206a2a98e77e4f6cca637938f92f5dfbb2c5f8ba38ac8abf6868a3958c24b49693",
      "scriptpubkey_asm": "OP_PUSHNUM_1 OP_PUSHBYTES_32 6a2a98e77e4f6cca637938f92f5dfbb2c5f8ba38ac8abf6868a3958c24b49693",
      "scriptpubkey_type": "v1_p2tr",
      "scriptpubkey_address": "bc1pdg4f3em7fakv5cme8ruj7h0mktzl3w3c4j9t76rg5w2ccf95j6fsqxe47f",
      "value": 1172660
    }
  ],
  "size": 205,
  "weight": 616,
  "fee": 1848,
  "status": {
    "confirmed": true,
    "block_height": 834460,
    "block_hash": "00000000000000000000484a79b643b2524bbce82e5d8a442013fa5b8905ed98",
    "block_time": 1710307468
  },
  "hex": "020000000001010c638e6677dd9b7fcd104be0656ab917678a8d1dd7cdf7dc0e8420273c975be50100000000ffffffff02af55010000000000225120f875c9f7d63f1fc2605be95ab82da598459ea540a75115c019b90108590e211cb4e41100000000002251206a2a98e77e4f6cca637938f92f5dfbb2c5f8ba38ac8abf6868a3958c24b49693014055d7d59b4d1324d7fc3a7c1eb583380dace0615295d10d4b838aecf12f6ac6c7c767be3d7b28836a96f879bff1e822b387767155df0673e7301a9f608d449f7000000000"
}