{
  "txid": "2b134c99cd4e74b86aca4fcf3af32940f4060a106d9b750634d58a6643d70d8f",
  "version": 2,
  "locktime": 0,
  "vin": [
    {
      "txid": "67a54aa6bdbe711d12100192fcb22dbfd0df60852736485537dc2dbc4d53f43d",
      "vout": 0,
      "prevout": {
        "scriptpubkey": "51200e5a41bf1f6c91ca52a5346dbcc78fc92881d295a12cf865f87c1cc54b501c1e",
        "scriptpubkey_asm": "OP_PUSHNUM_1 OP_PUSHBYTES_32 0e5a41bf1f6c91ca52a5346dbcc78fc92881d295a12cf865f87c1cc54b501c1e",
        "scriptpubkey_type": "v1_p2tr",
        "scriptpubkey_address": "bc1ppedyr0cldjgu5549x3kme3u0ey5gr5545yk0se0c0swv2j6srs0q47re4t",
        "value": 2930
      },
      "scriptsig": "",
      "scriptsig_asm": "",
      "witness": [
        "a93057c6e5064d2ac019b65883cf4680af95c049196266eda04fdece6bb05a9cb08a466187500c6eb6fc734e980ce8eecb3dfdcb790053e880396324f89076f3",
        "20abc6e6f09d853a8f43905c96914b7c3a3f35b29793dd1ebafb595f77bb918537ac0063036f72640101106170706c69636174696f6e2f6a736f6e00377b2270223a226272632d3230222c226f70223a227472616e73666572222c227469636b223a22314f6e38222c22616d74223a223535227d68",
        "c1abc6e6f09d853a8f43905c96914b7c3a3f35b29793dd1ebafb595f77bb918537"
      ],
      "is_coinbase": false,
      "sequence": 4294967293
    }
  ],
  "vout": [
    {
      "scriptpubkey": "51204b3def6b7bdf9758a317f5eafc03b3a744cc6bb7dad731af7edbfbb555c2be75",
      "scriptpubkey_asm": "OP_PUSHNUM_1 OP_PUSHBYTES_32 4b3def6b7bdf9758a317f5eafc03b3a744cc6bb7dad731af7edbfbb555c2be75",
      "scriptpubkey_type": "v1_p2tr",
      "scriptpubkey_address": "bc1pfv7776mmm7t43gch7h40cqan5azvc6ahmttnrtm7m0am24wzhe6smdt3m6",
      "value": 546
    }
  ],
  "size": 314,
  "weight": 596,
  "fee": 2384,
  "status": {
    "confirmed": true,
    "block_height": 834460,
    "block_hash": "00000000000000000000484a79b643b2524bbce82e5d8a442013fa5b8905ed98",
    "block_time": 1710307468
  },
  "hex": "020000000001013df4534dbc2ddc37554836278560dfd0bf2db2fc920110121d71bebda64aa5670000000000fdffffff0122020000000000002251204b3def6b7bdf9758a317f5eafc03b3a744cc6bb7dad731af7edbfbb555c2be750340a93057c6e5064d2ac019b65883cf4680af95c049196266eda04fdece6bb05a9cb08a466187500c6eb6fc734e980ce8eecb3dfdcb790053e880396324f89076f37520abc6e6f09d853a8f43905c96914b7c3a3f35b29793dd1ebafb595f77bb918537ac0063036f72640101106170706c69636174696f6e2f6a736f6e00377b2270223a226272632d3230222c226f70223a227472616e73666572222c227469636b223a22314f6e38222c22616d74223a223535227d6821c1abc6e6f09d853a8f43905c96914b7c3a3f35b29793dd1ebafb595f77bb91853700000000"
}