{
  "txid": "2b31f0bc535e1fde2cea2cee321ac709ac9ac84d200285c7f9ad078b70de2d18",
  "version": 2,
  "locktime": 0,
  "vin": [
    {
      "txid": "7fe6859d8fa858813c74d10752b4e55f9b4f511fbaa7beb7f10300f3010cee73",
      "vout": 0,
      "prevout": {
        "scriptpubkey": "5120ad2f454063c07edc0f20890ac09e93c284f3adf33ab068d2de3fb64d82478d37",
        "scriptpubkey_asm": "OP_PUSHNUM_1 OP_PUSHBYTES_32 ad2f454063c07edc0f20890ac09e93c284f3adf33ab068d2de3fb64d82478d37",
        "scriptpubkey_type": "v1_p2tr",
        "scriptpubkey_address": "bc1p45h52srrcpldcreq3y9vp85nc2z08t0n82cx35k787mymqj835mskywupp",
        "value": 546
      },
      "scriptsig": "",
      "scriptsig_asm": "",
      "witness": [
        "e711c8202b010839720c0a85d36c961bfa582ddb91ffa4bb45365e78d3502e5ff21f29f8d880377e480a17007d98121864d7253d89f29c2c05be4955da2ffa9f"
      ],
      "is_coinbase": false,
      "sequence": 2147483649
    },
    {
      "txid": "daeda4979359fa3bc5ed7a275d79d11053dbd4a9623616c550a7965eac1c2d68",
      "vout": 1,
      "prevout": {
        "scriptpubkey": "5120ad2f454063c07edc0f20890ac09e93c284f3adf33ab068d2de3fb64d82478d37",
        "scriptpubkey_asm": "OP_PUSHNUM_1 OP_PUSHBYTES_32 ad2f454063c07edc0f20890ac09e93c284f3adf33ab068d2de3fb64d82478d37",
        "scriptpubkey_type": "v1_p2tr",
        "scriptpubkey_address": "bc1p45h52srrcpldcreq3y9vp85nc2z08t0n82cx35k787mymqj835mskywupp",
        "value": 296162
      },
      "scriptsig": "",
      "scriptsig_asm": "",
      "witness": [
        "b6406e67b6174378d121e37fa290d8221522c33860afec71b89f3e556b23512ae86eb665b8fe352e2f4a12169b1b0d0861bfb295ca721a69e82f8ca114ef3c24"
      ],
      "is_coinbase": false,
      "sequence": 2147483649
    }
  ],
  "vout": [
    {
      "scriptpubkey": "00145ad7c12eb5a91108aa2b04912d57d5de73edd3dc",
      "scriptpubkey_asm": "OP_0 OP_PUSHBYTES_20 5ad7c12eb5a91108aa2b04912d57d5de73edd3dc",
      "scriptpubkey_type": "v0_p2wpkh",
      "scriptpubkey_address": "bc1qtttuzt444ygs323tqjgj6474mee7m57uakq35h",
      "value": 546
    },
    {
      "scriptpubkey": "5120ad2f454063c07edc0f20890ac09e93c284f3adf33ab068d2de3fb64d82478d37",
      "scriptpubkey_asm": "OP_PUSHNUM_1 OP_PUSHBYTES_32 ad2f454063c07edc0f20890ac09e93c284f3adf33ab068d2de3fb64d82478d37",
      "scriptpubkey_type": "v1_p2tr",
      "scriptpubkey_address": "bc1p45h52srrcpldcreq3y9vp85nc2z08t0n82cx35k787mymqj835mskywupp",
      "value": 293177
    }
  ],
  "size": 300,
  "weight": 798,
  "fee": 2985,
  "status": {
    "confirmed": true,
    "block_height": 834460,
    "block_hash": "00000000000000000000484a79b643b2524bbce82e5d8a442013fa5b8905ed98",
    "block_time": 1710307468
  },
  "hex": "0200000000010273ee0c01f30003f1b7bea7ba1f514f9b5fe5b45207d1743c8158a88f9d85e67f000000000001000080682d1cac5e96a750c5163662a9d4db5310d1795d277aedc53bfa599397a4edda0100000000010000800222020000000000001600145ad7c12eb5a91108aa2b04912d57d5de73edd3dc3979040000000000225120ad2f454063c07edc0f20890ac09e93c284f3adf33ab068d2de3fb64d82478d370140e711c8202b010839720c0a85d36c961bfa582ddb91ffa4bb45365e78d3502e5ff21f29f8d880377e480a17007d98121864d7253d89f29c2c05be4955da2ffa9f0140b6406e67b6174378d121e37fa290d8221522c33860afec71b89f3e556b23512ae86eb665b8fe352e2f4a12169b1b0d0861bfb295ca721a69e82f8ca114ef3c2400000000"
}