{
  "txid": "2b381f25a8fb3e6f4be79cd7777f0aee1bf4f89787d8622375c7686e962971d2",
  "version": 2,
  "locktime": 0,
  "vin": [
    {
      "txid": "0eddf93f24b2d392cda3aed855586f759c118678ab0fdf1339c1a2f0871fef42",
      "vout": 7,
      "prevout": {
        "scriptpubkey": "5120f07085138d1d8291b989d9c5c8961b21221b83bbcc866480d4164de86a667566",
        "scriptpubkey_asm": "OP_PUSHNUM_1 OP_PUSHBYTES_32 f07085138d1d8291b989d9c5c8961b21221b83bbcc866480d4164de86a667566",
        "scriptpubkey_type": "v1_p2tr",
        "scriptpubkey_address": "bc1p7pcg2yudrkpfrwvfm8zu39smyy3phqamejrxfqx5zex7s6nxw4nqw76v2e",
        "value": 2834
      },
      "scriptsig": "",
      "scriptsig_asm": "",
      "witness": [
        "2255df012987c22acf42880ee8602e3f46036a4f4c851defac7e75c4d94f91d2556bc9aa2cb483cbef839d3a69e8d04252e53752c84a41568630dded82819cf3",
        "20173d7069d7f772c93c1db92a71da5f5a9d2e9a846c66fa3a6958f5c02964a0b6ac0063036f726401011e6170706c69636174696f6e2f6a736f6e3b636861727365743d7574662d38004cbf7b2270223a22706f772d3230222c226f70223a226d696e74222c227469636b223a2250455045222c22616d74223a2231303030222c22736f6c7574696f6e223a22504550453a6263317172713238376168727578703271783033726774706379666a327261786e306175667a646a717a3a303030303030303030303030303030303030303139393431613561653132383937363539383134343239323533333030353762306461393666336465613163353a3334303033383239373335227d68",
        "c0f26df831a413724db8123fd1cb518d6560252685500a3c204e36c4bb2a2cc255"
      ],
      "is_coinbase": false,
      "sequence": 4294967295
    }
  ],
  "vout": [
    {
      "scriptpubkey": "001418147f76e3e182a019f11a161c113250fa69bfbc",
      "scriptpubkey_asm": "OP_0 OP_PUSHBYTES_20 18147f76e3e182a019f11a161c113250fa69bfbc",
      "scriptpubkey_type": "v0_p2wpkh",
      "scriptpubkey_address": "bc1qrq287ahruxp2qx03rgtpcyfj2raxn0aufzdjqz",
      "value": 546
    }
  ],
  "size": 455,
  "weight": 701,
  "fee": 2288,
  "status": {
    "confirmed": true,
    "block_height": 834460,
    "block_hash": "00000000000000000000484a79b643b2524bbce82e5d8a442013fa5b8905ed98",
    "block_time": 1710307468
  },
  "hex": "0200000000010142ef1f87f0a2c13913df0fab7886119c756f5855d8aea3cd92d3b2243ff9dd0e0700000000ffffffff01220200000000000016001418147f76e3e182a019f11a161c113250fa69bfbc03402255df012987c22acf42880ee8602e3f46036a4f4c851defac7e75c4d94f91d2556bc9aa2cb483cbef839d3a69e8d04252e53752c84a41568630dded82819cf3fd0c0120173d7069d7f772c93c1db92a71da5f5a9d2e9a846c66fa3a6958f5c02964a0b6ac0063036f726401011e6170706c69636174696f6e2f6a736f6e3b636861727365743d7574662d38004cbf7b2270223a22706f772d3230222c226f70223a226d696e74222c227469636b223a2250455045222c22616d74223a2231303030222c22736f6c7574696f6e223a22504550453a6263317172713238376168727578703271783033726774706379666a327261786e306175667a646a717a3a303030303030303030303030303030303030303139393431613561653132383937363539383134343239323533333030353762306461393666336465613163353a3334303033383239373335227d6821c0f26df831a413724db8123fd1cb518d6560252685500a3c204e36c4bb2a2cc25500000000"
}