{
  "txid": "2b411e9893d9e9c8dc562ca4957ac7dab94c415e2cbf077b645e7a0d2cc31e13",
  "version": 2,
  "locktime": 0,
  "vin": [
    {
      "txid": "219d2680412104ec2b7d2b48dd8a009b447e261847b1216d35af6125a4ed84e1",
      "vout": 1,
      "prevout": {
        "scriptpubkey": "00147ca8e03ed3d9ececdf5a0106c2f640977a132f8e",
        "scriptpubkey_asm": "OP_0 OP_PUSHBYTES_20 7ca8e03ed3d9ececdf5a0106c2f640977a132f8e",
        "scriptpubkey_type": "v0_p2wpkh",
        "scriptpubkey_address": "bc1q0j5wq0knm8kweh66qyrv9ajqjaapxtuwa42ctk",
        "value": 34526
      },
      "scriptsig": "",
      "scriptsig_asm": "",
      "witness": [
        "3044022044014c0bb8c95e004e5c2f8de4c3b0410a804303cea5596e886f70a18b32d52002201c680cf8465ea16b60aceac287a99e049f9890194803b3590835b68c59b00b7601",
        "0208abed48ca5b58ad3fe448b1c3940d29e142fcbf18c1b00d7b62a0a70ee0c12b"
      ],
      "is_coinbase": false,
      "sequence": 4294967295
    }
  ],
  "vout": [
    {
      "scriptpubkey": "6a2a4ada6859bda9f7ec720c6f1c91c620e98c2a95240f85df36a82be26f6bb47a88261111aa25d1b8f0cd03",
      "scriptpubkey_asm": "OP_RETURN OP_PUSHBYTES_42 4ada6859bda9f7ec720c6f1c91c620e98c2a95240f85df36a82be26f6bb47a88261111aa25d1b8f0cd03",
      "scriptpubkey_type": "op_return",
      "value": 0
    },
    {
      "scriptpubkey": "00147ca8e03ed3d9ececdf5a0106c2f640977a132f8e",
      "scriptpubkey_asm": "OP_0 OP_PUSHBYTES_20 7ca8e03ed3d9ececdf5a0106c2f640977a132f8e",
      "scriptpubkey_type": "v0_p2wpkh",
      "scriptpubkey_address": "bc1q0j5wq0knm8kweh66qyrv9ajqjaapxtuwa42ctk",
      "value": 32768
    }
  ],
  "size": 244,
  "weight": 649,
  "fee": 1758,
  "status": {
    "confirmed": true,
    "block_height": 834464,
    "block_hash": "0000000000000000000177a0869a911a2b65c9bdcd5a8bcb02b68f305bee848e",
    "block_time": 1710308296
  },
  "hex": "02000000000101e184eda42561af356d21b14718267e449b008add482b7d2bec04214180269d210100000000ffffffff0200000000000000002c6a2a4ada6859bda9f7ec720c6f1c91c620e98c2a95240f85df36a82be26f6bb47a88261111aa25d1b8f0cd0300800000000000001600147ca8e03ed3d9ececdf5a0106c2f640977a132f8e02473044022044014c0bb8c95e004e5c2f8de4c3b0410a804303cea5596e886f70a18b32d52002201c680cf8465ea16b60aceac287a99e049f9890194803b3590835b68c59b00b7601210208abed48ca5b58ad3fe448b1c3940d29e142fcbf18c1b00d7b62a0a70ee0c12b00000000"
}