{
  "txid": "2b471a2ee7e9fd232fad32d58c229f97b98273a088427a6dd417191d2b2173be",
  "version": 2,
  "locktime": 0,
  "vin": [
    {
      "txid": "8486ecb4df0880316dd6e82b3971b4df187aff23765bc3a47f8d78bb53aa273c",
      "vout": 111,
      "prevout": {
        "scriptpubkey": "5120377d229fd5155351c51e1f153b3940cd1fea76736af7e222cc6b562a7d0ee3a9",
        "scriptpubkey_asm": "OP_PUSHNUM_1 OP_PUSHBYTES_32 377d229fd5155351c51e1f153b3940cd1fea76736af7e222cc6b562a7d0ee3a9",
        "scriptpubkey_type": "v1_p2tr",
        "scriptpubkey_address": "bc1pxa7j9874z4f4r3g7ru2nkw2qe5075anndtm7ygkvddtz5lgwuw5s65f4mp",
        "value": 2575
      },
      "scriptsig": "",
      "scriptsig_asm": "",
      "witness": [
        "dffbe388c5980158d9c94ef67d3e5ea0797bc667807fd3ece70e7e1686bf06bac7105750eb4b84255c2ba21994d9a6374cd07e600760895aa5b646ecb639eb31",
        "2049e4b59b25d0773f2dc17fd50bd63c91fda1ea2f26188e132a60c2c0d3125c96ac0063036f726401010a746578742f706c61696e00367b2270223a226272632d3230222c226f70223a226d696e74222c227469636b223a2261616161222c22616d74223a223130303030227d68",
        "c149e4b59b25d0773f2dc17fd50bd63c91fda1ea2f26188e132a60c2c0d3125c96"
      ],
      "is_coinbase": false,
      "sequence": 4261412863
    }
  ],
  "vout": [
    {
      "scriptpubkey": "0014ddd7ef12ea6f78edcc1e8e7afa12c01ab59f3339",
      "scriptpubkey_asm": "OP_0 OP_PUSHBYTES_20 ddd7ef12ea6f78edcc1e8e7afa12c01ab59f3339",
      "scriptpubkey_type": "v0_p2wpkh",
      "scriptpubkey_address": "bc1qmht77yh2dauwmnq73ea05ykqr26e7veea8spz6",
      "value": 546
    }
  ],
  "size": 295,
  "weight": 541,
  "fee": 2029,
  "status": {
    "confirmed": true,
    "block_height": 834460,
    "block_hash": "00000000000000000000484a79b643b2524bbce82e5d8a442013fa5b8905ed98",
    "block_time": 1710307468
  },
  "hex": "020000000001013c27aa53bb788d7fa4c35b7623ff7a18dfb471392be8d66d318008dfb4ec86846f00000000fffffffd012202000000000000160014ddd7ef12ea6f78edcc1e8e7afa12c01ab59f33390340dffbe388c5980158d9c94ef67d3e5ea0797bc667807fd3ece70e7e1686bf06bac7105750eb4b84255c2ba21994d9a6374cd07e600760895aa5b646ecb639eb316e2049e4b59b25d0773f2dc17fd50bd63c91fda1ea2f26188e132a60c2c0d3125c96ac0063036f726401010a746578742f706c61696e00367b2270223a226272632d3230222c226f70223a226d696e74222c227469636b223a2261616161222c22616d74223a223130303030227d6821c149e4b59b25d0773f2dc17fd50bd63c91fda1ea2f26188e132a60c2c0d3125c9600000000"
}