{
  "txid": "2b49ce93d8c37d389416ec96fe8cbfaa5f39fb99d77d8c51b6f795a29a14b3d4",
  "version": 2,
  "locktime": 0,
  "vin": [
    {
      "txid": "cbcfeb1b4fd45a8145692b81c17f9f8344c292efc023d71f1212d4134c38bacd",
      "vout": 0,
      "prevout": {
        "scriptpubkey": "5120b02d2cf8006917a76d6dedebbc95f21e546b61db48d6ef8e74a8de35b4129f12",
        "scriptpubkey_asm": "OP_PUSHNUM_1 OP_PUSHBYTES_32 b02d2cf8006917a76d6dedebbc95f21e546b61db48d6ef8e74a8de35b4129f12",
        "scriptpubkey_type": "v1_p2tr",
        "scriptpubkey_address": "bc1pkqkje7qqdyt6wmtdah4me90jre2xkcwmfrtwlrn54r0rtdqjnufqnj6slg",
        "value": 2841
      },
      "scriptsig": "",
      "scriptsig_asm": "",
      "witness": [
        "973d3ce142250c96850df7447724f51de5e5230ebf611fe1de6f0e152db905e76e998fba48c95b8ad29b1c84b6524102747c54d4723b1ec179cdd7d5abac2f41",
        "201969344f9afc832f8d34686ce4a0aac2fc9cae7c9ecb5db66a782ea4393eabf8ac0063036f7264010118746578742f706c61696e3b636861727365743d7574662d38003e7b2270223a226272632d3230222c226f70223a227472616e73666572222c227469636b223a2250454d53222c22616d74223a22323130303030303030227d68",
        "c01969344f9afc832f8d34686ce4a0aac2fc9cae7c9ecb5db66a782ea4393eabf8"
      ],
      "is_coinbase": false,
      "sequence": 4294967293
    }
  ],
  "vout": [
    {
      "scriptpubkey": "5120c08e94560cc6d74a219ede5f17656cbf198dc86f4deef2756fd2549edc892542",
      "scriptpubkey_asm": "OP_PUSHNUM_1 OP_PUSHBYTES_32 c08e94560cc6d74a219ede5f17656cbf198dc86f4deef2756fd2549edc892542",
      "scriptpubkey_type": "v1_p2tr",
      "scriptpubkey_address": "bc1pcz8fg4svcmt55gv7me03wetvhuvcmjr0fhh0yat06f2fahyfy4pqlgg2kn",
      "value": 546
    }
  ],
  "size": 329,
  "weight": 611,
  "fee": 2295,
  "status": {
    "confirmed": true,
    "block_height": 834638,
    "block_hash": "000000000000000000025f742c626208ac87e0b7d15054abb4a19ca2d735a54e",
    "block_time": 1710405325
  },
  "hex": "02000000000101cdba384c13d412121fd723c0ef92c244839f7fc1812b6945815ad44f1bebcfcb0000000000fdffffff012202000000000000225120c08e94560cc6d74a219ede5f17656cbf198dc86f4deef2756fd2549edc8925420340973d3ce142250c96850df7447724f51de5e5230ebf611fe1de6f0e152db905e76e998fba48c95b8ad29b1c84b6524102747c54d4723b1ec179cdd7d5abac2f4184201969344f9afc832f8d34686ce4a0aac2fc9cae7c9ecb5db66a782ea4393eabf8ac0063036f7264010118746578742f706c61696e3b636861727365743d7574662d38003e7b2270223a226272632d3230222c226f70223a227472616e73666572222c227469636b223a2250454d53222c22616d74223a22323130303030303030227d6821c01969344f9afc832f8d34686ce4a0aac2fc9cae7c9ecb5db66a782ea4393eabf800000000"
}