{
  "txid": "2b6578c63b27eee91ba52a7401ea310fa17bcca91f3110859e573cd773cf7446",
  "version": 2,
  "locktime": 0,
  "vin": [
    {
      "txid": "acc3ba00869acb582a3f2904ce3a11dd3779350ce234063fc7d0959246213364",
      "vout": 210,
      "prevout": {
        "scriptpubkey": "51205d9c6f91ae506cdf4ba5e75520c51e96126e683c7d2612fa873ef86118d8d197",
        "scriptpubkey_asm": "OP_PUSHNUM_1 OP_PUSHBYTES_32 5d9c6f91ae506cdf4ba5e75520c51e96126e683c7d2612fa873ef86118d8d197",
        "scriptpubkey_type": "v1_p2tr",
        "scriptpubkey_address": "bc1ptkwxlydw2pkd7ja9ua2jp3g7jcfxu6pu05np97588muxzxxc6xts6w99xa",
        "value": 1806
      },
      "scriptsig": "",
      "scriptsig_asm": "",
      "witness": [
        "f7e85d035909fcabe05b5e997772213a4d69604c321aefd33e507c42cde4ae1afbd2d2b4632be28cdd4a44696f8c8d349b7f12bbb4bbde8881f840d9ec013e89",
        "209ae3011bfbf827e752d845dded64bd59ee812ae0bf401a3d0219f15189b3818fac0063036f726401010a746578742f706c61696e00357b2270223a226272632d3230222c226f70223a226d696e74222c227469636b223a22646f6765222c22616d74223a2234323030227d68",
        "c19ae3011bfbf827e752d845dded64bd59ee812ae0bf401a3d0219f15189b3818f"
      ],
      "is_coinbase": false,
      "sequence": 4261412863
    }
  ],
  "vout": [
    {
      "scriptpubkey": "00147a665de7a370f4c9b372ab1fae587500a5bcbdb4",
      "scriptpubkey_asm": "OP_0 OP_PUSHBYTES_20 7a665de7a370f4c9b372ab1fae587500a5bcbdb4",
      "scriptpubkey_type": "v0_p2wpkh",
      "scriptpubkey_address": "bc1q0fn9mearwr6vnvmj4v06ukr4qzjme0d565dzcx",
      "value": 294
    }
  ],
  "size": 294,
  "weight": 540,
  "fee": 1512,
  "status": {
    "confirmed": true,
    "block_height": 834460,
    "block_hash": "00000000000000000000484a79b643b2524bbce82e5d8a442013fa5b8905ed98",
    "block_time": 1710307468
  },
  "hex": "02000000000101643321469295d0c73f0634e20c357937dd113ace04293f2a58cb9a8600bac3acd200000000fffffffd0126010000000000001600147a665de7a370f4c9b372ab1fae587500a5bcbdb40340f7e85d035909fcabe05b5e997772213a4d69604c321aefd33e507c42cde4ae1afbd2d2b4632be28cdd4a44696f8c8d349b7f12bbb4bbde8881f840d9ec013e896d209ae3011bfbf827e752d845dded64bd59ee812ae0bf401a3d0219f15189b3818fac0063036f726401010a746578742f706c61696e00357b2270223a226272632d3230222c226f70223a226d696e74222c227469636b223a22646f6765222c22616d74223a2234323030227d6821c19ae3011bfbf827e752d845dded64bd59ee812ae0bf401a3d0219f15189b3818f00000000"
}