{
  "txid": "2b6e4ae1f962cb7165fb0ee502756053588e665364ea64c6a28e4e4dceac8b9a",
  "version": 2,
  "locktime": 0,
  "vin": [
    {
      "txid": "f59e0c91a88ffa43af6210725fbe3673ed922a85dc31da573ec72f86e5a754a8",
      "vout": 0,
      "prevout": {
        "scriptpubkey": "5120e78d5c4975fed0c48f529f5255d51ed84d200a84ef5c2ee2e1bf4298cdac6d98",
        "scriptpubkey_asm": "OP_PUSHNUM_1 OP_PUSHBYTES_32 e78d5c4975fed0c48f529f5255d51ed84d200a84ef5c2ee2e1bf4298cdac6d98",
        "scriptpubkey_type": "v1_p2tr",
        "scriptpubkey_address": "bc1pu7x4cjt4lmgvfr6jnaf9t4g7mpxjqz5yaawzachphapf3ndvdkvq20tkw4",
        "value": 546
      },
      "scriptsig": "",
      "scriptsig_asm": "",
      "witness": [
        "50e8d43e84dafa49c800a0db8700f47bc05acac1e59048459924d3724a80b46f2832431890c97521ec799f698e3829d12ccd7bd964b26ae4c25e1bfd1e85c460"
      ],
      "is_coinbase": false,
      "sequence": 2147483649
    },
    {
      "txid": "beaba3470a1a648226da28f9f0685934a3ffd443949842da65ea8870e7ca1029",
      "vout": 1,
      "prevout": {
        "scriptpubkey": "5120e78d5c4975fed0c48f529f5255d51ed84d200a84ef5c2ee2e1bf4298cdac6d98",
        "scriptpubkey_asm": "OP_PUSHNUM_1 OP_PUSHBYTES_32 e78d5c4975fed0c48f529f5255d51ed84d200a84ef5c2ee2e1bf4298cdac6d98",
        "scriptpubkey_type": "v1_p2tr",
        "scriptpubkey_address": "bc1pu7x4cjt4lmgvfr6jnaf9t4g7mpxjqz5yaawzachphapf3ndvdkvq20tkw4",
        "value": 134699
      },
      "scriptsig": "",
      "scriptsig_asm": "",
      "witness": [
        "6249f8bea1650468b25c37a2a6901725f3c1885d9357f7f1d21330a30d0deb0749112d8fcddb42610221f572e6690bcb2031a03419c58e43accee913e7b1eaba"
      ],
      "is_coinbase": false,
      "sequence": 2147483649
    }
  ],
  "vout": [
    {
      "scriptpubkey": "5120e78d5c4975fed0c48f529f5255d51ed84d200a84ef5c2ee2e1bf4298cdac6d98",
      "scriptpubkey_asm": "OP_PUSHNUM_1 OP_PUSHBYTES_32 e78d5c4975fed0c48f529f5255d51ed84d200a84ef5c2ee2e1bf4298cdac6d98",
      "scriptpubkey_type": "v1_p2tr",
      "scriptpubkey_address": "bc1pu7x4cjt4lmgvfr6jnaf9t4g7mpxjqz5yaawzachphapf3ndvdkvq20tkw4",
      "value": 546
    },
    {
      "scriptpubkey": "5120e78d5c4975fed0c48f529f5255d51ed84d200a84ef5c2ee2e1bf4298cdac6d98",
      "scriptpubkey_asm": "OP_PUSHNUM_1 OP_PUSHBYTES_32 e78d5c4975fed0c48f529f5255d51ed84d200a84ef5c2ee2e1bf4298cdac6d98",
      "scriptpubkey_type": "v1_p2tr",
      "scriptpubkey_address": "bc1pu7x4cjt4lmgvfr6jnaf9t4g7mpxjqz5yaawzachphapf3ndvdkvq20tkw4",
      "value": 132378
    }
  ],
  "size": 312,
  "weight": 846,
  "fee": 2321,
  "status": {
    "confirmed": true,
    "block_height": 834464,
    "block_hash": "0000000000000000000177a0869a911a2b65c9bdcd5a8bcb02b68f305bee848e",
    "block_time": 1710308296
  },
  "hex": "02000000000102a854a7e5862fc73e57da31dc852a92ed7336be5f721062af43fa8fa8910c9ef50000000000010000802910cae77088ea65da42989443d4ffa3345968f0f928da2682641a0a47a3abbe010000000001000080022202000000000000225120e78d5c4975fed0c48f529f5255d51ed84d200a84ef5c2ee2e1bf4298cdac6d981a05020000000000225120e78d5c4975fed0c48f529f5255d51ed84d200a84ef5c2ee2e1bf4298cdac6d98014050e8d43e84dafa49c800a0db8700f47bc05acac1e59048459924d3724a80b46f2832431890c97521ec799f698e3829d12ccd7bd964b26ae4c25e1bfd1e85c46001406249f8bea1650468b25c37a2a6901725f3c1885d9357f7f1d21330a30d0deb0749112d8fcddb42610221f572e6690bcb2031a03419c58e43accee913e7b1eaba00000000"
}