{
  "txid": "2b7365c4a9627a49f73d7c76dbf597cd73119455865633ac903a2cb9a163ce61",
  "version": 2,
  "locktime": 0,
  "vin": [
    {
      "txid": "269c15df677cd5e75c096ebb8af566e536ab8fe7f7bec4654e313aaa66c06afd",
      "vout": 0,
      "prevout": {
        "scriptpubkey": "00147bd73f8b78798d4a70dd2c043315aadc70a68350",
        "scriptpubkey_asm": "OP_0 OP_PUSHBYTES_20 7bd73f8b78798d4a70dd2c043315aadc70a68350",
        "scriptpubkey_type": "v0_p2wpkh",
        "scriptpubkey_address": "bc1q00tnlzmc0xx55uxa9szrx9d2m3c2dq6sw04a8s",
        "value": 126054
      },
      "scriptsig": "",
      "scriptsig_asm": "",
      "witness": [
        "304402205e84ac213de12f6ee6a82bd603e87cb2acb0d09341df7a81f44afb56af3e6e98022065d8485a9115ecb80e30d4d833078dde867117e17934c86315b430e7dee70ebf01",
        "025ed8cd9f31d37f864354b4873c33ef35036295c05a41ef1354aff389a0dd7cd2"
      ],
      "is_coinbase": false,
      "sequence": 4294967293
    }
  ],
  "vout": [
    {
      "scriptpubkey": "76a914b350009a3fc44666e3d54a335c913ee241b7b27388ac",
      "scriptpubkey_asm": "OP_DUP OP_HASH160 OP_PUSHBYTES_20 b350009a3fc44666e3d54a335c913ee241b7b273 OP_EQUALVERIFY OP_CHECKSIG",
      "scriptpubkey_type": "p2pkh",
      "scriptpubkey_address": "1HM7nzvP6CPxxY4XMBHbD4EK8rbeFYvWKw",
      "value": 124834
    }
  ],
  "size": 194,
  "weight": 449,
  "fee": 1220,
  "status": {
    "confirmed": true,
    "block_height": 834464,
    "block_hash": "0000000000000000000177a0869a911a2b65c9bdcd5a8bcb02b68f305bee848e",
    "block_time": 1710308296
  },
  "hex": "02000000000101fd6ac066aa3a314e65c4bef7e78fab36e566f58abb6e095ce7d57c67df159c260000000000fdffffff01a2e70100000000001976a914b350009a3fc44666e3d54a335c913ee241b7b27388ac0247304402205e84ac213de12f6ee6a82bd603e87cb2acb0d09341df7a81f44afb56af3e6e98022065d8485a9115ecb80e30d4d833078dde867117e17934c86315b430e7dee70ebf0121025ed8cd9f31d37f864354b4873c33ef35036295c05a41ef1354aff389a0dd7cd200000000"
}