{
  "txid": "2b871b6c1112ad0a777f6db1f7a7709154c4d9af8e771ba4eca148915f830e9d",
  "version": 1,
  "locktime": 0,
  "vin": [
    {
      "txid": "17a6adb5db1e33c87467a58aa31cddbb3800052315015cf3cf1c2b0119310e20",
      "vout": 0,
      "prevout": {
        "scriptpubkey": "0014540371330ae036602f2a715adaa044ac0856312c",
        "scriptpubkey_asm": "OP_0 OP_PUSHBYTES_20 540371330ae036602f2a715adaa044ac0856312c",
        "scriptpubkey_type": "v0_p2wpkh",
        "scriptpubkey_address": "bc1q2sphzvc2uqmxqte2w9dd4gzy4sy9vvfv0me9ke",
        "value": 20000
      },
      "scriptsig": "",
      "scriptsig_asm": "",
      "witness": [
        "3045022100e29731f7474f9103c6df3434c8c62a540a21ad0e10e23df343b1e81e4b26110602202d37fb4fee5341a41f9e4e65ba2d3e0d2309425ea9806d94eb268efe6f21007001",
        "0369cdaf80b4a5fdad91e9face90e848225512884ec2e3ed572ca11dc68e750547"
      ],
      "is_coinbase": false,
      "sequence": 4294967295
    }
  ],
  "vout": [
    {
      "scriptpubkey": "0014daaae0d3de9d8fdee31661e61aea828b59be7864",
      "scriptpubkey_asm": "OP_0 OP_PUSHBYTES_20 daaae0d3de9d8fdee31661e61aea828b59be7864",
      "scriptpubkey_type": "v0_p2wpkh",
      "scriptpubkey_address": "bc1qm24wp577nk8aacckv8np465z3dvmu7ry45el6y",
      "value": 10000
    },
    {
      "scriptpubkey": "6a14a8491d40d4f71a752ca41da0516aed80c33a1b56",
      "scriptpubkey_asm": "OP_RETURN OP_PUSHBYTES_20 a8491d40d4f71a752ca41da0516aed80c33a1b56",
      "scriptpubkey_type": "op_return",
      "value": 0
    },
    {
      "scriptpubkey": "0014540371330ae036602f2a715adaa044ac0856312c",
      "scriptpubkey_asm": "OP_0 OP_PUSHBYTES_20 540371330ae036602f2a715adaa044ac0856312c",
      "scriptpubkey_type": "v0_p2wpkh",
      "scriptpubkey_address": "bc1q2sphzvc2uqmxqte2w9dd4gzy4sy9vvfv0me9ke",
      "value": 7420
    }
  ],
  "size": 254,
  "weight": 686,
  "fee": 2580,
  "status": {
    "confirmed": true,
    "block_height": 834638,
    "block_hash": "000000000000000000025f742c626208ac87e0b7d15054abb4a19ca2d735a54e",
    "block_time": 1710405325
  },
  "hex": "01000000000101200e3119012b1ccff35c011523050038bbdd1ca38aa56774c8331edbb5ada6170000000000ffffffff031027000000000000160014daaae0d3de9d8fdee31661e61aea828b59be78640000000000000000166a14a8491d40d4f71a752ca41da0516aed80c33a1b56fc1c000000000000160014540371330ae036602f2a715adaa044ac0856312c02483045022100e29731f7474f9103c6df3434c8c62a540a21ad0e10e23df343b1e81e4b26110602202d37fb4fee5341a41f9e4e65ba2d3e0d2309425ea9806d94eb268efe6f21007001210369cdaf80b4a5fdad91e9face90e848225512884ec2e3ed572ca11dc68e75054700000000"
}