{
  "txid": "2bad6ee039c3248fa090b37b0d3ab7529e5791c466f4f220583788a139b9c5df",
  "version": 2,
  "locktime": 0,
  "vin": [
    {
      "txid": "acc3ba00869acb582a3f2904ce3a11dd3779350ce234063fc7d0959246213364",
      "vout": 216,
      "prevout": {
        "scriptpubkey": "5120eeae724bde5cb523e938e330aeeb7084f668060e0c7e8fe96b36567c5ce29dd6",
        "scriptpubkey_asm": "OP_PUSHNUM_1 OP_PUSHBYTES_32 eeae724bde5cb523e938e330aeeb7084f668060e0c7e8fe96b36567c5ce29dd6",
        "scriptpubkey_type": "v1_p2tr",
        "scriptpubkey_address": "bc1pa6h8yj77tj6j86fcuvc2a6mssnmxspswp3lgl6ttxet8ch8znhtq3mjzcl",
        "value": 1806
      },
      "scriptsig": "",
      "scriptsig_asm": "",
      "witness": [
        "919edf852444a55181f2c7b29c119787aec71ef369eb2ca14f86055f84447ddac0649c904c5c85aae7782116b4d4c00a9ec0b3d76f431c87fec4898a4c8c1b35",
        "2031e81ce2a4c1e3231f065241e49cea60a081ca1fa8f608f66984d9f962d94ed9ac0063036f726401010a746578742f706c61696e00357b2270223a226272632d3230222c226f70223a226d696e74222c227469636b223a22646f6765222c22616d74223a2234323030227d68",
        "c131e81ce2a4c1e3231f065241e49cea60a081ca1fa8f608f66984d9f962d94ed9"
      ],
      "is_coinbase": false,
      "sequence": 4261412863
    }
  ],
  "vout": [
    {
      "scriptpubkey": "00147a665de7a370f4c9b372ab1fae587500a5bcbdb4",
      "scriptpubkey_asm": "OP_0 OP_PUSHBYTES_20 7a665de7a370f4c9b372ab1fae587500a5bcbdb4",
      "scriptpubkey_type": "v0_p2wpkh",
      "scriptpubkey_address": "bc1q0fn9mearwr6vnvmj4v06ukr4qzjme0d565dzcx",
      "value": 294
    }
  ],
  "size": 294,
  "weight": 540,
  "fee": 1512,
  "status": {
    "confirmed": true,
    "block_height": 834460,
    "block_hash": "00000000000000000000484a79b643b2524bbce82e5d8a442013fa5b8905ed98",
    "block_time": 1710307468
  },
  "hex": "02000000000101643321469295d0c73f0634e20c357937dd113ace04293f2a58cb9a8600bac3acd800000000fffffffd0126010000000000001600147a665de7a370f4c9b372ab1fae587500a5bcbdb40340919edf852444a55181f2c7b29c119787aec71ef369eb2ca14f86055f84447ddac0649c904c5c85aae7782116b4d4c00a9ec0b3d76f431c87fec4898a4c8c1b356d2031e81ce2a4c1e3231f065241e49cea60a081ca1fa8f608f66984d9f962d94ed9ac0063036f726401010a746578742f706c61696e00357b2270223a226272632d3230222c226f70223a226d696e74222c227469636b223a22646f6765222c22616d74223a2234323030227d6821c131e81ce2a4c1e3231f065241e49cea60a081ca1fa8f608f66984d9f962d94ed900000000"
}