{
  "txid": "2bcdd7448e349009433ba4a6501b9feffabb8db16c4ec9329aa6f6ac45cc57fe",
  "version": 2,
  "locktime": 0,
  "vin": [
    {
      "txid": "12c4d6e09ab65752f7b7f17b0971491e6af12b57d7106388fe27e4c0b5216ec6",
      "vout": 1,
      "prevout": {
        "scriptpubkey": "5120cdf924cc176a2d8ba89e8b34fd8e8b650068a1806a182a2c3dc469d09307d072",
        "scriptpubkey_asm": "OP_PUSHNUM_1 OP_PUSHBYTES_32 cdf924cc176a2d8ba89e8b34fd8e8b650068a1806a182a2c3dc469d09307d072",
        "scriptpubkey_type": "v1_p2tr",
        "scriptpubkey_address": "bc1pehujfnqhdgkch2y73v60mr5tv5qx3gvqdgvz5tpac35apyc86peq9654x9",
        "value": 289763
      },
      "scriptsig": "",
      "scriptsig_asm": "",
      "witness": [
        "6f7278e4562402384c3926b765b1d8bacadd4f92815c0e3da96036a93ff32d470a32588f17782ac905af0598257883ed3751d6510f3b1f9daf9fcf86707a795c"
      ],
      "is_coinbase": false,
      "sequence": 4294967295
    }
  ],
  "vout": [
    {
      "scriptpubkey": "5120b0a5528e0314b9a53a6ceed8929272e41d858c1f60446e46375e2d006fca9f82",
      "scriptpubkey_asm": "OP_PUSHNUM_1 OP_PUSHBYTES_32 b0a5528e0314b9a53a6ceed8929272e41d858c1f60446e46375e2d006fca9f82",
      "scriptpubkey_type": "v1_p2tr",
      "scriptpubkey_address": "bc1pkzj49rsrzju62wnvamvf9ynjuswctrqlvpzxu33htcksqm72n7pqesvqdk",
      "value": 270000
    },
    {
      "scriptpubkey": "5120cdf924cc176a2d8ba89e8b34fd8e8b650068a1806a182a2c3dc469d09307d072",
      "scriptpubkey_asm": "OP_PUSHNUM_1 OP_PUSHBYTES_32 cdf924cc176a2d8ba89e8b34fd8e8b650068a1806a182a2c3dc469d09307d072",
      "scriptpubkey_type": "v1_p2tr",
      "scriptpubkey_address": "bc1pehujfnqhdgkch2y73v60mr5tv5qx3gvqdgvz5tpac35apyc86peq9654x9",
      "value": 17741
    }
  ],
  "size": 205,
  "weight": 616,
  "fee": 2022,
  "status": {
    "confirmed": true,
    "block_height": 834460,
    "block_hash": "00000000000000000000484a79b643b2524bbce82e5d8a442013fa5b8905ed98",
    "block_time": 1710307468
  },
  "hex": "02000000000101c66e21b5c0e427fe886310d7572bf16a1e4971097bf1b7f75257b69ae0d6c4120100000000ffffffff02b01e040000000000225120b0a5528e0314b9a53a6ceed8929272e41d858c1f60446e46375e2d006fca9f824d45000000000000225120cdf924cc176a2d8ba89e8b34fd8e8b650068a1806a182a2c3dc469d09307d07201406f7278e4562402384c3926b765b1d8bacadd4f92815c0e3da96036a93ff32d470a32588f17782ac905af0598257883ed3751d6510f3b1f9daf9fcf86707a795c00000000"
}