{
  "txid": "2bd577b17c182d9d2fa2d97c28a2ba99abcca77034dd68a68ec6fa2c36cb52b9",
  "version": 1,
  "locktime": 0,
  "vin": [
    {
      "txid": "b78ae0b624772584d244b4443d70cc7360772b3aef5f750a4fd01b50f05c3976",
      "vout": 17,
      "prevout": {
        "scriptpubkey": "00145aff2432bf6af2c2b1fef5881855bbc38d01d353",
        "scriptpubkey_asm": "OP_0 OP_PUSHBYTES_20 5aff2432bf6af2c2b1fef5881855bbc38d01d353",
        "scriptpubkey_type": "v0_p2wpkh",
        "scriptpubkey_address": "bc1qttljgv4ldtev9v077kyps4dmcwxsr56n4vd39e",
        "value": 923924
      },
      "scriptsig": "",
      "scriptsig_asm": "",
      "witness": [
        "304402200cc0ec1336e4211cdb71885ab14d59dbb63b20d52207137b5570aee735b5825602201eff8962f3642dfc01439296729c3b185d0a7f1f5fc74e66cc023d6acba5499601",
        "0228524d031c9d44eb41272ff7a5e929608fed486b2bb59aff878362532934cde2"
      ],
      "is_coinbase": false,
      "sequence": 4294967295
    }
  ],
  "vout": [
    {
      "scriptpubkey": "a914e99b8d2623761963994d4d0a55cf95191bf06b3e87",
      "scriptpubkey_asm": "OP_HASH160 OP_PUSHBYTES_20 e99b8d2623761963994d4d0a55cf95191bf06b3e OP_EQUAL",
      "scriptpubkey_type": "p2sh",
      "scriptpubkey_address": "3NzDi8ywMKmanqFgZ8fE6t2sKoUQXd1Y3t",
      "value": 920927
    }
  ],
  "size": 192,
  "weight": 441,
  "fee": 2997,
  "status": {
    "confirmed": true,
    "block_height": 834552,
    "block_hash": "00000000000000000001dd0468a70c94f619251d286585cff57aeb4bd9ede330",
    "block_time": 1710355598
  },
  "hex": "0100000000010176395cf0501bd04f0a755fef3a2b776073cc703d44b444d284257724b6e08ab71100000000ffffffff015f0d0e000000000017a914e99b8d2623761963994d4d0a55cf95191bf06b3e870247304402200cc0ec1336e4211cdb71885ab14d59dbb63b20d52207137b5570aee735b5825602201eff8962f3642dfc01439296729c3b185d0a7f1f5fc74e66cc023d6acba5499601210228524d031c9d44eb41272ff7a5e929608fed486b2bb59aff878362532934cde200000000"
}