{
  "txid": "2be8a70eb8c3b0cb472dfc5f9d1422aa1ca681b7623fe410a9f7027a9ca95d69",
  "version": 2,
  "locktime": 0,
  "vin": [
    {
      "txid": "d24ab60da59846b69b88344fb976625f96d0c10c6c0c924b8c9fd4aaf01b32b2",
      "vout": 0,
      "prevout": {
        "scriptpubkey": "5120d5cd9c2042f9f9861de782f2713a5c209e89400d6ce0401a410e84e4b8758ab3",
        "scriptpubkey_asm": "OP_PUSHNUM_1 OP_PUSHBYTES_32 d5cd9c2042f9f9861de782f2713a5c209e89400d6ce0401a410e84e4b8758ab3",
        "scriptpubkey_type": "v1_p2tr",
        "scriptpubkey_address": "bc1p6hxecgzzl8ucv808ste8zwjuyz0gjsqddnsyqxjpp6zwfwr432esp7glrx",
        "value": 3130
      },
      "scriptsig": "",
      "scriptsig_asm": "",
      "witness": [
        "9cdf0951503980cf09349d43e88a387fc135e6c8f9c10d3e04de006b77ce1cc9f9721046e8c4166c441d64467dcd480ddeeb01172da6bbdfbd8ac7f792a2267b",
        "200ba36e44fed4986a75b2043883d3a24db3b4472ea6981cc34ac4955fe39185f0ac0063036f7264010118746578742f706c61696e3b636861727365743d7574662d38003b7b2270223a226272632d3230222c226f70223a227472616e73666572222c227469636b223a22646f6765222c22616d74223a22313839303030227d68",
        "c10ba36e44fed4986a75b2043883d3a24db3b4472ea6981cc34ac4955fe39185f0"
      ],
      "is_coinbase": false,
      "sequence": 4294967293
    }
  ],
  "vout": [
    {
      "scriptpubkey": "51203ade3abb166b01c3924270fd3e3dfd308c6837847647326651508e6fa30bafb8",
      "scriptpubkey_asm": "OP_PUSHNUM_1 OP_PUSHBYTES_32 3ade3abb166b01c3924270fd3e3dfd308c6837847647326651508e6fa30bafb8",
      "scriptpubkey_type": "v1_p2tr",
      "scriptpubkey_address": "bc1p8t0r4wckdvqu8yjzwr7nu00axzxxsduywernyej32z8xlgct47uq5mnt6c",
      "value": 546
    }
  ],
  "size": 326,
  "weight": 608,
  "fee": 2584,
  "status": {
    "confirmed": true,
    "block_height": 834638,
    "block_hash": "000000000000000000025f742c626208ac87e0b7d15054abb4a19ca2d735a54e",
    "block_time": 1710405325
  },
  "hex": "02000000000101b2321bf0aad49f8c4b920c6c0cc1d0965f6276b94f34889bb64698a50db64ad20000000000fdffffff0122020000000000002251203ade3abb166b01c3924270fd3e3dfd308c6837847647326651508e6fa30bafb803409cdf0951503980cf09349d43e88a387fc135e6c8f9c10d3e04de006b77ce1cc9f9721046e8c4166c441d64467dcd480ddeeb01172da6bbdfbd8ac7f792a2267b81200ba36e44fed4986a75b2043883d3a24db3b4472ea6981cc34ac4955fe39185f0ac0063036f7264010118746578742f706c61696e3b636861727365743d7574662d38003b7b2270223a226272632d3230222c226f70223a227472616e73666572222c227469636b223a22646f6765222c22616d74223a22313839303030227d6821c10ba36e44fed4986a75b2043883d3a24db3b4472ea6981cc34ac4955fe39185f000000000"
}