{
  "txid": "2bee2342b541805242d28b860a6139431bc02672d34550a909ab85a455b8cfa1",
  "version": 1,
  "locktime": 0,
  "vin": [
    {
      "txid": "222c06b691d394627db9528c81720f3c724adfcac3cdbf70055356863e868add",
      "vout": 1,
      "prevout": {
        "scriptpubkey": "001447ecb7761bd21abffd0671b3d82e65e59c25f3fc",
        "scriptpubkey_asm": "OP_0 OP_PUSHBYTES_20 47ecb7761bd21abffd0671b3d82e65e59c25f3fc",
        "scriptpubkey_type": "v0_p2wpkh",
        "scriptpubkey_address": "bc1qglktwasm6gdtllgxwxeastn9ukwztulu3vsnkn",
        "value": 481924326
      },
      "scriptsig": "",
      "scriptsig_asm": "",
      "witness": [
        "3045022100b96ff64c178d564951363b862988a2ef133da75806573f9536ac7f3349c6e86c0220773f155a54390e79bf158fbdda499760d0e9471d01138a5e7ed736baddd21d0601",
        "038fa7d7511a1566b2cabbf32f8defd1935fba9da18e0dc0999a09ece30f42c52f"
      ],
      "is_coinbase": false,
      "sequence": 4294967295
    }
  ],
  "vout": [
    {
      "scriptpubkey": "0014af28a2ff6c8acb571500a6ae69afbd1f9be71ae9",
      "scriptpubkey_asm": "OP_0 OP_PUSHBYTES_20 af28a2ff6c8acb571500a6ae69afbd1f9be71ae9",
      "scriptpubkey_type": "v0_p2wpkh",
      "scriptpubkey_address": "bc1q4u529lmv3t94w9gq56hxntaar7d7wxhfjhpn2l",
      "value": 1678079
    },
    {
      "scriptpubkey": "001447ecb7761bd21abffd0671b3d82e65e59c25f3fc",
      "scriptpubkey_asm": "OP_0 OP_PUSHBYTES_20 47ecb7761bd21abffd0671b3d82e65e59c25f3fc",
      "scriptpubkey_type": "v0_p2wpkh",
      "scriptpubkey_address": "bc1qglktwasm6gdtllgxwxeastn9ukwztulu3vsnkn",
      "value": 480244217
    }
  ],
  "size": 223,
  "weight": 562,
  "fee": 2030,
  "status": {
    "confirmed": true,
    "block_height": 834638,
    "block_hash": "000000000000000000025f742c626208ac87e0b7d15054abb4a19ca2d735a54e",
    "block_time": 1710405325
  },
  "hex": "01000000000101dd8a863e8656530570bfcdc3cadf4a723c0f72818c52b97d6294d391b6062c220100000000ffffffff02ff9a190000000000160014af28a2ff6c8acb571500a6ae69afbd1f9be71ae9f9f19f1c0000000016001447ecb7761bd21abffd0671b3d82e65e59c25f3fc02483045022100b96ff64c178d564951363b862988a2ef133da75806573f9536ac7f3349c6e86c0220773f155a54390e79bf158fbdda499760d0e9471d01138a5e7ed736baddd21d060121038fa7d7511a1566b2cabbf32f8defd1935fba9da18e0dc0999a09ece30f42c52f00000000"
}