{
  "txid": "2beebb1b6de5a861d9e9f86585dfe42f8a9218d714dad446f3e638c567d175b8",
  "version": 2,
  "locktime": 0,
  "vin": [
    {
      "txid": "7398340dfaed2f68b5980464bedfcac7a4d85f4b051d1c9129a5334eab695dd0",
      "vout": 5,
      "prevout": {
        "scriptpubkey": "51208bed5c265173625f676224931a6f1eccb92e85a9a4b233db772eeb257bb4d9c2",
        "scriptpubkey_asm": "OP_PUSHNUM_1 OP_PUSHBYTES_32 8bed5c265173625f676224931a6f1eccb92e85a9a4b233db772eeb257bb4d9c2",
        "scriptpubkey_type": "v1_p2tr",
        "scriptpubkey_address": "bc1p30k4cfj3wd397emzyjf35mc7ejujapdf5jer8kmh9m4j27a5m8pqwnwmlj",
        "value": 93487
      },
      "scriptsig": "",
      "scriptsig_asm": "",
      "witness": [
        "4262e049a97393fe947d23e1baf8e6c9134c5099938530461d765de5bc88adab83980d05aba159b4d7acf1e2603ccb561fead3e0ae4e3f79aeab610a67215a83"
      ],
      "is_coinbase": false,
      "sequence": 4294967293
    }
  ],
  "vout": [
    {
      "scriptpubkey": "5120a03601bfb03ca24dd3764529a1f23008846f07d30be9bf92f4344f1f2d6619fa",
      "scriptpubkey_asm": "OP_PUSHNUM_1 OP_PUSHBYTES_32 a03601bfb03ca24dd3764529a1f23008846f07d30be9bf92f4344f1f2d6619fa",
      "scriptpubkey_type": "v1_p2tr",
      "scriptpubkey_address": "bc1p5qmqr0as8j3ym5mkg556ru3spzzx7p7np05mlyh5x3837ttxr8aqsprml7",
      "value": 2610
    },
    {
      "scriptpubkey": "5120a03601bfb03ca24dd3764529a1f23008846f07d30be9bf92f4344f1f2d6619fa",
      "scriptpubkey_asm": "OP_PUSHNUM_1 OP_PUSHBYTES_32 a03601bfb03ca24dd3764529a1f23008846f07d30be9bf92f4344f1f2d6619fa",
      "scriptpubkey_type": "v1_p2tr",
      "scriptpubkey_address": "bc1p5qmqr0as8j3ym5mkg556ru3spzzx7p7np05mlyh5x3837ttxr8aqsprml7",
      "value": 2610
    },
    {
      "scriptpubkey": "5120a03601bfb03ca24dd3764529a1f23008846f07d30be9bf92f4344f1f2d6619fa",
      "scriptpubkey_asm": "OP_PUSHNUM_1 OP_PUSHBYTES_32 a03601bfb03ca24dd3764529a1f23008846f07d30be9bf92f4344f1f2d6619fa",
      "scriptpubkey_type": "v1_p2tr",
      "scriptpubkey_address": "bc1p5qmqr0as8j3ym5mkg556ru3spzzx7p7np05mlyh5x3837ttxr8aqsprml7",
      "value": 2610
    },
    {
      "scriptpubkey": "5120a03601bfb03ca24dd3764529a1f23008846f07d30be9bf92f4344f1f2d6619fa",
      "scriptpubkey_asm": "OP_PUSHNUM_1 OP_PUSHBYTES_32 a03601bfb03ca24dd3764529a1f23008846f07d30be9bf92f4344f1f2d6619fa",
      "scriptpubkey_type": "v1_p2tr",
      "scriptpubkey_address": "bc1p5qmqr0as8j3ym5mkg556ru3spzzx7p7np05mlyh5x3837ttxr8aqsprml7",
      "value": 2610
    },
    {
      "scriptpubkey": "5120a03601bfb03ca24dd3764529a1f23008846f07d30be9bf92f4344f1f2d6619fa",
      "scriptpubkey_asm": "OP_PUSHNUM_1 OP_PUSHBYTES_32 a03601bfb03ca24dd3764529a1f23008846f07d30be9bf92f4344f1f2d6619fa",
      "scriptpubkey_type": "v1_p2tr",
      "scriptpubkey_address": "bc1p5qmqr0as8j3ym5mkg556ru3spzzx7p7np05mlyh5x3837ttxr8aqsprml7",
      "value": 2610
    },
    {
      "scriptpubkey": "51208bed5c265173625f676224931a6f1eccb92e85a9a4b233db772eeb257bb4d9c2",
      "scriptpubkey_asm": "OP_PUSHNUM_1 OP_PUSHBYTES_32 8bed5c265173625f676224931a6f1eccb92e85a9a4b233db772eeb257bb4d9c2",
      "scriptpubkey_type": "v1_p2tr",
      "scriptpubkey_address": "bc1p30k4cfj3wd397emzyjf35mc7ejujapdf5jer8kmh9m4j27a5m8pqwnwmlj",
      "value": 75547
    }
  ],
  "size": 377,
  "weight": 1304,
  "fee": 4890,
  "status": {
    "confirmed": true,
    "block_height": 834638,
    "block_hash": "000000000000000000025f742c626208ac87e0b7d15054abb4a19ca2d735a54e",
    "block_time": 1710405325
  },
  "hex": "02000000000101d05d69ab4e33a529911c1d054b5fd8a4c7cadfbe640498b5682fedfa0d3498730500000000fdffffff06320a000000000000225120a03601bfb03ca24dd3764529a1f23008846f07d30be9bf92f4344f1f2d6619fa320a000000000000225120a03601bfb03ca24dd3764529a1f23008846f07d30be9bf92f4344f1f2d6619fa320a000000000000225120a03601bfb03ca24dd3764529a1f23008846f07d30be9bf92f4344f1f2d6619fa320a000000000000225120a03601bfb03ca24dd3764529a1f23008846f07d30be9bf92f4344f1f2d6619fa320a000000000000225120a03601bfb03ca24dd3764529a1f23008846f07d30be9bf92f4344f1f2d6619fa1b270100000000002251208bed5c265173625f676224931a6f1eccb92e85a9a4b233db772eeb257bb4d9c201404262e049a97393fe947d23e1baf8e6c9134c5099938530461d765de5bc88adab83980d05aba159b4d7acf1e2603ccb561fead3e0ae4e3f79aeab610a67215a8300000000"
}