{
  "txid": "2bfa9fac19d0840ea40d716f1189e0ed3f025f3a234d857bb7e1f47bed99016a",
  "version": 1,
  "locktime": 0,
  "vin": [
    {
      "txid": "bbb38ceb3ecbef6051883a930b8a3de0b6e8e5dc27fff19fb1b03cb0a9583984",
      "vout": 0,
      "prevout": {
        "scriptpubkey": "76a914d34a1b2c8da85b1fc174822c7453168874c8eceb88ac",
        "scriptpubkey_asm": "OP_DUP OP_HASH160 OP_PUSHBYTES_20 d34a1b2c8da85b1fc174822c7453168874c8eceb OP_EQUALVERIFY OP_CHECKSIG",
        "scriptpubkey_type": "p2pkh",
        "scriptpubkey_address": "1LGCMTn8CLDisKrNAY9yW1XVjPStsFDr9Z",
        "value": 636035
      },
      "scriptsig": "473044022033e85c6c60a19604ccaed954ccf786c3e8e31e49b80ead94f06365f35af6149702204f8d832dc7e9648da79e1d826bd2eec082e613775c0bc22e92a56acdd7da1305012103b000fe0dbecb34dea2cc8af585cc722ce1452eaa2c88cc7e5c676518892565e7",
      "scriptsig_asm": "OP_PUSHBYTES_71 3044022033e85c6c60a19604ccaed954ccf786c3e8e31e49b80ead94f06365f35af6149702204f8d832dc7e9648da79e1d826bd2eec082e613775c0bc22e92a56acdd7da130501 OP_PUSHBYTES_33 03b000fe0dbecb34dea2cc8af585cc722ce1452eaa2c88cc7e5c676518892565e7",
      "is_coinbase": false,
      "sequence": 4294967295
    }
  ],
  "vout": [
    {
      "scriptpubkey": "76a91474552f3d7e5819dc923047c98261ca9be60f5bd688ac",
      "scriptpubkey_asm": "OP_DUP OP_HASH160 OP_PUSHBYTES_20 74552f3d7e5819dc923047c98261ca9be60f5bd6 OP_EQUALVERIFY OP_CHECKSIG",
      "scriptpubkey_type": "p2pkh",
      "scriptpubkey_address": "1Bc7RyguMRpVV5iwj5Ej9J7e6KH25yakWg",
      "value": 326565
    },
    {
      "scriptpubkey": "76a914f51299848e6c9d7e09d803379d88183fc65408b488ac",
      "scriptpubkey_asm": "OP_DUP OP_HASH160 OP_PUSHBYTES_20 f51299848e6c9d7e09d803379d88183fc65408b4 OP_EQUALVERIFY OP_CHECKSIG",
      "scriptpubkey_type": "p2pkh",
      "scriptpubkey_address": "1PLpqKxMMzwJkiXT2NQBSVYfuYkTebr8ch",
      "value": 301786
    }
  ],
  "size": 225,
  "weight": 900,
  "fee": 7684,
  "status": {
    "confirmed": true,
    "block_height": 834638,
    "block_hash": "000000000000000000025f742c626208ac87e0b7d15054abb4a19ca2d735a54e",
    "block_time": 1710405325
  },
  "hex": "0100000001843958a9b03cb0b19ff1ff27dce5e8b6e03d8a0b933a885160efcb3eeb8cb3bb000000006a473044022033e85c6c60a19604ccaed954ccf786c3e8e31e49b80ead94f06365f35af6149702204f8d832dc7e9648da79e1d826bd2eec082e613775c0bc22e92a56acdd7da1305012103b000fe0dbecb34dea2cc8af585cc722ce1452eaa2c88cc7e5c676518892565e7ffffffff02a5fb0400000000001976a91474552f3d7e5819dc923047c98261ca9be60f5bd688acda9a0400000000001976a914f51299848e6c9d7e09d803379d88183fc65408b488ac00000000"
}