{
  "txid": "2bffbaf9362b834f3f4c6530da5347aa7b84177ad8238ab7b4a1905486a322bc",
  "version": 2,
  "locktime": 0,
  "vin": [
    {
      "txid": "6edfe12013119cea322b289b8abfae9a29a657b7c20905b529f438f4f505c162",
      "vout": 0,
      "prevout": {
        "scriptpubkey": "001488418363c3cd2a1f2d7608b547ee26fe09117ee2",
        "scriptpubkey_asm": "OP_0 OP_PUSHBYTES_20 88418363c3cd2a1f2d7608b547ee26fe09117ee2",
        "scriptpubkey_type": "v0_p2wpkh",
        "scriptpubkey_address": "bc1q3pqcxc7re54p7ttkpz650m3xlcy3zlhzsg2k84",
        "value": 38454
      },
      "scriptsig": "",
      "scriptsig_asm": "",
      "witness": [
        "3045022100a947b6bf1e0dcb24b9a74bfa4c8a8e623d993a62e34608326f7c3a2dca824f5902205b864ba2f376d21afdf75790d7bf46e8e41a68005090d91df910206c3f8bbdf101",
        "02c9246373570e3709d42fc5188a9bffcc6a0acb1164ce47b2ecf903fe9e3557aa"
      ],
      "is_coinbase": false,
      "sequence": 4294967293
    }
  ],
  "vout": [
    {
      "scriptpubkey": "0014884f615cd07fa2189c31582a032215faa8f00334",
      "scriptpubkey_asm": "OP_0 OP_PUSHBYTES_20 884f615cd07fa2189c31582a032215faa8f00334",
      "scriptpubkey_type": "v0_p2wpkh",
      "scriptpubkey_address": "bc1q3p8kzhxs073p38p3tq4qxgs4l250qqe526hpw6",
      "value": 36805
    }
  ],
  "size": 192,
  "weight": 438,
  "fee": 1649,
  "status": {
    "confirmed": true,
    "block_height": 834638,
    "block_hash": "000000000000000000025f742c626208ac87e0b7d15054abb4a19ca2d735a54e",
    "block_time": 1710405325
  },
  "hex": "0200000000010162c105f5f438f429b50509c2b757a6299aaebf8a9b282b32ea9c111320e1df6e0000000000fdffffff01c58f000000000000160014884f615cd07fa2189c31582a032215faa8f0033402483045022100a947b6bf1e0dcb24b9a74bfa4c8a8e623d993a62e34608326f7c3a2dca824f5902205b864ba2f376d21afdf75790d7bf46e8e41a68005090d91df910206c3f8bbdf1012102c9246373570e3709d42fc5188a9bffcc6a0acb1164ce47b2ecf903fe9e3557aa00000000"
}