{
  "txid": "2bffaf82efe6cb217c85174f22429ee1204449802bf7e190cb93bdb52509191b",
  "version": 1,
  "locktime": 0,
  "vin": [
    {
      "txid": "47ef282b324821b163229671987f1f1b09f85d131f99aecb6983ae4a8216c52a",
      "vout": 0,
      "prevout": {
        "scriptpubkey": "0014b15eae9e61d6bd1597d70866fa4d8aa148ffde05",
        "scriptpubkey_asm": "OP_0 OP_PUSHBYTES_20 b15eae9e61d6bd1597d70866fa4d8aa148ffde05",
        "scriptpubkey_type": "v0_p2wpkh",
        "scriptpubkey_address": "bc1qk902a8np6673t97hppn05nv259y0lhs9n6gr3d",
        "value": 1894170
      },
      "scriptsig": "",
      "scriptsig_asm": "",
      "witness": [
        "3045022100963770a2cf1114106d8f335fd298af95048ee553583b5bf4bf0b613d83e80ddf022046858ba913d2b1a0793857d3140614868f09981d908751f3ee67cf5d4415883201",
        "029ee3a55e54ef17cf1069b0d4905f9882356f0bfd7ed6bf62fedd5dcde4ad5f81"
      ],
      "is_coinbase": false,
      "sequence": 4294967295
    }
  ],
  "vout": [
    {
      "scriptpubkey": "76a914b54e9db015ce9b26fae3f3148aa9063c51d6180788ac",
      "scriptpubkey_asm": "OP_DUP OP_HASH160 OP_PUSHBYTES_20 b54e9db015ce9b26fae3f3148aa9063c51d61807 OP_EQUALVERIFY OP_CHECKSIG",
      "scriptpubkey_type": "p2pkh",
      "scriptpubkey_address": "1HXfV4ASYZnyGfejVKWC9ZqRTkDEMXEEhw",
      "value": 1859041
    },
    {
      "scriptpubkey": "76a914b3da2aa58670fd16e7db08b266252e1b832952a688ac",
      "scriptpubkey_asm": "OP_DUP OP_HASH160 OP_PUSHBYTES_20 b3da2aa58670fd16e7db08b266252e1b832952a6 OP_EQUALVERIFY OP_CHECKSIG",
      "scriptpubkey_type": "p2pkh",
      "scriptpubkey_address": "1HPyJpSYx1vA1ntvaUs6V3Q3NMELTbTnwA",
      "value": 32749
    }
  ],
  "size": 229,
  "weight": 586,
  "fee": 2380,
  "status": {
    "confirmed": true,
    "block_height": 834638,
    "block_hash": "000000000000000000025f742c626208ac87e0b7d15054abb4a19ca2d735a54e",
    "block_time": 1710405325
  },
  "hex": "010000000001012ac516824aae8369cbae991f135df8091b1f7f9871962263b12148322b28ef470000000000ffffffff02e15d1c00000000001976a914b54e9db015ce9b26fae3f3148aa9063c51d6180788aced7f0000000000001976a914b3da2aa58670fd16e7db08b266252e1b832952a688ac02483045022100963770a2cf1114106d8f335fd298af95048ee553583b5bf4bf0b613d83e80ddf022046858ba913d2b1a0793857d3140614868f09981d908751f3ee67cf5d441588320121029ee3a55e54ef17cf1069b0d4905f9882356f0bfd7ed6bf62fedd5dcde4ad5f8100000000"
}