{
  "txid": "2c059d8e0ec30d679ae14b7585127a60bf1c902bb067a5127957a919920d430d",
  "version": 2,
  "locktime": 0,
  "vin": [
    {
      "txid": "ca49732a8789b812361e997512b66bc3787f1e3ff39f5f0d8b845e09438043f6",
      "vout": 4,
      "prevout": {
        "scriptpubkey": "512079e2c3e5be86f13f369519e67a482fbba6198b8c98602e510355dc52d2058a3d",
        "scriptpubkey_asm": "OP_PUSHNUM_1 OP_PUSHBYTES_32 79e2c3e5be86f13f369519e67a482fbba6198b8c98602e510355dc52d2058a3d",
        "scriptpubkey_type": "v1_p2tr",
        "scriptpubkey_address": "bc1p083v8ed7smcn7d54r8n85jp0hwnpnzuvnpszu5gr2hw995s93g7suw2j5q",
        "value": 2066
      },
      "scriptsig": "",
      "scriptsig_asm": "",
      "witness": [
        "4af389c8aabaf292b176b182416ca4fbdfd408366bf36b639686efea4db697a83ae0e28531dbadcdb7482e2513a6b888d7e900ba06c20b3827768dc9abe300f6",
        "20d7d6e8bd1765d819b7f4b9eec760f76587f68160eec4ad63ebc9a43d724139c8ac0063036f726401010a746578742f706c61696e00367b2270223a226272632d3230222c226f70223a226d696e74222c227469636b223a2261616161222c22616d74223a223130303030227d68",
        "c1d7d6e8bd1765d819b7f4b9eec760f76587f68160eec4ad63ebc9a43d724139c8"
      ],
      "is_coinbase": false,
      "sequence": 4261412863
    }
  ],
  "vout": [
    {
      "scriptpubkey": "0014b12a255b419b46c01324705abea5fd2949f55051",
      "scriptpubkey_asm": "OP_0 OP_PUSHBYTES_20 b12a255b419b46c01324705abea5fd2949f55051",
      "scriptpubkey_type": "v0_p2wpkh",
      "scriptpubkey_address": "bc1qky4z2k6pndrvqyeywpdtaf0a99yl25z3zp84r6",
      "value": 294
    }
  ],
  "size": 295,
  "weight": 541,
  "fee": 1772,
  "status": {
    "confirmed": true,
    "block_height": 834460,
    "block_hash": "00000000000000000000484a79b643b2524bbce82e5d8a442013fa5b8905ed98",
    "block_time": 1710307468
  },
  "hex": "02000000000101f6438043095e848b0d5f9ff33f1e7f78c36bb61275991e3612b889872a7349ca0400000000fffffffd012601000000000000160014b12a255b419b46c01324705abea5fd2949f5505103404af389c8aabaf292b176b182416ca4fbdfd408366bf36b639686efea4db697a83ae0e28531dbadcdb7482e2513a6b888d7e900ba06c20b3827768dc9abe300f66e20d7d6e8bd1765d819b7f4b9eec760f76587f68160eec4ad63ebc9a43d724139c8ac0063036f726401010a746578742f706c61696e00367b2270223a226272632d3230222c226f70223a226d696e74222c227469636b223a2261616161222c22616d74223a223130303030227d6821c1d7d6e8bd1765d819b7f4b9eec760f76587f68160eec4ad63ebc9a43d724139c800000000"
}