{
  "txid": "2c0eceac915a1715c183ed69fdd59561dc7a0d475b4077a0b4d63ff84cc3f72c",
  "version": 1,
  "locktime": 0,
  "vin": [
    {
      "txid": "263715786cff28ca88e22c05399bc037aaf94dd0c4ff3ceba23113c6e5872fec",
      "vout": 1,
      "prevout": {
        "scriptpubkey": "00144a7ec36997a2021524dd9a7db5213c2648956181",
        "scriptpubkey_asm": "OP_0 OP_PUSHBYTES_20 4a7ec36997a2021524dd9a7db5213c2648956181",
        "scriptpubkey_type": "v0_p2wpkh",
        "scriptpubkey_address": "bc1qfflvx6vh5gpp2fxanf7m2gfuyeyf2cvpnqwe58",
        "value": 60051
      },
      "scriptsig": "",
      "scriptsig_asm": "",
      "witness": [
        "3045022100df5f261748981ffe2e04a92d21503ad6aacff6a6dc12759de0082eb9c8f91d2402207436a5310d56c0ee639d5369978b1af596cf7446d9cd213ae0700f4ae5dd865101",
        "02585eeb6220d2ab45724ff8026ac56338264c1cb5398fa7a1bac46ac5b21ea143"
      ],
      "is_coinbase": false,
      "sequence": 4294967295
    }
  ],
  "vout": [
    {
      "scriptpubkey": "00142a8379adad0e23bb7188fb84a4d9ce17f6afc45a",
      "scriptpubkey_asm": "OP_0 OP_PUSHBYTES_20 2a8379adad0e23bb7188fb84a4d9ce17f6afc45a",
      "scriptpubkey_type": "v0_p2wpkh",
      "scriptpubkey_address": "bc1q92phntddpc3mkuvglwz2fkwwzlm2l3z68r05ur",
      "value": 37500
    },
    {
      "scriptpubkey": "0014bd9d88bd2c25e9d0461bd89b9ce62bd5e6dc3971",
      "scriptpubkey_asm": "OP_0 OP_PUSHBYTES_20 bd9d88bd2c25e9d0461bd89b9ce62bd5e6dc3971",
      "scriptpubkey_type": "v0_p2wpkh",
      "scriptpubkey_address": "bc1qhkwc30fvyh5aq3smmzdeee3t6hndcwt3xt469m",
      "value": 20454
    }
  ],
  "size": 223,
  "weight": 562,
  "fee": 2097,
  "status": {
    "confirmed": true,
    "block_height": 834638,
    "block_hash": "000000000000000000025f742c626208ac87e0b7d15054abb4a19ca2d735a54e",
    "block_time": 1710405325
  },
  "hex": "01000000000101ec2f87e5c61331a2eb3cffc4d04df9aa37c09b39052ce288ca28ff6c781537260100000000ffffffff027c920000000000001600142a8379adad0e23bb7188fb84a4d9ce17f6afc45ae64f000000000000160014bd9d88bd2c25e9d0461bd89b9ce62bd5e6dc397102483045022100df5f261748981ffe2e04a92d21503ad6aacff6a6dc12759de0082eb9c8f91d2402207436a5310d56c0ee639d5369978b1af596cf7446d9cd213ae0700f4ae5dd8651012102585eeb6220d2ab45724ff8026ac56338264c1cb5398fa7a1bac46ac5b21ea14300000000"
}