{
  "txid": "2c14ea7eff9f3824b0d6903b70163da82019b3b7d73b21c869cb7b2e1e66de59",
  "version": 1,
  "locktime": 0,
  "vin": [
    {
      "txid": "893f3f49ac9de0e8129dac6b31d616365d63c8529db3f6bdb04431fbeb36a46a",
      "vout": 1,
      "prevout": {
        "scriptpubkey": "512018cd1411e1d5c982900c183ceca03a888bdd668d48533236f8214c7b0130ad23",
        "scriptpubkey_asm": "OP_PUSHNUM_1 OP_PUSHBYTES_32 18cd1411e1d5c982900c183ceca03a888bdd668d48533236f8214c7b0130ad23",
        "scriptpubkey_type": "v1_p2tr",
        "scriptpubkey_address": "bc1prrx3gy0p6hyc9yqvrq7wegp63z9a6e5dfpfnydhcy9x8kqfs453s6yugx9",
        "value": 95101
      },
      "scriptsig": "",
      "scriptsig_asm": "",
      "witness": [
        "19ba7cf7f48aac8c2ea0559eca49c108d112447927556c612f6f0a95d0bbf1eadad63a837a889c7cba674cdaf6c3c3df16fa1f1f00c76f8d7e78af0985660a68"
      ],
      "is_coinbase": false,
      "sequence": 4294967293
    }
  ],
  "vout": [
    {
      "scriptpubkey": "00146d384f0f6d5cd78d7a8d8e31c6ff098ec2e8215d",
      "scriptpubkey_asm": "OP_0 OP_PUSHBYTES_20 6d384f0f6d5cd78d7a8d8e31c6ff098ec2e8215d",
      "scriptpubkey_type": "v0_p2wpkh",
      "scriptpubkey_address": "bc1qd5uy7rmdtntc675d3ccudlcf3mpwsg2ahl27j3",
      "value": 80000
    },
    {
      "scriptpubkey": "512018cd1411e1d5c982900c183ceca03a888bdd668d48533236f8214c7b0130ad23",
      "scriptpubkey_asm": "OP_PUSHNUM_1 OP_PUSHBYTES_32 18cd1411e1d5c982900c183ceca03a888bdd668d48533236f8214c7b0130ad23",
      "scriptpubkey_type": "v1_p2tr",
      "scriptpubkey_address": "bc1prrx3gy0p6hyc9yqvrq7wegp63z9a6e5dfpfnydhcy9x8kqfs453s6yugx9",
      "value": 13099
    }
  ],
  "size": 193,
  "weight": 568,
  "fee": 2002,
  "status": {
    "confirmed": true,
    "block_height": 834638,
    "block_hash": "000000000000000000025f742c626208ac87e0b7d15054abb4a19ca2d735a54e",
    "block_time": 1710405325
  },
  "hex": "010000000001016aa436ebfb3144b0bdf6b39d52c8635d3616d6316bac9d12e8e09dac493f3f890100000000fdffffff0280380100000000001600146d384f0f6d5cd78d7a8d8e31c6ff098ec2e8215d2b3300000000000022512018cd1411e1d5c982900c183ceca03a888bdd668d48533236f8214c7b0130ad23014019ba7cf7f48aac8c2ea0559eca49c108d112447927556c612f6f0a95d0bbf1eadad63a837a889c7cba674cdaf6c3c3df16fa1f1f00c76f8d7e78af0985660a6800000000"
}