{
  "txid": "2c17890130218b6495366a50f67c8d77c00e9732a11196ef9ec89b66beea9771",
  "version": 1,
  "locktime": 0,
  "vin": [
    {
      "txid": "1f25fcc9ece0dda279d4f9564298830733b0aa9f25e0f678889cd0e15011425c",
      "vout": 1,
      "prevout": {
        "scriptpubkey": "00144e62a7e447bb2677da9df5237d4091efb8363ea1",
        "scriptpubkey_asm": "OP_0 OP_PUSHBYTES_20 4e62a7e447bb2677da9df5237d4091efb8363ea1",
        "scriptpubkey_type": "v0_p2wpkh",
        "scriptpubkey_address": "bc1qfe320ez8hvn80k5a753h6sy3a7urv04peaa2f6",
        "value": 97921
      },
      "scriptsig": "",
      "scriptsig_asm": "",
      "witness": [
        "304402202bab78674a48796478dae6c251f4577fd7e561515da5d70ede4234d28dd7928502205a499b5603b520913df3666b08617d80cd986a16b1f6775fb3305c505c353c4001",
        "03457f54b36cc60c4a6875e68c34c526df451c717186eab2f32331f648db89dff6"
      ],
      "is_coinbase": false,
      "sequence": 4294967295
    }
  ],
  "vout": [
    {
      "scriptpubkey": "76a914cba0d24eb67f6bbaef05d2d6ceff07428e1144e488ac",
      "scriptpubkey_asm": "OP_DUP OP_HASH160 OP_PUSHBYTES_20 cba0d24eb67f6bbaef05d2d6ceff07428e1144e4 OP_EQUALVERIFY OP_CHECKSIG",
      "scriptpubkey_type": "p2pkh",
      "scriptpubkey_address": "1KZgq1wc7BYFJYpy5Dzio6mEvmAdYi7ffT",
      "value": 20000
    },
    {
      "scriptpubkey": "00144e62a7e447bb2677da9df5237d4091efb8363ea1",
      "scriptpubkey_asm": "OP_0 OP_PUSHBYTES_20 4e62a7e447bb2677da9df5237d4091efb8363ea1",
      "scriptpubkey_type": "v0_p2wpkh",
      "scriptpubkey_address": "bc1qfe320ez8hvn80k5a753h6sy3a7urv04peaa2f6",
      "value": 74033
    }
  ],
  "size": 225,
  "weight": 573,
  "fee": 3888,
  "status": {
    "confirmed": true,
    "block_height": 834638,
    "block_hash": "000000000000000000025f742c626208ac87e0b7d15054abb4a19ca2d735a54e",
    "block_time": 1710405325
  },
  "hex": "010000000001015c421150e1d09c8878f6e0259faab0330783984256f9d479a2dde0ecc9fc251f0100000000ffffffff02204e0000000000001976a914cba0d24eb67f6bbaef05d2d6ceff07428e1144e488ac31210100000000001600144e62a7e447bb2677da9df5237d4091efb8363ea10247304402202bab78674a48796478dae6c251f4577fd7e561515da5d70ede4234d28dd7928502205a499b5603b520913df3666b08617d80cd986a16b1f6775fb3305c505c353c40012103457f54b36cc60c4a6875e68c34c526df451c717186eab2f32331f648db89dff600000000"
}