{
  "txid": "2c3249d410841a41599d42d5bb9016b4d9dc94fec46e2c2398f9e13df8cc2eb2",
  "version": 1,
  "locktime": 0,
  "vin": [
    {
      "txid": "000017bba244a83e478bafd0fe2f4fcefffea0364a8ce9363cbcd32282de5ff5",
      "vout": 0,
      "prevout": {
        "scriptpubkey": "51208e0dcf094383e7da298a929d2acc47f9308d7237d1e81e75cb9926cc79f1bde9",
        "scriptpubkey_asm": "OP_PUSHNUM_1 OP_PUSHBYTES_32 8e0dcf094383e7da298a929d2acc47f9308d7237d1e81e75cb9926cc79f1bde9",
        "scriptpubkey_type": "v1_p2tr",
        "scriptpubkey_address": "bc1p3cxu7z2rs0na52v2j2wj4nz8lycg6u3h685puawtnynvc703hh5suu5k5a",
        "value": 2908
      },
      "scriptsig": "",
      "scriptsig_asm": "",
      "witness": [
        "28dbb81a770caef6a11f9ef79e7f86f0a03de4df2543c517ae084944553fafc0d60a95875455de327f3ff0c5f47bdfcc214b5a3e9360d284f17d01ca2760aa9083",
        "20be11f1d0580232188e877ef283eb5a1efd4e9e5290a2633605d666f59ad3fff2ac00630461746f6d03646d743da16461726773a468626974776f726b6364303030306b6d696e745f7469636b65726670686f746f6e656e6f6e63651a005285246474696d651a65f1f46068",
        "c1be11f1d0580232188e877ef283eb5a1efd4e9e5290a2633605d666f59ad3fff2"
      ],
      "is_coinbase": false,
      "sequence": 4294967293
    }
  ],
  "vout": [
    {
      "scriptpubkey": "512065fd3d423ea46a70505248db989e7302bfbbdd64ee4193dd9a59f69894f0de48",
      "scriptpubkey_asm": "OP_PUSHNUM_1 OP_PUSHBYTES_32 65fd3d423ea46a70505248db989e7302bfbbdd64ee4193dd9a59f69894f0de48",
      "scriptpubkey_type": "v1_p2tr",
      "scriptpubkey_address": "bc1pvh7n6s375348q5zjfrde38nnq2lmhhtyaeqe8hv6t8mf398smeyqnug47s",
      "value": 1000
    }
  ],
  "size": 306,
  "weight": 588,
  "fee": 1908,
  "status": {
    "confirmed": true,
    "block_height": 834552,
    "block_hash": "00000000000000000001dd0468a70c94f619251d286585cff57aeb4bd9ede330",
    "block_time": 1710355598
  },
  "hex": "01000000000101f55fde8222d3bc3c36e98c4a36a0feffce4f2ffed0af8b473ea844a2bb1700000000000000fdffffff01e80300000000000022512065fd3d423ea46a70505248db989e7302bfbbdd64ee4193dd9a59f69894f0de48034128dbb81a770caef6a11f9ef79e7f86f0a03de4df2543c517ae084944553fafc0d60a95875455de327f3ff0c5f47bdfcc214b5a3e9360d284f17d01ca2760aa90836c20be11f1d0580232188e877ef283eb5a1efd4e9e5290a2633605d666f59ad3fff2ac00630461746f6d03646d743da16461726773a468626974776f726b6364303030306b6d696e745f7469636b65726670686f746f6e656e6f6e63651a005285246474696d651a65f1f4606821c1be11f1d0580232188e877ef283eb5a1efd4e9e5290a2633605d666f59ad3fff200000000"
}