{
  "txid": "2c3361e8d36583b061d83bdbce02dd0e10ffc48238b0ef0f0aa96ee7aff5354c",
  "version": 2,
  "locktime": 0,
  "vin": [
    {
      "txid": "40a14fc82f06994531896578d4a7ca60dce72fc47c19240357083656c4937477",
      "vout": 0,
      "prevout": {
        "scriptpubkey": "a9142c21151d54bd219dcc4c52e1cb38672dab8e36cc87",
        "scriptpubkey_asm": "OP_HASH160 OP_PUSHBYTES_20 2c21151d54bd219dcc4c52e1cb38672dab8e36cc OP_EQUAL",
        "scriptpubkey_type": "p2sh",
        "scriptpubkey_address": "35iMHbUZeTssxBodiHwEEkb32jpBfVueEL",
        "value": 18683197
      },
      "scriptsig": "1600147c846a806f4d9e516c9fb2fe364f28eac4e3c3fc",
      "scriptsig_asm": "OP_PUSHBYTES_22 00147c846a806f4d9e516c9fb2fe364f28eac4e3c3fc",
      "witness": [
        "3044022027d7562feac348eee9bacf1a4f9d003735f5ead673d3610169d51c1c7099e016022030cd07abe0ae0f6f489def5cc28ebe1e319c226eefbad2dde13c3d8edea5c94c01",
        "03789a9d83798d4cbf688f9969a94084ee1655059e137b43492ee94dc4538790ab"
      ],
      "is_coinbase": false,
      "sequence": 4294967295,
      "inner_redeemscript_asm": "OP_0 OP_PUSHBYTES_20 7c846a806f4d9e516c9fb2fe364f28eac4e3c3fc"
    }
  ],
  "vout": [
    {
      "scriptpubkey": "a9142c21151d54bd219dcc4c52e1cb38672dab8e36cc87",
      "scriptpubkey_asm": "OP_HASH160 OP_PUSHBYTES_20 2c21151d54bd219dcc4c52e1cb38672dab8e36cc OP_EQUAL",
      "scriptpubkey_type": "p2sh",
      "scriptpubkey_address": "35iMHbUZeTssxBodiHwEEkb32jpBfVueEL",
      "value": 13700320
    },
    {
      "scriptpubkey": "76a9143dcce6e374317208750a88393e25b6f3cba61bba88ac",
      "scriptpubkey_asm": "OP_DUP OP_HASH160 OP_PUSHBYTES_20 3dcce6e374317208750a88393e25b6f3cba61bba OP_EQUALVERIFY OP_CHECKSIG",
      "scriptpubkey_type": "p2pkh",
      "scriptpubkey_address": "16dmgY5WeZuzi1Sbi6hrxJz3Q37oqMaAcU",
      "value": 4980202
    }
  ],
  "size": 249,
  "weight": 669,
  "fee": 2675,
  "status": {
    "confirmed": true,
    "block_height": 834638,
    "block_hash": "000000000000000000025f742c626208ac87e0b7d15054abb4a19ca2d735a54e",
    "block_time": 1710405325
  },
  "hex": "02000000000101777493c4563608570324197cc42fe7dc60caa7d4786589314599062fc84fa14000000000171600147c846a806f4d9e516c9fb2fe364f28eac4e3c3fcffffffff02e00cd1000000000017a9142c21151d54bd219dcc4c52e1cb38672dab8e36cc87eafd4b00000000001976a9143dcce6e374317208750a88393e25b6f3cba61bba88ac02473044022027d7562feac348eee9bacf1a4f9d003735f5ead673d3610169d51c1c7099e016022030cd07abe0ae0f6f489def5cc28ebe1e319c226eefbad2dde13c3d8edea5c94c012103789a9d83798d4cbf688f9969a94084ee1655059e137b43492ee94dc4538790ab00000000"
}