{
  "txid": "2c450f3efbd18910d0cd9917c7a6ac4bed5a03da76cf0bab40ec61a113fdcccf",
  "version": 1,
  "locktime": 0,
  "vin": [
    {
      "txid": "c1980e1597de038fd2dfc4d0a1a59352d1d6f78007e29c4a1f0e98b58227ec88",
      "vout": 0,
      "prevout": {
        "scriptpubkey": "5120792df2e25842131fd3b6d6bcabfd07d35706969988e9af2290d4baaec1c10049",
        "scriptpubkey_asm": "OP_PUSHNUM_1 OP_PUSHBYTES_32 792df2e25842131fd3b6d6bcabfd07d35706969988e9af2290d4baaec1c10049",
        "scriptpubkey_type": "v1_p2tr",
        "scriptpubkey_address": "bc1p0ykl9cjcggf3l5ak6672hlg86dtsd95e3r567g5s6ja2aswpqpys3n9zlv",
        "value": 7386
      },
      "scriptsig": "",
      "scriptsig_asm": "",
      "witness": [
        "12692f6b748fb2005ffcfa5051beeffbf0cc2df9bb210507abdfd626f0e2d2d1c39de42efbd45a092545f648aa7ad9063ad564048727e7b9c8c64aed98f0bcc0",
        "2018e2aeb90f7d65de925432a31036ca1ced3e63da5abdaafb1ccbeb437f230d51ac00630461746f6d036e66744d0802a26461726773a86169f5646d61696e69696d6167652e7376676474696d651a65f13304656e6f6e63651922586570726f6f668da261647840393165623038336366633032623039646364343764323131323032313266383861376562636563373939366238353766613163613338663231386161396335656170f4a261647840373833616361306636386362333834373536616331663832653435366335303566323336323966653238376561333964313134633531393533393563386436656170f5a261647840313230616331326434666333383436376362653931666565623065373838313438653835343439643730616431396130313838373731333365376263383130366170f5a261647840616163313562376233393939643638343162633333393066613565353466356164383733653938633331323438663562373439313462356534346366666431376170f4a261647840376530633835613837376238306236383762656432623163633532623439396562383330333564313961353839346565623965386662376663636635653464306170f5a261647840383836613462396465303835373433323136386436626130306264356463613565363236623030303232663737653937633365373137313432333563366562316170f4a26164784038343663613665393534656461356566636363346634336261366462306539334d080235353731646436353764653865366266316136613862306565393265393663666170f4a261647840373232653865636131373264336261653535333135303538383435396562396633356636343662636333373965303961643637343737323161373931383531356170f4a261647840663861396437386138383362393939643738633732313365663731383237393639656431333463383861623437663664353861313635633065663438313662386170f5a261647840313033303730353636373537306262363232643465636631333665313233653865326435616132623133333335643139323464363961396339373632333934366170f4a261647840383534636638343030646532633635336163346463376163636537336466303362666665626138643037613365346637663665643164376135323465383666626170f5a261647840393262653434386162636263373464656630643433356435323233323534616139356130353638323065383431623261383061333537393930373865623934366170f5a261647840366438633332333766333865393465393064613434616232356235313530323137623630363565326534313737353137373232666233636631316232386538616170f568626974776f726b636563313938306e726571756573745f646d6974656d643136363970706172656e745f636f6e7461696e6572784de6014231393830393063356636666438636163343337383132353134333039393135396566346234303961656463333931323432633361363765333738376637666437693069696d6167652e7376675901963c73766720786d6c6e733d22687474703a2f2f7777772e77332e6f72672f323030302f737667222077696474683d2232303022206865696768743d22323030223e3c726563742077696474683d223130302522206865696768743d2231303025222066696c6c3d22776869746522202f3e3c7465787420783d223530252220793d223435252220666f6e742d66616d696c793d222746616e67536f6e67272c2073657269662220666f6e742d73697a653d223530222066696c6c3d22233030303030302220646f6d696e616e742d626173656c696e653d226d6964646c652220746578742d616e63686f723d226d6964646c65223ee5bca93c2f746578743e3c7465787420783d223530252220793d223735252220666f6e742d66616d696c793d222746616e67536f6e67272c2073657269662220666f6e742d73697a653d223230222066696c6c3d22233030303030302220646f6d696e616e742d626173656c696e653d226d6964646c652220746578742d616e63686f723d226d6964646c65223e6535626361393c2f746578743e3c2f7376673e68",
        "c018e2aeb90f7d65de925432a31036ca1ced3e63da5abdaafb1ccbeb437f230d51"
      ],
      "is_coinbase": false,
      "sequence": 1
    }
  ],
  "vout": [
    {
      "scriptpubkey": "51203e4de2c59d68015dc5c704364002b6045d335265e86d4b4ff2ece4c2a0ebb8d9",
      "scriptpubkey_asm": "OP_PUSHNUM_1 OP_PUSHBYTES_32 3e4de2c59d68015dc5c704364002b6045d335265e86d4b4ff2ece4c2a0ebb8d9",
      "scriptpubkey_type": "v1_p2tr",
      "scriptpubkey_address": "bc1p8ex793vadqq4m3w8qsmyqq4kq3wnx5n9apk5knljanjv9g8thrvs402kdq",
      "value": 1000
    }
  ],
  "size": 1780,
  "weight": 2062,
  "fee": 6386,
  "status": {
    "confirmed": true,
    "block_height": 834460,
    "block_hash": "00000000000000000000484a79b643b2524bbce82e5d8a442013fa5b8905ed98",
    "block_time": 1710307468
  },
  "hex": "0100000000010188ec2782b5980e1f4a9ce20780f7d6d15293a5a1d0c4dfd28f03de97150e98c100000000000100000001e8030000000000002251203e4de2c59d68015dc5c704364002b6045d335265e86d4b4ff2ece4c2a0ebb8d9034012692f6b748fb2005ffcfa5051beeffbf0cc2df9bb210507abdfd626f0e2d2d1c39de42efbd45a092545f648aa7ad9063ad564048727e7b9c8c64aed98f0bcc0fd2d062018e2aeb90f7d65de925432a31036ca1ced3e63da5abdaafb1ccbeb437f230d51ac00630461746f6d036e66744d0802a26461726773a86169f5646d61696e69696d6167652e7376676474696d651a65f13304656e6f6e63651922586570726f6f668da261647840393165623038336366633032623039646364343764323131323032313266383861376562636563373939366238353766613163613338663231386161396335656170f4a261647840373833616361306636386362333834373536616331663832653435366335303566323336323966653238376561333964313134633531393533393563386436656170f5a261647840313230616331326434666333383436376362653931666565623065373838313438653835343439643730616431396130313838373731333365376263383130366170f5a261647840616163313562376233393939643638343162633333393066613565353466356164383733653938633331323438663562373439313462356534346366666431376170f4a261647840376530633835613837376238306236383762656432623163633532623439396562383330333564313961353839346565623965386662376663636635653464306170f5a261647840383836613462396465303835373433323136386436626130306264356463613565363236623030303232663737653937633365373137313432333563366562316170f4a26164784038343663613665393534656461356566636363346634336261366462306539334d080235353731646436353764653865366266316136613862306565393265393663666170f4a261647840373232653865636131373264336261653535333135303538383435396562396633356636343662636333373965303961643637343737323161373931383531356170f4a261647840663861396437386138383362393939643738633732313365663731383237393639656431333463383861623437663664353861313635633065663438313662386170f5a261647840313033303730353636373537306262363232643465636631333665313233653865326435616132623133333335643139323464363961396339373632333934366170f4a261647840383534636638343030646532633635336163346463376163636537336466303362666665626138643037613365346637663665643164376135323465383666626170f5a261647840393262653434386162636263373464656630643433356435323233323534616139356130353638323065383431623261383061333537393930373865623934366170f5a261647840366438633332333766333865393465393064613434616232356235313530323137623630363565326534313737353137373232666233636631316232386538616170f568626974776f726b636563313938306e726571756573745f646d6974656d643136363970706172656e745f636f6e7461696e6572784de6014231393830393063356636666438636163343337383132353134333039393135396566346234303961656463333931323432633361363765333738376637666437693069696d6167652e7376675901963c73766720786d6c6e733d22687474703a2f2f7777772e77332e6f72672f323030302f737667222077696474683d2232303022206865696768743d22323030223e3c726563742077696474683d223130302522206865696768743d2231303025222066696c6c3d22776869746522202f3e3c7465787420783d223530252220793d223435252220666f6e742d66616d696c793d222746616e67536f6e67272c2073657269662220666f6e742d73697a653d223530222066696c6c3d22233030303030302220646f6d696e616e742d626173656c696e653d226d6964646c652220746578742d616e63686f723d226d6964646c65223ee5bca93c2f746578743e3c7465787420783d223530252220793d223735252220666f6e742d66616d696c793d222746616e67536f6e67272c2073657269662220666f6e742d73697a653d223230222066696c6c3d22233030303030302220646f6d696e616e742d626173656c696e653d226d6964646c652220746578742d616e63686f723d226d6964646c65223e6535626361393c2f746578743e3c2f7376673e6821c018e2aeb90f7d65de925432a31036ca1ced3e63da5abdaafb1ccbeb437f230d5100000000"
}