{
  "txid": "2c472f7d38dfeaf8bb8fad365daefe593f144f30b6913bb18fc4e0cef8feec46",
  "version": 1,
  "locktime": 0,
  "vin": [
    {
      "txid": "91f65f6e5dc5449053979578218452fbe3afa6c97d14148d054291c5c0b4e076",
      "vout": 1,
      "prevout": {
        "scriptpubkey": "0014a11a4c92cc2542bbd6bf99aa4b2abc2eaa442536",
        "scriptpubkey_asm": "OP_0 OP_PUSHBYTES_20 a11a4c92cc2542bbd6bf99aa4b2abc2eaa442536",
        "scriptpubkey_type": "v0_p2wpkh",
        "scriptpubkey_address": "bc1q5ydyeykvy4pth44lnx4yk24u964ygffkuqd93x",
        "value": 37402610
      },
      "scriptsig": "",
      "scriptsig_asm": "",
      "witness": [
        "3044022010538838355f348aa02ec9849d009d310578644a9aa2d2717a92355dfc062efd02207070e9ee56cf89031fba446463900cba4428ba6a31a8822f6f49f333d2dfb62e01",
        "0379de0b76f29e562cfa26939899d6335c18f332d16602377c7d480b0f409eb432"
      ],
      "is_coinbase": false,
      "sequence": 4294967293
    }
  ],
  "vout": [
    {
      "scriptpubkey": "0014ac7cb50288ed9062a370b6229ce90485e5c6551e",
      "scriptpubkey_asm": "OP_0 OP_PUSHBYTES_20 ac7cb50288ed9062a370b6229ce90485e5c6551e",
      "scriptpubkey_type": "v0_p2wpkh",
      "scriptpubkey_address": "bc1q437t2q5gakgx9gmskc3fe6gyshjuv4g77e2ccp",
      "value": 831762
    },
    {
      "scriptpubkey": "0014265c9b2760c38d614d12719a04f892e60ae0d785",
      "scriptpubkey_asm": "OP_0 OP_PUSHBYTES_20 265c9b2760c38d614d12719a04f892e60ae0d785",
      "scriptpubkey_type": "v0_p2wpkh",
      "scriptpubkey_address": "bc1qyewfkfmqcwxkzngjwxdqf7yjuc9wp4u9wnvusz",
      "value": 36569156
    }
  ],
  "size": 222,
  "weight": 561,
  "fee": 1692,
  "status": {
    "confirmed": true,
    "block_height": 834464,
    "block_hash": "0000000000000000000177a0869a911a2b65c9bdcd5a8bcb02b68f305bee848e",
    "block_time": 1710308296
  },
  "hex": "0100000000010176e0b4c0c59142058d14147dc9a6afe3fb528421789597539044c55d6e5ff6910100000000fdffffff0212b10c0000000000160014ac7cb50288ed9062a370b6229ce90485e5c6551e44002e0200000000160014265c9b2760c38d614d12719a04f892e60ae0d78502473044022010538838355f348aa02ec9849d009d310578644a9aa2d2717a92355dfc062efd02207070e9ee56cf89031fba446463900cba4428ba6a31a8822f6f49f333d2dfb62e01210379de0b76f29e562cfa26939899d6335c18f332d16602377c7d480b0f409eb43200000000"
}