{
  "txid": "2c5c3ab08e620d56c47ad8c1e815c556fd85b51389ba55d7787bcfa860ee9a56",
  "version": 1,
  "locktime": 0,
  "vin": [
    {
      "txid": "1c1d3a4838bf9b00d96061d6d41a6515e7898e7eddef1aea83da381371f43c76",
      "vout": 0,
      "prevout": {
        "scriptpubkey": "001497af1ac3840eda25d6b8cfa4ad123ee77ba94b29",
        "scriptpubkey_asm": "OP_0 OP_PUSHBYTES_20 97af1ac3840eda25d6b8cfa4ad123ee77ba94b29",
        "scriptpubkey_type": "v0_p2wpkh",
        "scriptpubkey_address": "bc1qj7h34suypmdzt44ce7j26y37uaa6jjefx3vja8",
        "value": 6942
      },
      "scriptsig": "",
      "scriptsig_asm": "",
      "witness": [
        "3045022100faeb07768ada6a30594219065331d960ef861a47f0eb8375f994bdcc2360eac802204ed1da3cfaed38c01c4cc9b6862fb8c101f04a06ff1a3cb05e3e711a2b196f5901",
        "03868681c51bfe4db4a5b9e5e7e1f6f1ff515d667bf6e58cb27f14274f5c5d7329"
      ],
      "is_coinbase": false,
      "sequence": 4294967295
    }
  ],
  "vout": [
    {
      "scriptpubkey": "76a914c51ec5454b2070058fe7f91163ee07acd45bcef888ac",
      "scriptpubkey_asm": "OP_DUP OP_HASH160 OP_PUSHBYTES_20 c51ec5454b2070058fe7f91163ee07acd45bcef8 OP_EQUALVERIFY OP_CHECKSIG",
      "scriptpubkey_type": "p2pkh",
      "scriptpubkey_address": "1JyGymaTzXcjECSvCS2vxwa6nc2mjvHr1D",
      "value": 5245
    }
  ],
  "size": 195,
  "weight": 450,
  "fee": 1697,
  "status": {
    "confirmed": true,
    "block_height": 834638,
    "block_hash": "000000000000000000025f742c626208ac87e0b7d15054abb4a19ca2d735a54e",
    "block_time": 1710405325
  },
  "hex": "01000000000101763cf4711338da83ea1aefdd7e8e89e715651ad4d66160d9009bbf38483a1d1c0000000000ffffffff017d140000000000001976a914c51ec5454b2070058fe7f91163ee07acd45bcef888ac02483045022100faeb07768ada6a30594219065331d960ef861a47f0eb8375f994bdcc2360eac802204ed1da3cfaed38c01c4cc9b6862fb8c101f04a06ff1a3cb05e3e711a2b196f59012103868681c51bfe4db4a5b9e5e7e1f6f1ff515d667bf6e58cb27f14274f5c5d732900000000"
}