{
  "txid": "2c5e732a3265796cfee9d92ab1e728f401186cf967194a2784a3982dea570678",
  "version": 2,
  "locktime": 0,
  "vin": [
    {
      "txid": "61f6d80bc599792cde409b295c5c08ad8c6c58423905a3d1ec2d6b36b16eab1b",
      "vout": 0,
      "prevout": {
        "scriptpubkey": "0014dbcd62f34260588a57a3eba59736cc8e055e4e90",
        "scriptpubkey_asm": "OP_0 OP_PUSHBYTES_20 dbcd62f34260588a57a3eba59736cc8e055e4e90",
        "scriptpubkey_type": "v0_p2wpkh",
        "scriptpubkey_address": "bc1qm0xk9u6zvpvg54arawjewdkv3cz4un5s76s9ls",
        "value": 107130645
      },
      "scriptsig": "",
      "scriptsig_asm": "",
      "witness": [
        "304402200e989457f7b212e631d56d6af31cb9fedefe86facc3a8579f4ae0a7350ce69d70220331cbba57a89c47a97f1c84dc7a780ab4a8329f937b8ccb73ec8f01b3ba2e2ca01",
        "03bdacc694bedfdad704bdd957f97a1ba97a1b896bbcb9bce92023db1f0305a687"
      ],
      "is_coinbase": false,
      "sequence": 4294967295
    }
  ],
  "vout": [
    {
      "scriptpubkey": "0014e29a03b8ff61d91ffbe35628b61a24fad8a50e33",
      "scriptpubkey_asm": "OP_0 OP_PUSHBYTES_20 e29a03b8ff61d91ffbe35628b61a24fad8a50e33",
      "scriptpubkey_type": "v0_p2wpkh",
      "scriptpubkey_address": "bc1qu2dq8w8lv8v3l7lr2c5tvx3yltv22r3nhkx7w0",
      "value": 107127065
    }
  ],
  "size": 191,
  "weight": 437,
  "fee": 3580,
  "status": {
    "confirmed": true,
    "block_height": 834638,
    "block_hash": "000000000000000000025f742c626208ac87e0b7d15054abb4a19ca2d735a54e",
    "block_time": 1710405325
  },
  "hex": "020000000001011bab6eb1366b2decd1a3053942586c8cad085c5c299b40de2c7999c50bd8f6610000000000ffffffff0119a1620600000000160014e29a03b8ff61d91ffbe35628b61a24fad8a50e330247304402200e989457f7b212e631d56d6af31cb9fedefe86facc3a8579f4ae0a7350ce69d70220331cbba57a89c47a97f1c84dc7a780ab4a8329f937b8ccb73ec8f01b3ba2e2ca012103bdacc694bedfdad704bdd957f97a1ba97a1b896bbcb9bce92023db1f0305a68700000000"
}