{
  "txid": "2c6c58338eddec9db1d914e214446ea718002e30bb5e7334c444b970277ad264",
  "version": 1,
  "locktime": 0,
  "vin": [
    {
      "txid": "897967a478729fd11f19fe5d8301dfb66eb32bb8687c13afd7c13a78f23a5531",
      "vout": 1,
      "prevout": {
        "scriptpubkey": "76a914b5be080fa5deb3238348ac6aa0240d574b56414488ac",
        "scriptpubkey_asm": "OP_DUP OP_HASH160 OP_PUSHBYTES_20 b5be080fa5deb3238348ac6aa0240d574b564144 OP_EQUALVERIFY OP_CHECKSIG",
        "scriptpubkey_type": "p2pkh",
        "scriptpubkey_address": "1HZxxLkrATEcDBmdXqNLxxUXUhCSy97E2T",
        "value": 278375896
      },
      "scriptsig": "483045022100bd718ba3d17788bd065c844a1d90b247f371945029fa6dd5d7ab1aa9e5a85a480220610e523c7f6df663b74bc8191408707a71c88036b9880de6d50f50c58ea553b0012103b5fa04d793ed42510aa5e5a8583d11c54490cbba6aa7cbd3d2ade0d9244a0db8",
      "scriptsig_asm": "OP_PUSHBYTES_72 3045022100bd718ba3d17788bd065c844a1d90b247f371945029fa6dd5d7ab1aa9e5a85a480220610e523c7f6df663b74bc8191408707a71c88036b9880de6d50f50c58ea553b001 OP_PUSHBYTES_33 03b5fa04d793ed42510aa5e5a8583d11c54490cbba6aa7cbd3d2ade0d9244a0db8",
      "is_coinbase": false,
      "sequence": 4294967293
    }
  ],
  "vout": [
    {
      "scriptpubkey": "0014282d82c537bb90ea2b8a6a6553a352cc5ca76de8",
      "scriptpubkey_asm": "OP_0 OP_PUSHBYTES_20 282d82c537bb90ea2b8a6a6553a352cc5ca76de8",
      "scriptpubkey_type": "v0_p2wpkh",
      "scriptpubkey_address": "bc1q9qkc93fhhwgw52u2dfj48g6je3w2wm0g2dhf7z",
      "value": 490000
    },
    {
      "scriptpubkey": "76a914b5be080fa5deb3238348ac6aa0240d574b56414488ac",
      "scriptpubkey_asm": "OP_DUP OP_HASH160 OP_PUSHBYTES_20 b5be080fa5deb3238348ac6aa0240d574b564144 OP_EQUALVERIFY OP_CHECKSIG",
      "scriptpubkey_type": "p2pkh",
      "scriptpubkey_address": "1HZxxLkrATEcDBmdXqNLxxUXUhCSy97E2T",
      "value": 277879116
    }
  ],
  "size": 223,
  "weight": 892,
  "fee": 6780,
  "status": {
    "confirmed": true,
    "block_height": 834638,
    "block_hash": "000000000000000000025f742c626208ac87e0b7d15054abb4a19ca2d735a54e",
    "block_time": 1710405325
  },
  "hex": "010000000131553af2783ac1d7af137c68b82bb36eb6df01835dfe191fd19f7278a4677989010000006b483045022100bd718ba3d17788bd065c844a1d90b247f371945029fa6dd5d7ab1aa9e5a85a480220610e523c7f6df663b74bc8191408707a71c88036b9880de6d50f50c58ea553b0012103b5fa04d793ed42510aa5e5a8583d11c54490cbba6aa7cbd3d2ade0d9244a0db8fdffffff02107a070000000000160014282d82c537bb90ea2b8a6a6553a352cc5ca76de84c199010000000001976a914b5be080fa5deb3238348ac6aa0240d574b56414488ac00000000"
}