{
  "txid": "2c77ea91432117c5432597b7b5698abf07f9cc8a9f979cd5b7a7009c512d2e31",
  "version": 1,
  "locktime": 0,
  "vin": [
    {
      "txid": "888888888cf7c3eea73fcf54de8eb4037eb6b527a036bf53fcbaab881f0a9fb8",
      "vout": 0,
      "prevout": {
        "scriptpubkey": "5120e33eda07ac5a1776702cc5acf5bfa69f281d4af0f40d3c51b85a4278a4b50287",
        "scriptpubkey_asm": "OP_PUSHNUM_1 OP_PUSHBYTES_32 e33eda07ac5a1776702cc5acf5bfa69f281d4af0f40d3c51b85a4278a4b50287",
        "scriptpubkey_type": "v1_p2tr",
        "scriptpubkey_address": "bc1puvld5pavtgthvupvckk0t0axnu5p6jhs7sxnc5dctfp83f94q2rs9hvzvw",
        "value": 11627
      },
      "scriptsig": "",
      "scriptsig_asm": "",
      "witness": [
        "430843ff9128d0e37cdeb6080e8863250aafb10823f956830eaf283fe57a4d3e3aa1cf5064627187b867ee354f146f518d9dbba9bc536b354b48acc79bdfe37d",
        "2013a939ea1940d8c5201bfe1926963ae16aa1fbaefc90a6b00388399ce0b4657cac00630461746f6d03646d7446a16461726773a46474696d651a65ef0952656e6f6e63651a0001001168626974776f726b636b3838383838383838382e376b6d696e745f7469636b657268696e66696e69747968",
        "c013a939ea1940d8c5201bfe1926963ae16aa1fbaefc90a6b00388399ce0b4657c"
      ],
      "is_coinbase": false,
      "sequence": 4294967295
    }
  ],
  "vout": [
    {
      "scriptpubkey": "51205a263ceb749a9db19b79bdaab5c1862ca038177143914ee1a994d2591cdf79a7",
      "scriptpubkey_asm": "OP_PUSHNUM_1 OP_PUSHBYTES_32 5a263ceb749a9db19b79bdaab5c1862ca038177143914ee1a994d2591cdf79a7",
      "scriptpubkey_type": "v1_p2tr",
      "scriptpubkey_address": "bc1ptgnre6m5n2wmrxmehk4ttsvx9jsrs9m3gwg5acdfjnf9j8xl0xnsmagkgl",
      "value": 9999
    }
  ],
  "size": 314,
  "weight": 596,
  "fee": 1628,
  "status": {
    "confirmed": true,
    "block_height": 834464,
    "block_hash": "0000000000000000000177a0869a911a2b65c9bdcd5a8bcb02b68f305bee848e",
    "block_time": 1710308296
  },
  "hex": "01000000000101b89f0a1f88abbafc53bf36a027b5b67e03b48ede54cf3fa7eec3f78c888888880000000000ffffffff010f270000000000002251205a263ceb749a9db19b79bdaab5c1862ca038177143914ee1a994d2591cdf79a70340430843ff9128d0e37cdeb6080e8863250aafb10823f956830eaf283fe57a4d3e3aa1cf5064627187b867ee354f146f518d9dbba9bc536b354b48acc79bdfe37d752013a939ea1940d8c5201bfe1926963ae16aa1fbaefc90a6b00388399ce0b4657cac00630461746f6d03646d7446a16461726773a46474696d651a65ef0952656e6f6e63651a0001001168626974776f726b636b3838383838383838382e376b6d696e745f7469636b657268696e66696e6974796821c013a939ea1940d8c5201bfe1926963ae16aa1fbaefc90a6b00388399ce0b4657c00000000"
}