{
  "txid": "2cc27835b1e15761c9edb36ba2c3ee086dc79daf6e655fbe8b8beccfb3646541",
  "version": 2,
  "locktime": 0,
  "vin": [
    {
      "txid": "258527e9ba1917f05aade609625e718be4a41144ead67b2ad7658f07e5ef9fc6",
      "vout": 2,
      "prevout": {
        "scriptpubkey": "00147fe36258e547f2d5ef6663583668e8c70e7808b5",
        "scriptpubkey_asm": "OP_0 OP_PUSHBYTES_20 7fe36258e547f2d5ef6663583668e8c70e7808b5",
        "scriptpubkey_type": "v0_p2wpkh",
        "scriptpubkey_address": "bc1q0l3kyk89gledtmmxvdvrv68gcu88sz94v3mzqn",
        "value": 690744
      },
      "scriptsig": "",
      "scriptsig_asm": "",
      "witness": [
        "304402207696ecef9030446757a62e6804039a4eee98646104ef26789dc3928affd460b6022044c14c7b17c5e7d12dfe15f6efc382bd1781ef9d5b04f235bf71afd5021db69d01",
        "03789a77c03ded120e0a1aa8a21634b48dce89f473abb5d68af8854da798cde64e"
      ],
      "is_coinbase": false,
      "sequence": 4294967293
    }
  ],
  "vout": [
    {
      "scriptpubkey": "6a00",
      "scriptpubkey_asm": "OP_RETURN OP_0",
      "scriptpubkey_type": "op_return",
      "value": 0
    },
    {
      "scriptpubkey": "00141c0e7cb52f6f442aa182438a26172f65fb2cf1b6",
      "scriptpubkey_asm": "OP_0 OP_PUSHBYTES_20 1c0e7cb52f6f442aa182438a26172f65fb2cf1b6",
      "scriptpubkey_type": "v0_p2wpkh",
      "scriptpubkey_address": "bc1qrs88edf0dazz4gvzgw9zv9e0vhajeudk5mfeqj",
      "value": 204016
    },
    {
      "scriptpubkey": "00140cba16c1d6722a966e783378194f6fe3dd785ce5",
      "scriptpubkey_asm": "OP_0 OP_PUSHBYTES_20 0cba16c1d6722a966e783378194f6fe3dd785ce5",
      "scriptpubkey_type": "v0_p2wpkh",
      "scriptpubkey_address": "bc1qpjapdswkwg4fvmncxdupjnm0u0whsh89j4le88",
      "value": 484156
    }
  ],
  "size": 233,
  "weight": 605,
  "fee": 2572,
  "status": {
    "confirmed": true,
    "block_height": 834638,
    "block_hash": "000000000000000000025f742c626208ac87e0b7d15054abb4a19ca2d735a54e",
    "block_time": 1710405325
  },
  "hex": "02000000000101c69fefe5078f65d72a7bd6ea4411a4e48b715e6209e6ad5af01719bae92785250200000000fdffffff030000000000000000026a00f01c0300000000001600141c0e7cb52f6f442aa182438a26172f65fb2cf1b63c630700000000001600140cba16c1d6722a966e783378194f6fe3dd785ce50247304402207696ecef9030446757a62e6804039a4eee98646104ef26789dc3928affd460b6022044c14c7b17c5e7d12dfe15f6efc382bd1781ef9d5b04f235bf71afd5021db69d012103789a77c03ded120e0a1aa8a21634b48dce89f473abb5d68af8854da798cde64e00000000"
}