{
  "txid": "2cc32cc26d079899052956e200f521a5a9e911f68717fc44fc21012bee6ba976",
  "version": 1,
  "locktime": 0,
  "vin": [
    {
      "txid": "0c9911b520410e2012323e1039b3e279e2c7fa8690f68c478790e0b28e745454",
      "vout": 0,
      "prevout": {
        "scriptpubkey": "51208ac57662a1bd8d86fe9ea63c455e422e4a398bb4331345e852ac7a0c2102a0df",
        "scriptpubkey_asm": "OP_PUSHNUM_1 OP_PUSHBYTES_32 8ac57662a1bd8d86fe9ea63c455e422e4a398bb4331345e852ac7a0c2102a0df",
        "scriptpubkey_type": "v1_p2tr",
        "scriptpubkey_address": "bc1p3tzhvc4phkxcdl575c7y2hjz9e9rnza5xvf5t6zj43aqcggz5r0s32hg30",
        "value": 2431
      },
      "scriptsig": "",
      "scriptsig_asm": "",
      "witness": [
        "0fcfed064fae54ad14ba5ca116ec792c1c38b682d0d0d0b4f80e9d236915c55b442599b6e608caf0834e5da40bf7cdc67cfcfa73100fbf32fbf5b019db16e636",
        "209d1c4710979d374e4f53281a8d9713dcc5b35a3b1f93debb40a90ffc81ff843cac0063036f7264010118746578742f706c61696e3b636861727365743d7574662d3800407b2270223a226272632d3230222c226f70223a227472616e73666572222c227469636b223a2270696965222c22616d74223a223530303030303030303030227d68",
        "c19d1c4710979d374e4f53281a8d9713dcc5b35a3b1f93debb40a90ffc81ff843c"
      ],
      "is_coinbase": false,
      "sequence": 4294967293
    }
  ],
  "vout": [
    {
      "scriptpubkey": "0014f3c604e7d0306952a885f83d763b1e84c6ea5b3d",
      "scriptpubkey_asm": "OP_0 OP_PUSHBYTES_20 f3c604e7d0306952a885f83d763b1e84c6ea5b3d",
      "scriptpubkey_type": "v0_p2wpkh",
      "scriptpubkey_address": "bc1q70rqfe7sxp5492y9lq7hvwc7snrw5kea8gsxyc",
      "value": 546
    }
  ],
  "size": 319,
  "weight": 565,
  "fee": 1885,
  "status": {
    "confirmed": true,
    "block_height": 834460,
    "block_hash": "00000000000000000000484a79b643b2524bbce82e5d8a442013fa5b8905ed98",
    "block_time": 1710307468
  },
  "hex": "010000000001015454748eb2e09087478cf69086fac7e279e2b339103e3212200e4120b511990c0000000000fdffffff012202000000000000160014f3c604e7d0306952a885f83d763b1e84c6ea5b3d03400fcfed064fae54ad14ba5ca116ec792c1c38b682d0d0d0b4f80e9d236915c55b442599b6e608caf0834e5da40bf7cdc67cfcfa73100fbf32fbf5b019db16e63686209d1c4710979d374e4f53281a8d9713dcc5b35a3b1f93debb40a90ffc81ff843cac0063036f7264010118746578742f706c61696e3b636861727365743d7574662d3800407b2270223a226272632d3230222c226f70223a227472616e73666572222c227469636b223a2270696965222c22616d74223a223530303030303030303030227d6821c19d1c4710979d374e4f53281a8d9713dcc5b35a3b1f93debb40a90ffc81ff843c00000000"
}