{
  "txid": "2cc5627895ce8ea7b11c9f58b48c8cd14a962cbcecc508a29d9e794ba22de572",
  "version": 1,
  "locktime": 0,
  "vin": [
    {
      "txid": "0252691b45da1472acdae9f50472bb33e6b3b83e76c04665abf1279228b9c51b",
      "vout": 1,
      "prevout": {
        "scriptpubkey": "0014d04dbe77f9a03c46f8e35d2ca50d7cfbc96958c5",
        "scriptpubkey_asm": "OP_0 OP_PUSHBYTES_20 d04dbe77f9a03c46f8e35d2ca50d7cfbc96958c5",
        "scriptpubkey_type": "v0_p2wpkh",
        "scriptpubkey_address": "bc1q6pxmuale5q7yd78rt5k22rtul0ykjkx90lsnuf",
        "value": 697729
      },
      "scriptsig": "",
      "scriptsig_asm": "",
      "witness": [
        "30450221009b0effe9c677bf1a7bf5401ec466e41732f325555e917a1c89b34747719d207f0220028e30d7f1abb731c152159aa3eb021bf06a2d6554ac6e76e34b9e1ab406b0c901",
        "022f185346cd3303cfd6f42c0925216d713e9369c08f58f9c2201c1dc693d4cefd"
      ],
      "is_coinbase": false,
      "sequence": 4294967295
    }
  ],
  "vout": [
    {
      "scriptpubkey": "76a914853ea3f6088388012773fe9198437ce1bdf819c588ac",
      "scriptpubkey_asm": "OP_DUP OP_HASH160 OP_PUSHBYTES_20 853ea3f6088388012773fe9198437ce1bdf819c5 OP_EQUALVERIFY OP_CHECKSIG",
      "scriptpubkey_type": "p2pkh",
      "scriptpubkey_address": "1D9XurHkKSzMTCe5G8bGqsNGYj5uHmYkQk",
      "value": 272000
    },
    {
      "scriptpubkey": "00146bb76c57980ee1d6d938600089da08fa370d337b",
      "scriptpubkey_asm": "OP_0 OP_PUSHBYTES_20 6bb76c57980ee1d6d938600089da08fa370d337b",
      "scriptpubkey_type": "v0_p2wpkh",
      "scriptpubkey_address": "bc1qdwmkc4ucpmsadkfcvqqgnksglgms6vmmdqgcs7",
      "value": 423587
    }
  ],
  "size": 226,
  "weight": 574,
  "fee": 2142,
  "status": {
    "confirmed": true,
    "block_height": 834638,
    "block_hash": "000000000000000000025f742c626208ac87e0b7d15054abb4a19ca2d735a54e",
    "block_time": 1710405325
  },
  "hex": "010000000001011bc5b9289227f1ab6546c0763eb8b3e633bb7204f5e9daac7214da451b6952020100000000ffffffff0280260400000000001976a914853ea3f6088388012773fe9198437ce1bdf819c588aca3760600000000001600146bb76c57980ee1d6d938600089da08fa370d337b024830450221009b0effe9c677bf1a7bf5401ec466e41732f325555e917a1c89b34747719d207f0220028e30d7f1abb731c152159aa3eb021bf06a2d6554ac6e76e34b9e1ab406b0c90121022f185346cd3303cfd6f42c0925216d713e9369c08f58f9c2201c1dc693d4cefd00000000"
}