{
  "txid": "2cd4decc4348be0e37a7beee9b288efe91e128c371ee9d215e33a5df97516d69",
  "version": 1,
  "locktime": 0,
  "vin": [
    {
      "txid": "47806f51320444b9d9b8d47096e698b070cdb8f00cb3cea0633164bc1bb1a231",
      "vout": 2,
      "prevout": {
        "scriptpubkey": "5120db2d4b8ff95ba1dee11e3c23090acb36dc93c710524b8fa4b2731df61398d0ec",
        "scriptpubkey_asm": "OP_PUSHNUM_1 OP_PUSHBYTES_32 db2d4b8ff95ba1dee11e3c23090acb36dc93c710524b8fa4b2731df61398d0ec",
        "scriptpubkey_type": "v1_p2tr",
        "scriptpubkey_address": "bc1pmvk5hrletwsaacg78s3sjzktxmwf83cs2f9clf9jwvwlvyuc6rkq7wqvnp",
        "value": 468892
      },
      "scriptsig": "",
      "scriptsig_asm": "",
      "witness": [
        "07b623bfb0704fd38c35d929124a7bfebcc9e1351469572d5a2c619a9da93d71c1c50b949d57f4c2fd333fe45c133443ecce52252b87eae1597f6c752fa892ef"
      ],
      "is_coinbase": false,
      "sequence": 4294967295
    }
  ],
  "vout": [
    {
      "scriptpubkey": "5120fec05d3ce493442938a0a2bb8639c2dc53e42e7d42023d720e7a3e41ed0ce0cb",
      "scriptpubkey_asm": "OP_PUSHNUM_1 OP_PUSHBYTES_32 fec05d3ce493442938a0a2bb8639c2dc53e42e7d42023d720e7a3e41ed0ce0cb",
      "scriptpubkey_type": "v1_p2tr",
      "scriptpubkey_address": "bc1plmq9608yjdzzjw9q52acvwwzm3f7gtnaggpr6usw0glyrmgvur9seqw62y",
      "value": 289698
    },
    {
      "scriptpubkey": "51208c1ac0ed612c5c2d8e53909441d85ebc05472541c21cf9ea1a8e22c45aeee209",
      "scriptpubkey_asm": "OP_PUSHNUM_1 OP_PUSHBYTES_32 8c1ac0ed612c5c2d8e53909441d85ebc05472541c21cf9ea1a8e22c45aeee209",
      "scriptpubkey_type": "v1_p2tr",
      "scriptpubkey_address": "bc1p3sdvpmtp93wzmrjnjz2yrkz7hsz5wf2pcgw0n6s63c3vgkhwugysf9k09u",
      "value": 32000
    },
    {
      "scriptpubkey": "5120db2d4b8ff95ba1dee11e3c23090acb36dc93c710524b8fa4b2731df61398d0ec",
      "scriptpubkey_asm": "OP_PUSHNUM_1 OP_PUSHBYTES_32 db2d4b8ff95ba1dee11e3c23090acb36dc93c710524b8fa4b2731df61398d0ec",
      "scriptpubkey_type": "v1_p2tr",
      "scriptpubkey_address": "bc1pmvk5hrletwsaacg78s3sjzktxmwf83cs2f9clf9jwvwlvyuc6rkq7wqvnp",
      "value": 144830
    }
  ],
  "size": 248,
  "weight": 788,
  "fee": 2364,
  "status": {
    "confirmed": true,
    "block_height": 834460,
    "block_hash": "00000000000000000000484a79b643b2524bbce82e5d8a442013fa5b8905ed98",
    "block_time": 1710307468
  },
  "hex": "0100000000010131a2b11bbc643163a0ceb30cf0b8cd70b098e69670d4b8d9b9440432516f80470200000000ffffffff03a26b040000000000225120fec05d3ce493442938a0a2bb8639c2dc53e42e7d42023d720e7a3e41ed0ce0cb007d0000000000002251208c1ac0ed612c5c2d8e53909441d85ebc05472541c21cf9ea1a8e22c45aeee209be35020000000000225120db2d4b8ff95ba1dee11e3c23090acb36dc93c710524b8fa4b2731df61398d0ec014007b623bfb0704fd38c35d929124a7bfebcc9e1351469572d5a2c619a9da93d71c1c50b949d57f4c2fd333fe45c133443ecce52252b87eae1597f6c752fa892ef00000000"
}