{
  "txid": "2cf09409b56681b093a73e79d3569717e2d2500655f6644fc098ffd3fe229b87",
  "version": 2,
  "locktime": 0,
  "vin": [
    {
      "txid": "abdcbb8bcefa0f088373ceda41a70fe1aeaa3823b969e1169e2a29269068d8dc",
      "vout": 18,
      "prevout": {
        "scriptpubkey": "5120e21935ae4fc022828e49fac740cc9f5d62c696fb7f67247a5028e9932e37c234",
        "scriptpubkey_asm": "OP_PUSHNUM_1 OP_PUSHBYTES_32 e21935ae4fc022828e49fac740cc9f5d62c696fb7f67247a5028e9932e37c234",
        "scriptpubkey_type": "v1_p2tr",
        "scriptpubkey_address": "bc1pugvnttj0cq3g9rjfltr5pnylt43vd9hm0anjg7js9r5ext3hcg6qzf3t6s",
        "value": 2522
      },
      "scriptsig": "",
      "scriptsig_asm": "",
      "witness": [
        "b5fe7bbd5f7f49aa9d3c0a820dbd77915b174543407602a2917a46b8eae5e9b2c70f6fb1843998d5cff97bba5f9cb50ecb1d88f1970a68c265fadaa1526da03d",
        "20a44dc447f347e681c503e0e13dbc0157f2307cdda0d738e38c613a893802f532ac0063036f7264010118746578742f706c61696e3b636861727365743d7574662d3800387b2270223a226272632d3230222c226f70223a227472616e73666572222c227469636b223a226f726e6a222c22616d74223a22313030227d68",
        "c125dced391475af84759664675c16f5ed581b243a944241d7ee258c8cfb80c9db"
      ],
      "is_coinbase": false,
      "sequence": 4294967295
    }
  ],
  "vout": [
    {
      "scriptpubkey": "512060e7b9d91ee3091b65165528563dba11a47299520ea2fc67070ec6ac303fc05d",
      "scriptpubkey_asm": "OP_PUSHNUM_1 OP_PUSHBYTES_32 60e7b9d91ee3091b65165528563dba11a47299520ea2fc67070ec6ac303fc05d",
      "scriptpubkey_type": "v1_p2tr",
      "scriptpubkey_address": "bc1pvrnmnkg7uvy3kegk2559v0d6zxj89x2jp630cec8pmr2cvplcpwsn3pn79",
      "value": 546
    }
  ],
  "size": 323,
  "weight": 605,
  "fee": 1976,
  "status": {
    "confirmed": true,
    "block_height": 834460,
    "block_hash": "00000000000000000000484a79b643b2524bbce82e5d8a442013fa5b8905ed98",
    "block_time": 1710307468
  },
  "hex": "02000000000101dcd8689026292a9e16e169b92338aaaee10fa741dace7383080fface8bbbdcab1200000000ffffffff01220200000000000022512060e7b9d91ee3091b65165528563dba11a47299520ea2fc67070ec6ac303fc05d0340b5fe7bbd5f7f49aa9d3c0a820dbd77915b174543407602a2917a46b8eae5e9b2c70f6fb1843998d5cff97bba5f9cb50ecb1d88f1970a68c265fadaa1526da03d7e20a44dc447f347e681c503e0e13dbc0157f2307cdda0d738e38c613a893802f532ac0063036f7264010118746578742f706c61696e3b636861727365743d7574662d3800387b2270223a226272632d3230222c226f70223a227472616e73666572222c227469636b223a226f726e6a222c22616d74223a22313030227d6821c125dced391475af84759664675c16f5ed581b243a944241d7ee258c8cfb80c9db00000000"
}