{
  "txid": "2cf261b770e40d61165f56df0f6865ec5249e2113b95d91aaf3f5ec5db468055",
  "version": 2,
  "locktime": 0,
  "vin": [
    {
      "txid": "4d18571ceb269cba080e8fc0cb63e512d69d50dc4e864ff204f8d24d5adb798f",
      "vout": 1,
      "prevout": {
        "scriptpubkey": "0014a589dcbeb9707352ea6520c081816fe32df0bc09",
        "scriptpubkey_asm": "OP_0 OP_PUSHBYTES_20 a589dcbeb9707352ea6520c081816fe32df0bc09",
        "scriptpubkey_type": "v0_p2wpkh",
        "scriptpubkey_address": "bc1q5kyae04ewpe496n9yrqgrqt0uvklp0qff5jt67",
        "value": 8139205
      },
      "scriptsig": "",
      "scriptsig_asm": "",
      "witness": [
        "3045022100a25dfac19ca63aa047c4d2d7fcea94efbde91b1b53e4a02e4864124ada5b8ea902201cf9b173c5b57ebf97021d008e7a171f3a34dc8e944dfc3b812962183e64f1d401",
        "02ba26d8092bcc4e300799aa4df8ebd46b3183905b4ab883131d8e813581492cc2"
      ],
      "is_coinbase": false,
      "sequence": 4294967295
    }
  ],
  "vout": [
    {
      "scriptpubkey": "00140a17d4866c9438cf7ec06ab2a8bc16059e15b8e1",
      "scriptpubkey_asm": "OP_0 OP_PUSHBYTES_20 0a17d4866c9438cf7ec06ab2a8bc16059e15b8e1",
      "scriptpubkey_type": "v0_p2wpkh",
      "scriptpubkey_address": "bc1qpgtafpnvjsuv7lkqd2e230qkqk0ptw8pl27e3c",
      "value": 693804
    },
    {
      "scriptpubkey": "0014a589dcbeb9707352ea6520c081816fe32df0bc09",
      "scriptpubkey_asm": "OP_0 OP_PUSHBYTES_20 a589dcbeb9707352ea6520c081816fe32df0bc09",
      "scriptpubkey_type": "v0_p2wpkh",
      "scriptpubkey_address": "bc1q5kyae04ewpe496n9yrqgrqt0uvklp0qff5jt67",
      "value": 7441970
    }
  ],
  "size": 223,
  "weight": 562,
  "fee": 3431,
  "status": {
    "confirmed": true,
    "block_height": 834460,
    "block_hash": "00000000000000000000484a79b643b2524bbce82e5d8a442013fa5b8905ed98",
    "block_time": 1710307468
  },
  "hex": "020000000001018f79db5a4dd2f804f24f864edc509dd612e563cbc08f0e08ba9c26eb1c57184d0100000000ffffffff022c960a00000000001600140a17d4866c9438cf7ec06ab2a8bc16059e15b8e1328e710000000000160014a589dcbeb9707352ea6520c081816fe32df0bc0902483045022100a25dfac19ca63aa047c4d2d7fcea94efbde91b1b53e4a02e4864124ada5b8ea902201cf9b173c5b57ebf97021d008e7a171f3a34dc8e944dfc3b812962183e64f1d4012102ba26d8092bcc4e300799aa4df8ebd46b3183905b4ab883131d8e813581492cc200000000"
}