{
  "txid": "2cfa68f7e111007295dd0b8800393f230915824973fe79ffa2b94efbc9d4f8ba",
  "version": 1,
  "locktime": 0,
  "vin": [
    {
      "txid": "fdcc74d9dc379525985fe71548996339bd67434fad6d2f327f770c65f8bd9815",
      "vout": 0,
      "prevout": {
        "scriptpubkey": "001473ff67b91c40fdbe023747c33beb8daa07a64e5d",
        "scriptpubkey_asm": "OP_0 OP_PUSHBYTES_20 73ff67b91c40fdbe023747c33beb8daa07a64e5d",
        "scriptpubkey_type": "v0_p2wpkh",
        "scriptpubkey_address": "bc1qw0lk0wgugr7muq3hglpnh6ud4gr6vnjahs7dfr",
        "value": 154000
      },
      "scriptsig": "",
      "scriptsig_asm": "",
      "witness": [
        "3045022100da480a529711ccabaf0e62fa3337a4eeaa2019965e76e25d47e4e3bac962be0002203b9e61fe9f7f6848399fd8b952fb9e2a81ec2b7badfb5d9f60de165d91d7e18501",
        "0211ca30a97d6b75f20e0269126c59325470772d8e4ecdcdd660abb311feb9ee90"
      ],
      "is_coinbase": false,
      "sequence": 4294967295
    }
  ],
  "vout": [
    {
      "scriptpubkey": "76a9141f31fb572ed3a592d09d65fe4b83766ed65393ef88ac",
      "scriptpubkey_asm": "OP_DUP OP_HASH160 OP_PUSHBYTES_20 1f31fb572ed3a592d09d65fe4b83766ed65393ef OP_EQUALVERIFY OP_CHECKSIG",
      "scriptpubkey_type": "p2pkh",
      "scriptpubkey_address": "13qwpk6XpiDQkGF9PmYAsSdqf3xojHvHSk",
      "value": 152768
    }
  ],
  "size": 195,
  "weight": 450,
  "fee": 1232,
  "status": {
    "confirmed": true,
    "block_height": 834464,
    "block_hash": "0000000000000000000177a0869a911a2b65c9bdcd5a8bcb02b68f305bee848e",
    "block_time": 1710308296
  },
  "hex": "010000000001011598bdf8650c777f322f6dad4f4367bd3963994815e75f98259537dcd974ccfd0000000000ffffffff01c0540200000000001976a9141f31fb572ed3a592d09d65fe4b83766ed65393ef88ac02483045022100da480a529711ccabaf0e62fa3337a4eeaa2019965e76e25d47e4e3bac962be0002203b9e61fe9f7f6848399fd8b952fb9e2a81ec2b7badfb5d9f60de165d91d7e18501210211ca30a97d6b75f20e0269126c59325470772d8e4ecdcdd660abb311feb9ee9000000000"
}