{
  "txid": "2cff0c2f6f3b95dd33388be72b1488a1fea1821fdd0b5f94d416bcb6fbdd5b79",
  "version": 2,
  "locktime": 0,
  "vin": [
    {
      "txid": "e9e1c8bf0099b024fd31f09b1399f89ffffbebe6940ecda6968db296140efeb8",
      "vout": 3,
      "prevout": {
        "scriptpubkey": "0014b7c97e794134e223320361ddbd5ff4b7f8bc888e",
        "scriptpubkey_asm": "OP_0 OP_PUSHBYTES_20 b7c97e794134e223320361ddbd5ff4b7f8bc888e",
        "scriptpubkey_type": "v0_p2wpkh",
        "scriptpubkey_address": "bc1qklyhu72pxn3zxvsrv8wm6hl5klutezywcujmma",
        "value": 1620560
      },
      "scriptsig": "",
      "scriptsig_asm": "",
      "witness": [
        "3045022100dc0e389f13507bf548afef7b0d77b1da4ea888c13bb1aa37d0e0f11aeadc0614022044881acac6c34d6e15435274b2b0b2c17af2243f57e19fedbb62274fc9d3005901",
        "02b33ab0a64462696e39065c18c6fcfc15f3c08b4b8f16d16d181846652bcaa0d2"
      ],
      "is_coinbase": false,
      "sequence": 4294967295
    }
  ],
  "vout": [
    {
      "scriptpubkey": "0014b7c97e794134e223320361ddbd5ff4b7f8bc888e",
      "scriptpubkey_asm": "OP_0 OP_PUSHBYTES_20 b7c97e794134e223320361ddbd5ff4b7f8bc888e",
      "scriptpubkey_type": "v0_p2wpkh",
      "scriptpubkey_address": "bc1qklyhu72pxn3zxvsrv8wm6hl5klutezywcujmma",
      "value": 808
    },
    {
      "scriptpubkey": "512103057ea463d18baf864310b3c5c7307e4c0d5d510bf66e8457f257ab6e30a63a362102b419179fb907f9267f025141c7ffe03188c226540dc252db146f74f3ea372c462102020202020202020202020202020202020202020202020202020202020202020253ae",
      "scriptpubkey_asm": "OP_PUSHNUM_1 OP_PUSHBYTES_33 03057ea463d18baf864310b3c5c7307e4c0d5d510bf66e8457f257ab6e30a63a36 OP_PUSHBYTES_33 02b419179fb907f9267f025141c7ffe03188c226540dc252db146f74f3ea372c46 OP_PUSHBYTES_33 020202020202020202020202020202020202020202020202020202020202020202 OP_PUSHNUM_3 OP_CHECKMULTISIG",
      "scriptpubkey_type": "unknown",
      "value": 809
    },
    {
      "scriptpubkey": "51210333b6d43cf073dba97cae087c88a5e9c61bb1cb0c964039ff6896250541fc86f82103cab4bc4160a6474e45ee29f5712127388027fad1837e6dc3360960ac899839ed2102020202020202020202020202020202020202020202020202020202020202020253ae",
      "scriptpubkey_asm": "OP_PUSHNUM_1 OP_PUSHBYTES_33 0333b6d43cf073dba97cae087c88a5e9c61bb1cb0c964039ff6896250541fc86f8 OP_PUSHBYTES_33 03cab4bc4160a6474e45ee29f5712127388027fad1837e6dc3360960ac899839ed OP_PUSHBYTES_33 020202020202020202020202020202020202020202020202020202020202020202 OP_PUSHNUM_3 OP_CHECKMULTISIG",
      "scriptpubkey_type": "unknown",
      "value": 809
    },
    {
      "scriptpubkey": "001420123e4942db45c3c5971b141304c3ff6f5c06c7",
      "scriptpubkey_asm": "OP_0 OP_PUSHBYTES_20 20123e4942db45c3c5971b141304c3ff6f5c06c7",
      "scriptpubkey_type": "v0_p2wpkh",
      "scriptpubkey_address": "bc1qyqfruj2zmdzu83vhrv2pxpxrlah4cpk88c9zvd",
      "value": 12000
    },
    {
      "scriptpubkey": "0014b7c97e794134e223320361ddbd5ff4b7f8bc888e",
      "scriptpubkey_asm": "OP_0 OP_PUSHBYTES_20 b7c97e794134e223320361ddbd5ff4b7f8bc888e",
      "scriptpubkey_type": "v0_p2wpkh",
      "scriptpubkey_address": "bc1qklyhu72pxn3zxvsrv8wm6hl5klutezywcujmma",
      "value": 1597492
    }
  ],
  "size": 482,
  "weight": 1598,
  "fee": 8642,
  "status": {
    "confirmed": true,
    "block_height": 834638,
    "block_hash": "000000000000000000025f742c626208ac87e0b7d15054abb4a19ca2d735a54e",
    "block_time": 1710405325
  },
  "hex": "02000000000101b8fe0e1496b28d96a6cd0e94e6ebfbff9ff899139bf031fd24b09900bfc8e1e90300000000ffffffff052803000000000000160014b7c97e794134e223320361ddbd5ff4b7f8bc888e290300000000000069512103057ea463d18baf864310b3c5c7307e4c0d5d510bf66e8457f257ab6e30a63a362102b419179fb907f9267f025141c7ffe03188c226540dc252db146f74f3ea372c462102020202020202020202020202020202020202020202020202020202020202020253ae29030000000000006951210333b6d43cf073dba97cae087c88a5e9c61bb1cb0c964039ff6896250541fc86f82103cab4bc4160a6474e45ee29f5712127388027fad1837e6dc3360960ac899839ed2102020202020202020202020202020202020202020202020202020202020202020253aee02e00000000000016001420123e4942db45c3c5971b141304c3ff6f5c06c73460180000000000160014b7c97e794134e223320361ddbd5ff4b7f8bc888e02483045022100dc0e389f13507bf548afef7b0d77b1da4ea888c13bb1aa37d0e0f11aeadc0614022044881acac6c34d6e15435274b2b0b2c17af2243f57e19fedbb62274fc9d30059012102b33ab0a64462696e39065c18c6fcfc15f3c08b4b8f16d16d181846652bcaa0d200000000"
}