{
  "txid": "2d117c8be3f51498cb536997f55c4001cc55ba26b0cf101e960a441a094e9521",
  "version": 1,
  "locktime": 0,
  "vin": [
    {
      "txid": "7fe1ae678843a6841d01adb834f143c937e5553c8d2c56f0cb9904b9a9423483",
      "vout": 1,
      "prevout": {
        "scriptpubkey": "a914dcfbeddd8daafa20221169eab5a2356500cbc91687",
        "scriptpubkey_asm": "OP_HASH160 OP_PUSHBYTES_20 dcfbeddd8daafa20221169eab5a2356500cbc916 OP_EQUAL",
        "scriptpubkey_type": "p2sh",
        "scriptpubkey_address": "3MqUP6G1daVS5YTD8fz3QgwjZortWwxXFd",
        "value": 82441737992
      },
      "scriptsig": "1600141e41581abee2c9e1de78f83c4884c3fddc54d74e",
      "scriptsig_asm": "OP_PUSHBYTES_22 00141e41581abee2c9e1de78f83c4884c3fddc54d74e",
      "witness": [
        "3045022100d9a9e2b34984a18eb466ca0f06b281789b354786c10bb04f61f74d28ca4d3ac00220042426d37028203e54d24241f8309c54d59b8c7f5ee944a188720bfb81e941c201",
        "0398b299b41cb7a0e412b2de7eb450e99e42621608902a91a3ac47d0d15495f625"
      ],
      "is_coinbase": false,
      "sequence": 4294967295,
      "inner_redeemscript_asm": "OP_0 OP_PUSHBYTES_20 1e41581abee2c9e1de78f83c4884c3fddc54d74e"
    }
  ],
  "vout": [
    {
      "scriptpubkey": "76a914a5bbc5037a979b2c5ebf5993e989810b060d632d88ac",
      "scriptpubkey_asm": "OP_DUP OP_HASH160 OP_PUSHBYTES_20 a5bbc5037a979b2c5ebf5993e989810b060d632d OP_EQUALVERIFY OP_CHECKSIG",
      "scriptpubkey_type": "p2pkh",
      "scriptpubkey_address": "1G7KS7Twtx4bvTYYVWqFUdE9WiVpnmQbet",
      "value": 20800291064
    },
    {
      "scriptpubkey": "a914dcfbeddd8daafa20221169eab5a2356500cbc91687",
      "scriptpubkey_asm": "OP_HASH160 OP_PUSHBYTES_20 dcfbeddd8daafa20221169eab5a2356500cbc916 OP_EQUAL",
      "scriptpubkey_type": "p2sh",
      "scriptpubkey_address": "3MqUP6G1daVS5YTD8fz3QgwjZortWwxXFd",
      "value": 61641442365
    }
  ],
  "size": 250,
  "weight": 670,
  "fee": 4563,
  "status": {
    "confirmed": true,
    "block_height": 834638,
    "block_hash": "000000000000000000025f742c626208ac87e0b7d15054abb4a19ca2d735a54e",
    "block_time": 1710405325
  },
  "hex": "01000000000101833442a9b90499cbf0562c8d3c55e537c943f134b8ad011d84a6438867aee17f01000000171600141e41581abee2c9e1de78f83c4884c3fddc54d74effffffff02f840cbd7040000001976a914a5bbc5037a979b2c5ebf5993e989810b060d632d88ac3dc41d5a0e00000017a914dcfbeddd8daafa20221169eab5a2356500cbc9168702483045022100d9a9e2b34984a18eb466ca0f06b281789b354786c10bb04f61f74d28ca4d3ac00220042426d37028203e54d24241f8309c54d59b8c7f5ee944a188720bfb81e941c201210398b299b41cb7a0e412b2de7eb450e99e42621608902a91a3ac47d0d15495f62500000000"
}