{
  "txid": "2d24cc8bcdbd01beb89aeaadb0c6c69c326cc680abf77cef868710e33a81bdb3",
  "version": 1,
  "locktime": 0,
  "vin": [
    {
      "txid": "932dfe9de5fd216810a6bb468c901bb347af6982f5f170ccbea8d3a94a7dea00",
      "vout": 4,
      "prevout": {
        "scriptpubkey": "001408c408493267d03f66c813b76e36fd6886c634c2",
        "scriptpubkey_asm": "OP_0 OP_PUSHBYTES_20 08c408493267d03f66c813b76e36fd6886c634c2",
        "scriptpubkey_type": "v0_p2wpkh",
        "scriptpubkey_address": "bc1qprzqsjfjvlgr7ekgzwmkudhadzrvvdxz3ej6uu",
        "value": 2914328
      },
      "scriptsig": "",
      "scriptsig_asm": "",
      "witness": [
        "3045022100e5e0551cfdced1fd833cc5b1181945dd6a88baf69907925ec387bafc4b5f07100220021e753e03c702d61bb6f2cea5fbf315f50bdd49b534b40c7391d93c2349827b01",
        "039b59598a56b24f0c7fdf7df6e775517bdfcf8de5a60b4b854b762ee619e8f3e4"
      ],
      "is_coinbase": false,
      "sequence": 0
    },
    {
      "txid": "9361946d4b62ac8dc8c7d732bd5c6db4ae09e4148a8a65dc9d69770dc46737df",
      "vout": 627,
      "prevout": {
        "scriptpubkey": "001408c408493267d03f66c813b76e36fd6886c634c2",
        "scriptpubkey_asm": "OP_0 OP_PUSHBYTES_20 08c408493267d03f66c813b76e36fd6886c634c2",
        "scriptpubkey_type": "v0_p2wpkh",
        "scriptpubkey_address": "bc1qprzqsjfjvlgr7ekgzwmkudhadzrvvdxz3ej6uu",
        "value": 378148
      },
      "scriptsig": "",
      "scriptsig_asm": "",
      "witness": [
        "304502210095501e226124b0a8d0fe02d29244dd42cc6fdfe169289c90eeb6ac8b5e4250ff02207fe86321145dd07833a51e0f3b3e7acfc7096cc29e85ecb921339e01c0207f7701",
        "039b59598a56b24f0c7fdf7df6e775517bdfcf8de5a60b4b854b762ee619e8f3e4"
      ],
      "is_coinbase": false,
      "sequence": 0
    },
    {
      "txid": "850da08e0a3b4184537cc3f17b01e124629d5aef99addb0a7b9ff61ce9c7e719",
      "vout": 1668,
      "prevout": {
        "scriptpubkey": "001408c408493267d03f66c813b76e36fd6886c634c2",
        "scriptpubkey_asm": "OP_0 OP_PUSHBYTES_20 08c408493267d03f66c813b76e36fd6886c634c2",
        "scriptpubkey_type": "v0_p2wpkh",
        "scriptpubkey_address": "bc1qprzqsjfjvlgr7ekgzwmkudhadzrvvdxz3ej6uu",
        "value": 22874
      },
      "scriptsig": "",
      "scriptsig_asm": "",
      "witness": [
        "304402200bc2b629e9e008c89c2f13498b1ec9b30ece6c5b916c4d3b46e5ae4a183e5064022058cf578a0c60a567b5e45c21336d6ca07ca5c1ae8b639e49a46a680e674c198f01",
        "039b59598a56b24f0c7fdf7df6e775517bdfcf8de5a60b4b854b762ee619e8f3e4"
      ],
      "is_coinbase": false,
      "sequence": 0
    },
    {
      "txid": "e1134fa1c921be49f78cec128aad64d0ae1bd14e0b22fab4f47f0fcd6054e131",
      "vout": 1544,
      "prevout": {
        "scriptpubkey": "001408c408493267d03f66c813b76e36fd6886c634c2",
        "scriptpubkey_asm": "OP_0 OP_PUSHBYTES_20 08c408493267d03f66c813b76e36fd6886c634c2",
        "scriptpubkey_type": "v0_p2wpkh",
        "scriptpubkey_address": "bc1qprzqsjfjvlgr7ekgzwmkudhadzrvvdxz3ej6uu",
        "value": 20697
      },
      "scriptsig": "",
      "scriptsig_asm": "",
      "witness": [
        "30450221009f5387f87e5fe64d3f8ba34608e6214b7ab8f1f6de1a42237d31b45ad01bc6f7022061578b22cf2a6729ddcadfb623bcb6bf7e9206acaf3ec90863c00c8e9aafe02e01",
        "039b59598a56b24f0c7fdf7df6e775517bdfcf8de5a60b4b854b762ee619e8f3e4"
      ],
      "is_coinbase": false,
      "sequence": 0
    },
    {
      "txid": "4d59247037e604333ddec9208b006c423791bbfa75087c4c1bfeb0310587c07b",
      "vout": 1614,
      "prevout": {
        "scriptpubkey": "001408c408493267d03f66c813b76e36fd6886c634c2",
        "scriptpubkey_asm": "OP_0 OP_PUSHBYTES_20 08c408493267d03f66c813b76e36fd6886c634c2",
        "scriptpubkey_type": "v0_p2wpkh",
        "scriptpubkey_address": "bc1qprzqsjfjvlgr7ekgzwmkudhadzrvvdxz3ej6uu",
        "value": 18610
      },
      "scriptsig": "",
      "scriptsig_asm": "",
      "witness": [
        "3045022100c14d57f86411ae3a7af5ef0a01507409fe24a60516f791f595bce6bc70ef8f50022051ac4ac200a6d31e2d737456060815035eb592e743699cd30ddac9e50c97366101",
        "039b59598a56b24f0c7fdf7df6e775517bdfcf8de5a60b4b854b762ee619e8f3e4"
      ],
      "is_coinbase": false,
      "sequence": 0
    },
    {
      "txid": "1fc21ef745f12f7058624003fff19af76b719178008d2fae91e7b9903da4ec40",
      "vout": 1667,
      "prevout": {
        "scriptpubkey": "001408c408493267d03f66c813b76e36fd6886c634c2",
        "scriptpubkey_asm": "OP_0 OP_PUSHBYTES_20 08c408493267d03f66c813b76e36fd6886c634c2",
        "scriptpubkey_type": "v0_p2wpkh",
        "scriptpubkey_address": "bc1qprzqsjfjvlgr7ekgzwmkudhadzrvvdxz3ej6uu",
        "value": 18387
      },
      "scriptsig": "",
      "scriptsig_asm": "",
      "witness": [
        "3045022100a72e211d9e5372c5006769425a44febbe77abbc011bd5b3c151b18056f00c8fa02207459df21ed0e984448694cdaa6a0e2a4cecfe8c93b99e1ed363e7d88e77f8e9c01",
        "039b59598a56b24f0c7fdf7df6e775517bdfcf8de5a60b4b854b762ee619e8f3e4"
      ],
      "is_coinbase": false,
      "sequence": 0
    },
    {
      "txid": "b4ca582e18537fbaa55ae77ec649ba4a25ee54792b6072c2e1200d566dd5b66a",
      "vout": 1621,
      "prevout": {
        "scriptpubkey": "001408c408493267d03f66c813b76e36fd6886c634c2",
        "scriptpubkey_asm": "OP_0 OP_PUSHBYTES_20 08c408493267d03f66c813b76e36fd6886c634c2",
        "scriptpubkey_type": "v0_p2wpkh",
        "scriptpubkey_address": "bc1qprzqsjfjvlgr7ekgzwmkudhadzrvvdxz3ej6uu",
        "value": 18156
      },
      "scriptsig": "",
      "scriptsig_asm": "",
      "witness": [
        "3045022100c697ab629bc62c492401c09e5ff1517fe0b62a5ae8b08cc70fc1c210886f466702203b2a626bce2d90c338095691a168d08a1d6326a21f1be8d1ebd797881719864c01",
        "039b59598a56b24f0c7fdf7df6e775517bdfcf8de5a60b4b854b762ee619e8f3e4"
      ],
      "is_coinbase": false,
      "sequence": 0
    },
    {
      "txid": "62d193924494271240549dbb6e73ccb94d98da0cafac315ee0211c0974e27eb6",
      "vout": 1637,
      "prevout": {
        "scriptpubkey": "001408c408493267d03f66c813b76e36fd6886c634c2",
        "scriptpubkey_asm": "OP_0 OP_PUSHBYTES_20 08c408493267d03f66c813b76e36fd6886c634c2",
        "scriptpubkey_type": "v0_p2wpkh",
        "scriptpubkey_address": "bc1qprzqsjfjvlgr7ekgzwmkudhadzrvvdxz3ej6uu",
        "value": 18657
      },
      "scriptsig": "",
      "scriptsig_asm": "",
      "witness": [
        "3044022074b8e16124db1f3b3c69bd851b16902e57e0a7a3d1690589baf0212563cd052e02205c5d1bdc0039ac7150065baedd776905019db5efb57dd7046cda8c300b5be7d301",
        "039b59598a56b24f0c7fdf7df6e775517bdfcf8de5a60b4b854b762ee619e8f3e4"
      ],
      "is_coinbase": false,
      "sequence": 0
    },
    {
      "txid": "4f69c8c913b57e071a619e23862495203fed5b3601cef1ca423e05d2c8e682c0",
      "vout": 1640,
      "prevout": {
        "scriptpubkey": "001408c408493267d03f66c813b76e36fd6886c634c2",
        "scriptpubkey_asm": "OP_0 OP_PUSHBYTES_20 08c408493267d03f66c813b76e36fd6886c634c2",
        "scriptpubkey_type": "v0_p2wpkh",
        "scriptpubkey_address": "bc1qprzqsjfjvlgr7ekgzwmkudhadzrvvdxz3ej6uu",
        "value": 20409
      },
      "scriptsig": "",
      "scriptsig_asm": "",
      "witness": [
        "3045022100e052351fb0e57edd6db854246cd751b8405372e7a70d03dffb6ff01faab052ed0220403339acd195cfe5e30941dbe0c12eb757ce4211f5f0bef2c5592ff9a304679301",
        "039b59598a56b24f0c7fdf7df6e775517bdfcf8de5a60b4b854b762ee619e8f3e4"
      ],
      "is_coinbase": false,
      "sequence": 0
    },
    {
      "txid": "5e5f9ef62d3a2ce46e583ffb3fca545135654aeae45705866170e51a002d3dea",
      "vout": 1606,
      "prevout": {
        "scriptpubkey": "001408c408493267d03f66c813b76e36fd6886c634c2",
        "scriptpubkey_asm": "OP_0 OP_PUSHBYTES_20 08c408493267d03f66c813b76e36fd6886c634c2",
        "scriptpubkey_type": "v0_p2wpkh",
        "scriptpubkey_address": "bc1qprzqsjfjvlgr7ekgzwmkudhadzrvvdxz3ej6uu",
        "value": 18007
      },
      "scriptsig": "",
      "scriptsig_asm": "",
      "witness": [
        "304402203fb27609370917590b590452007202fe31777382b50562b4e0c8624dd54a39a7022019ea72082cc95de59583111219f2fc7328743e3faadf93298241759ec87767da01",
        "039b59598a56b24f0c7fdf7df6e775517bdfcf8de5a60b4b854b762ee619e8f3e4"
      ],
      "is_coinbase": false,
      "sequence": 0
    },
    {
      "txid": "236cad19bae22e13aeb971c6f6c5b4cfad4c13e2dc30b4bcf66eded079551c1e",
      "vout": 1672,
      "prevout": {
        "scriptpubkey": "001408c408493267d03f66c813b76e36fd6886c634c2",
        "scriptpubkey_asm": "OP_0 OP_PUSHBYTES_20 08c408493267d03f66c813b76e36fd6886c634c2",
        "scriptpubkey_type": "v0_p2wpkh",
        "scriptpubkey_address": "bc1qprzqsjfjvlgr7ekgzwmkudhadzrvvdxz3ej6uu",
        "value": 16340
      },
      "scriptsig": "",
      "scriptsig_asm": "",
      "witness": [
        "30440220377f3babe393f261c54c1b0ec0866e2adb447e3e776d529cf3139c549e94ebf0022052f0c30aa44c6cfb9a43b76b30eaa8c2c502016fe145a5fefe6b11d5b8a8c4c401",
        "039b59598a56b24f0c7fdf7df6e775517bdfcf8de5a60b4b854b762ee619e8f3e4"
      ],
      "is_coinbase": false,
      "sequence": 0
    },
    {
      "txid": "a714746b5f47b6d7a9c4de8a25cc37f1b62c7e599ce00fadc2f2e52ac407f89c",
      "vout": 1681,
      "prevout": {
        "scriptpubkey": "001408c408493267d03f66c813b76e36fd6886c634c2",
        "scriptpubkey_asm": "OP_0 OP_PUSHBYTES_20 08c408493267d03f66c813b76e36fd6886c634c2",
        "scriptpubkey_type": "v0_p2wpkh",
        "scriptpubkey_address": "bc1qprzqsjfjvlgr7ekgzwmkudhadzrvvdxz3ej6uu",
        "value": 23310
      },
      "scriptsig": "",
      "scriptsig_asm": "",
      "witness": [
        "304502210094a82bff16bd24307826450606c74f6316811f8e95784f3758fa5ae1f73a438302202740190a885819c98621b166fc80a4bf5d6b6c0c33770a151948c14f4b6ffa5601",
        "039b59598a56b24f0c7fdf7df6e775517bdfcf8de5a60b4b854b762ee619e8f3e4"
      ],
      "is_coinbase": false,
      "sequence": 0
    },
    {
      "txid": "a694af548cab87317b5757ea4276ef2be4beb7b796578a644b77683832e717b8",
      "vout": 1698,
      "prevout": {
        "scriptpubkey": "001408c408493267d03f66c813b76e36fd6886c634c2",
        "scriptpubkey_asm": "OP_0 OP_PUSHBYTES_20 08c408493267d03f66c813b76e36fd6886c634c2",
        "scriptpubkey_type": "v0_p2wpkh",
        "scriptpubkey_address": "bc1qprzqsjfjvlgr7ekgzwmkudhadzrvvdxz3ej6uu",
        "value": 45404
      },
      "scriptsig": "",
      "scriptsig_asm": "",
      "witness": [
        "3045022100eef642bf1e8dbc3166921859b73bc124be1d9c5f21d685eee7cda9332cb6d279022016b8245a9a480671d80ac419fd3da5280370dc8b32bbd557104383db51ca42b601",
        "039b59598a56b24f0c7fdf7df6e775517bdfcf8de5a60b4b854b762ee619e8f3e4"
      ],
      "is_coinbase": false,
      "sequence": 0
    },
    {
      "txid": "455780ecd9e7ce4703602d023390cf1d9c43875f5efb2998fc6f561d31199b2d",
      "vout": 1751,
      "prevout": {
        "scriptpubkey": "001408c408493267d03f66c813b76e36fd6886c634c2",
        "scriptpubkey_asm": "OP_0 OP_PUSHBYTES_20 08c408493267d03f66c813b76e36fd6886c634c2",
        "scriptpubkey_type": "v0_p2wpkh",
        "scriptpubkey_address": "bc1qprzqsjfjvlgr7ekgzwmkudhadzrvvdxz3ej6uu",
        "value": 22207
      },
      "scriptsig": "",
      "scriptsig_asm": "",
      "witness": [
        "3045022100d4ee3ae628f2ab71da92bad16daf321405ab7af5372ba971f8e8b58bac7ea5a602205255edfef6228880127890cc2de6b8e71df3ae7e86f014b64dfb151a52bcc57d01",
        "039b59598a56b24f0c7fdf7df6e775517bdfcf8de5a60b4b854b762ee619e8f3e4"
      ],
      "is_coinbase": false,
      "sequence": 0
    },
    {
      "txid": "0bd5d4098e08578ab0a01fe69bbc483e08fd4a25e068482a543a2860e4bfdcc7",
      "vout": 1678,
      "prevout": {
        "scriptpubkey": "001408c408493267d03f66c813b76e36fd6886c634c2",
        "scriptpubkey_asm": "OP_0 OP_PUSHBYTES_20 08c408493267d03f66c813b76e36fd6886c634c2",
        "scriptpubkey_type": "v0_p2wpkh",
        "scriptpubkey_address": "bc1qprzqsjfjvlgr7ekgzwmkudhadzrvvdxz3ej6uu",
        "value": 18324
      },
      "scriptsig": "",
      "scriptsig_asm": "",
      "witness": [
        "30440220558ebd7a1382b980ed85be7a763c67164f427c9f9080abaebd7feabab1bdf086022059e1b0ee5bf99594f0eab50f888fb579095374384a3c6b87876ad12a2399fc8601",
        "039b59598a56b24f0c7fdf7df6e775517bdfcf8de5a60b4b854b762ee619e8f3e4"
      ],
      "is_coinbase": false,
      "sequence": 0
    },
    {
      "txid": "e0259a0a5ef4a7cd815a0157fe26b69a28d2f756f46c5fcc951668c7f5216536",
      "vout": 1717,
      "prevout": {
        "scriptpubkey": "001408c408493267d03f66c813b76e36fd6886c634c2",
        "scriptpubkey_asm": "OP_0 OP_PUSHBYTES_20 08c408493267d03f66c813b76e36fd6886c634c2",
        "scriptpubkey_type": "v0_p2wpkh",
        "scriptpubkey_address": "bc1qprzqsjfjvlgr7ekgzwmkudhadzrvvdxz3ej6uu",
        "value": 18009
      },
      "scriptsig": "",
      "scriptsig_asm": "",
      "witness": [
        "304402207b2dc98f0f51a5e0af404df07f9750eca5e6761af245500a06d03557b949cd6602207e74d414e1965e99f3bc72bf7f239f533702062644d4b20b6b02942354e3584d01",
        "039b59598a56b24f0c7fdf7df6e775517bdfcf8de5a60b4b854b762ee619e8f3e4"
      ],
      "is_coinbase": false,
      "sequence": 0
    },
    {
      "txid": "4347d9b008398d1375ed3bde51532a2ebe2844c55d8142099d600e52dcea6465",
      "vout": 1812,
      "prevout": {
        "scriptpubkey": "001408c408493267d03f66c813b76e36fd6886c634c2",
        "scriptpubkey_asm": "OP_0 OP_PUSHBYTES_20 08c408493267d03f66c813b76e36fd6886c634c2",
        "scriptpubkey_type": "v0_p2wpkh",
        "scriptpubkey_address": "bc1qprzqsjfjvlgr7ekgzwmkudhadzrvvdxz3ej6uu",
        "value": 18597
      },
      "scriptsig": "",
      "scriptsig_asm": "",
      "witness": [
        "304402201b8c7c18dd4910695247c50b9e50b600ae0dd945aed4eec060c0b76c454f704502205f3cb1eb96766de5351fd0e6faab2bea5f2a7d5364a08084b3109befdb54005b01",
        "039b59598a56b24f0c7fdf7df6e775517bdfcf8de5a60b4b854b762ee619e8f3e4"
      ],
      "is_coinbase": false,
      "sequence": 0
    },
    {
      "txid": "512221e76b17f07aa695003c3b6e163782141e451ff517c3da04d56c42ba5520",
      "vout": 1973,
      "prevout": {
        "scriptpubkey": "001408c408493267d03f66c813b76e36fd6886c634c2",
        "scriptpubkey_asm": "OP_0 OP_PUSHBYTES_20 08c408493267d03f66c813b76e36fd6886c634c2",
        "scriptpubkey_type": "v0_p2wpkh",
        "scriptpubkey_address": "bc1qprzqsjfjvlgr7ekgzwmkudhadzrvvdxz3ej6uu",
        "value": 14995
      },
      "scriptsig": "",
      "scriptsig_asm": "",
      "witness": [
        "30450221008945957f0784ded341b5c8f0ea28c6b3ee1fc0f5a085bdbf505ccacf4ff812000220290915b181c85e1e7ee5c2d5fd08e53a250f66e682f37df740a482608f84028101",
        "039b59598a56b24f0c7fdf7df6e775517bdfcf8de5a60b4b854b762ee619e8f3e4"
      ],
      "is_coinbase": false,
      "sequence": 0
    },
    {
      "txid": "1429e783b1b57ed131b28040ee97caeabcd3cc15a0d3140e86cb9f1c798e4c28",
      "vout": 1921,
      "prevout": {
        "scriptpubkey": "001408c408493267d03f66c813b76e36fd6886c634c2",
        "scriptpubkey_asm": "OP_0 OP_PUSHBYTES_20 08c408493267d03f66c813b76e36fd6886c634c2",
        "scriptpubkey_type": "v0_p2wpkh",
        "scriptpubkey_address": "bc1qprzqsjfjvlgr7ekgzwmkudhadzrvvdxz3ej6uu",
        "value": 13518
      },
      "scriptsig": "",
      "scriptsig_asm": "",
      "witness": [
        "30440220373552485ec521f120c9f05fec1c50181685320fb4b9a96f99359418c91b039802202299bec95e26709a08ec2fc8b3490c62fdaf2ae4547d3cb897adb9db68c7671501",
        "039b59598a56b24f0c7fdf7df6e775517bdfcf8de5a60b4b854b762ee619e8f3e4"
      ],
      "is_coinbase": false,
      "sequence": 0
    },
    {
      "txid": "bd8ed00760ca93e51d9ca2b23ea6878f0ea2de8474b2f3017033185b6fa44744",
      "vout": 1982,
      "prevout": {
        "scriptpubkey": "001408c408493267d03f66c813b76e36fd6886c634c2",
        "scriptpubkey_asm": "OP_0 OP_PUSHBYTES_20 08c408493267d03f66c813b76e36fd6886c634c2",
        "scriptpubkey_type": "v0_p2wpkh",
        "scriptpubkey_address": "bc1qprzqsjfjvlgr7ekgzwmkudhadzrvvdxz3ej6uu",
        "value": 22067
      },
      "scriptsig": "",
      "scriptsig_asm": "",
      "witness": [
        "3045022100924cf850e9aea6d72c9ffc9bfbd3a8a1aaede57ea9e1468b246e566d9d9372ff02206751cbfa4feeaf3245a5e97169aba20c64b2c08563182ed844635e7905a59e2701",
        "039b59598a56b24f0c7fdf7df6e775517bdfcf8de5a60b4b854b762ee619e8f3e4"
      ],
      "is_coinbase": false,
      "sequence": 0
    },
    {
      "txid": "356680c6e6e55ad4aa2ab011124f1f8a8720f029414647ccf7e53a144da46e90",
      "vout": 1946,
      "prevout": {
        "scriptpubkey": "001408c408493267d03f66c813b76e36fd6886c634c2",
        "scriptpubkey_asm": "OP_0 OP_PUSHBYTES_20 08c408493267d03f66c813b76e36fd6886c634c2",
        "scriptpubkey_type": "v0_p2wpkh",
        "scriptpubkey_address": "bc1qprzqsjfjvlgr7ekgzwmkudhadzrvvdxz3ej6uu",
        "value": 21924
      },
      "scriptsig": "",
      "scriptsig_asm": "",
      "witness": [
        "3045022100f96f201b178c8d32c04314084fe774e4532f2f383dd39827b038cca20a85e79402202b994bfda62e8bd2ab898059bb5e3bbd3de0588e4b910f834de1b8e124a9544b01",
        "039b59598a56b24f0c7fdf7df6e775517bdfcf8de5a60b4b854b762ee619e8f3e4"
      ],
      "is_coinbase": false,
      "sequence": 0
    },
    {
      "txid": "3ef91f4efaa195d934e656f282739f6691964689b70258da896e4bbbc922595b",
      "vout": 2144,
      "prevout": {
        "scriptpubkey": "001408c408493267d03f66c813b76e36fd6886c634c2",
        "scriptpubkey_asm": "OP_0 OP_PUSHBYTES_20 08c408493267d03f66c813b76e36fd6886c634c2",
        "scriptpubkey_type": "v0_p2wpkh",
        "scriptpubkey_address": "bc1qprzqsjfjvlgr7ekgzwmkudhadzrvvdxz3ej6uu",
        "value": 19427
      },
      "scriptsig": "",
      "scriptsig_asm": "",
      "witness": [
        "304402202234cf1cc3bd9bb14283fcf713fa7c689586e52e381a2566c6c733fe7ec1635902206ea83af9cf66839a69cead04c73f14a24d157f2503cbbeec05d396aeee0ec03d01",
        "039b59598a56b24f0c7fdf7df6e775517bdfcf8de5a60b4b854b762ee619e8f3e4"
      ],
      "is_coinbase": false,
      "sequence": 0
    },
    {
      "txid": "b0c21c42c3bbbc02c9ff550406e8ed7e488443b95cc7c34f584c608a7d07a794",
      "vout": 2006,
      "prevout": {
        "scriptpubkey": "001408c408493267d03f66c813b76e36fd6886c634c2",
        "scriptpubkey_asm": "OP_0 OP_PUSHBYTES_20 08c408493267d03f66c813b76e36fd6886c634c2",
        "scriptpubkey_type": "v0_p2wpkh",
        "scriptpubkey_address": "bc1qprzqsjfjvlgr7ekgzwmkudhadzrvvdxz3ej6uu",
        "value": 18641
      },
      "scriptsig": "",
      "scriptsig_asm": "",
      "witness": [
        "3045022100b7f2d09b90f924ece494ad990df509a589a6da4dbc730f21a6ef92cdce9131b002202c7f10446b494e0c6b46be793270ae433e0aa5d514653db4a38fdb22b1ed1b9f01",
        "039b59598a56b24f0c7fdf7df6e775517bdfcf8de5a60b4b854b762ee619e8f3e4"
      ],
      "is_coinbase": false,
      "sequence": 0
    }
  ],
  "vout": [
    {
      "scriptpubkey": "001408c408493267d03f66c813b76e36fd6886c634c2",
      "scriptpubkey_asm": "OP_0 OP_PUSHBYTES_20 08c408493267d03f66c813b76e36fd6886c634c2",
      "scriptpubkey_type": "v0_p2wpkh",
      "scriptpubkey_address": "bc1qprzqsjfjvlgr7ekgzwmkudhadzrvvdxz3ej6uu",
      "value": 1436
    },
    {
      "scriptpubkey": "76a914a27431dc6508d48ebdac1c8982fe822dc420e09388ac",
      "scriptpubkey_asm": "OP_DUP OP_HASH160 OP_PUSHBYTES_20 a27431dc6508d48ebdac1c8982fe822dc420e093 OP_EQUALVERIFY OP_CHECKSIG",
      "scriptpubkey_type": "p2pkh",
      "scriptpubkey_address": "1FoyfRydemUqTEVxM7TW4pAn2NjrMNwSnn",
      "value": 3695000
    }
  ],
  "size": 3495,
  "weight": 6549,
  "fee": 24600,
  "status": {
    "confirmed": true,
    "block_height": 834638,
    "block_hash": "000000000000000000025f742c626208ac87e0b7d15054abb4a19ca2d735a54e",
    "block_time": 1710405325
  },
  "hex": "0100000000011700ea7d4aa9d3a8becc70f1f58269af47b31b908c46bba6106821fde59dfe2d93040000000000000000df3767c40d77699ddc658a8a14e409aeb46d5cbd32d7c7c88dac624b6d94619373020000000000000019e7c7e91cf69f7b0adbad99ef5a9d6224e1017bf1c37c5384413b0a8ea00d8584060000000000000031e15460cd0f7ff4b4fa220b4ed11baed064ad8a12ec8cf749be21c9a14f13e10806000000000000007bc0870531b0fe1b4c7c0875fabb9137426c008b20c9de3d3304e6377024594d4e060000000000000040eca43d90b9e791ae2f8d007891716bf79af1ff03406258702ff145f71ec21f8306000000000000006ab6d56d560d20e1c272602b7954ee254aba49c67ee75aa5ba7f53182e58cab4550600000000000000b67ee274091c21e05e31acaf0cda984db9cc736ebb9d5440122794449293d162650600000000000000c082e6c8d2053e42caf1ce01365bed3f20952486239e611a077eb513c9c8694f680600000000000000ea3d2d001ae57061860557e4ea4a65355154ca3ffb3f586ee42c3a2df69e5f5e4606000000000000001e1c5579d0de6ef6bcb430dce2134cadcfb4c5f6c671b9ae132ee2ba19ad6c238806000000000000009cf807c42ae5f2c2ad0fe09c597e2cb6f137cc258adec4a9d7b6475f6b7414a7910600000000000000b817e7323868774b648a5796b7b7bee42bef7642ea57577b3187ab8c54af94a6a206000000000000002d9b19311d566ffc9829fb5e5f87439c1dcf9033022d600347cee7d9ec805745d70600000000000000c7dcbfe460283a542a4868e0254afd083e48bc9be61fa0b08a57088e09d4d50b8e0600000000000000366521f5c7681695cc5f6cf456f7d2289ab626fe57015a81cda7f45e0a9a25e0b506000000000000006564eadc520e609d0942815dc54428be2e2a5351de3bed75138d3908b0d947431407000000000000002055ba426cd504dac317f51f451e148237166e3b3c0095a67af0176be7212251b50700000000000000284c8e791c9fcb860e14d3a015ccd3bceaca97ee4080b231d17eb5b183e729148107000000000000004447a46f5b18337001f3b27484dea20e8f87a63eb2a29c1de593ca6007d08ebdbe0700000000000000906ea44d143ae5f7cc47464129f020878a1f4f1211b02aaad45ae5e6c68066359a07000000000000005b5922c9bb4b6e89da5802b789469691669f7382f256e634d995a1fa4e1ff93e60080000000000000094a7077d8a604c584fc3c75cb94384487eede8060455ffc902bcbbc3421cc2b0d60700000000000000029c0500000000000016001408c408493267d03f66c813b76e36fd6886c634c298613800000000001976a914a27431dc6508d48ebdac1c8982fe822dc420e09388ac02483045022100e5e0551cfdced1fd833cc5b1181945dd6a88baf69907925ec387bafc4b5f07100220021e753e03c702d61bb6f2cea5fbf315f50bdd49b534b40c7391d93c2349827b0121039b59598a56b24f0c7fdf7df6e775517bdfcf8de5a60b4b854b762ee619e8f3e40248304502210095501e226124b0a8d0fe02d29244dd42cc6fdfe169289c90eeb6ac8b5e4250ff02207fe86321145dd07833a51e0f3b3e7acfc7096cc29e85ecb921339e01c0207f770121039b59598a56b24f0c7fdf7df6e775517bdfcf8de5a60b4b854b762ee619e8f3e40247304402200bc2b629e9e008c89c2f13498b1ec9b30ece6c5b916c4d3b46e5ae4a183e5064022058cf578a0c60a567b5e45c21336d6ca07ca5c1ae8b639e49a46a680e674c198f0121039b59598a56b24f0c7fdf7df6e775517bdfcf8de5a60b4b854b762ee619e8f3e4024830450221009f5387f87e5fe64d3f8ba34608e6214b7ab8f1f6de1a42237d31b45ad01bc6f7022061578b22cf2a6729ddcadfb623bcb6bf7e9206acaf3ec90863c00c8e9aafe02e0121039b59598a56b24f0c7fdf7df6e775517bdfcf8de5a60b4b854b762ee619e8f3e402483045022100c14d57f86411ae3a7af5ef0a01507409fe24a60516f791f595bce6bc70ef8f50022051ac4ac200a6d31e2d737456060815035eb592e743699cd30ddac9e50c9736610121039b59598a56b24f0c7fdf7df6e775517bdfcf8de5a60b4b854b762ee619e8f3e402483045022100a72e211d9e5372c5006769425a44febbe77abbc011bd5b3c151b18056f00c8fa02207459df21ed0e984448694cdaa6a0e2a4cecfe8c93b99e1ed363e7d88e77f8e9c0121039b59598a56b24f0c7fdf7df6e775517bdfcf8de5a60b4b854b762ee619e8f3e402483045022100c697ab629bc62c492401c09e5ff1517fe0b62a5ae8b08cc70fc1c210886f466702203b2a626bce2d90c338095691a168d08a1d6326a21f1be8d1ebd797881719864c0121039b59598a56b24f0c7fdf7df6e775517bdfcf8de5a60b4b854b762ee619e8f3e402473044022074b8e16124db1f3b3c69bd851b16902e57e0a7a3d1690589baf0212563cd052e02205c5d1bdc0039ac7150065baedd776905019db5efb57dd7046cda8c300b5be7d30121039b59598a56b24f0c7fdf7df6e775517bdfcf8de5a60b4b854b762ee619e8f3e402483045022100e052351fb0e57edd6db854246cd751b8405372e7a70d03dffb6ff01faab052ed0220403339acd195cfe5e30941dbe0c12eb757ce4211f5f0bef2c5592ff9a30467930121039b59598a56b24f0c7fdf7df6e775517bdfcf8de5a60b4b854b762ee619e8f3e40247304402203fb27609370917590b590452007202fe31777382b50562b4e0c8624dd54a39a7022019ea72082cc95de59583111219f2fc7328743e3faadf93298241759ec87767da0121039b59598a56b24f0c7fdf7df6e775517bdfcf8de5a60b4b854b762ee619e8f3e4024730440220377f3babe393f261c54c1b0ec0866e2adb447e3e776d529cf3139c549e94ebf0022052f0c30aa44c6cfb9a43b76b30eaa8c2c502016fe145a5fefe6b11d5b8a8c4c40121039b59598a56b24f0c7fdf7df6e775517bdfcf8de5a60b4b854b762ee619e8f3e40248304502210094a82bff16bd24307826450606c74f6316811f8e95784f3758fa5ae1f73a438302202740190a885819c98621b166fc80a4bf5d6b6c0c33770a151948c14f4b6ffa560121039b59598a56b24f0c7fdf7df6e775517bdfcf8de5a60b4b854b762ee619e8f3e402483045022100eef642bf1e8dbc3166921859b73bc124be1d9c5f21d685eee7cda9332cb6d279022016b8245a9a480671d80ac419fd3da5280370dc8b32bbd557104383db51ca42b60121039b59598a56b24f0c7fdf7df6e775517bdfcf8de5a60b4b854b762ee619e8f3e402483045022100d4ee3ae628f2ab71da92bad16daf321405ab7af5372ba971f8e8b58bac7ea5a602205255edfef6228880127890cc2de6b8e71df3ae7e86f014b64dfb151a52bcc57d0121039b59598a56b24f0c7fdf7df6e775517bdfcf8de5a60b4b854b762ee619e8f3e4024730440220558ebd7a1382b980ed85be7a763c67164f427c9f9080abaebd7feabab1bdf086022059e1b0ee5bf99594f0eab50f888fb579095374384a3c6b87876ad12a2399fc860121039b59598a56b24f0c7fdf7df6e775517bdfcf8de5a60b4b854b762ee619e8f3e40247304402207b2dc98f0f51a5e0af404df07f9750eca5e6761af245500a06d03557b949cd6602207e74d414e1965e99f3bc72bf7f239f533702062644d4b20b6b02942354e3584d0121039b59598a56b24f0c7fdf7df6e775517bdfcf8de5a60b4b854b762ee619e8f3e40247304402201b8c7c18dd4910695247c50b9e50b600ae0dd945aed4eec060c0b76c454f704502205f3cb1eb96766de5351fd0e6faab2bea5f2a7d5364a08084b3109befdb54005b0121039b59598a56b24f0c7fdf7df6e775517bdfcf8de5a60b4b854b762ee619e8f3e4024830450221008945957f0784ded341b5c8f0ea28c6b3ee1fc0f5a085bdbf505ccacf4ff812000220290915b181c85e1e7ee5c2d5fd08e53a250f66e682f37df740a482608f8402810121039b59598a56b24f0c7fdf7df6e775517bdfcf8de5a60b4b854b762ee619e8f3e4024730440220373552485ec521f120c9f05fec1c50181685320fb4b9a96f99359418c91b039802202299bec95e26709a08ec2fc8b3490c62fdaf2ae4547d3cb897adb9db68c767150121039b59598a56b24f0c7fdf7df6e775517bdfcf8de5a60b4b854b762ee619e8f3e402483045022100924cf850e9aea6d72c9ffc9bfbd3a8a1aaede57ea9e1468b246e566d9d9372ff02206751cbfa4feeaf3245a5e97169aba20c64b2c08563182ed844635e7905a59e270121039b59598a56b24f0c7fdf7df6e775517bdfcf8de5a60b4b854b762ee619e8f3e402483045022100f96f201b178c8d32c04314084fe774e4532f2f383dd39827b038cca20a85e79402202b994bfda62e8bd2ab898059bb5e3bbd3de0588e4b910f834de1b8e124a9544b0121039b59598a56b24f0c7fdf7df6e775517bdfcf8de5a60b4b854b762ee619e8f3e40247304402202234cf1cc3bd9bb14283fcf713fa7c689586e52e381a2566c6c733fe7ec1635902206ea83af9cf66839a69cead04c73f14a24d157f2503cbbeec05d396aeee0ec03d0121039b59598a56b24f0c7fdf7df6e775517bdfcf8de5a60b4b854b762ee619e8f3e402483045022100b7f2d09b90f924ece494ad990df509a589a6da4dbc730f21a6ef92cdce9131b002202c7f10446b494e0c6b46be793270ae433e0aa5d514653db4a38fdb22b1ed1b9f0121039b59598a56b24f0c7fdf7df6e775517bdfcf8de5a60b4b854b762ee619e8f3e400000000"
}