{
  "txid": "2d29120f2cde14ab562dd6f20a358e175748ebabe994b2cdcae8400c6b899b70",
  "version": 1,
  "locktime": 0,
  "vin": [
    {
      "txid": "419d58c9808b2c352889ea1b8b40af117354f0cd66b16dc407eec455bb3a1cfc",
      "vout": 1,
      "prevout": {
        "scriptpubkey": "5120afa75254d4fdb50c125401c546ca1befa7d0bcb464596e867d60d34676101184",
        "scriptpubkey_asm": "OP_PUSHNUM_1 OP_PUSHBYTES_32 afa75254d4fdb50c125401c546ca1befa7d0bcb464596e867d60d34676101184",
        "scriptpubkey_type": "v1_p2tr",
        "scriptpubkey_address": "bc1p47n4y4x5lk6scyj5q8z5djsma7nap095v3vkapnavrf5vasszxzqzjlcc4",
        "value": 343228
      },
      "scriptsig": "",
      "scriptsig_asm": "",
      "witness": [
        "ace563ab396b436df0db44b50d1ac16b705514f73859de59ae8347c2106269e32f1228f222a69b37f9a2da7571ff3d23768cfc956a74a5ee5d95ccae37412876"
      ],
      "is_coinbase": false,
      "sequence": 4294967295
    }
  ],
  "vout": [
    {
      "scriptpubkey": "51203259496ab2fb4f8d0966a6aa19a31f82687c82dcaf9b7a393995bd6105ad6362",
      "scriptpubkey_asm": "OP_PUSHNUM_1 OP_PUSHBYTES_32 3259496ab2fb4f8d0966a6aa19a31f82687c82dcaf9b7a393995bd6105ad6362",
      "scriptpubkey_type": "v1_p2tr",
      "scriptpubkey_address": "bc1pxfv5j64jld8c6ztx564pngclsf58eqku47dh5wfejk7kzpddvd3qefzdpy",
      "value": 300000
    },
    {
      "scriptpubkey": "5120afa75254d4fdb50c125401c546ca1befa7d0bcb464596e867d60d34676101184",
      "scriptpubkey_asm": "OP_PUSHNUM_1 OP_PUSHBYTES_32 afa75254d4fdb50c125401c546ca1befa7d0bcb464596e867d60d34676101184",
      "scriptpubkey_type": "v1_p2tr",
      "scriptpubkey_address": "bc1p47n4y4x5lk6scyj5q8z5djsma7nap095v3vkapnavrf5vasszxzqzjlcc4",
      "value": 40768
    }
  ],
  "size": 205,
  "weight": 616,
  "fee": 2460,
  "status": {
    "confirmed": true,
    "block_height": 834638,
    "block_hash": "000000000000000000025f742c626208ac87e0b7d15054abb4a19ca2d735a54e",
    "block_time": 1710405325
  },
  "hex": "01000000000101fc1c3abb55c4ee07c46db166cdf0547311af408b1bea8928352c8b80c9589d410100000000ffffffff02e0930400000000002251203259496ab2fb4f8d0966a6aa19a31f82687c82dcaf9b7a393995bd6105ad6362409f000000000000225120afa75254d4fdb50c125401c546ca1befa7d0bcb464596e867d60d346761011840140ace563ab396b436df0db44b50d1ac16b705514f73859de59ae8347c2106269e32f1228f222a69b37f9a2da7571ff3d23768cfc956a74a5ee5d95ccae3741287600000000"
}