{
  "txid": "2d3c5f724205b28e40ba20266c431e6a899041ceea1ef6532b4a25b2a8e241a6",
  "version": 1,
  "locktime": 0,
  "vin": [
    {
      "txid": "3b44d0a2e5839dad0c5351c55340320eb56f727a362b11e3037ad2fb8f922fd8",
      "vout": 0,
      "prevout": {
        "scriptpubkey": "51206a479144671601895b88c24fef462d69961b9fcf37c8c1af33c7005e18c38654",
        "scriptpubkey_asm": "OP_PUSHNUM_1 OP_PUSHBYTES_32 6a479144671601895b88c24fef462d69961b9fcf37c8c1af33c7005e18c38654",
        "scriptpubkey_type": "v1_p2tr",
        "scriptpubkey_address": "bc1pdfrez3r8zcqcjkugcf87733ddxtph870xlyvrtencuq9uxxrse2qhqu2lf",
        "value": 2346
      },
      "scriptsig": "",
      "scriptsig_asm": "",
      "witness": [
        "ff4f1ffebc0775432eb4133d86518261094c033fb1be8be78bacdb9474c07253546164d37b08354e93ac1ce1c6b9741fa98649c90a93cfedbe6f2fcf8143f43d",
        "209bd242bb39b151aa3fcda71293c931625a9298e4acd41e1c43bf4b1d7bf0e96cac0063036f726401010a746578742f706c61696e003e7b2270223a226272632d3230222c226f70223a227472616e73666572222c227469636b223a2253415453222c22616d74223a22383030303030303030227d68",
        "c19bd242bb39b151aa3fcda71293c931625a9298e4acd41e1c43bf4b1d7bf0e96c"
      ],
      "is_coinbase": false,
      "sequence": 4294967293
    }
  ],
  "vout": [
    {
      "scriptpubkey": "512078dc5c1b2a79b53e5e32da7a548598f1aa95ad04f12ef84a7549f4cfd241b8c2",
      "scriptpubkey_asm": "OP_PUSHNUM_1 OP_PUSHBYTES_32 78dc5c1b2a79b53e5e32da7a548598f1aa95ad04f12ef84a7549f4cfd241b8c2",
      "scriptpubkey_type": "v1_p2tr",
      "scriptpubkey_address": "bc1p0rw9cxe20x6nuh3jmfa9fpvc7x4fttgy7yh0sjn4f86vl5jphrpq6lfu9f",
      "value": 546
    }
  ],
  "size": 315,
  "weight": 597,
  "fee": 1800,
  "status": {
    "confirmed": true,
    "block_height": 834460,
    "block_hash": "00000000000000000000484a79b643b2524bbce82e5d8a442013fa5b8905ed98",
    "block_time": 1710307468
  },
  "hex": "01000000000101d82f928ffbd27a03e3112b367a726fb50e324053c551530cad9d83e5a2d0443b0000000000fdffffff01220200000000000022512078dc5c1b2a79b53e5e32da7a548598f1aa95ad04f12ef84a7549f4cfd241b8c20340ff4f1ffebc0775432eb4133d86518261094c033fb1be8be78bacdb9474c07253546164d37b08354e93ac1ce1c6b9741fa98649c90a93cfedbe6f2fcf8143f43d76209bd242bb39b151aa3fcda71293c931625a9298e4acd41e1c43bf4b1d7bf0e96cac0063036f726401010a746578742f706c61696e003e7b2270223a226272632d3230222c226f70223a227472616e73666572222c227469636b223a2253415453222c22616d74223a22383030303030303030227d6821c19bd242bb39b151aa3fcda71293c931625a9298e4acd41e1c43bf4b1d7bf0e96c00000000"
}