{
  "txid": "2d4d450afe9432440531531c06b407a65fac6378bc68bf9b7bdf5f610cf9a352",
  "version": 2,
  "locktime": 0,
  "vin": [
    {
      "txid": "5cf5838ec1a20f69603899696bd1c6cbe051cea9f65c7c39518f6eebb0932a49",
      "vout": 14,
      "prevout": {
        "scriptpubkey": "5120a3e1c8a52d9236d9e9ea3c99fa7519aecb538dd3f59632cbf4715e492f36c7ba",
        "scriptpubkey_asm": "OP_PUSHNUM_1 OP_PUSHBYTES_32 a3e1c8a52d9236d9e9ea3c99fa7519aecb538dd3f59632cbf4715e492f36c7ba",
        "scriptpubkey_type": "v1_p2tr",
        "scriptpubkey_address": "bc1p50su3ffdjgmdn6028jvl5age4m948rwn7ktr9jl5w90yjtekc7aqzmevyu",
        "value": 914013
      },
      "scriptsig": "",
      "scriptsig_asm": "",
      "witness": [
        "011774b3720dce19b54d6523cc6975207c95e4c09a0d50a10889d70f10be12e0c2bbcbccbf9159101e651cdea9fb1be179989a8de5ab7fdcdebe665ae9117617",
        "20aebc56c5fa371114651c8f87c8cc8c20e039b37ddeb69b9b7d668729908a1378ac",
        "c0aebc56c5fa371114651c8f87c8cc8c20e039b37ddeb69b9b7d668729908a1378"
      ],
      "is_coinbase": false,
      "sequence": 4294967293
    },
    {
      "txid": "0f87836bf19383b2bbe9836d30c36d61512402dc5f27749983ddc56b1ec8d4f4",
      "vout": 1,
      "prevout": {
        "scriptpubkey": "5120a3e1c8a52d9236d9e9ea3c99fa7519aecb538dd3f59632cbf4715e492f36c7ba",
        "scriptpubkey_asm": "OP_PUSHNUM_1 OP_PUSHBYTES_32 a3e1c8a52d9236d9e9ea3c99fa7519aecb538dd3f59632cbf4715e492f36c7ba",
        "scriptpubkey_type": "v1_p2tr",
        "scriptpubkey_address": "bc1p50su3ffdjgmdn6028jvl5age4m948rwn7ktr9jl5w90yjtekc7aqzmevyu",
        "value": 1085987
      },
      "scriptsig": "",
      "scriptsig_asm": "",
      "witness": [
        "1dfe7487c55fe72ee09ac95578c465df72fa6b981a5d9b760c012e86347300a49447a23c4a7899dcdf1cb6c598a613f49c6a3db327e0e3efd137122002161e3c",
        "20aebc56c5fa371114651c8f87c8cc8c20e039b37ddeb69b9b7d668729908a1378ac",
        "c0aebc56c5fa371114651c8f87c8cc8c20e039b37ddeb69b9b7d668729908a1378"
      ],
      "is_coinbase": false,
      "sequence": 4294967293
    }
  ],
  "vout": [
    {
      "scriptpubkey": "5120d23997971ce91dbeb905c221cc62555a42f10d3a28e8ff54e1bf2a12f21e7a77",
      "scriptpubkey_asm": "OP_PUSHNUM_1 OP_PUSHBYTES_32 d23997971ce91dbeb905c221cc62555a42f10d3a28e8ff54e1bf2a12f21e7a77",
      "scriptpubkey_type": "v1_p2tr",
      "scriptpubkey_address": "bc1p6gue09cuaywmawg9cgsuccj4tfp0zrf69r50748phu4p9us70fmsdnv0qr",
      "value": 1711
    },
    {
      "scriptpubkey": "5120d23997971ce91dbeb905c221cc62555a42f10d3a28e8ff54e1bf2a12f21e7a77",
      "scriptpubkey_asm": "OP_PUSHNUM_1 OP_PUSHBYTES_32 d23997971ce91dbeb905c221cc62555a42f10d3a28e8ff54e1bf2a12f21e7a77",
      "scriptpubkey_type": "v1_p2tr",
      "scriptpubkey_address": "bc1p6gue09cuaywmawg9cgsuccj4tfp0zrf69r50748phu4p9us70fmsdnv0qr",
      "value": 1711
    },
    {
      "scriptpubkey": "5120d23997971ce91dbeb905c221cc62555a42f10d3a28e8ff54e1bf2a12f21e7a77",
      "scriptpubkey_asm": "OP_PUSHNUM_1 OP_PUSHBYTES_32 d23997971ce91dbeb905c221cc62555a42f10d3a28e8ff54e1bf2a12f21e7a77",
      "scriptpubkey_type": "v1_p2tr",
      "scriptpubkey_address": "bc1p6gue09cuaywmawg9cgsuccj4tfp0zrf69r50748phu4p9us70fmsdnv0qr",
      "value": 1711
    },
    {
      "scriptpubkey": "5120d23997971ce91dbeb905c221cc62555a42f10d3a28e8ff54e1bf2a12f21e7a77",
      "scriptpubkey_asm": "OP_PUSHNUM_1 OP_PUSHBYTES_32 d23997971ce91dbeb905c221cc62555a42f10d3a28e8ff54e1bf2a12f21e7a77",
      "scriptpubkey_type": "v1_p2tr",
      "scriptpubkey_address": "bc1p6gue09cuaywmawg9cgsuccj4tfp0zrf69r50748phu4p9us70fmsdnv0qr",
      "value": 1711
    },
    {
      "scriptpubkey": "5120d23997971ce91dbeb905c221cc62555a42f10d3a28e8ff54e1bf2a12f21e7a77",
      "scriptpubkey_asm": "OP_PUSHNUM_1 OP_PUSHBYTES_32 d23997971ce91dbeb905c221cc62555a42f10d3a28e8ff54e1bf2a12f21e7a77",
      "scriptpubkey_type": "v1_p2tr",
      "scriptpubkey_address": "bc1p6gue09cuaywmawg9cgsuccj4tfp0zrf69r50748phu4p9us70fmsdnv0qr",
      "value": 1711
    },
    {
      "scriptpubkey": "5120d23997971ce91dbeb905c221cc62555a42f10d3a28e8ff54e1bf2a12f21e7a77",
      "scriptpubkey_asm": "OP_PUSHNUM_1 OP_PUSHBYTES_32 d23997971ce91dbeb905c221cc62555a42f10d3a28e8ff54e1bf2a12f21e7a77",
      "scriptpubkey_type": "v1_p2tr",
      "scriptpubkey_address": "bc1p6gue09cuaywmawg9cgsuccj4tfp0zrf69r50748phu4p9us70fmsdnv0qr",
      "value": 1711
    },
    {
      "scriptpubkey": "5120d23997971ce91dbeb905c221cc62555a42f10d3a28e8ff54e1bf2a12f21e7a77",
      "scriptpubkey_asm": "OP_PUSHNUM_1 OP_PUSHBYTES_32 d23997971ce91dbeb905c221cc62555a42f10d3a28e8ff54e1bf2a12f21e7a77",
      "scriptpubkey_type": "v1_p2tr",
      "scriptpubkey_address": "bc1p6gue09cuaywmawg9cgsuccj4tfp0zrf69r50748phu4p9us70fmsdnv0qr",
      "value": 1711
    },
    {
      "scriptpubkey": "5120d23997971ce91dbeb905c221cc62555a42f10d3a28e8ff54e1bf2a12f21e7a77",
      "scriptpubkey_asm": "OP_PUSHNUM_1 OP_PUSHBYTES_32 d23997971ce91dbeb905c221cc62555a42f10d3a28e8ff54e1bf2a12f21e7a77",
      "scriptpubkey_type": "v1_p2tr",
      "scriptpubkey_address": "bc1p6gue09cuaywmawg9cgsuccj4tfp0zrf69r50748phu4p9us70fmsdnv0qr",
      "value": 1711
    },
    {
      "scriptpubkey": "5120d23997971ce91dbeb905c221cc62555a42f10d3a28e8ff54e1bf2a12f21e7a77",
      "scriptpubkey_asm": "OP_PUSHNUM_1 OP_PUSHBYTES_32 d23997971ce91dbeb905c221cc62555a42f10d3a28e8ff54e1bf2a12f21e7a77",
      "scriptpubkey_type": "v1_p2tr",
      "scriptpubkey_address": "bc1p6gue09cuaywmawg9cgsuccj4tfp0zrf69r50748phu4p9us70fmsdnv0qr",
      "value": 1711
    },
    {
      "scriptpubkey": "5120d23997971ce91dbeb905c221cc62555a42f10d3a28e8ff54e1bf2a12f21e7a77",
      "scriptpubkey_asm": "OP_PUSHNUM_1 OP_PUSHBYTES_32 d23997971ce91dbeb905c221cc62555a42f10d3a28e8ff54e1bf2a12f21e7a77",
      "scriptpubkey_type": "v1_p2tr",
      "scriptpubkey_address": "bc1p6gue09cuaywmawg9cgsuccj4tfp0zrf69r50748phu4p9us70fmsdnv0qr",
      "value": 1711
    },
    {
      "scriptpubkey": "5120d23997971ce91dbeb905c221cc62555a42f10d3a28e8ff54e1bf2a12f21e7a77",
      "scriptpubkey_asm": "OP_PUSHNUM_1 OP_PUSHBYTES_32 d23997971ce91dbeb905c221cc62555a42f10d3a28e8ff54e1bf2a12f21e7a77",
      "scriptpubkey_type": "v1_p2tr",
      "scriptpubkey_address": "bc1p6gue09cuaywmawg9cgsuccj4tfp0zrf69r50748phu4p9us70fmsdnv0qr",
      "value": 1711
    },
    {
      "scriptpubkey": "5120d23997971ce91dbeb905c221cc62555a42f10d3a28e8ff54e1bf2a12f21e7a77",
      "scriptpubkey_asm": "OP_PUSHNUM_1 OP_PUSHBYTES_32 d23997971ce91dbeb905c221cc62555a42f10d3a28e8ff54e1bf2a12f21e7a77",
      "scriptpubkey_type": "v1_p2tr",
      "scriptpubkey_address": "bc1p6gue09cuaywmawg9cgsuccj4tfp0zrf69r50748phu4p9us70fmsdnv0qr",
      "value": 1711
    },
    {
      "scriptpubkey": "5120d23997971ce91dbeb905c221cc62555a42f10d3a28e8ff54e1bf2a12f21e7a77",
      "scriptpubkey_asm": "OP_PUSHNUM_1 OP_PUSHBYTES_32 d23997971ce91dbeb905c221cc62555a42f10d3a28e8ff54e1bf2a12f21e7a77",
      "scriptpubkey_type": "v1_p2tr",
      "scriptpubkey_address": "bc1p6gue09cuaywmawg9cgsuccj4tfp0zrf69r50748phu4p9us70fmsdnv0qr",
      "value": 1711
    },
    {
      "scriptpubkey": "5120d23997971ce91dbeb905c221cc62555a42f10d3a28e8ff54e1bf2a12f21e7a77",
      "scriptpubkey_asm": "OP_PUSHNUM_1 OP_PUSHBYTES_32 d23997971ce91dbeb905c221cc62555a42f10d3a28e8ff54e1bf2a12f21e7a77",
      "scriptpubkey_type": "v1_p2tr",
      "scriptpubkey_address": "bc1p6gue09cuaywmawg9cgsuccj4tfp0zrf69r50748phu4p9us70fmsdnv0qr",
      "value": 1711
    },
    {
      "scriptpubkey": "5120d23997971ce91dbeb905c221cc62555a42f10d3a28e8ff54e1bf2a12f21e7a77",
      "scriptpubkey_asm": "OP_PUSHNUM_1 OP_PUSHBYTES_32 d23997971ce91dbeb905c221cc62555a42f10d3a28e8ff54e1bf2a12f21e7a77",
      "scriptpubkey_type": "v1_p2tr",
      "scriptpubkey_address": "bc1p6gue09cuaywmawg9cgsuccj4tfp0zrf69r50748phu4p9us70fmsdnv0qr",
      "value": 1711
    },
    {
      "scriptpubkey": "5120d23997971ce91dbeb905c221cc62555a42f10d3a28e8ff54e1bf2a12f21e7a77",
      "scriptpubkey_asm": "OP_PUSHNUM_1 OP_PUSHBYTES_32 d23997971ce91dbeb905c221cc62555a42f10d3a28e8ff54e1bf2a12f21e7a77",
      "scriptpubkey_type": "v1_p2tr",
      "scriptpubkey_address": "bc1p6gue09cuaywmawg9cgsuccj4tfp0zrf69r50748phu4p9us70fmsdnv0qr",
      "value": 1711
    },
    {
      "scriptpubkey": "5120d23997971ce91dbeb905c221cc62555a42f10d3a28e8ff54e1bf2a12f21e7a77",
      "scriptpubkey_asm": "OP_PUSHNUM_1 OP_PUSHBYTES_32 d23997971ce91dbeb905c221cc62555a42f10d3a28e8ff54e1bf2a12f21e7a77",
      "scriptpubkey_type": "v1_p2tr",
      "scriptpubkey_address": "bc1p6gue09cuaywmawg9cgsuccj4tfp0zrf69r50748phu4p9us70fmsdnv0qr",
      "value": 1711
    },
    {
      "scriptpubkey": "5120d23997971ce91dbeb905c221cc62555a42f10d3a28e8ff54e1bf2a12f21e7a77",
      "scriptpubkey_asm": "OP_PUSHNUM_1 OP_PUSHBYTES_32 d23997971ce91dbeb905c221cc62555a42f10d3a28e8ff54e1bf2a12f21e7a77",
      "scriptpubkey_type": "v1_p2tr",
      "scriptpubkey_address": "bc1p6gue09cuaywmawg9cgsuccj4tfp0zrf69r50748phu4p9us70fmsdnv0qr",
      "value": 1711
    },
    {
      "scriptpubkey": "5120d23997971ce91dbeb905c221cc62555a42f10d3a28e8ff54e1bf2a12f21e7a77",
      "scriptpubkey_asm": "OP_PUSHNUM_1 OP_PUSHBYTES_32 d23997971ce91dbeb905c221cc62555a42f10d3a28e8ff54e1bf2a12f21e7a77",
      "scriptpubkey_type": "v1_p2tr",
      "scriptpubkey_address": "bc1p6gue09cuaywmawg9cgsuccj4tfp0zrf69r50748phu4p9us70fmsdnv0qr",
      "value": 1711
    },
    {
      "scriptpubkey": "5120d23997971ce91dbeb905c221cc62555a42f10d3a28e8ff54e1bf2a12f21e7a77",
      "scriptpubkey_asm": "OP_PUSHNUM_1 OP_PUSHBYTES_32 d23997971ce91dbeb905c221cc62555a42f10d3a28e8ff54e1bf2a12f21e7a77",
      "scriptpubkey_type": "v1_p2tr",
      "scriptpubkey_address": "bc1p6gue09cuaywmawg9cgsuccj4tfp0zrf69r50748phu4p9us70fmsdnv0qr",
      "value": 1711
    },
    {
      "scriptpubkey": "5120d23997971ce91dbeb905c221cc62555a42f10d3a28e8ff54e1bf2a12f21e7a77",
      "scriptpubkey_asm": "OP_PUSHNUM_1 OP_PUSHBYTES_32 d23997971ce91dbeb905c221cc62555a42f10d3a28e8ff54e1bf2a12f21e7a77",
      "scriptpubkey_type": "v1_p2tr",
      "scriptpubkey_address": "bc1p6gue09cuaywmawg9cgsuccj4tfp0zrf69r50748phu4p9us70fmsdnv0qr",
      "value": 1711
    },
    {
      "scriptpubkey": "5120d23997971ce91dbeb905c221cc62555a42f10d3a28e8ff54e1bf2a12f21e7a77",
      "scriptpubkey_asm": "OP_PUSHNUM_1 OP_PUSHBYTES_32 d23997971ce91dbeb905c221cc62555a42f10d3a28e8ff54e1bf2a12f21e7a77",
      "scriptpubkey_type": "v1_p2tr",
      "scriptpubkey_address": "bc1p6gue09cuaywmawg9cgsuccj4tfp0zrf69r50748phu4p9us70fmsdnv0qr",
      "value": 1711
    },
    {
      "scriptpubkey": "5120d23997971ce91dbeb905c221cc62555a42f10d3a28e8ff54e1bf2a12f21e7a77",
      "scriptpubkey_asm": "OP_PUSHNUM_1 OP_PUSHBYTES_32 d23997971ce91dbeb905c221cc62555a42f10d3a28e8ff54e1bf2a12f21e7a77",
      "scriptpubkey_type": "v1_p2tr",
      "scriptpubkey_address": "bc1p6gue09cuaywmawg9cgsuccj4tfp0zrf69r50748phu4p9us70fmsdnv0qr",
      "value": 1711
    },
    {
      "scriptpubkey": "5120d23997971ce91dbeb905c221cc62555a42f10d3a28e8ff54e1bf2a12f21e7a77",
      "scriptpubkey_asm": "OP_PUSHNUM_1 OP_PUSHBYTES_32 d23997971ce91dbeb905c221cc62555a42f10d3a28e8ff54e1bf2a12f21e7a77",
      "scriptpubkey_type": "v1_p2tr",
      "scriptpubkey_address": "bc1p6gue09cuaywmawg9cgsuccj4tfp0zrf69r50748phu4p9us70fmsdnv0qr",
      "value": 1711
    },
    {
      "scriptpubkey": "5120d23997971ce91dbeb905c221cc62555a42f10d3a28e8ff54e1bf2a12f21e7a77",
      "scriptpubkey_asm": "OP_PUSHNUM_1 OP_PUSHBYTES_32 d23997971ce91dbeb905c221cc62555a42f10d3a28e8ff54e1bf2a12f21e7a77",
      "scriptpubkey_type": "v1_p2tr",
      "scriptpubkey_address": "bc1p6gue09cuaywmawg9cgsuccj4tfp0zrf69r50748phu4p9us70fmsdnv0qr",
      "value": 1711
    },
    {
      "scriptpubkey": "5120a3e1c8a52d9236d9e9ea3c99fa7519aecb538dd3f59632cbf4715e492f36c7ba",
      "scriptpubkey_asm": "OP_PUSHNUM_1 OP_PUSHBYTES_32 a3e1c8a52d9236d9e9ea3c99fa7519aecb538dd3f59632cbf4715e492f36c7ba",
      "scriptpubkey_type": "v1_p2tr",
      "scriptpubkey_address": "bc1p50su3ffdjgmdn6028jvl5age4m948rwn7ktr9jl5w90yjtekc7aqzmevyu",
      "value": 1940994
    }
  ],
  "size": 1482,
  "weight": 5112,
  "fee": 16231,
  "status": {
    "confirmed": true,
    "block_height": 834460,
    "block_hash": "00000000000000000000484a79b643b2524bbce82e5d8a442013fa5b8905ed98",
    "block_time": 1710307468
  },
  "hex": "02000000000102492a93b0eb6e8f51397c5cf6a9ce51e0cbc6d16b69993860690fa2c18e83f55c0e00000000fdfffffff4d4c81e6bc5dd839974275fdc022451616dc3306d83e9bbb28393f16b83870f0100000000fdffffff1aaf06000000000000225120d23997971ce91dbeb905c221cc62555a42f10d3a28e8ff54e1bf2a12f21e7a77af06000000000000225120d23997971ce91dbeb905c221cc62555a42f10d3a28e8ff54e1bf2a12f21e7a77af06000000000000225120d23997971ce91dbeb905c221cc62555a42f10d3a28e8ff54e1bf2a12f21e7a77af06000000000000225120d23997971ce91dbeb905c221cc62555a42f10d3a28e8ff54e1bf2a12f21e7a77af06000000000000225120d23997971ce91dbeb905c221cc62555a42f10d3a28e8ff54e1bf2a12f21e7a77af06000000000000225120d23997971ce91dbeb905c221cc62555a42f10d3a28e8ff54e1bf2a12f21e7a77af06000000000000225120d23997971ce91dbeb905c221cc62555a42f10d3a28e8ff54e1bf2a12f21e7a77af06000000000000225120d23997971ce91dbeb905c221cc62555a42f10d3a28e8ff54e1bf2a12f21e7a77af06000000000000225120d23997971ce91dbeb905c221cc62555a42f10d3a28e8ff54e1bf2a12f21e7a77af06000000000000225120d23997971ce91dbeb905c221cc62555a42f10d3a28e8ff54e1bf2a12f21e7a77af06000000000000225120d23997971ce91dbeb905c221cc62555a42f10d3a28e8ff54e1bf2a12f21e7a77af06000000000000225120d23997971ce91dbeb905c221cc62555a42f10d3a28e8ff54e1bf2a12f21e7a77af06000000000000225120d23997971ce91dbeb905c221cc62555a42f10d3a28e8ff54e1bf2a12f21e7a77af06000000000000225120d23997971ce91dbeb905c221cc62555a42f10d3a28e8ff54e1bf2a12f21e7a77af06000000000000225120d23997971ce91dbeb905c221cc62555a42f10d3a28e8ff54e1bf2a12f21e7a77af06000000000000225120d23997971ce91dbeb905c221cc62555a42f10d3a28e8ff54e1bf2a12f21e7a77af06000000000000225120d23997971ce91dbeb905c221cc62555a42f10d3a28e8ff54e1bf2a12f21e7a77af06000000000000225120d23997971ce91dbeb905c221cc62555a42f10d3a28e8ff54e1bf2a12f21e7a77af06000000000000225120d23997971ce91dbeb905c221cc62555a42f10d3a28e8ff54e1bf2a12f21e7a77af06000000000000225120d23997971ce91dbeb905c221cc62555a42f10d3a28e8ff54e1bf2a12f21e7a77af06000000000000225120d23997971ce91dbeb905c221cc62555a42f10d3a28e8ff54e1bf2a12f21e7a77af06000000000000225120d23997971ce91dbeb905c221cc62555a42f10d3a28e8ff54e1bf2a12f21e7a77af06000000000000225120d23997971ce91dbeb905c221cc62555a42f10d3a28e8ff54e1bf2a12f21e7a77af06000000000000225120d23997971ce91dbeb905c221cc62555a42f10d3a28e8ff54e1bf2a12f21e7a77af06000000000000225120d23997971ce91dbeb905c221cc62555a42f10d3a28e8ff54e1bf2a12f21e7a77029e1d0000000000225120a3e1c8a52d9236d9e9ea3c99fa7519aecb538dd3f59632cbf4715e492f36c7ba0340011774b3720dce19b54d6523cc6975207c95e4c09a0d50a10889d70f10be12e0c2bbcbccbf9159101e651cdea9fb1be179989a8de5ab7fdcdebe665ae91176172220aebc56c5fa371114651c8f87c8cc8c20e039b37ddeb69b9b7d668729908a1378ac21c0aebc56c5fa371114651c8f87c8cc8c20e039b37ddeb69b9b7d668729908a137803401dfe7487c55fe72ee09ac95578c465df72fa6b981a5d9b760c012e86347300a49447a23c4a7899dcdf1cb6c598a613f49c6a3db327e0e3efd137122002161e3c2220aebc56c5fa371114651c8f87c8cc8c20e039b37ddeb69b9b7d668729908a1378ac21c0aebc56c5fa371114651c8f87c8cc8c20e039b37ddeb69b9b7d668729908a137800000000"
}