{
  "txid": "2d56ac5bc7b4e799049eaa473b2dd1d07a84fa9f3b10a19f6084d8d61742145e",
  "version": 2,
  "locktime": 0,
  "vin": [
    {
      "txid": "1197360c30877fe7eac48939bf12b7df8d5a4b2a630c335b498ba6f5881909eb",
      "vout": 0,
      "prevout": {
        "scriptpubkey": "51201e9b80148c13946544f05ac87d11c85844f362ce913e9c9ea18cf45d73ca3592",
        "scriptpubkey_asm": "OP_PUSHNUM_1 OP_PUSHBYTES_32 1e9b80148c13946544f05ac87d11c85844f362ce913e9c9ea18cf45d73ca3592",
        "scriptpubkey_type": "v1_p2tr",
        "scriptpubkey_address": "bc1pr6dcq9yvzw2x238stty86ywgtpz0xckwjylfe84p3n696u72xkfq5tafg3",
        "value": 2826
      },
      "scriptsig": "",
      "scriptsig_asm": "",
      "witness": [
        "6db36628782543aac6b79b1a53f9636dee6ee44f6562cde99020b98686f6d804691b4edb4a6d86afa888e4d7365250d2c6d8d6dfac1ce22ebd5746cd7698a533",
        "20e11133e1847d8aa580fef0f53a41f729f76c6eaf40eae0852c64eade735a2247ac0063036f726401010a746578742f706c61696e00497b2270223a2262726332302d73222c226f70223a226465706f736974222c22616d74223a22313030303030303030303030222c22706964223a2231623163363634643331233133227d68",
        "c1e11133e1847d8aa580fef0f53a41f729f76c6eaf40eae0852c64eade735a2247"
      ],
      "is_coinbase": false,
      "sequence": 4294967293
    }
  ],
  "vout": [
    {
      "scriptpubkey": "5120566738e92325ede0f0022d3d7d97e99a786431e4f062f2dc08112221c73d983d",
      "scriptpubkey_asm": "OP_PUSHNUM_1 OP_PUSHBYTES_32 566738e92325ede0f0022d3d7d97e99a786431e4f062f2dc08112221c73d983d",
      "scriptpubkey_type": "v1_p2tr",
      "scriptpubkey_address": "bc1p2enn36fryhk7puqz957hm9lfnfuxgv0y7p309hqgzy3zr3eanq7s67smjr",
      "value": 546
    }
  ],
  "size": 326,
  "weight": 608,
  "fee": 2280,
  "status": {
    "confirmed": true,
    "block_height": 834638,
    "block_hash": "000000000000000000025f742c626208ac87e0b7d15054abb4a19ca2d735a54e",
    "block_time": 1710405325
  },
  "hex": "02000000000101eb091988f5a68b495b330c632a4b5a8ddfb712bf3989c4eae77f87300c3697110000000000fdffffff012202000000000000225120566738e92325ede0f0022d3d7d97e99a786431e4f062f2dc08112221c73d983d03406db36628782543aac6b79b1a53f9636dee6ee44f6562cde99020b98686f6d804691b4edb4a6d86afa888e4d7365250d2c6d8d6dfac1ce22ebd5746cd7698a5338120e11133e1847d8aa580fef0f53a41f729f76c6eaf40eae0852c64eade735a2247ac0063036f726401010a746578742f706c61696e00497b2270223a2262726332302d73222c226f70223a226465706f736974222c22616d74223a22313030303030303030303030222c22706964223a2231623163363634643331233133227d6821c1e11133e1847d8aa580fef0f53a41f729f76c6eaf40eae0852c64eade735a224700000000"
}