{
  "txid": "2d655ed33b7c702bf578a1c9062fac0b947aaca69b96d79106bce6a3682013f2",
  "version": 1,
  "locktime": 0,
  "vin": [
    {
      "txid": "d03c0d4d5455fa517edf1f31f81c1355273b0dfc834e000179404411034b6656",
      "vout": 23,
      "prevout": {
        "scriptpubkey": "76a914c110cb66bd50b11e51047f55afaf00f5255aa81788ac",
        "scriptpubkey_asm": "OP_DUP OP_HASH160 OP_PUSHBYTES_20 c110cb66bd50b11e51047f55afaf00f5255aa817 OP_EQUALVERIFY OP_CHECKSIG",
        "scriptpubkey_type": "p2pkh",
        "scriptpubkey_address": "1JbqXvqCEV1oncV9pjtvpS1gzWpTMtZ9Ce",
        "value": 190000
      },
      "scriptsig": "483045022100bd1120df4252ed180c3398dc61d6097a1ba4dd66867dac88a172977b75704dc30220255578ad41d0032b5968e0fdd70617c556eaef7fefb46210ebc7d8a0c49df738012103be3f3e95c9d837c04ff3307ae38c64ddce30e24321c51e476990072a482a11e9",
      "scriptsig_asm": "OP_PUSHBYTES_72 3045022100bd1120df4252ed180c3398dc61d6097a1ba4dd66867dac88a172977b75704dc30220255578ad41d0032b5968e0fdd70617c556eaef7fefb46210ebc7d8a0c49df73801 OP_PUSHBYTES_33 03be3f3e95c9d837c04ff3307ae38c64ddce30e24321c51e476990072a482a11e9",
      "is_coinbase": false,
      "sequence": 4294967295
    }
  ],
  "vout": [
    {
      "scriptpubkey": "76a914ba6e9f5dc28debad68d2360773752482e0bb965088ac",
      "scriptpubkey_asm": "OP_DUP OP_HASH160 OP_PUSHBYTES_20 ba6e9f5dc28debad68d2360773752482e0bb9650 OP_EQUALVERIFY OP_CHECKSIG",
      "scriptpubkey_type": "p2pkh",
      "scriptpubkey_address": "1HzmCsMdgBgivz9NLDQZyotVsGMEid51xE",
      "value": 177125
    },
    {
      "scriptpubkey": "76a9143c99d98dcacf2a03c518b741ac60f1ad79e3b44588ac",
      "scriptpubkey_asm": "OP_DUP OP_HASH160 OP_PUSHBYTES_20 3c99d98dcacf2a03c518b741ac60f1ad79e3b445 OP_EQUALVERIFY OP_CHECKSIG",
      "scriptpubkey_type": "p2pkh",
      "scriptpubkey_address": "16XRrBbdnhTJ1KCeYvHGunFEDUqxRcuUBi",
      "value": 5869
    }
  ],
  "size": 226,
  "weight": 904,
  "fee": 7006,
  "status": {
    "confirmed": true,
    "block_height": 834638,
    "block_hash": "000000000000000000025f742c626208ac87e0b7d15054abb4a19ca2d735a54e",
    "block_time": 1710405325
  },
  "hex": "010000000156664b031144407901004e83fc0d3b2755131cf8311fdf7e51fa55544d0d3cd0170000006b483045022100bd1120df4252ed180c3398dc61d6097a1ba4dd66867dac88a172977b75704dc30220255578ad41d0032b5968e0fdd70617c556eaef7fefb46210ebc7d8a0c49df738012103be3f3e95c9d837c04ff3307ae38c64ddce30e24321c51e476990072a482a11e9ffffffff02e5b30200000000001976a914ba6e9f5dc28debad68d2360773752482e0bb965088aced160000000000001976a9143c99d98dcacf2a03c518b741ac60f1ad79e3b44588ac00000000"
}