{
  "txid": "2d68b88d01557d01cfedd1da61ccb164cf1af30aea0f6dbda114343a4482b015",
  "version": 2,
  "locktime": 0,
  "vin": [
    {
      "txid": "acc3ba00869acb582a3f2904ce3a11dd3779350ce234063fc7d0959246213364",
      "vout": 126,
      "prevout": {
        "scriptpubkey": "5120438cd010cf22b7f6217c92b272a36f751833d941cab0cd06988f9cba5e4a98a0",
        "scriptpubkey_asm": "OP_PUSHNUM_1 OP_PUSHBYTES_32 438cd010cf22b7f6217c92b272a36f751833d941cab0cd06988f9cba5e4a98a0",
        "scriptpubkey_type": "v1_p2tr",
        "scriptpubkey_address": "bc1pgwxdqyx0y2mlvgtuj2e89gm0w5vr8k2pe2cv6p5c37wt5hj2nzsqepatsa",
        "value": 1806
      },
      "scriptsig": "",
      "scriptsig_asm": "",
      "witness": [
        "b1fe07ff68ab21d7e2dd8991b025e31fd49bf21758cfd9f90db906daaac042443fd697b4450f6353c38aca35674cc34e3a9db9493d5d94f155c15c591cd639c9",
        "20b9dd380d33ba388c69ffdeb1e6fb6a92ce7d0c71bdad477492fafe8d1c5956a4ac0063036f726401010a746578742f706c61696e00357b2270223a226272632d3230222c226f70223a226d696e74222c227469636b223a22646f6765222c22616d74223a2234323030227d68",
        "c0b9dd380d33ba388c69ffdeb1e6fb6a92ce7d0c71bdad477492fafe8d1c5956a4"
      ],
      "is_coinbase": false,
      "sequence": 4261412863
    }
  ],
  "vout": [
    {
      "scriptpubkey": "00147a665de7a370f4c9b372ab1fae587500a5bcbdb4",
      "scriptpubkey_asm": "OP_0 OP_PUSHBYTES_20 7a665de7a370f4c9b372ab1fae587500a5bcbdb4",
      "scriptpubkey_type": "v0_p2wpkh",
      "scriptpubkey_address": "bc1q0fn9mearwr6vnvmj4v06ukr4qzjme0d565dzcx",
      "value": 294
    }
  ],
  "size": 294,
  "weight": 540,
  "fee": 1512,
  "status": {
    "confirmed": true,
    "block_height": 834460,
    "block_hash": "00000000000000000000484a79b643b2524bbce82e5d8a442013fa5b8905ed98",
    "block_time": 1710307468
  },
  "hex": "02000000000101643321469295d0c73f0634e20c357937dd113ace04293f2a58cb9a8600bac3ac7e00000000fffffffd0126010000000000001600147a665de7a370f4c9b372ab1fae587500a5bcbdb40340b1fe07ff68ab21d7e2dd8991b025e31fd49bf21758cfd9f90db906daaac042443fd697b4450f6353c38aca35674cc34e3a9db9493d5d94f155c15c591cd639c96d20b9dd380d33ba388c69ffdeb1e6fb6a92ce7d0c71bdad477492fafe8d1c5956a4ac0063036f726401010a746578742f706c61696e00357b2270223a226272632d3230222c226f70223a226d696e74222c227469636b223a22646f6765222c22616d74223a2234323030227d6821c0b9dd380d33ba388c69ffdeb1e6fb6a92ce7d0c71bdad477492fafe8d1c5956a400000000"
}