{
  "txid": "2d6f6c13df79a300f8e57a927f05014e6fbe23246abe5fa353ff1f7909319c7d",
  "version": 2,
  "locktime": 834637,
  "vin": [
    {
      "txid": "28c7ed0fd339aaa589d9922671405fc4ea565897b000f51e34933770b3936192",
      "vout": 7,
      "prevout": {
        "scriptpubkey": "0014fc8e3999d0e840f7c3bb608e8189dfde922f329f",
        "scriptpubkey_asm": "OP_0 OP_PUSHBYTES_20 fc8e3999d0e840f7c3bb608e8189dfde922f329f",
        "scriptpubkey_type": "v0_p2wpkh",
        "scriptpubkey_address": "bc1qlj8rnxwsapq00samvz8grzwlm6fz7v5l08sqzl",
        "value": 12004663
      },
      "scriptsig": "",
      "scriptsig_asm": "",
      "witness": [
        "304402201ce6c44ba81fbcff322c7bebef581281a3ca08094b623e7ee7ed1043016a547902201d83bcabc2a49eaf61b636f93229e8e1af3a11c0a13a00fdd8bdb0a53d8c633c01",
        "024a34ebc3880717daeeafc0a0998f834bc651145fbf604e6932861c29a4e24f72"
      ],
      "is_coinbase": false,
      "sequence": 4294967293
    }
  ],
  "vout": [
    {
      "scriptpubkey": "0014476abfb430d7a28be51e6e074f50897a5402a426",
      "scriptpubkey_asm": "OP_0 OP_PUSHBYTES_20 476abfb430d7a28be51e6e074f50897a5402a426",
      "scriptpubkey_type": "v0_p2wpkh",
      "scriptpubkey_address": "bc1qga4tldps673gheg7dcr575yf0f2q9fpx2xwagw",
      "value": 13215
    },
    {
      "scriptpubkey": "0014b550ac261a2d4f9a86b5d562c675b3c5c0e0461d",
      "scriptpubkey_asm": "OP_0 OP_PUSHBYTES_20 b550ac261a2d4f9a86b5d562c675b3c5c0e0461d",
      "scriptpubkey_type": "v0_p2wpkh",
      "scriptpubkey_address": "bc1qk4g2cfs6948e4p44643vvadnchqwq3saa8h8c6",
      "value": 16530
    },
    {
      "scriptpubkey": "0014adb8327adc48c411e1c8822a51b843613e9b5738",
      "scriptpubkey_asm": "OP_0 OP_PUSHBYTES_20 adb8327adc48c411e1c8822a51b843613e9b5738",
      "scriptpubkey_type": "v0_p2wpkh",
      "scriptpubkey_address": "bc1q4kury7kufrzprcwgsg49rwzrvylfk4eckyxwu8",
      "value": 17997
    },
    {
      "scriptpubkey": "00147caa55b0916c67188a45c858696a9940f59fdf6c",
      "scriptpubkey_asm": "OP_0 OP_PUSHBYTES_20 7caa55b0916c67188a45c858696a9940f59fdf6c",
      "scriptpubkey_type": "v0_p2wpkh",
      "scriptpubkey_address": "bc1q0j49tvy3d3n33zj9epvxj65egr6elhmvuc0njn",
      "value": 29565
    },
    {
      "scriptpubkey": "0014e0649feb5e37a9f453001b3d9e43589790dd7cdd",
      "scriptpubkey_asm": "OP_0 OP_PUSHBYTES_20 e0649feb5e37a9f453001b3d9e43589790dd7cdd",
      "scriptpubkey_type": "v0_p2wpkh",
      "scriptpubkey_address": "bc1qupjfl667x75lg5cqrv7eus6cj7gd6lxa8hk3st",
      "value": 61091
    },
    {
      "scriptpubkey": "00144cb188b90466b64ef2002084fb80a50b4194352f",
      "scriptpubkey_asm": "OP_0 OP_PUSHBYTES_20 4cb188b90466b64ef2002084fb80a50b4194352f",
      "scriptpubkey_type": "v0_p2wpkh",
      "scriptpubkey_address": "bc1qfjcc3wgyv6myausqyzz0hq99pdqegdf0v7k0ru",
      "value": 72728
    },
    {
      "scriptpubkey": "0014964a57584ba57416fcf98f1e6e561d7f7edef99e",
      "scriptpubkey_asm": "OP_0 OP_PUSHBYTES_20 964a57584ba57416fcf98f1e6e561d7f7edef99e",
      "scriptpubkey_type": "v0_p2wpkh",
      "scriptpubkey_address": "bc1qje99wkzt546pdl8e3u0xu4sa0alda7v78r8ge2",
      "value": 284181
    },
    {
      "scriptpubkey": "001408620e2e09488959f6a21dbfd29cc821b1679ce2",
      "scriptpubkey_asm": "OP_0 OP_PUSHBYTES_20 08620e2e09488959f6a21dbfd29cc821b1679ce2",
      "scriptpubkey_type": "v0_p2wpkh",
      "scriptpubkey_address": "bc1qpp3qutsffzy4na4zrkla98xgyxck088z6ug3my",
      "value": 11504124
    }
  ],
  "size": 408,
  "weight": 1305,
  "fee": 5232,
  "status": {
    "confirmed": true,
    "block_height": 834638,
    "block_hash": "000000000000000000025f742c626208ac87e0b7d15054abb4a19ca2d735a54e",
    "block_time": 1710405325
  },
  "hex": "02000000000101926193b3703793341ef500b0975856eac45f40712692d989a5aa39d30fedc7280700000000fdffffff089f33000000000000160014476abfb430d7a28be51e6e074f50897a5402a4269240000000000000160014b550ac261a2d4f9a86b5d562c675b3c5c0e0461d4d46000000000000160014adb8327adc48c411e1c8822a51b843613e9b57387d730000000000001600147caa55b0916c67188a45c858696a9940f59fdf6ca3ee000000000000160014e0649feb5e37a9f453001b3d9e43589790dd7cdd181c0100000000001600144cb188b90466b64ef2002084fb80a50b4194352f1556040000000000160014964a57584ba57416fcf98f1e6e561d7f7edef99efc89af000000000016001408620e2e09488959f6a21dbfd29cc821b1679ce20247304402201ce6c44ba81fbcff322c7bebef581281a3ca08094b623e7ee7ed1043016a547902201d83bcabc2a49eaf61b636f93229e8e1af3a11c0a13a00fdd8bdb0a53d8c633c0121024a34ebc3880717daeeafc0a0998f834bc651145fbf604e6932861c29a4e24f724dbc0c00"
}