{
  "txid": "2d80bd690255210e0a0be1589f928838dcde966dc43fa70d1354723780bfbd17",
  "version": 2,
  "locktime": 0,
  "vin": [
    {
      "txid": "e786fefd891edceda7dab8ff89a744d83e78780b530a5d02f83588cce84b7f49",
      "vout": 0,
      "prevout": {
        "scriptpubkey": "0014e706ae8872da3e33224769cc49a726d4b2a343f5",
        "scriptpubkey_asm": "OP_0 OP_PUSHBYTES_20 e706ae8872da3e33224769cc49a726d4b2a343f5",
        "scriptpubkey_type": "v0_p2wpkh",
        "scriptpubkey_address": "bc1quur2azrjmglrxgj8d8xynfex6je2xsl4prednh",
        "value": 547
      },
      "scriptsig": "",
      "scriptsig_asm": "",
      "witness": [
        "3045022100b1f0a5bde371bda18b9dc6beaaa5aea605410d8bb534d8fa78b6f4c3aa450d5a02201842db4526f918cbe6ce76af6d5cd66695268704c8f2f710ad7155e7663f498181",
        "021285c40845c5edc476281caedae302545af948287f92a8429ec80d20f970f98f"
      ],
      "is_coinbase": false,
      "sequence": 4294967293
    },
    {
      "txid": "665e701e426304253cb6c6c0e18a892857b2889daf06067ebbdbf6ecc367cf48",
      "vout": 1,
      "prevout": {
        "scriptpubkey": "0014bf161f71a107f46c4cfbe3e01f2fa6797019f6b6",
        "scriptpubkey_asm": "OP_0 OP_PUSHBYTES_20 bf161f71a107f46c4cfbe3e01f2fa6797019f6b6",
        "scriptpubkey_type": "v0_p2wpkh",
        "scriptpubkey_address": "bc1qhutp7udpql6xcn8mu0sp7tax09cpna4kwk7pss",
        "value": 12052629
      },
      "scriptsig": "",
      "scriptsig_asm": "",
      "witness": [
        "30440220351e0984811045af06e0e038b38026bb358042f826a2ef3874951f935496708202202fc6fe2914ebd7b24b87e2ae41bf25b1a3aac9cec3bbae8576663f5399d4adc801",
        "03785d4b119cf943ed5a643d250bbce8d4b1e9616d7cd53d4266bb9f101b3c6ee9"
      ],
      "is_coinbase": false,
      "sequence": 4294967293
    }
  ],
  "vout": [
    {
      "scriptpubkey": "0014e7687b6b0661cd1d39da938d23003c598bfa7b5f",
      "scriptpubkey_asm": "OP_0 OP_PUSHBYTES_20 e7687b6b0661cd1d39da938d23003c598bfa7b5f",
      "scriptpubkey_type": "v0_p2wpkh",
      "scriptpubkey_address": "bc1qua58k6cxv8x36ww6jwxjxqputx9l576l24sqxv",
      "value": 12036000
    },
    {
      "scriptpubkey": "5121025862f62f532fd9782b9dd2d42b9a8fdb4fd9f7835e0d6b524261205356051d682102e55206f508fd3664668b059ff362bfab898794ad0d24210ebb9a4a71f073bc3c2102020202020202020202020202020202020202020202020202020202020202020253ae",
      "scriptpubkey_asm": "OP_PUSHNUM_1 OP_PUSHBYTES_33 025862f62f532fd9782b9dd2d42b9a8fdb4fd9f7835e0d6b524261205356051d68 OP_PUSHBYTES_33 02e55206f508fd3664668b059ff362bfab898794ad0d24210ebb9a4a71f073bc3c OP_PUSHBYTES_33 020202020202020202020202020202020202020202020202020202020202020202 OP_PUSHNUM_3 OP_CHECKMULTISIG",
      "scriptpubkey_type": "unknown",
      "value": 796
    },
    {
      "scriptpubkey": "512102c864bc55461e62581417b68110637cb05249b164454881a0c97022894c3b69862102dc6fbff756c0036bdb9abf084d1c976ad0407d7d27727810ff23f7716de23ba62103333333333333333333333333333333333333333333333333333333333333333353ae",
      "scriptpubkey_asm": "OP_PUSHNUM_1 OP_PUSHBYTES_33 02c864bc55461e62581417b68110637cb05249b164454881a0c97022894c3b6986 OP_PUSHBYTES_33 02dc6fbff756c0036bdb9abf084d1c976ad0407d7d27727810ff23f7716de23ba6 OP_PUSHBYTES_33 033333333333333333333333333333333333333333333333333333333333333333 OP_PUSHNUM_3 OP_CHECKMULTISIG",
      "scriptpubkey_type": "unknown",
      "value": 796
    },
    {
      "scriptpubkey": "0014e706ae8872da3e33224769cc49a726d4b2a343f5",
      "scriptpubkey_asm": "OP_0 OP_PUSHBYTES_20 e706ae8872da3e33224769cc49a726d4b2a343f5",
      "scriptpubkey_type": "v0_p2wpkh",
      "scriptpubkey_address": "bc1quur2azrjmglrxgj8d8xynfex6je2xsl4prednh",
      "value": 547
    }
  ],
  "size": 599,
  "weight": 1745,
  "fee": 15037,
  "status": {
    "confirmed": true,
    "block_height": 834638,
    "block_hash": "000000000000000000025f742c626208ac87e0b7d15054abb4a19ca2d735a54e",
    "block_time": 1710405325
  },
  "hex": "02000000000102497f4be8cc8835f8025d0a530b78783ed844a789ffb8daa7eddc1e89fdfe86e70000000000fdffffff48cf67c3ecf6dbbb7e0606af9d88b25728898ae1c0c6b63c250463421e705e660100000000fdffffff04a0a7b70000000000160014e7687b6b0661cd1d39da938d23003c598bfa7b5f1c03000000000000695121025862f62f532fd9782b9dd2d42b9a8fdb4fd9f7835e0d6b524261205356051d682102e55206f508fd3664668b059ff362bfab898794ad0d24210ebb9a4a71f073bc3c2102020202020202020202020202020202020202020202020202020202020202020253ae1c0300000000000069512102c864bc55461e62581417b68110637cb05249b164454881a0c97022894c3b69862102dc6fbff756c0036bdb9abf084d1c976ad0407d7d27727810ff23f7716de23ba62103333333333333333333333333333333333333333333333333333333333333333353ae2302000000000000160014e706ae8872da3e33224769cc49a726d4b2a343f502483045022100b1f0a5bde371bda18b9dc6beaaa5aea605410d8bb534d8fa78b6f4c3aa450d5a02201842db4526f918cbe6ce76af6d5cd66695268704c8f2f710ad7155e7663f49818121021285c40845c5edc476281caedae302545af948287f92a8429ec80d20f970f98f024730440220351e0984811045af06e0e038b38026bb358042f826a2ef3874951f935496708202202fc6fe2914ebd7b24b87e2ae41bf25b1a3aac9cec3bbae8576663f5399d4adc8012103785d4b119cf943ed5a643d250bbce8d4b1e9616d7cd53d4266bb9f101b3c6ee900000000"
}