{
  "txid": "2d8392894196e39908eca31f2948247aea2441db010d4933a80a9b232a7b115a",
  "version": 2,
  "locktime": 0,
  "vin": [
    {
      "txid": "274234f6ff1e5a158c4ae56f90cc3df20adfc37375d842b02e73464eb6b83229",
      "vout": 0,
      "prevout": {
        "scriptpubkey": "76a91425bad3f154d5063536e3adfc6c6280c365f64ce788ac",
        "scriptpubkey_asm": "OP_DUP OP_HASH160 OP_PUSHBYTES_20 25bad3f154d5063536e3adfc6c6280c365f64ce7 OP_EQUALVERIFY OP_CHECKSIG",
        "scriptpubkey_type": "p2pkh",
        "scriptpubkey_address": "14SVp8RALcn7LktBqektG3bxMXhs2GwHkw",
        "value": 8000
      },
      "scriptsig": "47304402201b9d0a5d026cc39000e74d3bb6ffe3416f17904cdb5868f11553da716fc9371c02207c4a497da011934462885c61c3acbd5cc18a9cc824dd38614c870d17335967fd012102a302ba154fc65d290707f096124a5145f03c6f3a3d9ec41f20bf1f675bcf3fb0",
      "scriptsig_asm": "OP_PUSHBYTES_71 304402201b9d0a5d026cc39000e74d3bb6ffe3416f17904cdb5868f11553da716fc9371c02207c4a497da011934462885c61c3acbd5cc18a9cc824dd38614c870d17335967fd01 OP_PUSHBYTES_33 02a302ba154fc65d290707f096124a5145f03c6f3a3d9ec41f20bf1f675bcf3fb0",
      "is_coinbase": false,
      "sequence": 4294967293
    }
  ],
  "vout": [
    {
      "scriptpubkey": "001436cb77195fd68288c8734612045a863980874221",
      "scriptpubkey_asm": "OP_0 OP_PUSHBYTES_20 36cb77195fd68288c8734612045a863980874221",
      "scriptpubkey_type": "v0_p2wpkh",
      "scriptpubkey_address": "bc1qxm9hwx2l66pg3jrngcfqgk5x8xqgws3pfrkkg3",
      "value": 900
    },
    {
      "scriptpubkey": "76a91425bad3f154d5063536e3adfc6c6280c365f64ce788ac",
      "scriptpubkey_asm": "OP_DUP OP_HASH160 OP_PUSHBYTES_20 25bad3f154d5063536e3adfc6c6280c365f64ce7 OP_EQUALVERIFY OP_CHECKSIG",
      "scriptpubkey_type": "p2pkh",
      "scriptpubkey_address": "14SVp8RALcn7LktBqektG3bxMXhs2GwHkw",
      "value": 606
    }
  ],
  "size": 222,
  "weight": 888,
  "fee": 6494,
  "status": {
    "confirmed": true,
    "block_height": 834638,
    "block_hash": "000000000000000000025f742c626208ac87e0b7d15054abb4a19ca2d735a54e",
    "block_time": 1710405325
  },
  "hex": "02000000012932b8b64e46732eb042d87573c3df0af23dcc906fe54a8c155a1efff6344227000000006a47304402201b9d0a5d026cc39000e74d3bb6ffe3416f17904cdb5868f11553da716fc9371c02207c4a497da011934462885c61c3acbd5cc18a9cc824dd38614c870d17335967fd012102a302ba154fc65d290707f096124a5145f03c6f3a3d9ec41f20bf1f675bcf3fb0fdffffff02840300000000000016001436cb77195fd68288c8734612045a8639808742215e020000000000001976a91425bad3f154d5063536e3adfc6c6280c365f64ce788ac00000000"
}