{
  "txid": "2d8fa3fbd052969fa8259eabde5bd22738943c006a9e1218ed697896fb545488",
  "version": 1,
  "locktime": 0,
  "vin": [
    {
      "txid": "040001df84b89203f7c9b34b58bf7c65e1920d86b67d12c83ba7410e2cadfff7",
      "vout": 159,
      "prevout": {
        "scriptpubkey": "001484b1e3daf782f69eba723057a7790b928b17de8b",
        "scriptpubkey_asm": "OP_0 OP_PUSHBYTES_20 84b1e3daf782f69eba723057a7790b928b17de8b",
        "scriptpubkey_type": "v0_p2wpkh",
        "scriptpubkey_address": "bc1qsjc78khhstmfawnjxpt6w7gtj2930h5tkcp8z2",
        "value": 1015927
      },
      "scriptsig": "",
      "scriptsig_asm": "",
      "witness": [
        "304402204201dccf81d5b3d53ba219f9bd70d225ec73a760eab0c5b58b8b89a3a848697302207e76702e9a69298593f8e8893867e014ac38353dff217b3b0948ce9771a9103701",
        "021d7e87f263a2aae0665c2b03c110fe44095cb363fae13c2fd17d438b236c6951"
      ],
      "is_coinbase": false,
      "sequence": 4294967295
    }
  ],
  "vout": [
    {
      "scriptpubkey": "a914e2c29d25c27fbac270b774af9b1395d558580c4587",
      "scriptpubkey_asm": "OP_HASH160 OP_PUSHBYTES_20 e2c29d25c27fbac270b774af9b1395d558580c45 OP_EQUAL",
      "scriptpubkey_type": "p2sh",
      "scriptpubkey_address": "3NN1muTgKD17Mcm2jBsnLXKPjLiB6HV9Bm",
      "value": 1013496
    }
  ],
  "size": 192,
  "weight": 441,
  "fee": 2431,
  "status": {
    "confirmed": true,
    "block_height": 834460,
    "block_hash": "00000000000000000000484a79b643b2524bbce82e5d8a442013fa5b8905ed98",
    "block_time": 1710307468
  },
  "hex": "01000000000101f7ffad2c0e41a73bc8127db6860d92e1657cbf584bb3c9f70392b884df0100049f00000000ffffffff01f8760f000000000017a914e2c29d25c27fbac270b774af9b1395d558580c45870247304402204201dccf81d5b3d53ba219f9bd70d225ec73a760eab0c5b58b8b89a3a848697302207e76702e9a69298593f8e8893867e014ac38353dff217b3b0948ce9771a910370121021d7e87f263a2aae0665c2b03c110fe44095cb363fae13c2fd17d438b236c695100000000"
}