{
  "txid": "2dade2b3345262bf1acca853438039d2bc114e9f65b3105cc2255a29a912c9cc",
  "version": 2,
  "locktime": 0,
  "vin": [
    {
      "txid": "7a2c379f1fae7453f3f7bdec5570b6f53ec5d863f4f3ace990ec72ad9799521c",
      "vout": 25,
      "prevout": {
        "scriptpubkey": "0014bf5304e9a24f4a32c83763cb954dddf2edfbcfc9",
        "scriptpubkey_asm": "OP_0 OP_PUSHBYTES_20 bf5304e9a24f4a32c83763cb954dddf2edfbcfc9",
        "scriptpubkey_type": "v0_p2wpkh",
        "scriptpubkey_address": "bc1qhafsf6dzfa9r9jphv09e2nwa7tklhn7f77wasy",
        "value": 138000
      },
      "scriptsig": "",
      "scriptsig_asm": "",
      "witness": [
        "3045022100e8924e3428cef2da603c3a9f1fc7dd755753b0446fd1323f9c6a5d797f80be5c02206531aeef9e85693481205859b43acb9b2b153dc2fd8d536b60762e89fc2d8e0c01",
        "02a9bb43cdd59dc72c008053e9b21bae45cdcfdd1cb86c5e4cd27420bd9bbff29c"
      ],
      "is_coinbase": false,
      "sequence": 4294967293
    }
  ],
  "vout": [
    {
      "scriptpubkey": "76a914af6bb39e4682646278b3c8b133fa1c32be2a725288ac",
      "scriptpubkey_asm": "OP_DUP OP_HASH160 OP_PUSHBYTES_20 af6bb39e4682646278b3c8b133fa1c32be2a7252 OP_EQUALVERIFY OP_CHECKSIG",
      "scriptpubkey_type": "p2pkh",
      "scriptpubkey_address": "1GzYGp3KDwNuWvSSiFBz3wS6hVkyCctZRn",
      "value": 136780
    }
  ],
  "size": 195,
  "weight": 450,
  "fee": 1220,
  "status": {
    "confirmed": true,
    "block_height": 834464,
    "block_hash": "0000000000000000000177a0869a911a2b65c9bdcd5a8bcb02b68f305bee848e",
    "block_time": 1710308296
  },
  "hex": "020000000001011c529997ad72ec90e9acf3f463d8c53ef5b67055ecbdf7f35374ae1f9f372c7a1900000000fdffffff014c160200000000001976a914af6bb39e4682646278b3c8b133fa1c32be2a725288ac02483045022100e8924e3428cef2da603c3a9f1fc7dd755753b0446fd1323f9c6a5d797f80be5c02206531aeef9e85693481205859b43acb9b2b153dc2fd8d536b60762e89fc2d8e0c012102a9bb43cdd59dc72c008053e9b21bae45cdcfdd1cb86c5e4cd27420bd9bbff29c00000000"
}