{
  "txid": "2db51fe88dd9fd0da2fcffdfa68efa49e9fbf9828bfb40f65b23f4b155bbadf0",
  "version": 1,
  "locktime": 0,
  "vin": [
    {
      "txid": "784d454e73137ff2fe6a6a1afcdd783bc390a7f3b312ffa55af8797685d355af",
      "vout": 1,
      "prevout": {
        "scriptpubkey": "001459b0e63f7775139c9f6256ec398ac59a5bf293e5",
        "scriptpubkey_asm": "OP_0 OP_PUSHBYTES_20 59b0e63f7775139c9f6256ec398ac59a5bf293e5",
        "scriptpubkey_type": "v0_p2wpkh",
        "scriptpubkey_address": "bc1qtxcwv0mhw5fee8mz2mkrnzk9nfdl9yl9c5yxuf",
        "value": 794585
      },
      "scriptsig": "",
      "scriptsig_asm": "",
      "witness": [
        "30440220066579ee0cd1fc9f6d311974c92be3d0339d6a52812b41b643b0a1720365365a02201d5c40d029d34c82927570aafedffae1a3d60aa0f9e318b2693ad2c249183c2801",
        "021725584653a222259b0420f7dfbb3c9f6f5235752d7bc931a1639682db9b0ed7"
      ],
      "is_coinbase": false,
      "sequence": 4294967295
    }
  ],
  "vout": [
    {
      "scriptpubkey": "001459160f8583d0f5d77196b8486240673696d171ab",
      "scriptpubkey_asm": "OP_0 OP_PUSHBYTES_20 59160f8583d0f5d77196b8486240673696d171ab",
      "scriptpubkey_type": "v0_p2wpkh",
      "scriptpubkey_address": "bc1qtytqlpvr6r6awuvkhpyxysr8x6tdzudt2m6g8a",
      "value": 694110
    },
    {
      "scriptpubkey": "0014b32487c7eeb6a9367fb13e710164d43791cd7b7b",
      "scriptpubkey_asm": "OP_0 OP_PUSHBYTES_20 b32487c7eeb6a9367fb13e710164d43791cd7b7b",
      "scriptpubkey_type": "v0_p2wpkh",
      "scriptpubkey_address": "bc1qkvjg03lwk65nvla38ecszex5x7gu67mm28u0pp",
      "value": 98378
    }
  ],
  "size": 222,
  "weight": 561,
  "fee": 2097,
  "status": {
    "confirmed": true,
    "block_height": 834638,
    "block_hash": "000000000000000000025f742c626208ac87e0b7d15054abb4a19ca2d735a54e",
    "block_time": 1710405325
  },
  "hex": "01000000000101af55d3857679f85aa5ff12b3f3a790c33b78ddfc1a6a6afef27f13734e454d780100000000ffffffff025e970a000000000016001459160f8583d0f5d77196b8486240673696d171ab4a80010000000000160014b32487c7eeb6a9367fb13e710164d43791cd7b7b024730440220066579ee0cd1fc9f6d311974c92be3d0339d6a52812b41b643b0a1720365365a02201d5c40d029d34c82927570aafedffae1a3d60aa0f9e318b2693ad2c249183c280121021725584653a222259b0420f7dfbb3c9f6f5235752d7bc931a1639682db9b0ed700000000"
}