{
  "txid": "2dc5eed30f50d2283a009e59dd7831bf3e5dcdf5a03f543abb16a3eb35a83129",
  "version": 2,
  "locktime": 0,
  "vin": [
    {
      "txid": "b2c1b4e0f1bd632786e2224322bfb173c28200fb6e64644f401dee6113b09b7c",
      "vout": 0,
      "prevout": {
        "scriptpubkey": "5120673caf343014bce43b57f1e9bc64c280209a64d72402d9a5c6fea4f91d6d9c44",
        "scriptpubkey_asm": "OP_PUSHNUM_1 OP_PUSHBYTES_32 673caf343014bce43b57f1e9bc64c280209a64d72402d9a5c6fea4f91d6d9c44",
        "scriptpubkey_type": "v1_p2tr",
        "scriptpubkey_address": "bc1pvu727dpszj7wgw6h785mcexzsqsf5exhyspdnfwxl6j0j8tdn3zqqc498r",
        "value": 600
      },
      "scriptsig": "",
      "scriptsig_asm": "",
      "witness": [
        "4eece6e2bc683797baa583e36dba7d82d21eccdcc5ca68e40be2ff2480901d83f8a3905a09666dce1ae953690f657946b7f806363cc903c46a9e1781832ecec2"
      ],
      "is_coinbase": false,
      "sequence": 4294967295
    },
    {
      "txid": "b2c1b4e0f1bd632786e2224322bfb173c28200fb6e64644f401dee6113b09b7c",
      "vout": 1,
      "prevout": {
        "scriptpubkey": "5120673caf343014bce43b57f1e9bc64c280209a64d72402d9a5c6fea4f91d6d9c44",
        "scriptpubkey_asm": "OP_PUSHNUM_1 OP_PUSHBYTES_32 673caf343014bce43b57f1e9bc64c280209a64d72402d9a5c6fea4f91d6d9c44",
        "scriptpubkey_type": "v1_p2tr",
        "scriptpubkey_address": "bc1pvu727dpszj7wgw6h785mcexzsqsf5exhyspdnfwxl6j0j8tdn3zqqc498r",
        "value": 600
      },
      "scriptsig": "",
      "scriptsig_asm": "",
      "witness": [
        "bc913a3f3748de1464985f7c4e5166d8ed37928f9878027b87c79ba3b3cf0550721f4e42264d9d0fa328a733f81dea7bb5a6e58c8462c5f34174c0b4a764974b"
      ],
      "is_coinbase": false,
      "sequence": 4294967295
    },
    {
      "txid": "b2c1b4e0f1bd632786e2224322bfb173c28200fb6e64644f401dee6113b09b7c",
      "vout": 2,
      "prevout": {
        "scriptpubkey": "5120673caf343014bce43b57f1e9bc64c280209a64d72402d9a5c6fea4f91d6d9c44",
        "scriptpubkey_asm": "OP_PUSHNUM_1 OP_PUSHBYTES_32 673caf343014bce43b57f1e9bc64c280209a64d72402d9a5c6fea4f91d6d9c44",
        "scriptpubkey_type": "v1_p2tr",
        "scriptpubkey_address": "bc1pvu727dpszj7wgw6h785mcexzsqsf5exhyspdnfwxl6j0j8tdn3zqqc498r",
        "value": 600
      },
      "scriptsig": "",
      "scriptsig_asm": "",
      "witness": [
        "35d47306f827fa8a16b982283b8733a6ebb44eb516e069811425a8201fb06f5ab0258c8dd3d66c18a750ed3db08bbd0280731eeb73b64105182adb8aa5ab65e6"
      ],
      "is_coinbase": false,
      "sequence": 4294967295
    },
    {
      "txid": "b2c1b4e0f1bd632786e2224322bfb173c28200fb6e64644f401dee6113b09b7c",
      "vout": 3,
      "prevout": {
        "scriptpubkey": "5120673caf343014bce43b57f1e9bc64c280209a64d72402d9a5c6fea4f91d6d9c44",
        "scriptpubkey_asm": "OP_PUSHNUM_1 OP_PUSHBYTES_32 673caf343014bce43b57f1e9bc64c280209a64d72402d9a5c6fea4f91d6d9c44",
        "scriptpubkey_type": "v1_p2tr",
        "scriptpubkey_address": "bc1pvu727dpszj7wgw6h785mcexzsqsf5exhyspdnfwxl6j0j8tdn3zqqc498r",
        "value": 600
      },
      "scriptsig": "",
      "scriptsig_asm": "",
      "witness": [
        "90f67dad77afee9b040f8eacc82418bd562c347df1cc3ba29fe1e4986495d7ac4a64f140759ae80b6ff63bf29e77ee92b372751a2f8f2da95823a31284457649"
      ],
      "is_coinbase": false,
      "sequence": 4294967295
    },
    {
      "txid": "6dc40219297df370eb7dfc30e258bb745d6229cea7904a0239f1ecd631bbd333",
      "vout": 4,
      "prevout": {
        "scriptpubkey": "51202e044c07ea76fceaa3cedb1fe61fd0127ad289d00444eebb854910cfcabcc306",
        "scriptpubkey_asm": "OP_PUSHNUM_1 OP_PUSHBYTES_32 2e044c07ea76fceaa3cedb1fe61fd0127ad289d00444eebb854910cfcabcc306",
        "scriptpubkey_type": "v1_p2tr",
        "scriptpubkey_address": "bc1p9czycpl2wm7w4g7wmv07v87szfad9zwsq3zwawu9fygvlj4ucvrqaq20wk",
        "value": 546
      },
      "scriptsig": "",
      "scriptsig_asm": "",
      "witness": [
        "2ce8034617f93de2d67c5765252f30b1e1b4b25dfac7726492b5a71f343b1e33f9caffd40d0e806a88bb96ae154aae78233d36de3154efeeb25bb4d1e3e9dc4883"
      ],
      "is_coinbase": false,
      "sequence": 4294967295
    },
    {
      "txid": "6dc40219297df370eb7dfc30e258bb745d6229cea7904a0239f1ecd631bbd333",
      "vout": 5,
      "prevout": {
        "scriptpubkey": "51202e044c07ea76fceaa3cedb1fe61fd0127ad289d00444eebb854910cfcabcc306",
        "scriptpubkey_asm": "OP_PUSHNUM_1 OP_PUSHBYTES_32 2e044c07ea76fceaa3cedb1fe61fd0127ad289d00444eebb854910cfcabcc306",
        "scriptpubkey_type": "v1_p2tr",
        "scriptpubkey_address": "bc1p9czycpl2wm7w4g7wmv07v87szfad9zwsq3zwawu9fygvlj4ucvrqaq20wk",
        "value": 546
      },
      "scriptsig": "",
      "scriptsig_asm": "",
      "witness": [
        "5ca7eed691d3f731b05baf03500e7bf82f1dcb089a8805c48e1f50a6cb8aaf65acdd0b178a103e1c80451329014f1316eeb6c4b6c392facc923394769232412283"
      ],
      "is_coinbase": false,
      "sequence": 4294967295
    },
    {
      "txid": "6dc40219297df370eb7dfc30e258bb745d6229cea7904a0239f1ecd631bbd333",
      "vout": 6,
      "prevout": {
        "scriptpubkey": "51202e044c07ea76fceaa3cedb1fe61fd0127ad289d00444eebb854910cfcabcc306",
        "scriptpubkey_asm": "OP_PUSHNUM_1 OP_PUSHBYTES_32 2e044c07ea76fceaa3cedb1fe61fd0127ad289d00444eebb854910cfcabcc306",
        "scriptpubkey_type": "v1_p2tr",
        "scriptpubkey_address": "bc1p9czycpl2wm7w4g7wmv07v87szfad9zwsq3zwawu9fygvlj4ucvrqaq20wk",
        "value": 546
      },
      "scriptsig": "",
      "scriptsig_asm": "",
      "witness": [
        "75fe9a43f29e2cd996e210922a29463724abe71fa04f0c80a98a74171556e894b6d89b6e5f1f0845447ac8dbdfca06f2446bde7af57b2a928bbb38839bac2e4183"
      ],
      "is_coinbase": false,
      "sequence": 4294967295
    },
    {
      "txid": "0bea2d0ea0ff544881c4a052ee06859200ceaa4c05388baf042d685e47597bf6",
      "vout": 2,
      "prevout": {
        "scriptpubkey": "5120673caf343014bce43b57f1e9bc64c280209a64d72402d9a5c6fea4f91d6d9c44",
        "scriptpubkey_asm": "OP_PUSHNUM_1 OP_PUSHBYTES_32 673caf343014bce43b57f1e9bc64c280209a64d72402d9a5c6fea4f91d6d9c44",
        "scriptpubkey_type": "v1_p2tr",
        "scriptpubkey_address": "bc1pvu727dpszj7wgw6h785mcexzsqsf5exhyspdnfwxl6j0j8tdn3zqqc498r",
        "value": 46337
      },
      "scriptsig": "",
      "scriptsig_asm": "",
      "witness": [
        "dc861a4af69305fe75ee7e2feb68fc1db94ebb9558e50ebd1bec42a330251301d103b8af891f882b61c80dbede30817dbd5775edef021e2a02df6fc31e0637fd"
      ],
      "is_coinbase": false,
      "sequence": 4294967295
    },
    {
      "txid": "b2c1b4e0f1bd632786e2224322bfb173c28200fb6e64644f401dee6113b09b7c",
      "vout": 10,
      "prevout": {
        "scriptpubkey": "5120673caf343014bce43b57f1e9bc64c280209a64d72402d9a5c6fea4f91d6d9c44",
        "scriptpubkey_asm": "OP_PUSHNUM_1 OP_PUSHBYTES_32 673caf343014bce43b57f1e9bc64c280209a64d72402d9a5c6fea4f91d6d9c44",
        "scriptpubkey_type": "v1_p2tr",
        "scriptpubkey_address": "bc1pvu727dpszj7wgw6h785mcexzsqsf5exhyspdnfwxl6j0j8tdn3zqqc498r",
        "value": 42264
      },
      "scriptsig": "",
      "scriptsig_asm": "",
      "witness": [
        "ec1cb8d1248ae0e494c24e06b8a49f6e939efb470d7a659a7ef84a8400e355400ea4a08f2d0dd8329bd2140c746baf164275e54f25e4a2e5663f19c1a620cfc6"
      ],
      "is_coinbase": false,
      "sequence": 4294967295
    }
  ],
  "vout": [
    {
      "scriptpubkey": "5120673caf343014bce43b57f1e9bc64c280209a64d72402d9a5c6fea4f91d6d9c44",
      "scriptpubkey_asm": "OP_PUSHNUM_1 OP_PUSHBYTES_32 673caf343014bce43b57f1e9bc64c280209a64d72402d9a5c6fea4f91d6d9c44",
      "scriptpubkey_type": "v1_p2tr",
      "scriptpubkey_address": "bc1pvu727dpszj7wgw6h785mcexzsqsf5exhyspdnfwxl6j0j8tdn3zqqc498r",
      "value": 2400
    },
    {
      "scriptpubkey": "5120673caf343014bce43b57f1e9bc64c280209a64d72402d9a5c6fea4f91d6d9c44",
      "scriptpubkey_asm": "OP_PUSHNUM_1 OP_PUSHBYTES_32 673caf343014bce43b57f1e9bc64c280209a64d72402d9a5c6fea4f91d6d9c44",
      "scriptpubkey_type": "v1_p2tr",
      "scriptpubkey_address": "bc1pvu727dpszj7wgw6h785mcexzsqsf5exhyspdnfwxl6j0j8tdn3zqqc498r",
      "value": 546
    },
    {
      "scriptpubkey": "5120673caf343014bce43b57f1e9bc64c280209a64d72402d9a5c6fea4f91d6d9c44",
      "scriptpubkey_asm": "OP_PUSHNUM_1 OP_PUSHBYTES_32 673caf343014bce43b57f1e9bc64c280209a64d72402d9a5c6fea4f91d6d9c44",
      "scriptpubkey_type": "v1_p2tr",
      "scriptpubkey_address": "bc1pvu727dpszj7wgw6h785mcexzsqsf5exhyspdnfwxl6j0j8tdn3zqqc498r",
      "value": 546
    },
    {
      "scriptpubkey": "5120673caf343014bce43b57f1e9bc64c280209a64d72402d9a5c6fea4f91d6d9c44",
      "scriptpubkey_asm": "OP_PUSHNUM_1 OP_PUSHBYTES_32 673caf343014bce43b57f1e9bc64c280209a64d72402d9a5c6fea4f91d6d9c44",
      "scriptpubkey_type": "v1_p2tr",
      "scriptpubkey_address": "bc1pvu727dpszj7wgw6h785mcexzsqsf5exhyspdnfwxl6j0j8tdn3zqqc498r",
      "value": 546
    },
    {
      "scriptpubkey": "51202e044c07ea76fceaa3cedb1fe61fd0127ad289d00444eebb854910cfcabcc306",
      "scriptpubkey_asm": "OP_PUSHNUM_1 OP_PUSHBYTES_32 2e044c07ea76fceaa3cedb1fe61fd0127ad289d00444eebb854910cfcabcc306",
      "scriptpubkey_type": "v1_p2tr",
      "scriptpubkey_address": "bc1p9czycpl2wm7w4g7wmv07v87szfad9zwsq3zwawu9fygvlj4ucvrqaq20wk",
      "value": 12486
    },
    {
      "scriptpubkey": "51202e044c07ea76fceaa3cedb1fe61fd0127ad289d00444eebb854910cfcabcc306",
      "scriptpubkey_asm": "OP_PUSHNUM_1 OP_PUSHBYTES_32 2e044c07ea76fceaa3cedb1fe61fd0127ad289d00444eebb854910cfcabcc306",
      "scriptpubkey_type": "v1_p2tr",
      "scriptpubkey_address": "bc1p9czycpl2wm7w4g7wmv07v87szfad9zwsq3zwawu9fygvlj4ucvrqaq20wk",
      "value": 12486
    },
    {
      "scriptpubkey": "51202e044c07ea76fceaa3cedb1fe61fd0127ad289d00444eebb854910cfcabcc306",
      "scriptpubkey_asm": "OP_PUSHNUM_1 OP_PUSHBYTES_32 2e044c07ea76fceaa3cedb1fe61fd0127ad289d00444eebb854910cfcabcc306",
      "scriptpubkey_type": "v1_p2tr",
      "scriptpubkey_address": "bc1p9czycpl2wm7w4g7wmv07v87szfad9zwsq3zwawu9fygvlj4ucvrqaq20wk",
      "value": 12486
    },
    {
      "scriptpubkey": "a914ea6b832a05c6ca578baa3836f3f25553d41068a587",
      "scriptpubkey_asm": "OP_HASH160 OP_PUSHBYTES_20 ea6b832a05c6ca578baa3836f3f25553d41068a5 OP_EQUAL",
      "scriptpubkey_type": "p2sh",
      "scriptpubkey_address": "3P4WqXDbSLRhzo2H6MT6YFbvBKBDPLbVtQ",
      "value": 900
    },
    {
      "scriptpubkey": "5120673caf343014bce43b57f1e9bc64c280209a64d72402d9a5c6fea4f91d6d9c44",
      "scriptpubkey_asm": "OP_PUSHNUM_1 OP_PUSHBYTES_32 673caf343014bce43b57f1e9bc64c280209a64d72402d9a5c6fea4f91d6d9c44",
      "scriptpubkey_type": "v1_p2tr",
      "scriptpubkey_address": "bc1pvu727dpszj7wgw6h785mcexzsqsf5exhyspdnfwxl6j0j8tdn3zqqc498r",
      "value": 600
    },
    {
      "scriptpubkey": "5120673caf343014bce43b57f1e9bc64c280209a64d72402d9a5c6fea4f91d6d9c44",
      "scriptpubkey_asm": "OP_PUSHNUM_1 OP_PUSHBYTES_32 673caf343014bce43b57f1e9bc64c280209a64d72402d9a5c6fea4f91d6d9c44",
      "scriptpubkey_type": "v1_p2tr",
      "scriptpubkey_address": "bc1pvu727dpszj7wgw6h785mcexzsqsf5exhyspdnfwxl6j0j8tdn3zqqc498r",
      "value": 600
    },
    {
      "scriptpubkey": "5120673caf343014bce43b57f1e9bc64c280209a64d72402d9a5c6fea4f91d6d9c44",
      "scriptpubkey_asm": "OP_PUSHNUM_1 OP_PUSHBYTES_32 673caf343014bce43b57f1e9bc64c280209a64d72402d9a5c6fea4f91d6d9c44",
      "scriptpubkey_type": "v1_p2tr",
      "scriptpubkey_address": "bc1pvu727dpszj7wgw6h785mcexzsqsf5exhyspdnfwxl6j0j8tdn3zqqc498r",
      "value": 600
    },
    {
      "scriptpubkey": "5120673caf343014bce43b57f1e9bc64c280209a64d72402d9a5c6fea4f91d6d9c44",
      "scriptpubkey_asm": "OP_PUSHNUM_1 OP_PUSHBYTES_32 673caf343014bce43b57f1e9bc64c280209a64d72402d9a5c6fea4f91d6d9c44",
      "scriptpubkey_type": "v1_p2tr",
      "scriptpubkey_address": "bc1pvu727dpszj7wgw6h785mcexzsqsf5exhyspdnfwxl6j0j8tdn3zqqc498r",
      "value": 600
    },
    {
      "scriptpubkey": "5120673caf343014bce43b57f1e9bc64c280209a64d72402d9a5c6fea4f91d6d9c44",
      "scriptpubkey_asm": "OP_PUSHNUM_1 OP_PUSHBYTES_32 673caf343014bce43b57f1e9bc64c280209a64d72402d9a5c6fea4f91d6d9c44",
      "scriptpubkey_type": "v1_p2tr",
      "scriptpubkey_address": "bc1pvu727dpszj7wgw6h785mcexzsqsf5exhyspdnfwxl6j0j8tdn3zqqc498r",
      "value": 31658
    }
  ],
  "size": 1526,
  "weight": 4307,
  "fee": 16185,
  "status": {
    "confirmed": true,
    "block_height": 834638,
    "block_hash": "000000000000000000025f742c626208ac87e0b7d15054abb4a19ca2d735a54e",
    "block_time": 1710405325
  },
  "hex": "020000000001097c9bb01361ee1d404f64646efb0082c273b1bf224322e2862763bdf1e0b4c1b20000000000ffffffff7c9bb01361ee1d404f64646efb0082c273b1bf224322e2862763bdf1e0b4c1b20100000000ffffffff7c9bb01361ee1d404f64646efb0082c273b1bf224322e2862763bdf1e0b4c1b20200000000ffffffff7c9bb01361ee1d404f64646efb0082c273b1bf224322e2862763bdf1e0b4c1b20300000000ffffffff33d3bb31d6ecf139024a90a7ce29625d74bb58e230fc7deb70f37d291902c46d0400000000ffffffff33d3bb31d6ecf139024a90a7ce29625d74bb58e230fc7deb70f37d291902c46d0500000000ffffffff33d3bb31d6ecf139024a90a7ce29625d74bb58e230fc7deb70f37d291902c46d0600000000fffffffff67b59475e682d04af8b38054caace00928506ee52a0c4814854ffa00e2dea0b0200000000ffffffff7c9bb01361ee1d404f64646efb0082c273b1bf224322e2862763bdf1e0b4c1b20a00000000ffffffff0d6009000000000000225120673caf343014bce43b57f1e9bc64c280209a64d72402d9a5c6fea4f91d6d9c442202000000000000225120673caf343014bce43b57f1e9bc64c280209a64d72402d9a5c6fea4f91d6d9c442202000000000000225120673caf343014bce43b57f1e9bc64c280209a64d72402d9a5c6fea4f91d6d9c442202000000000000225120673caf343014bce43b57f1e9bc64c280209a64d72402d9a5c6fea4f91d6d9c44c6300000000000002251202e044c07ea76fceaa3cedb1fe61fd0127ad289d00444eebb854910cfcabcc306c6300000000000002251202e044c07ea76fceaa3cedb1fe61fd0127ad289d00444eebb854910cfcabcc306c6300000000000002251202e044c07ea76fceaa3cedb1fe61fd0127ad289d00444eebb854910cfcabcc306840300000000000017a914ea6b832a05c6ca578baa3836f3f25553d41068a5875802000000000000225120673caf343014bce43b57f1e9bc64c280209a64d72402d9a5c6fea4f91d6d9c445802000000000000225120673caf343014bce43b57f1e9bc64c280209a64d72402d9a5c6fea4f91d6d9c445802000000000000225120673caf343014bce43b57f1e9bc64c280209a64d72402d9a5c6fea4f91d6d9c445802000000000000225120673caf343014bce43b57f1e9bc64c280209a64d72402d9a5c6fea4f91d6d9c44aa7b000000000000225120673caf343014bce43b57f1e9bc64c280209a64d72402d9a5c6fea4f91d6d9c4401404eece6e2bc683797baa583e36dba7d82d21eccdcc5ca68e40be2ff2480901d83f8a3905a09666dce1ae953690f657946b7f806363cc903c46a9e1781832ecec20140bc913a3f3748de1464985f7c4e5166d8ed37928f9878027b87c79ba3b3cf0550721f4e42264d9d0fa328a733f81dea7bb5a6e58c8462c5f34174c0b4a764974b014035d47306f827fa8a16b982283b8733a6ebb44eb516e069811425a8201fb06f5ab0258c8dd3d66c18a750ed3db08bbd0280731eeb73b64105182adb8aa5ab65e6014090f67dad77afee9b040f8eacc82418bd562c347df1cc3ba29fe1e4986495d7ac4a64f140759ae80b6ff63bf29e77ee92b372751a2f8f2da95823a3128445764901412ce8034617f93de2d67c5765252f30b1e1b4b25dfac7726492b5a71f343b1e33f9caffd40d0e806a88bb96ae154aae78233d36de3154efeeb25bb4d1e3e9dc488301415ca7eed691d3f731b05baf03500e7bf82f1dcb089a8805c48e1f50a6cb8aaf65acdd0b178a103e1c80451329014f1316eeb6c4b6c392facc923394769232412283014175fe9a43f29e2cd996e210922a29463724abe71fa04f0c80a98a74171556e894b6d89b6e5f1f0845447ac8dbdfca06f2446bde7af57b2a928bbb38839bac2e41830140dc861a4af69305fe75ee7e2feb68fc1db94ebb9558e50ebd1bec42a330251301d103b8af891f882b61c80dbede30817dbd5775edef021e2a02df6fc31e0637fd0140ec1cb8d1248ae0e494c24e06b8a49f6e939efb470d7a659a7ef84a8400e355400ea4a08f2d0dd8329bd2140c746baf164275e54f25e4a2e5663f19c1a620cfc600000000"
}