{
  "txid": "2de2fa0c42cad98194644bc0d5671251abe5a6ecef4e7df8fd694864938424f6",
  "version": 2,
  "locktime": 0,
  "vin": [
    {
      "txid": "2343c9feed3aed22924eacbe9d4fc9115ed95de2f77d9c29e112f89adc112f01",
      "vout": 0,
      "prevout": {
        "scriptpubkey": "512099a216eda65bbab14b0fda0bc5ac204d6072d19eaf28bdbc0edaefc5aea9ef9a",
        "scriptpubkey_asm": "OP_PUSHNUM_1 OP_PUSHBYTES_32 99a216eda65bbab14b0fda0bc5ac204d6072d19eaf28bdbc0edaefc5aea9ef9a",
        "scriptpubkey_type": "v1_p2tr",
        "scriptpubkey_address": "bc1pnx3pdmdxtwatzjc0mg9uttpqf4s895v74u5tm0qwmthutt4fa7dqkq9s3c",
        "value": 22774
      },
      "scriptsig": "",
      "scriptsig_asm": "",
      "witness": [
        "2a512bbd684068592683d32178691fff1851cac95a5cdf72fabbee3897ef6147b0dd388a0b8c02c83e19a259552d3cbe1955784a6885ca06327ec2cfb87508c0",
        "20f2d00e1cce0b839d2e197679cac7a15152ec244338032c7767f72c1332d49a65ac0063036f726401010a696d6167652f77656270004d080252494646b80a0000574542505650384cac0a00002fffc03f00f7e138b26d257ab87b3e84c48a384980ad3be33e270db6916d2bb9b84b213441ff0d9091fd0c773d8c6adb5672ffc761fa3b1082199de941077777bbf31f0222520661cee0e242f64e787ff3d6397d31fc8d880080100804d4b4b5a35bbcad8561568b1ca77ef5be1e6712bfef83480020011001fd7f121110109d729d0f9ffbf550c72f4d2185ba7b19d3a73336041a161dc7699efc793cb61b507ace4a4ca601af0127f155fba66943cf52999b525e078a2a2299c7e0dbdaf62a9264db4a28aca8ad53bde73e498fda57d189dea1f748ebde7bb947e4fddf977e49bf84c0fabebf5f44ff27e0feffffff1f3aff35f1417bc97cc054f8f1519d8f9fa4876780c74cd121d3470f89e28367de4f1e8d974c173b457a2c540d3c26ca2f6207e643a0c4010c8a2bfdf22971088fa08ba7f8601f42ba728a0ef1aa80882edf905a136144ba66b287f43a9402115d31358288ae97a2437dca21a28ba5f8901da832b074a9640f9ef5906948d749f6d0804f5c33d943033efd180e80a58b2473f0ae4026493000861e2672b85632873610630002e93f3f640ecd61000c5d1cd943c940f5001106c0d0151a8e243fae915a41fc130c31ae90cca1705d3f029f86140c5d179943f1408588fe6881050386ae8acce16072e0d300597a94b858328706f169008b014bd765a8b2887230f894c4754d080251434836182001438f179747e67034851461000c5d0d9943833070d1b59039d4a47a08860cfe13604e4d1a1a956890a2939a7d5fc2a11514341880339b7d5f6a431207c3d0f9cceec6d0c42a3e25cdf669a860434a079f5cc23350c19753c1224fcd53c91773380fbcd438951bce49696a990a9f141e52b374190848538ea416a97c309c10d6ef66bd4b931e3fb5469ebf9de2ef34ebe57486783045d3d41665ff4e53f6c929429ad410e5fe6e727c09870b006d52ee94ff12b524e9cc48522b943979c6b2db452120413a8797e20dca7401626a813227c79743b64705d4be177300aaca3e164e10d3390c6604a82e0a28f99a4c651cabf33f08313565727c09871a8f955c15315d83fcc32457404c4de330f596c83c3bb50ca84372a1115421352db9884e0b4b3a8764079550db8844cf2331415216bf6b03c5c8d0f9700244deb991917f02a6a52c226ac4f7d2f4e40394f08fa81560fcdb493d4d7f905957fef1f0f99d2c1d0c4bdf4b3ebf82397e24b339afd00812a6270f92c217e9c6519207215525878f7ab5dba1ef353de1a24c6ee667856f11fcaa4c933965bc26b6034dc5dec53e2b967f08c7c90f8e862569e2e785246e07811fd4b4375d8c9b9363655376dadfdea4267c2f697a2af2ac2942216a891ad805a6b681614ebf94dfb36ab9391790447cce7e66f2fea8372946034890263f354c91b9a657e02d04fe26dd8f9f2269829f4d0802ffc285e691f3ccdf4f7e7a35dfc23690a62955a9c0ed5ca48927a78fb1f04dba37314d8a29870814b839ff50c7f4dd31a011a4bc9b257df3db3fccefe6cce9e9965b622287428ae0e0dd2812dca730031c6ee694d8acd753fa20692207da40b49a8f7a4d7fd3dc0828f21c23cb4c21984ee7dece12d2077bc225fa19dc80c9e3873aa63a9ea68f797343a84113f8457fe6412d54f034054a7a6b0b053e244e500a8f1fda81cbbdb55584b56051071364481e52ce5b83a0942c0a4c2e9003384c1eca91a48f925ed3ee4dae038e435c8452358abc9e4098f33e45b1f0c6943579d5e82329263be7ad65668292a414b0a6c894dd0249bfd39c9a753f8df769525234983cdb90bee8f5a49423e5b9b7c8b4deda478ab2540bf54cfcaa8a25f51578bb9f99f468c94113aa809ce936dd267e7a83e936254de15c7ec97cd5c9c821ac00884c9eb729bc4d7675d2fd0a4835d428f8f2cfbff96bb9f57c4893e4a3830925ff63a1f502c8273c8af27dee89eb92fe399cd1e42681549b5cff727934e116d625e7f745d653224f132542642841fa973ffdf19fbffabb892f3efcd3077392fbec1a5b1dee6705144904547f559f9f054e5471c4f7b3e73dbec2720d9e09a041ef67df0b409664415b66e77bea7a45cc26cc05535660c9e31cfe61876f339406879b8b26ac27d6efe580234145cb29f532e6ec3cf8c031a096d545a7f6b50387c02c708faff6294d0802f56e72b10b00580012f6ecbf432f296539a33e469efce003b62444f1d97d0f03698dfad0b8deec9c24bfbae5bea7acd1c5b3757db4831d1aa5421d49cbe9f4891db083838ea7827bc21abf00344725778fe56cfae4001fe948bf9b4bee7697b49c4d9f19a129cf14d8a31df45aedc5bd557d76c00e384847f9bd4a463ae8aba045bd6380d7af7e7988e7d9fb3bcddacd2eecb51653937ad7801d3c24d5f304c1b38aee7617f65aa34b111ad3bb47f091ea789a0015dfcd2eec155b8a36a72fd8013be0a45f977b6282b9f86e76667f4a7dd1801d709254e66902547c8f06bd7d367de1801d70337d7eae4a77bb0b7b7b3597d3d84b29801d5c9e236196eadc133be8e3b5d0881de8bb3232d8c1e3e8c43ba04f3d9fae9414b003d53d53668f773ecb39ec76472905b003953c53c19ed8857dfa09514e063b50478d443bbb4f5fab5023f6048ac9801d6800f12eda7b2c67b0a776504c32600f0f45bc8bf6f9a73157270b76f328c4bb789fbf9ec59ed94105920501501ff12edebbae2c557e0efb91f6fc5a240b0cb31a12bb78ef7d711481585803f12eb13fcc9c7a9cdd874a24599062fb11ef52fb922ba34acc992725599053b84b56e1407e73f64176d70ea84811a8a64b56e91596d1ac433ac2de02491650ac4b578d2bcb989e31c72738cede0a49563ca77354ad7966648e4fa1a5ead41265003bdd4ee7ac7ad7654cdc14b1e7e8143fc6de4d0802144919eeaa7a4dd9646c2aa5ca242f0e1375d30157c6348d5bc26c4fc986aa52b3c2341d775d629b34c6b6d09a32ab53d8ae36ae8cf6268d8a6dd2b8cde6941de8e191344a4d5029aec41606d151b317978cf4ac25366ef131d8caa8329d1bae292b63640c5314d3a1143f07c881005b6102298b2c6d81a44da3368ddb5c4875e85c88e0a0ec9c51d2366a1bb549c16827e862011675acc696164f918f2ad3799086459165943673dc346e1ab549e326cd990d90078d217411be9135d8346ed2b8491a8351db9827c514af4167440231a998bd6528321173fcf7da7466a90ecb98be49a3b429618a368ca6885016a00810b313d6ac7093346a33a6c426a871249180246c0940642c1e7282cba404f900811c36499679c924190a88ca362401ca18a39b9d205d2d2232f090cbeaa01c2541d6fd8ad89624199849242c63ca68481aa54dba74a9409135237f0c74a5e48b24250949aa440e64dc0f2097be75854b8c8ac9effe102c63faa6511eba4adeb826ac395ba0c8e6a3fa381d2a2da158384a861428fb5eebc95050a1c392356ee12865b9deaf8b4a83e26bce1619c388fcee1597e99a14f54b5e59c68c31759346d3e95ef9992825b1c09ab3792d1ef70316e95b9c63ba8d554859f743e91c9263a1c752664cf89c3b4438ec2500cab807f7265a7b5edf78f20fb0b40370e8e84f4089170038232092bdb2d4f279bb3afa130cb8129c8f44e84c98048b54c1e72debcf12a0805466690f0477a3bf00b098a5ee4ddeb9f7a722d7a4d0edf35685e7e19e25c9ebfe40455316e9f3fbe3a215960a1f1aa986cf1f1cd5707f70a4529f3f402af3f94324b97c9ef81049b23e777d94242dfadcf5fe40a59f842e2e27f85ffef4df9c68bffe9383ffeec7ff82a5ffba319b8fd89cdf34aec55cf0219a6b6c11d761aef9f1cb3cda7c19e6631f693e10680063036f726401011e6170706c69636174696f6e2f6a736f6e3b636861727365743d7574662d38004d62017b2270223a22766f7264222c2276223a312c227479223a22696e7363222c22636f6c223a2232383133313430306463623037343737623066393836323162353866346338653931393164613830326137363865633032353436613739656637616334326532222c22696964223a22466c697070656420507570706574222c227075626c223a2231455337623370636a527a4667796969714c7278484b546e43686535364c4a485937222c226e6f6e6365223a353035372c226d696e746572223a226263317037777935377036707236796b79616a3338717238667835716a6c797473376c72656d367577653232336173326179637038643871307767307963222c22736967223a22473657376d4d7866697765444d355a6f504e52434a59734f4b74514b535538784761574236773053346e755a515377482b6e38733532574f7a49714e59486c59304d4a504936535a3179426e456943664a4e74397033593d227d68",
        "c0f2d00e1cce0b839d2e197679cac7a15152ec244338032c7767f72c1332d49a65675a92934efa5e4869b2432a3e00abfc6819367af43949c2edc693b32d23ac05"
      ],
      "is_coinbase": false,
      "sequence": 4294967293
    }
  ],
  "vout": [
    {
      "scriptpubkey": "5120f3894f07411e896276513806749a8097c8b87be3cef5c7654a8f60ae93013b4e",
      "scriptpubkey_asm": "OP_PUSHNUM_1 OP_PUSHBYTES_32 f3894f07411e896276513806749a8097c8b87be3cef5c7654a8f60ae93013b4e",
      "scriptpubkey_type": "v1_p2tr",
      "scriptpubkey_address": "bc1p7wy57p6pr6ykyaj38qr8fx5qjlyts7lrem6uwe223as2aycp8d8q0wg0yc",
      "value": 1000
    },
    {
      "scriptpubkey": "51208a716e52070ca810b1e3cd2bedc8983da5b927c06f362db1296fb09a8da7c15c",
      "scriptpubkey_asm": "OP_PUSHNUM_1 OP_PUSHBYTES_32 8a716e52070ca810b1e3cd2bedc8983da5b927c06f362db1296fb09a8da7c15c",
      "scriptpubkey_type": "v1_p2tr",
      "scriptpubkey_address": "bc1p3fcku5s8pj5ppv0re547mjyc8kjmjf7qdumzmvffd7cf4rd8c9wqzdj4xz",
      "value": 7631
    },
    {
      "scriptpubkey": "51200705a5767db892e98125775049b1a13dd9ecdc8aea0df413cabbee683e871012",
      "scriptpubkey_asm": "OP_PUSHNUM_1 OP_PUSHBYTES_32 0705a5767db892e98125775049b1a13dd9ecdc8aea0df413cabbee683e871012",
      "scriptpubkey_type": "v1_p2tr",
      "scriptpubkey_address": "bc1pquz62anahzfwnqf9wagynvdp8hv7ehy2agxlgy72h0hxs058zqfqk8ksyq",
      "value": 2923
    }
  ],
  "size": 3539,
  "weight": 4079,
  "fee": 11220,
  "status": {
    "confirmed": true,
    "block_height": 834464,
    "block_hash": "0000000000000000000177a0869a911a2b65c9bdcd5a8bcb02b68f305bee848e",
    "block_time": 1710308296
  },
  "hex": "02000000000101012f11dc9af812e1299c7df7e25dd95e11c94f9dbeac4e9222ed3aedfec943230000000000fdffffff03e803000000000000225120f3894f07411e896276513806749a8097c8b87be3cef5c7654a8f60ae93013b4ecf1d0000000000002251208a716e52070ca810b1e3cd2bedc8983da5b927c06f362db1296fb09a8da7c15c6b0b0000000000002251200705a5767db892e98125775049b1a13dd9ecdc8aea0df413cabbee683e87101203402a512bbd684068592683d32178691fff1851cac95a5cdf72fabbee3897ef6147b0dd388a0b8c02c83e19a259552d3cbe1955784a6885ca06327ec2cfb87508c0fd960c20f2d00e1cce0b839d2e197679cac7a15152ec244338032c7767f72c1332d49a65ac0063036f726401010a696d6167652f77656270004d080252494646b80a0000574542505650384cac0a00002fffc03f00f7e138b26d257ab87b3e84c48a384980ad3be33e270db6916d2bb9b84b213441ff0d9091fd0c773d8c6adb5672ffc761fa3b1082199de941077777bbf31f0222520661cee0e242f64e787ff3d6397d31fc8d880080100804d4b4b5a35bbcad8561568b1ca77ef5be1e6712bfef83480020011001fd7f121110109d729d0f9ffbf550c72f4d2185ba7b19d3a73336041a161dc7699efc793cb61b507ace4a4ca601af0127f155fba66943cf52999b525e078a2a2299c7e0dbdaf62a9264db4a28aca8ad53bde73e498fda57d189dea1f748ebde7bb947e4fddf977e49bf84c0fabebf5f44ff27e0feffffff1f3aff35f1417bc97cc054f8f1519d8f9fa4876780c74cd121d3470f89e28367de4f1e8d974c173b457a2c540d3c26ca2f6207e643a0c4010c8a2bfdf22971088fa08ba7f8601f42ba728a0ef1aa80882edf905a136144ba66b287f43a9402115d31358288ae97a2437dca21a28ba5f8901da832b074a9640f9ef5906948d749f6d0804f5c33d943033efd180e80a58b2473f0ae4026493000861e2672b85632873610630002e93f3f640ecd61000c5d1cd943c940f5001106c0d0151a8e243fae915a41fc130c31ae90cca1705d3f029f86140c5d179943f1408588fe6881050386ae8acce16072e0d300597a94b858328706f169008b014bd765a8b2887230f894c4754d080251434836182001438f179747e67034851461000c5d0d9943833070d1b59039d4a47a08860cfe13604e4d1a1a956890a2939a7d5fc2a11514341880339b7d5f6a431207c3d0f9cceec6d0c42a3e25cdf669a860434a079f5cc23350c19753c1224fcd53c91773380fbcd438951bce49696a990a9f141e52b374190848538ea416a97c309c10d6ef66bd4b931e3fb5469ebf9de2ef34ebe57486783045d3d41665ff4e53f6c929429ad410e5fe6e727c09870b006d52ee94ff12b524e9cc48522b943979c6b2db452120413a8797e20dca7401626a813227c79743b64705d4be177300aaca3e164e10d3390c6604a82e0a28f99a4c651cabf33f08313565727c09871a8f955c15315d83fcc32457404c4de330f596c83c3bb50ca84372a1115421352db9884e0b4b3a8764079550db8844cf2331415216bf6b03c5c8d0f9700244deb991917f02a6a52c226ac4f7d2f4e40394f08fa81560fcdb493d4d7f905957fef1f0f99d2c1d0c4bdf4b3ebf82397e24b339afd00812a6270f92c217e9c6519207215525878f7ab5dba1ef353de1a24c6ee667856f11fcaa4c933965bc26b6034dc5dec53e2b967f08c7c90f8e862569e2e785246e07811fd4b4375d8c9b9363655376dadfdea4267c2f697a2af2ac2942216a891ad805a6b681614ebf94dfb36ab9391790447cce7e66f2fea8372946034890263f354c91b9a657e02d04fe26dd8f9f2269829f4d0802ffc285e691f3ccdf4f7e7a35dfc23690a62955a9c0ed5ca48927a78fb1f04dba37314d8a29870814b839ff50c7f4dd31a011a4bc9b257df3db3fccefe6cce9e9965b622287428ae0e0dd2812dca730031c6ee694d8acd753fa20692207da40b49a8f7a4d7fd3dc0828f21c23cb4c21984ee7dece12d2077bc225fa19dc80c9e3873aa63a9ea68f797343a84113f8457fe6412d54f034054a7a6b0b053e244e500a8f1fda81cbbdb55584b56051071364481e52ce5b83a0942c0a4c2e9003384c1eca91a48f925ed3ee4dae038e435c8452358abc9e4098f33e45b1f0c6943579d5e82329263be7ad65668292a414b0a6c894dd0249bfd39c9a753f8df769525234983cdb90bee8f5a49423e5b9b7c8b4deda478ab2540bf54cfcaa8a25f51578bb9f99f468c94113aa809ce936dd267e7a83e936254de15c7ec97cd5c9c821ac00884c9eb729bc4d7675d2fd0a4835d428f8f2cfbff96bb9f57c4893e4a3830925ff63a1f502c8273c8af27dee89eb92fe399cd1e42681549b5cff727934e116d625e7f745d653224f132542642841fa973ffdf19fbffabb892f3efcd3077392fbec1a5b1dee6705144904547f559f9f054e5471c4f7b3e73dbec2720d9e09a041ef67df0b409664415b66e77bea7a45cc26cc05535660c9e31cfe61876f339406879b8b26ac27d6efe580234145cb29f532e6ec3cf8c031a096d545a7f6b50387c02c708faff6294d0802f56e72b10b00580012f6ecbf432f296539a33e469efce003b62444f1d97d0f03698dfad0b8deec9c24bfbae5bea7acd1c5b3757db4831d1aa5421d49cbe9f4891db083838ea7827bc21abf00344725778fe56cfae4001fe948bf9b4bee7697b49c4d9f19a129cf14d8a31df45aedc5bd557d76c00e384847f9bd4a463ae8aba045bd6380d7af7e7988e7d9fb3bcddacd2eecb51653937ad7801d3c24d5f304c1b38aee7617f65aa34b111ad3bb47f091ea789a0015dfcd2eec155b8a36a72fd8013be0a45f977b6282b9f86e76667f4a7dd1801d709254e66902547c8f06bd7d367de1801d70337d7eae4a77bb0b7b7b3597d3d84b29801d5c9e236196eadc133be8e3b5d0881de8bb3232d8c1e3e8c43ba04f3d9fae9414b003d53d53668f773ecb39ec76472905b003953c53c19ed8857dfa09514e063b50478d443bbb4f5fab5023f6048ac9801d6800f12eda7b2c67b0a776504c32600f0f45bc8bf6f9a73157270b76f328c4bb789fbf9ec59ed94105920501501ff12edebbae2c557e0efb91f6fc5a240b0cb31a12bb78ef7d711481585803f12eb13fcc9c7a9cdd874a24599062fb11ef52fb922ba34acc992725599053b84b56e1407e73f64176d70ea84811a8a64b56e91596d1ac433ac2de02491650ac4b578d2bcb989e31c72738cede0a49563ca77354ad7966648e4fa1a5ead41265003bdd4ee7ac7ad7654cdc14b1e7e8143fc6de4d0802144919eeaa7a4dd9646c2aa5ca242f0e1375d30157c6348d5bc26c4fc986aa52b3c2341d775d629b34c6b6d09a32ab53d8ae36ae8cf6268d8a6dd2b8cde6941de8e191344a4d5029aec41606d151b317978cf4ac25366ef131d8caa8329d1bae292b63640c5314d3a1143f07c881005b6102298b2c6d81a44da3368ddb5c4875e85c88e0a0ec9c51d2366a1bb549c16827e862011675acc696164f918f2ad3799086459165943673dc346e1ab549e326cd990d90078d217411be9135d8346ed2b8491a8351db9827c514af4167440231a998bd6528321173fcf7da7466a90ecb98be49a3b429618a368ca6885016a00810b313d6ac7093346a33a6c426a871249180246c0940642c1e7282cba404f900811c36499679c924190a88ca362401ca18a39b9d205d2d2232f090cbeaa01c2541d6fd8ad89624199849242c63ca68481aa54dba74a9409135237f0c74a5e48b24250949aa440e64dc0f2097be75854b8c8ac9effe102c63faa6511eba4adeb826ac395ba0c8e6a3fa381d2a2da158384a861428fb5eebc95050a1c392356ee12865b9deaf8b4a83e26bce1619c388fcee1597e99a14f54b5e59c68c31759346d3e95ef9992825b1c09ab3792d1ef70316e95b9c63ba8d554859f743e91c9263a1c752664cf89c3b4438ec2500cab807f7265a7b5edf78f20fb0b40370e8e84f4089170038232092bdb2d4f279bb3afa130cb8129c8f44e84c98048b54c1e72debcf12a0805466690f0477a3bf00b098a5ee4ddeb9f7a722d7a4d0edf35685e7e19e25c9ebfe40455316e9f3fbe3a215960a1f1aa986cf1f1cd5707f70a4529f3f402af3f94324b97c9ef81049b23e777d94242dfadcf5fe40a59f842e2e27f85ffef4df9c68bffe9383ffeec7ff82a5ffba319b8fd89cdf34aec55cf0219a6b6c11d761aef9f1cb3cda7c19e6631f693e10680063036f726401011e6170706c69636174696f6e2f6a736f6e3b636861727365743d7574662d38004d62017b2270223a22766f7264222c2276223a312c227479223a22696e7363222c22636f6c223a2232383133313430306463623037343737623066393836323162353866346338653931393164613830326137363865633032353436613739656637616334326532222c22696964223a22466c697070656420507570706574222c227075626c223a2231455337623370636a527a4667796969714c7278484b546e43686535364c4a485937222c226e6f6e6365223a353035372c226d696e746572223a226263317037777935377036707236796b79616a3338717238667835716a6c797473376c72656d367577653232336173326179637038643871307767307963222c22736967223a22473657376d4d7866697765444d355a6f504e52434a59734f4b74514b535538784761574236773053346e755a515377482b6e38733532574f7a49714e59486c59304d4a504936535a3179426e456943664a4e74397033593d227d6841c0f2d00e1cce0b839d2e197679cac7a15152ec244338032c7767f72c1332d49a65675a92934efa5e4869b2432a3e00abfc6819367af43949c2edc693b32d23ac0500000000"
}