{
  "txid": "2debbf2d7ebdbe2714509a0b18f37c5265e8dde83ffc3b3b7d541467b87647b2",
  "version": 2,
  "locktime": 0,
  "vin": [
    {
      "txid": "3018018d243739ee064afdfa5629c2fad3e93e8606514206e6a818aa7dc6f7c1",
      "vout": 0,
      "prevout": {
        "scriptpubkey": "0014da762d045406be5da5e551f3073c469c52c2a2d8",
        "scriptpubkey_asm": "OP_0 OP_PUSHBYTES_20 da762d045406be5da5e551f3073c469c52c2a2d8",
        "scriptpubkey_type": "v0_p2wpkh",
        "scriptpubkey_address": "bc1qmfmz6pz5q6l9mf0928esw0zxn3fv9gkcp49len",
        "value": 151995
      },
      "scriptsig": "",
      "scriptsig_asm": "",
      "witness": [
        "3045022100fdbb90e7b6da3c3b409f54babb20e615c3f660ffdc37458bd473fdb7ae91ad1b02201121e1cdb8d762ac7aa2e7f3123f1db2c834cd3b7a2f17026876e84e7434635101",
        "0358b7fd144cbb096a24881bc6199dc92483bc54af5a3f42fb0279f69518c5736b"
      ],
      "is_coinbase": false,
      "sequence": 4294967293
    }
  ],
  "vout": [
    {
      "scriptpubkey": "0014da762d045406be5da5e551f3073c469c52c2a2d8",
      "scriptpubkey_asm": "OP_0 OP_PUSHBYTES_20 da762d045406be5da5e551f3073c469c52c2a2d8",
      "scriptpubkey_type": "v0_p2wpkh",
      "scriptpubkey_address": "bc1qmfmz6pz5q6l9mf0928esw0zxn3fv9gkcp49len",
      "value": 63462
    },
    {
      "scriptpubkey": "a914a2ebd150f7dddcb1d3cbcdaef147c58e680c86ef87",
      "scriptpubkey_asm": "OP_HASH160 OP_PUSHBYTES_20 a2ebd150f7dddcb1d3cbcdaef147c58e680c86ef OP_EQUAL",
      "scriptpubkey_type": "p2sh",
      "scriptpubkey_address": "3GYTtWxNKa79o2vu1hxzgwvWFUEU2yYoKb",
      "value": 87003
    }
  ],
  "size": 224,
  "weight": 566,
  "fee": 1530,
  "status": {
    "confirmed": true,
    "block_height": 834464,
    "block_hash": "0000000000000000000177a0869a911a2b65c9bdcd5a8bcb02b68f305bee848e",
    "block_time": 1710308296
  },
  "hex": "02000000000101c1f7c67daa18a8e606425106863ee9d3fac22956fafd4a06ee3937248d0118300000000000fdffffff02e6f7000000000000160014da762d045406be5da5e551f3073c469c52c2a2d8db5301000000000017a914a2ebd150f7dddcb1d3cbcdaef147c58e680c86ef8702483045022100fdbb90e7b6da3c3b409f54babb20e615c3f660ffdc37458bd473fdb7ae91ad1b02201121e1cdb8d762ac7aa2e7f3123f1db2c834cd3b7a2f17026876e84e7434635101210358b7fd144cbb096a24881bc6199dc92483bc54af5a3f42fb0279f69518c5736b00000000"
}