{
  "txid": "2e00bb4bfd956d08f5bb163ef3d6e51dade17a01a89cd0b57a05509656390b38",
  "version": 2,
  "locktime": 0,
  "vin": [
    {
      "txid": "8486ecb4df0880316dd6e82b3971b4df187aff23765bc3a47f8d78bb53aa273c",
      "vout": 33,
      "prevout": {
        "scriptpubkey": "51209a514dd8e499a70a92ffc17d65ac00dc5d1c6c6529b868fc163a420363ebc58f",
        "scriptpubkey_asm": "OP_PUSHNUM_1 OP_PUSHBYTES_32 9a514dd8e499a70a92ffc17d65ac00dc5d1c6c6529b868fc163a420363ebc58f",
        "scriptpubkey_type": "v1_p2tr",
        "scriptpubkey_address": "bc1pnfg5mk8ynxns4yhlc97kttqqm3w3cmr99xux3lqk8fpqxcltck8sh80zfe",
        "value": 2575
      },
      "scriptsig": "",
      "scriptsig_asm": "",
      "witness": [
        "6d1339917bdd625595996a5d736ef36bf4c9f2bb483e53d09bd51234dec5c5bc0f56006e8b5de3a8fa15a5afc4d11613a8f64d1b8b308d5bfaec25a9c7d04ae8",
        "20806ab049e01c5324b3586ad43c22834d305cc4c5770d28b7f39b9b1948e1ec4dac0063036f726401010a746578742f706c61696e00367b2270223a226272632d3230222c226f70223a226d696e74222c227469636b223a2261616161222c22616d74223a223130303030227d68",
        "c0806ab049e01c5324b3586ad43c22834d305cc4c5770d28b7f39b9b1948e1ec4d"
      ],
      "is_coinbase": false,
      "sequence": 4261412863
    }
  ],
  "vout": [
    {
      "scriptpubkey": "0014ddd7ef12ea6f78edcc1e8e7afa12c01ab59f3339",
      "scriptpubkey_asm": "OP_0 OP_PUSHBYTES_20 ddd7ef12ea6f78edcc1e8e7afa12c01ab59f3339",
      "scriptpubkey_type": "v0_p2wpkh",
      "scriptpubkey_address": "bc1qmht77yh2dauwmnq73ea05ykqr26e7veea8spz6",
      "value": 546
    }
  ],
  "size": 295,
  "weight": 541,
  "fee": 2029,
  "status": {
    "confirmed": true,
    "block_height": 834460,
    "block_hash": "00000000000000000000484a79b643b2524bbce82e5d8a442013fa5b8905ed98",
    "block_time": 1710307468
  },
  "hex": "020000000001013c27aa53bb788d7fa4c35b7623ff7a18dfb471392be8d66d318008dfb4ec86842100000000fffffffd012202000000000000160014ddd7ef12ea6f78edcc1e8e7afa12c01ab59f333903406d1339917bdd625595996a5d736ef36bf4c9f2bb483e53d09bd51234dec5c5bc0f56006e8b5de3a8fa15a5afc4d11613a8f64d1b8b308d5bfaec25a9c7d04ae86e20806ab049e01c5324b3586ad43c22834d305cc4c5770d28b7f39b9b1948e1ec4dac0063036f726401010a746578742f706c61696e00367b2270223a226272632d3230222c226f70223a226d696e74222c227469636b223a2261616161222c22616d74223a223130303030227d6821c0806ab049e01c5324b3586ad43c22834d305cc4c5770d28b7f39b9b1948e1ec4d00000000"
}