{
  "txid": "2e08967288c1f09f6fa3ba88bbcea7251b3a2e4ed5819b54685d04014cf76b8e",
  "version": 2,
  "locktime": 0,
  "vin": [
    {
      "txid": "33198a5cbe2a53fc30099ab53009144888cef479020e7acbc065183b03c26d7b",
      "vout": 2,
      "prevout": {
        "scriptpubkey": "5120a4972c08168308a51916dd5cfbfe8ab20f223eac1502e673c5bc92aee57799ab",
        "scriptpubkey_asm": "OP_PUSHNUM_1 OP_PUSHBYTES_32 a4972c08168308a51916dd5cfbfe8ab20f223eac1502e673c5bc92aee57799ab",
        "scriptpubkey_type": "v1_p2tr",
        "scriptpubkey_address": "bc1p5jtjczqksvy22xgkm4w0hl52kg8jy04vz5pwvu79hjf2aethnx4sc08plp",
        "value": 2658
      },
      "scriptsig": "",
      "scriptsig_asm": "",
      "witness": [
        "4605f59513c92bf5e41790abcb1c0242dff711758786ece6bbcc85fd7827391a81141689a356c1e4265e45c498775bc9c2056f06e88f9eae0062f40d89269243",
        "205ef85448ae00821407465f3eb146d063e10939a6bb6e0acde026ba439dc9af55ac0063036f726401011e6170706c69636174696f6e2f6a736f6e3b636861727365743d7574662d38004cbf7b2270223a22706f772d3230222c226f70223a226d696e74222c227469636b223a2250455045222c22616d74223a2231303030222c22736f6c7574696f6e223a22504550453a626331717832636c7935673578376b356a6b7376396d61346332753661646c7a78657470616e387071733a303030303030303030303030303030303030303139393431613561653132383937363539383134343239323533333030353762306461393666336465613163353a3433323239383634383235227d68",
        "c0da2c9a1920efdfbecd176e4adbb0ca1150e62509fd8a3a19d8331b0c89a8a97b"
      ],
      "is_coinbase": false,
      "sequence": 4294967295
    }
  ],
  "vout": [
    {
      "scriptpubkey": "001432b1f2511437ad495a0c2efb5c2b9aeb7e236561",
      "scriptpubkey_asm": "OP_0 OP_PUSHBYTES_20 32b1f2511437ad495a0c2efb5c2b9aeb7e236561",
      "scriptpubkey_type": "v0_p2wpkh",
      "scriptpubkey_address": "bc1qx2cly5g5x7k5jksv9ma4c2u6adlzxetpan8pqs",
      "value": 546
    }
  ],
  "size": 455,
  "weight": 701,
  "fee": 2112,
  "status": {
    "confirmed": true,
    "block_height": 834460,
    "block_hash": "00000000000000000000484a79b643b2524bbce82e5d8a442013fa5b8905ed98",
    "block_time": 1710307468
  },
  "hex": "020000000001017b6dc2033b1865c0cb7a0e0279f4ce8848140930b59a0930fc532abe5c8a19330200000000ffffffff01220200000000000016001432b1f2511437ad495a0c2efb5c2b9aeb7e23656103404605f59513c92bf5e41790abcb1c0242dff711758786ece6bbcc85fd7827391a81141689a356c1e4265e45c498775bc9c2056f06e88f9eae0062f40d89269243fd0c01205ef85448ae00821407465f3eb146d063e10939a6bb6e0acde026ba439dc9af55ac0063036f726401011e6170706c69636174696f6e2f6a736f6e3b636861727365743d7574662d38004cbf7b2270223a22706f772d3230222c226f70223a226d696e74222c227469636b223a2250455045222c22616d74223a2231303030222c22736f6c7574696f6e223a22504550453a626331717832636c7935673578376b356a6b7376396d61346332753661646c7a78657470616e387071733a303030303030303030303030303030303030303139393431613561653132383937363539383134343239323533333030353762306461393666336465613163353a3433323239383634383235227d6821c0da2c9a1920efdfbecd176e4adbb0ca1150e62509fd8a3a19d8331b0c89a8a97b00000000"
}