{
  "txid": "2e1d2933de238ffb0690fd7a0124c6964a28e082c786b9fd6c072844fe8a10b7",
  "version": 1,
  "locktime": 0,
  "vin": [
    {
      "txid": "32ef903748701172ab7b7a8aca9f2bcea6aa81490fb425c21970740f37bd45fd",
      "vout": 0,
      "prevout": {
        "scriptpubkey": "0014520f6e2261332cfd2766fe4e94ad52ee670205ed",
        "scriptpubkey_asm": "OP_0 OP_PUSHBYTES_20 520f6e2261332cfd2766fe4e94ad52ee670205ed",
        "scriptpubkey_type": "v0_p2wpkh",
        "scriptpubkey_address": "bc1q2g8kugnpxvk06fmxle8fft2jaensyp0d93kq9t",
        "value": 54731
      },
      "scriptsig": "",
      "scriptsig_asm": "",
      "witness": [
        "3045022100ac1d960eef9b221be32bc24c3a1c9ed4810165d33f48d9a6c03ee90f8fc0acbe022004ad1f73dae3dff16ac356fd504809cf037426c57b3032db1e17e414f623904e01",
        "03639c527931d4736d4210a2f74c53e96a5323921f96e26f147cffc9953fa717c4"
      ],
      "is_coinbase": false,
      "sequence": 4294967295
    }
  ],
  "vout": [
    {
      "scriptpubkey": "001418d1e3239bade19073e4dddac50018a17fc0ff85",
      "scriptpubkey_asm": "OP_0 OP_PUSHBYTES_20 18d1e3239bade19073e4dddac50018a17fc0ff85",
      "scriptpubkey_type": "v0_p2wpkh",
      "scriptpubkey_address": "bc1qrrg7xgum4hsequlymhdv2qqc59luplu9dnkzj3",
      "value": 51761
    }
  ],
  "size": 192,
  "weight": 438,
  "fee": 2970,
  "status": {
    "confirmed": true,
    "block_height": 834638,
    "block_hash": "000000000000000000025f742c626208ac87e0b7d15054abb4a19ca2d735a54e",
    "block_time": 1710405325
  },
  "hex": "01000000000101fd45bd370f747019c225b40f4981aaa6ce2b9fca8a7a7bab721170483790ef320000000000ffffffff0131ca00000000000016001418d1e3239bade19073e4dddac50018a17fc0ff8502483045022100ac1d960eef9b221be32bc24c3a1c9ed4810165d33f48d9a6c03ee90f8fc0acbe022004ad1f73dae3dff16ac356fd504809cf037426c57b3032db1e17e414f623904e012103639c527931d4736d4210a2f74c53e96a5323921f96e26f147cffc9953fa717c400000000"
}