{
  "txid": "2e291753c898481c06bdce5d2b36ea41e1350091d960570fefee483cc00ce62e",
  "version": 2,
  "locktime": 834458,
  "vin": [
    {
      "txid": "c1dbc664fc0597d9449230eb795ff4e634fa86950af768fdbfed2ac4b913cf98",
      "vout": 1,
      "prevout": {
        "scriptpubkey": "00142a10972d960ce905a0b086af6b0227425f740727",
        "scriptpubkey_asm": "OP_0 OP_PUSHBYTES_20 2a10972d960ce905a0b086af6b0227425f740727",
        "scriptpubkey_type": "v0_p2wpkh",
        "scriptpubkey_address": "bc1q9ggfwtvkpn5stg9ss6hkkq38gf0hgpe8qh8eqp",
        "value": 255409
      },
      "scriptsig": "",
      "scriptsig_asm": "",
      "witness": [
        "304402207c458b40a9b000a936cc89c5facf5c482e6fb496d8449f53360b8e76704c6f1102202bcc20ef873c6f7f8966aaa4a261e8be886267dfe4cd2631fa0cdef156c1ca1601",
        "02dd19174373f866000f00bc3d0b2b23be34b08ab5682ca089a9fce0dd286f515f"
      ],
      "is_coinbase": false,
      "sequence": 4294967293
    }
  ],
  "vout": [
    {
      "scriptpubkey": "001472765248a71607e376e0d59f3b5c1c16519bda9c",
      "scriptpubkey_asm": "OP_0 OP_PUSHBYTES_20 72765248a71607e376e0d59f3b5c1c16519bda9c",
      "scriptpubkey_type": "v0_p2wpkh",
      "scriptpubkey_address": "bc1qwfm9yj98zcr7xahq6k0nkhquzegehk5umt7kgr",
      "value": 128498
    },
    {
      "scriptpubkey": "00140989c113c288c2c4a8bfb21303d227222a4080e1",
      "scriptpubkey_asm": "OP_0 OP_PUSHBYTES_20 0989c113c288c2c4a8bfb21303d227222a4080e1",
      "scriptpubkey_type": "v0_p2wpkh",
      "scriptpubkey_address": "bc1qpxyuzy7z3rpvf29lkgfs8538yg4ypq8p6lrvcl",
      "value": 125000
    }
  ],
  "size": 222,
  "weight": 561,
  "fee": 1911,
  "status": {
    "confirmed": true,
    "block_height": 834460,
    "block_hash": "00000000000000000000484a79b643b2524bbce82e5d8a442013fa5b8905ed98",
    "block_time": 1710307468
  },
  "hex": "0200000000010198cf13b9c42aedbffd68f70a9586fa34e6f45f79eb309244d99705fc64c6dbc10100000000fdffffff02f2f501000000000016001472765248a71607e376e0d59f3b5c1c16519bda9c48e80100000000001600140989c113c288c2c4a8bfb21303d227222a4080e10247304402207c458b40a9b000a936cc89c5facf5c482e6fb496d8449f53360b8e76704c6f1102202bcc20ef873c6f7f8966aaa4a261e8be886267dfe4cd2631fa0cdef156c1ca16012102dd19174373f866000f00bc3d0b2b23be34b08ab5682ca089a9fce0dd286f515f9abb0c00"
}