{
  "txid": "2e47c879b7115a3719c02b5a83b7ab0d4899a19698a8c568694e3b92819834e6",
  "version": 2,
  "locktime": 0,
  "vin": [
    {
      "txid": "acc3ba00869acb582a3f2904ce3a11dd3779350ce234063fc7d0959246213364",
      "vout": 253,
      "prevout": {
        "scriptpubkey": "512008d52ec029a34654393604947caf0fc734092421d36db96b66b90174787d8c84",
        "scriptpubkey_asm": "OP_PUSHNUM_1 OP_PUSHBYTES_32 08d52ec029a34654393604947caf0fc734092421d36db96b66b90174787d8c84",
        "scriptpubkey_type": "v1_p2tr",
        "scriptpubkey_address": "bc1ppr2jaspf5dr9gwfkqj28etc0cu6qjfpp6dkmj6mxhyqhg7ra3jzquwfgu6",
        "value": 1806
      },
      "scriptsig": "",
      "scriptsig_asm": "",
      "witness": [
        "1a693daf9a6d404a9f835508c698d53f79b88f06dfd155859633dcd18b83d8b81ccf93311f7cefe2979817425ae99586be7516e8c8f283a2a19e05b0f81d6669",
        "201a72f71542d5db6e338216519e89ea1ecb0a8cf87848f6199428f4c6b445da53ac0063036f726401010a746578742f706c61696e00357b2270223a226272632d3230222c226f70223a226d696e74222c227469636b223a22646f6765222c22616d74223a2234323030227d68",
        "c11a72f71542d5db6e338216519e89ea1ecb0a8cf87848f6199428f4c6b445da53"
      ],
      "is_coinbase": false,
      "sequence": 4261412863
    }
  ],
  "vout": [
    {
      "scriptpubkey": "00147a665de7a370f4c9b372ab1fae587500a5bcbdb4",
      "scriptpubkey_asm": "OP_0 OP_PUSHBYTES_20 7a665de7a370f4c9b372ab1fae587500a5bcbdb4",
      "scriptpubkey_type": "v0_p2wpkh",
      "scriptpubkey_address": "bc1q0fn9mearwr6vnvmj4v06ukr4qzjme0d565dzcx",
      "value": 294
    }
  ],
  "size": 294,
  "weight": 540,
  "fee": 1512,
  "status": {
    "confirmed": true,
    "block_height": 834460,
    "block_hash": "00000000000000000000484a79b643b2524bbce82e5d8a442013fa5b8905ed98",
    "block_time": 1710307468
  },
  "hex": "02000000000101643321469295d0c73f0634e20c357937dd113ace04293f2a58cb9a8600bac3acfd00000000fffffffd0126010000000000001600147a665de7a370f4c9b372ab1fae587500a5bcbdb403401a693daf9a6d404a9f835508c698d53f79b88f06dfd155859633dcd18b83d8b81ccf93311f7cefe2979817425ae99586be7516e8c8f283a2a19e05b0f81d66696d201a72f71542d5db6e338216519e89ea1ecb0a8cf87848f6199428f4c6b445da53ac0063036f726401010a746578742f706c61696e00357b2270223a226272632d3230222c226f70223a226d696e74222c227469636b223a22646f6765222c22616d74223a2234323030227d6821c11a72f71542d5db6e338216519e89ea1ecb0a8cf87848f6199428f4c6b445da5300000000"
}