{
  "txid": "2e5af0bc02262649523fa59e359ea8fa55e1054b33f53f5cd69d00c12021810f",
  "version": 2,
  "locktime": 0,
  "vin": [
    {
      "txid": "c4e71bc6376bb998b9fa3ee9f9663a82202838062d8515acc7ee5a35a5428709",
      "vout": 10,
      "prevout": {
        "scriptpubkey": "5120cf88ba6180c77171969641834199b7eb47a777a7b853b67d6ae8dfbeb2ac77b1",
        "scriptpubkey_asm": "OP_PUSHNUM_1 OP_PUSHBYTES_32 cf88ba6180c77171969641834199b7eb47a777a7b853b67d6ae8dfbeb2ac77b1",
        "scriptpubkey_type": "v1_p2tr",
        "scriptpubkey_address": "bc1pe7yt5cvqcachr95kgxp5rxdhadr6waa8hpfmvlt2ar0mav4vw7csu5ngg7",
        "value": 600
      },
      "scriptsig": "",
      "scriptsig_asm": "",
      "witness": [
        "967c0c4126cb78d4f4c2c25cc4cfb6fcd6d4ed750f03006bfa4eccf5b6db679c767536258006afa97fba0a867ccf4f3b3018425f1cb2fe9df7b0d46d6050308d01"
      ],
      "is_coinbase": false,
      "sequence": 4294967295
    },
    {
      "txid": "a1e5065eb69c8e9c11976bc3cbbe4345354d8cdce3cc185dfdde8ce99f06ffe0",
      "vout": 4,
      "prevout": {
        "scriptpubkey": "5120cf88ba6180c77171969641834199b7eb47a777a7b853b67d6ae8dfbeb2ac77b1",
        "scriptpubkey_asm": "OP_PUSHNUM_1 OP_PUSHBYTES_32 cf88ba6180c77171969641834199b7eb47a777a7b853b67d6ae8dfbeb2ac77b1",
        "scriptpubkey_type": "v1_p2tr",
        "scriptpubkey_address": "bc1pe7yt5cvqcachr95kgxp5rxdhadr6waa8hpfmvlt2ar0mav4vw7csu5ngg7",
        "value": 600
      },
      "scriptsig": "",
      "scriptsig_asm": "",
      "witness": [
        "2ffc0177c55a44b965a207bfe88812f1e856ae43296dfbc69dcbf9c23e8300505234a7a0a61cc3eeb042221e5354bd802c9971ce9f13a9c577ce6c5e9cd13be801"
      ],
      "is_coinbase": false,
      "sequence": 4294967295
    },
    {
      "txid": "15483e3fce9f4e1dbca9ca0287fa187bb09404bc0671a30a2c925c47e5b996cc",
      "vout": 1,
      "prevout": {
        "scriptpubkey": "512026007c65981b50b8ccd2b903132d6d69735482d0225d3ee93b1c05602e2c8530",
        "scriptpubkey_asm": "OP_PUSHNUM_1 OP_PUSHBYTES_32 26007c65981b50b8ccd2b903132d6d69735482d0225d3ee93b1c05602e2c8530",
        "scriptpubkey_type": "v1_p2tr",
        "scriptpubkey_address": "bc1pycq8cevcrdgt3nxjhyp3xttdd9e4fqksyfwna6fmrszkqt3vs5cq76nzj0",
        "value": 546
      },
      "scriptsig": "",
      "scriptsig_asm": "",
      "witness": [
        "9856b0f97d4dbb49e60742a97b5217653f9bbdecaab7ccc0b66f874295696664e82a8bac65d8cf306780685110c92e861d504750ec6b4fe0cff7c58225c52a1c83"
      ],
      "is_coinbase": false,
      "sequence": 4294967295
    },
    {
      "txid": "2e8237ef7ebda8bc5cc94ac7ec3d10486fe4182b79c73306cbaf3f155df724e3",
      "vout": 2,
      "prevout": {
        "scriptpubkey": "5120cf88ba6180c77171969641834199b7eb47a777a7b853b67d6ae8dfbeb2ac77b1",
        "scriptpubkey_asm": "OP_PUSHNUM_1 OP_PUSHBYTES_32 cf88ba6180c77171969641834199b7eb47a777a7b853b67d6ae8dfbeb2ac77b1",
        "scriptpubkey_type": "v1_p2tr",
        "scriptpubkey_address": "bc1pe7yt5cvqcachr95kgxp5rxdhadr6waa8hpfmvlt2ar0mav4vw7csu5ngg7",
        "value": 263000
      },
      "scriptsig": "",
      "scriptsig_asm": "",
      "witness": [
        "85acfb39683b3ff48c0e366e0faff165a13152f4e414ac756b395f2287f5c5025ac4c25a9cd78ce5afeeb24fc0b2e1ae3132de3f013bb41296bc66856a5f64ca01"
      ],
      "is_coinbase": false,
      "sequence": 4294967295
    },
    {
      "txid": "85322179ea0a18a7d42933c7e95d2d98345416b7170cf8c557b61758ff0948a6",
      "vout": 2,
      "prevout": {
        "scriptpubkey": "5120cf88ba6180c77171969641834199b7eb47a777a7b853b67d6ae8dfbeb2ac77b1",
        "scriptpubkey_asm": "OP_PUSHNUM_1 OP_PUSHBYTES_32 cf88ba6180c77171969641834199b7eb47a777a7b853b67d6ae8dfbeb2ac77b1",
        "scriptpubkey_type": "v1_p2tr",
        "scriptpubkey_address": "bc1pe7yt5cvqcachr95kgxp5rxdhadr6waa8hpfmvlt2ar0mav4vw7csu5ngg7",
        "value": 263000
      },
      "scriptsig": "",
      "scriptsig_asm": "",
      "witness": [
        "9fa2fbfb36f48968f24b2db7e4fecfde9411e1096f633206afc7c8f5d1f13a57278eee5485accf756dcd3b81eb04eacc819086c1289b5dbb28b5cfae6e7a5d1001"
      ],
      "is_coinbase": false,
      "sequence": 4294967295
    }
  ],
  "vout": [
    {
      "scriptpubkey": "5120cf88ba6180c77171969641834199b7eb47a777a7b853b67d6ae8dfbeb2ac77b1",
      "scriptpubkey_asm": "OP_PUSHNUM_1 OP_PUSHBYTES_32 cf88ba6180c77171969641834199b7eb47a777a7b853b67d6ae8dfbeb2ac77b1",
      "scriptpubkey_type": "v1_p2tr",
      "scriptpubkey_address": "bc1pe7yt5cvqcachr95kgxp5rxdhadr6waa8hpfmvlt2ar0mav4vw7csu5ngg7",
      "value": 1200
    },
    {
      "scriptpubkey": "5120cf88ba6180c77171969641834199b7eb47a777a7b853b67d6ae8dfbeb2ac77b1",
      "scriptpubkey_asm": "OP_PUSHNUM_1 OP_PUSHBYTES_32 cf88ba6180c77171969641834199b7eb47a777a7b853b67d6ae8dfbeb2ac77b1",
      "scriptpubkey_type": "v1_p2tr",
      "scriptpubkey_address": "bc1pe7yt5cvqcachr95kgxp5rxdhadr6waa8hpfmvlt2ar0mav4vw7csu5ngg7",
      "value": 546
    },
    {
      "scriptpubkey": "512026007c65981b50b8ccd2b903132d6d69735482d0225d3ee93b1c05602e2c8530",
      "scriptpubkey_asm": "OP_PUSHNUM_1 OP_PUSHBYTES_32 26007c65981b50b8ccd2b903132d6d69735482d0225d3ee93b1c05602e2c8530",
      "scriptpubkey_type": "v1_p2tr",
      "scriptpubkey_address": "bc1pycq8cevcrdgt3nxjhyp3xttdd9e4fqksyfwna6fmrszkqt3vs5cq76nzj0",
      "value": 265000
    },
    {
      "scriptpubkey": "5120cf88ba6180c77171969641834199b7eb47a777a7b853b67d6ae8dfbeb2ac77b1",
      "scriptpubkey_asm": "OP_PUSHNUM_1 OP_PUSHBYTES_32 cf88ba6180c77171969641834199b7eb47a777a7b853b67d6ae8dfbeb2ac77b1",
      "scriptpubkey_type": "v1_p2tr",
      "scriptpubkey_address": "bc1pe7yt5cvqcachr95kgxp5rxdhadr6waa8hpfmvlt2ar0mav4vw7csu5ngg7",
      "value": 600
    },
    {
      "scriptpubkey": "5120cf88ba6180c77171969641834199b7eb47a777a7b853b67d6ae8dfbeb2ac77b1",
      "scriptpubkey_asm": "OP_PUSHNUM_1 OP_PUSHBYTES_32 cf88ba6180c77171969641834199b7eb47a777a7b853b67d6ae8dfbeb2ac77b1",
      "scriptpubkey_type": "v1_p2tr",
      "scriptpubkey_address": "bc1pe7yt5cvqcachr95kgxp5rxdhadr6waa8hpfmvlt2ar0mav4vw7csu5ngg7",
      "value": 600
    },
    {
      "scriptpubkey": "5120cf88ba6180c77171969641834199b7eb47a777a7b853b67d6ae8dfbeb2ac77b1",
      "scriptpubkey_asm": "OP_PUSHNUM_1 OP_PUSHBYTES_32 cf88ba6180c77171969641834199b7eb47a777a7b853b67d6ae8dfbeb2ac77b1",
      "scriptpubkey_type": "v1_p2tr",
      "scriptpubkey_address": "bc1pe7yt5cvqcachr95kgxp5rxdhadr6waa8hpfmvlt2ar0mav4vw7csu5ngg7",
      "value": 250350
    }
  ],
  "size": 810,
  "weight": 2229,
  "fee": 9450,
  "status": {
    "confirmed": true,
    "block_height": 834638,
    "block_hash": "000000000000000000025f742c626208ac87e0b7d15054abb4a19ca2d735a54e",
    "block_time": 1710405325
  },
  "hex": "02000000000105098742a5355aeec7ac15852d06382820823a66f9e93efab998b96b37c61be7c40a00000000ffffffffe0ff069fe98cdefd5d18cce3dc8c4d354543becbc36b97119c8e9cb65e06e5a10400000000ffffffffcc96b9e5475c922c0aa37106bc0494b07b18fa8702caa9bc1d4e9fce3f3e48150100000000ffffffffe324f75d153fafcb0633c7792b18e46f48103decc74ac95cbca8bd7eef37822e0200000000ffffffffa64809ff5817b657c5f80c17b7165434982d5de9c73329d4a7180aea792132850200000000ffffffff06b004000000000000225120cf88ba6180c77171969641834199b7eb47a777a7b853b67d6ae8dfbeb2ac77b12202000000000000225120cf88ba6180c77171969641834199b7eb47a777a7b853b67d6ae8dfbeb2ac77b1280b04000000000022512026007c65981b50b8ccd2b903132d6d69735482d0225d3ee93b1c05602e2c85305802000000000000225120cf88ba6180c77171969641834199b7eb47a777a7b853b67d6ae8dfbeb2ac77b15802000000000000225120cf88ba6180c77171969641834199b7eb47a777a7b853b67d6ae8dfbeb2ac77b1eed1030000000000225120cf88ba6180c77171969641834199b7eb47a777a7b853b67d6ae8dfbeb2ac77b10141967c0c4126cb78d4f4c2c25cc4cfb6fcd6d4ed750f03006bfa4eccf5b6db679c767536258006afa97fba0a867ccf4f3b3018425f1cb2fe9df7b0d46d6050308d0101412ffc0177c55a44b965a207bfe88812f1e856ae43296dfbc69dcbf9c23e8300505234a7a0a61cc3eeb042221e5354bd802c9971ce9f13a9c577ce6c5e9cd13be80101419856b0f97d4dbb49e60742a97b5217653f9bbdecaab7ccc0b66f874295696664e82a8bac65d8cf306780685110c92e861d504750ec6b4fe0cff7c58225c52a1c83014185acfb39683b3ff48c0e366e0faff165a13152f4e414ac756b395f2287f5c5025ac4c25a9cd78ce5afeeb24fc0b2e1ae3132de3f013bb41296bc66856a5f64ca0101419fa2fbfb36f48968f24b2db7e4fecfde9411e1096f633206afc7c8f5d1f13a57278eee5485accf756dcd3b81eb04eacc819086c1289b5dbb28b5cfae6e7a5d100100000000"
}