{
  "txid": "2e5dce6430ff0854db8fa0cb34c8eb4daf12ca8e51da8de9a14a02711ec96c92",
  "version": 2,
  "locktime": 834637,
  "vin": [
    {
      "txid": "de7b44a7afc7b36109e87d07da89625ad98f2b7a70b421aa8b7d6ae5be963cb2",
      "vout": 1,
      "prevout": {
        "scriptpubkey": "001406c466c70511f1784bc8302a9ac98138566afbfd",
        "scriptpubkey_asm": "OP_0 OP_PUSHBYTES_20 06c466c70511f1784bc8302a9ac98138566afbfd",
        "scriptpubkey_type": "v0_p2wpkh",
        "scriptpubkey_address": "bc1qqmzxd3c9z8chsj7gxq4f4jvp8ptx47ladptvfz",
        "value": 7018941
      },
      "scriptsig": "",
      "scriptsig_asm": "",
      "witness": [
        "3044022024d585bfe14dbcfc53e30d64a3577cf9e9dba477ead03d2bd26aba8c67bb7b3202200c914aca98d7fc7f41e5712193d49d10f26b055a35f09bf83ec32fc0370d933201",
        "02a757fce26ffe252c6f9518427fc56ff7c2024507ac3b57d4eb0012a489ffa261"
      ],
      "is_coinbase": false,
      "sequence": 4294967293
    }
  ],
  "vout": [
    {
      "scriptpubkey": "00142361ca8f3d4c6af1c20ea7f286107862d61b4128",
      "scriptpubkey_asm": "OP_0 OP_PUSHBYTES_20 2361ca8f3d4c6af1c20ea7f286107862d61b4128",
      "scriptpubkey_type": "v0_p2wpkh",
      "scriptpubkey_address": "bc1qydsu4reaf340rssw5legvyrcvttpksfgjgwl5u",
      "value": 163595
    },
    {
      "scriptpubkey": "0014ca3e50b4dbea2689813f1c28164a2c4caf619028",
      "scriptpubkey_asm": "OP_0 OP_PUSHBYTES_20 ca3e50b4dbea2689813f1c28164a2c4caf619028",
      "scriptpubkey_type": "v0_p2wpkh",
      "scriptpubkey_address": "bc1qegl9pdxmagngnqflrs5pvj3vfjhkrypg4gsngv",
      "value": 6851948
    }
  ],
  "size": 222,
  "weight": 561,
  "fee": 3398,
  "status": {
    "confirmed": true,
    "block_height": 834638,
    "block_hash": "000000000000000000025f742c626208ac87e0b7d15054abb4a19ca2d735a54e",
    "block_time": 1710405325
  },
  "hex": "02000000000101b23c96bee56a7d8baa21b4707a2b8fd95a6289da077de80961b3c7afa7447bde0100000000fdffffff020b7f0200000000001600142361ca8f3d4c6af1c20ea7f286107862d61b41286c8d680000000000160014ca3e50b4dbea2689813f1c28164a2c4caf61902802473044022024d585bfe14dbcfc53e30d64a3577cf9e9dba477ead03d2bd26aba8c67bb7b3202200c914aca98d7fc7f41e5712193d49d10f26b055a35f09bf83ec32fc0370d9332012102a757fce26ffe252c6f9518427fc56ff7c2024507ac3b57d4eb0012a489ffa2614dbc0c00"
}