{
  "txid": "2e5dd132f996c9eeca24d4663f937e5e5935b896b1bb696930977cb0ed722e84",
  "version": 2,
  "locktime": 834636,
  "vin": [
    {
      "txid": "23e998d8860c4dbb139b28d86700fb9bbdebb2681bba76dd49859b3870bd81fe",
      "vout": 1,
      "prevout": {
        "scriptpubkey": "76a9141135404b232bde6e8c9b149488af446955901a2988ac",
        "scriptpubkey_asm": "OP_DUP OP_HASH160 OP_PUSHBYTES_20 1135404b232bde6e8c9b149488af446955901a29 OP_EQUALVERIFY OP_CHECKSIG",
        "scriptpubkey_type": "p2pkh",
        "scriptpubkey_address": "12ZzHDWR8P5hxzUdw7heHiyrZ7UdVB6B6n",
        "value": 883400
      },
      "scriptsig": "473044022062cd3a6ea52324321b46153d63fc51f4a9a8566aab21252bc78ecf3b05d2e75302200d9453810c64506a3169c5b4bf46b63643f558409dd881cec61770810c3bc0c101210336cd6419f5d270153dfa16dc1ad8a7488fc1f1add70a4c61a69bdfe3c54269ed",
      "scriptsig_asm": "OP_PUSHBYTES_71 3044022062cd3a6ea52324321b46153d63fc51f4a9a8566aab21252bc78ecf3b05d2e75302200d9453810c64506a3169c5b4bf46b63643f558409dd881cec61770810c3bc0c101 OP_PUSHBYTES_33 0336cd6419f5d270153dfa16dc1ad8a7488fc1f1add70a4c61a69bdfe3c54269ed",
      "is_coinbase": false,
      "sequence": 4294967293
    }
  ],
  "vout": [
    {
      "scriptpubkey": "001449f61ac28db61e433b7902dca8fcfa86c1cf7399",
      "scriptpubkey_asm": "OP_0 OP_PUSHBYTES_20 49f61ac28db61e433b7902dca8fcfa86c1cf7399",
      "scriptpubkey_type": "v0_p2wpkh",
      "scriptpubkey_address": "bc1qf8mp4s5dkc0yxwmeqtw23l86smqu7uue7p4kze",
      "value": 100000
    },
    {
      "scriptpubkey": "76a9141135404b232bde6e8c9b149488af446955901a2988ac",
      "scriptpubkey_asm": "OP_DUP OP_HASH160 OP_PUSHBYTES_20 1135404b232bde6e8c9b149488af446955901a29 OP_EQUALVERIFY OP_CHECKSIG",
      "scriptpubkey_type": "p2pkh",
      "scriptpubkey_address": "12ZzHDWR8P5hxzUdw7heHiyrZ7UdVB6B6n",
      "value": 777300
    }
  ],
  "size": 222,
  "weight": 888,
  "fee": 6100,
  "status": {
    "confirmed": true,
    "block_height": 834638,
    "block_hash": "000000000000000000025f742c626208ac87e0b7d15054abb4a19ca2d735a54e",
    "block_time": 1710405325
  },
  "hex": "0200000001fe81bd70389b8549dd76ba1b68b2ebbd9bfb0067d8289b13bb4d0c86d898e923010000006a473044022062cd3a6ea52324321b46153d63fc51f4a9a8566aab21252bc78ecf3b05d2e75302200d9453810c64506a3169c5b4bf46b63643f558409dd881cec61770810c3bc0c101210336cd6419f5d270153dfa16dc1ad8a7488fc1f1add70a4c61a69bdfe3c54269edfdffffff02a08601000000000016001449f61ac28db61e433b7902dca8fcfa86c1cf739954dc0b00000000001976a9141135404b232bde6e8c9b149488af446955901a2988ac4cbc0c00"
}