{
  "txid": "2e642f5b8ffd0aefc455ed55ec83e8956cf660de757e040ccf9a31039807beb3",
  "version": 1,
  "locktime": 0,
  "vin": [
    {
      "txid": "f79f4a09200b70e36bf1d5cf4d1ffd151ba526180497df925118e70b8b2e9e43",
      "vout": 0,
      "prevout": {
        "scriptpubkey": "0014a88aa16bfb9d5513c114a01232d09ccdec5e97bd",
        "scriptpubkey_asm": "OP_0 OP_PUSHBYTES_20 a88aa16bfb9d5513c114a01232d09ccdec5e97bd",
        "scriptpubkey_type": "v0_p2wpkh",
        "scriptpubkey_address": "bc1q4z92z6lmn4238sg55qfr95yuehk9a9aawnd3w9",
        "value": 1832
      },
      "scriptsig": "",
      "scriptsig_asm": "",
      "witness": [
        "30440220254841818bae1a698594c3b93f7861cd2a8b3a0723279c0bb7bea830f10891a902205778ec8f799384f54049b909bb2c6b168b151c65053433a18fbdb54737b607ca01",
        "027dba256f17ded69089dee668d101390b7a2b892ebc2cad76f322e7a188f3424b"
      ],
      "is_coinbase": false,
      "sequence": 4294967295
    },
    {
      "txid": "88aa074f86d30fbffe1b31ba99f79edb448e859f5585a9cfa2cdb24510a672d4",
      "vout": 1,
      "prevout": {
        "scriptpubkey": "00144e809a7289581c9ed5e1d4cdb6e51e1035d39ae5",
        "scriptpubkey_asm": "OP_0 OP_PUSHBYTES_20 4e809a7289581c9ed5e1d4cdb6e51e1035d39ae5",
        "scriptpubkey_type": "v0_p2wpkh",
        "scriptpubkey_address": "bc1qf6qf5u5ftqwfa40p6nxmdeg7zq6a8xh90m079x",
        "value": 2300993
      },
      "scriptsig": "",
      "scriptsig_asm": "",
      "witness": [
        "30450221009742ba65a833e63f1b7aa0e0da28c4ebe38208cbc104525ebf6cb6970a85f8c00220284022acda477c6554cfb241c043b1aca8d1d123e33d8d5e9369939652e3acd501",
        "03d14641b0c1242ee18190a3a8085900c458273fce322d3e2f5da9c6ef2ad63907"
      ],
      "is_coinbase": false,
      "sequence": 4294967295
    }
  ],
  "vout": [
    {
      "scriptpubkey": "0014427edb97b5dec5dd639ba4b16aa7bb6b08857965",
      "scriptpubkey_asm": "OP_0 OP_PUSHBYTES_20 427edb97b5dec5dd639ba4b16aa7bb6b08857965",
      "scriptpubkey_type": "v0_p2wpkh",
      "scriptpubkey_address": "bc1qgfldh9a4mmza6cum5jck4famdvyg27t986tqhs",
      "value": 31800
    },
    {
      "scriptpubkey": "0014397388f761df3c8704566630e684488bd4e232e5",
      "scriptpubkey_asm": "OP_0 OP_PUSHBYTES_20 397388f761df3c8704566630e684488bd4e232e5",
      "scriptpubkey_type": "v0_p2wpkh",
      "scriptpubkey_address": "bc1q89ec3ampmu7gwpzkvccwdpzg302wyvh9p0gma8",
      "value": 2267911
    }
  ],
  "size": 371,
  "weight": 833,
  "fee": 3114,
  "status": {
    "confirmed": true,
    "block_height": 834638,
    "block_hash": "000000000000000000025f742c626208ac87e0b7d15054abb4a19ca2d735a54e",
    "block_time": 1710405325
  },
  "hex": "01000000000102439e2e8b0be7185192df97041826a51b15fd1f4dcfd5f16be3700b20094a9ff70000000000ffffffffd472a61045b2cda2cfa985559f858e44db9ef799ba311bfebf0fd3864f07aa880100000000ffffffff02387c000000000000160014427edb97b5dec5dd639ba4b16aa7bb6b08857965079b220000000000160014397388f761df3c8704566630e684488bd4e232e5024730440220254841818bae1a698594c3b93f7861cd2a8b3a0723279c0bb7bea830f10891a902205778ec8f799384f54049b909bb2c6b168b151c65053433a18fbdb54737b607ca0121027dba256f17ded69089dee668d101390b7a2b892ebc2cad76f322e7a188f3424b024830450221009742ba65a833e63f1b7aa0e0da28c4ebe38208cbc104525ebf6cb6970a85f8c00220284022acda477c6554cfb241c043b1aca8d1d123e33d8d5e9369939652e3acd5012103d14641b0c1242ee18190a3a8085900c458273fce322d3e2f5da9c6ef2ad6390700000000"
}