{
  "txid": "2e67de5e2d57d20ad1f02bdad085a390e3e28c2aa4e944bfe2233d0ef4ad7ee0",
  "version": 1,
  "locktime": 0,
  "vin": [
    {
      "txid": "702f85a827b9edb33e0fa76b5d7a073c4683423a0a6127bcca98245d9182cde1",
      "vout": 213,
      "prevout": {
        "scriptpubkey": "5120dc4de0b00a3975b930f7276ecfee0bd17d0b0bee0bc3a23c8036eca5f89095d9",
        "scriptpubkey_asm": "OP_PUSHNUM_1 OP_PUSHBYTES_32 dc4de0b00a3975b930f7276ecfee0bd17d0b0bee0bc3a23c8036eca5f89095d9",
        "scriptpubkey_type": "v1_p2tr",
        "scriptpubkey_address": "bc1pm3x7pvq2896mjv8hyahvlmst697skzlwp0p6y0yqxmk2t7ysjhvsuk6qhs",
        "value": 262144
      },
      "scriptsig": "",
      "scriptsig_asm": "",
      "witness": [
        "d38c1db72fb797936bed9af71a956d96209540aa9f157946c7d69e3a1456ce7eef143e721ba09a4cf858995ac878df7e72667937644238ff3424790e3edee39e"
      ],
      "is_coinbase": false,
      "sequence": 4294967293
    },
    {
      "txid": "702f85a827b9edb33e0fa76b5d7a073c4683423a0a6127bcca98245d9182cde1",
      "vout": 77,
      "prevout": {
        "scriptpubkey": "00145b1fc38fb27d0fa2fe49cc91dcff572de5f3e968",
        "scriptpubkey_asm": "OP_0 OP_PUSHBYTES_20 5b1fc38fb27d0fa2fe49cc91dcff572de5f3e968",
        "scriptpubkey_type": "v0_p2wpkh",
        "scriptpubkey_address": "bc1qtv0u8raj05869ljfejgael6h9hjl86tgsgdpsc",
        "value": 5000000
      },
      "scriptsig": "",
      "scriptsig_asm": "",
      "witness": [
        "3044022015ea8d1c35d3403a71bf0b9a42ed562888f18c8e6ee35f78a808914b3b24098802203c794455c55249dad44a5b4356b90d495c01a592d8293ad62fc20bb338cf69f701",
        "0278455062fb637867016c7b2160427383a785b8b1c3cdd0fcf8a1bb5b39fb8d8e"
      ],
      "is_coinbase": false,
      "sequence": 4294967293
    },
    {
      "txid": "702f85a827b9edb33e0fa76b5d7a073c4683423a0a6127bcca98245d9182cde1",
      "vout": 125,
      "prevout": {
        "scriptpubkey": "0014c06e24e7fabdf36fe22691c2026d2101fa9ad55f",
        "scriptpubkey_asm": "OP_0 OP_PUSHBYTES_20 c06e24e7fabdf36fe22691c2026d2101fa9ad55f",
        "scriptpubkey_type": "v0_p2wpkh",
        "scriptpubkey_address": "bc1qcphzfel6hheklc3xj8pqymfpq8af442lczek0x",
        "value": 2097152
      },
      "scriptsig": "",
      "scriptsig_asm": "",
      "witness": [
        "304402207f781382e8ddffb22972470ec6c720d3e39fd912d76b32e6924c21a0df7387130220345acd640c3aa68bcfad97e779c7908016dd30cf9ba48632fba86443ba45bb3601",
        "03c1638fdf333882ac9216060229cc746d825b1adf1e223c517cbe468099e2f395"
      ],
      "is_coinbase": false,
      "sequence": 4294967293
    },
    {
      "txid": "702f85a827b9edb33e0fa76b5d7a073c4683423a0a6127bcca98245d9182cde1",
      "vout": 126,
      "prevout": {
        "scriptpubkey": "0014ca96f82f2308833db53a5b920dbbe51bcf58145a",
        "scriptpubkey_asm": "OP_0 OP_PUSHBYTES_20 ca96f82f2308833db53a5b920dbbe51bcf58145a",
        "scriptpubkey_type": "v0_p2wpkh",
        "scriptpubkey_address": "bc1qe2t0sterpzpnmdf6twfqmwl9r084s9z653v8s4",
        "value": 2097152
      },
      "scriptsig": "",
      "scriptsig_asm": "",
      "witness": [
        "30440220046b3fe690292f38f70b5fa7f2ae977d9d4fdee45aa511e53eff8adb8b526985022040c0ca4aaa1fa21e413666aa8cfa8d46a9e490a2d7b83000d546f6d7ec9c5bcd01",
        "03d1c94f8707086ce9e7b8f1d81e5199d1802db2514bc0d9868be3c7246d671e78"
      ],
      "is_coinbase": false,
      "sequence": 4294967293
    }
  ],
  "vout": [
    {
      "scriptpubkey": "0014083e94f508727d1d884cf23cbc7341056d75b81f",
      "scriptpubkey_asm": "OP_0 OP_PUSHBYTES_20 083e94f508727d1d884cf23cbc7341056d75b81f",
      "scriptpubkey_type": "v0_p2wpkh",
      "scriptpubkey_address": "bc1qpqlffaggwf73mzzv7g7tcu6pq4khtwql8ffqz4",
      "value": 9422964
    },
    {
      "scriptpubkey": "5120d90c832354e494bdffe964c94f4c51358097b7d9931a32162ce137e5f51bdbd2",
      "scriptpubkey_asm": "OP_PUSHNUM_1 OP_PUSHBYTES_32 d90c832354e494bdffe964c94f4c51358097b7d9931a32162ce137e5f51bdbd2",
      "scriptpubkey_type": "v1_p2tr",
      "scriptpubkey_address": "bc1pmyxgxg65uj2tmllfvny57nz3xkqf0d7ejvdry93vuym7tagmm0fq56ufkl",
      "value": 27932
    }
  ],
  "size": 637,
  "weight": 1381,
  "fee": 5552,
  "status": {
    "confirmed": true,
    "block_height": 834460,
    "block_hash": "00000000000000000000484a79b643b2524bbce82e5d8a442013fa5b8905ed98",
    "block_time": 1710307468
  },
  "hex": "01000000000104e1cd82915d2498cabc27610a3a4283463c077a5d6ba70f3eb3edb927a8852f70d500000000fdffffffe1cd82915d2498cabc27610a3a4283463c077a5d6ba70f3eb3edb927a8852f704d00000000fdffffffe1cd82915d2498cabc27610a3a4283463c077a5d6ba70f3eb3edb927a8852f707d00000000fdffffffe1cd82915d2498cabc27610a3a4283463c077a5d6ba70f3eb3edb927a8852f707e00000000fdffffff0274c88f0000000000160014083e94f508727d1d884cf23cbc7341056d75b81f1c6d000000000000225120d90c832354e494bdffe964c94f4c51358097b7d9931a32162ce137e5f51bdbd20140d38c1db72fb797936bed9af71a956d96209540aa9f157946c7d69e3a1456ce7eef143e721ba09a4cf858995ac878df7e72667937644238ff3424790e3edee39e02473044022015ea8d1c35d3403a71bf0b9a42ed562888f18c8e6ee35f78a808914b3b24098802203c794455c55249dad44a5b4356b90d495c01a592d8293ad62fc20bb338cf69f701210278455062fb637867016c7b2160427383a785b8b1c3cdd0fcf8a1bb5b39fb8d8e0247304402207f781382e8ddffb22972470ec6c720d3e39fd912d76b32e6924c21a0df7387130220345acd640c3aa68bcfad97e779c7908016dd30cf9ba48632fba86443ba45bb36012103c1638fdf333882ac9216060229cc746d825b1adf1e223c517cbe468099e2f395024730440220046b3fe690292f38f70b5fa7f2ae977d9d4fdee45aa511e53eff8adb8b526985022040c0ca4aaa1fa21e413666aa8cfa8d46a9e490a2d7b83000d546f6d7ec9c5bcd012103d1c94f8707086ce9e7b8f1d81e5199d1802db2514bc0d9868be3c7246d671e7800000000"
}