{
  "txid": "2e80a1610012131bf28257bfded51396198135871080a41aa9dd919a3e151d4b",
  "version": 1,
  "locktime": 0,
  "vin": [
    {
      "txid": "29dccd0d10c4122578294ae20c9d754b8846bbd014c0755516494b0d15a56f98",
      "vout": 1,
      "prevout": {
        "scriptpubkey": "0014ffb8eefe7520ac406ac8b1ed2e1f086571ff360c",
        "scriptpubkey_asm": "OP_0 OP_PUSHBYTES_20 ffb8eefe7520ac406ac8b1ed2e1f086571ff360c",
        "scriptpubkey_type": "v0_p2wpkh",
        "scriptpubkey_address": "bc1ql7uwaln4yzkyq6kgk8kju8cgv4cl7dsvhzdmjh",
        "value": 32389170
      },
      "scriptsig": "",
      "scriptsig_asm": "",
      "witness": [
        "3045022100c9e2a98b45930a5e547702c05e6d2a49637abefdec64e2af0c36d64eebb861f0022030da25e3c7efa8b476a8cab1ff0c1a417e0b553c5fea570aef4e411ad7c0757101",
        "034131d9e37dea9d91805c9adf17700bb2ba77759512f311659b68d80f8042480a"
      ],
      "is_coinbase": false,
      "sequence": 4294967295
    }
  ],
  "vout": [
    {
      "scriptpubkey": "0014d81fbeba9752dca6712b445e7ce5d869b0376269",
      "scriptpubkey_asm": "OP_0 OP_PUSHBYTES_20 d81fbeba9752dca6712b445e7ce5d869b0376269",
      "scriptpubkey_type": "v0_p2wpkh",
      "scriptpubkey_address": "bc1qmq0maw5h2tw2vuftg308eewcdxcrwcnfpdk7xj",
      "value": 554635
    },
    {
      "scriptpubkey": "001427e3b52b6da3ecda40ef55075618b3bddf94bd0f",
      "scriptpubkey_asm": "OP_0 OP_PUSHBYTES_20 27e3b52b6da3ecda40ef55075618b3bddf94bd0f",
      "scriptpubkey_type": "v0_p2wpkh",
      "scriptpubkey_address": "bc1qyl3m22md50kd5s8025r4vx9nhh0ef0g0damtwr",
      "value": 724240
    },
    {
      "scriptpubkey": "00149e9eb31d5daef80858683814f743ff599a2e22b5",
      "scriptpubkey_asm": "OP_0 OP_PUSHBYTES_20 9e9eb31d5daef80858683814f743ff599a2e22b5",
      "scriptpubkey_type": "v0_p2wpkh",
      "scriptpubkey_address": "bc1qn60tx82a4muqskrg8q20wslltxdzug44694ap9",
      "value": 31107887
    }
  ],
  "size": 254,
  "weight": 686,
  "fee": 2408,
  "status": {
    "confirmed": true,
    "block_height": 834460,
    "block_hash": "00000000000000000000484a79b643b2524bbce82e5d8a442013fa5b8905ed98",
    "block_time": 1710307468
  },
  "hex": "01000000000101986fa5150d4b49165575c014d0bb46884b759d0ce24a29782512c4100dcddc290100000000ffffffff038b76080000000000160014d81fbeba9752dca6712b445e7ce5d869b0376269100d0b000000000016001427e3b52b6da3ecda40ef55075618b3bddf94bd0f2fabda01000000001600149e9eb31d5daef80858683814f743ff599a2e22b502483045022100c9e2a98b45930a5e547702c05e6d2a49637abefdec64e2af0c36d64eebb861f0022030da25e3c7efa8b476a8cab1ff0c1a417e0b553c5fea570aef4e411ad7c075710121034131d9e37dea9d91805c9adf17700bb2ba77759512f311659b68d80f8042480a00000000"
}