{
  "txid": "2e820ffbb7e6c0cefd39b5f1b4b3dfd099acf5449be3aea4097245f2b08b1252",
  "version": 2,
  "locktime": 834621,
  "vin": [
    {
      "txid": "04e496904296a5c7fb472adb24ec6da91f150cb1861bdca82ee40d37e2317e5e",
      "vout": 1,
      "prevout": {
        "scriptpubkey": "001494f5d8b3324a3ef75abd7456f7084e061e24bf95",
        "scriptpubkey_asm": "OP_0 OP_PUSHBYTES_20 94f5d8b3324a3ef75abd7456f7084e061e24bf95",
        "scriptpubkey_type": "v0_p2wpkh",
        "scriptpubkey_address": "bc1qjn6a3vejfgl0wk4aw3t0wzzwqc0zf0u4mzt3r0",
        "value": 58033016
      },
      "scriptsig": "",
      "scriptsig_asm": "",
      "witness": [
        "304402207d73ee19339a06eb7c12ece3366f4f81bc8c5e289919127ed2458515f97ff54e022059348fe049ef4b4a55030870a6550297f718a9891a32fc5e464e2206e27f1d8501",
        "0304fe879b00886acb4cdeb69292ab2ba6ac37b735328692f1c142cadf88682388"
      ],
      "is_coinbase": false,
      "sequence": 4294967294
    }
  ],
  "vout": [
    {
      "scriptpubkey": "0014cda7cde6e9e27034551095d7a76accbbafbf044e",
      "scriptpubkey_asm": "OP_0 OP_PUSHBYTES_20 cda7cde6e9e27034551095d7a76accbbafbf044e",
      "scriptpubkey_type": "v0_p2wpkh",
      "scriptpubkey_address": "bc1qeknumehfufcrg4gsjht6w6kvhwhm7pzw8vv8mn",
      "value": 152200
    },
    {
      "scriptpubkey": "0014e5d44408fec270000def0a7887cbffb9d941596a",
      "scriptpubkey_asm": "OP_0 OP_PUSHBYTES_20 e5d44408fec270000def0a7887cbffb9d941596a",
      "scriptpubkey_type": "v0_p2wpkh",
      "scriptpubkey_address": "bc1quh2ygz87cfcqqr00pfug0jllh8v5zkt2amq62m",
      "value": 57869536
    }
  ],
  "size": 222,
  "weight": 561,
  "fee": 11280,
  "status": {
    "confirmed": true,
    "block_height": 834638,
    "block_hash": "000000000000000000025f742c626208ac87e0b7d15054abb4a19ca2d735a54e",
    "block_time": 1710405325
  },
  "hex": "020000000001015e7e31e2370de42ea8dc1b86b10c151fa96dec24db2a47fbc7a596429096e4040100000000feffffff028852020000000000160014cda7cde6e9e27034551095d7a76accbbafbf044ee004730300000000160014e5d44408fec270000def0a7887cbffb9d941596a0247304402207d73ee19339a06eb7c12ece3366f4f81bc8c5e289919127ed2458515f97ff54e022059348fe049ef4b4a55030870a6550297f718a9891a32fc5e464e2206e27f1d8501210304fe879b00886acb4cdeb69292ab2ba6ac37b735328692f1c142cadf886823883dbc0c00"
}