{
  "txid": "2e8ec197d28e2e290e77067caad46e6ab6b66e13ce14b06d6885b444573335bf",
  "version": 2,
  "locktime": 0,
  "vin": [
    {
      "txid": "3b6d05446036a99cd9467893dc2041ce7c31c7977753fa0ce9372ff2e94e5db8",
      "vout": 0,
      "prevout": {
        "scriptpubkey": "5120bea0a1cccd44248db8b2ac6704de16b3b4f50d74897d646b8974a7977d006b12",
        "scriptpubkey_asm": "OP_PUSHNUM_1 OP_PUSHBYTES_32 bea0a1cccd44248db8b2ac6704de16b3b4f50d74897d646b8974a7977d006b12",
        "scriptpubkey_type": "v1_p2tr",
        "scriptpubkey_address": "bc1ph6s2rnxdgsjgmw9j43nsfhskkw602rt5397kg6ufwjnewlgqdvfqmqqv5q",
        "value": 19000
      },
      "scriptsig": "",
      "scriptsig_asm": "",
      "witness": [
        "cf9669dfa1bd23136a220cbf314f1e1b68095ae918f9becd29f078cfab10ea312669f32b580188068cbe20bb38739df03d8d9a63c496960740dd89054b97e8c3",
        "20dd898cdcff191e6d20509e11c03ec7d1a2a2a6bfbb30beea6d0ee78bd3145588ac0063036f7264010118746578742f706c61696e3b636861727365743d7574662d3800073030312e62746368",
        "c0fd409ad511758e81df4d2d0a2798ae74e4a32b94ead6fc2e8c8f070bdb6b8097"
      ],
      "is_coinbase": false,
      "sequence": 4294967293
    }
  ],
  "vout": [
    {
      "scriptpubkey": "51206ae861785fbdae9bc6163a8a8ed044e8a921c6b7483a2a8d02c6c44e7f26fcd3",
      "scriptpubkey_asm": "OP_PUSHNUM_1 OP_PUSHBYTES_32 6ae861785fbdae9bc6163a8a8ed044e8a921c6b7483a2a8d02c6c44e7f26fcd3",
      "scriptpubkey_type": "v1_p2tr",
      "scriptpubkey_address": "bc1pdt5xz7zlhkhfh3sk829ga5zyaz5jr34hfqaz4rgzcmzyulexlnfsf3qkja",
      "value": 546
    },
    {
      "scriptpubkey": "5120457618ae409e9d5dacc7e83609d1c4c0541553fdd596cc94b1d2f88696e89d94",
      "scriptpubkey_asm": "OP_PUSHNUM_1 OP_PUSHBYTES_32 457618ae409e9d5dacc7e83609d1c4c0541553fdd596cc94b1d2f88696e89d94",
      "scriptpubkey_type": "v1_p2tr",
      "scriptpubkey_address": "bc1pg4mp3tjqn6w4mtx8aqmqn5wycp2p25la6ktve9936tugd9hgnk2qf3eslv",
      "value": 2353
    },
    {
      "scriptpubkey": "5120f311349bf414df79c9a448ce477961665aedfb9ba15eb3e839bd070a97e5909a",
      "scriptpubkey_asm": "OP_PUSHNUM_1 OP_PUSHBYTES_32 f311349bf414df79c9a448ce477961665aedfb9ba15eb3e839bd070a97e5909a",
      "scriptpubkey_type": "v1_p2tr",
      "scriptpubkey_address": "bc1p7vgnfxl5zn0hnjdyfr8yw7tpvedwm7um590t86peh5rs49l9jzdq8vlfvj",
      "value": 2353
    },
    {
      "scriptpubkey": "51209a6db8e5119e819bf3bb51f2536ca3717b54d70ea2b4eab8adf21e10beef4970",
      "scriptpubkey_asm": "OP_PUSHNUM_1 OP_PUSHBYTES_32 9a6db8e5119e819bf3bb51f2536ca3717b54d70ea2b4eab8adf21e10beef4970",
      "scriptpubkey_type": "v1_p2tr",
      "scriptpubkey_address": "bc1pnfkm3eg3n6qehuam28e9xm9rw9a4f4cw526w4w9d7g0pp0h0f9cqtfyujg",
      "value": 2353
    },
    {
      "scriptpubkey": "0014bf6d684f4dc0a155abc089ad1cb7d592965613fe",
      "scriptpubkey_asm": "OP_0 OP_PUSHBYTES_20 bf6d684f4dc0a155abc089ad1cb7d592965613fe",
      "scriptpubkey_type": "v0_p2wpkh",
      "scriptpubkey_address": "bc1qhakksn6dczs4t27q3xk3ed74j2t9vyl7sgcxhl",
      "value": 7508
    }
  ],
  "size": 434,
  "weight": 1196,
  "fee": 3887,
  "status": {
    "confirmed": true,
    "block_height": 834460,
    "block_hash": "00000000000000000000484a79b643b2524bbce82e5d8a442013fa5b8905ed98",
    "block_time": 1710307468
  },
  "hex": "02000000000101b85d4ee9f22f37e90cfa537797c7317cce4120dc937846d99ca9366044056d3b0000000000fdffffff0522020000000000002251206ae861785fbdae9bc6163a8a8ed044e8a921c6b7483a2a8d02c6c44e7f26fcd33109000000000000225120457618ae409e9d5dacc7e83609d1c4c0541553fdd596cc94b1d2f88696e89d943109000000000000225120f311349bf414df79c9a448ce477961665aedfb9ba15eb3e839bd070a97e5909a31090000000000002251209a6db8e5119e819bf3bb51f2536ca3717b54d70ea2b4eab8adf21e10beef4970541d000000000000160014bf6d684f4dc0a155abc089ad1cb7d592965613fe0340cf9669dfa1bd23136a220cbf314f1e1b68095ae918f9becd29f078cfab10ea312669f32b580188068cbe20bb38739df03d8d9a63c496960740dd89054b97e8c34d20dd898cdcff191e6d20509e11c03ec7d1a2a2a6bfbb30beea6d0ee78bd3145588ac0063036f7264010118746578742f706c61696e3b636861727365743d7574662d3800073030312e6274636821c0fd409ad511758e81df4d2d0a2798ae74e4a32b94ead6fc2e8c8f070bdb6b809700000000"
}