{
  "txid": "2e9a28d72f9cb208297d12289ca3596063329e9e1090394db4240f189862c330",
  "version": 2,
  "locktime": 0,
  "vin": [
    {
      "txid": "a7ca317aa81981d99356cf6bce3b19aaed7dbbd0282879a363381007a717c74a",
      "vout": 0,
      "prevout": {
        "scriptpubkey": "51208fd5e5f84f966e2e0bee3f53920bb4307a3841202af5a35dfa7e381a7331e8e5",
        "scriptpubkey_asm": "OP_PUSHNUM_1 OP_PUSHBYTES_32 8fd5e5f84f966e2e0bee3f53920bb4307a3841202af5a35dfa7e381a7331e8e5",
        "scriptpubkey_type": "v1_p2tr",
        "scriptpubkey_address": "bc1p3l27t7z0jehzuzlw8afeyza5xparssfq9t66xh060cup5ue3arjseac97n",
        "value": 2978
      },
      "scriptsig": "",
      "scriptsig_asm": "",
      "witness": [
        "76b3c2b285b2cffdc031db34e7b5b1060f71b4e3e52be5f2ffa79428d36139e4c28a49e8edc7047453e9ea2c365b958dd95f3da1df0b7c047de036f043fdf178",
        "20f0fa0c3dc097e649ed74789231ba6fb703d2daeef7ecd8901de265c7f49949a6ac0063036f7264010118746578742f706c61696e3b636861727365743d7574662d38003b7b2270223a226272632d3230222c226f70223a227472616e73666572222c227469636b223a227069696e222c22616d74223a22353030303030227d68",
        "c1f0fa0c3dc097e649ed74789231ba6fb703d2daeef7ecd8901de265c7f49949a6"
      ],
      "is_coinbase": false,
      "sequence": 4294967293
    }
  ],
  "vout": [
    {
      "scriptpubkey": "5120287bcc0a7d5d7a4c889a2493c6066f7447cfcca90993196dcd8166a83d5a6eb3",
      "scriptpubkey_asm": "OP_PUSHNUM_1 OP_PUSHBYTES_32 287bcc0a7d5d7a4c889a2493c6066f7447cfcca90993196dcd8166a83d5a6eb3",
      "scriptpubkey_type": "v1_p2tr",
      "scriptpubkey_address": "bc1p9paucznat4ayezy6yjfuvpn0w3ruln9fpxf3jmwds9n2s026d6esug2nez",
      "value": 546
    }
  ],
  "size": 326,
  "weight": 608,
  "fee": 2432,
  "status": {
    "confirmed": true,
    "block_height": 834464,
    "block_hash": "0000000000000000000177a0869a911a2b65c9bdcd5a8bcb02b68f305bee848e",
    "block_time": 1710308296
  },
  "hex": "020000000001014ac717a707103863a3792828d0bb7dedaa193bce6bcf5693d98119a87a31caa70000000000fdffffff012202000000000000225120287bcc0a7d5d7a4c889a2493c6066f7447cfcca90993196dcd8166a83d5a6eb3034076b3c2b285b2cffdc031db34e7b5b1060f71b4e3e52be5f2ffa79428d36139e4c28a49e8edc7047453e9ea2c365b958dd95f3da1df0b7c047de036f043fdf1788120f0fa0c3dc097e649ed74789231ba6fb703d2daeef7ecd8901de265c7f49949a6ac0063036f7264010118746578742f706c61696e3b636861727365743d7574662d38003b7b2270223a226272632d3230222c226f70223a227472616e73666572222c227469636b223a227069696e222c22616d74223a22353030303030227d6821c1f0fa0c3dc097e649ed74789231ba6fb703d2daeef7ecd8901de265c7f49949a600000000"
}