{
  "txid": "2ebec5ad12c46e226578c88154097977cdd7384df4b47c98ae1b5a73009b8d0c",
  "version": 1,
  "locktime": 0,
  "vin": [
    {
      "txid": "5b9d27a48011a5ab695bcf9367ff3ef952202b5f6b7f8cda1359753b46f45430",
      "vout": 0,
      "prevout": {
        "scriptpubkey": "001480d87e79878a28ed13db2cb7ed5a7a72d31a48ac",
        "scriptpubkey_asm": "OP_0 OP_PUSHBYTES_20 80d87e79878a28ed13db2cb7ed5a7a72d31a48ac",
        "scriptpubkey_type": "v0_p2wpkh",
        "scriptpubkey_address": "bc1qsrv8u7v83g5w6y7m9jm76kn6wtf35j9vcyc0zz",
        "value": 6472900
      },
      "scriptsig": "",
      "scriptsig_asm": "",
      "witness": [
        "3045022100e312a49bdc5768b7eec9f44cd3f002a3483566106d7d14ce041bc6d8aabdec5202207d08ce9bc00b37cb23924c1b8c7abe49c969f65ed16e85b3e2f2f2b27fab764a01",
        "037a97ade184992142ea6a73e1b8eb09470570b3451f4dd61d382edcf5265eee82"
      ],
      "is_coinbase": false,
      "sequence": 4294967295
    }
  ],
  "vout": [
    {
      "scriptpubkey": "76a91497a89e7f65ba9a65c8f68e5979040e107531252f88ac",
      "scriptpubkey_asm": "OP_DUP OP_HASH160 OP_PUSHBYTES_20 97a89e7f65ba9a65c8f68e5979040e107531252f OP_EQUALVERIFY OP_CHECKSIG",
      "scriptpubkey_type": "p2pkh",
      "scriptpubkey_address": "1Epu2q5tFtbeouCbfDrZrP64rG5PLho7yi",
      "value": 6470660
    }
  ],
  "size": 195,
  "weight": 450,
  "fee": 2240,
  "status": {
    "confirmed": true,
    "block_height": 834638,
    "block_hash": "000000000000000000025f742c626208ac87e0b7d15054abb4a19ca2d735a54e",
    "block_time": 1710405325
  },
  "hex": "010000000001013054f4463b755913da8c7f6b5f2b2052f93eff6793cf5b69aba51180a4279d5b0000000000ffffffff0104bc6200000000001976a91497a89e7f65ba9a65c8f68e5979040e107531252f88ac02483045022100e312a49bdc5768b7eec9f44cd3f002a3483566106d7d14ce041bc6d8aabdec5202207d08ce9bc00b37cb23924c1b8c7abe49c969f65ed16e85b3e2f2f2b27fab764a0121037a97ade184992142ea6a73e1b8eb09470570b3451f4dd61d382edcf5265eee8200000000"
}