{
  "txid": "2ec5526c4758f999f5cc4368bca65ae33355bf935e7182ace2c55fc2aeb6beb7",
  "version": 2,
  "locktime": 0,
  "vin": [
    {
      "txid": "bc60f226d8b070c484308eaea904d3acde2e3abf4fbf8d8481e78290a81b16b7",
      "vout": 1,
      "prevout": {
        "scriptpubkey": "a914fbff9e7396e96cf2cdaf08188f8f1ead7c7cdb1a87",
        "scriptpubkey_asm": "OP_HASH160 OP_PUSHBYTES_20 fbff9e7396e96cf2cdaf08188f8f1ead7c7cdb1a OP_EQUAL",
        "scriptpubkey_type": "p2sh",
        "scriptpubkey_address": "3QfTkQh6nZn5KChL1T7pausSPbpT7arcTz",
        "value": 30894
      },
      "scriptsig": "160014969372977819361f4656c48535c25a87adb6ae21",
      "scriptsig_asm": "OP_PUSHBYTES_22 0014969372977819361f4656c48535c25a87adb6ae21",
      "witness": [
        "304402202df17c7784a28ef575f9c2354a3a4a5c058612e37f2612a89c3ee0ed1a6f829102203c0d202826c06e5fe0e16e653b9f1ba19eecb217835b43f2ca2a6120123e671001",
        "03188df82b11b8d7da91ad3b6fa424553503234dd24fa469115cdd763824618fd3"
      ],
      "is_coinbase": false,
      "sequence": 4294967295,
      "inner_redeemscript_asm": "OP_0 OP_PUSHBYTES_20 969372977819361f4656c48535c25a87adb6ae21"
    }
  ],
  "vout": [
    {
      "scriptpubkey": "a9147e1ab6e7dd3c282dcd2f998f427361460f66ce0e87",
      "scriptpubkey_asm": "OP_HASH160 OP_PUSHBYTES_20 7e1ab6e7dd3c282dcd2f998f427361460f66ce0e OP_EQUAL",
      "scriptpubkey_type": "p2sh",
      "scriptpubkey_address": "3DBo4sLW5LPhegDuxC4NCC1kbHxvptvpp8",
      "value": 29444
    }
  ],
  "size": 215,
  "weight": 533,
  "fee": 1450,
  "status": {
    "confirmed": true,
    "block_height": 834464,
    "block_hash": "0000000000000000000177a0869a911a2b65c9bdcd5a8bcb02b68f305bee848e",
    "block_time": 1710308296
  },
  "hex": "02000000000101b7161ba89082e781848dbf4fbf3a2edeacd304a9ae8e3084c470b0d826f260bc0100000017160014969372977819361f4656c48535c25a87adb6ae21ffffffff01047300000000000017a9147e1ab6e7dd3c282dcd2f998f427361460f66ce0e870247304402202df17c7784a28ef575f9c2354a3a4a5c058612e37f2612a89c3ee0ed1a6f829102203c0d202826c06e5fe0e16e653b9f1ba19eecb217835b43f2ca2a6120123e6710012103188df82b11b8d7da91ad3b6fa424553503234dd24fa469115cdd763824618fd300000000"
}