{
  "txid": "2ec861de74f4ee19bb41c910c8cd041538f2ad94a92729115e72c7b6159441b7",
  "version": 2,
  "locktime": 0,
  "vin": [
    {
      "txid": "d2dda4c08eb46128861dbd7888afdc57f54e91525017dfca043206965686fb81",
      "vout": 0,
      "prevout": {
        "scriptpubkey": "5120ede757d3fbf1a16aa6d77db679e75f86bfb70956f08e21323a14af1954c26265",
        "scriptpubkey_asm": "OP_PUSHNUM_1 OP_PUSHBYTES_32 ede757d3fbf1a16aa6d77db679e75f86bfb70956f08e21323a14af1954c26265",
        "scriptpubkey_type": "v1_p2tr",
        "scriptpubkey_address": "bc1pahn405lm7xsk4fkh0km8ne6ls6lmwz2k7z8zzv36zjh3j4xzvfjspvzp07",
        "value": 43000
      },
      "scriptsig": "",
      "scriptsig_asm": "",
      "witness": [
        "378f3b01455db861684422add4adf0950a8cd63d4906c20c82dbc0b6ad7d402e756a99a94e96a69f4a54afadff93fc59ced36e39b081f0360e40e91c3f6912ba",
        "20c767ec662fd1372327477d9e0d11993f70e8ecea6c0cefe34fb9838186aeab67ac0063036f726401011e6170706c69636174696f6e2f6a736f6e3b636861727365743d7574662d38004cd37b2270223a22706f772d3230222c226f70223a226d696e74222c227469636b223a2250455045222c22616d74223a2231303030222c22736f6c7574696f6e223a22504550453a62633170746e776d6a6c6e30347468677938776d3632347175746a357163736676646a7179343676366b67747337656e6330797367633871666d646135723a303030303030303030303030303030303030303139393431613561653132383937363539383134343239323533333030353762306461393666336465613163353a3630363831343236313631227d68",
        "c1b3bc6f424055c5ec6ac1dc8b207f1ba18c4db693056bc938ea6425d8b7a62268"
      ],
      "is_coinbase": false,
      "sequence": 4294967293
    }
  ],
  "vout": [
    {
      "scriptpubkey": "51205cddb97e6faaee821ddbd2aa0e2e5406209636402574cd590b87b33c3c90460e",
      "scriptpubkey_asm": "OP_PUSHNUM_1 OP_PUSHBYTES_32 5cddb97e6faaee821ddbd2aa0e2e5406209636402574cd590b87b33c3c90460e",
      "scriptpubkey_type": "v1_p2tr",
      "scriptpubkey_address": "bc1ptnwmjln04thgy8wm624qutj5qcsfvdjqy46v6kgts7enc0ysgc8qfmda5r",
      "value": 546
    },
    {
      "scriptpubkey": "5120caa8e19109a5f787546ff2c519eee19c5f380d40603138e885af5aec91177826",
      "scriptpubkey_asm": "OP_PUSHNUM_1 OP_PUSHBYTES_32 caa8e19109a5f787546ff2c519eee19c5f380d40603138e885af5aec91177826",
      "scriptpubkey_type": "v1_p2tr",
      "scriptpubkey_address": "bc1pe25wrygf5hmcw4r07tz3nmhpn30nsr2qvqcn36y94adweygh0qnqpsfc0x",
      "value": 2862
    },
    {
      "scriptpubkey": "5120b64eb0aa6dcc5fd9ff3a3c2cf6046c15146720bd6a8abbf60e744c782098dd77",
      "scriptpubkey_asm": "OP_PUSHNUM_1 OP_PUSHBYTES_32 b64eb0aa6dcc5fd9ff3a3c2cf6046c15146720bd6a8abbf60e744c782098dd77",
      "scriptpubkey_type": "v1_p2tr",
      "scriptpubkey_address": "bc1pke8tp2nde30anle68sk0vprvz52xwg9ad29thasww3x8sgycm4msaxrv99",
      "value": 2862
    },
    {
      "scriptpubkey": "5120a0e6859fe0005e1d3b01d4333cf6ac51b07472814eb9abe68398eff2675e3d62",
      "scriptpubkey_asm": "OP_PUSHNUM_1 OP_PUSHBYTES_32 a0e6859fe0005e1d3b01d4333cf6ac51b07472814eb9abe68398eff2675e3d62",
      "scriptpubkey_type": "v1_p2tr",
      "scriptpubkey_address": "bc1p5rngt8lqqp0p6wcp6senea4v2xc8gu5pf6u6he5rnrhlye67843qj5wfug",
      "value": 2862
    },
    {
      "scriptpubkey": "51200cdb1ba1082d4616bc9426b9799bcbfb88a6a41b83180a89c8035d41c8bb3f95",
      "scriptpubkey_asm": "OP_PUSHNUM_1 OP_PUSHBYTES_32 0cdb1ba1082d4616bc9426b9799bcbfb88a6a41b83180a89c8035d41c8bb3f95",
      "scriptpubkey_type": "v1_p2tr",
      "scriptpubkey_address": "bc1ppnd3hggg94rpd0y5y6uhnx7tlwy2dfqmsvvq4zwgqdw5rj9m872sy3pfp5",
      "value": 2862
    },
    {
      "scriptpubkey": "5120c0dd96c8cae7c8a06eab884b1a1d9a8e7ec204ead5db9342cb94cff3f1222499",
      "scriptpubkey_asm": "OP_PUSHNUM_1 OP_PUSHBYTES_32 c0dd96c8cae7c8a06eab884b1a1d9a8e7ec204ead5db9342cb94cff3f1222499",
      "scriptpubkey_type": "v1_p2tr",
      "scriptpubkey_address": "bc1pcrwedjx2uly2qm4t3p9358v63elvyp826hdexsktjn8l8ufzyjvsv0msal",
      "value": 2862
    },
    {
      "scriptpubkey": "5120677657f574fa0a4efb1a907f98b8d3f15d78afa072b837f343c68aa99cbd950b",
      "scriptpubkey_asm": "OP_PUSHNUM_1 OP_PUSHBYTES_32 677657f574fa0a4efb1a907f98b8d3f15d78afa072b837f343c68aa99cbd950b",
      "scriptpubkey_type": "v1_p2tr",
      "scriptpubkey_address": "bc1pvam90at5lg9ya7c6jple3wxn79wh3taqw2ur0u6rc692n89aj59s7ugx8m",
      "value": 2862
    },
    {
      "scriptpubkey": "512001baaf175b9acc0ebad968648e293f9c2c4c0f85fc84caf6aaf5714a82744cf2",
      "scriptpubkey_asm": "OP_PUSHNUM_1 OP_PUSHBYTES_32 01baaf175b9acc0ebad968648e293f9c2c4c0f85fc84caf6aaf5714a82744cf2",
      "scriptpubkey_type": "v1_p2tr",
      "scriptpubkey_address": "bc1pqxa2796mntxqawkedpjgu2flnskycru9ljzv4a4274c54qn5fneqg7tp9y",
      "value": 2862
    },
    {
      "scriptpubkey": "001413e0093a5ddee323b94645ff13e4f2485745c5f0",
      "scriptpubkey_asm": "OP_0 OP_PUSHBYTES_20 13e0093a5ddee323b94645ff13e4f2485745c5f0",
      "scriptpubkey_type": "v0_p2wpkh",
      "scriptpubkey_address": "bc1qz0sqjwjamm3j8w2xghl38e8jfpt5t30s6pguuh",
      "value": 16120
    }
  ],
  "size": 819,
  "weight": 2097,
  "fee": 6300,
  "status": {
    "confirmed": true,
    "block_height": 834460,
    "block_hash": "00000000000000000000484a79b643b2524bbce82e5d8a442013fa5b8905ed98",
    "block_time": 1710307468
  },
  "hex": "0200000000010181fb865696063204cadf175052914ef557dcaf8878bd1d862861b48ec0a4ddd20000000000fdffffff0922020000000000002251205cddb97e6faaee821ddbd2aa0e2e5406209636402574cd590b87b33c3c90460e2e0b000000000000225120caa8e19109a5f787546ff2c519eee19c5f380d40603138e885af5aec911778262e0b000000000000225120b64eb0aa6dcc5fd9ff3a3c2cf6046c15146720bd6a8abbf60e744c782098dd772e0b000000000000225120a0e6859fe0005e1d3b01d4333cf6ac51b07472814eb9abe68398eff2675e3d622e0b0000000000002251200cdb1ba1082d4616bc9426b9799bcbfb88a6a41b83180a89c8035d41c8bb3f952e0b000000000000225120c0dd96c8cae7c8a06eab884b1a1d9a8e7ec204ead5db9342cb94cff3f12224992e0b000000000000225120677657f574fa0a4efb1a907f98b8d3f15d78afa072b837f343c68aa99cbd950b2e0b00000000000022512001baaf175b9acc0ebad968648e293f9c2c4c0f85fc84caf6aaf5714a82744cf2f83e00000000000016001413e0093a5ddee323b94645ff13e4f2485745c5f00340378f3b01455db861684422add4adf0950a8cd63d4906c20c82dbc0b6ad7d402e756a99a94e96a69f4a54afadff93fc59ced36e39b081f0360e40e91c3f6912bafd200120c767ec662fd1372327477d9e0d11993f70e8ecea6c0cefe34fb9838186aeab67ac0063036f726401011e6170706c69636174696f6e2f6a736f6e3b636861727365743d7574662d38004cd37b2270223a22706f772d3230222c226f70223a226d696e74222c227469636b223a2250455045222c22616d74223a2231303030222c22736f6c7574696f6e223a22504550453a62633170746e776d6a6c6e30347468677938776d3632347175746a357163736676646a7179343676366b67747337656e6330797367633871666d646135723a303030303030303030303030303030303030303139393431613561653132383937363539383134343239323533333030353762306461393666336465613163353a3630363831343236313631227d6821c1b3bc6f424055c5ec6ac1dc8b207f1ba18c4db693056bc938ea6425d8b7a6226800000000"
}