{
  "txid": "2ec94f116f46ac31b75644a9f2a146f370442c25342b256759bd732999dc565d",
  "version": 2,
  "locktime": 0,
  "vin": [
    {
      "txid": "104a014e4049e1eff26ce38f890f2b8b0f49ebe249d28ebbde3a96da3d2fcb71",
      "vout": 1,
      "prevout": {
        "scriptpubkey": "0014b605d901cbce72046ab1199166e4c4f76190a493",
        "scriptpubkey_asm": "OP_0 OP_PUSHBYTES_20 b605d901cbce72046ab1199166e4c4f76190a493",
        "scriptpubkey_type": "v0_p2wpkh",
        "scriptpubkey_address": "bc1qkczajqwteeeqg643rxgkdexy7asepfynccjchp",
        "value": 159124141
      },
      "scriptsig": "",
      "scriptsig_asm": "",
      "witness": [
        "304402202b76e96c46d0f7ce2b3b3bcae0d5d5bed59c95ab16fdf2380888c475a793bf69022040826b9562e1a7b457cd7cafe730a857ed7b6dd1bc9b813a430a03798b9a443301",
        "0326a9755d79bd35439dcc957ae53d029c527fb65ce5f0165efae5e6870edfe684"
      ],
      "is_coinbase": false,
      "sequence": 4294967295
    }
  ],
  "vout": [
    {
      "scriptpubkey": "a91452c698b9bca268d25ad158ede392c30ac3ee3cd287",
      "scriptpubkey_asm": "OP_HASH160 OP_PUSHBYTES_20 52c698b9bca268d25ad158ede392c30ac3ee3cd2 OP_EQUAL",
      "scriptpubkey_type": "p2sh",
      "scriptpubkey_address": "39EhF1KrSs2Use418U13eHsuvbMSVfk5q4",
      "value": 835035
    },
    {
      "scriptpubkey": "0014b605d901cbce72046ab1199166e4c4f76190a493",
      "scriptpubkey_asm": "OP_0 OP_PUSHBYTES_20 b605d901cbce72046ab1199166e4c4f76190a493",
      "scriptpubkey_type": "v0_p2wpkh",
      "scriptpubkey_address": "bc1qkczajqwteeeqg643rxgkdexy7asepfynccjchp",
      "value": 158286994
    }
  ],
  "size": 223,
  "weight": 565,
  "fee": 2112,
  "status": {
    "confirmed": true,
    "block_height": 834638,
    "block_hash": "000000000000000000025f742c626208ac87e0b7d15054abb4a19ca2d735a54e",
    "block_time": 1710405325
  },
  "hex": "0200000000010171cb2f3dda963adebb8ed249e2eb490f8b2b0f898fe36cf2efe149404e014a100100000000ffffffff02dbbd0c000000000017a91452c698b9bca268d25ad158ede392c30ac3ee3cd28792446f0900000000160014b605d901cbce72046ab1199166e4c4f76190a4930247304402202b76e96c46d0f7ce2b3b3bcae0d5d5bed59c95ab16fdf2380888c475a793bf69022040826b9562e1a7b457cd7cafe730a857ed7b6dd1bc9b813a430a03798b9a443301210326a9755d79bd35439dcc957ae53d029c527fb65ce5f0165efae5e6870edfe68400000000"
}