{
  "txid": "2ee04e2fb0c8aa150e523fbd82d065248289057a3ffe946d751105aeea3cee39",
  "version": 1,
  "locktime": 0,
  "vin": [
    {
      "txid": "2c9aa592853455bcdcfee40c3c202db633353ab80ef0ef2a22e67283c3ce0235",
      "vout": 3,
      "prevout": {
        "scriptpubkey": "a9145c381bef072bd7976d6b6d20927564c929dba19387",
        "scriptpubkey_asm": "OP_HASH160 OP_PUSHBYTES_20 5c381bef072bd7976d6b6d20927564c929dba193 OP_EQUAL",
        "scriptpubkey_type": "p2sh",
        "scriptpubkey_address": "3A6dJipf5eQ4cV7uBB1rT1TN7ZLkxDbss1",
        "value": 58494
      },
      "scriptsig": "16001479c10cce5a31e1135f126f4ce426eab51207860a",
      "scriptsig_asm": "OP_PUSHBYTES_22 001479c10cce5a31e1135f126f4ce426eab51207860a",
      "witness": [
        "3045022100e58d247b5392298eaf98bf63793bbbc9bc4142e5fafb088c07604a4b73df26aa02203338d2989c591d3a985dbfdcf3b264e0a561c27e0b1b96e7603e4ddee7b4dfc701",
        "036f25babe9b7a3b4929132e1573cdedbe2528510a8fe9006afda90b2579a865f9"
      ],
      "is_coinbase": false,
      "sequence": 4294967295,
      "inner_redeemscript_asm": "OP_0 OP_PUSHBYTES_20 79c10cce5a31e1135f126f4ce426eab51207860a"
    }
  ],
  "vout": [
    {
      "scriptpubkey": "a914b0ca7793127506c6f406d49080a6186d1921ffac87",
      "scriptpubkey_asm": "OP_HASH160 OP_PUSHBYTES_20 b0ca7793127506c6f406d49080a6186d1921ffac OP_EQUAL",
      "scriptpubkey_type": "p2sh",
      "scriptpubkey_address": "3HooPxyCFbbf7kBCBed1jSaESsctHchbr4",
      "value": 55362
    }
  ],
  "size": 216,
  "weight": 534,
  "fee": 3132,
  "status": {
    "confirmed": true,
    "block_height": 834638,
    "block_hash": "000000000000000000025f742c626208ac87e0b7d15054abb4a19ca2d735a54e",
    "block_time": 1710405325
  },
  "hex": "010000000001013502cec38372e6222aeff00eb83a3533b62d203c0ce4fedcbc55348592a59a2c030000001716001479c10cce5a31e1135f126f4ce426eab51207860affffffff0142d800000000000017a914b0ca7793127506c6f406d49080a6186d1921ffac8702483045022100e58d247b5392298eaf98bf63793bbbc9bc4142e5fafb088c07604a4b73df26aa02203338d2989c591d3a985dbfdcf3b264e0a561c27e0b1b96e7603e4ddee7b4dfc70121036f25babe9b7a3b4929132e1573cdedbe2528510a8fe9006afda90b2579a865f900000000"
}