{
  "txid": "2ee7e9bc2f0f43192f5d2dcb9ba2f7bf417e46f7a86aea7e61bf494a2116911f",
  "version": 2,
  "locktime": 0,
  "vin": [
    {
      "txid": "89d3714a2161bd3259e4fe2f11700b5e1156415aa463189e635c93c4cb021ce0",
      "vout": 0,
      "prevout": {
        "scriptpubkey": "5120bda627548b10997ecbcfc9c2a59159360b25a97432c7284375d400e3c2dda5b9",
        "scriptpubkey_asm": "OP_PUSHNUM_1 OP_PUSHBYTES_32 bda627548b10997ecbcfc9c2a59159360b25a97432c7284375d400e3c2dda5b9",
        "scriptpubkey_type": "v1_p2tr",
        "scriptpubkey_address": "bc1phknzw4ytzzvhaj70e8p2ty2exc9jt2t5xtrjssm46sqw8ska5kus8znhvc",
        "value": 93000
      },
      "scriptsig": "",
      "scriptsig_asm": "",
      "witness": [
        "85720325f1c07a4fc538f7f755233f2da88862ea17bf2e21bac22a2fffeca9f20ec350300bcefa675289e934e042a1f009f1ac7bd37dd0a9f0819103eb25fe9d",
        "20b60febd6a6e71ad7b03e9b9795fc2e21dcb19bab56cae406c61ff9411c848310ac0063036f726401011e6170706c69636174696f6e2f6a736f6e3b636861727365743d7574662d38004cd37b2270223a22706f772d3230222c226f70223a226d696e74222c227469636b223a2250455045222c22616d74223a2231303030222c22736f6c7574696f6e223a22504550453a6263317032643677617a36736d6332646c33337861686b7364747a70793379397164713670677072776d3535376d303063646135303976733972333779633a303030303030303030303030303030303030303139393431613561653132383937363539383134343239323533333030353762306461393666336465613163353a3330373534383936373333227d68",
        "c0c302becc0a7fa5f96ff01f380e695b2faa1e460e5e66e108f6410cf3df3f4a28"
      ],
      "is_coinbase": false,
      "sequence": 4294967293
    }
  ],
  "vout": [
    {
      "scriptpubkey": "51205374ee8b50de14dfc626eded06ac41244850341a0a02376e94f6defc37b47959",
      "scriptpubkey_asm": "OP_PUSHNUM_1 OP_PUSHBYTES_32 5374ee8b50de14dfc626eded06ac41244850341a0a02376e94f6defc37b47959",
      "scriptpubkey_type": "v1_p2tr",
      "scriptpubkey_address": "bc1p2d6waz6smc2dl33xahksdtzpy3y9qdq6pgprwm557m00cda509vs9r37yc",
      "value": 546
    },
    {
      "scriptpubkey": "5120129afbd46042c336ccd48a91bdd02bcd7e4e3502d586b8974c6201f0cd0689c4",
      "scriptpubkey_asm": "OP_PUSHNUM_1 OP_PUSHBYTES_32 129afbd46042c336ccd48a91bdd02bcd7e4e3502d586b8974c6201f0cd0689c4",
      "scriptpubkey_type": "v1_p2tr",
      "scriptpubkey_address": "bc1pz2d0h4rqgtpndnx532gmm5pte4lyudgz6krt396vvgqlpngx38zqts4jxa",
      "value": 2850
    },
    {
      "scriptpubkey": "51204d4c55816c915c88cac582e5e9d8ad8d27cf6c60b83ab2bfa7997b6020924e3a",
      "scriptpubkey_asm": "OP_PUSHNUM_1 OP_PUSHBYTES_32 4d4c55816c915c88cac582e5e9d8ad8d27cf6c60b83ab2bfa7997b6020924e3a",
      "scriptpubkey_type": "v1_p2tr",
      "scriptpubkey_address": "bc1pf4x9tqtvj9wg3jk9stj7nk9d35nu7mrqhqat90a8n9akqgyjfcaqc48ez5",
      "value": 2850
    },
    {
      "scriptpubkey": "5120e7160a3de041b6947e837defb1279454c954344615210b0f7004e56262745d54",
      "scriptpubkey_asm": "OP_PUSHNUM_1 OP_PUSHBYTES_32 e7160a3de041b6947e837defb1279454c954344615210b0f7004e56262745d54",
      "scriptpubkey_type": "v1_p2tr",
      "scriptpubkey_address": "bc1puutq500qgxmfgl5r0hhmzfu52ny4gdzxz5sskrmsqnjkycn5t42qavp6zq",
      "value": 2862
    },
    {
      "scriptpubkey": "5120ebabbd9032f6f0905f6df17e3ed347266c402d7f95b05a4c13bfd5d8b12e2583",
      "scriptpubkey_asm": "OP_PUSHNUM_1 OP_PUSHBYTES_32 ebabbd9032f6f0905f6df17e3ed347266c402d7f95b05a4c13bfd5d8b12e2583",
      "scriptpubkey_type": "v1_p2tr",
      "scriptpubkey_address": "bc1paw4mmypj7mcfqhmd79lra568yekyqttljkc95nqnhl2a3vfwykps5spsft",
      "value": 2862
    },
    {
      "scriptpubkey": "5120a7f501b6f1e85c836e65850e5a3260dee357ce94a48ab30cfef367c7fe9b42ed",
      "scriptpubkey_asm": "OP_PUSHNUM_1 OP_PUSHBYTES_32 a7f501b6f1e85c836e65850e5a3260dee357ce94a48ab30cfef367c7fe9b42ed",
      "scriptpubkey_type": "v1_p2tr",
      "scriptpubkey_address": "bc1p5l6srdh3apwgxmn9s5895vnqmm340n555j9txr877dnu0l5mgtkswt57d9",
      "value": 2862
    },
    {
      "scriptpubkey": "5120f01736dfc545144cc84a0dc4c1e984c10a76335be5fc9bb13e454086051f54ea",
      "scriptpubkey_asm": "OP_PUSHNUM_1 OP_PUSHBYTES_32 f01736dfc545144cc84a0dc4c1e984c10a76335be5fc9bb13e454086051f54ea",
      "scriptpubkey_type": "v1_p2tr",
      "scriptpubkey_address": "bc1p7qtndh79g52yejz2phzvr6vycy98vv6muh7fhvf7g4qgvpgl2n4qcumpk0",
      "value": 2862
    },
    {
      "scriptpubkey": "512015c5d82db0860bc756397b41e2775aceb20a289de2204ab0c2ae7a02dcb23d64",
      "scriptpubkey_asm": "OP_PUSHNUM_1 OP_PUSHBYTES_32 15c5d82db0860bc756397b41e2775aceb20a289de2204ab0c2ae7a02dcb23d64",
      "scriptpubkey_type": "v1_p2tr",
      "scriptpubkey_address": "bc1pzhzastdssc9uw43e0dq7ya66e6eq52yaugsy4vxz4eaq9h9j84jqv46trm",
      "value": 2862
    },
    {
      "scriptpubkey": "5120d75cc57a343b2e7e9a07088e97680866491bead84f8c8625c752dee59dc5ab9a",
      "scriptpubkey_asm": "OP_PUSHNUM_1 OP_PUSHBYTES_32 d75cc57a343b2e7e9a07088e97680866491bead84f8c8625c752dee59dc5ab9a",
      "scriptpubkey_type": "v1_p2tr",
      "scriptpubkey_address": "bc1p6awv27358vh8axs8pz8fw6qgvey3h6kcf7xgvfw82t0wt8w94wdqcwjhln",
      "value": 2862
    },
    {
      "scriptpubkey": "512033451c3259af94b0e166d3afc0f21917be9f620fb8ed32fc9e41c6109268f9d8",
      "scriptpubkey_asm": "OP_PUSHNUM_1 OP_PUSHBYTES_32 33451c3259af94b0e166d3afc0f21917be9f620fb8ed32fc9e41c6109268f9d8",
      "scriptpubkey_type": "v1_p2tr",
      "scriptpubkey_address": "bc1pxdz3cvje472tpctx6whupusez7lf7cs0hrkn9ly7g8rppyngl8vqjsf7ln",
      "value": 2862
    },
    {
      "scriptpubkey": "5120a231c07acfdcee705e05df17eccb48149c187de94f1424e5880279bd6bcfffb0",
      "scriptpubkey_asm": "OP_PUSHNUM_1 OP_PUSHBYTES_32 a231c07acfdcee705e05df17eccb48149c187de94f1424e5880279bd6bcfffb0",
      "scriptpubkey_type": "v1_p2tr",
      "scriptpubkey_address": "bc1p5gcuq7k0mnh8qhs9mut7ej6gzjwpsl0ffu2zfevgqfum6670l7cq4xk6vj",
      "value": 2862
    },
    {
      "scriptpubkey": "512058c032bae4a6da0003516d2a8e39731f9cddc87afd00f086d6e7eac4c8c898f7",
      "scriptpubkey_asm": "OP_PUSHNUM_1 OP_PUSHBYTES_32 58c032bae4a6da0003516d2a8e39731f9cddc87afd00f086d6e7eac4c8c898f7",
      "scriptpubkey_type": "v1_p2tr",
      "scriptpubkey_address": "bc1ptrqr9why5mdqqq63d54guwtnr7wdmjr6l5q0ppkkul4vfjxgnrmsf5gr6y",
      "value": 2862
    },
    {
      "scriptpubkey": "51206e4cff441f4d2d414e939e3a90409978fd5d45b5c3e5f17f6359f95c08ea277a",
      "scriptpubkey_asm": "OP_PUSHNUM_1 OP_PUSHBYTES_32 6e4cff441f4d2d414e939e3a90409978fd5d45b5c3e5f17f6359f95c08ea277a",
      "scriptpubkey_type": "v1_p2tr",
      "scriptpubkey_address": "bc1pdex073qlf5k5zn5nncafqsye0r7463d4c0jlzlmrt8u4cz82yaaqewht3x",
      "value": 2862
    },
    {
      "scriptpubkey": "5120b8ee63bafa1c690eb7bc40bb6aed74c26bbb93b3051545248a3aea91cbe9ab77",
      "scriptpubkey_asm": "OP_PUSHNUM_1 OP_PUSHBYTES_32 b8ee63bafa1c690eb7bc40bb6aed74c26bbb93b3051545248a3aea91cbe9ab77",
      "scriptpubkey_type": "v1_p2tr",
      "scriptpubkey_address": "bc1phrhx8wh6r35sadaugzak4mt5cf4mhyanq5252fy28t4frjlf4dmseu0cj6",
      "value": 2850
    },
    {
      "scriptpubkey": "5120958918fd4e0785126184a38ec40d963f974f0bedef917b888260e1499018b6a9",
      "scriptpubkey_asm": "OP_PUSHNUM_1 OP_PUSHBYTES_32 958918fd4e0785126184a38ec40d963f974f0bedef917b888260e1499018b6a9",
      "scriptpubkey_type": "v1_p2tr",
      "scriptpubkey_address": "bc1pjky33l2wq7z3ycvy5w8vgrvk87t57zlda7ghhzyzvrs5nyqck65shk2djy",
      "value": 2862
    },
    {
      "scriptpubkey": "51207458908f96ca395b6fd7aca448e0f22562e29a40180a92797cd8f1c7bbbd12db",
      "scriptpubkey_asm": "OP_PUSHNUM_1 OP_PUSHBYTES_32 7458908f96ca395b6fd7aca448e0f22562e29a40180a92797cd8f1c7bbbd12db",
      "scriptpubkey_type": "v1_p2tr",
      "scriptpubkey_address": "bc1pw3vfprukegu4km7h4jjy3c8jy43w9xjqrq9fy7tumrcu0waaztds5x98wc",
      "value": 2862
    },
    {
      "scriptpubkey": "51207918acfa2b3503e9149b576e8a8fead74f40d465d2bcfa9452b7dd84078505b8",
      "scriptpubkey_asm": "OP_PUSHNUM_1 OP_PUSHBYTES_32 7918acfa2b3503e9149b576e8a8fead74f40d465d2bcfa9452b7dd84078505b8",
      "scriptpubkey_type": "v1_p2tr",
      "scriptpubkey_address": "bc1p0yv2e73tx5p7j9ym2ahg4rl26a85p4r9627049zjklwcgpu9qkuqegf979",
      "value": 2862
    },
    {
      "scriptpubkey": "0014da67260424374bb152f58d652ddb2140464146fe",
      "scriptpubkey_asm": "OP_0 OP_PUSHBYTES_20 da67260424374bb152f58d652ddb2140464146fe",
      "scriptpubkey_type": "v0_p2wpkh",
      "scriptpubkey_address": "bc1qmfnjvppyxa9mz5h434jjmkepgpryz3h7xmu8np",
      "value": 35754
    }
  ],
  "size": 1206,
  "weight": 3645,
  "fee": 10944,
  "status": {
    "confirmed": true,
    "block_height": 834460,
    "block_hash": "00000000000000000000484a79b643b2524bbce82e5d8a442013fa5b8905ed98",
    "block_time": 1710307468
  },
  "hex": "02000000000101e01c02cbc4935c639e1863a45a4156115e0b70112ffee45932bd61214a71d3890000000000fdffffff1222020000000000002251205374ee8b50de14dfc626eded06ac41244850341a0a02376e94f6defc37b47959220b000000000000225120129afbd46042c336ccd48a91bdd02bcd7e4e3502d586b8974c6201f0cd0689c4220b0000000000002251204d4c55816c915c88cac582e5e9d8ad8d27cf6c60b83ab2bfa7997b6020924e3a2e0b000000000000225120e7160a3de041b6947e837defb1279454c954344615210b0f7004e56262745d542e0b000000000000225120ebabbd9032f6f0905f6df17e3ed347266c402d7f95b05a4c13bfd5d8b12e25832e0b000000000000225120a7f501b6f1e85c836e65850e5a3260dee357ce94a48ab30cfef367c7fe9b42ed2e0b000000000000225120f01736dfc545144cc84a0dc4c1e984c10a76335be5fc9bb13e454086051f54ea2e0b00000000000022512015c5d82db0860bc756397b41e2775aceb20a289de2204ab0c2ae7a02dcb23d642e0b000000000000225120d75cc57a343b2e7e9a07088e97680866491bead84f8c8625c752dee59dc5ab9a2e0b00000000000022512033451c3259af94b0e166d3afc0f21917be9f620fb8ed32fc9e41c6109268f9d82e0b000000000000225120a231c07acfdcee705e05df17eccb48149c187de94f1424e5880279bd6bcfffb02e0b00000000000022512058c032bae4a6da0003516d2a8e39731f9cddc87afd00f086d6e7eac4c8c898f72e0b0000000000002251206e4cff441f4d2d414e939e3a90409978fd5d45b5c3e5f17f6359f95c08ea277a220b000000000000225120b8ee63bafa1c690eb7bc40bb6aed74c26bbb93b3051545248a3aea91cbe9ab772e0b000000000000225120958918fd4e0785126184a38ec40d963f974f0bedef917b888260e1499018b6a92e0b0000000000002251207458908f96ca395b6fd7aca448e0f22562e29a40180a92797cd8f1c7bbbd12db2e0b0000000000002251207918acfa2b3503e9149b576e8a8fead74f40d465d2bcfa9452b7dd84078505b8aa8b000000000000160014da67260424374bb152f58d652ddb2140464146fe034085720325f1c07a4fc538f7f755233f2da88862ea17bf2e21bac22a2fffeca9f20ec350300bcefa675289e934e042a1f009f1ac7bd37dd0a9f0819103eb25fe9dfd200120b60febd6a6e71ad7b03e9b9795fc2e21dcb19bab56cae406c61ff9411c848310ac0063036f726401011e6170706c69636174696f6e2f6a736f6e3b636861727365743d7574662d38004cd37b2270223a22706f772d3230222c226f70223a226d696e74222c227469636b223a2250455045222c22616d74223a2231303030222c22736f6c7574696f6e223a22504550453a6263317032643677617a36736d6332646c33337861686b7364747a70793379397164713670677072776d3535376d303063646135303976733972333779633a303030303030303030303030303030303030303139393431613561653132383937363539383134343239323533333030353762306461393666336465613163353a3330373534383936373333227d6821c0c302becc0a7fa5f96ff01f380e695b2faa1e460e5e66e108f6410cf3df3f4a2800000000"
}