{
  "txid": "2eeb4f5f0f89482594bd212ebd083fe858023b5855cc698cbc0838c63812b445",
  "version": 2,
  "locktime": 0,
  "vin": [
    {
      "txid": "acc3ba00869acb582a3f2904ce3a11dd3779350ce234063fc7d0959246213364",
      "vout": 30,
      "prevout": {
        "scriptpubkey": "51207445bfa33a849eca0b24aa0aa12eb1a866194df075fc9988565659dbded2feba",
        "scriptpubkey_asm": "OP_PUSHNUM_1 OP_PUSHBYTES_32 7445bfa33a849eca0b24aa0aa12eb1a866194df075fc9988565659dbded2feba",
        "scriptpubkey_type": "v1_p2tr",
        "scriptpubkey_address": "bc1pw3zmlge6sj0v5zey4g92zt434pnpjn0swh7fnzzk2evahhkjl6aq8xfckm",
        "value": 1806
      },
      "scriptsig": "",
      "scriptsig_asm": "",
      "witness": [
        "241098301ef2e390245009a32b30daf9b0299d4b4e921b2875e2c1c576a3ea6d5647d309ca48e703a1a8cf2c3e494e024b41747108aa8f61b9ede09c3c8411d9",
        "2088b72b9ae491444a5be3693648aa1e15adb3e55f3837ad53663df0768e24b3b1ac0063036f726401010a746578742f706c61696e00357b2270223a226272632d3230222c226f70223a226d696e74222c227469636b223a22646f6765222c22616d74223a2234323030227d68",
        "c088b72b9ae491444a5be3693648aa1e15adb3e55f3837ad53663df0768e24b3b1"
      ],
      "is_coinbase": false,
      "sequence": 4261412863
    }
  ],
  "vout": [
    {
      "scriptpubkey": "00147a665de7a370f4c9b372ab1fae587500a5bcbdb4",
      "scriptpubkey_asm": "OP_0 OP_PUSHBYTES_20 7a665de7a370f4c9b372ab1fae587500a5bcbdb4",
      "scriptpubkey_type": "v0_p2wpkh",
      "scriptpubkey_address": "bc1q0fn9mearwr6vnvmj4v06ukr4qzjme0d565dzcx",
      "value": 294
    }
  ],
  "size": 294,
  "weight": 540,
  "fee": 1512,
  "status": {
    "confirmed": true,
    "block_height": 834460,
    "block_hash": "00000000000000000000484a79b643b2524bbce82e5d8a442013fa5b8905ed98",
    "block_time": 1710307468
  },
  "hex": "02000000000101643321469295d0c73f0634e20c357937dd113ace04293f2a58cb9a8600bac3ac1e00000000fffffffd0126010000000000001600147a665de7a370f4c9b372ab1fae587500a5bcbdb40340241098301ef2e390245009a32b30daf9b0299d4b4e921b2875e2c1c576a3ea6d5647d309ca48e703a1a8cf2c3e494e024b41747108aa8f61b9ede09c3c8411d96d2088b72b9ae491444a5be3693648aa1e15adb3e55f3837ad53663df0768e24b3b1ac0063036f726401010a746578742f706c61696e00357b2270223a226272632d3230222c226f70223a226d696e74222c227469636b223a22646f6765222c22616d74223a2234323030227d6821c088b72b9ae491444a5be3693648aa1e15adb3e55f3837ad53663df0768e24b3b100000000"
}