{
  "txid": "2f0ada73e7579b6430f45bb5d709225d7693ed037777eadb615845bf42dbc487",
  "version": 1,
  "locktime": 0,
  "vin": [
    {
      "txid": "888888888ff8e932b2879e60050869364b130e1d2f72dc1733bac70e0d48c2b6",
      "vout": 0,
      "prevout": {
        "scriptpubkey": "51201fa88047804bb93c898809d8f3d31068e9c8d8b03160748c430ba6162e0e5b4f",
        "scriptpubkey_asm": "OP_PUSHNUM_1 OP_PUSHBYTES_32 1fa88047804bb93c898809d8f3d31068e9c8d8b03160748c430ba6162e0e5b4f",
        "scriptpubkey_type": "v1_p2tr",
        "scriptpubkey_address": "bc1pr75gq3uqfwunezvgp8v085csdr5u3k9sx9s8frzrpwnpvtswtd8swf0rmf",
        "value": 11936
      },
      "scriptsig": "",
      "scriptsig_asm": "",
      "witness": [
        "417b64a02e14b3e1d78e2b557b90272a6fad0e8731bee59adeb3cc7ba8aea77e201a2a472b7ecd7abfd40c7eb748a4640b858bed1e367942a872a193af92c2bb",
        "20527b627a93a0b92b1b055d446d7737069d01b9941ea585a7a211a8e2e5f04100ac00630461746f6d03646d7446a16461726773a46474696d651a65f12b05656e6f6e63651a006dde1168626974776f726b636b3838383838383838382e376b6d696e745f7469636b657268696e66696e69747968",
        "c0527b627a93a0b92b1b055d446d7737069d01b9941ea585a7a211a8e2e5f04100"
      ],
      "is_coinbase": false,
      "sequence": 4294967295
    }
  ],
  "vout": [
    {
      "scriptpubkey": "512089fe3ca26e72c6b34d92e2a2aa1567c967a0b3c092167f2490aea67234195c14",
      "scriptpubkey_asm": "OP_PUSHNUM_1 OP_PUSHBYTES_32 89fe3ca26e72c6b34d92e2a2aa1567c967a0b3c092167f2490aea67234195c14",
      "scriptpubkey_type": "v1_p2tr",
      "scriptpubkey_address": "bc1p38lregnwwtrtxnvju23259t8e9n6pv7qjgt87fys46n8ydqets2q28fhdh",
      "value": 9999
    }
  ],
  "size": 314,
  "weight": 596,
  "fee": 1937,
  "status": {
    "confirmed": true,
    "block_height": 834460,
    "block_hash": "00000000000000000000484a79b643b2524bbce82e5d8a442013fa5b8905ed98",
    "block_time": 1710307468
  },
  "hex": "01000000000101b6c2480d0ec7ba3317dc722f1d0e134b36690805609e87b232e9f88f888888880000000000ffffffff010f2700000000000022512089fe3ca26e72c6b34d92e2a2aa1567c967a0b3c092167f2490aea67234195c140340417b64a02e14b3e1d78e2b557b90272a6fad0e8731bee59adeb3cc7ba8aea77e201a2a472b7ecd7abfd40c7eb748a4640b858bed1e367942a872a193af92c2bb7520527b627a93a0b92b1b055d446d7737069d01b9941ea585a7a211a8e2e5f04100ac00630461746f6d03646d7446a16461726773a46474696d651a65f12b05656e6f6e63651a006dde1168626974776f726b636b3838383838383838382e376b6d696e745f7469636b657268696e66696e6974796821c0527b627a93a0b92b1b055d446d7737069d01b9941ea585a7a211a8e2e5f0410000000000"
}