{
  "txid": "2f1582d9863eab19abc98a8f1bf820245af8955bb691bafdf75351a8290b677f",
  "version": 1,
  "locktime": 0,
  "vin": [
    {
      "txid": "ef9349f17fd065412a4c66ddb92e821772b764546cf47ca79c3b4505a69842d5",
      "vout": 1,
      "prevout": {
        "scriptpubkey": "5120d1454c5d69ac328ccae03a1843ae0887c708d7c6788ac1ccf32196174364d420",
        "scriptpubkey_asm": "OP_PUSHNUM_1 OP_PUSHBYTES_32 d1454c5d69ac328ccae03a1843ae0887c708d7c6788ac1ccf32196174364d420",
        "scriptpubkey_type": "v1_p2tr",
        "scriptpubkey_address": "bc1p69z5chtf4segejhq8gvy8tsgslrs347x0z9vrn8nyxtpwsmy6ssqw3fya0",
        "value": 546
      },
      "scriptsig": "",
      "scriptsig_asm": "",
      "witness": [
        "ac6b09b32c9e2d54abdbfb78170e62868d4734886134de4d1254fb01228a220abcaa8875f54cd215ab8032964639c9948e84dc1eb039674bac0cd2ca1f9f2c64"
      ],
      "is_coinbase": false,
      "sequence": 4294967293
    },
    {
      "txid": "ef9349f17fd065412a4c66ddb92e821772b764546cf47ca79c3b4505a69842d5",
      "vout": 3,
      "prevout": {
        "scriptpubkey": "5120d1454c5d69ac328ccae03a1843ae0887c708d7c6788ac1ccf32196174364d420",
        "scriptpubkey_asm": "OP_PUSHNUM_1 OP_PUSHBYTES_32 d1454c5d69ac328ccae03a1843ae0887c708d7c6788ac1ccf32196174364d420",
        "scriptpubkey_type": "v1_p2tr",
        "scriptpubkey_address": "bc1p69z5chtf4segejhq8gvy8tsgslrs347x0z9vrn8nyxtpwsmy6ssqw3fya0",
        "value": 96334
      },
      "scriptsig": "",
      "scriptsig_asm": "",
      "witness": [
        "1b76c9ad3eeba0bafd946bd3357d7eea9b5c1ffe9cf60e93625b299c2d47098981dc739545aa1137cf6fb8d19e6f70f323c443fd990fbb0a1771d1416afe175d"
      ],
      "is_coinbase": false,
      "sequence": 4294967293
    }
  ],
  "vout": [
    {
      "scriptpubkey": "512076454a005a91a80845c8a5b22d784181bc12d1e40b9ec75c57474c44f50ef989",
      "scriptpubkey_asm": "OP_PUSHNUM_1 OP_PUSHBYTES_32 76454a005a91a80845c8a5b22d784181bc12d1e40b9ec75c57474c44f50ef989",
      "scriptpubkey_type": "v1_p2tr",
      "scriptpubkey_address": "bc1pwez55qz6jx5qs3wg5kez67zpsx7p950ypw0vwhzhgaxyfagwlxysnj6ca9",
      "value": 94514
    }
  ],
  "size": 269,
  "weight": 674,
  "fee": 2366,
  "status": {
    "confirmed": true,
    "block_height": 834460,
    "block_hash": "00000000000000000000484a79b643b2524bbce82e5d8a442013fa5b8905ed98",
    "block_time": 1710307468
  },
  "hex": "01000000000102d54298a605453b9ca77cf46c5464b77217822eb9dd664c2a4165d07ff14993ef0100000000fdffffffd54298a605453b9ca77cf46c5464b77217822eb9dd664c2a4165d07ff14993ef0300000000fdffffff01327101000000000022512076454a005a91a80845c8a5b22d784181bc12d1e40b9ec75c57474c44f50ef9890140ac6b09b32c9e2d54abdbfb78170e62868d4734886134de4d1254fb01228a220abcaa8875f54cd215ab8032964639c9948e84dc1eb039674bac0cd2ca1f9f2c6401401b76c9ad3eeba0bafd946bd3357d7eea9b5c1ffe9cf60e93625b299c2d47098981dc739545aa1137cf6fb8d19e6f70f323c443fd990fbb0a1771d1416afe175d00000000"
}