{
  "txid": "2f20ad8636bee8f5cafc450cf6f93460d3b99bf4bc04294799dbf84443f0214a",
  "version": 1,
  "locktime": 0,
  "vin": [
    {
      "txid": "70b2ad71864bc919c6013b3d8bb73871907930d8eb7bb52c01ebaddc5b17124f",
      "vout": 0,
      "prevout": {
        "scriptpubkey": "5120de4d4441ccece5e4219b116ecf113fe1ce38a23a7ab4929400ab92bbc9a7557b",
        "scriptpubkey_asm": "OP_PUSHNUM_1 OP_PUSHBYTES_32 de4d4441ccece5e4219b116ecf113fe1ce38a23a7ab4929400ab92bbc9a7557b",
        "scriptpubkey_type": "v1_p2tr",
        "scriptpubkey_address": "bc1pmex5gswvanj7ggvmz9hv7yflu88r3g36026f99qq4wfthjd824asrx4w6k",
        "value": 68875
      },
      "scriptsig": "",
      "scriptsig_asm": "",
      "witness": [
        "1b77467ff3f61071fbc7f2675de3d5de9818f91f102bd85ddfa39f51e04f2cd41db53c186fe568538b630979062fd25de01f2efd10d357ce3706ce8f785ff32301"
      ],
      "is_coinbase": false,
      "sequence": 4294967295
    },
    {
      "txid": "3ff13a3a175a35a9a5edab67211f8dac178155819223ece0d7e92f7517f24403",
      "vout": 0,
      "prevout": {
        "scriptpubkey": "5120bba5e83a83fcee12b5d18f63bd39504dba4e997af725cc9d1de805b7911091a8",
        "scriptpubkey_asm": "OP_PUSHNUM_1 OP_PUSHBYTES_32 bba5e83a83fcee12b5d18f63bd39504dba4e997af725cc9d1de805b7911091a8",
        "scriptpubkey_type": "v1_p2tr",
        "scriptpubkey_address": "bc1phwj7sw5rlnhp9dw33a3m6w2sfkayaxt67ujue8gaaqzm0ygsjx5qrcmzu0",
        "value": 12095
      },
      "scriptsig": "",
      "scriptsig_asm": "",
      "witness": [
        "d6bddb070205948b378ac40e090b6587f24d203111e7adc29eb3acfc7805ea71daedb09a431b61a830c09551f7a1ac3d56e31cdaa2985383fc27095d7390766b01"
      ],
      "is_coinbase": false,
      "sequence": 4294967295
    },
    {
      "txid": "6cc543c820a15d3c960e61f5f55c35c721f69f64e0b1d25089833a2b2b0f8ee9",
      "vout": 103,
      "prevout": {
        "scriptpubkey": "0020e23a9f4942014272224e58e9a2ee120790809788e5ad3eb47d1b370f1fd79835",
        "scriptpubkey_asm": "OP_0 OP_PUSHBYTES_32 e23a9f4942014272224e58e9a2ee120790809788e5ad3eb47d1b370f1fd79835",
        "scriptpubkey_type": "v0_p2wsh",
        "scriptpubkey_address": "bc1qugaf7j2zq9p8ygjwtr569msjq7ggp9ugukknadrarvms787hnq6s5jpdau",
        "value": 10479
      },
      "scriptsig": "",
      "scriptsig_asm": "",
      "witness": [
        "",
        "304402200ba7af163a2ec46f0d85f6bfecd859f617035400db2308d15441f2e1459f322002205e2ddd951446dd069043267074008d5e3d95dc892c506374c97c8e64e0f83ac801",
        "3044022065fc90dad28265a514eb69f4c76628483df7a3fb8403f2c74bb21769362058f002202249abac7061b963313a307e805477cb80a647ff90ba13957324f02a37f0808901",
        "522102379dfd7b068045511aab470c6b28879448f27caf60ba991416e04ce57d53abde2103a84e4b394ba218587eb5c1e72976cd45ad9c83ce87b21809758c9376420bb65552ae"
      ],
      "is_coinbase": false,
      "sequence": 4294967295,
      "inner_witnessscript_asm": "OP_PUSHNUM_2 OP_PUSHBYTES_33 02379dfd7b068045511aab470c6b28879448f27caf60ba991416e04ce57d53abde OP_PUSHBYTES_33 03a84e4b394ba218587eb5c1e72976cd45ad9c83ce87b21809758c9376420bb655 OP_PUSHNUM_2 OP_CHECKMULTISIG"
    },
    {
      "txid": "7c4128ff13fd988335e0cca36035eb571122fdb2779b7f712721ce7cbb3f3c05",
      "vout": 71,
      "prevout": {
        "scriptpubkey": "00200f00f9779578d494a6da6ca0a146e188120c7f3c901f7cdeab85041ad5a84cc4",
        "scriptpubkey_asm": "OP_0 OP_PUSHBYTES_32 0f00f9779578d494a6da6ca0a146e188120c7f3c901f7cdeab85041ad5a84cc4",
        "scriptpubkey_type": "v0_p2wsh",
        "scriptpubkey_address": "bc1qpuq0jau40r2fffk6djs2z3hp3qfqcleujq0heh4ts5zp44dgfnzq3x8zex",
        "value": 10003
      },
      "scriptsig": "",
      "scriptsig_asm": "",
      "witness": [
        "",
        "30450221009ef7119aca451bcf3bd84ba5cf829a28a65a4571d6112a355fdd174f69c60b100220023a29355852e8e4727f2e6e24ff1f67ea45b0f908a843e02599db13faf98f6b01",
        "304402207b2fea96c82a706e3f887d8ead158986a83b48f6e30b4c09f6858ce383f8833c022037020bd3670a142408a83d6317941e54cb085c9874880680367e3ae136af627501",
        "522103363518cb107f9d9d90e3f265887c77bd556baa4cf11e925d5218e9dc39e9562321038bf553f165eef33afdadf934430bee272a95a1db714bb221bfa2ab22e7a1bc6152ae"
      ],
      "is_coinbase": false,
      "sequence": 4294967295,
      "inner_witnessscript_asm": "OP_PUSHNUM_2 OP_PUSHBYTES_33 03363518cb107f9d9d90e3f265887c77bd556baa4cf11e925d5218e9dc39e95623 OP_PUSHBYTES_33 038bf553f165eef33afdadf934430bee272a95a1db714bb221bfa2ab22e7a1bc61 OP_PUSHNUM_2 OP_CHECKMULTISIG"
    }
  ],
  "vout": [
    {
      "scriptpubkey": "5120c99a931abd50a2e1490f044a1378c8613355d929b751c1f4a182f03ffb6cc2cc",
      "scriptpubkey_asm": "OP_PUSHNUM_1 OP_PUSHBYTES_32 c99a931abd50a2e1490f044a1378c8613355d929b751c1f4a182f03ffb6cc2cc",
      "scriptpubkey_type": "v1_p2tr",
      "scriptpubkey_address": "bc1pexdfxx4a2z3wzjg0q39px7xgvye4tkffkagura9pstcrl7mvctxqydpt5m",
      "value": 2679
    },
    {
      "scriptpubkey": "0014b1cb344e8be44d73b00a72b9c9b6b561e7903290",
      "scriptpubkey_asm": "OP_0 OP_PUSHBYTES_20 b1cb344e8be44d73b00a72b9c9b6b561e7903290",
      "scriptpubkey_type": "v0_p2wpkh",
      "scriptpubkey_address": "bc1qk89ngn5tu3xh8vq2w2uund44v8neqv5sywjv9m",
      "value": 94523
    }
  ],
  "size": 821,
  "weight": 1565,
  "fee": 4250,
  "status": {
    "confirmed": true,
    "block_height": 834464,
    "block_hash": "0000000000000000000177a0869a911a2b65c9bdcd5a8bcb02b68f305bee848e",
    "block_time": 1710308296
  },
  "hex": "010000000001044f12175bdcadeb012cb57bebd83079907138b78b3d3b01c619c94b8671adb2700000000000ffffffff0344f217752fe9d7e0ec239281558117ac8d1f2167abeda5a9355a173a3af13f0000000000ffffffffe98e0f2b2b3a838950d2b1e0649ff621c7355cf5f5610e963c5da120c843c56c6700000000ffffffff053c3fbb7cce2127717f9b77b2fd221157eb3560a3cce0358398fd13ff28417c4700000000ffffffff02770a000000000000225120c99a931abd50a2e1490f044a1378c8613355d929b751c1f4a182f03ffb6cc2cc3b71010000000000160014b1cb344e8be44d73b00a72b9c9b6b561e790329001411b77467ff3f61071fbc7f2675de3d5de9818f91f102bd85ddfa39f51e04f2cd41db53c186fe568538b630979062fd25de01f2efd10d357ce3706ce8f785ff323010141d6bddb070205948b378ac40e090b6587f24d203111e7adc29eb3acfc7805ea71daedb09a431b61a830c09551f7a1ac3d56e31cdaa2985383fc27095d7390766b01040047304402200ba7af163a2ec46f0d85f6bfecd859f617035400db2308d15441f2e1459f322002205e2ddd951446dd069043267074008d5e3d95dc892c506374c97c8e64e0f83ac801473044022065fc90dad28265a514eb69f4c76628483df7a3fb8403f2c74bb21769362058f002202249abac7061b963313a307e805477cb80a647ff90ba13957324f02a37f080890147522102379dfd7b068045511aab470c6b28879448f27caf60ba991416e04ce57d53abde2103a84e4b394ba218587eb5c1e72976cd45ad9c83ce87b21809758c9376420bb65552ae04004830450221009ef7119aca451bcf3bd84ba5cf829a28a65a4571d6112a355fdd174f69c60b100220023a29355852e8e4727f2e6e24ff1f67ea45b0f908a843e02599db13faf98f6b0147304402207b2fea96c82a706e3f887d8ead158986a83b48f6e30b4c09f6858ce383f8833c022037020bd3670a142408a83d6317941e54cb085c9874880680367e3ae136af62750147522103363518cb107f9d9d90e3f265887c77bd556baa4cf11e925d5218e9dc39e9562321038bf553f165eef33afdadf934430bee272a95a1db714bb221bfa2ab22e7a1bc6152ae00000000"
}