{
  "txid": "2f26ef45203ba477bb9ee38be0049d4b794ac169805608bae95ea71a7b1f0d71",
  "version": 1,
  "locktime": 0,
  "vin": [
    {
      "txid": "5d17de3e67b2d9a036c69c9046170c29f35e6c1320f73e3304f9a9e58395c447",
      "vout": 1,
      "prevout": {
        "scriptpubkey": "0014f944e2fc80eb121644aeeecb86a4f239a307f521",
        "scriptpubkey_asm": "OP_0 OP_PUSHBYTES_20 f944e2fc80eb121644aeeecb86a4f239a307f521",
        "scriptpubkey_type": "v0_p2wpkh",
        "scriptpubkey_address": "bc1ql9zw9lyqavfpv39wam9cdf8j8x3s0afp5vp4uv",
        "value": 1697086
      },
      "scriptsig": "",
      "scriptsig_asm": "",
      "witness": [
        "3045022100cc80bf5f764a3d22cdb873c7b9d76aacb987ff19ada44c32cabd6d134ef162b802205ca225d1d1b6dd25dea96d7cd2a1f1532980f74fe1a88a576b5d07f2099a775f01",
        "03c6f4afc187bcbc3d9ce656e21d888923726855f9947876baeb2cadaa340513af"
      ],
      "is_coinbase": false,
      "sequence": 4294967295
    }
  ],
  "vout": [
    {
      "scriptpubkey": "a9144cd3558fc2f51a2bc766de1af4ced1a2a49c750887",
      "scriptpubkey_asm": "OP_HASH160 OP_PUSHBYTES_20 4cd3558fc2f51a2bc766de1af4ced1a2a49c7508 OP_EQUAL",
      "scriptpubkey_type": "p2sh",
      "scriptpubkey_address": "38hESt863xAxGEN7tUocWtXjhpbqhcP38t",
      "value": 6884
    },
    {
      "scriptpubkey": "0014f944e2fc80eb121644aeeecb86a4f239a307f521",
      "scriptpubkey_asm": "OP_0 OP_PUSHBYTES_20 f944e2fc80eb121644aeeecb86a4f239a307f521",
      "scriptpubkey_type": "v0_p2wpkh",
      "scriptpubkey_address": "bc1ql9zw9lyqavfpv39wam9cdf8j8x3s0afp5vp4uv",
      "value": 1687382
    }
  ],
  "size": 224,
  "weight": 566,
  "fee": 2820,
  "status": {
    "confirmed": true,
    "block_height": 834638,
    "block_hash": "000000000000000000025f742c626208ac87e0b7d15054abb4a19ca2d735a54e",
    "block_time": 1710405325
  },
  "hex": "0100000000010147c49583e5a9f904333ef720136c5ef3290c1746909cc636a0d9b2673ede175d0100000000ffffffff02e41a00000000000017a9144cd3558fc2f51a2bc766de1af4ced1a2a49c75088756bf190000000000160014f944e2fc80eb121644aeeecb86a4f239a307f52102483045022100cc80bf5f764a3d22cdb873c7b9d76aacb987ff19ada44c32cabd6d134ef162b802205ca225d1d1b6dd25dea96d7cd2a1f1532980f74fe1a88a576b5d07f2099a775f012103c6f4afc187bcbc3d9ce656e21d888923726855f9947876baeb2cadaa340513af00000000"
}