{
  "txid": "2f2f35b41f1f8824144dffafa8dcfea47eb627c82cd8b4a425d29e3e93468336",
  "version": 2,
  "locktime": 0,
  "vin": [
    {
      "txid": "abdcbb8bcefa0f088373ceda41a70fe1aeaa3823b969e1169e2a29269068d8dc",
      "vout": 5,
      "prevout": {
        "scriptpubkey": "5120bf75b4003e9bfec8f807a2c52745610c2df94002c447bfb04c3ebbf9ec1e1d1c",
        "scriptpubkey_asm": "OP_PUSHNUM_1 OP_PUSHBYTES_32 bf75b4003e9bfec8f807a2c52745610c2df94002c447bfb04c3ebbf9ec1e1d1c",
        "scriptpubkey_type": "v1_p2tr",
        "scriptpubkey_address": "bc1pha6mgqp7n0lv37q85tzjw3tppskljsqzc3rmlvzv86alnmq7r5wqpul34g",
        "value": 2522
      },
      "scriptsig": "",
      "scriptsig_asm": "",
      "witness": [
        "aec54c3c02ae787f53e60746450aadfebef69cd1aff08e2ef75132a7ac9e24e3148069498d9826ff8f42744b4b3f66f69c46615ede46d1e611614a37d5afee61",
        "20cdab8c6d9245351a41be30a61b0e70286baa3c1e2ffbda3825948c3945d76aaaac0063036f7264010118746578742f706c61696e3b636861727365743d7574662d3800387b2270223a226272632d3230222c226f70223a227472616e73666572222c227469636b223a226f726e6a222c22616d74223a22313030227d68",
        "c125dced391475af84759664675c16f5ed581b243a944241d7ee258c8cfb80c9db"
      ],
      "is_coinbase": false,
      "sequence": 4294967295
    }
  ],
  "vout": [
    {
      "scriptpubkey": "512060e7b9d91ee3091b65165528563dba11a47299520ea2fc67070ec6ac303fc05d",
      "scriptpubkey_asm": "OP_PUSHNUM_1 OP_PUSHBYTES_32 60e7b9d91ee3091b65165528563dba11a47299520ea2fc67070ec6ac303fc05d",
      "scriptpubkey_type": "v1_p2tr",
      "scriptpubkey_address": "bc1pvrnmnkg7uvy3kegk2559v0d6zxj89x2jp630cec8pmr2cvplcpwsn3pn79",
      "value": 546
    }
  ],
  "size": 323,
  "weight": 605,
  "fee": 1976,
  "status": {
    "confirmed": true,
    "block_height": 834460,
    "block_hash": "00000000000000000000484a79b643b2524bbce82e5d8a442013fa5b8905ed98",
    "block_time": 1710307468
  },
  "hex": "02000000000101dcd8689026292a9e16e169b92338aaaee10fa741dace7383080fface8bbbdcab0500000000ffffffff01220200000000000022512060e7b9d91ee3091b65165528563dba11a47299520ea2fc67070ec6ac303fc05d0340aec54c3c02ae787f53e60746450aadfebef69cd1aff08e2ef75132a7ac9e24e3148069498d9826ff8f42744b4b3f66f69c46615ede46d1e611614a37d5afee617e20cdab8c6d9245351a41be30a61b0e70286baa3c1e2ffbda3825948c3945d76aaaac0063036f7264010118746578742f706c61696e3b636861727365743d7574662d3800387b2270223a226272632d3230222c226f70223a227472616e73666572222c227469636b223a226f726e6a222c22616d74223a22313030227d6821c125dced391475af84759664675c16f5ed581b243a944241d7ee258c8cfb80c9db00000000"
}