{
  "txid": "2f3158ceb743c15f97a59e3a8a6ff689aa8b50cba6039825012117ad1607e01c",
  "version": 2,
  "locktime": 0,
  "vin": [
    {
      "txid": "9c10b007d2133e013cafef64d1faa7fec4afc4908ff78aa73222c05d55f4b3b4",
      "vout": 20,
      "prevout": {
        "scriptpubkey": "512037244374b3210b68c304da54f508c681d50c2bc929f8088f6fe598fc49458de0",
        "scriptpubkey_asm": "OP_PUSHNUM_1 OP_PUSHBYTES_32 37244374b3210b68c304da54f508c681d50c2bc929f8088f6fe598fc49458de0",
        "scriptpubkey_type": "v1_p2tr",
        "scriptpubkey_address": "bc1pxujyxa9nyy9k3scymf202zxxs82sc27f98uq3rm0ukv0cj293hsq0m5h0a",
        "value": 3248
      },
      "scriptsig": "",
      "scriptsig_asm": "",
      "witness": [
        "ff41804ddccc37c0c1459bc49ebff0de3aec2d41234050c5da5c2717de1a7c1901c47e951c333ab1a408719a425d8d5f6cc2e428021128a0aa3231d82bae1b41",
        "20ba57a008ff3d4a4cc832a50508cd08346d6facdee9afa6737cd0c428fb10d8f5ac0063036f726401011e6170706c69636174696f6e2f6a736f6e3b636861727365743d7574662d38004cd37b2270223a22706f772d3230222c226f70223a226d696e74222c227469636b223a2250455045222c22616d74223a2231303030222c22736f6c7574696f6e223a22504550453a62633170636a65387233733875656e746d64767a6e34777337786d3836367879707535756139357371796877756835616d61677565367a73707a733637713a303030303030303030303030303030303030303139393431613561653132383937363539383134343239323533333030353762306461393666336465613163353a3539303634373138353832227d68",
        "c03e1a296467c00ef4aae3d2c5b2725c238a71cd400892ce19de6d969e3f5bb91e"
      ],
      "is_coinbase": false,
      "sequence": 4294967295
    }
  ],
  "vout": [
    {
      "scriptpubkey": "5120c4b271c607e666bdb5829d5d0f1b67d68c40f29ce9690012eee5e9ddf51cce85",
      "scriptpubkey_asm": "OP_PUSHNUM_1 OP_PUSHBYTES_32 c4b271c607e666bdb5829d5d0f1b67d68c40f29ce9690012eee5e9ddf51cce85",
      "scriptpubkey_type": "v1_p2tr",
      "scriptpubkey_address": "bc1pcje8r3s8uentmdvzn4ws7xm866xypu5ua95sqyhwuh5amague6zspzs67q",
      "value": 546
    }
  ],
  "size": 487,
  "weight": 769,
  "fee": 2702,
  "status": {
    "confirmed": true,
    "block_height": 834460,
    "block_hash": "00000000000000000000484a79b643b2524bbce82e5d8a442013fa5b8905ed98",
    "block_time": 1710307468
  },
  "hex": "02000000000101b4b3f4555dc02232a78af78f90c4afc4fea7fad164efaf3c013e13d207b0109c1400000000ffffffff012202000000000000225120c4b271c607e666bdb5829d5d0f1b67d68c40f29ce9690012eee5e9ddf51cce850340ff41804ddccc37c0c1459bc49ebff0de3aec2d41234050c5da5c2717de1a7c1901c47e951c333ab1a408719a425d8d5f6cc2e428021128a0aa3231d82bae1b41fd200120ba57a008ff3d4a4cc832a50508cd08346d6facdee9afa6737cd0c428fb10d8f5ac0063036f726401011e6170706c69636174696f6e2f6a736f6e3b636861727365743d7574662d38004cd37b2270223a22706f772d3230222c226f70223a226d696e74222c227469636b223a2250455045222c22616d74223a2231303030222c22736f6c7574696f6e223a22504550453a62633170636a65387233733875656e746d64767a6e34777337786d3836367879707535756139357371796877756835616d61677565367a73707a733637713a303030303030303030303030303030303030303139393431613561653132383937363539383134343239323533333030353762306461393666336465613163353a3539303634373138353832227d6821c03e1a296467c00ef4aae3d2c5b2725c238a71cd400892ce19de6d969e3f5bb91e00000000"
}