{
  "txid": "2f479813aed08440c90f05c349fbe0c1378801e30c6b1daa05f82f426196007d",
  "version": 2,
  "locktime": 0,
  "vin": [
    {
      "txid": "da37bc84003ea5153701e9d82813ac82b3e212ce02ca4d11b1592657923b5c0f",
      "vout": 5,
      "prevout": {
        "scriptpubkey": "00142cead348baf22658ba184f915cbe05913515050b",
        "scriptpubkey_asm": "OP_0 OP_PUSHBYTES_20 2cead348baf22658ba184f915cbe05913515050b",
        "scriptpubkey_type": "v0_p2wpkh",
        "scriptpubkey_address": "bc1q9n4dxj967gn93wscf7g4e0s9jy632pgt0rxq0e",
        "value": 976445
      },
      "scriptsig": "",
      "scriptsig_asm": "",
      "witness": [
        "304402201f911c6837cc2329ac8e5f63496534f07a6b848d2404b2a5da6740b9d00a1eec02207e94e29046a842eda58e0d07fc329ae6c4871c5a0672b0c3a402acf2a1c9153901",
        "02c760ef10a8bf9c2f3f87622c232c9818a6b4d477ebefd2a602e7ba6193a0f0b5"
      ],
      "is_coinbase": false,
      "sequence": 4294967295
    }
  ],
  "vout": [
    {
      "scriptpubkey": "a91482799d67d42c8382d70508e7e240e82e2956ca6187",
      "scriptpubkey_asm": "OP_HASH160 OP_PUSHBYTES_20 82799d67d42c8382d70508e7e240e82e2956ca61 OP_EQUAL",
      "scriptpubkey_type": "p2sh",
      "scriptpubkey_address": "3DauTRw9GPQmefLgV6omjh349et1sVTs58",
      "value": 974447
    }
  ],
  "size": 192,
  "weight": 441,
  "fee": 1998,
  "status": {
    "confirmed": true,
    "block_height": 834638,
    "block_hash": "000000000000000000025f742c626208ac87e0b7d15054abb4a19ca2d735a54e",
    "block_time": 1710405325
  },
  "hex": "020000000001010f5c3b92572659b1114dca02ce12e2b382ac1328d8e9013715a53e0084bc37da0500000000ffffffff016fde0e000000000017a91482799d67d42c8382d70508e7e240e82e2956ca61870247304402201f911c6837cc2329ac8e5f63496534f07a6b848d2404b2a5da6740b9d00a1eec02207e94e29046a842eda58e0d07fc329ae6c4871c5a0672b0c3a402acf2a1c91539012102c760ef10a8bf9c2f3f87622c232c9818a6b4d477ebefd2a602e7ba6193a0f0b500000000"
}