{
  "txid": "2f4ef9708215278a83b4afc481739d72fb4a32e0ab1e1de798218940864811ca",
  "version": 2,
  "locktime": 0,
  "vin": [
    {
      "txid": "ec90a8101f37246f780d494c6fd24ccd99d674f9db53853d430567b70193569e",
      "vout": 1,
      "prevout": {
        "scriptpubkey": "00142c02dd6445c2220eaa54b27153ded939c940e546",
        "scriptpubkey_asm": "OP_0 OP_PUSHBYTES_20 2c02dd6445c2220eaa54b27153ded939c940e546",
        "scriptpubkey_type": "v0_p2wpkh",
        "scriptpubkey_address": "bc1q9spd6ez9cg3qa2j5kfc48hke88y5pe2xgjmj6f",
        "value": 163642863
      },
      "scriptsig": "",
      "scriptsig_asm": "",
      "witness": [
        "3044022010ebd6f53fcafd96616e250c8c766399d6c6c0b28d2196ccaf59a25ece51ff96022018e3d6694e68df1a6b5a5cd6034518e70422fd76644a15944800c45e9451acbf01",
        "0323dcd7be53b4d6c2b0ada6965e318a83bc75413352d121d1e7d85ce20fd27224"
      ],
      "is_coinbase": false,
      "sequence": 4294967295
    }
  ],
  "vout": [
    {
      "scriptpubkey": "00142eb34196bdfff2a1c79b4dbc9b8ae8ded6cb3414",
      "scriptpubkey_asm": "OP_0 OP_PUSHBYTES_20 2eb34196bdfff2a1c79b4dbc9b8ae8ded6cb3414",
      "scriptpubkey_type": "v0_p2wpkh",
      "scriptpubkey_address": "bc1q96e5r94alle2r3umfk7fhzhgmmtvkdq5erpwjm",
      "value": 1341900
    },
    {
      "scriptpubkey": "00142c02dd6445c2220eaa54b27153ded939c940e546",
      "scriptpubkey_asm": "OP_0 OP_PUSHBYTES_20 2c02dd6445c2220eaa54b27153ded939c940e546",
      "scriptpubkey_type": "v0_p2wpkh",
      "scriptpubkey_address": "bc1q9spd6ez9cg3qa2j5kfc48hke88y5pe2xgjmj6f",
      "value": 162296112
    }
  ],
  "size": 222,
  "weight": 561,
  "fee": 4851,
  "status": {
    "confirmed": true,
    "block_height": 834638,
    "block_hash": "000000000000000000025f742c626208ac87e0b7d15054abb4a19ca2d735a54e",
    "block_time": 1710405325
  },
  "hex": "020000000001019e569301b76705433d8553dbf974d699cd4cd26f4c490d786f24371f10a890ec0100000000ffffffff02cc791400000000001600142eb34196bdfff2a1c79b4dbc9b8ae8ded6cb34143071ac09000000001600142c02dd6445c2220eaa54b27153ded939c940e54602473044022010ebd6f53fcafd96616e250c8c766399d6c6c0b28d2196ccaf59a25ece51ff96022018e3d6694e68df1a6b5a5cd6034518e70422fd76644a15944800c45e9451acbf01210323dcd7be53b4d6c2b0ada6965e318a83bc75413352d121d1e7d85ce20fd2722400000000"
}