{
  "txid": "2f610b0d0a4967d8d95871efecb2fa4dffc0c757f545c2f54a68ba62c6d7b5f5",
  "version": 2,
  "locktime": 0,
  "vin": [
    {
      "txid": "986ee77176e65f71adf1988ab174bbd236fd209be7720ac65711db12010bde17",
      "vout": 1,
      "prevout": {
        "scriptpubkey": "a9148da8a565fb53bb7442a076a18e33cb0cce0896ac87",
        "scriptpubkey_asm": "OP_HASH160 OP_PUSHBYTES_20 8da8a565fb53bb7442a076a18e33cb0cce0896ac OP_EQUAL",
        "scriptpubkey_type": "p2sh",
        "scriptpubkey_address": "3Ec3EKwh2yxti48bSdNuPUdHd2N5HC3fJm",
        "value": 11300000
      },
      "scriptsig": "16001412a040a233e738dcb376ca7792b0941754e70608",
      "scriptsig_asm": "OP_PUSHBYTES_22 001412a040a233e738dcb376ca7792b0941754e70608",
      "witness": [
        "3044022065e0690a0f5e799cecf41fa48f21640734c8ea6accfa83e6ab8b29bc0ce376de022044f0aa76747a3a137ba39b00a5209f8455ff306c9bbde657d91d0e467834749001",
        "03495fced94d513b3ca251597f263e0fd985d2d48390724889419b66697675a1ae"
      ],
      "is_coinbase": false,
      "sequence": 4294967293,
      "inner_redeemscript_asm": "OP_0 OP_PUSHBYTES_20 12a040a233e738dcb376ca7792b0941754e70608"
    }
  ],
  "vout": [
    {
      "scriptpubkey": "001487080a296a7b1ec6a51810eaefe217251b81caf2",
      "scriptpubkey_asm": "OP_0 OP_PUSHBYTES_20 87080a296a7b1ec6a51810eaefe217251b81caf2",
      "scriptpubkey_type": "v0_p2wpkh",
      "scriptpubkey_address": "bc1qsuyq52t20v0vdfgczr4wlcshy5dcrjhjctlc4f",
      "value": 4998844
    },
    {
      "scriptpubkey": "001420f44bd9d90b3576a517b20d3cf8b5e3e0d4de7e",
      "scriptpubkey_asm": "OP_0 OP_PUSHBYTES_20 20f44bd9d90b3576a517b20d3cf8b5e3e0d4de7e",
      "scriptpubkey_type": "v0_p2wpkh",
      "scriptpubkey_address": "bc1qyr6yhkwepv6hdfghkgxne794u0sdfhn7d6r6re",
      "value": 6298844
    }
  ],
  "size": 245,
  "weight": 653,
  "fee": 2312,
  "status": {
    "confirmed": true,
    "block_height": 834460,
    "block_hash": "00000000000000000000484a79b643b2524bbce82e5d8a442013fa5b8905ed98",
    "block_time": 1710307468
  },
  "hex": "0200000000010117de0b0112db1157c60a72e79b20fd36d2bb74b18a98f1ad715fe67671e76e98010000001716001412a040a233e738dcb376ca7792b0941754e70608fdffffff02bc464c000000000016001487080a296a7b1ec6a51810eaefe217251b81caf2dc1c60000000000016001420f44bd9d90b3576a517b20d3cf8b5e3e0d4de7e02473044022065e0690a0f5e799cecf41fa48f21640734c8ea6accfa83e6ab8b29bc0ce376de022044f0aa76747a3a137ba39b00a5209f8455ff306c9bbde657d91d0e4678347490012103495fced94d513b3ca251597f263e0fd985d2d48390724889419b66697675a1ae00000000"
}