{
  "txid": "2f6f5c0e62d7d588185b138d243e1f9a4b527cd962b2f1f1bfc9c52b5ae0fe10",
  "version": 2,
  "locktime": 834453,
  "vin": [
    {
      "txid": "be0e91c8161076830a5d35138868020ed10e58ea208b371b2e8c734fc3b9b694",
      "vout": 0,
      "prevout": {
        "scriptpubkey": "5120e12efa737eefa3a1635084a88a959c92cbc4095a34f669b3ff3fb27eea9944bb",
        "scriptpubkey_asm": "OP_PUSHNUM_1 OP_PUSHBYTES_32 e12efa737eefa3a1635084a88a959c92cbc4095a34f669b3ff3fb27eea9944bb",
        "scriptpubkey_type": "v1_p2tr",
        "scriptpubkey_address": "bc1puyh05um7a736zc6ssj5g49vujt9ugz26xnmxnvll87e8a65egjasft3s98",
        "value": 105086
      },
      "scriptsig": "",
      "scriptsig_asm": "",
      "witness": [
        "378301008ff08fd55c3be8ee1ff3a770ad1799092e682c2148dba707a8980e9c64fea80accefdb6d3bf611f3f2145cbc776270fb3f5ca0516b0e3785f6449743"
      ],
      "is_coinbase": false,
      "sequence": 0
    }
  ],
  "vout": [
    {
      "scriptpubkey": "001420d2699d10c0e0d712fe77e4447e4598a68e671a",
      "scriptpubkey_asm": "OP_0 OP_PUSHBYTES_20 20d2699d10c0e0d712fe77e4447e4598a68e671a",
      "scriptpubkey_type": "v0_p2wpkh",
      "scriptpubkey_address": "bc1qyrfxn8gscrsdwyh7wljyglj9nznguec6nemwky",
      "value": 103697
    }
  ],
  "size": 150,
  "weight": 396,
  "fee": 1389,
  "status": {
    "confirmed": true,
    "block_height": 834460,
    "block_hash": "00000000000000000000484a79b643b2524bbce82e5d8a442013fa5b8905ed98",
    "block_time": 1710307468
  },
  "hex": "0200000000010194b6b9c34f738c2e1b378b20ea580ed10e02688813355d0a83761016c8910ebe00000000000000000001119501000000000016001420d2699d10c0e0d712fe77e4447e4598a68e671a0140378301008ff08fd55c3be8ee1ff3a770ad1799092e682c2148dba707a8980e9c64fea80accefdb6d3bf611f3f2145cbc776270fb3f5ca0516b0e3785f644974395bb0c00"
}