{
  "txid": "2f7a3c0554e22377ef66013dd3e2617b04ce637c94e22ddf203657e7d0ba6640",
  "version": 2,
  "locktime": 0,
  "vin": [
    {
      "txid": "e835c4d922fbed17c48b3bb466ba1ffc020ede84c1303bdb67ca1f883dd615bb",
      "vout": 23,
      "prevout": {
        "scriptpubkey": "51206e0577f061409012fa9abfbdce470288ed5873f556d8a344016d4f896f1dcbdb",
        "scriptpubkey_asm": "OP_PUSHNUM_1 OP_PUSHBYTES_32 6e0577f061409012fa9abfbdce470288ed5873f556d8a344016d4f896f1dcbdb",
        "scriptpubkey_type": "v1_p2tr",
        "scriptpubkey_address": "bc1pdczh0urpgzgp9756h77uu3cz3rk4sul42mv2x3qpd48cjmcae0dsdy3c20",
        "value": 3248
      },
      "scriptsig": "",
      "scriptsig_asm": "",
      "witness": [
        "1586881878c32790a185e566681885ccb509615a68035c6bea37909926f1d6227bb5bb3cad4f757e0d8447c0b69ca0e958454b493b567851dc34b6e0cb631c6f",
        "20aceaa80c03d35d0736f68b9a0247edc57f5c48584a9a3fa0b644a0e832d6d7eeac0063036f726401011e6170706c69636174696f6e2f6a736f6e3b636861727365743d7574662d38004cd37b2270223a22706f772d3230222c226f70223a226d696e74222c227469636b223a2250455045222c22616d74223a2231303030222c22736f6c7574696f6e223a22504550453a626331703378336875706e76383064666366666c34333367327a3776713378706c63673364666d79716365336d6c6d6e78397767753872717265763032653a303030303030303030303030303030303030303139393431613561653132383937363539383134343239323533333030353762306461393666336465613163353a3137303638343539353138227d68",
        "c0bf69a78b1b6433fca38fda21525e43a6c565682ca08e513a8f66feb668723930"
      ],
      "is_coinbase": false,
      "sequence": 4294967295
    }
  ],
  "vout": [
    {
      "scriptpubkey": "512089a37e066c3bda9c253fac62850bcc044c1fe1116a76406331dff73315c8e1c6",
      "scriptpubkey_asm": "OP_PUSHNUM_1 OP_PUSHBYTES_32 89a37e066c3bda9c253fac62850bcc044c1fe1116a76406331dff73315c8e1c6",
      "scriptpubkey_type": "v1_p2tr",
      "scriptpubkey_address": "bc1p3x3hupnv80dfcffl433g2z7vq3xplcg3dfmyqce3mlmnx9wgu8rqrev02e",
      "value": 546
    }
  ],
  "size": 487,
  "weight": 769,
  "fee": 2702,
  "status": {
    "confirmed": true,
    "block_height": 834460,
    "block_hash": "00000000000000000000484a79b643b2524bbce82e5d8a442013fa5b8905ed98",
    "block_time": 1710307468
  },
  "hex": "02000000000101bb15d63d881fca67db3b30c184de0e02fc1fba66b43b8bc417edfb22d9c435e81700000000ffffffff01220200000000000022512089a37e066c3bda9c253fac62850bcc044c1fe1116a76406331dff73315c8e1c603401586881878c32790a185e566681885ccb509615a68035c6bea37909926f1d6227bb5bb3cad4f757e0d8447c0b69ca0e958454b493b567851dc34b6e0cb631c6ffd200120aceaa80c03d35d0736f68b9a0247edc57f5c48584a9a3fa0b644a0e832d6d7eeac0063036f726401011e6170706c69636174696f6e2f6a736f6e3b636861727365743d7574662d38004cd37b2270223a22706f772d3230222c226f70223a226d696e74222c227469636b223a2250455045222c22616d74223a2231303030222c22736f6c7574696f6e223a22504550453a626331703378336875706e76383064666366666c34333367327a3776713378706c63673364666d79716365336d6c6d6e78397767753872717265763032653a303030303030303030303030303030303030303139393431613561653132383937363539383134343239323533333030353762306461393666336465613163353a3137303638343539353138227d6821c0bf69a78b1b6433fca38fda21525e43a6c565682ca08e513a8f66feb66872393000000000"
}