{
  "txid": "2f8f55f4f5922146fcd74d16b4f59fd5b6d294af58fd472345d751d4124ad70a",
  "version": 2,
  "locktime": 0,
  "vin": [
    {
      "txid": "6c7c2d84cd618bc265e01477211bf6e7a93868e48acbb0f69870612b3971ee81",
      "vout": 0,
      "prevout": {
        "scriptpubkey": "51207285208260f613ac5dc34ce5d4736dfa52ac823cb720770ef3ffa6e83fe58745",
        "scriptpubkey_asm": "OP_PUSHNUM_1 OP_PUSHBYTES_32 7285208260f613ac5dc34ce5d4736dfa52ac823cb720770ef3ffa6e83fe58745",
        "scriptpubkey_type": "v1_p2tr",
        "scriptpubkey_address": "bc1pw2zjpqnq7cf6chwrfnjagumdlff2eq3ukus8wrhnl7nws0l9sazswgxh5d",
        "value": 7000
      },
      "scriptsig": "",
      "scriptsig_asm": "",
      "witness": [
        "6724c78d66542ef342c83b4bfc925791a363a4e48f33a1068c73f9e584bf6103c19d7693fad369d83f328bb9697ecb5a564b50058de04d9ea003a9bb3ce4cfb3",
        "20747f380de17523dcb2270120902e9723c6d533fac2eaf43322489da836a8159aac0063036f726401011e6170706c69636174696f6e2f6a736f6e3b636861727365743d7574662d38004cbf7b2270223a22706f772d3230222c226f70223a226d696e74222c227469636b223a2250455045222c22616d74223a2231303030222c22736f6c7574696f6e223a22504550453a62633171357966687675666c6d6d63646534747768736163633578336e6b787536667a676777373372733a303030303030303030303030303030303030303139393431613561653132383937363539383134343239323533333030353762306461393666336465613163353a3139383936343535353438227d68",
        "c0ef6438329cd99517ad7466b21b3fc089bf2e7e61ee39f79affdab414710080fb"
      ],
      "is_coinbase": false,
      "sequence": 4294967293
    }
  ],
  "vout": [
    {
      "scriptpubkey": "0014a11376713fdef0dcd56ebc3b8c50d19d8dcd2448",
      "scriptpubkey_asm": "OP_0 OP_PUSHBYTES_20 a11376713fdef0dcd56ebc3b8c50d19d8dcd2448",
      "scriptpubkey_type": "v0_p2wpkh",
      "scriptpubkey_address": "bc1q5yfhvuflmmcde4twhsacc5x3nkxu6fzggw73rs",
      "value": 546
    },
    {
      "scriptpubkey": "001461c5cc550b389de9de46c7fc184678d6e5486ce3",
      "scriptpubkey_asm": "OP_0 OP_PUSHBYTES_20 61c5cc550b389de9de46c7fc184678d6e5486ce3",
      "scriptpubkey_type": "v0_p2wpkh",
      "scriptpubkey_address": "bc1qv8zuc4gt8zw7nhjxcl7ps3nc6mj5sm8rjc6hnt",
      "value": 1900
    }
  ],
  "size": 486,
  "weight": 825,
  "fee": 4554,
  "status": {
    "confirmed": true,
    "block_height": 834460,
    "block_hash": "00000000000000000000484a79b643b2524bbce82e5d8a442013fa5b8905ed98",
    "block_time": 1710307468
  },
  "hex": "0200000000010181ee71392b617098f6b0cb8ae46838a9e7f61b217714e065c28b61cd842d7c6c0000000000fdffffff022202000000000000160014a11376713fdef0dcd56ebc3b8c50d19d8dcd24486c0700000000000016001461c5cc550b389de9de46c7fc184678d6e5486ce303406724c78d66542ef342c83b4bfc925791a363a4e48f33a1068c73f9e584bf6103c19d7693fad369d83f328bb9697ecb5a564b50058de04d9ea003a9bb3ce4cfb3fd0c0120747f380de17523dcb2270120902e9723c6d533fac2eaf43322489da836a8159aac0063036f726401011e6170706c69636174696f6e2f6a736f6e3b636861727365743d7574662d38004cbf7b2270223a22706f772d3230222c226f70223a226d696e74222c227469636b223a2250455045222c22616d74223a2231303030222c22736f6c7574696f6e223a22504550453a62633171357966687675666c6d6d63646534747768736163633578336e6b787536667a676777373372733a303030303030303030303030303030303030303139393431613561653132383937363539383134343239323533333030353762306461393666336465613163353a3139383936343535353438227d6821c0ef6438329cd99517ad7466b21b3fc089bf2e7e61ee39f79affdab414710080fb00000000"
}