{
  "txid": "2fb086aa21b95e743c4a7205695de52cbc527d55ea5810c09e0bc3d87ee3db4b",
  "version": 2,
  "locktime": 0,
  "vin": [
    {
      "txid": "af6699d7382a4768ac82153e434085962abbaa8e85d57d6b7b1dee5d46dcac62",
      "vout": 3,
      "prevout": {
        "scriptpubkey": "0014286ad7b6e92cdc305a8393c45f7ee794eb81ce98",
        "scriptpubkey_asm": "OP_0 OP_PUSHBYTES_20 286ad7b6e92cdc305a8393c45f7ee794eb81ce98",
        "scriptpubkey_type": "v0_p2wpkh",
        "scriptpubkey_address": "bc1q9p4d0dhf9nwrqk5rj0z97lh8jn4crn5capp0y7",
        "value": 547
      },
      "scriptsig": "",
      "scriptsig_asm": "",
      "witness": [
        "3044022036cc4b4c0735618e09a00beb8951e99584ffb6a5ff87c2dde0ba887dd6c9acff0220625fdf5d31b29eb21065048c1327b1f99bab29a73d029f01373f6740e588849781",
        "024a953ed84dec8a14cecc0798329706531c066a58a80fe76264237c62b00c0413"
      ],
      "is_coinbase": false,
      "sequence": 4294967293
    },
    {
      "txid": "f3f8b6d2a2b56bd5cd2a6bd1a49ae88b49fd7bc3c7c54b6913847eeaf3968d53",
      "vout": 1,
      "prevout": {
        "scriptpubkey": "0014d45e6cf681031d791b3f17a2dacece393cbfbeea",
        "scriptpubkey_asm": "OP_0 OP_PUSHBYTES_20 d45e6cf681031d791b3f17a2dacece393cbfbeea",
        "scriptpubkey_type": "v0_p2wpkh",
        "scriptpubkey_address": "bc1q630xea5pqvwhjxelz73d4nkw8y7tl0h2j67aju",
        "value": 8260914
      },
      "scriptsig": "",
      "scriptsig_asm": "",
      "witness": [
        "304402200edfb9196d163336f6e00e3de1f7ad4da37364d6875d64a2daa68e936afc8e4902207599b5b3624cdfe6ffda11c69ab2fc9d05050fce2dd3872245514975241d496901",
        "02070b4accbebdfbe1bc8122557f50ee16c67147bea0ce7b527f33dac85b1d2916"
      ],
      "is_coinbase": false,
      "sequence": 4294967293
    }
  ],
  "vout": [
    {
      "scriptpubkey": "00144b6560f9a269c5d1e686d3c2980beea6728cee29",
      "scriptpubkey_asm": "OP_0 OP_PUSHBYTES_20 4b6560f9a269c5d1e686d3c2980beea6728cee29",
      "scriptpubkey_type": "v0_p2wpkh",
      "scriptpubkey_address": "bc1qfdjkp7dzd8zare5x60pfszlw5eegem3frpfw6n",
      "value": 8246700
    },
    {
      "scriptpubkey": "512102c70aa54de8a4b50cb4dce9c26cdd27f0e0eb8db2308a0e76441e0ef3ea83765b21028f7a0b0609474fc4b1f2841292c3f42953974d569da52cdb817a792122da07c72103333333333333333333333333333333333333333333333333333333333333333353ae",
      "scriptpubkey_asm": "OP_PUSHNUM_1 OP_PUSHBYTES_33 02c70aa54de8a4b50cb4dce9c26cdd27f0e0eb8db2308a0e76441e0ef3ea83765b OP_PUSHBYTES_33 028f7a0b0609474fc4b1f2841292c3f42953974d569da52cdb817a792122da07c7 OP_PUSHBYTES_33 033333333333333333333333333333333333333333333333333333333333333333 OP_PUSHNUM_3 OP_CHECKMULTISIG",
      "scriptpubkey_type": "unknown",
      "value": 796
    },
    {
      "scriptpubkey": "51210224ed162ebe4a37928b91285bfb546aa5a13dcf696e90fec14d97820d3f0b2bfc210278a490258d63b83a3ffc5ce1b4ff04ea9117f50d8a229ff1ea65cc6922c028a72102020202020202020202020202020202020202020202020202020202020202020253ae",
      "scriptpubkey_asm": "OP_PUSHNUM_1 OP_PUSHBYTES_33 0224ed162ebe4a37928b91285bfb546aa5a13dcf696e90fec14d97820d3f0b2bfc OP_PUSHBYTES_33 0278a490258d63b83a3ffc5ce1b4ff04ea9117f50d8a229ff1ea65cc6922c028a7 OP_PUSHBYTES_33 020202020202020202020202020202020202020202020202020202020202020202 OP_PUSHNUM_3 OP_CHECKMULTISIG",
      "scriptpubkey_type": "unknown",
      "value": 796
    },
    {
      "scriptpubkey": "0014286ad7b6e92cdc305a8393c45f7ee794eb81ce98",
      "scriptpubkey_asm": "OP_0 OP_PUSHBYTES_20 286ad7b6e92cdc305a8393c45f7ee794eb81ce98",
      "scriptpubkey_type": "v0_p2wpkh",
      "scriptpubkey_address": "bc1q9p4d0dhf9nwrqk5rj0z97lh8jn4crn5capp0y7",
      "value": 547
    }
  ],
  "size": 598,
  "weight": 1744,
  "fee": 12622,
  "status": {
    "confirmed": true,
    "block_height": 834638,
    "block_hash": "000000000000000000025f742c626208ac87e0b7d15054abb4a19ca2d735a54e",
    "block_time": 1710405325
  },
  "hex": "0200000000010262acdc465dee1d7b6b7dd5858eaabb2a968540433e1582ac68472a38d79966af0300000000fdffffff538d96f3ea7e8413694bc5c7c37bfd498be89aa4d16b2acdd56bb5a2d2b6f8f30100000000fdffffff04acd57d00000000001600144b6560f9a269c5d1e686d3c2980beea6728cee291c0300000000000069512102c70aa54de8a4b50cb4dce9c26cdd27f0e0eb8db2308a0e76441e0ef3ea83765b21028f7a0b0609474fc4b1f2841292c3f42953974d569da52cdb817a792122da07c72103333333333333333333333333333333333333333333333333333333333333333353ae1c030000000000006951210224ed162ebe4a37928b91285bfb546aa5a13dcf696e90fec14d97820d3f0b2bfc210278a490258d63b83a3ffc5ce1b4ff04ea9117f50d8a229ff1ea65cc6922c028a72102020202020202020202020202020202020202020202020202020202020202020253ae2302000000000000160014286ad7b6e92cdc305a8393c45f7ee794eb81ce9802473044022036cc4b4c0735618e09a00beb8951e99584ffb6a5ff87c2dde0ba887dd6c9acff0220625fdf5d31b29eb21065048c1327b1f99bab29a73d029f01373f6740e58884978121024a953ed84dec8a14cecc0798329706531c066a58a80fe76264237c62b00c04130247304402200edfb9196d163336f6e00e3de1f7ad4da37364d6875d64a2daa68e936afc8e4902207599b5b3624cdfe6ffda11c69ab2fc9d05050fce2dd3872245514975241d4969012102070b4accbebdfbe1bc8122557f50ee16c67147bea0ce7b527f33dac85b1d291600000000"
}