{
  "txid": "2fd9d204f7986715a302c2735679684960263f8f7b8e805f768acc37d98f347f",
  "version": 2,
  "locktime": 834603,
  "vin": [
    {
      "txid": "3f63ad8693284e3e82e045424e7d8f7594b2e02dd5742efdafda86ee5dd63dbc",
      "vout": 1,
      "prevout": {
        "scriptpubkey": "76a914eca2ff16d7362e080be4fd8ba0dfa9d6ccaaa98688ac",
        "scriptpubkey_asm": "OP_DUP OP_HASH160 OP_PUSHBYTES_20 eca2ff16d7362e080be4fd8ba0dfa9d6ccaaa986 OP_EQUALVERIFY OP_CHECKSIG",
        "scriptpubkey_type": "p2pkh",
        "scriptpubkey_address": "1NaDjTsedJUi35yiiZd1yKFpSSmh3hjz6u",
        "value": 1107508
      },
      "scriptsig": "47304402205e7fb3e3463ee0c9677a6ca3c8ff32e6f10f60823ff89809abbbb36b0b26f2680220201e5d00f616b2201fa9a6fb2590b90121e3ab573e9ddf1d4a8ff95c7b35e48a012102a58c486b6c15c5a2967828e1b9f71036bb85e71438166883a24a2dc787ab81c6",
      "scriptsig_asm": "OP_PUSHBYTES_71 304402205e7fb3e3463ee0c9677a6ca3c8ff32e6f10f60823ff89809abbbb36b0b26f2680220201e5d00f616b2201fa9a6fb2590b90121e3ab573e9ddf1d4a8ff95c7b35e48a01 OP_PUSHBYTES_33 02a58c486b6c15c5a2967828e1b9f71036bb85e71438166883a24a2dc787ab81c6",
      "is_coinbase": false,
      "sequence": 4294967294
    }
  ],
  "vout": [
    {
      "scriptpubkey": "76a9141eb738d5adedc29fe9a324d580cba8ca719738d888ac",
      "scriptpubkey_asm": "OP_DUP OP_HASH160 OP_PUSHBYTES_20 1eb738d5adedc29fe9a324d580cba8ca719738d8 OP_EQUALVERIFY OP_CHECKSIG",
      "scriptpubkey_type": "p2pkh",
      "scriptpubkey_address": "13oQmF7jiQv3xZdfVWAdWva2XqkCuhE3Vx",
      "value": 93881
    },
    {
      "scriptpubkey": "76a914a3644e746efc24c4fc06995c194f5085dc53d8d788ac",
      "scriptpubkey_asm": "OP_DUP OP_HASH160 OP_PUSHBYTES_20 a3644e746efc24c4fc06995c194f5085dc53d8d7 OP_EQUALVERIFY OP_CHECKSIG",
      "scriptpubkey_type": "p2pkh",
      "scriptpubkey_address": "1FtwJgerwJpsvC3nwuef3nhRpADfanVjDn",
      "value": 1007777
    }
  ],
  "size": 225,
  "weight": 900,
  "fee": 5850,
  "status": {
    "confirmed": true,
    "block_height": 834638,
    "block_hash": "000000000000000000025f742c626208ac87e0b7d15054abb4a19ca2d735a54e",
    "block_time": 1710405325
  },
  "hex": "0200000001bc3dd65dee86daaffd2e74d52de0b294758f7d4e4245e0823e4e289386ad633f010000006a47304402205e7fb3e3463ee0c9677a6ca3c8ff32e6f10f60823ff89809abbbb36b0b26f2680220201e5d00f616b2201fa9a6fb2590b90121e3ab573e9ddf1d4a8ff95c7b35e48a012102a58c486b6c15c5a2967828e1b9f71036bb85e71438166883a24a2dc787ab81c6feffffff02b96e0100000000001976a9141eb738d5adedc29fe9a324d580cba8ca719738d888aca1600f00000000001976a914a3644e746efc24c4fc06995c194f5085dc53d8d788ac2bbc0c00"
}