{
  "txid": "2fe0f577c3bdd5ae66ab06b97092334b740ab016de1fb629e2c7a94d4d967e32",
  "version": 1,
  "locktime": 0,
  "vin": [
    {
      "txid": "a15b8655f56da3154c8420bbd3f38b03abae9ca95ae22238b8906bcb85d6e545",
      "vout": 1,
      "prevout": {
        "scriptpubkey": "0014a8dcc50a182e054805a653ab4f31a6909a68e325",
        "scriptpubkey_asm": "OP_0 OP_PUSHBYTES_20 a8dcc50a182e054805a653ab4f31a6909a68e325",
        "scriptpubkey_type": "v0_p2wpkh",
        "scriptpubkey_address": "bc1q4rwv2zsc9cz5spdx2w457vdxjzdx3ce9j5kr6h",
        "value": 63643
      },
      "scriptsig": "",
      "scriptsig_asm": "",
      "witness": [
        "304402201980843af2eb046517ee51a781c84b1d684317539f3ed746b4dff89f07a7047502202714bb98dff3b77abcd29663806e5feee740109f6aee4f3ae40a23d8a6700b3701",
        "03e26b3f22221b7631f5a17c955ce3dd612fa0a3118c000a61aaef9401c79b1a41"
      ],
      "is_coinbase": false,
      "sequence": 4294967295
    },
    {
      "txid": "5b19365dcb6b00fb80518db79e617a8db3f617d8e1479d4589686fd895e10755",
      "vout": 98,
      "prevout": {
        "scriptpubkey": "00140fa2e54d65623beadd432266de787c78d37d67a0",
        "scriptpubkey_asm": "OP_0 OP_PUSHBYTES_20 0fa2e54d65623beadd432266de787c78d37d67a0",
        "scriptpubkey_type": "v0_p2wpkh",
        "scriptpubkey_address": "bc1qp73w2nt9vga74h2ryfndu7ru0rfh6eaqfff6aa",
        "value": 662830
      },
      "scriptsig": "",
      "scriptsig_asm": "",
      "witness": [
        "304402204c9b144cac65ba0cd9b6a741a074cfceaae782f2ae8bc6209235a0a404aa280902205e6de183213e7e7a920f3bae67e55c67030ecd61965358d1972ca2f7ecf0bbc301",
        "027ade3a8e18b8c09a5e6efa7b7644132a7aa3625b33f74a2f8050aef21b6f7c9e"
      ],
      "is_coinbase": false,
      "sequence": 4294967295
    }
  ],
  "vout": [
    {
      "scriptpubkey": "76a9149befb490503d08093d61792ecfa7fa45bd466e0a88ac",
      "scriptpubkey_asm": "OP_DUP OP_HASH160 OP_PUSHBYTES_20 9befb490503d08093d61792ecfa7fa45bd466e0a OP_EQUALVERIFY OP_CHECKSIG",
      "scriptpubkey_type": "p2pkh",
      "scriptpubkey_address": "1FDWtkc8Bw6VQtv8QPvkzbT9LYzUQohYKN",
      "value": 70668
    },
    {
      "scriptpubkey": "001436c9bd71791670e731e53a0b7e2f26a359f28bb5",
      "scriptpubkey_asm": "OP_0 OP_PUSHBYTES_20 36c9bd71791670e731e53a0b7e2f26a359f28bb5",
      "scriptpubkey_type": "v0_p2wpkh",
      "scriptpubkey_address": "bc1qxmym6utezecwwv098g9hutex5dvl9za45z56qc",
      "value": 651595
    }
  ],
  "size": 373,
  "weight": 844,
  "fee": 4210,
  "status": {
    "confirmed": true,
    "block_height": 834638,
    "block_hash": "000000000000000000025f742c626208ac87e0b7d15054abb4a19ca2d735a54e",
    "block_time": 1710405325
  },
  "hex": "0100000000010245e5d685cb6b90b83822e25aa99caeab038bf3d3bb20844c15a36df555865ba10100000000ffffffff5507e195d86f6889459d47e1d817f6b38d7a619eb78d5180fb006bcb5d36195b6200000000ffffffff020c140100000000001976a9149befb490503d08093d61792ecfa7fa45bd466e0a88ac4bf109000000000016001436c9bd71791670e731e53a0b7e2f26a359f28bb50247304402201980843af2eb046517ee51a781c84b1d684317539f3ed746b4dff89f07a7047502202714bb98dff3b77abcd29663806e5feee740109f6aee4f3ae40a23d8a6700b37012103e26b3f22221b7631f5a17c955ce3dd612fa0a3118c000a61aaef9401c79b1a410247304402204c9b144cac65ba0cd9b6a741a074cfceaae782f2ae8bc6209235a0a404aa280902205e6de183213e7e7a920f3bae67e55c67030ecd61965358d1972ca2f7ecf0bbc30121027ade3a8e18b8c09a5e6efa7b7644132a7aa3625b33f74a2f8050aef21b6f7c9e00000000"
}