{
  "txid": "2fec51ea954112b77af5e584ddf478bfc1520fd2205b85f68bfcd4b6c909a791",
  "version": 2,
  "locktime": 834637,
  "vin": [
    {
      "txid": "c260b2c56554cfccebd30cefc3c29173f5a6b6d66b0f045e39562dc30e180ba7",
      "vout": 0,
      "prevout": {
        "scriptpubkey": "0014eb0369e6064dd75ccca7cf40a2314b573a2c3e9a",
        "scriptpubkey_asm": "OP_0 OP_PUSHBYTES_20 eb0369e6064dd75ccca7cf40a2314b573a2c3e9a",
        "scriptpubkey_type": "v0_p2wpkh",
        "scriptpubkey_address": "bc1qavpknesxfht4en98eaq2yv2t2uazc056qddv2u",
        "value": 21636
      },
      "scriptsig": "",
      "scriptsig_asm": "",
      "witness": [
        "3044022075e83528f852e544e629bc8c9b9513ff958234af159b08feae43395822cbac0e0220512ce5107fcfcea6b1d22395010806bba5178abc12cc807f2910e581ac4da7ad01",
        "02594ac6d315891fc4af6f04422cf252d37ca633a0978c2e68a32cac360c4b68e6"
      ],
      "is_coinbase": false,
      "sequence": 4294967294
    }
  ],
  "vout": [
    {
      "scriptpubkey": "0014ee4ab27b2cdc10147f5484de6154172ab3f0a21e",
      "scriptpubkey_asm": "OP_0 OP_PUSHBYTES_20 ee4ab27b2cdc10147f5484de6154172ab3f0a21e",
      "scriptpubkey_type": "v0_p2wpkh",
      "scriptpubkey_address": "bc1qae9ty7evmsgpgl65sn0xz4qh92elpgs7fq5wef",
      "value": 5691
    },
    {
      "scriptpubkey": "001467618da120130ccd8bbe4c2644c2ad33ed0a0312",
      "scriptpubkey_asm": "OP_0 OP_PUSHBYTES_20 67618da120130ccd8bbe4c2644c2ad33ed0a0312",
      "scriptpubkey_type": "v0_p2wpkh",
      "scriptpubkey_address": "bc1qvascmgfqzvxvmza7fsnyfs4dx0ks5qcjsgjlvc",
      "value": 13700
    }
  ],
  "size": 222,
  "weight": 561,
  "fee": 2245,
  "status": {
    "confirmed": true,
    "block_height": 834638,
    "block_hash": "000000000000000000025f742c626208ac87e0b7d15054abb4a19ca2d735a54e",
    "block_time": 1710405325
  },
  "hex": "02000000000101a70b180ec32d56395e040f6bd6b6a6f57391c2c3ef0cd3ebcccf5465c5b260c20000000000feffffff023b16000000000000160014ee4ab27b2cdc10147f5484de6154172ab3f0a21e843500000000000016001467618da120130ccd8bbe4c2644c2ad33ed0a031202473044022075e83528f852e544e629bc8c9b9513ff958234af159b08feae43395822cbac0e0220512ce5107fcfcea6b1d22395010806bba5178abc12cc807f2910e581ac4da7ad012102594ac6d315891fc4af6f04422cf252d37ca633a0978c2e68a32cac360c4b68e64dbc0c00"
}