{
  "txid": "2ff342a5e7367c65aa623357649905e04cb48aa40aadc450cde961ce8b99065e",
  "version": 2,
  "locktime": 0,
  "vin": [
    {
      "txid": "89d16d94844468705d365d8b252aa7c02267eb321a24f57ee2ab1f9c0b693d9b",
      "vout": 0,
      "prevout": {
        "scriptpubkey": "5120594d4c637ce0f4cc67ee6df3fc103708bf87f9c26c6476c427c7aabbf30bd5da",
        "scriptpubkey_asm": "OP_PUSHNUM_1 OP_PUSHBYTES_32 594d4c637ce0f4cc67ee6df3fc103708bf87f9c26c6476c427c7aabbf30bd5da",
        "scriptpubkey_type": "v1_p2tr",
        "scriptpubkey_address": "bc1pt9x5ccmuur6vcelwdhelcyphpzlc07wzd3j8d3p8c74thuct6hdq3kdsgf",
        "value": 3726
      },
      "scriptsig": "",
      "scriptsig_asm": "",
      "witness": [
        "6ca82c109ec967b5ea09eed881a66558dd8e011558195851e2faad86331b2cc3b20e497447cb4bd4e7e2cb02bf9e8476232adf79dc613817323a18cd92f3e99a",
        "208324be295c918a91213ef8a1d8c4ea23c0bd3ddb6c254b96db7ec0fe4366bc1aac0063036f72640101106170706c69636174696f6e2f6a736f6e00387b2270223a226272632d3230222c226f70223a227472616e73666572222c227469636b223a22314f6e38222c22616d74223a22313332227d68",
        "c08324be295c918a91213ef8a1d8c4ea23c0bd3ddb6c254b96db7ec0fe4366bc1a"
      ],
      "is_coinbase": false,
      "sequence": 4294967293
    }
  ],
  "vout": [
    {
      "scriptpubkey": "51204b3def6b7bdf9758a317f5eafc03b3a744cc6bb7dad731af7edbfbb555c2be75",
      "scriptpubkey_asm": "OP_PUSHNUM_1 OP_PUSHBYTES_32 4b3def6b7bdf9758a317f5eafc03b3a744cc6bb7dad731af7edbfbb555c2be75",
      "scriptpubkey_type": "v1_p2tr",
      "scriptpubkey_address": "bc1pfv7776mmm7t43gch7h40cqan5azvc6ahmttnrtm7m0am24wzhe6smdt3m6",
      "value": 546
    }
  ],
  "size": 315,
  "weight": 597,
  "fee": 3180,
  "status": {
    "confirmed": true,
    "block_height": 834460,
    "block_hash": "00000000000000000000484a79b643b2524bbce82e5d8a442013fa5b8905ed98",
    "block_time": 1710307468
  },
  "hex": "020000000001019b3d690b9c1fabe27ef5241a32eb6722c0a72a258b5d365d70684484946dd1890000000000fdffffff0122020000000000002251204b3def6b7bdf9758a317f5eafc03b3a744cc6bb7dad731af7edbfbb555c2be7503406ca82c109ec967b5ea09eed881a66558dd8e011558195851e2faad86331b2cc3b20e497447cb4bd4e7e2cb02bf9e8476232adf79dc613817323a18cd92f3e99a76208324be295c918a91213ef8a1d8c4ea23c0bd3ddb6c254b96db7ec0fe4366bc1aac0063036f72640101106170706c69636174696f6e2f6a736f6e00387b2270223a226272632d3230222c226f70223a227472616e73666572222c227469636b223a22314f6e38222c22616d74223a22313332227d6821c08324be295c918a91213ef8a1d8c4ea23c0bd3ddb6c254b96db7ec0fe4366bc1a00000000"
}