{
  "txid": "3015de26169861a5980b6de97181d58ca656a05aa4f19b5c53f673ac746ec82b",
  "version": 2,
  "locktime": 0,
  "vin": [
    {
      "txid": "2ee7e9bc2f0f43192f5d2dcb9ba2f7bf417e46f7a86aea7e61bf494a2116911f",
      "vout": 13,
      "prevout": {
        "scriptpubkey": "5120b8ee63bafa1c690eb7bc40bb6aed74c26bbb93b3051545248a3aea91cbe9ab77",
        "scriptpubkey_asm": "OP_PUSHNUM_1 OP_PUSHBYTES_32 b8ee63bafa1c690eb7bc40bb6aed74c26bbb93b3051545248a3aea91cbe9ab77",
        "scriptpubkey_type": "v1_p2tr",
        "scriptpubkey_address": "bc1phrhx8wh6r35sadaugzak4mt5cf4mhyanq5252fy28t4frjlf4dmseu0cj6",
        "value": 2850
      },
      "scriptsig": "",
      "scriptsig_asm": "",
      "witness": [
        "274c6c38c340b61fde6e56984a63b134aff337e1471228f6ee3d94a2c168b159a2a6b08d9268654b7ed4afe57c9ec98d477dbd209ffacf534e7c77c63af696a4",
        "2054db51aac0cb9dd354d1dd4048a76ab5bd2546c6f5b6e12ca0981e17c880c636ac0063036f726401011e6170706c69636174696f6e2f6a736f6e3b636861727365743d7574662d38004cd27b2270223a22706f772d3230222c226f70223a226d696e74222c227469636b223a2250455045222c22616d74223a2231303030222c22736f6c7574696f6e223a22504550453a6263317032643677617a36736d6332646c33337861686b7364747a70793379397164713670677072776d3535376d303063646135303976733972333779633a303030303030303030303030303030303030303139393431613561653132383937363539383134343239323533333030353762306461393666336465613163353a39383732373334343833227d68",
        "c0c302becc0a7fa5f96ff01f380e695b2faa1e460e5e66e108f6410cf3df3f4a28"
      ],
      "is_coinbase": false,
      "sequence": 4294967295
    }
  ],
  "vout": [
    {
      "scriptpubkey": "51205374ee8b50de14dfc626eded06ac41244850341a0a02376e94f6defc37b47959",
      "scriptpubkey_asm": "OP_PUSHNUM_1 OP_PUSHBYTES_32 5374ee8b50de14dfc626eded06ac41244850341a0a02376e94f6defc37b47959",
      "scriptpubkey_type": "v1_p2tr",
      "scriptpubkey_address": "bc1p2d6waz6smc2dl33xahksdtzpy3y9qdq6pgprwm557m00cda509vs9r37yc",
      "value": 546
    }
  ],
  "size": 486,
  "weight": 768,
  "fee": 2304,
  "status": {
    "confirmed": true,
    "block_height": 834460,
    "block_hash": "00000000000000000000484a79b643b2524bbce82e5d8a442013fa5b8905ed98",
    "block_time": 1710307468
  },
  "hex": "020000000001011f9116214a49bf617eea6aa8f7467e41bff7a29bcb2d5d2f19430f2fbce9e72e0d00000000ffffffff0122020000000000002251205374ee8b50de14dfc626eded06ac41244850341a0a02376e94f6defc37b479590340274c6c38c340b61fde6e56984a63b134aff337e1471228f6ee3d94a2c168b159a2a6b08d9268654b7ed4afe57c9ec98d477dbd209ffacf534e7c77c63af696a4fd1f012054db51aac0cb9dd354d1dd4048a76ab5bd2546c6f5b6e12ca0981e17c880c636ac0063036f726401011e6170706c69636174696f6e2f6a736f6e3b636861727365743d7574662d38004cd27b2270223a22706f772d3230222c226f70223a226d696e74222c227469636b223a2250455045222c22616d74223a2231303030222c22736f6c7574696f6e223a22504550453a6263317032643677617a36736d6332646c33337861686b7364747a70793379397164713670677072776d3535376d303063646135303976733972333779633a303030303030303030303030303030303030303139393431613561653132383937363539383134343239323533333030353762306461393666336465613163353a39383732373334343833227d6821c0c302becc0a7fa5f96ff01f380e695b2faa1e460e5e66e108f6410cf3df3f4a2800000000"
}