{
  "txid": "301c86e6b4295861d2e93071d7d7955fa68110befdb4cd626d68cd1bcc2d7b9f",
  "version": 2,
  "locktime": 834637,
  "vin": [
    {
      "txid": "99806ff619938f6910df77d8861169fb71c676466f21fc697b37613d513c5665",
      "vout": 1,
      "prevout": {
        "scriptpubkey": "0014598908079dac0596b2bbe232fc9b4e6db2ccef28",
        "scriptpubkey_asm": "OP_0 OP_PUSHBYTES_20 598908079dac0596b2bbe232fc9b4e6db2ccef28",
        "scriptpubkey_type": "v0_p2wpkh",
        "scriptpubkey_address": "bc1qtxysspua4szedv4muge0ex6wdkevemeg8nkj95",
        "value": 705952272
      },
      "scriptsig": "",
      "scriptsig_asm": "",
      "witness": [
        "304402207369303ff4d739fddba5e9de06e3817d44b136f6268f89d50bbc927d7f51679002206d8664fcc6e7d703eb7d105e52d0f6d6957401e72d245c820e28fcba79bbc2a101",
        "0365cc65216924aa7deb81cb5e97ce1731c1df46236de2addcd02303dfc63040ab"
      ],
      "is_coinbase": false,
      "sequence": 4294967294
    }
  ],
  "vout": [
    {
      "scriptpubkey": "a9142506569f7b897fd9ac1c6df95b95ad93e27e089787",
      "scriptpubkey_asm": "OP_HASH160 OP_PUSHBYTES_20 2506569f7b897fd9ac1c6df95b95ad93e27e0897 OP_EQUAL",
      "scriptpubkey_type": "p2sh",
      "scriptpubkey_address": "354nX3EBXrZeqmAHR3z5b6R2qEyyR8eBGx",
      "value": 2753300
    },
    {
      "scriptpubkey": "0014cabc0143b219b9f225892c33347851272a1b92a2",
      "scriptpubkey_asm": "OP_0 OP_PUSHBYTES_20 cabc0143b219b9f225892c33347851272a1b92a2",
      "scriptpubkey_type": "v0_p2wpkh",
      "scriptpubkey_address": "bc1qe27qzsajrxulyfvf9seng7z3yu4phy4zvdnnfk",
      "value": 703195492
    }
  ],
  "size": 223,
  "weight": 565,
  "fee": 3480,
  "status": {
    "confirmed": true,
    "block_height": 834638,
    "block_hash": "000000000000000000025f742c626208ac87e0b7d15054abb4a19ca2d735a54e",
    "block_time": 1710405325
  },
  "hex": "0200000000010165563c513d61377b69fc216f4676c671fb691186d877df10698f9319f66f80990100000000feffffff0214032a000000000017a9142506569f7b897fd9ac1c6df95b95ad93e27e08978764e9e92900000000160014cabc0143b219b9f225892c33347851272a1b92a20247304402207369303ff4d739fddba5e9de06e3817d44b136f6268f89d50bbc927d7f51679002206d8664fcc6e7d703eb7d105e52d0f6d6957401e72d245c820e28fcba79bbc2a101210365cc65216924aa7deb81cb5e97ce1731c1df46236de2addcd02303dfc63040ab4dbc0c00"
}