{
  "txid": "30218d208db065c6e34400ae5fff1c644dc209f9a8f1017186b84fa4f7d5dbd5",
  "version": 2,
  "locktime": 0,
  "vin": [
    {
      "txid": "653f272a7f9e80c262c4d508f8e7420f76afc8f040097aee7b5808524c00c5b5",
      "vout": 1,
      "prevout": {
        "scriptpubkey": "00142b079be56166738fb84fb4edac120a0af6a19919",
        "scriptpubkey_asm": "OP_0 OP_PUSHBYTES_20 2b079be56166738fb84fb4edac120a0af6a19919",
        "scriptpubkey_type": "v0_p2wpkh",
        "scriptpubkey_address": "bc1q9vrehetpveeclwz0knk6cys2ptm2rxgev43fx0",
        "value": 97170
      },
      "scriptsig": "",
      "scriptsig_asm": "",
      "witness": [
        "304402201187c81a42912e30d83d5a82f8a1acab67fd234f8f1227990adb071e6d44d35c02205849b9d53ebcb8aaaedb917e513ce8ea940f18e4b8a502aa349d0a530a0dd9cc01",
        "03c0a3530073d9231d27656b11b2f98a2a7d01631efd49973f8d072a355263e043"
      ],
      "is_coinbase": false,
      "sequence": 4294967293
    }
  ],
  "vout": [
    {
      "scriptpubkey": "51208943512527f448371f991fb110f74aa75e822d55d991141cbf21ca8c9cc12c41",
      "scriptpubkey_asm": "OP_PUSHNUM_1 OP_PUSHBYTES_32 8943512527f448371f991fb110f74aa75e822d55d991141cbf21ca8c9cc12c41",
      "scriptpubkey_type": "v1_p2tr",
      "scriptpubkey_address": "bc1p39p4zff873yrw8uer7c3pa625a0gyt24mxg3g89ly89ge8xp93qs8e3zqn",
      "value": 21944
    },
    {
      "scriptpubkey": "00142b079be56166738fb84fb4edac120a0af6a19919",
      "scriptpubkey_asm": "OP_0 OP_PUSHBYTES_20 2b079be56166738fb84fb4edac120a0af6a19919",
      "scriptpubkey_type": "v0_p2wpkh",
      "scriptpubkey_address": "bc1q9vrehetpveeclwz0knk6cys2ptm2rxgev43fx0",
      "value": 73543
    }
  ],
  "size": 234,
  "weight": 609,
  "fee": 1683,
  "status": {
    "confirmed": true,
    "block_height": 834464,
    "block_hash": "0000000000000000000177a0869a911a2b65c9bdcd5a8bcb02b68f305bee848e",
    "block_time": 1710308296
  },
  "hex": "02000000000101b5c5004c5208587bee7a0940f0c8af760f42e7f808d5c462c2809e7f2a273f650100000000fdffffff02b8550000000000002251208943512527f448371f991fb110f74aa75e822d55d991141cbf21ca8c9cc12c41471f0100000000001600142b079be56166738fb84fb4edac120a0af6a199190247304402201187c81a42912e30d83d5a82f8a1acab67fd234f8f1227990adb071e6d44d35c02205849b9d53ebcb8aaaedb917e513ce8ea940f18e4b8a502aa349d0a530a0dd9cc012103c0a3530073d9231d27656b11b2f98a2a7d01631efd49973f8d072a355263e04300000000"
}