{
  "txid": "3038762454ddcd24cc1531c777e18f19d9849d30041dc7640483c4ef58a53b8b",
  "version": 2,
  "locktime": 0,
  "vin": [
    {
      "txid": "07c7437fb14a90ad11d0eade6746797a5bc9de90a999090f94b5badfc51e8b08",
      "vout": 2,
      "prevout": {
        "scriptpubkey": "00146664bce0672316d0190773c779ebdfc0b937b5ae",
        "scriptpubkey_asm": "OP_0 OP_PUSHBYTES_20 6664bce0672316d0190773c779ebdfc0b937b5ae",
        "scriptpubkey_type": "v0_p2wpkh",
        "scriptpubkey_address": "bc1qvejtecr8yvtdqxg8w0rhn67lczun0ddwm2numd",
        "value": 547
      },
      "scriptsig": "",
      "scriptsig_asm": "",
      "witness": [
        "30450221008e5106d1bad7ce76806f095e65c6be7244f5568822c634bf041712b1aaa1368b02207b497f98dc5455bd53b9f8f542386fa27a42ea335baa1077a81bd56335bb8adf81",
        "031ef66481d5fece55ea10a3629b0dd0e8fd4eb4e5e9a986c68fd24ac70de69a47"
      ],
      "is_coinbase": false,
      "sequence": 4294967293
    },
    {
      "txid": "7c984fbf2f922cd11ddaebd62e14206306993bf5d89fa28ac073645d0d6b5bd0",
      "vout": 2,
      "prevout": {
        "scriptpubkey": "001486b7893807e5429505e4cafa5e422ee381c6ab66",
        "scriptpubkey_asm": "OP_0 OP_PUSHBYTES_20 86b7893807e5429505e4cafa5e422ee381c6ab66",
        "scriptpubkey_type": "v0_p2wpkh",
        "scriptpubkey_address": "bc1qs6mcjwq8u4pf2p0yeta9us3wuwqud2mx6wqtf0",
        "value": 5881629
      },
      "scriptsig": "",
      "scriptsig_asm": "",
      "witness": [
        "30440220746bb226c4ba0139646f73adeeb62f859d5a333f5c4635f694131eba5566b99a02207ff31045416b8c035d2b1c525dfa98aa121820563b246d0571b50b1f4845d34201",
        "028a31fab83560c3d11a64c41c3c7bdcbc1355d2b9c9f30d68c40868523e722982"
      ],
      "is_coinbase": false,
      "sequence": 4294967293
    }
  ],
  "vout": [
    {
      "scriptpubkey": "001406765088112c87446f01a3a32b1b837e6343092f",
      "scriptpubkey_asm": "OP_0 OP_PUSHBYTES_20 06765088112c87446f01a3a32b1b837e6343092f",
      "scriptpubkey_type": "v0_p2wpkh",
      "scriptpubkey_address": "bc1qqem9pzq39jr5gmcp5w3jkxur0e35xzf04phtpf",
      "value": 5865000
    },
    {
      "scriptpubkey": "512102eaf582e3d91a6d807cb27409b6e5cff83be0116534b003f6d0a39315bd394a7b2102226987a28f6a91eeab84678b1b295e4237d2510523495fe8470815abf2642c142102020202020202020202020202020202020202020202020202020202020202020253ae",
      "scriptpubkey_asm": "OP_PUSHNUM_1 OP_PUSHBYTES_33 02eaf582e3d91a6d807cb27409b6e5cff83be0116534b003f6d0a39315bd394a7b OP_PUSHBYTES_33 02226987a28f6a91eeab84678b1b295e4237d2510523495fe8470815abf2642c14 OP_PUSHBYTES_33 020202020202020202020202020202020202020202020202020202020202020202 OP_PUSHNUM_3 OP_CHECKMULTISIG",
      "scriptpubkey_type": "unknown",
      "value": 796
    },
    {
      "scriptpubkey": "5121023661e0cec4fd2e5bea15f134b6cd44cfa16b3075245934071b87ef49511f32dd2102583ca15c975239b89e81c49944a86f7278dbd62295cf553034a59594282486132102020202020202020202020202020202020202020202020202020202020202020253ae",
      "scriptpubkey_asm": "OP_PUSHNUM_1 OP_PUSHBYTES_33 023661e0cec4fd2e5bea15f134b6cd44cfa16b3075245934071b87ef49511f32dd OP_PUSHBYTES_33 02583ca15c975239b89e81c49944a86f7278dbd62295cf553034a5959428248613 OP_PUSHBYTES_33 020202020202020202020202020202020202020202020202020202020202020202 OP_PUSHNUM_3 OP_CHECKMULTISIG",
      "scriptpubkey_type": "unknown",
      "value": 796
    },
    {
      "scriptpubkey": "00146664bce0672316d0190773c779ebdfc0b937b5ae",
      "scriptpubkey_asm": "OP_0 OP_PUSHBYTES_20 6664bce0672316d0190773c779ebdfc0b937b5ae",
      "scriptpubkey_type": "v0_p2wpkh",
      "scriptpubkey_address": "bc1qvejtecr8yvtdqxg8w0rhn67lczun0ddwm2numd",
      "value": 547
    }
  ],
  "size": 599,
  "weight": 1745,
  "fee": 15037,
  "status": {
    "confirmed": true,
    "block_height": 834638,
    "block_hash": "000000000000000000025f742c626208ac87e0b7d15054abb4a19ca2d735a54e",
    "block_time": 1710405325
  },
  "hex": "02000000000102088b1ec5dfbab5940f0999a990dec95b7a794667deead011ad904ab17f43c7070200000000fdffffffd05b6b0d5d6473c08aa29fd8f53b99066320142ed6ebda1dd12c922fbf4f987c0200000000fdffffff04287e59000000000016001406765088112c87446f01a3a32b1b837e6343092f1c0300000000000069512102eaf582e3d91a6d807cb27409b6e5cff83be0116534b003f6d0a39315bd394a7b2102226987a28f6a91eeab84678b1b295e4237d2510523495fe8470815abf2642c142102020202020202020202020202020202020202020202020202020202020202020253ae1c03000000000000695121023661e0cec4fd2e5bea15f134b6cd44cfa16b3075245934071b87ef49511f32dd2102583ca15c975239b89e81c49944a86f7278dbd62295cf553034a59594282486132102020202020202020202020202020202020202020202020202020202020202020253ae23020000000000001600146664bce0672316d0190773c779ebdfc0b937b5ae024830450221008e5106d1bad7ce76806f095e65c6be7244f5568822c634bf041712b1aaa1368b02207b497f98dc5455bd53b9f8f542386fa27a42ea335baa1077a81bd56335bb8adf8121031ef66481d5fece55ea10a3629b0dd0e8fd4eb4e5e9a986c68fd24ac70de69a47024730440220746bb226c4ba0139646f73adeeb62f859d5a333f5c4635f694131eba5566b99a02207ff31045416b8c035d2b1c525dfa98aa121820563b246d0571b50b1f4845d3420121028a31fab83560c3d11a64c41c3c7bdcbc1355d2b9c9f30d68c40868523e72298200000000"
}