{
  "txid": "304685258605cd9da92209731642c74b7830895aa5a5e949680b55cdef503c18",
  "version": 2,
  "locktime": 0,
  "vin": [
    {
      "txid": "7716ac938d4473fda1b01849ae5ce137f3447bd7d63cfc8f1252322b34b8d19a",
      "vout": 1,
      "prevout": {
        "scriptpubkey": "5120c003bca4977eb24ef14191faa10c8167ca9de1016cbddb55b85cee647265ea77",
        "scriptpubkey_asm": "OP_PUSHNUM_1 OP_PUSHBYTES_32 c003bca4977eb24ef14191faa10c8167ca9de1016cbddb55b85cee647265ea77",
        "scriptpubkey_type": "v1_p2tr",
        "scriptpubkey_address": "bc1pcqpmefyh06eyau2pj8a2zrypvl9fmcgpdj7ak4dctnhxgun9afms4k7dgp",
        "value": 257704
      },
      "scriptsig": "",
      "scriptsig_asm": "",
      "witness": [
        "3400baadeb13906a41b2f1e1c5aea538e1d97781c72b9a1ea16b151249165faa71b089c062d7de898cffc322b3e749b9a88e785aa52a9a85e15fa8c1bf301694"
      ],
      "is_coinbase": false,
      "sequence": 4294967293
    }
  ],
  "vout": [
    {
      "scriptpubkey": "5120c4a3f5efb1bf4d61b4bc8fdd72f78824a87aa6ba5ca7391b3d72f690617005b4",
      "scriptpubkey_asm": "OP_PUSHNUM_1 OP_PUSHBYTES_32 c4a3f5efb1bf4d61b4bc8fdd72f78824a87aa6ba5ca7391b3d72f690617005b4",
      "scriptpubkey_type": "v1_p2tr",
      "scriptpubkey_address": "bc1pcj3ltma3haxkrd9u3lwh9augyj584f46tjnnjxeawtmfqctsqk6qdglswt",
      "value": 3312
    },
    {
      "scriptpubkey": "5120c003bca4977eb24ef14191faa10c8167ca9de1016cbddb55b85cee647265ea77",
      "scriptpubkey_asm": "OP_PUSHNUM_1 OP_PUSHBYTES_32 c003bca4977eb24ef14191faa10c8167ca9de1016cbddb55b85cee647265ea77",
      "scriptpubkey_type": "v1_p2tr",
      "scriptpubkey_address": "bc1pcqpmefyh06eyau2pj8a2zrypvl9fmcgpdj7ak4dctnhxgun9afms4k7dgp",
      "value": 250696
    }
  ],
  "size": 205,
  "weight": 616,
  "fee": 3696,
  "status": {
    "confirmed": true,
    "block_height": 834460,
    "block_hash": "00000000000000000000484a79b643b2524bbce82e5d8a442013fa5b8905ed98",
    "block_time": 1710307468
  },
  "hex": "020000000001019ad1b8342b3252128ffc3cd6d77b44f337e15cae4918b0a1fd73448d93ac16770100000000fdffffff02f00c000000000000225120c4a3f5efb1bf4d61b4bc8fdd72f78824a87aa6ba5ca7391b3d72f690617005b448d3030000000000225120c003bca4977eb24ef14191faa10c8167ca9de1016cbddb55b85cee647265ea7701403400baadeb13906a41b2f1e1c5aea538e1d97781c72b9a1ea16b151249165faa71b089c062d7de898cffc322b3e749b9a88e785aa52a9a85e15fa8c1bf30169400000000"
}