{
  "txid": "30604dde9d5aca8b3afe3085e006be1c315d70726dd5764e7f5a6d633e825a80",
  "version": 2,
  "locktime": 0,
  "vin": [
    {
      "txid": "aa9e0b707bd750a867492f9356321d05b9f09a2d812c9a074901225561f13819",
      "vout": 1,
      "prevout": {
        "scriptpubkey": "76a91495e3a864fb90acf50e5b37cb25cb4ae59a71fd7f88ac",
        "scriptpubkey_asm": "OP_DUP OP_HASH160 OP_PUSHBYTES_20 95e3a864fb90acf50e5b37cb25cb4ae59a71fd7f OP_EQUALVERIFY OP_CHECKSIG",
        "scriptpubkey_type": "p2pkh",
        "scriptpubkey_address": "1EfYQXMYmuFt8EHAQyqohMDTNxm9X1NnJk",
        "value": 32331159
      },
      "scriptsig": "47304402204e4feb4dd7ea09c42a4c7eb7db84ded799050fb9baec53cd9e2da94cd80c06bc022048069e40cf73640cb89a21e42558cb2d6d6e120f8c9dff753ee9259ee06b5fbe01210204f090935e1903a7d87e759399280a988b0efeb47d09b159c59855e9a5e51f1a",
      "scriptsig_asm": "OP_PUSHBYTES_71 304402204e4feb4dd7ea09c42a4c7eb7db84ded799050fb9baec53cd9e2da94cd80c06bc022048069e40cf73640cb89a21e42558cb2d6d6e120f8c9dff753ee9259ee06b5fbe01 OP_PUSHBYTES_33 0204f090935e1903a7d87e759399280a988b0efeb47d09b159c59855e9a5e51f1a",
      "is_coinbase": false,
      "sequence": 4294967295
    }
  ],
  "vout": [
    {
      "scriptpubkey": "76a914aa44d6084595a19506ceb0c4115ed8a1a06d831588ac",
      "scriptpubkey_asm": "OP_DUP OP_HASH160 OP_PUSHBYTES_20 aa44d6084595a19506ceb0c4115ed8a1a06d8315 OP_EQUALVERIFY OP_CHECKSIG",
      "scriptpubkey_type": "p2pkh",
      "scriptpubkey_address": "1GXJLRdnJFC71UenzXTxcxhg8Z5U1mYRRc",
      "value": 109000
    },
    {
      "scriptpubkey": "76a914277e7e47cc38f7c2472f4141c01f358d0341f73188ac",
      "scriptpubkey_asm": "OP_DUP OP_HASH160 OP_PUSHBYTES_20 277e7e47cc38f7c2472f4141c01f358d0341f731 OP_EQUALVERIFY OP_CHECKSIG",
      "scriptpubkey_type": "p2pkh",
      "scriptpubkey_address": "14bptPYq9fGtz3ong7wHPS5hmR9DHhB2dF",
      "value": 32217517
    }
  ],
  "size": 225,
  "weight": 900,
  "fee": 4642,
  "status": {
    "confirmed": true,
    "block_height": 834638,
    "block_hash": "000000000000000000025f742c626208ac87e0b7d15054abb4a19ca2d735a54e",
    "block_time": 1710405325
  },
  "hex": "02000000011938f16155220149079a2c812d9af0b9051d3256932f4967a850d77b700b9eaa010000006a47304402204e4feb4dd7ea09c42a4c7eb7db84ded799050fb9baec53cd9e2da94cd80c06bc022048069e40cf73640cb89a21e42558cb2d6d6e120f8c9dff753ee9259ee06b5fbe01210204f090935e1903a7d87e759399280a988b0efeb47d09b159c59855e9a5e51f1affffffff02c8a90100000000001976a914aa44d6084595a19506ceb0c4115ed8a1a06d831588acad99eb01000000001976a914277e7e47cc38f7c2472f4141c01f358d0341f73188ac00000000"
}