{
  "txid": "3069bf4ce43f0c00c049bc0ff2e33a17a4825c1a2c16b770e5b0819d89afe260",
  "version": 2,
  "locktime": 0,
  "vin": [
    {
      "txid": "d233ea6651c849a1de3179e9a8264968ae322756fbf84ec2fa0f9a920b3de785",
      "vout": 1,
      "prevout": {
        "scriptpubkey": "512022bf8f2e3f5e00da87378e74109ca796a8cf187b86c5316ac5162924be86d5dc",
        "scriptpubkey_asm": "OP_PUSHNUM_1 OP_PUSHBYTES_32 22bf8f2e3f5e00da87378e74109ca796a8cf187b86c5316ac5162924be86d5dc",
        "scriptpubkey_type": "v1_p2tr",
        "scriptpubkey_address": "bc1py2lc7t3ltcqd4peh3e6pp898j65v7xrmsmznz6k9zc5jf05x6hwqzqg3ny",
        "value": 80760
      },
      "scriptsig": "",
      "scriptsig_asm": "",
      "witness": [
        "27eb388d554e84d4c1bcb35702d38c193a9b4033fdffad17c9d92eb9d20c81aea065b6dbc15cbe595761f74261e7edbe61b07c970daacdd44c84863d2988245e"
      ],
      "is_coinbase": false,
      "sequence": 4294967295
    }
  ],
  "vout": [
    {
      "scriptpubkey": "5120467c40b1596e04cc5e50636aa9f4639aa93c1380ce1df4661dc3eef40a399d2a",
      "scriptpubkey_asm": "OP_PUSHNUM_1 OP_PUSHBYTES_32 467c40b1596e04cc5e50636aa9f4639aa93c1380ce1df4661dc3eef40a399d2a",
      "scriptpubkey_type": "v1_p2tr",
      "scriptpubkey_address": "bc1pge7ypv2edczvchjsvd42narrn25ncyuqecwlgesac0h0gz3en54qrd8e5e",
      "value": 31000
    },
    {
      "scriptpubkey": "512022bf8f2e3f5e00da87378e74109ca796a8cf187b86c5316ac5162924be86d5dc",
      "scriptpubkey_asm": "OP_PUSHNUM_1 OP_PUSHBYTES_32 22bf8f2e3f5e00da87378e74109ca796a8cf187b86c5316ac5162924be86d5dc",
      "scriptpubkey_type": "v1_p2tr",
      "scriptpubkey_address": "bc1py2lc7t3ltcqd4peh3e6pp898j65v7xrmsmznz6k9zc5jf05x6hwqzqg3ny",
      "value": 47758
    }
  ],
  "size": 205,
  "weight": 616,
  "fee": 2002,
  "status": {
    "confirmed": true,
    "block_height": 834638,
    "block_hash": "000000000000000000025f742c626208ac87e0b7d15054abb4a19ca2d735a54e",
    "block_time": 1710405325
  },
  "hex": "0200000000010185e73d0b929a0ffac24ef8fb562732ae684926a8e97931dea149c85166ea33d20100000000ffffffff021879000000000000225120467c40b1596e04cc5e50636aa9f4639aa93c1380ce1df4661dc3eef40a399d2a8eba00000000000022512022bf8f2e3f5e00da87378e74109ca796a8cf187b86c5316ac5162924be86d5dc014027eb388d554e84d4c1bcb35702d38c193a9b4033fdffad17c9d92eb9d20c81aea065b6dbc15cbe595761f74261e7edbe61b07c970daacdd44c84863d2988245e00000000"
}