{
  "txid": "306a1316f4cc6e05f5bbd299851b22ae46c32ebd60e0dba32c63686ee0ab8115",
  "version": 2,
  "locktime": 0,
  "vin": [
    {
      "txid": "6265f97a2af55a9b08870952124d0895665ba3a3aacb54e1347fad15dd48431b",
      "vout": 1,
      "prevout": {
        "scriptpubkey": "5120b1494177dbdb1878d64a04dc300c29963bb12b32154017303b7a0127f37c4be3",
        "scriptpubkey_asm": "OP_PUSHNUM_1 OP_PUSHBYTES_32 b1494177dbdb1878d64a04dc300c29963bb12b32154017303b7a0127f37c4be3",
        "scriptpubkey_type": "v1_p2tr",
        "scriptpubkey_address": "bc1pk9y5za7mmvv834j2qnwrqrpfjcamz2ejz4qpwvpm0gqj0umuf03s73gcdz",
        "value": 3486046
      },
      "scriptsig": "",
      "scriptsig_asm": "",
      "witness": [
        "d124eeda07ad3e11ec9810bd8e016a1285238d28f2451bb3b3ae490762bfe7e3c10ca0f1ca2bd614652048471a93258f047cb9b0370e162f61d029468397cc33",
        "2088225c0158a85208c9f0a93d3b724953f164a056121b81a87f88ab0a666cbff1ac0063036f726401010a746578742f706c61696e004c827b2270223a22746170222c226f70223a22646d742d6d696e74222c22646570223a22346439363761663336646361636437653631393963333962646138353564376231623337323638663463383033316665643534303361393961633537666536376930222c227469636b223a226e6174222c22626c6b223a22383334353532227d68",
        "c188225c0158a85208c9f0a93d3b724953f164a056121b81a87f88ab0a666cbff1"
      ],
      "is_coinbase": false,
      "sequence": 4261412863
    }
  ],
  "vout": [
    {
      "scriptpubkey": "0014cdc1cde2e417b586bd714f64afc3d7def41b6b15",
      "scriptpubkey_asm": "OP_0 OP_PUSHBYTES_20 cdc1cde2e417b586bd714f64afc3d7def41b6b15",
      "scriptpubkey_type": "v0_p2wpkh",
      "scriptpubkey_address": "bc1qehqumchyz76cd0t3faj2ls7hmm6pk6c45h4l9c",
      "value": 294
    },
    {
      "scriptpubkey": "5120143e06d7d2deeb83c4344fadbb244d50df7f8b66e0bc9aad7c534449973da527",
      "scriptpubkey_asm": "OP_PUSHNUM_1 OP_PUSHBYTES_32 143e06d7d2deeb83c4344fadbb244d50df7f8b66e0bc9aad7c534449973da527",
      "scriptpubkey_type": "v1_p2tr",
      "scriptpubkey_address": "bc1pzslqd47jmm4c83p5f7kmkfzd2r0hlzmxuz7f4ttu2dzyn9ea55ns54v0eu",
      "value": 3478822
    }
  ],
  "size": 415,
  "weight": 790,
  "fee": 6930,
  "status": {
    "confirmed": true,
    "block_height": 834552,
    "block_hash": "00000000000000000001dd0468a70c94f619251d286585cff57aeb4bd9ede330",
    "block_time": 1710355598
  },
  "hex": "020000000001011b4348dd15ad7f34e154cbaaa3a35b6695084d12520987089b5af52a7af965620100000000fffffffd022601000000000000160014cdc1cde2e417b586bd714f64afc3d7def41b6b152615350000000000225120143e06d7d2deeb83c4344fadbb244d50df7f8b66e0bc9aad7c534449973da5270340d124eeda07ad3e11ec9810bd8e016a1285238d28f2451bb3b3ae490762bfe7e3c10ca0f1ca2bd614652048471a93258f047cb9b0370e162f61d029468397cc33bb2088225c0158a85208c9f0a93d3b724953f164a056121b81a87f88ab0a666cbff1ac0063036f726401010a746578742f706c61696e004c827b2270223a22746170222c226f70223a22646d742d6d696e74222c22646570223a22346439363761663336646361636437653631393963333962646138353564376231623337323638663463383033316665643534303361393961633537666536376930222c227469636b223a226e6174222c22626c6b223a22383334353532227d6821c188225c0158a85208c9f0a93d3b724953f164a056121b81a87f88ab0a666cbff100000000"
}