{
  "txid": "30808259fd38cf81b921cbba2755620032aead75bcaebcd3521f3683981e9b48",
  "version": 2,
  "locktime": 833945,
  "vin": [
    {
      "txid": "e6d870ecd3e78026506da94b80411048053758e2f8f248061b553bfe15e76392",
      "vout": 1,
      "prevout": {
        "scriptpubkey": "00148f8a158eb0085a510986b1427a1beef14dcf11e2",
        "scriptpubkey_asm": "OP_0 OP_PUSHBYTES_20 8f8a158eb0085a510986b1427a1beef14dcf11e2",
        "scriptpubkey_type": "v0_p2wpkh",
        "scriptpubkey_address": "bc1q379ptr4sppd9zzvxk9p85xlw79xu7y0zvj068d",
        "value": 127350299
      },
      "scriptsig": "",
      "scriptsig_asm": "",
      "witness": [
        "304402203eac498652734b216961a39fcebb5f54096838f6d8349973db59e0daaccd09f10220013bf5d199b778b6da0641b94f5f5d5e9570ce85bc27d9eab0ad3612a2bd7f6201",
        "032d7ce6658685e55249ec47e6cad0874b1eef5af8cf6680f8632b472f4ef0753a"
      ],
      "is_coinbase": false,
      "sequence": 4294967293
    }
  ],
  "vout": [
    {
      "scriptpubkey": "76a9148824780895a096e7dc16f6f808c5e0c73f6e326888ac",
      "scriptpubkey_asm": "OP_DUP OP_HASH160 OP_PUSHBYTES_20 8824780895a096e7dc16f6f808c5e0c73f6e3268 OP_EQUALVERIFY OP_CHECKSIG",
      "scriptpubkey_type": "p2pkh",
      "scriptpubkey_address": "1DQrazVS4Em7r5xmncib7E7j4PJqefudZS",
      "value": 93464
    },
    {
      "scriptpubkey": "0014f251fd2ad49425d4ffcff58cdc682a04c8a29926",
      "scriptpubkey_asm": "OP_0 OP_PUSHBYTES_20 f251fd2ad49425d4ffcff58cdc682a04c8a29926",
      "scriptpubkey_type": "v0_p2wpkh",
      "scriptpubkey_address": "bc1q7fgl62k5jsjafl707kxdc6p2qny29xfxfw2vhx",
      "value": 1285123
    },
    {
      "scriptpubkey": "0014de47658052bf7590dcb10a791fd246073a4035f5",
      "scriptpubkey_asm": "OP_0 OP_PUSHBYTES_20 de47658052bf7590dcb10a791fd246073a4035f5",
      "scriptpubkey_type": "v0_p2wpkh",
      "scriptpubkey_address": "bc1qmerktqzjha6eph93pfu3l5jxquayqd04tt40m6",
      "value": 125967426
    }
  ],
  "size": 256,
  "weight": 697,
  "fee": 4286,
  "status": {
    "confirmed": true,
    "block_height": 834464,
    "block_hash": "0000000000000000000177a0869a911a2b65c9bdcd5a8bcb02b68f305bee848e",
    "block_time": 1710308296
  },
  "hex": "020000000001019263e715fe3b551b0648f2f8e2583705481041804ba96d502680e7d3ec70d8e60100000000fdffffff03186d0100000000001976a9148824780895a096e7dc16f6f808c5e0c73f6e326888ac039c130000000000160014f251fd2ad49425d4ffcff58cdc682a04c8a29926421c820700000000160014de47658052bf7590dcb10a791fd246073a4035f50247304402203eac498652734b216961a39fcebb5f54096838f6d8349973db59e0daaccd09f10220013bf5d199b778b6da0641b94f5f5d5e9570ce85bc27d9eab0ad3612a2bd7f620121032d7ce6658685e55249ec47e6cad0874b1eef5af8cf6680f8632b472f4ef0753a99b90c00"
}