{
  "txid": "30848a4d556d513b19459c96244b26d947fc9e09d25c3719a3e40c2f22213aaa",
  "version": 1,
  "locktime": 0,
  "vin": [
    {
      "txid": "4eac7bd28c274c5bed25333cbef3a221c975cbff8f5979c7ca7dc4fef8ad2ab4",
      "vout": 8,
      "prevout": {
        "scriptpubkey": "76a914931351e1786bb83ef34fc1b77b8f817a30747cdb88ac",
        "scriptpubkey_asm": "OP_DUP OP_HASH160 OP_PUSHBYTES_20 931351e1786bb83ef34fc1b77b8f817a30747cdb OP_EQUALVERIFY OP_CHECKSIG",
        "scriptpubkey_type": "p2pkh",
        "scriptpubkey_address": "1EQfUZoWhaL1ePvm7zGvjHBJX2qUoYcz6e",
        "value": 595645
      },
      "scriptsig": "483045022100f55d320ef6dad13ce0bb214dcaec39e68e9e579f9d75ce9aa9edf99522803d08022009c145d9bc829e38f5c207bf6b85693d12946b07ab5dd0dbdda182ec7e60f8470121020a7d60f15a03905349a048c08af66b4c0995d978abaacd7942c0d379a38dc969",
      "scriptsig_asm": "OP_PUSHBYTES_72 3045022100f55d320ef6dad13ce0bb214dcaec39e68e9e579f9d75ce9aa9edf99522803d08022009c145d9bc829e38f5c207bf6b85693d12946b07ab5dd0dbdda182ec7e60f84701 OP_PUSHBYTES_33 020a7d60f15a03905349a048c08af66b4c0995d978abaacd7942c0d379a38dc969",
      "is_coinbase": false,
      "sequence": 4294967295
    }
  ],
  "vout": [
    {
      "scriptpubkey": "a9143c7c5beaad26e9061f10549e7af7e448a10c6d5a87",
      "scriptpubkey_asm": "OP_HASH160 OP_PUSHBYTES_20 3c7c5beaad26e9061f10549e7af7e448a10c6d5a OP_EQUAL",
      "scriptpubkey_type": "p2sh",
      "scriptpubkey_address": "37CqSfvHE7cd24d6Eys2fyatarn12rzCxk",
      "value": 163475
    },
    {
      "scriptpubkey": "76a91477d89ec0c399ea69f72a599ba1103b71ad252dea88ac",
      "scriptpubkey_asm": "OP_DUP OP_HASH160 OP_PUSHBYTES_20 77d89ec0c399ea69f72a599ba1103b71ad252dea OP_EQUALVERIFY OP_CHECKSIG",
      "scriptpubkey_type": "p2pkh",
      "scriptpubkey_address": "1Bvgurn6qrF5UPXx718UxdFjXvkVy8NcJ9",
      "value": 429706
    }
  ],
  "size": 224,
  "weight": 896,
  "fee": 2464,
  "status": {
    "confirmed": true,
    "block_height": 834638,
    "block_hash": "000000000000000000025f742c626208ac87e0b7d15054abb4a19ca2d735a54e",
    "block_time": 1710405325
  },
  "hex": "0100000001b42aadf8fec47dcac779598fffcb75c921a2f3be3c3325ed5b4c278cd27bac4e080000006b483045022100f55d320ef6dad13ce0bb214dcaec39e68e9e579f9d75ce9aa9edf99522803d08022009c145d9bc829e38f5c207bf6b85693d12946b07ab5dd0dbdda182ec7e60f8470121020a7d60f15a03905349a048c08af66b4c0995d978abaacd7942c0d379a38dc969ffffffff02937e02000000000017a9143c7c5beaad26e9061f10549e7af7e448a10c6d5a878a8e0600000000001976a91477d89ec0c399ea69f72a599ba1103b71ad252dea88ac00000000"
}