{
  "txid": "308a547d7401df528e54ab2b8e26ebabc47299170931fd94577ba746a4113458",
  "version": 2,
  "locktime": 0,
  "vin": [
    {
      "txid": "83b1303fd891f1954cd87c1d288a2a6bca51045bdda40133839448bcf0a9a8be",
      "vout": 4,
      "prevout": {
        "scriptpubkey": "512081bd79b34e6f883f65852802db9560d1a5c4fc4c917d0ba4d7fbeef1d32781be",
        "scriptpubkey_asm": "OP_PUSHNUM_1 OP_PUSHBYTES_32 81bd79b34e6f883f65852802db9560d1a5c4fc4c917d0ba4d7fbeef1d32781be",
        "scriptpubkey_type": "v1_p2tr",
        "scriptpubkey_address": "bc1psx7hnv6wd7yr7ev99qpdh9tq6xjuflzvj97shfxhl0h0r5e8sxlqf6rjmw",
        "value": 2850
      },
      "scriptsig": "",
      "scriptsig_asm": "",
      "witness": [
        "a6e45c89dfcfbd89de703d02597ca10bfc5b78b57921c783e4a21818e9692accd2d92ac774536468e3ba506ba2cc785ee9c9e5f62841036062a4662554254dc9",
        "207a492b156b747478bef786fd4c5d08245f950f8132ef4c444d8aa283defd14adac0063036f726401011e6170706c69636174696f6e2f6a736f6e3b636861727365743d7574662d38004cd27b2270223a22706f772d3230222c226f70223a226d696e74222c227469636b223a2250455045222c22616d74223a2231303030222c22736f6c7574696f6e223a22504550453a62633170687834336d6b6632633236366e63707a6c7a7067307636616b6a73713470386379736379327a706d746e38326e367a616c7667713972663737363a303030303030303030303030303030303030303139393431613561653132383937363539383134343239323533333030353762306461393666336465613163353a36363430373934353131227d68",
        "c143aa8de0991fd4b61b82f8195f6c835bc5de941a82824922fffa09f24edd0022"
      ],
      "is_coinbase": false,
      "sequence": 4294967295
    }
  ],
  "vout": [
    {
      "scriptpubkey": "5120b9ab1dd92ac2b5a9e022f88287b35db4a00a84f8243045083b5ccea9e85dfb10",
      "scriptpubkey_asm": "OP_PUSHNUM_1 OP_PUSHBYTES_32 b9ab1dd92ac2b5a9e022f88287b35db4a00a84f8243045083b5ccea9e85dfb10",
      "scriptpubkey_type": "v1_p2tr",
      "scriptpubkey_address": "bc1phx43mkf2c266ncpzlzpg0v6akjsq4p8cyscy2zpmtn82n6zalvgq9rf776",
      "value": 546
    }
  ],
  "size": 486,
  "weight": 768,
  "fee": 2304,
  "status": {
    "confirmed": true,
    "block_height": 834460,
    "block_hash": "00000000000000000000484a79b643b2524bbce82e5d8a442013fa5b8905ed98",
    "block_time": 1710307468
  },
  "hex": "02000000000101bea8a9f0bc4894833301a4dd5b0451ca6b2a8a281d7cd84c95f191d83f30b1830400000000ffffffff012202000000000000225120b9ab1dd92ac2b5a9e022f88287b35db4a00a84f8243045083b5ccea9e85dfb100340a6e45c89dfcfbd89de703d02597ca10bfc5b78b57921c783e4a21818e9692accd2d92ac774536468e3ba506ba2cc785ee9c9e5f62841036062a4662554254dc9fd1f01207a492b156b747478bef786fd4c5d08245f950f8132ef4c444d8aa283defd14adac0063036f726401011e6170706c69636174696f6e2f6a736f6e3b636861727365743d7574662d38004cd27b2270223a22706f772d3230222c226f70223a226d696e74222c227469636b223a2250455045222c22616d74223a2231303030222c22736f6c7574696f6e223a22504550453a62633170687834336d6b6632633236366e63707a6c7a7067307636616b6a73713470386379736379327a706d746e38326e367a616c7667713972663737363a303030303030303030303030303030303030303139393431613561653132383937363539383134343239323533333030353762306461393666336465613163353a36363430373934353131227d6821c143aa8de0991fd4b61b82f8195f6c835bc5de941a82824922fffa09f24edd002200000000"
}