{
  "txid": "3097c29b00862141f70955a4bf3b8fba27515a6224dec6aca820ef81669fd3c6",
  "version": 2,
  "locktime": 0,
  "vin": [
    {
      "txid": "268ec79ccf5c381c1eed3aefce2b61b7aa8e06a03fe226236a0e1260915f9092",
      "vout": 1,
      "prevout": {
        "scriptpubkey": "a9144f79be62afedb0a1025468aef66f0ebac9a37d3f87",
        "scriptpubkey_asm": "OP_HASH160 OP_PUSHBYTES_20 4f79be62afedb0a1025468aef66f0ebac9a37d3f OP_EQUAL",
        "scriptpubkey_type": "p2sh",
        "scriptpubkey_address": "38wF9bfVQQehfpx6kq2hULm5eEPBt2XUt9",
        "value": 60512168
      },
      "scriptsig": "1600140d1e565b594d91a098e62ec04581e9ce2cf1daea",
      "scriptsig_asm": "OP_PUSHBYTES_22 00140d1e565b594d91a098e62ec04581e9ce2cf1daea",
      "witness": [
        "30440220191c0605c41a6dee894b39adb331fd2d5ae2a9e99e41ab4aecf559e48627475102200f606b864692d493b75bdc7396111e244f329eb697506650a79260863699e8f301",
        "02525c100772a592e7e5d959d8227567c76764c64701c44742858fc478aff18961"
      ],
      "is_coinbase": false,
      "sequence": 4294967295,
      "inner_redeemscript_asm": "OP_0 OP_PUSHBYTES_20 0d1e565b594d91a098e62ec04581e9ce2cf1daea"
    }
  ],
  "vout": [
    {
      "scriptpubkey": "76a914ec55aa6112070066e056d5bc3c0f7bd8dce29db488ac",
      "scriptpubkey_asm": "OP_DUP OP_HASH160 OP_PUSHBYTES_20 ec55aa6112070066e056d5bc3c0f7bd8dce29db4 OP_EQUALVERIFY OP_CHECKSIG",
      "scriptpubkey_type": "p2pkh",
      "scriptpubkey_address": "1NYd6RGAiDRZyfHzBUA8jMBv8yR3AqtXFK",
      "value": 7900000
    },
    {
      "scriptpubkey": "a9148e7940cec1bb31c688b701549063b7e6f3d68bd887",
      "scriptpubkey_asm": "OP_HASH160 OP_PUSHBYTES_20 8e7940cec1bb31c688b701549063b7e6f3d68bd8 OP_EQUAL",
      "scriptpubkey_type": "p2sh",
      "scriptpubkey_address": "3EgM8bna3kXQi1nbSeTLKBDvSg61tYBbce",
      "value": 52609690
    }
  ],
  "size": 249,
  "weight": 669,
  "fee": 2478,
  "status": {
    "confirmed": true,
    "block_height": 834460,
    "block_hash": "00000000000000000000484a79b643b2524bbce82e5d8a442013fa5b8905ed98",
    "block_time": 1710307468
  },
  "hex": "0200000000010192905f9160120e6a2326e23fa0068eaab7612bceef3aed1e1c385ccf9cc78e2601000000171600140d1e565b594d91a098e62ec04581e9ce2cf1daeaffffffff02608b7800000000001976a914ec55aa6112070066e056d5bc3c0f7bd8dce29db488ac9ac222030000000017a9148e7940cec1bb31c688b701549063b7e6f3d68bd887024730440220191c0605c41a6dee894b39adb331fd2d5ae2a9e99e41ab4aecf559e48627475102200f606b864692d493b75bdc7396111e244f329eb697506650a79260863699e8f3012102525c100772a592e7e5d959d8227567c76764c64701c44742858fc478aff1896100000000"
}