{
  "txid": "309a415b70a8e59688a2882fb1ac754d057310c7292bff7085f6730a85256ab0",
  "version": 2,
  "locktime": 832286,
  "vin": [
    {
      "txid": "ddecee350124961e1f9711d9a5adbc16b2b36bd700855cab566a12f7ffb97592",
      "vout": 0,
      "prevout": {
        "scriptpubkey": "00144b72f6a0f59aaa2d5f66179dee382ff32e93c37e",
        "scriptpubkey_asm": "OP_0 OP_PUSHBYTES_20 4b72f6a0f59aaa2d5f66179dee382ff32e93c37e",
        "scriptpubkey_type": "v0_p2wpkh",
        "scriptpubkey_address": "bc1qfde0dg84n24z6hmxz7w7uwp07vhf8sm7jlxvpz",
        "value": 22327
      },
      "scriptsig": "",
      "scriptsig_asm": "",
      "witness": [
        "3044022057e39c5721fc46c8c19cb6c3ab5cfde7386226d14cfddc7836b35e207f2165460220726de2ec02d72acc6fac8899cc6f898503a6fec531e22ac1872119b20b4fca6701",
        "031fd689dcbf02153c99f7723b878107ecfa914a23e6d75c422cf403bd80af5b8f"
      ],
      "is_coinbase": false,
      "sequence": 4294967294
    }
  ],
  "vout": [
    {
      "scriptpubkey": "0014319715cd59eb0d14040ab2d0d58d4600bf070515",
      "scriptpubkey_asm": "OP_0 OP_PUSHBYTES_20 319715cd59eb0d14040ab2d0d58d4600bf070515",
      "scriptpubkey_type": "v0_p2wpkh",
      "scriptpubkey_address": "bc1qxxt3tn2eavx3gpq2ktgdtr2xqzlswpg4t0hvrt",
      "value": 546
    },
    {
      "scriptpubkey": "00143e58ae30d008763eb7aea76d2579656a565e29d6",
      "scriptpubkey_asm": "OP_0 OP_PUSHBYTES_20 3e58ae30d008763eb7aea76d2579656a565e29d6",
      "scriptpubkey_type": "v0_p2wpkh",
      "scriptpubkey_address": "bc1q8ev2uvxsppmradaw5akj27t9dft9u2wkl5g429",
      "value": 18451
    },
    {
      "scriptpubkey": "0014a085168540a019299e1fafd582adbf3b40584903",
      "scriptpubkey_asm": "OP_0 OP_PUSHBYTES_20 a085168540a019299e1fafd582adbf3b40584903",
      "scriptpubkey_type": "v0_p2wpkh",
      "scriptpubkey_address": "bc1q5zz3dp2q5qvjn8sl4l2c9tdl8dq9sjgrkxflq6",
      "value": 546
    },
    {
      "scriptpubkey": "0014264562a91f5d61ce2625166a03f58fcde4404e38",
      "scriptpubkey_asm": "OP_0 OP_PUSHBYTES_20 264562a91f5d61ce2625166a03f58fcde4404e38",
      "scriptpubkey_type": "v0_p2wpkh",
      "scriptpubkey_address": "bc1qyezk92glt4suuf39ze4q8av0ehjyqn3cdqdq02",
      "value": 546
    }
  ],
  "size": 284,
  "weight": 809,
  "fee": 2238,
  "status": {
    "confirmed": true,
    "block_height": 834464,
    "block_hash": "0000000000000000000177a0869a911a2b65c9bdcd5a8bcb02b68f305bee848e",
    "block_time": 1710308296
  },
  "hex": "020000000001019275b9fff7126a56ab5c8500d76bb3b216bcada5d911971f1e96240135eeecdd0000000000feffffff042202000000000000160014319715cd59eb0d14040ab2d0d58d4600bf07051513480000000000001600143e58ae30d008763eb7aea76d2579656a565e29d62202000000000000160014a085168540a019299e1fafd582adbf3b405849032202000000000000160014264562a91f5d61ce2625166a03f58fcde4404e3802473044022057e39c5721fc46c8c19cb6c3ab5cfde7386226d14cfddc7836b35e207f2165460220726de2ec02d72acc6fac8899cc6f898503a6fec531e22ac1872119b20b4fca670121031fd689dcbf02153c99f7723b878107ecfa914a23e6d75c422cf403bd80af5b8f1eb30c00"
}