{
  "txid": "309e6e0a8077d89384c6f0d5acda4003b0099240c13218f4aae87bfb1a2e6549",
  "version": 2,
  "locktime": 0,
  "vin": [
    {
      "txid": "5c3864e3e852ec96346d84fbc3195b536ef1db1891f28d4b48dba69c282b1a0d",
      "vout": 1,
      "prevout": {
        "scriptpubkey": "512040850e28f27b213031a7deddbf4ab0e43a19a2087afb99956a46e32604f11734",
        "scriptpubkey_asm": "OP_PUSHNUM_1 OP_PUSHBYTES_32 40850e28f27b213031a7deddbf4ab0e43a19a2087afb99956a46e32604f11734",
        "scriptpubkey_type": "v1_p2tr",
        "scriptpubkey_address": "bc1pgzzsu28j0vsnqvd8mmwm7j4susapngsg0taen9t2gm3jvp83zu6qc8v5pm",
        "value": 3055
      },
      "scriptsig": "",
      "scriptsig_asm": "",
      "witness": [
        "e34544351a271fc6524deb5cd2e476014411b42bacc39659ae9a125b40e8a2d2b80841fb5f2238a0a6a84f1f874d6932f6379f09d2f56fbf077b63295cf632cf",
        "20173c76b3fbeb202a6fefda5c84c557b9ea38a84ad890a08c9a16794d8256e90dac0063036f726401011e6170706c69636174696f6e2f6a736f6e3b636861727365743d7574662d38004cd37b2270223a22706f772d3230222c226f70223a226d696e74222c227469636b223a2250455045222c22616d74223a2231303030222c22736f6c7574696f6e223a22504550453a626331703237796d68736b396a36716e706b7367767973363471356663717670646465716a6832716a796c6330793861667138663261727375637776796b3a303030303030303030303030303030303030303139393431613561653132383937363539383134343239323533333030353762306461393666336465613163353a3134303133323732313334227d68",
        "c129e6ca6c8c5ab61eaab81da0d3884f0ac7596b050aac6663ac46dee308a1dbc8"
      ],
      "is_coinbase": false,
      "sequence": 4294967295
    }
  ],
  "vout": [
    {
      "scriptpubkey": "51205789bbc2c5968130da086121aa8289c01816b72095d40913f8790fd480e95747",
      "scriptpubkey_asm": "OP_PUSHNUM_1 OP_PUSHBYTES_32 5789bbc2c5968130da086121aa8289c01816b72095d40913f8790fd480e95747",
      "scriptpubkey_type": "v1_p2tr",
      "scriptpubkey_address": "bc1p27ymhsk9j6qnpksgvys64q5fcqvpddeqjh2qjylc0y8afq8f2arsucwvyk",
      "value": 546
    }
  ],
  "size": 487,
  "weight": 769,
  "fee": 2509,
  "status": {
    "confirmed": true,
    "block_height": 834460,
    "block_hash": "00000000000000000000484a79b643b2524bbce82e5d8a442013fa5b8905ed98",
    "block_time": 1710307468
  },
  "hex": "020000000001010d1a2b289ca6db484b8df29118dbf16e535b19c3fb846d3496ec52e8e364385c0100000000ffffffff0122020000000000002251205789bbc2c5968130da086121aa8289c01816b72095d40913f8790fd480e957470340e34544351a271fc6524deb5cd2e476014411b42bacc39659ae9a125b40e8a2d2b80841fb5f2238a0a6a84f1f874d6932f6379f09d2f56fbf077b63295cf632cffd200120173c76b3fbeb202a6fefda5c84c557b9ea38a84ad890a08c9a16794d8256e90dac0063036f726401011e6170706c69636174696f6e2f6a736f6e3b636861727365743d7574662d38004cd37b2270223a22706f772d3230222c226f70223a226d696e74222c227469636b223a2250455045222c22616d74223a2231303030222c22736f6c7574696f6e223a22504550453a626331703237796d68736b396a36716e706b7367767973363471356663717670646465716a6832716a796c6330793861667138663261727375637776796b3a303030303030303030303030303030303030303139393431613561653132383937363539383134343239323533333030353762306461393666336465613163353a3134303133323732313334227d6821c129e6ca6c8c5ab61eaab81da0d3884f0ac7596b050aac6663ac46dee308a1dbc800000000"
}