{
  "txid": "30a42d5139de6fba2ae666e9a20c65db45acc68326e67bae3e1271d3184818eb",
  "version": 1,
  "locktime": 0,
  "vin": [
    {
      "txid": "85e2fa7cd5a089bfcf980c976554426ba1e13c2726705477c59c9d76b28b892c",
      "vout": 0,
      "prevout": {
        "scriptpubkey": "00149eeb3499f927c80e68bc85d6b84bcf40b06796db",
        "scriptpubkey_asm": "OP_0 OP_PUSHBYTES_20 9eeb3499f927c80e68bc85d6b84bcf40b06796db",
        "scriptpubkey_type": "v0_p2wpkh",
        "scriptpubkey_address": "bc1qnm4nfx0eylyqu69ushttsj70gzcx09km0ljq58",
        "value": 456801
      },
      "scriptsig": "",
      "scriptsig_asm": "",
      "witness": [
        "3045022100b0aa66646163d7efeb3c4831e60349a287a56c2d9d1bfd97599e59aecfa258ac02203a3dd63819c4c0782fa32c1e14ab76d7d10eb03ecdb75a273b097ca4b8d8a92b01",
        "0335bd25b5e4ff5de4c5faa26ae3535f6cce6822bae69e500c40c37d670b21fee7"
      ],
      "is_coinbase": false,
      "sequence": 4294967295
    }
  ],
  "vout": [
    {
      "scriptpubkey": "0014a1c674d5b795521300ff370f6f0eb1cf138300d4",
      "scriptpubkey_asm": "OP_0 OP_PUSHBYTES_20 a1c674d5b795521300ff370f6f0eb1cf138300d4",
      "scriptpubkey_type": "v0_p2wpkh",
      "scriptpubkey_address": "bc1q58r8f4dhj4fpxq8lxu8k7r43eufcxqx5m6np8y",
      "value": 403671
    },
    {
      "scriptpubkey": "a91445a16c07e7cf7797f781f34c20d721dec916604187",
      "scriptpubkey_asm": "OP_HASH160 OP_PUSHBYTES_20 45a16c07e7cf7797f781f34c20d721dec9166041 OP_EQUAL",
      "scriptpubkey_type": "p2sh",
      "scriptpubkey_address": "383BvaR4dXMem2q1j1X4eaQSGyExAwv3YG",
      "value": 51000
    }
  ],
  "size": 224,
  "weight": 566,
  "fee": 2130,
  "status": {
    "confirmed": true,
    "block_height": 834638,
    "block_hash": "000000000000000000025f742c626208ac87e0b7d15054abb4a19ca2d735a54e",
    "block_time": 1710405325
  },
  "hex": "010000000001012c898bb2769d9cc577547026273ce1a16b425465970c98cfbf89a0d57cfae2850000000000ffffffff02d728060000000000160014a1c674d5b795521300ff370f6f0eb1cf138300d438c700000000000017a91445a16c07e7cf7797f781f34c20d721dec91660418702483045022100b0aa66646163d7efeb3c4831e60349a287a56c2d9d1bfd97599e59aecfa258ac02203a3dd63819c4c0782fa32c1e14ab76d7d10eb03ecdb75a273b097ca4b8d8a92b01210335bd25b5e4ff5de4c5faa26ae3535f6cce6822bae69e500c40c37d670b21fee700000000"
}