{
  "txid": "30af37444aa1952b02f911909b9ad47dbf5c20b27f2d8b81635794c5a9cc3bae",
  "version": 2,
  "locktime": 0,
  "vin": [
    {
      "txid": "114fc52bb45e52adc4c76160fee0c5e50f78744b1284a9dc1beee53e3737a789",
      "vout": 0,
      "prevout": {
        "scriptpubkey": "5120ed0454337ccf0e2b73e3660df05c7d999f74d8b8e9dfa1eff4557a704be72ac3",
        "scriptpubkey_asm": "OP_PUSHNUM_1 OP_PUSHBYTES_32 ed0454337ccf0e2b73e3660df05c7d999f74d8b8e9dfa1eff4557a704be72ac3",
        "scriptpubkey_type": "v1_p2tr",
        "scriptpubkey_address": "bc1pa5z9gvmueu8zkulrvcxlqhranx0hfk9ca806rml524a8qjl89tpsarupdd",
        "value": 7616
      },
      "scriptsig": "",
      "scriptsig_asm": "",
      "witness": [
        "9c46e9a7523706844dc2f71583805e19a9ab06a371477a559d3a33b5dd67d74699a7f4724cef7557a734f9ab0fe2e00a2904cbc15a545f99d496ee6a6a7c3388"
      ],
      "is_coinbase": false,
      "sequence": 2147483649
    }
  ],
  "vout": [
    {
      "scriptpubkey": "5120265cb2182203f1d9de5d7058ef97c4f30309be1470f2d781b18c3beee779bafa",
      "scriptpubkey_asm": "OP_PUSHNUM_1 OP_PUSHBYTES_32 265cb2182203f1d9de5d7058ef97c4f30309be1470f2d781b18c3beee779bafa",
      "scriptpubkey_type": "v1_p2tr",
      "scriptpubkey_address": "bc1pyewtyxpzq0canhjawpvwl97y7vpsn0s5wred0qd33sa7aemehtaqdqj3z6",
      "value": 5951
    }
  ],
  "size": 162,
  "weight": 444,
  "fee": 1665,
  "status": {
    "confirmed": true,
    "block_height": 834460,
    "block_hash": "00000000000000000000484a79b643b2524bbce82e5d8a442013fa5b8905ed98",
    "block_time": 1710307468
  },
  "hex": "0200000000010189a737373ee5ee1bdca984124b74780fe5c5e0fe6061c7c4ad525eb42bc54f11000000000001000080013f17000000000000225120265cb2182203f1d9de5d7058ef97c4f30309be1470f2d781b18c3beee779bafa01409c46e9a7523706844dc2f71583805e19a9ab06a371477a559d3a33b5dd67d74699a7f4724cef7557a734f9ab0fe2e00a2904cbc15a545f99d496ee6a6a7c338800000000"
}