{
  "txid": "30af43bb9eba76c66515354203eb790f122af9fe9464312247275f039946c061",
  "version": 2,
  "locktime": 0,
  "vin": [
    {
      "txid": "0aa5fc52a1fabdf63dee1e104e6c27fadac9e1d71c8f451bb09a85070725b39d",
      "vout": 1,
      "prevout": {
        "scriptpubkey": "0014128349cc778e7b1912a664f2846587c92ebd3ebf",
        "scriptpubkey_asm": "OP_0 OP_PUSHBYTES_20 128349cc778e7b1912a664f2846587c92ebd3ebf",
        "scriptpubkey_type": "v0_p2wpkh",
        "scriptpubkey_address": "bc1qz2p5nnrh3ea3jy4xvneggev8eyht604ltnc5vt",
        "value": 1043060
      },
      "scriptsig": "",
      "scriptsig_asm": "",
      "witness": [
        "3045022100e28ac61a80e1c1ab96e9cef7f88faed20da82988546c20e6913878478fcf2ec802202a238a59a99629aa611947825773946606fa62529e782962b6774bb2f455658801",
        "02ccd46488009a69afcc2331be89cd669d44251d00dfe95141bb1676742aaad243"
      ],
      "is_coinbase": false,
      "sequence": 4294967295
    }
  ],
  "vout": [
    {
      "scriptpubkey": "001492be83ffa0c358e51b8b2cce58b71dcc07c6c841",
      "scriptpubkey_asm": "OP_0 OP_PUSHBYTES_20 92be83ffa0c358e51b8b2cce58b71dcc07c6c841",
      "scriptpubkey_type": "v0_p2wpkh",
      "scriptpubkey_address": "bc1qj2lg8laqcdvw2xut9n893dcaesrudjzpgt67rq",
      "value": 69329
    },
    {
      "scriptpubkey": "0014e48b96a5753cd3b03f0aa446505414908b9ea76c",
      "scriptpubkey_asm": "OP_0 OP_PUSHBYTES_20 e48b96a5753cd3b03f0aa446505414908b9ea76c",
      "scriptpubkey_type": "v0_p2wpkh",
      "scriptpubkey_address": "bc1quj9edft48nfmq0c253r9q4q5jz9eafmv238xsc",
      "value": 970097
    }
  ],
  "size": 223,
  "weight": 562,
  "fee": 3634,
  "status": {
    "confirmed": true,
    "block_height": 834464,
    "block_hash": "0000000000000000000177a0869a911a2b65c9bdcd5a8bcb02b68f305bee848e",
    "block_time": 1710308296
  },
  "hex": "020000000001019db3250707859ab01b458f1cd7e1c9dafa276c4e101eee3df6bdfaa152fca50a0100000000ffffffff02d10e01000000000016001492be83ffa0c358e51b8b2cce58b71dcc07c6c84171cd0e0000000000160014e48b96a5753cd3b03f0aa446505414908b9ea76c02483045022100e28ac61a80e1c1ab96e9cef7f88faed20da82988546c20e6913878478fcf2ec802202a238a59a99629aa611947825773946606fa62529e782962b6774bb2f4556588012102ccd46488009a69afcc2331be89cd669d44251d00dfe95141bb1676742aaad24300000000"
}