{
  "txid": "30befed588ef70f635ea5ffa034519b3cb0a31ce93da4f78be1fe55677d3294d",
  "version": 2,
  "locktime": 0,
  "vin": [
    {
      "txid": "906f2952b12ee70eac3df1a4e412750b8051cfa60c959ad87c6a66123eefc235",
      "vout": 5,
      "prevout": {
        "scriptpubkey": "51209ef5a6cad3011c84c53d5a581ddc2e74bb850c410174808b77a6b42bd9389845",
        "scriptpubkey_asm": "OP_PUSHNUM_1 OP_PUSHBYTES_32 9ef5a6cad3011c84c53d5a581ddc2e74bb850c410174808b77a6b42bd9389845",
        "scriptpubkey_type": "v1_p2tr",
        "scriptpubkey_address": "bc1pnm66djknqywgf3fatfvpmhpwwjac2rzpq96gpzmh566zhkfcnpzsugd23w",
        "value": 18492
      },
      "scriptsig": "",
      "scriptsig_asm": "",
      "witness": [
        "cf398a505bba203a56857ad87a881152e4c734b7b9aefb24604d2484c27995534877cd01604c5910f3e53b979539f175f19cf15e0ff6095f389e7be1eab8dc8a"
      ],
      "is_coinbase": false,
      "sequence": 4294967293
    }
  ],
  "vout": [
    {
      "scriptpubkey": "51204f229f5c3539b978b91c84b60683a870793641895b67c74a99a6f5857dc13544",
      "scriptpubkey_asm": "OP_PUSHNUM_1 OP_PUSHBYTES_32 4f229f5c3539b978b91c84b60683a870793641895b67c74a99a6f5857dc13544",
      "scriptpubkey_type": "v1_p2tr",
      "scriptpubkey_address": "bc1pfu3f7hp48xuh3wgusjmqdqagwpunvsvftdnuwj5e5m6c2lwpx4zqv7t63q",
      "value": 2978
    },
    {
      "scriptpubkey": "51209ef5a6cad3011c84c53d5a581ddc2e74bb850c410174808b77a6b42bd9389845",
      "scriptpubkey_asm": "OP_PUSHNUM_1 OP_PUSHBYTES_32 9ef5a6cad3011c84c53d5a581ddc2e74bb850c410174808b77a6b42bd9389845",
      "scriptpubkey_type": "v1_p2tr",
      "scriptpubkey_address": "bc1pnm66djknqywgf3fatfvpmhpwwjac2rzpq96gpzmh566zhkfcnpzsugd23w",
      "value": 13050
    }
  ],
  "size": 205,
  "weight": 616,
  "fee": 2464,
  "status": {
    "confirmed": true,
    "block_height": 834460,
    "block_hash": "00000000000000000000484a79b643b2524bbce82e5d8a442013fa5b8905ed98",
    "block_time": 1710307468
  },
  "hex": "0200000000010135c2ef3e12666a7cd89a950ca6cf51800b7512e4a4f13dac0ee72eb152296f900500000000fdffffff02a20b0000000000002251204f229f5c3539b978b91c84b60683a870793641895b67c74a99a6f5857dc13544fa320000000000002251209ef5a6cad3011c84c53d5a581ddc2e74bb850c410174808b77a6b42bd93898450140cf398a505bba203a56857ad87a881152e4c734b7b9aefb24604d2484c27995534877cd01604c5910f3e53b979539f175f19cf15e0ff6095f389e7be1eab8dc8a00000000"
}