{
  "txid": "30be773bb8f925925ae59276d51c4effc9abb3b5fab11de0572c623c117791fd",
  "version": 2,
  "locktime": 0,
  "vin": [
    {
      "txid": "3f3dd00b7f16465e2c7b8f5091fb5f80fc378170e594a18ab3dadd4581434649",
      "vout": 0,
      "prevout": {
        "scriptpubkey": "0014aa36e11da2a6ef2eaade9038af11e9f8c8c8d801",
        "scriptpubkey_asm": "OP_0 OP_PUSHBYTES_20 aa36e11da2a6ef2eaade9038af11e9f8c8c8d801",
        "scriptpubkey_type": "v0_p2wpkh",
        "scriptpubkey_address": "bc1q4gmwz8dz5mhja2k7jqu27y0flryv3kqppjut2x",
        "value": 1128734
      },
      "scriptsig": "",
      "scriptsig_asm": "",
      "witness": [
        "3044022030a517e3d31d7d4babc95074c1a1ca147e3679d8f8dd2f5a705510b774cc8fec02200700601648f0c7d2fb984204e348cca7b4e3703b8da53a19167be16fbe2958aa01",
        "03509930424a8451ef8ae5187e067f5c672b0142d00ec511cd00b66a90f8204db8"
      ],
      "is_coinbase": false,
      "sequence": 4294967295
    },
    {
      "txid": "7634141dfc4ea373f15aff6ecb8f9c3a41fe91bd3dbb41f5e38869fad55a66c5",
      "vout": 49,
      "prevout": {
        "scriptpubkey": "0014aa36e11da2a6ef2eaade9038af11e9f8c8c8d801",
        "scriptpubkey_asm": "OP_0 OP_PUSHBYTES_20 aa36e11da2a6ef2eaade9038af11e9f8c8c8d801",
        "scriptpubkey_type": "v0_p2wpkh",
        "scriptpubkey_address": "bc1q4gmwz8dz5mhja2k7jqu27y0flryv3kqppjut2x",
        "value": 1178906
      },
      "scriptsig": "",
      "scriptsig_asm": "",
      "witness": [
        "304402205900803fe5205f9753986c7bb01dedd84da9f8b2507584528d8ee076301a5c09022040c884cadca8d8428b3682c62e30b3f871acd0980ba17d59ac62becd306968e801",
        "03509930424a8451ef8ae5187e067f5c672b0142d00ec511cd00b66a90f8204db8"
      ],
      "is_coinbase": false,
      "sequence": 4294967295
    },
    {
      "txid": "30f5b3d7b4267fa4dd15081218012ec75cfcbbd17b797f951cdaf2c13a306c4e",
      "vout": 56,
      "prevout": {
        "scriptpubkey": "0014aa36e11da2a6ef2eaade9038af11e9f8c8c8d801",
        "scriptpubkey_asm": "OP_0 OP_PUSHBYTES_20 aa36e11da2a6ef2eaade9038af11e9f8c8c8d801",
        "scriptpubkey_type": "v0_p2wpkh",
        "scriptpubkey_address": "bc1q4gmwz8dz5mhja2k7jqu27y0flryv3kqppjut2x",
        "value": 1148764
      },
      "scriptsig": "",
      "scriptsig_asm": "",
      "witness": [
        "304402205a0cb05329abda5d973a05d3b183783e1610a5a7eeb2bc119d3b907fa78d93790220276bc3b5b7fb258b3660bd8b64d18bb46c8e8f7fef2a6728e95d7ce75648e3de01",
        "03509930424a8451ef8ae5187e067f5c672b0142d00ec511cd00b66a90f8204db8"
      ],
      "is_coinbase": false,
      "sequence": 4294967295
    },
    {
      "txid": "0c355e6f58384012c18c6479ec33fd2d590914ea876efa3a36ec931539d77e1a",
      "vout": 0,
      "prevout": {
        "scriptpubkey": "0014aa36e11da2a6ef2eaade9038af11e9f8c8c8d801",
        "scriptpubkey_asm": "OP_0 OP_PUSHBYTES_20 aa36e11da2a6ef2eaade9038af11e9f8c8c8d801",
        "scriptpubkey_type": "v0_p2wpkh",
        "scriptpubkey_address": "bc1q4gmwz8dz5mhja2k7jqu27y0flryv3kqppjut2x",
        "value": 1257688
      },
      "scriptsig": "",
      "scriptsig_asm": "",
      "witness": [
        "3044022066d637d58757eb5b034586d1ab531e7c039172c944a30f8176f8829a777623a302207db9deaa1f2223a670273dfc7b2dc2708e0f37becb011dc6f85449433a0fee6b01",
        "03509930424a8451ef8ae5187e067f5c672b0142d00ec511cd00b66a90f8204db8"
      ],
      "is_coinbase": false,
      "sequence": 4294967295
    },
    {
      "txid": "2d6d847bdf79bc96036d1693727ca802ac8d935745146051fc239d20f43147e0",
      "vout": 0,
      "prevout": {
        "scriptpubkey": "0014aa36e11da2a6ef2eaade9038af11e9f8c8c8d801",
        "scriptpubkey_asm": "OP_0 OP_PUSHBYTES_20 aa36e11da2a6ef2eaade9038af11e9f8c8c8d801",
        "scriptpubkey_type": "v0_p2wpkh",
        "scriptpubkey_address": "bc1q4gmwz8dz5mhja2k7jqu27y0flryv3kqppjut2x",
        "value": 1218413
      },
      "scriptsig": "",
      "scriptsig_asm": "",
      "witness": [
        "3045022100aad498ee5141c9f20dc3304a41d7401967dc890ec534b5ccfeb9df49d7ac7cff022021277b8cc8518a44e29f137d78e70a41492da13363ec61b470ae6e001b0321be01",
        "03509930424a8451ef8ae5187e067f5c672b0142d00ec511cd00b66a90f8204db8"
      ],
      "is_coinbase": false,
      "sequence": 4294967295
    },
    {
      "txid": "0eb5ba527815c05b5e93692481d2415d0de009f74d3f6a8b18da9e3c6cd6e049",
      "vout": 2,
      "prevout": {
        "scriptpubkey": "0014aa36e11da2a6ef2eaade9038af11e9f8c8c8d801",
        "scriptpubkey_asm": "OP_0 OP_PUSHBYTES_20 aa36e11da2a6ef2eaade9038af11e9f8c8c8d801",
        "scriptpubkey_type": "v0_p2wpkh",
        "scriptpubkey_address": "bc1q4gmwz8dz5mhja2k7jqu27y0flryv3kqppjut2x",
        "value": 1157234
      },
      "scriptsig": "",
      "scriptsig_asm": "",
      "witness": [
        "304402207a301256ac3c7955e43d746e592f879e4d8c921732ae6b7cc75a3241dccab600022047a4621cf7c0b81e4233c707b9c5169c093ffd539332cbfff5bc9659757cde3b01",
        "03509930424a8451ef8ae5187e067f5c672b0142d00ec511cd00b66a90f8204db8"
      ],
      "is_coinbase": false,
      "sequence": 4294967295
    }
  ],
  "vout": [
    {
      "scriptpubkey": "76a9140bf7152f794001ff297464653ed1206fa4c1067388ac",
      "scriptpubkey_asm": "OP_DUP OP_HASH160 OP_PUSHBYTES_20 0bf7152f794001ff297464653ed1206fa4c10673 OP_EQUALVERIFY OP_CHECKSIG",
      "scriptpubkey_type": "p2pkh",
      "scriptpubkey_address": "126GRipKujUJE3vpkfkjUM6gfRF5KBmn6R",
      "value": 7055027
    }
  ],
  "size": 935,
  "weight": 1805,
  "fee": 34712,
  "status": {
    "confirmed": true,
    "block_height": 834638,
    "block_hash": "000000000000000000025f742c626208ac87e0b7d15054abb4a19ca2d735a54e",
    "block_time": 1710405325
  },
  "hex": "020000000001064946438145dddab38aa194e5708137fc805ffb91508f7b2c5e46167f0bd03d3f0000000000ffffffffc5665ad5fa6988e3f541bb3dbd91fe413a9c8fcb6eff5af173a34efc1d1434763100000000ffffffff4e6c303ac1f2da1c957f797bd1bbfc5cc72e0118120815dda47f26b4d7b3f5303800000000ffffffff1a7ed7391593ec363afa6e87ea1409592dfd33ec79648cc1124038586f5e350c0000000000ffffffffe04731f4209d23fc5160144557938dac02a87c7293166d0396bc79df7b846d2d0000000000ffffffff49e0d66c3c9eda188b6a3f4df709e00d5d41d2812469935e5bc0157852bab50e0200000000ffffffff01b3a66b00000000001976a9140bf7152f794001ff297464653ed1206fa4c1067388ac02473044022030a517e3d31d7d4babc95074c1a1ca147e3679d8f8dd2f5a705510b774cc8fec02200700601648f0c7d2fb984204e348cca7b4e3703b8da53a19167be16fbe2958aa012103509930424a8451ef8ae5187e067f5c672b0142d00ec511cd00b66a90f8204db80247304402205900803fe5205f9753986c7bb01dedd84da9f8b2507584528d8ee076301a5c09022040c884cadca8d8428b3682c62e30b3f871acd0980ba17d59ac62becd306968e8012103509930424a8451ef8ae5187e067f5c672b0142d00ec511cd00b66a90f8204db80247304402205a0cb05329abda5d973a05d3b183783e1610a5a7eeb2bc119d3b907fa78d93790220276bc3b5b7fb258b3660bd8b64d18bb46c8e8f7fef2a6728e95d7ce75648e3de012103509930424a8451ef8ae5187e067f5c672b0142d00ec511cd00b66a90f8204db802473044022066d637d58757eb5b034586d1ab531e7c039172c944a30f8176f8829a777623a302207db9deaa1f2223a670273dfc7b2dc2708e0f37becb011dc6f85449433a0fee6b012103509930424a8451ef8ae5187e067f5c672b0142d00ec511cd00b66a90f8204db802483045022100aad498ee5141c9f20dc3304a41d7401967dc890ec534b5ccfeb9df49d7ac7cff022021277b8cc8518a44e29f137d78e70a41492da13363ec61b470ae6e001b0321be012103509930424a8451ef8ae5187e067f5c672b0142d00ec511cd00b66a90f8204db80247304402207a301256ac3c7955e43d746e592f879e4d8c921732ae6b7cc75a3241dccab600022047a4621cf7c0b81e4233c707b9c5169c093ffd539332cbfff5bc9659757cde3b012103509930424a8451ef8ae5187e067f5c672b0142d00ec511cd00b66a90f8204db800000000"
}