{
  "txid": "30c3be34ae193e65aef359402a0e0a3e5bc74cddcb9f156fc18226de0aba0251",
  "version": 2,
  "locktime": 0,
  "vin": [
    {
      "txid": "8486ecb4df0880316dd6e82b3971b4df187aff23765bc3a47f8d78bb53aa273c",
      "vout": 70,
      "prevout": {
        "scriptpubkey": "51202ac78d3bab7a73128b5b94a8ff656d298bf409410c141e8c51a3e4face7e7d04",
        "scriptpubkey_asm": "OP_PUSHNUM_1 OP_PUSHBYTES_32 2ac78d3bab7a73128b5b94a8ff656d298bf409410c141e8c51a3e4face7e7d04",
        "scriptpubkey_type": "v1_p2tr",
        "scriptpubkey_address": "bc1p9trc6wat0fe39z6mjj507etd9x9lgz2pps2parz350j04nn705zqgdf3ge",
        "value": 2575
      },
      "scriptsig": "",
      "scriptsig_asm": "",
      "witness": [
        "cc5dc9894ce76760a2fa51d37e467e9610fba08e7b6287ea0e4b0788343134e95c788743ddb9aa00a0f52b39111183e13f860f43c823071d9857e6c40ce9a342",
        "20796b061e8246e55afb1252d563a0798ebdccf9c002e101b5e23768fe2c1df3f9ac0063036f726401010a746578742f706c61696e00367b2270223a226272632d3230222c226f70223a226d696e74222c227469636b223a2261616161222c22616d74223a223130303030227d68",
        "c1796b061e8246e55afb1252d563a0798ebdccf9c002e101b5e23768fe2c1df3f9"
      ],
      "is_coinbase": false,
      "sequence": 4261412863
    }
  ],
  "vout": [
    {
      "scriptpubkey": "0014ddd7ef12ea6f78edcc1e8e7afa12c01ab59f3339",
      "scriptpubkey_asm": "OP_0 OP_PUSHBYTES_20 ddd7ef12ea6f78edcc1e8e7afa12c01ab59f3339",
      "scriptpubkey_type": "v0_p2wpkh",
      "scriptpubkey_address": "bc1qmht77yh2dauwmnq73ea05ykqr26e7veea8spz6",
      "value": 546
    }
  ],
  "size": 295,
  "weight": 541,
  "fee": 2029,
  "status": {
    "confirmed": true,
    "block_height": 834460,
    "block_hash": "00000000000000000000484a79b643b2524bbce82e5d8a442013fa5b8905ed98",
    "block_time": 1710307468
  },
  "hex": "020000000001013c27aa53bb788d7fa4c35b7623ff7a18dfb471392be8d66d318008dfb4ec86844600000000fffffffd012202000000000000160014ddd7ef12ea6f78edcc1e8e7afa12c01ab59f33390340cc5dc9894ce76760a2fa51d37e467e9610fba08e7b6287ea0e4b0788343134e95c788743ddb9aa00a0f52b39111183e13f860f43c823071d9857e6c40ce9a3426e20796b061e8246e55afb1252d563a0798ebdccf9c002e101b5e23768fe2c1df3f9ac0063036f726401010a746578742f706c61696e00367b2270223a226272632d3230222c226f70223a226d696e74222c227469636b223a2261616161222c22616d74223a223130303030227d6821c1796b061e8246e55afb1252d563a0798ebdccf9c002e101b5e23768fe2c1df3f900000000"
}