{
  "txid": "30c57c6d43ebc35341624552437562ace4b86cab7ba45e1bc36f0af32792cc73",
  "version": 1,
  "locktime": 0,
  "vin": [
    {
      "txid": "88888886e071259eb217cf48720add3bb227a392b78bf06340aa85a97b5c5d23",
      "vout": 0,
      "prevout": {
        "scriptpubkey": "512060d5da6341cb607badfdbbd09c9742d921843bbd7aa28b27794f5f7aaa92667c",
        "scriptpubkey_asm": "OP_PUSHNUM_1 OP_PUSHBYTES_32 60d5da6341cb607badfdbbd09c9742d921843bbd7aa28b27794f5f7aaa92667c",
        "scriptpubkey_type": "v1_p2tr",
        "scriptpubkey_address": "bc1pvr2a5c6peds8ht0ah0gfe96zmyscgwaa023gkfmefa0h425jve7q2agpe2",
        "value": 11627
      },
      "scriptsig": "",
      "scriptsig_asm": "",
      "witness": [
        "1a681222d868585e90aef264d5ccef31e2561866a4ed1f0bb5a8c71cf0e224f9fc852a27732288fddb2a28bc9e70d93a6643032ba457ef776172e206592c85d483",
        "20930d4ffacedaeeda983fbe6875a3f39bad4c323e8346d8dda5652f8cfd9db2eaac00630461746f6d03646d7442a16461726773a468626974776f726b6367383838383838386b6d696e745f7469636b657268696e66696e697479656e6f6e63651a007ecdde6474696d651a65dc6ce068",
        "c1930d4ffacedaeeda983fbe6875a3f39bad4c323e8346d8dda5652f8cfd9db2ea"
      ],
      "is_coinbase": false,
      "sequence": 4294967293
    }
  ],
  "vout": [
    {
      "scriptpubkey": "5120bf94882e5d0c036449dc3f1782adc8fe707e6d03ea0ecdd97e048b8da94a44b1",
      "scriptpubkey_asm": "OP_PUSHNUM_1 OP_PUSHBYTES_32 bf94882e5d0c036449dc3f1782adc8fe707e6d03ea0ecdd97e048b8da94a44b1",
      "scriptpubkey_type": "v1_p2tr",
      "scriptpubkey_address": "bc1ph72gstjapspkgjwu8utc9twglec8umgrag8vmkt7qj9cm222gjcsurlt3p",
      "value": 9999
    }
  ],
  "size": 311,
  "weight": 593,
  "fee": 1628,
  "status": {
    "confirmed": true,
    "block_height": 834464,
    "block_hash": "0000000000000000000177a0869a911a2b65c9bdcd5a8bcb02b68f305bee848e",
    "block_time": 1710308296
  },
  "hex": "01000000000101235d5c7ba985aa4063f08bb792a327b23bdd0a7248cf17b29e2571e0868888880000000000fdffffff010f27000000000000225120bf94882e5d0c036449dc3f1782adc8fe707e6d03ea0ecdd97e048b8da94a44b103411a681222d868585e90aef264d5ccef31e2561866a4ed1f0bb5a8c71cf0e224f9fc852a27732288fddb2a28bc9e70d93a6643032ba457ef776172e206592c85d4837120930d4ffacedaeeda983fbe6875a3f39bad4c323e8346d8dda5652f8cfd9db2eaac00630461746f6d03646d7442a16461726773a468626974776f726b6367383838383838386b6d696e745f7469636b657268696e66696e697479656e6f6e63651a007ecdde6474696d651a65dc6ce06821c1930d4ffacedaeeda983fbe6875a3f39bad4c323e8346d8dda5652f8cfd9db2ea00000000"
}