{
  "txid": "30f084abfa05053fa8669ebd1b88a75db76576408a8ec055416a481b92e5920e",
  "version": 1,
  "locktime": 0,
  "vin": [
    {
      "txid": "a9f07d8a8559503751c051bb8ccd8f9a8c73637b6d01a18eb71dc0e997cd1f19",
      "vout": 1,
      "prevout": {
        "scriptpubkey": "76a914a83fec74fdbcea307e7253f601226de1743967a488ac",
        "scriptpubkey_asm": "OP_DUP OP_HASH160 OP_PUSHBYTES_20 a83fec74fdbcea307e7253f601226de1743967a4 OP_EQUALVERIFY OP_CHECKSIG",
        "scriptpubkey_type": "p2pkh",
        "scriptpubkey_address": "1GLd6iqPkZmhtFTUqv48wa1BVRGtmT6Fkf",
        "value": 217985
      },
      "scriptsig": "47304402207c576dfc1b766a7943c06456b0bb9d172a749947c76852f4a6ebb2ea4f4985f602205bb025629c33c1da6c1384cb059e9413cfca3a12ab2b03acca877feb4054dc75012102877405a4d467e669119db4556544408e3d2b14d5c05e200bcdc8a0c934e6d472",
      "scriptsig_asm": "OP_PUSHBYTES_71 304402207c576dfc1b766a7943c06456b0bb9d172a749947c76852f4a6ebb2ea4f4985f602205bb025629c33c1da6c1384cb059e9413cfca3a12ab2b03acca877feb4054dc7501 OP_PUSHBYTES_33 02877405a4d467e669119db4556544408e3d2b14d5c05e200bcdc8a0c934e6d472",
      "is_coinbase": false,
      "sequence": 4294967295
    }
  ],
  "vout": [
    {
      "scriptpubkey": "a914dd5e711fbdcb3ec5ff26a7d9a9f64db78eddb10887",
      "scriptpubkey_asm": "OP_HASH160 OP_PUSHBYTES_20 dd5e711fbdcb3ec5ff26a7d9a9f64db78eddb108 OP_EQUAL",
      "scriptpubkey_type": "p2sh",
      "scriptpubkey_address": "3MsWPskgyBKTFPhqnaboW84G9X1dTEHgNc",
      "value": 81668
    },
    {
      "scriptpubkey": "76a914f4350e7af27adf2e0ca2e442704993243f4c7e7488ac",
      "scriptpubkey_asm": "OP_DUP OP_HASH160 OP_PUSHBYTES_20 f4350e7af27adf2e0ca2e442704993243f4c7e74 OP_EQUALVERIFY OP_CHECKSIG",
      "scriptpubkey_type": "p2pkh",
      "scriptpubkey_address": "1PGFSEzgLc4ekPxQAMHBhbq9S4JkNAMa2g",
      "value": 127581
    }
  ],
  "size": 223,
  "weight": 892,
  "fee": 8736,
  "status": {
    "confirmed": true,
    "block_height": 834638,
    "block_hash": "000000000000000000025f742c626208ac87e0b7d15054abb4a19ca2d735a54e",
    "block_time": 1710405325
  },
  "hex": "0100000001191fcd97e9c01db78ea1016d7b63738c9a8fcd8cbb51c051375059858a7df0a9010000006a47304402207c576dfc1b766a7943c06456b0bb9d172a749947c76852f4a6ebb2ea4f4985f602205bb025629c33c1da6c1384cb059e9413cfca3a12ab2b03acca877feb4054dc75012102877405a4d467e669119db4556544408e3d2b14d5c05e200bcdc8a0c934e6d472ffffffff02043f01000000000017a914dd5e711fbdcb3ec5ff26a7d9a9f64db78eddb108875df20100000000001976a914f4350e7af27adf2e0ca2e442704993243f4c7e7488ac00000000"
}