{
  "txid": "30f11d0627b5ba00615f00d7c5f8ae8ede781b4de4a2023b9557fa5c4044558e",
  "version": 2,
  "locktime": 834637,
  "vin": [
    {
      "txid": "3ec6d85de8af1626d4c4f324181df7812bff18f2146c493c9bdc6f48d0927be2",
      "vout": 0,
      "prevout": {
        "scriptpubkey": "0014b5c1e67ae4cc0f9e571c5bca07ef42a771bd6585",
        "scriptpubkey_asm": "OP_0 OP_PUSHBYTES_20 b5c1e67ae4cc0f9e571c5bca07ef42a771bd6585",
        "scriptpubkey_type": "v0_p2wpkh",
        "scriptpubkey_address": "bc1qkhq7v7hyes8eu4cut09q0m6z5acm6ev97ypsep",
        "value": 780393004
      },
      "scriptsig": "",
      "scriptsig_asm": "",
      "witness": [
        "3044022068f913d6401079883309ec9cf94539689519f4a82f26c309e4ef439adb68466902202f72b5df779afb19e6bb4486aa51888f049a276a0ca4aad9c3796cc17de1eb0201",
        "0351e38e813e03820592bb456bde2033f0c6b7cd2410e6c4f7b89315473df02e3a"
      ],
      "is_coinbase": false,
      "sequence": 4294967294
    }
  ],
  "vout": [
    {
      "scriptpubkey": "0014733709b66e90de53163ab20923e0248297658c28",
      "scriptpubkey_asm": "OP_0 OP_PUSHBYTES_20 733709b66e90de53163ab20923e0248297658c28",
      "scriptpubkey_type": "v0_p2wpkh",
      "scriptpubkey_address": "bc1qwvmsndnwjr09x936kgyj8cpys2tktrpglvu4r9",
      "value": 779288624
    },
    {
      "scriptpubkey": "a914b17baea37f468d1885358db586902249ec6c0ec287",
      "scriptpubkey_asm": "OP_HASH160 OP_PUSHBYTES_20 b17baea37f468d1885358db586902249ec6c0ec2 OP_EQUAL",
      "scriptpubkey_type": "p2sh",
      "scriptpubkey_address": "3HsTh5xxpPBu3gF91uGKsq7pVcWAVxKAYx",
      "value": 1100900
    }
  ],
  "size": 223,
  "weight": 565,
  "fee": 3480,
  "status": {
    "confirmed": true,
    "block_height": 834638,
    "block_hash": "000000000000000000025f742c626208ac87e0b7d15054abb4a19ca2d735a54e",
    "block_time": 1710405325
  },
  "hex": "02000000000101e27b92d0486fdc9b3c496c14f218ff2b81f71d1824f3c4d42616afe85dd8c63e0000000000feffffff023000732e00000000160014733709b66e90de53163ab20923e0248297658c2864cc10000000000017a914b17baea37f468d1885358db586902249ec6c0ec28702473044022068f913d6401079883309ec9cf94539689519f4a82f26c309e4ef439adb68466902202f72b5df779afb19e6bb4486aa51888f049a276a0ca4aad9c3796cc17de1eb0201210351e38e813e03820592bb456bde2033f0c6b7cd2410e6c4f7b89315473df02e3a4dbc0c00"
}