{
  "txid": "30f57127278286bdc60aca55e5658c1d85e51947c3e5a617dd676b62fb6c0f2b",
  "version": 2,
  "locktime": 834458,
  "vin": [
    {
      "txid": "53c2f037bd9ca056ec6ac8e00f1b68235e06aee6460087e69a24036ef1831869",
      "vout": 22,
      "prevout": {
        "scriptpubkey": "00149615fd8f268e3c6856f1294546691b476ada8f05",
        "scriptpubkey_asm": "OP_0 OP_PUSHBYTES_20 9615fd8f268e3c6856f1294546691b476ada8f05",
        "scriptpubkey_type": "v0_p2wpkh",
        "scriptpubkey_address": "bc1qjc2lmrex3c7xs4h399z5v6gmga4d4rc985cq4v",
        "value": 80049
      },
      "scriptsig": "",
      "scriptsig_asm": "",
      "witness": [
        "304402204b38ecda77c73f5c62a7f45d92970a8920c95866c66c53b667250c9836e197a702206e2472e9be4289340de678c24148b5a24d8b619144de7dbd34566c376bf4b0b301",
        "03da8c90820fcd6961216d1735260ab7cb016f6b11efbf917259a0bd0cf5699526"
      ],
      "is_coinbase": false,
      "sequence": 4294967294
    },
    {
      "txid": "89d95622e353e791150cc70af348c4d16c5e9abeab245d8fd81d24a8ad1d026e",
      "vout": 0,
      "prevout": {
        "scriptpubkey": "0014f1080fe1fe7b1d25d6640c10262abf01f0e0632c",
        "scriptpubkey_asm": "OP_0 OP_PUSHBYTES_20 f1080fe1fe7b1d25d6640c10262abf01f0e0632c",
        "scriptpubkey_type": "v0_p2wpkh",
        "scriptpubkey_address": "bc1q7yyqlc070vwjt4nypsgzv24lq8cwqcev4475fg",
        "value": 121690
      },
      "scriptsig": "",
      "scriptsig_asm": "",
      "witness": [
        "3045022100a8684dbd0a0a9207af97eb5458ec4ff615fc702dc774fa194b257a747d3aeaa302203099a3cc1b69917e6324da8a64667617ca5d5a80a2241da4c69f32f1a3c0021e01",
        "0218f59413ec77a07dc71c1c9ae40bb28b7410c72a325f28f6019bd0c051ab945c"
      ],
      "is_coinbase": false,
      "sequence": 4294967294
    },
    {
      "txid": "ce931723459a4710db8c0acb1aa780f03c5c2696aa80a6a09f8cc7399aba807c",
      "vout": 11,
      "prevout": {
        "scriptpubkey": "00148d2d9d31757e6f456246db217262274bc98b0a82",
        "scriptpubkey_asm": "OP_0 OP_PUSHBYTES_20 8d2d9d31757e6f456246db217262274bc98b0a82",
        "scriptpubkey_type": "v0_p2wpkh",
        "scriptpubkey_address": "bc1q35ke6vt40eh52cjxmvshyc38f0yckz5znpzae0",
        "value": 416415
      },
      "scriptsig": "",
      "scriptsig_asm": "",
      "witness": [
        "30440220278f08038a8934b42bcca2bf36514215c4d4a6f5d8517cd9ae4f0c0e36738a82022023c84244e0d9af0253fcb076b1868bf95a288962036f6fa675fb34aee50e366d01",
        "03cf7f8dbb17d9fad71eab0103b42fc3ac2e28b50c58faacfa01fc35bb44c5c46b"
      ],
      "is_coinbase": false,
      "sequence": 4294967294
    },
    {
      "txid": "f5eeed4dac2fd4642a72e86c6c5c84ccfd23a59ff5db114ff4f3c56668598035",
      "vout": 10,
      "prevout": {
        "scriptpubkey": "001462b535cd4e7b178d4a9544807cd2c1fc55ca7a4b",
        "scriptpubkey_asm": "OP_0 OP_PUSHBYTES_20 62b535cd4e7b178d4a9544807cd2c1fc55ca7a4b",
        "scriptpubkey_type": "v0_p2wpkh",
        "scriptpubkey_address": "bc1qv26ntn2w0vtc6j54gjq8e5kpl32u57jthxyn8x",
        "value": 104135
      },
      "scriptsig": "",
      "scriptsig_asm": "",
      "witness": [
        "30440220241d97de05fe3b988ca504cfbd53a3de89692f40618885d5d6eedb834909beb5022005bf99dd0ee2c8e24a4cde08d5d1be3647e412b740eb90064f84aaefea627c4601",
        "03470a52584821f4d140c03906a6e32abf7219dc9487d9d3de76fa4d007d57827f"
      ],
      "is_coinbase": false,
      "sequence": 4294967294
    }
  ],
  "vout": [
    {
      "scriptpubkey": "a9141cb06ebc51eadfe57a0cd2ed1dde2177a335054087",
      "scriptpubkey_asm": "OP_HASH160 OP_PUSHBYTES_20 1cb06ebc51eadfe57a0cd2ed1dde2177a3350540 OP_EQUAL",
      "scriptpubkey_type": "p2sh",
      "scriptpubkey_address": "34JiCfUp63mSynBzUcNyG4AJ8y8gj23YWe",
      "value": 717879
    }
  ],
  "size": 637,
  "weight": 1255,
  "fee": 4410,
  "status": {
    "confirmed": true,
    "block_height": 834460,
    "block_hash": "00000000000000000000484a79b643b2524bbce82e5d8a442013fa5b8905ed98",
    "block_time": 1710307468
  },
  "hex": "02000000000104691883f16e03249ae6870046e6ae065e23681b0fe0c86aec56a09cbd37f0c2531600000000feffffff6e021dada8241dd88f5d24abbe9a5e6cd1c448f30ac70c1591e753e32256d9890000000000feffffff7c80ba9a39c78c9fa0a680aa96265c3cf080a71acb0a8cdb10479a45231793ce0b00000000feffffff3580596866c5f3f44f11dbf59fa523fdcc845c6c6ce8722a64d42fac4dedeef50a00000000feffffff0137f40a000000000017a9141cb06ebc51eadfe57a0cd2ed1dde2177a3350540870247304402204b38ecda77c73f5c62a7f45d92970a8920c95866c66c53b667250c9836e197a702206e2472e9be4289340de678c24148b5a24d8b619144de7dbd34566c376bf4b0b3012103da8c90820fcd6961216d1735260ab7cb016f6b11efbf917259a0bd0cf569952602483045022100a8684dbd0a0a9207af97eb5458ec4ff615fc702dc774fa194b257a747d3aeaa302203099a3cc1b69917e6324da8a64667617ca5d5a80a2241da4c69f32f1a3c0021e01210218f59413ec77a07dc71c1c9ae40bb28b7410c72a325f28f6019bd0c051ab945c024730440220278f08038a8934b42bcca2bf36514215c4d4a6f5d8517cd9ae4f0c0e36738a82022023c84244e0d9af0253fcb076b1868bf95a288962036f6fa675fb34aee50e366d012103cf7f8dbb17d9fad71eab0103b42fc3ac2e28b50c58faacfa01fc35bb44c5c46b024730440220241d97de05fe3b988ca504cfbd53a3de89692f40618885d5d6eedb834909beb5022005bf99dd0ee2c8e24a4cde08d5d1be3647e412b740eb90064f84aaefea627c46012103470a52584821f4d140c03906a6e32abf7219dc9487d9d3de76fa4d007d57827f9abb0c00"
}