{
  "txid": "3108cc6b027e6237946bc42e74970b46a097c9e6f3d4d0d6e9e0c62126e27b6b",
  "version": 2,
  "locktime": 0,
  "vin": [
    {
      "txid": "216e83ee1fe7abc8d89c1b0816ad2447ee9f76acece04aeb004f59b4b21468d1",
      "vout": 0,
      "prevout": {
        "scriptpubkey": "51200f5a0a89ef97dfc670fe064c4d1179e77745f5864c42c026bffeedbe07282edf",
        "scriptpubkey_asm": "OP_PUSHNUM_1 OP_PUSHBYTES_32 0f5a0a89ef97dfc670fe064c4d1179e77745f5864c42c026bffeedbe07282edf",
        "scriptpubkey_type": "v1_p2tr",
        "scriptpubkey_address": "bc1ppadq4z00jl0uvu87qexy6yteuam5tavxf3pvqf4llmkmupeg9m0slswcwf",
        "value": 2826
      },
      "scriptsig": "",
      "scriptsig_asm": "",
      "witness": [
        "f39649229f2b67c6509425725355982fd7f686f266787f6c1168e9a43fe95fb90e6e0140a0863f0443295fb83cc75d8e22fdcfd258ca547b771a9c7411b5baca",
        "20695c036da9e72bce967d1710acc4f495df215efc697448be7dc775f0ce5c6538ac0063036f7264010118746578742f706c61696e3b636861727365743d7574662d3800397b2270223a226272632d3230222c226f70223a227472616e73666572222c227469636b223a22736c6f72222c22616d74223a2232303030227d68",
        "c1695c036da9e72bce967d1710acc4f495df215efc697448be7dc775f0ce5c6538"
      ],
      "is_coinbase": false,
      "sequence": 4294967293
    }
  ],
  "vout": [
    {
      "scriptpubkey": "512017792fcdf806a9c9907b0fd889678aa0e133c82c7cf44166bb738b9a81ceb7c4",
      "scriptpubkey_asm": "OP_PUSHNUM_1 OP_PUSHBYTES_32 17792fcdf806a9c9907b0fd889678aa0e133c82c7cf44166bb738b9a81ceb7c4",
      "scriptpubkey_type": "v1_p2tr",
      "scriptpubkey_address": "bc1pzaujln0cq65unyrmplvgjeu25rsn8jpv0n6yze4mww9e4qwwklzqvjd005",
      "value": 546
    }
  ],
  "size": 324,
  "weight": 606,
  "fee": 2280,
  "status": {
    "confirmed": true,
    "block_height": 834638,
    "block_hash": "000000000000000000025f742c626208ac87e0b7d15054abb4a19ca2d735a54e",
    "block_time": 1710405325
  },
  "hex": "02000000000101d16814b2b4594f00eb4ae0ecac769fee4724ad16081b9cd8c8abe71fee836e210000000000fdffffff01220200000000000022512017792fcdf806a9c9907b0fd889678aa0e133c82c7cf44166bb738b9a81ceb7c40340f39649229f2b67c6509425725355982fd7f686f266787f6c1168e9a43fe95fb90e6e0140a0863f0443295fb83cc75d8e22fdcfd258ca547b771a9c7411b5baca7f20695c036da9e72bce967d1710acc4f495df215efc697448be7dc775f0ce5c6538ac0063036f7264010118746578742f706c61696e3b636861727365743d7574662d3800397b2270223a226272632d3230222c226f70223a227472616e73666572222c227469636b223a22736c6f72222c22616d74223a2232303030227d6821c1695c036da9e72bce967d1710acc4f495df215efc697448be7dc775f0ce5c653800000000"
}