{
  "txid": "3114959a1e65e7740c3f3df693b81912601eb82926c0176020bc659edf9b7760",
  "version": 1,
  "locktime": 0,
  "vin": [
    {
      "txid": "d560e4803ddb94bed93d3f8f31d2a3fc6e0c3c74a1a0717e9cfb0332c0eb3508",
      "vout": 0,
      "prevout": {
        "scriptpubkey": "0014668d92d800ce36dfdd647a1e00d70c5b023bd146",
        "scriptpubkey_asm": "OP_0 OP_PUSHBYTES_20 668d92d800ce36dfdd647a1e00d70c5b023bd146",
        "scriptpubkey_type": "v0_p2wpkh",
        "scriptpubkey_address": "bc1qv6xe9kqqecmdlhty0g0qp4cvtvprh52xjaaguq",
        "value": 133603
      },
      "scriptsig": "",
      "scriptsig_asm": "",
      "witness": [
        "304402207ade9b025ce9ffdc9c0a4bf2bede53788a3c40eaa519ca060d99556dfbdf1f500220418a6ed90c25f88ad7e9f6bfa47e336e762264f09b7068afaee3398b276f30a401",
        "032adcfc19c548d5b7a86dca0468f28be42208a6cbf78c37639844015ee35b18ec"
      ],
      "is_coinbase": false,
      "sequence": 4294967295
    }
  ],
  "vout": [
    {
      "scriptpubkey": "0014e52c24fc7a43c62e543faa70d6fd0d9e37f01988",
      "scriptpubkey_asm": "OP_0 OP_PUSHBYTES_20 e52c24fc7a43c62e543faa70d6fd0d9e37f01988",
      "scriptpubkey_type": "v0_p2wpkh",
      "scriptpubkey_address": "bc1qu5kzflr6g0rzu4pl4fcddlgdncmlqxvgh4su7z",
      "value": 130633
    }
  ],
  "size": 191,
  "weight": 437,
  "fee": 2970,
  "status": {
    "confirmed": true,
    "block_height": 834638,
    "block_hash": "000000000000000000025f742c626208ac87e0b7d15054abb4a19ca2d735a54e",
    "block_time": 1710405325
  },
  "hex": "010000000001010835ebc03203fb9c7e71a0a1743c0c6efca3d2318f3f3dd9be94db3d80e460d50000000000ffffffff0149fe010000000000160014e52c24fc7a43c62e543faa70d6fd0d9e37f019880247304402207ade9b025ce9ffdc9c0a4bf2bede53788a3c40eaa519ca060d99556dfbdf1f500220418a6ed90c25f88ad7e9f6bfa47e336e762264f09b7068afaee3398b276f30a40121032adcfc19c548d5b7a86dca0468f28be42208a6cbf78c37639844015ee35b18ec00000000"
}