{
  "txid": "3130e1de4fa47a4bb3976388e0ad80d5d2e95ebf1de12a2a3484322aaed6df20",
  "version": 2,
  "locktime": 834637,
  "vin": [
    {
      "txid": "15509b01e5ee29fcf75399ecacf7ec7036b6178d64dec1b5c930512a116a692b",
      "vout": 1,
      "prevout": {
        "scriptpubkey": "0014b44d224ba2d969fe930ae46f659fe8d60db1924b",
        "scriptpubkey_asm": "OP_0 OP_PUSHBYTES_20 b44d224ba2d969fe930ae46f659fe8d60db1924b",
        "scriptpubkey_type": "v0_p2wpkh",
        "scriptpubkey_address": "bc1qk3xjyjazm95layc2u3hkt8lg6cxmryjtamhxcd",
        "value": 291467586
      },
      "scriptsig": "",
      "scriptsig_asm": "",
      "witness": [
        "3044022068dcc1dca9ff2b0684475fafd7a4e429173fd1fb7ee041478a63af30f600416302203bbc1ccfd4e499c45a1b73a440f2b78b9707c987394899f42fe7901fc386d81301",
        "031312e1aa9e4b7816f80fcb6f5bba90673d27593f58a2474957a1fe93eddbdbc6"
      ],
      "is_coinbase": false,
      "sequence": 4294967294
    }
  ],
  "vout": [
    {
      "scriptpubkey": "00141634626712852f10eef567f5b46f4148af29421f",
      "scriptpubkey_asm": "OP_0 OP_PUSHBYTES_20 1634626712852f10eef567f5b46f4148af29421f",
      "scriptpubkey_type": "v0_p2wpkh",
      "scriptpubkey_address": "bc1qzc6xyecjs5h3pmh4vl6mgm6pfzhjjssl08gska",
      "value": 1376600
    },
    {
      "scriptpubkey": "00142360637cca09671af2bab4f832197c5aaf3e4e12",
      "scriptpubkey_asm": "OP_0 OP_PUSHBYTES_20 2360637cca09671af2bab4f832197c5aaf3e4e12",
      "scriptpubkey_type": "v0_p2wpkh",
      "scriptpubkey_address": "bc1qydsxxlx2p9n34u46knuryxtut2hnunsj80wpyl",
      "value": 290087530
    }
  ],
  "size": 222,
  "weight": 561,
  "fee": 3456,
  "status": {
    "confirmed": true,
    "block_height": 834638,
    "block_hash": "000000000000000000025f742c626208ac87e0b7d15054abb4a19ca2d735a54e",
    "block_time": 1710405325
  },
  "hex": "020000000001012b696a112a5130c9b5c1de648d17b63670ecf7acec9953f7fc29eee5019b50150100000000feffffff0258011500000000001600141634626712852f10eef567f5b46f4148af29421f6a624a11000000001600142360637cca09671af2bab4f832197c5aaf3e4e1202473044022068dcc1dca9ff2b0684475fafd7a4e429173fd1fb7ee041478a63af30f600416302203bbc1ccfd4e499c45a1b73a440f2b78b9707c987394899f42fe7901fc386d8130121031312e1aa9e4b7816f80fcb6f5bba90673d27593f58a2474957a1fe93eddbdbc64dbc0c00"
}