{
  "txid": "315bbb5ddd2fec60af39fe4417b8d696ed052eaeba5248e3a341061ea05fed3b",
  "version": 1,
  "locktime": 0,
  "vin": [
    {
      "txid": "c19806014e25b667eef856b6f6afd93a31890759e4d9ea7bdcc6be5a4b7ced5f",
      "vout": 0,
      "prevout": {
        "scriptpubkey": "5120913774a3e1485c956a64d920f3dd975a9deed4e228334cfd3f8822270208862f",
        "scriptpubkey_asm": "OP_PUSHNUM_1 OP_PUSHBYTES_32 913774a3e1485c956a64d920f3dd975a9deed4e228334cfd3f8822270208862f",
        "scriptpubkey_type": "v1_p2tr",
        "scriptpubkey_address": "bc1pjymhfglpfpwf26nymys08hvht2w7a48z9qe5elfl3q3zwqsgschszz268y",
        "value": 8414
      },
      "scriptsig": "",
      "scriptsig_asm": "",
      "witness": [
        "8803f45396f3ffe3e5adc883a765aaa4c236a2914841f9479989c9f63e365623be92af77b6e2410002ec4bc53f974bcfa593a701cde19c298a25f183f8836ab9",
        "2018e2aeb90f7d65de925432a31036ca1ced3e63da5abdaafb1ccbeb437f230d51ac00630461746f6d036e66744d0802a26461726773a86169f5646d61696e69696d6167652e7376676474696d651a65f1325a656e6f6e6365190d2d6570726f6f668da261647840343532366663373164646162613238333733323239653538386637386136333265623630323961313630633838353562633062356631643634646231636135376170f5a261647840653736303239323761326561626565343538366331373466643465623734656533343332313966363266366335396530623561363135373861626139366366326170f4a261647840383730666133353961383839326461616462316632306431663461626561643436316633316537386364613865336563616539366132396632633535393831636170f4a261647840383834633739353062336264633331386234636463653738343032653761366436313263323937356636303836633536643236363263646332326461376563636170f5a261647840363236343937363934376138383466613534363965373132393264636565646334643964383535306237316661326637363161323638376132363433613436356170f5a261647840333930326131626132613234373865663537346566313736306432363839643133363039666263613161353564303635313761663965326338663130386536366170f4a26164784030613031313735356364383863326639306233313434633239353366343363304d080236306137653533303535353838623039376237393732313634643963633235326170f5a261647840343135646538353339656466313338633937363531303833316563396331333436396630316236336433343965316534643835633564376130333864653833356170f5a261647840376264333566646263316661653432646561393437653035383961383564333134363334373662326439653765343731326232363230303030386436323030326170f4a261647840626664646266396135366332316135656430646137393464383631613766393037626331666462613638343362353035386336373235306133633737346536656170f5a261647840383636316334643936393037343661643937356336373561366462363662383166653633633232306237663565333130366430323136306331353431313433666170f5a261647840633639323163316161333765346130643639656130653232616332376663393461313234333738393835343165333066623233363336326632303130623765356170f5a261647840333964666165666438656639333561313132333938343639383932663166323532326235373563396661663364353062326635373764343237313539663635666170f468626974776f726b636563313938306e726571756573745f646d6974656d6334393570706172656e745f636f6e7461696e657278424de50131393830393063356636666438636163343337383132353134333039393135396566346234303961656463333931323432633361363765333738376637666437693069696d6167652e7376675901963c73766720786d6c6e733d22687474703a2f2f7777772e77332e6f72672f323030302f737667222077696474683d2232303022206865696768743d22323030223e3c726563742077696474683d223130302522206865696768743d2231303025222066696c6c3d22776869746522202f3e3c7465787420783d223530252220793d223435252220666f6e742d66616d696c793d222746616e67536f6e67272c2073657269662220666f6e742d73697a653d223530222066696c6c3d22233030303030302220646f6d696e616e742d626173656c696e653d226d6964646c652220746578742d616e63686f723d226d6964646c65223ee58a933c2f746578743e3c7465787420783d223530252220793d223735252220666f6e742d66616d696c793d222746616e67536f6e67272c2073657269662220666f6e742d73697a653d223230222066696c6c3d22233030303030302220646f6d696e616e742d626173656c696e653d226d6964646c652220746578742d616e63686f723d226d6964646c65223e6535386139333c2f746578743e3c2f7376673e68",
        "c118e2aeb90f7d65de925432a31036ca1ced3e63da5abdaafb1ccbeb437f230d51"
      ],
      "is_coinbase": false,
      "sequence": 1
    }
  ],
  "vout": [
    {
      "scriptpubkey": "51203e4de2c59d68015dc5c704364002b6045d335265e86d4b4ff2ece4c2a0ebb8d9",
      "scriptpubkey_asm": "OP_PUSHNUM_1 OP_PUSHBYTES_32 3e4de2c59d68015dc5c704364002b6045d335265e86d4b4ff2ece4c2a0ebb8d9",
      "scriptpubkey_type": "v1_p2tr",
      "scriptpubkey_address": "bc1p8ex793vadqq4m3w8qsmyqq4kq3wnx5n9apk5knljanjv9g8thrvs402kdq",
      "value": 1000
    }
  ],
  "size": 1779,
  "weight": 2061,
  "fee": 7414,
  "status": {
    "confirmed": true,
    "block_height": 834460,
    "block_hash": "00000000000000000000484a79b643b2524bbce82e5d8a442013fa5b8905ed98",
    "block_time": 1710307468
  },
  "hex": "010000000001015fed7c4b5abec6dc7bead9e4590789313ad9aff6b656f8ee67b6254e010698c100000000000100000001e8030000000000002251203e4de2c59d68015dc5c704364002b6045d335265e86d4b4ff2ece4c2a0ebb8d903408803f45396f3ffe3e5adc883a765aaa4c236a2914841f9479989c9f63e365623be92af77b6e2410002ec4bc53f974bcfa593a701cde19c298a25f183f8836ab9fd2c062018e2aeb90f7d65de925432a31036ca1ced3e63da5abdaafb1ccbeb437f230d51ac00630461746f6d036e66744d0802a26461726773a86169f5646d61696e69696d6167652e7376676474696d651a65f1325a656e6f6e6365190d2d6570726f6f668da261647840343532366663373164646162613238333733323239653538386637386136333265623630323961313630633838353562633062356631643634646231636135376170f5a261647840653736303239323761326561626565343538366331373466643465623734656533343332313966363266366335396530623561363135373861626139366366326170f4a261647840383730666133353961383839326461616462316632306431663461626561643436316633316537386364613865336563616539366132396632633535393831636170f4a261647840383834633739353062336264633331386234636463653738343032653761366436313263323937356636303836633536643236363263646332326461376563636170f5a261647840363236343937363934376138383466613534363965373132393264636565646334643964383535306237316661326637363161323638376132363433613436356170f5a261647840333930326131626132613234373865663537346566313736306432363839643133363039666263613161353564303635313761663965326338663130386536366170f4a26164784030613031313735356364383863326639306233313434633239353366343363304d080236306137653533303535353838623039376237393732313634643963633235326170f5a261647840343135646538353339656466313338633937363531303833316563396331333436396630316236336433343965316534643835633564376130333864653833356170f5a261647840376264333566646263316661653432646561393437653035383961383564333134363334373662326439653765343731326232363230303030386436323030326170f4a261647840626664646266396135366332316135656430646137393464383631613766393037626331666462613638343362353035386336373235306133633737346536656170f5a261647840383636316334643936393037343661643937356336373561366462363662383166653633633232306237663565333130366430323136306331353431313433666170f5a261647840633639323163316161333765346130643639656130653232616332376663393461313234333738393835343165333066623233363336326632303130623765356170f5a261647840333964666165666438656639333561313132333938343639383932663166323532326235373563396661663364353062326635373764343237313539663635666170f468626974776f726b636563313938306e726571756573745f646d6974656d6334393570706172656e745f636f6e7461696e657278424de50131393830393063356636666438636163343337383132353134333039393135396566346234303961656463333931323432633361363765333738376637666437693069696d6167652e7376675901963c73766720786d6c6e733d22687474703a2f2f7777772e77332e6f72672f323030302f737667222077696474683d2232303022206865696768743d22323030223e3c726563742077696474683d223130302522206865696768743d2231303025222066696c6c3d22776869746522202f3e3c7465787420783d223530252220793d223435252220666f6e742d66616d696c793d222746616e67536f6e67272c2073657269662220666f6e742d73697a653d223530222066696c6c3d22233030303030302220646f6d696e616e742d626173656c696e653d226d6964646c652220746578742d616e63686f723d226d6964646c65223ee58a933c2f746578743e3c7465787420783d223530252220793d223735252220666f6e742d66616d696c793d222746616e67536f6e67272c2073657269662220666f6e742d73697a653d223230222066696c6c3d22233030303030302220646f6d696e616e742d626173656c696e653d226d6964646c652220746578742d616e63686f723d226d6964646c65223e6535386139333c2f746578743e3c2f7376673e6821c118e2aeb90f7d65de925432a31036ca1ced3e63da5abdaafb1ccbeb437f230d5100000000"
}