{
  "txid": "315eb3c7e15dc51ec505f2149e50ecbcc034df54486c64fb2017902d7a557693",
  "version": 1,
  "locktime": 0,
  "vin": [
    {
      "txid": "5d82496e3cd25b69fa4f22f8602a0e2276673d506693b18b71ca6291c1015151",
      "vout": 1,
      "prevout": {
        "scriptpubkey": "001491768be6413bd98dc808bdc04bac6ff3e7af1bb4",
        "scriptpubkey_asm": "OP_0 OP_PUSHBYTES_20 91768be6413bd98dc808bdc04bac6ff3e7af1bb4",
        "scriptpubkey_type": "v0_p2wpkh",
        "scriptpubkey_address": "bc1qj9mghejp80vcmjqghhqyhtr070n67xa5n4e64n",
        "value": 519828
      },
      "scriptsig": "",
      "scriptsig_asm": "",
      "witness": [
        "304402207a6943e8e4a18ebb7e4d42317686a2affffb8c66c11501fb3d677c2cac8b5028022068c4495012ff79ba0a7cd48d54add36b4ed0eb68cafcbdb544a7416a98f28f8401",
        "03f591ed7250706198ece4126d840de7d9504ae7d3cb9e636cfdf1e7c97beeee96"
      ],
      "is_coinbase": false,
      "sequence": 4294967295
    }
  ],
  "vout": [
    {
      "scriptpubkey": "0014db3d7a735d584417464b3478c93a314b9b0c12a0",
      "scriptpubkey_asm": "OP_0 OP_PUSHBYTES_20 db3d7a735d584417464b3478c93a314b9b0c12a0",
      "scriptpubkey_type": "v0_p2wpkh",
      "scriptpubkey_address": "bc1qmv7h5u6atpzpw3jtx3uvjw33fwdscy4qr2ymnn",
      "value": 119680
    },
    {
      "scriptpubkey": "00142088a586871d57c56f78f121ebda903447792ed6",
      "scriptpubkey_asm": "OP_0 OP_PUSHBYTES_20 2088a586871d57c56f78f121ebda903447792ed6",
      "scriptpubkey_type": "v0_p2wpkh",
      "scriptpubkey_address": "bc1qyzy2tp58r4tu2mmc7ys7hk5sx3rhjtkkn4pltj",
      "value": 398051
    }
  ],
  "size": 222,
  "weight": 561,
  "fee": 2097,
  "status": {
    "confirmed": true,
    "block_height": 834638,
    "block_hash": "000000000000000000025f742c626208ac87e0b7d15054abb4a19ca2d735a54e",
    "block_time": 1710405325
  },
  "hex": "01000000000101515101c19162ca718bb19366503d6776220e2a60f8224ffa695bd23c6e49825d0100000000ffffffff0280d3010000000000160014db3d7a735d584417464b3478c93a314b9b0c12a0e3120600000000001600142088a586871d57c56f78f121ebda903447792ed60247304402207a6943e8e4a18ebb7e4d42317686a2affffb8c66c11501fb3d677c2cac8b5028022068c4495012ff79ba0a7cd48d54add36b4ed0eb68cafcbdb544a7416a98f28f84012103f591ed7250706198ece4126d840de7d9504ae7d3cb9e636cfdf1e7c97beeee9600000000"
}