{
  "txid": "3160fe1c2f780ba53f2fa2b44a09de609936eed52435946b0139621bce5a19b2",
  "version": 2,
  "locktime": 0,
  "vin": [
    {
      "txid": "12fe58804e9d061a699c82bf621db2a7ea6639dcfa94d259c4b01bfcf95b061a",
      "vout": 14,
      "prevout": {
        "scriptpubkey": "51202483a64154a8de3d3a83a198b2011fd797e66aca287560d0dafb0e253fbef719",
        "scriptpubkey_asm": "OP_PUSHNUM_1 OP_PUSHBYTES_32 2483a64154a8de3d3a83a198b2011fd797e66aca287560d0dafb0e253fbef719",
        "scriptpubkey_type": "v1_p2tr",
        "scriptpubkey_address": "bc1pyjp6vs254r0r6w5r5xvtyqgl67t7v6k29p6kp5x6lv8z20a77uvskdx4mz",
        "value": 2471
      },
      "scriptsig": "",
      "scriptsig_asm": "",
      "witness": [
        "38ac6f4068e5a8ece166c50a9fac6f19c2485c63543d8563529440fe3f12f2f1dd42d1c6be381e984da00e88abc92f5bc7151c7ab443685552bad58be912a26a",
        "20e4991b9d9e0349c6713f73937b96134cedb177a5b6a50adfe720daaaf268c0edac0063036f7264010118746578742f706c61696e3b636861727365743d7574662d38004c947b2270223a2022746170222c20226f70223a2022646d742d6d696e74222c2022646570223a2022366134396139343839376531373435326133633236363131363036323132346331346137333566623335353737303866313533623139666364376238376538336930222c20227469636b223a2022f09f92b0f09f90b8f09f92b0222c2022626c6b223a2022313239333235227d68",
        "c1f3c76533aefc774b0707ddcd1b4941606fa49e3564f0a84ef66fd28168e942d9"
      ],
      "is_coinbase": false,
      "sequence": 4294967295
    }
  ],
  "vout": [
    {
      "scriptpubkey": "51206995824a071ac4f752d81f89304c314d5fe918d3c4d9b534d336bc01090fa188",
      "scriptpubkey_asm": "OP_PUSHNUM_1 OP_PUSHBYTES_32 6995824a071ac4f752d81f89304c314d5fe918d3c4d9b534d336bc01090fa188",
      "scriptpubkey_type": "v1_p2tr",
      "scriptpubkey_address": "bc1pdx2cyjs8rtz0w5kcr7ynqnp3f407jxxncnvm2dxnx67qzzg05xyqy837q4",
      "value": 546
    }
  ],
  "size": 416,
  "weight": 698,
  "fee": 1925,
  "status": {
    "confirmed": true,
    "block_height": 834464,
    "block_hash": "0000000000000000000177a0869a911a2b65c9bdcd5a8bcb02b68f305bee848e",
    "block_time": 1710308296
  },
  "hex": "020000000001011a065bf9fc1bb0c459d294fadc3966eaa7b21d62bf829c691a069d4e8058fe120e00000000ffffffff0122020000000000002251206995824a071ac4f752d81f89304c314d5fe918d3c4d9b534d336bc01090fa188034038ac6f4068e5a8ece166c50a9fac6f19c2485c63543d8563529440fe3f12f2f1dd42d1c6be381e984da00e88abc92f5bc7151c7ab443685552bad58be912a26adb20e4991b9d9e0349c6713f73937b96134cedb177a5b6a50adfe720daaaf268c0edac0063036f7264010118746578742f706c61696e3b636861727365743d7574662d38004c947b2270223a2022746170222c20226f70223a2022646d742d6d696e74222c2022646570223a2022366134396139343839376531373435326133633236363131363036323132346331346137333566623335353737303866313533623139666364376238376538336930222c20227469636b223a2022f09f92b0f09f90b8f09f92b0222c2022626c6b223a2022313239333235227d6821c1f3c76533aefc774b0707ddcd1b4941606fa49e3564f0a84ef66fd28168e942d900000000"
}