{
  "txid": "316a53ca656a4559e7d574f0fc35ee71691d6a2cc9e02c723723dde30d7c7727",
  "version": 2,
  "locktime": 0,
  "vin": [
    {
      "txid": "acc3ba00869acb582a3f2904ce3a11dd3779350ce234063fc7d0959246213364",
      "vout": 166,
      "prevout": {
        "scriptpubkey": "5120bf43608a39b67f74ba7bdf2a3f4f844d09ce83358edecfae2faf692dd4e9b62d",
        "scriptpubkey_asm": "OP_PUSHNUM_1 OP_PUSHBYTES_32 bf43608a39b67f74ba7bdf2a3f4f844d09ce83358edecfae2faf692dd4e9b62d",
        "scriptpubkey_type": "v1_p2tr",
        "scriptpubkey_address": "bc1phapkpz3ekelhfwnmmu4r7nuyf5yuaqe43m0vlt304a5jm48fkcksten3lq",
        "value": 1806
      },
      "scriptsig": "",
      "scriptsig_asm": "",
      "witness": [
        "466451195e0c6a94af2f6eab9c1ce688403b070e753c9afbf8c0d110df887b3dded168a06606871dce812d6144363b904763420905044ba66577a1254b7546da",
        "206655c7b1e33517e1bd3f0e48c3165e72b9d1e964030ad51c9c90817e3645391dac0063036f726401010a746578742f706c61696e00357b2270223a226272632d3230222c226f70223a226d696e74222c227469636b223a22646f6765222c22616d74223a2234323030227d68",
        "c06655c7b1e33517e1bd3f0e48c3165e72b9d1e964030ad51c9c90817e3645391d"
      ],
      "is_coinbase": false,
      "sequence": 4261412863
    }
  ],
  "vout": [
    {
      "scriptpubkey": "00147a665de7a370f4c9b372ab1fae587500a5bcbdb4",
      "scriptpubkey_asm": "OP_0 OP_PUSHBYTES_20 7a665de7a370f4c9b372ab1fae587500a5bcbdb4",
      "scriptpubkey_type": "v0_p2wpkh",
      "scriptpubkey_address": "bc1q0fn9mearwr6vnvmj4v06ukr4qzjme0d565dzcx",
      "value": 294
    }
  ],
  "size": 294,
  "weight": 540,
  "fee": 1512,
  "status": {
    "confirmed": true,
    "block_height": 834460,
    "block_hash": "00000000000000000000484a79b643b2524bbce82e5d8a442013fa5b8905ed98",
    "block_time": 1710307468
  },
  "hex": "02000000000101643321469295d0c73f0634e20c357937dd113ace04293f2a58cb9a8600bac3aca600000000fffffffd0126010000000000001600147a665de7a370f4c9b372ab1fae587500a5bcbdb40340466451195e0c6a94af2f6eab9c1ce688403b070e753c9afbf8c0d110df887b3dded168a06606871dce812d6144363b904763420905044ba66577a1254b7546da6d206655c7b1e33517e1bd3f0e48c3165e72b9d1e964030ad51c9c90817e3645391dac0063036f726401010a746578742f706c61696e00357b2270223a226272632d3230222c226f70223a226d696e74222c227469636b223a22646f6765222c22616d74223a2234323030227d6821c06655c7b1e33517e1bd3f0e48c3165e72b9d1e964030ad51c9c90817e3645391d00000000"
}