{
  "txid": "317537faded98a65ce6ad9a5c7db62569528ebb33534075207fb16c7b4c6dce6",
  "version": 1,
  "locktime": 0,
  "vin": [
    {
      "txid": "e1fcb7d441e2f75d1c24ed6d210cfffbd6c1d017d9f90666b1a4b66ae7a4f290",
      "vout": 9,
      "prevout": {
        "scriptpubkey": "0014b4f30102a43b30707538fcb70c8a52afcc339f1b",
        "scriptpubkey_asm": "OP_0 OP_PUSHBYTES_20 b4f30102a43b30707538fcb70c8a52afcc339f1b",
        "scriptpubkey_type": "v0_p2wpkh",
        "scriptpubkey_address": "bc1qkneszq4y8vc8qafcljmsezjj4lxr88cmw38k4c",
        "value": 2408575
      },
      "scriptsig": "",
      "scriptsig_asm": "",
      "witness": [
        "3045022100fc19d7a85b07370ef34de5e2528a63b9bb7df04af99beefe66c35275cda8534902204089c18b6926df6d32b726747855deac4db0836cede683b4d2e49e8b0aa9a77601",
        "02ea8aa709349db67d4ac7702886935e4712bf10cdaefc809d7ccaa1e2ef545525"
      ],
      "is_coinbase": false,
      "sequence": 4294960000
    }
  ],
  "vout": [
    {
      "scriptpubkey": "0014a300b4484130a356bc53e9a1f94854fcd72a08e1",
      "scriptpubkey_asm": "OP_0 OP_PUSHBYTES_20 a300b4484130a356bc53e9a1f94854fcd72a08e1",
      "scriptpubkey_type": "v0_p2wpkh",
      "scriptpubkey_address": "bc1q5vqtgjzpxz34d0znaxsljjz5lntj5z8pgytu3v",
      "value": 1022000
    },
    {
      "scriptpubkey": "0014b4f30102a43b30707538fcb70c8a52afcc339f1b",
      "scriptpubkey_asm": "OP_0 OP_PUSHBYTES_20 b4f30102a43b30707538fcb70c8a52afcc339f1b",
      "scriptpubkey_type": "v0_p2wpkh",
      "scriptpubkey_address": "bc1qkneszq4y8vc8qafcljmsezjj4lxr88cmw38k4c",
      "value": 1383676
    }
  ],
  "size": 223,
  "weight": 562,
  "fee": 2899,
  "status": {
    "confirmed": true,
    "block_height": 834638,
    "block_hash": "000000000000000000025f742c626208ac87e0b7d15054abb4a19ca2d735a54e",
    "block_time": 1710405325
  },
  "hex": "0100000000010190f2a4e76ab6a4b16606f9d917d0c1d6fbff0c216ded241c5df7e241d4b7fce1090000000080e3ffff0230980f0000000000160014a300b4484130a356bc53e9a1f94854fcd72a08e1fc1c150000000000160014b4f30102a43b30707538fcb70c8a52afcc339f1b02483045022100fc19d7a85b07370ef34de5e2528a63b9bb7df04af99beefe66c35275cda8534902204089c18b6926df6d32b726747855deac4db0836cede683b4d2e49e8b0aa9a776012102ea8aa709349db67d4ac7702886935e4712bf10cdaefc809d7ccaa1e2ef54552500000000"
}