{
  "txid": "3177a9c12c5b6c5fb8d8fd0a5e180afb28f40c107381fca2f9cfa85aa9d09875",
  "version": 2,
  "locktime": 0,
  "vin": [
    {
      "txid": "0d2155d5b40297d2bc05b2a5c8983d66a12ca436a15adf61426fb08535aee172",
      "vout": 1,
      "prevout": {
        "scriptpubkey": "5120dbbd5764c2ca67b7840535def7dab5af7ec80a56d35e0663768abe820e4de76e",
        "scriptpubkey_asm": "OP_PUSHNUM_1 OP_PUSHBYTES_32 dbbd5764c2ca67b7840535def7dab5af7ec80a56d35e0663768abe820e4de76e",
        "scriptpubkey_type": "v1_p2tr",
        "scriptpubkey_address": "bc1pmw74wexzefnm0pq9xh000k444alvszjk6d0qvcmk32lgyrjduahqqk3ykz",
        "value": 15630
      },
      "scriptsig": "",
      "scriptsig_asm": "",
      "witness": [
        "26afde6e85371c94bfd3cc952fc980d8264e50ef7de3e577f9c41ac6fa9656bfdd40ac8197bc0ca3143bd83e241053b8a5e34583f0f072dfc408e5c0447874e0"
      ],
      "is_coinbase": false,
      "sequence": 4294967295
    },
    {
      "txid": "24e267390dcc525b31562aba34cde236bb01bd6b9e797e34814162b06315b1a7",
      "vout": 4,
      "prevout": {
        "scriptpubkey": "5120dbbd5764c2ca67b7840535def7dab5af7ec80a56d35e0663768abe820e4de76e",
        "scriptpubkey_asm": "OP_PUSHNUM_1 OP_PUSHBYTES_32 dbbd5764c2ca67b7840535def7dab5af7ec80a56d35e0663768abe820e4de76e",
        "scriptpubkey_type": "v1_p2tr",
        "scriptpubkey_address": "bc1pmw74wexzefnm0pq9xh000k444alvszjk6d0qvcmk32lgyrjduahqqk3ykz",
        "value": 8768
      },
      "scriptsig": "",
      "scriptsig_asm": "",
      "witness": [
        "6eaa42cdbcdebed45f870e5280a8678f646b6d235d6995c302eb5a52ff25ea5d0b31af1453c444c35cca5b8124010ce8aa92d9c18ec67cc4f79731ec35ad9d3e"
      ],
      "is_coinbase": false,
      "sequence": 4294967295
    },
    {
      "txid": "149a844361dbf00cd16b9a49762878af854541b79abb6d6c20f91fc20c5a1727",
      "vout": 1,
      "prevout": {
        "scriptpubkey": "5120dbbd5764c2ca67b7840535def7dab5af7ec80a56d35e0663768abe820e4de76e",
        "scriptpubkey_asm": "OP_PUSHNUM_1 OP_PUSHBYTES_32 dbbd5764c2ca67b7840535def7dab5af7ec80a56d35e0663768abe820e4de76e",
        "scriptpubkey_type": "v1_p2tr",
        "scriptpubkey_address": "bc1pmw74wexzefnm0pq9xh000k444alvszjk6d0qvcmk32lgyrjduahqqk3ykz",
        "value": 2830
      },
      "scriptsig": "",
      "scriptsig_asm": "",
      "witness": [
        "b51ebc1769ed1bada9ab3172945324fb59fc01ab0d3da28f90a239cab92b16a6cfde02d229bd98d7c556a71b785da11dc498b2aa4fe1b7f3af86f8c66ad5e6a6"
      ],
      "is_coinbase": false,
      "sequence": 4294967295
    }
  ],
  "vout": [
    {
      "scriptpubkey": "5120d5520e6eabcff129d37837ab90dba713f40eaf24dbea9278ad830fecfc4ee1cf",
      "scriptpubkey_asm": "OP_PUSHNUM_1 OP_PUSHBYTES_32 d5520e6eabcff129d37837ab90dba713f40eaf24dbea9278ad830fecfc4ee1cf",
      "scriptpubkey_type": "v1_p2tr",
      "scriptpubkey_address": "bc1p64fqum4telcjn5mcx74epka8z06qateym04fy79dsv87elzwu88s89p53g",
      "value": 22499
    },
    {
      "scriptpubkey": "5120dbbd5764c2ca67b7840535def7dab5af7ec80a56d35e0663768abe820e4de76e",
      "scriptpubkey_asm": "OP_PUSHNUM_1 OP_PUSHBYTES_32 dbbd5764c2ca67b7840535def7dab5af7ec80a56d35e0663768abe820e4de76e",
      "scriptpubkey_type": "v1_p2tr",
      "scriptpubkey_address": "bc1pmw74wexzefnm0pq9xh000k444alvszjk6d0qvcmk32lgyrjduahqqk3ykz",
      "value": 963
    }
  ],
  "size": 419,
  "weight": 1076,
  "fee": 3766,
  "status": {
    "confirmed": true,
    "block_height": 834552,
    "block_hash": "00000000000000000001dd0468a70c94f619251d286585cff57aeb4bd9ede330",
    "block_time": 1710355598
  },
  "hex": "0200000000010372e1ae3585b06f4261df5aa136a42ca1663d98c8a5b205bcd29702b4d555210d0100000000ffffffffa7b11563b0624181347e799e6bbd01bb36e2cd34ba2a56315b52cc0d3967e2240400000000ffffffff27175a0cc21ff9206c6dbb9ab7414585af782876499a6bd10cf0db6143849a140100000000ffffffff02e357000000000000225120d5520e6eabcff129d37837ab90dba713f40eaf24dbea9278ad830fecfc4ee1cfc303000000000000225120dbbd5764c2ca67b7840535def7dab5af7ec80a56d35e0663768abe820e4de76e014026afde6e85371c94bfd3cc952fc980d8264e50ef7de3e577f9c41ac6fa9656bfdd40ac8197bc0ca3143bd83e241053b8a5e34583f0f072dfc408e5c0447874e001406eaa42cdbcdebed45f870e5280a8678f646b6d235d6995c302eb5a52ff25ea5d0b31af1453c444c35cca5b8124010ce8aa92d9c18ec67cc4f79731ec35ad9d3e0140b51ebc1769ed1bada9ab3172945324fb59fc01ab0d3da28f90a239cab92b16a6cfde02d229bd98d7c556a71b785da11dc498b2aa4fe1b7f3af86f8c66ad5e6a600000000"
}