{
  "txid": "3194b8eb6b2107062564ca40873f311d68119f75edd6b933e77c1f90bca84ee9",
  "version": 2,
  "locktime": 0,
  "vin": [
    {
      "txid": "7a8d650b504c407a83cc8ef4ed2d9a7a1f64d2c6c8fe068f852244f8c952be70",
      "vout": 10,
      "prevout": {
        "scriptpubkey": "0014b69b3f2f7242f384f15846912d27a79138c2be82",
        "scriptpubkey_asm": "OP_0 OP_PUSHBYTES_20 b69b3f2f7242f384f15846912d27a79138c2be82",
        "scriptpubkey_type": "v0_p2wpkh",
        "scriptpubkey_address": "bc1qk6dn7tmjgtecfu2cg6gj6fa8jyuv905zmexwa9",
        "value": 97687
      },
      "scriptsig": "",
      "scriptsig_asm": "",
      "witness": [
        "3044022042245d186acfff13e3c0acedf0b4313957ab7a0292d6328733f8d8d5967dbea40220345394464ba958e8d93ef3fc90463d21d472453bcb2d455e3da29efa12c16eb501",
        "03f4f35db7e657007f7aae95bc499984ffc1ba13d4bb1378540d330dda55981bd6"
      ],
      "is_coinbase": false,
      "sequence": 4294967293
    }
  ],
  "vout": [
    {
      "scriptpubkey": "76a91489e25ba8ca7a373ffc69d53004170ee2fae8e4db88ac",
      "scriptpubkey_asm": "OP_DUP OP_HASH160 OP_PUSHBYTES_20 89e25ba8ca7a373ffc69d53004170ee2fae8e4db OP_EQUALVERIFY OP_CHECKSIG",
      "scriptpubkey_type": "p2pkh",
      "scriptpubkey_address": "1Da4juyi4jq9SasSyq4aQbp3at53Sfrc4G",
      "value": 96021
    }
  ],
  "size": 194,
  "weight": 449,
  "fee": 1666,
  "status": {
    "confirmed": true,
    "block_height": 834460,
    "block_hash": "00000000000000000000484a79b643b2524bbce82e5d8a442013fa5b8905ed98",
    "block_time": 1710307468
  },
  "hex": "0200000000010170be52c9f84422858f06fec8c6d2641f7a9a2dedf48ecc837a404c500b658d7a0a00000000fdffffff0115770100000000001976a91489e25ba8ca7a373ffc69d53004170ee2fae8e4db88ac02473044022042245d186acfff13e3c0acedf0b4313957ab7a0292d6328733f8d8d5967dbea40220345394464ba958e8d93ef3fc90463d21d472453bcb2d455e3da29efa12c16eb5012103f4f35db7e657007f7aae95bc499984ffc1ba13d4bb1378540d330dda55981bd600000000"
}