{
  "txid": "319994c0c0d99da9b6ddcc471514327ed0569407fb952ed24a277f1d331a9810",
  "version": 2,
  "locktime": 0,
  "vin": [
    {
      "txid": "47a2b1767cbcd85c3e4afabf84367da5893db669751c146f6a9b0cf5e68a0566",
      "vout": 0,
      "prevout": {
        "scriptpubkey": "51200b222b56161edd5161b5d90fb5a1258bd1e20b9e47de475aee8f0ce155874df1",
        "scriptpubkey_asm": "OP_PUSHNUM_1 OP_PUSHBYTES_32 0b222b56161edd5161b5d90fb5a1258bd1e20b9e47de475aee8f0ce155874df1",
        "scriptpubkey_type": "v1_p2tr",
        "scriptpubkey_address": "bc1ppv3zk4skrmw4zcd4my8mtgf930g7yzu7gl0ywkhw3uxwz4v8fhcsd22aw4",
        "value": 3120000
      },
      "scriptsig": "",
      "scriptsig_asm": "",
      "witness": [
        "f60c83e47e4eeeccad11b30f6a0944523db4eafb4974bb824fa21b0178fda42276e4dd7d986f26db5906b03e13962e37b9097c624d58203423211ec67de49754"
      ],
      "is_coinbase": false,
      "sequence": 4294967295
    }
  ],
  "vout": [
    {
      "scriptpubkey": "51200b222b56161edd5161b5d90fb5a1258bd1e20b9e47de475aee8f0ce155874df1",
      "scriptpubkey_asm": "OP_PUSHNUM_1 OP_PUSHBYTES_32 0b222b56161edd5161b5d90fb5a1258bd1e20b9e47de475aee8f0ce155874df1",
      "scriptpubkey_type": "v1_p2tr",
      "scriptpubkey_address": "bc1ppv3zk4skrmw4zcd4my8mtgf930g7yzu7gl0ywkhw3uxwz4v8fhcsd22aw4",
      "value": 600
    },
    {
      "scriptpubkey": "51200b222b56161edd5161b5d90fb5a1258bd1e20b9e47de475aee8f0ce155874df1",
      "scriptpubkey_asm": "OP_PUSHNUM_1 OP_PUSHBYTES_32 0b222b56161edd5161b5d90fb5a1258bd1e20b9e47de475aee8f0ce155874df1",
      "scriptpubkey_type": "v1_p2tr",
      "scriptpubkey_address": "bc1ppv3zk4skrmw4zcd4my8mtgf930g7yzu7gl0ywkhw3uxwz4v8fhcsd22aw4",
      "value": 600
    },
    {
      "scriptpubkey": "51200b222b56161edd5161b5d90fb5a1258bd1e20b9e47de475aee8f0ce155874df1",
      "scriptpubkey_asm": "OP_PUSHNUM_1 OP_PUSHBYTES_32 0b222b56161edd5161b5d90fb5a1258bd1e20b9e47de475aee8f0ce155874df1",
      "scriptpubkey_type": "v1_p2tr",
      "scriptpubkey_address": "bc1ppv3zk4skrmw4zcd4my8mtgf930g7yzu7gl0ywkhw3uxwz4v8fhcsd22aw4",
      "value": 3116239
    }
  ],
  "size": 248,
  "weight": 788,
  "fee": 2561,
  "status": {
    "confirmed": true,
    "block_height": 834464,
    "block_hash": "0000000000000000000177a0869a911a2b65c9bdcd5a8bcb02b68f305bee848e",
    "block_time": 1710308296
  },
  "hex": "0200000000010166058ae6f50c9b6a6f141c7569b63d89a57d3684bffa4a3e5cd8bc7c76b1a2470000000000ffffffff0358020000000000002251200b222b56161edd5161b5d90fb5a1258bd1e20b9e47de475aee8f0ce155874df158020000000000002251200b222b56161edd5161b5d90fb5a1258bd1e20b9e47de475aee8f0ce155874df1cf8c2f00000000002251200b222b56161edd5161b5d90fb5a1258bd1e20b9e47de475aee8f0ce155874df10140f60c83e47e4eeeccad11b30f6a0944523db4eafb4974bb824fa21b0178fda42276e4dd7d986f26db5906b03e13962e37b9097c624d58203423211ec67de4975400000000"
}