{
  "txid": "319ab99f5daa2548652043db0a2e53198ebc29b80aae4b0b88e1ebbdf4cdab7c",
  "version": 1,
  "locktime": 0,
  "vin": [
    {
      "txid": "dc9e10718d8c43c8be021aa2a5c787ceb7f79fc4d439a6e521667f318b5486f7",
      "vout": 1,
      "prevout": {
        "scriptpubkey": "0014d85ac114f5d91c454276231ed0c0ff8330993e13",
        "scriptpubkey_asm": "OP_0 OP_PUSHBYTES_20 d85ac114f5d91c454276231ed0c0ff8330993e13",
        "scriptpubkey_type": "v0_p2wpkh",
        "scriptpubkey_address": "bc1qmpdvz984mywy2snkyv0dps8lsvcfj0snk2d4lu",
        "value": 481720
      },
      "scriptsig": "",
      "scriptsig_asm": "",
      "witness": [
        "304402205a43365eb2d7fe360c55f5ca96a2d506fac331963f40b8ef6821747809e6effe0220529522cd4c3c8cf0a48f6a64581db0cdc5ec0921c9ecbf9242c5c38f553db84d01",
        "025c2001e3a50a4570ec6ac07bdf539b2d6bf0db5f7b12fb8bba4a84ad2f1959a1"
      ],
      "is_coinbase": false,
      "sequence": 4294967295
    }
  ],
  "vout": [
    {
      "scriptpubkey": "a914e5c54150303859206b9fffa4f3cb6d00492c290587",
      "scriptpubkey_asm": "OP_HASH160 OP_PUSHBYTES_20 e5c54150303859206b9fffa4f3cb6d00492c2905 OP_EQUAL",
      "scriptpubkey_type": "p2sh",
      "scriptpubkey_address": "3NdvxzvxQdi6vDSwJeWHexM7GQgTZDoe1M",
      "value": 81796
    },
    {
      "scriptpubkey": "0014914259730ea8f99993dafd9ba7ef4cdda0b0fd28",
      "scriptpubkey_asm": "OP_0 OP_PUSHBYTES_20 914259730ea8f99993dafd9ba7ef4cdda0b0fd28",
      "scriptpubkey_type": "v0_p2wpkh",
      "scriptpubkey_address": "bc1qj9p9jucw4rueny76lkd60m6vmkstplfg0suzfy",
      "value": 396516
    }
  ],
  "size": 223,
  "weight": 565,
  "fee": 3408,
  "status": {
    "confirmed": true,
    "block_height": 834638,
    "block_hash": "000000000000000000025f742c626208ac87e0b7d15054abb4a19ca2d735a54e",
    "block_time": 1710405325
  },
  "hex": "01000000000101f786548b317f6621e5a639d4c49ff7b7ce87c7a5a21a02bec8438c8d71109edc0100000000ffffffff02843f01000000000017a914e5c54150303859206b9fffa4f3cb6d00492c290587e40c060000000000160014914259730ea8f99993dafd9ba7ef4cdda0b0fd280247304402205a43365eb2d7fe360c55f5ca96a2d506fac331963f40b8ef6821747809e6effe0220529522cd4c3c8cf0a48f6a64581db0cdc5ec0921c9ecbf9242c5c38f553db84d0121025c2001e3a50a4570ec6ac07bdf539b2d6bf0db5f7b12fb8bba4a84ad2f1959a100000000"
}