{
  "txid": "319c346f1375204e421bff10a2de0d37adee62634b2fa6dc046714f14c08260f",
  "version": 1,
  "locktime": 0,
  "vin": [
    {
      "txid": "4699f5e8d11a06e44034aa061f8696136ea5d2ebba6afdc7cd385497652a60ee",
      "vout": 1,
      "prevout": {
        "scriptpubkey": "0014f88fb493f995c9e079e12fd511cc68a0949d007c",
        "scriptpubkey_asm": "OP_0 OP_PUSHBYTES_20 f88fb493f995c9e079e12fd511cc68a0949d007c",
        "scriptpubkey_type": "v0_p2wpkh",
        "scriptpubkey_address": "bc1qlz8mfylejhy7q70p9l23rnrg5z2f6qru5yudvk",
        "value": 271526
      },
      "scriptsig": "",
      "scriptsig_asm": "",
      "witness": [
        "3045022100ae1f7396be3bcad4690df7376dddbe19b4d5fc685183f8945e7bf79624894c38022046147894790398c910de43838e48302f1fa1b6c55e2add9706c2cc00214fc6b201",
        "02254556dd55fbe5e42fc042577f343736abff6137f9650896969894059eef533e"
      ],
      "is_coinbase": false,
      "sequence": 4294967295
    }
  ],
  "vout": [
    {
      "scriptpubkey": "a91486380af33e7128f67afa586d5e1a99c0057b33c387",
      "scriptpubkey_asm": "OP_HASH160 OP_PUSHBYTES_20 86380af33e7128f67afa586d5e1a99c0057b33c3 OP_EQUAL",
      "scriptpubkey_type": "p2sh",
      "scriptpubkey_address": "3DvhcAmaRMMEDxHBq3agLJ7EBeStuBDVRu",
      "value": 265005
    },
    {
      "scriptpubkey": "001422b2dbfa73c3282b60f1c69347956c526e155dbc",
      "scriptpubkey_asm": "OP_0 OP_PUSHBYTES_20 22b2dbfa73c3282b60f1c69347956c526e155dbc",
      "scriptpubkey_type": "v0_p2wpkh",
      "scriptpubkey_address": "bc1qy2edh7nncv5zkc83c6f509tv2fhp2hdux2p9lm",
      "value": 2861
    }
  ],
  "size": 224,
  "weight": 566,
  "fee": 3660,
  "status": {
    "confirmed": true,
    "block_height": 834638,
    "block_hash": "000000000000000000025f742c626208ac87e0b7d15054abb4a19ca2d735a54e",
    "block_time": 1710405325
  },
  "hex": "01000000000101ee602a65975438cdc7fd6abaebd2a56e1396861f06aa3440e4061ad1e8f599460100000000ffffffff022d0b04000000000017a91486380af33e7128f67afa586d5e1a99c0057b33c3872d0b00000000000016001422b2dbfa73c3282b60f1c69347956c526e155dbc02483045022100ae1f7396be3bcad4690df7376dddbe19b4d5fc685183f8945e7bf79624894c38022046147894790398c910de43838e48302f1fa1b6c55e2add9706c2cc00214fc6b2012102254556dd55fbe5e42fc042577f343736abff6137f9650896969894059eef533e00000000"
}