{
  "txid": "31afb5dcf0bc8037c08ac71e75276839a31df12f7cd57abed2f8d1b079bc762a",
  "version": 2,
  "locktime": 0,
  "vin": [
    {
      "txid": "acc3ba00869acb582a3f2904ce3a11dd3779350ce234063fc7d0959246213364",
      "vout": 285,
      "prevout": {
        "scriptpubkey": "51204ab2116b6d8c368f679eb49077fca6d62fad2ed8662da57b4a238e6f04bb9931",
        "scriptpubkey_asm": "OP_PUSHNUM_1 OP_PUSHBYTES_32 4ab2116b6d8c368f679eb49077fca6d62fad2ed8662da57b4a238e6f04bb9931",
        "scriptpubkey_type": "v1_p2tr",
        "scriptpubkey_address": "bc1pf2epz6md3smg7eu7kjg80l9x6ch66tkcvck62762yw8x7p9mnycswvpw5g",
        "value": 1806
      },
      "scriptsig": "",
      "scriptsig_asm": "",
      "witness": [
        "4afebe3262052bfeec5bc89a2d5655fbf635ddb74c0e9886fa2919a22637d59613d556da62fa196d5110c57d326940fec58058070d1eb71dbbdbd6065eaf246c",
        "204bc97109a00943b8005e0a20cd1ad5fd9ebee9aea12f462227135f661c985a02ac0063036f726401010a746578742f706c61696e00357b2270223a226272632d3230222c226f70223a226d696e74222c227469636b223a22646f6765222c22616d74223a2234323030227d68",
        "c04bc97109a00943b8005e0a20cd1ad5fd9ebee9aea12f462227135f661c985a02"
      ],
      "is_coinbase": false,
      "sequence": 4261412863
    }
  ],
  "vout": [
    {
      "scriptpubkey": "00147a665de7a370f4c9b372ab1fae587500a5bcbdb4",
      "scriptpubkey_asm": "OP_0 OP_PUSHBYTES_20 7a665de7a370f4c9b372ab1fae587500a5bcbdb4",
      "scriptpubkey_type": "v0_p2wpkh",
      "scriptpubkey_address": "bc1q0fn9mearwr6vnvmj4v06ukr4qzjme0d565dzcx",
      "value": 294
    }
  ],
  "size": 294,
  "weight": 540,
  "fee": 1512,
  "status": {
    "confirmed": true,
    "block_height": 834460,
    "block_hash": "00000000000000000000484a79b643b2524bbce82e5d8a442013fa5b8905ed98",
    "block_time": 1710307468
  },
  "hex": "02000000000101643321469295d0c73f0634e20c357937dd113ace04293f2a58cb9a8600bac3ac1d01000000fffffffd0126010000000000001600147a665de7a370f4c9b372ab1fae587500a5bcbdb403404afebe3262052bfeec5bc89a2d5655fbf635ddb74c0e9886fa2919a22637d59613d556da62fa196d5110c57d326940fec58058070d1eb71dbbdbd6065eaf246c6d204bc97109a00943b8005e0a20cd1ad5fd9ebee9aea12f462227135f661c985a02ac0063036f726401010a746578742f706c61696e00357b2270223a226272632d3230222c226f70223a226d696e74222c227469636b223a22646f6765222c22616d74223a2234323030227d6821c04bc97109a00943b8005e0a20cd1ad5fd9ebee9aea12f462227135f661c985a0200000000"
}