{
  "txid": "31b5aaebf0a1ec18f0431b7e5245ade279cec5a41971176dbe04af4322f2f8a2",
  "version": 2,
  "locktime": 834414,
  "vin": [
    {
      "txid": "9d864c438da0cceb99bd0909147ac60ca259aa364f1d25537861a6eea176a532",
      "vout": 1,
      "prevout": {
        "scriptpubkey": "00145300400a3702b094fc0f554e199e87e09c7c4d03",
        "scriptpubkey_asm": "OP_0 OP_PUSHBYTES_20 5300400a3702b094fc0f554e199e87e09c7c4d03",
        "scriptpubkey_type": "v0_p2wpkh",
        "scriptpubkey_address": "bc1q2vqyqz3hq2cfflq0248pn858uzw8cngr6khm9l",
        "value": 2228800
      },
      "scriptsig": "",
      "scriptsig_asm": "",
      "witness": [
        "3044022076f2c8895ce663011b8b9057043e1f36bb150f3dd3478563fde524ad334f4ae30220615fd3ab73680474d45cb710961a3f33437b81f8171143dc9126d158f2a815dc01",
        "023d8b6322635b35745bae7127f0d74cf4a9a618c2bd4bc2c71d1b217f032f526d"
      ],
      "is_coinbase": false,
      "sequence": 4294967293
    }
  ],
  "vout": [
    {
      "scriptpubkey": "001477ff2fcaf4032d06305f0ee58e956075210eac5a",
      "scriptpubkey_asm": "OP_0 OP_PUSHBYTES_20 77ff2fcaf4032d06305f0ee58e956075210eac5a",
      "scriptpubkey_type": "v0_p2wpkh",
      "scriptpubkey_address": "bc1qwlljljh5qvksvvzlpmjca9tqw5ssatz6st9es5",
      "value": 2227590
    }
  ],
  "size": 191,
  "weight": 437,
  "fee": 1210,
  "status": {
    "confirmed": true,
    "block_height": 834464,
    "block_hash": "0000000000000000000177a0869a911a2b65c9bdcd5a8bcb02b68f305bee848e",
    "block_time": 1710308296
  },
  "hex": "0200000000010132a576a1eea6617853251d4f36aa59a20cc67a140909bd99ebcca08d434c869d0100000000fdffffff0186fd21000000000016001477ff2fcaf4032d06305f0ee58e956075210eac5a02473044022076f2c8895ce663011b8b9057043e1f36bb150f3dd3478563fde524ad334f4ae30220615fd3ab73680474d45cb710961a3f33437b81f8171143dc9126d158f2a815dc0121023d8b6322635b35745bae7127f0d74cf4a9a618c2bd4bc2c71d1b217f032f526d6ebb0c00"
}