{
  "txid": "31b53adf45df09216fd8765a0838f9a30d6edb2974274c8c7c8af78115f2de48",
  "version": 2,
  "locktime": 0,
  "vin": [
    {
      "txid": "bda1be119c7963fd80e10ce89aea5cc7e9fb1451ac6848f197f8d22ea2933a02",
      "vout": 0,
      "prevout": {
        "scriptpubkey": "5120757927b003646eaa9a78bb6747e40182a39f3fbfd228c473324d13da6d748ff3",
        "scriptpubkey_asm": "OP_PUSHNUM_1 OP_PUSHBYTES_32 757927b003646eaa9a78bb6747e40182a39f3fbfd228c473324d13da6d748ff3",
        "scriptpubkey_type": "v1_p2tr",
        "scriptpubkey_address": "bc1pw4uj0vqrv3h24xnchdn50eqps23e70al6g5vguejf5fa5mt53lesrnnl3u",
        "value": 600
      },
      "scriptsig": "",
      "scriptsig_asm": "",
      "witness": [
        "ffeaa191971f2c7b3e8b699ace6c4b500d04c4a1650995039aef9ca206ac8ebc2e591d75cb1791c26ea9beaba9ab5b1f4e4f186d1b8457fcd854e30001708db9"
      ],
      "is_coinbase": false,
      "sequence": 4294967295
    },
    {
      "txid": "bda1be119c7963fd80e10ce89aea5cc7e9fb1451ac6848f197f8d22ea2933a02",
      "vout": 1,
      "prevout": {
        "scriptpubkey": "5120757927b003646eaa9a78bb6747e40182a39f3fbfd228c473324d13da6d748ff3",
        "scriptpubkey_asm": "OP_PUSHNUM_1 OP_PUSHBYTES_32 757927b003646eaa9a78bb6747e40182a39f3fbfd228c473324d13da6d748ff3",
        "scriptpubkey_type": "v1_p2tr",
        "scriptpubkey_address": "bc1pw4uj0vqrv3h24xnchdn50eqps23e70al6g5vguejf5fa5mt53lesrnnl3u",
        "value": 600
      },
      "scriptsig": "",
      "scriptsig_asm": "",
      "witness": [
        "f4e08701d92b06627e7d797161a643fb30b11c7355defd75b6278a51ee39d54e28920c45ad402280b256cb425ec5a6b8d1837cd0b7124a4b922936b97a739630"
      ],
      "is_coinbase": false,
      "sequence": 4294967295
    },
    {
      "txid": "5cfbca0448fa77fdeb4c0a79347f9952d79240278a6f1593489f44f89b66918e",
      "vout": 1,
      "prevout": {
        "scriptpubkey": "5120d2130228f12d50445b3cd2c00479f3ce1bd508f5c287c63338163c7fd3089a58",
        "scriptpubkey_asm": "OP_PUSHNUM_1 OP_PUSHBYTES_32 d2130228f12d50445b3cd2c00479f3ce1bd508f5c287c63338163c7fd3089a58",
        "scriptpubkey_type": "v1_p2tr",
        "scriptpubkey_address": "bc1p6gfsy28394gygkeu6tqqg70necda2z84c2ruvveczc78l5cgnfvq2wgh8e",
        "value": 546
      },
      "scriptsig": "",
      "scriptsig_asm": "",
      "witness": [
        "ed126d62bfcc7b9cd689dc2647bf3259d73ede3a0e3c97aa81cbbcec8682d77b1ea0cffefd2975a78713c0cde71351a801b9f194d5e4f7da11c5d8d90cd0c72f83"
      ],
      "is_coinbase": false,
      "sequence": 4294967295
    },
    {
      "txid": "bda1be119c7963fd80e10ce89aea5cc7e9fb1451ac6848f197f8d22ea2933a02",
      "vout": 2,
      "prevout": {
        "scriptpubkey": "5120757927b003646eaa9a78bb6747e40182a39f3fbfd228c473324d13da6d748ff3",
        "scriptpubkey_asm": "OP_PUSHNUM_1 OP_PUSHBYTES_32 757927b003646eaa9a78bb6747e40182a39f3fbfd228c473324d13da6d748ff3",
        "scriptpubkey_type": "v1_p2tr",
        "scriptpubkey_address": "bc1pw4uj0vqrv3h24xnchdn50eqps23e70al6g5vguejf5fa5mt53lesrnnl3u",
        "value": 325845
      },
      "scriptsig": "",
      "scriptsig_asm": "",
      "witness": [
        "23a57eeee6afba60a9f11f2ee974691330b91141a65b88acd756f4317c332749f7168b26ef9a8abc097e9874730c63d39bf8bdfc45932488d1f1fcc1a8ebcf4f"
      ],
      "is_coinbase": false,
      "sequence": 4294967295
    }
  ],
  "vout": [
    {
      "scriptpubkey": "5120757927b003646eaa9a78bb6747e40182a39f3fbfd228c473324d13da6d748ff3",
      "scriptpubkey_asm": "OP_PUSHNUM_1 OP_PUSHBYTES_32 757927b003646eaa9a78bb6747e40182a39f3fbfd228c473324d13da6d748ff3",
      "scriptpubkey_type": "v1_p2tr",
      "scriptpubkey_address": "bc1pw4uj0vqrv3h24xnchdn50eqps23e70al6g5vguejf5fa5mt53lesrnnl3u",
      "value": 1200
    },
    {
      "scriptpubkey": "5120757927b003646eaa9a78bb6747e40182a39f3fbfd228c473324d13da6d748ff3",
      "scriptpubkey_asm": "OP_PUSHNUM_1 OP_PUSHBYTES_32 757927b003646eaa9a78bb6747e40182a39f3fbfd228c473324d13da6d748ff3",
      "scriptpubkey_type": "v1_p2tr",
      "scriptpubkey_address": "bc1pw4uj0vqrv3h24xnchdn50eqps23e70al6g5vguejf5fa5mt53lesrnnl3u",
      "value": 546
    },
    {
      "scriptpubkey": "5120d2130228f12d50445b3cd2c00479f3ce1bd508f5c287c63338163c7fd3089a58",
      "scriptpubkey_asm": "OP_PUSHNUM_1 OP_PUSHBYTES_32 d2130228f12d50445b3cd2c00479f3ce1bd508f5c287c63338163c7fd3089a58",
      "scriptpubkey_type": "v1_p2tr",
      "scriptpubkey_address": "bc1p6gfsy28394gygkeu6tqqg70necda2z84c2ruvveczc78l5cgnfvq2wgh8e",
      "value": 231000
    },
    {
      "scriptpubkey": "5120757927b003646eaa9a78bb6747e40182a39f3fbfd228c473324d13da6d748ff3",
      "scriptpubkey_asm": "OP_PUSHNUM_1 OP_PUSHBYTES_32 757927b003646eaa9a78bb6747e40182a39f3fbfd228c473324d13da6d748ff3",
      "scriptpubkey_type": "v1_p2tr",
      "scriptpubkey_address": "bc1pw4uj0vqrv3h24xnchdn50eqps23e70al6g5vguejf5fa5mt53lesrnnl3u",
      "value": 600
    },
    {
      "scriptpubkey": "5120757927b003646eaa9a78bb6747e40182a39f3fbfd228c473324d13da6d748ff3",
      "scriptpubkey_asm": "OP_PUSHNUM_1 OP_PUSHBYTES_32 757927b003646eaa9a78bb6747e40182a39f3fbfd228c473324d13da6d748ff3",
      "scriptpubkey_type": "v1_p2tr",
      "scriptpubkey_address": "bc1pw4uj0vqrv3h24xnchdn50eqps23e70al6g5vguejf5fa5mt53lesrnnl3u",
      "value": 600
    },
    {
      "scriptpubkey": "5120757927b003646eaa9a78bb6747e40182a39f3fbfd228c473324d13da6d748ff3",
      "scriptpubkey_asm": "OP_PUSHNUM_1 OP_PUSHBYTES_32 757927b003646eaa9a78bb6747e40182a39f3fbfd228c473324d13da6d748ff3",
      "scriptpubkey_type": "v1_p2tr",
      "scriptpubkey_address": "bc1pw4uj0vqrv3h24xnchdn50eqps23e70al6g5vguejf5fa5mt53lesrnnl3u",
      "value": 86160
    }
  ],
  "size": 699,
  "weight": 1995,
  "fee": 7485,
  "status": {
    "confirmed": true,
    "block_height": 834460,
    "block_hash": "00000000000000000000484a79b643b2524bbce82e5d8a442013fa5b8905ed98",
    "block_time": 1710307468
  },
  "hex": "02000000000104023a93a22ed2f897f14868ac5114fbe9c75cea9ae80ce180fd63799c11bea1bd0000000000ffffffff023a93a22ed2f897f14868ac5114fbe9c75cea9ae80ce180fd63799c11bea1bd0100000000ffffffff8e91669bf8449f4893156f8a274092d752997f34790a4cebfd77fa4804cafb5c0100000000ffffffff023a93a22ed2f897f14868ac5114fbe9c75cea9ae80ce180fd63799c11bea1bd0200000000ffffffff06b004000000000000225120757927b003646eaa9a78bb6747e40182a39f3fbfd228c473324d13da6d748ff32202000000000000225120757927b003646eaa9a78bb6747e40182a39f3fbfd228c473324d13da6d748ff35886030000000000225120d2130228f12d50445b3cd2c00479f3ce1bd508f5c287c63338163c7fd3089a585802000000000000225120757927b003646eaa9a78bb6747e40182a39f3fbfd228c473324d13da6d748ff35802000000000000225120757927b003646eaa9a78bb6747e40182a39f3fbfd228c473324d13da6d748ff39050010000000000225120757927b003646eaa9a78bb6747e40182a39f3fbfd228c473324d13da6d748ff30140ffeaa191971f2c7b3e8b699ace6c4b500d04c4a1650995039aef9ca206ac8ebc2e591d75cb1791c26ea9beaba9ab5b1f4e4f186d1b8457fcd854e30001708db90140f4e08701d92b06627e7d797161a643fb30b11c7355defd75b6278a51ee39d54e28920c45ad402280b256cb425ec5a6b8d1837cd0b7124a4b922936b97a7396300141ed126d62bfcc7b9cd689dc2647bf3259d73ede3a0e3c97aa81cbbcec8682d77b1ea0cffefd2975a78713c0cde71351a801b9f194d5e4f7da11c5d8d90cd0c72f83014023a57eeee6afba60a9f11f2ee974691330b91141a65b88acd756f4317c332749f7168b26ef9a8abc097e9874730c63d39bf8bdfc45932488d1f1fcc1a8ebcf4f00000000"
}