{
  "txid": "31b80f8160396bb957223856d0bee2bdf03eb24245729bfeea0350a7d54cedd6",
  "version": 1,
  "locktime": 0,
  "vin": [
    {
      "txid": "971c2ac93fb5ba04baf18e36d94a8510104eb2b59671b5416f839fa1e4f09227",
      "vout": 59,
      "prevout": {
        "scriptpubkey": "00209ebe8b2b0d384d6f7206a63b271b451b3f61a5c1d844317523a55ea15e54f59b",
        "scriptpubkey_asm": "OP_0 OP_PUSHBYTES_32 9ebe8b2b0d384d6f7206a63b271b451b3f61a5c1d844317523a55ea15e54f59b",
        "scriptpubkey_type": "v0_p2wsh",
        "scriptpubkey_address": "bc1qn6lgk2cd8pxk7usx5cajwx69rvlkrfwpmpzrzafr5402zhj57kdsjqxf2r",
        "value": 1358892
      },
      "scriptsig": "",
      "scriptsig_asm": "",
      "witness": [
        "",
        "3044022050714736f28f9efbe91ad4adc7ef9fc35b7662a82d1dd8985d85de94852a1961022043bb64c142a7d56cd64bf9011c2a0c421120e2e211085467c76e585dde4d820f01",
        "3045022100e1adc1304db62ce8fd53f44f01d2571889d5595caabe0a6de64efec7c919926b02203e0e2a81fe997d8c4f17210e4523a63bf26b5ad352f63711f5cc8b5a25ba9a5c01",
        "522103b6c00ccc6aec13a4521c4bd39637f59ca959c0cd0d556d396be11f9e4f0fc4042103acb7b460f97ac612fe3f2acf67e1bb59eb80eab3ed48606f7d8b01a2308f080052ae"
      ],
      "is_coinbase": false,
      "sequence": 4294967295,
      "inner_witnessscript_asm": "OP_PUSHNUM_2 OP_PUSHBYTES_33 03b6c00ccc6aec13a4521c4bd39637f59ca959c0cd0d556d396be11f9e4f0fc404 OP_PUSHBYTES_33 03acb7b460f97ac612fe3f2acf67e1bb59eb80eab3ed48606f7d8b01a2308f0800 OP_PUSHNUM_2 OP_CHECKMULTISIG"
    },
    {
      "txid": "71a62c366831b06ed3c19a3865256e7d4d5bd54f5f649b120c5a7eca62649dce",
      "vout": 87,
      "prevout": {
        "scriptpubkey": "00209ebe8b2b0d384d6f7206a63b271b451b3f61a5c1d844317523a55ea15e54f59b",
        "scriptpubkey_asm": "OP_0 OP_PUSHBYTES_32 9ebe8b2b0d384d6f7206a63b271b451b3f61a5c1d844317523a55ea15e54f59b",
        "scriptpubkey_type": "v0_p2wsh",
        "scriptpubkey_address": "bc1qn6lgk2cd8pxk7usx5cajwx69rvlkrfwpmpzrzafr5402zhj57kdsjqxf2r",
        "value": 8312
      },
      "scriptsig": "",
      "scriptsig_asm": "",
      "witness": [
        "",
        "3044022029d0741207ea3f9e8a47cbbf53d8cf5f6db4ce2bca90b4cb077fe31101212d680220132fb6c7b944eaabc0b4f319d2f06d42f8b5012bef74f7f82f4a1e0185ea3cfd01",
        "304402205b07ecca5c6d57b7a905aa2187b30599b2129bad29d22eec3b73e41404fbbc6502205c70c498532bc740ef39f6acd05a81e3d37ecafe2a745a0364002578fcca4d4401",
        "522103b6c00ccc6aec13a4521c4bd39637f59ca959c0cd0d556d396be11f9e4f0fc4042103acb7b460f97ac612fe3f2acf67e1bb59eb80eab3ed48606f7d8b01a2308f080052ae"
      ],
      "is_coinbase": false,
      "sequence": 4294967295,
      "inner_witnessscript_asm": "OP_PUSHNUM_2 OP_PUSHBYTES_33 03b6c00ccc6aec13a4521c4bd39637f59ca959c0cd0d556d396be11f9e4f0fc404 OP_PUSHBYTES_33 03acb7b460f97ac612fe3f2acf67e1bb59eb80eab3ed48606f7d8b01a2308f0800 OP_PUSHNUM_2 OP_CHECKMULTISIG"
    }
  ],
  "vout": [
    {
      "scriptpubkey": "76a914e962a4d16e3091e092c94c416e8bddeddb6096e988ac",
      "scriptpubkey_asm": "OP_DUP OP_HASH160 OP_PUSHBYTES_20 e962a4d16e3091e092c94c416e8bddeddb6096e9 OP_EQUALVERIFY OP_CHECKSIG",
      "scriptpubkey_type": "p2pkh",
      "scriptpubkey_address": "1NH2cbBRDimbZ4uR6JHDKUDv3jXkwHpkgp",
      "value": 1362793
    }
  ],
  "size": 565,
  "weight": 943,
  "fee": 4411,
  "status": {
    "confirmed": true,
    "block_height": 834638,
    "block_hash": "000000000000000000025f742c626208ac87e0b7d15054abb4a19ca2d735a54e",
    "block_time": 1710405325
  },
  "hex": "010000000001022792f0e4a19f836f41b57196b5b24e1010854ad9368ef1ba04bab53fc92a1c973b00000000ffffffffce9d6462ca7e5a0c129b645f4fd55b4d7d6e2565389ac1d36eb03168362ca6715700000000ffffffff0169cb1400000000001976a914e962a4d16e3091e092c94c416e8bddeddb6096e988ac0400473044022050714736f28f9efbe91ad4adc7ef9fc35b7662a82d1dd8985d85de94852a1961022043bb64c142a7d56cd64bf9011c2a0c421120e2e211085467c76e585dde4d820f01483045022100e1adc1304db62ce8fd53f44f01d2571889d5595caabe0a6de64efec7c919926b02203e0e2a81fe997d8c4f17210e4523a63bf26b5ad352f63711f5cc8b5a25ba9a5c0147522103b6c00ccc6aec13a4521c4bd39637f59ca959c0cd0d556d396be11f9e4f0fc4042103acb7b460f97ac612fe3f2acf67e1bb59eb80eab3ed48606f7d8b01a2308f080052ae0400473044022029d0741207ea3f9e8a47cbbf53d8cf5f6db4ce2bca90b4cb077fe31101212d680220132fb6c7b944eaabc0b4f319d2f06d42f8b5012bef74f7f82f4a1e0185ea3cfd0147304402205b07ecca5c6d57b7a905aa2187b30599b2129bad29d22eec3b73e41404fbbc6502205c70c498532bc740ef39f6acd05a81e3d37ecafe2a745a0364002578fcca4d440147522103b6c00ccc6aec13a4521c4bd39637f59ca959c0cd0d556d396be11f9e4f0fc4042103acb7b460f97ac612fe3f2acf67e1bb59eb80eab3ed48606f7d8b01a2308f080052ae00000000"
}