{
  "txid": "31da124d841a44a0b84ca12cc05a2651588cda0b92534d75c9bc12d3b79ce3ad",
  "version": 1,
  "locktime": 0,
  "vin": [
    {
      "txid": "e122e0e327077c42417dda988befaabd54d11706eefa1f4247a0da77c68390b4",
      "vout": 0,
      "prevout": {
        "scriptpubkey": "00141642eda69e756e3988526769a561d7da174a15bd",
        "scriptpubkey_asm": "OP_0 OP_PUSHBYTES_20 1642eda69e756e3988526769a561d7da174a15bd",
        "scriptpubkey_type": "v0_p2wpkh",
        "scriptpubkey_address": "bc1qzepwmf57w4hrnzzjva562cwhmgt559daj2u62s",
        "value": 296711044
      },
      "scriptsig": "",
      "scriptsig_asm": "",
      "witness": [
        "30430220404132bdb121d39c30c29576931880b9fae2f509df1a2785aef82517455fe029021f777bf2ce59c9efbaad862b7e92e504f4f1b7ab0c8f3b51e1c782eee288a4c801",
        "035d9f8ef32a71dc47bf4445d5dca54b562e7c72b106db3cdbe538add4ed6aca09"
      ],
      "is_coinbase": false,
      "sequence": 4294967295
    },
    {
      "txid": "4067a772c7d90f8e17fb312459b1e30ac703eeb79105c64b0f99c79341296942",
      "vout": 0,
      "prevout": {
        "scriptpubkey": "00141642eda69e756e3988526769a561d7da174a15bd",
        "scriptpubkey_asm": "OP_0 OP_PUSHBYTES_20 1642eda69e756e3988526769a561d7da174a15bd",
        "scriptpubkey_type": "v0_p2wpkh",
        "scriptpubkey_address": "bc1qzepwmf57w4hrnzzjva562cwhmgt559daj2u62s",
        "value": 131506887
      },
      "scriptsig": "",
      "scriptsig_asm": "",
      "witness": [
        "3045022100a4bec8c30a2f53b9f7b5d8c95455e70c653217ef2a0dc63b071ce3db57e3467502201faf82caed72ad23a563c7a3848c04a2b7c38b2098db8b55d5969a09d26bf08201",
        "035d9f8ef32a71dc47bf4445d5dca54b562e7c72b106db3cdbe538add4ed6aca09"
      ],
      "is_coinbase": false,
      "sequence": 4294967295
    },
    {
      "txid": "a05e84a419db5221b7c612b2e732ffea114c6df3c3c403e0dddb077d03052919",
      "vout": 0,
      "prevout": {
        "scriptpubkey": "0014653028ddeb420a110d7ad27df0b5652a2288f642",
        "scriptpubkey_asm": "OP_0 OP_PUSHBYTES_20 653028ddeb420a110d7ad27df0b5652a2288f642",
        "scriptpubkey_type": "v0_p2wpkh",
        "scriptpubkey_address": "bc1qv5cz3h0tgg9pzrt66f7lpdt99g3g3ajzatdrcr",
        "value": 250000000
      },
      "scriptsig": "",
      "scriptsig_asm": "",
      "witness": [
        "3045022100ddccd9a94b257b0d5e883d471426f67c53233523628121541a30c448b62f6e8302204f26d7b310a22a356d6271e6a406fcace87817a1fb889e703888238e8f35b12501",
        "020b3f3482ea8e80dd552a54d4cc79f5afdd49b62465ed1a4f66caf2b41bd22281"
      ],
      "is_coinbase": false,
      "sequence": 4294967295
    }
  ],
  "vout": [
    {
      "scriptpubkey": "0014d430aba03110b06f8c6ed216f470b47b8aa28afa",
      "scriptpubkey_asm": "OP_0 OP_PUSHBYTES_20 d430aba03110b06f8c6ed216f470b47b8aa28afa",
      "scriptpubkey_type": "v0_p2wpkh",
      "scriptpubkey_address": "bc1q6sc2hgp3zzcxlrrw6gt0gu950w929zh640x266",
      "value": 500000000
    },
    {
      "scriptpubkey": "0014653028ddeb420a110d7ad27df0b5652a2288f642",
      "scriptpubkey_asm": "OP_0 OP_PUSHBYTES_20 653028ddeb420a110d7ad27df0b5652a2288f642",
      "scriptpubkey_type": "v0_p2wpkh",
      "scriptpubkey_address": "bc1qv5cz3h0tgg9pzrt66f7lpdt99g3g3ajzatdrcr",
      "value": 178213277
    }
  ],
  "size": 519,
  "weight": 1104,
  "fee": 4654,
  "status": {
    "confirmed": true,
    "block_height": 834638,
    "block_hash": "000000000000000000025f742c626208ac87e0b7d15054abb4a19ca2d735a54e",
    "block_time": 1710405325
  },
  "hex": "01000000000103b49083c677daa047421ffaee0617d154bdaaef8b98da7d41427c0727e3e022e10000000000ffffffff4269294193c7990f4bc60591b7ee03c70ae3b1592431fb178e0fd9c772a767400000000000ffffffff192905037d07dbdde003c4c3f36d4c11eaff32e7b212c6b72152db19a4845ea00000000000ffffffff020065cd1d00000000160014d430aba03110b06f8c6ed216f470b47b8aa28afa9d519f0a00000000160014653028ddeb420a110d7ad27df0b5652a2288f642024630430220404132bdb121d39c30c29576931880b9fae2f509df1a2785aef82517455fe029021f777bf2ce59c9efbaad862b7e92e504f4f1b7ab0c8f3b51e1c782eee288a4c80121035d9f8ef32a71dc47bf4445d5dca54b562e7c72b106db3cdbe538add4ed6aca0902483045022100a4bec8c30a2f53b9f7b5d8c95455e70c653217ef2a0dc63b071ce3db57e3467502201faf82caed72ad23a563c7a3848c04a2b7c38b2098db8b55d5969a09d26bf0820121035d9f8ef32a71dc47bf4445d5dca54b562e7c72b106db3cdbe538add4ed6aca0902483045022100ddccd9a94b257b0d5e883d471426f67c53233523628121541a30c448b62f6e8302204f26d7b310a22a356d6271e6a406fcace87817a1fb889e703888238e8f35b1250121020b3f3482ea8e80dd552a54d4cc79f5afdd49b62465ed1a4f66caf2b41bd2228100000000"
}