{
  "txid": "31e4606b9275007ebbee6bccf4c94d75392ead4a24d574385d72410db6cd2bef",
  "version": 2,
  "locktime": 834559,
  "vin": [
    {
      "txid": "bc1808e9a40c87b354b8be79efe0a2540cc15f48a12842710810dc96b0e71a5a",
      "vout": 0,
      "prevout": {
        "scriptpubkey": "00148a76002b9c791b8aa60f355efcc669af05893b55",
        "scriptpubkey_asm": "OP_0 OP_PUSHBYTES_20 8a76002b9c791b8aa60f355efcc669af05893b55",
        "scriptpubkey_type": "v0_p2wpkh",
        "scriptpubkey_address": "bc1q3fmqq2uu0ydc4fs0x400e3nf4uzcjw645xnyjr",
        "value": 13927389
      },
      "scriptsig": "",
      "scriptsig_asm": "",
      "witness": [
        "3044022012372db4dd56293473e6c6844efa00d15a92f8381595dac229a699ce1cdb347402206acd9fec08c1d4bdc26566711c53b6248493a2ee579e43c29d08f5a07f5dbecd01",
        "02b182763061761b0f77fd8cd1abca0ff0d130c935fd93630446beac63b602c526"
      ],
      "is_coinbase": false,
      "sequence": 4294967293
    }
  ],
  "vout": [
    {
      "scriptpubkey": "001476b84306cfb187125119806f76b466585ca35462",
      "scriptpubkey_asm": "OP_0 OP_PUSHBYTES_20 76b84306cfb187125119806f76b466585ca35462",
      "scriptpubkey_type": "v0_p2wpkh",
      "scriptpubkey_address": "bc1qw6uyxpk0kxr3y5gesphhddrxtpw2x4rzqtys2r",
      "value": 5925000
    },
    {
      "scriptpubkey": "76a914da6adab38c3bfbcf96fddf4c81e7bfec11babaa488ac",
      "scriptpubkey_asm": "OP_DUP OP_HASH160 OP_PUSHBYTES_20 da6adab38c3bfbcf96fddf4c81e7bfec11babaa4 OP_EQUALVERIFY OP_CHECKSIG",
      "scriptpubkey_type": "p2pkh",
      "scriptpubkey_address": "1LutKBo4KCKfMdSKzbEAK9ZNfzU16i8SZz",
      "value": 8000000
    }
  ],
  "size": 225,
  "weight": 573,
  "fee": 2389,
  "status": {
    "confirmed": true,
    "block_height": 834638,
    "block_hash": "000000000000000000025f742c626208ac87e0b7d15054abb4a19ca2d735a54e",
    "block_time": 1710405325
  },
  "hex": "020000000001015a1ae7b096dc1008714228a1485fc10c54a2e0ef79beb854b3870ca4e90818bc0000000000fdffffff0288685a000000000016001476b84306cfb187125119806f76b466585ca3546200127a00000000001976a914da6adab38c3bfbcf96fddf4c81e7bfec11babaa488ac02473044022012372db4dd56293473e6c6844efa00d15a92f8381595dac229a699ce1cdb347402206acd9fec08c1d4bdc26566711c53b6248493a2ee579e43c29d08f5a07f5dbecd012102b182763061761b0f77fd8cd1abca0ff0d130c935fd93630446beac63b602c526ffbb0c00"
}