{
  "txid": "31e67840a9a42ceddd3be18a42e891f8fbbcff35b14681a8c6c795a63e8811ae",
  "version": 1,
  "locktime": 0,
  "vin": [
    {
      "txid": "81e18d07f11afdd402829ece61624d7d1381e588bd50ce69c54368c4be24a0c4",
      "vout": 0,
      "prevout": {
        "scriptpubkey": "0014cabffdf4173b945e18e6ce4dd7395ba5c0b3655e",
        "scriptpubkey_asm": "OP_0 OP_PUSHBYTES_20 cabffdf4173b945e18e6ce4dd7395ba5c0b3655e",
        "scriptpubkey_type": "v0_p2wpkh",
        "scriptpubkey_address": "bc1qe2llmaqh8w29ux8xeexaww2m5hqtxe27y8p4m3",
        "value": 886843
      },
      "scriptsig": "",
      "scriptsig_asm": "",
      "witness": [
        "3044022044cfd853ca8036983119cfb1ca75bfe7a6026f85162df58e29cbed5283240cef02206c09bc2242517d29c6625362a410c9dfcc4063838dd245f08aa5d6065af95cd201",
        "028d5af76f5be39fc07ecdbf351d1333cb24ad3f7bc7958af6a337ef1cbc1c5c24"
      ],
      "is_coinbase": false,
      "sequence": 4294967295
    }
  ],
  "vout": [
    {
      "scriptpubkey": "00140c6c5bb68da2caef4358bf50a5d18f320d82bbf0",
      "scriptpubkey_asm": "OP_0 OP_PUSHBYTES_20 0c6c5bb68da2caef4358bf50a5d18f320d82bbf0",
      "scriptpubkey_type": "v0_p2wpkh",
      "scriptpubkey_address": "bc1qp3k9hd5d5t9w7s6chag2t5v0xgxc9wls8227up",
      "value": 883873
    }
  ],
  "size": 191,
  "weight": 437,
  "fee": 2970,
  "status": {
    "confirmed": true,
    "block_height": 834638,
    "block_hash": "000000000000000000025f742c626208ac87e0b7d15054abb4a19ca2d735a54e",
    "block_time": 1710405325
  },
  "hex": "01000000000101c4a024bec46843c569ce50bd88e581137d4d6261ce9e8202d4fd1af1078de1810000000000ffffffff01a17c0d00000000001600140c6c5bb68da2caef4358bf50a5d18f320d82bbf002473044022044cfd853ca8036983119cfb1ca75bfe7a6026f85162df58e29cbed5283240cef02206c09bc2242517d29c6625362a410c9dfcc4063838dd245f08aa5d6065af95cd20121028d5af76f5be39fc07ecdbf351d1333cb24ad3f7bc7958af6a337ef1cbc1c5c2400000000"
}