{
  "txid": "31e7ab06af45df501da8cb91c05d35acb559d2ec6aba2686bb33d01d9c305b66",
  "version": 2,
  "locktime": 834637,
  "vin": [
    {
      "txid": "755fad1e33beb4a060c2cfec3238da6b657a0f8f824714a6bc15c93ec5df6397",
      "vout": 0,
      "prevout": {
        "scriptpubkey": "0014ecafc028efece1d6657b1b1cceeeaf4f160b1171",
        "scriptpubkey_asm": "OP_0 OP_PUSHBYTES_20 ecafc028efece1d6657b1b1cceeeaf4f160b1171",
        "scriptpubkey_type": "v0_p2wpkh",
        "scriptpubkey_address": "bc1qajhuq280ansavetmrvwvam40futqkyt3c6gfxq",
        "value": 1195721
      },
      "scriptsig": "",
      "scriptsig_asm": "",
      "witness": [
        "304402201d48479c69c46bb3a5a1d1512b9cb6e4fd2068496d86d8f94e6baef2c81bc74102207f3ed88d4511b72cbdc81fb402f78a48f6947078c4243c22ed0154792940ddd101",
        "03a7021d8fa7f8ba5b32a0c3df7e81e8d5d37779ce01757ecd0ffff75d54d45390"
      ],
      "is_coinbase": false,
      "sequence": 4294967294
    },
    {
      "txid": "03bf79cd56a4c6e6332cf76359e6d5d66eeedb28d38feabc01c0645b4ede6b07",
      "vout": 0,
      "prevout": {
        "scriptpubkey": "00149d8736407e7f5ac681155b3c8619d96ba06f2307",
        "scriptpubkey_asm": "OP_0 OP_PUSHBYTES_20 9d8736407e7f5ac681155b3c8619d96ba06f2307",
        "scriptpubkey_type": "v0_p2wpkh",
        "scriptpubkey_address": "bc1qnkrnvsr70advdqg4tv7gvxwedwsx7gc8etyqcv",
        "value": 140259
      },
      "scriptsig": "",
      "scriptsig_asm": "",
      "witness": [
        "304402200636a2add58e31c759855e560d66b67383d3608c473d81fae23a09b2a0f55e28022069bd8df856841733bc2526acef5ed8a947f3f930aa074431b1c08f7635f4621601",
        "032b5108a1814d3a7134b4faa586af0101fec95e591caec9e13c046cbbe53d3e8d"
      ],
      "is_coinbase": false,
      "sequence": 4294967294
    }
  ],
  "vout": [
    {
      "scriptpubkey": "001400e247f0b55d0395591f7b1f983263131d41674c",
      "scriptpubkey_asm": "OP_0 OP_PUSHBYTES_20 00e247f0b55d0395591f7b1f983263131d41674c",
      "scriptpubkey_type": "v0_p2wpkh",
      "scriptpubkey_address": "bc1qqr3y0u94t5pe2kgl0v0esvnrzvw5ze6vevr8c6",
      "value": 2346
    },
    {
      "scriptpubkey": "0014458bc295837f5780892e90e53cc428b2f9657be3",
      "scriptpubkey_asm": "OP_0 OP_PUSHBYTES_20 458bc295837f5780892e90e53cc428b2f9657be3",
      "scriptpubkey_type": "v0_p2wpkh",
      "scriptpubkey_address": "bc1qgk9u99vr0atcpzfwjrjne3pgktuk27lr2ztzwe",
      "value": 234572
    },
    {
      "scriptpubkey": "00145732f066e6646397114c9c8345e053095e309e8b",
      "scriptpubkey_asm": "OP_0 OP_PUSHBYTES_20 5732f066e6646397114c9c8345e053095e309e8b",
      "scriptpubkey_type": "v0_p2wpkh",
      "scriptpubkey_address": "bc1q2ue0qehxv33ewy2vnjp5tcznp90rp85t6hf3l6",
      "value": 1095256
    }
  ],
  "size": 401,
  "weight": 956,
  "fee": 3806,
  "status": {
    "confirmed": true,
    "block_height": 834638,
    "block_hash": "000000000000000000025f742c626208ac87e0b7d15054abb4a19ca2d735a54e",
    "block_time": 1710405325
  },
  "hex": "020000000001029763dfc53ec915bca61447828f0f7a656bda3832eccfc260a0b4be331ead5f750000000000feffffff076bde4e5b64c001bcea8fd328dbee6ed6d5e65963f72c33e6c6a456cd79bf030000000000feffffff032a0900000000000016001400e247f0b55d0395591f7b1f983263131d41674c4c94030000000000160014458bc295837f5780892e90e53cc428b2f9657be358b61000000000001600145732f066e6646397114c9c8345e053095e309e8b0247304402201d48479c69c46bb3a5a1d1512b9cb6e4fd2068496d86d8f94e6baef2c81bc74102207f3ed88d4511b72cbdc81fb402f78a48f6947078c4243c22ed0154792940ddd1012103a7021d8fa7f8ba5b32a0c3df7e81e8d5d37779ce01757ecd0ffff75d54d453900247304402200636a2add58e31c759855e560d66b67383d3608c473d81fae23a09b2a0f55e28022069bd8df856841733bc2526acef5ed8a947f3f930aa074431b1c08f7635f462160121032b5108a1814d3a7134b4faa586af0101fec95e591caec9e13c046cbbe53d3e8d4dbc0c00"
}