{
  "txid": "31f00827fa8c729d986a4f6d1e614010b7c89bd90ea7c5ca6815f76d828644e3",
  "version": 2,
  "locktime": 0,
  "vin": [
    {
      "txid": "ad5c8425a4c4cb77d55bdded5834440b0af9e27142627ce8c72113a0acb12839",
      "vout": 0,
      "prevout": {
        "scriptpubkey": "51205a1fd9cc233aeeec3f4f3cd4dd4d22d03c9717bbc3490becb78050fdd4a4f0e9",
        "scriptpubkey_asm": "OP_PUSHNUM_1 OP_PUSHBYTES_32 5a1fd9cc233aeeec3f4f3cd4dd4d22d03c9717bbc3490becb78050fdd4a4f0e9",
        "scriptpubkey_type": "v1_p2tr",
        "scriptpubkey_address": "bc1ptg0annpr8thwc0608n2d6nfz6q7fw9amcdyshm9hspg0m49y7r5sfwurpx",
        "value": 2218
      },
      "scriptsig": "",
      "scriptsig_asm": "",
      "witness": [
        "bee9fbad4d2178675f13ec8f4c1b56b896046d92daf81a21dc22e6a4927822de1734b9e6ecb2048d0b4fdcc31e2827186d019d5a052cf87d190dd4a467708bd6",
        "201f4510e21cd84bb9cda1c8fa0efa47dd0eb13982b7f866d50a9a31220ce76b4cac0063036f7264010118746578742f706c61696e3b636861727365743d7574662d3800397b2270223a226272632d3230222c226f70223a227472616e73666572222c227469636b223a2249424954222c22616d74223a2234303030227d68",
        "c11f4510e21cd84bb9cda1c8fa0efa47dd0eb13982b7f866d50a9a31220ce76b4c"
      ],
      "is_coinbase": false,
      "sequence": 4294967293
    }
  ],
  "vout": [
    {
      "scriptpubkey": "51209322a473b8394cd19a33fd264e7363374866b9f89404b90b31a8a635b97f7d0e",
      "scriptpubkey_asm": "OP_PUSHNUM_1 OP_PUSHBYTES_32 9322a473b8394cd19a33fd264e7363374866b9f89404b90b31a8a635b97f7d0e",
      "scriptpubkey_type": "v1_p2tr",
      "scriptpubkey_address": "bc1pjv32guac89xdrx3nl5nyuumrxayxdw0cjsztjze34znrtwtl058qw66g5j",
      "value": 546
    }
  ],
  "size": 324,
  "weight": 606,
  "fee": 1672,
  "status": {
    "confirmed": true,
    "block_height": 834464,
    "block_hash": "0000000000000000000177a0869a911a2b65c9bdcd5a8bcb02b68f305bee848e",
    "block_time": 1710308296
  },
  "hex": "020000000001013928b1aca01321c7e87c624271e2f90a0b443458eddd5bd577cbc4a425845cad0000000000fdffffff0122020000000000002251209322a473b8394cd19a33fd264e7363374866b9f89404b90b31a8a635b97f7d0e0340bee9fbad4d2178675f13ec8f4c1b56b896046d92daf81a21dc22e6a4927822de1734b9e6ecb2048d0b4fdcc31e2827186d019d5a052cf87d190dd4a467708bd67f201f4510e21cd84bb9cda1c8fa0efa47dd0eb13982b7f866d50a9a31220ce76b4cac0063036f7264010118746578742f706c61696e3b636861727365743d7574662d3800397b2270223a226272632d3230222c226f70223a227472616e73666572222c227469636b223a2249424954222c22616d74223a2234303030227d6821c11f4510e21cd84bb9cda1c8fa0efa47dd0eb13982b7f866d50a9a31220ce76b4c00000000"
}