{
  "txid": "31fc57f6acd3b33ae7697f3eeaf817de2a6a9f437f152c4255fe2a25de292be8",
  "version": 2,
  "locktime": 0,
  "vin": [
    {
      "txid": "349cb04b0334d7e6356f685332151465992a23216a7d9a1723590889d379ea47",
      "vout": 1,
      "prevout": {
        "scriptpubkey": "51200d93e5e7233c54d49e9e880e2d2986f7836c95bb0de0920465f31ce30ea31192",
        "scriptpubkey_asm": "OP_PUSHNUM_1 OP_PUSHBYTES_32 0d93e5e7233c54d49e9e880e2d2986f7836c95bb0de0920465f31ce30ea31192",
        "scriptpubkey_type": "v1_p2tr",
        "scriptpubkey_address": "bc1ppkf7teer832df8573q8z62vx77pke9dmphsfypr97vwwxr4rzxfqf0mh73",
        "value": 938442
      },
      "scriptsig": "",
      "scriptsig_asm": "",
      "witness": [
        "3f9515753ec135f71161dfabedab13312cc809eba69f7206f4e56f3842780110b36ea0bc2fd22e96b0b116567ffeeb097d88737c92162d697a8afba667732a25"
      ],
      "is_coinbase": false,
      "sequence": 4294967295
    }
  ],
  "vout": [
    {
      "scriptpubkey": "5120bd6b61712e9d3def7b14614b4470498f5a76cfcdf9277e5547ff86abdb071981",
      "scriptpubkey_asm": "OP_PUSHNUM_1 OP_PUSHBYTES_32 bd6b61712e9d3def7b14614b4470498f5a76cfcdf9277e5547ff86abdb071981",
      "scriptpubkey_type": "v1_p2tr",
      "scriptpubkey_address": "bc1ph44kzufwn57777c5v995guzf3ad8dn7dlynhu428l7r2hkc8rxqs9e20lh",
      "value": 5000
    },
    {
      "scriptpubkey": "51200d93e5e7233c54d49e9e880e2d2986f7836c95bb0de0920465f31ce30ea31192",
      "scriptpubkey_asm": "OP_PUSHNUM_1 OP_PUSHBYTES_32 0d93e5e7233c54d49e9e880e2d2986f7836c95bb0de0920465f31ce30ea31192",
      "scriptpubkey_type": "v1_p2tr",
      "scriptpubkey_address": "bc1ppkf7teer832df8573q8z62vx77pke9dmphsfypr97vwwxr4rzxfqf0mh73",
      "value": 930978
    }
  ],
  "size": 205,
  "weight": 616,
  "fee": 2464,
  "status": {
    "confirmed": true,
    "block_height": 834638,
    "block_hash": "000000000000000000025f742c626208ac87e0b7d15054abb4a19ca2d735a54e",
    "block_time": 1710405325
  },
  "hex": "0200000000010147ea79d389085923179a7d6a21232a996514153253686f35e6d734034bb09c340100000000ffffffff028813000000000000225120bd6b61712e9d3def7b14614b4470498f5a76cfcdf9277e5547ff86abdb071981a2340e00000000002251200d93e5e7233c54d49e9e880e2d2986f7836c95bb0de0920465f31ce30ea3119201403f9515753ec135f71161dfabedab13312cc809eba69f7206f4e56f3842780110b36ea0bc2fd22e96b0b116567ffeeb097d88737c92162d697a8afba667732a2500000000"
}