{
  "txid": "32099b6f73c262d8887b291792cf339eaf936bae9b5f1bbac9254444c32e8ce8",
  "version": 2,
  "locktime": 0,
  "vin": [
    {
      "txid": "a61d6b5a2d44f821b5aa1f018167ce15f8cd778dbee9d5199cfbf2d225baeb94",
      "vout": 0,
      "prevout": {
        "scriptpubkey": "00143ca59c5ae96db8e26adbd83fc0c208bde11beb47",
        "scriptpubkey_asm": "OP_0 OP_PUSHBYTES_20 3ca59c5ae96db8e26adbd83fc0c208bde11beb47",
        "scriptpubkey_type": "v0_p2wpkh",
        "scriptpubkey_address": "bc1q8jjeckhfdkuwy6kmmqlupssghhs3h6686c3k8j",
        "value": 50000
      },
      "scriptsig": "",
      "scriptsig_asm": "",
      "witness": [
        "304402204d795789ae705a6182eb51bf00b121a049d16660783a8c10622255df392a7240022053add3e7074ab4411a56f275b50ed08b366d5bd89218be0b675f3ea7f9c3273701",
        "0234c4bad41f371705f5d52bef6c98ffaacb174676fd5e54b6d8c4f3413f50e7ce"
      ],
      "is_coinbase": false,
      "sequence": 4294967295
    },
    {
      "txid": "9179587a66267ea99cc7d3c621038fea632023e43b87402c8747d6701596ad0a",
      "vout": 0,
      "prevout": {
        "scriptpubkey": "00143ca59c5ae96db8e26adbd83fc0c208bde11beb47",
        "scriptpubkey_asm": "OP_0 OP_PUSHBYTES_20 3ca59c5ae96db8e26adbd83fc0c208bde11beb47",
        "scriptpubkey_type": "v0_p2wpkh",
        "scriptpubkey_address": "bc1q8jjeckhfdkuwy6kmmqlupssghhs3h6686c3k8j",
        "value": 25000
      },
      "scriptsig": "",
      "scriptsig_asm": "",
      "witness": [
        "3045022100a1f2cbacf4ef803bebbd7d958774b3a4ace494803a122403f2092ff756d52ddd022005a2549a785022d02de552a891fb2cc27e80a64bbc0f6dc97d1d66dff58277c201",
        "0234c4bad41f371705f5d52bef6c98ffaacb174676fd5e54b6d8c4f3413f50e7ce"
      ],
      "is_coinbase": false,
      "sequence": 4294967295
    },
    {
      "txid": "63ea90d070868993d71034bc3eece9498694175ee39b726b26ae396b917e1977",
      "vout": 0,
      "prevout": {
        "scriptpubkey": "00143ca59c5ae96db8e26adbd83fc0c208bde11beb47",
        "scriptpubkey_asm": "OP_0 OP_PUSHBYTES_20 3ca59c5ae96db8e26adbd83fc0c208bde11beb47",
        "scriptpubkey_type": "v0_p2wpkh",
        "scriptpubkey_address": "bc1q8jjeckhfdkuwy6kmmqlupssghhs3h6686c3k8j",
        "value": 25000
      },
      "scriptsig": "",
      "scriptsig_asm": "",
      "witness": [
        "3045022100eac6b4e655db0721147d96d9702e206940ef7bda9095afde12f6af41aba504fa0220738142d33478ca9426a7a0a34d8011313651318203cc3993d44f97443f088ed701",
        "0234c4bad41f371705f5d52bef6c98ffaacb174676fd5e54b6d8c4f3413f50e7ce"
      ],
      "is_coinbase": false,
      "sequence": 4294967295
    },
    {
      "txid": "7667300d9b9d59130460fc9b6bccfb23da71ac4bb11ac6fbda3766b1a5b69ed5",
      "vout": 0,
      "prevout": {
        "scriptpubkey": "00143ca59c5ae96db8e26adbd83fc0c208bde11beb47",
        "scriptpubkey_asm": "OP_0 OP_PUSHBYTES_20 3ca59c5ae96db8e26adbd83fc0c208bde11beb47",
        "scriptpubkey_type": "v0_p2wpkh",
        "scriptpubkey_address": "bc1q8jjeckhfdkuwy6kmmqlupssghhs3h6686c3k8j",
        "value": 25000
      },
      "scriptsig": "",
      "scriptsig_asm": "",
      "witness": [
        "304502210083ec1ef8a2edf99e800188c150464f2c9c2a76afcef354a36558aaf1957fc042022033ddc13947c7e7fcae9a224785d1d17e5c6e8c7d999571010224f1e9f78d25cf01",
        "0234c4bad41f371705f5d52bef6c98ffaacb174676fd5e54b6d8c4f3413f50e7ce"
      ],
      "is_coinbase": false,
      "sequence": 4294967295
    },
    {
      "txid": "21772f572c6ac8042631c4e6019ca682cd3ece6e551d76e2175c592b91ff3b59",
      "vout": 0,
      "prevout": {
        "scriptpubkey": "00143ca59c5ae96db8e26adbd83fc0c208bde11beb47",
        "scriptpubkey_asm": "OP_0 OP_PUSHBYTES_20 3ca59c5ae96db8e26adbd83fc0c208bde11beb47",
        "scriptpubkey_type": "v0_p2wpkh",
        "scriptpubkey_address": "bc1q8jjeckhfdkuwy6kmmqlupssghhs3h6686c3k8j",
        "value": 25000
      },
      "scriptsig": "",
      "scriptsig_asm": "",
      "witness": [
        "3045022100e172ec45a59419cec9e9fc4ae4361bcfc80298daf6380009ffa71b46ae6ef39c02206e13655eb8ddc4b55d9c1c99ee0f75e9ed335e059d7d430c6074e4e62c4b085701",
        "0234c4bad41f371705f5d52bef6c98ffaacb174676fd5e54b6d8c4f3413f50e7ce"
      ],
      "is_coinbase": false,
      "sequence": 4294967295
    },
    {
      "txid": "46f982555de33035f34da8e695241da73ecb59cac5bbfe002addb7958ac0565e",
      "vout": 0,
      "prevout": {
        "scriptpubkey": "00143ca59c5ae96db8e26adbd83fc0c208bde11beb47",
        "scriptpubkey_asm": "OP_0 OP_PUSHBYTES_20 3ca59c5ae96db8e26adbd83fc0c208bde11beb47",
        "scriptpubkey_type": "v0_p2wpkh",
        "scriptpubkey_address": "bc1q8jjeckhfdkuwy6kmmqlupssghhs3h6686c3k8j",
        "value": 25000
      },
      "scriptsig": "",
      "scriptsig_asm": "",
      "witness": [
        "304402202b1369e98435512f664f8d8f2d229561984507265a61f3c2e95363c792a10ee80220359e516ecf74473e1d41c5720eca0ef76cad9a862ca2345abe1d6b9f2969e61201",
        "0234c4bad41f371705f5d52bef6c98ffaacb174676fd5e54b6d8c4f3413f50e7ce"
      ],
      "is_coinbase": false,
      "sequence": 4294967295
    },
    {
      "txid": "84419beecd026615bde1d86656fa57951c798816e18d700aa264772701dbc3de",
      "vout": 0,
      "prevout": {
        "scriptpubkey": "00143ca59c5ae96db8e26adbd83fc0c208bde11beb47",
        "scriptpubkey_asm": "OP_0 OP_PUSHBYTES_20 3ca59c5ae96db8e26adbd83fc0c208bde11beb47",
        "scriptpubkey_type": "v0_p2wpkh",
        "scriptpubkey_address": "bc1q8jjeckhfdkuwy6kmmqlupssghhs3h6686c3k8j",
        "value": 25000
      },
      "scriptsig": "",
      "scriptsig_asm": "",
      "witness": [
        "3045022100ec859af657df3d1276ff4f2a0f08f9e6cccd8ece35df137b38351e7cb5d80e8002201776127a7f8603f864c7ac7e125ffcc2e0d6b7b2f6d595e8073b3a6af5326e3101",
        "0234c4bad41f371705f5d52bef6c98ffaacb174676fd5e54b6d8c4f3413f50e7ce"
      ],
      "is_coinbase": false,
      "sequence": 4294967295
    },
    {
      "txid": "70f7c66769e818b0a679d40f6de6ddae4db58e2fc380e1ff1da3adb339de25cd",
      "vout": 4,
      "prevout": {
        "scriptpubkey": "00143ca59c5ae96db8e26adbd83fc0c208bde11beb47",
        "scriptpubkey_asm": "OP_0 OP_PUSHBYTES_20 3ca59c5ae96db8e26adbd83fc0c208bde11beb47",
        "scriptpubkey_type": "v0_p2wpkh",
        "scriptpubkey_address": "bc1q8jjeckhfdkuwy6kmmqlupssghhs3h6686c3k8j",
        "value": 25000
      },
      "scriptsig": "",
      "scriptsig_asm": "",
      "witness": [
        "3045022100d1e08bf4d77456bf7428fe0586d2bc1241888a76910de0e7884cf2ea898e4e8502203467544e97fafcc19093224ef2cd11d7ccdc14f1e8fb6ed1d817fc0085c1eea001",
        "0234c4bad41f371705f5d52bef6c98ffaacb174676fd5e54b6d8c4f3413f50e7ce"
      ],
      "is_coinbase": false,
      "sequence": 4294967295
    },
    {
      "txid": "67f36b577f65933ae94ea7b2e64f7f34989c0f069ea1b89ff2a1502b2a0f0e7b",
      "vout": 4,
      "prevout": {
        "scriptpubkey": "00143ca59c5ae96db8e26adbd83fc0c208bde11beb47",
        "scriptpubkey_asm": "OP_0 OP_PUSHBYTES_20 3ca59c5ae96db8e26adbd83fc0c208bde11beb47",
        "scriptpubkey_type": "v0_p2wpkh",
        "scriptpubkey_address": "bc1q8jjeckhfdkuwy6kmmqlupssghhs3h6686c3k8j",
        "value": 25000
      },
      "scriptsig": "",
      "scriptsig_asm": "",
      "witness": [
        "3045022100ed37c022748949f6e2ccc169c3f1e56aecc8b64f1d43684274845634a152921d022004086f2849d73a5e8feb3d9c4cda94759731e2ba0a9c7bd038d327e2b4d5e13701",
        "0234c4bad41f371705f5d52bef6c98ffaacb174676fd5e54b6d8c4f3413f50e7ce"
      ],
      "is_coinbase": false,
      "sequence": 4294967295
    },
    {
      "txid": "a54a55bdfd90f50c3a29668942b8f8bca2c57ce42b83ba2fe7193e3dea7fcb12",
      "vout": 0,
      "prevout": {
        "scriptpubkey": "00143ca59c5ae96db8e26adbd83fc0c208bde11beb47",
        "scriptpubkey_asm": "OP_0 OP_PUSHBYTES_20 3ca59c5ae96db8e26adbd83fc0c208bde11beb47",
        "scriptpubkey_type": "v0_p2wpkh",
        "scriptpubkey_address": "bc1q8jjeckhfdkuwy6kmmqlupssghhs3h6686c3k8j",
        "value": 25000
      },
      "scriptsig": "",
      "scriptsig_asm": "",
      "witness": [
        "3045022100b0b0e7c7f386353b246ba9719a21bcfc823314d736da90df46f64b8dc53b9dbb022009037f832b9c203a8f8c766f69b33b1b9ff67b2976dc85adc9fb10f7851ccbae01",
        "0234c4bad41f371705f5d52bef6c98ffaacb174676fd5e54b6d8c4f3413f50e7ce"
      ],
      "is_coinbase": false,
      "sequence": 4294967295
    }
  ],
  "vout": [
    {
      "scriptpubkey": "0014419854753506f2b3e771860f36eb919d89cc890f",
      "scriptpubkey_asm": "OP_0 OP_PUSHBYTES_20 419854753506f2b3e771860f36eb919d89cc890f",
      "scriptpubkey_type": "v0_p2wpkh",
      "scriptpubkey_address": "bc1qgxv9gaf4qmet8em3sc8nd6u3nkyuezg0cg9p36",
      "value": 2222
    },
    {
      "scriptpubkey": "0014c3da1e98f377468b1dc302483d79507b75b62ce2",
      "scriptpubkey_asm": "OP_0 OP_PUSHBYTES_20 c3da1e98f377468b1dc302483d79507b75b62ce2",
      "scriptpubkey_type": "v0_p2wpkh",
      "scriptpubkey_address": "bc1qc0dpax8nwargk8wrqfyr672s0d6mvt8z0zj95y",
      "value": 262626
    }
  ],
  "size": 1562,
  "weight": 3008,
  "fee": 10152,
  "status": {
    "confirmed": true,
    "block_height": 834460,
    "block_hash": "00000000000000000000484a79b643b2524bbce82e5d8a442013fa5b8905ed98",
    "block_time": 1710307468
  },
  "hex": "0200000000010a94ebba25d2f2fb9c19d5e9be8d77cdf815ce6781011faab521f8442d5a6b1da60000000000ffffffff0aad961570d647872c40873be4232063ea8f0321c6d3c79ca97e26667a5879910000000000ffffffff77197e916b39ae266b729be35e17948649e9ec3ebc3410d793898670d090ea630000000000ffffffffd59eb6a5b16637dafbc61ab14bac71da23fbcc6b9bfc600413599d9b0d3067760000000000ffffffff593bff912b595c17e2761d556ece3ecd82a69c01e6c4312604c86a2c572f77210000000000ffffffff5e56c08a95b7dd2a00febbc5ca59cb3ea71d2495e6a84df33530e35d5582f9460000000000ffffffffdec3db01277764a20a708de11688791c9557fa5666d8e1bd156602cdee9b41840000000000ffffffffcd25de39b3ada31dffe180c32f8eb54daedde66d0fd479a6b018e86967c6f7700400000000ffffffff7b0e0f2a2b50a1f29fb8a19e060f9c98347f4fe6b2a74ee93a93657f576bf3670400000000ffffffff12cb7fea3d3e19e72fba832be47cc5a2bcf8b8428966293a0cf590fdbd554aa50000000000ffffffff02ae08000000000000160014419854753506f2b3e771860f36eb919d89cc890fe201040000000000160014c3da1e98f377468b1dc302483d79507b75b62ce20247304402204d795789ae705a6182eb51bf00b121a049d16660783a8c10622255df392a7240022053add3e7074ab4411a56f275b50ed08b366d5bd89218be0b675f3ea7f9c3273701210234c4bad41f371705f5d52bef6c98ffaacb174676fd5e54b6d8c4f3413f50e7ce02483045022100a1f2cbacf4ef803bebbd7d958774b3a4ace494803a122403f2092ff756d52ddd022005a2549a785022d02de552a891fb2cc27e80a64bbc0f6dc97d1d66dff58277c201210234c4bad41f371705f5d52bef6c98ffaacb174676fd5e54b6d8c4f3413f50e7ce02483045022100eac6b4e655db0721147d96d9702e206940ef7bda9095afde12f6af41aba504fa0220738142d33478ca9426a7a0a34d8011313651318203cc3993d44f97443f088ed701210234c4bad41f371705f5d52bef6c98ffaacb174676fd5e54b6d8c4f3413f50e7ce0248304502210083ec1ef8a2edf99e800188c150464f2c9c2a76afcef354a36558aaf1957fc042022033ddc13947c7e7fcae9a224785d1d17e5c6e8c7d999571010224f1e9f78d25cf01210234c4bad41f371705f5d52bef6c98ffaacb174676fd5e54b6d8c4f3413f50e7ce02483045022100e172ec45a59419cec9e9fc4ae4361bcfc80298daf6380009ffa71b46ae6ef39c02206e13655eb8ddc4b55d9c1c99ee0f75e9ed335e059d7d430c6074e4e62c4b085701210234c4bad41f371705f5d52bef6c98ffaacb174676fd5e54b6d8c4f3413f50e7ce0247304402202b1369e98435512f664f8d8f2d229561984507265a61f3c2e95363c792a10ee80220359e516ecf74473e1d41c5720eca0ef76cad9a862ca2345abe1d6b9f2969e61201210234c4bad41f371705f5d52bef6c98ffaacb174676fd5e54b6d8c4f3413f50e7ce02483045022100ec859af657df3d1276ff4f2a0f08f9e6cccd8ece35df137b38351e7cb5d80e8002201776127a7f8603f864c7ac7e125ffcc2e0d6b7b2f6d595e8073b3a6af5326e3101210234c4bad41f371705f5d52bef6c98ffaacb174676fd5e54b6d8c4f3413f50e7ce02483045022100d1e08bf4d77456bf7428fe0586d2bc1241888a76910de0e7884cf2ea898e4e8502203467544e97fafcc19093224ef2cd11d7ccdc14f1e8fb6ed1d817fc0085c1eea001210234c4bad41f371705f5d52bef6c98ffaacb174676fd5e54b6d8c4f3413f50e7ce02483045022100ed37c022748949f6e2ccc169c3f1e56aecc8b64f1d43684274845634a152921d022004086f2849d73a5e8feb3d9c4cda94759731e2ba0a9c7bd038d327e2b4d5e13701210234c4bad41f371705f5d52bef6c98ffaacb174676fd5e54b6d8c4f3413f50e7ce02483045022100b0b0e7c7f386353b246ba9719a21bcfc823314d736da90df46f64b8dc53b9dbb022009037f832b9c203a8f8c766f69b33b1b9ff67b2976dc85adc9fb10f7851ccbae01210234c4bad41f371705f5d52bef6c98ffaacb174676fd5e54b6d8c4f3413f50e7ce00000000"
}