{
  "txid": "322462b55df6498b891b3bea0ef7d7e284f66830b4a151f1f9c22b4b9e0214db",
  "version": 1,
  "locktime": 0,
  "vin": [
    {
      "txid": "a3fe9015991b5c0da7d79648574f3b563ea196b5b4ca95ee2e61fae947f6ee3b",
      "vout": 0,
      "prevout": {
        "scriptpubkey": "a9146b959ef415235ebab0e562fefc2258276fbcbd1587",
        "scriptpubkey_asm": "OP_HASH160 OP_PUSHBYTES_20 6b959ef415235ebab0e562fefc2258276fbcbd15 OP_EQUAL",
        "scriptpubkey_type": "p2sh",
        "scriptpubkey_address": "3BVsTutydzbYu7M3gQVp59NGysXsX3y9tT",
        "value": 41336600
      },
      "scriptsig": "160014a67efd1034815b1ee181e989629e084a936ee147",
      "scriptsig_asm": "OP_PUSHBYTES_22 0014a67efd1034815b1ee181e989629e084a936ee147",
      "witness": [
        "30440220050ed2cd88ffd62854d73938d10e7d65f9f9d845bd8b375caeba84ddbede95b70220511c1758035f91e2e0ce64990966a24996f830a373b8de6ecdf5cfa12a0c834401",
        "02d56975e4b2866eac634892217008a8b4433263403b22bdedcd9a1a17efb21439"
      ],
      "is_coinbase": false,
      "sequence": 4294967295,
      "inner_redeemscript_asm": "OP_0 OP_PUSHBYTES_20 a67efd1034815b1ee181e989629e084a936ee147"
    }
  ],
  "vout": [
    {
      "scriptpubkey": "a914d261ba184627af9b3899c04f3e8d02018d8ca0a787",
      "scriptpubkey_asm": "OP_HASH160 OP_PUSHBYTES_20 d261ba184627af9b3899c04f3e8d02018d8ca0a7 OP_EQUAL",
      "scriptpubkey_type": "p2sh",
      "scriptpubkey_address": "3LsQu1nxjfBxay6S2GZQhrFbWURf8j78GV",
      "value": 44681
    },
    {
      "scriptpubkey": "76a9148011f063b2cb8491b8c40c86709c0458867a213c88ac",
      "scriptpubkey_asm": "OP_DUP OP_HASH160 OP_PUSHBYTES_20 8011f063b2cb8491b8c40c86709c0458867a213c OP_EQUALVERIFY OP_CHECKSIG",
      "scriptpubkey_type": "p2pkh",
      "scriptpubkey_address": "1CgAyyoWe5AuRjVoNx7XhGBVTcUnxVdxdq",
      "value": 104799
    },
    {
      "scriptpubkey": "001473862f845f9052af2cc40c8b78683acb09758aa8",
      "scriptpubkey_asm": "OP_0 OP_PUSHBYTES_20 73862f845f9052af2cc40c8b78683acb09758aa8",
      "scriptpubkey_type": "v0_p2wpkh",
      "scriptpubkey_address": "bc1qwwrzlpzljpf27txypj9hs6p6evyhtz4g9dl7aq",
      "value": 29675065
    },
    {
      "scriptpubkey": "a914b4232a31a4107f49eef16720188db5fecc6469ed87",
      "scriptpubkey_asm": "OP_HASH160 OP_PUSHBYTES_20 b4232a31a4107f49eef16720188db5fecc6469ed OP_EQUAL",
      "scriptpubkey_type": "p2sh",
      "scriptpubkey_address": "3J7VgNHNsSkVmBDKY92xW7jJ8RxKNdQ1FS",
      "value": 40823
    },
    {
      "scriptpubkey": "a9145f30e31f4d9f0973903c95b4abc0332832816df987",
      "scriptpubkey_asm": "OP_HASH160 OP_PUSHBYTES_20 5f30e31f4d9f0973903c95b4abc0332832816df9 OP_EQUAL",
      "scriptpubkey_type": "p2sh",
      "scriptpubkey_address": "3ANLgWWYQyfBqS3LvMPWi2h2GDYmDdyKbq",
      "value": 34954
    },
    {
      "scriptpubkey": "76a91463791dedfbd472b382dbf3637976fb68e36ad8b388ac",
      "scriptpubkey_asm": "OP_DUP OP_HASH160 OP_PUSHBYTES_20 63791dedfbd472b382dbf3637976fb68e36ad8b3 OP_EQUALVERIFY OP_CHECKSIG",
      "scriptpubkey_type": "p2pkh",
      "scriptpubkey_address": "1A4xzLpv3VecSkjgk4HKuZc6sESNt1Meqh",
      "value": 30471
    },
    {
      "scriptpubkey": "00145855d7e220835c7dd2386508c28d1d518512bb8a",
      "scriptpubkey_asm": "OP_0 OP_PUSHBYTES_20 5855d7e220835c7dd2386508c28d1d518512bb8a",
      "scriptpubkey_type": "v0_p2wpkh",
      "scriptpubkey_address": "bc1qtp2a0c3qsdw8m53cv5yv9rga2xz39wu2yhfxaa",
      "value": 67974
    },
    {
      "scriptpubkey": "a914358d600d3ce3cf74d7dcbd26f1ba531046f78f7b87",
      "scriptpubkey_asm": "OP_HASH160 OP_PUSHBYTES_20 358d600d3ce3cf74d7dcbd26f1ba531046f78f7b OP_EQUAL",
      "scriptpubkey_type": "p2sh",
      "scriptpubkey_address": "36aB6dcKzRwuYuJkF2CwYaNtCkuMSNL7q7",
      "value": 23129
    },
    {
      "scriptpubkey": "00141e27261a44176af1f399082a287967681de5e481",
      "scriptpubkey_asm": "OP_0 OP_PUSHBYTES_20 1e27261a44176af1f399082a287967681de5e481",
      "scriptpubkey_type": "v0_p2wpkh",
      "scriptpubkey_address": "bc1qrcnjvxjyza40ruuepq4zs7t8dqw7teypjtgmtc",
      "value": 2040302
    },
    {
      "scriptpubkey": "001461f80d9d3430fb76a69e81c4e8c9bc4125379657",
      "scriptpubkey_asm": "OP_0 OP_PUSHBYTES_20 61f80d9d3430fb76a69e81c4e8c9bc4125379657",
      "scriptpubkey_type": "v0_p2wpkh",
      "scriptpubkey_address": "bc1qv8uqm8f5xrahdf57s8zw3jdugyjn09jhsqcdul",
      "value": 79220
    },
    {
      "scriptpubkey": "00147054e28a5ae045cc6095136628de3749a2e378f8",
      "scriptpubkey_asm": "OP_0 OP_PUSHBYTES_20 7054e28a5ae045cc6095136628de3749a2e378f8",
      "scriptpubkey_type": "v0_p2wpkh",
      "scriptpubkey_address": "bc1qwp2w9zj6upzuccy4zdnz3h3hfx3wx78c5dq0qq",
      "value": 220623
    },
    {
      "scriptpubkey": "001469659d75965466e8fe9a3b51052ee65f806ede02",
      "scriptpubkey_asm": "OP_0 OP_PUSHBYTES_20 69659d75965466e8fe9a3b51052ee65f806ede02",
      "scriptpubkey_type": "v0_p2wpkh",
      "scriptpubkey_address": "bc1qd9je6avk23nw3l568dgs2thxt7qxahszzmhr36",
      "value": 8681771
    },
    {
      "scriptpubkey": "0014d67a1f14d99a9cff396082acf2ef27bb5e5dd75c",
      "scriptpubkey_asm": "OP_0 OP_PUSHBYTES_20 d67a1f14d99a9cff396082acf2ef27bb5e5dd75c",
      "scriptpubkey_type": "v0_p2wpkh",
      "scriptpubkey_address": "bc1q6eap79xen2w07wtqs2k09me8hd09m46uk8kfag",
      "value": 278886
    }
  ],
  "size": 596,
  "weight": 2057,
  "fee": 13902,
  "status": {
    "confirmed": true,
    "block_height": 834638,
    "block_hash": "000000000000000000025f742c626208ac87e0b7d15054abb4a19ca2d735a54e",
    "block_time": 1710405325
  },
  "hex": "010000000001013beef647e9fa612eee95cab4b596a13e563b4f574896d7a70d5c1b991590fea30000000017160014a67efd1034815b1ee181e989629e084a936ee147ffffffff0d89ae00000000000017a914d261ba184627af9b3899c04f3e8d02018d8ca0a7875f990100000000001976a9148011f063b2cb8491b8c40c86709c0458867a213c88ac39cec4010000000016001473862f845f9052af2cc40c8b78683acb09758aa8779f00000000000017a914b4232a31a4107f49eef16720188db5fecc6469ed878a8800000000000017a9145f30e31f4d9f0973903c95b4abc0332832816df98707770000000000001976a91463791dedfbd472b382dbf3637976fb68e36ad8b388ac86090100000000001600145855d7e220835c7dd2386508c28d1d518512bb8a595a00000000000017a914358d600d3ce3cf74d7dcbd26f1ba531046f78f7b87ee211f00000000001600141e27261a44176af1f399082a287967681de5e481743501000000000016001461f80d9d3430fb76a69e81c4e8c9bc4125379657cf5d0300000000001600147054e28a5ae045cc6095136628de3749a2e378f82b7984000000000016001469659d75965466e8fe9a3b51052ee65f806ede026641040000000000160014d67a1f14d99a9cff396082acf2ef27bb5e5dd75c024730440220050ed2cd88ffd62854d73938d10e7d65f9f9d845bd8b375caeba84ddbede95b70220511c1758035f91e2e0ce64990966a24996f830a373b8de6ecdf5cfa12a0c8344012102d56975e4b2866eac634892217008a8b4433263403b22bdedcd9a1a17efb2143900000000"
}