{
  "txid": "32266dba686eccacbc4427e5c9c443ab7d77796f44272a9c149d993f7b082ee1",
  "version": 2,
  "locktime": 0,
  "vin": [
    {
      "txid": "acc3ba00869acb582a3f2904ce3a11dd3779350ce234063fc7d0959246213364",
      "vout": 43,
      "prevout": {
        "scriptpubkey": "5120eb8da891510702883c6a0f69a560b71e8d8679b19cc6ffebd5e7b1d69ae1cac0",
        "scriptpubkey_asm": "OP_PUSHNUM_1 OP_PUSHBYTES_32 eb8da891510702883c6a0f69a560b71e8d8679b19cc6ffebd5e7b1d69ae1cac0",
        "scriptpubkey_type": "v1_p2tr",
        "scriptpubkey_address": "bc1pawx63y23qupgs0r2pa562c9hr6xcv7d3nnr0l674u7cadxhpetqqtx0ghq",
        "value": 1806
      },
      "scriptsig": "",
      "scriptsig_asm": "",
      "witness": [
        "4112e44d5cf5d47d3c815582c8fd3ae68a9149e351e9dfd9706663db1b4f6f15b70e605b2e69c051addd299f024567751e325aec5ce0718659d6ebb751c146dd",
        "202c4c872a283bf477e7c3ff3867583a5f4ab6c2553ad413818b6f2ab1d288aa9cac0063036f726401010a746578742f706c61696e00357b2270223a226272632d3230222c226f70223a226d696e74222c227469636b223a22646f6765222c22616d74223a2234323030227d68",
        "c02c4c872a283bf477e7c3ff3867583a5f4ab6c2553ad413818b6f2ab1d288aa9c"
      ],
      "is_coinbase": false,
      "sequence": 4261412863
    }
  ],
  "vout": [
    {
      "scriptpubkey": "00147a665de7a370f4c9b372ab1fae587500a5bcbdb4",
      "scriptpubkey_asm": "OP_0 OP_PUSHBYTES_20 7a665de7a370f4c9b372ab1fae587500a5bcbdb4",
      "scriptpubkey_type": "v0_p2wpkh",
      "scriptpubkey_address": "bc1q0fn9mearwr6vnvmj4v06ukr4qzjme0d565dzcx",
      "value": 294
    }
  ],
  "size": 294,
  "weight": 540,
  "fee": 1512,
  "status": {
    "confirmed": true,
    "block_height": 834460,
    "block_hash": "00000000000000000000484a79b643b2524bbce82e5d8a442013fa5b8905ed98",
    "block_time": 1710307468
  },
  "hex": "02000000000101643321469295d0c73f0634e20c357937dd113ace04293f2a58cb9a8600bac3ac2b00000000fffffffd0126010000000000001600147a665de7a370f4c9b372ab1fae587500a5bcbdb403404112e44d5cf5d47d3c815582c8fd3ae68a9149e351e9dfd9706663db1b4f6f15b70e605b2e69c051addd299f024567751e325aec5ce0718659d6ebb751c146dd6d202c4c872a283bf477e7c3ff3867583a5f4ab6c2553ad413818b6f2ab1d288aa9cac0063036f726401010a746578742f706c61696e00357b2270223a226272632d3230222c226f70223a226d696e74222c227469636b223a22646f6765222c22616d74223a2234323030227d6821c02c4c872a283bf477e7c3ff3867583a5f4ab6c2553ad413818b6f2ab1d288aa9c00000000"
}