{
  "txid": "32271a0e0ba74a715cef2511e927e9945ef1a2757d0655130e5114949c94b205",
  "version": 2,
  "locktime": 0,
  "vin": [
    {
      "txid": "c10e48caeee8756d57fbce0e4f26c1d08bb9f0d4a35c2d26269682da8df04dac",
      "vout": 37,
      "prevout": {
        "scriptpubkey": "5120433e9e07fcf6b75fd41c931a1995fcce60217b9d1268a5c5ec1320817082c62f",
        "scriptpubkey_asm": "OP_PUSHNUM_1 OP_PUSHBYTES_32 433e9e07fcf6b75fd41c931a1995fcce60217b9d1268a5c5ec1320817082c62f",
        "scriptpubkey_type": "v1_p2tr",
        "scriptpubkey_address": "bc1pgvlfuplu76m4l4qujvdpn90ueeszz7uazf52t30vzvsgzuyzcchsjtt340",
        "value": 3618
      },
      "scriptsig": "",
      "scriptsig_asm": "",
      "witness": [
        "d0d2c1c50dc5f7322379cf4fbcf4e41c43019c29ace85017afedfbbab845c7ff4394d6d7782397ce867f26d16516f9d08a46d7d98983f1b463ca96383fbadd0b",
        "206abcaefb14befd14d506a0c792fb13015722d8db9b1f767db3eaae96fd79bbeeac0063036f726401011e6170706c69636174696f6e2f6a736f6e3b636861727365743d7574662d38004cd17b2270223a22706f772d3230222c226f70223a226d696e74222c227469636b223a2250455045222c22616d74223a2231303030222c22736f6c7574696f6e223a22504550453a6263317071336e67663775716e73667434706d37357236397371616c6c30637068747278677773757a6d657864356c337039333566366d713666337664383a303030303030303030303030303030303030303139393431613561653132383937363539383134343239323533333030353762306461393666336465613163353a393030323437383438227d68",
        "c1406c0f2a67700582b42f36a71eb03478d57ba1acdc179ee1ec758acb282de3fd"
      ],
      "is_coinbase": false,
      "sequence": 4294967295
    }
  ],
  "vout": [
    {
      "scriptpubkey": "5120046684fb809c12ba877ea0f45803bffbf01bac6643a1c16f266d3f1096344eb6",
      "scriptpubkey_asm": "OP_PUSHNUM_1 OP_PUSHBYTES_32 046684fb809c12ba877ea0f45803bffbf01bac6643a1c16f266d3f1096344eb6",
      "scriptpubkey_type": "v1_p2tr",
      "scriptpubkey_address": "bc1pq3ngf7uqnsft4pm75r69sqall0cphtrxgwsuzmexd5l3p935f6mq6f3vd8",
      "value": 546
    }
  ],
  "size": 485,
  "weight": 767,
  "fee": 3072,
  "status": {
    "confirmed": true,
    "block_height": 834460,
    "block_hash": "00000000000000000000484a79b643b2524bbce82e5d8a442013fa5b8905ed98",
    "block_time": 1710307468
  },
  "hex": "02000000000101ac4df08dda829626262d5ca3d4f0b98bd0c1264f0ecefb576d75e8eeca480ec12500000000ffffffff012202000000000000225120046684fb809c12ba877ea0f45803bffbf01bac6643a1c16f266d3f1096344eb60340d0d2c1c50dc5f7322379cf4fbcf4e41c43019c29ace85017afedfbbab845c7ff4394d6d7782397ce867f26d16516f9d08a46d7d98983f1b463ca96383fbadd0bfd1e01206abcaefb14befd14d506a0c792fb13015722d8db9b1f767db3eaae96fd79bbeeac0063036f726401011e6170706c69636174696f6e2f6a736f6e3b636861727365743d7574662d38004cd17b2270223a22706f772d3230222c226f70223a226d696e74222c227469636b223a2250455045222c22616d74223a2231303030222c22736f6c7574696f6e223a22504550453a6263317071336e67663775716e73667434706d37357236397371616c6c30637068747278677773757a6d657864356c337039333566366d713666337664383a303030303030303030303030303030303030303139393431613561653132383937363539383134343239323533333030353762306461393666336465613163353a393030323437383438227d6821c1406c0f2a67700582b42f36a71eb03478d57ba1acdc179ee1ec758acb282de3fd00000000"
}