{
  "txid": "322eac5bef60997a058efa75018524a38dc712a38c53820ba4b1693ef1cfc8ec",
  "version": 2,
  "locktime": 0,
  "vin": [
    {
      "txid": "d1f0b5d6d9685653941ea283fb6f539a6fb3381aec90adeb0907e0e0766cdb0c",
      "vout": 0,
      "prevout": {
        "scriptpubkey": "5120eb01a123c0a0114d61d9db46c49898bd1eed50d0621fce76ce7af7babbf095e7",
        "scriptpubkey_asm": "OP_PUSHNUM_1 OP_PUSHBYTES_32 eb01a123c0a0114d61d9db46c49898bd1eed50d0621fce76ce7af7babbf095e7",
        "scriptpubkey_type": "v1_p2tr",
        "scriptpubkey_address": "bc1pavq6zg7q5qg56cwemdrvfxych50w65xsvg0uuakw0tmm4wlsjhnsnp25za",
        "value": 24113
      },
      "scriptsig": "",
      "scriptsig_asm": "",
      "witness": [
        "03a0edd5ef7f8dc885661b5255e1e311115574a64d72be968bfdbf6eee8e3e1432929af7ac4237a314c57ae2aa41f556375d72fb8df741d5e9c9ef4e0372351d",
        "20f2d00e1cce0b839d2e197679cac7a15152ec244338032c7767f72c1332d49a65ac0063036f726401010a696d6167652f77656270004d080252494646de0c0000574542505650384cd10c00002fffc03f007fc130926453bb0fdfb6f20fd0fe9706db469214cd1c3d33bff9f9e7c4fe7b4c8e23db56a27b70775b9201f90745b1b6993bff01a8fcc6155e9b8982ca94efdcea06581e4dd23aa26508c90930f94d7e332a42820028244021a06528096b91dacc0bd4152ab743d4bd9cd80ef5975911d81fb7b9fc79671722c7a7750bbd572101821012a40058a45c76acee27c670dcb6912489f987ddd5357bfe236202fa7a6f7ba5b7fd4b2bbcc2825ecbad977966a52e29a511439b34d2e8b2e4d0a8f0a052ae495e92547ab14ecd3ccb71eab4707368e676278d3a3d41a78a2a07e5a8046966b0c83cd0292d579a693d546969553428d36ba5afe74d7a0132a901bb6d6d73db461229542a731454f5a0660de8eeb7a11a1fdefff57def370004c155bffa3911fd9f000a9224c78da4ffbf1b05a05028a88f99d98d888809b8fdfffffff9fda71b7f7ae1a2f3e58a52b4002f54944adbc02f52a010c4e0af5080205a052f550c14d0a05f9828a259146a90835f9118abb208100142bf20d1aebc501aed2f495405016a110188b6fa2b11a3884ed1a3e046f002fc29720550a482e854d9d67eee02506c2812e585809aca48cf5a00620b012d0128ad5040019cb100541399a0a61a35d5336802ce56e4994204a85aa88cbc8f0ad454c4a98ab1e340d116807a083853313c8b0e11b97a20da15c04d0802690a50a19a4285d20094076894ca360401e72840504085242d0484888c2c1f21386551560431b450da048ab2030214e9098ae642e59834a1ad5a53ad7e7aa2bfa640d0a36aa1b205440b9908e0b4e585d200b20054ed830e0838412a040122508c4b3b28d446418280801313a04085209a9507a0ae526d82221a05240838392a635c00da28322215143490c019a2a651510a18a00e5a9471620211dd820045999415d554461b85f2004541808080d33250597fa2bc88340306a40919a7245ac55628501e630551266402320238314aa01010a9201310698fdaa8400f0115ce47940a050808400d2a6b910a88460189e840c098db59a1454094aa2608c8a2aa6a85c845016d04647036a2541b8a6a163dcd1502945620a300419ca02845f45654a1a6cd48a22a28e294042088ac551919288d5cc0201a086840706ea25b504351cf9407a04051819a1a4a41122d7c1e03dbdab3a8e522aa1919034a3db5b9b5219a052402625cdad69c411382009108087c10b94d1a252011100345888ea836915405f19448af884235d5d4414d34949920da051daaf17c385ba84379801a9467aaa8dea702418688464501f00c0e0720205a48a24d6d2a3b08505e08b20054534622f10b381ea8226253459f1aa32100a551cd085005b5d01ee7a3e51107a99aa9a0414539a3398a84e2a145a4e3a89522406d7446c9e4601580ca0d5883b6381f4f518402448d804d08022e9b8e2818cf5819c52f6df09a301b0b3a44e84834846ec8fc61adffe2d8a3425043348807aa2a40abed367a61fb47d6f618ac502850a59e50880250800a8502edaf14b6dd068db0fbe3da19a3d51c400db2b49216f50700b93c2676d7cee817300610443d83169a2854d6b41d60db4d74c1e6dadd26085554068a5d0a42915708a0288b5265a241c86503f417bdcae3281580203ad8041586191db0b976aa0bc5b12791108811a88be662bc3285205319a03413642ac476cdca13d1021430a3b36856a0061180f20055039446a93211a1321301aa8e030a28e289accdd12c2036a0859e6855e44aa8008928d48620ca2e1898d1cada1c753148f5288b48158a8d0563f2b6baca26c733ba53354a05882cda36153dad032217d0a2ba2b44cc68293a45a40a501a7901d4444d90a9710428c8a0a2f6042af0b414b95ac84a01954c450330a0b920a0ad8cb483cc07614e8c541965a6da5e15220055073476c4e0e38b71140f5e839ae8296b31bc877edca5008e0250285000aa0628d404b4080834c23f1e830504511e466b1224695399a8b9292bbf8c519e1cb322558368c9b77085267eb5d7af4c35e571fc49942a3b60c0ff3d0d112214fb05d9c538dd0a14896a0a852a80a2cdd51fc9b8cc885fed1ad979e37d9fa90a4251a40d20a2b136d76f7361fd4abc036e3e545719a5c89aff7954fed5eb9733b6f0f677bb9b9e42a128556df371e1354d0802b31834ff32bbebcdebdb63849257afd1e20332b2bdfa1f892d3266db6be75bfa4021de64a4eb7f6ba1234b5d99eb1d6fc7509e855f6daf5f957c981b3fbcb6bfd50fc00eefc5cd07a241bafecd4d63c3873bde8ea59c6d87ed0db4761e0a0d781de77174928607adddc7428bedd5fec7df87ace57bf6d67ecf9bbde29a87ac23677f1c096b5e5be7d6b57c2ffbb8e52d5d70437df5d76affcf3a766e3e04d7ecdadcf59e1fc3db00ff6ed0e0ff381e577e996dffdb0f3fcfbfcc9debd7fb30eea8af78c086f301b9307cf57b8b7b28f7d67cc7fc9cde5b1feb6de07d3e083df2617b6db0ede736f7de8ef344d9c3abbe567b3e2ecb00c0cabaf31314f85aedf9c8ac05d1bafbbb6cff77dfed684f7cd3a272efdedabc0119f3c0db01a779edf01e2ad1338f3d222da2d7b0b1ee687e22e310bb471f85a57523dbb579f4ede03b7e378247a1b676a7d8fe118fbf3d1bf7a977d87e5b87669dbc3d178ff296aa183ec6ed196efcb4a67d7a0fcbdfaf7fdddbed396e789c7a03bdbfdddbed59ee38b187286a29fa6dcf9fcf3f32e7c4596e31f4fb3ddd9ee8d6da7ace9923e01c93bd9fdb73ddf10e56116bdbf32e6f4f77cb0d70acbaed79f8edb91f814ebe394f6e0b0fc0f97c52dcf3003f941be7f366bffb1e9f212ba437b03e8fbf3dffbd0f06518fe579cb13e0963d2a7cc77b617d1e7f3b87fbaabf1b6c94dd6f8c07ce27e73793fdfb0e2aec4d08027adef423b84eafdd9564ee7efdfefd39dccee075980f641e3fd9a08fbbd6dce7c398874f6531beeb9a5e06d9c7300f9f3af44dd7eac59eec839a0f5ddcc013ba36daf6640fe0be79c369003c3f1fcebce53486e7726d2e3c066efa71de72ca2f5d3c936b67c587f2c10653f5625fdb27dbcfe2da5d78b23d003fca4ff396958b7d6d9fd2375c07161ef5d7bf3dc4c73cfa779e3da597b2c953637fd7a185277b84edfd7cd9c5c7bce9945fcaeb2868ed3abce231f63ebe56dbf3f129bd94b47bea6cecbae1c5f6647b90ff72eecbab3d6f3ea597f4daee2ea0a7eba68527db830c67be56dbf3e653b5a0d343a0a1ebc68527dbc3c29c7fcc3b9df24b49dff414bc15853dd9433e2663d7bccfa9f1625ffb47d18c6d5f2fdb9078b2473cfa54bfd8a6dff634bc9dcb565078b2bdbb0fb699ea9727467ef15614f66453e4831d4c8d97f23ad09bd08eb723f1647b1f15a7ea25a79cbb70833723b127db0730d52f55464d9bb6e0d68bbd1924f6543ed454bf5419eccde0be797764f694de32d52f751e87dbdc79b17700995d00f5a6faa5ce86bbe026f7ef05323b08cb4c8d973a9bdaf6744aa8c06cac30d52f8d3cccdc7acf34c63b01325889c74df54b2b9bdb9e06cf9d8fd2087636be345b316feebe641a7ab1bd232750e6d26ccd3a70c374046a041cbbb453376daeaff6e34c47a146f39ecb40764dd65c5fcb8c723e12376c4fbe4cbe0c66e74d0802597375ad3fc67428eac6701e30e9cfa328668ff2c34c87f1b07bf772ced7e684523eacb28d47dfb9e7d9da598eb1af56dbee5e92395dbb07be2653f5ee050e83537c2477dbc93c8a8f8cf553f7c66d28c6db483d711fe08762fe06d88181d8b281bc7b7d61de881abc8509096e9fb88ff1c902226eb8372e6d1e4331dec11a1165eef505983b1b20836618532437e7be09cce6fa1e78110bccb4ded2b27a96f85f7be365ab67eef5a5fc4cd66a63b422a311e00498c5a796f233591b5ba039965840255600c9bb6f041f930be600832796f2f394a9810353e34005ccba3fc07f9e0b26066458ebb3c292ddb59c9138520d089738b3bc02ab4099fb00073e2973515d12d5234bf939ca1d0bec8e94ebd1d5bd377691b7bc18d4963ece5236a949f77dccfbf33914ada3815dccdd4bf987ed7c0c071d2f1abaa47f3c239e0607674bcfb78c5baa3bf0cce590a679f90b1474316869dc83bec495c542f772002396e67de891eb11ef8415ee8d5dd0f5f9507e0ecbb3b1966b7cc2b7954f7808fd08806b5a3f1fc768eabb1e3cfb27feb7c77e80848baf4fc0c5533478c5adcfbedbee5f044c8e771998b2f471f1f5090e54fb363270edf3007c8f32d65ae681b3cfead27c7bb4ebb304a8c0f2eddd0bd83303fd96cfe647d381e47a3ab8d7271a742ecdb7479eccf5a9788d5b4be74395cfa370030beacad2fd7a98347eb27cb274df5e19bb67eced154cb671c52f9a2e78b3dbabe2820fdd5e17adc189db4b43b1e031edf6e2e06f97cab4ebf6fa2ce0ce97cb8bb7b81de5f5d4babfe5769c27cbc9ed58cf96bdd82f1443ca43b99e9e05be7de996cac2b7090bbc56f5052ff825eb6ee4fa2f8edb307fe52dfaf5ba250bd8a60454e14bb5448bc0570a7b21f54b35f8c7cf2f1fdf47d77f912c15381173fa86052a54f465737f6bb7f2eec5bd3e6adeb0bfb1cf99f7d8d1ed3ccc7b6ee87eb6366f23e104cc8f7d13d1fd110000680063036f726401011e6170706c69636174696f6e2f6a736f6e3b636861727365743d7574662d38004d4e017b2270223a22766f7264222c2276223a312c227479223a22696e7363222c22636f6c223a2232383133313430306463623037343737623066393836323162353866346338653931393164613830326137363865633032353436613739656637616334326532222c22696964223a22466c697070656420507570706574222c227075626c223a2231455337623370636a527a4667796969714c7278484b546e43686535364c4a485937222c226e6f6e6365223a323830332c226d696e746572223a2262633171376834396b773670306474306e686d67396b7166757572327978667065616b717a66726a6b6d222c22736967223a22473172775857633045455264686f793931386a6e5863767a576936637055572f5a3359595659544643625a474a793572644f3337707050776d6e644e6735327a6d6c56736d6f643139333658616f5171785544357257303d227d68",
        "c0f2d00e1cce0b839d2e197679cac7a15152ec244338032c7767f72c1332d49a65675a92934efa5e4869b2432a3e00abfc6819367af43949c2edc693b32d23ac05"
      ],
      "is_coinbase": false,
      "sequence": 4294967293
    }
  ],
  "vout": [
    {
      "scriptpubkey": "0014f5ea5b3b417b56f9df682d809e706a21921cf6c0",
      "scriptpubkey_asm": "OP_0 OP_PUSHBYTES_20 f5ea5b3b417b56f9df682d809e706a21921cf6c0",
      "scriptpubkey_type": "v0_p2wpkh",
      "scriptpubkey_address": "bc1q7h49kw6p0dt0nhmg9kqfuur2yxfpeakqzfrjkm",
      "value": 1000
    },
    {
      "scriptpubkey": "51208a716e52070ca810b1e3cd2bedc8983da5b927c06f362db1296fb09a8da7c15c",
      "scriptpubkey_asm": "OP_PUSHNUM_1 OP_PUSHBYTES_32 8a716e52070ca810b1e3cd2bedc8983da5b927c06f362db1296fb09a8da7c15c",
      "scriptpubkey_type": "v1_p2tr",
      "scriptpubkey_address": "bc1p3fcku5s8pj5ppv0re547mjyc8kjmjf7qdumzmvffd7cf4rd8c9wqzdj4xz",
      "value": 7633
    },
    {
      "scriptpubkey": "51200705a5767db892e98125775049b1a13dd9ecdc8aea0df413cabbee683e871012",
      "scriptpubkey_asm": "OP_PUSHNUM_1 OP_PUSHBYTES_32 0705a5767db892e98125775049b1a13dd9ecdc8aea0df413cabbee683e871012",
      "scriptpubkey_type": "v1_p2tr",
      "scriptpubkey_address": "bc1pquz62anahzfwnqf9wagynvdp8hv7ehy2agxlgy72h0hxs058zqfqk8ksyq",
      "value": 2929
    }
  ],
  "size": 4060,
  "weight": 4564,
  "fee": 12551,
  "status": {
    "confirmed": true,
    "block_height": 834464,
    "block_hash": "0000000000000000000177a0869a911a2b65c9bdcd5a8bcb02b68f305bee848e",
    "block_time": 1710308296
  },
  "hex": "020000000001010cdb6c76e0e00709ebad90ec1a38b36f9a536ffb83a21e94535668d9d6b5f0d10000000000fdffffff03e803000000000000160014f5ea5b3b417b56f9df682d809e706a21921cf6c0d11d0000000000002251208a716e52070ca810b1e3cd2bedc8983da5b927c06f362db1296fb09a8da7c15c710b0000000000002251200705a5767db892e98125775049b1a13dd9ecdc8aea0df413cabbee683e871012034003a0edd5ef7f8dc885661b5255e1e311115574a64d72be968bfdbf6eee8e3e1432929af7ac4237a314c57ae2aa41f556375d72fb8df741d5e9c9ef4e0372351dfdab0e20f2d00e1cce0b839d2e197679cac7a15152ec244338032c7767f72c1332d49a65ac0063036f726401010a696d6167652f77656270004d080252494646de0c0000574542505650384cd10c00002fffc03f007fc130926453bb0fdfb6f20fd0fe9706db469214cd1c3d33bff9f9e7c4fe7b4c8e23db56a27b70775b9201f90745b1b6993bff01a8fcc6155e9b8982ca94efdcea06581e4dd23aa26508c90930f94d7e332a42820028244021a06528096b91dacc0bd4152ab743d4bd9cd80ef5975911d81fb7b9fc79671722c7a7750bbd572101821012a40058a45c76acee27c670dcb6912489f987ddd5357bfe236202fa7a6f7ba5b7fd4b2bbcc2825ecbad977966a52e29a511439b34d2e8b2e4d0a8f0a052ae495e92547ab14ecd3ccb71eab4707368e676278d3a3d41a78a2a07e5a8046966b0c83cd0292d579a693d546969553428d36ba5afe74d7a0132a901bb6d6d73db461229542a731454f5a0660de8eeb7a11a1fdefff57def370004c155bffa3911fd9f000a9224c78da4ffbf1b05a05028a88f99d98d888809b8fdfffffff9fda71b7f7ae1a2f3e58a52b4002f54944adbc02f52a010c4e0af5080205a052f550c14d0a05f9828a259146a90835f9118abb208100142bf20d1aebc501aed2f495405016a110188b6fa2b11a3884ed1a3e046f002fc29720550a482e854d9d67eee02506c2812e585809aca48cf5a00620b012d0128ad5040019cb100541399a0a61a35d5336802ce56e4994204a85aa88cbc8f0ad454c4a98ab1e340d116807a083853313c8b0e11b97a20da15c04d0802690a50a19a4285d20094076894ca360401e72840504085242d0484888c2c1f21386551560431b450da048ab2030214e9098ae642e59834a1ad5a53ad7e7aa2bfa640d0a36aa1b205440b9908e0b4e585d200b20054ed830e0838412a040122508c4b3b28d446418280801313a04085209a9507a0ae526d82221a05240838392a635c00da28322215143490c019a2a651510a18a00e5a9471620211dd820045999415d554461b85f2004541808080d33250597fa2bc88340306a40919a7245ac55628501e630551266402320238314aa01010a9201310698fdaa8400f0115ce47940a050808400d2a6b910a88460189e840c098db59a1454094aa2608c8a2aa6a85c845016d04647036a2541b8a6a163dcd1502945620a300419ca02845f45654a1a6cd48a22a28e294042088ac551919288d5cc0201a086840706ea25b504351cf9407a04051819a1a4a41122d7c1e03dbdab3a8e522aa1919034a3db5b9b5219a052402625cdad69c411382009108087c10b94d1a252011100345888ea836915405f19448af884235d5d4414d34949920da051daaf17c385ba84379801a9467aaa8dea702418688464501f00c0e0720205a48a24d6d2a3b08505e08b20054534622f10b381ea8226253459f1aa32100a551cd085005b5d01ee7a3e51107a99aa9a0414539a3398a84e2a145a4e3a89522406d7446c9e4601580ca0d5883b6381f4f518402448d804d08022e9b8e2818cf5819c52f6df09a301b0b3a44e84834846ec8fc61adffe2d8a3425043348807aa2a40abed367a61fb47d6f618ac502850a59e50880250800a8502edaf14b6dd068db0fbe3da19a3d51c400db2b49216f50700b93c2676d7cee817300610443d83169a2854d6b41d60db4d74c1e6dadd26085554068a5d0a42915708a0288b5265a241c86503f417bdcae3281580203ad8041586191db0b976aa0bc5b12791108811a88be662bc3285205319a03413642ac476cdca13d1021430a3b36856a0061180f20055039446a93211a1321301aa8e030a28e289accdd12c2036a0859e6855e44aa8008928d48620ca2e1898d1cada1c753148f5288b48158a8d0563f2b6baca26c733ba53354a05882cda36153dad032217d0a2ba2b44cc68293a45a40a501a7901d4444d90a9710428c8a0a2f6042af0b414b95ac84a01954c450330a0b920a0ad8cb483cc07614e8c541965a6da5e15220055073476c4e0e38b71140f5e839ae8296b31bc877edca5008e0250285000aa0628d404b4080834c23f1e830504511e466b1224695399a8b9292bbf8c519e1cb322558368c9b77085267eb5d7af4c35e571fc49942a3b60c0ff3d0d112214fb05d9c538dd0a14896a0a852a80a2cdd51fc9b8cc885fed1ad979e37d9fa90a4251a40d20a2b136d76f7361fd4abc036e3e545719a5c89aff7954fed5eb9733b6f0f677bb9b9e42a128556df371e1354d0802b31834ff32bbebcdebdb63849257afd1e20332b2bdfa1f892d3266db6be75bfa4021de64a4eb7f6ba1234b5d99eb1d6fc7509e855f6daf5f957c981b3fbcb6bfd50fc00eefc5cd07a241bafecd4d63c3873bde8ea59c6d87ed0db4761e0a0d781de77174928607adddc7428bedd5fec7df87ace57bf6d67ecf9bbde29a87ac23677f1c096b5e5be7d6b57c2ffbb8e52d5d70437df5d76affcf3a766e3e04d7ecdadcf59e1fc3db00ff6ed0e0ff381e577e996dffdb0f3fcfbfcc9debd7fb30eea8af78c086f301b9307cf57b8b7b28f7d67cc7fc9cde5b1feb6de07d3e083df2617b6db0ede736f7de8ef344d9c3abbe567b3e2ecb00c0cabaf31314f85aedf9c8ac05d1bafbbb6cff77dfed684f7cd3a272efdedabc0119f3c0db01a779edf01e2ad1338f3d222da2d7b0b1ee687e22e310bb471f85a57523dbb579f4ede03b7e378247a1b676a7d8fe118fbf3d1bf7a977d87e5b87669dbc3d178ff296aa183ec6ed196efcb4a67d7a0fcbdfaf7fdddbed396e789c7a03bdbfdddbed59ee38b187286a29fa6dcf9fcf3f32e7c4596e31f4fb3ddd9ee8d6da7ace9923e01c93bd9fdb73ddf10e56116bdbf32e6f4f77cb0d70acbaed79f8edb91f814ebe394f6e0b0fc0f97c52dcf3003f941be7f366bffb1e9f212ba437b03e8fbf3dffbd0f06518fe579cb13e0963d2a7cc77b617d1e7f3b87fbaabf1b6c94dd6f8c07ce27e73793fdfb0e2aec4d08027adef423b84eafdd9564ee7efdfefd39dccee075980f641e3fd9a08fbbd6dce7c398874f6531beeb9a5e06d9c7300f9f3af44dd7eac59eec839a0f5ddcc013ba36daf6640fe0be79c369003c3f1fcebce53486e7726d2e3c066efa71de72ca2f5d3c936b67c587f2c10653f5625fdb27dbcfe2da5d78b23d003fca4ff396958b7d6d9fd2375c07161ef5d7bf3dc4c73cfa779e3da597b2c953637fd7a185277b84edfd7cd9c5c7bce9945fcaeb2868ed3abce231f63ebe56dbf3f129bd94b47bea6cecbae1c5f6647b90ff72eecbab3d6f3ea597f4daee2ea0a7eba68527db830c67be56dbf3e653b5a0d343a0a1ebc68527dbc3c29c7fcc3b9df24b49dff414bc15853dd9433e2663d7bccfa9f1625ffb47d18c6d5f2fdb9078b2473cfa54bfd8a6dff634bc9dcb565078b2bdbb0fb699ea9727467ef15614f66453e4831d4c8d97f23ad09bd08eb723f1647b1f15a7ea25a79cbb70833723b127db0730d52f55464d9bb6e0d68bbd1924f6543ed454bf5419eccde0be797764f694de32d52f751e87dbdc79b17700995d00f5a6faa5ce86bbe026f7ef05323b08cb4c8d973a9bdaf6744aa8c06cac30d52f8d3cccdc7acf34c63b01325889c74df54b2b9bdb9e06cf9d8fd2087636be345b316feebe641a7ab1bd232750e6d26ccd3a70c374046a041cbbb453376daeaff6e34c47a146f39ecb40764dd65c5fcb8c723e12376c4fbe4cbe0c66e74d0802597375ad3fc67428eac6701e30e9cfa328668ff2c34c87f1b07bf772ced7e684523eacb28d47dfb9e7d9da598eb1af56dbee5e92395dbb07be2653f5ee050e83537c2477dbc93c8a8f8cf553f7c66d28c6db483d711fe08762fe06d88181d8b281bc7b7d61de881abc8509096e9fb88ff1c902226eb8372e6d1e4331dec11a1165eef505983b1b20836618532437e7be09cce6fa1e78110bccb4ded2b27a96f85f7be365ab67eef5a5fc4cd66a63b422a311e00498c5a796f233591b5ba039965840255600c9bb6f041f930be600832796f2f394a9810353e34005ccba3fc07f9e0b26066458ebb3c292ddb59c9138520d089738b3bc02ab4099fb00073e2973515d12d5234bf939ca1d0bec8e94ebd1d5bd377691b7bc18d4963ece5236a949f77dccfbf33914ada3815dccdd4bf987ed7c0c071d2f1abaa47f3c239e0607674bcfb78c5baa3bf0cce590a679f90b1474316869dc83bec495c542f772002396e67de891eb11ef8415ee8d5dd0f5f9507e0ecbb3b1966b7cc2b7954f7808fd08806b5a3f1fc768eabb1e3cfb27feb7c77e80848baf4fc0c5533478c5adcfbedbee5f044c8e771998b2f471f1f5090e54fb363270edf3007c8f32d65ae681b3cfead27c7bb4ebb304a8c0f2eddd0bd83303fd96cfe647d381e47a3ab8d7271a742ecdb7479eccf5a9788d5b4be74395cfa370030beacad2fd7a98347eb27cb274df5e19bb67eced154cb671c52f9a2e78b3dbabe2820fdd5e17adc189db4b43b1e031edf6e2e06f97cab4ebf6fa2ce0ce97cb8bb7b81de5f5d4babfe5769c27cbc9ed58cf96bdd82f1443ca43b99e9e05be7de996cac2b7090bbc56f5052ff825eb6ee4fa2f8edb307fe52dfaf5ba250bd8a60454e14bb5448bc0570a7b21f54b35f8c7cf2f1fdf47d77f912c15381173fa86052a54f465737f6bb7f2eec5bd3e6adeb0bfb1cf99f7d8d1ed3ccc7b6ee87eb6366f23e104cc8f7d13d1fd110000680063036f726401011e6170706c69636174696f6e2f6a736f6e3b636861727365743d7574662d38004d4e017b2270223a22766f7264222c2276223a312c227479223a22696e7363222c22636f6c223a2232383133313430306463623037343737623066393836323162353866346338653931393164613830326137363865633032353436613739656637616334326532222c22696964223a22466c697070656420507570706574222c227075626c223a2231455337623370636a527a4667796969714c7278484b546e43686535364c4a485937222c226e6f6e6365223a323830332c226d696e746572223a2262633171376834396b773670306474306e686d67396b7166757572327978667065616b717a66726a6b6d222c22736967223a22473172775857633045455264686f793931386a6e5863767a576936637055572f5a3359595659544643625a474a793572644f3337707050776d6e644e6735327a6d6c56736d6f643139333658616f5171785544357257303d227d6841c0f2d00e1cce0b839d2e197679cac7a15152ec244338032c7767f72c1332d49a65675a92934efa5e4869b2432a3e00abfc6819367af43949c2edc693b32d23ac0500000000"
}