{
  "txid": "32314eda394852f8a771fd1a2879cc3ce819464b9f5547f7afcbdd128689f68d",
  "version": 2,
  "locktime": 0,
  "vin": [
    {
      "txid": "ca49732a8789b812361e997512b66bc3787f1e3ff39f5f0d8b845e09438043f6",
      "vout": 1,
      "prevout": {
        "scriptpubkey": "5120a93105bc845caeb357d52c9fd365d04a93c33e0d529810f18e5fb144ce443d01",
        "scriptpubkey_asm": "OP_PUSHNUM_1 OP_PUSHBYTES_32 a93105bc845caeb357d52c9fd365d04a93c33e0d529810f18e5fb144ce443d01",
        "scriptpubkey_type": "v1_p2tr",
        "scriptpubkey_address": "bc1p4ycst0yytjhtx4749j0axewsf2fux0sd22vppuvwt7c5fnjy85qskmavyw",
        "value": 2066
      },
      "scriptsig": "",
      "scriptsig_asm": "",
      "witness": [
        "d487f21c6e50546ca84dbb7033f6969612fcd7fb881282038120b12f222da7dcfecf94e450d6d29a273871810b4b1550b741fedc27e8135c946552c1d35595d7",
        "201ca73623673bb6cbd7b28baf2621916c48df4e91db17dbb0e0a0b9c9d13868a6ac0063036f726401010a746578742f706c61696e00367b2270223a226272632d3230222c226f70223a226d696e74222c227469636b223a2261616161222c22616d74223a223130303030227d68",
        "c01ca73623673bb6cbd7b28baf2621916c48df4e91db17dbb0e0a0b9c9d13868a6"
      ],
      "is_coinbase": false,
      "sequence": 4261412863
    }
  ],
  "vout": [
    {
      "scriptpubkey": "0014b12a255b419b46c01324705abea5fd2949f55051",
      "scriptpubkey_asm": "OP_0 OP_PUSHBYTES_20 b12a255b419b46c01324705abea5fd2949f55051",
      "scriptpubkey_type": "v0_p2wpkh",
      "scriptpubkey_address": "bc1qky4z2k6pndrvqyeywpdtaf0a99yl25z3zp84r6",
      "value": 294
    }
  ],
  "size": 295,
  "weight": 541,
  "fee": 1772,
  "status": {
    "confirmed": true,
    "block_height": 834460,
    "block_hash": "00000000000000000000484a79b643b2524bbce82e5d8a442013fa5b8905ed98",
    "block_time": 1710307468
  },
  "hex": "02000000000101f6438043095e848b0d5f9ff33f1e7f78c36bb61275991e3612b889872a7349ca0100000000fffffffd012601000000000000160014b12a255b419b46c01324705abea5fd2949f550510340d487f21c6e50546ca84dbb7033f6969612fcd7fb881282038120b12f222da7dcfecf94e450d6d29a273871810b4b1550b741fedc27e8135c946552c1d35595d76e201ca73623673bb6cbd7b28baf2621916c48df4e91db17dbb0e0a0b9c9d13868a6ac0063036f726401010a746578742f706c61696e00367b2270223a226272632d3230222c226f70223a226d696e74222c227469636b223a2261616161222c22616d74223a223130303030227d6821c01ca73623673bb6cbd7b28baf2621916c48df4e91db17dbb0e0a0b9c9d13868a600000000"
}