{
  "txid": "3246885e3589c52413fcb2844e78ecfaad3ec8a491a3e87934cb9122c0e22877",
  "version": 2,
  "locktime": 0,
  "vin": [
    {
      "txid": "8d8f9ce2baec7a5db57aa559f20d80e2bcc18647d85086c7a702b5117045ee0e",
      "vout": 0,
      "prevout": {
        "scriptpubkey": "5120d5ef92be5520ac7df9e88b54d2bacc2ff3ec04db3c9e3ee1c9fdea2bea1f6af6",
        "scriptpubkey_asm": "OP_PUSHNUM_1 OP_PUSHBYTES_32 d5ef92be5520ac7df9e88b54d2bacc2ff3ec04db3c9e3ee1c9fdea2bea1f6af6",
        "scriptpubkey_type": "v1_p2tr",
        "scriptpubkey_address": "bc1p6hhe90j4yzk8m70g3d2d9wkv9le7cpxm8j0racwflh4zh6sldtmqv60lch",
        "value": 2826
      },
      "scriptsig": "",
      "scriptsig_asm": "",
      "witness": [
        "3d019f3a313ffee5cd718ef8e74bc89f0fbfb16c93990a137aea4a84bdba7dd971da7bfae65effca68e4ccd441a5006d57acb0bc96c8d9b9ed2c85c85736614b",
        "20d47d2dc3c1cf1d5446256b48fe492cf2446a502a8f94344acb08f825bc1b89d7ac0063036f7264010118746578742f706c61696e3b636861727365743d7574662d3800397b2270223a226272632d3230222c226f70223a227472616e73666572222c227469636b223a227378696f222c22616d74223a2233303030227d68",
        "c0d47d2dc3c1cf1d5446256b48fe492cf2446a502a8f94344acb08f825bc1b89d7"
      ],
      "is_coinbase": false,
      "sequence": 4294967293
    }
  ],
  "vout": [
    {
      "scriptpubkey": "512062788e33245345425f257ce348df8f9ca70ab21597570291c398580f6b7dccb1",
      "scriptpubkey_asm": "OP_PUSHNUM_1 OP_PUSHBYTES_32 62788e33245345425f257ce348df8f9ca70ab21597570291c398580f6b7dccb1",
      "scriptpubkey_type": "v1_p2tr",
      "scriptpubkey_address": "bc1pvfuguvey2dz5yhe90n353hu0njns4vs4jats9ywrnpvq76maejcsc68dn9",
      "value": 546
    }
  ],
  "size": 324,
  "weight": 606,
  "fee": 2280,
  "status": {
    "confirmed": true,
    "block_height": 834638,
    "block_hash": "000000000000000000025f742c626208ac87e0b7d15054abb4a19ca2d735a54e",
    "block_time": 1710405325
  },
  "hex": "020000000001010eee457011b502a7c78650d84786c1bce2800df259a57ab55d7aecbae29c8f8d0000000000fdffffff01220200000000000022512062788e33245345425f257ce348df8f9ca70ab21597570291c398580f6b7dccb103403d019f3a313ffee5cd718ef8e74bc89f0fbfb16c93990a137aea4a84bdba7dd971da7bfae65effca68e4ccd441a5006d57acb0bc96c8d9b9ed2c85c85736614b7f20d47d2dc3c1cf1d5446256b48fe492cf2446a502a8f94344acb08f825bc1b89d7ac0063036f7264010118746578742f706c61696e3b636861727365743d7574662d3800397b2270223a226272632d3230222c226f70223a227472616e73666572222c227469636b223a227378696f222c22616d74223a2233303030227d6821c0d47d2dc3c1cf1d5446256b48fe492cf2446a502a8f94344acb08f825bc1b89d700000000"
}