{
  "txid": "324e5bd3bedb728774c033194183a904ed80ef21c4e44aaa22593b728cac32bf",
  "version": 2,
  "locktime": 0,
  "vin": [
    {
      "txid": "0b2f9091391fb6e29025e397e150a2988efc4e732b6a1a4e8572b2daf4a8fc83",
      "vout": 12,
      "prevout": {
        "scriptpubkey": "5120b7aa99bf8cbc1455592f690e086f5ca41eca074db1509b6f34843e70549ce736",
        "scriptpubkey_asm": "OP_PUSHNUM_1 OP_PUSHBYTES_32 b7aa99bf8cbc1455592f690e086f5ca41eca074db1509b6f34843e70549ce736",
        "scriptpubkey_type": "v1_p2tr",
        "scriptpubkey_address": "bc1pk74fn0uvhs292kf0dy8qsm6u5s0v5p6dk9gfkme5ssl8q4yuuumqhd5qq3",
        "value": 1711
      },
      "scriptsig": "",
      "scriptsig_asm": "",
      "witness": [
        "02",
        "750063036f726401010a746578742f706c61696e00367b2270223a226272632d3230222c226f70223a226d696e74222c227469636b223a2261616161222c22616d74223a223130303030227d6851",
        "c1b4195b6f3e8ccd6f9c6327fd7ac32b709a0dd80e920cdb63524e3fd9aaa03513"
      ],
      "is_coinbase": false,
      "sequence": 4294967295
    }
  ],
  "vout": [
    {
      "scriptpubkey": "0014a40897ac0756778584e7dbe457cca54abc6daf4c",
      "scriptpubkey_asm": "OP_0 OP_PUSHBYTES_20 a40897ac0756778584e7dbe457cca54abc6daf4c",
      "scriptpubkey_type": "v0_p2wpkh",
      "scriptpubkey_address": "bc1q5syf0tq82emctp88m0j90n99f27xmt6v2f79lx",
      "value": 294
    }
  ],
  "size": 200,
  "weight": 446,
  "fee": 1417,
  "status": {
    "confirmed": true,
    "block_height": 834460,
    "block_hash": "00000000000000000000484a79b643b2524bbce82e5d8a442013fa5b8905ed98",
    "block_time": 1710307468
  },
  "hex": "0200000000010183fca8f4dab272854e1a6a2b734efc8e98a250e197e32590e2b61f3991902f0b0c00000000ffffffff012601000000000000160014a40897ac0756778584e7dbe457cca54abc6daf4c0301024e750063036f726401010a746578742f706c61696e00367b2270223a226272632d3230222c226f70223a226d696e74222c227469636b223a2261616161222c22616d74223a223130303030227d685121c1b4195b6f3e8ccd6f9c6327fd7ac32b709a0dd80e920cdb63524e3fd9aaa0351300000000"
}