{
  "txid": "32581354946c249046daf4acb0a2296e3b446c44e0d7cb8529a54cdb90fe93e8",
  "version": 2,
  "locktime": 834637,
  "vin": [
    {
      "txid": "439244f511b166cd6d42ead2eed20044af5d22374681f34d49933a2c9a2c65dd",
      "vout": 0,
      "prevout": {
        "scriptpubkey": "0014ea3db9479ce71799c76f8afa6fa6a080fae022db",
        "scriptpubkey_asm": "OP_0 OP_PUSHBYTES_20 ea3db9479ce71799c76f8afa6fa6a080fae022db",
        "scriptpubkey_type": "v0_p2wpkh",
        "scriptpubkey_address": "bc1qag7mj3uuuuten3m03taxlf4qsrawqgkmtzmccz",
        "value": 983200
      },
      "scriptsig": "",
      "scriptsig_asm": "",
      "witness": [
        "30440220395503048d43d26b86f54d81017f8f5149fa9b6978b9b34a553ca6617795aa1702204c4721cc0529a5a708f009d3b5ef9e6edc15aa78fb4ca188f67f28824532bfbe01",
        "023341502e66ab10170a0a6c9d395c9d2046e2144245722125fb587dbcde4970aa"
      ],
      "is_coinbase": false,
      "sequence": 4294967294
    },
    {
      "txid": "8f05cf693a138638fe7cbc8afefa8b50ea6bae0384cbff7c908e6e74c5503e4d",
      "vout": 0,
      "prevout": {
        "scriptpubkey": "0014f0d8a5789dc404560f055cfa68aed5fe26ffee89",
        "scriptpubkey_asm": "OP_0 OP_PUSHBYTES_20 f0d8a5789dc404560f055cfa68aed5fe26ffee89",
        "scriptpubkey_type": "v0_p2wpkh",
        "scriptpubkey_address": "bc1q7rv227yacsz9vrc9tnax3tk4lcn0lm5fyfjyrs",
        "value": 411900
      },
      "scriptsig": "",
      "scriptsig_asm": "",
      "witness": [
        "304402206c352559cf20aed4003b2e62a4715db365c2e00dec9573a02852b4e190bc26e402203ad77ce26fa2f268e3e77398dfad01ab7e881cbf1845390e88004b6ef8246d3201",
        "02868e4d02a038e41eb4ca7e0f877f6107d7695836d3a96deaea510242827ae56a"
      ],
      "is_coinbase": false,
      "sequence": 4294967294
    },
    {
      "txid": "5cbbb925bde518747b20022cb3771f4ab6b86008527e5ef8a36c245c949e602c",
      "vout": 0,
      "prevout": {
        "scriptpubkey": "0014676c4f73fe7f314f9787917777006267207b3d6e",
        "scriptpubkey_asm": "OP_0 OP_PUSHBYTES_20 676c4f73fe7f314f9787917777006267207b3d6e",
        "scriptpubkey_type": "v0_p2wpkh",
        "scriptpubkey_address": "bc1qvaky7ul70uc5l9u8j9mhwqrzvus8k0twv283y6",
        "value": 124740
      },
      "scriptsig": "",
      "scriptsig_asm": "",
      "witness": [
        "3044022021a3b85ab2eaed72a2baaa060923bfd8911ba8b98b7f051afb818dad6112529702200095255f0866b73c56b0cc41ca70d578a9194f777aebd0424d05041f4e2239d501",
        "02f23d96c77bd1f98b2bc7a3752bbf06272aaee7240f4bd828175cdae641180c97"
      ],
      "is_coinbase": false,
      "sequence": 4294967294
    }
  ],
  "vout": [
    {
      "scriptpubkey": "001469a73bdc3f9cb1e8f23b690ff45bc9511638958e",
      "scriptpubkey_asm": "OP_0 OP_PUSHBYTES_20 69a73bdc3f9cb1e8f23b690ff45bc9511638958e",
      "scriptpubkey_type": "v0_p2wpkh",
      "scriptpubkey_address": "bc1qdxnnhhplnjc73u3mdy8lgk7f2ytr39vwr6s8mj",
      "value": 1514293
    }
  ],
  "size": 487,
  "weight": 979,
  "fee": 5547,
  "status": {
    "confirmed": true,
    "block_height": 834638,
    "block_hash": "000000000000000000025f742c626208ac87e0b7d15054abb4a19ca2d735a54e",
    "block_time": 1710405325
  },
  "hex": "02000000000103dd652c9a2c3a93494df3814637225daf4400d2eed2ea426dcd66b111f54492430000000000feffffff4d3e50c5746e8e907cffcb8403ae6bea508bfafe8abc7cfe3886133a69cf058f0000000000feffffff2c609e945c246ca3f85e7e520860b8b64a1f77b32c02207b7418e5bd25b9bb5c0000000000feffffff01351b17000000000016001469a73bdc3f9cb1e8f23b690ff45bc9511638958e024730440220395503048d43d26b86f54d81017f8f5149fa9b6978b9b34a553ca6617795aa1702204c4721cc0529a5a708f009d3b5ef9e6edc15aa78fb4ca188f67f28824532bfbe0121023341502e66ab10170a0a6c9d395c9d2046e2144245722125fb587dbcde4970aa0247304402206c352559cf20aed4003b2e62a4715db365c2e00dec9573a02852b4e190bc26e402203ad77ce26fa2f268e3e77398dfad01ab7e881cbf1845390e88004b6ef8246d32012102868e4d02a038e41eb4ca7e0f877f6107d7695836d3a96deaea510242827ae56a02473044022021a3b85ab2eaed72a2baaa060923bfd8911ba8b98b7f051afb818dad6112529702200095255f0866b73c56b0cc41ca70d578a9194f777aebd0424d05041f4e2239d5012102f23d96c77bd1f98b2bc7a3752bbf06272aaee7240f4bd828175cdae641180c974dbc0c00"
}