{
  "txid": "3261ea87aa7e8d461e6f7e8d0b1e6d5418e1ea542ab21472eeb0bc2c997fb01f",
  "version": 1,
  "locktime": 0,
  "vin": [
    {
      "txid": "0ac11e7ae250d2b93934d984ef1ed55dc1faff3451dfbcb0d6e487151ab6b8a7",
      "vout": 5,
      "prevout": {
        "scriptpubkey": "76a914d0b10d49d26bc2c9403d3ac7d421f7d0006d9a7288ac",
        "scriptpubkey_asm": "OP_DUP OP_HASH160 OP_PUSHBYTES_20 d0b10d49d26bc2c9403d3ac7d421f7d0006d9a72 OP_EQUALVERIFY OP_CHECKSIG",
        "scriptpubkey_type": "p2pkh",
        "scriptpubkey_address": "1L2TegcQNj7ZzveJnnhXnoX2GgKdz8Yeuq",
        "value": 234040
      },
      "scriptsig": "483045022100a3f92189990828ae9a1dd8c58491c0804649ab4f1c09e99d6b821f96789c94a7022051ed1028b8c1e4b13e3ea2e2e37e0e7a084da5a93a52df20988753c877cd4418012103c946d9ad6a30eccaf7afbca4fe0e8c3483a295ed0a9ce427dc27ec54b4828fcc",
      "scriptsig_asm": "OP_PUSHBYTES_72 3045022100a3f92189990828ae9a1dd8c58491c0804649ab4f1c09e99d6b821f96789c94a7022051ed1028b8c1e4b13e3ea2e2e37e0e7a084da5a93a52df20988753c877cd441801 OP_PUSHBYTES_33 03c946d9ad6a30eccaf7afbca4fe0e8c3483a295ed0a9ce427dc27ec54b4828fcc",
      "is_coinbase": false,
      "sequence": 4294967295
    }
  ],
  "vout": [
    {
      "scriptpubkey": "76a914c224901e8858137336989f68f7c0db4e8857522f88ac",
      "scriptpubkey_asm": "OP_DUP OP_HASH160 OP_PUSHBYTES_20 c224901e8858137336989f68f7c0db4e8857522f OP_EQUALVERIFY OP_CHECKSIG",
      "scriptpubkey_type": "p2pkh",
      "scriptpubkey_address": "1JhXtexmSM5ER5H4Th38JTNZ4Lyt98xoyc",
      "value": 230200
    }
  ],
  "size": 192,
  "weight": 768,
  "fee": 3840,
  "status": {
    "confirmed": true,
    "block_height": 834638,
    "block_hash": "000000000000000000025f742c626208ac87e0b7d15054abb4a19ca2d735a54e",
    "block_time": 1710405325
  },
  "hex": "0100000001a7b8b61a1587e4d6b0bcdf5134fffac15dd51eef84d93439b9d250e27a1ec10a050000006b483045022100a3f92189990828ae9a1dd8c58491c0804649ab4f1c09e99d6b821f96789c94a7022051ed1028b8c1e4b13e3ea2e2e37e0e7a084da5a93a52df20988753c877cd4418012103c946d9ad6a30eccaf7afbca4fe0e8c3483a295ed0a9ce427dc27ec54b4828fccffffffff0138830300000000001976a914c224901e8858137336989f68f7c0db4e8857522f88ac00000000"
}