{
  "txid": "3266ba11cef272e1b67481c00099a6e0983743ee0f8497440585ddd167406899",
  "version": 1,
  "locktime": 0,
  "vin": [
    {
      "txid": "c467a881148dfc23854b28054550ec5c2788ef92638f8f09622a99794af23c6b",
      "vout": 1,
      "prevout": {
        "scriptpubkey": "00142cc858e2440840d226af14726a7c59860afbee09",
        "scriptpubkey_asm": "OP_0 OP_PUSHBYTES_20 2cc858e2440840d226af14726a7c59860afbee09",
        "scriptpubkey_type": "v0_p2wpkh",
        "scriptpubkey_address": "bc1q9ny93cjyppqdyf40z3ex5lzesc90hmsfdwsfad",
        "value": 166440
      },
      "scriptsig": "",
      "scriptsig_asm": "",
      "witness": [
        "304502210094a073893346ae1f46983a35248ad032a5a1c5c07a15d15fb504dff6be2aad5e02200930bb0094af0a6960687d8e83862de06fce663021a7cb93b449e1560f586dbc01",
        "03531e943dbba2ba06dad41a192c7de4e841d3221e14418ea8d641ea97ece1f938"
      ],
      "is_coinbase": false,
      "sequence": 4294967295
    }
  ],
  "vout": [
    {
      "scriptpubkey": "0014a5886e6494f82c5840de24146030d57efc5752e8",
      "scriptpubkey_asm": "OP_0 OP_PUSHBYTES_20 a5886e6494f82c5840de24146030d57efc5752e8",
      "scriptpubkey_type": "v0_p2wpkh",
      "scriptpubkey_address": "bc1q5kyxuey5lqk9ssx7ys2xqvx40m79w5hglyspf7",
      "value": 81689
    },
    {
      "scriptpubkey": "00142cc858e2440840d226af14726a7c59860afbee09",
      "scriptpubkey_asm": "OP_0 OP_PUSHBYTES_20 2cc858e2440840d226af14726a7c59860afbee09",
      "scriptpubkey_type": "v0_p2wpkh",
      "scriptpubkey_address": "bc1q9ny93cjyppqdyf40z3ex5lzesc90hmsfdwsfad",
      "value": 82551
    }
  ],
  "size": 223,
  "weight": 562,
  "fee": 2200,
  "status": {
    "confirmed": true,
    "block_height": 834638,
    "block_hash": "000000000000000000025f742c626208ac87e0b7d15054abb4a19ca2d735a54e",
    "block_time": 1710405325
  },
  "hex": "010000000001016b3cf24a79992a62098f8f6392ef88275cec504505284b8523fc8d1481a867c40100000000ffffffff02193f010000000000160014a5886e6494f82c5840de24146030d57efc5752e877420100000000001600142cc858e2440840d226af14726a7c59860afbee090248304502210094a073893346ae1f46983a35248ad032a5a1c5c07a15d15fb504dff6be2aad5e02200930bb0094af0a6960687d8e83862de06fce663021a7cb93b449e1560f586dbc012103531e943dbba2ba06dad41a192c7de4e841d3221e14418ea8d641ea97ece1f93800000000"
}