{
  "txid": "326d0359570720abcbfbd94c8b2420484b6422f597a4100bf247fdbadf6679ef",
  "version": 1,
  "locktime": 0,
  "vin": [
    {
      "txid": "a76bd0362b1cf81add1b18f06276c10446b52e55ee962ba13b521b80783a91a9",
      "vout": 52,
      "prevout": {
        "scriptpubkey": "76a914def3924ea49d2e21396515cd436c18629febbe3088ac",
        "scriptpubkey_asm": "OP_DUP OP_HASH160 OP_PUSHBYTES_20 def3924ea49d2e21396515cd436c18629febbe30 OP_EQUALVERIFY OP_CHECKSIG",
        "scriptpubkey_type": "p2pkh",
        "scriptpubkey_address": "1MKroESYsVksrNZn4roLci8co1v2D9q9yn",
        "value": 1488799
      },
      "scriptsig": "47304402205b23eb5f1e610d0e8e26b109fff76ea83ac5969f0b6eaf9de3b04a22e1625e380220249a6a27cfbb4c5402d06e2e76b4b13298ee4110d22a352c228b347beeb38a6c01210391a700f8ee73b418a707e506a68ea27fe725b2a8b85d29a2935982cb5545bd2e",
      "scriptsig_asm": "OP_PUSHBYTES_71 304402205b23eb5f1e610d0e8e26b109fff76ea83ac5969f0b6eaf9de3b04a22e1625e380220249a6a27cfbb4c5402d06e2e76b4b13298ee4110d22a352c228b347beeb38a6c01 OP_PUSHBYTES_33 0391a700f8ee73b418a707e506a68ea27fe725b2a8b85d29a2935982cb5545bd2e",
      "is_coinbase": false,
      "sequence": 4294967295
    }
  ],
  "vout": [
    {
      "scriptpubkey": "0014a8e4f30b21c2b416a0d465f0517ca88a4c6455be",
      "scriptpubkey_asm": "OP_0 OP_PUSHBYTES_20 a8e4f30b21c2b416a0d465f0517ca88a4c6455be",
      "scriptpubkey_type": "v0_p2wpkh",
      "scriptpubkey_address": "bc1q4rj0xzepc26pdgx5vhc9zl9g3fxxg4d7yse6ld",
      "value": 1480397
    },
    {
      "scriptpubkey": "76a91474547f55b8e4061aeb929ecdb186316887cd59d488ac",
      "scriptpubkey_asm": "OP_DUP OP_HASH160 OP_PUSHBYTES_20 74547f55b8e4061aeb929ecdb186316887cd59d4 OP_EQUALVERIFY OP_CHECKSIG",
      "scriptpubkey_type": "p2pkh",
      "scriptpubkey_address": "1Bc6cEcdPYXPZAGkT3gQng2U7qoui17qsH",
      "value": 820
    }
  ],
  "size": 222,
  "weight": 888,
  "fee": 7582,
  "status": {
    "confirmed": true,
    "block_height": 834638,
    "block_hash": "000000000000000000025f742c626208ac87e0b7d15054abb4a19ca2d735a54e",
    "block_time": 1710405325
  },
  "hex": "0100000001a9913a78801b523ba12b96ee552eb54604c17662f0181bdd1af81c2b36d06ba7340000006a47304402205b23eb5f1e610d0e8e26b109fff76ea83ac5969f0b6eaf9de3b04a22e1625e380220249a6a27cfbb4c5402d06e2e76b4b13298ee4110d22a352c228b347beeb38a6c01210391a700f8ee73b418a707e506a68ea27fe725b2a8b85d29a2935982cb5545bd2effffffff02cd96160000000000160014a8e4f30b21c2b416a0d465f0517ca88a4c6455be34030000000000001976a91474547f55b8e4061aeb929ecdb186316887cd59d488ac00000000"
}