{
  "txid": "32868f50ec9960ecfdd38396f39eddfad2308d41f9c0e953bfb34332de83c9aa",
  "version": 2,
  "locktime": 0,
  "vin": [
    {
      "txid": "971278e6f20d615f999ff462dd6d668eaa73d0b7f00147ffdcdbace231152de2",
      "vout": 29,
      "prevout": {
        "scriptpubkey": "51209b821318a6bc72d972c5e81f78ab3cba515c263771d37b5f34ac076255ee1e79",
        "scriptpubkey_asm": "OP_PUSHNUM_1 OP_PUSHBYTES_32 9b821318a6bc72d972c5e81f78ab3cba515c263771d37b5f34ac076255ee1e79",
        "scriptpubkey_type": "v1_p2tr",
        "scriptpubkey_address": "bc1pnwppxx9xh3edjuk9aq0h32euhfg4cf3hw8fhkhe54srky40wreussgkyfw",
        "value": 104076
      },
      "scriptsig": "",
      "scriptsig_asm": "",
      "witness": [
        "bb687ed23cc8d7079247e5a4fa89c9219bd745ff7930b4ec2262e8f9e9819b0cb5d4b002a928ae74f14f44773c7abbc3da919ca4e311a56369b94d1d219fc9df"
      ],
      "is_coinbase": false,
      "sequence": 4294967295
    }
  ],
  "vout": [
    {
      "scriptpubkey": "76a9144f941bfb09f03b784dcd210a4aea0df3715d29fd88ac",
      "scriptpubkey_asm": "OP_DUP OP_HASH160 OP_PUSHBYTES_20 4f941bfb09f03b784dcd210a4aea0df3715d29fd OP_EQUALVERIFY OP_CHECKSIG",
      "scriptpubkey_type": "p2pkh",
      "scriptpubkey_address": "18FmoyD9bqQHx6AYfANgytzrVvn6WCM42H",
      "value": 100000
    },
    {
      "scriptpubkey": "51209b821318a6bc72d972c5e81f78ab3cba515c263771d37b5f34ac076255ee1e79",
      "scriptpubkey_asm": "OP_PUSHNUM_1 OP_PUSHBYTES_32 9b821318a6bc72d972c5e81f78ab3cba515c263771d37b5f34ac076255ee1e79",
      "scriptpubkey_type": "v1_p2tr",
      "scriptpubkey_address": "bc1pnwppxx9xh3edjuk9aq0h32euhfg4cf3hw8fhkhe54srky40wreussgkyfw",
      "value": 2191
    }
  ],
  "size": 196,
  "weight": 580,
  "fee": 1885,
  "status": {
    "confirmed": true,
    "block_height": 834460,
    "block_hash": "00000000000000000000484a79b643b2524bbce82e5d8a442013fa5b8905ed98",
    "block_time": 1710307468
  },
  "hex": "02000000000101e22d1531e2acdbdcff4701f0b7d073aa8e666ddd62f49f995f610df2e67812971d00000000ffffffff02a0860100000000001976a9144f941bfb09f03b784dcd210a4aea0df3715d29fd88ac8f080000000000002251209b821318a6bc72d972c5e81f78ab3cba515c263771d37b5f34ac076255ee1e790140bb687ed23cc8d7079247e5a4fa89c9219bd745ff7930b4ec2262e8f9e9819b0cb5d4b002a928ae74f14f44773c7abbc3da919ca4e311a56369b94d1d219fc9df00000000"
}