{
  "txid": "328ed7802c8b40182f8b05b7e440ed1ab7f3c5af750f4c28e1e1ba8d56df3dc3",
  "version": 2,
  "locktime": 0,
  "vin": [
    {
      "txid": "acc3ba00869acb582a3f2904ce3a11dd3779350ce234063fc7d0959246213364",
      "vout": 75,
      "prevout": {
        "scriptpubkey": "5120707931331e2a1a177c7839dc71f58ce092bd314061431a53f97ba5c0f3017150",
        "scriptpubkey_asm": "OP_PUSHNUM_1 OP_PUSHBYTES_32 707931331e2a1a177c7839dc71f58ce092bd314061431a53f97ba5c0f3017150",
        "scriptpubkey_type": "v1_p2tr",
        "scriptpubkey_address": "bc1pwpunzvc79gdpwlrc88w8ravvuzft6v2qv9p355le0wjupucpw9gqce3z6u",
        "value": 1806
      },
      "scriptsig": "",
      "scriptsig_asm": "",
      "witness": [
        "ef1fdfa91cc85a02c5963d8d6970efa947790e368aa7ebd96a3c12163a2105e1328a250cc933b2bf3c2846a7144528bd78d9e7174db9a3c20fdb2492e62b1071",
        "20a9dd9542dbe9619452db77ccd46f3829bc6b12e6725044a822b5ec041b437142ac0063036f726401010a746578742f706c61696e00357b2270223a226272632d3230222c226f70223a226d696e74222c227469636b223a22646f6765222c22616d74223a2234323030227d68",
        "c0a9dd9542dbe9619452db77ccd46f3829bc6b12e6725044a822b5ec041b437142"
      ],
      "is_coinbase": false,
      "sequence": 4261412863
    }
  ],
  "vout": [
    {
      "scriptpubkey": "00147a665de7a370f4c9b372ab1fae587500a5bcbdb4",
      "scriptpubkey_asm": "OP_0 OP_PUSHBYTES_20 7a665de7a370f4c9b372ab1fae587500a5bcbdb4",
      "scriptpubkey_type": "v0_p2wpkh",
      "scriptpubkey_address": "bc1q0fn9mearwr6vnvmj4v06ukr4qzjme0d565dzcx",
      "value": 294
    }
  ],
  "size": 294,
  "weight": 540,
  "fee": 1512,
  "status": {
    "confirmed": true,
    "block_height": 834460,
    "block_hash": "00000000000000000000484a79b643b2524bbce82e5d8a442013fa5b8905ed98",
    "block_time": 1710307468
  },
  "hex": "02000000000101643321469295d0c73f0634e20c357937dd113ace04293f2a58cb9a8600bac3ac4b00000000fffffffd0126010000000000001600147a665de7a370f4c9b372ab1fae587500a5bcbdb40340ef1fdfa91cc85a02c5963d8d6970efa947790e368aa7ebd96a3c12163a2105e1328a250cc933b2bf3c2846a7144528bd78d9e7174db9a3c20fdb2492e62b10716d20a9dd9542dbe9619452db77ccd46f3829bc6b12e6725044a822b5ec041b437142ac0063036f726401010a746578742f706c61696e00357b2270223a226272632d3230222c226f70223a226d696e74222c227469636b223a22646f6765222c22616d74223a2234323030227d6821c0a9dd9542dbe9619452db77ccd46f3829bc6b12e6725044a822b5ec041b43714200000000"
}