{
  "txid": "32935c77dbb2bb8fa90923b3500e6cce6a8ea765a51e4deef1da48f03c90d14f",
  "version": 2,
  "locktime": 0,
  "vin": [
    {
      "txid": "7dce1fa10c9300c532ad61a3b7c57f5193220f2559215e2fc5b7f64c77503d27",
      "vout": 0,
      "prevout": {
        "scriptpubkey": "51207142210adecbfca971e2e95bc85ac59d2fffefb445902ab50930117a28ca7f57",
        "scriptpubkey_asm": "OP_PUSHNUM_1 OP_PUSHBYTES_32 7142210adecbfca971e2e95bc85ac59d2fffefb445902ab50930117a28ca7f57",
        "scriptpubkey_type": "v1_p2tr",
        "scriptpubkey_address": "bc1pw9pzzzk7e072ju0za9duskk9n5hllma5gkgz4dgfxqgh52x20atsdq2wff",
        "value": 3330
      },
      "scriptsig": "",
      "scriptsig_asm": "",
      "witness": [
        "16a3dfcfeeb88dbfb1bc15e03e6a527d95a406041e07858264904a03535c8950ef5eee2987b40a081bfe7da89b79a6b8d7c6da016080b1b175c39b9470a6a361",
        "20edc52a2ed65c5e95e3877125052517b0a52f5f5f0c99148bd4160729b488776fac0063036f726401010d696d6167652f7376672b786d6c004cba3c7376672076696577426f783d2230203020313030203130302220786d6c6e733d22687474703a2f2f7777772e77332e6f72672f323030302f737667223e3c696d616765206865696768743d2231303025222077696474683d22313030252220687265663d222f636f6e74656e742f363332396162393839616235393561333063613763663938336432336539303666336438313437663766393561653932373237393063376336336634616230646930222f3e3c2f7376673e68",
        "c1edc52a2ed65c5e95e3877125052517b0a52f5f5f0c99148bd4160729b488776f"
      ],
      "is_coinbase": false,
      "sequence": 4294967293
    }
  ],
  "vout": [
    {
      "scriptpubkey": "51207f9391f9255781dfc015b7580ed194363e3e944e84a4008f0c14d0e91eaaf856",
      "scriptpubkey_asm": "OP_PUSHNUM_1 OP_PUSHBYTES_32 7f9391f9255781dfc015b7580ed194363e3e944e84a4008f0c14d0e91eaaf856",
      "scriptpubkey_type": "v1_p2tr",
      "scriptpubkey_address": "bc1p07fer7f927qalsq4kavqa5v5xclra9zwsjjqprcvzngwj842lptqpe7n20",
      "value": 600
    }
  ],
  "size": 443,
  "weight": 725,
  "fee": 2730,
  "status": {
    "confirmed": true,
    "block_height": 834460,
    "block_hash": "00000000000000000000484a79b643b2524bbce82e5d8a442013fa5b8905ed98",
    "block_time": 1710307468
  },
  "hex": "02000000000101273d50774cf6b7c52f5e2159250f2293517fc5b7a361ad32c500930ca11fce7d0000000000fdffffff0158020000000000002251207f9391f9255781dfc015b7580ed194363e3e944e84a4008f0c14d0e91eaaf856034016a3dfcfeeb88dbfb1bc15e03e6a527d95a406041e07858264904a03535c8950ef5eee2987b40a081bfe7da89b79a6b8d7c6da016080b1b175c39b9470a6a361f620edc52a2ed65c5e95e3877125052517b0a52f5f5f0c99148bd4160729b488776fac0063036f726401010d696d6167652f7376672b786d6c004cba3c7376672076696577426f783d2230203020313030203130302220786d6c6e733d22687474703a2f2f7777772e77332e6f72672f323030302f737667223e3c696d616765206865696768743d2231303025222077696474683d22313030252220687265663d222f636f6e74656e742f363332396162393839616235393561333063613763663938336432336539303666336438313437663766393561653932373237393063376336336634616230646930222f3e3c2f7376673e6821c1edc52a2ed65c5e95e3877125052517b0a52f5f5f0c99148bd4160729b488776f00000000"
}