{
  "txid": "32a76a70b9fd923d295e5d4a9449d53f1477e2abc4fb3e522d9ce478df66823c",
  "version": 2,
  "locktime": 0,
  "vin": [
    {
      "txid": "999797c6c679f4a0efb213fad56220df3ce9e06184559655930af3243da3a0f0",
      "vout": 1,
      "prevout": {
        "scriptpubkey": "0014e712aba11fd915dbbeb0e95f88063caa9b91c51c",
        "scriptpubkey_asm": "OP_0 OP_PUSHBYTES_20 e712aba11fd915dbbeb0e95f88063caa9b91c51c",
        "scriptpubkey_type": "v0_p2wpkh",
        "scriptpubkey_address": "bc1quuf2hgglmy2ah04sa90csp3u42der3guewergt",
        "value": 169818313
      },
      "scriptsig": "",
      "scriptsig_asm": "",
      "witness": [
        "3044022044e2ccb3329ef291c80366cf71bf91c5e74e5e7d92033f4861599fe99ccd3919022066745cb75d3f4a137a3e8218c40c0ae418765794daef9fd0f021c7895abbeff601",
        "021ebd53a55dcf796203e2e96913532c979b006de69346be8cbc1b2c0fb5af1499"
      ],
      "is_coinbase": false,
      "sequence": 4294967295
    }
  ],
  "vout": [
    {
      "scriptpubkey": "0014cfb33dd7d396aef49d2ff90be82336c2a1e5963d",
      "scriptpubkey_asm": "OP_0 OP_PUSHBYTES_20 cfb33dd7d396aef49d2ff90be82336c2a1e5963d",
      "scriptpubkey_type": "v0_p2wpkh",
      "scriptpubkey_address": "bc1qe7enm47nj6h0f8f0ly97sgekc2s7t93aesl87s",
      "value": 1400175
    },
    {
      "scriptpubkey": "0014e712aba11fd915dbbeb0e95f88063caa9b91c51c",
      "scriptpubkey_asm": "OP_0 OP_PUSHBYTES_20 e712aba11fd915dbbeb0e95f88063caa9b91c51c",
      "scriptpubkey_type": "v0_p2wpkh",
      "scriptpubkey_address": "bc1quuf2hgglmy2ah04sa90csp3u42der3guewergt",
      "value": 168416041
    }
  ],
  "size": 222,
  "weight": 561,
  "fee": 2097,
  "status": {
    "confirmed": true,
    "block_height": 834638,
    "block_hash": "000000000000000000025f742c626208ac87e0b7d15054abb4a19ca2d735a54e",
    "block_time": 1710405325
  },
  "hex": "02000000000101f0a0a33d24f30a935596558461e0e93cdf2062d5fa13b2efa0f479c6c69797990100000000ffffffff026f5d150000000000160014cfb33dd7d396aef49d2ff90be82336c2a1e5963d29d3090a00000000160014e712aba11fd915dbbeb0e95f88063caa9b91c51c02473044022044e2ccb3329ef291c80366cf71bf91c5e74e5e7d92033f4861599fe99ccd3919022066745cb75d3f4a137a3e8218c40c0ae418765794daef9fd0f021c7895abbeff60121021ebd53a55dcf796203e2e96913532c979b006de69346be8cbc1b2c0fb5af149900000000"
}