{
  "txid": "32a8fc816403de48cd7afd613984c125246e803e127e651e1d1c21c5d43c1f1a",
  "version": 2,
  "locktime": 0,
  "vin": [
    {
      "txid": "b13bb5512a4904c28a6b7957b88edf574e8cb23551fc1dcfe22d6b239df42cf4",
      "vout": 68,
      "prevout": {
        "scriptpubkey": "5120765779400490c1f3b61ffede7ee6f82197f52ea3160aa45c828a7dcbdd53c6c5",
        "scriptpubkey_asm": "OP_PUSHNUM_1 OP_PUSHBYTES_32 765779400490c1f3b61ffede7ee6f82197f52ea3160aa45c828a7dcbdd53c6c5",
        "scriptpubkey_type": "v1_p2tr",
        "scriptpubkey_address": "bc1pwethjsqyjrql8dsllm08aehcyxtl2t4rzc92ghyz3f7uhh2ncmzsrq8rvd",
        "value": 2575
      },
      "scriptsig": "",
      "scriptsig_asm": "",
      "witness": [
        "b0c7c809cfbae27c892d0003a0f9a07a32398088d77d3733ee91ac911a7e088e5dc4f18844321767aaeacc8f7bf118a9e93a2e9bdab1386fa653333add5271cd",
        "202f290e296aa549adf8eacf0fae9d775ecff457aacfe07fdf197e6c6b9e317a99ac0063036f726401010a746578742f706c61696e00367b2270223a226272632d3230222c226f70223a226d696e74222c227469636b223a2261616161222c22616d74223a223130303030227d68",
        "c02f290e296aa549adf8eacf0fae9d775ecff457aacfe07fdf197e6c6b9e317a99"
      ],
      "is_coinbase": false,
      "sequence": 4261412863
    }
  ],
  "vout": [
    {
      "scriptpubkey": "0014ce0b5aa0dac72397a8aa5a85d90a2cfb46f0f630",
      "scriptpubkey_asm": "OP_0 OP_PUSHBYTES_20 ce0b5aa0dac72397a8aa5a85d90a2cfb46f0f630",
      "scriptpubkey_type": "v0_p2wpkh",
      "scriptpubkey_address": "bc1qec944gx6cu3e0292t2zajz3vldr0pa3sh356d9",
      "value": 546
    }
  ],
  "size": 295,
  "weight": 541,
  "fee": 2029,
  "status": {
    "confirmed": true,
    "block_height": 834464,
    "block_hash": "0000000000000000000177a0869a911a2b65c9bdcd5a8bcb02b68f305bee848e",
    "block_time": 1710308296
  },
  "hex": "02000000000101f42cf49d236b2de2cf1dfc5135b28c4e57df8eb857796b8ac204492a51b53bb14400000000fffffffd012202000000000000160014ce0b5aa0dac72397a8aa5a85d90a2cfb46f0f6300340b0c7c809cfbae27c892d0003a0f9a07a32398088d77d3733ee91ac911a7e088e5dc4f18844321767aaeacc8f7bf118a9e93a2e9bdab1386fa653333add5271cd6e202f290e296aa549adf8eacf0fae9d775ecff457aacfe07fdf197e6c6b9e317a99ac0063036f726401010a746578742f706c61696e00367b2270223a226272632d3230222c226f70223a226d696e74222c227469636b223a2261616161222c22616d74223a223130303030227d6821c02f290e296aa549adf8eacf0fae9d775ecff457aacfe07fdf197e6c6b9e317a9900000000"
}