{
  "txid": "32b34bf06121fd0546809d7d061aa8d157fc9c47b9908c45da54b0a555fe4144",
  "version": 2,
  "locktime": 0,
  "vin": [
    {
      "txid": "cdf38142283471fbcd28e43f58e18fdeb8c5f3f1f8e911e99f881f4c892f47f8",
      "vout": 0,
      "prevout": {
        "scriptpubkey": "5120cd734dfdcb4ed6d3fda7a5694bc484b4cf3d1c35e1e50d55d23fc0b96e7a5b72",
        "scriptpubkey_asm": "OP_PUSHNUM_1 OP_PUSHBYTES_32 cd734dfdcb4ed6d3fda7a5694bc484b4cf3d1c35e1e50d55d23fc0b96e7a5b72",
        "scriptpubkey_type": "v1_p2tr",
        "scriptpubkey_address": "bc1pe4e5mlwtfmtd8ld85455h3yykn8n68p4u8js64wj8lqtjmn6tdeqsdaaf8",
        "value": 12498
      },
      "scriptsig": "",
      "scriptsig_asm": "",
      "witness": [
        "1e700038a1db14d86531c7e164978feaea709cce94bef529d3e36ec90d07f8d3474839b9d164c3dbf487ca24bea1d9501537436dc002894529016a48b1157fbb",
        "20d067fdc1b8cd97ec68a285c778d7c39a41ab350988548d64d5cf1cf7ce9b9725ac0063036f7264010109696d6167652f706e67004d0802524946465c0d00005745425056503820500d0000703a009d012abe009e003e91429c492bb1ad282c5598e0b01209676edd5f418e2db3c624dfd0f3b5efc6deb76d41ba23bdd16cc7da2ff94f08fc43fa53f59fdbff594c8df535a88fc8feea7e6ffb7f9c9fe8fc05f82dfd17a817e4ffd37fd8f869ec36d4bfd1fa017b0df50eef5fecbd09fa97fecfdc03f99ff50ff69eb4ff96f05af1ef602fe53fddffefff81f75dfee3ff879a4fd0ffd67b06fec096e86bb623ba6ed3e9679976ef89f89e559033b96deb3228e8b554d5a37f1b3855cdd56f209b89a0534a5ff73cecac7b26d5b3aca42b4c1d04c782af14d25b7a923c759986aaf6f344fa70f342ef15c81508749d4466d615a8a978a7e2c0a0471fdc3fa44e3316d9d599e02ebfbcd38226b9cb9911feb2c78ae230c45225da1c95e294417e95201ba1549dac20728a23ed89374536b322905a30ca292e873db58288f08b6ff950e9f2a08a9e80709912c29d9323863ea390b6a5223d402ab91b4b7cbff0931b35a43ff405e66d6e19db27187a9d24ffd490f7fe99f5626729fa7b936d117ee6ac923748da994f4836427c475d7d73128477538090214f199890669babbb351ba817ed5cbd7c08978caa05b272ee24ae744220240a4bb7fea3fb8a2bfadd0a3a98e6e434f74ddb1ce62403623bb2f4b623ba6ed88ee9bb623ac000fef5a1fffc50efc3beff1ffe1dd7dc89ee0001afa39cb64d08028b69777c18cd3cd400ecc5fe9b765c0c048ab0cf2bb3ff0f5aa6a36303a973548c4fde56866b6f665076c8e5d976ec208718afcc9651ddf62b7726b7235b08ef8d503161876cd8277cc8740ea23fbdbe74dcfac38fb12145e1b64665c50551ff35edae0335763256f095c54118f881f1e63176a4242c717622d2736981c0e7c9b936aee2ac688fb4d0f3c3780e1dd07aa40c1d5d905154f6659270301755a22756caca8c9e3f74b48aa47702aa477351513ed4fa7413f793fa09ba2a24826146147c1f3ba105178336f193ca4757553bae572d47125dc99992ea8c5e91f9d97073cd7e5468f0b29625d25709de140fb41e69d99d6ce3cae3be287e23a2d6d931c065a9a12516d50b80b653891c796c80e644ab7fd9ceed95f56923e209d3c9a99084e4f5fbb272bca9c310e19ea2c322602b0fc88a092b0b691b819a665673a67d7c2f5a15c7ba5ce16ef445bfad6aaa767d6ffec8093efc82edf443f246c91a48be3ed1359818b5b6f6818126caa734d3defdd60edc7a1953abdeac213449ee83af36fb9ddc5f8931fa1f84f7d434d0f89e193fdf8765003540b05bc485dbd29dc7de0dce54d6b8ef06c83cc830831e86c183bf2c720a0dd9ac41ad08c7431b504237675f65787e7a36d93abd8abc031a2ddce0af6df8ef5687c47c2342f3ac3cc9560522fb9408a6c52daff78fe9a9005491116a94dd6445741e1958055aad61fc7064df03d0604d0802ac6c67ce8e72187ab17198f372d01ffb8afd79b68d4fcf07ce84455c970962c7bb458dbef9f3f718c99ad04851fdd20afbdfe91f63968ef95305306fd3cd16ad5d2d409eb0c33b2a6e60663454e4eb19c1e4021cc8983a9887b1099a6c5023d589adbdacdca314c288d6dff7f0f50951834f9d214d4927b3adcde3965f4be2441d5660d13c1960b9481421013009d12657ec070135bbb4b2c74339346f7fa7280d4ec9d1b4c0b22ea22c7f2996f487faa5fe57d3c3a5cfddeebc7cc241c0b2e4c4500be6638c215c2de1d47a373741c66e8a4ce4997cce4e9d4e48107faac499be970de51f2144486f3406d4ca66a53a8746c69405d22546d9821cdba5d3146166a9ac78e1c3d69be5fd52e3873129b6ed9a4af21c312b6b9ca03b1a5a7c63c3d7c6ab156ceaf725f736d5c14e3e154c74795bdb1c1a3f51b7c718f4520e5e08d471a00a1b494fc539ab94ee87c8ba8d90b2106c6408c112c553bd4c070b52ace5f5cbbd9399c7ab74c9d9e7a95e1ad5bb7ff54f572fdb5528f66ea071f5480b45e496438eab60e35566ab48067d3d489be263622a97d11a60d7b70701b9d106ee64c4f8cd8a019e56d2173be0a26b2cd35c4f2ad7e1ebaa42598676e388f9e332f561c30bbe9a98f8f60c09bb6c7dea7345d1f021b1f7a4f1388056c1f21ce536ecc8f83ea76f739fab2656bbffc207ae9f992c860cc36854446583b31ce26a5b16ac8167a4e5f84d0802a26eea014057bcc3c0c86059b393d5fcf9088cdc2ed8226e35a54ec88bc2785cd9db86ffa77ac5149a0a7ba74dbe1dde5aaaecc4a49cb2866e35de888f98651f48bee20aa61030d012530a6e72465bded52aad49dd6c18ef6b7608b94a9f145c9593b4e010aaac7ba5b552ef466d4152319ac4b715b360cd8893974598182b8dd26aa2dc8ad09cc20830119bb0adcd9d57347fbd7e7c484d8d00594d1bc9ae1c7e59016ff1f3ba9346913c0a33b69192f1957d57f90d7592b00610c1cea0ff6d2bac7fdbc34c421def73020e5679ea8637522ed83f43183aae856b975a6baef70f325d440fd6def7f3b6c68f7b96fd475edf506740ee094c0332c93faf54cb8aedddf758f5e402df2ae543285513c36d454589f4361ba463804b154c69900a9dedeabd2953cd47bf5a8b91f914a80b299a7c4636e44bc813f2d6400d729b1ad7579d30626e588e9efbbc7f8d2cc023696776bc8eab8400b49ed7fd665e85eacdce1999461880dfca8c9407f7c4be997adeb661d1641a7f2047ca84fcf64dbacdd648f2191f067ad2a2e2ab7ef4d37398c000aea8000c4c07c8f7869b4a61fb15f57018a2b9e1583c731fdcae3398f31b447153a3984c562f9c975f4597a51a56e1b95640057b5ce492b7b5b6ef48dbb5b6578b93f991c4dcde2e38f4f6f7b601d2cf241403157036f36aef1f1699c6ade33f32bc87cde9e059efaf0efb0e72bfb2509701ef191d344d0802cce28a33d75fadf3e7736b2993366cc4fdb472f64a79413f4e21360cdff79363e81d5cfd01deab56b4ba9cb4c723224fc793260cb28e3a30c0fc027d48ca609df174007820b51c4149000f620407cc367eaa883c55aa0678e5789302cae312f6434626bde23747fb61e043e94baff2b0e47d7d4cac3e5a810f49003c8aefbb436b9361db4d8300fe94ce123f8e60fcec128de913d1b092561c1ccf18db8a8e20430db592f3a3f363b1945d86af97f53b06d28cf3f0640fb470411540b4f501265935d76b7396cf6f440eadd59ec328a50045e710edd174bb1c06abb113fbc2d497bfc6cd30af3887e90827f892fbdd911a38ba5be23a1f4c600e8f9310c8c5f9c6b02decdb0239744f8be3e3b8ec87c8fcbd4d4f7480a93a464d90ae64adc09f5255d7a50d53fe7702de896414f1dc78d0c33924e091271c690f6737227fbd021cd985d018d43e15528d47b9fb390531da2134bb4556dd8701ca44c6fb94396e3703f024bb1f44b37bf7f10668ba29f251f01e10b03ff28ce26f1e81f6dbe3036ac4f0ab4649f72d0f46b14801e50b90c4af4c9fa7cc0a9743bc7d627de02bee9cba3b377842266880960ad71cc2bf38fc2c320f3e43244e4867d468fa3389c52e4f61de9d5db9f9beb85a688f1c05d853a1ead4cd7c6766d4a15e1a418acd65f73709b7bee088acb2a36aa1ce772b70d3a68d2bdc358072efc19e65825e4cad462370178e0182a94d080270c3931ce9e89195c075e31dbb8973407ecb70f309b1d9001e6cfcf3d0adbef9d1925132597d6561e40fb9ba5254f8f564ba2645b1e508085398d3293bae8624386f25addf5ed4488351d3989c1b12446d00e517cf7995dff20b68d8fe0cb7a089941e854714ce106225a57a83464f1c7a5889a66b2739c15954742419b1cc3b9d47da9ca2b502b46db3137fcefe4947b273558c64c9b5b35776cececd6b6ee30259130fca82e4e94b8d5b43e9c2e53ec40f2912a2f38f132b33a4584afefe5e2d1512d488ae00789f7f6c71cb27d0651365badc4accaeeb3f8191cea93f40a9619520526cde275ef78970b865226a85e9bffee5f146d2837006c8025cf7b5dbf9776f56da44acf3ddd6335512475477def3548b848d99aa6d1e2c3d926b9aea58042b8e857f642dcff3b285e8b73c211f2c58ba17cadc4e63a387cb392f0019fb173ab6354523a3e30d079560d17d06116287526580e56f6c4642d18dcab2e8fe104e760927b47fc98f278c810d467dcf32e29293132487f3e30439dcdf4880d3f094a0a2b853d99997e851aa3bb7be5f7859d278e00b502a1d91ee54f75ac6cce24483cb7d881127dcd6065e19afeecc6476e417f020fd114db82ad3d48b6f952c6de2600c25e0eaa9cd649aeaf5cabf74154c535d53a6e3f231e0954b87991b06bbb6979ef31c6342298b1a2f9ff69fa8dfdfe94390ea91866e97ddbc0fe832459ebed588ac844d34019e22a7704e05e98859f47a2c776b21505518517dc00330a2c50a62d476213807cce12f9fef913551120956ba3629c28edd20392fd943e6d2db64668f766596281a5e4235d85cb9600cafe27ec5fda3e8a5f977dccfbbfce999035d34478ccec95a23894085dc35cc147726deff661d49bc64cee0a78f4b44f406b6c8a49870d5f5dd83e86c0015cbb76593aae9b93f0e306e7978a5c2edcae1623591c840f8f47aba2213750ff3acb8eb7bafe3833a5ad6fab91aa72a298031bec2c4e2f2e7a9692d94fa17f5a4f693e166e4378bc4ec7e32bf0203d55de911d903736cbef56e7b94ea479d80e1ac46acc5d82805667272cb6fbab1c8f973c1932a9849197a323f20cd5861fc35fefb3e8193372a682315c4fe835fdbd3be453aea7834435779ca380ec9118e2917a8000001ed2800000000000068",
        "c1d067fdc1b8cd97ec68a285c778d7c39a41ab350988548d64d5cf1cf7ce9b9725"
      ],
      "is_coinbase": false,
      "sequence": 4294967293
    }
  ],
  "vout": [
    {
      "scriptpubkey": "512043b92e595a4d0fdafe079421d35a049d6e65b015ebf28f376b240a50165a30ee",
      "scriptpubkey_asm": "OP_PUSHNUM_1 OP_PUSHBYTES_32 43b92e595a4d0fdafe079421d35a049d6e65b015ebf28f376b240a50165a30ee",
      "scriptpubkey_type": "v1_p2tr",
      "scriptpubkey_address": "bc1pgwujuk26f58a4ls8jssaxksyn4hxtvq4a0eg7dmtys99q9j6xrhqwre0ku",
      "value": 546
    }
  ],
  "size": 3702,
  "weight": 3984,
  "fee": 11952,
  "status": {
    "confirmed": true,
    "block_height": 834460,
    "block_hash": "00000000000000000000484a79b643b2524bbce82e5d8a442013fa5b8905ed98",
    "block_time": 1710307468
  },
  "hex": "02000000000101f8472f894c1f889fe911e9f8f1f3c5b8de8fe1583fe428cdfb7134284281f3cd0000000000fdffffff01220200000000000022512043b92e595a4d0fdafe079421d35a049d6e65b015ebf28f376b240a50165a30ee03401e700038a1db14d86531c7e164978feaea709cce94bef529d3e36ec90d07f8d3474839b9d164c3dbf487ca24bea1d9501537436dc002894529016a48b1157fbbfdaf0d20d067fdc1b8cd97ec68a285c778d7c39a41ab350988548d64d5cf1cf7ce9b9725ac0063036f7264010109696d6167652f706e67004d0802524946465c0d00005745425056503820500d0000703a009d012abe009e003e91429c492bb1ad282c5598e0b01209676edd5f418e2db3c624dfd0f3b5efc6deb76d41ba23bdd16cc7da2ff94f08fc43fa53f59fdbff594c8df535a88fc8feea7e6ffb7f9c9fe8fc05f82dfd17a817e4ffd37fd8f869ec36d4bfd1fa017b0df50eef5fecbd09fa97fecfdc03f99ff50ff69eb4ff96f05af1ef602fe53fddffefff81f75dfee3ff879a4fd0ffd67b06fec096e86bb623ba6ed3e9679976ef89f89e559033b96deb3228e8b554d5a37f1b3855cdd56f209b89a0534a5ff73cecac7b26d5b3aca42b4c1d04c782af14d25b7a923c759986aaf6f344fa70f342ef15c81508749d4466d615a8a978a7e2c0a0471fdc3fa44e3316d9d599e02ebfbcd38226b9cb9911feb2c78ae230c45225da1c95e294417e95201ba1549dac20728a23ed89374536b322905a30ca292e873db58288f08b6ff950e9f2a08a9e80709912c29d9323863ea390b6a5223d402ab91b4b7cbff0931b35a43ff405e66d6e19db27187a9d24ffd490f7fe99f5626729fa7b936d117ee6ac923748da994f4836427c475d7d73128477538090214f199890669babbb351ba817ed5cbd7c08978caa05b272ee24ae744220240a4bb7fea3fb8a2bfadd0a3a98e6e434f74ddb1ce62403623bb2f4b623ba6ed88ee9bb623ac000fef5a1fffc50efc3beff1ffe1dd7dc89ee0001afa39cb64d08028b69777c18cd3cd400ecc5fe9b765c0c048ab0cf2bb3ff0f5aa6a36303a973548c4fde56866b6f665076c8e5d976ec208718afcc9651ddf62b7726b7235b08ef8d503161876cd8277cc8740ea23fbdbe74dcfac38fb12145e1b64665c50551ff35edae0335763256f095c54118f881f1e63176a4242c717622d2736981c0e7c9b936aee2ac688fb4d0f3c3780e1dd07aa40c1d5d905154f6659270301755a22756caca8c9e3f74b48aa47702aa477351513ed4fa7413f793fa09ba2a24826146147c1f3ba105178336f193ca4757553bae572d47125dc99992ea8c5e91f9d97073cd7e5468f0b29625d25709de140fb41e69d99d6ce3cae3be287e23a2d6d931c065a9a12516d50b80b653891c796c80e644ab7fd9ceed95f56923e209d3c9a99084e4f5fbb272bca9c310e19ea2c322602b0fc88a092b0b691b819a665673a67d7c2f5a15c7ba5ce16ef445bfad6aaa767d6ffec8093efc82edf443f246c91a48be3ed1359818b5b6f6818126caa734d3defdd60edc7a1953abdeac213449ee83af36fb9ddc5f8931fa1f84f7d434d0f89e193fdf8765003540b05bc485dbd29dc7de0dce54d6b8ef06c83cc830831e86c183bf2c720a0dd9ac41ad08c7431b504237675f65787e7a36d93abd8abc031a2ddce0af6df8ef5687c47c2342f3ac3cc9560522fb9408a6c52daff78fe9a9005491116a94dd6445741e1958055aad61fc7064df03d0604d0802ac6c67ce8e72187ab17198f372d01ffb8afd79b68d4fcf07ce84455c970962c7bb458dbef9f3f718c99ad04851fdd20afbdfe91f63968ef95305306fd3cd16ad5d2d409eb0c33b2a6e60663454e4eb19c1e4021cc8983a9887b1099a6c5023d589adbdacdca314c288d6dff7f0f50951834f9d214d4927b3adcde3965f4be2441d5660d13c1960b9481421013009d12657ec070135bbb4b2c74339346f7fa7280d4ec9d1b4c0b22ea22c7f2996f487faa5fe57d3c3a5cfddeebc7cc241c0b2e4c4500be6638c215c2de1d47a373741c66e8a4ce4997cce4e9d4e48107faac499be970de51f2144486f3406d4ca66a53a8746c69405d22546d9821cdba5d3146166a9ac78e1c3d69be5fd52e3873129b6ed9a4af21c312b6b9ca03b1a5a7c63c3d7c6ab156ceaf725f736d5c14e3e154c74795bdb1c1a3f51b7c718f4520e5e08d471a00a1b494fc539ab94ee87c8ba8d90b2106c6408c112c553bd4c070b52ace5f5cbbd9399c7ab74c9d9e7a95e1ad5bb7ff54f572fdb5528f66ea071f5480b45e496438eab60e35566ab48067d3d489be263622a97d11a60d7b70701b9d106ee64c4f8cd8a019e56d2173be0a26b2cd35c4f2ad7e1ebaa42598676e388f9e332f561c30bbe9a98f8f60c09bb6c7dea7345d1f021b1f7a4f1388056c1f21ce536ecc8f83ea76f739fab2656bbffc207ae9f992c860cc36854446583b31ce26a5b16ac8167a4e5f84d0802a26eea014057bcc3c0c86059b393d5fcf9088cdc2ed8226e35a54ec88bc2785cd9db86ffa77ac5149a0a7ba74dbe1dde5aaaecc4a49cb2866e35de888f98651f48bee20aa61030d012530a6e72465bded52aad49dd6c18ef6b7608b94a9f145c9593b4e010aaac7ba5b552ef466d4152319ac4b715b360cd8893974598182b8dd26aa2dc8ad09cc20830119bb0adcd9d57347fbd7e7c484d8d00594d1bc9ae1c7e59016ff1f3ba9346913c0a33b69192f1957d57f90d7592b00610c1cea0ff6d2bac7fdbc34c421def73020e5679ea8637522ed83f43183aae856b975a6baef70f325d440fd6def7f3b6c68f7b96fd475edf506740ee094c0332c93faf54cb8aedddf758f5e402df2ae543285513c36d454589f4361ba463804b154c69900a9dedeabd2953cd47bf5a8b91f914a80b299a7c4636e44bc813f2d6400d729b1ad7579d30626e588e9efbbc7f8d2cc023696776bc8eab8400b49ed7fd665e85eacdce1999461880dfca8c9407f7c4be997adeb661d1641a7f2047ca84fcf64dbacdd648f2191f067ad2a2e2ab7ef4d37398c000aea8000c4c07c8f7869b4a61fb15f57018a2b9e1583c731fdcae3398f31b447153a3984c562f9c975f4597a51a56e1b95640057b5ce492b7b5b6ef48dbb5b6578b93f991c4dcde2e38f4f6f7b601d2cf241403157036f36aef1f1699c6ade33f32bc87cde9e059efaf0efb0e72bfb2509701ef191d344d0802cce28a33d75fadf3e7736b2993366cc4fdb472f64a79413f4e21360cdff79363e81d5cfd01deab56b4ba9cb4c723224fc793260cb28e3a30c0fc027d48ca609df174007820b51c4149000f620407cc367eaa883c55aa0678e5789302cae312f6434626bde23747fb61e043e94baff2b0e47d7d4cac3e5a810f49003c8aefbb436b9361db4d8300fe94ce123f8e60fcec128de913d1b092561c1ccf18db8a8e20430db592f3a3f363b1945d86af97f53b06d28cf3f0640fb470411540b4f501265935d76b7396cf6f440eadd59ec328a50045e710edd174bb1c06abb113fbc2d497bfc6cd30af3887e90827f892fbdd911a38ba5be23a1f4c600e8f9310c8c5f9c6b02decdb0239744f8be3e3b8ec87c8fcbd4d4f7480a93a464d90ae64adc09f5255d7a50d53fe7702de896414f1dc78d0c33924e091271c690f6737227fbd021cd985d018d43e15528d47b9fb390531da2134bb4556dd8701ca44c6fb94396e3703f024bb1f44b37bf7f10668ba29f251f01e10b03ff28ce26f1e81f6dbe3036ac4f0ab4649f72d0f46b14801e50b90c4af4c9fa7cc0a9743bc7d627de02bee9cba3b377842266880960ad71cc2bf38fc2c320f3e43244e4867d468fa3389c52e4f61de9d5db9f9beb85a688f1c05d853a1ead4cd7c6766d4a15e1a418acd65f73709b7bee088acb2a36aa1ce772b70d3a68d2bdc358072efc19e65825e4cad462370178e0182a94d080270c3931ce9e89195c075e31dbb8973407ecb70f309b1d9001e6cfcf3d0adbef9d1925132597d6561e40fb9ba5254f8f564ba2645b1e508085398d3293bae8624386f25addf5ed4488351d3989c1b12446d00e517cf7995dff20b68d8fe0cb7a089941e854714ce106225a57a83464f1c7a5889a66b2739c15954742419b1cc3b9d47da9ca2b502b46db3137fcefe4947b273558c64c9b5b35776cececd6b6ee30259130fca82e4e94b8d5b43e9c2e53ec40f2912a2f38f132b33a4584afefe5e2d1512d488ae00789f7f6c71cb27d0651365badc4accaeeb3f8191cea93f40a9619520526cde275ef78970b865226a85e9bffee5f146d2837006c8025cf7b5dbf9776f56da44acf3ddd6335512475477def3548b848d99aa6d1e2c3d926b9aea58042b8e857f642dcff3b285e8b73c211f2c58ba17cadc4e63a387cb392f0019fb173ab6354523a3e30d079560d17d06116287526580e56f6c4642d18dcab2e8fe104e760927b47fc98f278c810d467dcf32e29293132487f3e30439dcdf4880d3f094a0a2b853d99997e851aa3bb7be5f7859d278e00b502a1d91ee54f75ac6cce24483cb7d881127dcd6065e19afeecc6476e417f020fd114db82ad3d48b6f952c6de2600c25e0eaa9cd649aeaf5cabf74154c535d53a6e3f231e0954b87991b06bbb6979ef31c6342298b1a2f9ff69fa8dfdfe94390ea91866e97ddbc0fe832459ebed588ac844d34019e22a7704e05e98859f47a2c776b21505518517dc00330a2c50a62d476213807cce12f9fef913551120956ba3629c28edd20392fd943e6d2db64668f766596281a5e4235d85cb9600cafe27ec5fda3e8a5f977dccfbbfce999035d34478ccec95a23894085dc35cc147726deff661d49bc64cee0a78f4b44f406b6c8a49870d5f5dd83e86c0015cbb76593aae9b93f0e306e7978a5c2edcae1623591c840f8f47aba2213750ff3acb8eb7bafe3833a5ad6fab91aa72a298031bec2c4e2f2e7a9692d94fa17f5a4f693e166e4378bc4ec7e32bf0203d55de911d903736cbef56e7b94ea479d80e1ac46acc5d82805667272cb6fbab1c8f973c1932a9849197a323f20cd5861fc35fefb3e8193372a682315c4fe835fdbd3be453aea7834435779ca380ec9118e2917a8000001ed280000000000006821c1d067fdc1b8cd97ec68a285c778d7c39a41ab350988548d64d5cf1cf7ce9b972500000000"
}