{
  "txid": "32e52ea5a1c2aa1f18fe72dcb8ff0c4bf11a7cb1cfd98b096122774b19c64dea",
  "version": 2,
  "locktime": 0,
  "vin": [
    {
      "txid": "acc3ba00869acb582a3f2904ce3a11dd3779350ce234063fc7d0959246213364",
      "vout": 41,
      "prevout": {
        "scriptpubkey": "512031be9d268bd59dff2f2637eceef1395c9f644a0c4c5179efe9c1639deb861c39",
        "scriptpubkey_asm": "OP_PUSHNUM_1 OP_PUSHBYTES_32 31be9d268bd59dff2f2637eceef1395c9f644a0c4c5179efe9c1639deb861c39",
        "scriptpubkey_type": "v1_p2tr",
        "scriptpubkey_address": "bc1pxxlf6f5t6kwl7texxlkwaufetj0kgjsvf3ghnmlfc93em6uxrsusuyjlxk",
        "value": 1806
      },
      "scriptsig": "",
      "scriptsig_asm": "",
      "witness": [
        "c0dad5cbd584cf0abf1875fac8d358be557bb229f27766aef5da4ecc05213e9079a34780c73bbddb7f6c4d9f1fa57b26b50bc831c958e45c7be46646944d3ee5",
        "20c010760a4a3cece391330644d483b92b9ee41f12bbdd94a6a6d680d44fc9822aac0063036f726401010a746578742f706c61696e00357b2270223a226272632d3230222c226f70223a226d696e74222c227469636b223a22646f6765222c22616d74223a2234323030227d68",
        "c0c010760a4a3cece391330644d483b92b9ee41f12bbdd94a6a6d680d44fc9822a"
      ],
      "is_coinbase": false,
      "sequence": 4261412863
    }
  ],
  "vout": [
    {
      "scriptpubkey": "00147a665de7a370f4c9b372ab1fae587500a5bcbdb4",
      "scriptpubkey_asm": "OP_0 OP_PUSHBYTES_20 7a665de7a370f4c9b372ab1fae587500a5bcbdb4",
      "scriptpubkey_type": "v0_p2wpkh",
      "scriptpubkey_address": "bc1q0fn9mearwr6vnvmj4v06ukr4qzjme0d565dzcx",
      "value": 294
    }
  ],
  "size": 294,
  "weight": 540,
  "fee": 1512,
  "status": {
    "confirmed": true,
    "block_height": 834460,
    "block_hash": "00000000000000000000484a79b643b2524bbce82e5d8a442013fa5b8905ed98",
    "block_time": 1710307468
  },
  "hex": "02000000000101643321469295d0c73f0634e20c357937dd113ace04293f2a58cb9a8600bac3ac2900000000fffffffd0126010000000000001600147a665de7a370f4c9b372ab1fae587500a5bcbdb40340c0dad5cbd584cf0abf1875fac8d358be557bb229f27766aef5da4ecc05213e9079a34780c73bbddb7f6c4d9f1fa57b26b50bc831c958e45c7be46646944d3ee56d20c010760a4a3cece391330644d483b92b9ee41f12bbdd94a6a6d680d44fc9822aac0063036f726401010a746578742f706c61696e00357b2270223a226272632d3230222c226f70223a226d696e74222c227469636b223a22646f6765222c22616d74223a2234323030227d6821c0c010760a4a3cece391330644d483b92b9ee41f12bbdd94a6a6d680d44fc9822a00000000"
}