{
  "txid": "32e58de7c1d857c53e68d4b2c8de373123cf118c96c4251ccfd7e5db263444fa",
  "version": 1,
  "locktime": 0,
  "vin": [
    {
      "txid": "01ac4629c5778088edb0e7024eb8d2c1f01070d10dc39cc37c6c2f674657e4f8",
      "vout": 0,
      "prevout": {
        "scriptpubkey": "51204f74f094983660e8c8c769906ef3f9ee8255bd8154dab90d60ed7e8a62dadfa5",
        "scriptpubkey_asm": "OP_PUSHNUM_1 OP_PUSHBYTES_32 4f74f094983660e8c8c769906ef3f9ee8255bd8154dab90d60ed7e8a62dadfa5",
        "scriptpubkey_type": "v1_p2tr",
        "scriptpubkey_address": "bc1pfa60p9ycxesw3jx8dxgxaulea6p9t0vp2ndtjrtqa4lg5ck6m7jsjtaulq",
        "value": 2346
      },
      "scriptsig": "",
      "scriptsig_asm": "",
      "witness": [
        "d0d252a6c30ba5dac2bfd36589666757208d857d356d44fafb62d31b88b317a4cde40f034865d83ca2c4229f360ebf44f84e4b8c698e73c846891eff91ce77e1",
        "20fb238bc5102d9357e9eabd321e5f7c11b1584859e0c79bef0c2ca6fc26db08cdac0063036f726401010a746578742f706c61696e003e7b2270223a226272632d3230222c226f70223a227472616e73666572222c227469636b223a2253415453222c22616d74223a22313030303030303030227d68",
        "c0fb238bc5102d9357e9eabd321e5f7c11b1584859e0c79bef0c2ca6fc26db08cd"
      ],
      "is_coinbase": false,
      "sequence": 4294967293
    }
  ],
  "vout": [
    {
      "scriptpubkey": "51205856fd414dbba9a80e43d5c01dfb01455288b25f47475addac48a005366c6c32",
      "scriptpubkey_asm": "OP_PUSHNUM_1 OP_PUSHBYTES_32 5856fd414dbba9a80e43d5c01dfb01455288b25f47475addac48a005366c6c32",
      "scriptpubkey_type": "v1_p2tr",
      "scriptpubkey_address": "bc1ptpt06s2dhw56srjr6hqpm7cpg4fg3vjlgar44hdvfzsq2dnvdseq996sk3",
      "value": 546
    }
  ],
  "size": 315,
  "weight": 597,
  "fee": 1800,
  "status": {
    "confirmed": true,
    "block_height": 834460,
    "block_hash": "00000000000000000000484a79b643b2524bbce82e5d8a442013fa5b8905ed98",
    "block_time": 1710307468
  },
  "hex": "01000000000101f8e45746672f6c7cc39cc30dd17010f0c1d2b84e02e7b0ed888077c52946ac010000000000fdffffff0122020000000000002251205856fd414dbba9a80e43d5c01dfb01455288b25f47475addac48a005366c6c320340d0d252a6c30ba5dac2bfd36589666757208d857d356d44fafb62d31b88b317a4cde40f034865d83ca2c4229f360ebf44f84e4b8c698e73c846891eff91ce77e17620fb238bc5102d9357e9eabd321e5f7c11b1584859e0c79bef0c2ca6fc26db08cdac0063036f726401010a746578742f706c61696e003e7b2270223a226272632d3230222c226f70223a227472616e73666572222c227469636b223a2253415453222c22616d74223a22313030303030303030227d6821c0fb238bc5102d9357e9eabd321e5f7c11b1584859e0c79bef0c2ca6fc26db08cd00000000"
}