{
  "txid": "32ea519c8a31c99b41507e8830a1007b477fb277aeac7c0e6414d4446d550bc0",
  "version": 2,
  "locktime": 834637,
  "vin": [
    {
      "txid": "80f5e0c8058f64ee792e993bfce842e3aaf3ef6654262cf5a6175b1f387723bc",
      "vout": 0,
      "prevout": {
        "scriptpubkey": "76a9142e8b24faf96e1930140500a11e2dbf7efd6deac488ac",
        "scriptpubkey_asm": "OP_DUP OP_HASH160 OP_PUSHBYTES_20 2e8b24faf96e1930140500a11e2dbf7efd6deac4 OP_EQUALVERIFY OP_CHECKSIG",
        "scriptpubkey_type": "p2pkh",
        "scriptpubkey_address": "15F6mkXKbZ3XZM3wikgdR4PyCchaLpvd75",
        "value": 278912
      },
      "scriptsig": "47304402203bd36dac7beb12bae0a1c798a03db54ce3e087ba87cd6d07d9d9374346efc74b022021ec28d8d347c4c6b6d390a9f0d4abf441feeed9eebb957d917dc09429139226012102024b344729d497ead4771addcdc27f00a2a355e473c1655eb76f04a069b2eea2",
      "scriptsig_asm": "OP_PUSHBYTES_71 304402203bd36dac7beb12bae0a1c798a03db54ce3e087ba87cd6d07d9d9374346efc74b022021ec28d8d347c4c6b6d390a9f0d4abf441feeed9eebb957d917dc0942913922601 OP_PUSHBYTES_33 02024b344729d497ead4771addcdc27f00a2a355e473c1655eb76f04a069b2eea2",
      "is_coinbase": false,
      "sequence": 4294967293
    }
  ],
  "vout": [
    {
      "scriptpubkey": "0014751bc9a2e1a5fc9c0dfe39fdda3996ffd2b8f238",
      "scriptpubkey_asm": "OP_0 OP_PUSHBYTES_20 751bc9a2e1a5fc9c0dfe39fdda3996ffd2b8f238",
      "scriptpubkey_type": "v0_p2wpkh",
      "scriptpubkey_address": "bc1qw5dunghp5h7fcr07887a5wvkllft3u3cdhq5e2",
      "value": 117117
    },
    {
      "scriptpubkey": "76a914e01fc52b140210a7e08b152d443512566d28209888ac",
      "scriptpubkey_asm": "OP_DUP OP_HASH160 OP_PUSHBYTES_20 e01fc52b140210a7e08b152d443512566d282098 OP_EQUALVERIFY OP_CHECKSIG",
      "scriptpubkey_type": "p2pkh",
      "scriptpubkey_address": "1MS4RQHMqQGi8LPmfpa3NYXvucn3dMoSxP",
      "value": 149585
    }
  ],
  "size": 222,
  "weight": 888,
  "fee": 12210,
  "status": {
    "confirmed": true,
    "block_height": 834638,
    "block_hash": "000000000000000000025f742c626208ac87e0b7d15054abb4a19ca2d735a54e",
    "block_time": 1710405325
  },
  "hex": "0200000001bc2377381f5b17a6f52c265466eff3aae342e8fc3b992e79ee648f05c8e0f580000000006a47304402203bd36dac7beb12bae0a1c798a03db54ce3e087ba87cd6d07d9d9374346efc74b022021ec28d8d347c4c6b6d390a9f0d4abf441feeed9eebb957d917dc09429139226012102024b344729d497ead4771addcdc27f00a2a355e473c1655eb76f04a069b2eea2fdffffff027dc9010000000000160014751bc9a2e1a5fc9c0dfe39fdda3996ffd2b8f23851480200000000001976a914e01fc52b140210a7e08b152d443512566d28209888ac4dbc0c00"
}