{
  "txid": "32eeb71bdd0ce1153f5ffd722c1cff8c8beac46add2faad4d4dded184dffbe0b",
  "version": 2,
  "locktime": 0,
  "vin": [
    {
      "txid": "318965a21affa1f25d69067444b157000bca4f76c7a06df78a64fb035b6143ce",
      "vout": 1,
      "prevout": {
        "scriptpubkey": "0014945a11fea47e4089a33f2dd41f0c3caf92790814",
        "scriptpubkey_asm": "OP_0 OP_PUSHBYTES_20 945a11fea47e4089a33f2dd41f0c3caf92790814",
        "scriptpubkey_type": "v0_p2wpkh",
        "scriptpubkey_address": "bc1qj3dprl4y0eqgngel9h2p7rpu47f8jzq5whd3ya",
        "value": 185102
      },
      "scriptsig": "",
      "scriptsig_asm": "",
      "witness": [
        "304402203cbae3ff3e20a7ede3db368a3f61537944014857d9591e305addd424229560c0022070ea14555a92788dd1391798d2b7705058668c2975f6b27fc19d9b20d578147c01",
        "03b98d61a17ffc5c37a6b030c4e02d8caab34b58a8a7077682a46b305bbe40f72b"
      ],
      "is_coinbase": false,
      "sequence": 4294967295
    }
  ],
  "vout": [
    {
      "scriptpubkey": "6a2a945d46e1515c386dcf46ed5cacd7456324d165df22d59c3bd697c5bc2cc1a0b7d3bc5188c01b6027c7b5",
      "scriptpubkey_asm": "OP_RETURN OP_PUSHBYTES_42 945d46e1515c386dcf46ed5cacd7456324d165df22d59c3bd697c5bc2cc1a0b7d3bc5188c01b6027c7b5",
      "scriptpubkey_type": "op_return",
      "value": 0
    },
    {
      "scriptpubkey": "0014945a11fea47e4089a33f2dd41f0c3caf92790814",
      "scriptpubkey_asm": "OP_0 OP_PUSHBYTES_20 945a11fea47e4089a33f2dd41f0c3caf92790814",
      "scriptpubkey_type": "v0_p2wpkh",
      "scriptpubkey_address": "bc1qj3dprl4y0eqgngel9h2p7rpu47f8jzq5whd3ya",
      "value": 182494
    }
  ],
  "size": 244,
  "weight": 649,
  "fee": 2608,
  "status": {
    "confirmed": true,
    "block_height": 834460,
    "block_hash": "00000000000000000000484a79b643b2524bbce82e5d8a442013fa5b8905ed98",
    "block_time": 1710307468
  },
  "hex": "02000000000101ce43615b03fb648af76da0c7764fca0b0057b1447406695df2a1ff1aa26589310100000000ffffffff0200000000000000002c6a2a945d46e1515c386dcf46ed5cacd7456324d165df22d59c3bd697c5bc2cc1a0b7d3bc5188c01b6027c7b5dec8020000000000160014945a11fea47e4089a33f2dd41f0c3caf927908140247304402203cbae3ff3e20a7ede3db368a3f61537944014857d9591e305addd424229560c0022070ea14555a92788dd1391798d2b7705058668c2975f6b27fc19d9b20d578147c012103b98d61a17ffc5c37a6b030c4e02d8caab34b58a8a7077682a46b305bbe40f72b00000000"
}