{
  "txid": "33198a5cbe2a53fc30099ab53009144888cef479020e7acbc065183b03c26d7b",
  "version": 2,
  "locktime": 0,
  "vin": [
    {
      "txid": "12e6eb840a43904fe5ce3421511e46d860929e1f72a285a3510a6eecc4b671d2",
      "vout": 0,
      "prevout": {
        "scriptpubkey": "51207177be869166ef2a5c56e9296074667a8a12092169b736ef6606b3b5ce3db5a3",
        "scriptpubkey_asm": "OP_PUSHNUM_1 OP_PUSHBYTES_32 7177be869166ef2a5c56e9296074667a8a12092169b736ef6606b3b5ce3db5a3",
        "scriptpubkey_type": "v1_p2tr",
        "scriptpubkey_address": "bc1pw9mmap53vmhj5hzkay5kqarx029pyzfpdxmndmmxq6emtn3akk3sndg0xf",
        "value": 116000
      },
      "scriptsig": "",
      "scriptsig_asm": "",
      "witness": [
        "4ae058a89972c1a92e0d4d5c156d315ded2a2873841f7c9c0bf44b493b9020728985eca49f3fd350daa5bb72b2d9238651c81449d481ff7161044963f3cc8c7e",
        "208923b999575b7c98ab4ba99c7f4d8f1acea34ed7987c5842510bf749ac070afeac0063036f726401011e6170706c69636174696f6e2f6a736f6e3b636861727365743d7574662d38004cbf7b2270223a22706f772d3230222c226f70223a226d696e74222c227469636b223a2250455045222c22616d74223a2231303030222c22736f6c7574696f6e223a22504550453a626331717832636c7935673578376b356a6b7376396d61346332753661646c7a78657470616e387071733a303030303030303030303030303030303030303139393431613561653132383937363539383134343239323533333030353762306461393666336465613163353a3431303231373937303932227d68",
        "c0da2c9a1920efdfbecd176e4adbb0ca1150e62509fd8a3a19d8331b0c89a8a97b"
      ],
      "is_coinbase": false,
      "sequence": 4294967293
    }
  ],
  "vout": [
    {
      "scriptpubkey": "001432b1f2511437ad495a0c2efb5c2b9aeb7e236561",
      "scriptpubkey_asm": "OP_0 OP_PUSHBYTES_20 32b1f2511437ad495a0c2efb5c2b9aeb7e236561",
      "scriptpubkey_type": "v0_p2wpkh",
      "scriptpubkey_address": "bc1qx2cly5g5x7k5jksv9ma4c2u6adlzxetpan8pqs",
      "value": 546
    },
    {
      "scriptpubkey": "5120ded2233edab1f62cf0e292373c9316840964dd74f9eb5f1ce907eda5cddd8da8",
      "scriptpubkey_asm": "OP_PUSHNUM_1 OP_PUSHBYTES_32 ded2233edab1f62cf0e292373c9316840964dd74f9eb5f1ce907eda5cddd8da8",
      "scriptpubkey_type": "v1_p2tr",
      "scriptpubkey_address": "bc1pmmfzx0k6k8mzeu8zjgmneyckssykfht5l844788fqlk6tnwa3k5q0epqwp",
      "value": 2658
    },
    {
      "scriptpubkey": "5120a4972c08168308a51916dd5cfbfe8ab20f223eac1502e673c5bc92aee57799ab",
      "scriptpubkey_asm": "OP_PUSHNUM_1 OP_PUSHBYTES_32 a4972c08168308a51916dd5cfbfe8ab20f223eac1502e673c5bc92aee57799ab",
      "scriptpubkey_type": "v1_p2tr",
      "scriptpubkey_address": "bc1p5jtjczqksvy22xgkm4w0hl52kg8jy04vz5pwvu79hjf2aethnx4sc08plp",
      "value": 2658
    },
    {
      "scriptpubkey": "512042e570bbbf55b474d1ac6bacac3457aa20f1d16beabafcdc256493ed68bb50e7",
      "scriptpubkey_asm": "OP_PUSHNUM_1 OP_PUSHBYTES_32 42e570bbbf55b474d1ac6bacac3457aa20f1d16beabafcdc256493ed68bb50e7",
      "scriptpubkey_type": "v1_p2tr",
      "scriptpubkey_address": "bc1pgtjhpwal2k68f5dvdwk2cdzh4gs0r5tta2a0ehp9vjf7669m2rnsr36l0g",
      "value": 2658
    },
    {
      "scriptpubkey": "512046ca3a59524084bd283bb0fa722029a6d3ed4dd3330cdf1e9a916c848ba47d26",
      "scriptpubkey_asm": "OP_PUSHNUM_1 OP_PUSHBYTES_32 46ca3a59524084bd283bb0fa722029a6d3ed4dd3330cdf1e9a916c848ba47d26",
      "scriptpubkey_type": "v1_p2tr",
      "scriptpubkey_address": "bc1pgm9r5k2jgzzt62pmkra8ygpf5mf76nwnxvxd7856j9kgfzay05nqk2lm0n",
      "value": 2658
    },
    {
      "scriptpubkey": "51204a9c759c482dc8cb0d043893617ba81514a2250bfbdfc4c694046555f2111928",
      "scriptpubkey_asm": "OP_PUSHNUM_1 OP_PUSHBYTES_32 4a9c759c482dc8cb0d043893617ba81514a2250bfbdfc4c694046555f2111928",
      "scriptpubkey_type": "v1_p2tr",
      "scriptpubkey_address": "bc1pf2w8t8zg9hyvkrgy8zfkz7agz522yfgtl00uf355q3j4tus3ry5q24gzfe",
      "value": 2658
    },
    {
      "scriptpubkey": "512006060b2fdf4f40958939a562e8707d4b35031c12e240e4db12cf569f13676bfd",
      "scriptpubkey_asm": "OP_PUSHNUM_1 OP_PUSHBYTES_32 06060b2fdf4f40958939a562e8707d4b35031c12e240e4db12cf569f13676bfd",
      "scriptpubkey_type": "v1_p2tr",
      "scriptpubkey_address": "bc1pqcrqkt7lfaqftzfe543wsurafv6sx8qjufqwfkcjeatf7ym8d07src7d0p",
      "value": 2658
    },
    {
      "scriptpubkey": "51200d190cf2f95c38eb0df161d8d7c49715bd052d04c196ba4852410ddeb6b4e018",
      "scriptpubkey_asm": "OP_PUSHNUM_1 OP_PUSHBYTES_32 0d190cf2f95c38eb0df161d8d7c49715bd052d04c196ba4852410ddeb6b4e018",
      "scriptpubkey_type": "v1_p2tr",
      "scriptpubkey_address": "bc1pp5vseuhetsuwkr03v8vd03yhzk7s2tgycxtt5jzjgyxaad45uqvqms09ug",
      "value": 2646
    },
    {
      "scriptpubkey": "5120370a44fb8e6c73bc9142961c8c217d52d21be80c7eee7233c0b9d56687870f9b",
      "scriptpubkey_asm": "OP_PUSHNUM_1 OP_PUSHBYTES_32 370a44fb8e6c73bc9142961c8c217d52d21be80c7eee7233c0b9d56687870f9b",
      "scriptpubkey_type": "v1_p2tr",
      "scriptpubkey_address": "bc1pxu9yf7uwd3emey2zjcwgcgta2tfph6qv0mh8yv7qh82kdpu8p7ds6l25wa",
      "value": 2658
    },
    {
      "scriptpubkey": "51203167b55bce57d524d06793e89bee4f3e2b4b3806b0d37ff79abd484caed14d8e",
      "scriptpubkey_asm": "OP_PUSHNUM_1 OP_PUSHBYTES_32 3167b55bce57d524d06793e89bee4f3e2b4b3806b0d37ff79abd484caed14d8e",
      "scriptpubkey_type": "v1_p2tr",
      "scriptpubkey_address": "bc1px9nm2k7w2l2jf5r8j05fhmj08c45kwqxkrfhlau6h4yyetk3fk8q426a8n",
      "value": 2658
    },
    {
      "scriptpubkey": "5120cb768d403614d659a7a26686432a6355934be467e247ddb9130b92f5fc019838",
      "scriptpubkey_asm": "OP_PUSHNUM_1 OP_PUSHBYTES_32 cb768d403614d659a7a26686432a6355934be467e247ddb9130b92f5fc019838",
      "scriptpubkey_type": "v1_p2tr",
      "scriptpubkey_address": "bc1pedmg6spkznt9nfazv6ryx2nr2kf5her8uframwgnpwf0tlqpnquqfxz60t",
      "value": 2658
    },
    {
      "scriptpubkey": "5120bc1d7746a17d00e5f74b301e96bb210c73f92346ead0562336c4a7aafbfa1e27",
      "scriptpubkey_asm": "OP_PUSHNUM_1 OP_PUSHBYTES_32 bc1d7746a17d00e5f74b301e96bb210c73f92346ead0562336c4a7aafbfa1e27",
      "scriptpubkey_type": "v1_p2tr",
      "scriptpubkey_address": "bc1phswhw34p05qwta6txq0fdwepp3eljg6xatg9vgekcjn647l6rcnssv2ll4",
      "value": 2658
    },
    {
      "scriptpubkey": "5120c2115ec421a71d8386937eecf0d2ff8c435c4e8352792ebc57798b76efa31af6",
      "scriptpubkey_asm": "OP_PUSHNUM_1 OP_PUSHBYTES_32 c2115ec421a71d8386937eecf0d2ff8c435c4e8352792ebc57798b76efa31af6",
      "scriptpubkey_type": "v1_p2tr",
      "scriptpubkey_address": "bc1pcgg4a3pp5uwc8p5n0mk0p5hl33p4cn5r2fuja0zh0x9hdmarrtmqj4gh7u",
      "value": 2658
    },
    {
      "scriptpubkey": "51209635b4b46432e97bed95e88835d567d7fa145e74a524fdc47e1ba798fe37184d",
      "scriptpubkey_asm": "OP_PUSHNUM_1 OP_PUSHBYTES_32 9635b4b46432e97bed95e88835d567d7fa145e74a524fdc47e1ba798fe37184d",
      "scriptpubkey_type": "v1_p2tr",
      "scriptpubkey_address": "bc1pjc6mfdryxt5hhmv4azyrt4t86lapghn555j0m3r7rwne3l3hrpxs3g9yd2",
      "value": 2646
    },
    {
      "scriptpubkey": "5120184ee1dfdf492d4121548add24ab2208458f0fd5e567b0910b851e62fbb0ce61",
      "scriptpubkey_asm": "OP_PUSHNUM_1 OP_PUSHBYTES_32 184ee1dfdf492d4121548add24ab2208458f0fd5e567b0910b851e62fbb0ce61",
      "scriptpubkey_type": "v1_p2tr",
      "scriptpubkey_address": "bc1prp8wrh7lfyk5zg253twjf2ezppzc7r74u4nmpygts50x97aseessqgnpl2",
      "value": 2658
    },
    {
      "scriptpubkey": "5120c654595aacbdde271351e2b687c8f2e74d31e3dc4d6f76f7e1efc942106f1a86",
      "scriptpubkey_asm": "OP_PUSHNUM_1 OP_PUSHBYTES_32 c654595aacbdde271351e2b687c8f2e74d31e3dc4d6f76f7e1efc942106f1a86",
      "scriptpubkey_type": "v1_p2tr",
      "scriptpubkey_address": "bc1pce29jk4vhh0zwy63u2mg0j8juaxnrc7uf4hhdalpaly5yyr0r2rqrqv20a",
      "value": 2658
    },
    {
      "scriptpubkey": "5120647bad9ace6414904996c03b19c4e0e303ae821197f08fd7bd32bbcaacef9432",
      "scriptpubkey_asm": "OP_PUSHNUM_1 OP_PUSHBYTES_32 647bad9ace6414904996c03b19c4e0e303ae821197f08fd7bd32bbcaacef9432",
      "scriptpubkey_type": "v1_p2tr",
      "scriptpubkey_address": "bc1pv3a6mxkwvs2fqjvkcqa3n38quvp6aqs3jlcgl4aax2au4t80jseq4a4rq8",
      "value": 2646
    },
    {
      "scriptpubkey": "51205e1b485c3a6ad8eb5aadf3446970dfb68a627094433a16cbe8728540e578b5d5",
      "scriptpubkey_asm": "OP_PUSHNUM_1 OP_PUSHBYTES_32 5e1b485c3a6ad8eb5aadf3446970dfb68a627094433a16cbe8728540e578b5d5",
      "scriptpubkey_type": "v1_p2tr",
      "scriptpubkey_address": "bc1ptcd5shp6dtvwkk4d7dzxjuxlk69xyuy5gvapdjlgw2z5petckh2snf2ett",
      "value": 2658
    },
    {
      "scriptpubkey": "51202dd6b1552058accf57183c12b4129c79345953119a2dbee20b72463751dddfee",
      "scriptpubkey_asm": "OP_PUSHNUM_1 OP_PUSHBYTES_32 2dd6b1552058accf57183c12b4129c79345953119a2dbee20b72463751dddfee",
      "scriptpubkey_type": "v1_p2tr",
      "scriptpubkey_address": "bc1p9httz4fqtzkv74cc8sftgy5u0y69j5c3ngkmacstwfrrw5wamlhqu336m6",
      "value": 2658
    },
    {
      "scriptpubkey": "5120bcd50a1e78b21e7ad65588cc391d7bb167478ad075256a0a927e2123f4f2178b",
      "scriptpubkey_asm": "OP_PUSHNUM_1 OP_PUSHBYTES_32 bcd50a1e78b21e7ad65588cc391d7bb167478ad075256a0a927e2123f4f2178b",
      "scriptpubkey_type": "v1_p2tr",
      "scriptpubkey_address": "bc1phn2s58nckg0844j43rxrj8tmk9n50zksw5jk5z5j0csj8a8jz79sz4pqx2",
      "value": 2658
    },
    {
      "scriptpubkey": "512083a66bac177fbc0a6dbe320b1b7f7c74cbe28d6cf1a88981573b5ed1487489cd",
      "scriptpubkey_asm": "OP_PUSHNUM_1 OP_PUSHBYTES_32 83a66bac177fbc0a6dbe320b1b7f7c74cbe28d6cf1a88981573b5ed1487489cd",
      "scriptpubkey_type": "v1_p2tr",
      "scriptpubkey_address": "bc1pswnxhtqh077q5md7xg93klmuwn979rtv7x5gnq2h8d0dzjr538xslnpmdk",
      "value": 2658
    },
    {
      "scriptpubkey": "5120c563282adf405a9025e8754411ca159e6e820b4be9a0632d96fb14fd22aafb65",
      "scriptpubkey_asm": "OP_PUSHNUM_1 OP_PUSHBYTES_32 c563282adf405a9025e8754411ca159e6e820b4be9a0632d96fb14fd22aafb65",
      "scriptpubkey_type": "v1_p2tr",
      "scriptpubkey_address": "bc1pc43js2klgpdfqf0gw4zprjs4nehgyz6taxsxxtvklv206g42ldjsvaw964",
      "value": 2658
    },
    {
      "scriptpubkey": "00149071c7a8357625d048971835df455634870d2c55",
      "scriptpubkey_asm": "OP_0 OP_PUSHBYTES_20 9071c7a8357625d048971835df455634870d2c55",
      "scriptpubkey_type": "v0_p2wpkh",
      "scriptpubkey_address": "bc1qjpcu02p4wcjaqjyhrq6a732kxjrs6tz4wu2rt8",
      "value": 46352
    }
  ],
  "size": 1389,
  "weight": 4437,
  "fee": 13320,
  "status": {
    "confirmed": true,
    "block_height": 834460,
    "block_hash": "00000000000000000000484a79b643b2524bbce82e5d8a442013fa5b8905ed98",
    "block_time": 1710307468
  },
  "hex": "02000000000101d271b6c4ec6e0a51a385a2721f9e9260d8461e512134cee54f90430a84ebe6120000000000fdffffff17220200000000000016001432b1f2511437ad495a0c2efb5c2b9aeb7e236561620a000000000000225120ded2233edab1f62cf0e292373c9316840964dd74f9eb5f1ce907eda5cddd8da8620a000000000000225120a4972c08168308a51916dd5cfbfe8ab20f223eac1502e673c5bc92aee57799ab620a00000000000022512042e570bbbf55b474d1ac6bacac3457aa20f1d16beabafcdc256493ed68bb50e7620a00000000000022512046ca3a59524084bd283bb0fa722029a6d3ed4dd3330cdf1e9a916c848ba47d26620a0000000000002251204a9c759c482dc8cb0d043893617ba81514a2250bfbdfc4c694046555f2111928620a00000000000022512006060b2fdf4f40958939a562e8707d4b35031c12e240e4db12cf569f13676bfd560a0000000000002251200d190cf2f95c38eb0df161d8d7c49715bd052d04c196ba4852410ddeb6b4e018620a000000000000225120370a44fb8e6c73bc9142961c8c217d52d21be80c7eee7233c0b9d56687870f9b620a0000000000002251203167b55bce57d524d06793e89bee4f3e2b4b3806b0d37ff79abd484caed14d8e620a000000000000225120cb768d403614d659a7a26686432a6355934be467e247ddb9130b92f5fc019838620a000000000000225120bc1d7746a17d00e5f74b301e96bb210c73f92346ead0562336c4a7aafbfa1e27620a000000000000225120c2115ec421a71d8386937eecf0d2ff8c435c4e8352792ebc57798b76efa31af6560a0000000000002251209635b4b46432e97bed95e88835d567d7fa145e74a524fdc47e1ba798fe37184d620a000000000000225120184ee1dfdf492d4121548add24ab2208458f0fd5e567b0910b851e62fbb0ce61620a000000000000225120c654595aacbdde271351e2b687c8f2e74d31e3dc4d6f76f7e1efc942106f1a86560a000000000000225120647bad9ace6414904996c03b19c4e0e303ae821197f08fd7bd32bbcaacef9432620a0000000000002251205e1b485c3a6ad8eb5aadf3446970dfb68a627094433a16cbe8728540e578b5d5620a0000000000002251202dd6b1552058accf57183c12b4129c79345953119a2dbee20b72463751dddfee620a000000000000225120bcd50a1e78b21e7ad65588cc391d7bb167478ad075256a0a927e2123f4f2178b620a00000000000022512083a66bac177fbc0a6dbe320b1b7f7c74cbe28d6cf1a88981573b5ed1487489cd620a000000000000225120c563282adf405a9025e8754411ca159e6e820b4be9a0632d96fb14fd22aafb6510b50000000000001600149071c7a8357625d048971835df455634870d2c5503404ae058a89972c1a92e0d4d5c156d315ded2a2873841f7c9c0bf44b493b9020728985eca49f3fd350daa5bb72b2d9238651c81449d481ff7161044963f3cc8c7efd0c01208923b999575b7c98ab4ba99c7f4d8f1acea34ed7987c5842510bf749ac070afeac0063036f726401011e6170706c69636174696f6e2f6a736f6e3b636861727365743d7574662d38004cbf7b2270223a22706f772d3230222c226f70223a226d696e74222c227469636b223a2250455045222c22616d74223a2231303030222c22736f6c7574696f6e223a22504550453a626331717832636c7935673578376b356a6b7376396d61346332753661646c7a78657470616e387071733a303030303030303030303030303030303030303139393431613561653132383937363539383134343239323533333030353762306461393666336465613163353a3431303231373937303932227d6821c0da2c9a1920efdfbecd176e4adbb0ca1150e62509fd8a3a19d8331b0c89a8a97b00000000"
}