{
  "txid": "33208adce88477a8d40953b322d9079be118dabb96e6bd913b36da29657e8eeb",
  "version": 2,
  "locktime": 0,
  "vin": [
    {
      "txid": "57ce3a8641ed2cc0b0960b458fb70471b038659522e674113f6e6ce4023f8b10",
      "vout": 0,
      "prevout": {
        "scriptpubkey": "51207d68cec9f3ff0d70001788d37f7d6b8ca7b7df3f422bbdf98e42c321cb07d9ae",
        "scriptpubkey_asm": "OP_PUSHNUM_1 OP_PUSHBYTES_32 7d68cec9f3ff0d70001788d37f7d6b8ca7b7df3f422bbdf98e42c321cb07d9ae",
        "scriptpubkey_type": "v1_p2tr",
        "scriptpubkey_address": "bc1p045vaj0nluxhqqqh3rfh7ltt3jnm0helgg4mm7vwgtpjrjc8mxhq4c5zv5",
        "value": 546
      },
      "scriptsig": "",
      "scriptsig_asm": "",
      "witness": [
        "58e0dfdfcfccb251821e282fba2882c43105bc03b3a0d9e49eeed66125c3a65b7373326698bc9810a697b2701a1945a0fceef744939db968dff163624cb6b6dc"
      ],
      "is_coinbase": false,
      "sequence": 4294967295
    },
    {
      "txid": "819ef02d940fbdd335c76975dfc34be52ccf9119fec72d9f4598e1c4d8ad41b0",
      "vout": 1,
      "prevout": {
        "scriptpubkey": "51207d68cec9f3ff0d70001788d37f7d6b8ca7b7df3f422bbdf98e42c321cb07d9ae",
        "scriptpubkey_asm": "OP_PUSHNUM_1 OP_PUSHBYTES_32 7d68cec9f3ff0d70001788d37f7d6b8ca7b7df3f422bbdf98e42c321cb07d9ae",
        "scriptpubkey_type": "v1_p2tr",
        "scriptpubkey_address": "bc1p045vaj0nluxhqqqh3rfh7ltt3jnm0helgg4mm7vwgtpjrjc8mxhq4c5zv5",
        "value": 60131
      },
      "scriptsig": "",
      "scriptsig_asm": "",
      "witness": [
        "53927fe369defc3c63eb98e82fe853aac6a29d4518da50d8914800cb0fa8b5867ad87e846f1413c1aa4d81c1c4b7dea9e005d7ce639ea96e082ac92821354201"
      ],
      "is_coinbase": false,
      "sequence": 4294967295
    }
  ],
  "vout": [
    {
      "scriptpubkey": "512056f7ed580ef34964e8ae467f740bdd4ecb81937a3f3a6b0e2fc66e87b5f49aeb",
      "scriptpubkey_asm": "OP_PUSHNUM_1 OP_PUSHBYTES_32 56f7ed580ef34964e8ae467f740bdd4ecb81937a3f3a6b0e2fc66e87b5f49aeb",
      "scriptpubkey_type": "v1_p2tr",
      "scriptpubkey_address": "bc1p2mm76kqw7dykf69wgelhgz7afm9crym68uaxkr30cehg0d05nt4sd2wz4n",
      "value": 546
    },
    {
      "scriptpubkey": "51207d68cec9f3ff0d70001788d37f7d6b8ca7b7df3f422bbdf98e42c321cb07d9ae",
      "scriptpubkey_asm": "OP_PUSHNUM_1 OP_PUSHBYTES_32 7d68cec9f3ff0d70001788d37f7d6b8ca7b7df3f422bbdf98e42c321cb07d9ae",
      "scriptpubkey_type": "v1_p2tr",
      "scriptpubkey_address": "bc1p045vaj0nluxhqqqh3rfh7ltt3jnm0helgg4mm7vwgtpjrjc8mxhq4c5zv5",
      "value": 57375
    }
  ],
  "size": 312,
  "weight": 846,
  "fee": 2756,
  "status": {
    "confirmed": true,
    "block_height": 834460,
    "block_hash": "00000000000000000000484a79b643b2524bbce82e5d8a442013fa5b8905ed98",
    "block_time": 1710307468
  },
  "hex": "02000000000102108b3f02e46c6e3f1174e622956538b07104b78f450b96b0c02ced41863ace570000000000ffffffffb041add8c4e198459f2dc7fe1991cf2ce54bc3df7569c735d3bd0f942df09e810100000000ffffffff02220200000000000022512056f7ed580ef34964e8ae467f740bdd4ecb81937a3f3a6b0e2fc66e87b5f49aeb1fe00000000000002251207d68cec9f3ff0d70001788d37f7d6b8ca7b7df3f422bbdf98e42c321cb07d9ae014058e0dfdfcfccb251821e282fba2882c43105bc03b3a0d9e49eeed66125c3a65b7373326698bc9810a697b2701a1945a0fceef744939db968dff163624cb6b6dc014053927fe369defc3c63eb98e82fe853aac6a29d4518da50d8914800cb0fa8b5867ad87e846f1413c1aa4d81c1c4b7dea9e005d7ce639ea96e082ac9282135420100000000"
}