{
  "txid": "33324d7e00beb6d9daf773452a55205f9625adddfd34b0ac0cace69bf35a77f9",
  "version": 2,
  "locktime": 834637,
  "vin": [
    {
      "txid": "1eeed5dfef006e65c5bcfa92dadab350fcab5fc264d512a0df261203200626e9",
      "vout": 1,
      "prevout": {
        "scriptpubkey": "00142bfe6612fddd516a2c5c5e0c3219f96203e79478",
        "scriptpubkey_asm": "OP_0 OP_PUSHBYTES_20 2bfe6612fddd516a2c5c5e0c3219f96203e79478",
        "scriptpubkey_type": "v0_p2wpkh",
        "scriptpubkey_address": "bc1q90lxvyham4gk5tzutcxryx0evgp709rcl3lmpv",
        "value": 1403821
      },
      "scriptsig": "",
      "scriptsig_asm": "",
      "witness": [
        "304402201dcfc0885e2d8ac5acca39fada77537c4b0291ddb914b89ebf55ccd5a162e86002201aaadd846ff1c39b425265933c248976e1a5948b1b1b4d0f1daabfc03514ec6201",
        "03ea632ca09998b74f27dbae365e3780beb4e2d0697a675e18689028938e5f152d"
      ],
      "is_coinbase": false,
      "sequence": 4294967294
    }
  ],
  "vout": [
    {
      "scriptpubkey": "001445826f798d7f027ce16fad436ce968180bcc688f",
      "scriptpubkey_asm": "OP_0 OP_PUSHBYTES_20 45826f798d7f027ce16fad436ce968180bcc688f",
      "scriptpubkey_type": "v0_p2wpkh",
      "scriptpubkey_address": "bc1qgkpx77vd0up8ect044pke6tgrq9uc6y0ywnw5w",
      "value": 34181
    },
    {
      "scriptpubkey": "00147ec6c3c672dca2f683abbf5f6ee7fbe0806b2eef",
      "scriptpubkey_asm": "OP_0 OP_PUSHBYTES_20 7ec6c3c672dca2f683abbf5f6ee7fbe0806b2eef",
      "scriptpubkey_type": "v0_p2wpkh",
      "scriptpubkey_address": "bc1q0mrv83njmj30dqatha0kaelmuzqxkth02t3uhp",
      "value": 1365410
    }
  ],
  "size": 222,
  "weight": 561,
  "fee": 4230,
  "status": {
    "confirmed": true,
    "block_height": 834638,
    "block_hash": "000000000000000000025f742c626208ac87e0b7d15054abb4a19ca2d735a54e",
    "block_time": 1710405325
  },
  "hex": "02000000000101e9260620031226dfa012d564c25fabfc50b3dada92fabcc5656e00efdfd5ee1e0100000000feffffff02858500000000000016001445826f798d7f027ce16fad436ce968180bcc688fa2d51400000000001600147ec6c3c672dca2f683abbf5f6ee7fbe0806b2eef0247304402201dcfc0885e2d8ac5acca39fada77537c4b0291ddb914b89ebf55ccd5a162e86002201aaadd846ff1c39b425265933c248976e1a5948b1b1b4d0f1daabfc03514ec62012103ea632ca09998b74f27dbae365e3780beb4e2d0697a675e18689028938e5f152d4dbc0c00"
}