{
  "txid": "333460e67a985a8e352f6d95d01dedba8e555e621072883660a7ae954d0d90f8",
  "version": 2,
  "locktime": 0,
  "vin": [
    {
      "txid": "d9f008498a29759d86d0fff5f563102c29ce6374e2936cf6629ec9339b5dd4a4",
      "vout": 0,
      "prevout": {
        "scriptpubkey": "512009a5c4b3cb3336a444d17dca5240e64e36148e3cffac691f629238550e7cb614",
        "scriptpubkey_asm": "OP_PUSHNUM_1 OP_PUSHBYTES_32 09a5c4b3cb3336a444d17dca5240e64e36148e3cffac691f629238550e7cb614",
        "scriptpubkey_type": "v1_p2tr",
        "scriptpubkey_address": "bc1ppxjufv7txvm2g3x30h99ys8xfcmpfr3ul7kxj8mzjgu92rnukc2q7mm4nt",
        "value": 2795
      },
      "scriptsig": "",
      "scriptsig_asm": "",
      "witness": [
        "263588ad2996e5481b1f6f7562c2391d427bc7ff951ef13aeb4f47d9d825491253789c0893ba523138a78ed5a97b2d6c04e8f52407792b6007044df94935f152",
        "2023e7480b2aceafaee698dae52070dee19e63e61e03934acf9533f2a8995e10ecac0063036f7264010118746578742f706c61696e3b636861727365743d7574662d38004c867b2270223a22746170222c226f70223a22646d742d6d696e74222c22646570223a22333962373532343338626533613435326464623731376230613635346233313662316164343661383139656234343831383933626337313331663738396539616930222c227469636b223a226e61746f776c73222c22626c6b223a22343830303131227d68",
        "c023e7480b2aceafaee698dae52070dee19e63e61e03934acf9533f2a8995e10ec25f4cb5f41f2f43f4401cbd15b751a56334dbb27d7cc0a3eac9050f730a238fa"
      ],
      "is_coinbase": false,
      "sequence": 4294967293
    }
  ],
  "vout": [
    {
      "scriptpubkey": "5120ee8b7e63b6a66b240203dedf013a21b5daa4b6b1e03b811dc15b9aab27b11d51",
      "scriptpubkey_asm": "OP_PUSHNUM_1 OP_PUSHBYTES_32 ee8b7e63b6a66b240203dedf013a21b5daa4b6b1e03b811dc15b9aab27b11d51",
      "scriptpubkey_type": "v1_p2tr",
      "scriptpubkey_address": "bc1pa69hucak5e4jgqsrmm0szw3pkhd2fd43uqacz8wptwd2kfa3r4gsj6rt00",
      "value": 546
    }
  ],
  "size": 434,
  "weight": 716,
  "fee": 2249,
  "status": {
    "confirmed": true,
    "block_height": 834460,
    "block_hash": "00000000000000000000484a79b643b2524bbce82e5d8a442013fa5b8905ed98",
    "block_time": 1710307468
  },
  "hex": "02000000000101a4d45d9b33c99e62f66c93e27463ce292c1063f5f5ffd0869d75298a4908f0d90000000000fdffffff012202000000000000225120ee8b7e63b6a66b240203dedf013a21b5daa4b6b1e03b811dc15b9aab27b11d510340263588ad2996e5481b1f6f7562c2391d427bc7ff951ef13aeb4f47d9d825491253789c0893ba523138a78ed5a97b2d6c04e8f52407792b6007044df94935f152cd2023e7480b2aceafaee698dae52070dee19e63e61e03934acf9533f2a8995e10ecac0063036f7264010118746578742f706c61696e3b636861727365743d7574662d38004c867b2270223a22746170222c226f70223a22646d742d6d696e74222c22646570223a22333962373532343338626533613435326464623731376230613635346233313662316164343661383139656234343831383933626337313331663738396539616930222c227469636b223a226e61746f776c73222c22626c6b223a22343830303131227d6841c023e7480b2aceafaee698dae52070dee19e63e61e03934acf9533f2a8995e10ec25f4cb5f41f2f43f4401cbd15b751a56334dbb27d7cc0a3eac9050f730a238fa00000000"
}