{
  "txid": "3355ef857f72f53f5082f9d0b31a5e0e809818d4669b6c60d4af3366f1b1b3be",
  "version": 1,
  "locktime": 0,
  "vin": [
    {
      "txid": "bf3b74d2f064a2564fd27a733edba041acf9763230e5ab85adea258526a8e3f3",
      "vout": 0,
      "prevout": {
        "scriptpubkey": "0014e57d3461da422c1df777df0da38a3dd51e2caca0",
        "scriptpubkey_asm": "OP_0 OP_PUSHBYTES_20 e57d3461da422c1df777df0da38a3dd51e2caca0",
        "scriptpubkey_type": "v0_p2wpkh",
        "scriptpubkey_address": "bc1qu47ngcw6ggkpmamhmux68z3a650zet9q58de2w",
        "value": 1203483
      },
      "scriptsig": "",
      "scriptsig_asm": "",
      "witness": [
        "3045022100e3e5b03e2cf1ae961afc8631c1a6dbc2a5064a76231fedf36e8b958d16c396080220665819e75c3bc55a3f1f4d6ff64ee7da33a2d90f1dc5680f498933125f9b988d01",
        "03d675be41a21f697b761ea9402b4768eb73fc43bb61c6124dc99f8a21f8ce09dd"
      ],
      "is_coinbase": false,
      "sequence": 4294967295
    }
  ],
  "vout": [
    {
      "scriptpubkey": "76a91475203d11c99beed3a221a7467f3a318816dc4b8e88ac",
      "scriptpubkey_asm": "OP_DUP OP_HASH160 OP_PUSHBYTES_20 75203d11c99beed3a221a7467f3a318816dc4b8e OP_EQUALVERIFY OP_CHECKSIG",
      "scriptpubkey_type": "p2pkh",
      "scriptpubkey_address": "1BgJgRFP2nXX5VrJmGG3zsmxRm3BQNLtT9",
      "value": 149816
    },
    {
      "scriptpubkey": "00146c0279005cafe818cbe1639d93d6fb16a470076e",
      "scriptpubkey_asm": "OP_0 OP_PUSHBYTES_20 6c0279005cafe818cbe1639d93d6fb16a470076e",
      "scriptpubkey_type": "v0_p2wpkh",
      "scriptpubkey_address": "bc1qdsp8jqzu4l5p3jlpvwwe84hmz6j8qpmw82fu2r",
      "value": 1051507
    }
  ],
  "size": 226,
  "weight": 574,
  "fee": 2160,
  "status": {
    "confirmed": true,
    "block_height": 834638,
    "block_hash": "000000000000000000025f742c626208ac87e0b7d15054abb4a19ca2d735a54e",
    "block_time": 1710405325
  },
  "hex": "01000000000101f3e3a8268525eaad85abe5303276f9ac41a0db3e737ad24f56a264f0d2743bbf0000000000ffffffff0238490200000000001976a91475203d11c99beed3a221a7467f3a318816dc4b8e88ac730b1000000000001600146c0279005cafe818cbe1639d93d6fb16a470076e02483045022100e3e5b03e2cf1ae961afc8631c1a6dbc2a5064a76231fedf36e8b958d16c396080220665819e75c3bc55a3f1f4d6ff64ee7da33a2d90f1dc5680f498933125f9b988d012103d675be41a21f697b761ea9402b4768eb73fc43bb61c6124dc99f8a21f8ce09dd00000000"
}