{
  "txid": "336c3c8de2b5304d3c42c73368788f90e3f28f9f9a9b38f905c44bda20042395",
  "version": 2,
  "locktime": 0,
  "vin": [
    {
      "txid": "b13bb5512a4904c28a6b7957b88edf574e8cb23551fc1dcfe22d6b239df42cf4",
      "vout": 97,
      "prevout": {
        "scriptpubkey": "512055d1bea3071addfe55c879c623efe10872988a168011836ca70d3931b570f894",
        "scriptpubkey_asm": "OP_PUSHNUM_1 OP_PUSHBYTES_32 55d1bea3071addfe55c879c623efe10872988a168011836ca70d3931b570f894",
        "scriptpubkey_type": "v1_p2tr",
        "scriptpubkey_address": "bc1p2hgmagc8rtwlu4wg08rz8mlpppef3zsksqgcxm98p5unrdtslz2qk7msf9",
        "value": 2575
      },
      "scriptsig": "",
      "scriptsig_asm": "",
      "witness": [
        "beff6e639387ea51a16af79674c7a288025f9814ca1b01167fd487d4ce4f2770c07825e27ab81b1a444dedee1fd22a8ce348b106c305bebbb7d36bc76ad0298e",
        "20b685ac0db695a6a9afc92917c31a03d23a41058cab632627de915e20be2278c2ac0063036f726401010a746578742f706c61696e00367b2270223a226272632d3230222c226f70223a226d696e74222c227469636b223a2261616161222c22616d74223a223130303030227d68",
        "c0b685ac0db695a6a9afc92917c31a03d23a41058cab632627de915e20be2278c2"
      ],
      "is_coinbase": false,
      "sequence": 4261412863
    }
  ],
  "vout": [
    {
      "scriptpubkey": "0014ce0b5aa0dac72397a8aa5a85d90a2cfb46f0f630",
      "scriptpubkey_asm": "OP_0 OP_PUSHBYTES_20 ce0b5aa0dac72397a8aa5a85d90a2cfb46f0f630",
      "scriptpubkey_type": "v0_p2wpkh",
      "scriptpubkey_address": "bc1qec944gx6cu3e0292t2zajz3vldr0pa3sh356d9",
      "value": 546
    }
  ],
  "size": 295,
  "weight": 541,
  "fee": 2029,
  "status": {
    "confirmed": true,
    "block_height": 834464,
    "block_hash": "0000000000000000000177a0869a911a2b65c9bdcd5a8bcb02b68f305bee848e",
    "block_time": 1710308296
  },
  "hex": "02000000000101f42cf49d236b2de2cf1dfc5135b28c4e57df8eb857796b8ac204492a51b53bb16100000000fffffffd012202000000000000160014ce0b5aa0dac72397a8aa5a85d90a2cfb46f0f6300340beff6e639387ea51a16af79674c7a288025f9814ca1b01167fd487d4ce4f2770c07825e27ab81b1a444dedee1fd22a8ce348b106c305bebbb7d36bc76ad0298e6e20b685ac0db695a6a9afc92917c31a03d23a41058cab632627de915e20be2278c2ac0063036f726401010a746578742f706c61696e00367b2270223a226272632d3230222c226f70223a226d696e74222c227469636b223a2261616161222c22616d74223a223130303030227d6821c0b685ac0db695a6a9afc92917c31a03d23a41058cab632627de915e20be2278c200000000"
}