{
  "txid": "3371c6a0843d8222b78a48f0a6403636d1ee9cde5b45e224d5141ef3b492f9c0",
  "version": 2,
  "locktime": 0,
  "vin": [
    {
      "txid": "491cd7b98e0eec28eb9a97e061fcd71854ac103bdbc4d8a83b6613394d29489e",
      "vout": 163,
      "prevout": {
        "scriptpubkey": "00141e458d92c0580357c2e2489072d48d49ea022fd7",
        "scriptpubkey_asm": "OP_0 OP_PUSHBYTES_20 1e458d92c0580357c2e2489072d48d49ea022fd7",
        "scriptpubkey_type": "v0_p2wpkh",
        "scriptpubkey_address": "bc1qrezcmykqtqp40shzfzg894ydf84qyt7huy08mg",
        "value": 148351
      },
      "scriptsig": "",
      "scriptsig_asm": "",
      "witness": [
        "30450221008d9d3f5e43c3ab4c6da07b8e67056734ab23cfb6ade80542f3a6b9f83615c4f3022030f07134a5198227e8c899f46845b684e95386245af2a4ebdf1fccfe0771324b01",
        "023b4b823a721a008aabd7e37f63d8ccf0fd307cb5b1b1d47621646a765648617a"
      ],
      "is_coinbase": false,
      "sequence": 4294967293
    }
  ],
  "vout": [
    {
      "scriptpubkey": "76a914e26f0a67903cafea00c8e032ed8c11a2158b853288ac",
      "scriptpubkey_asm": "OP_DUP OP_HASH160 OP_PUSHBYTES_20 e26f0a67903cafea00c8e032ed8c11a2158b8532 OP_EQUALVERIFY OP_CHECKSIG",
      "scriptpubkey_type": "p2pkh",
      "scriptpubkey_address": "1MeGjbP9YQCTuYQcgwGYL3tDjcsXwSfP6g",
      "value": 146731
    }
  ],
  "size": 195,
  "weight": 450,
  "fee": 1620,
  "status": {
    "confirmed": true,
    "block_height": 834638,
    "block_hash": "000000000000000000025f742c626208ac87e0b7d15054abb4a19ca2d735a54e",
    "block_time": 1710405325
  },
  "hex": "020000000001019e48294d3913663ba8d8c4db3b10ac5418d7fc61e0979aeb28ec0e8eb9d71c49a300000000fdffffff012b3d0200000000001976a914e26f0a67903cafea00c8e032ed8c11a2158b853288ac024830450221008d9d3f5e43c3ab4c6da07b8e67056734ab23cfb6ade80542f3a6b9f83615c4f3022030f07134a5198227e8c899f46845b684e95386245af2a4ebdf1fccfe0771324b0121023b4b823a721a008aabd7e37f63d8ccf0fd307cb5b1b1d47621646a765648617a00000000"
}