{
  "txid": "3376310225ef4ceb43aad95add0a3b5cb88685b58062394ae6bd9b0501b3abe3",
  "version": 2,
  "locktime": 834358,
  "vin": [
    {
      "txid": "5ae95728013d96066aa5f5769a04f8b23bd69320ecf3372cbb61187dea723783",
      "vout": 0,
      "prevout": {
        "scriptpubkey": "001449633e3106ad1860c9b846c234ba45c9260bf250",
        "scriptpubkey_asm": "OP_0 OP_PUSHBYTES_20 49633e3106ad1860c9b846c234ba45c9260bf250",
        "scriptpubkey_type": "v0_p2wpkh",
        "scriptpubkey_address": "bc1qf93nuvgx45vxpjdcgmprfwj9eynqhujstrydls",
        "value": 14372
      },
      "scriptsig": "",
      "scriptsig_asm": "",
      "witness": [
        "304402207d3047c7e71b1ad3e616ca53019e2cdac12fe2a55d364fb61949d6f86f8a63cd022058966a0eee5a935787b464e378e38c7d12e6fe23068c99b8d46b710267fecab401",
        "03b76567749dbc8d1bccd03252c6bf105101885dd7cb89bda0725f85c2afe6223a"
      ],
      "is_coinbase": false,
      "sequence": 4294967293
    }
  ],
  "vout": [
    {
      "scriptpubkey": "a9141d8cca105db9b813bb530b7b942e7182751ded0887",
      "scriptpubkey_asm": "OP_HASH160 OP_PUSHBYTES_20 1d8cca105db9b813bb530b7b942e7182751ded08 OP_EQUAL",
      "scriptpubkey_type": "p2sh",
      "scriptpubkey_address": "34PGBKVsQ5Ge9QgU2yt2cH1VTJSfuZq3uK",
      "value": 1663
    },
    {
      "scriptpubkey": "0014a2fd28d7ec7fd8306d921b2b809604cd92a044da",
      "scriptpubkey_asm": "OP_0 OP_PUSHBYTES_20 a2fd28d7ec7fd8306d921b2b809604cd92a044da",
      "scriptpubkey_type": "v0_p2wpkh",
      "scriptpubkey_address": "bc1q5t7j34lv0lvrqmvjrv4cp9syekf2q3x64rs9f2",
      "value": 11857
    }
  ],
  "size": 223,
  "weight": 565,
  "fee": 852,
  "status": {
    "confirmed": true,
    "block_height": 834464,
    "block_hash": "0000000000000000000177a0869a911a2b65c9bdcd5a8bcb02b68f305bee848e",
    "block_time": 1710308296
  },
  "hex": "02000000000101833772ea7d1861bb2c37f3ec2093d63bb2f8049a76f5a56a06963d012857e95a0000000000fdffffff027f0600000000000017a9141d8cca105db9b813bb530b7b942e7182751ded0887512e000000000000160014a2fd28d7ec7fd8306d921b2b809604cd92a044da0247304402207d3047c7e71b1ad3e616ca53019e2cdac12fe2a55d364fb61949d6f86f8a63cd022058966a0eee5a935787b464e378e38c7d12e6fe23068c99b8d46b710267fecab4012103b76567749dbc8d1bccd03252c6bf105101885dd7cb89bda0725f85c2afe6223a36bb0c00"
}