{
  "txid": "33812f4034f24852a14e940b38cdca8cd240ba2673a034066ba84803b2c0ac40",
  "version": 2,
  "locktime": 0,
  "vin": [
    {
      "txid": "acc3ba00869acb582a3f2904ce3a11dd3779350ce234063fc7d0959246213364",
      "vout": 264,
      "prevout": {
        "scriptpubkey": "5120dab6d4871512e14d15c0f465dca6718e751f75a59fc45be7d2b200fc30e7b8e4",
        "scriptpubkey_asm": "OP_PUSHNUM_1 OP_PUSHBYTES_32 dab6d4871512e14d15c0f465dca6718e751f75a59fc45be7d2b200fc30e7b8e4",
        "scriptpubkey_type": "v1_p2tr",
        "scriptpubkey_address": "bc1pm2mdfpc4zts569wq73jaefn33e637ad9nlz9he7jkgq0cv88hrjq88n8px",
        "value": 1806
      },
      "scriptsig": "",
      "scriptsig_asm": "",
      "witness": [
        "b6694b5d7d84dd675270476f8a6b26325bc2220acfe02f18982005ff91bcde0c8119ffe89eaf068dd8a101ddc633f522537d182ebbfffb50c85b3df67f84066d",
        "202fd17f969825f34a782eec3acd668811c940985d2279eb6a5fde85d497452c45ac0063036f726401010a746578742f706c61696e00357b2270223a226272632d3230222c226f70223a226d696e74222c227469636b223a22646f6765222c22616d74223a2234323030227d68",
        "c02fd17f969825f34a782eec3acd668811c940985d2279eb6a5fde85d497452c45"
      ],
      "is_coinbase": false,
      "sequence": 4261412863
    }
  ],
  "vout": [
    {
      "scriptpubkey": "00147a665de7a370f4c9b372ab1fae587500a5bcbdb4",
      "scriptpubkey_asm": "OP_0 OP_PUSHBYTES_20 7a665de7a370f4c9b372ab1fae587500a5bcbdb4",
      "scriptpubkey_type": "v0_p2wpkh",
      "scriptpubkey_address": "bc1q0fn9mearwr6vnvmj4v06ukr4qzjme0d565dzcx",
      "value": 294
    }
  ],
  "size": 294,
  "weight": 540,
  "fee": 1512,
  "status": {
    "confirmed": true,
    "block_height": 834460,
    "block_hash": "00000000000000000000484a79b643b2524bbce82e5d8a442013fa5b8905ed98",
    "block_time": 1710307468
  },
  "hex": "02000000000101643321469295d0c73f0634e20c357937dd113ace04293f2a58cb9a8600bac3ac0801000000fffffffd0126010000000000001600147a665de7a370f4c9b372ab1fae587500a5bcbdb40340b6694b5d7d84dd675270476f8a6b26325bc2220acfe02f18982005ff91bcde0c8119ffe89eaf068dd8a101ddc633f522537d182ebbfffb50c85b3df67f84066d6d202fd17f969825f34a782eec3acd668811c940985d2279eb6a5fde85d497452c45ac0063036f726401010a746578742f706c61696e00357b2270223a226272632d3230222c226f70223a226d696e74222c227469636b223a22646f6765222c22616d74223a2234323030227d6821c02fd17f969825f34a782eec3acd668811c940985d2279eb6a5fde85d497452c4500000000"
}