{
  "txid": "3396cbd280194ace30b6db67563381e56084510a02c688452f5ec3171a53ad28",
  "version": 1,
  "locktime": 0,
  "vin": [
    {
      "txid": "6445a84d38074ea6e5fe74c767731527c485613c7fd63aabc3217d2fb2e72352",
      "vout": 1,
      "prevout": {
        "scriptpubkey": "512056b1ee4dcd728f3229dfbfa5966ebbe0db0551d90bb9e2c8bd8b037a6bccf633",
        "scriptpubkey_asm": "OP_PUSHNUM_1 OP_PUSHBYTES_32 56b1ee4dcd728f3229dfbfa5966ebbe0db0551d90bb9e2c8bd8b037a6bccf633",
        "scriptpubkey_type": "v1_p2tr",
        "scriptpubkey_address": "bc1p26c7unwdw28ny2wlh7jevm4murds25wepwu79j9a3vph567v7ceskfu9kg",
        "value": 762519
      },
      "scriptsig": "",
      "scriptsig_asm": "",
      "witness": [
        "183ba14d989cc45fe95b387acf993840a3abb7f549f034a7afb6741fdb4a2240ee6d908c3d580eb01f9b25aa666cf0e34471b051c3ddbf5da81d99929d78031c"
      ],
      "is_coinbase": false,
      "sequence": 1227143699
    }
  ],
  "vout": [
    {
      "scriptpubkey": "5120747ae7d947170a8a1a323d688616aeeb67a59a1e5bd3791a3f58dbb93e40f91d",
      "scriptpubkey_asm": "OP_PUSHNUM_1 OP_PUSHBYTES_32 747ae7d947170a8a1a323d688616aeeb67a59a1e5bd3791a3f58dbb93e40f91d",
      "scriptpubkey_type": "v1_p2tr",
      "scriptpubkey_address": "bc1pw3aw0k28zu9g5x3j845gv94wadn6txs7t0fhjx3ltrdmj0jqlywsmj9mz7",
      "value": 2905
    },
    {
      "scriptpubkey": "512056b1ee4dcd728f3229dfbfa5966ebbe0db0551d90bb9e2c8bd8b037a6bccf633",
      "scriptpubkey_asm": "OP_PUSHNUM_1 OP_PUSHBYTES_32 56b1ee4dcd728f3229dfbfa5966ebbe0db0551d90bb9e2c8bd8b037a6bccf633",
      "scriptpubkey_type": "v1_p2tr",
      "scriptpubkey_address": "bc1p26c7unwdw28ny2wlh7jevm4murds25wepwu79j9a3vph567v7ceskfu9kg",
      "value": 757612
    }
  ],
  "size": 205,
  "weight": 616,
  "fee": 2002,
  "status": {
    "confirmed": true,
    "block_height": 834464,
    "block_hash": "0000000000000000000177a0869a911a2b65c9bdcd5a8bcb02b68f305bee848e",
    "block_time": 1710308296
  },
  "hex": "010000000001015223e7b22f7d21c3ab3ad67f3c6185c427157367c774fee5a64e07384da84564010000000013ba244902590b000000000000225120747ae7d947170a8a1a323d688616aeeb67a59a1e5bd3791a3f58dbb93e40f91d6c8f0b000000000022512056b1ee4dcd728f3229dfbfa5966ebbe0db0551d90bb9e2c8bd8b037a6bccf6330140183ba14d989cc45fe95b387acf993840a3abb7f549f034a7afb6741fdb4a2240ee6d908c3d580eb01f9b25aa666cf0e34471b051c3ddbf5da81d99929d78031c00000000"
}