{
  "txid": "33a9884f1cba9523839cd763b71377bcacafd9eba5860437691fdaac3962187d",
  "version": 2,
  "locktime": 0,
  "vin": [
    {
      "txid": "d0354d785d67460317f3a60eba4b79968873a269b6b3ecefd64b067fbfcd483d",
      "vout": 3,
      "prevout": {
        "scriptpubkey": "0014eade3e85d44d1861bb3c11c4771671b5a580f5c1",
        "scriptpubkey_asm": "OP_0 OP_PUSHBYTES_20 eade3e85d44d1861bb3c11c4771671b5a580f5c1",
        "scriptpubkey_type": "v0_p2wpkh",
        "scriptpubkey_address": "bc1qat0rapw5f5vxrweuz8z8w9n3kkjcpawprhdm7q",
        "value": 36000
      },
      "scriptsig": "",
      "scriptsig_asm": "",
      "witness": [
        "304402204dab5553cc43b66f540072011ce33766e61eb1b9304c288f777aef3c268b62310220456a374484db5c971a26acdfb3405d7c46ff0a193bdd7764e7ca32460a7a12b601",
        "027506127f0c99e4cca04167858a6c0856cbb0ecb9dbc9e25e48bee6d9ac87d122"
      ],
      "is_coinbase": false,
      "sequence": 4294967295
    },
    {
      "txid": "3e595c9d392fa2d23da55c3ddff312a1f073f2034f6a498ff64a39b7b7336e60",
      "vout": 3,
      "prevout": {
        "scriptpubkey": "0014eade3e85d44d1861bb3c11c4771671b5a580f5c1",
        "scriptpubkey_asm": "OP_0 OP_PUSHBYTES_20 eade3e85d44d1861bb3c11c4771671b5a580f5c1",
        "scriptpubkey_type": "v0_p2wpkh",
        "scriptpubkey_address": "bc1qat0rapw5f5vxrweuz8z8w9n3kkjcpawprhdm7q",
        "value": 150151
      },
      "scriptsig": "",
      "scriptsig_asm": "",
      "witness": [
        "304402204740c606e0605e4ca08d69756e1f40ffbaf47ef984149afcf136fd963dd7599b02202bd762a338eedd4d3debb5c933fe55d9ddcf0b48cbe6f0d139a7bdd0516a01fa01",
        "027506127f0c99e4cca04167858a6c0856cbb0ecb9dbc9e25e48bee6d9ac87d122"
      ],
      "is_coinbase": false,
      "sequence": 4294967295
    },
    {
      "txid": "ea75e63ebb257fe14d6b80a7ebb3dd0f04d50fcff79f11e74c0b94511e91a528",
      "vout": 1,
      "prevout": {
        "scriptpubkey": "0014eade3e85d44d1861bb3c11c4771671b5a580f5c1",
        "scriptpubkey_asm": "OP_0 OP_PUSHBYTES_20 eade3e85d44d1861bb3c11c4771671b5a580f5c1",
        "scriptpubkey_type": "v0_p2wpkh",
        "scriptpubkey_address": "bc1qat0rapw5f5vxrweuz8z8w9n3kkjcpawprhdm7q",
        "value": 28128
      },
      "scriptsig": "",
      "scriptsig_asm": "",
      "witness": [
        "30440220604f83aa2531a1a88fc5dfdd4b355d43bb977c611ac833548332de94abc3256f022028571d53d088204e2ee05c3c9cd668d7cfc881cb33ec75da5bc952fdf8d853ec01",
        "027506127f0c99e4cca04167858a6c0856cbb0ecb9dbc9e25e48bee6d9ac87d122"
      ],
      "is_coinbase": false,
      "sequence": 4294967295
    }
  ],
  "vout": [
    {
      "scriptpubkey": "0014eade3e85d44d1861bb3c11c4771671b5a580f5c1",
      "scriptpubkey_asm": "OP_0 OP_PUSHBYTES_20 eade3e85d44d1861bb3c11c4771671b5a580f5c1",
      "scriptpubkey_type": "v0_p2wpkh",
      "scriptpubkey_address": "bc1qat0rapw5f5vxrweuz8z8w9n3kkjcpawprhdm7q",
      "value": 74520
    },
    {
      "scriptpubkey": "a9141afc2a0042331ded287cd1c4d4d2b9550c0a81a887",
      "scriptpubkey_asm": "OP_HASH160 OP_PUSHBYTES_20 1afc2a0042331ded287cd1c4d4d2b9550c0a81a8 OP_EQUAL",
      "scriptpubkey_type": "p2sh",
      "scriptpubkey_address": "349haCRnUeDZrLHfyKCcGqVTo7NEuFnL3y",
      "value": 136105
    }
  ],
  "size": 519,
  "weight": 1107,
  "fee": 3654,
  "status": {
    "confirmed": true,
    "block_height": 834638,
    "block_hash": "000000000000000000025f742c626208ac87e0b7d15054abb4a19ca2d735a54e",
    "block_time": 1710405325
  },
  "hex": "020000000001033d48cdbf7f064bd6efecb3b669a2738896794bba0ea6f3170346675d784d35d00300000000ffffffff606e33b7b7394af68f496a4f03f273f0a112f3df3d5ca53dd2a22f399d5c593e0300000000ffffffff28a5911e51940b4ce7119ff7cf0fd5040fddb3eba7806b4de17f25bb3ee675ea0100000000ffffffff021823010000000000160014eade3e85d44d1861bb3c11c4771671b5a580f5c1a91302000000000017a9141afc2a0042331ded287cd1c4d4d2b9550c0a81a8870247304402204dab5553cc43b66f540072011ce33766e61eb1b9304c288f777aef3c268b62310220456a374484db5c971a26acdfb3405d7c46ff0a193bdd7764e7ca32460a7a12b60121027506127f0c99e4cca04167858a6c0856cbb0ecb9dbc9e25e48bee6d9ac87d1220247304402204740c606e0605e4ca08d69756e1f40ffbaf47ef984149afcf136fd963dd7599b02202bd762a338eedd4d3debb5c933fe55d9ddcf0b48cbe6f0d139a7bdd0516a01fa0121027506127f0c99e4cca04167858a6c0856cbb0ecb9dbc9e25e48bee6d9ac87d122024730440220604f83aa2531a1a88fc5dfdd4b355d43bb977c611ac833548332de94abc3256f022028571d53d088204e2ee05c3c9cd668d7cfc881cb33ec75da5bc952fdf8d853ec0121027506127f0c99e4cca04167858a6c0856cbb0ecb9dbc9e25e48bee6d9ac87d12200000000"
}