{
  "txid": "33c1f32af9477a8f7c548b3bbdc36f1e8718f51f69edc2e188651f296ef26ab9",
  "version": 2,
  "locktime": 0,
  "vin": [
    {
      "txid": "dea728fdc8df076e6b9644e8d996b66e20c7d5ae539f81977201a432dd702522",
      "vout": 1,
      "prevout": {
        "scriptpubkey": "001435428fe904b86a89c85a620af00ae1c20d10538c",
        "scriptpubkey_asm": "OP_0 OP_PUSHBYTES_20 35428fe904b86a89c85a620af00ae1c20d10538c",
        "scriptpubkey_type": "v0_p2wpkh",
        "scriptpubkey_address": "bc1qx4pgl6gyhp4gnjz6vg90qzhpcgx3q5uva38pjs",
        "value": 8286
      },
      "scriptsig": "",
      "scriptsig_asm": "",
      "witness": [
        "3044022024232d0479746b4596f274c217b92f8b4da571a7cdcce399d711eb002463623602204400b5b56f2242585af4ff82579eb3d1e8ede82843b043943004b7ac6331ee4901",
        "027bc8994a584be2233668bb8956d836d255d52fc077c8d670cab9403365123578"
      ],
      "is_coinbase": false,
      "sequence": 4294967295
    },
    {
      "txid": "1fff8ff8c2c1573d8c06126d9d1bcdde241932db8dce4f915255bf1c460bbf0a",
      "vout": 0,
      "prevout": {
        "scriptpubkey": "001435428fe904b86a89c85a620af00ae1c20d10538c",
        "scriptpubkey_asm": "OP_0 OP_PUSHBYTES_20 35428fe904b86a89c85a620af00ae1c20d10538c",
        "scriptpubkey_type": "v0_p2wpkh",
        "scriptpubkey_address": "bc1qx4pgl6gyhp4gnjz6vg90qzhpcgx3q5uva38pjs",
        "value": 411634
      },
      "scriptsig": "",
      "scriptsig_asm": "",
      "witness": [
        "30440220225e763b82ec45d338936a172073b26d5e5e3cb214229fa30d1ea68255482ec8022024256e585402c86a59751c9237ae6a6f86d7d4bf609a420616d82ba5f08283cd01",
        "027bc8994a584be2233668bb8956d836d255d52fc077c8d670cab9403365123578"
      ],
      "is_coinbase": false,
      "sequence": 4294967295
    }
  ],
  "vout": [
    {
      "scriptpubkey": "76a914da948e0017bb91939c504ded775d00101e03727a88ac",
      "scriptpubkey_asm": "OP_DUP OP_HASH160 OP_PUSHBYTES_20 da948e0017bb91939c504ded775d00101e03727a OP_EQUALVERIFY OP_CHECKSIG",
      "scriptpubkey_type": "p2pkh",
      "scriptpubkey_address": "1LvkGadM4buhbf2MmrRADdmx2k8qfzTYnM",
      "value": 44911
    },
    {
      "scriptpubkey": "001435428fe904b86a89c85a620af00ae1c20d10538c",
      "scriptpubkey_asm": "OP_0 OP_PUSHBYTES_20 35428fe904b86a89c85a620af00ae1c20d10538c",
      "scriptpubkey_type": "v0_p2wpkh",
      "scriptpubkey_address": "bc1qx4pgl6gyhp4gnjz6vg90qzhpcgx3q5uva38pjs",
      "value": 366655
    }
  ],
  "size": 373,
  "weight": 844,
  "fee": 8354,
  "status": {
    "confirmed": true,
    "block_height": 834638,
    "block_hash": "000000000000000000025f742c626208ac87e0b7d15054abb4a19ca2d735a54e",
    "block_time": 1710405325
  },
  "hex": "02000000000102222570dd32a4017297819f53aed5c7206eb696d9e844966b6e07dfc8fd28a7de0100000000ffffffff0abf0b461cbf5552914fce8ddb321924decd1b9d6d12068c3d57c1c2f88fff1f0000000000ffffffff026faf0000000000001976a914da948e0017bb91939c504ded775d00101e03727a88ac3f9805000000000016001435428fe904b86a89c85a620af00ae1c20d10538c02473044022024232d0479746b4596f274c217b92f8b4da571a7cdcce399d711eb002463623602204400b5b56f2242585af4ff82579eb3d1e8ede82843b043943004b7ac6331ee490121027bc8994a584be2233668bb8956d836d255d52fc077c8d670cab9403365123578024730440220225e763b82ec45d338936a172073b26d5e5e3cb214229fa30d1ea68255482ec8022024256e585402c86a59751c9237ae6a6f86d7d4bf609a420616d82ba5f08283cd0121027bc8994a584be2233668bb8956d836d255d52fc077c8d670cab940336512357800000000"
}