{
  "txid": "33f3419df0c07e31190bf104dbf0fb5e26afe4426ac7b07aef8eb511707fdba8",
  "version": 2,
  "locktime": 0,
  "vin": [
    {
      "txid": "b08a6d13a5eecc52f35eff8c6cb90749db2ead4c8fe3221a8ffe7e5c01e92206",
      "vout": 0,
      "prevout": {
        "scriptpubkey": "51204f43195438fd0a9a079876d04f29a131507dc286bc5f7513b105e3bc6783661b",
        "scriptpubkey_asm": "OP_PUSHNUM_1 OP_PUSHBYTES_32 4f43195438fd0a9a079876d04f29a131507dc286bc5f7513b105e3bc6783661b",
        "scriptpubkey_type": "v1_p2tr",
        "scriptpubkey_address": "bc1pfap3j4pcl59f5pucwmgy72dpx9g8ms5xh30h2ya3qh3mceurvcds6jzq69",
        "value": 3318
      },
      "scriptsig": "",
      "scriptsig_asm": "",
      "witness": [
        "173bc03d073bde5eb014d8171d15ef878bd0457f793bb80c97150ac47de2f073360b8d3ca66101d45cc070ee92b012664097fb3e2d0ffd3e85951a6970de4fdc",
        "20623b85064ed27a777e07b024bfa9104f6501be339113a36a49549da1fd16f63fac0063036f7264010118746578742f706c61696e3b636861727365743d7574662d3800427b2270223a226272632d3230222c226f70223a227472616e73666572222c227469636b223a22446f7669222c22616d74223a2231313335352e34363231353131227d68",
        "c0623b85064ed27a777e07b024bfa9104f6501be339113a36a49549da1fd16f63f"
      ],
      "is_coinbase": false,
      "sequence": 4294967293
    }
  ],
  "vout": [
    {
      "scriptpubkey": "5120c713d1e4d114eed130b500b614b08e2483d4e88d5bba6c81fee82ea90c330167",
      "scriptpubkey_asm": "OP_PUSHNUM_1 OP_PUSHBYTES_32 c713d1e4d114eed130b500b614b08e2483d4e88d5bba6c81fee82ea90c330167",
      "scriptpubkey_type": "v1_p2tr",
      "scriptpubkey_address": "bc1pcufarex3znhdzv94qzmpfvywyjpaf6ydtwaxeq07aqh2jrpnq9nssqd4uw",
      "value": 546
    }
  ],
  "size": 333,
  "weight": 615,
  "fee": 2772,
  "status": {
    "confirmed": true,
    "block_height": 834638,
    "block_hash": "000000000000000000025f742c626208ac87e0b7d15054abb4a19ca2d735a54e",
    "block_time": 1710405325
  },
  "hex": "020000000001010622e9015c7efe8f1a22e38f4cad2edb4907b96c8cff5ef352cceea5136d8ab00000000000fdffffff012202000000000000225120c713d1e4d114eed130b500b614b08e2483d4e88d5bba6c81fee82ea90c3301670340173bc03d073bde5eb014d8171d15ef878bd0457f793bb80c97150ac47de2f073360b8d3ca66101d45cc070ee92b012664097fb3e2d0ffd3e85951a6970de4fdc8820623b85064ed27a777e07b024bfa9104f6501be339113a36a49549da1fd16f63fac0063036f7264010118746578742f706c61696e3b636861727365743d7574662d3800427b2270223a226272632d3230222c226f70223a227472616e73666572222c227469636b223a22446f7669222c22616d74223a2231313335352e34363231353131227d6821c0623b85064ed27a777e07b024bfa9104f6501be339113a36a49549da1fd16f63f00000000"
}