{
  "txid": "3405e8c88729fb4012b466fcb1fe50cf61082d19315ad9feda806ecabd2961a9",
  "version": 1,
  "locktime": 0,
  "vin": [
    {
      "txid": "88888889ed090e513834283d181250f228d2de3d5f25091c88fb37d9d0fe4d87",
      "vout": 0,
      "prevout": {
        "scriptpubkey": "5120fcead8db7f3ce374eeecb291b1a3cf097c94b2a938c87ec06c92a294795684ad",
        "scriptpubkey_asm": "OP_PUSHNUM_1 OP_PUSHBYTES_32 fcead8db7f3ce374eeecb291b1a3cf097c94b2a938c87ec06c92a294795684ad",
        "scriptpubkey_type": "v1_p2tr",
        "scriptpubkey_address": "bc1pln4d3kml8n3hfmhvk2gmrg70p97ffv4f8ry8asrvj23fg72ksjks2nzsf8",
        "value": 11632
      },
      "scriptsig": "",
      "scriptsig_asm": "",
      "witness": [
        "080272f653f83da63b3691edfd02796844827b25cb010274d98c2d721f0a3a709820328ecb073b64deebd8e66af2aea536ce893eaee0cece3f859950e1796099",
        "20d20cb49a6fdf10a58808ac9140d15d1a058d0acb01eff9490852de1ecb788919ac00630461746f6d03646d7442a16461726773a46474696d651a65de72da656e6f6e6365191f9768626974776f726b6369383838383838382e326b6d696e745f7469636b657268696e66696e69747968",
        "c1d20cb49a6fdf10a58808ac9140d15d1a058d0acb01eff9490852de1ecb788919"
      ],
      "is_coinbase": false,
      "sequence": 1
    }
  ],
  "vout": [
    {
      "scriptpubkey": "5120f30f012f5ffc0ee98fc34d0eac3213da48489c7c3c79a3fef424092e76cc44bf",
      "scriptpubkey_asm": "OP_PUSHNUM_1 OP_PUSHBYTES_32 f30f012f5ffc0ee98fc34d0eac3213da48489c7c3c79a3fef424092e76cc44bf",
      "scriptpubkey_type": "v1_p2tr",
      "scriptpubkey_address": "bc1p7v8szt6lls8wnr7rf582cvsnmfyy38ru83u68lh5ysyjuakvgjlsaa27h9",
      "value": 9999
    }
  ],
  "size": 310,
  "weight": 592,
  "fee": 1633,
  "status": {
    "confirmed": true,
    "block_height": 834464,
    "block_hash": "0000000000000000000177a0869a911a2b65c9bdcd5a8bcb02b68f305bee848e",
    "block_time": 1710308296
  },
  "hex": "01000000000101874dfed0d937fb881c09255f3dded228f25012183d283438510e09ed89888888000000000001000000010f27000000000000225120f30f012f5ffc0ee98fc34d0eac3213da48489c7c3c79a3fef424092e76cc44bf0340080272f653f83da63b3691edfd02796844827b25cb010274d98c2d721f0a3a709820328ecb073b64deebd8e66af2aea536ce893eaee0cece3f859950e17960997120d20cb49a6fdf10a58808ac9140d15d1a058d0acb01eff9490852de1ecb788919ac00630461746f6d03646d7442a16461726773a46474696d651a65de72da656e6f6e6365191f9768626974776f726b6369383838383838382e326b6d696e745f7469636b657268696e66696e6974796821c1d20cb49a6fdf10a58808ac9140d15d1a058d0acb01eff9490852de1ecb78891900000000"
}