{
  "txid": "3407a06ca624ad62cdd5e94764aa5eea9b31e42ed1ffcde8ee443756c844cba6",
  "version": 2,
  "locktime": 0,
  "vin": [
    {
      "txid": "520382d0c4c85dadccac254ce35fb1016bff8c83e9d6bb6f56e9c4f1bdb35441",
      "vout": 2,
      "prevout": {
        "scriptpubkey": "00149548b3edade2d9332cf874c3ac2cd63e8f4c9384",
        "scriptpubkey_asm": "OP_0 OP_PUSHBYTES_20 9548b3edade2d9332cf874c3ac2cd63e8f4c9384",
        "scriptpubkey_type": "v0_p2wpkh",
        "scriptpubkey_address": "bc1qj4yt8mddutvnxt8cwnp6ctxk8685eyuy9v3wzd",
        "value": 41739
      },
      "scriptsig": "",
      "scriptsig_asm": "",
      "witness": [
        "304402201e175d772d1f0941cabae2182d349044906887aa737f8754fe7d1e11eac5623f022052523ed36d8cc63a6b28bd54c8d4e61a2b77cbf380b6a39f1e12c1ff5b54a60101",
        "02bb81fb83bbb0203a737e82bdc253e00b0a65d4a3ce385c86da18134ccf62ef31"
      ],
      "is_coinbase": false,
      "sequence": 4294967295
    }
  ],
  "vout": [
    {
      "scriptpubkey": "001448dfa704897f78fdfbc2b9534055dd9b219ef5a8",
      "scriptpubkey_asm": "OP_0 OP_PUSHBYTES_20 48dfa704897f78fdfbc2b9534055dd9b219ef5a8",
      "scriptpubkey_type": "v0_p2wpkh",
      "scriptpubkey_address": "bc1qfr06wpyf0au0m77zh9f5q4wanvseaadgq9qhf9",
      "value": 12477
    },
    {
      "scriptpubkey": "00149548b3edade2d9332cf874c3ac2cd63e8f4c9384",
      "scriptpubkey_asm": "OP_0 OP_PUSHBYTES_20 9548b3edade2d9332cf874c3ac2cd63e8f4c9384",
      "scriptpubkey_type": "v0_p2wpkh",
      "scriptpubkey_address": "bc1qj4yt8mddutvnxt8cwnp6ctxk8685eyuy9v3wzd",
      "value": 27429
    }
  ],
  "size": 222,
  "weight": 561,
  "fee": 1833,
  "status": {
    "confirmed": true,
    "block_height": 834464,
    "block_hash": "0000000000000000000177a0869a911a2b65c9bdcd5a8bcb02b68f305bee848e",
    "block_time": 1710308296
  },
  "hex": "020000000001014154b3bdf1c4e9566fbbd6e9838cff6b01b15fe34c25acccad5dc8c4d08203520200000000ffffffff02bd3000000000000016001448dfa704897f78fdfbc2b9534055dd9b219ef5a8256b0000000000001600149548b3edade2d9332cf874c3ac2cd63e8f4c93840247304402201e175d772d1f0941cabae2182d349044906887aa737f8754fe7d1e11eac5623f022052523ed36d8cc63a6b28bd54c8d4e61a2b77cbf380b6a39f1e12c1ff5b54a601012102bb81fb83bbb0203a737e82bdc253e00b0a65d4a3ce385c86da18134ccf62ef3100000000"
}