{
  "txid": "3415272952cd2403d3472d2796ceede3a698257173ebb32c88e7a8cbf07044cd",
  "version": 2,
  "locktime": 0,
  "vin": [
    {
      "txid": "97ae06e748503a7a9504a29294bf617cfe88fb5e0952ecb59694658cc5bac6c1",
      "vout": 1,
      "prevout": {
        "scriptpubkey": "001484918a4b121cac5b4f9782b9a73a8b52341edaca",
        "scriptpubkey_asm": "OP_0 OP_PUSHBYTES_20 84918a4b121cac5b4f9782b9a73a8b52341edaca",
        "scriptpubkey_type": "v0_p2wpkh",
        "scriptpubkey_address": "bc1qsjgc5jcjrjk9knuhs2u6ww5t2g6pakk2j4eycl",
        "value": 964672
      },
      "scriptsig": "",
      "scriptsig_asm": "",
      "witness": [
        "304402203dc9f1e7053e0a27810acacde976511b2748f947be8f0f0f8dc8a8a840e65240022065b67bd7a6a9da9a04c67f912450b1fcf1a83a63cab20418b5770ef49ac90cbd01",
        "037363b772888914f8a6f690bc2e8b13f43441d1593fb0f126f85091e96ad6af2b"
      ],
      "is_coinbase": false,
      "sequence": 4294967295
    },
    {
      "txid": "fc991bdf5d0a7bfe1fd92198ebc6f6193600fc0019228ac02612d9783ece6b99",
      "vout": 0,
      "prevout": {
        "scriptpubkey": "001484918a4b121cac5b4f9782b9a73a8b52341edaca",
        "scriptpubkey_asm": "OP_0 OP_PUSHBYTES_20 84918a4b121cac5b4f9782b9a73a8b52341edaca",
        "scriptpubkey_type": "v0_p2wpkh",
        "scriptpubkey_address": "bc1qsjgc5jcjrjk9knuhs2u6ww5t2g6pakk2j4eycl",
        "value": 245470
      },
      "scriptsig": "",
      "scriptsig_asm": "",
      "witness": [
        "3045022100d3cc92c1c9bdebeb7e6388c137335c574fb9714a0bdc466a1e52dd7db33b7997022000bea2ae646ecae10cceb7f40cc87fee5666edec11e7fbe9877583564af9ea6701",
        "037363b772888914f8a6f690bc2e8b13f43441d1593fb0f126f85091e96ad6af2b"
      ],
      "is_coinbase": false,
      "sequence": 4294967295
    }
  ],
  "vout": [
    {
      "scriptpubkey": "001484918a4b121cac5b4f9782b9a73a8b52341edaca",
      "scriptpubkey_asm": "OP_0 OP_PUSHBYTES_20 84918a4b121cac5b4f9782b9a73a8b52341edaca",
      "scriptpubkey_type": "v0_p2wpkh",
      "scriptpubkey_address": "bc1qsjgc5jcjrjk9knuhs2u6ww5t2g6pakk2j4eycl",
      "value": 942346
    },
    {
      "scriptpubkey": "76a914b8f69b8d72391833f06e6acba15dd9e18de69a3188ac",
      "scriptpubkey_asm": "OP_DUP OP_HASH160 OP_PUSHBYTES_20 b8f69b8d72391833f06e6acba15dd9e18de69a31 OP_EQUALVERIFY OP_CHECKSIG",
      "scriptpubkey_type": "p2pkh",
      "scriptpubkey_address": "1HrzktvAWoEUktmDSewmDQHNCQFCbTQgzr",
      "value": 263851
    }
  ],
  "size": 374,
  "weight": 845,
  "fee": 3945,
  "status": {
    "confirmed": true,
    "block_height": 834638,
    "block_hash": "000000000000000000025f742c626208ac87e0b7d15054abb4a19ca2d735a54e",
    "block_time": 1710405325
  },
  "hex": "02000000000102c1c6bac58c659496b5ec52095efb88fe7c61bf9492a204957a3a5048e706ae970100000000ffffffff996bce3e78d91226c08a221900fc003619f6c6eb9821d91ffe7b0a5ddf1b99fc0000000000ffffffff020a610e000000000016001484918a4b121cac5b4f9782b9a73a8b52341edacaab060400000000001976a914b8f69b8d72391833f06e6acba15dd9e18de69a3188ac0247304402203dc9f1e7053e0a27810acacde976511b2748f947be8f0f0f8dc8a8a840e65240022065b67bd7a6a9da9a04c67f912450b1fcf1a83a63cab20418b5770ef49ac90cbd0121037363b772888914f8a6f690bc2e8b13f43441d1593fb0f126f85091e96ad6af2b02483045022100d3cc92c1c9bdebeb7e6388c137335c574fb9714a0bdc466a1e52dd7db33b7997022000bea2ae646ecae10cceb7f40cc87fee5666edec11e7fbe9877583564af9ea670121037363b772888914f8a6f690bc2e8b13f43441d1593fb0f126f85091e96ad6af2b00000000"
}