{
  "txid": "342e81c6a116caebf2c79968d7f1d73e77f698307cda275b517691ef9d08ebc2",
  "version": 2,
  "locktime": 0,
  "vin": [
    {
      "txid": "c6f522804f767fcaf2674b6d1e5e093ffac1ecf733167b71e1309e570ee2a652",
      "vout": 14,
      "prevout": {
        "scriptpubkey": "5120cf88ba6180c77171969641834199b7eb47a777a7b853b67d6ae8dfbeb2ac77b1",
        "scriptpubkey_asm": "OP_PUSHNUM_1 OP_PUSHBYTES_32 cf88ba6180c77171969641834199b7eb47a777a7b853b67d6ae8dfbeb2ac77b1",
        "scriptpubkey_type": "v1_p2tr",
        "scriptpubkey_address": "bc1pe7yt5cvqcachr95kgxp5rxdhadr6waa8hpfmvlt2ar0mav4vw7csu5ngg7",
        "value": 600
      },
      "scriptsig": "",
      "scriptsig_asm": "",
      "witness": [
        "25b60e67ee0b693639f39ad7f05cdbe3647d0122bf681f68a5f8b1bb5dcc4a0fe756549b04f2a4f82dad264c76f1bcb8d622bb57bbaacbb6758770b21e51c11e01"
      ],
      "is_coinbase": false,
      "sequence": 4294967295
    },
    {
      "txid": "c6f522804f767fcaf2674b6d1e5e093ffac1ecf733167b71e1309e570ee2a652",
      "vout": 15,
      "prevout": {
        "scriptpubkey": "5120cf88ba6180c77171969641834199b7eb47a777a7b853b67d6ae8dfbeb2ac77b1",
        "scriptpubkey_asm": "OP_PUSHNUM_1 OP_PUSHBYTES_32 cf88ba6180c77171969641834199b7eb47a777a7b853b67d6ae8dfbeb2ac77b1",
        "scriptpubkey_type": "v1_p2tr",
        "scriptpubkey_address": "bc1pe7yt5cvqcachr95kgxp5rxdhadr6waa8hpfmvlt2ar0mav4vw7csu5ngg7",
        "value": 600
      },
      "scriptsig": "",
      "scriptsig_asm": "",
      "witness": [
        "eaacf605bc42955e953cf2be0862611e88ff7e262f6a91b319521f7962b4a18a354b6ef3e92846e5a4878c04cbd889c581e63a8f22a45431f039f8e00f430a4301"
      ],
      "is_coinbase": false,
      "sequence": 4294967295
    },
    {
      "txid": "15483e3fce9f4e1dbca9ca0287fa187bb09404bc0671a30a2c925c47e5b996cc",
      "vout": 2,
      "prevout": {
        "scriptpubkey": "512026007c65981b50b8ccd2b903132d6d69735482d0225d3ee93b1c05602e2c8530",
        "scriptpubkey_asm": "OP_PUSHNUM_1 OP_PUSHBYTES_32 26007c65981b50b8ccd2b903132d6d69735482d0225d3ee93b1c05602e2c8530",
        "scriptpubkey_type": "v1_p2tr",
        "scriptpubkey_address": "bc1pycq8cevcrdgt3nxjhyp3xttdd9e4fqksyfwna6fmrszkqt3vs5cq76nzj0",
        "value": 546
      },
      "scriptsig": "",
      "scriptsig_asm": "",
      "witness": [
        "453eb8165b862ba86ad86cf15b3739405e7f27ba6b3635097a948d0c179d19013810c999a176dd851a6d8cb170d8c2f48c87b80c2f864acfdca127307d71883983"
      ],
      "is_coinbase": false,
      "sequence": 4294967295
    },
    {
      "txid": "06f8a65c4870f441c4def7da51453a2928ccc37484efef48458b7938874d2f9b",
      "vout": 4,
      "prevout": {
        "scriptpubkey": "5120cf88ba6180c77171969641834199b7eb47a777a7b853b67d6ae8dfbeb2ac77b1",
        "scriptpubkey_asm": "OP_PUSHNUM_1 OP_PUSHBYTES_32 cf88ba6180c77171969641834199b7eb47a777a7b853b67d6ae8dfbeb2ac77b1",
        "scriptpubkey_type": "v1_p2tr",
        "scriptpubkey_address": "bc1pe7yt5cvqcachr95kgxp5rxdhadr6waa8hpfmvlt2ar0mav4vw7csu5ngg7",
        "value": 263000
      },
      "scriptsig": "",
      "scriptsig_asm": "",
      "witness": [
        "123e80f855f16f863921ae6b0a861a650b366de4060b8f5c6fc38da4f56f37ab26f13b8b9bd3e3be7155cdb8d556a55b62b36812a4257195e3e5d54834e4c7fa01"
      ],
      "is_coinbase": false,
      "sequence": 4294967295
    },
    {
      "txid": "188646eb2e1d027738036f1c3e7c61f94317f847dcffd82a1782db790f523f4d",
      "vout": 6,
      "prevout": {
        "scriptpubkey": "5120cf88ba6180c77171969641834199b7eb47a777a7b853b67d6ae8dfbeb2ac77b1",
        "scriptpubkey_asm": "OP_PUSHNUM_1 OP_PUSHBYTES_32 cf88ba6180c77171969641834199b7eb47a777a7b853b67d6ae8dfbeb2ac77b1",
        "scriptpubkey_type": "v1_p2tr",
        "scriptpubkey_address": "bc1pe7yt5cvqcachr95kgxp5rxdhadr6waa8hpfmvlt2ar0mav4vw7csu5ngg7",
        "value": 195643
      },
      "scriptsig": "",
      "scriptsig_asm": "",
      "witness": [
        "785488fceae526168b321b8339402669c2a954a37d22369380df4655e74ab3fc3f6bbfc60cefdcc17c6dfe9ea196dbf77f15cc959e74821470b43b0c6b3a09a701"
      ],
      "is_coinbase": false,
      "sequence": 4294967295
    }
  ],
  "vout": [
    {
      "scriptpubkey": "5120cf88ba6180c77171969641834199b7eb47a777a7b853b67d6ae8dfbeb2ac77b1",
      "scriptpubkey_asm": "OP_PUSHNUM_1 OP_PUSHBYTES_32 cf88ba6180c77171969641834199b7eb47a777a7b853b67d6ae8dfbeb2ac77b1",
      "scriptpubkey_type": "v1_p2tr",
      "scriptpubkey_address": "bc1pe7yt5cvqcachr95kgxp5rxdhadr6waa8hpfmvlt2ar0mav4vw7csu5ngg7",
      "value": 1200
    },
    {
      "scriptpubkey": "5120cf88ba6180c77171969641834199b7eb47a777a7b853b67d6ae8dfbeb2ac77b1",
      "scriptpubkey_asm": "OP_PUSHNUM_1 OP_PUSHBYTES_32 cf88ba6180c77171969641834199b7eb47a777a7b853b67d6ae8dfbeb2ac77b1",
      "scriptpubkey_type": "v1_p2tr",
      "scriptpubkey_address": "bc1pe7yt5cvqcachr95kgxp5rxdhadr6waa8hpfmvlt2ar0mav4vw7csu5ngg7",
      "value": 546
    },
    {
      "scriptpubkey": "512026007c65981b50b8ccd2b903132d6d69735482d0225d3ee93b1c05602e2c8530",
      "scriptpubkey_asm": "OP_PUSHNUM_1 OP_PUSHBYTES_32 26007c65981b50b8ccd2b903132d6d69735482d0225d3ee93b1c05602e2c8530",
      "scriptpubkey_type": "v1_p2tr",
      "scriptpubkey_address": "bc1pycq8cevcrdgt3nxjhyp3xttdd9e4fqksyfwna6fmrszkqt3vs5cq76nzj0",
      "value": 265000
    },
    {
      "scriptpubkey": "5120cf88ba6180c77171969641834199b7eb47a777a7b853b67d6ae8dfbeb2ac77b1",
      "scriptpubkey_asm": "OP_PUSHNUM_1 OP_PUSHBYTES_32 cf88ba6180c77171969641834199b7eb47a777a7b853b67d6ae8dfbeb2ac77b1",
      "scriptpubkey_type": "v1_p2tr",
      "scriptpubkey_address": "bc1pe7yt5cvqcachr95kgxp5rxdhadr6waa8hpfmvlt2ar0mav4vw7csu5ngg7",
      "value": 600
    },
    {
      "scriptpubkey": "5120cf88ba6180c77171969641834199b7eb47a777a7b853b67d6ae8dfbeb2ac77b1",
      "scriptpubkey_asm": "OP_PUSHNUM_1 OP_PUSHBYTES_32 cf88ba6180c77171969641834199b7eb47a777a7b853b67d6ae8dfbeb2ac77b1",
      "scriptpubkey_type": "v1_p2tr",
      "scriptpubkey_address": "bc1pe7yt5cvqcachr95kgxp5rxdhadr6waa8hpfmvlt2ar0mav4vw7csu5ngg7",
      "value": 600
    },
    {
      "scriptpubkey": "5120cf88ba6180c77171969641834199b7eb47a777a7b853b67d6ae8dfbeb2ac77b1",
      "scriptpubkey_asm": "OP_PUSHNUM_1 OP_PUSHBYTES_32 cf88ba6180c77171969641834199b7eb47a777a7b853b67d6ae8dfbeb2ac77b1",
      "scriptpubkey_type": "v1_p2tr",
      "scriptpubkey_address": "bc1pe7yt5cvqcachr95kgxp5rxdhadr6waa8hpfmvlt2ar0mav4vw7csu5ngg7",
      "value": 182993
    }
  ],
  "size": 810,
  "weight": 2229,
  "fee": 9450,
  "status": {
    "confirmed": true,
    "block_height": 834638,
    "block_hash": "000000000000000000025f742c626208ac87e0b7d15054abb4a19ca2d735a54e",
    "block_time": 1710405325
  },
  "hex": "0200000000010552a6e20e579e30e1717b1633f7ecc1fa3f095e1e6d4b67f2ca7f764f8022f5c60e00000000ffffffff52a6e20e579e30e1717b1633f7ecc1fa3f095e1e6d4b67f2ca7f764f8022f5c60f00000000ffffffffcc96b9e5475c922c0aa37106bc0494b07b18fa8702caa9bc1d4e9fce3f3e48150200000000ffffffff9b2f4d8738798b4548efef8474c3cc28293a4551daf7dec441f470485ca6f8060400000000ffffffff4d3f520f79db82172ad8ffdc47f81743f9617c3e1c6f033877021d2eeb4686180600000000ffffffff06b004000000000000225120cf88ba6180c77171969641834199b7eb47a777a7b853b67d6ae8dfbeb2ac77b12202000000000000225120cf88ba6180c77171969641834199b7eb47a777a7b853b67d6ae8dfbeb2ac77b1280b04000000000022512026007c65981b50b8ccd2b903132d6d69735482d0225d3ee93b1c05602e2c85305802000000000000225120cf88ba6180c77171969641834199b7eb47a777a7b853b67d6ae8dfbeb2ac77b15802000000000000225120cf88ba6180c77171969641834199b7eb47a777a7b853b67d6ae8dfbeb2ac77b1d1ca020000000000225120cf88ba6180c77171969641834199b7eb47a777a7b853b67d6ae8dfbeb2ac77b1014125b60e67ee0b693639f39ad7f05cdbe3647d0122bf681f68a5f8b1bb5dcc4a0fe756549b04f2a4f82dad264c76f1bcb8d622bb57bbaacbb6758770b21e51c11e010141eaacf605bc42955e953cf2be0862611e88ff7e262f6a91b319521f7962b4a18a354b6ef3e92846e5a4878c04cbd889c581e63a8f22a45431f039f8e00f430a43010141453eb8165b862ba86ad86cf15b3739405e7f27ba6b3635097a948d0c179d19013810c999a176dd851a6d8cb170d8c2f48c87b80c2f864acfdca127307d718839830141123e80f855f16f863921ae6b0a861a650b366de4060b8f5c6fc38da4f56f37ab26f13b8b9bd3e3be7155cdb8d556a55b62b36812a4257195e3e5d54834e4c7fa010141785488fceae526168b321b8339402669c2a954a37d22369380df4655e74ab3fc3f6bbfc60cefdcc17c6dfe9ea196dbf77f15cc959e74821470b43b0c6b3a09a70100000000"
}