{
  "txid": "34323ee50be733dbc8b6c941e309146e9eb80ef19f150ba691d79f43596f45df",
  "version": 2,
  "locktime": 0,
  "vin": [
    {
      "txid": "1ffef8d3834dd4af2db7f378940e96d850a50dc857b8456515da08ea59b42f76",
      "vout": 3,
      "prevout": {
        "scriptpubkey": "5120c0cd3fd6dac8f13f38f1722855a8346dc899bac0f98a3664f6011e292b26d735",
        "scriptpubkey_asm": "OP_PUSHNUM_1 OP_PUSHBYTES_32 c0cd3fd6dac8f13f38f1722855a8346dc899bac0f98a3664f6011e292b26d735",
        "scriptpubkey_type": "v1_p2tr",
        "scriptpubkey_address": "bc1pcrxnl4k6ercn7w83wg59t2p5dhyfnwkqlx9rve8kqy0zj2ex6u6s8v6tg9",
        "value": 2862
      },
      "scriptsig": "",
      "scriptsig_asm": "",
      "witness": [
        "abf4bd21aa3bee2e1b765aaa1d2f689b0995defe0c818a156e9ed23218e0a0c304c1fed286d26fc8c5cc81ddd8030185665dfb098483b0d0322859caa70ecbc8",
        "205706f803f9fc489bedb9715c2818243709082a891aacab236b0746209dbeaed3ac0063036f726401011e6170706c69636174696f6e2f6a736f6e3b636861727365743d7574662d38004cd37b2270223a22706f772d3230222c226f70223a226d696e74222c227469636b223a2250455045222c22616d74223a2231303030222c22736f6c7574696f6e223a22504550453a6263317067666d706d6439376b6c3534636379746c637636653433656a6365347934766a6435743239656e75376a68726d7775746630337374646e7975303a303030303030303030303030303030303030303139393431613561653132383937363539383134343239323533333030353762306461393666336465613163353a3232373137343431393936227d68",
        "c04cc878e83178ea601961baabfa2fc78f27a3c8cae2f1d8f4d8ea0175eee56210"
      ],
      "is_coinbase": false,
      "sequence": 4294967295
    }
  ],
  "vout": [
    {
      "scriptpubkey": "512042761db4beb7e95c608bfe19acd63996335255926d16a2e67cf4ae3dbb8b4be3",
      "scriptpubkey_asm": "OP_PUSHNUM_1 OP_PUSHBYTES_32 42761db4beb7e95c608bfe19acd63996335255926d16a2e67cf4ae3dbb8b4be3",
      "scriptpubkey_type": "v1_p2tr",
      "scriptpubkey_address": "bc1pgfmpmd97kl54ccytlcv6e43ejce4y4vjd5t29enu7jhrmwutf03stdnyu0",
      "value": 546
    }
  ],
  "size": 487,
  "weight": 769,
  "fee": 2316,
  "status": {
    "confirmed": true,
    "block_height": 834460,
    "block_hash": "00000000000000000000484a79b643b2524bbce82e5d8a442013fa5b8905ed98",
    "block_time": 1710307468
  },
  "hex": "02000000000101762fb459ea08da156545b857c80da550d8960e9478f3b72dafd44d83d3f8fe1f0300000000ffffffff01220200000000000022512042761db4beb7e95c608bfe19acd63996335255926d16a2e67cf4ae3dbb8b4be30340abf4bd21aa3bee2e1b765aaa1d2f689b0995defe0c818a156e9ed23218e0a0c304c1fed286d26fc8c5cc81ddd8030185665dfb098483b0d0322859caa70ecbc8fd2001205706f803f9fc489bedb9715c2818243709082a891aacab236b0746209dbeaed3ac0063036f726401011e6170706c69636174696f6e2f6a736f6e3b636861727365743d7574662d38004cd37b2270223a22706f772d3230222c226f70223a226d696e74222c227469636b223a2250455045222c22616d74223a2231303030222c22736f6c7574696f6e223a22504550453a6263317067666d706d6439376b6c3534636379746c637636653433656a6365347934766a6435743239656e75376a68726d7775746630337374646e7975303a303030303030303030303030303030303030303139393431613561653132383937363539383134343239323533333030353762306461393666336465613163353a3232373137343431393936227d6821c04cc878e83178ea601961baabfa2fc78f27a3c8cae2f1d8f4d8ea0175eee5621000000000"
}