{
  "txid": "343657b68aca27438d17d87e95374eaa6d2c485d1560c598bf8e53ad60410cfe",
  "version": 2,
  "locktime": 0,
  "vin": [
    {
      "txid": "8486ecb4df0880316dd6e82b3971b4df187aff23765bc3a47f8d78bb53aa273c",
      "vout": 105,
      "prevout": {
        "scriptpubkey": "512084aff880679363bc330e84991c6ca1b60e6ea811c26623b3de76de1a0313166c",
        "scriptpubkey_asm": "OP_PUSHNUM_1 OP_PUSHBYTES_32 84aff880679363bc330e84991c6ca1b60e6ea811c26623b3de76de1a0313166c",
        "scriptpubkey_type": "v1_p2tr",
        "scriptpubkey_address": "bc1psjhl3qr8jd3mcvcwsjv3cm9pkc8xa2q3cfnz8v77wm0p5qcnzekqz9mr32",
        "value": 2575
      },
      "scriptsig": "",
      "scriptsig_asm": "",
      "witness": [
        "23d1a8de0a456a02b3c32677d10349528694a5f1a2b84da1a8ad05934a29de641c8ea82cf57aee405c545361e880e42c924c650530a114997771215b447a152d",
        "20d8f0e53a9d182936ba0e6f26ccd8ee844ddfe42c54eae9668ada3c0b8f7d90ecac0063036f726401010a746578742f706c61696e00367b2270223a226272632d3230222c226f70223a226d696e74222c227469636b223a2261616161222c22616d74223a223130303030227d68",
        "c1d8f0e53a9d182936ba0e6f26ccd8ee844ddfe42c54eae9668ada3c0b8f7d90ec"
      ],
      "is_coinbase": false,
      "sequence": 4261412863
    }
  ],
  "vout": [
    {
      "scriptpubkey": "0014ddd7ef12ea6f78edcc1e8e7afa12c01ab59f3339",
      "scriptpubkey_asm": "OP_0 OP_PUSHBYTES_20 ddd7ef12ea6f78edcc1e8e7afa12c01ab59f3339",
      "scriptpubkey_type": "v0_p2wpkh",
      "scriptpubkey_address": "bc1qmht77yh2dauwmnq73ea05ykqr26e7veea8spz6",
      "value": 546
    }
  ],
  "size": 295,
  "weight": 541,
  "fee": 2029,
  "status": {
    "confirmed": true,
    "block_height": 834460,
    "block_hash": "00000000000000000000484a79b643b2524bbce82e5d8a442013fa5b8905ed98",
    "block_time": 1710307468
  },
  "hex": "020000000001013c27aa53bb788d7fa4c35b7623ff7a18dfb471392be8d66d318008dfb4ec86846900000000fffffffd012202000000000000160014ddd7ef12ea6f78edcc1e8e7afa12c01ab59f3339034023d1a8de0a456a02b3c32677d10349528694a5f1a2b84da1a8ad05934a29de641c8ea82cf57aee405c545361e880e42c924c650530a114997771215b447a152d6e20d8f0e53a9d182936ba0e6f26ccd8ee844ddfe42c54eae9668ada3c0b8f7d90ecac0063036f726401010a746578742f706c61696e00367b2270223a226272632d3230222c226f70223a226d696e74222c227469636b223a2261616161222c22616d74223a223130303030227d6821c1d8f0e53a9d182936ba0e6f26ccd8ee844ddfe42c54eae9668ada3c0b8f7d90ec00000000"
}