{
  "txid": "3451a4ede401fbd7e6a506362d7160802e28bd923a05efd1cb46c888e526e789",
  "version": 1,
  "locktime": 0,
  "vin": [
    {
      "txid": "12409ed45aa1720ca1aff4f3820d2b42ecd3d773f9c051a1f47765b148123cc0",
      "vout": 0,
      "prevout": {
        "scriptpubkey": "51206515e01317ad41e28a48066b9ab58e0b12df9fef5341741b827c9087f30369a2",
        "scriptpubkey_asm": "OP_PUSHNUM_1 OP_PUSHBYTES_32 6515e01317ad41e28a48066b9ab58e0b12df9fef5341741b827c9087f30369a2",
        "scriptpubkey_type": "v1_p2tr",
        "scriptpubkey_address": "bc1pv527qych44q79zjgqe4e4dvwpvfdl8l02dqhgxuz0jgg0ucrdx3qc7nj2p",
        "value": 2889
      },
      "scriptsig": "",
      "scriptsig_asm": "",
      "witness": [
        "8f6615e9f350bb00dd87cc48ea2ba16708c3a70f48441d57cd57b91f903598e6c030505028ef9057138653b2520925cd0b4c5b51a0ae9a4dfa983121ff907bfc",
        "20dfa7325ed77fab28d796d113dcead29a7490c58aaa244f71cf02d52f6b761081ac00630461746f6d03646d7437a16461726773a46474696d651a65ee50e6656e6f6e63650068626974776f726b6364313234306b6d696e745f7469636b657264766d707868",
        "c1dfa7325ed77fab28d796d113dcead29a7490c58aaa244f71cf02d52f6b761081"
      ],
      "is_coinbase": false,
      "sequence": 0
    }
  ],
  "vout": [
    {
      "scriptpubkey": "5120a1e3352d215c371d7181ba45cba88085be161f72f0fb432c6eb5c59fa438eb97",
      "scriptpubkey_asm": "OP_PUSHNUM_1 OP_PUSHBYTES_32 a1e3352d215c371d7181ba45cba88085be161f72f0fb432c6eb5c59fa438eb97",
      "scriptpubkey_type": "v1_p2tr",
      "scriptpubkey_address": "bc1p583n2tfptsm36uvphfzuh2yqsklpv8mj7ra5xtrwkhzelfpcawtswnzule",
      "value": 1000
    }
  ],
  "size": 299,
  "weight": 581,
  "fee": 1889,
  "status": {
    "confirmed": true,
    "block_height": 834464,
    "block_hash": "0000000000000000000177a0869a911a2b65c9bdcd5a8bcb02b68f305bee848e",
    "block_time": 1710308296
  },
  "hex": "01000000000101c03c1248b16577f4a151c0f973d7d3ec422b0d82f3f4afa10c72a15ad49e401200000000000000000001e803000000000000225120a1e3352d215c371d7181ba45cba88085be161f72f0fb432c6eb5c59fa438eb9703408f6615e9f350bb00dd87cc48ea2ba16708c3a70f48441d57cd57b91f903598e6c030505028ef9057138653b2520925cd0b4c5b51a0ae9a4dfa983121ff907bfc6620dfa7325ed77fab28d796d113dcead29a7490c58aaa244f71cf02d52f6b761081ac00630461746f6d03646d7437a16461726773a46474696d651a65ee50e6656e6f6e63650068626974776f726b6364313234306b6d696e745f7469636b657264766d70786821c1dfa7325ed77fab28d796d113dcead29a7490c58aaa244f71cf02d52f6b76108100000000"
}