{
  "txid": "345e80954f70ea9964ea410a4e9ed2afbdc4494554c8c8feda46f1aebcf4c206",
  "version": 2,
  "locktime": 834637,
  "vin": [
    {
      "txid": "bd404c762565644089edacf23b30b5dec60a54d485d5a2cd54dfa727a74bf3b0",
      "vout": 14,
      "prevout": {
        "scriptpubkey": "76a9147e1f4d27beca7e9f5ad3a717d8214a9916b517a488ac",
        "scriptpubkey_asm": "OP_DUP OP_HASH160 OP_PUSHBYTES_20 7e1f4d27beca7e9f5ad3a717d8214a9916b517a4 OP_EQUALVERIFY OP_CHECKSIG",
        "scriptpubkey_type": "p2pkh",
        "scriptpubkey_address": "1CVse2hACWY3r1KBeBduNsdoywsdKZPzfi",
        "value": 4170000
      },
      "scriptsig": "47304402202944428e32e2eaee9189f025dd67bdfd3aa169b452c5cb5f6ff4880517ba9dc40220477957ed3afbd923b0734ddf3ce415efd97fe530d36a270713b1471b8467bc71012103d87f7caad494a8a3bbf98f0e088a48b8205a45529c5adb4989f9378b1711491e",
      "scriptsig_asm": "OP_PUSHBYTES_71 304402202944428e32e2eaee9189f025dd67bdfd3aa169b452c5cb5f6ff4880517ba9dc40220477957ed3afbd923b0734ddf3ce415efd97fe530d36a270713b1471b8467bc7101 OP_PUSHBYTES_33 03d87f7caad494a8a3bbf98f0e088a48b8205a45529c5adb4989f9378b1711491e",
      "is_coinbase": false,
      "sequence": 4294967293
    },
    {
      "txid": "dedf4ff4118ee2114f5ca6c56911aff10c509596f9c9fca03f1ee9818e43e4c9",
      "vout": 12,
      "prevout": {
        "scriptpubkey": "76a914b93f0f59406ba01dcd9a1000b36392920effc15688ac",
        "scriptpubkey_asm": "OP_DUP OP_HASH160 OP_PUSHBYTES_20 b93f0f59406ba01dcd9a1000b36392920effc156 OP_EQUALVERIFY OP_CHECKSIG",
        "scriptpubkey_type": "p2pkh",
        "scriptpubkey_address": "1HtVYyKyM19svMeXcBmFTo2Y6WVbbKtwBw",
        "value": 266000
      },
      "scriptsig": "473044022022bd2bcc6e54dce3ed4e512565b62b0e7f49bbd31c275230a611efb6cb5f54ed0220775966d6977f958d0460d79967d0f60cddb1605ad6a6e6bafb4de10b806c4b1d012102c0ce3c7487740260251b880405fec39557364449c71c18f7cb070a4bd957e984",
      "scriptsig_asm": "OP_PUSHBYTES_71 3044022022bd2bcc6e54dce3ed4e512565b62b0e7f49bbd31c275230a611efb6cb5f54ed0220775966d6977f958d0460d79967d0f60cddb1605ad6a6e6bafb4de10b806c4b1d01 OP_PUSHBYTES_33 02c0ce3c7487740260251b880405fec39557364449c71c18f7cb070a4bd957e984",
      "is_coinbase": false,
      "sequence": 4294967293
    },
    {
      "txid": "5067d9aafd198597be5dc58a938fa2627fdad1b4d4d0dd1b5f513a5431eb3956",
      "vout": 2,
      "prevout": {
        "scriptpubkey": "00141703b78b3a814a2be548254028e992d1fa41b21c",
        "scriptpubkey_asm": "OP_0 OP_PUSHBYTES_20 1703b78b3a814a2be548254028e992d1fa41b21c",
        "scriptpubkey_type": "v0_p2wpkh",
        "scriptpubkey_address": "bc1qzupm0ze6s99zhe2gy4qz36vj68ayrvsugce8la",
        "value": 49199
      },
      "scriptsig": "",
      "scriptsig_asm": "",
      "witness": [
        "3044022041502aabab9e1255afdc97afb876ea753db02eb2c016d2648a8e8a327af3b49e02205c62a6eb4442f68260a8fd3b651123503b0926d15ea257b381726553bd062e9d01",
        "034e675bd25ac442b5550198015bd522e2e5bb98428460bdfd5da7b83abeed4dd5"
      ],
      "is_coinbase": false,
      "sequence": 4294967293
    },
    {
      "txid": "bfab1bba934885b42d4322bd551086bdd366a1a2eeb7dd6d90ad837f5f95b5d3",
      "vout": 4,
      "prevout": {
        "scriptpubkey": "0014a21637f2ca9362d2a9b26929ab507dad9785cdf8",
        "scriptpubkey_asm": "OP_0 OP_PUSHBYTES_20 a21637f2ca9362d2a9b26929ab507dad9785cdf8",
        "scriptpubkey_type": "v0_p2wpkh",
        "scriptpubkey_address": "bc1q5gtr0uk2jd3d92djdy56k5ra4ktctn0c9wxcgx",
        "value": 693040
      },
      "scriptsig": "",
      "scriptsig_asm": "",
      "witness": [
        "3044022022ffb312cda8c053d3bcbb9f9617ebd7a14448c820677a390b1dcfb9498c141d022001f1a6127a4ddae6980dd3a753b57378d4ec5a618d4065c20cf7c0f66a7de9dd01",
        "034484f848991e873b1345f6590a4d19b43467d0ebf1f942c6462f71911e2657de"
      ],
      "is_coinbase": false,
      "sequence": 4294967293
    },
    {
      "txid": "0e72c3fa0cd39e57c26c5208b6347ddbd361f1f45300396c9e7e5bf33a77d832",
      "vout": 29,
      "prevout": {
        "scriptpubkey": "001456ad4f83a499cdb2768c06c8df55b2556b43a3df",
        "scriptpubkey_asm": "OP_0 OP_PUSHBYTES_20 56ad4f83a499cdb2768c06c8df55b2556b43a3df",
        "scriptpubkey_type": "v0_p2wpkh",
        "scriptpubkey_address": "bc1q26k5lqayn8xmya5vqmyd74dj24458g7ls9mjet",
        "value": 3260000
      },
      "scriptsig": "",
      "scriptsig_asm": "",
      "witness": [
        "304402203f7c312cb26752910334d1c5684e7e1729437d82cdc38202bb7d5f1ec3d3bee4022020d6edb83480b5644146c6df496fd618deb500d0781a56c22988d18e084bc8c901",
        "03bde5584d17aa6ec99cb2f08b21f0ca0c33eaf5df4d5f1c224d90e8925a3956bd"
      ],
      "is_coinbase": false,
      "sequence": 4294967293
    },
    {
      "txid": "da4ad6c9c64ef82dfa6366fca4488b95c8c82ae6afb1235b6d00b57b45617860",
      "vout": 13,
      "prevout": {
        "scriptpubkey": "0014d8a3d16890a5a11e06015945821608308818cfb6",
        "scriptpubkey_asm": "OP_0 OP_PUSHBYTES_20 d8a3d16890a5a11e06015945821608308818cfb6",
        "scriptpubkey_type": "v0_p2wpkh",
        "scriptpubkey_address": "bc1qmz3az6ys5ks3upspt9zcy9sgxzyp3naktl9ptq",
        "value": 3110931
      },
      "scriptsig": "",
      "scriptsig_asm": "",
      "witness": [
        "304402202575b0955a187412f54b215f9b66b83d37dec29e911b27aae3f72e096229647302202f2977eae1d733e1ecedec63feb4d80fc5d397aa964f0d334ac67c826a5f23d701",
        "0356b2535e2eb0dab336d7a423529875d0e77150122501f96058b9510aec28ad89"
      ],
      "is_coinbase": false,
      "sequence": 4294967293
    },
    {
      "txid": "da4ad6c9c64ef82dfa6366fca4488b95c8c82ae6afb1235b6d00b57b45617860",
      "vout": 14,
      "prevout": {
        "scriptpubkey": "00141703b78b3a814a2be548254028e992d1fa41b21c",
        "scriptpubkey_asm": "OP_0 OP_PUSHBYTES_20 1703b78b3a814a2be548254028e992d1fa41b21c",
        "scriptpubkey_type": "v0_p2wpkh",
        "scriptpubkey_address": "bc1qzupm0ze6s99zhe2gy4qz36vj68ayrvsugce8la",
        "value": 318135
      },
      "scriptsig": "",
      "scriptsig_asm": "",
      "witness": [
        "3044022047ad1ea516d6580b73ec306398939fb718cf01564fb839e6b819571a7ad6732102205788d5c371e88d8ecc6bf8e24d4f2cda36008b6795a5cb9c09512693d58e3f2001",
        "034e675bd25ac442b5550198015bd522e2e5bb98428460bdfd5da7b83abeed4dd5"
      ],
      "is_coinbase": false,
      "sequence": 4294967293
    },
    {
      "txid": "84788497792fd4d0db53c579c815c464b4b0029d5fcec5788e01508b18a400e6",
      "vout": 0,
      "prevout": {
        "scriptpubkey": "00144fa6091a475e23388f4721b94e48c6dd823bccd4",
        "scriptpubkey_asm": "OP_0 OP_PUSHBYTES_20 4fa6091a475e23388f4721b94e48c6dd823bccd4",
        "scriptpubkey_type": "v0_p2wpkh",
        "scriptpubkey_address": "bc1qf7nqjxj8tc3n3r68yxu5ujxxmkprhnx5f6xwkh",
        "value": 28232
      },
      "scriptsig": "",
      "scriptsig_asm": "",
      "witness": [
        "3044022038638255885ba29302308648837a388f4883d8412336ced436a2050f857013cc022061f3c0a61d1067d76859bc5eff15df08cd3a523edd5fc8cfe9a21c07dd61478901",
        "034d320d44f5921058a3cf474f94f0a65f1023009f5d46b32a3840a6020f0938c5"
      ],
      "is_coinbase": false,
      "sequence": 4294967293
    },
    {
      "txid": "19f7992b4eb88c456ec3d495131a2b2678f142c71cdb8cc26bd9377343d4b08f",
      "vout": 4,
      "prevout": {
        "scriptpubkey": "76a914b93f0f59406ba01dcd9a1000b36392920effc15688ac",
        "scriptpubkey_asm": "OP_DUP OP_HASH160 OP_PUSHBYTES_20 b93f0f59406ba01dcd9a1000b36392920effc156 OP_EQUALVERIFY OP_CHECKSIG",
        "scriptpubkey_type": "p2pkh",
        "scriptpubkey_address": "1HtVYyKyM19svMeXcBmFTo2Y6WVbbKtwBw",
        "value": 282073
      },
      "scriptsig": "4730440220140c77ab5571111a00fa8d4f746abd5bd495bf44b2c648f350122e5f3d97506802204d6193167b9011fee463f361aea0022b810a48c9c26e3605d75a689c4ee1dd31012102c0ce3c7487740260251b880405fec39557364449c71c18f7cb070a4bd957e984",
      "scriptsig_asm": "OP_PUSHBYTES_71 30440220140c77ab5571111a00fa8d4f746abd5bd495bf44b2c648f350122e5f3d97506802204d6193167b9011fee463f361aea0022b810a48c9c26e3605d75a689c4ee1dd3101 OP_PUSHBYTES_33 02c0ce3c7487740260251b880405fec39557364449c71c18f7cb070a4bd957e984",
      "is_coinbase": false,
      "sequence": 4294967293
    },
    {
      "txid": "2793242a1e660aff228e6587125a3feeb2556a88e2cf56854a3073f950201087",
      "vout": 5,
      "prevout": {
        "scriptpubkey": "00144fa6091a475e23388f4721b94e48c6dd823bccd4",
        "scriptpubkey_asm": "OP_0 OP_PUSHBYTES_20 4fa6091a475e23388f4721b94e48c6dd823bccd4",
        "scriptpubkey_type": "v0_p2wpkh",
        "scriptpubkey_address": "bc1qf7nqjxj8tc3n3r68yxu5ujxxmkprhnx5f6xwkh",
        "value": 446478
      },
      "scriptsig": "",
      "scriptsig_asm": "",
      "witness": [
        "30440220271a6a2e125329a1c55488cebeed6527563760fe90e1de0a92f8df4be70553a10220418aaa43972ca82070585b1218442f26048b1c8ebcee15e3d0ad127e2f20931501",
        "034d320d44f5921058a3cf474f94f0a65f1023009f5d46b32a3840a6020f0938c5"
      ],
      "is_coinbase": false,
      "sequence": 4294967293
    },
    {
      "txid": "18a330addd5512da1b5dc9dc4a9697c6ccb4096d4ca18529930d804796706632",
      "vout": 0,
      "prevout": {
        "scriptpubkey": "00144fa6091a475e23388f4721b94e48c6dd823bccd4",
        "scriptpubkey_asm": "OP_0 OP_PUSHBYTES_20 4fa6091a475e23388f4721b94e48c6dd823bccd4",
        "scriptpubkey_type": "v0_p2wpkh",
        "scriptpubkey_address": "bc1qf7nqjxj8tc3n3r68yxu5ujxxmkprhnx5f6xwkh",
        "value": 4134
      },
      "scriptsig": "",
      "scriptsig_asm": "",
      "witness": [
        "304402204dc4705130eba48d073bf74520bdfcdaf980d7fc574c0975ea79b8d99b15f35a02206d9b52988c6c505b0d0c45b905ce93c1eeff28cd5251063e8f5219247cb0f04401",
        "034d320d44f5921058a3cf474f94f0a65f1023009f5d46b32a3840a6020f0938c5"
      ],
      "is_coinbase": false,
      "sequence": 4294967293
    },
    {
      "txid": "423c30ca7809d0d95ea993ccd2352a5e45ddb639299777617cc76001d4838132",
      "vout": 1,
      "prevout": {
        "scriptpubkey": "76a914edcd6125c728f7adae730ec458317ca23d6b4ac788ac",
        "scriptpubkey_asm": "OP_DUP OP_HASH160 OP_PUSHBYTES_20 edcd6125c728f7adae730ec458317ca23d6b4ac7 OP_EQUALVERIFY OP_CHECKSIG",
        "scriptpubkey_type": "p2pkh",
        "scriptpubkey_address": "1NgPBUsC6bpbAFgouyBegL541mm6586th9",
        "value": 3170000
      },
      "scriptsig": "47304402201e75492b51506f48befd98d49c776435dfc8c2c86ef4fb408293481132320b2b022058cf6880a28793bbe34e1434853d02cccdffc29f4c3348e0dbf8c8cbc6246f7a012103b3e6c16d30b5016843a86bda4df0dd516d093e2097f321dc11123fb9a9eb90dc",
      "scriptsig_asm": "OP_PUSHBYTES_71 304402201e75492b51506f48befd98d49c776435dfc8c2c86ef4fb408293481132320b2b022058cf6880a28793bbe34e1434853d02cccdffc29f4c3348e0dbf8c8cbc6246f7a01 OP_PUSHBYTES_33 03b3e6c16d30b5016843a86bda4df0dd516d093e2097f321dc11123fb9a9eb90dc",
      "is_coinbase": false,
      "sequence": 4294967293
    },
    {
      "txid": "6e0a9fe4d0463d40fb638814ab94e31a8dc9af69bc7917c5da8e0c2903b9f20e",
      "vout": 0,
      "prevout": {
        "scriptpubkey": "00147028446a9b87479a64040ff6c4d7b29b007a1184",
        "scriptpubkey_asm": "OP_0 OP_PUSHBYTES_20 7028446a9b87479a64040ff6c4d7b29b007a1184",
        "scriptpubkey_type": "v0_p2wpkh",
        "scriptpubkey_address": "bc1qwq5yg65msare5eqyplmvf4ajnvq85yvyn3w83m",
        "value": 11666580
      },
      "scriptsig": "",
      "scriptsig_asm": "",
      "witness": [
        "304402203cebbdf4522a70c2e145a274817194bc9941e965ac723a32b540b5620ae16a970220482efb19d45373bf236fb29ad8ac64cc5c17364e1e0ae6abea29ca115b60a80201",
        "034d5370bd5c70b2cc121d6da752e94b82d7208d1f73064e0f33a85f0753858cef"
      ],
      "is_coinbase": false,
      "sequence": 4294967293
    },
    {
      "txid": "f49f2bfd5b78d0a88ec9c02548aee509b211accf0a7ba3a3976a3b61bd7f068c",
      "vout": 6,
      "prevout": {
        "scriptpubkey": "0014af0765a8a6d156f41fca6ae2c50801a70408ea58",
        "scriptpubkey_asm": "OP_0 OP_PUSHBYTES_20 af0765a8a6d156f41fca6ae2c50801a70408ea58",
        "scriptpubkey_type": "v0_p2wpkh",
        "scriptpubkey_address": "bc1q4urkt29x69t0g872dt3v2zqp5uzq36jc8h2lvu",
        "value": 2484493
      },
      "scriptsig": "",
      "scriptsig_asm": "",
      "witness": [
        "30440220387e2bd12211613915591083b01359b8b9a4ec4df7235d439cf28fcbeabdea97022010f5288f8465a6793d992b148e7481d056c56c80851cde1bcecb5ad3e8765daf01",
        "020a5917c28583247eb591b930fc2e6d40c9071cd792d92256ff4a53e4a10550ff"
      ],
      "is_coinbase": false,
      "sequence": 4294967293
    },
    {
      "txid": "6bef29e4d7a393304d3a318fe6f432fdb84c6c34a0ca63c85d917ccb8f973029",
      "vout": 15,
      "prevout": {
        "scriptpubkey": "0014cb067786ddcdde46c2c661f0627768ceacc308b7",
        "scriptpubkey_asm": "OP_0 OP_PUSHBYTES_20 cb067786ddcdde46c2c661f0627768ceacc308b7",
        "scriptpubkey_type": "v0_p2wpkh",
        "scriptpubkey_address": "bc1qevr80pkaeh0ydskxv8cxyamge6kvxz9h83957n",
        "value": 1490000
      },
      "scriptsig": "",
      "scriptsig_asm": "",
      "witness": [
        "30440220433a3341623789c2ca92acb064797a4d0ffa735d97efa6eb35507273a20593d2022079dcaf134d4085e0b2f9517688ee0c743ff9d995325bee5d34c22ab17ae6dfc601",
        "02f7c7ce50015ae7e7069a191f85d27684dc12a218390fc078e79534d67050d855"
      ],
      "is_coinbase": false,
      "sequence": 4294967293
    }
  ],
  "vout": [
    {
      "scriptpubkey": "0014e8bf0e478cc836763e43d76957d059d4b4224d67",
      "scriptpubkey_asm": "OP_0 OP_PUSHBYTES_20 e8bf0e478cc836763e43d76957d059d4b4224d67",
      "scriptpubkey_type": "v0_p2wpkh",
      "scriptpubkey_address": "bc1qazlsu3uveqm8v0jr6a5405ze6j6zynt8qnw5zy",
      "value": 31400509
    }
  ],
  "size": 2263,
  "weight": 5503,
  "fee": 38786,
  "status": {
    "confirmed": true,
    "block_height": 834638,
    "block_hash": "000000000000000000025f742c626208ac87e0b7d15054abb4a19ca2d735a54e",
    "block_time": 1710405325
  },
  "hex": "0200000000010fb0f34ba727a7df54cda2d585d4540ac6deb5303bf2aced8940646525764c40bd0e0000006a47304402202944428e32e2eaee9189f025dd67bdfd3aa169b452c5cb5f6ff4880517ba9dc40220477957ed3afbd923b0734ddf3ce415efd97fe530d36a270713b1471b8467bc71012103d87f7caad494a8a3bbf98f0e088a48b8205a45529c5adb4989f9378b1711491efdffffffc9e4438e81e91e3fa0fcc9f99695500cf1af1169c5a65c4f11e28e11f44fdfde0c0000006a473044022022bd2bcc6e54dce3ed4e512565b62b0e7f49bbd31c275230a611efb6cb5f54ed0220775966d6977f958d0460d79967d0f60cddb1605ad6a6e6bafb4de10b806c4b1d012102c0ce3c7487740260251b880405fec39557364449c71c18f7cb070a4bd957e984fdffffff5639eb31543a515f1bddd0d4b4d1da7f62a28f938ac55dbe978519fdaad967500200000000fdffffffd3b5955f7f83ad906dddb7eea2a166d3bd861055bd22432db4854893ba1babbf0400000000fdffffff32d8773af35b7e9e6c390053f4f161d3db7d34b608526cc2579ed30cfac3720e1d00000000fdffffff607861457bb5006d5b23b1afe62ac8c8958b48a4fc6663fa2df84ec6c9d64ada0d00000000fdffffff607861457bb5006d5b23b1afe62ac8c8958b48a4fc6663fa2df84ec6c9d64ada0e00000000fdffffffe600a4188b50018e78c5ce5f9d02b0b464c415c879c553dbd0d42f79978478840000000000fdffffff8fb0d4437337d96bc28cdb1cc742f178262b1a1395d4c36e458cb84e2b99f719040000006a4730440220140c77ab5571111a00fa8d4f746abd5bd495bf44b2c648f350122e5f3d97506802204d6193167b9011fee463f361aea0022b810a48c9c26e3605d75a689c4ee1dd31012102c0ce3c7487740260251b880405fec39557364449c71c18f7cb070a4bd957e984fdffffff87102050f973304a8556cfe2886a55b2ee3f5a1287658e22ff0a661e2a2493270500000000fdffffff3266709647800d932985a14c6d09b4ccc697964adcc95d1bda1255ddad30a3180000000000fdffffff328183d40160c77c6177972939b6dd455e2a35d2cc93a95ed9d00978ca303c42010000006a47304402201e75492b51506f48befd98d49c776435dfc8c2c86ef4fb408293481132320b2b022058cf6880a28793bbe34e1434853d02cccdffc29f4c3348e0dbf8c8cbc6246f7a012103b3e6c16d30b5016843a86bda4df0dd516d093e2097f321dc11123fb9a9eb90dcfdffffff0ef2b903290c8edac51779bc69afc98d1ae394ab148863fb403d46d0e49f0a6e0000000000fdffffff8c067fbd613b6a97a3a37b0acfac11b209e5ae4825c0c98ea8d0785bfd2b9ff40600000000fdffffff2930978fcb7c915dc863caa0346c4cb8fd32f4e68f313a4d3093a3d7e429ef6b0f00000000fdffffff013d22df0100000000160014e8bf0e478cc836763e43d76957d059d4b4224d67000002473044022041502aabab9e1255afdc97afb876ea753db02eb2c016d2648a8e8a327af3b49e02205c62a6eb4442f68260a8fd3b651123503b0926d15ea257b381726553bd062e9d0121034e675bd25ac442b5550198015bd522e2e5bb98428460bdfd5da7b83abeed4dd502473044022022ffb312cda8c053d3bcbb9f9617ebd7a14448c820677a390b1dcfb9498c141d022001f1a6127a4ddae6980dd3a753b57378d4ec5a618d4065c20cf7c0f66a7de9dd0121034484f848991e873b1345f6590a4d19b43467d0ebf1f942c6462f71911e2657de0247304402203f7c312cb26752910334d1c5684e7e1729437d82cdc38202bb7d5f1ec3d3bee4022020d6edb83480b5644146c6df496fd618deb500d0781a56c22988d18e084bc8c9012103bde5584d17aa6ec99cb2f08b21f0ca0c33eaf5df4d5f1c224d90e8925a3956bd0247304402202575b0955a187412f54b215f9b66b83d37dec29e911b27aae3f72e096229647302202f2977eae1d733e1ecedec63feb4d80fc5d397aa964f0d334ac67c826a5f23d701210356b2535e2eb0dab336d7a423529875d0e77150122501f96058b9510aec28ad8902473044022047ad1ea516d6580b73ec306398939fb718cf01564fb839e6b819571a7ad6732102205788d5c371e88d8ecc6bf8e24d4f2cda36008b6795a5cb9c09512693d58e3f200121034e675bd25ac442b5550198015bd522e2e5bb98428460bdfd5da7b83abeed4dd502473044022038638255885ba29302308648837a388f4883d8412336ced436a2050f857013cc022061f3c0a61d1067d76859bc5eff15df08cd3a523edd5fc8cfe9a21c07dd6147890121034d320d44f5921058a3cf474f94f0a65f1023009f5d46b32a3840a6020f0938c500024730440220271a6a2e125329a1c55488cebeed6527563760fe90e1de0a92f8df4be70553a10220418aaa43972ca82070585b1218442f26048b1c8ebcee15e3d0ad127e2f2093150121034d320d44f5921058a3cf474f94f0a65f1023009f5d46b32a3840a6020f0938c50247304402204dc4705130eba48d073bf74520bdfcdaf980d7fc574c0975ea79b8d99b15f35a02206d9b52988c6c505b0d0c45b905ce93c1eeff28cd5251063e8f5219247cb0f0440121034d320d44f5921058a3cf474f94f0a65f1023009f5d46b32a3840a6020f0938c5000247304402203cebbdf4522a70c2e145a274817194bc9941e965ac723a32b540b5620ae16a970220482efb19d45373bf236fb29ad8ac64cc5c17364e1e0ae6abea29ca115b60a8020121034d5370bd5c70b2cc121d6da752e94b82d7208d1f73064e0f33a85f0753858cef024730440220387e2bd12211613915591083b01359b8b9a4ec4df7235d439cf28fcbeabdea97022010f5288f8465a6793d992b148e7481d056c56c80851cde1bcecb5ad3e8765daf0121020a5917c28583247eb591b930fc2e6d40c9071cd792d92256ff4a53e4a10550ff024730440220433a3341623789c2ca92acb064797a4d0ffa735d97efa6eb35507273a20593d2022079dcaf134d4085e0b2f9517688ee0c743ff9d995325bee5d34c22ab17ae6dfc6012102f7c7ce50015ae7e7069a191f85d27684dc12a218390fc078e79534d67050d8554dbc0c00"
}