{
  "txid": "34622cdbddc862beeb95ce66a5fb8f359ea8317e013dd1ed8c65d17440b7d872",
  "version": 2,
  "locktime": 0,
  "vin": [
    {
      "txid": "b13bb5512a4904c28a6b7957b88edf574e8cb23551fc1dcfe22d6b239df42cf4",
      "vout": 99,
      "prevout": {
        "scriptpubkey": "51204ae24dfa3802f2ba9d7c26b5977b1579f589a2fe99cab89db6d332a15bc77255",
        "scriptpubkey_asm": "OP_PUSHNUM_1 OP_PUSHBYTES_32 4ae24dfa3802f2ba9d7c26b5977b1579f589a2fe99cab89db6d332a15bc77255",
        "scriptpubkey_type": "v1_p2tr",
        "scriptpubkey_address": "bc1pft3ym73cqtet48tuy66ew7c4086cngh7n89t38dk6ve2zk78wf2sqs487s",
        "value": 2575
      },
      "scriptsig": "",
      "scriptsig_asm": "",
      "witness": [
        "b8a5d38ac4a2ef5a3419d5fe398dc6252a251e6ef7340c39f7a61cf84510c646a4d469040d01f662b9f756eddbb1124c11be381ee640facaa40eda3312ad3ce6",
        "209fb42c2199728b626337085c06ec38dbf11fd43cc8760476cf81f10c028604aaac0063036f726401010a746578742f706c61696e00367b2270223a226272632d3230222c226f70223a226d696e74222c227469636b223a2261616161222c22616d74223a223130303030227d68",
        "c09fb42c2199728b626337085c06ec38dbf11fd43cc8760476cf81f10c028604aa"
      ],
      "is_coinbase": false,
      "sequence": 4261412863
    }
  ],
  "vout": [
    {
      "scriptpubkey": "0014ce0b5aa0dac72397a8aa5a85d90a2cfb46f0f630",
      "scriptpubkey_asm": "OP_0 OP_PUSHBYTES_20 ce0b5aa0dac72397a8aa5a85d90a2cfb46f0f630",
      "scriptpubkey_type": "v0_p2wpkh",
      "scriptpubkey_address": "bc1qec944gx6cu3e0292t2zajz3vldr0pa3sh356d9",
      "value": 546
    }
  ],
  "size": 295,
  "weight": 541,
  "fee": 2029,
  "status": {
    "confirmed": true,
    "block_height": 834464,
    "block_hash": "0000000000000000000177a0869a911a2b65c9bdcd5a8bcb02b68f305bee848e",
    "block_time": 1710308296
  },
  "hex": "02000000000101f42cf49d236b2de2cf1dfc5135b28c4e57df8eb857796b8ac204492a51b53bb16300000000fffffffd012202000000000000160014ce0b5aa0dac72397a8aa5a85d90a2cfb46f0f6300340b8a5d38ac4a2ef5a3419d5fe398dc6252a251e6ef7340c39f7a61cf84510c646a4d469040d01f662b9f756eddbb1124c11be381ee640facaa40eda3312ad3ce66e209fb42c2199728b626337085c06ec38dbf11fd43cc8760476cf81f10c028604aaac0063036f726401010a746578742f706c61696e00367b2270223a226272632d3230222c226f70223a226d696e74222c227469636b223a2261616161222c22616d74223a223130303030227d6821c09fb42c2199728b626337085c06ec38dbf11fd43cc8760476cf81f10c028604aa00000000"
}