{
  "txid": "3470db6c49d8bd32aa97918a887ead39ff0c3c73614c709563685740f631d8cc",
  "version": 2,
  "locktime": 0,
  "vin": [
    {
      "txid": "acc3ba00869acb582a3f2904ce3a11dd3779350ce234063fc7d0959246213364",
      "vout": 72,
      "prevout": {
        "scriptpubkey": "51203854baa9e61aefbb9c71439223f0104678af44c9cb1325666846d8016382aab8",
        "scriptpubkey_asm": "OP_PUSHNUM_1 OP_PUSHBYTES_32 3854baa9e61aefbb9c71439223f0104678af44c9cb1325666846d8016382aab8",
        "scriptpubkey_type": "v1_p2tr",
        "scriptpubkey_address": "bc1p8p2t420xrthmh8r3gwfz8uqsgeu273xfevfj2enggmvqzcuz42uqg5n4zf",
        "value": 1806
      },
      "scriptsig": "",
      "scriptsig_asm": "",
      "witness": [
        "0e9158d6b19edf7ff0c2b054efaeebb08912372c6594758008648d52e62cb533915d4255b9d9c193c04e5f84b3cc9015ff49956929a4fe838422cadafadced90",
        "200e273d99fa96bb02663019706f94b507a90f916df8013634920535f7415586edac0063036f726401010a746578742f706c61696e00357b2270223a226272632d3230222c226f70223a226d696e74222c227469636b223a22646f6765222c22616d74223a2234323030227d68",
        "c00e273d99fa96bb02663019706f94b507a90f916df8013634920535f7415586ed"
      ],
      "is_coinbase": false,
      "sequence": 4261412863
    }
  ],
  "vout": [
    {
      "scriptpubkey": "00147a665de7a370f4c9b372ab1fae587500a5bcbdb4",
      "scriptpubkey_asm": "OP_0 OP_PUSHBYTES_20 7a665de7a370f4c9b372ab1fae587500a5bcbdb4",
      "scriptpubkey_type": "v0_p2wpkh",
      "scriptpubkey_address": "bc1q0fn9mearwr6vnvmj4v06ukr4qzjme0d565dzcx",
      "value": 294
    }
  ],
  "size": 294,
  "weight": 540,
  "fee": 1512,
  "status": {
    "confirmed": true,
    "block_height": 834460,
    "block_hash": "00000000000000000000484a79b643b2524bbce82e5d8a442013fa5b8905ed98",
    "block_time": 1710307468
  },
  "hex": "02000000000101643321469295d0c73f0634e20c357937dd113ace04293f2a58cb9a8600bac3ac4800000000fffffffd0126010000000000001600147a665de7a370f4c9b372ab1fae587500a5bcbdb403400e9158d6b19edf7ff0c2b054efaeebb08912372c6594758008648d52e62cb533915d4255b9d9c193c04e5f84b3cc9015ff49956929a4fe838422cadafadced906d200e273d99fa96bb02663019706f94b507a90f916df8013634920535f7415586edac0063036f726401010a746578742f706c61696e00357b2270223a226272632d3230222c226f70223a226d696e74222c227469636b223a22646f6765222c22616d74223a2234323030227d6821c00e273d99fa96bb02663019706f94b507a90f916df8013634920535f7415586ed00000000"
}