{
  "txid": "347b14b8913c3aabb9858d076e0ed6ba7b90aa30f1fd1466864a54b258ed4a9d",
  "version": 2,
  "locktime": 0,
  "vin": [
    {
      "txid": "e054c137725b7a5d163dade8f5cd68c0927a2e8b00d920927dab9a7ba934ce5f",
      "vout": 21,
      "prevout": {
        "scriptpubkey": "51203a4d5cf80852eba902b6a196681dd1ec3d55fa7d7a3e278305a323d84345d8fc",
        "scriptpubkey_asm": "OP_PUSHNUM_1 OP_PUSHBYTES_32 3a4d5cf80852eba902b6a196681dd1ec3d55fa7d7a3e278305a323d84345d8fc",
        "scriptpubkey_type": "v1_p2tr",
        "scriptpubkey_address": "bc1p8fx4e7qg2t46jq4k5xtxs8w3as74t7na0glz0qc95v3ass69mr7qy6kuyl",
        "value": 2658
      },
      "scriptsig": "",
      "scriptsig_asm": "",
      "witness": [
        "af5cd5ccf14801a8a26a98cc5029bc8aed8f5283e07087e99a83946c38b8f2586787328a593e61fcd6b018e6342320dfef35970281419e5eb71efedb5ba42c64",
        "20b457bea070f44738ed317f3afa2c08788e449435a98b98b314c390cc3a0b27c9ac0063036f726401011e6170706c69636174696f6e2f6a736f6e3b636861727365743d7574662d38004cbf7b2270223a22706f772d3230222c226f70223a226d696e74222c227469636b223a2250455045222c22616d74223a2231303030222c22736f6c7574696f6e223a22504550453a6263317139736a36303977756e7468646a636d7a746a796379766475616e653071716b78726e773932653a303030303030303030303030303030303030303139393431613561653132383937363539383134343239323533333030353762306461393666336465613163353a3235373839323131383834227d68",
        "c0a0e509a599b6542378e5ac7959d344a1bebc95ec9899fd4ccf1904beefe3f047"
      ],
      "is_coinbase": false,
      "sequence": 4294967295
    }
  ],
  "vout": [
    {
      "scriptpubkey": "00142c25a795dc9aeed963625c898231bcecf2f002c6",
      "scriptpubkey_asm": "OP_0 OP_PUSHBYTES_20 2c25a795dc9aeed963625c898231bcecf2f002c6",
      "scriptpubkey_type": "v0_p2wpkh",
      "scriptpubkey_address": "bc1q9sj609wunthdjcmztjycyvduane0qqkxrnw92e",
      "value": 546
    }
  ],
  "size": 455,
  "weight": 701,
  "fee": 2112,
  "status": {
    "confirmed": true,
    "block_height": 834460,
    "block_hash": "00000000000000000000484a79b643b2524bbce82e5d8a442013fa5b8905ed98",
    "block_time": 1710307468
  },
  "hex": "020000000001015fce34a97b9aab7d9220d9008b2e7a92c068cdf5e8ad3d165d7a5b7237c154e01500000000ffffffff0122020000000000001600142c25a795dc9aeed963625c898231bcecf2f002c60340af5cd5ccf14801a8a26a98cc5029bc8aed8f5283e07087e99a83946c38b8f2586787328a593e61fcd6b018e6342320dfef35970281419e5eb71efedb5ba42c64fd0c0120b457bea070f44738ed317f3afa2c08788e449435a98b98b314c390cc3a0b27c9ac0063036f726401011e6170706c69636174696f6e2f6a736f6e3b636861727365743d7574662d38004cbf7b2270223a22706f772d3230222c226f70223a226d696e74222c227469636b223a2250455045222c22616d74223a2231303030222c22736f6c7574696f6e223a22504550453a6263317139736a36303977756e7468646a636d7a746a796379766475616e653071716b78726e773932653a303030303030303030303030303030303030303139393431613561653132383937363539383134343239323533333030353762306461393666336465613163353a3235373839323131383834227d6821c0a0e509a599b6542378e5ac7959d344a1bebc95ec9899fd4ccf1904beefe3f04700000000"
}