{
  "txid": "347f1d83975d0d47f14d8d01b0d1d7164b956802838d9bef77a723795a629f22",
  "version": 2,
  "locktime": 0,
  "vin": [
    {
      "txid": "573166c074d1f9d97e74b7e445ae9eee4071bb54005e0e28be99fe4fa5597b23",
      "vout": 34,
      "prevout": {
        "scriptpubkey": "51206f4d2c8e7012704c8980148291dadbc7505fce9a4294f043d4aeb4be89ab3c2c",
        "scriptpubkey_asm": "OP_PUSHNUM_1 OP_PUSHBYTES_32 6f4d2c8e7012704c8980148291dadbc7505fce9a4294f043d4aeb4be89ab3c2c",
        "scriptpubkey_type": "v1_p2tr",
        "scriptpubkey_address": "bc1pdaxjernszfcyezvqzjpfrkkmcag9ln56g220qs75466tazdt8skq0jzqcw",
        "value": 3055
      },
      "scriptsig": "",
      "scriptsig_asm": "",
      "witness": [
        "6ac667da042077f82b3e1aa579e998a00e18d6ea714567857963882cedb774e9b1cc935afe0c9fb7966e48baa75dc1f129e4bba89f2249ca1cc7db9357a47289",
        "209ac7dfff4f995cddf7501c8962c0f1ecc738e5e8b200950a3bcf296bb003e890ac0063036f726401011e6170706c69636174696f6e2f6a736f6e3b636861727365743d7574662d38004cd37b2270223a22706f772d3230222c226f70223a226d696e74222c227469636b223a2250455045222c22616d74223a2231303030222c22736f6c7574696f6e223a22504550453a6263317070376e727a37746333726c6d6d72373773676a6b6b7561677073323971776830617261393430777a616878666b6d6e61687770717877667139703a303030303030303030303030303030303030303139393431613561653132383937363539383134343239323533333030353762306461393666336465613163353a3235313832383937393538227d68",
        "c1f1b4027b27384657c547a9d6289f3be45ec463ffc50ccbf57ef9c2d60d2b0f32"
      ],
      "is_coinbase": false,
      "sequence": 4294967295
    }
  ],
  "vout": [
    {
      "scriptpubkey": "51200fa631797888ffbd8fde82256b73a80c14503aefe8fa5abdc2edcc9b6e7dbb82",
      "scriptpubkey_asm": "OP_PUSHNUM_1 OP_PUSHBYTES_32 0fa631797888ffbd8fde82256b73a80c14503aefe8fa5abdc2edcc9b6e7dbb82",
      "scriptpubkey_type": "v1_p2tr",
      "scriptpubkey_address": "bc1pp7nrz7tc3rlmmr77sgjkkuagps29qwh0ara940wzahxfkmnahwpqxwfq9p",
      "value": 546
    }
  ],
  "size": 487,
  "weight": 769,
  "fee": 2509,
  "status": {
    "confirmed": true,
    "block_height": 834460,
    "block_hash": "00000000000000000000484a79b643b2524bbce82e5d8a442013fa5b8905ed98",
    "block_time": 1710307468
  },
  "hex": "02000000000101237b59a54ffe99be280e5e0054bb7140ee9eae45e4b7747ed9f9d174c06631572200000000ffffffff0122020000000000002251200fa631797888ffbd8fde82256b73a80c14503aefe8fa5abdc2edcc9b6e7dbb8203406ac667da042077f82b3e1aa579e998a00e18d6ea714567857963882cedb774e9b1cc935afe0c9fb7966e48baa75dc1f129e4bba89f2249ca1cc7db9357a47289fd2001209ac7dfff4f995cddf7501c8962c0f1ecc738e5e8b200950a3bcf296bb003e890ac0063036f726401011e6170706c69636174696f6e2f6a736f6e3b636861727365743d7574662d38004cd37b2270223a22706f772d3230222c226f70223a226d696e74222c227469636b223a2250455045222c22616d74223a2231303030222c22736f6c7574696f6e223a22504550453a6263317070376e727a37746333726c6d6d72373773676a6b6b7561677073323971776830617261393430777a616878666b6d6e61687770717877667139703a303030303030303030303030303030303030303139393431613561653132383937363539383134343239323533333030353762306461393666336465613163353a3235313832383937393538227d6821c1f1b4027b27384657c547a9d6289f3be45ec463ffc50ccbf57ef9c2d60d2b0f3200000000"
}