{
  "txid": "34845a0f5eca756d7768ee2f03186ec4d73d86f9ebeaaf96abddf8bb733641b6",
  "version": 2,
  "locktime": 0,
  "vin": [
    {
      "txid": "878e84a34c6b66d55b575a83a455c707babc3291c3748fb40990023a3a4f32a1",
      "vout": 0,
      "prevout": {
        "scriptpubkey": "512017918dee31e658920d70b157d20d73f8bcad8ea0d0ff48733fc542ad71c5ee3c",
        "scriptpubkey_asm": "OP_PUSHNUM_1 OP_PUSHBYTES_32 17918dee31e658920d70b157d20d73f8bcad8ea0d0ff48733fc542ad71c5ee3c",
        "scriptpubkey_type": "v1_p2tr",
        "scriptpubkey_address": "bc1pz7gcmm33uevfyrtsk9tayrtnlz72mr4q6rl5suelc4p26uw9ac7qjn35dp",
        "value": 5000
      },
      "scriptsig": "",
      "scriptsig_asm": "",
      "witness": [
        "ac6bc40ae47f5548386a976325b2ab9ffa5cc685304fc5ee42997dc11b64623867a6959b40b51b04ab4c6027aeeeb1c542732b5a1b356e4bb877d94ab56406c601"
      ],
      "is_coinbase": false,
      "sequence": 4294967295
    }
  ],
  "vout": [
    {
      "scriptpubkey": "00143919d928e617770c9b365142cb95d85743baba29",
      "scriptpubkey_asm": "OP_0 OP_PUSHBYTES_20 3919d928e617770c9b365142cb95d85743baba29",
      "scriptpubkey_type": "v0_p2wpkh",
      "scriptpubkey_address": "bc1q8yvaj28xzamsexek29pvh9wc2apm4w3fu7zfkh",
      "value": 3792
    }
  ],
  "size": 151,
  "weight": 397,
  "fee": 1208,
  "status": {
    "confirmed": true,
    "block_height": 834552,
    "block_hash": "00000000000000000001dd0468a70c94f619251d286585cff57aeb4bd9ede330",
    "block_time": 1710355598
  },
  "hex": "02000000000101a1324f3a3a029009b48f74c39132bcba07c755a4835a575bd5666b4ca3848e870000000000ffffffff01d00e0000000000001600143919d928e617770c9b365142cb95d85743baba290141ac6bc40ae47f5548386a976325b2ab9ffa5cc685304fc5ee42997dc11b64623867a6959b40b51b04ab4c6027aeeeb1c542732b5a1b356e4bb877d94ab56406c60100000000"
}