{
  "txid": "348daf413764a22a22c5a9338181784ca6498a40662b273abdea31683c3fd096",
  "version": 1,
  "locktime": 0,
  "vin": [
    {
      "txid": "7e8414fdb0a074642d7cf808544b8c035a07f35d0fa24d2a871b821f486824e6",
      "vout": 1,
      "prevout": {
        "scriptpubkey": "0014671cbd7e8781c59cffd180484012821ed845e728",
        "scriptpubkey_asm": "OP_0 OP_PUSHBYTES_20 671cbd7e8781c59cffd180484012821ed845e728",
        "scriptpubkey_type": "v0_p2wpkh",
        "scriptpubkey_address": "bc1qvuwt6l58s8zeel73spyyqy5zrmvyteeg4ncfhy",
        "value": 112227
      },
      "scriptsig": "",
      "scriptsig_asm": "",
      "witness": [
        "304402204d418adca6aa8fe045957d17f9d4540df8dad59e0efd1e64e071071357fcbf8a02201fbd8872c67036bbb86fcfda8ddf08b0f46066b638b38ea2a0871ded32f5a86a01",
        "033de4a96d32eaec38de3baa9793936341300f9ec53b598a101405cfc8bdb34d98"
      ],
      "is_coinbase": false,
      "sequence": 4294967295
    }
  ],
  "vout": [
    {
      "scriptpubkey": "0014fa3e7c2f5a8c45876b4811c704925ca06581b677",
      "scriptpubkey_asm": "OP_0 OP_PUSHBYTES_20 fa3e7c2f5a8c45876b4811c704925ca06581b677",
      "scriptpubkey_type": "v0_p2wpkh",
      "scriptpubkey_address": "bc1qlgl8ct6633zcw66gz8rsfyju5pjcrdnh2hl5al",
      "value": 109257
    }
  ],
  "size": 191,
  "weight": 437,
  "fee": 2970,
  "status": {
    "confirmed": true,
    "block_height": 834638,
    "block_hash": "000000000000000000025f742c626208ac87e0b7d15054abb4a19ca2d735a54e",
    "block_time": 1710405325
  },
  "hex": "01000000000101e62468481f821b872a4da20f5df3075a038c4b5408f87c2d6474a0b0fd14847e0100000000ffffffff01c9aa010000000000160014fa3e7c2f5a8c45876b4811c704925ca06581b6770247304402204d418adca6aa8fe045957d17f9d4540df8dad59e0efd1e64e071071357fcbf8a02201fbd8872c67036bbb86fcfda8ddf08b0f46066b638b38ea2a0871ded32f5a86a0121033de4a96d32eaec38de3baa9793936341300f9ec53b598a101405cfc8bdb34d9800000000"
}