{
  "txid": "349cb04b0334d7e6356f685332151465992a23216a7d9a1723590889d379ea47",
  "version": 2,
  "locktime": 0,
  "vin": [
    {
      "txid": "65a4eff69fbf97128816534c40cbd3e4bc4eb1559d9cb314dad354a55661c03f",
      "vout": 1,
      "prevout": {
        "scriptpubkey": "51200d93e5e7233c54d49e9e880e2d2986f7836c95bb0de0920465f31ce30ea31192",
        "scriptpubkey_asm": "OP_PUSHNUM_1 OP_PUSHBYTES_32 0d93e5e7233c54d49e9e880e2d2986f7836c95bb0de0920465f31ce30ea31192",
        "scriptpubkey_type": "v1_p2tr",
        "scriptpubkey_address": "bc1ppkf7teer832df8573q8z62vx77pke9dmphsfypr97vwwxr4rzxfqf0mh73",
        "value": 945906
      },
      "scriptsig": "",
      "scriptsig_asm": "",
      "witness": [
        "af99e3f5ad04c98099d136c5d25a9be6b8d3313ccd0d6dd2833f26dd8f58cdadb557a852c3a3e62e8474d9971a31f0b0ba8ffb5e915dee979e2eb44b4e5baa44"
      ],
      "is_coinbase": false,
      "sequence": 4294967295
    }
  ],
  "vout": [
    {
      "scriptpubkey": "5120a74010ae664081bc0a22e748b4937d9630da1a2acfd82268eb7d58df53bfcdd9",
      "scriptpubkey_asm": "OP_PUSHNUM_1 OP_PUSHBYTES_32 a74010ae664081bc0a22e748b4937d9630da1a2acfd82268eb7d58df53bfcdd9",
      "scriptpubkey_type": "v1_p2tr",
      "scriptpubkey_address": "bc1p5aqpptnxgzqmcz3zuaytfymajccd5x32elvzy68t04vd75alehvscrpums",
      "value": 5000
    },
    {
      "scriptpubkey": "51200d93e5e7233c54d49e9e880e2d2986f7836c95bb0de0920465f31ce30ea31192",
      "scriptpubkey_asm": "OP_PUSHNUM_1 OP_PUSHBYTES_32 0d93e5e7233c54d49e9e880e2d2986f7836c95bb0de0920465f31ce30ea31192",
      "scriptpubkey_type": "v1_p2tr",
      "scriptpubkey_address": "bc1ppkf7teer832df8573q8z62vx77pke9dmphsfypr97vwwxr4rzxfqf0mh73",
      "value": 938442
    }
  ],
  "size": 205,
  "weight": 616,
  "fee": 2464,
  "status": {
    "confirmed": true,
    "block_height": 834638,
    "block_hash": "000000000000000000025f742c626208ac87e0b7d15054abb4a19ca2d735a54e",
    "block_time": 1710405325
  },
  "hex": "020000000001013fc06156a554d3da14b39c9d55b14ebce4d3cb404c5316881297bf9ff6efa4650100000000ffffffff028813000000000000225120a74010ae664081bc0a22e748b4937d9630da1a2acfd82268eb7d58df53bfcdd9ca510e00000000002251200d93e5e7233c54d49e9e880e2d2986f7836c95bb0de0920465f31ce30ea311920140af99e3f5ad04c98099d136c5d25a9be6b8d3313ccd0d6dd2833f26dd8f58cdadb557a852c3a3e62e8474d9971a31f0b0ba8ffb5e915dee979e2eb44b4e5baa4400000000"
}