{
  "txid": "34a2a429f26fca7dda65ffafb631a773f9f7f36b12d1d0a2688303a883c554a1",
  "version": 2,
  "locktime": 0,
  "vin": [
    {
      "txid": "984951d6f630bfb973c9cf3376b67bc702ef6d6b550ebd8e0a7928333d94bf3c",
      "vout": 0,
      "prevout": {
        "scriptpubkey": "0014402169e760e03c0702b45a88d99343bf65b64ccf",
        "scriptpubkey_asm": "OP_0 OP_PUSHBYTES_20 402169e760e03c0702b45a88d99343bf65b64ccf",
        "scriptpubkey_type": "v0_p2wpkh",
        "scriptpubkey_address": "bc1qgqsknemquq7qwq45t2ydny6rhajmvnx04440q7",
        "value": 8480
      },
      "scriptsig": "",
      "scriptsig_asm": "",
      "witness": [
        "3044022077f4bbfa699bebb6e849b4d3b7360f572df5a7b84e56da4a08df52eab7a48166022070776d783212f8ae09563d3ea89c8d91ee1f020f473890d431b1fefd30d80d6f01",
        "028b4500160775d3c0ae9e421725f4afc4166da07291847bb1bfee9379de51c9e3"
      ],
      "is_coinbase": false,
      "sequence": 4294967293
    }
  ],
  "vout": [
    {
      "scriptpubkey": "76a9141052de8bd152c73c8070c68eedbfabbccce94aae88ac",
      "scriptpubkey_asm": "OP_DUP OP_HASH160 OP_PUSHBYTES_20 1052de8bd152c73c8070c68eedbfabbccce94aae OP_EQUALVERIFY OP_CHECKSIG",
      "scriptpubkey_type": "p2pkh",
      "scriptpubkey_address": "12VK5vyhehRYCth4eoekJnYdbXYRgBPZGL",
      "value": 7260
    }
  ],
  "size": 194,
  "weight": 449,
  "fee": 1220,
  "status": {
    "confirmed": true,
    "block_height": 834464,
    "block_hash": "0000000000000000000177a0869a911a2b65c9bdcd5a8bcb02b68f305bee848e",
    "block_time": 1710308296
  },
  "hex": "020000000001013cbf943d3328790a8ebd0e556b6def02c77bb67633cfc973b9bf30f6d65149980000000000fdffffff015c1c0000000000001976a9141052de8bd152c73c8070c68eedbfabbccce94aae88ac02473044022077f4bbfa699bebb6e849b4d3b7360f572df5a7b84e56da4a08df52eab7a48166022070776d783212f8ae09563d3ea89c8d91ee1f020f473890d431b1fefd30d80d6f0121028b4500160775d3c0ae9e421725f4afc4166da07291847bb1bfee9379de51c9e300000000"
}