{
  "txid": "34b0b230c0de68bc37b137f39fb33fbb6ce7fe301281e72c9fc2cbd06b100680",
  "version": 1,
  "locktime": 0,
  "vin": [
    {
      "txid": "1240c30733d6299d4858411afa8f5f317f2558859986961cfa56feb40865002a",
      "vout": 0,
      "prevout": {
        "scriptpubkey": "5120cadc52a4c2d3f5d09a580362b8a4909f1f99e273fa796391f4f7e7ef4dab0090",
        "scriptpubkey_asm": "OP_PUSHNUM_1 OP_PUSHBYTES_32 cadc52a4c2d3f5d09a580362b8a4909f1f99e273fa796391f4f7e7ef4dab0090",
        "scriptpubkey_type": "v1_p2tr",
        "scriptpubkey_address": "bc1petw99fxz606apxjcqd3t3fysnu0encnnlfuk8y057ln77ndtqzgq0th0dv",
        "value": 2889
      },
      "scriptsig": "",
      "scriptsig_asm": "",
      "witness": [
        "ec5d55dbcf61e5b8dd1fee4a788e49b84ca1fd01fc3375863d2be908c9d73aba2c294e1ccf5b011bc520b02891b9bc417dd540ff473c3e93ee3516dde4414f64",
        "20dfa7325ed77fab28d796d113dcead29a7490c58aaa244f71cf02d52f6b761081ac00630461746f6d03646d7437a16461726773a46474696d651a65ee4d16656e6f6e63650068626974776f726b6364313234306b6d696e745f7469636b657264766d707868",
        "c0dfa7325ed77fab28d796d113dcead29a7490c58aaa244f71cf02d52f6b761081"
      ],
      "is_coinbase": false,
      "sequence": 0
    }
  ],
  "vout": [
    {
      "scriptpubkey": "5120a1e3352d215c371d7181ba45cba88085be161f72f0fb432c6eb5c59fa438eb97",
      "scriptpubkey_asm": "OP_PUSHNUM_1 OP_PUSHBYTES_32 a1e3352d215c371d7181ba45cba88085be161f72f0fb432c6eb5c59fa438eb97",
      "scriptpubkey_type": "v1_p2tr",
      "scriptpubkey_address": "bc1p583n2tfptsm36uvphfzuh2yqsklpv8mj7ra5xtrwkhzelfpcawtswnzule",
      "value": 1000
    }
  ],
  "size": 299,
  "weight": 581,
  "fee": 1889,
  "status": {
    "confirmed": true,
    "block_height": 834464,
    "block_hash": "0000000000000000000177a0869a911a2b65c9bdcd5a8bcb02b68f305bee848e",
    "block_time": 1710308296
  },
  "hex": "010000000001012a006508b4fe56fa1c9686998558257f315f8ffa1a4158489d29d63307c3401200000000000000000001e803000000000000225120a1e3352d215c371d7181ba45cba88085be161f72f0fb432c6eb5c59fa438eb970340ec5d55dbcf61e5b8dd1fee4a788e49b84ca1fd01fc3375863d2be908c9d73aba2c294e1ccf5b011bc520b02891b9bc417dd540ff473c3e93ee3516dde4414f646620dfa7325ed77fab28d796d113dcead29a7490c58aaa244f71cf02d52f6b761081ac00630461746f6d03646d7437a16461726773a46474696d651a65ee4d16656e6f6e63650068626974776f726b6364313234306b6d696e745f7469636b657264766d70786821c0dfa7325ed77fab28d796d113dcead29a7490c58aaa244f71cf02d52f6b76108100000000"
}