{
  "txid": "34ba2ea5942bc877f9f64e1fb28561c7e97aa59de91d2cd0ecedfd9ca6a07caf",
  "version": 2,
  "locktime": 0,
  "vin": [
    {
      "txid": "659b82bf51c32df260f3e3563d90fcbcb0098209af4d18020ca9e1a619ccc8c8",
      "vout": 10,
      "prevout": {
        "scriptpubkey": "512094c49397b8d68ca711db93b975be2ca4e7796bada816de62642abe69c72605ca",
        "scriptpubkey_asm": "OP_PUSHNUM_1 OP_PUSHBYTES_32 94c49397b8d68ca711db93b975be2ca4e7796bada816de62642abe69c72605ca",
        "scriptpubkey_type": "v1_p2tr",
        "scriptpubkey_address": "bc1pjnzf89ac66x2wywmjwuht03v5nnhj6ad4qtducny92lxn3exqh9qadlat0",
        "value": 1931
      },
      "scriptsig": "",
      "scriptsig_asm": "",
      "witness": [
        "1708c8e93b12d53291581bd310f72194340560211884aca796d80b7a44eecfc0b3c1a3d84e8bda16debe3738820592cfc96b9c6ad6a052d7acbd956a6311a85b",
        "2075fa89f2121cbc2a6e162184c6c7b7056f17b4a960b26e651b02438373500530ac0063036f726401010a746578742f706c61696e00367b2270223a226272632d3230222c226f70223a226d696e74222c227469636b223a2261616161222c22616d74223a223130303030227d68",
        "c175fa89f2121cbc2a6e162184c6c7b7056f17b4a960b26e651b02438373500530"
      ],
      "is_coinbase": false,
      "sequence": 4261412863
    }
  ],
  "vout": [
    {
      "scriptpubkey": "0014be9f0c070a9b1bd40f5fcb06fba89738d936ceb6",
      "scriptpubkey_asm": "OP_0 OP_PUSHBYTES_20 be9f0c070a9b1bd40f5fcb06fba89738d936ceb6",
      "scriptpubkey_type": "v0_p2wpkh",
      "scriptpubkey_address": "bc1qh60scpc2nvdagr6levr0h2yh8rvndn4k4v5s9g",
      "value": 294
    }
  ],
  "size": 295,
  "weight": 541,
  "fee": 1637,
  "status": {
    "confirmed": true,
    "block_height": 834460,
    "block_hash": "00000000000000000000484a79b643b2524bbce82e5d8a442013fa5b8905ed98",
    "block_time": 1710307468
  },
  "hex": "02000000000101c8c8cc19a6e1a90c02184daf098209b0bcfc903d56e3f360f22dc351bf829b650a00000000fffffffd012601000000000000160014be9f0c070a9b1bd40f5fcb06fba89738d936ceb603401708c8e93b12d53291581bd310f72194340560211884aca796d80b7a44eecfc0b3c1a3d84e8bda16debe3738820592cfc96b9c6ad6a052d7acbd956a6311a85b6e2075fa89f2121cbc2a6e162184c6c7b7056f17b4a960b26e651b02438373500530ac0063036f726401010a746578742f706c61696e00367b2270223a226272632d3230222c226f70223a226d696e74222c227469636b223a2261616161222c22616d74223a223130303030227d6821c175fa89f2121cbc2a6e162184c6c7b7056f17b4a960b26e651b0243837350053000000000"
}