{
  "txid": "34c5e4597f28921f87fda175d16ec0517d2e3178a4ec46a11bb68f4f34abf539",
  "version": 1,
  "locktime": 0,
  "vin": [
    {
      "txid": "43caf5c6f9cbf8c14965c0bfbb2493cb94eb9f709d55708b6debc60bb636b77e",
      "vout": 2,
      "prevout": {
        "scriptpubkey": "0014722d1e3e742920af84df2bd160ead6e0b1daf1f1",
        "scriptpubkey_asm": "OP_0 OP_PUSHBYTES_20 722d1e3e742920af84df2bd160ead6e0b1daf1f1",
        "scriptpubkey_type": "v0_p2wpkh",
        "scriptpubkey_address": "bc1qwgk3u0n59ys2lpxl90gkp6kkuzca4u03q5dwus",
        "value": 26896429
      },
      "scriptsig": "",
      "scriptsig_asm": "",
      "witness": [
        "3045022100e84da370e08b588ac89413fbcf032d4d5ccbd7c1e9a4816e413d757df8ba33cd02204dea2976688e400951e4f6e135b211eb721847f2104ca53c45c9ccf0772e70dd01",
        "0283723418231dbf425d2c04a9a1106b1eac2a5a9c4e97164f059160b2a1207edf"
      ],
      "is_coinbase": false,
      "sequence": 4294967295
    }
  ],
  "vout": [
    {
      "scriptpubkey": "76a914573bcbef10c1f597bdd4a4df326ac5c38d85f7ca88ac",
      "scriptpubkey_asm": "OP_DUP OP_HASH160 OP_PUSHBYTES_20 573bcbef10c1f597bdd4a4df326ac5c38d85f7ca OP_EQUALVERIFY OP_CHECKSIG",
      "scriptpubkey_type": "p2pkh",
      "scriptpubkey_address": "18xFRRzuKLhzjiVjGZ11cApUF1LPoTQhw5",
      "value": 14892
    },
    {
      "scriptpubkey": "a9144262158c0c202f71b1caf2540b6462e3d9f0675087",
      "scriptpubkey_asm": "OP_HASH160 OP_PUSHBYTES_20 4262158c0c202f71b1caf2540b6462e3d9f06750 OP_EQUAL",
      "scriptpubkey_type": "p2sh",
      "scriptpubkey_address": "37k22DFZs4XfJaP9aVKYxbe8iNjZGeiYYC",
      "value": 363187
    },
    {
      "scriptpubkey": "76a91481d97805d808654053aeb654ff71f3bba95c98eb88ac",
      "scriptpubkey_asm": "OP_DUP OP_HASH160 OP_PUSHBYTES_20 81d97805d808654053aeb654ff71f3bba95c98eb OP_EQUALVERIFY OP_CHECKSIG",
      "scriptpubkey_type": "p2pkh",
      "scriptpubkey_address": "1CqagkGRstYoQKrRwrWYKTAdq9d9jdhQP8",
      "value": 17873
    },
    {
      "scriptpubkey": "001463ad1a2a6b564472be7d9b906cf103185e06ac49",
      "scriptpubkey_asm": "OP_0 OP_PUSHBYTES_20 63ad1a2a6b564472be7d9b906cf103185e06ac49",
      "scriptpubkey_type": "v0_p2wpkh",
      "scriptpubkey_address": "bc1qvwk352nt2ez890nanwgxeugrrp0qdtzf54fmmv",
      "value": 67043
    },
    {
      "scriptpubkey": "0020bf0764f86d168e640f1c79042b0d0ff50bc968d581ed47686dd8eda0c9159150",
      "scriptpubkey_asm": "OP_0 OP_PUSHBYTES_32 bf0764f86d168e640f1c79042b0d0ff50bc968d581ed47686dd8eda0c9159150",
      "scriptpubkey_type": "v0_p2wsh",
      "scriptpubkey_address": "bc1qhurkf7rdz68xgrcu0yzzkrg0759uj6x4s8k5w6rdmrk6pjg4j9gq7jcw9z",
      "value": 21501
    },
    {
      "scriptpubkey": "00142916862f0faac2b5367559160196afd0edb2d62a",
      "scriptpubkey_asm": "OP_0 OP_PUSHBYTES_20 2916862f0faac2b5367559160196afd0edb2d62a",
      "scriptpubkey_type": "v0_p2wpkh",
      "scriptpubkey_address": "bc1q9ytgvtc04tpt2dn4tytqr9406rkm94322laede",
      "value": 123620
    },
    {
      "scriptpubkey": "001443ae0360f79de70e2405b62fc2b5bc665e1bbee5",
      "scriptpubkey_asm": "OP_0 OP_PUSHBYTES_20 43ae0360f79de70e2405b62fc2b5bc665e1bbee5",
      "scriptpubkey_type": "v0_p2wpkh",
      "scriptpubkey_address": "bc1qgwhqxc8hnhnsufq9kchu9dduve0ph0h987u3jz",
      "value": 136101
    },
    {
      "scriptpubkey": "001455562c038d4de9e3ab57ff349d715a577d92c61a",
      "scriptpubkey_asm": "OP_0 OP_PUSHBYTES_20 55562c038d4de9e3ab57ff349d715a577d92c61a",
      "scriptpubkey_type": "v0_p2wpkh",
      "scriptpubkey_address": "bc1q24tzcqudfh57826hlu6f6u262a7e93s6cq46xa",
      "value": 528297
    },
    {
      "scriptpubkey": "0014182593790d7c7e702487bbb920a4b693049608b1",
      "scriptpubkey_asm": "OP_0 OP_PUSHBYTES_20 182593790d7c7e702487bbb920a4b693049608b1",
      "scriptpubkey_type": "v0_p2wpkh",
      "scriptpubkey_address": "bc1qrqjex7gd03l8qfy8hwujpf9kjvzfvz93w50asu",
      "value": 22733631
    },
    {
      "scriptpubkey": "0014ee8186f99fa27c2fe7adde6938adb440557673a1",
      "scriptpubkey_asm": "OP_0 OP_PUSHBYTES_20 ee8186f99fa27c2fe7adde6938adb440557673a1",
      "scriptpubkey_type": "v0_p2wpkh",
      "scriptpubkey_address": "bc1qa6qcd7vl5f7zleadme5n3td5gp2hvuapr6swvm",
      "value": 210207
    },
    {
      "scriptpubkey": "a914213a0cc356bdde5875c4e4b5cb2c26353b062f2687",
      "scriptpubkey_asm": "OP_HASH160 OP_PUSHBYTES_20 213a0cc356bdde5875c4e4b5cb2c26353b062f26 OP_EQUAL",
      "scriptpubkey_type": "p2sh",
      "scriptpubkey_address": "34ihmFPLj7VWX1aBwkY7dQVaHBseR9hZgh",
      "value": 2055020
    },
    {
      "scriptpubkey": "001420d8a458678f8be20f280310d801b46f1376365d",
      "scriptpubkey_asm": "OP_0 OP_PUSHBYTES_20 20d8a458678f8be20f280310d801b46f1376365d",
      "scriptpubkey_type": "v0_p2wpkh",
      "scriptpubkey_address": "bc1qyrv2gkr83797yregqvgdsqd5dufhvdjaxvv5y6",
      "value": 115724
    },
    {
      "scriptpubkey": "001469df0d6c7d0bf92673054b25fb7e0483f9065462",
      "scriptpubkey_asm": "OP_0 OP_PUSHBYTES_20 69df0d6c7d0bf92673054b25fb7e0483f9065462",
      "scriptpubkey_type": "v0_p2wpkh",
      "scriptpubkey_address": "bc1qd80s6mrap0ujvuc9fvjlklsys0usv4rzdx5e9g",
      "value": 265397
    },
    {
      "scriptpubkey": "001441fda1b64afdc475a617ed0ad53a0325002ee0e8",
      "scriptpubkey_asm": "OP_0 OP_PUSHBYTES_20 41fda1b64afdc475a617ed0ad53a0325002ee0e8",
      "scriptpubkey_type": "v0_p2wpkh",
      "scriptpubkey_address": "bc1qg876rdj2lhz8tfsha59d2wsry5qzac8g7xmhke",
      "value": 229548
    }
  ],
  "size": 615,
  "weight": 2130,
  "fee": 14388,
  "status": {
    "confirmed": true,
    "block_height": 834638,
    "block_hash": "000000000000000000025f742c626208ac87e0b7d15054abb4a19ca2d735a54e",
    "block_time": 1710405325
  },
  "hex": "010000000001017eb736b60bc6eb6d8b70559d709feb94cb9324bbbfc06549c1f8cbf9c6f5ca430200000000ffffffff0e2c3a0000000000001976a914573bcbef10c1f597bdd4a4df326ac5c38d85f7ca88acb38a05000000000017a9144262158c0c202f71b1caf2540b6462e3d9f0675087d1450000000000001976a91481d97805d808654053aeb654ff71f3bba95c98eb88ace30501000000000016001463ad1a2a6b564472be7d9b906cf103185e06ac49fd53000000000000220020bf0764f86d168e640f1c79042b0d0ff50bc968d581ed47686dd8eda0c9159150e4e20100000000001600142916862f0faac2b5367559160196afd0edb2d62aa51302000000000016001443ae0360f79de70e2405b62fc2b5bc665e1bbee5a90f08000000000016001455562c038d4de9e3ab57ff349d715a577d92c61a3fe35a0100000000160014182593790d7c7e702487bbb920a4b693049608b11f35030000000000160014ee8186f99fa27c2fe7adde6938adb440557673a16c5b1f000000000017a914213a0cc356bdde5875c4e4b5cb2c26353b062f26870cc401000000000016001420d8a458678f8be20f280310d801b46f1376365db50c04000000000016001469df0d6c7d0bf92673054b25fb7e0483f9065462ac8003000000000016001441fda1b64afdc475a617ed0ad53a0325002ee0e802483045022100e84da370e08b588ac89413fbcf032d4d5ccbd7c1e9a4816e413d757df8ba33cd02204dea2976688e400951e4f6e135b211eb721847f2104ca53c45c9ccf0772e70dd01210283723418231dbf425d2c04a9a1106b1eac2a5a9c4e97164f059160b2a1207edf00000000"
}