{
  "txid": "34c7ccfa4e8e20644563b2651eccb64d7bc31d3e8a681bda769e7c17b9bdc881",
  "version": 2,
  "locktime": 0,
  "vin": [
    {
      "txid": "db5b9e100aea1d0266b7a8af69f6fdf9c27cd31978abf63e62d017da3784f5a4",
      "vout": 1,
      "prevout": {
        "scriptpubkey": "76a914a537a4b708d0a601d5dc14d635bdd1fd3563eb4888ac",
        "scriptpubkey_asm": "OP_DUP OP_HASH160 OP_PUSHBYTES_20 a537a4b708d0a601d5dc14d635bdd1fd3563eb48 OP_EQUALVERIFY OP_CHECKSIG",
        "scriptpubkey_type": "p2pkh",
        "scriptpubkey_address": "1G4b9ppXTCmbX36k2Q7Aa6FYPuFi3kB8GM",
        "value": 19541
      },
      "scriptsig": "473044022012f712ae9ea3f0e0554f62a0c986fc96e41c9950c1ae6f24190549d7972c66e602204a6095c065fc4c319d19543d0d8f2e953cb3d953dbc25c1c15fce88dfc20e6ed01210276b9b7970025a0c10eb64e614bd0fb1402a017226ece3c6461f3717041df6c0a",
      "scriptsig_asm": "OP_PUSHBYTES_71 3044022012f712ae9ea3f0e0554f62a0c986fc96e41c9950c1ae6f24190549d7972c66e602204a6095c065fc4c319d19543d0d8f2e953cb3d953dbc25c1c15fce88dfc20e6ed01 OP_PUSHBYTES_33 0276b9b7970025a0c10eb64e614bd0fb1402a017226ece3c6461f3717041df6c0a",
      "is_coinbase": false,
      "sequence": 4294967295
    }
  ],
  "vout": [
    {
      "scriptpubkey": "001413081664d4016fc81765679b0e35a3d97a80c43a",
      "scriptpubkey_asm": "OP_0 OP_PUSHBYTES_20 13081664d4016fc81765679b0e35a3d97a80c43a",
      "scriptpubkey_type": "v0_p2wpkh",
      "scriptpubkey_address": "bc1qzvypvex5q9hus9m9v7dsuddrm9agp3p6q8v7mm",
      "value": 6816
    },
    {
      "scriptpubkey": "76a914367b0f72d1a7386b4b2d05173727681bd2c7efad88ac",
      "scriptpubkey_asm": "OP_DUP OP_HASH160 OP_PUSHBYTES_20 367b0f72d1a7386b4b2d05173727681bd2c7efad OP_EQUALVERIFY OP_CHECKSIG",
      "scriptpubkey_type": "p2pkh",
      "scriptpubkey_address": "15y4uk1cwhGAZzPhGsguoAnV7yKixbdALm",
      "value": 5411
    }
  ],
  "size": 222,
  "weight": 888,
  "fee": 7314,
  "status": {
    "confirmed": true,
    "block_height": 834638,
    "block_hash": "000000000000000000025f742c626208ac87e0b7d15054abb4a19ca2d735a54e",
    "block_time": 1710405325
  },
  "hex": "0200000001a4f58437da17d0623ef6ab7819d37cc2f9fdf669afa8b766021dea0a109e5bdb010000006a473044022012f712ae9ea3f0e0554f62a0c986fc96e41c9950c1ae6f24190549d7972c66e602204a6095c065fc4c319d19543d0d8f2e953cb3d953dbc25c1c15fce88dfc20e6ed01210276b9b7970025a0c10eb64e614bd0fb1402a017226ece3c6461f3717041df6c0affffffff02a01a00000000000016001413081664d4016fc81765679b0e35a3d97a80c43a23150000000000001976a914367b0f72d1a7386b4b2d05173727681bd2c7efad88ac00000000"
}