{
  "txid": "3510e3106898b45fab20216c9d7315413797c9f961b0e8a60ecc6522cfded81a",
  "version": 2,
  "locktime": 0,
  "vin": [
    {
      "txid": "acc3ba00869acb582a3f2904ce3a11dd3779350ce234063fc7d0959246213364",
      "vout": 276,
      "prevout": {
        "scriptpubkey": "5120079f21b631ccee2398ee6e5622a0583f80718ccf65d1fb16277e3f59b8f2d065",
        "scriptpubkey_asm": "OP_PUSHNUM_1 OP_PUSHBYTES_32 079f21b631ccee2398ee6e5622a0583f80718ccf65d1fb16277e3f59b8f2d065",
        "scriptpubkey_type": "v1_p2tr",
        "scriptpubkey_address": "bc1pq70jrd33enhz8x8wdetz9gzc87q8rrx0vhglk9380cl4nw8j6pjs6n800k",
        "value": 1806
      },
      "scriptsig": "",
      "scriptsig_asm": "",
      "witness": [
        "cb38405f23a9d62568292a73d22337499e7a664f9d85fdb6f83ac1aadea5bdd0db6b391fe97588961fad2449917321b9042768c56ff359402aacefd128c0b3cd",
        "20ea09c367fe83e896d4441273796608cd93d5ddf7162cc60ffc352983640bb98fac0063036f726401010a746578742f706c61696e00357b2270223a226272632d3230222c226f70223a226d696e74222c227469636b223a22646f6765222c22616d74223a2234323030227d68",
        "c1ea09c367fe83e896d4441273796608cd93d5ddf7162cc60ffc352983640bb98f"
      ],
      "is_coinbase": false,
      "sequence": 4261412863
    }
  ],
  "vout": [
    {
      "scriptpubkey": "00147a665de7a370f4c9b372ab1fae587500a5bcbdb4",
      "scriptpubkey_asm": "OP_0 OP_PUSHBYTES_20 7a665de7a370f4c9b372ab1fae587500a5bcbdb4",
      "scriptpubkey_type": "v0_p2wpkh",
      "scriptpubkey_address": "bc1q0fn9mearwr6vnvmj4v06ukr4qzjme0d565dzcx",
      "value": 294
    }
  ],
  "size": 294,
  "weight": 540,
  "fee": 1512,
  "status": {
    "confirmed": true,
    "block_height": 834460,
    "block_hash": "00000000000000000000484a79b643b2524bbce82e5d8a442013fa5b8905ed98",
    "block_time": 1710307468
  },
  "hex": "02000000000101643321469295d0c73f0634e20c357937dd113ace04293f2a58cb9a8600bac3ac1401000000fffffffd0126010000000000001600147a665de7a370f4c9b372ab1fae587500a5bcbdb40340cb38405f23a9d62568292a73d22337499e7a664f9d85fdb6f83ac1aadea5bdd0db6b391fe97588961fad2449917321b9042768c56ff359402aacefd128c0b3cd6d20ea09c367fe83e896d4441273796608cd93d5ddf7162cc60ffc352983640bb98fac0063036f726401010a746578742f706c61696e00357b2270223a226272632d3230222c226f70223a226d696e74222c227469636b223a22646f6765222c22616d74223a2234323030227d6821c1ea09c367fe83e896d4441273796608cd93d5ddf7162cc60ffc352983640bb98f00000000"
}