{
  "txid": "3511de76972a27609eb0f7099277ff2b8000edd74962a1469eb0add2705665c0",
  "version": 2,
  "locktime": 0,
  "vin": [
    {
      "txid": "441635d256948638c8ba75d2302829496aac4c7d43937ec69895141144111678",
      "vout": 67,
      "prevout": {
        "scriptpubkey": "0014598b5e61c6fc8a518dbef30c16ac32bc77ee087f",
        "scriptpubkey_asm": "OP_0 OP_PUSHBYTES_20 598b5e61c6fc8a518dbef30c16ac32bc77ee087f",
        "scriptpubkey_type": "v0_p2wpkh",
        "scriptpubkey_address": "bc1qtx94ucwxlj99rrd77vxpdtpjh3m7uzrl3lycxy",
        "value": 287230
      },
      "scriptsig": "",
      "scriptsig_asm": "",
      "witness": [
        "3045022100a588b9fd40cd8e000586f20d306c439d6a55c0a941fe40a9a0780721a9f8f5a7022067894d5f28a72bcb9ee3fcf9d9d691ad6f1dd7c205b71eb8c66288b808fe848c01",
        "027b811e95372eb1ed95e4f8519816ddb1f3cfa774f20331dea36a7a427fb56cc9"
      ],
      "is_coinbase": false,
      "sequence": 4294967293
    }
  ],
  "vout": [
    {
      "scriptpubkey": "76a91447fb8167c63bf2088e1bff84df546594ac02983a88ac",
      "scriptpubkey_asm": "OP_DUP OP_HASH160 OP_PUSHBYTES_20 47fb8167c63bf2088e1bff84df546594ac02983a OP_EQUALVERIFY OP_CHECKSIG",
      "scriptpubkey_type": "p2pkh",
      "scriptpubkey_address": "17ZcGXcKfWzcYmnNyYjbPjSwhtsX5QZB9C",
      "value": 55393
    },
    {
      "scriptpubkey": "00148c7ec59073106ec2aa8875379b303475cd0191f3",
      "scriptpubkey_asm": "OP_0 OP_PUSHBYTES_20 8c7ec59073106ec2aa8875379b303475cd0191f3",
      "scriptpubkey_type": "v0_p2wpkh",
      "scriptpubkey_address": "bc1q33lvtyrnzphv925gw5mekvp5whxsry0n4zegrh",
      "value": 227280
    }
  ],
  "size": 226,
  "weight": 574,
  "fee": 4557,
  "status": {
    "confirmed": true,
    "block_height": 834460,
    "block_hash": "00000000000000000000484a79b643b2524bbce82e5d8a442013fa5b8905ed98",
    "block_time": 1710307468
  },
  "hex": "020000000001017816114411149598c67e93437d4cac6a49292830d275bac838869456d23516444300000000fdffffff0261d80000000000001976a91447fb8167c63bf2088e1bff84df546594ac02983a88acd0770300000000001600148c7ec59073106ec2aa8875379b303475cd0191f302483045022100a588b9fd40cd8e000586f20d306c439d6a55c0a941fe40a9a0780721a9f8f5a7022067894d5f28a72bcb9ee3fcf9d9d691ad6f1dd7c205b71eb8c66288b808fe848c0121027b811e95372eb1ed95e4f8519816ddb1f3cfa774f20331dea36a7a427fb56cc900000000"
}