{
  "txid": "351a773b93e13539854b015e68f23ddc7ffd9b356fd29e992f7426f7682da82d",
  "version": 2,
  "locktime": 0,
  "vin": [
    {
      "txid": "989ff46f81ac81a3b97b05f91c92806ab0fbc0cb6558e6ce69b38d6863d5fd12",
      "vout": 1,
      "prevout": {
        "scriptpubkey": "5120d44e4af17dd8ad9e7465a62f829e642b566879d5cc0f27e28c9c03cd0c73ba5d",
        "scriptpubkey_asm": "OP_PUSHNUM_1 OP_PUSHBYTES_32 d44e4af17dd8ad9e7465a62f829e642b566879d5cc0f27e28c9c03cd0c73ba5d",
        "scriptpubkey_type": "v1_p2tr",
        "scriptpubkey_address": "bc1p638y4utamzkeuar95chc98ny9dtxs7w4es8j0c5vnspu6rrnhfwst0wcaj",
        "value": 237844
      },
      "scriptsig": "",
      "scriptsig_asm": "",
      "witness": [
        "ea974dd2cb455d7ffd0f9e050c96289c46ebe2c231176396e45d7f508e32d6d90347758436eec864c5934aef6f93ca43e01bde84d9476165dbf9f66fde4367fb"
      ],
      "is_coinbase": false,
      "sequence": 4294967295
    }
  ],
  "vout": [
    {
      "scriptpubkey": "5120d44e4af17dd8ad9e7465a62f829e642b566879d5cc0f27e28c9c03cd0c73ba5d",
      "scriptpubkey_asm": "OP_PUSHNUM_1 OP_PUSHBYTES_32 d44e4af17dd8ad9e7465a62f829e642b566879d5cc0f27e28c9c03cd0c73ba5d",
      "scriptpubkey_type": "v1_p2tr",
      "scriptpubkey_address": "bc1p638y4utamzkeuar95chc98ny9dtxs7w4es8j0c5vnspu6rrnhfwst0wcaj",
      "value": 600
    },
    {
      "scriptpubkey": "5120d44e4af17dd8ad9e7465a62f829e642b566879d5cc0f27e28c9c03cd0c73ba5d",
      "scriptpubkey_asm": "OP_PUSHNUM_1 OP_PUSHBYTES_32 d44e4af17dd8ad9e7465a62f829e642b566879d5cc0f27e28c9c03cd0c73ba5d",
      "scriptpubkey_type": "v1_p2tr",
      "scriptpubkey_address": "bc1p638y4utamzkeuar95chc98ny9dtxs7w4es8j0c5vnspu6rrnhfwst0wcaj",
      "value": 600
    },
    {
      "scriptpubkey": "5120d44e4af17dd8ad9e7465a62f829e642b566879d5cc0f27e28c9c03cd0c73ba5d",
      "scriptpubkey_asm": "OP_PUSHNUM_1 OP_PUSHBYTES_32 d44e4af17dd8ad9e7465a62f829e642b566879d5cc0f27e28c9c03cd0c73ba5d",
      "scriptpubkey_type": "v1_p2tr",
      "scriptpubkey_address": "bc1p638y4utamzkeuar95chc98ny9dtxs7w4es8j0c5vnspu6rrnhfwst0wcaj",
      "value": 600
    },
    {
      "scriptpubkey": "5120d44e4af17dd8ad9e7465a62f829e642b566879d5cc0f27e28c9c03cd0c73ba5d",
      "scriptpubkey_asm": "OP_PUSHNUM_1 OP_PUSHBYTES_32 d44e4af17dd8ad9e7465a62f829e642b566879d5cc0f27e28c9c03cd0c73ba5d",
      "scriptpubkey_type": "v1_p2tr",
      "scriptpubkey_address": "bc1p638y4utamzkeuar95chc98ny9dtxs7w4es8j0c5vnspu6rrnhfwst0wcaj",
      "value": 600
    },
    {
      "scriptpubkey": "5120d44e4af17dd8ad9e7465a62f829e642b566879d5cc0f27e28c9c03cd0c73ba5d",
      "scriptpubkey_asm": "OP_PUSHNUM_1 OP_PUSHBYTES_32 d44e4af17dd8ad9e7465a62f829e642b566879d5cc0f27e28c9c03cd0c73ba5d",
      "scriptpubkey_type": "v1_p2tr",
      "scriptpubkey_address": "bc1p638y4utamzkeuar95chc98ny9dtxs7w4es8j0c5vnspu6rrnhfwst0wcaj",
      "value": 600
    },
    {
      "scriptpubkey": "5120d44e4af17dd8ad9e7465a62f829e642b566879d5cc0f27e28c9c03cd0c73ba5d",
      "scriptpubkey_asm": "OP_PUSHNUM_1 OP_PUSHBYTES_32 d44e4af17dd8ad9e7465a62f829e642b566879d5cc0f27e28c9c03cd0c73ba5d",
      "scriptpubkey_type": "v1_p2tr",
      "scriptpubkey_address": "bc1p638y4utamzkeuar95chc98ny9dtxs7w4es8j0c5vnspu6rrnhfwst0wcaj",
      "value": 600
    },
    {
      "scriptpubkey": "5120d44e4af17dd8ad9e7465a62f829e642b566879d5cc0f27e28c9c03cd0c73ba5d",
      "scriptpubkey_asm": "OP_PUSHNUM_1 OP_PUSHBYTES_32 d44e4af17dd8ad9e7465a62f829e642b566879d5cc0f27e28c9c03cd0c73ba5d",
      "scriptpubkey_type": "v1_p2tr",
      "scriptpubkey_address": "bc1p638y4utamzkeuar95chc98ny9dtxs7w4es8j0c5vnspu6rrnhfwst0wcaj",
      "value": 600
    },
    {
      "scriptpubkey": "5120d44e4af17dd8ad9e7465a62f829e642b566879d5cc0f27e28c9c03cd0c73ba5d",
      "scriptpubkey_asm": "OP_PUSHNUM_1 OP_PUSHBYTES_32 d44e4af17dd8ad9e7465a62f829e642b566879d5cc0f27e28c9c03cd0c73ba5d",
      "scriptpubkey_type": "v1_p2tr",
      "scriptpubkey_address": "bc1p638y4utamzkeuar95chc98ny9dtxs7w4es8j0c5vnspu6rrnhfwst0wcaj",
      "value": 600
    },
    {
      "scriptpubkey": "5120d44e4af17dd8ad9e7465a62f829e642b566879d5cc0f27e28c9c03cd0c73ba5d",
      "scriptpubkey_asm": "OP_PUSHNUM_1 OP_PUSHBYTES_32 d44e4af17dd8ad9e7465a62f829e642b566879d5cc0f27e28c9c03cd0c73ba5d",
      "scriptpubkey_type": "v1_p2tr",
      "scriptpubkey_address": "bc1p638y4utamzkeuar95chc98ny9dtxs7w4es8j0c5vnspu6rrnhfwst0wcaj",
      "value": 600
    },
    {
      "scriptpubkey": "5120d44e4af17dd8ad9e7465a62f829e642b566879d5cc0f27e28c9c03cd0c73ba5d",
      "scriptpubkey_asm": "OP_PUSHNUM_1 OP_PUSHBYTES_32 d44e4af17dd8ad9e7465a62f829e642b566879d5cc0f27e28c9c03cd0c73ba5d",
      "scriptpubkey_type": "v1_p2tr",
      "scriptpubkey_address": "bc1p638y4utamzkeuar95chc98ny9dtxs7w4es8j0c5vnspu6rrnhfwst0wcaj",
      "value": 600
    },
    {
      "scriptpubkey": "5120d44e4af17dd8ad9e7465a62f829e642b566879d5cc0f27e28c9c03cd0c73ba5d",
      "scriptpubkey_asm": "OP_PUSHNUM_1 OP_PUSHBYTES_32 d44e4af17dd8ad9e7465a62f829e642b566879d5cc0f27e28c9c03cd0c73ba5d",
      "scriptpubkey_type": "v1_p2tr",
      "scriptpubkey_address": "bc1p638y4utamzkeuar95chc98ny9dtxs7w4es8j0c5vnspu6rrnhfwst0wcaj",
      "value": 222088
    }
  ],
  "size": 592,
  "weight": 2164,
  "fee": 9756,
  "status": {
    "confirmed": true,
    "block_height": 834638,
    "block_hash": "000000000000000000025f742c626208ac87e0b7d15054abb4a19ca2d735a54e",
    "block_time": 1710405325
  },
  "hex": "0200000000010112fdd563688db369cee65865cbc0fbb06a80921cf9057bb9a381ac816ff49f980100000000ffffffff0b5802000000000000225120d44e4af17dd8ad9e7465a62f829e642b566879d5cc0f27e28c9c03cd0c73ba5d5802000000000000225120d44e4af17dd8ad9e7465a62f829e642b566879d5cc0f27e28c9c03cd0c73ba5d5802000000000000225120d44e4af17dd8ad9e7465a62f829e642b566879d5cc0f27e28c9c03cd0c73ba5d5802000000000000225120d44e4af17dd8ad9e7465a62f829e642b566879d5cc0f27e28c9c03cd0c73ba5d5802000000000000225120d44e4af17dd8ad9e7465a62f829e642b566879d5cc0f27e28c9c03cd0c73ba5d5802000000000000225120d44e4af17dd8ad9e7465a62f829e642b566879d5cc0f27e28c9c03cd0c73ba5d5802000000000000225120d44e4af17dd8ad9e7465a62f829e642b566879d5cc0f27e28c9c03cd0c73ba5d5802000000000000225120d44e4af17dd8ad9e7465a62f829e642b566879d5cc0f27e28c9c03cd0c73ba5d5802000000000000225120d44e4af17dd8ad9e7465a62f829e642b566879d5cc0f27e28c9c03cd0c73ba5d5802000000000000225120d44e4af17dd8ad9e7465a62f829e642b566879d5cc0f27e28c9c03cd0c73ba5d8863030000000000225120d44e4af17dd8ad9e7465a62f829e642b566879d5cc0f27e28c9c03cd0c73ba5d0140ea974dd2cb455d7ffd0f9e050c96289c46ebe2c231176396e45d7f508e32d6d90347758436eec864c5934aef6f93ca43e01bde84d9476165dbf9f66fde4367fb00000000"
}