{
  "txid": "35323733a4dcdf7689937f828cd8114150e172f3dd0f6a494e039ddceda36228",
  "version": 2,
  "locktime": 0,
  "vin": [
    {
      "txid": "a3e91af1d365ce1418dd4d2411193e47e206256094b81615bbefaef21ed000f2",
      "vout": 40,
      "prevout": {
        "scriptpubkey": "0014aaa5758bd7ad76c194e85991e0063c28a7a4a344",
        "scriptpubkey_asm": "OP_0 OP_PUSHBYTES_20 aaa5758bd7ad76c194e85991e0063c28a7a4a344",
        "scriptpubkey_type": "v0_p2wpkh",
        "scriptpubkey_address": "bc1q42jhtz7h44mvr98gtxg7qp3u9zn6fg6yjkfj34",
        "value": 25639502
      },
      "scriptsig": "",
      "scriptsig_asm": "",
      "witness": [
        "3045022100e37a0a0d99df68148a2bed272467a00346a4e1603fe8281e5561d31c2ce85c44022069f2f51176adc3b1160cbd7332c2bfcf7146ca6d6515b43d4165cd828e46afe101",
        "021b06ee9d8d0e89cf9e6f8dfa7c26f41877b9e4f8eef7e2c69db261187547f52b"
      ],
      "is_coinbase": false,
      "sequence": 0
    }
  ],
  "vout": [
    {
      "scriptpubkey": "76a9142e79b32e1b15b3dc272993ad9cbbe8f5e722401788ac",
      "scriptpubkey_asm": "OP_DUP OP_HASH160 OP_PUSHBYTES_20 2e79b32e1b15b3dc272993ad9cbbe8f5e7224017 OP_EQUALVERIFY OP_CHECKSIG",
      "scriptpubkey_type": "p2pkh",
      "scriptpubkey_address": "15EjsgckEy72Waa5QZWNS7KgRz2bS5fuBc",
      "value": 20000000
    },
    {
      "scriptpubkey": "00145105eb0383f2ddb85e68bd0721adad227e188fb7",
      "scriptpubkey_asm": "OP_0 OP_PUSHBYTES_20 5105eb0383f2ddb85e68bd0721adad227e188fb7",
      "scriptpubkey_type": "v0_p2wpkh",
      "scriptpubkey_address": "bc1q2yz7kqur7twmshngh5rjrtddyflp3rahwjh26r",
      "value": 5635573
    }
  ],
  "size": 226,
  "weight": 574,
  "fee": 3929,
  "status": {
    "confirmed": true,
    "block_height": 834552,
    "block_hash": "00000000000000000001dd0468a70c94f619251d286585cff57aeb4bd9ede330",
    "block_time": 1710355598
  },
  "hex": "02000000000101f200d01ef2aeefbb1516b894602506e2473e1911244ddd1814ce65d3f11ae9a328000000000000000002002d3101000000001976a9142e79b32e1b15b3dc272993ad9cbbe8f5e722401788acf5fd5500000000001600145105eb0383f2ddb85e68bd0721adad227e188fb702483045022100e37a0a0d99df68148a2bed272467a00346a4e1603fe8281e5561d31c2ce85c44022069f2f51176adc3b1160cbd7332c2bfcf7146ca6d6515b43d4165cd828e46afe10121021b06ee9d8d0e89cf9e6f8dfa7c26f41877b9e4f8eef7e2c69db261187547f52b00000000"
}