{
  "txid": "354432c6a726ef3697f5df89bd938ec4902f6854e0aaaf5a7e030a1c1f8a9a96",
  "version": 1,
  "locktime": 0,
  "vin": [
    {
      "txid": "6e0fad0f55fdb698161cd53cc265bb71b86156a319fac91dfd7c8389bf8a671f",
      "vout": 0,
      "prevout": {
        "scriptpubkey": "0014e5d8d1209a4fbc28c95f2b8c53d37bad45d63677",
        "scriptpubkey_asm": "OP_0 OP_PUSHBYTES_20 e5d8d1209a4fbc28c95f2b8c53d37bad45d63677",
        "scriptpubkey_type": "v0_p2wpkh",
        "scriptpubkey_address": "bc1quhvdzgy6f77z3j2l9wx985mm44zavdnhdj3e85",
        "value": 1271608
      },
      "scriptsig": "",
      "scriptsig_asm": "",
      "witness": [
        "3045022100b778ede58b4e30f284292d4a51c6c5c87b7ee7c0f6de7f542726892e607006700220762a6f586f1790e5cb9c4eb8b21473d6c2c2226e152846c1ad3f938810cb634e01",
        "035dedbc489c0270750e04c2f8dfd0790837cf5945e77a596c863033fdc9e924c4"
      ],
      "is_coinbase": false,
      "sequence": 4294967295
    }
  ],
  "vout": [
    {
      "scriptpubkey": "76a9142e6f44b8487d5230106455fcf0b9a9caa1ee57aa88ac",
      "scriptpubkey_asm": "OP_DUP OP_HASH160 OP_PUSHBYTES_20 2e6f44b8487d5230106455fcf0b9a9caa1ee57aa OP_EQUALVERIFY OP_CHECKSIG",
      "scriptpubkey_type": "p2pkh",
      "scriptpubkey_address": "15EXNtfRbCZjCBJJbuk9Dz2DUdN4cvhcLc",
      "value": 1269078
    }
  ],
  "size": 195,
  "weight": 450,
  "fee": 2530,
  "status": {
    "confirmed": true,
    "block_height": 834638,
    "block_hash": "000000000000000000025f742c626208ac87e0b7d15054abb4a19ca2d735a54e",
    "block_time": 1710405325
  },
  "hex": "010000000001011f678abf89837cfd1dc9fa19a35661b871bb65c23cd51c1698b6fd550fad0f6e0000000000ffffffff01565d1300000000001976a9142e6f44b8487d5230106455fcf0b9a9caa1ee57aa88ac02483045022100b778ede58b4e30f284292d4a51c6c5c87b7ee7c0f6de7f542726892e607006700220762a6f586f1790e5cb9c4eb8b21473d6c2c2226e152846c1ad3f938810cb634e0121035dedbc489c0270750e04c2f8dfd0790837cf5945e77a596c863033fdc9e924c400000000"
}