{
  "txid": "3545c289b1ab28a76dec6784d1d0606e075c5163cafbe74782cfa4eaf327a169",
  "version": 2,
  "locktime": 0,
  "vin": [
    {
      "txid": "acc3ba00869acb582a3f2904ce3a11dd3779350ce234063fc7d0959246213364",
      "vout": 56,
      "prevout": {
        "scriptpubkey": "5120672616c81960ec8731cc2bb3ce3c2799cf0909512be2f2bd1761944c83bd7612",
        "scriptpubkey_asm": "OP_PUSHNUM_1 OP_PUSHBYTES_32 672616c81960ec8731cc2bb3ce3c2799cf0909512be2f2bd1761944c83bd7612",
        "scriptpubkey_type": "v1_p2tr",
        "scriptpubkey_address": "bc1pvunpdjqevrkgwvwv9weuu0p8n88sjz23903090ghvx2yeqaawcfqjmx398",
        "value": 1806
      },
      "scriptsig": "",
      "scriptsig_asm": "",
      "witness": [
        "0a5184ec1efb708713e0f4e7b5a604e30678a6fb7025964d68fa94807203b9f1216abc61098fb6628a324cf9baac3e812805c4bee359291f08522f0568f20114",
        "202710661ddde336f1f9946388cf9ba873c611aeeb1dc014abad3bceb016c386a8ac0063036f726401010a746578742f706c61696e00357b2270223a226272632d3230222c226f70223a226d696e74222c227469636b223a22646f6765222c22616d74223a2234323030227d68",
        "c12710661ddde336f1f9946388cf9ba873c611aeeb1dc014abad3bceb016c386a8"
      ],
      "is_coinbase": false,
      "sequence": 4261412863
    }
  ],
  "vout": [
    {
      "scriptpubkey": "00147a665de7a370f4c9b372ab1fae587500a5bcbdb4",
      "scriptpubkey_asm": "OP_0 OP_PUSHBYTES_20 7a665de7a370f4c9b372ab1fae587500a5bcbdb4",
      "scriptpubkey_type": "v0_p2wpkh",
      "scriptpubkey_address": "bc1q0fn9mearwr6vnvmj4v06ukr4qzjme0d565dzcx",
      "value": 294
    }
  ],
  "size": 294,
  "weight": 540,
  "fee": 1512,
  "status": {
    "confirmed": true,
    "block_height": 834460,
    "block_hash": "00000000000000000000484a79b643b2524bbce82e5d8a442013fa5b8905ed98",
    "block_time": 1710307468
  },
  "hex": "02000000000101643321469295d0c73f0634e20c357937dd113ace04293f2a58cb9a8600bac3ac3800000000fffffffd0126010000000000001600147a665de7a370f4c9b372ab1fae587500a5bcbdb403400a5184ec1efb708713e0f4e7b5a604e30678a6fb7025964d68fa94807203b9f1216abc61098fb6628a324cf9baac3e812805c4bee359291f08522f0568f201146d202710661ddde336f1f9946388cf9ba873c611aeeb1dc014abad3bceb016c386a8ac0063036f726401010a746578742f706c61696e00357b2270223a226272632d3230222c226f70223a226d696e74222c227469636b223a22646f6765222c22616d74223a2234323030227d6821c12710661ddde336f1f9946388cf9ba873c611aeeb1dc014abad3bceb016c386a800000000"
}