{
  "txid": "354c14cc62356e0b9b4102e8cc0f746060c8d10bf6cb3880e07b575eba9fbeb1",
  "version": 2,
  "locktime": 0,
  "vin": [
    {
      "txid": "87c78c99aa2b21e977edc1d753610bc2b7857dd69ec27692a480d32f13997136",
      "vout": 1,
      "prevout": {
        "scriptpubkey": "00145fee28bdc9792eaba5fa154401bace06e83d45dd",
        "scriptpubkey_asm": "OP_0 OP_PUSHBYTES_20 5fee28bdc9792eaba5fa154401bace06e83d45dd",
        "scriptpubkey_type": "v0_p2wpkh",
        "scriptpubkey_address": "bc1qtlhz30wf0yh2hf06z4zqrwkwqm5r63wax5dfku",
        "value": 32356
      },
      "scriptsig": "",
      "scriptsig_asm": "",
      "witness": [
        "30440220501d0549759a0c6f87bc64c9155b3a33903faae3ed836d08e5e84163d3d5a7bd02205bb54726aacf83113935c455a45adc196f84f7042acfa1bc1371eb19156c765001",
        "030ccf743214e0cac471bbb7d424bd6e3db6f79cafd03127706df65a06cf2bcf76"
      ],
      "is_coinbase": false,
      "sequence": 4294967295
    }
  ],
  "vout": [
    {
      "scriptpubkey": "6a2ae55389d85e68675fe0e5d09fc3bfd2475f1a2bcfd25b3cbd9e268069d58ec7a2fc4835bec21bbadf8a8c",
      "scriptpubkey_asm": "OP_RETURN OP_PUSHBYTES_42 e55389d85e68675fe0e5d09fc3bfd2475f1a2bcfd25b3cbd9e268069d58ec7a2fc4835bec21bbadf8a8c",
      "scriptpubkey_type": "op_return",
      "value": 0
    },
    {
      "scriptpubkey": "00145fee28bdc9792eaba5fa154401bace06e83d45dd",
      "scriptpubkey_asm": "OP_0 OP_PUSHBYTES_20 5fee28bdc9792eaba5fa154401bace06e83d45dd",
      "scriptpubkey_type": "v0_p2wpkh",
      "scriptpubkey_address": "bc1qtlhz30wf0yh2hf06z4zqrwkwqm5r63wax5dfku",
      "value": 30845
    }
  ],
  "size": 244,
  "weight": 649,
  "fee": 1511,
  "status": {
    "confirmed": true,
    "block_height": 834464,
    "block_hash": "0000000000000000000177a0869a911a2b65c9bdcd5a8bcb02b68f305bee848e",
    "block_time": 1710308296
  },
  "hex": "02000000000101367199132fd380a49276c29ed67d85b7c20b6153d7c1ed77e9212baa998cc7870100000000ffffffff0200000000000000002c6a2ae55389d85e68675fe0e5d09fc3bfd2475f1a2bcfd25b3cbd9e268069d58ec7a2fc4835bec21bbadf8a8c7d780000000000001600145fee28bdc9792eaba5fa154401bace06e83d45dd024730440220501d0549759a0c6f87bc64c9155b3a33903faae3ed836d08e5e84163d3d5a7bd02205bb54726aacf83113935c455a45adc196f84f7042acfa1bc1371eb19156c76500121030ccf743214e0cac471bbb7d424bd6e3db6f79cafd03127706df65a06cf2bcf7600000000"
}