{
  "txid": "354e5019378c4e7d96cd82ad379398911d92650d69e13ca7982dd821a1c5655e",
  "version": 2,
  "locktime": 0,
  "vin": [
    {
      "txid": "63ae3f28afd5d0a929109d69e6dd14c64a5f88e60465d97a08caa06060e15e8f",
      "vout": 31,
      "prevout": {
        "scriptpubkey": "51206fe93fe40c46b698a4286762845854cd69898c48c8e71c337a9c4db765d77444",
        "scriptpubkey_asm": "OP_PUSHNUM_1 OP_PUSHBYTES_32 6fe93fe40c46b698a4286762845854cd69898c48c8e71c337a9c4db765d77444",
        "scriptpubkey_type": "v1_p2tr",
        "scriptpubkey_address": "bc1pdl5nleqvg6mf3fpgva3ggkz5e45cnrzgern3cvm6n3xmwewhw3zq86qgak",
        "value": 3042
      },
      "scriptsig": "",
      "scriptsig_asm": "",
      "witness": [
        "a5d8b68f1d841b32bbd6354f515f9af1ff9788b6dea15102ec9b15bbe3749ee3bc1f79bdf237c6ef243c9b5b0ada59b9efb9833fb577d7ad98aec69cf83d8c2b",
        "201727886de4bfebd62f658da546785d560fc15fb21458c4d3377b7314a3477f4cac0063036f726401011e6170706c69636174696f6e2f6a736f6e3b636861727365743d7574662d38004cd27b2270223a22706f772d3230222c226f70223a226d696e74222c227469636b223a2250455045222c22616d74223a2231303030222c22736f6c7574696f6e223a22504550453a626331706a39356d676c663836377961396a32756368377a34647836793635746736373330676e7661796b706b6c77793335757667376a73773033676d713a303030303030303030303030303030303030303139393431613561653132383937363539383134343239323533333030353762306461393666336465613163353a38313431303630393334227d68",
        "c0ffe2b6185dd514800047a24f9c3d628916daef0b23d9f98ab4cda2a0457a18d1"
      ],
      "is_coinbase": false,
      "sequence": 4294967295
    }
  ],
  "vout": [
    {
      "scriptpubkey": "51209169b47d27d789d2c95cc5fc2ab4da26a8b46bd17a26ce92c1b7dc48d38c47a5",
      "scriptpubkey_asm": "OP_PUSHNUM_1 OP_PUSHBYTES_32 9169b47d27d789d2c95cc5fc2ab4da26a8b46bd17a26ce92c1b7dc48d38c47a5",
      "scriptpubkey_type": "v1_p2tr",
      "scriptpubkey_address": "bc1pj95mglf867ya9j2uch7z4dx6y65tg6730gnvaykpklwy35uvg7jsw03gmq",
      "value": 546
    }
  ],
  "size": 486,
  "weight": 768,
  "fee": 2496,
  "status": {
    "confirmed": true,
    "block_height": 834460,
    "block_hash": "00000000000000000000484a79b643b2524bbce82e5d8a442013fa5b8905ed98",
    "block_time": 1710307468
  },
  "hex": "020000000001018f5ee16060a0ca087ad96504e6885f4ac614dde6699d1029a9d0d5af283fae631f00000000ffffffff0122020000000000002251209169b47d27d789d2c95cc5fc2ab4da26a8b46bd17a26ce92c1b7dc48d38c47a50340a5d8b68f1d841b32bbd6354f515f9af1ff9788b6dea15102ec9b15bbe3749ee3bc1f79bdf237c6ef243c9b5b0ada59b9efb9833fb577d7ad98aec69cf83d8c2bfd1f01201727886de4bfebd62f658da546785d560fc15fb21458c4d3377b7314a3477f4cac0063036f726401011e6170706c69636174696f6e2f6a736f6e3b636861727365743d7574662d38004cd27b2270223a22706f772d3230222c226f70223a226d696e74222c227469636b223a2250455045222c22616d74223a2231303030222c22736f6c7574696f6e223a22504550453a626331706a39356d676c663836377961396a32756368377a34647836793635746736373330676e7661796b706b6c77793335757667376a73773033676d713a303030303030303030303030303030303030303139393431613561653132383937363539383134343239323533333030353762306461393666336465613163353a38313431303630393334227d6821c0ffe2b6185dd514800047a24f9c3d628916daef0b23d9f98ab4cda2a0457a18d100000000"
}