{
  "txid": "3553913143ef96c9c0db1e05c9f96f02fc12706d9f2a07c2c7d44a574f972482",
  "version": 2,
  "locktime": 0,
  "vin": [
    {
      "txid": "e52232f30b4d6410dae9c0e882afbd00fe027407dc4b480afc44ea5a7c91ad99",
      "vout": 1,
      "prevout": {
        "scriptpubkey": "5120242cb667ab7293b14a786a90af4dbcaa6ba21ed57e843369217d23771fa64b86",
        "scriptpubkey_asm": "OP_PUSHNUM_1 OP_PUSHBYTES_32 242cb667ab7293b14a786a90af4dbcaa6ba21ed57e843369217d23771fa64b86",
        "scriptpubkey_type": "v1_p2tr",
        "scriptpubkey_address": "bc1pysktveatw2fmzjncd2g27ndu4f46y8k406zrx6fp053hw8axfwrqmh9lv8",
        "value": 80615
      },
      "scriptsig": "",
      "scriptsig_asm": "",
      "witness": [
        "cd76824bc967a8bba8c9c59ef6a35ebf9437ad53b1c3503c6bef684fbb655261be4b0531761af7945b17cc4c999090465ad16d1a557833c4c167533d9df3845f"
      ],
      "is_coinbase": false,
      "sequence": 2147483649
    }
  ],
  "vout": [
    {
      "scriptpubkey": "5120c0813770edf723c473c3441c628df4aafbfd18b0a4bc1858d92dc1adc7e3526c",
      "scriptpubkey_asm": "OP_PUSHNUM_1 OP_PUSHBYTES_32 c0813770edf723c473c3441c628df4aafbfd18b0a4bc1858d92dc1adc7e3526c",
      "scriptpubkey_type": "v1_p2tr",
      "scriptpubkey_address": "bc1pczqnwu8d7u3ugu7rgswx9r054tal6x9s5j7pskxe9hq6m3lr2fkqpsuxgl",
      "value": 69378
    },
    {
      "scriptpubkey": "5120242cb667ab7293b14a786a90af4dbcaa6ba21ed57e843369217d23771fa64b86",
      "scriptpubkey_asm": "OP_PUSHNUM_1 OP_PUSHBYTES_32 242cb667ab7293b14a786a90af4dbcaa6ba21ed57e843369217d23771fa64b86",
      "scriptpubkey_type": "v1_p2tr",
      "scriptpubkey_address": "bc1pysktveatw2fmzjncd2g27ndu4f46y8k406zrx6fp053hw8axfwrqmh9lv8",
      "value": 8003
    }
  ],
  "size": 205,
  "weight": 616,
  "fee": 3234,
  "status": {
    "confirmed": true,
    "block_height": 834460,
    "block_hash": "00000000000000000000484a79b643b2524bbce82e5d8a442013fa5b8905ed98",
    "block_time": 1710307468
  },
  "hex": "0200000000010199ad917c5aea44fc0a484bdc077402fe00bdaf82e8c0e9da10644d0bf33222e501000000000100008002020f010000000000225120c0813770edf723c473c3441c628df4aafbfd18b0a4bc1858d92dc1adc7e3526c431f000000000000225120242cb667ab7293b14a786a90af4dbcaa6ba21ed57e843369217d23771fa64b860140cd76824bc967a8bba8c9c59ef6a35ebf9437ad53b1c3503c6bef684fbb655261be4b0531761af7945b17cc4c999090465ad16d1a557833c4c167533d9df3845f00000000"
}