{
  "txid": "35537c9b0967b6bb87d77e2201b1d4dd1fc2c19b9028552f1480dd5384a9536e",
  "version": 2,
  "locktime": 0,
  "vin": [
    {
      "txid": "acc3ba00869acb582a3f2904ce3a11dd3779350ce234063fc7d0959246213364",
      "vout": 105,
      "prevout": {
        "scriptpubkey": "5120babcace2361771b8bbcb4b766a483b14cc1d596bc466e7a44f199e0055730e36",
        "scriptpubkey_asm": "OP_PUSHNUM_1 OP_PUSHBYTES_32 babcace2361771b8bbcb4b766a483b14cc1d596bc466e7a44f199e0055730e36",
        "scriptpubkey_type": "v1_p2tr",
        "scriptpubkey_address": "bc1ph272ec3kzacm3w7tfdmx5jpmznxp6kttc3nw0fz0rx0qq4tnpcmqqm7plt",
        "value": 1806
      },
      "scriptsig": "",
      "scriptsig_asm": "",
      "witness": [
        "3caa1dc82ed60d398f1ab23666b46c2ca2d3c7526bf9f30de116bd91b97b2f3a9ec2d3de7a109ed0c7869be581b287b8ed30e0cf9e045edde265cdf8c20f14ab",
        "209d293b98e329f98c6e8a85de2f42cbfcdc7656153d8effdd65b68a0b0f1f63ccac0063036f726401010a746578742f706c61696e00357b2270223a226272632d3230222c226f70223a226d696e74222c227469636b223a22646f6765222c22616d74223a2234323030227d68",
        "c09d293b98e329f98c6e8a85de2f42cbfcdc7656153d8effdd65b68a0b0f1f63cc"
      ],
      "is_coinbase": false,
      "sequence": 4261412863
    }
  ],
  "vout": [
    {
      "scriptpubkey": "00147a665de7a370f4c9b372ab1fae587500a5bcbdb4",
      "scriptpubkey_asm": "OP_0 OP_PUSHBYTES_20 7a665de7a370f4c9b372ab1fae587500a5bcbdb4",
      "scriptpubkey_type": "v0_p2wpkh",
      "scriptpubkey_address": "bc1q0fn9mearwr6vnvmj4v06ukr4qzjme0d565dzcx",
      "value": 294
    }
  ],
  "size": 294,
  "weight": 540,
  "fee": 1512,
  "status": {
    "confirmed": true,
    "block_height": 834460,
    "block_hash": "00000000000000000000484a79b643b2524bbce82e5d8a442013fa5b8905ed98",
    "block_time": 1710307468
  },
  "hex": "02000000000101643321469295d0c73f0634e20c357937dd113ace04293f2a58cb9a8600bac3ac6900000000fffffffd0126010000000000001600147a665de7a370f4c9b372ab1fae587500a5bcbdb403403caa1dc82ed60d398f1ab23666b46c2ca2d3c7526bf9f30de116bd91b97b2f3a9ec2d3de7a109ed0c7869be581b287b8ed30e0cf9e045edde265cdf8c20f14ab6d209d293b98e329f98c6e8a85de2f42cbfcdc7656153d8effdd65b68a0b0f1f63ccac0063036f726401010a746578742f706c61696e00357b2270223a226272632d3230222c226f70223a226d696e74222c227469636b223a22646f6765222c22616d74223a2234323030227d6821c09d293b98e329f98c6e8a85de2f42cbfcdc7656153d8effdd65b68a0b0f1f63cc00000000"
}