{
  "txid": "35600d15fb97f1b630ca7b5edd18169949458ff4d2b7b5eb092e6fcb0ee5833f",
  "version": 2,
  "locktime": 834637,
  "vin": [
    {
      "txid": "c7094fac1a015ed0b1cae124b4c3e83dc43b5ee85445cb26be5f4f4311279894",
      "vout": 0,
      "prevout": {
        "scriptpubkey": "0014c4f68f78ce20eff641520e54cd19c39bc7274461",
        "scriptpubkey_asm": "OP_0 OP_PUSHBYTES_20 c4f68f78ce20eff641520e54cd19c39bc7274461",
        "scriptpubkey_type": "v0_p2wpkh",
        "scriptpubkey_address": "bc1qcnmg77xwyrhlvs2jpe2v6xwrn0rjw3rp2vky4z",
        "value": 9053390
      },
      "scriptsig": "",
      "scriptsig_asm": "",
      "witness": [
        "304402201f364e4f98ba7a9eccf42b0eac53402c529e93df327f21382b09be6f0b7d6834022037251f74f2268dad8c2734d894568622b9e0caa67a74d87c877b09d1b661b81801",
        "02efb68df58a4160850d402eb6a7d8a9e5bc6ce312f85d025af3d6810d350b1080"
      ],
      "is_coinbase": false,
      "sequence": 4294967293
    }
  ],
  "vout": [
    {
      "scriptpubkey": "a914822eb7f9bc0740b47e300dbb7f01699e6c05a2b287",
      "scriptpubkey_asm": "OP_HASH160 OP_PUSHBYTES_20 822eb7f9bc0740b47e300dbb7f01699e6c05a2b2 OP_EQUAL",
      "scriptpubkey_type": "p2sh",
      "scriptpubkey_address": "3DZMjYttMxK5UpD9R9pverX9ppuhbuHGm7",
      "value": 3241263
    },
    {
      "scriptpubkey": "a9141d2c2e218194a27bcafad0bb256c0fd72e87e5cf87",
      "scriptpubkey_asm": "OP_HASH160 OP_PUSHBYTES_20 1d2c2e218194a27bcafad0bb256c0fd72e87e5cf OP_EQUAL",
      "scriptpubkey_type": "p2sh",
      "scriptpubkey_address": "34MGSoQMLEypAhDU2bfBiQYeLt8RxdrW1A",
      "value": 5807980
    }
  ],
  "size": 224,
  "weight": 569,
  "fee": 4147,
  "status": {
    "confirmed": true,
    "block_height": 834638,
    "block_hash": "000000000000000000025f742c626208ac87e0b7d15054abb4a19ca2d735a54e",
    "block_time": 1710405325
  },
  "hex": "0200000000010194982711434f5fbe26cb4554e85e3bc43de8c3b424e1cab1d05e011aac4f09c70000000000fdffffff022f7531000000000017a914822eb7f9bc0740b47e300dbb7f01699e6c05a2b2876c9f58000000000017a9141d2c2e218194a27bcafad0bb256c0fd72e87e5cf870247304402201f364e4f98ba7a9eccf42b0eac53402c529e93df327f21382b09be6f0b7d6834022037251f74f2268dad8c2734d894568622b9e0caa67a74d87c877b09d1b661b818012102efb68df58a4160850d402eb6a7d8a9e5bc6ce312f85d025af3d6810d350b10804dbc0c00"
}