{
  "txid": "356e79b2aa8bc3449492dca3e3767d52abe4493c93fa378740de2ec43ea077e2",
  "version": 2,
  "locktime": 0,
  "vin": [
    {
      "txid": "d17914564bda89cf7c931df0be1ff8f19ca642a29b6b4dccd342decb91622c7d",
      "vout": 0,
      "prevout": {
        "scriptpubkey": "0014887aa93e7b294e51a06a76d974fa7c1fd5f6c433",
        "scriptpubkey_asm": "OP_0 OP_PUSHBYTES_20 887aa93e7b294e51a06a76d974fa7c1fd5f6c433",
        "scriptpubkey_type": "v0_p2wpkh",
        "scriptpubkey_address": "bc1q3pa2j0nm9989rgr2wmvhf7nurl2ld3pnccq99t",
        "value": 1382029
      },
      "scriptsig": "",
      "scriptsig_asm": "",
      "witness": [
        "3044022014cad947d1f8be5d1b2da11b02f1ddf4382d3df4bba45e91a8f8a7dca6deb1ee02204c420e6cf5a684e149afef0e761a447c79cfa01d171e98e10bb9af989aff98b001",
        "03bdb4408dd82288d24ddd751d91b39fd21ffaefff2d4eab1b5ca9394ee224636a"
      ],
      "is_coinbase": false,
      "sequence": 4294967295
    }
  ],
  "vout": [
    {
      "scriptpubkey": "001435caeb1b4ca6f5d2db1bb805ebe6e6afd9c5fb21",
      "scriptpubkey_asm": "OP_0 OP_PUSHBYTES_20 35caeb1b4ca6f5d2db1bb805ebe6e6afd9c5fb21",
      "scriptpubkey_type": "v0_p2wpkh",
      "scriptpubkey_address": "bc1qxh9wkx6v5m6a9kcmhqz7hehx4lvut7epa8dw8x",
      "value": 214922
    },
    {
      "scriptpubkey": "0014887aa93e7b294e51a06a76d974fa7c1fd5f6c433",
      "scriptpubkey_asm": "OP_0 OP_PUSHBYTES_20 887aa93e7b294e51a06a76d974fa7c1fd5f6c433",
      "scriptpubkey_type": "v0_p2wpkh",
      "scriptpubkey_address": "bc1q3pa2j0nm9989rgr2wmvhf7nurl2ld3pnccq99t",
      "value": 1163733
    }
  ],
  "size": 222,
  "weight": 561,
  "fee": 3374,
  "status": {
    "confirmed": true,
    "block_height": 834460,
    "block_hash": "00000000000000000000484a79b643b2524bbce82e5d8a442013fa5b8905ed98",
    "block_time": 1710307468
  },
  "hex": "020000000001017d2c6291cbde42d3cc4d6b9ba242a69cf1f81fbef01d937ccf89da4b561479d10000000000ffffffff028a4703000000000016001435caeb1b4ca6f5d2db1bb805ebe6e6afd9c5fb21d5c1110000000000160014887aa93e7b294e51a06a76d974fa7c1fd5f6c43302473044022014cad947d1f8be5d1b2da11b02f1ddf4382d3df4bba45e91a8f8a7dca6deb1ee02204c420e6cf5a684e149afef0e761a447c79cfa01d171e98e10bb9af989aff98b0012103bdb4408dd82288d24ddd751d91b39fd21ffaefff2d4eab1b5ca9394ee224636a00000000"
}