{
  "txid": "357225d6fc5a5a8aad8916d35c58c05b4c00af05e3f5e9069a6905ca7f820d65",
  "version": 2,
  "locktime": 0,
  "vin": [
    {
      "txid": "870bb673830203dfc96568890a53a0e0d365f9706318f3cc4f9946dc4b1c551d",
      "vout": 1,
      "prevout": {
        "scriptpubkey": "5120c0e2ac483e27d0b0e6362b70274fd557b8cfc3c9f29a00e5b6bfaec5707b6cb7",
        "scriptpubkey_asm": "OP_PUSHNUM_1 OP_PUSHBYTES_32 c0e2ac483e27d0b0e6362b70274fd557b8cfc3c9f29a00e5b6bfaec5707b6cb7",
        "scriptpubkey_type": "v1_p2tr",
        "scriptpubkey_address": "bc1pcr32cjp7ylgtpe3k9dczwn7427uvls7f72dqpedkh7hv2urmdjmshv56en",
        "value": 130412
      },
      "scriptsig": "",
      "scriptsig_asm": "",
      "witness": [
        "49a5679f388fc0a3badbcfcc3f60825bf5680100a4a0175cfe28210340c46ea7af04760a5600531736fce3b06dc2e50152336b1df44721ad1f43287b34c9dbe1"
      ],
      "is_coinbase": false,
      "sequence": 4294967293
    }
  ],
  "vout": [
    {
      "scriptpubkey": "51204d9d0279e38c7118a52bbfd9a012fc48555fb1422f2a9e13dd8056f9abedcc09",
      "scriptpubkey_asm": "OP_PUSHNUM_1 OP_PUSHBYTES_32 4d9d0279e38c7118a52bbfd9a012fc48555fb1422f2a9e13dd8056f9abedcc09",
      "scriptpubkey_type": "v1_p2tr",
      "scriptpubkey_address": "bc1pfkwsy70r33c33ffthlv6qyhufp24lv2z9u4fuy7aspt0n2ldesyssalmr0",
      "value": 3130
    },
    {
      "scriptpubkey": "5120c0e2ac483e27d0b0e6362b70274fd557b8cfc3c9f29a00e5b6bfaec5707b6cb7",
      "scriptpubkey_asm": "OP_PUSHNUM_1 OP_PUSHBYTES_32 c0e2ac483e27d0b0e6362b70274fd557b8cfc3c9f29a00e5b6bfaec5707b6cb7",
      "scriptpubkey_type": "v1_p2tr",
      "scriptpubkey_address": "bc1pcr32cjp7ylgtpe3k9dczwn7427uvls7f72dqpedkh7hv2urmdjmshv56en",
      "value": 124664
    }
  ],
  "size": 205,
  "weight": 616,
  "fee": 2618,
  "status": {
    "confirmed": true,
    "block_height": 834638,
    "block_hash": "000000000000000000025f742c626208ac87e0b7d15054abb4a19ca2d735a54e",
    "block_time": 1710405325
  },
  "hex": "020000000001011d551c4bdc46994fccf3186370f965d3e0a0530a896865c9df03028373b60b870100000000fdffffff023a0c0000000000002251204d9d0279e38c7118a52bbfd9a012fc48555fb1422f2a9e13dd8056f9abedcc09f8e6010000000000225120c0e2ac483e27d0b0e6362b70274fd557b8cfc3c9f29a00e5b6bfaec5707b6cb7014049a5679f388fc0a3badbcfcc3f60825bf5680100a4a0175cfe28210340c46ea7af04760a5600531736fce3b06dc2e50152336b1df44721ad1f43287b34c9dbe100000000"
}