{
  "txid": "35873026dd1149bcd15cbc7fdb71c8e8b704dfacbe65cad50d834b27ea774042",
  "version": 1,
  "locktime": 0,
  "vin": [
    {
      "txid": "94fe235982213373da7d6ee7efd2aa7aeeea3c71dad9c0c45bd54e31b1557957",
      "vout": 1,
      "prevout": {
        "scriptpubkey": "a9140fb0c20eacff2965b1f2594c250c165dd4450ec487",
        "scriptpubkey_asm": "OP_HASH160 OP_PUSHBYTES_20 0fb0c20eacff2965b1f2594c250c165dd4450ec4 OP_EQUAL",
        "scriptpubkey_type": "p2sh",
        "scriptpubkey_address": "337yonUcnqG51muV6haP5XBqGBbF1mvLN1",
        "value": 4934335
      },
      "scriptsig": "220020115c4da1a0e6e7414964e3e6813b25fcfa9bff98e9652c33f6d11512e4676d7c",
      "scriptsig_asm": "OP_PUSHBYTES_34 0020115c4da1a0e6e7414964e3e6813b25fcfa9bff98e9652c33f6d11512e4676d7c",
      "witness": [
        "",
        "304402201583b15fd77f1a363fdf2b4cbd56725fb15ed2acba980bdc2b681e6abda4349c022050e9e13e96a2871e184ca59cf3e8a10c843ab04ce43d132e956c8a0b2a3586db01",
        "3044022041dfe5a435e2a597b648b7a556a7d9b0f225139de3e4da64b09bc248aaf5ea6002204e9f1af0654996d4718ee8ef916722aa3a2a6fcbc86c7f81853322b95fd6769901",
        "522103110b6a279de37085c775c3899fa8bf3c7a734d346b86be7a6dce55a41623b4ec2103ab719ec244b513ee8a77598ef7a5177e7091390a52078874ed74b5e79d2203b12103b4e0d0ba8bb4a77b53175b02a8c311b57a7dca6afd5f20596d96c46f11ed827d53ae"
      ],
      "is_coinbase": false,
      "sequence": 4294967295,
      "inner_redeemscript_asm": "OP_0 OP_PUSHBYTES_32 115c4da1a0e6e7414964e3e6813b25fcfa9bff98e9652c33f6d11512e4676d7c",
      "inner_witnessscript_asm": "OP_PUSHNUM_2 OP_PUSHBYTES_33 03110b6a279de37085c775c3899fa8bf3c7a734d346b86be7a6dce55a41623b4ec OP_PUSHBYTES_33 03ab719ec244b513ee8a77598ef7a5177e7091390a52078874ed74b5e79d2203b1 OP_PUSHBYTES_33 03b4e0d0ba8bb4a77b53175b02a8c311b57a7dca6afd5f20596d96c46f11ed827d OP_PUSHNUM_3 OP_CHECKMULTISIG"
    }
  ],
  "vout": [
    {
      "scriptpubkey": "76a9143b5bd0828a6c373291143b2c04392085f7173f1188ac",
      "scriptpubkey_asm": "OP_DUP OP_HASH160 OP_PUSHBYTES_20 3b5bd0828a6c373291143b2c04392085f7173f11 OP_EQUALVERIFY OP_CHECKSIG",
      "scriptpubkey_type": "p2pkh",
      "scriptpubkey_address": "16QrrheFkcc9ByERpPMiauNLbxbUGTKSXQ",
      "value": 4002264
    },
    {
      "scriptpubkey": "a9140fb0c20eacff2965b1f2594c250c165dd4450ec487",
      "scriptpubkey_asm": "OP_HASH160 OP_PUSHBYTES_20 0fb0c20eacff2965b1f2594c250c165dd4450ec4 OP_EQUAL",
      "scriptpubkey_type": "p2sh",
      "scriptpubkey_address": "337yonUcnqG51muV6haP5XBqGBbF1mvLN1",
      "value": 925700
    }
  ],
  "size": 406,
  "weight": 862,
  "fee": 6371,
  "status": {
    "confirmed": true,
    "block_height": 834638,
    "block_hash": "000000000000000000025f742c626208ac87e0b7d15054abb4a19ca2d735a54e",
    "block_time": 1710405325
  },
  "hex": "01000000000101577955b1314ed55bc4c0d9da713ceaee7aaad2efe76e7dda733321825923fe940100000023220020115c4da1a0e6e7414964e3e6813b25fcfa9bff98e9652c33f6d11512e4676d7cffffffff02d8113d00000000001976a9143b5bd0828a6c373291143b2c04392085f7173f1188ac04200e000000000017a9140fb0c20eacff2965b1f2594c250c165dd4450ec487040047304402201583b15fd77f1a363fdf2b4cbd56725fb15ed2acba980bdc2b681e6abda4349c022050e9e13e96a2871e184ca59cf3e8a10c843ab04ce43d132e956c8a0b2a3586db01473044022041dfe5a435e2a597b648b7a556a7d9b0f225139de3e4da64b09bc248aaf5ea6002204e9f1af0654996d4718ee8ef916722aa3a2a6fcbc86c7f81853322b95fd676990169522103110b6a279de37085c775c3899fa8bf3c7a734d346b86be7a6dce55a41623b4ec2103ab719ec244b513ee8a77598ef7a5177e7091390a52078874ed74b5e79d2203b12103b4e0d0ba8bb4a77b53175b02a8c311b57a7dca6afd5f20596d96c46f11ed827d53ae00000000"
}