{
  "txid": "35881bb03a8166d27115e5162f0b75d0f507cac7c1e5a2d0fa7bd07cc3302b72",
  "version": 1,
  "locktime": 0,
  "vin": [
    {
      "txid": "038b6fa59828b508d6fcd961b84d654ba726da58938a68208b73606383fc81a6",
      "vout": 5,
      "prevout": {
        "scriptpubkey": "001454278993c9c225384ae5a1ea3572b7fcbee69390",
        "scriptpubkey_asm": "OP_0 OP_PUSHBYTES_20 54278993c9c225384ae5a1ea3572b7fcbee69390",
        "scriptpubkey_type": "v0_p2wpkh",
        "scriptpubkey_address": "bc1q2sncny7fcgjnsjh9584r2u4hljlwdyus2ma0ll",
        "value": 267856
      },
      "scriptsig": "",
      "scriptsig_asm": "",
      "witness": [
        "30440220180f58b1ae9bba5f4d071e8cc8585f6fedb9b6937aeafd11b294bbc36310772c022038dc0e7e9ef23870fea920a6cab0cf8328475b45507b7c337c0b63afd61c2dc801",
        "035eaa52c39bcf6b67ad334895ea35dfe0f0ef2342c4bc225387d491e2669da67b"
      ],
      "is_coinbase": false,
      "sequence": 4294967295
    }
  ],
  "vout": [
    {
      "scriptpubkey": "0014ecfa459e60937e51aa2a17aad80fa03adbcddfab",
      "scriptpubkey_asm": "OP_0 OP_PUSHBYTES_20 ecfa459e60937e51aa2a17aad80fa03adbcddfab",
      "scriptpubkey_type": "v0_p2wpkh",
      "scriptpubkey_address": "bc1qanayt8nqjdl9r232z74dsraq8tdumhat4ess9v",
      "value": 264886
    }
  ],
  "size": 191,
  "weight": 437,
  "fee": 2970,
  "status": {
    "confirmed": true,
    "block_height": 834638,
    "block_hash": "000000000000000000025f742c626208ac87e0b7d15054abb4a19ca2d735a54e",
    "block_time": 1710405325
  },
  "hex": "01000000000101a681fc836360738b20688a9358da26a74b654db861d9fcd608b52898a56f8b030500000000ffffffff01b60a040000000000160014ecfa459e60937e51aa2a17aad80fa03adbcddfab024730440220180f58b1ae9bba5f4d071e8cc8585f6fedb9b6937aeafd11b294bbc36310772c022038dc0e7e9ef23870fea920a6cab0cf8328475b45507b7c337c0b63afd61c2dc80121035eaa52c39bcf6b67ad334895ea35dfe0f0ef2342c4bc225387d491e2669da67b00000000"
}