{
  "txid": "35a3067d18d6d67c239fad56d295fba03452d15e1204fae5384c16fa56043501",
  "version": 2,
  "locktime": 0,
  "vin": [
    {
      "txid": "215495e822049a772194f058761ddbc549595082ec68d0eee4277416826f9fa9",
      "vout": 2,
      "prevout": {
        "scriptpubkey": "5120c25ee73d004e869fffccf634dcf2c3c0b06d9a0faf93f2913a028bad127fda1d",
        "scriptpubkey_asm": "OP_PUSHNUM_1 OP_PUSHBYTES_32 c25ee73d004e869fffccf634dcf2c3c0b06d9a0faf93f2913a028bad127fda1d",
        "scriptpubkey_type": "v1_p2tr",
        "scriptpubkey_address": "bc1pcf0ww0gqf6rfll7v7c6deukrczcxmxs047fl9yf6q2966ynlmgws5jjs9f",
        "value": 605000
      },
      "scriptsig": "",
      "scriptsig_asm": "",
      "witness": [
        "e5a2aabe83f44ea72b3430b1aa0b1445ff9299b4b7b46676daaffa80babaf04d8c22466ca3ca69ce8992b7278a9c56f56bace6488fc61fa7610170e9513f1004"
      ],
      "is_coinbase": false,
      "sequence": 2147483649
    },
    {
      "txid": "bdca8428e5997268b0a358cfb7d2ffb766103dd4e16157df8853df93df628cae",
      "vout": 2,
      "prevout": {
        "scriptpubkey": "5120c25ee73d004e869fffccf634dcf2c3c0b06d9a0faf93f2913a028bad127fda1d",
        "scriptpubkey_asm": "OP_PUSHNUM_1 OP_PUSHBYTES_32 c25ee73d004e869fffccf634dcf2c3c0b06d9a0faf93f2913a028bad127fda1d",
        "scriptpubkey_type": "v1_p2tr",
        "scriptpubkey_address": "bc1pcf0ww0gqf6rfll7v7c6deukrczcxmxs047fl9yf6q2966ynlmgws5jjs9f",
        "value": 550000
      },
      "scriptsig": "",
      "scriptsig_asm": "",
      "witness": [
        "b17a30664642be90cefb5661eefaeddb735cc4d53cf59074f514e4bcb9e50016b636b2c35dc066a6005c857d072e6ea808daa2b3e662f2d401a13626d591edd4"
      ],
      "is_coinbase": false,
      "sequence": 2147483649
    },
    {
      "txid": "670c2d8272f37e92e2a260733e825472912ccc190a7ac17372c643897ae65736",
      "vout": 2,
      "prevout": {
        "scriptpubkey": "5120c25ee73d004e869fffccf634dcf2c3c0b06d9a0faf93f2913a028bad127fda1d",
        "scriptpubkey_asm": "OP_PUSHNUM_1 OP_PUSHBYTES_32 c25ee73d004e869fffccf634dcf2c3c0b06d9a0faf93f2913a028bad127fda1d",
        "scriptpubkey_type": "v1_p2tr",
        "scriptpubkey_address": "bc1pcf0ww0gqf6rfll7v7c6deukrczcxmxs047fl9yf6q2966ynlmgws5jjs9f",
        "value": 550000
      },
      "scriptsig": "",
      "scriptsig_asm": "",
      "witness": [
        "51a31213eeb6e83a2a2a22cc70db647c0d79c9e4fe9eb3c6f2a5a8051c5fb5b02db980c3441ca89cf08b1d2752b77aebec3ea19e1cfb21b1d0e94b47885ac038"
      ],
      "is_coinbase": false,
      "sequence": 2147483649
    },
    {
      "txid": "57c83c926195e11fe80d64b6fe58407a4c58ef7ef5057e46dfe1d5c41c53c7be",
      "vout": 15,
      "prevout": {
        "scriptpubkey": "5120c25ee73d004e869fffccf634dcf2c3c0b06d9a0faf93f2913a028bad127fda1d",
        "scriptpubkey_asm": "OP_PUSHNUM_1 OP_PUSHBYTES_32 c25ee73d004e869fffccf634dcf2c3c0b06d9a0faf93f2913a028bad127fda1d",
        "scriptpubkey_type": "v1_p2tr",
        "scriptpubkey_address": "bc1pcf0ww0gqf6rfll7v7c6deukrczcxmxs047fl9yf6q2966ynlmgws5jjs9f",
        "value": 510000
      },
      "scriptsig": "",
      "scriptsig_asm": "",
      "witness": [
        "9d436e8454abd11ee2629eb59d9c293a07b1f1892ecb3000f9913e6ef736cfec5aa60047d4b7936dd2192b3f8b762a0a1f2be4400d05cb5298334688317822d1"
      ],
      "is_coinbase": false,
      "sequence": 2147483649
    },
    {
      "txid": "631c762d8820aa69bab25a15e3c22533baa573be608ae1fa0351162c01ca6a0c",
      "vout": 1,
      "prevout": {
        "scriptpubkey": "5120c25ee73d004e869fffccf634dcf2c3c0b06d9a0faf93f2913a028bad127fda1d",
        "scriptpubkey_asm": "OP_PUSHNUM_1 OP_PUSHBYTES_32 c25ee73d004e869fffccf634dcf2c3c0b06d9a0faf93f2913a028bad127fda1d",
        "scriptpubkey_type": "v1_p2tr",
        "scriptpubkey_address": "bc1pcf0ww0gqf6rfll7v7c6deukrczcxmxs047fl9yf6q2966ynlmgws5jjs9f",
        "value": 494462
      },
      "scriptsig": "",
      "scriptsig_asm": "",
      "witness": [
        "ae5c00f95ef80219559c61b7150e8325ce2464fa803f519353453ca7f6d8cf633b725f491766fd23661b6e3a5914351ac586d33a6a5ee60ea7c5b50619dac1fd"
      ],
      "is_coinbase": false,
      "sequence": 2147483649
    },
    {
      "txid": "9882be4e43d1fba288a506340bc0346b12e4d3efe877e4347a6aba4a14801560",
      "vout": 4,
      "prevout": {
        "scriptpubkey": "5120c25ee73d004e869fffccf634dcf2c3c0b06d9a0faf93f2913a028bad127fda1d",
        "scriptpubkey_asm": "OP_PUSHNUM_1 OP_PUSHBYTES_32 c25ee73d004e869fffccf634dcf2c3c0b06d9a0faf93f2913a028bad127fda1d",
        "scriptpubkey_type": "v1_p2tr",
        "scriptpubkey_address": "bc1pcf0ww0gqf6rfll7v7c6deukrczcxmxs047fl9yf6q2966ynlmgws5jjs9f",
        "value": 475200
      },
      "scriptsig": "",
      "scriptsig_asm": "",
      "witness": [
        "289879a8008397564d739499e894f6357ff2e2cffa6b92775e04d446e27bbc6a33b84e0bd1bca27f87eb927bf36f220eb2dbbb08068271bc2f71e86390bb303a"
      ],
      "is_coinbase": false,
      "sequence": 2147483649
    }
  ],
  "vout": [
    {
      "scriptpubkey": "76a9141f0f4609e0d2c8e1c65b22b8c68aed5e61f49a5c88ac",
      "scriptpubkey_asm": "OP_DUP OP_HASH160 OP_PUSHBYTES_20 1f0f4609e0d2c8e1c65b22b8c68aed5e61f49a5c OP_EQUALVERIFY OP_CHECKSIG",
      "scriptpubkey_type": "p2pkh",
      "scriptpubkey_address": "13qEFB7CnNBtRa7uCFUnct8VxpNWW42r6c",
      "value": 3000000
    },
    {
      "scriptpubkey": "5120c25ee73d004e869fffccf634dcf2c3c0b06d9a0faf93f2913a028bad127fda1d",
      "scriptpubkey_asm": "OP_PUSHNUM_1 OP_PUSHBYTES_32 c25ee73d004e869fffccf634dcf2c3c0b06d9a0faf93f2913a028bad127fda1d",
      "scriptpubkey_type": "v1_p2tr",
      "scriptpubkey_address": "bc1pcf0ww0gqf6rfll7v7c6deukrczcxmxs047fl9yf6q2966ynlmgws5jjs9f",
      "value": 177318
    }
  ],
  "size": 731,
  "weight": 1730,
  "fee": 7344,
  "status": {
    "confirmed": true,
    "block_height": 834638,
    "block_hash": "000000000000000000025f742c626208ac87e0b7d15054abb4a19ca2d735a54e",
    "block_time": 1710405325
  },
  "hex": "02000000000106a99f6f82167427e4eed068ec82505949c5db1d7658f09421779a0422e8955421020000000001000080ae8c62df93df5388df5761e1d43d1066b7ffd2b7cf58a3b0687299e52884cabd0200000000010000803657e67a8943c67273c17a0a19cc2c917254823e7360a2e2927ef372822d0c67020000000001000080bec7531cc4d5e1df467e05f57eef584c7a4058feb6640de81fe19561923cc8570f00000000010000800c6aca012c165103fae18a60be73a5ba3325c2e3155ab2ba69aa20882d761c63010000000001000080601580144aba6a7a34e477e8efd3e4126b34c00b3406a588a2fbd1434ebe829804000000000100008002c0c62d00000000001976a9141f0f4609e0d2c8e1c65b22b8c68aed5e61f49a5c88aca6b4020000000000225120c25ee73d004e869fffccf634dcf2c3c0b06d9a0faf93f2913a028bad127fda1d0140e5a2aabe83f44ea72b3430b1aa0b1445ff9299b4b7b46676daaffa80babaf04d8c22466ca3ca69ce8992b7278a9c56f56bace6488fc61fa7610170e9513f10040140b17a30664642be90cefb5661eefaeddb735cc4d53cf59074f514e4bcb9e50016b636b2c35dc066a6005c857d072e6ea808daa2b3e662f2d401a13626d591edd4014051a31213eeb6e83a2a2a22cc70db647c0d79c9e4fe9eb3c6f2a5a8051c5fb5b02db980c3441ca89cf08b1d2752b77aebec3ea19e1cfb21b1d0e94b47885ac03801409d436e8454abd11ee2629eb59d9c293a07b1f1892ecb3000f9913e6ef736cfec5aa60047d4b7936dd2192b3f8b762a0a1f2be4400d05cb5298334688317822d10140ae5c00f95ef80219559c61b7150e8325ce2464fa803f519353453ca7f6d8cf633b725f491766fd23661b6e3a5914351ac586d33a6a5ee60ea7c5b50619dac1fd0140289879a8008397564d739499e894f6357ff2e2cffa6b92775e04d446e27bbc6a33b84e0bd1bca27f87eb927bf36f220eb2dbbb08068271bc2f71e86390bb303a00000000"
}