{
  "txid": "35a4d68fa6cded3f8a31ed11f7ba3569b4ff57311b9665eaa97f30e4a89a1dd9",
  "version": 2,
  "locktime": 0,
  "vin": [
    {
      "txid": "8141f6f4751d2d5dbff7ebf62f91d91e1f567b45214dfd4474a13ae005268146",
      "vout": 1,
      "prevout": {
        "scriptpubkey": "a914b0cdbc108e0add4aa0476dddc4e3c342b641d10087",
        "scriptpubkey_asm": "OP_HASH160 OP_PUSHBYTES_20 b0cdbc108e0add4aa0476dddc4e3c342b641d100 OP_EQUAL",
        "scriptpubkey_type": "p2sh",
        "scriptpubkey_address": "3HosJzrzcpgjqBLAtWFwaWaHcqpVmnsYsL",
        "value": 914397
      },
      "scriptsig": "160014c7decce3205b88cc6e782ae730d2a272e130c637",
      "scriptsig_asm": "OP_PUSHBYTES_22 0014c7decce3205b88cc6e782ae730d2a272e130c637",
      "witness": [
        "30450221008b89fb3cdba9842ed30d3544df48ecd106d3f713b0c67c70c883656c4eee89b702202c796862791c949416b60159c65d6a62ee96ccf577b41cb0f0c254aa65b758bf01",
        "036313445c4ee5d555663260f7a92f92504f7546b78d6e4798cebe31fb9f27fbcd"
      ],
      "is_coinbase": false,
      "sequence": 4294967293,
      "inner_redeemscript_asm": "OP_0 OP_PUSHBYTES_20 c7decce3205b88cc6e782ae730d2a272e130c637"
    }
  ],
  "vout": [
    {
      "scriptpubkey": "0014f2b7e37364cde9caf5d2348249bc0327f91be2e2",
      "scriptpubkey_asm": "OP_0 OP_PUSHBYTES_20 f2b7e37364cde9caf5d2348249bc0327f91be2e2",
      "scriptpubkey_type": "v0_p2wpkh",
      "scriptpubkey_address": "bc1q72m7xumyeh5u4awjxjpyn0qrylu3hchz9a20hx",
      "value": 170000
    },
    {
      "scriptpubkey": "a914b0cdbc108e0add4aa0476dddc4e3c342b641d10087",
      "scriptpubkey_asm": "OP_HASH160 OP_PUSHBYTES_20 b0cdbc108e0add4aa0476dddc4e3c342b641d100 OP_EQUAL",
      "scriptpubkey_type": "p2sh",
      "scriptpubkey_address": "3HosJzrzcpgjqBLAtWFwaWaHcqpVmnsYsL",
      "value": 742252
    }
  ],
  "size": 247,
  "weight": 658,
  "fee": 2145,
  "status": {
    "confirmed": true,
    "block_height": 834460,
    "block_hash": "00000000000000000000484a79b643b2524bbce82e5d8a442013fa5b8905ed98",
    "block_time": 1710307468
  },
  "hex": "0200000000010146812605e03aa17444fd4d21457b561f1ed9912ff6ebf7bf5d2d1d75f4f641810100000017160014c7decce3205b88cc6e782ae730d2a272e130c637fdffffff021098020000000000160014f2b7e37364cde9caf5d2348249bc0327f91be2e26c530b000000000017a914b0cdbc108e0add4aa0476dddc4e3c342b641d10087024830450221008b89fb3cdba9842ed30d3544df48ecd106d3f713b0c67c70c883656c4eee89b702202c796862791c949416b60159c65d6a62ee96ccf577b41cb0f0c254aa65b758bf0121036313445c4ee5d555663260f7a92f92504f7546b78d6e4798cebe31fb9f27fbcd00000000"
}