{
  "txid": "35a5c95b5fef39e96c35c38c4dd11eafe1826c36a9d87f482e4cad459635f912",
  "version": 2,
  "locktime": 0,
  "vin": [
    {
      "txid": "8486ecb4df0880316dd6e82b3971b4df187aff23765bc3a47f8d78bb53aa273c",
      "vout": 31,
      "prevout": {
        "scriptpubkey": "5120ab7c0504891e22945dcc4dbac347f6204b25c9c186ae1dd8302357ee944d8fc6",
        "scriptpubkey_asm": "OP_PUSHNUM_1 OP_PUSHBYTES_32 ab7c0504891e22945dcc4dbac347f6204b25c9c186ae1dd8302357ee944d8fc6",
        "scriptpubkey_type": "v1_p2tr",
        "scriptpubkey_address": "bc1p4d7q2pyfrc3fghwvfkavx3lkyp9jtjwps6hpmkpsydt7a9zd3lrqn8967d",
        "value": 2575
      },
      "scriptsig": "",
      "scriptsig_asm": "",
      "witness": [
        "73808399649982e8d77155610c7db17643499000c9ebb61ab2bb97b90e23f620285c2a810e61d3fe5c3f1bae73e9fe0b11f073ae06f998939f1065db31a42658",
        "201b1b0cc5ba6cbd4bdf72a59dc0eeddbbae4f57e157fdd4e257b368a601497610ac0063036f726401010a746578742f706c61696e00367b2270223a226272632d3230222c226f70223a226d696e74222c227469636b223a2261616161222c22616d74223a223130303030227d68",
        "c01b1b0cc5ba6cbd4bdf72a59dc0eeddbbae4f57e157fdd4e257b368a601497610"
      ],
      "is_coinbase": false,
      "sequence": 4261412863
    }
  ],
  "vout": [
    {
      "scriptpubkey": "0014ddd7ef12ea6f78edcc1e8e7afa12c01ab59f3339",
      "scriptpubkey_asm": "OP_0 OP_PUSHBYTES_20 ddd7ef12ea6f78edcc1e8e7afa12c01ab59f3339",
      "scriptpubkey_type": "v0_p2wpkh",
      "scriptpubkey_address": "bc1qmht77yh2dauwmnq73ea05ykqr26e7veea8spz6",
      "value": 546
    }
  ],
  "size": 295,
  "weight": 541,
  "fee": 2029,
  "status": {
    "confirmed": true,
    "block_height": 834460,
    "block_hash": "00000000000000000000484a79b643b2524bbce82e5d8a442013fa5b8905ed98",
    "block_time": 1710307468
  },
  "hex": "020000000001013c27aa53bb788d7fa4c35b7623ff7a18dfb471392be8d66d318008dfb4ec86841f00000000fffffffd012202000000000000160014ddd7ef12ea6f78edcc1e8e7afa12c01ab59f3339034073808399649982e8d77155610c7db17643499000c9ebb61ab2bb97b90e23f620285c2a810e61d3fe5c3f1bae73e9fe0b11f073ae06f998939f1065db31a426586e201b1b0cc5ba6cbd4bdf72a59dc0eeddbbae4f57e157fdd4e257b368a601497610ac0063036f726401010a746578742f706c61696e00367b2270223a226272632d3230222c226f70223a226d696e74222c227469636b223a2261616161222c22616d74223a223130303030227d6821c01b1b0cc5ba6cbd4bdf72a59dc0eeddbbae4f57e157fdd4e257b368a60149761000000000"
}