{
  "txid": "35b76ece18e1c4d156d970f86877f34ebdae6592c60b8df068881d841bed1be6",
  "version": 2,
  "locktime": 0,
  "vin": [
    {
      "txid": "776f054ff502ced0e99435cb7ffadea65f4fb4ede2679e34c1c195b53ea7cc8b",
      "vout": 0,
      "prevout": {
        "scriptpubkey": "0014baa3a7a64db35ec15ac07c8449d6b35d40cf5407",
        "scriptpubkey_asm": "OP_0 OP_PUSHBYTES_20 baa3a7a64db35ec15ac07c8449d6b35d40cf5407",
        "scriptpubkey_type": "v0_p2wpkh",
        "scriptpubkey_address": "bc1qh2360fjdkd0vzkkq0jzyn44nt4qv74q84hp6gf",
        "value": 1213823
      },
      "scriptsig": "",
      "scriptsig_asm": "",
      "witness": [
        "304502210096d0571ac3a0b92596520df0ef137b06861fd10dea5575c5453654b71b1a271e022011b9d83f5493d2e932bd57fa03dcf6b02cce78f8881a0452c021de65e38d715f01",
        "0299814b97218c360ab5c028ccb2879a32d12769ceb57be2e0dee9da583ffcc8c7"
      ],
      "is_coinbase": false,
      "sequence": 4294967293
    },
    {
      "txid": "1883a364236707ce85c59d14cd96e5058a46cc581189284ac41f33ea42fb50a2",
      "vout": 1,
      "prevout": {
        "scriptpubkey": "0014baa3a7a64db35ec15ac07c8449d6b35d40cf5407",
        "scriptpubkey_asm": "OP_0 OP_PUSHBYTES_20 baa3a7a64db35ec15ac07c8449d6b35d40cf5407",
        "scriptpubkey_type": "v0_p2wpkh",
        "scriptpubkey_address": "bc1qh2360fjdkd0vzkkq0jzyn44nt4qv74q84hp6gf",
        "value": 32110
      },
      "scriptsig": "",
      "scriptsig_asm": "",
      "witness": [
        "3045022100e53680d4c0ef4e95227c16032b9e969a901c299de0c194b0d496b35feb141d7702203078a149da681e120d0be4f96acbc5792e070ad3c587209d0caca9e02851ef3801",
        "0299814b97218c360ab5c028ccb2879a32d12769ceb57be2e0dee9da583ffcc8c7"
      ],
      "is_coinbase": false,
      "sequence": 4294967293
    }
  ],
  "vout": [
    {
      "scriptpubkey": "0014ecfedb540d8633c41b91eb20c7627522aa47e372",
      "scriptpubkey_asm": "OP_0 OP_PUSHBYTES_20 ecfedb540d8633c41b91eb20c7627522aa47e372",
      "scriptpubkey_type": "v0_p2wpkh",
      "scriptpubkey_address": "bc1qanldk4qdsceugxu3avsvwcn4y24y0cmjuj2jx6",
      "value": 1190133
    },
    {
      "scriptpubkey": "0014baa3a7a64db35ec15ac07c8449d6b35d40cf5407",
      "scriptpubkey_asm": "OP_0 OP_PUSHBYTES_20 baa3a7a64db35ec15ac07c8449d6b35d40cf5407",
      "scriptpubkey_type": "v0_p2wpkh",
      "scriptpubkey_address": "bc1qh2360fjdkd0vzkkq0jzyn44nt4qv74q84hp6gf",
      "value": 52069
    }
  ],
  "size": 372,
  "weight": 834,
  "fee": 3731,
  "status": {
    "confirmed": true,
    "block_height": 834638,
    "block_hash": "000000000000000000025f742c626208ac87e0b7d15054abb4a19ca2d735a54e",
    "block_time": 1710405325
  },
  "hex": "020000000001028bcca73eb595c1c1349e67e2edb44f5fa6defa7fcb3594e9d0ce02f54f056f770000000000fdffffffa250fb42ea331fc44a28891158cc468a05e596cd149dc585ce07672364a383180100000000fdffffff02f528120000000000160014ecfedb540d8633c41b91eb20c7627522aa47e37265cb000000000000160014baa3a7a64db35ec15ac07c8449d6b35d40cf54070248304502210096d0571ac3a0b92596520df0ef137b06861fd10dea5575c5453654b71b1a271e022011b9d83f5493d2e932bd57fa03dcf6b02cce78f8881a0452c021de65e38d715f01210299814b97218c360ab5c028ccb2879a32d12769ceb57be2e0dee9da583ffcc8c702483045022100e53680d4c0ef4e95227c16032b9e969a901c299de0c194b0d496b35feb141d7702203078a149da681e120d0be4f96acbc5792e070ad3c587209d0caca9e02851ef3801210299814b97218c360ab5c028ccb2879a32d12769ceb57be2e0dee9da583ffcc8c700000000"
}