{
  "txid": "35ca5398197a5c50bcdc84c97c6ac62debec478537d1ee76838b12d6d71dedac",
  "version": 1,
  "locktime": 0,
  "vin": [
    {
      "txid": "3b0697b9bd4a23f68878dea54f7ea3f3553832c9f7f9f479ea63f4f108e2b0d9",
      "vout": 0,
      "prevout": {
        "scriptpubkey": "5120b09182bc1fc70f752d4d885ec8e68156325b75881de16bb1b5d3e3bf53ff01fd",
        "scriptpubkey_asm": "OP_PUSHNUM_1 OP_PUSHBYTES_32 b09182bc1fc70f752d4d885ec8e68156325b75881de16bb1b5d3e3bf53ff01fd",
        "scriptpubkey_type": "v1_p2tr",
        "scriptpubkey_address": "bc1pkzgc90qlcu8h2t2d3p0v3e5p2ce9kavgrhskhvd4603m75llq87s2eyxqn",
        "value": 2576
      },
      "scriptsig": "",
      "scriptsig_asm": "",
      "witness": [
        "0111cfb45b44bb091c493aae3b0764cd72c0923ee44df100fd948ad007cbbbb9e1e870129f75b802408bd1ac168a574ddabd5728029e1afdaf04f81275c37cf5",
        "20bb0543170d1752bfb0d173724effdc58a708c53d5154e56364e6cb19fd993a73ac0063036f7264010118746578742f706c61696e3b636861727365743d7574662d3800397b2270223a226272632d3230222c226f70223a227472616e73666572222c227469636b223a224d574343222c22616d74223a2232303834227d68",
        "c1bb0543170d1752bfb0d173724effdc58a708c53d5154e56364e6cb19fd993a73"
      ],
      "is_coinbase": false,
      "sequence": 4294967293
    }
  ],
  "vout": [
    {
      "scriptpubkey": "00144639af50cc9b5fcc4fc09644c0140078b2d2356c",
      "scriptpubkey_asm": "OP_0 OP_PUSHBYTES_20 4639af50cc9b5fcc4fc09644c0140078b2d2356c",
      "scriptpubkey_type": "v0_p2wpkh",
      "scriptpubkey_address": "bc1qgcu675xvnd0ucn7qjezvq9qq0zedydtv07pqxg",
      "value": 546
    }
  ],
  "size": 312,
  "weight": 558,
  "fee": 2030,
  "status": {
    "confirmed": true,
    "block_height": 834464,
    "block_hash": "0000000000000000000177a0869a911a2b65c9bdcd5a8bcb02b68f305bee848e",
    "block_time": 1710308296
  },
  "hex": "01000000000101d9b0e208f1f463ea79f4f9f7c9323855f3a37e4fa5de7888f6234abdb997063b0000000000fdffffff0122020000000000001600144639af50cc9b5fcc4fc09644c0140078b2d2356c03400111cfb45b44bb091c493aae3b0764cd72c0923ee44df100fd948ad007cbbbb9e1e870129f75b802408bd1ac168a574ddabd5728029e1afdaf04f81275c37cf57f20bb0543170d1752bfb0d173724effdc58a708c53d5154e56364e6cb19fd993a73ac0063036f7264010118746578742f706c61696e3b636861727365743d7574662d3800397b2270223a226272632d3230222c226f70223a227472616e73666572222c227469636b223a224d574343222c22616d74223a2232303834227d6821c1bb0543170d1752bfb0d173724effdc58a708c53d5154e56364e6cb19fd993a7300000000"
}