{
  "txid": "35cc984760385b68f212b93c79ba597f533aecee684e48abaa2905b89747ac49",
  "version": 1,
  "locktime": 0,
  "vin": [
    {
      "txid": "815865394a16503ebc211e22c5c2e7badc413f9b2d09002df36b9bf2e79423e4",
      "vout": 0,
      "prevout": {
        "scriptpubkey": "51201bc30e032d0bb80f0636b8e35f3a336c6bbbbf153eb93d9e93aa686f27ce9d64",
        "scriptpubkey_asm": "OP_PUSHNUM_1 OP_PUSHBYTES_32 1bc30e032d0bb80f0636b8e35f3a336c6bbbbf153eb93d9e93aa686f27ce9d64",
        "scriptpubkey_type": "v1_p2tr",
        "scriptpubkey_address": "bc1pr0psuqedpwuq7p3khr347w3nd34mh0c486unm85n4f5x7f7wn4jqv2kyh6",
        "value": 44527
      },
      "scriptsig": "",
      "scriptsig_asm": "",
      "witness": [
        "78aaef0d0d248d4f7eab56c5e4e1afdbbb499ad4606653bb5ebe70c5c9964b9585013e2c78134138dc0cb50d58268c2abb0eec4d04e29f3f5247f7ad7f490f6b01"
      ],
      "is_coinbase": false,
      "sequence": 4294967295
    },
    {
      "txid": "a193afc1ca9f893d1a3b080ca81866bf9580b0022704c21a0f25dfc8a532fb9b",
      "vout": 0,
      "prevout": {
        "scriptpubkey": "00200701af85ea78aa56b9ffb2d031118caccce610861c2078980f4aced20a0faf8f",
        "scriptpubkey_asm": "OP_0 OP_PUSHBYTES_32 0701af85ea78aa56b9ffb2d031118caccce610861c2078980f4aced20a0faf8f",
        "scriptpubkey_type": "v0_p2wsh",
        "scriptpubkey_address": "bc1qquq6lp020z49dw0lktgrzyvv4nxwvyyxrss83xq0ft8dyzs0478sf5h3x6",
        "value": 21191
      },
      "scriptsig": "",
      "scriptsig_asm": "",
      "witness": [
        "",
        "3045022100d0c8a69df9e7c32ed15ac16f32a97e6e3bdf84fe4af9fc3b842e5bf5ab98ec4602200fbbdcfb50acbaf580b3b31a4f40d8a9b8be98e8ddb52dcdf71aa719d65dffc801",
        "304402205ef0a3a6d96743441c3528e4384dc8bb020d643ecc650fa820b239d3ac5db0d802206356c19b0d0c978618f8aba1c5db3d1b91c97845db87243131a1d66077fbc17201",
        "5221026d47ecf514c1b97b21b8381c38d53bdaf760e79115123af1a7128811c736f1a721039aa680cbf2ff076e3dedef48800322bf841a31bd714bb1bde594d6f602080e8d52ae"
      ],
      "is_coinbase": false,
      "sequence": 4294967295,
      "inner_witnessscript_asm": "OP_PUSHNUM_2 OP_PUSHBYTES_33 026d47ecf514c1b97b21b8381c38d53bdaf760e79115123af1a7128811c736f1a7 OP_PUSHBYTES_33 039aa680cbf2ff076e3dedef48800322bf841a31bd714bb1bde594d6f602080e8d OP_PUSHNUM_2 OP_CHECKMULTISIG"
    },
    {
      "txid": "843159d22b48528a1e675ad3fb983fa886ccc1af40e8b1e3b9aad82837632d5f",
      "vout": 0,
      "prevout": {
        "scriptpubkey": "5120b9fbd9ba65bba29d76eb9309e3f7e75a050b8d0c03bb59c81ea8715dd00c6679",
        "scriptpubkey_asm": "OP_PUSHNUM_1 OP_PUSHBYTES_32 b9fbd9ba65bba29d76eb9309e3f7e75a050b8d0c03bb59c81ea8715dd00c6679",
        "scriptpubkey_type": "v1_p2tr",
        "scriptpubkey_address": "bc1ph8aanwn9hw3f6ahtjvy78al8tgzshrgvqwa4njq74pc4m5qvveuslxjtk2",
        "value": 15000
      },
      "scriptsig": "",
      "scriptsig_asm": "",
      "witness": [
        "0f3b7605ea8a1a491223a093536e873e2e99afb04f78a514ece58db10f6df594a0e6623196949c028c272495210dd311d74d2576927201c523214c73701e87c501"
      ],
      "is_coinbase": false,
      "sequence": 4294967295
    },
    {
      "txid": "b1816737c3d07c0c8f6968c70e01f7390f244a1543e4cf681682df4f6f7a70bb",
      "vout": 14,
      "prevout": {
        "scriptpubkey": "5120b9fbd9ba65bba29d76eb9309e3f7e75a050b8d0c03bb59c81ea8715dd00c6679",
        "scriptpubkey_asm": "OP_PUSHNUM_1 OP_PUSHBYTES_32 b9fbd9ba65bba29d76eb9309e3f7e75a050b8d0c03bb59c81ea8715dd00c6679",
        "scriptpubkey_type": "v1_p2tr",
        "scriptpubkey_address": "bc1ph8aanwn9hw3f6ahtjvy78al8tgzshrgvqwa4njq74pc4m5qvveuslxjtk2",
        "value": 10000
      },
      "scriptsig": "",
      "scriptsig_asm": "",
      "witness": [
        "74dc288befcbbfebb147db4a6f19824bbbb91ca1b7704772d9d456e3c7eb82cc4e312964f5619c5f1e13f31054e47f6be1da37ec6e73abcf8a985eed29c1318201"
      ],
      "is_coinbase": false,
      "sequence": 4294967295
    },
    {
      "txid": "0500d4714b98b011c7a5834c725736ca0031e4ece6df4181ae6b8b78ec22549b",
      "vout": 49,
      "prevout": {
        "scriptpubkey": "5120b9fbd9ba65bba29d76eb9309e3f7e75a050b8d0c03bb59c81ea8715dd00c6679",
        "scriptpubkey_asm": "OP_PUSHNUM_1 OP_PUSHBYTES_32 b9fbd9ba65bba29d76eb9309e3f7e75a050b8d0c03bb59c81ea8715dd00c6679",
        "scriptpubkey_type": "v1_p2tr",
        "scriptpubkey_address": "bc1ph8aanwn9hw3f6ahtjvy78al8tgzshrgvqwa4njq74pc4m5qvveuslxjtk2",
        "value": 10000
      },
      "scriptsig": "",
      "scriptsig_asm": "",
      "witness": [
        "0c2281fbcbf8b70562d29d9c10d1c91c259d8babefd1aace12235bd75dfbe4014a16b39960c047c1bc5a95693bd2d10a8203b06719de42c4a2cab6a7cd2384ba01"
      ],
      "is_coinbase": false,
      "sequence": 4294967295
    },
    {
      "txid": "6d24591c14127352a818e1baa57b1a30f286b00ab8d395eff8b04cbf3ba3cfa9",
      "vout": 23,
      "prevout": {
        "scriptpubkey": "5120d39414220bcff58ecb3bcb37d316657f020f1b1c9504d5e7fe1b0986964ab87a",
        "scriptpubkey_asm": "OP_PUSHNUM_1 OP_PUSHBYTES_32 d39414220bcff58ecb3bcb37d316657f020f1b1c9504d5e7fe1b0986964ab87a",
        "scriptpubkey_type": "v1_p2tr",
        "scriptpubkey_address": "bc1p6w2pggstel6cajemevmax9n90upq7xcuj5zdtel7rvycd9j2hpaqe2a8u8",
        "value": 10000
      },
      "scriptsig": "",
      "scriptsig_asm": "",
      "witness": [
        "7e71a7cd0173ac1b8b09e7fbf69856a46bf55289d78a12fba6f9fcdcd4344bb240d2b31e5f19de5863d655f142edbe794dbe7c1b8a72ad24740caadf25646bdb01"
      ],
      "is_coinbase": false,
      "sequence": 4294967295
    },
    {
      "txid": "6d24591c14127352a818e1baa57b1a30f286b00ab8d395eff8b04cbf3ba3cfa9",
      "vout": 24,
      "prevout": {
        "scriptpubkey": "5120d39414220bcff58ecb3bcb37d316657f020f1b1c9504d5e7fe1b0986964ab87a",
        "scriptpubkey_asm": "OP_PUSHNUM_1 OP_PUSHBYTES_32 d39414220bcff58ecb3bcb37d316657f020f1b1c9504d5e7fe1b0986964ab87a",
        "scriptpubkey_type": "v1_p2tr",
        "scriptpubkey_address": "bc1p6w2pggstel6cajemevmax9n90upq7xcuj5zdtel7rvycd9j2hpaqe2a8u8",
        "value": 10000
      },
      "scriptsig": "",
      "scriptsig_asm": "",
      "witness": [
        "b6a5e8bd1df189029f5d0209f364b01332c4b440e0784bd5b0e4b7dccb85275c1ba6872f5e322dc125af3284cff81778cbfa26e85eeb5b265743fcef0587c11501"
      ],
      "is_coinbase": false,
      "sequence": 4294967295
    },
    {
      "txid": "8573b3177a71680599520f47f83de67b93b992333d7b9418853508e9cb2cde3c",
      "vout": 0,
      "prevout": {
        "scriptpubkey": "5120b9fbd9ba65bba29d76eb9309e3f7e75a050b8d0c03bb59c81ea8715dd00c6679",
        "scriptpubkey_asm": "OP_PUSHNUM_1 OP_PUSHBYTES_32 b9fbd9ba65bba29d76eb9309e3f7e75a050b8d0c03bb59c81ea8715dd00c6679",
        "scriptpubkey_type": "v1_p2tr",
        "scriptpubkey_address": "bc1ph8aanwn9hw3f6ahtjvy78al8tgzshrgvqwa4njq74pc4m5qvveuslxjtk2",
        "value": 8000
      },
      "scriptsig": "",
      "scriptsig_asm": "",
      "witness": [
        "771dcdbef635330aebf98998280e9f1e830241c0fc66815d6e6f89f54e5c7aa4b5d11920906433872ab02431032d01b4ea008c80fc08bb0149896b209c75d0d501"
      ],
      "is_coinbase": false,
      "sequence": 4294967295
    }
  ],
  "vout": [
    {
      "scriptpubkey": "5120337cc397c38465845e3efb523311084e3c678599d969041daad5a290c529b0e7",
      "scriptpubkey_asm": "OP_PUSHNUM_1 OP_PUSHBYTES_32 337cc397c38465845e3efb523311084e3c678599d969041daad5a290c529b0e7",
      "scriptpubkey_type": "v1_p2tr",
      "scriptpubkey_address": "bc1pxd7v897rs3jcgh37ldfrxyggfc7x0pvem95sg8d26k3fp3ffkrns7mw2pk",
      "value": 122685
    }
  ],
  "size": 1071,
  "weight": 2214,
  "fee": 6033,
  "status": {
    "confirmed": true,
    "block_height": 834464,
    "block_hash": "0000000000000000000177a0869a911a2b65c9bdcd5a8bcb02b68f305bee848e",
    "block_time": 1710308296
  },
  "hex": "01000000000108e42394e7f29b6bf32d00092d9b3f41dcbae7c2c5221e21bc3e50164a396558810000000000ffffffff9bfb32a5c8df250f1ac2042702b08095bf6618a80c083b1a3d899fcac1af93a10000000000ffffffff5f2d633728d8aab9e3b1e840afc1cc86a83f98fbd35a671e8a52482bd25931840000000000ffffffffbb707a6f4fdf821668cfe443154a240f39f7010ec768698f0c7cd0c3376781b10e00000000ffffffff9b5422ec788b6bae8141dfe6ece43100ca3657724c83a5c711b0984b71d400053100000000ffffffffa9cfa33bbf4cb0f8ef95d3b80ab086f2301a7ba5bae118a8527312141c59246d1700000000ffffffffa9cfa33bbf4cb0f8ef95d3b80ab086f2301a7ba5bae118a8527312141c59246d1800000000ffffffff3cde2ccbe908358518947b3d3392b9937be63df8470f52990568717a17b373850000000000ffffffff013ddf010000000000225120337cc397c38465845e3efb523311084e3c678599d969041daad5a290c529b0e7014178aaef0d0d248d4f7eab56c5e4e1afdbbb499ad4606653bb5ebe70c5c9964b9585013e2c78134138dc0cb50d58268c2abb0eec4d04e29f3f5247f7ad7f490f6b010400483045022100d0c8a69df9e7c32ed15ac16f32a97e6e3bdf84fe4af9fc3b842e5bf5ab98ec4602200fbbdcfb50acbaf580b3b31a4f40d8a9b8be98e8ddb52dcdf71aa719d65dffc80147304402205ef0a3a6d96743441c3528e4384dc8bb020d643ecc650fa820b239d3ac5db0d802206356c19b0d0c978618f8aba1c5db3d1b91c97845db87243131a1d66077fbc17201475221026d47ecf514c1b97b21b8381c38d53bdaf760e79115123af1a7128811c736f1a721039aa680cbf2ff076e3dedef48800322bf841a31bd714bb1bde594d6f602080e8d52ae01410f3b7605ea8a1a491223a093536e873e2e99afb04f78a514ece58db10f6df594a0e6623196949c028c272495210dd311d74d2576927201c523214c73701e87c501014174dc288befcbbfebb147db4a6f19824bbbb91ca1b7704772d9d456e3c7eb82cc4e312964f5619c5f1e13f31054e47f6be1da37ec6e73abcf8a985eed29c131820101410c2281fbcbf8b70562d29d9c10d1c91c259d8babefd1aace12235bd75dfbe4014a16b39960c047c1bc5a95693bd2d10a8203b06719de42c4a2cab6a7cd2384ba0101417e71a7cd0173ac1b8b09e7fbf69856a46bf55289d78a12fba6f9fcdcd4344bb240d2b31e5f19de5863d655f142edbe794dbe7c1b8a72ad24740caadf25646bdb010141b6a5e8bd1df189029f5d0209f364b01332c4b440e0784bd5b0e4b7dccb85275c1ba6872f5e322dc125af3284cff81778cbfa26e85eeb5b265743fcef0587c115010141771dcdbef635330aebf98998280e9f1e830241c0fc66815d6e6f89f54e5c7aa4b5d11920906433872ab02431032d01b4ea008c80fc08bb0149896b209c75d0d50100000000"
}