{
  "txid": "35d81ccc2830b30163c675fca00d6b28686daeaed11945895aa55df6326cd484",
  "version": 1,
  "locktime": 0,
  "vin": [
    {
      "txid": "dc0069289aa49f786e09478fd3a244dd917fa9b8228df8e3ec7c52ab006fbe05",
      "vout": 0,
      "prevout": {
        "scriptpubkey": "00209c8def95948df171cd1bcf432254fb6d61bea7775e674b20b75ad143c743b191",
        "scriptpubkey_asm": "OP_0 OP_PUSHBYTES_32 9c8def95948df171cd1bcf432254fb6d61bea7775e674b20b75ad143c743b191",
        "scriptpubkey_type": "v0_p2wsh",
        "scriptpubkey_address": "bc1qnjx7l9v53hchrngmeapjy48md4smafmhten5kg9httg5836rkxgsxu2dmz",
        "value": 239210000
      },
      "scriptsig": "",
      "scriptsig_asm": "",
      "witness": [
        "",
        "30440220137f76399a766f3dcd09dd884bd3c992b3d8e63359dc0890cb2543a58251c36002205dc2d9de5ead426849985c11e50f9c843ba170885f01ec37660b083a43b8c19501",
        "3045022100b4d2a62e4b39bcd2a23efbb203eb3e2c54cdc84a97a71727bb3cec84b769757a0220784b59af13eba08cb1f49d7d2e58fbe047b96b80409f626f907ce499582619ca01",
        "52210224df1546b0bb3ebcc440b636a86907ad0e087104496dbedd0975604858ac9d4a21030f29e75ba084dedcd3f7935b36d7178525e296f61153ec5e76b7140630d7edbe2102467d1d8466ea3e205c66d256d056222095d7f481cb93031fbac3acbedc754ebe53ae"
      ],
      "is_coinbase": false,
      "sequence": 4294967295,
      "inner_witnessscript_asm": "OP_PUSHNUM_2 OP_PUSHBYTES_33 0224df1546b0bb3ebcc440b636a86907ad0e087104496dbedd0975604858ac9d4a OP_PUSHBYTES_33 030f29e75ba084dedcd3f7935b36d7178525e296f61153ec5e76b7140630d7edbe OP_PUSHBYTES_33 02467d1d8466ea3e205c66d256d056222095d7f481cb93031fbac3acbedc754ebe OP_PUSHNUM_3 OP_CHECKMULTISIG"
    },
    {
      "txid": "ec843b0c9e8b3243814362345a8838ea488b0ed648e7178fd4a61d60f6905c11",
      "vout": 0,
      "prevout": {
        "scriptpubkey": "00209c8def95948df171cd1bcf432254fb6d61bea7775e674b20b75ad143c743b191",
        "scriptpubkey_asm": "OP_0 OP_PUSHBYTES_32 9c8def95948df171cd1bcf432254fb6d61bea7775e674b20b75ad143c743b191",
        "scriptpubkey_type": "v0_p2wsh",
        "scriptpubkey_address": "bc1qnjx7l9v53hchrngmeapjy48md4smafmhten5kg9httg5836rkxgsxu2dmz",
        "value": 546
      },
      "scriptsig": "",
      "scriptsig_asm": "",
      "witness": [
        "",
        "3044022010d987fa0e0868f010433e941d2ba4ea5bd9ebcec01a7ba22ab732d7f89aab050220139b5644297567ca37a769ca20ca4947dffc6bcc6b17859aad84e6f7731392d901",
        "3045022100946c2c2ef8a4fb1b90536969832bdd03d79f30e8f67daa853a30a9cb181226ab02202440d0deb4650c69e9733f350ab3074412730812e784d7a1af8fed4ea399cfd401",
        "52210224df1546b0bb3ebcc440b636a86907ad0e087104496dbedd0975604858ac9d4a21030f29e75ba084dedcd3f7935b36d7178525e296f61153ec5e76b7140630d7edbe2102467d1d8466ea3e205c66d256d056222095d7f481cb93031fbac3acbedc754ebe53ae"
      ],
      "is_coinbase": false,
      "sequence": 4294967295,
      "inner_witnessscript_asm": "OP_PUSHNUM_2 OP_PUSHBYTES_33 0224df1546b0bb3ebcc440b636a86907ad0e087104496dbedd0975604858ac9d4a OP_PUSHBYTES_33 030f29e75ba084dedcd3f7935b36d7178525e296f61153ec5e76b7140630d7edbe OP_PUSHBYTES_33 02467d1d8466ea3e205c66d256d056222095d7f481cb93031fbac3acbedc754ebe OP_PUSHNUM_3 OP_CHECKMULTISIG"
    },
    {
      "txid": "42ee8a2efe81922fa2fa8be29072329065ef6ef9dd364a911da927026dcfb772",
      "vout": 0,
      "prevout": {
        "scriptpubkey": "a914369bbe56fb3562e1a7ebb7cc23fed22e93b933b587",
        "scriptpubkey_asm": "OP_HASH160 OP_PUSHBYTES_20 369bbe56fb3562e1a7ebb7cc23fed22e93b933b5 OP_EQUAL",
        "scriptpubkey_type": "p2sh",
        "scriptpubkey_address": "36fkz9kbvM3s3Xzsqrh2wjWSakTG1czq6v",
        "value": 37579
      },
      "scriptsig": "00473044022024dcddc4b68ab24dc94dff343177cc5fc7e42511e542189839cfd5942004369e022049996bbb895d28d89efe626c352331c34527ae2afdd556a518bbdc0bdf8dc252014730440220269b58818815cc513ee82dd5fd2bbe65df455c4a78193ffeeb2eaa8592aba4700220767881ef919c07debebfd8feee03dfa96957bfa8cdbd14bb569c5471f66a6020014c69522103b83979102d01d3a5eec5303e24a0dc899cab701fd112e96c7ff65a2ad795d6c02103dfc30cd27c7572a17f96e4e378d98beb1f4d911a816b4f169159ad7a0e1275932102e7fdf21cb46c47157f96cc88bc80824a8f01bbe0a936bd233eaa8a33c1f9b22653ae",
      "scriptsig_asm": "OP_0 OP_PUSHBYTES_71 3044022024dcddc4b68ab24dc94dff343177cc5fc7e42511e542189839cfd5942004369e022049996bbb895d28d89efe626c352331c34527ae2afdd556a518bbdc0bdf8dc25201 OP_PUSHBYTES_71 30440220269b58818815cc513ee82dd5fd2bbe65df455c4a78193ffeeb2eaa8592aba4700220767881ef919c07debebfd8feee03dfa96957bfa8cdbd14bb569c5471f66a602001 OP_PUSHDATA1 522103b83979102d01d3a5eec5303e24a0dc899cab701fd112e96c7ff65a2ad795d6c02103dfc30cd27c7572a17f96e4e378d98beb1f4d911a816b4f169159ad7a0e1275932102e7fdf21cb46c47157f96cc88bc80824a8f01bbe0a936bd233eaa8a33c1f9b22653ae",
      "is_coinbase": false,
      "sequence": 4294967295,
      "inner_redeemscript_asm": "OP_PUSHNUM_2 OP_PUSHBYTES_33 03b83979102d01d3a5eec5303e24a0dc899cab701fd112e96c7ff65a2ad795d6c0 OP_PUSHBYTES_33 03dfc30cd27c7572a17f96e4e378d98beb1f4d911a816b4f169159ad7a0e127593 OP_PUSHBYTES_33 02e7fdf21cb46c47157f96cc88bc80824a8f01bbe0a936bd233eaa8a33c1f9b226 OP_PUSHNUM_3 OP_CHECKMULTISIG"
    }
  ],
  "vout": [
    {
      "scriptpubkey": "76a9149f96baaa5c6ded4a7bc96aca863bb3d515f1caf988ac",
      "scriptpubkey_asm": "OP_DUP OP_HASH160 OP_PUSHBYTES_20 9f96baaa5c6ded4a7bc96aca863bb3d515f1caf9 OP_EQUALVERIFY OP_CHECKSIG",
      "scriptpubkey_type": "p2pkh",
      "scriptpubkey_address": "1FYq1M7gaeMe1JU9KLqyzJCwy9GybXXFaq",
      "value": 99995000
    },
    {
      "scriptpubkey": "00209c8def95948df171cd1bcf432254fb6d61bea7775e674b20b75ad143c743b191",
      "scriptpubkey_asm": "OP_0 OP_PUSHBYTES_32 9c8def95948df171cd1bcf432254fb6d61bea7775e674b20b75ad143c743b191",
      "scriptpubkey_type": "v0_p2wsh",
      "scriptpubkey_address": "bc1qnjx7l9v53hchrngmeapjy48md4smafmhten5kg9httg5836rkxgsxu2dmz",
      "value": 139244290
    }
  ],
  "size": 971,
  "weight": 2357,
  "fee": 8835,
  "status": {
    "confirmed": true,
    "block_height": 834460,
    "block_hash": "00000000000000000000484a79b643b2524bbce82e5d8a442013fa5b8905ed98",
    "block_time": 1710307468
  },
  "hex": "0100000000010305be6f00ab527cece3f88d22b8a97f91dd44a2d38f47096e789fa49a286900dc0000000000ffffffff115c90f6601da6d48f17e748d60e8b48ea38885a3462438143328b9e0c3b84ec0000000000ffffffff72b7cf6d0227a91d914a36ddf96eef6590327290e28bfaa22f9281fe2e8aee4200000000fc00473044022024dcddc4b68ab24dc94dff343177cc5fc7e42511e542189839cfd5942004369e022049996bbb895d28d89efe626c352331c34527ae2afdd556a518bbdc0bdf8dc252014730440220269b58818815cc513ee82dd5fd2bbe65df455c4a78193ffeeb2eaa8592aba4700220767881ef919c07debebfd8feee03dfa96957bfa8cdbd14bb569c5471f66a6020014c69522103b83979102d01d3a5eec5303e24a0dc899cab701fd112e96c7ff65a2ad795d6c02103dfc30cd27c7572a17f96e4e378d98beb1f4d911a816b4f169159ad7a0e1275932102e7fdf21cb46c47157f96cc88bc80824a8f01bbe0a936bd233eaa8a33c1f9b22653aeffffffff0278cdf505000000001976a9149f96baaa5c6ded4a7bc96aca863bb3d515f1caf988ac02b34c08000000002200209c8def95948df171cd1bcf432254fb6d61bea7775e674b20b75ad143c743b19104004730440220137f76399a766f3dcd09dd884bd3c992b3d8e63359dc0890cb2543a58251c36002205dc2d9de5ead426849985c11e50f9c843ba170885f01ec37660b083a43b8c19501483045022100b4d2a62e4b39bcd2a23efbb203eb3e2c54cdc84a97a71727bb3cec84b769757a0220784b59af13eba08cb1f49d7d2e58fbe047b96b80409f626f907ce499582619ca016952210224df1546b0bb3ebcc440b636a86907ad0e087104496dbedd0975604858ac9d4a21030f29e75ba084dedcd3f7935b36d7178525e296f61153ec5e76b7140630d7edbe2102467d1d8466ea3e205c66d256d056222095d7f481cb93031fbac3acbedc754ebe53ae0400473044022010d987fa0e0868f010433e941d2ba4ea5bd9ebcec01a7ba22ab732d7f89aab050220139b5644297567ca37a769ca20ca4947dffc6bcc6b17859aad84e6f7731392d901483045022100946c2c2ef8a4fb1b90536969832bdd03d79f30e8f67daa853a30a9cb181226ab02202440d0deb4650c69e9733f350ab3074412730812e784d7a1af8fed4ea399cfd4016952210224df1546b0bb3ebcc440b636a86907ad0e087104496dbedd0975604858ac9d4a21030f29e75ba084dedcd3f7935b36d7178525e296f61153ec5e76b7140630d7edbe2102467d1d8466ea3e205c66d256d056222095d7f481cb93031fbac3acbedc754ebe53ae0000000000"
}