{
  "txid": "36027cffc79edbdbe3c0b37facf387135837183d28b0cc969b05de1150167967",
  "version": 2,
  "locktime": 0,
  "vin": [
    {
      "txid": "dd7e941b71547ed75fd5e516e5ee9aea377686c4db9a276c7a3fb82eb38c83ab",
      "vout": 2,
      "prevout": {
        "scriptpubkey": "a91415d5bc879cd19c34fb71714e9a498a02331cbe6687",
        "scriptpubkey_asm": "OP_HASH160 OP_PUSHBYTES_20 15d5bc879cd19c34fb71714e9a498a02331cbe66 OP_EQUAL",
        "scriptpubkey_type": "p2sh",
        "scriptpubkey_address": "33gUAEuwPcWZ7UWfkB5ACg1PqbAkajAYwK",
        "value": 339000
      },
      "scriptsig": "16001494c273e5b7155aac4b8f216dbad33bd6b2c4ea5e",
      "scriptsig_asm": "OP_PUSHBYTES_22 001494c273e5b7155aac4b8f216dbad33bd6b2c4ea5e",
      "witness": [
        "3045022100c5652f2d9befaad9c50d09397e8e8bf14fcb5e8d905484919619bbb02f0237400220285955f3dfc41065b2038c3fd45c7c42879431224397480b4a1f124712f6a75d01",
        "031bd25925a476a4e93ae8f58113bab32ff6ce7a0fc316514adc8932d81731b195"
      ],
      "is_coinbase": false,
      "sequence": 4294967293,
      "inner_redeemscript_asm": "OP_0 OP_PUSHBYTES_20 94c273e5b7155aac4b8f216dbad33bd6b2c4ea5e"
    }
  ],
  "vout": [
    {
      "scriptpubkey": "76a91491e894d01d4c8164c9e1aa4a47c23d4523c4700188ac",
      "scriptpubkey_asm": "OP_DUP OP_HASH160 OP_PUSHBYTES_20 91e894d01d4c8164c9e1aa4a47c23d4523c47001 OP_EQUALVERIFY OP_CHECKSIG",
      "scriptpubkey_type": "p2pkh",
      "scriptpubkey_address": "1EJVbr9vMTgjLftBTykyfoZF5HbyDmvNmb",
      "value": 327023
    },
    {
      "scriptpubkey": "a91415d5bc879cd19c34fb71714e9a498a02331cbe6687",
      "scriptpubkey_asm": "OP_HASH160 OP_PUSHBYTES_20 15d5bc879cd19c34fb71714e9a498a02331cbe66 OP_EQUAL",
      "scriptpubkey_type": "p2sh",
      "scriptpubkey_address": "33gUAEuwPcWZ7UWfkB5ACg1PqbAkajAYwK",
      "value": 9289
    }
  ],
  "size": 250,
  "weight": 670,
  "fee": 2688,
  "status": {
    "confirmed": true,
    "block_height": 834638,
    "block_hash": "000000000000000000025f742c626208ac87e0b7d15054abb4a19ca2d735a54e",
    "block_time": 1710405325
  },
  "hex": "02000000000101ab838cb32eb83f7a6c279adbc4867637ea9aeee516e5d55fd77e54711b947edd020000001716001494c273e5b7155aac4b8f216dbad33bd6b2c4ea5efdffffff026ffd0400000000001976a91491e894d01d4c8164c9e1aa4a47c23d4523c4700188ac492400000000000017a91415d5bc879cd19c34fb71714e9a498a02331cbe668702483045022100c5652f2d9befaad9c50d09397e8e8bf14fcb5e8d905484919619bbb02f0237400220285955f3dfc41065b2038c3fd45c7c42879431224397480b4a1f124712f6a75d0121031bd25925a476a4e93ae8f58113bab32ff6ce7a0fc316514adc8932d81731b19500000000"
}