{
  "txid": "3615a7da762195152535a0e9502905db09c450f2813d6d0e70bbf331d37471c9",
  "version": 2,
  "locktime": 0,
  "vin": [
    {
      "txid": "a714db28a66cbb5ba1ecf967789b2f2f1c3d4c4eb8cc4c1f2298cb5ec2a475c0",
      "vout": 0,
      "prevout": {
        "scriptpubkey": "512071b1732ec95460f8a14faab54f0af8a0faa6395d4ad2b809ce3be8e6cea4560a",
        "scriptpubkey_asm": "OP_PUSHNUM_1 OP_PUSHBYTES_32 71b1732ec95460f8a14faab54f0af8a0faa6395d4ad2b809ce3be8e6cea4560a",
        "scriptpubkey_type": "v1_p2tr",
        "scriptpubkey_address": "bc1pwxchxtkf23s03g2042657zhc5ra2vw2aftftszww805wdn4y2c9qwwtc3w",
        "value": 546
      },
      "scriptsig": "",
      "scriptsig_asm": "",
      "witness": [
        "898e6826562fe20f10468530114f524c42324e9801ce3860ccc5c9b3c2f32237e7d0c6b3583c099daa47d6a63bb31324996d46b2bc9b6ea41a17db155b584d6e"
      ],
      "is_coinbase": false,
      "sequence": 2147483649
    },
    {
      "txid": "5dbf90f7225c8e9a6757a7842e2cfde7b073cf7fbc74d117dbc34d8acc51a756",
      "vout": 1,
      "prevout": {
        "scriptpubkey": "512071b1732ec95460f8a14faab54f0af8a0faa6395d4ad2b809ce3be8e6cea4560a",
        "scriptpubkey_asm": "OP_PUSHNUM_1 OP_PUSHBYTES_32 71b1732ec95460f8a14faab54f0af8a0faa6395d4ad2b809ce3be8e6cea4560a",
        "scriptpubkey_type": "v1_p2tr",
        "scriptpubkey_address": "bc1pwxchxtkf23s03g2042657zhc5ra2vw2aftftszww805wdn4y2c9qwwtc3w",
        "value": 174192
      },
      "scriptsig": "",
      "scriptsig_asm": "",
      "witness": [
        "e4683fa17955179dcf026b7c72a9e1ea6acc1484e7dabcf7c17f7861c5db4c58955cc39472b7152a625d73a999c5680a96b4c3c9f3fedb63c13f724af0fdd881"
      ],
      "is_coinbase": false,
      "sequence": 2147483649
    }
  ],
  "vout": [
    {
      "scriptpubkey": "76a914f2e4550aaaab2ac6d307c2abbd4accd17730489588ac",
      "scriptpubkey_asm": "OP_DUP OP_HASH160 OP_PUSHBYTES_20 f2e4550aaaab2ac6d307c2abbd4accd177304895 OP_EQUALVERIFY OP_CHECKSIG",
      "scriptpubkey_type": "p2pkh",
      "scriptpubkey_address": "1P9J4DsaD6n1XHGrpS6BSnrTumvkvA8Vmt",
      "value": 546
    },
    {
      "scriptpubkey": "512071b1732ec95460f8a14faab54f0af8a0faa6395d4ad2b809ce3be8e6cea4560a",
      "scriptpubkey_asm": "OP_PUSHNUM_1 OP_PUSHBYTES_32 71b1732ec95460f8a14faab54f0af8a0faa6395d4ad2b809ce3be8e6cea4560a",
      "scriptpubkey_type": "v1_p2tr",
      "scriptpubkey_address": "bc1pwxchxtkf23s03g2042657zhc5ra2vw2aftftszww805wdn4y2c9qwwtc3w",
      "value": 171970
    }
  ],
  "size": 303,
  "weight": 810,
  "fee": 2222,
  "status": {
    "confirmed": true,
    "block_height": 834464,
    "block_hash": "0000000000000000000177a0869a911a2b65c9bdcd5a8bcb02b68f305bee848e",
    "block_time": 1710308296
  },
  "hex": "02000000000102c075a4c25ecb98221f4cccb84e4c3d1c2f2f9b7867f9eca15bbb6ca628db14a700000000000100008056a751cc8a4dc3db17d174bc7fcf73b0e7fd2c2e84a757679a8e5c22f790bf5d0100000000010000800222020000000000001976a914f2e4550aaaab2ac6d307c2abbd4accd17730489588acc29f02000000000022512071b1732ec95460f8a14faab54f0af8a0faa6395d4ad2b809ce3be8e6cea4560a0140898e6826562fe20f10468530114f524c42324e9801ce3860ccc5c9b3c2f32237e7d0c6b3583c099daa47d6a63bb31324996d46b2bc9b6ea41a17db155b584d6e0140e4683fa17955179dcf026b7c72a9e1ea6acc1484e7dabcf7c17f7861c5db4c58955cc39472b7152a625d73a999c5680a96b4c3c9f3fedb63c13f724af0fdd88100000000"
}