{
  "txid": "361c665730ebbf33b1375272bc59ba3411c2c937165aad01fea246c43fdafbb7",
  "version": 2,
  "locktime": 0,
  "vin": [
    {
      "txid": "6c5e8ec7e1b8d0bbae25d30b67e12ea12f79b5728b292e3f6d7472053cc9f74a",
      "vout": 0,
      "prevout": {
        "scriptpubkey": "5120a0ebd433b98838d837a693153fc3dc69873d6f754135175b5eccfa9f1901f5df",
        "scriptpubkey_asm": "OP_PUSHNUM_1 OP_PUSHBYTES_32 a0ebd433b98838d837a693153fc3dc69873d6f754135175b5eccfa9f1901f5df",
        "scriptpubkey_type": "v1_p2tr",
        "scriptpubkey_address": "bc1p5r4agvae3qudsdaxjv2nls7udxrn6mm4gy63wk67enaf7xgp7h0slfn6zy",
        "value": 736700
      },
      "scriptsig": "",
      "scriptsig_asm": "",
      "witness": [
        "96dbff85f2bff725a3f8a69238e61b707ce0292457c68904986b18e20aad5bf449f75c6bbe417d2d0964211033adbb4f7ad76b815a45c55b73b343eac4103d8b"
      ],
      "is_coinbase": false,
      "sequence": 4294967295
    }
  ],
  "vout": [
    {
      "scriptpubkey": "5120a0ebd433b98838d837a693153fc3dc69873d6f754135175b5eccfa9f1901f5df",
      "scriptpubkey_asm": "OP_PUSHNUM_1 OP_PUSHBYTES_32 a0ebd433b98838d837a693153fc3dc69873d6f754135175b5eccfa9f1901f5df",
      "scriptpubkey_type": "v1_p2tr",
      "scriptpubkey_address": "bc1p5r4agvae3qudsdaxjv2nls7udxrn6mm4gy63wk67enaf7xgp7h0slfn6zy",
      "value": 600
    },
    {
      "scriptpubkey": "5120a0ebd433b98838d837a693153fc3dc69873d6f754135175b5eccfa9f1901f5df",
      "scriptpubkey_asm": "OP_PUSHNUM_1 OP_PUSHBYTES_32 a0ebd433b98838d837a693153fc3dc69873d6f754135175b5eccfa9f1901f5df",
      "scriptpubkey_type": "v1_p2tr",
      "scriptpubkey_address": "bc1p5r4agvae3qudsdaxjv2nls7udxrn6mm4gy63wk67enaf7xgp7h0slfn6zy",
      "value": 600
    },
    {
      "scriptpubkey": "5120a0ebd433b98838d837a693153fc3dc69873d6f754135175b5eccfa9f1901f5df",
      "scriptpubkey_asm": "OP_PUSHNUM_1 OP_PUSHBYTES_32 a0ebd433b98838d837a693153fc3dc69873d6f754135175b5eccfa9f1901f5df",
      "scriptpubkey_type": "v1_p2tr",
      "scriptpubkey_address": "bc1p5r4agvae3qudsdaxjv2nls7udxrn6mm4gy63wk67enaf7xgp7h0slfn6zy",
      "value": 732348
    }
  ],
  "size": 248,
  "weight": 788,
  "fee": 3152,
  "status": {
    "confirmed": true,
    "block_height": 834464,
    "block_hash": "0000000000000000000177a0869a911a2b65c9bdcd5a8bcb02b68f305bee848e",
    "block_time": 1710308296
  },
  "hex": "020000000001014af7c93c0572746d3f2e298b72b5792fa12ee1670bd325aebbd0b8e1c78e5e6c0000000000ffffffff035802000000000000225120a0ebd433b98838d837a693153fc3dc69873d6f754135175b5eccfa9f1901f5df5802000000000000225120a0ebd433b98838d837a693153fc3dc69873d6f754135175b5eccfa9f1901f5dfbc2c0b0000000000225120a0ebd433b98838d837a693153fc3dc69873d6f754135175b5eccfa9f1901f5df014096dbff85f2bff725a3f8a69238e61b707ce0292457c68904986b18e20aad5bf449f75c6bbe417d2d0964211033adbb4f7ad76b815a45c55b73b343eac4103d8b00000000"
}