{
  "txid": "3629be2204f5f0b6acd3f65a2afe85d4d2d19d9b9d7874ab8300a441da628667",
  "version": 1,
  "locktime": 0,
  "vin": [
    {
      "txid": "e14796698ec478af64cfdcc856108b27022ff09e65ec68ae94c2d85b73dad3e7",
      "vout": 1,
      "prevout": {
        "scriptpubkey": "00144b2f09ac1a8756fb6ad6386c777d1998c0b699d7",
        "scriptpubkey_asm": "OP_0 OP_PUSHBYTES_20 4b2f09ac1a8756fb6ad6386c777d1998c0b699d7",
        "scriptpubkey_type": "v0_p2wpkh",
        "scriptpubkey_address": "bc1qfvhsntq6sat0k6kk8pk8wlgenrqtdxwhaeg42h",
        "value": 47878407
      },
      "scriptsig": "",
      "scriptsig_asm": "",
      "witness": [
        "3045022100ede0023a3ae9b69ad1578e241fa2f646add4d9c230ae89510b89f06ca67ed26b0220219d1c2c54096e4f856323d0a0b16161adca76ea5184610bdb211389dd76dd4301",
        "03b65ff9bbe40da69d17980cbb690de517820bd5f39fd832b866fda65d6d756478"
      ],
      "is_coinbase": false,
      "sequence": 4294967295
    }
  ],
  "vout": [
    {
      "scriptpubkey": "0014cfadb7164e2edf55d3be1c6edeb9b548d3789a15",
      "scriptpubkey_asm": "OP_0 OP_PUSHBYTES_20 cfadb7164e2edf55d3be1c6edeb9b548d3789a15",
      "scriptpubkey_type": "v0_p2wpkh",
      "scriptpubkey_address": "bc1qe7kmw9jw9m04t5a7r3hdawd4frfh3xs4dywcrx",
      "value": 22541
    },
    {
      "scriptpubkey": "00144b2f09ac1a8756fb6ad6386c777d1998c0b699d7",
      "scriptpubkey_asm": "OP_0 OP_PUSHBYTES_20 4b2f09ac1a8756fb6ad6386c777d1998c0b699d7",
      "scriptpubkey_type": "v0_p2wpkh",
      "scriptpubkey_address": "bc1qfvhsntq6sat0k6kk8pk8wlgenrqtdxwhaeg42h",
      "value": 47853836
    }
  ],
  "size": 223,
  "weight": 562,
  "fee": 2030,
  "status": {
    "confirmed": true,
    "block_height": 834638,
    "block_hash": "000000000000000000025f742c626208ac87e0b7d15054abb4a19ca2d735a54e",
    "block_time": 1710405325
  },
  "hex": "01000000000101e7d3da735bd8c294ae68ec659ef02f02278b1056c8dccf64af78c48e699647e10100000000ffffffff020d58000000000000160014cfadb7164e2edf55d3be1c6edeb9b548d3789a150c31da02000000001600144b2f09ac1a8756fb6ad6386c777d1998c0b699d702483045022100ede0023a3ae9b69ad1578e241fa2f646add4d9c230ae89510b89f06ca67ed26b0220219d1c2c54096e4f856323d0a0b16161adca76ea5184610bdb211389dd76dd43012103b65ff9bbe40da69d17980cbb690de517820bd5f39fd832b866fda65d6d75647800000000"
}