{
  "txid": "36373533c2dcbd7da81ee367c1ca6cc9d20530c5153c3b870ea543156bef8e8a",
  "version": 1,
  "locktime": 0,
  "vin": [
    {
      "txid": "ee569d072196b468a163f41b1e9210a27851512563cf80154b988334a8f10b61",
      "vout": 1,
      "prevout": {
        "scriptpubkey": "76a9140d5bb369e4c30e47579f46e818438f5b6a246da888ac",
        "scriptpubkey_asm": "OP_DUP OP_HASH160 OP_PUSHBYTES_20 0d5bb369e4c30e47579f46e818438f5b6a246da8 OP_EQUALVERIFY OP_CHECKSIG",
        "scriptpubkey_type": "p2pkh",
        "scriptpubkey_address": "12DddyoyLnATmAGC4uKU5R3DxJCfkHEsD5",
        "value": 5049
      },
      "scriptsig": "4730440220637d545b45f0c8e9f78ef002cd3f3bf54d2ec0b29777e15ac8572f3ee6f6a6a002201086ba63a83ef3cee2a9bbae0aefe58296e3180b09dceb54403eba85fe9e7751012102b036b5561d6f5d02a39d877f58bad1dcf68449df7241e00bead7077fac41ecb7",
      "scriptsig_asm": "OP_PUSHBYTES_71 30440220637d545b45f0c8e9f78ef002cd3f3bf54d2ec0b29777e15ac8572f3ee6f6a6a002201086ba63a83ef3cee2a9bbae0aefe58296e3180b09dceb54403eba85fe9e775101 OP_PUSHBYTES_33 02b036b5561d6f5d02a39d877f58bad1dcf68449df7241e00bead7077fac41ecb7",
      "is_coinbase": false,
      "sequence": 4294967295
    },
    {
      "txid": "b958f4f1428753eb78a225239ada5081ecf926a0ecc90ea1266dbe775070eb1b",
      "vout": 5,
      "prevout": {
        "scriptpubkey": "76a9140ab344a4cdf4adf14da47f762647479f1a6d33cf88ac",
        "scriptpubkey_asm": "OP_DUP OP_HASH160 OP_PUSHBYTES_20 0ab344a4cdf4adf14da47f762647479f1a6d33cf OP_EQUALVERIFY OP_CHECKSIG",
        "scriptpubkey_type": "p2pkh",
        "scriptpubkey_address": "1yaWgr85PEpkRjLtA7EnKyjSdWf6XPG2Y",
        "value": 142004
      },
      "scriptsig": "483045022100a621d0ca737d1693b04b7cb430b0254a496eb2525ecfa80c62f1925677d36b1202202fc38698ae1f990f47b48656f78414f4dc9c09307f5562527edec55b7fa1bff5012103ad0606a0821184c2daaa8fc10bd35112bd60f5d19bd0b3ab9d85bda201b2ca3d",
      "scriptsig_asm": "OP_PUSHBYTES_72 3045022100a621d0ca737d1693b04b7cb430b0254a496eb2525ecfa80c62f1925677d36b1202202fc38698ae1f990f47b48656f78414f4dc9c09307f5562527edec55b7fa1bff501 OP_PUSHBYTES_33 03ad0606a0821184c2daaa8fc10bd35112bd60f5d19bd0b3ab9d85bda201b2ca3d",
      "is_coinbase": false,
      "sequence": 4294967295
    }
  ],
  "vout": [
    {
      "scriptpubkey": "00141ecc4790e46ac9548f990bb0a4958287450b5687",
      "scriptpubkey_asm": "OP_0 OP_PUSHBYTES_20 1ecc4790e46ac9548f990bb0a4958287450b5687",
      "scriptpubkey_type": "v0_p2wpkh",
      "scriptpubkey_address": "bc1qrmxy0y8ydty4fruepwc2f9vzsazsk45832ccve",
      "value": 134854
    }
  ],
  "size": 336,
  "weight": 1344,
  "fee": 12199,
  "status": {
    "confirmed": true,
    "block_height": 834638,
    "block_hash": "000000000000000000025f742c626208ac87e0b7d15054abb4a19ca2d735a54e",
    "block_time": 1710405325
  },
  "hex": "0100000002610bf1a83483984b1580cf6325515178a210921e1bf463a168b49621079d56ee010000006a4730440220637d545b45f0c8e9f78ef002cd3f3bf54d2ec0b29777e15ac8572f3ee6f6a6a002201086ba63a83ef3cee2a9bbae0aefe58296e3180b09dceb54403eba85fe9e7751012102b036b5561d6f5d02a39d877f58bad1dcf68449df7241e00bead7077fac41ecb7ffffffff1beb705077be6d26a10ec9eca026f9ec8150da9a2325a278eb538742f1f458b9050000006b483045022100a621d0ca737d1693b04b7cb430b0254a496eb2525ecfa80c62f1925677d36b1202202fc38698ae1f990f47b48656f78414f4dc9c09307f5562527edec55b7fa1bff5012103ad0606a0821184c2daaa8fc10bd35112bd60f5d19bd0b3ab9d85bda201b2ca3dffffffff01c60e0200000000001600141ecc4790e46ac9548f990bb0a4958287450b568700000000"
}