{
  "txid": "363d88272cfe019ba677fcf0ecf023dc2bc0fd5895bde423f0f411eb198744b9",
  "version": 2,
  "locktime": 834637,
  "vin": [
    {
      "txid": "9c9e3cf17d70898c9657ad704836c557e756c658b9beb506f3f4e5def69134be",
      "vout": 2,
      "prevout": {
        "scriptpubkey": "a914b487f46a1648c071e3fb5f8cbdf391bacb81730e87",
        "scriptpubkey_asm": "OP_HASH160 OP_PUSHBYTES_20 b487f46a1648c071e3fb5f8cbdf391bacb81730e OP_EQUAL",
        "scriptpubkey_type": "p2sh",
        "scriptpubkey_address": "3J9aRNfqZ5jA7JXUQuMFkH1fNwzq2bQtc9",
        "value": 8916547
      },
      "scriptsig": "160014e8164f90a6a262834d13b391a0205650a79faef6",
      "scriptsig_asm": "OP_PUSHBYTES_22 0014e8164f90a6a262834d13b391a0205650a79faef6",
      "witness": [
        "3044022050e1ac5c5a9e24a88dbe4aa8a4a3af97fe9f39986d38eb2458d98d2a2862e3f1022039a2ac477d71fcebf4f7956691ff016aaf9b3f78f81f7c261ae7920c34b4d88301",
        "02bf6edb342c80ddf3465e3a15bf446088016fd5af592e3bc52f27c090fa9dd66d"
      ],
      "is_coinbase": false,
      "sequence": 4294967294,
      "inner_redeemscript_asm": "OP_0 OP_PUSHBYTES_20 e8164f90a6a262834d13b391a0205650a79faef6"
    }
  ],
  "vout": [
    {
      "scriptpubkey": "001483bbce00dcccad1b8f643571be19161237c26086",
      "scriptpubkey_asm": "OP_0 OP_PUSHBYTES_20 83bbce00dcccad1b8f643571be19161237c26086",
      "scriptpubkey_type": "v0_p2wpkh",
      "scriptpubkey_address": "bc1qswauuqxuejk3hrmyx4cmuxgkzgmuycyxd7sd9d",
      "value": 8537970
    },
    {
      "scriptpubkey": "0014702fbd43491abad81d4ee34130d9e87d42bb3df9",
      "scriptpubkey_asm": "OP_0 OP_PUSHBYTES_20 702fbd43491abad81d4ee34130d9e87d42bb3df9",
      "scriptpubkey_type": "v0_p2wpkh",
      "scriptpubkey_address": "bc1qwqhm6s6fr2ads82wudqnpk0g04ptk00ew3ysm3",
      "value": 223881
    },
    {
      "scriptpubkey": "00146d9fd83969d535dffb190c1f111ce68f50d3ed20",
      "scriptpubkey_asm": "OP_0 OP_PUSHBYTES_20 6d9fd83969d535dffb190c1f111ce68f50d3ed20",
      "scriptpubkey_type": "v0_p2wpkh",
      "scriptpubkey_address": "bc1qdk0aswtf656al7ceps03z88x3agd8mfqpsw7cj",
      "value": 151340
    }
  ],
  "size": 276,
  "weight": 777,
  "fee": 3356,
  "status": {
    "confirmed": true,
    "block_height": 834638,
    "block_hash": "000000000000000000025f742c626208ac87e0b7d15054abb4a19ca2d735a54e",
    "block_time": 1710405325
  },
  "hex": "02000000000101be3491f6dee5f4f306b5beb958c656e757c5364870ad57968c89707df13c9e9c0200000017160014e8164f90a6a262834d13b391a0205650a79faef6feffffff03724782000000000016001483bbce00dcccad1b8f643571be19161237c26086896a030000000000160014702fbd43491abad81d4ee34130d9e87d42bb3df92c4f0200000000001600146d9fd83969d535dffb190c1f111ce68f50d3ed2002473044022050e1ac5c5a9e24a88dbe4aa8a4a3af97fe9f39986d38eb2458d98d2a2862e3f1022039a2ac477d71fcebf4f7956691ff016aaf9b3f78f81f7c261ae7920c34b4d883012102bf6edb342c80ddf3465e3a15bf446088016fd5af592e3bc52f27c090fa9dd66d4dbc0c00"
}