{
  "txid": "36474fde7d01b0014bd2de348e00862701254557e02b6b5bbaaf3b16f9b6208a",
  "version": 2,
  "locktime": 0,
  "vin": [
    {
      "txid": "3dfd8254da8bdcbf9f88895fc7687b0f704571dafc4a5dbba3470863848bb613",
      "vout": 0,
      "prevout": {
        "scriptpubkey": "51204b3def6b7bdf9758a317f5eafc03b3a744cc6bb7dad731af7edbfbb555c2be75",
        "scriptpubkey_asm": "OP_PUSHNUM_1 OP_PUSHBYTES_32 4b3def6b7bdf9758a317f5eafc03b3a744cc6bb7dad731af7edbfbb555c2be75",
        "scriptpubkey_type": "v1_p2tr",
        "scriptpubkey_address": "bc1pfv7776mmm7t43gch7h40cqan5azvc6ahmttnrtm7m0am24wzhe6smdt3m6",
        "value": 546
      },
      "scriptsig": "",
      "scriptsig_asm": "",
      "witness": [
        "c042159e68c262f93b4e710119d36c75852c2bf0580bc7a7ef18109ca944d535ff8a860f06adb317f38290fd39fa14949665cf2a6599f0679bed5dddfac9c9c7"
      ],
      "is_coinbase": false,
      "sequence": 4294967293
    },
    {
      "txid": "6d71fd5e721e3d23462b8d921289e53247cad8cc1acaa3501c37b3f874018ff9",
      "vout": 1,
      "prevout": {
        "scriptpubkey": "5120c6ca0ad67ebac83435bdfbc882109b2a027a4ddddcda988f9984967753cf3a4d",
        "scriptpubkey_asm": "OP_PUSHNUM_1 OP_PUSHBYTES_32 c6ca0ad67ebac83435bdfbc882109b2a027a4ddddcda988f9984967753cf3a4d",
        "scriptpubkey_type": "v1_p2tr",
        "scriptpubkey_address": "bc1pcm9q44n7htyrgddal0ygyyym9gp85nwamndf3ruesjt8w5708fxssfxk2f",
        "value": 10235
      },
      "scriptsig": "",
      "scriptsig_asm": "",
      "witness": [
        "72835fcad18594e6bf6ae9116fe4c62858267f2eec8613efbe4077c35169f26036170dd97425630d8b69fe3bca27d28ff4af577f02339873c2801e5c19d78830"
      ],
      "is_coinbase": false,
      "sequence": 4294967293
    }
  ],
  "vout": [
    {
      "scriptpubkey": "51209c044c6ae1e8b170d66f499223504478515606116e6b912478459ff30b0bbd41",
      "scriptpubkey_asm": "OP_PUSHNUM_1 OP_PUSHBYTES_32 9c044c6ae1e8b170d66f499223504478515606116e6b912478459ff30b0bbd41",
      "scriptpubkey_type": "v1_p2tr",
      "scriptpubkey_address": "bc1pnszyc6hpazchp4n0fxfzx5zy0pg4vps3de4ezfrcgk0lxzcth4qs4a4rgx",
      "value": 2331
    }
  ],
  "size": 269,
  "weight": 674,
  "fee": 8450,
  "status": {
    "confirmed": true,
    "block_height": 834460,
    "block_hash": "00000000000000000000484a79b643b2524bbce82e5d8a442013fa5b8905ed98",
    "block_time": 1710307468
  },
  "hex": "0200000000010213b68b84630847a3bb5d4afcda7145700f7b68c75f89889fbfdc8bda5482fd3d0000000000fdfffffff98f0174f8b3371c50a3ca1accd8ca4732e58912928d2b46233d1e725efd716d0100000000fdffffff011b090000000000002251209c044c6ae1e8b170d66f499223504478515606116e6b912478459ff30b0bbd410140c042159e68c262f93b4e710119d36c75852c2bf0580bc7a7ef18109ca944d535ff8a860f06adb317f38290fd39fa14949665cf2a6599f0679bed5dddfac9c9c7014072835fcad18594e6bf6ae9116fe4c62858267f2eec8613efbe4077c35169f26036170dd97425630d8b69fe3bca27d28ff4af577f02339873c2801e5c19d7883000000000"
}