{
  "txid": "364ae47222dc0f386a8ac92450c00e661ba2d9f5f3716c7f2537d48df6cf016a",
  "version": 1,
  "locktime": 0,
  "vin": [
    {
      "txid": "f36d3a3b0692654ec015039957c3fa728f27c80748d52c9f8afa6fd3f644e94e",
      "vout": 1,
      "prevout": {
        "scriptpubkey": "00141cdd23c7abe064d23c092cb36e47782c841d2b98",
        "scriptpubkey_asm": "OP_0 OP_PUSHBYTES_20 1cdd23c7abe064d23c092cb36e47782c841d2b98",
        "scriptpubkey_type": "v0_p2wpkh",
        "scriptpubkey_address": "bc1qrnwj83atupjdy0qf9jeku3mc9jzp62uc8gdtky",
        "value": 1650000
      },
      "scriptsig": "",
      "scriptsig_asm": "",
      "witness": [
        "30440220285ea750df97b6600656db28c81f10ff9e09c44bf450c9fb41d678cbb284f27602203ae0f94580dae25664f1357df6caa0a65e98a242ed36930f0ed4bbdcab7766b901",
        "03e23af322e018064b4d259b5684ad99c2ace10a33962d6bca7259fa1e00d39aa8"
      ],
      "is_coinbase": false,
      "sequence": 4294967295
    },
    {
      "txid": "3cfab790d298d6b94926800691e569714f94bfad6819bf79df245d7a88f31b89",
      "vout": 1,
      "prevout": {
        "scriptpubkey": "001479ff6e91fbdb6a67b51dc4d8b617e52576723881",
        "scriptpubkey_asm": "OP_0 OP_PUSHBYTES_20 79ff6e91fbdb6a67b51dc4d8b617e52576723881",
        "scriptpubkey_type": "v0_p2wpkh",
        "scriptpubkey_address": "bc1q08lkay0mmd4x0dgacnvtv9l9y4m8ywypvkzyfl",
        "value": 4957456
      },
      "scriptsig": "",
      "scriptsig_asm": "",
      "witness": [
        "3045022100c574895a23c430ea390f9bbd4b89bba9d83740fd400329982d88c67406f9a1b002205f88bc42a340059388534dc72d60b2e2abab8fd785106b55d1dc4d26764a873201",
        "035601117c4ac08551d7cf1ea312f4b877693bfe140412c8c587460ace5bd554ed"
      ],
      "is_coinbase": false,
      "sequence": 4294967295
    }
  ],
  "vout": [
    {
      "scriptpubkey": "002041d444160484c0cee031ae67bd18d8a2362aebc8fb146f23e6a82cfa30668c41",
      "scriptpubkey_asm": "OP_0 OP_PUSHBYTES_32 41d444160484c0cee031ae67bd18d8a2362aebc8fb146f23e6a82cfa30668c41",
      "scriptpubkey_type": "v0_p2wsh",
      "scriptpubkey_address": "bc1qg82yg9sysnqvacp34enm6xxc5gmz467glv2x7glx4qk05vrx33qs06ks7w",
      "value": 6603728
    }
  ],
  "size": 352,
  "weight": 757,
  "fee": 3728,
  "status": {
    "confirmed": true,
    "block_height": 834460,
    "block_hash": "00000000000000000000484a79b643b2524bbce82e5d8a442013fa5b8905ed98",
    "block_time": 1710307468
  },
  "hex": "010000000001024ee944f6d36ffa8a9f2cd54807c8278f72fac357990315c04e6592063b3a6df30100000000ffffffff891bf3887a5d24df79bf1968adbf944f7169e59106802649b9d698d290b7fa3c0100000000ffffffff01d0c364000000000022002041d444160484c0cee031ae67bd18d8a2362aebc8fb146f23e6a82cfa30668c41024730440220285ea750df97b6600656db28c81f10ff9e09c44bf450c9fb41d678cbb284f27602203ae0f94580dae25664f1357df6caa0a65e98a242ed36930f0ed4bbdcab7766b9012103e23af322e018064b4d259b5684ad99c2ace10a33962d6bca7259fa1e00d39aa802483045022100c574895a23c430ea390f9bbd4b89bba9d83740fd400329982d88c67406f9a1b002205f88bc42a340059388534dc72d60b2e2abab8fd785106b55d1dc4d26764a87320121035601117c4ac08551d7cf1ea312f4b877693bfe140412c8c587460ace5bd554ed00000000"
}