{
  "txid": "364b923ec382e6623c6fc551ac6a1f26d5078dfc4324805a981e3d788ef6ed03",
  "version": 1,
  "locktime": 0,
  "vin": [
    {
      "txid": "4de887f5e06bcef1a2e9d49e13061b409ca5118ec4546c0ccfdd47223fc944e6",
      "vout": 1,
      "prevout": {
        "scriptpubkey": "0014330a5d00802e65014847adc9fd16bd060a5d71f8",
        "scriptpubkey_asm": "OP_0 OP_PUSHBYTES_20 330a5d00802e65014847adc9fd16bd060a5d71f8",
        "scriptpubkey_type": "v0_p2wpkh",
        "scriptpubkey_address": "bc1qxv996qyq9ejszjz84hyl694aqc996u0cjj9vf2",
        "value": 404640
      },
      "scriptsig": "",
      "scriptsig_asm": "",
      "witness": [
        "3045022100f6648b1b7a3a399124a77c59f994791f2d309bf28fb69808bdde871b1c94f9ad02207f5221c59a223d2e0bcdbe3a23142c78340ba3da9c04bdd2b4ec22d93c26121201",
        "021cdbc408a3f2cfc8c9c1464793796c329f7c63ad558bb8a506a46fc782f8ce7f"
      ],
      "is_coinbase": false,
      "sequence": 4294967295
    }
  ],
  "vout": [
    {
      "scriptpubkey": "512043b1695b95a3a4463432853a8c18dc0540405da76aceaa1b45527f4bc0f31c20",
      "scriptpubkey_asm": "OP_PUSHNUM_1 OP_PUSHBYTES_32 43b1695b95a3a4463432853a8c18dc0540405da76aceaa1b45527f4bc0f31c20",
      "scriptpubkey_type": "v1_p2tr",
      "scriptpubkey_address": "bc1pgwckjku45wjyvdpjs5agcxxuq4qyqhd8dt825x692fl5hs8nrssqksw5ka",
      "value": 374408
    },
    {
      "scriptpubkey": "0014330a5d00802e65014847adc9fd16bd060a5d71f8",
      "scriptpubkey_asm": "OP_0 OP_PUSHBYTES_20 330a5d00802e65014847adc9fd16bd060a5d71f8",
      "scriptpubkey_type": "v0_p2wpkh",
      "scriptpubkey_address": "bc1qxv996qyq9ejszjz84hyl694aqc996u0cjj9vf2",
      "value": 26101
    }
  ],
  "size": 235,
  "weight": 610,
  "fee": 4131,
  "status": {
    "confirmed": true,
    "block_height": 834460,
    "block_hash": "00000000000000000000484a79b643b2524bbce82e5d8a442013fa5b8905ed98",
    "block_time": 1710307468
  },
  "hex": "01000000000101e644c93f2247ddcf0c6c54c48e11a59c401b06139ed4e9a2f1ce6be0f587e84d0100000000ffffffff0288b605000000000022512043b1695b95a3a4463432853a8c18dc0540405da76aceaa1b45527f4bc0f31c20f565000000000000160014330a5d00802e65014847adc9fd16bd060a5d71f802483045022100f6648b1b7a3a399124a77c59f994791f2d309bf28fb69808bdde871b1c94f9ad02207f5221c59a223d2e0bcdbe3a23142c78340ba3da9c04bdd2b4ec22d93c2612120121021cdbc408a3f2cfc8c9c1464793796c329f7c63ad558bb8a506a46fc782f8ce7f00000000"
}