{
  "txid": "365168eb9d9148584a5474176703b98f0ea4c067275473a4c7f0b283701bd8ca",
  "version": 2,
  "locktime": 0,
  "vin": [
    {
      "txid": "5814ba216d6dd0bf31e3d6497dd828ad8657ea94b178597f32218091ad0883f1",
      "vout": 1,
      "prevout": {
        "scriptpubkey": "00149726c934ff6db2ef4a8e215dd6a3af3385d893ba",
        "scriptpubkey_asm": "OP_0 OP_PUSHBYTES_20 9726c934ff6db2ef4a8e215dd6a3af3385d893ba",
        "scriptpubkey_type": "v0_p2wpkh",
        "scriptpubkey_address": "bc1qjunvjd8ldkew7j5wy9wadga0xwza3ya68rwj4v",
        "value": 42673045
      },
      "scriptsig": "",
      "scriptsig_asm": "",
      "witness": [
        "304402205e723e88cf9cc7e381f25cef39433c48391c294d5afc5153969d7aa8cd5fd89102202f30e25e1bfc0b05fdd863eb557d3ad8a03b3534cf6c1b636ee743f70f1f7bc001",
        "03fea3d659816d4fcee706dd211bdf9259befab477704da8157b903c0d0eebc3f7"
      ],
      "is_coinbase": false,
      "sequence": 4294967295
    }
  ],
  "vout": [
    {
      "scriptpubkey": "001472839c1dbc91e88b9c52d53bbc0e862c1d900967",
      "scriptpubkey_asm": "OP_0 OP_PUSHBYTES_20 72839c1dbc91e88b9c52d53bbc0e862c1d900967",
      "scriptpubkey_type": "v0_p2wpkh",
      "scriptpubkey_address": "bc1qw2pec8duj85gh8zj65amcr5x9sweqzt805x87x",
      "value": 75700
    },
    {
      "scriptpubkey": "001446557b0ff15866cf27217b5c43805700d20c9b06",
      "scriptpubkey_asm": "OP_0 OP_PUSHBYTES_20 46557b0ff15866cf27217b5c43805700d20c9b06",
      "scriptpubkey_type": "v0_p2wpkh",
      "scriptpubkey_address": "bc1qge2hkrl3tpnv7fep0dwy8qzhqrfqexcxlprj6n",
      "value": 298057
    },
    {
      "scriptpubkey": "a914f2b0ee227726a851d2c0e15e4c7e467cdc7f126387",
      "scriptpubkey_asm": "OP_HASH160 OP_PUSHBYTES_20 f2b0ee227726a851d2c0e15e4c7e467cdc7f1263 OP_EQUAL",
      "scriptpubkey_type": "p2sh",
      "scriptpubkey_address": "3PpFQHyT23PMaH1ydMA2JfVuGtdo7X52n5",
      "value": 1406842
    },
    {
      "scriptpubkey": "001425843bfdcb8a3e31540978277753fa780f411767",
      "scriptpubkey_asm": "OP_0 OP_PUSHBYTES_20 25843bfdcb8a3e31540978277753fa780f411767",
      "scriptpubkey_type": "v0_p2wpkh",
      "scriptpubkey_address": "bc1qykzrhlwt3glrz4qf0qnhw5l60q85z9m8st88qp",
      "value": 40889386
    }
  ],
  "size": 285,
  "weight": 813,
  "fee": 3060,
  "status": {
    "confirmed": true,
    "block_height": 834460,
    "block_hash": "00000000000000000000484a79b643b2524bbce82e5d8a442013fa5b8905ed98",
    "block_time": 1710307468
  },
  "hex": "02000000000101f18308ad918021327f5978b194ea5786ad28d87d49d6e331bfd06d6d21ba14580100000000ffffffff04b42701000000000016001472839c1dbc91e88b9c52d53bbc0e862c1d900967498c04000000000016001446557b0ff15866cf27217b5c43805700d20c9b067a7715000000000017a914f2b0ee227726a851d2c0e15e4c7e467cdc7f1263872aec6f020000000016001425843bfdcb8a3e31540978277753fa780f4117670247304402205e723e88cf9cc7e381f25cef39433c48391c294d5afc5153969d7aa8cd5fd89102202f30e25e1bfc0b05fdd863eb557d3ad8a03b3534cf6c1b636ee743f70f1f7bc0012103fea3d659816d4fcee706dd211bdf9259befab477704da8157b903c0d0eebc3f700000000"
}