{
  "txid": "365d15023ad3cf01dc64efd7abee52477376594bf13b9cf73973fffeef536dd4",
  "version": 2,
  "locktime": 0,
  "vin": [
    {
      "txid": "94d3ebf6d029273311499954f19958810cc4f067dbeec266692ef997a899292a",
      "vout": 8,
      "prevout": {
        "scriptpubkey": "001403d1fe5c1a62507370aa3a7cb9189c0d84f05b10",
        "scriptpubkey_asm": "OP_0 OP_PUSHBYTES_20 03d1fe5c1a62507370aa3a7cb9189c0d84f05b10",
        "scriptpubkey_type": "v0_p2wpkh",
        "scriptpubkey_address": "bc1qq0gluhq6vfg8xu928f7tjxyupkz0qkcs0fgssp",
        "value": 675078
      },
      "scriptsig": "",
      "scriptsig_asm": "",
      "witness": [
        "3045022100a8caed243f15423dce8294baab14b8a877716c6a2ada4dac3bb0746a9909fde00220784b706a01efeb780aef5753d4f391667b63ced3e0f9c0e651ee6cf5e428080001",
        "036f16bd2de2b798f17350990a2cc8ad9dc7a276e51abc2f772b01eafe71132140"
      ],
      "is_coinbase": false,
      "sequence": 4294967293
    }
  ],
  "vout": [
    {
      "scriptpubkey": "0014edaf3fe1968b5c043da37f379f3695c00ff5b23f",
      "scriptpubkey_asm": "OP_0 OP_PUSHBYTES_20 edaf3fe1968b5c043da37f379f3695c00ff5b23f",
      "scriptpubkey_type": "v0_p2wpkh",
      "scriptpubkey_address": "bc1qakhnlcvk3dwqg0dr0ume7d54cq8ltv3l0x8h6g",
      "value": 672925
    }
  ],
  "size": 192,
  "weight": 438,
  "fee": 2153,
  "status": {
    "confirmed": true,
    "block_height": 834638,
    "block_hash": "000000000000000000025f742c626208ac87e0b7d15054abb4a19ca2d735a54e",
    "block_time": 1710405325
  },
  "hex": "020000000001012a2999a897f92e6966c2eedb67f0c40c815899f154994911332729d0f6ebd3940800000000fdffffff019d440a0000000000160014edaf3fe1968b5c043da37f379f3695c00ff5b23f02483045022100a8caed243f15423dce8294baab14b8a877716c6a2ada4dac3bb0746a9909fde00220784b706a01efeb780aef5753d4f391667b63ced3e0f9c0e651ee6cf5e42808000121036f16bd2de2b798f17350990a2cc8ad9dc7a276e51abc2f772b01eafe7113214000000000"
}