{
  "txid": "366444ef34a7aef346e045035d5a17c66b0aed8f93538a197b04fdb740159859",
  "version": 1,
  "locktime": 0,
  "vin": [
    {
      "txid": "31b8a2dba0287e06d7d64b6680f80f16d0d587d116f3c71ed037b3b8ac0b8810",
      "vout": 0,
      "prevout": {
        "scriptpubkey": "a9144d0f8f4efd97f0b9eea0a417f5bf3fe6112f1f8687",
        "scriptpubkey_asm": "OP_HASH160 OP_PUSHBYTES_20 4d0f8f4efd97f0b9eea0a417f5bf3fe6112f1f86 OP_EQUAL",
        "scriptpubkey_type": "p2sh",
        "scriptpubkey_address": "38iUbRoggmRoAByBzUcZEapqHh5FZijcKM",
        "value": 225684
      },
      "scriptsig": "1600140983209ca6cf6cf8c747e33139aa63a062498005",
      "scriptsig_asm": "OP_PUSHBYTES_22 00140983209ca6cf6cf8c747e33139aa63a062498005",
      "witness": [
        "3044022069a9d276be8dbbc14e7a938372e714e6a0181855badeeab168749fc155f5761702204f478a4b18910a447ecc740320e1ca600db81ae2980a012176f70d5bc89ef5cd01",
        "0317a3db98877a02b4e8beb1b53f7b7eab505d818b8d522375368902457b84e6c2"
      ],
      "is_coinbase": false,
      "sequence": 4294967295,
      "inner_redeemscript_asm": "OP_0 OP_PUSHBYTES_20 0983209ca6cf6cf8c747e33139aa63a062498005"
    }
  ],
  "vout": [
    {
      "scriptpubkey": "0014f04c5699a22404be3709d0b3fc2bb2f845ee5496",
      "scriptpubkey_asm": "OP_0 OP_PUSHBYTES_20 f04c5699a22404be3709d0b3fc2bb2f845ee5496",
      "scriptpubkey_type": "v0_p2wpkh",
      "scriptpubkey_address": "bc1q7px9dxdzysztudcf6zelc2ajlpz7u4yk4pknp2",
      "value": 220070
    },
    {
      "scriptpubkey": "a9145454edad786f0053fd5ab4caba0260cffa90fa1787",
      "scriptpubkey_asm": "OP_HASH160 OP_PUSHBYTES_20 5454edad786f0053fd5ab4caba0260cffa90fa17 OP_EQUAL",
      "scriptpubkey_type": "p2sh",
      "scriptpubkey_address": "39NvRb4ntoiWSUveRo4QCYvgwX49FZ6Ju4",
      "value": 2256
    }
  ],
  "size": 246,
  "weight": 657,
  "fee": 3358,
  "status": {
    "confirmed": true,
    "block_height": 834552,
    "block_hash": "00000000000000000001dd0468a70c94f619251d286585cff57aeb4bd9ede330",
    "block_time": 1710355598
  },
  "hex": "0100000000010110880bacb8b337d01ec7f316d187d5d0160ff880664bd6d7067e28a0dba2b83100000000171600140983209ca6cf6cf8c747e33139aa63a062498005ffffffff02a65b030000000000160014f04c5699a22404be3709d0b3fc2bb2f845ee5496d00800000000000017a9145454edad786f0053fd5ab4caba0260cffa90fa178702473044022069a9d276be8dbbc14e7a938372e714e6a0181855badeeab168749fc155f5761702204f478a4b18910a447ecc740320e1ca600db81ae2980a012176f70d5bc89ef5cd01210317a3db98877a02b4e8beb1b53f7b7eab505d818b8d522375368902457b84e6c200000000"
}