{
  "txid": "367509085f0347369b4424b861471836f951b97444009aced38283fd987319e4",
  "version": 1,
  "locktime": 0,
  "vin": [
    {
      "txid": "411690bc9d715b0f09eb9bb0cc0215ee1802dc7c4834417390dbbf768e5c8aae",
      "vout": 0,
      "prevout": {
        "scriptpubkey": "00148f7a792a3126d69f0e5f1ce585eac85c2d2a1776",
        "scriptpubkey_asm": "OP_0 OP_PUSHBYTES_20 8f7a792a3126d69f0e5f1ce585eac85c2d2a1776",
        "scriptpubkey_type": "v0_p2wpkh",
        "scriptpubkey_address": "bc1q3aa8j233ymtf7rjlrnjct6kgtskj59mk9jlnrf",
        "value": 112849
      },
      "scriptsig": "",
      "scriptsig_asm": "",
      "witness": [
        "304402202c0afbc4d29afe5e2c2f401fc5952d97f439f8804bb96a356202465fa75c87e202201d5467e0da02b00db58efb806e91cd95db19c7f50484df476b8246da80ca06b901",
        "036897553373481c839d545a46cd6e7f010705cb7dc9b9b3dda5ae58ab6e0e1e19"
      ],
      "is_coinbase": false,
      "sequence": 4294967295
    }
  ],
  "vout": [
    {
      "scriptpubkey": "76a914198e3b55e403b70a16f5570adbb6b3fabd98937088ac",
      "scriptpubkey_asm": "OP_DUP OP_HASH160 OP_PUSHBYTES_20 198e3b55e403b70a16f5570adbb6b3fabd989370 OP_EQUALVERIFY OP_CHECKSIG",
      "scriptpubkey_type": "p2pkh",
      "scriptpubkey_address": "13L8HEWwqCj33nQcqKYE6ogfvzCHM2gAzv",
      "value": 109798
    }
  ],
  "size": 194,
  "weight": 449,
  "fee": 3051,
  "status": {
    "confirmed": true,
    "block_height": 834638,
    "block_hash": "000000000000000000025f742c626208ac87e0b7d15054abb4a19ca2d735a54e",
    "block_time": 1710405325
  },
  "hex": "01000000000101ae8a5c8e76bfdb90734134487cdc0218ee1502ccb09beb090f5b719dbc9016410000000000ffffffff01e6ac0100000000001976a914198e3b55e403b70a16f5570adbb6b3fabd98937088ac0247304402202c0afbc4d29afe5e2c2f401fc5952d97f439f8804bb96a356202465fa75c87e202201d5467e0da02b00db58efb806e91cd95db19c7f50484df476b8246da80ca06b90121036897553373481c839d545a46cd6e7f010705cb7dc9b9b3dda5ae58ab6e0e1e1900000000"
}