{
  "txid": "36792858fdc8f06037ff810c96d9b27de081bf5b2586bed7490ef219b04f265e",
  "version": 2,
  "locktime": 0,
  "vin": [
    {
      "txid": "d18ed70056c00a6cd5de0ccb10b1ae8f7dd5250f9d0f22c727aba826d03302c8",
      "vout": 17,
      "prevout": {
        "scriptpubkey": "5120f59775653f95c3806e0e4c7b6f48d63fa861a6649821b07b1408d71a9edbd57d",
        "scriptpubkey_asm": "OP_PUSHNUM_1 OP_PUSHBYTES_32 f59775653f95c3806e0e4c7b6f48d63fa861a6649821b07b1408d71a9edbd57d",
        "scriptpubkey_type": "v1_p2tr",
        "scriptpubkey_address": "bc1p7kth2efljhpcqmswf3ak7jxk875xrfnynqsmq7c5prt348km647suppsj2",
        "value": 3010
      },
      "scriptsig": "",
      "scriptsig_asm": "",
      "witness": [
        "b7d8e37d4018cec88520ab8fe5e48f36c81a8737e1638fd8998cd9d9e5cfd192c9ce4de2f935ff615589821ef227dfc3e4b4a9c95a2d2082dca8576d4cbfbb70",
        "206cfc59bef3b2d7f3dd97a6cd7facfc9a207f65b7d994309b0bfa4be499fe5596ac0063036f726401011e6170706c69636174696f6e2f6a736f6e3b636861727365743d7574662d38004cbf7b2270223a22706f772d3230222c226f70223a226d696e74222c227469636b223a2250455045222c22616d74223a2231303030222c22736f6c7574696f6e223a22504550453a6263317168337833756334707a796478716436757776376e3732676874787a33753937306564663078613a303030303030303030303030303030303030303139393431613561653132383937363539383134343239323533333030353762306461393666336465613163353a3234343933363039373436227d68",
        "c1e5c6b8d70510d88b341fcdd9a2aa08913e89d9e736480c530fde3fe13419cdab"
      ],
      "is_coinbase": false,
      "sequence": 4294967295
    }
  ],
  "vout": [
    {
      "scriptpubkey": "0014bc4d1e62a1111a60375c733d3f291759851e17cf",
      "scriptpubkey_asm": "OP_0 OP_PUSHBYTES_20 bc4d1e62a1111a60375c733d3f291759851e17cf",
      "scriptpubkey_type": "v0_p2wpkh",
      "scriptpubkey_address": "bc1qh3x3uc4pzydxqd6uwv7n72ghtxz3u970edf0xa",
      "value": 546
    }
  ],
  "size": 455,
  "weight": 701,
  "fee": 2464,
  "status": {
    "confirmed": true,
    "block_height": 834460,
    "block_hash": "00000000000000000000484a79b643b2524bbce82e5d8a442013fa5b8905ed98",
    "block_time": 1710307468
  },
  "hex": "02000000000101c80233d026a8ab27c7220f9d0f25d57d8faeb110cb0cded56c0ac05600d78ed11100000000ffffffff012202000000000000160014bc4d1e62a1111a60375c733d3f291759851e17cf0340b7d8e37d4018cec88520ab8fe5e48f36c81a8737e1638fd8998cd9d9e5cfd192c9ce4de2f935ff615589821ef227dfc3e4b4a9c95a2d2082dca8576d4cbfbb70fd0c01206cfc59bef3b2d7f3dd97a6cd7facfc9a207f65b7d994309b0bfa4be499fe5596ac0063036f726401011e6170706c69636174696f6e2f6a736f6e3b636861727365743d7574662d38004cbf7b2270223a22706f772d3230222c226f70223a226d696e74222c227469636b223a2250455045222c22616d74223a2231303030222c22736f6c7574696f6e223a22504550453a6263317168337833756334707a796478716436757776376e3732676874787a33753937306564663078613a303030303030303030303030303030303030303139393431613561653132383937363539383134343239323533333030353762306461393666336465613163353a3234343933363039373436227d6821c1e5c6b8d70510d88b341fcdd9a2aa08913e89d9e736480c530fde3fe13419cdab00000000"
}