{
  "txid": "368f9821b2a55a4560865f0711624ab207158eed8b72777fd3081a5669704b10",
  "version": 2,
  "locktime": 0,
  "vin": [
    {
      "txid": "88434f2f2acdf09d4629a463196445700cac28253c2527b5f7464c8c4d580af7",
      "vout": 1,
      "prevout": {
        "scriptpubkey": "00141a5a76ebb9dfe63f3beffdef8e4b1b05fcdc5e15",
        "scriptpubkey_asm": "OP_0 OP_PUSHBYTES_20 1a5a76ebb9dfe63f3beffdef8e4b1b05fcdc5e15",
        "scriptpubkey_type": "v0_p2wpkh",
        "scriptpubkey_address": "bc1qrfd8d6aemlnr7wl0lhhcujcmqh7dchs43wtace",
        "value": 53526
      },
      "scriptsig": "",
      "scriptsig_asm": "",
      "witness": [
        "30440220725cd45ca478cbfc162fd138513f454c045f5585084c77a57d63673086e1c31402205c64289be30ab339222090e455c69c1facfc0ab1c50c09776f27a541ebc084df01",
        "035e3d48b7f12a2b0255297fdefc0d9cd9e8905e1ec3785fc55494949ae478c84c"
      ],
      "is_coinbase": false,
      "sequence": 4294967293
    },
    {
      "txid": "e0553759d3f3d5ced3913aa83d5f85abe67fe26223756cf8a3255f77e1902cb1",
      "vout": 687,
      "prevout": {
        "scriptpubkey": "00141a5a76ebb9dfe63f3beffdef8e4b1b05fcdc5e15",
        "scriptpubkey_asm": "OP_0 OP_PUSHBYTES_20 1a5a76ebb9dfe63f3beffdef8e4b1b05fcdc5e15",
        "scriptpubkey_type": "v0_p2wpkh",
        "scriptpubkey_address": "bc1qrfd8d6aemlnr7wl0lhhcujcmqh7dchs43wtace",
        "value": 120905
      },
      "scriptsig": "",
      "scriptsig_asm": "",
      "witness": [
        "304402200249da6a2d3de01b729b0d7f9f132b2336a1d6d13fa72c7df24b39a223165867022056bf8b3dece22ca6f84541ab6a047b89f697b4d0d4f4ddd12c2dad597d551bfa01",
        "035e3d48b7f12a2b0255297fdefc0d9cd9e8905e1ec3785fc55494949ae478c84c"
      ],
      "is_coinbase": false,
      "sequence": 4294967293
    }
  ],
  "vout": [
    {
      "scriptpubkey": "0014369f7c738a35b201e0e8ecc1a137e6cf8fabaa23",
      "scriptpubkey_asm": "OP_0 OP_PUSHBYTES_20 369f7c738a35b201e0e8ecc1a137e6cf8fabaa23",
      "scriptpubkey_type": "v0_p2wpkh",
      "scriptpubkey_address": "bc1qx60hcuu2xkeqrc8ganq6zdlxe786h23rzkjtz7",
      "value": 153000
    },
    {
      "scriptpubkey": "00141a5a76ebb9dfe63f3beffdef8e4b1b05fcdc5e15",
      "scriptpubkey_asm": "OP_0 OP_PUSHBYTES_20 1a5a76ebb9dfe63f3beffdef8e4b1b05fcdc5e15",
      "scriptpubkey_type": "v0_p2wpkh",
      "scriptpubkey_address": "bc1qrfd8d6aemlnr7wl0lhhcujcmqh7dchs43wtace",
      "value": 18435
    }
  ],
  "size": 370,
  "weight": 832,
  "fee": 2996,
  "status": {
    "confirmed": true,
    "block_height": 834460,
    "block_hash": "00000000000000000000484a79b643b2524bbce82e5d8a442013fa5b8905ed98",
    "block_time": 1710307468
  },
  "hex": "02000000000102f70a584d8c4c46f7b527253c2528ac0c7045641963a429469df0cd2a2f4f43880100000000fdffffffb12c90e1775f25a3f86c752362e27fe6ab855f3da83a91d3ced5f3d3593755e0af02000000fdffffff02a855020000000000160014369f7c738a35b201e0e8ecc1a137e6cf8fabaa2303480000000000001600141a5a76ebb9dfe63f3beffdef8e4b1b05fcdc5e15024730440220725cd45ca478cbfc162fd138513f454c045f5585084c77a57d63673086e1c31402205c64289be30ab339222090e455c69c1facfc0ab1c50c09776f27a541ebc084df0121035e3d48b7f12a2b0255297fdefc0d9cd9e8905e1ec3785fc55494949ae478c84c0247304402200249da6a2d3de01b729b0d7f9f132b2336a1d6d13fa72c7df24b39a223165867022056bf8b3dece22ca6f84541ab6a047b89f697b4d0d4f4ddd12c2dad597d551bfa0121035e3d48b7f12a2b0255297fdefc0d9cd9e8905e1ec3785fc55494949ae478c84c00000000"
}