{
  "txid": "36a7ce5b8f6434eb4e68612408b7d6062fc985ee562830cabec961edcfb6da08",
  "version": 2,
  "locktime": 0,
  "vin": [
    {
      "txid": "08e61e10b8ca93d734ed28e31e0e8e4c31af9b24a36d631f6325e2b9dc7c28bf",
      "vout": 2,
      "prevout": {
        "scriptpubkey": "51208547162abad8d84d66c2648b784c5fefb006782b999b6a0ffc0a4d336f31bce6",
        "scriptpubkey_asm": "OP_PUSHNUM_1 OP_PUSHBYTES_32 8547162abad8d84d66c2648b784c5fefb006782b999b6a0ffc0a4d336f31bce6",
        "scriptpubkey_type": "v1_p2tr",
        "scriptpubkey_address": "bc1ps4r3v246mrvy6ekzvj9hsnzla7cqv7ptnxdk5rlupfxnxme3hnnqc3l36k",
        "value": 100851
      },
      "scriptsig": "",
      "scriptsig_asm": "",
      "witness": [
        "7ce71a53d4c20a3811cc608295ce0fa86bf9afdd71aaa053fda8c8e16277aad91f31e6fffda47f282f543294d5d49ba077d984bf276624b0148a0d4cea8e18e6"
      ],
      "is_coinbase": false,
      "sequence": 2147483649
    },
    {
      "txid": "ce18b08e8245135857ddcb26177ac6a74208bfa36abb3b4704411db2ca80ef10",
      "vout": 2,
      "prevout": {
        "scriptpubkey": "51208547162abad8d84d66c2648b784c5fefb006782b999b6a0ffc0a4d336f31bce6",
        "scriptpubkey_asm": "OP_PUSHNUM_1 OP_PUSHBYTES_32 8547162abad8d84d66c2648b784c5fefb006782b999b6a0ffc0a4d336f31bce6",
        "scriptpubkey_type": "v1_p2tr",
        "scriptpubkey_address": "bc1ps4r3v246mrvy6ekzvj9hsnzla7cqv7ptnxdk5rlupfxnxme3hnnqc3l36k",
        "value": 31573
      },
      "scriptsig": "",
      "scriptsig_asm": "",
      "witness": [
        "c1147d58ed683060c1f57aa92c5b94066538852b52e72049c6220eae3ab5a4aa5e93a2a2f847960ed5ff459d771dc14b43ff7bc51bef4083c061df888f76c42f"
      ],
      "is_coinbase": false,
      "sequence": 2147483649
    },
    {
      "txid": "c209e6eada223799e9c3d8918dff70d302d6afb6ae520ae1067357e950919dd5",
      "vout": 0,
      "prevout": {
        "scriptpubkey": "51208547162abad8d84d66c2648b784c5fefb006782b999b6a0ffc0a4d336f31bce6",
        "scriptpubkey_asm": "OP_PUSHNUM_1 OP_PUSHBYTES_32 8547162abad8d84d66c2648b784c5fefb006782b999b6a0ffc0a4d336f31bce6",
        "scriptpubkey_type": "v1_p2tr",
        "scriptpubkey_address": "bc1ps4r3v246mrvy6ekzvj9hsnzla7cqv7ptnxdk5rlupfxnxme3hnnqc3l36k",
        "value": 1200
      },
      "scriptsig": "",
      "scriptsig_asm": "",
      "witness": [
        "f7471caeec7179478f9aee278742f6dd10ab53090d785e40e83c12d41b3aac3703d416505eb48062b159f08d3892e1775d8e67f0d358647397fa41fec0bbca20"
      ],
      "is_coinbase": false,
      "sequence": 2147483649
    },
    {
      "txid": "6e7fccfd71735c9ae841e8acc8636a800c0b5ad8eb136f3be46214a2bfef5aab",
      "vout": 0,
      "prevout": {
        "scriptpubkey": "51208547162abad8d84d66c2648b784c5fefb006782b999b6a0ffc0a4d336f31bce6",
        "scriptpubkey_asm": "OP_PUSHNUM_1 OP_PUSHBYTES_32 8547162abad8d84d66c2648b784c5fefb006782b999b6a0ffc0a4d336f31bce6",
        "scriptpubkey_type": "v1_p2tr",
        "scriptpubkey_address": "bc1ps4r3v246mrvy6ekzvj9hsnzla7cqv7ptnxdk5rlupfxnxme3hnnqc3l36k",
        "value": 1200
      },
      "scriptsig": "",
      "scriptsig_asm": "",
      "witness": [
        "092d4ef2bd65212c8335f6fb76a6dbf684427a3d928da46d482cf53e2c2273d4c7e1d4c730c4210a431351e669192549ea67936dcba4bc5a03c94f92d53e9e36"
      ],
      "is_coinbase": false,
      "sequence": 2147483649
    }
  ],
  "vout": [
    {
      "scriptpubkey": "76a914ab6be3e90bd86b424833ba40cc963af7af137af288ac",
      "scriptpubkey_asm": "OP_DUP OP_HASH160 OP_PUSHBYTES_20 ab6be3e90bd86b424833ba40cc963af7af137af2 OP_EQUALVERIFY OP_CHECKSIG",
      "scriptpubkey_type": "p2pkh",
      "scriptpubkey_address": "1GdPo9jzceimaY9y9xq6x8AsXkB5537zwU",
      "value": 130440
    }
  ],
  "size": 474,
  "weight": 1098,
  "fee": 4384,
  "status": {
    "confirmed": true,
    "block_height": 834638,
    "block_hash": "000000000000000000025f742c626208ac87e0b7d15054abb4a19ca2d735a54e",
    "block_time": 1710405325
  },
  "hex": "02000000000104bf287cdcb9e225631f636da3249baf314c8e0e1ee328ed34d793cab8101ee60802000000000100008010ef80cab21d4104473bbb6aa3bf0842a7c67a1726cbdd57581345828eb018ce020000000001000080d59d9150e9577306e10a52aeb6afd602d370ff8d91d8c3e9993722daeae609c2000000000001000080ab5aefbfa21462e43b6f13ebd85a0b0c806a63c8ace841e89a5c7371fdcc7f6e0000000000010000800188fd0100000000001976a914ab6be3e90bd86b424833ba40cc963af7af137af288ac01407ce71a53d4c20a3811cc608295ce0fa86bf9afdd71aaa053fda8c8e16277aad91f31e6fffda47f282f543294d5d49ba077d984bf276624b0148a0d4cea8e18e60140c1147d58ed683060c1f57aa92c5b94066538852b52e72049c6220eae3ab5a4aa5e93a2a2f847960ed5ff459d771dc14b43ff7bc51bef4083c061df888f76c42f0140f7471caeec7179478f9aee278742f6dd10ab53090d785e40e83c12d41b3aac3703d416505eb48062b159f08d3892e1775d8e67f0d358647397fa41fec0bbca200140092d4ef2bd65212c8335f6fb76a6dbf684427a3d928da46d482cf53e2c2273d4c7e1d4c730c4210a431351e669192549ea67936dcba4bc5a03c94f92d53e9e3600000000"
}