{
  "txid": "36aedff968224e7218506864f75a342bbef3903ea09ba5168e546d62760a1e97",
  "version": 1,
  "locktime": 0,
  "vin": [
    {
      "txid": "25473e243f201b58be0ce5875a00c9c2d516806c0463a54624483bad584a2aa8",
      "vout": 1,
      "prevout": {
        "scriptpubkey": "00147f6bc88c53ee92bcd7f1e20b31668b03f4f71a8a",
        "scriptpubkey_asm": "OP_0 OP_PUSHBYTES_20 7f6bc88c53ee92bcd7f1e20b31668b03f4f71a8a",
        "scriptpubkey_type": "v0_p2wpkh",
        "scriptpubkey_address": "bc1q0a4u3rzna6fte4l3ug9nze5tq060wx52lrsgn0",
        "value": 733997
      },
      "scriptsig": "",
      "scriptsig_asm": "",
      "witness": [
        "3044022055295d176132b83454aeacee3442814afdb61e0d8ad43c99c9644e21d455ab9402202f6810d40bcbb31c591fcc3b96b4ec11dbe76b54d8b4638e89c1b4baeef23eab01",
        "0278a7389c3e2624668414aa8f0beffb0b6145ae981ccbe3b518ff433770d3c95f"
      ],
      "is_coinbase": false,
      "sequence": 4294967295
    }
  ],
  "vout": [
    {
      "scriptpubkey": "a9146c1a0270757eb085e638580b5144ecf3f38631e087",
      "scriptpubkey_asm": "OP_HASH160 OP_PUSHBYTES_20 6c1a0270757eb085e638580b5144ecf3f38631e0 OP_EQUAL",
      "scriptpubkey_type": "p2sh",
      "scriptpubkey_address": "3BYc4SC8fGCaSBocDPCJKrTv23FdAe2yBz",
      "value": 231741
    },
    {
      "scriptpubkey": "00147f6bc88c53ee92bcd7f1e20b31668b03f4f71a8a",
      "scriptpubkey_asm": "OP_0 OP_PUSHBYTES_20 7f6bc88c53ee92bcd7f1e20b31668b03f4f71a8a",
      "scriptpubkey_type": "v0_p2wpkh",
      "scriptpubkey_address": "bc1q0a4u3rzna6fte4l3ug9nze5tq060wx52lrsgn0",
      "value": 498422
    }
  ],
  "size": 223,
  "weight": 565,
  "fee": 3834,
  "status": {
    "confirmed": true,
    "block_height": 834638,
    "block_hash": "000000000000000000025f742c626208ac87e0b7d15054abb4a19ca2d735a54e",
    "block_time": 1710405325
  },
  "hex": "01000000000101a82a4a58ad3b482446a563046c8016d5c2c9005a87e50cbe581b203f243e47250100000000ffffffff023d8903000000000017a9146c1a0270757eb085e638580b5144ecf3f38631e087f69a0700000000001600147f6bc88c53ee92bcd7f1e20b31668b03f4f71a8a02473044022055295d176132b83454aeacee3442814afdb61e0d8ad43c99c9644e21d455ab9402202f6810d40bcbb31c591fcc3b96b4ec11dbe76b54d8b4638e89c1b4baeef23eab01210278a7389c3e2624668414aa8f0beffb0b6145ae981ccbe3b518ff433770d3c95f00000000"
}