{
  "txid": "36cbf593ac8db5a927448625b29bd3f415a5583b323811142e1ebb8e7cd28d4c",
  "version": 2,
  "locktime": 0,
  "vin": [
    {
      "txid": "5c3864e3e852ec96346d84fbc3195b536ef1db1891f28d4b48dba69c282b1a0d",
      "vout": 14,
      "prevout": {
        "scriptpubkey": "51202a7dd405c4aeac19989278e38bb1c59e85b675a3b7b84cc9211d0fc2ee1c9bce",
        "scriptpubkey_asm": "OP_PUSHNUM_1 OP_PUSHBYTES_32 2a7dd405c4aeac19989278e38bb1c59e85b675a3b7b84cc9211d0fc2ee1c9bce",
        "scriptpubkey_type": "v1_p2tr",
        "scriptpubkey_address": "bc1p9f7agpwy46kpnxyj0r3chvw9n6zmvadrk7uyejfpr58u9msun08qxaf9y6",
        "value": 3042
      },
      "scriptsig": "",
      "scriptsig_asm": "",
      "witness": [
        "fb1cd6a0a5842a84eb9eed7cce6a18024fc1c015ddec7b64f5a1020b62e19fe4c712fbd620e7a0fc4ac5889585582a9ba54e5072257e1f87022b20436b37c92a",
        "20caa58328f574c78b8ccefd978cc2aff443c609ea999615f6a6341ea8f3fe82b1ac0063036f726401011e6170706c69636174696f6e2f6a736f6e3b636861727365743d7574662d38004cd17b2270223a22706f772d3230222c226f70223a226d696e74222c227469636b223a2250455045222c22616d74223a2231303030222c22736f6c7574696f6e223a22504550453a626331703237796d68736b396a36716e706b7367767973363471356663717670646465716a6832716a796c6330793861667138663261727375637776796b3a303030303030303030303030303030303030303139393431613561653132383937363539383134343239323533333030353762306461393666336465613163353a323532383730333738227d68",
        "c129e6ca6c8c5ab61eaab81da0d3884f0ac7596b050aac6663ac46dee308a1dbc8"
      ],
      "is_coinbase": false,
      "sequence": 4294967295
    }
  ],
  "vout": [
    {
      "scriptpubkey": "51205789bbc2c5968130da086121aa8289c01816b72095d40913f8790fd480e95747",
      "scriptpubkey_asm": "OP_PUSHNUM_1 OP_PUSHBYTES_32 5789bbc2c5968130da086121aa8289c01816b72095d40913f8790fd480e95747",
      "scriptpubkey_type": "v1_p2tr",
      "scriptpubkey_address": "bc1p27ymhsk9j6qnpksgvys64q5fcqvpddeqjh2qjylc0y8afq8f2arsucwvyk",
      "value": 546
    }
  ],
  "size": 485,
  "weight": 767,
  "fee": 2496,
  "status": {
    "confirmed": true,
    "block_height": 834460,
    "block_hash": "00000000000000000000484a79b643b2524bbce82e5d8a442013fa5b8905ed98",
    "block_time": 1710307468
  },
  "hex": "020000000001010d1a2b289ca6db484b8df29118dbf16e535b19c3fb846d3496ec52e8e364385c0e00000000ffffffff0122020000000000002251205789bbc2c5968130da086121aa8289c01816b72095d40913f8790fd480e957470340fb1cd6a0a5842a84eb9eed7cce6a18024fc1c015ddec7b64f5a1020b62e19fe4c712fbd620e7a0fc4ac5889585582a9ba54e5072257e1f87022b20436b37c92afd1e0120caa58328f574c78b8ccefd978cc2aff443c609ea999615f6a6341ea8f3fe82b1ac0063036f726401011e6170706c69636174696f6e2f6a736f6e3b636861727365743d7574662d38004cd17b2270223a22706f772d3230222c226f70223a226d696e74222c227469636b223a2250455045222c22616d74223a2231303030222c22736f6c7574696f6e223a22504550453a626331703237796d68736b396a36716e706b7367767973363471356663717670646465716a6832716a796c6330793861667138663261727375637776796b3a303030303030303030303030303030303030303139393431613561653132383937363539383134343239323533333030353762306461393666336465613163353a323532383730333738227d6821c129e6ca6c8c5ab61eaab81da0d3884f0ac7596b050aac6663ac46dee308a1dbc800000000"
}