{
  "txid": "36d3492ad5f22e98f29ce0cfe575ce63a3f7a04b599580d33ad8b5251a396fa4",
  "version": 2,
  "locktime": 0,
  "vin": [
    {
      "txid": "db956d6f8d75e426cc1448cacdd556af8d1e1a490e5abdf326dcacdbc3c47755",
      "vout": 0,
      "prevout": {
        "scriptpubkey": "001450587279399aa15191e7b53258768adc7c44dc43",
        "scriptpubkey_asm": "OP_0 OP_PUSHBYTES_20 50587279399aa15191e7b53258768adc7c44dc43",
        "scriptpubkey_type": "v0_p2wpkh",
        "scriptpubkey_address": "bc1q2pv8y7fen2s4ry08k5e9sa52m37yfhzry8cf89",
        "value": 19275397
      },
      "scriptsig": "",
      "scriptsig_asm": "",
      "witness": [
        "304402204bca68f31eaf0a6e4cf224fd9686b2c843b0006234b58986d518d4ce07d5af5b022073fccb204a9d06396acee6588481ecfb9c2836b6fc983ce8ee93cefbbb9a0ca901",
        "021c0e8ed01b0df036a1f692be10928faab405f25035f38efe2eb0ee7dc30c6801"
      ],
      "is_coinbase": false,
      "sequence": 4294967295
    }
  ],
  "vout": [
    {
      "scriptpubkey": "001450587279399aa15191e7b53258768adc7c44dc43",
      "scriptpubkey_asm": "OP_0 OP_PUSHBYTES_20 50587279399aa15191e7b53258768adc7c44dc43",
      "scriptpubkey_type": "v0_p2wpkh",
      "scriptpubkey_address": "bc1q2pv8y7fen2s4ry08k5e9sa52m37yfhzry8cf89",
      "value": 15336403
    },
    {
      "scriptpubkey": "00142ace6d7e66ee49da67c91c1335e5e18f92e3e4cf",
      "scriptpubkey_asm": "OP_0 OP_PUSHBYTES_20 2ace6d7e66ee49da67c91c1335e5e18f92e3e4cf",
      "scriptpubkey_type": "v0_p2wpkh",
      "scriptpubkey_address": "bc1q9t8x6lnxaeya5e7frsfnte0p37fw8ex0jdjhqh",
      "value": 3935844
    }
  ],
  "size": 222,
  "weight": 561,
  "fee": 3150,
  "status": {
    "confirmed": true,
    "block_height": 834638,
    "block_hash": "000000000000000000025f742c626208ac87e0b7d15054abb4a19ca2d735a54e",
    "block_time": 1710405325
  },
  "hex": "020000000001015577c4c3dbacdc26f3bd5a0e491a1e8daf56d5cdca4814cc26e4758d6f6d95db0000000000ffffffff02d303ea000000000016001450587279399aa15191e7b53258768adc7c44dc43640e3c00000000001600142ace6d7e66ee49da67c91c1335e5e18f92e3e4cf0247304402204bca68f31eaf0a6e4cf224fd9686b2c843b0006234b58986d518d4ce07d5af5b022073fccb204a9d06396acee6588481ecfb9c2836b6fc983ce8ee93cefbbb9a0ca90121021c0e8ed01b0df036a1f692be10928faab405f25035f38efe2eb0ee7dc30c680100000000"
}