{
  "txid": "36d6c6ebe044e5bd11c9d4968b412ddc7f7b3861091089418e41a3ae4294c4c7",
  "version": 2,
  "locktime": 834637,
  "vin": [
    {
      "txid": "528551821e55f8a13f95b9eae9b5378875be0ad5a8cb0ba7436b53ab412b2782",
      "vout": 13,
      "prevout": {
        "scriptpubkey": "0014d1e1a4355b15028f275ecc9fb4c0254eddc58bbb",
        "scriptpubkey_asm": "OP_0 OP_PUSHBYTES_20 d1e1a4355b15028f275ecc9fb4c0254eddc58bbb",
        "scriptpubkey_type": "v0_p2wpkh",
        "scriptpubkey_address": "bc1q68s6gd2mz5pg7f67ej0mfsp9fmwutzamcc2s46",
        "value": 45663
      },
      "scriptsig": "",
      "scriptsig_asm": "",
      "witness": [
        "30440220609329efdc0e1e0b5bc9271db4eb6a1ecf10c7ee6d7b4846b46116e2107f289702205e16d955674ab8cd228d76ed8bc819a486dec8ed31b8bd39f52c71824ccac08801",
        "0357bc097ea7b6e7f5d2ce3cd887c2bd53f6ed0bb78286dafefbced1424c15b99a"
      ],
      "is_coinbase": false,
      "sequence": 4294967294
    }
  ],
  "vout": [
    {
      "scriptpubkey": "0014c37d2b6fdf3b98d2362e6d62461842321fc66997",
      "scriptpubkey_asm": "OP_0 OP_PUSHBYTES_20 c37d2b6fdf3b98d2362e6d62461842321fc66997",
      "scriptpubkey_type": "v0_p2wpkh",
      "scriptpubkey_address": "bc1qcd7jkm7l8wvdyd3wd43yvxzzxg0uv6vhe00lgm",
      "value": 42191
    }
  ],
  "size": 191,
  "weight": 437,
  "fee": 3472,
  "status": {
    "confirmed": true,
    "block_height": 834638,
    "block_hash": "000000000000000000025f742c626208ac87e0b7d15054abb4a19ca2d735a54e",
    "block_time": 1710405325
  },
  "hex": "0200000000010182272b41ab536b43a70bcba8d50abe758837b5e9eab9953fa1f8551e825185520d00000000feffffff01cfa4000000000000160014c37d2b6fdf3b98d2362e6d62461842321fc66997024730440220609329efdc0e1e0b5bc9271db4eb6a1ecf10c7ee6d7b4846b46116e2107f289702205e16d955674ab8cd228d76ed8bc819a486dec8ed31b8bd39f52c71824ccac08801210357bc097ea7b6e7f5d2ce3cd887c2bd53f6ed0bb78286dafefbced1424c15b99a4dbc0c00"
}