{
  "txid": "36e2fc0d2cfa705780b4e62bebb68a855ec4c40cac77b1f97ddfb3dd1fd5bad9",
  "version": 1,
  "locktime": 0,
  "vin": [
    {
      "txid": "3a6b4093cb554b8bb30027b693a2210c4912724a0c2b6304e33231182d94d9ee",
      "vout": 0,
      "prevout": {
        "scriptpubkey": "a91429fa7a359a33928a2374af298485916d320c338c87",
        "scriptpubkey_asm": "OP_HASH160 OP_PUSHBYTES_20 29fa7a359a33928a2374af298485916d320c338c OP_EQUAL",
        "scriptpubkey_type": "p2sh",
        "scriptpubkey_address": "35Wygt8J1miWQbGecQnasDdhcidDQrMzRR",
        "value": 4212900
      },
      "scriptsig": "16001492bb5cc0ad5ae21c1c65b9f1b1877d01c7bd3a2f",
      "scriptsig_asm": "OP_PUSHBYTES_22 001492bb5cc0ad5ae21c1c65b9f1b1877d01c7bd3a2f",
      "witness": [
        "3045022100ad047cea7189103ce19eac037e0cafc04c6842839019ea9919cd4dc7b8a261ed02202803731e2f4e8b5cab9f9ac5efe086d00e00c5af087995bb171312c79e90ea0301",
        "03cc0d3e56ef0311897e6a338c55251835bf1d4f69a826559cdf1496fec3acfd6d"
      ],
      "is_coinbase": false,
      "sequence": 4294967295,
      "inner_redeemscript_asm": "OP_0 OP_PUSHBYTES_20 92bb5cc0ad5ae21c1c65b9f1b1877d01c7bd3a2f"
    }
  ],
  "vout": [
    {
      "scriptpubkey": "a9143976ef6f549622e930a52b528d2570f36e8da77f87",
      "scriptpubkey_asm": "OP_HASH160 OP_PUSHBYTES_20 3976ef6f549622e930a52b528d2570f36e8da77f OP_EQUAL",
      "scriptpubkey_type": "p2sh",
      "scriptpubkey_address": "36vrvFHSzS2CK1YHqCW823FrcESCMJ8MDu",
      "value": 17204
    },
    {
      "scriptpubkey": "a9146da7de9a50022f0fd624fc8c81cfce20ee0c9f3787",
      "scriptpubkey_asm": "OP_HASH160 OP_PUSHBYTES_20 6da7de9a50022f0fd624fc8c81cfce20ee0c9f37 OP_EQUAL",
      "scriptpubkey_type": "p2sh",
      "scriptpubkey_address": "3BgpgEVsLW4GVxG3TL3y4yF3wSpB1H6Ckj",
      "value": 4193870
    }
  ],
  "size": 248,
  "weight": 662,
  "fee": 1826,
  "status": {
    "confirmed": true,
    "block_height": 834464,
    "block_hash": "0000000000000000000177a0869a911a2b65c9bdcd5a8bcb02b68f305bee848e",
    "block_time": 1710308296
  },
  "hex": "01000000000101eed9942d183132e304632b0c4a7212490c21a293b62700b38b4b55cb93406b3a000000001716001492bb5cc0ad5ae21c1c65b9f1b1877d01c7bd3a2fffffffff02344300000000000017a9143976ef6f549622e930a52b528d2570f36e8da77f874efe3f000000000017a9146da7de9a50022f0fd624fc8c81cfce20ee0c9f378702483045022100ad047cea7189103ce19eac037e0cafc04c6842839019ea9919cd4dc7b8a261ed02202803731e2f4e8b5cab9f9ac5efe086d00e00c5af087995bb171312c79e90ea03012103cc0d3e56ef0311897e6a338c55251835bf1d4f69a826559cdf1496fec3acfd6d00000000"
}