{
  "txid": "36e4a20442fe3193db200877dd46d763ce79e3855915a56d631bf12136aebf10",
  "version": 2,
  "locktime": 0,
  "vin": [
    {
      "txid": "2ee7e9bc2f0f43192f5d2dcb9ba2f7bf417e46f7a86aea7e61bf494a2116911f",
      "vout": 1,
      "prevout": {
        "scriptpubkey": "5120129afbd46042c336ccd48a91bdd02bcd7e4e3502d586b8974c6201f0cd0689c4",
        "scriptpubkey_asm": "OP_PUSHNUM_1 OP_PUSHBYTES_32 129afbd46042c336ccd48a91bdd02bcd7e4e3502d586b8974c6201f0cd0689c4",
        "scriptpubkey_type": "v1_p2tr",
        "scriptpubkey_address": "bc1pz2d0h4rqgtpndnx532gmm5pte4lyudgz6krt396vvgqlpngx38zqts4jxa",
        "value": 2850
      },
      "scriptsig": "",
      "scriptsig_asm": "",
      "witness": [
        "94f4e04a3eef0dfe55167933377c1bd2124fd1790642a8da47b820e5f6ebe49f65c13d72dbde43fdfed0187e4317d0107ed543bb1239edddabaf97dd1e3a0508",
        "2055dddc4318de966fab2054d39229fb04a8c9787fe5518a030b4abb253e3ba152ac0063036f726401011e6170706c69636174696f6e2f6a736f6e3b636861727365743d7574662d38004cd27b2270223a22706f772d3230222c226f70223a226d696e74222c227469636b223a2250455045222c22616d74223a2231303030222c22736f6c7574696f6e223a22504550453a6263317032643677617a36736d6332646c33337861686b7364747a70793379397164713670677072776d3535376d303063646135303976733972333779633a303030303030303030303030303030303030303139393431613561653132383937363539383134343239323533333030353762306461393666336465613163353a37303134323033363734227d68",
        "c1c302becc0a7fa5f96ff01f380e695b2faa1e460e5e66e108f6410cf3df3f4a28"
      ],
      "is_coinbase": false,
      "sequence": 4294967295
    }
  ],
  "vout": [
    {
      "scriptpubkey": "51205374ee8b50de14dfc626eded06ac41244850341a0a02376e94f6defc37b47959",
      "scriptpubkey_asm": "OP_PUSHNUM_1 OP_PUSHBYTES_32 5374ee8b50de14dfc626eded06ac41244850341a0a02376e94f6defc37b47959",
      "scriptpubkey_type": "v1_p2tr",
      "scriptpubkey_address": "bc1p2d6waz6smc2dl33xahksdtzpy3y9qdq6pgprwm557m00cda509vs9r37yc",
      "value": 546
    }
  ],
  "size": 486,
  "weight": 768,
  "fee": 2304,
  "status": {
    "confirmed": true,
    "block_height": 834460,
    "block_hash": "00000000000000000000484a79b643b2524bbce82e5d8a442013fa5b8905ed98",
    "block_time": 1710307468
  },
  "hex": "020000000001011f9116214a49bf617eea6aa8f7467e41bff7a29bcb2d5d2f19430f2fbce9e72e0100000000ffffffff0122020000000000002251205374ee8b50de14dfc626eded06ac41244850341a0a02376e94f6defc37b47959034094f4e04a3eef0dfe55167933377c1bd2124fd1790642a8da47b820e5f6ebe49f65c13d72dbde43fdfed0187e4317d0107ed543bb1239edddabaf97dd1e3a0508fd1f012055dddc4318de966fab2054d39229fb04a8c9787fe5518a030b4abb253e3ba152ac0063036f726401011e6170706c69636174696f6e2f6a736f6e3b636861727365743d7574662d38004cd27b2270223a22706f772d3230222c226f70223a226d696e74222c227469636b223a2250455045222c22616d74223a2231303030222c22736f6c7574696f6e223a22504550453a6263317032643677617a36736d6332646c33337861686b7364747a70793379397164713670677072776d3535376d303063646135303976733972333779633a303030303030303030303030303030303030303139393431613561653132383937363539383134343239323533333030353762306461393666336465613163353a37303134323033363734227d6821c1c302becc0a7fa5f96ff01f380e695b2faa1e460e5e66e108f6410cf3df3f4a2800000000"
}