{
  "txid": "372e95302e54cdbbc6221aa066d3f7bfc08cde388b6e4cf4a448ee180322518b",
  "version": 2,
  "locktime": 834459,
  "vin": [
    {
      "txid": "88679e080f5d127629cc856f12095540d4e1524450fb62e81444ece95d62791c",
      "vout": 0,
      "prevout": {
        "scriptpubkey": "00140c1738d01c93504d03a0268060c303681106e6d8",
        "scriptpubkey_asm": "OP_0 OP_PUSHBYTES_20 0c1738d01c93504d03a0268060c303681106e6d8",
        "scriptpubkey_type": "v0_p2wpkh",
        "scriptpubkey_address": "bc1qpstn35qujdgy6qaqy6qxpscrdqgsdekcahhrnp",
        "value": 1537690
      },
      "scriptsig": "",
      "scriptsig_asm": "",
      "witness": [
        "304402202d303d95c523f5b7521335847bbe3dc8f60195b8e7ad3f86333c4a5764242a9102200d1181d4afba176f674492a1249e0fc282a56cfcb000fd29506dc94e78921e8001",
        "03120eb38a4449abbff8a72c5d6dbe5d78fe8789973df2b53919c7cfc120d11e18"
      ],
      "is_coinbase": false,
      "sequence": 4294967293
    },
    {
      "txid": "098c2489bdbb5d728fd74327edf0303f0a2185bf5871b636ab9322cdfe7e73d5",
      "vout": 1,
      "prevout": {
        "scriptpubkey": "00146d6dfce0a7fcb0a8da94c031edab998a47e621f7",
        "scriptpubkey_asm": "OP_0 OP_PUSHBYTES_20 6d6dfce0a7fcb0a8da94c031edab998a47e621f7",
        "scriptpubkey_type": "v0_p2wpkh",
        "scriptpubkey_address": "bc1qd4klec98ljc23k55cqc7m2ue3fr7vg0huw632u",
        "value": 199940967
      },
      "scriptsig": "",
      "scriptsig_asm": "",
      "witness": [
        "304402203708bc32d154f5722d443c7482f2cbdd2ded50fb2eb27782a53cfd9c4aa4e34902205b7838d052381089d3597f00313866cca8725a0d2baf86a2f32aa155020cd7b101",
        "02853231c9aa729e98260b99edf69835675f292a190cbed49cccf96fe4822ff94c"
      ],
      "is_coinbase": false,
      "sequence": 4294967293
    }
  ],
  "vout": [
    {
      "scriptpubkey": "0014868eeef6fce76e2c0d9fc20654e765ef7c992217",
      "scriptpubkey_asm": "OP_0 OP_PUSHBYTES_20 868eeef6fce76e2c0d9fc20654e765ef7c992217",
      "scriptpubkey_type": "v0_p2wpkh",
      "scriptpubkey_address": "bc1qs68waahuuahzcrvlcgr9fem9aa7fjgsh95frcl",
      "value": 200000000
    },
    {
      "scriptpubkey": "001433c7d717e5da13b8e6ca0bf40224610bbf3c8b6d",
      "scriptpubkey_asm": "OP_0 OP_PUSHBYTES_20 33c7d717e5da13b8e6ca0bf40224610bbf3c8b6d",
      "scriptpubkey_type": "v0_p2wpkh",
      "scriptpubkey_address": "bc1qx0raw9l9mgfm3ek2p06qyfrppwlnezmdstlqnm",
      "value": 1474280
    }
  ],
  "size": 370,
  "weight": 832,
  "fee": 4377,
  "status": {
    "confirmed": true,
    "block_height": 834460,
    "block_hash": "00000000000000000000484a79b643b2524bbce82e5d8a442013fa5b8905ed98",
    "block_time": 1710307468
  },
  "hex": "020000000001021c79625de9ec4414e862fb504452e1d4405509126f85cc2976125d0f089e67880000000000fdffffffd5737efecd2293ab36b67158bf85210a3f30f0ed2743d78f725dbbbd89248c090100000000fdffffff0200c2eb0b00000000160014868eeef6fce76e2c0d9fc20654e765ef7c992217e87e16000000000016001433c7d717e5da13b8e6ca0bf40224610bbf3c8b6d0247304402202d303d95c523f5b7521335847bbe3dc8f60195b8e7ad3f86333c4a5764242a9102200d1181d4afba176f674492a1249e0fc282a56cfcb000fd29506dc94e78921e80012103120eb38a4449abbff8a72c5d6dbe5d78fe8789973df2b53919c7cfc120d11e180247304402203708bc32d154f5722d443c7482f2cbdd2ded50fb2eb27782a53cfd9c4aa4e34902205b7838d052381089d3597f00313866cca8725a0d2baf86a2f32aa155020cd7b1012102853231c9aa729e98260b99edf69835675f292a190cbed49cccf96fe4822ff94c9bbb0c00"
}