{
  "txid": "3744de57025ea32d934798ea141316675594a7f8e96ec2ef62e5b531efe9f249",
  "version": 2,
  "locktime": 0,
  "vin": [
    {
      "txid": "52c970455b4af5d8463c7a5447a5d289c7b0a257d7cd6415a72ae7fad7ce916b",
      "vout": 0,
      "prevout": {
        "scriptpubkey": "00141e914eeda554d3f3c7e5650783be8ee57a5626c9",
        "scriptpubkey_asm": "OP_0 OP_PUSHBYTES_20 1e914eeda554d3f3c7e5650783be8ee57a5626c9",
        "scriptpubkey_type": "v0_p2wpkh",
        "scriptpubkey_address": "bc1qr6g5amd92nfl83l9v5rc805wu4a9vfkfny63rf",
        "value": 65000
      },
      "scriptsig": "",
      "scriptsig_asm": "",
      "witness": [
        "30440220050cebc22e86e1d449626a1680f54d1d61ae03a7d4d1278fa7fde5a1e13401b8022049bce231dc3c21c38d6811d408d70445a06479b519fa9831f30d08bccf6905c301",
        "03a22167b43b7475ba926c7a4eecd42ba4efd770b5693b785145ed154f7532e110"
      ],
      "is_coinbase": false,
      "sequence": 4294967295
    },
    {
      "txid": "52c970455b4af5d8463c7a5447a5d289c7b0a257d7cd6415a72ae7fad7ce916b",
      "vout": 1,
      "prevout": {
        "scriptpubkey": "00141e914eeda554d3f3c7e5650783be8ee57a5626c9",
        "scriptpubkey_asm": "OP_0 OP_PUSHBYTES_20 1e914eeda554d3f3c7e5650783be8ee57a5626c9",
        "scriptpubkey_type": "v0_p2wpkh",
        "scriptpubkey_address": "bc1qr6g5amd92nfl83l9v5rc805wu4a9vfkfny63rf",
        "value": 810
      },
      "scriptsig": "",
      "scriptsig_asm": "",
      "witness": [
        "304402200c7cd026dca9be617bae8f70810c0d03cbc3f307db2c9e19d93a22d03b7b280a022054eb4ab3316c7ad81c99d211c0aec43cd343dbb19f3d8fc1c3719c204de25ead01",
        "03a22167b43b7475ba926c7a4eecd42ba4efd770b5693b785145ed154f7532e110"
      ],
      "is_coinbase": false,
      "sequence": 4294967295
    }
  ],
  "vout": [
    {
      "scriptpubkey": "00140815a651f6a72637923600b2c6ca1d90d6685156",
      "scriptpubkey_asm": "OP_0 OP_PUSHBYTES_20 0815a651f6a72637923600b2c6ca1d90d6685156",
      "scriptpubkey_type": "v0_p2wpkh",
      "scriptpubkey_address": "bc1qpq26v50k5unr0y3kqzevdjsajrtxs52ktncy33",
      "value": 63912
    }
  ],
  "size": 339,
  "weight": 708,
  "fee": 1898,
  "status": {
    "confirmed": true,
    "block_height": 834464,
    "block_hash": "0000000000000000000177a0869a911a2b65c9bdcd5a8bcb02b68f305bee848e",
    "block_time": 1710308296
  },
  "hex": "020000000001026b91ced7fae72aa71564cdd757a2b0c789d2a547547a3c46d8f54a5b4570c9520000000000ffffffff6b91ced7fae72aa71564cdd757a2b0c789d2a547547a3c46d8f54a5b4570c9520100000000ffffffff01a8f90000000000001600140815a651f6a72637923600b2c6ca1d90d6685156024730440220050cebc22e86e1d449626a1680f54d1d61ae03a7d4d1278fa7fde5a1e13401b8022049bce231dc3c21c38d6811d408d70445a06479b519fa9831f30d08bccf6905c3012103a22167b43b7475ba926c7a4eecd42ba4efd770b5693b785145ed154f7532e1100247304402200c7cd026dca9be617bae8f70810c0d03cbc3f307db2c9e19d93a22d03b7b280a022054eb4ab3316c7ad81c99d211c0aec43cd343dbb19f3d8fc1c3719c204de25ead012103a22167b43b7475ba926c7a4eecd42ba4efd770b5693b785145ed154f7532e11000000000"
}