{
  "txid": "37735c20190ea6b6784beb5568a0e1d34979e977ccf04620e09bc8bb1108facc",
  "version": 2,
  "locktime": 0,
  "vin": [
    {
      "txid": "8486ecb4df0880316dd6e82b3971b4df187aff23765bc3a47f8d78bb53aa273c",
      "vout": 43,
      "prevout": {
        "scriptpubkey": "51202082d14cd65158a328e3c9016d57a44cce369dacd0b7e1c7e8b3f7b3ab9b625b",
        "scriptpubkey_asm": "OP_PUSHNUM_1 OP_PUSHBYTES_32 2082d14cd65158a328e3c9016d57a44cce369dacd0b7e1c7e8b3f7b3ab9b625b",
        "scriptpubkey_type": "v1_p2tr",
        "scriptpubkey_address": "bc1pyzpdznxk29v2x28reyqk64ayfn8rd8dv6zm7r3lgk0mm82umvfdsamvyxx",
        "value": 2575
      },
      "scriptsig": "",
      "scriptsig_asm": "",
      "witness": [
        "f3f352c8658869f0fca18b24ebc822f72d7ccea3df20c9870cac480033ca652d2f33ed23a7ac853448d1287a2c52c2f03922f4eced8506503e96154d330f521f",
        "20f0e376878aa128d43f758b323584d3a2d20c96fd41cc689f24ad5126ad6e94a9ac0063036f726401010a746578742f706c61696e00367b2270223a226272632d3230222c226f70223a226d696e74222c227469636b223a2261616161222c22616d74223a223130303030227d68",
        "c0f0e376878aa128d43f758b323584d3a2d20c96fd41cc689f24ad5126ad6e94a9"
      ],
      "is_coinbase": false,
      "sequence": 4261412863
    }
  ],
  "vout": [
    {
      "scriptpubkey": "0014ddd7ef12ea6f78edcc1e8e7afa12c01ab59f3339",
      "scriptpubkey_asm": "OP_0 OP_PUSHBYTES_20 ddd7ef12ea6f78edcc1e8e7afa12c01ab59f3339",
      "scriptpubkey_type": "v0_p2wpkh",
      "scriptpubkey_address": "bc1qmht77yh2dauwmnq73ea05ykqr26e7veea8spz6",
      "value": 546
    }
  ],
  "size": 295,
  "weight": 541,
  "fee": 2029,
  "status": {
    "confirmed": true,
    "block_height": 834460,
    "block_hash": "00000000000000000000484a79b643b2524bbce82e5d8a442013fa5b8905ed98",
    "block_time": 1710307468
  },
  "hex": "020000000001013c27aa53bb788d7fa4c35b7623ff7a18dfb471392be8d66d318008dfb4ec86842b00000000fffffffd012202000000000000160014ddd7ef12ea6f78edcc1e8e7afa12c01ab59f33390340f3f352c8658869f0fca18b24ebc822f72d7ccea3df20c9870cac480033ca652d2f33ed23a7ac853448d1287a2c52c2f03922f4eced8506503e96154d330f521f6e20f0e376878aa128d43f758b323584d3a2d20c96fd41cc689f24ad5126ad6e94a9ac0063036f726401010a746578742f706c61696e00367b2270223a226272632d3230222c226f70223a226d696e74222c227469636b223a2261616161222c22616d74223a223130303030227d6821c0f0e376878aa128d43f758b323584d3a2d20c96fd41cc689f24ad5126ad6e94a900000000"
}