{
  "txid": "3774e9bcd930e166d1131939f623b3f5178948b14e5fa53dc5dbce7e1c6b3258",
  "version": 2,
  "locktime": 0,
  "vin": [
    {
      "txid": "14e2167695fd53b97ae50c0a70e65ac4ef7ad1480621c0c13d9d798945a5d5dc",
      "vout": 14,
      "prevout": {
        "scriptpubkey": "51209b8154d8770c07406de0cf67977d8bc8e895853002bec8aa6d3024a12861d244",
        "scriptpubkey_asm": "OP_PUSHNUM_1 OP_PUSHBYTES_32 9b8154d8770c07406de0cf67977d8bc8e895853002bec8aa6d3024a12861d244",
        "scriptpubkey_type": "v1_p2tr",
        "scriptpubkey_address": "bc1pnwq4fkrhpsr5qm0qeanewlvter5ftpfsq2lv32ndxqj2z2rp6fzq7zk028",
        "value": 2850
      },
      "scriptsig": "",
      "scriptsig_asm": "",
      "witness": [
        "b645fc065e8bff75ef16623aa811b68e27262df5d49c519bb97dc97de9ba2d3dcbb6a3882c806370b685e5bd65c223e3fbbc645adcb9bf04ddb6228c3962f851",
        "204d784c3f63dbb4436950f57439d31445a44d955124b6d324eb08f5320f6e4e6bac0063036f726401011e6170706c69636174696f6e2f6a736f6e3b636861727365743d7574662d38004cd27b2270223a22706f772d3230222c226f70223a226d696e74222c227469636b223a2250455045222c22616d74223a2231303030222c22736f6c7574696f6e223a22504550453a62633170673935386e6b7a747678347271756e78676d747a6c35666e70666b633330776a323770777367396e6c706a786b796e64793671737376386c6b303a303030303030303030303030303030303030303139393431613561653132383937363539383134343239323533333030353762306461393666336465613163353a38393533363830313633227d68",
        "c1631b34e489e80d4fba35164e5ad52a60d66865df7d7db84d2adbf53ec13ca2a1"
      ],
      "is_coinbase": false,
      "sequence": 4294967295
    }
  ],
  "vout": [
    {
      "scriptpubkey": "5120416879d84b61aa30726646d62fd1330a6d88bdd25782e820b3f8646b126d2681",
      "scriptpubkey_asm": "OP_PUSHNUM_1 OP_PUSHBYTES_32 416879d84b61aa30726646d62fd1330a6d88bdd25782e820b3f8646b126d2681",
      "scriptpubkey_type": "v1_p2tr",
      "scriptpubkey_address": "bc1pg958nkztvx4rqunxgmtzl5fnpfkc30wj27pwsg9nlpjxkyndy6qssv8lk0",
      "value": 546
    }
  ],
  "size": 486,
  "weight": 768,
  "fee": 2304,
  "status": {
    "confirmed": true,
    "block_height": 834460,
    "block_hash": "00000000000000000000484a79b643b2524bbce82e5d8a442013fa5b8905ed98",
    "block_time": 1710307468
  },
  "hex": "02000000000101dcd5a54589799d3dc1c0210648d17aefc45ae6700a0ce57ab953fd957616e2140e00000000ffffffff012202000000000000225120416879d84b61aa30726646d62fd1330a6d88bdd25782e820b3f8646b126d26810340b645fc065e8bff75ef16623aa811b68e27262df5d49c519bb97dc97de9ba2d3dcbb6a3882c806370b685e5bd65c223e3fbbc645adcb9bf04ddb6228c3962f851fd1f01204d784c3f63dbb4436950f57439d31445a44d955124b6d324eb08f5320f6e4e6bac0063036f726401011e6170706c69636174696f6e2f6a736f6e3b636861727365743d7574662d38004cd27b2270223a22706f772d3230222c226f70223a226d696e74222c227469636b223a2250455045222c22616d74223a2231303030222c22736f6c7574696f6e223a22504550453a62633170673935386e6b7a747678347271756e78676d747a6c35666e70666b633330776a323770777367396e6c706a786b796e64793671737376386c6b303a303030303030303030303030303030303030303139393431613561653132383937363539383134343239323533333030353762306461393666336465613163353a38393533363830313633227d6821c1631b34e489e80d4fba35164e5ad52a60d66865df7d7db84d2adbf53ec13ca2a100000000"
}