{
  "txid": "378952e80a8b59a6defd4f38d9269c0cf89833c886ad0945f715839a1633d27f",
  "version": 2,
  "locktime": 0,
  "vin": [
    {
      "txid": "e4e717b41ccd44bcfcb4b8b955ea847bd5f674ec89b2ec88ae3cd795ca1dc2dc",
      "vout": 1,
      "prevout": {
        "scriptpubkey": "0014af4ac5ea37faf0ba4e196d06a882fc2e81f2c38b",
        "scriptpubkey_asm": "OP_0 OP_PUSHBYTES_20 af4ac5ea37faf0ba4e196d06a882fc2e81f2c38b",
        "scriptpubkey_type": "v0_p2wpkh",
        "scriptpubkey_address": "bc1q4a9vt63hltct5nsed5r23qhu96ql9sut8zh9rm",
        "value": 65958769
      },
      "scriptsig": "",
      "scriptsig_asm": "",
      "witness": [
        "3044022026cfb3c7e90eb029559921a73698376ada7b2e5f8710cd72b1186c5a19f4c89202206817812af9b03229cb2928309b441965ffb5f0d7246c0d8fb56e1f31f0a9a94d01",
        "02d27b82f6f9696dd21f7144802b34e90e6eab8d8b5d63cb87f34e4eb9470044dc"
      ],
      "is_coinbase": false,
      "sequence": 4294967293
    }
  ],
  "vout": [
    {
      "scriptpubkey": "0014885a96a47d1bf4cb6aa05b96650b5cc23b321505",
      "scriptpubkey_asm": "OP_0 OP_PUSHBYTES_20 885a96a47d1bf4cb6aa05b96650b5cc23b321505",
      "scriptpubkey_type": "v0_p2wpkh",
      "scriptpubkey_address": "bc1q3pdfdfrar06vk64qtwtx2z6ucgany9g9vrn6lq",
      "value": 65956136
    }
  ],
  "size": 191,
  "weight": 437,
  "fee": 2633,
  "status": {
    "confirmed": true,
    "block_height": 834638,
    "block_hash": "000000000000000000025f742c626208ac87e0b7d15054abb4a19ca2d735a54e",
    "block_time": 1710405325
  },
  "hex": "02000000000101dcc21dca95d73cae88ecb289ec74f6d57b84ea55b9b8b4fcbc44cd1cb417e7e40100000000fdffffff012869ee0300000000160014885a96a47d1bf4cb6aa05b96650b5cc23b32150502473044022026cfb3c7e90eb029559921a73698376ada7b2e5f8710cd72b1186c5a19f4c89202206817812af9b03229cb2928309b441965ffb5f0d7246c0d8fb56e1f31f0a9a94d012102d27b82f6f9696dd21f7144802b34e90e6eab8d8b5d63cb87f34e4eb9470044dc00000000"
}