{
  "txid": "379c9c1070725589a0fa9626a59bfab6de21a50e600815be7d6af70edf059f3c",
  "version": 2,
  "locktime": 0,
  "vin": [
    {
      "txid": "f847e08ac71784fae433022f441eb8424d68dd0cc71037aebf56b526428133e8",
      "vout": 0,
      "prevout": {
        "scriptpubkey": "76a91415d86eda92a58732211f0f441cd87224328352fd88ac",
        "scriptpubkey_asm": "OP_DUP OP_HASH160 OP_PUSHBYTES_20 15d86eda92a58732211f0f441cd87224328352fd OP_EQUALVERIFY OP_CHECKSIG",
        "scriptpubkey_type": "p2pkh",
        "scriptpubkey_address": "12zWU4PkbG9gmqVncM1rcUG8DtB4b8S9mn",
        "value": 3468720
      },
      "scriptsig": "473044022012adeaa4312ed0103eed1db4c7fa24f4ec7e95d30ed909b3d9e8427ae87800c302203b50093a592b5bc0191ad4bfb136e4edfe09ee32617455baec320a1fadd25c23012103082808d3f93090cc9478936489dd9ce6894467ad653b6d8ddde814bf777d1c8e",
      "scriptsig_asm": "OP_PUSHBYTES_71 3044022012adeaa4312ed0103eed1db4c7fa24f4ec7e95d30ed909b3d9e8427ae87800c302203b50093a592b5bc0191ad4bfb136e4edfe09ee32617455baec320a1fadd25c2301 OP_PUSHBYTES_33 03082808d3f93090cc9478936489dd9ce6894467ad653b6d8ddde814bf777d1c8e",
      "is_coinbase": false,
      "sequence": 4294967293
    }
  ],
  "vout": [
    {
      "scriptpubkey": "76a914da7cdaf7ceb88a700d91be3608a49118f3f8806d88ac",
      "scriptpubkey_asm": "OP_DUP OP_HASH160 OP_PUSHBYTES_20 da7cdaf7ceb88a700d91be3608a49118f3f8806d OP_EQUALVERIFY OP_CHECKSIG",
      "scriptpubkey_type": "p2pkh",
      "scriptpubkey_address": "1LvFsvPDyfQpM835sEWgxfUkSWULvV5nh1",
      "value": 3442935
    }
  ],
  "size": 191,
  "weight": 764,
  "fee": 25785,
  "status": {
    "confirmed": true,
    "block_height": 834638,
    "block_hash": "000000000000000000025f742c626208ac87e0b7d15054abb4a19ca2d735a54e",
    "block_time": 1710405325
  },
  "hex": "0200000001e833814226b556bfae3710c70cdd684d42b81e442f0233e4fa8417c78ae047f8000000006a473044022012adeaa4312ed0103eed1db4c7fa24f4ec7e95d30ed909b3d9e8427ae87800c302203b50093a592b5bc0191ad4bfb136e4edfe09ee32617455baec320a1fadd25c23012103082808d3f93090cc9478936489dd9ce6894467ad653b6d8ddde814bf777d1c8efdffffff01f7883400000000001976a914da7cdaf7ceb88a700d91be3608a49118f3f8806d88ac00000000"
}