{
  "txid": "379e4ea29f4caabcf6f4337936f1c6ec8bc87109ffa667ea4eaad64db0930a2f",
  "version": 1,
  "locktime": 0,
  "vin": [
    {
      "txid": "2fc373264e951a9f46910c65e7f2cfe30922cd773bf28d37682969e99c5da3ed",
      "vout": 1,
      "prevout": {
        "scriptpubkey": "0014ebef3e11e5a904795f14e9020166a99b3cd5df7d",
        "scriptpubkey_asm": "OP_0 OP_PUSHBYTES_20 ebef3e11e5a904795f14e9020166a99b3cd5df7d",
        "scriptpubkey_type": "v0_p2wpkh",
        "scriptpubkey_address": "bc1qa0hnuy094yz8jhc5aypqze4fnv7dthmajctpxa",
        "value": 200213
      },
      "scriptsig": "",
      "scriptsig_asm": "",
      "witness": [
        "3045022100a97c94cdd4590ec2131eb0168d0d68a3f2c1186e73e8d98343b78d6a17a79aee02201af2b365757de9b7df7d3065b16184961e653755a07975ba60b07711e0faf42601",
        "03687758c5912d090093c2503ab7bc9dde93c2bfc3e6dbc279a99733ce14c3b205"
      ],
      "is_coinbase": false,
      "sequence": 4294967295
    }
  ],
  "vout": [
    {
      "scriptpubkey": "001400065f2108f449c8a398cc583f8fafe54cecb099",
      "scriptpubkey_asm": "OP_0 OP_PUSHBYTES_20 00065f2108f449c8a398cc583f8fafe54cecb099",
      "scriptpubkey_type": "v0_p2wpkh",
      "scriptpubkey_address": "bc1qqqr97ggg73yu3guce3vrlra0u4xwevyeg963lj",
      "value": 105300
    },
    {
      "scriptpubkey": "00147268cecc8f5787496568bda968054db1df54e9ba",
      "scriptpubkey_asm": "OP_0 OP_PUSHBYTES_20 7268cecc8f5787496568bda968054db1df54e9ba",
      "scriptpubkey_type": "v0_p2wpkh",
      "scriptpubkey_address": "bc1qwf5vany027r5jetghk5ksp2dk804f6d6gphvxz",
      "value": 92783
    }
  ],
  "size": 223,
  "weight": 562,
  "fee": 2130,
  "status": {
    "confirmed": true,
    "block_height": 834638,
    "block_hash": "000000000000000000025f742c626208ac87e0b7d15054abb4a19ca2d735a54e",
    "block_time": 1710405325
  },
  "hex": "01000000000101eda35d9ce9692968378df23b77cd2209e3cff2e7650c91469f1a954e2673c32f0100000000ffffffff02549b01000000000016001400065f2108f449c8a398cc583f8fafe54cecb0996f6a0100000000001600147268cecc8f5787496568bda968054db1df54e9ba02483045022100a97c94cdd4590ec2131eb0168d0d68a3f2c1186e73e8d98343b78d6a17a79aee02201af2b365757de9b7df7d3065b16184961e653755a07975ba60b07711e0faf426012103687758c5912d090093c2503ab7bc9dde93c2bfc3e6dbc279a99733ce14c3b20500000000"
}