{
  "txid": "37ae87fa2719585509f5a3323bde2a2ef5761a9bdf50e9aca65340ce769bc864",
  "version": 2,
  "locktime": 0,
  "vin": [
    {
      "txid": "acc3ba00869acb582a3f2904ce3a11dd3779350ce234063fc7d0959246213364",
      "vout": 136,
      "prevout": {
        "scriptpubkey": "5120f1cbd26ef592349ba7cecb6969291b8344552e233dd4db9afc7c92b6abddf09c",
        "scriptpubkey_asm": "OP_PUSHNUM_1 OP_PUSHBYTES_32 f1cbd26ef592349ba7cecb6969291b8344552e233dd4db9afc7c92b6abddf09c",
        "scriptpubkey_type": "v1_p2tr",
        "scriptpubkey_address": "bc1p789aymh4jg6fhf7wed5kj2gmsdz92t3r8h2dhxhu0jftd27a7zwq7039ln",
        "value": 1806
      },
      "scriptsig": "",
      "scriptsig_asm": "",
      "witness": [
        "7a8b817a1fba4e0014509c04d2d3ad0afd456b802b7c15111e824ca00808298ad5e4a199e7b3ea9aeb4eb961cbbf06eb4086f3ad21d56540ba7f8c28aa096cc5",
        "20722f3206b020689e2d0ce81546a59f96f7b5cc188949db85147de5e334716c29ac0063036f726401010a746578742f706c61696e00357b2270223a226272632d3230222c226f70223a226d696e74222c227469636b223a22646f6765222c22616d74223a2234323030227d68",
        "c0722f3206b020689e2d0ce81546a59f96f7b5cc188949db85147de5e334716c29"
      ],
      "is_coinbase": false,
      "sequence": 4261412863
    }
  ],
  "vout": [
    {
      "scriptpubkey": "00147a665de7a370f4c9b372ab1fae587500a5bcbdb4",
      "scriptpubkey_asm": "OP_0 OP_PUSHBYTES_20 7a665de7a370f4c9b372ab1fae587500a5bcbdb4",
      "scriptpubkey_type": "v0_p2wpkh",
      "scriptpubkey_address": "bc1q0fn9mearwr6vnvmj4v06ukr4qzjme0d565dzcx",
      "value": 294
    }
  ],
  "size": 294,
  "weight": 540,
  "fee": 1512,
  "status": {
    "confirmed": true,
    "block_height": 834460,
    "block_hash": "00000000000000000000484a79b643b2524bbce82e5d8a442013fa5b8905ed98",
    "block_time": 1710307468
  },
  "hex": "02000000000101643321469295d0c73f0634e20c357937dd113ace04293f2a58cb9a8600bac3ac8800000000fffffffd0126010000000000001600147a665de7a370f4c9b372ab1fae587500a5bcbdb403407a8b817a1fba4e0014509c04d2d3ad0afd456b802b7c15111e824ca00808298ad5e4a199e7b3ea9aeb4eb961cbbf06eb4086f3ad21d56540ba7f8c28aa096cc56d20722f3206b020689e2d0ce81546a59f96f7b5cc188949db85147de5e334716c29ac0063036f726401010a746578742f706c61696e00357b2270223a226272632d3230222c226f70223a226d696e74222c227469636b223a22646f6765222c22616d74223a2234323030227d6821c0722f3206b020689e2d0ce81546a59f96f7b5cc188949db85147de5e334716c2900000000"
}