{
  "txid": "37b62e78d5fcb988367c6486f89676cdf6da1bb842fa7257aca7f5303b3107d4",
  "version": 2,
  "locktime": 0,
  "vin": [
    {
      "txid": "56f196cea516124fd05218bb7b33f24ca73b1c878310e3345cdae48eb434c79c",
      "vout": 0,
      "prevout": {
        "scriptpubkey": "5120d0c6cba6e396e53af3ecb2992d17fc9e9c4132298f52b0bc469e870f494f0cc7",
        "scriptpubkey_asm": "OP_PUSHNUM_1 OP_PUSHBYTES_32 d0c6cba6e396e53af3ecb2992d17fc9e9c4132298f52b0bc469e870f494f0cc7",
        "scriptpubkey_type": "v1_p2tr",
        "scriptpubkey_address": "bc1p6rrvhfhrjmjn4ulvk2vj69lun6wyzv3f3aftp0zxn6rs7j20pnrskywmge",
        "value": 300000
      },
      "scriptsig": "",
      "scriptsig_asm": "",
      "witness": [
        "6a47ad0085721bd8e6483c99adca94817f3745a69f3b8a3e965e91edf12f1c85161cdbdc4891d0f199b480f634f5063db4fec22a5be3c3e76fc39be4dd5b31ed"
      ],
      "is_coinbase": false,
      "sequence": 4294967295
    }
  ],
  "vout": [
    {
      "scriptpubkey": "5120d0c6cba6e396e53af3ecb2992d17fc9e9c4132298f52b0bc469e870f494f0cc7",
      "scriptpubkey_asm": "OP_PUSHNUM_1 OP_PUSHBYTES_32 d0c6cba6e396e53af3ecb2992d17fc9e9c4132298f52b0bc469e870f494f0cc7",
      "scriptpubkey_type": "v1_p2tr",
      "scriptpubkey_address": "bc1p6rrvhfhrjmjn4ulvk2vj69lun6wyzv3f3aftp0zxn6rs7j20pnrskywmge",
      "value": 600
    },
    {
      "scriptpubkey": "5120d0c6cba6e396e53af3ecb2992d17fc9e9c4132298f52b0bc469e870f494f0cc7",
      "scriptpubkey_asm": "OP_PUSHNUM_1 OP_PUSHBYTES_32 d0c6cba6e396e53af3ecb2992d17fc9e9c4132298f52b0bc469e870f494f0cc7",
      "scriptpubkey_type": "v1_p2tr",
      "scriptpubkey_address": "bc1p6rrvhfhrjmjn4ulvk2vj69lun6wyzv3f3aftp0zxn6rs7j20pnrskywmge",
      "value": 600
    },
    {
      "scriptpubkey": "5120d0c6cba6e396e53af3ecb2992d17fc9e9c4132298f52b0bc469e870f494f0cc7",
      "scriptpubkey_asm": "OP_PUSHNUM_1 OP_PUSHBYTES_32 d0c6cba6e396e53af3ecb2992d17fc9e9c4132298f52b0bc469e870f494f0cc7",
      "scriptpubkey_type": "v1_p2tr",
      "scriptpubkey_address": "bc1p6rrvhfhrjmjn4ulvk2vj69lun6wyzv3f3aftp0zxn6rs7j20pnrskywmge",
      "value": 600
    },
    {
      "scriptpubkey": "5120d0c6cba6e396e53af3ecb2992d17fc9e9c4132298f52b0bc469e870f494f0cc7",
      "scriptpubkey_asm": "OP_PUSHNUM_1 OP_PUSHBYTES_32 d0c6cba6e396e53af3ecb2992d17fc9e9c4132298f52b0bc469e870f494f0cc7",
      "scriptpubkey_type": "v1_p2tr",
      "scriptpubkey_address": "bc1p6rrvhfhrjmjn4ulvk2vj69lun6wyzv3f3aftp0zxn6rs7j20pnrskywmge",
      "value": 600
    },
    {
      "scriptpubkey": "5120d0c6cba6e396e53af3ecb2992d17fc9e9c4132298f52b0bc469e870f494f0cc7",
      "scriptpubkey_asm": "OP_PUSHNUM_1 OP_PUSHBYTES_32 d0c6cba6e396e53af3ecb2992d17fc9e9c4132298f52b0bc469e870f494f0cc7",
      "scriptpubkey_type": "v1_p2tr",
      "scriptpubkey_address": "bc1p6rrvhfhrjmjn4ulvk2vj69lun6wyzv3f3aftp0zxn6rs7j20pnrskywmge",
      "value": 600
    },
    {
      "scriptpubkey": "5120d0c6cba6e396e53af3ecb2992d17fc9e9c4132298f52b0bc469e870f494f0cc7",
      "scriptpubkey_asm": "OP_PUSHNUM_1 OP_PUSHBYTES_32 d0c6cba6e396e53af3ecb2992d17fc9e9c4132298f52b0bc469e870f494f0cc7",
      "scriptpubkey_type": "v1_p2tr",
      "scriptpubkey_address": "bc1p6rrvhfhrjmjn4ulvk2vj69lun6wyzv3f3aftp0zxn6rs7j20pnrskywmge",
      "value": 600
    },
    {
      "scriptpubkey": "5120d0c6cba6e396e53af3ecb2992d17fc9e9c4132298f52b0bc469e870f494f0cc7",
      "scriptpubkey_asm": "OP_PUSHNUM_1 OP_PUSHBYTES_32 d0c6cba6e396e53af3ecb2992d17fc9e9c4132298f52b0bc469e870f494f0cc7",
      "scriptpubkey_type": "v1_p2tr",
      "scriptpubkey_address": "bc1p6rrvhfhrjmjn4ulvk2vj69lun6wyzv3f3aftp0zxn6rs7j20pnrskywmge",
      "value": 600
    },
    {
      "scriptpubkey": "5120d0c6cba6e396e53af3ecb2992d17fc9e9c4132298f52b0bc469e870f494f0cc7",
      "scriptpubkey_asm": "OP_PUSHNUM_1 OP_PUSHBYTES_32 d0c6cba6e396e53af3ecb2992d17fc9e9c4132298f52b0bc469e870f494f0cc7",
      "scriptpubkey_type": "v1_p2tr",
      "scriptpubkey_address": "bc1p6rrvhfhrjmjn4ulvk2vj69lun6wyzv3f3aftp0zxn6rs7j20pnrskywmge",
      "value": 600
    },
    {
      "scriptpubkey": "5120d0c6cba6e396e53af3ecb2992d17fc9e9c4132298f52b0bc469e870f494f0cc7",
      "scriptpubkey_asm": "OP_PUSHNUM_1 OP_PUSHBYTES_32 d0c6cba6e396e53af3ecb2992d17fc9e9c4132298f52b0bc469e870f494f0cc7",
      "scriptpubkey_type": "v1_p2tr",
      "scriptpubkey_address": "bc1p6rrvhfhrjmjn4ulvk2vj69lun6wyzv3f3aftp0zxn6rs7j20pnrskywmge",
      "value": 600
    },
    {
      "scriptpubkey": "5120d0c6cba6e396e53af3ecb2992d17fc9e9c4132298f52b0bc469e870f494f0cc7",
      "scriptpubkey_asm": "OP_PUSHNUM_1 OP_PUSHBYTES_32 d0c6cba6e396e53af3ecb2992d17fc9e9c4132298f52b0bc469e870f494f0cc7",
      "scriptpubkey_type": "v1_p2tr",
      "scriptpubkey_address": "bc1p6rrvhfhrjmjn4ulvk2vj69lun6wyzv3f3aftp0zxn6rs7j20pnrskywmge",
      "value": 600
    },
    {
      "scriptpubkey": "5120d0c6cba6e396e53af3ecb2992d17fc9e9c4132298f52b0bc469e870f494f0cc7",
      "scriptpubkey_asm": "OP_PUSHNUM_1 OP_PUSHBYTES_32 d0c6cba6e396e53af3ecb2992d17fc9e9c4132298f52b0bc469e870f494f0cc7",
      "scriptpubkey_type": "v1_p2tr",
      "scriptpubkey_address": "bc1p6rrvhfhrjmjn4ulvk2vj69lun6wyzv3f3aftp0zxn6rs7j20pnrskywmge",
      "value": 284244
    }
  ],
  "size": 592,
  "weight": 2164,
  "fee": 9756,
  "status": {
    "confirmed": true,
    "block_height": 834638,
    "block_hash": "000000000000000000025f742c626208ac87e0b7d15054abb4a19ca2d735a54e",
    "block_time": 1710405325
  },
  "hex": "020000000001019cc734b48ee4da5c34e31083871c3ba74cf2337bbb1852d04f1216a5ce96f1560000000000ffffffff0b5802000000000000225120d0c6cba6e396e53af3ecb2992d17fc9e9c4132298f52b0bc469e870f494f0cc75802000000000000225120d0c6cba6e396e53af3ecb2992d17fc9e9c4132298f52b0bc469e870f494f0cc75802000000000000225120d0c6cba6e396e53af3ecb2992d17fc9e9c4132298f52b0bc469e870f494f0cc75802000000000000225120d0c6cba6e396e53af3ecb2992d17fc9e9c4132298f52b0bc469e870f494f0cc75802000000000000225120d0c6cba6e396e53af3ecb2992d17fc9e9c4132298f52b0bc469e870f494f0cc75802000000000000225120d0c6cba6e396e53af3ecb2992d17fc9e9c4132298f52b0bc469e870f494f0cc75802000000000000225120d0c6cba6e396e53af3ecb2992d17fc9e9c4132298f52b0bc469e870f494f0cc75802000000000000225120d0c6cba6e396e53af3ecb2992d17fc9e9c4132298f52b0bc469e870f494f0cc75802000000000000225120d0c6cba6e396e53af3ecb2992d17fc9e9c4132298f52b0bc469e870f494f0cc75802000000000000225120d0c6cba6e396e53af3ecb2992d17fc9e9c4132298f52b0bc469e870f494f0cc75456040000000000225120d0c6cba6e396e53af3ecb2992d17fc9e9c4132298f52b0bc469e870f494f0cc701406a47ad0085721bd8e6483c99adca94817f3745a69f3b8a3e965e91edf12f1c85161cdbdc4891d0f199b480f634f5063db4fec22a5be3c3e76fc39be4dd5b31ed00000000"
}