{
  "txid": "37b93829afe8369b53d9d5ed8df93b14aa4295879244d0b2d0fcaba3e5d38f57",
  "version": 1,
  "locktime": 0,
  "vin": [
    {
      "txid": "b61573260b13ebd0be160bb66c4f0570be7ae0a363aa0c518a354ac8191ec2fd",
      "vout": 2,
      "prevout": {
        "scriptpubkey": "51209d965168a048715bd672897f6d4c9a15c44e7c006b63e5bbd6d9eca5a49e433e",
        "scriptpubkey_asm": "OP_PUSHNUM_1 OP_PUSHBYTES_32 9d965168a048715bd672897f6d4c9a15c44e7c006b63e5bbd6d9eca5a49e433e",
        "scriptpubkey_type": "v1_p2tr",
        "scriptpubkey_address": "bc1pnkt9z69qfpc4h4nj39lk6ny6zhzyulqqdd37tw7km8k2tfy7gvlqlnmtd6",
        "value": 362263
      },
      "scriptsig": "",
      "scriptsig_asm": "",
      "witness": [
        "ba7f3e6a4f045e737e9d7315498569ac1812bccf267b99bab11388a5c8a332950551115f99891c9df9421aaacfe43f4c1659a7e60f09474cbd56c6e6f2bef974"
      ],
      "is_coinbase": false,
      "sequence": 4294967293
    },
    {
      "txid": "c206cb20b1c05df1ca3b7c704302fb96ea3505578a8de2aa75ca80e36647f7d5",
      "vout": 4,
      "prevout": {
        "scriptpubkey": "51209d965168a048715bd672897f6d4c9a15c44e7c006b63e5bbd6d9eca5a49e433e",
        "scriptpubkey_asm": "OP_PUSHNUM_1 OP_PUSHBYTES_32 9d965168a048715bd672897f6d4c9a15c44e7c006b63e5bbd6d9eca5a49e433e",
        "scriptpubkey_type": "v1_p2tr",
        "scriptpubkey_address": "bc1pnkt9z69qfpc4h4nj39lk6ny6zhzyulqqdd37tw7km8k2tfy7gvlqlnmtd6",
        "value": 15928
      },
      "scriptsig": "",
      "scriptsig_asm": "",
      "witness": [
        "f4953dc7176f3dc5777a34e1ed87617096a8651fd7781d938f408ae267323cda3b520b22104f9a68ab8e631e5b72c79868359ef0f417270045d770b0922b6791"
      ],
      "is_coinbase": false,
      "sequence": 4294967293
    }
  ],
  "vout": [
    {
      "scriptpubkey": "00141bef340dd527822cca37eeee2221b7b339b867e7",
      "scriptpubkey_asm": "OP_0 OP_PUSHBYTES_20 1bef340dd527822cca37eeee2221b7b339b867e7",
      "scriptpubkey_type": "v0_p2wpkh",
      "scriptpubkey_address": "bc1qr0hngrw4y7pzej3hamhzygdhkvumsel8429nlv",
      "value": 374100
    },
    {
      "scriptpubkey": "51209d965168a048715bd672897f6d4c9a15c44e7c006b63e5bbd6d9eca5a49e433e",
      "scriptpubkey_asm": "OP_PUSHNUM_1 OP_PUSHBYTES_32 9d965168a048715bd672897f6d4c9a15c44e7c006b63e5bbd6d9eca5a49e433e",
      "scriptpubkey_type": "v1_p2tr",
      "scriptpubkey_address": "bc1pnkt9z69qfpc4h4nj39lk6ny6zhzyulqqdd37tw7km8k2tfy7gvlqlnmtd6",
      "value": 1478
    }
  ],
  "size": 300,
  "weight": 798,
  "fee": 2613,
  "status": {
    "confirmed": true,
    "block_height": 834460,
    "block_hash": "00000000000000000000484a79b643b2524bbce82e5d8a442013fa5b8905ed98",
    "block_time": 1710307468
  },
  "hex": "01000000000102fdc21e19c84a358a510caa63a3e07abe70054f6cb60b16bed0eb130b267315b60200000000fdffffffd5f74766e380ca75aae28d8a570535ea96fb0243707c3bcaf15dc0b120cb06c20400000000fdffffff0254b50500000000001600141bef340dd527822cca37eeee2221b7b339b867e7c6050000000000002251209d965168a048715bd672897f6d4c9a15c44e7c006b63e5bbd6d9eca5a49e433e0140ba7f3e6a4f045e737e9d7315498569ac1812bccf267b99bab11388a5c8a332950551115f99891c9df9421aaacfe43f4c1659a7e60f09474cbd56c6e6f2bef9740140f4953dc7176f3dc5777a34e1ed87617096a8651fd7781d938f408ae267323cda3b520b22104f9a68ab8e631e5b72c79868359ef0f417270045d770b0922b679100000000"
}