{
  "txid": "37b980b4b755193baf6a3e2f34374b7525ca87f2fbb552cdaf5930b334695139",
  "version": 2,
  "locktime": 834637,
  "vin": [
    {
      "txid": "a3ed6ee113130492f8148f8afed593f1c10c7ad4752f1d6e8657f2fa76145657",
      "vout": 21,
      "prevout": {
        "scriptpubkey": "00149b6830927bc7d2a256748ea1800672b5a09cb359",
        "scriptpubkey_asm": "OP_0 OP_PUSHBYTES_20 9b6830927bc7d2a256748ea1800672b5a09cb359",
        "scriptpubkey_type": "v0_p2wpkh",
        "scriptpubkey_address": "bc1qnd5rpynmclf2y4n536scqpnjkksfev6e8ep5vm",
        "value": 2701357
      },
      "scriptsig": "",
      "scriptsig_asm": "",
      "witness": [
        "3044022061a068638735ce071c76e1df98d7fff4dc2ab4bdb02f93e0dc0f67a972884f84022071d2cdfbbb372d0c36ac80be805d6d7b4fdf784fa95b60b34f1ae3af26626d5301",
        "0398259375b6915493ad38b8113d7882370cf8e3f77b62ea9ff65a730bcff24eae"
      ],
      "is_coinbase": false,
      "sequence": 4294967293
    }
  ],
  "vout": [
    {
      "scriptpubkey": "a914e33226da2ff60c40ad91d454b4a95049ee44826287",
      "scriptpubkey_asm": "OP_HASH160 OP_PUSHBYTES_20 e33226da2ff60c40ad91d454b4a95049ee448262 OP_EQUAL",
      "scriptpubkey_type": "p2sh",
      "scriptpubkey_address": "3NQKPhGakg4vH6Z2pt3VRUegGDL3X1Eiiv",
      "value": 1093800
    },
    {
      "scriptpubkey": "00144503916ac8ca6f9225ebba61ee66d65f407a1780",
      "scriptpubkey_asm": "OP_0 OP_PUSHBYTES_20 4503916ac8ca6f9225ebba61ee66d65f407a1780",
      "scriptpubkey_type": "v0_p2wpkh",
      "scriptpubkey_address": "bc1qg5pez6kgefheyf0thfs7uekktaq859uqjzyqnw",
      "value": 1603200
    }
  ],
  "size": 223,
  "weight": 565,
  "fee": 4357,
  "status": {
    "confirmed": true,
    "block_height": 834638,
    "block_hash": "000000000000000000025f742c626208ac87e0b7d15054abb4a19ca2d735a54e",
    "block_time": 1710405325
  },
  "hex": "0200000000010157561476faf257866e1d2f75d47a0cc1f193d5fe8a8f14f892041313e16eeda31500000000fdffffff02a8b010000000000017a914e33226da2ff60c40ad91d454b4a95049ee4482628780761800000000001600144503916ac8ca6f9225ebba61ee66d65f407a178002473044022061a068638735ce071c76e1df98d7fff4dc2ab4bdb02f93e0dc0f67a972884f84022071d2cdfbbb372d0c36ac80be805d6d7b4fdf784fa95b60b34f1ae3af26626d5301210398259375b6915493ad38b8113d7882370cf8e3f77b62ea9ff65a730bcff24eae4dbc0c00"
}