{
  "txid": "37bdf7aedfb7a4dd239a252cc7044bd83d0935a3874d514112c16fb47ddeab00",
  "version": 1,
  "locktime": 0,
  "vin": [
    {
      "txid": "482795f360bd19bd4eef8c9edfe8bf0d80a58aee68e0ebfc49ae28c7f6b7fcff",
      "vout": 53,
      "prevout": {
        "scriptpubkey": "00144897a9043c65eba1ce9b79b3bdfb13a98841a166",
        "scriptpubkey_asm": "OP_0 OP_PUSHBYTES_20 4897a9043c65eba1ce9b79b3bdfb13a98841a166",
        "scriptpubkey_type": "v0_p2wpkh",
        "scriptpubkey_address": "bc1qfzt6jppuvh46rn5m0xemm7cn4xyyrgtx7pqykw",
        "value": 114876
      },
      "scriptsig": "",
      "scriptsig_asm": "",
      "witness": [
        "3045022100816de1c81404f5df76c0184a4fff71d1368e73ac293414f5b0f4c4636a57679602204f625d5a06dd13ed107dd90d8e4ba6579987291088b049fbdd102ea9ef32f97201",
        "028a435f32b3db338f8f401f7308d8b0745087ab776599f0a10f524cd1458be242"
      ],
      "is_coinbase": false,
      "sequence": 4294967295
    }
  ],
  "vout": [
    {
      "scriptpubkey": "76a9146b04ceed2c09fbe3055e0bc86207402cc4104af588ac",
      "scriptpubkey_asm": "OP_DUP OP_HASH160 OP_PUSHBYTES_20 6b04ceed2c09fbe3055e0bc86207402cc4104af5 OP_EQUALVERIFY OP_CHECKSIG",
      "scriptpubkey_type": "p2pkh",
      "scriptpubkey_address": "1Aks4cYcKkUoYY2VSazLBovZMx6GqxS2bx",
      "value": 113129
    }
  ],
  "size": 195,
  "weight": 450,
  "fee": 1747,
  "status": {
    "confirmed": true,
    "block_height": 834638,
    "block_hash": "000000000000000000025f742c626208ac87e0b7d15054abb4a19ca2d735a54e",
    "block_time": 1710405325
  },
  "hex": "01000000000101fffcb7f6c728ae49fcebe068ee8aa5800dbfe8df9e8cef4ebd19bd60f39527483500000000ffffffff01e9b90100000000001976a9146b04ceed2c09fbe3055e0bc86207402cc4104af588ac02483045022100816de1c81404f5df76c0184a4fff71d1368e73ac293414f5b0f4c4636a57679602204f625d5a06dd13ed107dd90d8e4ba6579987291088b049fbdd102ea9ef32f9720121028a435f32b3db338f8f401f7308d8b0745087ab776599f0a10f524cd1458be24200000000"
}