{
  "txid": "37d6718c76fcb03e05aefde7182ed4378368aad4dd06107066d83fad0fce5f85",
  "version": 2,
  "locktime": 0,
  "vin": [
    {
      "txid": "abdcbb8bcefa0f088373ceda41a70fe1aeaa3823b969e1169e2a29269068d8dc",
      "vout": 14,
      "prevout": {
        "scriptpubkey": "512022a85dc3cf032eb92a21464b94864125d14c4aed6acd408681e7e7f13a209b65",
        "scriptpubkey_asm": "OP_PUSHNUM_1 OP_PUSHBYTES_32 22a85dc3cf032eb92a21464b94864125d14c4aed6acd408681e7e7f13a209b65",
        "scriptpubkey_type": "v1_p2tr",
        "scriptpubkey_address": "bc1py259ms70qvhtj23pge9efpjpyhg5cjhddtx5pp5pulnlzw3qndjs2mt2mz",
        "value": 2522
      },
      "scriptsig": "",
      "scriptsig_asm": "",
      "witness": [
        "5f41be6b1eaef5a40f2d3df5b909dd54ff228d30bb50313db3c9b46f73479dd31b3823b58e9877875a220046bda106746da64016bc543d255d2e1c8088067690",
        "20ba6d72338e875ffd402d0fda902db3f4a13c49cb2ebfba189dbe609e42ae0a84ac0063036f7264010118746578742f706c61696e3b636861727365743d7574662d3800387b2270223a226272632d3230222c226f70223a227472616e73666572222c227469636b223a226f726e6a222c22616d74223a22313030227d68",
        "c125dced391475af84759664675c16f5ed581b243a944241d7ee258c8cfb80c9db"
      ],
      "is_coinbase": false,
      "sequence": 4294967295
    }
  ],
  "vout": [
    {
      "scriptpubkey": "512060e7b9d91ee3091b65165528563dba11a47299520ea2fc67070ec6ac303fc05d",
      "scriptpubkey_asm": "OP_PUSHNUM_1 OP_PUSHBYTES_32 60e7b9d91ee3091b65165528563dba11a47299520ea2fc67070ec6ac303fc05d",
      "scriptpubkey_type": "v1_p2tr",
      "scriptpubkey_address": "bc1pvrnmnkg7uvy3kegk2559v0d6zxj89x2jp630cec8pmr2cvplcpwsn3pn79",
      "value": 546
    }
  ],
  "size": 323,
  "weight": 605,
  "fee": 1976,
  "status": {
    "confirmed": true,
    "block_height": 834460,
    "block_hash": "00000000000000000000484a79b643b2524bbce82e5d8a442013fa5b8905ed98",
    "block_time": 1710307468
  },
  "hex": "02000000000101dcd8689026292a9e16e169b92338aaaee10fa741dace7383080fface8bbbdcab0e00000000ffffffff01220200000000000022512060e7b9d91ee3091b65165528563dba11a47299520ea2fc67070ec6ac303fc05d03405f41be6b1eaef5a40f2d3df5b909dd54ff228d30bb50313db3c9b46f73479dd31b3823b58e9877875a220046bda106746da64016bc543d255d2e1c80880676907e20ba6d72338e875ffd402d0fda902db3f4a13c49cb2ebfba189dbe609e42ae0a84ac0063036f7264010118746578742f706c61696e3b636861727365743d7574662d3800387b2270223a226272632d3230222c226f70223a227472616e73666572222c227469636b223a226f726e6a222c22616d74223a22313030227d6821c125dced391475af84759664675c16f5ed581b243a944241d7ee258c8cfb80c9db00000000"
}