{
  "txid": "37dab158f1d82a096b37a38698be42466cf4c342a9bd336a3399b19e591c7878",
  "version": 1,
  "locktime": 0,
  "vin": [
    {
      "txid": "18074d721d742e021add701061e847ce152dc97257da9df0f5e0ba1506c75f18",
      "vout": 0,
      "prevout": {
        "scriptpubkey": "51203b533db3c4df09730062def8af3dac5a071c174d11f10234d757368551657197",
        "scriptpubkey_asm": "OP_PUSHNUM_1 OP_PUSHBYTES_32 3b533db3c4df09730062def8af3dac5a071c174d11f10234d757368551657197",
        "scriptpubkey_type": "v1_p2tr",
        "scriptpubkey_address": "bc1p8dfnmv7ymuyhxqrzmmu270dvtgr3c96dz8csydxh2umg25t9wxts4asttd",
        "value": 2568
      },
      "scriptsig": "",
      "scriptsig_asm": "",
      "witness": [
        "95c5e635074bcabe31a5a25be784d3684e9359a611ee10c3b0a58729d16b14dc7fad237fc7ed3b0f2d764e58bc157af4bbda2e441f65b2e60fd32ec67eb4c0b583",
        "20be11f1d0580232188e877ef283eb5a1efd4e9e5290a2633605d666f59ad3fff2ac00630461746f6d03646d742ca16461726773a36b6d696e745f7469636b657263627463656e6f6e63651a000d030c6474696d651a65ef273568",
        "c0be11f1d0580232188e877ef283eb5a1efd4e9e5290a2633605d666f59ad3fff2"
      ],
      "is_coinbase": false,
      "sequence": 4294967293
    }
  ],
  "vout": [
    {
      "scriptpubkey": "51209d6dbbf9bad17d0135e06ea56ec304df985f9f9bc809fa52ae6789a0947e0300",
      "scriptpubkey_asm": "OP_PUSHNUM_1 OP_PUSHBYTES_32 9d6dbbf9bad17d0135e06ea56ec304df985f9f9bc809fa52ae6789a0947e0300",
      "scriptpubkey_type": "v1_p2tr",
      "scriptpubkey_address": "bc1pn4kmh7d6697szd0qd6jkascym7v9l8umeqyl554wv7y6p9r7qvqquzkndh",
      "value": 1000
    }
  ],
  "size": 289,
  "weight": 571,
  "fee": 1568,
  "status": {
    "confirmed": true,
    "block_height": 834464,
    "block_hash": "0000000000000000000177a0869a911a2b65c9bdcd5a8bcb02b68f305bee848e",
    "block_time": 1710308296
  },
  "hex": "01000000000101185fc70615bae0f5f09dda5772c92d15ce47e8611070dd1a022e741d724d07180000000000fdffffff01e8030000000000002251209d6dbbf9bad17d0135e06ea56ec304df985f9f9bc809fa52ae6789a0947e0300034195c5e635074bcabe31a5a25be784d3684e9359a611ee10c3b0a58729d16b14dc7fad237fc7ed3b0f2d764e58bc157af4bbda2e441f65b2e60fd32ec67eb4c0b5835b20be11f1d0580232188e877ef283eb5a1efd4e9e5290a2633605d666f59ad3fff2ac00630461746f6d03646d742ca16461726773a36b6d696e745f7469636b657263627463656e6f6e63651a000d030c6474696d651a65ef27356821c0be11f1d0580232188e877ef283eb5a1efd4e9e5290a2633605d666f59ad3fff200000000"
}