{
  "txid": "37db30b8a78dd4309a27d25a319635721f55a7ec178d8df7d3d6f26a5f8f534f",
  "version": 1,
  "locktime": 0,
  "vin": [
    {
      "txid": "1ae7cb6ec5edfd633d1807b0f7111af5c23c338464d588aaa2f74a9f898f82a4",
      "vout": 0,
      "prevout": {
        "scriptpubkey": "0014339287af7e137eabf6790566599341fe88814d0d",
        "scriptpubkey_asm": "OP_0 OP_PUSHBYTES_20 339287af7e137eabf6790566599341fe88814d0d",
        "scriptpubkey_type": "v0_p2wpkh",
        "scriptpubkey_address": "bc1qxwfg0tm7zdl2haneq4n9ny6pl6ygzngdyt8xl6",
        "value": 168921
      },
      "scriptsig": "",
      "scriptsig_asm": "",
      "witness": [
        "30440220785f66ab0a91161c01aa8e76a8e628fad6538903949456c47757ad53f675ca8302200395ac822cd57fd376eb2fc7130ffbf0057ec9c085864435523bf1647179aa0f01",
        "02fafdba12bd5c7f6d3c5c73f314c51e38a2c16e0c00a9abb7e46b1cf8369c5107"
      ],
      "is_coinbase": false,
      "sequence": 4294967295
    }
  ],
  "vout": [
    {
      "scriptpubkey": "0014a63ce0e1ae28a4c592525e8359ff63beaab1e79e",
      "scriptpubkey_asm": "OP_0 OP_PUSHBYTES_20 a63ce0e1ae28a4c592525e8359ff63beaab1e79e",
      "scriptpubkey_type": "v0_p2wpkh",
      "scriptpubkey_address": "bc1q5c7wpcdw9zjvtyjjt6p4nlmrh64treu7ezfft7",
      "value": 68617
    },
    {
      "scriptpubkey": "76a9148eeb9052dfaa6f6f8266e07176649a2d3b882de488ac",
      "scriptpubkey_asm": "OP_DUP OP_HASH160 OP_PUSHBYTES_20 8eeb9052dfaa6f6f8266e07176649a2d3b882de4 OP_EQUALVERIFY OP_CHECKSIG",
      "scriptpubkey_type": "p2pkh",
      "scriptpubkey_address": "1E2h9VqeCBvc5rPfQJxpWHuBcFN1RKqEQK",
      "value": 98000
    }
  ],
  "size": 225,
  "weight": 573,
  "fee": 2304,
  "status": {
    "confirmed": true,
    "block_height": 834638,
    "block_hash": "000000000000000000025f742c626208ac87e0b7d15054abb4a19ca2d735a54e",
    "block_time": 1710405325
  },
  "hex": "01000000000101a4828f899f4af7a2aa88d56484333cc2f51a11f7b007183d63fdedc56ecbe71a0000000000ffffffff02090c010000000000160014a63ce0e1ae28a4c592525e8359ff63beaab1e79ed07e0100000000001976a9148eeb9052dfaa6f6f8266e07176649a2d3b882de488ac024730440220785f66ab0a91161c01aa8e76a8e628fad6538903949456c47757ad53f675ca8302200395ac822cd57fd376eb2fc7130ffbf0057ec9c085864435523bf1647179aa0f012102fafdba12bd5c7f6d3c5c73f314c51e38a2c16e0c00a9abb7e46b1cf8369c510700000000"
}