{
  "txid": "37fa08f9934ddfcb4cb6995ced98cb4c6862986b673bd9c031947a9655e2d6de",
  "version": 2,
  "locktime": 0,
  "vin": [
    {
      "txid": "93d202d6cf1f243b9283785b26a482a7cb0e96bda95f8a8ab6dcd03edcb1f249",
      "vout": 24,
      "prevout": {
        "scriptpubkey": "512030c5dd9aa6b8d6e88441e4836010349351bd699339765ab090a9d263592f6be7",
        "scriptpubkey_asm": "OP_PUSHNUM_1 OP_PUSHBYTES_32 30c5dd9aa6b8d6e88441e4836010349351bd699339765ab090a9d263592f6be7",
        "scriptpubkey_type": "v1_p2tr",
        "scriptpubkey_address": "bc1pxrzamx4xhrtw3pzpujpkqyp5jdgm66vn89m94vys48fxxkf0d0nsym0jdf",
        "value": 2236
      },
      "scriptsig": "",
      "scriptsig_asm": "",
      "witness": [
        "e96c49d7eff382902220b7ac504453c2173a9f2c3d3ca079c5050fe3b39379316a7a6d2afda0ddd933b0a89b93fb8cc2506407cd4bf81a3cda7ec61c5c663605",
        "207c96342cc3747cfab723255bbe32bc5dbbbfb98ddd0502b9d9f51fb87235c16eac0063036f726401010a746578742f706c61696e010713636272632d32303a6d696e743a666973683d3100347b2270223a226272632d3230222c227469636b223a2248554855222c226f70223a226d696e74222c22616d74223a22313030227d68",
        "c17c96342cc3747cfab723255bbe32bc5dbbbfb98ddd0502b9d9f51fb87235c16e"
      ],
      "is_coinbase": false,
      "sequence": 4294967293
    }
  ],
  "vout": [
    {
      "scriptpubkey": "5120642c2892c4dbb3946fceab627fd5121cebc698667117378acc5a9e325b815b99",
      "scriptpubkey_asm": "OP_PUSHNUM_1 OP_PUSHBYTES_32 642c2892c4dbb3946fceab627fd5121cebc698667117378acc5a9e325b815b99",
      "scriptpubkey_type": "v1_p2tr",
      "scriptpubkey_address": "bc1pvskz3ykymweegm7w4d38l4gjrn4udxrxwytn0zkvt20rykuptwvsy447v0",
      "value": 546
    }
  ],
  "size": 327,
  "weight": 609,
  "fee": 1690,
  "status": {
    "confirmed": true,
    "block_height": 834460,
    "block_hash": "00000000000000000000484a79b643b2524bbce82e5d8a442013fa5b8905ed98",
    "block_time": 1710307468
  },
  "hex": "0200000000010149f2b1dc3ed0dcb68a8a5fa9bd960ecba782a4265b7883923b241fcfd602d2931800000000fdffffff012202000000000000225120642c2892c4dbb3946fceab627fd5121cebc698667117378acc5a9e325b815b990340e96c49d7eff382902220b7ac504453c2173a9f2c3d3ca079c5050fe3b39379316a7a6d2afda0ddd933b0a89b93fb8cc2506407cd4bf81a3cda7ec61c5c66360582207c96342cc3747cfab723255bbe32bc5dbbbfb98ddd0502b9d9f51fb87235c16eac0063036f726401010a746578742f706c61696e010713636272632d32303a6d696e743a666973683d3100347b2270223a226272632d3230222c227469636b223a2248554855222c226f70223a226d696e74222c22616d74223a22313030227d6821c17c96342cc3747cfab723255bbe32bc5dbbbfb98ddd0502b9d9f51fb87235c16e00000000"
}