{
  "txid": "381e7d018f74d95bc67f91c3b6e85a7eb6fe5801c221ff20bee127528845c265",
  "version": 2,
  "locktime": 0,
  "vin": [
    {
      "txid": "362572c3266b24806971fdc40a9354b973e5de4a5edf2273e31e93eadeb9604f",
      "vout": 1,
      "prevout": {
        "scriptpubkey": "00145efd30dc1221e98c5d1d30aa74f88debb6a82e8e",
        "scriptpubkey_asm": "OP_0 OP_PUSHBYTES_20 5efd30dc1221e98c5d1d30aa74f88debb6a82e8e",
        "scriptpubkey_type": "v0_p2wpkh",
        "scriptpubkey_address": "bc1qtm7nphqjy85cchgaxz48f7ydawm2st5wzd95ec",
        "value": 101422
      },
      "scriptsig": "",
      "scriptsig_asm": "",
      "witness": [
        "3045022100f9e88c8b3bc071360b2239bcf0d92cb7a5b3c6653932ca2fd7b0d694e1bb569302203c5333f1067b1479b707bc94c437f821cb2afb816816618c02f9db5aadebf1c301",
        "02be753f8a309d198654476d019e6e7689348f173f33c495496d406ff792191653"
      ],
      "is_coinbase": false,
      "sequence": 4294967295
    },
    {
      "txid": "b5fc7bc587ad6229c8bee5828bf6fc594d1cc6b540401a2da3334f4b85ddf931",
      "vout": 1,
      "prevout": {
        "scriptpubkey": "00145efd30dc1221e98c5d1d30aa74f88debb6a82e8e",
        "scriptpubkey_asm": "OP_0 OP_PUSHBYTES_20 5efd30dc1221e98c5d1d30aa74f88debb6a82e8e",
        "scriptpubkey_type": "v0_p2wpkh",
        "scriptpubkey_address": "bc1qtm7nphqjy85cchgaxz48f7ydawm2st5wzd95ec",
        "value": 89155
      },
      "scriptsig": "",
      "scriptsig_asm": "",
      "witness": [
        "3044022054058cb22acda4b3deb0f632ea50172cbe3886d54b84530969d0cd6134fd1dd202205b0104c8ca72efbf919f9586e89a96254378ff906701c62181639ae21dea93e501",
        "02be753f8a309d198654476d019e6e7689348f173f33c495496d406ff792191653"
      ],
      "is_coinbase": false,
      "sequence": 4294967295
    },
    {
      "txid": "a7b473989afee824edfee77b08c5a646d9f0ddd43fbb2acfd967dd837921618b",
      "vout": 1,
      "prevout": {
        "scriptpubkey": "00145efd30dc1221e98c5d1d30aa74f88debb6a82e8e",
        "scriptpubkey_asm": "OP_0 OP_PUSHBYTES_20 5efd30dc1221e98c5d1d30aa74f88debb6a82e8e",
        "scriptpubkey_type": "v0_p2wpkh",
        "scriptpubkey_address": "bc1qtm7nphqjy85cchgaxz48f7ydawm2st5wzd95ec",
        "value": 58055
      },
      "scriptsig": "",
      "scriptsig_asm": "",
      "witness": [
        "3045022100cb09015e57ee90a6fcb1c6731c758c84816be453f6bc5c3428a20e9261ddc3a302206f8a877fb00d144fdecb14747ab196c2c46c0b6144cc60de123d52ef4dfe8f0f01",
        "02be753f8a309d198654476d019e6e7689348f173f33c495496d406ff792191653"
      ],
      "is_coinbase": false,
      "sequence": 4294967295
    },
    {
      "txid": "f2255ba7846b52526065b38905155080bd466ddbc8934dd08883c38efabff7a2",
      "vout": 1,
      "prevout": {
        "scriptpubkey": "00145efd30dc1221e98c5d1d30aa74f88debb6a82e8e",
        "scriptpubkey_asm": "OP_0 OP_PUSHBYTES_20 5efd30dc1221e98c5d1d30aa74f88debb6a82e8e",
        "scriptpubkey_type": "v0_p2wpkh",
        "scriptpubkey_address": "bc1qtm7nphqjy85cchgaxz48f7ydawm2st5wzd95ec",
        "value": 42844
      },
      "scriptsig": "",
      "scriptsig_asm": "",
      "witness": [
        "3044022056ae98a54cf74690f5f0cbb94e1c62b87a1837317f5c88ee0857bff01ca3c4880220171835707330f2bc6255553b78df1513ee36c5cb79ad5b5b94de27a5aa05be5501",
        "02be753f8a309d198654476d019e6e7689348f173f33c495496d406ff792191653"
      ],
      "is_coinbase": false,
      "sequence": 4294967295
    },
    {
      "txid": "b2ff353332fed2c40094f5680d655af03a425ef886a6929970a00b589469103b",
      "vout": 1,
      "prevout": {
        "scriptpubkey": "00145efd30dc1221e98c5d1d30aa74f88debb6a82e8e",
        "scriptpubkey_asm": "OP_0 OP_PUSHBYTES_20 5efd30dc1221e98c5d1d30aa74f88debb6a82e8e",
        "scriptpubkey_type": "v0_p2wpkh",
        "scriptpubkey_address": "bc1qtm7nphqjy85cchgaxz48f7ydawm2st5wzd95ec",
        "value": 35770
      },
      "scriptsig": "",
      "scriptsig_asm": "",
      "witness": [
        "304402202427f974b3408d0603644b1455e82d1bbf9f51b047c10852bf3bff1ecbd530410220053d89a6ab2e8a32ff28a8913c6d90a4cf952c6c44d398097098070355c9b81901",
        "02be753f8a309d198654476d019e6e7689348f173f33c495496d406ff792191653"
      ],
      "is_coinbase": false,
      "sequence": 4294967295
    }
  ],
  "vout": [
    {
      "scriptpubkey": "0014e27725ff317aa4f2011157028b93d04ae48fe2fe",
      "scriptpubkey_asm": "OP_0 OP_PUSHBYTES_20 e27725ff317aa4f2011157028b93d04ae48fe2fe",
      "scriptpubkey_type": "v0_p2wpkh",
      "scriptpubkey_address": "bc1qufmjtle302j0yqg32upghy7sftjglch7umur40",
      "value": 290525
    },
    {
      "scriptpubkey": "00145efd30dc1221e98c5d1d30aa74f88debb6a82e8e",
      "scriptpubkey_asm": "OP_0 OP_PUSHBYTES_20 5efd30dc1221e98c5d1d30aa74f88debb6a82e8e",
      "scriptpubkey_type": "v0_p2wpkh",
      "scriptpubkey_address": "bc1qtm7nphqjy85cchgaxz48f7ydawm2st5wzd95ec",
      "value": 28471
    }
  ],
  "size": 816,
  "weight": 1647,
  "fee": 8250,
  "status": {
    "confirmed": true,
    "block_height": 834638,
    "block_hash": "000000000000000000025f742c626208ac87e0b7d15054abb4a19ca2d735a54e",
    "block_time": 1710405325
  },
  "hex": "020000000001054f60b9deea931ee37322df5e4adee573b954930ac4fd716980246b26c37225360100000000ffffffff31f9dd854b4f33a32d1a4040b5c61c4d59fcf68b82e5bec82962ad87c57bfcb50100000000ffffffff8b61217983dd67d9cf2abb3fd4ddf0d946a6c5087be7feed24e8fe9a9873b4a70100000000ffffffffa2f7bffa8ec38388d04d93c8db6d46bd8050150589b3656052526b84a75b25f20100000000ffffffff3b106994580ba0709992a686f85e423af05a650d68f59400c4d2fe323335ffb20100000000ffffffff02dd6e040000000000160014e27725ff317aa4f2011157028b93d04ae48fe2fe376f0000000000001600145efd30dc1221e98c5d1d30aa74f88debb6a82e8e02483045022100f9e88c8b3bc071360b2239bcf0d92cb7a5b3c6653932ca2fd7b0d694e1bb569302203c5333f1067b1479b707bc94c437f821cb2afb816816618c02f9db5aadebf1c3012102be753f8a309d198654476d019e6e7689348f173f33c495496d406ff79219165302473044022054058cb22acda4b3deb0f632ea50172cbe3886d54b84530969d0cd6134fd1dd202205b0104c8ca72efbf919f9586e89a96254378ff906701c62181639ae21dea93e5012102be753f8a309d198654476d019e6e7689348f173f33c495496d406ff79219165302483045022100cb09015e57ee90a6fcb1c6731c758c84816be453f6bc5c3428a20e9261ddc3a302206f8a877fb00d144fdecb14747ab196c2c46c0b6144cc60de123d52ef4dfe8f0f012102be753f8a309d198654476d019e6e7689348f173f33c495496d406ff79219165302473044022056ae98a54cf74690f5f0cbb94e1c62b87a1837317f5c88ee0857bff01ca3c4880220171835707330f2bc6255553b78df1513ee36c5cb79ad5b5b94de27a5aa05be55012102be753f8a309d198654476d019e6e7689348f173f33c495496d406ff7921916530247304402202427f974b3408d0603644b1455e82d1bbf9f51b047c10852bf3bff1ecbd530410220053d89a6ab2e8a32ff28a8913c6d90a4cf952c6c44d398097098070355c9b819012102be753f8a309d198654476d019e6e7689348f173f33c495496d406ff79219165300000000"
}