{
  "txid": "382be311d3c2d460664c00ec20e53abdebddfb7c96977a87075deb3f3d3deef3",
  "version": 2,
  "locktime": 0,
  "vin": [
    {
      "txid": "1c8b242132e83eb71cc4ae233aa93763bbb5983293535e1ed35af80054c26d0f",
      "vout": 3,
      "prevout": {
        "scriptpubkey": "001417bcf9626a4834b2e27a72c716c8a7c6bc0bb506",
        "scriptpubkey_asm": "OP_0 OP_PUSHBYTES_20 17bcf9626a4834b2e27a72c716c8a7c6bc0bb506",
        "scriptpubkey_type": "v0_p2wpkh",
        "scriptpubkey_address": "bc1qz770jcn2fq6t9cn6wtr3dj98c67qhdgxq80aae",
        "value": 547
      },
      "scriptsig": "",
      "scriptsig_asm": "",
      "witness": [
        "304402200d62de2bff7a30a819cd578a8d9698ca2957f1c56f79553f677054e722a5833e0220270b990a036563b1c5ada4d162f60a1394021621a54a95801d52f483549bc5d081",
        "03bdb4f3d6915de4437952573d6cadf388277d7102cbdc0003e5830947b7bd03dd"
      ],
      "is_coinbase": false,
      "sequence": 4294967293
    },
    {
      "txid": "bf9f73f20a97c0a4f1f708643a4280f71cf3ea32ab54689e3b32fc47e86aaa99",
      "vout": 3,
      "prevout": {
        "scriptpubkey": "00142e2f9065b71cb752d27fa263254a93e07afc271a",
        "scriptpubkey_asm": "OP_0 OP_PUSHBYTES_20 2e2f9065b71cb752d27fa263254a93e07afc271a",
        "scriptpubkey_type": "v0_p2wpkh",
        "scriptpubkey_address": "bc1q9cheqedhrjm495nl5f3j2j5nupa0cfc6puyg7k",
        "value": 1441409
      },
      "scriptsig": "",
      "scriptsig_asm": "",
      "witness": [
        "30440220302b7943dedc2fe220c83e5a872361c752661be53732996f0f90b6549339f9dc022060f96bd398c399269fa590541e92862a5b4d6a17a8d82c2b3852773718c8d89d01",
        "02a4f0eff0db83ee20fb9d28c2481fac42059046d8a777b1b57124eeff51202fc6"
      ],
      "is_coinbase": false,
      "sequence": 4294967293
    }
  ],
  "vout": [
    {
      "scriptpubkey": "001448058a26f4015187b0c3724bd30e84bf919d3c22",
      "scriptpubkey_asm": "OP_0 OP_PUSHBYTES_20 48058a26f4015187b0c3724bd30e84bf919d3c22",
      "scriptpubkey_type": "v0_p2wpkh",
      "scriptpubkey_address": "bc1qfqzc5fh5q9gc0vxrwf9axr5yh7ge60pzkspwhe",
      "value": 1428000
    },
    {
      "scriptpubkey": "5121020419029fc52294ef8d21e8858566199cdebbc321aea12ae6a6b25e0f20801736210251378aa6f836c9d89d2e53ad8babdaff2add605eead923c7cde5a552c380d74d2103333333333333333333333333333333333333333333333333333333333333333353ae",
      "scriptpubkey_asm": "OP_PUSHNUM_1 OP_PUSHBYTES_33 020419029fc52294ef8d21e8858566199cdebbc321aea12ae6a6b25e0f20801736 OP_PUSHBYTES_33 0251378aa6f836c9d89d2e53ad8babdaff2add605eead923c7cde5a552c380d74d OP_PUSHBYTES_33 033333333333333333333333333333333333333333333333333333333333333333 OP_PUSHNUM_3 OP_CHECKMULTISIG",
      "scriptpubkey_type": "unknown",
      "value": 796
    },
    {
      "scriptpubkey": "5121024b632518970939a7d88b4ea1418685214c266d989032c1848aa8ed5d905665032102baca68219c73036f8a50a7ce600e95a3a6cabdafe4c4f6ada344252ad35a66e82102020202020202020202020202020202020202020202020202020202020202020253ae",
      "scriptpubkey_asm": "OP_PUSHNUM_1 OP_PUSHBYTES_33 024b632518970939a7d88b4ea1418685214c266d989032c1848aa8ed5d90566503 OP_PUSHBYTES_33 02baca68219c73036f8a50a7ce600e95a3a6cabdafe4c4f6ada344252ad35a66e8 OP_PUSHBYTES_33 020202020202020202020202020202020202020202020202020202020202020202 OP_PUSHNUM_3 OP_CHECKMULTISIG",
      "scriptpubkey_type": "unknown",
      "value": 796
    },
    {
      "scriptpubkey": "001417bcf9626a4834b2e27a72c716c8a7c6bc0bb506",
      "scriptpubkey_asm": "OP_0 OP_PUSHBYTES_20 17bcf9626a4834b2e27a72c716c8a7c6bc0bb506",
      "scriptpubkey_type": "v0_p2wpkh",
      "scriptpubkey_address": "bc1qz770jcn2fq6t9cn6wtr3dj98c67qhdgxq80aae",
      "value": 547
    }
  ],
  "size": 598,
  "weight": 1744,
  "fee": 11817,
  "status": {
    "confirmed": true,
    "block_height": 834638,
    "block_hash": "000000000000000000025f742c626208ac87e0b7d15054abb4a19ca2d735a54e",
    "block_time": 1710405325
  },
  "hex": "020000000001020f6dc25400f85ad31e5e53933298b5bb6337a93a23aec41cb73ee83221248b1c0300000000fdffffff99aa6ae847fc323b9e6854ab32eaf31cf780423a6408f7f1a4c0970af2739fbf0300000000fdffffff0420ca15000000000016001448058a26f4015187b0c3724bd30e84bf919d3c221c03000000000000695121020419029fc52294ef8d21e8858566199cdebbc321aea12ae6a6b25e0f20801736210251378aa6f836c9d89d2e53ad8babdaff2add605eead923c7cde5a552c380d74d2103333333333333333333333333333333333333333333333333333333333333333353ae1c03000000000000695121024b632518970939a7d88b4ea1418685214c266d989032c1848aa8ed5d905665032102baca68219c73036f8a50a7ce600e95a3a6cabdafe4c4f6ada344252ad35a66e82102020202020202020202020202020202020202020202020202020202020202020253ae230200000000000016001417bcf9626a4834b2e27a72c716c8a7c6bc0bb5060247304402200d62de2bff7a30a819cd578a8d9698ca2957f1c56f79553f677054e722a5833e0220270b990a036563b1c5ada4d162f60a1394021621a54a95801d52f483549bc5d0812103bdb4f3d6915de4437952573d6cadf388277d7102cbdc0003e5830947b7bd03dd024730440220302b7943dedc2fe220c83e5a872361c752661be53732996f0f90b6549339f9dc022060f96bd398c399269fa590541e92862a5b4d6a17a8d82c2b3852773718c8d89d012102a4f0eff0db83ee20fb9d28c2481fac42059046d8a777b1b57124eeff51202fc600000000"
}