{
  "txid": "382be757fa40774ff39680eedb1b520833bfbcc779896eae4e2e5bf892451e03",
  "version": 1,
  "locktime": 0,
  "vin": [
    {
      "txid": "c25d8e6c9f13068a1a56224c7321997a683c336379d58fa2eb412a4b7ef3286c",
      "vout": 0,
      "prevout": {
        "scriptpubkey": "76a9144b0cc6cd77bfeb240ed00221aab9a14c796fc47b88ac",
        "scriptpubkey_asm": "OP_DUP OP_HASH160 OP_PUSHBYTES_20 4b0cc6cd77bfeb240ed00221aab9a14c796fc47b OP_EQUALVERIFY OP_CHECKSIG",
        "scriptpubkey_type": "p2pkh",
        "scriptpubkey_address": "17qpz7uhkUVXan377GKPopWQTrBxu1XqUD",
        "value": 7439957324
      },
      "scriptsig": "483045022100be3684ffdaa44671d96ceab0536f83d7db8d768fd47e130cfc27226dbe59c1cd02201afd7cb09cdac1efe795d8c6c708514c4801272648ee32711b4b0459311a4bf3014104218c68f963328977ac5339533f0476eb702061c2d3ded4829ea8d8e7b863861b28f880ad9cfb2a23368e3f4f4fab3827120512451aee5f4d4979b6bfa48b4d20",
      "scriptsig_asm": "OP_PUSHBYTES_72 3045022100be3684ffdaa44671d96ceab0536f83d7db8d768fd47e130cfc27226dbe59c1cd02201afd7cb09cdac1efe795d8c6c708514c4801272648ee32711b4b0459311a4bf301 OP_PUSHBYTES_65 04218c68f963328977ac5339533f0476eb702061c2d3ded4829ea8d8e7b863861b28f880ad9cfb2a23368e3f4f4fab3827120512451aee5f4d4979b6bfa48b4d20",
      "is_coinbase": false,
      "sequence": 4294967295
    }
  ],
  "vout": [
    {
      "scriptpubkey": "76a9144b0cc6cd77bfeb240ed00221aab9a14c796fc47b88ac",
      "scriptpubkey_asm": "OP_DUP OP_HASH160 OP_PUSHBYTES_20 4b0cc6cd77bfeb240ed00221aab9a14c796fc47b OP_EQUALVERIFY OP_CHECKSIG",
      "scriptpubkey_type": "p2pkh",
      "scriptpubkey_address": "17qpz7uhkUVXan377GKPopWQTrBxu1XqUD",
      "value": 7419951422
    },
    {
      "scriptpubkey": "a914d3f22b18469e07380f49643b34049bfd8bae2a5987",
      "scriptpubkey_asm": "OP_HASH160 OP_PUSHBYTES_20 d3f22b18469e07380f49643b34049bfd8bae2a59 OP_EQUAL",
      "scriptpubkey_type": "p2sh",
      "scriptpubkey_address": "3M1gcAt344QePaBdp5YSjjYQpqNC7mT3QU",
      "value": 20000000
    }
  ],
  "size": 256,
  "weight": 1024,
  "fee": 5902,
  "status": {
    "confirmed": true,
    "block_height": 834638,
    "block_hash": "000000000000000000025f742c626208ac87e0b7d15054abb4a19ca2d735a54e",
    "block_time": 1710405325
  },
  "hex": "01000000016c28f37e4b2a41eba28fd57963333c687a9921734c22561a8a06139f6c8e5dc2000000008b483045022100be3684ffdaa44671d96ceab0536f83d7db8d768fd47e130cfc27226dbe59c1cd02201afd7cb09cdac1efe795d8c6c708514c4801272648ee32711b4b0459311a4bf3014104218c68f963328977ac5339533f0476eb702061c2d3ded4829ea8d8e7b863861b28f880ad9cfb2a23368e3f4f4fab3827120512451aee5f4d4979b6bfa48b4d20ffffffff023e7943ba010000001976a9144b0cc6cd77bfeb240ed00221aab9a14c796fc47b88ac002d31010000000017a914d3f22b18469e07380f49643b34049bfd8bae2a598700000000"
}