{
  "txid": "382ccc97cb3b301af8f77c21953f2e9d3bc627cd7f3e56b661368e825f375f45",
  "version": 2,
  "locktime": 834637,
  "vin": [
    {
      "txid": "4f7d9562c25467a64f0403269de64a906aa4dd0a0f0091a7f0d0e683872b4885",
      "vout": 1,
      "prevout": {
        "scriptpubkey": "001414989c53e65d603069bf506996f24f45f4a12107",
        "scriptpubkey_asm": "OP_0 OP_PUSHBYTES_20 14989c53e65d603069bf506996f24f45f4a12107",
        "scriptpubkey_type": "v0_p2wpkh",
        "scriptpubkey_address": "bc1qzjvfc5lxt4srq6dl2p5eduj0gh62zgg8mqeurg",
        "value": 288994794
      },
      "scriptsig": "",
      "scriptsig_asm": "",
      "witness": [
        "304402205c92eb8b976aedf45b5147f73bcfc2193503f3a6dea7e46705ce8c6594d6c55d0220221d780577954c8e46fe4d1636ca29c42710f228c9565379031b58e81681942c01",
        "0308829764e533e208680329441e1d111a3b34012cb6f2a71c1415f0d541ea969e"
      ],
      "is_coinbase": false,
      "sequence": 4294967294
    }
  ],
  "vout": [
    {
      "scriptpubkey": "a9146e77148ecf4b6ee0170840ee1d131a9c2137e60287",
      "scriptpubkey_asm": "OP_HASH160 OP_PUSHBYTES_20 6e77148ecf4b6ee0170840ee1d131a9c2137e602 OP_EQUAL",
      "scriptpubkey_type": "p2sh",
      "scriptpubkey_address": "3Bm6uVMXyNKZjkEBYvLFWqtpo8R5aPjSit",
      "value": 275100
    },
    {
      "scriptpubkey": "001411ecc20c004a876b639de4aea144896db4ee427f",
      "scriptpubkey_asm": "OP_0 OP_PUSHBYTES_20 11ecc20c004a876b639de4aea144896db4ee427f",
      "scriptpubkey_type": "v0_p2wpkh",
      "scriptpubkey_address": "bc1qz8kvyrqqf2rkkcuaujh2z3yfdk6wusnlvcnq0q",
      "value": 288716214
    }
  ],
  "size": 223,
  "weight": 565,
  "fee": 3480,
  "status": {
    "confirmed": true,
    "block_height": 834638,
    "block_hash": "000000000000000000025f742c626208ac87e0b7d15054abb4a19ca2d735a54e",
    "block_time": 1710405325
  },
  "hex": "0200000000010185482b8783e6d0f0a791000f0adda46a904ae69d2603044fa66754c262957d4f0100000000feffffff029c3204000000000017a9146e77148ecf4b6ee0170840ee1d131a9c2137e60287b67535110000000016001411ecc20c004a876b639de4aea144896db4ee427f0247304402205c92eb8b976aedf45b5147f73bcfc2193503f3a6dea7e46705ce8c6594d6c55d0220221d780577954c8e46fe4d1636ca29c42710f228c9565379031b58e81681942c01210308829764e533e208680329441e1d111a3b34012cb6f2a71c1415f0d541ea969e4dbc0c00"
}