{
  "txid": "3844f46b5b7fee24773142097b3dc80c397014cc2dedf024454b9193fb1e2d0d",
  "version": 1,
  "locktime": 0,
  "vin": [
    {
      "txid": "9bee3ce928680e7ca082a139ab23786f0fc28acbf23022dfbc073c7940dcbdb9",
      "vout": 0,
      "prevout": {
        "scriptpubkey": "5120ac700af54bbb067b7a22b43db5ee09eb6499ef6154ded2d313d8455e88c14223",
        "scriptpubkey_asm": "OP_PUSHNUM_1 OP_PUSHBYTES_32 ac700af54bbb067b7a22b43db5ee09eb6499ef6154ded2d313d8455e88c14223",
        "scriptpubkey_type": "v1_p2tr",
        "scriptpubkey_address": "bc1p43cq4a2thvr8k73zks7mtmsfadjfnmmp2n0d95cnmpz4azxpgg3smvj5wh",
        "value": 2856
      },
      "scriptsig": "",
      "scriptsig_asm": "",
      "witness": [
        "51bec52f220d7167bd161b445d4561d12612c2d2d348c57111f3556d3d49543ae15107811a3b51fe9bf7df94a05cfdcf11d154ce2e84c1daedd215f934c5636183",
        "20be11f1d0580232188e877ef283eb5a1efd4e9e5290a2633605d666f59ad3fff2ac00630461746f6d03646d742da16461726773a36b6d696e745f7469636b657264646f6765656e6f6e63651a0048e7596474696d651a65f1356868",
        "c1be11f1d0580232188e877ef283eb5a1efd4e9e5290a2633605d666f59ad3fff2"
      ],
      "is_coinbase": false,
      "sequence": 4294967293
    }
  ],
  "vout": [
    {
      "scriptpubkey": "51208fe1767885d17c27b305545e70dcb21ed67996322ce6c15c4380a9ea247b0039",
      "scriptpubkey_asm": "OP_PUSHNUM_1 OP_PUSHBYTES_32 8fe1767885d17c27b305545e70dcb21ed67996322ce6c15c4380a9ea247b0039",
      "scriptpubkey_type": "v1_p2tr",
      "scriptpubkey_address": "bc1p3lshv7y9697z0vc92308ph9jrmt8n93j9nnvzhzrsz575frmqqus9g2c7p",
      "value": 1000
    }
  ],
  "size": 290,
  "weight": 572,
  "fee": 1856,
  "status": {
    "confirmed": true,
    "block_height": 834460,
    "block_hash": "00000000000000000000484a79b643b2524bbce82e5d8a442013fa5b8905ed98",
    "block_time": 1710307468
  },
  "hex": "01000000000101b9bddc40793c07bcdf2230f2cb8ac20f6f7823ab39a182a07c0e6828e93cee9b0000000000fdffffff01e8030000000000002251208fe1767885d17c27b305545e70dcb21ed67996322ce6c15c4380a9ea247b0039034151bec52f220d7167bd161b445d4561d12612c2d2d348c57111f3556d3d49543ae15107811a3b51fe9bf7df94a05cfdcf11d154ce2e84c1daedd215f934c56361835c20be11f1d0580232188e877ef283eb5a1efd4e9e5290a2633605d666f59ad3fff2ac00630461746f6d03646d742da16461726773a36b6d696e745f7469636b657264646f6765656e6f6e63651a0048e7596474696d651a65f135686821c1be11f1d0580232188e877ef283eb5a1efd4e9e5290a2633605d666f59ad3fff200000000"
}