{
  "txid": "3845d1bb27a66a678f219c001276cf8a34421dcdcc04329affffb1f487bdd6b6",
  "version": 2,
  "locktime": 0,
  "vin": [
    {
      "txid": "85a4b83bf6eaf5fd5441750f68edf88ca1d4de1572b1b18fbb83cf736c9f11db",
      "vout": 0,
      "prevout": {
        "scriptpubkey": "0014404f80ad6a0dfdf41c8aae5efdd0a04d5e89fc06",
        "scriptpubkey_asm": "OP_0 OP_PUSHBYTES_20 404f80ad6a0dfdf41c8aae5efdd0a04d5e89fc06",
        "scriptpubkey_type": "v0_p2wpkh",
        "scriptpubkey_address": "bc1qgp8cptt2ph7lg8y24e00m59qf40gnlqxrh4jum",
        "value": 150000
      },
      "scriptsig": "",
      "scriptsig_asm": "",
      "witness": [
        "304402202b63ff699cea2be34c4eab07a69694a330999cb82307689e959a0bc653e36143022069a09a57a09a961b6dbda86f59a9e75f0a04ceda54455263ceee383ab0dad9e901",
        "03f07780c59a65d16a7dbd77ae88f66907526d516845ca36f04748653f0b87ac3e"
      ],
      "is_coinbase": false,
      "sequence": 4294967293
    }
  ],
  "vout": [
    {
      "scriptpubkey": "5120d95d263d8a4a0abc6259cd39f62493643141cf5f3647299f4a2effd9f3972f6d",
      "scriptpubkey_asm": "OP_PUSHNUM_1 OP_PUSHBYTES_32 d95d263d8a4a0abc6259cd39f62493643141cf5f3647299f4a2effd9f3972f6d",
      "scriptpubkey_type": "v1_p2tr",
      "scriptpubkey_address": "bc1pm9wjv0v2fg9tccjee5ulvfynvsc5rn6lxerjn8629mlanuuh9aks6twn3k",
      "value": 27266
    },
    {
      "scriptpubkey": "0014404f80ad6a0dfdf41c8aae5efdd0a04d5e89fc06",
      "scriptpubkey_asm": "OP_0 OP_PUSHBYTES_20 404f80ad6a0dfdf41c8aae5efdd0a04d5e89fc06",
      "scriptpubkey_type": "v0_p2wpkh",
      "scriptpubkey_address": "bc1qgp8cptt2ph7lg8y24e00m59qf40gnlqxrh4jum",
      "value": 121051
    }
  ],
  "size": 234,
  "weight": 609,
  "fee": 1683,
  "status": {
    "confirmed": true,
    "block_height": 834464,
    "block_hash": "0000000000000000000177a0869a911a2b65c9bdcd5a8bcb02b68f305bee848e",
    "block_time": 1710308296
  },
  "hex": "02000000000101db119f6c73cf83bb8fb1b17215ded4a18cf8ed680f754154fdf5eaf63bb8a4850000000000fdffffff02826a000000000000225120d95d263d8a4a0abc6259cd39f62493643141cf5f3647299f4a2effd9f3972f6ddbd8010000000000160014404f80ad6a0dfdf41c8aae5efdd0a04d5e89fc060247304402202b63ff699cea2be34c4eab07a69694a330999cb82307689e959a0bc653e36143022069a09a57a09a961b6dbda86f59a9e75f0a04ceda54455263ceee383ab0dad9e9012103f07780c59a65d16a7dbd77ae88f66907526d516845ca36f04748653f0b87ac3e00000000"
}