{
  "txid": "384e3d84c43f538e3f28b747f3386d7e4e3591ac5e94746f0857d6566d885bf1",
  "version": 2,
  "locktime": 832833,
  "vin": [
    {
      "txid": "e1b968d03fc7bfb177094d14770e1d76cbe19ed2569e9bc169455cb83e37c90d",
      "vout": 0,
      "prevout": {
        "scriptpubkey": "0014673c338da2de38c9fd3e946b0c9699004e66151b",
        "scriptpubkey_asm": "OP_0 OP_PUSHBYTES_20 673c338da2de38c9fd3e946b0c9699004e66151b",
        "scriptpubkey_type": "v0_p2wpkh",
        "scriptpubkey_address": "bc1qvu7r8rdzmcuvnlf7j34se95eqp8xv9gmsz5g2l",
        "value": 17990
      },
      "scriptsig": "",
      "scriptsig_asm": "",
      "witness": [
        "304402200aa061a7377ff7ed4540b00f139e1c218ef86536f88063dbd75cb6472ae988930220501e041f751a8159aabcad330f8ca4a660eb26f33734b5c781854e209d5cd70f01",
        "039f72a676d0eada61dcf1c9d3f1e763b896bc90df806d41b286f73473a3f36616"
      ],
      "is_coinbase": false,
      "sequence": 4294967293
    }
  ],
  "vout": [
    {
      "scriptpubkey": "00140fd90e23ddcc2a03a1aae28bff433fe357f864ac",
      "scriptpubkey_asm": "OP_0 OP_PUSHBYTES_20 0fd90e23ddcc2a03a1aae28bff433fe357f864ac",
      "scriptpubkey_type": "v0_p2wpkh",
      "scriptpubkey_address": "bc1qplvsug7aes4q8gd2u29l7seludtlse9vmcjjfr",
      "value": 16990
    }
  ],
  "size": 191,
  "weight": 437,
  "fee": 1000,
  "status": {
    "confirmed": true,
    "block_height": 834464,
    "block_hash": "0000000000000000000177a0869a911a2b65c9bdcd5a8bcb02b68f305bee848e",
    "block_time": 1710308296
  },
  "hex": "020000000001010dc9373eb85c4569c19b9e56d29ee1cb761d0e77144d0977b1bfc73fd068b9e10000000000fdffffff015e420000000000001600140fd90e23ddcc2a03a1aae28bff433fe357f864ac0247304402200aa061a7377ff7ed4540b00f139e1c218ef86536f88063dbd75cb6472ae988930220501e041f751a8159aabcad330f8ca4a660eb26f33734b5c781854e209d5cd70f0121039f72a676d0eada61dcf1c9d3f1e763b896bc90df806d41b286f73473a3f3661641b50c00"
}