{
  "txid": "385a4d48c1ef4d1e09c7bc2f26ab6dd9769ed5efc86871c0a804f160e2acbd36",
  "version": 2,
  "locktime": 0,
  "vin": [
    {
      "txid": "7955a4cc59dda2d5667d5f78b7cc0fc60a4aed1f88c05a7c6ef1459bba221665",
      "vout": 2,
      "prevout": {
        "scriptpubkey": "51201e8f455d2e1a91e1e8d80e3ea6a1f0524bff2aa6c01461459d0952bbe2f9fe8b",
        "scriptpubkey_asm": "OP_PUSHNUM_1 OP_PUSHBYTES_32 1e8f455d2e1a91e1e8d80e3ea6a1f0524bff2aa6c01461459d0952bbe2f9fe8b",
        "scriptpubkey_type": "v1_p2tr",
        "scriptpubkey_address": "bc1pr6852hfwr2g7r6xcpcl2dg0s2f9l724xcq2xz3vap9fthchel69s2eu08h",
        "value": 1888000
      },
      "scriptsig": "",
      "scriptsig_asm": "",
      "witness": [
        "9d16263ae01f5ff9af02f072ba0654af694b8fb1fdf52e99f391ed5ff59c867cc59db37eb456a755114d8a9c1ef78fb592b1f42efb13d060bff4d1c91e150514"
      ],
      "is_coinbase": false,
      "sequence": 2147483649
    },
    {
      "txid": "39f26b00c60ce707e9d540f15f7ec89a394c574b7445c1b4c495b1687e92c5c3",
      "vout": 1,
      "prevout": {
        "scriptpubkey": "51201e8f455d2e1a91e1e8d80e3ea6a1f0524bff2aa6c01461459d0952bbe2f9fe8b",
        "scriptpubkey_asm": "OP_PUSHNUM_1 OP_PUSHBYTES_32 1e8f455d2e1a91e1e8d80e3ea6a1f0524bff2aa6c01461459d0952bbe2f9fe8b",
        "scriptpubkey_type": "v1_p2tr",
        "scriptpubkey_address": "bc1pr6852hfwr2g7r6xcpcl2dg0s2f9l724xcq2xz3vap9fthchel69s2eu08h",
        "value": 25318
      },
      "scriptsig": "",
      "scriptsig_asm": "",
      "witness": [
        "525ee9285c73f2e2a0c636280f92f9f835518b0af7162b5d8b26a31ea20871196a3007c2514ee905d4648170134ab8ddccd2788e761aa58a951e82ae174a921b"
      ],
      "is_coinbase": false,
      "sequence": 2147483649
    }
  ],
  "vout": [
    {
      "scriptpubkey": "00148d6c557d9c42c75d965bfeac07e12e7dafe657fd",
      "scriptpubkey_asm": "OP_0 OP_PUSHBYTES_20 8d6c557d9c42c75d965bfeac07e12e7dafe657fd",
      "scriptpubkey_type": "v0_p2wpkh",
      "scriptpubkey_address": "bc1q34k92lvugtr4m9jml6kq0cfw0kh7v4laxdzwfp",
      "value": 1900000
    },
    {
      "scriptpubkey": "51201e8f455d2e1a91e1e8d80e3ea6a1f0524bff2aa6c01461459d0952bbe2f9fe8b",
      "scriptpubkey_asm": "OP_PUSHNUM_1 OP_PUSHBYTES_32 1e8f455d2e1a91e1e8d80e3ea6a1f0524bff2aa6c01461459d0952bbe2f9fe8b",
      "scriptpubkey_type": "v1_p2tr",
      "scriptpubkey_address": "bc1pr6852hfwr2g7r6xcpcl2dg0s2f9l724xcq2xz3vap9fthchel69s2eu08h",
      "value": 9935
    }
  ],
  "size": 300,
  "weight": 798,
  "fee": 3383,
  "status": {
    "confirmed": true,
    "block_height": 834638,
    "block_hash": "000000000000000000025f742c626208ac87e0b7d15054abb4a19ca2d735a54e",
    "block_time": 1710405325
  },
  "hex": "02000000000102651622ba9b45f16e7c5ac0881fed4a0ac60fccb7785f7d66d5a2dd59cca45579020000000001000080c3c5927e68b195c4b4c145744b574c399ac87e5ff140d5e907e70cc6006bf23901000000000100008002e0fd1c00000000001600148d6c557d9c42c75d965bfeac07e12e7dafe657fdcf260000000000002251201e8f455d2e1a91e1e8d80e3ea6a1f0524bff2aa6c01461459d0952bbe2f9fe8b01409d16263ae01f5ff9af02f072ba0654af694b8fb1fdf52e99f391ed5ff59c867cc59db37eb456a755114d8a9c1ef78fb592b1f42efb13d060bff4d1c91e1505140140525ee9285c73f2e2a0c636280f92f9f835518b0af7162b5d8b26a31ea20871196a3007c2514ee905d4648170134ab8ddccd2788e761aa58a951e82ae174a921b00000000"
}