{
  "txid": "385dc1a11ac5736563c40767d983e5402e2ea85032def60def5e9d0476d48b00",
  "version": 1,
  "locktime": 0,
  "vin": [
    {
      "txid": "5f81d3b68daf550de47f4b2831c1cfd822f59c56a7589d21109fd5d2a61f5211",
      "vout": 0,
      "prevout": {
        "scriptpubkey": "51201b88991549be89636fd596b1be1d469374bbf2eaad8fb61b73c88a582adbf135",
        "scriptpubkey_asm": "OP_PUSHNUM_1 OP_PUSHBYTES_32 1b88991549be89636fd596b1be1d469374bbf2eaad8fb61b73c88a582adbf135",
        "scriptpubkey_type": "v1_p2tr",
        "scriptpubkey_address": "bc1prwyfj92fh6ykxm74j6cmu82xjd6thuh24k8mvxmnez99s2km7y6s4vv0nh",
        "value": 121311
      },
      "scriptsig": "",
      "scriptsig_asm": "",
      "witness": [
        "515880685c6ab695f7f07111efa2e4844ebfd9839afee51982aec1c3e3723c748e54b62051af6e5b7a57dbf6da19f680c87433c059beef8330387a43d27d2d6401"
      ],
      "is_coinbase": false,
      "sequence": 4294967295
    }
  ],
  "vout": [
    {
      "scriptpubkey": "5120c354984643f670e02f8f9ed0baa208261ce1ed5d5d8c0f91690f5eb9cec4096b",
      "scriptpubkey_asm": "OP_PUSHNUM_1 OP_PUSHBYTES_32 c354984643f670e02f8f9ed0baa208261ce1ed5d5d8c0f91690f5eb9cec4096b",
      "scriptpubkey_type": "v1_p2tr",
      "scriptpubkey_address": "bc1pcd2fs3jr7ecwqtu0nmgt4gsgycwwrm2atkxqlytfpa0tnnkyp94ss52zfk",
      "value": 96954
    },
    {
      "scriptpubkey": "00200bda0566ede3e6e4caf1755d802a7c91945d7a0515f4718a307da719fd9c1c0e",
      "scriptpubkey_asm": "OP_0 OP_PUSHBYTES_32 0bda0566ede3e6e4caf1755d802a7c91945d7a0515f4718a307da719fd9c1c0e",
      "scriptpubkey_type": "v0_p2wsh",
      "scriptpubkey_address": "bc1qp0dq2ehdu0nwfjh3w4wcq2nujx2967s9zh68rz3s0kn3nlvurs8qfn5apa",
      "value": 22684
    }
  ],
  "size": 206,
  "weight": 617,
  "fee": 1673,
  "status": {
    "confirmed": true,
    "block_height": 834464,
    "block_hash": "0000000000000000000177a0869a911a2b65c9bdcd5a8bcb02b68f305bee848e",
    "block_time": 1710308296
  },
  "hex": "0100000000010111521fa6d2d59f10219d58a7569cf522d8cfc131284b7fe40d55af8db6d3815f0000000000ffffffff02ba7a010000000000225120c354984643f670e02f8f9ed0baa208261ce1ed5d5d8c0f91690f5eb9cec4096b9c580000000000002200200bda0566ede3e6e4caf1755d802a7c91945d7a0515f4718a307da719fd9c1c0e0141515880685c6ab695f7f07111efa2e4844ebfd9839afee51982aec1c3e3723c748e54b62051af6e5b7a57dbf6da19f680c87433c059beef8330387a43d27d2d640100000000"
}