{
  "txid": "385e81e1ce9261c3a12ff8b8e7dd10db7fe0090809a4761541e59a8af1942a8e",
  "version": 2,
  "locktime": 0,
  "vin": [
    {
      "txid": "10b018766d04f814552ffe4b7c21693cc456a51a00e20fa8c1ec3625791258b2",
      "vout": 0,
      "prevout": {
        "scriptpubkey": "001494f8feed0944356c8e762ab718a95544c2257a17",
        "scriptpubkey_asm": "OP_0 OP_PUSHBYTES_20 94f8feed0944356c8e762ab718a95544c2257a17",
        "scriptpubkey_type": "v0_p2wpkh",
        "scriptpubkey_address": "bc1qjnu0amgfgs6kernk92m33224gnpz27shuajpge",
        "value": 404548
      },
      "scriptsig": "",
      "scriptsig_asm": "",
      "witness": [
        "3044022009c43917effbe2eb11db98274d2e42a7d16d21ae9a8a16e8cc3f5f02a193b63f0220061c2b5c4850e5298e2351fc2b1db4670234bb974b5c5a38b5e3f363250f5fa801",
        "03ffa4f2967b891b5ab970f582a56fbe63025f2d6e8ffaf105a987070cad92f407"
      ],
      "is_coinbase": false,
      "sequence": 4294967295
    }
  ],
  "vout": [
    {
      "scriptpubkey": "a9148ac24006616882dbe4ecb7b942732a48a2c85aa587",
      "scriptpubkey_asm": "OP_HASH160 OP_PUSHBYTES_20 8ac24006616882dbe4ecb7b942732a48a2c85aa5 OP_EQUAL",
      "scriptpubkey_type": "p2sh",
      "scriptpubkey_address": "3ELhskSLwkcYFGGRvqc4se5AsZNQ3enmNn",
      "value": 69620
    },
    {
      "scriptpubkey": "001477e18a551973c6a5adebaad9a127b61922ae9df7",
      "scriptpubkey_asm": "OP_0 OP_PUSHBYTES_20 77e18a551973c6a5adebaad9a127b61922ae9df7",
      "scriptpubkey_type": "v0_p2wpkh",
      "scriptpubkey_address": "bc1qwlsc54gew0r2tt0t4tv6zfakry32a80hxqqw06",
      "value": 332357
    }
  ],
  "size": 223,
  "weight": 565,
  "fee": 2571,
  "status": {
    "confirmed": true,
    "block_height": 834638,
    "block_hash": "000000000000000000025f742c626208ac87e0b7d15054abb4a19ca2d735a54e",
    "block_time": 1710405325
  },
  "hex": "02000000000101b25812792536ecc1a80fe2001aa556c43c69217c4bfe2f5514f8046d7618b0100000000000ffffffff02f40f01000000000017a9148ac24006616882dbe4ecb7b942732a48a2c85aa587451205000000000016001477e18a551973c6a5adebaad9a127b61922ae9df702473044022009c43917effbe2eb11db98274d2e42a7d16d21ae9a8a16e8cc3f5f02a193b63f0220061c2b5c4850e5298e2351fc2b1db4670234bb974b5c5a38b5e3f363250f5fa8012103ffa4f2967b891b5ab970f582a56fbe63025f2d6e8ffaf105a987070cad92f40700000000"
}