{
  "txid": "386467b33c0f3148f7531e0ae7348e68b26840be0bed4c51f4ec9a7bf73efcf9",
  "version": 1,
  "locktime": 0,
  "vin": [
    {
      "txid": "a98f16470957588ae9768d46c69fa63f6fa8c7cbcc40cf7491f3f9efbc640f02",
      "vout": 0,
      "prevout": {
        "scriptpubkey": "00142a81df5feb3732aafa7414f7bb5c4f8862a9ac53",
        "scriptpubkey_asm": "OP_0 OP_PUSHBYTES_20 2a81df5feb3732aafa7414f7bb5c4f8862a9ac53",
        "scriptpubkey_type": "v0_p2wpkh",
        "scriptpubkey_address": "bc1q92qa7hltxue247n5znmmkhz03p32ntzndnu74c",
        "value": 22741618
      },
      "scriptsig": "",
      "scriptsig_asm": "",
      "witness": [
        "3045022100d3a9106147c97d834b2c388597cd1b09f1f229960d9130db6889fb853df905e202200df1a9f7e4f71d82a28272d8726f5eeab27d125223a0b51638083352a0c7499201",
        "0241721f000294cbc04303a1ab265ce35950011a7a9d5f2de364dc1b1614ffbf15"
      ],
      "is_coinbase": false,
      "sequence": 4294967293
    }
  ],
  "vout": [
    {
      "scriptpubkey": "a91408897b0101dfef5997a2ec781ab05bd786a76cc987",
      "scriptpubkey_asm": "OP_HASH160 OP_PUSHBYTES_20 08897b0101dfef5997a2ec781ab05bd786a76cc9 OP_EQUAL",
      "scriptpubkey_type": "p2sh",
      "scriptpubkey_address": "32UA2PZsGR3QDs5D16wURrUhyUxW9CVKEK",
      "value": 7899142
    },
    {
      "scriptpubkey": "001419239f2587773bdc156bdb480443fcdd721f8850",
      "scriptpubkey_asm": "OP_0 OP_PUSHBYTES_20 19239f2587773bdc156bdb480443fcdd721f8850",
      "scriptpubkey_type": "v0_p2wpkh",
      "scriptpubkey_address": "bc1qry3e7fv8wuaac9ttmdyqgslum4eplzzsv7qxac",
      "value": 14840062
    }
  ],
  "size": 224,
  "weight": 566,
  "fee": 2414,
  "status": {
    "confirmed": true,
    "block_height": 834638,
    "block_hash": "000000000000000000025f742c626208ac87e0b7d15054abb4a19ca2d735a54e",
    "block_time": 1710405325
  },
  "hex": "01000000000101020f64bceff9f39174cf40cccbc7a86f3fa69fc6468d76e98a58570947168fa90000000000fdffffff02068878000000000017a91408897b0101dfef5997a2ec781ab05bd786a76cc987fe70e2000000000016001419239f2587773bdc156bdb480443fcdd721f885002483045022100d3a9106147c97d834b2c388597cd1b09f1f229960d9130db6889fb853df905e202200df1a9f7e4f71d82a28272d8726f5eeab27d125223a0b51638083352a0c7499201210241721f000294cbc04303a1ab265ce35950011a7a9d5f2de364dc1b1614ffbf1500000000"
}