{
  "txid": "386d33c0dce473d9481913fe5ee84f829a0128627e5b8745f951ca81e7b51677",
  "version": 2,
  "locktime": 0,
  "vin": [
    {
      "txid": "acc3ba00869acb582a3f2904ce3a11dd3779350ce234063fc7d0959246213364",
      "vout": 198,
      "prevout": {
        "scriptpubkey": "51207d28b4ff47c1ae60f24686beb49eaee6ba2355c0e129a0613f96fe650d9da7ee",
        "scriptpubkey_asm": "OP_PUSHNUM_1 OP_PUSHBYTES_32 7d28b4ff47c1ae60f24686beb49eaee6ba2355c0e129a0613f96fe650d9da7ee",
        "scriptpubkey_type": "v1_p2tr",
        "scriptpubkey_address": "bc1p055tfl68cxhxpujxs6ltf84wu6azx4wquy56qcfljmlx2rva5lhqj3hnqz",
        "value": 1806
      },
      "scriptsig": "",
      "scriptsig_asm": "",
      "witness": [
        "e7dd0290ce7fb37502003f95e809460280b5b607c0245e1c5482634afd30131984ff4abe368e8e2ea2626be7a5cb10c259271dc8cdbc74cf0cd8e92046485d1a",
        "209e94c6017feb68c8d884b55e73476706cd5b8c9994092733ee8666daf88636afac0063036f726401010a746578742f706c61696e00357b2270223a226272632d3230222c226f70223a226d696e74222c227469636b223a22646f6765222c22616d74223a2234323030227d68",
        "c19e94c6017feb68c8d884b55e73476706cd5b8c9994092733ee8666daf88636af"
      ],
      "is_coinbase": false,
      "sequence": 4261412863
    }
  ],
  "vout": [
    {
      "scriptpubkey": "00147a665de7a370f4c9b372ab1fae587500a5bcbdb4",
      "scriptpubkey_asm": "OP_0 OP_PUSHBYTES_20 7a665de7a370f4c9b372ab1fae587500a5bcbdb4",
      "scriptpubkey_type": "v0_p2wpkh",
      "scriptpubkey_address": "bc1q0fn9mearwr6vnvmj4v06ukr4qzjme0d565dzcx",
      "value": 294
    }
  ],
  "size": 294,
  "weight": 540,
  "fee": 1512,
  "status": {
    "confirmed": true,
    "block_height": 834460,
    "block_hash": "00000000000000000000484a79b643b2524bbce82e5d8a442013fa5b8905ed98",
    "block_time": 1710307468
  },
  "hex": "02000000000101643321469295d0c73f0634e20c357937dd113ace04293f2a58cb9a8600bac3acc600000000fffffffd0126010000000000001600147a665de7a370f4c9b372ab1fae587500a5bcbdb40340e7dd0290ce7fb37502003f95e809460280b5b607c0245e1c5482634afd30131984ff4abe368e8e2ea2626be7a5cb10c259271dc8cdbc74cf0cd8e92046485d1a6d209e94c6017feb68c8d884b55e73476706cd5b8c9994092733ee8666daf88636afac0063036f726401010a746578742f706c61696e00357b2270223a226272632d3230222c226f70223a226d696e74222c227469636b223a22646f6765222c22616d74223a2234323030227d6821c19e94c6017feb68c8d884b55e73476706cd5b8c9994092733ee8666daf88636af00000000"
}