{
  "txid": "389441c88d003100dd2b18ae814870500bc359bdcff9f26bd341c57947be3331",
  "version": 1,
  "locktime": 0,
  "vin": [
    {
      "txid": "1538a820f7cac171c2ff253dcb4e4dbed8712c03237af32db7a4722b65bacc82",
      "vout": 1,
      "prevout": {
        "scriptpubkey": "001483f0d47e50cd29a75ebe4c8b770245b575c8e375",
        "scriptpubkey_asm": "OP_0 OP_PUSHBYTES_20 83f0d47e50cd29a75ebe4c8b770245b575c8e375",
        "scriptpubkey_type": "v0_p2wpkh",
        "scriptpubkey_address": "bc1qs0cdgljse556wh47fj9hwqj9k46u3cm45fztv7",
        "value": 1325830131
      },
      "scriptsig": "",
      "scriptsig_asm": "",
      "witness": [
        "304402205261dfa100b6072a39ab05504c94ae479bc21c7b8e7fc44dabb87ba7687f3abc022030156000bb98b8a6297513aeb7be725c67ef1240aaa8d7a12ec3cace0ad8942a01",
        "0255f54c27526f7a63fe8cd381ef997a58a58f99b0ba88091fa7bac42e215b6955"
      ],
      "is_coinbase": false,
      "sequence": 4294967295
    }
  ],
  "vout": [
    {
      "scriptpubkey": "0014349666bfc87cde3e4b9b95f2788c9e0c5d88c68f",
      "scriptpubkey_asm": "OP_0 OP_PUSHBYTES_20 349666bfc87cde3e4b9b95f2788c9e0c5d88c68f",
      "scriptpubkey_type": "v0_p2wpkh",
      "scriptpubkey_address": "bc1qxjtxd07g0n0rujumjhe83ry7p3wc3350nhs48e",
      "value": 27280000
    },
    {
      "scriptpubkey": "00145a7f280550f6449cfecfd70edf6a3b8eb94b1889",
      "scriptpubkey_asm": "OP_0 OP_PUSHBYTES_20 5a7f280550f6449cfecfd70edf6a3b8eb94b1889",
      "scriptpubkey_type": "v0_p2wpkh",
      "scriptpubkey_address": "bc1qtfljsp2s7ezfelk06u8d763m36u5kxyf5q4hm0",
      "value": 1298546491
    }
  ],
  "size": 222,
  "weight": 561,
  "fee": 3640,
  "status": {
    "confirmed": true,
    "block_height": 834638,
    "block_hash": "000000000000000000025f742c626208ac87e0b7d15054abb4a19ca2d735a54e",
    "block_time": 1710405325
  },
  "hex": "0100000000010182ccba652b72a4b72df37a23032c71d8be4d4ecb3d25ffc271c1caf720a838150100000000ffffffff028042a00100000000160014349666bfc87cde3e4b9b95f2788c9e0c5d88c68f3b3f664d000000001600145a7f280550f6449cfecfd70edf6a3b8eb94b18890247304402205261dfa100b6072a39ab05504c94ae479bc21c7b8e7fc44dabb87ba7687f3abc022030156000bb98b8a6297513aeb7be725c67ef1240aaa8d7a12ec3cace0ad8942a01210255f54c27526f7a63fe8cd381ef997a58a58f99b0ba88091fa7bac42e215b695500000000"
}