{
  "txid": "38a2f71bb34781c85a2ab780ddec07ef7dd7a13ce23165ab11725eb4aa8391d0",
  "version": 2,
  "locktime": 0,
  "vin": [
    {
      "txid": "63026526b02abb2417a4975d9e97ddf73e78e0346d077f817c5681a944521d35",
      "vout": 0,
      "prevout": {
        "scriptpubkey": "5120379837f646b533144f25dbf0697e7b9243644d9df55d9cfd2507e29a076e5061",
        "scriptpubkey_asm": "OP_PUSHNUM_1 OP_PUSHBYTES_32 379837f646b533144f25dbf0697e7b9243644d9df55d9cfd2507e29a076e5061",
        "scriptpubkey_type": "v1_p2tr",
        "scriptpubkey_address": "bc1px7vr0ajxk5e3gne9m0cxjlnmjfpkgnva74weelf9ql3f5pmw2pssflvssw",
        "value": 2218
      },
      "scriptsig": "",
      "scriptsig_asm": "",
      "witness": [
        "db74f613ae7521b483041c911ccbffb21ac5497cf7a6f114e26aea66f3d425c93a2c2e6e5b134571ca449699d27ac8b220ee3ee160eed1564436c63cdbdc02dc",
        "20f5b9f536b424ea69383ce5296a73497aed0c0ad4bd18e99da8d9c387543fb63eac0063036f7264010118746578742f706c61696e3b636861727365743d7574662d3800387b2270223a226272632d3230222c226f70223a227472616e73666572222c227469636b223a2256534144222c22616d74223a22313030227d68",
        "c1f5b9f536b424ea69383ce5296a73497aed0c0ad4bd18e99da8d9c387543fb63e"
      ],
      "is_coinbase": false,
      "sequence": 4294967293
    }
  ],
  "vout": [
    {
      "scriptpubkey": "5120c0d85166a8b21b6a1b968c7e4499fbe250107d2b9be1bcfade5666dccc8df610",
      "scriptpubkey_asm": "OP_PUSHNUM_1 OP_PUSHBYTES_32 c0d85166a8b21b6a1b968c7e4499fbe250107d2b9be1bcfade5666dccc8df610",
      "scriptpubkey_type": "v1_p2tr",
      "scriptpubkey_address": "bc1pcrv9ze4gkgdk5xuk33lyfx0mufgpqlftn0sme7k72endenyd7cgqglmhcx",
      "value": 546
    }
  ],
  "size": 323,
  "weight": 605,
  "fee": 1672,
  "status": {
    "confirmed": true,
    "block_height": 834464,
    "block_hash": "0000000000000000000177a0869a911a2b65c9bdcd5a8bcb02b68f305bee848e",
    "block_time": 1710308296
  },
  "hex": "02000000000101351d5244a981567c817f076d34e0783ef7dd979e5d97a41724bb2ab0266502630000000000fdffffff012202000000000000225120c0d85166a8b21b6a1b968c7e4499fbe250107d2b9be1bcfade5666dccc8df6100340db74f613ae7521b483041c911ccbffb21ac5497cf7a6f114e26aea66f3d425c93a2c2e6e5b134571ca449699d27ac8b220ee3ee160eed1564436c63cdbdc02dc7e20f5b9f536b424ea69383ce5296a73497aed0c0ad4bd18e99da8d9c387543fb63eac0063036f7264010118746578742f706c61696e3b636861727365743d7574662d3800387b2270223a226272632d3230222c226f70223a227472616e73666572222c227469636b223a2256534144222c22616d74223a22313030227d6821c1f5b9f536b424ea69383ce5296a73497aed0c0ad4bd18e99da8d9c387543fb63e00000000"
}