{
  "txid": "38c2ac73630e567a5a70ba8dec51d0df8d39df8fc67f25b1f35dd02f4b6e150e",
  "version": 2,
  "locktime": 0,
  "vin": [
    {
      "txid": "5e8a399e1757806d94b372cada298384160e9b4f7aef072415f3148a717d5742",
      "vout": 30,
      "prevout": {
        "scriptpubkey": "5120e6e010626b469c5be01ba158454e90eba262a7429a1d2808158756878aa28a90",
        "scriptpubkey_asm": "OP_PUSHNUM_1 OP_PUSHBYTES_32 e6e010626b469c5be01ba158454e90eba262a7429a1d2808158756878aa28a90",
        "scriptpubkey_type": "v1_p2tr",
        "scriptpubkey_address": "bc1pumspqcntg6w9hcqm59vy2n5saw3x9f6zngwjszq4satg0z4z32gqu8qnws",
        "value": 300546
      },
      "scriptsig": "",
      "scriptsig_asm": "",
      "witness": [
        "309e33bd90144376fcc15d5f03b3bd748faade43e3be0d676e698b3a96a7ec5f520f3c84f690e0d1015433d4a9609556fe061f44ad44d44d59f37866a0f4283f"
      ],
      "is_coinbase": false,
      "sequence": 4294967293
    }
  ],
  "vout": [
    {
      "scriptpubkey": "00145f35a124069683ddeb2f1726e9a1173f9340c87e",
      "scriptpubkey_asm": "OP_0 OP_PUSHBYTES_20 5f35a124069683ddeb2f1726e9a1173f9340c87e",
      "scriptpubkey_type": "v0_p2wpkh",
      "scriptpubkey_address": "bc1qtu66zfqxj6pam6e0zunwnggh87f5pjr7vdr5cd",
      "value": 200000
    },
    {
      "scriptpubkey": "0014fb7a185fc47428a9992c09f70c6add47a5c19223",
      "scriptpubkey_asm": "OP_0 OP_PUSHBYTES_20 fb7a185fc47428a9992c09f70c6add47a5c19223",
      "scriptpubkey_type": "v0_p2wpkh",
      "scriptpubkey_address": "bc1qldapsh7yws52nxfvp8msc6kag7jury3rxrw4dm",
      "value": 30000
    },
    {
      "scriptpubkey": "5120e6e010626b469c5be01ba158454e90eba262a7429a1d2808158756878aa28a90",
      "scriptpubkey_asm": "OP_PUSHNUM_1 OP_PUSHBYTES_32 e6e010626b469c5be01ba158454e90eba262a7429a1d2808158756878aa28a90",
      "scriptpubkey_type": "v1_p2tr",
      "scriptpubkey_address": "bc1pumspqcntg6w9hcqm59vy2n5saw3x9f6zngwjszq4satg0z4z32gqu8qnws",
      "value": 66388
    }
  ],
  "size": 224,
  "weight": 692,
  "fee": 4158,
  "status": {
    "confirmed": true,
    "block_height": 834638,
    "block_hash": "000000000000000000025f742c626208ac87e0b7d15054abb4a19ca2d735a54e",
    "block_time": 1710405325
  },
  "hex": "0200000000010142577d718a14f3152407ef7a4f9b0e16848329daca72b3946d8057179e398a5e1e00000000fdffffff03400d0300000000001600145f35a124069683ddeb2f1726e9a1173f9340c87e3075000000000000160014fb7a185fc47428a9992c09f70c6add47a5c192235403010000000000225120e6e010626b469c5be01ba158454e90eba262a7429a1d2808158756878aa28a900140309e33bd90144376fcc15d5f03b3bd748faade43e3be0d676e698b3a96a7ec5f520f3c84f690e0d1015433d4a9609556fe061f44ad44d44d59f37866a0f4283f00000000"
}