{
  "txid": "38c528d4b1bd8880a26d015f7be69d4fbd200611f2c914916c08e1d26e0dce66",
  "version": 2,
  "locktime": 0,
  "vin": [
    {
      "txid": "c6b5d5957827f6b45e65ec464809f9a212f5dc37dd75a6c642b800de736096f1",
      "vout": 0,
      "prevout": {
        "scriptpubkey": "00141eb88774b4f21cb8b9c848c234c18f2c4e4d9ffa",
        "scriptpubkey_asm": "OP_0 OP_PUSHBYTES_20 1eb88774b4f21cb8b9c848c234c18f2c4e4d9ffa",
        "scriptpubkey_type": "v0_p2wpkh",
        "scriptpubkey_address": "bc1qr6ugwa957gwt3wwgfrprfsv0938ym8l6dxzay9",
        "value": 1587454
      },
      "scriptsig": "",
      "scriptsig_asm": "",
      "witness": [
        "3045022100c5120b66b6dca20797387bb1e2e8aa1802920c787e2c00de2fc3fd73754e45420220271eb52ad5190a76ca61e5765da3195903f294879b1f95af279d8fe03554becc01",
        "03df01d7bbb4c6cf14ff73d330212e7e3b9e3a8765f188e32dfa33c7c2f8148e1f"
      ],
      "is_coinbase": false,
      "sequence": 4294967293
    }
  ],
  "vout": [
    {
      "scriptpubkey": "00140910b18f6896fdd40bf540ec164d2c1dc9b4e975",
      "scriptpubkey_asm": "OP_0 OP_PUSHBYTES_20 0910b18f6896fdd40bf540ec164d2c1dc9b4e975",
      "scriptpubkey_type": "v0_p2wpkh",
      "scriptpubkey_address": "bc1qpygtrrmgjm7agzl4grkpvnfvrhymf6t4x4mhcm",
      "value": 1585436
    }
  ],
  "size": 192,
  "weight": 438,
  "fee": 2018,
  "status": {
    "confirmed": true,
    "block_height": 834638,
    "block_hash": "000000000000000000025f742c626208ac87e0b7d15054abb4a19ca2d735a54e",
    "block_time": 1710405325
  },
  "hex": "02000000000101f1966073de00b842c6a675dd37dcf512a2f9094846ec655eb4f6277895d5b5c60000000000fdffffff011c311800000000001600140910b18f6896fdd40bf540ec164d2c1dc9b4e97502483045022100c5120b66b6dca20797387bb1e2e8aa1802920c787e2c00de2fc3fd73754e45420220271eb52ad5190a76ca61e5765da3195903f294879b1f95af279d8fe03554becc012103df01d7bbb4c6cf14ff73d330212e7e3b9e3a8765f188e32dfa33c7c2f8148e1f00000000"
}