{
  "txid": "38d1b92734a7682f76a511c6d31a35eb0db82313933a1e3526e8cdfa57e73961",
  "version": 2,
  "locktime": 0,
  "vin": [
    {
      "txid": "f8cef889b8e4f13d2b3ebf4b27da9d2cf8341a7b1ef44511873941ee6ea7f38b",
      "vout": 4,
      "prevout": {
        "scriptpubkey": "5120a51d1ba9a1252c5b35844ed0b06e1f6c6afe6eb0bb572fac69877a1e7474b86e",
        "scriptpubkey_asm": "OP_PUSHNUM_1 OP_PUSHBYTES_32 a51d1ba9a1252c5b35844ed0b06e1f6c6afe6eb0bb572fac69877a1e7474b86e",
        "scriptpubkey_type": "v1_p2tr",
        "scriptpubkey_address": "bc1p55w3h2dpy5k9kdvyfmgtqmsld340um4shdtjltrfsaapuar5hphqmm0llt",
        "value": 600
      },
      "scriptsig": "",
      "scriptsig_asm": "",
      "witness": [
        "b29f66edee96e0912bcd04a762676fafcf698cf5440d63a6a1082d90649f7d6d4570ae0fb06e459f789079b4a0e6c3bbd2f5a7138b61cde1bc8ab28d4d3e01ff"
      ],
      "is_coinbase": false,
      "sequence": 4294967295
    },
    {
      "txid": "19d8618b93d47d16a4ad03aed44dee827a54f35a2ab325b650e3271150e95b94",
      "vout": 5,
      "prevout": {
        "scriptpubkey": "5120a51d1ba9a1252c5b35844ed0b06e1f6c6afe6eb0bb572fac69877a1e7474b86e",
        "scriptpubkey_asm": "OP_PUSHNUM_1 OP_PUSHBYTES_32 a51d1ba9a1252c5b35844ed0b06e1f6c6afe6eb0bb572fac69877a1e7474b86e",
        "scriptpubkey_type": "v1_p2tr",
        "scriptpubkey_address": "bc1p55w3h2dpy5k9kdvyfmgtqmsld340um4shdtjltrfsaapuar5hphqmm0llt",
        "value": 600
      },
      "scriptsig": "",
      "scriptsig_asm": "",
      "witness": [
        "f96859c38601c9b038743f7f9b3d70806ee0a1e9da497b86c7fbcf9f0af7b1570b962ef299a7708867fb0305206e3d3c9b5d3377d82fdcb6b539a2b876666900"
      ],
      "is_coinbase": false,
      "sequence": 4294967295
    },
    {
      "txid": "d3f226e662b2a2c62c7d5e6d910bad672894e36d7ea489c9ea15b46601e90bbc",
      "vout": 9,
      "prevout": {
        "scriptpubkey": "5120a51d1ba9a1252c5b35844ed0b06e1f6c6afe6eb0bb572fac69877a1e7474b86e",
        "scriptpubkey_asm": "OP_PUSHNUM_1 OP_PUSHBYTES_32 a51d1ba9a1252c5b35844ed0b06e1f6c6afe6eb0bb572fac69877a1e7474b86e",
        "scriptpubkey_type": "v1_p2tr",
        "scriptpubkey_address": "bc1p55w3h2dpy5k9kdvyfmgtqmsld340um4shdtjltrfsaapuar5hphqmm0llt",
        "value": 600
      },
      "scriptsig": "",
      "scriptsig_asm": "",
      "witness": [
        "e48e9d282bbe769c02877f2abe4b6cc4e67d45f152e617a6fc6232b6fabee6e0d2759bcbb893c90784faf84235fbd67a7ecbe3fde039d060fdc549387cf22d11"
      ],
      "is_coinbase": false,
      "sequence": 4294967295
    },
    {
      "txid": "6b7e2826beba7e52f8241d3b948d7609805ceee012d7236f06f460b82c64d089",
      "vout": 0,
      "prevout": {
        "scriptpubkey": "5120751600e8f8b6b2de8e99ddc4960cc9a95c133f52e1330755d1af39a4c79c7aa1",
        "scriptpubkey_asm": "OP_PUSHNUM_1 OP_PUSHBYTES_32 751600e8f8b6b2de8e99ddc4960cc9a95c133f52e1330755d1af39a4c79c7aa1",
        "scriptpubkey_type": "v1_p2tr",
        "scriptpubkey_address": "bc1pw5tqp68ck6edar5emhzfvrxf49wpx06juyesw4w34uu6f3uu02ssn4m4ch",
        "value": 546
      },
      "scriptsig": "",
      "scriptsig_asm": "",
      "witness": [
        "756beb27a4b20a50acdf2c78aae5f94915ba9b027bdb80aa8dd7ad0f48a8c907a7b7fe5483830fee1540a351967f4c4da4baa3bffcc74b3f345da278d6846f7c83"
      ],
      "is_coinbase": false,
      "sequence": 4294967295
    },
    {
      "txid": "32ffd5c1463279780a352c48126971a2b3dc3d9aeb04b6426ef0fd22d11cfb6a",
      "vout": 0,
      "prevout": {
        "scriptpubkey": "512063fede99290124daa672ef03ba586fde183755459196b032f18eafb49792efe7",
        "scriptpubkey_asm": "OP_PUSHNUM_1 OP_PUSHBYTES_32 63fede99290124daa672ef03ba586fde183755459196b032f18eafb49792efe7",
        "scriptpubkey_type": "v1_p2tr",
        "scriptpubkey_address": "bc1pv0ldaxffqyjd4fnjaupm5kr0mcvrw429jxttqvh336hmf9ujalnsx6hamy",
        "value": 546
      },
      "scriptsig": "",
      "scriptsig_asm": "",
      "witness": [
        "2ce7bed755dc3c0c2592937e325e5f09728b561efb9341b28404164cb91008e622cac67aa1be21566764af721a7def32420b4c8b7035fe497eda9c048926637383"
      ],
      "is_coinbase": false,
      "sequence": 4294967295
    },
    {
      "txid": "f8cef889b8e4f13d2b3ebf4b27da9d2cf8341a7b1ef44511873941ee6ea7f38b",
      "vout": 5,
      "prevout": {
        "scriptpubkey": "5120a51d1ba9a1252c5b35844ed0b06e1f6c6afe6eb0bb572fac69877a1e7474b86e",
        "scriptpubkey_asm": "OP_PUSHNUM_1 OP_PUSHBYTES_32 a51d1ba9a1252c5b35844ed0b06e1f6c6afe6eb0bb572fac69877a1e7474b86e",
        "scriptpubkey_type": "v1_p2tr",
        "scriptpubkey_address": "bc1p55w3h2dpy5k9kdvyfmgtqmsld340um4shdtjltrfsaapuar5hphqmm0llt",
        "value": 3251317
      },
      "scriptsig": "",
      "scriptsig_asm": "",
      "witness": [
        "64cf8d79f3d2dc6eed6cea3528982a62adbebe4bbd844144c1bad19febcc2443867998e80d878d0e5fd5f66c69e980e398df0c273c39a7d5b3b981bc1c53cb72"
      ],
      "is_coinbase": false,
      "sequence": 4294967295
    }
  ],
  "vout": [
    {
      "scriptpubkey": "5120a51d1ba9a1252c5b35844ed0b06e1f6c6afe6eb0bb572fac69877a1e7474b86e",
      "scriptpubkey_asm": "OP_PUSHNUM_1 OP_PUSHBYTES_32 a51d1ba9a1252c5b35844ed0b06e1f6c6afe6eb0bb572fac69877a1e7474b86e",
      "scriptpubkey_type": "v1_p2tr",
      "scriptpubkey_address": "bc1p55w3h2dpy5k9kdvyfmgtqmsld340um4shdtjltrfsaapuar5hphqmm0llt",
      "value": 1800
    },
    {
      "scriptpubkey": "5120a51d1ba9a1252c5b35844ed0b06e1f6c6afe6eb0bb572fac69877a1e7474b86e",
      "scriptpubkey_asm": "OP_PUSHNUM_1 OP_PUSHBYTES_32 a51d1ba9a1252c5b35844ed0b06e1f6c6afe6eb0bb572fac69877a1e7474b86e",
      "scriptpubkey_type": "v1_p2tr",
      "scriptpubkey_address": "bc1p55w3h2dpy5k9kdvyfmgtqmsld340um4shdtjltrfsaapuar5hphqmm0llt",
      "value": 546
    },
    {
      "scriptpubkey": "5120a51d1ba9a1252c5b35844ed0b06e1f6c6afe6eb0bb572fac69877a1e7474b86e",
      "scriptpubkey_asm": "OP_PUSHNUM_1 OP_PUSHBYTES_32 a51d1ba9a1252c5b35844ed0b06e1f6c6afe6eb0bb572fac69877a1e7474b86e",
      "scriptpubkey_type": "v1_p2tr",
      "scriptpubkey_address": "bc1p55w3h2dpy5k9kdvyfmgtqmsld340um4shdtjltrfsaapuar5hphqmm0llt",
      "value": 546
    },
    {
      "scriptpubkey": "5120751600e8f8b6b2de8e99ddc4960cc9a95c133f52e1330755d1af39a4c79c7aa1",
      "scriptpubkey_asm": "OP_PUSHNUM_1 OP_PUSHBYTES_32 751600e8f8b6b2de8e99ddc4960cc9a95c133f52e1330755d1af39a4c79c7aa1",
      "scriptpubkey_type": "v1_p2tr",
      "scriptpubkey_address": "bc1pw5tqp68ck6edar5emhzfvrxf49wpx06juyesw4w34uu6f3uu02ssn4m4ch",
      "value": 299000
    },
    {
      "scriptpubkey": "512063fede99290124daa672ef03ba586fde183755459196b032f18eafb49792efe7",
      "scriptpubkey_asm": "OP_PUSHNUM_1 OP_PUSHBYTES_32 63fede99290124daa672ef03ba586fde183755459196b032f18eafb49792efe7",
      "scriptpubkey_type": "v1_p2tr",
      "scriptpubkey_address": "bc1pv0ldaxffqyjd4fnjaupm5kr0mcvrw429jxttqvh336hmf9ujalnsx6hamy",
      "value": 298000
    },
    {
      "scriptpubkey": "5120a51d1ba9a1252c5b35844ed0b06e1f6c6afe6eb0bb572fac69877a1e7474b86e",
      "scriptpubkey_asm": "OP_PUSHNUM_1 OP_PUSHBYTES_32 a51d1ba9a1252c5b35844ed0b06e1f6c6afe6eb0bb572fac69877a1e7474b86e",
      "scriptpubkey_type": "v1_p2tr",
      "scriptpubkey_address": "bc1p55w3h2dpy5k9kdvyfmgtqmsld340um4shdtjltrfsaapuar5hphqmm0llt",
      "value": 600
    },
    {
      "scriptpubkey": "5120a51d1ba9a1252c5b35844ed0b06e1f6c6afe6eb0bb572fac69877a1e7474b86e",
      "scriptpubkey_asm": "OP_PUSHNUM_1 OP_PUSHBYTES_32 a51d1ba9a1252c5b35844ed0b06e1f6c6afe6eb0bb572fac69877a1e7474b86e",
      "scriptpubkey_type": "v1_p2tr",
      "scriptpubkey_address": "bc1p55w3h2dpy5k9kdvyfmgtqmsld340um4shdtjltrfsaapuar5hphqmm0llt",
      "value": 600
    },
    {
      "scriptpubkey": "5120a51d1ba9a1252c5b35844ed0b06e1f6c6afe6eb0bb572fac69877a1e7474b86e",
      "scriptpubkey_asm": "OP_PUSHNUM_1 OP_PUSHBYTES_32 a51d1ba9a1252c5b35844ed0b06e1f6c6afe6eb0bb572fac69877a1e7474b86e",
      "scriptpubkey_type": "v1_p2tr",
      "scriptpubkey_address": "bc1p55w3h2dpy5k9kdvyfmgtqmsld340um4shdtjltrfsaapuar5hphqmm0llt",
      "value": 600
    },
    {
      "scriptpubkey": "5120a51d1ba9a1252c5b35844ed0b06e1f6c6afe6eb0bb572fac69877a1e7474b86e",
      "scriptpubkey_asm": "OP_PUSHNUM_1 OP_PUSHBYTES_32 a51d1ba9a1252c5b35844ed0b06e1f6c6afe6eb0bb572fac69877a1e7474b86e",
      "scriptpubkey_type": "v1_p2tr",
      "scriptpubkey_address": "bc1p55w3h2dpy5k9kdvyfmgtqmsld340um4shdtjltrfsaapuar5hphqmm0llt",
      "value": 2640629
    }
  ],
  "size": 1043,
  "weight": 2972,
  "fee": 11888,
  "status": {
    "confirmed": true,
    "block_height": 834638,
    "block_hash": "000000000000000000025f742c626208ac87e0b7d15054abb4a19ca2d735a54e",
    "block_time": 1710405325
  },
  "hex": "020000000001068bf3a76eee4139871145f41e7b1a34f82c9dda274bbf3e2b3df1e4b889f8cef80400000000ffffffff945be9501127e350b625b32a5af3547a82ee4dd4ae03ada4167dd4938b61d8190500000000ffffffffbc0be90166b415eac989a47e6de3942867ad0b916d5e7d2cc6a2b262e626f2d30900000000ffffffff89d0642cb860f4066f23d712e0ee5c8009768d943b1d24f8527ebabe26287e6b0000000000ffffffff6afb1cd122fdf06e42b604eb9a3ddcb3a2716912482c350a78793246c1d5ff320000000000ffffffff8bf3a76eee4139871145f41e7b1a34f82c9dda274bbf3e2b3df1e4b889f8cef80500000000ffffffff090807000000000000225120a51d1ba9a1252c5b35844ed0b06e1f6c6afe6eb0bb572fac69877a1e7474b86e2202000000000000225120a51d1ba9a1252c5b35844ed0b06e1f6c6afe6eb0bb572fac69877a1e7474b86e2202000000000000225120a51d1ba9a1252c5b35844ed0b06e1f6c6afe6eb0bb572fac69877a1e7474b86ef88f040000000000225120751600e8f8b6b2de8e99ddc4960cc9a95c133f52e1330755d1af39a4c79c7aa1108c04000000000022512063fede99290124daa672ef03ba586fde183755459196b032f18eafb49792efe75802000000000000225120a51d1ba9a1252c5b35844ed0b06e1f6c6afe6eb0bb572fac69877a1e7474b86e5802000000000000225120a51d1ba9a1252c5b35844ed0b06e1f6c6afe6eb0bb572fac69877a1e7474b86e5802000000000000225120a51d1ba9a1252c5b35844ed0b06e1f6c6afe6eb0bb572fac69877a1e7474b86ef54a280000000000225120a51d1ba9a1252c5b35844ed0b06e1f6c6afe6eb0bb572fac69877a1e7474b86e0140b29f66edee96e0912bcd04a762676fafcf698cf5440d63a6a1082d90649f7d6d4570ae0fb06e459f789079b4a0e6c3bbd2f5a7138b61cde1bc8ab28d4d3e01ff0140f96859c38601c9b038743f7f9b3d70806ee0a1e9da497b86c7fbcf9f0af7b1570b962ef299a7708867fb0305206e3d3c9b5d3377d82fdcb6b539a2b8766669000140e48e9d282bbe769c02877f2abe4b6cc4e67d45f152e617a6fc6232b6fabee6e0d2759bcbb893c90784faf84235fbd67a7ecbe3fde039d060fdc549387cf22d110141756beb27a4b20a50acdf2c78aae5f94915ba9b027bdb80aa8dd7ad0f48a8c907a7b7fe5483830fee1540a351967f4c4da4baa3bffcc74b3f345da278d6846f7c8301412ce7bed755dc3c0c2592937e325e5f09728b561efb9341b28404164cb91008e622cac67aa1be21566764af721a7def32420b4c8b7035fe497eda9c048926637383014064cf8d79f3d2dc6eed6cea3528982a62adbebe4bbd844144c1bad19febcc2443867998e80d878d0e5fd5f66c69e980e398df0c273c39a7d5b3b981bc1c53cb7200000000"
}