{
  "txid": "38d5382e11cf3ad6476b7451cd501ebee0539453d2808f0cb76f5637da63074f",
  "version": 2,
  "locktime": 0,
  "vin": [
    {
      "txid": "c10e48caeee8756d57fbce0e4f26c1d08bb9f0d4a35c2d26269682da8df04dac",
      "vout": 25,
      "prevout": {
        "scriptpubkey": "512004c43046d59300c1e43a669d1ad99b1eaf1db24a98394b9a7681ff22c3e600a6",
        "scriptpubkey_asm": "OP_PUSHNUM_1 OP_PUSHBYTES_32 04c43046d59300c1e43a669d1ad99b1eaf1db24a98394b9a7681ff22c3e600a6",
        "scriptpubkey_type": "v1_p2tr",
        "scriptpubkey_address": "bc1pqnzrq3k4jvqvrep6v6w34kvmr6h3mvj2nqu5hxnks8lj9slxqznqsztfd9",
        "value": 3634
      },
      "scriptsig": "",
      "scriptsig_asm": "",
      "witness": [
        "955affce8db3a3fd7239a996d22d27757c1e3e303bb5c870d639783265368df377c2f1c2336244bf8643f77205ab1817d2d0cd1f479d0912d1c531b93b91ba8c",
        "20acc29015182e1438237891d4ece90b0ffce1bf32e9ab5b7b5de5a179286201fbac0063036f726401011e6170706c69636174696f6e2f6a736f6e3b636861727365743d7574662d38004cd37b2270223a22706f772d3230222c226f70223a226d696e74222c227469636b223a2250455045222c22616d74223a2231303030222c22736f6c7574696f6e223a22504550453a6263317071336e67663775716e73667434706d37357236397371616c6c30637068747278677773757a6d657864356c337039333566366d713666337664383a303030303030303030303030303030303030303139393431613561653132383937363539383134343239323533333030353762306461393666336465613163353a3332393836393336303830227d68",
        "c1406c0f2a67700582b42f36a71eb03478d57ba1acdc179ee1ec758acb282de3fd"
      ],
      "is_coinbase": false,
      "sequence": 4294967295
    }
  ],
  "vout": [
    {
      "scriptpubkey": "5120046684fb809c12ba877ea0f45803bffbf01bac6643a1c16f266d3f1096344eb6",
      "scriptpubkey_asm": "OP_PUSHNUM_1 OP_PUSHBYTES_32 046684fb809c12ba877ea0f45803bffbf01bac6643a1c16f266d3f1096344eb6",
      "scriptpubkey_type": "v1_p2tr",
      "scriptpubkey_address": "bc1pq3ngf7uqnsft4pm75r69sqall0cphtrxgwsuzmexd5l3p935f6mq6f3vd8",
      "value": 546
    }
  ],
  "size": 487,
  "weight": 769,
  "fee": 3088,
  "status": {
    "confirmed": true,
    "block_height": 834460,
    "block_hash": "00000000000000000000484a79b643b2524bbce82e5d8a442013fa5b8905ed98",
    "block_time": 1710307468
  },
  "hex": "02000000000101ac4df08dda829626262d5ca3d4f0b98bd0c1264f0ecefb576d75e8eeca480ec11900000000ffffffff012202000000000000225120046684fb809c12ba877ea0f45803bffbf01bac6643a1c16f266d3f1096344eb60340955affce8db3a3fd7239a996d22d27757c1e3e303bb5c870d639783265368df377c2f1c2336244bf8643f77205ab1817d2d0cd1f479d0912d1c531b93b91ba8cfd200120acc29015182e1438237891d4ece90b0ffce1bf32e9ab5b7b5de5a179286201fbac0063036f726401011e6170706c69636174696f6e2f6a736f6e3b636861727365743d7574662d38004cd37b2270223a22706f772d3230222c226f70223a226d696e74222c227469636b223a2250455045222c22616d74223a2231303030222c22736f6c7574696f6e223a22504550453a6263317071336e67663775716e73667434706d37357236397371616c6c30637068747278677773757a6d657864356c337039333566366d713666337664383a303030303030303030303030303030303030303139393431613561653132383937363539383134343239323533333030353762306461393666336465613163353a3332393836393336303830227d6821c1406c0f2a67700582b42f36a71eb03478d57ba1acdc179ee1ec758acb282de3fd00000000"
}