{
  "txid": "38e6efc0ff81f65afa7691ba3707ddf7cc2fd683d817f448ee3d4d3f63f350dc",
  "version": 1,
  "locktime": 0,
  "vin": [
    {
      "txid": "d7e5b7165e378668cf558a44a235b57054fea2012e6d2e6d93822aaa55f38696",
      "vout": 0,
      "prevout": {
        "scriptpubkey": "512016aa896144ecfdc419f324f3ca820ad7eee6f3bc2ef233a6f1a8b442c4904503",
        "scriptpubkey_asm": "OP_PUSHNUM_1 OP_PUSHBYTES_32 16aa896144ecfdc419f324f3ca820ad7eee6f3bc2ef233a6f1a8b442c4904503",
        "scriptpubkey_type": "v1_p2tr",
        "scriptpubkey_address": "bc1pz64gjc2yan7ugx0nyneu4qs26lhwduau9mer8fh34z6y93ysg5pswcc624",
        "value": 2493
      },
      "scriptsig": "",
      "scriptsig_asm": "",
      "witness": [
        "589934e53f11dd5322e3570a4ec2a9e36c95cbd67164cb6891c6035e43b6ef6e487702656b34a7b09e16b4021110d6e76f7ca7a76287ea0d7409f89a3eb35044",
        "2047bfef3a11f84b1cd5ffb21f8c9aa059dcc68df8152947b5d64a9e6cc622f869ac0063036f726401010d696d6167652f7376672b786d6c004cd53c73766720786d6c6e733d22687474703a2f2f7777772e77332e6f72672f323030302f737667222076657273696f6e3d22312e31222076696577426f783d223020302035323020353230223e3c696d61676520783d2236302220793d223630222077696474683d2234303022206865696768743d223430302220687265663d222f636f6e74656e742f65366461663832636636643266366439656631396537623737346238393561343533366262383963663836333433373630626461646333643933646638663435693022202f3e3c2f7376673e68",
        "c147bfef3a11f84b1cd5ffb21f8c9aa059dcc68df8152947b5d64a9e6cc622f869"
      ],
      "is_coinbase": false,
      "sequence": 4294967285
    }
  ],
  "vout": [
    {
      "scriptpubkey": "0014b0c3188b539bd71670cae3cac755e99c17fa9577",
      "scriptpubkey_asm": "OP_0 OP_PUSHBYTES_20 b0c3188b539bd71670cae3cac755e99c17fa9577",
      "scriptpubkey_type": "v0_p2wpkh",
      "scriptpubkey_address": "bc1qkrp33z6nn0t3vux2u09vw40fnstl49th3nhtvn",
      "value": 546
    }
  ],
  "size": 460,
  "weight": 706,
  "fee": 1947,
  "status": {
    "confirmed": true,
    "block_height": 834464,
    "block_hash": "0000000000000000000177a0869a911a2b65c9bdcd5a8bcb02b68f305bee848e",
    "block_time": 1710308296
  },
  "hex": "010000000001019686f355aa2a82936d2e6d2e01a2fe5470b535a2448a55cf6886375e16b7e5d70000000000f5ffffff012202000000000000160014b0c3188b539bd71670cae3cac755e99c17fa95770340589934e53f11dd5322e3570a4ec2a9e36c95cbd67164cb6891c6035e43b6ef6e487702656b34a7b09e16b4021110d6e76f7ca7a76287ea0d7409f89a3eb35044fd11012047bfef3a11f84b1cd5ffb21f8c9aa059dcc68df8152947b5d64a9e6cc622f869ac0063036f726401010d696d6167652f7376672b786d6c004cd53c73766720786d6c6e733d22687474703a2f2f7777772e77332e6f72672f323030302f737667222076657273696f6e3d22312e31222076696577426f783d223020302035323020353230223e3c696d61676520783d2236302220793d223630222077696474683d2234303022206865696768743d223430302220687265663d222f636f6e74656e742f65366461663832636636643266366439656631396537623737346238393561343533366262383963663836333433373630626461646333643933646638663435693022202f3e3c2f7376673e6821c147bfef3a11f84b1cd5ffb21f8c9aa059dcc68df8152947b5d64a9e6cc622f86900000000"
}