{
  "txid": "39050ddffa4765287812ea46793c03180ca10f7c270fa6a3565dc41d28a271bb",
  "version": 2,
  "locktime": 0,
  "vin": [
    {
      "txid": "49aa464cc7a7119ff435bcdafdcd86572e95e446618e81016e2d1c96aefa601b",
      "vout": 0,
      "prevout": {
        "scriptpubkey": "5120ea649c6db8276a4350fc3903c8be77a5ecfc83d3c1c3ad9436fe919c1a078308",
        "scriptpubkey_asm": "OP_PUSHNUM_1 OP_PUSHBYTES_32 ea649c6db8276a4350fc3903c8be77a5ecfc83d3c1c3ad9436fe919c1a078308",
        "scriptpubkey_type": "v1_p2tr",
        "scriptpubkey_address": "bc1pafjfcmdcya4yx58u8ypu30nh5hk0eq7nc8p6m9pkl6gecxs8svyqu50x9l",
        "value": 546
      },
      "scriptsig": "",
      "scriptsig_asm": "",
      "witness": [
        "5305f0d617fabcb6747a4df5a595a1a4e2598bd6240240e0bd2e67ae7b9a08a54cefc2b82ed453d579561765042850a1b198783803fbdb68a64c79a1b6d01370"
      ],
      "is_coinbase": false,
      "sequence": 4294967293
    },
    {
      "txid": "49aa464cc7a7119ff435bcdafdcd86572e95e446618e81016e2d1c96aefa601b",
      "vout": 1,
      "prevout": {
        "scriptpubkey": "5120ea649c6db8276a4350fc3903c8be77a5ecfc83d3c1c3ad9436fe919c1a078308",
        "scriptpubkey_asm": "OP_PUSHNUM_1 OP_PUSHBYTES_32 ea649c6db8276a4350fc3903c8be77a5ecfc83d3c1c3ad9436fe919c1a078308",
        "scriptpubkey_type": "v1_p2tr",
        "scriptpubkey_address": "bc1pafjfcmdcya4yx58u8ypu30nh5hk0eq7nc8p6m9pkl6gecxs8svyqu50x9l",
        "value": 546
      },
      "scriptsig": "",
      "scriptsig_asm": "",
      "witness": [
        "383f35b40396e56052f74a3ba77390040a6fc7802a2624b92e5d385a2eb5e2e162fa4a6ca0eee37e867640a371dee718cd8fda6e166b6dff25cc772c15a2c093"
      ],
      "is_coinbase": false,
      "sequence": 4294967293
    },
    {
      "txid": "49aa464cc7a7119ff435bcdafdcd86572e95e446618e81016e2d1c96aefa601b",
      "vout": 2,
      "prevout": {
        "scriptpubkey": "5120ea649c6db8276a4350fc3903c8be77a5ecfc83d3c1c3ad9436fe919c1a078308",
        "scriptpubkey_asm": "OP_PUSHNUM_1 OP_PUSHBYTES_32 ea649c6db8276a4350fc3903c8be77a5ecfc83d3c1c3ad9436fe919c1a078308",
        "scriptpubkey_type": "v1_p2tr",
        "scriptpubkey_address": "bc1pafjfcmdcya4yx58u8ypu30nh5hk0eq7nc8p6m9pkl6gecxs8svyqu50x9l",
        "value": 330
      },
      "scriptsig": "",
      "scriptsig_asm": "",
      "witness": [
        "21b88efbc85850025cd0650a3a9a6bf9f109f563b0c8ec23c0a278ed59ebf89707e3d1974018e163f9bef9be8aea3ec749226c9143626f2d305eb5b37e5b6ea1"
      ],
      "is_coinbase": false,
      "sequence": 4294967293
    },
    {
      "txid": "49aa464cc7a7119ff435bcdafdcd86572e95e446618e81016e2d1c96aefa601b",
      "vout": 3,
      "prevout": {
        "scriptpubkey": "5120ea649c6db8276a4350fc3903c8be77a5ecfc83d3c1c3ad9436fe919c1a078308",
        "scriptpubkey_asm": "OP_PUSHNUM_1 OP_PUSHBYTES_32 ea649c6db8276a4350fc3903c8be77a5ecfc83d3c1c3ad9436fe919c1a078308",
        "scriptpubkey_type": "v1_p2tr",
        "scriptpubkey_address": "bc1pafjfcmdcya4yx58u8ypu30nh5hk0eq7nc8p6m9pkl6gecxs8svyqu50x9l",
        "value": 330
      },
      "scriptsig": "",
      "scriptsig_asm": "",
      "witness": [
        "b1868efb5503feac880a074382603f039b8742ca6c4dec8060da9851171d50d95b1d109b82dc03a501ed78f4653075cf8768c7b89b19130ae62f0ca0bf51d77f"
      ],
      "is_coinbase": false,
      "sequence": 4294967293
    },
    {
      "txid": "49aa464cc7a7119ff435bcdafdcd86572e95e446618e81016e2d1c96aefa601b",
      "vout": 4,
      "prevout": {
        "scriptpubkey": "5120ea649c6db8276a4350fc3903c8be77a5ecfc83d3c1c3ad9436fe919c1a078308",
        "scriptpubkey_asm": "OP_PUSHNUM_1 OP_PUSHBYTES_32 ea649c6db8276a4350fc3903c8be77a5ecfc83d3c1c3ad9436fe919c1a078308",
        "scriptpubkey_type": "v1_p2tr",
        "scriptpubkey_address": "bc1pafjfcmdcya4yx58u8ypu30nh5hk0eq7nc8p6m9pkl6gecxs8svyqu50x9l",
        "value": 330
      },
      "scriptsig": "",
      "scriptsig_asm": "",
      "witness": [
        "7fd76271dea2b0570c972f27b7d8cd17b04e456e1eb43aefd09773b7402b0a0654b0098ed699821c7e0a96f31599cec0173d35d336899b845e31bca50a0f7642"
      ],
      "is_coinbase": false,
      "sequence": 4294967293
    },
    {
      "txid": "2691d47adc6c3e708ce9b3f7679e307023a225e92a7f195613e07e654b4d2106",
      "vout": 0,
      "prevout": {
        "scriptpubkey": "5120ea649c6db8276a4350fc3903c8be77a5ecfc83d3c1c3ad9436fe919c1a078308",
        "scriptpubkey_asm": "OP_PUSHNUM_1 OP_PUSHBYTES_32 ea649c6db8276a4350fc3903c8be77a5ecfc83d3c1c3ad9436fe919c1a078308",
        "scriptpubkey_type": "v1_p2tr",
        "scriptpubkey_address": "bc1pafjfcmdcya4yx58u8ypu30nh5hk0eq7nc8p6m9pkl6gecxs8svyqu50x9l",
        "value": 50000
      },
      "scriptsig": "",
      "scriptsig_asm": "",
      "witness": [
        "3f65c024fa3e05f26f957a757c7ced9d31a64abe0a4489fce14248132ada412c429bc6886ed01cee5568dd5f287fde02efe26baae41a98d42e387dd1b78e33fc"
      ],
      "is_coinbase": false,
      "sequence": 4294967293
    }
  ],
  "vout": [
    {
      "scriptpubkey": "0014aa130be402f7fea7350974aeafd2f71d6845e2b9",
      "scriptpubkey_asm": "OP_0 OP_PUSHBYTES_20 aa130be402f7fea7350974aeafd2f71d6845e2b9",
      "scriptpubkey_type": "v0_p2wpkh",
      "scriptpubkey_address": "bc1q4gfsheqz7ll2wdgfwjh2l5hhr45ytc4ekgxaex",
      "value": 546
    },
    {
      "scriptpubkey": "0014aa130be402f7fea7350974aeafd2f71d6845e2b9",
      "scriptpubkey_asm": "OP_0 OP_PUSHBYTES_20 aa130be402f7fea7350974aeafd2f71d6845e2b9",
      "scriptpubkey_type": "v0_p2wpkh",
      "scriptpubkey_address": "bc1q4gfsheqz7ll2wdgfwjh2l5hhr45ytc4ekgxaex",
      "value": 546
    },
    {
      "scriptpubkey": "0014aa130be402f7fea7350974aeafd2f71d6845e2b9",
      "scriptpubkey_asm": "OP_0 OP_PUSHBYTES_20 aa130be402f7fea7350974aeafd2f71d6845e2b9",
      "scriptpubkey_type": "v0_p2wpkh",
      "scriptpubkey_address": "bc1q4gfsheqz7ll2wdgfwjh2l5hhr45ytc4ekgxaex",
      "value": 330
    },
    {
      "scriptpubkey": "0014aa130be402f7fea7350974aeafd2f71d6845e2b9",
      "scriptpubkey_asm": "OP_0 OP_PUSHBYTES_20 aa130be402f7fea7350974aeafd2f71d6845e2b9",
      "scriptpubkey_type": "v0_p2wpkh",
      "scriptpubkey_address": "bc1q4gfsheqz7ll2wdgfwjh2l5hhr45ytc4ekgxaex",
      "value": 330
    },
    {
      "scriptpubkey": "0014aa130be402f7fea7350974aeafd2f71d6845e2b9",
      "scriptpubkey_asm": "OP_0 OP_PUSHBYTES_20 aa130be402f7fea7350974aeafd2f71d6845e2b9",
      "scriptpubkey_type": "v0_p2wpkh",
      "scriptpubkey_address": "bc1q4gfsheqz7ll2wdgfwjh2l5hhr45ytc4ekgxaex",
      "value": 330
    },
    {
      "scriptpubkey": "0014fb7a185fc47428a9992c09f70c6add47a5c19223",
      "scriptpubkey_asm": "OP_0 OP_PUSHBYTES_20 fb7a185fc47428a9992c09f70c6add47a5c19223",
      "scriptpubkey_type": "v0_p2wpkh",
      "scriptpubkey_address": "bc1qldapsh7yws52nxfvp8msc6kag7jury3rxrw4dm",
      "value": 30000
    },
    {
      "scriptpubkey": "5120ea649c6db8276a4350fc3903c8be77a5ecfc83d3c1c3ad9436fe919c1a078308",
      "scriptpubkey_asm": "OP_PUSHNUM_1 OP_PUSHBYTES_32 ea649c6db8276a4350fc3903c8be77a5ecfc83d3c1c3ad9436fe919c1a078308",
      "scriptpubkey_type": "v1_p2tr",
      "scriptpubkey_address": "bc1pafjfcmdcya4yx58u8ypu30nh5hk0eq7nc8p6m9pkl6gecxs8svyqu50x9l",
      "value": 7505
    }
  ],
  "size": 883,
  "weight": 2338,
  "fee": 12495,
  "status": {
    "confirmed": true,
    "block_height": 834638,
    "block_hash": "000000000000000000025f742c626208ac87e0b7d15054abb4a19ca2d735a54e",
    "block_time": 1710405325
  },
  "hex": "020000000001061b60faae961c2d6e01818e6146e4952e5786cdfddabc35f49f11a7c74c46aa490000000000fdffffff1b60faae961c2d6e01818e6146e4952e5786cdfddabc35f49f11a7c74c46aa490100000000fdffffff1b60faae961c2d6e01818e6146e4952e5786cdfddabc35f49f11a7c74c46aa490200000000fdffffff1b60faae961c2d6e01818e6146e4952e5786cdfddabc35f49f11a7c74c46aa490300000000fdffffff1b60faae961c2d6e01818e6146e4952e5786cdfddabc35f49f11a7c74c46aa490400000000fdffffff06214d4b657ee01356197f2ae925a22370309e67f7b3e98c703e6cdc7ad491260000000000fdffffff072202000000000000160014aa130be402f7fea7350974aeafd2f71d6845e2b92202000000000000160014aa130be402f7fea7350974aeafd2f71d6845e2b94a01000000000000160014aa130be402f7fea7350974aeafd2f71d6845e2b94a01000000000000160014aa130be402f7fea7350974aeafd2f71d6845e2b94a01000000000000160014aa130be402f7fea7350974aeafd2f71d6845e2b93075000000000000160014fb7a185fc47428a9992c09f70c6add47a5c19223511d000000000000225120ea649c6db8276a4350fc3903c8be77a5ecfc83d3c1c3ad9436fe919c1a07830801405305f0d617fabcb6747a4df5a595a1a4e2598bd6240240e0bd2e67ae7b9a08a54cefc2b82ed453d579561765042850a1b198783803fbdb68a64c79a1b6d013700140383f35b40396e56052f74a3ba77390040a6fc7802a2624b92e5d385a2eb5e2e162fa4a6ca0eee37e867640a371dee718cd8fda6e166b6dff25cc772c15a2c093014021b88efbc85850025cd0650a3a9a6bf9f109f563b0c8ec23c0a278ed59ebf89707e3d1974018e163f9bef9be8aea3ec749226c9143626f2d305eb5b37e5b6ea10140b1868efb5503feac880a074382603f039b8742ca6c4dec8060da9851171d50d95b1d109b82dc03a501ed78f4653075cf8768c7b89b19130ae62f0ca0bf51d77f01407fd76271dea2b0570c972f27b7d8cd17b04e456e1eb43aefd09773b7402b0a0654b0098ed699821c7e0a96f31599cec0173d35d336899b845e31bca50a0f764201403f65c024fa3e05f26f957a757c7ced9d31a64abe0a4489fce14248132ada412c429bc6886ed01cee5568dd5f287fde02efe26baae41a98d42e387dd1b78e33fc00000000"
}