{
  "txid": "391dcf45d7d787d36b860682006d8713153a0612556e33e545c512b55e84b68b",
  "version": 2,
  "locktime": 0,
  "vin": [
    {
      "txid": "ca49732a8789b812361e997512b66bc3787f1e3ff39f5f0d8b845e09438043f6",
      "vout": 11,
      "prevout": {
        "scriptpubkey": "51209db72bef9731c47faa5ddef985e5e634652ae0f319b30e623560e2cc1d311d74",
        "scriptpubkey_asm": "OP_PUSHNUM_1 OP_PUSHBYTES_32 9db72bef9731c47faa5ddef985e5e634652ae0f319b30e623560e2cc1d311d74",
        "scriptpubkey_type": "v1_p2tr",
        "scriptpubkey_address": "bc1pnkmjhmuhx8z8l2jammucte0xx3jj4c8nrxesuc34vr3vc8f3r46qr5zuqy",
        "value": 2066
      },
      "scriptsig": "",
      "scriptsig_asm": "",
      "witness": [
        "6e67c14e1f550a78a716063d30016ec514a087947b1f5d2d8454180c3613516749619624ad7138ba92ad370059fd768b5ee4ef20a79cd7afbe597bc158635163",
        "20e6b06105636cc3fd134ae97bc7fadc6ca9f47cc425d0952d1a18fc4631299175ac0063036f726401010a746578742f706c61696e00367b2270223a226272632d3230222c226f70223a226d696e74222c227469636b223a2261616161222c22616d74223a223130303030227d68",
        "c1e6b06105636cc3fd134ae97bc7fadc6ca9f47cc425d0952d1a18fc4631299175"
      ],
      "is_coinbase": false,
      "sequence": 4261412863
    }
  ],
  "vout": [
    {
      "scriptpubkey": "0014b12a255b419b46c01324705abea5fd2949f55051",
      "scriptpubkey_asm": "OP_0 OP_PUSHBYTES_20 b12a255b419b46c01324705abea5fd2949f55051",
      "scriptpubkey_type": "v0_p2wpkh",
      "scriptpubkey_address": "bc1qky4z2k6pndrvqyeywpdtaf0a99yl25z3zp84r6",
      "value": 294
    }
  ],
  "size": 295,
  "weight": 541,
  "fee": 1772,
  "status": {
    "confirmed": true,
    "block_height": 834460,
    "block_hash": "00000000000000000000484a79b643b2524bbce82e5d8a442013fa5b8905ed98",
    "block_time": 1710307468
  },
  "hex": "02000000000101f6438043095e848b0d5f9ff33f1e7f78c36bb61275991e3612b889872a7349ca0b00000000fffffffd012601000000000000160014b12a255b419b46c01324705abea5fd2949f5505103406e67c14e1f550a78a716063d30016ec514a087947b1f5d2d8454180c3613516749619624ad7138ba92ad370059fd768b5ee4ef20a79cd7afbe597bc1586351636e20e6b06105636cc3fd134ae97bc7fadc6ca9f47cc425d0952d1a18fc4631299175ac0063036f726401010a746578742f706c61696e00367b2270223a226272632d3230222c226f70223a226d696e74222c227469636b223a2261616161222c22616d74223a223130303030227d6821c1e6b06105636cc3fd134ae97bc7fadc6ca9f47cc425d0952d1a18fc463129917500000000"
}