{
  "txid": "39207da870665882f1db828c522afb4410f6c844fe4874e9a7e9206a3e20700b",
  "version": 2,
  "locktime": 834542,
  "vin": [
    {
      "txid": "592faecd15a2d02376156ade4ad048ca5ebee94a64fe674ac75eb6fe31132b91",
      "vout": 6,
      "prevout": {
        "scriptpubkey": "0014f111515250d0da71f0852c8bd4a5019fa3c7cc82",
        "scriptpubkey_asm": "OP_0 OP_PUSHBYTES_20 f111515250d0da71f0852c8bd4a5019fa3c7cc82",
        "scriptpubkey_type": "v0_p2wpkh",
        "scriptpubkey_address": "bc1q7yg4z5js6rd8ruy99j9affgpn73u0nyzx4ahf0",
        "value": 819953
      },
      "scriptsig": "",
      "scriptsig_asm": "",
      "witness": [
        "3044022004e4f15899b255126dc1feb4c3e887e63af5442b6dca3a0755b2852c661ae32702200cffa3b48ff247bee39faf5a66197101adc177332bc5d033909c9345bfcccaa801",
        "02e15f1aedfa3b634580d7225dcb2eb0bc31139c65d706d3f31af1a25512e3ffa9"
      ],
      "is_coinbase": false,
      "sequence": 4294967293
    }
  ],
  "vout": [
    {
      "scriptpubkey": "0014480d7e093dd42a914428220fe861cfe1e4f98a74",
      "scriptpubkey_asm": "OP_0 OP_PUSHBYTES_20 480d7e093dd42a914428220fe861cfe1e4f98a74",
      "scriptpubkey_type": "v0_p2wpkh",
      "scriptpubkey_address": "bc1qfqxhuzfa6s4fz3pgyg87scw0u8j0nzn5hc5kr8",
      "value": 60953
    },
    {
      "scriptpubkey": "0014a0b447df96e2b34e6a065ec4c8aaf19733b99adb",
      "scriptpubkey_asm": "OP_0 OP_PUSHBYTES_20 a0b447df96e2b34e6a065ec4c8aaf19733b99adb",
      "scriptpubkey_type": "v0_p2wpkh",
      "scriptpubkey_address": "bc1q5z6y0huku2e5u6sxtmzv32h3juemnxkmhz4r9m",
      "value": 23189
    },
    {
      "scriptpubkey": "0014e0a1e612db462bc2b31046cd4336401e8b2a6ce9",
      "scriptpubkey_asm": "OP_0 OP_PUSHBYTES_20 e0a1e612db462bc2b31046cd4336401e8b2a6ce9",
      "scriptpubkey_type": "v0_p2wpkh",
      "scriptpubkey_address": "bc1quzs7vykmgc4u9vcsgmx5xdjqr69j5m8feak7q4",
      "value": 43981
    },
    {
      "scriptpubkey": "001424970250ebb851db2b0bc5c581b0044dcafa81d5",
      "scriptpubkey_asm": "OP_0 OP_PUSHBYTES_20 24970250ebb851db2b0bc5c581b0044dcafa81d5",
      "scriptpubkey_type": "v0_p2wpkh",
      "scriptpubkey_address": "bc1qyjtsy58thpgak2ctchzcrvqyfh904qw4c5ey04",
      "value": 428988
    },
    {
      "scriptpubkey": "0014229cbe0b69ca306a16746a17317a13e287a4ec83",
      "scriptpubkey_asm": "OP_0 OP_PUSHBYTES_20 229cbe0b69ca306a16746a17317a13e287a4ec83",
      "scriptpubkey_type": "v0_p2wpkh",
      "scriptpubkey_address": "bc1qy2wtuzmfegcx59n5dgtnz7snu2r6fmyr2j9e8h",
      "value": 49016
    },
    {
      "scriptpubkey": "0014fa89f9c2b60513862e3c34d38ff174abf384d558",
      "scriptpubkey_asm": "OP_0 OP_PUSHBYTES_20 fa89f9c2b60513862e3c34d38ff174abf384d558",
      "scriptpubkey_type": "v0_p2wpkh",
      "scriptpubkey_address": "bc1ql2ylns4kq5fcvt3uxnfclut540ecf42c26c9rf",
      "value": 62220
    },
    {
      "scriptpubkey": "0014d980dc80d2f9d9a5fb442dbed761e4ee732a4264",
      "scriptpubkey_asm": "OP_0 OP_PUSHBYTES_20 d980dc80d2f9d9a5fb442dbed761e4ee732a4264",
      "scriptpubkey_type": "v0_p2wpkh",
      "scriptpubkey_address": "bc1qmxqdeqxjl8v6t76y9kldwc0yaeej5snyzfufgx",
      "value": 29124
    },
    {
      "scriptpubkey": "a914368f068e78d03cf284592ff949e9b422187b82fe87",
      "scriptpubkey_asm": "OP_HASH160 OP_PUSHBYTES_20 368f068e78d03cf284592ff949e9b422187b82fe OP_EQUAL",
      "scriptpubkey_type": "p2sh",
      "scriptpubkey_address": "36fVkVjoHiumeJHvD2yQecpkmPHB8c19QM",
      "value": 48964
    },
    {
      "scriptpubkey": "00149b4d88af1afe2313cd734d355eb3f548b2ad6089",
      "scriptpubkey_asm": "OP_0 OP_PUSHBYTES_20 9b4d88af1afe2313cd734d355eb3f548b2ad6089",
      "scriptpubkey_type": "v0_p2wpkh",
      "scriptpubkey_address": "bc1qndxc3tc6lc338ntnf564avl4fze26cyfnmnncx",
      "value": 60953
    }
  ],
  "size": 440,
  "weight": 1433,
  "fee": 12565,
  "status": {
    "confirmed": true,
    "block_height": 834638,
    "block_hash": "000000000000000000025f742c626208ac87e0b7d15054abb4a19ca2d735a54e",
    "block_time": 1710405325
  },
  "hex": "02000000000101912b1331feb65ec74a67fe644ae9be5eca48d04ade6a157623d0a215cdae2f590600000000fdffffff0919ee000000000000160014480d7e093dd42a914428220fe861cfe1e4f98a74955a000000000000160014a0b447df96e2b34e6a065ec4c8aaf19733b99adbcdab000000000000160014e0a1e612db462bc2b31046cd4336401e8b2a6ce9bc8b06000000000016001424970250ebb851db2b0bc5c581b0044dcafa81d578bf000000000000160014229cbe0b69ca306a16746a17317a13e287a4ec830cf3000000000000160014fa89f9c2b60513862e3c34d38ff174abf384d558c471000000000000160014d980dc80d2f9d9a5fb442dbed761e4ee732a426444bf00000000000017a914368f068e78d03cf284592ff949e9b422187b82fe8719ee0000000000001600149b4d88af1afe2313cd734d355eb3f548b2ad608902473044022004e4f15899b255126dc1feb4c3e887e63af5442b6dca3a0755b2852c661ae32702200cffa3b48ff247bee39faf5a66197101adc177332bc5d033909c9345bfcccaa8012102e15f1aedfa3b634580d7225dcb2eb0bc31139c65d706d3f31af1a25512e3ffa9eebb0c00"
}