{
  "txid": "392334c51eb432b855b42312f22809650738d052817c386b2d977c3dff73349c",
  "version": 1,
  "locktime": 0,
  "vin": [
    {
      "txid": "82165ea00ccc3372b5f3baeb7fbc67f4a4f39fd6b836ad7d80315ae146cd7122",
      "vout": 8,
      "prevout": {
        "scriptpubkey": "76a914d86f2c966b3389a6cfb972cd0d85009344e3c0ac88ac",
        "scriptpubkey_asm": "OP_DUP OP_HASH160 OP_PUSHBYTES_20 d86f2c966b3389a6cfb972cd0d85009344e3c0ac OP_EQUALVERIFY OP_CHECKSIG",
        "scriptpubkey_type": "p2pkh",
        "scriptpubkey_address": "1LjQ8xDzGiW2oqkcCUYQP7bjSYUt557jz9",
        "value": 74000
      },
      "scriptsig": "483045022100b60a1a41e3b42d1a535ebad895bf0e13c762649c0780316f8e11a1c480519d4b022076813f697fe321486fc0ec0ff5f953953957c0c4c15bb6f5758f67ff142c936a0121024913385a5872c548186ab55d97370b69a7ad3e53379cbdb94f156cbf6e7b831b",
      "scriptsig_asm": "OP_PUSHBYTES_72 3045022100b60a1a41e3b42d1a535ebad895bf0e13c762649c0780316f8e11a1c480519d4b022076813f697fe321486fc0ec0ff5f953953957c0c4c15bb6f5758f67ff142c936a01 OP_PUSHBYTES_33 024913385a5872c548186ab55d97370b69a7ad3e53379cbdb94f156cbf6e7b831b",
      "is_coinbase": false,
      "sequence": 4294967295
    }
  ],
  "vout": [
    {
      "scriptpubkey": "76a91471c97d78db668376bce8b85def0b45a5da982fc888ac",
      "scriptpubkey_asm": "OP_DUP OP_HASH160 OP_PUSHBYTES_20 71c97d78db668376bce8b85def0b45a5da982fc8 OP_EQUALVERIFY OP_CHECKSIG",
      "scriptpubkey_type": "p2pkh",
      "scriptpubkey_address": "1BNejTTbVzRLS7vnrH1yNQ4DtsK6bACL68",
      "value": 61353
    },
    {
      "scriptpubkey": "76a91404bec33fe33f5251daec550fcaef2927e4671bac88ac",
      "scriptpubkey_asm": "OP_DUP OP_HASH160 OP_PUSHBYTES_20 04bec33fe33f5251daec550fcaef2927e4671bac OP_EQUALVERIFY OP_CHECKSIG",
      "scriptpubkey_type": "p2pkh",
      "scriptpubkey_address": "1S6EC7fzGc7jENKoesu9ntAEy1nseFYp4",
      "value": 5415
    }
  ],
  "size": 226,
  "weight": 904,
  "fee": 7232,
  "status": {
    "confirmed": true,
    "block_height": 834638,
    "block_hash": "000000000000000000025f742c626208ac87e0b7d15054abb4a19ca2d735a54e",
    "block_time": 1710405325
  },
  "hex": "01000000012271cd46e15a31807dad36b8d69ff3a4f467bc7febbaf3b57233cc0ca05e1682080000006b483045022100b60a1a41e3b42d1a535ebad895bf0e13c762649c0780316f8e11a1c480519d4b022076813f697fe321486fc0ec0ff5f953953957c0c4c15bb6f5758f67ff142c936a0121024913385a5872c548186ab55d97370b69a7ad3e53379cbdb94f156cbf6e7b831bffffffff02a9ef0000000000001976a91471c97d78db668376bce8b85def0b45a5da982fc888ac27150000000000001976a91404bec33fe33f5251daec550fcaef2927e4671bac88ac00000000"
}