{
  "txid": "3924149d3a71dd370a151d1a110defef096de93be043cf4aa09b8b765665efb9",
  "version": 1,
  "locktime": 0,
  "vin": [
    {
      "txid": "541983582a3fb39f422a7c9357ebd2cd19806dd5f65cbbd82403e95c2baff8de",
      "vout": 0,
      "prevout": {
        "scriptpubkey": "5120bce39ba1c2fade0c35e976f20e7848fd0cea7aa4bb5bb8ca93ffe0f85bbd3f85",
        "scriptpubkey_asm": "OP_PUSHNUM_1 OP_PUSHBYTES_32 bce39ba1c2fade0c35e976f20e7848fd0cea7aa4bb5bb8ca93ffe0f85bbd3f85",
        "scriptpubkey_type": "v1_p2tr",
        "scriptpubkey_address": "bc1phn3ehgwzlt0qcd0fwmequ7zgl5xw574yhddm3j5nlls0skaa87zs5c9sye",
        "value": 2721
      },
      "scriptsig": "",
      "scriptsig_asm": "",
      "witness": [
        "123c0bb40957b37d8ccbe23194434a56ffc7240bf0bf822ebee2f1dc5d556d0b53232dae5df633efbf81db43b5f2143ec993508d3f3ea991f01cc6615673bdb7",
        "2079f9d72d9b9b1dcb10f7ce421deb098c111f9504f4c35d2f77d14ee0d7bea71eac0063036f7264010118746578742f706c61696e3b636861727365743d7574662d3800397b2270223a226272632d3230222c226f70223a227472616e73666572222c227469636b223a224d574343222c22616d74223a2233393630227d68",
        "c079f9d72d9b9b1dcb10f7ce421deb098c111f9504f4c35d2f77d14ee0d7bea71e"
      ],
      "is_coinbase": false,
      "sequence": 4294967293
    }
  ],
  "vout": [
    {
      "scriptpubkey": "0014303339128bc1e7928aebac5f28757088066d5977",
      "scriptpubkey_asm": "OP_0 OP_PUSHBYTES_20 303339128bc1e7928aebac5f28757088066d5977",
      "scriptpubkey_type": "v0_p2wpkh",
      "scriptpubkey_address": "bc1qxqenjy5tc8ne9zht430jsats3qrx6kthmqu50d",
      "value": 546
    }
  ],
  "size": 312,
  "weight": 558,
  "fee": 2175,
  "status": {
    "confirmed": true,
    "block_height": 834460,
    "block_hash": "00000000000000000000484a79b643b2524bbce82e5d8a442013fa5b8905ed98",
    "block_time": 1710307468
  },
  "hex": "01000000000101def8af2b5ce90324d8bb5cf6d56d8019cdd2eb57937c2a429fb33f2a588319540000000000fdffffff012202000000000000160014303339128bc1e7928aebac5f28757088066d59770340123c0bb40957b37d8ccbe23194434a56ffc7240bf0bf822ebee2f1dc5d556d0b53232dae5df633efbf81db43b5f2143ec993508d3f3ea991f01cc6615673bdb77f2079f9d72d9b9b1dcb10f7ce421deb098c111f9504f4c35d2f77d14ee0d7bea71eac0063036f7264010118746578742f706c61696e3b636861727365743d7574662d3800397b2270223a226272632d3230222c226f70223a227472616e73666572222c227469636b223a224d574343222c22616d74223a2233393630227d6821c079f9d72d9b9b1dcb10f7ce421deb098c111f9504f4c35d2f77d14ee0d7bea71e00000000"
}