{
  "txid": "3936b1dda4b305615b0d849e119eb6e4fd6fd3594d27230fc5f31d689ed5b0b6",
  "version": 2,
  "locktime": 834637,
  "vin": [
    {
      "txid": "ad4ec8a8149caf4103d851a2f74755545bba86c5b5497d2756d70d9c26838ae8",
      "vout": 0,
      "prevout": {
        "scriptpubkey": "0014de6a08047845f124df911daa1032958ca105bf5a",
        "scriptpubkey_asm": "OP_0 OP_PUSHBYTES_20 de6a08047845f124df911daa1032958ca105bf5a",
        "scriptpubkey_type": "v0_p2wpkh",
        "scriptpubkey_address": "bc1qme4qsprcghcjfhu3rk4pqv543jsst0669e8ywz",
        "value": 363080
      },
      "scriptsig": "",
      "scriptsig_asm": "",
      "witness": [
        "304402203f64292bce6a399d28228f0aada8b13f34f85e83af2a2bd5ef0fd337dcd4396602201006d74d08c5c3a7fed7da2e2058d39a3acd61dbc0fce4556d50ba21c512d12601",
        "037b9c20392c1b61d1434950ac1efdca75539b0eff511dcc92c10bdf0e58de048c"
      ],
      "is_coinbase": false,
      "sequence": 4294967293
    }
  ],
  "vout": [
    {
      "scriptpubkey": "00143d2cecb27bd199f6aca5c8bbbe8f42d3342d95df",
      "scriptpubkey_asm": "OP_0 OP_PUSHBYTES_20 3d2cecb27bd199f6aca5c8bbbe8f42d3342d95df",
      "scriptpubkey_type": "v0_p2wpkh",
      "scriptpubkey_address": "bc1q85kwevnm6xvldt99ezamar6z6v6zm9wlnm4szt",
      "value": 234082
    },
    {
      "scriptpubkey": "00148daf12a17fdc4f22a91767956a715a5c95430f67",
      "scriptpubkey_asm": "OP_0 OP_PUSHBYTES_20 8daf12a17fdc4f22a91767956a715a5c95430f67",
      "scriptpubkey_type": "v0_p2wpkh",
      "scriptpubkey_address": "bc1q3kh39gtlm38j92ghv72k5u26tj25xrm8xp09gj",
      "value": 125050
    }
  ],
  "size": 222,
  "weight": 561,
  "fee": 3948,
  "status": {
    "confirmed": true,
    "block_height": 834638,
    "block_hash": "000000000000000000025f742c626208ac87e0b7d15054abb4a19ca2d735a54e",
    "block_time": 1710405325
  },
  "hex": "02000000000101e88a83269c0dd756277d49b5c586ba5b545547f7a251d80341af9c14a8c84ead0000000000fdffffff0262920300000000001600143d2cecb27bd199f6aca5c8bbbe8f42d3342d95df7ae80100000000001600148daf12a17fdc4f22a91767956a715a5c95430f670247304402203f64292bce6a399d28228f0aada8b13f34f85e83af2a2bd5ef0fd337dcd4396602201006d74d08c5c3a7fed7da2e2058d39a3acd61dbc0fce4556d50ba21c512d1260121037b9c20392c1b61d1434950ac1efdca75539b0eff511dcc92c10bdf0e58de048c4dbc0c00"
}