{
  "txid": "393ba794c58779c1ee7f9758510622ab7f42facf9d0d79be6111259e1a56ebbd",
  "version": 1,
  "locktime": 0,
  "vin": [
    {
      "txid": "57b8fcabb61b38cd629195cf9942dad532e8a23b3b43a5efd1ffe446f39accff",
      "vout": 1,
      "prevout": {
        "scriptpubkey": "00142dfe59917f7daddd5ea00e3f3be996075696cf38",
        "scriptpubkey_asm": "OP_0 OP_PUSHBYTES_20 2dfe59917f7daddd5ea00e3f3be996075696cf38",
        "scriptpubkey_type": "v0_p2wpkh",
        "scriptpubkey_address": "bc1q9hl9nytl0kka6h4qpclnh6vkqatfdnec0k76tf",
        "value": 641976
      },
      "scriptsig": "",
      "scriptsig_asm": "",
      "witness": [
        "304402200a8764dcd819d8e159639bcfaea381563ddeefc9f9261e57e8e19f893bfd5f7a022064e0bff390a58c8ebc5f6887500f3b87c9dc20f73377982f091489310a8a007d01",
        "0330e7ba150c69231bc9e831c17ec570a335a921fce694b8abe2a804d7d4b9a1c5"
      ],
      "is_coinbase": false,
      "sequence": 4294967293
    },
    {
      "txid": "3a4a7a8b53112746ebd4e323c495734bfc441da996166d050fe853fbe07e7398",
      "vout": 2,
      "prevout": {
        "scriptpubkey": "00142dfe59917f7daddd5ea00e3f3be996075696cf38",
        "scriptpubkey_asm": "OP_0 OP_PUSHBYTES_20 2dfe59917f7daddd5ea00e3f3be996075696cf38",
        "scriptpubkey_type": "v0_p2wpkh",
        "scriptpubkey_address": "bc1q9hl9nytl0kka6h4qpclnh6vkqatfdnec0k76tf",
        "value": 266999
      },
      "scriptsig": "",
      "scriptsig_asm": "",
      "witness": [
        "3045022100d5c7209d2843baf28786abff49f59e6fd324316f701b28df1b3a500604ad978d02205e93ed2756044d00c603ad0619dceb17ac35da3f298e025151eca39a19aa9aa401",
        "0330e7ba150c69231bc9e831c17ec570a335a921fce694b8abe2a804d7d4b9a1c5"
      ],
      "is_coinbase": false,
      "sequence": 4294967293
    },
    {
      "txid": "a577b87aec1a00deb0d49739aed2e812bf05bff86fa593fe1272b8e90f37677a",
      "vout": 2,
      "prevout": {
        "scriptpubkey": "00142dfe59917f7daddd5ea00e3f3be996075696cf38",
        "scriptpubkey_asm": "OP_0 OP_PUSHBYTES_20 2dfe59917f7daddd5ea00e3f3be996075696cf38",
        "scriptpubkey_type": "v0_p2wpkh",
        "scriptpubkey_address": "bc1q9hl9nytl0kka6h4qpclnh6vkqatfdnec0k76tf",
        "value": 94000
      },
      "scriptsig": "",
      "scriptsig_asm": "",
      "witness": [
        "3045022100d233f9624c4ec0c64cf170af8e8f20ea0e01425a633ca45f3e4345daf772d41f022054bc399ca322a4efb51af3cc2373f6462ffde550d2852bbd5e63f586d701d9ca01",
        "0330e7ba150c69231bc9e831c17ec570a335a921fce694b8abe2a804d7d4b9a1c5"
      ],
      "is_coinbase": false,
      "sequence": 4294967293
    },
    {
      "txid": "2a232721237a0100523c3bae91a4ff39ce52ed983443559aa2ee34257a6702ab",
      "vout": 1,
      "prevout": {
        "scriptpubkey": "00142dfe59917f7daddd5ea00e3f3be996075696cf38",
        "scriptpubkey_asm": "OP_0 OP_PUSHBYTES_20 2dfe59917f7daddd5ea00e3f3be996075696cf38",
        "scriptpubkey_type": "v0_p2wpkh",
        "scriptpubkey_address": "bc1q9hl9nytl0kka6h4qpclnh6vkqatfdnec0k76tf",
        "value": 118838
      },
      "scriptsig": "",
      "scriptsig_asm": "",
      "witness": [
        "304502210082c32a4297acff44fb558eacf54d30d3867dd10f9dfd233d43aac780d6c9cc360220447eed863957458c84e51d90af40df02e0eb78fdf55e08f60dffdee30008833c01",
        "0330e7ba150c69231bc9e831c17ec570a335a921fce694b8abe2a804d7d4b9a1c5"
      ],
      "is_coinbase": false,
      "sequence": 4294967293
    }
  ],
  "vout": [
    {
      "scriptpubkey": "76a91439302bdbfd93f867ef0d10156fdc9f16dde350e388ac",
      "scriptpubkey_asm": "OP_DUP OP_HASH160 OP_PUSHBYTES_20 39302bdbfd93f867ef0d10156fdc9f16dde350e3 OP_EQUALVERIFY OP_CHECKSIG",
      "scriptpubkey_type": "p2pkh",
      "scriptpubkey_address": "16DPDwL6DoS5xUfeZTp8Q6d18ELByGDPf7",
      "value": 1116305
    }
  ],
  "size": 641,
  "weight": 1265,
  "fee": 5508,
  "status": {
    "confirmed": true,
    "block_height": 834638,
    "block_hash": "000000000000000000025f742c626208ac87e0b7d15054abb4a19ca2d735a54e",
    "block_time": 1710405325
  },
  "hex": "01000000000104ffcc9af346e4ffd1efa5433b3ba2e832d5da4299cf959162cd381bb6abfcb8570100000000fdffffff98737ee0fb53e80f056d1696a91d44fc4b7395c423e3d4eb462711538b7a4a3a0200000000fdffffff7a67370fe9b87212fe93a56ff8bf05bf12e8d2ae3997d4b0de001aec7ab877a50200000000fdffffffab02677a2534eea29a55433498ed52ce39ffa491ae3b3c5200017a232127232a0100000000fdffffff0191081100000000001976a91439302bdbfd93f867ef0d10156fdc9f16dde350e388ac0247304402200a8764dcd819d8e159639bcfaea381563ddeefc9f9261e57e8e19f893bfd5f7a022064e0bff390a58c8ebc5f6887500f3b87c9dc20f73377982f091489310a8a007d01210330e7ba150c69231bc9e831c17ec570a335a921fce694b8abe2a804d7d4b9a1c502483045022100d5c7209d2843baf28786abff49f59e6fd324316f701b28df1b3a500604ad978d02205e93ed2756044d00c603ad0619dceb17ac35da3f298e025151eca39a19aa9aa401210330e7ba150c69231bc9e831c17ec570a335a921fce694b8abe2a804d7d4b9a1c502483045022100d233f9624c4ec0c64cf170af8e8f20ea0e01425a633ca45f3e4345daf772d41f022054bc399ca322a4efb51af3cc2373f6462ffde550d2852bbd5e63f586d701d9ca01210330e7ba150c69231bc9e831c17ec570a335a921fce694b8abe2a804d7d4b9a1c50248304502210082c32a4297acff44fb558eacf54d30d3867dd10f9dfd233d43aac780d6c9cc360220447eed863957458c84e51d90af40df02e0eb78fdf55e08f60dffdee30008833c01210330e7ba150c69231bc9e831c17ec570a335a921fce694b8abe2a804d7d4b9a1c500000000"
}