{
  "txid": "394eb6a12f3c23e030bad0f66cafc2935ba71fbe8988ae16caeb23ed401ea750",
  "version": 2,
  "locktime": 0,
  "vin": [
    {
      "txid": "0d6bc8381bdf5912285a56b224e5bb8bc1776947e97442f29218d75f480420a5",
      "vout": 0,
      "prevout": {
        "scriptpubkey": "00145a641af7c26d3d27bb2cc22314cdf921facfb846",
        "scriptpubkey_asm": "OP_0 OP_PUSHBYTES_20 5a641af7c26d3d27bb2cc22314cdf921facfb846",
        "scriptpubkey_type": "v0_p2wpkh",
        "scriptpubkey_address": "bc1qtfjp4a7zd57j0wevcg33fn0ey8avlwzxr8233q",
        "value": 77466
      },
      "scriptsig": "",
      "scriptsig_asm": "",
      "witness": [
        "304402202e8ebc65e004eabbdc15e3d635c2ede2327bedcc32fe62f3b4815d857fc08c8502207ddbd1fc5b5ecdb2e617df233f8fcd2921303aadb373ee4d52655da0c33a10c901",
        "03453dcfd29201be09141b9c4f4f3594875f585f9e02494b29bd28a172084378dc"
      ],
      "is_coinbase": false,
      "sequence": 4294967293
    }
  ],
  "vout": [
    {
      "scriptpubkey": "0014df629534cb19df9ac3a2920b2c6bb7854ce58eec",
      "scriptpubkey_asm": "OP_0 OP_PUSHBYTES_20 df629534cb19df9ac3a2920b2c6bb7854ce58eec",
      "scriptpubkey_type": "v0_p2wpkh",
      "scriptpubkey_address": "bc1qma3f2dxtr80e4sazjg9jc6ahs4xwtrhvp85snh",
      "value": 75800
    }
  ],
  "size": 191,
  "weight": 437,
  "fee": 1666,
  "status": {
    "confirmed": true,
    "block_height": 834552,
    "block_hash": "00000000000000000001dd0468a70c94f619251d286585cff57aeb4bd9ede330",
    "block_time": 1710355598
  },
  "hex": "02000000000101a52004485fd71892f24274e9476977c18bbbe524b2565a281259df1b38c86b0d0000000000fdffffff011828010000000000160014df629534cb19df9ac3a2920b2c6bb7854ce58eec0247304402202e8ebc65e004eabbdc15e3d635c2ede2327bedcc32fe62f3b4815d857fc08c8502207ddbd1fc5b5ecdb2e617df233f8fcd2921303aadb373ee4d52655da0c33a10c9012103453dcfd29201be09141b9c4f4f3594875f585f9e02494b29bd28a172084378dc00000000"
}