{
  "txid": "396e5b31ee4c56a7080808e04f9c16deaedb9e757575657edd2236a426797f0e",
  "version": 2,
  "locktime": 0,
  "vin": [
    {
      "txid": "c3f3ea4bf9194dc2c2638026aec7cd700d4d794fefb3e8c3d77ecf6be339bcd1",
      "vout": 1,
      "prevout": {
        "scriptpubkey": "00149c5f1f460b7df9a04f43577ac4e9a1c0bb9eebc8",
        "scriptpubkey_asm": "OP_0 OP_PUSHBYTES_20 9c5f1f460b7df9a04f43577ac4e9a1c0bb9eebc8",
        "scriptpubkey_type": "v0_p2wpkh",
        "scriptpubkey_address": "bc1qn30373st0hu6qn6r2aavf6dpczaea67g2vpkt7",
        "value": 32000
      },
      "scriptsig": "",
      "scriptsig_asm": "",
      "witness": [
        "304402207a4e9fbb23eb254ed915be312008b1978b582c0a8714718e41c08c124da2684802200249b2bb5b4008b9d96a556ac66022b34bd428bb7db9e368171bedae5c1aefbf01",
        "028a40ab23d000101d58d3789374d48776e8e402f21a0687a7221cd37c8fc83dcd"
      ],
      "is_coinbase": false,
      "sequence": 4294967295
    }
  ],
  "vout": [
    {
      "scriptpubkey": "51206449c55e06b09d3811c7bb826ac9954c787282e5835aa9fb6cf373738a7f2dfa",
      "scriptpubkey_asm": "OP_PUSHNUM_1 OP_PUSHBYTES_32 6449c55e06b09d3811c7bb826ac9954c787282e5835aa9fb6cf373738a7f2dfa",
      "scriptpubkey_type": "v1_p2tr",
      "scriptpubkey_address": "bc1pv3yu2hsxkzwnsyw8hwpx4jv4f3u89qh9sdd2n7mv7deh8znl9haq25yfna",
      "value": 12018
    },
    {
      "scriptpubkey": "00149c5f1f460b7df9a04f43577ac4e9a1c0bb9eebc8",
      "scriptpubkey_asm": "OP_0 OP_PUSHBYTES_20 9c5f1f460b7df9a04f43577ac4e9a1c0bb9eebc8",
      "scriptpubkey_type": "v0_p2wpkh",
      "scriptpubkey_address": "bc1qn30373st0hu6qn6r2aavf6dpczaea67g2vpkt7",
      "value": 17075
    }
  ],
  "size": 234,
  "weight": 609,
  "fee": 2907,
  "status": {
    "confirmed": true,
    "block_height": 834638,
    "block_hash": "000000000000000000025f742c626208ac87e0b7d15054abb4a19ca2d735a54e",
    "block_time": 1710405325
  },
  "hex": "02000000000101d1bc39e36bcf7ed7c3e8b3ef4f794d0d70cdc7ae268063c2c24d19f94beaf3c30100000000ffffffff02f22e0000000000002251206449c55e06b09d3811c7bb826ac9954c787282e5835aa9fb6cf373738a7f2dfab3420000000000001600149c5f1f460b7df9a04f43577ac4e9a1c0bb9eebc80247304402207a4e9fbb23eb254ed915be312008b1978b582c0a8714718e41c08c124da2684802200249b2bb5b4008b9d96a556ac66022b34bd428bb7db9e368171bedae5c1aefbf0121028a40ab23d000101d58d3789374d48776e8e402f21a0687a7221cd37c8fc83dcd00000000"
}