{
  "txid": "3979a345203a44098bd71d93255d3d4de64b89c48e27c80bcd5568746ff5c93e",
  "version": 2,
  "locktime": 0,
  "vin": [
    {
      "txid": "63d572bc23863fb10f8ee3ae60de02f38de7714ca06ba6730b5fecd357937ceb",
      "vout": 1,
      "prevout": {
        "scriptpubkey": "001433c2ca3653fee82b02d9361d0f97a13cf972b8f9",
        "scriptpubkey_asm": "OP_0 OP_PUSHBYTES_20 33c2ca3653fee82b02d9361d0f97a13cf972b8f9",
        "scriptpubkey_type": "v0_p2wpkh",
        "scriptpubkey_address": "bc1qx0pv5djnlm5zkqkexcwsl9ap8nuh9w8e93u6xz",
        "value": 15060761
      },
      "scriptsig": "",
      "scriptsig_asm": "",
      "witness": [
        "30440220131b69b997e86b70a1caedf5818092943d0d08b5525567c37956ce3dffc6225b022028541289b8666cc34a67f7bc82227566ad2016964baf15e8a0af3baf068cd27801",
        "03989dc2c71e04c06de63c6adac9599aed4c283dae0073bbf8c820441a0ec55d83"
      ],
      "is_coinbase": false,
      "sequence": 4294967293
    }
  ],
  "vout": [
    {
      "scriptpubkey": "0020c338a83b3e3f05c510969abd516706bd591045bde7b80ed3cce8f384b797a197",
      "scriptpubkey_asm": "OP_0 OP_PUSHBYTES_32 c338a83b3e3f05c510969abd516706bd591045bde7b80ed3cce8f384b797a197",
      "scriptpubkey_type": "v0_p2wsh",
      "scriptpubkey_address": "bc1qcvu2swe78uzu2yykn274zecxh4v3q3dau7uqa57varecfduh5xtsx4gzzc",
      "value": 1366555
    },
    {
      "scriptpubkey": "0014c1c4b6e6c3b3cc6f85ea902b1d81504557230c8e",
      "scriptpubkey_asm": "OP_0 OP_PUSHBYTES_20 c1c4b6e6c3b3cc6f85ea902b1d81504557230c8e",
      "scriptpubkey_type": "v0_p2wpkh",
      "scriptpubkey_address": "bc1qc8ztdekrk0xxlp02jq43mq2sg4tjxrywpgnzze",
      "value": 13689922
    }
  ],
  "size": 234,
  "weight": 609,
  "fee": 4284,
  "status": {
    "confirmed": true,
    "block_height": 834552,
    "block_hash": "00000000000000000001dd0468a70c94f619251d286585cff57aeb4bd9ede330",
    "block_time": 1710355598
  },
  "hex": "02000000000101eb7c9357d3ec5f0b73a66ba04c71e78df302de60aee38e0fb13f8623bc72d5630100000000fdffffff021bda140000000000220020c338a83b3e3f05c510969abd516706bd591045bde7b80ed3cce8f384b797a19742e4d00000000000160014c1c4b6e6c3b3cc6f85ea902b1d81504557230c8e024730440220131b69b997e86b70a1caedf5818092943d0d08b5525567c37956ce3dffc6225b022028541289b8666cc34a67f7bc82227566ad2016964baf15e8a0af3baf068cd278012103989dc2c71e04c06de63c6adac9599aed4c283dae0073bbf8c820441a0ec55d8300000000"
}