{
  "txid": "3989993a95ce9a49383a5e4b1a568a1153d0c6863f086335884796f82aaeb37a",
  "version": 1,
  "locktime": 0,
  "vin": [
    {
      "txid": "c131075a0bb53eaa0cfce6b5fef155103c4864a806ed7be06c23b37162e11a1e",
      "vout": 0,
      "prevout": {
        "scriptpubkey": "5120cd7ec1b49aca0b1758d0d315a5895c63b9e7c9b4f29af295d20fbb2367cbf310",
        "scriptpubkey_asm": "OP_PUSHNUM_1 OP_PUSHBYTES_32 cd7ec1b49aca0b1758d0d315a5895c63b9e7c9b4f29af295d20fbb2367cbf310",
        "scriptpubkey_type": "v1_p2tr",
        "scriptpubkey_address": "bc1pe4lvrdy6eg93wkxs6v26tz2uvwu70jd572d099wjp7ajxe7t7vgqva27jk",
        "value": 335853
      },
      "scriptsig": "",
      "scriptsig_asm": "",
      "witness": [
        "ec33ac2088ce868d134a643e463384b8b54dc27ce091ae77cfcab25481292b81ea20462b2867d55856e35d06a9b1e4e645a055169f32473bc98213c18c4c273001"
      ],
      "is_coinbase": false,
      "sequence": 4294967295
    }
  ],
  "vout": [
    {
      "scriptpubkey": "512039dce55b127ae5aa082d26bc3d81207d930fbf19523bef86c5994fe676b79605",
      "scriptpubkey_asm": "OP_PUSHNUM_1 OP_PUSHBYTES_32 39dce55b127ae5aa082d26bc3d81207d930fbf19523bef86c5994fe676b79605",
      "scriptpubkey_type": "v1_p2tr",
      "scriptpubkey_address": "bc1p88ww2kcj0tj65zpdy67rmqfq0kfsl0ce2ga7lpk9n987va4hjczskd5jup",
      "value": 2759
    },
    {
      "scriptpubkey": "002001c294e86845f353ed0f3fcc20093dce51aadeaf99393670b3c236c7c46529de",
      "scriptpubkey_asm": "OP_0 OP_PUSHBYTES_32 01c294e86845f353ed0f3fcc20093dce51aadeaf99393670b3c236c7c46529de",
      "scriptpubkey_type": "v0_p2wsh",
      "scriptpubkey_address": "bc1qq8pff6rgghe48mg08lxzqzfaeeg64h40nyunvu9ncgmv03r9980qp39nl7",
      "value": 331165
    }
  ],
  "size": 206,
  "weight": 617,
  "fee": 1929,
  "status": {
    "confirmed": true,
    "block_height": 834460,
    "block_hash": "00000000000000000000484a79b643b2524bbce82e5d8a442013fa5b8905ed98",
    "block_time": 1710307468
  },
  "hex": "010000000001011e1ae16271b3236ce07bed06a864483c1055f1feb5e6fc0caa3eb50b5a0731c10000000000ffffffff02c70a00000000000022512039dce55b127ae5aa082d26bc3d81207d930fbf19523bef86c5994fe676b796059d0d05000000000022002001c294e86845f353ed0f3fcc20093dce51aadeaf99393670b3c236c7c46529de0141ec33ac2088ce868d134a643e463384b8b54dc27ce091ae77cfcab25481292b81ea20462b2867d55856e35d06a9b1e4e645a055169f32473bc98213c18c4c27300100000000"
}