{
  "txid": "39959f0279207ca7414d864aca5233d998d4ebc950f15a4556f4dfd3b1932b92",
  "version": 2,
  "locktime": 0,
  "vin": [
    {
      "txid": "dcb3315740b1be762298437328f1a9567815d12c7d0f99fe81a6b240670b8b1d",
      "vout": 13,
      "prevout": {
        "scriptpubkey": "76a9146939f08ecaa5f0f9c7db1b8333e1ef23ade1e7e488ac",
        "scriptpubkey_asm": "OP_DUP OP_HASH160 OP_PUSHBYTES_20 6939f08ecaa5f0f9c7db1b8333e1ef23ade1e7e4 OP_EQUALVERIFY OP_CHECKSIG",
        "scriptpubkey_type": "p2pkh",
        "scriptpubkey_address": "1AbPMryc9J4gFnWgqw41PYSrzc8mSozToE",
        "value": 265427
      },
      "scriptsig": "47304402206973c5246b3f905fce36d27ae67585507903212a238a76b43ecba4bf087a7e4302201b7b80186ba04d9733facf7b89a6dcd96d28a262bc694066f06a05d17a145b970121027e6744ac1a030ba9f54388a744e9ca0c3ec13f2c28eeaaff23ba80cd15801e98",
      "scriptsig_asm": "OP_PUSHBYTES_71 304402206973c5246b3f905fce36d27ae67585507903212a238a76b43ecba4bf087a7e4302201b7b80186ba04d9733facf7b89a6dcd96d28a262bc694066f06a05d17a145b9701 OP_PUSHBYTES_33 027e6744ac1a030ba9f54388a744e9ca0c3ec13f2c28eeaaff23ba80cd15801e98",
      "is_coinbase": false,
      "sequence": 4294967293
    },
    {
      "txid": "c08adf911738848e01672b317722de27bef396d5ce98bd41f635439ca2cf09d4",
      "vout": 1,
      "prevout": {
        "scriptpubkey": "76a9146939f08ecaa5f0f9c7db1b8333e1ef23ade1e7e488ac",
        "scriptpubkey_asm": "OP_DUP OP_HASH160 OP_PUSHBYTES_20 6939f08ecaa5f0f9c7db1b8333e1ef23ade1e7e4 OP_EQUALVERIFY OP_CHECKSIG",
        "scriptpubkey_type": "p2pkh",
        "scriptpubkey_address": "1AbPMryc9J4gFnWgqw41PYSrzc8mSozToE",
        "value": 1291
      },
      "scriptsig": "483045022100ad604e385ac3edeffb98a53999acf0f3de69b668de02e388c45d735be993900002204a4823e490514a071c2f94ca93cc97a5cff32e338cddc9b7b8a7bd681a0c5efc0121027e6744ac1a030ba9f54388a744e9ca0c3ec13f2c28eeaaff23ba80cd15801e98",
      "scriptsig_asm": "OP_PUSHBYTES_72 3045022100ad604e385ac3edeffb98a53999acf0f3de69b668de02e388c45d735be993900002204a4823e490514a071c2f94ca93cc97a5cff32e338cddc9b7b8a7bd681a0c5efc01 OP_PUSHBYTES_33 027e6744ac1a030ba9f54388a744e9ca0c3ec13f2c28eeaaff23ba80cd15801e98",
      "is_coinbase": false,
      "sequence": 4294967293
    }
  ],
  "vout": [
    {
      "scriptpubkey": "a914ca9e1f80b354869fa6d1b35961693e3faceedfd887",
      "scriptpubkey_asm": "OP_HASH160 OP_PUSHBYTES_20 ca9e1f80b354869fa6d1b35961693e3faceedfd8 OP_EQUAL",
      "scriptpubkey_type": "p2sh",
      "scriptpubkey_address": "3LAMqsmcE5kJdJ8TK5QDvpnJpoSNnYVipi",
      "value": 5328
    },
    {
      "scriptpubkey": "76a9146939f08ecaa5f0f9c7db1b8333e1ef23ade1e7e488ac",
      "scriptpubkey_asm": "OP_DUP OP_HASH160 OP_PUSHBYTES_20 6939f08ecaa5f0f9c7db1b8333e1ef23ade1e7e4 OP_EQUALVERIFY OP_CHECKSIG",
      "scriptpubkey_type": "p2pkh",
      "scriptpubkey_address": "1AbPMryc9J4gFnWgqw41PYSrzc8mSozToE",
      "value": 215760
    }
  ],
  "size": 371,
  "weight": 1484,
  "fee": 45630,
  "status": {
    "confirmed": true,
    "block_height": 834638,
    "block_hash": "000000000000000000025f742c626208ac87e0b7d15054abb4a19ca2d735a54e",
    "block_time": 1710405325
  },
  "hex": "02000000021d8b0b6740b2a681fe990f7d2cd1157856a9f1287343982276beb1405731b3dc0d0000006a47304402206973c5246b3f905fce36d27ae67585507903212a238a76b43ecba4bf087a7e4302201b7b80186ba04d9733facf7b89a6dcd96d28a262bc694066f06a05d17a145b970121027e6744ac1a030ba9f54388a744e9ca0c3ec13f2c28eeaaff23ba80cd15801e98fdffffffd409cfa29c4335f641bd98ced596f3be27de2277312b67018e84381791df8ac0010000006b483045022100ad604e385ac3edeffb98a53999acf0f3de69b668de02e388c45d735be993900002204a4823e490514a071c2f94ca93cc97a5cff32e338cddc9b7b8a7bd681a0c5efc0121027e6744ac1a030ba9f54388a744e9ca0c3ec13f2c28eeaaff23ba80cd15801e98fdffffff02d01400000000000017a914ca9e1f80b354869fa6d1b35961693e3faceedfd887d04a0300000000001976a9146939f08ecaa5f0f9c7db1b8333e1ef23ade1e7e488ac00000000"
}