{
  "txid": "39a3a148ecf1fb9d02871e03e747f24dbe7da6b48297f6cb2729753250a5311f",
  "version": 2,
  "locktime": 0,
  "vin": [
    {
      "txid": "d1f2e56bb0b5c87466a28cf0fb59f1bc198978e6338eafb988f343191f77d743",
      "vout": 4,
      "prevout": {
        "scriptpubkey": "512091bb4513bfd581074d305c83ecd6ed24280f7bf0ef004642fec9336672f7ea6b",
        "scriptpubkey_asm": "OP_PUSHNUM_1 OP_PUSHBYTES_32 91bb4513bfd581074d305c83ecd6ed24280f7bf0ef004642fec9336672f7ea6b",
        "scriptpubkey_type": "v1_p2tr",
        "scriptpubkey_address": "bc1pjxa52yal6kqswnfstjp7e4hdys5q77lsauqyvsh7eyekvuhhaf4s2u5rz7",
        "value": 3093
      },
      "scriptsig": "",
      "scriptsig_asm": "",
      "witness": [
        "39ec277105317e87f3af669b442c72097a8ebee1982c78517ec406cb5a2b692856cfe1dc682666c4e99b623766dfb889de485143ce81d8a38a2e2f2ae0df6b70",
        "208057c0d51199858280f1f556eddbe243577e88a28777bdb38a683689c16c4c9cac0063036f726401010a746578742f706c61696e004c8f7b2270223a2022746170222c20226f70223a2022646d742d6d696e74222c2022646570223a2022333962373532343338626533613435326464623731376230613635346233313662316164343661383139656234343831383933626337313331663738396539616930222c20227469636b223a20226e61746f776c73222c2022626c6b223a2022373036323634227d68",
        "c08057c0d51199858280f1f556eddbe243577e88a28777bdb38a683689c16c4c9c"
      ],
      "is_coinbase": false,
      "sequence": 4294967293
    }
  ],
  "vout": [
    {
      "scriptpubkey": "51202c5c7b584418f7df16e266886880e520a408eb99881dc4d7bb8770bb5b3cbbc9",
      "scriptpubkey_asm": "OP_PUSHNUM_1 OP_PUSHBYTES_32 2c5c7b584418f7df16e266886880e520a408eb99881dc4d7bb8770bb5b3cbbc9",
      "scriptpubkey_type": "v1_p2tr",
      "scriptpubkey_address": "bc1p93w8kkzyrrma79hzv6yx3q89yzjq36ue3qwuf4amsactkkeuh0ysjzsu97",
      "value": 546
    }
  ],
  "size": 397,
  "weight": 679,
  "fee": 2547,
  "status": {
    "confirmed": true,
    "block_height": 834464,
    "block_hash": "0000000000000000000177a0869a911a2b65c9bdcd5a8bcb02b68f305bee848e",
    "block_time": 1710308296
  },
  "hex": "0200000000010143d7771f1943f388b9af8e33e6788919bcf159fbf08ca26674c8b5b06be5f2d10400000000fdffffff0122020000000000002251202c5c7b584418f7df16e266886880e520a408eb99881dc4d7bb8770bb5b3cbbc9034039ec277105317e87f3af669b442c72097a8ebee1982c78517ec406cb5a2b692856cfe1dc682666c4e99b623766dfb889de485143ce81d8a38a2e2f2ae0df6b70c8208057c0d51199858280f1f556eddbe243577e88a28777bdb38a683689c16c4c9cac0063036f726401010a746578742f706c61696e004c8f7b2270223a2022746170222c20226f70223a2022646d742d6d696e74222c2022646570223a2022333962373532343338626533613435326464623731376230613635346233313662316164343661383139656234343831383933626337313331663738396539616930222c20227469636b223a20226e61746f776c73222c2022626c6b223a2022373036323634227d6821c08057c0d51199858280f1f556eddbe243577e88a28777bdb38a683689c16c4c9c00000000"
}