{
  "txid": "39a6b04359507f40a03704af38902e01b41f56727cc6ac3259c94b817967c704",
  "version": 2,
  "locktime": 0,
  "vin": [
    {
      "txid": "e8b5bf98137da6e5c8ce74a6cc6911673dd4dbda437ee9de26ca8bc89cfe8d1e",
      "vout": 1,
      "prevout": {
        "scriptpubkey": "5120c961646e01b27c0163d8fec96189829521f40fbbf1d2c58da041156a53fbde94",
        "scriptpubkey_asm": "OP_PUSHNUM_1 OP_PUSHBYTES_32 c961646e01b27c0163d8fec96189829521f40fbbf1d2c58da041156a53fbde94",
        "scriptpubkey_type": "v1_p2tr",
        "scriptpubkey_address": "bc1pe9skgmspkf7qzc7clmykrzvzj5slgram78fvtrdqgy2k55lmm62qumxzft",
        "value": 4224126
      },
      "scriptsig": "",
      "scriptsig_asm": "",
      "witness": [
        "c9e3c8ab3de8fa40beedb30364b5064a55ce6e6c13eb79fcd1cbb802a794aecc8b82a51f9796d42654297e90c6fb4f1878803959710925fac468a22ce53dba62",
        "2088225c0158a85208c9f0a93d3b724953f164a056121b81a87f88ab0a666cbff1ac0063036f726401010a746578742f706c61696e004c827b2270223a22746170222c226f70223a22646d742d6d696e74222c22646570223a22346439363761663336646361636437653631393963333962646138353564376231623337323638663463383033316665643534303361393961633537666536376930222c227469636b223a226e6174222c22626c6b223a22383334343630227d68",
        "c088225c0158a85208c9f0a93d3b724953f164a056121b81a87f88ab0a666cbff1"
      ],
      "is_coinbase": false,
      "sequence": 4261412863
    }
  ],
  "vout": [
    {
      "scriptpubkey": "0014cdc1cde2e417b586bd714f64afc3d7def41b6b15",
      "scriptpubkey_asm": "OP_0 OP_PUSHBYTES_20 cdc1cde2e417b586bd714f64afc3d7def41b6b15",
      "scriptpubkey_type": "v0_p2wpkh",
      "scriptpubkey_address": "bc1qehqumchyz76cd0t3faj2ls7hmm6pk6c45h4l9c",
      "value": 294
    },
    {
      "scriptpubkey": "5120a07992566a490a4f7d1600437d531b91fe60476757ed7e9d7810526a00acf7e9",
      "scriptpubkey_asm": "OP_PUSHNUM_1 OP_PUSHBYTES_32 a07992566a490a4f7d1600437d531b91fe60476757ed7e9d7810526a00acf7e9",
      "scriptpubkey_type": "v1_p2tr",
      "scriptpubkey_address": "bc1p5puey4n2fy9y7lgkqpph65cmj8lxq3m82lkha8tczpfx5q9v7l5swa7pne",
      "value": 4216902
    }
  ],
  "size": 415,
  "weight": 790,
  "fee": 6930,
  "status": {
    "confirmed": true,
    "block_height": 834460,
    "block_hash": "00000000000000000000484a79b643b2524bbce82e5d8a442013fa5b8905ed98",
    "block_time": 1710307468
  },
  "hex": "020000000001011e8dfe9cc88bca26dee97e43dadbd43d671169cca674cec8e5a67d1398bfb5e80100000000fffffffd022601000000000000160014cdc1cde2e417b586bd714f64afc3d7def41b6b154658400000000000225120a07992566a490a4f7d1600437d531b91fe60476757ed7e9d7810526a00acf7e90340c9e3c8ab3de8fa40beedb30364b5064a55ce6e6c13eb79fcd1cbb802a794aecc8b82a51f9796d42654297e90c6fb4f1878803959710925fac468a22ce53dba62bb2088225c0158a85208c9f0a93d3b724953f164a056121b81a87f88ab0a666cbff1ac0063036f726401010a746578742f706c61696e004c827b2270223a22746170222c226f70223a22646d742d6d696e74222c22646570223a22346439363761663336646361636437653631393963333962646138353564376231623337323638663463383033316665643534303361393961633537666536376930222c227469636b223a226e6174222c22626c6b223a22383334343630227d6821c088225c0158a85208c9f0a93d3b724953f164a056121b81a87f88ab0a666cbff100000000"
}