{
  "txid": "39b85e23bbe56f50a0e18baed104ecae91ec0b52b83571f930b050d3fc096fea",
  "version": 2,
  "locktime": 0,
  "vin": [
    {
      "txid": "4ee77778659dcfe8d7a4e15882fc6193f4f3d5f6607624e256337b44c2280af5",
      "vout": 51,
      "prevout": {
        "scriptpubkey": "5120a85e3d13519505cb8927e2a8f652d0c9e55a99072fe7a25c91b240d9ff20acbb",
        "scriptpubkey_asm": "OP_PUSHNUM_1 OP_PUSHBYTES_32 a85e3d13519505cb8927e2a8f652d0c9e55a99072fe7a25c91b240d9ff20acbb",
        "scriptpubkey_type": "v1_p2tr",
        "scriptpubkey_address": "bc1p4p0r6y63j5zuhzf8u250v5kse8j44xg89ln6yhy3kfqdnleq4jas3w2m54",
        "value": 2075
      },
      "scriptsig": "",
      "scriptsig_asm": "",
      "witness": [
        "adea93a89e5c3e22a1b818ca4d9138df6f618fd6d099c4d123c47fa53749a0d524f16afa966b64ea6a3f7f32de4712ab7aba8631d67ae57f592e6be0cb759de8",
        "20306f175dd0035c4fca29515b0c2f3097a9e18201944381b7fe472cadc96cc7eeac0063036f7264010118746578742f706c61696e3b636861727365743d7574662d3800357b2270223a224252432d313030222c226f70223a226d696e74222c227469636b223a22696e73222c22616d74223a2231303030227d68",
        "c1c50eac15d7d7889f5ad84f80015e8a209129aeea937c37fa4b8bc0f9be289730"
      ],
      "is_coinbase": false,
      "sequence": 4294967295
    }
  ],
  "vout": [
    {
      "scriptpubkey": "00143e2325412b554cacdd163a93a42204c4707f8851",
      "scriptpubkey_asm": "OP_0 OP_PUSHBYTES_20 3e2325412b554cacdd163a93a42204c4707f8851",
      "scriptpubkey_type": "v0_p2wpkh",
      "scriptpubkey_address": "bc1q8c3j2sft24x2ehgk82f6ggsyc3c8lzz3yw9wsu",
      "value": 546
    }
  ],
  "size": 308,
  "weight": 554,
  "fee": 1529,
  "status": {
    "confirmed": true,
    "block_height": 834464,
    "block_hash": "0000000000000000000177a0869a911a2b65c9bdcd5a8bcb02b68f305bee848e",
    "block_time": 1710308296
  },
  "hex": "02000000000101f50a28c2447b3356e2247660f6d5f3f49361fc8258e1a4d7e8cf9d657877e74e3300000000ffffffff0122020000000000001600143e2325412b554cacdd163a93a42204c4707f88510340adea93a89e5c3e22a1b818ca4d9138df6f618fd6d099c4d123c47fa53749a0d524f16afa966b64ea6a3f7f32de4712ab7aba8631d67ae57f592e6be0cb759de87b20306f175dd0035c4fca29515b0c2f3097a9e18201944381b7fe472cadc96cc7eeac0063036f7264010118746578742f706c61696e3b636861727365743d7574662d3800357b2270223a224252432d313030222c226f70223a226d696e74222c227469636b223a22696e73222c22616d74223a2231303030227d6821c1c50eac15d7d7889f5ad84f80015e8a209129aeea937c37fa4b8bc0f9be28973000000000"
}