{
  "txid": "39b85cfc73a13323d33eb4f68685ab96143792cda55ed6aa7cdc60651da24d1e",
  "version": 1,
  "locktime": 0,
  "vin": [
    {
      "txid": "888888faf455f4b512ab1cc40ef3b70fa69352a9cf0bcd186ae0984f76d44fd6",
      "vout": 0,
      "prevout": {
        "scriptpubkey": "51201833c0c2961ec0101aef3699daf0b21b25eebd42e724316943ab01d99218f84b",
        "scriptpubkey_asm": "OP_PUSHNUM_1 OP_PUSHBYTES_32 1833c0c2961ec0101aef3699daf0b21b25eebd42e724316943ab01d99218f84b",
        "scriptpubkey_type": "v1_p2tr",
        "scriptpubkey_address": "bc1prqeups5krmqpqxh0x6va4u9jrvj7a02zuujrz62r4vqanysclp9swkrd9l",
        "value": 11622
      },
      "scriptsig": "",
      "scriptsig_asm": "",
      "witness": [
        "f528b661d41c656fa731a1e67323190e321e8923629b1df736d1b51ab030c551ee35235e088e7a7cbffac19b48496c43d627cccc4d086427f2b28f311a7f61b5",
        "20dfa7325ed77fab28d796d113dcead29a7490c58aaa244f71cf02d52f6b761081ac00630461746f6d03646d7440a16461726773a46474696d651a65dc4947656e6f6e63650068626974776f726b63693838383838382e31356b6d696e745f7469636b657268696e66696e69747968",
        "c1dfa7325ed77fab28d796d113dcead29a7490c58aaa244f71cf02d52f6b761081"
      ],
      "is_coinbase": false,
      "sequence": 0
    }
  ],
  "vout": [
    {
      "scriptpubkey": "5120dd864586f2f988781336f97de9f930cdfd64178d2183cd66ecc33179d1d7c1e2",
      "scriptpubkey_asm": "OP_PUSHNUM_1 OP_PUSHBYTES_32 dd864586f2f988781336f97de9f930cdfd64178d2183cd66ecc33179d1d7c1e2",
      "scriptpubkey_type": "v1_p2tr",
      "scriptpubkey_address": "bc1pmkrytphjlxy8syekl977n7fseh7kg9udyxpu6ehvcvchn5whc83q9vs0e3",
      "value": 9999
    }
  ],
  "size": 308,
  "weight": 590,
  "fee": 1623,
  "status": {
    "confirmed": true,
    "block_height": 834464,
    "block_hash": "0000000000000000000177a0869a911a2b65c9bdcd5a8bcb02b68f305bee848e",
    "block_time": 1710308296
  },
  "hex": "01000000000101d64fd4764f98e06a18cd0bcfa95293a60fb7f30ec41cab12b5f455f4fa888888000000000000000000010f27000000000000225120dd864586f2f988781336f97de9f930cdfd64178d2183cd66ecc33179d1d7c1e20340f528b661d41c656fa731a1e67323190e321e8923629b1df736d1b51ab030c551ee35235e088e7a7cbffac19b48496c43d627cccc4d086427f2b28f311a7f61b56f20dfa7325ed77fab28d796d113dcead29a7490c58aaa244f71cf02d52f6b761081ac00630461746f6d03646d7440a16461726773a46474696d651a65dc4947656e6f6e63650068626974776f726b63693838383838382e31356b6d696e745f7469636b657268696e66696e6974796821c1dfa7325ed77fab28d796d113dcead29a7490c58aaa244f71cf02d52f6b76108100000000"
}