{
  "txid": "39ba3110af35cf534115c7cf0454e6ee0f794dea2022729bb55ddce066808b97",
  "version": 2,
  "locktime": 0,
  "vin": [
    {
      "txid": "087f82b67e1dbf4dd5ba74cc6483275ba5843deede3c778594e852b266ccf3b2",
      "vout": 1,
      "prevout": {
        "scriptpubkey": "0014f60834ef165253c571b11ce9fa74e46692fc5ec1",
        "scriptpubkey_asm": "OP_0 OP_PUSHBYTES_20 f60834ef165253c571b11ce9fa74e46692fc5ec1",
        "scriptpubkey_type": "v0_p2wpkh",
        "scriptpubkey_address": "bc1q7cyrfmck2ffu2ud3rn5l5a8yv6f0chkp0zpemf",
        "value": 435385920
      },
      "scriptsig": "",
      "scriptsig_asm": "",
      "witness": [
        "3045022100fa88271f34381b5563f32bb63285ff9e1311f4a5021c8622e9df42765bdfac1202202383c31a586b81265b60836fcd092c8cd3b0c63287093aea7d8ab95ab06631d201",
        "026e5628506ecd33242e5ceb5fdafe4d3066b5c0f159b3c05a621ef65f177ea286"
      ],
      "is_coinbase": false,
      "sequence": 4294967293
    }
  ],
  "vout": [
    {
      "scriptpubkey": "00205a6a4a375ab3a64a6d56dc2dad4a70e8432f800fa9e9fc18d3303948167f0654",
      "scriptpubkey_asm": "OP_0 OP_PUSHBYTES_32 5a6a4a375ab3a64a6d56dc2dad4a70e8432f800fa9e9fc18d3303948167f0654",
      "scriptpubkey_type": "v0_p2wsh",
      "scriptpubkey_address": "bc1qtf4y5d66kwny5m2kmsk66jnsappjlqq0485lcxxnxqu5s9nlqe2q9d42x3",
      "value": 204020
    },
    {
      "scriptpubkey": "001465ed1cbb5ad21260aa99fcc9f6cdeb63e968c7c7",
      "scriptpubkey_asm": "OP_0 OP_PUSHBYTES_20 65ed1cbb5ad21260aa99fcc9f6cdeb63e968c7c7",
      "scriptpubkey_type": "v0_p2wpkh",
      "scriptpubkey_address": "bc1qvhk3ew666gfxp25elnyldn0tv05k3378ayr845",
      "value": 282215
    },
    {
      "scriptpubkey": "0014f60834ef165253c571b11ce9fa74e46692fc5ec1",
      "scriptpubkey_asm": "OP_0 OP_PUSHBYTES_20 f60834ef165253c571b11ce9fa74e46692fc5ec1",
      "scriptpubkey_type": "v0_p2wpkh",
      "scriptpubkey_address": "bc1q7cyrfmck2ffu2ud3rn5l5a8yv6f0chkp0zpemf",
      "value": 434893701
    }
  ],
  "size": 266,
  "weight": 734,
  "fee": 5984,
  "status": {
    "confirmed": true,
    "block_height": 834638,
    "block_hash": "000000000000000000025f742c626208ac87e0b7d15054abb4a19ca2d735a54e",
    "block_time": 1710405325
  },
  "hex": "02000000000101b2f3cc66b252e89485773cdeee3d84a55b278364cc74bad54dbf1d7eb6827f080100000000fdffffff03f41c0300000000002200205a6a4a375ab3a64a6d56dc2dad4a70e8432f800fa9e9fc18d3303948167f0654674e04000000000016001465ed1cbb5ad21260aa99fcc9f6cdeb63e968c7c785f3eb1900000000160014f60834ef165253c571b11ce9fa74e46692fc5ec102483045022100fa88271f34381b5563f32bb63285ff9e1311f4a5021c8622e9df42765bdfac1202202383c31a586b81265b60836fcd092c8cd3b0c63287093aea7d8ab95ab06631d20121026e5628506ecd33242e5ceb5fdafe4d3066b5c0f159b3c05a621ef65f177ea28600000000"
}