{
  "txid": "39cbb57ad363de140a7d1186480415dd9a3fb9c35d6888921be77cf58cd5c2e3",
  "version": 2,
  "locktime": 0,
  "vin": [
    {
      "txid": "246d654c08ac53d370d501753f3ac2c90861e2c8cea715ed4b7554841cced399",
      "vout": 93,
      "prevout": {
        "scriptpubkey": "51200770f4b7be56c7c1b8fc3af9e99f1bd8e1e00fdcb6fa5b3ac0862b56dffaaa0f",
        "scriptpubkey_asm": "OP_PUSHNUM_1 OP_PUSHBYTES_32 0770f4b7be56c7c1b8fc3af9e99f1bd8e1e00fdcb6fa5b3ac0862b56dffaaa0f",
        "scriptpubkey_type": "v1_p2tr",
        "scriptpubkey_address": "bc1pqac0fda72mrurw8u8tu7n8cmmrs7qr7ukma9kwkqsc44dhl64g8svcylzw",
        "value": 3055
      },
      "scriptsig": "",
      "scriptsig_asm": "",
      "witness": [
        "cec97d2e7b5e74cb091f38a8f0253ddec1d0e62c0924c9a08ea1aa35db260cc3d759bf19cd8e1671074250c77ca27bfd61e9765db13391a05143e5535af62dd5",
        "200a18cc5850cd286066767637aa02e35c5d92f8662e30555cd899787c6656eea9ac0063036f726401011e6170706c69636174696f6e2f6a736f6e3b636861727365743d7574662d38004cd37b2270223a22706f772d3230222c226f70223a226d696e74222c227469636b223a2250455045222c22616d74223a2231303030222c22736f6c7574696f6e223a22504550453a62633170756a666d33753333656e70786b38383339796c6b3239323239396b6e6467686c717468396e39647a6c7663647635617076366a717732776e71663a303030303030303030303030303030303030303139393431613561653132383937363539383134343239323533333030353762306461393666336465613163353a3536353730383038333135227d68",
        "c0f4929cb66946e40c5d3e5e2b126f88b9a6070d7490abd3aa8e42bf5bbcfe7b9f"
      ],
      "is_coinbase": false,
      "sequence": 4294967295
    }
  ],
  "vout": [
    {
      "scriptpubkey": "5120e493b8f231ccc26b1cf1293f65154a296d36a2ff02ee5995a2fb30d653a166a4",
      "scriptpubkey_asm": "OP_PUSHNUM_1 OP_PUSHBYTES_32 e493b8f231ccc26b1cf1293f65154a296d36a2ff02ee5995a2fb30d653a166a4",
      "scriptpubkey_type": "v1_p2tr",
      "scriptpubkey_address": "bc1pujfm3u33enpxk8839ylk292299kndghlqth9n9dzlvcdv5apv6jqw2wnqf",
      "value": 546
    }
  ],
  "size": 487,
  "weight": 769,
  "fee": 2509,
  "status": {
    "confirmed": true,
    "block_height": 834460,
    "block_hash": "00000000000000000000484a79b643b2524bbce82e5d8a442013fa5b8905ed98",
    "block_time": 1710307468
  },
  "hex": "0200000000010199d3ce1c8454754bed15a7cec8e26108c9c23a3f7501d570d353ac084c656d245d00000000ffffffff012202000000000000225120e493b8f231ccc26b1cf1293f65154a296d36a2ff02ee5995a2fb30d653a166a40340cec97d2e7b5e74cb091f38a8f0253ddec1d0e62c0924c9a08ea1aa35db260cc3d759bf19cd8e1671074250c77ca27bfd61e9765db13391a05143e5535af62dd5fd2001200a18cc5850cd286066767637aa02e35c5d92f8662e30555cd899787c6656eea9ac0063036f726401011e6170706c69636174696f6e2f6a736f6e3b636861727365743d7574662d38004cd37b2270223a22706f772d3230222c226f70223a226d696e74222c227469636b223a2250455045222c22616d74223a2231303030222c22736f6c7574696f6e223a22504550453a62633170756a666d33753333656e70786b38383339796c6b3239323239396b6e6467686c717468396e39647a6c7663647635617076366a717732776e71663a303030303030303030303030303030303030303139393431613561653132383937363539383134343239323533333030353762306461393666336465613163353a3536353730383038333135227d6821c0f4929cb66946e40c5d3e5e2b126f88b9a6070d7490abd3aa8e42bf5bbcfe7b9f00000000"
}