{
  "txid": "39cf67812ec7a1101581c280442e72e0d2fffc9d0192e45e24938f8941024d9d",
  "version": 1,
  "locktime": 0,
  "vin": [
    {
      "txid": "3d45cfcc8f8ea0126e1e84a4d84d3fb4ba4481c3fdaad535c797e059bf02d9ed",
      "vout": 1,
      "prevout": {
        "scriptpubkey": "00142d49cf8690778545e1214c0056145f04c9e33b97",
        "scriptpubkey_asm": "OP_0 OP_PUSHBYTES_20 2d49cf8690778545e1214c0056145f04c9e33b97",
        "scriptpubkey_type": "v0_p2wpkh",
        "scriptpubkey_address": "bc1q94yulp5sw7z5tcfpfsq9v9zlqny7xwuh95zry2",
        "value": 69515163
      },
      "scriptsig": "",
      "scriptsig_asm": "",
      "witness": [
        "3045022100a8a00cf2791d68d2d390ee48d4655aac59554a3c1ed0cfa0391a6feec20e4a9102204833bfacd26f6da514f1b769cfdfa96fd2e316f7b4536d9268cf35b69b79b25701",
        "0234e5ce67dc49769b6d477c533694bed19cbe5b377d7399a5816d8c19f5ddf110"
      ],
      "is_coinbase": false,
      "sequence": 4294967295
    }
  ],
  "vout": [
    {
      "scriptpubkey": "76a9147e9250b6e39a72ecf4508af1830de4d31bf9959d88ac",
      "scriptpubkey_asm": "OP_DUP OP_HASH160 OP_PUSHBYTES_20 7e9250b6e39a72ecf4508af1830de4d31bf9959d OP_EQUALVERIFY OP_CHECKSIG",
      "scriptpubkey_type": "p2pkh",
      "scriptpubkey_address": "1CYFRLSnvCMpBiDVvd4jrdhLVuDpf5aVjv",
      "value": 111800
    },
    {
      "scriptpubkey": "00142d49cf8690778545e1214c0056145f04c9e33b97",
      "scriptpubkey_asm": "OP_0 OP_PUSHBYTES_20 2d49cf8690778545e1214c0056145f04c9e33b97",
      "scriptpubkey_type": "v0_p2wpkh",
      "scriptpubkey_address": "bc1q94yulp5sw7z5tcfpfsq9v9zlqny7xwuh95zry2",
      "value": 69399795
    }
  ],
  "size": 226,
  "weight": 574,
  "fee": 3568,
  "status": {
    "confirmed": true,
    "block_height": 834638,
    "block_hash": "000000000000000000025f742c626208ac87e0b7d15054abb4a19ca2d735a54e",
    "block_time": 1710405325
  },
  "hex": "01000000000101edd902bf59e097c735d5aafdc38144bab43f4dd8a4841e6e12a08e8fcccf453d0100000000ffffffff02b8b40100000000001976a9147e9250b6e39a72ecf4508af1830de4d31bf9959d88acf3f42204000000001600142d49cf8690778545e1214c0056145f04c9e33b9702483045022100a8a00cf2791d68d2d390ee48d4655aac59554a3c1ed0cfa0391a6feec20e4a9102204833bfacd26f6da514f1b769cfdfa96fd2e316f7b4536d9268cf35b69b79b25701210234e5ce67dc49769b6d477c533694bed19cbe5b377d7399a5816d8c19f5ddf11000000000"
}