{
  "txid": "39dfedea1f573ed3d848a30afb525c41abddb167c4c2fc5e7723e0c67eb83b13",
  "version": 2,
  "locktime": 0,
  "vin": [
    {
      "txid": "626b2e841ea5dda2628befedee2e2fa5f4c4905a4be7b433f2e91952b6bcf685",
      "vout": 1,
      "prevout": {
        "scriptpubkey": "512061950f2a8e4f4c9a2805c8a0d0863939f0baaa3cf30f736d47f5bb09b8bd4b48",
        "scriptpubkey_asm": "OP_PUSHNUM_1 OP_PUSHBYTES_32 61950f2a8e4f4c9a2805c8a0d0863939f0baaa3cf30f736d47f5bb09b8bd4b48",
        "scriptpubkey_type": "v1_p2tr",
        "scriptpubkey_address": "bc1pvx2s725wfaxf52q9ezsdpp3e88ct423u7v8hxm287kasnw9afdyq37lecs",
        "value": 165470
      },
      "scriptsig": "",
      "scriptsig_asm": "",
      "witness": [
        "fde9467638aa5320f12c9f74ae63435bc14d3b736059dbf6f0a60c7c054e5bcc4fa808deeeaede6ed0345dc7238cb5b34b9c62cb86aa871fe893e077dd733193"
      ],
      "is_coinbase": false,
      "sequence": 4294967293
    }
  ],
  "vout": [
    {
      "scriptpubkey": "5120efd419c4dd2b5ea32e4fea20c41c7d75bc4c6cc389a7316c5a868574da3ab6e6",
      "scriptpubkey_asm": "OP_PUSHNUM_1 OP_PUSHBYTES_32 efd419c4dd2b5ea32e4fea20c41c7d75bc4c6cc389a7316c5a868574da3ab6e6",
      "scriptpubkey_type": "v1_p2tr",
      "scriptpubkey_address": "bc1pal2pn3xa9d02xtj0agsvg8rawk7ycmxr3xnnzmz6s6zhfk36kmnq6fuph4",
      "value": 2826
    },
    {
      "scriptpubkey": "512061950f2a8e4f4c9a2805c8a0d0863939f0baaa3cf30f736d47f5bb09b8bd4b48",
      "scriptpubkey_asm": "OP_PUSHNUM_1 OP_PUSHBYTES_32 61950f2a8e4f4c9a2805c8a0d0863939f0baaa3cf30f736d47f5bb09b8bd4b48",
      "scriptpubkey_type": "v1_p2tr",
      "scriptpubkey_address": "bc1pvx2s725wfaxf52q9ezsdpp3e88ct423u7v8hxm287kasnw9afdyq37lecs",
      "value": 160334
    }
  ],
  "size": 205,
  "weight": 616,
  "fee": 2310,
  "status": {
    "confirmed": true,
    "block_height": 834460,
    "block_hash": "00000000000000000000484a79b643b2524bbce82e5d8a442013fa5b8905ed98",
    "block_time": 1710307468
  },
  "hex": "0200000000010185f6bcb65219e9f233b4e74b5a90c4f4a52f2eeeedef8b62a2dda51e842e6b620100000000fdffffff020a0b000000000000225120efd419c4dd2b5ea32e4fea20c41c7d75bc4c6cc389a7316c5a868574da3ab6e64e7202000000000022512061950f2a8e4f4c9a2805c8a0d0863939f0baaa3cf30f736d47f5bb09b8bd4b480140fde9467638aa5320f12c9f74ae63435bc14d3b736059dbf6f0a60c7c054e5bcc4fa808deeeaede6ed0345dc7238cb5b34b9c62cb86aa871fe893e077dd73319300000000"
}