{
  "txid": "39e71569dae671a735a4599429b9cf086b8bf08996a9bc5d459aadb6d988193f",
  "version": 2,
  "locktime": 0,
  "vin": [
    {
      "txid": "5b4e7811b8c2f6e32e2fb0e76dd7d60cc0ff117539e4122fd40e41b8943d8186",
      "vout": 1,
      "prevout": {
        "scriptpubkey": "0014ab04431f360144c0d1cb49f43f68e12bcd6a48f3",
        "scriptpubkey_asm": "OP_0 OP_PUSHBYTES_20 ab04431f360144c0d1cb49f43f68e12bcd6a48f3",
        "scriptpubkey_type": "v0_p2wpkh",
        "scriptpubkey_address": "bc1q4vzyx8ekq9zvp5wtf86r768p90xk5j8nnclhhd",
        "value": 2891139
      },
      "scriptsig": "",
      "scriptsig_asm": "",
      "witness": [
        "3045022100ceb5d94236e852d34c2daac9c5e4e1024be0f3e6eeacae29d34a3883dfc583f502204999714c50d2174d3a7d9ce3e90ad7ba2cb5042ade06626a3cd710321721423001",
        "036769871d17efdf7b7fd3a5256a80509e132c5ebe46e69f86514ecc45bcc86ecf"
      ],
      "is_coinbase": false,
      "sequence": 0
    }
  ],
  "vout": [
    {
      "scriptpubkey": "a9144e3a772c707a99d9bd61904ebd057ae1a4aae66f87",
      "scriptpubkey_asm": "OP_HASH160 OP_PUSHBYTES_20 4e3a772c707a99d9bd61904ebd057ae1a4aae66f OP_EQUAL",
      "scriptpubkey_type": "p2sh",
      "scriptpubkey_address": "38pefmAJ4N3q2NXK63Y9n46Q3Bo6wKJ7Ba",
      "value": 100000
    },
    {
      "scriptpubkey": "0014b389706577460915f0fe578ff1f9ec56836e315d",
      "scriptpubkey_asm": "OP_0 OP_PUSHBYTES_20 b389706577460915f0fe578ff1f9ec56836e315d",
      "scriptpubkey_type": "v0_p2wpkh",
      "scriptpubkey_address": "bc1qkwyhqethgcy3tu87278lr70v26pkuv2ax7fg30",
      "value": 2788592
    }
  ],
  "size": 224,
  "weight": 566,
  "fee": 2547,
  "status": {
    "confirmed": true,
    "block_height": 834638,
    "block_hash": "000000000000000000025f742c626208ac87e0b7d15054abb4a19ca2d735a54e",
    "block_time": 1710405325
  },
  "hex": "0200000000010186813d94b8410ed42f12e4397511ffc00cd6d76de7b02f2ee3f6c2b811784e5b01000000000000000002a08601000000000017a9144e3a772c707a99d9bd61904ebd057ae1a4aae66f87f08c2a0000000000160014b389706577460915f0fe578ff1f9ec56836e315d02483045022100ceb5d94236e852d34c2daac9c5e4e1024be0f3e6eeacae29d34a3883dfc583f502204999714c50d2174d3a7d9ce3e90ad7ba2cb5042ade06626a3cd71032172142300121036769871d17efdf7b7fd3a5256a80509e132c5ebe46e69f86514ecc45bcc86ecf00000000"
}