{
  "txid": "39f135b39f4207cdcd0f3f1dee591bbecf4ce2ee1541e10a14665a030068668e",
  "version": 2,
  "locktime": 0,
  "vin": [
    {
      "txid": "a622b1eb1da7a476d65913c1824279ef317f000c3ae163b4492147ae48f9c9ee",
      "vout": 83,
      "prevout": {
        "scriptpubkey": "0014dc9a1095d0cb765516bc68184664ee1cff9e7a4e",
        "scriptpubkey_asm": "OP_0 OP_PUSHBYTES_20 dc9a1095d0cb765516bc68184664ee1cff9e7a4e",
        "scriptpubkey_type": "v0_p2wpkh",
        "scriptpubkey_address": "bc1qmjdpp9wsedm9294udqvyve8wrnleu7jw2tvws5",
        "value": 69267
      },
      "scriptsig": "",
      "scriptsig_asm": "",
      "witness": [
        "3045022100c02fe75fb1d03d4cd57b092be802fb52d9dff0877a1c9dcc051eaf6bc4924404022057c8486c9fc717ebbe0e3a6283c745fb69c8da0beeba1d88537f3445e61c41dc01",
        "024617eb25feb67a21c3a471cce4d7bbffdb69973c3280f1761b4c9cbc17cb7f09"
      ],
      "is_coinbase": false,
      "sequence": 4294967295
    },
    {
      "txid": "f029c7f479003638a743698b89d99a482d472828b971d268c762fb4fdc76cd78",
      "vout": 29,
      "prevout": {
        "scriptpubkey": "0014dc9a1095d0cb765516bc68184664ee1cff9e7a4e",
        "scriptpubkey_asm": "OP_0 OP_PUSHBYTES_20 dc9a1095d0cb765516bc68184664ee1cff9e7a4e",
        "scriptpubkey_type": "v0_p2wpkh",
        "scriptpubkey_address": "bc1qmjdpp9wsedm9294udqvyve8wrnleu7jw2tvws5",
        "value": 69284
      },
      "scriptsig": "",
      "scriptsig_asm": "",
      "witness": [
        "304402200e098fbf0147351d760484705e12ebe92e2b5d4e9285432a579b8d9962fc62d802203bca5fd6d2cbccf6efa550f76c938206af8985dd9f248df71d3160dfc064629a01",
        "024617eb25feb67a21c3a471cce4d7bbffdb69973c3280f1761b4c9cbc17cb7f09"
      ],
      "is_coinbase": false,
      "sequence": 4294967295
    }
  ],
  "vout": [
    {
      "scriptpubkey": "00145e1013edc7d1967f55e45ceb96f6361d6b271169",
      "scriptpubkey_asm": "OP_0 OP_PUSHBYTES_20 5e1013edc7d1967f55e45ceb96f6361d6b271169",
      "scriptpubkey_type": "v0_p2wpkh",
      "scriptpubkey_address": "bc1qtcgp8mw86xt8740ytn4eda3kr44jwytf8sekdx",
      "value": 135957
    }
  ],
  "size": 340,
  "weight": 709,
  "fee": 2594,
  "status": {
    "confirmed": true,
    "block_height": 834460,
    "block_hash": "00000000000000000000484a79b643b2524bbce82e5d8a442013fa5b8905ed98",
    "block_time": 1710307468
  },
  "hex": "02000000000102eec9f948ae472149b463e13a0c007f31ef794282c11359d676a4a71debb122a65300000000ffffffff78cd76dc4ffb62c768d271b92828472d489ad9898b6943a738360079f4c729f01d00000000ffffffff0115130200000000001600145e1013edc7d1967f55e45ceb96f6361d6b27116902483045022100c02fe75fb1d03d4cd57b092be802fb52d9dff0877a1c9dcc051eaf6bc4924404022057c8486c9fc717ebbe0e3a6283c745fb69c8da0beeba1d88537f3445e61c41dc0121024617eb25feb67a21c3a471cce4d7bbffdb69973c3280f1761b4c9cbc17cb7f090247304402200e098fbf0147351d760484705e12ebe92e2b5d4e9285432a579b8d9962fc62d802203bca5fd6d2cbccf6efa550f76c938206af8985dd9f248df71d3160dfc064629a0121024617eb25feb67a21c3a471cce4d7bbffdb69973c3280f1761b4c9cbc17cb7f0900000000"
}