{
  "txid": "39f1049316b05952f89dfe0ea3b895645487a99d8fed522b94390d08e904ffa4",
  "version": 1,
  "locktime": 0,
  "vin": [
    {
      "txid": "7d68da74c9eef8938d7e17d09965b73b3a097fd87d34862ffc0f60737d807286",
      "vout": 1,
      "prevout": {
        "scriptpubkey": "0014b59516bcee0848a98304ed71a22adab7db750815",
        "scriptpubkey_asm": "OP_0 OP_PUSHBYTES_20 b59516bcee0848a98304ed71a22adab7db750815",
        "scriptpubkey_type": "v0_p2wpkh",
        "scriptpubkey_address": "bc1qkk23d08wppy2nqcya4c6y2k6kldh2zq4z7juyn",
        "value": 1048858
      },
      "scriptsig": "",
      "scriptsig_asm": "",
      "witness": [
        "3045022100a98d5811740edad26759de19e028b4f945f851427d9aa852e5a4fea025917b57022036fac6a8ccc1d09aaf87cc41b31c5e1e206af16fe2c0b3de223c9712d221c78d01",
        "0230b713d4f2360585c3702bd30685ba687bdb05dffbd00297e6ea7534a26fa19e"
      ],
      "is_coinbase": false,
      "sequence": 4294967295
    }
  ],
  "vout": [
    {
      "scriptpubkey": "0014d38ca0e012b540f1319d0d1e1ae85f2bbdaaf22e",
      "scriptpubkey_asm": "OP_0 OP_PUSHBYTES_20 d38ca0e012b540f1319d0d1e1ae85f2bbdaaf22e",
      "scriptpubkey_type": "v0_p2wpkh",
      "scriptpubkey_address": "bc1q6wx2pcqjk4q0zvvap50p46zl9w764u3wjmu50c",
      "value": 204150
    },
    {
      "scriptpubkey": "001455618d8c2e6b242a313d2a08964114d086570e6f",
      "scriptpubkey_asm": "OP_0 OP_PUSHBYTES_20 55618d8c2e6b242a313d2a08964114d086570e6f",
      "scriptpubkey_type": "v0_p2wpkh",
      "scriptpubkey_address": "bc1q24scmrpwdvjz5vfa9gyfvsg56zr9wrn0z4zeuw",
      "value": 842611
    }
  ],
  "size": 223,
  "weight": 562,
  "fee": 2097,
  "status": {
    "confirmed": true,
    "block_height": 834638,
    "block_hash": "000000000000000000025f742c626208ac87e0b7d15054abb4a19ca2d735a54e",
    "block_time": 1710405325
  },
  "hex": "010000000001018672807d73600ffc2f86347dd87f093a3bb76599d0177e8d93f8eec974da687d0100000000ffffffff02761d030000000000160014d38ca0e012b540f1319d0d1e1ae85f2bbdaaf22e73db0c000000000016001455618d8c2e6b242a313d2a08964114d086570e6f02483045022100a98d5811740edad26759de19e028b4f945f851427d9aa852e5a4fea025917b57022036fac6a8ccc1d09aaf87cc41b31c5e1e206af16fe2c0b3de223c9712d221c78d01210230b713d4f2360585c3702bd30685ba687bdb05dffbd00297e6ea7534a26fa19e00000000"
}