{
  "txid": "39fb5473e9dd678b14535aae8bfe73858d8d3deae4a85f90409fd01e63184e09",
  "version": 1,
  "locktime": 0,
  "vin": [
    {
      "txid": "6dcd08752416d0ec392034d6a80ae0d35334729ae392a658b389790830e93f0f",
      "vout": 1,
      "prevout": {
        "scriptpubkey": "76a914870d4096ffc3cc4d1887a6edbe57282847a15db688ac",
        "scriptpubkey_asm": "OP_DUP OP_HASH160 OP_PUSHBYTES_20 870d4096ffc3cc4d1887a6edbe57282847a15db6 OP_EQUALVERIFY OP_CHECKSIG",
        "scriptpubkey_type": "p2pkh",
        "scriptpubkey_address": "1DK66gdjwbTFX6wTqc88jJMmh2SLqAhhU2",
        "value": 75325
      },
      "scriptsig": "47304402200c4e6b1bb74bd881c2e9dfa1c2a79d26f07507f7e309d1219c390b8b935e596902200eed639c555a6dd141c0d73840d8f725f6f612613bd7e3442c852ed239eddee501210269cddc9188912e0c8b0c781725d482859385ea053626e80e8be9f8e18f0f1751",
      "scriptsig_asm": "OP_PUSHBYTES_71 304402200c4e6b1bb74bd881c2e9dfa1c2a79d26f07507f7e309d1219c390b8b935e596902200eed639c555a6dd141c0d73840d8f725f6f612613bd7e3442c852ed239eddee501 OP_PUSHBYTES_33 0269cddc9188912e0c8b0c781725d482859385ea053626e80e8be9f8e18f0f1751",
      "is_coinbase": false,
      "sequence": 4294967295
    }
  ],
  "vout": [
    {
      "scriptpubkey": "76a9140fb3ecc1d38b98f5733ff46f6b38ed30f9adb68488ac",
      "scriptpubkey_asm": "OP_DUP OP_HASH160 OP_PUSHBYTES_20 0fb3ecc1d38b98f5733ff46f6b38ed30f9adb684 OP_EQUALVERIFY OP_CHECKSIG",
      "scriptpubkey_type": "p2pkh",
      "scriptpubkey_address": "12S2gGth3WYK8Ls4r9rgauFhCjh55N6NSt",
      "value": 68797
    }
  ],
  "size": 191,
  "weight": 764,
  "fee": 6528,
  "status": {
    "confirmed": true,
    "block_height": 834638,
    "block_hash": "000000000000000000025f742c626208ac87e0b7d15054abb4a19ca2d735a54e",
    "block_time": 1710405325
  },
  "hex": "01000000010f3fe930087989b358a692e39a723453d3e00aa8d6342039ecd016247508cd6d010000006a47304402200c4e6b1bb74bd881c2e9dfa1c2a79d26f07507f7e309d1219c390b8b935e596902200eed639c555a6dd141c0d73840d8f725f6f612613bd7e3442c852ed239eddee501210269cddc9188912e0c8b0c781725d482859385ea053626e80e8be9f8e18f0f1751ffffffff01bd0c0100000000001976a9140fb3ecc1d38b98f5733ff46f6b38ed30f9adb68488ac00000000"
}