{
  "txid": "3a104d3ade01ab3b7f3e29915c8e032354aa811d0476f4a16322aafcccea4e56",
  "version": 2,
  "locktime": 0,
  "vin": [
    {
      "txid": "426f08fbaaacdc4b13cb6f428c89487358ea4dac9ed7948a96cfaa3f67ad9d67",
      "vout": 33,
      "prevout": {
        "scriptpubkey": "51209ba2a737ae9c0bb749f2b469a242d1ce5b2684ef91a7ff9ae9443c0f8468ff41",
        "scriptpubkey_asm": "OP_PUSHNUM_1 OP_PUSHBYTES_32 9ba2a737ae9c0bb749f2b469a242d1ce5b2684ef91a7ff9ae9443c0f8468ff41",
        "scriptpubkey_type": "v1_p2tr",
        "scriptpubkey_address": "bc1pnw32wdawns9mwj0jk356ysk3eedjdp80jxnllxhfgs7qlprglaqs4zpzey",
        "value": 4599
      },
      "scriptsig": "",
      "scriptsig_asm": "",
      "witness": [
        "8f6958b5e78ec5500dc74cdc42588065e10c0d3f2ab956f892129bfc283cb55d975c5dc89bb1398b4237cd66ed0dc1ebd9b0a75d03d5040a5a5c7fa7af55a4a8",
        "20ab992073e440b4b78ef1dbf37b8cb67b88b3950ccc6b020bd4456e152096dc8fac0063036f726401011e6170706c69636174696f6e2f6a736f6e3b636861727365743d7574662d38004cd37b2270223a22706f772d3230222c226f70223a226d696e74222c227469636b223a2250455045222c22616d74223a2231303030222c22736f6c7574696f6e223a22504550453a62633170636a65387233733875656e746d64767a6e34777337786d3836367879707535756139357371796877756835616d61677565367a73707a733637713a303030303030303030303030303030303030303139393431613561653132383937363539383134343239323533333030353762306461393666336465613163353a3632363839343630393134227d68",
        "c0039ed2fd528e891a28907036b81ec900320c2b9f26f0b27e7e5cfd0fc9102a4d"
      ],
      "is_coinbase": false,
      "sequence": 4294967295
    }
  ],
  "vout": [
    {
      "scriptpubkey": "5120c4b271c607e666bdb5829d5d0f1b67d68c40f29ce9690012eee5e9ddf51cce85",
      "scriptpubkey_asm": "OP_PUSHNUM_1 OP_PUSHBYTES_32 c4b271c607e666bdb5829d5d0f1b67d68c40f29ce9690012eee5e9ddf51cce85",
      "scriptpubkey_type": "v1_p2tr",
      "scriptpubkey_address": "bc1pcje8r3s8uentmdvzn4ws7xm866xypu5ua95sqyhwuh5amague6zspzs67q",
      "value": 546
    }
  ],
  "size": 487,
  "weight": 769,
  "fee": 4053,
  "status": {
    "confirmed": true,
    "block_height": 834460,
    "block_hash": "00000000000000000000484a79b643b2524bbce82e5d8a442013fa5b8905ed98",
    "block_time": 1710307468
  },
  "hex": "02000000000101679dad673faacf968a94d79eac4dea587348898c426fcb134bdcacaafb086f422100000000ffffffff012202000000000000225120c4b271c607e666bdb5829d5d0f1b67d68c40f29ce9690012eee5e9ddf51cce8503408f6958b5e78ec5500dc74cdc42588065e10c0d3f2ab956f892129bfc283cb55d975c5dc89bb1398b4237cd66ed0dc1ebd9b0a75d03d5040a5a5c7fa7af55a4a8fd200120ab992073e440b4b78ef1dbf37b8cb67b88b3950ccc6b020bd4456e152096dc8fac0063036f726401011e6170706c69636174696f6e2f6a736f6e3b636861727365743d7574662d38004cd37b2270223a22706f772d3230222c226f70223a226d696e74222c227469636b223a2250455045222c22616d74223a2231303030222c22736f6c7574696f6e223a22504550453a62633170636a65387233733875656e746d64767a6e34777337786d3836367879707535756139357371796877756835616d61677565367a73707a733637713a303030303030303030303030303030303030303139393431613561653132383937363539383134343239323533333030353762306461393666336465613163353a3632363839343630393134227d6821c0039ed2fd528e891a28907036b81ec900320c2b9f26f0b27e7e5cfd0fc9102a4d00000000"
}