{
  "txid": "3a124998570182c6550c5a9947b89bc1aefc3c21eaeea91d227670cd27d8375b",
  "version": 2,
  "locktime": 0,
  "vin": [
    {
      "txid": "530f7730d4a6670ba2435635a04db586dbb1985ce86459086d96cb46be174a53",
      "vout": 0,
      "prevout": {
        "scriptpubkey": "51203e0af42539d9fe6fe1615690a416749ab7da5b440422c515e2932c1d1aa355d7",
        "scriptpubkey_asm": "OP_PUSHNUM_1 OP_PUSHBYTES_32 3e0af42539d9fe6fe1615690a416749ab7da5b440422c515e2932c1d1aa355d7",
        "scriptpubkey_type": "v1_p2tr",
        "scriptpubkey_address": "bc1p8c90gffem8lxlctp26g2g9n5n2ma5k6yqs3v290zjvkp6x4r2hts72mngs",
        "value": 5000
      },
      "scriptsig": "",
      "scriptsig_asm": "",
      "witness": [
        "533166eb412dc89d02dd07d87370cf4206f73e68ee374a3d76b71b5d9beba8540260d39af95e580394e47bcfc83c95027be8fcfa2c11be761a0a82ae6b2d969f",
        "2022634ac17e4436a6a2a8d4d4fde54da44fc22e73f5aa01bdcbde3062c39593b4ac0063036f7264010118746578742f706c61696e3b636861727365743d7574662d38003a7b2270223a226272632d3230222c226f70223a227472616e73666572222c227469636b223a224e4f4f54222c22616d74223a223130303030227d68",
        "c193b555d190da00ed697b26457ea459d75a5916fdfb5dd465e6ff6369573cf464"
      ],
      "is_coinbase": false,
      "sequence": 4294967293
    }
  ],
  "vout": [
    {
      "scriptpubkey": "51203afd8dbcc665606b881b87f2a0bc5c1ccfde64f8b05b713453b42ddb1cfd9930",
      "scriptpubkey_asm": "OP_PUSHNUM_1 OP_PUSHBYTES_32 3afd8dbcc665606b881b87f2a0bc5c1ccfde64f8b05b713453b42ddb1cfd9930",
      "scriptpubkey_type": "v1_p2tr",
      "scriptpubkey_address": "bc1p8t7cm0xxv4sxhzqmsle2p0zurn8aue8ckpdhzdznkskak88anycqm2gu5u",
      "value": 330
    },
    {
      "scriptpubkey": "00148d25d47ed098706648240448e7bdfbe1a0299adc",
      "scriptpubkey_asm": "OP_0 OP_PUSHBYTES_20 8d25d47ed098706648240448e7bdfbe1a0299adc",
      "scriptpubkey_type": "v0_p2wpkh",
      "scriptpubkey_address": "bc1q35jaglksnpcxvjpyq3yw000muxsznxkukaymat",
      "value": 1925
    }
  ],
  "size": 356,
  "weight": 731,
  "fee": 2745,
  "status": {
    "confirmed": true,
    "block_height": 834638,
    "block_hash": "000000000000000000025f742c626208ac87e0b7d15054abb4a19ca2d735a54e",
    "block_time": 1710405325
  },
  "hex": "02000000000101534a17be46cb966d085964e85c98b1db86b54da0355643a20b67a6d430770f530000000000fdffffff024a010000000000002251203afd8dbcc665606b881b87f2a0bc5c1ccfde64f8b05b713453b42ddb1cfd993085070000000000001600148d25d47ed098706648240448e7bdfbe1a0299adc0340533166eb412dc89d02dd07d87370cf4206f73e68ee374a3d76b71b5d9beba8540260d39af95e580394e47bcfc83c95027be8fcfa2c11be761a0a82ae6b2d969f802022634ac17e4436a6a2a8d4d4fde54da44fc22e73f5aa01bdcbde3062c39593b4ac0063036f7264010118746578742f706c61696e3b636861727365743d7574662d38003a7b2270223a226272632d3230222c226f70223a227472616e73666572222c227469636b223a224e4f4f54222c22616d74223a223130303030227d6821c193b555d190da00ed697b26457ea459d75a5916fdfb5dd465e6ff6369573cf46400000000"
}