{
  "txid": "3a1f94014461289c06602f0807c16c202660ea67599271b339bb10cc246f85bd",
  "version": 2,
  "locktime": 0,
  "vin": [
    {
      "txid": "0114ae28eae63a409f981d8531cf6127d179b7aedc3c007dc93c3786d86a2fbd",
      "vout": 0,
      "prevout": {
        "scriptpubkey": "001448a77ce49a8ee689f88fd3411b9560219f1f8806",
        "scriptpubkey_asm": "OP_0 OP_PUSHBYTES_20 48a77ce49a8ee689f88fd3411b9560219f1f8806",
        "scriptpubkey_type": "v0_p2wpkh",
        "scriptpubkey_address": "bc1qfznheey63mngn7y06dq3h9tqyx03lzqxmteswh",
        "value": 20826
      },
      "scriptsig": "",
      "scriptsig_asm": "",
      "witness": [
        "3045022100ae7c475d2a16a4a2aa47f5000bc0d1a0d1517f59a0b1718975ce4ca2289e624402207c892c590aca249ad5eae30a18fa33b296e7d02b093222c81d9d5ec63e869e2601",
        "029c419ea8b98690d8e1e2153e362cab66ab6461da10b343202f88280fcabcaccd"
      ],
      "is_coinbase": false,
      "sequence": 4294967295
    }
  ],
  "vout": [
    {
      "scriptpubkey": "0014161ee977b5df4c254fb63926a59c21d8997a1721",
      "scriptpubkey_asm": "OP_0 OP_PUSHBYTES_20 161ee977b5df4c254fb63926a59c21d8997a1721",
      "scriptpubkey_type": "v0_p2wpkh",
      "scriptpubkey_address": "bc1qzc0wjaa4maxz2nak8yn2t8ppmzvh59epp6333w",
      "value": 19594
    }
  ],
  "size": 192,
  "weight": 438,
  "fee": 1232,
  "status": {
    "confirmed": true,
    "block_height": 834460,
    "block_hash": "00000000000000000000484a79b643b2524bbce82e5d8a442013fa5b8905ed98",
    "block_time": 1710307468
  },
  "hex": "02000000000101bd2f6ad886373cc97d003cdcaeb779d12761cf31851d989f403ae6ea28ae14010000000000ffffffff018a4c000000000000160014161ee977b5df4c254fb63926a59c21d8997a172102483045022100ae7c475d2a16a4a2aa47f5000bc0d1a0d1517f59a0b1718975ce4ca2289e624402207c892c590aca249ad5eae30a18fa33b296e7d02b093222c81d9d5ec63e869e260121029c419ea8b98690d8e1e2153e362cab66ab6461da10b343202f88280fcabcaccd00000000"
}