{
  "txid": "3a495fdb1d66229ee0d2f7eacf9b889d116f6fe6bba4ffdaeee52fe8b845dffc",
  "version": 2,
  "locktime": 0,
  "vin": [
    {
      "txid": "284f8efc379a6ab3d58afea7f693aa845032b06248bbc4db4cb375deb921d9b1",
      "vout": 0,
      "prevout": {
        "scriptpubkey": "5120042d7e355eeebd65357aaff05bf9e947b9d2d5cf64653cfb94bcf7b05472cb0f",
        "scriptpubkey_asm": "OP_PUSHNUM_1 OP_PUSHBYTES_32 042d7e355eeebd65357aaff05bf9e947b9d2d5cf64653cfb94bcf7b05472cb0f",
        "scriptpubkey_type": "v1_p2tr",
        "scriptpubkey_address": "bc1pqskhud27a67k2dt64lc9h70fg7ua94w0v3jne7u5hnmmq4rjev8s8v0cu3",
        "value": 2978
      },
      "scriptsig": "",
      "scriptsig_asm": "",
      "witness": [
        "6ac880fabd0d699419ad13b4fc48112f4cd7aadd6531352fba5aaa5ce0c88266e581e8cb2fb6d9c45e660e2f063d574e2920fb8c42d73370724df5df9c4b81c0",
        "204a6ad0aac1431301397e75d44ad8b12e94950691c6b4213340454bacddc2e313ac0063036f7264010118746578742f706c61696e3b636861727365743d7574662d3800397b2270223a226272632d3230222c226f70223a227472616e73666572222c227469636b223a22736c6f72222c22616d74223a2231303030227d68",
        "c14a6ad0aac1431301397e75d44ad8b12e94950691c6b4213340454bacddc2e313"
      ],
      "is_coinbase": false,
      "sequence": 4294967293
    }
  ],
  "vout": [
    {
      "scriptpubkey": "5120bee8acb94035a84e653da8101b8fdd57840aed303aa2487380888edecd8b9309",
      "scriptpubkey_asm": "OP_PUSHNUM_1 OP_PUSHBYTES_32 bee8acb94035a84e653da8101b8fdd57840aed303aa2487380888edecd8b9309",
      "scriptpubkey_type": "v1_p2tr",
      "scriptpubkey_address": "bc1phm52ew2qxk5yuefa4qgphr7a27zq4mfs823ysuuq3z8danvtjvysumad6e",
      "value": 546
    }
  ],
  "size": 324,
  "weight": 606,
  "fee": 2432,
  "status": {
    "confirmed": true,
    "block_height": 834464,
    "block_hash": "0000000000000000000177a0869a911a2b65c9bdcd5a8bcb02b68f305bee848e",
    "block_time": 1710308296
  },
  "hex": "02000000000101b1d921b9de75b34cdbc4bb4862b0325084aa93f6a7fe8ad5b36a9a37fc8e4f280000000000fdffffff012202000000000000225120bee8acb94035a84e653da8101b8fdd57840aed303aa2487380888edecd8b930903406ac880fabd0d699419ad13b4fc48112f4cd7aadd6531352fba5aaa5ce0c88266e581e8cb2fb6d9c45e660e2f063d574e2920fb8c42d73370724df5df9c4b81c07f204a6ad0aac1431301397e75d44ad8b12e94950691c6b4213340454bacddc2e313ac0063036f7264010118746578742f706c61696e3b636861727365743d7574662d3800397b2270223a226272632d3230222c226f70223a227472616e73666572222c227469636b223a22736c6f72222c22616d74223a2231303030227d6821c14a6ad0aac1431301397e75d44ad8b12e94950691c6b4213340454bacddc2e31300000000"
}