{
  "txid": "3a584822f78a74c1a5267e20299adfa8de86caf85e5050e469868c4b11bf1301",
  "version": 1,
  "locktime": 0,
  "vin": [
    {
      "txid": "8888888ed63ef46748d878af7e1006aa1436cc753ea46809e2128b2b42984b9e",
      "vout": 0,
      "prevout": {
        "scriptpubkey": "5120e9d18ef122c66dbe47732871f39f8f1e8e2240d04993da3f03d5982ddce76b11",
        "scriptpubkey_asm": "OP_PUSHNUM_1 OP_PUSHBYTES_32 e9d18ef122c66dbe47732871f39f8f1e8e2240d04993da3f03d5982ddce76b11",
        "scriptpubkey_type": "v1_p2tr",
        "scriptpubkey_address": "bc1pa8gcaufzcekmu3mn9pcl88u0r68zysxsfxfa50cr6kvzmh88dvgskc634x",
        "value": 11487
      },
      "scriptsig": "",
      "scriptsig_asm": "",
      "witness": [
        "bad5e1beb98c0df1863c89e7a6f89c21eb9fb390675cfb8e1948e516d9ae4e878011841609ea6036962a1f841f8dbbbc9ecfc7a2401560d4ed9253c93a11ec4783",
        "20be11f1d0580232188e877ef283eb5a1efd4e9e5290a2633605d666f59ad3fff2ac00630461746f6d03646d7445a16461726773a468626974776f726b636a383838383838382e31326b6d696e745f7469636b657268696e66696e697479656e6f6e63651a006ca4476474696d651a65e63bee68",
        "c1be11f1d0580232188e877ef283eb5a1efd4e9e5290a2633605d666f59ad3fff2"
      ],
      "is_coinbase": false,
      "sequence": 4294967293
    }
  ],
  "vout": [
    {
      "scriptpubkey": "0014ddb95f82fd7c5c1d1c001667e198d0749f66aacd",
      "scriptpubkey_asm": "OP_0 OP_PUSHBYTES_20 ddb95f82fd7c5c1d1c001667e198d0749f66aacd",
      "scriptpubkey_type": "v0_p2wpkh",
      "scriptpubkey_address": "bc1qmku4lqha03wp68qqzen7rxxswj0kd2kdnra4x8",
      "value": 9999
    }
  ],
  "size": 302,
  "weight": 548,
  "fee": 1488,
  "status": {
    "confirmed": true,
    "block_height": 834464,
    "block_hash": "0000000000000000000177a0869a911a2b65c9bdcd5a8bcb02b68f305bee848e",
    "block_time": 1710308296
  },
  "hex": "010000000001019e4b98422b8b12e20968a43e75cc3614aa06107eaf78d84867f43ed68e8888880000000000fdffffff010f27000000000000160014ddb95f82fd7c5c1d1c001667e198d0749f66aacd0341bad5e1beb98c0df1863c89e7a6f89c21eb9fb390675cfb8e1948e516d9ae4e878011841609ea6036962a1f841f8dbbbc9ecfc7a2401560d4ed9253c93a11ec47837420be11f1d0580232188e877ef283eb5a1efd4e9e5290a2633605d666f59ad3fff2ac00630461746f6d03646d7445a16461726773a468626974776f726b636a383838383838382e31326b6d696e745f7469636b657268696e66696e697479656e6f6e63651a006ca4476474696d651a65e63bee6821c1be11f1d0580232188e877ef283eb5a1efd4e9e5290a2633605d666f59ad3fff200000000"
}