{
  "txid": "3a5a537ef02cf705f04b1487dd5ad6f7686d5c27a7ad8c90678cb413c27c5808",
  "version": 2,
  "locktime": 0,
  "vin": [
    {
      "txid": "a91c2b83e4af83ab43760402152603fa3049916cffeff44a14fb7b2815d24470",
      "vout": 1,
      "prevout": {
        "scriptpubkey": "001460214c44b244551d9236f51d4eb9d6f2cbe84bba",
        "scriptpubkey_asm": "OP_0 OP_PUSHBYTES_20 60214c44b244551d9236f51d4eb9d6f2cbe84bba",
        "scriptpubkey_type": "v0_p2wpkh",
        "scriptpubkey_address": "bc1qvqs5c39jg323my3k75w5awwk7t97sja6mlk35f",
        "value": 3286999
      },
      "scriptsig": "",
      "scriptsig_asm": "",
      "witness": [
        "304402206e27064727ce61bd74b4c6afb11a397d87b330f205ee9cff792f2897e9aef43d022045a80dc9af400e1353b568609b562d4fdecf9a48c70a39730d3088ee71e07c7f01",
        "0231b965b0fbc67a6c12f8dcac8a06cf86b1444a55ecace8a49964f4bc5f3e657b"
      ],
      "is_coinbase": false,
      "sequence": 4294967295
    }
  ],
  "vout": [
    {
      "scriptpubkey": "a914e8f906955e7a65d6c46c4a6fa75b0dda2a235d6787",
      "scriptpubkey_asm": "OP_HASH160 OP_PUSHBYTES_20 e8f906955e7a65d6c46c4a6fa75b0dda2a235d67 OP_EQUAL",
      "scriptpubkey_type": "p2sh",
      "scriptpubkey_address": "3Nvs1f9b6nTmR8TW88Dy43P1eioDi77CSk",
      "value": 373052
    },
    {
      "scriptpubkey": "0014167291eca2a9df2328856696b0a950dbd4df403b",
      "scriptpubkey_asm": "OP_0 OP_PUSHBYTES_20 167291eca2a9df2328856696b0a950dbd4df403b",
      "scriptpubkey_type": "v0_p2wpkh",
      "scriptpubkey_address": "bc1qzeefrm9z480jx2y9v6ttp22sm02d7spmdkhxvt",
      "value": 2911400
    }
  ],
  "size": 223,
  "weight": 565,
  "fee": 2547,
  "status": {
    "confirmed": true,
    "block_height": 834638,
    "block_hash": "000000000000000000025f742c626208ac87e0b7d15054abb4a19ca2d735a54e",
    "block_time": 1710405325
  },
  "hex": "020000000001017044d215287bfb144af4efff6c914930fa03261502047643ab83afe4832b1ca90100000000ffffffff023cb105000000000017a914e8f906955e7a65d6c46c4a6fa75b0dda2a235d6787a86c2c0000000000160014167291eca2a9df2328856696b0a950dbd4df403b0247304402206e27064727ce61bd74b4c6afb11a397d87b330f205ee9cff792f2897e9aef43d022045a80dc9af400e1353b568609b562d4fdecf9a48c70a39730d3088ee71e07c7f01210231b965b0fbc67a6c12f8dcac8a06cf86b1444a55ecace8a49964f4bc5f3e657b00000000"
}