{
  "txid": "3a797ef9edd746c481eab868f1fc1deb3583c9d2d910ce20b742420c97bd254e",
  "version": 2,
  "locktime": 0,
  "vin": [
    {
      "txid": "8486ecb4df0880316dd6e82b3971b4df187aff23765bc3a47f8d78bb53aa273c",
      "vout": 102,
      "prevout": {
        "scriptpubkey": "5120d48bf4431111be809965909be35486abe33033576e47208e36b8c63ca17d8a97",
        "scriptpubkey_asm": "OP_PUSHNUM_1 OP_PUSHBYTES_32 d48bf4431111be809965909be35486abe33033576e47208e36b8c63ca17d8a97",
        "scriptpubkey_type": "v1_p2tr",
        "scriptpubkey_address": "bc1p6j9lgsc3zxlgpxt9jzd7x4yx403nqv6hderjpr3khrrregta32tsztew2f",
        "value": 2575
      },
      "scriptsig": "",
      "scriptsig_asm": "",
      "witness": [
        "bf5b2b6506b5ad1d1a3a8da35731be38e42dc910810f4bbf23f09ae80226111eab13db32bfa2c4d6f354ba087922e6a396f3317e0fd2c72151c1b386db2ad7ee",
        "207da157762511f04f544edabdc9ca639d4f113f7cfb82203aaf9b730ba0af51daac0063036f726401010a746578742f706c61696e00367b2270223a226272632d3230222c226f70223a226d696e74222c227469636b223a2261616161222c22616d74223a223130303030227d68",
        "c17da157762511f04f544edabdc9ca639d4f113f7cfb82203aaf9b730ba0af51da"
      ],
      "is_coinbase": false,
      "sequence": 4261412863
    }
  ],
  "vout": [
    {
      "scriptpubkey": "0014ddd7ef12ea6f78edcc1e8e7afa12c01ab59f3339",
      "scriptpubkey_asm": "OP_0 OP_PUSHBYTES_20 ddd7ef12ea6f78edcc1e8e7afa12c01ab59f3339",
      "scriptpubkey_type": "v0_p2wpkh",
      "scriptpubkey_address": "bc1qmht77yh2dauwmnq73ea05ykqr26e7veea8spz6",
      "value": 546
    }
  ],
  "size": 295,
  "weight": 541,
  "fee": 2029,
  "status": {
    "confirmed": true,
    "block_height": 834460,
    "block_hash": "00000000000000000000484a79b643b2524bbce82e5d8a442013fa5b8905ed98",
    "block_time": 1710307468
  },
  "hex": "020000000001013c27aa53bb788d7fa4c35b7623ff7a18dfb471392be8d66d318008dfb4ec86846600000000fffffffd012202000000000000160014ddd7ef12ea6f78edcc1e8e7afa12c01ab59f33390340bf5b2b6506b5ad1d1a3a8da35731be38e42dc910810f4bbf23f09ae80226111eab13db32bfa2c4d6f354ba087922e6a396f3317e0fd2c72151c1b386db2ad7ee6e207da157762511f04f544edabdc9ca639d4f113f7cfb82203aaf9b730ba0af51daac0063036f726401010a746578742f706c61696e00367b2270223a226272632d3230222c226f70223a226d696e74222c227469636b223a2261616161222c22616d74223a223130303030227d6821c17da157762511f04f544edabdc9ca639d4f113f7cfb82203aaf9b730ba0af51da00000000"
}