{
  "txid": "3a8106f7e4d9a3d49a07a8263766db69393f8041e380c584fae19aae653b3e5c",
  "version": 2,
  "locktime": 0,
  "vin": [
    {
      "txid": "95d2e293b6376143ce927776387935dd88244610e8588ad524d8e60d41bd7334",
      "vout": 1,
      "prevout": {
        "scriptpubkey": "5120904a09e22f60fbda58244c2bc462a2ffcab915058891b12945df8b757eb63410",
        "scriptpubkey_asm": "OP_PUSHNUM_1 OP_PUSHBYTES_32 904a09e22f60fbda58244c2bc462a2ffcab915058891b12945df8b757eb63410",
        "scriptpubkey_type": "v1_p2tr",
        "scriptpubkey_address": "bc1pjp9qnc30vraa5kpyfs4ugc4zll9tj9g93zgmz229m79h2l4kxsgqpp36qp",
        "value": 52754
      },
      "scriptsig": "",
      "scriptsig_asm": "",
      "witness": [
        "bf3d5e9feb07c565cf741f7cb62cfa7b7955fe7d41cd49e4f3ff817b503adb2e060c383ebc551669cedf9ca857f5b6dfd7b6a6b50599e7a1d92f6ba5e5fa96ec"
      ],
      "is_coinbase": false,
      "sequence": 4294967293
    }
  ],
  "vout": [
    {
      "scriptpubkey": "5120c1aeac3f0c73de8d31d2714b248037ad9e5e1ee892368cbee27a1bee8d25aa77",
      "scriptpubkey_asm": "OP_PUSHNUM_1 OP_PUSHBYTES_32 c1aeac3f0c73de8d31d2714b248037ad9e5e1ee892368cbee27a1bee8d25aa77",
      "scriptpubkey_type": "v1_p2tr",
      "scriptpubkey_address": "bc1pcxh2c0cvw00g6vwjw99jfqph4k09u8hgjgmge0hz0gd7arf94fmsyum938",
      "value": 2826
    },
    {
      "scriptpubkey": "5120904a09e22f60fbda58244c2bc462a2ffcab915058891b12945df8b757eb63410",
      "scriptpubkey_asm": "OP_PUSHNUM_1 OP_PUSHBYTES_32 904a09e22f60fbda58244c2bc462a2ffcab915058891b12945df8b757eb63410",
      "scriptpubkey_type": "v1_p2tr",
      "scriptpubkey_address": "bc1pjp9qnc30vraa5kpyfs4ugc4zll9tj9g93zgmz229m79h2l4kxsgqpp36qp",
      "value": 47618
    }
  ],
  "size": 205,
  "weight": 616,
  "fee": 2310,
  "status": {
    "confirmed": true,
    "block_height": 834638,
    "block_hash": "000000000000000000025f742c626208ac87e0b7d15054abb4a19ca2d735a54e",
    "block_time": 1710405325
  },
  "hex": "020000000001013473bd410de6d824d58a58e810462488dd357938767792ce436137b693e2d2950100000000fdffffff020a0b000000000000225120c1aeac3f0c73de8d31d2714b248037ad9e5e1ee892368cbee27a1bee8d25aa7702ba000000000000225120904a09e22f60fbda58244c2bc462a2ffcab915058891b12945df8b757eb634100140bf3d5e9feb07c565cf741f7cb62cfa7b7955fe7d41cd49e4f3ff817b503adb2e060c383ebc551669cedf9ca857f5b6dfd7b6a6b50599e7a1d92f6ba5e5fa96ec00000000"
}