{
  "txid": "3a9a0495bff6e5011e19da484a234cd4fdf65ae8a1edeb676b18ffcbefe4acb9",
  "version": 2,
  "locktime": 0,
  "vin": [
    {
      "txid": "4df56dde76a6a6e5a4782497b729bbb5851fbd524d90c738b20cf5a833a59804",
      "vout": 0,
      "prevout": {
        "scriptpubkey": "0014f0e61689e89501a29f5d35de88ec098518d2d97c",
        "scriptpubkey_asm": "OP_0 OP_PUSHBYTES_20 f0e61689e89501a29f5d35de88ec098518d2d97c",
        "scriptpubkey_type": "v0_p2wpkh",
        "scriptpubkey_address": "bc1q7rnpdz0gj5q6986axh0g3mqfs5vd9ktu8kevnk",
        "value": 237104
      },
      "scriptsig": "",
      "scriptsig_asm": "",
      "witness": [
        "304402202e4248f7c4490a9159a0f4322603f5c853f15223f0c1a9f2fa4e1fb5d8b4554302207312ec46e6e24d4f5d319816f5f43a77ee62021f44dbee87b14bb6da5f0f795c01",
        "02e2307d9fe9e8e01e52f21b9fea5e5a0b6a13e63df0061435b71311512405ca2c"
      ],
      "is_coinbase": false,
      "sequence": 4294967295
    }
  ],
  "vout": [
    {
      "scriptpubkey": "76a91423bfd6d9b2e086c01ea17daf589f58798ae4e62688ac",
      "scriptpubkey_asm": "OP_DUP OP_HASH160 OP_PUSHBYTES_20 23bfd6d9b2e086c01ea17daf589f58798ae4e626 OP_EQUALVERIFY OP_CHECKSIG",
      "scriptpubkey_type": "p2pkh",
      "scriptpubkey_address": "14G2TwVQfbbPjqoe4H3cxGjW9TFBB2uZjn",
      "value": 60000
    },
    {
      "scriptpubkey": "0014f0e61689e89501a29f5d35de88ec098518d2d97c",
      "scriptpubkey_asm": "OP_0 OP_PUSHBYTES_20 f0e61689e89501a29f5d35de88ec098518d2d97c",
      "scriptpubkey_type": "v0_p2wpkh",
      "scriptpubkey_address": "bc1q7rnpdz0gj5q6986axh0g3mqfs5vd9ktu8kevnk",
      "value": 174694
    }
  ],
  "size": 225,
  "weight": 573,
  "fee": 2410,
  "status": {
    "confirmed": true,
    "block_height": 834638,
    "block_hash": "000000000000000000025f742c626208ac87e0b7d15054abb4a19ca2d735a54e",
    "block_time": 1710405325
  },
  "hex": "020000000001010498a533a8f50cb238c7904d52bd1f85b5bb29b7972478a4e5a6a676de6df54d0000000000ffffffff0260ea0000000000001976a91423bfd6d9b2e086c01ea17daf589f58798ae4e62688ac66aa020000000000160014f0e61689e89501a29f5d35de88ec098518d2d97c0247304402202e4248f7c4490a9159a0f4322603f5c853f15223f0c1a9f2fa4e1fb5d8b4554302207312ec46e6e24d4f5d319816f5f43a77ee62021f44dbee87b14bb6da5f0f795c012102e2307d9fe9e8e01e52f21b9fea5e5a0b6a13e63df0061435b71311512405ca2c00000000"
}