{
  "txid": "3aa22deb849e0e2c9ebaf0ce145628b863735436504851bb058b85d616f21d8d",
  "version": 2,
  "locktime": 0,
  "vin": [
    {
      "txid": "398bc401b698f3bb20f98f22ebcee0f30a5e617feb3883f408fbc2f9399fde44",
      "vout": 0,
      "prevout": {
        "scriptpubkey": "001440a3cf6dd32a558e30a18ec8bafa7788e86cfee7",
        "scriptpubkey_asm": "OP_0 OP_PUSHBYTES_20 40a3cf6dd32a558e30a18ec8bafa7788e86cfee7",
        "scriptpubkey_type": "v0_p2wpkh",
        "scriptpubkey_address": "bc1qgz3u7mwn9f2cuv9p3myt47nh3r5xelh88vrl7v",
        "value": 1333669
      },
      "scriptsig": "",
      "scriptsig_asm": "",
      "witness": [
        "3045022100b2921be49adac8ef3ed7da19d8abc5c29abd1fb1db12bb551acc2e5d3ef7baca0220405df8d18a9eaa4801568bac1cb308a89223807d8607e4fe4d568acb5da86fd001",
        "03354ca4498fcbe193bff66accdcc34bb6407a4958f972602c7d2a81cdd6687d40"
      ],
      "is_coinbase": false,
      "sequence": 4294967293
    },
    {
      "txid": "a361102e400be63fafcedcc5456d3438c26cc417bb911b207dd863c477cea143",
      "vout": 0,
      "prevout": {
        "scriptpubkey": "001440a3cf6dd32a558e30a18ec8bafa7788e86cfee7",
        "scriptpubkey_asm": "OP_0 OP_PUSHBYTES_20 40a3cf6dd32a558e30a18ec8bafa7788e86cfee7",
        "scriptpubkey_type": "v0_p2wpkh",
        "scriptpubkey_address": "bc1qgz3u7mwn9f2cuv9p3myt47nh3r5xelh88vrl7v",
        "value": 397237
      },
      "scriptsig": "",
      "scriptsig_asm": "",
      "witness": [
        "3045022100c013e1dde79fe540da80012294621b3459c9c2a059eea9a15288ffe7532110fd022074437b5741121cf7dadb1b213b67e58cf65b623e8c179c496c70f6d00244113801",
        "03354ca4498fcbe193bff66accdcc34bb6407a4958f972602c7d2a81cdd6687d40"
      ],
      "is_coinbase": false,
      "sequence": 4294967293
    }
  ],
  "vout": [
    {
      "scriptpubkey": "76a914929418f5ccd5adda12fda72a0d45da9402ffe69388ac",
      "scriptpubkey_asm": "OP_DUP OP_HASH160 OP_PUSHBYTES_20 929418f5ccd5adda12fda72a0d45da9402ffe693 OP_EQUALVERIFY OP_CHECKSIG",
      "scriptpubkey_type": "p2pkh",
      "scriptpubkey_address": "1EN3517fEVetRTi6GGT2EjC5EcokcrNTPj",
      "value": 1399156
    },
    {
      "scriptpubkey": "001440a3cf6dd32a558e30a18ec8bafa7788e86cfee7",
      "scriptpubkey_asm": "OP_0 OP_PUSHBYTES_20 40a3cf6dd32a558e30a18ec8bafa7788e86cfee7",
      "scriptpubkey_type": "v0_p2wpkh",
      "scriptpubkey_address": "bc1qgz3u7mwn9f2cuv9p3myt47nh3r5xelh88vrl7v",
      "value": 328733
    }
  ],
  "size": 375,
  "weight": 846,
  "fee": 3017,
  "status": {
    "confirmed": true,
    "block_height": 834460,
    "block_hash": "00000000000000000000484a79b643b2524bbce82e5d8a442013fa5b8905ed98",
    "block_time": 1710307468
  },
  "hex": "0200000000010244de9f39f9c2fb08f48338eb7f615e0af3e0ceeb228ff920bbf398b601c48b390000000000fdffffff43a1ce77c463d87d201b91bb17c46cc238346d45c5dcceaf3fe60b402e1061a30000000000fdffffff0274591500000000001976a914929418f5ccd5adda12fda72a0d45da9402ffe69388ac1d0405000000000016001440a3cf6dd32a558e30a18ec8bafa7788e86cfee702483045022100b2921be49adac8ef3ed7da19d8abc5c29abd1fb1db12bb551acc2e5d3ef7baca0220405df8d18a9eaa4801568bac1cb308a89223807d8607e4fe4d568acb5da86fd0012103354ca4498fcbe193bff66accdcc34bb6407a4958f972602c7d2a81cdd6687d4002483045022100c013e1dde79fe540da80012294621b3459c9c2a059eea9a15288ffe7532110fd022074437b5741121cf7dadb1b213b67e58cf65b623e8c179c496c70f6d002441138012103354ca4498fcbe193bff66accdcc34bb6407a4958f972602c7d2a81cdd6687d4000000000"
}