{
  "txid": "3ab437c68d324d95c9c22337dc54e44c35f7076ce3bce2b7878cd339a60aa94f",
  "version": 2,
  "locktime": 834637,
  "vin": [
    {
      "txid": "42b7511e313cdd893200a92d9a49a91a41321705737a6f0c2ec69e945244890c",
      "vout": 0,
      "prevout": {
        "scriptpubkey": "00144cb8b94433a4dd755f4cff1a906f368f7b28966a",
        "scriptpubkey_asm": "OP_0 OP_PUSHBYTES_20 4cb8b94433a4dd755f4cff1a906f368f7b28966a",
        "scriptpubkey_type": "v0_p2wpkh",
        "scriptpubkey_address": "bc1qfjutj3pn5nwh2h6vludfqmek3aaj39n2gzad8s",
        "value": 211036007
      },
      "scriptsig": "",
      "scriptsig_asm": "",
      "witness": [
        "304402206eecf055aef18a2a68a92ac23ceb6ff5d9d098537443d15d151090bd35a43dd702203e77ba1570eee4fa31fc5bae1e2d5b12c492180127eeb5318f8adb25a273059001",
        "027157208f1cdff7f22f933733385d1d10e5237bb34f44372ffb7f07df8ce9a227"
      ],
      "is_coinbase": false,
      "sequence": 4294967293
    },
    {
      "txid": "cd43abe5a1b203d4521087c5f24267ec48a37abc224352c5df9144628b83b36e",
      "vout": 0,
      "prevout": {
        "scriptpubkey": "001436a595b440d30546e35db23e85d82abf4eee4ea4",
        "scriptpubkey_asm": "OP_0 OP_PUSHBYTES_20 36a595b440d30546e35db23e85d82abf4eee4ea4",
        "scriptpubkey_type": "v0_p2wpkh",
        "scriptpubkey_address": "bc1qx6jetdzq6vz5dc6akglgtkp2ha8wun4y9r79ry",
        "value": 99968870
      },
      "scriptsig": "",
      "scriptsig_asm": "",
      "witness": [
        "30440220605b42165ee3b0d2cb4c64e938762c6e2e7dbcf33c492da4aa03ca723f59b849022003a986484b4c6aa545d8c29316cbf1c48bbd822c7356aba7ffc518c62ca7ced001",
        "0215e3ea7e307d8f0fc94fa4964ed6b50767daf3243a514e358555d047ac08dcd9"
      ],
      "is_coinbase": false,
      "sequence": 4294967293
    }
  ],
  "vout": [
    {
      "scriptpubkey": "00143a5be40a59844478b03e5453dd5a523e3c098f65",
      "scriptpubkey_asm": "OP_0 OP_PUSHBYTES_20 3a5be40a59844478b03e5453dd5a523e3c098f65",
      "scriptpubkey_type": "v0_p2wpkh",
      "scriptpubkey_address": "bc1q8fd7gzjes3z83vp723fa6kjj8c7qnrm94mcusr",
      "value": 311002047
    }
  ],
  "size": 339,
  "weight": 708,
  "fee": 2830,
  "status": {
    "confirmed": true,
    "block_height": 834638,
    "block_hash": "000000000000000000025f742c626208ac87e0b7d15054abb4a19ca2d735a54e",
    "block_time": 1710405325
  },
  "hex": "020000000001020c894452949ec62e0c6f7a73051732411aa9499a2da9003289dd3c311e51b7420000000000fdffffff6eb3838b624491dfc5524322bc7aa348ec6742f2c5871052d403b2a1e5ab43cd0000000000fdffffff01bf838912000000001600143a5be40a59844478b03e5453dd5a523e3c098f650247304402206eecf055aef18a2a68a92ac23ceb6ff5d9d098537443d15d151090bd35a43dd702203e77ba1570eee4fa31fc5bae1e2d5b12c492180127eeb5318f8adb25a27305900121027157208f1cdff7f22f933733385d1d10e5237bb34f44372ffb7f07df8ce9a227024730440220605b42165ee3b0d2cb4c64e938762c6e2e7dbcf33c492da4aa03ca723f59b849022003a986484b4c6aa545d8c29316cbf1c48bbd822c7356aba7ffc518c62ca7ced001210215e3ea7e307d8f0fc94fa4964ed6b50767daf3243a514e358555d047ac08dcd94dbc0c00"
}