{
  "txid": "3abb182d9732a3e46c5786ad8ebe9a744f32787c8b2cfdc1158e017b245aded3",
  "version": 1,
  "locktime": 0,
  "vin": [
    {
      "txid": "f8ee5c97764138b6ec92ebe2fdbb4193a808f4aee9887ebad07c18933c159439",
      "vout": 1,
      "prevout": {
        "scriptpubkey": "00149e222c7a62887070ae53f81f6417469ea8c251c7",
        "scriptpubkey_asm": "OP_0 OP_PUSHBYTES_20 9e222c7a62887070ae53f81f6417469ea8c251c7",
        "scriptpubkey_type": "v0_p2wpkh",
        "scriptpubkey_address": "bc1qnc3zc7nz3pc8ptjnlq0kg96xn65vy5w8v5n4hq",
        "value": 1088023
      },
      "scriptsig": "",
      "scriptsig_asm": "",
      "witness": [
        "30440220284abf875ccfc512a7980b6979a64179fcaa9fb200a18efe468bab0e373f729f022060276097d8fb933a034d8beb35b2fc6d03afcef5867f56389121cabf5148ce1901",
        "0202be2e5328f86fd61221aca2017d63b422bb9b38c4e0931167b8ba44d9294fbf"
      ],
      "is_coinbase": false,
      "sequence": 4294967293
    }
  ],
  "vout": [
    {
      "scriptpubkey": "a9140f57f2613c9f24c74e490fdbc119785dd12bed0487",
      "scriptpubkey_asm": "OP_HASH160 OP_PUSHBYTES_20 0f57f2613c9f24c74e490fdbc119785dd12bed04 OP_EQUAL",
      "scriptpubkey_type": "p2sh",
      "scriptpubkey_address": "3369R57acpQ7RjNWN3rMcx7Lkt8XGJ5H5Z",
      "value": 138537
    },
    {
      "scriptpubkey": "00141141af1bf3a563aefe65703aa6d7589f8885ed79",
      "scriptpubkey_asm": "OP_0 OP_PUSHBYTES_20 1141af1bf3a563aefe65703aa6d7589f8885ed79",
      "scriptpubkey_type": "v0_p2wpkh",
      "scriptpubkey_address": "bc1qz9q67xln5436aln9wqa2d46cn7ygtmte7udxaa",
      "value": 947640
    }
  ],
  "size": 223,
  "weight": 565,
  "fee": 1846,
  "status": {
    "confirmed": true,
    "block_height": 834460,
    "block_hash": "00000000000000000000484a79b643b2524bbce82e5d8a442013fa5b8905ed98",
    "block_time": 1710307468
  },
  "hex": "010000000001013994153c93187cd0ba7e88e9aef408a89341bbfde2eb92ecb6384176975ceef80100000000fdffffff02291d02000000000017a9140f57f2613c9f24c74e490fdbc119785dd12bed0487b8750e00000000001600141141af1bf3a563aefe65703aa6d7589f8885ed79024730440220284abf875ccfc512a7980b6979a64179fcaa9fb200a18efe468bab0e373f729f022060276097d8fb933a034d8beb35b2fc6d03afcef5867f56389121cabf5148ce1901210202be2e5328f86fd61221aca2017d63b422bb9b38c4e0931167b8ba44d9294fbf00000000"
}