{
  "txid": "3ac1100e7fd86cd4a642eb98501e46ec849fe33f6ad48d2e9e4f87ea66d99d0d",
  "version": 1,
  "locktime": 0,
  "vin": [
    {
      "txid": "893e4a13cb12e73fd2f83de13a4289151922538fdc845db6e3a0da5b9ced2aa8",
      "vout": 0,
      "prevout": {
        "scriptpubkey": "512072e29abda7fbb06f8daf53bdbdc60081c2a2742f0955a77419eb5daa1dd21aba",
        "scriptpubkey_asm": "OP_PUSHNUM_1 OP_PUSHBYTES_32 72e29abda7fbb06f8daf53bdbdc60081c2a2742f0955a77419eb5daa1dd21aba",
        "scriptpubkey_type": "v1_p2tr",
        "scriptpubkey_address": "bc1pwt3f40d8lwcxlrd02w7mm3sqs8p2yap0p926waqeadw658wjr2aqmsanjl",
        "value": 2346
      },
      "scriptsig": "",
      "scriptsig_asm": "",
      "witness": [
        "ad2046541e2f8538ed1f586b86ede7d8d36f389103f42751e557c75796d05776ee560de7dda179ab46fe76b3d41119909c48481b8e34df8f6081ff9a02902c93",
        "20f596a8e7acdda53e52ce2863d69f16ae767b86b27f94452342a0ab6716061bbcac0063036f726401010a746578742f706c61696e003e7b2270223a226272632d3230222c226f70223a227472616e73666572222c227469636b223a2253415453222c22616d74223a22313030303030303030227d68",
        "c1f596a8e7acdda53e52ce2863d69f16ae767b86b27f94452342a0ab6716061bbc"
      ],
      "is_coinbase": false,
      "sequence": 4294967293
    }
  ],
  "vout": [
    {
      "scriptpubkey": "51202527112d08bfd1257aaa8dfc356a3248b81d8ac9c06bfcaff3a31570a7fc8e3f",
      "scriptpubkey_asm": "OP_PUSHNUM_1 OP_PUSHBYTES_32 2527112d08bfd1257aaa8dfc356a3248b81d8ac9c06bfcaff3a31570a7fc8e3f",
      "scriptpubkey_type": "v1_p2tr",
      "scriptpubkey_address": "bc1py5n3ztgghlgj27423h7r263jfzupmzkfcp4letln5v2hpflu3cls3vcqhv",
      "value": 546
    }
  ],
  "size": 315,
  "weight": 597,
  "fee": 1800,
  "status": {
    "confirmed": true,
    "block_height": 834460,
    "block_hash": "00000000000000000000484a79b643b2524bbce82e5d8a442013fa5b8905ed98",
    "block_time": 1710307468
  },
  "hex": "01000000000101a82aed9c5bdaa0e3b65d84dc8f5322191589423ae13df8d23fe712cb134a3e890000000000fdffffff0122020000000000002251202527112d08bfd1257aaa8dfc356a3248b81d8ac9c06bfcaff3a31570a7fc8e3f0340ad2046541e2f8538ed1f586b86ede7d8d36f389103f42751e557c75796d05776ee560de7dda179ab46fe76b3d41119909c48481b8e34df8f6081ff9a02902c937620f596a8e7acdda53e52ce2863d69f16ae767b86b27f94452342a0ab6716061bbcac0063036f726401010a746578742f706c61696e003e7b2270223a226272632d3230222c226f70223a227472616e73666572222c227469636b223a2253415453222c22616d74223a22313030303030303030227d6821c1f596a8e7acdda53e52ce2863d69f16ae767b86b27f94452342a0ab6716061bbc00000000"
}