{
  "txid": "3ad8cb7c4841585e4ef960dff97ea68c083e627adb30a12fe3e945b910c68097",
  "version": 2,
  "locktime": 0,
  "vin": [
    {
      "txid": "8486ecb4df0880316dd6e82b3971b4df187aff23765bc3a47f8d78bb53aa273c",
      "vout": 27,
      "prevout": {
        "scriptpubkey": "5120a2fec4552821b8d9c18fcc2734741a3200163c8f6513e9d2f87cfd9825709932",
        "scriptpubkey_asm": "OP_PUSHNUM_1 OP_PUSHBYTES_32 a2fec4552821b8d9c18fcc2734741a3200163c8f6513e9d2f87cfd9825709932",
        "scriptpubkey_type": "v1_p2tr",
        "scriptpubkey_address": "bc1p5tlvg4fgyxudnsv0esnngaq6xgqpv0y0v5f7n5hc0n7esftsnyeqrktz7c",
        "value": 2575
      },
      "scriptsig": "",
      "scriptsig_asm": "",
      "witness": [
        "f8fadf840f989e2a36b850c29d4bd4b867485c4ec2f48ef899f433b8a283940a6856545b9b43d245d3a23e6325f8fc37003ee3cc3b9b45fb24056b1f2156d12c",
        "20846d835aca19bea8d5192a7fd28e60b72970822c8ae27cce9aeb5a0652e28d60ac0063036f726401010a746578742f706c61696e00367b2270223a226272632d3230222c226f70223a226d696e74222c227469636b223a2261616161222c22616d74223a223130303030227d68",
        "c0846d835aca19bea8d5192a7fd28e60b72970822c8ae27cce9aeb5a0652e28d60"
      ],
      "is_coinbase": false,
      "sequence": 4261412863
    }
  ],
  "vout": [
    {
      "scriptpubkey": "0014ddd7ef12ea6f78edcc1e8e7afa12c01ab59f3339",
      "scriptpubkey_asm": "OP_0 OP_PUSHBYTES_20 ddd7ef12ea6f78edcc1e8e7afa12c01ab59f3339",
      "scriptpubkey_type": "v0_p2wpkh",
      "scriptpubkey_address": "bc1qmht77yh2dauwmnq73ea05ykqr26e7veea8spz6",
      "value": 546
    }
  ],
  "size": 295,
  "weight": 541,
  "fee": 2029,
  "status": {
    "confirmed": true,
    "block_height": 834460,
    "block_hash": "00000000000000000000484a79b643b2524bbce82e5d8a442013fa5b8905ed98",
    "block_time": 1710307468
  },
  "hex": "020000000001013c27aa53bb788d7fa4c35b7623ff7a18dfb471392be8d66d318008dfb4ec86841b00000000fffffffd012202000000000000160014ddd7ef12ea6f78edcc1e8e7afa12c01ab59f33390340f8fadf840f989e2a36b850c29d4bd4b867485c4ec2f48ef899f433b8a283940a6856545b9b43d245d3a23e6325f8fc37003ee3cc3b9b45fb24056b1f2156d12c6e20846d835aca19bea8d5192a7fd28e60b72970822c8ae27cce9aeb5a0652e28d60ac0063036f726401010a746578742f706c61696e00367b2270223a226272632d3230222c226f70223a226d696e74222c227469636b223a2261616161222c22616d74223a223130303030227d6821c0846d835aca19bea8d5192a7fd28e60b72970822c8ae27cce9aeb5a0652e28d6000000000"
}