{
  "txid": "3adb97c9c9ec4c8acf7d9c0991716c7eb25437b9cafbfb5b57feecb400ed7c23",
  "version": 2,
  "locktime": 0,
  "vin": [
    {
      "txid": "5f846d283984d01eb9829d816f88218abd33effc15a08222518615da3e5f47c5",
      "vout": 20,
      "prevout": {
        "scriptpubkey": "5120a1f0e3d1de23cca7110f0ead12673717f02fbf3dd8f3ddd9eb14cbda55e03e4f",
        "scriptpubkey_asm": "OP_PUSHNUM_1 OP_PUSHBYTES_32 a1f0e3d1de23cca7110f0ead12673717f02fbf3dd8f3ddd9eb14cbda55e03e4f",
        "scriptpubkey_type": "v1_p2tr",
        "scriptpubkey_address": "bc1p58cw85w7y0x2wyg0p6k3yeehzlczl0eamreamk0tzn9a540q8e8s7n2xwj",
        "value": 2862
      },
      "scriptsig": "",
      "scriptsig_asm": "",
      "witness": [
        "bb5c3cdd2cc10a8dc343cf40260987f5c25f7fab780bc71940efe59580a1e66a40a305300faeb82fdb1fc16efc5b837d9e24130422f6d4e61c10a5283d2c250a",
        "20376dac7839031e592e9b405d881291bfcb2d18eff02e20dd6c1bbf69ccd2f37cac0063036f726401011e6170706c69636174696f6e2f6a736f6e3b636861727365743d7574662d38004cd37b2270223a22706f772d3230222c226f70223a226d696e74222c227469636b223a2250455045222c22616d74223a2231303030222c22736f6c7574696f6e223a22504550453a626331706d6c3973653572666b6c3076393075786c7972667871717a366c34797364637172647371683735656c727133396676647164777139777276736e3a303030303030303030303030303030303030303139393431613561653132383937363539383134343239323533333030353762306461393666336465613163353a3530323430363532313532227d68",
        "c13beca27a4fc825f712a8ee0e92a93b2e9ce7496e1e1c5bfb1b103e51f3be77b5"
      ],
      "is_coinbase": false,
      "sequence": 4294967295
    }
  ],
  "vout": [
    {
      "scriptpubkey": "5120dfcb0cd069b7dec2bf86f906930002d7ea4837001b600bfa99f8c112a58d035c",
      "scriptpubkey_asm": "OP_PUSHNUM_1 OP_PUSHBYTES_32 dfcb0cd069b7dec2bf86f906930002d7ea4837001b600bfa99f8c112a58d035c",
      "scriptpubkey_type": "v1_p2tr",
      "scriptpubkey_address": "bc1pml9se5rfkl0v90uxlyrfxqqz6l4ysdcqrdsqh75elrq39fvdqdwq9wrvsn",
      "value": 546
    }
  ],
  "size": 487,
  "weight": 769,
  "fee": 2316,
  "status": {
    "confirmed": true,
    "block_height": 834460,
    "block_hash": "00000000000000000000484a79b643b2524bbce82e5d8a442013fa5b8905ed98",
    "block_time": 1710307468
  },
  "hex": "02000000000101c5475f3eda1586512282a015fcef33bd8a21886f819d82b91ed08439286d845f1400000000ffffffff012202000000000000225120dfcb0cd069b7dec2bf86f906930002d7ea4837001b600bfa99f8c112a58d035c0340bb5c3cdd2cc10a8dc343cf40260987f5c25f7fab780bc71940efe59580a1e66a40a305300faeb82fdb1fc16efc5b837d9e24130422f6d4e61c10a5283d2c250afd200120376dac7839031e592e9b405d881291bfcb2d18eff02e20dd6c1bbf69ccd2f37cac0063036f726401011e6170706c69636174696f6e2f6a736f6e3b636861727365743d7574662d38004cd37b2270223a22706f772d3230222c226f70223a226d696e74222c227469636b223a2250455045222c22616d74223a2231303030222c22736f6c7574696f6e223a22504550453a626331706d6c3973653572666b6c3076393075786c7972667871717a366c34797364637172647371683735656c727133396676647164777139777276736e3a303030303030303030303030303030303030303139393431613561653132383937363539383134343239323533333030353762306461393666336465613163353a3530323430363532313532227d6821c13beca27a4fc825f712a8ee0e92a93b2e9ce7496e1e1c5bfb1b103e51f3be77b500000000"
}