{
  "txid": "3aed4d5c352758c9ee43fda617923c7a06a3c9a23936505d88325727c4ead7ef",
  "version": 2,
  "locktime": 0,
  "vin": [
    {
      "txid": "15411142454af65de1ad1d7e18d5a2344846c2420d1e121bacf63484ee17214e",
      "vout": 0,
      "prevout": {
        "scriptpubkey": "0014e9bfae0b54e0ececf8629c3e95517fdb268dc7ec",
        "scriptpubkey_asm": "OP_0 OP_PUSHBYTES_20 e9bfae0b54e0ececf8629c3e95517fdb268dc7ec",
        "scriptpubkey_type": "v0_p2wpkh",
        "scriptpubkey_address": "bc1qaxl6uz65urkwe7rznslf25tlmvngm3lvd74q7g",
        "value": 18492
      },
      "scriptsig": "",
      "scriptsig_asm": "",
      "witness": [
        "3045022100dc58ab13ce753632f5f709f1c1265e0b33a84e4d6ec00b1ad0f5260f6a1e9e8c022077d82dfd26c7b360c62340860a6554c0ff83a2d12561ad4c30b7e713a9182d2001",
        "03c88854008fe01acf2f57a021d145ba38e9fbedd81fc29c18789c4619ec6e6299"
      ],
      "is_coinbase": false,
      "sequence": 4294967295
    }
  ],
  "vout": [
    {
      "scriptpubkey": "a9149afd860c8eaf7211d7b650dc263b41ecbbbce4f887",
      "scriptpubkey_asm": "OP_HASH160 OP_PUSHBYTES_20 9afd860c8eaf7211d7b650dc263b41ecbbbce4f8 OP_EQUAL",
      "scriptpubkey_type": "p2sh",
      "scriptpubkey_address": "3FpXhDVZTP6CurdT7td2fiZ7BwosrAuxDt",
      "value": 13599
    }
  ],
  "size": 193,
  "weight": 442,
  "fee": 4893,
  "status": {
    "confirmed": true,
    "block_height": 834638,
    "block_hash": "000000000000000000025f742c626208ac87e0b7d15054abb4a19ca2d735a54e",
    "block_time": 1710405325
  },
  "hex": "020000000001014e2117ee8434f6ac1b121e0d42c2464834a2d5187e1dade15df64a45421141150000000000ffffffff011f3500000000000017a9149afd860c8eaf7211d7b650dc263b41ecbbbce4f88702483045022100dc58ab13ce753632f5f709f1c1265e0b33a84e4d6ec00b1ad0f5260f6a1e9e8c022077d82dfd26c7b360c62340860a6554c0ff83a2d12561ad4c30b7e713a9182d20012103c88854008fe01acf2f57a021d145ba38e9fbedd81fc29c18789c4619ec6e629900000000"
}