{
  "txid": "3af0cc815d6a69806927762b3d2126b87e498673074f11d4b0d2a30d6a97ee96",
  "version": 1,
  "locktime": 0,
  "vin": [
    {
      "txid": "382aa7964232065a16a1ff3eea542afb405730a23043e32b7402f08e01bb4c8d",
      "vout": 1,
      "prevout": {
        "scriptpubkey": "76a914b71033cd28544750656ec246fd491c511ad7394388ac",
        "scriptpubkey_asm": "OP_DUP OP_HASH160 OP_PUSHBYTES_20 b71033cd28544750656ec246fd491c511ad73943 OP_EQUALVERIFY OP_CHECKSIG",
        "scriptpubkey_type": "p2pkh",
        "scriptpubkey_address": "1Hgx4s7FECTTxkDxyfi2iEDArDPWK48rUZ",
        "value": 11582
      },
      "scriptsig": "473044022021c364058535ffbcabf792d7837d544704ddd75341dd1d46acbd2203fe97c81f02200ae33d1483803a4a1dfbb833012f6ce354dd89f2db0c35203dde686406c5f95f0121037bb7f59431ecd1741e61da1c85c9f0970d160934e07959a2e9ba39b14fb277d4",
      "scriptsig_asm": "OP_PUSHBYTES_71 3044022021c364058535ffbcabf792d7837d544704ddd75341dd1d46acbd2203fe97c81f02200ae33d1483803a4a1dfbb833012f6ce354dd89f2db0c35203dde686406c5f95f01 OP_PUSHBYTES_33 037bb7f59431ecd1741e61da1c85c9f0970d160934e07959a2e9ba39b14fb277d4",
      "is_coinbase": false,
      "sequence": 4294967295
    },
    {
      "txid": "68f4fc4be95241613526f0318a377be7030dec6556952bdfc983dccc1513d844",
      "vout": 1,
      "prevout": {
        "scriptpubkey": "76a9149e88dd72e34fefe72e022e161757723bc1b94fba88ac",
        "scriptpubkey_asm": "OP_DUP OP_HASH160 OP_PUSHBYTES_20 9e88dd72e34fefe72e022e161757723bc1b94fba OP_EQUALVERIFY OP_CHECKSIG",
        "scriptpubkey_type": "p2pkh",
        "scriptpubkey_address": "1FTFiro1G93BoPMSfxUJT6b3bvPWVBDoz7",
        "value": 16520
      },
      "scriptsig": "483045022100dffbaf6140fda6007cb896b6b06771108ffe5b7bb00a2437f8bef6c297361027022039192989f970b4befb091cee34598441e4d31ada82f8f35a6d89cc46960d7d5101210296a9e9d10364427aa85d868204dc8e36eeba80873baccd35fa6801ad70bf5d6e",
      "scriptsig_asm": "OP_PUSHBYTES_72 3045022100dffbaf6140fda6007cb896b6b06771108ffe5b7bb00a2437f8bef6c297361027022039192989f970b4befb091cee34598441e4d31ada82f8f35a6d89cc46960d7d5101 OP_PUSHBYTES_33 0296a9e9d10364427aa85d868204dc8e36eeba80873baccd35fa6801ad70bf5d6e",
      "is_coinbase": false,
      "sequence": 4294967295
    },
    {
      "txid": "d9e9374a7a1ae7dc93c0476bdf4e898deb2c3d5e8d34486afe34a1fecb7cd478",
      "vout": 1,
      "prevout": {
        "scriptpubkey": "76a91453c6e1721ef8fe70f10bbd2dab922137587800e288ac",
        "scriptpubkey_asm": "OP_DUP OP_HASH160 OP_PUSHBYTES_20 53c6e1721ef8fe70f10bbd2dab922137587800e2 OP_EQUALVERIFY OP_CHECKSIG",
        "scriptpubkey_type": "p2pkh",
        "scriptpubkey_address": "18dyLPiFnVAHAFemMzA8TkVCsmBqeqAYF7",
        "value": 31032
      },
      "scriptsig": "473044022071b18c9a4ed60a14dcb987e90ec8a82d9b3d20235a21296e57c5108e144871e502204ae2920a09903d0f174ec3396d335f64f6b0381a2c44f61f45c679c579343ab3012103d3029698e1368f4e84c709e6bbf6c9c4a9adc1ca0f50b1f32ae6f98edc18ac7b",
      "scriptsig_asm": "OP_PUSHBYTES_71 3044022071b18c9a4ed60a14dcb987e90ec8a82d9b3d20235a21296e57c5108e144871e502204ae2920a09903d0f174ec3396d335f64f6b0381a2c44f61f45c679c579343ab301 OP_PUSHBYTES_33 03d3029698e1368f4e84c709e6bbf6c9c4a9adc1ca0f50b1f32ae6f98edc18ac7b",
      "is_coinbase": false,
      "sequence": 4294967295
    }
  ],
  "vout": [
    {
      "scriptpubkey": "001458f14591e0ad71dba1bd3cae3cf4da3feb6c4449",
      "scriptpubkey_asm": "OP_0 OP_PUSHBYTES_20 58f14591e0ad71dba1bd3cae3cf4da3feb6c4449",
      "scriptpubkey_type": "v0_p2wpkh",
      "scriptpubkey_address": "bc1qtrc5ty0q44cahgda8jhreax68l4kc3zf4v5txs",
      "value": 53934
    }
  ],
  "size": 483,
  "weight": 1932,
  "fee": 5200,
  "status": {
    "confirmed": true,
    "block_height": 834464,
    "block_hash": "0000000000000000000177a0869a911a2b65c9bdcd5a8bcb02b68f305bee848e",
    "block_time": 1710308296
  },
  "hex": "01000000038d4cbb018ef002742be34330a2305740fb2a54ea3effa1165a06324296a72a38010000006a473044022021c364058535ffbcabf792d7837d544704ddd75341dd1d46acbd2203fe97c81f02200ae33d1483803a4a1dfbb833012f6ce354dd89f2db0c35203dde686406c5f95f0121037bb7f59431ecd1741e61da1c85c9f0970d160934e07959a2e9ba39b14fb277d4ffffffff44d81315ccdc83c9df2b955665ec0d03e77b378a31f02635614152e94bfcf468010000006b483045022100dffbaf6140fda6007cb896b6b06771108ffe5b7bb00a2437f8bef6c297361027022039192989f970b4befb091cee34598441e4d31ada82f8f35a6d89cc46960d7d5101210296a9e9d10364427aa85d868204dc8e36eeba80873baccd35fa6801ad70bf5d6effffffff78d47ccbfea134fe6a48348d5e3d2ceb8d894edf6b47c093dce71a7a4a37e9d9010000006a473044022071b18c9a4ed60a14dcb987e90ec8a82d9b3d20235a21296e57c5108e144871e502204ae2920a09903d0f174ec3396d335f64f6b0381a2c44f61f45c679c579343ab3012103d3029698e1368f4e84c709e6bbf6c9c4a9adc1ca0f50b1f32ae6f98edc18ac7bffffffff01aed200000000000016001458f14591e0ad71dba1bd3cae3cf4da3feb6c444900000000"
}