{
  "txid": "3af4e655bbaabcbdff639791935101eb7c6ed0ce3e0141d09896d01ac9a440ed",
  "version": 2,
  "locktime": 0,
  "vin": [
    {
      "txid": "5c3864e3e852ec96346d84fbc3195b536ef1db1891f28d4b48dba69c282b1a0d",
      "vout": 2,
      "prevout": {
        "scriptpubkey": "5120185a9febb0bfc896953bb159368485d05b8b60c8db7f6ada37b15dc587e0b940",
        "scriptpubkey_asm": "OP_PUSHNUM_1 OP_PUSHBYTES_32 185a9febb0bfc896953bb159368485d05b8b60c8db7f6ada37b15dc587e0b940",
        "scriptpubkey_type": "v1_p2tr",
        "scriptpubkey_address": "bc1prpdfl6ashlyfd9fmk9vndpy96pdckcxgmdlk4k3hk9wutplqh9qq9e034t",
        "value": 3055
      },
      "scriptsig": "",
      "scriptsig_asm": "",
      "witness": [
        "fd86de198fb80eedc113dfe242c811db99fdd786e12fdcd2c6eb0dc0bb9e2b875527487e4fecb38730abf2df827d7eca69c98c53e5861d275d820099140fdf78",
        "2036bb8b9baa0da1bd2f2483ff2b6d20b32c1fea263838c465501235630df7ed2eac0063036f726401011e6170706c69636174696f6e2f6a736f6e3b636861727365743d7574662d38004cd37b2270223a22706f772d3230222c226f70223a226d696e74222c227469636b223a2250455045222c22616d74223a2231303030222c22736f6c7574696f6e223a22504550453a626331703237796d68736b396a36716e706b7367767973363471356663717670646465716a6832716a796c6330793861667138663261727375637776796b3a303030303030303030303030303030303030303139393431613561653132383937363539383134343239323533333030353762306461393666336465613163353a3531373330343034373534227d68",
        "c029e6ca6c8c5ab61eaab81da0d3884f0ac7596b050aac6663ac46dee308a1dbc8"
      ],
      "is_coinbase": false,
      "sequence": 4294967295
    }
  ],
  "vout": [
    {
      "scriptpubkey": "51205789bbc2c5968130da086121aa8289c01816b72095d40913f8790fd480e95747",
      "scriptpubkey_asm": "OP_PUSHNUM_1 OP_PUSHBYTES_32 5789bbc2c5968130da086121aa8289c01816b72095d40913f8790fd480e95747",
      "scriptpubkey_type": "v1_p2tr",
      "scriptpubkey_address": "bc1p27ymhsk9j6qnpksgvys64q5fcqvpddeqjh2qjylc0y8afq8f2arsucwvyk",
      "value": 546
    }
  ],
  "size": 487,
  "weight": 769,
  "fee": 2509,
  "status": {
    "confirmed": true,
    "block_height": 834460,
    "block_hash": "00000000000000000000484a79b643b2524bbce82e5d8a442013fa5b8905ed98",
    "block_time": 1710307468
  },
  "hex": "020000000001010d1a2b289ca6db484b8df29118dbf16e535b19c3fb846d3496ec52e8e364385c0200000000ffffffff0122020000000000002251205789bbc2c5968130da086121aa8289c01816b72095d40913f8790fd480e957470340fd86de198fb80eedc113dfe242c811db99fdd786e12fdcd2c6eb0dc0bb9e2b875527487e4fecb38730abf2df827d7eca69c98c53e5861d275d820099140fdf78fd20012036bb8b9baa0da1bd2f2483ff2b6d20b32c1fea263838c465501235630df7ed2eac0063036f726401011e6170706c69636174696f6e2f6a736f6e3b636861727365743d7574662d38004cd37b2270223a22706f772d3230222c226f70223a226d696e74222c227469636b223a2250455045222c22616d74223a2231303030222c22736f6c7574696f6e223a22504550453a626331703237796d68736b396a36716e706b7367767973363471356663717670646465716a6832716a796c6330793861667138663261727375637776796b3a303030303030303030303030303030303030303139393431613561653132383937363539383134343239323533333030353762306461393666336465613163353a3531373330343034373534227d6821c029e6ca6c8c5ab61eaab81da0d3884f0ac7596b050aac6663ac46dee308a1dbc800000000"
}