{
  "txid": "3af7826badec8313fdfbde8db845f94197a117b63c61bc083db1889cf512d375",
  "version": 2,
  "locktime": 0,
  "vin": [
    {
      "txid": "e4aa5b45e78f64dfcce10684d8ffc9192a358f1369b3c1edbfc6b2858e4d04f5",
      "vout": 0,
      "prevout": {
        "scriptpubkey": "5120460dc3788b8638be4e4cffe273f1e076e9d5e19c48deb78240e930bf7596c194",
        "scriptpubkey_asm": "OP_PUSHNUM_1 OP_PUSHBYTES_32 460dc3788b8638be4e4cffe273f1e076e9d5e19c48deb78240e930bf7596c194",
        "scriptpubkey_type": "v1_p2tr",
        "scriptpubkey_address": "bc1pgcxux7ytscutunjvll388u0qwm5atcvufr0t0qjqayct7avkcx2q4vl45l",
        "value": 18285
      },
      "scriptsig": "",
      "scriptsig_asm": "",
      "witness": [
        "81378d7e98d2c31dab57670f7ad7d27d15ef9744c38adba3ecdedd38a2fc876917d99c83b2e4fa21ef95f144bdea6d4208678920e6b126bae225fb3223a4ee0e",
        "207489ffc48f2e7df77abf6c487d6bcef21bcf17e4491526d0e6e1a6e55a6ab1c5ac0063036f7264010109696d6167652f706e67004d080289504e470d0a1a0a0000000d494844520000025800000258080300000089b868ee00000057504c54457e391000491a682a02722d040a010100141f1748702b5c845b869739af660035064e4f4f4286bd550206b208609700467700260149b6c875ad7e30623c6e96662fc043a4742a3c0f1a834267442d486b736b3a516968626303a441000000097048597300000b1300000b1301009a9c1800000f8c49444154789ceddd0153db581245610204ee0e301326da6508feffbf732b09b6652c322672abfbb6ce679265a6a616513ad5ef5996e14240808b88ff5380b01082b01082b01082b01082b01082b01082b01082b01082b01082b01082b01082b01082b01082b01082b01082b01082b01082b01082b01082b01082b01082b01082b01082b01082b01082b01082b01082b01082b01082b01082b01082b01082b01082b01082b01082b01082b01082b09018d6e7982f8eb587f52dfc38d00c4b21421016421016421016427885753f53f6f1af0861210461210461210461210461210461210461210461210461210461210461210461210461210461210461210461210461210461210461210461615d61cd7ddf04efb0c85536ace17eb81fdefc753f10968bb261dddf0ff78ff73f3f5e3f0bc98af784ad2dacef196da7d4f0e3e391b07c940debfb94da56f5f89a56ccc8cafe4e7b2a1bd6eb8cdaf615b61012d6bac21ade2c834c2c33952f4d080237fc58017f14f5b85f1099581eca86b54feafb9efdf59f580a6d940d6bdbd2eb8af8638fc5e6dd47ddb0f6c36afbfc90cb0d46ca86b51b57db51c595772b65c3da3f178cbede90fd9df65436ac9f29bd3e13fc5955505bd9df694f65c3ba3f98578197b1086b5d618db657e3d77508cb44d9b0762fe7ec3f616219a91bd6c1c4da8f2e96420f75c3dabd90b3bbf0c0752c2375c31a5dc4fa79a994db669c940d6b7b6f5ff4dd583c2b5c5958bb98b6836b7bdf1f6159281bd6f885e7ed75f7d7970e7ffb8389b59cb261ed5e77dee6b5bbd1e1773fde2b2bfb3beda96a58e398462f168e2f6b7df813c25a50f9cb0ddb170b27e6d7073f797c27adecefb4a7ba611dbe5478b416beeee53ff409612da76c58a3c1b4bff77d9fc9f87f3ff009134b6b0f6b7b096b1fd7eee3a0975d7dfff609612daa6e58af036b3faef68fd1967e7f6dfee093fdbb2fdedc25c11e4b6b0f6b7f6df4ed52b82f6afb7c71f462e27646bd4eb683678784b59cca618daf87bee6f1fad96e573e7ac56794d77652fd4c69bfe527ace5940d6bb4e01da4b27db7cee8459e378bde68e11b95f6fe7d82d9df694f65c37ab3f08d774fa3b9b4bf767a7847e0f8873e8ca6166169ed618dd7bfdd70daede18faf92ee9f27ee17c7d17ff5abfb9ab3bfd59eeaff7cacfdb236fa096cfb5dfbe8f2c3e8aec0c3ababfb3b06096b2975c31acdabf196fc20b53717d8c76fc6dfdd4d08021af1af3ffa21fb3beda96c586fee1f1d5d6b7fdd891f2d780757530f7eb8d668874f586b0febe0459bf160dab7f266b37e784d6bbc8ceefe43c25a4cd9b076378e1eeed3f7b98cef2c7dbb264e2c9cefff5091ecefb4a7b2618d6e20dd5e363fb8183a7ab27870bbd6e85f8e36faecb1965637ac837ba90e2f2d8cff1a6d9dc6f7891e7efeab0bef4cacb661dd9cee76da7bfffed870f4286990bb1e61b5237b8455d220778455d22077845592ec11564983dc11564983dc115649b24758250d724758250d72475825c91e619534c81d619534c81d6195247b8455d220778455d22077845592ec11564983dc11564983dc115649b2b76c58c3f06de2c1adc94798581f73fb8186567dcffb304946969d588435076111560c196162f9186484b08cc80861f9186484b08cc80861f9186484b08cc80861f9186484b08cc80861f9186484b08cc80861f9186484b08cc80861f9186484b08cc80861f9186484b08cc80861f9186484b08cc80861f91864242cace1fbaf17f9f6e60f6fa6984546c2c29addd0aadffe358989455831648489e5639091b0b04256c2752f85b732c2c4f231c80861199111c2f231c8087b2c2332c2c4f231c80861199111c2f231c8087b2c2332c2c4f231c80861199111c2f231c8087b2c2332c2c4f231c80861199111c2f23138fd5201f658e654146199535184654e45119639154558e654146199535184654e4511964d080239154558e654146199535184654e45119639154558e654146199535184654e45119639154558e654146199535184654e45119639154558e654146199535184e54e3511963bd54458ee541361b9534d84e54e3511963bd54458ee541361b9534d84e54e3511963bd54458ee541361b9534d84e54e3511963bd54458ee541361b9534d84e54e3511963bd54458ee541361b9534d84e54e3515fd5d3a9fafa77d5e859b8f84354c3d948eb0dcc39a949d1561d5743b53e789356b2564299c49e9580a2bba25ac77b1794fdc63755e0a096b0626d6fbd863fd3e9e1532b162dcb214b21406b8612924ac10b73c2b648f15e086a5908915e29689c51e2bc00d611156885b9e15b2c70a70c3c4626285b8658fc51e2bc00d4b216185b86562b1c70a7043584cac10b73c2b648f15e1e6f4077790726b7288d585c5fd58cbe00e52265688d54d2c6e4d5e066131b142ac6e29648fb50c2616132b0461115688d52d856cde97b1ba89c51e6b19ab0b8b89b50c9642f6582198588415627561b1c75a064b21132bc4ea26169bf7651016132bc4ea9642f658cb606231b14210166185585d58f396c2eb180f01820e75c2f98ffd6edab7c261fdef3fb35cbb9c1aefb01ea68f9eb0ca9e1aefa327acb2a7c6fbe809abeca9f13e7ac22a7b6abc8f9eb0ca9e1aefa327acb2a7c6fbe809abeca9f13e7ac22a7b6abc8f9eb0ca9e1aefa327acb2a7c6fbe809abec4d0802a9f13e7ac22a7b6abc8f9eb0ca9e1aefa327acb2a7c6fbe809abeca9f13e7ac22a7b6abc8f9eb0ca9e1aefa327acb2a7c6fbe809abeca9f13e7ac2faf0a9f9727ed78bf9b2d4d113568553b3dcc8fa1260f20b1156d953e37df48455e1d430b126adeb7d851161051d6ae6d133b1ca9e1aefa327ac0aa786a570124be15c671845275aece89958654f8df7d113568553c3523889a570ae338ca2132d76f44cac0aa7868935898935d7f562be0498fc424cacb2a7c6fbe809abc2a961299cc45238d71946d189163b7a2656d953e37df48455e1d4b0144e62299ceb0ca3e8448b1d3d13abc2a961624d6262cd75bd982f0126bf1013ebc3a7e6aff35b6e62fd1560f20b1156855343584e4be11ff6617d3e56f1e8d736b13efd31edd3b1a7cbabababab83bf2eaf1e963b35d35feaf37f8f5d9cee61a9a327ac5f8435c13dac27c22a30b11a86f5405884c5c4eabac76262fd3ef658eb0aeb89a59089c51e6b0a4b2113eb08d7b1da2e850f4b1dfde4c11356dbb09e08eb1d3c2b3cc6c43a03c23ac6c422aceca5f081a59089c51e6b0a971b4a6ede1f9858ef608f758c3dd61910d631261661652f854f2c855e13ebcff35b6e8ff56780c9835fdf95f7cb53bd1356c4a979e74bbd1c9b3bb1228e9eb0dcc2ba3a3e282616136b7e58979797cf6ffe30b108eb4c13ebf9e00f138bb0ce30b19e99586cdee76062f1ac70c9cdfb257b2c26564458574d08026fb7eeecb1b88ec5c49a8f0ba4414be115cf0a43acfecafb25cf0a098b897588d70a0bbfa473c9b3422656c8c47ae659217b2c26d60196c2c24be115cf0a99582113eb99d70a590a995807580a0b2f85973c2b6462854cac679e15ae67298cf8cd14d35fe99a89b5a689b5a08b8babab8bf1e3fbc7bc77e95c3f043ca6b0c72a1dd61c93efd2590c61b50deb21f5d81b87f54f83a5700e265650581df6587330b1985821613d5d676abc1432b132350e8b3d56a6c66131b132350e8b8995a971584cac4c8dc36262656a1c16132b53e3b09858991a87c5c4cad4382c2656a6c66131b132350e8b8995a971584cac4c8dc36262656a1c16132b53e3b0e64eac7457f3eec7ba7c78789af1b87b9af1b8bb6b1cd6dc89f5a19fd6df8ff2b59d58176ba67c45c36262cda27c45c36262cda27c45c36262cda27c45c36262cda27c45c36262cda27c45c36262cda27c45c36262cda27c45c36262cda27c45c36262cda27c45c36262cda27c45c36262cda27c45c36262cda27c45c36262cda27c45c36262cda27c45c36262cda27c45c36262cda27c84d591f2115647ca47581d291f6175a47c84d591f2115647ca47581d291f6175a47c84d591f2115647ca47581d291f6175a47c84d591f2115647ca47581d291f6175a47c84d591f2115647ca47581d291f6175a47c84d591f2115647ca47581d291f6175a47c8435d7cbd793bdccf37cb26f5386d34d0802ad2eace782bf99e2f4aebedea57a3cdd190220ace5c27a212c2616136b2626164be1b1b95511d619b0c79ac4c45a2eac17f658f3f1ac70026111164be14c2c85abd963dd3d9e6c6e55847506367bac3bc2e2ca7b08c222ac108445582108ab69582f31bd10167737e46262359d585f096b3eaebc4f202cc28a98582f8445582c85ab7a49e78e3dd60c6cdedf0deb8f4fc79e9237ef7f9fee2e1761115608c222ac1084455821088bb04210166185202cc20a4158841582b0082b0461115608c222ac1084455821088bb072bb5adffb0a79117a06c222ac1084455821088bb04210166185202cc20a4158841582b0082b0461750deb6b4c3084d5f302e9073c2f855f79b2aeb016a37cbca4d391f2115647ca47581d291f6175a47c84d591f2115647ca47581d291f6175a47c84d591f2115647ca47581d291f6175a47c84d591f2115647ca47581d291f6175a47c84d591f2115647ca4758de9e3753b2ab222c7b1b15c5c4f2b6515184e56da3a208cbdb46451196b78d8a222c6f1b154558de362a8ab0bc6d54146179dba828c2f2b6515184e56da3a208cbdb46451196b78d8a222c6f1b154558de362a8ab0bc6d54146179dba828c2f2b6515184e56da3a208cbdb46451196b78d8a222c1f7242583ee484b07cc80961f99013c2f2212784e5434e08cb879c10960f39212c1f7242583ee484b07cc80961f99013c2f2212784e5434e08cb879c4d050210960f39212c1f7242583ee484b07cc80961f99013c2f221278455d2a6e82f32391d6195247b845592ec115649b2475825c91e6195247b845592ec115649b2475825c91e6195247b845592ec115649b2475825c91e6195247b845592ec115649b2475825c91e6195247b845592ec115649b2475825c95edbb0ae16f2e937fcf3fde3978f6f72d736accbc261fd3bc22a1bd6425d11d63b98588415a26d584cac5c6dc3628f95ab6d584cac5c6dc36262e56a1b16132b57dbb09858b9da86c5c4cad5362c2656aeb66131b172b50d8b8995ab6d584cac5c6dc36262e56a1b16132b57dbb09858b9da86c5c4cad5362c2656aeb66131b172b50d8b8995ab6d584cac5c6dc36262e56a1b16132b57dbb09858b9da86c5c4cad5362c2656aeb66131b172b50d8b8995ab6d584cac5c6dc36262e56a1b16132b57dbb09858b9da86c5c4cad5362c2656aeb66131b172b50d8b8995ab6d584cac5c6dc36262e56a1b16132b57dbb09858b9da86c5c4cad5362c2656aeb66131b172b50d8b8995ab6d584cac5c6dc36262e56a1b16132b57dbb09858b9da86c5c4cad5362c2656aeb66131b172b50d8b8995ab6d584cac5c6dc36262e56a1b16132b57dbb09858b9da86c5c4cad5362c2656aeb66131b172b50d8b8995ab6d584cac5c6dc36262e56a1b16132b57dbb09858b9da86c5c452aaff03793b5bac6155ffa80000000049454e44ae42608268",
        "c07489ffc48f2e7df77abf6c487d6bcef21bcf17e4491526d0e6e1a6e55a6ab1c5"
      ],
      "is_coinbase": false,
      "sequence": 4294967293
    }
  ],
  "vout": [
    {
      "scriptpubkey": "512092d0c4be49414c8ce960e04bd67b94f223e9ce71227bcb9ae8584d3d87f33a1e",
      "scriptpubkey_asm": "OP_PUSHNUM_1 OP_PUSHBYTES_32 92d0c4be49414c8ce960e04bd67b94f223e9ce71227bcb9ae8584d3d87f33a1e",
      "scriptpubkey_type": "v1_p2tr",
      "scriptpubkey_address": "bc1pjtgvf0jfg9xge6tqup9av7u57g37nnn3yfauhxhgtpxnmpln8g0qek58d9",
      "value": 600
    }
  ],
  "size": 4434,
  "weight": 4716,
  "fee": 17685,
  "status": {
    "confirmed": true,
    "block_height": 834460,
    "block_hash": "00000000000000000000484a79b643b2524bbce82e5d8a442013fa5b8905ed98",
    "block_time": 1710307468
  },
  "hex": "02000000000101f5044d8e85b2c6bfedc1b369138f352a19c9ffd88406e1ccdf648fe7455baae40000000000fdffffff01580200000000000022512092d0c4be49414c8ce960e04bd67b94f223e9ce71227bcb9ae8584d3d87f33a1e034081378d7e98d2c31dab57670f7ad7d27d15ef9744c38adba3ecdedd38a2fc876917d99c83b2e4fa21ef95f144bdea6d4208678920e6b126bae225fb3223a4ee0efd8b10207489ffc48f2e7df77abf6c487d6bcef21bcf17e4491526d0e6e1a6e55a6ab1c5ac0063036f7264010109696d6167652f706e67004d080289504e470d0a1a0a0000000d494844520000025800000258080300000089b868ee00000057504c54457e391000491a682a02722d040a010100141f1748702b5c845b869739af660035064e4f4f4286bd550206b208609700467700260149b6c875ad7e30623c6e96662fc043a4742a3c0f1a834267442d486b736b3a516968626303a441000000097048597300000b1300000b1301009a9c1800000f8c49444154789ceddd0153db581245610204ee0e301326da6508feffbf732b09b6652c322672abfbb6ce679265a6a616513ad5ef5996e14240808b88ff5380b01082b01082b01082b01082b01082b01082b01082b01082b01082b01082b01082b01082b01082b01082b01082b01082b01082b01082b01082b01082b01082b01082b01082b01082b01082b01082b01082b01082b01082b01082b01082b01082b01082b01082b01082b01082b01082b09018d6e7982f8eb587f52dfc38d00c4b21421016421016421016427885753f53f6f1af0861210461210461210461210461210461210461210461210461210461210461210461210461210461210461210461210461210461210461210461615d61cd7ddf04efb0c85536ace17eb81fdefc753f10968bb261dddf0ff78ff73f3f5e3f0bc98af784ad2dacef196da7d4f0e3e391b07c940debfb94da56f5f89a56ccc8cafe4e7b2a1bd6eb8cdaf615b61012d6bac21ade2c834c2c33952f4d080237fc58017f14f5b85f1099581eca86b54feafb9efdf59f580a6d940d6bdbd2eb8af8638fc5e6dd47ddb0f6c36afbfc90cb0d46ca86b51b57db51c595772b65c3da3f178cbede90fd9df65436ac9f29bd3e13fc5955505bd9df694f65c3ba3f98578197b1086b5d618db657e3d77508cb44d9b0762fe7ec3f616219a91bd6c1c4da8f2e96420f75c3dabd90b3bbf0c0752c2375c31a5dc4fa79a994db669c940d6b7b6f5ff4dd583c2b5c5958bb98b6836b7bdf1f6159281bd6f885e7ed75f7d7970e7ffb8389b59cb261ed5e77dee6b5bbd1e1773fde2b2bfb3beda96a58e398462f168e2f6b7df813c25a50f9cb0ddb170b27e6d7073f797c27adecefb4a7ba611dbe5478b416beeee53ff409612da76c58a3c1b4bff77d9fc9f87f3ff009134b6b0f6b7b096b1fd7eee3a0975d7dfff609612daa6e58af036b3faef68fd1967e7f6dfee093fdbb2fdedc25c11e4b6b0f6b7f6df4ed52b82f6afb7c71f462e27646bd4eb683678784b59cca618daf87bee6f1fad96e573e7ac56794d77652fd4c69bfe527ace5940d6bb4e01da4b27db7cee8459e378bde68e11b95f6fe7d82d9df694f65c37ab3f08d774fa3b9b4bf767a7847e0f8873e8ca6166169ed618dd7bfdd70daede18faf92ee9f27ee17c7d17ff5abfb9ab3bfd59eeaff7cacfdb236fa096cfb5dfbe8f2c3e8aec0c3ababfb3b06096b2975c31acdabf196fc20b53717d8c76fc6dfdd4d08021af1af3ffa21fb3beda96c586fee1f1d5d6b7fdd891f2d780757530f7eb8d668874f586b0febe0459bf160dab7f266b37e784d6bbc8ceefe43c25a4cd9b076378e1eeed3f7b98cef2c7dbb264e2c9cefff5091ecefb4a7b2618d6e20dd5e363fb8183a7ab27870bbd6e85f8e36faecb1965637ac837ba90e2f2d8cff1a6d9dc6f7891e7efeab0bef4cacb661dd9cee76da7bfffed870f4286990bb1e61b5237b8455d220778455d22077845592ec11564983dc11564983dc115649b24758250d724758250d72475825c91e619534c81d619534c81d6195247b8455d220778455d22077845592ec11564983dc11564983dc115649b2b76c58c3f06de2c1adc94798581f73fb8186567dcffb304946969d588435076111560c196162f9186484b08cc80861f9186484b08cc80861f9186484b08cc80861f9186484b08cc80861f9186484b08cc80861f9186484b08cc80861f9186484b08cc80861f9186484b08cc80861f9186484b08cc80861f91864242cace1fbaf17f9f6e60f6fa6984546c2c29addd0aadffe358989455831648489e5639091b0b04256c2752f85b732c2c4f231c80861199111c2f231c8087b2c2332c2c4f231c80861199111c2f231c8087b2c2332c2c4f231c80861199111c2f231c8087b2c2332c2c4f231c80861199111c2f23138fd5201f658e654146199535184654e45119639154558e654146199535184654e4511964d080239154558e654146199535184654e45119639154558e654146199535184654e45119639154558e654146199535184654e45119639154558e654146199535184e54e3511963bd54458ee541361b9534d84e54e3511963bd54458ee541361b9534d84e54e3511963bd54458ee541361b9534d84e54e3511963bd54458ee541361b9534d84e54e3511963bd54458ee541361b9534d84e54e3515fd5d3a9fafa77d5e859b8f84354c3d948eb0dcc39a949d1561d5743b53e789356b2564299c49e9580a2bba25ac77b1794fdc63755e0a096b0626d6fbd863fd3e9e1532b162dcb214b21406b8612924ac10b73c2b648f15e086a5908915e29689c51e2bc00d611156885b9e15b2c70a70c3c4626285b8658fc51e2bc00d4b216185b86562b1c70a7043584cac10b73c2b648f15e1e6f4077790726b7288d585c5fd58cbe00e52265688d54d2c6e4d5e066131b142ac6e29648fb50c2616132b0461115688d52d856cde97b1ba89c51e6b19ab0b8b89b50c9642f6582198588415627561b1c75a064b21132bc4ea26169bf7651016132bc4ea9642f658cb606231b14210166185585d58f396c2eb180f01820e75c2f98ffd6edab7c261fdef3fb35cbb9c1aefb01ea68f9eb0ca9e1aefa327acb2a7c6fbe809abeca9f13e7ac22a7b6abc8f9eb0ca9e1aefa327acb2a7c6fbe809abeca9f13e7ac22a7b6abc8f9eb0ca9e1aefa327acb2a7c6fbe809abec4d0802a9f13e7ac22a7b6abc8f9eb0ca9e1aefa327acb2a7c6fbe809abeca9f13e7ac22a7b6abc8f9eb0ca9e1aefa327acb2a7c6fbe809abeca9f13e7ac2faf0a9f9727ed78bf9b2d4d113568553b3dcc8fa1260f20b1156d953e37df48455e1d430b126adeb7d851161051d6ae6d133b1ca9e1aefa327ac0aa786a570124be15c671845275aece89958654f8df7d113568553c3523889a570ae338ca2132d76f44cac0aa7868935898935d7f562be0498fc424cacb2a7c6fbe809abc2a961299cc45238d71946d189163b7a2656d953e37df48455e1d4b0144e62299ceb0ca3e8448b1d3d13abc2a961624d6262cd75bd982f0126bf1013ebc3a7e6aff35b6e62fd1560f20b1156855343584e4be11ff6617d3e56f1e8d736b13efd31edd3b1a7cbabababab83bf2eaf1e963b35d35feaf37f8f5d9cee61a9a327ac5f8435c13dac27c22a30b11a86f5405884c5c4eabac76262fd3ef658eb0aeb89a59089c51e6b0a4b2113eb08d7b1da2e850f4b1dfde4c11356dbb09e08eb1d3c2b3cc6c43a03c23ac6c422aceca5f081a59089c51e6b0a971b4a6ede1f9858ef608f758c3dd61910d631261661652f854f2c855e13ebcff35b6e8ff56780c9835fdf95f7cb53bd1356c4a979e74bbd1c9b3bb1228e9eb0dcc2ba3a3e282616136b7e58979797cf6ffe30b108eb4c13ebf9e00f138bb0ce30b19e99586cdee76062f1ac70c9cdfb257b2c26564458574d08026fb7eeecb1b88ec5c49a8f0ba4414be115cf0a43acfecafb25cf0a098b897588d70a0bbfa473c9b3422656c8c47ae659217b2c26d60196c2c24be115cf0a99582113eb99d70a590a995807580a0b2f85973c2b6462854cac679e15ae67298cf8cd14d35fe99a89b5a689b5a08b8babab8bf1e3fbc7bc77e95c3f043ca6b0c72a1dd61c93efd2590c61b50deb21f5d81b87f54f83a5700e265650581df6587330b1985821613d5d676abc1432b132350e8b3d56a6c66131b132350e8b8995a971584cac4c8dc36262656a1c16132b53e3b09858991a87c5c4cad4382c2656a6c66131b132350e8b8995a971584cac4c8dc36262656a1c16132b53e3b0e64eac7457f3eec7ba7c78789af1b87b9af1b8bb6b1cd6dc89f5a19fd6df8ff2b59d58176ba67c45c36262cda27c45c36262cda27c45c36262cda27c45c36262cda27c45c36262cda27c45c36262cda27c45c36262cda27c45c36262cda27c45c36262cda27c45c36262cda27c45c36262cda27c45c36262cda27c45c36262cda27c45c36262cda27c45c36262cda27c45c36262cda27c84d591f2115647ca47581d291f6175a47c84d591f2115647ca47581d291f6175a47c84d591f2115647ca47581d291f6175a47c84d591f2115647ca47581d291f6175a47c84d591f2115647ca47581d291f6175a47c84d591f2115647ca47581d291f6175a47c8435d7cbd793bdccf37cb26f5386d34d0802ad2eace782bf99e2f4aebedea57a3cdd190220ace5c27a212c2616136b2626164be1b1b95511d619b0c79ac4c45a2eac17f658f3f1ac70026111164be14c2c85abd963dd3d9e6c6e55847506367bac3bc2e2ca7b08c222ac108445582108ab69582f31bd10167737e46262359d585f096b3eaebc4f202cc28a98582f8445582c85ab7a49e78e3dd60c6cdedf0deb8f4fc79e9237ef7f9fee2e1761115608c222ac1084455821088bb04210166185202cc20a4158841582b0082b0461115608c222ac1084455821088bb072bb5adffb0a79117a06c222ac1084455821088bb04210166185202cc20a4158841582b0082b0461750deb6b4c3084d5f302e9073c2f855f79b2aeb016a37cbca4d391f2115647ca47581d291f6175a47c84d591f2115647ca47581d291f6175a47c84d591f2115647ca47581d291f6175a47c84d591f2115647ca47581d291f6175a47c84d591f2115647ca4758de9e3753b2ab222c7b1b15c5c4f2b6515184e56da3a208cbdb46451196b78d8a222c6f1b154558de362a8ab0bc6d54146179dba828c2f2b6515184e56da3a208cbdb46451196b78d8a222c6f1b154558de362a8ab0bc6d54146179dba828c2f2b6515184e56da3a208cbdb46451196b78d8a222c1f7242583ee484b07cc80961f99013c2f2212784e5434e08cb879c10960f39212c1f7242583ee484b07cc80961f99013c2f2212784e5434e08cb879c4d050210960f39212c1f7242583ee484b07cc80961f99013c2f221278455d2a6e82f32391d6195247b845592ec115649b2475825c91e6195247b845592ec115649b2475825c91e6195247b845592ec115649b2475825c91e6195247b845592ec115649b2475825c91e6195247b845592ec115649b2475825c95edbb0ae16f2e937fcf3fde3978f6f72d736accbc261fd3bc22a1bd6425d11d63b98588415a26d584cac5c6dc3628f95ab6d584cac5c6dc36262e56a1b16132b57dbb09858b9da86c5c4cad5362c2656aeb66131b172b50d8b8995ab6d584cac5c6dc36262e56a1b16132b57dbb09858b9da86c5c4cad5362c2656aeb66131b172b50d8b8995ab6d584cac5c6dc36262e56a1b16132b57dbb09858b9da86c5c4cad5362c2656aeb66131b172b50d8b8995ab6d584cac5c6dc36262e56a1b16132b57dbb09858b9da86c5c4cad5362c2656aeb66131b172b50d8b8995ab6d584cac5c6dc36262e56a1b16132b57dbb09858b9da86c5c4cad5362c2656aeb66131b172b50d8b8995ab6d584cac5c6dc36262e56a1b16132b57dbb09858b9da86c5c4cad5362c2656aeb66131b172b50d8b8995ab6d584cac5c6dc36262e56a1b16132b57dbb09858b9da86c5c4cad5362c2656aeb66131b172b50d8b8995ab6d584cac5c6dc36262e56a1b16132b57dbb09858b9da86c5c452aaff03793b5bac6155ffa80000000049454e44ae4260826821c07489ffc48f2e7df77abf6c487d6bcef21bcf17e4491526d0e6e1a6e55a6ab1c500000000"
}