{
  "txid": "3b05adb9974bab7a8626f1af13e232e08eac17fcd47ec4f8599656f36c9f6848",
  "version": 2,
  "locktime": 0,
  "vin": [
    {
      "txid": "acc3ba00869acb582a3f2904ce3a11dd3779350ce234063fc7d0959246213364",
      "vout": 247,
      "prevout": {
        "scriptpubkey": "51204bd723bc60334dfef085af0c32492ae3f4933d769837fb576d1f9ba4536a18b6",
        "scriptpubkey_asm": "OP_PUSHNUM_1 OP_PUSHBYTES_32 4bd723bc60334dfef085af0c32492ae3f4933d769837fb576d1f9ba4536a18b6",
        "scriptpubkey_type": "v1_p2tr",
        "scriptpubkey_address": "bc1pf0tj80rqxdxlauy94uxryjf2u06fx0tknqmlk4mdr7d6g5m2rzmqq0y3dp",
        "value": 1806
      },
      "scriptsig": "",
      "scriptsig_asm": "",
      "witness": [
        "377bc91f1ef7af1439ac41bed9b478a952ebecedbbea6be46cfc777d6f41a51f281c5ed25c992fd77f57b038150c8e2af07b5f82ef387a020485b9bc1c9fe5cc",
        "206fe3ddd7f8254068dc3fd6ae9ada016a90ad7f9c41724dfa629ccd3910550f0fac0063036f726401010a746578742f706c61696e00357b2270223a226272632d3230222c226f70223a226d696e74222c227469636b223a22646f6765222c22616d74223a2234323030227d68",
        "c16fe3ddd7f8254068dc3fd6ae9ada016a90ad7f9c41724dfa629ccd3910550f0f"
      ],
      "is_coinbase": false,
      "sequence": 4261412863
    }
  ],
  "vout": [
    {
      "scriptpubkey": "00147a665de7a370f4c9b372ab1fae587500a5bcbdb4",
      "scriptpubkey_asm": "OP_0 OP_PUSHBYTES_20 7a665de7a370f4c9b372ab1fae587500a5bcbdb4",
      "scriptpubkey_type": "v0_p2wpkh",
      "scriptpubkey_address": "bc1q0fn9mearwr6vnvmj4v06ukr4qzjme0d565dzcx",
      "value": 294
    }
  ],
  "size": 294,
  "weight": 540,
  "fee": 1512,
  "status": {
    "confirmed": true,
    "block_height": 834460,
    "block_hash": "00000000000000000000484a79b643b2524bbce82e5d8a442013fa5b8905ed98",
    "block_time": 1710307468
  },
  "hex": "02000000000101643321469295d0c73f0634e20c357937dd113ace04293f2a58cb9a8600bac3acf700000000fffffffd0126010000000000001600147a665de7a370f4c9b372ab1fae587500a5bcbdb40340377bc91f1ef7af1439ac41bed9b478a952ebecedbbea6be46cfc777d6f41a51f281c5ed25c992fd77f57b038150c8e2af07b5f82ef387a020485b9bc1c9fe5cc6d206fe3ddd7f8254068dc3fd6ae9ada016a90ad7f9c41724dfa629ccd3910550f0fac0063036f726401010a746578742f706c61696e00357b2270223a226272632d3230222c226f70223a226d696e74222c227469636b223a22646f6765222c22616d74223a2234323030227d6821c16fe3ddd7f8254068dc3fd6ae9ada016a90ad7f9c41724dfa629ccd3910550f0f00000000"
}