{
  "txid": "3b172eed6acbea718b20e244cdcff248833dcf7b3a7c72aec6285764c60ae547",
  "version": 1,
  "locktime": 0,
  "vin": [
    {
      "txid": "888888888eadb16db22d5c24c474b0d684c75b119c745d5e4fd0943158901442",
      "vout": 0,
      "prevout": {
        "scriptpubkey": "512059de335e9698714eb1c224e2673e8361cf3e2b17747ed173aac986669f7ee369",
        "scriptpubkey_asm": "OP_PUSHNUM_1 OP_PUSHBYTES_32 59de335e9698714eb1c224e2673e8361cf3e2b17747ed173aac986669f7ee369",
        "scriptpubkey_type": "v1_p2tr",
        "scriptpubkey_address": "bc1pt80rxh5knpc5avwzyn3xw05rv88nu2chw3ldzua2exrxd8m7ud5spnpzvu",
        "value": 11923
      },
      "scriptsig": "",
      "scriptsig_asm": "",
      "witness": [
        "eec8dd554a0c9e1677017bbe7f3ed354dbfdf7bc32e9313fd33031ee8f4bdb800e6ced9b9ebc2cc089a6f319ac32e2b2989d42a1c5909e778af3fbfbfb4409f4",
        "20b45a9ed8be961ae9776db234f21e7b6aabe8b15c60b8f3b876b6d23b2db4d9c2ac00630461746f6d03646d7446a16461726773a46474696d651a65f13613656e6f6e63651a0001000468626974776f726b636b3838383838383838382e386b6d696e745f7469636b657268696e66696e69747968",
        "c1b45a9ed8be961ae9776db234f21e7b6aabe8b15c60b8f3b876b6d23b2db4d9c2"
      ],
      "is_coinbase": false,
      "sequence": 4294967295
    }
  ],
  "vout": [
    {
      "scriptpubkey": "5120ee5d73a166b5fcf6fb0e22e1428770d9455bcd536c28912b437450303ef41201",
      "scriptpubkey_asm": "OP_PUSHNUM_1 OP_PUSHBYTES_32 ee5d73a166b5fcf6fb0e22e1428770d9455bcd536c28912b437450303ef41201",
      "scriptpubkey_type": "v1_p2tr",
      "scriptpubkey_address": "bc1paewh8gtxkh70d7cwyts59pmsm9z4hn2nds5fz26rw3grq0h5zgqsmngref",
      "value": 9999
    }
  ],
  "size": 314,
  "weight": 596,
  "fee": 1924,
  "status": {
    "confirmed": true,
    "block_height": 834460,
    "block_hash": "00000000000000000000484a79b643b2524bbce82e5d8a442013fa5b8905ed98",
    "block_time": 1710307468
  },
  "hex": "01000000000101421490583194d04f5e5d749c115bc784d6b074c4245c2db26db1ad8e888888880000000000ffffffff010f27000000000000225120ee5d73a166b5fcf6fb0e22e1428770d9455bcd536c28912b437450303ef412010340eec8dd554a0c9e1677017bbe7f3ed354dbfdf7bc32e9313fd33031ee8f4bdb800e6ced9b9ebc2cc089a6f319ac32e2b2989d42a1c5909e778af3fbfbfb4409f47520b45a9ed8be961ae9776db234f21e7b6aabe8b15c60b8f3b876b6d23b2db4d9c2ac00630461746f6d03646d7446a16461726773a46474696d651a65f13613656e6f6e63651a0001000468626974776f726b636b3838383838383838382e386b6d696e745f7469636b657268696e66696e6974796821c1b45a9ed8be961ae9776db234f21e7b6aabe8b15c60b8f3b876b6d23b2db4d9c200000000"
}