{
  "txid": "3b1747ab686c199e1e3fc18bfb2d8c6455f252cce3a6103e1d133c7e49fdcf55",
  "version": 1,
  "locktime": 0,
  "vin": [
    {
      "txid": "75fcaa2405e06abc627683e2306f54eac2d849ee47c98f545485df68d55c6139",
      "vout": 1,
      "prevout": {
        "scriptpubkey": "00142daab82f44d9390dd6d9954ad94ada509c885a82",
        "scriptpubkey_asm": "OP_0 OP_PUSHBYTES_20 2daab82f44d9390dd6d9954ad94ada509c885a82",
        "scriptpubkey_type": "v0_p2wpkh",
        "scriptpubkey_address": "bc1q9k4tst6ymyusm4kej49djjk62zwgsk5zwdzzaw",
        "value": 4299
      },
      "scriptsig": "",
      "scriptsig_asm": "",
      "witness": [
        "3044022034d7e25f19f06fb4b1b685c1a665e85b0315ff59951d9986e3aa1656866e1e51022010ac87e057c006b708cb27b8f84ef8ac0c03d3c9c6137068979ffbf9921aed7801",
        "0315ddc6044828bd264ed81a4367b3312c038983664399eca36455963c60f970ba"
      ],
      "is_coinbase": false,
      "sequence": 4294967295
    },
    {
      "txid": "0754d3ad828f5340198e43398ac11f1b66b2bd2b0e897e9a39dc8280219728a1",
      "vout": 96,
      "prevout": {
        "scriptpubkey": "00146a3486524764e4125e1992c2d03130cd7491c529",
        "scriptpubkey_asm": "OP_0 OP_PUSHBYTES_20 6a3486524764e4125e1992c2d03130cd7491c529",
        "scriptpubkey_type": "v0_p2wpkh",
        "scriptpubkey_address": "bc1qdg6gv5j8vnjpyhsejtpdqvfse46fr3ffhtzf69",
        "value": 181330
      },
      "scriptsig": "",
      "scriptsig_asm": "",
      "witness": [
        "304402205eab2f8a041a0d90155cb04f40dfd7569c9343008cd08626435a292a1db2066902207ed97e8fd0a2c4e25907923a82183552e6510c743edb4005ed29e78d667eda7001",
        "03e504a5e4b51619aab1f8dc855f779389a61f1603579d09f3e53b840550e4dec0"
      ],
      "is_coinbase": false,
      "sequence": 4294967295
    }
  ],
  "vout": [
    {
      "scriptpubkey": "76a914f08e5b36e428401cb6f8446a17f67533990626e288ac",
      "scriptpubkey_asm": "OP_DUP OP_HASH160 OP_PUSHBYTES_20 f08e5b36e428401cb6f8446a17f67533990626e2 OP_EQUALVERIFY OP_CHECKSIG",
      "scriptpubkey_type": "p2pkh",
      "scriptpubkey_address": "1Nvwi8UWQhTxhFchnERa2S2bXCHi6KYxvs",
      "value": 181013
    },
    {
      "scriptpubkey": "00145c4a878143631a52bcd2f21511f4615cb1c1024d",
      "scriptpubkey_asm": "OP_0 OP_PUSHBYTES_20 5c4a878143631a52bcd2f21511f4615cb1c1024d",
      "scriptpubkey_type": "v0_p2wpkh",
      "scriptpubkey_address": "bc1qt39g0q2rvvd990xj7g23rarptjcuzqjd846nxy",
      "value": 1457
    }
  ],
  "size": 373,
  "weight": 844,
  "fee": 3159,
  "status": {
    "confirmed": true,
    "block_height": 834638,
    "block_hash": "000000000000000000025f742c626208ac87e0b7d15054abb4a19ca2d735a54e",
    "block_time": 1710405325
  },
  "hex": "0100000000010239615cd568df8554548fc947ee49d8c2ea546f30e2837662bc6ae00524aafc750100000000ffffffffa12897218082dc399a7e890e2bbdb2661b1fc18a39438e1940538f82add354076000000000ffffffff0215c30200000000001976a914f08e5b36e428401cb6f8446a17f67533990626e288acb1050000000000001600145c4a878143631a52bcd2f21511f4615cb1c1024d02473044022034d7e25f19f06fb4b1b685c1a665e85b0315ff59951d9986e3aa1656866e1e51022010ac87e057c006b708cb27b8f84ef8ac0c03d3c9c6137068979ffbf9921aed7801210315ddc6044828bd264ed81a4367b3312c038983664399eca36455963c60f970ba0247304402205eab2f8a041a0d90155cb04f40dfd7569c9343008cd08626435a292a1db2066902207ed97e8fd0a2c4e25907923a82183552e6510c743edb4005ed29e78d667eda70012103e504a5e4b51619aab1f8dc855f779389a61f1603579d09f3e53b840550e4dec000000000"
}