{
  "txid": "3b2c413bb3a8ef0fb32d6ecd455d3a0c40381c2fc88def6a87a69f8ed259e04b",
  "version": 2,
  "locktime": 0,
  "vin": [
    {
      "txid": "d4d8eea3ee8d4a23db248420c281f92f97cce08f869538f6b9cd8ce1fc4f69fd",
      "vout": 1,
      "prevout": {
        "scriptpubkey": "512061950f2a8e4f4c9a2805c8a0d0863939f0baaa3cf30f736d47f5bb09b8bd4b48",
        "scriptpubkey_asm": "OP_PUSHNUM_1 OP_PUSHBYTES_32 61950f2a8e4f4c9a2805c8a0d0863939f0baaa3cf30f736d47f5bb09b8bd4b48",
        "scriptpubkey_type": "v1_p2tr",
        "scriptpubkey_address": "bc1pvx2s725wfaxf52q9ezsdpp3e88ct423u7v8hxm287kasnw9afdyq37lecs",
        "value": 361466
      },
      "scriptsig": "",
      "scriptsig_asm": "",
      "witness": [
        "b35d82cdcea90b814858523ccba1a2dd1b2a6647b7e4838861edce4ba77efb0d6bd61f4f87a38957d6982ed2184fe2a61ff86c5c239f68b45053ff2c35c87533"
      ],
      "is_coinbase": false,
      "sequence": 4294967293
    }
  ],
  "vout": [
    {
      "scriptpubkey": "5120efd419c4dd2b5ea32e4fea20c41c7d75bc4c6cc389a7316c5a868574da3ab6e6",
      "scriptpubkey_asm": "OP_PUSHNUM_1 OP_PUSHBYTES_32 efd419c4dd2b5ea32e4fea20c41c7d75bc4c6cc389a7316c5a868574da3ab6e6",
      "scriptpubkey_type": "v1_p2tr",
      "scriptpubkey_address": "bc1pal2pn3xa9d02xtj0agsvg8rawk7ycmxr3xnnzmz6s6zhfk36kmnq6fuph4",
      "value": 2826
    },
    {
      "scriptpubkey": "512061950f2a8e4f4c9a2805c8a0d0863939f0baaa3cf30f736d47f5bb09b8bd4b48",
      "scriptpubkey_asm": "OP_PUSHNUM_1 OP_PUSHBYTES_32 61950f2a8e4f4c9a2805c8a0d0863939f0baaa3cf30f736d47f5bb09b8bd4b48",
      "scriptpubkey_type": "v1_p2tr",
      "scriptpubkey_address": "bc1pvx2s725wfaxf52q9ezsdpp3e88ct423u7v8hxm287kasnw9afdyq37lecs",
      "value": 356330
    }
  ],
  "size": 205,
  "weight": 616,
  "fee": 2310,
  "status": {
    "confirmed": true,
    "block_height": 834460,
    "block_hash": "00000000000000000000484a79b643b2524bbce82e5d8a442013fa5b8905ed98",
    "block_time": 1710307468
  },
  "hex": "02000000000101fd694ffce18ccdb9f63895868fe0cc972ff981c2208424db234a8deea3eed8d40100000000fdffffff020a0b000000000000225120efd419c4dd2b5ea32e4fea20c41c7d75bc4c6cc389a7316c5a868574da3ab6e6ea6f05000000000022512061950f2a8e4f4c9a2805c8a0d0863939f0baaa3cf30f736d47f5bb09b8bd4b480140b35d82cdcea90b814858523ccba1a2dd1b2a6647b7e4838861edce4ba77efb0d6bd61f4f87a38957d6982ed2184fe2a61ff86c5c239f68b45053ff2c35c8753300000000"
}