{
  "txid": "3b363c755d5101f861b8e980b36e5c70a6b4f9329b4132df65e3b72b37ad128f",
  "version": 1,
  "locktime": 0,
  "vin": [
    {
      "txid": "b61ee9cdf677a9f38d873488f2a7f02a1994a665a55e095ca23c4e1d1123cd4d",
      "vout": 0,
      "prevout": {
        "scriptpubkey": "0014cbe647e81d9656bee2ec60a544068213fc9c1aa7",
        "scriptpubkey_asm": "OP_0 OP_PUSHBYTES_20 cbe647e81d9656bee2ec60a544068213fc9c1aa7",
        "scriptpubkey_type": "v0_p2wpkh",
        "scriptpubkey_address": "bc1qe0ny06qajettachvvzj5gp5zz07fcx48gsj2np",
        "value": 163043
      },
      "scriptsig": "",
      "scriptsig_asm": "",
      "witness": [
        "304502210081634e79376d7c571e2b79761e8a6b8ef0e5fe4e3a8075da0207981dddc4614502205b1f49f15643024b4ca63b13677fe8d9824d4ee2697619d9645f30387fd0c75c01",
        "038fe4d73986fd663aea9c6b140f1dd47a236a66b7d34247151dad6f51d85cee00"
      ],
      "is_coinbase": false,
      "sequence": 4294967295
    }
  ],
  "vout": [
    {
      "scriptpubkey": "0014e244c61b54ef93cca246050072327f1016b549a9",
      "scriptpubkey_asm": "OP_0 OP_PUSHBYTES_20 e244c61b54ef93cca246050072327f1016b549a9",
      "scriptpubkey_type": "v0_p2wpkh",
      "scriptpubkey_address": "bc1qufzvvx65a7fuegjxq5q8yvnlzqtt2jdff2eere",
      "value": 160196
    }
  ],
  "size": 192,
  "weight": 438,
  "fee": 2847,
  "status": {
    "confirmed": true,
    "block_height": 834638,
    "block_hash": "000000000000000000025f742c626208ac87e0b7d15054abb4a19ca2d735a54e",
    "block_time": 1710405325
  },
  "hex": "010000000001014dcd23111d4e3ca25c095ea565a694192af0a7f28834878df3a977f6cde91eb60000000000ffffffff01c471020000000000160014e244c61b54ef93cca246050072327f1016b549a90248304502210081634e79376d7c571e2b79761e8a6b8ef0e5fe4e3a8075da0207981dddc4614502205b1f49f15643024b4ca63b13677fe8d9824d4ee2697619d9645f30387fd0c75c0121038fe4d73986fd663aea9c6b140f1dd47a236a66b7d34247151dad6f51d85cee0000000000"
}