{
  "txid": "3b3743cbfbfd3a7fe8e8360c3be2c2ac30a0caa6f19ab6f4ad7488749bcaf3d7",
  "version": 2,
  "locktime": 0,
  "vin": [
    {
      "txid": "fb4dafba14e7bf1e9a6464e9a8edc42580108912ed3ab2e2f24e10cf1f10c456",
      "vout": 4,
      "prevout": {
        "scriptpubkey": "5120aae3670c45a6cfe2df4ffb05232523dba944f665e737a9540e7a6b5f02bc6e9a",
        "scriptpubkey_asm": "OP_PUSHNUM_1 OP_PUSHBYTES_32 aae3670c45a6cfe2df4ffb05232523dba944f665e737a9540e7a6b5f02bc6e9a",
        "scriptpubkey_type": "v1_p2tr",
        "scriptpubkey_address": "bc1p4t3kwrz95m879h60lvzjxffrmw55fan9uum6j4qw0f447q4ud6dqhs8m0p",
        "value": 2207
      },
      "scriptsig": "",
      "scriptsig_asm": "",
      "witness": [
        "5c3ff95a46764e87c0101a20b11de91831cda14fce38f00e7aff90d1f7eb061acb77a2f8299aac454212d28fc0c55a675fe6393aeaa78075857fa1de330faada",
        "20a49f3c5fd63616c460c7b90d190547e00098a28bcdef8d81aca912881d34db5cac0063036f7264010118746578742f706c61696e3b636861727365743d7574662d3800357b2270223a226272632d3230222c226f70223a226d696e74222c227469636b223a226c6f6c69222c22616d74223a2231303030227d68",
        "c1a49f3c5fd63616c460c7b90d190547e00098a28bcdef8d81aca912881d34db5c"
      ],
      "is_coinbase": false,
      "sequence": 4294967293
    }
  ],
  "vout": [
    {
      "scriptpubkey": "5120fd5286b00cfdef73ebe6c70f14c022d5a0a4454b997d195391a55f008d09d495",
      "scriptpubkey_asm": "OP_PUSHNUM_1 OP_PUSHBYTES_32 fd5286b00cfdef73ebe6c70f14c022d5a0a4454b997d195391a55f008d09d495",
      "scriptpubkey_type": "v1_p2tr",
      "scriptpubkey_address": "bc1pl4fgdvqvlhhh86lxcu83fspz6ks2g32tn973j5u3540sprgf6j2srcw382",
      "value": 546
    }
  ],
  "size": 320,
  "weight": 602,
  "fee": 1661,
  "status": {
    "confirmed": true,
    "block_height": 834464,
    "block_hash": "0000000000000000000177a0869a911a2b65c9bdcd5a8bcb02b68f305bee848e",
    "block_time": 1710308296
  },
  "hex": "0200000000010156c4101fcf104ef2e2b23aed1289108025c4eda8e964649a1ebfe714baaf4dfb0400000000fdffffff012202000000000000225120fd5286b00cfdef73ebe6c70f14c022d5a0a4454b997d195391a55f008d09d49503405c3ff95a46764e87c0101a20b11de91831cda14fce38f00e7aff90d1f7eb061acb77a2f8299aac454212d28fc0c55a675fe6393aeaa78075857fa1de330faada7b20a49f3c5fd63616c460c7b90d190547e00098a28bcdef8d81aca912881d34db5cac0063036f7264010118746578742f706c61696e3b636861727365743d7574662d3800357b2270223a226272632d3230222c226f70223a226d696e74222c227469636b223a226c6f6c69222c22616d74223a2231303030227d6821c1a49f3c5fd63616c460c7b90d190547e00098a28bcdef8d81aca912881d34db5c00000000"
}