{
  "txid": "3b6d05446036a99cd9467893dc2041ce7c31c7977753fa0ce9372ff2e94e5db8",
  "version": 2,
  "locktime": 0,
  "vin": [
    {
      "txid": "0466e9b3003fab4a11a65cc4cde85989a026bae48b46494dbfb8dee48040f79e",
      "vout": 1,
      "prevout": {
        "scriptpubkey": "51206ae861785fbdae9bc6163a8a8ed044e8a921c6b7483a2a8d02c6c44e7f26fcd3",
        "scriptpubkey_asm": "OP_PUSHNUM_1 OP_PUSHBYTES_32 6ae861785fbdae9bc6163a8a8ed044e8a921c6b7483a2a8d02c6c44e7f26fcd3",
        "scriptpubkey_type": "v1_p2tr",
        "scriptpubkey_address": "bc1pdt5xz7zlhkhfh3sk829ga5zyaz5jr34hfqaz4rgzcmzyulexlnfsf3qkja",
        "value": 71268
      },
      "scriptsig": "",
      "scriptsig_asm": "",
      "witness": [
        "2295ad910a9910f864810131b634681a228620c1e36285826edf374b2bd01091d474b44bcb54dbe3822fe298242541ed7baad283b2aa5639adf91822de930547"
      ],
      "is_coinbase": false,
      "sequence": 4294967295
    }
  ],
  "vout": [
    {
      "scriptpubkey": "5120bea0a1cccd44248db8b2ac6704de16b3b4f50d74897d646b8974a7977d006b12",
      "scriptpubkey_asm": "OP_PUSHNUM_1 OP_PUSHBYTES_32 bea0a1cccd44248db8b2ac6704de16b3b4f50d74897d646b8974a7977d006b12",
      "scriptpubkey_type": "v1_p2tr",
      "scriptpubkey_address": "bc1ph6s2rnxdgsjgmw9j43nsfhskkw602rt5397kg6ufwjnewlgqdvfqmqqv5q",
      "value": 19000
    },
    {
      "scriptpubkey": "51206ae861785fbdae9bc6163a8a8ed044e8a921c6b7483a2a8d02c6c44e7f26fcd3",
      "scriptpubkey_asm": "OP_PUSHNUM_1 OP_PUSHBYTES_32 6ae861785fbdae9bc6163a8a8ed044e8a921c6b7483a2a8d02c6c44e7f26fcd3",
      "scriptpubkey_type": "v1_p2tr",
      "scriptpubkey_address": "bc1pdt5xz7zlhkhfh3sk829ga5zyaz5jr34hfqaz4rgzcmzyulexlnfsf3qkja",
      "value": 50266
    }
  ],
  "size": 205,
  "weight": 616,
  "fee": 2002,
  "status": {
    "confirmed": true,
    "block_height": 834460,
    "block_hash": "00000000000000000000484a79b643b2524bbce82e5d8a442013fa5b8905ed98",
    "block_time": 1710307468
  },
  "hex": "020000000001019ef74080e4deb8bf4d49468be4ba26a08959e8cdc45ca6114aab3f00b3e966040100000000ffffffff02384a000000000000225120bea0a1cccd44248db8b2ac6704de16b3b4f50d74897d646b8974a7977d006b125ac40000000000002251206ae861785fbdae9bc6163a8a8ed044e8a921c6b7483a2a8d02c6c44e7f26fcd301402295ad910a9910f864810131b634681a228620c1e36285826edf374b2bd01091d474b44bcb54dbe3822fe298242541ed7baad283b2aa5639adf91822de93054700000000"
}