{
  "txid": "3b6fbfe0f1a988161cb64a7cd4c9f065ec78913ad0cc60163a5f6810750d2286",
  "version": 1,
  "locktime": 0,
  "vin": [
    {
      "txid": "3a77178cb94271023bc75b7488f60f7b7f0dd4933b2f7b544fae793df718d520",
      "vout": 0,
      "prevout": {
        "scriptpubkey": "001488fb8d525d5d32bfbca99d069f2d11ae9626d946",
        "scriptpubkey_asm": "OP_0 OP_PUSHBYTES_20 88fb8d525d5d32bfbca99d069f2d11ae9626d946",
        "scriptpubkey_type": "v0_p2wpkh",
        "scriptpubkey_address": "bc1q3rac65jat5etl09fn5rf7tg346tzdk2xa783z7",
        "value": 11890
      },
      "scriptsig": "",
      "scriptsig_asm": "",
      "witness": [
        "30440220493f8e5d9535e3bf7fb0d4a88545fa51ce6acc949939572e7f33b2c297eb212d0220534a7a35725c4aae6aa13dfb8defa480cf9a766419e1abca308d0be6049773d301",
        "03e6f6bc1b1bc0873542b61d9dbf5dc9bac0472616f44ca118c05276d296bc7fdc"
      ],
      "is_coinbase": false,
      "sequence": 4294967295
    },
    {
      "txid": "c71e252f9cec9e6602842a4e59d9b1562a1913e89d84417223f942326f97d48e",
      "vout": 1,
      "prevout": {
        "scriptpubkey": "0014c8b60e40427431af1ec59272221f7d6779a4dba3",
        "scriptpubkey_asm": "OP_0 OP_PUSHBYTES_20 c8b60e40427431af1ec59272221f7d6779a4dba3",
        "scriptpubkey_type": "v0_p2wpkh",
        "scriptpubkey_address": "bc1qezmquszzwsc678k9jfezy8mavau6fkar3w20m0",
        "value": 1039629
      },
      "scriptsig": "",
      "scriptsig_asm": "",
      "witness": [
        "30440220367fd2769851f7972fa990f84e8bdcb533eff01ab3c9a01de59db728381649a6022001818285bc97850a0b03d920c0122cbcaf5439d8c40162945ad1dc531ff3a1c101",
        "020c2dd93fe1ed8352534eeaaaa9d84f27a4650c57bda9383ec644f516bfb02158"
      ],
      "is_coinbase": false,
      "sequence": 4294967295
    }
  ],
  "vout": [
    {
      "scriptpubkey": "00145dd9d5655ba410c79accb45555b792d55e0b7b6f",
      "scriptpubkey_asm": "OP_0 OP_PUSHBYTES_20 5dd9d5655ba410c79accb45555b792d55e0b7b6f",
      "scriptpubkey_type": "v0_p2wpkh",
      "scriptpubkey_address": "bc1qthva2e2m5sgv0xkvk324tduj640qk7m0s76vpg",
      "value": 11890
    },
    {
      "scriptpubkey": "001417b78cca137c2aced4eab5f4a54f91c2d967bc90",
      "scriptpubkey_asm": "OP_0 OP_PUSHBYTES_20 17b78cca137c2aced4eab5f4a54f91c2d967bc90",
      "scriptpubkey_type": "v0_p2wpkh",
      "scriptpubkey_address": "bc1qz7mcejsn0s4va482kh622nu3ctvk00ysvmczz5",
      "value": 1037145
    }
  ],
  "size": 370,
  "weight": 832,
  "fee": 2484,
  "status": {
    "confirmed": true,
    "block_height": 834460,
    "block_hash": "00000000000000000000484a79b643b2524bbce82e5d8a442013fa5b8905ed98",
    "block_time": 1710307468
  },
  "hex": "0100000000010220d518f73d79ae4f547b2f3b93d40d7f7b0ff688745bc73b027142b98c17773a0000000000ffffffff8ed4976f3242f9237241849de813192a56b1d9594e2a8402669eec9c2f251ec70100000000ffffffff02722e0000000000001600145dd9d5655ba410c79accb45555b792d55e0b7b6f59d30f000000000016001417b78cca137c2aced4eab5f4a54f91c2d967bc90024730440220493f8e5d9535e3bf7fb0d4a88545fa51ce6acc949939572e7f33b2c297eb212d0220534a7a35725c4aae6aa13dfb8defa480cf9a766419e1abca308d0be6049773d3012103e6f6bc1b1bc0873542b61d9dbf5dc9bac0472616f44ca118c05276d296bc7fdc024730440220367fd2769851f7972fa990f84e8bdcb533eff01ab3c9a01de59db728381649a6022001818285bc97850a0b03d920c0122cbcaf5439d8c40162945ad1dc531ff3a1c10121020c2dd93fe1ed8352534eeaaaa9d84f27a4650c57bda9383ec644f516bfb0215800000000"
}