{
  "txid": "3b759ccdc52c2b27ea0d545b0a25cdc88223914cac6f879d9432072d385508aa",
  "version": 2,
  "locktime": 0,
  "vin": [
    {
      "txid": "80a19be7353fad02bb6d4843d5713828fb78f798d24bf2611fccbe9615b5333e",
      "vout": 5,
      "prevout": {
        "scriptpubkey": "00142ecb8ba1281f8b75f464dbdd2fa2d057c2888186",
        "scriptpubkey_asm": "OP_0 OP_PUSHBYTES_20 2ecb8ba1281f8b75f464dbdd2fa2d057c2888186",
        "scriptpubkey_type": "v0_p2wpkh",
        "scriptpubkey_address": "bc1q9m9chgfgr79htarym0wjlgks2lpg3qvxejjr57",
        "value": 600
      },
      "scriptsig": "",
      "scriptsig_asm": "",
      "witness": [
        "304402201677f3c13d80df92fbcc80017904807bb33a90539de28ead17278a5a8f120cd7022034a9bea54fd1a2fa8664c498f57babe9974824c9d1b60d3310300de38d0c259401",
        "026004e80f78e2da7ab41f6224a530d24060fc8d0c1f52e34b2f5d3c14d86c9308"
      ],
      "is_coinbase": false,
      "sequence": 4294967295
    },
    {
      "txid": "80a19be7353fad02bb6d4843d5713828fb78f798d24bf2611fccbe9615b5333e",
      "vout": 4,
      "prevout": {
        "scriptpubkey": "00142ecb8ba1281f8b75f464dbdd2fa2d057c2888186",
        "scriptpubkey_asm": "OP_0 OP_PUSHBYTES_20 2ecb8ba1281f8b75f464dbdd2fa2d057c2888186",
        "scriptpubkey_type": "v0_p2wpkh",
        "scriptpubkey_address": "bc1q9m9chgfgr79htarym0wjlgks2lpg3qvxejjr57",
        "value": 600
      },
      "scriptsig": "",
      "scriptsig_asm": "",
      "witness": [
        "3045022100f33ae56ff70f4517bfcb4cd71ee5f12e93bced6e8d240207f0daec21b8c6fac302207ba5efcc1c0eeb2721913a02196d9cf3a8b0067abc47d559099572df6e89a0f001",
        "026004e80f78e2da7ab41f6224a530d24060fc8d0c1f52e34b2f5d3c14d86c9308"
      ],
      "is_coinbase": false,
      "sequence": 4294967295
    },
    {
      "txid": "8486ba9af86fe0b9858c3ca8e84b1e1d5a9429a908d507ae299175fb440345f1",
      "vout": 0,
      "prevout": {
        "scriptpubkey": "512089e5d7bc4ab636d5b3ef1133f88bce8d1bf5818757ee6abfa59e3174c4d53118",
        "scriptpubkey_asm": "OP_PUSHNUM_1 OP_PUSHBYTES_32 89e5d7bc4ab636d5b3ef1133f88bce8d1bf5818757ee6abfa59e3174c4d53118",
        "scriptpubkey_type": "v1_p2tr",
        "scriptpubkey_address": "bc1p38ja00z2kcmdtvl0zyel3z7w35dltqv82lhx40a9ncchf3x4xyvqw9msph",
        "value": 546
      },
      "scriptsig": "",
      "scriptsig_asm": "",
      "witness": [
        "4100eb4e953bb1a4d405559008ca237bccb723882e737c209ce538632eddd1275de29db662962be73b669b2ca653f870c04dbaed527e1a464741637686c8eb8883"
      ],
      "is_coinbase": false,
      "sequence": 4294967295
    },
    {
      "txid": "90138cf3e1446167ba35b2b11668bc20d35835e01b8748622370ad9c196e33a4",
      "vout": 2,
      "prevout": {
        "scriptpubkey": "00142ecb8ba1281f8b75f464dbdd2fa2d057c2888186",
        "scriptpubkey_asm": "OP_0 OP_PUSHBYTES_20 2ecb8ba1281f8b75f464dbdd2fa2d057c2888186",
        "scriptpubkey_type": "v0_p2wpkh",
        "scriptpubkey_address": "bc1q9m9chgfgr79htarym0wjlgks2lpg3qvxejjr57",
        "value": 740240
      },
      "scriptsig": "",
      "scriptsig_asm": "",
      "witness": [
        "30440220078bf9b85577a3007534c391c6b15e6b9238f7e413ef1a74604a994ddcded08702203a53b60ddfd42669535432441ca74a147b84e12674e5e349a6471f4b3c156f8a01",
        "026004e80f78e2da7ab41f6224a530d24060fc8d0c1f52e34b2f5d3c14d86c9308"
      ],
      "is_coinbase": false,
      "sequence": 4294967295
    },
    {
      "txid": "1895f0016599088a9424150d87daff78f1eddb537a6b02c642c5a239d2aaeac1",
      "vout": 2,
      "prevout": {
        "scriptpubkey": "00142ecb8ba1281f8b75f464dbdd2fa2d057c2888186",
        "scriptpubkey_asm": "OP_0 OP_PUSHBYTES_20 2ecb8ba1281f8b75f464dbdd2fa2d057c2888186",
        "scriptpubkey_type": "v0_p2wpkh",
        "scriptpubkey_address": "bc1q9m9chgfgr79htarym0wjlgks2lpg3qvxejjr57",
        "value": 681800
      },
      "scriptsig": "",
      "scriptsig_asm": "",
      "witness": [
        "304402200853706ac57f212efad0e89bb3d5be5003045b361ccf4f597b2c0d3ba63accd60220563b5070903eb455f37e745f8bac5ff076df1717d3bc762b002a990ed040bd9301",
        "026004e80f78e2da7ab41f6224a530d24060fc8d0c1f52e34b2f5d3c14d86c9308"
      ],
      "is_coinbase": false,
      "sequence": 4294967295
    },
    {
      "txid": "ab3c9d9bc1d7bc56c6eb3cbdff7f05a791d479a96f47f8b0819c4a87bfe59f01",
      "vout": 2,
      "prevout": {
        "scriptpubkey": "00142ecb8ba1281f8b75f464dbdd2fa2d057c2888186",
        "scriptpubkey_asm": "OP_0 OP_PUSHBYTES_20 2ecb8ba1281f8b75f464dbdd2fa2d057c2888186",
        "scriptpubkey_type": "v0_p2wpkh",
        "scriptpubkey_address": "bc1q9m9chgfgr79htarym0wjlgks2lpg3qvxejjr57",
        "value": 487000
      },
      "scriptsig": "",
      "scriptsig_asm": "",
      "witness": [
        "3045022100b532779d78870ebe667ed267975e86fba999c1ea348a58e04946279afe8e6fa002204e91f7d9bccbe916eba9a01a031e210077e10807166460642b754b38da652bdc01",
        "026004e80f78e2da7ab41f6224a530d24060fc8d0c1f52e34b2f5d3c14d86c9308"
      ],
      "is_coinbase": false,
      "sequence": 4294967295
    }
  ],
  "vout": [
    {
      "scriptpubkey": "00142ecb8ba1281f8b75f464dbdd2fa2d057c2888186",
      "scriptpubkey_asm": "OP_0 OP_PUSHBYTES_20 2ecb8ba1281f8b75f464dbdd2fa2d057c2888186",
      "scriptpubkey_type": "v0_p2wpkh",
      "scriptpubkey_address": "bc1q9m9chgfgr79htarym0wjlgks2lpg3qvxejjr57",
      "value": 1200
    },
    {
      "scriptpubkey": "00142ecb8ba1281f8b75f464dbdd2fa2d057c2888186",
      "scriptpubkey_asm": "OP_0 OP_PUSHBYTES_20 2ecb8ba1281f8b75f464dbdd2fa2d057c2888186",
      "scriptpubkey_type": "v0_p2wpkh",
      "scriptpubkey_address": "bc1q9m9chgfgr79htarym0wjlgks2lpg3qvxejjr57",
      "value": 546
    },
    {
      "scriptpubkey": "512089e5d7bc4ab636d5b3ef1133f88bce8d1bf5818757ee6abfa59e3174c4d53118",
      "scriptpubkey_asm": "OP_PUSHNUM_1 OP_PUSHBYTES_32 89e5d7bc4ab636d5b3ef1133f88bce8d1bf5818757ee6abfa59e3174c4d53118",
      "scriptpubkey_type": "v1_p2tr",
      "scriptpubkey_address": "bc1p38ja00z2kcmdtvl0zyel3z7w35dltqv82lhx40a9ncchf3x4xyvqw9msph",
      "value": 1376000
    },
    {
      "scriptpubkey": "00142ecb8ba1281f8b75f464dbdd2fa2d057c2888186",
      "scriptpubkey_asm": "OP_0 OP_PUSHBYTES_20 2ecb8ba1281f8b75f464dbdd2fa2d057c2888186",
      "scriptpubkey_type": "v0_p2wpkh",
      "scriptpubkey_address": "bc1q9m9chgfgr79htarym0wjlgks2lpg3qvxejjr57",
      "value": 600
    },
    {
      "scriptpubkey": "00142ecb8ba1281f8b75f464dbdd2fa2d057c2888186",
      "scriptpubkey_asm": "OP_0 OP_PUSHBYTES_20 2ecb8ba1281f8b75f464dbdd2fa2d057c2888186",
      "scriptpubkey_type": "v0_p2wpkh",
      "scriptpubkey_address": "bc1q9m9chgfgr79htarym0wjlgks2lpg3qvxejjr57",
      "value": 600
    },
    {
      "scriptpubkey": "00142ecb8ba1281f8b75f464dbdd2fa2d057c2888186",
      "scriptpubkey_asm": "OP_0 OP_PUSHBYTES_20 2ecb8ba1281f8b75f464dbdd2fa2d057c2888186",
      "scriptpubkey_type": "v0_p2wpkh",
      "scriptpubkey_address": "bc1q9m9chgfgr79htarym0wjlgks2lpg3qvxejjr57",
      "value": 522150
    }
  ],
  "size": 1060,
  "weight": 2422,
  "fee": 9690,
  "status": {
    "confirmed": true,
    "block_height": 834638,
    "block_hash": "000000000000000000025f742c626208ac87e0b7d15054abb4a19ca2d735a54e",
    "block_time": 1710405325
  },
  "hex": "020000000001063e33b51596becc1f61f24bd298f778fb283871d543486dbb02ad3f35e79ba1800500000000ffffffff3e33b51596becc1f61f24bd298f778fb283871d543486dbb02ad3f35e79ba1800400000000fffffffff1450344fb759129ae07d508a929945a1d1e4be8a83c8c85b9e06ff89aba86840000000000ffffffffa4336e199cad70236248871be03558d320bc6816b1b235ba676144e1f38c13900200000000ffffffffc1eaaad239a2c542c6026b7a53dbedf178ffda870d1524948a08996501f095180200000000ffffffff019fe5bf874a9c81b0f8476fa979d491a7057fffbd3cebc656bcd7c19b9d3cab0200000000ffffffff06b0040000000000001600142ecb8ba1281f8b75f464dbdd2fa2d057c288818622020000000000001600142ecb8ba1281f8b75f464dbdd2fa2d057c288818600ff14000000000022512089e5d7bc4ab636d5b3ef1133f88bce8d1bf5818757ee6abfa59e3174c4d5311858020000000000001600142ecb8ba1281f8b75f464dbdd2fa2d057c288818658020000000000001600142ecb8ba1281f8b75f464dbdd2fa2d057c2888186a6f70700000000001600142ecb8ba1281f8b75f464dbdd2fa2d057c28881860247304402201677f3c13d80df92fbcc80017904807bb33a90539de28ead17278a5a8f120cd7022034a9bea54fd1a2fa8664c498f57babe9974824c9d1b60d3310300de38d0c25940121026004e80f78e2da7ab41f6224a530d24060fc8d0c1f52e34b2f5d3c14d86c930802483045022100f33ae56ff70f4517bfcb4cd71ee5f12e93bced6e8d240207f0daec21b8c6fac302207ba5efcc1c0eeb2721913a02196d9cf3a8b0067abc47d559099572df6e89a0f00121026004e80f78e2da7ab41f6224a530d24060fc8d0c1f52e34b2f5d3c14d86c930801414100eb4e953bb1a4d405559008ca237bccb723882e737c209ce538632eddd1275de29db662962be73b669b2ca653f870c04dbaed527e1a464741637686c8eb8883024730440220078bf9b85577a3007534c391c6b15e6b9238f7e413ef1a74604a994ddcded08702203a53b60ddfd42669535432441ca74a147b84e12674e5e349a6471f4b3c156f8a0121026004e80f78e2da7ab41f6224a530d24060fc8d0c1f52e34b2f5d3c14d86c93080247304402200853706ac57f212efad0e89bb3d5be5003045b361ccf4f597b2c0d3ba63accd60220563b5070903eb455f37e745f8bac5ff076df1717d3bc762b002a990ed040bd930121026004e80f78e2da7ab41f6224a530d24060fc8d0c1f52e34b2f5d3c14d86c930802483045022100b532779d78870ebe667ed267975e86fba999c1ea348a58e04946279afe8e6fa002204e91f7d9bccbe916eba9a01a031e210077e10807166460642b754b38da652bdc0121026004e80f78e2da7ab41f6224a530d24060fc8d0c1f52e34b2f5d3c14d86c930800000000"
}