{
  "txid": "3b9681e3c166773d2af66da2e0ad4ae3b583b7d1c796f3b8fc1f33f5b13b43cb",
  "version": 2,
  "locktime": 0,
  "vin": [
    {
      "txid": "e7306a101021a3a622b7d8594c75dcce14130c9a0d37e778f4171a4be4aea2c2",
      "vout": 36,
      "prevout": {
        "scriptpubkey": "a9146c14df55c9bc1c5ae22d031d6fc70d07e39f345c87",
        "scriptpubkey_asm": "OP_HASH160 OP_PUSHBYTES_20 6c14df55c9bc1c5ae22d031d6fc70d07e39f345c OP_EQUAL",
        "scriptpubkey_type": "p2sh",
        "scriptpubkey_address": "3BYVuW2zPsPUj1bxHXeqi4gzPF13CLzoGC",
        "value": 611000
      },
      "scriptsig": "1600143707d45cb1bb0856a1bb3133ae71c582b95b653f",
      "scriptsig_asm": "OP_PUSHBYTES_22 00143707d45cb1bb0856a1bb3133ae71c582b95b653f",
      "witness": [
        "3044022040744328d921b650012bdd550bc691db189929ab79f79912f9443b352ca2007c02204d5e1f29032aae11964a271a92d94e6df2d9f0e8dd6feb1a6adf82e017f5669701",
        "03658e73f9fceea3961b4de7f3737e8b92a2caf43d9de538a731a12706660ec8c1"
      ],
      "is_coinbase": false,
      "sequence": 4294967293,
      "inner_redeemscript_asm": "OP_0 OP_PUSHBYTES_20 3707d45cb1bb0856a1bb3133ae71c582b95b653f"
    },
    {
      "txid": "05f7c1e361bd06310f48e9f3c32cf821abf06f9ac0bb6c15d2e096f9742a0f6e",
      "vout": 48,
      "prevout": {
        "scriptpubkey": "a9147db7c37bd405addee1fa6eaaa29de6e576e5925987",
        "scriptpubkey_asm": "OP_HASH160 OP_PUSHBYTES_20 7db7c37bd405addee1fa6eaaa29de6e576e59259 OP_EQUAL",
        "scriptpubkey_type": "p2sh",
        "scriptpubkey_address": "3D9kXeBbAUSCohr2CHXMLvJNGyffXiQKsG",
        "value": 597000
      },
      "scriptsig": "16001449ee96e345b9902acf8d2a4578492f01eeed9f7d",
      "scriptsig_asm": "OP_PUSHBYTES_22 001449ee96e345b9902acf8d2a4578492f01eeed9f7d",
      "witness": [
        "3045022100a9232a97e1d20fc1cb67f25063f3429464f1355ef62a7d16a4f92c68abb54649022067952da3d19624e2df91e628ce52de31dfd2d65b038735b056f844e17ecf49ad01",
        "035dba58a5b33996677a317572cce2b534b7906205f132fb3e61c3eef4a3bcdf03"
      ],
      "is_coinbase": false,
      "sequence": 4294967293,
      "inner_redeemscript_asm": "OP_0 OP_PUSHBYTES_20 49ee96e345b9902acf8d2a4578492f01eeed9f7d"
    },
    {
      "txid": "0953d81e9dc313be517296818cb64c922644d4ef5a14a21805f3b2d277022cfe",
      "vout": 26,
      "prevout": {
        "scriptpubkey": "a91402d362fab0219b985434356ec4019f1eddf96e6387",
        "scriptpubkey_asm": "OP_HASH160 OP_PUSHBYTES_20 02d362fab0219b985434356ec4019f1eddf96e63 OP_EQUAL",
        "scriptpubkey_type": "p2sh",
        "scriptpubkey_address": "31wxWL1HqUDtDod8MqYRjFRp5eSwXihtD9",
        "value": 544000
      },
      "scriptsig": "160014a20305ac40d7817bf776ad8992c448d548cc6826",
      "scriptsig_asm": "OP_PUSHBYTES_22 0014a20305ac40d7817bf776ad8992c448d548cc6826",
      "witness": [
        "3045022100a8dc8ec12e8256556c97ff0a4031090399b22e243f64dcee68023fa0c851580602202c7c2caadd47295dfa7a7ad38354b96d6be088b83aed70ca131164e82a2bb1df01",
        "03313d35a25850f9e1f9dc063ecb36789cd8d43666b59225c908f5e340b2e24323"
      ],
      "is_coinbase": false,
      "sequence": 4294967293,
      "inner_redeemscript_asm": "OP_0 OP_PUSHBYTES_20 a20305ac40d7817bf776ad8992c448d548cc6826"
    },
    {
      "txid": "ce26d2307397246235f2a7f7b5f58c2923c17b5c1094e941e19aba74289000c1",
      "vout": 51,
      "prevout": {
        "scriptpubkey": "a9141e8ed3ba66cd6349705fa08fcd39abe93691cd1d87",
        "scriptpubkey_asm": "OP_HASH160 OP_PUSHBYTES_20 1e8ed3ba66cd6349705fa08fcd39abe93691cd1d OP_EQUAL",
        "scriptpubkey_type": "p2sh",
        "scriptpubkey_address": "34UbJ6aVgxwP2hzwWzmmT2qbMzW7D2dhYu",
        "value": 543000
      },
      "scriptsig": "1600147e52b1137820d5f83d1d120ff57c79158d91f52d",
      "scriptsig_asm": "OP_PUSHBYTES_22 00147e52b1137820d5f83d1d120ff57c79158d91f52d",
      "witness": [
        "3044022018f49d790bead389606718e579d37a6a7d80414ca0d271895490220c0557342c0220058c56c2bf489dc80365b995aea41e6d909d64f8b3a3a6681d5e334660fb5b7f01",
        "02bc128a09c5d9ea686586932249109f78ae060d77d87c2992d9439dc948b19bcc"
      ],
      "is_coinbase": false,
      "sequence": 4294967293,
      "inner_redeemscript_asm": "OP_0 OP_PUSHBYTES_20 7e52b1137820d5f83d1d120ff57c79158d91f52d"
    }
  ],
  "vout": [
    {
      "scriptpubkey": "001400bc731906b4034dca414b96438e53cba9835005",
      "scriptpubkey_asm": "OP_0 OP_PUSHBYTES_20 00bc731906b4034dca414b96438e53cba9835005",
      "scriptpubkey_type": "v0_p2wpkh",
      "scriptpubkey_address": "bc1qqz78xxgxksp5mjjpfwty8rjnew5cx5q9va4jlh",
      "value": 2096598
    },
    {
      "scriptpubkey": "a914c6ac79819f19b0a58bc414f1e452b0600032226287",
      "scriptpubkey_asm": "OP_HASH160 OP_PUSHBYTES_20 c6ac79819f19b0a58bc414f1e452b06000322262 OP_EQUAL",
      "scriptpubkey_type": "p2sh",
      "scriptpubkey_address": "3KoWLGqU1qeypbusiJAJMN1CH7JLKCTfN1",
      "value": 190194
    }
  ],
  "size": 761,
  "weight": 1748,
  "fee": 8208,
  "status": {
    "confirmed": true,
    "block_height": 834638,
    "block_hash": "000000000000000000025f742c626208ac87e0b7d15054abb4a19ca2d735a54e",
    "block_time": 1710405325
  },
  "hex": "02000000000104c2a2aee44b1a17f478e7370d9a0c1314cedc754c59d8b722a6a32110106a30e724000000171600143707d45cb1bb0856a1bb3133ae71c582b95b653ffdffffff6e0f2a74f996e0d2156cbbc09a6ff0ab21f82cc3f3e9480f3106bd61e3c1f705300000001716001449ee96e345b9902acf8d2a4578492f01eeed9f7dfdfffffffe2c0277d2b2f30518a2145aefd44426924cb68c81967251be13c39d1ed853091a00000017160014a20305ac40d7817bf776ad8992c448d548cc6826fdffffffc100902874ba9ae141e994105c7bc123298cf5b5f7a7f2356224977330d226ce33000000171600147e52b1137820d5f83d1d120ff57c79158d91f52dfdffffff02d6fd1f000000000016001400bc731906b4034dca414b96438e53cba9835005f2e602000000000017a914c6ac79819f19b0a58bc414f1e452b060003222628702473044022040744328d921b650012bdd550bc691db189929ab79f79912f9443b352ca2007c02204d5e1f29032aae11964a271a92d94e6df2d9f0e8dd6feb1a6adf82e017f56697012103658e73f9fceea3961b4de7f3737e8b92a2caf43d9de538a731a12706660ec8c102483045022100a9232a97e1d20fc1cb67f25063f3429464f1355ef62a7d16a4f92c68abb54649022067952da3d19624e2df91e628ce52de31dfd2d65b038735b056f844e17ecf49ad0121035dba58a5b33996677a317572cce2b534b7906205f132fb3e61c3eef4a3bcdf0302483045022100a8dc8ec12e8256556c97ff0a4031090399b22e243f64dcee68023fa0c851580602202c7c2caadd47295dfa7a7ad38354b96d6be088b83aed70ca131164e82a2bb1df012103313d35a25850f9e1f9dc063ecb36789cd8d43666b59225c908f5e340b2e2432302473044022018f49d790bead389606718e579d37a6a7d80414ca0d271895490220c0557342c0220058c56c2bf489dc80365b995aea41e6d909d64f8b3a3a6681d5e334660fb5b7f012102bc128a09c5d9ea686586932249109f78ae060d77d87c2992d9439dc948b19bcc00000000"
}