{
  "txid": "3b994365137d38fad1a4a5350adf009d94c5cfda6109b24ee0ed57c4d9c54fc6",
  "version": 2,
  "locktime": 0,
  "vin": [
    {
      "txid": "f2b5fefb017eab75631e2b92cabe158537550a6bbde947c9865442f19127d824",
      "vout": 0,
      "prevout": {
        "scriptpubkey": "0014d740977b858f37a16ec7ce056b705425fa2c522d",
        "scriptpubkey_asm": "OP_0 OP_PUSHBYTES_20 d740977b858f37a16ec7ce056b705425fa2c522d",
        "scriptpubkey_type": "v0_p2wpkh",
        "scriptpubkey_address": "bc1q6aqfw7u93um6zmk8eczkkuz5yhazc53ddpuwvk",
        "value": 25000
      },
      "scriptsig": "",
      "scriptsig_asm": "",
      "witness": [
        "3045022100a22f802e6b707a6d3d52f3bde5e015f313502ea82a6137eaccb26673fb7cc842022069a63dda5caca434a6edebe0eea577c33f6f3ab9705ebb4b968505fe16adbdd901",
        "029caa2b107e1b41de9bb61af5e52c9e113bed6b8b5ce4ecc6a7f9b7a39bbf569d"
      ],
      "is_coinbase": false,
      "sequence": 4294967295
    },
    {
      "txid": "435b2db0223905f96e49338d126962e936eeccbbf808ba3c19869869ec85c4ba",
      "vout": 1,
      "prevout": {
        "scriptpubkey": "0014d740977b858f37a16ec7ce056b705425fa2c522d",
        "scriptpubkey_asm": "OP_0 OP_PUSHBYTES_20 d740977b858f37a16ec7ce056b705425fa2c522d",
        "scriptpubkey_type": "v0_p2wpkh",
        "scriptpubkey_address": "bc1q6aqfw7u93um6zmk8eczkkuz5yhazc53ddpuwvk",
        "value": 25000
      },
      "scriptsig": "",
      "scriptsig_asm": "",
      "witness": [
        "3045022100a293a916dbcb381c57e22b07aff58557d707a3d1cb89b52371dd0ea0e2382aba0220703cfbd5b666b76ea4ec2fb4673c80fa2e433bff6d669ea9d14b5f8e5bf8ddde01",
        "029caa2b107e1b41de9bb61af5e52c9e113bed6b8b5ce4ecc6a7f9b7a39bbf569d"
      ],
      "is_coinbase": false,
      "sequence": 4294967295
    },
    {
      "txid": "142bd6dc77c1ee46b20a559da16d2a69c868c06d5e8c76440b918fe3905adaa9",
      "vout": 0,
      "prevout": {
        "scriptpubkey": "0014d740977b858f37a16ec7ce056b705425fa2c522d",
        "scriptpubkey_asm": "OP_0 OP_PUSHBYTES_20 d740977b858f37a16ec7ce056b705425fa2c522d",
        "scriptpubkey_type": "v0_p2wpkh",
        "scriptpubkey_address": "bc1q6aqfw7u93um6zmk8eczkkuz5yhazc53ddpuwvk",
        "value": 25000
      },
      "scriptsig": "",
      "scriptsig_asm": "",
      "witness": [
        "3045022100f304cf98f105db8ee18f5ba36276493915e372ebd426e87306fd797f7ec1e5480220701d95b3626e9a421baa47c6fe9b9b5c0e0a2520ce1cf2b2ca077c4c9bb41b3401",
        "029caa2b107e1b41de9bb61af5e52c9e113bed6b8b5ce4ecc6a7f9b7a39bbf569d"
      ],
      "is_coinbase": false,
      "sequence": 4294967295
    },
    {
      "txid": "dfc4f90a2fb5d6199e75bab4aa30a271a3d43a8034ced4c7043219ea3294e6bf",
      "vout": 0,
      "prevout": {
        "scriptpubkey": "0014d740977b858f37a16ec7ce056b705425fa2c522d",
        "scriptpubkey_asm": "OP_0 OP_PUSHBYTES_20 d740977b858f37a16ec7ce056b705425fa2c522d",
        "scriptpubkey_type": "v0_p2wpkh",
        "scriptpubkey_address": "bc1q6aqfw7u93um6zmk8eczkkuz5yhazc53ddpuwvk",
        "value": 25000
      },
      "scriptsig": "",
      "scriptsig_asm": "",
      "witness": [
        "30440220606f7554b010a7687fc999c0ade07fe5c5a92b434a953c098466e569bb3322b90220703c1bb42dbaef117ee98d1935216e043f6266206d03be1bfe1f39e824975f6101",
        "029caa2b107e1b41de9bb61af5e52c9e113bed6b8b5ce4ecc6a7f9b7a39bbf569d"
      ],
      "is_coinbase": false,
      "sequence": 4294967295
    },
    {
      "txid": "40c1071640080b7f09ec439a8a6a7bf85f431f9edfa566dbbe65e0c682666e4c",
      "vout": 0,
      "prevout": {
        "scriptpubkey": "0014d740977b858f37a16ec7ce056b705425fa2c522d",
        "scriptpubkey_asm": "OP_0 OP_PUSHBYTES_20 d740977b858f37a16ec7ce056b705425fa2c522d",
        "scriptpubkey_type": "v0_p2wpkh",
        "scriptpubkey_address": "bc1q6aqfw7u93um6zmk8eczkkuz5yhazc53ddpuwvk",
        "value": 25000
      },
      "scriptsig": "",
      "scriptsig_asm": "",
      "witness": [
        "304402200c93c3c95fb0891b6424339851f8eec02d1d457460a20b64ca455cda7e74693d0220203a89ec98718b507d472540a5533b75e1ebbdcb53945ae4f9381cbc2330274501",
        "029caa2b107e1b41de9bb61af5e52c9e113bed6b8b5ce4ecc6a7f9b7a39bbf569d"
      ],
      "is_coinbase": false,
      "sequence": 4294967295
    },
    {
      "txid": "482fc3dfe48b80e40e1404a2de64a0b8a466a163210427848b6eb3e54e2ad66e",
      "vout": 3,
      "prevout": {
        "scriptpubkey": "0014d740977b858f37a16ec7ce056b705425fa2c522d",
        "scriptpubkey_asm": "OP_0 OP_PUSHBYTES_20 d740977b858f37a16ec7ce056b705425fa2c522d",
        "scriptpubkey_type": "v0_p2wpkh",
        "scriptpubkey_address": "bc1q6aqfw7u93um6zmk8eczkkuz5yhazc53ddpuwvk",
        "value": 25000
      },
      "scriptsig": "",
      "scriptsig_asm": "",
      "witness": [
        "304402204ea46b9cf6f5ade6f8655db8f21107255025077817dc33f68d969970daeb193b022066a0fd2dabf33665b522dc362610f57856f8716d42b9924280752d9a6facf16b01",
        "029caa2b107e1b41de9bb61af5e52c9e113bed6b8b5ce4ecc6a7f9b7a39bbf569d"
      ],
      "is_coinbase": false,
      "sequence": 4294967295
    },
    {
      "txid": "976e2a44c150891cf12c856d059a7bd0e0b0b5b3ae1a4a96866a8e341ec399c0",
      "vout": 4,
      "prevout": {
        "scriptpubkey": "0014d740977b858f37a16ec7ce056b705425fa2c522d",
        "scriptpubkey_asm": "OP_0 OP_PUSHBYTES_20 d740977b858f37a16ec7ce056b705425fa2c522d",
        "scriptpubkey_type": "v0_p2wpkh",
        "scriptpubkey_address": "bc1q6aqfw7u93um6zmk8eczkkuz5yhazc53ddpuwvk",
        "value": 25000
      },
      "scriptsig": "",
      "scriptsig_asm": "",
      "witness": [
        "3044022064a427c6418373ef62a2edb782c147171eabbfb8183e22fb2766f3b1a2be96d702200efb72bea142d0a8c4a9decd728e7fabe9d48374bac5ec30c5ef9972e1c73d1801",
        "029caa2b107e1b41de9bb61af5e52c9e113bed6b8b5ce4ecc6a7f9b7a39bbf569d"
      ],
      "is_coinbase": false,
      "sequence": 4294967295
    },
    {
      "txid": "f7824f35f88d49fe1b657265e72b1cc5a970fdcd1614959e17f3421b1e582a21",
      "vout": 3,
      "prevout": {
        "scriptpubkey": "0014d740977b858f37a16ec7ce056b705425fa2c522d",
        "scriptpubkey_asm": "OP_0 OP_PUSHBYTES_20 d740977b858f37a16ec7ce056b705425fa2c522d",
        "scriptpubkey_type": "v0_p2wpkh",
        "scriptpubkey_address": "bc1q6aqfw7u93um6zmk8eczkkuz5yhazc53ddpuwvk",
        "value": 25000
      },
      "scriptsig": "",
      "scriptsig_asm": "",
      "witness": [
        "3045022100d1979f13e7e002095e0bc412e2bef66668cfb883bca82d6a00303d890dd867f3022044b988d4fef0eb71d0fdcf2f3254c2563086154304d0f6a378a77ba253ec959501",
        "029caa2b107e1b41de9bb61af5e52c9e113bed6b8b5ce4ecc6a7f9b7a39bbf569d"
      ],
      "is_coinbase": false,
      "sequence": 4294967295
    }
  ],
  "vout": [
    {
      "scriptpubkey": "0014419854753506f2b3e771860f36eb919d89cc890f",
      "scriptpubkey_asm": "OP_0 OP_PUSHBYTES_20 419854753506f2b3e771860f36eb919d89cc890f",
      "scriptpubkey_type": "v0_p2wpkh",
      "scriptpubkey_address": "bc1qgxv9gaf4qmet8em3sc8nd6u3nkyuezg0cg9p36",
      "value": 2222
    },
    {
      "scriptpubkey": "0014c3da1e98f377468b1dc302483d79507b75b62ce2",
      "scriptpubkey_asm": "OP_0 OP_PUSHBYTES_20 c3da1e98f377468b1dc302483d79507b75b62ce2",
      "scriptpubkey_type": "v0_p2wpkh",
      "scriptpubkey_address": "bc1qc0dpax8nwargk8wrqfyr672s0d6mvt8z0zj95y",
      "value": 189462
    }
  ],
  "size": 1262,
  "weight": 2462,
  "fee": 8316,
  "status": {
    "confirmed": true,
    "block_height": 834460,
    "block_hash": "00000000000000000000484a79b643b2524bbce82e5d8a442013fa5b8905ed98",
    "block_time": 1710307468
  },
  "hex": "0200000000010824d82791f1425486c947e9bd6b0a55378515beca922b1e6375ab7e01fbfeb5f20000000000ffffffffbac485ec699886193cba08f8bbccee36e96269128d33496ef9053922b02d5b430100000000ffffffffa9da5a90e38f910b44768c5e6dc068c8692a6da19d550ab246eec177dcd62b140000000000ffffffffbfe69432ea193204c7d4ce34803ad4a371a230aab4ba759e19d6b52f0af9c4df0000000000ffffffff4c6e6682c6e065bedb66a5df9e1f435ff87b6a8a9a43ec097f0b08401607c1400000000000ffffffff6ed62a4ee5b36e8b8427042163a166a4b8a064dea204140ee4808be4dfc32f480300000000ffffffffc099c31e348e6a86964a1aaeb3b5b0e0d07b9a056d852cf11c8950c1442a6e970400000000ffffffff212a581e1b42f3179e951416cdfd70a9c51c2be76572651bfe498df8354f82f70300000000ffffffff02ae08000000000000160014419854753506f2b3e771860f36eb919d89cc890f16e4020000000000160014c3da1e98f377468b1dc302483d79507b75b62ce202483045022100a22f802e6b707a6d3d52f3bde5e015f313502ea82a6137eaccb26673fb7cc842022069a63dda5caca434a6edebe0eea577c33f6f3ab9705ebb4b968505fe16adbdd90121029caa2b107e1b41de9bb61af5e52c9e113bed6b8b5ce4ecc6a7f9b7a39bbf569d02483045022100a293a916dbcb381c57e22b07aff58557d707a3d1cb89b52371dd0ea0e2382aba0220703cfbd5b666b76ea4ec2fb4673c80fa2e433bff6d669ea9d14b5f8e5bf8ddde0121029caa2b107e1b41de9bb61af5e52c9e113bed6b8b5ce4ecc6a7f9b7a39bbf569d02483045022100f304cf98f105db8ee18f5ba36276493915e372ebd426e87306fd797f7ec1e5480220701d95b3626e9a421baa47c6fe9b9b5c0e0a2520ce1cf2b2ca077c4c9bb41b340121029caa2b107e1b41de9bb61af5e52c9e113bed6b8b5ce4ecc6a7f9b7a39bbf569d024730440220606f7554b010a7687fc999c0ade07fe5c5a92b434a953c098466e569bb3322b90220703c1bb42dbaef117ee98d1935216e043f6266206d03be1bfe1f39e824975f610121029caa2b107e1b41de9bb61af5e52c9e113bed6b8b5ce4ecc6a7f9b7a39bbf569d0247304402200c93c3c95fb0891b6424339851f8eec02d1d457460a20b64ca455cda7e74693d0220203a89ec98718b507d472540a5533b75e1ebbdcb53945ae4f9381cbc233027450121029caa2b107e1b41de9bb61af5e52c9e113bed6b8b5ce4ecc6a7f9b7a39bbf569d0247304402204ea46b9cf6f5ade6f8655db8f21107255025077817dc33f68d969970daeb193b022066a0fd2dabf33665b522dc362610f57856f8716d42b9924280752d9a6facf16b0121029caa2b107e1b41de9bb61af5e52c9e113bed6b8b5ce4ecc6a7f9b7a39bbf569d02473044022064a427c6418373ef62a2edb782c147171eabbfb8183e22fb2766f3b1a2be96d702200efb72bea142d0a8c4a9decd728e7fabe9d48374bac5ec30c5ef9972e1c73d180121029caa2b107e1b41de9bb61af5e52c9e113bed6b8b5ce4ecc6a7f9b7a39bbf569d02483045022100d1979f13e7e002095e0bc412e2bef66668cfb883bca82d6a00303d890dd867f3022044b988d4fef0eb71d0fdcf2f3254c2563086154304d0f6a378a77ba253ec95950121029caa2b107e1b41de9bb61af5e52c9e113bed6b8b5ce4ecc6a7f9b7a39bbf569d00000000"
}