{
  "txid": "3bae6cbc781f2c93b349959a364c7f1d62b945622a2bfd28fcd7b00b5e150a52",
  "version": 1,
  "locktime": 0,
  "vin": [
    {
      "txid": "159467c934b74823efdb88851cea57ff175b737d7edd4e0e8c82ee4be9b7cfc1",
      "vout": 61,
      "prevout": {
        "scriptpubkey": "00141aa5586fc419da026abe9a80be049642586d3c3e",
        "scriptpubkey_asm": "OP_0 OP_PUSHBYTES_20 1aa5586fc419da026abe9a80be049642586d3c3e",
        "scriptpubkey_type": "v0_p2wpkh",
        "scriptpubkey_address": "bc1qr2j4sm7yr8dqy647n2qtupykgfvx60p7mwugfx",
        "value": 47825
      },
      "scriptsig": "",
      "scriptsig_asm": "",
      "witness": [
        "3045022100b4e819729370a68da7c42a438079e5a06d496978df9af1424d3da653bb56c0e0022042e6b85fb2e278b2bff57e9fa87913ab4e0af36495cb07a95cfacc098a8d236601",
        "0278eeab9dba09e79fc2a6470135ea0412a90e5b5ee5712e17bd33cbfd6486af6c"
      ],
      "is_coinbase": false,
      "sequence": 4294967293
    },
    {
      "txid": "e560175209913729e956b219a1e58445b9caa4897eded3d0b1ac1219356db6a3",
      "vout": 25,
      "prevout": {
        "scriptpubkey": "001450c5510bce6f1ace2fa332408a122f256ba870a4",
        "scriptpubkey_asm": "OP_0 OP_PUSHBYTES_20 50c5510bce6f1ace2fa332408a122f256ba870a4",
        "scriptpubkey_type": "v0_p2wpkh",
        "scriptpubkey_address": "bc1q2rz4zz7wdudvutarxfqg5y30y446su9y4sr46j",
        "value": 47813
      },
      "scriptsig": "",
      "scriptsig_asm": "",
      "witness": [
        "30450221009e7ba8cd9720799e3a866cbf110aecc171b159db7b7122c8b145f63f704ed5f102205679339597b71817243b276369e4f1ad251cbe7b9afb24897af87fdb123d672c01",
        "0231bf3f6e39f786df7dd928a4d3f7acdc96e8dffb9ca1f49f6d95d0aec9371aff"
      ],
      "is_coinbase": false,
      "sequence": 4294967293
    },
    {
      "txid": "000ffe4c8fd4c56f1d4a928c89b188d85b0482694cc8b865f7991e5f30ccce9b",
      "vout": 77,
      "prevout": {
        "scriptpubkey": "001455fd194b7122ded1b15dbb03604aed345633b018",
        "scriptpubkey_asm": "OP_0 OP_PUSHBYTES_20 55fd194b7122ded1b15dbb03604aed345633b018",
        "scriptpubkey_type": "v0_p2wpkh",
        "scriptpubkey_address": "bc1q2h73jjm3yt0drv2ahvpkqjhdx3tr8vqclgr8ft",
        "value": 47809
      },
      "scriptsig": "",
      "scriptsig_asm": "",
      "witness": [
        "30440220503e0ebf62384a401beca218c868c2c88914bf30a32ce458c12f13785b8f269e02200224f707e9b274598d0d765795ba15c6873f2a8280c61b4d341d88ac723c0a3b01",
        "02995711503a4fb1ebb9f28d20f6698590f44bc2c3b20dba2c60b2afb899ea5bb7"
      ],
      "is_coinbase": false,
      "sequence": 4294967293
    }
  ],
  "vout": [
    {
      "scriptpubkey": "76a914119d9da166ef34e019e35a0ebfad17a34cdfc9c388ac",
      "scriptpubkey_asm": "OP_DUP OP_HASH160 OP_PUSHBYTES_20 119d9da166ef34e019e35a0ebfad17a34cdfc9c3 OP_EQUALVERIFY OP_CHECKSIG",
      "scriptpubkey_type": "p2pkh",
      "scriptpubkey_address": "12c9JbWbL8jNEZJYCnce2hDxELGkaViz8s",
      "value": 136007
    }
  ],
  "size": 492,
  "weight": 993,
  "fee": 7440,
  "status": {
    "confirmed": true,
    "block_height": 834638,
    "block_hash": "000000000000000000025f742c626208ac87e0b7d15054abb4a19ca2d735a54e",
    "block_time": 1710405325
  },
  "hex": "01000000000103c1cfb7e94bee828c0e4edd7e7d735b17ff57ea1c8588dbef2348b734c96794153d00000000fdffffffa3b66d351912acb1d0d3de7e89a4cab94584e5a119b256e929379109521760e51900000000fdffffff9bcecc305f1e99f765b8c84c6982045bd888b1898c924a1d6fc5d48f4cfe0f004d00000000fdffffff0147130200000000001976a914119d9da166ef34e019e35a0ebfad17a34cdfc9c388ac02483045022100b4e819729370a68da7c42a438079e5a06d496978df9af1424d3da653bb56c0e0022042e6b85fb2e278b2bff57e9fa87913ab4e0af36495cb07a95cfacc098a8d236601210278eeab9dba09e79fc2a6470135ea0412a90e5b5ee5712e17bd33cbfd6486af6c024830450221009e7ba8cd9720799e3a866cbf110aecc171b159db7b7122c8b145f63f704ed5f102205679339597b71817243b276369e4f1ad251cbe7b9afb24897af87fdb123d672c01210231bf3f6e39f786df7dd928a4d3f7acdc96e8dffb9ca1f49f6d95d0aec9371aff024730440220503e0ebf62384a401beca218c868c2c88914bf30a32ce458c12f13785b8f269e02200224f707e9b274598d0d765795ba15c6873f2a8280c61b4d341d88ac723c0a3b012102995711503a4fb1ebb9f28d20f6698590f44bc2c3b20dba2c60b2afb899ea5bb700000000"
}