{
  "txid": "3bbdbf84ef9d3146ac7f2ea6ae46ab75cb62b2abddee79cc9cf2eb5de94aaf40",
  "version": 2,
  "locktime": 0,
  "vin": [
    {
      "txid": "acc3ba00869acb582a3f2904ce3a11dd3779350ce234063fc7d0959246213364",
      "vout": 206,
      "prevout": {
        "scriptpubkey": "5120dde40eff39b43408d033b12da445497792546e34cbd5575f89bd4fbe993a82ac",
        "scriptpubkey_asm": "OP_PUSHNUM_1 OP_PUSHBYTES_32 dde40eff39b43408d033b12da445497792546e34cbd5575f89bd4fbe993a82ac",
        "scriptpubkey_type": "v1_p2tr",
        "scriptpubkey_address": "bc1pmhjqaleeks6q35pnkyk6g32fw7f9gm35e024whufh48maxf6s2kqt0ge9g",
        "value": 1806
      },
      "scriptsig": "",
      "scriptsig_asm": "",
      "witness": [
        "4266c08cf5e5192fff9714d79c849ced8b065866a6dc55cbb95d63628fb5946a43a4967c9e3cb786cafa489587051357c2401f42cc67bf4dae8dd98235a84e62",
        "20553ef1af457bf3769f26e7185e5b3fb34f768b976a47607b373c76e038c87af2ac0063036f726401010a746578742f706c61696e00357b2270223a226272632d3230222c226f70223a226d696e74222c227469636b223a22646f6765222c22616d74223a2234323030227d68",
        "c0553ef1af457bf3769f26e7185e5b3fb34f768b976a47607b373c76e038c87af2"
      ],
      "is_coinbase": false,
      "sequence": 4261412863
    }
  ],
  "vout": [
    {
      "scriptpubkey": "00147a665de7a370f4c9b372ab1fae587500a5bcbdb4",
      "scriptpubkey_asm": "OP_0 OP_PUSHBYTES_20 7a665de7a370f4c9b372ab1fae587500a5bcbdb4",
      "scriptpubkey_type": "v0_p2wpkh",
      "scriptpubkey_address": "bc1q0fn9mearwr6vnvmj4v06ukr4qzjme0d565dzcx",
      "value": 294
    }
  ],
  "size": 294,
  "weight": 540,
  "fee": 1512,
  "status": {
    "confirmed": true,
    "block_height": 834460,
    "block_hash": "00000000000000000000484a79b643b2524bbce82e5d8a442013fa5b8905ed98",
    "block_time": 1710307468
  },
  "hex": "02000000000101643321469295d0c73f0634e20c357937dd113ace04293f2a58cb9a8600bac3acce00000000fffffffd0126010000000000001600147a665de7a370f4c9b372ab1fae587500a5bcbdb403404266c08cf5e5192fff9714d79c849ced8b065866a6dc55cbb95d63628fb5946a43a4967c9e3cb786cafa489587051357c2401f42cc67bf4dae8dd98235a84e626d20553ef1af457bf3769f26e7185e5b3fb34f768b976a47607b373c76e038c87af2ac0063036f726401010a746578742f706c61696e00357b2270223a226272632d3230222c226f70223a226d696e74222c227469636b223a22646f6765222c22616d74223a2234323030227d6821c0553ef1af457bf3769f26e7185e5b3fb34f768b976a47607b373c76e038c87af200000000"
}