{
  "txid": "3bc7809e5e37b5f67db4d3a5f9dfc69e2c96aa6eaf68c5b03a596dab012d079f",
  "version": 2,
  "locktime": 834462,
  "vin": [
    {
      "txid": "f561dd555e9726ed474a1f5cb1dbcaceb70496264f485d77372771d9504c2e77",
      "vout": 0,
      "prevout": {
        "scriptpubkey": "0014732dd5ddd4ac87c164321813a5b9f143dcdc901a",
        "scriptpubkey_asm": "OP_0 OP_PUSHBYTES_20 732dd5ddd4ac87c164321813a5b9f143dcdc901a",
        "scriptpubkey_type": "v0_p2wpkh",
        "scriptpubkey_address": "bc1qwvkathw54jruzepjrqf6tw03g0wdeyq6r6p4p3",
        "value": 176343279
      },
      "scriptsig": "",
      "scriptsig_asm": "",
      "witness": [
        "304402204bbf3a12dc8ac949e9c8c488d7767a2a1750d2080e9111ec3cfadf739c091e7902204c5a742e8096f2a34aec507ad6d5fa0d6925dd25ce79a8d25d042d392354b7a201",
        "024ce65459b4fb5069990de11b6e4bcf22ef5be909966379abc147f0a86b26e988"
      ],
      "is_coinbase": false,
      "sequence": 4294967294
    }
  ],
  "vout": [
    {
      "scriptpubkey": "00148bde963bcd10ee1a32c72542e908f592269302c4",
      "scriptpubkey_asm": "OP_0 OP_PUSHBYTES_20 8bde963bcd10ee1a32c72542e908f592269302c4",
      "scriptpubkey_type": "v0_p2wpkh",
      "scriptpubkey_address": "bc1q300fvw7dzrhp5vk8y4pwjz84jgnfxqky905cvv",
      "value": 2800700
    },
    {
      "scriptpubkey": "00146ed1c827e16338c36de7fac1e1ce98039f423e97",
      "scriptpubkey_asm": "OP_0 OP_PUSHBYTES_20 6ed1c827e16338c36de7fac1e1ce98039f423e97",
      "scriptpubkey_type": "v0_p2wpkh",
      "scriptpubkey_address": "bc1qdmgusflpvvuvxm08ltq7rn5cqw05y05hqxmtj8",
      "value": 173539470
    }
  ],
  "size": 222,
  "weight": 561,
  "fee": 3109,
  "status": {
    "confirmed": true,
    "block_height": 834464,
    "block_hash": "0000000000000000000177a0869a911a2b65c9bdcd5a8bcb02b68f305bee848e",
    "block_time": 1710308296
  },
  "hex": "02000000000101772e4c50d9712737775d484f269604b7cecadbb15c1f4a47ed26975e55dd61f50000000000feffffff023cbc2a00000000001600148bde963bcd10ee1a32c72542e908f592269302c48e00580a000000001600146ed1c827e16338c36de7fac1e1ce98039f423e970247304402204bbf3a12dc8ac949e9c8c488d7767a2a1750d2080e9111ec3cfadf739c091e7902204c5a742e8096f2a34aec507ad6d5fa0d6925dd25ce79a8d25d042d392354b7a20121024ce65459b4fb5069990de11b6e4bcf22ef5be909966379abc147f0a86b26e9889ebb0c00"
}