{
  "txid": "3bccf768043487e4680f108599ddf52a68c60d217a1bab253d4e3026b7221d8e",
  "version": 1,
  "locktime": 0,
  "vin": [
    {
      "txid": "c44b746e2a9497476e691cba48fbb751c245855cd59fc2bb321b2d0b4598a96f",
      "vout": 1,
      "prevout": {
        "scriptpubkey": "76a9141e7c72c338f790b929422397218d8785a4aeda6188ac",
        "scriptpubkey_asm": "OP_DUP OP_HASH160 OP_PUSHBYTES_20 1e7c72c338f790b929422397218d8785a4aeda61 OP_EQUALVERIFY OP_CHECKSIG",
        "scriptpubkey_type": "p2pkh",
        "scriptpubkey_address": "13nCMaHDNRGM29UfMMkhUQjHkVYY1ZyrpU",
        "value": 36889850
      },
      "scriptsig": "47304402203331729b7aff33d112a9e79ab0bae4d45d030dbd55366b161e91945937f0729402203494256c76f71f571a19e58590ff895a5ced318c06c8f0869bc76e449c865f3a0121031e9a636ef528970636cc811384ffde2a2c6d131a67d02e8e082b0c09c1669f54",
      "scriptsig_asm": "OP_PUSHBYTES_71 304402203331729b7aff33d112a9e79ab0bae4d45d030dbd55366b161e91945937f0729402203494256c76f71f571a19e58590ff895a5ced318c06c8f0869bc76e449c865f3a01 OP_PUSHBYTES_33 031e9a636ef528970636cc811384ffde2a2c6d131a67d02e8e082b0c09c1669f54",
      "is_coinbase": false,
      "sequence": 1
    }
  ],
  "vout": [
    {
      "scriptpubkey": "a914b54c9cc84e52ea44eebaf7101edce19b501e671787",
      "scriptpubkey_asm": "OP_HASH160 OP_PUSHBYTES_20 b54c9cc84e52ea44eebaf7101edce19b501e6717 OP_EQUAL",
      "scriptpubkey_type": "p2sh",
      "scriptpubkey_address": "3JDe1PabxFm4eVGRMcUn73wakb9hbvydSv",
      "value": 930000
    },
    {
      "scriptpubkey": "76a9141e7c72c338f790b929422397218d8785a4aeda6188ac",
      "scriptpubkey_asm": "OP_DUP OP_HASH160 OP_PUSHBYTES_20 1e7c72c338f790b929422397218d8785a4aeda61 OP_EQUALVERIFY OP_CHECKSIG",
      "scriptpubkey_type": "p2pkh",
      "scriptpubkey_address": "13nCMaHDNRGM29UfMMkhUQjHkVYY1ZyrpU",
      "value": 35955330
    }
  ],
  "size": 223,
  "weight": 892,
  "fee": 4520,
  "status": {
    "confirmed": true,
    "block_height": 834638,
    "block_hash": "000000000000000000025f742c626208ac87e0b7d15054abb4a19ca2d735a54e",
    "block_time": 1710405325
  },
  "hex": "01000000016fa998450b2d1b32bbc29fd55c8545c251b7fb48ba1c696e4797942a6e744bc4010000006a47304402203331729b7aff33d112a9e79ab0bae4d45d030dbd55366b161e91945937f0729402203494256c76f71f571a19e58590ff895a5ced318c06c8f0869bc76e449c865f3a0121031e9a636ef528970636cc811384ffde2a2c6d131a67d02e8e082b0c09c1669f540100000002d0300e000000000017a914b54c9cc84e52ea44eebaf7101edce19b501e67178782a22402000000001976a9141e7c72c338f790b929422397218d8785a4aeda6188ac00000000"
}