{
  "txid": "3be36e39f1aacb33a2b29084ce99a53398193ae5ba2cd316f004eaf527f0c73f",
  "version": 1,
  "locktime": 0,
  "vin": [
    {
      "txid": "97a894e647d68688c4ad5742279a1d975cc77a5031b41b1666c9066caa901fb6",
      "vout": 2,
      "prevout": {
        "scriptpubkey": "001403bbadd2084dd90964c282a77d7c19666380e2c1",
        "scriptpubkey_asm": "OP_0 OP_PUSHBYTES_20 03bbadd2084dd90964c282a77d7c19666380e2c1",
        "scriptpubkey_type": "v0_p2wpkh",
        "scriptpubkey_address": "bc1qqwa6m5sgfhvsjexzs2nh6lqeve3cpckpkjcuxs",
        "value": 68000
      },
      "scriptsig": "",
      "scriptsig_asm": "",
      "witness": [
        "3045022100d83035511b447e7debc6e50936a3bd934d8e86d5fe07f8153a114579f816ec7b0220694ef7588a61d7fa4f9880ac286b27ad6c810177f0369348fe13230a2e2619bc01",
        "03897e5057aeebac995ae7ddeb1f2ea4e01d6eadfae668c80f0808e11ed61ff588"
      ],
      "is_coinbase": false,
      "sequence": 4294967295
    }
  ],
  "vout": [
    {
      "scriptpubkey": "0014d914074d8d878613047b2bd7a246ef8e91252c85",
      "scriptpubkey_asm": "OP_0 OP_PUSHBYTES_20 d914074d8d878613047b2bd7a246ef8e91252c85",
      "scriptpubkey_type": "v0_p2wpkh",
      "scriptpubkey_address": "bc1qmy2qwnvds7rpxprm90t6y3h036gj2ty9qdl8ld",
      "value": 66125
    }
  ],
  "size": 192,
  "weight": 438,
  "fee": 1875,
  "status": {
    "confirmed": true,
    "block_height": 834638,
    "block_hash": "000000000000000000025f742c626208ac87e0b7d15054abb4a19ca2d735a54e",
    "block_time": 1710405325
  },
  "hex": "01000000000101b61f90aa6c06c966161bb431507ac75c971d9a274257adc48886d647e694a8970200000000ffffffff014d02010000000000160014d914074d8d878613047b2bd7a246ef8e91252c8502483045022100d83035511b447e7debc6e50936a3bd934d8e86d5fe07f8153a114579f816ec7b0220694ef7588a61d7fa4f9880ac286b27ad6c810177f0369348fe13230a2e2619bc012103897e5057aeebac995ae7ddeb1f2ea4e01d6eadfae668c80f0808e11ed61ff58800000000"
}