{
  "txid": "3bef08d2589d3f05b995800795f75e3b81d3690d36fd2a381573d6c5d4f13bb3",
  "version": 2,
  "locktime": 0,
  "vin": [
    {
      "txid": "e054c137725b7a5d163dade8f5cd68c0927a2e8b00d920927dab9a7ba934ce5f",
      "vout": 18,
      "prevout": {
        "scriptpubkey": "5120b75669f5206ca3d68e7b68b0cb96f7867f7e46c9da2799f097ba3fda4ace165b",
        "scriptpubkey_asm": "OP_PUSHNUM_1 OP_PUSHBYTES_32 b75669f5206ca3d68e7b68b0cb96f7867f7e46c9da2799f097ba3fda4ace165b",
        "scriptpubkey_type": "v1_p2tr",
        "scriptpubkey_address": "bc1pkatxnafqdj3adrnmdzcvh9hhselhu3kfmgnenuyhhgla5jkwzedsttd45q",
        "value": 2658
      },
      "scriptsig": "",
      "scriptsig_asm": "",
      "witness": [
        "f37ed5fde9d615995de8f438a7adedf481793ba896c11adf4fe57d04f085ae4e43708fa0fe5853c280790bdc6d300041a035c60c0b8b9bb22b6e9b5a73f14d9b",
        "204b92e221578b7c56f9b85594f1aa0e28d3e6f66a24c15d9294291b057dc49200ac0063036f726401011e6170706c69636174696f6e2f6a736f6e3b636861727365743d7574662d38004cbf7b2270223a22706f772d3230222c226f70223a226d696e74222c227469636b223a2250455045222c22616d74223a2231303030222c22736f6c7574696f6e223a22504550453a6263317139736a36303977756e7468646a636d7a746a796379766475616e653071716b78726e773932653a303030303030303030303030303030303030303139393431613561653132383937363539383134343239323533333030353762306461393666336465613163353a3339373238383033323839227d68",
        "c0a0e509a599b6542378e5ac7959d344a1bebc95ec9899fd4ccf1904beefe3f047"
      ],
      "is_coinbase": false,
      "sequence": 4294967295
    }
  ],
  "vout": [
    {
      "scriptpubkey": "00142c25a795dc9aeed963625c898231bcecf2f002c6",
      "scriptpubkey_asm": "OP_0 OP_PUSHBYTES_20 2c25a795dc9aeed963625c898231bcecf2f002c6",
      "scriptpubkey_type": "v0_p2wpkh",
      "scriptpubkey_address": "bc1q9sj609wunthdjcmztjycyvduane0qqkxrnw92e",
      "value": 546
    }
  ],
  "size": 455,
  "weight": 701,
  "fee": 2112,
  "status": {
    "confirmed": true,
    "block_height": 834460,
    "block_hash": "00000000000000000000484a79b643b2524bbce82e5d8a442013fa5b8905ed98",
    "block_time": 1710307468
  },
  "hex": "020000000001015fce34a97b9aab7d9220d9008b2e7a92c068cdf5e8ad3d165d7a5b7237c154e01200000000ffffffff0122020000000000001600142c25a795dc9aeed963625c898231bcecf2f002c60340f37ed5fde9d615995de8f438a7adedf481793ba896c11adf4fe57d04f085ae4e43708fa0fe5853c280790bdc6d300041a035c60c0b8b9bb22b6e9b5a73f14d9bfd0c01204b92e221578b7c56f9b85594f1aa0e28d3e6f66a24c15d9294291b057dc49200ac0063036f726401011e6170706c69636174696f6e2f6a736f6e3b636861727365743d7574662d38004cbf7b2270223a22706f772d3230222c226f70223a226d696e74222c227469636b223a2250455045222c22616d74223a2231303030222c22736f6c7574696f6e223a22504550453a6263317139736a36303977756e7468646a636d7a746a796379766475616e653071716b78726e773932653a303030303030303030303030303030303030303139393431613561653132383937363539383134343239323533333030353762306461393666336465613163353a3339373238383033323839227d6821c0a0e509a599b6542378e5ac7959d344a1bebc95ec9899fd4ccf1904beefe3f04700000000"
}