{
  "txid": "3bf6d67473d1ae521edb753f34eb070d5166cee1b71532743ad0f5ebd957af7a",
  "version": 2,
  "locktime": 0,
  "vin": [
    {
      "txid": "54741594d1a6d78760e79a804c20d119cf73c5b7f2624045e1663e2d713705b6",
      "vout": 0,
      "prevout": {
        "scriptpubkey": "5120e9cb401725066ac40edf189247c44f464a1bc3d5b7e9637a3ad41beca6e07b62",
        "scriptpubkey_asm": "OP_PUSHNUM_1 OP_PUSHBYTES_32 e9cb401725066ac40edf189247c44f464a1bc3d5b7e9637a3ad41beca6e07b62",
        "scriptpubkey_type": "v1_p2tr",
        "scriptpubkey_address": "bc1pa895q9e9qe4vgrklrzfy03z0ge9phs74kl5kx7366sd7efhq0d3qv347cs",
        "value": 1011861
      },
      "scriptsig": "",
      "scriptsig_asm": "",
      "witness": [
        "b2fe6819d01a956212e5cfae35b81aa55a0a650df1ae528e2d47cae1972f4341d70789e71d3c4b5a5c820ff8d575e61bd3a7e015cff445fa1eb61e950bb3acd8"
      ],
      "is_coinbase": false,
      "sequence": 4294967293
    }
  ],
  "vout": [
    {
      "scriptpubkey": "51206c12df1b646f25ed452adb0b2082bd8c3fa2751c535a024282559b84a83d663c",
      "scriptpubkey_asm": "OP_PUSHNUM_1 OP_PUSHBYTES_32 6c12df1b646f25ed452adb0b2082bd8c3fa2751c535a024282559b84a83d663c",
      "scriptpubkey_type": "v1_p2tr",
      "scriptpubkey_address": "bc1pdsfd7xmyduj763f2mv9jpq4a3sl6yagu2ddqys5z2kdcf2pavc7q8euqws",
      "value": 156972
    },
    {
      "scriptpubkey": "512040b611a461a3256d0b918ed00f1b1dda9b450b327460093e6c7d4e291fcb7b2b",
      "scriptpubkey_asm": "OP_PUSHNUM_1 OP_PUSHBYTES_32 40b611a461a3256d0b918ed00f1b1dda9b450b327460093e6c7d4e291fcb7b2b",
      "scriptpubkey_type": "v1_p2tr",
      "scriptpubkey_address": "bc1pgzmprfrp5vjk6zu33mgq7xcam2d52zejw3sqj0nv048zj87t0v4s7zrdj6",
      "value": 600
    },
    {
      "scriptpubkey": "51200e60d04b0e26f65d8b197fcd92a15728e272b0b5c7622c468055ac8adfe2159f",
      "scriptpubkey_asm": "OP_PUSHNUM_1 OP_PUSHBYTES_32 0e60d04b0e26f65d8b197fcd92a15728e272b0b5c7622c468055ac8adfe2159f",
      "scriptpubkey_type": "v1_p2tr",
      "scriptpubkey_address": "bc1ppesdqjcwymm9mzce0lxe9g2h9r389v94ca3zc35q2kkg4hlzzk0sp6ugt4",
      "value": 600
    },
    {
      "scriptpubkey": "5120e082d5884deb71ae642b9ba813ab765b71c4e97ad03a1002def0fb0139981409",
      "scriptpubkey_asm": "OP_PUSHNUM_1 OP_PUSHBYTES_32 e082d5884deb71ae642b9ba813ab765b71c4e97ad03a1002def0fb0139981409",
      "scriptpubkey_type": "v1_p2tr",
      "scriptpubkey_address": "bc1puzpdtzzdadc6ueptnw5p82mktdcuf6t66qapqqk77raszwvczsysf9n59m",
      "value": 600
    },
    {
      "scriptpubkey": "51205be719dd733b9c5d942d2bf72de8dd3ab7bade2d4acfe4b971a8721a449a445f",
      "scriptpubkey_asm": "OP_PUSHNUM_1 OP_PUSHBYTES_32 5be719dd733b9c5d942d2bf72de8dd3ab7bade2d4acfe4b971a8721a449a445f",
      "scriptpubkey_type": "v1_p2tr",
      "scriptpubkey_address": "bc1pt0n3nhtn8ww9m9pd90mjm6xa82mm4h3dft87fwt34pep53y6g30ssdxku3",
      "value": 600
    },
    {
      "scriptpubkey": "5120161a05fb3d6a892ef59c570b83e93ef5d243d5dc84b9bf52ea5441b0ebbc4fac",
      "scriptpubkey_asm": "OP_PUSHNUM_1 OP_PUSHBYTES_32 161a05fb3d6a892ef59c570b83e93ef5d243d5dc84b9bf52ea5441b0ebbc4fac",
      "scriptpubkey_type": "v1_p2tr",
      "scriptpubkey_address": "bc1pzcdqt7ead2yjaavu2u9c86f77hfy84wusjum75h223qmp6auf7kq98h6kk",
      "value": 600
    },
    {
      "scriptpubkey": "512081dd9a5f0feca36265f267d78431beecd6db6844637d8fc0caaf18cfef311cd0",
      "scriptpubkey_asm": "OP_PUSHNUM_1 OP_PUSHBYTES_32 81dd9a5f0feca36265f267d78431beecd6db6844637d8fc0caaf18cfef311cd0",
      "scriptpubkey_type": "v1_p2tr",
      "scriptpubkey_address": "bc1ps8we5hc0aj3kye0jvltcgvd7antdk6zyvd7clsx24uvvlme3rngqpa3hmj",
      "value": 600
    },
    {
      "scriptpubkey": "5120a8df0ac898213ad35f6676b627919fda8abb6ef07301a09dec92ced1a9057110",
      "scriptpubkey_asm": "OP_PUSHNUM_1 OP_PUSHBYTES_32 a8df0ac898213ad35f6676b627919fda8abb6ef07301a09dec92ced1a9057110",
      "scriptpubkey_type": "v1_p2tr",
      "scriptpubkey_address": "bc1p4r0s4jycyyadxhmxw6mz0yvlm29tkmhswvq6p80vjt8dr2g9wygqdrw90d",
      "value": 600
    },
    {
      "scriptpubkey": "5120d0ed76b55d02ce5dc6fd8473f134c7003696924abbf02451ae9fee92a2727b43",
      "scriptpubkey_asm": "OP_PUSHNUM_1 OP_PUSHBYTES_32 d0ed76b55d02ce5dc6fd8473f134c7003696924abbf02451ae9fee92a2727b43",
      "scriptpubkey_type": "v1_p2tr",
      "scriptpubkey_address": "bc1p6rkhdd2aqt89m3has3elzdx8qqmfdyj2h0czg5dwnlhf9gnj0dps5w0q8r",
      "value": 600
    },
    {
      "scriptpubkey": "5120e9cb401725066ac40edf189247c44f464a1bc3d5b7e9637a3ad41beca6e07b62",
      "scriptpubkey_asm": "OP_PUSHNUM_1 OP_PUSHBYTES_32 e9cb401725066ac40edf189247c44f464a1bc3d5b7e9637a3ad41beca6e07b62",
      "scriptpubkey_type": "v1_p2tr",
      "scriptpubkey_address": "bc1pa895q9e9qe4vgrklrzfy03z0ge9phs74kl5kx7366sd7efhq0d3qv347cs",
      "value": 844611
    }
  ],
  "size": 549,
  "weight": 1992,
  "fee": 5478,
  "status": {
    "confirmed": true,
    "block_height": 834464,
    "block_hash": "0000000000000000000177a0869a911a2b65c9bdcd5a8bcb02b68f305bee848e",
    "block_time": 1710308296
  },
  "hex": "02000000000101b60537712d3e66e1454062f2b7c573cf19d1204c809ae76087d7a6d1941574540000000000fdffffff0a2c650200000000002251206c12df1b646f25ed452adb0b2082bd8c3fa2751c535a024282559b84a83d663c580200000000000022512040b611a461a3256d0b918ed00f1b1dda9b450b327460093e6c7d4e291fcb7b2b58020000000000002251200e60d04b0e26f65d8b197fcd92a15728e272b0b5c7622c468055ac8adfe2159f5802000000000000225120e082d5884deb71ae642b9ba813ab765b71c4e97ad03a1002def0fb013998140958020000000000002251205be719dd733b9c5d942d2bf72de8dd3ab7bade2d4acfe4b971a8721a449a445f5802000000000000225120161a05fb3d6a892ef59c570b83e93ef5d243d5dc84b9bf52ea5441b0ebbc4fac580200000000000022512081dd9a5f0feca36265f267d78431beecd6db6844637d8fc0caaf18cfef311cd05802000000000000225120a8df0ac898213ad35f6676b627919fda8abb6ef07301a09dec92ced1a90571105802000000000000225120d0ed76b55d02ce5dc6fd8473f134c7003696924abbf02451ae9fee92a2727b4343e30c0000000000225120e9cb401725066ac40edf189247c44f464a1bc3d5b7e9637a3ad41beca6e07b620140b2fe6819d01a956212e5cfae35b81aa55a0a650df1ae528e2d47cae1972f4341d70789e71d3c4b5a5c820ff8d575e61bd3a7e015cff445fa1eb61e950bb3acd800000000"
}