{
  "txid": "3bfb4f52ca6eb4c2cb040eaca3d959c593ac1d5da9605e80db9a98253149d4f6",
  "version": 2,
  "locktime": 0,
  "vin": [
    {
      "txid": "acc3ba00869acb582a3f2904ce3a11dd3779350ce234063fc7d0959246213364",
      "vout": 234,
      "prevout": {
        "scriptpubkey": "5120f708eab17d93d3d12613b2e1f50c7a5bb2a8e7182cd2f180467b51cdb3f699de",
        "scriptpubkey_asm": "OP_PUSHNUM_1 OP_PUSHBYTES_32 f708eab17d93d3d12613b2e1f50c7a5bb2a8e7182cd2f180467b51cdb3f699de",
        "scriptpubkey_type": "v1_p2tr",
        "scriptpubkey_address": "bc1p7uyw4vtaj0fazfsnktsl2rr6twe23ecc9nf0rqzx0dgumvlkn80qqqkuwf",
        "value": 1806
      },
      "scriptsig": "",
      "scriptsig_asm": "",
      "witness": [
        "2c152132ca55888f37213449746c0bcf9d1d179ed6a98914a04521ff77e4ee91dfaeabc2f4c6161b14c927a97f07c2980d9b31b642e903cf4f2532d8172ff2f5",
        "2079a036c8a3848b9a332717d152f234ca8d45b51c7e3a1d30b38b2d8d5d78280bac0063036f726401010a746578742f706c61696e00357b2270223a226272632d3230222c226f70223a226d696e74222c227469636b223a22646f6765222c22616d74223a2234323030227d68",
        "c179a036c8a3848b9a332717d152f234ca8d45b51c7e3a1d30b38b2d8d5d78280b"
      ],
      "is_coinbase": false,
      "sequence": 4261412863
    }
  ],
  "vout": [
    {
      "scriptpubkey": "00147a665de7a370f4c9b372ab1fae587500a5bcbdb4",
      "scriptpubkey_asm": "OP_0 OP_PUSHBYTES_20 7a665de7a370f4c9b372ab1fae587500a5bcbdb4",
      "scriptpubkey_type": "v0_p2wpkh",
      "scriptpubkey_address": "bc1q0fn9mearwr6vnvmj4v06ukr4qzjme0d565dzcx",
      "value": 294
    }
  ],
  "size": 294,
  "weight": 540,
  "fee": 1512,
  "status": {
    "confirmed": true,
    "block_height": 834460,
    "block_hash": "00000000000000000000484a79b643b2524bbce82e5d8a442013fa5b8905ed98",
    "block_time": 1710307468
  },
  "hex": "02000000000101643321469295d0c73f0634e20c357937dd113ace04293f2a58cb9a8600bac3acea00000000fffffffd0126010000000000001600147a665de7a370f4c9b372ab1fae587500a5bcbdb403402c152132ca55888f37213449746c0bcf9d1d179ed6a98914a04521ff77e4ee91dfaeabc2f4c6161b14c927a97f07c2980d9b31b642e903cf4f2532d8172ff2f56d2079a036c8a3848b9a332717d152f234ca8d45b51c7e3a1d30b38b2d8d5d78280bac0063036f726401010a746578742f706c61696e00357b2270223a226272632d3230222c226f70223a226d696e74222c227469636b223a22646f6765222c22616d74223a2234323030227d6821c179a036c8a3848b9a332717d152f234ca8d45b51c7e3a1d30b38b2d8d5d78280b00000000"
}