{
  "txid": "3c096a9f245bcb0ff1ed90278d2752d11a822bf1813f896155519b0b237eb20e",
  "version": 2,
  "locktime": 834637,
  "vin": [
    {
      "txid": "b9adce74312e75a20002ea7e9a90ccdab10701f2b3dd2cbbf71a9b032cb2bb94",
      "vout": 0,
      "prevout": {
        "scriptpubkey": "00148d64dc33c62abf66d646b374ab8701b29047c0e9",
        "scriptpubkey_asm": "OP_0 OP_PUSHBYTES_20 8d64dc33c62abf66d646b374ab8701b29047c0e9",
        "scriptpubkey_type": "v0_p2wpkh",
        "scriptpubkey_address": "bc1q34jdcv7x92lkd4jxkd62hpcpk2gy0s8fnkth67",
        "value": 788803574
      },
      "scriptsig": "",
      "scriptsig_asm": "",
      "witness": [
        "3044022027a9482bf4375964dbefd19f6d123841656c366fe1d0bbe83ebb4313dc5c0395022073ac8ca4fa17843455ee6084eb96355475d41a6ffcfd9e24457b8bb6ef6f752101",
        "033bd77af4ca690e819629b0136c9678c67a77a4dacd9d6fa6d20fc8d6c06625e9"
      ],
      "is_coinbase": false,
      "sequence": 4294967294
    }
  ],
  "vout": [
    {
      "scriptpubkey": "0014b8803b0d6d17b89dcfc74fad4fdb8f8c8300dc57",
      "scriptpubkey_asm": "OP_0 OP_PUSHBYTES_20 b8803b0d6d17b89dcfc74fad4fdb8f8c8300dc57",
      "scriptpubkey_type": "v0_p2wpkh",
      "scriptpubkey_address": "bc1qhzqrkrtdz7ufmn78f7k5lku03jpsphzhw6rn78",
      "value": 788249694
    },
    {
      "scriptpubkey": "a914c8693a55d70dd74a087b050613cd19a72c42d97487",
      "scriptpubkey_asm": "OP_HASH160 OP_PUSHBYTES_20 c8693a55d70dd74a087b050613cd19a72c42d974 OP_EQUAL",
      "scriptpubkey_type": "p2sh",
      "scriptpubkey_address": "3Kxh8GeVeA5hvJaDmS5FDzEyVMxs1ZKtuu",
      "value": 550400
    }
  ],
  "size": 223,
  "weight": 565,
  "fee": 3480,
  "status": {
    "confirmed": true,
    "block_height": 834638,
    "block_hash": "000000000000000000025f742c626208ac87e0b7d15054abb4a19ca2d735a54e",
    "block_time": 1710405325
  },
  "hex": "0200000000010194bbb22c039b1af7bb2cddb3f20107b1dacc909a7eea0200a2752e3174ceadb90000000000feffffff025ebcfb2e00000000160014b8803b0d6d17b89dcfc74fad4fdb8f8c8300dc57006608000000000017a914c8693a55d70dd74a087b050613cd19a72c42d9748702473044022027a9482bf4375964dbefd19f6d123841656c366fe1d0bbe83ebb4313dc5c0395022073ac8ca4fa17843455ee6084eb96355475d41a6ffcfd9e24457b8bb6ef6f75210121033bd77af4ca690e819629b0136c9678c67a77a4dacd9d6fa6d20fc8d6c06625e94dbc0c00"
}