{
  "txid": "3c1030220b6705236a917ebe0d4cac1e517d65f35f6a98a852b435475593b6d2",
  "version": 2,
  "locktime": 0,
  "vin": [
    {
      "txid": "4b48da2b656de24d2b0b4cf5a78fc24d565d18515e66f35c2deec5250f9a4965",
      "vout": 0,
      "prevout": {
        "scriptpubkey": "512066acf1cd281b4671f78fc3c955e25b5b41746a1c9a71912c6dee2450aeee1c9d",
        "scriptpubkey_asm": "OP_PUSHNUM_1 OP_PUSHBYTES_32 66acf1cd281b4671f78fc3c955e25b5b41746a1c9a71912c6dee2450aeee1c9d",
        "scriptpubkey_type": "v1_p2tr",
        "scriptpubkey_address": "bc1pv6k0rnfgrdr8rau0c0y4tcjmtdqhg6sunfceztrdacj9pthwrjwsvex2yx",
        "value": 2500
      },
      "scriptsig": "",
      "scriptsig_asm": "",
      "witness": [
        "e4c458e3edbe203c66b58a32711414664eed92560abefaf3dfacb8a29e3417f3867fe9b33a644a9f09fd3fe7cfb435c8f3cb89a56fbad129295cedf6ccfa2d6601"
      ],
      "is_coinbase": false,
      "sequence": 4294967295
    }
  ],
  "vout": [
    {
      "scriptpubkey": "76a914afbc586159ab1a7ae76a345ba9225a5dd5b18c0e88ac",
      "scriptpubkey_asm": "OP_DUP OP_HASH160 OP_PUSHBYTES_20 afbc586159ab1a7ae76a345ba9225a5dd5b18c0e OP_EQUALVERIFY OP_CHECKSIG",
      "scriptpubkey_type": "p2pkh",
      "scriptpubkey_address": "1H2Ct2Yq8mgnq9HSi5gFzPNhEo1FgDLRyy",
      "value": 1268
    }
  ],
  "size": 154,
  "weight": 409,
  "fee": 1232,
  "status": {
    "confirmed": true,
    "block_height": 834460,
    "block_hash": "00000000000000000000484a79b643b2524bbce82e5d8a442013fa5b8905ed98",
    "block_time": 1710307468
  },
  "hex": "0200000000010165499a0f25c5ee2d5cf3665e51185d564dc28fa7f54c0b2b4de26d652bda484b0000000000ffffffff01f4040000000000001976a914afbc586159ab1a7ae76a345ba9225a5dd5b18c0e88ac0141e4c458e3edbe203c66b58a32711414664eed92560abefaf3dfacb8a29e3417f3867fe9b33a644a9f09fd3fe7cfb435c8f3cb89a56fbad129295cedf6ccfa2d660100000000"
}