{
  "txid": "3c1133976b67df863b5ec1cc1ca7bef319fa89ebbf69e61b68e0ca238558e194",
  "version": 1,
  "locktime": 0,
  "vin": [
    {
      "txid": "6375af38dc645bfa16606c03a881383d70bd1ede0df511a0f9fab7b0273d30c0",
      "vout": 1,
      "prevout": {
        "scriptpubkey": "5120cc453c0b9fce717cb7fbeb23c7abb899f21ec601288ff8f56a09081dd0803446",
        "scriptpubkey_asm": "OP_PUSHNUM_1 OP_PUSHBYTES_32 cc453c0b9fce717cb7fbeb23c7abb899f21ec601288ff8f56a09081dd0803446",
        "scriptpubkey_type": "v1_p2tr",
        "scriptpubkey_address": "bc1pe3znczuleechedlmav3u02acn8epa3sp9z8l3at2pyypm5yqx3rqlml4ka",
        "value": 2716
      },
      "scriptsig": "",
      "scriptsig_asm": "",
      "witness": [
        "eaec9f8e7c64b2a873a45a5f0450ebb44d5399c24accfba15236da8adfe8f17473d07db571510901958060b06afa8a8bbee20559782dd2989bb4fa9fb7bfa03c",
        "206530b1365aac4186bae05106eafe7540d6b2abe6377388c1c12ab9d205d3f082ac0063036f72640101116d6f64656c2f676c74662d62696e617279004b2f636f6e74656e742f37633439306234383938343361346533636639613734613661356432646231386330346561376163353566383832316436353061396266643430656562663137693068",
        "c06530b1365aac4186bae05106eafe7540d6b2abe6377388c1c12ab9d205d3f082"
      ],
      "is_coinbase": false,
      "sequence": 4294967293
    }
  ],
  "vout": [
    {
      "scriptpubkey": "5120f1768c246d76ff8a45c86e479459158c70d9b33887ba83b7b633606f1b0bb536",
      "scriptpubkey_asm": "OP_PUSHNUM_1 OP_PUSHBYTES_32 f1768c246d76ff8a45c86e479459158c70d9b33887ba83b7b633606f1b0bb536",
      "scriptpubkey_type": "v1_p2tr",
      "scriptpubkey_address": "bc1p79mgcfrdwmlc53wgderegkg433cdnvecs7ag8dakxdsx7xctk5mqnszxzv",
      "value": 546
    }
  ],
  "size": 335,
  "weight": 617,
  "fee": 2170,
  "status": {
    "confirmed": true,
    "block_height": 834460,
    "block_hash": "00000000000000000000484a79b643b2524bbce82e5d8a442013fa5b8905ed98",
    "block_time": 1710307468
  },
  "hex": "01000000000101c0303d27b0b7faf9a011f50dde1ebd703d3881a8036c6016fa5b64dc38af75630100000000fdffffff012202000000000000225120f1768c246d76ff8a45c86e479459158c70d9b33887ba83b7b633606f1b0bb5360340eaec9f8e7c64b2a873a45a5f0450ebb44d5399c24accfba15236da8adfe8f17473d07db571510901958060b06afa8a8bbee20559782dd2989bb4fa9fb7bfa03c8a206530b1365aac4186bae05106eafe7540d6b2abe6377388c1c12ab9d205d3f082ac0063036f72640101116d6f64656c2f676c74662d62696e617279004b2f636f6e74656e742f3763343930623438393834336134653363663961373461366135643264623138633034656137616335356638383231643635306139626664343065656266313769306821c06530b1365aac4186bae05106eafe7540d6b2abe6377388c1c12ab9d205d3f08200000000"
}