{
  "txid": "3c31ffdb17aff785e3db32e8d766a546498af9a259f0cb3a0daba84dad5bf6ff",
  "version": 1,
  "locktime": 0,
  "vin": [
    {
      "txid": "0255c9fd95046f2cd6e295ee626b1d0e7e92b346635511985c796454f2ad3cbb",
      "vout": 1,
      "prevout": {
        "scriptpubkey": "0014f3d51d5ee8cc254267b84326b59c1968be80bed7",
        "scriptpubkey_asm": "OP_0 OP_PUSHBYTES_20 f3d51d5ee8cc254267b84326b59c1968be80bed7",
        "scriptpubkey_type": "v0_p2wpkh",
        "scriptpubkey_address": "bc1q70236hhgesj5yeacgvntt8qedzlgp0khl03q9h",
        "value": 20562
      },
      "scriptsig": "",
      "scriptsig_asm": "",
      "witness": [
        "3045022100f5229d473593a3072cf33e60319cca4a7fa94b4e6f0cd7c14a6ac235bd9e698102206d53d545504e7776692e3ec721c47b654ede50d8af9a368af2c67dca7eb0d9f401",
        "03b46627768ba6677abb00d3e9cf601d6055ed9282855bb46ba3462cc7e5e4f135"
      ],
      "is_coinbase": false,
      "sequence": 4294967295
    },
    {
      "txid": "ddb965993973b474adc3a0761a2ebeb52269a9f190ff4650587c8f8536a0024c",
      "vout": 1,
      "prevout": {
        "scriptpubkey": "00144ca8de5c646eb6e5e67f0ab75bd7796d04b9df83",
        "scriptpubkey_asm": "OP_0 OP_PUSHBYTES_20 4ca8de5c646eb6e5e67f0ab75bd7796d04b9df83",
        "scriptpubkey_type": "v0_p2wpkh",
        "scriptpubkey_address": "bc1qfj5duhryd6mwtenlp2m4h4med5ztnhurl2z8vu",
        "value": 83290
      },
      "scriptsig": "",
      "scriptsig_asm": "",
      "witness": [
        "304402201a11ac139a8851cd5b5516ffad56e0f824099b6bac3695be2d1360413ff7dc5a0220708babea199bf1dd2c2eb46164d18110876b4f89b7e50f254c7f98cc6b5c9d2a01",
        "0378b79d520421e7d2c97aa0e53e6eaec56c7e91c55c72e8ad4a6e8e766fa456f2"
      ],
      "is_coinbase": false,
      "sequence": 4294967295
    }
  ],
  "vout": [
    {
      "scriptpubkey": "0014dd25ed228226a240e8638c5d1d3a827d8d10b1bf",
      "scriptpubkey_asm": "OP_0 OP_PUSHBYTES_20 dd25ed228226a240e8638c5d1d3a827d8d10b1bf",
      "scriptpubkey_type": "v0_p2wpkh",
      "scriptpubkey_address": "bc1qm5j76g5zy63yp6rr33w36w5z0kx3pvdlrmp8am",
      "value": 27240
    },
    {
      "scriptpubkey": "001401f0c70242e75f193705fabbaf98861a8d982102",
      "scriptpubkey_asm": "OP_0 OP_PUSHBYTES_20 01f0c70242e75f193705fabbaf98861a8d982102",
      "scriptpubkey_type": "v0_p2wpkh",
      "scriptpubkey_address": "bc1qq8cvwqjzua03jdc9l2a6lxyxr2xesggz59rrpd",
      "value": 73498
    }
  ],
  "size": 371,
  "weight": 833,
  "fee": 3114,
  "status": {
    "confirmed": true,
    "block_height": 834638,
    "block_hash": "000000000000000000025f742c626208ac87e0b7d15054abb4a19ca2d735a54e",
    "block_time": 1710405325
  },
  "hex": "01000000000102bb3cadf25464795c9811556346b3927e0e1d6b62ee95e2d62c6f0495fdc955020100000000ffffffff4c02a036858f7c585046ff90f1a96922b5be2e1a76a0c3ad74b473399965b9dd0100000000ffffffff02686a000000000000160014dd25ed228226a240e8638c5d1d3a827d8d10b1bf1a1f01000000000016001401f0c70242e75f193705fabbaf98861a8d98210202483045022100f5229d473593a3072cf33e60319cca4a7fa94b4e6f0cd7c14a6ac235bd9e698102206d53d545504e7776692e3ec721c47b654ede50d8af9a368af2c67dca7eb0d9f4012103b46627768ba6677abb00d3e9cf601d6055ed9282855bb46ba3462cc7e5e4f1350247304402201a11ac139a8851cd5b5516ffad56e0f824099b6bac3695be2d1360413ff7dc5a0220708babea199bf1dd2c2eb46164d18110876b4f89b7e50f254c7f98cc6b5c9d2a01210378b79d520421e7d2c97aa0e53e6eaec56c7e91c55c72e8ad4a6e8e766fa456f200000000"
}