{
  "txid": "3c49e3bfaf3fe1637fc8b95ca5d4517b6c17c8968565099c54645214376e8214",
  "version": 2,
  "locktime": 0,
  "vin": [
    {
      "txid": "3c7279d3146cd15bc94f62f57e47478facd40e5315bf0c878fd53494d9aecd6d",
      "vout": 1,
      "prevout": {
        "scriptpubkey": "0014a6ce372825e2910fadec0742b6abd8eb409fa338",
        "scriptpubkey_asm": "OP_0 OP_PUSHBYTES_20 a6ce372825e2910fadec0742b6abd8eb409fa338",
        "scriptpubkey_type": "v0_p2wpkh",
        "scriptpubkey_address": "bc1q5m8rw2p9u2gslt0vqaptd27cadqflgecvf9lh6",
        "value": 134149
      },
      "scriptsig": "",
      "scriptsig_asm": "",
      "witness": [
        "3045022100a85798d99fae2d81062511acd0f34052f334827cd3ea59ce30cef44e89652b2502205d3ed1bebea836dad9ca919e61f92a84140d612af676a0d176a6e30d104f9f5001",
        "02536d79d4da497d3c2c834f6c70e1c05bf97c6c5878c864131bf161e34030a5e8"
      ],
      "is_coinbase": false,
      "sequence": 0
    }
  ],
  "vout": [
    {
      "scriptpubkey": "0014bebf792aedf9700e39a47257249b95d99978bc70",
      "scriptpubkey_asm": "OP_0 OP_PUSHBYTES_20 bebf792aedf9700e39a47257249b95d99978bc70",
      "scriptpubkey_type": "v0_p2wpkh",
      "scriptpubkey_address": "bc1qh6lhj2hdl9cquwdywftjfxu4mxvh30rsxgzkhv",
      "value": 27271
    },
    {
      "scriptpubkey": "00140c8634962660f7b5e1ba3284760c006a4e06e789",
      "scriptpubkey_asm": "OP_0 OP_PUSHBYTES_20 0c8634962660f7b5e1ba3284760c006a4e06e789",
      "scriptpubkey_type": "v0_p2wpkh",
      "scriptpubkey_address": "bc1qpjrrf93xvrmmtcd6x2z8vrqqdf8qdeufqfr0fz",
      "value": 104367
    }
  ],
  "size": 223,
  "weight": 562,
  "fee": 2511,
  "status": {
    "confirmed": true,
    "block_height": 834638,
    "block_hash": "000000000000000000025f742c626208ac87e0b7d15054abb4a19ca2d735a54e",
    "block_time": 1710405325
  },
  "hex": "020000000001016dcdaed99434d58f870cbf15530ed4ac8f47477ef5624fc95bd16c14d379723c01000000000000000002876a000000000000160014bebf792aedf9700e39a47257249b95d99978bc70af970100000000001600140c8634962660f7b5e1ba3284760c006a4e06e78902483045022100a85798d99fae2d81062511acd0f34052f334827cd3ea59ce30cef44e89652b2502205d3ed1bebea836dad9ca919e61f92a84140d612af676a0d176a6e30d104f9f50012102536d79d4da497d3c2c834f6c70e1c05bf97c6c5878c864131bf161e34030a5e800000000"
}