{
  "txid": "3c6a04c31a65fb69f92158f5a1d94d848130bf206cb2b2a4f98059d724b38c7b",
  "version": 2,
  "locktime": 834637,
  "vin": [
    {
      "txid": "73093b33d5e3cff80901c8246a4733dc2cabc702b22c081cd0ed3e86b64c45c1",
      "vout": 0,
      "prevout": {
        "scriptpubkey": "0014f50695d7acdecd91c77e563b3aa571d64bb9f53b",
        "scriptpubkey_asm": "OP_0 OP_PUSHBYTES_20 f50695d7acdecd91c77e563b3aa571d64bb9f53b",
        "scriptpubkey_type": "v0_p2wpkh",
        "scriptpubkey_address": "bc1q75rft4avmmxer3m72can4ft36e9mnafm73uzkc",
        "value": 125800
      },
      "scriptsig": "",
      "scriptsig_asm": "",
      "witness": [
        "3044022016da3ba71613e67a75c5ff8fa717120581a346f4932970dbd014d95c9d7313430220475ece36bb5778dafcf9e8a25fd8e1557ab6fc61451a9e2f4e3754f5b95c409501",
        "026d894cac462ed3732d0af584086eee61d719c3a60b37e179e9aa97108fa7c6bc"
      ],
      "is_coinbase": false,
      "sequence": 4294967293
    }
  ],
  "vout": [
    {
      "scriptpubkey": "001429607d20fb3c4792f2b60489130434c737816e51",
      "scriptpubkey_asm": "OP_0 OP_PUSHBYTES_20 29607d20fb3c4792f2b60489130434c737816e51",
      "scriptpubkey_type": "v0_p2wpkh",
      "scriptpubkey_address": "bc1q99s86g8m83re9u4kqjy3xpp5cumczmj3qth2pq",
      "value": 1200
    },
    {
      "scriptpubkey": "0014405ecd11bf1d49e5e8105e67ae2e6981f256db47",
      "scriptpubkey_asm": "OP_0 OP_PUSHBYTES_20 405ecd11bf1d49e5e8105e67ae2e6981f256db47",
      "scriptpubkey_type": "v0_p2wpkh",
      "scriptpubkey_address": "bc1qgp0v6ydlr4y7t6qsten6utnfs8e9dk687twkuc",
      "value": 122300
    }
  ],
  "size": 222,
  "weight": 561,
  "fee": 2300,
  "status": {
    "confirmed": true,
    "block_height": 834638,
    "block_hash": "000000000000000000025f742c626208ac87e0b7d15054abb4a19ca2d735a54e",
    "block_time": 1710405325
  },
  "hex": "02000000000101c1454cb6863eedd01c082cb202c7ab2cdc33476a24c80109f8cfe3d5333b09730000000000fdffffff02b00400000000000016001429607d20fb3c4792f2b60489130434c737816e51bcdd010000000000160014405ecd11bf1d49e5e8105e67ae2e6981f256db4702473044022016da3ba71613e67a75c5ff8fa717120581a346f4932970dbd014d95c9d7313430220475ece36bb5778dafcf9e8a25fd8e1557ab6fc61451a9e2f4e3754f5b95c40950121026d894cac462ed3732d0af584086eee61d719c3a60b37e179e9aa97108fa7c6bc4dbc0c00"
}