{
  "txid": "3c7aecd4d799a79df76a9b0db90550762e7d6a57f500d992d7aecf4757fc05a1",
  "version": 1,
  "locktime": 0,
  "vin": [
    {
      "txid": "8ce2f0f3f93b18e6b14a9380406e0cc50c1750e952c350174ed993df853fb7a7",
      "vout": 1,
      "prevout": {
        "scriptpubkey": "0014c967d413af5b1376136b3c332765bfe59c0af5e5",
        "scriptpubkey_asm": "OP_0 OP_PUSHBYTES_20 c967d413af5b1376136b3c332765bfe59c0af5e5",
        "scriptpubkey_type": "v0_p2wpkh",
        "scriptpubkey_address": "bc1qe9nagya0tvfhvymt8sejwedlukwq4a094h6ht9",
        "value": 38124928
      },
      "scriptsig": "",
      "scriptsig_asm": "",
      "witness": [
        "3045022100ee3feee29fc93a3457d802bad53467275f7743c01c44bbe9c554cfb6b16f47ca022050fbccfef22b408f62e94bc912b922365aaa57c3425bdea9c461963e52efedcf01",
        "029dd17fd23c1f221cd5acd8b397ab610aff84e485e5cb5af26772aa54db7a6883"
      ],
      "is_coinbase": false,
      "sequence": 4294967295
    },
    {
      "txid": "99eaf9e0eb2a989ca97995553fda115f306dae502eb4656ed286c8472bd077b9",
      "vout": 1,
      "prevout": {
        "scriptpubkey": "0014c967d413af5b1376136b3c332765bfe59c0af5e5",
        "scriptpubkey_asm": "OP_0 OP_PUSHBYTES_20 c967d413af5b1376136b3c332765bfe59c0af5e5",
        "scriptpubkey_type": "v0_p2wpkh",
        "scriptpubkey_address": "bc1qe9nagya0tvfhvymt8sejwedlukwq4a094h6ht9",
        "value": 46749236
      },
      "scriptsig": "",
      "scriptsig_asm": "",
      "witness": [
        "3044022027535119181c939abfbd6a7e53a50d7c47d2303491249ab17e8fb3f7c55a870c02204324167fbd65406079b658db326a9db930046176683598d9482a477b690f8dc601",
        "029dd17fd23c1f221cd5acd8b397ab610aff84e485e5cb5af26772aa54db7a6883"
      ],
      "is_coinbase": false,
      "sequence": 4294967295
    }
  ],
  "vout": [
    {
      "scriptpubkey": "a9141551dda4875b27668e55fd06fd7c47a9f5e4ec4587",
      "scriptpubkey_asm": "OP_HASH160 OP_PUSHBYTES_20 1551dda4875b27668e55fd06fd7c47a9f5e4ec45 OP_EQUAL",
      "scriptpubkey_type": "p2sh",
      "scriptpubkey_address": "33dkBhy1zHJEftATQV9eBVNYkF21MzZ2xS",
      "value": 76000000
    },
    {
      "scriptpubkey": "0014c967d413af5b1376136b3c332765bfe59c0af5e5",
      "scriptpubkey_asm": "OP_0 OP_PUSHBYTES_20 c967d413af5b1376136b3c332765bfe59c0af5e5",
      "scriptpubkey_type": "v0_p2wpkh",
      "scriptpubkey_address": "bc1qe9nagya0tvfhvymt8sejwedlukwq4a094h6ht9",
      "value": 8870888
    }
  ],
  "size": 372,
  "weight": 837,
  "fee": 3276,
  "status": {
    "confirmed": true,
    "block_height": 834638,
    "block_hash": "000000000000000000025f742c626208ac87e0b7d15054abb4a19ca2d735a54e",
    "block_time": 1710405325
  },
  "hex": "01000000000102a7b73f85df93d94e1750c352e950170cc50c6e4080934ab1e6183bf9f3f0e28c0100000000ffffffffb977d02b47c886d26e65b42e50ae6d305f11da3f559579a99c982aebe0f9ea990100000000ffffffff0200ab87040000000017a9141551dda4875b27668e55fd06fd7c47a9f5e4ec4587e85b870000000000160014c967d413af5b1376136b3c332765bfe59c0af5e502483045022100ee3feee29fc93a3457d802bad53467275f7743c01c44bbe9c554cfb6b16f47ca022050fbccfef22b408f62e94bc912b922365aaa57c3425bdea9c461963e52efedcf0121029dd17fd23c1f221cd5acd8b397ab610aff84e485e5cb5af26772aa54db7a688302473044022027535119181c939abfbd6a7e53a50d7c47d2303491249ab17e8fb3f7c55a870c02204324167fbd65406079b658db326a9db930046176683598d9482a477b690f8dc60121029dd17fd23c1f221cd5acd8b397ab610aff84e485e5cb5af26772aa54db7a688300000000"
}