{
  "txid": "3c9ff8b37e02d2adefacad4c319231203f6549f75dd0bd605d432a6a47d57922",
  "version": 1,
  "locktime": 0,
  "vin": [
    {
      "txid": "42512c9ba4c881dc8703a4791a591b968d88c1c4e65a4a2014404d7bdf44d69b",
      "vout": 1,
      "prevout": {
        "scriptpubkey": "00207250d91085a77a4568fa4cfd5bebb59f0b9cb3530f8154cd4fab6d28abd548fe",
        "scriptpubkey_asm": "OP_0 OP_PUSHBYTES_32 7250d91085a77a4568fa4cfd5bebb59f0b9cb3530f8154cd4fab6d28abd548fe",
        "scriptpubkey_type": "v0_p2wsh",
        "scriptpubkey_address": "bc1qwfgdjyy95aay2686fn74h6a4nu9eev6np7q4fn204dkj3274frlqrskvx0",
        "value": 173036628
      },
      "scriptsig": "",
      "scriptsig_asm": "",
      "witness": [
        "",
        "304502210096ccec28304168eff16285d8fc088cef9e4652d11e4c605fb83aa5fa70db6873022076ef10e84226bb9aa301dde32f28c4cd57b1d7d946fab04d31ca2ded0a9c6ce401",
        "3044022027a0f45c1e4ddf6b638572ed376af9506fd69eaa648d46d90bb3d00430f5192802206b4df799b8c14bc2b1a536be2c0c532a4305e11adcba223c2a5590540be7c44201",
        "5221030fac04165b606dea3b8f81ada5eb66ca181d5215c873fcf46623ea7cf8e98b1b2102b7836a2a9d3ff095415383cb23a5f4f1badd75e44adb17537962eafe3ded3b602102f8cb472df1ae03cfa6b65b013add7862c7d3ac3684a8a92a44192faace228aee53ae"
      ],
      "is_coinbase": false,
      "sequence": 4294967295,
      "inner_witnessscript_asm": "OP_PUSHNUM_2 OP_PUSHBYTES_33 030fac04165b606dea3b8f81ada5eb66ca181d5215c873fcf46623ea7cf8e98b1b OP_PUSHBYTES_33 02b7836a2a9d3ff095415383cb23a5f4f1badd75e44adb17537962eafe3ded3b60 OP_PUSHBYTES_33 02f8cb472df1ae03cfa6b65b013add7862c7d3ac3684a8a92a44192faace228aee OP_PUSHNUM_3 OP_CHECKMULTISIG"
    }
  ],
  "vout": [
    {
      "scriptpubkey": "a91437e878dd513ee4a97f9f5113a8612631b4f078cf87",
      "scriptpubkey_asm": "OP_HASH160 OP_PUSHBYTES_20 37e878dd513ee4a97f9f5113a8612631b4f078cf OP_EQUAL",
      "scriptpubkey_type": "p2sh",
      "scriptpubkey_address": "36ndaYL8GBrNZD39Xu32UqwWf1X9MkY6qr",
      "value": 96316
    },
    {
      "scriptpubkey": "00207250d91085a77a4568fa4cfd5bebb59f0b9cb3530f8154cd4fab6d28abd548fe",
      "scriptpubkey_asm": "OP_0 OP_PUSHBYTES_32 7250d91085a77a4568fa4cfd5bebb59f0b9cb3530f8154cd4fab6d28abd548fe",
      "scriptpubkey_type": "v0_p2wsh",
      "scriptpubkey_address": "bc1qwfgdjyy95aay2686fn74h6a4nu9eev6np7q4fn204dkj3274frlqrskvx0",
      "value": 172936532
    }
  ],
  "size": 381,
  "weight": 759,
  "fee": 3780,
  "status": {
    "confirmed": true,
    "block_height": 834638,
    "block_hash": "000000000000000000025f742c626208ac87e0b7d15054abb4a19ca2d735a54e",
    "block_time": 1710405325
  },
  "hex": "010000000001019bd644df7b4d4014204a5ae6c4c1888d961b591a79a40387dc81c8a49b2c51420100000000ffffffff023c7801000000000017a91437e878dd513ee4a97f9f5113a8612631b4f078cf8754cd4e0a000000002200207250d91085a77a4568fa4cfd5bebb59f0b9cb3530f8154cd4fab6d28abd548fe040048304502210096ccec28304168eff16285d8fc088cef9e4652d11e4c605fb83aa5fa70db6873022076ef10e84226bb9aa301dde32f28c4cd57b1d7d946fab04d31ca2ded0a9c6ce401473044022027a0f45c1e4ddf6b638572ed376af9506fd69eaa648d46d90bb3d00430f5192802206b4df799b8c14bc2b1a536be2c0c532a4305e11adcba223c2a5590540be7c44201695221030fac04165b606dea3b8f81ada5eb66ca181d5215c873fcf46623ea7cf8e98b1b2102b7836a2a9d3ff095415383cb23a5f4f1badd75e44adb17537962eafe3ded3b602102f8cb472df1ae03cfa6b65b013add7862c7d3ac3684a8a92a44192faace228aee53ae00000000"
}