{
  "txid": "3ca5ca8af594f080db65859790cc26fb8427a7d904979c2980161f60b8890798",
  "version": 1,
  "locktime": 0,
  "vin": [
    {
      "txid": "eaa4a9b300c7ca2c8ebcf6aff65cad466edd4d8e77c284aaab96b83230735d03",
      "vout": 0,
      "prevout": {
        "scriptpubkey": "001469554b0311076c23efde27599ccba31efee8ed11",
        "scriptpubkey_asm": "OP_0 OP_PUSHBYTES_20 69554b0311076c23efde27599ccba31efee8ed11",
        "scriptpubkey_type": "v0_p2wpkh",
        "scriptpubkey_address": "bc1qd925kqc3qakz8m77yaveejarrmlw3mg3gyluvh",
        "value": 559700
      },
      "scriptsig": "",
      "scriptsig_asm": "",
      "witness": [
        "304402204c9dd7397ad29f84a32bbb9c5e13405209bf07c90b98d66a6b02a1485b2ac69c022074db2d21f4c2e807a9d305536cbe162b498ae1c0241b0c67e74c01f86dd8095f01",
        "032c94ac2b98800999a4f5e39194d85f809aa399c99124b4b03ba4cec5f7589cf0"
      ],
      "is_coinbase": false,
      "sequence": 4294967293
    },
    {
      "txid": "1e5b2959e5d6c38a0ef7ada7fd5d17f0a7cbf5fbdec6abd8d3a080b3760e2bfd",
      "vout": 153,
      "prevout": {
        "scriptpubkey": "0014c44a03080b21375149b11162e5a561743dc8e104",
        "scriptpubkey_asm": "OP_0 OP_PUSHBYTES_20 c44a03080b21375149b11162e5a561743dc8e104",
        "scriptpubkey_type": "v0_p2wpkh",
        "scriptpubkey_address": "bc1qc39qxzqtyym4zjd3z93wtftpws7u3cgyt3gtnw",
        "value": 487519
      },
      "scriptsig": "",
      "scriptsig_asm": "",
      "witness": [
        "304402207a11aa36a6738e76c0d9df6c3fdf4c36dae54aa0d03f9b1a378775ca1a19668802200a3203594b88096012b9f15246561a5185deeb79e67c83f7df061060e4ba11c401",
        "02e92b68aae02df15dd0013d12956f9882c1a0723c3ede4186e5c9d090ec0d0fe4"
      ],
      "is_coinbase": false,
      "sequence": 4294967293
    },
    {
      "txid": "b904e3a9185fdc5108e134342a1b519309e0f88a2a2322015730d4086d040d97",
      "vout": 157,
      "prevout": {
        "scriptpubkey": "0014a1fa7de7958607de8b453907e384d914b139fac4",
        "scriptpubkey_asm": "OP_0 OP_PUSHBYTES_20 a1fa7de7958607de8b453907e384d914b139fac4",
        "scriptpubkey_type": "v0_p2wpkh",
        "scriptpubkey_address": "bc1q58a8meu4scraaz698yr78pxezjcnn7ky398pld",
        "value": 487489
      },
      "scriptsig": "",
      "scriptsig_asm": "",
      "witness": [
        "30440220342011d71cb8f140d03cfd6142f401afc8560a57a507213dec3874138956998602203140b9172b21706c79fbd95f466ed09fedc5c091ae2aefc5e061b63e279599c101",
        "020476f00de9712a582a4a12be29c3f8c3f37c8d80c3183907318b367964b60bb5"
      ],
      "is_coinbase": false,
      "sequence": 4294967293
    },
    {
      "txid": "173967a770b18ff4ed30c2fb36a85b1c6fd39eaa49b22c38b002fde80e77882a",
      "vout": 191,
      "prevout": {
        "scriptpubkey": "00146b85960703f1e6cad5dfe29306c2094f422d03e1",
        "scriptpubkey_asm": "OP_0 OP_PUSHBYTES_20 6b85960703f1e6cad5dfe29306c2094f422d03e1",
        "scriptpubkey_type": "v0_p2wpkh",
        "scriptpubkey_address": "bc1qdwzevpcr78nv44wlu2fsdssffapz6qlpcsxg0q",
        "value": 415280
      },
      "scriptsig": "",
      "scriptsig_asm": "",
      "witness": [
        "30450221009a021044a1dd8cb15edb5640d2f5ae7a1b77888b95abac8c6be6816a4227115e02201e5257d36d493dd9955d0ac874a6c7129b87e1fd3de8fe8eb8f99423c073ca9901",
        "03ad27382708a81ad24854a63e8837e093be5ee76477fd2f9fc9bec5728d32d7b0"
      ],
      "is_coinbase": false,
      "sequence": 4294967293
    }
  ],
  "vout": [
    {
      "scriptpubkey": "a91479c747c823ad5fd0cee0a3a83884de2403b2081c87",
      "scriptpubkey_asm": "OP_HASH160 OP_PUSHBYTES_20 79c747c823ad5fd0cee0a3a83884de2403b2081c OP_EQUAL",
      "scriptpubkey_type": "p2sh",
      "scriptpubkey_address": "3CnvQzxGHG8ea6DHy7UvCEGdhVcdRH9XZ2",
      "value": 1941772
    }
  ],
  "size": 637,
  "weight": 1255,
  "fee": 8216,
  "status": {
    "confirmed": true,
    "block_height": 834460,
    "block_hash": "00000000000000000000484a79b643b2524bbce82e5d8a442013fa5b8905ed98",
    "block_time": 1710307468
  },
  "hex": "01000000000104035d733032b896abaa84c2778e4ddd6e46ad5cf6aff6bc8e2ccac700b3a9a4ea0000000000fdfffffffd2b0e76b380a0d3d8abc6defbf5cba7f0175dfda7adf70e8ac3d6e559295b1e9900000000fdffffff970d046d08d430570122232a8af8e00993511b2a3434e10851dc5f18a9e304b99d00000000fdffffff2a88770ee8fd02b0382cb249aa9ed36f1c5ba836fbc230edf48fb170a7673917bf00000000fdffffff010ca11d000000000017a91479c747c823ad5fd0cee0a3a83884de2403b2081c870247304402204c9dd7397ad29f84a32bbb9c5e13405209bf07c90b98d66a6b02a1485b2ac69c022074db2d21f4c2e807a9d305536cbe162b498ae1c0241b0c67e74c01f86dd8095f0121032c94ac2b98800999a4f5e39194d85f809aa399c99124b4b03ba4cec5f7589cf00247304402207a11aa36a6738e76c0d9df6c3fdf4c36dae54aa0d03f9b1a378775ca1a19668802200a3203594b88096012b9f15246561a5185deeb79e67c83f7df061060e4ba11c4012102e92b68aae02df15dd0013d12956f9882c1a0723c3ede4186e5c9d090ec0d0fe4024730440220342011d71cb8f140d03cfd6142f401afc8560a57a507213dec3874138956998602203140b9172b21706c79fbd95f466ed09fedc5c091ae2aefc5e061b63e279599c10121020476f00de9712a582a4a12be29c3f8c3f37c8d80c3183907318b367964b60bb5024830450221009a021044a1dd8cb15edb5640d2f5ae7a1b77888b95abac8c6be6816a4227115e02201e5257d36d493dd9955d0ac874a6c7129b87e1fd3de8fe8eb8f99423c073ca99012103ad27382708a81ad24854a63e8837e093be5ee76477fd2f9fc9bec5728d32d7b000000000"
}