{
  "txid": "3ca765427ef0eb921c41f114f66cbd853ec92b184494b044efcb60dfaffa41d9",
  "version": 1,
  "locktime": 0,
  "vin": [
    {
      "txid": "1cf461ebf57931a2d2891e560574bf0ef22e2daf8ed09fe01e0098c64c795421",
      "vout": 55,
      "prevout": {
        "scriptpubkey": "76a914b9a3a4af4c97e9ad01fe61b051b8bc6aeeed278788ac",
        "scriptpubkey_asm": "OP_DUP OP_HASH160 OP_PUSHBYTES_20 b9a3a4af4c97e9ad01fe61b051b8bc6aeeed2787 OP_EQUALVERIFY OP_CHECKSIG",
        "scriptpubkey_type": "p2pkh",
        "scriptpubkey_address": "1Hva3dDbS9Swa9Db7oNgPKCYiG1ysq8axP",
        "value": 2007096
      },
      "scriptsig": "473044022041cc0629548f860ecac88fc909dcb41501f6bf32d88af30ff9758456fc96fe7e02204b3617e59ff47ac7c78a0932421a6d9641368ac8be6d70f86b90814beeb1f1bb014104b2f54cac40a2d00e7978b1f6373267914ec20c0d53daec44aee0467a64d4d933dde4c9fe3f6a85aeb529f1e308b129f5791390261ac8b37ec48ef09f83177edf",
      "scriptsig_asm": "OP_PUSHBYTES_71 3044022041cc0629548f860ecac88fc909dcb41501f6bf32d88af30ff9758456fc96fe7e02204b3617e59ff47ac7c78a0932421a6d9641368ac8be6d70f86b90814beeb1f1bb01 OP_PUSHBYTES_65 04b2f54cac40a2d00e7978b1f6373267914ec20c0d53daec44aee0467a64d4d933dde4c9fe3f6a85aeb529f1e308b129f5791390261ac8b37ec48ef09f83177edf",
      "is_coinbase": false,
      "sequence": 4294967295
    },
    {
      "txid": "22d09506d7ba8960580ff4d0b1b3afc0b3fed1bfe5a858b1d2a922f583a57879",
      "vout": 69,
      "prevout": {
        "scriptpubkey": "76a914b9a3a4af4c97e9ad01fe61b051b8bc6aeeed278788ac",
        "scriptpubkey_asm": "OP_DUP OP_HASH160 OP_PUSHBYTES_20 b9a3a4af4c97e9ad01fe61b051b8bc6aeeed2787 OP_EQUALVERIFY OP_CHECKSIG",
        "scriptpubkey_type": "p2pkh",
        "scriptpubkey_address": "1Hva3dDbS9Swa9Db7oNgPKCYiG1ysq8axP",
        "value": 2014912
      },
      "scriptsig": "483045022100966cfc489c2ba67bc85252edeacaacab7ae10ca46f72d2bc7c6a372a024a234902203a00a13677525cd0ec2bbeaad4a45b1a98a5905a046db2acb8cb697ec952a9f1014104b2f54cac40a2d00e7978b1f6373267914ec20c0d53daec44aee0467a64d4d933dde4c9fe3f6a85aeb529f1e308b129f5791390261ac8b37ec48ef09f83177edf",
      "scriptsig_asm": "OP_PUSHBYTES_72 3045022100966cfc489c2ba67bc85252edeacaacab7ae10ca46f72d2bc7c6a372a024a234902203a00a13677525cd0ec2bbeaad4a45b1a98a5905a046db2acb8cb697ec952a9f101 OP_PUSHBYTES_65 04b2f54cac40a2d00e7978b1f6373267914ec20c0d53daec44aee0467a64d4d933dde4c9fe3f6a85aeb529f1e308b129f5791390261ac8b37ec48ef09f83177edf",
      "is_coinbase": false,
      "sequence": 4294967295
    },
    {
      "txid": "27279516458d1d3d804fed9ae5a0c0fe97288b5c7d895e337ae0fc4caf5f9e8f",
      "vout": 0,
      "prevout": {
        "scriptpubkey": "76a914b9a3a4af4c97e9ad01fe61b051b8bc6aeeed278788ac",
        "scriptpubkey_asm": "OP_DUP OP_HASH160 OP_PUSHBYTES_20 b9a3a4af4c97e9ad01fe61b051b8bc6aeeed2787 OP_EQUALVERIFY OP_CHECKSIG",
        "scriptpubkey_type": "p2pkh",
        "scriptpubkey_address": "1Hva3dDbS9Swa9Db7oNgPKCYiG1ysq8axP",
        "value": 10783481
      },
      "scriptsig": "483045022100a08781fdcf1916779df957f2269108086e9b6e43cd914b18a4fcd9098fd738b60220725cc4a6715553add37cac53f91467e02e70554f4a277233da025a1d3b300b4a014104b2f54cac40a2d00e7978b1f6373267914ec20c0d53daec44aee0467a64d4d933dde4c9fe3f6a85aeb529f1e308b129f5791390261ac8b37ec48ef09f83177edf",
      "scriptsig_asm": "OP_PUSHBYTES_72 3045022100a08781fdcf1916779df957f2269108086e9b6e43cd914b18a4fcd9098fd738b60220725cc4a6715553add37cac53f91467e02e70554f4a277233da025a1d3b300b4a01 OP_PUSHBYTES_65 04b2f54cac40a2d00e7978b1f6373267914ec20c0d53daec44aee0467a64d4d933dde4c9fe3f6a85aeb529f1e308b129f5791390261ac8b37ec48ef09f83177edf",
      "is_coinbase": false,
      "sequence": 4294967295
    },
    {
      "txid": "4d98768c5d1676846922a22f7410d795ac716e6613a63f76e336124fdb5c8768",
      "vout": 56,
      "prevout": {
        "scriptpubkey": "76a914b9a3a4af4c97e9ad01fe61b051b8bc6aeeed278788ac",
        "scriptpubkey_asm": "OP_DUP OP_HASH160 OP_PUSHBYTES_20 b9a3a4af4c97e9ad01fe61b051b8bc6aeeed2787 OP_EQUALVERIFY OP_CHECKSIG",
        "scriptpubkey_type": "p2pkh",
        "scriptpubkey_address": "1Hva3dDbS9Swa9Db7oNgPKCYiG1ysq8axP",
        "value": 2021297
      },
      "scriptsig": "47304402203729efa1d31d7656af6c7e5d2fa98e2369cdd4ca04afd964b871d0dfff4bbad3022015bc5e62b544da9d9369329d5ab4ac90e0cf4feb1a525371ecc07ffc48d4b2ef014104b2f54cac40a2d00e7978b1f6373267914ec20c0d53daec44aee0467a64d4d933dde4c9fe3f6a85aeb529f1e308b129f5791390261ac8b37ec48ef09f83177edf",
      "scriptsig_asm": "OP_PUSHBYTES_71 304402203729efa1d31d7656af6c7e5d2fa98e2369cdd4ca04afd964b871d0dfff4bbad3022015bc5e62b544da9d9369329d5ab4ac90e0cf4feb1a525371ecc07ffc48d4b2ef01 OP_PUSHBYTES_65 04b2f54cac40a2d00e7978b1f6373267914ec20c0d53daec44aee0467a64d4d933dde4c9fe3f6a85aeb529f1e308b129f5791390261ac8b37ec48ef09f83177edf",
      "is_coinbase": false,
      "sequence": 4294967295
    },
    {
      "txid": "68b4ac0921fc1f378b7c2ce2ab73dca72a5326ba23c38b4982125d946b14a058",
      "vout": 1,
      "prevout": {
        "scriptpubkey": "76a914b9a3a4af4c97e9ad01fe61b051b8bc6aeeed278788ac",
        "scriptpubkey_asm": "OP_DUP OP_HASH160 OP_PUSHBYTES_20 b9a3a4af4c97e9ad01fe61b051b8bc6aeeed2787 OP_EQUALVERIFY OP_CHECKSIG",
        "scriptpubkey_type": "p2pkh",
        "scriptpubkey_address": "1Hva3dDbS9Swa9Db7oNgPKCYiG1ysq8axP",
        "value": 29129695
      },
      "scriptsig": "47304402201b198602f110fa21366513c61389e6d8b96891996baa2e8ac4e975746104b61302207da87b5cf8bb7c0213889c10a82845766a13308c1cdcd1818cdcc66ae28fef5f014104b2f54cac40a2d00e7978b1f6373267914ec20c0d53daec44aee0467a64d4d933dde4c9fe3f6a85aeb529f1e308b129f5791390261ac8b37ec48ef09f83177edf",
      "scriptsig_asm": "OP_PUSHBYTES_71 304402201b198602f110fa21366513c61389e6d8b96891996baa2e8ac4e975746104b61302207da87b5cf8bb7c0213889c10a82845766a13308c1cdcd1818cdcc66ae28fef5f01 OP_PUSHBYTES_65 04b2f54cac40a2d00e7978b1f6373267914ec20c0d53daec44aee0467a64d4d933dde4c9fe3f6a85aeb529f1e308b129f5791390261ac8b37ec48ef09f83177edf",
      "is_coinbase": false,
      "sequence": 4294967295
    },
    {
      "txid": "9ee286ff14b1eb4fad06bcfec6af0042f91f07a10f2b7bd98f2dc984840580a4",
      "vout": 46,
      "prevout": {
        "scriptpubkey": "76a914b9a3a4af4c97e9ad01fe61b051b8bc6aeeed278788ac",
        "scriptpubkey_asm": "OP_DUP OP_HASH160 OP_PUSHBYTES_20 b9a3a4af4c97e9ad01fe61b051b8bc6aeeed2787 OP_EQUALVERIFY OP_CHECKSIG",
        "scriptpubkey_type": "p2pkh",
        "scriptpubkey_address": "1Hva3dDbS9Swa9Db7oNgPKCYiG1ysq8axP",
        "value": 2069274
      },
      "scriptsig": "483045022100ad4fedbba804e4c7047b4c37a9c05bccbdedd314c792bc898200ad40e1d00f9e022011851f85e7e6b23df66db702c768b4fa53a6f74996fd1b797c27d3110fbc184f014104b2f54cac40a2d00e7978b1f6373267914ec20c0d53daec44aee0467a64d4d933dde4c9fe3f6a85aeb529f1e308b129f5791390261ac8b37ec48ef09f83177edf",
      "scriptsig_asm": "OP_PUSHBYTES_72 3045022100ad4fedbba804e4c7047b4c37a9c05bccbdedd314c792bc898200ad40e1d00f9e022011851f85e7e6b23df66db702c768b4fa53a6f74996fd1b797c27d3110fbc184f01 OP_PUSHBYTES_65 04b2f54cac40a2d00e7978b1f6373267914ec20c0d53daec44aee0467a64d4d933dde4c9fe3f6a85aeb529f1e308b129f5791390261ac8b37ec48ef09f83177edf",
      "is_coinbase": false,
      "sequence": 4294967295
    },
    {
      "txid": "b05812a4143317d3d1baad060c92be049b4431cb39b14a09c53ff397f40c1b3e",
      "vout": 49,
      "prevout": {
        "scriptpubkey": "76a914b9a3a4af4c97e9ad01fe61b051b8bc6aeeed278788ac",
        "scriptpubkey_asm": "OP_DUP OP_HASH160 OP_PUSHBYTES_20 b9a3a4af4c97e9ad01fe61b051b8bc6aeeed2787 OP_EQUALVERIFY OP_CHECKSIG",
        "scriptpubkey_type": "p2pkh",
        "scriptpubkey_address": "1Hva3dDbS9Swa9Db7oNgPKCYiG1ysq8axP",
        "value": 2026099
      },
      "scriptsig": "47304402205f5f93afdd4f1476af5f5a7555ea7ca14832ecf989910b79edfff8aee119d4e902202d080837389a4cb74d6b5674a0b6253fe47663d1bf6e3823581c5a3f5909631a014104b2f54cac40a2d00e7978b1f6373267914ec20c0d53daec44aee0467a64d4d933dde4c9fe3f6a85aeb529f1e308b129f5791390261ac8b37ec48ef09f83177edf",
      "scriptsig_asm": "OP_PUSHBYTES_71 304402205f5f93afdd4f1476af5f5a7555ea7ca14832ecf989910b79edfff8aee119d4e902202d080837389a4cb74d6b5674a0b6253fe47663d1bf6e3823581c5a3f5909631a01 OP_PUSHBYTES_65 04b2f54cac40a2d00e7978b1f6373267914ec20c0d53daec44aee0467a64d4d933dde4c9fe3f6a85aeb529f1e308b129f5791390261ac8b37ec48ef09f83177edf",
      "is_coinbase": false,
      "sequence": 4294967295
    },
    {
      "txid": "c30439131e3a0bbfd8e656d3bb03fa76aafab5f6ae4465b356bcc8ee8f742c00",
      "vout": 49,
      "prevout": {
        "scriptpubkey": "76a914b9a3a4af4c97e9ad01fe61b051b8bc6aeeed278788ac",
        "scriptpubkey_asm": "OP_DUP OP_HASH160 OP_PUSHBYTES_20 b9a3a4af4c97e9ad01fe61b051b8bc6aeeed2787 OP_EQUALVERIFY OP_CHECKSIG",
        "scriptpubkey_type": "p2pkh",
        "scriptpubkey_address": "1Hva3dDbS9Swa9Db7oNgPKCYiG1ysq8axP",
        "value": 2009192
      },
      "scriptsig": "483045022100e75db077098df556788f2ff58a69032829ab5c596265246263319a8ca43dd4c60220358e2a5039d30ee82f999d79c5aec4848ede94f4f606c5516e5b3a1372962516014104b2f54cac40a2d00e7978b1f6373267914ec20c0d53daec44aee0467a64d4d933dde4c9fe3f6a85aeb529f1e308b129f5791390261ac8b37ec48ef09f83177edf",
      "scriptsig_asm": "OP_PUSHBYTES_72 3045022100e75db077098df556788f2ff58a69032829ab5c596265246263319a8ca43dd4c60220358e2a5039d30ee82f999d79c5aec4848ede94f4f606c5516e5b3a137296251601 OP_PUSHBYTES_65 04b2f54cac40a2d00e7978b1f6373267914ec20c0d53daec44aee0467a64d4d933dde4c9fe3f6a85aeb529f1e308b129f5791390261ac8b37ec48ef09f83177edf",
      "is_coinbase": false,
      "sequence": 4294967295
    },
    {
      "txid": "d4a4f585bd5a8fca903a0cbc9a76113618781feb5d4c8bb883aed067c51dd3af",
      "vout": 3,
      "prevout": {
        "scriptpubkey": "76a914b9a3a4af4c97e9ad01fe61b051b8bc6aeeed278788ac",
        "scriptpubkey_asm": "OP_DUP OP_HASH160 OP_PUSHBYTES_20 b9a3a4af4c97e9ad01fe61b051b8bc6aeeed2787 OP_EQUALVERIFY OP_CHECKSIG",
        "scriptpubkey_type": "p2pkh",
        "scriptpubkey_address": "1Hva3dDbS9Swa9Db7oNgPKCYiG1ysq8axP",
        "value": 1995096
      },
      "scriptsig": "473044022003061dbf3d96c35be899d84b735af757392beb39bd6d8fa27adfe2e63b2af30e0220052e4fa23fa777d17bf260291b41acf5baef8702ec97e4e428e99c98a8231417014104b2f54cac40a2d00e7978b1f6373267914ec20c0d53daec44aee0467a64d4d933dde4c9fe3f6a85aeb529f1e308b129f5791390261ac8b37ec48ef09f83177edf",
      "scriptsig_asm": "OP_PUSHBYTES_71 3044022003061dbf3d96c35be899d84b735af757392beb39bd6d8fa27adfe2e63b2af30e0220052e4fa23fa777d17bf260291b41acf5baef8702ec97e4e428e99c98a823141701 OP_PUSHBYTES_65 04b2f54cac40a2d00e7978b1f6373267914ec20c0d53daec44aee0467a64d4d933dde4c9fe3f6a85aeb529f1e308b129f5791390261ac8b37ec48ef09f83177edf",
      "is_coinbase": false,
      "sequence": 4294967295
    },
    {
      "txid": "d4bd38aa0950e6c2fb0f644d3cdf09f9345ebe0d037c8a0484ea9ce0db3dd11b",
      "vout": 54,
      "prevout": {
        "scriptpubkey": "76a914b9a3a4af4c97e9ad01fe61b051b8bc6aeeed278788ac",
        "scriptpubkey_asm": "OP_DUP OP_HASH160 OP_PUSHBYTES_20 b9a3a4af4c97e9ad01fe61b051b8bc6aeeed2787 OP_EQUALVERIFY OP_CHECKSIG",
        "scriptpubkey_type": "p2pkh",
        "scriptpubkey_address": "1Hva3dDbS9Swa9Db7oNgPKCYiG1ysq8axP",
        "value": 2049798
      },
      "scriptsig": "483045022100c11196357196438db70e07171a0a04a597fd7637be35b63df753107b4448e25a02201db6ad4103838050e4805d377317da0a7c1ab951fcb02f63701a2db12fe1ba0a014104b2f54cac40a2d00e7978b1f6373267914ec20c0d53daec44aee0467a64d4d933dde4c9fe3f6a85aeb529f1e308b129f5791390261ac8b37ec48ef09f83177edf",
      "scriptsig_asm": "OP_PUSHBYTES_72 3045022100c11196357196438db70e07171a0a04a597fd7637be35b63df753107b4448e25a02201db6ad4103838050e4805d377317da0a7c1ab951fcb02f63701a2db12fe1ba0a01 OP_PUSHBYTES_65 04b2f54cac40a2d00e7978b1f6373267914ec20c0d53daec44aee0467a64d4d933dde4c9fe3f6a85aeb529f1e308b129f5791390261ac8b37ec48ef09f83177edf",
      "is_coinbase": false,
      "sequence": 4294967295
    },
    {
      "txid": "e6b00cbea5ec1bf9e02366157669e8f88c307234c5702c2698e12e37b0c383ee",
      "vout": 52,
      "prevout": {
        "scriptpubkey": "76a914b9a3a4af4c97e9ad01fe61b051b8bc6aeeed278788ac",
        "scriptpubkey_asm": "OP_DUP OP_HASH160 OP_PUSHBYTES_20 b9a3a4af4c97e9ad01fe61b051b8bc6aeeed2787 OP_EQUALVERIFY OP_CHECKSIG",
        "scriptpubkey_type": "p2pkh",
        "scriptpubkey_address": "1Hva3dDbS9Swa9Db7oNgPKCYiG1ysq8axP",
        "value": 11469
      },
      "scriptsig": "483045022100d2520a3a8328175002dc8303dedaf4cb43540b656ffecb76f8b2626af6222cb402207458c301c79dbf163e3d6472b55fc15cbfd4ec1c315e64f845b6299b8f4b95d2014104b2f54cac40a2d00e7978b1f6373267914ec20c0d53daec44aee0467a64d4d933dde4c9fe3f6a85aeb529f1e308b129f5791390261ac8b37ec48ef09f83177edf",
      "scriptsig_asm": "OP_PUSHBYTES_72 3045022100d2520a3a8328175002dc8303dedaf4cb43540b656ffecb76f8b2626af6222cb402207458c301c79dbf163e3d6472b55fc15cbfd4ec1c315e64f845b6299b8f4b95d201 OP_PUSHBYTES_65 04b2f54cac40a2d00e7978b1f6373267914ec20c0d53daec44aee0467a64d4d933dde4c9fe3f6a85aeb529f1e308b129f5791390261ac8b37ec48ef09f83177edf",
      "is_coinbase": false,
      "sequence": 4294967295
    },
    {
      "txid": "ecd9ba6748d332264c677e96b1c2ed55b542d2753a70a7933f8eedf85498c636",
      "vout": 35,
      "prevout": {
        "scriptpubkey": "76a914b9a3a4af4c97e9ad01fe61b051b8bc6aeeed278788ac",
        "scriptpubkey_asm": "OP_DUP OP_HASH160 OP_PUSHBYTES_20 b9a3a4af4c97e9ad01fe61b051b8bc6aeeed2787 OP_EQUALVERIFY OP_CHECKSIG",
        "scriptpubkey_type": "p2pkh",
        "scriptpubkey_address": "1Hva3dDbS9Swa9Db7oNgPKCYiG1ysq8axP",
        "value": 2003400
      },
      "scriptsig": "4730440220153b9828e42d73ffa76b4abd3ca110e6a3f00e3e86e82909ca41400e496402bf022041da087c3563ab20b625f6a87316137028b59676f41291a5567cda3e933dcfe8014104b2f54cac40a2d00e7978b1f6373267914ec20c0d53daec44aee0467a64d4d933dde4c9fe3f6a85aeb529f1e308b129f5791390261ac8b37ec48ef09f83177edf",
      "scriptsig_asm": "OP_PUSHBYTES_71 30440220153b9828e42d73ffa76b4abd3ca110e6a3f00e3e86e82909ca41400e496402bf022041da087c3563ab20b625f6a87316137028b59676f41291a5567cda3e933dcfe801 OP_PUSHBYTES_65 04b2f54cac40a2d00e7978b1f6373267914ec20c0d53daec44aee0467a64d4d933dde4c9fe3f6a85aeb529f1e308b129f5791390261ac8b37ec48ef09f83177edf",
      "is_coinbase": false,
      "sequence": 4294967295
    }
  ],
  "vout": [
    {
      "scriptpubkey": "0014d061423bbabe5d3796a473ad7a52839655533991",
      "scriptpubkey_asm": "OP_0 OP_PUSHBYTES_20 d061423bbabe5d3796a473ad7a52839655533991",
      "scriptpubkey_type": "v0_p2wpkh",
      "scriptpubkey_address": "bc1q6ps5ywa6hewn094ywwkh555rje24xwv38gzl5d",
      "value": 58084229
    }
  ],
  "size": 2195,
  "weight": 8780,
  "fee": 36580,
  "status": {
    "confirmed": true,
    "block_height": 834638,
    "block_hash": "000000000000000000025f742c626208ac87e0b7d15054abb4a19ca2d735a54e",
    "block_time": 1710405325
  },
  "hex": "010000000c2154794cc698001ee09fd08eaf2d2ef20ebf7405561e89d2a23179f5eb61f41c370000008a473044022041cc0629548f860ecac88fc909dcb41501f6bf32d88af30ff9758456fc96fe7e02204b3617e59ff47ac7c78a0932421a6d9641368ac8be6d70f86b90814beeb1f1bb014104b2f54cac40a2d00e7978b1f6373267914ec20c0d53daec44aee0467a64d4d933dde4c9fe3f6a85aeb529f1e308b129f5791390261ac8b37ec48ef09f83177edfffffffff7978a583f522a9d2b158a8e5bfd1feb3c0afb3b1d0f40f586089bad70695d022450000008b483045022100966cfc489c2ba67bc85252edeacaacab7ae10ca46f72d2bc7c6a372a024a234902203a00a13677525cd0ec2bbeaad4a45b1a98a5905a046db2acb8cb697ec952a9f1014104b2f54cac40a2d00e7978b1f6373267914ec20c0d53daec44aee0467a64d4d933dde4c9fe3f6a85aeb529f1e308b129f5791390261ac8b37ec48ef09f83177edfffffffff8f9e5faf4cfce07a335e897d5c8b2897fec0a0e59aed4f803d1d8d4516952727000000008b483045022100a08781fdcf1916779df957f2269108086e9b6e43cd914b18a4fcd9098fd738b60220725cc4a6715553add37cac53f91467e02e70554f4a277233da025a1d3b300b4a014104b2f54cac40a2d00e7978b1f6373267914ec20c0d53daec44aee0467a64d4d933dde4c9fe3f6a85aeb529f1e308b129f5791390261ac8b37ec48ef09f83177edfffffffff68875cdb4f1236e3763fa613666e71ac95d710742fa222698476165d8c76984d380000008a47304402203729efa1d31d7656af6c7e5d2fa98e2369cdd4ca04afd964b871d0dfff4bbad3022015bc5e62b544da9d9369329d5ab4ac90e0cf4feb1a525371ecc07ffc48d4b2ef014104b2f54cac40a2d00e7978b1f6373267914ec20c0d53daec44aee0467a64d4d933dde4c9fe3f6a85aeb529f1e308b129f5791390261ac8b37ec48ef09f83177edfffffffff58a0146b945d1282498bc323ba26532aa7dc73abe22c7c8b371ffc2109acb468010000008a47304402201b198602f110fa21366513c61389e6d8b96891996baa2e8ac4e975746104b61302207da87b5cf8bb7c0213889c10a82845766a13308c1cdcd1818cdcc66ae28fef5f014104b2f54cac40a2d00e7978b1f6373267914ec20c0d53daec44aee0467a64d4d933dde4c9fe3f6a85aeb529f1e308b129f5791390261ac8b37ec48ef09f83177edfffffffffa480058484c92d8fd97b2b0fa1071ff94200afc6febc06ad4febb114ff86e29e2e0000008b483045022100ad4fedbba804e4c7047b4c37a9c05bccbdedd314c792bc898200ad40e1d00f9e022011851f85e7e6b23df66db702c768b4fa53a6f74996fd1b797c27d3110fbc184f014104b2f54cac40a2d00e7978b1f6373267914ec20c0d53daec44aee0467a64d4d933dde4c9fe3f6a85aeb529f1e308b129f5791390261ac8b37ec48ef09f83177edfffffffff3e1b0cf497f33fc5094ab139cb31449b04be920c06adbad1d3173314a41258b0310000008a47304402205f5f93afdd4f1476af5f5a7555ea7ca14832ecf989910b79edfff8aee119d4e902202d080837389a4cb74d6b5674a0b6253fe47663d1bf6e3823581c5a3f5909631a014104b2f54cac40a2d00e7978b1f6373267914ec20c0d53daec44aee0467a64d4d933dde4c9fe3f6a85aeb529f1e308b129f5791390261ac8b37ec48ef09f83177edfffffffff002c748feec8bc56b36544aef6b5faaa76fa03bbd356e6d8bf0b3a1e133904c3310000008b483045022100e75db077098df556788f2ff58a69032829ab5c596265246263319a8ca43dd4c60220358e2a5039d30ee82f999d79c5aec4848ede94f4f606c5516e5b3a1372962516014104b2f54cac40a2d00e7978b1f6373267914ec20c0d53daec44aee0467a64d4d933dde4c9fe3f6a85aeb529f1e308b129f5791390261ac8b37ec48ef09f83177edfffffffffafd31dc567d0ae83b88b4c5deb1f78183611769abc0c3a90ca8f5abd85f5a4d4030000008a473044022003061dbf3d96c35be899d84b735af757392beb39bd6d8fa27adfe2e63b2af30e0220052e4fa23fa777d17bf260291b41acf5baef8702ec97e4e428e99c98a8231417014104b2f54cac40a2d00e7978b1f6373267914ec20c0d53daec44aee0467a64d4d933dde4c9fe3f6a85aeb529f1e308b129f5791390261ac8b37ec48ef09f83177edfffffffff1bd13ddbe09cea84048a7c030dbe5e34f909df3c4d640ffbc2e65009aa38bdd4360000008b483045022100c11196357196438db70e07171a0a04a597fd7637be35b63df753107b4448e25a02201db6ad4103838050e4805d377317da0a7c1ab951fcb02f63701a2db12fe1ba0a014104b2f54cac40a2d00e7978b1f6373267914ec20c0d53daec44aee0467a64d4d933dde4c9fe3f6a85aeb529f1e308b129f5791390261ac8b37ec48ef09f83177edfffffffffee83c3b0372ee198262c70c53472308cf8e86976156623e0f91beca5be0cb0e6340000008b483045022100d2520a3a8328175002dc8303dedaf4cb43540b656ffecb76f8b2626af6222cb402207458c301c79dbf163e3d6472b55fc15cbfd4ec1c315e64f845b6299b8f4b95d2014104b2f54cac40a2d00e7978b1f6373267914ec20c0d53daec44aee0467a64d4d933dde4c9fe3f6a85aeb529f1e308b129f5791390261ac8b37ec48ef09f83177edfffffffff36c69854f8ed8e3f93a7703a75d242b555edc2b1967e674c2632d34867bad9ec230000008a4730440220153b9828e42d73ffa76b4abd3ca110e6a3f00e3e86e82909ca41400e496402bf022041da087c3563ab20b625f6a87316137028b59676f41291a5567cda3e933dcfe8014104b2f54cac40a2d00e7978b1f6373267914ec20c0d53daec44aee0467a64d4d933dde4c9fe3f6a85aeb529f1e308b129f5791390261ac8b37ec48ef09f83177edfffffffff01854b760300000000160014d061423bbabe5d3796a473ad7a5283965553399100000000"
}