{
  "txid": "3ca8440bb6377ebc8b0951930accd582ce631a72dc10f7a83e1b0ad6e2bef840",
  "version": 1,
  "locktime": 0,
  "vin": [
    {
      "txid": "4b08ba984e9447f218078ceac37d30a8200ef336ea9fff6731a1d0181d1af482",
      "vout": 1,
      "prevout": {
        "scriptpubkey": "001468abbb37f06faa54022a1022d35681c04e2610f7",
        "scriptpubkey_asm": "OP_0 OP_PUSHBYTES_20 68abbb37f06faa54022a1022d35681c04e2610f7",
        "scriptpubkey_type": "v0_p2wpkh",
        "scriptpubkey_address": "bc1qdz4mkdlsd749gq32zq3dx45pcp8zvy8hnrnmua",
        "value": 61560
      },
      "scriptsig": "",
      "scriptsig_asm": "",
      "witness": [
        "304402203f8a32332157ee29b005519b9598ac7218b91f9113bcb1376136a7809bd4ec3002201da633eb64b4df35bce3cf39c7286538047bfef363787bbf5e151e702f52e9ac01",
        "02b45c5dfaec583d52ed51ca73e715ff6a6b5f1b85868f38c6305da585d0153ed7"
      ],
      "is_coinbase": false,
      "sequence": 4294967295
    }
  ],
  "vout": [
    {
      "scriptpubkey": "00144e3ae3bb4e498a33c21a989f1df16829db55dbab",
      "scriptpubkey_asm": "OP_0 OP_PUSHBYTES_20 4e3ae3bb4e498a33c21a989f1df16829db55dbab",
      "scriptpubkey_type": "v0_p2wpkh",
      "scriptpubkey_address": "bc1qfcaw8w6wfx9r8ss6nz03mutg98d4tkataetstn",
      "value": 58590
    }
  ],
  "size": 191,
  "weight": 437,
  "fee": 2970,
  "status": {
    "confirmed": true,
    "block_height": 834638,
    "block_hash": "000000000000000000025f742c626208ac87e0b7d15054abb4a19ca2d735a54e",
    "block_time": 1710405325
  },
  "hex": "0100000000010182f41a1d18d0a13167ff9fea36f30e20a8307dc3ea8c0718f247944e98ba084b0100000000ffffffff01dee40000000000001600144e3ae3bb4e498a33c21a989f1df16829db55dbab0247304402203f8a32332157ee29b005519b9598ac7218b91f9113bcb1376136a7809bd4ec3002201da633eb64b4df35bce3cf39c7286538047bfef363787bbf5e151e702f52e9ac012102b45c5dfaec583d52ed51ca73e715ff6a6b5f1b85868f38c6305da585d0153ed700000000"
}