{
  "txid": "3cb3e87475c541029686f32ebffbf7a2e512e86738a3cba79f7ca56c811dc06d",
  "version": 1,
  "locktime": 0,
  "vin": [
    {
      "txid": "2b415a36bfdeef1c4633f4acad1aecfefd2b550de6bb50860a642e8c9e07e2ad",
      "vout": 1,
      "prevout": {
        "scriptpubkey": "001481eccb3635ff597640294bc19686dad8b6a52772",
        "scriptpubkey_asm": "OP_0 OP_PUSHBYTES_20 81eccb3635ff597640294bc19686dad8b6a52772",
        "scriptpubkey_type": "v0_p2wpkh",
        "scriptpubkey_address": "bc1qs8kvkd34lavhvspff0qedpk6mzm22fmjceqzz8",
        "value": 81794
      },
      "scriptsig": "",
      "scriptsig_asm": "",
      "witness": [
        "3045022100e6a1886e1ddb50fbd8a7c2a8be9a7103863a2152edd4e6549a8191e72905415302205fdac3122a7b6e74f7aef26aaded77b817b6ae8faf1d54a31f9964d73b1e73e201",
        "03d6d0738910d3d338324e2ed224f599addb60f842561a297c1793d4f2ed1c6adc"
      ],
      "is_coinbase": false,
      "sequence": 4294967295
    }
  ],
  "vout": [
    {
      "scriptpubkey": "a914eabec666877d166531aad2825e443298c0ae4d2987",
      "scriptpubkey_asm": "OP_HASH160 OP_PUSHBYTES_20 eabec666877d166531aad2825e443298c0ae4d29 OP_EQUAL",
      "scriptpubkey_type": "p2sh",
      "scriptpubkey_address": "3P6EaiE3M2hjrrdM783kV9wp7ZqFaquDG6",
      "value": 9548
    },
    {
      "scriptpubkey": "001449d52aa33c25e00f4d49ee5eebb84e64e5054fb3",
      "scriptpubkey_asm": "OP_0 OP_PUSHBYTES_20 49d52aa33c25e00f4d49ee5eebb84e64e5054fb3",
      "scriptpubkey_type": "v0_p2wpkh",
      "scriptpubkey_address": "bc1qf82j4geuyhsq7n2fae0whwzwvnjs2nanzpmg6r",
      "value": 70146
    }
  ],
  "size": 224,
  "weight": 566,
  "fee": 2100,
  "status": {
    "confirmed": true,
    "block_height": 834638,
    "block_hash": "000000000000000000025f742c626208ac87e0b7d15054abb4a19ca2d735a54e",
    "block_time": 1710405325
  },
  "hex": "01000000000101ade2079e8c2e640a8650bbe60d552bfdfeec1aadacf433461cefdebf365a412b0100000000ffffffff024c2500000000000017a914eabec666877d166531aad2825e443298c0ae4d2987021201000000000016001449d52aa33c25e00f4d49ee5eebb84e64e5054fb302483045022100e6a1886e1ddb50fbd8a7c2a8be9a7103863a2152edd4e6549a8191e72905415302205fdac3122a7b6e74f7aef26aaded77b817b6ae8faf1d54a31f9964d73b1e73e2012103d6d0738910d3d338324e2ed224f599addb60f842561a297c1793d4f2ed1c6adc00000000"
}