{
  "txid": "3cb68baa7d424517cef3cf785191f4a927f75bd5111765e24f541277b235a522",
  "version": 2,
  "locktime": 834637,
  "vin": [
    {
      "txid": "7f66a6889c0fbabc37cbca77c3feb4445e8c60a0be480d8430b075d3b7b61732",
      "vout": 0,
      "prevout": {
        "scriptpubkey": "0014a8ee285ea848a2bfd2e54999a26602e5b5b92076",
        "scriptpubkey_asm": "OP_0 OP_PUSHBYTES_20 a8ee285ea848a2bfd2e54999a26602e5b5b92076",
        "scriptpubkey_type": "v0_p2wpkh",
        "scriptpubkey_address": "bc1q4rhzsh4gfz3tl5h9fxv6yeszuk6mjgrkxm65a7",
        "value": 905070
      },
      "scriptsig": "",
      "scriptsig_asm": "",
      "witness": [
        "30430220774ead910d25575f7615b03701de932b44677c0463827ffe8408f3fd4bf83b28021f12de281a1a52b044cc5d8dcf90ac8372cb9e54b514532a42c02d987c539e7c01",
        "02652764419e4daf878561595a6447040656e7550677319f09edc8487c6dd64c29"
      ],
      "is_coinbase": false,
      "sequence": 4294967293
    }
  ],
  "vout": [
    {
      "scriptpubkey": "a9140c518d3a713bbaf6a1b1822f1c0ab42cb512847187",
      "scriptpubkey_asm": "OP_HASH160 OP_PUSHBYTES_20 0c518d3a713bbaf6a1b1822f1c0ab42cb5128471 OP_EQUAL",
      "scriptpubkey_type": "p2sh",
      "scriptpubkey_address": "32p9j9xftLEqbygneNoLW32aCfRS8r6jph",
      "value": 447200
    },
    {
      "scriptpubkey": "00143df80d24c4f787f06e707c1a8b67da3bb3d575b9",
      "scriptpubkey_asm": "OP_0 OP_PUSHBYTES_20 3df80d24c4f787f06e707c1a8b67da3bb3d575b9",
      "scriptpubkey_type": "v0_p2wpkh",
      "scriptpubkey_address": "bc1q8huq6fxy77rlqmns0sdgke768wea2adexc25nj",
      "value": 455000
    }
  ],
  "size": 222,
  "weight": 564,
  "fee": 2870,
  "status": {
    "confirmed": true,
    "block_height": 834638,
    "block_hash": "000000000000000000025f742c626208ac87e0b7d15054abb4a19ca2d735a54e",
    "block_time": 1710405325
  },
  "hex": "020000000001013217b6b7d375b030840d48bea0608c5e44b4fec377cacb37bcba0f9c88a6667f0000000000fdffffff02e0d206000000000017a9140c518d3a713bbaf6a1b1822f1c0ab42cb51284718758f10600000000001600143df80d24c4f787f06e707c1a8b67da3bb3d575b9024630430220774ead910d25575f7615b03701de932b44677c0463827ffe8408f3fd4bf83b28021f12de281a1a52b044cc5d8dcf90ac8372cb9e54b514532a42c02d987c539e7c012102652764419e4daf878561595a6447040656e7550677319f09edc8487c6dd64c294dbc0c00"
}