{
  "txid": "3cbc298c26172096e666486e88eb288e08e479c7c73ae9d46376abd227e6e2b7",
  "version": 2,
  "locktime": 0,
  "vin": [
    {
      "txid": "acc3ba00869acb582a3f2904ce3a11dd3779350ce234063fc7d0959246213364",
      "vout": 204,
      "prevout": {
        "scriptpubkey": "512098406685aa056687fe4a13df2190918b8c1882ed39a09dcee06c9c89d5b37c80",
        "scriptpubkey_asm": "OP_PUSHNUM_1 OP_PUSHBYTES_32 98406685aa056687fe4a13df2190918b8c1882ed39a09dcee06c9c89d5b37c80",
        "scriptpubkey_type": "v1_p2tr",
        "scriptpubkey_address": "bc1pnpqxdpd2q4ng0lj2z00jryy33wxp3qhd8xsfmnhqdjwgn4dn0jqqgg74pz",
        "value": 1806
      },
      "scriptsig": "",
      "scriptsig_asm": "",
      "witness": [
        "db0b436a556f359f638e3a591f638d52d63419cf2285edd6f7eecb87e7effd1beb41cffab7e00ff10627e1cc536e96b34e0993bdcacedaa835b52aa546830c01",
        "20fc01c2c474983f94e3dd988c3a5d2554d587115be052679f1801ab7d1ae22729ac0063036f726401010a746578742f706c61696e00357b2270223a226272632d3230222c226f70223a226d696e74222c227469636b223a22646f6765222c22616d74223a2234323030227d68",
        "c1fc01c2c474983f94e3dd988c3a5d2554d587115be052679f1801ab7d1ae22729"
      ],
      "is_coinbase": false,
      "sequence": 4261412863
    }
  ],
  "vout": [
    {
      "scriptpubkey": "00147a665de7a370f4c9b372ab1fae587500a5bcbdb4",
      "scriptpubkey_asm": "OP_0 OP_PUSHBYTES_20 7a665de7a370f4c9b372ab1fae587500a5bcbdb4",
      "scriptpubkey_type": "v0_p2wpkh",
      "scriptpubkey_address": "bc1q0fn9mearwr6vnvmj4v06ukr4qzjme0d565dzcx",
      "value": 294
    }
  ],
  "size": 294,
  "weight": 540,
  "fee": 1512,
  "status": {
    "confirmed": true,
    "block_height": 834460,
    "block_hash": "00000000000000000000484a79b643b2524bbce82e5d8a442013fa5b8905ed98",
    "block_time": 1710307468
  },
  "hex": "02000000000101643321469295d0c73f0634e20c357937dd113ace04293f2a58cb9a8600bac3accc00000000fffffffd0126010000000000001600147a665de7a370f4c9b372ab1fae587500a5bcbdb40340db0b436a556f359f638e3a591f638d52d63419cf2285edd6f7eecb87e7effd1beb41cffab7e00ff10627e1cc536e96b34e0993bdcacedaa835b52aa546830c016d20fc01c2c474983f94e3dd988c3a5d2554d587115be052679f1801ab7d1ae22729ac0063036f726401010a746578742f706c61696e00357b2270223a226272632d3230222c226f70223a226d696e74222c227469636b223a22646f6765222c22616d74223a2234323030227d6821c1fc01c2c474983f94e3dd988c3a5d2554d587115be052679f1801ab7d1ae2272900000000"
}