{
  "txid": "3cbc09c1a9d11af20dc25ab018a77d33e878029ee76f0bc2d358f23630274d60",
  "version": 1,
  "locktime": 0,
  "vin": [
    {
      "txid": "b99984400edbfa07ec94e18c151a03c3a727371a7be544ec72fda38dbe6716ac",
      "vout": 0,
      "prevout": {
        "scriptpubkey": "512093ccdef9aa2328c4f9c5a20b590c97b9907af53f852e4516b36914498afc0145",
        "scriptpubkey_asm": "OP_PUSHNUM_1 OP_PUSHBYTES_32 93ccdef9aa2328c4f9c5a20b590c97b9907af53f852e4516b36914498afc0145",
        "scriptpubkey_type": "v1_p2tr",
        "scriptpubkey_address": "bc1pj0xda7d2yv5vf7w95g94jryhhxg84afls5hy294ndy2ynzhuq9zsxn0c5s",
        "value": 2088
      },
      "scriptsig": "",
      "scriptsig_asm": "",
      "witness": [
        "52bcc9ab208f84b29f90478446211028de8cfd9103861b80ea7e15af0168442c109fcc717008a9ed3c69b11d5dc3f01338dbcb93a0ddfaf968f97ea17228077d",
        "20fe5613a697690109f8024359307d7dbd8389dea8afb169e93fd3dc9ce7ccae61ac0063036f72640101106170706c69636174696f6e2f6a736f6e010716636272632d32303a6d696e743a636274633d31303030003e7b2270223a20226272632d3230222c20226f70223a20226d696e74222c20227469636b223a202242494452222c2022616d74223a20223130303030227d0a68",
        "c1fe5613a697690109f8024359307d7dbd8389dea8afb169e93fd3dc9ce7ccae61"
      ],
      "is_coinbase": false,
      "sequence": 4294967293
    }
  ],
  "vout": [
    {
      "scriptpubkey": "5120c117f9bc6e53b9e12c2de53309efcc2e7872a7a3ffc72e25a49743e913067347",
      "scriptpubkey_asm": "OP_PUSHNUM_1 OP_PUSHBYTES_32 c117f9bc6e53b9e12c2de53309efcc2e7872a7a3ffc72e25a49743e913067347",
      "scriptpubkey_type": "v1_p2tr",
      "scriptpubkey_address": "bc1pcytln0rw2wu7ztpdu5esnm7v9eu89farllrjufdyjap7jycxwdrs86mlr5",
      "value": 330
    }
  ],
  "size": 346,
  "weight": 628,
  "fee": 1758,
  "status": {
    "confirmed": true,
    "block_height": 834460,
    "block_hash": "00000000000000000000484a79b643b2524bbce82e5d8a442013fa5b8905ed98",
    "block_time": 1710307468
  },
  "hex": "01000000000101ac1667be8da3fd72ec44e57b1a3727a7c3031a158ce194ec07fadb0e408499b90000000000fdffffff014a01000000000000225120c117f9bc6e53b9e12c2de53309efcc2e7872a7a3ffc72e25a49743e913067347034052bcc9ab208f84b29f90478446211028de8cfd9103861b80ea7e15af0168442c109fcc717008a9ed3c69b11d5dc3f01338dbcb93a0ddfaf968f97ea17228077d9520fe5613a697690109f8024359307d7dbd8389dea8afb169e93fd3dc9ce7ccae61ac0063036f72640101106170706c69636174696f6e2f6a736f6e010716636272632d32303a6d696e743a636274633d31303030003e7b2270223a20226272632d3230222c20226f70223a20226d696e74222c20227469636b223a202242494452222c2022616d74223a20223130303030227d0a6821c1fe5613a697690109f8024359307d7dbd8389dea8afb169e93fd3dc9ce7ccae6100000000"
}