{
  "txid": "3cbcbf14be745a3094dbdf5248740f1a095da9b4172821de1ff8897d3a804d88",
  "version": 1,
  "locktime": 0,
  "vin": [
    {
      "txid": "b36a8ae301bfa2709ffa100035206c2b67dea71640bfd734bd4be52f3875999d",
      "vout": 1,
      "prevout": {
        "scriptpubkey": "51209d6dbbf9bad17d0135e06ea56ec304df985f9f9bc809fa52ae6789a0947e0300",
        "scriptpubkey_asm": "OP_PUSHNUM_1 OP_PUSHBYTES_32 9d6dbbf9bad17d0135e06ea56ec304df985f9f9bc809fa52ae6789a0947e0300",
        "scriptpubkey_type": "v1_p2tr",
        "scriptpubkey_address": "bc1pn4kmh7d6697szd0qd6jkascym7v9l8umeqyl554wv7y6p9r7qvqquzkndh",
        "value": 376151
      },
      "scriptsig": "",
      "scriptsig_asm": "",
      "witness": [
        "540d5a627cef4a1b8eed1458d79f4f73a90beae180a08d2c4dcc0da19c2a0db34476a1749c216bd7ff58551037c4e9fbcd389c148397a3298ba7c816ec1f571a"
      ],
      "is_coinbase": false,
      "sequence": 0
    }
  ],
  "vout": [
    {
      "scriptpubkey": "5120af3081f4f8f3de83457491a78a7e58058303d5f760bf291520573d2df3ad007e",
      "scriptpubkey_asm": "OP_PUSHNUM_1 OP_PUSHBYTES_32 af3081f4f8f3de83457491a78a7e58058303d5f760bf291520573d2df3ad007e",
      "scriptpubkey_type": "v1_p2tr",
      "scriptpubkey_address": "bc1p4ucgra8c700gx3t5jxnc5ljcqkps840hvzljj9fq2u7jmuadqplqpnzyzr",
      "value": 2710
    },
    {
      "scriptpubkey": "51209d6dbbf9bad17d0135e06ea56ec304df985f9f9bc809fa52ae6789a0947e0300",
      "scriptpubkey_asm": "OP_PUSHNUM_1 OP_PUSHBYTES_32 9d6dbbf9bad17d0135e06ea56ec304df985f9f9bc809fa52ae6789a0947e0300",
      "scriptpubkey_type": "v1_p2tr",
      "scriptpubkey_address": "bc1pn4kmh7d6697szd0qd6jkascym7v9l8umeqyl554wv7y6p9r7qvqquzkndh",
      "value": 371593
    }
  ],
  "size": 205,
  "weight": 616,
  "fee": 1848,
  "status": {
    "confirmed": true,
    "block_height": 834460,
    "block_hash": "00000000000000000000484a79b643b2524bbce82e5d8a442013fa5b8905ed98",
    "block_time": 1710307468
  },
  "hex": "010000000001019d9975382fe54bbd34d7bf4016a7de672b6c20350010fa9f70a2bf01e38a6ab301000000000000000002960a000000000000225120af3081f4f8f3de83457491a78a7e58058303d5f760bf291520573d2df3ad007e89ab0500000000002251209d6dbbf9bad17d0135e06ea56ec304df985f9f9bc809fa52ae6789a0947e03000140540d5a627cef4a1b8eed1458d79f4f73a90beae180a08d2c4dcc0da19c2a0db34476a1749c216bd7ff58551037c4e9fbcd389c148397a3298ba7c816ec1f571a00000000"
}