{
  "txid": "3cc865c7a44cf2b8f869fac5505ede66aaa618bb532ca698912971ea8ca91736",
  "version": 2,
  "locktime": 0,
  "vin": [
    {
      "txid": "e167fed448012a700d101830e2d4b1743cd14dd527dc988978ba26499a6e42fb",
      "vout": 32,
      "prevout": {
        "scriptpubkey": "0014e33933e1c0ad1d9a02ada3e60234ceddf6016a0c",
        "scriptpubkey_asm": "OP_0 OP_PUSHBYTES_20 e33933e1c0ad1d9a02ada3e60234ceddf6016a0c",
        "scriptpubkey_type": "v0_p2wpkh",
        "scriptpubkey_address": "bc1quvun8cwq45we5q4d50nqydxwmhmqz6svg42m0y",
        "value": 2370118
      },
      "scriptsig": "",
      "scriptsig_asm": "",
      "witness": [
        "3045022100d4dc51f23a09f017a0a4698ce17f21bbc976700d450fb03bae727f4cd20b0b1b02200440dd68f41497fe283f7b16cbc660231330dc1dc91dc4c0f7a05f1915079da601",
        "02a424588ec833a92fd7450304dad1a3c873f2ac48e34559c3c15df52e293d404f"
      ],
      "is_coinbase": false,
      "sequence": 0
    },
    {
      "txid": "616bf768466d651d5e6e1bf8b6e39a4e21683524e075a160be574b0657fadcd8",
      "vout": 1,
      "prevout": {
        "scriptpubkey": "001432cd420ba9ce454c6dc068f73a25de03440fc6e8",
        "scriptpubkey_asm": "OP_0 OP_PUSHBYTES_20 32cd420ba9ce454c6dc068f73a25de03440fc6e8",
        "scriptpubkey_type": "v0_p2wpkh",
        "scriptpubkey_address": "bc1qxtx5yzafeez5cmwqdrmn5fw7qdzql3hgs7r94e",
        "value": 210636
      },
      "scriptsig": "",
      "scriptsig_asm": "",
      "witness": [
        "304402204a1ffba0eca797208cb367b9ede11cb4068656ffd1a66921b9748ba1666ed585022033c6e0b5eb690e2f269fbf88bd9c9a53cece72d584afab58167796c353a4326a01",
        "022063eba860ab6dc36bb167964c451177645b5a4248a55ed4d19202ee0cad0630"
      ],
      "is_coinbase": false,
      "sequence": 0
    },
    {
      "txid": "41e1f570b3c49da880abb0c7724047f89ee9a79c506a68d9938a5bb0ed84be2d",
      "vout": 1,
      "prevout": {
        "scriptpubkey": "0014a021bca729d4d8decba076b89b9dfd00fa55a5c4",
        "scriptpubkey_asm": "OP_0 OP_PUSHBYTES_20 a021bca729d4d8decba076b89b9dfd00fa55a5c4",
        "scriptpubkey_type": "v0_p2wpkh",
        "scriptpubkey_address": "bc1q5qsmefef6nvdajaqw6ufh80aqra9tfwyk3jnd2",
        "value": 7029506
      },
      "scriptsig": "",
      "scriptsig_asm": "",
      "witness": [
        "304402204a551f5f89735560c331ac47125e6efc29c5635d467d71dfe573f29b91bc9df20220291634f4023afca3aa211b5a51be80fc3cf20df02cd26790f49895d0c02f74ef01",
        "0213f25cc64499cc343ddd4620b4d0eeb7fb5ad66ff538d014cdd7824756c0df82"
      ],
      "is_coinbase": false,
      "sequence": 0
    }
  ],
  "vout": [
    {
      "scriptpubkey": "76a91494c9a0a6c7f3422ec40258ef6319f729a107044788ac",
      "scriptpubkey_asm": "OP_DUP OP_HASH160 OP_PUSHBYTES_20 94c9a0a6c7f3422ec40258ef6319f729a1070447 OP_EQUALVERIFY OP_CHECKSIG",
      "scriptpubkey_type": "p2pkh",
      "scriptpubkey_address": "1EZiYifRtG9vdTr3feZv7iVt4H5qaQvMuq",
      "value": 4067545
    },
    {
      "scriptpubkey": "001466ee5a64fc9628299c3530bf78c3ace7d48ac23a",
      "scriptpubkey_asm": "OP_0 OP_PUSHBYTES_20 66ee5a64fc9628299c3530bf78c3ace7d48ac23a",
      "scriptpubkey_type": "v0_p2wpkh",
      "scriptpubkey_address": "bc1qvmh95e8ujc5zn8p4xzlh3savul2g4s36c33vrk",
      "value": 5535141
    }
  ],
  "size": 522,
  "weight": 1116,
  "fee": 7574,
  "status": {
    "confirmed": true,
    "block_height": 834638,
    "block_hash": "000000000000000000025f742c626208ac87e0b7d15054abb4a19ca2d735a54e",
    "block_time": 1710405325
  },
  "hex": "02000000000103fb426e9a4926ba788998dc27d54dd13c74b1d4e23018100d702a0148d4fe67e1200000000000000000d8dcfa57064b57be60a175e0243568214e9ae3b6f81b6e5e1d656d4668f76b610100000000000000002dbe84edb05b8a93d9686a509ca7e99ef8474072c7b0ab80a89dc4b370f5e14101000000000000000002d9103e00000000001976a91494c9a0a6c7f3422ec40258ef6319f729a107044788aca57554000000000016001466ee5a64fc9628299c3530bf78c3ace7d48ac23a02483045022100d4dc51f23a09f017a0a4698ce17f21bbc976700d450fb03bae727f4cd20b0b1b02200440dd68f41497fe283f7b16cbc660231330dc1dc91dc4c0f7a05f1915079da6012102a424588ec833a92fd7450304dad1a3c873f2ac48e34559c3c15df52e293d404f0247304402204a1ffba0eca797208cb367b9ede11cb4068656ffd1a66921b9748ba1666ed585022033c6e0b5eb690e2f269fbf88bd9c9a53cece72d584afab58167796c353a4326a0121022063eba860ab6dc36bb167964c451177645b5a4248a55ed4d19202ee0cad06300247304402204a551f5f89735560c331ac47125e6efc29c5635d467d71dfe573f29b91bc9df20220291634f4023afca3aa211b5a51be80fc3cf20df02cd26790f49895d0c02f74ef01210213f25cc64499cc343ddd4620b4d0eeb7fb5ad66ff538d014cdd7824756c0df8200000000"
}