{
  "txid": "3cd813f9df72ffc561df4e1bbf1ece86f5365bd9b48d7f7169c7b20dcb2372f0",
  "version": 2,
  "locktime": 834459,
  "vin": [
    {
      "txid": "78e1f0fb8abb3ba92ef6533c2d6dc43ef3e700a3f681cb9522f239d081d1b860",
      "vout": 1,
      "prevout": {
        "scriptpubkey": "00143c550ad048e2d81b5b340700bc5a01d31546e18e",
        "scriptpubkey_asm": "OP_0 OP_PUSHBYTES_20 3c550ad048e2d81b5b340700bc5a01d31546e18e",
        "scriptpubkey_type": "v0_p2wpkh",
        "scriptpubkey_address": "bc1q832s45zgutvpkke5quqtcksp6v25dcvw697707",
        "value": 118012625
      },
      "scriptsig": "",
      "scriptsig_asm": "",
      "witness": [
        "30440220558d7563edca40e1f1bf68e16890c83f7ed7f72aa2c7e49c86aa03989e13fdcf0220438e213dc3444f8357974623fabdf5ccbd729d802c5a9404a8a5b33a4436373e01",
        "02a65b648994e5f2db608bfc2b3a9384abe259ffc9614ffcfd979a84560f2181e3"
      ],
      "is_coinbase": false,
      "sequence": 4294967294
    }
  ],
  "vout": [
    {
      "scriptpubkey": "001459e60355430464a7e9ee0904ffbccb00c0b7b318",
      "scriptpubkey_asm": "OP_0 OP_PUSHBYTES_20 59e60355430464a7e9ee0904ffbccb00c0b7b318",
      "scriptpubkey_type": "v0_p2wpkh",
      "scriptpubkey_address": "bc1qt8nqx42rq3j2060wpyz0l0xtqrqt0vcc7jja08",
      "value": 42394430
    },
    {
      "scriptpubkey": "001465f9a0ded395583c9ef6b2d6da015e7a87f17212",
      "scriptpubkey_asm": "OP_0 OP_PUSHBYTES_20 65f9a0ded395583c9ef6b2d6da015e7a87f17212",
      "scriptpubkey_type": "v0_p2wpkh",
      "scriptpubkey_address": "bc1qvhu6phknj4vre8hkkttd5q2702rlzusjpadrsv",
      "value": 75614389
    }
  ],
  "size": 222,
  "weight": 561,
  "fee": 3806,
  "status": {
    "confirmed": true,
    "block_height": 834460,
    "block_hash": "00000000000000000000484a79b643b2524bbce82e5d8a442013fa5b8905ed98",
    "block_time": 1710307468
  },
  "hex": "0200000000010160b8d181d039f22295cb81f6a300e7f33ec46d2d3c53f62ea93bbb8afbf0e1780100000000feffffff023ee386020000000016001459e60355430464a7e9ee0904ffbccb00c0b7b318b5c881040000000016001465f9a0ded395583c9ef6b2d6da015e7a87f17212024730440220558d7563edca40e1f1bf68e16890c83f7ed7f72aa2c7e49c86aa03989e13fdcf0220438e213dc3444f8357974623fabdf5ccbd729d802c5a9404a8a5b33a4436373e012102a65b648994e5f2db608bfc2b3a9384abe259ffc9614ffcfd979a84560f2181e39bbb0c00"
}