{
  "txid": "3ce2cd3a62b9e4a55ba93f1ae35c8a1719fee86167e555bbcdb61846801cf5a6",
  "version": 2,
  "locktime": 0,
  "vin": [
    {
      "txid": "a41daa886daa85a211d4011be8e1b80e4c3292bc4219e80106b0b82dae104434",
      "vout": 19,
      "prevout": {
        "scriptpubkey": "76a9148be6f3bfd272200811dc52e43538dc2e5c0a1d2688ac",
        "scriptpubkey_asm": "OP_DUP OP_HASH160 OP_PUSHBYTES_20 8be6f3bfd272200811dc52e43538dc2e5c0a1d26 OP_EQUALVERIFY OP_CHECKSIG",
        "scriptpubkey_type": "p2pkh",
        "scriptpubkey_address": "1DkjbW3oYDuqceMXLycdo24MpVd1rcHZG4",
        "value": 1327866
      },
      "scriptsig": "483045022100a8c76263a7343afe5c86cb053f82de250e5c3289d82ed375ec973a092d4f931b02206b23fba5f3c3e14f50a488d43540e5fde44b61b81ba8a700efa5d8097da0d3800121025f983d80f9bcdff1b458db3e935aa06a8546730e51b3bbee6b902bbab5e8967d",
      "scriptsig_asm": "OP_PUSHBYTES_72 3045022100a8c76263a7343afe5c86cb053f82de250e5c3289d82ed375ec973a092d4f931b02206b23fba5f3c3e14f50a488d43540e5fde44b61b81ba8a700efa5d8097da0d38001 OP_PUSHBYTES_33 025f983d80f9bcdff1b458db3e935aa06a8546730e51b3bbee6b902bbab5e8967d",
      "is_coinbase": false,
      "sequence": 4294967295
    }
  ],
  "vout": [
    {
      "scriptpubkey": "a91489011f680d257ed1718beb99d375be0cb44ca12e87",
      "scriptpubkey_asm": "OP_HASH160 OP_PUSHBYTES_20 89011f680d257ed1718beb99d375be0cb44ca12e OP_EQUAL",
      "scriptpubkey_type": "p2sh",
      "scriptpubkey_address": "3EBRqq5gn2CywBVQjwqNrbo1ez2QNRiZux",
      "value": 408651
    },
    {
      "scriptpubkey": "76a9143500c4fff4bd1635ff15578ed0cf9eb51418e72d88ac",
      "scriptpubkey_asm": "OP_DUP OP_HASH160 OP_PUSHBYTES_20 3500c4fff4bd1635ff15578ed0cf9eb51418e72d OP_EQUALVERIFY OP_CHECKSIG",
      "scriptpubkey_type": "p2pkh",
      "scriptpubkey_address": "15qFjdpvHSTxBK4NEJQP7wSWwX9oNEEUot",
      "value": 911901
    }
  ],
  "size": 224,
  "weight": 896,
  "fee": 7314,
  "status": {
    "confirmed": true,
    "block_height": 834638,
    "block_hash": "000000000000000000025f742c626208ac87e0b7d15054abb4a19ca2d735a54e",
    "block_time": 1710405325
  },
  "hex": "0200000001344410ae2db8b00601e81942bc92324c0eb8e1e81b01d411a285aa6d88aa1da4130000006b483045022100a8c76263a7343afe5c86cb053f82de250e5c3289d82ed375ec973a092d4f931b02206b23fba5f3c3e14f50a488d43540e5fde44b61b81ba8a700efa5d8097da0d3800121025f983d80f9bcdff1b458db3e935aa06a8546730e51b3bbee6b902bbab5e8967dffffffff024b3c06000000000017a91489011f680d257ed1718beb99d375be0cb44ca12e871dea0d00000000001976a9143500c4fff4bd1635ff15578ed0cf9eb51418e72d88ac00000000"
}