{
  "txid": "3cea4868138144a2f12b22c46ccaa6c83225bf3aaf54ec671aa5cbd3c33a7916",
  "version": 2,
  "locktime": 0,
  "vin": [
    {
      "txid": "e4bd228376ff10b9bd516c7c422fd281e5152b6a3ec133ad0afb7a1472acdfe3",
      "vout": 1,
      "prevout": {
        "scriptpubkey": "0014ac1cb96e133ab47e795a4de2db07d6c90f9b1e1a",
        "scriptpubkey_asm": "OP_0 OP_PUSHBYTES_20 ac1cb96e133ab47e795a4de2db07d6c90f9b1e1a",
        "scriptpubkey_type": "v0_p2wpkh",
        "scriptpubkey_address": "bc1q4swtjmsn8268u726fh3dkp7key8ek8s6s2kq3g",
        "value": 837726
      },
      "scriptsig": "",
      "scriptsig_asm": "",
      "witness": [
        "304402205136e90866c8fa4beff5eb26e25669c88add386087c5dca0046095f0f5eaffe40220327d2b64d1d88b6e4a2cc0d8647e199b7f531a696d2b17624b0a5a8907f16c9601",
        "0283f5cef7a9f5947182fb087017b86030b6be1601bb7c69bb2e24f3850e2cec9c"
      ],
      "is_coinbase": false,
      "sequence": 4294967295
    }
  ],
  "vout": [
    {
      "scriptpubkey": "a914aea7481c899525bacd54ed7d0ba41487614e362787",
      "scriptpubkey_asm": "OP_HASH160 OP_PUSHBYTES_20 aea7481c899525bacd54ed7d0ba41487614e3627 OP_EQUAL",
      "scriptpubkey_type": "p2sh",
      "scriptpubkey_address": "3HcVtrgwCiWfjuxLfo6xJaVoKcwDXwEvrt",
      "value": 35000
    },
    {
      "scriptpubkey": "0014878b3ed0c93a6cec3468395d80f438bd6b11da40",
      "scriptpubkey_asm": "OP_0 OP_PUSHBYTES_20 878b3ed0c93a6cec3468395d80f438bd6b11da40",
      "scriptpubkey_type": "v0_p2wpkh",
      "scriptpubkey_address": "bc1qs79na5xf8fkwcdrg89wcpapch443rkjqnju4dg",
      "value": 800637
    }
  ],
  "size": 223,
  "weight": 565,
  "fee": 2089,
  "status": {
    "confirmed": true,
    "block_height": 834638,
    "block_hash": "000000000000000000025f742c626208ac87e0b7d15054abb4a19ca2d735a54e",
    "block_time": 1710405325
  },
  "hex": "02000000000101e3dfac72147afb0aad33c13e6a2b15e581d22f427c6c51bdb910ff768322bde40100000000ffffffff02b88800000000000017a914aea7481c899525bacd54ed7d0ba41487614e3627877d370c0000000000160014878b3ed0c93a6cec3468395d80f438bd6b11da400247304402205136e90866c8fa4beff5eb26e25669c88add386087c5dca0046095f0f5eaffe40220327d2b64d1d88b6e4a2cc0d8647e199b7f531a696d2b17624b0a5a8907f16c9601210283f5cef7a9f5947182fb087017b86030b6be1601bb7c69bb2e24f3850e2cec9c00000000"
}