{
  "txid": "3ceaf3c79dec614ea2d5268980f8512e14e2f9fa6b641b2b6cabb1b483cc3a3f",
  "version": 1,
  "locktime": 0,
  "vin": [
    {
      "txid": "51ca28768fc003c2b0c452fdc4a880fba70ddab89a873aeffe24d73be705b5b8",
      "vout": 0,
      "prevout": {
        "scriptpubkey": "5120adc7cae1574eca76cf54cbef98f03bd616678b1cca80c716304f851045764803",
        "scriptpubkey_asm": "OP_PUSHNUM_1 OP_PUSHBYTES_32 adc7cae1574eca76cf54cbef98f03bd616678b1cca80c716304f851045764803",
        "scriptpubkey_type": "v1_p2tr",
        "scriptpubkey_address": "bc1p4hru4c2hfm98dn65e0he3upm6ctx0zcue2qvw93sf7z3q3tkfqpsm4gaq5",
        "value": 2568
      },
      "scriptsig": "",
      "scriptsig_asm": "",
      "witness": [
        "91c080116528fcfd6f0ce40f054f94c4a43d41194a3ffae1bb23139cca1feec17afec892281374b014522fb66bd425fd8f57b6c8cfd8fd51a47a60241863f8a183",
        "20be11f1d0580232188e877ef283eb5a1efd4e9e5290a2633605d666f59ad3fff2ac00630461746f6d03646d742ca16461726773a36b6d696e745f7469636b657263627463656e6f6e63651a004990fb6474696d651a65ef256a68",
        "c1be11f1d0580232188e877ef283eb5a1efd4e9e5290a2633605d666f59ad3fff2"
      ],
      "is_coinbase": false,
      "sequence": 4294967293
    }
  ],
  "vout": [
    {
      "scriptpubkey": "51209d6dbbf9bad17d0135e06ea56ec304df985f9f9bc809fa52ae6789a0947e0300",
      "scriptpubkey_asm": "OP_PUSHNUM_1 OP_PUSHBYTES_32 9d6dbbf9bad17d0135e06ea56ec304df985f9f9bc809fa52ae6789a0947e0300",
      "scriptpubkey_type": "v1_p2tr",
      "scriptpubkey_address": "bc1pn4kmh7d6697szd0qd6jkascym7v9l8umeqyl554wv7y6p9r7qvqquzkndh",
      "value": 1000
    }
  ],
  "size": 289,
  "weight": 571,
  "fee": 1568,
  "status": {
    "confirmed": true,
    "block_height": 834464,
    "block_hash": "0000000000000000000177a0869a911a2b65c9bdcd5a8bcb02b68f305bee848e",
    "block_time": 1710308296
  },
  "hex": "01000000000101b8b505e73bd724feef3a879ab8da0da7fb80a8c4fd52c4b0c203c08f7628ca510000000000fdffffff01e8030000000000002251209d6dbbf9bad17d0135e06ea56ec304df985f9f9bc809fa52ae6789a0947e0300034191c080116528fcfd6f0ce40f054f94c4a43d41194a3ffae1bb23139cca1feec17afec892281374b014522fb66bd425fd8f57b6c8cfd8fd51a47a60241863f8a1835b20be11f1d0580232188e877ef283eb5a1efd4e9e5290a2633605d666f59ad3fff2ac00630461746f6d03646d742ca16461726773a36b6d696e745f7469636b657263627463656e6f6e63651a004990fb6474696d651a65ef256a6821c1be11f1d0580232188e877ef283eb5a1efd4e9e5290a2633605d666f59ad3fff200000000"
}