{
  "txid": "3cfab790d298d6b94926800691e569714f94bfad6819bf79df245d7a88f31b89",
  "version": 1,
  "locktime": 0,
  "vin": [
    {
      "txid": "4341dcfbcca5dd43b695265883ed4c947752754f413366fdf86e23c8d348d243",
      "vout": 2,
      "prevout": {
        "scriptpubkey": "001424843a7e89e01e1d72b047b79a437318de876778",
        "scriptpubkey_asm": "OP_0 OP_PUSHBYTES_20 24843a7e89e01e1d72b047b79a437318de876778",
        "scriptpubkey_type": "v0_p2wpkh",
        "scriptpubkey_address": "bc1qyjzr5l5fuq0p6u4sg7me5smnrr0gwemccyt49u",
        "value": 8916629
      },
      "scriptsig": "",
      "scriptsig_asm": "",
      "witness": [
        "3045022100f97a06ca20aed3edfd5267464faf79e8b3db5467a9f1b6d8a9c50973d30466f702203aac98b9c4286c059189f9e0252bc4466ebf76b9e42853efa65f120e3c1075de01",
        "025aca51d6b4fc7a8d2f180c8f42f7a058ac1fc598cf488bb67df77862ec3ab9fe"
      ],
      "is_coinbase": false,
      "sequence": 4294967295
    }
  ],
  "vout": [
    {
      "scriptpubkey": "0014f36a91d8baee29f565be554d53f803289428fb60",
      "scriptpubkey_asm": "OP_0 OP_PUSHBYTES_20 f36a91d8baee29f565be554d53f803289428fb60",
      "scriptpubkey_type": "v0_p2wpkh",
      "scriptpubkey_address": "bc1q7d4frk96ac5l2ed724x487qr9z2z37mq740wmp",
      "value": 37950
    },
    {
      "scriptpubkey": "001479ff6e91fbdb6a67b51dc4d8b617e52576723881",
      "scriptpubkey_asm": "OP_0 OP_PUSHBYTES_20 79ff6e91fbdb6a67b51dc4d8b617e52576723881",
      "scriptpubkey_type": "v0_p2wpkh",
      "scriptpubkey_address": "bc1q08lkay0mmd4x0dgacnvtv9l9y4m8ywypvkzyfl",
      "value": 4957456
    },
    {
      "scriptpubkey": "0014c30e9abbe731215363a9ba1781c9bbca4ace82ac",
      "scriptpubkey_asm": "OP_0 OP_PUSHBYTES_20 c30e9abbe731215363a9ba1781c9bbca4ace82ac",
      "scriptpubkey_type": "v0_p2wpkh",
      "scriptpubkey_address": "bc1qcv8f4wl8xys4xcafhgtcrjdmef9vaq4vpcpgg5",
      "value": 3917495
    }
  ],
  "size": 254,
  "weight": 686,
  "fee": 3728,
  "status": {
    "confirmed": true,
    "block_height": 834460,
    "block_hash": "00000000000000000000484a79b643b2524bbce82e5d8a442013fa5b8905ed98",
    "block_time": 1710307468
  },
  "hex": "0100000000010143d248d3c8236ef8fd6633414f755277944ced83582695b643dda5ccfbdc41430200000000ffffffff033e94000000000000160014f36a91d8baee29f565be554d53f803289428fb6010a54b000000000016001479ff6e91fbdb6a67b51dc4d8b617e52576723881b7c63b0000000000160014c30e9abbe731215363a9ba1781c9bbca4ace82ac02483045022100f97a06ca20aed3edfd5267464faf79e8b3db5467a9f1b6d8a9c50973d30466f702203aac98b9c4286c059189f9e0252bc4466ebf76b9e42853efa65f120e3c1075de0121025aca51d6b4fc7a8d2f180c8f42f7a058ac1fc598cf488bb67df77862ec3ab9fe00000000"
}