{
  "txid": "3cfbbcae83b2fec4d3ec1042c6203acc1bc354d70d1ca96fd5770fc245e78b80",
  "version": 2,
  "locktime": 0,
  "vin": [
    {
      "txid": "cc1cb172500e22ec882eadc0d602f9b7324a74b47e160e1ef278b8b3d531700d",
      "vout": 1,
      "prevout": {
        "scriptpubkey": "0014eed7a446c9d117f55d5683d41042d24c204694bf",
        "scriptpubkey_asm": "OP_0 OP_PUSHBYTES_20 eed7a446c9d117f55d5683d41042d24c204694bf",
        "scriptpubkey_type": "v0_p2wpkh",
        "scriptpubkey_address": "bc1qamt6g3kf6ytl2h2ks02pqskjfssyd99l603vxj",
        "value": 1159570
      },
      "scriptsig": "",
      "scriptsig_asm": "",
      "witness": [
        "304402202afd721a5fd3a8110e60c03460ac0258034e8914ac5f5e00ca589cfa2433eed90220386bbed61c89324c0f7e3f020b768feb1c5c55e3a1b097732f4bdc5693046c1001",
        "0392e5d6b3eebf36f35e5f15e583a872e281c2625dec350e432ff741d2eb642f4b"
      ],
      "is_coinbase": false,
      "sequence": 4294967293
    }
  ],
  "vout": [
    {
      "scriptpubkey": "00141cc10eefaa6f6549f0309fe3737ce756df306a95",
      "scriptpubkey_asm": "OP_0 OP_PUSHBYTES_20 1cc10eefaa6f6549f0309fe3737ce756df306a95",
      "scriptpubkey_type": "v0_p2wpkh",
      "scriptpubkey_address": "bc1qrnqsama2daj5nupsnl3hxl882m0nq6548wj58t",
      "value": 78293
    },
    {
      "scriptpubkey": "76a91488f219875ef0dbe07dd7dd2621b50b270407a79688ac",
      "scriptpubkey_asm": "OP_DUP OP_HASH160 OP_PUSHBYTES_20 88f219875ef0dbe07dd7dd2621b50b270407a796 OP_EQUALVERIFY OP_CHECKSIG",
      "scriptpubkey_type": "p2pkh",
      "scriptpubkey_address": "1DV6vUQXHVRnGErH9JkwTTqpav4tLokiHX",
      "value": 123992
    },
    {
      "scriptpubkey": "0014eed7a446c9d117f55d5683d41042d24c204694bf",
      "scriptpubkey_asm": "OP_0 OP_PUSHBYTES_20 eed7a446c9d117f55d5683d41042d24c204694bf",
      "scriptpubkey_type": "v0_p2wpkh",
      "scriptpubkey_address": "bc1qamt6g3kf6ytl2h2ks02pqskjfssyd99l603vxj",
      "value": 954793
    }
  ],
  "size": 256,
  "weight": 697,
  "fee": 2492,
  "status": {
    "confirmed": true,
    "block_height": 834638,
    "block_hash": "000000000000000000025f742c626208ac87e0b7d15054abb4a19ca2d735a54e",
    "block_time": 1710405325
  },
  "hex": "020000000001010d7031d5b3b878f21e0e167eb4744a32b7f902d6c0ad2e88ec220e5072b11ccc0100000000fdffffff03d5310100000000001600141cc10eefaa6f6549f0309fe3737ce756df306a9558e40100000000001976a91488f219875ef0dbe07dd7dd2621b50b270407a79688aca9910e0000000000160014eed7a446c9d117f55d5683d41042d24c204694bf0247304402202afd721a5fd3a8110e60c03460ac0258034e8914ac5f5e00ca589cfa2433eed90220386bbed61c89324c0f7e3f020b768feb1c5c55e3a1b097732f4bdc5693046c1001210392e5d6b3eebf36f35e5f15e583a872e281c2625dec350e432ff741d2eb642f4b00000000"
}