{
  "txid": "3d392ccb5022723a96ed2b7840998e2f6ea3e5d76ad05adbfde0c7ac908e15c3",
  "version": 1,
  "locktime": 0,
  "vin": [
    {
      "txid": "b336d2c66cbe45e59dcf02e4a7e090934978d8cbf7313bd0ea5343310b6c84e5",
      "vout": 1,
      "prevout": {
        "scriptpubkey": "00149054727a7af661c7248a4e13a37221cff51bcdc7",
        "scriptpubkey_asm": "OP_0 OP_PUSHBYTES_20 9054727a7af661c7248a4e13a37221cff51bcdc7",
        "scriptpubkey_type": "v0_p2wpkh",
        "scriptpubkey_address": "bc1qjp28y7n67esuwfy2fcf6xu3pel63hnw8yuuktf",
        "value": 2907153
      },
      "scriptsig": "",
      "scriptsig_asm": "",
      "witness": [
        "3044022100cc6b84496b0ab7f9c76d5ff487cf73af2a1056b6c73e42dbf25c872e36b82e7b021f541b5cd2b5b44854a5267c870ba2c7a2929d379af9f820f1dfcfdf4cb265f001",
        "02af8916bdcb9722adf6e305cff00d983183d1367492c9db13f5fbc3d9ffc58db3"
      ],
      "is_coinbase": false,
      "sequence": 4294967295
    }
  ],
  "vout": [
    {
      "scriptpubkey": "00148ccf3106929450a572e5ba1e6397fdf5f6660cf4",
      "scriptpubkey_asm": "OP_0 OP_PUSHBYTES_20 8ccf3106929450a572e5ba1e6397fdf5f6660cf4",
      "scriptpubkey_type": "v0_p2wpkh",
      "scriptpubkey_address": "bc1q3n8nzp5jj3g22uh9hg0x89la7hmxvr85ktwfpf",
      "value": 2767161
    },
    {
      "scriptpubkey": "0014e20d824120ead001dd8380122c3503e189de7e76",
      "scriptpubkey_asm": "OP_0 OP_PUSHBYTES_20 e20d824120ead001dd8380122c3503e189de7e76",
      "scriptpubkey_type": "v0_p2wpkh",
      "scriptpubkey_address": "bc1qugxcysfqatgqrhvrsqfzcdgruxyaulnkqkcm2r",
      "value": 136300
    }
  ],
  "size": 222,
  "weight": 561,
  "fee": 3692,
  "status": {
    "confirmed": true,
    "block_height": 834638,
    "block_hash": "000000000000000000025f742c626208ac87e0b7d15054abb4a19ca2d735a54e",
    "block_time": 1710405325
  },
  "hex": "01000000000101e5846c0b314353ead03b31f7cbd878499390e0a7e402cf9de545be6cc6d236b30100000000ffffffff0239392a00000000001600148ccf3106929450a572e5ba1e6397fdf5f6660cf46c14020000000000160014e20d824120ead001dd8380122c3503e189de7e7602473044022100cc6b84496b0ab7f9c76d5ff487cf73af2a1056b6c73e42dbf25c872e36b82e7b021f541b5cd2b5b44854a5267c870ba2c7a2929d379af9f820f1dfcfdf4cb265f0012102af8916bdcb9722adf6e305cff00d983183d1367492c9db13f5fbc3d9ffc58db300000000"
}