{
  "txid": "3d41cf85b32a6bce7f766fffe54d399be503d7d4310e9e39aaa32d31a7831817",
  "version": 2,
  "locktime": 0,
  "vin": [
    {
      "txid": "470dd60e068782c247f04227f9c6feb84387c9be664e92ccd4031c2f39ecd04f",
      "vout": 0,
      "prevout": {
        "scriptpubkey": "001442fe07919c69ab7689f793a5acf2e4fcb772882d",
        "scriptpubkey_asm": "OP_0 OP_PUSHBYTES_20 42fe07919c69ab7689f793a5acf2e4fcb772882d",
        "scriptpubkey_type": "v0_p2wpkh",
        "scriptpubkey_address": "bc1qgtlq0yvudx4hdz0hjwj6euhyljmh9zpdjspmhh",
        "value": 30208114
      },
      "scriptsig": "",
      "scriptsig_asm": "",
      "witness": [
        "304402206229f10be01603474d6078201d16ca774be7d502da41358111846edd3a35c0cc022032951c554ea083ae4c9a346cf56ec38951c3441427c24843e7dc74e06c1ec10301",
        "02836b72aa205f815106bc78ed60070a163f00b7862726798fb8c4d9bd0da49054"
      ],
      "is_coinbase": false,
      "sequence": 4294967295
    },
    {
      "txid": "1dc5a952b0f6a97e8237621c39054aab50d3c55e5e324f4e93f254a06289de08",
      "vout": 0,
      "prevout": {
        "scriptpubkey": "00146b717ffa1d48d29571e85cc00237bb554ce0a9e9",
        "scriptpubkey_asm": "OP_0 OP_PUSHBYTES_20 6b717ffa1d48d29571e85cc00237bb554ce0a9e9",
        "scriptpubkey_type": "v0_p2wpkh",
        "scriptpubkey_address": "bc1qddchl7safrff2u0gtnqqydam24xwp20f5hmefc",
        "value": 9816436
      },
      "scriptsig": "",
      "scriptsig_asm": "",
      "witness": [
        "304402200514a4583257e8cd601c7894d811693f6e4cc0f9a8d43e3f1d57e9ac3196cca202204fae4c7038532f6f1af8e5fc0355ae06b5b4b3eb1dc3ea0d8cdbe7ab6e82e41301",
        "030e2ba590bac5e923d83250f382db7b09c90cfa1a99b0a3abb3b70d1b96221f42"
      ],
      "is_coinbase": false,
      "sequence": 4294967295
    }
  ],
  "vout": [
    {
      "scriptpubkey": "00144dcda66fc71d9f051428d51ca53f0c16cda71765",
      "scriptpubkey_asm": "OP_0 OP_PUSHBYTES_20 4dcda66fc71d9f051428d51ca53f0c16cda71765",
      "scriptpubkey_type": "v0_p2wpkh",
      "scriptpubkey_address": "bc1qfhx6vm78rk0s29pg65w220cvzmx6w9m9e48n8h",
      "value": 10000000
    },
    {
      "scriptpubkey": "001461099bf760d0cc1b6855dcc190107814faa096c3",
      "scriptpubkey_asm": "OP_0 OP_PUSHBYTES_20 61099bf760d0cc1b6855dcc190107814faa096c3",
      "scriptpubkey_type": "v0_p2wpkh",
      "scriptpubkey_address": "bc1qvyyehamq6rxpk6z4mnqeqyrczna2p9krnuufx0",
      "value": 30020605
    }
  ],
  "size": 370,
  "weight": 832,
  "fee": 3945,
  "status": {
    "confirmed": true,
    "block_height": 834638,
    "block_hash": "000000000000000000025f742c626208ac87e0b7d15054abb4a19ca2d735a54e",
    "block_time": 1710405325
  },
  "hex": "020000000001024fd0ec392f1c03d4cc924e66bec98743b8fec6f92742f047c28287060ed60d470000000000ffffffff08de8962a054f2934e4f325e5ec5d350ab4a05391c6237827ea9f6b052a9c51d0000000000ffffffff0280969800000000001600144dcda66fc71d9f051428d51ca53f0c16cda71765fd13ca010000000016001461099bf760d0cc1b6855dcc190107814faa096c30247304402206229f10be01603474d6078201d16ca774be7d502da41358111846edd3a35c0cc022032951c554ea083ae4c9a346cf56ec38951c3441427c24843e7dc74e06c1ec103012102836b72aa205f815106bc78ed60070a163f00b7862726798fb8c4d9bd0da490540247304402200514a4583257e8cd601c7894d811693f6e4cc0f9a8d43e3f1d57e9ac3196cca202204fae4c7038532f6f1af8e5fc0355ae06b5b4b3eb1dc3ea0d8cdbe7ab6e82e4130121030e2ba590bac5e923d83250f382db7b09c90cfa1a99b0a3abb3b70d1b96221f4200000000"
}