{
  "txid": "3d49c1b7bb44f5ce022d8c617593a26b957cbeace2e9fa3f38c2eccc6abfb6b0",
  "version": 1,
  "locktime": 0,
  "vin": [
    {
      "txid": "1657485dc1aabff8e3142a50189cafc040a04948448bfc91dd5711379c031620",
      "vout": 1,
      "prevout": {
        "scriptpubkey": "00142a0732180599de5d1a57bbfff758046b4bb9438f",
        "scriptpubkey_asm": "OP_0 OP_PUSHBYTES_20 2a0732180599de5d1a57bbfff758046b4bb9438f",
        "scriptpubkey_type": "v0_p2wpkh",
        "scriptpubkey_address": "bc1q9grnyxq9n8096xjhh0llwkqydd9mjsu0klg8fe",
        "value": 1313695
      },
      "scriptsig": "",
      "scriptsig_asm": "",
      "witness": [
        "3045022100d22b0f1e980cf06a74cdae8b50edb264ee07fc09fb48176926eff600fd47b7b802200d252099fe2ae2f7d3d8ef640a2bd79d993088405da66004acf28d8e6f6714c701",
        "0259c3382643c61f083e8a8c11c7e13f93405cc9a0b435d7bbc0521f977cc6f1b1"
      ],
      "is_coinbase": false,
      "sequence": 4294967295
    }
  ],
  "vout": [
    {
      "scriptpubkey": "76a914d0995e627f847d6639a0d3760c4059ba09b0d89088ac",
      "scriptpubkey_asm": "OP_DUP OP_HASH160 OP_PUSHBYTES_20 d0995e627f847d6639a0d3760c4059ba09b0d890 OP_EQUALVERIFY OP_CHECKSIG",
      "scriptpubkey_type": "p2pkh",
      "scriptpubkey_address": "1L1yH9Mwmzskzz9GTQiub2npT28zFsaK6k",
      "value": 409360
    },
    {
      "scriptpubkey": "001449f4c755e4c757506f6dd399817e8911b32f9553",
      "scriptpubkey_asm": "OP_0 OP_PUSHBYTES_20 49f4c755e4c757506f6dd399817e8911b32f9553",
      "scriptpubkey_type": "v0_p2wpkh",
      "scriptpubkey_address": "bc1qf86vw40ycat4qmmd6wvczl5fzxejl92nfpw490",
      "value": 900623
    }
  ],
  "size": 226,
  "weight": 574,
  "fee": 3712,
  "status": {
    "confirmed": true,
    "block_height": 834638,
    "block_hash": "000000000000000000025f742c626208ac87e0b7d15054abb4a19ca2d735a54e",
    "block_time": 1710405325
  },
  "hex": "010000000001012016039c371157dd91fc8b444849a040c0af9c18502a14e3f8bfaac15d4857160100000000ffffffff02103f0600000000001976a914d0995e627f847d6639a0d3760c4059ba09b0d89088ac0fbe0d000000000016001449f4c755e4c757506f6dd399817e8911b32f955302483045022100d22b0f1e980cf06a74cdae8b50edb264ee07fc09fb48176926eff600fd47b7b802200d252099fe2ae2f7d3d8ef640a2bd79d993088405da66004acf28d8e6f6714c701210259c3382643c61f083e8a8c11c7e13f93405cc9a0b435d7bbc0521f977cc6f1b100000000"
}