{
  "txid": "3d4dfc40c0ab2b136b4013c1cc7dd1ff12375e759acb607ec8e5fbf792eede95",
  "version": 2,
  "locktime": 0,
  "vin": [
    {
      "txid": "3bb2175a4e801ff313e7cc0b6b7d416da2e19957791803563572af87705f20f1",
      "vout": 0,
      "prevout": {
        "scriptpubkey": "51207d68cec9f3ff0d70001788d37f7d6b8ca7b7df3f422bbdf98e42c321cb07d9ae",
        "scriptpubkey_asm": "OP_PUSHNUM_1 OP_PUSHBYTES_32 7d68cec9f3ff0d70001788d37f7d6b8ca7b7df3f422bbdf98e42c321cb07d9ae",
        "scriptpubkey_type": "v1_p2tr",
        "scriptpubkey_address": "bc1p045vaj0nluxhqqqh3rfh7ltt3jnm0helgg4mm7vwgtpjrjc8mxhq4c5zv5",
        "value": 546
      },
      "scriptsig": "",
      "scriptsig_asm": "",
      "witness": [
        "98ee0edf907dcd25e6a3e2a6a96dfd66788d487a141e1168fce344eb6eef65461de6cf3e480888571bccad2bf1628ba07974aa5cf60863982ef475a3e8f165af"
      ],
      "is_coinbase": false,
      "sequence": 4294967295
    },
    {
      "txid": "89d1d4b69c48fd3ed62695da1c642dce47b56aee162f8aa4cf9914b0249e9de6",
      "vout": 1,
      "prevout": {
        "scriptpubkey": "51207d68cec9f3ff0d70001788d37f7d6b8ca7b7df3f422bbdf98e42c321cb07d9ae",
        "scriptpubkey_asm": "OP_PUSHNUM_1 OP_PUSHBYTES_32 7d68cec9f3ff0d70001788d37f7d6b8ca7b7df3f422bbdf98e42c321cb07d9ae",
        "scriptpubkey_type": "v1_p2tr",
        "scriptpubkey_address": "bc1p045vaj0nluxhqqqh3rfh7ltt3jnm0helgg4mm7vwgtpjrjc8mxhq4c5zv5",
        "value": 46139
      },
      "scriptsig": "",
      "scriptsig_asm": "",
      "witness": [
        "fa25391bee35984f1a6c0b9312be3a6461b7273033fb9adf5b00ac8f292f89086379464fca5d90d3bae943cb227d5f85e43952a12771d3e66ba0e81865432fc1"
      ],
      "is_coinbase": false,
      "sequence": 4294967295
    }
  ],
  "vout": [
    {
      "scriptpubkey": "51207cf113e2579947c73ecf053a686ab2bdb97fd0ed4752b81eecec0b2d696477c2",
      "scriptpubkey_asm": "OP_PUSHNUM_1 OP_PUSHBYTES_32 7cf113e2579947c73ecf053a686ab2bdb97fd0ed4752b81eecec0b2d696477c2",
      "scriptpubkey_type": "v1_p2tr",
      "scriptpubkey_address": "bc1p0nc38cjhn9ruw0k0q5axs64jhkuhl58dgafts8hvas9j66tywlpqjfs9pe",
      "value": 546
    },
    {
      "scriptpubkey": "51207d68cec9f3ff0d70001788d37f7d6b8ca7b7df3f422bbdf98e42c321cb07d9ae",
      "scriptpubkey_asm": "OP_PUSHNUM_1 OP_PUSHBYTES_32 7d68cec9f3ff0d70001788d37f7d6b8ca7b7df3f422bbdf98e42c321cb07d9ae",
      "scriptpubkey_type": "v1_p2tr",
      "scriptpubkey_address": "bc1p045vaj0nluxhqqqh3rfh7ltt3jnm0helgg4mm7vwgtpjrjc8mxhq4c5zv5",
      "value": 43383
    }
  ],
  "size": 312,
  "weight": 846,
  "fee": 2756,
  "status": {
    "confirmed": true,
    "block_height": 834464,
    "block_hash": "0000000000000000000177a0869a911a2b65c9bdcd5a8bcb02b68f305bee848e",
    "block_time": 1710308296
  },
  "hex": "02000000000102f1205f7087af7235560318795799e1a26d417d6b0bcce713f31f804e5a17b23b0000000000ffffffffe69d9e24b01499cfa48a2f16ee6ab547ce2d641cda9526d63efd489cb6d4d1890100000000ffffffff0222020000000000002251207cf113e2579947c73ecf053a686ab2bdb97fd0ed4752b81eecec0b2d696477c277a90000000000002251207d68cec9f3ff0d70001788d37f7d6b8ca7b7df3f422bbdf98e42c321cb07d9ae014098ee0edf907dcd25e6a3e2a6a96dfd66788d487a141e1168fce344eb6eef65461de6cf3e480888571bccad2bf1628ba07974aa5cf60863982ef475a3e8f165af0140fa25391bee35984f1a6c0b9312be3a6461b7273033fb9adf5b00ac8f292f89086379464fca5d90d3bae943cb227d5f85e43952a12771d3e66ba0e81865432fc100000000"
}