{
  "txid": "3d5a16cf6e5d60b8ec02306c1c94d5364dbff093419a8312bf505c1054d3412b",
  "version": 1,
  "locktime": 0,
  "vin": [
    {
      "txid": "000069f5fe057c3a15780b7f5816835ee67da2f6b19d1c809823e8f0d7b199b9",
      "vout": 0,
      "prevout": {
        "scriptpubkey": "512039083a35ec05195862de8745c3d7a5bbbd90d861c74a98846397505291968e35",
        "scriptpubkey_asm": "OP_PUSHNUM_1 OP_PUSHBYTES_32 39083a35ec05195862de8745c3d7a5bbbd90d861c74a98846397505291968e35",
        "scriptpubkey_type": "v1_p2tr",
        "scriptpubkey_address": "bc1p8yyr5d0vq5v4sck7sazu84a9hw7epkrpca9f3prrjag99yvk3c6spg3zyp",
        "value": 3187
      },
      "scriptsig": "",
      "scriptsig_asm": "",
      "witness": [
        "3bf387efba795a8457fa2f839b5851039d941887608e360d6763d5faeef48fa271e7ab77e42eeba4b192a2e0f6ab89f31b10433786c034547e39a4ae5b31494b",
        "20dfa7325ed77fab28d796d113dcead29a7490c58aaa244f71cf02d52f6b761081ac00630461746f6d03646d7439a16461726773a46474696d651a65e9d947656e6f6e63650068626974776f726b6364303030306b6d696e745f7469636b65726670686f746f6e68",
        "c0dfa7325ed77fab28d796d113dcead29a7490c58aaa244f71cf02d52f6b761081"
      ],
      "is_coinbase": false,
      "sequence": 0
    }
  ],
  "vout": [
    {
      "scriptpubkey": "5120d4b7fd2c1e3c52c574a6e33fa67806c521eed77ff8f9453ccc77c2a5b8ec3d47",
      "scriptpubkey_asm": "OP_PUSHNUM_1 OP_PUSHBYTES_32 d4b7fd2c1e3c52c574a6e33fa67806c521eed77ff8f9453ccc77c2a5b8ec3d47",
      "scriptpubkey_type": "v1_p2tr",
      "scriptpubkey_address": "bc1p6jml6tq783fv2a9xuvl6v7qxc5s7a4mllru520xvwlp2tw8v84rsh52eq2",
      "value": 1000
    }
  ],
  "size": 301,
  "weight": 583,
  "fee": 2187,
  "status": {
    "confirmed": true,
    "block_height": 834464,
    "block_hash": "0000000000000000000177a0869a911a2b65c9bdcd5a8bcb02b68f305bee848e",
    "block_time": 1710308296
  },
  "hex": "01000000000101b999b1d7f0e82398801c9db1f6a27de65e8316587f0b78153a7c05fef569000000000000000000000001e803000000000000225120d4b7fd2c1e3c52c574a6e33fa67806c521eed77ff8f9453ccc77c2a5b8ec3d4703403bf387efba795a8457fa2f839b5851039d941887608e360d6763d5faeef48fa271e7ab77e42eeba4b192a2e0f6ab89f31b10433786c034547e39a4ae5b31494b6820dfa7325ed77fab28d796d113dcead29a7490c58aaa244f71cf02d52f6b761081ac00630461746f6d03646d7439a16461726773a46474696d651a65e9d947656e6f6e63650068626974776f726b6364303030306b6d696e745f7469636b65726670686f746f6e6821c0dfa7325ed77fab28d796d113dcead29a7490c58aaa244f71cf02d52f6b76108100000000"
}