{
  "txid": "3d5f5e0de34b1b00fbfaea133550865c6ca36d9c8f87a31829994e09ce78b237",
  "version": 2,
  "locktime": 834637,
  "vin": [
    {
      "txid": "41799e4898927f3b8b2783fc7dbd8d10edffe5959df9cb4378e14b4f4fff9c46",
      "vout": 1,
      "prevout": {
        "scriptpubkey": "76a9141f26711bd61aa5d12e6807da7e8ae4f8a869030588ac",
        "scriptpubkey_asm": "OP_DUP OP_HASH160 OP_PUSHBYTES_20 1f26711bd61aa5d12e6807da7e8ae4f8a8690305 OP_EQUALVERIFY OP_CHECKSIG",
        "scriptpubkey_type": "p2pkh",
        "scriptpubkey_address": "13qhzw4CiZtkeZSVbuyobZfSkHYMgphR2F",
        "value": 5200325
      },
      "scriptsig": "4830450221009a91096c126ea222b6f33ea845e41e130726d883673d568291888dc1d52f3516022004e9570de0077749a26678f38cfeef7ad2b0058b1ed79cbbd43d4eabff60df200121024bcb7dda5f6ffb100696d7a0732badfaf6685ee740c6290c1c7f4005c68af4b9",
      "scriptsig_asm": "OP_PUSHBYTES_72 30450221009a91096c126ea222b6f33ea845e41e130726d883673d568291888dc1d52f3516022004e9570de0077749a26678f38cfeef7ad2b0058b1ed79cbbd43d4eabff60df2001 OP_PUSHBYTES_33 024bcb7dda5f6ffb100696d7a0732badfaf6685ee740c6290c1c7f4005c68af4b9",
      "is_coinbase": false,
      "sequence": 4294967293
    },
    {
      "txid": "aac1bc60efb713042f183c8795e93c451f6eae36762ed682161ebbfe480f3f32",
      "vout": 1,
      "prevout": {
        "scriptpubkey": "76a9145c549ce746e285a2d8c547242f8320403f8822bd88ac",
        "scriptpubkey_asm": "OP_DUP OP_HASH160 OP_PUSHBYTES_20 5c549ce746e285a2d8c547242f8320403f8822bd OP_EQUALVERIFY OP_CHECKSIG",
        "scriptpubkey_type": "p2pkh",
        "scriptpubkey_address": "19RCXf3uGUEWA1aQPEqGXm21yHZvciPyAT",
        "value": 15536145
      },
      "scriptsig": "473044022026da977c1a9011d9678ed148e683bb9c907b7d32fd5f55249df7a25256ba0b1c022000f3c1651a7516f0831690ffe30e7e2acf6c6c4110a7890eacd90576cbb4cc430121022ff789ee04863273ca26fb90f7f1b82f64f87138792c42c5a5bf07e4cccfaf1f",
      "scriptsig_asm": "OP_PUSHBYTES_71 3044022026da977c1a9011d9678ed148e683bb9c907b7d32fd5f55249df7a25256ba0b1c022000f3c1651a7516f0831690ffe30e7e2acf6c6c4110a7890eacd90576cbb4cc4301 OP_PUSHBYTES_33 022ff789ee04863273ca26fb90f7f1b82f64f87138792c42c5a5bf07e4cccfaf1f",
      "is_coinbase": false,
      "sequence": 4294967293
    },
    {
      "txid": "efa58fa19d87e263fbcc6d746eaa41bc65aef8766c07c7bd75fe7219937c9ef2",
      "vout": 1,
      "prevout": {
        "scriptpubkey": "76a914db68a7edef3d82f47b87c89e1d67e5ecc578e32b88ac",
        "scriptpubkey_asm": "OP_DUP OP_HASH160 OP_PUSHBYTES_20 db68a7edef3d82f47b87c89e1d67e5ecc578e32b OP_EQUALVERIFY OP_CHECKSIG",
        "scriptpubkey_type": "p2pkh",
        "scriptpubkey_address": "1M18MdrcrEcvWpCTgw6DyxGKf9XynLu8pP",
        "value": 4076896
      },
      "scriptsig": "483045022100db3e30c57d8b5673fccc4dbbf1ca1cc32ace47972dc6bf2ad1be0b09b3dce0a002201d94409389b5f2f196b12428ba51d6a529cb81b27b8d4702978225cdf9a25e90012102871a402b115ec1400afd0ecfe2f3d23d2135b3446c9e7dfc0b3211931e8de519",
      "scriptsig_asm": "OP_PUSHBYTES_72 3045022100db3e30c57d8b5673fccc4dbbf1ca1cc32ace47972dc6bf2ad1be0b09b3dce0a002201d94409389b5f2f196b12428ba51d6a529cb81b27b8d4702978225cdf9a25e9001 OP_PUSHBYTES_33 02871a402b115ec1400afd0ecfe2f3d23d2135b3446c9e7dfc0b3211931e8de519",
      "is_coinbase": false,
      "sequence": 4294967293
    }
  ],
  "vout": [
    {
      "scriptpubkey": "76a914afc66cc7ae496ecf49b9ed5da1326aaa124050bc88ac",
      "scriptpubkey_asm": "OP_DUP OP_HASH160 OP_PUSHBYTES_20 afc66cc7ae496ecf49b9ed5da1326aaa124050bc OP_EQUALVERIFY OP_CHECKSIG",
      "scriptpubkey_type": "p2pkh",
      "scriptpubkey_address": "1H2QxNnW7Szy26m9Wi3YQAdYHCJnpcVUi4",
      "value": 11415
    },
    {
      "scriptpubkey": "a914acd7973128ab6910d5798ae6415915cd6e30d93287",
      "scriptpubkey_asm": "OP_HASH160 OP_PUSHBYTES_20 acd7973128ab6910d5798ae6415915cd6e30d932 OP_EQUAL",
      "scriptpubkey_type": "p2sh",
      "scriptpubkey_address": "3HSvR32CRU8F5s9bk98CLnL315Rc2aEFKn",
      "value": 24793683
    }
  ],
  "size": 519,
  "weight": 2076,
  "fee": 8268,
  "status": {
    "confirmed": true,
    "block_height": 834638,
    "block_hash": "000000000000000000025f742c626208ac87e0b7d15054abb4a19ca2d735a54e",
    "block_time": 1710405325
  },
  "hex": "0200000003469cff4f4f4be17843cbf99d95e5ffed108dbd7dfc83278b3b7f9298489e7941010000006b4830450221009a91096c126ea222b6f33ea845e41e130726d883673d568291888dc1d52f3516022004e9570de0077749a26678f38cfeef7ad2b0058b1ed79cbbd43d4eabff60df200121024bcb7dda5f6ffb100696d7a0732badfaf6685ee740c6290c1c7f4005c68af4b9fdffffff323f0f48febb1e1682d62e7636ae6e1f453ce995873c182f0413b7ef60bcc1aa010000006a473044022026da977c1a9011d9678ed148e683bb9c907b7d32fd5f55249df7a25256ba0b1c022000f3c1651a7516f0831690ffe30e7e2acf6c6c4110a7890eacd90576cbb4cc430121022ff789ee04863273ca26fb90f7f1b82f64f87138792c42c5a5bf07e4cccfaf1ffdfffffff29e7c931972fe75bdc7076c76f8ae65bc41aa6e746dccfb63e2879da18fa5ef010000006b483045022100db3e30c57d8b5673fccc4dbbf1ca1cc32ace47972dc6bf2ad1be0b09b3dce0a002201d94409389b5f2f196b12428ba51d6a529cb81b27b8d4702978225cdf9a25e90012102871a402b115ec1400afd0ecfe2f3d23d2135b3446c9e7dfc0b3211931e8de519fdffffff02972c0000000000001976a914afc66cc7ae496ecf49b9ed5da1326aaa124050bc88ac53527a010000000017a914acd7973128ab6910d5798ae6415915cd6e30d932874dbc0c00"
}