{
  "txid": "3d6e7da65afbfa39ade6ade1290bbbfc1334cadce95140c777fe472461d48af4",
  "version": 2,
  "locktime": 0,
  "vin": [
    {
      "txid": "83f307a645173cc5cb0b78fe0121f3300473b4e7b6532753030594496838e789",
      "vout": 0,
      "prevout": {
        "scriptpubkey": "001462e6ebae5fe8bfc5d418e20453b63eabbba69367",
        "scriptpubkey_asm": "OP_0 OP_PUSHBYTES_20 62e6ebae5fe8bfc5d418e20453b63eabbba69367",
        "scriptpubkey_type": "v0_p2wpkh",
        "scriptpubkey_address": "bc1qvtnwhtjlazlut4qcugz98d374wa6dym8685j6a",
        "value": 5971217
      },
      "scriptsig": "",
      "scriptsig_asm": "",
      "witness": [
        "30450221009b6dc4193db05b7171aba0fa26207ffc129dcfd3c97857c453e0231c4afca67202202ae0fc3768ea654447e4380d5fbeec4b0c6a3194f9a1b853536fb21070b15cf701",
        "03b1cd18f6d5273e4dbb0ae9746c453d90521c42db2243869dd4cded2f0357ca61"
      ],
      "is_coinbase": false,
      "sequence": 4294967293
    }
  ],
  "vout": [
    {
      "scriptpubkey": "76a914f7e81a412c6c18a3fd058b861966ff623009d16188ac",
      "scriptpubkey_asm": "OP_DUP OP_HASH160 OP_PUSHBYTES_20 f7e81a412c6c18a3fd058b861966ff623009d161 OP_EQUALVERIFY OP_CHECKSIG",
      "scriptpubkey_type": "p2pkh",
      "scriptpubkey_address": "1Pbox9jG1amD5iWXbP61YY1rNR5rfeC9tq",
      "value": 5969997
    }
  ],
  "size": 195,
  "weight": 450,
  "fee": 1220,
  "status": {
    "confirmed": true,
    "block_height": 834464,
    "block_hash": "0000000000000000000177a0869a911a2b65c9bdcd5a8bcb02b68f305bee848e",
    "block_time": 1710308296
  },
  "hex": "0200000000010189e7386849940503532753b6e7b4730430f32101fe780bcbc53c1745a607f3830000000000fdffffff014d185b00000000001976a914f7e81a412c6c18a3fd058b861966ff623009d16188ac024830450221009b6dc4193db05b7171aba0fa26207ffc129dcfd3c97857c453e0231c4afca67202202ae0fc3768ea654447e4380d5fbeec4b0c6a3194f9a1b853536fb21070b15cf7012103b1cd18f6d5273e4dbb0ae9746c453d90521c42db2243869dd4cded2f0357ca6100000000"
}