{
  "txid": "3d79be6f8c62953f6af1d143096f95bc477dadeec524fd7bb99fe13b1a35a267",
  "version": 2,
  "locktime": 0,
  "vin": [
    {
      "txid": "8486ecb4df0880316dd6e82b3971b4df187aff23765bc3a47f8d78bb53aa273c",
      "vout": 50,
      "prevout": {
        "scriptpubkey": "512022d79a14007345fe97c192ef5f6c5357c19fb989a986118e2e806e29e304571c",
        "scriptpubkey_asm": "OP_PUSHNUM_1 OP_PUSHBYTES_32 22d79a14007345fe97c192ef5f6c5357c19fb989a986118e2e806e29e304571c",
        "scriptpubkey_type": "v1_p2tr",
        "scriptpubkey_address": "bc1pytte59qqwdzla97pjth47mzn2lqelwvf4xrprr3wsphznccy2uwqm85npf",
        "value": 2575
      },
      "scriptsig": "",
      "scriptsig_asm": "",
      "witness": [
        "70012d926ae328d876406e98f94420d5612305113fc5a0cdfe4f4083841dfcbac7327ee83824de6633f25d07de6d558ea97cad664ab69bd513821b3dea9b8f99",
        "2004138f74eb813b88b610b7ca3d8e2883e35fb5c3dc57e09b5d4817daa6a59a18ac0063036f726401010a746578742f706c61696e00367b2270223a226272632d3230222c226f70223a226d696e74222c227469636b223a2261616161222c22616d74223a223130303030227d68",
        "c104138f74eb813b88b610b7ca3d8e2883e35fb5c3dc57e09b5d4817daa6a59a18"
      ],
      "is_coinbase": false,
      "sequence": 4261412863
    }
  ],
  "vout": [
    {
      "scriptpubkey": "0014ddd7ef12ea6f78edcc1e8e7afa12c01ab59f3339",
      "scriptpubkey_asm": "OP_0 OP_PUSHBYTES_20 ddd7ef12ea6f78edcc1e8e7afa12c01ab59f3339",
      "scriptpubkey_type": "v0_p2wpkh",
      "scriptpubkey_address": "bc1qmht77yh2dauwmnq73ea05ykqr26e7veea8spz6",
      "value": 546
    }
  ],
  "size": 295,
  "weight": 541,
  "fee": 2029,
  "status": {
    "confirmed": true,
    "block_height": 834460,
    "block_hash": "00000000000000000000484a79b643b2524bbce82e5d8a442013fa5b8905ed98",
    "block_time": 1710307468
  },
  "hex": "020000000001013c27aa53bb788d7fa4c35b7623ff7a18dfb471392be8d66d318008dfb4ec86843200000000fffffffd012202000000000000160014ddd7ef12ea6f78edcc1e8e7afa12c01ab59f3339034070012d926ae328d876406e98f94420d5612305113fc5a0cdfe4f4083841dfcbac7327ee83824de6633f25d07de6d558ea97cad664ab69bd513821b3dea9b8f996e2004138f74eb813b88b610b7ca3d8e2883e35fb5c3dc57e09b5d4817daa6a59a18ac0063036f726401010a746578742f706c61696e00367b2270223a226272632d3230222c226f70223a226d696e74222c227469636b223a2261616161222c22616d74223a223130303030227d6821c104138f74eb813b88b610b7ca3d8e2883e35fb5c3dc57e09b5d4817daa6a59a1800000000"
}