{
  "txid": "3d79488b5d54eb2bad7d9b76aa0041ded3a576d0c7f17a6f998991ccceda861f",
  "version": 2,
  "locktime": 0,
  "vin": [
    {
      "txid": "acc3ba00869acb582a3f2904ce3a11dd3779350ce234063fc7d0959246213364",
      "vout": 197,
      "prevout": {
        "scriptpubkey": "5120e6cc637a8ebb48f9678b12ca4fc0b047ae8774f699ed175f0802d7ced0b99436",
        "scriptpubkey_asm": "OP_PUSHNUM_1 OP_PUSHBYTES_32 e6cc637a8ebb48f9678b12ca4fc0b047ae8774f699ed175f0802d7ced0b99436",
        "scriptpubkey_type": "v1_p2tr",
        "scriptpubkey_address": "bc1pumxxx75whdy0jeutzt9yls9sg7hgwa8kn8k3whcgqttua59ejsmqgl8lat",
        "value": 1806
      },
      "scriptsig": "",
      "scriptsig_asm": "",
      "witness": [
        "c403e211dfa9f8a9c37f9e3ec5b006b725bd452b0575a0e59fd7b3041681cb737623de674df93957e5006cf169f711d58481c7c3d046061c5e71fa416ffb9d45",
        "20f47565fd9cf9d043daaf3dda4c6d60bf2e4d9c8554c91b0e94373f33c2bfb02bac0063036f726401010a746578742f706c61696e00357b2270223a226272632d3230222c226f70223a226d696e74222c227469636b223a22646f6765222c22616d74223a2234323030227d68",
        "c1f47565fd9cf9d043daaf3dda4c6d60bf2e4d9c8554c91b0e94373f33c2bfb02b"
      ],
      "is_coinbase": false,
      "sequence": 4261412863
    }
  ],
  "vout": [
    {
      "scriptpubkey": "00147a665de7a370f4c9b372ab1fae587500a5bcbdb4",
      "scriptpubkey_asm": "OP_0 OP_PUSHBYTES_20 7a665de7a370f4c9b372ab1fae587500a5bcbdb4",
      "scriptpubkey_type": "v0_p2wpkh",
      "scriptpubkey_address": "bc1q0fn9mearwr6vnvmj4v06ukr4qzjme0d565dzcx",
      "value": 294
    }
  ],
  "size": 294,
  "weight": 540,
  "fee": 1512,
  "status": {
    "confirmed": true,
    "block_height": 834460,
    "block_hash": "00000000000000000000484a79b643b2524bbce82e5d8a442013fa5b8905ed98",
    "block_time": 1710307468
  },
  "hex": "02000000000101643321469295d0c73f0634e20c357937dd113ace04293f2a58cb9a8600bac3acc500000000fffffffd0126010000000000001600147a665de7a370f4c9b372ab1fae587500a5bcbdb40340c403e211dfa9f8a9c37f9e3ec5b006b725bd452b0575a0e59fd7b3041681cb737623de674df93957e5006cf169f711d58481c7c3d046061c5e71fa416ffb9d456d20f47565fd9cf9d043daaf3dda4c6d60bf2e4d9c8554c91b0e94373f33c2bfb02bac0063036f726401010a746578742f706c61696e00357b2270223a226272632d3230222c226f70223a226d696e74222c227469636b223a22646f6765222c22616d74223a2234323030227d6821c1f47565fd9cf9d043daaf3dda4c6d60bf2e4d9c8554c91b0e94373f33c2bfb02b00000000"
}