{
  "txid": "3d7e2379aa346e10642fab0572552350f8ac27d39488d887d8b5d02c5934da9f",
  "version": 1,
  "locktime": 0,
  "vin": [
    {
      "txid": "888888f3869e9bac0dc701f997de669b10e6647f061b3461528d3f9f9ef2bab2",
      "vout": 0,
      "prevout": {
        "scriptpubkey": "5120a1c845fd55b7fe98220737b8d451f7d187407acd537433a1c4deca448274da24",
        "scriptpubkey_asm": "OP_PUSHNUM_1 OP_PUSHBYTES_32 a1c845fd55b7fe98220737b8d451f7d187407acd537433a1c4deca448274da24",
        "scriptpubkey_type": "v1_p2tr",
        "scriptpubkey_address": "bc1p58yytl24kllfsgs8x7udg50h6xr5q7kd2d6r8gwymm9yfqn5mgjqms64kf",
        "value": 11622
      },
      "scriptsig": "",
      "scriptsig_asm": "",
      "witness": [
        "adfd789dc19469ae905f63b87b9f1b0fca96aad2935150a5b789e9ae4c3d3816cb6df7a90a8d0972baa02ffe10cf1a09881e0dd168c8e85baccf673b980de7f2",
        "20dfa7325ed77fab28d796d113dcead29a7490c58aaa244f71cf02d52f6b761081ac00630461746f6d03646d7440a16461726773a46474696d651a65dc4c9a656e6f6e63650068626974776f726b63693838383838382e31356b6d696e745f7469636b657268696e66696e69747968",
        "c0dfa7325ed77fab28d796d113dcead29a7490c58aaa244f71cf02d52f6b761081"
      ],
      "is_coinbase": false,
      "sequence": 0
    }
  ],
  "vout": [
    {
      "scriptpubkey": "5120332c84f650f9c0687982a7fea795671073f8bb228e5b76971e82aa2356eabc3b",
      "scriptpubkey_asm": "OP_PUSHNUM_1 OP_PUSHBYTES_32 332c84f650f9c0687982a7fea795671073f8bb228e5b76971e82aa2356eabc3b",
      "scriptpubkey_type": "v1_p2tr",
      "scriptpubkey_address": "bc1pxvkgfajsl8qxs7vz5ll209t8zpel3wez3edhd9c7s24zx4h2hsast6syws",
      "value": 9999
    }
  ],
  "size": 308,
  "weight": 590,
  "fee": 1623,
  "status": {
    "confirmed": true,
    "block_height": 834464,
    "block_hash": "0000000000000000000177a0869a911a2b65c9bdcd5a8bcb02b68f305bee848e",
    "block_time": 1710308296
  },
  "hex": "01000000000101b2baf29e9f3f8d5261341b067f64e6109b66de97f901c70dac9b9e86f3888888000000000000000000010f27000000000000225120332c84f650f9c0687982a7fea795671073f8bb228e5b76971e82aa2356eabc3b0340adfd789dc19469ae905f63b87b9f1b0fca96aad2935150a5b789e9ae4c3d3816cb6df7a90a8d0972baa02ffe10cf1a09881e0dd168c8e85baccf673b980de7f26f20dfa7325ed77fab28d796d113dcead29a7490c58aaa244f71cf02d52f6b761081ac00630461746f6d03646d7440a16461726773a46474696d651a65dc4c9a656e6f6e63650068626974776f726b63693838383838382e31356b6d696e745f7469636b657268696e66696e6974796821c0dfa7325ed77fab28d796d113dcead29a7490c58aaa244f71cf02d52f6b76108100000000"
}