{
  "txid": "3d80f3ef189bc602d14e512c6167ab9b6ecfe474488d29486a58b129666dce3b",
  "version": 1,
  "locktime": 0,
  "vin": [
    {
      "txid": "685fd83a59f24c4efaa8114113ee00e489d764a2f642222b4b3937370eff784f",
      "vout": 57,
      "prevout": {
        "scriptpubkey": "001400112e058b6d86a8720bdaae873c014fe51f8fe4",
        "scriptpubkey_asm": "OP_0 OP_PUSHBYTES_20 00112e058b6d86a8720bdaae873c014fe51f8fe4",
        "scriptpubkey_type": "v0_p2wpkh",
        "scriptpubkey_address": "bc1qqqgjupvtdkr2sustm2hgw0qpflj3lrlyrmnxcc",
        "value": 201588
      },
      "scriptsig": "",
      "scriptsig_asm": "",
      "witness": [
        "3045022100e07a11dd8890defa7def2f452eac4140b97da17c954cb168cac21719221bee3002200dc8b5e4d01f4b198a403fa718d6ed728160a79bde347d62f7a7d4440895deb601",
        "02592e200462477c55b45518cf163a78b394a08643d66c742dd604b2819261f134"
      ],
      "is_coinbase": false,
      "sequence": 4294967295
    },
    {
      "txid": "cd6ab65211f4da5db9babb076ae9484c5d5ee8a636f035f23f3375d3027c08be",
      "vout": 1,
      "prevout": {
        "scriptpubkey": "001400112e058b6d86a8720bdaae873c014fe51f8fe4",
        "scriptpubkey_asm": "OP_0 OP_PUSHBYTES_20 00112e058b6d86a8720bdaae873c014fe51f8fe4",
        "scriptpubkey_type": "v0_p2wpkh",
        "scriptpubkey_address": "bc1qqqgjupvtdkr2sustm2hgw0qpflj3lrlyrmnxcc",
        "value": 2879
      },
      "scriptsig": "",
      "scriptsig_asm": "",
      "witness": [
        "30450221009175c25478571925f1b29c95cfed5444415ab7511d8f5e5d6ff1f9e05d7dd44b0220061763f42d9bc40e5d4d874f3906cc516770e6f9ceffbd7d3498237e71f74af001",
        "02592e200462477c55b45518cf163a78b394a08643d66c742dd604b2819261f134"
      ],
      "is_coinbase": false,
      "sequence": 4294967295
    }
  ],
  "vout": [
    {
      "scriptpubkey": "001432c922a81abe0714447aa48ebd1871b499992283",
      "scriptpubkey_asm": "OP_0 OP_PUSHBYTES_20 32c922a81abe0714447aa48ebd1871b499992283",
      "scriptpubkey_type": "v0_p2wpkh",
      "scriptpubkey_address": "bc1qxtyj92q6hcr3g3r65j8t6xr3kjvejg5rqmy28h",
      "value": 199661
    }
  ],
  "size": 341,
  "weight": 710,
  "fee": 4806,
  "status": {
    "confirmed": true,
    "block_height": 834638,
    "block_hash": "000000000000000000025f742c626208ac87e0b7d15054abb4a19ca2d735a54e",
    "block_time": 1710405325
  },
  "hex": "010000000001024f78ff0e3737394b2b2242f6a264d789e400ee134111a8fa4e4cf2593ad85f683900000000ffffffffbe087c02d375333ff235f036a6e85e5d4c48e96a07bbbab95ddaf41152b66acd0100000000ffffffff01ed0b03000000000016001432c922a81abe0714447aa48ebd1871b49999228302483045022100e07a11dd8890defa7def2f452eac4140b97da17c954cb168cac21719221bee3002200dc8b5e4d01f4b198a403fa718d6ed728160a79bde347d62f7a7d4440895deb6012102592e200462477c55b45518cf163a78b394a08643d66c742dd604b2819261f134024830450221009175c25478571925f1b29c95cfed5444415ab7511d8f5e5d6ff1f9e05d7dd44b0220061763f42d9bc40e5d4d874f3906cc516770e6f9ceffbd7d3498237e71f74af0012102592e200462477c55b45518cf163a78b394a08643d66c742dd604b2819261f13400000000"
}