{
  "txid": "3d8f549a9c6cd08439748884d6b32e17022143e02983f10a6ec3e29e82eb93d2",
  "version": 2,
  "locktime": 0,
  "vin": [
    {
      "txid": "4b3bd0851f0ff84fd31b710fb48f9320f4ba0d6f0f5c81c38a84cfd9488fc19a",
      "vout": 3,
      "prevout": {
        "scriptpubkey": "51202cf01b4490599205ac1af9dd1218026d4c019b90029dc4d30b5d4e56db9c0a73",
        "scriptpubkey_asm": "OP_PUSHNUM_1 OP_PUSHBYTES_32 2cf01b4490599205ac1af9dd1218026d4c019b90029dc4d30b5d4e56db9c0a73",
        "scriptpubkey_type": "v1_p2tr",
        "scriptpubkey_address": "bc1p9ncpk3ystxfqttq6l8w3yxqzd4xqrxusq2wuf5ctt489dkuupfesf7nurd",
        "value": 600
      },
      "scriptsig": "",
      "scriptsig_asm": "",
      "witness": [
        "7b9b80f63becbfbe792f8dd8708053478190e15dfe0e2f3495ce5845dc1c6613392e76b604a0b87555b6090901fb6692a49dd620432a035f546cb2ac4e68e223"
      ],
      "is_coinbase": false,
      "sequence": 4294967295
    },
    {
      "txid": "2226552bf6076015545f405f3b474713e287a72a3ee9685c97223e9cbe36b617",
      "vout": 4,
      "prevout": {
        "scriptpubkey": "51202cf01b4490599205ac1af9dd1218026d4c019b90029dc4d30b5d4e56db9c0a73",
        "scriptpubkey_asm": "OP_PUSHNUM_1 OP_PUSHBYTES_32 2cf01b4490599205ac1af9dd1218026d4c019b90029dc4d30b5d4e56db9c0a73",
        "scriptpubkey_type": "v1_p2tr",
        "scriptpubkey_address": "bc1p9ncpk3ystxfqttq6l8w3yxqzd4xqrxusq2wuf5ctt489dkuupfesf7nurd",
        "value": 600
      },
      "scriptsig": "",
      "scriptsig_asm": "",
      "witness": [
        "3ecab9667394fe5344f85d1e2bce1c272514da5c6cfffefe409e6fd685e3555ebaed2e5f842899397560321e7c39c77679a949d53b83d66adb64dd878135ebf5"
      ],
      "is_coinbase": false,
      "sequence": 4294967295
    },
    {
      "txid": "c69d0816898a7e52a21fb36e0e23e34cada103ad8c81179fe2b984384789e467",
      "vout": 1,
      "prevout": {
        "scriptpubkey": "5120237d05134193fc6796e6a6f06afc6cdb0c5b5ac345d0d960f35a4ef6977a8526",
        "scriptpubkey_asm": "OP_PUSHNUM_1 OP_PUSHBYTES_32 237d05134193fc6796e6a6f06afc6cdb0c5b5ac345d0d960f35a4ef6977a8526",
        "scriptpubkey_type": "v1_p2tr",
        "scriptpubkey_address": "bc1pyd7s2y6pj07x09hx5mcx4lrvmvx9kkkrghgdjc8ntf80d9m6s5nqllx4gk",
        "value": 546
      },
      "scriptsig": "",
      "scriptsig_asm": "",
      "witness": [
        "fafecc72466bb643f179a093a5e6ce9ba41aa0ba8b12dab28e40442ef02d77e5e8ddf7a87e45b4a6dc93d9646d9f313d27005e3b7b382cbfdb9f5dc11d2b99bf83"
      ],
      "is_coinbase": false,
      "sequence": 4294967295
    },
    {
      "txid": "4b3bd0851f0ff84fd31b710fb48f9320f4ba0d6f0f5c81c38a84cfd9488fc19a",
      "vout": 5,
      "prevout": {
        "scriptpubkey": "51202cf01b4490599205ac1af9dd1218026d4c019b90029dc4d30b5d4e56db9c0a73",
        "scriptpubkey_asm": "OP_PUSHNUM_1 OP_PUSHBYTES_32 2cf01b4490599205ac1af9dd1218026d4c019b90029dc4d30b5d4e56db9c0a73",
        "scriptpubkey_type": "v1_p2tr",
        "scriptpubkey_address": "bc1p9ncpk3ystxfqttq6l8w3yxqzd4xqrxusq2wuf5ctt489dkuupfesf7nurd",
        "value": 1590188
      },
      "scriptsig": "",
      "scriptsig_asm": "",
      "witness": [
        "8aa24c75a2882cb398d0bbda7f6c7e08832e154539ae935dce8aa6847972cc152d1a984a233d2524bb78c9f9d5b8491b076f2d4336e2aaa9ff20539100aa9a17"
      ],
      "is_coinbase": false,
      "sequence": 4294967295
    }
  ],
  "vout": [
    {
      "scriptpubkey": "51202cf01b4490599205ac1af9dd1218026d4c019b90029dc4d30b5d4e56db9c0a73",
      "scriptpubkey_asm": "OP_PUSHNUM_1 OP_PUSHBYTES_32 2cf01b4490599205ac1af9dd1218026d4c019b90029dc4d30b5d4e56db9c0a73",
      "scriptpubkey_type": "v1_p2tr",
      "scriptpubkey_address": "bc1p9ncpk3ystxfqttq6l8w3yxqzd4xqrxusq2wuf5ctt489dkuupfesf7nurd",
      "value": 1200
    },
    {
      "scriptpubkey": "51202cf01b4490599205ac1af9dd1218026d4c019b90029dc4d30b5d4e56db9c0a73",
      "scriptpubkey_asm": "OP_PUSHNUM_1 OP_PUSHBYTES_32 2cf01b4490599205ac1af9dd1218026d4c019b90029dc4d30b5d4e56db9c0a73",
      "scriptpubkey_type": "v1_p2tr",
      "scriptpubkey_address": "bc1p9ncpk3ystxfqttq6l8w3yxqzd4xqrxusq2wuf5ctt489dkuupfesf7nurd",
      "value": 546
    },
    {
      "scriptpubkey": "5120237d05134193fc6796e6a6f06afc6cdb0c5b5ac345d0d960f35a4ef6977a8526",
      "scriptpubkey_asm": "OP_PUSHNUM_1 OP_PUSHBYTES_32 237d05134193fc6796e6a6f06afc6cdb0c5b5ac345d0d960f35a4ef6977a8526",
      "scriptpubkey_type": "v1_p2tr",
      "scriptpubkey_address": "bc1pyd7s2y6pj07x09hx5mcx4lrvmvx9kkkrghgdjc8ntf80d9m6s5nqllx4gk",
      "value": 220000
    },
    {
      "scriptpubkey": "51202cf01b4490599205ac1af9dd1218026d4c019b90029dc4d30b5d4e56db9c0a73",
      "scriptpubkey_asm": "OP_PUSHNUM_1 OP_PUSHBYTES_32 2cf01b4490599205ac1af9dd1218026d4c019b90029dc4d30b5d4e56db9c0a73",
      "scriptpubkey_type": "v1_p2tr",
      "scriptpubkey_address": "bc1p9ncpk3ystxfqttq6l8w3yxqzd4xqrxusq2wuf5ctt489dkuupfesf7nurd",
      "value": 600
    },
    {
      "scriptpubkey": "51202cf01b4490599205ac1af9dd1218026d4c019b90029dc4d30b5d4e56db9c0a73",
      "scriptpubkey_asm": "OP_PUSHNUM_1 OP_PUSHBYTES_32 2cf01b4490599205ac1af9dd1218026d4c019b90029dc4d30b5d4e56db9c0a73",
      "scriptpubkey_type": "v1_p2tr",
      "scriptpubkey_address": "bc1p9ncpk3ystxfqttq6l8w3yxqzd4xqrxusq2wuf5ctt489dkuupfesf7nurd",
      "value": 600
    },
    {
      "scriptpubkey": "51202cf01b4490599205ac1af9dd1218026d4c019b90029dc4d30b5d4e56db9c0a73",
      "scriptpubkey_asm": "OP_PUSHNUM_1 OP_PUSHBYTES_32 2cf01b4490599205ac1af9dd1218026d4c019b90029dc4d30b5d4e56db9c0a73",
      "scriptpubkey_type": "v1_p2tr",
      "scriptpubkey_address": "bc1p9ncpk3ystxfqttq6l8w3yxqzd4xqrxusq2wuf5ctt489dkuupfesf7nurd",
      "value": 1361004
    }
  ],
  "size": 699,
  "weight": 1995,
  "fee": 7984,
  "status": {
    "confirmed": true,
    "block_height": 834638,
    "block_hash": "000000000000000000025f742c626208ac87e0b7d15054abb4a19ca2d735a54e",
    "block_time": 1710405325
  },
  "hex": "020000000001049ac18f48d9cf848ac3815c0f6f0dbaf420938fb40f711bd34ff80f1f85d03b4b0300000000ffffffff17b636be9c3e22975c68e93e2aa787e21347473b5f405f54156007f62b5526220400000000ffffffff67e489473884b9e29f17818cad03a1ad4ce3230e6eb31fa2527e8a8916089dc60100000000ffffffff9ac18f48d9cf848ac3815c0f6f0dbaf420938fb40f711bd34ff80f1f85d03b4b0500000000ffffffff06b0040000000000002251202cf01b4490599205ac1af9dd1218026d4c019b90029dc4d30b5d4e56db9c0a7322020000000000002251202cf01b4490599205ac1af9dd1218026d4c019b90029dc4d30b5d4e56db9c0a73605b030000000000225120237d05134193fc6796e6a6f06afc6cdb0c5b5ac345d0d960f35a4ef6977a852658020000000000002251202cf01b4490599205ac1af9dd1218026d4c019b90029dc4d30b5d4e56db9c0a7358020000000000002251202cf01b4490599205ac1af9dd1218026d4c019b90029dc4d30b5d4e56db9c0a736cc41400000000002251202cf01b4490599205ac1af9dd1218026d4c019b90029dc4d30b5d4e56db9c0a7301407b9b80f63becbfbe792f8dd8708053478190e15dfe0e2f3495ce5845dc1c6613392e76b604a0b87555b6090901fb6692a49dd620432a035f546cb2ac4e68e22301403ecab9667394fe5344f85d1e2bce1c272514da5c6cfffefe409e6fd685e3555ebaed2e5f842899397560321e7c39c77679a949d53b83d66adb64dd878135ebf50141fafecc72466bb643f179a093a5e6ce9ba41aa0ba8b12dab28e40442ef02d77e5e8ddf7a87e45b4a6dc93d9646d9f313d27005e3b7b382cbfdb9f5dc11d2b99bf8301408aa24c75a2882cb398d0bbda7f6c7e08832e154539ae935dce8aa6847972cc152d1a984a233d2524bb78c9f9d5b8491b076f2d4336e2aaa9ff20539100aa9a1700000000"
}