{
  "txid": "3d90d0c89cc5dea2e84c35082618ba10266e222475d5ee2197824a7d59523857",
  "version": 2,
  "locktime": 0,
  "vin": [
    {
      "txid": "25b91da74eafcec1089d70179ec87892a20f12be8afb48aa47b7209505d58667",
      "vout": 145,
      "prevout": {
        "scriptpubkey": "0014c95f04690aa82c14e6d5ff83187be110189cc67c",
        "scriptpubkey_asm": "OP_0 OP_PUSHBYTES_20 c95f04690aa82c14e6d5ff83187be110189cc67c",
        "scriptpubkey_type": "v0_p2wpkh",
        "scriptpubkey_address": "bc1qe90sg6g24qkpfek4l7p3s7lpzqvfe3nurfq7td",
        "value": 68526
      },
      "scriptsig": "",
      "scriptsig_asm": "",
      "witness": [
        "3045022100a5f4c4ddb14264ef60927cb045f9fc349ec741d8c9c60b02576a106b23ca4a32022027d962575c2bf2001f34a50f18cdd0fecec455878178bc4ca88a662d8a52434501",
        "028f98f145eaca51529cd685e15e1cb67f8d77c89e59405c87eeeeaf06b77e40ae"
      ],
      "is_coinbase": false,
      "sequence": 4294967295
    },
    {
      "txid": "0c4a8665e5d884debbb8504373d8e1ef18df98a37a962625c9491a0735e61524",
      "vout": 82,
      "prevout": {
        "scriptpubkey": "0014c95f04690aa82c14e6d5ff83187be110189cc67c",
        "scriptpubkey_asm": "OP_0 OP_PUSHBYTES_20 c95f04690aa82c14e6d5ff83187be110189cc67c",
        "scriptpubkey_type": "v0_p2wpkh",
        "scriptpubkey_address": "bc1qe90sg6g24qkpfek4l7p3s7lpzqvfe3nurfq7td",
        "value": 68611
      },
      "scriptsig": "",
      "scriptsig_asm": "",
      "witness": [
        "3045022100b6a15bc85a1b74cc73741e2f7581a0bcb4b37338e523b3cad9305684c652449702206655f7edfdcca08110cb5955432a1d504507c34b0f474c3a5859cd7c635db61f01",
        "028f98f145eaca51529cd685e15e1cb67f8d77c89e59405c87eeeeaf06b77e40ae"
      ],
      "is_coinbase": false,
      "sequence": 4294967295
    }
  ],
  "vout": [
    {
      "scriptpubkey": "0014c95f04690aa82c14e6d5ff83187be110189cc67c",
      "scriptpubkey_asm": "OP_0 OP_PUSHBYTES_20 c95f04690aa82c14e6d5ff83187be110189cc67c",
      "scriptpubkey_type": "v0_p2wpkh",
      "scriptpubkey_address": "bc1qe90sg6g24qkpfek4l7p3s7lpzqvfe3nurfq7td",
      "value": 62445
    },
    {
      "scriptpubkey": "76a914b0b4f3b7da7548dd3356c15cef439942c36694f788ac",
      "scriptpubkey_asm": "OP_DUP OP_HASH160 OP_PUSHBYTES_20 b0b4f3b7da7548dd3356c15cef439942c36694f7 OP_EQUALVERIFY OP_CHECKSIG",
      "scriptpubkey_type": "p2pkh",
      "scriptpubkey_address": "1H7LhXhFQBE3S6kjgknF3zyLnzYrWTA7n5",
      "value": 70747
    }
  ],
  "size": 375,
  "weight": 846,
  "fee": 3945,
  "status": {
    "confirmed": true,
    "block_height": 834638,
    "block_hash": "000000000000000000025f742c626208ac87e0b7d15054abb4a19ca2d735a54e",
    "block_time": 1710405325
  },
  "hex": "020000000001026786d5059520b747aa48fb8abe120fa29278c89e17709d08c1ceaf4ea71db9259100000000ffffffff2415e635071a49c92526967aa398df18efe1d8734350b8bbde84d8e565864a0c5200000000ffffffff02edf3000000000000160014c95f04690aa82c14e6d5ff83187be110189cc67c5b140100000000001976a914b0b4f3b7da7548dd3356c15cef439942c36694f788ac02483045022100a5f4c4ddb14264ef60927cb045f9fc349ec741d8c9c60b02576a106b23ca4a32022027d962575c2bf2001f34a50f18cdd0fecec455878178bc4ca88a662d8a5243450121028f98f145eaca51529cd685e15e1cb67f8d77c89e59405c87eeeeaf06b77e40ae02483045022100b6a15bc85a1b74cc73741e2f7581a0bcb4b37338e523b3cad9305684c652449702206655f7edfdcca08110cb5955432a1d504507c34b0f474c3a5859cd7c635db61f0121028f98f145eaca51529cd685e15e1cb67f8d77c89e59405c87eeeeaf06b77e40ae00000000"
}