{
  "txid": "3da1f5b36793e7144a0be7b6e3912e6d5e8e84781504b7448f13618910c8e92b",
  "version": 2,
  "locktime": 0,
  "vin": [
    {
      "txid": "b79815e64a567c5e03bee474b50c79a1e08680e355b976824442044f84875d99",
      "vout": 0,
      "prevout": {
        "scriptpubkey": "5120684f418657e8f9034cba0423d7f147a44af431059752f1fca7445921830a714f",
        "scriptpubkey_asm": "OP_PUSHNUM_1 OP_PUSHBYTES_32 684f418657e8f9034cba0423d7f147a44af431059752f1fca7445921830a714f",
        "scriptpubkey_type": "v1_p2tr",
        "scriptpubkey_address": "bc1pdp85rpjharusxn96qs3a0u285390gvg9jaf0rl98g3vjrqc2w98sla86kc",
        "value": 4000
      },
      "scriptsig": "",
      "scriptsig_asm": "",
      "witness": [
        "74d5622f5688bfdbca4e6bf550a754af59b5aad82336bb088e220f3eb1350a32ba8f6980e90da53d5e796362a5316445729ecd53f9ce946d78b5135a6918363e",
        "207b768d571531a6a4f5e4fbd7af9bffb4d46cfcb9f444458871f8e5919f00c3d8ac0063036f7264010118746578742f706c61696e3b636861727365743d7574662d3800387b2270223a226272632d3230222c226f70223a227472616e73666572222c227469636b223a22316f6e38222c22616d74223a22313530227d68",
        "c1984b645a56f8292ea3de3d01fbe507b97b1cef2ca6f188c1e0c0b43bb95d53e0"
      ],
      "is_coinbase": false,
      "sequence": 4294967293
    }
  ],
  "vout": [
    {
      "scriptpubkey": "51203863ee247d81f74f5e191d80e32144df0dbdace9be51ab88a63080ac18e61773",
      "scriptpubkey_asm": "OP_PUSHNUM_1 OP_PUSHBYTES_32 3863ee247d81f74f5e191d80e32144df0dbdace9be51ab88a63080ac18e61773",
      "scriptpubkey_type": "v1_p2tr",
      "scriptpubkey_address": "bc1p8p37ufras8m57hserkqwxg2ymuxmmt8fheg6hz9xxzq2cx8xzaesp4p6c2",
      "value": 546
    },
    {
      "scriptpubkey": "0014db73c1073212ba2506b33007b404c3bbf7c1a877",
      "scriptpubkey_asm": "OP_0 OP_PUSHBYTES_20 db73c1073212ba2506b33007b404c3bbf7c1a877",
      "scriptpubkey_type": "v0_p2wpkh",
      "scriptpubkey_address": "bc1qmdeuzpejz2az2p4nxqrmgpxrh0mur2rhud3px5",
      "value": 1258
    }
  ],
  "size": 354,
  "weight": 729,
  "fee": 2196,
  "status": {
    "confirmed": true,
    "block_height": 834460,
    "block_hash": "00000000000000000000484a79b643b2524bbce82e5d8a442013fa5b8905ed98",
    "block_time": 1710307468
  },
  "hex": "02000000000101995d87844f0442448276b955e38086e0a1790cb574e4be035e7c564ae61598b70000000000fdffffff0222020000000000002251203863ee247d81f74f5e191d80e32144df0dbdace9be51ab88a63080ac18e61773ea04000000000000160014db73c1073212ba2506b33007b404c3bbf7c1a877034074d5622f5688bfdbca4e6bf550a754af59b5aad82336bb088e220f3eb1350a32ba8f6980e90da53d5e796362a5316445729ecd53f9ce946d78b5135a6918363e7e207b768d571531a6a4f5e4fbd7af9bffb4d46cfcb9f444458871f8e5919f00c3d8ac0063036f7264010118746578742f706c61696e3b636861727365743d7574662d3800387b2270223a226272632d3230222c226f70223a227472616e73666572222c227469636b223a22316f6e38222c22616d74223a22313530227d6821c1984b645a56f8292ea3de3d01fbe507b97b1cef2ca6f188c1e0c0b43bb95d53e000000000"
}