{
  "txid": "3da58ba9e381d208aa8964c1e25e09e1207463dcff70062382314661f4ee8dd6",
  "version": 2,
  "locktime": 0,
  "vin": [
    {
      "txid": "61dd0e0f83b51ad52d26776b3ff5b60c362f5d69df6300da52f711240cc9c323",
      "vout": 1,
      "prevout": {
        "scriptpubkey": "00149a5d53d3ba39e71d40dec439a92ad66792cec371",
        "scriptpubkey_asm": "OP_0 OP_PUSHBYTES_20 9a5d53d3ba39e71d40dec439a92ad66792cec371",
        "scriptpubkey_type": "v0_p2wpkh",
        "scriptpubkey_address": "bc1qnfw485a688n36sx7csu6j2kkv7fvasm34m5h53",
        "value": 157491599
      },
      "scriptsig": "",
      "scriptsig_asm": "",
      "witness": [
        "3044022021d4ef495f7beb900f1195389ddf33d736ea1b0a1b7d3d54c19e5fb8409f259902200ef26d7c4c3d388f8a9b10317fedd64d941c24d29dfa71c2d9874ca529abec3801",
        "036d7c8ef615ba9153c8cfdc45660efa6f5221ce6c4c0ce2df378b46bdb8a2d192"
      ],
      "is_coinbase": false,
      "sequence": 4294967295
    }
  ],
  "vout": [
    {
      "scriptpubkey": "0014607b6119f418d4dfeb13d77ea7b24e5f7b1d8436",
      "scriptpubkey_asm": "OP_0 OP_PUSHBYTES_20 607b6119f418d4dfeb13d77ea7b24e5f7b1d8436",
      "scriptpubkey_type": "v0_p2wpkh",
      "scriptpubkey_address": "bc1qvpakzx05rr2dl6cn6al20vjwtaa3mppktt285k",
      "value": 788810
    },
    {
      "scriptpubkey": "00149a5d53d3ba39e71d40dec439a92ad66792cec371",
      "scriptpubkey_asm": "OP_0 OP_PUSHBYTES_20 9a5d53d3ba39e71d40dec439a92ad66792cec371",
      "scriptpubkey_type": "v0_p2wpkh",
      "scriptpubkey_address": "bc1qnfw485a688n36sx7csu6j2kkv7fvasm34m5h53",
      "value": 156700692
    }
  ],
  "size": 222,
  "weight": 561,
  "fee": 2097,
  "status": {
    "confirmed": true,
    "block_height": 834638,
    "block_hash": "000000000000000000025f742c626208ac87e0b7d15054abb4a19ca2d735a54e",
    "block_time": 1710405325
  },
  "hex": "0200000000010123c3c90c2411f752da0063df695d2f360cb6f53f6b77262dd51ab5830f0edd610100000000ffffffff024a090c0000000000160014607b6119f418d4dfeb13d77ea7b24e5f7b1d843614105709000000001600149a5d53d3ba39e71d40dec439a92ad66792cec37102473044022021d4ef495f7beb900f1195389ddf33d736ea1b0a1b7d3d54c19e5fb8409f259902200ef26d7c4c3d388f8a9b10317fedd64d941c24d29dfa71c2d9874ca529abec380121036d7c8ef615ba9153c8cfdc45660efa6f5221ce6c4c0ce2df378b46bdb8a2d19200000000"
}