{
  "txid": "3db56d3932d3b267e64507085e2e08f110f402614dd5ac4e712f7c4799d39939",
  "version": 1,
  "locktime": 0,
  "vin": [
    {
      "txid": "0e66d90353629df93f57d532340b02e22ac4bafff54a16599425cf5e952a3895",
      "vout": 1,
      "prevout": {
        "scriptpubkey": "0014bfd86290ad21cba7620e59650940d475b1a8592a",
        "scriptpubkey_asm": "OP_0 OP_PUSHBYTES_20 bfd86290ad21cba7620e59650940d475b1a8592a",
        "scriptpubkey_type": "v0_p2wpkh",
        "scriptpubkey_address": "bc1qhlvx9y9dy896wcswt9jsjsx5wkc6skf2ep4sv2",
        "value": 2810448
      },
      "scriptsig": "",
      "scriptsig_asm": "",
      "witness": [
        "304402204a9c4a89125690ad3abbb306c8e548247eec0c1cd23a6c01af6187c3c1788c8f02206ebf3fc369f4fbaa785dd2c8052fd56424254d2d503657f92124821f6417ceec01",
        "02e5785b1a39cb895a1637da98db283ae530ba2b40dbe3bfe60d26b958163b80c7"
      ],
      "is_coinbase": false,
      "sequence": 4294967295
    }
  ],
  "vout": [
    {
      "scriptpubkey": "0014ac947b8ed8d07d1dc464112d30a440ab2bde921f",
      "scriptpubkey_asm": "OP_0 OP_PUSHBYTES_20 ac947b8ed8d07d1dc464112d30a440ab2bde921f",
      "scriptpubkey_type": "v0_p2wpkh",
      "scriptpubkey_address": "bc1q4j28hrkc6p73m3ryzyknpfzq4v4aaysl4edy9e",
      "value": 2807478
    }
  ],
  "size": 191,
  "weight": 437,
  "fee": 2970,
  "status": {
    "confirmed": true,
    "block_height": 834638,
    "block_hash": "000000000000000000025f742c626208ac87e0b7d15054abb4a19ca2d735a54e",
    "block_time": 1710405325
  },
  "hex": "0100000000010195382a955ecf259459164af5ffbac42ae2020b3432d5573ff99d625303d9660e0100000000ffffffff01b6d62a0000000000160014ac947b8ed8d07d1dc464112d30a440ab2bde921f0247304402204a9c4a89125690ad3abbb306c8e548247eec0c1cd23a6c01af6187c3c1788c8f02206ebf3fc369f4fbaa785dd2c8052fd56424254d2d503657f92124821f6417ceec012102e5785b1a39cb895a1637da98db283ae530ba2b40dbe3bfe60d26b958163b80c700000000"
}