{
  "txid": "3db774ef45be39bad54ce04d356bcb52704c5aac795d6b3a03da53a45f938fa7",
  "version": 2,
  "locktime": 0,
  "vin": [
    {
      "txid": "1b78d941086ade12201777ee519f84f119edef85fcd406f23f21cdf7ae53344e",
      "vout": 1,
      "prevout": {
        "scriptpubkey": "512013c72b6fe24392b12b00b05a5138e3ab794d6e899a648bed201c7239ec7ea814",
        "scriptpubkey_asm": "OP_PUSHNUM_1 OP_PUSHBYTES_32 13c72b6fe24392b12b00b05a5138e3ab794d6e899a648bed201c7239ec7ea814",
        "scriptpubkey_type": "v1_p2tr",
        "scriptpubkey_address": "bc1pz0rjkmlzgwftz2cqkpd9zw8r4du56m5fnfjghmfqr3ernmr74q2qw3c5v6",
        "value": 17724
      },
      "scriptsig": "",
      "scriptsig_asm": "",
      "witness": [
        "89fee64950daf5fa2db76ba2285e252670298d9e04615ca0f496eb40d24d2ede3063228a613b549e8679591ec2bd5b11892605e7b3aefdfd4f27bf16ad407aaa"
      ],
      "is_coinbase": false,
      "sequence": 4294967293
    }
  ],
  "vout": [
    {
      "scriptpubkey": "5120bacdcf25f4a1cbd452b71c07eb1fb83e3d78cbfe7779e3070385b779732586a6",
      "scriptpubkey_asm": "OP_PUSHNUM_1 OP_PUSHBYTES_32 bacdcf25f4a1cbd452b71c07eb1fb83e3d78cbfe7779e3070385b779732586a6",
      "scriptpubkey_type": "v1_p2tr",
      "scriptpubkey_address": "bc1phtxu7f05589ag54hrsr7k8ac8c7h3jl7wau7xpcrskmhjue9s6nq4chw0s",
      "value": 2826
    },
    {
      "scriptpubkey": "512013c72b6fe24392b12b00b05a5138e3ab794d6e899a648bed201c7239ec7ea814",
      "scriptpubkey_asm": "OP_PUSHNUM_1 OP_PUSHBYTES_32 13c72b6fe24392b12b00b05a5138e3ab794d6e899a648bed201c7239ec7ea814",
      "scriptpubkey_type": "v1_p2tr",
      "scriptpubkey_address": "bc1pz0rjkmlzgwftz2cqkpd9zw8r4du56m5fnfjghmfqr3ernmr74q2qw3c5v6",
      "value": 12588
    }
  ],
  "size": 205,
  "weight": 616,
  "fee": 2310,
  "status": {
    "confirmed": true,
    "block_height": 834460,
    "block_hash": "00000000000000000000484a79b643b2524bbce82e5d8a442013fa5b8905ed98",
    "block_time": 1710307468
  },
  "hex": "020000000001014e3453aef7cd213ff206d4fc85efed19f1849f51ee77172012de6a0841d9781b0100000000fdffffff020a0b000000000000225120bacdcf25f4a1cbd452b71c07eb1fb83e3d78cbfe7779e3070385b779732586a62c3100000000000022512013c72b6fe24392b12b00b05a5138e3ab794d6e899a648bed201c7239ec7ea814014089fee64950daf5fa2db76ba2285e252670298d9e04615ca0f496eb40d24d2ede3063228a613b549e8679591ec2bd5b11892605e7b3aefdfd4f27bf16ad407aaa00000000"
}