{
  "txid": "3dc4a2e8b72094538eb0c76004b52fd0932326ce0adfa20685a213788b5af607",
  "version": 2,
  "locktime": 0,
  "vin": [
    {
      "txid": "d18ed70056c00a6cd5de0ccb10b1ae8f7dd5250f9d0f22c727aba826d03302c8",
      "vout": 6,
      "prevout": {
        "scriptpubkey": "5120a777330a60dd9f5b32fc0ccc997cb3219189fd7aef4dc11b45709d4d645ca2d4",
        "scriptpubkey_asm": "OP_PUSHNUM_1 OP_PUSHBYTES_32 a777330a60dd9f5b32fc0ccc997cb3219189fd7aef4dc11b45709d4d645ca2d4",
        "scriptpubkey_type": "v1_p2tr",
        "scriptpubkey_address": "bc1p5amnxznqmk04kvhupnxfjl9nyxgcnlt6aaxuzx69wzw56ezu5t2qy9033w",
        "value": 3010
      },
      "scriptsig": "",
      "scriptsig_asm": "",
      "witness": [
        "f2dc593e2d5e35a745281a062715aa6ce09c89083f813049cffc77ef6a1e17b9713874d366edf0f00a175f13a33addd5571a3c1f86395d8f013372a790455cfe",
        "2027d39051e3dd481c00306379e877e90dca0b824bd42db9161dd8dbb23d4916caac0063036f726401011e6170706c69636174696f6e2f6a736f6e3b636861727365743d7574662d38004cbf7b2270223a22706f772d3230222c226f70223a226d696e74222c227469636b223a2250455045222c22616d74223a2231303030222c22736f6c7574696f6e223a22504550453a6263317168337833756334707a796478716436757776376e3732676874787a33753937306564663078613a303030303030303030303030303030303030303139393431613561653132383937363539383134343239323533333030353762306461393666336465613163353a3139343037333639333031227d68",
        "c1e5c6b8d70510d88b341fcdd9a2aa08913e89d9e736480c530fde3fe13419cdab"
      ],
      "is_coinbase": false,
      "sequence": 4294967295
    }
  ],
  "vout": [
    {
      "scriptpubkey": "0014bc4d1e62a1111a60375c733d3f291759851e17cf",
      "scriptpubkey_asm": "OP_0 OP_PUSHBYTES_20 bc4d1e62a1111a60375c733d3f291759851e17cf",
      "scriptpubkey_type": "v0_p2wpkh",
      "scriptpubkey_address": "bc1qh3x3uc4pzydxqd6uwv7n72ghtxz3u970edf0xa",
      "value": 546
    }
  ],
  "size": 455,
  "weight": 701,
  "fee": 2464,
  "status": {
    "confirmed": true,
    "block_height": 834460,
    "block_hash": "00000000000000000000484a79b643b2524bbce82e5d8a442013fa5b8905ed98",
    "block_time": 1710307468
  },
  "hex": "02000000000101c80233d026a8ab27c7220f9d0f25d57d8faeb110cb0cded56c0ac05600d78ed10600000000ffffffff012202000000000000160014bc4d1e62a1111a60375c733d3f291759851e17cf0340f2dc593e2d5e35a745281a062715aa6ce09c89083f813049cffc77ef6a1e17b9713874d366edf0f00a175f13a33addd5571a3c1f86395d8f013372a790455cfefd0c012027d39051e3dd481c00306379e877e90dca0b824bd42db9161dd8dbb23d4916caac0063036f726401011e6170706c69636174696f6e2f6a736f6e3b636861727365743d7574662d38004cbf7b2270223a22706f772d3230222c226f70223a226d696e74222c227469636b223a2250455045222c22616d74223a2231303030222c22736f6c7574696f6e223a22504550453a6263317168337833756334707a796478716436757776376e3732676874787a33753937306564663078613a303030303030303030303030303030303030303139393431613561653132383937363539383134343239323533333030353762306461393666336465613163353a3139343037333639333031227d6821c1e5c6b8d70510d88b341fcdd9a2aa08913e89d9e736480c530fde3fe13419cdab00000000"
}