{
  "txid": "3dd09627ff359ffd7d81cdee83cc2f91746b3b9eb2ee6f08ebf795b788dd5551",
  "version": 2,
  "locktime": 834637,
  "vin": [
    {
      "txid": "74e9f6a5b336e4270aac4396cc3d38202050b84d65d580f0aa4255400814aa3a",
      "vout": 0,
      "prevout": {
        "scriptpubkey": "00144daa50d0037902b156078e1cf16984cdbfb64ffd",
        "scriptpubkey_asm": "OP_0 OP_PUSHBYTES_20 4daa50d0037902b156078e1cf16984cdbfb64ffd",
        "scriptpubkey_type": "v0_p2wpkh",
        "scriptpubkey_address": "bc1qfk49p5qr0yptz4s83cw0z6vyeklmvnla8zzj7s",
        "value": 45394
      },
      "scriptsig": "",
      "scriptsig_asm": "",
      "witness": [
        "304402207ff9ab36bf18941c2e67758134b3f18aaf6fea9732c19a0e45ff1e22079c4c93022075cad3ef483b0c961fe023e0e125b560a5de1c87f5d4d8df1943899b1c79cbfc01",
        "032231237dd1afec7b1d5f7a7dfd3b3549a722261e6edc8a13b4075b014e0143e2"
      ],
      "is_coinbase": false,
      "sequence": 4294967294
    }
  ],
  "vout": [
    {
      "scriptpubkey": "00148b5a22e86fc7e1844718ee363c7ea1828859dcc1",
      "scriptpubkey_asm": "OP_0 OP_PUSHBYTES_20 8b5a22e86fc7e1844718ee363c7ea1828859dcc1",
      "scriptpubkey_type": "v0_p2wpkh",
      "scriptpubkey_address": "bc1q3ddz96r0clscg3ccacmrcl4ps2y9nhxpnmvdz2",
      "value": 1949
    },
    {
      "scriptpubkey": "00149476ef4cab30c30945bf88fa04fc481e2b4699fd",
      "scriptpubkey_asm": "OP_0 OP_PUSHBYTES_20 9476ef4cab30c30945bf88fa04fc481e2b4699fd",
      "scriptpubkey_type": "v0_p2wpkh",
      "scriptpubkey_address": "bc1qj3mw7n9txrpsj3dl3raqflzgrc45dx0adx8f6n",
      "value": 41200
    }
  ],
  "size": 222,
  "weight": 561,
  "fee": 2245,
  "status": {
    "confirmed": true,
    "block_height": 834638,
    "block_hash": "000000000000000000025f742c626208ac87e0b7d15054abb4a19ca2d735a54e",
    "block_time": 1710405325
  },
  "hex": "020000000001013aaa1408405542aaf080d5654db8502020383dcc9643ac0a27e436b3a5f6e9740000000000feffffff029d070000000000001600148b5a22e86fc7e1844718ee363c7ea1828859dcc1f0a00000000000001600149476ef4cab30c30945bf88fa04fc481e2b4699fd0247304402207ff9ab36bf18941c2e67758134b3f18aaf6fea9732c19a0e45ff1e22079c4c93022075cad3ef483b0c961fe023e0e125b560a5de1c87f5d4d8df1943899b1c79cbfc0121032231237dd1afec7b1d5f7a7dfd3b3549a722261e6edc8a13b4075b014e0143e24dbc0c00"
}