{
  "txid": "3dd26b1f5145df21fbdc23b4a5a1f7b897cd9871d209ee317801dd5713943096",
  "version": 2,
  "locktime": 0,
  "vin": [
    {
      "txid": "573166c074d1f9d97e74b7e445ae9eee4071bb54005e0e28be99fe4fa5597b23",
      "vout": 27,
      "prevout": {
        "scriptpubkey": "5120a1266a757a53bb39dbc7ea8a540efc2b6171abf7690b44b1a5e66818ae44f307",
        "scriptpubkey_asm": "OP_PUSHNUM_1 OP_PUSHBYTES_32 a1266a757a53bb39dbc7ea8a540efc2b6171abf7690b44b1a5e66818ae44f307",
        "scriptpubkey_type": "v1_p2tr",
        "scriptpubkey_address": "bc1p5ynx5at62wannk78a299grhu9dshr2lhdy95fvd9ue5p3tjy7vrs0twtk6",
        "value": 3055
      },
      "scriptsig": "",
      "scriptsig_asm": "",
      "witness": [
        "7430e3822ce59975f9598033737e9a5de20bfab471bfc38ecbe73d94cebcf75cc0e2898620c760eaf144a8fb0db5c8d36d85d10d1c1cdc4be8c6c32dd6bd3e6a",
        "20095b923b22d670f6ce95e0dc735c2aeebaab833b4f0c8e1b8111814653f378bfac0063036f726401011e6170706c69636174696f6e2f6a736f6e3b636861727365743d7574662d38004cd37b2270223a22706f772d3230222c226f70223a226d696e74222c227469636b223a2250455045222c22616d74223a2231303030222c22736f6c7574696f6e223a22504550453a6263317070376e727a37746333726c6d6d72373773676a6b6b7561677073323971776830617261393430777a616878666b6d6e61687770717877667139703a303030303030303030303030303030303030303139393431613561653132383937363539383134343239323533333030353762306461393666336465613163353a3135303331393137333036227d68",
        "c1f1b4027b27384657c547a9d6289f3be45ec463ffc50ccbf57ef9c2d60d2b0f32"
      ],
      "is_coinbase": false,
      "sequence": 4294967295
    }
  ],
  "vout": [
    {
      "scriptpubkey": "51200fa631797888ffbd8fde82256b73a80c14503aefe8fa5abdc2edcc9b6e7dbb82",
      "scriptpubkey_asm": "OP_PUSHNUM_1 OP_PUSHBYTES_32 0fa631797888ffbd8fde82256b73a80c14503aefe8fa5abdc2edcc9b6e7dbb82",
      "scriptpubkey_type": "v1_p2tr",
      "scriptpubkey_address": "bc1pp7nrz7tc3rlmmr77sgjkkuagps29qwh0ara940wzahxfkmnahwpqxwfq9p",
      "value": 546
    }
  ],
  "size": 487,
  "weight": 769,
  "fee": 2509,
  "status": {
    "confirmed": true,
    "block_height": 834460,
    "block_hash": "00000000000000000000484a79b643b2524bbce82e5d8a442013fa5b8905ed98",
    "block_time": 1710307468
  },
  "hex": "02000000000101237b59a54ffe99be280e5e0054bb7140ee9eae45e4b7747ed9f9d174c06631571b00000000ffffffff0122020000000000002251200fa631797888ffbd8fde82256b73a80c14503aefe8fa5abdc2edcc9b6e7dbb8203407430e3822ce59975f9598033737e9a5de20bfab471bfc38ecbe73d94cebcf75cc0e2898620c760eaf144a8fb0db5c8d36d85d10d1c1cdc4be8c6c32dd6bd3e6afd200120095b923b22d670f6ce95e0dc735c2aeebaab833b4f0c8e1b8111814653f378bfac0063036f726401011e6170706c69636174696f6e2f6a736f6e3b636861727365743d7574662d38004cd37b2270223a22706f772d3230222c226f70223a226d696e74222c227469636b223a2250455045222c22616d74223a2231303030222c22736f6c7574696f6e223a22504550453a6263317070376e727a37746333726c6d6d72373773676a6b6b7561677073323971776830617261393430777a616878666b6d6e61687770717877667139703a303030303030303030303030303030303030303139393431613561653132383937363539383134343239323533333030353762306461393666336465613163353a3135303331393137333036227d6821c1f1b4027b27384657c547a9d6289f3be45ec463ffc50ccbf57ef9c2d60d2b0f3200000000"
}