{
  "txid": "3de5f4bab4b76f7a71a314fc9ca5a63e04ca6a7aa342358db441a2856e8ad2b2",
  "version": 2,
  "locktime": 0,
  "vin": [
    {
      "txid": "acc3ba00869acb582a3f2904ce3a11dd3779350ce234063fc7d0959246213364",
      "vout": 46,
      "prevout": {
        "scriptpubkey": "51206bda0b228c0dde4c05f9e774bd82ea61055fff5f43b3b03fd16f4916bfa044e8",
        "scriptpubkey_asm": "OP_PUSHNUM_1 OP_PUSHBYTES_32 6bda0b228c0dde4c05f9e774bd82ea61055fff5f43b3b03fd16f4916bfa044e8",
        "scriptpubkey_type": "v1_p2tr",
        "scriptpubkey_address": "bc1pd0dqkg5vph0ycp0eua6tmqh2vyz4ll6lgwemq073day3d0aqgn5q0x8f88",
        "value": 1806
      },
      "scriptsig": "",
      "scriptsig_asm": "",
      "witness": [
        "b5058b492918f659ccb0a95095c1a9cc19228b20bd6c52b4d8d0a30bd5e536424eb048cb0a6b1c5a7a1ecdb0e560ee1abce64796e793b8852992a32de95a9485",
        "20a70aff473b5a2498150880ebbfb3bd05ed99de522ade26bbe4cb0065573535e5ac0063036f726401010a746578742f706c61696e00357b2270223a226272632d3230222c226f70223a226d696e74222c227469636b223a22646f6765222c22616d74223a2234323030227d68",
        "c0a70aff473b5a2498150880ebbfb3bd05ed99de522ade26bbe4cb0065573535e5"
      ],
      "is_coinbase": false,
      "sequence": 4261412863
    }
  ],
  "vout": [
    {
      "scriptpubkey": "00147a665de7a370f4c9b372ab1fae587500a5bcbdb4",
      "scriptpubkey_asm": "OP_0 OP_PUSHBYTES_20 7a665de7a370f4c9b372ab1fae587500a5bcbdb4",
      "scriptpubkey_type": "v0_p2wpkh",
      "scriptpubkey_address": "bc1q0fn9mearwr6vnvmj4v06ukr4qzjme0d565dzcx",
      "value": 294
    }
  ],
  "size": 294,
  "weight": 540,
  "fee": 1512,
  "status": {
    "confirmed": true,
    "block_height": 834460,
    "block_hash": "00000000000000000000484a79b643b2524bbce82e5d8a442013fa5b8905ed98",
    "block_time": 1710307468
  },
  "hex": "02000000000101643321469295d0c73f0634e20c357937dd113ace04293f2a58cb9a8600bac3ac2e00000000fffffffd0126010000000000001600147a665de7a370f4c9b372ab1fae587500a5bcbdb40340b5058b492918f659ccb0a95095c1a9cc19228b20bd6c52b4d8d0a30bd5e536424eb048cb0a6b1c5a7a1ecdb0e560ee1abce64796e793b8852992a32de95a94856d20a70aff473b5a2498150880ebbfb3bd05ed99de522ade26bbe4cb0065573535e5ac0063036f726401010a746578742f706c61696e00357b2270223a226272632d3230222c226f70223a226d696e74222c227469636b223a22646f6765222c22616d74223a2234323030227d6821c0a70aff473b5a2498150880ebbfb3bd05ed99de522ade26bbe4cb0065573535e500000000"
}