{
  "txid": "3de6c1e1fed587f97bbb1f9800091b6b18c130a0dc2a50eba638ee4e27dd4df9",
  "version": 2,
  "locktime": 0,
  "vin": [
    {
      "txid": "c1663fc47afde7bbb1d83e6bc0a45340fdc5a9ebdec523fef4b51e392ed21f58",
      "vout": 22,
      "prevout": {
        "scriptpubkey": "51209c23b506c7bd2555976f7ee7a285788b4761b8a2b9cfaa50c6a4c467806255a6",
        "scriptpubkey_asm": "OP_PUSHNUM_1 OP_PUSHBYTES_32 9c23b506c7bd2555976f7ee7a285788b4761b8a2b9cfaa50c6a4c467806255a6",
        "scriptpubkey_type": "v1_p2tr",
        "scriptpubkey_address": "bc1pns3m2pk8h5j4t9m00mn69ptc3drkrw9zh88655xx5nzx0qrz2knq3u3u2a",
        "value": 2207
      },
      "scriptsig": "",
      "scriptsig_asm": "",
      "witness": [
        "f788a585a3cb4ad99e63a0652447d810d25d1d9e2a698542b9328c54c75d6e437968a3e5d6dfdacb5bd4d89810911c82d8abf496fcdadbbe641d6749e93d6fbe",
        "20cf0d0625d2badb6be94ccb6b10c2752da9aee039c83a0056a256f4ccaecf91c9ac0063036f7264010118746578742f706c61696e3b636861727365743d7574662d3800357b2270223a226272632d3230222c226f70223a226d696e74222c227469636b223a22646f6765222c22616d74223a2234323030227d68",
        "c079e7bed0f3caf3813f5bc798799f48026ddc2f656deda6db0c9486dd4ef951ea"
      ],
      "is_coinbase": false,
      "sequence": 4294967295
    }
  ],
  "vout": [
    {
      "scriptpubkey": "5120d5104f8c67a3c8dcf41733f38c1be1855ad29ee4847592a882747f48f31e49bd",
      "scriptpubkey_asm": "OP_PUSHNUM_1 OP_PUSHBYTES_32 d5104f8c67a3c8dcf41733f38c1be1855ad29ee4847592a882747f48f31e49bd",
      "scriptpubkey_type": "v1_p2tr",
      "scriptpubkey_address": "bc1p65gylrr850ydeaqhx0eccxlps4dd98hys36e92yzw3l53uc7fx7spxq2f0",
      "value": 546
    }
  ],
  "size": 320,
  "weight": 602,
  "fee": 1661,
  "status": {
    "confirmed": true,
    "block_height": 834464,
    "block_hash": "0000000000000000000177a0869a911a2b65c9bdcd5a8bcb02b68f305bee848e",
    "block_time": 1710308296
  },
  "hex": "02000000000101581fd22e391eb5f4fe23c5deeba9c5fd4053a4c06b3ed8b1bbe7fd7ac43f66c11600000000ffffffff012202000000000000225120d5104f8c67a3c8dcf41733f38c1be1855ad29ee4847592a882747f48f31e49bd0340f788a585a3cb4ad99e63a0652447d810d25d1d9e2a698542b9328c54c75d6e437968a3e5d6dfdacb5bd4d89810911c82d8abf496fcdadbbe641d6749e93d6fbe7b20cf0d0625d2badb6be94ccb6b10c2752da9aee039c83a0056a256f4ccaecf91c9ac0063036f7264010118746578742f706c61696e3b636861727365743d7574662d3800357b2270223a226272632d3230222c226f70223a226d696e74222c227469636b223a22646f6765222c22616d74223a2234323030227d6821c079e7bed0f3caf3813f5bc798799f48026ddc2f656deda6db0c9486dd4ef951ea00000000"
}