{
  "txid": "3de6d57d8d4256283bead6ac94ac9aa77c476bc9fdc614dc8e19184d24acd36d",
  "version": 2,
  "locktime": 0,
  "vin": [
    {
      "txid": "255f6cde3b7f1db14dbc9164548e5767de1a22b29d861efc5023b6951fe60c0c",
      "vout": 2,
      "prevout": {
        "scriptpubkey": "5120b423cb3bbfefe220f28e041d326ac62665b75deeb5e00252b157d5d955fa1117",
        "scriptpubkey_asm": "OP_PUSHNUM_1 OP_PUSHBYTES_32 b423cb3bbfefe220f28e041d326ac62665b75deeb5e00252b157d5d955fa1117",
        "scriptpubkey_type": "v1_p2tr",
        "scriptpubkey_address": "bc1pks3ukwalal3zpu5wqswny6kxyejmwh0wkhsqy5432l2aj406zyts87aaxk",
        "value": 546
      },
      "scriptsig": "",
      "scriptsig_asm": "",
      "witness": [
        "97ea51d10c26a2bdddee0560ad696c89a9dbc575f0fbba6d192a8d09ea5f3e2c70d735e47da1defc1ef609f2be0983dc8fa93e0dddf4209624651f3acf61868b"
      ],
      "is_coinbase": false,
      "sequence": 2147483649
    },
    {
      "txid": "eb9f3e8aa87c60cc8c954e8cc535fd5cb70dbf10c7ee52e505ec034c8dc2de35",
      "vout": 1,
      "prevout": {
        "scriptpubkey": "5120b423cb3bbfefe220f28e041d326ac62665b75deeb5e00252b157d5d955fa1117",
        "scriptpubkey_asm": "OP_PUSHNUM_1 OP_PUSHBYTES_32 b423cb3bbfefe220f28e041d326ac62665b75deeb5e00252b157d5d955fa1117",
        "scriptpubkey_type": "v1_p2tr",
        "scriptpubkey_address": "bc1pks3ukwalal3zpu5wqswny6kxyejmwh0wkhsqy5432l2aj406zyts87aaxk",
        "value": 16250
      },
      "scriptsig": "",
      "scriptsig_asm": "",
      "witness": [
        "2d7bf2136b279fa5c96e83861180fcc8210baa0517be6fbe524b4d5a9a42567adc728d683a9820d6777bcf5254c2f4ce6fd6940cc31770690330678b09b3c8d1"
      ],
      "is_coinbase": false,
      "sequence": 2147483649
    }
  ],
  "vout": [
    {
      "scriptpubkey": "5120b44dddcd4b2cd9d0d4ec6ac5db0a07fdb2ba2ac3958735b039a68820879a5d4d",
      "scriptpubkey_asm": "OP_PUSHNUM_1 OP_PUSHBYTES_32 b44dddcd4b2cd9d0d4ec6ac5db0a07fdb2ba2ac3958735b039a68820879a5d4d",
      "scriptpubkey_type": "v1_p2tr",
      "scriptpubkey_address": "bc1pk3xamn2t9nvap48vdtzakzs8lket52krjkrntvpe56yzppu6t4xsj22ppl",
      "value": 546
    },
    {
      "scriptpubkey": "5120b423cb3bbfefe220f28e041d326ac62665b75deeb5e00252b157d5d955fa1117",
      "scriptpubkey_asm": "OP_PUSHNUM_1 OP_PUSHBYTES_32 b423cb3bbfefe220f28e041d326ac62665b75deeb5e00252b157d5d955fa1117",
      "scriptpubkey_type": "v1_p2tr",
      "scriptpubkey_address": "bc1pks3ukwalal3zpu5wqswny6kxyejmwh0wkhsqy5432l2aj406zyts87aaxk",
      "value": 13085
    }
  ],
  "size": 312,
  "weight": 846,
  "fee": 3165,
  "status": {
    "confirmed": true,
    "block_height": 834638,
    "block_hash": "000000000000000000025f742c626208ac87e0b7d15054abb4a19ca2d735a54e",
    "block_time": 1710405325
  },
  "hex": "020000000001020c0ce61f95b62350fc1e869db2221ade67578e546491bc4db11d7f3bde6c5f2502000000000100008035dec28d4c03ec05e552eec710bf0db75cfd35c58c4e958ccc607ca88a3e9feb010000000001000080022202000000000000225120b44dddcd4b2cd9d0d4ec6ac5db0a07fdb2ba2ac3958735b039a68820879a5d4d1d33000000000000225120b423cb3bbfefe220f28e041d326ac62665b75deeb5e00252b157d5d955fa1117014097ea51d10c26a2bdddee0560ad696c89a9dbc575f0fbba6d192a8d09ea5f3e2c70d735e47da1defc1ef609f2be0983dc8fa93e0dddf4209624651f3acf61868b01402d7bf2136b279fa5c96e83861180fcc8210baa0517be6fbe524b4d5a9a42567adc728d683a9820d6777bcf5254c2f4ce6fd6940cc31770690330678b09b3c8d100000000"
}