{
  "txid": "3df9ec618a7ab2c9489f9c9ec2517878633c8b6327050e88277006a6998239ce",
  "version": 2,
  "locktime": 0,
  "vin": [
    {
      "txid": "b60c54e591efad215925580d76d3dcb51d0ec89bc24704b9cafcf9cc456c69f2",
      "vout": 9,
      "prevout": {
        "scriptpubkey": "00146473a5ff6dc81880ba834d86b09a2ca2a85e1315",
        "scriptpubkey_asm": "OP_0 OP_PUSHBYTES_20 6473a5ff6dc81880ba834d86b09a2ca2a85e1315",
        "scriptpubkey_type": "v0_p2wpkh",
        "scriptpubkey_address": "bc1qv3e6tlmdeqvgpw5rfkrtpx3v5259uyc4s5plkq",
        "value": 45737
      },
      "scriptsig": "",
      "scriptsig_asm": "",
      "witness": [
        "3045022100c4d5ee9bbfd82aad3c54b44f9f1c38ac1003efce0e4cb5769c95e8e65810c53e0220384dfb64ff529fe56da935e0047dda9589d6da41be37525263338836b442db4501",
        "0284ea2abed50d318cca633acb44272f0cc1c7f5703374753294256d880e3e5b26"
      ],
      "is_coinbase": false,
      "sequence": 4294967293
    },
    {
      "txid": "670c20f3a229960498311f7abff24e754c47f38c05b53021ac0a5c94f4e11c5a",
      "vout": 10,
      "prevout": {
        "scriptpubkey": "0014b71e492d2449c0591edf7f631a801db4ce136e9a",
        "scriptpubkey_asm": "OP_0 OP_PUSHBYTES_20 b71e492d2449c0591edf7f631a801db4ce136e9a",
        "scriptpubkey_type": "v0_p2wpkh",
        "scriptpubkey_address": "bc1qku0yjtfyf8q9j8kl0a334qqakn8pxm56sah785",
        "value": 45567
      },
      "scriptsig": "",
      "scriptsig_asm": "",
      "witness": [
        "304402202a4b1a17b21dc63098237b0ffb18925876532f6824d82d146e10293f031edef6022008498ba6b2d955f37562f99bc97c1997db03a564bf3a6d574ad0d419c93a274101",
        "03455fb16e4743f8b836cf823bed6b7a7fbbd2d17ddba444e1ff7a68b6edbd4e9f"
      ],
      "is_coinbase": false,
      "sequence": 4294967293
    }
  ],
  "vout": [
    {
      "scriptpubkey": "001439b64447abc701b924a93762d7df274a3a44e363",
      "scriptpubkey_asm": "OP_0 OP_PUSHBYTES_20 39b64447abc701b924a93762d7df274a3a44e363",
      "scriptpubkey_type": "v0_p2wpkh",
      "scriptpubkey_address": "bc1q8xmyg3atcuqmjf9fxa3d0he8fgayfcmr9rf27p",
      "value": 85755
    }
  ],
  "size": 340,
  "weight": 709,
  "fee": 5549,
  "status": {
    "confirmed": true,
    "block_height": 834638,
    "block_hash": "000000000000000000025f742c626208ac87e0b7d15054abb4a19ca2d735a54e",
    "block_time": 1710405325
  },
  "hex": "02000000000102f2696c45ccf9fccab90447c29bc80e1db5dcd3760d58255921adef91e5540cb60900000000fdffffff5a1ce1f4945c0aac2130b5058cf3474c754ef2bf7a1f3198049629a2f3200c670a00000000fdffffff01fb4e01000000000016001439b64447abc701b924a93762d7df274a3a44e36302483045022100c4d5ee9bbfd82aad3c54b44f9f1c38ac1003efce0e4cb5769c95e8e65810c53e0220384dfb64ff529fe56da935e0047dda9589d6da41be37525263338836b442db4501210284ea2abed50d318cca633acb44272f0cc1c7f5703374753294256d880e3e5b260247304402202a4b1a17b21dc63098237b0ffb18925876532f6824d82d146e10293f031edef6022008498ba6b2d955f37562f99bc97c1997db03a564bf3a6d574ad0d419c93a2741012103455fb16e4743f8b836cf823bed6b7a7fbbd2d17ddba444e1ff7a68b6edbd4e9f00000000"
}