{
  "txid": "3e134001f1061aa4ff4c2ced44683ea97fe1d5fa9f092fa57b2b001ae2291ca1",
  "version": 1,
  "locktime": 0,
  "vin": [
    {
      "txid": "043f66c6e9c91d69d07b57548da9725b9422cdfb1ab054dba3849020daaee210",
      "vout": 0,
      "prevout": {
        "scriptpubkey": "00149e7006deb0096be6304969f373c428837898cabe",
        "scriptpubkey_asm": "OP_0 OP_PUSHBYTES_20 9e7006deb0096be6304969f373c428837898cabe",
        "scriptpubkey_type": "v0_p2wpkh",
        "scriptpubkey_address": "bc1qnecqdh4sp947vvzfd8eh83pgsduf3j47g4c63x",
        "value": 1693116
      },
      "scriptsig": "",
      "scriptsig_asm": "",
      "witness": [
        "304402202b8a405a85d942a0c224f100cf9723e887b1e1721c419b616f6fa12a3f0de622022073f3a9a353da8d2a949c808a492d07415024870877fa20da726e056244b94a2901",
        "02183d6fef5ef4261b0f2709d58c5c7dfcd4e7347328dd24b32ce36a16620cf18a"
      ],
      "is_coinbase": false,
      "sequence": 4294967295
    }
  ],
  "vout": [
    {
      "scriptpubkey": "a914bfb34a616e6c21019a3ed5dae0fcd8541389b5cb87",
      "scriptpubkey_asm": "OP_HASH160 OP_PUSHBYTES_20 bfb34a616e6c21019a3ed5dae0fcd8541389b5cb OP_EQUAL",
      "scriptpubkey_type": "p2sh",
      "scriptpubkey_address": "3KAdmWUugrZQpDNpqn523w15Y7itf9hbyT",
      "value": 1691906
    }
  ],
  "size": 192,
  "weight": 441,
  "fee": 1210,
  "status": {
    "confirmed": true,
    "block_height": 834464,
    "block_hash": "0000000000000000000177a0869a911a2b65c9bdcd5a8bcb02b68f305bee848e",
    "block_time": 1710308296
  },
  "hex": "0100000000010110e2aeda209084a3db54b01afbcd22945b72a98d54577bd0691dc9e9c6663f040000000000ffffffff0102d119000000000017a914bfb34a616e6c21019a3ed5dae0fcd8541389b5cb870247304402202b8a405a85d942a0c224f100cf9723e887b1e1721c419b616f6fa12a3f0de622022073f3a9a353da8d2a949c808a492d07415024870877fa20da726e056244b94a29012102183d6fef5ef4261b0f2709d58c5c7dfcd4e7347328dd24b32ce36a16620cf18a00000000"
}