{
  "txid": "3e2165c8477f786601591cdb1c222505ebf3c1438e6090888c170607129ef816",
  "version": 2,
  "locktime": 0,
  "vin": [
    {
      "txid": "a02920445705cbc5bf6c6aebc4eebb029cee19b84a0443d3fd3bc34d3da35340",
      "vout": 1,
      "prevout": {
        "scriptpubkey": "76a9145a4dd33194e1b75e918d89730120c84cf4d0b67e88ac",
        "scriptpubkey_asm": "OP_DUP OP_HASH160 OP_PUSHBYTES_20 5a4dd33194e1b75e918d89730120c84cf4d0b67e OP_EQUALVERIFY OP_CHECKSIG",
        "scriptpubkey_type": "p2pkh",
        "scriptpubkey_address": "19EV3e3zN9jTuWerfBRmmsQ6weNforYKAz",
        "value": 282554026
      },
      "scriptsig": "47304402204e4df823fd6cdcb213b125e0c04fbb4cbedf51043af875e7ee63987a6c6740080220458c6892b7b7f111b1602889264b9d1797c0c6af7cfe3afc42ec3b05fe703d46012103d314bbd70555ddc5b8170c66ecc87d7dc334d0443f7d76687589dfd19ee6f606",
      "scriptsig_asm": "OP_PUSHBYTES_71 304402204e4df823fd6cdcb213b125e0c04fbb4cbedf51043af875e7ee63987a6c6740080220458c6892b7b7f111b1602889264b9d1797c0c6af7cfe3afc42ec3b05fe703d4601 OP_PUSHBYTES_33 03d314bbd70555ddc5b8170c66ecc87d7dc334d0443f7d76687589dfd19ee6f606",
      "is_coinbase": false,
      "sequence": 4294967293
    }
  ],
  "vout": [
    {
      "scriptpubkey": "0014bf090eb92ddf2f49fc86c2723d688d7002812ead",
      "scriptpubkey_asm": "OP_0 OP_PUSHBYTES_20 bf090eb92ddf2f49fc86c2723d688d7002812ead",
      "scriptpubkey_type": "v0_p2wpkh",
      "scriptpubkey_address": "bc1qhuysawfdmuh5nlyxcfer66ydwqpgzt4d3wcmxx",
      "value": 1430000
    },
    {
      "scriptpubkey": "76a9145a4dd33194e1b75e918d89730120c84cf4d0b67e88ac",
      "scriptpubkey_asm": "OP_DUP OP_HASH160 OP_PUSHBYTES_20 5a4dd33194e1b75e918d89730120c84cf4d0b67e OP_EQUALVERIFY OP_CHECKSIG",
      "scriptpubkey_type": "p2pkh",
      "scriptpubkey_address": "19EV3e3zN9jTuWerfBRmmsQ6weNforYKAz",
      "value": 281117532
    }
  ],
  "size": 222,
  "weight": 888,
  "fee": 6494,
  "status": {
    "confirmed": true,
    "block_height": 834638,
    "block_hash": "000000000000000000025f742c626208ac87e0b7d15054abb4a19ca2d735a54e",
    "block_time": 1710405325
  },
  "hex": "02000000014053a33d4dc33bfdd343044ab819ee9c02bbeec4eb6a6cbfc5cb0557442029a0010000006a47304402204e4df823fd6cdcb213b125e0c04fbb4cbedf51043af875e7ee63987a6c6740080220458c6892b7b7f111b1602889264b9d1797c0c6af7cfe3afc42ec3b05fe703d46012103d314bbd70555ddc5b8170c66ecc87d7dc334d0443f7d76687589dfd19ee6f606fdffffff02f0d1150000000000160014bf090eb92ddf2f49fc86c2723d688d7002812ead5c83c110000000001976a9145a4dd33194e1b75e918d89730120c84cf4d0b67e88ac00000000"
}