{
  "txid": "3e2eb2d89ce6ee5af3ef6b59d1839438eb66734e46906c83087f7486db8dea17",
  "version": 2,
  "locktime": 0,
  "vin": [
    {
      "txid": "acc3ba00869acb582a3f2904ce3a11dd3779350ce234063fc7d0959246213364",
      "vout": 65,
      "prevout": {
        "scriptpubkey": "51208023d10f7bd83c6caa7873c4bb924afcf9320b91e9e37f6b639cec57bcf00015",
        "scriptpubkey_asm": "OP_PUSHNUM_1 OP_PUSHBYTES_32 8023d10f7bd83c6caa7873c4bb924afcf9320b91e9e37f6b639cec57bcf00015",
        "scriptpubkey_type": "v1_p2tr",
        "scriptpubkey_address": "bc1psq3azrmmmq7xe2ncw0zthyj2lnunyzu3a83h76mrnnk9008sqq2snv9h5q",
        "value": 1806
      },
      "scriptsig": "",
      "scriptsig_asm": "",
      "witness": [
        "72960af347cebf7412dcbf8566f514455f5e9f95433d3209cfbb6ecfa358d80aba8caf766416a437d65b62e298cf5edac9ed52cdaaebed948fc3765b205b6b04",
        "20dbd20bf6ca7940feed1036da2dea9cb3cd2e26354c4810f1ab3c019b87fbd4a5ac0063036f726401010a746578742f706c61696e00357b2270223a226272632d3230222c226f70223a226d696e74222c227469636b223a22646f6765222c22616d74223a2234323030227d68",
        "c0dbd20bf6ca7940feed1036da2dea9cb3cd2e26354c4810f1ab3c019b87fbd4a5"
      ],
      "is_coinbase": false,
      "sequence": 4261412863
    }
  ],
  "vout": [
    {
      "scriptpubkey": "00147a665de7a370f4c9b372ab1fae587500a5bcbdb4",
      "scriptpubkey_asm": "OP_0 OP_PUSHBYTES_20 7a665de7a370f4c9b372ab1fae587500a5bcbdb4",
      "scriptpubkey_type": "v0_p2wpkh",
      "scriptpubkey_address": "bc1q0fn9mearwr6vnvmj4v06ukr4qzjme0d565dzcx",
      "value": 294
    }
  ],
  "size": 294,
  "weight": 540,
  "fee": 1512,
  "status": {
    "confirmed": true,
    "block_height": 834460,
    "block_hash": "00000000000000000000484a79b643b2524bbce82e5d8a442013fa5b8905ed98",
    "block_time": 1710307468
  },
  "hex": "02000000000101643321469295d0c73f0634e20c357937dd113ace04293f2a58cb9a8600bac3ac4100000000fffffffd0126010000000000001600147a665de7a370f4c9b372ab1fae587500a5bcbdb4034072960af347cebf7412dcbf8566f514455f5e9f95433d3209cfbb6ecfa358d80aba8caf766416a437d65b62e298cf5edac9ed52cdaaebed948fc3765b205b6b046d20dbd20bf6ca7940feed1036da2dea9cb3cd2e26354c4810f1ab3c019b87fbd4a5ac0063036f726401010a746578742f706c61696e00357b2270223a226272632d3230222c226f70223a226d696e74222c227469636b223a22646f6765222c22616d74223a2234323030227d6821c0dbd20bf6ca7940feed1036da2dea9cb3cd2e26354c4810f1ab3c019b87fbd4a500000000"
}