{
  "txid": "3e2ecff17d797418a1a5d76f187e04589c435a654cc673cd26cf956d2004824b",
  "version": 2,
  "locktime": 834591,
  "vin": [
    {
      "txid": "f322acbd3e8ace65c3c60333e2438f0e15657b757b5f871240bf13e9418aa30d",
      "vout": 0,
      "prevout": {
        "scriptpubkey": "0014340e062db8dc6e1719d1ef75e2c9629d024403b0",
        "scriptpubkey_asm": "OP_0 OP_PUSHBYTES_20 340e062db8dc6e1719d1ef75e2c9629d024403b0",
        "scriptpubkey_type": "v0_p2wpkh",
        "scriptpubkey_address": "bc1qxs8qvtdcm3hpwxw3aa679jtzn5pygqaslgkc4u",
        "value": 5097020
      },
      "scriptsig": "",
      "scriptsig_asm": "",
      "witness": [
        "304402207da88a3a75e8d1c1f84885442f79a08fb8e11461f042121f645ebe7825dcbd3b0220680ba87364839701bbafff34517344da5bd09ede5a3175180cc6c9dc74680e9101",
        "0274dd5926dc0fccf82f0c0f723ab28d37a53ded6e996d1cc8f7dd4a254d48e232"
      ],
      "is_coinbase": false,
      "sequence": 4294967293
    }
  ],
  "vout": [
    {
      "scriptpubkey": "0014f7cecc3b48db1f9804d156282c905ed38c8b8dd4",
      "scriptpubkey_asm": "OP_0 OP_PUSHBYTES_20 f7cecc3b48db1f9804d156282c905ed38c8b8dd4",
      "scriptpubkey_type": "v0_p2wpkh",
      "scriptpubkey_address": "bc1q7l8vcw6gmv0espx32c5zeyz76wxghrw5ycdcq8",
      "value": 5092565
    }
  ],
  "size": 191,
  "weight": 437,
  "fee": 4455,
  "status": {
    "confirmed": true,
    "block_height": 834638,
    "block_hash": "000000000000000000025f742c626208ac87e0b7d15054abb4a19ca2d735a54e",
    "block_time": 1710405325
  },
  "hex": "020000000001010da38a41e913bf4012875f7b757b65150e8f43e23303c6c365ce8a3ebdac22f30000000000fdffffff01d5b44d0000000000160014f7cecc3b48db1f9804d156282c905ed38c8b8dd40247304402207da88a3a75e8d1c1f84885442f79a08fb8e11461f042121f645ebe7825dcbd3b0220680ba87364839701bbafff34517344da5bd09ede5a3175180cc6c9dc74680e9101210274dd5926dc0fccf82f0c0f723ab28d37a53ded6e996d1cc8f7dd4a254d48e2321fbc0c00"
}