{
  "txid": "3e30527e6999ac26cdc19d03e89804653f1b9223c96a5298885b17e396f9725f",
  "version": 2,
  "locktime": 0,
  "vin": [
    {
      "txid": "999be4485c6ffa4034655e57c43c7ac0c4e0652258bd6aeca1cd2bde8547a9b1",
      "vout": 2,
      "prevout": {
        "scriptpubkey": "51209faa5843b315c1c455535f95d394aa8d1861256e42de7dce2b6f288a8769383f",
        "scriptpubkey_asm": "OP_PUSHNUM_1 OP_PUSHBYTES_32 9faa5843b315c1c455535f95d394aa8d1861256e42de7dce2b6f288a8769383f",
        "scriptpubkey_type": "v1_p2tr",
        "scriptpubkey_address": "bc1pn749ssanzhqug42nt72a899235vxzftwgt08mn3tdu5g4pmf8qlsh7r5qg",
        "value": 323400
      },
      "scriptsig": "",
      "scriptsig_asm": "",
      "witness": [
        "86eccc79eb9ee7e3450be2903be5a9e93c880358c2012f9ab86230d1a39346ccc3809dbb4485fd9bf689046cef54dbb9eba4fb6fb361b19cf788a279f7dd0d6b"
      ],
      "is_coinbase": false,
      "sequence": 4294967293
    }
  ],
  "vout": [
    {
      "scriptpubkey": "512086f1295be330ffcc3da2cd6beb4d4b1bb47b4f657ab8b7da0744ccf9ec989fd6",
      "scriptpubkey_asm": "OP_PUSHNUM_1 OP_PUSHBYTES_32 86f1295be330ffcc3da2cd6beb4d4b1bb47b4f657ab8b7da0744ccf9ec989fd6",
      "scriptpubkey_type": "v1_p2tr",
      "scriptpubkey_address": "bc1psmcjjklrxrluc0dze447kn2trw68knm902ut0ks8gnx0nmycnltqzu8k0f",
      "value": 2978
    },
    {
      "scriptpubkey": "51209faa5843b315c1c455535f95d394aa8d1861256e42de7dce2b6f288a8769383f",
      "scriptpubkey_asm": "OP_PUSHNUM_1 OP_PUSHBYTES_32 9faa5843b315c1c455535f95d394aa8d1861256e42de7dce2b6f288a8769383f",
      "scriptpubkey_type": "v1_p2tr",
      "scriptpubkey_address": "bc1pn749ssanzhqug42nt72a899235vxzftwgt08mn3tdu5g4pmf8qlsh7r5qg",
      "value": 317958
    }
  ],
  "size": 205,
  "weight": 616,
  "fee": 2464,
  "status": {
    "confirmed": true,
    "block_height": 834638,
    "block_hash": "000000000000000000025f742c626208ac87e0b7d15054abb4a19ca2d735a54e",
    "block_time": 1710405325
  },
  "hex": "02000000000101b1a94785de2bcda1ec6abd582265e0c4c07a3cc4575e653440fa6f5c48e49b990200000000fdffffff02a20b00000000000022512086f1295be330ffcc3da2cd6beb4d4b1bb47b4f657ab8b7da0744ccf9ec989fd606da0400000000002251209faa5843b315c1c455535f95d394aa8d1861256e42de7dce2b6f288a8769383f014086eccc79eb9ee7e3450be2903be5a9e93c880358c2012f9ab86230d1a39346ccc3809dbb4485fd9bf689046cef54dbb9eba4fb6fb361b19cf788a279f7dd0d6b00000000"
}