{
  "txid": "3e3e59377bf4a07bcbfcfbdc20e2533431eda11a0def3c1a1c1f228018ebf207",
  "version": 2,
  "locktime": 0,
  "vin": [
    {
      "txid": "acc3ba00869acb582a3f2904ce3a11dd3779350ce234063fc7d0959246213364",
      "vout": 124,
      "prevout": {
        "scriptpubkey": "512051dca1d8c3dd29d97a937e6e9b309d237423c45386a571e6363efeca1ac91f43",
        "scriptpubkey_asm": "OP_PUSHNUM_1 OP_PUSHBYTES_32 51dca1d8c3dd29d97a937e6e9b309d237423c45386a571e6363efeca1ac91f43",
        "scriptpubkey_type": "v1_p2tr",
        "scriptpubkey_address": "bc1p28w2rkxrm55aj75n0ehfkvyayd6z83zns6jhre3k8mlv5xkfrapshw7wat",
        "value": 1806
      },
      "scriptsig": "",
      "scriptsig_asm": "",
      "witness": [
        "ad8380231a6123ee018fc5dcfbe05c89a64d9506fd67ce672025d974e2531f5ca26a5ccb0791bba43f08334cbd89c834d884076c977fb801df9dfa25da893979",
        "2014d339d53d4bb64057b87968ce257c6ad17990ce41312f705054e307dd0d1abdac0063036f726401010a746578742f706c61696e00357b2270223a226272632d3230222c226f70223a226d696e74222c227469636b223a22646f6765222c22616d74223a2234323030227d68",
        "c014d339d53d4bb64057b87968ce257c6ad17990ce41312f705054e307dd0d1abd"
      ],
      "is_coinbase": false,
      "sequence": 4261412863
    }
  ],
  "vout": [
    {
      "scriptpubkey": "00147a665de7a370f4c9b372ab1fae587500a5bcbdb4",
      "scriptpubkey_asm": "OP_0 OP_PUSHBYTES_20 7a665de7a370f4c9b372ab1fae587500a5bcbdb4",
      "scriptpubkey_type": "v0_p2wpkh",
      "scriptpubkey_address": "bc1q0fn9mearwr6vnvmj4v06ukr4qzjme0d565dzcx",
      "value": 294
    }
  ],
  "size": 294,
  "weight": 540,
  "fee": 1512,
  "status": {
    "confirmed": true,
    "block_height": 834460,
    "block_hash": "00000000000000000000484a79b643b2524bbce82e5d8a442013fa5b8905ed98",
    "block_time": 1710307468
  },
  "hex": "02000000000101643321469295d0c73f0634e20c357937dd113ace04293f2a58cb9a8600bac3ac7c00000000fffffffd0126010000000000001600147a665de7a370f4c9b372ab1fae587500a5bcbdb40340ad8380231a6123ee018fc5dcfbe05c89a64d9506fd67ce672025d974e2531f5ca26a5ccb0791bba43f08334cbd89c834d884076c977fb801df9dfa25da8939796d2014d339d53d4bb64057b87968ce257c6ad17990ce41312f705054e307dd0d1abdac0063036f726401010a746578742f706c61696e00357b2270223a226272632d3230222c226f70223a226d696e74222c227469636b223a22646f6765222c22616d74223a2234323030227d6821c014d339d53d4bb64057b87968ce257c6ad17990ce41312f705054e307dd0d1abd00000000"
}