{
  "txid": "3e403252010e3f1bac62e325a318919253cc3d47d0c408aa4fd2ee7d81bdac5b",
  "version": 2,
  "locktime": 0,
  "vin": [
    {
      "txid": "e295521af15cca03ca34555fb26bfe266e634f7ab6029c6b1867e05e2ad69af0",
      "vout": 0,
      "prevout": {
        "scriptpubkey": "0014ff3beeb4add2079c095fdb7df4b7b8dae11f5db6",
        "scriptpubkey_asm": "OP_0 OP_PUSHBYTES_20 ff3beeb4add2079c095fdb7df4b7b8dae11f5db6",
        "scriptpubkey_type": "v0_p2wpkh",
        "scriptpubkey_address": "bc1qlua7ad9d6grecz2lmd7lfdacmts37hdkvme6k3",
        "value": 99839
      },
      "scriptsig": "",
      "scriptsig_asm": "",
      "witness": [
        "304402203645f28046efe93920620b54f47edbeeef0cabb178e4826f34a633c53c17e13802200a4c3127ce6c208e512c034fbd4f6b5cfcbe88b98a837bfb5d5edb8cb4c1d1a101",
        "02d012e41b8ebde898682e7b04deb0d9dfb25033a02f462cd17b7f04e7839208f9"
      ],
      "is_coinbase": false,
      "sequence": 4294967293
    }
  ],
  "vout": [
    {
      "scriptpubkey": "0014345ae11186a4b63f5efec3cd8edcd12dc03810a6",
      "scriptpubkey_asm": "OP_0 OP_PUSHBYTES_20 345ae11186a4b63f5efec3cd8edcd12dc03810a6",
      "scriptpubkey_type": "v0_p2wpkh",
      "scriptpubkey_address": "bc1qx3dwzyvx5jmr7hh7c0xcahx39hqrsy9xeqqlyu",
      "value": 96429
    }
  ],
  "size": 191,
  "weight": 437,
  "fee": 3410,
  "status": {
    "confirmed": true,
    "block_height": 834638,
    "block_hash": "000000000000000000025f742c626208ac87e0b7d15054abb4a19ca2d735a54e",
    "block_time": 1710405325
  },
  "hex": "02000000000101f09ad62a5ee067186b9c02b67a4f636e26fe6bb25f5534ca03ca5cf11a5295e20000000000fdffffff01ad78010000000000160014345ae11186a4b63f5efec3cd8edcd12dc03810a60247304402203645f28046efe93920620b54f47edbeeef0cabb178e4826f34a633c53c17e13802200a4c3127ce6c208e512c034fbd4f6b5cfcbe88b98a837bfb5d5edb8cb4c1d1a1012102d012e41b8ebde898682e7b04deb0d9dfb25033a02f462cd17b7f04e7839208f900000000"
}