{
  "txid": "3e451bff44a2bd3aa3e583daf6da2f8047563741ce48128178c3ca989453a025",
  "version": 2,
  "locktime": 0,
  "vin": [
    {
      "txid": "586663c789495a0ae8d4aa255e2bac33b23cfd40a7259e90021786d62cf558eb",
      "vout": 1,
      "prevout": {
        "scriptpubkey": "001469c0baf4fa3e8a1e36e2e554c772bb93900e73a5",
        "scriptpubkey_asm": "OP_0 OP_PUSHBYTES_20 69c0baf4fa3e8a1e36e2e554c772bb93900e73a5",
        "scriptpubkey_type": "v0_p2wpkh",
        "scriptpubkey_address": "bc1qd8qt4a86869pudhzu42vwu4mjwgquua9grs520",
        "value": 15458
      },
      "scriptsig": "",
      "scriptsig_asm": "",
      "witness": [
        "304502210094ff4e3f5280edbb72e325155a03b6810cb381262714cc95f695bf00d8a937ce022012ed8bcef9e15aac6eaf1d6402523937daa66fc27d87fa1e6ca3013468afe07701",
        "02d8e9b9cff90dbfe8d763d340ba451b2774ea20f1739ecbb738e0c046f41e0361"
      ],
      "is_coinbase": false,
      "sequence": 4294967295
    }
  ],
  "vout": [
    {
      "scriptpubkey": "a9147641bc57edb23adfddafe36505806d6dc748317887",
      "scriptpubkey_asm": "OP_HASH160 OP_PUSHBYTES_20 7641bc57edb23adfddafe36505806d6dc7483178 OP_EQUAL",
      "scriptpubkey_type": "p2sh",
      "scriptpubkey_address": "3CUJQaSfLFKT4S2M9WMm7fLyB8KnxqQYg6",
      "value": 8280
    },
    {
      "scriptpubkey": "00142072b27aa8ed0206ed206bfe07f67427e94664a6",
      "scriptpubkey_asm": "OP_0 OP_PUSHBYTES_20 2072b27aa8ed0206ed206bfe07f67427e94664a6",
      "scriptpubkey_type": "v0_p2wpkh",
      "scriptpubkey_address": "bc1qypety74ga5pqdmfqd0lq0an5yl55ve9x232emp",
      "value": 5641
    }
  ],
  "size": 224,
  "weight": 566,
  "fee": 1537,
  "status": {
    "confirmed": true,
    "block_height": 834464,
    "block_hash": "0000000000000000000177a0869a911a2b65c9bdcd5a8bcb02b68f305bee848e",
    "block_time": 1710308296
  },
  "hex": "02000000000101eb58f52cd6861702909e25a740fd3cb233ac2b5e25aad4e80a5a4989c76366580100000000ffffffff02582000000000000017a9147641bc57edb23adfddafe36505806d6dc74831788709160000000000001600142072b27aa8ed0206ed206bfe07f67427e94664a60248304502210094ff4e3f5280edbb72e325155a03b6810cb381262714cc95f695bf00d8a937ce022012ed8bcef9e15aac6eaf1d6402523937daa66fc27d87fa1e6ca3013468afe077012102d8e9b9cff90dbfe8d763d340ba451b2774ea20f1739ecbb738e0c046f41e036100000000"
}