{
  "txid": "3e515c5ee294c7f01e2af944ea33806f7f304c1f4914b430fd42368a885417f1",
  "version": 2,
  "locktime": 0,
  "vin": [
    {
      "txid": "f73b6c45d704a334585d304d6185044aeff148bd2e6f99b42fc0d1d62979f193",
      "vout": 1,
      "prevout": {
        "scriptpubkey": "a914f01a60d24d4aa15e13d4da56b6281f68a7b25e7c87",
        "scriptpubkey_asm": "OP_HASH160 OP_PUSHBYTES_20 f01a60d24d4aa15e13d4da56b6281f68a7b25e7c OP_EQUAL",
        "scriptpubkey_type": "p2sh",
        "scriptpubkey_address": "3PaZhNbWSF4EsmfsqTE4gWsN1G7BjmqPN3",
        "value": 372870
      },
      "scriptsig": "1600140c1e85be4e5459b9957c35e6f0f511ab35b36994",
      "scriptsig_asm": "OP_PUSHBYTES_22 00140c1e85be4e5459b9957c35e6f0f511ab35b36994",
      "witness": [
        "3045022100820e521d704e9772cc84f2f2112310f86fce19ed98fb2dd3fc656c32bcc8820e02205b8b89cf2075e2cdc90a7a517e31ff302baf94e72f130e8a0b1ba518afa0b7f601",
        "029e8797f86ae98d65abc886812cb2be69ca9f7049cfa1f9a24184263745967fc9"
      ],
      "is_coinbase": false,
      "sequence": 4294967293,
      "inner_redeemscript_asm": "OP_0 OP_PUSHBYTES_20 0c1e85be4e5459b9957c35e6f0f511ab35b36994"
    }
  ],
  "vout": [
    {
      "scriptpubkey": "512015c860ad267ab736a144e3d90b7d6bd1ec4027a9b66b617d6e1581aa0e5a87f1",
      "scriptpubkey_asm": "OP_PUSHNUM_1 OP_PUSHBYTES_32 15c860ad267ab736a144e3d90b7d6bd1ec4027a9b66b617d6e1581aa0e5a87f1",
      "scriptpubkey_type": "v1_p2tr",
      "scriptpubkey_address": "bc1pzhyxptfx02mndg2yu0vskltt68kyqfafke4kzltwzkq65rj6slcs763edj",
      "value": 204389
    },
    {
      "scriptpubkey": "a914f01a60d24d4aa15e13d4da56b6281f68a7b25e7c87",
      "scriptpubkey_asm": "OP_HASH160 OP_PUSHBYTES_20 f01a60d24d4aa15e13d4da56b6281f68a7b25e7c OP_EQUAL",
      "scriptpubkey_type": "p2sh",
      "scriptpubkey_address": "3PaZhNbWSF4EsmfsqTE4gWsN1G7BjmqPN3",
      "value": 165826
    }
  ],
  "size": 259,
  "weight": 706,
  "fee": 2655,
  "status": {
    "confirmed": true,
    "block_height": 834638,
    "block_hash": "000000000000000000025f742c626208ac87e0b7d15054abb4a19ca2d735a54e",
    "block_time": 1710405325
  },
  "hex": "0200000000010193f17929d6d1c02fb4996f2ebd48f1ef4a0485614d305d5834a304d7456c3bf701000000171600140c1e85be4e5459b9957c35e6f0f511ab35b36994fdffffff02651e03000000000022512015c860ad267ab736a144e3d90b7d6bd1ec4027a9b66b617d6e1581aa0e5a87f1c28702000000000017a914f01a60d24d4aa15e13d4da56b6281f68a7b25e7c8702483045022100820e521d704e9772cc84f2f2112310f86fce19ed98fb2dd3fc656c32bcc8820e02205b8b89cf2075e2cdc90a7a517e31ff302baf94e72f130e8a0b1ba518afa0b7f60121029e8797f86ae98d65abc886812cb2be69ca9f7049cfa1f9a24184263745967fc900000000"
}