{
  "txid": "3e6aba35d3e71b8ba7185968d56d53b60bd58159dc138b45a662aa748047eb9e",
  "version": 2,
  "locktime": 834637,
  "vin": [
    {
      "txid": "53dce74fdd2e3aff6c5738ed520c01530e3c239693eccd248675002765aaa721",
      "vout": 0,
      "prevout": {
        "scriptpubkey": "00144ecefd0c2238df0ed721fbd921ac6386b6d63afc",
        "scriptpubkey_asm": "OP_0 OP_PUSHBYTES_20 4ecefd0c2238df0ed721fbd921ac6386b6d63afc",
        "scriptpubkey_type": "v0_p2wpkh",
        "scriptpubkey_address": "bc1qfm806rpz8r0sa4epl0vjrtrrs6mdvwhuzjpaqp",
        "value": 786594364
      },
      "scriptsig": "",
      "scriptsig_asm": "",
      "witness": [
        "3044022035b7397fadd80156866260d1167b2ca7d54aad4dd2f7900a75ddcf816f30de9e022062682c51c31ada138affbc2aa67a2270c14da12b0cbffe7faca394d1c3f0dc1101",
        "02a5dd84b474564de7c8fa82b342610be05acb9532d55bf46a7a952a45e83e446e"
      ],
      "is_coinbase": false,
      "sequence": 4294967294
    }
  ],
  "vout": [
    {
      "scriptpubkey": "001401a22e7b63bbd3755e1c3b7b5a3781b3be7f1443",
      "scriptpubkey_asm": "OP_0 OP_PUSHBYTES_20 01a22e7b63bbd3755e1c3b7b5a3781b3be7f1443",
      "scriptpubkey_type": "v0_p2wpkh",
      "scriptpubkey_address": "bc1qqx3zu7mrh0fh2hsu8da45dupkwl879zrjcxugm",
      "value": 783149584
    },
    {
      "scriptpubkey": "a9147300622c46a9f4047fe42399b8e5e311943b730187",
      "scriptpubkey_asm": "OP_HASH160 OP_PUSHBYTES_20 7300622c46a9f4047fe42399b8e5e311943b7301 OP_EQUAL",
      "scriptpubkey_type": "p2sh",
      "scriptpubkey_address": "3CB66FRUhAfBKGTsE98UcS1daDqQiAm1ci",
      "value": 3441300
    }
  ],
  "size": 223,
  "weight": 565,
  "fee": 3480,
  "status": {
    "confirmed": true,
    "block_height": 834638,
    "block_hash": "000000000000000000025f742c626208ac87e0b7d15054abb4a19ca2d735a54e",
    "block_time": 1710405325
  },
  "hex": "0200000000010121a7aa652700758624cdec9396233c0e53010c52ed38576cff3a2edd4fe7dc530000000000feffffff0210eaad2e0000000016001401a22e7b63bbd3755e1c3b7b5a3781b3be7f1443948234000000000017a9147300622c46a9f4047fe42399b8e5e311943b73018702473044022035b7397fadd80156866260d1167b2ca7d54aad4dd2f7900a75ddcf816f30de9e022062682c51c31ada138affbc2aa67a2270c14da12b0cbffe7faca394d1c3f0dc11012102a5dd84b474564de7c8fa82b342610be05acb9532d55bf46a7a952a45e83e446e4dbc0c00"
}