{
  "txid": "3e6b78c462057f8c89c2e54adbc2be1f11536e5889d97b15d465a2b708cf7033",
  "version": 2,
  "locktime": 0,
  "vin": [
    {
      "txid": "d130a206afd1674ed12c6e11c8e0f7cbab785f22265505e864dd22116b11fa1e",
      "vout": 0,
      "prevout": {
        "scriptpubkey": "512021e4fb04e2ed7ca1aa78e44e374fd14b20feeaa11538a7eecdddefbc9bdca99d",
        "scriptpubkey_asm": "OP_PUSHNUM_1 OP_PUSHBYTES_32 21e4fb04e2ed7ca1aa78e44e374fd14b20feeaa11538a7eecdddefbc9bdca99d",
        "scriptpubkey_type": "v1_p2tr",
        "scriptpubkey_address": "bc1py8j0kp8za472r2ncu38rwn73fvs0a64pz5u20mkdmhhmex7u4xwsqz72xn",
        "value": 12958
      },
      "scriptsig": "",
      "scriptsig_asm": "",
      "witness": [
        "d3269b45ad8dfc7c7a3a1b99691124c76d3c6ef262ae66fabc9f1963be063bfc4c406a30b25ce0086f198af90b8d08105380bfc86a6ef4e309393707cca3badf",
        "204d34d8327edc2b3ca2918767814adc8630299ec9e7b717f797dcf6da85841da0ac0063036f7264010109696d6167652f706e67004d080289504e470d0a1a0a0000000d4948445200000200000002000803000000c3a624c80000000467414d410000b18f0bfc610500000180504c54455f41438164226f500cc904051260804130220e496b22934605060f289646160d3c2c2b2b16150e0607098236430815370e4a68270f001009070a37582115040c0d29040a1688af99887f6d86898dffcc4223a800f2c87abed893259800259a006f4c00bab9b3881301670800443101bfd8931b02f6b74100febe1ec18002f5e8c13f0200d39800ccdf914b4b47ffeba80e0e0ea373008761013094a5ffed99f4a701b1d2951883a2bed793d75d00238fa7361b0071b49d4aa1a20401ffe57e000902ff662504e26100ef8e00ffbc00f143a3e5ea8ed00000fe5c0d030302c9ff01bdd793269900d8e490cbde91459fa2afd195faf58b1413452e29291115442c054ca3cc9796c6982409490e17431881a0092c500a3155f8f8f716729208274c87be9a0d40630c3b5e6db29d1d8ca81677960b365a2a92a61986a4061d42156d8d0722470d4568177c9b0f090a7bb89c0e4a6c3898a453a5a118104660ab9f1e0d47146888125e7f08194113638410597a0000000f50720b0b0b909090383839de4434560000001774524e53e3bff1f6f5d7f8c1d2c1e1f7e9ecc1dce4fee8eff6c4c39a0909ea00000d8f4944415478daedddf7b32455190660138a20a204cb9c150992041190b40b8201099277dd4d08027581852527175c04f9d7edcf3ac79a3ad5673a4c4fcfccede7fde9a69d70df67abbace3d7dbecf3db161fe50c9a345fe5ae4cf953c5ee49922cf16f94725ef1479a9c83f2b79bfc86329ef1579b592978b9c2bf24291b72a395be45491d72bf9b0c885221f15f91c0000000000000000000000000000000000cc58fce395cc55fcfb95f42dfee54ae62afec34aba8aff380500000000000000000000000000000000008614ff68257315ff4e258752fcd94ab65d3c0000000000000000000000000000000000eca2f8672a99abf8c78a0c2dfe5c2573157fa192aee23f4901000000000000000000000000000000000000000000000000000000000000000000000060990086def85116ffbb946d15ff5225630f7ec8f96aca5f52fed433438b3f55c9b68b0700000000000000000000000000000000805d14ff6c25fb52fc5000397315ff51255dc50300000000000000000000000000000000c098e2cb0d1f73173fd5e0875af19b42986bf0c3d0e2df4d01000000000000000000000000000000605900963ef8b16ff143213c54645bc57f5c4957f10000000000000000000000000000000000d056fcaf5372f13f48c985ffb6c8a10d7efc4aca5c00b635f8a10b4059fc9b29000000000000000000000000000000002c0b40edc0c7b2f85fa494c56f6bf0e3ef53b63df8b12f801fa5fc30e57b295dc5e7ec5bf100000000000000000000004d080200000000000030a6f8a9073e0c2d7ed3810f6317821e4e79a867a63ef071e8c68fb2f83329000000000000000000000000000000002c1bc0ae063fec6af0e3d7531e1e997b8bcc05e0938e0000000000000000000000000000000000401b80a33af8b1abf873295303b83fe5972919c0be150f00000000000000000000000000000000004761f063dfe2735e48190ae1de8e6408730d7e185afc8b29000000000000000000000000000000002c0bc05119fc38b6f83219c21753cae2f3024f5974997d2f1e00000000000000000000000000000000000e71f0e3a6c5bf5549b930747fcfcc3df8f1cd4aba8a7f2505000000000000000000000000000000806501d8f6e0c7b1831fee4919bae1a356fc1d295dc59f2d72aac8be0e7e185a3c00000000000000000000000000000000cb04b06f831f6bc5ff2625177f57caa6c59fade4508a3f534957f1275300000000000000606900fe96f2e98e0300000000000000bb02b0ebc18ff714195afcb94aba2efef605c054073e0e2d1e00000000000000000000000000000000000e71f0630d40d70d20000000000000000000000000000000000000c0e10d7e6c2b7e48b9ffd971fed8924d0e7eec5bfc8914000000000000000000000000000000009605e0a80c7e5ccd5100b0ede20100000000000000000000000000000000e050073fd60aef53c06733a7cf6b7abb257d377cf42dfe740a00004d08020000000000000000000000000000cb027014063f2e01c0d4c50300000000000000000000000000000000c01c831f6b073f761d00b9eee0c72501e82abc6ff16fa400000000000000c026007201ff2eb20a20ffcccd458602a83d5764d7e54e050200000000000000e60030c5e0875a29ab177f350043073f2e15c0d4c50300000000000000000000000000000000c0d8c18feb00e43ffed4000c1dfcb854008f8c4cadf8d75200000000000000a02f802105b401287fa6ede0a6b1003e3bc000000000000000c0be00e8ba01642880bcf9732880dae0c75d03289ff3818e4cbd10d4b5f0d3770108000000000000000000000000000000806502183af8610880d5831f8600682bfe50003cb2a7298b0700000000000000000000000000000000803e9b4073016d030fc70c4e6c2bb2adf8b329eb9eff282f04f5bdf1a36be127e75f29000000000000000000000000000000002c0bc0d0c10f7300682b7e5f0174652a0053170f00000000000000000000000000000000007d063f0ed910b20980b2f85329fbb621646e005d85f72d1e000000000000000000000000000000806502e81afe0cc0d104f07c0a00000000000000000000000000000000cb06502bbe1cfcb04d006dc5ef0b80a9d317c0d4c503000000000000c05000f9d0a7bb5262e073ad94b637576ee4acdd04fa7f0095c7feec8804000000000000007605e09e22438a8fc470874d08024d009cada4bcea03a0df8d1f7d8b070000000000000000000000000000006099001e2bf25e91578bbc5c646a00e51f7f5e07e07f195b7c0dc05329000000000000000000000000000000002c0bc07b95f4293e2703280740f679c39ff6ccbe15f7f72d661d80be8577150f0000000000000000000000000000000000438b8fc4904700b60f60eae29f4c010000000000000000000000000000006059005eada44ff16d89431ef6e520a73ebfecbe8f55829c63d1671b0b3f4f160100000000000000000000000000000060d9008616ff564b00d81cc0d81b3efa16ff410a00000000000000000000000000000000cb027057911a803b5200d83d80ab533e9f121f03000000000000c03e00681bfe54db38baebb495dd564a79b8d5db237271936f4d90fc9fe9c194783d000000000000003014c0cb958c59006a1dfc580c7d5e32805cde8d4d7e52496da0764e3cf70d2977a75cde6468f10000000000000000c0f60144f19735f94293db537eb526f1fd1b8adcbe929f3689c7bd2c65ccc51f000000000000006c5a7ce7e0c70503b8a2495efc898bb55b9ae4c59b6b9bfcacc8034da2ecf8b9d50bbf78ace34dee6b12ffeee294b6c2fb160f00000000000000730178bdc887955c28f251918f8b7cd291775386003cd3e4c522afa4e4c7692bfc6493132bc90b3fb736c9c5e782e38270c81f80ae4f89c75b77d107000000000000007d019cab4d080264aee22f543255f16300b415df07402e3e6fdabca849941f176e19407c1e2546a943063f5ebd925c7cc631a6780000000000000000607a00f9e26f75e1272ffec482502ce2c4268eb1c39ff342505e28ca9f03000000000000c0260086167faa927d29fecd94a100cae24fa6740138dda40d407c1c3f535e008e39f831177f5d934075734ade20724993aee2cfa700000000000000c0a101f8f2c05c9a72598f5cb926f971ae6849141b8062c348fe23d0134de220886f37c9e55fbe6102525c4cc6069178eceb52e28693d8d0128b455d080000000000000060dde087298bff5293f8e57ead47e297795525f1fd4b57129f5fb526970ec89883a87ede9228274afa7193ef378992e2a6cf1b47a6bc41346e0cb9b34900b8ad496c188d1b46e2796e6a12ef3b7eae0dc2f92200000000000000300780b8387ab047ae69126fa8fc7abce9f885de9412173edf6d527b9cf8de4d0373db80c4cfc7cd9ce5f346317903e7779ac4eb1cf2b84f14b9b5c83529f13cb9fc78def8ddc4c771c119cf1b1b4ff326920c01000000000000006a008616ff7a25e5c24f06703c255ef0f196c41b587d73e5d703c1f135c987281c9f30f15af2ebbdaf48dbcfc7ebcc00e2e22f4a6cfbb77dd3f67a22c79adc99129f670871319831c40569be203cdf1200000000000000980bc0b1947823c72ac90b1d6d5f8f5feeb13559fde54c993e8f995ff32a80b8688b0b4d0802c578bf776e29197dbe088d05aa6f368905a17c0178be12000000000000960b60e8818f438bcf1b3d0240fc42eeee9178f1b5afd7be57fecc26b96a64e2dfae1e2ab57a30447cbc7a78d42689ff0871a854b958766d4afe83dabae201000000000000602e00916f6c21574e9c93454e14395de48d95c40557dca4191b5fcac3a1560f86888d9d9b0c7f8ef2e3b1f2c5df2d297933eaea261000000000000000d807007d6efce8ba09b476f3679933456a073fd66e021d0320a7ed80c87c384446f07c47d601c89b4363d36986951fb7dc080a0000000000000000ec16403e283a6e1c890bc57ce0e3180079a3672e3e7fbeee265000000000000000e802b0abc10fbb2afe6425638a8fc4c14fb1d0930f8b8ec2cbc3a2d65d08d68abf7825b9dc4b52c614ff5c0a0000000000000000301d809c40107fa089059b0c200f868e0bc42873dd2119ab0757e54d20b1a1645df100000000000000d017c0a10c7eac157fa692b98a7fad9272e05309210eafb8ae9238782290e48dae7121b9baa0149b4ffb1e02552b1e00000000000000009807402cfcc4c2506c0ca91d0411dfbba547e2e6d3c03466132800000000000000d400ecfbf0a7a98b3f51c914c597c39ff2c5e0f595e48bbbae940747d60e805a573c0000000000000000301f80bc5164d36408796128ff81080000000000000086003894e1cf7d377ccc5dfc98e1cfb51b3e56b36eb347de4d4f01107251cabaf29feb080000000000000000703800fafcd107000000000000008602d8f4c087a1c5bf5bc95cc59faee4a817ff740a00000000000000000000000000000000cb0230d5818fbb2a7eaa031f7755fc073d3375f1000000000000000000000000000000000060e0c3f0e2c70c7c98b2f8e77ae6e94a000000000000000000000000000000000000000000000000000000000000000000000000389a000c7e5c66f1000000000000000000000000000000000060f0e3f0e29faa64df8b070000000000000000000000000000006099000c7edc6df1531dfc30b478000000000000000000000000000000000030f8f170073f8c0d00000000000000000000000000000000cb0260f0e3328b070000000000000000000000000000000000831f0f6ff02300000000000000000000000000000000000cc87f01527c9c4a0d4d417a0000000049454e44ae42608268",
        "c14d34d8327edc2b3ca2918767814adc8630299ec9e7b717f797dcf6da85841da0"
      ],
      "is_coinbase": false,
      "sequence": 4294967293
    }
  ],
  "vout": [
    {
      "scriptpubkey": "51208e31f5a1e6bf524345103dcf1fc4d40da2a0ff0f48dd2d75c33629989aac93b2",
      "scriptpubkey_asm": "OP_PUSHNUM_1 OP_PUSHBYTES_32 8e31f5a1e6bf524345103dcf1fc4d40da2a0ff0f48dd2d75c33629989aac93b2",
      "scriptpubkey_type": "v1_p2tr",
      "scriptpubkey_address": "bc1p3ccltg0xhafyx3gs8h83l3x5pk32plc0frwj6awrxc5e3x4vjweqmaen8l",
      "value": 550
    }
  ],
  "size": 4252,
  "weight": 4534,
  "fee": 12408,
  "status": {
    "confirmed": true,
    "block_height": 834464,
    "block_hash": "0000000000000000000177a0869a911a2b65c9bdcd5a8bcb02b68f305bee848e",
    "block_time": 1710308296
  },
  "hex": "020000000001011efa116b1122dd64e8055526225f78abcbf7e0c8116e2cd14e67d1af06a230d10000000000fdffffff0126020000000000002251208e31f5a1e6bf524345103dcf1fc4d40da2a0ff0f48dd2d75c33629989aac93b20340d3269b45ad8dfc7c7a3a1b99691124c76d3c6ef262ae66fabc9f1963be063bfc4c406a30b25ce0086f198af90b8d08105380bfc86a6ef4e309393707cca3badffdd50f204d34d8327edc2b3ca2918767814adc8630299ec9e7b717f797dcf6da85841da0ac0063036f7264010109696d6167652f706e67004d080289504e470d0a1a0a0000000d4948445200000200000002000803000000c3a624c80000000467414d410000b18f0bfc610500000180504c54455f41438164226f500cc904051260804130220e496b22934605060f289646160d3c2c2b2b16150e0607098236430815370e4a68270f001009070a37582115040c0d29040a1688af99887f6d86898dffcc4223a800f2c87abed893259800259a006f4c00bab9b3881301670800443101bfd8931b02f6b74100febe1ec18002f5e8c13f0200d39800ccdf914b4b47ffeba80e0e0ea373008761013094a5ffed99f4a701b1d2951883a2bed793d75d00238fa7361b0071b49d4aa1a20401ffe57e000902ff662504e26100ef8e00ffbc00f143a3e5ea8ed00000fe5c0d030302c9ff01bdd793269900d8e490cbde91459fa2afd195faf58b1413452e29291115442c054ca3cc9796c6982409490e17431881a0092c500a3155f8f8f716729208274c87be9a0d40630c3b5e6db29d1d8ca81677960b365a2a92a61986a4061d42156d8d0722470d4568177c9b0f090a7bb89c0e4a6c3898a453a5a118104660ab9f1e0d47146888125e7f08194113638410597a0000000f50720b0b0b909090383839de4434560000001774524e53e3bff1f6f5d7f8c1d2c1e1f7e9ecc1dce4fee8eff6c4c39a0909ea00000d8f4944415478daedddf7b32455190660138a20a204cb9c150992041190b40b8201099277dd4d08027581852527175c04f9d7edcf3ac79a3ad5673a4c4fcfccede7fde9a69d70df67abbace3d7dbecf3db161fe50c9a345fe5ae4cf953c5ee49922cf16f94725ef1479a9c83f2b79bfc86329ef1579b592978b9c2bf24291b72a395be45491d72bf9b0c885221f15f91c0000000000000000000000000000000000cc58fce395cc55fcfb95f42dfee54ae62afec34aba8aff380500000000000000000000000000000000008614ff68257315ff4e258752fcd94ab65d3c0000000000000000000000000000000000eca2f8672a99abf8c78a0c2dfe5c2573157fa192aee23f4901000000000000000000000000000000000000000000000000000000000000000000000060990086def85116ffbb946d15ff5225630f7ec8f96aca5f52fed433438b3f55c9b68b0700000000000000000000000000000000805d14ff6c25fb52fc5000397315ff51255dc50300000000000000000000000000000000c098e2cb0d1f73173fd5e0875af19b42986bf0c3d0e2df4d01000000000000000000000000000000605900963ef8b16ff143213c54645bc57f5c4957f10000000000000000000000000000000000d056fcaf5372f13f48c985ffb6c8a10d7efc4aca5c00b635f8a10b4059fc9b29000000000000000000000000000000002c0b40edc0c7b2f85fa494c56f6bf0e3ef53b63df8b12f801fa5fc30e57b295dc5e7ec5bf100000000000000000000004d080200000000000030a6f8a9073e0c2d7ed3810f6317821e4e79a867a63ef071e8c68fb2f83329000000000000000000000000000000002c1bc0ae063fec6af0e3d7531e1e997b8bcc05e0938e0000000000000000000000000000000000401b80a33af8b1abf873295303b83fe5972919c0be150f00000000000000000000000000000000004761f063dfe2735e48190ae1de8e6408730d7e185afc8b29000000000000000000000000000000002c0bc05119fc38b6f83219c21753cae2f3024f5974997d2f1e00000000000000000000000000000000000e71f0e3a6c5bf5549b930747fcfcc3df8f1cd4aba8a7f2505000000000000000000000000000000806501d8f6e0c7b1831fee4919bae1a356fc1d295dc59f2d72aac8be0e7e185a3c00000000000000000000000000000000cb04b06f831f6bc5ff2625177f57caa6c59fade4508a3f534957f1275300000000000000606900fe96f2e98e0300000000000000bb02b0ebc18ff714195afcb94aba2efef605c054073e0e2d1e00000000000000000000000000000000000e71f0630d40d70d20000000000000000000000000000000000000c0e10d7e6c2b7e48b9ffd971fed8924d0e7eec5bfc8914000000000000000000000000000000009605e0a80c7e5ccd5100b0ede20100000000000000000000000000000000e050073fd60aef53c06733a7cf6b7abb257d377cf42dfe740a00004d08020000000000000000000000000000cb027014063f2e01c0d4c50300000000000000000000000000000000c01c831f6b073f761d00b9eee0c72501e82abc6ff16fa400000000000000c026007201ff2eb20a20ffcccd458602a83d5764d7e54e050200000000000000e60030c5e0875a29ab177f350043073f2e15c0d4c50300000000000000000000000000000000c0d8c18feb00e43ffed4000c1dfcb854008f8c4cadf8d75200000000000000a02f802105b401287fa6ede0a6b1003e3bc000000000000000c0be00e8ba01642880bcf9732880dae0c75d03289ff3818e4cbd10d4b5f0d3770108000000000000000000000000000000806502183af8610880d5831f8600682bfe50003cb2a7298b0700000000000000000000000000000000803e9b4073016d030fc70c4e6c2bb2adf8b329eb9eff282f04f5bdf1a36be127e75f29000000000000000000000000000000002c0bc0d0c10f7300682b7e5f0174652a0053170f00000000000000000000000000000000007d063f0ed910b20980b2f85329fbb621646e005d85f72d1e000000000000000000000000000000806502e81afe0cc0d104f07c0a00000000000000000000000000000000cb06502bbe1cfcb04d006dc5ef0b80a9d317c0d4c503000000000000c05000f9d0a7bb5262e073ad94b637576ee4acdd04fa7f0095c7feec8804000000000000007605e09e22438a8fc470874d08024d009cada4bcea03a0df8d1f7d8b070000000000000000000000000000006099001e2bf25e91578bbc5c646a00e51f7f5e07e07f195b7c0dc05329000000000000000000000000000000002c0bc07b95f4293e2703280740f679c39ff6ccbe15f7f72d661d80be8577150f0000000000000000000000000000000000438b8fc4904700b60f60eae29f4c010000000000000000000000000000006059005eada44ff16d89431ef6e520a73ebfecbe8f55829c63d1671b0b3f4f160100000000000000000000000000000060d9008616ff564b00d81cc0d81b3efa16ff410a00000000000000000000000000000000cb027057911a803b5200d83d80ab533e9f121f03000000000000c03e00681bfe54db38baebb495dd564a79b8d5db237271936f4d90fc9fe9c194783d000000000000003014c0cb958c59006a1dfc580c7d5e32805cde8d4d7e52496da0764e3cf70d2977a75cde6468f10000000000000000c0f60144f19735f94293db537eb526f1fd1b8adcbe929f3689c7bd2c65ccc51f000000000000006c5a7ce7e0c70503b8a2495efc898bb55b9ae4c59b6b9bfcacc8034da2ecf8b9d50bbf78ace34dee6b12ffeee294b6c2fb160f00000000000000730178bdc887955c28f251918f8b7cd291775386003cd3e4c522afa4e4c7692bfc6493132bc90b3fb736c9c5e782e38270c81f80ae4f89c75b77d107000000000000007d019cab4d080264aee22f543255f16300b415df07402e3e6fdabca849941f176e19407c1e2546a943063f5ebd925c7cc631a6780000000000000000607a00f9e26f75e1272ffec482502ce2c4268eb1c39ff342505e28ca9f03000000000000c0260086167faa927d29fecd94a100cae24fa6740138dda40d407c1c3f535e008e39f831177f5d934075734ade20724993aee2cfa700000000000000c0a101f8f2c05c9a72598f5cb926f971ae6849141b8062c348fe23d0134de220886f37c9e55fbe6102525c4cc6069178eceb52e28693d8d0128b455d080000000000000060dde087298bff5293f8e57ead47e297795525f1fd4b57129f5fb526970ec89883a87ede9228274afa7193ef378992e2a6cf1b47a6bc41346e0cb9b34900b8ad496c188d1b46e2796e6a12ef3b7eae0dc2f92200000000000000300780b8387ab047ae69126fa8fc7abce9f885de9412173edf6d527b9cf8de4d0373db80c4cfc7cd9ce5f346317903e7779ac4eb1cf2b84f14b9b5c83529f13cb9fc78def8ddc4c771c119cf1b1b4ff326920c01000000000000006a008616ff7a25e5c24f06703c255ef0f196c41b587d73e5d703c1f135c987281c9f30f15af2ebbdaf48dbcfc7ebcc00e2e22f4a6cfbb77dd3f67a22c79adc99129f670871319831c40569be203cdf1200000000000000980bc0b1947823c72ac90b1d6d5f8f5feeb13559fde54c993e8f995ff32a80b8688b0b4d0802c578bf776e29197dbe088d05aa6f368905a17c0178be12000000000000960b60e8818f438bcf1b3d0240fc42eeee9178f1b5afd7be57fecc26b96a64e2dfae1e2ab57a30447cbc7a78d42689ff0871a854b958766d4afe83dabae201000000000000602e00916f6c21574e9c93454e14395de48d95c40557dca4191b5fcac3a1560f86888d9d9b0c7f8ef2e3b1f2c5df2d297933eaea261000000000000000d807007d6efce8ba09b476f3679933456a073fd66e021d0320a7ed80c87c384446f07c47d601c89b4363d36986951fb7dc080a0000000000000000ec16403e283a6e1c890bc57ce0e3180079a3672e3e7fbeee265000000000000000e802b0abc10fbb2afe6425638a8fc4c14fb1d0930f8b8ec2cbc3a2d65d08d68abf7825b9dc4b52c614ff5c0a0000000000000000301d809c40107fa089059b0c200f868e0bc42873dd2119ab0757e54d20b1a1645df100000000000000d017c0a10c7eac157fa692b98a7fad9272e05309210eafb8ae9238782290e48dae7121b9baa0149b4ffb1e02552b1e00000000000000009807402cfcc4c2506c0ca91d0411dfbba547e2e6d3c03466132800000000000000d400ecfbf0a7a98b3f51c914c597c39ff2c5e0f595e48bbbae940747d60e805a573c0000000000000000301f80bc5164d36408796128ff81080000000000000086003894e1cf7d377ccc5dfc98e1cfb51b3e56b36eb347de4d4f01107251cabaf29feb080000000000000000703800fafcd107000000000000008602d8f4c087a1c5bf5bc95cc59faee4a817ff740a00000000000000000000000000000000cb0230d5818fbb2a7eaa031f7755fc073d3375f1000000000000000000000000000000000060e0c3f0e2c70c7c98b2f8e77ae6e94a000000000000000000000000000000000000000000000000000000000000000000000000389a000c7e5c66f1000000000000000000000000000000000060f0e3f0e29faa64df8b070000000000000000000000000000006099000c7edc6df1531dfc30b478000000000000000000000000000000000030f8f170073f8c0d00000000000000000000000000000000cb0260f0e3328b070000000000000000000000000000000000831f0f6ff02300000000000000000000000000000000000cc87f01527c9c4a0d4d417a0000000049454e44ae4260826821c14d34d8327edc2b3ca2918767814adc8630299ec9e7b717f797dcf6da85841da000000000"
}