{
  "txid": "3e784a3eb07caab85420934308adcbcba09a09a7d03faa5c79aa5726866bceee",
  "version": 1,
  "locktime": 0,
  "vin": [
    {
      "txid": "04ca772b4817663df1e62505970a7f3bc9149f1bc2942345eefcc9bdc0763ac5",
      "vout": 1,
      "prevout": {
        "scriptpubkey": "00209bdd76eeeff7d8d009d9c1903fc1937a7f2d77c80c7aafe3ac2acf9e94425027",
        "scriptpubkey_asm": "OP_0 OP_PUSHBYTES_32 9bdd76eeeff7d8d009d9c1903fc1937a7f2d77c80c7aafe3ac2acf9e94425027",
        "scriptpubkey_type": "v0_p2wsh",
        "scriptpubkey_address": "bc1qn0whdmh07lvdqzwecxgrlsvn0flj6a7gp3a2lcav9t8ea9zz2qnsa8l0kr",
        "value": 990695
      },
      "scriptsig": "",
      "scriptsig_asm": "",
      "witness": [
        "",
        "30440220099ab618ee8536f8fd0b3f6c047e1d14b9ef35e5a97894e2c8397153114c4bda02207b8077fa07dc6bf95924fb1db901f4e1a69114d2c09083cbea44cf48e582790301",
        "304402205f6dcb521546e4bfbf4c2226d5b044a62a04aa7fba81ef3e1d5c767037e4b25e0220463242e8acf9ec6118b002fb695adad4dfbcda070ecee483b01a430754c3628201",
        "522103a3d2c40efc36687fccd8af0f1277299cc2eccb10364f2caad2a30b758b98339021023a5f47d8e9b85ed09144da04961c4eb1507b321f00521d4f8cb3b88e333fc6192102505d30b8efea36485defd4938e414ff81a41ccacf4e611ea6ef4d97082199b4853ae"
      ],
      "is_coinbase": false,
      "sequence": 4294967293,
      "inner_witnessscript_asm": "OP_PUSHNUM_2 OP_PUSHBYTES_33 03a3d2c40efc36687fccd8af0f1277299cc2eccb10364f2caad2a30b758b983390 OP_PUSHBYTES_33 023a5f47d8e9b85ed09144da04961c4eb1507b321f00521d4f8cb3b88e333fc619 OP_PUSHBYTES_33 02505d30b8efea36485defd4938e414ff81a41ccacf4e611ea6ef4d97082199b48 OP_PUSHNUM_3 OP_CHECKMULTISIG"
    },
    {
      "txid": "c049298c36c33284aaeef06f4d328e08a6914233ecf3578e0f05353131609dc5",
      "vout": 10,
      "prevout": {
        "scriptpubkey": "a914c5a5b0baad30a7c2818dd752378d7a15348403e687",
        "scriptpubkey_asm": "OP_HASH160 OP_PUSHBYTES_20 c5a5b0baad30a7c2818dd752378d7a15348403e6 OP_EQUAL",
        "scriptpubkey_type": "p2sh",
        "scriptpubkey_address": "3Ki5XheNrcTVeWJeXwfEoe8Wh8K6jp2Cdj",
        "value": 9897006
      },
      "scriptsig": "220020c021c48e7337315ffa7fcd5bb94c4c083bad627969b983b6411992dd6ff7644c",
      "scriptsig_asm": "OP_PUSHBYTES_34 0020c021c48e7337315ffa7fcd5bb94c4c083bad627969b983b6411992dd6ff7644c",
      "witness": [
        "",
        "3045022100e7b51b0c285924fd6196a011ece1119b0e8879c44f8770d10600c0042e5b74be022015c77966c10c3fcf9485958618426ef040e767c32af172ac6ca27699d620797301",
        "30440220526527e47b875132a65e2dffb0f8abb11355b6f200f2dcefa27b9c7c692acc68022071a2cb20d26a24cd044fb881711d2177e427767c6eae8d46801bdec51387ad8e01",
        "522102b756eddf73319b11f957d1bd1eb4febcfe8a8e3f8e2c72d9dd06a27c48b3f09d21025e1c07dafad446d33c9c96de395fd1f65d1a7c791a8cc44cbc153896d72a1f1f2103af777f6d1c28f25fb464bbb38bfc0b1031d3f5b68a0475d85974bf447f3d36a453ae"
      ],
      "is_coinbase": false,
      "sequence": 4294967293,
      "inner_redeemscript_asm": "OP_0 OP_PUSHBYTES_32 c021c48e7337315ffa7fcd5bb94c4c083bad627969b983b6411992dd6ff7644c",
      "inner_witnessscript_asm": "OP_PUSHNUM_2 OP_PUSHBYTES_33 02b756eddf73319b11f957d1bd1eb4febcfe8a8e3f8e2c72d9dd06a27c48b3f09d OP_PUSHBYTES_33 025e1c07dafad446d33c9c96de395fd1f65d1a7c791a8cc44cbc153896d72a1f1f OP_PUSHBYTES_33 03af777f6d1c28f25fb464bbb38bfc0b1031d3f5b68a0475d85974bf447f3d36a4 OP_PUSHNUM_3 OP_CHECKMULTISIG"
    }
  ],
  "vout": [
    {
      "scriptpubkey": "5120eff1b02e56475923a2a1f16c81f47ba9d0cd1318f30ecbc1432399fa9874025c",
      "scriptpubkey_asm": "OP_PUSHNUM_1 OP_PUSHBYTES_32 eff1b02e56475923a2a1f16c81f47ba9d0cd1318f30ecbc1432399fa9874025c",
      "scriptpubkey_type": "v1_p2tr",
      "scriptpubkey_address": "bc1palcmqtjkgavj8g4p79kgrarm48gv6ycc7v8vhs2rywvl4xr5qfwq50uug0",
      "value": 27133
    },
    {
      "scriptpubkey": "0014280c7cdb3062bb1fbbecc333acc5870832705365",
      "scriptpubkey_asm": "OP_0 OP_PUSHBYTES_20 280c7cdb3062bb1fbbecc333acc5870832705365",
      "scriptpubkey_type": "v0_p2wpkh",
      "scriptpubkey_address": "bc1q9qx8ekesv2a3lwlvcve6e3v8pqe8q5m9yn96fz",
      "value": 10853387
    }
  ],
  "size": 708,
  "weight": 1311,
  "fee": 7181,
  "status": {
    "confirmed": true,
    "block_height": 834638,
    "block_hash": "000000000000000000025f742c626208ac87e0b7d15054abb4a19ca2d735a54e",
    "block_time": 1710405325
  },
  "hex": "01000000000102c53a76c0bdc9fcee452394c21b9f14c93b7f0a970525e6f13d6617482b77ca040100000000fdffffffc59d60313135050f8e57f3ec334291a6088e324d6ff0eeaa8432c3368c2949c00a00000023220020c021c48e7337315ffa7fcd5bb94c4c083bad627969b983b6411992dd6ff7644cfdffffff02fd69000000000000225120eff1b02e56475923a2a1f16c81f47ba9d0cd1318f30ecbc1432399fa9874025c0b9ca50000000000160014280c7cdb3062bb1fbbecc333acc587083270536504004730440220099ab618ee8536f8fd0b3f6c047e1d14b9ef35e5a97894e2c8397153114c4bda02207b8077fa07dc6bf95924fb1db901f4e1a69114d2c09083cbea44cf48e58279030147304402205f6dcb521546e4bfbf4c2226d5b044a62a04aa7fba81ef3e1d5c767037e4b25e0220463242e8acf9ec6118b002fb695adad4dfbcda070ecee483b01a430754c362820169522103a3d2c40efc36687fccd8af0f1277299cc2eccb10364f2caad2a30b758b98339021023a5f47d8e9b85ed09144da04961c4eb1507b321f00521d4f8cb3b88e333fc6192102505d30b8efea36485defd4938e414ff81a41ccacf4e611ea6ef4d97082199b4853ae0400483045022100e7b51b0c285924fd6196a011ece1119b0e8879c44f8770d10600c0042e5b74be022015c77966c10c3fcf9485958618426ef040e767c32af172ac6ca27699d6207973014730440220526527e47b875132a65e2dffb0f8abb11355b6f200f2dcefa27b9c7c692acc68022071a2cb20d26a24cd044fb881711d2177e427767c6eae8d46801bdec51387ad8e0169522102b756eddf73319b11f957d1bd1eb4febcfe8a8e3f8e2c72d9dd06a27c48b3f09d21025e1c07dafad446d33c9c96de395fd1f65d1a7c791a8cc44cbc153896d72a1f1f2103af777f6d1c28f25fb464bbb38bfc0b1031d3f5b68a0475d85974bf447f3d36a453ae00000000"
}