{
  "txid": "3e89c69a29ca3485dad7d4a8d975be9507a2305e798f845febf3c90ee5b79fe5",
  "version": 1,
  "locktime": 0,
  "vin": [
    {
      "txid": "b47bb720e5e1c4564e0387de9544411afc61a780e3f7158d759313e5ca149511",
      "vout": 3,
      "prevout": {
        "scriptpubkey": "0014fc5f8e5fcdd7cf0a0fac1886dc357637a79863f9",
        "scriptpubkey_asm": "OP_0 OP_PUSHBYTES_20 fc5f8e5fcdd7cf0a0fac1886dc357637a79863f9",
        "scriptpubkey_type": "v0_p2wpkh",
        "scriptpubkey_address": "bc1ql30cuh7d6l8s5ravrzrdcdtkx7nescleqadj0v",
        "value": 40489209
      },
      "scriptsig": "",
      "scriptsig_asm": "",
      "witness": [
        "304402200ac4df048458ecb41e9aba5c89176ece806713d1a25706728509a3dbd4d18d4f02207db64139f24ec25b6eec15700e5792fcf6927511bf98538fc341dd03ccb776ad01",
        "02330457d20f618075e09174a9764940b62e8b9deef70eac5f54ce477da7a85042"
      ],
      "is_coinbase": false,
      "sequence": 4294967295
    }
  ],
  "vout": [
    {
      "scriptpubkey": "002080720a1d6c4c67883f0f04bff780a231addaca800147897d85333d0944ca6414",
      "scriptpubkey_asm": "OP_0 OP_PUSHBYTES_32 80720a1d6c4c67883f0f04bff780a231addaca800147897d85333d0944ca6414",
      "scriptpubkey_type": "v0_p2wsh",
      "scriptpubkey_address": "bc1qspeq58tvf3ncs0c0qjll0q9zxxka4j5qq9rcjlv9xv7sj3x2vs2qmqs6xt",
      "value": 86389
    },
    {
      "scriptpubkey": "0014d83dcb2e93c1b3a942dca46d26859da23c0bc405",
      "scriptpubkey_asm": "OP_0 OP_PUSHBYTES_20 d83dcb2e93c1b3a942dca46d26859da23c0bc405",
      "scriptpubkey_type": "v0_p2wpkh",
      "scriptpubkey_address": "bc1qmq7ukt5ncxe6jsku53kjdpva5g7qh3q9me0q36",
      "value": 33084937
    },
    {
      "scriptpubkey": "76a9141eb3a2fb87b5965f17198a280ad7a4a8446b685988ac",
      "scriptpubkey_asm": "OP_DUP OP_HASH160 OP_PUSHBYTES_20 1eb3a2fb87b5965f17198a280ad7a4a8446b6859 OP_EQUALVERIFY OP_CHECKSIG",
      "scriptpubkey_type": "p2pkh",
      "scriptpubkey_address": "13oLU8SHTSrxWTCcwrE7wnGrV6owUaoMSX",
      "value": 3383774
    },
    {
      "scriptpubkey": "0014d866c3d37dbae2a91dedfbd5bd8dcbee2a991571",
      "scriptpubkey_asm": "OP_0 OP_PUSHBYTES_20 d866c3d37dbae2a91dedfbd5bd8dcbee2a991571",
      "scriptpubkey_type": "v0_p2wpkh",
      "scriptpubkey_address": "bc1qmpnv85maht32j80dl02mmrwtac4fj9t3phk6xv",
      "value": 137621
    },
    {
      "scriptpubkey": "00148d9c6a284c9191b861db806db7de1f9b5a219fc0",
      "scriptpubkey_asm": "OP_0 OP_PUSHBYTES_20 8d9c6a284c9191b861db806db7de1f9b5a219fc0",
      "scriptpubkey_type": "v0_p2wpkh",
      "scriptpubkey_address": "bc1q3kwx52zvjxgmscwmspkm0hslnddzr87qfxdm59",
      "value": 141590
    },
    {
      "scriptpubkey": "a914eb87ec9b20e87a4d1e1f05579070a45ab51f745287",
      "scriptpubkey_asm": "OP_HASH160 OP_PUSHBYTES_20 eb87ec9b20e87a4d1e1f05579070a45ab51f7452 OP_EQUAL",
      "scriptpubkey_type": "p2sh",
      "scriptpubkey_address": "3PAPYogzjGv9JyWqXn2FuneSAW35q4WoGH",
      "value": 88398
    },
    {
      "scriptpubkey": "0020acc6fda5aec46c528e7c08ae5f2d159074f141bbb0021f58cea26b6d4782d4ac",
      "scriptpubkey_asm": "OP_0 OP_PUSHBYTES_32 acc6fda5aec46c528e7c08ae5f2d159074f141bbb0021f58cea26b6d4782d4ac",
      "scriptpubkey_type": "v0_p2wsh",
      "scriptpubkey_address": "bc1q4nr0mfdwc3k99rnupzh97tg4jp60zsdmkqpp7kxw5f4k63uz6jkqy0gzzk",
      "value": 169320
    },
    {
      "scriptpubkey": "a914521f8fb033c82c20ca01c6d857dec0fc635dd6f687",
      "scriptpubkey_asm": "OP_HASH160 OP_PUSHBYTES_20 521f8fb033c82c20ca01c6d857dec0fc635dd6f6 OP_EQUAL",
      "scriptpubkey_type": "p2sh",
      "scriptpubkey_address": "39BF9Bz4X6jcByG1oq4Ud2uZf9iA35AtsB",
      "value": 700465
    },
    {
      "scriptpubkey": "a91479cee5d2f03943ff36c8971dddb23379421dbfd487",
      "scriptpubkey_asm": "OP_HASH160 OP_PUSHBYTES_20 79cee5d2f03943ff36c8971dddb23379421dbfd4 OP_EQUAL",
      "scriptpubkey_type": "p2sh",
      "scriptpubkey_address": "3Co5YGCi9qyCrYpz3qsjyY4ierdm6ewd6L",
      "value": 392818
    },
    {
      "scriptpubkey": "00146b700429380215f5843522dea14ce28cbdb7c111",
      "scriptpubkey_asm": "OP_0 OP_PUSHBYTES_20 6b700429380215f5843522dea14ce28cbdb7c111",
      "scriptpubkey_type": "v0_p2wpkh",
      "scriptpubkey_address": "bc1qddcqg2fcqg2ltpp4yt02zn8z3j7m0sg3e7ttkh",
      "value": 744349
    },
    {
      "scriptpubkey": "00146ab566da391cbb321318bbabf87c746346f06279",
      "scriptpubkey_asm": "OP_0 OP_PUSHBYTES_20 6ab566da391cbb321318bbabf87c746346f06279",
      "scriptpubkey_type": "v0_p2wpkh",
      "scriptpubkey_address": "bc1qd26kdk3erjanyycchw4lslr5vdr0qcnecgpzzd",
      "value": 514162
    },
    {
      "scriptpubkey": "001490ffede1df3fb3559d66832ce5c503cfb7623f5a",
      "scriptpubkey_asm": "OP_0 OP_PUSHBYTES_20 90ffede1df3fb3559d66832ce5c503cfb7623f5a",
      "scriptpubkey_type": "v0_p2wpkh",
      "scriptpubkey_address": "bc1qjrl7mcwl87e4t8txsvkwt3gre7mky066js7vr2",
      "value": 203995
    },
    {
      "scriptpubkey": "0014518b46d096da64ee36c2436591a64599c45b251e",
      "scriptpubkey_asm": "OP_0 OP_PUSHBYTES_20 518b46d096da64ee36c2436591a64599c45b251e",
      "scriptpubkey_type": "v0_p2wpkh",
      "scriptpubkey_address": "bc1q2x95d5ykmfjwudkzgdjerfj9n8z9kfg7k7632w",
      "value": 165420
    },
    {
      "scriptpubkey": "76a91472c1d930bc65bd2a62a17506c37af1dcf7688f4f88ac",
      "scriptpubkey_asm": "OP_DUP OP_HASH160 OP_PUSHBYTES_20 72c1d930bc65bd2a62a17506c37af1dcf7688f4f OP_EQUALVERIFY OP_CHECKSIG",
      "scriptpubkey_type": "p2pkh",
      "scriptpubkey_address": "1BTnFh7bqTNkKBFFFXiTFip5PLKNMR6ApT",
      "value": 302131
    },
    {
      "scriptpubkey": "76a9147a9b7e2546e33feda763604b6b3176577bfcc13688ac",
      "scriptpubkey_asm": "OP_DUP OP_HASH160 OP_PUSHBYTES_20 7a9b7e2546e33feda763604b6b3176577bfcc136 OP_EQUALVERIFY OP_CHECKSIG",
      "scriptpubkey_type": "p2pkh",
      "scriptpubkey_address": "1CBHiEJn8ZuiRAfXoSdNs4hZqj6npnprJN",
      "value": 358184
    }
  ],
  "size": 661,
  "weight": 2317,
  "fee": 15656,
  "status": {
    "confirmed": true,
    "block_height": 834638,
    "block_hash": "000000000000000000025f742c626208ac87e0b7d15054abb4a19ca2d735a54e",
    "block_time": 1710405325
  },
  "hex": "01000000000101119514cae51393758d15f7e380a761fc1a414495de87034e56c4e1e520b77bb40300000000ffffffff0f755101000000000022002080720a1d6c4c67883f0f04bff780a231addaca800147897d85333d0944ca641409d6f80100000000160014d83dcb2e93c1b3a942dca46d26859da23c0bc405dea13300000000001976a9141eb3a2fb87b5965f17198a280ad7a4a8446b685988ac9519020000000000160014d866c3d37dbae2a91dedfbd5bd8dcbee2a99157116290200000000001600148d9c6a284c9191b861db806db7de1f9b5a219fc04e5901000000000017a914eb87ec9b20e87a4d1e1f05579070a45ab51f7452876895020000000000220020acc6fda5aec46c528e7c08ae5f2d159074f141bbb0021f58cea26b6d4782d4ac31b00a000000000017a914521f8fb033c82c20ca01c6d857dec0fc635dd6f68772fe05000000000017a91479cee5d2f03943ff36c8971dddb23379421dbfd4879d5b0b00000000001600146b700429380215f5843522dea14ce28cbdb7c11172d80700000000001600146ab566da391cbb321318bbabf87c746346f06279db1c03000000000016001490ffede1df3fb3559d66832ce5c503cfb7623f5a2c86020000000000160014518b46d096da64ee36c2436591a64599c45b251e339c0400000000001976a91472c1d930bc65bd2a62a17506c37af1dcf7688f4f88ac28770500000000001976a9147a9b7e2546e33feda763604b6b3176577bfcc13688ac0247304402200ac4df048458ecb41e9aba5c89176ece806713d1a25706728509a3dbd4d18d4f02207db64139f24ec25b6eec15700e5792fcf6927511bf98538fc341dd03ccb776ad012102330457d20f618075e09174a9764940b62e8b9deef70eac5f54ce477da7a8504200000000"
}