{
  "txid": "3eb97543d80655f858e0e78ed65444f1061ee7561abfd4f8e59019227c794a44",
  "version": 1,
  "locktime": 0,
  "vin": [
    {
      "txid": "30ee5162a8643cfeda458791782f6d8f1b8bf3ec4ddc3671b59b13bd273bc248",
      "vout": 0,
      "prevout": {
        "scriptpubkey": "51206ac62a37a25b83b7df86b6f230055adba555dc21e9e70a262ef20d64410f93ed",
        "scriptpubkey_asm": "OP_PUSHNUM_1 OP_PUSHBYTES_32 6ac62a37a25b83b7df86b6f230055adba555dc21e9e70a262ef20d64410f93ed",
        "scriptpubkey_type": "v1_p2tr",
        "scriptpubkey_address": "bc1pdtrz5daztwpm0huxkmerqp26mwj4thppa8ns5f3w7gxkgsg0j0ksjyzsk7",
        "value": 10837
      },
      "scriptsig": "",
      "scriptsig_asm": "",
      "witness": [
        "9bf5acd0f90df98778cc708ce393990adefae9f954407f0f46864278d420d793436a44dafeaf7edcb4393398c785140b4cf4a6ffc5688cae96afe3ae578a625d01"
      ],
      "is_coinbase": false,
      "sequence": 4294967295
    },
    {
      "txid": "f28cd0eb0d98b348446ce88deb696ce5d188e4ff7db58e1c3f70154e20fa9f56",
      "vout": 0,
      "prevout": {
        "scriptpubkey": "5120e1b43a225105f863efda0f4ffec3aeba3c57d71f6a3a4723c6060ac219851f75",
        "scriptpubkey_asm": "OP_PUSHNUM_1 OP_PUSHBYTES_32 e1b43a225105f863efda0f4ffec3aeba3c57d71f6a3a4723c6060ac219851f75",
        "scriptpubkey_type": "v1_p2tr",
        "scriptpubkey_address": "bc1pux6r5gj3qhux8m76pa8lasawhg7904cldgaywg7xqc9vyxv9ra6su3un4c",
        "value": 9564
      },
      "scriptsig": "",
      "scriptsig_asm": "",
      "witness": [
        "ebe3129d81cd3c1ff574809d20d16f0f1f6992b77905e5f11167753e60ba166a2beac3c635181a860d7a86d092a3376a0174d2f4955efe76a3f14897c9d6950001"
      ],
      "is_coinbase": false,
      "sequence": 4294967295
    },
    {
      "txid": "a001a42d38a5c8ef8d747be9cbb2e14fae9277965636f078c41eb293434ecd60",
      "vout": 0,
      "prevout": {
        "scriptpubkey": "51203f390a8dbb22e037241a79f94bdc1c32f98bf92c8c1022b8bfac6afc71006693",
        "scriptpubkey_asm": "OP_PUSHNUM_1 OP_PUSHBYTES_32 3f390a8dbb22e037241a79f94bdc1c32f98bf92c8c1022b8bfac6afc71006693",
        "scriptpubkey_type": "v1_p2tr",
        "scriptpubkey_address": "bc1p8uus4rdmytsrwfq608u5hhquxtuch7fv3sgz9w9l4340cugqv6fsea5m0f",
        "value": 5920
      },
      "scriptsig": "",
      "scriptsig_asm": "",
      "witness": [
        "080abca7a99c1fcbd6841d727501cc1bed9eacd8ec6f9013baf00e1ed1c26f16471c15259a057070bdbf397834351efd093a11c3a64226e7cb4a353615eee0a001"
      ],
      "is_coinbase": false,
      "sequence": 4294967295
    }
  ],
  "vout": [
    {
      "scriptpubkey": "5120e12903b593044450f4eba0a664e31f8301acd8c7a89d53e6fc36d28e6ae4ae0c",
      "scriptpubkey_asm": "OP_PUSHNUM_1 OP_PUSHBYTES_32 e12903b593044450f4eba0a664e31f8301acd8c7a89d53e6fc36d28e6ae4ae0c",
      "scriptpubkey_type": "v1_p2tr",
      "scriptpubkey_address": "bc1puy5s8dvnq3z9pa8t5znxfcclsvq6ekx84zw48ehuxmfgu6hy4cxqlm6z4f",
      "value": 3580
    },
    {
      "scriptpubkey": "00145a2194b01a8c2f79623665ffe1876c00d19addca",
      "scriptpubkey_asm": "OP_0 OP_PUSHBYTES_20 5a2194b01a8c2f79623665ffe1876c00d19addca",
      "scriptpubkey_type": "v0_p2wpkh",
      "scriptpubkey_address": "bc1qtgsefvq63shhjc3kvhl7rpmvqrge4hw2y2el0d",
      "value": 19946
    }
  ],
  "size": 410,
  "weight": 1031,
  "fee": 2795,
  "status": {
    "confirmed": true,
    "block_height": 834464,
    "block_hash": "0000000000000000000177a0869a911a2b65c9bdcd5a8bcb02b68f305bee848e",
    "block_time": 1710308296
  },
  "hex": "0100000000010348c23b27bd139bb57136dc4decf38b1b8f6d2f78918745dafe3c64a86251ee300000000000ffffffff569ffa204e15703f1c8eb57dffe488d1e56c69eb8de86c4448b3980debd08cf20000000000ffffffff60cd4e4393b21ec478f03656967792ae4fe1b2cbe97b748defc8a5382da401a00000000000ffffffff02fc0d000000000000225120e12903b593044450f4eba0a664e31f8301acd8c7a89d53e6fc36d28e6ae4ae0cea4d0000000000001600145a2194b01a8c2f79623665ffe1876c00d19addca01419bf5acd0f90df98778cc708ce393990adefae9f954407f0f46864278d420d793436a44dafeaf7edcb4393398c785140b4cf4a6ffc5688cae96afe3ae578a625d010141ebe3129d81cd3c1ff574809d20d16f0f1f6992b77905e5f11167753e60ba166a2beac3c635181a860d7a86d092a3376a0174d2f4955efe76a3f14897c9d69500010141080abca7a99c1fcbd6841d727501cc1bed9eacd8ec6f9013baf00e1ed1c26f16471c15259a057070bdbf397834351efd093a11c3a64226e7cb4a353615eee0a00100000000"
}