{
  "txid": "3ec4396863837402f0637ed078eab5edd7f2d837912110d096bb491f30495284",
  "version": 2,
  "locktime": 834458,
  "vin": [
    {
      "txid": "191c71641176fc29c2c4206100a3a8ac65ca7490eed87cbbbbf9b91d1df49ab2",
      "vout": 4,
      "prevout": {
        "scriptpubkey": "0014292250e43c099899f4f454830e8a5b06bd15c1ce",
        "scriptpubkey_asm": "OP_0 OP_PUSHBYTES_20 292250e43c099899f4f454830e8a5b06bd15c1ce",
        "scriptpubkey_type": "v0_p2wpkh",
        "scriptpubkey_address": "bc1q9y39pepupxvfna852jpsazjmq673tsww6crcze",
        "value": 4606428
      },
      "scriptsig": "",
      "scriptsig_asm": "",
      "witness": [
        "304402205fcefc8a529deb54e3f9b70e79f1358c7c4f0997f87e0b6e6fce3e69dddb00d402202c681cbffd8656a3f2389b0afc5deec8d6b702cabc6833488a3b208cb4f2f53301",
        "03a82820f431a4eb6c64a5f94470c06f4b44bc90f9f8d0191eb75aa33a391f3175"
      ],
      "is_coinbase": false,
      "sequence": 4294967293
    }
  ],
  "vout": [
    {
      "scriptpubkey": "00149274f8e3073cb891a74553757f2e49fe29f316e5",
      "scriptpubkey_asm": "OP_0 OP_PUSHBYTES_20 9274f8e3073cb891a74553757f2e49fe29f316e5",
      "scriptpubkey_type": "v0_p2wpkh",
      "scriptpubkey_address": "bc1qjf603cc88jufrf692d6h7tjflc5lx9h9s4nzal",
      "value": 19909
    },
    {
      "scriptpubkey": "0014d20c5924405197ea48d9e88a99a2fccbfefe46e5",
      "scriptpubkey_asm": "OP_0 OP_PUSHBYTES_20 d20c5924405197ea48d9e88a99a2fccbfefe46e5",
      "scriptpubkey_type": "v0_p2wpkh",
      "scriptpubkey_address": "bc1q6gx9jfzq2xt75jxeaz9fnghue0l0u3h9pd63w4",
      "value": 37212
    },
    {
      "scriptpubkey": "0014bf12c79aaa6b342bc7ff9fb30c1e67c2983d449e",
      "scriptpubkey_asm": "OP_0 OP_PUSHBYTES_20 bf12c79aaa6b342bc7ff9fb30c1e67c2983d449e",
      "scriptpubkey_type": "v0_p2wpkh",
      "scriptpubkey_address": "bc1qhufv0x42dv6zh3lln7esc8n8c2vr63y7lu0hgv",
      "value": 45647
    },
    {
      "scriptpubkey": "a9143adf3d094395ee9ead5d10dde94fb2649e4fab3a87",
      "scriptpubkey_asm": "OP_HASH160 OP_PUSHBYTES_20 3adf3d094395ee9ead5d10dde94fb2649e4fab3a OP_EQUAL",
      "scriptpubkey_type": "p2sh",
      "scriptpubkey_address": "374JYYhrikfp4b8RBY62fTswWebhA1xKR9",
      "value": 51030
    },
    {
      "scriptpubkey": "0014acb4323c20205ec8d0ab4e551fbd819744809c2b",
      "scriptpubkey_asm": "OP_0 OP_PUSHBYTES_20 acb4323c20205ec8d0ab4e551fbd819744809c2b",
      "scriptpubkey_type": "v0_p2wpkh",
      "scriptpubkey_address": "bc1q4j6ry0pqyp0v359tfe23l0vpjazgp8ptajmkru",
      "value": 68285
    },
    {
      "scriptpubkey": "0014209d3b3cb75bb83131aeed157dcf1b93754c9c34",
      "scriptpubkey_asm": "OP_0 OP_PUSHBYTES_20 209d3b3cb75bb83131aeed157dcf1b93754c9c34",
      "scriptpubkey_type": "v0_p2wpkh",
      "scriptpubkey_address": "bc1qyzwnk09htwurzvdwa52hmncmjd65e8p5284c8n",
      "value": 4378759
    }
  ],
  "size": 347,
  "weight": 1061,
  "fee": 5586,
  "status": {
    "confirmed": true,
    "block_height": 834460,
    "block_hash": "00000000000000000000484a79b643b2524bbce82e5d8a442013fa5b8905ed98",
    "block_time": 1710307468
  },
  "hex": "02000000000101b29af41d1db9f9bbbb7cd8ee9074ca65aca8a3006120c4c229fc761164711c190400000000fdffffff06c54d0000000000001600149274f8e3073cb891a74553757f2e49fe29f316e55c91000000000000160014d20c5924405197ea48d9e88a99a2fccbfefe46e54fb2000000000000160014bf12c79aaa6b342bc7ff9fb30c1e67c2983d449e56c700000000000017a9143adf3d094395ee9ead5d10dde94fb2649e4fab3a87bd0a010000000000160014acb4323c20205ec8d0ab4e551fbd819744809c2b87d0420000000000160014209d3b3cb75bb83131aeed157dcf1b93754c9c340247304402205fcefc8a529deb54e3f9b70e79f1358c7c4f0997f87e0b6e6fce3e69dddb00d402202c681cbffd8656a3f2389b0afc5deec8d6b702cabc6833488a3b208cb4f2f533012103a82820f431a4eb6c64a5f94470c06f4b44bc90f9f8d0191eb75aa33a391f31759abb0c00"
}