{
  "txid": "3ec6d85de8af1626d4c4f324181df7812bff18f2146c493c9bdc6f48d0927be2",
  "version": 2,
  "locktime": 834637,
  "vin": [
    {
      "txid": "3e6aba35d3e71b8ba7185968d56d53b60bd58159dc138b45a662aa748047eb9e",
      "vout": 0,
      "prevout": {
        "scriptpubkey": "001401a22e7b63bbd3755e1c3b7b5a3781b3be7f1443",
        "scriptpubkey_asm": "OP_0 OP_PUSHBYTES_20 01a22e7b63bbd3755e1c3b7b5a3781b3be7f1443",
        "scriptpubkey_type": "v0_p2wpkh",
        "scriptpubkey_address": "bc1qqx3zu7mrh0fh2hsu8da45dupkwl879zrjcxugm",
        "value": 783149584
      },
      "scriptsig": "",
      "scriptsig_asm": "",
      "witness": [
        "30440220443e405dc8bbca341ddff19fa664884eaebcb5e08ac960ff83ca910767f9768b02202d9a7d985a31417246f8fff3add88a833d476a3f63c8c90af44119c51581ce0201",
        "029219dedc8452e33c5221a78273b53ed6b6b3c5cfa7b6024d30e307ef467a6e64"
      ],
      "is_coinbase": false,
      "sequence": 4294967294
    }
  ],
  "vout": [
    {
      "scriptpubkey": "0014b5c1e67ae4cc0f9e571c5bca07ef42a771bd6585",
      "scriptpubkey_asm": "OP_0 OP_PUSHBYTES_20 b5c1e67ae4cc0f9e571c5bca07ef42a771bd6585",
      "scriptpubkey_type": "v0_p2wpkh",
      "scriptpubkey_address": "bc1qkhq7v7hyes8eu4cut09q0m6z5acm6ev97ypsep",
      "value": 780393004
    },
    {
      "scriptpubkey": "a9148263bff06e4705e45f2416038e730cc79da4480387",
      "scriptpubkey_asm": "OP_HASH160 OP_PUSHBYTES_20 8263bff06e4705e45f2416038e730cc79da44803 OP_EQUAL",
      "scriptpubkey_type": "p2sh",
      "scriptpubkey_address": "3DaTGDXFcxRF16cpBi8NKadkvuz9ghKx6y",
      "value": 2753100
    }
  ],
  "size": 223,
  "weight": 565,
  "fee": 3480,
  "status": {
    "confirmed": true,
    "block_height": 834638,
    "block_hash": "000000000000000000025f742c626208ac87e0b7d15054abb4a19ca2d735a54e",
    "block_time": 1710405325
  },
  "hex": "020000000001019eeb478074aa62a6458b13dc5981d50bb6536dd5685918a78b1be7d335ba6a3e0000000000feffffff022cda832e00000000160014b5c1e67ae4cc0f9e571c5bca07ef42a771bd65854c022a000000000017a9148263bff06e4705e45f2416038e730cc79da4480387024730440220443e405dc8bbca341ddff19fa664884eaebcb5e08ac960ff83ca910767f9768b02202d9a7d985a31417246f8fff3add88a833d476a3f63c8c90af44119c51581ce020121029219dedc8452e33c5221a78273b53ed6b6b3c5cfa7b6024d30e307ef467a6e644dbc0c00"
}