{
  "txid": "3eddde63ea46afe6e97bf3b8da41d1a229252ccb007bf59374f5efa4c98c2e2b",
  "version": 2,
  "locktime": 0,
  "vin": [
    {
      "txid": "9625886f684d7ae5096063752e6d7e337a45bc0dfff56e4b946a7c38795f6498",
      "vout": 1,
      "prevout": {
        "scriptpubkey": "a914ac231ab6899d013a5f1ca84d45938d67f6718fe187",
        "scriptpubkey_asm": "OP_HASH160 OP_PUSHBYTES_20 ac231ab6899d013a5f1ca84d45938d67f6718fe1 OP_EQUAL",
        "scriptpubkey_type": "p2sh",
        "scriptpubkey_address": "3HPCCdaPWTPcmGDk5YdQhiZh5281eUh9dU",
        "value": 786444715
      },
      "scriptsig": "160014a0af18bf09d31d6306ecebf75f78de433a0bf636",
      "scriptsig_asm": "OP_PUSHBYTES_22 0014a0af18bf09d31d6306ecebf75f78de433a0bf636",
      "witness": [
        "304402201bb5479b1db7605277bdd8a463c6f47432fccf7d51ec4fd5dbbc2cf66822c53b0220763fc62f973c131f577b115df18730a6cba021964bdacb4dd5ca1f46731dccd901",
        "02632a07c30407e3ad8807bb6398350b5308dca74865d2125d611f5418455afa98"
      ],
      "is_coinbase": false,
      "sequence": 4294967295,
      "inner_redeemscript_asm": "OP_0 OP_PUSHBYTES_20 a0af18bf09d31d6306ecebf75f78de433a0bf636"
    }
  ],
  "vout": [
    {
      "scriptpubkey": "76a914cebec6480d5168ed6f1cb4797bce956d2a0e1fa688ac",
      "scriptpubkey_asm": "OP_DUP OP_HASH160 OP_PUSHBYTES_20 cebec6480d5168ed6f1cb4797bce956d2a0e1fa6 OP_EQUALVERIFY OP_CHECKSIG",
      "scriptpubkey_type": "p2pkh",
      "scriptpubkey_address": "1KrAjmL1gJLujzJZnULjdYJVw13ZSEUVvE",
      "value": 350000000
    },
    {
      "scriptpubkey": "a914a7b49c147a7fa9ffa107c370071c8f69eeada5c487",
      "scriptpubkey_asm": "OP_HASH160 OP_PUSHBYTES_20 a7b49c147a7fa9ffa107c370071c8f69eeada5c4 OP_EQUAL",
      "scriptpubkey_type": "p2sh",
      "scriptpubkey_address": "3Gym8ZTqVMbapNq7jrgdsHAzHHijgh8CXS",
      "value": 436440192
    }
  ],
  "size": 249,
  "weight": 669,
  "fee": 4523,
  "status": {
    "confirmed": true,
    "block_height": 834460,
    "block_hash": "00000000000000000000484a79b643b2524bbce82e5d8a442013fa5b8905ed98",
    "block_time": 1710307468
  },
  "hex": "0200000000010198645f79387c6a944b6ef5ff0dbc457a337e6d2e75636009e57a4d686f8825960100000017160014a0af18bf09d31d6306ecebf75f78de433a0bf636ffffffff028093dc14000000001976a914cebec6480d5168ed6f1cb4797bce956d2a0e1fa688ac808c031a0000000017a914a7b49c147a7fa9ffa107c370071c8f69eeada5c4870247304402201bb5479b1db7605277bdd8a463c6f47432fccf7d51ec4fd5dbbc2cf66822c53b0220763fc62f973c131f577b115df18730a6cba021964bdacb4dd5ca1f46731dccd9012102632a07c30407e3ad8807bb6398350b5308dca74865d2125d611f5418455afa9800000000"
}