{
  "txid": "3ee3271720cabb318cc8b2eebcee9baa5863854bdca5aefa3d0f9b0f90b702ab",
  "version": 1,
  "locktime": 0,
  "vin": [
    {
      "txid": "850ef5517f417ac4810ad5c5c7bced58b1ae5182b8764e95014ac87e2f44da68",
      "vout": 1,
      "prevout": {
        "scriptpubkey": "51208fe1767885d17c27b305545e70dcb21ed67996322ce6c15c4380a9ea247b0039",
        "scriptpubkey_asm": "OP_PUSHNUM_1 OP_PUSHBYTES_32 8fe1767885d17c27b305545e70dcb21ed67996322ce6c15c4380a9ea247b0039",
        "scriptpubkey_type": "v1_p2tr",
        "scriptpubkey_address": "bc1p3lshv7y9697z0vc92308ph9jrmt8n93j9nnvzhzrsz575frmqqus9g2c7p",
        "value": 147774
      },
      "scriptsig": "",
      "scriptsig_asm": "",
      "witness": [
        "a6fcc9c883594e2d607e802f7157584417eb95936d3be74e3b6ff035e5047a19bd9a41a1481a7aa3647dd9c0c0819a7085d3ae39041deca2f816d8de29641f0f"
      ],
      "is_coinbase": false,
      "sequence": 0
    }
  ],
  "vout": [
    {
      "scriptpubkey": "5120a1c62b38d1ba310a892b20f0896875e8bf2adeeabd29399c2c18844f455071da",
      "scriptpubkey_asm": "OP_PUSHNUM_1 OP_PUSHBYTES_32 a1c62b38d1ba310a892b20f0896875e8bf2adeeabd29399c2c18844f455071da",
      "scriptpubkey_type": "v1_p2tr",
      "scriptpubkey_address": "bc1p58rzkwx3hgcs4zftyrcgj6r4azlj4hh2h55nn8pvrzzy732sw8dqdrfmdy",
      "value": 2856
    },
    {
      "scriptpubkey": "51208fe1767885d17c27b305545e70dcb21ed67996322ce6c15c4380a9ea247b0039",
      "scriptpubkey_asm": "OP_PUSHNUM_1 OP_PUSHBYTES_32 8fe1767885d17c27b305545e70dcb21ed67996322ce6c15c4380a9ea247b0039",
      "scriptpubkey_type": "v1_p2tr",
      "scriptpubkey_address": "bc1p3lshv7y9697z0vc92308ph9jrmt8n93j9nnvzhzrsz575frmqqus9g2c7p",
      "value": 142916
    }
  ],
  "size": 205,
  "weight": 616,
  "fee": 2002,
  "status": {
    "confirmed": true,
    "block_height": 834460,
    "block_hash": "00000000000000000000484a79b643b2524bbce82e5d8a442013fa5b8905ed98",
    "block_time": 1710307468
  },
  "hex": "0100000000010168da442f7ec84a01954e76b88251aeb158edbcc7c5d50a81c47a417f51f50e8501000000000000000002280b000000000000225120a1c62b38d1ba310a892b20f0896875e8bf2adeeabd29399c2c18844f455071da442e0200000000002251208fe1767885d17c27b305545e70dcb21ed67996322ce6c15c4380a9ea247b00390140a6fcc9c883594e2d607e802f7157584417eb95936d3be74e3b6ff035e5047a19bd9a41a1481a7aa3647dd9c0c0819a7085d3ae39041deca2f816d8de29641f0f00000000"
}