{
  "txid": "3ee82ffbad4881f3794dc67861e3df42906a7385510f00ca47402f09e1ac4f0f",
  "version": 1,
  "locktime": 0,
  "vin": [
    {
      "txid": "385ffad3cc63626e97e61cec1cc02a1965ec594824189dfed645b164351be0d7",
      "vout": 0,
      "prevout": {
        "scriptpubkey": "5120d4fe22456b25d3de6ae2b8ef797ebb99dfcb43149f20d70c28abb2ce38f72836",
        "scriptpubkey_asm": "OP_PUSHNUM_1 OP_PUSHBYTES_32 d4fe22456b25d3de6ae2b8ef797ebb99dfcb43149f20d70c28abb2ce38f72836",
        "scriptpubkey_type": "v1_p2tr",
        "scriptpubkey_address": "bc1p6nlzy3ttyhfau6hzhrhhjl4mn80uksc5nusdwrpg4wevuw8h9qmqwcfgvn",
        "value": 9792
      },
      "scriptsig": "",
      "scriptsig_asm": "",
      "witness": [
        "c0c51291b3408d2f2f32e58dee86a23c978452ded6a232056d74645bb86bbd1684a95568121fe77544a16e523d81fee39335e01454d6db305e5da39c3e1857d801"
      ],
      "is_coinbase": false,
      "sequence": 4294967295
    },
    {
      "txid": "8ea607c4a760cae50267fa3471d22ecea0de946e8f50dc15cae60c6698bf14a5",
      "vout": 0,
      "prevout": {
        "scriptpubkey": "512026f67572360a7f608fa083c3eb4846e2c0c94eb720888037aa13d704a2bdba8a",
        "scriptpubkey_asm": "OP_PUSHNUM_1 OP_PUSHBYTES_32 26f67572360a7f608fa083c3eb4846e2c0c94eb720888037aa13d704a2bdba8a",
        "scriptpubkey_type": "v1_p2tr",
        "scriptpubkey_address": "bc1pymm82u3kpflkpraqs0p7kjzxutqvjn4hyzygqda2z0tsfg4ah29qt4jgvs",
        "value": 5666
      },
      "scriptsig": "",
      "scriptsig_asm": "",
      "witness": [
        "fd0ed124954e5f83f774a8f6057a3cc29b5aa9e3773e4a6ce99d8aefe86b2117f17de5cd76c819a38274218a8e0fe85a49ee331672dba640d3caa55c733362c001"
      ],
      "is_coinbase": false,
      "sequence": 4294967295
    },
    {
      "txid": "04093cd52005b806109c385d32f2eda17d2b5fca6f572223a0dd2a811b4bd3ce",
      "vout": 0,
      "prevout": {
        "scriptpubkey": "002085a3f0d5dedb60ec75590f6716b05e842b0b38a8f612020b2990a76045bc4288",
        "scriptpubkey_asm": "OP_0 OP_PUSHBYTES_32 85a3f0d5dedb60ec75590f6716b05e842b0b38a8f612020b2990a76045bc4288",
        "scriptpubkey_type": "v0_p2wsh",
        "scriptpubkey_address": "bc1qsk3lp4w7mdswca2epan3dvz7ss4skw9g7cfqyzefjznkq3dug2yqks73t3",
        "value": 3265
      },
      "scriptsig": "",
      "scriptsig_asm": "",
      "witness": [
        "",
        "30450221009ea5a1533293a1a70a3e729ee570f181158b9dfd93c3bc9c004e3ca73f700525022024277b8dc6b5ae7729ff979cda994b6aba4663b57e2fb3cb71c2ab200005923601",
        "30440220193a27483eb3bbef63ff3619de42307cad348c205e331532953b57f78495ea770220620fb9ea967b8c8415e1fb667d9d367ee19e1150909eeb919da8a7aa424cc9d901",
        "522102b5cf16afdac636be36dfab2316f8b87168a29389587ecefd9f6a0d47e2b512162102a2af14fea185f8b60f79f09e81a019da6373440f6092812ec169d0d0d20dcc2b52ae"
      ],
      "is_coinbase": false,
      "sequence": 4294967295,
      "inner_witnessscript_asm": "OP_PUSHNUM_2 OP_PUSHBYTES_33 02b5cf16afdac636be36dfab2316f8b87168a29389587ecefd9f6a0d47e2b51216 OP_PUSHBYTES_33 02a2af14fea185f8b60f79f09e81a019da6373440f6092812ec169d0d0d20dcc2b OP_PUSHNUM_2 OP_CHECKMULTISIG"
    },
    {
      "txid": "79c31a72a28c0c3c63f12413fd4623a29fbeac1f9f3ccb63c85fe8dd0022c9fe",
      "vout": 0,
      "prevout": {
        "scriptpubkey": "5120f0a027adaa4a61f8c5c6a661572dc6c219804816d1863ab85b8f3a469869f3a6",
        "scriptpubkey_asm": "OP_PUSHNUM_1 OP_PUSHBYTES_32 f0a027adaa4a61f8c5c6a661572dc6c219804816d1863ab85b8f3a469869f3a6",
        "scriptpubkey_type": "v1_p2tr",
        "scriptpubkey_address": "bc1p7zsz0td2ffsl33wx5es4wtwxcgvcqjqk6xrr4wzm3uaydxrf7wnqrwuhkl",
        "value": 16000
      },
      "scriptsig": "",
      "scriptsig_asm": "",
      "witness": [
        "db9d7b37a2bdbb9e356c16c8066d906c2627f583bb082fb5ed5f03af591cdc735596f30b24990493773f649bbf496196e5b2ba7dce2a363cd0fa33f4365b7d6401"
      ],
      "is_coinbase": false,
      "sequence": 4294967295
    }
  ],
  "vout": [
    {
      "scriptpubkey": "5120b2454a850e885624ad0bd7acf373bdf62874bda30c743b7a5ef70823648e67de",
      "scriptpubkey_asm": "OP_PUSHNUM_1 OP_PUSHBYTES_32 b2454a850e885624ad0bd7acf373bdf62874bda30c743b7a5ef70823648e67de",
      "scriptpubkey_type": "v1_p2tr",
      "scriptpubkey_address": "bc1pkfz54pgw3ptzftgt67k0xuaa7c58f0drp36rk7j77uyzxeywvl0qllaw3r",
      "value": 14423
    },
    {
      "scriptpubkey": "00144cc095c06ada6cd039b2d64fa925d239b6091cec",
      "scriptpubkey_asm": "OP_0 OP_PUSHBYTES_20 4cc095c06ada6cd039b2d64fa925d239b6091cec",
      "scriptpubkey_type": "v0_p2wpkh",
      "scriptpubkey_address": "bc1qfnqftsr2mfkdqwdj6e86jfwj8xmqj88vvkwh50",
      "value": 16410
    }
  ],
  "size": 670,
  "weight": 1414,
  "fee": 3890,
  "status": {
    "confirmed": true,
    "block_height": 834464,
    "block_hash": "0000000000000000000177a0869a911a2b65c9bdcd5a8bcb02b68f305bee848e",
    "block_time": 1710308296
  },
  "hex": "01000000000104d7e01b3564b145d6fe9d18244859ec65192ac01cec1ce6976e6263ccd3fa5f380000000000ffffffffa514bf98660ce6ca15dc508f6e94dea0ce2ed27134fa6702e5ca60a7c407a68e0000000000ffffffffced34b1b812adda02322576fca5f2b7da1edf2325d389c1006b80520d53c09040000000000fffffffffec92200dde85fc863cb3c9f1facbe9fa22346fd1324f1633c0c8ca2721ac3790000000000ffffffff025738000000000000225120b2454a850e885624ad0bd7acf373bdf62874bda30c743b7a5ef70823648e67de1a400000000000001600144cc095c06ada6cd039b2d64fa925d239b6091cec0141c0c51291b3408d2f2f32e58dee86a23c978452ded6a232056d74645bb86bbd1684a95568121fe77544a16e523d81fee39335e01454d6db305e5da39c3e1857d8010141fd0ed124954e5f83f774a8f6057a3cc29b5aa9e3773e4a6ce99d8aefe86b2117f17de5cd76c819a38274218a8e0fe85a49ee331672dba640d3caa55c733362c00104004830450221009ea5a1533293a1a70a3e729ee570f181158b9dfd93c3bc9c004e3ca73f700525022024277b8dc6b5ae7729ff979cda994b6aba4663b57e2fb3cb71c2ab2000059236014730440220193a27483eb3bbef63ff3619de42307cad348c205e331532953b57f78495ea770220620fb9ea967b8c8415e1fb667d9d367ee19e1150909eeb919da8a7aa424cc9d90147522102b5cf16afdac636be36dfab2316f8b87168a29389587ecefd9f6a0d47e2b512162102a2af14fea185f8b60f79f09e81a019da6373440f6092812ec169d0d0d20dcc2b52ae0141db9d7b37a2bdbb9e356c16c8066d906c2627f583bb082fb5ed5f03af591cdc735596f30b24990493773f649bbf496196e5b2ba7dce2a363cd0fa33f4365b7d640100000000"
}