{
  "txid": "3f090f2bd503b1dceb04a70f33cf759e3dd040706c70b96202cf63ac6cf37ca7",
  "version": 2,
  "locktime": 0,
  "vin": [
    {
      "txid": "acc3ba00869acb582a3f2904ce3a11dd3779350ce234063fc7d0959246213364",
      "vout": 255,
      "prevout": {
        "scriptpubkey": "51208beb1abbabd0fcfeb9659c063ddf8055154537433440e7df8239ca099b86521b",
        "scriptpubkey_asm": "OP_PUSHNUM_1 OP_PUSHBYTES_32 8beb1abbabd0fcfeb9659c063ddf8055154537433440e7df8239ca099b86521b",
        "scriptpubkey_type": "v1_p2tr",
        "scriptpubkey_address": "bc1p30434wat6r70awt9nsrrmhuq25252d6rx3qw0huz889qnxux2gdskalw6k",
        "value": 1806
      },
      "scriptsig": "",
      "scriptsig_asm": "",
      "witness": [
        "906ba1e6d22f13902b0eeda170d4ac1e1a5d878a58edd4a323d74bb4ff33b4d4afc95b8fbbd6f710c0cbca3ea267f49c370b3410468250129c0de4234d17efb8",
        "2027fb2691aa93ed6281697a2f23caa46102df1dab368dfcb0f1cd21294d05b0b8ac0063036f726401010a746578742f706c61696e00357b2270223a226272632d3230222c226f70223a226d696e74222c227469636b223a22646f6765222c22616d74223a2234323030227d68",
        "c027fb2691aa93ed6281697a2f23caa46102df1dab368dfcb0f1cd21294d05b0b8"
      ],
      "is_coinbase": false,
      "sequence": 4261412863
    }
  ],
  "vout": [
    {
      "scriptpubkey": "00147a665de7a370f4c9b372ab1fae587500a5bcbdb4",
      "scriptpubkey_asm": "OP_0 OP_PUSHBYTES_20 7a665de7a370f4c9b372ab1fae587500a5bcbdb4",
      "scriptpubkey_type": "v0_p2wpkh",
      "scriptpubkey_address": "bc1q0fn9mearwr6vnvmj4v06ukr4qzjme0d565dzcx",
      "value": 294
    }
  ],
  "size": 294,
  "weight": 540,
  "fee": 1512,
  "status": {
    "confirmed": true,
    "block_height": 834460,
    "block_hash": "00000000000000000000484a79b643b2524bbce82e5d8a442013fa5b8905ed98",
    "block_time": 1710307468
  },
  "hex": "02000000000101643321469295d0c73f0634e20c357937dd113ace04293f2a58cb9a8600bac3acff00000000fffffffd0126010000000000001600147a665de7a370f4c9b372ab1fae587500a5bcbdb40340906ba1e6d22f13902b0eeda170d4ac1e1a5d878a58edd4a323d74bb4ff33b4d4afc95b8fbbd6f710c0cbca3ea267f49c370b3410468250129c0de4234d17efb86d2027fb2691aa93ed6281697a2f23caa46102df1dab368dfcb0f1cd21294d05b0b8ac0063036f726401010a746578742f706c61696e00357b2270223a226272632d3230222c226f70223a226d696e74222c227469636b223a22646f6765222c22616d74223a2234323030227d6821c027fb2691aa93ed6281697a2f23caa46102df1dab368dfcb0f1cd21294d05b0b800000000"
}