{
  "txid": "3f119e27900f4648319011d21d0ce403317ddd16c73b7c7df0d2c3bca31ccd8e",
  "version": 2,
  "locktime": 0,
  "vin": [
    {
      "txid": "d1e5ee61309d8c8b19216547139478cdfdb4fc049792d29adc4bcad4ea29628e",
      "vout": 4,
      "prevout": {
        "scriptpubkey": "00142c02dd6445c2220eaa54b27153ded939c940e546",
        "scriptpubkey_asm": "OP_0 OP_PUSHBYTES_20 2c02dd6445c2220eaa54b27153ded939c940e546",
        "scriptpubkey_type": "v0_p2wpkh",
        "scriptpubkey_address": "bc1q9spd6ez9cg3qa2j5kfc48hke88y5pe2xgjmj6f",
        "value": 75956353
      },
      "scriptsig": "",
      "scriptsig_asm": "",
      "witness": [
        "3044022010b44d2e1938525089783e67e4c5baacf2ae84e948e57df7c15669faa06fd84702204c1bfc745ce940dfdf81f669ead7e99ef69c7d08f30772d90856332727e49bf501",
        "0323dcd7be53b4d6c2b0ada6965e318a83bc75413352d121d1e7d85ce20fd27224"
      ],
      "is_coinbase": false,
      "sequence": 4294967295
    }
  ],
  "vout": [
    {
      "scriptpubkey": "0014524951e04f6373e339dbf14d038f3395c4f74edb",
      "scriptpubkey_asm": "OP_0 OP_PUSHBYTES_20 524951e04f6373e339dbf14d038f3395c4f74edb",
      "scriptpubkey_type": "v0_p2wpkh",
      "scriptpubkey_address": "bc1q2fy4rcz0vde7xwwm79xs8renjhz0wnkmqewzzg",
      "value": 3595500
    },
    {
      "scriptpubkey": "00142c02dd6445c2220eaa54b27153ded939c940e546",
      "scriptpubkey_asm": "OP_0 OP_PUSHBYTES_20 2c02dd6445c2220eaa54b27153ded939c940e546",
      "scriptpubkey_type": "v0_p2wpkh",
      "scriptpubkey_address": "bc1q9spd6ez9cg3qa2j5kfc48hke88y5pe2xgjmj6f",
      "value": 72357534
    }
  ],
  "size": 222,
  "weight": 561,
  "fee": 3319,
  "status": {
    "confirmed": true,
    "block_height": 834460,
    "block_hash": "00000000000000000000484a79b643b2524bbce82e5d8a442013fa5b8905ed98",
    "block_time": 1710307468
  },
  "hex": "020000000001018e6229ead4ca4bdc9ad2929704fcb4fdcd789413476521198b8c9d3061eee5d10400000000ffffffff02ecdc360000000000160014524951e04f6373e339dbf14d038f3395c4f74edb9e165004000000001600142c02dd6445c2220eaa54b27153ded939c940e54602473044022010b44d2e1938525089783e67e4c5baacf2ae84e948e57df7c15669faa06fd84702204c1bfc745ce940dfdf81f669ead7e99ef69c7d08f30772d90856332727e49bf501210323dcd7be53b4d6c2b0ada6965e318a83bc75413352d121d1e7d85ce20fd2722400000000"
}