{
  "txid": "3f18fa6487ed3cef6850dbf294fafc00b86fbb27569b3f27066a883ba69a8ae1",
  "version": 1,
  "locktime": 0,
  "vin": [
    {
      "txid": "a638db091af8e8c6e3121c14903b2b41485f33250a469cf6d047dceb0223a755",
      "vout": 0,
      "prevout": {
        "scriptpubkey": "5120a8c6acc1b36f2499bf8af029dd37cf69f949d7401b8b1ddf469a62ea3f022bd8",
        "scriptpubkey_asm": "OP_PUSHNUM_1 OP_PUSHBYTES_32 a8c6acc1b36f2499bf8af029dd37cf69f949d7401b8b1ddf469a62ea3f022bd8",
        "scriptpubkey_type": "v1_p2tr",
        "scriptpubkey_address": "bc1p4rr2esdndujfn0u27q5a6d70d8u5n46qrw93mh6xnf3w50cz90vqtych3x",
        "value": 2568
      },
      "scriptsig": "",
      "scriptsig_asm": "",
      "witness": [
        "7dfc9651d128671fc6baf3ac88ba301dc89c2f5a4835a575417ecefd2de4da5622dd7225bb0689ff8efe3ddbe1e4aa408c41243bf97e481745b9567cc6da407183",
        "20be11f1d0580232188e877ef283eb5a1efd4e9e5290a2633605d666f59ad3fff2ac00630461746f6d03646d742ca16461726773a36b6d696e745f7469636b657263627463656e6f6e63651a0048b0b96474696d651a65efb26c68",
        "c1be11f1d0580232188e877ef283eb5a1efd4e9e5290a2633605d666f59ad3fff2"
      ],
      "is_coinbase": false,
      "sequence": 4294967293
    }
  ],
  "vout": [
    {
      "scriptpubkey": "51209d6dbbf9bad17d0135e06ea56ec304df985f9f9bc809fa52ae6789a0947e0300",
      "scriptpubkey_asm": "OP_PUSHNUM_1 OP_PUSHBYTES_32 9d6dbbf9bad17d0135e06ea56ec304df985f9f9bc809fa52ae6789a0947e0300",
      "scriptpubkey_type": "v1_p2tr",
      "scriptpubkey_address": "bc1pn4kmh7d6697szd0qd6jkascym7v9l8umeqyl554wv7y6p9r7qvqquzkndh",
      "value": 1000
    }
  ],
  "size": 289,
  "weight": 571,
  "fee": 1568,
  "status": {
    "confirmed": true,
    "block_height": 834464,
    "block_hash": "0000000000000000000177a0869a911a2b65c9bdcd5a8bcb02b68f305bee848e",
    "block_time": 1710308296
  },
  "hex": "0100000000010155a72302ebdc47d0f69c460a25335f48412b3b90141c12e3c6e8f81a09db38a60000000000fdffffff01e8030000000000002251209d6dbbf9bad17d0135e06ea56ec304df985f9f9bc809fa52ae6789a0947e030003417dfc9651d128671fc6baf3ac88ba301dc89c2f5a4835a575417ecefd2de4da5622dd7225bb0689ff8efe3ddbe1e4aa408c41243bf97e481745b9567cc6da4071835b20be11f1d0580232188e877ef283eb5a1efd4e9e5290a2633605d666f59ad3fff2ac00630461746f6d03646d742ca16461726773a36b6d696e745f7469636b657263627463656e6f6e63651a0048b0b96474696d651a65efb26c6821c1be11f1d0580232188e877ef283eb5a1efd4e9e5290a2633605d666f59ad3fff200000000"
}