{
  "txid": "3f1fb816b5aeab8c283402e2a2557944041daedc3cf56858e21b12c1b3ed1bdc",
  "version": 2,
  "locktime": 0,
  "vin": [
    {
      "txid": "12848a1f84ad552475e874cce291926f292412de23b7537898e98c7370f2e86c",
      "vout": 16,
      "prevout": {
        "scriptpubkey": "51209ddeb44718baa6c8cbd90b89ff8bdb4923f1abd2ca6fd6d3cffd076e50f131d1",
        "scriptpubkey_asm": "OP_PUSHNUM_1 OP_PUSHBYTES_32 9ddeb44718baa6c8cbd90b89ff8bdb4923f1abd2ca6fd6d3cffd076e50f131d1",
        "scriptpubkey_type": "v1_p2tr",
        "scriptpubkey_address": "bc1pnh0tg3cch2nv3j7epwyllz7mfy3lr27jefhad570l5rku583x8gs25hr4z",
        "value": 2358
      },
      "scriptsig": "",
      "scriptsig_asm": "",
      "witness": [
        "e60477859c8be8e8a75e8030ef21aaaa3d20e7ecc608b3bf5cf1cf4dc191f1330fd3f93b43a86d14e019db1f68db7b058a29069ba7c2db8d0aab5c39df0e61ce",
        "205d6fac2b2015684d75a82cca236dc10782f6b30fc5067f34342cedf96e451794ac0063036f7264010118746578742f706c61696e3b636861727365743d7574662d3800377b2270223a226272632d3230222c226f70223a226d696e74222c227469636b223a22424f424f222c22616d74223a22313030303030227d68",
        "c0507504f881a2548efcb0bd8b5287fd78c473d5bd35b181abdd5c5cd6d10de204"
      ],
      "is_coinbase": false,
      "sequence": 4294967295
    }
  ],
  "vout": [
    {
      "scriptpubkey": "512048d62e6aa4ce9b4b4d760b1dc0c3e46b46d84be76ae456792a664139e7aaa19c",
      "scriptpubkey_asm": "OP_PUSHNUM_1 OP_PUSHBYTES_32 48d62e6aa4ce9b4b4d760b1dc0c3e46b46d84be76ae456792a664139e7aaa19c",
      "scriptpubkey_type": "v1_p2tr",
      "scriptpubkey_address": "bc1pfrtzu64ye6d5kntkpvwupslyddrdsjl8dtj9v7f2veqnnea25xwqu8ycu4",
      "value": 546
    }
  ],
  "size": 322,
  "weight": 604,
  "fee": 1812,
  "status": {
    "confirmed": true,
    "block_height": 834460,
    "block_hash": "00000000000000000000484a79b643b2524bbce82e5d8a442013fa5b8905ed98",
    "block_time": 1710307468
  },
  "hex": "020000000001016ce8f270738ce9987853b723de1224296f9291e2cc74e8752455ad841f8a84121000000000ffffffff01220200000000000022512048d62e6aa4ce9b4b4d760b1dc0c3e46b46d84be76ae456792a664139e7aaa19c0340e60477859c8be8e8a75e8030ef21aaaa3d20e7ecc608b3bf5cf1cf4dc191f1330fd3f93b43a86d14e019db1f68db7b058a29069ba7c2db8d0aab5c39df0e61ce7d205d6fac2b2015684d75a82cca236dc10782f6b30fc5067f34342cedf96e451794ac0063036f7264010118746578742f706c61696e3b636861727365743d7574662d3800377b2270223a226272632d3230222c226f70223a226d696e74222c227469636b223a22424f424f222c22616d74223a22313030303030227d6821c0507504f881a2548efcb0bd8b5287fd78c473d5bd35b181abdd5c5cd6d10de20400000000"
}