{
  "txid": "3f2897592602fb41bf4f244a80bfa043fb3c6d29b827673dc9933c0beb6d9de0",
  "version": 2,
  "locktime": 0,
  "vin": [
    {
      "txid": "e60d01f1eeee2dbec06ec3a8d448424ca93ea4dcefc453871fc404580cc03558",
      "vout": 8,
      "prevout": {
        "scriptpubkey": "5120c6594254c812052785d1beffbd16295a76f08bf515ac1c60cb24d4529a507c87",
        "scriptpubkey_asm": "OP_PUSHNUM_1 OP_PUSHBYTES_32 c6594254c812052785d1beffbd16295a76f08bf515ac1c60cb24d4529a507c87",
        "scriptpubkey_type": "v1_p2tr",
        "scriptpubkey_address": "bc1pcev5y4xgzgzj0pw3hmlm693ftfm0pzl4zkkpccxtyn299xjs0jrsrepmnu",
        "value": 2646
      },
      "scriptsig": "",
      "scriptsig_asm": "",
      "witness": [
        "6d784e9782441d00a35ec97f7849ff1c2e62a0ac2189620aa2196839a90733d4cd6b2ddf8038b76af261210c5ccc3dda99cfaeecf3d10efe3cb10d02079d6fd1",
        "208ea673bd5451e37361f9e220ea7ca8349fb4e24d64b30722d82fd627e32d1681ac0063036f726401011e6170706c69636174696f6e2f6a736f6e3b636861727365743d7574662d38004cb77b2270223a22706f772d3230222c226f70223a226d696e74222c227469636b223a2250455045222c22616d74223a2231303030222c22736f6c7574696f6e223a22504550453a3351345a614567486177466561585773437a6d775a743766465543593771377759703a303030303030303030303030303030303030303139393431613561653132383937363539383134343239323533333030353762306461393666336465613163353a3437333833323532393339227d68",
        "c18db7ab6533b96c0773861c29df1705bf8b1dfa6577ecaa232ec7cdccd60ed417"
      ],
      "is_coinbase": false,
      "sequence": 4294967295
    }
  ],
  "vout": [
    {
      "scriptpubkey": "a914f565ec243898a586d6342e6d91e39b804127827787",
      "scriptpubkey_asm": "OP_HASH160 OP_PUSHBYTES_20 f565ec243898a586d6342e6d91e39b8041278277 OP_EQUAL",
      "scriptpubkey_type": "p2sh",
      "scriptpubkey_address": "3Q4ZaEgHawFeaXWsCzmwZt7fFUCY7q7wYp",
      "value": 546
    }
  ],
  "size": 448,
  "weight": 697,
  "fee": 2100,
  "status": {
    "confirmed": true,
    "block_height": 834460,
    "block_hash": "00000000000000000000484a79b643b2524bbce82e5d8a442013fa5b8905ed98",
    "block_time": 1710307468
  },
  "hex": "020000000001015835c00c5804c41f8753c4efdca43ea94c4248d4a8c36ec0be2deeeef1010de60800000000ffffffff01220200000000000017a914f565ec243898a586d6342e6d91e39b80412782778703406d784e9782441d00a35ec97f7849ff1c2e62a0ac2189620aa2196839a90733d4cd6b2ddf8038b76af261210c5ccc3dda99cfaeecf3d10efe3cb10d02079d6fd1fd0401208ea673bd5451e37361f9e220ea7ca8349fb4e24d64b30722d82fd627e32d1681ac0063036f726401011e6170706c69636174696f6e2f6a736f6e3b636861727365743d7574662d38004cb77b2270223a22706f772d3230222c226f70223a226d696e74222c227469636b223a2250455045222c22616d74223a2231303030222c22736f6c7574696f6e223a22504550453a3351345a614567486177466561585773437a6d775a743766465543593771377759703a303030303030303030303030303030303030303139393431613561653132383937363539383134343239323533333030353762306461393666336465613163353a3437333833323532393339227d6821c18db7ab6533b96c0773861c29df1705bf8b1dfa6577ecaa232ec7cdccd60ed41700000000"
}