{
  "txid": "3f2ecf3a1bc64fd431358b34af41e60b45da42af585bcda364f8894488813f14",
  "version": 1,
  "locktime": 0,
  "vin": [
    {
      "txid": "00de81fbca4d00076a951652b71aaae2946d7e1188920441a07a593cd01a4cf2",
      "vout": 1,
      "prevout": {
        "scriptpubkey": "0014f03d829ad0734618ad92b1eca3df398c7e6bbf1d",
        "scriptpubkey_asm": "OP_0 OP_PUSHBYTES_20 f03d829ad0734618ad92b1eca3df398c7e6bbf1d",
        "scriptpubkey_type": "v0_p2wpkh",
        "scriptpubkey_address": "bc1q7q7c9xkswdrp3tvjk8k28hee33lxh0caul0wyk",
        "value": 8995740
      },
      "scriptsig": "",
      "scriptsig_asm": "",
      "witness": [
        "304402205728828805d45774f8ddf81d052b29b99d5fb64642cba345c62d92ab775793c202206c9ef6aec592bdc3dec550721461ddba89c38a35c2f275759c110cf290d4837001",
        "034f5b4a83d481a3fcde537ac54698b1ca6242e75455e36b160cb246cae2c16c79"
      ],
      "is_coinbase": false,
      "sequence": 4294967293
    }
  ],
  "vout": [
    {
      "scriptpubkey": "001455403c7c077d882ee47ccc9b27191253131e0935",
      "scriptpubkey_asm": "OP_0 OP_PUSHBYTES_20 55403c7c077d882ee47ccc9b27191253131e0935",
      "scriptpubkey_type": "v0_p2wpkh",
      "scriptpubkey_address": "bc1q24qrclq80kyzaeruejdjwxgj2vf3uzf4l3m9fz",
      "value": 1000000
    },
    {
      "scriptpubkey": "0014648a8646f2fb91d46e8cb5e797136b19065373de",
      "scriptpubkey_asm": "OP_0 OP_PUSHBYTES_20 648a8646f2fb91d46e8cb5e797136b19065373de",
      "scriptpubkey_type": "v0_p2wpkh",
      "scriptpubkey_address": "bc1qvj9gv3hjlwgagm5vkhnewymtryr9xu776a9mt4",
      "value": 7993497
    }
  ],
  "size": 222,
  "weight": 561,
  "fee": 2243,
  "status": {
    "confirmed": true,
    "block_height": 834638,
    "block_hash": "000000000000000000025f742c626208ac87e0b7d15054abb4a19ca2d735a54e",
    "block_time": 1710405325
  },
  "hex": "01000000000101f24c1ad03c597aa041049288117e6d94e2aa1ab75216956a07004dcafb81de000100000000fdffffff0240420f000000000016001455403c7c077d882ee47ccc9b27191253131e093599f8790000000000160014648a8646f2fb91d46e8cb5e797136b19065373de0247304402205728828805d45774f8ddf81d052b29b99d5fb64642cba345c62d92ab775793c202206c9ef6aec592bdc3dec550721461ddba89c38a35c2f275759c110cf290d483700121034f5b4a83d481a3fcde537ac54698b1ca6242e75455e36b160cb246cae2c16c7900000000"
}