{
  "txid": "3f31000b38fb2fb8093129ea7f84096f933f4820c6b255faae747b1b0a293c89",
  "version": 1,
  "locktime": 0,
  "vin": [
    {
      "txid": "501bd2f1199ae552cb7af71cde9359bd97ceae3ee0f3d4d94066a95d48c3c4bc",
      "vout": 0,
      "prevout": {
        "scriptpubkey": "5120e86464c5a5fbab3229d5630a23e9f37cce794be1b9a7983f6bd907ce114ec1d4",
        "scriptpubkey_asm": "OP_PUSHNUM_1 OP_PUSHBYTES_32 e86464c5a5fbab3229d5630a23e9f37cce794be1b9a7983f6bd907ce114ec1d4",
        "scriptpubkey_type": "v1_p2tr",
        "scriptpubkey_address": "bc1papjxf3d9lw4ny2w4vv9z860n0n88jjlphxnes0mtmyruuy2wc82qt26yze",
        "value": 2710
      },
      "scriptsig": "",
      "scriptsig_asm": "",
      "witness": [
        "873ba825190eff7f4f64afdfd400508ca49ad855e48eb716269f4897116d90a17ac62de139fcc3bc90725f937d757a3aa56ee8c6f033359144449431f8394c6783",
        "20be11f1d0580232188e877ef283eb5a1efd4e9e5290a2633605d666f59ad3fff2ac00630461746f6d03646d742ca16461726773a36b6d696e745f7469636b657263627463656e6f6e63651a005d46fb6474696d651a65f10e1068",
        "c0be11f1d0580232188e877ef283eb5a1efd4e9e5290a2633605d666f59ad3fff2"
      ],
      "is_coinbase": false,
      "sequence": 4294967293
    }
  ],
  "vout": [
    {
      "scriptpubkey": "51209d6dbbf9bad17d0135e06ea56ec304df985f9f9bc809fa52ae6789a0947e0300",
      "scriptpubkey_asm": "OP_PUSHNUM_1 OP_PUSHBYTES_32 9d6dbbf9bad17d0135e06ea56ec304df985f9f9bc809fa52ae6789a0947e0300",
      "scriptpubkey_type": "v1_p2tr",
      "scriptpubkey_address": "bc1pn4kmh7d6697szd0qd6jkascym7v9l8umeqyl554wv7y6p9r7qvqquzkndh",
      "value": 1000
    }
  ],
  "size": 289,
  "weight": 571,
  "fee": 1710,
  "status": {
    "confirmed": true,
    "block_height": 834460,
    "block_hash": "00000000000000000000484a79b643b2524bbce82e5d8a442013fa5b8905ed98",
    "block_time": 1710307468
  },
  "hex": "01000000000101bcc4c3485da96640d9d4f3e03eaece97bd5993de1cf77acb52e59a19f1d21b500000000000fdffffff01e8030000000000002251209d6dbbf9bad17d0135e06ea56ec304df985f9f9bc809fa52ae6789a0947e03000341873ba825190eff7f4f64afdfd400508ca49ad855e48eb716269f4897116d90a17ac62de139fcc3bc90725f937d757a3aa56ee8c6f033359144449431f8394c67835b20be11f1d0580232188e877ef283eb5a1efd4e9e5290a2633605d666f59ad3fff2ac00630461746f6d03646d742ca16461726773a36b6d696e745f7469636b657263627463656e6f6e63651a005d46fb6474696d651a65f10e106821c0be11f1d0580232188e877ef283eb5a1efd4e9e5290a2633605d666f59ad3fff200000000"
}