{
  "txid": "3f3892df496e1b34c01b3c326864294b3767b0bdb1f117fbffda41f48b8979ca",
  "version": 2,
  "locktime": 0,
  "vin": [
    {
      "txid": "955ebcd5572e6e9f81ccd40492144e430bcba141ce6149e2a649177d64c648b4",
      "vout": 24,
      "prevout": {
        "scriptpubkey": "5120587658643214cea8bdeda9f58ebb634470db567fff306e1ab97afe76be4e99bf",
        "scriptpubkey_asm": "OP_PUSHNUM_1 OP_PUSHBYTES_32 587658643214cea8bdeda9f58ebb634470db567fff306e1ab97afe76be4e99bf",
        "scriptpubkey_type": "v1_p2tr",
        "scriptpubkey_address": "bc1ptpm9sepjzn82300d486cawmrg3cdk4nllucxux4e0tl8d0jwnxlsrmxpea",
        "value": 2155083
      },
      "scriptsig": "",
      "scriptsig_asm": "",
      "witness": [
        "455b11c2db4f801b2ce048072d24c0415337cfff528615201048a1180185cb3a566b9523fe379c3726cdc3cf8b233d70e2028a7318e55c8a0b702f4af4d5fb5f"
      ],
      "is_coinbase": false,
      "sequence": 4294967293
    }
  ],
  "vout": [
    {
      "scriptpubkey": "5120b0a9a893b844d03abd8ab9ed4a5034ddf149e3d18077d1dce91b3e1507829459",
      "scriptpubkey_asm": "OP_PUSHNUM_1 OP_PUSHBYTES_32 b0a9a893b844d03abd8ab9ed4a5034ddf149e3d18077d1dce91b3e1507829459",
      "scriptpubkey_type": "v1_p2tr",
      "scriptpubkey_address": "bc1pkz563yacgngr40v2h8k555p5mhc5nc73spmarh8frvlp2puzj3vsfe2xxm",
      "value": 2509
    },
    {
      "scriptpubkey": "5120b0a9a893b844d03abd8ab9ed4a5034ddf149e3d18077d1dce91b3e1507829459",
      "scriptpubkey_asm": "OP_PUSHNUM_1 OP_PUSHBYTES_32 b0a9a893b844d03abd8ab9ed4a5034ddf149e3d18077d1dce91b3e1507829459",
      "scriptpubkey_type": "v1_p2tr",
      "scriptpubkey_address": "bc1pkz563yacgngr40v2h8k555p5mhc5nc73spmarh8frvlp2puzj3vsfe2xxm",
      "value": 2509
    },
    {
      "scriptpubkey": "5120b0a9a893b844d03abd8ab9ed4a5034ddf149e3d18077d1dce91b3e1507829459",
      "scriptpubkey_asm": "OP_PUSHNUM_1 OP_PUSHBYTES_32 b0a9a893b844d03abd8ab9ed4a5034ddf149e3d18077d1dce91b3e1507829459",
      "scriptpubkey_type": "v1_p2tr",
      "scriptpubkey_address": "bc1pkz563yacgngr40v2h8k555p5mhc5nc73spmarh8frvlp2puzj3vsfe2xxm",
      "value": 2509
    },
    {
      "scriptpubkey": "5120b0a9a893b844d03abd8ab9ed4a5034ddf149e3d18077d1dce91b3e1507829459",
      "scriptpubkey_asm": "OP_PUSHNUM_1 OP_PUSHBYTES_32 b0a9a893b844d03abd8ab9ed4a5034ddf149e3d18077d1dce91b3e1507829459",
      "scriptpubkey_type": "v1_p2tr",
      "scriptpubkey_address": "bc1pkz563yacgngr40v2h8k555p5mhc5nc73spmarh8frvlp2puzj3vsfe2xxm",
      "value": 2509
    },
    {
      "scriptpubkey": "5120b0a9a893b844d03abd8ab9ed4a5034ddf149e3d18077d1dce91b3e1507829459",
      "scriptpubkey_asm": "OP_PUSHNUM_1 OP_PUSHBYTES_32 b0a9a893b844d03abd8ab9ed4a5034ddf149e3d18077d1dce91b3e1507829459",
      "scriptpubkey_type": "v1_p2tr",
      "scriptpubkey_address": "bc1pkz563yacgngr40v2h8k555p5mhc5nc73spmarh8frvlp2puzj3vsfe2xxm",
      "value": 2509
    },
    {
      "scriptpubkey": "5120b0a9a893b844d03abd8ab9ed4a5034ddf149e3d18077d1dce91b3e1507829459",
      "scriptpubkey_asm": "OP_PUSHNUM_1 OP_PUSHBYTES_32 b0a9a893b844d03abd8ab9ed4a5034ddf149e3d18077d1dce91b3e1507829459",
      "scriptpubkey_type": "v1_p2tr",
      "scriptpubkey_address": "bc1pkz563yacgngr40v2h8k555p5mhc5nc73spmarh8frvlp2puzj3vsfe2xxm",
      "value": 2509
    },
    {
      "scriptpubkey": "5120b0a9a893b844d03abd8ab9ed4a5034ddf149e3d18077d1dce91b3e1507829459",
      "scriptpubkey_asm": "OP_PUSHNUM_1 OP_PUSHBYTES_32 b0a9a893b844d03abd8ab9ed4a5034ddf149e3d18077d1dce91b3e1507829459",
      "scriptpubkey_type": "v1_p2tr",
      "scriptpubkey_address": "bc1pkz563yacgngr40v2h8k555p5mhc5nc73spmarh8frvlp2puzj3vsfe2xxm",
      "value": 2509
    },
    {
      "scriptpubkey": "5120b0a9a893b844d03abd8ab9ed4a5034ddf149e3d18077d1dce91b3e1507829459",
      "scriptpubkey_asm": "OP_PUSHNUM_1 OP_PUSHBYTES_32 b0a9a893b844d03abd8ab9ed4a5034ddf149e3d18077d1dce91b3e1507829459",
      "scriptpubkey_type": "v1_p2tr",
      "scriptpubkey_address": "bc1pkz563yacgngr40v2h8k555p5mhc5nc73spmarh8frvlp2puzj3vsfe2xxm",
      "value": 2509
    },
    {
      "scriptpubkey": "5120b0a9a893b844d03abd8ab9ed4a5034ddf149e3d18077d1dce91b3e1507829459",
      "scriptpubkey_asm": "OP_PUSHNUM_1 OP_PUSHBYTES_32 b0a9a893b844d03abd8ab9ed4a5034ddf149e3d18077d1dce91b3e1507829459",
      "scriptpubkey_type": "v1_p2tr",
      "scriptpubkey_address": "bc1pkz563yacgngr40v2h8k555p5mhc5nc73spmarh8frvlp2puzj3vsfe2xxm",
      "value": 2509
    },
    {
      "scriptpubkey": "5120b0a9a893b844d03abd8ab9ed4a5034ddf149e3d18077d1dce91b3e1507829459",
      "scriptpubkey_asm": "OP_PUSHNUM_1 OP_PUSHBYTES_32 b0a9a893b844d03abd8ab9ed4a5034ddf149e3d18077d1dce91b3e1507829459",
      "scriptpubkey_type": "v1_p2tr",
      "scriptpubkey_address": "bc1pkz563yacgngr40v2h8k555p5mhc5nc73spmarh8frvlp2puzj3vsfe2xxm",
      "value": 2509
    },
    {
      "scriptpubkey": "5120b0a9a893b844d03abd8ab9ed4a5034ddf149e3d18077d1dce91b3e1507829459",
      "scriptpubkey_asm": "OP_PUSHNUM_1 OP_PUSHBYTES_32 b0a9a893b844d03abd8ab9ed4a5034ddf149e3d18077d1dce91b3e1507829459",
      "scriptpubkey_type": "v1_p2tr",
      "scriptpubkey_address": "bc1pkz563yacgngr40v2h8k555p5mhc5nc73spmarh8frvlp2puzj3vsfe2xxm",
      "value": 2509
    },
    {
      "scriptpubkey": "5120b0a9a893b844d03abd8ab9ed4a5034ddf149e3d18077d1dce91b3e1507829459",
      "scriptpubkey_asm": "OP_PUSHNUM_1 OP_PUSHBYTES_32 b0a9a893b844d03abd8ab9ed4a5034ddf149e3d18077d1dce91b3e1507829459",
      "scriptpubkey_type": "v1_p2tr",
      "scriptpubkey_address": "bc1pkz563yacgngr40v2h8k555p5mhc5nc73spmarh8frvlp2puzj3vsfe2xxm",
      "value": 2509
    },
    {
      "scriptpubkey": "5120b0a9a893b844d03abd8ab9ed4a5034ddf149e3d18077d1dce91b3e1507829459",
      "scriptpubkey_asm": "OP_PUSHNUM_1 OP_PUSHBYTES_32 b0a9a893b844d03abd8ab9ed4a5034ddf149e3d18077d1dce91b3e1507829459",
      "scriptpubkey_type": "v1_p2tr",
      "scriptpubkey_address": "bc1pkz563yacgngr40v2h8k555p5mhc5nc73spmarh8frvlp2puzj3vsfe2xxm",
      "value": 2509
    },
    {
      "scriptpubkey": "5120b0a9a893b844d03abd8ab9ed4a5034ddf149e3d18077d1dce91b3e1507829459",
      "scriptpubkey_asm": "OP_PUSHNUM_1 OP_PUSHBYTES_32 b0a9a893b844d03abd8ab9ed4a5034ddf149e3d18077d1dce91b3e1507829459",
      "scriptpubkey_type": "v1_p2tr",
      "scriptpubkey_address": "bc1pkz563yacgngr40v2h8k555p5mhc5nc73spmarh8frvlp2puzj3vsfe2xxm",
      "value": 2509
    },
    {
      "scriptpubkey": "5120b0a9a893b844d03abd8ab9ed4a5034ddf149e3d18077d1dce91b3e1507829459",
      "scriptpubkey_asm": "OP_PUSHNUM_1 OP_PUSHBYTES_32 b0a9a893b844d03abd8ab9ed4a5034ddf149e3d18077d1dce91b3e1507829459",
      "scriptpubkey_type": "v1_p2tr",
      "scriptpubkey_address": "bc1pkz563yacgngr40v2h8k555p5mhc5nc73spmarh8frvlp2puzj3vsfe2xxm",
      "value": 2509
    },
    {
      "scriptpubkey": "5120b0a9a893b844d03abd8ab9ed4a5034ddf149e3d18077d1dce91b3e1507829459",
      "scriptpubkey_asm": "OP_PUSHNUM_1 OP_PUSHBYTES_32 b0a9a893b844d03abd8ab9ed4a5034ddf149e3d18077d1dce91b3e1507829459",
      "scriptpubkey_type": "v1_p2tr",
      "scriptpubkey_address": "bc1pkz563yacgngr40v2h8k555p5mhc5nc73spmarh8frvlp2puzj3vsfe2xxm",
      "value": 2509
    },
    {
      "scriptpubkey": "5120b0a9a893b844d03abd8ab9ed4a5034ddf149e3d18077d1dce91b3e1507829459",
      "scriptpubkey_asm": "OP_PUSHNUM_1 OP_PUSHBYTES_32 b0a9a893b844d03abd8ab9ed4a5034ddf149e3d18077d1dce91b3e1507829459",
      "scriptpubkey_type": "v1_p2tr",
      "scriptpubkey_address": "bc1pkz563yacgngr40v2h8k555p5mhc5nc73spmarh8frvlp2puzj3vsfe2xxm",
      "value": 2509
    },
    {
      "scriptpubkey": "5120b0a9a893b844d03abd8ab9ed4a5034ddf149e3d18077d1dce91b3e1507829459",
      "scriptpubkey_asm": "OP_PUSHNUM_1 OP_PUSHBYTES_32 b0a9a893b844d03abd8ab9ed4a5034ddf149e3d18077d1dce91b3e1507829459",
      "scriptpubkey_type": "v1_p2tr",
      "scriptpubkey_address": "bc1pkz563yacgngr40v2h8k555p5mhc5nc73spmarh8frvlp2puzj3vsfe2xxm",
      "value": 2509
    },
    {
      "scriptpubkey": "5120b0a9a893b844d03abd8ab9ed4a5034ddf149e3d18077d1dce91b3e1507829459",
      "scriptpubkey_asm": "OP_PUSHNUM_1 OP_PUSHBYTES_32 b0a9a893b844d03abd8ab9ed4a5034ddf149e3d18077d1dce91b3e1507829459",
      "scriptpubkey_type": "v1_p2tr",
      "scriptpubkey_address": "bc1pkz563yacgngr40v2h8k555p5mhc5nc73spmarh8frvlp2puzj3vsfe2xxm",
      "value": 2509
    },
    {
      "scriptpubkey": "5120b0a9a893b844d03abd8ab9ed4a5034ddf149e3d18077d1dce91b3e1507829459",
      "scriptpubkey_asm": "OP_PUSHNUM_1 OP_PUSHBYTES_32 b0a9a893b844d03abd8ab9ed4a5034ddf149e3d18077d1dce91b3e1507829459",
      "scriptpubkey_type": "v1_p2tr",
      "scriptpubkey_address": "bc1pkz563yacgngr40v2h8k555p5mhc5nc73spmarh8frvlp2puzj3vsfe2xxm",
      "value": 2509
    },
    {
      "scriptpubkey": "5120b0a9a893b844d03abd8ab9ed4a5034ddf149e3d18077d1dce91b3e1507829459",
      "scriptpubkey_asm": "OP_PUSHNUM_1 OP_PUSHBYTES_32 b0a9a893b844d03abd8ab9ed4a5034ddf149e3d18077d1dce91b3e1507829459",
      "scriptpubkey_type": "v1_p2tr",
      "scriptpubkey_address": "bc1pkz563yacgngr40v2h8k555p5mhc5nc73spmarh8frvlp2puzj3vsfe2xxm",
      "value": 2509
    },
    {
      "scriptpubkey": "5120b0a9a893b844d03abd8ab9ed4a5034ddf149e3d18077d1dce91b3e1507829459",
      "scriptpubkey_asm": "OP_PUSHNUM_1 OP_PUSHBYTES_32 b0a9a893b844d03abd8ab9ed4a5034ddf149e3d18077d1dce91b3e1507829459",
      "scriptpubkey_type": "v1_p2tr",
      "scriptpubkey_address": "bc1pkz563yacgngr40v2h8k555p5mhc5nc73spmarh8frvlp2puzj3vsfe2xxm",
      "value": 2509
    },
    {
      "scriptpubkey": "5120b0a9a893b844d03abd8ab9ed4a5034ddf149e3d18077d1dce91b3e1507829459",
      "scriptpubkey_asm": "OP_PUSHNUM_1 OP_PUSHBYTES_32 b0a9a893b844d03abd8ab9ed4a5034ddf149e3d18077d1dce91b3e1507829459",
      "scriptpubkey_type": "v1_p2tr",
      "scriptpubkey_address": "bc1pkz563yacgngr40v2h8k555p5mhc5nc73spmarh8frvlp2puzj3vsfe2xxm",
      "value": 2509
    },
    {
      "scriptpubkey": "5120b0a9a893b844d03abd8ab9ed4a5034ddf149e3d18077d1dce91b3e1507829459",
      "scriptpubkey_asm": "OP_PUSHNUM_1 OP_PUSHBYTES_32 b0a9a893b844d03abd8ab9ed4a5034ddf149e3d18077d1dce91b3e1507829459",
      "scriptpubkey_type": "v1_p2tr",
      "scriptpubkey_address": "bc1pkz563yacgngr40v2h8k555p5mhc5nc73spmarh8frvlp2puzj3vsfe2xxm",
      "value": 2509
    },
    {
      "scriptpubkey": "5120587658643214cea8bdeda9f58ebb634470db567fff306e1ab97afe76be4e99bf",
      "scriptpubkey_asm": "OP_PUSHNUM_1 OP_PUSHBYTES_32 587658643214cea8bdeda9f58ebb634470db567fff306e1ab97afe76be4e99bf",
      "scriptpubkey_type": "v1_p2tr",
      "scriptpubkey_address": "bc1ptpm9sepjzn82300d486cawmrg3cdk4nllucxux4e0tl8d0jwnxlsrmxpea",
      "value": 2080008
    }
  ],
  "size": 1194,
  "weight": 4572,
  "fee": 14859,
  "status": {
    "confirmed": true,
    "block_height": 834552,
    "block_hash": "00000000000000000001dd0468a70c94f619251d286585cff57aeb4bd9ede330",
    "block_time": 1710355598
  },
  "hex": "02000000000101b448c6647d1749a6e24961ce41a1cb0b434e149204d4cc819f6e2e57d5bc5e951800000000fdffffff19cd09000000000000225120b0a9a893b844d03abd8ab9ed4a5034ddf149e3d18077d1dce91b3e1507829459cd09000000000000225120b0a9a893b844d03abd8ab9ed4a5034ddf149e3d18077d1dce91b3e1507829459cd09000000000000225120b0a9a893b844d03abd8ab9ed4a5034ddf149e3d18077d1dce91b3e1507829459cd09000000000000225120b0a9a893b844d03abd8ab9ed4a5034ddf149e3d18077d1dce91b3e1507829459cd09000000000000225120b0a9a893b844d03abd8ab9ed4a5034ddf149e3d18077d1dce91b3e1507829459cd09000000000000225120b0a9a893b844d03abd8ab9ed4a5034ddf149e3d18077d1dce91b3e1507829459cd09000000000000225120b0a9a893b844d03abd8ab9ed4a5034ddf149e3d18077d1dce91b3e1507829459cd09000000000000225120b0a9a893b844d03abd8ab9ed4a5034ddf149e3d18077d1dce91b3e1507829459cd09000000000000225120b0a9a893b844d03abd8ab9ed4a5034ddf149e3d18077d1dce91b3e1507829459cd09000000000000225120b0a9a893b844d03abd8ab9ed4a5034ddf149e3d18077d1dce91b3e1507829459cd09000000000000225120b0a9a893b844d03abd8ab9ed4a5034ddf149e3d18077d1dce91b3e1507829459cd09000000000000225120b0a9a893b844d03abd8ab9ed4a5034ddf149e3d18077d1dce91b3e1507829459cd09000000000000225120b0a9a893b844d03abd8ab9ed4a5034ddf149e3d18077d1dce91b3e1507829459cd09000000000000225120b0a9a893b844d03abd8ab9ed4a5034ddf149e3d18077d1dce91b3e1507829459cd09000000000000225120b0a9a893b844d03abd8ab9ed4a5034ddf149e3d18077d1dce91b3e1507829459cd09000000000000225120b0a9a893b844d03abd8ab9ed4a5034ddf149e3d18077d1dce91b3e1507829459cd09000000000000225120b0a9a893b844d03abd8ab9ed4a5034ddf149e3d18077d1dce91b3e1507829459cd09000000000000225120b0a9a893b844d03abd8ab9ed4a5034ddf149e3d18077d1dce91b3e1507829459cd09000000000000225120b0a9a893b844d03abd8ab9ed4a5034ddf149e3d18077d1dce91b3e1507829459cd09000000000000225120b0a9a893b844d03abd8ab9ed4a5034ddf149e3d18077d1dce91b3e1507829459cd09000000000000225120b0a9a893b844d03abd8ab9ed4a5034ddf149e3d18077d1dce91b3e1507829459cd09000000000000225120b0a9a893b844d03abd8ab9ed4a5034ddf149e3d18077d1dce91b3e1507829459cd09000000000000225120b0a9a893b844d03abd8ab9ed4a5034ddf149e3d18077d1dce91b3e1507829459cd09000000000000225120b0a9a893b844d03abd8ab9ed4a5034ddf149e3d18077d1dce91b3e150782945908bd1f0000000000225120587658643214cea8bdeda9f58ebb634470db567fff306e1ab97afe76be4e99bf0140455b11c2db4f801b2ce048072d24c0415337cfff528615201048a1180185cb3a566b9523fe379c3726cdc3cf8b233d70e2028a7318e55c8a0b702f4af4d5fb5f00000000"
}