{
  "txid": "3f52bb5e8aa7479989bd18d242c8390a7556f479730c9dc5a82e908d362fafb5",
  "version": 2,
  "locktime": 0,
  "vin": [
    {
      "txid": "25bcd664785b6043ff0ad808ff8c5da949affd29c547f7ca72305eaa4eba2ec8",
      "vout": 1,
      "prevout": {
        "scriptpubkey": "0014c8d5d98530c1cdc6e7e0a9dcffd903aef891ea56",
        "scriptpubkey_asm": "OP_0 OP_PUSHBYTES_20 c8d5d98530c1cdc6e7e0a9dcffd903aef891ea56",
        "scriptpubkey_type": "v0_p2wpkh",
        "scriptpubkey_address": "bc1qer2anpfsc8xudelq48w0lkgr4mufr6jktld9mg",
        "value": 97118
      },
      "scriptsig": "",
      "scriptsig_asm": "",
      "witness": [
        "3045022100d0bacea251a00f1e31ef9cde47484d9cbb5f1b9ff6332310509748f113cc18160220284bc63012c3a10d83908d5e760290cf0896ab3fc9d1314d4da95292e581aa7901",
        "0234526a4be8fedb70366fdc969b813eb9dc501f65039e58865f5e3c6cfdb54b48"
      ],
      "is_coinbase": false,
      "sequence": 4294967293
    }
  ],
  "vout": [
    {
      "scriptpubkey": "a9140215a60131c9d578c5a68b3345e81bb90090eac687",
      "scriptpubkey_asm": "OP_HASH160 OP_PUSHBYTES_20 0215a60131c9d578c5a68b3345e81bb90090eac6 OP_EQUAL",
      "scriptpubkey_type": "p2sh",
      "scriptpubkey_address": "31t3D65vmr4M3G1qvcQ8uHiTti5muaXqk9",
      "value": 27232
    },
    {
      "scriptpubkey": "0014c8d5d98530c1cdc6e7e0a9dcffd903aef891ea56",
      "scriptpubkey_asm": "OP_0 OP_PUSHBYTES_20 c8d5d98530c1cdc6e7e0a9dcffd903aef891ea56",
      "scriptpubkey_type": "v0_p2wpkh",
      "scriptpubkey_address": "bc1qer2anpfsc8xudelq48w0lkgr4mufr6jktld9mg",
      "value": 67476
    }
  ],
  "size": 224,
  "weight": 566,
  "fee": 2410,
  "status": {
    "confirmed": true,
    "block_height": 834638,
    "block_hash": "000000000000000000025f742c626208ac87e0b7d15054abb4a19ca2d735a54e",
    "block_time": 1710405325
  },
  "hex": "02000000000101c82eba4eaa5e3072caf747c529fdaf49a95d8cff08d80aff43605b7864d6bc250100000000fdffffff02606a00000000000017a9140215a60131c9d578c5a68b3345e81bb90090eac6879407010000000000160014c8d5d98530c1cdc6e7e0a9dcffd903aef891ea5602483045022100d0bacea251a00f1e31ef9cde47484d9cbb5f1b9ff6332310509748f113cc18160220284bc63012c3a10d83908d5e760290cf0896ab3fc9d1314d4da95292e581aa7901210234526a4be8fedb70366fdc969b813eb9dc501f65039e58865f5e3c6cfdb54b4800000000"
}