{
  "txid": "3f59aaa9a6143e337ba0b40a7bd4c61e20e3b6d7e951c16dbb31312d51b604f3",
  "version": 2,
  "locktime": 0,
  "vin": [
    {
      "txid": "b9f357d83cb3c7e1a11f861540f2ef8f0eb87871f723f91f9a708db0db1bcabf",
      "vout": 23,
      "prevout": {
        "scriptpubkey": "51202401510a8251ea43254c97fed095cba7b2d9233b6376f44fffadf9f2052509f2",
        "scriptpubkey_asm": "OP_PUSHNUM_1 OP_PUSHBYTES_32 2401510a8251ea43254c97fed095cba7b2d9233b6376f44fffadf9f2052509f2",
        "scriptpubkey_type": "v1_p2tr",
        "scriptpubkey_address": "bc1pysq4zz5z284yxf2vjlldp9wt57edjgemvdm0gnll4hulypf9p8eqecmg48",
        "value": 2862
      },
      "scriptsig": "",
      "scriptsig_asm": "",
      "witness": [
        "d2c351ba1a263eb6a5fdf9fab9157a507d886468426fc493837ef8e0f0803f3466e67e8fb5380880b8eeac229bfa84d2ce2bd44d98d3e34befe020c808912797",
        "20e2eb48ce140f745632207760e86200b90c20474a890ae54516f8d38c4d2832adac0063036f726401011e6170706c69636174696f6e2f6a736f6e3b636861727365743d7574662d38004cd37b2270223a22706f772d3230222c226f70223a226d696e74222c227469636b223a2250455045222c22616d74223a2231303030222c22736f6c7574696f6e223a22504550453a62633170646c6a6d747a783365646e716e7572366332786c6c3277726472787a636e72373270333874636a6b736476306b726c67643268737a3279767a6c3a303030303030303030303030303030303030303139393431613561653132383937363539383134343239323533333030353762306461393666336465613163353a3430323134353130343737227d68",
        "c196123be632ec23e42a1daadb49c59b3ad8ca39108d2d31b6eff3b52b525d1622"
      ],
      "is_coinbase": false,
      "sequence": 4294967295
    }
  ],
  "vout": [
    {
      "scriptpubkey": "51206fe5b588d1cb6609f07ac28dffa9c368cc2c4c7e506275e2568358fb0fe86aaf",
      "scriptpubkey_asm": "OP_PUSHNUM_1 OP_PUSHBYTES_32 6fe5b588d1cb6609f07ac28dffa9c368cc2c4c7e506275e2568358fb0fe86aaf",
      "scriptpubkey_type": "v1_p2tr",
      "scriptpubkey_address": "bc1pdljmtzx3ednqnur6c2xll2wrdrxzcnr72p38tcjksdv0krlgd2hsz2yvzl",
      "value": 546
    }
  ],
  "size": 487,
  "weight": 769,
  "fee": 2316,
  "status": {
    "confirmed": true,
    "block_height": 834460,
    "block_hash": "00000000000000000000484a79b643b2524bbce82e5d8a442013fa5b8905ed98",
    "block_time": 1710307468
  },
  "hex": "02000000000101bfca1bdbb08d709a1ff923f77178b80e8feff24015861fa1e1c7b33cd857f3b91700000000ffffffff0122020000000000002251206fe5b588d1cb6609f07ac28dffa9c368cc2c4c7e506275e2568358fb0fe86aaf0340d2c351ba1a263eb6a5fdf9fab9157a507d886468426fc493837ef8e0f0803f3466e67e8fb5380880b8eeac229bfa84d2ce2bd44d98d3e34befe020c808912797fd200120e2eb48ce140f745632207760e86200b90c20474a890ae54516f8d38c4d2832adac0063036f726401011e6170706c69636174696f6e2f6a736f6e3b636861727365743d7574662d38004cd37b2270223a22706f772d3230222c226f70223a226d696e74222c227469636b223a2250455045222c22616d74223a2231303030222c22736f6c7574696f6e223a22504550453a62633170646c6a6d747a783365646e716e7572366332786c6c3277726472787a636e72373270333874636a6b736476306b726c67643268737a3279767a6c3a303030303030303030303030303030303030303139393431613561653132383937363539383134343239323533333030353762306461393666336465613163353a3430323134353130343737227d6821c196123be632ec23e42a1daadb49c59b3ad8ca39108d2d31b6eff3b52b525d162200000000"
}