{
  "txid": "3f67e2aa009e5560a6c6b5341f3a5851cb448322758721e0922ea81a2b474776",
  "version": 1,
  "locktime": 0,
  "vin": [
    {
      "txid": "a69e3b4da814c1fc1666152eb6e824bec699a839836bcbf98d7e8caa0da45b67",
      "vout": 4,
      "prevout": {
        "scriptpubkey": "76a914ed68bf7dc5003e9de5048c5d859479b32cf0ed7688ac",
        "scriptpubkey_asm": "OP_DUP OP_HASH160 OP_PUSHBYTES_20 ed68bf7dc5003e9de5048c5d859479b32cf0ed76 OP_EQUALVERIFY OP_CHECKSIG",
        "scriptpubkey_type": "p2pkh",
        "scriptpubkey_address": "1NeJdV2wEzDiRQzeAyTfxuCSUVVaociu2C",
        "value": 4714594
      },
      "scriptsig": "47304402203488871224d6517d451249d0835db55766807ffe3865a3eba7e35bc5d564501c022074ae751551ed2a24bad3bc89dc98fe98d175ab8e9a6a7326cc945d3add20975d01210289f412bb91feb319014e68cc274f88e97d9ef6c5f5abca0a1d72ea7092d2dc0a",
      "scriptsig_asm": "OP_PUSHBYTES_71 304402203488871224d6517d451249d0835db55766807ffe3865a3eba7e35bc5d564501c022074ae751551ed2a24bad3bc89dc98fe98d175ab8e9a6a7326cc945d3add20975d01 OP_PUSHBYTES_33 0289f412bb91feb319014e68cc274f88e97d9ef6c5f5abca0a1d72ea7092d2dc0a",
      "is_coinbase": false,
      "sequence": 2147483648
    }
  ],
  "vout": [
    {
      "scriptpubkey": "001454b1a9c0e232f9b74d36087a523b5a4152a30e9c",
      "scriptpubkey_asm": "OP_0 OP_PUSHBYTES_20 54b1a9c0e232f9b74d36087a523b5a4152a30e9c",
      "scriptpubkey_type": "v0_p2wpkh",
      "scriptpubkey_address": "bc1q2jc6ns8zxtumwnfkppa9yw66g9f2xr5uz7w3sm",
      "value": 4630000
    },
    {
      "scriptpubkey": "76a91456c0bc2f50bc150d4ea122e66db7c48b01b9722988ac",
      "scriptpubkey_asm": "OP_DUP OP_HASH160 OP_PUSHBYTES_20 56c0bc2f50bc150d4ea122e66db7c48b01b97229 OP_EQUALVERIFY OP_CHECKSIG",
      "scriptpubkey_type": "p2pkh",
      "scriptpubkey_address": "18uhzy546Qz7CxRNkHohg4W9VSkfTkbSvY",
      "value": 44069
    }
  ],
  "size": 222,
  "weight": 888,
  "fee": 40525,
  "status": {
    "confirmed": true,
    "block_height": 834638,
    "block_hash": "000000000000000000025f742c626208ac87e0b7d15054abb4a19ca2d735a54e",
    "block_time": 1710405325
  },
  "hex": "0100000001675ba40daa8c7e8df9cb6b8339a899c6be24e8b62e156616fcc114a84d3b9ea6040000006a47304402203488871224d6517d451249d0835db55766807ffe3865a3eba7e35bc5d564501c022074ae751551ed2a24bad3bc89dc98fe98d175ab8e9a6a7326cc945d3add20975d01210289f412bb91feb319014e68cc274f88e97d9ef6c5f5abca0a1d72ea7092d2dc0a0000008002f0a546000000000016001454b1a9c0e232f9b74d36087a523b5a4152a30e9c25ac0000000000001976a91456c0bc2f50bc150d4ea122e66db7c48b01b9722988ac00000000"
}