{
  "txid": "3f69fae8ca9bdd774ca5294e86509449f431bb44e2206cae9f7f495b7952d9e2",
  "version": 2,
  "locktime": 0,
  "vin": [
    {
      "txid": "69b09ca51c68e52231510f5358aba50a705e73e99a4aed455ad4f1906c4f17dc",
      "vout": 0,
      "prevout": {
        "scriptpubkey": "5120f23a4414b6f430a8fa41baf014ecbfff578ef0d034a58ef6c65b1e8b19d3e2c8",
        "scriptpubkey_asm": "OP_PUSHNUM_1 OP_PUSHBYTES_32 f23a4414b6f430a8fa41baf014ecbfff578ef0d034a58ef6c65b1e8b19d3e2c8",
        "scriptpubkey_type": "v1_p2tr",
        "scriptpubkey_address": "bc1p7gayg99k7sc237jphtcpfm9llatcauxsxjjcaakxtv0gkxwnutyql86gvv",
        "value": 179000
      },
      "scriptsig": "",
      "scriptsig_asm": "",
      "witness": [
        "5899d9cf5be3dff407474ce7dcdaf3b30c42cc99ebb5d7ee46cd192ee73c1f8dc795903676890869ee53f728188c8e8650621c308ff2cf0833fe04be6a2aba8d",
        "204a577465cddc433804eb36604c7f4e13623388ebbfd659afb0af081f175ccbd8ac0063036f726401011e6170706c69636174696f6e2f6a736f6e3b636861727365743d7574662d38004cb77b2270223a22706f772d3230222c226f70223a226d696e74222c227469636b223a2250455045222c22616d74223a2231303030222c22736f6c7574696f6e223a22504550453a334d524d3246744a42504c46315958564766504d33656556746675364446734762623a303030303030303030303030303030303030303139393431613561653132383937363539383134343239323533333030353762306461393666336465613163353a3634303833353736313735227d68",
        "c06b70a06f37e9fa1ff7e7bec8bd1210228b25051d0c17b5264cdd8c73b544f454"
      ],
      "is_coinbase": false,
      "sequence": 4294967293
    }
  ],
  "vout": [
    {
      "scriptpubkey": "a914d86bcd8c487ad519e95c6557e7463d579cce14a287",
      "scriptpubkey_asm": "OP_HASH160 OP_PUSHBYTES_20 d86bcd8c487ad519e95c6557e7463d579cce14a2 OP_EQUAL",
      "scriptpubkey_type": "p2sh",
      "scriptpubkey_address": "3MRM2FtJBPLF1YXVGfPM3eeVtfu6DFsGbb",
      "value": 546
    },
    {
      "scriptpubkey": "5120498b4cc9570bbd2f63694b43b8060693b3e57e61bc750ab1848bc96098ae471f",
      "scriptpubkey_asm": "OP_PUSHNUM_1 OP_PUSHBYTES_32 498b4cc9570bbd2f63694b43b8060693b3e57e61bc750ab1848bc96098ae471f",
      "scriptpubkey_type": "v1_p2tr",
      "scriptpubkey_address": "bc1pfx95ej2hpw7j7cmffdpmspsxjwe72lnph36s4vvy30ykpx9wgu0svlk9td",
      "value": 2996
    },
    {
      "scriptpubkey": "51205b1ba8c0077cfa6137bf21e12becd5ad07b82a32850026fd5e2dc05528bb2d75",
      "scriptpubkey_asm": "OP_PUSHNUM_1 OP_PUSHBYTES_32 5b1ba8c0077cfa6137bf21e12becd5ad07b82a32850026fd5e2dc05528bb2d75",
      "scriptpubkey_type": "v1_p2tr",
      "scriptpubkey_address": "bc1ptvd63sq80naxzdaly8sjhmx445rms23js5qzdl279hq9229m946sekk2pa",
      "value": 2996
    },
    {
      "scriptpubkey": "51201942b05666ffce921a40f7858d37268d9b5ba9db3d7bb363c65dc97e529c91ef",
      "scriptpubkey_asm": "OP_PUSHNUM_1 OP_PUSHBYTES_32 1942b05666ffce921a40f7858d37268d9b5ba9db3d7bb363c65dc97e529c91ef",
      "scriptpubkey_type": "v1_p2tr",
      "scriptpubkey_address": "bc1pr9ptq4nxll8fyxjq77zc6dex3kd4h2wm84amxc7xthyhu55uj8hs8mkjqt",
      "value": 2996
    },
    {
      "scriptpubkey": "5120eee010400f3e1638c430bcb2b2b81a78d82a7adc3fcd1042713fd9d6be286f30",
      "scriptpubkey_asm": "OP_PUSHNUM_1 OP_PUSHBYTES_32 eee010400f3e1638c430bcb2b2b81a78d82a7adc3fcd1042713fd9d6be286f30",
      "scriptpubkey_type": "v1_p2tr",
      "scriptpubkey_address": "bc1pamspqsq08ctr33pshjet9wq60rvz57ku8lx3qsn38lvad03gducqhlkxax",
      "value": 2996
    },
    {
      "scriptpubkey": "5120261b34a6b3f0ca716bff7f008bfc29449852ba7b694b2c29ddd5127c30dabfaa",
      "scriptpubkey_asm": "OP_PUSHNUM_1 OP_PUSHBYTES_32 261b34a6b3f0ca716bff7f008bfc29449852ba7b694b2c29ddd5127c30dabfaa",
      "scriptpubkey_type": "v1_p2tr",
      "scriptpubkey_address": "bc1pycdnff4n7r98z6ll0uqghlpfgjv99wnmd99jc2wa65f8cvx6h74qpr8a90",
      "value": 2996
    },
    {
      "scriptpubkey": "5120b08ec4ff24005b3182e1ed7cc8bdacc7f11c49581933b596feac405793767585",
      "scriptpubkey_asm": "OP_PUSHNUM_1 OP_PUSHBYTES_32 b08ec4ff24005b3182e1ed7cc8bdacc7f11c49581933b596feac405793767585",
      "scriptpubkey_type": "v1_p2tr",
      "scriptpubkey_address": "bc1pkz8vfleyqpdnrqhpa47v30dvclc3cj2cryemt9h743q90ymkwkzsmt9p45",
      "value": 2996
    },
    {
      "scriptpubkey": "5120f7d4779a11472a020a017e4c0df6166545b550f385fadc074106e6590f53a71b",
      "scriptpubkey_asm": "OP_PUSHNUM_1 OP_PUSHBYTES_32 f7d4779a11472a020a017e4c0df6166545b550f385fadc074106e6590f53a71b",
      "scriptpubkey_type": "v1_p2tr",
      "scriptpubkey_address": "bc1p7l280xs3gu4qyzsp0exqmaskv4zm258nshadcp6pqmn9jr6n5udsj4d3l4",
      "value": 2996
    },
    {
      "scriptpubkey": "5120a59fd43a8463d9fcbb233437deecd7bef4baac064ebdc7423f1d4d31d33bf8f9",
      "scriptpubkey_asm": "OP_PUSHNUM_1 OP_PUSHBYTES_32 a59fd43a8463d9fcbb233437deecd7bef4baac064ebdc7423f1d4d31d33bf8f9",
      "scriptpubkey_type": "v1_p2tr",
      "scriptpubkey_address": "bc1p5k0agw5yv0vlewerxsmaamxhhm6t4tqxf67uws3lr4xnr5emlrus3f8dyv",
      "value": 2982
    },
    {
      "scriptpubkey": "512087616cfeb28d4cfe4cd8f4c97a4f39f02492c62e9b7764d3f6d286c39a1158fc",
      "scriptpubkey_asm": "OP_PUSHNUM_1 OP_PUSHBYTES_32 87616cfeb28d4cfe4cd8f4c97a4f39f02492c62e9b7764d3f6d286c39a1158fc",
      "scriptpubkey_type": "v1_p2tr",
      "scriptpubkey_address": "bc1psaskel4j34x0unxc7nyh5nee7qjf933wndmkf5lk62rv8xs3tr7q5cc2vz",
      "value": 2996
    },
    {
      "scriptpubkey": "51205afafd09243c01a6179e1866c68783bccc6e10d6e25e8be78fc17dad800a22e6",
      "scriptpubkey_asm": "OP_PUSHNUM_1 OP_PUSHBYTES_32 5afafd09243c01a6179e1866c68783bccc6e10d6e25e8be78fc17dad800a22e6",
      "scriptpubkey_type": "v1_p2tr",
      "scriptpubkey_address": "bc1ptta06zfy8sq6v9u7rpnvdpurhnxxuyxkuf0gheu0c976mqq2ytnqlf8q48",
      "value": 2982
    },
    {
      "scriptpubkey": "512022933ab223bbe7e27daaf327afa26dda124598609cff46097bc0852a769184c4",
      "scriptpubkey_asm": "OP_PUSHNUM_1 OP_PUSHBYTES_32 22933ab223bbe7e27daaf327afa26dda124598609cff46097bc0852a769184c4",
      "scriptpubkey_type": "v1_p2tr",
      "scriptpubkey_address": "bc1py2fn4v3rh0n7yld27vn6lgndmgfytxrqnnl5vztmczzj5a53snzqusk27k",
      "value": 2996
    },
    {
      "scriptpubkey": "5120b5d524779a79b6a26ef54654162c421ceb41c0eaf50852358be9d649588039ba",
      "scriptpubkey_asm": "OP_PUSHNUM_1 OP_PUSHBYTES_32 b5d524779a79b6a26ef54654162c421ceb41c0eaf50852358be9d649588039ba",
      "scriptpubkey_type": "v1_p2tr",
      "scriptpubkey_address": "bc1pkh2jgau60xm2ymh4ge2pvtzzrn45rs8275y9ydvta8tyjkyq8xaqpvtnun",
      "value": 2996
    },
    {
      "scriptpubkey": "512005620ab5d305ec3204102755f4ff571f65a55b764684483ea18ab08bb76f08f4",
      "scriptpubkey_asm": "OP_PUSHNUM_1 OP_PUSHBYTES_32 05620ab5d305ec3204102755f4ff571f65a55b764684483ea18ab08bb76f08f4",
      "scriptpubkey_type": "v1_p2tr",
      "scriptpubkey_address": "bc1pq43q4dwnqhkrypqsya2lfl6hraj62kmkg6zys04p32cghdm0pr6q40jesg",
      "value": 2996
    },
    {
      "scriptpubkey": "51203ec3059f4c5b9918537283ee898d3c2b71c7db2f72e170554b1b8882149f2684",
      "scriptpubkey_asm": "OP_PUSHNUM_1 OP_PUSHBYTES_32 3ec3059f4c5b9918537283ee898d3c2b71c7db2f72e170554b1b8882149f2684",
      "scriptpubkey_type": "v1_p2tr",
      "scriptpubkey_address": "bc1p8mpst86vtwv3s5mjs0hgnrfu9dcu0ke0wtshq42trwygy9yly6zqj76ghv",
      "value": 2982
    },
    {
      "scriptpubkey": "51200d7de96b18be6be0cd8b280602f5f5c545f7a10f99c8783636e32d606831949a",
      "scriptpubkey_asm": "OP_PUSHNUM_1 OP_PUSHBYTES_32 0d7de96b18be6be0cd8b280602f5f5c545f7a10f99c8783636e32d606831949a",
      "scriptpubkey_type": "v1_p2tr",
      "scriptpubkey_address": "bc1pp477j6cche47pnvt9qrq9a04c4zl0gg0n8y8sd3kuvkkq6p3jjdqvg69az",
      "value": 2996
    },
    {
      "scriptpubkey": "51208787f718684601021508446d409b4633bc127497f09ae4284f1ded40e691c8a2",
      "scriptpubkey_asm": "OP_PUSHNUM_1 OP_PUSHBYTES_32 8787f718684601021508446d409b4633bc127497f09ae4284f1ded40e691c8a2",
      "scriptpubkey_type": "v1_p2tr",
      "scriptpubkey_address": "bc1ps7rlwxrggcqsy9ggg3k5px6xxw7pyayh7zdwg2z0rhk5pe53ez3qls908p",
      "value": 2996
    },
    {
      "scriptpubkey": "5120bb5cf8873334d88a996a8586f25834c946ba683434771980a7f2ba9348776643",
      "scriptpubkey_asm": "OP_PUSHNUM_1 OP_PUSHBYTES_32 bb5cf8873334d88a996a8586f25834c946ba683434771980a7f2ba9348776643",
      "scriptpubkey_type": "v1_p2tr",
      "scriptpubkey_address": "bc1phdw03penxnvg4xt2skr0ykp5e9rt56p5x3m3nq9872afxjrhvepsmt6kw2",
      "value": 2996
    },
    {
      "scriptpubkey": "5120c57e75eeb12cd53e5c69764779f1e5a8c147c9d8ae8e9e7565c8e0f846093571",
      "scriptpubkey_asm": "OP_PUSHNUM_1 OP_PUSHBYTES_32 c57e75eeb12cd53e5c69764779f1e5a8c147c9d8ae8e9e7565c8e0f846093571",
      "scriptpubkey_type": "v1_p2tr",
      "scriptpubkey_address": "bc1pc4l8tm439n2nuhrfwerhnu094rq50jwc468fuat9ers0s3sfx4cs43egqk",
      "value": 2996
    },
    {
      "scriptpubkey": "51201bad74e34274f58ba1b12372bc8bbf4f3ce01bead9e0d9e54e3c675508771da0",
      "scriptpubkey_asm": "OP_PUSHNUM_1 OP_PUSHBYTES_32 1bad74e34274f58ba1b12372bc8bbf4f3ce01bead9e0d9e54e3c675508771da0",
      "scriptpubkey_type": "v1_p2tr",
      "scriptpubkey_address": "bc1prwkhfc6zwn6chgd3ydetezalfu7wqxl2m8sdne2w83n42zrhrksq8faskc",
      "value": 2996
    },
    {
      "scriptpubkey": "5120284b2af0bf51fd58371028960e5aae34cf7984e358da38660d6f8855ec59ed95",
      "scriptpubkey_asm": "OP_PUSHNUM_1 OP_PUSHBYTES_32 284b2af0bf51fd58371028960e5aae34cf7984e358da38660d6f8855ec59ed95",
      "scriptpubkey_type": "v1_p2tr",
      "scriptpubkey_address": "bc1p9p9j4u9l2874sdcs9ztquk4wxn8hnp8rtrdrsesdd7y9tmzeak2sue22e5",
      "value": 2996
    },
    {
      "scriptpubkey": "512031aeaa8223769f462e83575ead6652576b558726b6b1541385525ab8c0d96bbb",
      "scriptpubkey_asm": "OP_PUSHNUM_1 OP_PUSHBYTES_32 31aeaa8223769f462e83575ead6652576b558726b6b1541385525ab8c0d96bbb",
      "scriptpubkey_type": "v1_p2tr",
      "scriptpubkey_address": "bc1pxxh24q3rw605vt5r2a026ejj2a44tpexk6c4gyu92fdt3sxedwashvsza0",
      "value": 2996
    },
    {
      "scriptpubkey": "512041a10b117c3ae3e84cee2fc4f62c216e258de9d3f1758787a0220d30f8dd9a0e",
      "scriptpubkey_asm": "OP_PUSHNUM_1 OP_PUSHBYTES_32 41a10b117c3ae3e84cee2fc4f62c216e258de9d3f1758787a0220d30f8dd9a0e",
      "scriptpubkey_type": "v1_p2tr",
      "scriptpubkey_address": "bc1pgxsskytu8t37sn8w9lz0vtppdcjcm6wn796c0paqygxnp7xang8qk0nlkt",
      "value": 2996
    },
    {
      "scriptpubkey": "5120fe9e0cecdf1efa21ea121b6389b4eb5b2c30b413a42b71886548dbf70c4dcd4c",
      "scriptpubkey_asm": "OP_PUSHNUM_1 OP_PUSHBYTES_32 fe9e0cecdf1efa21ea121b6389b4eb5b2c30b413a42b71886548dbf70c4dcd4c",
      "scriptpubkey_type": "v1_p2tr",
      "scriptpubkey_address": "bc1pl60qemxlrmazr6sjrd3cnd8ttvkrpdqn5s4hrzr9frdlwrzde4xq0drrut",
      "value": 2996
    },
    {
      "scriptpubkey": "512089a0a7ff801a8d8a715ffe94bfbd0e389d6412b8a466f85fb4add861589844c2",
      "scriptpubkey_asm": "OP_PUSHNUM_1 OP_PUSHBYTES_32 89a0a7ff801a8d8a715ffe94bfbd0e389d6412b8a466f85fb4add861589844c2",
      "scriptpubkey_type": "v1_p2tr",
      "scriptpubkey_address": "bc1p3xs20luqr2xc5u2ll62tl0gw8zwkgy4c53n0sha54hvxzkycgnpq7xmmwq",
      "value": 2996
    },
    {
      "scriptpubkey": "51208c14ebb694664fce476cd404a6c604c144d8f8aa919b18d77357f1df2e5b72e9",
      "scriptpubkey_asm": "OP_PUSHNUM_1 OP_PUSHBYTES_32 8c14ebb694664fce476cd404a6c604c144d8f8aa919b18d77357f1df2e5b72e9",
      "scriptpubkey_type": "v1_p2tr",
      "scriptpubkey_address": "bc1p3s2whd55ve8uu3mv6sz2d3syc9zd3792jxd334mn2lca7tjmwt5s3qp2t7",
      "value": 2996
    },
    {
      "scriptpubkey": "5120d968c7807101fa1619aedcb9ac6392ede3056793267df9385b461d0004c555f5",
      "scriptpubkey_asm": "OP_PUSHNUM_1 OP_PUSHBYTES_32 d968c7807101fa1619aedcb9ac6392ede3056793267df9385b461d0004c555f5",
      "scriptpubkey_type": "v1_p2tr",
      "scriptpubkey_address": "bc1pm95v0qr3q8apvxdwmju6ccujah3s2eunye7ljwzmgcwsqpx92h6scpaz25",
      "value": 2996
    },
    {
      "scriptpubkey": "5120cbc78e0ea57204fabaec4704a112bd3558e9f4c47425fd2ac526da466d1784b1",
      "scriptpubkey_asm": "OP_PUSHNUM_1 OP_PUSHBYTES_32 cbc78e0ea57204fabaec4704a112bd3558e9f4c47425fd2ac526da466d1784b1",
      "scriptpubkey_type": "v1_p2tr",
      "scriptpubkey_address": "bc1pe0rcur49wgz04whvguz2zy4ax4vwnaxywsjl62k9ymdyvmghsjcsepvtxc",
      "value": 2996
    },
    {
      "scriptpubkey": "51201e933b6fb88279ebf8027848af746a5ca9a27ac9792b8bb52fbf291fca22e433",
      "scriptpubkey_asm": "OP_PUSHNUM_1 OP_PUSHBYTES_32 1e933b6fb88279ebf8027848af746a5ca9a27ac9792b8bb52fbf291fca22e433",
      "scriptpubkey_type": "v1_p2tr",
      "scriptpubkey_address": "bc1pr6fnkmacsfu7h7qz0py27ar2tj56y7kf0y4chdf0hu53lj3zuseswf4tmy",
      "value": 2996
    },
    {
      "scriptpubkey": "5120077cfc686b6c061352ed2c6881d28eeac0db21f7b1afcdcc4a490e1dfce5af3a",
      "scriptpubkey_asm": "OP_PUSHNUM_1 OP_PUSHBYTES_32 077cfc686b6c061352ed2c6881d28eeac0db21f7b1afcdcc4a490e1dfce5af3a",
      "scriptpubkey_type": "v1_p2tr",
      "scriptpubkey_address": "bc1pqa70c6rtdsrpx5hd935gr55watqdkg0hkxhumnz2fy8pml894uaqa5j3rc",
      "value": 2996
    },
    {
      "scriptpubkey": "5120c314ba201473acbbd8e6bbb46a83fe9500fcd3bbafbea2927e5f8712effb0691",
      "scriptpubkey_asm": "OP_PUSHNUM_1 OP_PUSHBYTES_32 c314ba201473acbbd8e6bbb46a83fe9500fcd3bbafbea2927e5f8712effb0691",
      "scriptpubkey_type": "v1_p2tr",
      "scriptpubkey_address": "bc1pcv2t5gq5wwkthk8xhw6x4ql7j5q0e5am47l29yn7t7r39mlmq6gsnlqrvn",
      "value": 2996
    },
    {
      "scriptpubkey": "512057916da4c2777c2347e1c7fd999b21b28643cf5ab7432bb4b99f9f3115930481",
      "scriptpubkey_asm": "OP_PUSHNUM_1 OP_PUSHBYTES_32 57916da4c2777c2347e1c7fd999b21b28643cf5ab7432bb4b99f9f3115930481",
      "scriptpubkey_type": "v1_p2tr",
      "scriptpubkey_address": "bc1p27gkmfxzwa7zx3lpcl7enxepk2ry8n66kapjhd9en70nz9vnqjqsqtk99x",
      "value": 2996
    },
    {
      "scriptpubkey": "5120b3d072bdb958844278602876fa34ca4298f1023358f2be8ca1c4661f727cb7be",
      "scriptpubkey_asm": "OP_PUSHNUM_1 OP_PUSHBYTES_32 b3d072bdb958844278602876fa34ca4298f1023358f2be8ca1c4661f727cb7be",
      "scriptpubkey_type": "v1_p2tr",
      "scriptpubkey_address": "bc1pk0g890detzzyy7rq9pm05dx2g2v0zq3ntretar9pc3np7unuk7lqfakx5u",
      "value": 2996
    },
    {
      "scriptpubkey": "5120335184f08b4bf15638cd2e7dee479b964fb43c914e3792064786a85319c5532f",
      "scriptpubkey_asm": "OP_PUSHNUM_1 OP_PUSHBYTES_32 335184f08b4bf15638cd2e7dee479b964fb43c914e3792064786a85319c5532f",
      "scriptpubkey_type": "v1_p2tr",
      "scriptpubkey_address": "bc1pxdgcfuytf0c4vwxd9e77u3umje8mg0y3fcmeypj8s659xxw92vhsqerrpe",
      "value": 2996
    },
    {
      "scriptpubkey": "51200b9f1aa8ca487ad4c4021dd7936181c81b6256194be8055df93f5feeb01bc157",
      "scriptpubkey_asm": "OP_PUSHNUM_1 OP_PUSHBYTES_32 0b9f1aa8ca487ad4c4021dd7936181c81b6256194be8055df93f5feeb01bc157",
      "scriptpubkey_type": "v1_p2tr",
      "scriptpubkey_address": "bc1ppw0342x2fpadf3qzrhtexcvpeqdky4sef05q2h0e8a07avqmc9tsgyf4ff",
      "value": 2996
    },
    {
      "scriptpubkey": "00142186e55ff7da8119658c02ac49854bf44016220c",
      "scriptpubkey_asm": "OP_0 OP_PUSHBYTES_20 2186e55ff7da8119658c02ac49854bf44016220c",
      "scriptpubkey_type": "v0_p2wpkh",
      "scriptpubkey_address": "bc1qyxrw2hlhm2q3jevvq2kynp2t73qpvgsvzf5l5u",
      "value": 53280
    }
  ],
  "size": 1941,
  "weight": 6669,
  "fee": 23352,
  "status": {
    "confirmed": true,
    "block_height": 834460,
    "block_hash": "00000000000000000000484a79b643b2524bbce82e5d8a442013fa5b8905ed98",
    "block_time": 1710307468
  },
  "hex": "02000000000101dc174f6c90f1d45a45ed4a9ae9735e700aa5ab58530f513122e5681ca59cb0690000000000fdffffff24220200000000000017a914d86bcd8c487ad519e95c6557e7463d579cce14a287b40b000000000000225120498b4cc9570bbd2f63694b43b8060693b3e57e61bc750ab1848bc96098ae471fb40b0000000000002251205b1ba8c0077cfa6137bf21e12becd5ad07b82a32850026fd5e2dc05528bb2d75b40b0000000000002251201942b05666ffce921a40f7858d37268d9b5ba9db3d7bb363c65dc97e529c91efb40b000000000000225120eee010400f3e1638c430bcb2b2b81a78d82a7adc3fcd1042713fd9d6be286f30b40b000000000000225120261b34a6b3f0ca716bff7f008bfc29449852ba7b694b2c29ddd5127c30dabfaab40b000000000000225120b08ec4ff24005b3182e1ed7cc8bdacc7f11c49581933b596feac405793767585b40b000000000000225120f7d4779a11472a020a017e4c0df6166545b550f385fadc074106e6590f53a71ba60b000000000000225120a59fd43a8463d9fcbb233437deecd7bef4baac064ebdc7423f1d4d31d33bf8f9b40b00000000000022512087616cfeb28d4cfe4cd8f4c97a4f39f02492c62e9b7764d3f6d286c39a1158fca60b0000000000002251205afafd09243c01a6179e1866c68783bccc6e10d6e25e8be78fc17dad800a22e6b40b00000000000022512022933ab223bbe7e27daaf327afa26dda124598609cff46097bc0852a769184c4b40b000000000000225120b5d524779a79b6a26ef54654162c421ceb41c0eaf50852358be9d649588039bab40b00000000000022512005620ab5d305ec3204102755f4ff571f65a55b764684483ea18ab08bb76f08f4a60b0000000000002251203ec3059f4c5b9918537283ee898d3c2b71c7db2f72e170554b1b8882149f2684b40b0000000000002251200d7de96b18be6be0cd8b280602f5f5c545f7a10f99c8783636e32d606831949ab40b0000000000002251208787f718684601021508446d409b4633bc127497f09ae4284f1ded40e691c8a2b40b000000000000225120bb5cf8873334d88a996a8586f25834c946ba683434771980a7f2ba9348776643b40b000000000000225120c57e75eeb12cd53e5c69764779f1e5a8c147c9d8ae8e9e7565c8e0f846093571b40b0000000000002251201bad74e34274f58ba1b12372bc8bbf4f3ce01bead9e0d9e54e3c675508771da0b40b000000000000225120284b2af0bf51fd58371028960e5aae34cf7984e358da38660d6f8855ec59ed95b40b00000000000022512031aeaa8223769f462e83575ead6652576b558726b6b1541385525ab8c0d96bbbb40b00000000000022512041a10b117c3ae3e84cee2fc4f62c216e258de9d3f1758787a0220d30f8dd9a0eb40b000000000000225120fe9e0cecdf1efa21ea121b6389b4eb5b2c30b413a42b71886548dbf70c4dcd4cb40b00000000000022512089a0a7ff801a8d8a715ffe94bfbd0e389d6412b8a466f85fb4add861589844c2b40b0000000000002251208c14ebb694664fce476cd404a6c604c144d8f8aa919b18d77357f1df2e5b72e9b40b000000000000225120d968c7807101fa1619aedcb9ac6392ede3056793267df9385b461d0004c555f5b40b000000000000225120cbc78e0ea57204fabaec4704a112bd3558e9f4c47425fd2ac526da466d1784b1b40b0000000000002251201e933b6fb88279ebf8027848af746a5ca9a27ac9792b8bb52fbf291fca22e433b40b000000000000225120077cfc686b6c061352ed2c6881d28eeac0db21f7b1afcdcc4a490e1dfce5af3ab40b000000000000225120c314ba201473acbbd8e6bbb46a83fe9500fcd3bbafbea2927e5f8712effb0691b40b00000000000022512057916da4c2777c2347e1c7fd999b21b28643cf5ab7432bb4b99f9f3115930481b40b000000000000225120b3d072bdb958844278602876fa34ca4298f1023358f2be8ca1c4661f727cb7beb40b000000000000225120335184f08b4bf15638cd2e7dee479b964fb43c914e3792064786a85319c5532fb40b0000000000002251200b9f1aa8ca487ad4c4021dd7936181c81b6256194be8055df93f5feeb01bc15720d00000000000001600142186e55ff7da8119658c02ac49854bf44016220c03405899d9cf5be3dff407474ce7dcdaf3b30c42cc99ebb5d7ee46cd192ee73c1f8dc795903676890869ee53f728188c8e8650621c308ff2cf0833fe04be6a2aba8dfd0401204a577465cddc433804eb36604c7f4e13623388ebbfd659afb0af081f175ccbd8ac0063036f726401011e6170706c69636174696f6e2f6a736f6e3b636861727365743d7574662d38004cb77b2270223a22706f772d3230222c226f70223a226d696e74222c227469636b223a2250455045222c22616d74223a2231303030222c22736f6c7574696f6e223a22504550453a334d524d3246744a42504c46315958564766504d33656556746675364446734762623a303030303030303030303030303030303030303139393431613561653132383937363539383134343239323533333030353762306461393666336465613163353a3634303833353736313735227d6821c06b70a06f37e9fa1ff7e7bec8bd1210228b25051d0c17b5264cdd8c73b544f45400000000"
}