{
  "txid": "3f7ab26ffa64ec0734da75276bac98d6eef8218c3c21766a21af0515e1ddf7d1",
  "version": 2,
  "locktime": 0,
  "vin": [
    {
      "txid": "091044a9cc9254c61e8f77b761e92369d242bba09c4855aaddd18617cb5d2474",
      "vout": 1,
      "prevout": {
        "scriptpubkey": "5120d53cf72d3864e8263f220714e7988ed7514aadd2b95af8deda2482814b0e575a",
        "scriptpubkey_asm": "OP_PUSHNUM_1 OP_PUSHBYTES_32 d53cf72d3864e8263f220714e7988ed7514aadd2b95af8deda2482814b0e575a",
        "scriptpubkey_type": "v1_p2tr",
        "scriptpubkey_address": "bc1p6570wtfcvn5zv0ezqu2w0xyw6ag54twjh9d03hk6yjpgzjcw2adqcxn6uy",
        "value": 78070
      },
      "scriptsig": "",
      "scriptsig_asm": "",
      "witness": [
        "db81a543eb8ec8fb5b4265717b6d66e5de0775e8e3aaf19733955da8138a316dc51a25d5405f026f7b84fd89c41f8e419b5f8e69a811d4109e8a3d2838787763"
      ],
      "is_coinbase": false,
      "sequence": 4294967293
    }
  ],
  "vout": [
    {
      "scriptpubkey": "5120c6966eeacf67bbb596f1c01b836de742dcb9a26fdcf03a8ff1d5eabbcd8b4c42",
      "scriptpubkey_asm": "OP_PUSHNUM_1 OP_PUSHBYTES_32 c6966eeacf67bbb596f1c01b836de742dcb9a26fdcf03a8ff1d5eabbcd8b4c42",
      "scriptpubkey_type": "v1_p2tr",
      "scriptpubkey_address": "bc1pc6txa6k0v7amt9h3cqdcxm08gtwtngn0mncr4rl36h4thnvtf3pqucrfgx",
      "value": 3010
    },
    {
      "scriptpubkey": "5120d53cf72d3864e8263f220714e7988ed7514aadd2b95af8deda2482814b0e575a",
      "scriptpubkey_asm": "OP_PUSHNUM_1 OP_PUSHBYTES_32 d53cf72d3864e8263f220714e7988ed7514aadd2b95af8deda2482814b0e575a",
      "scriptpubkey_type": "v1_p2tr",
      "scriptpubkey_address": "bc1p6570wtfcvn5zv0ezqu2w0xyw6ag54twjh9d03hk6yjpgzjcw2adqcxn6uy",
      "value": 72596
    }
  ],
  "size": 205,
  "weight": 616,
  "fee": 2464,
  "status": {
    "confirmed": true,
    "block_height": 834464,
    "block_hash": "0000000000000000000177a0869a911a2b65c9bdcd5a8bcb02b68f305bee848e",
    "block_time": 1710308296
  },
  "hex": "0200000000010174245dcb1786d1ddaa55489ca0bb42d26923e961b7778f1ec65492cca94410090100000000fdffffff02c20b000000000000225120c6966eeacf67bbb596f1c01b836de742dcb9a26fdcf03a8ff1d5eabbcd8b4c42941b010000000000225120d53cf72d3864e8263f220714e7988ed7514aadd2b95af8deda2482814b0e575a0140db81a543eb8ec8fb5b4265717b6d66e5de0775e8e3aaf19733955da8138a316dc51a25d5405f026f7b84fd89c41f8e419b5f8e69a811d4109e8a3d283878776300000000"
}