{
  "txid": "3f7d71eb2067d559de8b7d2610c78e55bfc94f4737265feb2bce7b580b411cda",
  "version": 2,
  "locktime": 0,
  "vin": [
    {
      "txid": "536beb47e4a97925c22b1c28df3e0b0512d52495d316589269c53a272f225393",
      "vout": 59,
      "prevout": {
        "scriptpubkey": "a9141d06650d102a8af08e824d5cd6f5a1764008ef9887",
        "scriptpubkey_asm": "OP_HASH160 OP_PUSHBYTES_20 1d06650d102a8af08e824d5cd6f5a1764008ef98 OP_EQUAL",
        "scriptpubkey_type": "p2sh",
        "scriptpubkey_address": "34LVBRLqQ5Pv2QD9B36QaPKrw2jgAEQ32m",
        "value": 771798
      },
      "scriptsig": "1600144c6f93dfbc926a9cb0f31ed97b7caaa71396987e",
      "scriptsig_asm": "OP_PUSHBYTES_22 00144c6f93dfbc926a9cb0f31ed97b7caaa71396987e",
      "witness": [
        "3045022100dd144a527cd0b15d783e4da8eb325c21f3138a5c747745e1ccadfb9766b4028a0220255f76a72f2606f4b02932a61df4b53d9fc8e10bdfab5e76d2d669660346c14c01",
        "022dca90730e425fdb8f966165482ddfa1dc3582d5dce16e8a83587b2c210341a7"
      ],
      "is_coinbase": false,
      "sequence": 0,
      "inner_redeemscript_asm": "OP_0 OP_PUSHBYTES_20 4c6f93dfbc926a9cb0f31ed97b7caaa71396987e"
    },
    {
      "txid": "190eefcc0f53963b53f78470c11d537adde24ecce4b4deb8bf0c21416cdb73d5",
      "vout": 12,
      "prevout": {
        "scriptpubkey": "a9141d06650d102a8af08e824d5cd6f5a1764008ef9887",
        "scriptpubkey_asm": "OP_HASH160 OP_PUSHBYTES_20 1d06650d102a8af08e824d5cd6f5a1764008ef98 OP_EQUAL",
        "scriptpubkey_type": "p2sh",
        "scriptpubkey_address": "34LVBRLqQ5Pv2QD9B36QaPKrw2jgAEQ32m",
        "value": 729439
      },
      "scriptsig": "1600144c6f93dfbc926a9cb0f31ed97b7caaa71396987e",
      "scriptsig_asm": "OP_PUSHBYTES_22 00144c6f93dfbc926a9cb0f31ed97b7caaa71396987e",
      "witness": [
        "3045022100d954900fd30037419f9a492774f08d5908adbd1fc830755d37e9520c82bde51a022041b49520aacf8def3d031b0bd979307c1d05e589c985f21411da61b3827d43e001",
        "022dca90730e425fdb8f966165482ddfa1dc3582d5dce16e8a83587b2c210341a7"
      ],
      "is_coinbase": false,
      "sequence": 0,
      "inner_redeemscript_asm": "OP_0 OP_PUSHBYTES_20 4c6f93dfbc926a9cb0f31ed97b7caaa71396987e"
    },
    {
      "txid": "7be32ec85ac97953bada2e866c22cf44484edeae1d6e3e345f41a58d221e6a72",
      "vout": 17,
      "prevout": {
        "scriptpubkey": "a9141d06650d102a8af08e824d5cd6f5a1764008ef9887",
        "scriptpubkey_asm": "OP_HASH160 OP_PUSHBYTES_20 1d06650d102a8af08e824d5cd6f5a1764008ef98 OP_EQUAL",
        "scriptpubkey_type": "p2sh",
        "scriptpubkey_address": "34LVBRLqQ5Pv2QD9B36QaPKrw2jgAEQ32m",
        "value": 741001
      },
      "scriptsig": "1600144c6f93dfbc926a9cb0f31ed97b7caaa71396987e",
      "scriptsig_asm": "OP_PUSHBYTES_22 00144c6f93dfbc926a9cb0f31ed97b7caaa71396987e",
      "witness": [
        "3044022015b8ed1caa0c17a7d25e6349d60baca49ddee58946be89a4438fded4380677db02205b765c03676ad0e8b43e90eede592d94d381a84d37e40d20f775f4b9d4dba9d401",
        "022dca90730e425fdb8f966165482ddfa1dc3582d5dce16e8a83587b2c210341a7"
      ],
      "is_coinbase": false,
      "sequence": 0,
      "inner_redeemscript_asm": "OP_0 OP_PUSHBYTES_20 4c6f93dfbc926a9cb0f31ed97b7caaa71396987e"
    },
    {
      "txid": "853a20f8aabda4f7f2094f37d3e7ed38069b5fc7dc1e8e3a155cde03a0a8f2f3",
      "vout": 94,
      "prevout": {
        "scriptpubkey": "a9141d06650d102a8af08e824d5cd6f5a1764008ef9887",
        "scriptpubkey_asm": "OP_HASH160 OP_PUSHBYTES_20 1d06650d102a8af08e824d5cd6f5a1764008ef98 OP_EQUAL",
        "scriptpubkey_type": "p2sh",
        "scriptpubkey_address": "34LVBRLqQ5Pv2QD9B36QaPKrw2jgAEQ32m",
        "value": 745606
      },
      "scriptsig": "1600144c6f93dfbc926a9cb0f31ed97b7caaa71396987e",
      "scriptsig_asm": "OP_PUSHBYTES_22 00144c6f93dfbc926a9cb0f31ed97b7caaa71396987e",
      "witness": [
        "3045022100a4693a2b25b43122e6244c4907590debf70b35728615789f62ef9792d1a67a860220146d3d4233ae86ec3e8ac507a013bacdfbc898e40ef465d9e9c63d37db254b5401",
        "022dca90730e425fdb8f966165482ddfa1dc3582d5dce16e8a83587b2c210341a7"
      ],
      "is_coinbase": false,
      "sequence": 0,
      "inner_redeemscript_asm": "OP_0 OP_PUSHBYTES_20 4c6f93dfbc926a9cb0f31ed97b7caaa71396987e"
    },
    {
      "txid": "d075b08981395ad841ef45d7489ca323665403750b3120e6ccf1994ad136bc85",
      "vout": 99,
      "prevout": {
        "scriptpubkey": "a9141d06650d102a8af08e824d5cd6f5a1764008ef9887",
        "scriptpubkey_asm": "OP_HASH160 OP_PUSHBYTES_20 1d06650d102a8af08e824d5cd6f5a1764008ef98 OP_EQUAL",
        "scriptpubkey_type": "p2sh",
        "scriptpubkey_address": "34LVBRLqQ5Pv2QD9B36QaPKrw2jgAEQ32m",
        "value": 742449
      },
      "scriptsig": "1600144c6f93dfbc926a9cb0f31ed97b7caaa71396987e",
      "scriptsig_asm": "OP_PUSHBYTES_22 00144c6f93dfbc926a9cb0f31ed97b7caaa71396987e",
      "witness": [
        "30440220430e05282de41ec54507cf70b323217dc063bb9f932b159084655ca73eb55e4402205e42de46d08742aff4f374851bcf6874e8dabaceaf163d57b853d8effad2281801",
        "022dca90730e425fdb8f966165482ddfa1dc3582d5dce16e8a83587b2c210341a7"
      ],
      "is_coinbase": false,
      "sequence": 0,
      "inner_redeemscript_asm": "OP_0 OP_PUSHBYTES_20 4c6f93dfbc926a9cb0f31ed97b7caaa71396987e"
    },
    {
      "txid": "c06b491e538fbf81947676a37df285c3b9b7e7281b55e50537a785fd132e1d6d",
      "vout": 71,
      "prevout": {
        "scriptpubkey": "a9141d06650d102a8af08e824d5cd6f5a1764008ef9887",
        "scriptpubkey_asm": "OP_HASH160 OP_PUSHBYTES_20 1d06650d102a8af08e824d5cd6f5a1764008ef98 OP_EQUAL",
        "scriptpubkey_type": "p2sh",
        "scriptpubkey_address": "34LVBRLqQ5Pv2QD9B36QaPKrw2jgAEQ32m",
        "value": 728425
      },
      "scriptsig": "1600144c6f93dfbc926a9cb0f31ed97b7caaa71396987e",
      "scriptsig_asm": "OP_PUSHBYTES_22 00144c6f93dfbc926a9cb0f31ed97b7caaa71396987e",
      "witness": [
        "304402200b89bd7ae755b53b49b7870570ca82fed7de01fd2ef12061facd248b5895894502202f0755b09a59d0bdfc7cdb8dcf1c1b8e87c86840078c485ab974719456057c2101",
        "022dca90730e425fdb8f966165482ddfa1dc3582d5dce16e8a83587b2c210341a7"
      ],
      "is_coinbase": false,
      "sequence": 0,
      "inner_redeemscript_asm": "OP_0 OP_PUSHBYTES_20 4c6f93dfbc926a9cb0f31ed97b7caaa71396987e"
    },
    {
      "txid": "7fd292519b81c04da3f724800449329344e832f710e997a6cdd4bf5b2363fcf1",
      "vout": 100,
      "prevout": {
        "scriptpubkey": "a9141d06650d102a8af08e824d5cd6f5a1764008ef9887",
        "scriptpubkey_asm": "OP_HASH160 OP_PUSHBYTES_20 1d06650d102a8af08e824d5cd6f5a1764008ef98 OP_EQUAL",
        "scriptpubkey_type": "p2sh",
        "scriptpubkey_address": "34LVBRLqQ5Pv2QD9B36QaPKrw2jgAEQ32m",
        "value": 744952
      },
      "scriptsig": "1600144c6f93dfbc926a9cb0f31ed97b7caaa71396987e",
      "scriptsig_asm": "OP_PUSHBYTES_22 00144c6f93dfbc926a9cb0f31ed97b7caaa71396987e",
      "witness": [
        "3044022050f63ad35bc9dd17d28f7406087f2ea4efd8f0be197339b353724efeab7c52c302207c984d27da70efde4558fac0e0701e9ebaf1254426f0f8dffc0b259772c7f5b601",
        "022dca90730e425fdb8f966165482ddfa1dc3582d5dce16e8a83587b2c210341a7"
      ],
      "is_coinbase": false,
      "sequence": 0,
      "inner_redeemscript_asm": "OP_0 OP_PUSHBYTES_20 4c6f93dfbc926a9cb0f31ed97b7caaa71396987e"
    },
    {
      "txid": "11b7da9152845ef653460f36422f4f20d40f93661c08a81e057bdccb939dc076",
      "vout": 74,
      "prevout": {
        "scriptpubkey": "a9141d06650d102a8af08e824d5cd6f5a1764008ef9887",
        "scriptpubkey_asm": "OP_HASH160 OP_PUSHBYTES_20 1d06650d102a8af08e824d5cd6f5a1764008ef98 OP_EQUAL",
        "scriptpubkey_type": "p2sh",
        "scriptpubkey_address": "34LVBRLqQ5Pv2QD9B36QaPKrw2jgAEQ32m",
        "value": 730206
      },
      "scriptsig": "1600144c6f93dfbc926a9cb0f31ed97b7caaa71396987e",
      "scriptsig_asm": "OP_PUSHBYTES_22 00144c6f93dfbc926a9cb0f31ed97b7caaa71396987e",
      "witness": [
        "304502210090aea75f6c40db685962749dce915810fcbdddf4a4f6f2faf02c8ad4ba80c3a10220428912533a057f7037ce17a82935c7276b456c284603d0a05b0844549211ff9701",
        "022dca90730e425fdb8f966165482ddfa1dc3582d5dce16e8a83587b2c210341a7"
      ],
      "is_coinbase": false,
      "sequence": 0,
      "inner_redeemscript_asm": "OP_0 OP_PUSHBYTES_20 4c6f93dfbc926a9cb0f31ed97b7caaa71396987e"
    },
    {
      "txid": "791c8480cbd126a91428fcc38bff23889222d622b92ed91252c322b8429049e3",
      "vout": 96,
      "prevout": {
        "scriptpubkey": "a9141d06650d102a8af08e824d5cd6f5a1764008ef9887",
        "scriptpubkey_asm": "OP_HASH160 OP_PUSHBYTES_20 1d06650d102a8af08e824d5cd6f5a1764008ef98 OP_EQUAL",
        "scriptpubkey_type": "p2sh",
        "scriptpubkey_address": "34LVBRLqQ5Pv2QD9B36QaPKrw2jgAEQ32m",
        "value": 696603
      },
      "scriptsig": "1600144c6f93dfbc926a9cb0f31ed97b7caaa71396987e",
      "scriptsig_asm": "OP_PUSHBYTES_22 00144c6f93dfbc926a9cb0f31ed97b7caaa71396987e",
      "witness": [
        "304402207777a230bda515397aeabf96dbe2b0649ba465150e3dfb5579c6738fbe90f50f0220606dc3c61b6ad434a20bf97c8f072dc2cacdd8172112fd24d21c66eade229a5e01",
        "022dca90730e425fdb8f966165482ddfa1dc3582d5dce16e8a83587b2c210341a7"
      ],
      "is_coinbase": false,
      "sequence": 0,
      "inner_redeemscript_asm": "OP_0 OP_PUSHBYTES_20 4c6f93dfbc926a9cb0f31ed97b7caaa71396987e"
    },
    {
      "txid": "ff1d4187b3ccfe3e9e698e6b5eb736850f498bd08a083f9bd13f466b4d82ef9d",
      "vout": 56,
      "prevout": {
        "scriptpubkey": "a9141d06650d102a8af08e824d5cd6f5a1764008ef9887",
        "scriptpubkey_asm": "OP_HASH160 OP_PUSHBYTES_20 1d06650d102a8af08e824d5cd6f5a1764008ef98 OP_EQUAL",
        "scriptpubkey_type": "p2sh",
        "scriptpubkey_address": "34LVBRLqQ5Pv2QD9B36QaPKrw2jgAEQ32m",
        "value": 635181
      },
      "scriptsig": "1600144c6f93dfbc926a9cb0f31ed97b7caaa71396987e",
      "scriptsig_asm": "OP_PUSHBYTES_22 00144c6f93dfbc926a9cb0f31ed97b7caaa71396987e",
      "witness": [
        "3045022100e6752e885db6f1e80ca4a230d05f504dd6be597bccea75ff9a0b24dc66acf3f3022027d015abd75589539b1dbae8935aa683b1a9086da8b0e6a527f1e8c67815a04801",
        "022dca90730e425fdb8f966165482ddfa1dc3582d5dce16e8a83587b2c210341a7"
      ],
      "is_coinbase": false,
      "sequence": 0,
      "inner_redeemscript_asm": "OP_0 OP_PUSHBYTES_20 4c6f93dfbc926a9cb0f31ed97b7caaa71396987e"
    },
    {
      "txid": "4ecdaaf51c51f8e8f9d6cf191fbb0ee9e78d656ee53056a195ee844275c344ff",
      "vout": 28,
      "prevout": {
        "scriptpubkey": "a9141d06650d102a8af08e824d5cd6f5a1764008ef9887",
        "scriptpubkey_asm": "OP_HASH160 OP_PUSHBYTES_20 1d06650d102a8af08e824d5cd6f5a1764008ef98 OP_EQUAL",
        "scriptpubkey_type": "p2sh",
        "scriptpubkey_address": "34LVBRLqQ5Pv2QD9B36QaPKrw2jgAEQ32m",
        "value": 681092
      },
      "scriptsig": "1600144c6f93dfbc926a9cb0f31ed97b7caaa71396987e",
      "scriptsig_asm": "OP_PUSHBYTES_22 00144c6f93dfbc926a9cb0f31ed97b7caaa71396987e",
      "witness": [
        "3045022100e0211b054c3f39aee4c1797d36e1135b71a59eb8a1bb7bcd26069e240bbc89390220201f791383bb9350f29d48470db8688d72303245dced59619f1e5bf699edf5a501",
        "022dca90730e425fdb8f966165482ddfa1dc3582d5dce16e8a83587b2c210341a7"
      ],
      "is_coinbase": false,
      "sequence": 0,
      "inner_redeemscript_asm": "OP_0 OP_PUSHBYTES_20 4c6f93dfbc926a9cb0f31ed97b7caaa71396987e"
    },
    {
      "txid": "99f24244cfa48b90c8ee942e18e64409828e5d6af85351d00f5c89264d6b6323",
      "vout": 33,
      "prevout": {
        "scriptpubkey": "a9141d06650d102a8af08e824d5cd6f5a1764008ef9887",
        "scriptpubkey_asm": "OP_HASH160 OP_PUSHBYTES_20 1d06650d102a8af08e824d5cd6f5a1764008ef98 OP_EQUAL",
        "scriptpubkey_type": "p2sh",
        "scriptpubkey_address": "34LVBRLqQ5Pv2QD9B36QaPKrw2jgAEQ32m",
        "value": 673037
      },
      "scriptsig": "1600144c6f93dfbc926a9cb0f31ed97b7caaa71396987e",
      "scriptsig_asm": "OP_PUSHBYTES_22 00144c6f93dfbc926a9cb0f31ed97b7caaa71396987e",
      "witness": [
        "3044022045ccd3b2e9b90fa81b55106e40a658a89b48441876f77719db9bf11d708d9554022033fa77aa0c5c0969756807582f768d14e1827be06fdf4d850d32654139e72f1d01",
        "022dca90730e425fdb8f966165482ddfa1dc3582d5dce16e8a83587b2c210341a7"
      ],
      "is_coinbase": false,
      "sequence": 0,
      "inner_redeemscript_asm": "OP_0 OP_PUSHBYTES_20 4c6f93dfbc926a9cb0f31ed97b7caaa71396987e"
    },
    {
      "txid": "e4650a2841a7e702475d8c7d3b59c12caae6a2d65f94734e1effb92c237cbbd6",
      "vout": 50,
      "prevout": {
        "scriptpubkey": "a9141d06650d102a8af08e824d5cd6f5a1764008ef9887",
        "scriptpubkey_asm": "OP_HASH160 OP_PUSHBYTES_20 1d06650d102a8af08e824d5cd6f5a1764008ef98 OP_EQUAL",
        "scriptpubkey_type": "p2sh",
        "scriptpubkey_address": "34LVBRLqQ5Pv2QD9B36QaPKrw2jgAEQ32m",
        "value": 669589
      },
      "scriptsig": "1600144c6f93dfbc926a9cb0f31ed97b7caaa71396987e",
      "scriptsig_asm": "OP_PUSHBYTES_22 00144c6f93dfbc926a9cb0f31ed97b7caaa71396987e",
      "witness": [
        "304402203fce002d5ec2edd5486355beb15df9ce9113dc7103966744985589b226409da002206265e53e9bd1ef3f87e215a4d9f1fc7cb7ad8608e6b9bf02e9c980ffe9fabea101",
        "022dca90730e425fdb8f966165482ddfa1dc3582d5dce16e8a83587b2c210341a7"
      ],
      "is_coinbase": false,
      "sequence": 0,
      "inner_redeemscript_asm": "OP_0 OP_PUSHBYTES_20 4c6f93dfbc926a9cb0f31ed97b7caaa71396987e"
    },
    {
      "txid": "65553d283d13e34b0db8aef0270c04f330c835ad475a0d25764ee45bd4fc18b8",
      "vout": 81,
      "prevout": {
        "scriptpubkey": "a9141d06650d102a8af08e824d5cd6f5a1764008ef9887",
        "scriptpubkey_asm": "OP_HASH160 OP_PUSHBYTES_20 1d06650d102a8af08e824d5cd6f5a1764008ef98 OP_EQUAL",
        "scriptpubkey_type": "p2sh",
        "scriptpubkey_address": "34LVBRLqQ5Pv2QD9B36QaPKrw2jgAEQ32m",
        "value": 672680
      },
      "scriptsig": "1600144c6f93dfbc926a9cb0f31ed97b7caaa71396987e",
      "scriptsig_asm": "OP_PUSHBYTES_22 00144c6f93dfbc926a9cb0f31ed97b7caaa71396987e",
      "witness": [
        "3045022100ecaa02e6413be3db31349338bf84b8ba9e7bf986cccf8583fd75a17b262e40fa0220146a4f491e6ae29be33b8ca68d7486cc65ad1d157c4ac5b747547c29836c075101",
        "022dca90730e425fdb8f966165482ddfa1dc3582d5dce16e8a83587b2c210341a7"
      ],
      "is_coinbase": false,
      "sequence": 0,
      "inner_redeemscript_asm": "OP_0 OP_PUSHBYTES_20 4c6f93dfbc926a9cb0f31ed97b7caaa71396987e"
    },
    {
      "txid": "69bfd3bb01b93f28e6fb45d7cd5cc408dcf891fc271248e3617933116a8f0281",
      "vout": 75,
      "prevout": {
        "scriptpubkey": "a9141d06650d102a8af08e824d5cd6f5a1764008ef9887",
        "scriptpubkey_asm": "OP_HASH160 OP_PUSHBYTES_20 1d06650d102a8af08e824d5cd6f5a1764008ef98 OP_EQUAL",
        "scriptpubkey_type": "p2sh",
        "scriptpubkey_address": "34LVBRLqQ5Pv2QD9B36QaPKrw2jgAEQ32m",
        "value": 630295
      },
      "scriptsig": "1600144c6f93dfbc926a9cb0f31ed97b7caaa71396987e",
      "scriptsig_asm": "OP_PUSHBYTES_22 00144c6f93dfbc926a9cb0f31ed97b7caaa71396987e",
      "witness": [
        "30440220638b50060aaa5e3a955f13452aa6d745eb8c51be5bd5d7ff5a37f52d52916e4402205b790fce182769c54f331ef7d8b05fefe173063730bffe40e6382776f9bac72301",
        "022dca90730e425fdb8f966165482ddfa1dc3582d5dce16e8a83587b2c210341a7"
      ],
      "is_coinbase": false,
      "sequence": 0,
      "inner_redeemscript_asm": "OP_0 OP_PUSHBYTES_20 4c6f93dfbc926a9cb0f31ed97b7caaa71396987e"
    }
  ],
  "vout": [
    {
      "scriptpubkey": "76a914aedb886299ee8f13f86862ac0b48a9c7ef64329688ac",
      "scriptpubkey_asm": "OP_DUP OP_HASH160 OP_PUSHBYTES_20 aedb886299ee8f13f86862ac0b48a9c7ef643296 OP_EQUALVERIFY OP_CHECKSIG",
      "scriptpubkey_type": "p2pkh",
      "scriptpubkey_address": "1GwZZnLbmot6pVjdrejwVskzEHzwuKxCcn",
      "value": 10000000
    },
    {
      "scriptpubkey": "a914ff8e726d1fe5f94f1e88cb218a5bd3b1b799548987",
      "scriptpubkey_asm": "OP_HASH160 OP_PUSHBYTES_20 ff8e726d1fe5f94f1e88cb218a5bd3b1b7995489 OP_EQUAL",
      "scriptpubkey_type": "p2sh",
      "scriptpubkey_address": "3QzGsrFkKbwrdSF9T6kcJHRGVrHjrh1WXa",
      "value": 553999
    }
  ],
  "size": 2650,
  "weight": 5758,
  "fee": 38354,
  "status": {
    "confirmed": true,
    "block_height": 834638,
    "block_hash": "000000000000000000025f742c626208ac87e0b7d15054abb4a19ca2d735a54e",
    "block_time": 1710405325
  },
  "hex": "0200000000010f9353222f273ac569925816d39524d512050b3edf281c2bc22579a9e447eb6b533b000000171600144c6f93dfbc926a9cb0f31ed97b7caaa71396987e00000000d573db6c41210cbfb8deb4e4cc4ee2dd7a531dc17084f7533b96530fccef0e190c000000171600144c6f93dfbc926a9cb0f31ed97b7caaa71396987e00000000726a1e228da5415f343e6e1daede4e4844cf226c862edaba5379c95ac82ee37b11000000171600144c6f93dfbc926a9cb0f31ed97b7caaa71396987e00000000f3f2a8a003de5c153a8e1edcc75f9b0638ede7d3374f09f2f7a4bdaaf8203a855e000000171600144c6f93dfbc926a9cb0f31ed97b7caaa71396987e0000000085bc36d14a99f1cce620310b7503546623a39c48d745ef41d85a398189b075d063000000171600144c6f93dfbc926a9cb0f31ed97b7caaa71396987e000000006d1d2e13fd85a73705e5551b28e7b7b9c385f27da376769481bf8f531e496bc047000000171600144c6f93dfbc926a9cb0f31ed97b7caaa71396987e00000000f1fc63235bbfd4cda697e910f732e844933249048024f7a34dc0819b5192d27f64000000171600144c6f93dfbc926a9cb0f31ed97b7caaa71396987e0000000076c09d93cbdc7b051ea8081c66930fd4204f2f42360f4653f65e845291dab7114a000000171600144c6f93dfbc926a9cb0f31ed97b7caaa71396987e00000000e3499042b822c35212d92eb922d622928823ff8bc3fc2814a926d1cb80841c7960000000171600144c6f93dfbc926a9cb0f31ed97b7caaa71396987e000000009def824d6b463fd19b3f088ad08b490f8536b75e6b8e699e3efeccb387411dff38000000171600144c6f93dfbc926a9cb0f31ed97b7caaa71396987e00000000ff44c3754284ee95a15630e56e658de7e90ebb1f19cfd6f9e8f8511cf5aacd4e1c000000171600144c6f93dfbc926a9cb0f31ed97b7caaa71396987e0000000023636b4d26895c0fd05153f86a5d8e820944e6182e94eec8908ba4cf4442f29921000000171600144c6f93dfbc926a9cb0f31ed97b7caaa71396987e00000000d6bb7c232cb9ff1e4e73945fd6a2e6aa2cc1593b7d8c5d4702e7a741280a65e432000000171600144c6f93dfbc926a9cb0f31ed97b7caaa71396987e00000000b818fcd45be44e76250d5a47ad35c830f3040c27f0aeb80d4be3133d283d556551000000171600144c6f93dfbc926a9cb0f31ed97b7caaa71396987e0000000081028f6a11337961e3481227fc91f8dc08c45ccdd745fbe6283fb901bbd3bf694b000000171600144c6f93dfbc926a9cb0f31ed97b7caaa71396987e000000000280969800000000001976a914aedb886299ee8f13f86862ac0b48a9c7ef64329688ac0f7408000000000017a914ff8e726d1fe5f94f1e88cb218a5bd3b1b79954898702483045022100dd144a527cd0b15d783e4da8eb325c21f3138a5c747745e1ccadfb9766b4028a0220255f76a72f2606f4b02932a61df4b53d9fc8e10bdfab5e76d2d669660346c14c0121022dca90730e425fdb8f966165482ddfa1dc3582d5dce16e8a83587b2c210341a702483045022100d954900fd30037419f9a492774f08d5908adbd1fc830755d37e9520c82bde51a022041b49520aacf8def3d031b0bd979307c1d05e589c985f21411da61b3827d43e00121022dca90730e425fdb8f966165482ddfa1dc3582d5dce16e8a83587b2c210341a702473044022015b8ed1caa0c17a7d25e6349d60baca49ddee58946be89a4438fded4380677db02205b765c03676ad0e8b43e90eede592d94d381a84d37e40d20f775f4b9d4dba9d40121022dca90730e425fdb8f966165482ddfa1dc3582d5dce16e8a83587b2c210341a702483045022100a4693a2b25b43122e6244c4907590debf70b35728615789f62ef9792d1a67a860220146d3d4233ae86ec3e8ac507a013bacdfbc898e40ef465d9e9c63d37db254b540121022dca90730e425fdb8f966165482ddfa1dc3582d5dce16e8a83587b2c210341a7024730440220430e05282de41ec54507cf70b323217dc063bb9f932b159084655ca73eb55e4402205e42de46d08742aff4f374851bcf6874e8dabaceaf163d57b853d8effad228180121022dca90730e425fdb8f966165482ddfa1dc3582d5dce16e8a83587b2c210341a70247304402200b89bd7ae755b53b49b7870570ca82fed7de01fd2ef12061facd248b5895894502202f0755b09a59d0bdfc7cdb8dcf1c1b8e87c86840078c485ab974719456057c210121022dca90730e425fdb8f966165482ddfa1dc3582d5dce16e8a83587b2c210341a702473044022050f63ad35bc9dd17d28f7406087f2ea4efd8f0be197339b353724efeab7c52c302207c984d27da70efde4558fac0e0701e9ebaf1254426f0f8dffc0b259772c7f5b60121022dca90730e425fdb8f966165482ddfa1dc3582d5dce16e8a83587b2c210341a70248304502210090aea75f6c40db685962749dce915810fcbdddf4a4f6f2faf02c8ad4ba80c3a10220428912533a057f7037ce17a82935c7276b456c284603d0a05b0844549211ff970121022dca90730e425fdb8f966165482ddfa1dc3582d5dce16e8a83587b2c210341a70247304402207777a230bda515397aeabf96dbe2b0649ba465150e3dfb5579c6738fbe90f50f0220606dc3c61b6ad434a20bf97c8f072dc2cacdd8172112fd24d21c66eade229a5e0121022dca90730e425fdb8f966165482ddfa1dc3582d5dce16e8a83587b2c210341a702483045022100e6752e885db6f1e80ca4a230d05f504dd6be597bccea75ff9a0b24dc66acf3f3022027d015abd75589539b1dbae8935aa683b1a9086da8b0e6a527f1e8c67815a0480121022dca90730e425fdb8f966165482ddfa1dc3582d5dce16e8a83587b2c210341a702483045022100e0211b054c3f39aee4c1797d36e1135b71a59eb8a1bb7bcd26069e240bbc89390220201f791383bb9350f29d48470db8688d72303245dced59619f1e5bf699edf5a50121022dca90730e425fdb8f966165482ddfa1dc3582d5dce16e8a83587b2c210341a702473044022045ccd3b2e9b90fa81b55106e40a658a89b48441876f77719db9bf11d708d9554022033fa77aa0c5c0969756807582f768d14e1827be06fdf4d850d32654139e72f1d0121022dca90730e425fdb8f966165482ddfa1dc3582d5dce16e8a83587b2c210341a70247304402203fce002d5ec2edd5486355beb15df9ce9113dc7103966744985589b226409da002206265e53e9bd1ef3f87e215a4d9f1fc7cb7ad8608e6b9bf02e9c980ffe9fabea10121022dca90730e425fdb8f966165482ddfa1dc3582d5dce16e8a83587b2c210341a702483045022100ecaa02e6413be3db31349338bf84b8ba9e7bf986cccf8583fd75a17b262e40fa0220146a4f491e6ae29be33b8ca68d7486cc65ad1d157c4ac5b747547c29836c07510121022dca90730e425fdb8f966165482ddfa1dc3582d5dce16e8a83587b2c210341a7024730440220638b50060aaa5e3a955f13452aa6d745eb8c51be5bd5d7ff5a37f52d52916e4402205b790fce182769c54f331ef7d8b05fefe173063730bffe40e6382776f9bac7230121022dca90730e425fdb8f966165482ddfa1dc3582d5dce16e8a83587b2c210341a700000000"
}