{
  "txid": "3f9b1db21b20a831ce199181543d539f1a1b339da9597b4af80b7e2066a09e83",
  "version": 2,
  "locktime": 0,
  "vin": [
    {
      "txid": "7165e2e3adee3fa0d61cfea0d4bf8ae34b71cdde6fabfc8ee73070b4828f7cf7",
      "vout": 1,
      "prevout": {
        "scriptpubkey": "a914aa780c056a761282159ef0f753ae6cf483f5783987",
        "scriptpubkey_asm": "OP_HASH160 OP_PUSHBYTES_20 aa780c056a761282159ef0f753ae6cf483f57839 OP_EQUAL",
        "scriptpubkey_type": "p2sh",
        "scriptpubkey_address": "3HENcATB5gKgrXcU7YimxL9Ka2QK4vq6VK",
        "value": 758366
      },
      "scriptsig": "1600149b467a6488b4b464e28e496f15893ad273842dc7",
      "scriptsig_asm": "OP_PUSHBYTES_22 00149b467a6488b4b464e28e496f15893ad273842dc7",
      "witness": [
        "3045022100bcb8532b2847af5c643550a166a05cb390eceb7fcce703de5d415d57c4f0d3c302201e12d88aa86e7120212c997c9a420bae544060a2c14480a966e55d25f4cb1f9b01",
        "02339407d277a6e538e55a9f3783ba651a268cf6664ed88543c489dc6587b6b9cc"
      ],
      "is_coinbase": false,
      "sequence": 4294967295,
      "inner_redeemscript_asm": "OP_0 OP_PUSHBYTES_20 9b467a6488b4b464e28e496f15893ad273842dc7"
    }
  ],
  "vout": [
    {
      "scriptpubkey": "001448dfa704897f78fdfbc2b9534055dd9b219ef5a8",
      "scriptpubkey_asm": "OP_0 OP_PUSHBYTES_20 48dfa704897f78fdfbc2b9534055dd9b219ef5a8",
      "scriptpubkey_type": "v0_p2wpkh",
      "scriptpubkey_address": "bc1qfr06wpyf0au0m77zh9f5q4wanvseaadgq9qhf9",
      "value": 12465
    },
    {
      "scriptpubkey": "a914aa780c056a761282159ef0f753ae6cf483f5783987",
      "scriptpubkey_asm": "OP_HASH160 OP_PUSHBYTES_20 aa780c056a761282159ef0f753ae6cf483f57839 OP_EQUAL",
      "scriptpubkey_type": "p2sh",
      "scriptpubkey_address": "3HENcATB5gKgrXcU7YimxL9Ka2QK4vq6VK",
      "value": 743756
    }
  ],
  "size": 247,
  "weight": 658,
  "fee": 2145,
  "status": {
    "confirmed": true,
    "block_height": 834460,
    "block_hash": "00000000000000000000484a79b643b2524bbce82e5d8a442013fa5b8905ed98",
    "block_time": 1710307468
  },
  "hex": "02000000000101f77c8f82b47030e78efcab6fdecd714be38abfd4a0fe1cd6a03feeade3e2657101000000171600149b467a6488b4b464e28e496f15893ad273842dc7ffffffff02b13000000000000016001448dfa704897f78fdfbc2b9534055dd9b219ef5a84c590b000000000017a914aa780c056a761282159ef0f753ae6cf483f578398702483045022100bcb8532b2847af5c643550a166a05cb390eceb7fcce703de5d415d57c4f0d3c302201e12d88aa86e7120212c997c9a420bae544060a2c14480a966e55d25f4cb1f9b012102339407d277a6e538e55a9f3783ba651a268cf6664ed88543c489dc6587b6b9cc00000000"
}