{
  "txid": "3f9e7f855027d7d6f3db697ce76b41323805d879d821224ffa77c8e0b4ba9118",
  "version": 2,
  "locktime": 834458,
  "vin": [
    {
      "txid": "201049f2677d04059130b344b9b53a5e79c9a317084a2ab12c7361302c204444",
      "vout": 0,
      "prevout": {
        "scriptpubkey": "00145981dc3c4a48b2712913e2601dbe524a7a03356c",
        "scriptpubkey_asm": "OP_0 OP_PUSHBYTES_20 5981dc3c4a48b2712913e2601dbe524a7a03356c",
        "scriptpubkey_type": "v0_p2wpkh",
        "scriptpubkey_address": "bc1qtxqac0z2fze8z2gnufspm0jjffaqxdtv4gcgqx",
        "value": 3892580
      },
      "scriptsig": "",
      "scriptsig_asm": "",
      "witness": [
        "304402201c339998263140945cb5deeaaa6815c554713182f836b6c719c7124aff645f7e022007bca822111b544a805e64d5cafcf3f5bb85e22debeaa35fa777e0789a14051f01",
        "02905fa3658344be67e582e233cf1fc6c3e6f1e4ff5ce7d1993be4eed007945762"
      ],
      "is_coinbase": false,
      "sequence": 4294967293
    },
    {
      "txid": "23f0aef38067dcf0c239ae7b49c33ccfd460153811d9a6e9ca562de5fd0e4eb5",
      "vout": 0,
      "prevout": {
        "scriptpubkey": "00145981dc3c4a48b2712913e2601dbe524a7a03356c",
        "scriptpubkey_asm": "OP_0 OP_PUSHBYTES_20 5981dc3c4a48b2712913e2601dbe524a7a03356c",
        "scriptpubkey_type": "v0_p2wpkh",
        "scriptpubkey_address": "bc1qtxqac0z2fze8z2gnufspm0jjffaqxdtv4gcgqx",
        "value": 4473669
      },
      "scriptsig": "",
      "scriptsig_asm": "",
      "witness": [
        "304402200264aca90d1b78b9bc420d20fc87032a87c74c1704cd5e0cc318df1102969a38022032468b877989c1703aebb084749b37b4adf6f5e375c99277e64dece6e02c747901",
        "02905fa3658344be67e582e233cf1fc6c3e6f1e4ff5ce7d1993be4eed007945762"
      ],
      "is_coinbase": false,
      "sequence": 4294967293
    },
    {
      "txid": "28e92063d9235009239e9b32b290a8603cb0c4d0683f271306f1c920605666c0",
      "vout": 9,
      "prevout": {
        "scriptpubkey": "001480046c8312c31882e2c2c2c67268dcc691381be9",
        "scriptpubkey_asm": "OP_0 OP_PUSHBYTES_20 80046c8312c31882e2c2c2c67268dcc691381be9",
        "scriptpubkey_type": "v0_p2wpkh",
        "scriptpubkey_address": "bc1qsqzxeqcjcvvg9ckzctr8y6xuc6gnsxlfps6xfp",
        "value": 2504480
      },
      "scriptsig": "",
      "scriptsig_asm": "",
      "witness": [
        "304402203ce92071273f650111126d3479744f9eae087477e991e7f7939f4703f23af052022011e8791193b5d7ca7b6ce0a5c1d4d836bea27ad346984cb0a2ca49da695aa11101",
        "033f760234c7090e4a6956c37daac797bc1a22efd21c241770864903f9773ed30c"
      ],
      "is_coinbase": false,
      "sequence": 4294967293
    },
    {
      "txid": "78223165d5e97c1b340f6c88a84097508bc154b526a74398d3b94f4d2e1a59ec",
      "vout": 2,
      "prevout": {
        "scriptpubkey": "0014d50fe57e2b36fe8cb2c366e3fb52fbddd5b20259",
        "scriptpubkey_asm": "OP_0 OP_PUSHBYTES_20 d50fe57e2b36fe8cb2c366e3fb52fbddd5b20259",
        "scriptpubkey_type": "v0_p2wpkh",
        "scriptpubkey_address": "bc1q65872l3txmlgevkrvm3lk5hmmh2myqje5r8mwq",
        "value": 10249700
      },
      "scriptsig": "",
      "scriptsig_asm": "",
      "witness": [
        "30440220254d2aa335084e16d04d15c33db58a373f3d8e69a17689d3d830ad18e1820d1802203ec0cc2b26995e4831a022c9bdea8d26aef89f838ca295f3e129f162bd26de0401",
        "039250b1ac62c9a6e392621472b492c10a9dc870ebec2e3e6183c5e7cdbe031afa"
      ],
      "is_coinbase": false,
      "sequence": 4294967293
    },
    {
      "txid": "78d509eeae6e3c86f7df3129a37f3e122a9abc8681b36a657924333ad99a668d",
      "vout": 0,
      "prevout": {
        "scriptpubkey": "00145981dc3c4a48b2712913e2601dbe524a7a03356c",
        "scriptpubkey_asm": "OP_0 OP_PUSHBYTES_20 5981dc3c4a48b2712913e2601dbe524a7a03356c",
        "scriptpubkey_type": "v0_p2wpkh",
        "scriptpubkey_address": "bc1qtxqac0z2fze8z2gnufspm0jjffaqxdtv4gcgqx",
        "value": 2799503
      },
      "scriptsig": "",
      "scriptsig_asm": "",
      "witness": [
        "3044022045c2477ae4ccfc3ef777193968628c169ed4953eba41aed511458d717144f7eb02202184ddb3d245d02d3960c13420049b81b432d4db6af7e0a28e8401b66acab3b001",
        "02905fa3658344be67e582e233cf1fc6c3e6f1e4ff5ce7d1993be4eed007945762"
      ],
      "is_coinbase": false,
      "sequence": 4294967293
    },
    {
      "txid": "bd940653f4bf2a728a29187e7b5fd837ec5fefb3a7ffeac1b0023e60a2f2c276",
      "vout": 3,
      "prevout": {
        "scriptpubkey": "0014bdc882707074e632369f94caa386e8d0f75793be",
        "scriptpubkey_asm": "OP_0 OP_PUSHBYTES_20 bdc882707074e632369f94caa386e8d0f75793be",
        "scriptpubkey_type": "v0_p2wpkh",
        "scriptpubkey_address": "bc1qhhygyurswnnryd5ljn928phg6rm40ya79y4gxk",
        "value": 582897
      },
      "scriptsig": "",
      "scriptsig_asm": "",
      "witness": [
        "304402202009215709fb5bbec050beae9c81892a3c3aaf63b2d34586e091ecfb1e7947860220472cf4b03d6de9dd30d6222ad91aed10f326a54244a37285a60deaaf6b57a26b01",
        "0209e0dbb7f5a52ad14b08ded2f01ea99b864c7fd4221a7c123e9653edbe9b5f11"
      ],
      "is_coinbase": false,
      "sequence": 4294967293
    }
  ],
  "vout": [
    {
      "scriptpubkey": "0014ec00cd353d0a5e595872c7795b81583b5c81f85a",
      "scriptpubkey_asm": "OP_0 OP_PUSHBYTES_20 ec00cd353d0a5e595872c7795b81583b5c81f85a",
      "scriptpubkey_type": "v0_p2wpkh",
      "scriptpubkey_address": "bc1qasqv6dfapf09jkrjcau4hq2c8dwgr7z6dvy75l",
      "value": 24490679
    }
  ],
  "size": 931,
  "weight": 1792,
  "fee": 12150,
  "status": {
    "confirmed": true,
    "block_height": 834460,
    "block_hash": "00000000000000000000484a79b643b2524bbce82e5d8a442013fa5b8905ed98",
    "block_time": 1710307468
  },
  "hex": "020000000001064444202c3061732cb12a4a0817a3c9795e3ab5b944b3309105047d67f24910200000000000fdffffffb54e0efde52d56cae9a6d911381560d4cf3cc3497bae39c2f0dc6780f3aef0230000000000fdffffffc066566020c9f10613273f68d0c4b03c60a890b2329b9e23095023d96320e9280900000000fdffffffec591a2e4d4fb9d39843a726b554c18b509740a8886c0f341b7ce9d5653122780200000000fdffffff8d669ad93a332479656ab38186bc9a2a123e7fa32931dff7863c6eaeee09d5780000000000fdffffff76c2f2a2603e02b0c1eaffa7b3ef5fec37d85f7b7e18298a722abff4530694bd0300000000fdffffff01b7b2750100000000160014ec00cd353d0a5e595872c7795b81583b5c81f85a0247304402201c339998263140945cb5deeaaa6815c554713182f836b6c719c7124aff645f7e022007bca822111b544a805e64d5cafcf3f5bb85e22debeaa35fa777e0789a14051f012102905fa3658344be67e582e233cf1fc6c3e6f1e4ff5ce7d1993be4eed0079457620247304402200264aca90d1b78b9bc420d20fc87032a87c74c1704cd5e0cc318df1102969a38022032468b877989c1703aebb084749b37b4adf6f5e375c99277e64dece6e02c7479012102905fa3658344be67e582e233cf1fc6c3e6f1e4ff5ce7d1993be4eed0079457620247304402203ce92071273f650111126d3479744f9eae087477e991e7f7939f4703f23af052022011e8791193b5d7ca7b6ce0a5c1d4d836bea27ad346984cb0a2ca49da695aa1110121033f760234c7090e4a6956c37daac797bc1a22efd21c241770864903f9773ed30c024730440220254d2aa335084e16d04d15c33db58a373f3d8e69a17689d3d830ad18e1820d1802203ec0cc2b26995e4831a022c9bdea8d26aef89f838ca295f3e129f162bd26de040121039250b1ac62c9a6e392621472b492c10a9dc870ebec2e3e6183c5e7cdbe031afa02473044022045c2477ae4ccfc3ef777193968628c169ed4953eba41aed511458d717144f7eb02202184ddb3d245d02d3960c13420049b81b432d4db6af7e0a28e8401b66acab3b0012102905fa3658344be67e582e233cf1fc6c3e6f1e4ff5ce7d1993be4eed0079457620247304402202009215709fb5bbec050beae9c81892a3c3aaf63b2d34586e091ecfb1e7947860220472cf4b03d6de9dd30d6222ad91aed10f326a54244a37285a60deaaf6b57a26b01210209e0dbb7f5a52ad14b08ded2f01ea99b864c7fd4221a7c123e9653edbe9b5f119abb0c00"
}