{
  "txid": "3fa1b8b75472a924de57a6fe84c1f64afce2e7629f9759983e823b18bfdae81c",
  "version": 2,
  "locktime": 0,
  "vin": [
    {
      "txid": "4bd04b2c4dc280b12258efa00862c48d67deaab0221eae315264e43f91322a9c",
      "vout": 0,
      "prevout": {
        "scriptpubkey": "512035506ea4fee52dd74a9a076bf75e809323e0e07835e3acaeafc0a06c85c580ad",
        "scriptpubkey_asm": "OP_PUSHNUM_1 OP_PUSHBYTES_32 35506ea4fee52dd74a9a076bf75e809323e0e07835e3acaeafc0a06c85c580ad",
        "scriptpubkey_type": "v1_p2tr",
        "scriptpubkey_address": "bc1px4gxaf87u5kawj56qa4lwh5qjv37pcrcxh36et40czsxepw9szkspyx4qg",
        "value": 250000
      },
      "scriptsig": "",
      "scriptsig_asm": "",
      "witness": [
        "50fb6b06b352679da849047476bbe307b0e3475e3b34f329a7df0fa72f3ec2a5ba3f3e04a3c5f597c1d049be4275e5e0f98146565546ae502156f8dc0f29d78f"
      ],
      "is_coinbase": false,
      "sequence": 4294967295
    }
  ],
  "vout": [
    {
      "scriptpubkey": "76a914d334967b3e4d0cc2545f7d0fb71000b5ca61a4fc88ac",
      "scriptpubkey_asm": "OP_DUP OP_HASH160 OP_PUSHBYTES_20 d334967b3e4d0cc2545f7d0fb71000b5ca61a4fc OP_EQUALVERIFY OP_CHECKSIG",
      "scriptpubkey_type": "p2pkh",
      "scriptpubkey_address": "1LFkaLq4VePKTNdySsgqgitaT1CNaHUgKC",
      "value": 248470
    }
  ],
  "size": 153,
  "weight": 408,
  "fee": 1530,
  "status": {
    "confirmed": true,
    "block_height": 834638,
    "block_hash": "000000000000000000025f742c626208ac87e0b7d15054abb4a19ca2d735a54e",
    "block_time": 1710405325
  },
  "hex": "020000000001019c2a32913fe4645231ae1e22b0aade678dc46208a0ef5822b180c24d2c4bd04b0000000000ffffffff0196ca0300000000001976a914d334967b3e4d0cc2545f7d0fb71000b5ca61a4fc88ac014050fb6b06b352679da849047476bbe307b0e3475e3b34f329a7df0fa72f3ec2a5ba3f3e04a3c5f597c1d049be4275e5e0f98146565546ae502156f8dc0f29d78f00000000"
}