{
  "txid": "3fb855efbcb3fec4f757e93365cc9fd859350e521b34c2bf9e7b64bcd0dea74a",
  "version": 2,
  "locktime": 0,
  "vin": [
    {
      "txid": "35f54b62220132b5f56f8be1414e296fad065fb1edab65410b5f86ce22467d34",
      "vout": 0,
      "prevout": {
        "scriptpubkey": "0014c5aa3a6601b52c8a8ac13a63be7035ad1282f6a4",
        "scriptpubkey_asm": "OP_0 OP_PUSHBYTES_20 c5aa3a6601b52c8a8ac13a63be7035ad1282f6a4",
        "scriptpubkey_type": "v0_p2wpkh",
        "scriptpubkey_address": "bc1qck4r5espk5kg4zkp8f3muup445fg9a4y3h6drc",
        "value": 139447
      },
      "scriptsig": "",
      "scriptsig_asm": "",
      "witness": [
        "3045022100add61a56b3c9bd1c73e6ba45c174fbc78598a8bb1921659e75db72708ce1c28d0220288729b346c662b431629abeca79554ac15aef9f0b454d08b7fd4207416da8c001",
        "03dd8db4851f4dce9900371ded554c58a4050b31f138e23f08b9591df2261e4678"
      ],
      "is_coinbase": false,
      "sequence": 4294967293
    }
  ],
  "vout": [
    {
      "scriptpubkey": "76a91483e2372bdc6e9e638466545bc37dd9b58d2ef61a88ac",
      "scriptpubkey_asm": "OP_DUP OP_HASH160 OP_PUSHBYTES_20 83e2372bdc6e9e638466545bc37dd9b58d2ef61a OP_EQUALVERIFY OP_CHECKSIG",
      "scriptpubkey_type": "p2pkh",
      "scriptpubkey_address": "1D2LWrqHGQLK3Hf6KLojmiBwZFVY4CzsaQ",
      "value": 138227
    }
  ],
  "size": 195,
  "weight": 450,
  "fee": 1220,
  "status": {
    "confirmed": true,
    "block_height": 834464,
    "block_hash": "0000000000000000000177a0869a911a2b65c9bdcd5a8bcb02b68f305bee848e",
    "block_time": 1710308296
  },
  "hex": "02000000000101347d4622ce865f0b4165abedb15f06ad6f294e41e18b6ff5b5320122624bf5350000000000fdffffff01f31b0200000000001976a91483e2372bdc6e9e638466545bc37dd9b58d2ef61a88ac02483045022100add61a56b3c9bd1c73e6ba45c174fbc78598a8bb1921659e75db72708ce1c28d0220288729b346c662b431629abeca79554ac15aef9f0b454d08b7fd4207416da8c0012103dd8db4851f4dce9900371ded554c58a4050b31f138e23f08b9591df2261e467800000000"
}