{
  "txid": "3fc32c3b3dc18000567f09f1eca85919ea78d102c9ad59dee55ce5580e0d122e",
  "version": 1,
  "locktime": 0,
  "vin": [
    {
      "txid": "eac67e60e9d39580bac83a3e3b10d6dfbbb2217a664a9c84ff039d378648a917",
      "vout": 1,
      "prevout": {
        "scriptpubkey": "0014b099a825fc31c1162fb0078863d2407103f9a03c",
        "scriptpubkey_asm": "OP_0 OP_PUSHBYTES_20 b099a825fc31c1162fb0078863d2407103f9a03c",
        "scriptpubkey_type": "v0_p2wpkh",
        "scriptpubkey_address": "bc1qkzv6sf0ux8q3vtasq7yx85jqwyplngpu28uv54",
        "value": 31524334
      },
      "scriptsig": "",
      "scriptsig_asm": "",
      "witness": [
        "304402206d810a37bafd00d6c4d95594f6a239266f40975c006c4b96441543a385cf79020220015a474762b8c2e0443c81f8b80cace65261e3d095649d3fa5d564fc137b88fb01",
        "0312ec692dced90e140560ce89778f687741cd61905e6b975102bf4344c216e4f0"
      ],
      "is_coinbase": false,
      "sequence": 4294967295
    },
    {
      "txid": "a4e4365f49fc6cf609dd6d4b6ba08f63bada1554ce483251f775be5f310dbba5",
      "vout": 0,
      "prevout": {
        "scriptpubkey": "0014b099a825fc31c1162fb0078863d2407103f9a03c",
        "scriptpubkey_asm": "OP_0 OP_PUSHBYTES_20 b099a825fc31c1162fb0078863d2407103f9a03c",
        "scriptpubkey_type": "v0_p2wpkh",
        "scriptpubkey_address": "bc1qkzv6sf0ux8q3vtasq7yx85jqwyplngpu28uv54",
        "value": 4426845
      },
      "scriptsig": "",
      "scriptsig_asm": "",
      "witness": [
        "3045022100c41728ed1b5be980dcacae50c7ab2336b0eeb6a44c08e7b82e1522da28a7f7450220264b48000333c4d1f9ee8e31534a7c22ff9b0b7c6f04b4619121cff51b1275b701",
        "0312ec692dced90e140560ce89778f687741cd61905e6b975102bf4344c216e4f0"
      ],
      "is_coinbase": false,
      "sequence": 4294967295
    },
    {
      "txid": "d7a47ad129dccd81a21d56b9732d9693e1ff35a2e08834b04e0b74d30604ab7f",
      "vout": 1,
      "prevout": {
        "scriptpubkey": "0014b099a825fc31c1162fb0078863d2407103f9a03c",
        "scriptpubkey_asm": "OP_0 OP_PUSHBYTES_20 b099a825fc31c1162fb0078863d2407103f9a03c",
        "scriptpubkey_type": "v0_p2wpkh",
        "scriptpubkey_address": "bc1qkzv6sf0ux8q3vtasq7yx85jqwyplngpu28uv54",
        "value": 1530000
      },
      "scriptsig": "",
      "scriptsig_asm": "",
      "witness": [
        "3045022100ed574a80b6c2ca3c6ca7c92a70f7d2504d3b6a6a767b98f2ae3fee6764da198602200dbf30d5525b9187bb131cee0308a389439b97a583d1aa9e5be495042caa753c01",
        "0312ec692dced90e140560ce89778f687741cd61905e6b975102bf4344c216e4f0"
      ],
      "is_coinbase": false,
      "sequence": 4294967295
    },
    {
      "txid": "1a7c7b06c2286872a28fd5e0ae1d05435d6e94212e001ba2b7efc8e1e59ca337",
      "vout": 0,
      "prevout": {
        "scriptpubkey": "0014b099a825fc31c1162fb0078863d2407103f9a03c",
        "scriptpubkey_asm": "OP_0 OP_PUSHBYTES_20 b099a825fc31c1162fb0078863d2407103f9a03c",
        "scriptpubkey_type": "v0_p2wpkh",
        "scriptpubkey_address": "bc1qkzv6sf0ux8q3vtasq7yx85jqwyplngpu28uv54",
        "value": 24783175
      },
      "scriptsig": "",
      "scriptsig_asm": "",
      "witness": [
        "3045022100a71500a01389edf656f00dde217e090fc1b2d3a69e4efd9569d2b5986790b60a022016831645b99eda3fb4a518401d22fb7d1b29a7840015e6425accba8d7209a34501",
        "0312ec692dced90e140560ce89778f687741cd61905e6b975102bf4344c216e4f0"
      ],
      "is_coinbase": false,
      "sequence": 4294967295
    },
    {
      "txid": "c281c79654bf8abc82b467f10114a41c4d996318fe2ce04bef26baf0bb4c5503",
      "vout": 1,
      "prevout": {
        "scriptpubkey": "0014b099a825fc31c1162fb0078863d2407103f9a03c",
        "scriptpubkey_asm": "OP_0 OP_PUSHBYTES_20 b099a825fc31c1162fb0078863d2407103f9a03c",
        "scriptpubkey_type": "v0_p2wpkh",
        "scriptpubkey_address": "bc1qkzv6sf0ux8q3vtasq7yx85jqwyplngpu28uv54",
        "value": 4600000
      },
      "scriptsig": "",
      "scriptsig_asm": "",
      "witness": [
        "3045022100e15b0acdc7daa82af82b3620a7fccb38b0d5ed6f92e405285da7b9e48934f3d6022002cffc1895890092e0f9045bf03787e0027d0458dea347e72797d74dbb79652f01",
        "0312ec692dced90e140560ce89778f687741cd61905e6b975102bf4344c216e4f0"
      ],
      "is_coinbase": false,
      "sequence": 4294967295
    },
    {
      "txid": "f7dce68d0fa722388f61ad431ebaa82b2588d86395538662d2db6a2ee91ff7c2",
      "vout": 0,
      "prevout": {
        "scriptpubkey": "0014b099a825fc31c1162fb0078863d2407103f9a03c",
        "scriptpubkey_asm": "OP_0 OP_PUSHBYTES_20 b099a825fc31c1162fb0078863d2407103f9a03c",
        "scriptpubkey_type": "v0_p2wpkh",
        "scriptpubkey_address": "bc1qkzv6sf0ux8q3vtasq7yx85jqwyplngpu28uv54",
        "value": 11987166
      },
      "scriptsig": "",
      "scriptsig_asm": "",
      "witness": [
        "3044022051c9e4aee8bf9ad31f6ad41a3e8fd5bd4888753a55eabbbcf3a6cf3ba57440c40220779215357eba8074ee09a22df04b2124358cf82ea08abe75915487836c133bbe01",
        "0312ec692dced90e140560ce89778f687741cd61905e6b975102bf4344c216e4f0"
      ],
      "is_coinbase": false,
      "sequence": 4294967295
    },
    {
      "txid": "0a9c8128d5c1dab5be77012252da2ae4c22b27efbbe8ae3faba932e114e868e5",
      "vout": 0,
      "prevout": {
        "scriptpubkey": "0014b099a825fc31c1162fb0078863d2407103f9a03c",
        "scriptpubkey_asm": "OP_0 OP_PUSHBYTES_20 b099a825fc31c1162fb0078863d2407103f9a03c",
        "scriptpubkey_type": "v0_p2wpkh",
        "scriptpubkey_address": "bc1qkzv6sf0ux8q3vtasq7yx85jqwyplngpu28uv54",
        "value": 3333522
      },
      "scriptsig": "",
      "scriptsig_asm": "",
      "witness": [
        "3045022100c976035901c699e0265524166a8ee700af5072206e6c68e85744ff691306378d022007c66d0b695ab3dfab9dcac2a7d6f4d1844d31fa63d2965e7cbc62d4f5816f7401",
        "0312ec692dced90e140560ce89778f687741cd61905e6b975102bf4344c216e4f0"
      ],
      "is_coinbase": false,
      "sequence": 4294967295
    }
  ],
  "vout": [
    {
      "scriptpubkey": "76a9146b80656ff407e46333a7b61e0f5027ad9abf31fa88ac",
      "scriptpubkey_asm": "OP_DUP OP_HASH160 OP_PUSHBYTES_20 6b80656ff407e46333a7b61e0f5027ad9abf31fa OP_EQUALVERIFY OP_CHECKSIG",
      "scriptpubkey_type": "p2pkh",
      "scriptpubkey_address": "1AoR7escCNSZ6be5LpZDsYoyh6JcCrKt91",
      "value": 82170975
    }
  ],
  "size": 1087,
  "weight": 2080,
  "fee": 14067,
  "status": {
    "confirmed": true,
    "block_height": 834638,
    "block_hash": "000000000000000000025f742c626208ac87e0b7d15054abb4a19ca2d735a54e",
    "block_time": 1710405325
  },
  "hex": "0100000000010717a94886379d03ff849c4a667a21b2bbdfd6103b3e3ac8ba8095d3e9607ec6ea0100000000ffffffffa5bb0d315fbe75f7513248ce5415daba638fa06b4b6ddd09f66cfc495f36e4a40000000000ffffffff7fab0406d3740b4eb03488e0a235ffe193962d73b9561da281cddc29d17aa4d70100000000ffffffff37a39ce5e1c8efb7a21b002e21946e5d43051daee0d58fa2726828c2067b7c1a0000000000ffffffff03554cbbf0ba26ef4be02cfe1863994d1ca41401f167b482bc8abf5496c781c20100000000ffffffffc2f71fe92e6adbd26286539563d888252ba8ba1e43ad618f3822a70f8de6dcf70000000000ffffffffe568e814e132a9ab3faee8bbef272bc2e42ada52220177beb5dac1d528819c0a0000000000ffffffff015fd4e504000000001976a9146b80656ff407e46333a7b61e0f5027ad9abf31fa88ac0247304402206d810a37bafd00d6c4d95594f6a239266f40975c006c4b96441543a385cf79020220015a474762b8c2e0443c81f8b80cace65261e3d095649d3fa5d564fc137b88fb01210312ec692dced90e140560ce89778f687741cd61905e6b975102bf4344c216e4f002483045022100c41728ed1b5be980dcacae50c7ab2336b0eeb6a44c08e7b82e1522da28a7f7450220264b48000333c4d1f9ee8e31534a7c22ff9b0b7c6f04b4619121cff51b1275b701210312ec692dced90e140560ce89778f687741cd61905e6b975102bf4344c216e4f002483045022100ed574a80b6c2ca3c6ca7c92a70f7d2504d3b6a6a767b98f2ae3fee6764da198602200dbf30d5525b9187bb131cee0308a389439b97a583d1aa9e5be495042caa753c01210312ec692dced90e140560ce89778f687741cd61905e6b975102bf4344c216e4f002483045022100a71500a01389edf656f00dde217e090fc1b2d3a69e4efd9569d2b5986790b60a022016831645b99eda3fb4a518401d22fb7d1b29a7840015e6425accba8d7209a34501210312ec692dced90e140560ce89778f687741cd61905e6b975102bf4344c216e4f002483045022100e15b0acdc7daa82af82b3620a7fccb38b0d5ed6f92e405285da7b9e48934f3d6022002cffc1895890092e0f9045bf03787e0027d0458dea347e72797d74dbb79652f01210312ec692dced90e140560ce89778f687741cd61905e6b975102bf4344c216e4f002473044022051c9e4aee8bf9ad31f6ad41a3e8fd5bd4888753a55eabbbcf3a6cf3ba57440c40220779215357eba8074ee09a22df04b2124358cf82ea08abe75915487836c133bbe01210312ec692dced90e140560ce89778f687741cd61905e6b975102bf4344c216e4f002483045022100c976035901c699e0265524166a8ee700af5072206e6c68e85744ff691306378d022007c66d0b695ab3dfab9dcac2a7d6f4d1844d31fa63d2965e7cbc62d4f5816f7401210312ec692dced90e140560ce89778f687741cd61905e6b975102bf4344c216e4f000000000"
}