{
  "txid": "3fc44136360bcab2bd95a1dd6a55316184f16f57e0fc24d970969720a9be6d10",
  "version": 2,
  "locktime": 0,
  "vin": [
    {
      "txid": "94ace1c9d3be5ecb9a72802a7f4e61c0b8250375c088a98a7b4c60c62854c2f1",
      "vout": 6,
      "prevout": {
        "scriptpubkey": "a914e02e5fad42d0a83697a9f0e4c21d9c63d497cc5d87",
        "scriptpubkey_asm": "OP_HASH160 OP_PUSHBYTES_20 e02e5fad42d0a83697a9f0e4c21d9c63d497cc5d OP_EQUAL",
        "scriptpubkey_type": "p2sh",
        "scriptpubkey_address": "3N8NqcmeVhgB524Sp5Bv2xG8jWU46ex26r",
        "value": 15595
      },
      "scriptsig": "160014e27a1a4c1ffac3ce36650d331f02d4a6b617b068",
      "scriptsig_asm": "OP_PUSHBYTES_22 0014e27a1a4c1ffac3ce36650d331f02d4a6b617b068",
      "witness": [
        "3045022100f81da36c33f9cbb42a1eef69ff7391bd295aced483eb5062466c0e73cae7953b0220155e2cc3ba56b5fa6129889ceb1056e73b305aba3030fecfef3f752c8ed4877101",
        "0249548de1b6ef872c60b289771e0f7562522f72cfe42f5070ecfb03df787ec0ed"
      ],
      "is_coinbase": false,
      "sequence": 4294967293,
      "inner_redeemscript_asm": "OP_0 OP_PUSHBYTES_20 e27a1a4c1ffac3ce36650d331f02d4a6b617b068"
    },
    {
      "txid": "88f9eb587efbbe58898201868b0b5dcd6fb83b4373f58580ba0e8cea945298ca",
      "vout": 6,
      "prevout": {
        "scriptpubkey": "a914e02e5fad42d0a83697a9f0e4c21d9c63d497cc5d87",
        "scriptpubkey_asm": "OP_HASH160 OP_PUSHBYTES_20 e02e5fad42d0a83697a9f0e4c21d9c63d497cc5d OP_EQUAL",
        "scriptpubkey_type": "p2sh",
        "scriptpubkey_address": "3N8NqcmeVhgB524Sp5Bv2xG8jWU46ex26r",
        "value": 5167
      },
      "scriptsig": "160014e27a1a4c1ffac3ce36650d331f02d4a6b617b068",
      "scriptsig_asm": "OP_PUSHBYTES_22 0014e27a1a4c1ffac3ce36650d331f02d4a6b617b068",
      "witness": [
        "30450221009ced822822fe563fff021f4fb1734f66f73a57239e29e3f29dc7427e21d65fcf022004f8b8a42d6f0fe7eb55e50e59d9fa6a3fe40e0c72f51686673069eeffbae80401",
        "0249548de1b6ef872c60b289771e0f7562522f72cfe42f5070ecfb03df787ec0ed"
      ],
      "is_coinbase": false,
      "sequence": 4294967293,
      "inner_redeemscript_asm": "OP_0 OP_PUSHBYTES_20 e27a1a4c1ffac3ce36650d331f02d4a6b617b068"
    },
    {
      "txid": "c193a03a3aca5de2f5154c72b3c7e3f5017b5926879eec46697e9830cd994607",
      "vout": 0,
      "prevout": {
        "scriptpubkey": "a914e02e5fad42d0a83697a9f0e4c21d9c63d497cc5d87",
        "scriptpubkey_asm": "OP_HASH160 OP_PUSHBYTES_20 e02e5fad42d0a83697a9f0e4c21d9c63d497cc5d OP_EQUAL",
        "scriptpubkey_type": "p2sh",
        "scriptpubkey_address": "3N8NqcmeVhgB524Sp5Bv2xG8jWU46ex26r",
        "value": 2400
      },
      "scriptsig": "160014e27a1a4c1ffac3ce36650d331f02d4a6b617b068",
      "scriptsig_asm": "OP_PUSHBYTES_22 0014e27a1a4c1ffac3ce36650d331f02d4a6b617b068",
      "witness": [
        "304402206a2ecc38f606f8b00ac3f8d4209574171ff023b160ca1471fe959b64db5f5d99022076e06b43f7680a2867840e0ae690a8a56a6b540b63e2f842d82c117a9b60deab01",
        "0249548de1b6ef872c60b289771e0f7562522f72cfe42f5070ecfb03df787ec0ed"
      ],
      "is_coinbase": false,
      "sequence": 4294967293,
      "inner_redeemscript_asm": "OP_0 OP_PUSHBYTES_20 e27a1a4c1ffac3ce36650d331f02d4a6b617b068"
    },
    {
      "txid": "e044bd5caa2becf142ad18e97733febd42e2fe0ce0d11931604390ed04794b54",
      "vout": 0,
      "prevout": {
        "scriptpubkey": "a914e02e5fad42d0a83697a9f0e4c21d9c63d497cc5d87",
        "scriptpubkey_asm": "OP_HASH160 OP_PUSHBYTES_20 e02e5fad42d0a83697a9f0e4c21d9c63d497cc5d OP_EQUAL",
        "scriptpubkey_type": "p2sh",
        "scriptpubkey_address": "3N8NqcmeVhgB524Sp5Bv2xG8jWU46ex26r",
        "value": 2400
      },
      "scriptsig": "160014e27a1a4c1ffac3ce36650d331f02d4a6b617b068",
      "scriptsig_asm": "OP_PUSHBYTES_22 0014e27a1a4c1ffac3ce36650d331f02d4a6b617b068",
      "witness": [
        "304402204d1379e7fa4bc68f079171d72b48f76109991162690e253dd192e779522b11ca02204ec4215eebce82836df89d952b4a9317189c43373ffa57b4fc5ab51ad45d867301",
        "0249548de1b6ef872c60b289771e0f7562522f72cfe42f5070ecfb03df787ec0ed"
      ],
      "is_coinbase": false,
      "sequence": 4294967293,
      "inner_redeemscript_asm": "OP_0 OP_PUSHBYTES_20 e27a1a4c1ffac3ce36650d331f02d4a6b617b068"
    },
    {
      "txid": "3dd787d49404b735bb21fe96503a32fbe8fa355c4793a7bfef9c0d3851046ae8",
      "vout": 0,
      "prevout": {
        "scriptpubkey": "a914e02e5fad42d0a83697a9f0e4c21d9c63d497cc5d87",
        "scriptpubkey_asm": "OP_HASH160 OP_PUSHBYTES_20 e02e5fad42d0a83697a9f0e4c21d9c63d497cc5d OP_EQUAL",
        "scriptpubkey_type": "p2sh",
        "scriptpubkey_address": "3N8NqcmeVhgB524Sp5Bv2xG8jWU46ex26r",
        "value": 1800
      },
      "scriptsig": "160014e27a1a4c1ffac3ce36650d331f02d4a6b617b068",
      "scriptsig_asm": "OP_PUSHBYTES_22 0014e27a1a4c1ffac3ce36650d331f02d4a6b617b068",
      "witness": [
        "3045022100fcefc87fdb365c3fc4971351726cba21f7f0ce6f61a8b5a23a30a2634039d84002207b1f22ac7f20b8c7395a62d6820a190738d4501022caf9188ada6427bca21e0401",
        "0249548de1b6ef872c60b289771e0f7562522f72cfe42f5070ecfb03df787ec0ed"
      ],
      "is_coinbase": false,
      "sequence": 4294967293,
      "inner_redeemscript_asm": "OP_0 OP_PUSHBYTES_20 e27a1a4c1ffac3ce36650d331f02d4a6b617b068"
    }
  ],
  "vout": [
    {
      "scriptpubkey": "5120e25895f7083a2ee04ad2888a1294d1b3c57293888c647aa5bd0b61ca5444a80a",
      "scriptpubkey_asm": "OP_PUSHNUM_1 OP_PUSHBYTES_32 e25895f7083a2ee04ad2888a1294d1b3c57293888c647aa5bd0b61ca5444a80a",
      "scriptpubkey_type": "v1_p2tr",
      "scriptpubkey_address": "bc1pufvftacg8ghwqjkj3z9p99x3k0zh9yug33j84fdapdsu54zy4q9qufhcmq",
      "value": 20814
    },
    {
      "scriptpubkey": "a914e02e5fad42d0a83697a9f0e4c21d9c63d497cc5d87",
      "scriptpubkey_asm": "OP_HASH160 OP_PUSHBYTES_20 e02e5fad42d0a83697a9f0e4c21d9c63d497cc5d OP_EQUAL",
      "scriptpubkey_type": "p2sh",
      "scriptpubkey_address": "3N8NqcmeVhgB524Sp5Bv2xG8jWU46ex26r",
      "value": 630
    }
  ],
  "size": 945,
  "weight": 2160,
  "fee": 5918,
  "status": {
    "confirmed": true,
    "block_height": 834464,
    "block_hash": "0000000000000000000177a0869a911a2b65c9bdcd5a8bcb02b68f305bee848e",
    "block_time": 1710308296
  },
  "hex": "02000000000105f1c25428c6604c7b8aa988c0750325b8c0614e7f2a80729acb5ebed3c9e1ac940600000017160014e27a1a4c1ffac3ce36650d331f02d4a6b617b068fdffffffca985294ea8c0eba8085f573433bb86fcd5d0b8b8601828958befb7e58ebf9880600000017160014e27a1a4c1ffac3ce36650d331f02d4a6b617b068fdffffff074699cd30987e6946ec9e8726597b01f5e3c7b3724c15f5e25dca3a3aa093c10000000017160014e27a1a4c1ffac3ce36650d331f02d4a6b617b068fdffffff544b7904ed9043603119d1e00cfee242bdfe3377e918ad42f1ec2baa5cbd44e00000000017160014e27a1a4c1ffac3ce36650d331f02d4a6b617b068fdffffffe86a0451380d9cefbfa793475c35fae8fb323a5096fe21bb35b70494d487d73d0000000017160014e27a1a4c1ffac3ce36650d331f02d4a6b617b068fdffffff024e51000000000000225120e25895f7083a2ee04ad2888a1294d1b3c57293888c647aa5bd0b61ca5444a80a760200000000000017a914e02e5fad42d0a83697a9f0e4c21d9c63d497cc5d8702483045022100f81da36c33f9cbb42a1eef69ff7391bd295aced483eb5062466c0e73cae7953b0220155e2cc3ba56b5fa6129889ceb1056e73b305aba3030fecfef3f752c8ed4877101210249548de1b6ef872c60b289771e0f7562522f72cfe42f5070ecfb03df787ec0ed024830450221009ced822822fe563fff021f4fb1734f66f73a57239e29e3f29dc7427e21d65fcf022004f8b8a42d6f0fe7eb55e50e59d9fa6a3fe40e0c72f51686673069eeffbae80401210249548de1b6ef872c60b289771e0f7562522f72cfe42f5070ecfb03df787ec0ed0247304402206a2ecc38f606f8b00ac3f8d4209574171ff023b160ca1471fe959b64db5f5d99022076e06b43f7680a2867840e0ae690a8a56a6b540b63e2f842d82c117a9b60deab01210249548de1b6ef872c60b289771e0f7562522f72cfe42f5070ecfb03df787ec0ed0247304402204d1379e7fa4bc68f079171d72b48f76109991162690e253dd192e779522b11ca02204ec4215eebce82836df89d952b4a9317189c43373ffa57b4fc5ab51ad45d867301210249548de1b6ef872c60b289771e0f7562522f72cfe42f5070ecfb03df787ec0ed02483045022100fcefc87fdb365c3fc4971351726cba21f7f0ce6f61a8b5a23a30a2634039d84002207b1f22ac7f20b8c7395a62d6820a190738d4501022caf9188ada6427bca21e0401210249548de1b6ef872c60b289771e0f7562522f72cfe42f5070ecfb03df787ec0ed00000000"
}