{
  "txid": "3fd7b0b7e31799e7a61e47c48cc63e16a1f92a8fcc0fd3d0f2f1ed475c6322a7",
  "version": 2,
  "locktime": 0,
  "vin": [
    {
      "txid": "acc3ba00869acb582a3f2904ce3a11dd3779350ce234063fc7d0959246213364",
      "vout": 89,
      "prevout": {
        "scriptpubkey": "5120dd50b7783a6ceed300379cd56eddb41b5cb159618d081f197a356b250dbc81ee",
        "scriptpubkey_asm": "OP_PUSHNUM_1 OP_PUSHBYTES_32 dd50b7783a6ceed300379cd56eddb41b5cb159618d081f197a356b250dbc81ee",
        "scriptpubkey_type": "v1_p2tr",
        "scriptpubkey_address": "bc1pm4gtw7p6dnhdxqphnn2kahd5rdwtzktp35yp7xt6x44j2rdus8hqvsul47",
        "value": 1806
      },
      "scriptsig": "",
      "scriptsig_asm": "",
      "witness": [
        "f9cb12c0d3c1c32ec3a70ab9791dd01434b8ba16acf95f79dbe8110e3c0c75b16e4f9563b248a4917e855996e64f3623e7daae9504d7fd3eb185a50b752425fe",
        "2069861523d8300dd89d2a3705aeb3cbac8fad0772a593cd4e577f34f8602c1996ac0063036f726401010a746578742f706c61696e00357b2270223a226272632d3230222c226f70223a226d696e74222c227469636b223a22646f6765222c22616d74223a2234323030227d68",
        "c069861523d8300dd89d2a3705aeb3cbac8fad0772a593cd4e577f34f8602c1996"
      ],
      "is_coinbase": false,
      "sequence": 4261412863
    }
  ],
  "vout": [
    {
      "scriptpubkey": "00147a665de7a370f4c9b372ab1fae587500a5bcbdb4",
      "scriptpubkey_asm": "OP_0 OP_PUSHBYTES_20 7a665de7a370f4c9b372ab1fae587500a5bcbdb4",
      "scriptpubkey_type": "v0_p2wpkh",
      "scriptpubkey_address": "bc1q0fn9mearwr6vnvmj4v06ukr4qzjme0d565dzcx",
      "value": 294
    }
  ],
  "size": 294,
  "weight": 540,
  "fee": 1512,
  "status": {
    "confirmed": true,
    "block_height": 834460,
    "block_hash": "00000000000000000000484a79b643b2524bbce82e5d8a442013fa5b8905ed98",
    "block_time": 1710307468
  },
  "hex": "02000000000101643321469295d0c73f0634e20c357937dd113ace04293f2a58cb9a8600bac3ac5900000000fffffffd0126010000000000001600147a665de7a370f4c9b372ab1fae587500a5bcbdb40340f9cb12c0d3c1c32ec3a70ab9791dd01434b8ba16acf95f79dbe8110e3c0c75b16e4f9563b248a4917e855996e64f3623e7daae9504d7fd3eb185a50b752425fe6d2069861523d8300dd89d2a3705aeb3cbac8fad0772a593cd4e577f34f8602c1996ac0063036f726401010a746578742f706c61696e00357b2270223a226272632d3230222c226f70223a226d696e74222c227469636b223a22646f6765222c22616d74223a2234323030227d6821c069861523d8300dd89d2a3705aeb3cbac8fad0772a593cd4e577f34f8602c199600000000"
}