{
  "txid": "3ff06318588ec7ec5524872e4f66e00298b840d464abfdcfc3e95848a58834cb",
  "version": 2,
  "locktime": 0,
  "vin": [
    {
      "txid": "621e415b6cb6e207cecde6c8125e9f209cede18e40aa241da392ae315d40db51",
      "vout": 32,
      "prevout": {
        "scriptpubkey": "00147a6aaa29837941c42ceaa64cde3813d3cc635ef9",
        "scriptpubkey_asm": "OP_0 OP_PUSHBYTES_20 7a6aaa29837941c42ceaa64cde3813d3cc635ef9",
        "scriptpubkey_type": "v0_p2wpkh",
        "scriptpubkey_address": "bc1q0f4252vr09qugt825exduwqn60xxxhhehat0wf",
        "value": 167000
      },
      "scriptsig": "",
      "scriptsig_asm": "",
      "witness": [
        "304402207d9b005cac686ec3cb291a6bbe108d692e0f4419b6cc2d12f74f6d7bd9bc437c02201dcd537e9dde8a38010ffb77604abb3b8dd87780fb86da97013927bb8699583401",
        "020a887386e4249b693f76544bf15cf7fbd94584d3c56365339f4b23a76f88eb04"
      ],
      "is_coinbase": false,
      "sequence": 4294967295
    }
  ],
  "vout": [
    {
      "scriptpubkey": "a91491eb20b9017487f31ab0dc12b940c80d8402015887",
      "scriptpubkey_asm": "OP_HASH160 OP_PUSHBYTES_20 91eb20b9017487f31ab0dc12b940c80d84020158 OP_EQUAL",
      "scriptpubkey_type": "p2sh",
      "scriptpubkey_address": "3EzZaKuJmsQYaBz3jKJ1Rnw9Tm1i6t6Mtk",
      "value": 159300
    }
  ],
  "size": 192,
  "weight": 441,
  "fee": 7700,
  "status": {
    "confirmed": true,
    "block_height": 834638,
    "block_hash": "000000000000000000025f742c626208ac87e0b7d15054abb4a19ca2d735a54e",
    "block_time": 1710405325
  },
  "hex": "0200000000010151db405d31ae92a31d24aa408ee1ed9c209f5e12c8e6cdce07e2b66c5b411e622000000000ffffffff01446e02000000000017a91491eb20b9017487f31ab0dc12b940c80d84020158870247304402207d9b005cac686ec3cb291a6bbe108d692e0f4419b6cc2d12f74f6d7bd9bc437c02201dcd537e9dde8a38010ffb77604abb3b8dd87780fb86da97013927bb869958340121020a887386e4249b693f76544bf15cf7fbd94584d3c56365339f4b23a76f88eb0400000000"
}