{
  "txid": "40042faf7f045b8a20165281feea6e116626cd9bf6150f8775b7c801050668e8",
  "version": 2,
  "locktime": 834637,
  "vin": [
    {
      "txid": "2be3b7aa6851f3f52185fa5bf8ba4fd93b16d78a6dd18baf6e514cabef0dcdba",
      "vout": 0,
      "prevout": {
        "scriptpubkey": "76a914bd4678f2592c5be90d4c4cf3893ecc51bb4c494688ac",
        "scriptpubkey_asm": "OP_DUP OP_HASH160 OP_PUSHBYTES_20 bd4678f2592c5be90d4c4cf3893ecc51bb4c4946 OP_EQUALVERIFY OP_CHECKSIG",
        "scriptpubkey_type": "p2pkh",
        "scriptpubkey_address": "1JFo8mWnNnb3bLr4q9UkcudFQMFPSvGeJ9",
        "value": 64712
      },
      "scriptsig": "47304402202ac22d33e4416c9b576044e6bffc023581c56c359ecc8495693eaeba98c29c2d02203dc7d81181a9b80a0b5ffaa28a5d9a7484835ff28133c98f439bef9adf3e1322012103f427db6c541f9c1b26d25fc0abaab89a6bd9f6b0744fbf67e2e4e03163c16844",
      "scriptsig_asm": "OP_PUSHBYTES_71 304402202ac22d33e4416c9b576044e6bffc023581c56c359ecc8495693eaeba98c29c2d02203dc7d81181a9b80a0b5ffaa28a5d9a7484835ff28133c98f439bef9adf3e132201 OP_PUSHBYTES_33 03f427db6c541f9c1b26d25fc0abaab89a6bd9f6b0744fbf67e2e4e03163c16844",
      "is_coinbase": false,
      "sequence": 4294967293
    },
    {
      "txid": "5e6167c0053bf48c7cc3ed4b6dca6737cbd29cefb8e711444121a6cb5037b583",
      "vout": 0,
      "prevout": {
        "scriptpubkey": "76a914cc3ef0e0ed36befd9da1c3a91e0b4cf7e125f0b588ac",
        "scriptpubkey_asm": "OP_DUP OP_HASH160 OP_PUSHBYTES_20 cc3ef0e0ed36befd9da1c3a91e0b4cf7e125f0b5 OP_EQUALVERIFY OP_CHECKSIG",
        "scriptpubkey_type": "p2pkh",
        "scriptpubkey_address": "1KcxFM54nGcVgCFerZ3BuwWPB5rLVGWfwR",
        "value": 83274
      },
      "scriptsig": "473044022049f67fa9b81d506f4398f9394b34244ca496c418d6b564991cf94915f8e9eb75022066183604798be04dc88bfd6074f94ce7171eddc2bda1e89b1736533bef37de32012103d2a60938433f372fa58e3e0308c2836f6b15bd99953bac2c34a4f13557b82a58",
      "scriptsig_asm": "OP_PUSHBYTES_71 3044022049f67fa9b81d506f4398f9394b34244ca496c418d6b564991cf94915f8e9eb75022066183604798be04dc88bfd6074f94ce7171eddc2bda1e89b1736533bef37de3201 OP_PUSHBYTES_33 03d2a60938433f372fa58e3e0308c2836f6b15bd99953bac2c34a4f13557b82a58",
      "is_coinbase": false,
      "sequence": 4294967293
    }
  ],
  "vout": [
    {
      "scriptpubkey": "76a914364a5d54ada96acb67c656242f348a71da458bd188ac",
      "scriptpubkey_asm": "OP_DUP OP_HASH160 OP_PUSHBYTES_20 364a5d54ada96acb67c656242f348a71da458bd1 OP_EQUALVERIFY OP_CHECKSIG",
      "scriptpubkey_type": "p2pkh",
      "scriptpubkey_address": "15x4aJQ8ryZNxDpVJUDrt9A9xWR44SECvW",
      "value": 35215
    },
    {
      "scriptpubkey": "0020fb40c9f828438ab7a5dc036ae78aa0778f4c13d43da15debbe7314639d4d26c4",
      "scriptpubkey_asm": "OP_0 OP_PUSHBYTES_32 fb40c9f828438ab7a5dc036ae78aa0778f4c13d43da15debbe7314639d4d26c4",
      "scriptpubkey_type": "v0_p2wsh",
      "scriptpubkey_address": "bc1qldqvn7pggw9t0fwuqd4w0z4qw785cy758ks4m6a7wv2x882dymzqtec4jm",
      "value": 74471
    }
  ],
  "size": 381,
  "weight": 1524,
  "fee": 38300,
  "status": {
    "confirmed": true,
    "block_height": 834638,
    "block_hash": "000000000000000000025f742c626208ac87e0b7d15054abb4a19ca2d735a54e",
    "block_time": 1710405325
  },
  "hex": "0200000002bacd0defab4c516eaf8bd16d8ad7163bd94fbaf85bfa8521f5f35168aab7e32b000000006a47304402202ac22d33e4416c9b576044e6bffc023581c56c359ecc8495693eaeba98c29c2d02203dc7d81181a9b80a0b5ffaa28a5d9a7484835ff28133c98f439bef9adf3e1322012103f427db6c541f9c1b26d25fc0abaab89a6bd9f6b0744fbf67e2e4e03163c16844fdffffff83b53750cba621414411e7b8ef9cd2cb3767ca6d4bedc37c8cf43b05c067615e000000006a473044022049f67fa9b81d506f4398f9394b34244ca496c418d6b564991cf94915f8e9eb75022066183604798be04dc88bfd6074f94ce7171eddc2bda1e89b1736533bef37de32012103d2a60938433f372fa58e3e0308c2836f6b15bd99953bac2c34a4f13557b82a58fdffffff028f890000000000001976a914364a5d54ada96acb67c656242f348a71da458bd188ace722010000000000220020fb40c9f828438ab7a5dc036ae78aa0778f4c13d43da15debbe7314639d4d26c44dbc0c00"
}