{
  "txid": "40177bb93d21ebde38ec26fb248fcc8bef7d7bdaf763c9ee610a04594fe90173",
  "version": 1,
  "locktime": 0,
  "vin": [
    {
      "txid": "b5efb7dd42dfc5aae121aba2a800b6095db6bc424ca5a2d89c29c7af94835c78",
      "vout": 1,
      "prevout": {
        "scriptpubkey": "00148c473c7fabe7c789d350978937da01b797cddc7f",
        "scriptpubkey_asm": "OP_0 OP_PUSHBYTES_20 8c473c7fabe7c789d350978937da01b797cddc7f",
        "scriptpubkey_type": "v0_p2wpkh",
        "scriptpubkey_address": "bc1q33rnclatulrcn56sj7yn0kspk7tumhrl2l5ydz",
        "value": 57432247
      },
      "scriptsig": "",
      "scriptsig_asm": "",
      "witness": [
        "3044022064c475cfca584b26559ec830f6e0d7b29abe8e17c6faad42aa2ae0613ff0dc33022021071790be2405633e6844af5ed9751595a535ba4f74d56b6d3efbc13c47ea8a01",
        "02fdbbd276f6b873b788136848a9a916b333cfc671cec4253e7459b98ad7369c6b"
      ],
      "is_coinbase": false,
      "sequence": 4294967295
    }
  ],
  "vout": [
    {
      "scriptpubkey": "76a91427dd244c7af64f2862959235e906504bab807d6288ac",
      "scriptpubkey_asm": "OP_DUP OP_HASH160 OP_PUSHBYTES_20 27dd244c7af64f2862959235e906504bab807d62 OP_EQUALVERIFY OP_CHECKSIG",
      "scriptpubkey_type": "p2pkh",
      "scriptpubkey_address": "14dnGgaoza4eytFNvErixHTSktrCLuoirb",
      "value": 200000
    },
    {
      "scriptpubkey": "00148c473c7fabe7c789d350978937da01b797cddc7f",
      "scriptpubkey_asm": "OP_0 OP_PUSHBYTES_20 8c473c7fabe7c789d350978937da01b797cddc7f",
      "scriptpubkey_type": "v0_p2wpkh",
      "scriptpubkey_address": "bc1q33rnclatulrcn56sj7yn0kspk7tumhrl2l5ydz",
      "value": 57225467
    }
  ],
  "size": 225,
  "weight": 573,
  "fee": 6780,
  "status": {
    "confirmed": true,
    "block_height": 834638,
    "block_hash": "000000000000000000025f742c626208ac87e0b7d15054abb4a19ca2d735a54e",
    "block_time": 1710405325
  },
  "hex": "01000000000101785c8394afc7299cd8a2a54c42bcb65d09b600a8a2ab21e1aac5df42ddb7efb50100000000ffffffff02400d0300000000001976a91427dd244c7af64f2862959235e906504bab807d6288acfb306903000000001600148c473c7fabe7c789d350978937da01b797cddc7f02473044022064c475cfca584b26559ec830f6e0d7b29abe8e17c6faad42aa2ae0613ff0dc33022021071790be2405633e6844af5ed9751595a535ba4f74d56b6d3efbc13c47ea8a012102fdbbd276f6b873b788136848a9a916b333cfc671cec4253e7459b98ad7369c6b00000000"
}