{
  "txid": "4028ec7f3f6e3757d7a34ebed1900a1ffbfe037cb412584d8b9fda6885839933",
  "version": 2,
  "locktime": 0,
  "vin": [
    {
      "txid": "41057976bdd60bbf13b99217515dbdf1313fbce823f4327261cb63996fb4a164",
      "vout": 0,
      "prevout": {
        "scriptpubkey": "0014192e80ed2c7c412bdc2a6c8f371d15cb90f3c85b",
        "scriptpubkey_asm": "OP_0 OP_PUSHBYTES_20 192e80ed2c7c412bdc2a6c8f371d15cb90f3c85b",
        "scriptpubkey_type": "v0_p2wpkh",
        "scriptpubkey_address": "bc1qryhgpmfv03qjhhp2dj8nw8g4ewg08jzmgy3cyx",
        "value": 83724343
      },
      "scriptsig": "",
      "scriptsig_asm": "",
      "witness": [
        "3044022016c5f0aa090c9b87e90675cf1b74a8fd337a2f537a9998432d18f53f8bcace8c02204dd229c5279fb1d0707b866f3e55bc57cbda15b0f82e8467a414d6b8bf88ea6901",
        "03b01bd095f648ea829f000207087f16622431077bb5cc0875225ada601375c885"
      ],
      "is_coinbase": false,
      "sequence": 4294967293
    }
  ],
  "vout": [
    {
      "scriptpubkey": "0014192e80ed2c7c412bdc2a6c8f371d15cb90f3c85b",
      "scriptpubkey_asm": "OP_0 OP_PUSHBYTES_20 192e80ed2c7c412bdc2a6c8f371d15cb90f3c85b",
      "scriptpubkey_type": "v0_p2wpkh",
      "scriptpubkey_address": "bc1qryhgpmfv03qjhhp2dj8nw8g4ewg08jzmgy3cyx",
      "value": 66345912
    },
    {
      "scriptpubkey": "001416806beb59ebcc4bb06d64f847837c7381ea26b4",
      "scriptpubkey_asm": "OP_0 OP_PUSHBYTES_20 16806beb59ebcc4bb06d64f847837c7381ea26b4",
      "scriptpubkey_type": "v0_p2wpkh",
      "scriptpubkey_address": "bc1qz6qxh66ea0xyhvrdvnuy0qmuwwq75f452yazq2",
      "value": 17371945
    }
  ],
  "size": 222,
  "weight": 561,
  "fee": 6486,
  "status": {
    "confirmed": true,
    "block_height": 834464,
    "block_hash": "0000000000000000000177a0869a911a2b65c9bdcd5a8bcb02b68f305bee848e",
    "block_time": 1710308296
  },
  "hex": "0200000000010164a1b46f9963cb617232f423e8bc3f31f1bd5d511792b913bf0bd6bd767905410000000000fdffffff02b85bf40300000000160014192e80ed2c7c412bdc2a6c8f371d15cb90f3c85b291309010000000016001416806beb59ebcc4bb06d64f847837c7381ea26b402473044022016c5f0aa090c9b87e90675cf1b74a8fd337a2f537a9998432d18f53f8bcace8c02204dd229c5279fb1d0707b866f3e55bc57cbda15b0f82e8467a414d6b8bf88ea69012103b01bd095f648ea829f000207087f16622431077bb5cc0875225ada601375c88500000000"
}