{
  "txid": "403238ed374d135bea06947b2e2f7b3af296b101ddd6f829e6fe77f781f0805f",
  "version": 1,
  "locktime": 0,
  "vin": [
    {
      "txid": "54c21c3ee7cdcf795a2bdd80f063f4fb50d7fb79de73bc928f0dbb7dfabc84af",
      "vout": 1,
      "prevout": {
        "scriptpubkey": "0014825ab6158722bc2a1d356fa861e755790531f7d0",
        "scriptpubkey_asm": "OP_0 OP_PUSHBYTES_20 825ab6158722bc2a1d356fa861e755790531f7d0",
        "scriptpubkey_type": "v0_p2wpkh",
        "scriptpubkey_address": "bc1qsfdtv9v8y27z58f4d75xre640yznra7slhlmuu",
        "value": 12629921
      },
      "scriptsig": "",
      "scriptsig_asm": "",
      "witness": [
        "3044022074a48f41e89734ff81b32b2d116ea5a3d2658ee736e05ca19aea8abf3b593d740220081e7b92d8cefe317c5768ab3b43d310d9c131c77b33135f2ee30869370118cc01",
        "023b8b4f85cb8f20607da1c1789ba18a4635a5dfc7576976380acc540e7dee6b85"
      ],
      "is_coinbase": false,
      "sequence": 4294960000
    }
  ],
  "vout": [
    {
      "scriptpubkey": "00142e0fbf474b89a266a3bcbfbc14c3ac4d3ed0696d",
      "scriptpubkey_asm": "OP_0 OP_PUSHBYTES_20 2e0fbf474b89a266a3bcbfbc14c3ac4d3ed0696d",
      "scriptpubkey_type": "v0_p2wpkh",
      "scriptpubkey_address": "bc1q9c8m736t3x3xdgauh77pfsavf5ldq6tdaamv30",
      "value": 12625522
    },
    {
      "scriptpubkey": "0014825ab6158722bc2a1d356fa861e755790531f7d0",
      "scriptpubkey_asm": "OP_0 OP_PUSHBYTES_20 825ab6158722bc2a1d356fa861e755790531f7d0",
      "scriptpubkey_type": "v0_p2wpkh",
      "scriptpubkey_address": "bc1qsfdtv9v8y27z58f4d75xre640yznra7slhlmuu",
      "value": 2001
    }
  ],
  "size": 222,
  "weight": 561,
  "fee": 2398,
  "status": {
    "confirmed": true,
    "block_height": 834460,
    "block_hash": "00000000000000000000484a79b643b2524bbce82e5d8a442013fa5b8905ed98",
    "block_time": 1710307468
  },
  "hex": "01000000000101af84bcfa7dbb0d8f92bc73de79fbd750fbf463f080dd2b5a79cfcde73e1cc254010000000080e3ffff0272a6c000000000001600142e0fbf474b89a266a3bcbfbc14c3ac4d3ed0696dd107000000000000160014825ab6158722bc2a1d356fa861e755790531f7d002473044022074a48f41e89734ff81b32b2d116ea5a3d2658ee736e05ca19aea8abf3b593d740220081e7b92d8cefe317c5768ab3b43d310d9c131c77b33135f2ee30869370118cc0121023b8b4f85cb8f20607da1c1789ba18a4635a5dfc7576976380acc540e7dee6b8500000000"
}