{
  "txid": "4047aeff1f6fe2b757051f133f6395c4c85b26c2cd8384e838abc7c31a71388e",
  "version": 2,
  "locktime": 0,
  "vin": [
    {
      "txid": "acc3ba00869acb582a3f2904ce3a11dd3779350ce234063fc7d0959246213364",
      "vout": 286,
      "prevout": {
        "scriptpubkey": "5120a8734266a97d793a5bc31bf40fc2075f2789689f57f8ff47ae86b3dbd2289a57",
        "scriptpubkey_asm": "OP_PUSHNUM_1 OP_PUSHBYTES_32 a8734266a97d793a5bc31bf40fc2075f2789689f57f8ff47ae86b3dbd2289a57",
        "scriptpubkey_type": "v1_p2tr",
        "scriptpubkey_address": "bc1p4pe5ye4f04un5k7rr06qlss8tuncj6yl2lu073aws6eah53gnfts7ew9e2",
        "value": 1806
      },
      "scriptsig": "",
      "scriptsig_asm": "",
      "witness": [
        "200f797605a04322424b7ec1a4776dafec4eb7202c7f6ed0abd0399dab005e662a02cc72c9127500ae3afb7ea2e73fad41f587c937303af6c407fa1e9f63ed52",
        "20a214722679bc0d534c09f70c2a5a52bc1cd545d4ea632a1edbb1605fbdaea0a6ac0063036f726401010a746578742f706c61696e00357b2270223a226272632d3230222c226f70223a226d696e74222c227469636b223a22646f6765222c22616d74223a2234323030227d68",
        "c1a214722679bc0d534c09f70c2a5a52bc1cd545d4ea632a1edbb1605fbdaea0a6"
      ],
      "is_coinbase": false,
      "sequence": 4261412863
    }
  ],
  "vout": [
    {
      "scriptpubkey": "00147a665de7a370f4c9b372ab1fae587500a5bcbdb4",
      "scriptpubkey_asm": "OP_0 OP_PUSHBYTES_20 7a665de7a370f4c9b372ab1fae587500a5bcbdb4",
      "scriptpubkey_type": "v0_p2wpkh",
      "scriptpubkey_address": "bc1q0fn9mearwr6vnvmj4v06ukr4qzjme0d565dzcx",
      "value": 294
    }
  ],
  "size": 294,
  "weight": 540,
  "fee": 1512,
  "status": {
    "confirmed": true,
    "block_height": 834460,
    "block_hash": "00000000000000000000484a79b643b2524bbce82e5d8a442013fa5b8905ed98",
    "block_time": 1710307468
  },
  "hex": "02000000000101643321469295d0c73f0634e20c357937dd113ace04293f2a58cb9a8600bac3ac1e01000000fffffffd0126010000000000001600147a665de7a370f4c9b372ab1fae587500a5bcbdb40340200f797605a04322424b7ec1a4776dafec4eb7202c7f6ed0abd0399dab005e662a02cc72c9127500ae3afb7ea2e73fad41f587c937303af6c407fa1e9f63ed526d20a214722679bc0d534c09f70c2a5a52bc1cd545d4ea632a1edbb1605fbdaea0a6ac0063036f726401010a746578742f706c61696e00357b2270223a226272632d3230222c226f70223a226d696e74222c227469636b223a22646f6765222c22616d74223a2234323030227d6821c1a214722679bc0d534c09f70c2a5a52bc1cd545d4ea632a1edbb1605fbdaea0a600000000"
}