{
  "txid": "40470211df18c4cf1fef907e07aff61dfe8956c9864397c6e685c3ecce1b2226",
  "version": 2,
  "locktime": 0,
  "vin": [
    {
      "txid": "acc3ba00869acb582a3f2904ce3a11dd3779350ce234063fc7d0959246213364",
      "vout": 36,
      "prevout": {
        "scriptpubkey": "5120f24ca11d5cce7885a7100b26e911e7ed6adedef01675b2642eb522b0d53e15fd",
        "scriptpubkey_asm": "OP_PUSHNUM_1 OP_PUSHBYTES_32 f24ca11d5cce7885a7100b26e911e7ed6adedef01675b2642eb522b0d53e15fd",
        "scriptpubkey_type": "v1_p2tr",
        "scriptpubkey_address": "bc1p7fx2z82ueeugtfcspvnwjy08a44dahhsze6myepwk53tp4f7zh7sj3gnn6",
        "value": 1806
      },
      "scriptsig": "",
      "scriptsig_asm": "",
      "witness": [
        "9a12f09545ee50b1d320770c7e150f19c4a751c615ba1b83ffc4b827c93a9025c9d0867bce201f272ff4868eb7286c45ebdb5719d1c9bd22271c6bd336096f73",
        "20b6056238a426f38e4fd346b1b076f6173587b06ad36f43ed2ee34e2393b9d108ac0063036f726401010a746578742f706c61696e00357b2270223a226272632d3230222c226f70223a226d696e74222c227469636b223a22646f6765222c22616d74223a2234323030227d68",
        "c1b6056238a426f38e4fd346b1b076f6173587b06ad36f43ed2ee34e2393b9d108"
      ],
      "is_coinbase": false,
      "sequence": 4261412863
    }
  ],
  "vout": [
    {
      "scriptpubkey": "00147a665de7a370f4c9b372ab1fae587500a5bcbdb4",
      "scriptpubkey_asm": "OP_0 OP_PUSHBYTES_20 7a665de7a370f4c9b372ab1fae587500a5bcbdb4",
      "scriptpubkey_type": "v0_p2wpkh",
      "scriptpubkey_address": "bc1q0fn9mearwr6vnvmj4v06ukr4qzjme0d565dzcx",
      "value": 294
    }
  ],
  "size": 294,
  "weight": 540,
  "fee": 1512,
  "status": {
    "confirmed": true,
    "block_height": 834460,
    "block_hash": "00000000000000000000484a79b643b2524bbce82e5d8a442013fa5b8905ed98",
    "block_time": 1710307468
  },
  "hex": "02000000000101643321469295d0c73f0634e20c357937dd113ace04293f2a58cb9a8600bac3ac2400000000fffffffd0126010000000000001600147a665de7a370f4c9b372ab1fae587500a5bcbdb403409a12f09545ee50b1d320770c7e150f19c4a751c615ba1b83ffc4b827c93a9025c9d0867bce201f272ff4868eb7286c45ebdb5719d1c9bd22271c6bd336096f736d20b6056238a426f38e4fd346b1b076f6173587b06ad36f43ed2ee34e2393b9d108ac0063036f726401010a746578742f706c61696e00357b2270223a226272632d3230222c226f70223a226d696e74222c227469636b223a22646f6765222c22616d74223a2234323030227d6821c1b6056238a426f38e4fd346b1b076f6173587b06ad36f43ed2ee34e2393b9d10800000000"
}