{
  "txid": "4072328cd818f938c59c137d7d5cba67e3adbaff2cd87b3c447f6f6e81db4739",
  "version": 1,
  "locktime": 0,
  "vin": [
    {
      "txid": "062b12c209fb3ccb580691c7e33323ec040c936f81e16e1d93dee43ee12a8433",
      "vout": 66,
      "prevout": {
        "scriptpubkey": "0014f0011914b747e35e039704d8fe143e0bc5f9223f",
        "scriptpubkey_asm": "OP_0 OP_PUSHBYTES_20 f0011914b747e35e039704d8fe143e0bc5f9223f",
        "scriptpubkey_type": "v0_p2wpkh",
        "scriptpubkey_address": "bc1q7qq3j99hgl34uquhqnv0u9p7p0zljg3ltmnwr5",
        "value": 16339
      },
      "scriptsig": "",
      "scriptsig_asm": "",
      "witness": [
        "304402202ee05503e579ee7da9dc32e744434608c0ac1946807aa536e7cbcf3c3af1d33b022027180ea42454c3e5ee8c234e396faf752423a8cc07a89f738593f8fb5bac5a0501",
        "0345778e98507a907a6da79363c67fe48bc89d8d0c2f42f2d5775347aad52fb63b"
      ],
      "is_coinbase": false,
      "sequence": 4294967293
    },
    {
      "txid": "fc12072aa078513bfee81389c66d3d11f35aff4633b1cb30d95281921f8440b7",
      "vout": 2,
      "prevout": {
        "scriptpubkey": "0014c7d5bb5238219bb36a17857123540c6b9e01bdc8",
        "scriptpubkey_asm": "OP_0 OP_PUSHBYTES_20 c7d5bb5238219bb36a17857123540c6b9e01bdc8",
        "scriptpubkey_type": "v0_p2wpkh",
        "scriptpubkey_address": "bc1qcl2mk53cyxdmx6shs4cjx4qvdw0qr0wgccsqdq",
        "value": 16133
      },
      "scriptsig": "",
      "scriptsig_asm": "",
      "witness": [
        "304402203f3a8403174a6fb78e659382edfae05b54003f9335aa2313aa3756170863a359022064b326c32b4d5ce434f8b434bf7f5b63f05959ca17c052c531687f2f1a10e2ae01",
        "0257889e4f00006cba54afc43139808ad7bfdf0433d348dea36b9521abec9e8640"
      ],
      "is_coinbase": false,
      "sequence": 4294967293
    },
    {
      "txid": "fbfc8f167844c8177f9d8d1a546b8caded72d35a73ea9b21025ef720fa525492",
      "vout": 15,
      "prevout": {
        "scriptpubkey": "00149de6786ec9c208f32b2586d7e35320068a25c387",
        "scriptpubkey_asm": "OP_0 OP_PUSHBYTES_20 9de6786ec9c208f32b2586d7e35320068a25c387",
        "scriptpubkey_type": "v0_p2wpkh",
        "scriptpubkey_address": "bc1qnhn8smkfcgy0x2e9smt7x5eqq69ztsu84kmetr",
        "value": 15825
      },
      "scriptsig": "",
      "scriptsig_asm": "",
      "witness": [
        "304502210086a762de8a02b499dc6d3dcf66f012e4dbf365db1f493f835c9ebdafc6ebfc4b02204f227a9a3d5dbbfb65f524d5afee69602e9592a161e436598eb486f242eeb69d01",
        "02d680f6855f23af9da653eea1512e60e2c008533b2fe9f63ad39da5d3559e0cd6"
      ],
      "is_coinbase": false,
      "sequence": 4294967293
    },
    {
      "txid": "72abf6cda06ab9b456a67721ddbdaad5dce2404a1d201bd9eaa1f318ffc6e765",
      "vout": 84,
      "prevout": {
        "scriptpubkey": "00145d8d34fe5518c38fb0022fb2a4b26d2025f1fbae",
        "scriptpubkey_asm": "OP_0 OP_PUSHBYTES_20 5d8d34fe5518c38fb0022fb2a4b26d2025f1fbae",
        "scriptpubkey_type": "v0_p2wpkh",
        "scriptpubkey_address": "bc1qtkxnflj4rrpclvqz97e2fvndyqjlr7awhhj57r",
        "value": 15814
      },
      "scriptsig": "",
      "scriptsig_asm": "",
      "witness": [
        "30430220698e29ffe1839d344d08ae6c5544906c7a3971b6e8de3a52a9e0218528aadaf4021f35139c06b94235cb05637849b78937fab12d216c28093911f9fdf505e534ad01",
        "0245be1e4923f7a30f2b7daa80b0322fc061536249ad2df164f9d163627f7994db"
      ],
      "is_coinbase": false,
      "sequence": 4294967293
    },
    {
      "txid": "590460a562a155f196f497b5af4892b71e75a9ad6bae61832d36cbce7cf51a80",
      "vout": 89,
      "prevout": {
        "scriptpubkey": "0014fc538c93f288693e3d5d73b570d61ac59788c2a1",
        "scriptpubkey_asm": "OP_0 OP_PUSHBYTES_20 fc538c93f288693e3d5d73b570d61ac59788c2a1",
        "scriptpubkey_type": "v0_p2wpkh",
        "scriptpubkey_address": "bc1ql3fceylj3p5nu02aww6hp4s6cktc3s4p3slgnh",
        "value": 15513
      },
      "scriptsig": "",
      "scriptsig_asm": "",
      "witness": [
        "304402200699c02a2389768430ac702b3ef34cd9d0d8386d44044cde1cf8fa0ee438271202201006159476d6dededf6a57379a64cbbb53445839bb9168ed4594522de71bc39201",
        "03cfbca4c352a54d2bbcd6e8b437520e3d86036ca40bb6e12edafa24fcd8074ce0"
      ],
      "is_coinbase": false,
      "sequence": 4294967293
    }
  ],
  "vout": [
    {
      "scriptpubkey": "0014e89cb9ccbf36ad8f5fd5f9c832dcb390d9e8ab3d",
      "scriptpubkey_asm": "OP_0 OP_PUSHBYTES_20 e89cb9ccbf36ad8f5fd5f9c832dcb390d9e8ab3d",
      "scriptpubkey_type": "v0_p2wpkh",
      "scriptpubkey_address": "bc1qazwtnn9lx6kc7h74l8yr9h9njrv732eadwxm3u",
      "value": 68104
    }
  ],
  "size": 783,
  "weight": 1521,
  "fee": 11520,
  "status": {
    "confirmed": true,
    "block_height": 834638,
    "block_hash": "000000000000000000025f742c626208ac87e0b7d15054abb4a19ca2d735a54e",
    "block_time": 1710405325
  },
  "hex": "0100000000010533842ae13ee4de931d6ee1816f930c04ec2333e3c7910658cb3cfb09c2122b064200000000fdffffffb740841f928152d930cbb13346ff5af3113d6dc68913e8fe3b5178a02a0712fc0200000000fdffffff925452fa20f75e02219bea735ad372edad8c6b541a8d9d7f17c84478168ffcfb0f00000000fdffffff65e7c6ff18f3a1ead91b201d4a40e2dcd5aabddd2177a656b4b96aa0cdf6ab725400000000fdffffff801af57ccecb362d8361ae6bada9751eb79248afb597f496f155a162a56004595900000000fdffffff01080a010000000000160014e89cb9ccbf36ad8f5fd5f9c832dcb390d9e8ab3d0247304402202ee05503e579ee7da9dc32e744434608c0ac1946807aa536e7cbcf3c3af1d33b022027180ea42454c3e5ee8c234e396faf752423a8cc07a89f738593f8fb5bac5a0501210345778e98507a907a6da79363c67fe48bc89d8d0c2f42f2d5775347aad52fb63b0247304402203f3a8403174a6fb78e659382edfae05b54003f9335aa2313aa3756170863a359022064b326c32b4d5ce434f8b434bf7f5b63f05959ca17c052c531687f2f1a10e2ae01210257889e4f00006cba54afc43139808ad7bfdf0433d348dea36b9521abec9e86400248304502210086a762de8a02b499dc6d3dcf66f012e4dbf365db1f493f835c9ebdafc6ebfc4b02204f227a9a3d5dbbfb65f524d5afee69602e9592a161e436598eb486f242eeb69d012102d680f6855f23af9da653eea1512e60e2c008533b2fe9f63ad39da5d3559e0cd6024630430220698e29ffe1839d344d08ae6c5544906c7a3971b6e8de3a52a9e0218528aadaf4021f35139c06b94235cb05637849b78937fab12d216c28093911f9fdf505e534ad01210245be1e4923f7a30f2b7daa80b0322fc061536249ad2df164f9d163627f7994db0247304402200699c02a2389768430ac702b3ef34cd9d0d8386d44044cde1cf8fa0ee438271202201006159476d6dededf6a57379a64cbbb53445839bb9168ed4594522de71bc392012103cfbca4c352a54d2bbcd6e8b437520e3d86036ca40bb6e12edafa24fcd8074ce000000000"
}