{
  "txid": "4074c7ef2f047d54ba02f5760187df82f58f5a2fce59e2698fda66edb22b75d4",
  "version": 2,
  "locktime": 0,
  "vin": [
    {
      "txid": "addece2b7148f3eec5501d217eaecc1bedcc92cc8daa762e6ea22a55296ce5f0",
      "vout": 4,
      "prevout": {
        "scriptpubkey": "5120750b623394f8f3c2c959e8e2fb039a0ab05f6797409cfa36702bbb23bb0b1d75",
        "scriptpubkey_asm": "OP_PUSHNUM_1 OP_PUSHBYTES_32 750b623394f8f3c2c959e8e2fb039a0ab05f6797409cfa36702bbb23bb0b1d75",
        "scriptpubkey_type": "v1_p2tr",
        "scriptpubkey_address": "bc1pw59kyvu5lreu9j2ear30kqu6p2c97euhgzw05dns9waj8wctr46szynxnk",
        "value": 3186
      },
      "scriptsig": "",
      "scriptsig_asm": "",
      "witness": [
        "ba2bad4c2163d27c619d51412247bb017566745be233a396a1a5aabdf3c69a277568767394434e973c42ec1afb5dfc1a0d40d448495594219effa62d29cbfc32",
        "203dcac4df5521d3b0f2071fb822a2d563338866ab0785d3a1675fb8ebe86c183dac0063036f726401011e6170706c69636174696f6e2f6a736f6e3b636861727365743d7574662d38004cbf7b2270223a22706f772d3230222c226f70223a226d696e74222c227469636b223a2250455045222c22616d74223a2231303030222c22736f6c7574696f6e223a22504550453a6263317175723539363576617439393072726574303464657977386b6661743337756a676636737872303a303030303030303030303030303030303030303139393431613561653132383937363539383134343239323533333030353762306461393666336465613163353a3138323430343131353239227d68",
        "c0e183e6acc47e68e82f80645eb93989e5b065f5d320bfc36879234135be4580e3"
      ],
      "is_coinbase": false,
      "sequence": 4294967295
    }
  ],
  "vout": [
    {
      "scriptpubkey": "0014e0e85d519d594af18f2b7d5b9238f64f571f7248",
      "scriptpubkey_asm": "OP_0 OP_PUSHBYTES_20 e0e85d519d594af18f2b7d5b9238f64f571f7248",
      "scriptpubkey_type": "v0_p2wpkh",
      "scriptpubkey_address": "bc1qur5965vat990rret04deyw8kfat37ujgf6sxr0",
      "value": 546
    }
  ],
  "size": 455,
  "weight": 701,
  "fee": 2640,
  "status": {
    "confirmed": true,
    "block_height": 834460,
    "block_hash": "00000000000000000000484a79b643b2524bbce82e5d8a442013fa5b8905ed98",
    "block_time": 1710307468
  },
  "hex": "02000000000101f0e56c29552aa26e2e76aa8dcc92cced1bccae7e211d50c5eef348712bcedead0400000000ffffffff012202000000000000160014e0e85d519d594af18f2b7d5b9238f64f571f72480340ba2bad4c2163d27c619d51412247bb017566745be233a396a1a5aabdf3c69a277568767394434e973c42ec1afb5dfc1a0d40d448495594219effa62d29cbfc32fd0c01203dcac4df5521d3b0f2071fb822a2d563338866ab0785d3a1675fb8ebe86c183dac0063036f726401011e6170706c69636174696f6e2f6a736f6e3b636861727365743d7574662d38004cbf7b2270223a22706f772d3230222c226f70223a226d696e74222c227469636b223a2250455045222c22616d74223a2231303030222c22736f6c7574696f6e223a22504550453a6263317175723539363576617439393072726574303464657977386b6661743337756a676636737872303a303030303030303030303030303030303030303139393431613561653132383937363539383134343239323533333030353762306461393666336465613163353a3138323430343131353239227d6821c0e183e6acc47e68e82f80645eb93989e5b065f5d320bfc36879234135be4580e300000000"
}