{
  "txid": "40a69e4b7f733b8e60cdbe2e7a5b1fbeef864f1ad7dc821ac9210414fbd6c485",
  "version": 2,
  "locktime": 834637,
  "vin": [
    {
      "txid": "b1d6717d60d0e366e6ff6fc91c0af998584184682dca20fd57615f17019b1c24",
      "vout": 0,
      "prevout": {
        "scriptpubkey": "00140d4237e958c30da401807f4d653cf98a8af6d076",
        "scriptpubkey_asm": "OP_0 OP_PUSHBYTES_20 0d4237e958c30da401807f4d653cf98a8af6d076",
        "scriptpubkey_type": "v0_p2wpkh",
        "scriptpubkey_address": "bc1qp4pr062ccvx6gqvq0axk208e3290d5rkhza0ry",
        "value": 18900
      },
      "scriptsig": "",
      "scriptsig_asm": "",
      "witness": [
        "3044022056271bc559d8a39fb2bd709eb2ef9e4e2d04e6a6caa8eb3a9d175911c8bf9a0f0220103b82bdc3823ae2aca176931be8157e8359c029ffe33aa89f74fae29018ad3c01",
        "0304807900af03ed603f3568e838097f24068f6e3b2b573a36a29a58d9db9123c8"
      ],
      "is_coinbase": false,
      "sequence": 4294967294
    },
    {
      "txid": "4c2e106946c0f2a8e766e0185d837d90c8e2ef9339ff5e7be8d94d06ff0b1be2",
      "vout": 0,
      "prevout": {
        "scriptpubkey": "001480aae6d9788c376cbb3e1e998ce225b386dfcb2f",
        "scriptpubkey_asm": "OP_0 OP_PUSHBYTES_20 80aae6d9788c376cbb3e1e998ce225b386dfcb2f",
        "scriptpubkey_type": "v0_p2wpkh",
        "scriptpubkey_address": "bc1qsz4wdktc3smkewe7r6vcec39kwrdlje00yv9al",
        "value": 150595
      },
      "scriptsig": "",
      "scriptsig_asm": "",
      "witness": [
        "3044022051f4c42aa0d360b57c07fc1b2e7901c6b86e9ea0f2a35527963fc6fee7342bce0220404cc30e1e0baff90b50210130c517c942c0bafada579fe2eebc0cdd3a761e4001",
        "03961656872bb4c4c14c491e6d11b0aaced3f5aaf1583e578b68369c39bf80a2e6"
      ],
      "is_coinbase": false,
      "sequence": 4294967294
    }
  ],
  "vout": [
    {
      "scriptpubkey": "001402b10d261e774b28ea6c8f6497b4b01e3723911b",
      "scriptpubkey_asm": "OP_0 OP_PUSHBYTES_20 02b10d261e774b28ea6c8f6497b4b01e3723911b",
      "scriptpubkey_type": "v0_p2wpkh",
      "scriptpubkey_address": "bc1qq2cs6fs7wa9j36nv3ajf0d9srcmj8ygmjaae95",
      "value": 3539
    },
    {
      "scriptpubkey": "00147ec9ffdda6d6936db0535f8a293ca3a96683b827",
      "scriptpubkey_asm": "OP_0 OP_PUSHBYTES_20 7ec9ffdda6d6936db0535f8a293ca3a96683b827",
      "scriptpubkey_type": "v0_p2wpkh",
      "scriptpubkey_address": "bc1q0myllhdx66fkmvznt79zj09r49ng8wp8573trj",
      "value": 161358
    }
  ],
  "size": 370,
  "weight": 832,
  "fee": 4598,
  "status": {
    "confirmed": true,
    "block_height": 834638,
    "block_hash": "000000000000000000025f742c626208ac87e0b7d15054abb4a19ca2d735a54e",
    "block_time": 1710405325
  },
  "hex": "02000000000102241c9b01175f6157fd20ca2d6884415898f90a1cc96fffe666e3d0607d71d6b10000000000feffffffe21b0bff064dd9e87b5eff3993efe2c8907d835d18e066e7a8f2c04669102e4c0000000000feffffff02d30d00000000000016001402b10d261e774b28ea6c8f6497b4b01e3723911b4e760200000000001600147ec9ffdda6d6936db0535f8a293ca3a96683b82702473044022056271bc559d8a39fb2bd709eb2ef9e4e2d04e6a6caa8eb3a9d175911c8bf9a0f0220103b82bdc3823ae2aca176931be8157e8359c029ffe33aa89f74fae29018ad3c01210304807900af03ed603f3568e838097f24068f6e3b2b573a36a29a58d9db9123c802473044022051f4c42aa0d360b57c07fc1b2e7901c6b86e9ea0f2a35527963fc6fee7342bce0220404cc30e1e0baff90b50210130c517c942c0bafada579fe2eebc0cdd3a761e40012103961656872bb4c4c14c491e6d11b0aaced3f5aaf1583e578b68369c39bf80a2e64dbc0c00"
}