{
  "txid": "40b4d6bf13cb4573b662cabf42f4b9cd0f8820c00514871ab93a05c4e6f69ed5",
  "version": 2,
  "locktime": 0,
  "vin": [
    {
      "txid": "acc3ba00869acb582a3f2904ce3a11dd3779350ce234063fc7d0959246213364",
      "vout": 271,
      "prevout": {
        "scriptpubkey": "512008d2c5467938e4f25f4d4c2724ce676dc4d8fc93ef91544b69248e1aa5474fa5",
        "scriptpubkey_asm": "OP_PUSHNUM_1 OP_PUSHBYTES_32 08d2c5467938e4f25f4d4c2724ce676dc4d8fc93ef91544b69248e1aa5474fa5",
        "scriptpubkey_type": "v1_p2tr",
        "scriptpubkey_address": "bc1pprfv23ne8rj0yh6dfsnjfnn8dhzd3lyna7g4gjmfyj8p4f28f7jslepujn",
        "value": 1806
      },
      "scriptsig": "",
      "scriptsig_asm": "",
      "witness": [
        "afb92170e6b0b8140ca240b813f6682119e3215d1a15eb6ff7c8a80ded52fe1ffb87f0ad03a6eba9319f53921adda0abe6898206dafa97102a2e94f5e9af16e4",
        "202126be13e1ce1ff592588233f905d76349ddb7322c8ad074ab05a1e4a2e38313ac0063036f726401010a746578742f706c61696e00357b2270223a226272632d3230222c226f70223a226d696e74222c227469636b223a22646f6765222c22616d74223a2234323030227d68",
        "c02126be13e1ce1ff592588233f905d76349ddb7322c8ad074ab05a1e4a2e38313"
      ],
      "is_coinbase": false,
      "sequence": 4261412863
    }
  ],
  "vout": [
    {
      "scriptpubkey": "00147a665de7a370f4c9b372ab1fae587500a5bcbdb4",
      "scriptpubkey_asm": "OP_0 OP_PUSHBYTES_20 7a665de7a370f4c9b372ab1fae587500a5bcbdb4",
      "scriptpubkey_type": "v0_p2wpkh",
      "scriptpubkey_address": "bc1q0fn9mearwr6vnvmj4v06ukr4qzjme0d565dzcx",
      "value": 294
    }
  ],
  "size": 294,
  "weight": 540,
  "fee": 1512,
  "status": {
    "confirmed": true,
    "block_height": 834460,
    "block_hash": "00000000000000000000484a79b643b2524bbce82e5d8a442013fa5b8905ed98",
    "block_time": 1710307468
  },
  "hex": "02000000000101643321469295d0c73f0634e20c357937dd113ace04293f2a58cb9a8600bac3ac0f01000000fffffffd0126010000000000001600147a665de7a370f4c9b372ab1fae587500a5bcbdb40340afb92170e6b0b8140ca240b813f6682119e3215d1a15eb6ff7c8a80ded52fe1ffb87f0ad03a6eba9319f53921adda0abe6898206dafa97102a2e94f5e9af16e46d202126be13e1ce1ff592588233f905d76349ddb7322c8ad074ab05a1e4a2e38313ac0063036f726401010a746578742f706c61696e00357b2270223a226272632d3230222c226f70223a226d696e74222c227469636b223a22646f6765222c22616d74223a2234323030227d6821c02126be13e1ce1ff592588233f905d76349ddb7322c8ad074ab05a1e4a2e3831300000000"
}