{
  "txid": "40bc5a05eeddb5c94c36259691bb84faef976b9388da999113ddb505e18bb949",
  "version": 1,
  "locktime": 0,
  "vin": [
    {
      "txid": "385dc1a11ac5736563c40767d983e5402e2ea85032def60def5e9d0476d48b00",
      "vout": 0,
      "prevout": {
        "scriptpubkey": "5120c354984643f670e02f8f9ed0baa208261ce1ed5d5d8c0f91690f5eb9cec4096b",
        "scriptpubkey_asm": "OP_PUSHNUM_1 OP_PUSHBYTES_32 c354984643f670e02f8f9ed0baa208261ce1ed5d5d8c0f91690f5eb9cec4096b",
        "scriptpubkey_type": "v1_p2tr",
        "scriptpubkey_address": "bc1pcd2fs3jr7ecwqtu0nmgt4gsgycwwrm2atkxqlytfpa0tnnkyp94ss52zfk",
        "value": 96954
      },
      "scriptsig": "",
      "scriptsig_asm": "",
      "witness": [
        "ace0a72ec10f3824fe1a32b085af611ee3b4bc94a500c9eaf13a17e3140922d51d9d5e8663db4b7edc6bc2929154e4282bafa4da151ac0ef4fab43fc1d170d8301"
      ],
      "is_coinbase": false,
      "sequence": 4294967295
    }
  ],
  "vout": [
    {
      "scriptpubkey": "5120e48b22983bdf7325e169f6d2b0b96ee2a6b804e979f1dda3958b378bb1900761",
      "scriptpubkey_asm": "OP_PUSHNUM_1 OP_PUSHBYTES_32 e48b22983bdf7325e169f6d2b0b96ee2a6b804e979f1dda3958b378bb1900761",
      "scriptpubkey_type": "v1_p2tr",
      "scriptpubkey_address": "bc1puj9j9xpmmaejtctf7mftpwtwu2ntsp8f08camgu43vmchvvsqass4en45q",
      "value": 80336
    },
    {
      "scriptpubkey": "0014a5f03568ddb65e87e3510ef9cf12d3f1c101ef4b",
      "scriptpubkey_asm": "OP_0 OP_PUSHBYTES_20 a5f03568ddb65e87e3510ef9cf12d3f1c101ef4b",
      "scriptpubkey_type": "v0_p2wpkh",
      "scriptpubkey_address": "bc1q5hcr26xake0g0c63pmuu7ykn78qsrm6ttwpfw9",
      "value": 14945
    }
  ],
  "size": 194,
  "weight": 569,
  "fee": 1673,
  "status": {
    "confirmed": true,
    "block_height": 834464,
    "block_hash": "0000000000000000000177a0869a911a2b65c9bdcd5a8bcb02b68f305bee848e",
    "block_time": 1710308296
  },
  "hex": "01000000000101008bd476049d5eef0df6de3250a82e2e40e583d96707c4636573c51aa1c15d380000000000ffffffff02d039010000000000225120e48b22983bdf7325e169f6d2b0b96ee2a6b804e979f1dda3958b378bb1900761613a000000000000160014a5f03568ddb65e87e3510ef9cf12d3f1c101ef4b0141ace0a72ec10f3824fe1a32b085af611ee3b4bc94a500c9eaf13a17e3140922d51d9d5e8663db4b7edc6bc2929154e4282bafa4da151ac0ef4fab43fc1d170d830100000000"
}