{
  "txid": "40cbacf6bf1de3d1a9fb786beda3fdb462efae97b54f42cd02c4d998f01e1f22",
  "version": 2,
  "locktime": 834458,
  "vin": [
    {
      "txid": "fe9a36739cc79cb62a3780357a61e772f904de851a6629cd9ae720f96d1abc2d",
      "vout": 0,
      "prevout": {
        "scriptpubkey": "0014af48f7bb500f5305e6503eed6eebc9c6f1b8447b",
        "scriptpubkey_asm": "OP_0 OP_PUSHBYTES_20 af48f7bb500f5305e6503eed6eebc9c6f1b8447b",
        "scriptpubkey_type": "v0_p2wpkh",
        "scriptpubkey_address": "bc1q4ay00w6spafstejs8mkka67fcmcms3rmrc4jtx",
        "value": 69232070
      },
      "scriptsig": "",
      "scriptsig_asm": "",
      "witness": [
        "304402202ae24b3c64ae069500ca8d4e7b73fd0547c79e20566a7709511744732d07447402206753e9fe806ca5a27b57144f95840bd9723e97ed2ff052d153cdb140d8c6e6e501",
        "020f724c5cca6f93f9349fcc5356cc2710fc532a34403aaf97844f11f705f090b9"
      ],
      "is_coinbase": false,
      "sequence": 4294967293
    }
  ],
  "vout": [
    {
      "scriptpubkey": "00149d9704733139d8e6ff4a6fb80641aa0524c98d40",
      "scriptpubkey_asm": "OP_0 OP_PUSHBYTES_20 9d9704733139d8e6ff4a6fb80641aa0524c98d40",
      "scriptpubkey_type": "v0_p2wpkh",
      "scriptpubkey_address": "bc1qnktsgue388vwdl62d7uqvsd2q5jvnr2qgdanpv",
      "value": 120426
    },
    {
      "scriptpubkey": "0014a8dad7b4f423c9b6a07b9872dca8663a6d6f4d05",
      "scriptpubkey_asm": "OP_0 OP_PUSHBYTES_20 a8dad7b4f423c9b6a07b9872dca8663a6d6f4d05",
      "scriptpubkey_type": "v0_p2wpkh",
      "scriptpubkey_address": "bc1q4rdd0d85y0ymdgrmnpede2rx8fkk7ng9qmkf2l",
      "value": 69109952
    }
  ],
  "size": 222,
  "weight": 561,
  "fee": 1692,
  "status": {
    "confirmed": true,
    "block_height": 834460,
    "block_hash": "00000000000000000000484a79b643b2524bbce82e5d8a442013fa5b8905ed98",
    "block_time": 1710307468
  },
  "hex": "020000000001012dbc1a6df920e79acd29661a85de04f972e7617a3580372ab69cc79c73369afe0000000000fdffffff026ad60100000000001600149d9704733139d8e6ff4a6fb80641aa0524c98d40c0881e0400000000160014a8dad7b4f423c9b6a07b9872dca8663a6d6f4d050247304402202ae24b3c64ae069500ca8d4e7b73fd0547c79e20566a7709511744732d07447402206753e9fe806ca5a27b57144f95840bd9723e97ed2ff052d153cdb140d8c6e6e50121020f724c5cca6f93f9349fcc5356cc2710fc532a34403aaf97844f11f705f090b99abb0c00"
}