{
  "txid": "40f527c5ac5c1d14c28ec7816fd28f9913d816e06a964fe602bbb8616173c9f0",
  "version": 2,
  "locktime": 0,
  "vin": [
    {
      "txid": "4ee77778659dcfe8d7a4e15882fc6193f4f3d5f6607624e256337b44c2280af5",
      "vout": 68,
      "prevout": {
        "scriptpubkey": "51207fd27b683497a9239e8f77be5ed06caccecc8a1c80b105214af83823a3db4701",
        "scriptpubkey_asm": "OP_PUSHNUM_1 OP_PUSHBYTES_32 7fd27b683497a9239e8f77be5ed06caccecc8a1c80b105214af83823a3db4701",
        "scriptpubkey_type": "v1_p2tr",
        "scriptpubkey_address": "bc1p0lf8k6p5j75j8850w7l9a5rv4n8vezsuszcs2g22lquz8g7mguqsjwkdnq",
        "value": 2075
      },
      "scriptsig": "",
      "scriptsig_asm": "",
      "witness": [
        "446ef224099da2ad65752b9016e35ff9f8ba72913bbdd4fce65e65c221158a17f2a031f1667ee6f4df2cd85b14cb70efca4b2e453db7fe114af01efc0f64c7f4",
        "20f0ff27674ddd467f1aa6ae022ad1fd4dbf27ffdc4b2ee7a898fefa15dd9483c3ac0063036f7264010118746578742f706c61696e3b636861727365743d7574662d3800357b2270223a224252432d313030222c226f70223a226d696e74222c227469636b223a22696e73222c22616d74223a2231303030227d68",
        "c0c50eac15d7d7889f5ad84f80015e8a209129aeea937c37fa4b8bc0f9be289730"
      ],
      "is_coinbase": false,
      "sequence": 4294967295
    }
  ],
  "vout": [
    {
      "scriptpubkey": "00143e2325412b554cacdd163a93a42204c4707f8851",
      "scriptpubkey_asm": "OP_0 OP_PUSHBYTES_20 3e2325412b554cacdd163a93a42204c4707f8851",
      "scriptpubkey_type": "v0_p2wpkh",
      "scriptpubkey_address": "bc1q8c3j2sft24x2ehgk82f6ggsyc3c8lzz3yw9wsu",
      "value": 546
    }
  ],
  "size": 308,
  "weight": 554,
  "fee": 1529,
  "status": {
    "confirmed": true,
    "block_height": 834464,
    "block_hash": "0000000000000000000177a0869a911a2b65c9bdcd5a8bcb02b68f305bee848e",
    "block_time": 1710308296
  },
  "hex": "02000000000101f50a28c2447b3356e2247660f6d5f3f49361fc8258e1a4d7e8cf9d657877e74e4400000000ffffffff0122020000000000001600143e2325412b554cacdd163a93a42204c4707f88510340446ef224099da2ad65752b9016e35ff9f8ba72913bbdd4fce65e65c221158a17f2a031f1667ee6f4df2cd85b14cb70efca4b2e453db7fe114af01efc0f64c7f47b20f0ff27674ddd467f1aa6ae022ad1fd4dbf27ffdc4b2ee7a898fefa15dd9483c3ac0063036f7264010118746578742f706c61696e3b636861727365743d7574662d3800357b2270223a224252432d313030222c226f70223a226d696e74222c227469636b223a22696e73222c22616d74223a2231303030227d6821c0c50eac15d7d7889f5ad84f80015e8a209129aeea937c37fa4b8bc0f9be28973000000000"
}