{
  "txid": "40f83234272fe3a73973d1ae4af852a26904d16aaffca66c0c805dbc6be74287",
  "version": 2,
  "locktime": 0,
  "vin": [
    {
      "txid": "8725f775ea2d113c5570e977cc2edfaa326ea03635315b85bc0d5208049c1574",
      "vout": 746,
      "prevout": {
        "scriptpubkey": "00144233aefe28f7d04fc03d11f6ed3808e6514ba34f",
        "scriptpubkey_asm": "OP_0 OP_PUSHBYTES_20 4233aefe28f7d04fc03d11f6ed3808e6514ba34f",
        "scriptpubkey_type": "v0_p2wpkh",
        "scriptpubkey_address": "bc1qgge6al3g7lgylspaz8mw6wqgueg5hg60rknl4u",
        "value": 546
      },
      "scriptsig": "",
      "scriptsig_asm": "",
      "witness": [
        "304402200ae1c0f8f0bdc4e3e6d77e579ed3a12c3858cfacf2503a6e47019bd0fc5edcee022014e17d21a7e8ea6fd6f646cd1787816d0e073c1a5cffb9f3ba9e782b97e5a6e201",
        "021c0ac5272cfbca45be86295499d7a7dc4005b867cf5d9161832abf6131d57e26"
      ],
      "is_coinbase": false,
      "sequence": 4294967295
    },
    {
      "txid": "e4e422c15a1a5a1e06fbfb0773d1828f9e1c2273f6d0d1eae3e2ac234f35af02",
      "vout": 1,
      "prevout": {
        "scriptpubkey": "00144233aefe28f7d04fc03d11f6ed3808e6514ba34f",
        "scriptpubkey_asm": "OP_0 OP_PUSHBYTES_20 4233aefe28f7d04fc03d11f6ed3808e6514ba34f",
        "scriptpubkey_type": "v0_p2wpkh",
        "scriptpubkey_address": "bc1qgge6al3g7lgylspaz8mw6wqgueg5hg60rknl4u",
        "value": 919170
      },
      "scriptsig": "",
      "scriptsig_asm": "",
      "witness": [
        "3045022100824f1f78472fb0bc7e5c292b16a328aed3a2a9812df073990544f4e1e8b9da0102200b327b5a8fa446b70395b5cf24e17ef663c4fe7479cbce18c7ed11571205023901",
        "021c0ac5272cfbca45be86295499d7a7dc4005b867cf5d9161832abf6131d57e26"
      ],
      "is_coinbase": false,
      "sequence": 4294967295
    }
  ],
  "vout": [
    {
      "scriptpubkey": "51200d39e8b271fc8ffe44ccd6a820560b18f1df913cf31a4f962943d3e2b401527a",
      "scriptpubkey_asm": "OP_PUSHNUM_1 OP_PUSHBYTES_32 0d39e8b271fc8ffe44ccd6a820560b18f1df913cf31a4f962943d3e2b401527a",
      "scriptpubkey_type": "v1_p2tr",
      "scriptpubkey_address": "bc1pp5u73vn3lj8lu3xv665zq4strrcalyfu7vdyl93fg0f79dqp2faqa69rqd",
      "value": 546
    },
    {
      "scriptpubkey": "00144233aefe28f7d04fc03d11f6ed3808e6514ba34f",
      "scriptpubkey_asm": "OP_0 OP_PUSHBYTES_20 4233aefe28f7d04fc03d11f6ed3808e6514ba34f",
      "scriptpubkey_type": "v0_p2wpkh",
      "scriptpubkey_address": "bc1qgge6al3g7lgylspaz8mw6wqgueg5hg60rknl4u",
      "value": 915855
    }
  ],
  "size": 383,
  "weight": 881,
  "fee": 3315,
  "status": {
    "confirmed": true,
    "block_height": 834638,
    "block_hash": "000000000000000000025f742c626208ac87e0b7d15054abb4a19ca2d735a54e",
    "block_time": 1710405325
  },
  "hex": "0200000000010274159c0408520dbc855b313536a06e32aadf2ecc77e970553c112dea75f72587ea02000000ffffffff02af354f23ace2e3ead1d0f673221c9e8f82d17307fbfb061e5a1a5ac122e4e40100000000ffffffff0222020000000000002251200d39e8b271fc8ffe44ccd6a820560b18f1df913cf31a4f962943d3e2b401527a8ff90d00000000001600144233aefe28f7d04fc03d11f6ed3808e6514ba34f0247304402200ae1c0f8f0bdc4e3e6d77e579ed3a12c3858cfacf2503a6e47019bd0fc5edcee022014e17d21a7e8ea6fd6f646cd1787816d0e073c1a5cffb9f3ba9e782b97e5a6e20121021c0ac5272cfbca45be86295499d7a7dc4005b867cf5d9161832abf6131d57e2602483045022100824f1f78472fb0bc7e5c292b16a328aed3a2a9812df073990544f4e1e8b9da0102200b327b5a8fa446b70395b5cf24e17ef663c4fe7479cbce18c7ed1157120502390121021c0ac5272cfbca45be86295499d7a7dc4005b867cf5d9161832abf6131d57e2600000000"
}