{
  "txid": "40fa87e061302fc5b365f88d3e12fc14811cc684dbb88519db479ffd37a145fd",
  "version": 2,
  "locktime": 0,
  "vin": [
    {
      "txid": "54bcdd496bcfc02b715e5dada00c04addf2a4659e22a31c59b06000b86a18b4e",
      "vout": 4,
      "prevout": {
        "scriptpubkey": "51208b395fc1d36e6e090db24483763a89da9948736d5427ffc481052c17742924ec",
        "scriptpubkey_asm": "OP_PUSHNUM_1 OP_PUSHBYTES_32 8b395fc1d36e6e090db24483763a89da9948736d5427ffc481052c17742924ec",
        "scriptpubkey_type": "v1_p2tr",
        "scriptpubkey_address": "bc1p3vu4lswndehqjrdjgjphvw5fm2v5sumd2snll3ypq5kpwapfynkqnd3j9e",
        "value": 600
      },
      "scriptsig": "",
      "scriptsig_asm": "",
      "witness": [
        "0e251588511159d95439889953499ff4eb0e3416b6eaeec1fb1f252f7947ef36635fbd87fc4883486f67d3c3c9a83e4183c2728c850218e2389043244bf03968"
      ],
      "is_coinbase": false,
      "sequence": 4294967295
    },
    {
      "txid": "60400eaf37569429f750ac6fb647a09c3959e4ce57debb37b9fe5d1949ec9476",
      "vout": 9,
      "prevout": {
        "scriptpubkey": "51208b395fc1d36e6e090db24483763a89da9948736d5427ffc481052c17742924ec",
        "scriptpubkey_asm": "OP_PUSHNUM_1 OP_PUSHBYTES_32 8b395fc1d36e6e090db24483763a89da9948736d5427ffc481052c17742924ec",
        "scriptpubkey_type": "v1_p2tr",
        "scriptpubkey_address": "bc1p3vu4lswndehqjrdjgjphvw5fm2v5sumd2snll3ypq5kpwapfynkqnd3j9e",
        "value": 600
      },
      "scriptsig": "",
      "scriptsig_asm": "",
      "witness": [
        "1db2a69e5b76a2233c6ca9b90be41610d9dab51edee03c19be0c3e8f72602ac9b60597479c1b0719878929aa9339efbe4aecb87eb2788587c006907d63b25d1e"
      ],
      "is_coinbase": false,
      "sequence": 4294967295
    },
    {
      "txid": "eb545a81474a001018dc93cfb42b65eb5608f1b75c0c26e3d53bfad6bf346a23",
      "vout": 1,
      "prevout": {
        "scriptpubkey": "512012183518d6bb6cfbe47e0531a5077299673696769cc04af405dee68ec65e664a",
        "scriptpubkey_asm": "OP_PUSHNUM_1 OP_PUSHBYTES_32 12183518d6bb6cfbe47e0531a5077299673696769cc04af405dee68ec65e664a",
        "scriptpubkey_type": "v1_p2tr",
        "scriptpubkey_address": "bc1pzgvr2xxkhdk0her7q5c62pmjn9nnd9nknnqy4aq9mmnga3j7ve9qtc59ct",
        "value": 546
      },
      "scriptsig": "",
      "scriptsig_asm": "",
      "witness": [
        "cb8b18d6c75f1a404ac4de2310c807c2aa6a65f5202cb81f6098a8d0ebe1544a3126fd04a7e748b6e781b9dcb0b465aebddf4fdc1b7882f5b488100bc49ede7183"
      ],
      "is_coinbase": false,
      "sequence": 4294967295
    },
    {
      "txid": "1725cb473309413aa98464babffcb9d5c9b48ab1d2942d2bb269f6732cfcdfa8",
      "vout": 6,
      "prevout": {
        "scriptpubkey": "51208b395fc1d36e6e090db24483763a89da9948736d5427ffc481052c17742924ec",
        "scriptpubkey_asm": "OP_PUSHNUM_1 OP_PUSHBYTES_32 8b395fc1d36e6e090db24483763a89da9948736d5427ffc481052c17742924ec",
        "scriptpubkey_type": "v1_p2tr",
        "scriptpubkey_address": "bc1p3vu4lswndehqjrdjgjphvw5fm2v5sumd2snll3ypq5kpwapfynkqnd3j9e",
        "value": 153246
      },
      "scriptsig": "",
      "scriptsig_asm": "",
      "witness": [
        "d78291855b8b43c524120ea139265063bc3f7607cf845ff0d09c0641c810e86655ea8fc15f115a22b8af6d65df3bb9606a4d068dbf7390f6dd9d7e3e8df0e96f"
      ],
      "is_coinbase": false,
      "sequence": 4294967295
    }
  ],
  "vout": [
    {
      "scriptpubkey": "51208b395fc1d36e6e090db24483763a89da9948736d5427ffc481052c17742924ec",
      "scriptpubkey_asm": "OP_PUSHNUM_1 OP_PUSHBYTES_32 8b395fc1d36e6e090db24483763a89da9948736d5427ffc481052c17742924ec",
      "scriptpubkey_type": "v1_p2tr",
      "scriptpubkey_address": "bc1p3vu4lswndehqjrdjgjphvw5fm2v5sumd2snll3ypq5kpwapfynkqnd3j9e",
      "value": 1200
    },
    {
      "scriptpubkey": "51208b395fc1d36e6e090db24483763a89da9948736d5427ffc481052c17742924ec",
      "scriptpubkey_asm": "OP_PUSHNUM_1 OP_PUSHBYTES_32 8b395fc1d36e6e090db24483763a89da9948736d5427ffc481052c17742924ec",
      "scriptpubkey_type": "v1_p2tr",
      "scriptpubkey_address": "bc1p3vu4lswndehqjrdjgjphvw5fm2v5sumd2snll3ypq5kpwapfynkqnd3j9e",
      "value": 546
    },
    {
      "scriptpubkey": "512012183518d6bb6cfbe47e0531a5077299673696769cc04af405dee68ec65e664a",
      "scriptpubkey_asm": "OP_PUSHNUM_1 OP_PUSHBYTES_32 12183518d6bb6cfbe47e0531a5077299673696769cc04af405dee68ec65e664a",
      "scriptpubkey_type": "v1_p2tr",
      "scriptpubkey_address": "bc1pzgvr2xxkhdk0her7q5c62pmjn9nnd9nknnqy4aq9mmnga3j7ve9qtc59ct",
      "value": 50296
    },
    {
      "scriptpubkey": "a914ea6b832a05c6ca578baa3836f3f25553d41068a587",
      "scriptpubkey_asm": "OP_HASH160 OP_PUSHBYTES_20 ea6b832a05c6ca578baa3836f3f25553d41068a5 OP_EQUAL",
      "scriptpubkey_type": "p2sh",
      "scriptpubkey_address": "3P4WqXDbSLRhzo2H6MT6YFbvBKBDPLbVtQ",
      "value": 1250
    },
    {
      "scriptpubkey": "51208b395fc1d36e6e090db24483763a89da9948736d5427ffc481052c17742924ec",
      "scriptpubkey_asm": "OP_PUSHNUM_1 OP_PUSHBYTES_32 8b395fc1d36e6e090db24483763a89da9948736d5427ffc481052c17742924ec",
      "scriptpubkey_type": "v1_p2tr",
      "scriptpubkey_address": "bc1p3vu4lswndehqjrdjgjphvw5fm2v5sumd2snll3ypq5kpwapfynkqnd3j9e",
      "value": 600
    },
    {
      "scriptpubkey": "51208b395fc1d36e6e090db24483763a89da9948736d5427ffc481052c17742924ec",
      "scriptpubkey_asm": "OP_PUSHNUM_1 OP_PUSHBYTES_32 8b395fc1d36e6e090db24483763a89da9948736d5427ffc481052c17742924ec",
      "scriptpubkey_type": "v1_p2tr",
      "scriptpubkey_address": "bc1p3vu4lswndehqjrdjgjphvw5fm2v5sumd2snll3ypq5kpwapfynkqnd3j9e",
      "value": 600
    },
    {
      "scriptpubkey": "51208b395fc1d36e6e090db24483763a89da9948736d5427ffc481052c17742924ec",
      "scriptpubkey_asm": "OP_PUSHNUM_1 OP_PUSHBYTES_32 8b395fc1d36e6e090db24483763a89da9948736d5427ffc481052c17742924ec",
      "scriptpubkey_type": "v1_p2tr",
      "scriptpubkey_address": "bc1p3vu4lswndehqjrdjgjphvw5fm2v5sumd2snll3ypq5kpwapfynkqnd3j9e",
      "value": 92520
    }
  ],
  "size": 731,
  "weight": 2123,
  "fee": 7980,
  "status": {
    "confirmed": true,
    "block_height": 834638,
    "block_hash": "000000000000000000025f742c626208ac87e0b7d15054abb4a19ca2d735a54e",
    "block_time": 1710405325
  },
  "hex": "020000000001044e8ba1860b00069bc5312ae259462adfad040ca0ad5d5e712bc0cf6b49ddbc540400000000ffffffff7694ec49195dfeb937bbde57cee459399ca047b66fac50f729945637af0e40600900000000ffffffff236a34bfd6fa3bd5e3260c5cb7f10856eb652bb4cf93dc1810004a47815a54eb0100000000ffffffffa8dffc2c73f669b22b2d94d2b18ab4c9d5b9fcbfba6484a93a41093347cb25170600000000ffffffff07b0040000000000002251208b395fc1d36e6e090db24483763a89da9948736d5427ffc481052c17742924ec22020000000000002251208b395fc1d36e6e090db24483763a89da9948736d5427ffc481052c17742924ec78c400000000000022512012183518d6bb6cfbe47e0531a5077299673696769cc04af405dee68ec65e664ae20400000000000017a914ea6b832a05c6ca578baa3836f3f25553d41068a58758020000000000002251208b395fc1d36e6e090db24483763a89da9948736d5427ffc481052c17742924ec58020000000000002251208b395fc1d36e6e090db24483763a89da9948736d5427ffc481052c17742924ec68690100000000002251208b395fc1d36e6e090db24483763a89da9948736d5427ffc481052c17742924ec01400e251588511159d95439889953499ff4eb0e3416b6eaeec1fb1f252f7947ef36635fbd87fc4883486f67d3c3c9a83e4183c2728c850218e2389043244bf0396801401db2a69e5b76a2233c6ca9b90be41610d9dab51edee03c19be0c3e8f72602ac9b60597479c1b0719878929aa9339efbe4aecb87eb2788587c006907d63b25d1e0141cb8b18d6c75f1a404ac4de2310c807c2aa6a65f5202cb81f6098a8d0ebe1544a3126fd04a7e748b6e781b9dcb0b465aebddf4fdc1b7882f5b488100bc49ede71830140d78291855b8b43c524120ea139265063bc3f7607cf845ff0d09c0641c810e86655ea8fc15f115a22b8af6d65df3bb9606a4d068dbf7390f6dd9d7e3e8df0e96f00000000"
}