{
  "txid": "40fbdd1723159afdb9d6b6b00023545e5b11946c826aae507c79a59ee40efdd6",
  "version": 2,
  "locktime": 0,
  "vin": [
    {
      "txid": "677ad01660371109e2a87479785609741526d1109413689ac48c263c206175e6",
      "vout": 1,
      "prevout": {
        "scriptpubkey": "0014349b24a65427ff7b11766f64041d76b82830d974",
        "scriptpubkey_asm": "OP_0 OP_PUSHBYTES_20 349b24a65427ff7b11766f64041d76b82830d974",
        "scriptpubkey_type": "v0_p2wpkh",
        "scriptpubkey_address": "bc1qxjdjffj5yllhkytkdajqg8tkhq5rpkt5knu4xq",
        "value": 11634054
      },
      "scriptsig": "",
      "scriptsig_asm": "",
      "witness": [
        "304502210082d3a525298188328abb53bf148a9e4620d5446fe656faaa8dd692ab414216a702206ff0af31be3b00d9a7374137b1231d7d4705164b7d156643381db6a9ed305fc401",
        "035f13b992d14a8bbc9e22b151fa5696ab364ef36d52163b993b20fe76a781f810"
      ],
      "is_coinbase": false,
      "sequence": 0
    }
  ],
  "vout": [
    {
      "scriptpubkey": "a914b41c328c88713e9adc32bc48a8e12df675c46a3487",
      "scriptpubkey_asm": "OP_HASH160 OP_PUSHBYTES_20 b41c328c88713e9adc32bc48a8e12df675c46a34 OP_EQUAL",
      "scriptpubkey_type": "p2sh",
      "scriptpubkey_address": "3J7MLGS2z4NcnW53NoTQ9s1hR35YJvZtpN",
      "value": 10000000
    },
    {
      "scriptpubkey": "0014a64eb176f391e7e41cb22b0563426d8a46de8f26",
      "scriptpubkey_asm": "OP_0 OP_PUSHBYTES_20 a64eb176f391e7e41cb22b0563426d8a46de8f26",
      "scriptpubkey_type": "v0_p2wpkh",
      "scriptpubkey_address": "bc1q5e8tzahnj8n7g89j9vzkxsnd3frdarexrl0ww8",
      "value": 1631790
    }
  ],
  "size": 224,
  "weight": 566,
  "fee": 2264,
  "status": {
    "confirmed": true,
    "block_height": 834638,
    "block_hash": "000000000000000000025f742c626208ac87e0b7d15054abb4a19ca2d735a54e",
    "block_time": 1710405325
  },
  "hex": "02000000000101e67561203c268cc49a68139410d12615740956787974a8e20911376016d07a6701000000000000000002809698000000000017a914b41c328c88713e9adc32bc48a8e12df675c46a34872ee6180000000000160014a64eb176f391e7e41cb22b0563426d8a46de8f260248304502210082d3a525298188328abb53bf148a9e4620d5446fe656faaa8dd692ab414216a702206ff0af31be3b00d9a7374137b1231d7d4705164b7d156643381db6a9ed305fc40121035f13b992d14a8bbc9e22b151fa5696ab364ef36d52163b993b20fe76a781f81000000000"
}