{
  "txid": "41006ac910217a962f6416a3f7264e5e8deee0f0e112c706c6d290eaac43b58b",
  "version": 2,
  "locktime": 834637,
  "vin": [
    {
      "txid": "60f957c03635129e3aa85ef96122f9863d29bb28d47e09186d656a7fa965cea9",
      "vout": 7,
      "prevout": {
        "scriptpubkey": "0014f22e31e3e37c7367f0b05deda39c233005918872",
        "scriptpubkey_asm": "OP_0 OP_PUSHBYTES_20 f22e31e3e37c7367f0b05deda39c233005918872",
        "scriptpubkey_type": "v0_p2wpkh",
        "scriptpubkey_address": "bc1q7ghrrclr03ek0u9sthk688prxqzerzrjdx62r8",
        "value": 16461745
      },
      "scriptsig": "",
      "scriptsig_asm": "",
      "witness": [
        "30440220425d4bfffc635e992fc77088b0d17ae8a9a408e1085501b858eb569d92e395b70220726d9462bc35f52b5b5036eefcb4701c36fabd138d756280ff243ce344be582301",
        "03ae5e08cee85725f91ed08fb8220bbd544b459b829f802e3c1da172f01be149f8"
      ],
      "is_coinbase": false,
      "sequence": 4294967293
    }
  ],
  "vout": [
    {
      "scriptpubkey": "00141d0c2011a2986ddd0ea06366a747afd679e805db",
      "scriptpubkey_asm": "OP_0 OP_PUSHBYTES_20 1d0c2011a2986ddd0ea06366a747afd679e805db",
      "scriptpubkey_type": "v0_p2wpkh",
      "scriptpubkey_address": "bc1qr5xzqydznpka6r4qvdn2w3a06eu7spwmrh0x8z",
      "value": 15846
    },
    {
      "scriptpubkey": "0014062ff5407b50125fc2caffda4e2362f4f06d8966",
      "scriptpubkey_asm": "OP_0 OP_PUSHBYTES_20 062ff5407b50125fc2caffda4e2362f4f06d8966",
      "scriptpubkey_type": "v0_p2wpkh",
      "scriptpubkey_address": "bc1qqchl2srm2qf9lsk2lldyugmz7ncxmztxm3ujlr",
      "value": 26669
    },
    {
      "scriptpubkey": "001440539aeaca5e92158ea269b13290fff876e606f7",
      "scriptpubkey_asm": "OP_0 OP_PUSHBYTES_20 40539aeaca5e92158ea269b13290fff876e606f7",
      "scriptpubkey_type": "v0_p2wpkh",
      "scriptpubkey_address": "bc1qgpfe46k2t6fptr4zdxcn9y8llpmwvphhesvce2",
      "value": 40767
    },
    {
      "scriptpubkey": "0014b4b3947967e9f558e2cf7e0627efa3bf031516ec",
      "scriptpubkey_asm": "OP_0 OP_PUSHBYTES_20 b4b3947967e9f558e2cf7e0627efa3bf031516ec",
      "scriptpubkey_type": "v0_p2wpkh",
      "scriptpubkey_address": "bc1qkjeeg7t8a8643ck00crz0marhup329hv0wrarr",
      "value": 42029
    },
    {
      "scriptpubkey": "00140ad31461c96ed6e16a1730d061a1252220eed30d",
      "scriptpubkey_asm": "OP_0 OP_PUSHBYTES_20 0ad31461c96ed6e16a1730d061a1252220eed30d",
      "scriptpubkey_type": "v0_p2wpkh",
      "scriptpubkey_address": "bc1qptf3gcwfdmtwz6shxrgxrgf9ygswa5cdx0v40g",
      "value": 51449
    },
    {
      "scriptpubkey": "00143c5a61ed12c4265ab0cf606f84441545ead41432",
      "scriptpubkey_asm": "OP_0 OP_PUSHBYTES_20 3c5a61ed12c4265ab0cf606f84441545ead41432",
      "scriptpubkey_type": "v0_p2wpkh",
      "scriptpubkey_address": "bc1q83dxrmgjcsn94vx0vphcg3q4gh4dg9pj565355",
      "value": 80048
    },
    {
      "scriptpubkey": "001447a2a5602a3c0d801a596ae60e1871b505a933b0",
      "scriptpubkey_asm": "OP_0 OP_PUSHBYTES_20 47a2a5602a3c0d801a596ae60e1871b505a933b0",
      "scriptpubkey_type": "v0_p2wpkh",
      "scriptpubkey_address": "bc1qg7322cp28sxcqxjedtnquxr3k5z6jvasdpr7a2",
      "value": 91179
    },
    {
      "scriptpubkey": "001475bacc4e998014d00ef36a7d3ece4011424c4af5",
      "scriptpubkey_asm": "OP_0 OP_PUSHBYTES_20 75bacc4e998014d00ef36a7d3ece4011424c4af5",
      "scriptpubkey_type": "v0_p2wpkh",
      "scriptpubkey_address": "bc1qwkavcn5esq2dqrhndf7nanjqz9pycjh4dkxxtg",
      "value": 16107872
    }
  ],
  "size": 408,
  "weight": 1305,
  "fee": 5886,
  "status": {
    "confirmed": true,
    "block_height": 834638,
    "block_hash": "000000000000000000025f742c626208ac87e0b7d15054abb4a19ca2d735a54e",
    "block_time": 1710405325
  },
  "hex": "02000000000101a9ce65a97f6a656d18097ed428bb293d86f92261f95ea83a9e123536c057f9600700000000fdffffff08e63d0000000000001600141d0c2011a2986ddd0ea06366a747afd679e805db2d68000000000000160014062ff5407b50125fc2caffda4e2362f4f06d89663f9f00000000000016001440539aeaca5e92158ea269b13290fff876e606f72da4000000000000160014b4b3947967e9f558e2cf7e0627efa3bf031516ecf9c80000000000001600140ad31461c96ed6e16a1730d061a1252220eed30db0380100000000001600143c5a61ed12c4265ab0cf606f84441545ead414322b6401000000000016001447a2a5602a3c0d801a596ae60e1871b505a933b060c9f5000000000016001475bacc4e998014d00ef36a7d3ece4011424c4af5024730440220425d4bfffc635e992fc77088b0d17ae8a9a408e1085501b858eb569d92e395b70220726d9462bc35f52b5b5036eefcb4701c36fabd138d756280ff243ce344be5823012103ae5e08cee85725f91ed08fb8220bbd544b459b829f802e3c1da172f01be149f84dbc0c00"
}