{
  "txid": "41137f7c7f91592ee93d10da9ed9b848ed65e4f5ac948fc2d806f915bde5cc4f",
  "version": 2,
  "locktime": 0,
  "vin": [
    {
      "txid": "a450258a5a53b68fdb7bd6ad4e42ff49bf1f8a1d5cd213af1a4b78a5a01a85d4",
      "vout": 1,
      "prevout": {
        "scriptpubkey": "0014c04199e1b0d49d8f1280c9f128d947291ffb34ce",
        "scriptpubkey_asm": "OP_0 OP_PUSHBYTES_20 c04199e1b0d49d8f1280c9f128d947291ffb34ce",
        "scriptpubkey_type": "v0_p2wpkh",
        "scriptpubkey_address": "bc1qcpqencds6jwc7y5qe8cj3k289y0lkdxw9t4jat",
        "value": 519975
      },
      "scriptsig": "",
      "scriptsig_asm": "",
      "witness": [
        "3045022100ccb5401e7e9d5ff86872c2201bc77329bc48b09ad76d303914208535694ea2d40220196b71d6a6c0099b58ddd036d3359fc7967a7319d3d1d7de5d8905d38f2b1ecf01",
        "030059b917c0771fe9983fbe5d784bc9785803a1e6ef508f95b87d2df251b04eb1"
      ],
      "is_coinbase": false,
      "sequence": 4294967295
    }
  ],
  "vout": [
    {
      "scriptpubkey": "76a914f103351dc4bf62973de8a164a458dd6ed7f8740488ac",
      "scriptpubkey_asm": "OP_DUP OP_HASH160 OP_PUSHBYTES_20 f103351dc4bf62973de8a164a458dd6ed7f87404 OP_EQUALVERIFY OP_CHECKSIG",
      "scriptpubkey_type": "p2pkh",
      "scriptpubkey_address": "1NyMh6HZSgKbqFCXPEvvQ7TVUzEsadXkpU",
      "value": 318257
    },
    {
      "scriptpubkey": "0014216af4795dc800b4cdcd8374105e67b19de6666e",
      "scriptpubkey_asm": "OP_0 OP_PUSHBYTES_20 216af4795dc800b4cdcd8374105e67b19de6666e",
      "scriptpubkey_type": "v0_p2wpkh",
      "scriptpubkey_address": "bc1qy940g72aeqqtfnwdsd6pqhn8kxw7venwx6kck3",
      "value": 200153
    }
  ],
  "size": 226,
  "weight": 574,
  "fee": 1565,
  "status": {
    "confirmed": true,
    "block_height": 834464,
    "block_hash": "0000000000000000000177a0869a911a2b65c9bdcd5a8bcb02b68f305bee848e",
    "block_time": 1710308296
  },
  "hex": "02000000000101d4851aa0a5784b1aaf13d25c1d8a1fbf49ff424eadd67bdb8fb6535a8a2550a40100000000ffffffff0231db0400000000001976a914f103351dc4bf62973de8a164a458dd6ed7f8740488acd90d030000000000160014216af4795dc800b4cdcd8374105e67b19de6666e02483045022100ccb5401e7e9d5ff86872c2201bc77329bc48b09ad76d303914208535694ea2d40220196b71d6a6c0099b58ddd036d3359fc7967a7319d3d1d7de5d8905d38f2b1ecf0121030059b917c0771fe9983fbe5d784bc9785803a1e6ef508f95b87d2df251b04eb100000000"
}