{
  "txid": "4130ac060a127f86e8ba1cd7a953222df6537561f015c2b208ac78b42c301ed8",
  "version": 1,
  "locktime": 0,
  "vin": [
    {
      "txid": "0e1e0ceda35dd02430c0d0f29e1d1000c6ae58f605787a606d58fb7e9021c34b",
      "vout": 0,
      "prevout": {
        "scriptpubkey": "00148edb4d526adf6ead10e641a3e64f794249a9b93f",
        "scriptpubkey_asm": "OP_0 OP_PUSHBYTES_20 8edb4d526adf6ead10e641a3e64f794249a9b93f",
        "scriptpubkey_type": "v0_p2wpkh",
        "scriptpubkey_address": "bc1q3md565n2mah26y8xgx37vnmegfy6nwfl4h3nmx",
        "value": 78767
      },
      "scriptsig": "",
      "scriptsig_asm": "",
      "witness": [
        "3045022100b766f17a28ad7c55ce2e83e7bae4a98e4753f5a4d1bf82dea9ddc918db8de0ee02200e062267426c91384676272e65cff3daedff345aaf69c50465ee42b2ad5cee2701",
        "02d56eb7c5f0c3bcf981ad129ca86b8e91093327d2d03e3a8b388c8cfc736380df"
      ],
      "is_coinbase": false,
      "sequence": 4294967293
    },
    {
      "txid": "ed5ea3b1fdd37ea0ba4dcfc982053bbfba6a1961081d08598677d5bb4725bd19",
      "vout": 65,
      "prevout": {
        "scriptpubkey": "00142cac68ac359196190b88c5df7cd25eebd6771be7",
        "scriptpubkey_asm": "OP_0 OP_PUSHBYTES_20 2cac68ac359196190b88c5df7cd25eebd6771be7",
        "scriptpubkey_type": "v0_p2wpkh",
        "scriptpubkey_address": "bc1q9jkx3tp4jxtpjzugch0he5j7a0t8wxl8te8dfq",
        "value": 71080
      },
      "scriptsig": "",
      "scriptsig_asm": "",
      "witness": [
        "30440220392dbe53a5c7ef5b9ced0075feacc144d1294ca298d0b556e7b7e0f4e51b5a8f0220448c12bbf9225c5b8967ae457e546897e634c9a1380ac4a9733da881740e84c401",
        "0237b916f3167426f66d23ea6c459709bbc9ae5f340ab160f009b1080932ad93e7"
      ],
      "is_coinbase": false,
      "sequence": 4294967293
    },
    {
      "txid": "854855f4a0955241348ae37e3ae34a1fa3538b6d4fd2b446be261dd9266a07bb",
      "vout": 0,
      "prevout": {
        "scriptpubkey": "00142aabfd4ba4faeb2c99424403f64b67b7bf937ca6",
        "scriptpubkey_asm": "OP_0 OP_PUSHBYTES_20 2aabfd4ba4faeb2c99424403f64b67b7bf937ca6",
        "scriptpubkey_type": "v0_p2wpkh",
        "scriptpubkey_address": "bc1q924l6jaylt4jex2zgsplvjm8k7lexl9xvs2ndm",
        "value": 69922
      },
      "scriptsig": "",
      "scriptsig_asm": "",
      "witness": [
        "30450221009e056e6c7408a321efed4aef559c314682d22985399e5822e5f258556fcc28ec02206e699c1a4e4be11ef7aaa00b3a17b8dd394eef481f10cb464fb4823ce1b6096d01",
        "039da619f50646e73f527eb9fb52661946e71ed078d57eec632a2dd18ac05d9360"
      ],
      "is_coinbase": false,
      "sequence": 4294967293
    },
    {
      "txid": "a622b1eb1da7a476d65913c1824279ef317f000c3ae163b4492147ae48f9c9ee",
      "vout": 27,
      "prevout": {
        "scriptpubkey": "0014d8abadc18cf7971accec7e8d9127dc22583cca75",
        "scriptpubkey_asm": "OP_0 OP_PUSHBYTES_20 d8abadc18cf7971accec7e8d9127dc22583cca75",
        "scriptpubkey_type": "v0_p2wpkh",
        "scriptpubkey_address": "bc1qmz46msvv77t34n8v06xezf7uyfvrejn4wudmnd",
        "value": 61924
      },
      "scriptsig": "",
      "scriptsig_asm": "",
      "witness": [
        "3044022069d245896818a86f1b2bcb624bee0714b9d21ecdd3e5659d4489a2fac4784eed022024abf0133f4ff1b0cc85862930ab9f445010c8aaa8130fb38d239d53a04e27a801",
        "036df87bdfc75ad88efcef22ae1844194ec2d833378fe70e5a3e945c41249acd7e"
      ],
      "is_coinbase": false,
      "sequence": 4294967293
    }
  ],
  "vout": [
    {
      "scriptpubkey": "00149f76813f06e49b9304a8b830246266b51fbb7e90",
      "scriptpubkey_asm": "OP_0 OP_PUSHBYTES_20 9f76813f06e49b9304a8b830246266b51fbb7e90",
      "scriptpubkey_type": "v0_p2wpkh",
      "scriptpubkey_address": "bc1qnamgz0cxujdexp9ghqczgcnxk50mkl5sc6qr5y",
      "value": 272212
    }
  ],
  "size": 637,
  "weight": 1252,
  "fee": 9481,
  "status": {
    "confirmed": true,
    "block_height": 834638,
    "block_hash": "000000000000000000025f742c626208ac87e0b7d15054abb4a19ca2d735a54e",
    "block_time": 1710405325
  },
  "hex": "010000000001044bc321907efb586d607a7805f658aec600101d9ef2d0c03024d05da3ed0c1e0e0000000000fdffffff19bd2547bbd5778659081d0861196ababf3b0582c9cf4dbaa07ed3fdb1a35eed4100000000fdffffffbb076a26d91d26be46b4d24f6d8b53a31f4ae33a7ee38a34415295a0f45548850000000000fdffffffeec9f948ae472149b463e13a0c007f31ef794282c11359d676a4a71debb122a61b00000000fdffffff0154270400000000001600149f76813f06e49b9304a8b830246266b51fbb7e9002483045022100b766f17a28ad7c55ce2e83e7bae4a98e4753f5a4d1bf82dea9ddc918db8de0ee02200e062267426c91384676272e65cff3daedff345aaf69c50465ee42b2ad5cee27012102d56eb7c5f0c3bcf981ad129ca86b8e91093327d2d03e3a8b388c8cfc736380df024730440220392dbe53a5c7ef5b9ced0075feacc144d1294ca298d0b556e7b7e0f4e51b5a8f0220448c12bbf9225c5b8967ae457e546897e634c9a1380ac4a9733da881740e84c401210237b916f3167426f66d23ea6c459709bbc9ae5f340ab160f009b1080932ad93e7024830450221009e056e6c7408a321efed4aef559c314682d22985399e5822e5f258556fcc28ec02206e699c1a4e4be11ef7aaa00b3a17b8dd394eef481f10cb464fb4823ce1b6096d0121039da619f50646e73f527eb9fb52661946e71ed078d57eec632a2dd18ac05d936002473044022069d245896818a86f1b2bcb624bee0714b9d21ecdd3e5659d4489a2fac4784eed022024abf0133f4ff1b0cc85862930ab9f445010c8aaa8130fb38d239d53a04e27a80121036df87bdfc75ad88efcef22ae1844194ec2d833378fe70e5a3e945c41249acd7e00000000"
}