{
  "txid": "4138d633105a5c05a683e44762de2b4c7228aa08fb44ea199b31a002816d7afa",
  "version": 2,
  "locktime": 0,
  "vin": [
    {
      "txid": "70ec7d749d217f3ba2aa4d43480926d2a0a86ec08526b042b08b8a6b74cff231",
      "vout": 0,
      "prevout": {
        "scriptpubkey": "5120ce1039e86ac13577cd4326765ba3200b544396098351b2e80f43249242f1df4b",
        "scriptpubkey_asm": "OP_PUSHNUM_1 OP_PUSHBYTES_32 ce1039e86ac13577cd4326765ba3200b544396098351b2e80f43249242f1df4b",
        "scriptpubkey_type": "v1_p2tr",
        "scriptpubkey_address": "bc1pecgrn6r2cy6h0n2ryem9hgeqpd2y89sfsdgm96q0gvjfysh3ma9s5qk0xg",
        "value": 546
      },
      "scriptsig": "",
      "scriptsig_asm": "",
      "witness": [
        "d68847163c61651ae9b2a436aa5ea7ccf40acdeeb18a1de974d044a2a31832f866eaea9b2344ed76fd91853e2e8e9e942fddbacca5adb5aa60ba7b06f3cb26f4"
      ],
      "is_coinbase": false,
      "sequence": 4294967295
    },
    {
      "txid": "9d82a47201944ba330a23ca21d957d6bfab1bdb9b2b7e3d1e239c3811cd0c5c6",
      "vout": 1,
      "prevout": {
        "scriptpubkey": "5120ce1039e86ac13577cd4326765ba3200b544396098351b2e80f43249242f1df4b",
        "scriptpubkey_asm": "OP_PUSHNUM_1 OP_PUSHBYTES_32 ce1039e86ac13577cd4326765ba3200b544396098351b2e80f43249242f1df4b",
        "scriptpubkey_type": "v1_p2tr",
        "scriptpubkey_address": "bc1pecgrn6r2cy6h0n2ryem9hgeqpd2y89sfsdgm96q0gvjfysh3ma9s5qk0xg",
        "value": 70757
      },
      "scriptsig": "",
      "scriptsig_asm": "",
      "witness": [
        "1501107094846b7a520f154a2c42757b00c0fd66bc58435e58b182b2aeaec26bdaa2449b3eaf74c47bc59dfeca27d3d717e50052cde29d935298d61fe362a797"
      ],
      "is_coinbase": false,
      "sequence": 4294967295
    }
  ],
  "vout": [
    {
      "scriptpubkey": "5120742db51d8fbbf9778b73dc736272e666edb50735a5262868d82fb07cf4f54c6e",
      "scriptpubkey_asm": "OP_PUSHNUM_1 OP_PUSHBYTES_32 742db51d8fbbf9778b73dc736272e666edb50735a5262868d82fb07cf4f54c6e",
      "scriptpubkey_type": "v1_p2tr",
      "scriptpubkey_address": "bc1pwskm28v0h0uh0zmnm3ekyuhxvmkm2pe455nzs6xc97c8ea84f3hqdxjar2",
      "value": 546
    },
    {
      "scriptpubkey": "5120ce1039e86ac13577cd4326765ba3200b544396098351b2e80f43249242f1df4b",
      "scriptpubkey_asm": "OP_PUSHNUM_1 OP_PUSHBYTES_32 ce1039e86ac13577cd4326765ba3200b544396098351b2e80f43249242f1df4b",
      "scriptpubkey_type": "v1_p2tr",
      "scriptpubkey_address": "bc1pecgrn6r2cy6h0n2ryem9hgeqpd2y89sfsdgm96q0gvjfysh3ma9s5qk0xg",
      "value": 67577
    }
  ],
  "size": 312,
  "weight": 846,
  "fee": 3180,
  "status": {
    "confirmed": true,
    "block_height": 834460,
    "block_hash": "00000000000000000000484a79b643b2524bbce82e5d8a442013fa5b8905ed98",
    "block_time": 1710307468
  },
  "hex": "0200000000010231f2cf746b8a8bb042b02685c06ea8a0d2260948434daaa23b7f219d747dec700000000000ffffffffc6c5d01c81c339e2d1e3b7b2b9bdb1fa6b7d951da23ca230a34b940172a4829d0100000000ffffffff022202000000000000225120742db51d8fbbf9778b73dc736272e666edb50735a5262868d82fb07cf4f54c6ef907010000000000225120ce1039e86ac13577cd4326765ba3200b544396098351b2e80f43249242f1df4b0140d68847163c61651ae9b2a436aa5ea7ccf40acdeeb18a1de974d044a2a31832f866eaea9b2344ed76fd91853e2e8e9e942fddbacca5adb5aa60ba7b06f3cb26f401401501107094846b7a520f154a2c42757b00c0fd66bc58435e58b182b2aeaec26bdaa2449b3eaf74c47bc59dfeca27d3d717e50052cde29d935298d61fe362a79700000000"
}