{
  "txid": "413a8b3bdfec8617c51b7d885a50fd2e1b3ae4d8f912452bb92b6581a380e9e1",
  "version": 2,
  "locktime": 0,
  "vin": [
    {
      "txid": "9d47f4a16ea3c5fe842143378b1ab45ef1b93594a85a400366a6d787da21e419",
      "vout": 4,
      "prevout": {
        "scriptpubkey": "512094fe2c8b675dfe3c797129195ce5da9df9dfc546c77cd979d019fcc529febbb7",
        "scriptpubkey_asm": "OP_PUSHNUM_1 OP_PUSHBYTES_32 94fe2c8b675dfe3c797129195ce5da9df9dfc546c77cd979d019fcc529febbb7",
        "scriptpubkey_type": "v1_p2tr",
        "scriptpubkey_address": "bc1pjnlzezm8thlrc7t39yv4eew6nhual32xca7dj7wsr87v2207hwmsmlgr8x",
        "value": 600
      },
      "scriptsig": "",
      "scriptsig_asm": "",
      "witness": [
        "db8ac5b857bd218a591fb8cbb9ae574ba01b769057bf81d3860d4a2d6635336aacf50e17cdf034f5d9dd05957b7d7c427adfff750b38f007e38ef196493829de"
      ],
      "is_coinbase": false,
      "sequence": 4294967295
    },
    {
      "txid": "9d47f4a16ea3c5fe842143378b1ab45ef1b93594a85a400366a6d787da21e419",
      "vout": 3,
      "prevout": {
        "scriptpubkey": "512094fe2c8b675dfe3c797129195ce5da9df9dfc546c77cd979d019fcc529febbb7",
        "scriptpubkey_asm": "OP_PUSHNUM_1 OP_PUSHBYTES_32 94fe2c8b675dfe3c797129195ce5da9df9dfc546c77cd979d019fcc529febbb7",
        "scriptpubkey_type": "v1_p2tr",
        "scriptpubkey_address": "bc1pjnlzezm8thlrc7t39yv4eew6nhual32xca7dj7wsr87v2207hwmsmlgr8x",
        "value": 600
      },
      "scriptsig": "",
      "scriptsig_asm": "",
      "witness": [
        "61d2d4c3ef25a54e7a87a5455aef9bc331953b8c6a560a49cba0f5c79df28f478e61745fd6413d21b40b2432a12e4b9feefa3ca262c811d57fa7247feff7492d"
      ],
      "is_coinbase": false,
      "sequence": 4294967295
    },
    {
      "txid": "6d1215dfb6c93e25ad07c7747a403114dd9fb732a8e6ee3f5ff7f1e14891f567",
      "vout": 0,
      "prevout": {
        "scriptpubkey": "51206254e5c18369a6c56d1ccdd493992a21fdf8680a3e56b0dcc70d88008e19f187",
        "scriptpubkey_asm": "OP_PUSHNUM_1 OP_PUSHBYTES_32 6254e5c18369a6c56d1ccdd493992a21fdf8680a3e56b0dcc70d88008e19f187",
        "scriptpubkey_type": "v1_p2tr",
        "scriptpubkey_address": "bc1pvf2wtsvrdxnv2mgueh2f8xf2y87ls6q28ettphx8pkyqprse7xrsdupfae",
        "value": 330
      },
      "scriptsig": "",
      "scriptsig_asm": "",
      "witness": [
        "05914f64e256c8cee5cbe4b1bcf9ef26cd0a341e793ddab34bb6db35a248d8f33830c8114872f1f4006f13d416800ac317b0a8c9113c1d846e01a21bc82cf54183"
      ],
      "is_coinbase": false,
      "sequence": 4294967295
    },
    {
      "txid": "fec1de9065800d46a3a4736e7ec884715c456387889643835963e47cf4068bb8",
      "vout": 1,
      "prevout": {
        "scriptpubkey": "512094fe2c8b675dfe3c797129195ce5da9df9dfc546c77cd979d019fcc529febbb7",
        "scriptpubkey_asm": "OP_PUSHNUM_1 OP_PUSHBYTES_32 94fe2c8b675dfe3c797129195ce5da9df9dfc546c77cd979d019fcc529febbb7",
        "scriptpubkey_type": "v1_p2tr",
        "scriptpubkey_address": "bc1pjnlzezm8thlrc7t39yv4eew6nhual32xca7dj7wsr87v2207hwmsmlgr8x",
        "value": 1374247
      },
      "scriptsig": "",
      "scriptsig_asm": "",
      "witness": [
        "1c62326e10c208722ee737bcb58af1e547ea8169efdd96f32fb21a5b9cf2eda275747411623b2bab529aa33d8aba2d4c8e429eabbd2a727d11ffc09b0acdd344"
      ],
      "is_coinbase": false,
      "sequence": 4294967295
    }
  ],
  "vout": [
    {
      "scriptpubkey": "512094fe2c8b675dfe3c797129195ce5da9df9dfc546c77cd979d019fcc529febbb7",
      "scriptpubkey_asm": "OP_PUSHNUM_1 OP_PUSHBYTES_32 94fe2c8b675dfe3c797129195ce5da9df9dfc546c77cd979d019fcc529febbb7",
      "scriptpubkey_type": "v1_p2tr",
      "scriptpubkey_address": "bc1pjnlzezm8thlrc7t39yv4eew6nhual32xca7dj7wsr87v2207hwmsmlgr8x",
      "value": 1200
    },
    {
      "scriptpubkey": "512094fe2c8b675dfe3c797129195ce5da9df9dfc546c77cd979d019fcc529febbb7",
      "scriptpubkey_asm": "OP_PUSHNUM_1 OP_PUSHBYTES_32 94fe2c8b675dfe3c797129195ce5da9df9dfc546c77cd979d019fcc529febbb7",
      "scriptpubkey_type": "v1_p2tr",
      "scriptpubkey_address": "bc1pjnlzezm8thlrc7t39yv4eew6nhual32xca7dj7wsr87v2207hwmsmlgr8x",
      "value": 546
    },
    {
      "scriptpubkey": "51206254e5c18369a6c56d1ccdd493992a21fdf8680a3e56b0dcc70d88008e19f187",
      "scriptpubkey_asm": "OP_PUSHNUM_1 OP_PUSHBYTES_32 6254e5c18369a6c56d1ccdd493992a21fdf8680a3e56b0dcc70d88008e19f187",
      "scriptpubkey_type": "v1_p2tr",
      "scriptpubkey_address": "bc1pvf2wtsvrdxnv2mgueh2f8xf2y87ls6q28ettphx8pkyqprse7xrsdupfae",
      "value": 1176000
    },
    {
      "scriptpubkey": "512094fe2c8b675dfe3c797129195ce5da9df9dfc546c77cd979d019fcc529febbb7",
      "scriptpubkey_asm": "OP_PUSHNUM_1 OP_PUSHBYTES_32 94fe2c8b675dfe3c797129195ce5da9df9dfc546c77cd979d019fcc529febbb7",
      "scriptpubkey_type": "v1_p2tr",
      "scriptpubkey_address": "bc1pjnlzezm8thlrc7t39yv4eew6nhual32xca7dj7wsr87v2207hwmsmlgr8x",
      "value": 600
    },
    {
      "scriptpubkey": "512094fe2c8b675dfe3c797129195ce5da9df9dfc546c77cd979d019fcc529febbb7",
      "scriptpubkey_asm": "OP_PUSHNUM_1 OP_PUSHBYTES_32 94fe2c8b675dfe3c797129195ce5da9df9dfc546c77cd979d019fcc529febbb7",
      "scriptpubkey_type": "v1_p2tr",
      "scriptpubkey_address": "bc1pjnlzezm8thlrc7t39yv4eew6nhual32xca7dj7wsr87v2207hwmsmlgr8x",
      "value": 600
    },
    {
      "scriptpubkey": "512094fe2c8b675dfe3c797129195ce5da9df9dfc546c77cd979d019fcc529febbb7",
      "scriptpubkey_asm": "OP_PUSHNUM_1 OP_PUSHBYTES_32 94fe2c8b675dfe3c797129195ce5da9df9dfc546c77cd979d019fcc529febbb7",
      "scriptpubkey_type": "v1_p2tr",
      "scriptpubkey_address": "bc1pjnlzezm8thlrc7t39yv4eew6nhual32xca7dj7wsr87v2207hwmsmlgr8x",
      "value": 189562
    }
  ],
  "size": 699,
  "weight": 1995,
  "fee": 7269,
  "status": {
    "confirmed": true,
    "block_height": 834460,
    "block_hash": "00000000000000000000484a79b643b2524bbce82e5d8a442013fa5b8905ed98",
    "block_time": 1710307468
  },
  "hex": "0200000000010419e421da87d7a66603405aa89435b9f15eb41a8b37432184fec5a36ea1f4479d0400000000ffffffff19e421da87d7a66603405aa89435b9f15eb41a8b37432184fec5a36ea1f4479d0300000000ffffffff67f59148e1f1f75f3feee6a832b79fdd1431407a74c707ad253ec9b6df15126d0000000000ffffffffb88b06f47ce46359834396888763455c7184c87e6e73a4a3460d806590dec1fe0100000000ffffffff06b00400000000000022512094fe2c8b675dfe3c797129195ce5da9df9dfc546c77cd979d019fcc529febbb7220200000000000022512094fe2c8b675dfe3c797129195ce5da9df9dfc546c77cd979d019fcc529febbb7c0f11100000000002251206254e5c18369a6c56d1ccdd493992a21fdf8680a3e56b0dcc70d88008e19f187580200000000000022512094fe2c8b675dfe3c797129195ce5da9df9dfc546c77cd979d019fcc529febbb7580200000000000022512094fe2c8b675dfe3c797129195ce5da9df9dfc546c77cd979d019fcc529febbb77ae402000000000022512094fe2c8b675dfe3c797129195ce5da9df9dfc546c77cd979d019fcc529febbb70140db8ac5b857bd218a591fb8cbb9ae574ba01b769057bf81d3860d4a2d6635336aacf50e17cdf034f5d9dd05957b7d7c427adfff750b38f007e38ef196493829de014061d2d4c3ef25a54e7a87a5455aef9bc331953b8c6a560a49cba0f5c79df28f478e61745fd6413d21b40b2432a12e4b9feefa3ca262c811d57fa7247feff7492d014105914f64e256c8cee5cbe4b1bcf9ef26cd0a341e793ddab34bb6db35a248d8f33830c8114872f1f4006f13d416800ac317b0a8c9113c1d846e01a21bc82cf5418301401c62326e10c208722ee737bcb58af1e547ea8169efdd96f32fb21a5b9cf2eda275747411623b2bab529aa33d8aba2d4c8e429eabbd2a727d11ffc09b0acdd34400000000"
}