{
  "txid": "413b1f0f3dd7a4e73e7cc8031780de1bb3456a270e7be673d1ff54142d6eda81",
  "version": 1,
  "locktime": 0,
  "vin": [
    {
      "txid": "45671dd45658e88aebe3c31d06fd9a1b63ed3874079a04de1be5a2c43ea57844",
      "vout": 1,
      "prevout": {
        "scriptpubkey": "0014bc633f7eee4ef1b784880829736ac69e741ffa50",
        "scriptpubkey_asm": "OP_0 OP_PUSHBYTES_20 bc633f7eee4ef1b784880829736ac69e741ffa50",
        "scriptpubkey_type": "v0_p2wpkh",
        "scriptpubkey_address": "bc1qh33n7lhwfmcm0pygpq5hx6kxne6pl7js6rtr72",
        "value": 174347
      },
      "scriptsig": "",
      "scriptsig_asm": "",
      "witness": [
        "3045022100bcfe36331c05f8f872f2398da4d30d0f34b55c9463b2d1348c76ac8b37310ac702203cf863110fea11b3cc9261a940308e004efda038e43ae3a0951b93b6b1b34bc501",
        "03a34616d0cb7bf961e9aea6cc2343e64fe9f82282e736ed3aa84f62b0c3a1b65a"
      ],
      "is_coinbase": false,
      "sequence": 4294967295
    }
  ],
  "vout": [
    {
      "scriptpubkey": "001463fb79ea513e83f2dbd10e369466c4ca56725373",
      "scriptpubkey_asm": "OP_0 OP_PUSHBYTES_20 63fb79ea513e83f2dbd10e369466c4ca56725373",
      "scriptpubkey_type": "v0_p2wpkh",
      "scriptpubkey_address": "bc1qv0ahn6j386pl9k73pcmfgekyeft8y5mnap5nvc",
      "value": 34037
    },
    {
      "scriptpubkey": "0014bc633f7eee4ef1b784880829736ac69e741ffa50",
      "scriptpubkey_asm": "OP_0 OP_PUSHBYTES_20 bc633f7eee4ef1b784880829736ac69e741ffa50",
      "scriptpubkey_type": "v0_p2wpkh",
      "scriptpubkey_address": "bc1qh33n7lhwfmcm0pygpq5hx6kxne6pl7js6rtr72",
      "value": 136503
    }
  ],
  "size": 223,
  "weight": 562,
  "fee": 3807,
  "status": {
    "confirmed": true,
    "block_height": 834638,
    "block_hash": "000000000000000000025f742c626208ac87e0b7d15054abb4a19ca2d735a54e",
    "block_time": 1710405325
  },
  "hex": "010000000001014478a53ec4a2e51bde049a077438ed631b9afd061dc3e3eb8ae85856d41d67450100000000ffffffff02f58400000000000016001463fb79ea513e83f2dbd10e369466c4ca567253733715020000000000160014bc633f7eee4ef1b784880829736ac69e741ffa5002483045022100bcfe36331c05f8f872f2398da4d30d0f34b55c9463b2d1348c76ac8b37310ac702203cf863110fea11b3cc9261a940308e004efda038e43ae3a0951b93b6b1b34bc5012103a34616d0cb7bf961e9aea6cc2343e64fe9f82282e736ed3aa84f62b0c3a1b65a00000000"
}