{
  "txid": "414ecc95ed3912528755c64943b7e6961b6024f22ab322d25eec64687bff8c4f",
  "version": 1,
  "locktime": 0,
  "vin": [
    {
      "txid": "886f8eb97a158adb66439852b83cecfb96da404424db4b21ec8c424dafefced0",
      "vout": 0,
      "prevout": {
        "scriptpubkey": "001453e94150d88fd3a918b872843665810b90c570e9",
        "scriptpubkey_asm": "OP_0 OP_PUSHBYTES_20 53e94150d88fd3a918b872843665810b90c570e9",
        "scriptpubkey_type": "v0_p2wpkh",
        "scriptpubkey_address": "bc1q2055z5xc3lf6jx9cw2zrvevppwgv2u8f4eete0",
        "value": 3092983
      },
      "scriptsig": "",
      "scriptsig_asm": "",
      "witness": [
        "304402206bdd96a2e5dead24d815c0c1ac3ab45de7b76d480b389df55a884c9d65b012aa022032b9dbfc47e0e0555cc2720a99f649da49987be0b72e8b38534a7dcbdd64784a01",
        "03a9e9ac8ae25d8e5a799627d28fee86611a6cc1a245e0dfcd7ec8884ff8cdc591"
      ],
      "is_coinbase": false,
      "sequence": 4294967295
    }
  ],
  "vout": [
    {
      "scriptpubkey": "00147d991bc0d47578b7d7b6bd6a525a38906bbb04d1",
      "scriptpubkey_asm": "OP_0 OP_PUSHBYTES_20 7d991bc0d47578b7d7b6bd6a525a38906bbb04d1",
      "scriptpubkey_type": "v0_p2wpkh",
      "scriptpubkey_address": "bc1q0kv3hsx5w4ut04akh449yk3cjp4mkpx3n22cx9",
      "value": 150032
    },
    {
      "scriptpubkey": "00143090b52ced9f687cac31a95528fc6b6fa5c5ab3b",
      "scriptpubkey_asm": "OP_0 OP_PUSHBYTES_20 3090b52ced9f687cac31a95528fc6b6fa5c5ab3b",
      "scriptpubkey_type": "v0_p2wpkh",
      "scriptpubkey_address": "bc1qxzgt2t8dna58etp3492j3lrtd7jut2emkm86cc",
      "value": 2940882
    }
  ],
  "size": 222,
  "weight": 561,
  "fee": 2069,
  "status": {
    "confirmed": true,
    "block_height": 834638,
    "block_hash": "000000000000000000025f742c626208ac87e0b7d15054abb4a19ca2d735a54e",
    "block_time": 1710405325
  },
  "hex": "01000000000101d0ceefaf4d428cec214bdb244440da96fbec3cb852984366db8a157ab98e6f880000000000ffffffff02104a0200000000001600147d991bc0d47578b7d7b6bd6a525a38906bbb04d1d2df2c00000000001600143090b52ced9f687cac31a95528fc6b6fa5c5ab3b0247304402206bdd96a2e5dead24d815c0c1ac3ab45de7b76d480b389df55a884c9d65b012aa022032b9dbfc47e0e0555cc2720a99f649da49987be0b72e8b38534a7dcbdd64784a012103a9e9ac8ae25d8e5a799627d28fee86611a6cc1a245e0dfcd7ec8884ff8cdc59100000000"
}