{
  "txid": "41671c742a150a339237ee364a18347cc82273d67013b82648ff7c0c029ada9f",
  "version": 2,
  "locktime": 0,
  "vin": [
    {
      "txid": "045e451e76dfb2e9d12a4d567e7c6ec07fe1b7e5a624c47cb29567ec544f08cb",
      "vout": 0,
      "prevout": {
        "scriptpubkey": "76a9146140c765a89be445fabe1e8209feb77261c795f088ac",
        "scriptpubkey_asm": "OP_DUP OP_HASH160 OP_PUSHBYTES_20 6140c765a89be445fabe1e8209feb77261c795f0 OP_EQUALVERIFY OP_CHECKSIG",
        "scriptpubkey_type": "p2pkh",
        "scriptpubkey_address": "19sE9XPzn4LdY7vQfqKK2XriWNdrSvsQPK",
        "value": 422481
      },
      "scriptsig": "473044022075d8b1e15cff8a6ffd067324c2a2245c76515d2fb35d0a3a14a2ee1db8559cc7022018fca8b1810b645d031cba1f40903b7cdf775edd8cc06dc3eac4d574b786b583012102cea7dcb007b540f453bf1e81ef10a6153aa77c44fde7da33575f1bbf57671312",
      "scriptsig_asm": "OP_PUSHBYTES_71 3044022075d8b1e15cff8a6ffd067324c2a2245c76515d2fb35d0a3a14a2ee1db8559cc7022018fca8b1810b645d031cba1f40903b7cdf775edd8cc06dc3eac4d574b786b58301 OP_PUSHBYTES_33 02cea7dcb007b540f453bf1e81ef10a6153aa77c44fde7da33575f1bbf57671312",
      "is_coinbase": false,
      "sequence": 4294967295
    }
  ],
  "vout": [
    {
      "scriptpubkey": "76a9145b674e5f0ee1dc8a29acd59ecca1661448d2e0ea88ac",
      "scriptpubkey_asm": "OP_DUP OP_HASH160 OP_PUSHBYTES_20 5b674e5f0ee1dc8a29acd59ecca1661448d2e0ea OP_EQUALVERIFY OP_CHECKSIG",
      "scriptpubkey_type": "p2pkh",
      "scriptpubkey_address": "19LJFHzDXmsDVDJZwaTrAC52ad83coTAfX",
      "value": 414940
    }
  ],
  "size": 191,
  "weight": 764,
  "fee": 7541,
  "status": {
    "confirmed": true,
    "block_height": 834638,
    "block_hash": "000000000000000000025f742c626208ac87e0b7d15054abb4a19ca2d735a54e",
    "block_time": 1710405325
  },
  "hex": "0200000001cb084f54ec6795b27cc424a6e5b7e17fc06e7c7e564d2ad1e9b2df761e455e04000000006a473044022075d8b1e15cff8a6ffd067324c2a2245c76515d2fb35d0a3a14a2ee1db8559cc7022018fca8b1810b645d031cba1f40903b7cdf775edd8cc06dc3eac4d574b786b583012102cea7dcb007b540f453bf1e81ef10a6153aa77c44fde7da33575f1bbf57671312ffffffff01dc540600000000001976a9145b674e5f0ee1dc8a29acd59ecca1661448d2e0ea88ac00000000"
}