{
  "txid": "41697ee8c0c57ad63c51c1aae8ef5cc81ddaab3708d95fc45b872ad35c26edfa",
  "version": 1,
  "locktime": 0,
  "vin": [
    {
      "txid": "4e4dd6b628d4ff4261d56f8474d191d7cd135e1ce85e8319f7a4e82f247be82c",
      "vout": 1,
      "prevout": {
        "scriptpubkey": "76a914b4b3937546c44db0bd25c2b0ff46120b74a8532788ac",
        "scriptpubkey_asm": "OP_DUP OP_HASH160 OP_PUSHBYTES_20 b4b3937546c44db0bd25c2b0ff46120b74a85327 OP_EQUALVERIFY OP_CHECKSIG",
        "scriptpubkey_type": "p2pkh",
        "scriptpubkey_address": "1HUTkgyhRFcYXhJkkqiVwvKDi6tL5K2Lak",
        "value": 708419
      },
      "scriptsig": "473044022046373c27fce71becff061c4e1e6f8dc23b578c24a7fef3d1d1fc1f7f7a9d203b02207eb2f45f547bed4286319e2e955ff444d671a50533e93acd9e81948b39d9b811012103420c2af09f7727ea8927326451894724b9c74471bf4b9a575edf67872fc5e189",
      "scriptsig_asm": "OP_PUSHBYTES_71 3044022046373c27fce71becff061c4e1e6f8dc23b578c24a7fef3d1d1fc1f7f7a9d203b02207eb2f45f547bed4286319e2e955ff444d671a50533e93acd9e81948b39d9b81101 OP_PUSHBYTES_33 03420c2af09f7727ea8927326451894724b9c74471bf4b9a575edf67872fc5e189",
      "is_coinbase": false,
      "sequence": 4294967295
    }
  ],
  "vout": [
    {
      "scriptpubkey": "a91475fc04a25c1827da7730895c1b9b120cbe65243287",
      "scriptpubkey_asm": "OP_HASH160 OP_PUSHBYTES_20 75fc04a25c1827da7730895c1b9b120cbe652432 OP_EQUAL",
      "scriptpubkey_type": "p2sh",
      "scriptpubkey_address": "3CSrtWgoZuqzxvi3WWfZo2LG7uNrqZ93d3",
      "value": 110000
    },
    {
      "scriptpubkey": "76a914b4b3937546c44db0bd25c2b0ff46120b74a8532788ac",
      "scriptpubkey_asm": "OP_DUP OP_HASH160 OP_PUSHBYTES_20 b4b3937546c44db0bd25c2b0ff46120b74a85327 OP_EQUALVERIFY OP_CHECKSIG",
      "scriptpubkey_type": "p2pkh",
      "scriptpubkey_address": "1HUTkgyhRFcYXhJkkqiVwvKDi6tL5K2Lak",
      "value": 593899
    }
  ],
  "size": 223,
  "weight": 892,
  "fee": 4520,
  "status": {
    "confirmed": true,
    "block_height": 834638,
    "block_hash": "000000000000000000025f742c626208ac87e0b7d15054abb4a19ca2d735a54e",
    "block_time": 1710405325
  },
  "hex": "01000000012ce87b242fe8a4f719835ee81c5e13cdd791d174846fd56142ffd428b6d64d4e010000006a473044022046373c27fce71becff061c4e1e6f8dc23b578c24a7fef3d1d1fc1f7f7a9d203b02207eb2f45f547bed4286319e2e955ff444d671a50533e93acd9e81948b39d9b811012103420c2af09f7727ea8927326451894724b9c74471bf4b9a575edf67872fc5e189ffffffff02b0ad01000000000017a91475fc04a25c1827da7730895c1b9b120cbe65243287eb0f0900000000001976a914b4b3937546c44db0bd25c2b0ff46120b74a8532788ac00000000"
}