{
  "txid": "416f2bc1f26c31de247fb9c0e48d77ae05a695f5fd40a5dd389b8c5ebda7fb9f",
  "version": 2,
  "locktime": 0,
  "vin": [
    {
      "txid": "b13bb5512a4904c28a6b7957b88edf574e8cb23551fc1dcfe22d6b239df42cf4",
      "vout": 71,
      "prevout": {
        "scriptpubkey": "512035420508b3dc44de8d20c91155756021bd101a871583bd501c27b2215d40d0fe",
        "scriptpubkey_asm": "OP_PUSHNUM_1 OP_PUSHBYTES_32 35420508b3dc44de8d20c91155756021bd101a871583bd501c27b2215d40d0fe",
        "scriptpubkey_type": "v1_p2tr",
        "scriptpubkey_address": "bc1px4pq2z9nm3zdarfqeyg42atqyx73qx58zkpm65quy7ezzh2q6rlqcv2grs",
        "value": 2575
      },
      "scriptsig": "",
      "scriptsig_asm": "",
      "witness": [
        "1dd504a316730da4c8bdcbbfcac145c7ca28e8567b34cc248b2deedd9a7f0428bc3c517450fb3e6ce81e855bc45953e09b5d9ef388faa7d7ecc9bd24ab66721f",
        "2079bdbf88104f16d4452171daa8d901c4ddb21542dc2e2df89a2df57d9e7b1bdeac0063036f726401010a746578742f706c61696e00367b2270223a226272632d3230222c226f70223a226d696e74222c227469636b223a2261616161222c22616d74223a223130303030227d68",
        "c079bdbf88104f16d4452171daa8d901c4ddb21542dc2e2df89a2df57d9e7b1bde"
      ],
      "is_coinbase": false,
      "sequence": 4261412863
    }
  ],
  "vout": [
    {
      "scriptpubkey": "0014ce0b5aa0dac72397a8aa5a85d90a2cfb46f0f630",
      "scriptpubkey_asm": "OP_0 OP_PUSHBYTES_20 ce0b5aa0dac72397a8aa5a85d90a2cfb46f0f630",
      "scriptpubkey_type": "v0_p2wpkh",
      "scriptpubkey_address": "bc1qec944gx6cu3e0292t2zajz3vldr0pa3sh356d9",
      "value": 546
    }
  ],
  "size": 295,
  "weight": 541,
  "fee": 2029,
  "status": {
    "confirmed": true,
    "block_height": 834464,
    "block_hash": "0000000000000000000177a0869a911a2b65c9bdcd5a8bcb02b68f305bee848e",
    "block_time": 1710308296
  },
  "hex": "02000000000101f42cf49d236b2de2cf1dfc5135b28c4e57df8eb857796b8ac204492a51b53bb14700000000fffffffd012202000000000000160014ce0b5aa0dac72397a8aa5a85d90a2cfb46f0f63003401dd504a316730da4c8bdcbbfcac145c7ca28e8567b34cc248b2deedd9a7f0428bc3c517450fb3e6ce81e855bc45953e09b5d9ef388faa7d7ecc9bd24ab66721f6e2079bdbf88104f16d4452171daa8d901c4ddb21542dc2e2df89a2df57d9e7b1bdeac0063036f726401010a746578742f706c61696e00367b2270223a226272632d3230222c226f70223a226d696e74222c227469636b223a2261616161222c22616d74223a223130303030227d6821c079bdbf88104f16d4452171daa8d901c4ddb21542dc2e2df89a2df57d9e7b1bde00000000"
}