{
  "txid": "4187f49b0c11730fa866349fe81ff468460f786f4493c43b42a64e02799f45a5",
  "version": 2,
  "locktime": 832833,
  "vin": [
    {
      "txid": "a0ec1b6f62ad5b175ead2f6f5936864670268bda3dc75219964651f6992c3b30",
      "vout": 0,
      "prevout": {
        "scriptpubkey": "0014bbc929d578282030410cfaf2136be62fea7b7a77",
        "scriptpubkey_asm": "OP_0 OP_PUSHBYTES_20 bbc929d578282030410cfaf2136be62fea7b7a77",
        "scriptpubkey_type": "v0_p2wpkh",
        "scriptpubkey_address": "bc1qh0yjn4tc9qsrqsgvltepx6lx9l48k7nhccjsje",
        "value": 19977
      },
      "scriptsig": "",
      "scriptsig_asm": "",
      "witness": [
        "3044022036ba7933c3fffa7020081f788bc22cda91d654f018625dcd7c69687adb4d411502203d73c9c1cd13e33d07b9a321e1988ffa945fbc076962a35c98b9f432c16a24d901",
        "020063bfaa615d5b1a5a69f6d3fd2ff1559863270ccf623986fd348aa1cd912d48"
      ],
      "is_coinbase": false,
      "sequence": 4294967293
    }
  ],
  "vout": [
    {
      "scriptpubkey": "001482de54f8dee73234dc297c4f7a3334981b69f436",
      "scriptpubkey_asm": "OP_0 OP_PUSHBYTES_20 82de54f8dee73234dc297c4f7a3334981b69f436",
      "scriptpubkey_type": "v0_p2wpkh",
      "scriptpubkey_address": "bc1qst09f7x7uuerfhpf038h5ve5nqdknapk5f7fwg",
      "value": 19015
    }
  ],
  "size": 191,
  "weight": 437,
  "fee": 962,
  "status": {
    "confirmed": true,
    "block_height": 834464,
    "block_hash": "0000000000000000000177a0869a911a2b65c9bdcd5a8bcb02b68f305bee848e",
    "block_time": 1710308296
  },
  "hex": "02000000000101303b2c99f65146961952c73dda8b2670468636596f2fad5e175bad626f1beca00000000000fdffffff01474a00000000000016001482de54f8dee73234dc297c4f7a3334981b69f43602473044022036ba7933c3fffa7020081f788bc22cda91d654f018625dcd7c69687adb4d411502203d73c9c1cd13e33d07b9a321e1988ffa945fbc076962a35c98b9f432c16a24d90121020063bfaa615d5b1a5a69f6d3fd2ff1559863270ccf623986fd348aa1cd912d4841b50c00"
}