{
  "txid": "419a96c8085276e9e341cf598cea6ac6e524d11bf8c63693c5e20b20a43a80f8",
  "version": 2,
  "locktime": 0,
  "vin": [
    {
      "txid": "9387332ef7a760fac9d7d66b5e4233a248ac6fdf3afde70901c0a203450ad7b6",
      "vout": 0,
      "prevout": {
        "scriptpubkey": "51204b3def6b7bdf9758a317f5eafc03b3a744cc6bb7dad731af7edbfbb555c2be75",
        "scriptpubkey_asm": "OP_PUSHNUM_1 OP_PUSHBYTES_32 4b3def6b7bdf9758a317f5eafc03b3a744cc6bb7dad731af7edbfbb555c2be75",
        "scriptpubkey_type": "v1_p2tr",
        "scriptpubkey_address": "bc1pfv7776mmm7t43gch7h40cqan5azvc6ahmttnrtm7m0am24wzhe6smdt3m6",
        "value": 546
      },
      "scriptsig": "",
      "scriptsig_asm": "",
      "witness": [
        "61f5a873640445a495fe5a9008d907454d8ddc8af332e52ce9dcc7e3e683dcb4f07d52990881d3fe3077a1cabbe16f51936f37f757e92050dcf0196ba944fb15"
      ],
      "is_coinbase": false,
      "sequence": 4294967293
    },
    {
      "txid": "1094c413951fed0b7e638ded44866e1c85fcfa2bbea5f16f654711f561c1578e",
      "vout": 1,
      "prevout": {
        "scriptpubkey": "51207cf0b24ab3accc9ec7eaaa4e143a6efec76647294b2bed4cbfb9d72c9b3333f0",
        "scriptpubkey_asm": "OP_PUSHNUM_1 OP_PUSHBYTES_32 7cf0b24ab3accc9ec7eaaa4e143a6efec76647294b2bed4cbfb9d72c9b3333f0",
        "scriptpubkey_type": "v1_p2tr",
        "scriptpubkey_address": "bc1p0nctyj4n4nxfa3l24f8pgwnwlmrkv3effv476n9lh8tjexenx0cqtqun9g",
        "value": 17072
      },
      "scriptsig": "",
      "scriptsig_asm": "",
      "witness": [
        "2e0f193f54332c0949f5d07e0586c1b2906e173a91e8fdb3bb5efe96d5507ff1368abd0bc5f34d63123e086ec92f753cee617d8066a480059664f33da766e112"
      ],
      "is_coinbase": false,
      "sequence": 4294967293
    }
  ],
  "vout": [
    {
      "scriptpubkey": "51203863ee247d81f74f5e191d80e32144df0dbdace9be51ab88a63080ac18e61773",
      "scriptpubkey_asm": "OP_PUSHNUM_1 OP_PUSHBYTES_32 3863ee247d81f74f5e191d80e32144df0dbdace9be51ab88a63080ac18e61773",
      "scriptpubkey_type": "v1_p2tr",
      "scriptpubkey_address": "bc1p8p37ufras8m57hserkqwxg2ymuxmmt8fheg6hz9xxzq2cx8xzaesp4p6c2",
      "value": 546
    },
    {
      "scriptpubkey": "5120e414a8dfee9a07062393afc1a70b6515aa50c9c2101cd14b34dccd1bfb900299",
      "scriptpubkey_asm": "OP_PUSHNUM_1 OP_PUSHBYTES_32 e414a8dfee9a07062393afc1a70b6515aa50c9c2101cd14b34dccd1bfb900299",
      "scriptpubkey_type": "v1_p2tr",
      "scriptpubkey_address": "bc1pus223hlwngrsvgun4lq6wzm9zk49pjwzzqwdzje5mnx3h7usq2vsdswzva",
      "value": 13680
    }
  ],
  "size": 312,
  "weight": 846,
  "fee": 3392,
  "status": {
    "confirmed": true,
    "block_height": 834552,
    "block_hash": "00000000000000000001dd0468a70c94f619251d286585cff57aeb4bd9ede330",
    "block_time": 1710355598
  },
  "hex": "02000000000102b6d70a4503a2c00109e7fd3adf6fac48a233425e6bd6d7c9fa60a7f72e3387930000000000fdffffff8e57c161f51147656ff1a5be2bfafc851c6e8644ed8d637e0bed1f9513c494100100000000fdffffff0222020000000000002251203863ee247d81f74f5e191d80e32144df0dbdace9be51ab88a63080ac18e617737035000000000000225120e414a8dfee9a07062393afc1a70b6515aa50c9c2101cd14b34dccd1bfb900299014061f5a873640445a495fe5a9008d907454d8ddc8af332e52ce9dcc7e3e683dcb4f07d52990881d3fe3077a1cabbe16f51936f37f757e92050dcf0196ba944fb1501402e0f193f54332c0949f5d07e0586c1b2906e173a91e8fdb3bb5efe96d5507ff1368abd0bc5f34d63123e086ec92f753cee617d8066a480059664f33da766e11200000000"
}