{
  "txid": "41a407203331ce35f1f61c1ef3f885e8b8e6eb7c2e044b7d58c214dfce100871",
  "version": 2,
  "locktime": 0,
  "vin": [
    {
      "txid": "63ae3f28afd5d0a929109d69e6dd14c64a5f88e60465d97a08caa06060e15e8f",
      "vout": 34,
      "prevout": {
        "scriptpubkey": "51205cc126fbbb0db5adc59313343a6e8089a43e2c1098faef14bbbba85749adcaf7",
        "scriptpubkey_asm": "OP_PUSHNUM_1 OP_PUSHBYTES_32 5cc126fbbb0db5adc59313343a6e8089a43e2c1098faef14bbbba85749adcaf7",
        "scriptpubkey_type": "v1_p2tr",
        "scriptpubkey_address": "bc1ptnqjd7ampk66m3vnzv6r5m5q3xjrutqsnraw799mhw59wjddetmsp9lz7y",
        "value": 3042
      },
      "scriptsig": "",
      "scriptsig_asm": "",
      "witness": [
        "b6d7a36e4f3df20706975d2f94cdc294791ccd0664dd8224a956f12507417c9301baabb305b1e2dea92cd44f9abe44ac9e348856dda6db4ae87406c7ff12f4f3",
        "20948f7619045e716a69fbd0fa56470dcaedfaa92c918e859b6f40f768aca2418eac0063036f726401011e6170706c69636174696f6e2f6a736f6e3b636861727365743d7574662d38004cd27b2270223a22706f772d3230222c226f70223a226d696e74222c227469636b223a2250455045222c22616d74223a2231303030222c22736f6c7574696f6e223a22504550453a626331706a39356d676c663836377961396a32756368377a34647836793635746736373330676e7661796b706b6c77793335757667376a73773033676d713a303030303030303030303030303030303030303139393431613561653132383937363539383134343239323533333030353762306461393666336465613163353a39303036303938343036227d68",
        "c1ffe2b6185dd514800047a24f9c3d628916daef0b23d9f98ab4cda2a0457a18d1"
      ],
      "is_coinbase": false,
      "sequence": 4294967295
    }
  ],
  "vout": [
    {
      "scriptpubkey": "51209169b47d27d789d2c95cc5fc2ab4da26a8b46bd17a26ce92c1b7dc48d38c47a5",
      "scriptpubkey_asm": "OP_PUSHNUM_1 OP_PUSHBYTES_32 9169b47d27d789d2c95cc5fc2ab4da26a8b46bd17a26ce92c1b7dc48d38c47a5",
      "scriptpubkey_type": "v1_p2tr",
      "scriptpubkey_address": "bc1pj95mglf867ya9j2uch7z4dx6y65tg6730gnvaykpklwy35uvg7jsw03gmq",
      "value": 546
    }
  ],
  "size": 486,
  "weight": 768,
  "fee": 2496,
  "status": {
    "confirmed": true,
    "block_height": 834460,
    "block_hash": "00000000000000000000484a79b643b2524bbce82e5d8a442013fa5b8905ed98",
    "block_time": 1710307468
  },
  "hex": "020000000001018f5ee16060a0ca087ad96504e6885f4ac614dde6699d1029a9d0d5af283fae632200000000ffffffff0122020000000000002251209169b47d27d789d2c95cc5fc2ab4da26a8b46bd17a26ce92c1b7dc48d38c47a50340b6d7a36e4f3df20706975d2f94cdc294791ccd0664dd8224a956f12507417c9301baabb305b1e2dea92cd44f9abe44ac9e348856dda6db4ae87406c7ff12f4f3fd1f0120948f7619045e716a69fbd0fa56470dcaedfaa92c918e859b6f40f768aca2418eac0063036f726401011e6170706c69636174696f6e2f6a736f6e3b636861727365743d7574662d38004cd27b2270223a22706f772d3230222c226f70223a226d696e74222c227469636b223a2250455045222c22616d74223a2231303030222c22736f6c7574696f6e223a22504550453a626331706a39356d676c663836377961396a32756368377a34647836793635746736373330676e7661796b706b6c77793335757667376a73773033676d713a303030303030303030303030303030303030303139393431613561653132383937363539383134343239323533333030353762306461393666336465613163353a39303036303938343036227d6821c1ffe2b6185dd514800047a24f9c3d628916daef0b23d9f98ab4cda2a0457a18d100000000"
}