{
  "txid": "41ae8d981e75a54402220564a078d5ffcae1a74650b0a98667e073a3610927b4",
  "version": 1,
  "locktime": 0,
  "vin": [
    {
      "txid": "c0561d326fa7c64fac09ecdb0cac6e82e3a760b8be6635aeb45ede7706795743",
      "vout": 1,
      "prevout": {
        "scriptpubkey": "76a914c930625d7616efc906e4515ed9446a92c8f9ea2b88ac",
        "scriptpubkey_asm": "OP_DUP OP_HASH160 OP_PUSHBYTES_20 c930625d7616efc906e4515ed9446a92c8f9ea2b OP_EQUALVERIFY OP_CHECKSIG",
        "scriptpubkey_type": "p2pkh",
        "scriptpubkey_address": "1KLnnMX1fRgrF8QEcxcKFfG9kXmN27DWpF",
        "value": 324571
      },
      "scriptsig": "483045022100cc10fa8e669c893695970fe03049089aebe04cf8f700a34315f2d7cb6602ec6602200a2f72026276f95b14af1c763cc77c15907372ede874224d43e8858acf8abe000121021ed35ce14dfbd136aa28382739fd5d2cf7a89e3204181141cba842067f1ab21a",
      "scriptsig_asm": "OP_PUSHBYTES_72 3045022100cc10fa8e669c893695970fe03049089aebe04cf8f700a34315f2d7cb6602ec6602200a2f72026276f95b14af1c763cc77c15907372ede874224d43e8858acf8abe0001 OP_PUSHBYTES_33 021ed35ce14dfbd136aa28382739fd5d2cf7a89e3204181141cba842067f1ab21a",
      "is_coinbase": false,
      "sequence": 4294967295
    }
  ],
  "vout": [
    {
      "scriptpubkey": "a9148607118ed6845ab5e376e24bf57b924ba9ef745187",
      "scriptpubkey_asm": "OP_HASH160 OP_PUSHBYTES_20 8607118ed6845ab5e376e24bf57b924ba9ef7451 OP_EQUAL",
      "scriptpubkey_type": "p2sh",
      "scriptpubkey_address": "3DugwPAbkFEmFew2V7c93vFUR3FXZvjRs5",
      "value": 58418
    },
    {
      "scriptpubkey": "76a914c930625d7616efc906e4515ed9446a92c8f9ea2b88ac",
      "scriptpubkey_asm": "OP_DUP OP_HASH160 OP_PUSHBYTES_20 c930625d7616efc906e4515ed9446a92c8f9ea2b OP_EQUALVERIFY OP_CHECKSIG",
      "scriptpubkey_type": "p2pkh",
      "scriptpubkey_address": "1KLnnMX1fRgrF8QEcxcKFfG9kXmN27DWpF",
      "value": 260777
    }
  ],
  "size": 224,
  "weight": 896,
  "fee": 5376,
  "status": {
    "confirmed": true,
    "block_height": 834638,
    "block_hash": "000000000000000000025f742c626208ac87e0b7d15054abb4a19ca2d735a54e",
    "block_time": 1710405325
  },
  "hex": "01000000014357790677de5eb4ae3566beb860a7e3826eac0cdbec09ac4fc6a76f321d56c0010000006b483045022100cc10fa8e669c893695970fe03049089aebe04cf8f700a34315f2d7cb6602ec6602200a2f72026276f95b14af1c763cc77c15907372ede874224d43e8858acf8abe000121021ed35ce14dfbd136aa28382739fd5d2cf7a89e3204181141cba842067f1ab21affffffff0232e400000000000017a9148607118ed6845ab5e376e24bf57b924ba9ef745187a9fa0300000000001976a914c930625d7616efc906e4515ed9446a92c8f9ea2b88ac00000000"
}