{
  "txid": "41bc2dca735db7dad282c45304d38f29cdc0aefa0a051d7a020bea0759acde01",
  "version": 2,
  "locktime": 0,
  "vin": [
    {
      "txid": "96309d1ced15fe8ec3a0340567492f6778f5497f216e96e53a213dff5482379b",
      "vout": 0,
      "prevout": {
        "scriptpubkey": "0014a7fb746ffe25f63071619bd46ea91fb45ddaa32d",
        "scriptpubkey_asm": "OP_0 OP_PUSHBYTES_20 a7fb746ffe25f63071619bd46ea91fb45ddaa32d",
        "scriptpubkey_type": "v0_p2wpkh",
        "scriptpubkey_address": "bc1q5lahgml7yhmrqutpn02xa2glk3wa4gedm08cnd",
        "value": 800
      },
      "scriptsig": "",
      "scriptsig_asm": "",
      "witness": [
        "3045022100e99a6d8dc3d7404d6820627563dda61a664702a45b612d2ac86bceab8cab9cb60220614b22cb7445ad6f2138046bb8979c1a2056eb5737ad8fece7280ee8d562665681",
        "028ee758c08c06198b779f6c3dfe8c27d8a70c45fb695cb629794020f2aa933c32"
      ],
      "is_coinbase": false,
      "sequence": 4294967293
    },
    {
      "txid": "a5e7c8a504837f3c6d3da9133f86d0ad99b7068b819791994d0f88cd9c1107d7",
      "vout": 1,
      "prevout": {
        "scriptpubkey": "00141290feea801e320fd215b5fdc931f8323964635b",
        "scriptpubkey_asm": "OP_0 OP_PUSHBYTES_20 1290feea801e320fd215b5fdc931f8323964635b",
        "scriptpubkey_type": "v0_p2wpkh",
        "scriptpubkey_address": "bc1qz2g0a65qrceql5s4kh7ujv0cxgukgc6mmeg277",
        "value": 405089
      },
      "scriptsig": "",
      "scriptsig_asm": "",
      "witness": [
        "3045022100cf2d63e135878a5aae7045c893ef6c1b76aee03a80ece625a3f35b8136adb50d02204e2fa50b25b852f1eda165ebc6c3ec56b253d7b0918a84c2769a4a245a759add01",
        "03cfb250fc0847d0f61971e6857e3d1d84b827c84f18a6cdcc9746224f69c34233"
      ],
      "is_coinbase": false,
      "sequence": 4294967293
    }
  ],
  "vout": [
    {
      "scriptpubkey": "00145a49a44ba11b4aa13cfa5efa40e5fe7b33b94da1",
      "scriptpubkey_asm": "OP_0 OP_PUSHBYTES_20 5a49a44ba11b4aa13cfa5efa40e5fe7b33b94da1",
      "scriptpubkey_type": "v0_p2wpkh",
      "scriptpubkey_address": "bc1qtfy6gjaprd92z086tmaype070vemjndp2utfcy",
      "value": 391680
    },
    {
      "scriptpubkey": "51210252bff0c581323930da90e4323c69a7c52a46ca4e6dced0163b77c350b2659f292102265e78f75f4ba3deb10e62039f46f2a30db91b566fd733011296f6f314c77b1e2102020202020202020202020202020202020202020202020202020202020202020253ae",
      "scriptpubkey_asm": "OP_PUSHNUM_1 OP_PUSHBYTES_33 0252bff0c581323930da90e4323c69a7c52a46ca4e6dced0163b77c350b2659f29 OP_PUSHBYTES_33 02265e78f75f4ba3deb10e62039f46f2a30db91b566fd733011296f6f314c77b1e OP_PUSHBYTES_33 020202020202020202020202020202020202020202020202020202020202020202 OP_PUSHNUM_3 OP_CHECKMULTISIG",
      "scriptpubkey_type": "unknown",
      "value": 796
    },
    {
      "scriptpubkey": "512102402fe0f54bf541519a54e60cf8e20f3fea9b03c39d5a23bc828df6e96b03ebec21027c1677e7509f41863cd9cc54162a43c29808b9f13ee48ac413bcc2c4a1392bd72103333333333333333333333333333333333333333333333333333333333333333353ae",
      "scriptpubkey_asm": "OP_PUSHNUM_1 OP_PUSHBYTES_33 02402fe0f54bf541519a54e60cf8e20f3fea9b03c39d5a23bc828df6e96b03ebec OP_PUSHBYTES_33 027c1677e7509f41863cd9cc54162a43c29808b9f13ee48ac413bcc2c4a1392bd7 OP_PUSHBYTES_33 033333333333333333333333333333333333333333333333333333333333333333 OP_PUSHNUM_3 OP_CHECKMULTISIG",
      "scriptpubkey_type": "unknown",
      "value": 796
    },
    {
      "scriptpubkey": "0014a7fb746ffe25f63071619bd46ea91fb45ddaa32d",
      "scriptpubkey_asm": "OP_0 OP_PUSHBYTES_20 a7fb746ffe25f63071619bd46ea91fb45ddaa32d",
      "scriptpubkey_type": "v0_p2wpkh",
      "scriptpubkey_address": "bc1q5lahgml7yhmrqutpn02xa2glk3wa4gedm08cnd",
      "value": 800
    }
  ],
  "size": 600,
  "weight": 1746,
  "fee": 11817,
  "status": {
    "confirmed": true,
    "block_height": 834638,
    "block_hash": "000000000000000000025f742c626208ac87e0b7d15054abb4a19ca2d735a54e",
    "block_time": 1710405325
  },
  "hex": "020000000001029b378254ff3d213ae5966e217f49f578672f49670534a0c38efe15ed1c9d30960000000000fdffffffd707119ccd880f4d999197818b06b799add0863f13a93d6d3c7f8304a5c8e7a50100000000fdffffff0400fa0500000000001600145a49a44ba11b4aa13cfa5efa40e5fe7b33b94da11c030000000000006951210252bff0c581323930da90e4323c69a7c52a46ca4e6dced0163b77c350b2659f292102265e78f75f4ba3deb10e62039f46f2a30db91b566fd733011296f6f314c77b1e2102020202020202020202020202020202020202020202020202020202020202020253ae1c0300000000000069512102402fe0f54bf541519a54e60cf8e20f3fea9b03c39d5a23bc828df6e96b03ebec21027c1677e7509f41863cd9cc54162a43c29808b9f13ee48ac413bcc2c4a1392bd72103333333333333333333333333333333333333333333333333333333333333333353ae2003000000000000160014a7fb746ffe25f63071619bd46ea91fb45ddaa32d02483045022100e99a6d8dc3d7404d6820627563dda61a664702a45b612d2ac86bceab8cab9cb60220614b22cb7445ad6f2138046bb8979c1a2056eb5737ad8fece7280ee8d56266568121028ee758c08c06198b779f6c3dfe8c27d8a70c45fb695cb629794020f2aa933c3202483045022100cf2d63e135878a5aae7045c893ef6c1b76aee03a80ece625a3f35b8136adb50d02204e2fa50b25b852f1eda165ebc6c3ec56b253d7b0918a84c2769a4a245a759add012103cfb250fc0847d0f61971e6857e3d1d84b827c84f18a6cdcc9746224f69c3423300000000"
}