{
  "txid": "41c45bcfaf537b8ee967e622a9382ac1ad203e10e76b3a024a52a9ce50e327b1",
  "version": 2,
  "locktime": 0,
  "vin": [
    {
      "txid": "acc3ba00869acb582a3f2904ce3a11dd3779350ce234063fc7d0959246213364",
      "vout": 82,
      "prevout": {
        "scriptpubkey": "5120c0fb7396b3d8cd2cd5619819f334ca3de5cc6a5f1e5e7ac081e430e862604f11",
        "scriptpubkey_asm": "OP_PUSHNUM_1 OP_PUSHBYTES_32 c0fb7396b3d8cd2cd5619819f334ca3de5cc6a5f1e5e7ac081e430e862604f11",
        "scriptpubkey_type": "v1_p2tr",
        "scriptpubkey_address": "bc1pcrah894nmrxje4tpnqvlxdx28hjuc6jlre084sypuscwscnqfugspfyw4h",
        "value": 1806
      },
      "scriptsig": "",
      "scriptsig_asm": "",
      "witness": [
        "8e6edc890f1cfdfbe939040cd41882a78c066443d12902321f0cbab91de13009fb8aada7dd59d66ff5672cc17f515ec489311bb4aaa8c75f5851fa6dcf680f3b",
        "207eb9c00327ec46fe20ba7c0ae350db63dc24b2c63003c1bee909554e12470a7eac0063036f726401010a746578742f706c61696e00357b2270223a226272632d3230222c226f70223a226d696e74222c227469636b223a22646f6765222c22616d74223a2234323030227d68",
        "c07eb9c00327ec46fe20ba7c0ae350db63dc24b2c63003c1bee909554e12470a7e"
      ],
      "is_coinbase": false,
      "sequence": 4261412863
    }
  ],
  "vout": [
    {
      "scriptpubkey": "00147a665de7a370f4c9b372ab1fae587500a5bcbdb4",
      "scriptpubkey_asm": "OP_0 OP_PUSHBYTES_20 7a665de7a370f4c9b372ab1fae587500a5bcbdb4",
      "scriptpubkey_type": "v0_p2wpkh",
      "scriptpubkey_address": "bc1q0fn9mearwr6vnvmj4v06ukr4qzjme0d565dzcx",
      "value": 294
    }
  ],
  "size": 294,
  "weight": 540,
  "fee": 1512,
  "status": {
    "confirmed": true,
    "block_height": 834460,
    "block_hash": "00000000000000000000484a79b643b2524bbce82e5d8a442013fa5b8905ed98",
    "block_time": 1710307468
  },
  "hex": "02000000000101643321469295d0c73f0634e20c357937dd113ace04293f2a58cb9a8600bac3ac5200000000fffffffd0126010000000000001600147a665de7a370f4c9b372ab1fae587500a5bcbdb403408e6edc890f1cfdfbe939040cd41882a78c066443d12902321f0cbab91de13009fb8aada7dd59d66ff5672cc17f515ec489311bb4aaa8c75f5851fa6dcf680f3b6d207eb9c00327ec46fe20ba7c0ae350db63dc24b2c63003c1bee909554e12470a7eac0063036f726401010a746578742f706c61696e00357b2270223a226272632d3230222c226f70223a226d696e74222c227469636b223a22646f6765222c22616d74223a2234323030227d6821c07eb9c00327ec46fe20ba7c0ae350db63dc24b2c63003c1bee909554e12470a7e00000000"
}