{
  "txid": "41c97511fcdbc21d62e84104823028ab3cf743f83d5eb0e13742e7466ae5006d",
  "version": 2,
  "locktime": 0,
  "vin": [
    {
      "txid": "ea9daad58c1604d34363e41da7b8a54ae3d7f174c3e94fe07486212a23111d8f",
      "vout": 0,
      "prevout": {
        "scriptpubkey": "5120b913e1d5d14c638982390efe1961c1e27045edaebb427587a3764240be903f8e",
        "scriptpubkey_asm": "OP_PUSHNUM_1 OP_PUSHBYTES_32 b913e1d5d14c638982390efe1961c1e27045edaebb427587a3764240be903f8e",
        "scriptpubkey_type": "v1_p2tr",
        "scriptpubkey_address": "bc1phyf7r4w3f33cnq3epmlpjcwpufcytmdwhdp8tparwepyp05s878qk9wkkd",
        "value": 2856
      },
      "scriptsig": "",
      "scriptsig_asm": "",
      "witness": [
        "062d5163f025e8c935f3beff6a298c228eb3526cdee918b79afb936fb2928dc40a3e66a3f5321f494c6a41aa47fabaafe25257d2f35a6e6160f01a0d734451a6",
        "202a190ac129a81ac2b7019f095f4092a672306ac6f2de4d804f846cd6edd4a1a8ac0063036f7264010118746578742f706c61696e3b636861727365743d7574662d3800417b2270223a226272632d3230222c226f70223a227472616e73666572222c227469636b223a22f09d9b91222c22616d74223a22323232323232323232323232227d68",
        "c12a190ac129a81ac2b7019f095f4092a672306ac6f2de4d804f846cd6edd4a1a8"
      ],
      "is_coinbase": false,
      "sequence": 4294967293
    }
  ],
  "vout": [
    {
      "scriptpubkey": "5120c4d6f33b3dabdff90cff99278d6a4d6b57f5307195b4b2e41397c3c02ef49d96",
      "scriptpubkey_asm": "OP_PUSHNUM_1 OP_PUSHBYTES_32 c4d6f33b3dabdff90cff99278d6a4d6b57f5307195b4b2e41397c3c02ef49d96",
      "scriptpubkey_type": "v1_p2tr",
      "scriptpubkey_address": "bc1pcnt0xwea400ljr8lnync66jdddtl2vr3jk6t9eqnjlpuqth5nktqs05r3w",
      "value": 546
    }
  ],
  "size": 332,
  "weight": 614,
  "fee": 2310,
  "status": {
    "confirmed": true,
    "block_height": 834460,
    "block_hash": "00000000000000000000484a79b643b2524bbce82e5d8a442013fa5b8905ed98",
    "block_time": 1710307468
  },
  "hex": "020000000001018f1d11232a218674e04fe9c374f1d7e34aa5b8a71de46343d304168cd5aa9dea0000000000fdffffff012202000000000000225120c4d6f33b3dabdff90cff99278d6a4d6b57f5307195b4b2e41397c3c02ef49d960340062d5163f025e8c935f3beff6a298c228eb3526cdee918b79afb936fb2928dc40a3e66a3f5321f494c6a41aa47fabaafe25257d2f35a6e6160f01a0d734451a687202a190ac129a81ac2b7019f095f4092a672306ac6f2de4d804f846cd6edd4a1a8ac0063036f7264010118746578742f706c61696e3b636861727365743d7574662d3800417b2270223a226272632d3230222c226f70223a227472616e73666572222c227469636b223a22f09d9b91222c22616d74223a22323232323232323232323232227d6821c12a190ac129a81ac2b7019f095f4092a672306ac6f2de4d804f846cd6edd4a1a800000000"
}