{
  "txid": "41c9519949e3e3417f7d2c6cc96fadd580ecc55a2304f658ce3a279db4ca73d8",
  "version": 2,
  "locktime": 0,
  "vin": [
    {
      "txid": "b70cce7883d208c26232a6095c143c2fec06e0d1b731bda9c6c733eafdf84a8d",
      "vout": 4,
      "prevout": {
        "scriptpubkey": "0014a840d39a0342f1c4ba58a4e15abdebf137d33964",
        "scriptpubkey_asm": "OP_0 OP_PUSHBYTES_20 a840d39a0342f1c4ba58a4e15abdebf137d33964",
        "scriptpubkey_type": "v0_p2wpkh",
        "scriptpubkey_address": "bc1q4pqd8xsrgtcufwjc5ns4400t7ymaxwtyjx3qst",
        "value": 300
      },
      "scriptsig": "",
      "scriptsig_asm": "",
      "witness": [
        "304402201e5a358af6f5b77fa1e3760942586fd521e2c1ec1fe56336c6385c8f7586452502200691dc7b4e0b088ebf2a30363750c1af0c3bd926e9a34b010529e745e2a8aa0301",
        "02ecc6e10bfafdf003d817f71ff03cf5fe44d60abcd67877c567db5ba2a7b1d41b"
      ],
      "is_coinbase": false,
      "sequence": 4294967295
    },
    {
      "txid": "b70cce7883d208c26232a6095c143c2fec06e0d1b731bda9c6c733eafdf84a8d",
      "vout": 5,
      "prevout": {
        "scriptpubkey": "0014a840d39a0342f1c4ba58a4e15abdebf137d33964",
        "scriptpubkey_asm": "OP_0 OP_PUSHBYTES_20 a840d39a0342f1c4ba58a4e15abdebf137d33964",
        "scriptpubkey_type": "v0_p2wpkh",
        "scriptpubkey_address": "bc1q4pqd8xsrgtcufwjc5ns4400t7ymaxwtyjx3qst",
        "value": 300
      },
      "scriptsig": "",
      "scriptsig_asm": "",
      "witness": [
        "304402205b7546dc90a5f661daea31f0065f2e786b55195ca30a05060ef7e3a7baa5156902206a74ec844b95f94b53940a25f3853dec41417c197745a27ab485e0e2fe86a3e401",
        "02ecc6e10bfafdf003d817f71ff03cf5fe44d60abcd67877c567db5ba2a7b1d41b"
      ],
      "is_coinbase": false,
      "sequence": 4294967295
    },
    {
      "txid": "4c8e48e5559fec2837d918403f636741d278c072ff7c59532667f5b3f7e87beb",
      "vout": 0,
      "prevout": {
        "scriptpubkey": "00147a665de7a370f4c9b372ab1fae587500a5bcbdb4",
        "scriptpubkey_asm": "OP_0 OP_PUSHBYTES_20 7a665de7a370f4c9b372ab1fae587500a5bcbdb4",
        "scriptpubkey_type": "v0_p2wpkh",
        "scriptpubkey_address": "bc1q0fn9mearwr6vnvmj4v06ukr4qzjme0d565dzcx",
        "value": 546
      },
      "scriptsig": "",
      "scriptsig_asm": "",
      "witness": [
        "30450221009564b38751fce68bf799e00fe038eb14c6a99975c6c84cea88e3ed65b5fb9aed02207e7c1a2dc7aa93da3f17fd27c8f298f2958b2574b6aa106c31c8391f4b86733283",
        "02fa582226fc52238392eef993525771c47c099d82a4700c3b238517cf595c3582"
      ],
      "is_coinbase": false,
      "sequence": 4294967295
    },
    {
      "txid": "bbcc1a896be6a503c5af47be54b1a85b3499fc430343f548d631e18ba4023028",
      "vout": 1,
      "prevout": {
        "scriptpubkey": "00147762334cad4667b8baf75328687a73c4a94d257f",
        "scriptpubkey_asm": "OP_0 OP_PUSHBYTES_20 7762334cad4667b8baf75328687a73c4a94d257f",
        "scriptpubkey_type": "v0_p2wpkh",
        "scriptpubkey_address": "bc1qwa3rxn9dgenm3whh2v5xs7nncj556ftlclg75a",
        "value": 242822
      },
      "scriptsig": "",
      "scriptsig_asm": "",
      "witness": [
        "304402200097d6f1f0f208641a4f36803a52a2e0a34b39f1ba34004d1c4284a7b57c6dd3022052b643dfb73a40c167b660d574c7e6e96b6cb1cea6a79f8c36e8d3a98743110d01",
        "035587c5cdecdf06896ca7a21544e19585186de6c9ae56e70345c772bece953a77"
      ],
      "is_coinbase": false,
      "sequence": 4294967295
    },
    {
      "txid": "b70cce7883d208c26232a6095c143c2fec06e0d1b731bda9c6c733eafdf84a8d",
      "vout": 0,
      "prevout": {
        "scriptpubkey": "0014a840d39a0342f1c4ba58a4e15abdebf137d33964",
        "scriptpubkey_asm": "OP_0 OP_PUSHBYTES_20 a840d39a0342f1c4ba58a4e15abdebf137d33964",
        "scriptpubkey_type": "v0_p2wpkh",
        "scriptpubkey_address": "bc1q4pqd8xsrgtcufwjc5ns4400t7ymaxwtyjx3qst",
        "value": 600
      },
      "scriptsig": "",
      "scriptsig_asm": "",
      "witness": [
        "304402203ad3ac7b86a004d1c657deb7208b0bd4dc17326de3e3d378e5261ad585d04ba602207e999be79c85c54172676015ba9b1d5e5e07800fed029c51d19fd5a40649ae9c01",
        "02ecc6e10bfafdf003d817f71ff03cf5fe44d60abcd67877c567db5ba2a7b1d41b"
      ],
      "is_coinbase": false,
      "sequence": 4294967295
    }
  ],
  "vout": [
    {
      "scriptpubkey": "0014a840d39a0342f1c4ba58a4e15abdebf137d33964",
      "scriptpubkey_asm": "OP_0 OP_PUSHBYTES_20 a840d39a0342f1c4ba58a4e15abdebf137d33964",
      "scriptpubkey_type": "v0_p2wpkh",
      "scriptpubkey_address": "bc1q4pqd8xsrgtcufwjc5ns4400t7ymaxwtyjx3qst",
      "value": 600
    },
    {
      "scriptpubkey": "00147762334cad4667b8baf75328687a73c4a94d257f",
      "scriptpubkey_asm": "OP_0 OP_PUSHBYTES_20 7762334cad4667b8baf75328687a73c4a94d257f",
      "scriptpubkey_type": "v0_p2wpkh",
      "scriptpubkey_address": "bc1qwa3rxn9dgenm3whh2v5xs7nncj556ftlclg75a",
      "value": 546
    },
    {
      "scriptpubkey": "00147a665de7a370f4c9b372ab1fae587500a5bcbdb4",
      "scriptpubkey_asm": "OP_0 OP_PUSHBYTES_20 7a665de7a370f4c9b372ab1fae587500a5bcbdb4",
      "scriptpubkey_type": "v0_p2wpkh",
      "scriptpubkey_address": "bc1q0fn9mearwr6vnvmj4v06ukr4qzjme0d565dzcx",
      "value": 186240
    },
    {
      "scriptpubkey": "00147762334cad4667b8baf75328687a73c4a94d257f",
      "scriptpubkey_asm": "OP_0 OP_PUSHBYTES_20 7762334cad4667b8baf75328687a73c4a94d257f",
      "scriptpubkey_type": "v0_p2wpkh",
      "scriptpubkey_address": "bc1qwa3rxn9dgenm3whh2v5xs7nncj556ftlclg75a",
      "value": 46664
    },
    {
      "scriptpubkey": "0014a840d39a0342f1c4ba58a4e15abdebf137d33964",
      "scriptpubkey_asm": "OP_0 OP_PUSHBYTES_20 a840d39a0342f1c4ba58a4e15abdebf137d33964",
      "scriptpubkey_type": "v0_p2wpkh",
      "scriptpubkey_address": "bc1q4pqd8xsrgtcufwjc5ns4400t7ymaxwtyjx3qst",
      "value": 300
    },
    {
      "scriptpubkey": "0014a840d39a0342f1c4ba58a4e15abdebf137d33964",
      "scriptpubkey_asm": "OP_0 OP_PUSHBYTES_20 a840d39a0342f1c4ba58a4e15abdebf137d33964",
      "scriptpubkey_type": "v0_p2wpkh",
      "scriptpubkey_address": "bc1q4pqd8xsrgtcufwjc5ns4400t7ymaxwtyjx3qst",
      "value": 300
    }
  ],
  "size": 939,
  "weight": 2142,
  "fee": 9918,
  "status": {
    "confirmed": true,
    "block_height": 834638,
    "block_hash": "000000000000000000025f742c626208ac87e0b7d15054abb4a19ca2d735a54e",
    "block_time": 1710405325
  },
  "hex": "020000000001058d4af8fdea33c7c6a9bd31b7d1e006ec2f3c145c09a63262c208d28378ce0cb70400000000ffffffff8d4af8fdea33c7c6a9bd31b7d1e006ec2f3c145c09a63262c208d28378ce0cb70500000000ffffffffeb7be8f7b3f5672653597cff72c078d24167633f4018d93728ec9f55e5488e4c0000000000ffffffff283002a48be131d648f5430343fc99345ba8b154be47afc503a5e66b891accbb0100000000ffffffff8d4af8fdea33c7c6a9bd31b7d1e006ec2f3c145c09a63262c208d28378ce0cb70000000000ffffffff065802000000000000160014a840d39a0342f1c4ba58a4e15abdebf137d3396422020000000000001600147762334cad4667b8baf75328687a73c4a94d257f80d70200000000001600147a665de7a370f4c9b372ab1fae587500a5bcbdb448b60000000000001600147762334cad4667b8baf75328687a73c4a94d257f2c01000000000000160014a840d39a0342f1c4ba58a4e15abdebf137d339642c01000000000000160014a840d39a0342f1c4ba58a4e15abdebf137d339640247304402201e5a358af6f5b77fa1e3760942586fd521e2c1ec1fe56336c6385c8f7586452502200691dc7b4e0b088ebf2a30363750c1af0c3bd926e9a34b010529e745e2a8aa03012102ecc6e10bfafdf003d817f71ff03cf5fe44d60abcd67877c567db5ba2a7b1d41b0247304402205b7546dc90a5f661daea31f0065f2e786b55195ca30a05060ef7e3a7baa5156902206a74ec844b95f94b53940a25f3853dec41417c197745a27ab485e0e2fe86a3e4012102ecc6e10bfafdf003d817f71ff03cf5fe44d60abcd67877c567db5ba2a7b1d41b024830450221009564b38751fce68bf799e00fe038eb14c6a99975c6c84cea88e3ed65b5fb9aed02207e7c1a2dc7aa93da3f17fd27c8f298f2958b2574b6aa106c31c8391f4b867332832102fa582226fc52238392eef993525771c47c099d82a4700c3b238517cf595c35820247304402200097d6f1f0f208641a4f36803a52a2e0a34b39f1ba34004d1c4284a7b57c6dd3022052b643dfb73a40c167b660d574c7e6e96b6cb1cea6a79f8c36e8d3a98743110d0121035587c5cdecdf06896ca7a21544e19585186de6c9ae56e70345c772bece953a770247304402203ad3ac7b86a004d1c657deb7208b0bd4dc17326de3e3d378e5261ad585d04ba602207e999be79c85c54172676015ba9b1d5e5e07800fed029c51d19fd5a40649ae9c012102ecc6e10bfafdf003d817f71ff03cf5fe44d60abcd67877c567db5ba2a7b1d41b00000000"
}