{
  "txid": "41cd681d8ec83ffec4f599ca173fe893c7a312788d5944028275f588993cf7cf",
  "version": 2,
  "locktime": 0,
  "vin": [
    {
      "txid": "8a995d96ae7073f2de431d35d9676cb1da4047eed999a630f1030acce29a5f4a",
      "vout": 0,
      "prevout": {
        "scriptpubkey": "512039b935675d107f737b8d78bddb631a694efaaf2de5fdd6299fb340fc440e1249",
        "scriptpubkey_asm": "OP_PUSHNUM_1 OP_PUSHBYTES_32 39b935675d107f737b8d78bddb631a694efaaf2de5fdd6299fb340fc440e1249",
        "scriptpubkey_type": "v1_p2tr",
        "scriptpubkey_address": "bc1p8xun2e6azplhx7ud0z7akcc6d9804teduh7av2vlkdq0c3qwzfyse7kx3k",
        "value": 19036
      },
      "scriptsig": "",
      "scriptsig_asm": "",
      "witness": [
        "dbeb2cc6c0843f957e8eb69bc68e284acbf31a7d9f38ca00bf396814a1305e982f2cf87128c4ff3e83052557c946450e90cc06d028926a17876f85bdd4b8c5c9",
        "20f2d00e1cce0b839d2e197679cac7a15152ec244338032c7767f72c1332d49a65ac0063036f7264010109696d6167652f706e67004d990189504e470d0a1a0a0000000d4948445200000018000000180806000000e0773df80000016049444154789cbd553b4ec4400c7d4eb94254090841c3b20b87e006a93948c44190bb953803f5de804bb028d5744987a035453ef3cf2452c0d2c81ac7f3ec37b627848308e60803a866795afe840791e44176f60bfce97f18b859191978f6b200ee1b1fac2c8063e3f95b0c3edf68fcb67b9a472cc52c9b3c18928fc2f761c76e08e12062661e93bbaba44b07f868338f33880114f9a45ddeed64170790a65d64cfc0c04ec9eca2a61858c28139a84ff17a6c4583d4d406ed630b33a627d90c747b0d90eaeff8a5013d771d23376dd08ea39e93cc021f5aadd743662688a9637694c5a8ff9c41f42d720398190fe023888ad72003c39f5a77ef809ae0d6dec81c15c25d34440e3148096dfccbb0078d1d1d025191395039e487509fc84ace0e50393a20eef5a4ecab320080ed5eb0ddebab5a9541b8060cff0fc6b6d3f7975ea4f24e6f44af57e91838e7c25dd48b59a88b73fffbd965e271641873b0b6b0d6bf3390bc594242f3400000000049454e44ae426082680063036f726401011e6170706c69636174696f6e2f6a736f6e3b636861727365743d7574662d38004d5b017b2270223a22766f7264222c2276223a312c227479223a22696e7363222c22636f6c223a2239333563383263316466613563336337316632656637323861316230626533633865633866646534356534326638336235643433336130323861623131313832222c22696964223a224e6f64652052617473222c227075626c223a2231455337623370636a527a4667796969714c7278484b546e43686535364c4a485937222c226e6f6e6365223a33362c226d696e746572223a226263317068786c376437376a6e706b6175636b39677a687571333337636d346c656b7a6c68357567736a366c7a766b656665743068347a73323363397733222c22736967223a22473658774d3770737762506a43366d755076596758316e3633683336496644706576646532367a58532f324c4e6d584864724532695a547a79495a32426d7857484f766b455959745645485479736a5a2b56796a52376f3d227d68",
        "c0f2d00e1cce0b839d2e197679cac7a15152ec244338032c7767f72c1332d49a65675a92934efa5e4869b2432a3e00abfc6819367af43949c2edc693b32d23ac05"
      ],
      "is_coinbase": false,
      "sequence": 4294967293
    }
  ],
  "vout": [
    {
      "scriptpubkey": "5120b9bfe6fbd2986dde62c540afc0463ec6ebfcd85fbd38884b5f132d94e56fbd45",
      "scriptpubkey_asm": "OP_PUSHNUM_1 OP_PUSHBYTES_32 b9bfe6fbd2986dde62c540afc0463ec6ebfcd85fbd38884b5f132d94e56fbd45",
      "scriptpubkey_type": "v1_p2tr",
      "scriptpubkey_address": "bc1phxl7d77jnpkauck9gzhuq337cm4lekzlh5ugsj6lzvkefet0h4zs23c9w3",
      "value": 1000
    },
    {
      "scriptpubkey": "a9147f39fc384632320eeea15224f8cbd052b62b930587",
      "scriptpubkey_asm": "OP_HASH160 OP_PUSHBYTES_20 7f39fc384632320eeea15224f8cbd052b62b9305 OP_EQUAL",
      "scriptpubkey_type": "p2sh",
      "scriptpubkey_address": "3DHjCnpncvUySdaVyNQ7AFXSntHPJBFEJ1",
      "value": 10608
    },
    {
      "scriptpubkey": "51200705a5767db892e98125775049b1a13dd9ecdc8aea0df413cabbee683e871012",
      "scriptpubkey_asm": "OP_PUSHNUM_1 OP_PUSHBYTES_32 0705a5767db892e98125775049b1a13dd9ecdc8aea0df413cabbee683e871012",
      "scriptpubkey_type": "v1_p2tr",
      "scriptpubkey_address": "bc1pquz62anahzfwnqf9wagynvdp8hv7ehy2agxlgy72h0hxs058zqfqk8ksyq",
      "value": 2830
    }
  ],
  "size": 1163,
  "weight": 1670,
  "fee": 4598,
  "status": {
    "confirmed": true,
    "block_height": 834464,
    "block_hash": "0000000000000000000177a0869a911a2b65c9bdcd5a8bcb02b68f305bee848e",
    "block_time": 1710308296
  },
  "hex": "020000000001014a5f9ae2cc0a03f130a699d9ee4740dab16c67d9351d43def27370ae965d998a0000000000fdffffff03e803000000000000225120b9bfe6fbd2986dde62c540afc0463ec6ebfcd85fbd38884b5f132d94e56fbd45702900000000000017a9147f39fc384632320eeea15224f8cbd052b62b9305870e0b0000000000002251200705a5767db892e98125775049b1a13dd9ecdc8aea0df413cabbee683e8710120340dbeb2cc6c0843f957e8eb69bc68e284acbf31a7d9f38ca00bf396814a1305e982f2cf87128c4ff3e83052557c946450e90cc06d028926a17876f85bdd4b8c5c9fd590320f2d00e1cce0b839d2e197679cac7a15152ec244338032c7767f72c1332d49a65ac0063036f7264010109696d6167652f706e67004d990189504e470d0a1a0a0000000d4948445200000018000000180806000000e0773df80000016049444154789cbd553b4ec4400c7d4eb94254090841c3b20b87e006a93948c44190bb953803f5de804bb028d5744987a035453ef3cf2452c0d2c81ac7f3ec37b627848308e60803a866795afe840791e44176f60bfce97f18b859191978f6b200ee1b1fac2c8063e3f95b0c3edf68fcb67b9a472cc52c9b3c18928fc2f761c76e08e12062661e93bbaba44b07f868338f33880114f9a45ddeed64170790a65d64cfc0c04ec9eca2a61858c28139a84ff17a6c4583d4d406ed630b33a627d90c747b0d90eaeff8a5013d771d23376dd08ea39e93cc021f5aadd743662688a9637694c5a8ff9c41f42d720398190fe023888ad72003c39f5a77ef809ae0d6dec81c15c25d34440e3148096dfccbb0078d1d1d025191395039e487509fc84ace0e50393a20eef5a4ecab320080ed5eb0ddebab5a9541b8060cff0fc6b6d3f7975ea4f24e6f44af57e91838e7c25dd48b59a88b73fffbd965e271641873b0b6b0d6bf3390bc594242f3400000000049454e44ae426082680063036f726401011e6170706c69636174696f6e2f6a736f6e3b636861727365743d7574662d38004d5b017b2270223a22766f7264222c2276223a312c227479223a22696e7363222c22636f6c223a2239333563383263316466613563336337316632656637323861316230626533633865633866646534356534326638336235643433336130323861623131313832222c22696964223a224e6f64652052617473222c227075626c223a2231455337623370636a527a4667796969714c7278484b546e43686535364c4a485937222c226e6f6e6365223a33362c226d696e746572223a226263317068786c376437376a6e706b6175636b39677a687571333337636d346c656b7a6c68357567736a366c7a766b656665743068347a73323363397733222c22736967223a22473658774d3770737762506a43366d755076596758316e3633683336496644706576646532367a58532f324c4e6d584864724532695a547a79495a32426d7857484f766b455959745645485479736a5a2b56796a52376f3d227d6841c0f2d00e1cce0b839d2e197679cac7a15152ec244338032c7767f72c1332d49a65675a92934efa5e4869b2432a3e00abfc6819367af43949c2edc693b32d23ac0500000000"
}