{
  "txid": "41d088f979c18c112d2613fed5f85c9f4cd4055a23888e67059545c105256fba",
  "version": 1,
  "locktime": 0,
  "vin": [
    {
      "txid": "00d30d0fb68b2af3aa02e01f896ed6f56d9efda79499146164ded54b4f8fd1ab",
      "vout": 0,
      "prevout": {
        "scriptpubkey": "512008a5a471cfb3acf69549d6463cf4ee1420846cb47d91f8da592cf5fcc333c812",
        "scriptpubkey_asm": "OP_PUSHNUM_1 OP_PUSHBYTES_32 08a5a471cfb3acf69549d6463cf4ee1420846cb47d91f8da592cf5fcc333c812",
        "scriptpubkey_type": "v1_p2tr",
        "scriptpubkey_address": "bc1ppzj6guw0kwk0d92f6errea8wzssggm950kgl3kje9n6leseneqfqszj9nv",
        "value": 2185
      },
      "scriptsig": "",
      "scriptsig_asm": "",
      "witness": [
        "b13e1de3e49c0bc3dca4e385e27b6968bd21da039b4b0a56fffb748769180b073f566cf92a799b3da1e4ebc42e5f66cd08b5b04473765c451596d316d708599a",
        "2076198e02e0402254ef1263a0fa5bb891bd1ada9f00ef1b7496c0608e75b7c14cac0063036f726401010a746578742f706c61696e003c7b2270223a22746170222c226f70223a22746f6b656e2d7472616e73666572222c227469636b223a224b41524d41222c22616d74223a22393330227d68",
        "c076198e02e0402254ef1263a0fa5bb891bd1ada9f00ef1b7496c0608e75b7c14c"
      ],
      "is_coinbase": false,
      "sequence": 4294967293
    }
  ],
  "vout": [
    {
      "scriptpubkey": "5120e7ed640c699d0dd5c6772e8e7af302328cf3afd26cbd4ede03d3f13577112062",
      "scriptpubkey_asm": "OP_PUSHNUM_1 OP_PUSHBYTES_32 e7ed640c699d0dd5c6772e8e7af302328cf3afd26cbd4ede03d3f13577112062",
      "scriptpubkey_type": "v1_p2tr",
      "scriptpubkey_address": "bc1pulkkgrrfn5xat3nh96884uczx2x08t7jdj75ahsr60cn2ac3yp3q3uqjfh",
      "value": 546
    }
  ],
  "size": 313,
  "weight": 595,
  "fee": 1639,
  "status": {
    "confirmed": true,
    "block_height": 834464,
    "block_hash": "0000000000000000000177a0869a911a2b65c9bdcd5a8bcb02b68f305bee848e",
    "block_time": 1710308296
  },
  "hex": "01000000000101abd18f4f4bd5de6461149994a7fd9e6df5d66e891fe002aaf32a8bb60f0dd3000000000000fdffffff012202000000000000225120e7ed640c699d0dd5c6772e8e7af302328cf3afd26cbd4ede03d3f135771120620340b13e1de3e49c0bc3dca4e385e27b6968bd21da039b4b0a56fffb748769180b073f566cf92a799b3da1e4ebc42e5f66cd08b5b04473765c451596d316d708599a742076198e02e0402254ef1263a0fa5bb891bd1ada9f00ef1b7496c0608e75b7c14cac0063036f726401010a746578742f706c61696e003c7b2270223a22746170222c226f70223a22746f6b656e2d7472616e73666572222c227469636b223a224b41524d41222c22616d74223a22393330227d6821c076198e02e0402254ef1263a0fa5bb891bd1ada9f00ef1b7496c0608e75b7c14c00000000"
}