{
  "txid": "41d16ede1eafaae5916e79f3798e2de244bed72a6387406d04bc01e3928aa253",
  "version": 2,
  "locktime": 0,
  "vin": [
    {
      "txid": "acc3ba00869acb582a3f2904ce3a11dd3779350ce234063fc7d0959246213364",
      "vout": 113,
      "prevout": {
        "scriptpubkey": "512026ca2fc45119769c2a03261855b3911c76769bd4ed22f871cf1eb0b0a9a7c0ab",
        "scriptpubkey_asm": "OP_PUSHNUM_1 OP_PUSHBYTES_32 26ca2fc45119769c2a03261855b3911c76769bd4ed22f871cf1eb0b0a9a7c0ab",
        "scriptpubkey_type": "v1_p2tr",
        "scriptpubkey_address": "bc1pym9zl3z3r9mfc2srycv9tvu3r3m8dx75a530suw0r6ctp2d8cz4s2yp80g",
        "value": 1806
      },
      "scriptsig": "",
      "scriptsig_asm": "",
      "witness": [
        "691ac32ca3b006a1ff5e6d45f811387d36e0eecd23029ceb58f4f384a9c6ee42f30751db3c811a086952c1193f6ef76155beff35adf9671443747b9bca64636a",
        "20c89893b1c5ddc8b20441c0844f0011c62298ed4e4dc7ad32c766f6fcb7f8e433ac0063036f726401010a746578742f706c61696e00357b2270223a226272632d3230222c226f70223a226d696e74222c227469636b223a22646f6765222c22616d74223a2234323030227d68",
        "c1c89893b1c5ddc8b20441c0844f0011c62298ed4e4dc7ad32c766f6fcb7f8e433"
      ],
      "is_coinbase": false,
      "sequence": 4261412863
    }
  ],
  "vout": [
    {
      "scriptpubkey": "00147a665de7a370f4c9b372ab1fae587500a5bcbdb4",
      "scriptpubkey_asm": "OP_0 OP_PUSHBYTES_20 7a665de7a370f4c9b372ab1fae587500a5bcbdb4",
      "scriptpubkey_type": "v0_p2wpkh",
      "scriptpubkey_address": "bc1q0fn9mearwr6vnvmj4v06ukr4qzjme0d565dzcx",
      "value": 294
    }
  ],
  "size": 294,
  "weight": 540,
  "fee": 1512,
  "status": {
    "confirmed": true,
    "block_height": 834460,
    "block_hash": "00000000000000000000484a79b643b2524bbce82e5d8a442013fa5b8905ed98",
    "block_time": 1710307468
  },
  "hex": "02000000000101643321469295d0c73f0634e20c357937dd113ace04293f2a58cb9a8600bac3ac7100000000fffffffd0126010000000000001600147a665de7a370f4c9b372ab1fae587500a5bcbdb40340691ac32ca3b006a1ff5e6d45f811387d36e0eecd23029ceb58f4f384a9c6ee42f30751db3c811a086952c1193f6ef76155beff35adf9671443747b9bca64636a6d20c89893b1c5ddc8b20441c0844f0011c62298ed4e4dc7ad32c766f6fcb7f8e433ac0063036f726401010a746578742f706c61696e00357b2270223a226272632d3230222c226f70223a226d696e74222c227469636b223a22646f6765222c22616d74223a2234323030227d6821c1c89893b1c5ddc8b20441c0844f0011c62298ed4e4dc7ad32c766f6fcb7f8e43300000000"
}