{
  "txid": "41d8be05f445b946193f9d11af9c51acd5964eb4b6cd1919017759af6e7ad297",
  "version": 2,
  "locktime": 0,
  "vin": [
    {
      "txid": "408d264faab757486f7a94bd230a25ee75081cb8bdf6c9a3542bc24ea6ec2c36",
      "vout": 1,
      "prevout": {
        "scriptpubkey": "00140e455df84ece22ad87720cb3de2a05e63f739d3c",
        "scriptpubkey_asm": "OP_0 OP_PUSHBYTES_20 0e455df84ece22ad87720cb3de2a05e63f739d3c",
        "scriptpubkey_type": "v0_p2wpkh",
        "scriptpubkey_address": "bc1qpez4m7zwec32mpmjpjeau2s9uclh88fuzchg6x",
        "value": 919668
      },
      "scriptsig": "",
      "scriptsig_asm": "",
      "witness": [
        "3045022100fdb51f569f9594e88223202910600f23f5557a239100dac0b802241ccd5ad744022021c703268ba06d00753b3f0feff81844895c66a3436bce5a715c04ef7cd3887501",
        "038c4d226947e1cc9a039bc338c7dc83c4a0fdb39fede0892d02a959fc31d00d3e"
      ],
      "is_coinbase": false,
      "sequence": 2147483649
    }
  ],
  "vout": [
    {
      "scriptpubkey": "a91428d4fd5c34fd67d7476914f6f6ddf8b7a59644a887",
      "scriptpubkey_asm": "OP_HASH160 OP_PUSHBYTES_20 28d4fd5c34fd67d7476914f6f6ddf8b7a59644a8 OP_EQUAL",
      "scriptpubkey_type": "p2sh",
      "scriptpubkey_address": "35Qv6zx5WisTPrUGoox5PSXLazQP4j2YDV",
      "value": 265000
    },
    {
      "scriptpubkey": "00140e455df84ece22ad87720cb3de2a05e63f739d3c",
      "scriptpubkey_asm": "OP_0 OP_PUSHBYTES_20 0e455df84ece22ad87720cb3de2a05e63f739d3c",
      "scriptpubkey_type": "v0_p2wpkh",
      "scriptpubkey_address": "bc1qpez4m7zwec32mpmjpjeau2s9uclh88fuzchg6x",
      "value": 652553
    }
  ],
  "size": 224,
  "weight": 566,
  "fee": 2115,
  "status": {
    "confirmed": true,
    "block_height": 834460,
    "block_hash": "00000000000000000000484a79b643b2524bbce82e5d8a442013fa5b8905ed98",
    "block_time": 1710307468
  },
  "hex": "02000000000101362ceca64ec22b54a3c9f6bdb81c0875ee250a23bd947a6f4857b7aa4f268d4001000000000100008002280b04000000000017a91428d4fd5c34fd67d7476914f6f6ddf8b7a59644a88709f50900000000001600140e455df84ece22ad87720cb3de2a05e63f739d3c02483045022100fdb51f569f9594e88223202910600f23f5557a239100dac0b802241ccd5ad744022021c703268ba06d00753b3f0feff81844895c66a3436bce5a715c04ef7cd388750121038c4d226947e1cc9a039bc338c7dc83c4a0fdb39fede0892d02a959fc31d00d3e00000000"
}