{
  "txid": "41db86a3df4dec84ba4b5bc81b3c71b36710366972ec95aae67136445ad23cd0",
  "version": 2,
  "locktime": 0,
  "vin": [
    {
      "txid": "972859e71c4402f193b4abe066a1283db63b5cb78f4abf70dd90ce783f708205",
      "vout": 0,
      "prevout": {
        "scriptpubkey": "51202c19383c024362c12362b026bff20a6af94e54d7801cd1dfe3237cdea843d620",
        "scriptpubkey_asm": "OP_PUSHNUM_1 OP_PUSHBYTES_32 2c19383c024362c12362b026bff20a6af94e54d7801cd1dfe3237cdea843d620",
        "scriptpubkey_type": "v1_p2tr",
        "scriptpubkey_address": "bc1p9svns0qzgd3vzgmzkqntlus2dtu5u4xhsqwdrhlryd7da2zr6csq4syxn9",
        "value": 2218
      },
      "scriptsig": "",
      "scriptsig_asm": "",
      "witness": [
        "0c5c55d338dd691452e5f7ffd746dabf691a7d48d12c7131856d5cb7db5b6b133f3470dd93eaf6bccc3edc3d402303046847413d8338b26ae766db53901a649e",
        "205fbc7730c036e2ed4693e98f7494478833f11f5c212a9911b7f8fc47561dcf15ac0063036f7264010118746578742f706c61696e3b636861727365743d7574662d38003b7b2270223a226272632d3230222c226f70223a227472616e73666572222c227469636b223a2274626369222c22616d74223a22323838383838227d68",
        "c15fbc7730c036e2ed4693e98f7494478833f11f5c212a9911b7f8fc47561dcf15"
      ],
      "is_coinbase": false,
      "sequence": 4294967293
    }
  ],
  "vout": [
    {
      "scriptpubkey": "51204dbd6621ac6f482e22a41f15215ab1b59719befe96e55d4722b3d9a2987b8866",
      "scriptpubkey_asm": "OP_PUSHNUM_1 OP_PUSHBYTES_32 4dbd6621ac6f482e22a41f15215ab1b59719befe96e55d4722b3d9a2987b8866",
      "scriptpubkey_type": "v1_p2tr",
      "scriptpubkey_address": "bc1pfk7kvgdvdayzug4yru2jzk43kkt3n0h7jmj463ezk0v69xrm3pnq9f3s03",
      "value": 546
    }
  ],
  "size": 326,
  "weight": 608,
  "fee": 1672,
  "status": {
    "confirmed": true,
    "block_height": 834464,
    "block_hash": "0000000000000000000177a0869a911a2b65c9bdcd5a8bcb02b68f305bee848e",
    "block_time": 1710308296
  },
  "hex": "020000000001010582703f78ce90dd70bf4a8fb75c3bb63d28a166e0abb493f102441ce75928970000000000fdffffff0122020000000000002251204dbd6621ac6f482e22a41f15215ab1b59719befe96e55d4722b3d9a2987b886603400c5c55d338dd691452e5f7ffd746dabf691a7d48d12c7131856d5cb7db5b6b133f3470dd93eaf6bccc3edc3d402303046847413d8338b26ae766db53901a649e81205fbc7730c036e2ed4693e98f7494478833f11f5c212a9911b7f8fc47561dcf15ac0063036f7264010118746578742f706c61696e3b636861727365743d7574662d38003b7b2270223a226272632d3230222c226f70223a227472616e73666572222c227469636b223a2274626369222c22616d74223a22323838383838227d6821c15fbc7730c036e2ed4693e98f7494478833f11f5c212a9911b7f8fc47561dcf1500000000"
}