{
  "txid": "41fcda1f907a7b6faccd818e3a68ebf2d35cc13e3fbcd824c6562d6d3e20de70",
  "version": 2,
  "locktime": 0,
  "vin": [
    {
      "txid": "0297933275e9b87a592b5fe50eac2574def18b5ac071aa88b863986e7db5e3d6",
      "vout": 7,
      "prevout": {
        "scriptpubkey": "5120b74edac58d4b3ff080821c49826081a81fef4a8cce9e47e20d1035d435b6a9aa",
        "scriptpubkey_asm": "OP_PUSHNUM_1 OP_PUSHBYTES_32 b74edac58d4b3ff080821c49826081a81fef4a8cce9e47e20d1035d435b6a9aa",
        "scriptpubkey_type": "v1_p2tr",
        "scriptpubkey_address": "bc1pka8d43vdfvllpqyzr3ycycyp4q077j5ve60y0csdzq6agddk4x4qc0zzra",
        "value": 3186
      },
      "scriptsig": "",
      "scriptsig_asm": "",
      "witness": [
        "017fc9bf3697171ded7798ccd3c647640cfe9cc87adc74503891601298edc4bdadf57e62bfa3e52759e6628ad3bc53caa383e03470473f9f29ff9f9bf437d65a",
        "204882d7957c115944fe0df6a9df41e9ad3e85351698dab3ec3b89b12486394fbbac0063036f726401011e6170706c69636174696f6e2f6a736f6e3b636861727365743d7574662d38004cbf7b2270223a22706f772d3230222c226f70223a226d696e74222c227469636b223a2250455045222c22616d74223a2231303030222c22736f6c7574696f6e223a22504550453a6263317171633839726a7563797a776c77786d7761646c7763797139353668726e726b6a6833637361723a303030303030303030303030303030303030303139393431613561653132383937363539383134343239323533333030353762306461393666336465613163353a3633353636313334373631227d68",
        "c0ebc23c5cb62efa16bafbb201dcb9689a89d3be5df33e83929d6fd8751a90bb42"
      ],
      "is_coinbase": false,
      "sequence": 4294967295
    }
  ],
  "vout": [
    {
      "scriptpubkey": "0014060e51cb98209df71b6eeb7eec1005a6ae398ed2",
      "scriptpubkey_asm": "OP_0 OP_PUSHBYTES_20 060e51cb98209df71b6eeb7eec1005a6ae398ed2",
      "scriptpubkey_type": "v0_p2wpkh",
      "scriptpubkey_address": "bc1qqc89rjucyzwlwxmwadlwcyq956hrnrkjh3csar",
      "value": 546
    }
  ],
  "size": 455,
  "weight": 701,
  "fee": 2640,
  "status": {
    "confirmed": true,
    "block_height": 834460,
    "block_hash": "00000000000000000000484a79b643b2524bbce82e5d8a442013fa5b8905ed98",
    "block_time": 1710307468
  },
  "hex": "02000000000101d6e3b57d6e9863b888aa71c05a8bf1de7425ac0ee55f2b597ab8e975329397020700000000ffffffff012202000000000000160014060e51cb98209df71b6eeb7eec1005a6ae398ed20340017fc9bf3697171ded7798ccd3c647640cfe9cc87adc74503891601298edc4bdadf57e62bfa3e52759e6628ad3bc53caa383e03470473f9f29ff9f9bf437d65afd0c01204882d7957c115944fe0df6a9df41e9ad3e85351698dab3ec3b89b12486394fbbac0063036f726401011e6170706c69636174696f6e2f6a736f6e3b636861727365743d7574662d38004cbf7b2270223a22706f772d3230222c226f70223a226d696e74222c227469636b223a2250455045222c22616d74223a2231303030222c22736f6c7574696f6e223a22504550453a6263317171633839726a7563797a776c77786d7761646c7763797139353668726e726b6a6833637361723a303030303030303030303030303030303030303139393431613561653132383937363539383134343239323533333030353762306461393666336465613163353a3633353636313334373631227d6821c0ebc23c5cb62efa16bafbb201dcb9689a89d3be5df33e83929d6fd8751a90bb4200000000"
}