{
  "txid": "42118bb7af6b7eb753bc2f7ca3374728247a5f628075e8dece2509022015b6f0",
  "version": 2,
  "locktime": 0,
  "vin": [
    {
      "txid": "12fe58804e9d061a699c82bf621db2a7ea6639dcfa94d259c4b01bfcf95b061a",
      "vout": 7,
      "prevout": {
        "scriptpubkey": "5120464c01144be86dbe42a51aa7d961f3626b6487fa1f59d15f307a548474087354",
        "scriptpubkey_asm": "OP_PUSHNUM_1 OP_PUSHBYTES_32 464c01144be86dbe42a51aa7d961f3626b6487fa1f59d15f307a548474087354",
        "scriptpubkey_type": "v1_p2tr",
        "scriptpubkey_address": "bc1pgexqz9ztapkmus49r2najc0nvf4kfpl6ravazhes0f2ggaqgwd2qck5auv",
        "value": 2471
      },
      "scriptsig": "",
      "scriptsig_asm": "",
      "witness": [
        "049e4290caa865c75bd6e2dcf3f0bf676a4ba9a4b19d34f784d1fcb16d002c22e184e84fa0d652629f09fa2a67d65fce269a3dd64ab228ee1a82fdc391faac7c",
        "20e344b31b5a0e88b5997acec469f2927d25ebcc8604fd7b3a10065c07602b2973ac0063036f7264010118746578742f706c61696e3b636861727365743d7574662d38004c947b2270223a2022746170222c20226f70223a2022646d742d6d696e74222c2022646570223a2022366134396139343839376531373435326133633236363131363036323132346331346137333566623335353737303866313533623139666364376238376538336930222c20227469636b223a2022f09f92b0f09f90b8f09f92b0222c2022626c6b223a2022313332333235227d68",
        "c0f3c76533aefc774b0707ddcd1b4941606fa49e3564f0a84ef66fd28168e942d9"
      ],
      "is_coinbase": false,
      "sequence": 4294967295
    }
  ],
  "vout": [
    {
      "scriptpubkey": "51206995824a071ac4f752d81f89304c314d5fe918d3c4d9b534d336bc01090fa188",
      "scriptpubkey_asm": "OP_PUSHNUM_1 OP_PUSHBYTES_32 6995824a071ac4f752d81f89304c314d5fe918d3c4d9b534d336bc01090fa188",
      "scriptpubkey_type": "v1_p2tr",
      "scriptpubkey_address": "bc1pdx2cyjs8rtz0w5kcr7ynqnp3f407jxxncnvm2dxnx67qzzg05xyqy837q4",
      "value": 546
    }
  ],
  "size": 416,
  "weight": 698,
  "fee": 1925,
  "status": {
    "confirmed": true,
    "block_height": 834464,
    "block_hash": "0000000000000000000177a0869a911a2b65c9bdcd5a8bcb02b68f305bee848e",
    "block_time": 1710308296
  },
  "hex": "020000000001011a065bf9fc1bb0c459d294fadc3966eaa7b21d62bf829c691a069d4e8058fe120700000000ffffffff0122020000000000002251206995824a071ac4f752d81f89304c314d5fe918d3c4d9b534d336bc01090fa1880340049e4290caa865c75bd6e2dcf3f0bf676a4ba9a4b19d34f784d1fcb16d002c22e184e84fa0d652629f09fa2a67d65fce269a3dd64ab228ee1a82fdc391faac7cdb20e344b31b5a0e88b5997acec469f2927d25ebcc8604fd7b3a10065c07602b2973ac0063036f7264010118746578742f706c61696e3b636861727365743d7574662d38004c947b2270223a2022746170222c20226f70223a2022646d742d6d696e74222c2022646570223a2022366134396139343839376531373435326133633236363131363036323132346331346137333566623335353737303866313533623139666364376238376538336930222c20227469636b223a2022f09f92b0f09f90b8f09f92b0222c2022626c6b223a2022313332333235227d6821c0f3c76533aefc774b0707ddcd1b4941606fa49e3564f0a84ef66fd28168e942d900000000"
}