{
  "txid": "42214a0aa79a58e0636f94c0d210d67a67eb9065a02619b17f4e610fab2ea99f",
  "version": 2,
  "locktime": 0,
  "vin": [
    {
      "txid": "2b04dca720c5f72999836cc47ae147bb163f9aaf548b0c7b501ce3bccee1894f",
      "vout": 0,
      "prevout": {
        "scriptpubkey": "5120f875c9f7d63f1fc2605be95ab82da598459ea540a75115c019b90108590e211c",
        "scriptpubkey_asm": "OP_PUSHNUM_1 OP_PUSHBYTES_32 f875c9f7d63f1fc2605be95ab82da598459ea540a75115c019b90108590e211c",
        "scriptpubkey_type": "v1_p2tr",
        "scriptpubkey_address": "bc1plp6una7k8u0uyczma9dtstd9npzeaf2q5ag3tsqehyqsskgwyywqngznl4",
        "value": 87471
      },
      "scriptsig": "",
      "scriptsig_asm": "",
      "witness": [
        "f0fcd4dfcfbbd2d3b089a0c9ea35b2c8d65317957fd56fdd8668197f03e4d258ece213d6db09b50b17f40986f7db7f19cc79ec9d8ad170459e807a56441903a2",
        "207ca3e41fc8eb8d66fa1294d10eb40ad09d9ac014db09ba16fb089fe5c8e75a32ac0063036f726401010a746578742f706c61696e00367b2270223a226272632d3230222c227469636b223a2261616161222c226f70223a226d696e74222c22616d74223a223130303030227d68",
        "c07ca3e41fc8eb8d66fa1294d10eb40ad09d9ac014db09ba16fb089fe5c8e75a32"
      ],
      "is_coinbase": false,
      "sequence": 4294967293
    }
  ],
  "vout": [
    {
      "scriptpubkey": "51206a2a98e77e4f6cca637938f92f5dfbb2c5f8ba38ac8abf6868a3958c24b49693",
      "scriptpubkey_asm": "OP_PUSHNUM_1 OP_PUSHBYTES_32 6a2a98e77e4f6cca637938f92f5dfbb2c5f8ba38ac8abf6868a3958c24b49693",
      "scriptpubkey_type": "v1_p2tr",
      "scriptpubkey_address": "bc1pdg4f3em7fakv5cme8ruj7h0mktzl3w3c4j9t76rg5w2ccf95j6fsqxe47f",
      "value": 546
    },
    {
      "scriptpubkey": "5120f875c9f7d63f1fc2605be95ab82da598459ea540a75115c019b90108590e211c",
      "scriptpubkey_asm": "OP_PUSHNUM_1 OP_PUSHBYTES_32 f875c9f7d63f1fc2605be95ab82da598459ea540a75115c019b90108590e211c",
      "scriptpubkey_type": "v1_p2tr",
      "scriptpubkey_address": "bc1plp6una7k8u0uyczma9dtstd9npzeaf2q5ag3tsqehyqsskgwyywqngznl4",
      "value": 2608
    },
    {
      "scriptpubkey": "5120f875c9f7d63f1fc2605be95ab82da598459ea540a75115c019b90108590e211c",
      "scriptpubkey_asm": "OP_PUSHNUM_1 OP_PUSHBYTES_32 f875c9f7d63f1fc2605be95ab82da598459ea540a75115c019b90108590e211c",
      "scriptpubkey_type": "v1_p2tr",
      "scriptpubkey_address": "bc1plp6una7k8u0uyczma9dtstd9npzeaf2q5ag3tsqehyqsskgwyywqngznl4",
      "value": 2608
    },
    {
      "scriptpubkey": "5120f875c9f7d63f1fc2605be95ab82da598459ea540a75115c019b90108590e211c",
      "scriptpubkey_asm": "OP_PUSHNUM_1 OP_PUSHBYTES_32 f875c9f7d63f1fc2605be95ab82da598459ea540a75115c019b90108590e211c",
      "scriptpubkey_type": "v1_p2tr",
      "scriptpubkey_address": "bc1plp6una7k8u0uyczma9dtstd9npzeaf2q5ag3tsqehyqsskgwyywqngznl4",
      "value": 2608
    },
    {
      "scriptpubkey": "5120f875c9f7d63f1fc2605be95ab82da598459ea540a75115c019b90108590e211c",
      "scriptpubkey_asm": "OP_PUSHNUM_1 OP_PUSHBYTES_32 f875c9f7d63f1fc2605be95ab82da598459ea540a75115c019b90108590e211c",
      "scriptpubkey_type": "v1_p2tr",
      "scriptpubkey_address": "bc1plp6una7k8u0uyczma9dtstd9npzeaf2q5ag3tsqehyqsskgwyywqngznl4",
      "value": 2608
    },
    {
      "scriptpubkey": "5120f875c9f7d63f1fc2605be95ab82da598459ea540a75115c019b90108590e211c",
      "scriptpubkey_asm": "OP_PUSHNUM_1 OP_PUSHBYTES_32 f875c9f7d63f1fc2605be95ab82da598459ea540a75115c019b90108590e211c",
      "scriptpubkey_type": "v1_p2tr",
      "scriptpubkey_address": "bc1plp6una7k8u0uyczma9dtstd9npzeaf2q5ag3tsqehyqsskgwyywqngznl4",
      "value": 2608
    },
    {
      "scriptpubkey": "5120f875c9f7d63f1fc2605be95ab82da598459ea540a75115c019b90108590e211c",
      "scriptpubkey_asm": "OP_PUSHNUM_1 OP_PUSHBYTES_32 f875c9f7d63f1fc2605be95ab82da598459ea540a75115c019b90108590e211c",
      "scriptpubkey_type": "v1_p2tr",
      "scriptpubkey_address": "bc1plp6una7k8u0uyczma9dtstd9npzeaf2q5ag3tsqehyqsskgwyywqngznl4",
      "value": 2608
    },
    {
      "scriptpubkey": "5120f875c9f7d63f1fc2605be95ab82da598459ea540a75115c019b90108590e211c",
      "scriptpubkey_asm": "OP_PUSHNUM_1 OP_PUSHBYTES_32 f875c9f7d63f1fc2605be95ab82da598459ea540a75115c019b90108590e211c",
      "scriptpubkey_type": "v1_p2tr",
      "scriptpubkey_address": "bc1plp6una7k8u0uyczma9dtstd9npzeaf2q5ag3tsqehyqsskgwyywqngznl4",
      "value": 2608
    },
    {
      "scriptpubkey": "5120f875c9f7d63f1fc2605be95ab82da598459ea540a75115c019b90108590e211c",
      "scriptpubkey_asm": "OP_PUSHNUM_1 OP_PUSHBYTES_32 f875c9f7d63f1fc2605be95ab82da598459ea540a75115c019b90108590e211c",
      "scriptpubkey_type": "v1_p2tr",
      "scriptpubkey_address": "bc1plp6una7k8u0uyczma9dtstd9npzeaf2q5ag3tsqehyqsskgwyywqngznl4",
      "value": 2608
    },
    {
      "scriptpubkey": "5120f875c9f7d63f1fc2605be95ab82da598459ea540a75115c019b90108590e211c",
      "scriptpubkey_asm": "OP_PUSHNUM_1 OP_PUSHBYTES_32 f875c9f7d63f1fc2605be95ab82da598459ea540a75115c019b90108590e211c",
      "scriptpubkey_type": "v1_p2tr",
      "scriptpubkey_address": "bc1plp6una7k8u0uyczma9dtstd9npzeaf2q5ag3tsqehyqsskgwyywqngznl4",
      "value": 2608
    },
    {
      "scriptpubkey": "5120f875c9f7d63f1fc2605be95ab82da598459ea540a75115c019b90108590e211c",
      "scriptpubkey_asm": "OP_PUSHNUM_1 OP_PUSHBYTES_32 f875c9f7d63f1fc2605be95ab82da598459ea540a75115c019b90108590e211c",
      "scriptpubkey_type": "v1_p2tr",
      "scriptpubkey_address": "bc1plp6una7k8u0uyczma9dtstd9npzeaf2q5ag3tsqehyqsskgwyywqngznl4",
      "value": 2608
    },
    {
      "scriptpubkey": "5120f875c9f7d63f1fc2605be95ab82da598459ea540a75115c019b90108590e211c",
      "scriptpubkey_asm": "OP_PUSHNUM_1 OP_PUSHBYTES_32 f875c9f7d63f1fc2605be95ab82da598459ea540a75115c019b90108590e211c",
      "scriptpubkey_type": "v1_p2tr",
      "scriptpubkey_address": "bc1plp6una7k8u0uyczma9dtstd9npzeaf2q5ag3tsqehyqsskgwyywqngznl4",
      "value": 2608
    },
    {
      "scriptpubkey": "5120f875c9f7d63f1fc2605be95ab82da598459ea540a75115c019b90108590e211c",
      "scriptpubkey_asm": "OP_PUSHNUM_1 OP_PUSHBYTES_32 f875c9f7d63f1fc2605be95ab82da598459ea540a75115c019b90108590e211c",
      "scriptpubkey_type": "v1_p2tr",
      "scriptpubkey_address": "bc1plp6una7k8u0uyczma9dtstd9npzeaf2q5ag3tsqehyqsskgwyywqngznl4",
      "value": 2608
    },
    {
      "scriptpubkey": "5120f875c9f7d63f1fc2605be95ab82da598459ea540a75115c019b90108590e211c",
      "scriptpubkey_asm": "OP_PUSHNUM_1 OP_PUSHBYTES_32 f875c9f7d63f1fc2605be95ab82da598459ea540a75115c019b90108590e211c",
      "scriptpubkey_type": "v1_p2tr",
      "scriptpubkey_address": "bc1plp6una7k8u0uyczma9dtstd9npzeaf2q5ag3tsqehyqsskgwyywqngznl4",
      "value": 2608
    },
    {
      "scriptpubkey": "5120f875c9f7d63f1fc2605be95ab82da598459ea540a75115c019b90108590e211c",
      "scriptpubkey_asm": "OP_PUSHNUM_1 OP_PUSHBYTES_32 f875c9f7d63f1fc2605be95ab82da598459ea540a75115c019b90108590e211c",
      "scriptpubkey_type": "v1_p2tr",
      "scriptpubkey_address": "bc1plp6una7k8u0uyczma9dtstd9npzeaf2q5ag3tsqehyqsskgwyywqngznl4",
      "value": 2608
    },
    {
      "scriptpubkey": "5120f875c9f7d63f1fc2605be95ab82da598459ea540a75115c019b90108590e211c",
      "scriptpubkey_asm": "OP_PUSHNUM_1 OP_PUSHBYTES_32 f875c9f7d63f1fc2605be95ab82da598459ea540a75115c019b90108590e211c",
      "scriptpubkey_type": "v1_p2tr",
      "scriptpubkey_address": "bc1plp6una7k8u0uyczma9dtstd9npzeaf2q5ag3tsqehyqsskgwyywqngznl4",
      "value": 2608
    },
    {
      "scriptpubkey": "5120f875c9f7d63f1fc2605be95ab82da598459ea540a75115c019b90108590e211c",
      "scriptpubkey_asm": "OP_PUSHNUM_1 OP_PUSHBYTES_32 f875c9f7d63f1fc2605be95ab82da598459ea540a75115c019b90108590e211c",
      "scriptpubkey_type": "v1_p2tr",
      "scriptpubkey_address": "bc1plp6una7k8u0uyczma9dtstd9npzeaf2q5ag3tsqehyqsskgwyywqngznl4",
      "value": 2608
    },
    {
      "scriptpubkey": "5120f875c9f7d63f1fc2605be95ab82da598459ea540a75115c019b90108590e211c",
      "scriptpubkey_asm": "OP_PUSHNUM_1 OP_PUSHBYTES_32 f875c9f7d63f1fc2605be95ab82da598459ea540a75115c019b90108590e211c",
      "scriptpubkey_type": "v1_p2tr",
      "scriptpubkey_address": "bc1plp6una7k8u0uyczma9dtstd9npzeaf2q5ag3tsqehyqsskgwyywqngznl4",
      "value": 2608
    },
    {
      "scriptpubkey": "5120f875c9f7d63f1fc2605be95ab82da598459ea540a75115c019b90108590e211c",
      "scriptpubkey_asm": "OP_PUSHNUM_1 OP_PUSHBYTES_32 f875c9f7d63f1fc2605be95ab82da598459ea540a75115c019b90108590e211c",
      "scriptpubkey_type": "v1_p2tr",
      "scriptpubkey_address": "bc1plp6una7k8u0uyczma9dtstd9npzeaf2q5ag3tsqehyqsskgwyywqngznl4",
      "value": 2608
    },
    {
      "scriptpubkey": "5120f875c9f7d63f1fc2605be95ab82da598459ea540a75115c019b90108590e211c",
      "scriptpubkey_asm": "OP_PUSHNUM_1 OP_PUSHBYTES_32 f875c9f7d63f1fc2605be95ab82da598459ea540a75115c019b90108590e211c",
      "scriptpubkey_type": "v1_p2tr",
      "scriptpubkey_address": "bc1plp6una7k8u0uyczma9dtstd9npzeaf2q5ag3tsqehyqsskgwyywqngznl4",
      "value": 2608
    },
    {
      "scriptpubkey": "5120f875c9f7d63f1fc2605be95ab82da598459ea540a75115c019b90108590e211c",
      "scriptpubkey_asm": "OP_PUSHNUM_1 OP_PUSHBYTES_32 f875c9f7d63f1fc2605be95ab82da598459ea540a75115c019b90108590e211c",
      "scriptpubkey_type": "v1_p2tr",
      "scriptpubkey_address": "bc1plp6una7k8u0uyczma9dtstd9npzeaf2q5ag3tsqehyqsskgwyywqngznl4",
      "value": 2608
    },
    {
      "scriptpubkey": "5120f875c9f7d63f1fc2605be95ab82da598459ea540a75115c019b90108590e211c",
      "scriptpubkey_asm": "OP_PUSHNUM_1 OP_PUSHBYTES_32 f875c9f7d63f1fc2605be95ab82da598459ea540a75115c019b90108590e211c",
      "scriptpubkey_type": "v1_p2tr",
      "scriptpubkey_address": "bc1plp6una7k8u0uyczma9dtstd9npzeaf2q5ag3tsqehyqsskgwyywqngznl4",
      "value": 2608
    },
    {
      "scriptpubkey": "5120f875c9f7d63f1fc2605be95ab82da598459ea540a75115c019b90108590e211c",
      "scriptpubkey_asm": "OP_PUSHNUM_1 OP_PUSHBYTES_32 f875c9f7d63f1fc2605be95ab82da598459ea540a75115c019b90108590e211c",
      "scriptpubkey_type": "v1_p2tr",
      "scriptpubkey_address": "bc1plp6una7k8u0uyczma9dtstd9npzeaf2q5ag3tsqehyqsskgwyywqngznl4",
      "value": 2608
    },
    {
      "scriptpubkey": "5120f875c9f7d63f1fc2605be95ab82da598459ea540a75115c019b90108590e211c",
      "scriptpubkey_asm": "OP_PUSHNUM_1 OP_PUSHBYTES_32 f875c9f7d63f1fc2605be95ab82da598459ea540a75115c019b90108590e211c",
      "scriptpubkey_type": "v1_p2tr",
      "scriptpubkey_address": "bc1plp6una7k8u0uyczma9dtstd9npzeaf2q5ag3tsqehyqsskgwyywqngznl4",
      "value": 2608
    },
    {
      "scriptpubkey": "5120f875c9f7d63f1fc2605be95ab82da598459ea540a75115c019b90108590e211c",
      "scriptpubkey_asm": "OP_PUSHNUM_1 OP_PUSHBYTES_32 f875c9f7d63f1fc2605be95ab82da598459ea540a75115c019b90108590e211c",
      "scriptpubkey_type": "v1_p2tr",
      "scriptpubkey_address": "bc1plp6una7k8u0uyczma9dtstd9npzeaf2q5ag3tsqehyqsskgwyywqngznl4",
      "value": 2608
    },
    {
      "scriptpubkey": "0014862e9c37baad895d8cef4df215ca8fe9b36b93b8",
      "scriptpubkey_asm": "OP_0 OP_PUSHBYTES_20 862e9c37baad895d8cef4df215ca8fe9b36b93b8",
      "scriptpubkey_type": "v0_p2wpkh",
      "scriptpubkey_address": "bc1qschfcda64ky4mr80fheptj50axekhyacak9kqn",
      "value": 7379
    }
  ],
  "size": 1370,
  "weight": 4841,
  "fee": 16954,
  "status": {
    "confirmed": true,
    "block_height": 834460,
    "block_hash": "00000000000000000000484a79b643b2524bbce82e5d8a442013fa5b8905ed98",
    "block_time": 1710307468
  },
  "hex": "020000000001014f89e1cebce31c507b0c8b54af9a3f16bb47e17ac46c839929f7c520a7dc042b0000000000fdffffff1a22020000000000002251206a2a98e77e4f6cca637938f92f5dfbb2c5f8ba38ac8abf6868a3958c24b49693300a000000000000225120f875c9f7d63f1fc2605be95ab82da598459ea540a75115c019b90108590e211c300a000000000000225120f875c9f7d63f1fc2605be95ab82da598459ea540a75115c019b90108590e211c300a000000000000225120f875c9f7d63f1fc2605be95ab82da598459ea540a75115c019b90108590e211c300a000000000000225120f875c9f7d63f1fc2605be95ab82da598459ea540a75115c019b90108590e211c300a000000000000225120f875c9f7d63f1fc2605be95ab82da598459ea540a75115c019b90108590e211c300a000000000000225120f875c9f7d63f1fc2605be95ab82da598459ea540a75115c019b90108590e211c300a000000000000225120f875c9f7d63f1fc2605be95ab82da598459ea540a75115c019b90108590e211c300a000000000000225120f875c9f7d63f1fc2605be95ab82da598459ea540a75115c019b90108590e211c300a000000000000225120f875c9f7d63f1fc2605be95ab82da598459ea540a75115c019b90108590e211c300a000000000000225120f875c9f7d63f1fc2605be95ab82da598459ea540a75115c019b90108590e211c300a000000000000225120f875c9f7d63f1fc2605be95ab82da598459ea540a75115c019b90108590e211c300a000000000000225120f875c9f7d63f1fc2605be95ab82da598459ea540a75115c019b90108590e211c300a000000000000225120f875c9f7d63f1fc2605be95ab82da598459ea540a75115c019b90108590e211c300a000000000000225120f875c9f7d63f1fc2605be95ab82da598459ea540a75115c019b90108590e211c300a000000000000225120f875c9f7d63f1fc2605be95ab82da598459ea540a75115c019b90108590e211c300a000000000000225120f875c9f7d63f1fc2605be95ab82da598459ea540a75115c019b90108590e211c300a000000000000225120f875c9f7d63f1fc2605be95ab82da598459ea540a75115c019b90108590e211c300a000000000000225120f875c9f7d63f1fc2605be95ab82da598459ea540a75115c019b90108590e211c300a000000000000225120f875c9f7d63f1fc2605be95ab82da598459ea540a75115c019b90108590e211c300a000000000000225120f875c9f7d63f1fc2605be95ab82da598459ea540a75115c019b90108590e211c300a000000000000225120f875c9f7d63f1fc2605be95ab82da598459ea540a75115c019b90108590e211c300a000000000000225120f875c9f7d63f1fc2605be95ab82da598459ea540a75115c019b90108590e211c300a000000000000225120f875c9f7d63f1fc2605be95ab82da598459ea540a75115c019b90108590e211c300a000000000000225120f875c9f7d63f1fc2605be95ab82da598459ea540a75115c019b90108590e211cd31c000000000000160014862e9c37baad895d8cef4df215ca8fe9b36b93b80340f0fcd4dfcfbbd2d3b089a0c9ea35b2c8d65317957fd56fdd8668197f03e4d258ece213d6db09b50b17f40986f7db7f19cc79ec9d8ad170459e807a56441903a26e207ca3e41fc8eb8d66fa1294d10eb40ad09d9ac014db09ba16fb089fe5c8e75a32ac0063036f726401010a746578742f706c61696e00367b2270223a226272632d3230222c227469636b223a2261616161222c226f70223a226d696e74222c22616d74223a223130303030227d6821c07ca3e41fc8eb8d66fa1294d10eb40ad09d9ac014db09ba16fb089fe5c8e75a3200000000"
}