{
  "txid": "4222afc57e02b67576c5fa6e010f64760614f9c6a8ab280e2a2ce51611cbdcb0",
  "version": 1,
  "locktime": 0,
  "vin": [
    {
      "txid": "c1104efd7740f0ad670f79a367a6b450c9cf357c656fa6b979c081acaee1ecd1",
      "vout": 1,
      "prevout": {
        "scriptpubkey": "00147a5a7ff2fd470a55076ce29da7213029764ac1c7",
        "scriptpubkey_asm": "OP_0 OP_PUSHBYTES_20 7a5a7ff2fd470a55076ce29da7213029764ac1c7",
        "scriptpubkey_type": "v0_p2wpkh",
        "scriptpubkey_address": "bc1q0fd8luhagu992pmvu2w6wgfs99my4sw8kcjqrn",
        "value": 4388
      },
      "scriptsig": "",
      "scriptsig_asm": "",
      "witness": [
        "30450221008c2b71639470b775511a648a352fe8ddeb9575490d95ad9b6ac8a0248562d6ee02201d703e4c7d8ac8b9ff9c4cae2c83fbbbb0421ed4add674ba5aa80f5cf5d4f71e01",
        "037e51b421442e4e16b9c5e10184709388394cd2cffa653dc8f876f992162f328a"
      ],
      "is_coinbase": false,
      "sequence": 0
    },
    {
      "txid": "ae093b15bab0f0e23ca19beb006dee7fffd36b795a7bb3d1d45d997a10fe0ab8",
      "vout": 1,
      "prevout": {
        "scriptpubkey": "00147a5a7ff2fd470a55076ce29da7213029764ac1c7",
        "scriptpubkey_asm": "OP_0 OP_PUSHBYTES_20 7a5a7ff2fd470a55076ce29da7213029764ac1c7",
        "scriptpubkey_type": "v0_p2wpkh",
        "scriptpubkey_address": "bc1q0fd8luhagu992pmvu2w6wgfs99my4sw8kcjqrn",
        "value": 8482
      },
      "scriptsig": "",
      "scriptsig_asm": "",
      "witness": [
        "3045022100e35c741527e05db098fa13b8b6e9ad7c38c1c422cb1a0af51181bc7c96fcd9c402200aa6d00322f9c54306312473dcbf3e7e7cb2f2484a8dbf49b8ffef426300f92001",
        "037e51b421442e4e16b9c5e10184709388394cd2cffa653dc8f876f992162f328a"
      ],
      "is_coinbase": false,
      "sequence": 0
    },
    {
      "txid": "07d5520d1caee5c908305da0ec2056facd3e8aba9aada4d6c667816713e5112f",
      "vout": 105,
      "prevout": {
        "scriptpubkey": "00147a5a7ff2fd470a55076ce29da7213029764ac1c7",
        "scriptpubkey_asm": "OP_0 OP_PUSHBYTES_20 7a5a7ff2fd470a55076ce29da7213029764ac1c7",
        "scriptpubkey_type": "v0_p2wpkh",
        "scriptpubkey_address": "bc1q0fd8luhagu992pmvu2w6wgfs99my4sw8kcjqrn",
        "value": 68537
      },
      "scriptsig": "",
      "scriptsig_asm": "",
      "witness": [
        "3045022100cf1f327d085ffbe8ca5eb81f371dc5319162cf532b8e3dfa0440be2ebfb1978002205cd04f68ac9a6b54bb271a9b033264b54c16072bcc11a6f01c3d46d11eafcc2601",
        "037e51b421442e4e16b9c5e10184709388394cd2cffa653dc8f876f992162f328a"
      ],
      "is_coinbase": false,
      "sequence": 0
    }
  ],
  "vout": [
    {
      "scriptpubkey": "00140047322589e175dd28de2e33f0fc900a43b8ed1e",
      "scriptpubkey_asm": "OP_0 OP_PUSHBYTES_20 0047322589e175dd28de2e33f0fc900a43b8ed1e",
      "scriptpubkey_type": "v0_p2wpkh",
      "scriptpubkey_address": "bc1qqprnyfvfu96a62x79celplyspfpm3mg7cczkda",
      "value": 68380
    },
    {
      "scriptpubkey": "00147a5a7ff2fd470a55076ce29da7213029764ac1c7",
      "scriptpubkey_asm": "OP_0 OP_PUSHBYTES_20 7a5a7ff2fd470a55076ce29da7213029764ac1c7",
      "scriptpubkey_type": "v0_p2wpkh",
      "scriptpubkey_address": "bc1q0fd8luhagu992pmvu2w6wgfs99my4sw8kcjqrn",
      "value": 5548
    }
  ],
  "size": 521,
  "weight": 1106,
  "fee": 7479,
  "status": {
    "confirmed": true,
    "block_height": 834552,
    "block_hash": "00000000000000000001dd0468a70c94f619251d286585cff57aeb4bd9ede330",
    "block_time": 1710355598
  },
  "hex": "01000000000103d1ece1aeac81c079b9a66f657c35cfc950b4a667a3790f67adf04077fd4e10c1010000000000000000b80afe107a995dd4d1b37b5a796bd3ff7fee6d00eb9ba13ce2f0b0ba153b09ae0100000000000000002f11e513678167c6d6a4ad9aba8a3ecdfa5620eca05d3008c9e5ae1c0d52d507690000000000000000021c0b0100000000001600140047322589e175dd28de2e33f0fc900a43b8ed1eac150000000000001600147a5a7ff2fd470a55076ce29da7213029764ac1c7024830450221008c2b71639470b775511a648a352fe8ddeb9575490d95ad9b6ac8a0248562d6ee02201d703e4c7d8ac8b9ff9c4cae2c83fbbbb0421ed4add674ba5aa80f5cf5d4f71e0121037e51b421442e4e16b9c5e10184709388394cd2cffa653dc8f876f992162f328a02483045022100e35c741527e05db098fa13b8b6e9ad7c38c1c422cb1a0af51181bc7c96fcd9c402200aa6d00322f9c54306312473dcbf3e7e7cb2f2484a8dbf49b8ffef426300f9200121037e51b421442e4e16b9c5e10184709388394cd2cffa653dc8f876f992162f328a02483045022100cf1f327d085ffbe8ca5eb81f371dc5319162cf532b8e3dfa0440be2ebfb1978002205cd04f68ac9a6b54bb271a9b033264b54c16072bcc11a6f01c3d46d11eafcc260121037e51b421442e4e16b9c5e10184709388394cd2cffa653dc8f876f992162f328a00000000"
}