{
  "txid": "422d2ad4bfecc31958abf7bc443f67d4d9cea0cc98a2caa9e1a008011ac8d0ad",
  "version": 2,
  "locktime": 834550,
  "vin": [
    {
      "txid": "36e26e9e92301d8a53cb0bd94a3bf2b57cef5864bea878accdae271a692037b9",
      "vout": 0,
      "prevout": {
        "scriptpubkey": "0014e6cfd684a3ab58d4102c75e4b2453aa3cca5b267",
        "scriptpubkey_asm": "OP_0 OP_PUSHBYTES_20 e6cfd684a3ab58d4102c75e4b2453aa3cca5b267",
        "scriptpubkey_type": "v0_p2wpkh",
        "scriptpubkey_address": "bc1qum8adp9r4dvdgypvwhjty3f650x2tvn83pg3rj",
        "value": 7866721
      },
      "scriptsig": "",
      "scriptsig_asm": "",
      "witness": [
        "304402207ade5633843bcd6420b9e941455cfb325cfd22e8eb0d33fb3dc8b03fa5e90d24022055d0240dc98a155c041be34ab57cec5d5d31f58971e5225e31c2e9daf123a33401",
        "03b118421d5ff5a80b5142799243ae1d8ec645a3ad961d6b0552a175ce3edf9245"
      ],
      "is_coinbase": false,
      "sequence": 4294967293
    }
  ],
  "vout": [
    {
      "scriptpubkey": "76a9148eaac69cf03217bdd422c4fc3c6ae1a3cc586ec488ac",
      "scriptpubkey_asm": "OP_DUP OP_HASH160 OP_PUSHBYTES_20 8eaac69cf03217bdd422c4fc3c6ae1a3cc586ec4 OP_EQUALVERIFY OP_CHECKSIG",
      "scriptpubkey_type": "p2pkh",
      "scriptpubkey_address": "1E1MXxG5tqYhreDBSctR1e6ZidYucLySY1",
      "value": 6397752
    },
    {
      "scriptpubkey": "76a9142d5b43b1469783abaa0fbdb15ff4e904443617eb88ac",
      "scriptpubkey_asm": "OP_DUP OP_HASH160 OP_PUSHBYTES_20 2d5b43b1469783abaa0fbdb15ff4e904443617eb OP_EQUALVERIFY OP_CHECKSIG",
      "scriptpubkey_type": "p2pkh",
      "scriptpubkey_address": "158pjo9jd3tYgLxQmtvttdedBpE5mSkycR",
      "value": 1465000
    }
  ],
  "size": 228,
  "weight": 585,
  "fee": 3969,
  "status": {
    "confirmed": true,
    "block_height": 834552,
    "block_hash": "00000000000000000001dd0468a70c94f619251d286585cff57aeb4bd9ede330",
    "block_time": 1710355598
  },
  "hex": "02000000000101b93720691a27aecdac78a8be6458ef7cb5f23b4ad90bcb538a1d30929e6ee2360000000000fdffffff02389f6100000000001976a9148eaac69cf03217bdd422c4fc3c6ae1a3cc586ec488aca85a1600000000001976a9142d5b43b1469783abaa0fbdb15ff4e904443617eb88ac0247304402207ade5633843bcd6420b9e941455cfb325cfd22e8eb0d33fb3dc8b03fa5e90d24022055d0240dc98a155c041be34ab57cec5d5d31f58971e5225e31c2e9daf123a334012103b118421d5ff5a80b5142799243ae1d8ec645a3ad961d6b0552a175ce3edf9245f6bb0c00"
}