{
  "txid": "422d2381214bacf030261fde77f51d0b5b747ceb8d55794e7a2d438521449c22",
  "version": 2,
  "locktime": 0,
  "vin": [
    {
      "txid": "07efbe692eec1d7757e5300a603e6544dfbf660f2d3a5843c62d60f4d8b94b93",
      "vout": 1,
      "prevout": {
        "scriptpubkey": "5120194fdf17f96cd3acb981a4ce8d1990a6e6e40771ffaac02eb8970ff4afeeb8d4",
        "scriptpubkey_asm": "OP_PUSHNUM_1 OP_PUSHBYTES_32 194fdf17f96cd3acb981a4ce8d1990a6e6e40771ffaac02eb8970ff4afeeb8d4",
        "scriptpubkey_type": "v1_p2tr",
        "scriptpubkey_address": "bc1pr98a79lednf6ewvp5n8g6xvs5mnwgpm3l74vqt4cju8lftlwhr2q3ze3gq",
        "value": 98246
      },
      "scriptsig": "",
      "scriptsig_asm": "",
      "witness": [
        "e616fa891fa3944c9dfc3de0384d42d2a8c4ef6f9d1fec0b07e1c581d3b09e4af994faf6fda01dab9a75d801185e4d7a9cc8834fd556937622ca20f0a35340e1"
      ],
      "is_coinbase": false,
      "sequence": 4294967293
    }
  ],
  "vout": [
    {
      "scriptpubkey": "51207c263d078f71e0be06c520f7f23f7eacaf34f60bc604e59cea6ccc0c991b516d",
      "scriptpubkey_asm": "OP_PUSHNUM_1 OP_PUSHBYTES_32 7c263d078f71e0be06c520f7f23f7eacaf34f60bc604e59cea6ccc0c991b516d",
      "scriptpubkey_type": "v1_p2tr",
      "scriptpubkey_address": "bc1p0snr6pu0w8stupk9yrmly0m74jhnfastcczwt882dnxqexgm29ks43dvgh",
      "value": 2811
    },
    {
      "scriptpubkey": "5120194fdf17f96cd3acb981a4ce8d1990a6e6e40771ffaac02eb8970ff4afeeb8d4",
      "scriptpubkey_asm": "OP_PUSHNUM_1 OP_PUSHBYTES_32 194fdf17f96cd3acb981a4ce8d1990a6e6e40771ffaac02eb8970ff4afeeb8d4",
      "scriptpubkey_type": "v1_p2tr",
      "scriptpubkey_address": "bc1pr98a79lednf6ewvp5n8g6xvs5mnwgpm3l74vqt4cju8lftlwhr2q3ze3gq",
      "value": 93125
    }
  ],
  "size": 205,
  "weight": 616,
  "fee": 2310,
  "status": {
    "confirmed": true,
    "block_height": 834460,
    "block_hash": "00000000000000000000484a79b643b2524bbce82e5d8a442013fa5b8905ed98",
    "block_time": 1710307468
  },
  "hex": "02000000000101934bb9d8f4602dc643583a2d0f66bfdf44653e600a30e557771dec2e69beef070100000000fdffffff02fb0a0000000000002251207c263d078f71e0be06c520f7f23f7eacaf34f60bc604e59cea6ccc0c991b516dc56b010000000000225120194fdf17f96cd3acb981a4ce8d1990a6e6e40771ffaac02eb8970ff4afeeb8d40140e616fa891fa3944c9dfc3de0384d42d2a8c4ef6f9d1fec0b07e1c581d3b09e4af994faf6fda01dab9a75d801185e4d7a9cc8834fd556937622ca20f0a35340e100000000"
}