{
  "txid": "42378d052e5465e9468e7262f629348643189e6e3ae2608244b97ffee824985c",
  "version": 2,
  "locktime": 0,
  "vin": [
    {
      "txid": "38a998d551b5112ffa8aa9698709593817db98fc5f75ed89f29047f91b68a5ec",
      "vout": 43,
      "prevout": {
        "scriptpubkey": "a914fde8a8228df9afc3390901821dfb22338ea328e087",
        "scriptpubkey_asm": "OP_HASH160 OP_PUSHBYTES_20 fde8a8228df9afc3390901821dfb22338ea328e0 OP_EQUAL",
        "scriptpubkey_type": "p2sh",
        "scriptpubkey_address": "3QqZbMSBe3MYk4bxGfopWNaJMkeyQREwaJ",
        "value": 14816
      },
      "scriptsig": "16001495a3d4ef96ba3de79ba8c60c451e024a944bc623",
      "scriptsig_asm": "OP_PUSHBYTES_22 001495a3d4ef96ba3de79ba8c60c451e024a944bc623",
      "witness": [
        "304402203d122e2672e57c7250a2b163bab780fabcdbafeb2862ae71243f7d559aecdcb0022007aae6f5ddb0f6cdb3b4a5557378229466f35e14e79a4bd9e6710e8f8655397a01",
        "02252792614cd0d8397cf02529f240fa3c6a2af28303824c4ba99b076c689e80fa"
      ],
      "is_coinbase": false,
      "sequence": 0,
      "inner_redeemscript_asm": "OP_0 OP_PUSHBYTES_20 95a3d4ef96ba3de79ba8c60c451e024a944bc623"
    },
    {
      "txid": "483f656051cb8b0c513b2f98cceb49e3655a70c4d37e13b891f6722fb470dd64",
      "vout": 18,
      "prevout": {
        "scriptpubkey": "a91407c45af1b75aa2604449b2b620c8de41b9a89d5087",
        "scriptpubkey_asm": "OP_HASH160 OP_PUSHBYTES_20 07c45af1b75aa2604449b2b620c8de41b9a89d50 OP_EQUAL",
        "scriptpubkey_type": "p2sh",
        "scriptpubkey_address": "32Q5stVQL38byVctWWxUfqC1a5yis8KmJn",
        "value": 429543
      },
      "scriptsig": "160014244b821e62f413fb5e01e373b28e13cdbfff3908",
      "scriptsig_asm": "OP_PUSHBYTES_22 0014244b821e62f413fb5e01e373b28e13cdbfff3908",
      "witness": [
        "3044022010a8d2ca7bdf21ca88c09b2a14db65bb0bc4e90b7630b91236f8a87ba027707102202c6bbe8a73eb387b5e22074f56544b9a9ade1afec5745d3d0bbd12c830add2f101",
        "02e7b8b9e6cbc4d9397799e79b6236584458d7e0a9e4c1647225bb66c8161e1498"
      ],
      "is_coinbase": false,
      "sequence": 0,
      "inner_redeemscript_asm": "OP_0 OP_PUSHBYTES_20 244b821e62f413fb5e01e373b28e13cdbfff3908"
    },
    {
      "txid": "3ff6f20165104b755588cfd23b868962174ca7c59e52ee004b59fef09c6d0e33",
      "vout": 1,
      "prevout": {
        "scriptpubkey": "a914d967740705ca4dff021af317094b280bfa7c87ff87",
        "scriptpubkey_asm": "OP_HASH160 OP_PUSHBYTES_20 d967740705ca4dff021af317094b280bfa7c87ff OP_EQUAL",
        "scriptpubkey_type": "p2sh",
        "scriptpubkey_address": "3MWYVE9hUz1g1MRvk1c9ykKoAMtKWdGdqP",
        "value": 447810
      },
      "scriptsig": "1600142c1f4b220f6c483495898810a5310ccd7b757f76",
      "scriptsig_asm": "OP_PUSHBYTES_22 00142c1f4b220f6c483495898810a5310ccd7b757f76",
      "witness": [
        "30440220081215e4465230654c79f00ea74824c44f9de412557a68ba0944872fd721200202206d0a86c9952247994e606c0044f628e1a2f8726999f7144693bbca095285980801",
        "0354829fbc4d8e6979896d3805b1b8bb6cb96ddf56aa9ab85d8091ec8bf6963e5e"
      ],
      "is_coinbase": false,
      "sequence": 0,
      "inner_redeemscript_asm": "OP_0 OP_PUSHBYTES_20 2c1f4b220f6c483495898810a5310ccd7b757f76"
    },
    {
      "txid": "7920265078fd1cbebe50734afa9af25f7158ce7f3b6894ddc364537a8c08480d",
      "vout": 6,
      "prevout": {
        "scriptpubkey": "a914ba2f9ad985fae678c91409f86ea873db037f333b87",
        "scriptpubkey_asm": "OP_HASH160 OP_PUSHBYTES_20 ba2f9ad985fae678c91409f86ea873db037f333b OP_EQUAL",
        "scriptpubkey_type": "p2sh",
        "scriptpubkey_address": "3JfUdsNqDcRcjc6bV5WYepQ4LWrB3nNKHo",
        "value": 10000
      },
      "scriptsig": "16001482ee692999438557616e45c02a71c5b88fd21d3d",
      "scriptsig_asm": "OP_PUSHBYTES_22 001482ee692999438557616e45c02a71c5b88fd21d3d",
      "witness": [
        "3045022100fe146a0f51f10ac8ccba09f9a81b372b82f2331adfbbc968e93ee9e6bbe0c58002204bf655c211f320bc14040e28edcd83443ac619b6c140575129d3f87858b9883b01",
        "029bdea14533e343d69020bbb4b99a110e295591d90483c1b512c581925c518023"
      ],
      "is_coinbase": false,
      "sequence": 0,
      "inner_redeemscript_asm": "OP_0 OP_PUSHBYTES_20 82ee692999438557616e45c02a71c5b88fd21d3d"
    },
    {
      "txid": "c9b320a0cdada0dee4a0cc06cc0dab193e4733d2ec80fe17a6e34fef93af3451",
      "vout": 59,
      "prevout": {
        "scriptpubkey": "a9142f842ca60b10492e17e52a5b4ec99796b86741b387",
        "scriptpubkey_asm": "OP_HASH160 OP_PUSHBYTES_20 2f842ca60b10492e17e52a5b4ec99796b86741b3 OP_EQUAL",
        "scriptpubkey_type": "p2sh",
        "scriptpubkey_address": "362G2CUfJrxZvy916Yw9HZ98ir9j3S3jgn",
        "value": 10033
      },
      "scriptsig": "160014b0e9f026a34c7f015299a0854a92bf7b5e6140aa",
      "scriptsig_asm": "OP_PUSHBYTES_22 0014b0e9f026a34c7f015299a0854a92bf7b5e6140aa",
      "witness": [
        "304402207b95f1b01770c8347ec6af3b10f2deb214267f5eee5e833fc42fb451dd5fdf4502207ab1c328c8016f03694d1ab78cbd5b502b3fac1dfb40df5ec6667a4aec7c464f01",
        "023891225e4520134113f93286498f148f0cb46bc457f9bb34c835f639408cee11"
      ],
      "is_coinbase": false,
      "sequence": 0,
      "inner_redeemscript_asm": "OP_0 OP_PUSHBYTES_20 b0e9f026a34c7f015299a0854a92bf7b5e6140aa"
    },
    {
      "txid": "bae8444e8e88e8a36ab5f1bf670f7c71ac38247947c8ef1339cff947bfea1c2c",
      "vout": 13,
      "prevout": {
        "scriptpubkey": "a91483bb752477e0fb027f219c1f0ca9a4ae162cad8f87",
        "scriptpubkey_asm": "OP_HASH160 OP_PUSHBYTES_20 83bb752477e0fb027f219c1f0ca9a4ae162cad8f OP_EQUAL",
        "scriptpubkey_type": "p2sh",
        "scriptpubkey_address": "3DhZ1TM7p5F2JoZc89ZiZcStrK8bGLsTU3",
        "value": 218633
      },
      "scriptsig": "160014d2bfa7a1b5f95f1b6f457457cef3b946bc259e9b",
      "scriptsig_asm": "OP_PUSHBYTES_22 0014d2bfa7a1b5f95f1b6f457457cef3b946bc259e9b",
      "witness": [
        "304402205cd9c5e9a9a264e480713a5a2eed1b8254db0d13b50c974b3bca38448ee4178d022063152efe9149b46ceb3eaac964d724dd30b7d7d2ea9e724f03e008797de526f001",
        "02200dd2a8625a7a9b010d48803f4f76518f2d90e192ac06cafb749e06da5ca1d2"
      ],
      "is_coinbase": false,
      "sequence": 0,
      "inner_redeemscript_asm": "OP_0 OP_PUSHBYTES_20 d2bfa7a1b5f95f1b6f457457cef3b946bc259e9b"
    },
    {
      "txid": "4b16f4c89c3436381e5234a4c32510d41dbbce0ac64a159a420d9240d8fa9cee",
      "vout": 59,
      "prevout": {
        "scriptpubkey": "a914811143bbcd99d85a9f6bd9e6a8911eefa868c1a887",
        "scriptpubkey_asm": "OP_HASH160 OP_PUSHBYTES_20 811143bbcd99d85a9f6bd9e6a8911eefa868c1a8 OP_EQUAL",
        "scriptpubkey_type": "p2sh",
        "scriptpubkey_address": "3DTTmrVtWsGKFBviHHoZa4QHtgrP8R2BJ2",
        "value": 269964
      },
      "scriptsig": "160014fc52c739f6b0b9f260be34571d0e6611ef5b92f1",
      "scriptsig_asm": "OP_PUSHBYTES_22 0014fc52c739f6b0b9f260be34571d0e6611ef5b92f1",
      "witness": [
        "304402205bf9ad68444c27486c12defeb178f037af64881b1a5ea655786a3ef681982e5c02200b46519eec820e33ab122f99f4e3deec8ed2a32c5721b66b48b8656227a61eca01",
        "034c89183569dcb1f2280517b5f8f7ac3221e6669ba938d613a3431ad83eb3ff76"
      ],
      "is_coinbase": false,
      "sequence": 0,
      "inner_redeemscript_asm": "OP_0 OP_PUSHBYTES_20 fc52c739f6b0b9f260be34571d0e6611ef5b92f1"
    },
    {
      "txid": "0bea5b4a8e2df8ebcef54543c31387d12bbf86cafb2fe669fcfeb3ad16237605",
      "vout": 41,
      "prevout": {
        "scriptpubkey": "a9145ea335db6ce5c9b8f3bf834bf46ef48220cac51387",
        "scriptpubkey_asm": "OP_HASH160 OP_PUSHBYTES_20 5ea335db6ce5c9b8f3bf834bf46ef48220cac513 OP_EQUAL",
        "scriptpubkey_type": "p2sh",
        "scriptpubkey_address": "3AKQxdbZSGJktHLb5xzquQvvKVNnWCtTUH",
        "value": 297187
      },
      "scriptsig": "160014c624d9b871a7763f910866cdd057efa4707b9182",
      "scriptsig_asm": "OP_PUSHBYTES_22 0014c624d9b871a7763f910866cdd057efa4707b9182",
      "witness": [
        "3045022100be7bb9c551dd109fdbc1194c47a9bfc49dd8a7328363fdd4b53fef3487ebd2a20220739109eec4200ee98c3279042ee2be7bf05c29d96063021e698a2ec46d6f3eae01",
        "0273e050b91121237de718aa6f931159b2a2e86ad245a0f3b2dfa5833f3b7b6f03"
      ],
      "is_coinbase": false,
      "sequence": 0,
      "inner_redeemscript_asm": "OP_0 OP_PUSHBYTES_20 c624d9b871a7763f910866cdd057efa4707b9182"
    },
    {
      "txid": "71b3ed1b743357368e1a61533edcbe3c1dc009f22cefa6d58139e4b83f0dc970",
      "vout": 5,
      "prevout": {
        "scriptpubkey": "a914659891a9e5ad3063730f63765b9bbabdd035e63287",
        "scriptpubkey_asm": "OP_HASH160 OP_PUSHBYTES_20 659891a9e5ad3063730f63765b9bbabdd035e632 OP_EQUAL",
        "scriptpubkey_type": "p2sh",
        "scriptpubkey_address": "3AxCwbfbWq71c54wefVbEYputWkBYgk1T4",
        "value": 203056
      },
      "scriptsig": "160014b18973eac68e2dbdfc10f22f8128775d41c15931",
      "scriptsig_asm": "OP_PUSHBYTES_22 0014b18973eac68e2dbdfc10f22f8128775d41c15931",
      "witness": [
        "3045022100ebbb36d5daca7616e6b1f0dbd91491b7b0c36de5817c23996f0cf35ca4304c5502201681ef320cc4a675cb1bf1ebac4156361fb52c56f5dbfeec307754c281fc061501",
        "023fe5b03a3780805325fdef3e87dbc04be4cf50d68893d0789b3d5b39d3ec4732"
      ],
      "is_coinbase": false,
      "sequence": 0,
      "inner_redeemscript_asm": "OP_0 OP_PUSHBYTES_20 b18973eac68e2dbdfc10f22f8128775d41c15931"
    }
  ],
  "vout": [
    {
      "scriptpubkey": "a914c03a23dabae4085befefe4963b65957801b789c087",
      "scriptpubkey_asm": "OP_HASH160 OP_PUSHBYTES_20 c03a23dabae4085befefe4963b65957801b789c0 OP_EQUAL",
      "scriptpubkey_type": "p2sh",
      "scriptpubkey_address": "3KDRK1wsBLbQvWoMaLN3jAP2wUM5s9JyKX",
      "value": 1846000
    },
    {
      "scriptpubkey": "a9140747219200965e1420a462f9c8eb8cf0d90ffeb987",
      "scriptpubkey_asm": "OP_HASH160 OP_PUSHBYTES_20 0747219200965e1420a462f9c8eb8cf0d90ffeb9 OP_EQUAL",
      "scriptpubkey_type": "p2sh",
      "scriptpubkey_address": "32MVsAVKCBii2PeBxbboVStXLSS6fxBkqb",
      "value": 45367
    }
  ],
  "size": 1618,
  "weight": 3568,
  "fee": 9675,
  "status": {
    "confirmed": true,
    "block_height": 834464,
    "block_hash": "0000000000000000000177a0869a911a2b65c9bdcd5a8bcb02b68f305bee848e",
    "block_time": 1710308296
  },
  "hex": "02000000000109eca5681bf94790f289ed755ffc98db173859098769a98afa2f11b551d598a9382b0000001716001495a3d4ef96ba3de79ba8c60c451e024a944bc6230000000064dd70b42f72f691b8137ed3c4705a65e349ebcc982f3b510c8bcb5160653f481200000017160014244b821e62f413fb5e01e373b28e13cdbfff390800000000330e6d9cf0fe594b00ee529ec5a74c176289863bd2cf8855754b106501f2f63f01000000171600142c1f4b220f6c483495898810a5310ccd7b757f76000000000d48088c7a5364c3dd94683b7fce58715ff29afa4a7350bebe1cfd7850262079060000001716001482ee692999438557616e45c02a71c5b88fd21d3d000000005134af93ef4fe3a617fe80ecd233473e19ab0dcc06cca0e4dea0adcda020b3c93b00000017160014b0e9f026a34c7f015299a0854a92bf7b5e6140aa000000002c1ceabf47f9cf3913efc847792438ac717c0f67bff1b56aa3e8888e4e44e8ba0d00000017160014d2bfa7a1b5f95f1b6f457457cef3b946bc259e9b00000000ee9cfad840920d429a154ac60acebb1dd41025c3a434521e3836349cc8f4164b3b00000017160014fc52c739f6b0b9f260be34571d0e6611ef5b92f10000000005762316adb3fefc69e62ffbca86bf2bd18713c34345f5ceebf82d8e4a5bea0b2900000017160014c624d9b871a7763f910866cdd057efa4707b91820000000070c90d3fb8e43981d5a6ef2cf209c01d3cbedc3e53611a8e365733741bedb3710500000017160014b18973eac68e2dbdfc10f22f8128775d41c159310000000002f02a1c000000000017a914c03a23dabae4085befefe4963b65957801b789c08737b100000000000017a9140747219200965e1420a462f9c8eb8cf0d90ffeb9870247304402203d122e2672e57c7250a2b163bab780fabcdbafeb2862ae71243f7d559aecdcb0022007aae6f5ddb0f6cdb3b4a5557378229466f35e14e79a4bd9e6710e8f8655397a012102252792614cd0d8397cf02529f240fa3c6a2af28303824c4ba99b076c689e80fa02473044022010a8d2ca7bdf21ca88c09b2a14db65bb0bc4e90b7630b91236f8a87ba027707102202c6bbe8a73eb387b5e22074f56544b9a9ade1afec5745d3d0bbd12c830add2f1012102e7b8b9e6cbc4d9397799e79b6236584458d7e0a9e4c1647225bb66c8161e1498024730440220081215e4465230654c79f00ea74824c44f9de412557a68ba0944872fd721200202206d0a86c9952247994e606c0044f628e1a2f8726999f7144693bbca095285980801210354829fbc4d8e6979896d3805b1b8bb6cb96ddf56aa9ab85d8091ec8bf6963e5e02483045022100fe146a0f51f10ac8ccba09f9a81b372b82f2331adfbbc968e93ee9e6bbe0c58002204bf655c211f320bc14040e28edcd83443ac619b6c140575129d3f87858b9883b0121029bdea14533e343d69020bbb4b99a110e295591d90483c1b512c581925c5180230247304402207b95f1b01770c8347ec6af3b10f2deb214267f5eee5e833fc42fb451dd5fdf4502207ab1c328c8016f03694d1ab78cbd5b502b3fac1dfb40df5ec6667a4aec7c464f0121023891225e4520134113f93286498f148f0cb46bc457f9bb34c835f639408cee110247304402205cd9c5e9a9a264e480713a5a2eed1b8254db0d13b50c974b3bca38448ee4178d022063152efe9149b46ceb3eaac964d724dd30b7d7d2ea9e724f03e008797de526f0012102200dd2a8625a7a9b010d48803f4f76518f2d90e192ac06cafb749e06da5ca1d20247304402205bf9ad68444c27486c12defeb178f037af64881b1a5ea655786a3ef681982e5c02200b46519eec820e33ab122f99f4e3deec8ed2a32c5721b66b48b8656227a61eca0121034c89183569dcb1f2280517b5f8f7ac3221e6669ba938d613a3431ad83eb3ff7602483045022100be7bb9c551dd109fdbc1194c47a9bfc49dd8a7328363fdd4b53fef3487ebd2a20220739109eec4200ee98c3279042ee2be7bf05c29d96063021e698a2ec46d6f3eae01210273e050b91121237de718aa6f931159b2a2e86ad245a0f3b2dfa5833f3b7b6f0302483045022100ebbb36d5daca7616e6b1f0dbd91491b7b0c36de5817c23996f0cf35ca4304c5502201681ef320cc4a675cb1bf1ebac4156361fb52c56f5dbfeec307754c281fc06150121023fe5b03a3780805325fdef3e87dbc04be4cf50d68893d0789b3d5b39d3ec473200000000"
}