{
  "txid": "423a9c9bd4cb7afd28a18387f6bbfc10bbc7ce0a66cc577c213d1044f2da7075",
  "version": 2,
  "locktime": 0,
  "vin": [
    {
      "txid": "acc3ba00869acb582a3f2904ce3a11dd3779350ce234063fc7d0959246213364",
      "vout": 207,
      "prevout": {
        "scriptpubkey": "512000492b57f70b9e8a9db03d16a609035c30a8ae25f7129048c449dce3f03329e8",
        "scriptpubkey_asm": "OP_PUSHNUM_1 OP_PUSHBYTES_32 00492b57f70b9e8a9db03d16a609035c30a8ae25f7129048c449dce3f03329e8",
        "scriptpubkey_type": "v1_p2tr",
        "scriptpubkey_address": "bc1pqpyjk4lhpw0g48ds85t2vzgrtsc23t397uffqjxyf8ww8upn985q4932pz",
        "value": 1806
      },
      "scriptsig": "",
      "scriptsig_asm": "",
      "witness": [
        "fac8f843e04d085f5a336cbc968f31bb80a30dc5c44e0eb94473e789d41f67306dd952eae5d4354ecfed6ad8fa55b8a5106ecf8b42735b22c3ff462b7fb91ee5",
        "206e4bb41a6b9856a5c3363e5d3c1cb277222454d31537c2a5f1f08613c8f42506ac0063036f726401010a746578742f706c61696e00357b2270223a226272632d3230222c226f70223a226d696e74222c227469636b223a22646f6765222c22616d74223a2234323030227d68",
        "c16e4bb41a6b9856a5c3363e5d3c1cb277222454d31537c2a5f1f08613c8f42506"
      ],
      "is_coinbase": false,
      "sequence": 4261412863
    }
  ],
  "vout": [
    {
      "scriptpubkey": "00147a665de7a370f4c9b372ab1fae587500a5bcbdb4",
      "scriptpubkey_asm": "OP_0 OP_PUSHBYTES_20 7a665de7a370f4c9b372ab1fae587500a5bcbdb4",
      "scriptpubkey_type": "v0_p2wpkh",
      "scriptpubkey_address": "bc1q0fn9mearwr6vnvmj4v06ukr4qzjme0d565dzcx",
      "value": 294
    }
  ],
  "size": 294,
  "weight": 540,
  "fee": 1512,
  "status": {
    "confirmed": true,
    "block_height": 834460,
    "block_hash": "00000000000000000000484a79b643b2524bbce82e5d8a442013fa5b8905ed98",
    "block_time": 1710307468
  },
  "hex": "02000000000101643321469295d0c73f0634e20c357937dd113ace04293f2a58cb9a8600bac3accf00000000fffffffd0126010000000000001600147a665de7a370f4c9b372ab1fae587500a5bcbdb40340fac8f843e04d085f5a336cbc968f31bb80a30dc5c44e0eb94473e789d41f67306dd952eae5d4354ecfed6ad8fa55b8a5106ecf8b42735b22c3ff462b7fb91ee56d206e4bb41a6b9856a5c3363e5d3c1cb277222454d31537c2a5f1f08613c8f42506ac0063036f726401010a746578742f706c61696e00357b2270223a226272632d3230222c226f70223a226d696e74222c227469636b223a22646f6765222c22616d74223a2234323030227d6821c16e4bb41a6b9856a5c3363e5d3c1cb277222454d31537c2a5f1f08613c8f4250600000000"
}