{
  "txid": "423c61f1ec58b9400a373e1052c26debdd5d55eb0057900c3dcf41f54762486c",
  "version": 2,
  "locktime": 834567,
  "vin": [
    {
      "txid": "13f5d0f10f6f2e329c924339340c24d9cf3e5e4d1055722edfc4060328632a5b",
      "vout": 0,
      "prevout": {
        "scriptpubkey": "0014ace1904ddc52589ecaa753bc02acfb382a2fee28",
        "scriptpubkey_asm": "OP_0 OP_PUSHBYTES_20 ace1904ddc52589ecaa753bc02acfb382a2fee28",
        "scriptpubkey_type": "v0_p2wpkh",
        "scriptpubkey_address": "bc1q4nseqnwu2fvfaj482w7q9t8m8q4zlm3gm3exsm",
        "value": 3070130
      },
      "scriptsig": "",
      "scriptsig_asm": "",
      "witness": [
        "304402203102ea6ea631743559917a81b2b528fbe8954802d65e72eb74182792fd7fa9ee022002374365dde373d98dd744a45ef5cf5065e8d4d4a572d9a6cb7c65921759218301",
        "0307eeafbc56df0e25e41b389128db9536a1a7f3e2319076e104fdf9035853be19"
      ],
      "is_coinbase": false,
      "sequence": 4294967294
    }
  ],
  "vout": [
    {
      "scriptpubkey": "0014046ff31bdf198d9d45e232c0a5856367666a28a6",
      "scriptpubkey_asm": "OP_0 OP_PUSHBYTES_20 046ff31bdf198d9d45e232c0a5856367666a28a6",
      "scriptpubkey_type": "v0_p2wpkh",
      "scriptpubkey_address": "bc1qq3hlxx7lrxxe630zxtq2tptrvanx529x3fj3mq",
      "value": 3039625
    }
  ],
  "size": 191,
  "weight": 437,
  "fee": 30505,
  "status": {
    "confirmed": true,
    "block_height": 834638,
    "block_hash": "000000000000000000025f742c626208ac87e0b7d15054abb4a19ca2d735a54e",
    "block_time": 1710405325
  },
  "hex": "020000000001015b2a63280306c4df2e7255104d5e3ecfd9240c343943929c322e6f0ff1d0f5130000000000feffffff0189612e0000000000160014046ff31bdf198d9d45e232c0a5856367666a28a60247304402203102ea6ea631743559917a81b2b528fbe8954802d65e72eb74182792fd7fa9ee022002374365dde373d98dd744a45ef5cf5065e8d4d4a572d9a6cb7c65921759218301210307eeafbc56df0e25e41b389128db9536a1a7f3e2319076e104fdf9035853be1907bc0c00"
}