{
  "txid": "42411e36049e5b40425ccb17d66de7dea5535a9aaff06c485b46724953c9ca78",
  "version": 2,
  "locktime": 0,
  "vin": [
    {
      "txid": "038317feaefe026a08f7b9fddcf54f99a2cf6d5f6080e1d249a09190f3aba1af",
      "vout": 0,
      "prevout": {
        "scriptpubkey": "0014436e9c542e0c602c88341d554525dee996cd6fcd",
        "scriptpubkey_asm": "OP_0 OP_PUSHBYTES_20 436e9c542e0c602c88341d554525dee996cd6fcd",
        "scriptpubkey_type": "v0_p2wpkh",
        "scriptpubkey_address": "bc1qgdhfc4pwp3szezp5r4252fw7axtv6m7dzmdr5q",
        "value": 29021
      },
      "scriptsig": "",
      "scriptsig_asm": "",
      "witness": [
        "3045022100f603fdac0cc62b4e15cd0548128832ee8624d1bd89ef7f55964fab9dcca42a8702200ffe6e4f33296f8a815933fbe05ceb9890520f8d3585060482672124aa6816da01",
        "02ee79b17fbe9225614759f186d6844348488be7799cdb20c2365f881b61ffd1da"
      ],
      "is_coinbase": false,
      "sequence": 4294967295
    },
    {
      "txid": "0424e175c664300c5506abbe7848e0a31241d3bcbc0ed0f0fc468eb0854397e5",
      "vout": 0,
      "prevout": {
        "scriptpubkey": "0014618588f172daa69bb86d163d1c9aabe54164e348",
        "scriptpubkey_asm": "OP_0 OP_PUSHBYTES_20 618588f172daa69bb86d163d1c9aabe54164e348",
        "scriptpubkey_type": "v0_p2wpkh",
        "scriptpubkey_address": "bc1qvxzc3utjm2nfhwrdzc73ex4tu4qkfc6gawv0hy",
        "value": 41399
      },
      "scriptsig": "",
      "scriptsig_asm": "",
      "witness": [
        "304402207bdb218885a5f2bdaac1756b62ee5bbb860abe321987cea2b8b22061dd4f110202200a27da2c1451fd6d61473ec39beb8b07c9438173a7d28e6f5439ebb6d07fdcb401",
        "02e66393da194b1f8802be55c8ea4fab5c6e42ec53e3b77b7004e41e8fd0c3a70c"
      ],
      "is_coinbase": false,
      "sequence": 4294967295
    },
    {
      "txid": "47f9b62f0a27f191eb4f962e0054d09273f53b34d44b16ce17fcc44f9d1fbfef",
      "vout": 0,
      "prevout": {
        "scriptpubkey": "00142f3d1b4bfb90de452d0944095c8989e087452153",
        "scriptpubkey_asm": "OP_0 OP_PUSHBYTES_20 2f3d1b4bfb90de452d0944095c8989e087452153",
        "scriptpubkey_type": "v0_p2wpkh",
        "scriptpubkey_address": "bc1q9u73kjlmjr0y2tgfgsy4ezvfuzr52g2nsqw5nu",
        "value": 44158
      },
      "scriptsig": "",
      "scriptsig_asm": "",
      "witness": [
        "3045022100bcc92781d45d79cbb638cd9c4fadd1f0225982dd400d0370bc63df28192c55340220067e2ace37e8a7c502c7a4d66b958d723c62228d4f186d8bf32005585340f87d01",
        "031c9ab38aedd005c3048c8f13e9239babbeaa922004c992e96c1386669bf019a8"
      ],
      "is_coinbase": false,
      "sequence": 4294967295
    },
    {
      "txid": "4ff272bd899ea174aae1b649dceda1b054f1cf07f6b309b9ee7d6341481c4178",
      "vout": 0,
      "prevout": {
        "scriptpubkey": "00148472a5328ebcedb33dd2d49a3b6cdb6bfc2894af",
        "scriptpubkey_asm": "OP_0 OP_PUSHBYTES_20 8472a5328ebcedb33dd2d49a3b6cdb6bfc2894af",
        "scriptpubkey_type": "v0_p2wpkh",
        "scriptpubkey_address": "bc1qs3e22v5whnkmx0wj6jdrkmxmd07z3990wgzux3",
        "value": 40490
      },
      "scriptsig": "",
      "scriptsig_asm": "",
      "witness": [
        "3044022042ff7e6b9d4b2079935c27a499d0f8d739b5bbf7f166412d4133021cd7f461a00220085f20b48d60fba5c855ef9707a05d1192baa464ed6d43f912f260d03d567dbc01",
        "03417e46c06115fd67956262439b63f67e562ea326193658ebda62884a8f01acd5"
      ],
      "is_coinbase": false,
      "sequence": 4294967295
    },
    {
      "txid": "79c045212ee6b0b9a9d8a4407f2b5b56cd69196c9e44556f72352481d79f1225",
      "vout": 0,
      "prevout": {
        "scriptpubkey": "0014de8c223e3c92dd5bc7399e14d5126629d3f6c414",
        "scriptpubkey_asm": "OP_0 OP_PUSHBYTES_20 de8c223e3c92dd5bc7399e14d5126629d3f6c414",
        "scriptpubkey_type": "v0_p2wpkh",
        "scriptpubkey_address": "bc1qm6xzy03ujtw4h3eenc2d2ynx98fld3q58l7cv6",
        "value": 3347
      },
      "scriptsig": "",
      "scriptsig_asm": "",
      "witness": [
        "3044022100c42e240cc941e8826aff136c4c64b03cbba92ac281e01d3426c5d21049e934bd021f472035991ec4ac8f84809bb6a29f3746514117a8d068bc7a5637f326e400a601",
        "0201aa0494856261d74a9079e15d27e48576d7c20d6badc8208d0f444cc7cc66b7"
      ],
      "is_coinbase": false,
      "sequence": 4294967295
    },
    {
      "txid": "e8046f267cbf4ee00f2fc1e855c3c122ca20117201816212b4b9874bcdd48fbe",
      "vout": 0,
      "prevout": {
        "scriptpubkey": "0014d8cea479342fb7303b47e29b6aec36a0dd2b3c0b",
        "scriptpubkey_asm": "OP_0 OP_PUSHBYTES_20 d8cea479342fb7303b47e29b6aec36a0dd2b3c0b",
        "scriptpubkey_type": "v0_p2wpkh",
        "scriptpubkey_address": "bc1qmr82g7f597mnqw68u2dk4mpk5rwjk0qtp99mux",
        "value": 45700
      },
      "scriptsig": "",
      "scriptsig_asm": "",
      "witness": [
        "3044022018c7b8f317c436afed1818f9109862f480f8ab1a5068db08139fabeadf418644022030e4d482041b8772b45566cc33e0756a8c1a12e54fc66352c847e30a3745fb8501",
        "02da82d6938f8906704ab647117744328b5498cb8e48dc688571d4bf099494649c"
      ],
      "is_coinbase": false,
      "sequence": 4294967295
    }
  ],
  "vout": [
    {
      "scriptpubkey": "0014cd872151cafaf33a552267454d095e33deb13ee1",
      "scriptpubkey_asm": "OP_0 OP_PUSHBYTES_20 cd872151cafaf33a552267454d095e33deb13ee1",
      "scriptpubkey_type": "v0_p2wpkh",
      "scriptpubkey_address": "bc1qekrjz5w2lten54fzvaz56z27x00tz0hprlkcs5",
      "value": 192000
    }
  ],
  "size": 933,
  "weight": 1794,
  "fee": 12115,
  "status": {
    "confirmed": true,
    "block_height": 834638,
    "block_hash": "000000000000000000025f742c626208ac87e0b7d15054abb4a19ca2d735a54e",
    "block_time": 1710405325
  },
  "hex": "02000000000106afa1abf39091a049d2e180605f6dcfa2994ff5dcfdb9f7086a02feaefe1783030000000000ffffffffe5974385b08e46fcf0d00ebcbcd34112a3e04878beab06550c3064c675e124040000000000ffffffffefbf1f9d4fc4fc17ce164bd4343bf57392d054002e964feb91f1270a2fb6f9470000000000ffffffff78411c4841637deeb909b3f607cff154b0a1eddc49b6e1aa74a19e89bd72f24f0000000000ffffffff25129fd7812435726f55449e6c1969cd565b2b7f40a4d8a9b9b0e62e2145c0790000000000ffffffffbe8fd4cd4b87b9b412628101721120ca22c1c355e8c12f0fe04ebf7c266f04e80000000000ffffffff0100ee020000000000160014cd872151cafaf33a552267454d095e33deb13ee102483045022100f603fdac0cc62b4e15cd0548128832ee8624d1bd89ef7f55964fab9dcca42a8702200ffe6e4f33296f8a815933fbe05ceb9890520f8d3585060482672124aa6816da012102ee79b17fbe9225614759f186d6844348488be7799cdb20c2365f881b61ffd1da0247304402207bdb218885a5f2bdaac1756b62ee5bbb860abe321987cea2b8b22061dd4f110202200a27da2c1451fd6d61473ec39beb8b07c9438173a7d28e6f5439ebb6d07fdcb4012102e66393da194b1f8802be55c8ea4fab5c6e42ec53e3b77b7004e41e8fd0c3a70c02483045022100bcc92781d45d79cbb638cd9c4fadd1f0225982dd400d0370bc63df28192c55340220067e2ace37e8a7c502c7a4d66b958d723c62228d4f186d8bf32005585340f87d0121031c9ab38aedd005c3048c8f13e9239babbeaa922004c992e96c1386669bf019a802473044022042ff7e6b9d4b2079935c27a499d0f8d739b5bbf7f166412d4133021cd7f461a00220085f20b48d60fba5c855ef9707a05d1192baa464ed6d43f912f260d03d567dbc012103417e46c06115fd67956262439b63f67e562ea326193658ebda62884a8f01acd502473044022100c42e240cc941e8826aff136c4c64b03cbba92ac281e01d3426c5d21049e934bd021f472035991ec4ac8f84809bb6a29f3746514117a8d068bc7a5637f326e400a601210201aa0494856261d74a9079e15d27e48576d7c20d6badc8208d0f444cc7cc66b702473044022018c7b8f317c436afed1818f9109862f480f8ab1a5068db08139fabeadf418644022030e4d482041b8772b45566cc33e0756a8c1a12e54fc66352c847e30a3745fb85012102da82d6938f8906704ab647117744328b5498cb8e48dc688571d4bf099494649c00000000"
}