{
  "txid": "4243eafaa10312ab96393bbb430b524cfebbc09c25fe0b6e0012d532d7191aff",
  "version": 2,
  "locktime": 0,
  "vin": [
    {
      "txid": "fa4ed7dbe4fdf792f8dcca408c0297a573af541806fedb9dd746e35de0e31fde",
      "vout": 0,
      "prevout": {
        "scriptpubkey": "5120a8ca4b57e4be761b8093f8f5bb021df6157c745c3131be4675ab636087da6aa1",
        "scriptpubkey_asm": "OP_PUSHNUM_1 OP_PUSHBYTES_32 a8ca4b57e4be761b8093f8f5bb021df6157c745c3131be4675ab636087da6aa1",
        "scriptpubkey_type": "v1_p2tr",
        "scriptpubkey_address": "bc1p4r9yk4lyhemphqynlr6mkqsa7c2hcazuxycmu3n44d3kpp76d2ssxshkqe",
        "value": 2994
      },
      "scriptsig": "",
      "scriptsig_asm": "",
      "witness": [
        "51432045576867981d13c2e550265698575aa7a884a57baddf275616e6e68cae0430dcd0b7ae764685ac2fbbb8fb24938a128000e46ec66554f8ce699a0b765a",
        "20f883762fb1ab5d8d12d4bffea793a06d6655851c59696e8f59e656cb3cec97d7ac0063036f7264010118746578742f706c61696e3b636861727365743d7574662d38003c7b2270223a226272632d3230222c226f70223a227472616e73666572222c227469636b223a227069696e222c22616d74223a2232303030303030227d68",
        "c1f883762fb1ab5d8d12d4bffea793a06d6655851c59696e8f59e656cb3cec97d7"
      ],
      "is_coinbase": false,
      "sequence": 4294967293
    }
  ],
  "vout": [
    {
      "scriptpubkey": "5120cb83a415fd6a72cdba6f30d867d9fd0eed8a942ddeb9619814c62c762e8435f6",
      "scriptpubkey_asm": "OP_PUSHNUM_1 OP_PUSHBYTES_32 cb83a415fd6a72cdba6f30d867d9fd0eed8a942ddeb9619814c62c762e8435f6",
      "scriptpubkey_type": "v1_p2tr",
      "scriptpubkey_address": "bc1pewp6g90adfevmwn0xrvx0k0apmkc49pdm6ukrxq5cck8vt5yxhmq42u74l",
      "value": 546
    }
  ],
  "size": 327,
  "weight": 609,
  "fee": 2448,
  "status": {
    "confirmed": true,
    "block_height": 834638,
    "block_hash": "000000000000000000025f742c626208ac87e0b7d15054abb4a19ca2d735a54e",
    "block_time": 1710405325
  },
  "hex": "02000000000101de1fe3e05de346d79ddbfe061854af73a597028c40cadcf892f7fde4dbd74efa0000000000fdffffff012202000000000000225120cb83a415fd6a72cdba6f30d867d9fd0eed8a942ddeb9619814c62c762e8435f6034051432045576867981d13c2e550265698575aa7a884a57baddf275616e6e68cae0430dcd0b7ae764685ac2fbbb8fb24938a128000e46ec66554f8ce699a0b765a8220f883762fb1ab5d8d12d4bffea793a06d6655851c59696e8f59e656cb3cec97d7ac0063036f7264010118746578742f706c61696e3b636861727365743d7574662d38003c7b2270223a226272632d3230222c226f70223a227472616e73666572222c227469636b223a227069696e222c22616d74223a2232303030303030227d6821c1f883762fb1ab5d8d12d4bffea793a06d6655851c59696e8f59e656cb3cec97d700000000"
}