{
  "txid": "4268e9770e9de360f66a68388e3ad516b99fb6ecb0398fcddb404f2314c93852",
  "version": 2,
  "locktime": 0,
  "vin": [
    {
      "txid": "621e415b6cb6e207cecde6c8125e9f209cede18e40aa241da392ae315d40db51",
      "vout": 12,
      "prevout": {
        "scriptpubkey": "0014734d9b6310af02a83f623e2c3b468fb53b310650",
        "scriptpubkey_asm": "OP_0 OP_PUSHBYTES_20 734d9b6310af02a83f623e2c3b468fb53b310650",
        "scriptpubkey_type": "v0_p2wpkh",
        "scriptpubkey_address": "bc1qwdxekccs4up2s0mz8ckrk350k5anzpjswjjwk0",
        "value": 142000
      },
      "scriptsig": "",
      "scriptsig_asm": "",
      "witness": [
        "3045022100f8fe15389011ea6aef30d2ad380536e44cb9ecd9603f9d0f19cbe79166dd603702203eb7c726cc869288706882ad39a97697dd5702bfe0e925bf3bc3a0f4761966d501",
        "03cb99bdbd4e2119c5410ebc18fb0667d1287e47bf5a39ad770f2373eec543d00c"
      ],
      "is_coinbase": false,
      "sequence": 4294967295
    }
  ],
  "vout": [
    {
      "scriptpubkey": "001466fb2df13cca28865014b1f195587c523e6e72d0",
      "scriptpubkey_asm": "OP_0 OP_PUSHBYTES_20 66fb2df13cca28865014b1f195587c523e6e72d0",
      "scriptpubkey_type": "v0_p2wpkh",
      "scriptpubkey_address": "bc1qvmajmufueg5gv5q5k8ce2kru2glxuuks0cw2xx",
      "value": 139949
    }
  ],
  "size": 192,
  "weight": 438,
  "fee": 2051,
  "status": {
    "confirmed": true,
    "block_height": 834638,
    "block_hash": "000000000000000000025f742c626208ac87e0b7d15054abb4a19ca2d735a54e",
    "block_time": 1710405325
  },
  "hex": "0200000000010151db405d31ae92a31d24aa408ee1ed9c209f5e12c8e6cdce07e2b66c5b411e620c00000000ffffffff01ad2202000000000016001466fb2df13cca28865014b1f195587c523e6e72d002483045022100f8fe15389011ea6aef30d2ad380536e44cb9ecd9603f9d0f19cbe79166dd603702203eb7c726cc869288706882ad39a97697dd5702bfe0e925bf3bc3a0f4761966d5012103cb99bdbd4e2119c5410ebc18fb0667d1287e47bf5a39ad770f2373eec543d00c00000000"
}