{
  "txid": "42a50f8504dd68bb04c121a3db55eb2fd26db0bbff514cbc4e6f01fc3ffd6a69",
  "version": 2,
  "locktime": 0,
  "vin": [
    {
      "txid": "a487678d74c4ab8c49752377b6f85950de3638a82d11980e68cd739e59e4b423",
      "vout": 0,
      "prevout": {
        "scriptpubkey": "00144bd140d4d1f8441d1c9eb8404bd5e83f371c6b30",
        "scriptpubkey_asm": "OP_0 OP_PUSHBYTES_20 4bd140d4d1f8441d1c9eb8404bd5e83f371c6b30",
        "scriptpubkey_type": "v0_p2wpkh",
        "scriptpubkey_address": "bc1qf0g5p4x3lpzp68y7hpqyh40g8um3c6es06wx5q",
        "value": 1591761
      },
      "scriptsig": "",
      "scriptsig_asm": "",
      "witness": [
        "3044022038362d17275365dc945f5e1facea9fa996f8ae397bd6733898eb0ca134ee11520220341c4b84f1559daf0820f93e75f6860e4b190c868153b5310400510e096d246e01",
        "020521124b684afb36069a2f70b9ea8a614d9328f93af752f2e5b8740f9de5c27e"
      ],
      "is_coinbase": false,
      "sequence": 4294967293
    }
  ],
  "vout": [
    {
      "scriptpubkey": "001436b8294b02090b39cea8d8719ee5270e3733c301",
      "scriptpubkey_asm": "OP_0 OP_PUSHBYTES_20 36b8294b02090b39cea8d8719ee5270e3733c301",
      "scriptpubkey_type": "v0_p2wpkh",
      "scriptpubkey_address": "bc1qx6uzjjczpy9nnn4gmpceaef8pcmn8scps4ygtt",
      "value": 841473
    },
    {
      "scriptpubkey": "00144bd140d4d1f8441d1c9eb8404bd5e83f371c6b30",
      "scriptpubkey_asm": "OP_0 OP_PUSHBYTES_20 4bd140d4d1f8441d1c9eb8404bd5e83f371c6b30",
      "scriptpubkey_type": "v0_p2wpkh",
      "scriptpubkey_address": "bc1qf0g5p4x3lpzp68y7hpqyh40g8um3c6es06wx5q",
      "value": 748390
    }
  ],
  "size": 222,
  "weight": 561,
  "fee": 1898,
  "status": {
    "confirmed": true,
    "block_height": 834460,
    "block_hash": "00000000000000000000484a79b643b2524bbce82e5d8a442013fa5b8905ed98",
    "block_time": 1710307468
  },
  "hex": "0200000000010123b4e4599e73cd680e98112da83836de5059f8b6772375498cabc4748d6787a40000000000fdffffff0201d70c000000000016001436b8294b02090b39cea8d8719ee5270e3733c301666b0b00000000001600144bd140d4d1f8441d1c9eb8404bd5e83f371c6b3002473044022038362d17275365dc945f5e1facea9fa996f8ae397bd6733898eb0ca134ee11520220341c4b84f1559daf0820f93e75f6860e4b190c868153b5310400510e096d246e0121020521124b684afb36069a2f70b9ea8a614d9328f93af752f2e5b8740f9de5c27e00000000"
}