{
  "txid": "42a86844eb98717658de9c4cdee74a5c1c5af012284072f7b5030c2359c088ac",
  "version": 2,
  "locktime": 0,
  "vin": [
    {
      "txid": "423940dd048f6919891d4c0fcb50660b3bf3a7db2e55cabf7ec68deede8c94e9",
      "vout": 3,
      "prevout": {
        "scriptpubkey": "51209a73204aa6636c0ce234e97fbdab17a4c96daf041142d2e74262a9baf94e6cad",
        "scriptpubkey_asm": "OP_PUSHNUM_1 OP_PUSHBYTES_32 9a73204aa6636c0ce234e97fbdab17a4c96daf041142d2e74262a9baf94e6cad",
        "scriptpubkey_type": "v1_p2tr",
        "scriptpubkey_address": "bc1pnfejqj4xvdkqec35a9lmm2ch5nykmtcyz9pd9e6zv25m472wdjksvkm2sq",
        "value": 600
      },
      "scriptsig": "",
      "scriptsig_asm": "",
      "witness": [
        "65fed03956e24506c7a8a60e794b352e30112848914ef82d9e1086b9efc3d68aca229ddf5e8969ecb84fa9500741523b5adf8bf53878a2c9715a2b27982a4b3c"
      ],
      "is_coinbase": false,
      "sequence": 4294967295
    },
    {
      "txid": "02964924cd818b04350784b3ea3f4e15f9ac54d992ddbc775c0b95c0d5514df2",
      "vout": 4,
      "prevout": {
        "scriptpubkey": "51209a73204aa6636c0ce234e97fbdab17a4c96daf041142d2e74262a9baf94e6cad",
        "scriptpubkey_asm": "OP_PUSHNUM_1 OP_PUSHBYTES_32 9a73204aa6636c0ce234e97fbdab17a4c96daf041142d2e74262a9baf94e6cad",
        "scriptpubkey_type": "v1_p2tr",
        "scriptpubkey_address": "bc1pnfejqj4xvdkqec35a9lmm2ch5nykmtcyz9pd9e6zv25m472wdjksvkm2sq",
        "value": 600
      },
      "scriptsig": "",
      "scriptsig_asm": "",
      "witness": [
        "e203b77492d515bf97536d4a0309e2b7a3ac705ce80a43bc5eee841fdbd2ce33350e300c77b4bba8bb0d06e0d3bfd8150cf10797ac737f8ab1aeeb907dd0d78d"
      ],
      "is_coinbase": false,
      "sequence": 4294967295
    },
    {
      "txid": "616eab12e541fd4ac5d70f03a41c09c52c064bb79567035e034260a6fd43d95b",
      "vout": 0,
      "prevout": {
        "scriptpubkey": "51209e1939132c70ca13b7a5cc91dc653a3009795681ddd781259ed34446aec23bee",
        "scriptpubkey_asm": "OP_PUSHNUM_1 OP_PUSHBYTES_32 9e1939132c70ca13b7a5cc91dc653a3009795681ddd781259ed34446aec23bee",
        "scriptpubkey_type": "v1_p2tr",
        "scriptpubkey_address": "bc1pncvnjyevwr9p8da9ejgacef6xqyhj45pmhtczfv76dzydtkz80hqlat0t9",
        "value": 546
      },
      "scriptsig": "",
      "scriptsig_asm": "",
      "witness": [
        "83a833a703b18f67ae453812c52ab0e0e422d19c7501b6808faa98d8d6040aef53afa2e1c7875fb9600f9f40c35832d8049be0c3fb32274235f68b24d49298fb83"
      ],
      "is_coinbase": false,
      "sequence": 4294967295
    },
    {
      "txid": "fbc64cfd31594a394aac116e494eefcdb9896de877149e41290b9b164886eec6",
      "vout": 1,
      "prevout": {
        "scriptpubkey": "51209a73204aa6636c0ce234e97fbdab17a4c96daf041142d2e74262a9baf94e6cad",
        "scriptpubkey_asm": "OP_PUSHNUM_1 OP_PUSHBYTES_32 9a73204aa6636c0ce234e97fbdab17a4c96daf041142d2e74262a9baf94e6cad",
        "scriptpubkey_type": "v1_p2tr",
        "scriptpubkey_address": "bc1pnfejqj4xvdkqec35a9lmm2ch5nykmtcyz9pd9e6zv25m472wdjksvkm2sq",
        "value": 1492658
      },
      "scriptsig": "",
      "scriptsig_asm": "",
      "witness": [
        "f3c588f979938d3254bebdaccf1ef81ef515d790de31578cf60cf96c17046ead7faf84b1974809fa79484cbf91077ae2c8cac9992c20757c3856dff53f458557"
      ],
      "is_coinbase": false,
      "sequence": 4294967295
    },
    {
      "txid": "a613af78f2437a2fddec2e34e728fd07b069ba740a28f9e07f88834d524a9723",
      "vout": 1,
      "prevout": {
        "scriptpubkey": "51209a73204aa6636c0ce234e97fbdab17a4c96daf041142d2e74262a9baf94e6cad",
        "scriptpubkey_asm": "OP_PUSHNUM_1 OP_PUSHBYTES_32 9a73204aa6636c0ce234e97fbdab17a4c96daf041142d2e74262a9baf94e6cad",
        "scriptpubkey_type": "v1_p2tr",
        "scriptpubkey_address": "bc1pnfejqj4xvdkqec35a9lmm2ch5nykmtcyz9pd9e6zv25m472wdjksvkm2sq",
        "value": 1491308
      },
      "scriptsig": "",
      "scriptsig_asm": "",
      "witness": [
        "67890d1f98a1c1ea62824765c8b0c77473a6c68ed3fc84a5b2564334e0f089cd3d3c4a290de8093efacf3ed52cd47e80bf27e1fdd5a3208e92216e39c8bd3e74"
      ],
      "is_coinbase": false,
      "sequence": 4294967295
    },
    {
      "txid": "9ecb85b334b8e70e8830e0624f2e7b65ab1e17db34adb5b0c1aab2ba73c39632",
      "vout": 1,
      "prevout": {
        "scriptpubkey": "51209a73204aa6636c0ce234e97fbdab17a4c96daf041142d2e74262a9baf94e6cad",
        "scriptpubkey_asm": "OP_PUSHNUM_1 OP_PUSHBYTES_32 9a73204aa6636c0ce234e97fbdab17a4c96daf041142d2e74262a9baf94e6cad",
        "scriptpubkey_type": "v1_p2tr",
        "scriptpubkey_address": "bc1pnfejqj4xvdkqec35a9lmm2ch5nykmtcyz9pd9e6zv25m472wdjksvkm2sq",
        "value": 1489890
      },
      "scriptsig": "",
      "scriptsig_asm": "",
      "witness": [
        "feb630951eb6a98e095423e8f5013c61356419a211b4be2a0e90c8ed4d0befdc0f8c664d4b29007e92129ce6a01e6e71cb18e15bf9e76f461111e903b04ef302"
      ],
      "is_coinbase": false,
      "sequence": 4294967295
    },
    {
      "txid": "2107064d20fddc853604582aaf82b1bbdbab0f28aca66a3495cc51e54d6c1cb9",
      "vout": 1,
      "prevout": {
        "scriptpubkey": "51209a73204aa6636c0ce234e97fbdab17a4c96daf041142d2e74262a9baf94e6cad",
        "scriptpubkey_asm": "OP_PUSHNUM_1 OP_PUSHBYTES_32 9a73204aa6636c0ce234e97fbdab17a4c96daf041142d2e74262a9baf94e6cad",
        "scriptpubkey_type": "v1_p2tr",
        "scriptpubkey_address": "bc1pnfejqj4xvdkqec35a9lmm2ch5nykmtcyz9pd9e6zv25m472wdjksvkm2sq",
        "value": 1353646
      },
      "scriptsig": "",
      "scriptsig_asm": "",
      "witness": [
        "85e347cd6f2561866970f88743d4ad4c8609f6814151f180d7c0e617bb0d7fc76b4fd03e43ab8725fe3c1a0f2666befe0fdd7da700ca5e5bb26ba95eb7acca9a"
      ],
      "is_coinbase": false,
      "sequence": 4294967295
    }
  ],
  "vout": [
    {
      "scriptpubkey": "51209a73204aa6636c0ce234e97fbdab17a4c96daf041142d2e74262a9baf94e6cad",
      "scriptpubkey_asm": "OP_PUSHNUM_1 OP_PUSHBYTES_32 9a73204aa6636c0ce234e97fbdab17a4c96daf041142d2e74262a9baf94e6cad",
      "scriptpubkey_type": "v1_p2tr",
      "scriptpubkey_address": "bc1pnfejqj4xvdkqec35a9lmm2ch5nykmtcyz9pd9e6zv25m472wdjksvkm2sq",
      "value": 1200
    },
    {
      "scriptpubkey": "51209a73204aa6636c0ce234e97fbdab17a4c96daf041142d2e74262a9baf94e6cad",
      "scriptpubkey_asm": "OP_PUSHNUM_1 OP_PUSHBYTES_32 9a73204aa6636c0ce234e97fbdab17a4c96daf041142d2e74262a9baf94e6cad",
      "scriptpubkey_type": "v1_p2tr",
      "scriptpubkey_address": "bc1pnfejqj4xvdkqec35a9lmm2ch5nykmtcyz9pd9e6zv25m472wdjksvkm2sq",
      "value": 546
    },
    {
      "scriptpubkey": "51209e1939132c70ca13b7a5cc91dc653a3009795681ddd781259ed34446aec23bee",
      "scriptpubkey_asm": "OP_PUSHNUM_1 OP_PUSHBYTES_32 9e1939132c70ca13b7a5cc91dc653a3009795681ddd781259ed34446aec23bee",
      "scriptpubkey_type": "v1_p2tr",
      "scriptpubkey_address": "bc1pncvnjyevwr9p8da9ejgacef6xqyhj45pmhtczfv76dzydtkz80hqlat0t9",
      "value": 4703999
    },
    {
      "scriptpubkey": "51209a73204aa6636c0ce234e97fbdab17a4c96daf041142d2e74262a9baf94e6cad",
      "scriptpubkey_asm": "OP_PUSHNUM_1 OP_PUSHBYTES_32 9a73204aa6636c0ce234e97fbdab17a4c96daf041142d2e74262a9baf94e6cad",
      "scriptpubkey_type": "v1_p2tr",
      "scriptpubkey_address": "bc1pnfejqj4xvdkqec35a9lmm2ch5nykmtcyz9pd9e6zv25m472wdjksvkm2sq",
      "value": 600
    },
    {
      "scriptpubkey": "51209a73204aa6636c0ce234e97fbdab17a4c96daf041142d2e74262a9baf94e6cad",
      "scriptpubkey_asm": "OP_PUSHNUM_1 OP_PUSHBYTES_32 9a73204aa6636c0ce234e97fbdab17a4c96daf041142d2e74262a9baf94e6cad",
      "scriptpubkey_type": "v1_p2tr",
      "scriptpubkey_address": "bc1pnfejqj4xvdkqec35a9lmm2ch5nykmtcyz9pd9e6zv25m472wdjksvkm2sq",
      "value": 600
    },
    {
      "scriptpubkey": "51209a73204aa6636c0ce234e97fbdab17a4c96daf041142d2e74262a9baf94e6cad",
      "scriptpubkey_asm": "OP_PUSHNUM_1 OP_PUSHBYTES_32 9a73204aa6636c0ce234e97fbdab17a4c96daf041142d2e74262a9baf94e6cad",
      "scriptpubkey_type": "v1_p2tr",
      "scriptpubkey_address": "bc1pnfejqj4xvdkqec35a9lmm2ch5nykmtcyz9pd9e6zv25m472wdjksvkm2sq",
      "value": 1112223
    }
  ],
  "size": 1020,
  "weight": 2685,
  "fee": 10080,
  "status": {
    "confirmed": true,
    "block_height": 834460,
    "block_hash": "00000000000000000000484a79b643b2524bbce82e5d8a442013fa5b8905ed98",
    "block_time": 1710307468
  },
  "hex": "02000000000107e9948cdeee8dc67ebfca552edba7f33b0b6650cb0f4c1d8919698f04dd4039420300000000fffffffff24d51d5c0950b5c77bcdd92d954acf9154e3feab3840735048b81cd244996020400000000ffffffff5bd943fda66042035e036795b74b062cc5091ca4030fd7c54afd41e512ab6e610000000000ffffffffc6ee8648169b0b29419e1477e86d89b9cdef4e496e11ac4a394a5931fd4cc6fb0100000000ffffffff23974a524d83887fe0f9280a74ba69b007fd28e7342eecdd2f7a43f278af13a60100000000ffffffff3296c373bab2aac1b0b5ad34db171eab657b2e4f62e030880ee7b834b385cb9e0100000000ffffffffb91c6c4de551cc95346aa6ac280fabdbbbb182af2a58043685dcfd204d0607210100000000ffffffff06b0040000000000002251209a73204aa6636c0ce234e97fbdab17a4c96daf041142d2e74262a9baf94e6cad22020000000000002251209a73204aa6636c0ce234e97fbdab17a4c96daf041142d2e74262a9baf94e6cadffc64700000000002251209e1939132c70ca13b7a5cc91dc653a3009795681ddd781259ed34446aec23bee58020000000000002251209a73204aa6636c0ce234e97fbdab17a4c96daf041142d2e74262a9baf94e6cad58020000000000002251209a73204aa6636c0ce234e97fbdab17a4c96daf041142d2e74262a9baf94e6cad9ff81000000000002251209a73204aa6636c0ce234e97fbdab17a4c96daf041142d2e74262a9baf94e6cad014065fed03956e24506c7a8a60e794b352e30112848914ef82d9e1086b9efc3d68aca229ddf5e8969ecb84fa9500741523b5adf8bf53878a2c9715a2b27982a4b3c0140e203b77492d515bf97536d4a0309e2b7a3ac705ce80a43bc5eee841fdbd2ce33350e300c77b4bba8bb0d06e0d3bfd8150cf10797ac737f8ab1aeeb907dd0d78d014183a833a703b18f67ae453812c52ab0e0e422d19c7501b6808faa98d8d6040aef53afa2e1c7875fb9600f9f40c35832d8049be0c3fb32274235f68b24d49298fb830140f3c588f979938d3254bebdaccf1ef81ef515d790de31578cf60cf96c17046ead7faf84b1974809fa79484cbf91077ae2c8cac9992c20757c3856dff53f458557014067890d1f98a1c1ea62824765c8b0c77473a6c68ed3fc84a5b2564334e0f089cd3d3c4a290de8093efacf3ed52cd47e80bf27e1fdd5a3208e92216e39c8bd3e740140feb630951eb6a98e095423e8f5013c61356419a211b4be2a0e90c8ed4d0befdc0f8c664d4b29007e92129ce6a01e6e71cb18e15bf9e76f461111e903b04ef302014085e347cd6f2561866970f88743d4ad4c8609f6814151f180d7c0e617bb0d7fc76b4fd03e43ab8725fe3c1a0f2666befe0fdd7da700ca5e5bb26ba95eb7acca9a00000000"
}