{
  "txid": "42b7511e313cdd893200a92d9a49a91a41321705737a6f0c2ec69e945244890c",
  "version": 2,
  "locktime": 0,
  "vin": [
    {
      "txid": "b796b8092a4ec4ef8621a70ca5f2b422ef074380bb0486d999bfde5e8ffbf0c0",
      "vout": 1,
      "prevout": {
        "scriptpubkey": "0014235d69514547f520ec45154589c9263ab71ee4f7",
        "scriptpubkey_asm": "OP_0 OP_PUSHBYTES_20 235d69514547f520ec45154589c9263ab71ee4f7",
        "scriptpubkey_type": "v0_p2wpkh",
        "scriptpubkey_address": "bc1qydwkj529gl6jpmz9z4zcnjfx82m3ae8hesdew6",
        "value": 10442682
      },
      "scriptsig": "",
      "scriptsig_asm": "",
      "witness": [
        "3044022033c2f54b0a85d4f239d268a27d60420a033a0b089123db3b17fb2b1158945e7c02202419fa50a6b5718c26aba9a045f90147f2ac014b66b3682d87f278f4ebde1e2101",
        "02bf0622f9699f0aeea7d9d9ab3eddf6ca0f6e8dce72894e9065ba1d38498254aa"
      ],
      "is_coinbase": false,
      "sequence": 4294967295
    },
    {
      "txid": "d7e2122353836ceed51c802c078b3dea01810954c4d40926304cf26cb6711f32",
      "vout": 1,
      "prevout": {
        "scriptpubkey": "001427cff81c6654a7b9b6b8f2481ede53f6d8ac18fe",
        "scriptpubkey_asm": "OP_0 OP_PUSHBYTES_20 27cff81c6654a7b9b6b8f2481ede53f6d8ac18fe",
        "scriptpubkey_type": "v0_p2wpkh",
        "scriptpubkey_address": "bc1qyl8ls8rx2jnmnd4c7fypahjn7mv2cx87hjvk2s",
        "value": 200599555
      },
      "scriptsig": "",
      "scriptsig_asm": "",
      "witness": [
        "304402202d63dee43be05916d9fc289ab6a36a632a7b06c9b9f7caba0dfe080ea134bc7c0220163c78854024b5a8dda2c149bf7024a356dc623f5062d9dc7e37f5056b629b0601",
        "02f58aab02c752e51e8238ac7150ded5ce8b392d94c384efed222ac76d24ea6370"
      ],
      "is_coinbase": false,
      "sequence": 4294967295
    }
  ],
  "vout": [
    {
      "scriptpubkey": "00144cb8b94433a4dd755f4cff1a906f368f7b28966a",
      "scriptpubkey_asm": "OP_0 OP_PUSHBYTES_20 4cb8b94433a4dd755f4cff1a906f368f7b28966a",
      "scriptpubkey_type": "v0_p2wpkh",
      "scriptpubkey_address": "bc1qfjutj3pn5nwh2h6vludfqmek3aaj39n2gzad8s",
      "value": 211036007
    }
  ],
  "size": 339,
  "weight": 708,
  "fee": 6230,
  "status": {
    "confirmed": true,
    "block_height": 834638,
    "block_hash": "000000000000000000025f742c626208ac87e0b7d15054abb4a19ca2d735a54e",
    "block_time": 1710405325
  },
  "hex": "02000000000102c0f0fb8f5edebf99d98604bb804307ef22b4f2a50ca72186efc44e2a09b896b70100000000ffffffff321f71b66cf24c302609d4c454098101ea3d8b072c801cd5ee6c83532312e2d70100000000ffffffff016727940c000000001600144cb8b94433a4dd755f4cff1a906f368f7b28966a02473044022033c2f54b0a85d4f239d268a27d60420a033a0b089123db3b17fb2b1158945e7c02202419fa50a6b5718c26aba9a045f90147f2ac014b66b3682d87f278f4ebde1e21012102bf0622f9699f0aeea7d9d9ab3eddf6ca0f6e8dce72894e9065ba1d38498254aa0247304402202d63dee43be05916d9fc289ab6a36a632a7b06c9b9f7caba0dfe080ea134bc7c0220163c78854024b5a8dda2c149bf7024a356dc623f5062d9dc7e37f5056b629b06012102f58aab02c752e51e8238ac7150ded5ce8b392d94c384efed222ac76d24ea637000000000"
}