{
  "txid": "42f9674f74d582eee387396d1b9e5ab7d82de80e30b2258a79eab8343129b81b",
  "version": 1,
  "locktime": 0,
  "vin": [
    {
      "txid": "45e19c82868d972103ae4ab112ce2a42fea1b81c8f4558fe6d2fe20cb4268e42",
      "vout": 1,
      "prevout": {
        "scriptpubkey": "001455d8f0f03c08188ee0d6f80b49d6c395c1572467",
        "scriptpubkey_asm": "OP_0 OP_PUSHBYTES_20 55d8f0f03c08188ee0d6f80b49d6c395c1572467",
        "scriptpubkey_type": "v0_p2wpkh",
        "scriptpubkey_address": "bc1q2hv0pupupqvgacxklq95n4krjhq4wfr8826ps6",
        "value": 728724
      },
      "scriptsig": "",
      "scriptsig_asm": "",
      "witness": [
        "304402204bd9d47b0c7c7f4e88c21da83da094fbea2275465a31f6b10570130baf7285dd02203d14d315e16d853b96d7ac9a0ee1aab651c72a3bf36be12cb88615528e5f2cc301",
        "022b5f5cbc421e09e9b42768575cb94ef83ee00e2aae56583f2e6f87f3b0c99e08"
      ],
      "is_coinbase": false,
      "sequence": 4294967295
    }
  ],
  "vout": [
    {
      "scriptpubkey": "0014237d5fe1fed969efceb1dd66af3b0c0a30c5444d",
      "scriptpubkey_asm": "OP_0 OP_PUSHBYTES_20 237d5fe1fed969efceb1dd66af3b0c0a30c5444d",
      "scriptpubkey_type": "v0_p2wpkh",
      "scriptpubkey_address": "bc1qyd74lc07m957ln43m4n27wcvpgcv23zd5hptmh",
      "value": 136100
    },
    {
      "scriptpubkey": "00145cda9b641603e84cea525411f0b29687855ccaea",
      "scriptpubkey_asm": "OP_0 OP_PUSHBYTES_20 5cda9b641603e84cea525411f0b29687855ccaea",
      "scriptpubkey_type": "v0_p2wpkh",
      "scriptpubkey_address": "bc1qtndfkeqkq05ye6jj2sglpv5ks7z4ejh25q3g7u",
      "value": 590527
    }
  ],
  "size": 222,
  "weight": 561,
  "fee": 2097,
  "status": {
    "confirmed": true,
    "block_height": 834638,
    "block_hash": "000000000000000000025f742c626208ac87e0b7d15054abb4a19ca2d735a54e",
    "block_time": 1710405325
  },
  "hex": "01000000000101428e26b40ce22f6dfe58458f1cb8a1fe422ace12b14aae0321978d86829ce1450100000000ffffffff02a413020000000000160014237d5fe1fed969efceb1dd66af3b0c0a30c5444dbf020900000000001600145cda9b641603e84cea525411f0b29687855ccaea0247304402204bd9d47b0c7c7f4e88c21da83da094fbea2275465a31f6b10570130baf7285dd02203d14d315e16d853b96d7ac9a0ee1aab651c72a3bf36be12cb88615528e5f2cc30121022b5f5cbc421e09e9b42768575cb94ef83ee00e2aae56583f2e6f87f3b0c99e0800000000"
}