{
  "txid": "42fb4252f03aef5d460299d694eaa45095482fb59282600c4095a9fe3aebd2b8",
  "version": 2,
  "locktime": 0,
  "vin": [
    {
      "txid": "5eac5155a9fac4e3f34fd03d31dd970e3d13de3312563403e2b8f022ece200a9",
      "vout": 5,
      "prevout": {
        "scriptpubkey": "0014cc25ac8ddaf6596c21d9fefe9f6db95ed68b9a65",
        "scriptpubkey_asm": "OP_0 OP_PUSHBYTES_20 cc25ac8ddaf6596c21d9fefe9f6db95ed68b9a65",
        "scriptpubkey_type": "v0_p2wpkh",
        "scriptpubkey_address": "bc1qesj6erw67evkcgwelmlf7mdetmtghxn96j9kx8",
        "value": 7606205
      },
      "scriptsig": "",
      "scriptsig_asm": "",
      "witness": [
        "3045022100a466b75a3ae8d62299ad80fb372de5f5c49c5ada68ba70c3eb279112c8986c4c02202e378835edd2c0a8c3cf3a0bea736ba37783b5b13b5d9fae99abdd4a625b4a7a01",
        "0277e18cf69c853ae1f198f13205d6eb576b0d611790c28fb88de4335af361e325"
      ],
      "is_coinbase": false,
      "sequence": 4294967295
    },
    {
      "txid": "ef63a45ffefc42e6f7db8fa59f42757af54ea94964b705711c140bfaf3fb97f5",
      "vout": 1,
      "prevout": {
        "scriptpubkey": "0014b51edec44d8bd4ffe0745b2c8d2915a4ae1bfed5",
        "scriptpubkey_asm": "OP_0 OP_PUSHBYTES_20 b51edec44d8bd4ffe0745b2c8d2915a4ae1bfed5",
        "scriptpubkey_type": "v0_p2wpkh",
        "scriptpubkey_address": "bc1qk50da3zd3020lcr5tvkg62g45jhphlk4v7qrxh",
        "value": 34258
      },
      "scriptsig": "",
      "scriptsig_asm": "",
      "witness": [
        "304502210096b3fab747c554bde39f6bda38a62bd6da249ea626565301691d0218a1ea7caf022017703aa18ac8da40c9517d95215b5881a5023baa68751b0b0ea925789c1913d801",
        "0258ad87e926179f5d9ea2b9e2bc520b162a2dd5b92058595b4cb04fdde69da3d0"
      ],
      "is_coinbase": false,
      "sequence": 4294967295
    }
  ],
  "vout": [
    {
      "scriptpubkey": "0014c78e4eedc092184c8553891d9c6ebf103afc4088",
      "scriptpubkey_asm": "OP_0 OP_PUSHBYTES_20 c78e4eedc092184c8553891d9c6ebf103afc4088",
      "scriptpubkey_type": "v0_p2wpkh",
      "scriptpubkey_address": "bc1qc78yamwqjgvyep2n3ywecm4lzqa0csygk8v6gf",
      "value": 7636913
    }
  ],
  "size": 341,
  "weight": 710,
  "fee": 3550,
  "status": {
    "confirmed": true,
    "block_height": 834638,
    "block_hash": "000000000000000000025f742c626208ac87e0b7d15054abb4a19ca2d735a54e",
    "block_time": 1710405325
  },
  "hex": "02000000000102a900e2ec22f0b8e20334561233de133d0e97dd313dd04ff3e3c4faa95551ac5e0500000000fffffffff597fbf3fa0b141c7105b76449a94ef57a75429fa58fdbf7e642fcfe5fa463ef0100000000ffffffff01b187740000000000160014c78e4eedc092184c8553891d9c6ebf103afc408802483045022100a466b75a3ae8d62299ad80fb372de5f5c49c5ada68ba70c3eb279112c8986c4c02202e378835edd2c0a8c3cf3a0bea736ba37783b5b13b5d9fae99abdd4a625b4a7a01210277e18cf69c853ae1f198f13205d6eb576b0d611790c28fb88de4335af361e3250248304502210096b3fab747c554bde39f6bda38a62bd6da249ea626565301691d0218a1ea7caf022017703aa18ac8da40c9517d95215b5881a5023baa68751b0b0ea925789c1913d801210258ad87e926179f5d9ea2b9e2bc520b162a2dd5b92058595b4cb04fdde69da3d000000000"
}