{
  "txid": "430ab6a8fb6781286c80dd543519aa3a3991aca37564ab3c7fb8260823dbcd0c",
  "version": 2,
  "locktime": 834458,
  "vin": [
    {
      "txid": "03108ea503040bfdaaa0a78e79ad8dc090013f1297a1731ac1095c0793166c66",
      "vout": 0,
      "prevout": {
        "scriptpubkey": "001488afe4dc360f004d4267479efa1df5ea96eb8d2c",
        "scriptpubkey_asm": "OP_0 OP_PUSHBYTES_20 88afe4dc360f004d4267479efa1df5ea96eb8d2c",
        "scriptpubkey_type": "v0_p2wpkh",
        "scriptpubkey_address": "bc1q3zh7fhpkpuqy6sn8g7005804a2twhrfvcvj0ql",
        "value": 45886255
      },
      "scriptsig": "",
      "scriptsig_asm": "",
      "witness": [
        "304402201ca332e10bb7feeb012771ca2a512b81f7cc1a68eddc68f39999a68edf5f602d022068edd435b07e2f01a3c30151f5cb2e459ed02f0a5f529bf037efb9d20775dcdb01",
        "02b93199ab76d7b4950e7aacff8f967741f7184801ada7a9a2c08272efd2643993"
      ],
      "is_coinbase": false,
      "sequence": 4294967293
    }
  ],
  "vout": [
    {
      "scriptpubkey": "001448ce1e040f286e7f63f4636ee49073d783af9362",
      "scriptpubkey_asm": "OP_0 OP_PUSHBYTES_20 48ce1e040f286e7f63f4636ee49073d783af9362",
      "scriptpubkey_type": "v0_p2wpkh",
      "scriptpubkey_address": "bc1qfr8pupq09ph87cl5vdhwfyrn67p6lymz4yhgjp",
      "value": 45820567
    },
    {
      "scriptpubkey": "0014d0fdf87740a1f197e39a4622e82bdb642aa3679a",
      "scriptpubkey_asm": "OP_0 OP_PUSHBYTES_20 d0fdf87740a1f197e39a4622e82bdb642aa3679a",
      "scriptpubkey_type": "v0_p2wpkh",
      "scriptpubkey_address": "bc1q6r7lsa6q58ce0cu6gc3ws27mvs42xeu6xefy7r",
      "value": 63700
    }
  ],
  "size": 222,
  "weight": 561,
  "fee": 1988,
  "status": {
    "confirmed": true,
    "block_height": 834460,
    "block_hash": "00000000000000000000484a79b643b2524bbce82e5d8a442013fa5b8905ed98",
    "block_time": 1710307468
  },
  "hex": "02000000000101666c1693075c09c11a73a197123f0190c08dad798ea7a0aafd0b0403a58e10030000000000fdffffff02972abb020000000016001448ce1e040f286e7f63f4636ee49073d783af9362d4f8000000000000160014d0fdf87740a1f197e39a4622e82bdb642aa3679a0247304402201ca332e10bb7feeb012771ca2a512b81f7cc1a68eddc68f39999a68edf5f602d022068edd435b07e2f01a3c30151f5cb2e459ed02f0a5f529bf037efb9d20775dcdb012102b93199ab76d7b4950e7aacff8f967741f7184801ada7a9a2c08272efd26439939abb0c00"
}