{
  "txid": "430ad43cc8a346203d5ec8432a11f7fb6e75fdc44f255fd9d80eb5bf1acf19fd",
  "version": 2,
  "locktime": 0,
  "vin": [
    {
      "txid": "acc3ba00869acb582a3f2904ce3a11dd3779350ce234063fc7d0959246213364",
      "vout": 208,
      "prevout": {
        "scriptpubkey": "51206b959c034a26baf52ad9233043f4e07546586df9141d83690cec4c2b2066ac7d",
        "scriptpubkey_asm": "OP_PUSHNUM_1 OP_PUSHBYTES_32 6b959c034a26baf52ad9233043f4e07546586df9141d83690cec4c2b2066ac7d",
        "scriptpubkey_type": "v1_p2tr",
        "scriptpubkey_address": "bc1pdw2ecq62y6a022keyvcy8a8qw4r9sm0ezswcx6gva3xzkgrx437sj924un",
        "value": 1806
      },
      "scriptsig": "",
      "scriptsig_asm": "",
      "witness": [
        "a7f0d42337519c6b859445cf4d30e8c62d8a49494032a3fab3ad733d72bb97b03379e42c3283b6ee04cc4588fd596e4ed4e662bff25e45b222d22a68b52a66a1",
        "207500046392be49bd04c5cb687d2d5c367743d1762d933c4eb7dfd40ebbb775daac0063036f726401010a746578742f706c61696e00357b2270223a226272632d3230222c226f70223a226d696e74222c227469636b223a22646f6765222c22616d74223a2234323030227d68",
        "c07500046392be49bd04c5cb687d2d5c367743d1762d933c4eb7dfd40ebbb775da"
      ],
      "is_coinbase": false,
      "sequence": 4261412863
    }
  ],
  "vout": [
    {
      "scriptpubkey": "00147a665de7a370f4c9b372ab1fae587500a5bcbdb4",
      "scriptpubkey_asm": "OP_0 OP_PUSHBYTES_20 7a665de7a370f4c9b372ab1fae587500a5bcbdb4",
      "scriptpubkey_type": "v0_p2wpkh",
      "scriptpubkey_address": "bc1q0fn9mearwr6vnvmj4v06ukr4qzjme0d565dzcx",
      "value": 294
    }
  ],
  "size": 294,
  "weight": 540,
  "fee": 1512,
  "status": {
    "confirmed": true,
    "block_height": 834460,
    "block_hash": "00000000000000000000484a79b643b2524bbce82e5d8a442013fa5b8905ed98",
    "block_time": 1710307468
  },
  "hex": "02000000000101643321469295d0c73f0634e20c357937dd113ace04293f2a58cb9a8600bac3acd000000000fffffffd0126010000000000001600147a665de7a370f4c9b372ab1fae587500a5bcbdb40340a7f0d42337519c6b859445cf4d30e8c62d8a49494032a3fab3ad733d72bb97b03379e42c3283b6ee04cc4588fd596e4ed4e662bff25e45b222d22a68b52a66a16d207500046392be49bd04c5cb687d2d5c367743d1762d933c4eb7dfd40ebbb775daac0063036f726401010a746578742f706c61696e00357b2270223a226272632d3230222c226f70223a226d696e74222c227469636b223a22646f6765222c22616d74223a2234323030227d6821c07500046392be49bd04c5cb687d2d5c367743d1762d933c4eb7dfd40ebbb775da00000000"
}