{
  "txid": "432ab9b414968295f7357b75c9d4c124e0b86b547233dfea5c86a51ff59468c1",
  "version": 1,
  "locktime": 0,
  "vin": [
    {
      "txid": "82aed47aeeaec241898c35e4bbb327f53a4b7120a40d43779c23e8d2df291d98",
      "vout": 0,
      "prevout": {
        "scriptpubkey": "51201b5cec42b8cde75e43e05a3554b399e794401d7e83c1b4c8577cf33e1e7a29f6",
        "scriptpubkey_asm": "OP_PUSHNUM_1 OP_PUSHBYTES_32 1b5cec42b8cde75e43e05a3554b399e794401d7e83c1b4c8577cf33e1e7a29f6",
        "scriptpubkey_type": "v1_p2tr",
        "scriptpubkey_address": "bc1prdwwcs4cehn4uslqtg64fvueu72yq8t7s0qmfjzh0nenu8n698mqny9t36",
        "value": 454452
      },
      "scriptsig": "",
      "scriptsig_asm": "",
      "witness": [
        "62e762c967101d1d972a79f0b21eb92fee8da8b8a31595a26fb95e0446ce9d605b8fc96342e7fe937198676b951bfd19aa90a02305dd7f469b234fb2d554312601"
      ],
      "is_coinbase": false,
      "sequence": 4294967295
    }
  ],
  "vout": [
    {
      "scriptpubkey": "51204a93d8c89fe1217e5f8b2a3922518e19c0cae6a484aa4808420f8265326bc040",
      "scriptpubkey_asm": "OP_PUSHNUM_1 OP_PUSHBYTES_32 4a93d8c89fe1217e5f8b2a3922518e19c0cae6a484aa4808420f8265326bc040",
      "scriptpubkey_type": "v1_p2tr",
      "scriptpubkey_address": "bc1pf2fa3jyluyshuhut9gujy5vwr8qv4e4ysj4yszzzp7px2vntcpqqp77prg",
      "value": 424885
    },
    {
      "scriptpubkey": "a914009736f2c168ffa480dd98c7bd1e0a780c102e3f87",
      "scriptpubkey_asm": "OP_HASH160 OP_PUSHBYTES_20 009736f2c168ffa480dd98c7bd1e0a780c102e3f OP_EQUAL",
      "scriptpubkey_type": "p2sh",
      "scriptpubkey_address": "31k957z8jKNzCmLt2NESnhNAQr3rkBnUwx",
      "value": 28000
    }
  ],
  "size": 195,
  "weight": 573,
  "fee": 1567,
  "status": {
    "confirmed": true,
    "block_height": 834464,
    "block_hash": "0000000000000000000177a0869a911a2b65c9bdcd5a8bcb02b68f305bee848e",
    "block_time": 1710308296
  },
  "hex": "01000000000101981d29dfd2e8239c77430da420714b3af527b3bbe4358c8941c2aeee7ad4ae820000000000ffffffff02b57b0600000000002251204a93d8c89fe1217e5f8b2a3922518e19c0cae6a484aa4808420f8265326bc040606d00000000000017a914009736f2c168ffa480dd98c7bd1e0a780c102e3f87014162e762c967101d1d972a79f0b21eb92fee8da8b8a31595a26fb95e0446ce9d605b8fc96342e7fe937198676b951bfd19aa90a02305dd7f469b234fb2d55431260100000000"
}