{
  "txid": "434a190af4c77d79979d2d21602f5142851f9bba256446dd7d31a7b311999b99",
  "version": 2,
  "locktime": 0,
  "vin": [
    {
      "txid": "87fb548a7b44401c9879a0a05382cd592438e59102010c1701ca75d538d11da6",
      "vout": 0,
      "prevout": {
        "scriptpubkey": "51206cc32bcb6894502f155a0fa8a762d8ea0e3d80b28b668669718788370158cc06",
        "scriptpubkey_asm": "OP_PUSHNUM_1 OP_PUSHBYTES_32 6cc32bcb6894502f155a0fa8a762d8ea0e3d80b28b668669718788370158cc06",
        "scriptpubkey_type": "v1_p2tr",
        "scriptpubkey_address": "bc1pdnpjhjmgj3gz7926p752wckcag8rmq9j3dngv6t3s7yrwq2cesrqqynn4x",
        "value": 47000
      },
      "scriptsig": "",
      "scriptsig_asm": "",
      "witness": [
        "5b9e4858150b6085fda3b46e1c6effdc0f876ba2128c465d2b019f048b2a4c3c0fcefc65d19ac78402b2c431bd7ded0b062d60c854110786fbf93e2ba59cb308",
        "20e4e9c363c473ab516016d2b1af9eea63f50e12b868e57baa74e2f0f53e166756ac0063036f726401011e6170706c69636174696f6e2f6a736f6e3b636861727365743d7574662d38004cd37b2270223a22706f772d3230222c226f70223a226d696e74222c227469636b223a2250455045222c22616d74223a2231303030222c22736f6c7574696f6e223a22504550453a6263317034346572347876306c6430706c6a3779346c6a71307536617433747936773234356c7961366173337474367578747039716c79737637327161613a303030303030303030303030303030303030303139393431613561653132383937363539383134343239323533333030353762306461393666336465613163353a3637343633383734363636227d68",
        "c0f9337ae8d846120319842204c8fa6fb30a2d36b39aa08502370b80ec3c9c59a9"
      ],
      "is_coinbase": false,
      "sequence": 4294967293
    }
  ],
  "vout": [
    {
      "scriptpubkey": "5120ad723a998ffb5e1fcbc4afe407f35d5c564d3955a7c9dd76115af5c32c2507c9",
      "scriptpubkey_asm": "OP_PUSHNUM_1 OP_PUSHBYTES_32 ad723a998ffb5e1fcbc4afe407f35d5c564d3955a7c9dd76115af5c32c2507c9",
      "scriptpubkey_type": "v1_p2tr",
      "scriptpubkey_address": "bc1p44er4xv0ld0plj7y4ljq0u6at3ty6w245lya6as3tt6uxtp9qlysv72qaa",
      "value": 546
    },
    {
      "scriptpubkey": "5120eb3d5e360471c9489ef8a61263e1fe43683ad61fab64f76c9593ccba96e3d24f",
      "scriptpubkey_asm": "OP_PUSHNUM_1 OP_PUSHBYTES_32 eb3d5e360471c9489ef8a61263e1fe43683ad61fab64f76c9593ccba96e3d24f",
      "scriptpubkey_type": "v1_p2tr",
      "scriptpubkey_address": "bc1pav74udsyw8y538hc5cfx8c07gd5r44sl4dj0wmy4j0xt49hr6f8skwl94m",
      "value": 3248
    },
    {
      "scriptpubkey": "5120974d411930d774e8aa18f9dcc10c2cda1328174a1f75f51326e29babf2860db0",
      "scriptpubkey_asm": "OP_PUSHNUM_1 OP_PUSHBYTES_32 974d411930d774e8aa18f9dcc10c2cda1328174a1f75f51326e29babf2860db0",
      "scriptpubkey_type": "v1_p2tr",
      "scriptpubkey_address": "bc1pjax5zxfs6a6w32scl8wvzrpvmgfjs962ra6l2yexu2d6hu5xpkcqzflwzd",
      "value": 3248
    },
    {
      "scriptpubkey": "5120cef4c35791b33f0e765665462586b96cd60430ce2079bafce661fde2f29d4a50",
      "scriptpubkey_asm": "OP_PUSHNUM_1 OP_PUSHBYTES_32 cef4c35791b33f0e765665462586b96cd60430ce2079bafce661fde2f29d4a50",
      "scriptpubkey_type": "v1_p2tr",
      "scriptpubkey_address": "bc1pem6vx4u3kvlsuajkv4rztp4edntqgvxwypum4l8xv8779u5affgq4glgc0",
      "value": 3248
    },
    {
      "scriptpubkey": "512092adad0b8e8a4d940f3db7156a0910ba3f70cd79b365902280bc2bc035ceca14",
      "scriptpubkey_asm": "OP_PUSHNUM_1 OP_PUSHBYTES_32 92adad0b8e8a4d940f3db7156a0910ba3f70cd79b365902280bc2bc035ceca14",
      "scriptpubkey_type": "v1_p2tr",
      "scriptpubkey_address": "bc1pj2k66zuw3fxegreaku2k5zgshglhpntekdjeqg5qhs4uqdwweg2q48k4qp",
      "value": 3248
    },
    {
      "scriptpubkey": "5120f85b5a46db195d5dd60dc05d3042b15d80b8aa2817ee7199623c3ff82d8f3f8f",
      "scriptpubkey_asm": "OP_PUSHNUM_1 OP_PUSHBYTES_32 f85b5a46db195d5dd60dc05d3042b15d80b8aa2817ee7199623c3ff82d8f3f8f",
      "scriptpubkey_type": "v1_p2tr",
      "scriptpubkey_address": "bc1plpd453kmr9w4m4sdcpwnqs43tkqt323gzlh8rxtz8sllstv0878s5906ck",
      "value": 3248
    },
    {
      "scriptpubkey": "51201d626218978256ef36c71b4abb95ee108ce999275fa302a283552a55299a9ca0",
      "scriptpubkey_asm": "OP_PUSHNUM_1 OP_PUSHBYTES_32 1d626218978256ef36c71b4abb95ee108ce999275fa302a283552a55299a9ca0",
      "scriptpubkey_type": "v1_p2tr",
      "scriptpubkey_address": "bc1pr43xyxyhsftw7dk8rd9th90wzzxwnxf8t73s9g5r254922v6njsqrl86lq",
      "value": 3234
    },
    {
      "scriptpubkey": "512080cd81f9d7d3604f266509c5973d9d193ad2f4a57e4b88e55e729b7476bd7802",
      "scriptpubkey_asm": "OP_PUSHNUM_1 OP_PUSHBYTES_32 80cd81f9d7d3604f266509c5973d9d193ad2f4a57e4b88e55e729b7476bd7802",
      "scriptpubkey_type": "v1_p2tr",
      "scriptpubkey_address": "bc1psrxcr7wh6dsy7fn9p8zew0varyad9a990e9c3e27w2dhga4a0qpq8fxrxf",
      "value": 3234
    },
    {
      "scriptpubkey": "00149e166a0b5a158e4e983c007841a21ab2ce0c4d12",
      "scriptpubkey_asm": "OP_0 OP_PUSHBYTES_20 9e166a0b5a158e4e983c007841a21ab2ce0c4d12",
      "scriptpubkey_type": "v0_p2wpkh",
      "scriptpubkey_address": "bc1qnctx5z66zk8yaxpuqpuyrgs6kt8qcngj56z0my",
      "value": 16396
    }
  ],
  "size": 819,
  "weight": 2097,
  "fee": 7350,
  "status": {
    "confirmed": true,
    "block_height": 834460,
    "block_hash": "00000000000000000000484a79b643b2524bbce82e5d8a442013fa5b8905ed98",
    "block_time": 1710307468
  },
  "hex": "02000000000101a61dd138d575ca01170c010291e5382459cd8253a0a079981c40447b8a54fb870000000000fdffffff092202000000000000225120ad723a998ffb5e1fcbc4afe407f35d5c564d3955a7c9dd76115af5c32c2507c9b00c000000000000225120eb3d5e360471c9489ef8a61263e1fe43683ad61fab64f76c9593ccba96e3d24fb00c000000000000225120974d411930d774e8aa18f9dcc10c2cda1328174a1f75f51326e29babf2860db0b00c000000000000225120cef4c35791b33f0e765665462586b96cd60430ce2079bafce661fde2f29d4a50b00c00000000000022512092adad0b8e8a4d940f3db7156a0910ba3f70cd79b365902280bc2bc035ceca14b00c000000000000225120f85b5a46db195d5dd60dc05d3042b15d80b8aa2817ee7199623c3ff82d8f3f8fa20c0000000000002251201d626218978256ef36c71b4abb95ee108ce999275fa302a283552a55299a9ca0a20c00000000000022512080cd81f9d7d3604f266509c5973d9d193ad2f4a57e4b88e55e729b7476bd78020c400000000000001600149e166a0b5a158e4e983c007841a21ab2ce0c4d1203405b9e4858150b6085fda3b46e1c6effdc0f876ba2128c465d2b019f048b2a4c3c0fcefc65d19ac78402b2c431bd7ded0b062d60c854110786fbf93e2ba59cb308fd200120e4e9c363c473ab516016d2b1af9eea63f50e12b868e57baa74e2f0f53e166756ac0063036f726401011e6170706c69636174696f6e2f6a736f6e3b636861727365743d7574662d38004cd37b2270223a22706f772d3230222c226f70223a226d696e74222c227469636b223a2250455045222c22616d74223a2231303030222c22736f6c7574696f6e223a22504550453a6263317034346572347876306c6430706c6a3779346c6a71307536617433747936773234356c7961366173337474367578747039716c79737637327161613a303030303030303030303030303030303030303139393431613561653132383937363539383134343239323533333030353762306461393666336465613163353a3637343633383734363636227d6821c0f9337ae8d846120319842204c8fa6fb30a2d36b39aa08502370b80ec3c9c59a900000000"
}