{
  "txid": "436fb16b2b2209a1d1a794ca8abf4dff360277e28d76a13e34604126cbbfe2a7",
  "version": 2,
  "locktime": 0,
  "vin": [
    {
      "txid": "acc3ba00869acb582a3f2904ce3a11dd3779350ce234063fc7d0959246213364",
      "vout": 48,
      "prevout": {
        "scriptpubkey": "512091384286dae91fce1828fd0655b3a35475dfb976d75d17c44d8037c2bb7a796d",
        "scriptpubkey_asm": "OP_PUSHNUM_1 OP_PUSHBYTES_32 91384286dae91fce1828fd0655b3a35475dfb976d75d17c44d8037c2bb7a796d",
        "scriptpubkey_type": "v1_p2tr",
        "scriptpubkey_address": "bc1pjyuy9pk6ay0uuxpgl5r9tvar236alwtk6aw303zdsqmu9wm609ksmdeqfd",
        "value": 1806
      },
      "scriptsig": "",
      "scriptsig_asm": "",
      "witness": [
        "d4468256cd15b2906c9c1a1fa21f76d35961869fce64ee5af5569270e6e624be6dc2c562a06b4f3d6831d848e607c4d6404fa5c0534c47c16bdda9e1f0c7a0a2",
        "208165372d7b52caea80d95e1352253f7fd6481da52c5aa602f7c439e5e3290f5cac0063036f726401010a746578742f706c61696e00357b2270223a226272632d3230222c226f70223a226d696e74222c227469636b223a22646f6765222c22616d74223a2234323030227d68",
        "c18165372d7b52caea80d95e1352253f7fd6481da52c5aa602f7c439e5e3290f5c"
      ],
      "is_coinbase": false,
      "sequence": 4261412863
    }
  ],
  "vout": [
    {
      "scriptpubkey": "00147a665de7a370f4c9b372ab1fae587500a5bcbdb4",
      "scriptpubkey_asm": "OP_0 OP_PUSHBYTES_20 7a665de7a370f4c9b372ab1fae587500a5bcbdb4",
      "scriptpubkey_type": "v0_p2wpkh",
      "scriptpubkey_address": "bc1q0fn9mearwr6vnvmj4v06ukr4qzjme0d565dzcx",
      "value": 294
    }
  ],
  "size": 294,
  "weight": 540,
  "fee": 1512,
  "status": {
    "confirmed": true,
    "block_height": 834460,
    "block_hash": "00000000000000000000484a79b643b2524bbce82e5d8a442013fa5b8905ed98",
    "block_time": 1710307468
  },
  "hex": "02000000000101643321469295d0c73f0634e20c357937dd113ace04293f2a58cb9a8600bac3ac3000000000fffffffd0126010000000000001600147a665de7a370f4c9b372ab1fae587500a5bcbdb40340d4468256cd15b2906c9c1a1fa21f76d35961869fce64ee5af5569270e6e624be6dc2c562a06b4f3d6831d848e607c4d6404fa5c0534c47c16bdda9e1f0c7a0a26d208165372d7b52caea80d95e1352253f7fd6481da52c5aa602f7c439e5e3290f5cac0063036f726401010a746578742f706c61696e00357b2270223a226272632d3230222c226f70223a226d696e74222c227469636b223a22646f6765222c22616d74223a2234323030227d6821c18165372d7b52caea80d95e1352253f7fd6481da52c5aa602f7c439e5e3290f5c00000000"
}