{
  "txid": "43720b29d4ac9786351c6c6dbf88baaf671e28fa7da379d36b257dd5f9ac5069",
  "version": 1,
  "locktime": 0,
  "vin": [
    {
      "txid": "495b60e1e1f8b267891ac31e976d36fecc4bb16203ce81046230f5b926804d47",
      "vout": 23,
      "prevout": {
        "scriptpubkey": "76a914863be99a3e14ac8903413f4093b1b26653a7402288ac",
        "scriptpubkey_asm": "OP_DUP OP_HASH160 OP_PUSHBYTES_20 863be99a3e14ac8903413f4093b1b26653a74022 OP_EQUALVERIFY OP_CHECKSIG",
        "scriptpubkey_type": "p2pkh",
        "scriptpubkey_address": "1DEmKVy6yT6uunSi9TKScn3bm3QHAy5jeR",
        "value": 11385699
      },
      "scriptsig": "48304502210094e2564fcf0227fc3f87022c536cb4d8dbfb6acd227ca4eb9242c1883fc5bdc70220583d784b2aef1bfd67a18011ac2815c9a9ec6ee5a9dcbd86c25d3120ef09a1e80121024de61fa02a5cbd1529943b5dfac851f5acb5f4c0ba4f7baa589a2e2672f8d9c5",
      "scriptsig_asm": "OP_PUSHBYTES_72 304502210094e2564fcf0227fc3f87022c536cb4d8dbfb6acd227ca4eb9242c1883fc5bdc70220583d784b2aef1bfd67a18011ac2815c9a9ec6ee5a9dcbd86c25d3120ef09a1e801 OP_PUSHBYTES_33 024de61fa02a5cbd1529943b5dfac851f5acb5f4c0ba4f7baa589a2e2672f8d9c5",
      "is_coinbase": false,
      "sequence": 4294967295
    },
    {
      "txid": "a4e396cfafde4447c16a03ad32df33b5458697e81c6dc880ab4c30eaeb4d93f1",
      "vout": 1,
      "prevout": {
        "scriptpubkey": "76a9148dc54565754eab359f43e7d23dcf242d15dd262588ac",
        "scriptpubkey_asm": "OP_DUP OP_HASH160 OP_PUSHBYTES_20 8dc54565754eab359f43e7d23dcf242d15dd2625 OP_EQUALVERIFY OP_CHECKSIG",
        "scriptpubkey_type": "p2pkh",
        "scriptpubkey_address": "1DvcbgcYBxWhzRfgXD4K4AddiVYCUo4Q6C",
        "value": 5531
      },
      "scriptsig": "473044022025d61ff147d49b4d81958e1574934f3b2b41885bf70ceda8a729ebca24c668c702203880858f1cd67b16ac3a13ba4a4d8bdc35c8fa94e74f69414b7e476bc9bc997c0121023294aab50d885689bbd78626201654024ffda007581c31cdccb58abd9103a674",
      "scriptsig_asm": "OP_PUSHBYTES_71 3044022025d61ff147d49b4d81958e1574934f3b2b41885bf70ceda8a729ebca24c668c702203880858f1cd67b16ac3a13ba4a4d8bdc35c8fa94e74f69414b7e476bc9bc997c01 OP_PUSHBYTES_33 023294aab50d885689bbd78626201654024ffda007581c31cdccb58abd9103a674",
      "is_coinbase": false,
      "sequence": 4294967295
    }
  ],
  "vout": [
    {
      "scriptpubkey": "76a914130d1e9dd6d7388e668c88ac120c3f51ca0c854388ac",
      "scriptpubkey_asm": "OP_DUP OP_HASH160 OP_PUSHBYTES_20 130d1e9dd6d7388e668c88ac120c3f51ca0c8543 OP_EQUALVERIFY OP_CHECKSIG",
      "scriptpubkey_type": "p2pkh",
      "scriptpubkey_address": "12jjZDCQ1MPvYxhtjbFhqgunW7SwdXyp8s",
      "value": 11386442
    }
  ],
  "size": 339,
  "weight": 1356,
  "fee": 4788,
  "status": {
    "confirmed": true,
    "block_height": 834460,
    "block_hash": "00000000000000000000484a79b643b2524bbce82e5d8a442013fa5b8905ed98",
    "block_time": 1710307468
  },
  "hex": "0100000002474d8026b9f530620481ce0362b14bccfe366d971ec31a8967b2f8e1e1605b49170000006b48304502210094e2564fcf0227fc3f87022c536cb4d8dbfb6acd227ca4eb9242c1883fc5bdc70220583d784b2aef1bfd67a18011ac2815c9a9ec6ee5a9dcbd86c25d3120ef09a1e80121024de61fa02a5cbd1529943b5dfac851f5acb5f4c0ba4f7baa589a2e2672f8d9c5fffffffff1934debea304cab80c86d1ce8978645b533df32ad036ac14744deafcf96e3a4010000006a473044022025d61ff147d49b4d81958e1574934f3b2b41885bf70ceda8a729ebca24c668c702203880858f1cd67b16ac3a13ba4a4d8bdc35c8fa94e74f69414b7e476bc9bc997c0121023294aab50d885689bbd78626201654024ffda007581c31cdccb58abd9103a674ffffffff014abead00000000001976a914130d1e9dd6d7388e668c88ac120c3f51ca0c854388ac00000000"
}