{
  "txid": "43808ea15c0768a439eae86997a0cce7ae6ef7b9a906cb8f126ec15417db8d8c",
  "version": 2,
  "locktime": 0,
  "vin": [
    {
      "txid": "b13bb5512a4904c28a6b7957b88edf574e8cb23551fc1dcfe22d6b239df42cf4",
      "vout": 67,
      "prevout": {
        "scriptpubkey": "512035e0b8d8b2db2717a094d6d1ab18fe5aa4d953630a3472de9d0043d9087dbf85",
        "scriptpubkey_asm": "OP_PUSHNUM_1 OP_PUSHBYTES_32 35e0b8d8b2db2717a094d6d1ab18fe5aa4d953630a3472de9d0043d9087dbf85",
        "scriptpubkey_type": "v1_p2tr",
        "scriptpubkey_address": "bc1pxhst3k9jmvn30gy56mg6kx87t2jdj5mrpg689h5aqppajzrah7zs4j5xvt",
        "value": 2575
      },
      "scriptsig": "",
      "scriptsig_asm": "",
      "witness": [
        "087c8eea2b3258d28403cc165c9a16eff337737d7aff769e841b04a7246b92ce33dbd0aa7bd696b510a567dfc499f976b294c3f962cc55cdea9fe650dc2a60aa",
        "20ac1d6b092b98f218b3884f154633b2732f0aab2a480407cf0cb48bb4bd580143ac0063036f726401010a746578742f706c61696e00367b2270223a226272632d3230222c226f70223a226d696e74222c227469636b223a2261616161222c22616d74223a223130303030227d68",
        "c0ac1d6b092b98f218b3884f154633b2732f0aab2a480407cf0cb48bb4bd580143"
      ],
      "is_coinbase": false,
      "sequence": 4261412863
    }
  ],
  "vout": [
    {
      "scriptpubkey": "0014ce0b5aa0dac72397a8aa5a85d90a2cfb46f0f630",
      "scriptpubkey_asm": "OP_0 OP_PUSHBYTES_20 ce0b5aa0dac72397a8aa5a85d90a2cfb46f0f630",
      "scriptpubkey_type": "v0_p2wpkh",
      "scriptpubkey_address": "bc1qec944gx6cu3e0292t2zajz3vldr0pa3sh356d9",
      "value": 546
    }
  ],
  "size": 295,
  "weight": 541,
  "fee": 2029,
  "status": {
    "confirmed": true,
    "block_height": 834464,
    "block_hash": "0000000000000000000177a0869a911a2b65c9bdcd5a8bcb02b68f305bee848e",
    "block_time": 1710308296
  },
  "hex": "02000000000101f42cf49d236b2de2cf1dfc5135b28c4e57df8eb857796b8ac204492a51b53bb14300000000fffffffd012202000000000000160014ce0b5aa0dac72397a8aa5a85d90a2cfb46f0f6300340087c8eea2b3258d28403cc165c9a16eff337737d7aff769e841b04a7246b92ce33dbd0aa7bd696b510a567dfc499f976b294c3f962cc55cdea9fe650dc2a60aa6e20ac1d6b092b98f218b3884f154633b2732f0aab2a480407cf0cb48bb4bd580143ac0063036f726401010a746578742f706c61696e00367b2270223a226272632d3230222c226f70223a226d696e74222c227469636b223a2261616161222c22616d74223a223130303030227d6821c0ac1d6b092b98f218b3884f154633b2732f0aab2a480407cf0cb48bb4bd58014300000000"
}