{
  "txid": "4384e750146a9291c2ce2180b173d241cee54ebf7f8795b6101f19fd045c315b",
  "version": 2,
  "locktime": 0,
  "vin": [
    {
      "txid": "acc3ba00869acb582a3f2904ce3a11dd3779350ce234063fc7d0959246213364",
      "vout": 44,
      "prevout": {
        "scriptpubkey": "51204f4a811b69c8dd7397528100d8e8e83dcef8c6c881dab5d28a631a2b653c2a4f",
        "scriptpubkey_asm": "OP_PUSHNUM_1 OP_PUSHBYTES_32 4f4a811b69c8dd7397528100d8e8e83dcef8c6c881dab5d28a631a2b653c2a4f",
        "scriptpubkey_type": "v1_p2tr",
        "scriptpubkey_address": "bc1pfa9gzxmferwh896jsyqd368g8h8033kgs8dtt552vvdzkefu9f8s4s6yms",
        "value": 1806
      },
      "scriptsig": "",
      "scriptsig_asm": "",
      "witness": [
        "79fcca446a0bf6ecc3eef98b801f2911965564104dc67cca1f4e13f34a3916d7762b06eb4b7ed3d731eaf4a339be8bf26a4ca203f49b52135e91768587820fbc",
        "20403992ef44b9676a44a796918adf399293062c0552e7bb7533fef84550b3799dac0063036f726401010a746578742f706c61696e00357b2270223a226272632d3230222c226f70223a226d696e74222c227469636b223a22646f6765222c22616d74223a2234323030227d68",
        "c1403992ef44b9676a44a796918adf399293062c0552e7bb7533fef84550b3799d"
      ],
      "is_coinbase": false,
      "sequence": 4261412863
    }
  ],
  "vout": [
    {
      "scriptpubkey": "00147a665de7a370f4c9b372ab1fae587500a5bcbdb4",
      "scriptpubkey_asm": "OP_0 OP_PUSHBYTES_20 7a665de7a370f4c9b372ab1fae587500a5bcbdb4",
      "scriptpubkey_type": "v0_p2wpkh",
      "scriptpubkey_address": "bc1q0fn9mearwr6vnvmj4v06ukr4qzjme0d565dzcx",
      "value": 294
    }
  ],
  "size": 294,
  "weight": 540,
  "fee": 1512,
  "status": {
    "confirmed": true,
    "block_height": 834460,
    "block_hash": "00000000000000000000484a79b643b2524bbce82e5d8a442013fa5b8905ed98",
    "block_time": 1710307468
  },
  "hex": "02000000000101643321469295d0c73f0634e20c357937dd113ace04293f2a58cb9a8600bac3ac2c00000000fffffffd0126010000000000001600147a665de7a370f4c9b372ab1fae587500a5bcbdb4034079fcca446a0bf6ecc3eef98b801f2911965564104dc67cca1f4e13f34a3916d7762b06eb4b7ed3d731eaf4a339be8bf26a4ca203f49b52135e91768587820fbc6d20403992ef44b9676a44a796918adf399293062c0552e7bb7533fef84550b3799dac0063036f726401010a746578742f706c61696e00357b2270223a226272632d3230222c226f70223a226d696e74222c227469636b223a22646f6765222c22616d74223a2234323030227d6821c1403992ef44b9676a44a796918adf399293062c0552e7bb7533fef84550b3799d00000000"
}