{
  "txid": "439537dc007ccb4ca56f28237d926cba587ade7dcdc10428b1b499fae1f5820f",
  "version": 2,
  "locktime": 0,
  "vin": [
    {
      "txid": "659b82bf51c32df260f3e3563d90fcbcb0098209af4d18020ca9e1a619ccc8c8",
      "vout": 19,
      "prevout": {
        "scriptpubkey": "51200946db238a88d476b0f629e71ce5c6d51656c2e8aae4eb3aeef068ea60c43c96",
        "scriptpubkey_asm": "OP_PUSHNUM_1 OP_PUSHBYTES_32 0946db238a88d476b0f629e71ce5c6d51656c2e8aae4eb3aeef068ea60c43c96",
        "scriptpubkey_type": "v1_p2tr",
        "scriptpubkey_address": "bc1pp9rdkgu23r28dv8k98n3eewx65t9dshg4tjwkwhw7p5w5cxy8jtqv8w30x",
        "value": 1931
      },
      "scriptsig": "",
      "scriptsig_asm": "",
      "witness": [
        "a2d675f513a27db29626e534799c01036f62df2622a26c807b1fcef4cd641cf2b8c5cdc357a07e159041dff7683797eef0cea5557deb4fc8367b6ac47efc54fe",
        "2012365c1a34f801fcdff6bbc149ec2b6f7b9cb5494e8ff5228ae5d8c565280b40ac0063036f726401010a746578742f706c61696e00367b2270223a226272632d3230222c226f70223a226d696e74222c227469636b223a2261616161222c22616d74223a223130303030227d68",
        "c112365c1a34f801fcdff6bbc149ec2b6f7b9cb5494e8ff5228ae5d8c565280b40"
      ],
      "is_coinbase": false,
      "sequence": 4261412863
    }
  ],
  "vout": [
    {
      "scriptpubkey": "0014be9f0c070a9b1bd40f5fcb06fba89738d936ceb6",
      "scriptpubkey_asm": "OP_0 OP_PUSHBYTES_20 be9f0c070a9b1bd40f5fcb06fba89738d936ceb6",
      "scriptpubkey_type": "v0_p2wpkh",
      "scriptpubkey_address": "bc1qh60scpc2nvdagr6levr0h2yh8rvndn4k4v5s9g",
      "value": 294
    }
  ],
  "size": 295,
  "weight": 541,
  "fee": 1637,
  "status": {
    "confirmed": true,
    "block_height": 834460,
    "block_hash": "00000000000000000000484a79b643b2524bbce82e5d8a442013fa5b8905ed98",
    "block_time": 1710307468
  },
  "hex": "02000000000101c8c8cc19a6e1a90c02184daf098209b0bcfc903d56e3f360f22dc351bf829b651300000000fffffffd012601000000000000160014be9f0c070a9b1bd40f5fcb06fba89738d936ceb60340a2d675f513a27db29626e534799c01036f62df2622a26c807b1fcef4cd641cf2b8c5cdc357a07e159041dff7683797eef0cea5557deb4fc8367b6ac47efc54fe6e2012365c1a34f801fcdff6bbc149ec2b6f7b9cb5494e8ff5228ae5d8c565280b40ac0063036f726401010a746578742f706c61696e00367b2270223a226272632d3230222c226f70223a226d696e74222c227469636b223a2261616161222c22616d74223a223130303030227d6821c112365c1a34f801fcdff6bbc149ec2b6f7b9cb5494e8ff5228ae5d8c565280b4000000000"
}