{
  "txid": "43961438ddd1335268fe9cff04aa1615d06ab9239f931006d4ff8d4a9f17bc12",
  "version": 2,
  "locktime": 834637,
  "vin": [
    {
      "txid": "86fcb6ebc1363d8ca50208f567c2ec9b9f8d0a58619f5ab596eb1dc014ff17b5",
      "vout": 1,
      "prevout": {
        "scriptpubkey": "76a914f1da001fdbcb2ad9d36d252a3518f1f7d71d5f9d88ac",
        "scriptpubkey_asm": "OP_DUP OP_HASH160 OP_PUSHBYTES_20 f1da001fdbcb2ad9d36d252a3518f1f7d71d5f9d OP_EQUALVERIFY OP_CHECKSIG",
        "scriptpubkey_type": "p2pkh",
        "scriptpubkey_address": "1P3o1AtPy9r7pUq8dAN8ExdcjuraQ3iwNS",
        "value": 2268800
      },
      "scriptsig": "47304402205effa07da9b61f8a021dd51449c954b4ae16c416ce239d3c1d2f7f22403c088602207aabdbe12a9e6322fa2b8918056416a4540d74d7db40bf018af5be88a22296f301210220d7176d4525b9d4f60dafa8dd8783cf9d7e8866c043c1af31530503f13336af",
      "scriptsig_asm": "OP_PUSHBYTES_71 304402205effa07da9b61f8a021dd51449c954b4ae16c416ce239d3c1d2f7f22403c088602207aabdbe12a9e6322fa2b8918056416a4540d74d7db40bf018af5be88a22296f301 OP_PUSHBYTES_33 0220d7176d4525b9d4f60dafa8dd8783cf9d7e8866c043c1af31530503f13336af",
      "is_coinbase": false,
      "sequence": 4294967293
    }
  ],
  "vout": [
    {
      "scriptpubkey": "a9147860d3c4e049cbb5da12826e62d68be6c46dd16387",
      "scriptpubkey_asm": "OP_HASH160 OP_PUSHBYTES_20 7860d3c4e049cbb5da12826e62d68be6c46dd163 OP_EQUAL",
      "scriptpubkey_type": "p2sh",
      "scriptpubkey_address": "3CfX1EgpTvvr6XYyPzvTHTRUL2eTSiYC8H",
      "value": 1000000
    },
    {
      "scriptpubkey": "76a914efb428074cd7ab168cc950ebdd9387ec3c963e2088ac",
      "scriptpubkey_asm": "OP_DUP OP_HASH160 OP_PUSHBYTES_20 efb428074cd7ab168cc950ebdd9387ec3c963e20 OP_EQUALVERIFY OP_CHECKSIG",
      "scriptpubkey_type": "p2pkh",
      "scriptpubkey_address": "1NrSKLCAjaPR9834PWeqTZdjg13kASi6FZ",
      "value": 1265200
    }
  ],
  "size": 223,
  "weight": 892,
  "fee": 3600,
  "status": {
    "confirmed": true,
    "block_height": 834638,
    "block_hash": "000000000000000000025f742c626208ac87e0b7d15054abb4a19ca2d735a54e",
    "block_time": 1710405325
  },
  "hex": "0200000001b517ff14c01deb96b55a9f61580a8d9f9becc267f50802a58c3d36c1ebb6fc86010000006a47304402205effa07da9b61f8a021dd51449c954b4ae16c416ce239d3c1d2f7f22403c088602207aabdbe12a9e6322fa2b8918056416a4540d74d7db40bf018af5be88a22296f301210220d7176d4525b9d4f60dafa8dd8783cf9d7e8866c043c1af31530503f13336affdffffff0240420f000000000017a9147860d3c4e049cbb5da12826e62d68be6c46dd16387304e1300000000001976a914efb428074cd7ab168cc950ebdd9387ec3c963e2088ac4dbc0c00"
}