{
  "txid": "4398b9f050eee9aab47ae58c18b0c2e0b9e3a9a64466a2953131f797b688a328",
  "version": 2,
  "locktime": 0,
  "vin": [
    {
      "txid": "9ff9de3c44f399b69d1e522ce27e259440c0412f4b3d8e535f763c38391bd70d",
      "vout": 0,
      "prevout": {
        "scriptpubkey": "00148f50408a6d6680eb5b6604ecee44863030a25ae9",
        "scriptpubkey_asm": "OP_0 OP_PUSHBYTES_20 8f50408a6d6680eb5b6604ecee44863030a25ae9",
        "scriptpubkey_type": "v0_p2wpkh",
        "scriptpubkey_address": "bc1q3agypzndv6qwkkmxqnkwu3yxxqc2ykhf0g7uw5",
        "value": 19304
      },
      "scriptsig": "",
      "scriptsig_asm": "",
      "witness": [
        "304402200a466da10a8845e51e0296a80273839fdda4d1064f795ba9831a7917e3da3113022067494bda7d3b3130ad629644941c21e0b4f95b3130cd05cd70ff28d7151dfc1c01",
        "029927477322cc6df9e13a309daec4ee7409d8918f8cdc37e4b4b1be50ed3d8110"
      ],
      "is_coinbase": false,
      "sequence": 4294967293
    }
  ],
  "vout": [
    {
      "scriptpubkey": "76a9145877c74c20e17c1bd71ac9e1c9bd1aabbc57a5af88ac",
      "scriptpubkey_asm": "OP_DUP OP_HASH160 OP_PUSHBYTES_20 5877c74c20e17c1bd71ac9e1c9bd1aabbc57a5af OP_EQUALVERIFY OP_CHECKSIG",
      "scriptpubkey_type": "p2pkh",
      "scriptpubkey_address": "194mxEn4CsWpUy1iueTr973MEychtovjZR",
      "value": 18084
    }
  ],
  "size": 194,
  "weight": 449,
  "fee": 1220,
  "status": {
    "confirmed": true,
    "block_height": 834464,
    "block_hash": "0000000000000000000177a0869a911a2b65c9bdcd5a8bcb02b68f305bee848e",
    "block_time": 1710308296
  },
  "hex": "020000000001010dd71b39383c765f538e3d4b2f41c04094257ee22c521e9db699f3443cdef99f0000000000fdffffff01a4460000000000001976a9145877c74c20e17c1bd71ac9e1c9bd1aabbc57a5af88ac0247304402200a466da10a8845e51e0296a80273839fdda4d1064f795ba9831a7917e3da3113022067494bda7d3b3130ad629644941c21e0b4f95b3130cd05cd70ff28d7151dfc1c0121029927477322cc6df9e13a309daec4ee7409d8918f8cdc37e4b4b1be50ed3d811000000000"
}