{
  "txid": "43a57709272c9be8d4704f73e21c3fd556a4d73379d11a2677be00955cea8c2e",
  "version": 2,
  "locktime": 0,
  "vin": [
    {
      "txid": "e31fc17a259c41d46f62582f1925475edc8a5a669d17021d0b23f1ed19ab44fb",
      "vout": 51,
      "prevout": {
        "scriptpubkey": "0014fc932c7f7b66bfc637afe223ada0196480d5b577",
        "scriptpubkey_asm": "OP_0 OP_PUSHBYTES_20 fc932c7f7b66bfc637afe223ada0196480d5b577",
        "scriptpubkey_type": "v0_p2wpkh",
        "scriptpubkey_address": "bc1qljfjclmmv6luvda0ug36mgqevjqdtdths6wm5w",
        "value": 67869503
      },
      "scriptsig": "",
      "scriptsig_asm": "",
      "witness": [
        "304402207cce0e041a8ede3cad1c9b177d8e742d80f6f0fde75004e2bd0d2a669ec65532022028ca61534bbea69b83fc77672a0eaa9af912474c241c697e4ea20e3048ad769401",
        "0295ac0c35a046921b23b20a5365acb0727c86019c763ea2d34e71ff600952bef0"
      ],
      "is_coinbase": false,
      "sequence": 4294967295
    }
  ],
  "vout": [
    {
      "scriptpubkey": "76a9146e33e8ec61ebc9b005a53e840850eb774e8753a988ac",
      "scriptpubkey_asm": "OP_DUP OP_HASH160 OP_PUSHBYTES_20 6e33e8ec61ebc9b005a53e840850eb774e8753a9 OP_EQUALVERIFY OP_CHECKSIG",
      "scriptpubkey_type": "p2pkh",
      "scriptpubkey_address": "1B3hWrxsKYddz7UPkD1hMyLadRsePXCJ4X",
      "value": 8261
    },
    {
      "scriptpubkey": "0014670229e15f63572e742b4a8b12d59a0af47f5cc8",
      "scriptpubkey_asm": "OP_0 OP_PUSHBYTES_20 670229e15f63572e742b4a8b12d59a0af47f5cc8",
      "scriptpubkey_type": "v0_p2wpkh",
      "scriptpubkey_address": "bc1qvupznc2lvdtjuaptf29394v6pt687hxget9632",
      "value": 29143
    },
    {
      "scriptpubkey": "a914b69d14c40e2a0b0b0fa6989ed75c4a054c560d6387",
      "scriptpubkey_asm": "OP_HASH160 OP_PUSHBYTES_20 b69d14c40e2a0b0b0fa6989ed75c4a054c560d63 OP_EQUAL",
      "scriptpubkey_type": "p2sh",
      "scriptpubkey_address": "3JLb5eKNLBbXdt679XwA6kHpnyjoasbPma",
      "value": 50537
    },
    {
      "scriptpubkey": "0014fa9033cb82605f7325f8b04b1d7448a77539ffe0",
      "scriptpubkey_asm": "OP_0 OP_PUSHBYTES_20 fa9033cb82605f7325f8b04b1d7448a77539ffe0",
      "scriptpubkey_type": "v0_p2wpkh",
      "scriptpubkey_address": "bc1ql2gr8juzvp0hxf0ckp936azg5a6nnllqc5mclw",
      "value": 166182
    },
    {
      "scriptpubkey": "0014b06e792461ab35197973b5daeaa42dd9dc1d9c70",
      "scriptpubkey_asm": "OP_0 OP_PUSHBYTES_20 b06e792461ab35197973b5daeaa42dd9dc1d9c70",
      "scriptpubkey_type": "v0_p2wpkh",
      "scriptpubkey_address": "bc1qkph8jfrp4v63j7tnkhdw4fpdm8wpm8rsa7mxxs",
      "value": 68000
    },
    {
      "scriptpubkey": "0014e8652734e0bf0dbda8539f36bc5b148865805310",
      "scriptpubkey_asm": "OP_0 OP_PUSHBYTES_20 e8652734e0bf0dbda8539f36bc5b148865805310",
      "scriptpubkey_type": "v0_p2wpkh",
      "scriptpubkey_address": "bc1qapjjwd8qhuxmm2znnumtckc53pjcq5cs2gkex0",
      "value": 36716
    },
    {
      "scriptpubkey": "a91477f1384661ec01921fc54d62b10fb00bd9cc458487",
      "scriptpubkey_asm": "OP_HASH160 OP_PUSHBYTES_20 77f1384661ec01921fc54d62b10fb00bd9cc4584 OP_EQUAL",
      "scriptpubkey_type": "p2sh",
      "scriptpubkey_address": "3CdDJcqnsdjxvyPzt2zXaxxTckG4225QMx",
      "value": 47952
    },
    {
      "scriptpubkey": "001473ba74367312441862d9f23c08aa2f094be616e9",
      "scriptpubkey_asm": "OP_0 OP_PUSHBYTES_20 73ba74367312441862d9f23c08aa2f094be616e9",
      "scriptpubkey_type": "v0_p2wpkh",
      "scriptpubkey_address": "bc1qwwa8gdnnzfzpscke7g7q3230p997v9hflueq0y",
      "value": 27612
    },
    {
      "scriptpubkey": "0014528abd307035d4da3fe1df474efc2fdd7bcb2019",
      "scriptpubkey_asm": "OP_0 OP_PUSHBYTES_20 528abd307035d4da3fe1df474efc2fdd7bcb2019",
      "scriptpubkey_type": "v0_p2wpkh",
      "scriptpubkey_address": "bc1q229t6vrsxh2d50lpmar5alp0m4aukgqem0jy8t",
      "value": 61161
    },
    {
      "scriptpubkey": "76a914a10e2b771db247afd736dd9cacb554141d19d6c188ac",
      "scriptpubkey_asm": "OP_DUP OP_HASH160 OP_PUSHBYTES_20 a10e2b771db247afd736dd9cacb554141d19d6c1 OP_EQUALVERIFY OP_CHECKSIG",
      "scriptpubkey_type": "p2pkh",
      "scriptpubkey_address": "1FgamRHYWUXbaPzh7LVyPvm5uup8p5J5AG",
      "value": 87603
    },
    {
      "scriptpubkey": "0014b2f8d2944d3b6c7cedaf61e6cafc9b70f00dd1be",
      "scriptpubkey_asm": "OP_0 OP_PUSHBYTES_20 b2f8d2944d3b6c7cedaf61e6cafc9b70f00dd1be",
      "scriptpubkey_type": "v0_p2wpkh",
      "scriptpubkey_address": "bc1qktud99zd8dk8emd0v8nv4lymwrcqm5d7g342v4",
      "value": 10901
    },
    {
      "scriptpubkey": "0014c2d07575fc9eec29cd8bd917fe730a3d16087b87",
      "scriptpubkey_asm": "OP_0 OP_PUSHBYTES_20 c2d07575fc9eec29cd8bd917fe730a3d16087b87",
      "scriptpubkey_type": "v0_p2wpkh",
      "scriptpubkey_address": "bc1qctg82a0unmkznnvtmytluuc285tqs7u8gkprc6",
      "value": 21798
    },
    {
      "scriptpubkey": "76a914f53ac70193260a2088de54685583a9036d3f16b188ac",
      "scriptpubkey_asm": "OP_DUP OP_HASH160 OP_PUSHBYTES_20 f53ac70193260a2088de54685583a9036d3f16b1 OP_EQUALVERIFY OP_CHECKSIG",
      "scriptpubkey_type": "p2pkh",
      "scriptpubkey_address": "1PMexvT8pyadNsn9mCSLGsXY3BXuM4z2Uz",
      "value": 2693145
    },
    {
      "scriptpubkey": "a91479f15f3bf05ac010f2d182260f1376b44f7c929f87",
      "scriptpubkey_asm": "OP_HASH160 OP_PUSHBYTES_20 79f15f3bf05ac010f2d182260f1376b44f7c929f OP_EQUAL",
      "scriptpubkey_type": "p2sh",
      "scriptpubkey_address": "3ConqaPDc3o7y2EtWPtsvZx94uYUvER6hh",
      "value": 27206
    },
    {
      "scriptpubkey": "0014f145c60b426e4b1d7b6888337c89d281096cc867",
      "scriptpubkey_asm": "OP_0 OP_PUSHBYTES_20 f145c60b426e4b1d7b6888337c89d281096cc867",
      "scriptpubkey_type": "v0_p2wpkh",
      "scriptpubkey_address": "bc1q79zuvz6zde9367mg3qehezwjsyykejr8cmc7hl",
      "value": 51895
    },
    {
      "scriptpubkey": "76a914dba1894e092d682ab7432c210e8baebc10307ed788ac",
      "scriptpubkey_asm": "OP_DUP OP_HASH160 OP_PUSHBYTES_20 dba1894e092d682ab7432c210e8baebc10307ed7 OP_EQUALVERIFY OP_CHECKSIG",
      "scriptpubkey_type": "p2pkh",
      "scriptpubkey_address": "1M2JVkg9PmnUGb55g49Y14NpuAPezPJZpe",
      "value": 433740
    },
    {
      "scriptpubkey": "001414bad489cc4a3f13b8130ddbf45415f626489bf2",
      "scriptpubkey_asm": "OP_0 OP_PUSHBYTES_20 14bad489cc4a3f13b8130ddbf45415f626489bf2",
      "scriptpubkey_type": "v0_p2wpkh",
      "scriptpubkey_address": "bc1qzjadfzwvfgl38wqnphdlg4q47cny3xljw74z0a",
      "value": 127287
    },
    {
      "scriptpubkey": "a9148780c532e3470a463c40668fd020d4bbc28ada7987",
      "scriptpubkey_asm": "OP_HASH160 OP_PUSHBYTES_20 8780c532e3470a463c40668fd020d4bbc28ada79 OP_EQUAL",
      "scriptpubkey_type": "p2sh",
      "scriptpubkey_address": "3E3VQZMhrLREjfxtGMhyuXqyxgh7khBv45",
      "value": 135000
    },
    {
      "scriptpubkey": "0014e85b49f1af12838ca4d8e4ab49f4f318ead74127",
      "scriptpubkey_asm": "OP_0 OP_PUSHBYTES_20 e85b49f1af12838ca4d8e4ab49f4f318ead74127",
      "scriptpubkey_type": "v0_p2wpkh",
      "scriptpubkey_address": "bc1qapd5nud0z2pcefxcuj45na8nrr4dwsf8rcjmhy",
      "value": 127293
    },
    {
      "scriptpubkey": "0014237167142edefe955e85105f154daf88d3e85f86",
      "scriptpubkey_asm": "OP_0 OP_PUSHBYTES_20 237167142edefe955e85105f154daf88d3e85f86",
      "scriptpubkey_type": "v0_p2wpkh",
      "scriptpubkey_address": "bc1qydckw9pwmmlf2h59zp032nd03rf7shuxyerhrl",
      "value": 47596
    },
    {
      "scriptpubkey": "001497cc5e805a8c200ce94608ae04c594f8ebc48700",
      "scriptpubkey_asm": "OP_0 OP_PUSHBYTES_20 97cc5e805a8c200ce94608ae04c594f8ebc48700",
      "scriptpubkey_type": "v0_p2wpkh",
      "scriptpubkey_address": "bc1qjlx9aqz63ssqe62xpzhqf3v5lr4ufpcqpw3uys",
      "value": 394021
    },
    {
      "scriptpubkey": "76a914dfb5d54ac3078b39687e408226f73f79e9840b4a88ac",
      "scriptpubkey_asm": "OP_DUP OP_HASH160 OP_PUSHBYTES_20 dfb5d54ac3078b39687e408226f73f79e9840b4a OP_EQUALVERIFY OP_CHECKSIG",
      "scriptpubkey_type": "p2pkh",
      "scriptpubkey_address": "1MPsWma7feyd8tmEGrgyNWraUa4yYJSHnN",
      "value": 147567
    },
    {
      "scriptpubkey": "0014c347a4c18cbf60e169c77db58be1af16839f3745",
      "scriptpubkey_asm": "OP_0 OP_PUSHBYTES_20 c347a4c18cbf60e169c77db58be1af16839f3745",
      "scriptpubkey_type": "v0_p2wpkh",
      "scriptpubkey_address": "bc1qcdr6fsvvhaswz6w80k6chcd0z6pe7d695ksqzj",
      "value": 127295
    },
    {
      "scriptpubkey": "0014ab757108961704a23e177fa6bab7dcf692790a36",
      "scriptpubkey_asm": "OP_0 OP_PUSHBYTES_20 ab757108961704a23e177fa6bab7dcf692790a36",
      "scriptpubkey_type": "v0_p2wpkh",
      "scriptpubkey_address": "bc1q4d6hzzykzuz2y0sh07nt4d7u76f8jz3kk23svr",
      "value": 13605
    },
    {
      "scriptpubkey": "a9141250067797bc2036dd4edcd3615ed5bcc8cae6c287",
      "scriptpubkey_asm": "OP_HASH160 OP_PUSHBYTES_20 1250067797bc2036dd4edcd3615ed5bcc8cae6c2 OP_EQUAL",
      "scriptpubkey_type": "p2sh",
      "scriptpubkey_address": "33MqxFRFs2Qg1QC9ZtwTDvwHPzAAHcYnKY",
      "value": 21284
    },
    {
      "scriptpubkey": "76a9140a5978218ae01e768f8fc2c56258953767bef24e88ac",
      "scriptpubkey_asm": "OP_DUP OP_HASH160 OP_PUSHBYTES_20 0a5978218ae01e768f8fc2c56258953767bef24e OP_EQUALVERIFY OP_CHECKSIG",
      "scriptpubkey_type": "p2pkh",
      "scriptpubkey_address": "1wiwMPmjU2i1avFv1mW32F8ZNSu3cUEmh",
      "value": 28139
    },
    {
      "scriptpubkey": "a9140729dda5370f81f8231e73ee5fab5d380606085687",
      "scriptpubkey_asm": "OP_HASH160 OP_PUSHBYTES_20 0729dda5370f81f8231e73ee5fab5d3806060856 OP_EQUAL",
      "scriptpubkey_type": "p2sh",
      "scriptpubkey_address": "32LtompKBt5RmkmonijEXuND1jnnSh9i9o",
      "value": 34693
    },
    {
      "scriptpubkey": "0014d2b563721b71d2b08df3fe39c835fdd24358a746",
      "scriptpubkey_asm": "OP_0 OP_PUSHBYTES_20 d2b563721b71d2b08df3fe39c835fdd24358a746",
      "scriptpubkey_type": "v0_p2wpkh",
      "scriptpubkey_address": "bc1q626kxusmw8ftpr0nlcuusd0a6fp43f6xtcp8ka",
      "value": 14872
    },
    {
      "scriptpubkey": "001484e8accd8692ed1aeccd73ec5587d8320119a8e0",
      "scriptpubkey_asm": "OP_0 OP_PUSHBYTES_20 84e8accd8692ed1aeccd73ec5587d8320119a8e0",
      "scriptpubkey_type": "v0_p2wpkh",
      "scriptpubkey_address": "bc1qsn52envxjtk34mxdw0k9tp7cxgq3n28qqcjuay",
      "value": 326397
    },
    {
      "scriptpubkey": "a9146510e2f2035414c748d145132a1b46d01fa378d887",
      "scriptpubkey_asm": "OP_HASH160 OP_PUSHBYTES_20 6510e2f2035414c748d145132a1b46d01fa378d8 OP_EQUAL",
      "scriptpubkey_type": "p2sh",
      "scriptpubkey_address": "3AuQQDLkjsNtAKJxVt5PdAhTU2GihYFKY8",
      "value": 92435
    },
    {
      "scriptpubkey": "001406818fae86f2bb0c4f7abd114a3359bb854c95af",
      "scriptpubkey_asm": "OP_0 OP_PUSHBYTES_20 06818fae86f2bb0c4f7abd114a3359bb854c95af",
      "scriptpubkey_type": "v0_p2wpkh",
      "scriptpubkey_address": "bc1qq6qclt5x72ascnm6h5g55v6ehwz5e9d0nhjs3p",
      "value": 8281
    },
    {
      "scriptpubkey": "76a91442e2b5d144933d1ec988aa352916b312b803686988ac",
      "scriptpubkey_asm": "OP_DUP OP_HASH160 OP_PUSHBYTES_20 42e2b5d144933d1ec988aa352916b312b8036869 OP_EQUALVERIFY OP_CHECKSIG",
      "scriptpubkey_type": "p2pkh",
      "scriptpubkey_address": "176fBmGvT22V5ecXAQSZ2fG5QWRorjto3o",
      "value": 792897
    },
    {
      "scriptpubkey": "00141f5bf0094163ac7bdfde27d0ebe594cdb3121b0b",
      "scriptpubkey_asm": "OP_0 OP_PUSHBYTES_20 1f5bf0094163ac7bdfde27d0ebe594cdb3121b0b",
      "scriptpubkey_type": "v0_p2wpkh",
      "scriptpubkey_address": "bc1qradlqz2pvwk8hh77ylgwhev5eke3yxctv4u2pp",
      "value": 6802
    },
    {
      "scriptpubkey": "00148e160bf66ed4aada6d0d742505e180eaa7c4760d",
      "scriptpubkey_asm": "OP_0 OP_PUSHBYTES_20 8e160bf66ed4aada6d0d742505e180eaa7c4760d",
      "scriptpubkey_type": "v0_p2wpkh",
      "scriptpubkey_address": "bc1q3ctqhanw6j4d5mgdwsjstcvqa2nugasdlzvasm",
      "value": 254972
    },
    {
      "scriptpubkey": "00149c721b404afa97428be3169a76f896f13721936d",
      "scriptpubkey_asm": "OP_0 OP_PUSHBYTES_20 9c721b404afa97428be3169a76f896f13721936d",
      "scriptpubkey_type": "v0_p2wpkh",
      "scriptpubkey_address": "bc1qn3epksz2l2t59zlrz6d8d7yk7ymjrymd5hf807",
      "value": 51341
    },
    {
      "scriptpubkey": "76a91493e8354e08dd5aa4a581b81524dfd61e9e1457ee88ac",
      "scriptpubkey_asm": "OP_DUP OP_HASH160 OP_PUSHBYTES_20 93e8354e08dd5aa4a581b81524dfd61e9e1457ee OP_EQUALVERIFY OP_CHECKSIG",
      "scriptpubkey_type": "p2pkh",
      "scriptpubkey_address": "1EV4WJw6SzaSY3L4egwDPSoD1sYssBCLLy",
      "value": 50662
    },
    {
      "scriptpubkey": "a914af1072d531631e65d9fa66827ffd7d86d576b69c87",
      "scriptpubkey_asm": "OP_HASH160 OP_PUSHBYTES_20 af1072d531631e65d9fa66827ffd7d86d576b69c OP_EQUAL",
      "scriptpubkey_type": "p2sh",
      "scriptpubkey_address": "3HefsypUwBHUdKJc5fsTAp6ePRbaTuiZHu",
      "value": 27343
    },
    {
      "scriptpubkey": "76a91437e2e6b025dd62275952a320187574d902f3459f88ac",
      "scriptpubkey_asm": "OP_DUP OP_HASH160 OP_PUSHBYTES_20 37e2e6b025dd62275952a320187574d902f3459f OP_EQUALVERIFY OP_CHECKSIG",
      "scriptpubkey_type": "p2pkh",
      "scriptpubkey_address": "166VyvCcSBLrUXQ1Vn52toy5d5hzD36GiG",
      "value": 88900
    },
    {
      "scriptpubkey": "001441e63afc76b3c1c023dc137657c8b0a9de392af2",
      "scriptpubkey_asm": "OP_0 OP_PUSHBYTES_20 41e63afc76b3c1c023dc137657c8b0a9de392af2",
      "scriptpubkey_type": "v0_p2wpkh",
      "scriptpubkey_address": "bc1qg8nr4lrkk0quqg7uzdm90j9s480rj2hj80v72r",
      "value": 53109
    },
    {
      "scriptpubkey": "001433e2745c8c88bcd1997a5305bd53a4aea7f59860",
      "scriptpubkey_asm": "OP_0 OP_PUSHBYTES_20 33e2745c8c88bcd1997a5305bd53a4aea7f59860",
      "scriptpubkey_type": "v0_p2wpkh",
      "scriptpubkey_address": "bc1qx038ghyv3z7drxt62vzm65ay46nltxrqvtz2xs",
      "value": 61208
    },
    {
      "scriptpubkey": "76a9142679d6ac4890e1ea96a118f6ec1418e6f819f77588ac",
      "scriptpubkey_asm": "OP_DUP OP_HASH160 OP_PUSHBYTES_20 2679d6ac4890e1ea96a118f6ec1418e6f819f775 OP_EQUALVERIFY OP_CHECKSIG",
      "scriptpubkey_type": "p2pkh",
      "scriptpubkey_address": "14WSdnL9mywGDEL4QCNB6Z6tLNVXrF1WoC",
      "value": 74440
    },
    {
      "scriptpubkey": "a914a5fca381c19311bb3ce346ab949044a525458beb87",
      "scriptpubkey_asm": "OP_HASH160 OP_PUSHBYTES_20 a5fca381c19311bb3ce346ab949044a525458beb OP_EQUAL",
      "scriptpubkey_type": "p2sh",
      "scriptpubkey_address": "3Gpg4qgzsSgFgbjwMqgRQdxeNonEAYWPt7",
      "value": 123759
    },
    {
      "scriptpubkey": "76a914df565d4a6f55646bab3401b2f302a856803fa24c88ac",
      "scriptpubkey_asm": "OP_DUP OP_HASH160 OP_PUSHBYTES_20 df565d4a6f55646bab3401b2f302a856803fa24c OP_EQUALVERIFY OP_CHECKSIG",
      "scriptpubkey_type": "p2pkh",
      "scriptpubkey_address": "1MMu9V25T4yDgK4473o45ziZP1puUTeGLj",
      "value": 33999
    },
    {
      "scriptpubkey": "00147a45349fbbe6239da815149c24e36b256a1bd588",
      "scriptpubkey_asm": "OP_0 OP_PUSHBYTES_20 7a45349fbbe6239da815149c24e36b256a1bd588",
      "scriptpubkey_type": "v0_p2wpkh",
      "scriptpubkey_address": "bc1q0fznf8amuc3em2q4zjwzfcmty44ph4vg0h49r4",
      "value": 87527
    },
    {
      "scriptpubkey": "0014bba8317222a5077f4a5d8c99206a8e95b81445a4",
      "scriptpubkey_asm": "OP_0 OP_PUSHBYTES_20 bba8317222a5077f4a5d8c99206a8e95b81445a4",
      "scriptpubkey_type": "v0_p2wpkh",
      "scriptpubkey_address": "bc1qhw5rzu3z55rh7jja3jvjq65wjkupg3dycsp8kg",
      "value": 31748
    },
    {
      "scriptpubkey": "a91489b020c5e4487c3955388815123e4e6c605dae3287",
      "scriptpubkey_asm": "OP_HASH160 OP_PUSHBYTES_20 89b020c5e4487c3955388815123e4e6c605dae32 OP_EQUAL",
      "scriptpubkey_type": "p2sh",
      "scriptpubkey_address": "3EF3VQxV2g6EYHUr2tEN9QMp3Syh11ifFT",
      "value": 149654
    },
    {
      "scriptpubkey": "0014310f119632bd786bd27d6d16559dd3466e6185f2",
      "scriptpubkey_asm": "OP_0 OP_PUSHBYTES_20 310f119632bd786bd27d6d16559dd3466e6185f2",
      "scriptpubkey_type": "v0_p2wpkh",
      "scriptpubkey_address": "bc1qxy83r93jh4uxh5nad5t9t8wngehxrp0jskk3lh",
      "value": 203285
    },
    {
      "scriptpubkey": "0014e0d418fd9aa3b50d4fd89a5b4d363f3943ffbc18",
      "scriptpubkey_asm": "OP_0 OP_PUSHBYTES_20 e0d418fd9aa3b50d4fd89a5b4d363f3943ffbc18",
      "scriptpubkey_type": "v0_p2wpkh",
      "scriptpubkey_address": "bc1qur2p3lv65w6s6n7cnfd56d3l89pll0qc4933yp",
      "value": 38770
    },
    {
      "scriptpubkey": "76a9149b9b7c9c444616c85a9e53165f5337c2c7424dcd88ac",
      "scriptpubkey_asm": "OP_DUP OP_HASH160 OP_PUSHBYTES_20 9b9b7c9c444616c85a9e53165f5337c2c7424dcd OP_EQUALVERIFY OP_CHECKSIG",
      "scriptpubkey_type": "p2pkh",
      "scriptpubkey_address": "1FBn19Jajqj6DtNzx4g4Cv7XadfvRD29nk",
      "value": 1323299
    },
    {
      "scriptpubkey": "0014d23ef6fdbc499a849874aa21143a04d6f419d145",
      "scriptpubkey_asm": "OP_0 OP_PUSHBYTES_20 d23ef6fdbc499a849874aa21143a04d6f419d145",
      "scriptpubkey_type": "v0_p2wpkh",
      "scriptpubkey_address": "bc1q6gl0dldufxdgfxr54gs3gwsy6m6pn529g7uxm5",
      "value": 87358
    },
    {
      "scriptpubkey": "0014279b3cd3b0f7362b79ad9ba0a9e9d0c404e0869b",
      "scriptpubkey_asm": "OP_0 OP_PUSHBYTES_20 279b3cd3b0f7362b79ad9ba0a9e9d0c404e0869b",
      "scriptpubkey_type": "v0_p2wpkh",
      "scriptpubkey_address": "bc1qy7dne5as7umzk7ddnws2n6wscszwpp5mr7f3h6",
      "value": 261405
    },
    {
      "scriptpubkey": "a9143437bd28887458604692011f4a473f22110d559b87",
      "scriptpubkey_asm": "OP_HASH160 OP_PUSHBYTES_20 3437bd28887458604692011f4a473f22110d559b OP_EQUAL",
      "scriptpubkey_type": "p2sh",
      "scriptpubkey_address": "36T7qKqX1wEA3vJRh1HkZG3SfPwfZoFsdk",
      "value": 34693
    },
    {
      "scriptpubkey": "0014a6685cd87931b61345c5ad42fad7ef2ddde3b969",
      "scriptpubkey_asm": "OP_0 OP_PUSHBYTES_20 a6685cd87931b61345c5ad42fad7ef2ddde3b969",
      "scriptpubkey_type": "v0_p2wpkh",
      "scriptpubkey_address": "bc1q5e59ekrexxmpx3w944p044l09hw78wtfs4l98c",
      "value": 39443
    },
    {
      "scriptpubkey": "a914890b0f7c16e056a22d1ed8ef22c62c9362cc26f287",
      "scriptpubkey_asm": "OP_HASH160 OP_PUSHBYTES_20 890b0f7c16e056a22d1ed8ef22c62c9362cc26f2 OP_EQUAL",
      "scriptpubkey_type": "p2sh",
      "scriptpubkey_address": "3EBdkKYuK4CcgppDRn4pyEo5WqxZK7w6av",
      "value": 659876
    },
    {
      "scriptpubkey": "a914e5271eec87042c4b91665e673f0e853862e53f3487",
      "scriptpubkey_asm": "OP_HASH160 OP_PUSHBYTES_20 e5271eec87042c4b91665e673f0e853862e53f34 OP_EQUAL",
      "scriptpubkey_type": "p2sh",
      "scriptpubkey_address": "3NafXdhRMQC4rTen3HKPFy4maCjccD2WPP",
      "value": 391609
    },
    {
      "scriptpubkey": "a914216d3499401fa4b96be070e4bb4f455dd22b597087",
      "scriptpubkey_asm": "OP_HASH160 OP_PUSHBYTES_20 216d3499401fa4b96be070e4bb4f455dd22b5970 OP_EQUAL",
      "scriptpubkey_type": "p2sh",
      "scriptpubkey_address": "34jm3buzpEYa7KT5ifc7tV2p1FK2Lz5qAK",
      "value": 40798
    },
    {
      "scriptpubkey": "76a914df4a12e700d57312394179d1ca1e0bd4b046cf6888ac",
      "scriptpubkey_asm": "OP_DUP OP_HASH160 OP_PUSHBYTES_20 df4a12e700d57312394179d1ca1e0bd4b046cf68 OP_EQUALVERIFY OP_CHECKSIG",
      "scriptpubkey_type": "p2pkh",
      "scriptpubkey_address": "1MMeRX5fsmbiArUXXrTeEggLftqZ4YLqA7",
      "value": 1427872
    },
    {
      "scriptpubkey": "76a91446c02da34243367c7f4faabb09c3f7838884a9a688ac",
      "scriptpubkey_asm": "OP_DUP OP_HASH160 OP_PUSHBYTES_20 46c02da34243367c7f4faabb09c3f7838884a9a6 OP_EQUALVERIFY OP_CHECKSIG",
      "scriptpubkey_type": "p2pkh",
      "scriptpubkey_address": "17T6XD6gL94wWy37QWyqA67aa5JPjsmPi9",
      "value": 1631744
    },
    {
      "scriptpubkey": "001401fc7924c077d7d3b148937a3250db4b3ecd3b2a",
      "scriptpubkey_asm": "OP_0 OP_PUSHBYTES_20 01fc7924c077d7d3b148937a3250db4b3ecd3b2a",
      "scriptpubkey_type": "v0_p2wpkh",
      "scriptpubkey_address": "bc1qq878jfxqwlta8v2gjdary5xmfvlv6we2u40y8y",
      "value": 135613
    },
    {
      "scriptpubkey": "00146093107699c1b60374a064e5ae899121b4b1c4a8",
      "scriptpubkey_asm": "OP_0 OP_PUSHBYTES_20 6093107699c1b60374a064e5ae899121b4b1c4a8",
      "scriptpubkey_type": "v0_p2wpkh",
      "scriptpubkey_address": "bc1qvzf3qa5ecxmqxa9qvnj6azv3yx6tr39g60d0je",
      "value": 156377
    },
    {
      "scriptpubkey": "a91471d87a62e429c6a08008c1e928d7a41661edadf187",
      "scriptpubkey_asm": "OP_HASH160 OP_PUSHBYTES_20 71d87a62e429c6a08008c1e928d7a41661edadf1 OP_EQUAL",
      "scriptpubkey_type": "p2sh",
      "scriptpubkey_address": "3C4ycP2syxcz6SSJtT77RQuD6ZXQCJBdzv",
      "value": 27199
    },
    {
      "scriptpubkey": "001457565080af3782a7728a21519e291c4a76dffad6",
      "scriptpubkey_asm": "OP_0 OP_PUSHBYTES_20 57565080af3782a7728a21519e291c4a76dffad6",
      "scriptpubkey_type": "v0_p2wpkh",
      "scriptpubkey_address": "bc1q2at9pq90x7p2wu52y9geu2guffmdl7kk2c9sp4",
      "value": 161082
    },
    {
      "scriptpubkey": "a9145ab435c05069bdabe862461f62c02a749bc98b4d87",
      "scriptpubkey_asm": "OP_HASH160 OP_PUSHBYTES_20 5ab435c05069bdabe862461f62c02a749bc98b4d OP_EQUAL",
      "scriptpubkey_type": "p2sh",
      "scriptpubkey_address": "39xcd1uVoB7C8cBzp1jXKjrp82yjChsYXD",
      "value": 260359
    },
    {
      "scriptpubkey": "0020b9a62f5d90b3924ff6146e34b05a3f3addb8793003334d28d097b91b8c636d21",
      "scriptpubkey_asm": "OP_0 OP_PUSHBYTES_32 b9a62f5d90b3924ff6146e34b05a3f3addb8793003334d28d097b91b8c636d21",
      "scriptpubkey_type": "v0_p2wsh",
      "scriptpubkey_address": "bc1qhxnz7hvskwfylas5dc6tqk3l8twms7fsqve562xsj7u3hrrrd5ssehlmd3",
      "value": 61161
    },
    {
      "scriptpubkey": "76a914af8aa51b4ab9be29089c3f405007fa87c2337a7488ac",
      "scriptpubkey_asm": "OP_DUP OP_HASH160 OP_PUSHBYTES_20 af8aa51b4ab9be29089c3f405007fa87c2337a74 OP_EQUALVERIFY OP_CHECKSIG",
      "scriptpubkey_type": "p2pkh",
      "scriptpubkey_address": "1H1BLnq8nkBTwBT2LkSq2cUgVWnrkYTUUb",
      "value": 448787
    },
    {
      "scriptpubkey": "0014c5739da3e7bc756bce109b513402b81d4a59cee5",
      "scriptpubkey_asm": "OP_0 OP_PUSHBYTES_20 c5739da3e7bc756bce109b513402b81d4a59cee5",
      "scriptpubkey_type": "v0_p2wpkh",
      "scriptpubkey_address": "bc1qc4eemgl8h36khnssndgngq4cr499nnh9zerxen",
      "value": 12224
    },
    {
      "scriptpubkey": "0014fba059f0b13d7ea70b9ffff4661558b685fa8523",
      "scriptpubkey_asm": "OP_0 OP_PUSHBYTES_20 fba059f0b13d7ea70b9ffff4661558b685fa8523",
      "scriptpubkey_type": "v0_p2wpkh",
      "scriptpubkey_address": "bc1qlws9nu9384l2wzulll6xv92ck6zl4pfryly7sx",
      "value": 20431
    },
    {
      "scriptpubkey": "76a91442b15a2d88428bb94e96f1fce442a180079fddd488ac",
      "scriptpubkey_asm": "OP_DUP OP_HASH160 OP_PUSHBYTES_20 42b15a2d88428bb94e96f1fce442a180079fddd4 OP_EQUALVERIFY OP_CHECKSIG",
      "scriptpubkey_type": "p2pkh",
      "scriptpubkey_address": "175e4K5UBaFZfW1GeNjLgfBZ39174AX3jh",
      "value": 214038
    },
    {
      "scriptpubkey": "76a914b3ad77cce767f05ea320e0a3d1188bbe95333d8688ac",
      "scriptpubkey_asm": "OP_DUP OP_HASH160 OP_PUSHBYTES_20 b3ad77cce767f05ea320e0a3d1188bbe95333d86 OP_EQUALVERIFY OP_CHECKSIG",
      "scriptpubkey_type": "p2pkh",
      "scriptpubkey_address": "1HP3m71FdCosAN4okkPQYHbHfiUeb6125r",
      "value": 68001
    },
    {
      "scriptpubkey": "00140276a90e136b02565630d91e8d1f2062b2c5e1ba",
      "scriptpubkey_asm": "OP_0 OP_PUSHBYTES_20 0276a90e136b02565630d91e8d1f2062b2c5e1ba",
      "scriptpubkey_type": "v0_p2wpkh",
      "scriptpubkey_address": "bc1qqfm2jrsndvp9v43smy0g68eqv2evtcd6fslqjh",
      "value": 34693
    },
    {
      "scriptpubkey": "001441bc6ee2dd6160a42ce5f930d3cb11fce06ebb63",
      "scriptpubkey_asm": "OP_0 OP_PUSHBYTES_20 41bc6ee2dd6160a42ce5f930d3cb11fce06ebb63",
      "scriptpubkey_type": "v0_p2wpkh",
      "scriptpubkey_address": "bc1qgx7xackav9s2gt89lycd8jc3lnsxawmr9x8nzy",
      "value": 365873
    },
    {
      "scriptpubkey": "00142145ff6be035fe60c8ea0ab1ba2d9565fef0b833",
      "scriptpubkey_asm": "OP_0 OP_PUSHBYTES_20 2145ff6be035fe60c8ea0ab1ba2d9565fef0b833",
      "scriptpubkey_type": "v0_p2wpkh",
      "scriptpubkey_address": "bc1qy9zl76lqxhlxpj82p2cm5tv4vhl0pwpnqxf5nr",
      "value": 67794
    },
    {
      "scriptpubkey": "a914fb56a3884ace1ceef4ad8842d7c013d6823d0ad687",
      "scriptpubkey_asm": "OP_HASH160 OP_PUSHBYTES_20 fb56a3884ace1ceef4ad8842d7c013d6823d0ad6 OP_EQUAL",
      "scriptpubkey_type": "p2sh",
      "scriptpubkey_address": "3QbyKTmtT3so9f3nTatKQD47ZEiRVG9xor",
      "value": 204028
    },
    {
      "scriptpubkey": "00144b64afa9ee57a07866315760a86de2f5032d49b0",
      "scriptpubkey_asm": "OP_0 OP_PUSHBYTES_20 4b64afa9ee57a07866315760a86de2f5032d49b0",
      "scriptpubkey_type": "v0_p2wpkh",
      "scriptpubkey_address": "bc1qfdj2l20w27s8se332as2sm0z75pj6jdsk8z64r",
      "value": 21483
    },
    {
      "scriptpubkey": "00141c493bf4a9544cf3ec8b69c38b3fc186ea2b45a6",
      "scriptpubkey_asm": "OP_0 OP_PUSHBYTES_20 1c493bf4a9544cf3ec8b69c38b3fc186ea2b45a6",
      "scriptpubkey_type": "v0_p2wpkh",
      "scriptpubkey_address": "bc1qr3ynha9f23x08mytd8pck07psm4zk3dxssmmkn",
      "value": 81008
    },
    {
      "scriptpubkey": "00141d4f9d25b35a570f377663ee86dc30e02eee808c",
      "scriptpubkey_asm": "OP_0 OP_PUSHBYTES_20 1d4f9d25b35a570f377663ee86dc30e02eee808c",
      "scriptpubkey_type": "v0_p2wpkh",
      "scriptpubkey_address": "bc1qr48e6fdntfts7dmkv0hgdhpsuqhwaqyv2su5ws",
      "value": 50933763
    },
    {
      "scriptpubkey": "a91421d6db06ca50bebe894b2369aca5ee3be2815c5087",
      "scriptpubkey_asm": "OP_HASH160 OP_PUSHBYTES_20 21d6db06ca50bebe894b2369aca5ee3be2815c50 OP_EQUAL",
      "scriptpubkey_type": "p2sh",
      "scriptpubkey_address": "34mwcJQwqF7rukAu1LfD3weDgjGKa3KWCT",
      "value": 680273
    },
    {
      "scriptpubkey": "0014f22901ae077be56f3ee296855fe61edd013a0eca",
      "scriptpubkey_asm": "OP_0 OP_PUSHBYTES_20 f22901ae077be56f3ee296855fe61edd013a0eca",
      "scriptpubkey_type": "v0_p2wpkh",
      "scriptpubkey_address": "bc1q7g5srts800jk70hzj6z4les7m5qn5rk28nm8cl",
      "value": 48604
    },
    {
      "scriptpubkey": "a914231660f004f2c3a47dc05d427882cf123762254387",
      "scriptpubkey_asm": "OP_HASH160 OP_PUSHBYTES_20 231660f004f2c3a47dc05d427882cf1237622543 OP_EQUAL",
      "scriptpubkey_type": "p2sh",
      "scriptpubkey_address": "34tYP9v8ZaUCUYAMqHDze7WV6aApCWY26J",
      "value": 29586
    },
    {
      "scriptpubkey": "a914255ef74259de4bfb88af07e6115182a5cbf6ac6d87",
      "scriptpubkey_asm": "OP_HASH160 OP_PUSHBYTES_20 255ef74259de4bfb88af07e6115182a5cbf6ac6d OP_EQUAL",
      "scriptpubkey_type": "p2sh",
      "scriptpubkey_address": "356cgz5GXJiqD8GmuUCsFZ2VAr8Ebkgaps",
      "value": 25788
    },
    {
      "scriptpubkey": "00200d68e21fa88acb929ea21056fcbbe12e4fb4d17f2f35c63b3627c074ba95e06b",
      "scriptpubkey_asm": "OP_0 OP_PUSHBYTES_32 0d68e21fa88acb929ea21056fcbbe12e4fb4d17f2f35c63b3627c074ba95e06b",
      "scriptpubkey_type": "v0_p2wsh",
      "scriptpubkey_address": "bc1qp45wy8ag3t9e984zzpt0ewlp9e8mf5tl9u6uvwekylq8fw54up4sppg4h4",
      "value": 135999
    },
    {
      "scriptpubkey": "0014d70491e967a554a1eca7712b9ad569f6bbdaacbb",
      "scriptpubkey_asm": "OP_0 OP_PUSHBYTES_20 d70491e967a554a1eca7712b9ad569f6bbdaacbb",
      "scriptpubkey_type": "v0_p2wpkh",
      "scriptpubkey_address": "bc1q6uzfr6t85422rm98wy4e44tf76aa4t9mkx6twt",
      "value": 13601
    },
    {
      "scriptpubkey": "00140a1a3a0f8df163aadf9ea8dce91e15d9d9f59b39",
      "scriptpubkey_asm": "OP_0 OP_PUSHBYTES_20 0a1a3a0f8df163aadf9ea8dce91e15d9d9f59b39",
      "scriptpubkey_type": "v0_p2wpkh",
      "scriptpubkey_address": "bc1qpgdr5rud79364hu74rwwj8s4m8vltxeesrkaw5",
      "value": 67997
    },
    {
      "scriptpubkey": "00142a6b0063f48d108f6c35ab6a1a101f05bf108c7e",
      "scriptpubkey_asm": "OP_0 OP_PUSHBYTES_20 2a6b0063f48d108f6c35ab6a1a101f05bf108c7e",
      "scriptpubkey_type": "v0_p2wpkh",
      "scriptpubkey_address": "bc1q9f4sqcl535gg7mp44d4p5yqlqkl3prr7xkrl4n",
      "value": 27199
    },
    {
      "scriptpubkey": "0014a09bdf78d0da1085c6daa0fe0b0a7f9654aa5dd2",
      "scriptpubkey_asm": "OP_0 OP_PUSHBYTES_20 a09bdf78d0da1085c6daa0fe0b0a7f9654aa5dd2",
      "scriptpubkey_type": "v0_p2wpkh",
      "scriptpubkey_address": "bc1q5zda77xsmgggt3k65rlqkznlje225hwjmd5hm8",
      "value": 34008
    }
  ],
  "size": 2890,
  "weight": 11233,
  "fee": 36404,
  "status": {
    "confirmed": true,
    "block_height": 834638,
    "block_hash": "000000000000000000025f742c626208ac87e0b7d15054abb4a19ca2d735a54e",
    "block_time": 1710405325
  },
  "hex": "02000000000101fb44ab19edf1230b1d02179d665a8adc5e4725192f58626fd4419c257ac11fe33300000000ffffffff5545200000000000001976a9146e33e8ec61ebc9b005a53e840850eb774e8753a988acd771000000000000160014670229e15f63572e742b4a8b12d59a0af47f5cc869c500000000000017a914b69d14c40e2a0b0b0fa6989ed75c4a054c560d63872689020000000000160014fa9033cb82605f7325f8b04b1d7448a77539ffe0a009010000000000160014b06e792461ab35197973b5daeaa42dd9dc1d9c706c8f000000000000160014e8652734e0bf0dbda8539f36bc5b14886580531050bb00000000000017a91477f1384661ec01921fc54d62b10fb00bd9cc458487dc6b00000000000016001473ba74367312441862d9f23c08aa2f094be616e9e9ee000000000000160014528abd307035d4da3fe1df474efc2fdd7bcb201933560100000000001976a914a10e2b771db247afd736dd9cacb554141d19d6c188ac952a000000000000160014b2f8d2944d3b6c7cedaf61e6cafc9b70f00dd1be2655000000000000160014c2d07575fc9eec29cd8bd917fe730a3d16087b8719182900000000001976a914f53ac70193260a2088de54685583a9036d3f16b188ac466a00000000000017a91479f15f3bf05ac010f2d182260f1376b44f7c929f87b7ca000000000000160014f145c60b426e4b1d7b6888337c89d281096cc8674c9e0600000000001976a914dba1894e092d682ab7432c210e8baebc10307ed788ac37f101000000000016001414bad489cc4a3f13b8130ddbf45415f626489bf2580f02000000000017a9148780c532e3470a463c40668fd020d4bbc28ada79873df1010000000000160014e85b49f1af12838ca4d8e4ab49f4f318ead74127ecb9000000000000160014237167142edefe955e85105f154daf88d3e85f86250306000000000016001497cc5e805a8c200ce94608ae04c594f8ebc487006f400200000000001976a914dfb5d54ac3078b39687e408226f73f79e9840b4a88ac3ff1010000000000160014c347a4c18cbf60e169c77db58be1af16839f37452535000000000000160014ab757108961704a23e177fa6bab7dcf692790a36245300000000000017a9141250067797bc2036dd4edcd3615ed5bcc8cae6c287eb6d0000000000001976a9140a5978218ae01e768f8fc2c56258953767bef24e88ac858700000000000017a9140729dda5370f81f8231e73ee5fab5d380606085687183a000000000000160014d2b563721b71d2b08df3fe39c835fdd24358a746fdfa04000000000016001484e8accd8692ed1aeccd73ec5587d8320119a8e0136901000000000017a9146510e2f2035414c748d145132a1b46d01fa378d887592000000000000016001406818fae86f2bb0c4f7abd114a3359bb854c95af41190c00000000001976a91442e2b5d144933d1ec988aa352916b312b803686988ac921a0000000000001600141f5bf0094163ac7bdfde27d0ebe594cdb3121b0bfce30300000000001600148e160bf66ed4aada6d0d742505e180eaa7c4760d8dc80000000000001600149c721b404afa97428be3169a76f896f13721936de6c50000000000001976a91493e8354e08dd5aa4a581b81524dfd61e9e1457ee88accf6a00000000000017a914af1072d531631e65d9fa66827ffd7d86d576b69c87445b0100000000001976a91437e2e6b025dd62275952a320187574d902f3459f88ac75cf00000000000016001441e63afc76b3c1c023dc137657c8b0a9de392af218ef00000000000016001433e2745c8c88bcd1997a5305bd53a4aea7f59860c8220100000000001976a9142679d6ac4890e1ea96a118f6ec1418e6f819f77588ac6fe301000000000017a914a5fca381c19311bb3ce346ab949044a525458beb87cf840000000000001976a914df565d4a6f55646bab3401b2f302a856803fa24c88ace7550100000000001600147a45349fbbe6239da815149c24e36b256a1bd588047c000000000000160014bba8317222a5077f4a5d8c99206a8e95b81445a4964802000000000017a91489b020c5e4487c3955388815123e4e6c605dae3287151a030000000000160014310f119632bd786bd27d6d16559dd3466e6185f27297000000000000160014e0d418fd9aa3b50d4fd89a5b4d363f3943ffbc1823311400000000001976a9149b9b7c9c444616c85a9e53165f5337c2c7424dcd88ac3e55010000000000160014d23ef6fdbc499a849874aa21143a04d6f419d1451dfd030000000000160014279b3cd3b0f7362b79ad9ba0a9e9d0c404e0869b858700000000000017a9143437bd28887458604692011f4a473f22110d559b87139a000000000000160014a6685cd87931b61345c5ad42fad7ef2ddde3b969a4110a000000000017a914890b0f7c16e056a22d1ed8ef22c62c9362cc26f287b9f905000000000017a914e5271eec87042c4b91665e673f0e853862e53f34875e9f00000000000017a914216d3499401fa4b96be070e4bb4f455dd22b597087a0c91500000000001976a914df4a12e700d57312394179d1ca1e0bd4b046cf6888ac00e61800000000001976a91446c02da34243367c7f4faabb09c3f7838884a9a688acbd1102000000000016001401fc7924c077d7d3b148937a3250db4b3ecd3b2ad9620200000000001600146093107699c1b60374a064e5ae899121b4b1c4a83f6a00000000000017a91471d87a62e429c6a08008c1e928d7a41661edadf1873a7502000000000016001457565080af3782a7728a21519e291c4a76dffad607f903000000000017a9145ab435c05069bdabe862461f62c02a749bc98b4d87e9ee000000000000220020b9a62f5d90b3924ff6146e34b05a3f3addb8793003334d28d097b91b8c636d2113d90600000000001976a914af8aa51b4ab9be29089c3f405007fa87c2337a7488acc02f000000000000160014c5739da3e7bc756bce109b513402b81d4a59cee5cf4f000000000000160014fba059f0b13d7ea70b9ffff4661558b685fa852316440300000000001976a91442b15a2d88428bb94e96f1fce442a180079fddd488aca1090100000000001976a914b3ad77cce767f05ea320e0a3d1188bbe95333d8688ac85870000000000001600140276a90e136b02565630d91e8d1f2062b2c5e1ba319505000000000016001441bc6ee2dd6160a42ce5f930d3cb11fce06ebb63d2080100000000001600142145ff6be035fe60c8ea0ab1ba2d9565fef0b833fc1c03000000000017a914fb56a3884ace1ceef4ad8842d7c013d6823d0ad687eb530000000000001600144b64afa9ee57a07866315760a86de2f5032d49b0703c0100000000001600141c493bf4a9544cf3ec8b69c38b3fc186ea2b45a603300903000000001600141d4f9d25b35a570f377663ee86dc30e02eee808c51610a000000000017a91421d6db06ca50bebe894b2369aca5ee3be2815c5087dcbd000000000000160014f22901ae077be56f3ee296855fe61edd013a0eca927300000000000017a914231660f004f2c3a47dc05d427882cf123762254387bc6400000000000017a914255ef74259de4bfb88af07e6115182a5cbf6ac6d873f130200000000002200200d68e21fa88acb929ea21056fcbbe12e4fb4d17f2f35c63b3627c074ba95e06b2135000000000000160014d70491e967a554a1eca7712b9ad569f6bbdaacbb9d090100000000001600140a1a3a0f8df163aadf9ea8dce91e15d9d9f59b393f6a0000000000001600142a6b0063f48d108f6c35ab6a1a101f05bf108c7ed884000000000000160014a09bdf78d0da1085c6daa0fe0b0a7f9654aa5dd20247304402207cce0e041a8ede3cad1c9b177d8e742d80f6f0fde75004e2bd0d2a669ec65532022028ca61534bbea69b83fc77672a0eaa9af912474c241c697e4ea20e3048ad769401210295ac0c35a046921b23b20a5365acb0727c86019c763ea2d34e71ff600952bef000000000"
}