{
  "txid": "43c72013958451b1beb761cce6e155f88f1e7455b30183f037fae6ac3e5ef00c",
  "version": 2,
  "locktime": 0,
  "vin": [
    {
      "txid": "28f38b3af2672bb0834269220e9232c579f93f0c2baa482a3a0625cb94161b07",
      "vout": 1,
      "prevout": {
        "scriptpubkey": "a914f01a60d24d4aa15e13d4da56b6281f68a7b25e7c87",
        "scriptpubkey_asm": "OP_HASH160 OP_PUSHBYTES_20 f01a60d24d4aa15e13d4da56b6281f68a7b25e7c OP_EQUAL",
        "scriptpubkey_type": "p2sh",
        "scriptpubkey_address": "3PaZhNbWSF4EsmfsqTE4gWsN1G7BjmqPN3",
        "value": 537589
      },
      "scriptsig": "1600140c1e85be4e5459b9957c35e6f0f511ab35b36994",
      "scriptsig_asm": "OP_PUSHBYTES_22 00140c1e85be4e5459b9957c35e6f0f511ab35b36994",
      "witness": [
        "3045022100da06c15dea807b1fb01125924595c95a1b0ba9068c253c43cba2bd86162ce8cb022052ea7a259a2ea3160d38980661fee598be5b0faf5ab3b1579106c791c6ac7ecf01",
        "029e8797f86ae98d65abc886812cb2be69ca9f7049cfa1f9a24184263745967fc9"
      ],
      "is_coinbase": false,
      "sequence": 4294967293,
      "inner_redeemscript_asm": "OP_0 OP_PUSHBYTES_20 0c1e85be4e5459b9957c35e6f0f511ab35b36994"
    }
  ],
  "vout": [
    {
      "scriptpubkey": "5120a0b88292fbbfe1ec9e392d7ec1db2fd4daffea8fa04b1947f4f80f56fb8b81eb",
      "scriptpubkey_asm": "OP_PUSHNUM_1 OP_PUSHBYTES_32 a0b88292fbbfe1ec9e392d7ec1db2fd4daffea8fa04b1947f4f80f56fb8b81eb",
      "scriptpubkey_type": "v1_p2tr",
      "scriptpubkey_address": "bc1p5zug9yhmhls7e83e94lvrke06nd0l6505p93j3l5lq84d7uts84scf7d5a",
      "value": 204389
    },
    {
      "scriptpubkey": "a914f01a60d24d4aa15e13d4da56b6281f68a7b25e7c87",
      "scriptpubkey_asm": "OP_HASH160 OP_PUSHBYTES_20 f01a60d24d4aa15e13d4da56b6281f68a7b25e7c OP_EQUAL",
      "scriptpubkey_type": "p2sh",
      "scriptpubkey_address": "3PaZhNbWSF4EsmfsqTE4gWsN1G7BjmqPN3",
      "value": 330368
    }
  ],
  "size": 259,
  "weight": 706,
  "fee": 2832,
  "status": {
    "confirmed": true,
    "block_height": 834638,
    "block_hash": "000000000000000000025f742c626208ac87e0b7d15054abb4a19ca2d735a54e",
    "block_time": 1710405325
  },
  "hex": "02000000000101071b1694cb25063a2a48aa2b0c3ff979c532920e22694283b02b67f23a8bf32801000000171600140c1e85be4e5459b9957c35e6f0f511ab35b36994fdffffff02651e030000000000225120a0b88292fbbfe1ec9e392d7ec1db2fd4daffea8fa04b1947f4f80f56fb8b81eb800a05000000000017a914f01a60d24d4aa15e13d4da56b6281f68a7b25e7c8702483045022100da06c15dea807b1fb01125924595c95a1b0ba9068c253c43cba2bd86162ce8cb022052ea7a259a2ea3160d38980661fee598be5b0faf5ab3b1579106c791c6ac7ecf0121029e8797f86ae98d65abc886812cb2be69ca9f7049cfa1f9a24184263745967fc900000000"
}