{
  "txid": "43cdae759e6c10cdad953e07d348814685318b379b2600f79e6b39aa17ab7462",
  "version": 2,
  "locktime": 0,
  "vin": [
    {
      "txid": "b114dae338c24c1f45900b499ac5fa1b445fa2d57015b4f08cf8bb6490c50a07",
      "vout": 1,
      "prevout": {
        "scriptpubkey": "76a914dd562978cbb5a065522d23a73cca6f2e11b081d588ac",
        "scriptpubkey_asm": "OP_DUP OP_HASH160 OP_PUSHBYTES_20 dd562978cbb5a065522d23a73cca6f2e11b081d5 OP_EQUALVERIFY OP_CHECKSIG",
        "scriptpubkey_type": "p2pkh",
        "scriptpubkey_address": "1MBKZ33QPWGgDP4axXwZCRefbhAVRomKtZ",
        "value": 44900533
      },
      "scriptsig": "473044022063d51041beb32423b9eb6a73356c7cbddf18db6b50d92475ae9c494995407fe102206334007b54b555d9f0065fb4b4803f8ea029d4e44ae7323c5fdd0e12e7e53a3c0121025b3baa65a7d2034eb12b7eb7fac80dbcb8efd22317fcd33725a7d1ab38baede0",
      "scriptsig_asm": "OP_PUSHBYTES_71 3044022063d51041beb32423b9eb6a73356c7cbddf18db6b50d92475ae9c494995407fe102206334007b54b555d9f0065fb4b4803f8ea029d4e44ae7323c5fdd0e12e7e53a3c01 OP_PUSHBYTES_33 025b3baa65a7d2034eb12b7eb7fac80dbcb8efd22317fcd33725a7d1ab38baede0",
      "is_coinbase": false,
      "sequence": 4294967295
    }
  ],
  "vout": [
    {
      "scriptpubkey": "a9146b1d3338ffc5ed8c6bf32f02d69dd19f5b5955e887",
      "scriptpubkey_asm": "OP_HASH160 OP_PUSHBYTES_20 6b1d3338ffc5ed8c6bf32f02d69dd19f5b5955e8 OP_EQUAL",
      "scriptpubkey_type": "p2sh",
      "scriptpubkey_address": "3BTPCvjmuhKcCwpmBB5dWjH2RTCBtXkrcG",
      "value": 15462400
    },
    {
      "scriptpubkey": "76a914179017b010c5119dadafb98179ddd703abaed0dc88ac",
      "scriptpubkey_asm": "OP_DUP OP_HASH160 OP_PUSHBYTES_20 179017b010c5119dadafb98179ddd703abaed0dc OP_EQUALVERIFY OP_CHECKSIG",
      "scriptpubkey_type": "p2pkh",
      "scriptpubkey_address": "139bA8vbaxuJvP8Q95sgKVBkaag79r1r5g",
      "value": 29433491
    }
  ],
  "size": 223,
  "weight": 892,
  "fee": 4642,
  "status": {
    "confirmed": true,
    "block_height": 834638,
    "block_hash": "000000000000000000025f742c626208ac87e0b7d15054abb4a19ca2d735a54e",
    "block_time": 1710405325
  },
  "hex": "0200000001070ac59064bbf88cf0b41570d5a25f441bfac59a490b90451f4cc238e3da14b1010000006a473044022063d51041beb32423b9eb6a73356c7cbddf18db6b50d92475ae9c494995407fe102206334007b54b555d9f0065fb4b4803f8ea029d4e44ae7323c5fdd0e12e7e53a3c0121025b3baa65a7d2034eb12b7eb7fac80dbcb8efd22317fcd33725a7d1ab38baede0ffffffff0200f0eb000000000017a9146b1d3338ffc5ed8c6bf32f02d69dd19f5b5955e887931ec101000000001976a914179017b010c5119dadafb98179ddd703abaed0dc88ac00000000"
}