{
  "txid": "43db3aee3e808c34371fe7dc70be3743a1a59f0c362c4de306bf1a28b275534a",
  "version": 2,
  "locktime": 0,
  "vin": [
    {
      "txid": "fcfa4fa6034da3f8f5cb9cc774deb4be34c1519f2c129f3383b6532a7522103a",
      "vout": 0,
      "prevout": {
        "scriptpubkey": "51203f1fefd9649358a94a1be220c2694059111c49b8075ce6a76af1fb2dceb50ede",
        "scriptpubkey_asm": "OP_PUSHNUM_1 OP_PUSHBYTES_32 3f1fefd9649358a94a1be220c2694059111c49b8075ce6a76af1fb2dceb50ede",
        "scriptpubkey_type": "v1_p2tr",
        "scriptpubkey_address": "bc1p8u07lktyjdv2jjsmugsvy62qtyg3cjdcqawwdfm278ajmn44pm0q70fdum",
        "value": 600
      },
      "scriptsig": "",
      "scriptsig_asm": "",
      "witness": [
        "67fec0a653d2971517b4342e98dc02c6a50d131cb30921ed8ab206d12fdc9b9633b356c0f247f51ce0bd040bdfcd9f5c12642b730fdbda821783d63de8966891"
      ],
      "is_coinbase": false,
      "sequence": 4294967295
    },
    {
      "txid": "fcfa4fa6034da3f8f5cb9cc774deb4be34c1519f2c129f3383b6532a7522103a",
      "vout": 1,
      "prevout": {
        "scriptpubkey": "51203f1fefd9649358a94a1be220c2694059111c49b8075ce6a76af1fb2dceb50ede",
        "scriptpubkey_asm": "OP_PUSHNUM_1 OP_PUSHBYTES_32 3f1fefd9649358a94a1be220c2694059111c49b8075ce6a76af1fb2dceb50ede",
        "scriptpubkey_type": "v1_p2tr",
        "scriptpubkey_address": "bc1p8u07lktyjdv2jjsmugsvy62qtyg3cjdcqawwdfm278ajmn44pm0q70fdum",
        "value": 600
      },
      "scriptsig": "",
      "scriptsig_asm": "",
      "witness": [
        "043a0043737bb86ab79da634441ad109a6d07ed9bb88218a81fb95b66ca0d07726c5cc89da857114f08152ffe93c132b656b4d94d52328b50bb778c94c60f90f"
      ],
      "is_coinbase": false,
      "sequence": 4294967295
    },
    {
      "txid": "1f31eebf0fbbde28a78be042ce0f306dc7449e8c44857b6ccd746e0209ffc48c",
      "vout": 0,
      "prevout": {
        "scriptpubkey": "512018cbef051d8e47dc062dba6a8886eb121a877e705005edca82ba45f1a72a7b36",
        "scriptpubkey_asm": "OP_PUSHNUM_1 OP_PUSHBYTES_32 18cbef051d8e47dc062dba6a8886eb121a877e705005edca82ba45f1a72a7b36",
        "scriptpubkey_type": "v1_p2tr",
        "scriptpubkey_address": "bc1prr977pga3eracp3dhf4g3phtzgdgwlns2qz7mj5zhfzlrfe20vmqs8hsvl",
        "value": 546
      },
      "scriptsig": "",
      "scriptsig_asm": "",
      "witness": [
        "81d8feaa876ce1a1e508f4412901eea03e7766b0e2a37ae7319de54c23264c5b066134b7c4bd8269449c6b4b0c73ba1955fda78ce8d577c6bb06fc8f8e5312f983"
      ],
      "is_coinbase": false,
      "sequence": 4294967295
    },
    {
      "txid": "fcfa4fa6034da3f8f5cb9cc774deb4be34c1519f2c129f3383b6532a7522103a",
      "vout": 2,
      "prevout": {
        "scriptpubkey": "51203f1fefd9649358a94a1be220c2694059111c49b8075ce6a76af1fb2dceb50ede",
        "scriptpubkey_asm": "OP_PUSHNUM_1 OP_PUSHBYTES_32 3f1fefd9649358a94a1be220c2694059111c49b8075ce6a76af1fb2dceb50ede",
        "scriptpubkey_type": "v1_p2tr",
        "scriptpubkey_address": "bc1p8u07lktyjdv2jjsmugsvy62qtyg3cjdcqawwdfm278ajmn44pm0q70fdum",
        "value": 280648
      },
      "scriptsig": "",
      "scriptsig_asm": "",
      "witness": [
        "aff11db4ff8df27616a790305167d7fcb4d98cba5bdd47a667961bcabc4fa5df5448b13b0697ec483d4379307afdd87a04ef0846155c60cb4008f1ae20807853"
      ],
      "is_coinbase": false,
      "sequence": 4294967295
    }
  ],
  "vout": [
    {
      "scriptpubkey": "51203f1fefd9649358a94a1be220c2694059111c49b8075ce6a76af1fb2dceb50ede",
      "scriptpubkey_asm": "OP_PUSHNUM_1 OP_PUSHBYTES_32 3f1fefd9649358a94a1be220c2694059111c49b8075ce6a76af1fb2dceb50ede",
      "scriptpubkey_type": "v1_p2tr",
      "scriptpubkey_address": "bc1p8u07lktyjdv2jjsmugsvy62qtyg3cjdcqawwdfm278ajmn44pm0q70fdum",
      "value": 1200
    },
    {
      "scriptpubkey": "51203f1fefd9649358a94a1be220c2694059111c49b8075ce6a76af1fb2dceb50ede",
      "scriptpubkey_asm": "OP_PUSHNUM_1 OP_PUSHBYTES_32 3f1fefd9649358a94a1be220c2694059111c49b8075ce6a76af1fb2dceb50ede",
      "scriptpubkey_type": "v1_p2tr",
      "scriptpubkey_address": "bc1p8u07lktyjdv2jjsmugsvy62qtyg3cjdcqawwdfm278ajmn44pm0q70fdum",
      "value": 546
    },
    {
      "scriptpubkey": "512018cbef051d8e47dc062dba6a8886eb121a877e705005edca82ba45f1a72a7b36",
      "scriptpubkey_asm": "OP_PUSHNUM_1 OP_PUSHBYTES_32 18cbef051d8e47dc062dba6a8886eb121a877e705005edca82ba45f1a72a7b36",
      "scriptpubkey_type": "v1_p2tr",
      "scriptpubkey_address": "bc1prr977pga3eracp3dhf4g3phtzgdgwlns2qz7mj5zhfzlrfe20vmqs8hsvl",
      "value": 269000
    },
    {
      "scriptpubkey": "51203f1fefd9649358a94a1be220c2694059111c49b8075ce6a76af1fb2dceb50ede",
      "scriptpubkey_asm": "OP_PUSHNUM_1 OP_PUSHBYTES_32 3f1fefd9649358a94a1be220c2694059111c49b8075ce6a76af1fb2dceb50ede",
      "scriptpubkey_type": "v1_p2tr",
      "scriptpubkey_address": "bc1p8u07lktyjdv2jjsmugsvy62qtyg3cjdcqawwdfm278ajmn44pm0q70fdum",
      "value": 600
    },
    {
      "scriptpubkey": "51203f1fefd9649358a94a1be220c2694059111c49b8075ce6a76af1fb2dceb50ede",
      "scriptpubkey_asm": "OP_PUSHNUM_1 OP_PUSHBYTES_32 3f1fefd9649358a94a1be220c2694059111c49b8075ce6a76af1fb2dceb50ede",
      "scriptpubkey_type": "v1_p2tr",
      "scriptpubkey_address": "bc1p8u07lktyjdv2jjsmugsvy62qtyg3cjdcqawwdfm278ajmn44pm0q70fdum",
      "value": 600
    },
    {
      "scriptpubkey": "51203f1fefd9649358a94a1be220c2694059111c49b8075ce6a76af1fb2dceb50ede",
      "scriptpubkey_asm": "OP_PUSHNUM_1 OP_PUSHBYTES_32 3f1fefd9649358a94a1be220c2694059111c49b8075ce6a76af1fb2dceb50ede",
      "scriptpubkey_type": "v1_p2tr",
      "scriptpubkey_address": "bc1p8u07lktyjdv2jjsmugsvy62qtyg3cjdcqawwdfm278ajmn44pm0q70fdum",
      "value": 2963
    }
  ],
  "size": 699,
  "weight": 1995,
  "fee": 7485,
  "status": {
    "confirmed": true,
    "block_height": 834638,
    "block_hash": "000000000000000000025f742c626208ac87e0b7d15054abb4a19ca2d735a54e",
    "block_time": 1710405325
  },
  "hex": "020000000001043a1022752a53b683339f122c9f51c134beb4de74c79ccbf5f8a34d03a64ffafc0000000000ffffffff3a1022752a53b683339f122c9f51c134beb4de74c79ccbf5f8a34d03a64ffafc0100000000ffffffff8cc4ff09026e74cd6c7b85448c9e44c76d300fce42e08ba728debb0fbfee311f0000000000ffffffff3a1022752a53b683339f122c9f51c134beb4de74c79ccbf5f8a34d03a64ffafc0200000000ffffffff06b0040000000000002251203f1fefd9649358a94a1be220c2694059111c49b8075ce6a76af1fb2dceb50ede22020000000000002251203f1fefd9649358a94a1be220c2694059111c49b8075ce6a76af1fb2dceb50edec81a04000000000022512018cbef051d8e47dc062dba6a8886eb121a877e705005edca82ba45f1a72a7b3658020000000000002251203f1fefd9649358a94a1be220c2694059111c49b8075ce6a76af1fb2dceb50ede58020000000000002251203f1fefd9649358a94a1be220c2694059111c49b8075ce6a76af1fb2dceb50ede930b0000000000002251203f1fefd9649358a94a1be220c2694059111c49b8075ce6a76af1fb2dceb50ede014067fec0a653d2971517b4342e98dc02c6a50d131cb30921ed8ab206d12fdc9b9633b356c0f247f51ce0bd040bdfcd9f5c12642b730fdbda821783d63de89668910140043a0043737bb86ab79da634441ad109a6d07ed9bb88218a81fb95b66ca0d07726c5cc89da857114f08152ffe93c132b656b4d94d52328b50bb778c94c60f90f014181d8feaa876ce1a1e508f4412901eea03e7766b0e2a37ae7319de54c23264c5b066134b7c4bd8269449c6b4b0c73ba1955fda78ce8d577c6bb06fc8f8e5312f9830140aff11db4ff8df27616a790305167d7fcb4d98cba5bdd47a667961bcabc4fa5df5448b13b0697ec483d4379307afdd87a04ef0846155c60cb4008f1ae2080785300000000"
}