{
  "txid": "4408e4d4f52837e9504056c8e33b7e921a10c072b520ff810fc938ad1201b652",
  "version": 2,
  "locktime": 0,
  "vin": [
    {
      "txid": "4a930a5f30e9f9d2605df8e9bf446931a9f7535b97c6b5390e30d28c052b180f",
      "vout": 1,
      "prevout": {
        "scriptpubkey": "76a9147d77980cbeddb6c568302b352b1e949ee9bd437488ac",
        "scriptpubkey_asm": "OP_DUP OP_HASH160 OP_PUSHBYTES_20 7d77980cbeddb6c568302b352b1e949ee9bd4374 OP_EQUALVERIFY OP_CHECKSIG",
        "scriptpubkey_type": "p2pkh",
        "scriptpubkey_address": "1CSQjWgVoXYUfBmaAJzU78MLY6LQ3FWdiB",
        "value": 167893
      },
      "scriptsig": "473044022078d8894dd0d60617d63a20c7dae9959e1112c31fbe724beb24442aad610aebf5022000ac8a40230a0c31843f37a7198eb9f0d75b418c4ec62cdd7f7e98dbd4255ee80121031314f086a6fbebca2f754cd20cfed8a60cfc4e3ff8d1472f1ade482ce01836b1",
      "scriptsig_asm": "OP_PUSHBYTES_71 3044022078d8894dd0d60617d63a20c7dae9959e1112c31fbe724beb24442aad610aebf5022000ac8a40230a0c31843f37a7198eb9f0d75b418c4ec62cdd7f7e98dbd4255ee801 OP_PUSHBYTES_33 031314f086a6fbebca2f754cd20cfed8a60cfc4e3ff8d1472f1ade482ce01836b1",
      "is_coinbase": false,
      "sequence": 4294967293
    }
  ],
  "vout": [
    {
      "scriptpubkey": "00148bf3f1520ad44ac7295a6ca9e92635adcba5f481",
      "scriptpubkey_asm": "OP_0 OP_PUSHBYTES_20 8bf3f1520ad44ac7295a6ca9e92635adcba5f481",
      "scriptpubkey_type": "v0_p2wpkh",
      "scriptpubkey_address": "bc1q30elz5s2639vw226dj57jf344h96tayp9ftqsq",
      "value": 142108
    }
  ],
  "size": 188,
  "weight": 752,
  "fee": 25785,
  "status": {
    "confirmed": true,
    "block_height": 834638,
    "block_hash": "000000000000000000025f742c626208ac87e0b7d15054abb4a19ca2d735a54e",
    "block_time": 1710405325
  },
  "hex": "02000000010f182b058cd2300e39b5c6975b53f7a9316944bfe9f85d60d2f9e9305f0a934a010000006a473044022078d8894dd0d60617d63a20c7dae9959e1112c31fbe724beb24442aad610aebf5022000ac8a40230a0c31843f37a7198eb9f0d75b418c4ec62cdd7f7e98dbd4255ee80121031314f086a6fbebca2f754cd20cfed8a60cfc4e3ff8d1472f1ade482ce01836b1fdffffff011c2b0200000000001600148bf3f1520ad44ac7295a6ca9e92635adcba5f48100000000"
}