{
  "txid": "4411171fbbe196094e60c70589d8212c8a03f8678d1283d428f0ec49bacd9233",
  "version": 1,
  "locktime": 834637,
  "vin": [
    {
      "txid": "10052a40516cc5bf88399afeb5b4a0344e33b62c282f0309341abf603a04b859",
      "vout": 1,
      "prevout": {
        "scriptpubkey": "0020b71cac942da9b99c9c5a1e8d0856019e6f321297cae7a4a54844caa9c3dd7411",
        "scriptpubkey_asm": "OP_0 OP_PUSHBYTES_32 b71cac942da9b99c9c5a1e8d0856019e6f321297cae7a4a54844caa9c3dd7411",
        "scriptpubkey_type": "v0_p2wsh",
        "scriptpubkey_address": "bc1qkuw2e9pd4xuee8z6r6xss4spnehnyy5hetn6ff2ggn92ns7awsgs4v86yh",
        "value": 94145834
      },
      "scriptsig": "",
      "scriptsig_asm": "",
      "witness": [
        "",
        "3045022100c5c2cb87fd16c1690e509614228d576805c1dc5acabc3b8343393597ad477fbb0220358c9d3838cf4216d35c1e0cfab62529cdbe5ba3fe9dcc686e54920131a08e7101",
        "3044022039d26e8042cd30633281e7d4f35c2986ce5026506da49ef941ea05d2c7fa52640220506667086261fac5ea18692fbc4c5052c20436785d01bc71fabac68ee55e2a2f01",
        "522102fbae8bdeeb5eda4a5a62689fa7340aa0ab76e6e9a8666b25cdae20ad10d657302102f0270f300a274e794762f622c8812ddcdbfadb32c6fc530b92730d7693c8f85c21027109a7a297e2d04ed3e33e08ec2cfd3992f96ce27761710ad7b6a40ec9c79e3a53ae"
      ],
      "is_coinbase": false,
      "sequence": 4294967293,
      "inner_witnessscript_asm": "OP_PUSHNUM_2 OP_PUSHBYTES_33 02fbae8bdeeb5eda4a5a62689fa7340aa0ab76e6e9a8666b25cdae20ad10d65730 OP_PUSHBYTES_33 02f0270f300a274e794762f622c8812ddcdbfadb32c6fc530b92730d7693c8f85c OP_PUSHBYTES_33 027109a7a297e2d04ed3e33e08ec2cfd3992f96ce27761710ad7b6a40ec9c79e3a OP_PUSHNUM_3 OP_CHECKMULTISIG"
    }
  ],
  "vout": [
    {
      "scriptpubkey": "a914625ada7e0dbfa5a8cbf84e18c52b0f949155536187",
      "scriptpubkey_asm": "OP_HASH160 OP_PUSHBYTES_20 625ada7e0dbfa5a8cbf84e18c52b0f9491555361 OP_EQUAL",
      "scriptpubkey_type": "p2sh",
      "scriptpubkey_address": "3Af4yxHXQku3tDSiLfquyCih7h5BxPwnhM",
      "value": 90481
    },
    {
      "scriptpubkey": "00200e33179f67b74919c2c50b7a7a2cf178433f8d0371130b476ab9aee1bff95b69",
      "scriptpubkey_asm": "OP_0 OP_PUSHBYTES_32 0e33179f67b74919c2c50b7a7a2cf178433f8d0371130b476ab9aee1bff95b69",
      "scriptpubkey_type": "v0_p2wsh",
      "scriptpubkey_address": "bc1qpce308m8kay3nsk9pda85t830ppnlrgrwyfsk3m2hxhwr0letd5sh7f2uf",
      "value": 94051628
    }
  ],
  "size": 381,
  "weight": 759,
  "fee": 3725,
  "status": {
    "confirmed": true,
    "block_height": 834638,
    "block_hash": "000000000000000000025f742c626208ac87e0b7d15054abb4a19ca2d735a54e",
    "block_time": 1710405325
  },
  "hex": "0100000000010159b8043a60bf1a3409032f282cb6334e34a0b4b5fe9a3988bfc56c51402a05100100000000fdffffff02716101000000000017a914625ada7e0dbfa5a8cbf84e18c52b0f9491555361872c1d9b05000000002200200e33179f67b74919c2c50b7a7a2cf178433f8d0371130b476ab9aee1bff95b690400483045022100c5c2cb87fd16c1690e509614228d576805c1dc5acabc3b8343393597ad477fbb0220358c9d3838cf4216d35c1e0cfab62529cdbe5ba3fe9dcc686e54920131a08e7101473044022039d26e8042cd30633281e7d4f35c2986ce5026506da49ef941ea05d2c7fa52640220506667086261fac5ea18692fbc4c5052c20436785d01bc71fabac68ee55e2a2f0169522102fbae8bdeeb5eda4a5a62689fa7340aa0ab76e6e9a8666b25cdae20ad10d657302102f0270f300a274e794762f622c8812ddcdbfadb32c6fc530b92730d7693c8f85c21027109a7a297e2d04ed3e33e08ec2cfd3992f96ce27761710ad7b6a40ec9c79e3a53ae4dbc0c00"
}