{
  "txid": "441addfdb7ed114c033bef6c6560f13aabda1da4e2855727e0281f715936825f",
  "version": 1,
  "locktime": 0,
  "vin": [
    {
      "txid": "f429a001e36813fe702e10b4ea5b33bc94ebc531b34befefe61c76ef95a60c1c",
      "vout": 1,
      "prevout": {
        "scriptpubkey": "76a914adedec66e05bc76c551ade5dc08626227cd31a7588ac",
        "scriptpubkey_asm": "OP_DUP OP_HASH160 OP_PUSHBYTES_20 adedec66e05bc76c551ade5dc08626227cd31a75 OP_EQUALVERIFY OP_CHECKSIG",
        "scriptpubkey_type": "p2pkh",
        "scriptpubkey_address": "1GrevQ3unB1HbBYbK1jnyG1rhTXGJfKsrE",
        "value": 104477
      },
      "scriptsig": "463043021f75534b999ee732efc2baacdadccab8f869cf3b5a477850c2880bb63fd08e2b02204ec4dd32fc6d77e1de23839538b7e31acc7176556e94157335e6e1b940cf23ed012103f0b5132e78cf2b63ebb8864f5c0af98363432765f0a60353769e137b87335f0d",
      "scriptsig_asm": "OP_PUSHBYTES_70 3043021f75534b999ee732efc2baacdadccab8f869cf3b5a477850c2880bb63fd08e2b02204ec4dd32fc6d77e1de23839538b7e31acc7176556e94157335e6e1b940cf23ed01 OP_PUSHBYTES_33 03f0b5132e78cf2b63ebb8864f5c0af98363432765f0a60353769e137b87335f0d",
      "is_coinbase": false,
      "sequence": 4294967295
    },
    {
      "txid": "c999229abfa4546a605dd2a497ee985e0597ee0390998cb0e244b3287c92b2f5",
      "vout": 1,
      "prevout": {
        "scriptpubkey": "76a914af2106f6e51cc523a5107ae8a18e18efdd15931888ac",
        "scriptpubkey_asm": "OP_DUP OP_HASH160 OP_PUSHBYTES_20 af2106f6e51cc523a5107ae8a18e18efdd159318 OP_EQUALVERIFY OP_CHECKSIG",
        "scriptpubkey_type": "p2pkh",
        "scriptpubkey_address": "1GxzpLmGHoXyLntHsv98ovofLRd6EzGoH8",
        "value": 106900
      },
      "scriptsig": "47304402204a539c37f9797a2e40daa52f466aab8dc6ad9351a82c3cdb707195222502653602200831fd2e0dcf0daeb21332eff7683651984c407020dde1639d6c4b6f1a66825001210347092991b2144c7dc77242172ec633db64c2969b54386110054980858e8c90ab",
      "scriptsig_asm": "OP_PUSHBYTES_71 304402204a539c37f9797a2e40daa52f466aab8dc6ad9351a82c3cdb707195222502653602200831fd2e0dcf0daeb21332eff7683651984c407020dde1639d6c4b6f1a66825001 OP_PUSHBYTES_33 0347092991b2144c7dc77242172ec633db64c2969b54386110054980858e8c90ab",
      "is_coinbase": false,
      "sequence": 4294967295
    },
    {
      "txid": "18e17594c50c45b20b60e6b4091cb5e2f2df0156b3138f3452f1ae643b3e90ed",
      "vout": 1,
      "prevout": {
        "scriptpubkey": "76a9145b18e300547a513d6b2bc459a2428af288cca84f88ac",
        "scriptpubkey_asm": "OP_DUP OP_HASH160 OP_PUSHBYTES_20 5b18e300547a513d6b2bc459a2428af288cca84f OP_EQUALVERIFY OP_CHECKSIG",
        "scriptpubkey_type": "p2pkh",
        "scriptpubkey_address": "19JgJckjzEejaKGAqdj5R5PQzHW7ELMac6",
        "value": 133349
      },
      "scriptsig": "483045022100d6465356feac3bbd5ece73c4c045de1de94f1475760f97674ab76b1d2914472d02202e5b9457ca141cdc95a8f8ad3e4d6fa51ef51712f2040589dd20216c5ed1bfcd012102b3aa6d353772f7ea6082393ca48d1d92e7568c3cdc5c886d8c0fc2695f2ea9dc",
      "scriptsig_asm": "OP_PUSHBYTES_72 3045022100d6465356feac3bbd5ece73c4c045de1de94f1475760f97674ab76b1d2914472d02202e5b9457ca141cdc95a8f8ad3e4d6fa51ef51712f2040589dd20216c5ed1bfcd01 OP_PUSHBYTES_33 02b3aa6d353772f7ea6082393ca48d1d92e7568c3cdc5c886d8c0fc2695f2ea9dc",
      "is_coinbase": false,
      "sequence": 4294967295
    },
    {
      "txid": "711e178bff3e8b3b7f5722ff6af28b0f75718aaff1f1788fde2bf865ada5c8d4",
      "vout": 1,
      "prevout": {
        "scriptpubkey": "76a9145c40e65e48e013235627863d7b04c5ee20f0323d88ac",
        "scriptpubkey_asm": "OP_DUP OP_HASH160 OP_PUSHBYTES_20 5c40e65e48e013235627863d7b04c5ee20f0323d OP_EQUALVERIFY OP_CHECKSIG",
        "scriptpubkey_type": "p2pkh",
        "scriptpubkey_address": "19QnuyJwDZ5B3jRuqZCMrAAuiD2RGCJRqD",
        "value": 138509
      },
      "scriptsig": "4730440220786d9612a2b223adec90994d8033ba61b0a75430f5a4d3d37bf628ee54ecbb1f02200b10985d7cdf90c1504f7ef8b936b4adfb9f8ab0147bdb1ebde88e823992765f012102bb2ce348fbb5c62db4265a98adb880e211ac877f2cbf9e9a1d4178f4aad8af98",
      "scriptsig_asm": "OP_PUSHBYTES_71 30440220786d9612a2b223adec90994d8033ba61b0a75430f5a4d3d37bf628ee54ecbb1f02200b10985d7cdf90c1504f7ef8b936b4adfb9f8ab0147bdb1ebde88e823992765f01 OP_PUSHBYTES_33 02bb2ce348fbb5c62db4265a98adb880e211ac877f2cbf9e9a1d4178f4aad8af98",
      "is_coinbase": false,
      "sequence": 4294967295
    },
    {
      "txid": "b476a0ebe310a250d04510ae0e6b042d78b7d1f3dd57c2638e4485dec6afcaff",
      "vout": 1,
      "prevout": {
        "scriptpubkey": "76a914350774c083cbb4b92ea41d5832b4ac03b2c1af7288ac",
        "scriptpubkey_asm": "OP_DUP OP_HASH160 OP_PUSHBYTES_20 350774c083cbb4b92ea41d5832b4ac03b2c1af72 OP_EQUALVERIFY OP_CHECKSIG",
        "scriptpubkey_type": "p2pkh",
        "scriptpubkey_address": "15qPkDxFPUQoKnH1wmMzrCTXm7WyQsXEWp",
        "value": 139209
      },
      "scriptsig": "483045022100bdca67a3caa34e354d367998f207e0107c752cba3d026a2cc0c17edf03af08c002200d3606807161efcd5b0dd40fbd981ef540f2c7588cd3a26fb4e169c5d6295719012102bc7f5eba44d813cf1f0b5619a4a5892837a75c4fbed8b08fafa6ca2d7df92018",
      "scriptsig_asm": "OP_PUSHBYTES_72 3045022100bdca67a3caa34e354d367998f207e0107c752cba3d026a2cc0c17edf03af08c002200d3606807161efcd5b0dd40fbd981ef540f2c7588cd3a26fb4e169c5d629571901 OP_PUSHBYTES_33 02bc7f5eba44d813cf1f0b5619a4a5892837a75c4fbed8b08fafa6ca2d7df92018",
      "is_coinbase": false,
      "sequence": 4294967295
    },
    {
      "txid": "79fa73e53fb61e43d601e6bd7467ba9a642cd685f9b36a0f0bfbb5fe3becceba",
      "vout": 1,
      "prevout": {
        "scriptpubkey": "76a914adedec66e05bc76c551ade5dc08626227cd31a7588ac",
        "scriptpubkey_asm": "OP_DUP OP_HASH160 OP_PUSHBYTES_20 adedec66e05bc76c551ade5dc08626227cd31a75 OP_EQUALVERIFY OP_CHECKSIG",
        "scriptpubkey_type": "p2pkh",
        "scriptpubkey_address": "1GrevQ3unB1HbBYbK1jnyG1rhTXGJfKsrE",
        "value": 149768
      },
      "scriptsig": "483045022100beb78bda412749dc00291c77637b26595e7796a137594e4699c495474546910d0220378935e73cff57480b2626a85a37dab7f89d9e3cc0b914af71f94dcffdf3066d012103f0b5132e78cf2b63ebb8864f5c0af98363432765f0a60353769e137b87335f0d",
      "scriptsig_asm": "OP_PUSHBYTES_72 3045022100beb78bda412749dc00291c77637b26595e7796a137594e4699c495474546910d0220378935e73cff57480b2626a85a37dab7f89d9e3cc0b914af71f94dcffdf3066d01 OP_PUSHBYTES_33 03f0b5132e78cf2b63ebb8864f5c0af98363432765f0a60353769e137b87335f0d",
      "is_coinbase": false,
      "sequence": 4294967295
    }
  ],
  "vout": [
    {
      "scriptpubkey": "76a914c3669c13119ec05eaff0dea786473cc8a08f2eee88ac",
      "scriptpubkey_asm": "OP_DUP OP_HASH160 OP_PUSHBYTES_20 c3669c13119ec05eaff0dea786473cc8a08f2eee OP_EQUALVERIFY OP_CHECKSIG",
      "scriptpubkey_type": "p2pkh",
      "scriptpubkey_address": "1JpBgrPUyUAEWG2xy5cDZyyXPThLo3fhni",
      "value": 687322
    },
    {
      "scriptpubkey": "76a91491d4de37032fbc6c2ae47ac7f5b7dd6271fc58a288ac",
      "scriptpubkey_asm": "OP_DUP OP_HASH160 OP_PUSHBYTES_20 91d4de37032fbc6c2ae47ac7f5b7dd6271fc58a2 OP_EQUALVERIFY OP_CHECKSIG",
      "scriptpubkey_type": "p2pkh",
      "scriptpubkey_address": "1EJ5z9RVsd7JBw14tayknEQDV1rs7CfRyi",
      "value": 53012
    }
  ],
  "size": 962,
  "weight": 3848,
  "fee": 31878,
  "status": {
    "confirmed": true,
    "block_height": 834638,
    "block_hash": "000000000000000000025f742c626208ac87e0b7d15054abb4a19ca2d735a54e",
    "block_time": 1710405325
  },
  "hex": "01000000061c0ca695ef761ce6efef4bb331c5eb94bc335beab4102e70fe1368e301a029f40100000069463043021f75534b999ee732efc2baacdadccab8f869cf3b5a477850c2880bb63fd08e2b02204ec4dd32fc6d77e1de23839538b7e31acc7176556e94157335e6e1b940cf23ed012103f0b5132e78cf2b63ebb8864f5c0af98363432765f0a60353769e137b87335f0dfffffffff5b2927c28b344e2b08c999003ee97055e98ee97a4d25d606a54a4bf9a2299c9010000006a47304402204a539c37f9797a2e40daa52f466aab8dc6ad9351a82c3cdb707195222502653602200831fd2e0dcf0daeb21332eff7683651984c407020dde1639d6c4b6f1a66825001210347092991b2144c7dc77242172ec633db64c2969b54386110054980858e8c90abffffffffed903e3b64aef152348f13b35601dff2e2b51c09b4e6600bb2450cc59475e118010000006b483045022100d6465356feac3bbd5ece73c4c045de1de94f1475760f97674ab76b1d2914472d02202e5b9457ca141cdc95a8f8ad3e4d6fa51ef51712f2040589dd20216c5ed1bfcd012102b3aa6d353772f7ea6082393ca48d1d92e7568c3cdc5c886d8c0fc2695f2ea9dcffffffffd4c8a5ad65f82bde8f78f1f1af8a71750f8bf26aff22577f3b8b3eff8b171e71010000006a4730440220786d9612a2b223adec90994d8033ba61b0a75430f5a4d3d37bf628ee54ecbb1f02200b10985d7cdf90c1504f7ef8b936b4adfb9f8ab0147bdb1ebde88e823992765f012102bb2ce348fbb5c62db4265a98adb880e211ac877f2cbf9e9a1d4178f4aad8af98ffffffffffcaafc6de85448e63c257ddf3d1b7782d046b0eae1045d050a210e3eba076b4010000006b483045022100bdca67a3caa34e354d367998f207e0107c752cba3d026a2cc0c17edf03af08c002200d3606807161efcd5b0dd40fbd981ef540f2c7588cd3a26fb4e169c5d6295719012102bc7f5eba44d813cf1f0b5619a4a5892837a75c4fbed8b08fafa6ca2d7df92018ffffffffbaceec3bfeb5fb0b0f6ab3f985d62c649aba6774bde601d6431eb63fe573fa79010000006b483045022100beb78bda412749dc00291c77637b26595e7796a137594e4699c495474546910d0220378935e73cff57480b2626a85a37dab7f89d9e3cc0b914af71f94dcffdf3066d012103f0b5132e78cf2b63ebb8864f5c0af98363432765f0a60353769e137b87335f0dffffffff02da7c0a00000000001976a914c3669c13119ec05eaff0dea786473cc8a08f2eee88ac14cf0000000000001976a91491d4de37032fbc6c2ae47ac7f5b7dd6271fc58a288ac00000000"
}