{
  "txid": "442f0a0d6f857ff5eb31f6e71794000d20ec84c4edbcabd43b2aba9d06ace8f7",
  "version": 2,
  "locktime": 0,
  "vin": [
    {
      "txid": "2d4d450afe9432440531531c06b407a65fac6378bc68bf9b7bdf5f610cf9a352",
      "vout": 18,
      "prevout": {
        "scriptpubkey": "5120d23997971ce91dbeb905c221cc62555a42f10d3a28e8ff54e1bf2a12f21e7a77",
        "scriptpubkey_asm": "OP_PUSHNUM_1 OP_PUSHBYTES_32 d23997971ce91dbeb905c221cc62555a42f10d3a28e8ff54e1bf2a12f21e7a77",
        "scriptpubkey_type": "v1_p2tr",
        "scriptpubkey_address": "bc1p6gue09cuaywmawg9cgsuccj4tfp0zrf69r50748phu4p9us70fmsdnv0qr",
        "value": 1711
      },
      "scriptsig": "",
      "scriptsig_asm": "",
      "witness": [
        "02",
        "750063036f726401010a746578742f706c61696e00367b2270223a226272632d3230222c226f70223a226d696e74222c227469636b223a2261616161222c22616d74223a223130303030227d6851",
        "c0aebc56c5fa371114651c8f87c8cc8c20e039b37ddeb69b9b7d668729908a1378"
      ],
      "is_coinbase": false,
      "sequence": 4294967295
    }
  ],
  "vout": [
    {
      "scriptpubkey": "0014a40897ac0756778584e7dbe457cca54abc6daf4c",
      "scriptpubkey_asm": "OP_0 OP_PUSHBYTES_20 a40897ac0756778584e7dbe457cca54abc6daf4c",
      "scriptpubkey_type": "v0_p2wpkh",
      "scriptpubkey_address": "bc1q5syf0tq82emctp88m0j90n99f27xmt6v2f79lx",
      "value": 294
    }
  ],
  "size": 200,
  "weight": 446,
  "fee": 1417,
  "status": {
    "confirmed": true,
    "block_height": 834460,
    "block_hash": "00000000000000000000484a79b643b2524bbce82e5d8a442013fa5b8905ed98",
    "block_time": 1710307468
  },
  "hex": "0200000000010152a3f90c615fdf7b9bbf68bc7863ac5fa607b4061c533105443294fe0a454d2d1200000000ffffffff012601000000000000160014a40897ac0756778584e7dbe457cca54abc6daf4c0301024e750063036f726401010a746578742f706c61696e00367b2270223a226272632d3230222c226f70223a226d696e74222c227469636b223a2261616161222c22616d74223a223130303030227d685121c0aebc56c5fa371114651c8f87c8cc8c20e039b37ddeb69b9b7d668729908a137800000000"
}