{
  "txid": "4430bed794997c95772b97b6f022a5ee4f419654be5bfd59a9eb07dac4e7dded",
  "version": 2,
  "locktime": 0,
  "vin": [
    {
      "txid": "ca49732a8789b812361e997512b66bc3787f1e3ff39f5f0d8b845e09438043f6",
      "vout": 5,
      "prevout": {
        "scriptpubkey": "5120af027fec2c74e36aea0b811ca406b0cd4a5c160ccb9175d9b59babd67d87ea3f",
        "scriptpubkey_asm": "OP_PUSHNUM_1 OP_PUSHBYTES_32 af027fec2c74e36aea0b811ca406b0cd4a5c160ccb9175d9b59babd67d87ea3f",
        "scriptpubkey_type": "v1_p2tr",
        "scriptpubkey_address": "bc1p4up8lmpvwn3k46stsyw2gp4se499c9svewghtkd4nw4avlv8aglsggjyhs",
        "value": 2066
      },
      "scriptsig": "",
      "scriptsig_asm": "",
      "witness": [
        "8aa3cccb9c9093b8f8d6b33d361542b4a68e901fca91e8d7e44d2a0136c57050cfc1753669f64f310bc3fbffd68f31d8028fccae460d7fe1378ba4a95a243c3e",
        "209b731f10c03edc905b1a6d267a0171eec728529662bf4712ba7013194c4cddc6ac0063036f726401010a746578742f706c61696e00367b2270223a226272632d3230222c226f70223a226d696e74222c227469636b223a2261616161222c22616d74223a223130303030227d68",
        "c09b731f10c03edc905b1a6d267a0171eec728529662bf4712ba7013194c4cddc6"
      ],
      "is_coinbase": false,
      "sequence": 4261412863
    }
  ],
  "vout": [
    {
      "scriptpubkey": "0014b12a255b419b46c01324705abea5fd2949f55051",
      "scriptpubkey_asm": "OP_0 OP_PUSHBYTES_20 b12a255b419b46c01324705abea5fd2949f55051",
      "scriptpubkey_type": "v0_p2wpkh",
      "scriptpubkey_address": "bc1qky4z2k6pndrvqyeywpdtaf0a99yl25z3zp84r6",
      "value": 294
    }
  ],
  "size": 295,
  "weight": 541,
  "fee": 1772,
  "status": {
    "confirmed": true,
    "block_height": 834460,
    "block_hash": "00000000000000000000484a79b643b2524bbce82e5d8a442013fa5b8905ed98",
    "block_time": 1710307468
  },
  "hex": "02000000000101f6438043095e848b0d5f9ff33f1e7f78c36bb61275991e3612b889872a7349ca0500000000fffffffd012601000000000000160014b12a255b419b46c01324705abea5fd2949f5505103408aa3cccb9c9093b8f8d6b33d361542b4a68e901fca91e8d7e44d2a0136c57050cfc1753669f64f310bc3fbffd68f31d8028fccae460d7fe1378ba4a95a243c3e6e209b731f10c03edc905b1a6d267a0171eec728529662bf4712ba7013194c4cddc6ac0063036f726401010a746578742f706c61696e00367b2270223a226272632d3230222c226f70223a226d696e74222c227469636b223a2261616161222c22616d74223a223130303030227d6821c09b731f10c03edc905b1a6d267a0171eec728529662bf4712ba7013194c4cddc600000000"
}