{
  "txid": "443fee4dc5d3bba29d1405533452261140e288e8f5a3b9e410dd74c2a5046c45",
  "version": 2,
  "locktime": 0,
  "vin": [
    {
      "txid": "8486ecb4df0880316dd6e82b3971b4df187aff23765bc3a47f8d78bb53aa273c",
      "vout": 77,
      "prevout": {
        "scriptpubkey": "5120be55d35c45ea2221da15faa58ba5b9a157458a43a3e10048d8c06c3bb3ccf158",
        "scriptpubkey_asm": "OP_PUSHNUM_1 OP_PUSHBYTES_32 be55d35c45ea2221da15faa58ba5b9a157458a43a3e10048d8c06c3bb3ccf158",
        "scriptpubkey_type": "v1_p2tr",
        "scriptpubkey_address": "bc1phe2axhz9ag3zrks4l2jchfde59t5tzjr50ssqjxccpkrhv7v79vqlth5lh",
        "value": 2575
      },
      "scriptsig": "",
      "scriptsig_asm": "",
      "witness": [
        "3f5e8a1eb3578424ed25557a0ae5bb09ad8425e3131ed735296608bfd007496e724815e5a81d7aeed31550395addbf6544bb8204d9b4df1581be7c5957071416",
        "204494e8c7b6a82e14ca53c9e227c0a762fff1413f6a836da79c3086e4bf9984dbac0063036f726401010a746578742f706c61696e00367b2270223a226272632d3230222c226f70223a226d696e74222c227469636b223a2261616161222c22616d74223a223130303030227d68",
        "c14494e8c7b6a82e14ca53c9e227c0a762fff1413f6a836da79c3086e4bf9984db"
      ],
      "is_coinbase": false,
      "sequence": 4261412863
    }
  ],
  "vout": [
    {
      "scriptpubkey": "0014ddd7ef12ea6f78edcc1e8e7afa12c01ab59f3339",
      "scriptpubkey_asm": "OP_0 OP_PUSHBYTES_20 ddd7ef12ea6f78edcc1e8e7afa12c01ab59f3339",
      "scriptpubkey_type": "v0_p2wpkh",
      "scriptpubkey_address": "bc1qmht77yh2dauwmnq73ea05ykqr26e7veea8spz6",
      "value": 546
    }
  ],
  "size": 295,
  "weight": 541,
  "fee": 2029,
  "status": {
    "confirmed": true,
    "block_height": 834460,
    "block_hash": "00000000000000000000484a79b643b2524bbce82e5d8a442013fa5b8905ed98",
    "block_time": 1710307468
  },
  "hex": "020000000001013c27aa53bb788d7fa4c35b7623ff7a18dfb471392be8d66d318008dfb4ec86844d00000000fffffffd012202000000000000160014ddd7ef12ea6f78edcc1e8e7afa12c01ab59f333903403f5e8a1eb3578424ed25557a0ae5bb09ad8425e3131ed735296608bfd007496e724815e5a81d7aeed31550395addbf6544bb8204d9b4df1581be7c59570714166e204494e8c7b6a82e14ca53c9e227c0a762fff1413f6a836da79c3086e4bf9984dbac0063036f726401010a746578742f706c61696e00367b2270223a226272632d3230222c226f70223a226d696e74222c227469636b223a2261616161222c22616d74223a223130303030227d6821c14494e8c7b6a82e14ca53c9e227c0a762fff1413f6a836da79c3086e4bf9984db00000000"
}