{
  "txid": "4453efd52ecf49e8021779e34de0b95d02270538568c15ac35afc836a2a5183d",
  "version": 2,
  "locktime": 0,
  "vin": [
    {
      "txid": "33198a5cbe2a53fc30099ab53009144888cef479020e7acbc065183b03c26d7b",
      "vout": 7,
      "prevout": {
        "scriptpubkey": "51200d190cf2f95c38eb0df161d8d7c49715bd052d04c196ba4852410ddeb6b4e018",
        "scriptpubkey_asm": "OP_PUSHNUM_1 OP_PUSHBYTES_32 0d190cf2f95c38eb0df161d8d7c49715bd052d04c196ba4852410ddeb6b4e018",
        "scriptpubkey_type": "v1_p2tr",
        "scriptpubkey_address": "bc1pp5vseuhetsuwkr03v8vd03yhzk7s2tgycxtt5jzjgyxaad45uqvqms09ug",
        "value": 2646
      },
      "scriptsig": "",
      "scriptsig_asm": "",
      "witness": [
        "da9524c016c6215aae595da7fd9b34517f807dd0ce76e614a2eba772d6f79e473a084b59f9f820dbfb303abd5b2cbb6163e8af65a85471f0bf0214dfea3fcb28",
        "20ca4a09e4162794db44fe05b50162897def99cb9315a597664f7a8eab89c9298dac0063036f726401011e6170706c69636174696f6e2f6a736f6e3b636861727365743d7574662d38004cbe7b2270223a22706f772d3230222c226f70223a226d696e74222c227469636b223a2250455045222c22616d74223a2231303030222c22736f6c7574696f6e223a22504550453a626331717832636c7935673578376b356a6b7376396d61346332753661646c7a78657470616e387071733a303030303030303030303030303030303030303139393431613561653132383937363539383134343239323533333030353762306461393666336465613163353a39393232323436363533227d68",
        "c0da2c9a1920efdfbecd176e4adbb0ca1150e62509fd8a3a19d8331b0c89a8a97b"
      ],
      "is_coinbase": false,
      "sequence": 4294967295
    }
  ],
  "vout": [
    {
      "scriptpubkey": "001432b1f2511437ad495a0c2efb5c2b9aeb7e236561",
      "scriptpubkey_asm": "OP_0 OP_PUSHBYTES_20 32b1f2511437ad495a0c2efb5c2b9aeb7e236561",
      "scriptpubkey_type": "v0_p2wpkh",
      "scriptpubkey_address": "bc1qx2cly5g5x7k5jksv9ma4c2u6adlzxetpan8pqs",
      "value": 546
    }
  ],
  "size": 454,
  "weight": 700,
  "fee": 2100,
  "status": {
    "confirmed": true,
    "block_height": 834460,
    "block_hash": "00000000000000000000484a79b643b2524bbce82e5d8a442013fa5b8905ed98",
    "block_time": 1710307468
  },
  "hex": "020000000001017b6dc2033b1865c0cb7a0e0279f4ce8848140930b59a0930fc532abe5c8a19330700000000ffffffff01220200000000000016001432b1f2511437ad495a0c2efb5c2b9aeb7e2365610340da9524c016c6215aae595da7fd9b34517f807dd0ce76e614a2eba772d6f79e473a084b59f9f820dbfb303abd5b2cbb6163e8af65a85471f0bf0214dfea3fcb28fd0b0120ca4a09e4162794db44fe05b50162897def99cb9315a597664f7a8eab89c9298dac0063036f726401011e6170706c69636174696f6e2f6a736f6e3b636861727365743d7574662d38004cbe7b2270223a22706f772d3230222c226f70223a226d696e74222c227469636b223a2250455045222c22616d74223a2231303030222c22736f6c7574696f6e223a22504550453a626331717832636c7935673578376b356a6b7376396d61346332753661646c7a78657470616e387071733a303030303030303030303030303030303030303139393431613561653132383937363539383134343239323533333030353762306461393666336465613163353a39393232323436363533227d6821c0da2c9a1920efdfbecd176e4adbb0ca1150e62509fd8a3a19d8331b0c89a8a97b00000000"
}