{
  "txid": "4478abc4570b369152a238834cb111481b74b8fc3023ca94fb8275b4531e72c0",
  "version": 1,
  "locktime": 0,
  "vin": [
    {
      "txid": "410d2182667535c13184e9f561743c430f2ef534f813070727017d6703fd7406",
      "vout": 1,
      "prevout": {
        "scriptpubkey": "00142042d98ac8c77274c3ec82be269103bd34e7325c",
        "scriptpubkey_asm": "OP_0 OP_PUSHBYTES_20 2042d98ac8c77274c3ec82be269103bd34e7325c",
        "scriptpubkey_type": "v0_p2wpkh",
        "scriptpubkey_address": "bc1qyppdnzkgcae8fslvs2lzdygrh56wwvjuhxluzg",
        "value": 344856
      },
      "scriptsig": "",
      "scriptsig_asm": "",
      "witness": [
        "3045022100c44b4f4ab330a4c77b9237f725fc2209a9668be75008caf3726eb87400184f950220510be27f45d6242ec58739f6a1c2c7565c163cf88019272ae00f4347bff6ac6601",
        "03aa48ae7cd84da90bede37bd4eb2ed28a35444af71c2640add6844f802c45cf41"
      ],
      "is_coinbase": false,
      "sequence": 4294967295
    },
    {
      "txid": "6fd511062ca56110e492b059ee72a1b8d2ab1c56147620d28c64992d8651b987",
      "vout": 1,
      "prevout": {
        "scriptpubkey": "00142042d98ac8c77274c3ec82be269103bd34e7325c",
        "scriptpubkey_asm": "OP_0 OP_PUSHBYTES_20 2042d98ac8c77274c3ec82be269103bd34e7325c",
        "scriptpubkey_type": "v0_p2wpkh",
        "scriptpubkey_address": "bc1qyppdnzkgcae8fslvs2lzdygrh56wwvjuhxluzg",
        "value": 43872
      },
      "scriptsig": "",
      "scriptsig_asm": "",
      "witness": [
        "3044022003c4fbf690c02c472fde71741b3c59cf0fe8eacf93d31e51a31edfd7b2fe6a3602200cf19e2a693f7356f9ef4d1ae5cbdf8bd9c94451244e5314b278a7db51a7ca6401",
        "03aa48ae7cd84da90bede37bd4eb2ed28a35444af71c2640add6844f802c45cf41"
      ],
      "is_coinbase": false,
      "sequence": 4294967295
    },
    {
      "txid": "c2a3f4be0b2886d8ef5f473039033afc3334a8a66ab391e227ea0d9741cb5e7f",
      "vout": 1,
      "prevout": {
        "scriptpubkey": "00142042d98ac8c77274c3ec82be269103bd34e7325c",
        "scriptpubkey_asm": "OP_0 OP_PUSHBYTES_20 2042d98ac8c77274c3ec82be269103bd34e7325c",
        "scriptpubkey_type": "v0_p2wpkh",
        "scriptpubkey_address": "bc1qyppdnzkgcae8fslvs2lzdygrh56wwvjuhxluzg",
        "value": 66914
      },
      "scriptsig": "",
      "scriptsig_asm": "",
      "witness": [
        "304402207140b7be7ba461fe732f132353da5fff953ff42eff5570e5434ea53dcaeeb9a8022005c4606c4ac13563cb9e497dd90b95fe05ac6c9b4d633087738d04b80d90cf3301",
        "03aa48ae7cd84da90bede37bd4eb2ed28a35444af71c2640add6844f802c45cf41"
      ],
      "is_coinbase": false,
      "sequence": 4294967295
    },
    {
      "txid": "44c48d6dab6724f91c46ebe8ba29817cd7365c72bcb216acac174d86c34b2aee",
      "vout": 1,
      "prevout": {
        "scriptpubkey": "00142042d98ac8c77274c3ec82be269103bd34e7325c",
        "scriptpubkey_asm": "OP_0 OP_PUSHBYTES_20 2042d98ac8c77274c3ec82be269103bd34e7325c",
        "scriptpubkey_type": "v0_p2wpkh",
        "scriptpubkey_address": "bc1qyppdnzkgcae8fslvs2lzdygrh56wwvjuhxluzg",
        "value": 25808
      },
      "scriptsig": "",
      "scriptsig_asm": "",
      "witness": [
        "3044022024fe4e93a8c01e11364f1591d0cf12caf09e782463296aa9c5a370f95778306002202cdfe17ec5372fe75a36fdfbcb185ee8faf32fce3ab43580e0072eb634cdff4301",
        "03aa48ae7cd84da90bede37bd4eb2ed28a35444af71c2640add6844f802c45cf41"
      ],
      "is_coinbase": false,
      "sequence": 4294967295
    }
  ],
  "vout": [
    {
      "scriptpubkey": "76a914b95d8b20efcc1282bfcbc985171c61c2cf8eff0788ac",
      "scriptpubkey_asm": "OP_DUP OP_HASH160 OP_PUSHBYTES_20 b95d8b20efcc1282bfcbc985171c61c2cf8eff07 OP_EQUALVERIFY OP_CHECKSIG",
      "scriptpubkey_type": "p2pkh",
      "scriptpubkey_address": "1Hu851AxQrPNNfBvNFh4KarkaEgAgvGCtz",
      "value": 472891
    }
  ],
  "size": 639,
  "weight": 1263,
  "fee": 8559,
  "status": {
    "confirmed": true,
    "block_height": 834638,
    "block_hash": "000000000000000000025f742c626208ac87e0b7d15054abb4a19ca2d735a54e",
    "block_time": 1710405325
  },
  "hex": "010000000001040674fd03677d0127070713f834f52e0f433c7461f5e98431c135756682210d410100000000ffffffff87b951862d99648cd2207614561cabd2b8a172ee59b092e41061a52c0611d56f0100000000ffffffff7f5ecb41970dea27e291b36aa6a83433fc3a033930475fefd886280bbef4a3c20100000000ffffffffee2a4bc3864d17acac16b2bc725c36d77c8129bae8eb461cf92467ab6d8dc4440100000000ffffffff013b370700000000001976a914b95d8b20efcc1282bfcbc985171c61c2cf8eff0788ac02483045022100c44b4f4ab330a4c77b9237f725fc2209a9668be75008caf3726eb87400184f950220510be27f45d6242ec58739f6a1c2c7565c163cf88019272ae00f4347bff6ac66012103aa48ae7cd84da90bede37bd4eb2ed28a35444af71c2640add6844f802c45cf4102473044022003c4fbf690c02c472fde71741b3c59cf0fe8eacf93d31e51a31edfd7b2fe6a3602200cf19e2a693f7356f9ef4d1ae5cbdf8bd9c94451244e5314b278a7db51a7ca64012103aa48ae7cd84da90bede37bd4eb2ed28a35444af71c2640add6844f802c45cf410247304402207140b7be7ba461fe732f132353da5fff953ff42eff5570e5434ea53dcaeeb9a8022005c4606c4ac13563cb9e497dd90b95fe05ac6c9b4d633087738d04b80d90cf33012103aa48ae7cd84da90bede37bd4eb2ed28a35444af71c2640add6844f802c45cf4102473044022024fe4e93a8c01e11364f1591d0cf12caf09e782463296aa9c5a370f95778306002202cdfe17ec5372fe75a36fdfbcb185ee8faf32fce3ab43580e0072eb634cdff43012103aa48ae7cd84da90bede37bd4eb2ed28a35444af71c2640add6844f802c45cf4100000000"
}