{
  "txid": "4484e62b918faab6e22f75d3bbb623da98e9179fb38c25b7a2bdcdcef80bef5b",
  "version": 2,
  "locktime": 0,
  "vin": [
    {
      "txid": "d1f2e56bb0b5c87466a28cf0fb59f1bc198978e6338eafb988f343191f77d743",
      "vout": 8,
      "prevout": {
        "scriptpubkey": "51201be83397d3b711e69ced47966ff81beb100c608f608a3bab45aefa4a4a6bc627",
        "scriptpubkey_asm": "OP_PUSHNUM_1 OP_PUSHBYTES_32 1be83397d3b711e69ced47966ff81beb100c608f608a3bab45aefa4a4a6bc627",
        "scriptpubkey_type": "v1_p2tr",
        "scriptpubkey_address": "bc1pr05r897nkug7d88dg7txl7qmavgqccy0vz9rh2694may5jntccnsgxfey9",
        "value": 3093
      },
      "scriptsig": "",
      "scriptsig_asm": "",
      "witness": [
        "110997b526e8b5ed4f0bf82f3bfd49ea5aabff36122389a9df1d503edcada16a7c316f3803ffb75d9f5edc13b764d3eb61e86eda3fa3de6ed3a81686336c2b25",
        "208057c0d51199858280f1f556eddbe243577e88a28777bdb38a683689c16c4c9cac0063036f726401010a746578742f706c61696e004c8f7b2270223a2022746170222c20226f70223a2022646d742d6d696e74222c2022646570223a2022333962373532343338626533613435326464623731376230613635346233313662316164343661383139656234343831383933626337313331663738396539616930222c20227469636b223a20226e61746f776c73222c2022626c6b223a2022373036323536227d68",
        "c18057c0d51199858280f1f556eddbe243577e88a28777bdb38a683689c16c4c9c"
      ],
      "is_coinbase": false,
      "sequence": 4294967293
    }
  ],
  "vout": [
    {
      "scriptpubkey": "51202c5c7b584418f7df16e266886880e520a408eb99881dc4d7bb8770bb5b3cbbc9",
      "scriptpubkey_asm": "OP_PUSHNUM_1 OP_PUSHBYTES_32 2c5c7b584418f7df16e266886880e520a408eb99881dc4d7bb8770bb5b3cbbc9",
      "scriptpubkey_type": "v1_p2tr",
      "scriptpubkey_address": "bc1p93w8kkzyrrma79hzv6yx3q89yzjq36ue3qwuf4amsactkkeuh0ysjzsu97",
      "value": 546
    }
  ],
  "size": 397,
  "weight": 679,
  "fee": 2547,
  "status": {
    "confirmed": true,
    "block_height": 834464,
    "block_hash": "0000000000000000000177a0869a911a2b65c9bdcd5a8bcb02b68f305bee848e",
    "block_time": 1710308296
  },
  "hex": "0200000000010143d7771f1943f388b9af8e33e6788919bcf159fbf08ca26674c8b5b06be5f2d10800000000fdffffff0122020000000000002251202c5c7b584418f7df16e266886880e520a408eb99881dc4d7bb8770bb5b3cbbc90340110997b526e8b5ed4f0bf82f3bfd49ea5aabff36122389a9df1d503edcada16a7c316f3803ffb75d9f5edc13b764d3eb61e86eda3fa3de6ed3a81686336c2b25c8208057c0d51199858280f1f556eddbe243577e88a28777bdb38a683689c16c4c9cac0063036f726401010a746578742f706c61696e004c8f7b2270223a2022746170222c20226f70223a2022646d742d6d696e74222c2022646570223a2022333962373532343338626533613435326464623731376230613635346233313662316164343661383139656234343831383933626337313331663738396539616930222c20227469636b223a20226e61746f776c73222c2022626c6b223a2022373036323536227d6821c18057c0d51199858280f1f556eddbe243577e88a28777bdb38a683689c16c4c9c00000000"
}