{
  "txid": "4489e42172f2bee0a973d59f82fc594f86995028a211f605794568dd66c2c45f",
  "version": 2,
  "locktime": 834458,
  "vin": [
    {
      "txid": "7e8dbb1de8f2f4f97566a2f5710d3444d874a1cae44173aa999f69aea22ce3ed",
      "vout": 1,
      "prevout": {
        "scriptpubkey": "00144b49926b0441272e8a8d4da500c320567f811a26",
        "scriptpubkey_asm": "OP_0 OP_PUSHBYTES_20 4b49926b0441272e8a8d4da500c320567f811a26",
        "scriptpubkey_type": "v0_p2wpkh",
        "scriptpubkey_address": "bc1qfdyey6cygynjaz5dfkjspseq2elczx3xfuel4h",
        "value": 579366
      },
      "scriptsig": "",
      "scriptsig_asm": "",
      "witness": [
        "3044022052ddf422f0f49caf0e7793bcb468865d34a67f6b5bf5b519c11e233b89fd0ca8022036328c198487235ba928066f2142883b132c92945eda50c9213320177ba9794701",
        "025312eaf1f207c9d77887e2f1ffa73b0af49c23a25aa3a578f6c6540aff7337f3"
      ],
      "is_coinbase": false,
      "sequence": 4294967294
    },
    {
      "txid": "e50fda9c1658c229f35804be929d1eb6af741899537066fee28cead02a9ff69e",
      "vout": 5,
      "prevout": {
        "scriptpubkey": "0014901eefc7426a5596aed033520a35a215b4e2196d",
        "scriptpubkey_asm": "OP_0 OP_PUSHBYTES_20 901eefc7426a5596aed033520a35a215b4e2196d",
        "scriptpubkey_type": "v0_p2wpkh",
        "scriptpubkey_address": "bc1qjq0wl36zdf2edtksxdfq5ddzzk6wyxtdgjua49",
        "value": 578463
      },
      "scriptsig": "",
      "scriptsig_asm": "",
      "witness": [
        "30450221008d5cc795262be3accaf5da99c633f3ebe7f12c922df309dc3a95d3fb837d5ac9022027bd18aa4157833e82a6a6125cdcbb5feb315ad258697495e766660086c0bc2401",
        "02cf4697711e91251163475a4dbbd8d8fc71310768197ae7c15ca0a5e024fb7566"
      ],
      "is_coinbase": false,
      "sequence": 4294967294
    }
  ],
  "vout": [
    {
      "scriptpubkey": "a914d96d3ceaff923146b3cbe5b9d2d7f332a722977b87",
      "scriptpubkey_asm": "OP_HASH160 OP_PUSHBYTES_20 d96d3ceaff923146b3cbe5b9d2d7f332a722977b OP_EQUAL",
      "scriptpubkey_type": "p2sh",
      "scriptpubkey_address": "3MWfRA6C2ouiRPaxW1SMdDMVLqtY4HkEVJ",
      "value": 978822
    },
    {
      "scriptpubkey": "001444a5e0bd79406b5267f27fd8ea769208d1373020",
      "scriptpubkey_asm": "OP_0 OP_PUSHBYTES_20 44a5e0bd79406b5267f27fd8ea769208d1373020",
      "scriptpubkey_type": "v0_p2wpkh",
      "scriptpubkey_address": "bc1qgjj7p0tegp44yelj0lvw5a5jprgnwvpqa6thgn",
      "value": 176067
    }
  ],
  "size": 372,
  "weight": 837,
  "fee": 2940,
  "status": {
    "confirmed": true,
    "block_height": 834460,
    "block_hash": "00000000000000000000484a79b643b2524bbce82e5d8a442013fa5b8905ed98",
    "block_time": 1710307468
  },
  "hex": "02000000000102ede32ca2ae699f99aa7341e4caa174d844340d71f5a26675f9f4f2e81dbb8d7e0100000000feffffff9ef69f2ad0ea8ce2fe667053991874afb61e9d92be0458f329c258169cda0fe50500000000feffffff0286ef0e000000000017a914d96d3ceaff923146b3cbe5b9d2d7f332a722977b87c3af02000000000016001444a5e0bd79406b5267f27fd8ea769208d137302002473044022052ddf422f0f49caf0e7793bcb468865d34a67f6b5bf5b519c11e233b89fd0ca8022036328c198487235ba928066f2142883b132c92945eda50c9213320177ba979470121025312eaf1f207c9d77887e2f1ffa73b0af49c23a25aa3a578f6c6540aff7337f3024830450221008d5cc795262be3accaf5da99c633f3ebe7f12c922df309dc3a95d3fb837d5ac9022027bd18aa4157833e82a6a6125cdcbb5feb315ad258697495e766660086c0bc24012102cf4697711e91251163475a4dbbd8d8fc71310768197ae7c15ca0a5e024fb75669abb0c00"
}