{
  "txid": "448dfab8487cc1b41fde048cc85bb6eaf5039f0ab52616e1ca67346594b31797",
  "version": 2,
  "locktime": 0,
  "vin": [
    {
      "txid": "a501d53470a09fb2eedd6c3f94df8c4a5a285796b435b37a366ded6df6616887",
      "vout": 1,
      "prevout": {
        "scriptpubkey": "512098f8eac4004bc7cf3453bfb0e3aee939fc511bde7f58e465b134ac7d13795435",
        "scriptpubkey_asm": "OP_PUSHNUM_1 OP_PUSHBYTES_32 98f8eac4004bc7cf3453bfb0e3aee939fc511bde7f58e465b134ac7d13795435",
        "scriptpubkey_type": "v1_p2tr",
        "scriptpubkey_address": "bc1pnruw43qqf0ru7dznh7cw8thf8879zx770avwged3xjk86yme2s6sxhsgqh",
        "value": 229734
      },
      "scriptsig": "",
      "scriptsig_asm": "",
      "witness": [
        "11b1706f0df91c2b3eb931ba57c8b955a6dd78a511269fa3c9213b75a49ed4371b3e63b612bd01745e9641841cee1a9d08feacf155b0e9b224d3ff7e1ede40eb"
      ],
      "is_coinbase": false,
      "sequence": 4294967295
    }
  ],
  "vout": [
    {
      "scriptpubkey": "5120cfc6b5486754bc535b951cd125c995c4986b966257b8225b39aaf7a9d474c7e7",
      "scriptpubkey_asm": "OP_PUSHNUM_1 OP_PUSHBYTES_32 cfc6b5486754bc535b951cd125c995c4986b966257b8225b39aaf7a9d474c7e7",
      "scriptpubkey_type": "v1_p2tr",
      "scriptpubkey_address": "bc1pelrt2jr82j79xku4rngjtjv4cjvxh9nz27uzykee4tm6n4r5clnsxfm20g",
      "value": 3000
    },
    {
      "scriptpubkey": "512098f8eac4004bc7cf3453bfb0e3aee939fc511bde7f58e465b134ac7d13795435",
      "scriptpubkey_asm": "OP_PUSHNUM_1 OP_PUSHBYTES_32 98f8eac4004bc7cf3453bfb0e3aee939fc511bde7f58e465b134ac7d13795435",
      "scriptpubkey_type": "v1_p2tr",
      "scriptpubkey_address": "bc1pnruw43qqf0ru7dznh7cw8thf8879zx770avwged3xjk86yme2s6sxhsgqh",
      "value": 225801
    }
  ],
  "size": 205,
  "weight": 616,
  "fee": 933,
  "status": {
    "confirmed": true,
    "block_height": 834464,
    "block_hash": "0000000000000000000177a0869a911a2b65c9bdcd5a8bcb02b68f305bee848e",
    "block_time": 1710308296
  },
  "hex": "02000000000101876861f66ded6d367ab335b49657285a4a8cdf943f6cddeeb29fa07034d501a50100000000ffffffff02b80b000000000000225120cfc6b5486754bc535b951cd125c995c4986b966257b8225b39aaf7a9d474c7e7097203000000000022512098f8eac4004bc7cf3453bfb0e3aee939fc511bde7f58e465b134ac7d13795435014011b1706f0df91c2b3eb931ba57c8b955a6dd78a511269fa3c9213b75a49ed4371b3e63b612bd01745e9641841cee1a9d08feacf155b0e9b224d3ff7e1ede40eb00000000"
}