{
  "txid": "44ae0df08b631c511224cbcce9a8e939aa9ee0df7082e722363fea7927bfaec9",
  "version": 2,
  "locktime": 834637,
  "vin": [
    {
      "txid": "e71f26630e7e7d819bc95b5e62fd69a9928f8864b0c5be2709ec8faed514d663",
      "vout": 0,
      "prevout": {
        "scriptpubkey": "a914ec1060f0ac01ef95eb9948be7fec6e199d80373487",
        "scriptpubkey_asm": "OP_HASH160 OP_PUSHBYTES_20 ec1060f0ac01ef95eb9948be7fec6e199d803734 OP_EQUAL",
        "scriptpubkey_type": "p2sh",
        "scriptpubkey_address": "3PDD1prNo6owShUZ7TnX6Mj1jXMMFdNRP1",
        "value": 2483651
      },
      "scriptsig": "160014d15881ef749bd665ab1cfe7ce28146d1ca6de777",
      "scriptsig_asm": "OP_PUSHBYTES_22 0014d15881ef749bd665ab1cfe7ce28146d1ca6de777",
      "witness": [
        "304402204a8ebed24f13714a8db941553aed9eead180448f0d36fc744accd2dc671d3b0002204e369e29011edd55e1fcd510912fbcf58079495ce824a34ca7aefc64863c453301",
        "02d88beef85e69da68524be56929c027859941c7c00e614210e970819c507a2ac0"
      ],
      "is_coinbase": false,
      "sequence": 4294967293,
      "inner_redeemscript_asm": "OP_0 OP_PUSHBYTES_20 d15881ef749bd665ab1cfe7ce28146d1ca6de777"
    },
    {
      "txid": "5026dbbbb28375a3fc1d0c25d5cac9d3801a6a00025677648289e0aaf8fdef8b",
      "vout": 1,
      "prevout": {
        "scriptpubkey": "a914eb7dea02158b86f5bae57e8545e74847ecf0708687",
        "scriptpubkey_asm": "OP_HASH160 OP_PUSHBYTES_20 eb7dea02158b86f5bae57e8545e74847ecf07086 OP_EQUAL",
        "scriptpubkey_type": "p2sh",
        "scriptpubkey_address": "3PABZHgw1cZyCf6Wf7oXpD2j6ANq8d42VV",
        "value": 181824953
      },
      "scriptsig": "1600142c0de1d833db1934cbcce41d8cc2b41fdf231582",
      "scriptsig_asm": "OP_PUSHBYTES_22 00142c0de1d833db1934cbcce41d8cc2b41fdf231582",
      "witness": [
        "304402206f25e4a8a6924834f5c32ce6344faecd50bb6e16c8c82733c9eb43348d47d29f02207a45915721ff2f22ae1be646350ed80293170db1ee8859db11ef7001c3f3c27c01",
        "031cd952c02e4db9f170eef927b75a813bbd92a53d29f0a96794a0fac4eb87f92b"
      ],
      "is_coinbase": false,
      "sequence": 4294967293,
      "inner_redeemscript_asm": "OP_0 OP_PUSHBYTES_20 2c0de1d833db1934cbcce41d8cc2b41fdf231582"
    },
    {
      "txid": "a81174484817987f94e60f370e42b25974c816272273a6776919c2ba63f5e1b5",
      "vout": 0,
      "prevout": {
        "scriptpubkey": "a914a4fda30d177e7f23691003b2f58d68e7f2aafdcf87",
        "scriptpubkey_asm": "OP_HASH160 OP_PUSHBYTES_20 a4fda30d177e7f23691003b2f58d68e7f2aafdcf OP_EQUAL",
        "scriptpubkey_type": "p2sh",
        "scriptpubkey_address": "3GjQb1JQxuaDoKcKL6qfutxXxqVhpjx38n",
        "value": 500000
      },
      "scriptsig": "16001456286e5416525732190d0b201f670f81a7da3b33",
      "scriptsig_asm": "OP_PUSHBYTES_22 001456286e5416525732190d0b201f670f81a7da3b33",
      "witness": [
        "304402207858b350ae64c26870b76c13b3fd664cf6b5ae1d9340e1de48db37e76233ac0c022033b9f721717529d243614a767424827fcfff7c333075230295d94c3c6e26f66501",
        "0296d24deec48723755a8c782ff152f4bd41d71dbd7723926ff671f25ba760e951"
      ],
      "is_coinbase": false,
      "sequence": 4294967293,
      "inner_redeemscript_asm": "OP_0 OP_PUSHBYTES_20 56286e5416525732190d0b201f670f81a7da3b33"
    },
    {
      "txid": "ab96cde4fc0f90dc92de42fc863d4c17212f73be9aa40a23fd6dbc564434f707",
      "vout": 5,
      "prevout": {
        "scriptpubkey": "a914188472ff799af3cf61ff57c86b7a82c19bdd904987",
        "scriptpubkey_asm": "OP_HASH160 OP_PUSHBYTES_20 188472ff799af3cf61ff57c86b7a82c19bdd9049 OP_EQUAL",
        "scriptpubkey_type": "p2sh",
        "scriptpubkey_address": "33veot1BVYoN7Fx6tNXaJfPEyYsTgWor6w",
        "value": 116000
      },
      "scriptsig": "1600140d6766619083abb8605bc64f28d81c579bc39cde",
      "scriptsig_asm": "OP_PUSHBYTES_22 00140d6766619083abb8605bc64f28d81c579bc39cde",
      "witness": [
        "3044022071aa63c9b646baab1aa05ec1281aee062f41c722377b6f5679a6226d99aa1c0a0220598d492a26f25621334f81252c793f628b31f01947da624a49fc523560f263f401",
        "036a91965c064bbf7dcb8f0184e104e96c346a76dab092ffc91ac0e2bdfb9c753a"
      ],
      "is_coinbase": false,
      "sequence": 4294967293,
      "inner_redeemscript_asm": "OP_0 OP_PUSHBYTES_20 0d6766619083abb8605bc64f28d81c579bc39cde"
    },
    {
      "txid": "32947f2e4ca519f9c99f33a7149fcb9ff9a75e1bc54b09376b3cdb00b0c5d3bc",
      "vout": 0,
      "prevout": {
        "scriptpubkey": "a9145e4a3620b363bc445a90ddf24584c0f3f34c13f687",
        "scriptpubkey_asm": "OP_HASH160 OP_PUSHBYTES_20 5e4a3620b363bc445a90ddf24584c0f3f34c13f6 OP_EQUAL",
        "scriptpubkey_type": "p2sh",
        "scriptpubkey_address": "3AHaLsorsvunDNUX6BU9jHnkmsx5dsVRRb",
        "value": 53984818
      },
      "scriptsig": "1600142a34e387e94e17e2b87b1fc744ba58f8fb78d1c9",
      "scriptsig_asm": "OP_PUSHBYTES_22 00142a34e387e94e17e2b87b1fc744ba58f8fb78d1c9",
      "witness": [
        "304402205f4e6acd6c813188b73528c6a2a426af877776de6d1d3d2fd5e1e9f4629cbcc80220656691e2b8f21ab96a49ab3255c607b39a8b59e0b0cb22e6ba57a8d9a46dbd2201",
        "02348c63a88b9f9a9f5ad01cbd5fb559d7b560ad6a5fe8ff48022f576e9c915613"
      ],
      "is_coinbase": false,
      "sequence": 4294967293,
      "inner_redeemscript_asm": "OP_0 OP_PUSHBYTES_20 2a34e387e94e17e2b87b1fc744ba58f8fb78d1c9"
    }
  ],
  "vout": [
    {
      "scriptpubkey": "a914165ba52064422225cd1184df787da8de1410cd8587",
      "scriptpubkey_asm": "OP_HASH160 OP_PUSHBYTES_20 165ba52064422225cd1184df787da8de1410cd85 OP_EQUAL",
      "scriptpubkey_type": "p2sh",
      "scriptpubkey_address": "33jEaNXkaW3DUWD7KdTeWYEJ467NVFzg7p",
      "value": 114000000
    },
    {
      "scriptpubkey": "0014ad9ca3dca4e0d1628c14d4077df8390b1966abc6",
      "scriptpubkey_asm": "OP_0 OP_PUSHBYTES_20 ad9ca3dca4e0d1628c14d4077df8390b1966abc6",
      "scriptpubkey_type": "v0_p2wpkh",
      "scriptpubkey_address": "bc1q4kw28h9yurgk9rq56srhm7pepvvkd27xsah2t2",
      "value": 9900000
    },
    {
      "scriptpubkey": "001467e2e6429eb927f88b8c934a4fa28a60c4b0f767",
      "scriptpubkey_asm": "OP_0 OP_PUSHBYTES_20 67e2e6429eb927f88b8c934a4fa28a60c4b0f767",
      "scriptpubkey_type": "v0_p2wpkh",
      "scriptpubkey_address": "bc1qvl3wvs57hynl3zuvjd9ylg52vrztpam84tyl8h",
      "value": 115000000
    }
  ],
  "size": 961,
  "weight": 2233,
  "fee": 9422,
  "status": {
    "confirmed": true,
    "block_height": 834638,
    "block_hash": "000000000000000000025f742c626208ac87e0b7d15054abb4a19ca2d735a54e",
    "block_time": 1710405325
  },
  "hex": "0200000000010563d614d5ae8fec0927bec5b064888f92a969fd625e5bc99b817d7e0e63261fe70000000017160014d15881ef749bd665ab1cfe7ce28146d1ca6de777fdffffff8beffdf8aae0898264775602006a1a80d3c9cad5250c1dfca37583b2bbdb265001000000171600142c0de1d833db1934cbcce41d8cc2b41fdf231582fdffffffb5e1f563bac2196977a673222716c87459b2420e370fe6947f981748487411a8000000001716001456286e5416525732190d0b201f670f81a7da3b33fdffffff07f7344456bc6dfd230aa49abe732f21174c3d86fc42de92dc900ffce4cd96ab05000000171600140d6766619083abb8605bc64f28d81c579bc39cdefdffffffbcd3c5b000db3c6b37094bc51b5ea7f99fcb9f14a7339fc9f919a54c2e7f943200000000171600142a34e387e94e17e2b87b1fc744ba58f8fb78d1c9fdffffff038080cb060000000017a914165ba52064422225cd1184df787da8de1410cd8587e00f970000000000160014ad9ca3dca4e0d1628c14d4077df8390b1966abc6c0c2da060000000016001467e2e6429eb927f88b8c934a4fa28a60c4b0f7670247304402204a8ebed24f13714a8db941553aed9eead180448f0d36fc744accd2dc671d3b0002204e369e29011edd55e1fcd510912fbcf58079495ce824a34ca7aefc64863c4533012102d88beef85e69da68524be56929c027859941c7c00e614210e970819c507a2ac00247304402206f25e4a8a6924834f5c32ce6344faecd50bb6e16c8c82733c9eb43348d47d29f02207a45915721ff2f22ae1be646350ed80293170db1ee8859db11ef7001c3f3c27c0121031cd952c02e4db9f170eef927b75a813bbd92a53d29f0a96794a0fac4eb87f92b0247304402207858b350ae64c26870b76c13b3fd664cf6b5ae1d9340e1de48db37e76233ac0c022033b9f721717529d243614a767424827fcfff7c333075230295d94c3c6e26f66501210296d24deec48723755a8c782ff152f4bd41d71dbd7723926ff671f25ba760e95102473044022071aa63c9b646baab1aa05ec1281aee062f41c722377b6f5679a6226d99aa1c0a0220598d492a26f25621334f81252c793f628b31f01947da624a49fc523560f263f40121036a91965c064bbf7dcb8f0184e104e96c346a76dab092ffc91ac0e2bdfb9c753a0247304402205f4e6acd6c813188b73528c6a2a426af877776de6d1d3d2fd5e1e9f4629cbcc80220656691e2b8f21ab96a49ab3255c607b39a8b59e0b0cb22e6ba57a8d9a46dbd22012102348c63a88b9f9a9f5ad01cbd5fb559d7b560ad6a5fe8ff48022f576e9c9156134dbc0c00"
}