{
  "txid": "44c580b2c5e6d515d612c75fc38c85463ed307e6e15c85a7dece61630ab470ab",
  "version": 2,
  "locktime": 0,
  "vin": [
    {
      "txid": "d0afbf18dddd4c4e1f9f372833d92e463b8bc5f1cc780088213ee261911bcdb3",
      "vout": 5,
      "prevout": {
        "scriptpubkey": "5120a2f473612cab68b8d61984253428afa6d238a65e35f1a458dd470257e0457516",
        "scriptpubkey_asm": "OP_PUSHNUM_1 OP_PUSHBYTES_32 a2f473612cab68b8d61984253428afa6d238a65e35f1a458dd470257e0457516",
        "scriptpubkey_type": "v1_p2tr",
        "scriptpubkey_address": "bc1p5t68xcfv4d5t34sessjng2905mfr3fj7xhc6gkxagup90cz9w5tqnzzwqw",
        "value": 467219
      },
      "scriptsig": "",
      "scriptsig_asm": "",
      "witness": [
        "3b16091e5dd58cfeb526f2c172b61d31837a06b21218ee52a51c9c42195386f834f2afcd25688947a8a09e759c9b4e5b53c617135b298b0e40d3e9acecc7df82"
      ],
      "is_coinbase": false,
      "sequence": 4294967295
    }
  ],
  "vout": [
    {
      "scriptpubkey": "5120a2f473612cab68b8d61984253428afa6d238a65e35f1a458dd470257e0457516",
      "scriptpubkey_asm": "OP_PUSHNUM_1 OP_PUSHBYTES_32 a2f473612cab68b8d61984253428afa6d238a65e35f1a458dd470257e0457516",
      "scriptpubkey_type": "v1_p2tr",
      "scriptpubkey_address": "bc1p5t68xcfv4d5t34sessjng2905mfr3fj7xhc6gkxagup90cz9w5tqnzzwqw",
      "value": 600
    },
    {
      "scriptpubkey": "5120a2f473612cab68b8d61984253428afa6d238a65e35f1a458dd470257e0457516",
      "scriptpubkey_asm": "OP_PUSHNUM_1 OP_PUSHBYTES_32 a2f473612cab68b8d61984253428afa6d238a65e35f1a458dd470257e0457516",
      "scriptpubkey_type": "v1_p2tr",
      "scriptpubkey_address": "bc1p5t68xcfv4d5t34sessjng2905mfr3fj7xhc6gkxagup90cz9w5tqnzzwqw",
      "value": 600
    },
    {
      "scriptpubkey": "5120a2f473612cab68b8d61984253428afa6d238a65e35f1a458dd470257e0457516",
      "scriptpubkey_asm": "OP_PUSHNUM_1 OP_PUSHBYTES_32 a2f473612cab68b8d61984253428afa6d238a65e35f1a458dd470257e0457516",
      "scriptpubkey_type": "v1_p2tr",
      "scriptpubkey_address": "bc1p5t68xcfv4d5t34sessjng2905mfr3fj7xhc6gkxagup90cz9w5tqnzzwqw",
      "value": 462473
    }
  ],
  "size": 248,
  "weight": 788,
  "fee": 3546,
  "status": {
    "confirmed": true,
    "block_height": 834638,
    "block_hash": "000000000000000000025f742c626208ac87e0b7d15054abb4a19ca2d735a54e",
    "block_time": 1710405325
  },
  "hex": "02000000000101b3cd1b9161e23e21880078ccf1c58b3b462ed93328379f1f4e4cdddd18bfafd00500000000ffffffff035802000000000000225120a2f473612cab68b8d61984253428afa6d238a65e35f1a458dd470257e04575165802000000000000225120a2f473612cab68b8d61984253428afa6d238a65e35f1a458dd470257e0457516890e070000000000225120a2f473612cab68b8d61984253428afa6d238a65e35f1a458dd470257e045751601403b16091e5dd58cfeb526f2c172b61d31837a06b21218ee52a51c9c42195386f834f2afcd25688947a8a09e759c9b4e5b53c617135b298b0e40d3e9acecc7df8200000000"
}