{
  "txid": "44c7d7870eb9b6a6ed89075d359a98d83340835189ff094fcd4ba8e9e58ea09c",
  "version": 2,
  "locktime": 0,
  "vin": [
    {
      "txid": "acc3ba00869acb582a3f2904ce3a11dd3779350ce234063fc7d0959246213364",
      "vout": 151,
      "prevout": {
        "scriptpubkey": "512062e5d8b13a50602943878a2f7e949f7bc8c3d88baf097a8c4cf2cdf362b2f544",
        "scriptpubkey_asm": "OP_PUSHNUM_1 OP_PUSHBYTES_32 62e5d8b13a50602943878a2f7e949f7bc8c3d88baf097a8c4cf2cdf362b2f544",
        "scriptpubkey_type": "v1_p2tr",
        "scriptpubkey_address": "bc1pvtja3vf62pszjsu83ghha9yl00yv8kyt4uyh4rzv7txlxc4j74zq4mmshd",
        "value": 1806
      },
      "scriptsig": "",
      "scriptsig_asm": "",
      "witness": [
        "71d839d76276918e14943de9e26a04e5493a1b902101591d27cdf7a8387a5a4e00b08d8e14e7646d63272f7666f72d8f9be3820db7641da4a5807a8cc6764124",
        "2081ad55506705033cd0db2e5a118c47cd980f3af7138bffecf159b1ebaf1ef241ac0063036f726401010a746578742f706c61696e00357b2270223a226272632d3230222c226f70223a226d696e74222c227469636b223a22646f6765222c22616d74223a2234323030227d68",
        "c181ad55506705033cd0db2e5a118c47cd980f3af7138bffecf159b1ebaf1ef241"
      ],
      "is_coinbase": false,
      "sequence": 4261412863
    }
  ],
  "vout": [
    {
      "scriptpubkey": "00147a665de7a370f4c9b372ab1fae587500a5bcbdb4",
      "scriptpubkey_asm": "OP_0 OP_PUSHBYTES_20 7a665de7a370f4c9b372ab1fae587500a5bcbdb4",
      "scriptpubkey_type": "v0_p2wpkh",
      "scriptpubkey_address": "bc1q0fn9mearwr6vnvmj4v06ukr4qzjme0d565dzcx",
      "value": 294
    }
  ],
  "size": 294,
  "weight": 540,
  "fee": 1512,
  "status": {
    "confirmed": true,
    "block_height": 834460,
    "block_hash": "00000000000000000000484a79b643b2524bbce82e5d8a442013fa5b8905ed98",
    "block_time": 1710307468
  },
  "hex": "02000000000101643321469295d0c73f0634e20c357937dd113ace04293f2a58cb9a8600bac3ac9700000000fffffffd0126010000000000001600147a665de7a370f4c9b372ab1fae587500a5bcbdb4034071d839d76276918e14943de9e26a04e5493a1b902101591d27cdf7a8387a5a4e00b08d8e14e7646d63272f7666f72d8f9be3820db7641da4a5807a8cc67641246d2081ad55506705033cd0db2e5a118c47cd980f3af7138bffecf159b1ebaf1ef241ac0063036f726401010a746578742f706c61696e00357b2270223a226272632d3230222c226f70223a226d696e74222c227469636b223a22646f6765222c22616d74223a2234323030227d6821c181ad55506705033cd0db2e5a118c47cd980f3af7138bffecf159b1ebaf1ef24100000000"
}