{
  "txid": "44d974b070ae95c982f4a9cdc72639afe6b876b7b72ebdd33dd58c8080166665",
  "version": 1,
  "locktime": 0,
  "vin": [
    {
      "txid": "124062fd7f3ccd793fc21fdcda4d80ccfe3eb9763931943368e8794846b9f598",
      "vout": 0,
      "prevout": {
        "scriptpubkey": "51201fcb0c16301e19ba26ba0b7bc9d837ebda631e7a9aca9180fad8f5481d78a9ec",
        "scriptpubkey_asm": "OP_PUSHNUM_1 OP_PUSHBYTES_32 1fcb0c16301e19ba26ba0b7bc9d837ebda631e7a9aca9180fad8f5481d78a9ec",
        "scriptpubkey_type": "v1_p2tr",
        "scriptpubkey_address": "bc1prl9sc93srcvm5f46pdaunkpha0dxx8n6nt9frq86mr65s8tc48kqa7qflg",
        "value": 2889
      },
      "scriptsig": "",
      "scriptsig_asm": "",
      "witness": [
        "e49fa0932352435fe6d3410cb9f4f2b35d2c6208e9454893b31bf56427190deb4ace33591e31967dd21cfb989bb3ccb0d83e3ecdc86c4e3312a0483f3197b3f8",
        "20dfa7325ed77fab28d796d113dcead29a7490c58aaa244f71cf02d52f6b761081ac00630461746f6d03646d7437a16461726773a46474696d651a65ee50f2656e6f6e63650068626974776f726b6364313234306b6d696e745f7469636b657264766d707868",
        "c0dfa7325ed77fab28d796d113dcead29a7490c58aaa244f71cf02d52f6b761081"
      ],
      "is_coinbase": false,
      "sequence": 0
    }
  ],
  "vout": [
    {
      "scriptpubkey": "5120a1e3352d215c371d7181ba45cba88085be161f72f0fb432c6eb5c59fa438eb97",
      "scriptpubkey_asm": "OP_PUSHNUM_1 OP_PUSHBYTES_32 a1e3352d215c371d7181ba45cba88085be161f72f0fb432c6eb5c59fa438eb97",
      "scriptpubkey_type": "v1_p2tr",
      "scriptpubkey_address": "bc1p583n2tfptsm36uvphfzuh2yqsklpv8mj7ra5xtrwkhzelfpcawtswnzule",
      "value": 1000
    }
  ],
  "size": 299,
  "weight": 581,
  "fee": 1889,
  "status": {
    "confirmed": true,
    "block_height": 834464,
    "block_hash": "0000000000000000000177a0869a911a2b65c9bdcd5a8bcb02b68f305bee848e",
    "block_time": 1710308296
  },
  "hex": "0100000000010198f5b9464879e8683394313976b93efecc804ddadc1fc23f79cd3c7ffd62401200000000000000000001e803000000000000225120a1e3352d215c371d7181ba45cba88085be161f72f0fb432c6eb5c59fa438eb970340e49fa0932352435fe6d3410cb9f4f2b35d2c6208e9454893b31bf56427190deb4ace33591e31967dd21cfb989bb3ccb0d83e3ecdc86c4e3312a0483f3197b3f86620dfa7325ed77fab28d796d113dcead29a7490c58aaa244f71cf02d52f6b761081ac00630461746f6d03646d7437a16461726773a46474696d651a65ee50f2656e6f6e63650068626974776f726b6364313234306b6d696e745f7469636b657264766d70786821c0dfa7325ed77fab28d796d113dcead29a7490c58aaa244f71cf02d52f6b76108100000000"
}