{
  "txid": "44e965ae771ad762dfe5aa9ed1b08a3e251ad1da7cec58c5388708637c13fbf2",
  "version": 2,
  "locktime": 0,
  "vin": [
    {
      "txid": "2bb358f02f93efec5d5f52726aacf54cd1b3beb035b39cb8f1b0e64e270d49f3",
      "vout": 0,
      "prevout": {
        "scriptpubkey": "5120527e96c1c2ccddfa55008d451f395c8463b06be759c4c3e3b20dcb2bcdcea7de",
        "scriptpubkey_asm": "OP_PUSHNUM_1 OP_PUSHBYTES_32 527e96c1c2ccddfa55008d451f395c8463b06be759c4c3e3b20dcb2bcdcea7de",
        "scriptpubkey_type": "v1_p2tr",
        "scriptpubkey_address": "bc1p2flfdswzenwl54gq34z37w2us33mq6l8t8zv8cajph9jhnww5l0qwuaqw6",
        "value": 2500
      },
      "scriptsig": "",
      "scriptsig_asm": "",
      "witness": [
        "27b5dd0c73e5eb26920ae9e8da01e7f895fde2bc4442816f31e6c35e7dc6f6e65a7cd7999f276ceb628ed66cfd28b1b39ada80d470d3b2ca0a42f8539cdc3ec901"
      ],
      "is_coinbase": false,
      "sequence": 4294967295
    }
  ],
  "vout": [
    {
      "scriptpubkey": "76a914afbc586159ab1a7ae76a345ba9225a5dd5b18c0e88ac",
      "scriptpubkey_asm": "OP_DUP OP_HASH160 OP_PUSHBYTES_20 afbc586159ab1a7ae76a345ba9225a5dd5b18c0e OP_EQUALVERIFY OP_CHECKSIG",
      "scriptpubkey_type": "p2pkh",
      "scriptpubkey_address": "1H2Ct2Yq8mgnq9HSi5gFzPNhEo1FgDLRyy",
      "value": 1268
    }
  ],
  "size": 154,
  "weight": 409,
  "fee": 1232,
  "status": {
    "confirmed": true,
    "block_height": 834460,
    "block_hash": "00000000000000000000484a79b643b2524bbce82e5d8a442013fa5b8905ed98",
    "block_time": 1710307468
  },
  "hex": "02000000000101f3490d274ee6b0f1b89cb335b0beb3d14cf5ac6a72525f5decef932ff058b32b0000000000ffffffff01f4040000000000001976a914afbc586159ab1a7ae76a345ba9225a5dd5b18c0e88ac014127b5dd0c73e5eb26920ae9e8da01e7f895fde2bc4442816f31e6c35e7dc6f6e65a7cd7999f276ceb628ed66cfd28b1b39ada80d470d3b2ca0a42f8539cdc3ec90100000000"
}