{
  "txid": "44ef3b2bffab078fe430407ae1810e6eb4f71e09a9d4973606ac79ea7ef096d4",
  "version": 2,
  "locktime": 0,
  "vin": [
    {
      "txid": "4ee77778659dcfe8d7a4e15882fc6193f4f3d5f6607624e256337b44c2280af5",
      "vout": 87,
      "prevout": {
        "scriptpubkey": "512044699f0bfc9c4a000adb6e5b4b9ceb0a576933976c79f925f7f8708dd444a93e",
        "scriptpubkey_asm": "OP_PUSHNUM_1 OP_PUSHBYTES_32 44699f0bfc9c4a000adb6e5b4b9ceb0a576933976c79f925f7f8708dd444a93e",
        "scriptpubkey_type": "v1_p2tr",
        "scriptpubkey_address": "bc1pg35e7zlun39qqzkmded5h88tpftkjvuhd3uljf0hlpcgm4zy4ylq4jqmcv",
        "value": 2075
      },
      "scriptsig": "",
      "scriptsig_asm": "",
      "witness": [
        "77a29f2ac8c9a7e8590857babc4ee70b184ae6613161c76e5eb8303e5f03b73260d0f0bcc984d2216e90867b5abb4de05cae42248ece21ddfc7548e55561f164",
        "2024398f1d5b7bd1a3f2c1197f49977d8d380029b6cc04656490a9819616c279a3ac0063036f7264010118746578742f706c61696e3b636861727365743d7574662d3800357b2270223a224252432d313030222c226f70223a226d696e74222c227469636b223a22696e73222c22616d74223a2231303030227d68",
        "c1c50eac15d7d7889f5ad84f80015e8a209129aeea937c37fa4b8bc0f9be289730"
      ],
      "is_coinbase": false,
      "sequence": 4294967295
    }
  ],
  "vout": [
    {
      "scriptpubkey": "00143e2325412b554cacdd163a93a42204c4707f8851",
      "scriptpubkey_asm": "OP_0 OP_PUSHBYTES_20 3e2325412b554cacdd163a93a42204c4707f8851",
      "scriptpubkey_type": "v0_p2wpkh",
      "scriptpubkey_address": "bc1q8c3j2sft24x2ehgk82f6ggsyc3c8lzz3yw9wsu",
      "value": 546
    }
  ],
  "size": 308,
  "weight": 554,
  "fee": 1529,
  "status": {
    "confirmed": true,
    "block_height": 834464,
    "block_hash": "0000000000000000000177a0869a911a2b65c9bdcd5a8bcb02b68f305bee848e",
    "block_time": 1710308296
  },
  "hex": "02000000000101f50a28c2447b3356e2247660f6d5f3f49361fc8258e1a4d7e8cf9d657877e74e5700000000ffffffff0122020000000000001600143e2325412b554cacdd163a93a42204c4707f8851034077a29f2ac8c9a7e8590857babc4ee70b184ae6613161c76e5eb8303e5f03b73260d0f0bcc984d2216e90867b5abb4de05cae42248ece21ddfc7548e55561f1647b2024398f1d5b7bd1a3f2c1197f49977d8d380029b6cc04656490a9819616c279a3ac0063036f7264010118746578742f706c61696e3b636861727365743d7574662d3800357b2270223a224252432d313030222c226f70223a226d696e74222c227469636b223a22696e73222c22616d74223a2231303030227d6821c1c50eac15d7d7889f5ad84f80015e8a209129aeea937c37fa4b8bc0f9be28973000000000"
}