{
  "txid": "44f395080a8268041b384496130cbce63e701d09c23e81e1aba24c45a5a5252c",
  "version": 1,
  "locktime": 0,
  "vin": [
    {
      "txid": "3cbcbf14be745a3094dbdf5248740f1a095da9b4172821de1ff8897d3a804d88",
      "vout": 0,
      "prevout": {
        "scriptpubkey": "5120af3081f4f8f3de83457491a78a7e58058303d5f760bf291520573d2df3ad007e",
        "scriptpubkey_asm": "OP_PUSHNUM_1 OP_PUSHBYTES_32 af3081f4f8f3de83457491a78a7e58058303d5f760bf291520573d2df3ad007e",
        "scriptpubkey_type": "v1_p2tr",
        "scriptpubkey_address": "bc1p4ucgra8c700gx3t5jxnc5ljcqkps840hvzljj9fq2u7jmuadqplqpnzyzr",
        "value": 2710
      },
      "scriptsig": "",
      "scriptsig_asm": "",
      "witness": [
        "f59d813d03d642d24e9034c268b487b0b55ab647b42768a8755f643f84a4a3672e49905bbe9dbacfa872c2ea14a7a88f739d50dc1230ddc9920ed2a331e58d5483",
        "20be11f1d0580232188e877ef283eb5a1efd4e9e5290a2633605d666f59ad3fff2ac00630461746f6d03646d742ca16461726773a36b6d696e745f7469636b657263627463656e6f6e63651a009637d86474696d651a65f10e9d68",
        "c0be11f1d0580232188e877ef283eb5a1efd4e9e5290a2633605d666f59ad3fff2"
      ],
      "is_coinbase": false,
      "sequence": 4294967293
    }
  ],
  "vout": [
    {
      "scriptpubkey": "51209d6dbbf9bad17d0135e06ea56ec304df985f9f9bc809fa52ae6789a0947e0300",
      "scriptpubkey_asm": "OP_PUSHNUM_1 OP_PUSHBYTES_32 9d6dbbf9bad17d0135e06ea56ec304df985f9f9bc809fa52ae6789a0947e0300",
      "scriptpubkey_type": "v1_p2tr",
      "scriptpubkey_address": "bc1pn4kmh7d6697szd0qd6jkascym7v9l8umeqyl554wv7y6p9r7qvqquzkndh",
      "value": 1000
    }
  ],
  "size": 289,
  "weight": 571,
  "fee": 1710,
  "status": {
    "confirmed": true,
    "block_height": 834460,
    "block_hash": "00000000000000000000484a79b643b2524bbce82e5d8a442013fa5b8905ed98",
    "block_time": 1710307468
  },
  "hex": "01000000000101884d803a7d89f81fde212817b4a95d091a0f744852dfdb94305a74be14bfbc3c0000000000fdffffff01e8030000000000002251209d6dbbf9bad17d0135e06ea56ec304df985f9f9bc809fa52ae6789a0947e03000341f59d813d03d642d24e9034c268b487b0b55ab647b42768a8755f643f84a4a3672e49905bbe9dbacfa872c2ea14a7a88f739d50dc1230ddc9920ed2a331e58d54835b20be11f1d0580232188e877ef283eb5a1efd4e9e5290a2633605d666f59ad3fff2ac00630461746f6d03646d742ca16461726773a36b6d696e745f7469636b657263627463656e6f6e63651a009637d86474696d651a65f10e9d6821c0be11f1d0580232188e877ef283eb5a1efd4e9e5290a2633605d666f59ad3fff200000000"
}