{
  "txid": "44f92f961f7d7dd641c4b3ea991a30c25d544b2ddbc6403856bec46c052b314a",
  "version": 1,
  "locktime": 0,
  "vin": [
    {
      "txid": "888888f6c0dda3c54579193d91378a94e11b3378e2e414bea3a9a0e1353f8b98",
      "vout": 0,
      "prevout": {
        "scriptpubkey": "5120ed11e58c392f692a12c23a9072f83ab525e9eed92c497d87fddfbc57d9eb7089",
        "scriptpubkey_asm": "OP_PUSHNUM_1 OP_PUSHBYTES_32 ed11e58c392f692a12c23a9072f83ab525e9eed92c497d87fddfbc57d9eb7089",
        "scriptpubkey_type": "v1_p2tr",
        "scriptpubkey_address": "bc1pa5g7trpe9a5j5ykz82g897p6k5j7nmke93yhmplam7790k0twzysmr2y9t",
        "value": 11484
      },
      "scriptsig": "",
      "scriptsig_asm": "",
      "witness": [
        "5c26a0d60010ac7bec771ed9d7b4d3590c357fbfbfa329bdb594e6b9f04f36a5ae92739b26540dc338f8628eafa43b8e6e50fcc4fc94fdfb83c203342086a78183",
        "20b45a9ed8be961ae9776db234f21e7b6aabe8b15c60b8f3b876b6d23b2db4d9c2ac00630461746f6d03646d7444a16461726773a468626974776f726b63693838383838382e31356b6d696e745f7469636b657268696e66696e697479656e6f6e63651a00932b806474696d651a65dc84d368",
        "c1b45a9ed8be961ae9776db234f21e7b6aabe8b15c60b8f3b876b6d23b2db4d9c2"
      ],
      "is_coinbase": false,
      "sequence": 4294967293
    }
  ],
  "vout": [
    {
      "scriptpubkey": "0014bffc61ed576ab45eadbb3252d1e756e9d3d1fa28",
      "scriptpubkey_asm": "OP_0 OP_PUSHBYTES_20 bffc61ed576ab45eadbb3252d1e756e9d3d1fa28",
      "scriptpubkey_type": "v0_p2wpkh",
      "scriptpubkey_address": "bc1qhl7xrm2hd269atdmxffdre6ka8far73g0gxfse",
      "value": 9999
    }
  ],
  "size": 301,
  "weight": 547,
  "fee": 1485,
  "status": {
    "confirmed": true,
    "block_height": 834464,
    "block_hash": "0000000000000000000177a0869a911a2b65c9bdcd5a8bcb02b68f305bee848e",
    "block_time": 1710308296
  },
  "hex": "01000000000101988b3f35e1a0a9a3be14e4e278331be1948a37913d197945c5a3ddc0f68888880000000000fdffffff010f27000000000000160014bffc61ed576ab45eadbb3252d1e756e9d3d1fa2803415c26a0d60010ac7bec771ed9d7b4d3590c357fbfbfa329bdb594e6b9f04f36a5ae92739b26540dc338f8628eafa43b8e6e50fcc4fc94fdfb83c203342086a781837320b45a9ed8be961ae9776db234f21e7b6aabe8b15c60b8f3b876b6d23b2db4d9c2ac00630461746f6d03646d7444a16461726773a468626974776f726b63693838383838382e31356b6d696e745f7469636b657268696e66696e697479656e6f6e63651a00932b806474696d651a65dc84d36821c1b45a9ed8be961ae9776db234f21e7b6aabe8b15c60b8f3b876b6d23b2db4d9c200000000"
}