{
  "txid": "44fa2f9505fb9eeb49a19791cb187ca1382baec6fd2ab51db31da77e95e0c726",
  "version": 2,
  "locktime": 0,
  "vin": [
    {
      "txid": "090ae4cb35569806cc1ac24d0bafb031b8faaa78b87fc91170d8323e3ce8fad9",
      "vout": 0,
      "prevout": {
        "scriptpubkey": "a9142c21151d54bd219dcc4c52e1cb38672dab8e36cc87",
        "scriptpubkey_asm": "OP_HASH160 OP_PUSHBYTES_20 2c21151d54bd219dcc4c52e1cb38672dab8e36cc OP_EQUAL",
        "scriptpubkey_type": "p2sh",
        "scriptpubkey_address": "35iMHbUZeTssxBodiHwEEkb32jpBfVueEL",
        "value": 13771240
      },
      "scriptsig": "1600147c846a806f4d9e516c9fb2fe364f28eac4e3c3fc",
      "scriptsig_asm": "OP_PUSHBYTES_22 00147c846a806f4d9e516c9fb2fe364f28eac4e3c3fc",
      "witness": [
        "304402205a870b4d3a918c2f26d94127436c7fb0e4484ad25bf7d3ad1db0da350c00ebbb022011a3f26ac25df4c59c3449f9be9c89652163f67025810d7ce96df35fb8e82a2901",
        "03789a9d83798d4cbf688f9969a94084ee1655059e137b43492ee94dc4538790ab"
      ],
      "is_coinbase": false,
      "sequence": 4294967295,
      "inner_redeemscript_asm": "OP_0 OP_PUSHBYTES_20 7c846a806f4d9e516c9fb2fe364f28eac4e3c3fc"
    }
  ],
  "vout": [
    {
      "scriptpubkey": "a914f4ce667f0a7b9439eca3b451b43d8e6dc690662687",
      "scriptpubkey_asm": "OP_HASH160 OP_PUSHBYTES_20 f4ce667f0a7b9439eca3b451b43d8e6dc6906626 OP_EQUAL",
      "scriptpubkey_type": "p2sh",
      "scriptpubkey_address": "3Q1S4JMASK1pMRAf8QXcQGGMBMxSRq2Nca",
      "value": 4914741
    },
    {
      "scriptpubkey": "a9142c21151d54bd219dcc4c52e1cb38672dab8e36cc87",
      "scriptpubkey_asm": "OP_HASH160 OP_PUSHBYTES_20 2c21151d54bd219dcc4c52e1cb38672dab8e36cc OP_EQUAL",
      "scriptpubkey_type": "p2sh",
      "scriptpubkey_address": "35iMHbUZeTssxBodiHwEEkb32jpBfVueEL",
      "value": 8852838
    }
  ],
  "size": 247,
  "weight": 661,
  "fee": 3661,
  "status": {
    "confirmed": true,
    "block_height": 834460,
    "block_hash": "00000000000000000000484a79b643b2524bbce82e5d8a442013fa5b8905ed98",
    "block_time": 1710307468
  },
  "hex": "02000000000101d9fae83c3e32d87011c97fb878aafab831b0af0b4dc21acc06985635cbe40a0900000000171600147c846a806f4d9e516c9fb2fe364f28eac4e3c3fcffffffff0235fe4a000000000017a914f4ce667f0a7b9439eca3b451b43d8e6dc690662687661587000000000017a9142c21151d54bd219dcc4c52e1cb38672dab8e36cc870247304402205a870b4d3a918c2f26d94127436c7fb0e4484ad25bf7d3ad1db0da350c00ebbb022011a3f26ac25df4c59c3449f9be9c89652163f67025810d7ce96df35fb8e82a29012103789a9d83798d4cbf688f9969a94084ee1655059e137b43492ee94dc4538790ab00000000"
}