{
  "txid": "44fefdb661dffff636f99f8cd19d1112179f43e30ccd0e739b7482f55f5aaa3d",
  "version": 2,
  "locktime": 0,
  "vin": [
    {
      "txid": "970adab66a2a6161e94b82e78c9cce6a44c6e2e563a8b1c8c550e9b09838ecda",
      "vout": 29,
      "prevout": {
        "scriptpubkey": "51207c095e10b72ddf6f5022f6da47f6979044c07dc1b38af40d5c1c4ebb802e6602",
        "scriptpubkey_asm": "OP_PUSHNUM_1 OP_PUSHBYTES_32 7c095e10b72ddf6f5022f6da47f6979044c07dc1b38af40d5c1c4ebb802e6602",
        "scriptpubkey_type": "v1_p2tr",
        "scriptpubkey_address": "bc1p0sy4uy9h9h0k75pz7mdy0a5hjpzvqlwpkw90gr2ur38thqpwvcpq465h69",
        "value": 291982
      },
      "scriptsig": "",
      "scriptsig_asm": "",
      "witness": [
        "210c308844508b9bdfe28f16e8083144970de62ce5e6c5c4b5acf223efd54b374764e2fe1060e7173d9d9f27d795814dae0e3cb8c2073c115df9305095a2aec0"
      ],
      "is_coinbase": false,
      "sequence": 2147483649
    },
    {
      "txid": "9451a858acd8d6687e76907102eebafd58aa7bf213809ee17148a190c0aa036a",
      "vout": 17,
      "prevout": {
        "scriptpubkey": "51207c095e10b72ddf6f5022f6da47f6979044c07dc1b38af40d5c1c4ebb802e6602",
        "scriptpubkey_asm": "OP_PUSHNUM_1 OP_PUSHBYTES_32 7c095e10b72ddf6f5022f6da47f6979044c07dc1b38af40d5c1c4ebb802e6602",
        "scriptpubkey_type": "v1_p2tr",
        "scriptpubkey_address": "bc1p0sy4uy9h9h0k75pz7mdy0a5hjpzvqlwpkw90gr2ur38thqpwvcpq465h69",
        "value": 262231
      },
      "scriptsig": "",
      "scriptsig_asm": "",
      "witness": [
        "6699520d78bb53c55a1043b461b41bb948ee9e708fe146ec60bc384d25f3012911c89ff401fb6a0a1d730b35430d89a3adde25d06f90b0b8b5c89793b398a6f2"
      ],
      "is_coinbase": false,
      "sequence": 2147483649
    },
    {
      "txid": "5717338d4935541fb4fca970374eebdc2f624c46d35fa2c4e8fd345da73bbbd4",
      "vout": 2,
      "prevout": {
        "scriptpubkey": "51207c095e10b72ddf6f5022f6da47f6979044c07dc1b38af40d5c1c4ebb802e6602",
        "scriptpubkey_asm": "OP_PUSHNUM_1 OP_PUSHBYTES_32 7c095e10b72ddf6f5022f6da47f6979044c07dc1b38af40d5c1c4ebb802e6602",
        "scriptpubkey_type": "v1_p2tr",
        "scriptpubkey_address": "bc1p0sy4uy9h9h0k75pz7mdy0a5hjpzvqlwpkw90gr2ur38thqpwvcpq465h69",
        "value": 122600
      },
      "scriptsig": "",
      "scriptsig_asm": "",
      "witness": [
        "6ca4c172250889c1d8a80163c94efed111bd6a8ba8f87f3edba3c0d95111d621df68d3520f6717784bb07e13b0ade0b3fc26ec8f790170ee5967c45cc423d0c2"
      ],
      "is_coinbase": false,
      "sequence": 2147483649
    },
    {
      "txid": "966ed9ca0116fbf01b99ae6b1aa7c8d40cbeed910d3e08f525b5d4178652eb71",
      "vout": 2,
      "prevout": {
        "scriptpubkey": "51207c095e10b72ddf6f5022f6da47f6979044c07dc1b38af40d5c1c4ebb802e6602",
        "scriptpubkey_asm": "OP_PUSHNUM_1 OP_PUSHBYTES_32 7c095e10b72ddf6f5022f6da47f6979044c07dc1b38af40d5c1c4ebb802e6602",
        "scriptpubkey_type": "v1_p2tr",
        "scriptpubkey_address": "bc1p0sy4uy9h9h0k75pz7mdy0a5hjpzvqlwpkw90gr2ur38thqpwvcpq465h69",
        "value": 31399
      },
      "scriptsig": "",
      "scriptsig_asm": "",
      "witness": [
        "90f3c88603d4f5fd69fd4acf382040612d22125c80dc42fb9e718650ccdd51044cd7021e064c48cbeb988e9e0ba4b41d5660e920adbfea5a343cbaf4704d5065"
      ],
      "is_coinbase": false,
      "sequence": 2147483649
    },
    {
      "txid": "b0eadbc6ed719d551cfa74c009a9fc3f4ebbfe762e68f865123ef5efb6bab650",
      "vout": 2,
      "prevout": {
        "scriptpubkey": "51207c095e10b72ddf6f5022f6da47f6979044c07dc1b38af40d5c1c4ebb802e6602",
        "scriptpubkey_asm": "OP_PUSHNUM_1 OP_PUSHBYTES_32 7c095e10b72ddf6f5022f6da47f6979044c07dc1b38af40d5c1c4ebb802e6602",
        "scriptpubkey_type": "v1_p2tr",
        "scriptpubkey_address": "bc1p0sy4uy9h9h0k75pz7mdy0a5hjpzvqlwpkw90gr2ur38thqpwvcpq465h69",
        "value": 29500
      },
      "scriptsig": "",
      "scriptsig_asm": "",
      "witness": [
        "bb18f474d638040ade60fa600502daf6558abebd9ddfb19bfd4eb94d47364d9052682999ed004456a191a31451c28956422523bd158345da56970f310bbbfaf8"
      ],
      "is_coinbase": false,
      "sequence": 2147483649
    },
    {
      "txid": "74f70f6f178203ae03a8ad472624a25effb62adc92ad4b84623f67eb6a0cd7ab",
      "vout": 1,
      "prevout": {
        "scriptpubkey": "51207c095e10b72ddf6f5022f6da47f6979044c07dc1b38af40d5c1c4ebb802e6602",
        "scriptpubkey_asm": "OP_PUSHNUM_1 OP_PUSHBYTES_32 7c095e10b72ddf6f5022f6da47f6979044c07dc1b38af40d5c1c4ebb802e6602",
        "scriptpubkey_type": "v1_p2tr",
        "scriptpubkey_address": "bc1p0sy4uy9h9h0k75pz7mdy0a5hjpzvqlwpkw90gr2ur38thqpwvcpq465h69",
        "value": 12621
      },
      "scriptsig": "",
      "scriptsig_asm": "",
      "witness": [
        "cf5c853bc39416168b18ad80a198e148d055cfd3d8d08bb564e0aab262d0e530ff7abfbb4baf7352d2d90ef415b41e21eaed29e68efa8ec37c2c46f69752295b"
      ],
      "is_coinbase": false,
      "sequence": 2147483649
    }
  ],
  "vout": [
    {
      "scriptpubkey": "a91489eb57bbf78d4729204d1e7d4291c85cb7d4b66387",
      "scriptpubkey_asm": "OP_HASH160 OP_PUSHBYTES_20 89eb57bbf78d4729204d1e7d4291c85cb7d4b663 OP_EQUAL",
      "scriptpubkey_type": "p2sh",
      "scriptpubkey_address": "3EGGRisnxtvNyAWHCq5cxVJVxoGMgUH1wi",
      "value": 746076
    }
  ],
  "size": 686,
  "weight": 1550,
  "fee": 4257,
  "status": {
    "confirmed": true,
    "block_height": 834464,
    "block_hash": "0000000000000000000177a0869a911a2b65c9bdcd5a8bcb02b68f305bee848e",
    "block_time": 1710308296
  },
  "hex": "02000000000106daec3898b0e950c5c8b1a863e5e2c6446ace9c8ce7824be961612a6ab6da0a971d00000000010000806a03aac090a14871e19e8013f27baa58fdbaee027190767e68d6d8ac58a85194110000000001000080d4bb3ba75d34fde8c4a25fd3464c622fdceb4e3770a9fcb41f5435498d33175702000000000100008071eb528617d4b525f5083e0d91edbe0cd4c8a71a6bae991bf0fb1601cad96e9602000000000100008050b6bab6eff53e1265f8682e76febb4e3ffca909c074fa1c559d71edc6dbeab0020000000001000080abd70c6aeb673f62844bad92dc2ab6ff5ea2242647ada803ae0382176f0ff774010000000001000080015c620b000000000017a91489eb57bbf78d4729204d1e7d4291c85cb7d4b663870140210c308844508b9bdfe28f16e8083144970de62ce5e6c5c4b5acf223efd54b374764e2fe1060e7173d9d9f27d795814dae0e3cb8c2073c115df9305095a2aec001406699520d78bb53c55a1043b461b41bb948ee9e708fe146ec60bc384d25f3012911c89ff401fb6a0a1d730b35430d89a3adde25d06f90b0b8b5c89793b398a6f201406ca4c172250889c1d8a80163c94efed111bd6a8ba8f87f3edba3c0d95111d621df68d3520f6717784bb07e13b0ade0b3fc26ec8f790170ee5967c45cc423d0c2014090f3c88603d4f5fd69fd4acf382040612d22125c80dc42fb9e718650ccdd51044cd7021e064c48cbeb988e9e0ba4b41d5660e920adbfea5a343cbaf4704d50650140bb18f474d638040ade60fa600502daf6558abebd9ddfb19bfd4eb94d47364d9052682999ed004456a191a31451c28956422523bd158345da56970f310bbbfaf80140cf5c853bc39416168b18ad80a198e148d055cfd3d8d08bb564e0aab262d0e530ff7abfbb4baf7352d2d90ef415b41e21eaed29e68efa8ec37c2c46f69752295b00000000"
}