{
  "txid": "451394417cae4d75ee35db6093bb83d721473927281a5338467c91a10a2d9f57",
  "version": 2,
  "locktime": 0,
  "vin": [
    {
      "txid": "acc3ba00869acb582a3f2904ce3a11dd3779350ce234063fc7d0959246213364",
      "vout": 121,
      "prevout": {
        "scriptpubkey": "51204ca9ba1b4e8eee298995e203c385ed3b55bb8d66dba69f2518a5a7cc63d8f33f",
        "scriptpubkey_asm": "OP_PUSHNUM_1 OP_PUSHBYTES_32 4ca9ba1b4e8eee298995e203c385ed3b55bb8d66dba69f2518a5a7cc63d8f33f",
        "scriptpubkey_type": "v1_p2tr",
        "scriptpubkey_address": "bc1pfj5m5x6w3mhznzv4ugpu8p0d8d2mhrtxmwnf7fgc5knucc7c7vls5l40e9",
        "value": 1806
      },
      "scriptsig": "",
      "scriptsig_asm": "",
      "witness": [
        "7b25dd179436f977e2e508760d49e355773d0cb9d0db51c5dcea9822ad98eb8bac1347ceadd1260b9a1181a96a5cbba76b87179cb15fb6ee361a0022abd71ef8",
        "20690f0b277b6fd6f59457514ae5d392171073f1a00d8dba18429431dd58ca0552ac0063036f726401010a746578742f706c61696e00357b2270223a226272632d3230222c226f70223a226d696e74222c227469636b223a22646f6765222c22616d74223a2234323030227d68",
        "c1690f0b277b6fd6f59457514ae5d392171073f1a00d8dba18429431dd58ca0552"
      ],
      "is_coinbase": false,
      "sequence": 4261412863
    }
  ],
  "vout": [
    {
      "scriptpubkey": "00147a665de7a370f4c9b372ab1fae587500a5bcbdb4",
      "scriptpubkey_asm": "OP_0 OP_PUSHBYTES_20 7a665de7a370f4c9b372ab1fae587500a5bcbdb4",
      "scriptpubkey_type": "v0_p2wpkh",
      "scriptpubkey_address": "bc1q0fn9mearwr6vnvmj4v06ukr4qzjme0d565dzcx",
      "value": 294
    }
  ],
  "size": 294,
  "weight": 540,
  "fee": 1512,
  "status": {
    "confirmed": true,
    "block_height": 834460,
    "block_hash": "00000000000000000000484a79b643b2524bbce82e5d8a442013fa5b8905ed98",
    "block_time": 1710307468
  },
  "hex": "02000000000101643321469295d0c73f0634e20c357937dd113ace04293f2a58cb9a8600bac3ac7900000000fffffffd0126010000000000001600147a665de7a370f4c9b372ab1fae587500a5bcbdb403407b25dd179436f977e2e508760d49e355773d0cb9d0db51c5dcea9822ad98eb8bac1347ceadd1260b9a1181a96a5cbba76b87179cb15fb6ee361a0022abd71ef86d20690f0b277b6fd6f59457514ae5d392171073f1a00d8dba18429431dd58ca0552ac0063036f726401010a746578742f706c61696e00357b2270223a226272632d3230222c226f70223a226d696e74222c227469636b223a22646f6765222c22616d74223a2234323030227d6821c1690f0b277b6fd6f59457514ae5d392171073f1a00d8dba18429431dd58ca055200000000"
}