{
  "txid": "4515cb55bc9537410a200d0a342bdfdec24f8091cba890acb532c6a05a254546",
  "version": 2,
  "locktime": 0,
  "vin": [
    {
      "txid": "5e15038450230e341439bbe081764ce21564632d292c834fb44107075458b0e0",
      "vout": 1,
      "prevout": {
        "scriptpubkey": "0014074382000e04ac6ae9168880580bc70cb9b455e2",
        "scriptpubkey_asm": "OP_0 OP_PUSHBYTES_20 074382000e04ac6ae9168880580bc70cb9b455e2",
        "scriptpubkey_type": "v0_p2wpkh",
        "scriptpubkey_address": "bc1qqapcyqqwqjkx46gk3zq9sz78pjumg40zaqxp0t",
        "value": 18801
      },
      "scriptsig": "",
      "scriptsig_asm": "",
      "witness": [
        "30440220196e9431f69ca900ddf797005411910de63277e5bbf6e71ff726cd96ccf1e4cb022041245823cfa04bcedda9b192d780ebd88d1e2397a382a7001ec6d84b2fc647c401",
        "027ba6d0caf28573ec2858f0e508f8d9402bcb2938015e25cea61ca001991bbfd5"
      ],
      "is_coinbase": false,
      "sequence": 4294967295
    }
  ],
  "vout": [
    {
      "scriptpubkey": "6a2ac6c1b36e96470f909b81910cdf104e93b3e8502bf7d54950e97423fc6d19a28f551396b98d09418439b1",
      "scriptpubkey_asm": "OP_RETURN OP_PUSHBYTES_42 c6c1b36e96470f909b81910cdf104e93b3e8502bf7d54950e97423fc6d19a28f551396b98d09418439b1",
      "scriptpubkey_type": "op_return",
      "value": 0
    },
    {
      "scriptpubkey": "0014074382000e04ac6ae9168880580bc70cb9b455e2",
      "scriptpubkey_asm": "OP_0 OP_PUSHBYTES_20 074382000e04ac6ae9168880580bc70cb9b455e2",
      "scriptpubkey_type": "v0_p2wpkh",
      "scriptpubkey_address": "bc1qqapcyqqwqjkx46gk3zq9sz78pjumg40zaqxp0t",
      "value": 16956
    }
  ],
  "size": 244,
  "weight": 649,
  "fee": 1845,
  "status": {
    "confirmed": true,
    "block_height": 834464,
    "block_hash": "0000000000000000000177a0869a911a2b65c9bdcd5a8bcb02b68f305bee848e",
    "block_time": 1710308296
  },
  "hex": "02000000000101e0b05854070741b44f832c292d636415e24c7681e0bb3914340e23508403155e0100000000ffffffff0200000000000000002c6a2ac6c1b36e96470f909b81910cdf104e93b3e8502bf7d54950e97423fc6d19a28f551396b98d09418439b13c42000000000000160014074382000e04ac6ae9168880580bc70cb9b455e2024730440220196e9431f69ca900ddf797005411910de63277e5bbf6e71ff726cd96ccf1e4cb022041245823cfa04bcedda9b192d780ebd88d1e2397a382a7001ec6d84b2fc647c40121027ba6d0caf28573ec2858f0e508f8d9402bcb2938015e25cea61ca001991bbfd500000000"
}