{
  "txid": "4515dc4ad0d852d41d437a4706f700ee87c7654f505ec107e05daf832633cbb5",
  "version": 2,
  "locktime": 0,
  "vin": [
    {
      "txid": "7cd30e0559586a8047242f5be082928f8043dc602f5817a491dd867fdd021122",
      "vout": 0,
      "prevout": {
        "scriptpubkey": "5120f80763153c8a89947f36f87328d305b2e3aa86e60a63473e91b393e07958eba2",
        "scriptpubkey_asm": "OP_PUSHNUM_1 OP_PUSHBYTES_32 f80763153c8a89947f36f87328d305b2e3aa86e60a63473e91b393e07958eba2",
        "scriptpubkey_type": "v1_p2tr",
        "scriptpubkey_address": "bc1plqrkx9fu32yegleklpej35c9kt364phxpf35w053kwf7q72caw3qntfynr",
        "value": 546
      },
      "scriptsig": "",
      "scriptsig_asm": "",
      "witness": [
        "ac7a4ce4869ae37df05ede8eeba4ea0c6fd56bbb15713812f8d27545a6faf0e651bc4eea3e5d1c20962e9068fd4f4be4b0ff545358af9f6599d27e8fd9337a42"
      ],
      "is_coinbase": false,
      "sequence": 4294967295
    },
    {
      "txid": "9c8064cb7cf682e96d79d3e7330aad9c9dac75703620dc0a5bbb9176d9b71b9a",
      "vout": 1,
      "prevout": {
        "scriptpubkey": "5120f80763153c8a89947f36f87328d305b2e3aa86e60a63473e91b393e07958eba2",
        "scriptpubkey_asm": "OP_PUSHNUM_1 OP_PUSHBYTES_32 f80763153c8a89947f36f87328d305b2e3aa86e60a63473e91b393e07958eba2",
        "scriptpubkey_type": "v1_p2tr",
        "scriptpubkey_address": "bc1plqrkx9fu32yegleklpej35c9kt364phxpf35w053kwf7q72caw3qntfynr",
        "value": 134591
      },
      "scriptsig": "",
      "scriptsig_asm": "",
      "witness": [
        "d7d9db78bb6d2e06439e4ffd89fd2fd26c99157627f3efc8b9d5733b55327a8f679753c6c70e1465f673d4a1731d2a7500ce2e323433f4b95ded0830512ed9c8"
      ],
      "is_coinbase": false,
      "sequence": 4294967295
    }
  ],
  "vout": [
    {
      "scriptpubkey": "5120f80763153c8a89947f36f87328d305b2e3aa86e60a63473e91b393e07958eba2",
      "scriptpubkey_asm": "OP_PUSHNUM_1 OP_PUSHBYTES_32 f80763153c8a89947f36f87328d305b2e3aa86e60a63473e91b393e07958eba2",
      "scriptpubkey_type": "v1_p2tr",
      "scriptpubkey_address": "bc1plqrkx9fu32yegleklpej35c9kt364phxpf35w053kwf7q72caw3qntfynr",
      "value": 546
    },
    {
      "scriptpubkey": "6a1152554e45414c5048415f5354414b494e47096338323937303835320431303030",
      "scriptpubkey_asm": "OP_RETURN OP_PUSHBYTES_17 52554e45414c5048415f5354414b494e47 OP_PUSHBYTES_9 633832393730383532 OP_PUSHBYTES_4 31303030",
      "scriptpubkey_type": "op_return",
      "value": 0
    },
    {
      "scriptpubkey": "5120f80763153c8a89947f36f87328d305b2e3aa86e60a63473e91b393e07958eba2",
      "scriptpubkey_asm": "OP_PUSHNUM_1 OP_PUSHBYTES_32 f80763153c8a89947f36f87328d305b2e3aa86e60a63473e91b393e07958eba2",
      "scriptpubkey_type": "v1_p2tr",
      "scriptpubkey_address": "bc1plqrkx9fu32yegleklpej35c9kt364phxpf35w053kwf7q72caw3qntfynr",
      "value": 130755
    }
  ],
  "size": 355,
  "weight": 1018,
  "fee": 3836,
  "status": {
    "confirmed": true,
    "block_height": 834638,
    "block_hash": "000000000000000000025f742c626208ac87e0b7d15054abb4a19ca2d735a54e",
    "block_time": 1710405325
  },
  "hex": "02000000000102221102dd7f86dd91a417582f60dc43808f9282e05b2f2447806a5859050ed37c0000000000ffffffff9a1bb7d97691bb5b0adc20367075ac9d9cad0a33e7d3796de982f67ccb64809c0100000000ffffffff032202000000000000225120f80763153c8a89947f36f87328d305b2e3aa86e60a63473e91b393e07958eba20000000000000000226a1152554e45414c5048415f5354414b494e47096338323937303835320431303030c3fe010000000000225120f80763153c8a89947f36f87328d305b2e3aa86e60a63473e91b393e07958eba20140ac7a4ce4869ae37df05ede8eeba4ea0c6fd56bbb15713812f8d27545a6faf0e651bc4eea3e5d1c20962e9068fd4f4be4b0ff545358af9f6599d27e8fd9337a420140d7d9db78bb6d2e06439e4ffd89fd2fd26c99157627f3efc8b9d5733b55327a8f679753c6c70e1465f673d4a1731d2a7500ce2e323433f4b95ded0830512ed9c800000000"
}