{
  "txid": "45226dc82b41a1754b1ce1f18e264f447d6fe8d7757d12d601938906965f58d7",
  "version": 1,
  "locktime": 0,
  "vin": [
    {
      "txid": "25fc5f20390b2fed02e4f935b274f865644ceaad497d9e57225d957152c36bca",
      "vout": 30,
      "prevout": {
        "scriptpubkey": "00140449b78279b9107243ff4ad8bdc7b67eef74065b",
        "scriptpubkey_asm": "OP_0 OP_PUSHBYTES_20 0449b78279b9107243ff4ad8bdc7b67eef74065b",
        "scriptpubkey_type": "v0_p2wpkh",
        "scriptpubkey_address": "bc1qq3ym0qnehyg8ysllftvtm3ak0mhhgpjmqugnzd",
        "value": 138738
      },
      "scriptsig": "",
      "scriptsig_asm": "",
      "witness": [
        "3045022100b97352eb6994369841d267111e8cf54d7a1c71715d481e3eddb42ce1cdbbba5102204caa064d9db7c016ea94f4a359c9eddd3cf7390e08d8d922f2cf855d52a8c15201",
        "032bd5cb69262503847a32fffb1a1633366487ead47ce39445e311560356cab69d"
      ],
      "is_coinbase": false,
      "sequence": 4294967295
    },
    {
      "txid": "447d191b77dd3b8df59b5bf9a83c8253622140f85240f13412e79ee62adf9134",
      "vout": 157,
      "prevout": {
        "scriptpubkey": "0014c9a610435d58790c34523c4dae41718e94f8586d",
        "scriptpubkey_asm": "OP_0 OP_PUSHBYTES_20 c9a610435d58790c34523c4dae41718e94f8586d",
        "scriptpubkey_type": "v0_p2wpkh",
        "scriptpubkey_address": "bc1qexnpqs6atpuscdzj83x6ust33620skrdsthepw",
        "value": 170871
      },
      "scriptsig": "",
      "scriptsig_asm": "",
      "witness": [
        "304402205283f087b3fb05b638f4d292798d110e9165b5392956c180847d6b92259f1ab602200e100a3f555f19cb787cea98867d68627aab0d0f690f42f513bfce1cd6e43e9901",
        "03e9daf26176880fb79683f64557c8f186feb7992871399d0f6ff725347c0a5ce6"
      ],
      "is_coinbase": false,
      "sequence": 4294967295
    }
  ],
  "vout": [
    {
      "scriptpubkey": "00202176e1a819897872d590bcf07d5127a7100d4a15ef3f01842d50d9046f5fef00",
      "scriptpubkey_asm": "OP_0 OP_PUSHBYTES_32 2176e1a819897872d590bcf07d5127a7100d4a15ef3f01842d50d9046f5fef00",
      "scriptpubkey_type": "v0_p2wsh",
      "scriptpubkey_address": "bc1qy9mwr2qe39u894vshnc865f85ugq6js4aulsrppd2rvsgm6lauqq6lxh07",
      "value": 174464
    },
    {
      "scriptpubkey": "00141aa2498eb966199887ca5d34da80a120a827893c",
      "scriptpubkey_asm": "OP_0 OP_PUSHBYTES_20 1aa2498eb966199887ca5d34da80a120a827893c",
      "scriptpubkey_type": "v0_p2wpkh",
      "scriptpubkey_address": "bc1qr23ynr4evcve3p72t56d4q9pyz5z0zfufk0l3q",
      "value": 130755
    }
  ],
  "size": 383,
  "weight": 881,
  "fee": 4390,
  "status": {
    "confirmed": true,
    "block_height": 834638,
    "block_hash": "000000000000000000025f742c626208ac87e0b7d15054abb4a19ca2d735a54e",
    "block_time": 1710405325
  },
  "hex": "01000000000102ca6bc35271955d22579e7d49adea4c6465f874b235f9e402ed2f0b39205ffc251e00000000ffffffff3491df2ae69ee71234f14052f840216253823ca8f95b9bf58d3bdd771b197d449d00000000ffffffff0280a90200000000002200202176e1a819897872d590bcf07d5127a7100d4a15ef3f01842d50d9046f5fef00c3fe0100000000001600141aa2498eb966199887ca5d34da80a120a827893c02483045022100b97352eb6994369841d267111e8cf54d7a1c71715d481e3eddb42ce1cdbbba5102204caa064d9db7c016ea94f4a359c9eddd3cf7390e08d8d922f2cf855d52a8c1520121032bd5cb69262503847a32fffb1a1633366487ead47ce39445e311560356cab69d0247304402205283f087b3fb05b638f4d292798d110e9165b5392956c180847d6b92259f1ab602200e100a3f555f19cb787cea98867d68627aab0d0f690f42f513bfce1cd6e43e99012103e9daf26176880fb79683f64557c8f186feb7992871399d0f6ff725347c0a5ce600000000"
}