{
  "txid": "4527eb021765205ee1a8326b86ffe2e243d0da4bd328118a1921bd080ca3b40f",
  "version": 2,
  "locktime": 0,
  "vin": [
    {
      "txid": "945ba8d4ae757dce36cd5e5b9cb282a5396c6e6972016ea5d78f63b2e8fe9e52",
      "vout": 7,
      "prevout": {
        "scriptpubkey": "5120590f9df83867c33a24fc838193e52c658f49b9effacc327994ebc49ee5c7aefb",
        "scriptpubkey_asm": "OP_PUSHNUM_1 OP_PUSHBYTES_32 590f9df83867c33a24fc838193e52c658f49b9effacc327994ebc49ee5c7aefb",
        "scriptpubkey_type": "v1_p2tr",
        "scriptpubkey_address": "bc1pty8em7pcvlpn5f8uswqe8efvvk85nw00ltxry7v5a0zfaew84maszgwxus",
        "value": 2862
      },
      "scriptsig": "",
      "scriptsig_asm": "",
      "witness": [
        "59870246ebe26c2374ce5624132d383e4c8dd9080fa89c7db292ada5636ccb34b58a59b7d834f752af0c3332ec88a08c45845c1d96ad94903ddfb0c182f10c1f",
        "20d608c5df5653e5910d9c4b1938bfa78939b5eb938aa0c9d0178b495a3553eed8ac0063036f726401011e6170706c69636174696f6e2f6a736f6e3b636861727365743d7574662d38004cd37b2270223a22706f772d3230222c226f70223a226d696e74222c227469636b223a2250455045222c22616d74223a2231303030222c22736f6c7574696f6e223a22504550453a62633170367a67656779647861737432786571616535763930396434396a323636786e707a6178776634386336786b736871703766797a717734733761663a303030303030303030303030303030303030303139393431613561653132383937363539383134343239323533333030353762306461393666336465613163353a3236373635313735333330227d68",
        "c15067337a99a00666fd957e65b5c212a7b30f6b410af3fccba2d4635da920c85e"
      ],
      "is_coinbase": false,
      "sequence": 4294967295
    }
  ],
  "vout": [
    {
      "scriptpubkey": "5120d0919411a6ec16a3641dcd185795b52c95ad1a61174ce4d4f8d1ad0b803e4904",
      "scriptpubkey_asm": "OP_PUSHNUM_1 OP_PUSHBYTES_32 d0919411a6ec16a3641dcd185795b52c95ad1a61174ce4d4f8d1ad0b803e4904",
      "scriptpubkey_type": "v1_p2tr",
      "scriptpubkey_address": "bc1p6zgegydxast2xeqae5v909d49j266xnpzaxwf48c6xkshqp7fyzqw4s7af",
      "value": 546
    }
  ],
  "size": 487,
  "weight": 769,
  "fee": 2316,
  "status": {
    "confirmed": true,
    "block_height": 834460,
    "block_hash": "00000000000000000000484a79b643b2524bbce82e5d8a442013fa5b8905ed98",
    "block_time": 1710307468
  },
  "hex": "02000000000101529efee8b2638fd7a56e0172696e6c39a582b29c5b5ecd36ce7d75aed4a85b940700000000ffffffff012202000000000000225120d0919411a6ec16a3641dcd185795b52c95ad1a61174ce4d4f8d1ad0b803e4904034059870246ebe26c2374ce5624132d383e4c8dd9080fa89c7db292ada5636ccb34b58a59b7d834f752af0c3332ec88a08c45845c1d96ad94903ddfb0c182f10c1ffd200120d608c5df5653e5910d9c4b1938bfa78939b5eb938aa0c9d0178b495a3553eed8ac0063036f726401011e6170706c69636174696f6e2f6a736f6e3b636861727365743d7574662d38004cd37b2270223a22706f772d3230222c226f70223a226d696e74222c227469636b223a2250455045222c22616d74223a2231303030222c22736f6c7574696f6e223a22504550453a62633170367a67656779647861737432786571616535763930396434396a323636786e707a6178776634386336786b736871703766797a717734733761663a303030303030303030303030303030303030303139393431613561653132383937363539383134343239323533333030353762306461393666336465613163353a3236373635313735333330227d6821c15067337a99a00666fd957e65b5c212a7b30f6b410af3fccba2d4635da920c85e00000000"
}