{
  "txid": "454d4c6c4fe2580a25ec5569fb27afb8b3c6fd879b255e257ca291ee92970682",
  "version": 1,
  "locktime": 0,
  "vin": [
    {
      "txid": "e9dcd8971082a163954c18cf2aa720d68c2863ef8b8522de5d29529cb243884d",
      "vout": 1,
      "prevout": {
        "scriptpubkey": "001457e57d4d9226828aa937afae529d8432201f447e",
        "scriptpubkey_asm": "OP_0 OP_PUSHBYTES_20 57e57d4d9226828aa937afae529d8432201f447e",
        "scriptpubkey_type": "v0_p2wpkh",
        "scriptpubkey_address": "bc1q2ljh6nvjy6pg42fh47h998vyxgsp73r7lm3swl",
        "value": 29167
      },
      "scriptsig": "",
      "scriptsig_asm": "",
      "witness": [
        "3045022100f6558e952dac3265bca6a88a29298b0341e476ca37f3d7be40ba8f28386be9fb02204481e7da4c214fdb6c4371d0624159d423bf1898170879f97170e3474461a65d01",
        "03d1f4b6fc15a976edf40a65636bcc8a2a2469813585e415d7a8f5db54823b7bdd"
      ],
      "is_coinbase": false,
      "sequence": 4294967295
    },
    {
      "txid": "657c6c511e8804641075699a9ff0c741d966df056b6c4908ed74f87ef4468e29",
      "vout": 0,
      "prevout": {
        "scriptpubkey": "001441dd906b22e361574d428b7d05ccdc110cf4297b",
        "scriptpubkey_asm": "OP_0 OP_PUSHBYTES_20 41dd906b22e361574d428b7d05ccdc110cf4297b",
        "scriptpubkey_type": "v0_p2wpkh",
        "scriptpubkey_address": "bc1qg8weq6ezuds4wn2z3d7stnxuzyx0g2tm05d5e5",
        "value": 314187
      },
      "scriptsig": "",
      "scriptsig_asm": "",
      "witness": [
        "304402204ed48a455fe2b8b3443c032f7db3ed139d24055c29c038b76b207cfb6f5fc9240220354708e27bb1074d6a41fb4192d5f4be532a78ba43a7483b5a80408588b66e6f01",
        "03932e756580b72bb147ffc96b857c58847b40fb4b4d57c2a2190a078cb64199bd"
      ],
      "is_coinbase": false,
      "sequence": 4294967295
    }
  ],
  "vout": [
    {
      "scriptpubkey": "76a91419e0a1bae2d9c74203608dfed6048d4377c7ef7688ac",
      "scriptpubkey_asm": "OP_DUP OP_HASH160 OP_PUSHBYTES_20 19e0a1bae2d9c74203608dfed6048d4377c7ef76 OP_EQUALVERIFY OP_CHECKSIG",
      "scriptpubkey_type": "p2pkh",
      "scriptpubkey_address": "13MpzV4undTaLfVAkh8HZkVn9qrPyASxmZ",
      "value": 136200
    },
    {
      "scriptpubkey": "001436b28b2464c1dbb00ae11ab83582442095b39396",
      "scriptpubkey_asm": "OP_0 OP_PUSHBYTES_20 36b28b2464c1dbb00ae11ab83582442095b39396",
      "scriptpubkey_type": "v0_p2wpkh",
      "scriptpubkey_address": "bc1qx6egkfryc8dmqzhpr2urtqjyyz2m8yuk2s994n",
      "value": 203995
    }
  ],
  "size": 374,
  "weight": 845,
  "fee": 3159,
  "status": {
    "confirmed": true,
    "block_height": 834638,
    "block_hash": "000000000000000000025f742c626208ac87e0b7d15054abb4a19ca2d735a54e",
    "block_time": 1710405325
  },
  "hex": "010000000001024d8843b29c52295dde22858bef63288cd620a72acf184c9563a1821097d8dce90100000000ffffffff298e46f47ef874ed08496c6b05df66d941c7f09f9a6975106404881e516c7c650000000000ffffffff0208140200000000001976a91419e0a1bae2d9c74203608dfed6048d4377c7ef7688acdb1c03000000000016001436b28b2464c1dbb00ae11ab83582442095b3939602483045022100f6558e952dac3265bca6a88a29298b0341e476ca37f3d7be40ba8f28386be9fb02204481e7da4c214fdb6c4371d0624159d423bf1898170879f97170e3474461a65d012103d1f4b6fc15a976edf40a65636bcc8a2a2469813585e415d7a8f5db54823b7bdd0247304402204ed48a455fe2b8b3443c032f7db3ed139d24055c29c038b76b207cfb6f5fc9240220354708e27bb1074d6a41fb4192d5f4be532a78ba43a7483b5a80408588b66e6f012103932e756580b72bb147ffc96b857c58847b40fb4b4d57c2a2190a078cb64199bd00000000"
}