{
  "txid": "455c96b9a44229c9ab9bd5be3e379310556f3e086b977ff533930ba669569292",
  "version": 1,
  "locktime": 0,
  "vin": [
    {
      "txid": "135ae9aa89bd02511fbb6f522f0944e1d6ade501b9ff5b2b0d7f8beeb88bbf58",
      "vout": 12,
      "prevout": {
        "scriptpubkey": "00146496bcaa2fec34bf4ec111abc3b492665d019d90",
        "scriptpubkey_asm": "OP_0 OP_PUSHBYTES_20 6496bcaa2fec34bf4ec111abc3b492665d019d90",
        "scriptpubkey_type": "v0_p2wpkh",
        "scriptpubkey_address": "bc1qvjtte230as6t7nkpzx4u8dyjvewsr8vsh77yga",
        "value": 24792333
      },
      "scriptsig": "",
      "scriptsig_asm": "",
      "witness": [
        "3045022100d9abd06f6966aca286e099392d07235a971689763c4cdc0480166810fa10532e02207314e540ef132b96c3be8254e15d124e6a5822a43ca302d54e39e036d9ae17cc01",
        "020cbe1bfd7853f5aa67bce351985088f3aec72f77f3227aab81ca1833fea98ae6"
      ],
      "is_coinbase": false,
      "sequence": 4294967293
    },
    {
      "txid": "19308e308d2c12f4779ff31a49c198612866cf519f5f5d5660791542d9f88474",
      "vout": 0,
      "prevout": {
        "scriptpubkey": "0014db4c0eaee5e190f5e75e9ed61d7872625a2aba90",
        "scriptpubkey_asm": "OP_0 OP_PUSHBYTES_20 db4c0eaee5e190f5e75e9ed61d7872625a2aba90",
        "scriptpubkey_type": "v0_p2wpkh",
        "scriptpubkey_address": "bc1qmdxqath9uxg0te67nmtp67rjvfdz4w5s5ys6ss",
        "value": 123077
      },
      "scriptsig": "",
      "scriptsig_asm": "",
      "witness": [
        "304402201795fe37d67220be663b7349f85a0864b2cb3b3c751408cfdac7837542e194d202206f1d99ee20ee237a51ce81aabbb0d8cb7817932d1a145e9a9b803e58d290d3c701",
        "031ad55598aee9c3d5a7affdae0a18519fa5373949ffc643c548ad5db129e352cd"
      ],
      "is_coinbase": false,
      "sequence": 4294967293
    },
    {
      "txid": "488570fc1eda018f59639e26f78d8233560a90fac92cb7587456268d91e7ffb4",
      "vout": 2,
      "prevout": {
        "scriptpubkey": "0014c105f56f47c0681a27fa96d9b032e90724e82ca6",
        "scriptpubkey_asm": "OP_0 OP_PUSHBYTES_20 c105f56f47c0681a27fa96d9b032e90724e82ca6",
        "scriptpubkey_type": "v0_p2wpkh",
        "scriptpubkey_address": "bc1qcyzl2m68cp5p5fl6jmvmqvhfqujwst9xw0ns0s",
        "value": 100000
      },
      "scriptsig": "",
      "scriptsig_asm": "",
      "witness": [
        "304402204aebe9180b1461b41df8ba172b67ee78624f3cf33c29b0d71b9f9dbf4825c1e1022043506c692c2f30ce15a5282aaff8424e30402237224f49facbde858e7e46a46901",
        "0229ebe076d35940a8951fa595d97bf2ed3dc2746fbb59ebda33b5b21cac7845ed"
      ],
      "is_coinbase": false,
      "sequence": 4294967293
    },
    {
      "txid": "4f62e8ac3aae7ad918428963e356548f803ff2f8ceca0c86b8f271a23d8cf06c",
      "vout": 0,
      "prevout": {
        "scriptpubkey": "0014dca52608f5e227610fe0c381780e79691de234d3",
        "scriptpubkey_asm": "OP_0 OP_PUSHBYTES_20 dca52608f5e227610fe0c381780e79691de234d3",
        "scriptpubkey_type": "v0_p2wpkh",
        "scriptpubkey_address": "bc1qmjjjvz84ugnkzrlqcwqhsrnedyw7ydxnt07s9v",
        "value": 24700000
      },
      "scriptsig": "",
      "scriptsig_asm": "",
      "witness": [
        "30440220264032bf33c27ef5c48cf2f61fa7d2a86199ef7f9128d07e51f25d742dfd1eef022005859cfedbe514700273c62937a9c0cf345eb2b48913a029b4b3966337234d6201",
        "03cc5592ce2b21ccd6968daa4a35237895fd4a3796f323215276bc43583259dba0"
      ],
      "is_coinbase": false,
      "sequence": 4294967293
    },
    {
      "txid": "695e6f7e0c5e0de401f2001fd681572281eca204c2cfd82da465c5ba254485f5",
      "vout": 0,
      "prevout": {
        "scriptpubkey": "0014d28263e363e2efd9d9d98a9b2e18bdd47137fd1e",
        "scriptpubkey_asm": "OP_0 OP_PUSHBYTES_20 d28263e363e2efd9d9d98a9b2e18bdd47137fd1e",
        "scriptpubkey_type": "v0_p2wpkh",
        "scriptpubkey_address": "bc1q62px8cmruthankwe32djux9a63cn0lg7sgnrdw",
        "value": 1000000
      },
      "scriptsig": "",
      "scriptsig_asm": "",
      "witness": [
        "3044022014a378e331fe5a1dc625cad7f9dde15585a754f5e337681072ec18078cfbe4ef0220125e680554d4a49108ef565af5eca46581f243d212f5f2896a4d3f9884c7a5af01",
        "0287e01bc8a48801c081a143378ba37e6a7583f8fdd926629f1bfb418d89f22d20"
      ],
      "is_coinbase": false,
      "sequence": 4294967293
    },
    {
      "txid": "c179d387e1ac0748647e6fb83ebf665271a30e2113410639df67d6dcbfd18d66",
      "vout": 1,
      "prevout": {
        "scriptpubkey": "0014a95ec1c81220fcdd254f588440dd7adb1b4d1d5e",
        "scriptpubkey_asm": "OP_0 OP_PUSHBYTES_20 a95ec1c81220fcdd254f588440dd7adb1b4d1d5e",
        "scriptpubkey_type": "v0_p2wpkh",
        "scriptpubkey_address": "bc1q490vrjqjyr7d6f20tzzypht6mvd56827qp3nqh",
        "value": 14896167
      },
      "scriptsig": "",
      "scriptsig_asm": "",
      "witness": [
        "304402204f6f3033aa6b68a819349e57c7cc50dd7a1b5652fa6a0cf82b06c9934c0687930220200153fe963c2161e5f31031be597cde9094f920b5e96a13295ed368c80ac23d01",
        "03ddf1db61e42458ff2201198c7027788b403964e409747bc65515514feebdf48f"
      ],
      "is_coinbase": false,
      "sequence": 4294967293
    },
    {
      "txid": "f839c88827721d7fee078b7eddddcd5b0279720c19e9407d352bfa29d1e01c0a",
      "vout": 0,
      "prevout": {
        "scriptpubkey": "00145e2318c4a9c565f42de80f869824fc3821137a79",
        "scriptpubkey_asm": "OP_0 OP_PUSHBYTES_20 5e2318c4a9c565f42de80f869824fc3821137a79",
        "scriptpubkey_type": "v0_p2wpkh",
        "scriptpubkey_address": "bc1qtc33339fc4jlgt0gp7rfsf8u8qs3x7nen6crh7",
        "value": 24457693
      },
      "scriptsig": "",
      "scriptsig_asm": "",
      "witness": [
        "3044022060a19aa7ffcbff5499237a01e9ed10d4be218b01e9cee38417969fb0fe52e06e0220564899861b37b7661efd49acb08a3ae4473f39b4494aa2bb03e7ffdf158d4a4b01",
        "02d5e9727c9d1abece9ca368b201d981322766e106c41d7ceedb36717070500eeb"
      ],
      "is_coinbase": false,
      "sequence": 4294967293
    }
  ],
  "vout": [
    {
      "scriptpubkey": "0014782d09a4c42b87290940972479bcc0e19c1a2c2f",
      "scriptpubkey_asm": "OP_0 OP_PUSHBYTES_20 782d09a4c42b87290940972479bcc0e19c1a2c2f",
      "scriptpubkey_type": "v0_p2wpkh",
      "scriptpubkey_address": "bc1q0qksnfxy9wrjjz2qjuj8n0xquxwp5tp0fuhecc",
      "value": 54424
    },
    {
      "scriptpubkey": "a914ea812a7b3623a49537d7962b2857c4c1ea0b381387",
      "scriptpubkey_asm": "OP_HASH160 OP_PUSHBYTES_20 ea812a7b3623a49537d7962b2857c4c1ea0b3813 OP_EQUAL",
      "scriptpubkey_type": "p2sh",
      "scriptpubkey_address": "3P4xn3DmpwgDs5x8PU8J4z7AkgFvcd38Mo",
      "value": 90000000
    }
  ],
  "size": 1112,
  "weight": 2192,
  "fee": 14846,
  "status": {
    "confirmed": true,
    "block_height": 834638,
    "block_hash": "000000000000000000025f742c626208ac87e0b7d15054abb4a19ca2d735a54e",
    "block_time": 1710405325
  },
  "hex": "0100000000010758bf8bb8ee8b7f0d2b5bffb901e5add6e144092f526fbb1f5102bd89aae95a130c00000000fdffffff7484f8d942157960565d5f9f51cf66286198c1491af39f77f4122c8d308e30190000000000fdffffffb4ffe7918d26567458b72cc9fa900a5633828df7269e63598f01da1efc7085480200000000fdffffff6cf08c3da271f2b8860ccacef8f23f808f5456e363894218d97aae3aace8624f0000000000fdfffffff5854425bac565a42dd8cfc204a2ec81225781d61f00f201e40d5e0c7e6f5e690000000000fdffffff668dd1bfdcd667df39064113210ea3715266bf3eb86f7e644807ace187d379c10100000000fdffffff0a1ce0d129fa2b357d40e9190c7279025bcddddd7e8b07ee7f1d722788c839f80000000000fdffffff0298d4000000000000160014782d09a4c42b87290940972479bcc0e19c1a2c2f804a5d050000000017a914ea812a7b3623a49537d7962b2857c4c1ea0b38138702483045022100d9abd06f6966aca286e099392d07235a971689763c4cdc0480166810fa10532e02207314e540ef132b96c3be8254e15d124e6a5822a43ca302d54e39e036d9ae17cc0121020cbe1bfd7853f5aa67bce351985088f3aec72f77f3227aab81ca1833fea98ae60247304402201795fe37d67220be663b7349f85a0864b2cb3b3c751408cfdac7837542e194d202206f1d99ee20ee237a51ce81aabbb0d8cb7817932d1a145e9a9b803e58d290d3c70121031ad55598aee9c3d5a7affdae0a18519fa5373949ffc643c548ad5db129e352cd0247304402204aebe9180b1461b41df8ba172b67ee78624f3cf33c29b0d71b9f9dbf4825c1e1022043506c692c2f30ce15a5282aaff8424e30402237224f49facbde858e7e46a46901210229ebe076d35940a8951fa595d97bf2ed3dc2746fbb59ebda33b5b21cac7845ed024730440220264032bf33c27ef5c48cf2f61fa7d2a86199ef7f9128d07e51f25d742dfd1eef022005859cfedbe514700273c62937a9c0cf345eb2b48913a029b4b3966337234d62012103cc5592ce2b21ccd6968daa4a35237895fd4a3796f323215276bc43583259dba002473044022014a378e331fe5a1dc625cad7f9dde15585a754f5e337681072ec18078cfbe4ef0220125e680554d4a49108ef565af5eca46581f243d212f5f2896a4d3f9884c7a5af01210287e01bc8a48801c081a143378ba37e6a7583f8fdd926629f1bfb418d89f22d200247304402204f6f3033aa6b68a819349e57c7cc50dd7a1b5652fa6a0cf82b06c9934c0687930220200153fe963c2161e5f31031be597cde9094f920b5e96a13295ed368c80ac23d012103ddf1db61e42458ff2201198c7027788b403964e409747bc65515514feebdf48f02473044022060a19aa7ffcbff5499237a01e9ed10d4be218b01e9cee38417969fb0fe52e06e0220564899861b37b7661efd49acb08a3ae4473f39b4494aa2bb03e7ffdf158d4a4b012102d5e9727c9d1abece9ca368b201d981322766e106c41d7ceedb36717070500eeb00000000"
}