{
  "txid": "4562c14eee738de09fbddbd313289cd51f11ad81951be73a6c49a7fd2c10fe3e",
  "version": 1,
  "locktime": 0,
  "vin": [
    {
      "txid": "b0639f5a577e969e9e25884b751f6be29ea87f5ab51271a3a0a4e743e3503b9b",
      "vout": 1,
      "prevout": {
        "scriptpubkey": "001426ba4c601f2c8183b9e75477119bb2fb85862c04",
        "scriptpubkey_asm": "OP_0 OP_PUSHBYTES_20 26ba4c601f2c8183b9e75477119bb2fb85862c04",
        "scriptpubkey_type": "v0_p2wpkh",
        "scriptpubkey_address": "bc1qy6ayccql9jqc8w0823m3rxajlwzcvtqydfcu4a",
        "value": 49672
      },
      "scriptsig": "",
      "scriptsig_asm": "",
      "witness": [
        "304402201707fd7350f2181323e07216729204024f18c8bff580c25798fc076ed67ae2840220678777c50b7602ceaf0a32e75be4dcfd7be69ec10290f19dc6f18ab241f501e001",
        "03efb68976639e5f21eabc4d723bde06b68ba42114a11bd9bc5dabd9ab2db8decf"
      ],
      "is_coinbase": false,
      "sequence": 4294967295
    }
  ],
  "vout": [
    {
      "scriptpubkey": "00140cf108bfaba024618557919c13840966770337c4",
      "scriptpubkey_asm": "OP_0 OP_PUSHBYTES_20 0cf108bfaba024618557919c13840966770337c4",
      "scriptpubkey_type": "v0_p2wpkh",
      "scriptpubkey_address": "bc1qpncs30at5qjxrp2hjxwp8pqfvemsxd7y3ltcyq",
      "value": 46993
    }
  ],
  "size": 191,
  "weight": 437,
  "fee": 2679,
  "status": {
    "confirmed": true,
    "block_height": 834638,
    "block_hash": "000000000000000000025f742c626208ac87e0b7d15054abb4a19ca2d735a54e",
    "block_time": 1710405325
  },
  "hex": "010000000001019b3b50e343e7a4a0a37112b55a7fa89ee26b1f754b88259e9e967e575a9f63b00100000000ffffffff0191b70000000000001600140cf108bfaba024618557919c13840966770337c40247304402201707fd7350f2181323e07216729204024f18c8bff580c25798fc076ed67ae2840220678777c50b7602ceaf0a32e75be4dcfd7be69ec10290f19dc6f18ab241f501e0012103efb68976639e5f21eabc4d723bde06b68ba42114a11bd9bc5dabd9ab2db8decf00000000"
}