{
  "txid": "457f85e29fcc3b8f031277e7e4666f6d805ca9993fc2f0c023ba1bf391385639",
  "version": 1,
  "locktime": 0,
  "vin": [
    {
      "txid": "f15c8f4a6bc84d7686400a270eccc68f9ecf2f74bd71c808eead7f9e961f95aa",
      "vout": 3,
      "prevout": {
        "scriptpubkey": "00148cfdf7009a8e329806ee3536c512bcfd60c58ef8",
        "scriptpubkey_asm": "OP_0 OP_PUSHBYTES_20 8cfdf7009a8e329806ee3536c512bcfd60c58ef8",
        "scriptpubkey_type": "v0_p2wpkh",
        "scriptpubkey_address": "bc1q3n7lwqy63cefsphwx5mv2y4ul4svtrhcn43u3c",
        "value": 1363853
      },
      "scriptsig": "",
      "scriptsig_asm": "",
      "witness": [
        "3044022019353d8a198c2d6a4d83f7167883c74c7d1ae3df6e95e7ba05b56e14e90ea41602202bc7c42c3c88708bfefb1732ce3ca00b2488add4b04ddade7196d7b691bf8f1d01",
        "02418dadde3700ac2db27e8d44f55bb5ae8e49f7a23b91169e60fbbfb6d19fa54f"
      ],
      "is_coinbase": false,
      "sequence": 4294967293
    },
    {
      "txid": "cea3b25e2147e4eb72e91a44e2125076de0e1a9ca3e54f296ad0e8a3ccf6919f",
      "vout": 1,
      "prevout": {
        "scriptpubkey": "00143d586625ce8c3c729172955ef9a06f8ae633a26f",
        "scriptpubkey_asm": "OP_0 OP_PUSHBYTES_20 3d586625ce8c3c729172955ef9a06f8ae633a26f",
        "scriptpubkey_type": "v0_p2wpkh",
        "scriptpubkey_address": "bc1q84vxvfww3s789ytjj400ngr03tnr8gn0d6jf60",
        "value": 822481
      },
      "scriptsig": "",
      "scriptsig_asm": "",
      "witness": [
        "30450221008cd2205db9aa8d21ac8dc40132fa71ecfb67fa73ec0307d91c61044485c117c802200b9f851a1a3f67956130c5e0ada46a3448142f665194f76cf7574d1e02d9391f01",
        "02ace7135433071a9b8609d19fdfefc0d48af08c4eef91b27f970ba9b0075d614c"
      ],
      "is_coinbase": false,
      "sequence": 4294967293
    },
    {
      "txid": "ebc44ee90619fe3a8164ce6ea8781b5e5264e3aaa088eaec56316e1f2e1d2f4f",
      "vout": 16,
      "prevout": {
        "scriptpubkey": "0014acbe77a9d9025e5d999fd20534059755666606ad",
        "scriptpubkey_asm": "OP_0 OP_PUSHBYTES_20 acbe77a9d9025e5d999fd20534059755666606ad",
        "scriptpubkey_type": "v0_p2wpkh",
        "scriptpubkey_address": "bc1q4jl802weqf09mxvl6gzngpvh24nxvp4dachedr",
        "value": 407954
      },
      "scriptsig": "",
      "scriptsig_asm": "",
      "witness": [
        "30450221009311ff6e70bcf1ab6529566956e03e2adbfe85e6fdb2e55c44124bc0ed6f4c30022035ee836938ad6cdf51eabd3d332011ba82d5dbf04829dc94b58f98d328cd1b7f01",
        "02b4f70cfd714cb83204d003398b6a4269b76fce0eef218a5eaba559b189086e78"
      ],
      "is_coinbase": false,
      "sequence": 4294967293
    }
  ],
  "vout": [
    {
      "scriptpubkey": "a9149f61b3b558d20d268167f1b43defa352511ca62d87",
      "scriptpubkey_asm": "OP_HASH160 OP_PUSHBYTES_20 9f61b3b558d20d268167f1b43defa352511ca62d OP_EQUAL",
      "scriptpubkey_type": "p2sh",
      "scriptpubkey_address": "3GDkQVpnPbKFevgDsgrz6KhHWSkjLxr6c5",
      "value": 2586844
    }
  ],
  "size": 490,
  "weight": 985,
  "fee": 7444,
  "status": {
    "confirmed": true,
    "block_height": 834638,
    "block_hash": "000000000000000000025f742c626208ac87e0b7d15054abb4a19ca2d735a54e",
    "block_time": 1710405325
  },
  "hex": "01000000000103aa951f969e7fadee08c871bd742fcf9e8fc6cc0e270a4086764dc86b4a8f5cf10300000000fdffffff9f91f6cca3e8d06a294fe5a39c1a0ede765012e2441ae972ebe447215eb2a3ce0100000000fdffffff4f2f1d2e1f6e3156ecea88a0aae364525e1b78a86ece64813afe1906e94ec4eb1000000000fdffffff01dc7827000000000017a9149f61b3b558d20d268167f1b43defa352511ca62d8702473044022019353d8a198c2d6a4d83f7167883c74c7d1ae3df6e95e7ba05b56e14e90ea41602202bc7c42c3c88708bfefb1732ce3ca00b2488add4b04ddade7196d7b691bf8f1d012102418dadde3700ac2db27e8d44f55bb5ae8e49f7a23b91169e60fbbfb6d19fa54f024830450221008cd2205db9aa8d21ac8dc40132fa71ecfb67fa73ec0307d91c61044485c117c802200b9f851a1a3f67956130c5e0ada46a3448142f665194f76cf7574d1e02d9391f012102ace7135433071a9b8609d19fdfefc0d48af08c4eef91b27f970ba9b0075d614c024830450221009311ff6e70bcf1ab6529566956e03e2adbfe85e6fdb2e55c44124bc0ed6f4c30022035ee836938ad6cdf51eabd3d332011ba82d5dbf04829dc94b58f98d328cd1b7f012102b4f70cfd714cb83204d003398b6a4269b76fce0eef218a5eaba559b189086e7800000000"
}