{
  "txid": "45a091a735aa1be3efa3ad89fd1d044b3fef4fdbff6148c7a9e24b1cd1048d89",
  "version": 2,
  "locktime": 0,
  "vin": [
    {
      "txid": "333b0006b5e3c0358d8272c2f9ac1242aaf6640bc95dafaf093462acf0d8d3ba",
      "vout": 0,
      "prevout": {
        "scriptpubkey": "0014a94f2507da3a6d13883a7b04216f7565a6f04d2a",
        "scriptpubkey_asm": "OP_0 OP_PUSHBYTES_20 a94f2507da3a6d13883a7b04216f7565a6f04d2a",
        "scriptpubkey_type": "v0_p2wpkh",
        "scriptpubkey_address": "bc1q498j2p768fk38zp60vzzzmm4vkn0qnf2h6jmcp",
        "value": 1410853
      },
      "scriptsig": "",
      "scriptsig_asm": "",
      "witness": [
        "3045022100c634ce434d64deec25fe25a93e412e81db98d8c2c090ded78f6ed54f1f2dd4700220780c55b7820cabec2af86d51ec7098484f2c30ed73f4091e7c8762b3c90cc7fe01",
        "03c54b5fa2540b6aee0df074641d221540c44fd646c416c8b40944fd7a53f58096"
      ],
      "is_coinbase": false,
      "sequence": 4294967295
    },
    {
      "txid": "5026ef7d668ed8ae68ca41ea14678088ad20995c0dffb5e5c19ea86213dc03e3",
      "vout": 0,
      "prevout": {
        "scriptpubkey": "0014a94f2507da3a6d13883a7b04216f7565a6f04d2a",
        "scriptpubkey_asm": "OP_0 OP_PUSHBYTES_20 a94f2507da3a6d13883a7b04216f7565a6f04d2a",
        "scriptpubkey_type": "v0_p2wpkh",
        "scriptpubkey_address": "bc1q498j2p768fk38zp60vzzzmm4vkn0qnf2h6jmcp",
        "value": 662522
      },
      "scriptsig": "",
      "scriptsig_asm": "",
      "witness": [
        "30450221009136ed141b10968e7885afd2c938a01b9f7c61e8b709243674a822ebc0007f730220573f10df69af8bda2d16f214199dd858b051c4b06565108acacc7d16ce6ef66f01",
        "03c54b5fa2540b6aee0df074641d221540c44fd646c416c8b40944fd7a53f58096"
      ],
      "is_coinbase": false,
      "sequence": 4294967295
    },
    {
      "txid": "54fd90713165869826c661e9a797458b99ed78e2665754c4be407d5f6ebadde7",
      "vout": 0,
      "prevout": {
        "scriptpubkey": "0014a94f2507da3a6d13883a7b04216f7565a6f04d2a",
        "scriptpubkey_asm": "OP_0 OP_PUSHBYTES_20 a94f2507da3a6d13883a7b04216f7565a6f04d2a",
        "scriptpubkey_type": "v0_p2wpkh",
        "scriptpubkey_address": "bc1q498j2p768fk38zp60vzzzmm4vkn0qnf2h6jmcp",
        "value": 700274
      },
      "scriptsig": "",
      "scriptsig_asm": "",
      "witness": [
        "3045022100eef4b24560605a341745f367f25f51435721358b846971154c9790ebb769c34202200a7705445c6a8207a95c7ad15e5268da585cb069ced72f0d0e19d80e6a22661401",
        "03c54b5fa2540b6aee0df074641d221540c44fd646c416c8b40944fd7a53f58096"
      ],
      "is_coinbase": false,
      "sequence": 4294967295
    },
    {
      "txid": "a170b3b4a9457bd5e0a104e3ffc091913bb71e95547204fbde22d671ff193444",
      "vout": 0,
      "prevout": {
        "scriptpubkey": "0014a94f2507da3a6d13883a7b04216f7565a6f04d2a",
        "scriptpubkey_asm": "OP_0 OP_PUSHBYTES_20 a94f2507da3a6d13883a7b04216f7565a6f04d2a",
        "scriptpubkey_type": "v0_p2wpkh",
        "scriptpubkey_address": "bc1q498j2p768fk38zp60vzzzmm4vkn0qnf2h6jmcp",
        "value": 2958616
      },
      "scriptsig": "",
      "scriptsig_asm": "",
      "witness": [
        "3045022100d7ea1e57a1660baecb5916c5e78b9646e1d03c3e29f6263bd15be606b0ae9b4402204a40ca6b7be3cf0dde6cdf98e928dcc3eb99adce061c3004dcb89e39bec3609d01",
        "03c54b5fa2540b6aee0df074641d221540c44fd646c416c8b40944fd7a53f58096"
      ],
      "is_coinbase": false,
      "sequence": 4294967295
    },
    {
      "txid": "87a4b74ed137e544d8fe5bd8d3849affe0676e7dd362653e475a2ee7c2caf642",
      "vout": 0,
      "prevout": {
        "scriptpubkey": "0014a94f2507da3a6d13883a7b04216f7565a6f04d2a",
        "scriptpubkey_asm": "OP_0 OP_PUSHBYTES_20 a94f2507da3a6d13883a7b04216f7565a6f04d2a",
        "scriptpubkey_type": "v0_p2wpkh",
        "scriptpubkey_address": "bc1q498j2p768fk38zp60vzzzmm4vkn0qnf2h6jmcp",
        "value": 627336
      },
      "scriptsig": "",
      "scriptsig_asm": "",
      "witness": [
        "30450221008394e0d7b6abd06516fb97af69d2fcf652a46ef3798e8e426dd1e088a1dddff1022016a2ae7267976b53bfb5674a412a8990e2969e80e1d40a6322991de2c26db10301",
        "03c54b5fa2540b6aee0df074641d221540c44fd646c416c8b40944fd7a53f58096"
      ],
      "is_coinbase": false,
      "sequence": 4294967295
    },
    {
      "txid": "0f6d5f69824d2457d2579816344c0d0d9153148efe45ff40a96144a480c45996",
      "vout": 0,
      "prevout": {
        "scriptpubkey": "0014a94f2507da3a6d13883a7b04216f7565a6f04d2a",
        "scriptpubkey_asm": "OP_0 OP_PUSHBYTES_20 a94f2507da3a6d13883a7b04216f7565a6f04d2a",
        "scriptpubkey_type": "v0_p2wpkh",
        "scriptpubkey_address": "bc1q498j2p768fk38zp60vzzzmm4vkn0qnf2h6jmcp",
        "value": 3081454
      },
      "scriptsig": "",
      "scriptsig_asm": "",
      "witness": [
        "3044022016ce78d7934defd84ce114ffa507c3695f8f48da949f92462aa6f9141d69a4e8022055f6ee2c06963872866c138c2bab1a819c35c8549649023d785ab46ad99efd9701",
        "03c54b5fa2540b6aee0df074641d221540c44fd646c416c8b40944fd7a53f58096"
      ],
      "is_coinbase": false,
      "sequence": 4294967295
    }
  ],
  "vout": [
    {
      "scriptpubkey": "76a91429457f6e2ffab2c4ce784bf9f5cf68acccf2a7dd88ac",
      "scriptpubkey_asm": "OP_DUP OP_HASH160 OP_PUSHBYTES_20 29457f6e2ffab2c4ce784bf9f5cf68acccf2a7dd OP_EQUALVERIFY OP_CHECKSIG",
      "scriptpubkey_type": "p2pkh",
      "scriptpubkey_address": "14mDxezoarpG5bksEtv2nYXKud5RpwR8T5",
      "value": 6799961
    },
    {
      "scriptpubkey": "0014a94f2507da3a6d13883a7b04216f7565a6f04d2a",
      "scriptpubkey_asm": "OP_0 OP_PUSHBYTES_20 a94f2507da3a6d13883a7b04216f7565a6f04d2a",
      "scriptpubkey_type": "v0_p2wpkh",
      "scriptpubkey_address": "bc1q498j2p768fk38zp60vzzzmm4vkn0qnf2h6jmcp",
      "value": 2632276
    }
  ],
  "size": 970,
  "weight": 1933,
  "fee": 8818,
  "status": {
    "confirmed": true,
    "block_height": 834638,
    "block_hash": "000000000000000000025f742c626208ac87e0b7d15054abb4a19ca2d735a54e",
    "block_time": 1710405325
  },
  "hex": "02000000000106bad3d8f0ac623409afaf5dc90b64f6aa4212acf9c272828d35c0e3b506003b330000000000ffffffffe303dc1362a89ec1e5b5ff0d5c9920ad88806714ea41ca68aed88e667def26500000000000ffffffffe7ddba6e5f7d40bec4545766e278ed998b4597a7e961c626988665317190fd540000000000ffffffff443419ff71d622defb047254951eb73b9191c0ffe304a1e0d57b45a9b4b370a10000000000ffffffff42f6cac2e72e5a473e6562d37d6e67e0ff9a84d3d85bfed844e537d14eb7a4870000000000ffffffff9659c480a44461a940ff45fe8e1453910d0d4c34169857d257244d82695f6d0f0000000000ffffffff0259c26700000000001976a91429457f6e2ffab2c4ce784bf9f5cf68acccf2a7dd88ac542a280000000000160014a94f2507da3a6d13883a7b04216f7565a6f04d2a02483045022100c634ce434d64deec25fe25a93e412e81db98d8c2c090ded78f6ed54f1f2dd4700220780c55b7820cabec2af86d51ec7098484f2c30ed73f4091e7c8762b3c90cc7fe012103c54b5fa2540b6aee0df074641d221540c44fd646c416c8b40944fd7a53f58096024830450221009136ed141b10968e7885afd2c938a01b9f7c61e8b709243674a822ebc0007f730220573f10df69af8bda2d16f214199dd858b051c4b06565108acacc7d16ce6ef66f012103c54b5fa2540b6aee0df074641d221540c44fd646c416c8b40944fd7a53f5809602483045022100eef4b24560605a341745f367f25f51435721358b846971154c9790ebb769c34202200a7705445c6a8207a95c7ad15e5268da585cb069ced72f0d0e19d80e6a226614012103c54b5fa2540b6aee0df074641d221540c44fd646c416c8b40944fd7a53f5809602483045022100d7ea1e57a1660baecb5916c5e78b9646e1d03c3e29f6263bd15be606b0ae9b4402204a40ca6b7be3cf0dde6cdf98e928dcc3eb99adce061c3004dcb89e39bec3609d012103c54b5fa2540b6aee0df074641d221540c44fd646c416c8b40944fd7a53f58096024830450221008394e0d7b6abd06516fb97af69d2fcf652a46ef3798e8e426dd1e088a1dddff1022016a2ae7267976b53bfb5674a412a8990e2969e80e1d40a6322991de2c26db103012103c54b5fa2540b6aee0df074641d221540c44fd646c416c8b40944fd7a53f5809602473044022016ce78d7934defd84ce114ffa507c3695f8f48da949f92462aa6f9141d69a4e8022055f6ee2c06963872866c138c2bab1a819c35c8549649023d785ab46ad99efd97012103c54b5fa2540b6aee0df074641d221540c44fd646c416c8b40944fd7a53f5809600000000"
}