{
  "txid": "45a1202be80712aaeedaff1bddfa1ee3a897e874f3a1c88350b91d9223dacd87",
  "version": 2,
  "locktime": 0,
  "vin": [
    {
      "txid": "4756be54b15a82cc944c8ad3f4cf9bb3e5abca3b3588a7d44e3a869da9ed6bcf",
      "vout": 1,
      "prevout": {
        "scriptpubkey": "0014ed1c2256854a2c50d79a189b2f84d47c9ff7c240",
        "scriptpubkey_asm": "OP_0 OP_PUSHBYTES_20 ed1c2256854a2c50d79a189b2f84d47c9ff7c240",
        "scriptpubkey_type": "v0_p2wpkh",
        "scriptpubkey_address": "bc1qa5wzy459fgk9p4u6rzdjlpx50j0l0sjqmmew0x",
        "value": 696975
      },
      "scriptsig": "",
      "scriptsig_asm": "",
      "witness": [
        "3045022100f51ed0ab4b68aac379c787db2d9d19e614b85cc9b473d00e83c8cbf94845491502201d923db3c8769a1648230609f2d30f3c8ae9ce0edfbc63b41fededc9ef7cea6f01",
        "02ed03bde5956e02dc7f3ad8f31308efe4c1aacfec7714f26ff4923b5d2c922efb"
      ],
      "is_coinbase": false,
      "sequence": 0
    },
    {
      "txid": "1275e67363297ee75458d113edcf4785589999299104e3e3ff61907675838464",
      "vout": 1,
      "prevout": {
        "scriptpubkey": "0014337da32fb1090a53e6c48240fb93caf330932b63",
        "scriptpubkey_asm": "OP_0 OP_PUSHBYTES_20 337da32fb1090a53e6c48240fb93caf330932b63",
        "scriptpubkey_type": "v0_p2wpkh",
        "scriptpubkey_address": "bc1qxd76xta3py998ekysfq0hy727vcfx2mryvlul5",
        "value": 275524
      },
      "scriptsig": "",
      "scriptsig_asm": "",
      "witness": [
        "3045022100eb4c8eeaf9bb877b5d54ffb819f76453044cbaa9101c039a30d2d204dccd33a50220409bcf07f5e2df23c7db23f11d6c5897c9753ad31f87c8db53f22ce00455763001",
        "023d4bfca5fff3401c09f57b0e22d154ece6a36487d1713f67578cf48c36d08000"
      ],
      "is_coinbase": false,
      "sequence": 0
    },
    {
      "txid": "c28db50fd3d282fe70335e74b86cb6d0517fcea0ca21f6b4e1e1715023664e95",
      "vout": 1,
      "prevout": {
        "scriptpubkey": "0014f7813c2f1f1a544a4d28dccff3ef4723a1b16178",
        "scriptpubkey_asm": "OP_0 OP_PUSHBYTES_20 f7813c2f1f1a544a4d28dccff3ef4723a1b16178",
        "scriptpubkey_type": "v0_p2wpkh",
        "scriptpubkey_address": "bc1q77qnctclrf2y5nfgmn8l8m68ywsmzctcn49z8h",
        "value": 1107300
      },
      "scriptsig": "",
      "scriptsig_asm": "",
      "witness": [
        "3045022100a24b72b9af9ed63baae78fd2f7730f26350062e7ffcd0629c8baa7fd9958001d02203f12997588709edbfe2c0e1a9d406411eef080043f3ee8a435ac4ce2f1e0eeae01",
        "035fe38bb5555a23a2d3839225e33efe3f4b58d299c0c0364539da3f074743b2d9"
      ],
      "is_coinbase": false,
      "sequence": 0
    }
  ],
  "vout": [
    {
      "scriptpubkey": "a9145f01624d009fb991be2a32c98b3aa81a9e10bfa287",
      "scriptpubkey_asm": "OP_HASH160 OP_PUSHBYTES_20 5f01624d009fb991be2a32c98b3aa81a9e10bfa2 OP_EQUAL",
      "scriptpubkey_type": "p2sh",
      "scriptpubkey_address": "3AMMmvpfV8o6DoqZUCo6gbB7nHwsxDEGru",
      "value": 2075353
    }
  ],
  "size": 491,
  "weight": 986,
  "fee": 4446,
  "status": {
    "confirmed": true,
    "block_height": 834638,
    "block_hash": "000000000000000000025f742c626208ac87e0b7d15054abb4a19ca2d735a54e",
    "block_time": 1710405325
  },
  "hex": "02000000000103cf6beda99d863a4ed4a788353bcaabe5b39bcff4d38a4c94cc825ab154be564701000000000000000064848375769061ffe3e30491299999588547cfed13d15854e77e296373e67512010000000000000000954e66235071e1e1b4f621caa0ce7f51d0b66cb8745e3370fe82d2d30fb58dc201000000000000000001d9aa1f000000000017a9145f01624d009fb991be2a32c98b3aa81a9e10bfa28702483045022100f51ed0ab4b68aac379c787db2d9d19e614b85cc9b473d00e83c8cbf94845491502201d923db3c8769a1648230609f2d30f3c8ae9ce0edfbc63b41fededc9ef7cea6f012102ed03bde5956e02dc7f3ad8f31308efe4c1aacfec7714f26ff4923b5d2c922efb02483045022100eb4c8eeaf9bb877b5d54ffb819f76453044cbaa9101c039a30d2d204dccd33a50220409bcf07f5e2df23c7db23f11d6c5897c9753ad31f87c8db53f22ce0045576300121023d4bfca5fff3401c09f57b0e22d154ece6a36487d1713f67578cf48c36d0800002483045022100a24b72b9af9ed63baae78fd2f7730f26350062e7ffcd0629c8baa7fd9958001d02203f12997588709edbfe2c0e1a9d406411eef080043f3ee8a435ac4ce2f1e0eeae0121035fe38bb5555a23a2d3839225e33efe3f4b58d299c0c0364539da3f074743b2d900000000"
}