{
  "txid": "45bbf42aa168acf58ea7d101a6c3bc6bf306b9ab5c7673bd0eaab1948bcf005e",
  "version": 2,
  "locktime": 0,
  "vin": [
    {
      "txid": "acc3ba00869acb582a3f2904ce3a11dd3779350ce234063fc7d0959246213364",
      "vout": 227,
      "prevout": {
        "scriptpubkey": "51204c6f5889a8180b52d547e4434cc1e664543bca6220212ea54cc6d61ffd3cd281",
        "scriptpubkey_asm": "OP_PUSHNUM_1 OP_PUSHBYTES_32 4c6f5889a8180b52d547e4434cc1e664543bca6220212ea54cc6d61ffd3cd281",
        "scriptpubkey_type": "v1_p2tr",
        "scriptpubkey_address": "bc1pf3h43zdgrq949428u3p5es0xv32rhjnzyqsjaf2vcmtpllfu62qs5flhat",
        "value": 1806
      },
      "scriptsig": "",
      "scriptsig_asm": "",
      "witness": [
        "c8878e65a5d83f51ed22cc5b31bfb13b94ad62413ad6a8d862c8ccd695cb70d51175f78ccea3d53ccd7a7ebac0315c6dbcf4dd35ac65abde295114838cf63888",
        "200258926d80b4f51f45597ff742ce07ab45d413babe4457186b65b48287154767ac0063036f726401010a746578742f706c61696e00357b2270223a226272632d3230222c226f70223a226d696e74222c227469636b223a22646f6765222c22616d74223a2234323030227d68",
        "c10258926d80b4f51f45597ff742ce07ab45d413babe4457186b65b48287154767"
      ],
      "is_coinbase": false,
      "sequence": 4261412863
    }
  ],
  "vout": [
    {
      "scriptpubkey": "00147a665de7a370f4c9b372ab1fae587500a5bcbdb4",
      "scriptpubkey_asm": "OP_0 OP_PUSHBYTES_20 7a665de7a370f4c9b372ab1fae587500a5bcbdb4",
      "scriptpubkey_type": "v0_p2wpkh",
      "scriptpubkey_address": "bc1q0fn9mearwr6vnvmj4v06ukr4qzjme0d565dzcx",
      "value": 294
    }
  ],
  "size": 294,
  "weight": 540,
  "fee": 1512,
  "status": {
    "confirmed": true,
    "block_height": 834460,
    "block_hash": "00000000000000000000484a79b643b2524bbce82e5d8a442013fa5b8905ed98",
    "block_time": 1710307468
  },
  "hex": "02000000000101643321469295d0c73f0634e20c357937dd113ace04293f2a58cb9a8600bac3ace300000000fffffffd0126010000000000001600147a665de7a370f4c9b372ab1fae587500a5bcbdb40340c8878e65a5d83f51ed22cc5b31bfb13b94ad62413ad6a8d862c8ccd695cb70d51175f78ccea3d53ccd7a7ebac0315c6dbcf4dd35ac65abde295114838cf638886d200258926d80b4f51f45597ff742ce07ab45d413babe4457186b65b48287154767ac0063036f726401010a746578742f706c61696e00357b2270223a226272632d3230222c226f70223a226d696e74222c227469636b223a22646f6765222c22616d74223a2234323030227d6821c10258926d80b4f51f45597ff742ce07ab45d413babe4457186b65b4828715476700000000"
}