{
  "txid": "45eb2e3ca7c3da8382684412a7eca888eeea8dcac7bab4fc791248675af414cd",
  "version": 2,
  "locktime": 0,
  "vin": [
    {
      "txid": "e054c137725b7a5d163dade8f5cd68c0927a2e8b00d920927dab9a7ba934ce5f",
      "vout": 22,
      "prevout": {
        "scriptpubkey": "51200a89c823362dc327bf8b5667c4ffdcced9b152716ebab1a0d6f70049f72c9333",
        "scriptpubkey_asm": "OP_PUSHNUM_1 OP_PUSHBYTES_32 0a89c823362dc327bf8b5667c4ffdcced9b152716ebab1a0d6f70049f72c9333",
        "scriptpubkey_type": "v1_p2tr",
        "scriptpubkey_address": "bc1pp2yusgek9hpj00ut2enufl7uemvmz5n3d6atrgxk7uqynaevjveskq8nva",
        "value": 2658
      },
      "scriptsig": "",
      "scriptsig_asm": "",
      "witness": [
        "ea07c591bbd8c619214d2453547d9f2a12801c3c2744808221cfd78d3741efa5f8069317a2144ad1ac70a034173a654826f5dbbc20273ba6a894f33743e56494",
        "20c7b39fc8f86e2d207ae74b37cb6d23e83f924ac3ceb1d71d55ac5f4e01843b26ac0063036f726401011e6170706c69636174696f6e2f6a736f6e3b636861727365743d7574662d38004cbf7b2270223a22706f772d3230222c226f70223a226d696e74222c227469636b223a2250455045222c22616d74223a2231303030222c22736f6c7574696f6e223a22504550453a6263317139736a36303977756e7468646a636d7a746a796379766475616e653071716b78726e773932653a303030303030303030303030303030303030303139393431613561653132383937363539383134343239323533333030353762306461393666336465613163353a3236323032373235373237227d68",
        "c1a0e509a599b6542378e5ac7959d344a1bebc95ec9899fd4ccf1904beefe3f047"
      ],
      "is_coinbase": false,
      "sequence": 4294967295
    }
  ],
  "vout": [
    {
      "scriptpubkey": "00142c25a795dc9aeed963625c898231bcecf2f002c6",
      "scriptpubkey_asm": "OP_0 OP_PUSHBYTES_20 2c25a795dc9aeed963625c898231bcecf2f002c6",
      "scriptpubkey_type": "v0_p2wpkh",
      "scriptpubkey_address": "bc1q9sj609wunthdjcmztjycyvduane0qqkxrnw92e",
      "value": 546
    }
  ],
  "size": 455,
  "weight": 701,
  "fee": 2112,
  "status": {
    "confirmed": true,
    "block_height": 834460,
    "block_hash": "00000000000000000000484a79b643b2524bbce82e5d8a442013fa5b8905ed98",
    "block_time": 1710307468
  },
  "hex": "020000000001015fce34a97b9aab7d9220d9008b2e7a92c068cdf5e8ad3d165d7a5b7237c154e01600000000ffffffff0122020000000000001600142c25a795dc9aeed963625c898231bcecf2f002c60340ea07c591bbd8c619214d2453547d9f2a12801c3c2744808221cfd78d3741efa5f8069317a2144ad1ac70a034173a654826f5dbbc20273ba6a894f33743e56494fd0c0120c7b39fc8f86e2d207ae74b37cb6d23e83f924ac3ceb1d71d55ac5f4e01843b26ac0063036f726401011e6170706c69636174696f6e2f6a736f6e3b636861727365743d7574662d38004cbf7b2270223a22706f772d3230222c226f70223a226d696e74222c227469636b223a2250455045222c22616d74223a2231303030222c22736f6c7574696f6e223a22504550453a6263317139736a36303977756e7468646a636d7a746a796379766475616e653071716b78726e773932653a303030303030303030303030303030303030303139393431613561653132383937363539383134343239323533333030353762306461393666336465613163353a3236323032373235373237227d6821c1a0e509a599b6542378e5ac7959d344a1bebc95ec9899fd4ccf1904beefe3f04700000000"
}