{
  "txid": "45f0668ec21a795ab579de46d99cd4e4cd4c11cdecc3df1e1ab13a708cc45c0a",
  "version": 2,
  "locktime": 0,
  "vin": [
    {
      "txid": "8486ecb4df0880316dd6e82b3971b4df187aff23765bc3a47f8d78bb53aa273c",
      "vout": 26,
      "prevout": {
        "scriptpubkey": "51204a3cdf186dd2ac7bb0ca544dfd8265957753bbe9cc190cebfbce7e1630e26e75",
        "scriptpubkey_asm": "OP_PUSHNUM_1 OP_PUSHBYTES_32 4a3cdf186dd2ac7bb0ca544dfd8265957753bbe9cc190cebfbce7e1630e26e75",
        "scriptpubkey_type": "v1_p2tr",
        "scriptpubkey_address": "bc1pfg7d7xrd62k8hvx223xlmqn9j4m48wlfesvse6lmeelpvv8zde6swukkgn",
        "value": 2575
      },
      "scriptsig": "",
      "scriptsig_asm": "",
      "witness": [
        "d1787751fcea542d270ad728c39c17616f89268580c9e6d815314e6af04ad2b1b46a28f01d6e1a0510087cfc7ebe299ff6b2b00d8992c6fd4dc1d0a666d8d7c1",
        "209425ea41eaefee1c5524088b1d24ea2c5d622ebac4a34bea3d4a5e7dfe8fa41cac0063036f726401010a746578742f706c61696e00367b2270223a226272632d3230222c226f70223a226d696e74222c227469636b223a2261616161222c22616d74223a223130303030227d68",
        "c09425ea41eaefee1c5524088b1d24ea2c5d622ebac4a34bea3d4a5e7dfe8fa41c"
      ],
      "is_coinbase": false,
      "sequence": 4261412863
    }
  ],
  "vout": [
    {
      "scriptpubkey": "0014ddd7ef12ea6f78edcc1e8e7afa12c01ab59f3339",
      "scriptpubkey_asm": "OP_0 OP_PUSHBYTES_20 ddd7ef12ea6f78edcc1e8e7afa12c01ab59f3339",
      "scriptpubkey_type": "v0_p2wpkh",
      "scriptpubkey_address": "bc1qmht77yh2dauwmnq73ea05ykqr26e7veea8spz6",
      "value": 546
    }
  ],
  "size": 295,
  "weight": 541,
  "fee": 2029,
  "status": {
    "confirmed": true,
    "block_height": 834460,
    "block_hash": "00000000000000000000484a79b643b2524bbce82e5d8a442013fa5b8905ed98",
    "block_time": 1710307468
  },
  "hex": "020000000001013c27aa53bb788d7fa4c35b7623ff7a18dfb471392be8d66d318008dfb4ec86841a00000000fffffffd012202000000000000160014ddd7ef12ea6f78edcc1e8e7afa12c01ab59f33390340d1787751fcea542d270ad728c39c17616f89268580c9e6d815314e6af04ad2b1b46a28f01d6e1a0510087cfc7ebe299ff6b2b00d8992c6fd4dc1d0a666d8d7c16e209425ea41eaefee1c5524088b1d24ea2c5d622ebac4a34bea3d4a5e7dfe8fa41cac0063036f726401010a746578742f706c61696e00367b2270223a226272632d3230222c226f70223a226d696e74222c227469636b223a2261616161222c22616d74223a223130303030227d6821c09425ea41eaefee1c5524088b1d24ea2c5d622ebac4a34bea3d4a5e7dfe8fa41c00000000"
}