{
  "txid": "45fd9ce410be565a54dadd68a305497badbb911c7d107e585a616de51f62d35d",
  "version": 2,
  "locktime": 0,
  "vin": [
    {
      "txid": "ceff4a54a91b178083eeaefcd6559783b080bc6c278bb21c5e1a1ae2a37ce50b",
      "vout": 0,
      "prevout": {
        "scriptpubkey": "001438adc887f047e25107f837a28e67265760eeb3e6",
        "scriptpubkey_asm": "OP_0 OP_PUSHBYTES_20 38adc887f047e25107f837a28e67265760eeb3e6",
        "scriptpubkey_type": "v0_p2wpkh",
        "scriptpubkey_address": "bc1q8zku3plsgl39zplcx73gueex2aswavlxtjua2f",
        "value": 255955
      },
      "scriptsig": "",
      "scriptsig_asm": "",
      "witness": [
        "3045022100da9322e44db174b7b61aee7a277576c7d4bd8512c5e4ab25bda6c039e58a2d83022060e6c430071acef42fe209651b9ff7e898bd34d82bf905f1609aa3a429f201b601",
        "024a304ff64044c0919c6355f2cc8b9acfd5fdf511502f4e6722024f775f1b15d6"
      ],
      "is_coinbase": false,
      "sequence": 4294967293
    }
  ],
  "vout": [
    {
      "scriptpubkey": "001438adc887f047e25107f837a28e67265760eeb3e6",
      "scriptpubkey_asm": "OP_0 OP_PUSHBYTES_20 38adc887f047e25107f837a28e67265760eeb3e6",
      "scriptpubkey_type": "v0_p2wpkh",
      "scriptpubkey_address": "bc1q8zku3plsgl39zplcx73gueex2aswavlxtjua2f",
      "value": 246328
    },
    {
      "scriptpubkey": "00144bab01c45e9545e31ae21f2a28e2d96520c337a5",
      "scriptpubkey_asm": "OP_0 OP_PUSHBYTES_20 4bab01c45e9545e31ae21f2a28e2d96520c337a5",
      "scriptpubkey_type": "v0_p2wpkh",
      "scriptpubkey_address": "bc1qfw4sr3z7j4z7xxhzru4z3ckev5svxda9y8a237",
      "value": 8097
    }
  ],
  "size": 223,
  "weight": 562,
  "fee": 1530,
  "status": {
    "confirmed": true,
    "block_height": 834464,
    "block_hash": "0000000000000000000177a0869a911a2b65c9bdcd5a8bcb02b68f305bee848e",
    "block_time": 1710308296
  },
  "hex": "020000000001010be57ca3e21a1a5e1cb28b276cbc80b0839755d6fcaeee8380171ba9544affce0000000000fdffffff0238c203000000000016001438adc887f047e25107f837a28e67265760eeb3e6a11f0000000000001600144bab01c45e9545e31ae21f2a28e2d96520c337a502483045022100da9322e44db174b7b61aee7a277576c7d4bd8512c5e4ab25bda6c039e58a2d83022060e6c430071acef42fe209651b9ff7e898bd34d82bf905f1609aa3a429f201b60121024a304ff64044c0919c6355f2cc8b9acfd5fdf511502f4e6722024f775f1b15d600000000"
}