{
  "txid": "460c9063932bff4e6eac0a04feedda6c251defb84cf4ff457e372eb2fcc2e339",
  "version": 2,
  "locktime": 0,
  "vin": [
    {
      "txid": "acc3ba00869acb582a3f2904ce3a11dd3779350ce234063fc7d0959246213364",
      "vout": 130,
      "prevout": {
        "scriptpubkey": "512060eb7e4189def1492d07b2564d3742e84cef1527e3917fabeb24092cd28a79b0",
        "scriptpubkey_asm": "OP_PUSHNUM_1 OP_PUSHBYTES_32 60eb7e4189def1492d07b2564d3742e84cef1527e3917fabeb24092cd28a79b0",
        "scriptpubkey_type": "v1_p2tr",
        "scriptpubkey_address": "bc1pvr4husvfmmc5jtg8kfty6d6zapxw79f8uwghl2ltysyje5520xcq9tugjq",
        "value": 1806
      },
      "scriptsig": "",
      "scriptsig_asm": "",
      "witness": [
        "3b42b7d37e3a3a25eaa2bf8d0404bf6634f60506f53740f03ab47f28109b2ffb15653da5fb058e7ca8a909843f7cc15ed9ee6998065b68ddc8c90bbad8ec0e7e",
        "20355b516473767d4dc48ded9b2fe6c7238fe7a76d08db793d06b82eaa2b399f15ac0063036f726401010a746578742f706c61696e00357b2270223a226272632d3230222c226f70223a226d696e74222c227469636b223a22646f6765222c22616d74223a2234323030227d68",
        "c0355b516473767d4dc48ded9b2fe6c7238fe7a76d08db793d06b82eaa2b399f15"
      ],
      "is_coinbase": false,
      "sequence": 4261412863
    }
  ],
  "vout": [
    {
      "scriptpubkey": "00147a665de7a370f4c9b372ab1fae587500a5bcbdb4",
      "scriptpubkey_asm": "OP_0 OP_PUSHBYTES_20 7a665de7a370f4c9b372ab1fae587500a5bcbdb4",
      "scriptpubkey_type": "v0_p2wpkh",
      "scriptpubkey_address": "bc1q0fn9mearwr6vnvmj4v06ukr4qzjme0d565dzcx",
      "value": 294
    }
  ],
  "size": 294,
  "weight": 540,
  "fee": 1512,
  "status": {
    "confirmed": true,
    "block_height": 834460,
    "block_hash": "00000000000000000000484a79b643b2524bbce82e5d8a442013fa5b8905ed98",
    "block_time": 1710307468
  },
  "hex": "02000000000101643321469295d0c73f0634e20c357937dd113ace04293f2a58cb9a8600bac3ac8200000000fffffffd0126010000000000001600147a665de7a370f4c9b372ab1fae587500a5bcbdb403403b42b7d37e3a3a25eaa2bf8d0404bf6634f60506f53740f03ab47f28109b2ffb15653da5fb058e7ca8a909843f7cc15ed9ee6998065b68ddc8c90bbad8ec0e7e6d20355b516473767d4dc48ded9b2fe6c7238fe7a76d08db793d06b82eaa2b399f15ac0063036f726401010a746578742f706c61696e00357b2270223a226272632d3230222c226f70223a226d696e74222c227469636b223a22646f6765222c22616d74223a2234323030227d6821c0355b516473767d4dc48ded9b2fe6c7238fe7a76d08db793d06b82eaa2b399f1500000000"
}