{
  "txid": "461570b1d4894e0eaef5db795ec75726a0305808104be67e3022ac55eac6159c",
  "version": 1,
  "locktime": 0,
  "vin": [
    {
      "txid": "f6b45d25d00205ac83b8bd4eb55a17f3dac64c96e1b795999260b0f37c92696f",
      "vout": 0,
      "prevout": {
        "scriptpubkey": "76a914c456441c8d01aa53f10d451123b4bf4fb37ffd1688ac",
        "scriptpubkey_asm": "OP_DUP OP_HASH160 OP_PUSHBYTES_20 c456441c8d01aa53f10d451123b4bf4fb37ffd16 OP_EQUALVERIFY OP_CHECKSIG",
        "scriptpubkey_type": "p2pkh",
        "scriptpubkey_address": "1Ju8nUFC7C3tRhZ2LRQD3wX7Yft1VbGMQq",
        "value": 2831222
      },
      "scriptsig": "473044022059d82fc75354206b1e83400df6b5eca598a515010450e4599d373af0135b8d4902201d2ee693a6c9ac7ea2246eedbd4e76f6e6554b2d38074fb8b6ac150a6f932d19012103054378c53bca8cbf72ac5caf4a8b30d30d1e35f70b79003a762a7452624222bf",
      "scriptsig_asm": "OP_PUSHBYTES_71 3044022059d82fc75354206b1e83400df6b5eca598a515010450e4599d373af0135b8d4902201d2ee693a6c9ac7ea2246eedbd4e76f6e6554b2d38074fb8b6ac150a6f932d1901 OP_PUSHBYTES_33 03054378c53bca8cbf72ac5caf4a8b30d30d1e35f70b79003a762a7452624222bf",
      "is_coinbase": false,
      "sequence": 4294967295
    }
  ],
  "vout": [
    {
      "scriptpubkey": "76a9145e9f489fbb1c37097b1392cee56dee9866d52af288ac",
      "scriptpubkey_asm": "OP_DUP OP_HASH160 OP_PUSHBYTES_20 5e9f489fbb1c37097b1392cee56dee9866d52af2 OP_EQUALVERIFY OP_CHECKSIG",
      "scriptpubkey_type": "p2pkh",
      "scriptpubkey_address": "19dKLFtTHNjBM2rwnqWs1v7ipEqiwYLVFL",
      "value": 2827382
    }
  ],
  "size": 191,
  "weight": 764,
  "fee": 3840,
  "status": {
    "confirmed": true,
    "block_height": 834464,
    "block_hash": "0000000000000000000177a0869a911a2b65c9bdcd5a8bcb02b68f305bee848e",
    "block_time": 1710308296
  },
  "hex": "01000000016f69927cf3b060929995b7e1964cc6daf3175ab54ebdb883ac0502d0255db4f6000000006a473044022059d82fc75354206b1e83400df6b5eca598a515010450e4599d373af0135b8d4902201d2ee693a6c9ac7ea2246eedbd4e76f6e6554b2d38074fb8b6ac150a6f932d19012103054378c53bca8cbf72ac5caf4a8b30d30d1e35f70b79003a762a7452624222bfffffffff0176242b00000000001976a9145e9f489fbb1c37097b1392cee56dee9866d52af288ac00000000"
}