{
  "txid": "46214fdef4207c98b4c38a99f64ecc5f1a080643c01e264276cfd5b16876a43b",
  "version": 2,
  "locktime": 0,
  "vin": [
    {
      "txid": "b79b09fb572d54eddcbaf25894462b79499fac515adee8d810df922895b35227",
      "vout": 0,
      "prevout": {
        "scriptpubkey": "5120d50f571be89961ed517f031d06f733b8c61aca5aac364e0314397aa2bafcf989",
        "scriptpubkey_asm": "OP_PUSHNUM_1 OP_PUSHBYTES_32 d50f571be89961ed517f031d06f733b8c61aca5aac364e0314397aa2bafcf989",
        "scriptpubkey_type": "v1_p2tr",
        "scriptpubkey_address": "bc1p6584wxlgn9s765tlqvwsdaenhrrp4jj64smyuqc589a29whulxys9vt7jj",
        "value": 3330
      },
      "scriptsig": "",
      "scriptsig_asm": "",
      "witness": [
        "3f1e8ac088ae40a99a667a0823e5ed735dff2aaf347eaef60dc7cc089b187f44b956bb5339f00883d74aafde2b557890b6e861120a49c6495b926a5d583ae2b0",
        "207f591a142c5e423d7ae330dd3affe4fd6a2f78e1e18e0ec06e7f9f6b09d04e9aac0063036f726401010d696d6167652f7376672b786d6c004cba3c7376672076696577426f783d2230203020313030203130302220786d6c6e733d22687474703a2f2f7777772e77332e6f72672f323030302f737667223e3c696d616765206865696768743d2231303025222077696474683d22313030252220687265663d222f636f6e74656e742f363332396162393839616235393561333063613763663938336432336539303666336438313437663766393561653932373237393063376336336634616230646930222f3e3c2f7376673e68",
        "c07f591a142c5e423d7ae330dd3affe4fd6a2f78e1e18e0ec06e7f9f6b09d04e9a"
      ],
      "is_coinbase": false,
      "sequence": 4294967293
    }
  ],
  "vout": [
    {
      "scriptpubkey": "5120d0d544de1133230444c43da4f825765c91f584397b8a66d7d88e3d99690ecf12",
      "scriptpubkey_asm": "OP_PUSHNUM_1 OP_PUSHBYTES_32 d0d544de1133230444c43da4f825765c91f584397b8a66d7d88e3d99690ecf12",
      "scriptpubkey_type": "v1_p2tr",
      "scriptpubkey_address": "bc1p6r25fhs3xv3sg3xy8kj0sftktjgltppe0w9xd47c3c7ej6gweufqecyzhw",
      "value": 600
    }
  ],
  "size": 443,
  "weight": 725,
  "fee": 2730,
  "status": {
    "confirmed": true,
    "block_height": 834460,
    "block_hash": "00000000000000000000484a79b643b2524bbce82e5d8a442013fa5b8905ed98",
    "block_time": 1710307468
  },
  "hex": "020000000001012752b3952892df10d8e8de5a51ac9f49792b469458f2badced542d57fb099bb70000000000fdffffff015802000000000000225120d0d544de1133230444c43da4f825765c91f584397b8a66d7d88e3d99690ecf1203403f1e8ac088ae40a99a667a0823e5ed735dff2aaf347eaef60dc7cc089b187f44b956bb5339f00883d74aafde2b557890b6e861120a49c6495b926a5d583ae2b0f6207f591a142c5e423d7ae330dd3affe4fd6a2f78e1e18e0ec06e7f9f6b09d04e9aac0063036f726401010d696d6167652f7376672b786d6c004cba3c7376672076696577426f783d2230203020313030203130302220786d6c6e733d22687474703a2f2f7777772e77332e6f72672f323030302f737667223e3c696d616765206865696768743d2231303025222077696474683d22313030252220687265663d222f636f6e74656e742f363332396162393839616235393561333063613763663938336432336539303666336438313437663766393561653932373237393063376336336634616230646930222f3e3c2f7376673e6821c07f591a142c5e423d7ae330dd3affe4fd6a2f78e1e18e0ec06e7f9f6b09d04e9a00000000"
}