{
  "txid": "463618c9d140a1647c57ec49ede38ba1f9448c766c4311f4de107460e2876e74",
  "version": 2,
  "locktime": 0,
  "vin": [
    {
      "txid": "b411e382677154e62eaccb2d686a1d5b18458e23e1a6dc2218657f1b38cc7bff",
      "vout": 1,
      "prevout": {
        "scriptpubkey": "00141cee1ce1f052dc25fcd86489f28e0da67b515cb5",
        "scriptpubkey_asm": "OP_0 OP_PUSHBYTES_20 1cee1ce1f052dc25fcd86489f28e0da67b515cb5",
        "scriptpubkey_type": "v0_p2wpkh",
        "scriptpubkey_address": "bc1qrnhpec0s2twztlxcvjyl9rsd5ea4zh94rvzaup",
        "value": 681106
      },
      "scriptsig": "",
      "scriptsig_asm": "",
      "witness": [
        "304402205223f0e2f227ca3ebb2070b300a81ae8542e2a22430928c3813cc22c1ea3dd34022079bdb6650497b79334e6b06d808a4d652c3a3a8bbddeae55aa38ac237862cc4a01",
        "026790eee9f486ff1f5724056dc8c8e9469f22292d996178e2a49b0210ae0724a0"
      ],
      "is_coinbase": false,
      "sequence": 4294967293
    }
  ],
  "vout": [
    {
      "scriptpubkey": "00149bd7a920af1fbb42a23f8e7b5f7b3415d427e03f",
      "scriptpubkey_asm": "OP_0 OP_PUSHBYTES_20 9bd7a920af1fbb42a23f8e7b5f7b3415d427e03f",
      "scriptpubkey_type": "v0_p2wpkh",
      "scriptpubkey_address": "bc1qn0t6jg90r7a59g3l3ea477e5zh2z0cplsjg3l4",
      "value": 272200
    },
    {
      "scriptpubkey": "001449fa603beb844029ba00fb71085a020c8563c842",
      "scriptpubkey_asm": "OP_0 OP_PUSHBYTES_20 49fa603beb844029ba00fb71085a020c8563c842",
      "scriptpubkey_type": "v0_p2wpkh",
      "scriptpubkey_address": "bc1qf8axqwlts3qznwsqldcsskszpjzk8jzz949e8k",
      "value": 404442
    }
  ],
  "size": 222,
  "weight": 561,
  "fee": 4464,
  "status": {
    "confirmed": true,
    "block_height": 834638,
    "block_hash": "000000000000000000025f742c626208ac87e0b7d15054abb4a19ca2d735a54e",
    "block_time": 1710405325
  },
  "hex": "02000000000101ff7bcc381b7f651822dca6e1238e45185b1d6a682dcbac2ee654716782e311b40100000000fdffffff0248270400000000001600149bd7a920af1fbb42a23f8e7b5f7b3415d427e03fda2b06000000000016001449fa603beb844029ba00fb71085a020c8563c8420247304402205223f0e2f227ca3ebb2070b300a81ae8542e2a22430928c3813cc22c1ea3dd34022079bdb6650497b79334e6b06d808a4d652c3a3a8bbddeae55aa38ac237862cc4a0121026790eee9f486ff1f5724056dc8c8e9469f22292d996178e2a49b0210ae0724a000000000"
}