{
  "txid": "463f0da046415fda3a49d52738fdad88bca8c30d94d644027e3cc043c72e4eba",
  "version": 2,
  "locktime": 834637,
  "vin": [
    {
      "txid": "ee4ad1afce4141b78ac310def0f73e2c0320332e5475fccb9ddf5adb1170204a",
      "vout": 0,
      "prevout": {
        "scriptpubkey": "0014ea966830da7e2ca9afaec58c203f70b049534456",
        "scriptpubkey_asm": "OP_0 OP_PUSHBYTES_20 ea966830da7e2ca9afaec58c203f70b049534456",
        "scriptpubkey_type": "v0_p2wpkh",
        "scriptpubkey_address": "bc1qa2txsvx60ck2ntawckxzq0mskpy4x3zkjvzgny",
        "value": 84525212
      },
      "scriptsig": "",
      "scriptsig_asm": "",
      "witness": [
        "30440220747d9df022897bf080532ec7d7b18b1b06b1a22cf6e0d3e625aff42bf3f4d3d602200ae73fe9881b629197037402c1d5218e18e0acd39df85f15e62e495afdf2b50f01",
        "02737889923077d142486b6c390205d75563a63babd9c4d750a00b0babff9a1e3f"
      ],
      "is_coinbase": false,
      "sequence": 4294967294
    }
  ],
  "vout": [
    {
      "scriptpubkey": "0014e35780f5a27c068d05072d340c776b9e654637ae",
      "scriptpubkey_asm": "OP_0 OP_PUSHBYTES_20 e35780f5a27c068d05072d340c776b9e654637ae",
      "scriptpubkey_type": "v0_p2wpkh",
      "scriptpubkey_address": "bc1qudtcpadz0srg6pg8956qcamtnej5vdawc29krj",
      "value": 13251100
    },
    {
      "scriptpubkey": "001445352527d8cb27d638a282db575f0439ee1024f6",
      "scriptpubkey_asm": "OP_0 OP_PUSHBYTES_20 45352527d8cb27d638a282db575f0439ee1024f6",
      "scriptpubkey_type": "v0_p2wpkh",
      "scriptpubkey_address": "bc1qg56j2f7cevnavw9zstd4whcy88hpqf8kk7wh04",
      "value": 71270306
    }
  ],
  "size": 222,
  "weight": 561,
  "fee": 3806,
  "status": {
    "confirmed": true,
    "block_height": 834638,
    "block_hash": "000000000000000000025f742c626208ac87e0b7d15054abb4a19ca2d735a54e",
    "block_time": 1710405325
  },
  "hex": "020000000001014a207011db5adf9dcbfc75542e3320032c3ef7f0de10c38ab74141ceafd14aee0000000000feffffff021c32ca0000000000160014e35780f5a27c068d05072d340c776b9e654637aea27f3f040000000016001445352527d8cb27d638a282db575f0439ee1024f6024730440220747d9df022897bf080532ec7d7b18b1b06b1a22cf6e0d3e625aff42bf3f4d3d602200ae73fe9881b629197037402c1d5218e18e0acd39df85f15e62e495afdf2b50f012102737889923077d142486b6c390205d75563a63babd9c4d750a00b0babff9a1e3f4dbc0c00"
}