{
  "txid": "4651b78a941d1428530d8c198d2e689a7a3b630019e75dea624cbcb547a8c1aa",
  "version": 2,
  "locktime": 834637,
  "vin": [
    {
      "txid": "65b8d22960e35b4a7282d4d36fb546c16da9504447d91edd2f2d198b3a00a6c9",
      "vout": 0,
      "prevout": {
        "scriptpubkey": "001440ec2844548730126d2f099e81b1c5b086df5db3",
        "scriptpubkey_asm": "OP_0 OP_PUSHBYTES_20 40ec2844548730126d2f099e81b1c5b086df5db3",
        "scriptpubkey_type": "v0_p2wpkh",
        "scriptpubkey_address": "bc1qgrkzs3z5sucpymf0px0grvw9kzrd7hdnu5v2zd",
        "value": 532816319
      },
      "scriptsig": "",
      "scriptsig_asm": "",
      "witness": [
        "304402207256565dc025d5ad8dbfa6c81134767650596cbe026cbee4f910f53f423d9dc302200f531c83492de61ddd3daba2d4e10f058cca03af41a9016b9814856e7f0e53e501",
        "03711c1d262c877a7aa95d33c6c7ac809ff7e51916eed74c88a3bffdf1cacc08af"
      ],
      "is_coinbase": false,
      "sequence": 4294967294
    }
  ],
  "vout": [
    {
      "scriptpubkey": "00140bc67028fd66f7c789def9d0820fa1787debf121",
      "scriptpubkey_asm": "OP_0 OP_PUSHBYTES_20 0bc67028fd66f7c789def9d0820fa1787debf121",
      "scriptpubkey_type": "v0_p2wpkh",
      "scriptpubkey_address": "bc1qp0r8q28avmmu0zw7l8ggyrap0p77hufpne4p47",
      "value": 31276200
    },
    {
      "scriptpubkey": "001494cdd84d049887d392ea150f1398aa552ee117e8",
      "scriptpubkey_asm": "OP_0 OP_PUSHBYTES_20 94cdd84d049887d392ea150f1398aa552ee117e8",
      "scriptpubkey_type": "v0_p2wpkh",
      "scriptpubkey_address": "bc1qjnxasngynzra8yh2z5838x9225hwz9lggckjyf",
      "value": 501536313
    }
  ],
  "size": 222,
  "weight": 561,
  "fee": 3806,
  "status": {
    "confirmed": true,
    "block_height": 834638,
    "block_hash": "000000000000000000025f742c626208ac87e0b7d15054abb4a19ca2d735a54e",
    "block_time": 1710405325
  },
  "hex": "02000000000101c9a6003a8b192d2fdd1ed9474450a96dc146b56fd3d482724a5be36029d2b8650000000000feffffff02a83cdd01000000001600140bc67028fd66f7c789def9d0820fa1787debf12139d6e41d0000000016001494cdd84d049887d392ea150f1398aa552ee117e80247304402207256565dc025d5ad8dbfa6c81134767650596cbe026cbee4f910f53f423d9dc302200f531c83492de61ddd3daba2d4e10f058cca03af41a9016b9814856e7f0e53e5012103711c1d262c877a7aa95d33c6c7ac809ff7e51916eed74c88a3bffdf1cacc08af4dbc0c00"
}