{
  "txid": "465c0c2fc67577ea72fed03c703b20088c9e8b20cbf319f2e3ecfc992a458c48",
  "version": 1,
  "locktime": 0,
  "vin": [
    {
      "txid": "fde37474d3ad8d6278af9b14997b9ed16a5df7b46935f23dfb7281bb5004d7e7",
      "vout": 42,
      "prevout": {
        "scriptpubkey": "0014aad192cde229902deec26697cd289fade175229b",
        "scriptpubkey_asm": "OP_0 OP_PUSHBYTES_20 aad192cde229902deec26697cd289fade175229b",
        "scriptpubkey_type": "v0_p2wpkh",
        "scriptpubkey_address": "bc1q4tge9n0z9xgzmmkzv6tu62yl4hsh2g5mslnqjy",
        "value": 128037
      },
      "scriptsig": "",
      "scriptsig_asm": "",
      "witness": [
        "3045022100e9044b51d80c049e38c26a6e4bce02dceb8491c396accf18992dd773e23f8e9402206250831e9f7c6fbd41f3ccf0929cfcd30c53d69f1b7ff780bfb4e32c4705899501",
        "03ec410ce2e626e741da278806e787d3f90ae1fc94d19a4a6465fa22d29ab88367"
      ],
      "is_coinbase": false,
      "sequence": 4294967293
    },
    {
      "txid": "dad72ac9a9f5ba6d937abc39b9ca8fc2cb2cbb6addb5f8861883b66c37137089",
      "vout": 13,
      "prevout": {
        "scriptpubkey": "0014245700b746bf7e3786ed58922090cd602206d2f5",
        "scriptpubkey_asm": "OP_0 OP_PUSHBYTES_20 245700b746bf7e3786ed58922090cd602206d2f5",
        "scriptpubkey_type": "v0_p2wpkh",
        "scriptpubkey_address": "bc1qy3tspd6xhalr0phdtzfzpyxdvq3qd5h40eqdyj",
        "value": 118720
      },
      "scriptsig": "",
      "scriptsig_asm": "",
      "witness": [
        "304402206da45914ce7579d5cba88f1c9adb740bec0dfff38f394064952ad7eaa415ee3e0220390b537f82044605a98e9d43d0e9094710991bacef5a75b867a765f08905a79c01",
        "0313f9d5797c6d70efd677b5c04760e0704f4008b8600676f173b010c8a69b9e1a"
      ],
      "is_coinbase": false,
      "sequence": 4294967293
    },
    {
      "txid": "405092bab1ab87816eec06b7b070f6c04c30f4811934db0ea978ec860a9deb4e",
      "vout": 64,
      "prevout": {
        "scriptpubkey": "0014449081daaa2f67495481b5564dfbef03e1cd173b",
        "scriptpubkey_asm": "OP_0 OP_PUSHBYTES_20 449081daaa2f67495481b5564dfbef03e1cd173b",
        "scriptpubkey_type": "v0_p2wpkh",
        "scriptpubkey_address": "bc1qgjggrk429an5j4ypk4tym7l0q0su69emwfem8e",
        "value": 117894
      },
      "scriptsig": "",
      "scriptsig_asm": "",
      "witness": [
        "30440220587d60a18dc7eafb29b90a51a04752cb4f508dcc20988443aa69806662aa9ae802207de0d71896362ec1fc478e7d3dc91ec2104ba5b8d277e9264aa921a50fff16ee01",
        "02aa34274cfb5c0e9168b389245bc4c4a960ffc4716af14ff04d808d3b7134bdd8"
      ],
      "is_coinbase": false,
      "sequence": 4294967293
    },
    {
      "txid": "cd6141a292ae56c6897a65ca19a4083275c50c3beab2f8cfac2a1bfea1f00623",
      "vout": 1,
      "prevout": {
        "scriptpubkey": "00145cdbbebc305538e9beb2f5463be01a4eb20fa804",
        "scriptpubkey_asm": "OP_0 OP_PUSHBYTES_20 5cdbbebc305538e9beb2f5463be01a4eb20fa804",
        "scriptpubkey_type": "v0_p2wpkh",
        "scriptpubkey_address": "bc1qtndma0ps25uwn04j74rrhcq6f6eql2qy20j07d",
        "value": 110809
      },
      "scriptsig": "",
      "scriptsig_asm": "",
      "witness": [
        "30440220542f093da39f744af08e5c9b993ca34f98095cd7574c67b764c61776ee8edaea022037f97b9026c893eebe77bb649582c6329c746e52a2f2bfbd88a307e5e7b6fb0601",
        "03f909945015b88d248ea71bb13e155592e6f270012d8c920160a52784309d58a0"
      ],
      "is_coinbase": false,
      "sequence": 4294967293
    },
    {
      "txid": "e14c44f1eef1133d0b75f992e32a356a87d5bd6122b182e0c9d98897b5458f48",
      "vout": 41,
      "prevout": {
        "scriptpubkey": "00149a37b697cb60128d37251a21e5f1d945448eacdb",
        "scriptpubkey_asm": "OP_0 OP_PUSHBYTES_20 9a37b697cb60128d37251a21e5f1d945448eacdb",
        "scriptpubkey_type": "v0_p2wpkh",
        "scriptpubkey_address": "bc1qngmmd97tvqfg6de9rgs7tuweg4zgatxmfap7k4",
        "value": 109333
      },
      "scriptsig": "",
      "scriptsig_asm": "",
      "witness": [
        "3045022100acc3ef8fdb2ae4de0641ceb50bf990299f947383a4e4bd794b3e567e40d9520002204442e1d915582b43c38af9c40a766a615f056df36e96dd49d4690925f2ac8fc001",
        "0239efaf7e1fd4f935c77be9906ffe179af2ca0b3b4a0f0130b6f615d379260418"
      ],
      "is_coinbase": false,
      "sequence": 4294967293
    },
    {
      "txid": "1e7de7516dae78a40b00c28197dec0ad119815fc13748c98e3d14a9d6f45f1f7",
      "vout": 17,
      "prevout": {
        "scriptpubkey": "00148acc38abe2e2ba8881af3a2467cb9e54c6eae496",
        "scriptpubkey_asm": "OP_0 OP_PUSHBYTES_20 8acc38abe2e2ba8881af3a2467cb9e54c6eae496",
        "scriptpubkey_type": "v0_p2wpkh",
        "scriptpubkey_address": "bc1q3txr32lzu2ag3qd08gjx0ju72nrw4eyk3zjjsf",
        "value": 109297
      },
      "scriptsig": "",
      "scriptsig_asm": "",
      "witness": [
        "3045022100e4fc4241d3fe6ecc506a577492f146461f2dd96a87f0838b24763d1286feb9d202205190e893fbb9ea85333af827293aa1000e95631e11a6cef62980f7c19893d6ae01",
        "03bab7a744471c431e08b01b7e4039ac47adf4f3c047bdf08be9396b18fe3678b2"
      ],
      "is_coinbase": false,
      "sequence": 4294967293
    }
  ],
  "vout": [
    {
      "scriptpubkey": "a914864907a853099d8d674e80bb6821e0e0ce65018287",
      "scriptpubkey_asm": "OP_HASH160 OP_PUSHBYTES_20 864907a853099d8d674e80bb6821e0e0ce650182 OP_EQUAL",
      "scriptpubkey_type": "p2sh",
      "scriptpubkey_address": "3Dw3xTRCJrMRLra5AKrka9odYKG7Uz6pfV",
      "value": 680530
    }
  ],
  "size": 935,
  "weight": 1799,
  "fee": 13560,
  "status": {
    "confirmed": true,
    "block_height": 834638,
    "block_hash": "000000000000000000025f742c626208ac87e0b7d15054abb4a19ca2d735a54e",
    "block_time": 1710405325
  },
  "hex": "01000000000106e7d70450bb8172fb3df23569b4f75d6ad19e7b99149baf78628dadd37474e3fd2a00000000fdffffff897013376cb6831886f8b5dd6abb2ccbc28fcab939bc7a936dbaf5a9c92ad7da0d00000000fdffffff4eeb9d0a86ec78a90edb341981f4304cc0f670b0b706ec6e8187abb1ba9250404000000000fdffffff2306f0a1fe1b2aaccff8b2ea3b0cc5753208a419ca657a89c656ae92a24161cd0100000000fdffffff488f45b59788d9c9e082b12261bdd5876a352ae392f9750b3d13f1eef1444ce12900000000fdfffffff7f1456f9d4ad1e3988c7413fc159811adc0de9781c2000ba478ae6d51e77d1e1100000000fdffffff0152620a000000000017a914864907a853099d8d674e80bb6821e0e0ce6501828702483045022100e9044b51d80c049e38c26a6e4bce02dceb8491c396accf18992dd773e23f8e9402206250831e9f7c6fbd41f3ccf0929cfcd30c53d69f1b7ff780bfb4e32c47058995012103ec410ce2e626e741da278806e787d3f90ae1fc94d19a4a6465fa22d29ab883670247304402206da45914ce7579d5cba88f1c9adb740bec0dfff38f394064952ad7eaa415ee3e0220390b537f82044605a98e9d43d0e9094710991bacef5a75b867a765f08905a79c01210313f9d5797c6d70efd677b5c04760e0704f4008b8600676f173b010c8a69b9e1a024730440220587d60a18dc7eafb29b90a51a04752cb4f508dcc20988443aa69806662aa9ae802207de0d71896362ec1fc478e7d3dc91ec2104ba5b8d277e9264aa921a50fff16ee012102aa34274cfb5c0e9168b389245bc4c4a960ffc4716af14ff04d808d3b7134bdd8024730440220542f093da39f744af08e5c9b993ca34f98095cd7574c67b764c61776ee8edaea022037f97b9026c893eebe77bb649582c6329c746e52a2f2bfbd88a307e5e7b6fb06012103f909945015b88d248ea71bb13e155592e6f270012d8c920160a52784309d58a002483045022100acc3ef8fdb2ae4de0641ceb50bf990299f947383a4e4bd794b3e567e40d9520002204442e1d915582b43c38af9c40a766a615f056df36e96dd49d4690925f2ac8fc001210239efaf7e1fd4f935c77be9906ffe179af2ca0b3b4a0f0130b6f615d37926041802483045022100e4fc4241d3fe6ecc506a577492f146461f2dd96a87f0838b24763d1286feb9d202205190e893fbb9ea85333af827293aa1000e95631e11a6cef62980f7c19893d6ae012103bab7a744471c431e08b01b7e4039ac47adf4f3c047bdf08be9396b18fe3678b200000000"
}