{
  "txid": "466d3c25cb2b98cd0cf5c4a543a9937f37964df34c81993234f4d785853f7e42",
  "version": 2,
  "locktime": 0,
  "vin": [
    {
      "txid": "8486ecb4df0880316dd6e82b3971b4df187aff23765bc3a47f8d78bb53aa273c",
      "vout": 117,
      "prevout": {
        "scriptpubkey": "5120f0c12c0c5e9fb1d994536a0fa2fc522cc6033b29fbc6b4704684f6ea51f95091",
        "scriptpubkey_asm": "OP_PUSHNUM_1 OP_PUSHBYTES_32 f0c12c0c5e9fb1d994536a0fa2fc522cc6033b29fbc6b4704684f6ea51f95091",
        "scriptpubkey_type": "v1_p2tr",
        "scriptpubkey_address": "bc1p7rqjcrz7n7can9zndg869lzj9nrqxwefl0rtguzxsnmw550e2zgsg2ldrk",
        "value": 2575
      },
      "scriptsig": "",
      "scriptsig_asm": "",
      "witness": [
        "c6cc9dca94462a5cf335ac796e3b75cec62da1467431795407b30c4a4ac7bc5887ca546d13a9bd01ed1002e22c1e274cd4afb097e386a8f5fa0603beee0c23c2",
        "2024b6705552e439e6b872434e2b6fabc290ba23579f3f5f9f0fdf745632ee6ee0ac0063036f726401010a746578742f706c61696e00367b2270223a226272632d3230222c226f70223a226d696e74222c227469636b223a2261616161222c22616d74223a223130303030227d68",
        "c024b6705552e439e6b872434e2b6fabc290ba23579f3f5f9f0fdf745632ee6ee0"
      ],
      "is_coinbase": false,
      "sequence": 4261412863
    }
  ],
  "vout": [
    {
      "scriptpubkey": "0014ddd7ef12ea6f78edcc1e8e7afa12c01ab59f3339",
      "scriptpubkey_asm": "OP_0 OP_PUSHBYTES_20 ddd7ef12ea6f78edcc1e8e7afa12c01ab59f3339",
      "scriptpubkey_type": "v0_p2wpkh",
      "scriptpubkey_address": "bc1qmht77yh2dauwmnq73ea05ykqr26e7veea8spz6",
      "value": 546
    }
  ],
  "size": 295,
  "weight": 541,
  "fee": 2029,
  "status": {
    "confirmed": true,
    "block_height": 834460,
    "block_hash": "00000000000000000000484a79b643b2524bbce82e5d8a442013fa5b8905ed98",
    "block_time": 1710307468
  },
  "hex": "020000000001013c27aa53bb788d7fa4c35b7623ff7a18dfb471392be8d66d318008dfb4ec86847500000000fffffffd012202000000000000160014ddd7ef12ea6f78edcc1e8e7afa12c01ab59f33390340c6cc9dca94462a5cf335ac796e3b75cec62da1467431795407b30c4a4ac7bc5887ca546d13a9bd01ed1002e22c1e274cd4afb097e386a8f5fa0603beee0c23c26e2024b6705552e439e6b872434e2b6fabc290ba23579f3f5f9f0fdf745632ee6ee0ac0063036f726401010a746578742f706c61696e00367b2270223a226272632d3230222c226f70223a226d696e74222c227469636b223a2261616161222c22616d74223a223130303030227d6821c024b6705552e439e6b872434e2b6fabc290ba23579f3f5f9f0fdf745632ee6ee000000000"
}