{
  "txid": "467eec59564505b2358733cd0d9a91af71f55270c5d7828c3b12e50442c2c16f",
  "version": 2,
  "locktime": 0,
  "vin": [
    {
      "txid": "20ca5a6663a206698661d81de684dda39691e9d433e23b5449c9e93e4e95d64f",
      "vout": 1,
      "prevout": {
        "scriptpubkey": "76a91434afd46f1382c851641358419d3d951254ab5b4588ac",
        "scriptpubkey_asm": "OP_DUP OP_HASH160 OP_PUSHBYTES_20 34afd46f1382c851641358419d3d951254ab5b45 OP_EQUALVERIFY OP_CHECKSIG",
        "scriptpubkey_type": "p2pkh",
        "scriptpubkey_address": "15oamr2QD2Rg4wYzNp4N5JzeE76Z4hsYgU",
        "value": 3796221
      },
      "scriptsig": "47304402203f3aa1f30ef364b27084020235f04caf4f166c4a77feabeb180fc457a5dd2549022037b739c45100da3094a9abd899b2d00d1a379962730b0e3b2c3ac2f4599e7cdd012103060f01e202dfe7a7fdbb39740bcf6bb434184e0bdbbda87d4ed35dd5b9f9b834",
      "scriptsig_asm": "OP_PUSHBYTES_71 304402203f3aa1f30ef364b27084020235f04caf4f166c4a77feabeb180fc457a5dd2549022037b739c45100da3094a9abd899b2d00d1a379962730b0e3b2c3ac2f4599e7cdd01 OP_PUSHBYTES_33 03060f01e202dfe7a7fdbb39740bcf6bb434184e0bdbbda87d4ed35dd5b9f9b834",
      "is_coinbase": false,
      "sequence": 4294967295
    },
    {
      "txid": "72de4927b4bbe59f2e02a849958749092ecf5f6c751348c09404568587ed7cc6",
      "vout": 0,
      "prevout": {
        "scriptpubkey": "76a91434afd46f1382c851641358419d3d951254ab5b4588ac",
        "scriptpubkey_asm": "OP_DUP OP_HASH160 OP_PUSHBYTES_20 34afd46f1382c851641358419d3d951254ab5b45 OP_EQUALVERIFY OP_CHECKSIG",
        "scriptpubkey_type": "p2pkh",
        "scriptpubkey_address": "15oamr2QD2Rg4wYzNp4N5JzeE76Z4hsYgU",
        "value": 1000000
      },
      "scriptsig": "483045022100dbfa1d4c10ae7107ce0cbf7d129b33dd3018f68365c5cca5df09a6e1db41b40e022010ebe9327dc7f561196f8d6aa35c374e54f6afd82616f0a41bc9e6974b63f34d012103060f01e202dfe7a7fdbb39740bcf6bb434184e0bdbbda87d4ed35dd5b9f9b834",
      "scriptsig_asm": "OP_PUSHBYTES_72 3045022100dbfa1d4c10ae7107ce0cbf7d129b33dd3018f68365c5cca5df09a6e1db41b40e022010ebe9327dc7f561196f8d6aa35c374e54f6afd82616f0a41bc9e6974b63f34d01 OP_PUSHBYTES_33 03060f01e202dfe7a7fdbb39740bcf6bb434184e0bdbbda87d4ed35dd5b9f9b834",
      "is_coinbase": false,
      "sequence": 4294967295
    },
    {
      "txid": "5d5942d25c5a5e89c228014b96788331a268d1b477a43ae94c29f61a8aff6390",
      "vout": 0,
      "prevout": {
        "scriptpubkey": "76a91434afd46f1382c851641358419d3d951254ab5b4588ac",
        "scriptpubkey_asm": "OP_DUP OP_HASH160 OP_PUSHBYTES_20 34afd46f1382c851641358419d3d951254ab5b45 OP_EQUALVERIFY OP_CHECKSIG",
        "scriptpubkey_type": "p2pkh",
        "scriptpubkey_address": "15oamr2QD2Rg4wYzNp4N5JzeE76Z4hsYgU",
        "value": 52106
      },
      "scriptsig": "47304402201796cf824fa3c0a63c63d411c7bfc09ee9b6675c8d82b86a88ee547a902e03560220143b9a8dc1e6e24357e4dc8bc8696a934debcc99be97013929ab089e0d45c4eb012103060f01e202dfe7a7fdbb39740bcf6bb434184e0bdbbda87d4ed35dd5b9f9b834",
      "scriptsig_asm": "OP_PUSHBYTES_71 304402201796cf824fa3c0a63c63d411c7bfc09ee9b6675c8d82b86a88ee547a902e03560220143b9a8dc1e6e24357e4dc8bc8696a934debcc99be97013929ab089e0d45c4eb01 OP_PUSHBYTES_33 03060f01e202dfe7a7fdbb39740bcf6bb434184e0bdbbda87d4ed35dd5b9f9b834",
      "is_coinbase": false,
      "sequence": 4294967295
    }
  ],
  "vout": [
    {
      "scriptpubkey": "76a91498b08e7ef20a0563c045902d39145df4ab5a598088ac",
      "scriptpubkey_asm": "OP_DUP OP_HASH160 OP_PUSHBYTES_20 98b08e7ef20a0563c045902d39145df4ab5a5980 OP_EQUALVERIFY OP_CHECKSIG",
      "scriptpubkey_type": "p2pkh",
      "scriptpubkey_address": "1EvMDXbhsE1fF19gEwiCybVBzHPJfjLzHD",
      "value": 4841537
    }
  ],
  "size": 486,
  "weight": 1944,
  "fee": 6790,
  "status": {
    "confirmed": true,
    "block_height": 834460,
    "block_hash": "00000000000000000000484a79b643b2524bbce82e5d8a442013fa5b8905ed98",
    "block_time": 1710307468
  },
  "hex": "02000000034fd6954e3ee9c949543be233d4e99196a3dd84e61dd861866906a263665aca20010000006a47304402203f3aa1f30ef364b27084020235f04caf4f166c4a77feabeb180fc457a5dd2549022037b739c45100da3094a9abd899b2d00d1a379962730b0e3b2c3ac2f4599e7cdd012103060f01e202dfe7a7fdbb39740bcf6bb434184e0bdbbda87d4ed35dd5b9f9b834ffffffffc67ced8785560494c04813756c5fcf2e0949879549a8022e9fe5bbb42749de72000000006b483045022100dbfa1d4c10ae7107ce0cbf7d129b33dd3018f68365c5cca5df09a6e1db41b40e022010ebe9327dc7f561196f8d6aa35c374e54f6afd82616f0a41bc9e6974b63f34d012103060f01e202dfe7a7fdbb39740bcf6bb434184e0bdbbda87d4ed35dd5b9f9b834ffffffff9063ff8a1af6294ce93aa477b4d168a2318378964b0128c2895e5a5cd242595d000000006a47304402201796cf824fa3c0a63c63d411c7bfc09ee9b6675c8d82b86a88ee547a902e03560220143b9a8dc1e6e24357e4dc8bc8696a934debcc99be97013929ab089e0d45c4eb012103060f01e202dfe7a7fdbb39740bcf6bb434184e0bdbbda87d4ed35dd5b9f9b834ffffffff0141e04900000000001976a91498b08e7ef20a0563c045902d39145df4ab5a598088ac00000000"
}