{
  "txid": "46acb486c734c755b5ffac3cebe6a89950ae9f416b712f265e25bb24cd95ef72",
  "version": 2,
  "locktime": 0,
  "vin": [
    {
      "txid": "b13bb5512a4904c28a6b7957b88edf574e8cb23551fc1dcfe22d6b239df42cf4",
      "vout": 83,
      "prevout": {
        "scriptpubkey": "51200e5529a16c0237d9704a6e471feed751294b51e2832f4b8fa6bedd43ac64c3f1",
        "scriptpubkey_asm": "OP_PUSHNUM_1 OP_PUSHBYTES_32 0e5529a16c0237d9704a6e471feed751294b51e2832f4b8fa6bedd43ac64c3f1",
        "scriptpubkey_type": "v1_p2tr",
        "scriptpubkey_address": "bc1ppe2jngtvqgmajuz2der3lmkh2y55k50zsvh5hraxhmw58tryc0csft8wwu",
        "value": 2575
      },
      "scriptsig": "",
      "scriptsig_asm": "",
      "witness": [
        "5aa2206a9f515be41723111ae9e60e1968878b8a899b831d4f5f7584772b2a060eb27c5f2cbe83aa147486c4cc74099b3926ab63825d169cd6debc0253c69fa6",
        "2056b318fdd15ee211fe93e3d56d0de36750d9d58a4697bfe0819353143a1fd3ceac0063036f726401010a746578742f706c61696e00367b2270223a226272632d3230222c226f70223a226d696e74222c227469636b223a2261616161222c22616d74223a223130303030227d68",
        "c156b318fdd15ee211fe93e3d56d0de36750d9d58a4697bfe0819353143a1fd3ce"
      ],
      "is_coinbase": false,
      "sequence": 4261412863
    }
  ],
  "vout": [
    {
      "scriptpubkey": "0014ce0b5aa0dac72397a8aa5a85d90a2cfb46f0f630",
      "scriptpubkey_asm": "OP_0 OP_PUSHBYTES_20 ce0b5aa0dac72397a8aa5a85d90a2cfb46f0f630",
      "scriptpubkey_type": "v0_p2wpkh",
      "scriptpubkey_address": "bc1qec944gx6cu3e0292t2zajz3vldr0pa3sh356d9",
      "value": 546
    }
  ],
  "size": 295,
  "weight": 541,
  "fee": 2029,
  "status": {
    "confirmed": true,
    "block_height": 834464,
    "block_hash": "0000000000000000000177a0869a911a2b65c9bdcd5a8bcb02b68f305bee848e",
    "block_time": 1710308296
  },
  "hex": "02000000000101f42cf49d236b2de2cf1dfc5135b28c4e57df8eb857796b8ac204492a51b53bb15300000000fffffffd012202000000000000160014ce0b5aa0dac72397a8aa5a85d90a2cfb46f0f63003405aa2206a9f515be41723111ae9e60e1968878b8a899b831d4f5f7584772b2a060eb27c5f2cbe83aa147486c4cc74099b3926ab63825d169cd6debc0253c69fa66e2056b318fdd15ee211fe93e3d56d0de36750d9d58a4697bfe0819353143a1fd3ceac0063036f726401010a746578742f706c61696e00367b2270223a226272632d3230222c226f70223a226d696e74222c227469636b223a2261616161222c22616d74223a223130303030227d6821c156b318fdd15ee211fe93e3d56d0de36750d9d58a4697bfe0819353143a1fd3ce00000000"
}