{
  "txid": "46ae20730ec4b6064a25f5f23a35a230f73edbeb359e82f5c01a3eda8db11083",
  "version": 2,
  "locktime": 0,
  "vin": [
    {
      "txid": "0ad82719c5568c4acd81b83e609db57306639901211bd5a5b68a6fc3de4e1473",
      "vout": 11,
      "prevout": {
        "scriptpubkey": "5120479e89d8e6d5f9280a21a655007837695527d97def985a234924ac06f4bff151",
        "scriptpubkey_asm": "OP_PUSHNUM_1 OP_PUSHBYTES_32 479e89d8e6d5f9280a21a655007837695527d97def985a234924ac06f4bff151",
        "scriptpubkey_type": "v1_p2tr",
        "scriptpubkey_address": "bc1pg70gnk8x6hujsz3p5e2sq7phd92j0ktaa7v95g6fyjkqda9l79gsm3r3a7",
        "value": 2834
      },
      "scriptsig": "",
      "scriptsig_asm": "",
      "witness": [
        "8fb4f3cea1d0fe0bc05220a3284356771863e003b5bcc05777851fcd19b09b6630353eedeb4e642a6631d6f45e6c80bac337729a82ef92abe1be8a376964654f",
        "2062e0a5df568c10755aaa51aa937e3ad66823b0fd0724fd301b4f2b608dd7de61ac0063036f726401011e6170706c69636174696f6e2f6a736f6e3b636861727365743d7574662d38004cbf7b2270223a22706f772d3230222c226f70223a226d696e74222c227469636b223a2250455045222c22616d74223a2231303030222c22736f6c7574696f6e223a22504550453a6263317173637064736c337671777466366a733538786832307637717775716839336e777737783763793a303030303030303030303030303030303030303139393431613561653132383937363539383134343239323533333030353762306461393666336465613163353a3438343230353733333433227d68",
        "c0962df30d9be27fcd73fd9a4053b3728334e273f9929aba028483b2e810075667"
      ],
      "is_coinbase": false,
      "sequence": 4294967295
    }
  ],
  "vout": [
    {
      "scriptpubkey": "00148602d87e2c03969d4a1439aea7b3c0770172c66e",
      "scriptpubkey_asm": "OP_0 OP_PUSHBYTES_20 8602d87e2c03969d4a1439aea7b3c0770172c66e",
      "scriptpubkey_type": "v0_p2wpkh",
      "scriptpubkey_address": "bc1qscpdsl3vqwtf6js58xh20v7qwuqh93nww7x7cy",
      "value": 546
    }
  ],
  "size": 455,
  "weight": 701,
  "fee": 2288,
  "status": {
    "confirmed": true,
    "block_height": 834460,
    "block_hash": "00000000000000000000484a79b643b2524bbce82e5d8a442013fa5b8905ed98",
    "block_time": 1710307468
  },
  "hex": "0200000000010173144edec36f8ab6a5d51b210199630673b59d603eb881cd4a8c56c51927d80a0b00000000ffffffff0122020000000000001600148602d87e2c03969d4a1439aea7b3c0770172c66e03408fb4f3cea1d0fe0bc05220a3284356771863e003b5bcc05777851fcd19b09b6630353eedeb4e642a6631d6f45e6c80bac337729a82ef92abe1be8a376964654ffd0c012062e0a5df568c10755aaa51aa937e3ad66823b0fd0724fd301b4f2b608dd7de61ac0063036f726401011e6170706c69636174696f6e2f6a736f6e3b636861727365743d7574662d38004cbf7b2270223a22706f772d3230222c226f70223a226d696e74222c227469636b223a2250455045222c22616d74223a2231303030222c22736f6c7574696f6e223a22504550453a6263317173637064736c337671777466366a733538786832307637717775716839336e777737783763793a303030303030303030303030303030303030303139393431613561653132383937363539383134343239323533333030353762306461393666336465613163353a3438343230353733333433227d6821c0962df30d9be27fcd73fd9a4053b3728334e273f9929aba028483b2e81007566700000000"
}