{
  "txid": "46af53efeedb1cd366dc8d031baef9f893b2f27745ba12096c8d18288486ffeb",
  "version": 2,
  "locktime": 0,
  "vin": [
    {
      "txid": "e2e4b3e050ca4da03d665a3aac60621d7aa2482c64f02f11dcdba754b2092d7c",
      "vout": 0,
      "prevout": {
        "scriptpubkey": "00147e8dc64e212b9796012ab4898e24fa02d042d04e",
        "scriptpubkey_asm": "OP_0 OP_PUSHBYTES_20 7e8dc64e212b9796012ab4898e24fa02d042d04e",
        "scriptpubkey_type": "v0_p2wpkh",
        "scriptpubkey_address": "bc1q06xuvn3p9wtevqf2kjycuf86qtgy95zwncf3fl",
        "value": 19290
      },
      "scriptsig": "",
      "scriptsig_asm": "",
      "witness": [
        "304402200c10a8e9dd7945a73d5569b595248cda13f7e43b453766d4b9c339d17397dc15022020607296cf989fe5511707d8726fea91b0641e32cb53a1ce67e56f0d3e219f2c01",
        "03716b137bec19c05787a0bcf76a519f2b8b07945a29c8a1112478627881dea51e"
      ],
      "is_coinbase": false,
      "sequence": 4294967293
    }
  ],
  "vout": [
    {
      "scriptpubkey": "00143470cb29fa7e51e78c3b8e27b8c70d83ebcad04a",
      "scriptpubkey_asm": "OP_0 OP_PUSHBYTES_20 3470cb29fa7e51e78c3b8e27b8c70d83ebcad04a",
      "scriptpubkey_type": "v0_p2wpkh",
      "scriptpubkey_address": "bc1qx3cvk2060eg70rpm3cnm33cds04u45z29tgxlt",
      "value": 1374
    },
    {
      "scriptpubkey": "0014dd93923b6ac748ce4cffaf2a47c1363167ac5ca5",
      "scriptpubkey_asm": "OP_0 OP_PUSHBYTES_20 dd93923b6ac748ce4cffaf2a47c1363167ac5ca5",
      "scriptpubkey_type": "v0_p2wpkh",
      "scriptpubkey_address": "bc1qmkfeywm2cayvun8l4u4y0sfkx9n6ch99frgwk2",
      "value": 14970
    }
  ],
  "size": 222,
  "weight": 561,
  "fee": 2946,
  "status": {
    "confirmed": true,
    "block_height": 834638,
    "block_hash": "000000000000000000025f742c626208ac87e0b7d15054abb4a19ca2d735a54e",
    "block_time": 1710405325
  },
  "hex": "020000000001017c2d09b254a7dbdc112ff0642c48a27a1d6260ac3a5a663da04dca50e0b3e4e20000000000fdffffff025e050000000000001600143470cb29fa7e51e78c3b8e27b8c70d83ebcad04a7a3a000000000000160014dd93923b6ac748ce4cffaf2a47c1363167ac5ca50247304402200c10a8e9dd7945a73d5569b595248cda13f7e43b453766d4b9c339d17397dc15022020607296cf989fe5511707d8726fea91b0641e32cb53a1ce67e56f0d3e219f2c012103716b137bec19c05787a0bcf76a519f2b8b07945a29c8a1112478627881dea51e00000000"
}