{
  "txid": "46af7ed7dada9334b223d9d70e3eb6290979bc85f78e8617411e9503716b6a7b",
  "version": 2,
  "locktime": 834637,
  "vin": [
    {
      "txid": "5dc2a2e28431c6d64e1522bd945269bd9f839f98825e8affe6671b7388399d7a",
      "vout": 1,
      "prevout": {
        "scriptpubkey": "001436249fc16d9d73a62e30ff630a9f42583ca386c9",
        "scriptpubkey_asm": "OP_0 OP_PUSHBYTES_20 36249fc16d9d73a62e30ff630a9f42583ca386c9",
        "scriptpubkey_type": "v0_p2wpkh",
        "scriptpubkey_address": "bc1qxcjflstdn4e6vt3sla3s486ztq728pkfjs20tw",
        "value": 257272008
      },
      "scriptsig": "",
      "scriptsig_asm": "",
      "witness": [
        "3044022022dea29bc3920e0072ea9e2943cfcc6d4d06adba104046915f9d02b37a3682c20220771cebf6017d1533e06badbe07d9b895e9b92a6515a59a436be3c4ca5525694101",
        "036ce14bafdbf77e32f7f349ba6eb7c80f7dc58ec50be32aa1945c0d5d08e0cf32"
      ],
      "is_coinbase": false,
      "sequence": 4294967294
    }
  ],
  "vout": [
    {
      "scriptpubkey": "a914298c9a7068e1269238c4b2a5b34349bed3bf0b9587",
      "scriptpubkey_asm": "OP_HASH160 OP_PUSHBYTES_20 298c9a7068e1269238c4b2a5b34349bed3bf0b95 OP_EQUAL",
      "scriptpubkey_type": "p2sh",
      "scriptpubkey_address": "35Ui4hJwboadaWjrPVowMR4WHBKwxcGFwm",
      "value": 709800
    },
    {
      "scriptpubkey": "0014bc4008470dea6b2f0ff74b4b8d3637cbe842660f",
      "scriptpubkey_asm": "OP_0 OP_PUSHBYTES_20 bc4008470dea6b2f0ff74b4b8d3637cbe842660f",
      "scriptpubkey_type": "v0_p2wpkh",
      "scriptpubkey_address": "bc1qh3qqs3cdaf4j7rlhfd9c6d3he05yyes0dt52ns",
      "value": 256558728
    }
  ],
  "size": 223,
  "weight": 565,
  "fee": 3480,
  "status": {
    "confirmed": true,
    "block_height": 834638,
    "block_hash": "000000000000000000025f742c626208ac87e0b7d15054abb4a19ca2d735a54e",
    "block_time": 1710405325
  },
  "hex": "020000000001017a9d3988731b67e6ff8a5e82989f839fbd695294bd22154ed6c63184e2a2c25d0100000000feffffff02a8d40a000000000017a914298c9a7068e1269238c4b2a5b34349bed3bf0b958788c64a0f00000000160014bc4008470dea6b2f0ff74b4b8d3637cbe842660f02473044022022dea29bc3920e0072ea9e2943cfcc6d4d06adba104046915f9d02b37a3682c20220771cebf6017d1533e06badbe07d9b895e9b92a6515a59a436be3c4ca552569410121036ce14bafdbf77e32f7f349ba6eb7c80f7dc58ec50be32aa1945c0d5d08e0cf324dbc0c00"
}