{
  "txid": "46b10436001c3ff288e0cb97b66cb3393f55cf51f4df7f0c5bb83f558ae80b20",
  "version": 2,
  "locktime": 0,
  "vin": [
    {
      "txid": "8486ecb4df0880316dd6e82b3971b4df187aff23765bc3a47f8d78bb53aa273c",
      "vout": 81,
      "prevout": {
        "scriptpubkey": "51201d2db554179451c56022fd6070e29c718f68178adec9c44a5eb75268d7b255d5",
        "scriptpubkey_asm": "OP_PUSHNUM_1 OP_PUSHBYTES_32 1d2db554179451c56022fd6070e29c718f68178adec9c44a5eb75268d7b255d5",
        "scriptpubkey_type": "v1_p2tr",
        "scriptpubkey_address": "bc1pr5km24qhj3gu2cpzl4s8pc5uwx8ks9u2mmyugjj7kafx34aj2h2s5nwl7v",
        "value": 2575
      },
      "scriptsig": "",
      "scriptsig_asm": "",
      "witness": [
        "59000a809d8fef93d36f060596761c1c0f07d4cfe9606d892ea1e0ac06876f26e25b78e710e9cb5e44e53568b4853930934486edd96f78031738e2473969b84f",
        "20e40d160ebd675574d7e95f38da5cdadd44188ead686ab025e79d6f3176282fb3ac0063036f726401010a746578742f706c61696e00367b2270223a226272632d3230222c226f70223a226d696e74222c227469636b223a2261616161222c22616d74223a223130303030227d68",
        "c1e40d160ebd675574d7e95f38da5cdadd44188ead686ab025e79d6f3176282fb3"
      ],
      "is_coinbase": false,
      "sequence": 4261412863
    }
  ],
  "vout": [
    {
      "scriptpubkey": "0014ddd7ef12ea6f78edcc1e8e7afa12c01ab59f3339",
      "scriptpubkey_asm": "OP_0 OP_PUSHBYTES_20 ddd7ef12ea6f78edcc1e8e7afa12c01ab59f3339",
      "scriptpubkey_type": "v0_p2wpkh",
      "scriptpubkey_address": "bc1qmht77yh2dauwmnq73ea05ykqr26e7veea8spz6",
      "value": 546
    }
  ],
  "size": 295,
  "weight": 541,
  "fee": 2029,
  "status": {
    "confirmed": true,
    "block_height": 834460,
    "block_hash": "00000000000000000000484a79b643b2524bbce82e5d8a442013fa5b8905ed98",
    "block_time": 1710307468
  },
  "hex": "020000000001013c27aa53bb788d7fa4c35b7623ff7a18dfb471392be8d66d318008dfb4ec86845100000000fffffffd012202000000000000160014ddd7ef12ea6f78edcc1e8e7afa12c01ab59f3339034059000a809d8fef93d36f060596761c1c0f07d4cfe9606d892ea1e0ac06876f26e25b78e710e9cb5e44e53568b4853930934486edd96f78031738e2473969b84f6e20e40d160ebd675574d7e95f38da5cdadd44188ead686ab025e79d6f3176282fb3ac0063036f726401010a746578742f706c61696e00367b2270223a226272632d3230222c226f70223a226d696e74222c227469636b223a2261616161222c22616d74223a223130303030227d6821c1e40d160ebd675574d7e95f38da5cdadd44188ead686ab025e79d6f3176282fb300000000"
}