{
  "txid": "46b6cf791effb657f1767ff42379c0c6a321849006a730e44298c5c69eaaaae1",
  "version": 2,
  "locktime": 0,
  "vin": [
    {
      "txid": "daee38fcf34ab5c217928a149d2fe2f03b597643291aaff9527077015ad28512",
      "vout": 1,
      "prevout": {
        "scriptpubkey": "0014079c888d770da87de9fe01c7ae323673882c97c8",
        "scriptpubkey_asm": "OP_0 OP_PUSHBYTES_20 079c888d770da87de9fe01c7ae323673882c97c8",
        "scriptpubkey_type": "v0_p2wpkh",
        "scriptpubkey_address": "bc1qq7wg3rthpk58m607q8r6uv3kwwyze97gpfsvtm",
        "value": 250000915
      },
      "scriptsig": "",
      "scriptsig_asm": "",
      "witness": [
        "3045022100ee82781a77a6ff040015b8e9b530cf5ad4522c5e217cf0ecfa8d689096fca51b022060dfc076e52e3e84300f2f55b54748e1c0e0e84490d648364996fb67817663a801",
        "0323a2f8873d218bff5cfae04c41a30a7d1ec900f5e35d51f36b183f3c38815791"
      ],
      "is_coinbase": false,
      "sequence": 0
    }
  ],
  "vout": [
    {
      "scriptpubkey": "76a9148734f98d365b69485888d5f9cb9e574e3630290088ac",
      "scriptpubkey_asm": "OP_DUP OP_HASH160 OP_PUSHBYTES_20 8734f98d365b69485888d5f9cb9e574e36302900 OP_EQUALVERIFY OP_CHECKSIG",
      "scriptpubkey_type": "p2pkh",
      "scriptpubkey_address": "1DKugenekVGhFfyq9YzgxTxjNKgGyoGrTo",
      "value": 27218
    },
    {
      "scriptpubkey": "00145260b346c56c263c22eeaaeb44c388f76c4e7216",
      "scriptpubkey_asm": "OP_0 OP_PUSHBYTES_20 5260b346c56c263c22eeaaeb44c388f76c4e7216",
      "scriptpubkey_type": "v0_p2wpkh",
      "scriptpubkey_address": "bc1q2fstx3k9dsnrcghw4t45fsug7akyuuskaklvfg",
      "value": 249969768
    }
  ],
  "size": 226,
  "weight": 574,
  "fee": 3929,
  "status": {
    "confirmed": true,
    "block_height": 834638,
    "block_hash": "000000000000000000025f742c626208ac87e0b7d15054abb4a19ca2d735a54e",
    "block_time": 1710405325
  },
  "hex": "020000000001011285d25a01777052f9af1a294376593bf0e22f9d148a9217c2b54af3fc38eeda01000000000000000002526a0000000000001976a9148734f98d365b69485888d5f9cb9e574e3630290088ac683ce60e000000001600145260b346c56c263c22eeaaeb44c388f76c4e721602483045022100ee82781a77a6ff040015b8e9b530cf5ad4522c5e217cf0ecfa8d689096fca51b022060dfc076e52e3e84300f2f55b54748e1c0e0e84490d648364996fb67817663a801210323a2f8873d218bff5cfae04c41a30a7d1ec900f5e35d51f36b183f3c3881579100000000"
}