{
  "txid": "46bd8c9a6b4199cff6a6d767a721d830b86b6e5ded9cb536ba1198244c52e2d2",
  "version": 2,
  "locktime": 0,
  "vin": [
    {
      "txid": "8486ecb4df0880316dd6e82b3971b4df187aff23765bc3a47f8d78bb53aa273c",
      "vout": 35,
      "prevout": {
        "scriptpubkey": "51208cd736b8e9620da1241a6294570bc1f053cf0dec8bd5075393dca598a553098f",
        "scriptpubkey_asm": "OP_PUSHNUM_1 OP_PUSHBYTES_32 8cd736b8e9620da1241a6294570bc1f053cf0dec8bd5075393dca598a553098f",
        "scriptpubkey_type": "v1_p2tr",
        "scriptpubkey_address": "bc1p3ntndw8fvgx6zfq6v229wz7p7pfu7r0v302sw5unmjje3f2npx8s4sfk6q",
        "value": 2575
      },
      "scriptsig": "",
      "scriptsig_asm": "",
      "witness": [
        "46ffdb5d0402d80734c22d9679b94115ef1a137e041b2b4ff794fc1ae52615d0f0e166cc1719dd9933330e7fa25b6f02a55857072e544c3fb4e6f4b7176645bf",
        "2087fe4acd626727cda0d4cac425c807c03d0823dfc2002d502e45a38d06f8d204ac0063036f726401010a746578742f706c61696e00367b2270223a226272632d3230222c226f70223a226d696e74222c227469636b223a2261616161222c22616d74223a223130303030227d68",
        "c087fe4acd626727cda0d4cac425c807c03d0823dfc2002d502e45a38d06f8d204"
      ],
      "is_coinbase": false,
      "sequence": 4261412863
    }
  ],
  "vout": [
    {
      "scriptpubkey": "0014ddd7ef12ea6f78edcc1e8e7afa12c01ab59f3339",
      "scriptpubkey_asm": "OP_0 OP_PUSHBYTES_20 ddd7ef12ea6f78edcc1e8e7afa12c01ab59f3339",
      "scriptpubkey_type": "v0_p2wpkh",
      "scriptpubkey_address": "bc1qmht77yh2dauwmnq73ea05ykqr26e7veea8spz6",
      "value": 546
    }
  ],
  "size": 295,
  "weight": 541,
  "fee": 2029,
  "status": {
    "confirmed": true,
    "block_height": 834460,
    "block_hash": "00000000000000000000484a79b643b2524bbce82e5d8a442013fa5b8905ed98",
    "block_time": 1710307468
  },
  "hex": "020000000001013c27aa53bb788d7fa4c35b7623ff7a18dfb471392be8d66d318008dfb4ec86842300000000fffffffd012202000000000000160014ddd7ef12ea6f78edcc1e8e7afa12c01ab59f3339034046ffdb5d0402d80734c22d9679b94115ef1a137e041b2b4ff794fc1ae52615d0f0e166cc1719dd9933330e7fa25b6f02a55857072e544c3fb4e6f4b7176645bf6e2087fe4acd626727cda0d4cac425c807c03d0823dfc2002d502e45a38d06f8d204ac0063036f726401010a746578742f706c61696e00367b2270223a226272632d3230222c226f70223a226d696e74222c227469636b223a2261616161222c22616d74223a223130303030227d6821c087fe4acd626727cda0d4cac425c807c03d0823dfc2002d502e45a38d06f8d20400000000"
}