{
  "txid": "46c0d97acc09e143d657af6e9b6f19ab32fc1d6b6c385a2e3c483710dbad0d17",
  "version": 1,
  "locktime": 0,
  "vin": [
    {
      "txid": "a9ad89e51fd9474af2cca78f0cb5a56ba65ef638c30517cb13407647b67774df",
      "vout": 45,
      "prevout": {
        "scriptpubkey": "0014cd17d685ff157a1c8b4b267b51d1354b263ed351",
        "scriptpubkey_asm": "OP_0 OP_PUSHBYTES_20 cd17d685ff157a1c8b4b267b51d1354b263ed351",
        "scriptpubkey_type": "v0_p2wpkh",
        "scriptpubkey_address": "bc1qe5tadp0lz4apez6tyea4r5f4fvnra563xqtev0",
        "value": 2685351
      },
      "scriptsig": "",
      "scriptsig_asm": "",
      "witness": [
        "304402202b8d5af2314686fe25cbb0693255e415f012352c512af348bdf9df2ac452e6c302204bc8faaa591e5da620799d0b5cd7671c8b8b77160f4eca8721c29a036ddf416301",
        "02da753876b1287cc311a7a8f82cd5e3c91f5755d4779e33c520de864cd42dace3"
      ],
      "is_coinbase": false,
      "sequence": 4294967295
    }
  ],
  "vout": [
    {
      "scriptpubkey": "00144cf3272505471c0c1bdf34473edd86775b4e37ed",
      "scriptpubkey_asm": "OP_0 OP_PUSHBYTES_20 4cf3272505471c0c1bdf34473edd86775b4e37ed",
      "scriptpubkey_type": "v0_p2wpkh",
      "scriptpubkey_address": "bc1qfnejwfg9guwqcx7lx3rnahvxwad5udld8ta2m5",
      "value": 2682381
    }
  ],
  "size": 191,
  "weight": 437,
  "fee": 2970,
  "status": {
    "confirmed": true,
    "block_height": 834638,
    "block_hash": "000000000000000000025f742c626208ac87e0b7d15054abb4a19ca2d735a54e",
    "block_time": 1710405325
  },
  "hex": "01000000000101df7477b647764013cb1705c338f65ea66ba5b50c8fa7ccf24a47d91fe589ada92d00000000ffffffff010dee2800000000001600144cf3272505471c0c1bdf34473edd86775b4e37ed0247304402202b8d5af2314686fe25cbb0693255e415f012352c512af348bdf9df2ac452e6c302204bc8faaa591e5da620799d0b5cd7671c8b8b77160f4eca8721c29a036ddf4163012102da753876b1287cc311a7a8f82cd5e3c91f5755d4779e33c520de864cd42dace300000000"
}