{
  "txid": "46c24abd65f4aa55862c73106794efe647641219d217018ed66df8b5f718a971",
  "version": 2,
  "locktime": 0,
  "vin": [
    {
      "txid": "e054c137725b7a5d163dade8f5cd68c0927a2e8b00d920927dab9a7ba934ce5f",
      "vout": 6,
      "prevout": {
        "scriptpubkey": "51204b84ac5f0f2658264d0f5d57552f95b2d61d082f8053f4774f4a40e847457b7a",
        "scriptpubkey_asm": "OP_PUSHNUM_1 OP_PUSHBYTES_32 4b84ac5f0f2658264d0f5d57552f95b2d61d082f8053f4774f4a40e847457b7a",
        "scriptpubkey_type": "v1_p2tr",
        "scriptpubkey_address": "bc1pfwz2chc0yevzvng0t4t42tu4kttp6zp0spflga60ffqws3690daq7ty4jd",
        "value": 2658
      },
      "scriptsig": "",
      "scriptsig_asm": "",
      "witness": [
        "3dda09a2592c342f0c19391fd1ded59c4a219df0183c09c27737b3a211393890e9f13738ccdceac8544ccf1a3784cd41831622d99fa2db865022221a44571871",
        "2018055be4b233786cb81215256f68e6ba74539b22b45d516f237ede5174b82d02ac0063036f726401011e6170706c69636174696f6e2f6a736f6e3b636861727365743d7574662d38004cbf7b2270223a22706f772d3230222c226f70223a226d696e74222c227469636b223a2250455045222c22616d74223a2231303030222c22736f6c7574696f6e223a22504550453a6263317139736a36303977756e7468646a636d7a746a796379766475616e653071716b78726e773932653a303030303030303030303030303030303030303139393431613561653132383937363539383134343239323533333030353762306461393666336465613163353a3332333737303130313434227d68",
        "c1a0e509a599b6542378e5ac7959d344a1bebc95ec9899fd4ccf1904beefe3f047"
      ],
      "is_coinbase": false,
      "sequence": 4294967295
    }
  ],
  "vout": [
    {
      "scriptpubkey": "00142c25a795dc9aeed963625c898231bcecf2f002c6",
      "scriptpubkey_asm": "OP_0 OP_PUSHBYTES_20 2c25a795dc9aeed963625c898231bcecf2f002c6",
      "scriptpubkey_type": "v0_p2wpkh",
      "scriptpubkey_address": "bc1q9sj609wunthdjcmztjycyvduane0qqkxrnw92e",
      "value": 546
    }
  ],
  "size": 455,
  "weight": 701,
  "fee": 2112,
  "status": {
    "confirmed": true,
    "block_height": 834460,
    "block_hash": "00000000000000000000484a79b643b2524bbce82e5d8a442013fa5b8905ed98",
    "block_time": 1710307468
  },
  "hex": "020000000001015fce34a97b9aab7d9220d9008b2e7a92c068cdf5e8ad3d165d7a5b7237c154e00600000000ffffffff0122020000000000001600142c25a795dc9aeed963625c898231bcecf2f002c603403dda09a2592c342f0c19391fd1ded59c4a219df0183c09c27737b3a211393890e9f13738ccdceac8544ccf1a3784cd41831622d99fa2db865022221a44571871fd0c012018055be4b233786cb81215256f68e6ba74539b22b45d516f237ede5174b82d02ac0063036f726401011e6170706c69636174696f6e2f6a736f6e3b636861727365743d7574662d38004cbf7b2270223a22706f772d3230222c226f70223a226d696e74222c227469636b223a2250455045222c22616d74223a2231303030222c22736f6c7574696f6e223a22504550453a6263317139736a36303977756e7468646a636d7a746a796379766475616e653071716b78726e773932653a303030303030303030303030303030303030303139393431613561653132383937363539383134343239323533333030353762306461393666336465613163353a3332333737303130313434227d6821c1a0e509a599b6542378e5ac7959d344a1bebc95ec9899fd4ccf1904beefe3f04700000000"
}