{
  "txid": "46d728c9bc11ba8f21e616e475d216434b3fb942ddbf1d6e4ff6d27293d90b70",
  "version": 2,
  "locktime": 0,
  "vin": [
    {
      "txid": "b13bb5512a4904c28a6b7957b88edf574e8cb23551fc1dcfe22d6b239df42cf4",
      "vout": 26,
      "prevout": {
        "scriptpubkey": "5120a99b15c79b070169709cd91c7cc0dac4d0710479e24a757b5a1f4c6e8315184e",
        "scriptpubkey_asm": "OP_PUSHNUM_1 OP_PUSHBYTES_32 a99b15c79b070169709cd91c7cc0dac4d0710479e24a757b5a1f4c6e8315184e",
        "scriptpubkey_type": "v1_p2tr",
        "scriptpubkey_address": "bc1p4xd3t3umquqkjuyumyw8esx6cng8zpreuf982766raxxaqc4rp8qk24vqn",
        "value": 2575
      },
      "scriptsig": "",
      "scriptsig_asm": "",
      "witness": [
        "c2261afcafc5d5a6bf81c2389eedc0a5839d61edca8587c50d50cdd2d3688fe64e5f2408a35f425a37a175d320171f487d2b936fdf90f600f75197bc17ae2cb7",
        "2072bf9bdd7cc6bed06e38e7cf505f1c62b4963aa21facf05d083c3ab20a8af066ac0063036f726401010a746578742f706c61696e00367b2270223a226272632d3230222c226f70223a226d696e74222c227469636b223a2261616161222c22616d74223a223130303030227d68",
        "c172bf9bdd7cc6bed06e38e7cf505f1c62b4963aa21facf05d083c3ab20a8af066"
      ],
      "is_coinbase": false,
      "sequence": 4261412863
    }
  ],
  "vout": [
    {
      "scriptpubkey": "0014ce0b5aa0dac72397a8aa5a85d90a2cfb46f0f630",
      "scriptpubkey_asm": "OP_0 OP_PUSHBYTES_20 ce0b5aa0dac72397a8aa5a85d90a2cfb46f0f630",
      "scriptpubkey_type": "v0_p2wpkh",
      "scriptpubkey_address": "bc1qec944gx6cu3e0292t2zajz3vldr0pa3sh356d9",
      "value": 546
    }
  ],
  "size": 295,
  "weight": 541,
  "fee": 2029,
  "status": {
    "confirmed": true,
    "block_height": 834464,
    "block_hash": "0000000000000000000177a0869a911a2b65c9bdcd5a8bcb02b68f305bee848e",
    "block_time": 1710308296
  },
  "hex": "02000000000101f42cf49d236b2de2cf1dfc5135b28c4e57df8eb857796b8ac204492a51b53bb11a00000000fffffffd012202000000000000160014ce0b5aa0dac72397a8aa5a85d90a2cfb46f0f6300340c2261afcafc5d5a6bf81c2389eedc0a5839d61edca8587c50d50cdd2d3688fe64e5f2408a35f425a37a175d320171f487d2b936fdf90f600f75197bc17ae2cb76e2072bf9bdd7cc6bed06e38e7cf505f1c62b4963aa21facf05d083c3ab20a8af066ac0063036f726401010a746578742f706c61696e00367b2270223a226272632d3230222c226f70223a226d696e74222c227469636b223a2261616161222c22616d74223a223130303030227d6821c172bf9bdd7cc6bed06e38e7cf505f1c62b4963aa21facf05d083c3ab20a8af06600000000"
}