{
  "txid": "46d977ca87c78ac2e59753471a3c9c94aaa4f0a9ac76409102719c2316a2b7af",
  "version": 1,
  "locktime": 0,
  "vin": [
    {
      "txid": "888888854ea0180628d0994915970e0870a45e29f20f50df949679f47d11d20d",
      "vout": 0,
      "prevout": {
        "scriptpubkey": "512090ebad0830adaf2cc378ccc206a402dcdb3d4baa4be3111a9d3933b83961fa8e",
        "scriptpubkey_asm": "OP_PUSHNUM_1 OP_PUSHBYTES_32 90ebad0830adaf2cc378ccc206a402dcdb3d4baa4be3111a9d3933b83961fa8e",
        "scriptpubkey_type": "v1_p2tr",
        "scriptpubkey_address": "bc1pjr466zps4khjesmcenpqdfqzmndn6ja2f033zx5a8yemswtpl28q6dhjl6",
        "value": 11704
      },
      "scriptsig": "",
      "scriptsig_asm": "",
      "witness": [
        "67685c1c6864f0b494ce9280ac8416e0d6ccdae0381d41bd6c37df2978c7fc5f4116207d13ca23218b748445bd8580e9a1679555a9b5975f82d4d3f9af3b0ffa",
        "20c939a6c99941b6d3b54ce120ec99b1597a9557352a600150e097bc361ea60299ac00630461746f6d03646d7442a16461726773a46474696d651a65dc2eed656e6f6e636519042c68626974776f726b6369383838383838382e316b6d696e745f7469636b657268696e66696e69747968",
        "c0c939a6c99941b6d3b54ce120ec99b1597a9557352a600150e097bc361ea60299"
      ],
      "is_coinbase": false,
      "sequence": 1
    }
  ],
  "vout": [
    {
      "scriptpubkey": "5120b510c4cbbd9adad0840a5f50b2fbc7bb1d8231996d5f115e52bb89456507f42a",
      "scriptpubkey_asm": "OP_PUSHNUM_1 OP_PUSHBYTES_32 b510c4cbbd9adad0840a5f50b2fbc7bb1d8231996d5f115e52bb89456507f42a",
      "scriptpubkey_type": "v1_p2tr",
      "scriptpubkey_address": "bc1pk5gvfjaantddppq2tagt9778hvwcyvved403zhjjhwy52eg87s4qdwylgf",
      "value": 9999
    }
  ],
  "size": 310,
  "weight": 592,
  "fee": 1705,
  "status": {
    "confirmed": true,
    "block_height": 834464,
    "block_hash": "0000000000000000000177a0869a911a2b65c9bdcd5a8bcb02b68f305bee848e",
    "block_time": 1710308296
  },
  "hex": "010000000001010dd2117df4799694df500ff2295ea470080e97154999d0280618a04e85888888000000000001000000010f27000000000000225120b510c4cbbd9adad0840a5f50b2fbc7bb1d8231996d5f115e52bb89456507f42a034067685c1c6864f0b494ce9280ac8416e0d6ccdae0381d41bd6c37df2978c7fc5f4116207d13ca23218b748445bd8580e9a1679555a9b5975f82d4d3f9af3b0ffa7120c939a6c99941b6d3b54ce120ec99b1597a9557352a600150e097bc361ea60299ac00630461746f6d03646d7442a16461726773a46474696d651a65dc2eed656e6f6e636519042c68626974776f726b6369383838383838382e316b6d696e745f7469636b657268696e66696e6974796821c0c939a6c99941b6d3b54ce120ec99b1597a9557352a600150e097bc361ea6029900000000"
}