{
  "txid": "46ff842c9e2f7d06621781a0d77707024f1d2abcd98c329e10c5db5ad41df708",
  "version": 2,
  "locktime": 0,
  "vin": [
    {
      "txid": "8e57c59abb7c62f0611728fad36b880c3917d087ba0b1df9453b9dd50af253d3",
      "vout": 1,
      "prevout": {
        "scriptpubkey": "001460ee47633921cd9b56be1d52d2a52565e3fa1b0b",
        "scriptpubkey_asm": "OP_0 OP_PUSHBYTES_20 60ee47633921cd9b56be1d52d2a52565e3fa1b0b",
        "scriptpubkey_type": "v0_p2wpkh",
        "scriptpubkey_address": "bc1qvrhywceey8xek447r4fd9ff9vh3l5xct5f29j6",
        "value": 13380402
      },
      "scriptsig": "",
      "scriptsig_asm": "",
      "witness": [
        "30440220265ae093accc7f5465e516f3579fa658be78aeacc7c495dba0fe4b959efca6ea022014e14987be1f0af555cfff9d3779c97cf05cc6bb536fd6d2cf8bb3ecca0ef84001",
        "02d385a1908f458027e880e79986ce83bdab157af46bb9588f617b03f652815b9e"
      ],
      "is_coinbase": false,
      "sequence": 0
    },
    {
      "txid": "bc9b776d467362d6ce4cdeb12788a3c668526c5c97f911cdb71290f80bb59a97",
      "vout": 1,
      "prevout": {
        "scriptpubkey": "0014e637af055ced9f212b6b2ecd4dab00489b362c3c",
        "scriptpubkey_asm": "OP_0 OP_PUSHBYTES_20 e637af055ced9f212b6b2ecd4dab00489b362c3c",
        "scriptpubkey_type": "v0_p2wpkh",
        "scriptpubkey_address": "bc1qucm67p2uak0jz2mt9mx5m2cqfzdnvtpudxtlz6",
        "value": 66596382
      },
      "scriptsig": "",
      "scriptsig_asm": "",
      "witness": [
        "3045022100bee182196904e9863b0b19f6d2708866a0ae2e7b8e161fbb42e471844f52032702205ef551f531c4925b4ef7cba1aeab4eaf29ae5fc0e5f02c45758e2ec3f2fd4b3401",
        "032df25c5248f28ac0434b1909160d8ba1d8f0f10067f269c70dea0ad863eb5f92"
      ],
      "is_coinbase": false,
      "sequence": 0
    }
  ],
  "vout": [
    {
      "scriptpubkey": "a914649e5de39dbdd911294821fd0f151393bccca1fb87",
      "scriptpubkey_asm": "OP_HASH160 OP_PUSHBYTES_20 649e5de39dbdd911294821fd0f151393bccca1fb OP_EQUAL",
      "scriptpubkey_type": "p2sh",
      "scriptpubkey_address": "3As3DEyew65tqGP6bKbujAYrNR7RuooZHw",
      "value": 79973562
    }
  ],
  "size": 341,
  "weight": 713,
  "fee": 3222,
  "status": {
    "confirmed": true,
    "block_height": 834638,
    "block_hash": "000000000000000000025f742c626208ac87e0b7d15054abb4a19ca2d735a54e",
    "block_time": 1710405325
  },
  "hex": "02000000000102d353f20ad59d3b45f91d0bba87d017390c886bd3fa281761f0627cbb9ac5578e010000000000000000979ab50bf89012b7cd11f9975c6c5268c6a38827b1de4cced66273466d779bbc01000000000000000001ba4cc4040000000017a914649e5de39dbdd911294821fd0f151393bccca1fb87024730440220265ae093accc7f5465e516f3579fa658be78aeacc7c495dba0fe4b959efca6ea022014e14987be1f0af555cfff9d3779c97cf05cc6bb536fd6d2cf8bb3ecca0ef840012102d385a1908f458027e880e79986ce83bdab157af46bb9588f617b03f652815b9e02483045022100bee182196904e9863b0b19f6d2708866a0ae2e7b8e161fbb42e471844f52032702205ef551f531c4925b4ef7cba1aeab4eaf29ae5fc0e5f02c45758e2ec3f2fd4b340121032df25c5248f28ac0434b1909160d8ba1d8f0f10067f269c70dea0ad863eb5f9200000000"
}