{
  "txid": "47034fafc46dd2de661bc712d78026d362e05deb800fac4b8c4770fa5c45d349",
  "version": 1,
  "locktime": 0,
  "vin": [
    {
      "txid": "d800d6179efe124d91d227331ec4badb60d0f75339bc5645215b9ba3e72caac6",
      "vout": 1,
      "prevout": {
        "scriptpubkey": "76a9149d85d8c6d7d9037b66d907c102e90856069cb92e88ac",
        "scriptpubkey_asm": "OP_DUP OP_HASH160 OP_PUSHBYTES_20 9d85d8c6d7d9037b66d907c102e90856069cb92e OP_EQUALVERIFY OP_CHECKSIG",
        "scriptpubkey_type": "p2pkh",
        "scriptpubkey_address": "1FMuRxPXdEz1YHWXeaM1STD5QmH92zUh44",
        "value": 962231
      },
      "scriptsig": "483045022100979551bcc64b6aa2a4f76c5c6a848a8b07bcf3e01436136beb02d9ad4324202102203e9f65176a5039d374c6907e4b3f96fc540de140bb3b905f0717effb64fa17c4012102887b25561c1d4fa2ae186f34d9606f31a224820f28f50a6affa04fe0141a0bfc",
      "scriptsig_asm": "OP_PUSHBYTES_72 3045022100979551bcc64b6aa2a4f76c5c6a848a8b07bcf3e01436136beb02d9ad4324202102203e9f65176a5039d374c6907e4b3f96fc540de140bb3b905f0717effb64fa17c401 OP_PUSHBYTES_33 02887b25561c1d4fa2ae186f34d9606f31a224820f28f50a6affa04fe0141a0bfc",
      "is_coinbase": false,
      "sequence": 4294967295
    }
  ],
  "vout": [
    {
      "scriptpubkey": "76a914e5f5931ab937d6d33c7b07d26eaed9b976b4da8688ac",
      "scriptpubkey_asm": "OP_DUP OP_HASH160 OP_PUSHBYTES_20 e5f5931ab937d6d33c7b07d26eaed9b976b4da86 OP_EQUALVERIFY OP_CHECKSIG",
      "scriptpubkey_type": "p2pkh",
      "scriptpubkey_address": "1MxuvkhGEaDWCD7Qjrqp9Q3rhGKqsB4fbq",
      "value": 408383
    },
    {
      "scriptpubkey": "76a914abb666d97649aa1eb144cb2d6813eb0ce401ebc988ac",
      "scriptpubkey_asm": "OP_DUP OP_HASH160 OP_PUSHBYTES_20 abb666d97649aa1eb144cb2d6813eb0ce401ebc9 OP_EQUALVERIFY OP_CHECKSIG",
      "scriptpubkey_type": "p2pkh",
      "scriptpubkey_address": "1Gew4JMQb52x5YiGMitS1xXh5DiX4xUFa7",
      "value": 546164
    }
  ],
  "size": 226,
  "weight": 904,
  "fee": 7684,
  "status": {
    "confirmed": true,
    "block_height": 834638,
    "block_hash": "000000000000000000025f742c626208ac87e0b7d15054abb4a19ca2d735a54e",
    "block_time": 1710405325
  },
  "hex": "0100000001c6aa2ce7a39b5b214556bc3953f7d060dbbac41e3327d2914d12fe9e17d600d8010000006b483045022100979551bcc64b6aa2a4f76c5c6a848a8b07bcf3e01436136beb02d9ad4324202102203e9f65176a5039d374c6907e4b3f96fc540de140bb3b905f0717effb64fa17c4012102887b25561c1d4fa2ae186f34d9606f31a224820f28f50a6affa04fe0141a0bfcffffffff023f3b0600000000001976a914e5f5931ab937d6d33c7b07d26eaed9b976b4da8688ac74550800000000001976a914abb666d97649aa1eb144cb2d6813eb0ce401ebc988ac00000000"
}