{
  "txid": "470c328f227b29acf8ecd0c2e561392fb5eba574cffca432a9985d58f8f76ffe",
  "version": 2,
  "locktime": 834637,
  "vin": [
    {
      "txid": "23599bf0180690127049faffd8dd99e8f545633b154c085b3f350d2dd888f37e",
      "vout": 2,
      "prevout": {
        "scriptpubkey": "0014b2c2c8394f5fcbbf35a8160e58fc298a05d21d66",
        "scriptpubkey_asm": "OP_0 OP_PUSHBYTES_20 b2c2c8394f5fcbbf35a8160e58fc298a05d21d66",
        "scriptpubkey_type": "v0_p2wpkh",
        "scriptpubkey_address": "bc1qktpvsw20tl9m7ddgzc893lpf3gzay8txscv5a3",
        "value": 101449
      },
      "scriptsig": "",
      "scriptsig_asm": "",
      "witness": [
        "304402205803a3d437a22909383a6c282df097a921955891fb77f239c818982af9cc4bda0220316c9f0e58bf282e13a8c5dec2d24eef6183f636a9e3df0e29dec089e2853fd301",
        "02fc7da2488d8942f56e5b5588101d9f4731d7a538d5faf65152387c857c0d75ed"
      ],
      "is_coinbase": false,
      "sequence": 4294967294
    },
    {
      "txid": "3ed2e4e19e52e101f95d7014b7873fdb7676fa9ea378fe26f7f750c02c5f7e7f",
      "vout": 0,
      "prevout": {
        "scriptpubkey": "00140a524c2671b47fa57a062e7d1fb68dd7828512a1",
        "scriptpubkey_asm": "OP_0 OP_PUSHBYTES_20 0a524c2671b47fa57a062e7d1fb68dd7828512a1",
        "scriptpubkey_type": "v0_p2wpkh",
        "scriptpubkey_address": "bc1qpffycfn3k3l627sx9e73ld5d67pg2y4p77yx4s",
        "value": 2800000
      },
      "scriptsig": "",
      "scriptsig_asm": "",
      "witness": [
        "3044022018159f784710b626675c78e5ffde56587cb09a46722250364aae6ddcb16c0790022004985c5a62f9eca23b0905ec3dd8a57860ea3f26e5c1e557e0c4585160c1e9e301",
        "027d198993c8744268fd934b7ce38a81accfdc3f144f5682a448bf1148556c4df4"
      ],
      "is_coinbase": false,
      "sequence": 4294967294
    },
    {
      "txid": "4eea0f2a0a26d192aaf3d7790ece00ce4e7ebf17e1e1100c02e3cf1c19bfdd19",
      "vout": 0,
      "prevout": {
        "scriptpubkey": "001486c08c75880e837c413531c184eeeb7b0b91549b",
        "scriptpubkey_asm": "OP_0 OP_PUSHBYTES_20 86c08c75880e837c413531c184eeeb7b0b91549b",
        "scriptpubkey_type": "v0_p2wpkh",
        "scriptpubkey_address": "bc1qsmqgcavgp6phcsf4x8qcfmht0v9ez4ym5gr6lx",
        "value": 5000000
      },
      "scriptsig": "",
      "scriptsig_asm": "",
      "witness": [
        "304402203de34ee968ea1d7f36fb25b79066279b8486b713ac50e6db4ac7feafc4e5bbc10220447ad65ebc8fb2f0f9961ef837b5b97ba780e7cec56ac5d254e2aad8cb83702601",
        "0398c4d32fb77c4bec9fd4e006e398aa4c7be2487d2e630ca80b4679b4b8f644a8"
      ],
      "is_coinbase": false,
      "sequence": 4294967294
    }
  ],
  "vout": [
    {
      "scriptpubkey": "00148b86b4e27d8afd9caeb801ad370c970ad1beea5d",
      "scriptpubkey_asm": "OP_0 OP_PUSHBYTES_20 8b86b4e27d8afd9caeb801ad370c970ad1beea5d",
      "scriptpubkey_type": "v0_p2wpkh",
      "scriptpubkey_address": "bc1q3wrtfcna3t7eet4cqxknwryhptgma6japklduk",
      "value": 7893801
    }
  ],
  "size": 487,
  "weight": 979,
  "fee": 7648,
  "status": {
    "confirmed": true,
    "block_height": 834638,
    "block_hash": "000000000000000000025f742c626208ac87e0b7d15054abb4a19ca2d735a54e",
    "block_time": 1710405325
  },
  "hex": "020000000001037ef388d82d0d353f5b084c153b6345f5e899ddd8fffa497012900618f09b59230200000000feffffff7f7e5f2cc050f7f726fe78a39efa7676db3f87b714705df901e1529ee1e4d23e0000000000feffffff19ddbf191ccfe3020c10e1e117bf7e4ece00ce0e79d7f3aa92d1260a2a0fea4e0000000000feffffff0129737800000000001600148b86b4e27d8afd9caeb801ad370c970ad1beea5d0247304402205803a3d437a22909383a6c282df097a921955891fb77f239c818982af9cc4bda0220316c9f0e58bf282e13a8c5dec2d24eef6183f636a9e3df0e29dec089e2853fd3012102fc7da2488d8942f56e5b5588101d9f4731d7a538d5faf65152387c857c0d75ed02473044022018159f784710b626675c78e5ffde56587cb09a46722250364aae6ddcb16c0790022004985c5a62f9eca23b0905ec3dd8a57860ea3f26e5c1e557e0c4585160c1e9e30121027d198993c8744268fd934b7ce38a81accfdc3f144f5682a448bf1148556c4df40247304402203de34ee968ea1d7f36fb25b79066279b8486b713ac50e6db4ac7feafc4e5bbc10220447ad65ebc8fb2f0f9961ef837b5b97ba780e7cec56ac5d254e2aad8cb83702601210398c4d32fb77c4bec9fd4e006e398aa4c7be2487d2e630ca80b4679b4b8f644a84dbc0c00"
}