{
  "txid": "471c98dc80ba06d9e688692ac09fef073be040534f8fe842918b4607b285d9ab",
  "version": 2,
  "locktime": 0,
  "vin": [
    {
      "txid": "2ec861de74f4ee19bb41c910c8cd041538f2ad94a92729115e72c7b6159441b7",
      "vout": 6,
      "prevout": {
        "scriptpubkey": "5120677657f574fa0a4efb1a907f98b8d3f15d78afa072b837f343c68aa99cbd950b",
        "scriptpubkey_asm": "OP_PUSHNUM_1 OP_PUSHBYTES_32 677657f574fa0a4efb1a907f98b8d3f15d78afa072b837f343c68aa99cbd950b",
        "scriptpubkey_type": "v1_p2tr",
        "scriptpubkey_address": "bc1pvam90at5lg9ya7c6jple3wxn79wh3taqw2ur0u6rc692n89aj59s7ugx8m",
        "value": 2862
      },
      "scriptsig": "",
      "scriptsig_asm": "",
      "witness": [
        "c541eb9a035a979c55fdd67d1ff4ba3ed3d5b94cb6a5d49ca0299b9339f852b68c82f9557c88d0bffd6c39205aaf413e4dfb18e4e0ff9d9bccd2f39fa229b4eb",
        "2046359fb0472f70a6275441dcc648cc1fd0a8de54e1e4feee857d8a4b4b10b026ac0063036f726401011e6170706c69636174696f6e2f6a736f6e3b636861727365743d7574662d38004cd37b2270223a22706f772d3230222c226f70223a226d696e74222c227469636b223a2250455045222c22616d74223a2231303030222c22736f6c7574696f6e223a22504550453a62633170746e776d6a6c6e30347468677938776d3632347175746a357163736676646a7179343676366b67747337656e6330797367633871666d646135723a303030303030303030303030303030303030303139393431613561653132383937363539383134343239323533333030353762306461393666336465613163353a3330363633373134323531227d68",
        "c0b3bc6f424055c5ec6ac1dc8b207f1ba18c4db693056bc938ea6425d8b7a62268"
      ],
      "is_coinbase": false,
      "sequence": 4294967295
    }
  ],
  "vout": [
    {
      "scriptpubkey": "51205cddb97e6faaee821ddbd2aa0e2e5406209636402574cd590b87b33c3c90460e",
      "scriptpubkey_asm": "OP_PUSHNUM_1 OP_PUSHBYTES_32 5cddb97e6faaee821ddbd2aa0e2e5406209636402574cd590b87b33c3c90460e",
      "scriptpubkey_type": "v1_p2tr",
      "scriptpubkey_address": "bc1ptnwmjln04thgy8wm624qutj5qcsfvdjqy46v6kgts7enc0ysgc8qfmda5r",
      "value": 546
    }
  ],
  "size": 487,
  "weight": 769,
  "fee": 2316,
  "status": {
    "confirmed": true,
    "block_height": 834460,
    "block_hash": "00000000000000000000484a79b643b2524bbce82e5d8a442013fa5b8905ed98",
    "block_time": 1710307468
  },
  "hex": "02000000000101b7419415b6c7725e112927a994adf2381504cdc810c941bb19eef474de61c82e0600000000ffffffff0122020000000000002251205cddb97e6faaee821ddbd2aa0e2e5406209636402574cd590b87b33c3c90460e0340c541eb9a035a979c55fdd67d1ff4ba3ed3d5b94cb6a5d49ca0299b9339f852b68c82f9557c88d0bffd6c39205aaf413e4dfb18e4e0ff9d9bccd2f39fa229b4ebfd20012046359fb0472f70a6275441dcc648cc1fd0a8de54e1e4feee857d8a4b4b10b026ac0063036f726401011e6170706c69636174696f6e2f6a736f6e3b636861727365743d7574662d38004cd37b2270223a22706f772d3230222c226f70223a226d696e74222c227469636b223a2250455045222c22616d74223a2231303030222c22736f6c7574696f6e223a22504550453a62633170746e776d6a6c6e30347468677938776d3632347175746a357163736676646a7179343676366b67747337656e6330797367633871666d646135723a303030303030303030303030303030303030303139393431613561653132383937363539383134343239323533333030353762306461393666336465613163353a3330363633373134323531227d6821c0b3bc6f424055c5ec6ac1dc8b207f1ba18c4db693056bc938ea6425d8b7a6226800000000"
}