{
  "txid": "47215f35b93326f066c3a523c972d8fb6988c9cfb03b3cca44cb3f4fad9a558e",
  "version": 2,
  "locktime": 0,
  "vin": [
    {
      "txid": "943aae8ccd4a36005f92dd19ef4907ae5b5a6e432b11dbfb647cf8a960ea5123",
      "vout": 1,
      "prevout": {
        "scriptpubkey": "00146b4730403f7cafbcdc3fc2a6f6909aad7e93cf27",
        "scriptpubkey_asm": "OP_0 OP_PUSHBYTES_20 6b4730403f7cafbcdc3fc2a6f6909aad7e93cf27",
        "scriptpubkey_type": "v0_p2wpkh",
        "scriptpubkey_address": "bc1qddrnqspl0jhmehplc2n0dyy644lf8ne8vj6mlx",
        "value": 302338
      },
      "scriptsig": "",
      "scriptsig_asm": "",
      "witness": [
        "3045022100a032ae72c28eb4927c7d524ac8e5975157c14eef8c92e547f3a71bf44cd0aa6b02200f2593200123a3dfa08171219cce80f14c62e1017cbc9f5b65914a4d45446b5601",
        "02fccf6908c2c052733e0b96c2fe9fd0f7f3f463fd1cf3ae637e6de71f478e9550"
      ],
      "is_coinbase": false,
      "sequence": 4294967295
    },
    {
      "txid": "7cebc7784adfe4f14884c3686bb30a4acc7d553f4ffdd26d682f83ac6ab03523",
      "vout": 334,
      "prevout": {
        "scriptpubkey": "00146b4730403f7cafbcdc3fc2a6f6909aad7e93cf27",
        "scriptpubkey_asm": "OP_0 OP_PUSHBYTES_20 6b4730403f7cafbcdc3fc2a6f6909aad7e93cf27",
        "scriptpubkey_type": "v0_p2wpkh",
        "scriptpubkey_address": "bc1qddrnqspl0jhmehplc2n0dyy644lf8ne8vj6mlx",
        "value": 511697
      },
      "scriptsig": "",
      "scriptsig_asm": "",
      "witness": [
        "3045022100eada3cfc279e70e1667c90a575386407eeea1ae397727f82482ce037a04d4ce9022032eb0dea9923617f4ab7231e17b794314a0505d0589d25676dd5aae98a7053d201",
        "02fccf6908c2c052733e0b96c2fe9fd0f7f3f463fd1cf3ae637e6de71f478e9550"
      ],
      "is_coinbase": false,
      "sequence": 4294967295
    }
  ],
  "vout": [
    {
      "scriptpubkey": "0014c4896fd79d3bdcfeabc5798c23c16beb631975e1",
      "scriptpubkey_asm": "OP_0 OP_PUSHBYTES_20 c4896fd79d3bdcfeabc5798c23c16beb631975e1",
      "scriptpubkey_type": "v0_p2wpkh",
      "scriptpubkey_address": "bc1qcjykl4ua80w0a2790xxz8sttad33ja0pn6yhux",
      "value": 442305
    },
    {
      "scriptpubkey": "00146b4730403f7cafbcdc3fc2a6f6909aad7e93cf27",
      "scriptpubkey_asm": "OP_0 OP_PUSHBYTES_20 6b4730403f7cafbcdc3fc2a6f6909aad7e93cf27",
      "scriptpubkey_type": "v0_p2wpkh",
      "scriptpubkey_address": "bc1qddrnqspl0jhmehplc2n0dyy644lf8ne8vj6mlx",
      "value": 368713
    }
  ],
  "size": 372,
  "weight": 834,
  "fee": 3017,
  "status": {
    "confirmed": true,
    "block_height": 834460,
    "block_hash": "00000000000000000000484a79b643b2524bbce82e5d8a442013fa5b8905ed98",
    "block_time": 1710307468
  },
  "hex": "020000000001022351ea60a9f87c64fbdb112b436e5a5bae0749ef19dd925f00364acd8cae3a940100000000ffffffff2335b06aac832f686dd2fd4f3f557dcc4a0ab36b68c38448f1e4df4a78c7eb7c4e01000000ffffffff02c1bf060000000000160014c4896fd79d3bdcfeabc5798c23c16beb631975e149a00500000000001600146b4730403f7cafbcdc3fc2a6f6909aad7e93cf2702483045022100a032ae72c28eb4927c7d524ac8e5975157c14eef8c92e547f3a71bf44cd0aa6b02200f2593200123a3dfa08171219cce80f14c62e1017cbc9f5b65914a4d45446b56012102fccf6908c2c052733e0b96c2fe9fd0f7f3f463fd1cf3ae637e6de71f478e955002483045022100eada3cfc279e70e1667c90a575386407eeea1ae397727f82482ce037a04d4ce9022032eb0dea9923617f4ab7231e17b794314a0505d0589d25676dd5aae98a7053d2012102fccf6908c2c052733e0b96c2fe9fd0f7f3f463fd1cf3ae637e6de71f478e955000000000"
}