{
  "txid": "4741b89ac8e91fd42bb655b2372f13752cb12a1c200c2366b552563f25c17c76",
  "version": 1,
  "locktime": 0,
  "vin": [
    {
      "txid": "8888888b4084dbce3865a4a66115712b632611c76c21e8e5fc990fb03426213c",
      "vout": 0,
      "prevout": {
        "scriptpubkey": "512053634e9f962a6ae52a3875692066bacbd07810d589953beb93d92a54b9364a32",
        "scriptpubkey_asm": "OP_PUSHNUM_1 OP_PUSHBYTES_32 53634e9f962a6ae52a3875692066bacbd07810d589953beb93d92a54b9364a32",
        "scriptpubkey_type": "v1_p2tr",
        "scriptpubkey_address": "bc1p2d35a8uk9f4w223cw45jqe46e0g8syx43x2nh6unmy49fwfkfgeqncexjx",
        "value": 12204
      },
      "scriptsig": "",
      "scriptsig_asm": "",
      "witness": [
        "2fffaf02f6319cf94419a4dfdaeb1b96c2abbebc145dd23e05d805f7de9d91ff51bec5e73dbefe4860796a7c1380d7c4289db2700aeacc69d0eb1b084d6c005a",
        "20dfa7325ed77fab28d796d113dcead29a7490c58aaa244f71cf02d52f6b761081ac00630461746f6d03646d743ea16461726773a46474696d651a65dec5ae656e6f6e63650068626974776f726b6367383838383838386b6d696e745f7469636b657268696e66696e69747968",
        "c1dfa7325ed77fab28d796d113dcead29a7490c58aaa244f71cf02d52f6b761081"
      ],
      "is_coinbase": false,
      "sequence": 0
    }
  ],
  "vout": [
    {
      "scriptpubkey": "5120b9fca91a73c757f9f9a106ebd267033b437430c58cd8c9521db9048d82e5fdc6",
      "scriptpubkey_asm": "OP_PUSHNUM_1 OP_PUSHBYTES_32 b9fca91a73c757f9f9a106ebd267033b437430c58cd8c9521db9048d82e5fdc6",
      "scriptpubkey_type": "v1_p2tr",
      "scriptpubkey_address": "bc1ph872jxnncatln7dpqm4ayecr8dphgvx93nvvj5sahyzgmqh9lhrqw5jff2",
      "value": 9999
    }
  ],
  "size": 306,
  "weight": 588,
  "fee": 2205,
  "status": {
    "confirmed": true,
    "block_height": 834464,
    "block_hash": "0000000000000000000177a0869a911a2b65c9bdcd5a8bcb02b68f305bee848e",
    "block_time": 1710308296
  },
  "hex": "010000000001013c212634b00f99fce5e8216cc71126632b711561a6a46538cedb84408b888888000000000000000000010f27000000000000225120b9fca91a73c757f9f9a106ebd267033b437430c58cd8c9521db9048d82e5fdc603402fffaf02f6319cf94419a4dfdaeb1b96c2abbebc145dd23e05d805f7de9d91ff51bec5e73dbefe4860796a7c1380d7c4289db2700aeacc69d0eb1b084d6c005a6d20dfa7325ed77fab28d796d113dcead29a7490c58aaa244f71cf02d52f6b761081ac00630461746f6d03646d743ea16461726773a46474696d651a65dec5ae656e6f6e63650068626974776f726b6367383838383838386b6d696e745f7469636b657268696e66696e6974796821c1dfa7325ed77fab28d796d113dcead29a7490c58aaa244f71cf02d52f6b76108100000000"
}