{
  "txid": "4745a9c3ae1c1b4a2ed9ae0c2e9d476d65565e6a44454f58a33c82485c99b18b",
  "version": 2,
  "locktime": 0,
  "vin": [
    {
      "txid": "cff18b4559633437c6b86c4dda97cfb257bbb38034c432a508417c66c18b6b72",
      "vout": 32,
      "prevout": {
        "scriptpubkey": "51207112eb65ccb5e18f738c7c2e042f0d552674fcf16aebfd4365e54e025512d064",
        "scriptpubkey_asm": "OP_PUSHNUM_1 OP_PUSHBYTES_32 7112eb65ccb5e18f738c7c2e042f0d552674fcf16aebfd4365e54e025512d064",
        "scriptpubkey_type": "v1_p2tr",
        "scriptpubkey_address": "bc1pwyfwkewvkhsc7uuv0shqgtcd25n8fl83dt4l6sm9u48qy4gj6pjq7cl9vg",
        "value": 3618
      },
      "scriptsig": "",
      "scriptsig_asm": "",
      "witness": [
        "129a7aea834722e1b583a15eecc74eae6ce5ea61e645f31da929093cea9f1c660d558f35b8b22f8a5ef317ad0b1484f49194c651421584879410c269548317b4",
        "203005987144f7730cbe2ef4a4f2071d9a236c9d0001ce8d862ff32c60ba94f1daac0063036f726401011e6170706c69636174696f6e2f6a736f6e3b636861727365743d7574662d38004cd27b2270223a22706f772d3230222c226f70223a226d696e74222c227469636b223a2250455045222c22616d74223a2231303030222c22736f6c7574696f6e223a22504550453a6263317077687170676e37766634707478386574387339353863796b6a6338306130393377387733716d6d6737726c39717177616c6a37733339766c36733a303030303030303030303030303030303030303139393431613561653132383937363539383134343239323533333030353762306461393666336465613163353a38343734343432373337227d68",
        "c1260555bf4608a4bfce181158d7f81c023e0988279add2c55cd9091c8ce8f4140"
      ],
      "is_coinbase": false,
      "sequence": 4294967295
    }
  ],
  "vout": [
    {
      "scriptpubkey": "512075c0144fcc4d42b31f2b3c0b43e096960efebcb171dd106f68f0fe5001ddfcbd",
      "scriptpubkey_asm": "OP_PUSHNUM_1 OP_PUSHBYTES_32 75c0144fcc4d42b31f2b3c0b43e096960efebcb171dd106f68f0fe5001ddfcbd",
      "scriptpubkey_type": "v1_p2tr",
      "scriptpubkey_address": "bc1pwhqpgn7vf4ptx8et8s958cykjc80a093w8w3qmmg7rl9qqwalj7s39vl6s",
      "value": 546
    }
  ],
  "size": 486,
  "weight": 768,
  "fee": 3072,
  "status": {
    "confirmed": true,
    "block_height": 834460,
    "block_hash": "00000000000000000000484a79b643b2524bbce82e5d8a442013fa5b8905ed98",
    "block_time": 1710307468
  },
  "hex": "02000000000101726b8bc1667c4108a532c43480b3bb57b2cf97da4d6cb8c637346359458bf1cf2000000000ffffffff01220200000000000022512075c0144fcc4d42b31f2b3c0b43e096960efebcb171dd106f68f0fe5001ddfcbd0340129a7aea834722e1b583a15eecc74eae6ce5ea61e645f31da929093cea9f1c660d558f35b8b22f8a5ef317ad0b1484f49194c651421584879410c269548317b4fd1f01203005987144f7730cbe2ef4a4f2071d9a236c9d0001ce8d862ff32c60ba94f1daac0063036f726401011e6170706c69636174696f6e2f6a736f6e3b636861727365743d7574662d38004cd27b2270223a22706f772d3230222c226f70223a226d696e74222c227469636b223a2250455045222c22616d74223a2231303030222c22736f6c7574696f6e223a22504550453a6263317077687170676e37766634707478386574387339353863796b6a6338306130393377387733716d6d6737726c39717177616c6a37733339766c36733a303030303030303030303030303030303030303139393431613561653132383937363539383134343239323533333030353762306461393666336465613163353a38343734343432373337227d6821c1260555bf4608a4bfce181158d7f81c023e0988279add2c55cd9091c8ce8f414000000000"
}