{
  "txid": "474b515155bdd00ef7f4e4e025825e6f9fb8fc0a26e24d1043d071807a847a68",
  "version": 2,
  "locktime": 0,
  "vin": [
    {
      "txid": "30ace45e89eb83ae57d40393066810a741ff0248003157ee818184b7b3a4aa93",
      "vout": 5,
      "prevout": {
        "scriptpubkey": "00149f8865f29b89522c2ea05e47c5d88abbe5833baf",
        "scriptpubkey_asm": "OP_0 OP_PUSHBYTES_20 9f8865f29b89522c2ea05e47c5d88abbe5833baf",
        "scriptpubkey_type": "v0_p2wpkh",
        "scriptpubkey_address": "bc1qn7yxtu5m39fzct4qterutky2h0jcxwa02jq540",
        "value": 3496972
      },
      "scriptsig": "",
      "scriptsig_asm": "",
      "witness": [
        "304402207959e2539e7e4d5116307db49fcca9cf2b3f88e87767b55510ee32e98c5d6ba702202cb475d0f1b0e95eca76f6e84de14703bb8774c8a50351d0e0ab9921efc503c701",
        "02862d6795e93e0dd276b606cf2b9990c6670df88233d85d53e3c540bac77b7afd"
      ],
      "is_coinbase": false,
      "sequence": 4294967295
    }
  ],
  "vout": [
    {
      "scriptpubkey": "a9149bf4f4480cdf81cba5f115ff0fe42036665ab71d87",
      "scriptpubkey_asm": "OP_HASH160 OP_PUSHBYTES_20 9bf4f4480cdf81cba5f115ff0fe42036665ab71d OP_EQUAL",
      "scriptpubkey_type": "p2sh",
      "scriptpubkey_address": "3Fue6zgdXpExn5o624z8p5Gr6WUAoM7ZbJ",
      "value": 3053600
    },
    {
      "scriptpubkey": "0014a1153b35117f2aaac8ae686594b34f6a7c90076d",
      "scriptpubkey_asm": "OP_0 OP_PUSHBYTES_20 a1153b35117f2aaac8ae686594b34f6a7c90076d",
      "scriptpubkey_type": "v0_p2wpkh",
      "scriptpubkey_address": "bc1q5y2nkdg30u424j9wdpjefv60df7fqpmd278yda",
      "value": 441835
    }
  ],
  "size": 223,
  "weight": 565,
  "fee": 1537,
  "status": {
    "confirmed": true,
    "block_height": 834464,
    "block_hash": "0000000000000000000177a0869a911a2b65c9bdcd5a8bcb02b68f305bee848e",
    "block_time": 1710308296
  },
  "hex": "0200000000010193aaa4b3b7848181ee5731004802ff41a71068069303d457ae83eb895ee4ac300500000000ffffffff0220982e000000000017a9149bf4f4480cdf81cba5f115ff0fe42036665ab71d87ebbd060000000000160014a1153b35117f2aaac8ae686594b34f6a7c90076d0247304402207959e2539e7e4d5116307db49fcca9cf2b3f88e87767b55510ee32e98c5d6ba702202cb475d0f1b0e95eca76f6e84de14703bb8774c8a50351d0e0ab9921efc503c7012102862d6795e93e0dd276b606cf2b9990c6670df88233d85d53e3c540bac77b7afd00000000"
}