{
  "txid": "4774b79f811437fa091a466403e405564086f879d2dc01f45a589726d8a6f752",
  "version": 1,
  "locktime": 0,
  "vin": [
    {
      "txid": "69f92712a531e840866d05e425808df5f19b2187d8983af63d6019f49669b4e1",
      "vout": 0,
      "prevout": {
        "scriptpubkey": "5120a19b1b77b2f7a0c9d31125816998c9c6aa6b06fe6018214dc7f239d14fba6eb0",
        "scriptpubkey_asm": "OP_PUSHNUM_1 OP_PUSHBYTES_32 a19b1b77b2f7a0c9d31125816998c9c6aa6b06fe6018214dc7f239d14fba6eb0",
        "scriptpubkey_type": "v1_p2tr",
        "scriptpubkey_address": "bc1p5xd3kaaj77svn5c3ykqknxxfc64xkph7vqvzznw87guazna6d6cqpsc7uq",
        "value": 5000
      },
      "scriptsig": "",
      "scriptsig_asm": "",
      "witness": [
        "72a1e9f0e3bcf7c3d18225a5bffabc9ba43eff14183ea79daed63aee37669199c49a803a73a18c52716b5af94b3ebb509e5c1b8184aaaf6798fc48f63cc5bdb501"
      ],
      "is_coinbase": false,
      "sequence": 4294967295
    }
  ],
  "vout": [
    {
      "scriptpubkey": "51203b0908ae0e308474966491630c49da1df15ece1071e87610354fa3f9c40b5213",
      "scriptpubkey_asm": "OP_PUSHNUM_1 OP_PUSHBYTES_32 3b0908ae0e308474966491630c49da1df15ece1071e87610354fa3f9c40b5213",
      "scriptpubkey_type": "v1_p2tr",
      "scriptpubkey_address": "bc1p8vys3tswxzz8f9nyj93scjw6rhc4anssw858vyp4f73ln3qt2gfspqyndn",
      "value": 1149
    },
    {
      "scriptpubkey": "a914a63157e42dfe491e9ee8c72b635c721c58387f3787",
      "scriptpubkey_asm": "OP_HASH160 OP_PUSHBYTES_20 a63157e42dfe491e9ee8c72b635c721c58387f37 OP_EQUAL",
      "scriptpubkey_type": "p2sh",
      "scriptpubkey_address": "3GqmCpdLaM1ddYKefNymkQtXAanufcvo67",
      "value": 1363
    }
  ],
  "size": 195,
  "weight": 573,
  "fee": 2488,
  "status": {
    "confirmed": true,
    "block_height": 834638,
    "block_hash": "000000000000000000025f742c626208ac87e0b7d15054abb4a19ca2d735a54e",
    "block_time": 1710405325
  },
  "hex": "01000000000101e1b46996f419603df63a98d887219bf1f58d8025e4056d8640e831a51227f9690000000000ffffffff027d040000000000002251203b0908ae0e308474966491630c49da1df15ece1071e87610354fa3f9c40b5213530500000000000017a914a63157e42dfe491e9ee8c72b635c721c58387f3787014172a1e9f0e3bcf7c3d18225a5bffabc9ba43eff14183ea79daed63aee37669199c49a803a73a18c52716b5af94b3ebb509e5c1b8184aaaf6798fc48f63cc5bdb50100000000"
}