{
  "txid": "47839b8e6883550bdba2c65499c04054a34cef6a15cce006d8e93fdaa536c04e",
  "version": 2,
  "locktime": 0,
  "vin": [
    {
      "txid": "0c3beccdb84301165d8a0d47b7fbea09ea10ec510db28d17307d57648a6b614b",
      "vout": 0,
      "prevout": {
        "scriptpubkey": "51207debfc2edf055a2ec0dc1c0b0c398acb264e097aa4a4c4f79df41ecc65c00302",
        "scriptpubkey_asm": "OP_PUSHNUM_1 OP_PUSHBYTES_32 7debfc2edf055a2ec0dc1c0b0c398acb264e097aa4a4c4f79df41ecc65c00302",
        "scriptpubkey_type": "v1_p2tr",
        "scriptpubkey_address": "bc1p0h4lctklq4dzasxurs9scwv2evnyuzt65jjvfaua7s0vcewqqvpq5frwzf",
        "value": 9112
      },
      "scriptsig": "",
      "scriptsig_asm": "",
      "witness": [
        "7d29459b8d3c30d1367ab030c26b8dda40b0a606a828d5fd6e2bde21991fc36a801ead96dc7def8713da482e9586a3ddc6b906bb7dfddaac56cf5602ee699e93"
      ],
      "is_coinbase": false,
      "sequence": 4294967293
    },
    {
      "txid": "3ab948e99cd754aed9a460a735a6ddbd179bf0ddd7aabd93334cac20c84bfed0",
      "vout": 1,
      "prevout": {
        "scriptpubkey": "a914b2fa659bc67b9d1b6cd831285531e65cadfbee7287",
        "scriptpubkey_asm": "OP_HASH160 OP_PUSHBYTES_20 b2fa659bc67b9d1b6cd831285531e65cadfbee72 OP_EQUAL",
        "scriptpubkey_type": "p2sh",
        "scriptpubkey_address": "3J1NAa7dwSQSQPEc2WoWHDs8k8UvZP2srg",
        "value": 27158
      },
      "scriptsig": "160014ae60e56b4512c235b0fea74e94a3d58566ba13fc",
      "scriptsig_asm": "OP_PUSHBYTES_22 0014ae60e56b4512c235b0fea74e94a3d58566ba13fc",
      "witness": [
        "3044022011f37a8ff1316393e224496f88ba2f2911d6b6c415c5fa4e84be84aebd537fa202201be754b13f900911f89b382757b268810ff5cc6c0f7200f9a81173ba5025726701",
        "030e2d491249e58ebb4edc5a1d20e313b109af133689426a02c22dbc29a0a2ef29"
      ],
      "is_coinbase": false,
      "sequence": 4294967293,
      "inner_redeemscript_asm": "OP_0 OP_PUSHBYTES_20 ae60e56b4512c235b0fea74e94a3d58566ba13fc"
    }
  ],
  "vout": [
    {
      "scriptpubkey": "51202e55c480f69785b0b51146ff6475143dab67168ccf87e0b7e0f11af7e74dfbea",
      "scriptpubkey_asm": "OP_PUSHNUM_1 OP_PUSHBYTES_32 2e55c480f69785b0b51146ff6475143dab67168ccf87e0b7e0f11af7e74dfbea",
      "scriptpubkey_type": "v1_p2tr",
      "scriptpubkey_address": "bc1p9e2ufq8kj7zmpdg3gmlkgag58k4kw95ve7r7pdlq7yd00e6dl04qtsaluf",
      "value": 9112
    },
    {
      "scriptpubkey": "a914b2fa659bc67b9d1b6cd831285531e65cadfbee7287",
      "scriptpubkey_asm": "OP_HASH160 OP_PUSHBYTES_20 b2fa659bc67b9d1b6cd831285531e65cadfbee72 OP_EQUAL",
      "scriptpubkey_type": "p2sh",
      "scriptpubkey_address": "3J1NAa7dwSQSQPEc2WoWHDs8k8UvZP2srg",
      "value": 23406
    }
  ],
  "size": 365,
  "weight": 935,
  "fee": 3752,
  "status": {
    "confirmed": true,
    "block_height": 834638,
    "block_hash": "000000000000000000025f742c626208ac87e0b7d15054abb4a19ca2d735a54e",
    "block_time": 1710405325
  },
  "hex": "020000000001024b616b8a64577d30178db20d51ec10ea09eafbb7470d8a5d160143b8cdec3b0c0000000000fdffffffd0fe4bc820ac4c3393bdaad7ddf09b17bddda635a760a4d9ae54d79ce948b93a0100000017160014ae60e56b4512c235b0fea74e94a3d58566ba13fcfdffffff0298230000000000002251202e55c480f69785b0b51146ff6475143dab67168ccf87e0b7e0f11af7e74dfbea6e5b00000000000017a914b2fa659bc67b9d1b6cd831285531e65cadfbee728701407d29459b8d3c30d1367ab030c26b8dda40b0a606a828d5fd6e2bde21991fc36a801ead96dc7def8713da482e9586a3ddc6b906bb7dfddaac56cf5602ee699e9302473044022011f37a8ff1316393e224496f88ba2f2911d6b6c415c5fa4e84be84aebd537fa202201be754b13f900911f89b382757b268810ff5cc6c0f7200f9a81173ba502572670121030e2d491249e58ebb4edc5a1d20e313b109af133689426a02c22dbc29a0a2ef2900000000"
}