{
  "txid": "4783725c77e2d0e90d4ae4656c69c1b54a264685a8d0180d8b412397962f2aed",
  "version": 2,
  "locktime": 0,
  "vin": [
    {
      "txid": "12cdd1a18d63022672b895506f4a1e3332da5e9a7cd2cd63fe2ac84126b5c10d",
      "vout": 2,
      "prevout": {
        "scriptpubkey": "5120b45b2f1be9c7a002d8587544ff431c2ad3f042b1daef22cca82401b757d79bd4",
        "scriptpubkey_asm": "OP_PUSHNUM_1 OP_PUSHBYTES_32 b45b2f1be9c7a002d8587544ff431c2ad3f042b1daef22cca82401b757d79bd4",
        "scriptpubkey_type": "v1_p2tr",
        "scriptpubkey_address": "bc1pk3dj7xlfc7sq9kzcw4z07scu9tflqs43mthj9n9gysqmw47hn02qw56cwf",
        "value": 2002
      },
      "scriptsig": "",
      "scriptsig_asm": "",
      "witness": [
        "479d30bc363b419df558cc4ec9fc9e6474efc32ad4c2ba62ef0db9397145fe0129223fe8170d640bb0cb2856dd5485cd46bfe7e4dfbcbcf91131e267369aec4c",
        "20a2f1176fbe5c406a80051582adb99e75eac572f12a39710e8609f09f6c46ff7dac0063036f7264010118746578742f706c61696e3b636861727365743d7574662d3800387b2270223a226272632d3230222c226f70223a227472616e73666572222c227469636b223a2242657466222c22616d74223a22313030227d68",
        "c0a2f1176fbe5c406a80051582adb99e75eac572f12a39710e8609f09f6c46ff7d"
      ],
      "is_coinbase": false,
      "sequence": 4294967293
    }
  ],
  "vout": [
    {
      "scriptpubkey": "512005b84998e539f86ac7dbd35f11d70c7c0439cc3826f25a0fb538576455312461",
      "scriptpubkey_asm": "OP_PUSHNUM_1 OP_PUSHBYTES_32 05b84998e539f86ac7dbd35f11d70c7c0439cc3826f25a0fb538576455312461",
      "scriptpubkey_type": "v1_p2tr",
      "scriptpubkey_address": "bc1pqkuynx8988ux437m6d03r4cv0szrnnpcyme95ra48ptkg4f3y3ssd07pam",
      "value": 330
    }
  ],
  "size": 323,
  "weight": 605,
  "fee": 1672,
  "status": {
    "confirmed": true,
    "block_height": 834464,
    "block_hash": "0000000000000000000177a0869a911a2b65c9bdcd5a8bcb02b68f305bee848e",
    "block_time": 1710308296
  },
  "hex": "020000000001010dc1b52641c82afe63cdd27c9a5eda32331e4a6f5095b8722602638da1d1cd120200000000fdffffff014a0100000000000022512005b84998e539f86ac7dbd35f11d70c7c0439cc3826f25a0fb5385764553124610340479d30bc363b419df558cc4ec9fc9e6474efc32ad4c2ba62ef0db9397145fe0129223fe8170d640bb0cb2856dd5485cd46bfe7e4dfbcbcf91131e267369aec4c7e20a2f1176fbe5c406a80051582adb99e75eac572f12a39710e8609f09f6c46ff7dac0063036f7264010118746578742f706c61696e3b636861727365743d7574662d3800387b2270223a226272632d3230222c226f70223a227472616e73666572222c227469636b223a2242657466222c22616d74223a22313030227d6821c0a2f1176fbe5c406a80051582adb99e75eac572f12a39710e8609f09f6c46ff7d00000000"
}