{
  "txid": "47973698d9a0e0d4238e0d27c3afaa9aac5fd5eeb837548ed46e879b4fe58951",
  "version": 2,
  "locktime": 0,
  "vin": [
    {
      "txid": "0ad82719c5568c4acd81b83e609db57306639901211bd5a5b68a6fc3de4e1473",
      "vout": 3,
      "prevout": {
        "scriptpubkey": "5120cd47d5c737e894b28b363936aebf7612a8ed8b746a9eac9519b8e8a75cb6de54",
        "scriptpubkey_asm": "OP_PUSHNUM_1 OP_PUSHBYTES_32 cd47d5c737e894b28b363936aebf7612a8ed8b746a9eac9519b8e8a75cb6de54",
        "scriptpubkey_type": "v1_p2tr",
        "scriptpubkey_address": "bc1pe4rat3ehaz2t9zek8ym2a0mkz25wmzm5d202e9gehr52wh9kme2q208syk",
        "value": 2834
      },
      "scriptsig": "",
      "scriptsig_asm": "",
      "witness": [
        "c753149b3b8ce5deddec24fa4ca4650ea580e5c1159931a50087b67803356d8ab9b22601c5f5d7867a0647da97542b78de6a0b3a96971e1527ad2161330aa193",
        "2019079b5d3ebbb3d20f5fd58bce50164de34a62d7d1b637ea9a0b5f88f832e4d7ac0063036f726401011e6170706c69636174696f6e2f6a736f6e3b636861727365743d7574662d38004cbf7b2270223a22706f772d3230222c226f70223a226d696e74222c227469636b223a2250455045222c22616d74223a2231303030222c22736f6c7574696f6e223a22504550453a6263317173637064736c337671777466366a733538786832307637717775716839336e777737783763793a303030303030303030303030303030303030303139393431613561653132383937363539383134343239323533333030353762306461393666336465613163353a3230313636393138333839227d68",
        "c1962df30d9be27fcd73fd9a4053b3728334e273f9929aba028483b2e810075667"
      ],
      "is_coinbase": false,
      "sequence": 4294967295
    }
  ],
  "vout": [
    {
      "scriptpubkey": "00148602d87e2c03969d4a1439aea7b3c0770172c66e",
      "scriptpubkey_asm": "OP_0 OP_PUSHBYTES_20 8602d87e2c03969d4a1439aea7b3c0770172c66e",
      "scriptpubkey_type": "v0_p2wpkh",
      "scriptpubkey_address": "bc1qscpdsl3vqwtf6js58xh20v7qwuqh93nww7x7cy",
      "value": 546
    }
  ],
  "size": 455,
  "weight": 701,
  "fee": 2288,
  "status": {
    "confirmed": true,
    "block_height": 834460,
    "block_hash": "00000000000000000000484a79b643b2524bbce82e5d8a442013fa5b8905ed98",
    "block_time": 1710307468
  },
  "hex": "0200000000010173144edec36f8ab6a5d51b210199630673b59d603eb881cd4a8c56c51927d80a0300000000ffffffff0122020000000000001600148602d87e2c03969d4a1439aea7b3c0770172c66e0340c753149b3b8ce5deddec24fa4ca4650ea580e5c1159931a50087b67803356d8ab9b22601c5f5d7867a0647da97542b78de6a0b3a96971e1527ad2161330aa193fd0c012019079b5d3ebbb3d20f5fd58bce50164de34a62d7d1b637ea9a0b5f88f832e4d7ac0063036f726401011e6170706c69636174696f6e2f6a736f6e3b636861727365743d7574662d38004cbf7b2270223a22706f772d3230222c226f70223a226d696e74222c227469636b223a2250455045222c22616d74223a2231303030222c22736f6c7574696f6e223a22504550453a6263317173637064736c337671777466366a733538786832307637717775716839336e777737783763793a303030303030303030303030303030303030303139393431613561653132383937363539383134343239323533333030353762306461393666336465613163353a3230313636393138333839227d6821c1962df30d9be27fcd73fd9a4053b3728334e273f9929aba028483b2e81007566700000000"
}