{
  "txid": "47a157bc3749e388fd638575c3d7fc0346a11de33f5503a1398fcfe9a9326fac",
  "version": 2,
  "locktime": 0,
  "vin": [
    {
      "txid": "9c10b007d2133e013cafef64d1faa7fec4afc4908ff78aa73222c05d55f4b3b4",
      "vout": 30,
      "prevout": {
        "scriptpubkey": "5120f4abfb7bc555b358b1ce4849e9a4279af24b6ea3f6b2866fae549ef3b09760cc",
        "scriptpubkey_asm": "OP_PUSHNUM_1 OP_PUSHBYTES_32 f4abfb7bc555b358b1ce4849e9a4279af24b6ea3f6b2866fae549ef3b09760cc",
        "scriptpubkey_type": "v1_p2tr",
        "scriptpubkey_address": "bc1p7j4lk7792ke43vwwfpy7nfp8nteykm4r76egvmaw2j008vyhvrxqj393g0",
        "value": 3234
      },
      "scriptsig": "",
      "scriptsig_asm": "",
      "witness": [
        "0b20f29c40276905a5466046feafcfa2b9484aefa9b5acdebc6e64214c863cd05ecbfff98c4ba2e90fcaa98bb7cf7c05fca652f3889953b17f9fefe8c93e28c7",
        "2023faa84bdfb4a69d086871afe7141b3120822f94aa54530785020b3ccb623d52ac0063036f726401011e6170706c69636174696f6e2f6a736f6e3b636861727365743d7574662d38004cd27b2270223a22706f772d3230222c226f70223a226d696e74222c227469636b223a2250455045222c22616d74223a2231303030222c22736f6c7574696f6e223a22504550453a62633170636a65387233733875656e746d64767a6e34777337786d3836367879707535756139357371796877756835616d61677565367a73707a733637713a303030303030303030303030303030303030303139393431613561653132383937363539383134343239323533333030353762306461393666336465613163353a36373439303632313338227d68",
        "c03e1a296467c00ef4aae3d2c5b2725c238a71cd400892ce19de6d969e3f5bb91e"
      ],
      "is_coinbase": false,
      "sequence": 4294967295
    }
  ],
  "vout": [
    {
      "scriptpubkey": "5120c4b271c607e666bdb5829d5d0f1b67d68c40f29ce9690012eee5e9ddf51cce85",
      "scriptpubkey_asm": "OP_PUSHNUM_1 OP_PUSHBYTES_32 c4b271c607e666bdb5829d5d0f1b67d68c40f29ce9690012eee5e9ddf51cce85",
      "scriptpubkey_type": "v1_p2tr",
      "scriptpubkey_address": "bc1pcje8r3s8uentmdvzn4ws7xm866xypu5ua95sqyhwuh5amague6zspzs67q",
      "value": 546
    }
  ],
  "size": 486,
  "weight": 768,
  "fee": 2688,
  "status": {
    "confirmed": true,
    "block_height": 834460,
    "block_hash": "00000000000000000000484a79b643b2524bbce82e5d8a442013fa5b8905ed98",
    "block_time": 1710307468
  },
  "hex": "02000000000101b4b3f4555dc02232a78af78f90c4afc4fea7fad164efaf3c013e13d207b0109c1e00000000ffffffff012202000000000000225120c4b271c607e666bdb5829d5d0f1b67d68c40f29ce9690012eee5e9ddf51cce8503400b20f29c40276905a5466046feafcfa2b9484aefa9b5acdebc6e64214c863cd05ecbfff98c4ba2e90fcaa98bb7cf7c05fca652f3889953b17f9fefe8c93e28c7fd1f012023faa84bdfb4a69d086871afe7141b3120822f94aa54530785020b3ccb623d52ac0063036f726401011e6170706c69636174696f6e2f6a736f6e3b636861727365743d7574662d38004cd27b2270223a22706f772d3230222c226f70223a226d696e74222c227469636b223a2250455045222c22616d74223a2231303030222c22736f6c7574696f6e223a22504550453a62633170636a65387233733875656e746d64767a6e34777337786d3836367879707535756139357371796877756835616d61677565367a73707a733637713a303030303030303030303030303030303030303139393431613561653132383937363539383134343239323533333030353762306461393666336465613163353a36373439303632313338227d6821c03e1a296467c00ef4aae3d2c5b2725c238a71cd400892ce19de6d969e3f5bb91e00000000"
}