{
  "txid": "47a4ff75b8b3f006c2651d78d50cb28eb7086bc5ee042774873e595dcefdedb4",
  "version": 2,
  "locktime": 834637,
  "vin": [
    {
      "txid": "74a2d23794c84fa5c0fe24b2ac6d9ba6836edc6862d454076134f04d47226ae6",
      "vout": 0,
      "prevout": {
        "scriptpubkey": "0014fc00a7bb3e0d6f513461b8980e15d41a4fd287b4",
        "scriptpubkey_asm": "OP_0 OP_PUSHBYTES_20 fc00a7bb3e0d6f513461b8980e15d41a4fd287b4",
        "scriptpubkey_type": "v0_p2wpkh",
        "scriptpubkey_address": "bc1qlsq20we7p4h4zdrphzvqu9w5rf8a9pa5a06dng",
        "value": 267888384
      },
      "scriptsig": "",
      "scriptsig_asm": "",
      "witness": [
        "304402204d5d6f5e103e205e9d06d4ebbfeb617ce9bd8de442a0505dde7c86e0ff80aae5022044f6c90fd9f2225ea432302b4e30a41a1f6bd22fb7a96c9c5b0fb68230b5cc3101",
        "0218d8b5b773bed00c04a252f6e86db6019569197d289bedb06bab77061ed88ac6"
      ],
      "is_coinbase": false,
      "sequence": 4294967294
    }
  ],
  "vout": [
    {
      "scriptpubkey": "a91495cc940dfde5f60e4e316e438613ea9fe88f9f5687",
      "scriptpubkey_asm": "OP_HASH160 OP_PUSHBYTES_20 95cc940dfde5f60e4e316e438613ea9fe88f9f56 OP_EQUAL",
      "scriptpubkey_type": "p2sh",
      "scriptpubkey_address": "3FM5gUiPy18Q75Y7rR3S1nF2DayzRna4dx",
      "value": 4129700
    },
    {
      "scriptpubkey": "0014068a24e3d80d35ec0e8b1d065d2e69f42a646702",
      "scriptpubkey_asm": "OP_0 OP_PUSHBYTES_20 068a24e3d80d35ec0e8b1d065d2e69f42a646702",
      "scriptpubkey_type": "v0_p2wpkh",
      "scriptpubkey_address": "bc1qq69zfc7cp567cr5tr5r96tnf7s4xgeczjn580t",
      "value": 263755204
    }
  ],
  "size": 223,
  "weight": 565,
  "fee": 3480,
  "status": {
    "confirmed": true,
    "block_height": 834638,
    "block_hash": "000000000000000000025f742c626208ac87e0b7d15054abb4a19ca2d735a54e",
    "block_time": 1710405325
  },
  "hex": "02000000000101e66a22474df034610754d46268dc6e83a69b6dacb224fec0a54fc89437d2a2740000000000feffffff02a4033f000000000017a91495cc940dfde5f60e4e316e438613ea9fe88f9f5687c495b80f00000000160014068a24e3d80d35ec0e8b1d065d2e69f42a6467020247304402204d5d6f5e103e205e9d06d4ebbfeb617ce9bd8de442a0505dde7c86e0ff80aae5022044f6c90fd9f2225ea432302b4e30a41a1f6bd22fb7a96c9c5b0fb68230b5cc3101210218d8b5b773bed00c04a252f6e86db6019569197d289bedb06bab77061ed88ac64dbc0c00"
}