{
  "txid": "47bc52671e583c08ffe129d2fa6180ea0d68ce8b92169d9d1f1453cdfbbd4e66",
  "version": 2,
  "locktime": 0,
  "vin": [
    {
      "txid": "50e124b95edb48df6402e50f2a35e456f5cda32cfb595f28af3a5b34ba6f8683",
      "vout": 1,
      "prevout": {
        "scriptpubkey": "5120ba545201c8542e5d880b151e04e52d62947d43fcaacd718a3d49f70ea6784c50",
        "scriptpubkey_asm": "OP_PUSHNUM_1 OP_PUSHBYTES_32 ba545201c8542e5d880b151e04e52d62947d43fcaacd718a3d49f70ea6784c50",
        "scriptpubkey_type": "v1_p2tr",
        "scriptpubkey_address": "bc1phf29yqwg2sh9mzqtz50qfefdv2286slu4txhrz3af8msafncf3gqpxzhr2",
        "value": 1527912
      },
      "scriptsig": "",
      "scriptsig_asm": "",
      "witness": [
        "bde356858267896002fbc923415d6c7b288db14e38903d3485e084815e038e34d6b48213212229c9e58f0b09717815ae42253f2c4e63a376ea797f67b8afa6f9"
      ],
      "is_coinbase": false,
      "sequence": 2147483649
    }
  ],
  "vout": [
    {
      "scriptpubkey": "0014a5d5324e1239b2b91e1930c68a524581fcb952a9",
      "scriptpubkey_asm": "OP_0 OP_PUSHBYTES_20 a5d5324e1239b2b91e1930c68a524581fcb952a9",
      "scriptpubkey_type": "v0_p2wpkh",
      "scriptpubkey_address": "bc1q5h2nynsj8xetj8sexrrg55j9s87tj54fenv3m6",
      "value": 70000
    },
    {
      "scriptpubkey": "5120ba545201c8542e5d880b151e04e52d62947d43fcaacd718a3d49f70ea6784c50",
      "scriptpubkey_asm": "OP_PUSHNUM_1 OP_PUSHBYTES_32 ba545201c8542e5d880b151e04e52d62947d43fcaacd718a3d49f70ea6784c50",
      "scriptpubkey_type": "v1_p2tr",
      "scriptpubkey_address": "bc1phf29yqwg2sh9mzqtz50qfefdv2286slu4txhrz3af8msafncf3gqpxzhr2",
      "value": 1455498
    }
  ],
  "size": 193,
  "weight": 568,
  "fee": 2414,
  "status": {
    "confirmed": true,
    "block_height": 834638,
    "block_hash": "000000000000000000025f742c626208ac87e0b7d15054abb4a19ca2d735a54e",
    "block_time": 1710405325
  },
  "hex": "0200000000010183866fba345b3aaf285f59fb2ca3cdf556e4352a0fe50264df48db5eb924e150010000000001000080027011010000000000160014a5d5324e1239b2b91e1930c68a524581fcb952a98a35160000000000225120ba545201c8542e5d880b151e04e52d62947d43fcaacd718a3d49f70ea6784c500140bde356858267896002fbc923415d6c7b288db14e38903d3485e084815e038e34d6b48213212229c9e58f0b09717815ae42253f2c4e63a376ea797f67b8afa6f900000000"
}