{
  "txid": "47e49fb45d2940fd9e7a905cb76e42b51ce1e69d7b990ea3807e56d1c4bc8cd5",
  "version": 2,
  "locktime": 0,
  "vin": [
    {
      "txid": "e221c00ae7e0f281186aba9ba95ba82decf4ed7fb9ca44cfaa55d8a565fa718a",
      "vout": 1,
      "prevout": {
        "scriptpubkey": "001402238ecb0e181baed0630e20c1d7792fec61ac51",
        "scriptpubkey_asm": "OP_0 OP_PUSHBYTES_20 02238ecb0e181baed0630e20c1d7792fec61ac51",
        "scriptpubkey_type": "v0_p2wpkh",
        "scriptpubkey_address": "bc1qqg3cajcwrqd6a5rrpcsvr4me9lkxrtz3l7a6a6",
        "value": 935635
      },
      "scriptsig": "",
      "scriptsig_asm": "",
      "witness": [
        "3044022060df1324d76ab79f629fefc89649b55ff169dfcf29d14782df6df6b054a6434e022023c1f51d0799b65fea35263f4610f8872449f07a5d14190424ab51fd43e30ade01",
        "025a1154b245e08df4b7e17b70a35a79889329b9a296fb26b3b7f69e46998a3e2e"
      ],
      "is_coinbase": false,
      "sequence": 4294967293
    }
  ],
  "vout": [
    {
      "scriptpubkey": "0014b89a44fbd1f9229fb3ff8c4c86d5bd7e77ef9a27",
      "scriptpubkey_asm": "OP_0 OP_PUSHBYTES_20 b89a44fbd1f9229fb3ff8c4c86d5bd7e77ef9a27",
      "scriptpubkey_type": "v0_p2wpkh",
      "scriptpubkey_address": "bc1qhzdyf773ly3flvll33xgd4da0em7lx38hax8yh",
      "value": 43000
    },
    {
      "scriptpubkey": "00142c9bcda388592e4ecae744e326a6c19a6cfca40b",
      "scriptpubkey_asm": "OP_0 OP_PUSHBYTES_20 2c9bcda388592e4ecae744e326a6c19a6cfca40b",
      "scriptpubkey_type": "v0_p2wpkh",
      "scriptpubkey_address": "bc1q9jdumgugtyhyajh8gn3jdfkpnfk0efqte5vqvu",
      "value": 889533
    }
  ],
  "size": 222,
  "weight": 561,
  "fee": 3102,
  "status": {
    "confirmed": true,
    "block_height": 834638,
    "block_hash": "000000000000000000025f742c626208ac87e0b7d15054abb4a19ca2d735a54e",
    "block_time": 1710405325
  },
  "hex": "020000000001018a71fa65a5d855aacf44cab97fedf4ec2da85ba99bba6a1881f2e0e70ac021e20100000000fdffffff02f8a7000000000000160014b89a44fbd1f9229fb3ff8c4c86d5bd7e77ef9a27bd920d00000000001600142c9bcda388592e4ecae744e326a6c19a6cfca40b02473044022060df1324d76ab79f629fefc89649b55ff169dfcf29d14782df6df6b054a6434e022023c1f51d0799b65fea35263f4610f8872449f07a5d14190424ab51fd43e30ade0121025a1154b245e08df4b7e17b70a35a79889329b9a296fb26b3b7f69e46998a3e2e00000000"
}