{
  "txid": "47eca767ef1806a13b3160dd02a4eab001b21b51b32bd7dc9b49384f168f9354",
  "version": 1,
  "locktime": 0,
  "vin": [
    {
      "txid": "e7f0d431d8b6fd97bc6c507dfd56b6aa86e5b3a4a22fc9e95bade90b1f520ddc",
      "vout": 186,
      "prevout": {
        "scriptpubkey": "00141ed09cc7acd892c3ea69c6d135b8af0becf3ea3f",
        "scriptpubkey_asm": "OP_0 OP_PUSHBYTES_20 1ed09cc7acd892c3ea69c6d135b8af0becf3ea3f",
        "scriptpubkey_type": "v0_p2wpkh",
        "scriptpubkey_address": "bc1qrmgfe3avmzfv86nfcmgntw90p0k0863lk45ywl",
        "value": 110735
      },
      "scriptsig": "",
      "scriptsig_asm": "",
      "witness": [
        "3044022074f6bb7cbc4422ca699b74e9eca7b1c98e18fed336441d1cf7e7276f6ca0d53702201c949871f32cc22ee55ca13795a41622d0df763534167085cace29cc6f88973c01",
        "02af8a7b74e6ddd0ab347652bbe101b058c34d342a11efea581e88ef8ed6a64098"
      ],
      "is_coinbase": false,
      "sequence": 4294967295
    },
    {
      "txid": "511542d2629969b89433eede230b8fa12ab818fd9f522820a826155128b41ee0",
      "vout": 1,
      "prevout": {
        "scriptpubkey": "001446af8fde15ff808451ad7ab8ca9c7a1a8828b8c1",
        "scriptpubkey_asm": "OP_0 OP_PUSHBYTES_20 46af8fde15ff808451ad7ab8ca9c7a1a8828b8c1",
        "scriptpubkey_type": "v0_p2wpkh",
        "scriptpubkey_address": "bc1qg6hclhs4l7qgg5dd02uv48r6r2yz3wxpcz92rr",
        "value": 924
      },
      "scriptsig": "",
      "scriptsig_asm": "",
      "witness": [
        "3044022073eac36d668a0556805637aa15d9d87a3c9b48e1453f7da3aeb6908279fdfc9702203285bc16ff9f31bc9b03a8d4c015732e24f19cfd3e10da01ce294c90026905cb01",
        "0317d99ffefdf6902125cec9edeef31caef1650af494fdb8fc4c20ca3b84b7c05b"
      ],
      "is_coinbase": false,
      "sequence": 4294967295
    }
  ],
  "vout": [
    {
      "scriptpubkey": "a9145d195a1ce082b73f2bdb2f36a17e7c30d4520f5e87",
      "scriptpubkey_asm": "OP_HASH160 OP_PUSHBYTES_20 5d195a1ce082b73f2bdb2f36a17e7c30d4520f5e OP_EQUAL",
      "scriptpubkey_type": "p2sh",
      "scriptpubkey_address": "3ABH8sXoM1yWFyCKgGi39n8EhAKdeqZtJv",
      "value": 108239
    }
  ],
  "size": 340,
  "weight": 712,
  "fee": 3420,
  "status": {
    "confirmed": true,
    "block_height": 834552,
    "block_hash": "00000000000000000001dd0468a70c94f619251d286585cff57aeb4bd9ede330",
    "block_time": 1710355598
  },
  "hex": "01000000000102dc0d521f0be9ad5be9c92fa2a4b3e586aab656fd7d506cbc97fdb6d831d4f0e7ba00000000ffffffffe01eb428511526a82028529ffd18b82aa18f0b23deee3394b8699962d24215510100000000ffffffff01cfa601000000000017a9145d195a1ce082b73f2bdb2f36a17e7c30d4520f5e8702473044022074f6bb7cbc4422ca699b74e9eca7b1c98e18fed336441d1cf7e7276f6ca0d53702201c949871f32cc22ee55ca13795a41622d0df763534167085cace29cc6f88973c012102af8a7b74e6ddd0ab347652bbe101b058c34d342a11efea581e88ef8ed6a6409802473044022073eac36d668a0556805637aa15d9d87a3c9b48e1453f7da3aeb6908279fdfc9702203285bc16ff9f31bc9b03a8d4c015732e24f19cfd3e10da01ce294c90026905cb01210317d99ffefdf6902125cec9edeef31caef1650af494fdb8fc4c20ca3b84b7c05b00000000"
}