{
  "txid": "47fc0375071435f151eafa8db1fcba9c8fcf2e1aba49c9d2a1395f157d7f2d32",
  "version": 2,
  "locktime": 0,
  "vin": [
    {
      "txid": "0adf18263cace014b3025819386312ecce9776a1e271f1404ea681ff685d5574",
      "vout": 0,
      "prevout": {
        "scriptpubkey": "00147fd53531b4ab406b13d132621978a35516c20918",
        "scriptpubkey_asm": "OP_0 OP_PUSHBYTES_20 7fd53531b4ab406b13d132621978a35516c20918",
        "scriptpubkey_type": "v0_p2wpkh",
        "scriptpubkey_address": "bc1q0l2n2vd54dqxky73xf3pj79r25tvyzgcgrpmm7",
        "value": 19237
      },
      "scriptsig": "",
      "scriptsig_asm": "",
      "witness": [
        "304402205d361d16e997de542cf6b6996daff2b9787b55518e80a1f475bb0e37f8b01b0e0220327ac359a0f406df5af0a36288c81d641db9db84a4d2fcc721ffe4f12977b62101",
        "02eae2d00a50ffcd75c1425a4b8a51aa2d6e3bfa9f7a4b540ef4a5e3abe30ff2aa"
      ],
      "is_coinbase": false,
      "sequence": 4294967293
    },
    {
      "txid": "352bb0a1eabd001e17b09515e763d06caa52f8960dc8c488890dfded61c86638",
      "vout": 3,
      "prevout": {
        "scriptpubkey": "00147fd53531b4ab406b13d132621978a35516c20918",
        "scriptpubkey_asm": "OP_0 OP_PUSHBYTES_20 7fd53531b4ab406b13d132621978a35516c20918",
        "scriptpubkey_type": "v0_p2wpkh",
        "scriptpubkey_address": "bc1q0l2n2vd54dqxky73xf3pj79r25tvyzgcgrpmm7",
        "value": 50327
      },
      "scriptsig": "",
      "scriptsig_asm": "",
      "witness": [
        "304402203c9958adae565acc2d02f527328d67ce2ed2c14e489299439794268227650fce0220544d1b9ea3f8eba2d6e9565e8a2bd448547e2ee024aaf2e9bab3e79b5925a4e101",
        "02eae2d00a50ffcd75c1425a4b8a51aa2d6e3bfa9f7a4b540ef4a5e3abe30ff2aa"
      ],
      "is_coinbase": false,
      "sequence": 4294967293
    }
  ],
  "vout": [
    {
      "scriptpubkey": "0014feebf889bdce2e18a743eec7b7f31e89f6babf4b",
      "scriptpubkey_asm": "OP_0 OP_PUSHBYTES_20 feebf889bdce2e18a743eec7b7f31e89f6babf4b",
      "scriptpubkey_type": "v0_p2wpkh",
      "scriptpubkey_address": "bc1qlm4l3zdaechp3f6ramrm0uc738mt406t8tdzuh",
      "value": 67653
    }
  ],
  "size": 339,
  "weight": 708,
  "fee": 1911,
  "status": {
    "confirmed": true,
    "block_height": 834464,
    "block_hash": "0000000000000000000177a0869a911a2b65c9bdcd5a8bcb02b68f305bee848e",
    "block_time": 1710308296
  },
  "hex": "0200000000010274555d68ff81a64e40f171e2a17697ceec126338195802b314e0ac3c2618df0a0000000000fdffffff3866c861edfd0d8988c4c80d96f852aa6cd063e71595b0171e00bdeaa1b02b350300000000fdffffff014508010000000000160014feebf889bdce2e18a743eec7b7f31e89f6babf4b0247304402205d361d16e997de542cf6b6996daff2b9787b55518e80a1f475bb0e37f8b01b0e0220327ac359a0f406df5af0a36288c81d641db9db84a4d2fcc721ffe4f12977b621012102eae2d00a50ffcd75c1425a4b8a51aa2d6e3bfa9f7a4b540ef4a5e3abe30ff2aa0247304402203c9958adae565acc2d02f527328d67ce2ed2c14e489299439794268227650fce0220544d1b9ea3f8eba2d6e9565e8a2bd448547e2ee024aaf2e9bab3e79b5925a4e1012102eae2d00a50ffcd75c1425a4b8a51aa2d6e3bfa9f7a4b540ef4a5e3abe30ff2aa00000000"
}