{
  "txid": "481d8c328debe15f933c5d933f95d4402bd443ce841cbcf1655ead76d0c1672b",
  "version": 2,
  "locktime": 0,
  "vin": [
    {
      "txid": "ec8036b917fd3a8affebe6dc0aabe9389d105b16c8123a374c2078da9869ce1f",
      "vout": 4,
      "prevout": {
        "scriptpubkey": "5120017206a6cbcc6a04e7f4dcdb995537e3e6d004a810a39f2d11001d5f81e8539f",
        "scriptpubkey_asm": "OP_PUSHNUM_1 OP_PUSHBYTES_32 017206a6cbcc6a04e7f4dcdb995537e3e6d004a810a39f2d11001d5f81e8539f",
        "scriptpubkey_type": "v1_p2tr",
        "scriptpubkey_address": "bc1pq9eqdfkte34qfel5mndej4fhu0ndqp9gzz3e7tg3qqw4lq0g2w0s6utlt6",
        "value": 9452116
      },
      "scriptsig": "",
      "scriptsig_asm": "",
      "witness": [
        "596826e44e34565c7fc205e4fbfd8e4006d3e527e64bafc71af6d4a4d59827c06f4dc2858c4b9020fdb542964ea7b2d25213d0398ad420c109d187c255bef474"
      ],
      "is_coinbase": false,
      "sequence": 4294967295
    }
  ],
  "vout": [
    {
      "scriptpubkey": "001448dfa704897f78fdfbc2b9534055dd9b219ef5a8",
      "scriptpubkey_asm": "OP_0 OP_PUSHBYTES_20 48dfa704897f78fdfbc2b9534055dd9b219ef5a8",
      "scriptpubkey_type": "v0_p2wpkh",
      "scriptpubkey_address": "bc1qfr06wpyf0au0m77zh9f5q4wanvseaadgq9qhf9",
      "value": 12499
    },
    {
      "scriptpubkey": "5120017206a6cbcc6a04e7f4dcdb995537e3e6d004a810a39f2d11001d5f81e8539f",
      "scriptpubkey_asm": "OP_PUSHNUM_1 OP_PUSHBYTES_32 017206a6cbcc6a04e7f4dcdb995537e3e6d004a810a39f2d11001d5f81e8539f",
      "scriptpubkey_type": "v1_p2tr",
      "scriptpubkey_address": "bc1pq9eqdfkte34qfel5mndej4fhu0ndqp9gzz3e7tg3qqw4lq0g2w0s6utlt6",
      "value": 9437913
    }
  ],
  "size": 193,
  "weight": 568,
  "fee": 1704,
  "status": {
    "confirmed": true,
    "block_height": 834460,
    "block_hash": "00000000000000000000484a79b643b2524bbce82e5d8a442013fa5b8905ed98",
    "block_time": 1710307468
  },
  "hex": "020000000001011fce6998da78204c373a12c8165b109d38e9ab0adce6ebff8a3afd17b93680ec0400000000ffffffff02d33000000000000016001448dfa704897f78fdfbc2b9534055dd9b219ef5a8d902900000000000225120017206a6cbcc6a04e7f4dcdb995537e3e6d004a810a39f2d11001d5f81e8539f0140596826e44e34565c7fc205e4fbfd8e4006d3e527e64bafc71af6d4a4d59827c06f4dc2858c4b9020fdb542964ea7b2d25213d0398ad420c109d187c255bef47400000000"
}