{
  "txid": "4829c36eea5f7dd0f8fcf2edf6f590e98831c14c3a2f373b8e293cd701348304",
  "version": 2,
  "locktime": 0,
  "vin": [
    {
      "txid": "d6d4c2b7c224e34ced602e01574ee611003cad4ca3895584d720c9f999e6d487",
      "vout": 0,
      "prevout": {
        "scriptpubkey": "5120a7581e287e1aded5da2174832b844967fc2e975bb158a4d09238c68f1dcef55f",
        "scriptpubkey_asm": "OP_PUSHNUM_1 OP_PUSHBYTES_32 a7581e287e1aded5da2174832b844967fc2e975bb158a4d09238c68f1dcef55f",
        "scriptpubkey_type": "v1_p2tr",
        "scriptpubkey_address": "bc1p5avpu2r7rt0dtk3pwjpjhpzfvl7za96mk9v2f5yj8rrg78ww740s6437ly",
        "value": 76202
      },
      "scriptsig": "",
      "scriptsig_asm": "",
      "witness": [
        "93d476cfefd320bc70119508973033c3715fa1372f87694cfe440c112286cf76061310db450241cd2d7c21716b137276011b7c3d939db5885d9db31423be4f78",
        "20e0b26c560fcb2defd29e586155317b788c1d9ed3daf30010f92c210a5e153de0ac0063036f726401010a746578742f706c61696e00367b2270223a226272632d3230222c227469636b223a2261616161222c226f70223a226d696e74222c22616d74223a223130303030227d68",
        "c0e0b26c560fcb2defd29e586155317b788c1d9ed3daf30010f92c210a5e153de0"
      ],
      "is_coinbase": false,
      "sequence": 4294967293
    }
  ],
  "vout": [
    {
      "scriptpubkey": "51206d684e8c994a9fc00a8d62628c6ba538906f08cd77f83338f3db7c4cfee5dd35",
      "scriptpubkey_asm": "OP_PUSHNUM_1 OP_PUSHBYTES_32 6d684e8c994a9fc00a8d62628c6ba538906f08cd77f83338f3db7c4cfee5dd35",
      "scriptpubkey_type": "v1_p2tr",
      "scriptpubkey_address": "bc1pd45yaryef20uqz5dvf3gc6a98zgx7zxdwlurxw8nmd7yelh9m56sslufrl",
      "value": 546
    },
    {
      "scriptpubkey": "5120a7581e287e1aded5da2174832b844967fc2e975bb158a4d09238c68f1dcef55f",
      "scriptpubkey_asm": "OP_PUSHNUM_1 OP_PUSHBYTES_32 a7581e287e1aded5da2174832b844967fc2e975bb158a4d09238c68f1dcef55f",
      "scriptpubkey_type": "v1_p2tr",
      "scriptpubkey_address": "bc1p5avpu2r7rt0dtk3pwjpjhpzfvl7za96mk9v2f5yj8rrg78ww740s6437ly",
      "value": 2461
    },
    {
      "scriptpubkey": "5120a7581e287e1aded5da2174832b844967fc2e975bb158a4d09238c68f1dcef55f",
      "scriptpubkey_asm": "OP_PUSHNUM_1 OP_PUSHBYTES_32 a7581e287e1aded5da2174832b844967fc2e975bb158a4d09238c68f1dcef55f",
      "scriptpubkey_type": "v1_p2tr",
      "scriptpubkey_address": "bc1p5avpu2r7rt0dtk3pwjpjhpzfvl7za96mk9v2f5yj8rrg78ww740s6437ly",
      "value": 2461
    },
    {
      "scriptpubkey": "5120a7581e287e1aded5da2174832b844967fc2e975bb158a4d09238c68f1dcef55f",
      "scriptpubkey_asm": "OP_PUSHNUM_1 OP_PUSHBYTES_32 a7581e287e1aded5da2174832b844967fc2e975bb158a4d09238c68f1dcef55f",
      "scriptpubkey_type": "v1_p2tr",
      "scriptpubkey_address": "bc1p5avpu2r7rt0dtk3pwjpjhpzfvl7za96mk9v2f5yj8rrg78ww740s6437ly",
      "value": 2461
    },
    {
      "scriptpubkey": "5120a7581e287e1aded5da2174832b844967fc2e975bb158a4d09238c68f1dcef55f",
      "scriptpubkey_asm": "OP_PUSHNUM_1 OP_PUSHBYTES_32 a7581e287e1aded5da2174832b844967fc2e975bb158a4d09238c68f1dcef55f",
      "scriptpubkey_type": "v1_p2tr",
      "scriptpubkey_address": "bc1p5avpu2r7rt0dtk3pwjpjhpzfvl7za96mk9v2f5yj8rrg78ww740s6437ly",
      "value": 2461
    },
    {
      "scriptpubkey": "5120a7581e287e1aded5da2174832b844967fc2e975bb158a4d09238c68f1dcef55f",
      "scriptpubkey_asm": "OP_PUSHNUM_1 OP_PUSHBYTES_32 a7581e287e1aded5da2174832b844967fc2e975bb158a4d09238c68f1dcef55f",
      "scriptpubkey_type": "v1_p2tr",
      "scriptpubkey_address": "bc1p5avpu2r7rt0dtk3pwjpjhpzfvl7za96mk9v2f5yj8rrg78ww740s6437ly",
      "value": 2461
    },
    {
      "scriptpubkey": "5120a7581e287e1aded5da2174832b844967fc2e975bb158a4d09238c68f1dcef55f",
      "scriptpubkey_asm": "OP_PUSHNUM_1 OP_PUSHBYTES_32 a7581e287e1aded5da2174832b844967fc2e975bb158a4d09238c68f1dcef55f",
      "scriptpubkey_type": "v1_p2tr",
      "scriptpubkey_address": "bc1p5avpu2r7rt0dtk3pwjpjhpzfvl7za96mk9v2f5yj8rrg78ww740s6437ly",
      "value": 2461
    },
    {
      "scriptpubkey": "5120a7581e287e1aded5da2174832b844967fc2e975bb158a4d09238c68f1dcef55f",
      "scriptpubkey_asm": "OP_PUSHNUM_1 OP_PUSHBYTES_32 a7581e287e1aded5da2174832b844967fc2e975bb158a4d09238c68f1dcef55f",
      "scriptpubkey_type": "v1_p2tr",
      "scriptpubkey_address": "bc1p5avpu2r7rt0dtk3pwjpjhpzfvl7za96mk9v2f5yj8rrg78ww740s6437ly",
      "value": 2461
    },
    {
      "scriptpubkey": "5120a7581e287e1aded5da2174832b844967fc2e975bb158a4d09238c68f1dcef55f",
      "scriptpubkey_asm": "OP_PUSHNUM_1 OP_PUSHBYTES_32 a7581e287e1aded5da2174832b844967fc2e975bb158a4d09238c68f1dcef55f",
      "scriptpubkey_type": "v1_p2tr",
      "scriptpubkey_address": "bc1p5avpu2r7rt0dtk3pwjpjhpzfvl7za96mk9v2f5yj8rrg78ww740s6437ly",
      "value": 2461
    },
    {
      "scriptpubkey": "5120a7581e287e1aded5da2174832b844967fc2e975bb158a4d09238c68f1dcef55f",
      "scriptpubkey_asm": "OP_PUSHNUM_1 OP_PUSHBYTES_32 a7581e287e1aded5da2174832b844967fc2e975bb158a4d09238c68f1dcef55f",
      "scriptpubkey_type": "v1_p2tr",
      "scriptpubkey_address": "bc1p5avpu2r7rt0dtk3pwjpjhpzfvl7za96mk9v2f5yj8rrg78ww740s6437ly",
      "value": 2461
    },
    {
      "scriptpubkey": "5120a7581e287e1aded5da2174832b844967fc2e975bb158a4d09238c68f1dcef55f",
      "scriptpubkey_asm": "OP_PUSHNUM_1 OP_PUSHBYTES_32 a7581e287e1aded5da2174832b844967fc2e975bb158a4d09238c68f1dcef55f",
      "scriptpubkey_type": "v1_p2tr",
      "scriptpubkey_address": "bc1p5avpu2r7rt0dtk3pwjpjhpzfvl7za96mk9v2f5yj8rrg78ww740s6437ly",
      "value": 2461
    },
    {
      "scriptpubkey": "5120a7581e287e1aded5da2174832b844967fc2e975bb158a4d09238c68f1dcef55f",
      "scriptpubkey_asm": "OP_PUSHNUM_1 OP_PUSHBYTES_32 a7581e287e1aded5da2174832b844967fc2e975bb158a4d09238c68f1dcef55f",
      "scriptpubkey_type": "v1_p2tr",
      "scriptpubkey_address": "bc1p5avpu2r7rt0dtk3pwjpjhpzfvl7za96mk9v2f5yj8rrg78ww740s6437ly",
      "value": 2461
    },
    {
      "scriptpubkey": "5120a7581e287e1aded5da2174832b844967fc2e975bb158a4d09238c68f1dcef55f",
      "scriptpubkey_asm": "OP_PUSHNUM_1 OP_PUSHBYTES_32 a7581e287e1aded5da2174832b844967fc2e975bb158a4d09238c68f1dcef55f",
      "scriptpubkey_type": "v1_p2tr",
      "scriptpubkey_address": "bc1p5avpu2r7rt0dtk3pwjpjhpzfvl7za96mk9v2f5yj8rrg78ww740s6437ly",
      "value": 2461
    },
    {
      "scriptpubkey": "5120a7581e287e1aded5da2174832b844967fc2e975bb158a4d09238c68f1dcef55f",
      "scriptpubkey_asm": "OP_PUSHNUM_1 OP_PUSHBYTES_32 a7581e287e1aded5da2174832b844967fc2e975bb158a4d09238c68f1dcef55f",
      "scriptpubkey_type": "v1_p2tr",
      "scriptpubkey_address": "bc1p5avpu2r7rt0dtk3pwjpjhpzfvl7za96mk9v2f5yj8rrg78ww740s6437ly",
      "value": 2461
    },
    {
      "scriptpubkey": "5120a7581e287e1aded5da2174832b844967fc2e975bb158a4d09238c68f1dcef55f",
      "scriptpubkey_asm": "OP_PUSHNUM_1 OP_PUSHBYTES_32 a7581e287e1aded5da2174832b844967fc2e975bb158a4d09238c68f1dcef55f",
      "scriptpubkey_type": "v1_p2tr",
      "scriptpubkey_address": "bc1p5avpu2r7rt0dtk3pwjpjhpzfvl7za96mk9v2f5yj8rrg78ww740s6437ly",
      "value": 2461
    },
    {
      "scriptpubkey": "5120a7581e287e1aded5da2174832b844967fc2e975bb158a4d09238c68f1dcef55f",
      "scriptpubkey_asm": "OP_PUSHNUM_1 OP_PUSHBYTES_32 a7581e287e1aded5da2174832b844967fc2e975bb158a4d09238c68f1dcef55f",
      "scriptpubkey_type": "v1_p2tr",
      "scriptpubkey_address": "bc1p5avpu2r7rt0dtk3pwjpjhpzfvl7za96mk9v2f5yj8rrg78ww740s6437ly",
      "value": 2461
    },
    {
      "scriptpubkey": "5120a7581e287e1aded5da2174832b844967fc2e975bb158a4d09238c68f1dcef55f",
      "scriptpubkey_asm": "OP_PUSHNUM_1 OP_PUSHBYTES_32 a7581e287e1aded5da2174832b844967fc2e975bb158a4d09238c68f1dcef55f",
      "scriptpubkey_type": "v1_p2tr",
      "scriptpubkey_address": "bc1p5avpu2r7rt0dtk3pwjpjhpzfvl7za96mk9v2f5yj8rrg78ww740s6437ly",
      "value": 2461
    },
    {
      "scriptpubkey": "5120a7581e287e1aded5da2174832b844967fc2e975bb158a4d09238c68f1dcef55f",
      "scriptpubkey_asm": "OP_PUSHNUM_1 OP_PUSHBYTES_32 a7581e287e1aded5da2174832b844967fc2e975bb158a4d09238c68f1dcef55f",
      "scriptpubkey_type": "v1_p2tr",
      "scriptpubkey_address": "bc1p5avpu2r7rt0dtk3pwjpjhpzfvl7za96mk9v2f5yj8rrg78ww740s6437ly",
      "value": 2461
    },
    {
      "scriptpubkey": "5120a7581e287e1aded5da2174832b844967fc2e975bb158a4d09238c68f1dcef55f",
      "scriptpubkey_asm": "OP_PUSHNUM_1 OP_PUSHBYTES_32 a7581e287e1aded5da2174832b844967fc2e975bb158a4d09238c68f1dcef55f",
      "scriptpubkey_type": "v1_p2tr",
      "scriptpubkey_address": "bc1p5avpu2r7rt0dtk3pwjpjhpzfvl7za96mk9v2f5yj8rrg78ww740s6437ly",
      "value": 2461
    },
    {
      "scriptpubkey": "5120a7581e287e1aded5da2174832b844967fc2e975bb158a4d09238c68f1dcef55f",
      "scriptpubkey_asm": "OP_PUSHNUM_1 OP_PUSHBYTES_32 a7581e287e1aded5da2174832b844967fc2e975bb158a4d09238c68f1dcef55f",
      "scriptpubkey_type": "v1_p2tr",
      "scriptpubkey_address": "bc1p5avpu2r7rt0dtk3pwjpjhpzfvl7za96mk9v2f5yj8rrg78ww740s6437ly",
      "value": 2461
    },
    {
      "scriptpubkey": "5120a7581e287e1aded5da2174832b844967fc2e975bb158a4d09238c68f1dcef55f",
      "scriptpubkey_asm": "OP_PUSHNUM_1 OP_PUSHBYTES_32 a7581e287e1aded5da2174832b844967fc2e975bb158a4d09238c68f1dcef55f",
      "scriptpubkey_type": "v1_p2tr",
      "scriptpubkey_address": "bc1p5avpu2r7rt0dtk3pwjpjhpzfvl7za96mk9v2f5yj8rrg78ww740s6437ly",
      "value": 2461
    },
    {
      "scriptpubkey": "5120a7581e287e1aded5da2174832b844967fc2e975bb158a4d09238c68f1dcef55f",
      "scriptpubkey_asm": "OP_PUSHNUM_1 OP_PUSHBYTES_32 a7581e287e1aded5da2174832b844967fc2e975bb158a4d09238c68f1dcef55f",
      "scriptpubkey_type": "v1_p2tr",
      "scriptpubkey_address": "bc1p5avpu2r7rt0dtk3pwjpjhpzfvl7za96mk9v2f5yj8rrg78ww740s6437ly",
      "value": 2461
    },
    {
      "scriptpubkey": "5120a7581e287e1aded5da2174832b844967fc2e975bb158a4d09238c68f1dcef55f",
      "scriptpubkey_asm": "OP_PUSHNUM_1 OP_PUSHBYTES_32 a7581e287e1aded5da2174832b844967fc2e975bb158a4d09238c68f1dcef55f",
      "scriptpubkey_type": "v1_p2tr",
      "scriptpubkey_address": "bc1p5avpu2r7rt0dtk3pwjpjhpzfvl7za96mk9v2f5yj8rrg78ww740s6437ly",
      "value": 2461
    },
    {
      "scriptpubkey": "0014862e9c37baad895d8cef4df215ca8fe9b36b93b8",
      "scriptpubkey_asm": "OP_0 OP_PUSHBYTES_20 862e9c37baad895d8cef4df215ca8fe9b36b93b8",
      "scriptpubkey_type": "v0_p2wpkh",
      "scriptpubkey_address": "bc1qschfcda64ky4mr80fheptj50axekhyacak9kqn",
      "value": 6889
    }
  ],
  "size": 1284,
  "weight": 4497,
  "fee": 14625,
  "status": {
    "confirmed": true,
    "block_height": 834464,
    "block_hash": "0000000000000000000177a0869a911a2b65c9bdcd5a8bcb02b68f305bee848e",
    "block_time": 1710308296
  },
  "hex": "0200000000010187d4e699f9c920d7845589a34cad3c0011e64e57012e60ed4ce324c2b7c2d4d60000000000fdffffff1822020000000000002251206d684e8c994a9fc00a8d62628c6ba538906f08cd77f83338f3db7c4cfee5dd359d09000000000000225120a7581e287e1aded5da2174832b844967fc2e975bb158a4d09238c68f1dcef55f9d09000000000000225120a7581e287e1aded5da2174832b844967fc2e975bb158a4d09238c68f1dcef55f9d09000000000000225120a7581e287e1aded5da2174832b844967fc2e975bb158a4d09238c68f1dcef55f9d09000000000000225120a7581e287e1aded5da2174832b844967fc2e975bb158a4d09238c68f1dcef55f9d09000000000000225120a7581e287e1aded5da2174832b844967fc2e975bb158a4d09238c68f1dcef55f9d09000000000000225120a7581e287e1aded5da2174832b844967fc2e975bb158a4d09238c68f1dcef55f9d09000000000000225120a7581e287e1aded5da2174832b844967fc2e975bb158a4d09238c68f1dcef55f9d09000000000000225120a7581e287e1aded5da2174832b844967fc2e975bb158a4d09238c68f1dcef55f9d09000000000000225120a7581e287e1aded5da2174832b844967fc2e975bb158a4d09238c68f1dcef55f9d09000000000000225120a7581e287e1aded5da2174832b844967fc2e975bb158a4d09238c68f1dcef55f9d09000000000000225120a7581e287e1aded5da2174832b844967fc2e975bb158a4d09238c68f1dcef55f9d09000000000000225120a7581e287e1aded5da2174832b844967fc2e975bb158a4d09238c68f1dcef55f9d09000000000000225120a7581e287e1aded5da2174832b844967fc2e975bb158a4d09238c68f1dcef55f9d09000000000000225120a7581e287e1aded5da2174832b844967fc2e975bb158a4d09238c68f1dcef55f9d09000000000000225120a7581e287e1aded5da2174832b844967fc2e975bb158a4d09238c68f1dcef55f9d09000000000000225120a7581e287e1aded5da2174832b844967fc2e975bb158a4d09238c68f1dcef55f9d09000000000000225120a7581e287e1aded5da2174832b844967fc2e975bb158a4d09238c68f1dcef55f9d09000000000000225120a7581e287e1aded5da2174832b844967fc2e975bb158a4d09238c68f1dcef55f9d09000000000000225120a7581e287e1aded5da2174832b844967fc2e975bb158a4d09238c68f1dcef55f9d09000000000000225120a7581e287e1aded5da2174832b844967fc2e975bb158a4d09238c68f1dcef55f9d09000000000000225120a7581e287e1aded5da2174832b844967fc2e975bb158a4d09238c68f1dcef55f9d09000000000000225120a7581e287e1aded5da2174832b844967fc2e975bb158a4d09238c68f1dcef55fe91a000000000000160014862e9c37baad895d8cef4df215ca8fe9b36b93b8034093d476cfefd320bc70119508973033c3715fa1372f87694cfe440c112286cf76061310db450241cd2d7c21716b137276011b7c3d939db5885d9db31423be4f786e20e0b26c560fcb2defd29e586155317b788c1d9ed3daf30010f92c210a5e153de0ac0063036f726401010a746578742f706c61696e00367b2270223a226272632d3230222c227469636b223a2261616161222c226f70223a226d696e74222c22616d74223a223130303030227d6821c0e0b26c560fcb2defd29e586155317b788c1d9ed3daf30010f92c210a5e153de000000000"
}