{
  "txid": "482fd9128a281f14c6213b8065189a7f9a3b68da0716936b23b45976a4364c0f",
  "version": 2,
  "locktime": 0,
  "vin": [
    {
      "txid": "5c2266b37e0c13e7dc6188c568cc68ceaeb9c35876d6ff6fdee1508a9c53dfba",
      "vout": 2,
      "prevout": {
        "scriptpubkey": "00148aa0698297ce1bc1a4481068678ae76f0fa614c7",
        "scriptpubkey_asm": "OP_0 OP_PUSHBYTES_20 8aa0698297ce1bc1a4481068678ae76f0fa614c7",
        "scriptpubkey_type": "v0_p2wpkh",
        "scriptpubkey_address": "bc1q32sxnq5hecdurfzgzp5x0zh8du86v9x84wdqdx",
        "value": 960138048
      },
      "scriptsig": "",
      "scriptsig_asm": "",
      "witness": [
        "3045022100d1a35b81fdcfe88c3d125939b29294cebe847e742b18486431a0664b93511473022030aaa47e383b2005f788969174937b5994573eb0073798a81afccbd77a257a0d01",
        "0332a402f13ca3028fc7d6026134162816b04662d8c3b1af2215d90e3da10e20d9"
      ],
      "is_coinbase": false,
      "sequence": 4294967295
    }
  ],
  "vout": [
    {
      "scriptpubkey": "001417615fe7b0d0c9cbd2aff543456807ebfd1b3b2c",
      "scriptpubkey_asm": "OP_0 OP_PUSHBYTES_20 17615fe7b0d0c9cbd2aff543456807ebfd1b3b2c",
      "scriptpubkey_type": "v0_p2wpkh",
      "scriptpubkey_address": "bc1qzas4leas6ryuh54074p526q8a073kwevwqthn7",
      "value": 383790
    },
    {
      "scriptpubkey": "00148aa0698297ce1bc1a4481068678ae76f0fa614c7",
      "scriptpubkey_asm": "OP_0 OP_PUSHBYTES_20 8aa0698297ce1bc1a4481068678ae76f0fa614c7",
      "scriptpubkey_type": "v0_p2wpkh",
      "scriptpubkey_address": "bc1q32sxnq5hecdurfzgzp5x0zh8du86v9x84wdqdx",
      "value": 959751531
    }
  ],
  "size": 223,
  "weight": 562,
  "fee": 2727,
  "status": {
    "confirmed": true,
    "block_height": 834638,
    "block_hash": "000000000000000000025f742c626208ac87e0b7d15054abb4a19ca2d735a54e",
    "block_time": 1710405325
  },
  "hex": "02000000000101badf539c8a50e1de6fffd67658c3b9aece68cc68c58861dce7130c7eb366225c0200000000ffffffff022edb05000000000016001417615fe7b0d0c9cbd2aff543456807ebfd1b3b2c6ba53439000000001600148aa0698297ce1bc1a4481068678ae76f0fa614c702483045022100d1a35b81fdcfe88c3d125939b29294cebe847e742b18486431a0664b93511473022030aaa47e383b2005f788969174937b5994573eb0073798a81afccbd77a257a0d01210332a402f13ca3028fc7d6026134162816b04662d8c3b1af2215d90e3da10e20d900000000"
}