{
  "txid": "48384dfd32aab40e4f1e0de20a77511271d3a81069a327ca9ebc7e316fc1aad8",
  "version": 2,
  "locktime": 0,
  "vin": [
    {
      "txid": "acc3ba00869acb582a3f2904ce3a11dd3779350ce234063fc7d0959246213364",
      "vout": 107,
      "prevout": {
        "scriptpubkey": "5120970bb5537b4d9bf375fb3713244888192f4761026b1cdab6c9037a3ee8f930bf",
        "scriptpubkey_asm": "OP_PUSHNUM_1 OP_PUSHBYTES_32 970bb5537b4d9bf375fb3713244888192f4761026b1cdab6c9037a3ee8f930bf",
        "scriptpubkey_type": "v1_p2tr",
        "scriptpubkey_address": "bc1pju9m25mmfkdlxa0mxufjgjygryh5wcgzdvwd4dkfqdara68exzlsmfw2ze",
        "value": 1806
      },
      "scriptsig": "",
      "scriptsig_asm": "",
      "witness": [
        "0ba9d0f075185b857d9207fe49be1be2451a95fa27426945ec8227ac468cbc1b1c33a11bb1fffe8a2e98e28b3bad170534e0b2eddae76690cbdf55745d74382b",
        "20a6337d6ad4fd24579b4aaae6239d8f80e306be4f5725f08db86808eb3b1b109aac0063036f726401010a746578742f706c61696e00357b2270223a226272632d3230222c226f70223a226d696e74222c227469636b223a22646f6765222c22616d74223a2234323030227d68",
        "c1a6337d6ad4fd24579b4aaae6239d8f80e306be4f5725f08db86808eb3b1b109a"
      ],
      "is_coinbase": false,
      "sequence": 4261412863
    }
  ],
  "vout": [
    {
      "scriptpubkey": "00147a665de7a370f4c9b372ab1fae587500a5bcbdb4",
      "scriptpubkey_asm": "OP_0 OP_PUSHBYTES_20 7a665de7a370f4c9b372ab1fae587500a5bcbdb4",
      "scriptpubkey_type": "v0_p2wpkh",
      "scriptpubkey_address": "bc1q0fn9mearwr6vnvmj4v06ukr4qzjme0d565dzcx",
      "value": 294
    }
  ],
  "size": 294,
  "weight": 540,
  "fee": 1512,
  "status": {
    "confirmed": true,
    "block_height": 834460,
    "block_hash": "00000000000000000000484a79b643b2524bbce82e5d8a442013fa5b8905ed98",
    "block_time": 1710307468
  },
  "hex": "02000000000101643321469295d0c73f0634e20c357937dd113ace04293f2a58cb9a8600bac3ac6b00000000fffffffd0126010000000000001600147a665de7a370f4c9b372ab1fae587500a5bcbdb403400ba9d0f075185b857d9207fe49be1be2451a95fa27426945ec8227ac468cbc1b1c33a11bb1fffe8a2e98e28b3bad170534e0b2eddae76690cbdf55745d74382b6d20a6337d6ad4fd24579b4aaae6239d8f80e306be4f5725f08db86808eb3b1b109aac0063036f726401010a746578742f706c61696e00357b2270223a226272632d3230222c226f70223a226d696e74222c227469636b223a22646f6765222c22616d74223a2234323030227d6821c1a6337d6ad4fd24579b4aaae6239d8f80e306be4f5725f08db86808eb3b1b109a00000000"
}