{
  "txid": "48517c8f97ac845039d9fa739ea982a47563d134c59cbbd1dfae2d91b78be1a3",
  "version": 2,
  "locktime": 0,
  "vin": [
    {
      "txid": "76edb06ba89ca437b7538ca1b74a0facac9f25fb05f8f14b49660d838709d375",
      "vout": 0,
      "prevout": {
        "scriptpubkey": "5120508473ec68fc78ed88cfb7a778d90340171bf0b67c6b1a51af637a52850651bf",
        "scriptpubkey_asm": "OP_PUSHNUM_1 OP_PUSHBYTES_32 508473ec68fc78ed88cfb7a778d90340171bf0b67c6b1a51af637a52850651bf",
        "scriptpubkey_type": "v1_p2tr",
        "scriptpubkey_address": "bc1p2zz88mrgl3uwmzx0k7nh3kgrgqt3hu9k034355d0vda99pgx2xlsdkerfw",
        "value": 4000
      },
      "scriptsig": "",
      "scriptsig_asm": "",
      "witness": [
        "35b68d860afc241fcfda6913b48acda9979c76a7b689aa455cf8640cb7e98c9546299a0224191297dda87dd4fd0ffd62b2afd26a091e021a960eac05488a6f58",
        "2026c6cf78b1d806dc119a75865325c140df8024d0a3b0856cc0c5c403cc0bb2dbac0063036f7264010118746578742f706c61696e3b636861727365743d7574662d3800377b2270223a226272632d3230222c226f70223a227472616e73666572222c227469636b223a2241494e4e222c22616d74223a223530227d68",
        "c0038d762d39749ef2b386d98805ced02a53716988264cc78d4dfdfa2c9bd67e0a"
      ],
      "is_coinbase": false,
      "sequence": 4294967293
    }
  ],
  "vout": [
    {
      "scriptpubkey": "51206e58821bb23182692950d32ecb5ba4c861942200553235ea9a78cb2bc6488a7d",
      "scriptpubkey_asm": "OP_PUSHNUM_1 OP_PUSHBYTES_32 6e58821bb23182692950d32ecb5ba4c861942200553235ea9a78cb2bc6488a7d",
      "scriptpubkey_type": "v1_p2tr",
      "scriptpubkey_address": "bc1pdevgyxajxxpxj22s6vhvkkayepseggsq25ert6560r9jh3jg3f7swhm63k",
      "value": 330
    },
    {
      "scriptpubkey": "0014e762360b7e9dc3a9c2143a29f725e4979da01e6a",
      "scriptpubkey_asm": "OP_0 OP_PUSHBYTES_20 e762360b7e9dc3a9c2143a29f725e4979da01e6a",
      "scriptpubkey_type": "v0_p2wpkh",
      "scriptpubkey_address": "bc1qua3rvzm7nhp6nss58g5lwf0yj7w6q8n26rusxz",
      "value": 1668
    }
  ],
  "size": 353,
  "weight": 728,
  "fee": 2002,
  "status": {
    "confirmed": true,
    "block_height": 834464,
    "block_hash": "0000000000000000000177a0869a911a2b65c9bdcd5a8bcb02b68f305bee848e",
    "block_time": 1710308296
  },
  "hex": "0200000000010175d30987830d66494bf1f805fb259facac0f4ab7a18c53b737a49ca86bb0ed760000000000fdffffff024a010000000000002251206e58821bb23182692950d32ecb5ba4c861942200553235ea9a78cb2bc6488a7d8406000000000000160014e762360b7e9dc3a9c2143a29f725e4979da01e6a034035b68d860afc241fcfda6913b48acda9979c76a7b689aa455cf8640cb7e98c9546299a0224191297dda87dd4fd0ffd62b2afd26a091e021a960eac05488a6f587d2026c6cf78b1d806dc119a75865325c140df8024d0a3b0856cc0c5c403cc0bb2dbac0063036f7264010118746578742f706c61696e3b636861727365743d7574662d3800377b2270223a226272632d3230222c226f70223a227472616e73666572222c227469636b223a2241494e4e222c22616d74223a223530227d6821c0038d762d39749ef2b386d98805ced02a53716988264cc78d4dfdfa2c9bd67e0a00000000"
}