{
  "txid": "485a1e59e27585d965346c2a1e6cb67f31f6d882a64d5723cb920efc78bab1f1",
  "version": 1,
  "locktime": 0,
  "vin": [
    {
      "txid": "d6fc7337887b82e745381dde0cc2dccadba124224092d766b03c1f49d971e289",
      "vout": 1,
      "prevout": {
        "scriptpubkey": "0014528e346bb6679b92f2e8cef4865a68d408d25ed2",
        "scriptpubkey_asm": "OP_0 OP_PUSHBYTES_20 528e346bb6679b92f2e8cef4865a68d408d25ed2",
        "scriptpubkey_type": "v0_p2wpkh",
        "scriptpubkey_address": "bc1q228rg6akv7de9uhgem6gvkng6sydyhkjprd2ya",
        "value": 926522
      },
      "scriptsig": "",
      "scriptsig_asm": "",
      "witness": [
        "304402200b7669cb20149e4b11bb08e433dbc7ff70ce7f6adcb6d5f189a2c08b461db8d6022035374eb6d2b1bff3743343e86c1b5682e80e611793f8dfa87dbbfcf73d261dee01",
        "03ccacd310a9b89f8c2cd8be12385669f8779b25de80d30904e860f5553977ab82"
      ],
      "is_coinbase": false,
      "sequence": 4294967295
    }
  ],
  "vout": [
    {
      "scriptpubkey": "001416a1433fcb621bb5afc3a8a87d10ea1edf0ddc8d",
      "scriptpubkey_asm": "OP_0 OP_PUSHBYTES_20 16a1433fcb621bb5afc3a8a87d10ea1edf0ddc8d",
      "scriptpubkey_type": "v0_p2wpkh",
      "scriptpubkey_address": "bc1qz6s5x07tvgdmtt7r4z586y82rm0smhyd79tgsv",
      "value": 748517
    },
    {
      "scriptpubkey": "0014528e346bb6679b92f2e8cef4865a68d408d25ed2",
      "scriptpubkey_asm": "OP_0 OP_PUSHBYTES_20 528e346bb6679b92f2e8cef4865a68d408d25ed2",
      "scriptpubkey_type": "v0_p2wpkh",
      "scriptpubkey_address": "bc1q228rg6akv7de9uhgem6gvkng6sydyhkjprd2ya",
      "value": 174198
    }
  ],
  "size": 222,
  "weight": 561,
  "fee": 3807,
  "status": {
    "confirmed": true,
    "block_height": 834638,
    "block_hash": "000000000000000000025f742c626208ac87e0b7d15054abb4a19ca2d735a54e",
    "block_time": 1710405325
  },
  "hex": "0100000000010189e271d9491f3cb066d792402224a1dbcadcc20cde1d3845e7827b883773fcd60100000000ffffffff02e56b0b000000000016001416a1433fcb621bb5afc3a8a87d10ea1edf0ddc8d76a8020000000000160014528e346bb6679b92f2e8cef4865a68d408d25ed20247304402200b7669cb20149e4b11bb08e433dbc7ff70ce7f6adcb6d5f189a2c08b461db8d6022035374eb6d2b1bff3743343e86c1b5682e80e611793f8dfa87dbbfcf73d261dee012103ccacd310a9b89f8c2cd8be12385669f8779b25de80d30904e860f5553977ab8200000000"
}