{
  "txid": "485cd6b0eb17c59ea62f4a9feb82e0c9ceb4d395e711056b4814c4ff5a99e176",
  "version": 1,
  "locktime": 0,
  "vin": [
    {
      "txid": "93eeb04421798c8af37e8315e4b610eee2161884facacdc79fdd0582c1dea0f0",
      "vout": 1,
      "prevout": {
        "scriptpubkey": "00147f533fb1dca24388c33e122e241c01a1f5bc3d46",
        "scriptpubkey_asm": "OP_0 OP_PUSHBYTES_20 7f533fb1dca24388c33e122e241c01a1f5bc3d46",
        "scriptpubkey_type": "v0_p2wpkh",
        "scriptpubkey_address": "bc1q0afnlvwu5fpc3se7zghzg8qp586mc02xnusnh8",
        "value": 3039294
      },
      "scriptsig": "",
      "scriptsig_asm": "",
      "witness": [
        "304402206b38f2a39c488b314de971aa7d8b795be61e76106784b218334e90ce5ec7fa120220253a9040234b188ed2d623956bec21d045ca103194596f57d9609b5b21bf8bf301",
        "0264c7f9350e856aa476e9abdeadb7d1a76a46e5309018702125a5386fd0913aaa"
      ],
      "is_coinbase": false,
      "sequence": 4294967295
    },
    {
      "txid": "4bccdc6f239f4a94aa57426886ca71b4b66fead7863d62299b0f91c25f2e85b5",
      "vout": 1,
      "prevout": {
        "scriptpubkey": "0014f684a3e5c55c7daec551b81dc7fe933d3292829b",
        "scriptpubkey_asm": "OP_0 OP_PUSHBYTES_20 f684a3e5c55c7daec551b81dc7fe933d3292829b",
        "scriptpubkey_type": "v0_p2wpkh",
        "scriptpubkey_address": "bc1q76z28ew9t376a323hqwu0l5n85ef9q5mfsdgnx",
        "value": 13300342
      },
      "scriptsig": "",
      "scriptsig_asm": "",
      "witness": [
        "304402200a31855e8767cd46b11927927a079876be56984b993b5d0b1a15c7824ce4d32f022079b583a8dbc418a58b5a259ba10513da6ea1de77b2f2ae243d318a20df80bd5501",
        "03708e1b3df9de0235597fc50cf7976ecac429d00666499c6bf6afe8caf71ddf3b"
      ],
      "is_coinbase": false,
      "sequence": 4294967295
    }
  ],
  "vout": [
    {
      "scriptpubkey": "00140fa81581a28ba9986994e04fb3b57b83c4ea19fc",
      "scriptpubkey_asm": "OP_0 OP_PUSHBYTES_20 0fa81581a28ba9986994e04fb3b57b83c4ea19fc",
      "scriptpubkey_type": "v0_p2wpkh",
      "scriptpubkey_address": "bc1qp75ptqdz3w5es6v5up8m8dtms0zw5x0uqpnjjy",
      "value": 8166800
    },
    {
      "scriptpubkey": "0014692e94fb788636405f0c1b16bd5f88c7a01c4c13",
      "scriptpubkey_asm": "OP_0 OP_PUSHBYTES_20 692e94fb788636405f0c1b16bd5f88c7a01c4c13",
      "scriptpubkey_type": "v0_p2wpkh",
      "scriptpubkey_address": "bc1qdyhff7mcscmyqhcvrvtt6hugc7spcnqnctqfmn",
      "value": 8167440
    }
  ],
  "size": 370,
  "weight": 832,
  "fee": 5396,
  "status": {
    "confirmed": true,
    "block_height": 834638,
    "block_hash": "000000000000000000025f742c626208ac87e0b7d15054abb4a19ca2d735a54e",
    "block_time": 1710405325
  },
  "hex": "01000000000102f0a0dec18205dd9fc7cdcafa841816e2ee10b6e415837ef38a8c792144b0ee930100000000ffffffffb5852e5fc2910f9b29623d86d7ea6fb6b471ca86684257aa944a9f236fdccc4b0100000000ffffffff02909d7c00000000001600140fa81581a28ba9986994e04fb3b57b83c4ea19fc10a07c0000000000160014692e94fb788636405f0c1b16bd5f88c7a01c4c130247304402206b38f2a39c488b314de971aa7d8b795be61e76106784b218334e90ce5ec7fa120220253a9040234b188ed2d623956bec21d045ca103194596f57d9609b5b21bf8bf301210264c7f9350e856aa476e9abdeadb7d1a76a46e5309018702125a5386fd0913aaa0247304402200a31855e8767cd46b11927927a079876be56984b993b5d0b1a15c7824ce4d32f022079b583a8dbc418a58b5a259ba10513da6ea1de77b2f2ae243d318a20df80bd55012103708e1b3df9de0235597fc50cf7976ecac429d00666499c6bf6afe8caf71ddf3b00000000"
}