{
  "txid": "4883c8f609bdb8a16016c6f75e0a79361ce414d46e1226c4a9383e2683f76eaa",
  "version": 2,
  "locktime": 0,
  "vin": [
    {
      "txid": "73d74717a7f09e9492f6cdec89290eefb2312d84258f7e04908cd237d970f444",
      "vout": 120,
      "prevout": {
        "scriptpubkey": "a91428576a35c0761695c82d4fd133fb904ed891dc7b87",
        "scriptpubkey_asm": "OP_HASH160 OP_PUSHBYTES_20 28576a35c0761695c82d4fd133fb904ed891dc7b OP_EQUAL",
        "scriptpubkey_type": "p2sh",
        "scriptpubkey_address": "35NKfuhomUciJzycGbysEraGpmUEZ8gZe3",
        "value": 2756896
      },
      "scriptsig": "16001470a2fd43f5d135210af536583232475de676fcf1",
      "scriptsig_asm": "OP_PUSHBYTES_22 001470a2fd43f5d135210af536583232475de676fcf1",
      "witness": [
        "304502210099fe2983185524d20d426ddf1e6aad4c479ec88c301e025c3ee821fb7522392b02200b8191e79172b889b90311b40e5bb121e22bd6eca7e053a839113736b26568ee01",
        "02aea87870a3319b2114211f82adc725514b4b5156eff03edc2758ffc98ed7cca2"
      ],
      "is_coinbase": false,
      "sequence": 4294967295,
      "inner_redeemscript_asm": "OP_0 OP_PUSHBYTES_20 70a2fd43f5d135210af536583232475de676fcf1"
    },
    {
      "txid": "5c5876db18e88cab1db817e8e535ad86d406055e42db5b482d0c452c250fe6e4",
      "vout": 24,
      "prevout": {
        "scriptpubkey": "a91428576a35c0761695c82d4fd133fb904ed891dc7b87",
        "scriptpubkey_asm": "OP_HASH160 OP_PUSHBYTES_20 28576a35c0761695c82d4fd133fb904ed891dc7b OP_EQUAL",
        "scriptpubkey_type": "p2sh",
        "scriptpubkey_address": "35NKfuhomUciJzycGbysEraGpmUEZ8gZe3",
        "value": 2212697
      },
      "scriptsig": "16001470a2fd43f5d135210af536583232475de676fcf1",
      "scriptsig_asm": "OP_PUSHBYTES_22 001470a2fd43f5d135210af536583232475de676fcf1",
      "witness": [
        "3045022100ca036e7bf31afa6020945cb410050715dcd43995f7b8f164fa1e4eb887ccd1ba02202afbee9c9db9aafc8c93f88f8f3e1a4480eceb0a395c43fa9feec3960ebe223d01",
        "02aea87870a3319b2114211f82adc725514b4b5156eff03edc2758ffc98ed7cca2"
      ],
      "is_coinbase": false,
      "sequence": 4294967295,
      "inner_redeemscript_asm": "OP_0 OP_PUSHBYTES_20 70a2fd43f5d135210af536583232475de676fcf1"
    },
    {
      "txid": "8c3c9ec44c49d106fc45eddfb2f8ae393c350b55786b1398ba481ec5e945da36",
      "vout": 189,
      "prevout": {
        "scriptpubkey": "a91428576a35c0761695c82d4fd133fb904ed891dc7b87",
        "scriptpubkey_asm": "OP_HASH160 OP_PUSHBYTES_20 28576a35c0761695c82d4fd133fb904ed891dc7b OP_EQUAL",
        "scriptpubkey_type": "p2sh",
        "scriptpubkey_address": "35NKfuhomUciJzycGbysEraGpmUEZ8gZe3",
        "value": 1472348
      },
      "scriptsig": "16001470a2fd43f5d135210af536583232475de676fcf1",
      "scriptsig_asm": "OP_PUSHBYTES_22 001470a2fd43f5d135210af536583232475de676fcf1",
      "witness": [
        "3044022003400290ea4c6c1733319bc9ae9c9149526b071ed6efa0a6cd58a21a211d5cbe022043f8531665ce01d34903824494516e10750a5f6e9ac7fa27f19683914765655401",
        "02aea87870a3319b2114211f82adc725514b4b5156eff03edc2758ffc98ed7cca2"
      ],
      "is_coinbase": false,
      "sequence": 4294967295,
      "inner_redeemscript_asm": "OP_0 OP_PUSHBYTES_20 70a2fd43f5d135210af536583232475de676fcf1"
    },
    {
      "txid": "c291c139f20fef6c0094ffce65fdf0e7e72aeac07e628a237b024914ea6f5f10",
      "vout": 10,
      "prevout": {
        "scriptpubkey": "a91428576a35c0761695c82d4fd133fb904ed891dc7b87",
        "scriptpubkey_asm": "OP_HASH160 OP_PUSHBYTES_20 28576a35c0761695c82d4fd133fb904ed891dc7b OP_EQUAL",
        "scriptpubkey_type": "p2sh",
        "scriptpubkey_address": "35NKfuhomUciJzycGbysEraGpmUEZ8gZe3",
        "value": 1396083
      },
      "scriptsig": "16001470a2fd43f5d135210af536583232475de676fcf1",
      "scriptsig_asm": "OP_PUSHBYTES_22 001470a2fd43f5d135210af536583232475de676fcf1",
      "witness": [
        "3045022100fb538ebba6f91ae65467a2ffdda7c30878bd3a19b6e58180d620b77c2937fa6a022006481a1df47f4b39963b320c8636681f644ae86b3a0e8e1a44c955dd7d0bb5de01",
        "02aea87870a3319b2114211f82adc725514b4b5156eff03edc2758ffc98ed7cca2"
      ],
      "is_coinbase": false,
      "sequence": 4294967295,
      "inner_redeemscript_asm": "OP_0 OP_PUSHBYTES_20 70a2fd43f5d135210af536583232475de676fcf1"
    },
    {
      "txid": "47327effe615b2a2ea6031d5563d904a66a725f5e03d6031980e05968483a88d",
      "vout": 111,
      "prevout": {
        "scriptpubkey": "a91428576a35c0761695c82d4fd133fb904ed891dc7b87",
        "scriptpubkey_asm": "OP_HASH160 OP_PUSHBYTES_20 28576a35c0761695c82d4fd133fb904ed891dc7b OP_EQUAL",
        "scriptpubkey_type": "p2sh",
        "scriptpubkey_address": "35NKfuhomUciJzycGbysEraGpmUEZ8gZe3",
        "value": 1367026
      },
      "scriptsig": "16001470a2fd43f5d135210af536583232475de676fcf1",
      "scriptsig_asm": "OP_PUSHBYTES_22 001470a2fd43f5d135210af536583232475de676fcf1",
      "witness": [
        "3044022068dbfcd7ffb8755d8424514011965d0bdd55d6f4cc760bb5e4f876752932081d02201790583e396e600734e1f2c8a757ff894501f1a80add3a4a8d877b9ec82e787401",
        "02aea87870a3319b2114211f82adc725514b4b5156eff03edc2758ffc98ed7cca2"
      ],
      "is_coinbase": false,
      "sequence": 4294967295,
      "inner_redeemscript_asm": "OP_0 OP_PUSHBYTES_20 70a2fd43f5d135210af536583232475de676fcf1"
    },
    {
      "txid": "b957fef4a4cf4915179c73549f8eb0fddeb8fbd08f026a8e28446111ed3ef507",
      "vout": 210,
      "prevout": {
        "scriptpubkey": "a91428576a35c0761695c82d4fd133fb904ed891dc7b87",
        "scriptpubkey_asm": "OP_HASH160 OP_PUSHBYTES_20 28576a35c0761695c82d4fd133fb904ed891dc7b OP_EQUAL",
        "scriptpubkey_type": "p2sh",
        "scriptpubkey_address": "35NKfuhomUciJzycGbysEraGpmUEZ8gZe3",
        "value": 1362029
      },
      "scriptsig": "16001470a2fd43f5d135210af536583232475de676fcf1",
      "scriptsig_asm": "OP_PUSHBYTES_22 001470a2fd43f5d135210af536583232475de676fcf1",
      "witness": [
        "3045022100b47cdd565f2228b2cf927e78e28217fcd99244aff10a795820c4c0d1430ab0b902202a9f05168fede6e5c199fa3b2a70b8efbcee366d3cab9fb21003c398c5f8cfc701",
        "02aea87870a3319b2114211f82adc725514b4b5156eff03edc2758ffc98ed7cca2"
      ],
      "is_coinbase": false,
      "sequence": 4294967295,
      "inner_redeemscript_asm": "OP_0 OP_PUSHBYTES_20 70a2fd43f5d135210af536583232475de676fcf1"
    },
    {
      "txid": "2e0a5a03056f7ce163d95798dd72f9523fd15bdb7791c120c84094d9f813948e",
      "vout": 155,
      "prevout": {
        "scriptpubkey": "a91428576a35c0761695c82d4fd133fb904ed891dc7b87",
        "scriptpubkey_asm": "OP_HASH160 OP_PUSHBYTES_20 28576a35c0761695c82d4fd133fb904ed891dc7b OP_EQUAL",
        "scriptpubkey_type": "p2sh",
        "scriptpubkey_address": "35NKfuhomUciJzycGbysEraGpmUEZ8gZe3",
        "value": 1283671
      },
      "scriptsig": "16001470a2fd43f5d135210af536583232475de676fcf1",
      "scriptsig_asm": "OP_PUSHBYTES_22 001470a2fd43f5d135210af536583232475de676fcf1",
      "witness": [
        "3044022070704739ef6c44914c5ea6c0b838cb895467713df247186b9bacb477042883e50220658df0712862e999d795549b74ddc3bd692ccd997908f8d0c76be4c12a36ac8101",
        "02aea87870a3319b2114211f82adc725514b4b5156eff03edc2758ffc98ed7cca2"
      ],
      "is_coinbase": false,
      "sequence": 4294967295,
      "inner_redeemscript_asm": "OP_0 OP_PUSHBYTES_20 70a2fd43f5d135210af536583232475de676fcf1"
    },
    {
      "txid": "7b14ef17abd977aecc2ad9947394226c65484f66a19c8d2b1ab72a3aff619a7d",
      "vout": 151,
      "prevout": {
        "scriptpubkey": "a91428576a35c0761695c82d4fd133fb904ed891dc7b87",
        "scriptpubkey_asm": "OP_HASH160 OP_PUSHBYTES_20 28576a35c0761695c82d4fd133fb904ed891dc7b OP_EQUAL",
        "scriptpubkey_type": "p2sh",
        "scriptpubkey_address": "35NKfuhomUciJzycGbysEraGpmUEZ8gZe3",
        "value": 1026948
      },
      "scriptsig": "16001470a2fd43f5d135210af536583232475de676fcf1",
      "scriptsig_asm": "OP_PUSHBYTES_22 001470a2fd43f5d135210af536583232475de676fcf1",
      "witness": [
        "3045022100ac648894560523d1e1b4d9fed63277ff717f28ae01c2538b2bfecfe1d2f2ebce022031f0168b50978a3f3c1d251041f49aaa13c74cb840b5efd015c6317af347d9a901",
        "02aea87870a3319b2114211f82adc725514b4b5156eff03edc2758ffc98ed7cca2"
      ],
      "is_coinbase": false,
      "sequence": 4294967295,
      "inner_redeemscript_asm": "OP_0 OP_PUSHBYTES_20 70a2fd43f5d135210af536583232475de676fcf1"
    },
    {
      "txid": "8f4de310b3f6c553ec42bff212e6a8e63a533c0db0050828fc306dcad12725f9",
      "vout": 26,
      "prevout": {
        "scriptpubkey": "a91428576a35c0761695c82d4fd133fb904ed891dc7b87",
        "scriptpubkey_asm": "OP_HASH160 OP_PUSHBYTES_20 28576a35c0761695c82d4fd133fb904ed891dc7b OP_EQUAL",
        "scriptpubkey_type": "p2sh",
        "scriptpubkey_address": "35NKfuhomUciJzycGbysEraGpmUEZ8gZe3",
        "value": 587628
      },
      "scriptsig": "16001470a2fd43f5d135210af536583232475de676fcf1",
      "scriptsig_asm": "OP_PUSHBYTES_22 001470a2fd43f5d135210af536583232475de676fcf1",
      "witness": [
        "304402203c09faaf9d5e248bc429f2f1bacecb331cd2685a609095c5ce5d05831b21ef980220110a88620af33f8cf68e4422aa13c4666757e85533b746c3dc9d5f8d449b0b2301",
        "02aea87870a3319b2114211f82adc725514b4b5156eff03edc2758ffc98ed7cca2"
      ],
      "is_coinbase": false,
      "sequence": 4294967295,
      "inner_redeemscript_asm": "OP_0 OP_PUSHBYTES_20 70a2fd43f5d135210af536583232475de676fcf1"
    },
    {
      "txid": "05a6e925a46b0c07f6c606de13eaafa66fe5c277492b69cdb3af4e113da1b49e",
      "vout": 30,
      "prevout": {
        "scriptpubkey": "a91428576a35c0761695c82d4fd133fb904ed891dc7b87",
        "scriptpubkey_asm": "OP_HASH160 OP_PUSHBYTES_20 28576a35c0761695c82d4fd133fb904ed891dc7b OP_EQUAL",
        "scriptpubkey_type": "p2sh",
        "scriptpubkey_address": "35NKfuhomUciJzycGbysEraGpmUEZ8gZe3",
        "value": 357116
      },
      "scriptsig": "16001470a2fd43f5d135210af536583232475de676fcf1",
      "scriptsig_asm": "OP_PUSHBYTES_22 001470a2fd43f5d135210af536583232475de676fcf1",
      "witness": [
        "304502210085fab47fbb0bb41aea9414cdab30e926c4e2c976b8835b14a25de31c93d7dc7502200a97885bf95bf951df02fd953a278c272a8ad636031ff1bc831708cd05a202b401",
        "02aea87870a3319b2114211f82adc725514b4b5156eff03edc2758ffc98ed7cca2"
      ],
      "is_coinbase": false,
      "sequence": 4294967295,
      "inner_redeemscript_asm": "OP_0 OP_PUSHBYTES_20 70a2fd43f5d135210af536583232475de676fcf1"
    },
    {
      "txid": "88e60b033bdee95a136abe798ca79e70d047ef4826659cadf73828d7091029f1",
      "vout": 6,
      "prevout": {
        "scriptpubkey": "a91428576a35c0761695c82d4fd133fb904ed891dc7b87",
        "scriptpubkey_asm": "OP_HASH160 OP_PUSHBYTES_20 28576a35c0761695c82d4fd133fb904ed891dc7b OP_EQUAL",
        "scriptpubkey_type": "p2sh",
        "scriptpubkey_address": "35NKfuhomUciJzycGbysEraGpmUEZ8gZe3",
        "value": 314837
      },
      "scriptsig": "16001470a2fd43f5d135210af536583232475de676fcf1",
      "scriptsig_asm": "OP_PUSHBYTES_22 001470a2fd43f5d135210af536583232475de676fcf1",
      "witness": [
        "3044022066b0d968dc77c47cbf52d9926b4640af468d77ad67a1630c0feca13fef84eb34022065ece01ac8fac5e08d2588e1e481bfc8bec2f0b9e68efd93bc84c96a25c0e14101",
        "02aea87870a3319b2114211f82adc725514b4b5156eff03edc2758ffc98ed7cca2"
      ],
      "is_coinbase": false,
      "sequence": 4294967295,
      "inner_redeemscript_asm": "OP_0 OP_PUSHBYTES_20 70a2fd43f5d135210af536583232475de676fcf1"
    },
    {
      "txid": "f5ab7d1a93b4b73071589795c9f9f9cd80ddf201a5a9cff92333d9b69ddaf32e",
      "vout": 1,
      "prevout": {
        "scriptpubkey": "a9144f4d345cd165476ebb1d9a2f39a28da53c697ca587",
        "scriptpubkey_asm": "OP_HASH160 OP_PUSHBYTES_20 4f4d345cd165476ebb1d9a2f39a28da53c697ca5 OP_EQUAL",
        "scriptpubkey_type": "p2sh",
        "scriptpubkey_address": "38vKnxruWVtLznfkQxH7JV838sX2ZU17Kz",
        "value": 250585
      },
      "scriptsig": "160014f63f708c6a4316f48e2a551228d8401629b084d6",
      "scriptsig_asm": "OP_PUSHBYTES_22 0014f63f708c6a4316f48e2a551228d8401629b084d6",
      "witness": [
        "304502210087a91ba8a7437167f49b53acfeee9b8b75614a318efc1d942767fce3c80c8ddb022036332654d8c7b0c25fc3c2ca572216b65c554e22fe3683b1923f1de7911b93c701",
        "02e4c34db348c6b0c3f4ec955e51766703a223734ba046aa28bc7b1f9b8acde339"
      ],
      "is_coinbase": false,
      "sequence": 4294967295,
      "inner_redeemscript_asm": "OP_0 OP_PUSHBYTES_20 f63f708c6a4316f48e2a551228d8401629b084d6"
    },
    {
      "txid": "9559f1de0d7b66993df2d8648401b415c72c4a2be50f92ad0aef8373310e04a5",
      "vout": 110,
      "prevout": {
        "scriptpubkey": "a91428576a35c0761695c82d4fd133fb904ed891dc7b87",
        "scriptpubkey_asm": "OP_HASH160 OP_PUSHBYTES_20 28576a35c0761695c82d4fd133fb904ed891dc7b OP_EQUAL",
        "scriptpubkey_type": "p2sh",
        "scriptpubkey_address": "35NKfuhomUciJzycGbysEraGpmUEZ8gZe3",
        "value": 78028
      },
      "scriptsig": "16001470a2fd43f5d135210af536583232475de676fcf1",
      "scriptsig_asm": "OP_PUSHBYTES_22 001470a2fd43f5d135210af536583232475de676fcf1",
      "witness": [
        "30450221009697f5a52a2908aeb4b098f6015b53b1f1193724e2821992621ea63f93dacdfc02207b6e250b336a94393a67b2b9176f1cfab95f4cd29166e8eda6b8f8bf3b4735a901",
        "02aea87870a3319b2114211f82adc725514b4b5156eff03edc2758ffc98ed7cca2"
      ],
      "is_coinbase": false,
      "sequence": 4294967295,
      "inner_redeemscript_asm": "OP_0 OP_PUSHBYTES_20 70a2fd43f5d135210af536583232475de676fcf1"
    },
    {
      "txid": "94b3c448ccb74ae2957a023e241bbbbb159e415647b341b89a595f9bdab32b8f",
      "vout": 16,
      "prevout": {
        "scriptpubkey": "a91428576a35c0761695c82d4fd133fb904ed891dc7b87",
        "scriptpubkey_asm": "OP_HASH160 OP_PUSHBYTES_20 28576a35c0761695c82d4fd133fb904ed891dc7b OP_EQUAL",
        "scriptpubkey_type": "p2sh",
        "scriptpubkey_address": "35NKfuhomUciJzycGbysEraGpmUEZ8gZe3",
        "value": 72458
      },
      "scriptsig": "16001470a2fd43f5d135210af536583232475de676fcf1",
      "scriptsig_asm": "OP_PUSHBYTES_22 001470a2fd43f5d135210af536583232475de676fcf1",
      "witness": [
        "3045022100c51f5ca78c64f95d7a247e6ce57d98eee9be2a802863fe364a5881db3c64adb1022025e5ce1b1c56035c4f2fb0cd81cd175c7c15d6f37486b08a079fcc9d8edc774d01",
        "02aea87870a3319b2114211f82adc725514b4b5156eff03edc2758ffc98ed7cca2"
      ],
      "is_coinbase": false,
      "sequence": 4294967295,
      "inner_redeemscript_asm": "OP_0 OP_PUSHBYTES_20 70a2fd43f5d135210af536583232475de676fcf1"
    },
    {
      "txid": "dc0734fc33be7b1c67b070f63f7213e585ea94fb588d54fda383c196c678ded9",
      "vout": 0,
      "prevout": {
        "scriptpubkey": "a91428576a35c0761695c82d4fd133fb904ed891dc7b87",
        "scriptpubkey_asm": "OP_HASH160 OP_PUSHBYTES_20 28576a35c0761695c82d4fd133fb904ed891dc7b OP_EQUAL",
        "scriptpubkey_type": "p2sh",
        "scriptpubkey_address": "35NKfuhomUciJzycGbysEraGpmUEZ8gZe3",
        "value": 65961
      },
      "scriptsig": "16001470a2fd43f5d135210af536583232475de676fcf1",
      "scriptsig_asm": "OP_PUSHBYTES_22 001470a2fd43f5d135210af536583232475de676fcf1",
      "witness": [
        "3045022100a6a73397c84f9371e7dc8ca55c41b8933fae8d8b5f6b916bb5b51859e4792bb202206591823c04eafe171932cbcd2ebdec540d4873cfa16d82e25a86631f68b60cc601",
        "02aea87870a3319b2114211f82adc725514b4b5156eff03edc2758ffc98ed7cca2"
      ],
      "is_coinbase": false,
      "sequence": 4294967295,
      "inner_redeemscript_asm": "OP_0 OP_PUSHBYTES_20 70a2fd43f5d135210af536583232475de676fcf1"
    },
    {
      "txid": "b69473371a7fa7f502c3c5883f5f2da12548c0e3ea78f771fcbe75911b7ea213",
      "vout": 54,
      "prevout": {
        "scriptpubkey": "a91428576a35c0761695c82d4fd133fb904ed891dc7b87",
        "scriptpubkey_asm": "OP_HASH160 OP_PUSHBYTES_20 28576a35c0761695c82d4fd133fb904ed891dc7b OP_EQUAL",
        "scriptpubkey_type": "p2sh",
        "scriptpubkey_address": "35NKfuhomUciJzycGbysEraGpmUEZ8gZe3",
        "value": 62903
      },
      "scriptsig": "16001470a2fd43f5d135210af536583232475de676fcf1",
      "scriptsig_asm": "OP_PUSHBYTES_22 001470a2fd43f5d135210af536583232475de676fcf1",
      "witness": [
        "304402202b507a7f1296067c82aa37f037bb27c04639b783264d8c898b1ca890c46bc4b002203f47dcf5c7225e6ef3eaa406e3af6717132bf09bfc28f679a22d2bd87bf6a4fb01",
        "02aea87870a3319b2114211f82adc725514b4b5156eff03edc2758ffc98ed7cca2"
      ],
      "is_coinbase": false,
      "sequence": 4294967295,
      "inner_redeemscript_asm": "OP_0 OP_PUSHBYTES_20 70a2fd43f5d135210af536583232475de676fcf1"
    },
    {
      "txid": "ad88eb15dee27d8fd76d0201020308d3a849462eddd70d5bbfcdd2361c687a18",
      "vout": 1,
      "prevout": {
        "scriptpubkey": "a91428576a35c0761695c82d4fd133fb904ed891dc7b87",
        "scriptpubkey_asm": "OP_HASH160 OP_PUSHBYTES_20 28576a35c0761695c82d4fd133fb904ed891dc7b OP_EQUAL",
        "scriptpubkey_type": "p2sh",
        "scriptpubkey_address": "35NKfuhomUciJzycGbysEraGpmUEZ8gZe3",
        "value": 53954
      },
      "scriptsig": "16001470a2fd43f5d135210af536583232475de676fcf1",
      "scriptsig_asm": "OP_PUSHBYTES_22 001470a2fd43f5d135210af536583232475de676fcf1",
      "witness": [
        "30450221008266ee3c5bef3217ee885e526d984ab184c0440450e0d1f4d8b5635038eee18602200d04216fd92b8e09ef4f2a15221dcf281fad7abd6a41ea509608d9e772d70f0001",
        "02aea87870a3319b2114211f82adc725514b4b5156eff03edc2758ffc98ed7cca2"
      ],
      "is_coinbase": false,
      "sequence": 4294967295,
      "inner_redeemscript_asm": "OP_0 OP_PUSHBYTES_20 70a2fd43f5d135210af536583232475de676fcf1"
    },
    {
      "txid": "186bc2f0ef0c40a08b786bfb3577ff982cca722f6fe73199e17bd383bf5f74a8",
      "vout": 162,
      "prevout": {
        "scriptpubkey": "a91428576a35c0761695c82d4fd133fb904ed891dc7b87",
        "scriptpubkey_asm": "OP_HASH160 OP_PUSHBYTES_20 28576a35c0761695c82d4fd133fb904ed891dc7b OP_EQUAL",
        "scriptpubkey_type": "p2sh",
        "scriptpubkey_address": "35NKfuhomUciJzycGbysEraGpmUEZ8gZe3",
        "value": 27718
      },
      "scriptsig": "16001470a2fd43f5d135210af536583232475de676fcf1",
      "scriptsig_asm": "OP_PUSHBYTES_22 001470a2fd43f5d135210af536583232475de676fcf1",
      "witness": [
        "3045022100c855c073030f2695f1a5ec734304c50912f7e37204fec5e34f17a6a8bdd55f20022072a0349e1230bf608af66d7e1b28a55a1a38c06df7cdd34e16bdc1e9b7bdc2ba01",
        "02aea87870a3319b2114211f82adc725514b4b5156eff03edc2758ffc98ed7cca2"
      ],
      "is_coinbase": false,
      "sequence": 4294967295,
      "inner_redeemscript_asm": "OP_0 OP_PUSHBYTES_20 70a2fd43f5d135210af536583232475de676fcf1"
    }
  ],
  "vout": [
    {
      "scriptpubkey": "a9144aa0e5ac5602fe7dbadbd93fd69476a88ad28f3e87",
      "scriptpubkey_asm": "OP_HASH160 OP_PUSHBYTES_20 4aa0e5ac5602fe7dbadbd93fd69476a88ad28f3e OP_EQUAL",
      "scriptpubkey_type": "p2sh",
      "scriptpubkey_address": "38Vcg51VtB7fz1kGLiqGH8cgmJwTFsoQzi",
      "value": 14700000
    },
    {
      "scriptpubkey": "a91472f3f926d1a7c3be48649097810f42291e2d232c87",
      "scriptpubkey_asm": "OP_HASH160 OP_PUSHBYTES_20 72f3f926d1a7c3be48649097810f42291e2d232c OP_EQUAL",
      "scriptpubkey_type": "p2sh",
      "scriptpubkey_address": "3CAqDyGQbD4KjD6jwZWxGr4fR7eh8Vynkc",
      "value": 24750
    }
  ],
  "size": 3166,
  "weight": 6844,
  "fee": 24136,
  "status": {
    "confirmed": true,
    "block_height": 834460,
    "block_hash": "00000000000000000000484a79b643b2524bbce82e5d8a442013fa5b8905ed98",
    "block_time": 1710307468
  },
  "hex": "0200000000011244f470d937d28c90047e8f25842d31b2ef0e2989eccdf692949ef0a71747d773780000001716001470a2fd43f5d135210af536583232475de676fcf1ffffffffe4e60f252c450c2d485bdb425e0506d486ad35e5e817b81dab8ce818db76585c180000001716001470a2fd43f5d135210af536583232475de676fcf1ffffffff36da45e9c51e48ba98136b78550b353c39aef8b2dfed45fc06d1494cc49e3c8cbd0000001716001470a2fd43f5d135210af536583232475de676fcf1ffffffff105f6fea1449027b238a627ec0ea2ae7e7f0fd65ceff94006cef0ff239c191c20a0000001716001470a2fd43f5d135210af536583232475de676fcf1ffffffff8da8838496050e9831603de0f525a7664a903d56d53160eaa2b215e6ff7e32476f0000001716001470a2fd43f5d135210af536583232475de676fcf1ffffffff07f53eed116144288e6a028fd0fbb8defdb08e9f54739c171549cfa4f4fe57b9d20000001716001470a2fd43f5d135210af536583232475de676fcf1ffffffff8e9413f8d99440c820c19177db5bd13f52f972dd9857d963e17c6f05035a0a2e9b0000001716001470a2fd43f5d135210af536583232475de676fcf1ffffffff7d9a61ff3a2ab71a2b8d9ca1664f48656c22947394d92accae77d9ab17ef147b970000001716001470a2fd43f5d135210af536583232475de676fcf1fffffffff92527d1ca6d30fc280805b00d3c533ae6a8e612f2bf42ec53c5f6b310e34d8f1a0000001716001470a2fd43f5d135210af536583232475de676fcf1ffffffff9eb4a13d114eafb3cd692b4977c2e56fa6afea13de06c6f6070c6ba425e9a6051e0000001716001470a2fd43f5d135210af536583232475de676fcf1fffffffff1291009d72838f7ad9c652648ef47d0709ea78c79be6a135ae9de3b030be688060000001716001470a2fd43f5d135210af536583232475de676fcf1ffffffff2ef3da9db6d93323f9cfa9a501f2dd80cdf9f9c99597587130b7b4931a7dabf50100000017160014f63f708c6a4316f48e2a551228d8401629b084d6ffffffffa5040e317383ef0aad920fe52b4a2cc715b4018464d8f23d99667b0ddef159956e0000001716001470a2fd43f5d135210af536583232475de676fcf1ffffffff8f2bb3da9b5f599ab841b34756419e15bbbb1b243e027a95e24ab7cc48c4b394100000001716001470a2fd43f5d135210af536583232475de676fcf1ffffffffd9de78c696c183a3fd548d58fb94ea85e513723ff670b0671c7bbe33fc3407dc000000001716001470a2fd43f5d135210af536583232475de676fcf1ffffffff13a27e1b9175befc71f778eae3c04825a12d5f3f88c5c302f5a77f1a377394b6360000001716001470a2fd43f5d135210af536583232475de676fcf1ffffffff187a681c36d2cdbf5b0dd7dd2e4649a8d308030201026dd78f7de2de15eb88ad010000001716001470a2fd43f5d135210af536583232475de676fcf1ffffffffa8745fbf83d37be19931e76f2f72ca2c98ff7735fb6b788ba0400ceff0c26b18a20000001716001470a2fd43f5d135210af536583232475de676fcf1ffffffff02e04de0000000000017a9144aa0e5ac5602fe7dbadbd93fd69476a88ad28f3e87ae6000000000000017a91472f3f926d1a7c3be48649097810f42291e2d232c870248304502210099fe2983185524d20d426ddf1e6aad4c479ec88c301e025c3ee821fb7522392b02200b8191e79172b889b90311b40e5bb121e22bd6eca7e053a839113736b26568ee012102aea87870a3319b2114211f82adc725514b4b5156eff03edc2758ffc98ed7cca202483045022100ca036e7bf31afa6020945cb410050715dcd43995f7b8f164fa1e4eb887ccd1ba02202afbee9c9db9aafc8c93f88f8f3e1a4480eceb0a395c43fa9feec3960ebe223d012102aea87870a3319b2114211f82adc725514b4b5156eff03edc2758ffc98ed7cca202473044022003400290ea4c6c1733319bc9ae9c9149526b071ed6efa0a6cd58a21a211d5cbe022043f8531665ce01d34903824494516e10750a5f6e9ac7fa27f196839147656554012102aea87870a3319b2114211f82adc725514b4b5156eff03edc2758ffc98ed7cca202483045022100fb538ebba6f91ae65467a2ffdda7c30878bd3a19b6e58180d620b77c2937fa6a022006481a1df47f4b39963b320c8636681f644ae86b3a0e8e1a44c955dd7d0bb5de012102aea87870a3319b2114211f82adc725514b4b5156eff03edc2758ffc98ed7cca202473044022068dbfcd7ffb8755d8424514011965d0bdd55d6f4cc760bb5e4f876752932081d02201790583e396e600734e1f2c8a757ff894501f1a80add3a4a8d877b9ec82e7874012102aea87870a3319b2114211f82adc725514b4b5156eff03edc2758ffc98ed7cca202483045022100b47cdd565f2228b2cf927e78e28217fcd99244aff10a795820c4c0d1430ab0b902202a9f05168fede6e5c199fa3b2a70b8efbcee366d3cab9fb21003c398c5f8cfc7012102aea87870a3319b2114211f82adc725514b4b5156eff03edc2758ffc98ed7cca202473044022070704739ef6c44914c5ea6c0b838cb895467713df247186b9bacb477042883e50220658df0712862e999d795549b74ddc3bd692ccd997908f8d0c76be4c12a36ac81012102aea87870a3319b2114211f82adc725514b4b5156eff03edc2758ffc98ed7cca202483045022100ac648894560523d1e1b4d9fed63277ff717f28ae01c2538b2bfecfe1d2f2ebce022031f0168b50978a3f3c1d251041f49aaa13c74cb840b5efd015c6317af347d9a9012102aea87870a3319b2114211f82adc725514b4b5156eff03edc2758ffc98ed7cca20247304402203c09faaf9d5e248bc429f2f1bacecb331cd2685a609095c5ce5d05831b21ef980220110a88620af33f8cf68e4422aa13c4666757e85533b746c3dc9d5f8d449b0b23012102aea87870a3319b2114211f82adc725514b4b5156eff03edc2758ffc98ed7cca20248304502210085fab47fbb0bb41aea9414cdab30e926c4e2c976b8835b14a25de31c93d7dc7502200a97885bf95bf951df02fd953a278c272a8ad636031ff1bc831708cd05a202b4012102aea87870a3319b2114211f82adc725514b4b5156eff03edc2758ffc98ed7cca202473044022066b0d968dc77c47cbf52d9926b4640af468d77ad67a1630c0feca13fef84eb34022065ece01ac8fac5e08d2588e1e481bfc8bec2f0b9e68efd93bc84c96a25c0e141012102aea87870a3319b2114211f82adc725514b4b5156eff03edc2758ffc98ed7cca20248304502210087a91ba8a7437167f49b53acfeee9b8b75614a318efc1d942767fce3c80c8ddb022036332654d8c7b0c25fc3c2ca572216b65c554e22fe3683b1923f1de7911b93c7012102e4c34db348c6b0c3f4ec955e51766703a223734ba046aa28bc7b1f9b8acde339024830450221009697f5a52a2908aeb4b098f6015b53b1f1193724e2821992621ea63f93dacdfc02207b6e250b336a94393a67b2b9176f1cfab95f4cd29166e8eda6b8f8bf3b4735a9012102aea87870a3319b2114211f82adc725514b4b5156eff03edc2758ffc98ed7cca202483045022100c51f5ca78c64f95d7a247e6ce57d98eee9be2a802863fe364a5881db3c64adb1022025e5ce1b1c56035c4f2fb0cd81cd175c7c15d6f37486b08a079fcc9d8edc774d012102aea87870a3319b2114211f82adc725514b4b5156eff03edc2758ffc98ed7cca202483045022100a6a73397c84f9371e7dc8ca55c41b8933fae8d8b5f6b916bb5b51859e4792bb202206591823c04eafe171932cbcd2ebdec540d4873cfa16d82e25a86631f68b60cc6012102aea87870a3319b2114211f82adc725514b4b5156eff03edc2758ffc98ed7cca20247304402202b507a7f1296067c82aa37f037bb27c04639b783264d8c898b1ca890c46bc4b002203f47dcf5c7225e6ef3eaa406e3af6717132bf09bfc28f679a22d2bd87bf6a4fb012102aea87870a3319b2114211f82adc725514b4b5156eff03edc2758ffc98ed7cca2024830450221008266ee3c5bef3217ee885e526d984ab184c0440450e0d1f4d8b5635038eee18602200d04216fd92b8e09ef4f2a15221dcf281fad7abd6a41ea509608d9e772d70f00012102aea87870a3319b2114211f82adc725514b4b5156eff03edc2758ffc98ed7cca202483045022100c855c073030f2695f1a5ec734304c50912f7e37204fec5e34f17a6a8bdd55f20022072a0349e1230bf608af66d7e1b28a55a1a38c06df7cdd34e16bdc1e9b7bdc2ba012102aea87870a3319b2114211f82adc725514b4b5156eff03edc2758ffc98ed7cca200000000"
}