{
  "txid": "488ad886f5bb5bb953b8ddf552a8fd8ca44413244a4680a84c886f0ffc507eeb",
  "version": 2,
  "locktime": 0,
  "vin": [
    {
      "txid": "0b863b5c2fba86a2fa2cbf3bcd2b1c876f9bc1fa72ab7e769fb9f43ac26d13be",
      "vout": 1,
      "prevout": {
        "scriptpubkey": "0014f60834ef165253c571b11ce9fa74e46692fc5ec1",
        "scriptpubkey_asm": "OP_0 OP_PUSHBYTES_20 f60834ef165253c571b11ce9fa74e46692fc5ec1",
        "scriptpubkey_type": "v0_p2wpkh",
        "scriptpubkey_address": "bc1q7cyrfmck2ffu2ud3rn5l5a8yv6f0chkp0zpemf",
        "value": 938504988
      },
      "scriptsig": "",
      "scriptsig_asm": "",
      "witness": [
        "3045022100a1a9ebca60193e478ea77f384f80eef2e81fed408f039b854d603ea380d56fd40220428ff32a06d23d79f4bbac4b2d36be683112db8c34147f1a567aae703a52fa2d01",
        "026e5628506ecd33242e5ceb5fdafe4d3066b5c0f159b3c05a621ef65f177ea286"
      ],
      "is_coinbase": false,
      "sequence": 4294967293
    }
  ],
  "vout": [
    {
      "scriptpubkey": "0014fb8094eca40503ff6fbdae2a4de592732d53d75c",
      "scriptpubkey_asm": "OP_0 OP_PUSHBYTES_20 fb8094eca40503ff6fbdae2a4de592732d53d75c",
      "scriptpubkey_type": "v0_p2wpkh",
      "scriptpubkey_address": "bc1qlwqffm9yq5pl7maa4c4ymevjwvk4846uf605s3",
      "value": 344300
    },
    {
      "scriptpubkey": "0014f60834ef165253c571b11ce9fa74e46692fc5ec1",
      "scriptpubkey_asm": "OP_0 OP_PUSHBYTES_20 f60834ef165253c571b11ce9fa74e46692fc5ec1",
      "scriptpubkey_type": "v0_p2wpkh",
      "scriptpubkey_address": "bc1q7cyrfmck2ffu2ud3rn5l5a8yv6f0chkp0zpemf",
      "value": 938155792
    }
  ],
  "size": 223,
  "weight": 562,
  "fee": 4896,
  "status": {
    "confirmed": true,
    "block_height": 834638,
    "block_hash": "000000000000000000025f742c626208ac87e0b7d15054abb4a19ca2d735a54e",
    "block_time": 1710405325
  },
  "hex": "02000000000101be136dc23af4b99f767eab72fac19b6f871c2bcd3bbf2cfaa286ba2f5c3b860b0100000000fdffffff02ec40050000000000160014fb8094eca40503ff6fbdae2a4de592732d53d75c101feb3700000000160014f60834ef165253c571b11ce9fa74e46692fc5ec102483045022100a1a9ebca60193e478ea77f384f80eef2e81fed408f039b854d603ea380d56fd40220428ff32a06d23d79f4bbac4b2d36be683112db8c34147f1a567aae703a52fa2d0121026e5628506ecd33242e5ceb5fdafe4d3066b5c0f159b3c05a621ef65f177ea28600000000"
}