{
  "txid": "4891006444918b895fd13ec97d4b7d671141e0675b9d64fc751b5b1be7d4c3cd",
  "version": 1,
  "locktime": 0,
  "vin": [
    {
      "txid": "022b3dc16f883fc2d450926687fcb89c64bbf75980cda4aacb80eed5be9ae9a1",
      "vout": 1,
      "prevout": {
        "scriptpubkey": "76a9149feaab880db66c1aa38e6150baa35fe9d9bb55c088ac",
        "scriptpubkey_asm": "OP_DUP OP_HASH160 OP_PUSHBYTES_20 9feaab880db66c1aa38e6150baa35fe9d9bb55c0 OP_EQUALVERIFY OP_CHECKSIG",
        "scriptpubkey_type": "p2pkh",
        "scriptpubkey_address": "1FaZZfNcDo4xftR5vtfZq1YYvAyP7fPanL",
        "value": 43090
      },
      "scriptsig": "47304402206618ddad348f6bc0f5fbbba8a2363c824424f73c895ea8820c42146c68ab7e19022001c3146d87239f8a31d46d297f5aa485d0620962ab08776f503489bd6c227c62012103be8d06ba13c0fcfbe569169ae16ff26e92b678132d7dd293ed9df90f26ea415b",
      "scriptsig_asm": "OP_PUSHBYTES_71 304402206618ddad348f6bc0f5fbbba8a2363c824424f73c895ea8820c42146c68ab7e19022001c3146d87239f8a31d46d297f5aa485d0620962ab08776f503489bd6c227c6201 OP_PUSHBYTES_33 03be8d06ba13c0fcfbe569169ae16ff26e92b678132d7dd293ed9df90f26ea415b",
      "is_coinbase": false,
      "sequence": 4294967295
    }
  ],
  "vout": [
    {
      "scriptpubkey": "0014bbde3b296f1d1b2f45b8dea9b8c128fa9a51eca7",
      "scriptpubkey_asm": "OP_0 OP_PUSHBYTES_20 bbde3b296f1d1b2f45b8dea9b8c128fa9a51eca7",
      "scriptpubkey_type": "v0_p2wpkh",
      "scriptpubkey_address": "bc1qh00rk2t0r5dj73dcm65m3sfgl2d9rm98wzd4nk",
      "value": 34284
    },
    {
      "scriptpubkey": "76a914f7f33bcbe8eb0e40293fb4017e12e665d821af7488ac",
      "scriptpubkey_asm": "OP_DUP OP_HASH160 OP_PUSHBYTES_20 f7f33bcbe8eb0e40293fb4017e12e665d821af74 OP_EQUALVERIFY OP_CHECKSIG",
      "scriptpubkey_type": "p2pkh",
      "scriptpubkey_address": "1Pc3HYkwJUCQ5MyHQVLmM43eZbYXSQbxFY",
      "value": 4286
    }
  ],
  "size": 222,
  "weight": 888,
  "fee": 4520,
  "status": {
    "confirmed": true,
    "block_height": 834638,
    "block_hash": "000000000000000000025f742c626208ac87e0b7d15054abb4a19ca2d735a54e",
    "block_time": 1710405325
  },
  "hex": "0100000001a1e99abed5ee80cbaaa4cd8059f7bb649cb8fc87669250d4c23f886fc13d2b02010000006a47304402206618ddad348f6bc0f5fbbba8a2363c824424f73c895ea8820c42146c68ab7e19022001c3146d87239f8a31d46d297f5aa485d0620962ab08776f503489bd6c227c62012103be8d06ba13c0fcfbe569169ae16ff26e92b678132d7dd293ed9df90f26ea415bffffffff02ec85000000000000160014bbde3b296f1d1b2f45b8dea9b8c128fa9a51eca7be100000000000001976a914f7f33bcbe8eb0e40293fb4017e12e665d821af7488ac00000000"
}