{
  "txid": "4896cd2098056578af3292355516c06963776d8fcb7115c53da5e4b9e6a19a0b",
  "version": 2,
  "locktime": 834637,
  "vin": [
    {
      "txid": "9861254ec3783225b5ba59b66d60e34ccc6237f754a0141c6e802590d1234dde",
      "vout": 0,
      "prevout": {
        "scriptpubkey": "0014899ef29412694730e2e42328990926914575f9b3",
        "scriptpubkey_asm": "OP_0 OP_PUSHBYTES_20 899ef29412694730e2e42328990926914575f9b3",
        "scriptpubkey_type": "v0_p2wpkh",
        "scriptpubkey_address": "bc1q3x0099qjd9rnpchyyv5fjzfxj9zht7dnya62h4",
        "value": 110580
      },
      "scriptsig": "",
      "scriptsig_asm": "",
      "witness": [
        "30440220426c53fdfc0d98c8f7e890c843e0678251d733f422ac6bf1b6960881096407850220496aa5642d84b5f1516c7491b966f688461b015b893581705b07f650569e3a3501",
        "02304ada404761dbf7f6506ab8c1353530bdb135dfb5d29caa4a016079e0907e8c"
      ],
      "is_coinbase": false,
      "sequence": 4294967294
    }
  ],
  "vout": [
    {
      "scriptpubkey": "00140bc8e5c303d2ff31de4d2b06545389097190c6ec",
      "scriptpubkey_asm": "OP_0 OP_PUSHBYTES_20 0bc8e5c303d2ff31de4d2b06545389097190c6ec",
      "scriptpubkey_type": "v0_p2wpkh",
      "scriptpubkey_address": "bc1qp0ywtscr6tlnrhjd9vr9g5ufp9cep3hvk574ck",
      "value": 47480
    },
    {
      "scriptpubkey": "00142c1e492bd4944430b7b06f45336f5c8212444d4e",
      "scriptpubkey_asm": "OP_0 OP_PUSHBYTES_20 2c1e492bd4944430b7b06f45336f5c8212444d4e",
      "scriptpubkey_type": "v0_p2wpkh",
      "scriptpubkey_address": "bc1q9s0yj275j3zrpdasdaznxm6usgfygn2wql8d54",
      "value": 60560
    }
  ],
  "size": 222,
  "weight": 561,
  "fee": 2540,
  "status": {
    "confirmed": true,
    "block_height": 834638,
    "block_hash": "000000000000000000025f742c626208ac87e0b7d15054abb4a19ca2d735a54e",
    "block_time": 1710405325
  },
  "hex": "02000000000101de4d23d19025806e1c14a054f73762cc4ce3606db659bab5253278c34e2561980000000000feffffff0278b90000000000001600140bc8e5c303d2ff31de4d2b06545389097190c6ec90ec0000000000001600142c1e492bd4944430b7b06f45336f5c8212444d4e024730440220426c53fdfc0d98c8f7e890c843e0678251d733f422ac6bf1b6960881096407850220496aa5642d84b5f1516c7491b966f688461b015b893581705b07f650569e3a35012102304ada404761dbf7f6506ab8c1353530bdb135dfb5d29caa4a016079e0907e8c4dbc0c00"
}