{
  "txid": "489763c2caf67a698913d5e7e8a22902899c590d8c47490a893d6245e27ef31b",
  "version": 1,
  "locktime": 834637,
  "vin": [
    {
      "txid": "4b67bc23048ea64178c160a2a98a35e44a62b763f18b43b4c4ec229adf45c17d",
      "vout": 4,
      "prevout": {
        "scriptpubkey": "0020436781b84daa74c5c529b1c449f550d59ba4d7b00a31c11616ca88a25c6c618a",
        "scriptpubkey_asm": "OP_0 OP_PUSHBYTES_32 436781b84daa74c5c529b1c449f550d59ba4d7b00a31c11616ca88a25c6c618a",
        "scriptpubkey_type": "v0_p2wsh",
        "scriptpubkey_address": "bc1qgdncrwzd4f6vt3ffk8zyna2s6kd6f4aspgcuz9ske2y2yhrvvx9qppe6n8",
        "value": 26795195
      },
      "scriptsig": "",
      "scriptsig_asm": "",
      "witness": [
        "",
        "304402201ab544000e7d4bca36cb17da8d53cf1e313a4ecd2eddf8d284b0d4de7e1b4ac302201a401e348796808e563eb642242441accdb22107b071fe4c7eee57979d15fca101",
        "304402203c9424edb9ac216a1092b87592608f88679dc7ff0782218ccb8d7f35c828648502207935b9c247cb718bfb652a542a18004e4125daa9ab06aa804c1c50daf9a3ccea01",
        "522102d89515fc78127983fde03bc18f2248237eb599ce3c5866b814d8e603ab46269921030a98f5d420a4c7e0ad2a6ae9b0fed091dc4f83389ace253bc269b1cad555368e2102007bc5f08c22ecf2c525f7458ffa8ea09579c338b7d611135136002d2cc3aa0353ae"
      ],
      "is_coinbase": false,
      "sequence": 4294967295,
      "inner_witnessscript_asm": "OP_PUSHNUM_2 OP_PUSHBYTES_33 02d89515fc78127983fde03bc18f2248237eb599ce3c5866b814d8e603ab462699 OP_PUSHBYTES_33 030a98f5d420a4c7e0ad2a6ae9b0fed091dc4f83389ace253bc269b1cad555368e OP_PUSHBYTES_33 02007bc5f08c22ecf2c525f7458ffa8ea09579c338b7d611135136002d2cc3aa03 OP_PUSHNUM_3 OP_CHECKMULTISIG"
    }
  ],
  "vout": [
    {
      "scriptpubkey": "76a9147ceff319abe74d1a63e0e6e676657d7924b878f988ac",
      "scriptpubkey_asm": "OP_DUP OP_HASH160 OP_PUSHBYTES_20 7ceff319abe74d1a63e0e6e676657d7924b878f9 OP_EQUALVERIFY OP_CHECKSIG",
      "scriptpubkey_type": "p2pkh",
      "scriptpubkey_address": "1CPcEn8pbNxyNL6hoP2xZAdmM4N91TSEc3",
      "value": 227404
    },
    {
      "scriptpubkey": "00140ccd5b27fc4e5034698c6b329a5538eb9b2789f7",
      "scriptpubkey_asm": "OP_0 OP_PUSHBYTES_20 0ccd5b27fc4e5034698c6b329a5538eb9b2789f7",
      "scriptpubkey_type": "v0_p2wpkh",
      "scriptpubkey_address": "bc1qpnx4kflufegrg6vvdvef54fcawdj0z0hjxpxjz",
      "value": 762576
    },
    {
      "scriptpubkey": "76a91485db47c488eb3544eaeada1e588aeac8958b609288ac",
      "scriptpubkey_asm": "OP_DUP OP_HASH160 OP_PUSHBYTES_20 85db47c488eb3544eaeada1e588aeac8958b6092 OP_EQUALVERIFY OP_CHECKSIG",
      "scriptpubkey_type": "p2pkh",
      "scriptpubkey_address": "1DCmZNy8aajzidT5EmnexESkAaj3NhLPDy",
      "value": 5122340
    },
    {
      "scriptpubkey": "00202c9266792ed57aaae09a88e31343efce70beb71319ee502e23b9fc89d8e5354f",
      "scriptpubkey_asm": "OP_0 OP_PUSHBYTES_32 2c9266792ed57aaae09a88e31343efce70beb71319ee502e23b9fc89d8e5354f",
      "scriptpubkey_type": "v0_p2wsh",
      "scriptpubkey_address": "bc1q9jfxv7fw64a24cy63r33xsl0eectadcnr8h9qt3rh87gnk89x48s7as56e",
      "value": 20677199
    }
  ],
  "size": 447,
  "weight": 1026,
  "fee": 5676,
  "status": {
    "confirmed": true,
    "block_height": 834638,
    "block_hash": "000000000000000000025f742c626208ac87e0b7d15054abb4a19ca2d735a54e",
    "block_time": 1710405325
  },
  "hex": "010000000001017dc145df9a22ecc4b4438bf163b7624ae4358aa9a260c17841a68e0423bc674b0400000000ffffffff044c780300000000001976a9147ceff319abe74d1a63e0e6e676657d7924b878f988acd0a20b00000000001600140ccd5b27fc4e5034698c6b329a5538eb9b2789f724294e00000000001976a91485db47c488eb3544eaeada1e588aeac8958b609288ac4f823b01000000002200202c9266792ed57aaae09a88e31343efce70beb71319ee502e23b9fc89d8e5354f040047304402201ab544000e7d4bca36cb17da8d53cf1e313a4ecd2eddf8d284b0d4de7e1b4ac302201a401e348796808e563eb642242441accdb22107b071fe4c7eee57979d15fca10147304402203c9424edb9ac216a1092b87592608f88679dc7ff0782218ccb8d7f35c828648502207935b9c247cb718bfb652a542a18004e4125daa9ab06aa804c1c50daf9a3ccea0169522102d89515fc78127983fde03bc18f2248237eb599ce3c5866b814d8e603ab46269921030a98f5d420a4c7e0ad2a6ae9b0fed091dc4f83389ace253bc269b1cad555368e2102007bc5f08c22ecf2c525f7458ffa8ea09579c338b7d611135136002d2cc3aa0353ae4dbc0c00"
}