{
  "txid": "48cc10c171e63363edfa70fbf302dcb66375ffafc0e45269946e08279739f227",
  "version": 2,
  "locktime": 0,
  "vin": [
    {
      "txid": "120ed7004c147d828000d8d3b1dab209b4061446d209ef7ccf2aa030c5a0e4bc",
      "vout": 6,
      "prevout": {
        "scriptpubkey": "51206a315deb0a4f7d466ed5261dcb04183ba1aee425f60c7654d0140dcf94fe2be7",
        "scriptpubkey_asm": "OP_PUSHNUM_1 OP_PUSHBYTES_32 6a315deb0a4f7d466ed5261dcb04183ba1aee425f60c7654d0140dcf94fe2be7",
        "scriptpubkey_type": "v1_p2tr",
        "scriptpubkey_address": "bc1pdgc4m6c2fa75vmk4ycwukpqc8ws6aep97cx8v4xszsxul98790ns3wausw",
        "value": 39957
      },
      "scriptsig": "",
      "scriptsig_asm": "",
      "witness": [
        "156e73213aca261de3fadaf4b2b9dda060d88e047f6f8ff2a1a4e57c86e73d83968e928da8c314d02d90010ec3833e80418f34dbe135d2a31bac0437060ec550"
      ],
      "is_coinbase": false,
      "sequence": 4294967293
    },
    {
      "txid": "1c92801e57897f3eb3ec58bbdf1bc5573a4c46090ad33644a7591b33803de5b2",
      "vout": 2,
      "prevout": {
        "scriptpubkey": "51206a315deb0a4f7d466ed5261dcb04183ba1aee425f60c7654d0140dcf94fe2be7",
        "scriptpubkey_asm": "OP_PUSHNUM_1 OP_PUSHBYTES_32 6a315deb0a4f7d466ed5261dcb04183ba1aee425f60c7654d0140dcf94fe2be7",
        "scriptpubkey_type": "v1_p2tr",
        "scriptpubkey_address": "bc1pdgc4m6c2fa75vmk4ycwukpqc8ws6aep97cx8v4xszsxul98790ns3wausw",
        "value": 90105
      },
      "scriptsig": "",
      "scriptsig_asm": "",
      "witness": [
        "263525fc30116012ebd8ce2611d911040cc11ddc44b7a24ea24dffaf4556621d1c0775232b365424ef7fb27a8b46b1710cae033b40d5e8fdb43ac1add82f6662"
      ],
      "is_coinbase": false,
      "sequence": 4294967295
    },
    {
      "txid": "27d6ac29b241fa4cf7133ef0eb9a5a51aeb61a1299cf6863c0257a026c1a0e2c",
      "vout": 1,
      "prevout": {
        "scriptpubkey": "51206a315deb0a4f7d466ed5261dcb04183ba1aee425f60c7654d0140dcf94fe2be7",
        "scriptpubkey_asm": "OP_PUSHNUM_1 OP_PUSHBYTES_32 6a315deb0a4f7d466ed5261dcb04183ba1aee425f60c7654d0140dcf94fe2be7",
        "scriptpubkey_type": "v1_p2tr",
        "scriptpubkey_address": "bc1pdgc4m6c2fa75vmk4ycwukpqc8ws6aep97cx8v4xszsxul98790ns3wausw",
        "value": 190528
      },
      "scriptsig": "",
      "scriptsig_asm": "",
      "witness": [
        "d1f3d300e699dfdc8db8af3dfec3d7619c972ced89c884b030903c8b6989e13aa5bb9b32edc961827345010033ee6443f4b8db04b1872261fcff35a934458a1c"
      ],
      "is_coinbase": false,
      "sequence": 4294967295
    },
    {
      "txid": "3caccf3c1a87675cd632802525eebac93f8c2c86649ff0f9c9dc882e6cc483c3",
      "vout": 1,
      "prevout": {
        "scriptpubkey": "51206a315deb0a4f7d466ed5261dcb04183ba1aee425f60c7654d0140dcf94fe2be7",
        "scriptpubkey_asm": "OP_PUSHNUM_1 OP_PUSHBYTES_32 6a315deb0a4f7d466ed5261dcb04183ba1aee425f60c7654d0140dcf94fe2be7",
        "scriptpubkey_type": "v1_p2tr",
        "scriptpubkey_address": "bc1pdgc4m6c2fa75vmk4ycwukpqc8ws6aep97cx8v4xszsxul98790ns3wausw",
        "value": 146824
      },
      "scriptsig": "",
      "scriptsig_asm": "",
      "witness": [
        "4cd4b05451b31b7a2e7fb350a72edce5a1d25f661e0c350de361906f737134e511c3cccd6bc2a557657548bf6abab173a520f55ead05c58d7fd16002cc6f6674"
      ],
      "is_coinbase": false,
      "sequence": 4294967295
    },
    {
      "txid": "51f16376a2ed61289d547953e7558162fa9894c9b7d825c3450b911dba6e0755",
      "vout": 2,
      "prevout": {
        "scriptpubkey": "51206a315deb0a4f7d466ed5261dcb04183ba1aee425f60c7654d0140dcf94fe2be7",
        "scriptpubkey_asm": "OP_PUSHNUM_1 OP_PUSHBYTES_32 6a315deb0a4f7d466ed5261dcb04183ba1aee425f60c7654d0140dcf94fe2be7",
        "scriptpubkey_type": "v1_p2tr",
        "scriptpubkey_address": "bc1pdgc4m6c2fa75vmk4ycwukpqc8ws6aep97cx8v4xszsxul98790ns3wausw",
        "value": 64235
      },
      "scriptsig": "",
      "scriptsig_asm": "",
      "witness": [
        "ee01ab6d18a85a91197063db0a76163192e5741f0184f837801b19e57c35ff1aaf06acb524cafd72a40cebe7c6c400d11e4203de448a87e2204e2f7fd99d2b1b"
      ],
      "is_coinbase": false,
      "sequence": 4294967295
    },
    {
      "txid": "6997d39ef548dc61717c38120c6dc78d3c25130869d6914ae3869184743d2eb0",
      "vout": 2,
      "prevout": {
        "scriptpubkey": "51206a315deb0a4f7d466ed5261dcb04183ba1aee425f60c7654d0140dcf94fe2be7",
        "scriptpubkey_asm": "OP_PUSHNUM_1 OP_PUSHBYTES_32 6a315deb0a4f7d466ed5261dcb04183ba1aee425f60c7654d0140dcf94fe2be7",
        "scriptpubkey_type": "v1_p2tr",
        "scriptpubkey_address": "bc1pdgc4m6c2fa75vmk4ycwukpqc8ws6aep97cx8v4xszsxul98790ns3wausw",
        "value": 43830
      },
      "scriptsig": "",
      "scriptsig_asm": "",
      "witness": [
        "594c0a88f8a063107f1aae9f6448fd712e20d2fbc68eabeaaf8045b5f03285c3e9c86d1c3a3642caf677ce95517a5050363f587feb0fe9cc5a88d51185c4f371"
      ],
      "is_coinbase": false,
      "sequence": 4294967295
    },
    {
      "txid": "6e31c57f2eabcf6aa6617f5b82dba8e00ef3b8a41f5f6af4523458cd85f3d301",
      "vout": 1,
      "prevout": {
        "scriptpubkey": "51206a315deb0a4f7d466ed5261dcb04183ba1aee425f60c7654d0140dcf94fe2be7",
        "scriptpubkey_asm": "OP_PUSHNUM_1 OP_PUSHBYTES_32 6a315deb0a4f7d466ed5261dcb04183ba1aee425f60c7654d0140dcf94fe2be7",
        "scriptpubkey_type": "v1_p2tr",
        "scriptpubkey_address": "bc1pdgc4m6c2fa75vmk4ycwukpqc8ws6aep97cx8v4xszsxul98790ns3wausw",
        "value": 169373
      },
      "scriptsig": "",
      "scriptsig_asm": "",
      "witness": [
        "068dc462b02223ad68e60af38bca05a19486f552c63c121b6fefce01427c3e218b961bea48360428c24d19eb0ff8eb0b9e3a76f91337610668feb78fe1d73419"
      ],
      "is_coinbase": false,
      "sequence": 4294967295
    },
    {
      "txid": "864d64bae3f989f936b97216ac85e7ea0a9bc92591e1ef5b8e016fcf9263accf",
      "vout": 1,
      "prevout": {
        "scriptpubkey": "51206a315deb0a4f7d466ed5261dcb04183ba1aee425f60c7654d0140dcf94fe2be7",
        "scriptpubkey_asm": "OP_PUSHNUM_1 OP_PUSHBYTES_32 6a315deb0a4f7d466ed5261dcb04183ba1aee425f60c7654d0140dcf94fe2be7",
        "scriptpubkey_type": "v1_p2tr",
        "scriptpubkey_address": "bc1pdgc4m6c2fa75vmk4ycwukpqc8ws6aep97cx8v4xszsxul98790ns3wausw",
        "value": 16332
      },
      "scriptsig": "",
      "scriptsig_asm": "",
      "witness": [
        "972d4e43f39f6f81e75401449ba55676338d09aa8c18c967da4da62d67bd868f98a49e4ad19828f66fa806ae6c4861498196a4bb3b1878ce4039a1ab418643a0"
      ],
      "is_coinbase": false,
      "sequence": 4294967295
    },
    {
      "txid": "b77e7feccb332c2783a630dc735cd43b605b4dde6aa86afcc54c8d2ce5a0b78c",
      "vout": 8,
      "prevout": {
        "scriptpubkey": "51206a315deb0a4f7d466ed5261dcb04183ba1aee425f60c7654d0140dcf94fe2be7",
        "scriptpubkey_asm": "OP_PUSHNUM_1 OP_PUSHBYTES_32 6a315deb0a4f7d466ed5261dcb04183ba1aee425f60c7654d0140dcf94fe2be7",
        "scriptpubkey_type": "v1_p2tr",
        "scriptpubkey_address": "bc1pdgc4m6c2fa75vmk4ycwukpqc8ws6aep97cx8v4xszsxul98790ns3wausw",
        "value": 33381
      },
      "scriptsig": "",
      "scriptsig_asm": "",
      "witness": [
        "d004656c551fc26c016a0d7a52912f1a44f8779f9256e3bc9f54900299675650056733f33229e474d70e168b8e62a0de3916f1fb4aa9c41e08203870f4322c30"
      ],
      "is_coinbase": false,
      "sequence": 4294967295
    },
    {
      "txid": "c82a0838ff5fe98d2bed9bf6c05052db71b9fe7f3a63d6947a691a4677a6f535",
      "vout": 2,
      "prevout": {
        "scriptpubkey": "51206a315deb0a4f7d466ed5261dcb04183ba1aee425f60c7654d0140dcf94fe2be7",
        "scriptpubkey_asm": "OP_PUSHNUM_1 OP_PUSHBYTES_32 6a315deb0a4f7d466ed5261dcb04183ba1aee425f60c7654d0140dcf94fe2be7",
        "scriptpubkey_type": "v1_p2tr",
        "scriptpubkey_address": "bc1pdgc4m6c2fa75vmk4ycwukpqc8ws6aep97cx8v4xszsxul98790ns3wausw",
        "value": 29608
      },
      "scriptsig": "",
      "scriptsig_asm": "",
      "witness": [
        "516aee4d983c7fb6848b14276068b4de130ee26684b3d5b18b14a4b0fa567984c634dd5b1f4ee40e1ebb62e1ceba2dda4a57f8f304ea8cfa82ba63bd41113c85"
      ],
      "is_coinbase": false,
      "sequence": 4294967295
    },
    {
      "txid": "cabd4e7daa1589b14747f7ec596d9154cead77b8489a5dc3d7d7eeec08d3ea60",
      "vout": 8,
      "prevout": {
        "scriptpubkey": "51206a315deb0a4f7d466ed5261dcb04183ba1aee425f60c7654d0140dcf94fe2be7",
        "scriptpubkey_asm": "OP_PUSHNUM_1 OP_PUSHBYTES_32 6a315deb0a4f7d466ed5261dcb04183ba1aee425f60c7654d0140dcf94fe2be7",
        "scriptpubkey_type": "v1_p2tr",
        "scriptpubkey_address": "bc1pdgc4m6c2fa75vmk4ycwukpqc8ws6aep97cx8v4xszsxul98790ns3wausw",
        "value": 29900
      },
      "scriptsig": "",
      "scriptsig_asm": "",
      "witness": [
        "c58865dd03868d0b3c96def3b26fd46f19b49cd280d748ea7238afe74e993848443d157b0d1d9a29266784586f65c57100b4e86f9f61b23746eb77a1ad429129"
      ],
      "is_coinbase": false,
      "sequence": 4294967295
    },
    {
      "txid": "fcecb70bb61e25b7e34f53b6fd9554239859a279a748e47625f58492f547e62e",
      "vout": 1,
      "prevout": {
        "scriptpubkey": "51206a315deb0a4f7d466ed5261dcb04183ba1aee425f60c7654d0140dcf94fe2be7",
        "scriptpubkey_asm": "OP_PUSHNUM_1 OP_PUSHBYTES_32 6a315deb0a4f7d466ed5261dcb04183ba1aee425f60c7654d0140dcf94fe2be7",
        "scriptpubkey_type": "v1_p2tr",
        "scriptpubkey_address": "bc1pdgc4m6c2fa75vmk4ycwukpqc8ws6aep97cx8v4xszsxul98790ns3wausw",
        "value": 123844
      },
      "scriptsig": "",
      "scriptsig_asm": "",
      "witness": [
        "f9d6f8c577698c6f68d62a2c8bd9661e671a6a76d650e638fae63481df75cbc77bab4a59b3515d16722d2cf785b3058ea6ac055c84bea6cca4050fc2a496442a"
      ],
      "is_coinbase": false,
      "sequence": 4294967295
    }
  ],
  "vout": [
    {
      "scriptpubkey": "51206a315deb0a4f7d466ed5261dcb04183ba1aee425f60c7654d0140dcf94fe2be7",
      "scriptpubkey_asm": "OP_PUSHNUM_1 OP_PUSHBYTES_32 6a315deb0a4f7d466ed5261dcb04183ba1aee425f60c7654d0140dcf94fe2be7",
      "scriptpubkey_type": "v1_p2tr",
      "scriptpubkey_address": "bc1pdgc4m6c2fa75vmk4ycwukpqc8ws6aep97cx8v4xszsxul98790ns3wausw",
      "value": 969769
    }
  ],
  "size": 1339,
  "weight": 2974,
  "fee": 8148,
  "status": {
    "confirmed": true,
    "block_height": 834464,
    "block_hash": "0000000000000000000177a0869a911a2b65c9bdcd5a8bcb02b68f305bee848e",
    "block_time": 1710308296
  },
  "hex": "0200000000010cbce4a0c530a02acf7cef09d2461406b409b2dab1d3d80080827d144c00d70e120600000000fdffffffb2e53d80331b59a74436d30a09464c3a57c51bdfbb58ecb33e7f89571e80921c0200000000ffffffff2c0e1a6c027a25c06368cf99121ab6ae515a9aebf03e13f74cfa41b229acd6270100000000ffffffffc383c46c2e88dcc9f9f09f64862c8c3fc9baee25258032d65c67871a3ccfac3c0100000000ffffffff55076eba1d910b45c325d8b7c99498fa628155e75379549d2861eda27663f1510200000000ffffffffb02e3d74849186e34a91d6690813253c8dc76d0c12387c7161dc48f59ed397690200000000ffffffff01d3f385cd583452f46a5f1fa4b8f30ee0a8db825b7f61a66acfab2e7fc5316e0100000000ffffffffcfac6392cf6f018e5befe19125c99b0aeae785ac1672b936f989f9e3ba644d860100000000ffffffff8cb7a0e52c8d4cc5fc6aa86ade4d5b603bd45c73dc30a683272c33cbec7f7eb70800000000ffffffff35f5a677461a697a94d6633a7ffeb971db5250c0f69bed2b8de95fff38082ac80200000000ffffffff60ead308eceed7d7c35d9a48b877adce54916d59ecf74747b18915aa7d4ebdca0800000000ffffffff2ee647f59284f52576e448a779a25998235495fdb6534fe3b7251eb60bb7ecfc0100000000ffffffff0129cc0e00000000002251206a315deb0a4f7d466ed5261dcb04183ba1aee425f60c7654d0140dcf94fe2be70140156e73213aca261de3fadaf4b2b9dda060d88e047f6f8ff2a1a4e57c86e73d83968e928da8c314d02d90010ec3833e80418f34dbe135d2a31bac0437060ec5500140263525fc30116012ebd8ce2611d911040cc11ddc44b7a24ea24dffaf4556621d1c0775232b365424ef7fb27a8b46b1710cae033b40d5e8fdb43ac1add82f66620140d1f3d300e699dfdc8db8af3dfec3d7619c972ced89c884b030903c8b6989e13aa5bb9b32edc961827345010033ee6443f4b8db04b1872261fcff35a934458a1c01404cd4b05451b31b7a2e7fb350a72edce5a1d25f661e0c350de361906f737134e511c3cccd6bc2a557657548bf6abab173a520f55ead05c58d7fd16002cc6f66740140ee01ab6d18a85a91197063db0a76163192e5741f0184f837801b19e57c35ff1aaf06acb524cafd72a40cebe7c6c400d11e4203de448a87e2204e2f7fd99d2b1b0140594c0a88f8a063107f1aae9f6448fd712e20d2fbc68eabeaaf8045b5f03285c3e9c86d1c3a3642caf677ce95517a5050363f587feb0fe9cc5a88d51185c4f3710140068dc462b02223ad68e60af38bca05a19486f552c63c121b6fefce01427c3e218b961bea48360428c24d19eb0ff8eb0b9e3a76f91337610668feb78fe1d734190140972d4e43f39f6f81e75401449ba55676338d09aa8c18c967da4da62d67bd868f98a49e4ad19828f66fa806ae6c4861498196a4bb3b1878ce4039a1ab418643a00140d004656c551fc26c016a0d7a52912f1a44f8779f9256e3bc9f54900299675650056733f33229e474d70e168b8e62a0de3916f1fb4aa9c41e08203870f4322c300140516aee4d983c7fb6848b14276068b4de130ee26684b3d5b18b14a4b0fa567984c634dd5b1f4ee40e1ebb62e1ceba2dda4a57f8f304ea8cfa82ba63bd41113c850140c58865dd03868d0b3c96def3b26fd46f19b49cd280d748ea7238afe74e993848443d157b0d1d9a29266784586f65c57100b4e86f9f61b23746eb77a1ad4291290140f9d6f8c577698c6f68d62a2c8bd9661e671a6a76d650e638fae63481df75cbc77bab4a59b3515d16722d2cf785b3058ea6ac055c84bea6cca4050fc2a496442a00000000"
}