{
  "txid": "48da683177c7dd82392d21f0a13ad7556ae07eb9fd03870df7968412be97f37f",
  "version": 1,
  "locktime": 0,
  "vin": [
    {
      "txid": "0ca2dc58824c61ed858c4a889ecb9a89c822235b5249b850f6dd323b73c020b1",
      "vout": 54,
      "prevout": {
        "scriptpubkey": "00148353ae35c08493dc06fa095e58c2d29399575644",
        "scriptpubkey_asm": "OP_0 OP_PUSHBYTES_20 8353ae35c08493dc06fa095e58c2d29399575644",
        "scriptpubkey_type": "v0_p2wpkh",
        "scriptpubkey_address": "bc1qsdf6udwqsjfacph6p9093skjjwv4w4jyk5lr4s",
        "value": 19760471
      },
      "scriptsig": "",
      "scriptsig_asm": "",
      "witness": [
        "3045022100908935704d13d6ff0ca110d9c4c0f6cd7fac6749aadf4d6ee3879278663653f80220337c04d29496075cb7cb5267687c5d0b840db57885156e3e52d9a82f589f588101",
        "024454473b18a1e1f03e441edd43bc30a6fb46536a36efef4a249f53f77cf53d05"
      ],
      "is_coinbase": false,
      "sequence": 4294967295
    }
  ],
  "vout": [
    {
      "scriptpubkey": "00149adb5ab95d4aa1fcc5e7e4be2795bd02bfd4e18d",
      "scriptpubkey_asm": "OP_0 OP_PUSHBYTES_20 9adb5ab95d4aa1fcc5e7e4be2795bd02bfd4e18d",
      "scriptpubkey_type": "v0_p2wpkh",
      "scriptpubkey_address": "bc1qntd44w2af2sle308ujlz09daq2lafcvdzv7p2y",
      "value": 144208
    },
    {
      "scriptpubkey": "001424c8881db1970b80f3650e43bb96a0b53cb4ebc1",
      "scriptpubkey_asm": "OP_0 OP_PUSHBYTES_20 24c8881db1970b80f3650e43bb96a0b53cb4ebc1",
      "scriptpubkey_type": "v0_p2wpkh",
      "scriptpubkey_address": "bc1qynygs8d3ju9cpum9pepmh94qk57tf67paka78g",
      "value": 19613725
    }
  ],
  "size": 223,
  "weight": 562,
  "fee": 2538,
  "status": {
    "confirmed": true,
    "block_height": 834638,
    "block_hash": "000000000000000000025f742c626208ac87e0b7d15054abb4a19ca2d735a54e",
    "block_time": 1710405325
  },
  "hex": "01000000000101b120c0733b32ddf650b849525b2322c8899acb9e884a8c85ed614c8258dca20c3600000000ffffffff0250330200000000001600149adb5ab95d4aa1fcc5e7e4be2795bd02bfd4e18d1d482b010000000016001424c8881db1970b80f3650e43bb96a0b53cb4ebc102483045022100908935704d13d6ff0ca110d9c4c0f6cd7fac6749aadf4d6ee3879278663653f80220337c04d29496075cb7cb5267687c5d0b840db57885156e3e52d9a82f589f58810121024454473b18a1e1f03e441edd43bc30a6fb46536a36efef4a249f53f77cf53d0500000000"
}