{
  "txid": "48ea1dfbc502933bc1da6ca3a95fed4016baf58b62c1af1b423c1932bff73c94",
  "version": 2,
  "locktime": 0,
  "vin": [
    {
      "txid": "8611120664cf99fc09c01b6c6dd7a157eda10924ee370e493749b0f6d0405bdc",
      "vout": 1,
      "prevout": {
        "scriptpubkey": "51205a01b2fbba28b4d4e4711bfb3817f68d233c02fda93d5d8820b634560b8b16ef",
        "scriptpubkey_asm": "OP_PUSHNUM_1 OP_PUSHBYTES_32 5a01b2fbba28b4d4e4711bfb3817f68d233c02fda93d5d8820b634560b8b16ef",
        "scriptpubkey_type": "v1_p2tr",
        "scriptpubkey_address": "bc1ptgqm97a69z6dfer3r0ans9lk353ncqha4y74mzpqkc69vzutzmhs2mqckn",
        "value": 2850922
      },
      "scriptsig": "",
      "scriptsig_asm": "",
      "witness": [
        "b571c96263fc66b2a63874a1ca86acb1e82f29fce8cbdca758df1979672d79d2fdf4643b3c10b8728d239370f4882ec155c8295e77112add29653ab3b7fdf9b3",
        "2088225c0158a85208c9f0a93d3b724953f164a056121b81a87f88ab0a666cbff1ac0063036f726401010a746578742f706c61696e004c827b2270223a22746170222c226f70223a22646d742d6d696e74222c22646570223a22346439363761663336646361636437653631393963333962646138353564376231623337323638663463383033316665643534303361393961633537666536376930222c227469636b223a226e6174222c22626c6b223a22383334363338227d68",
        "c088225c0158a85208c9f0a93d3b724953f164a056121b81a87f88ab0a666cbff1"
      ],
      "is_coinbase": false,
      "sequence": 4261412863
    }
  ],
  "vout": [
    {
      "scriptpubkey": "0014cdc1cde2e417b586bd714f64afc3d7def41b6b15",
      "scriptpubkey_asm": "OP_0 OP_PUSHBYTES_20 cdc1cde2e417b586bd714f64afc3d7def41b6b15",
      "scriptpubkey_type": "v0_p2wpkh",
      "scriptpubkey_address": "bc1qehqumchyz76cd0t3faj2ls7hmm6pk6c45h4l9c",
      "value": 294
    },
    {
      "scriptpubkey": "5120f55e095cc08d60e732dee091587937a8af72a41f6179b3b582d3c950ae50dfdf",
      "scriptpubkey_asm": "OP_PUSHNUM_1 OP_PUSHBYTES_32 f55e095cc08d60e732dee091587937a8af72a41f6179b3b582d3c950ae50dfdf",
      "scriptpubkey_type": "v1_p2tr",
      "scriptpubkey_address": "bc1p740qjhxq34swwvk7uzg4s7fh4zhh9fqlv9um8dvz60y4ptjsml0sjqqrfp",
      "value": 2843698
    }
  ],
  "size": 415,
  "weight": 790,
  "fee": 6930,
  "status": {
    "confirmed": true,
    "block_height": 834638,
    "block_hash": "000000000000000000025f742c626208ac87e0b7d15054abb4a19ca2d735a54e",
    "block_time": 1710405325
  },
  "hex": "02000000000101dc5b40d0f6b04937490e37ee2409a1ed57a1d76d6c1bc009fc99cf64061211860100000000fffffffd022601000000000000160014cdc1cde2e417b586bd714f64afc3d7def41b6b1532642b0000000000225120f55e095cc08d60e732dee091587937a8af72a41f6179b3b582d3c950ae50dfdf0340b571c96263fc66b2a63874a1ca86acb1e82f29fce8cbdca758df1979672d79d2fdf4643b3c10b8728d239370f4882ec155c8295e77112add29653ab3b7fdf9b3bb2088225c0158a85208c9f0a93d3b724953f164a056121b81a87f88ab0a666cbff1ac0063036f726401010a746578742f706c61696e004c827b2270223a22746170222c226f70223a22646d742d6d696e74222c22646570223a22346439363761663336646361636437653631393963333962646138353564376231623337323638663463383033316665643534303361393961633537666536376930222c227469636b223a226e6174222c22626c6b223a22383334363338227d6821c088225c0158a85208c9f0a93d3b724953f164a056121b81a87f88ab0a666cbff100000000"
}