{
  "txid": "490d513d1f9a0af03cf0645239ed7be9809ba80c1648716aa1a632d0b30106e1",
  "version": 2,
  "locktime": 0,
  "vin": [
    {
      "txid": "21cba9805c549fdfcac079e845469baebb257e9f3d4d7cadbbe874f7b2e6b5c3",
      "vout": 1,
      "prevout": {
        "scriptpubkey": "0014693ccc33e4b7b631a118eb9aa778e569cfed7ebf",
        "scriptpubkey_asm": "OP_0 OP_PUSHBYTES_20 693ccc33e4b7b631a118eb9aa778e569cfed7ebf",
        "scriptpubkey_type": "v0_p2wpkh",
        "scriptpubkey_address": "bc1qdy7vcvlyk7mrrggcawd2w789d8876l4l296uee",
        "value": 48273
      },
      "scriptsig": "",
      "scriptsig_asm": "",
      "witness": [
        "304402206c90fe8a8bc22c5cba41fb8906822013146c75a1cd625945d4c05c314df4634402207225e7a4bbd0aafaf411d96ce83c4faf6f352fcb35588103525e3491b2ed1c8701",
        "03b64297f35759d55950a45d1d1f7949063723cfde2ea33d977137443b68c46be6"
      ],
      "is_coinbase": false,
      "sequence": 4294967295
    }
  ],
  "vout": [
    {
      "scriptpubkey": "001448dfa704897f78fdfbc2b9534055dd9b219ef5a8",
      "scriptpubkey_asm": "OP_0 OP_PUSHBYTES_20 48dfa704897f78fdfbc2b9534055dd9b219ef5a8",
      "scriptpubkey_type": "v0_p2wpkh",
      "scriptpubkey_address": "bc1qfr06wpyf0au0m77zh9f5q4wanvseaadgq9qhf9",
      "value": 12471
    },
    {
      "scriptpubkey": "0014693ccc33e4b7b631a118eb9aa778e569cfed7ebf",
      "scriptpubkey_asm": "OP_0 OP_PUSHBYTES_20 693ccc33e4b7b631a118eb9aa778e569cfed7ebf",
      "scriptpubkey_type": "v0_p2wpkh",
      "scriptpubkey_address": "bc1qdy7vcvlyk7mrrggcawd2w789d8876l4l296uee",
      "value": 33828
    }
  ],
  "size": 222,
  "weight": 561,
  "fee": 1974,
  "status": {
    "confirmed": true,
    "block_height": 834460,
    "block_hash": "00000000000000000000484a79b643b2524bbce82e5d8a442013fa5b8905ed98",
    "block_time": 1710307468
  },
  "hex": "02000000000101c3b5e6b2f774e8bbad7c4d3d9f7e25bbae9b4645e879c0cadf9f545c80a9cb210100000000ffffffff02b73000000000000016001448dfa704897f78fdfbc2b9534055dd9b219ef5a82484000000000000160014693ccc33e4b7b631a118eb9aa778e569cfed7ebf0247304402206c90fe8a8bc22c5cba41fb8906822013146c75a1cd625945d4c05c314df4634402207225e7a4bbd0aafaf411d96ce83c4faf6f352fcb35588103525e3491b2ed1c87012103b64297f35759d55950a45d1d1f7949063723cfde2ea33d977137443b68c46be600000000"
}