{
  "txid": "491148bbdd57a7fa3317b0f643bd22cdedd983e2b5a45ad72580ace15b30ce81",
  "version": 2,
  "locktime": 0,
  "vin": [
    {
      "txid": "33198a5cbe2a53fc30099ab53009144888cef479020e7acbc065183b03c26d7b",
      "vout": 20,
      "prevout": {
        "scriptpubkey": "512083a66bac177fbc0a6dbe320b1b7f7c74cbe28d6cf1a88981573b5ed1487489cd",
        "scriptpubkey_asm": "OP_PUSHNUM_1 OP_PUSHBYTES_32 83a66bac177fbc0a6dbe320b1b7f7c74cbe28d6cf1a88981573b5ed1487489cd",
        "scriptpubkey_type": "v1_p2tr",
        "scriptpubkey_address": "bc1pswnxhtqh077q5md7xg93klmuwn979rtv7x5gnq2h8d0dzjr538xslnpmdk",
        "value": 2658
      },
      "scriptsig": "",
      "scriptsig_asm": "",
      "witness": [
        "4d253dd02210b7905944fb3506c67a3d694fb8696b9cb0418f08d7a3e8ea42a094a7e58f1e5889ef8baed4bdc6f72d095c6ecca37b729fb0b3d7a63e7506c56d",
        "20f69f8de2a33a403138c34f7a5625b928d16b909cd5cfece288ea20d39b9d37a8ac0063036f726401011e6170706c69636174696f6e2f6a736f6e3b636861727365743d7574662d38004cbf7b2270223a22706f772d3230222c226f70223a226d696e74222c227469636b223a2250455045222c22616d74223a2231303030222c22736f6c7574696f6e223a22504550453a626331717832636c7935673578376b356a6b7376396d61346332753661646c7a78657470616e387071733a303030303030303030303030303030303030303139393431613561653132383937363539383134343239323533333030353762306461393666336465613163353a3231303533363836323034227d68",
        "c1da2c9a1920efdfbecd176e4adbb0ca1150e62509fd8a3a19d8331b0c89a8a97b"
      ],
      "is_coinbase": false,
      "sequence": 4294967295
    }
  ],
  "vout": [
    {
      "scriptpubkey": "001432b1f2511437ad495a0c2efb5c2b9aeb7e236561",
      "scriptpubkey_asm": "OP_0 OP_PUSHBYTES_20 32b1f2511437ad495a0c2efb5c2b9aeb7e236561",
      "scriptpubkey_type": "v0_p2wpkh",
      "scriptpubkey_address": "bc1qx2cly5g5x7k5jksv9ma4c2u6adlzxetpan8pqs",
      "value": 546
    }
  ],
  "size": 455,
  "weight": 701,
  "fee": 2112,
  "status": {
    "confirmed": true,
    "block_height": 834460,
    "block_hash": "00000000000000000000484a79b643b2524bbce82e5d8a442013fa5b8905ed98",
    "block_time": 1710307468
  },
  "hex": "020000000001017b6dc2033b1865c0cb7a0e0279f4ce8848140930b59a0930fc532abe5c8a19331400000000ffffffff01220200000000000016001432b1f2511437ad495a0c2efb5c2b9aeb7e23656103404d253dd02210b7905944fb3506c67a3d694fb8696b9cb0418f08d7a3e8ea42a094a7e58f1e5889ef8baed4bdc6f72d095c6ecca37b729fb0b3d7a63e7506c56dfd0c0120f69f8de2a33a403138c34f7a5625b928d16b909cd5cfece288ea20d39b9d37a8ac0063036f726401011e6170706c69636174696f6e2f6a736f6e3b636861727365743d7574662d38004cbf7b2270223a22706f772d3230222c226f70223a226d696e74222c227469636b223a2250455045222c22616d74223a2231303030222c22736f6c7574696f6e223a22504550453a626331717832636c7935673578376b356a6b7376396d61346332753661646c7a78657470616e387071733a303030303030303030303030303030303030303139393431613561653132383937363539383134343239323533333030353762306461393666336465613163353a3231303533363836323034227d6821c1da2c9a1920efdfbecd176e4adbb0ca1150e62509fd8a3a19d8331b0c89a8a97b00000000"
}