{
  "txid": "4912b4b39370659b75386d6a974b67e4c7e5434f1604912c6b742b76c5f80401",
  "version": 1,
  "locktime": 0,
  "vin": [
    {
      "txid": "aff9722a9867bda2a1820bdcbd0a4ba406024881df9c688d536924d4aad821d9",
      "vout": 0,
      "prevout": {
        "scriptpubkey": "51203e89d9183cc702ee22217fad9a54bae8b6c8d0a020f211547286dacb3d32ff0d",
        "scriptpubkey_asm": "OP_PUSHNUM_1 OP_PUSHBYTES_32 3e89d9183cc702ee22217fad9a54bae8b6c8d0a020f211547286dacb3d32ff0d",
        "scriptpubkey_type": "v1_p2tr",
        "scriptpubkey_address": "bc1p86yajxpucupwug3p07ke5496azmv359qyrepz4rjsmdvk0fjluxsv9xyzj",
        "value": 2721
      },
      "scriptsig": "",
      "scriptsig_asm": "",
      "witness": [
        "223e3e9473442a9d87b397b156c83857e9e24d9f5042df8011b378c0604bedcece1610205295bca1481e9849baaf6eac827e3d4ac1fff665fb6a5270576ca655",
        "2079f9d72d9b9b1dcb10f7ce421deb098c111f9504f4c35d2f77d14ee0d7bea71eac0063036f7264010118746578742f706c61696e3b636861727365743d7574662d3800387b2270223a226272632d3230222c226f70223a227472616e73666572222c227469636b223a224d574343222c22616d74223a22353231227d68",
        "c179f9d72d9b9b1dcb10f7ce421deb098c111f9504f4c35d2f77d14ee0d7bea71e"
      ],
      "is_coinbase": false,
      "sequence": 4294967293
    }
  ],
  "vout": [
    {
      "scriptpubkey": "0014303339128bc1e7928aebac5f28757088066d5977",
      "scriptpubkey_asm": "OP_0 OP_PUSHBYTES_20 303339128bc1e7928aebac5f28757088066d5977",
      "scriptpubkey_type": "v0_p2wpkh",
      "scriptpubkey_address": "bc1qxqenjy5tc8ne9zht430jsats3qrx6kthmqu50d",
      "value": 546
    }
  ],
  "size": 311,
  "weight": 557,
  "fee": 2175,
  "status": {
    "confirmed": true,
    "block_height": 834460,
    "block_hash": "00000000000000000000484a79b643b2524bbce82e5d8a442013fa5b8905ed98",
    "block_time": 1710307468
  },
  "hex": "01000000000101d921d8aad42469538d689cdf81480206a44b0abddc0b82a1a2bd67982a72f9af0000000000fdffffff012202000000000000160014303339128bc1e7928aebac5f28757088066d59770340223e3e9473442a9d87b397b156c83857e9e24d9f5042df8011b378c0604bedcece1610205295bca1481e9849baaf6eac827e3d4ac1fff665fb6a5270576ca6557e2079f9d72d9b9b1dcb10f7ce421deb098c111f9504f4c35d2f77d14ee0d7bea71eac0063036f7264010118746578742f706c61696e3b636861727365743d7574662d3800387b2270223a226272632d3230222c226f70223a227472616e73666572222c227469636b223a224d574343222c22616d74223a22353231227d6821c179f9d72d9b9b1dcb10f7ce421deb098c111f9504f4c35d2f77d14ee0d7bea71e00000000"
}