{
  "txid": "491991bde2e974f4894470188e0743448be51f87a0b4566010c859ed57807744",
  "version": 2,
  "locktime": 0,
  "vin": [
    {
      "txid": "e60d01f1eeee2dbec06ec3a8d448424ca93ea4dcefc453871fc404580cc03558",
      "vout": 7,
      "prevout": {
        "scriptpubkey": "51200677065c6097f306d7d3e1f3102f265476422be05190aa3b5d81ce85e3ef5310",
        "scriptpubkey_asm": "OP_PUSHNUM_1 OP_PUSHBYTES_32 0677065c6097f306d7d3e1f3102f265476422be05190aa3b5d81ce85e3ef5310",
        "scriptpubkey_type": "v1_p2tr",
        "scriptpubkey_address": "bc1pqemsvhrqjlesd47nu8e3qtex23myy2lq2xg25w6as88gtcl02vgqnhf498",
        "value": 2646
      },
      "scriptsig": "",
      "scriptsig_asm": "",
      "witness": [
        "69901a2e9cc1ce70cec7553849ed6a8d6f6088e3dc24fd08eec94ecf75c0501b0f24eba1a2cfd2c1f27cbcc83e7d25d1517b79086b4feead7fb6046ca4c24e98",
        "20cbe73aa1eaa93b833d25198a6036b3805f7b7558a2d149049694a54ada5e3ae3ac0063036f726401011e6170706c69636174696f6e2f6a736f6e3b636861727365743d7574662d38004cb77b2270223a22706f772d3230222c226f70223a226d696e74222c227469636b223a2250455045222c22616d74223a2231303030222c22736f6c7574696f6e223a22504550453a3351345a614567486177466561585773437a6d775a743766465543593771377759703a303030303030303030303030303030303030303139393431613561653132383937363539383134343239323533333030353762306461393666336465613163353a3437363638323737323736227d68",
        "c18db7ab6533b96c0773861c29df1705bf8b1dfa6577ecaa232ec7cdccd60ed417"
      ],
      "is_coinbase": false,
      "sequence": 4294967295
    }
  ],
  "vout": [
    {
      "scriptpubkey": "a914f565ec243898a586d6342e6d91e39b804127827787",
      "scriptpubkey_asm": "OP_HASH160 OP_PUSHBYTES_20 f565ec243898a586d6342e6d91e39b8041278277 OP_EQUAL",
      "scriptpubkey_type": "p2sh",
      "scriptpubkey_address": "3Q4ZaEgHawFeaXWsCzmwZt7fFUCY7q7wYp",
      "value": 546
    }
  ],
  "size": 448,
  "weight": 697,
  "fee": 2100,
  "status": {
    "confirmed": true,
    "block_height": 834460,
    "block_hash": "00000000000000000000484a79b643b2524bbce82e5d8a442013fa5b8905ed98",
    "block_time": 1710307468
  },
  "hex": "020000000001015835c00c5804c41f8753c4efdca43ea94c4248d4a8c36ec0be2deeeef1010de60700000000ffffffff01220200000000000017a914f565ec243898a586d6342e6d91e39b804127827787034069901a2e9cc1ce70cec7553849ed6a8d6f6088e3dc24fd08eec94ecf75c0501b0f24eba1a2cfd2c1f27cbcc83e7d25d1517b79086b4feead7fb6046ca4c24e98fd040120cbe73aa1eaa93b833d25198a6036b3805f7b7558a2d149049694a54ada5e3ae3ac0063036f726401011e6170706c69636174696f6e2f6a736f6e3b636861727365743d7574662d38004cb77b2270223a22706f772d3230222c226f70223a226d696e74222c227469636b223a2250455045222c22616d74223a2231303030222c22736f6c7574696f6e223a22504550453a3351345a614567486177466561585773437a6d775a743766465543593771377759703a303030303030303030303030303030303030303139393431613561653132383937363539383134343239323533333030353762306461393666336465613163353a3437363638323737323736227d6821c18db7ab6533b96c0773861c29df1705bf8b1dfa6577ecaa232ec7cdccd60ed41700000000"
}