{
  "txid": "491b55873b1992665a2c6cc19763282797c7da6efb79b1ee9fd6300a8c1838cc",
  "version": 1,
  "locktime": 0,
  "vin": [
    {
      "txid": "ae4df9fac30c9502e4af3e7407e12081edda047d8dd1827cf997388f79f5b2a6",
      "vout": 0,
      "prevout": {
        "scriptpubkey": "0014fe145e8d7dc990f52a445c7116aa8d4bda31d130",
        "scriptpubkey_asm": "OP_0 OP_PUSHBYTES_20 fe145e8d7dc990f52a445c7116aa8d4bda31d130",
        "scriptpubkey_type": "v0_p2wpkh",
        "scriptpubkey_address": "bc1qlc29artaexg022jyt3c3d25df0drr5fsnclzul",
        "value": 2976541
      },
      "scriptsig": "",
      "scriptsig_asm": "",
      "witness": [
        "3045022100fe68b63f7a41463eb52a44087334c8c8227e572f284be8b51a70eda5625b49ab02204f065a6c68c89b4df82f2062ab912432bd6b04f9c5c8b3b8e7a138278a99fc2a01",
        "02ce6a7a13400faa5f5814b28fe8f0e608c2b0194cfc6c0d5ae13be9e4bfb16a45"
      ],
      "is_coinbase": false,
      "sequence": 4294967295
    },
    {
      "txid": "dd5b017f9f4b4995cd68732fc3fa19577e4ea3d812ff7f33bb5d160c719db082",
      "vout": 1,
      "prevout": {
        "scriptpubkey": "0014ec437953979f3bcb687a562dcd0f49f947d700d5",
        "scriptpubkey_asm": "OP_0 OP_PUSHBYTES_20 ec437953979f3bcb687a562dcd0f49f947d700d5",
        "scriptpubkey_type": "v0_p2wpkh",
        "scriptpubkey_address": "bc1qa3phj5uhnuauk6r62cku6r6fl9rawqx4n6d690",
        "value": 830973
      },
      "scriptsig": "",
      "scriptsig_asm": "",
      "witness": [
        "304502210083e21cf41114851cef7b0a57e4bb9737270684f80500d45641235a287e4c9ec60220496c3fde483b70ad1ddd8465bbb1c2b1c373a647559d4a81d79c0a9e674c61ea01",
        "0386d7ac9fe71487e5e8c44bf0d39be679d9074f04d0a28d968e164bd9539161ef"
      ],
      "is_coinbase": false,
      "sequence": 4294967295
    },
    {
      "txid": "126876a39c444db7e2aaeb13186362170a52cdab81a37c768653b8d048cf252d",
      "vout": 1,
      "prevout": {
        "scriptpubkey": "0014ec437953979f3bcb687a562dcd0f49f947d700d5",
        "scriptpubkey_asm": "OP_0 OP_PUSHBYTES_20 ec437953979f3bcb687a562dcd0f49f947d700d5",
        "scriptpubkey_type": "v0_p2wpkh",
        "scriptpubkey_address": "bc1qa3phj5uhnuauk6r62cku6r6fl9rawqx4n6d690",
        "value": 1512491
      },
      "scriptsig": "",
      "scriptsig_asm": "",
      "witness": [
        "30440220310b8987fd7479bf22b7cfce0a0a8df0f2d692e2a621dd7d721f40c322a57ef7022076175da46342ec958c6dc8a86b7338140656b72867cb3bab74bee12530bc9f8001",
        "0386d7ac9fe71487e5e8c44bf0d39be679d9074f04d0a28d968e164bd9539161ef"
      ],
      "is_coinbase": false,
      "sequence": 4294967295
    },
    {
      "txid": "b887d72e6aacc14d52d9acdbdbf7980e39461dcab003bab5e73933fc2a18d664",
      "vout": 1,
      "prevout": {
        "scriptpubkey": "0014ec437953979f3bcb687a562dcd0f49f947d700d5",
        "scriptpubkey_asm": "OP_0 OP_PUSHBYTES_20 ec437953979f3bcb687a562dcd0f49f947d700d5",
        "scriptpubkey_type": "v0_p2wpkh",
        "scriptpubkey_address": "bc1qa3phj5uhnuauk6r62cku6r6fl9rawqx4n6d690",
        "value": 116415906
      },
      "scriptsig": "",
      "scriptsig_asm": "",
      "witness": [
        "3045022100d2c9a7246c5e7a52a029131c6cce1f469cf344ebe73adc789667476acee83d370220574e7c1598c40e317a4d0500507b65705d3be177870027e1573055db65072edb01",
        "0386d7ac9fe71487e5e8c44bf0d39be679d9074f04d0a28d968e164bd9539161ef"
      ],
      "is_coinbase": false,
      "sequence": 4294967295
    },
    {
      "txid": "60ecb4842180c2e18bc2d99926cb18346bd435fd0a158a3dac3d9a1557a94412",
      "vout": 1,
      "prevout": {
        "scriptpubkey": "0014ec437953979f3bcb687a562dcd0f49f947d700d5",
        "scriptpubkey_asm": "OP_0 OP_PUSHBYTES_20 ec437953979f3bcb687a562dcd0f49f947d700d5",
        "scriptpubkey_type": "v0_p2wpkh",
        "scriptpubkey_address": "bc1qa3phj5uhnuauk6r62cku6r6fl9rawqx4n6d690",
        "value": 10374889961
      },
      "scriptsig": "",
      "scriptsig_asm": "",
      "witness": [
        "30450221009e042cd10aba0187e6b2da6829a8d50fabda4927de18c0d282a1638e8601464902200f2d348d54a909d3405531924f5abbdc8771a2f24bb8e7b3d93a0faaff578e6f01",
        "0386d7ac9fe71487e5e8c44bf0d39be679d9074f04d0a28d968e164bd9539161ef"
      ],
      "is_coinbase": false,
      "sequence": 4294967295
    }
  ],
  "vout": [
    {
      "scriptpubkey": "76a914e8591bab633793f60f017d73eb4b81d5fa1dad2a88ac",
      "scriptpubkey_asm": "OP_DUP OP_HASH160 OP_PUSHBYTES_20 e8591bab633793f60f017d73eb4b81d5fa1dad2a OP_EQUALVERIFY OP_CHECKSIG",
      "scriptpubkey_type": "p2pkh",
      "scriptpubkey_address": "1NBYWqtQvWmT7hzEB11XyGjHp4G177AVgz",
      "value": 722500000
    },
    {
      "scriptpubkey": "0014ec437953979f3bcb687a562dcd0f49f947d700d5",
      "scriptpubkey_asm": "OP_0 OP_PUSHBYTES_20 ec437953979f3bcb687a562dcd0f49f947d700d5",
      "scriptpubkey_type": "v0_p2wpkh",
      "scriptpubkey_address": "bc1qa3phj5uhnuauk6r62cku6r6fl9rawqx4n6d690",
      "value": 9774118866
    }
  ],
  "size": 821,
  "weight": 1661,
  "fee": 7006,
  "status": {
    "confirmed": true,
    "block_height": 834638,
    "block_hash": "000000000000000000025f742c626208ac87e0b7d15054abb4a19ca2d735a54e",
    "block_time": 1710405325
  },
  "hex": "01000000000105a6b2f5798f3897f97c82d18d7d04daed8120e107743eafe402950cc3faf94dae0000000000ffffffff82b09d710c165dbb337fff12d8a34e7e5719fac32f7368cd95494b9f7f015bdd0100000000ffffffff2d25cf48d0b85386767ca381abcd520a1762631813ebaae2b74d449ca37668120100000000ffffffff64d6182afc3339e7b5ba03b0ca1d46390e98f7dbdbacd9524dc1ac6a2ed787b80100000000ffffffff1244a957159a3dac3d8a150afd35d46b3418cb2699d9c28be1c2802184b4ec600100000000ffffffff02a079102b000000001976a914e8591bab633793f60f017d73eb4b81d5fa1dad2a88acd237954602000000160014ec437953979f3bcb687a562dcd0f49f947d700d502483045022100fe68b63f7a41463eb52a44087334c8c8227e572f284be8b51a70eda5625b49ab02204f065a6c68c89b4df82f2062ab912432bd6b04f9c5c8b3b8e7a138278a99fc2a012102ce6a7a13400faa5f5814b28fe8f0e608c2b0194cfc6c0d5ae13be9e4bfb16a450248304502210083e21cf41114851cef7b0a57e4bb9737270684f80500d45641235a287e4c9ec60220496c3fde483b70ad1ddd8465bbb1c2b1c373a647559d4a81d79c0a9e674c61ea01210386d7ac9fe71487e5e8c44bf0d39be679d9074f04d0a28d968e164bd9539161ef024730440220310b8987fd7479bf22b7cfce0a0a8df0f2d692e2a621dd7d721f40c322a57ef7022076175da46342ec958c6dc8a86b7338140656b72867cb3bab74bee12530bc9f8001210386d7ac9fe71487e5e8c44bf0d39be679d9074f04d0a28d968e164bd9539161ef02483045022100d2c9a7246c5e7a52a029131c6cce1f469cf344ebe73adc789667476acee83d370220574e7c1598c40e317a4d0500507b65705d3be177870027e1573055db65072edb01210386d7ac9fe71487e5e8c44bf0d39be679d9074f04d0a28d968e164bd9539161ef024830450221009e042cd10aba0187e6b2da6829a8d50fabda4927de18c0d282a1638e8601464902200f2d348d54a909d3405531924f5abbdc8771a2f24bb8e7b3d93a0faaff578e6f01210386d7ac9fe71487e5e8c44bf0d39be679d9074f04d0a28d968e164bd9539161ef00000000"
}