{
  "txid": "491bba27933daac8ce7de5dc7af6146781b5c3f3f0366b4069da0f908ee14fee",
  "version": 1,
  "locktime": 0,
  "vin": [
    {
      "txid": "ff328c11d3a96d1c8a90891d55cd2ad0e6e39aed4ebe7e2922a5d650251c6f72",
      "vout": 14,
      "prevout": {
        "scriptpubkey": "001472cebd8344039aeaa73caaa05e75d80377feb96b",
        "scriptpubkey_asm": "OP_0 OP_PUSHBYTES_20 72cebd8344039aeaa73caaa05e75d80377feb96b",
        "scriptpubkey_type": "v0_p2wpkh",
        "scriptpubkey_address": "bc1qwt8tmq6yqwdw4feu42s9uawcqdmlawttxms09w",
        "value": 10014983
      },
      "scriptsig": "",
      "scriptsig_asm": "",
      "witness": [
        "304402203664228f2921cdfea1e14f4cc8c1a6df1cb79e22c5599e919ae9ffe7666d55590220049eeac0cfde407f86a916b337aa4c9313cda0adfee3a6644c1338b825b5ad7801",
        "038648f171ec262fabfe10240bbb4c9fbe064452b1d12817cc418d87b819dc6cb5"
      ],
      "is_coinbase": false,
      "sequence": 0
    },
    {
      "txid": "61d981ddd7fe8ca69644de771e5d36d8ec4a125fff7ccd04d96b2271b55327ed",
      "vout": 13,
      "prevout": {
        "scriptpubkey": "001472cebd8344039aeaa73caaa05e75d80377feb96b",
        "scriptpubkey_asm": "OP_0 OP_PUSHBYTES_20 72cebd8344039aeaa73caaa05e75d80377feb96b",
        "scriptpubkey_type": "v0_p2wpkh",
        "scriptpubkey_address": "bc1qwt8tmq6yqwdw4feu42s9uawcqdmlawttxms09w",
        "value": 100000
      },
      "scriptsig": "",
      "scriptsig_asm": "",
      "witness": [
        "30440220619de672c12d2ca6916cc1cb3a9d8bcfcc93a79c8a037c252c6449557cbea8b502202a3c7cde5c1e8541e0cd6abaeb8a76485b5d20a2f935a80be7b3cf6324cd569e01",
        "038648f171ec262fabfe10240bbb4c9fbe064452b1d12817cc418d87b819dc6cb5"
      ],
      "is_coinbase": false,
      "sequence": 0
    }
  ],
  "vout": [
    {
      "scriptpubkey": "a9141e8cfb5da66e335e1e023abf7c43d9d9aa1bd26687",
      "scriptpubkey_asm": "OP_HASH160 OP_PUSHBYTES_20 1e8cfb5da66e335e1e023abf7c43d9d9aa1bd266 OP_EQUAL",
      "scriptpubkey_type": "p2sh",
      "scriptpubkey_address": "34UZ5tj8HVwDxujX6ZmZnAQjbYpkD4J7Xg",
      "value": 10112119
    }
  ],
  "size": 340,
  "weight": 712,
  "fee": 2864,
  "status": {
    "confirmed": true,
    "block_height": 834638,
    "block_hash": "000000000000000000025f742c626208ac87e0b7d15054abb4a19ca2d735a54e",
    "block_time": 1710405325
  },
  "hex": "01000000000102726f1c2550d6a522297ebe4eed9ae3e6d02acd551d89908a1c6da9d3118c32ff0e0000000000000000ed2753b571226bd904cd7cff5f124aecd8365d1e77de4496a68cfed7dd81d9610d000000000000000001774c9a000000000017a9141e8cfb5da66e335e1e023abf7c43d9d9aa1bd266870247304402203664228f2921cdfea1e14f4cc8c1a6df1cb79e22c5599e919ae9ffe7666d55590220049eeac0cfde407f86a916b337aa4c9313cda0adfee3a6644c1338b825b5ad780121038648f171ec262fabfe10240bbb4c9fbe064452b1d12817cc418d87b819dc6cb5024730440220619de672c12d2ca6916cc1cb3a9d8bcfcc93a79c8a037c252c6449557cbea8b502202a3c7cde5c1e8541e0cd6abaeb8a76485b5d20a2f935a80be7b3cf6324cd569e0121038648f171ec262fabfe10240bbb4c9fbe064452b1d12817cc418d87b819dc6cb500000000"
}