{
  "txid": "492c8a34b81f3d21ccabad349befc1f7c81dc54b68e3c42e60830d29f1d069e1",
  "version": 1,
  "locktime": 0,
  "vin": [
    {
      "txid": "75030761cb3f55f39727acc17ca9eaad7ccb1f30fe8aac0299d8f24995f38bb7",
      "vout": 1,
      "prevout": {
        "scriptpubkey": "76a914b9c457c7848ccb1be09e0e32659229a68d4deb1788ac",
        "scriptpubkey_asm": "OP_DUP OP_HASH160 OP_PUSHBYTES_20 b9c457c7848ccb1be09e0e32659229a68d4deb17 OP_EQUALVERIFY OP_CHECKSIG",
        "scriptpubkey_type": "p2pkh",
        "scriptpubkey_address": "1HwFDdduGgvU6ES36X7L3RiA4epQA8KrQX",
        "value": 85975941
      },
      "scriptsig": "473044022078ff9cb1e3a8219b490289de34ee573b6f68a9de8da0439ce38ade257a3523fd02205da871b76834270c2a03b492a0faa828b3345eeff0baf7c2f278bebc6bfbe815012103c3ce451e8b53088d6e905987eb2e195776ab9d80fc03fedb30776d3135e8aa52",
      "scriptsig_asm": "OP_PUSHBYTES_71 3044022078ff9cb1e3a8219b490289de34ee573b6f68a9de8da0439ce38ade257a3523fd02205da871b76834270c2a03b492a0faa828b3345eeff0baf7c2f278bebc6bfbe81501 OP_PUSHBYTES_33 03c3ce451e8b53088d6e905987eb2e195776ab9d80fc03fedb30776d3135e8aa52",
      "is_coinbase": false,
      "sequence": 4294967295
    }
  ],
  "vout": [
    {
      "scriptpubkey": "a9141f1c0b93256a879168732e2bd1bb340f0e87d7e887",
      "scriptpubkey_asm": "OP_HASH160 OP_PUSHBYTES_20 1f1c0b93256a879168732e2bd1bb340f0e87d7e8 OP_EQUAL",
      "scriptpubkey_type": "p2sh",
      "scriptpubkey_address": "34XWU77Gd2cmdow5kouy25HaDiKPUb8WMB",
      "value": 861000
    },
    {
      "scriptpubkey": "76a914b9c457c7848ccb1be09e0e32659229a68d4deb1788ac",
      "scriptpubkey_asm": "OP_DUP OP_HASH160 OP_PUSHBYTES_20 b9c457c7848ccb1be09e0e32659229a68d4deb17 OP_EQUALVERIFY OP_CHECKSIG",
      "scriptpubkey_type": "p2pkh",
      "scriptpubkey_address": "1HwFDdduGgvU6ES36X7L3RiA4epQA8KrQX",
      "value": 85112016
    }
  ],
  "size": 223,
  "weight": 892,
  "fee": 2925,
  "status": {
    "confirmed": true,
    "block_height": 834460,
    "block_hash": "00000000000000000000484a79b643b2524bbce82e5d8a442013fa5b8905ed98",
    "block_time": 1710307468
  },
  "hex": "0100000001b78bf39549f2d89902ac8afe301fcb7cadeaa97cc1ac2797f3553fcb61070375010000006a473044022078ff9cb1e3a8219b490289de34ee573b6f68a9de8da0439ce38ade257a3523fd02205da871b76834270c2a03b492a0faa828b3345eeff0baf7c2f278bebc6bfbe815012103c3ce451e8b53088d6e905987eb2e195776ab9d80fc03fedb30776d3135e8aa52ffffffff0248230d000000000017a9141f1c0b93256a879168732e2bd1bb340f0e87d7e887d0b41205000000001976a914b9c457c7848ccb1be09e0e32659229a68d4deb1788ac00000000"
}