{
  "txid": "4938b18957df0913678302ce2bc060706191f4d890ba27e91c2fe75522030afe",
  "version": 1,
  "locktime": 0,
  "vin": [
    {
      "txid": "39c3399f77f3cd05890b0cb635030628c7d921d9f1cf99104276cc7bb4884f1a",
      "vout": 26,
      "prevout": {
        "scriptpubkey": "00146fa3b7f5c90757e05d8355d87afb38f3ad4bab0e",
        "scriptpubkey_asm": "OP_0 OP_PUSHBYTES_20 6fa3b7f5c90757e05d8355d87afb38f3ad4bab0e",
        "scriptpubkey_type": "v0_p2wpkh",
        "scriptpubkey_address": "bc1qd73m0awfqat7qhvr2hv847ec7wk5h2cwtespsj",
        "value": 370931
      },
      "scriptsig": "",
      "scriptsig_asm": "",
      "witness": [
        "3045022100eff043b10a87e7dd2519bb7647c6e8b531b40b84aa990b6dfa5e8852cf0871d10220701625a7b35722a69ba8fa674e5fdd97453c04fdda110e9d84c628b78c36a34501",
        "035415a381c4af2999baf357261d072fe00407255ad62d4d729ebc46fbc002b99f"
      ],
      "is_coinbase": false,
      "sequence": 4294967293
    },
    {
      "txid": "4f6301ae0178dcb43f5e3503532d0d2de4649e2361b91252b1519ff127a71810",
      "vout": 4,
      "prevout": {
        "scriptpubkey": "00146fa3b7f5c90757e05d8355d87afb38f3ad4bab0e",
        "scriptpubkey_asm": "OP_0 OP_PUSHBYTES_20 6fa3b7f5c90757e05d8355d87afb38f3ad4bab0e",
        "scriptpubkey_type": "v0_p2wpkh",
        "scriptpubkey_address": "bc1qd73m0awfqat7qhvr2hv847ec7wk5h2cwtespsj",
        "value": 258346
      },
      "scriptsig": "",
      "scriptsig_asm": "",
      "witness": [
        "30450221008b4aa90f05cbc2b399af6c5c345bb959873552049a1761aa8a23c6adc28b696202207d4d5774eba2d6e6483f3b7664417d990cb4439add0cc122b3b469ae41913e6901",
        "035415a381c4af2999baf357261d072fe00407255ad62d4d729ebc46fbc002b99f"
      ],
      "is_coinbase": false,
      "sequence": 4294967293
    },
    {
      "txid": "9e1a447479f786c07ea3cef5b956374c60a14b2959e0e598b6c358121caa485d",
      "vout": 5,
      "prevout": {
        "scriptpubkey": "00146fa3b7f5c90757e05d8355d87afb38f3ad4bab0e",
        "scriptpubkey_asm": "OP_0 OP_PUSHBYTES_20 6fa3b7f5c90757e05d8355d87afb38f3ad4bab0e",
        "scriptpubkey_type": "v0_p2wpkh",
        "scriptpubkey_address": "bc1qd73m0awfqat7qhvr2hv847ec7wk5h2cwtespsj",
        "value": 618571
      },
      "scriptsig": "",
      "scriptsig_asm": "",
      "witness": [
        "304402206fc105f7fcf8de41d98b947afa70ce487e9efc93f0a83fd3cb1de4c782667507022005c1f56fbe21e0cb241dbca72bf25dcfbafe4f4ee6142147842669a8a3c56e6001",
        "035415a381c4af2999baf357261d072fe00407255ad62d4d729ebc46fbc002b99f"
      ],
      "is_coinbase": false,
      "sequence": 4294967293
    },
    {
      "txid": "be9f3b5fc245bd9b1aa432667ae9eade265aeb4732217b6d1f09cbf98fc06999",
      "vout": 9,
      "prevout": {
        "scriptpubkey": "00146fa3b7f5c90757e05d8355d87afb38f3ad4bab0e",
        "scriptpubkey_asm": "OP_0 OP_PUSHBYTES_20 6fa3b7f5c90757e05d8355d87afb38f3ad4bab0e",
        "scriptpubkey_type": "v0_p2wpkh",
        "scriptpubkey_address": "bc1qd73m0awfqat7qhvr2hv847ec7wk5h2cwtespsj",
        "value": 100000
      },
      "scriptsig": "",
      "scriptsig_asm": "",
      "witness": [
        "3045022100da9f20531b3f9cf174444c081e10aea4302ecb4f10ab39f3646cacaa577aa66f02203820cf17b148790cc457e5b5d1eac120a586933ee66c738d1c7e115303ea9a2001",
        "035415a381c4af2999baf357261d072fe00407255ad62d4d729ebc46fbc002b99f"
      ],
      "is_coinbase": false,
      "sequence": 4294967293
    },
    {
      "txid": "c5eaae93844f361ece7aa808a533b154541827431f8bb385217980e7ded21fd7",
      "vout": 16,
      "prevout": {
        "scriptpubkey": "00146fa3b7f5c90757e05d8355d87afb38f3ad4bab0e",
        "scriptpubkey_asm": "OP_0 OP_PUSHBYTES_20 6fa3b7f5c90757e05d8355d87afb38f3ad4bab0e",
        "scriptpubkey_type": "v0_p2wpkh",
        "scriptpubkey_address": "bc1qd73m0awfqat7qhvr2hv847ec7wk5h2cwtespsj",
        "value": 6366197
      },
      "scriptsig": "",
      "scriptsig_asm": "",
      "witness": [
        "3045022100999773fff5a6c8720c3850e25566f723952d046fdb0ad58f12801221b2026c2102206ee7cd131ea17320b8cc36c0e2139c36f0f51723004ee23c942e28d4e518161201",
        "035415a381c4af2999baf357261d072fe00407255ad62d4d729ebc46fbc002b99f"
      ],
      "is_coinbase": false,
      "sequence": 4294967293
    },
    {
      "txid": "ced8c9220d92aa5025dd9fb79c090bd950b402a71edb638449c0e377c821aaea",
      "vout": 4,
      "prevout": {
        "scriptpubkey": "00146fa3b7f5c90757e05d8355d87afb38f3ad4bab0e",
        "scriptpubkey_asm": "OP_0 OP_PUSHBYTES_20 6fa3b7f5c90757e05d8355d87afb38f3ad4bab0e",
        "scriptpubkey_type": "v0_p2wpkh",
        "scriptpubkey_address": "bc1qd73m0awfqat7qhvr2hv847ec7wk5h2cwtespsj",
        "value": 456975
      },
      "scriptsig": "",
      "scriptsig_asm": "",
      "witness": [
        "304402207baea72dd40d94481f6c57abd48848a66f9711eca92b989b76b14e1fd5b382b502206e5249f9b7aa6620aefff220569944969c29b343d284eb5ed7e8a5959493418101",
        "035415a381c4af2999baf357261d072fe00407255ad62d4d729ebc46fbc002b99f"
      ],
      "is_coinbase": false,
      "sequence": 4294967293
    }
  ],
  "vout": [
    {
      "scriptpubkey": "00146fa3b7f5c90757e05d8355d87afb38f3ad4bab0e",
      "scriptpubkey_asm": "OP_0 OP_PUSHBYTES_20 6fa3b7f5c90757e05d8355d87afb38f3ad4bab0e",
      "scriptpubkey_type": "v0_p2wpkh",
      "scriptpubkey_address": "bc1qd73m0awfqat7qhvr2hv847ec7wk5h2cwtespsj",
      "value": 8164720
    }
  ],
  "size": 935,
  "weight": 1796,
  "fee": 6300,
  "status": {
    "confirmed": true,
    "block_height": 834460,
    "block_hash": "00000000000000000000484a79b643b2524bbce82e5d8a442013fa5b8905ed98",
    "block_time": 1710307468
  },
  "hex": "010000000001061a4f88b47bcc76421099cff1d921d9c728060335b60c0b8905cdf3779f39c3391a00000000fdffffff1018a727f19f51b15212b961239e64e42d0d2d5303355e3fb4dc7801ae01634f0400000000fdffffff5d48aa1c1258c3b698e5e059294ba1604c3756b9f5cea37ec086f77974441a9e0500000000fdffffff9969c08ff9cb091f6d7b213247eb5a26deeae97a6632a41a9bbd45c25f3b9fbe0900000000fdffffffd71fd2dee780792185b38b1f4327185454b133a508a87ace1e364f8493aeeac51000000000fdffffffeaaa21c877e3c0498463db1ea702b450d90b099cb79fdd2550aa920d22c9d8ce0400000000fdffffff0170957c00000000001600146fa3b7f5c90757e05d8355d87afb38f3ad4bab0e02483045022100eff043b10a87e7dd2519bb7647c6e8b531b40b84aa990b6dfa5e8852cf0871d10220701625a7b35722a69ba8fa674e5fdd97453c04fdda110e9d84c628b78c36a3450121035415a381c4af2999baf357261d072fe00407255ad62d4d729ebc46fbc002b99f024830450221008b4aa90f05cbc2b399af6c5c345bb959873552049a1761aa8a23c6adc28b696202207d4d5774eba2d6e6483f3b7664417d990cb4439add0cc122b3b469ae41913e690121035415a381c4af2999baf357261d072fe00407255ad62d4d729ebc46fbc002b99f0247304402206fc105f7fcf8de41d98b947afa70ce487e9efc93f0a83fd3cb1de4c782667507022005c1f56fbe21e0cb241dbca72bf25dcfbafe4f4ee6142147842669a8a3c56e600121035415a381c4af2999baf357261d072fe00407255ad62d4d729ebc46fbc002b99f02483045022100da9f20531b3f9cf174444c081e10aea4302ecb4f10ab39f3646cacaa577aa66f02203820cf17b148790cc457e5b5d1eac120a586933ee66c738d1c7e115303ea9a200121035415a381c4af2999baf357261d072fe00407255ad62d4d729ebc46fbc002b99f02483045022100999773fff5a6c8720c3850e25566f723952d046fdb0ad58f12801221b2026c2102206ee7cd131ea17320b8cc36c0e2139c36f0f51723004ee23c942e28d4e51816120121035415a381c4af2999baf357261d072fe00407255ad62d4d729ebc46fbc002b99f0247304402207baea72dd40d94481f6c57abd48848a66f9711eca92b989b76b14e1fd5b382b502206e5249f9b7aa6620aefff220569944969c29b343d284eb5ed7e8a595949341810121035415a381c4af2999baf357261d072fe00407255ad62d4d729ebc46fbc002b99f00000000"
}