{
  "txid": "49410cccc13d6a0dbab3fde04836773d185bb4d46a332d32965eedd2ab8eebaa",
  "version": 2,
  "locktime": 0,
  "vin": [
    {
      "txid": "945f624a68af13879d803fb82fd3be8e3993e23c4c638909d2fa11c7aebffa67",
      "vout": 0,
      "prevout": {
        "scriptpubkey": "5120beb2b31d474e5591ebc60653794f8f9c2abaadb92a1165ab5fab9108f2ecac10",
        "scriptpubkey_asm": "OP_PUSHNUM_1 OP_PUSHBYTES_32 beb2b31d474e5591ebc60653794f8f9c2abaadb92a1165ab5fab9108f2ecac10",
        "scriptpubkey_type": "v1_p2tr",
        "scriptpubkey_address": "bc1ph6etx828fe2er67xqefhjnu0ns4t4tde9ggkt26l4wgs3uhv4sgqqjdn3a",
        "value": 2826
      },
      "scriptsig": "",
      "scriptsig_asm": "",
      "witness": [
        "5b666e315476df8e24a74ccea4dbce9f9c1717661b441af624bbcf12ddd23438dd6ab1e7358c023cbeb83976a042442e84c17171455a9f2f00aaa8b8c65aecf3",
        "20d47d2dc3c1cf1d5446256b48fe492cf2446a502a8f94344acb08f825bc1b89d7ac0063036f7264010118746578742f706c61696e3b636861727365743d7574662d3800387b2270223a226272632d3230222c226f70223a227472616e73666572222c227469636b223a227378696f222c22616d74223a22363735227d68",
        "c1d47d2dc3c1cf1d5446256b48fe492cf2446a502a8f94344acb08f825bc1b89d7"
      ],
      "is_coinbase": false,
      "sequence": 4294967293
    }
  ],
  "vout": [
    {
      "scriptpubkey": "512062788e33245345425f257ce348df8f9ca70ab21597570291c398580f6b7dccb1",
      "scriptpubkey_asm": "OP_PUSHNUM_1 OP_PUSHBYTES_32 62788e33245345425f257ce348df8f9ca70ab21597570291c398580f6b7dccb1",
      "scriptpubkey_type": "v1_p2tr",
      "scriptpubkey_address": "bc1pvfuguvey2dz5yhe90n353hu0njns4vs4jats9ywrnpvq76maejcsc68dn9",
      "value": 546
    }
  ],
  "size": 323,
  "weight": 605,
  "fee": 2280,
  "status": {
    "confirmed": true,
    "block_height": 834638,
    "block_hash": "000000000000000000025f742c626208ac87e0b7d15054abb4a19ca2d735a54e",
    "block_time": 1710405325
  },
  "hex": "0200000000010167fabfaec711fad20989634c3ce293398ebed32fb83f809d8713af684a625f940000000000fdffffff01220200000000000022512062788e33245345425f257ce348df8f9ca70ab21597570291c398580f6b7dccb103405b666e315476df8e24a74ccea4dbce9f9c1717661b441af624bbcf12ddd23438dd6ab1e7358c023cbeb83976a042442e84c17171455a9f2f00aaa8b8c65aecf37e20d47d2dc3c1cf1d5446256b48fe492cf2446a502a8f94344acb08f825bc1b89d7ac0063036f7264010118746578742f706c61696e3b636861727365743d7574662d3800387b2270223a226272632d3230222c226f70223a227472616e73666572222c227469636b223a227378696f222c22616d74223a22363735227d6821c1d47d2dc3c1cf1d5446256b48fe492cf2446a502a8f94344acb08f825bc1b89d700000000"
}