{
  "txid": "49441a6d2b5bc10d86eb6571a7649b267e6363ae43a4271614485a7c169cb2e8",
  "version": 2,
  "locktime": 834637,
  "vin": [
    {
      "txid": "4678bfacca75771e8409042b75696b573f3ac7dcf31681a61ff29e74d7e75728",
      "vout": 0,
      "prevout": {
        "scriptpubkey": "a9141945832368414ba813050a0ce5d907f0dfc9f21f87",
        "scriptpubkey_asm": "OP_HASH160 OP_PUSHBYTES_20 1945832368414ba813050a0ce5d907f0dfc9f21f OP_EQUAL",
        "scriptpubkey_type": "p2sh",
        "scriptpubkey_address": "33ze68qZoBE9R4uMtRQGNnvgFTYN4sPBUq",
        "value": 1090805809
      },
      "scriptsig": "16001439a13ee411fd893301529a7bbd148795ef53e8e1",
      "scriptsig_asm": "OP_PUSHBYTES_22 001439a13ee411fd893301529a7bbd148795ef53e8e1",
      "witness": [
        "304402203be0b2678231a7ed24baf0345ff67f24888ea4937da0086840445a427744362e02202b50b052165cac64e947e63ae27f288e0599834d75c87546cad25d23995e6d7001",
        "02220e75c1c3c84c1661bd0178f2ed20d996b93410499b76cc1d1beabd292d1bc8"
      ],
      "is_coinbase": false,
      "sequence": 4294967294,
      "inner_redeemscript_asm": "OP_0 OP_PUSHBYTES_20 39a13ee411fd893301529a7bbd148795ef53e8e1"
    }
  ],
  "vout": [
    {
      "scriptpubkey": "0014a2452343b0984d1aafcf85a3b1a5c4a5f38bb5a3",
      "scriptpubkey_asm": "OP_0 OP_PUSHBYTES_20 a2452343b0984d1aafcf85a3b1a5c4a5f38bb5a3",
      "scriptpubkey_type": "v0_p2wpkh",
      "scriptpubkey_address": "bc1q5fzjxsasnpx34t70sk3mrfwy5hechddrtwsy6k",
      "value": 1090012792
    },
    {
      "scriptpubkey": "76a9144ed2ea5d86b998d88dcf03a70bf8d81529cd87c688ac",
      "scriptpubkey_asm": "OP_DUP OP_HASH160 OP_PUSHBYTES_20 4ed2ea5d86b998d88dcf03a70bf8d81529cd87c6 OP_EQUALVERIFY OP_CHECKSIG",
      "scriptpubkey_type": "p2pkh",
      "scriptpubkey_address": "18BnNdRGWaYqaXK2AVz1LwGvdsNk5RUUhN",
      "value": 788510
    }
  ],
  "size": 248,
  "weight": 665,
  "fee": 4507,
  "status": {
    "confirmed": true,
    "block_height": 834638,
    "block_hash": "000000000000000000025f742c626208ac87e0b7d15054abb4a19ca2d735a54e",
    "block_time": 1710405325
  },
  "hex": "020000000001012857e7d7749ef21fa68116f3dcc73a3f576b69752b0409841e7775caacbf7846000000001716001439a13ee411fd893301529a7bbd148795ef53e8e1feffffff027846f84000000000160014a2452343b0984d1aafcf85a3b1a5c4a5f38bb5a31e080c00000000001976a9144ed2ea5d86b998d88dcf03a70bf8d81529cd87c688ac0247304402203be0b2678231a7ed24baf0345ff67f24888ea4937da0086840445a427744362e02202b50b052165cac64e947e63ae27f288e0599834d75c87546cad25d23995e6d70012102220e75c1c3c84c1661bd0178f2ed20d996b93410499b76cc1d1beabd292d1bc84dbc0c00"
}