{
  "txid": "495dbc4d8fe0dc22d8e811d041117b8ca2797f8f11c2c198ad11b54f42bcdc2c",
  "version": 1,
  "locktime": 0,
  "vin": [
    {
      "txid": "43d39d117b5e99730ddfec1c043816c269b96f62e863c66af5b44731eb7bd095",
      "vout": 16,
      "prevout": {
        "scriptpubkey": "76a9144836e467891b6a41be44a035b5254d60c83475a288ac",
        "scriptpubkey_asm": "OP_DUP OP_HASH160 OP_PUSHBYTES_20 4836e467891b6a41be44a035b5254d60c83475a2 OP_EQUALVERIFY OP_CHECKSIG",
        "scriptpubkey_type": "p2pkh",
        "scriptpubkey_address": "17aqQnmMBBNt94z5tMkCFfx8ftSCok9Yhr",
        "value": 1000000
      },
      "scriptsig": "483045022100ca22ebf9e95804a410e300d90419456e2c4f4ad69ee1e2fe1f82d39ef82d7c8b02205512f889b1303f70a5f7ef6ed0b6b4a11e07c3f367ebeed32b036834e39b16dc012103bf1c53cdedbd74e35dbee010aa2a829b342e80701f3640b6320a346c085c1745",
      "scriptsig_asm": "OP_PUSHBYTES_72 3045022100ca22ebf9e95804a410e300d90419456e2c4f4ad69ee1e2fe1f82d39ef82d7c8b02205512f889b1303f70a5f7ef6ed0b6b4a11e07c3f367ebeed32b036834e39b16dc01 OP_PUSHBYTES_33 03bf1c53cdedbd74e35dbee010aa2a829b342e80701f3640b6320a346c085c1745",
      "is_coinbase": false,
      "sequence": 4294967295
    },
    {
      "txid": "d5a57e10c34450cf88830394168954f85a7ef1c0d322231122bcbc0c23330ae7",
      "vout": 0,
      "prevout": {
        "scriptpubkey": "76a914bace444e0f33ee13a7c7c8353ff5f82a854585ca88ac",
        "scriptpubkey_asm": "OP_DUP OP_HASH160 OP_PUSHBYTES_20 bace444e0f33ee13a7c7c8353ff5f82a854585ca OP_EQUALVERIFY OP_CHECKSIG",
        "scriptpubkey_type": "p2pkh",
        "scriptpubkey_address": "1J2jnMJhz6t1sbScsRUjoKEaBx31wewSt1",
        "value": 5788248
      },
      "scriptsig": "483045022100e55bc21f71cd0db7b3b82f9f87f1f5f12f7dffd8e8106bf117bf9f4ea7b95ed3022047ecc53e1fb2e1c3b1802325def04b649e5368abe276ba8f1862ac090dc77ac0012102f40ea191d4629f85a82cf9b8f0f810eeb8a9050dc3b005316953133923490bd7",
      "scriptsig_asm": "OP_PUSHBYTES_72 3045022100e55bc21f71cd0db7b3b82f9f87f1f5f12f7dffd8e8106bf117bf9f4ea7b95ed3022047ecc53e1fb2e1c3b1802325def04b649e5368abe276ba8f1862ac090dc77ac001 OP_PUSHBYTES_33 02f40ea191d4629f85a82cf9b8f0f810eeb8a9050dc3b005316953133923490bd7",
      "is_coinbase": false,
      "sequence": 4294967295
    }
  ],
  "vout": [
    {
      "scriptpubkey": "76a9148dd650e0fd9bf2ecb9ef0cd8eaa6d480164401d988ac",
      "scriptpubkey_asm": "OP_DUP OP_HASH160 OP_PUSHBYTES_20 8dd650e0fd9bf2ecb9ef0cd8eaa6d480164401d9 OP_EQUALVERIFY OP_CHECKSIG",
      "scriptpubkey_type": "p2pkh",
      "scriptpubkey_address": "1Dvy1yrK13HhjzSajLAYaw7S4bY8z12E9x",
      "value": 5000000
    },
    {
      "scriptpubkey": "001475c0a7376d7937e979ce345485df4d863fa731b0",
      "scriptpubkey_asm": "OP_0 OP_PUSHBYTES_20 75c0a7376d7937e979ce345485df4d863fa731b0",
      "scriptpubkey_type": "v0_p2wpkh",
      "scriptpubkey_address": "bc1qwhq2wdmd0ym7j7wwx32gth6dscl6wvdsejxekt",
      "value": 1782683
    }
  ],
  "size": 371,
  "weight": 1484,
  "fee": 5565,
  "status": {
    "confirmed": true,
    "block_height": 834638,
    "block_hash": "000000000000000000025f742c626208ac87e0b7d15054abb4a19ca2d735a54e",
    "block_time": 1710405325
  },
  "hex": "010000000295d07beb3147b4f56ac663e8626fb969c21638041cecdf0d73995e7b119dd343100000006b483045022100ca22ebf9e95804a410e300d90419456e2c4f4ad69ee1e2fe1f82d39ef82d7c8b02205512f889b1303f70a5f7ef6ed0b6b4a11e07c3f367ebeed32b036834e39b16dc012103bf1c53cdedbd74e35dbee010aa2a829b342e80701f3640b6320a346c085c1745ffffffffe70a33230cbcbc22112322d3c0f17e5af854891694038388cf5044c3107ea5d5000000006b483045022100e55bc21f71cd0db7b3b82f9f87f1f5f12f7dffd8e8106bf117bf9f4ea7b95ed3022047ecc53e1fb2e1c3b1802325def04b649e5368abe276ba8f1862ac090dc77ac0012102f40ea191d4629f85a82cf9b8f0f810eeb8a9050dc3b005316953133923490bd7ffffffff02404b4c00000000001976a9148dd650e0fd9bf2ecb9ef0cd8eaa6d480164401d988ac9b331b000000000016001475c0a7376d7937e979ce345485df4d863fa731b000000000"
}