{
  "txid": "496915fc28582858071f33f9879f8a48bf38965e4d7ec66f73fe01e10e1b6f2f",
  "version": 2,
  "locktime": 0,
  "vin": [
    {
      "txid": "acc3ba00869acb582a3f2904ce3a11dd3779350ce234063fc7d0959246213364",
      "vout": 91,
      "prevout": {
        "scriptpubkey": "512085dd0609608c68887bfc8f0ca04cda1e4d874d809c2b69cd62f6deb4096ecb42",
        "scriptpubkey_asm": "OP_PUSHNUM_1 OP_PUSHBYTES_32 85dd0609608c68887bfc8f0ca04cda1e4d874d809c2b69cd62f6deb4096ecb42",
        "scriptpubkey_type": "v1_p2tr",
        "scriptpubkey_address": "bc1pshwsvztq335gs7lu3ux2qnx6rexcwnvqns4knntz7m0tgztwedpqh394ed",
        "value": 1806
      },
      "scriptsig": "",
      "scriptsig_asm": "",
      "witness": [
        "5ba16ba175d94dbe2d40f6f47bfbfd2b695e06824704b623003233eb7a32e323c3d849902cbd759abcb362f2bb42a4e8746514aab687d5fe788a0ebb7e9b2a92",
        "20523094fc24fbae166c2bcbbdc06a5885173d8a2ab9e3b1c981786b87fcb04e1eac0063036f726401010a746578742f706c61696e00357b2270223a226272632d3230222c226f70223a226d696e74222c227469636b223a22646f6765222c22616d74223a2234323030227d68",
        "c0523094fc24fbae166c2bcbbdc06a5885173d8a2ab9e3b1c981786b87fcb04e1e"
      ],
      "is_coinbase": false,
      "sequence": 4261412863
    }
  ],
  "vout": [
    {
      "scriptpubkey": "00147a665de7a370f4c9b372ab1fae587500a5bcbdb4",
      "scriptpubkey_asm": "OP_0 OP_PUSHBYTES_20 7a665de7a370f4c9b372ab1fae587500a5bcbdb4",
      "scriptpubkey_type": "v0_p2wpkh",
      "scriptpubkey_address": "bc1q0fn9mearwr6vnvmj4v06ukr4qzjme0d565dzcx",
      "value": 294
    }
  ],
  "size": 294,
  "weight": 540,
  "fee": 1512,
  "status": {
    "confirmed": true,
    "block_height": 834460,
    "block_hash": "00000000000000000000484a79b643b2524bbce82e5d8a442013fa5b8905ed98",
    "block_time": 1710307468
  },
  "hex": "02000000000101643321469295d0c73f0634e20c357937dd113ace04293f2a58cb9a8600bac3ac5b00000000fffffffd0126010000000000001600147a665de7a370f4c9b372ab1fae587500a5bcbdb403405ba16ba175d94dbe2d40f6f47bfbfd2b695e06824704b623003233eb7a32e323c3d849902cbd759abcb362f2bb42a4e8746514aab687d5fe788a0ebb7e9b2a926d20523094fc24fbae166c2bcbbdc06a5885173d8a2ab9e3b1c981786b87fcb04e1eac0063036f726401010a746578742f706c61696e00357b2270223a226272632d3230222c226f70223a226d696e74222c227469636b223a22646f6765222c22616d74223a2234323030227d6821c0523094fc24fbae166c2bcbbdc06a5885173d8a2ab9e3b1c981786b87fcb04e1e00000000"
}