{
  "txid": "496bb7de354a2b78bb30666c53f5acec69cccfe7964e9070047869fa5c1b6bb2",
  "version": 2,
  "locktime": 0,
  "vin": [
    {
      "txid": "5481b0ab2e98b5864656863ea85f495466f17ae3e992213de416306f89f07cfb",
      "vout": 1,
      "prevout": {
        "scriptpubkey": "5120e845492d26e9d4515d59b57ee41402b7f536b7ea5ebabcd9ff201ed49f5bf438",
        "scriptpubkey_asm": "OP_PUSHNUM_1 OP_PUSHBYTES_32 e845492d26e9d4515d59b57ee41402b7f536b7ea5ebabcd9ff201ed49f5bf438",
        "scriptpubkey_type": "v1_p2tr",
        "scriptpubkey_address": "bc1papz5jtfxa829zh2ek4lwg9qzkl6nddl2t6atek0lyq0df86m7suqcqsc49",
        "value": 1000
      },
      "scriptsig": "",
      "scriptsig_asm": "",
      "witness": [
        "75e370cceeef73f044e0ac229b60848a7b395d282c2f72171420bd32b507184f3029a79256c9af6b5b980fc56b12c98aff5242430df39997287c69a03d5925d9"
      ],
      "is_coinbase": false,
      "sequence": 2147483649
    },
    {
      "txid": "398c10e4704ae19e853c96c5f93f317c7e7a0a641e58a0473b750687526c96c8",
      "vout": 6,
      "prevout": {
        "scriptpubkey": "5120e845492d26e9d4515d59b57ee41402b7f536b7ea5ebabcd9ff201ed49f5bf438",
        "scriptpubkey_asm": "OP_PUSHNUM_1 OP_PUSHBYTES_32 e845492d26e9d4515d59b57ee41402b7f536b7ea5ebabcd9ff201ed49f5bf438",
        "scriptpubkey_type": "v1_p2tr",
        "scriptpubkey_address": "bc1papz5jtfxa829zh2ek4lwg9qzkl6nddl2t6atek0lyq0df86m7suqcqsc49",
        "value": 14669
      },
      "scriptsig": "",
      "scriptsig_asm": "",
      "witness": [
        "4408796442f28b37ee6acb938f78bd5f03d2d3d260c06b731a29ef5ccc19675facd1df1780e2d830416c62dc9cca0b7e13a35f947413911b7f3304d6e093ba01"
      ],
      "is_coinbase": false,
      "sequence": 2147483649
    }
  ],
  "vout": [
    {
      "scriptpubkey": "5120e845492d26e9d4515d59b57ee41402b7f536b7ea5ebabcd9ff201ed49f5bf438",
      "scriptpubkey_asm": "OP_PUSHNUM_1 OP_PUSHBYTES_32 e845492d26e9d4515d59b57ee41402b7f536b7ea5ebabcd9ff201ed49f5bf438",
      "scriptpubkey_type": "v1_p2tr",
      "scriptpubkey_address": "bc1papz5jtfxa829zh2ek4lwg9qzkl6nddl2t6atek0lyq0df86m7suqcqsc49",
      "value": 1000
    },
    {
      "scriptpubkey": "5120e845492d26e9d4515d59b57ee41402b7f536b7ea5ebabcd9ff201ed49f5bf438",
      "scriptpubkey_asm": "OP_PUSHNUM_1 OP_PUSHBYTES_32 e845492d26e9d4515d59b57ee41402b7f536b7ea5ebabcd9ff201ed49f5bf438",
      "scriptpubkey_type": "v1_p2tr",
      "scriptpubkey_address": "bc1papz5jtfxa829zh2ek4lwg9qzkl6nddl2t6atek0lyq0df86m7suqcqsc49",
      "value": 12348
    }
  ],
  "size": 312,
  "weight": 846,
  "fee": 2321,
  "status": {
    "confirmed": true,
    "block_height": 834464,
    "block_hash": "0000000000000000000177a0869a911a2b65c9bdcd5a8bcb02b68f305bee848e",
    "block_time": 1710308296
  },
  "hex": "02000000000102fb7cf0896f3016e43d2192e9e37af16654495fa83e86564686b5982eabb08154010000000001000080c8966c528706753b47a0581e640a7a7e7c313ff9c5963c859ee14a70e4108c3906000000000100008002e803000000000000225120e845492d26e9d4515d59b57ee41402b7f536b7ea5ebabcd9ff201ed49f5bf4383c30000000000000225120e845492d26e9d4515d59b57ee41402b7f536b7ea5ebabcd9ff201ed49f5bf438014075e370cceeef73f044e0ac229b60848a7b395d282c2f72171420bd32b507184f3029a79256c9af6b5b980fc56b12c98aff5242430df39997287c69a03d5925d901404408796442f28b37ee6acb938f78bd5f03d2d3d260c06b731a29ef5ccc19675facd1df1780e2d830416c62dc9cca0b7e13a35f947413911b7f3304d6e093ba0100000000"
}