{
  "txid": "49717c89152bf8d8a9383d4087a338ecdfc9a2578a88bce15cf01a0f2fee9bd6",
  "version": 1,
  "locktime": 0,
  "vin": [
    {
      "txid": "a2c576a3fe5106e151f0dfab9640d325d9418b8f2a92219977e66acd2afa1d96",
      "vout": 0,
      "prevout": {
        "scriptpubkey": "001482eec4eda1983445199d9c216569b74467019937",
        "scriptpubkey_asm": "OP_0 OP_PUSHBYTES_20 82eec4eda1983445199d9c216569b74467019937",
        "scriptpubkey_type": "v0_p2wpkh",
        "scriptpubkey_address": "bc1qsthvfmdpnq6y2xvanssk26dhg3nsrxfh3g8skc",
        "value": 648000
      },
      "scriptsig": "",
      "scriptsig_asm": "",
      "witness": [
        "3045022100b32339c776284342a23d4daed4c97fc538c16f8b02043c94b00565d16b12c1c302205c20e2ba21a0973c32ed0cc482e0c03abf65db32673deff91151db5375630aa701",
        "02bb12f90e423589ca45a2a480a5d6e6aaeb83380601ee23bec70bdb97a84cbb12"
      ],
      "is_coinbase": false,
      "sequence": 4294967295
    }
  ],
  "vout": [
    {
      "scriptpubkey": "00144773adbc81aa8c7aa8b5f8754bd68713b10ed86a",
      "scriptpubkey_asm": "OP_0 OP_PUSHBYTES_20 4773adbc81aa8c7aa8b5f8754bd68713b10ed86a",
      "scriptpubkey_type": "v0_p2wpkh",
      "scriptpubkey_address": "bc1qgae6m0yp42x84294lp65h458zwcsakr2c7wuu6",
      "value": 640000
    },
    {
      "scriptpubkey": "001482eec4eda1983445199d9c216569b74467019937",
      "scriptpubkey_asm": "OP_0 OP_PUSHBYTES_20 82eec4eda1983445199d9c216569b74467019937",
      "scriptpubkey_type": "v0_p2wpkh",
      "scriptpubkey_address": "bc1qsthvfmdpnq6y2xvanssk26dhg3nsrxfh3g8skc",
      "value": 4193
    }
  ],
  "size": 223,
  "weight": 562,
  "fee": 3807,
  "status": {
    "confirmed": true,
    "block_height": 834638,
    "block_hash": "000000000000000000025f742c626208ac87e0b7d15054abb4a19ca2d735a54e",
    "block_time": 1710405325
  },
  "hex": "01000000000101961dfa2acd6ae6779921922a8f8b41d925d34096abdff051e10651fea376c5a20000000000ffffffff0200c40900000000001600144773adbc81aa8c7aa8b5f8754bd68713b10ed86a611000000000000016001482eec4eda1983445199d9c216569b7446701993702483045022100b32339c776284342a23d4daed4c97fc538c16f8b02043c94b00565d16b12c1c302205c20e2ba21a0973c32ed0cc482e0c03abf65db32673deff91151db5375630aa7012102bb12f90e423589ca45a2a480a5d6e6aaeb83380601ee23bec70bdb97a84cbb1200000000"
}