{
  "txid": "497b8e5c841531203de45e56a8a6a3df4158d75e6530cb700f61ab9fb8dbaf97",
  "version": 2,
  "locktime": 0,
  "vin": [
    {
      "txid": "635ef7206056cd1810bdbb0bbb373862c327445d5233bfd6b764eda9599062a7",
      "vout": 0,
      "prevout": {
        "scriptpubkey": "001473fe747f75aa0986d0287dc46187262ba4d21a9a",
        "scriptpubkey_asm": "OP_0 OP_PUSHBYTES_20 73fe747f75aa0986d0287dc46187262ba4d21a9a",
        "scriptpubkey_type": "v0_p2wpkh",
        "scriptpubkey_address": "bc1qw0l8glm44gycd5pg0hzxrpex9wjdyx56s4mymj",
        "value": 22141
      },
      "scriptsig": "",
      "scriptsig_asm": "",
      "witness": [
        "3045022100a9881e3df624035ec5499c38d289dcef02bfb46d064ac6ebd41873bc136c100002200b847476f23e83f43fc05de5f9db86c086ead1d699499d3c6b9d347cae76a53f01",
        "036753575a95b33e97718b11b721a345ad00e8ccc6c7934d50b3e363a27c6bd81b"
      ],
      "is_coinbase": false,
      "sequence": 4294967293
    }
  ],
  "vout": [
    {
      "scriptpubkey": "0014722ac511cbd3a442dc75fb47f1300b3e57499c50",
      "scriptpubkey_asm": "OP_0 OP_PUSHBYTES_20 722ac511cbd3a442dc75fb47f1300b3e57499c50",
      "scriptpubkey_type": "v0_p2wpkh",
      "scriptpubkey_address": "bc1qwg4v2ywt6wjy9hr4ldrlzvqt8et5n8zsmtdavu",
      "value": 19203
    }
  ],
  "size": 192,
  "weight": 438,
  "fee": 2938,
  "status": {
    "confirmed": true,
    "block_height": 834638,
    "block_hash": "000000000000000000025f742c626208ac87e0b7d15054abb4a19ca2d735a54e",
    "block_time": 1710405325
  },
  "hex": "02000000000101a7629059a9ed64b7d6bf33525d4427c3623837bb0bbbbd1018cd566020f75e630000000000fdffffff01034b000000000000160014722ac511cbd3a442dc75fb47f1300b3e57499c5002483045022100a9881e3df624035ec5499c38d289dcef02bfb46d064ac6ebd41873bc136c100002200b847476f23e83f43fc05de5f9db86c086ead1d699499d3c6b9d347cae76a53f0121036753575a95b33e97718b11b721a345ad00e8ccc6c7934d50b3e363a27c6bd81b00000000"
}