{
  "txid": "499d95a7df62fe6ac8e48ac40b76bb4c40866260d223ba9cc3a7bb2749560db5",
  "version": 2,
  "locktime": 0,
  "vin": [
    {
      "txid": "7ce6cb9911d6013eb306e5da30fc562255383c310ecee756b829ed8c8bae0b12",
      "vout": 8,
      "prevout": {
        "scriptpubkey": "00146eb4e3f8a3e9ce7ef45e52c1db08d30a1fbb7dba",
        "scriptpubkey_asm": "OP_0 OP_PUSHBYTES_20 6eb4e3f8a3e9ce7ef45e52c1db08d30a1fbb7dba",
        "scriptpubkey_type": "v0_p2wpkh",
        "scriptpubkey_address": "bc1qd66w879ra888aaz72tqakzxnpg0mkld67ld4pg",
        "value": 21408
      },
      "scriptsig": "",
      "scriptsig_asm": "",
      "witness": [
        "3045022100f76bc935988199981f9d5070c46a5e7bb0cd56d9de56122095402a57de679b7702206e2a5f20bbbb3be0d0483b1ed08f65495de5b57466a14d5c6413d6a9c0a102e901",
        "037ffc20d4ce9ddc40f3a7bc3e7444a9836d6b5b32022a3ff68d2cf7007fa60600"
      ],
      "is_coinbase": false,
      "sequence": 4294967293
    }
  ],
  "vout": [
    {
      "scriptpubkey": "a914d88382b61a959cdb84f137b735dbcff0c15434c787",
      "scriptpubkey_asm": "OP_HASH160 OP_PUSHBYTES_20 d88382b61a959cdb84f137b735dbcff0c15434c7 OP_EQUAL",
      "scriptpubkey_type": "p2sh",
      "scriptpubkey_address": "3MRqRVg5RxM7jKTkJFvzrhXVfrpaYxCHbt",
      "value": 20188
    }
  ],
  "size": 193,
  "weight": 442,
  "fee": 1220,
  "status": {
    "confirmed": true,
    "block_height": 834464,
    "block_hash": "0000000000000000000177a0869a911a2b65c9bdcd5a8bcb02b68f305bee848e",
    "block_time": 1710308296
  },
  "hex": "02000000000101120bae8b8ced29b856e7ce0e313c38552256fc30dae506b33e01d61199cbe67c0800000000fdffffff01dc4e00000000000017a914d88382b61a959cdb84f137b735dbcff0c15434c78702483045022100f76bc935988199981f9d5070c46a5e7bb0cd56d9de56122095402a57de679b7702206e2a5f20bbbb3be0d0483b1ed08f65495de5b57466a14d5c6413d6a9c0a102e90121037ffc20d4ce9ddc40f3a7bc3e7444a9836d6b5b32022a3ff68d2cf7007fa6060000000000"
}