{
  "txid": "499fd482997639f924eab76744d1b1c6c3901e6ff944057081b70c7eafda21ad",
  "version": 2,
  "locktime": 834637,
  "vin": [
    {
      "txid": "dd45a22fd5a39e2f5385da1d5f24ade076f1372c8bd38232f9d67fe52e9c376d",
      "vout": 0,
      "prevout": {
        "scriptpubkey": "001414816e83b94373c00992034c28aac45dad690ccd",
        "scriptpubkey_asm": "OP_0 OP_PUSHBYTES_20 14816e83b94373c00992034c28aac45dad690ccd",
        "scriptpubkey_type": "v0_p2wpkh",
        "scriptpubkey_address": "bc1qzjqkaqaegdeuqzvjqdxz32kytkkkjrxdtm3ny6",
        "value": 112843424
      },
      "scriptsig": "",
      "scriptsig_asm": "",
      "witness": [
        "304402202d7ae31a960fe178e368abebf3c0dfa854e0c840877ed6644d39249e571375c402204e685c05f89bb9b3f469eaf6e9f3907154d4d488676ad35a78adc51171923d0a01",
        "035228b293066a7796d724034a9d97a839d94b83293e4ebd274fd1c6f9859a36ef"
      ],
      "is_coinbase": false,
      "sequence": 4294967293
    }
  ],
  "vout": [
    {
      "scriptpubkey": "0014892077beb3bb3ac4b67c1c7242faea8d0e988506",
      "scriptpubkey_asm": "OP_0 OP_PUSHBYTES_20 892077beb3bb3ac4b67c1c7242faea8d0e988506",
      "scriptpubkey_type": "v0_p2wpkh",
      "scriptpubkey_address": "bc1q3ys8004nhvavfdnur3ey97h2358f3pgxg9w0aw",
      "value": 26072522
    },
    {
      "scriptpubkey": "00146a275500a0d0080432fb23fbe97d4bb1de0cf134",
      "scriptpubkey_asm": "OP_0 OP_PUSHBYTES_20 6a275500a0d0080432fb23fbe97d4bb1de0cf134",
      "scriptpubkey_type": "v0_p2wpkh",
      "scriptpubkey_address": "bc1qdgn42q9q6qyqgvhmy0a7jl2tk80qeuf5l9ztyt",
      "value": 86768656
    }
  ],
  "size": 222,
  "weight": 561,
  "fee": 2246,
  "status": {
    "confirmed": true,
    "block_height": 834638,
    "block_hash": "000000000000000000025f742c626208ac87e0b7d15054abb4a19ca2d735a54e",
    "block_time": 1710405325
  },
  "hex": "020000000001016d379c2ee57fd6f93282d38b2c37f176e0ad245f1dda85532f9ea3d52fa245dd0000000000fdffffff02cad58d0100000000160014892077beb3bb3ac4b67c1c7242faea8d0e98850610fc2b05000000001600146a275500a0d0080432fb23fbe97d4bb1de0cf1340247304402202d7ae31a960fe178e368abebf3c0dfa854e0c840877ed6644d39249e571375c402204e685c05f89bb9b3f469eaf6e9f3907154d4d488676ad35a78adc51171923d0a0121035228b293066a7796d724034a9d97a839d94b83293e4ebd274fd1c6f9859a36ef4dbc0c00"
}