{
  "txid": "49c5c6a823d0ebbed69782c18ddc2fd18fb06b428682223f2de490ce9b37c1ba",
  "version": 2,
  "locktime": 0,
  "vin": [
    {
      "txid": "924ba158a2dcd06eee377c668d6a8388cff2cbd85edfc6b2d1a04998c087698f",
      "vout": 24,
      "prevout": {
        "scriptpubkey": "a9140e573e3abd95c3e3663d5aeca63c8fbaf8b2ab7b87",
        "scriptpubkey_asm": "OP_HASH160 OP_PUSHBYTES_20 0e573e3abd95c3e3663d5aeca63c8fbaf8b2ab7b OP_EQUAL",
        "scriptpubkey_type": "p2sh",
        "scriptpubkey_address": "32zqtz6AvuxBSYndki2Z3pWe7sJEH8zs7G",
        "value": 1929550
      },
      "scriptsig": "160014794981a64e8e2912a1e4cb6f45b6ec37e9162c95",
      "scriptsig_asm": "OP_PUSHBYTES_22 0014794981a64e8e2912a1e4cb6f45b6ec37e9162c95",
      "witness": [
        "3044022026fce3322f3cdd0fc9c7e4f5fca14b8135149107b0aabb7ff4137b45bbaaa46802205803726d337353447dc5b0280573469a5bee13f04b419a36a3d79684823a224b01",
        "02789ca01c347a64eb3436fb65749c5b120fd9fe6ea23c8afbae1b8fc3c8a8951c"
      ],
      "is_coinbase": false,
      "sequence": 4294967295,
      "inner_redeemscript_asm": "OP_0 OP_PUSHBYTES_20 794981a64e8e2912a1e4cb6f45b6ec37e9162c95"
    },
    {
      "txid": "cabc412ce30d39179c894aa88cc775a85e27b3faf6f4e28eea3d27da5cb80bdf",
      "vout": 21,
      "prevout": {
        "scriptpubkey": "a9143abc0f36230322607c7082b87c2092de9a57ef5187",
        "scriptpubkey_asm": "OP_HASH160 OP_PUSHBYTES_20 3abc0f36230322607c7082b87c2092de9a57ef51 OP_EQUAL",
        "scriptpubkey_type": "p2sh",
        "scriptpubkey_address": "373aQGU47ipUSWxTtNYAupLT1SZc5HgnS4",
        "value": 1687557
      },
      "scriptsig": "160014988205618c8cf7059e5fbe029c06e9e6cd100c87",
      "scriptsig_asm": "OP_PUSHBYTES_22 0014988205618c8cf7059e5fbe029c06e9e6cd100c87",
      "witness": [
        "304502210089da62063863cd50a2cb21f2eefb456dd570e94e262083d081b6c434756853100220110d07688802395e2b5cf213a5b9369ca6a656180219e10ea6bb3ff50e0b227b01",
        "03cfbd39b9c9b449e7b2d613eb8150cd6ba8eaf8939b27e988251c6c020789eb4a"
      ],
      "is_coinbase": false,
      "sequence": 4294967295,
      "inner_redeemscript_asm": "OP_0 OP_PUSHBYTES_20 988205618c8cf7059e5fbe029c06e9e6cd100c87"
    },
    {
      "txid": "e85ee707442034432a2e9da8655a5da76ce18a0b721d96cb88be4d3a201fdf97",
      "vout": 5,
      "prevout": {
        "scriptpubkey": "a914134ad95e1a7894c15c4dbf16e92755e7ba3f091587",
        "scriptpubkey_asm": "OP_HASH160 OP_PUSHBYTES_20 134ad95e1a7894c15c4dbf16e92755e7ba3f0915 OP_EQUAL",
        "scriptpubkey_type": "p2sh",
        "scriptpubkey_address": "33T2Ro3NzmUtfoxQ1bhFXgHgzLhm9mBLct",
        "value": 1756329
      },
      "scriptsig": "1600148738758418642f6d6ca6b2f16ae82f7ae276bfc4",
      "scriptsig_asm": "OP_PUSHBYTES_22 00148738758418642f6d6ca6b2f16ae82f7ae276bfc4",
      "witness": [
        "3044022059f6dbc31641a73856bd6272a4143a5d70f06fbbecd60879c8baac2097568d33022054b4024d228e12f6cc827aee542d7f4009585092eaf53391e7cebbca779e5e6d01",
        "036224e59c282948daef6435a21b884016ff6f715385eab9e25762b00f95ec84b5"
      ],
      "is_coinbase": false,
      "sequence": 4294967295,
      "inner_redeemscript_asm": "OP_0 OP_PUSHBYTES_20 8738758418642f6d6ca6b2f16ae82f7ae276bfc4"
    },
    {
      "txid": "5393d8f7f952a0e43e939b5687848a6c820b0a37be6ad8e5d3f5f35024077a79",
      "vout": 7,
      "prevout": {
        "scriptpubkey": "a914227693f823e801570d0749a25c445c5c417c3bcf87",
        "scriptpubkey_asm": "OP_HASH160 OP_PUSHBYTES_20 227693f823e801570d0749a25c445c5c417c3bcf OP_EQUAL",
        "scriptpubkey_type": "p2sh",
        "scriptpubkey_address": "34qEx1YdTGYyPV9PyPPesRBE2f8gTL82Va",
        "value": 681008
      },
      "scriptsig": "1600148da545c82263e093f4d8ec85b12bc794f875aedb",
      "scriptsig_asm": "OP_PUSHBYTES_22 00148da545c82263e093f4d8ec85b12bc794f875aedb",
      "witness": [
        "30450221008e78f3119dce1dc939ee74c7015e979e49fd1bee5dccd40f51bed6187dfd9fe3022036351c1a7472cbef15f6a79734a11339d2dea146fb078a94f22246c6b3c5db7e01",
        "03179913997537852759f4506fa9235fe755606881cbcb9998e1d47f6a67403837"
      ],
      "is_coinbase": false,
      "sequence": 4294967295,
      "inner_redeemscript_asm": "OP_0 OP_PUSHBYTES_20 8da545c82263e093f4d8ec85b12bc794f875aedb"
    }
  ],
  "vout": [
    {
      "scriptpubkey": "001490f84c09da8965ffd1a9c6391ba070ff1a0ecf3a",
      "scriptpubkey_asm": "OP_0 OP_PUSHBYTES_20 90f84c09da8965ffd1a9c6391ba070ff1a0ecf3a",
      "scriptpubkey_type": "v0_p2wpkh",
      "scriptpubkey_address": "bc1qjruyczw639jll5dfccu3hgrsludqane6kwl6wt",
      "value": 6049440
    }
  ],
  "size": 729,
  "weight": 1620,
  "fee": 5004,
  "status": {
    "confirmed": true,
    "block_height": 834460,
    "block_hash": "00000000000000000000484a79b643b2524bbce82e5d8a442013fa5b8905ed98",
    "block_time": 1710307468
  },
  "hex": "020000000001048f6987c09849a0d1b2c6df5ed8cbf2cf88836a8d667c37ee6ed0dca258a14b921800000017160014794981a64e8e2912a1e4cb6f45b6ec37e9162c95ffffffffdf0bb85cda273dea8ee2f4f6fab3275ea875c78ca84a899c17390de32c41bcca1500000017160014988205618c8cf7059e5fbe029c06e9e6cd100c87ffffffff97df1f203a4dbe88cb961d720b8ae16ca75d5a65a89d2e2a4334204407e75ee805000000171600148738758418642f6d6ca6b2f16ae82f7ae276bfc4ffffffff797a072450f3f5d3e5d86abe370a0b826c8a8487569b933ee4a052f9f7d8935307000000171600148da545c82263e093f4d8ec85b12bc794f875aedbffffffff01a04e5c000000000016001490f84c09da8965ffd1a9c6391ba070ff1a0ecf3a02473044022026fce3322f3cdd0fc9c7e4f5fca14b8135149107b0aabb7ff4137b45bbaaa46802205803726d337353447dc5b0280573469a5bee13f04b419a36a3d79684823a224b012102789ca01c347a64eb3436fb65749c5b120fd9fe6ea23c8afbae1b8fc3c8a8951c0248304502210089da62063863cd50a2cb21f2eefb456dd570e94e262083d081b6c434756853100220110d07688802395e2b5cf213a5b9369ca6a656180219e10ea6bb3ff50e0b227b012103cfbd39b9c9b449e7b2d613eb8150cd6ba8eaf8939b27e988251c6c020789eb4a02473044022059f6dbc31641a73856bd6272a4143a5d70f06fbbecd60879c8baac2097568d33022054b4024d228e12f6cc827aee542d7f4009585092eaf53391e7cebbca779e5e6d0121036224e59c282948daef6435a21b884016ff6f715385eab9e25762b00f95ec84b5024830450221008e78f3119dce1dc939ee74c7015e979e49fd1bee5dccd40f51bed6187dfd9fe3022036351c1a7472cbef15f6a79734a11339d2dea146fb078a94f22246c6b3c5db7e012103179913997537852759f4506fa9235fe755606881cbcb9998e1d47f6a6740383700000000"
}