{
  "txid": "49c723037d542808c093351ec40e5469f1644b2765c8b03e9537f72b839ab44e",
  "version": 2,
  "locktime": 0,
  "vin": [
    {
      "txid": "6926252d154a957e1e6fb196e309496119dc87022c2b5f65ede630452323572f",
      "vout": 0,
      "prevout": {
        "scriptpubkey": "51207d68cec9f3ff0d70001788d37f7d6b8ca7b7df3f422bbdf98e42c321cb07d9ae",
        "scriptpubkey_asm": "OP_PUSHNUM_1 OP_PUSHBYTES_32 7d68cec9f3ff0d70001788d37f7d6b8ca7b7df3f422bbdf98e42c321cb07d9ae",
        "scriptpubkey_type": "v1_p2tr",
        "scriptpubkey_address": "bc1p045vaj0nluxhqqqh3rfh7ltt3jnm0helgg4mm7vwgtpjrjc8mxhq4c5zv5",
        "value": 546
      },
      "scriptsig": "",
      "scriptsig_asm": "",
      "witness": [
        "2af076382e93c465e20c70eb60e9191a3745ea5ba88b48aaedf700561337aa905ec18b9eaa9b65421176604bda1cdb22b72803f5962a2c12ba5ce04a55727d49"
      ],
      "is_coinbase": false,
      "sequence": 4294967295
    },
    {
      "txid": "33208adce88477a8d40953b322d9079be118dabb96e6bd913b36da29657e8eeb",
      "vout": 1,
      "prevout": {
        "scriptpubkey": "51207d68cec9f3ff0d70001788d37f7d6b8ca7b7df3f422bbdf98e42c321cb07d9ae",
        "scriptpubkey_asm": "OP_PUSHNUM_1 OP_PUSHBYTES_32 7d68cec9f3ff0d70001788d37f7d6b8ca7b7df3f422bbdf98e42c321cb07d9ae",
        "scriptpubkey_type": "v1_p2tr",
        "scriptpubkey_address": "bc1p045vaj0nluxhqqqh3rfh7ltt3jnm0helgg4mm7vwgtpjrjc8mxhq4c5zv5",
        "value": 57375
      },
      "scriptsig": "",
      "scriptsig_asm": "",
      "witness": [
        "a2584a2d0691d2c032c814b536b8a6262e38eeed79a7a332be3d0faa8388b9101266dc464fe444c5d33b2037e10b607fbb40c6b2f2b1ce798bb1a60e61352d73"
      ],
      "is_coinbase": false,
      "sequence": 4294967295
    }
  ],
  "vout": [
    {
      "scriptpubkey": "512072e12796f21b109ab994036c91f0503bc36e043271d25bbe26549681253b57b4",
      "scriptpubkey_asm": "OP_PUSHNUM_1 OP_PUSHBYTES_32 72e12796f21b109ab994036c91f0503bc36e043271d25bbe26549681253b57b4",
      "scriptpubkey_type": "v1_p2tr",
      "scriptpubkey_address": "bc1pwtsj09hjrvgf4wv5qdkfruzs80pkuppjw8f9h03x2jtgzffm276qnthpcd",
      "value": 546
    },
    {
      "scriptpubkey": "51207d68cec9f3ff0d70001788d37f7d6b8ca7b7df3f422bbdf98e42c321cb07d9ae",
      "scriptpubkey_asm": "OP_PUSHNUM_1 OP_PUSHBYTES_32 7d68cec9f3ff0d70001788d37f7d6b8ca7b7df3f422bbdf98e42c321cb07d9ae",
      "scriptpubkey_type": "v1_p2tr",
      "scriptpubkey_address": "bc1p045vaj0nluxhqqqh3rfh7ltt3jnm0helgg4mm7vwgtpjrjc8mxhq4c5zv5",
      "value": 54407
    }
  ],
  "size": 312,
  "weight": 846,
  "fee": 2968,
  "status": {
    "confirmed": true,
    "block_height": 834460,
    "block_hash": "00000000000000000000484a79b643b2524bbce82e5d8a442013fa5b8905ed98",
    "block_time": 1710307468
  },
  "hex": "020000000001022f5723234530e6ed655f2b2c0287dc19614909e396b16f1e7e954a152d2526690000000000ffffffffeb8e7e6529da363b91bde696bbda18e19b07d922b35309d4a87784e8dc8a20330100000000ffffffff02220200000000000022512072e12796f21b109ab994036c91f0503bc36e043271d25bbe26549681253b57b487d40000000000002251207d68cec9f3ff0d70001788d37f7d6b8ca7b7df3f422bbdf98e42c321cb07d9ae01402af076382e93c465e20c70eb60e9191a3745ea5ba88b48aaedf700561337aa905ec18b9eaa9b65421176604bda1cdb22b72803f5962a2c12ba5ce04a55727d490140a2584a2d0691d2c032c814b536b8a6262e38eeed79a7a332be3d0faa8388b9101266dc464fe444c5d33b2037e10b607fbb40c6b2f2b1ce798bb1a60e61352d7300000000"
}