{
  "txid": "49ece9d3b554013d0443a5bd51b9633e9cabf3185bcc4280e016677414c30c23",
  "version": 1,
  "locktime": 0,
  "vin": [
    {
      "txid": "3f22b71b97285b378a36382332d7f9c2d99de1c398e14fef7dd0dc9c6b7dc727",
      "vout": 1,
      "prevout": {
        "scriptpubkey": "00146074d31a478a188ca42897a16e7bd6b41708c465",
        "scriptpubkey_asm": "OP_0 OP_PUSHBYTES_20 6074d31a478a188ca42897a16e7bd6b41708c465",
        "scriptpubkey_type": "v0_p2wpkh",
        "scriptpubkey_address": "bc1qvp6dxxj83gvgefpgj7sku77kksts33r9pdx2ea",
        "value": 100000
      },
      "scriptsig": "",
      "scriptsig_asm": "",
      "witness": [
        "30440220545e68640fcb9a3cb9d7b4323252a62aca461627407cd45957f05001a13f085c02201f025b32f6df73f4d5916238a61a6282186abad1e115f83ba0369abc46ed774f01",
        "021faf0aa5def13daa1b5a32cac89bce31b544c6c8a09c8d551e394916f4b53a0b"
      ],
      "is_coinbase": false,
      "sequence": 4294967295
    },
    {
      "txid": "6d351060b4b4bcb319c18fe7b88fb5d9b6cd481e1fb9d62fb7ed3ec9f8132c46",
      "vout": 12,
      "prevout": {
        "scriptpubkey": "00147c3cbcd6d4b83f854aa551a4b5415bcca78e461a",
        "scriptpubkey_asm": "OP_0 OP_PUSHBYTES_20 7c3cbcd6d4b83f854aa551a4b5415bcca78e461a",
        "scriptpubkey_type": "v0_p2wpkh",
        "scriptpubkey_address": "bc1q0s7te4k5hqlc2j492xjt2s2mejncu3s652l7kn",
        "value": 103932
      },
      "scriptsig": "",
      "scriptsig_asm": "",
      "witness": [
        "304402203d2de18b9775395d7f4f5a24050577a1f886bbf150b2da293ad717afe42a45e5022053bf5e75d282f70e67eb5673dc3e3c7cedb2f282e1fdd17637dbf43a09c51f4501",
        "03806fac18d19e4010847a273e2fd65ca9250fc353b736ed8c571ba146a198d1e9"
      ],
      "is_coinbase": false,
      "sequence": 4294967295
    },
    {
      "txid": "7b8afba7911e784399113f85685ed3882dd7b9954ffbe719ee1153020efd3c79",
      "vout": 21,
      "prevout": {
        "scriptpubkey": "0014b8f0487ecd9a80393904b76f565bfecc1712034a",
        "scriptpubkey_asm": "OP_0 OP_PUSHBYTES_20 b8f0487ecd9a80393904b76f565bfecc1712034a",
        "scriptpubkey_type": "v0_p2wpkh",
        "scriptpubkey_address": "bc1qhrcyslkdn2qrjwgykah4vkl7est3yq62ffyaud",
        "value": 103412
      },
      "scriptsig": "",
      "scriptsig_asm": "",
      "witness": [
        "3045022100e884867328168c102c96ce01361b31becde07e9c49ea05029b62a92f6de6e85602203bcdaea4dd86da4ac84ea3e28b657a7145c3e1e041c142b09ff20f3c6492c3be01",
        "02f6ca6d1e561c049020b2c4a3cb28ad2577f5e2ff2364995a9c0cbdffc7fd8767"
      ],
      "is_coinbase": false,
      "sequence": 4294967295
    },
    {
      "txid": "91dc3a63faa1c969d88e80b50c08e6de03f532dd8ba38856f6eb5306f99858b7",
      "vout": 2,
      "prevout": {
        "scriptpubkey": "001451bfbdd6222e52fda6aea17db8b078a6aef6e767",
        "scriptpubkey_asm": "OP_0 OP_PUSHBYTES_20 51bfbdd6222e52fda6aea17db8b078a6aef6e767",
        "scriptpubkey_type": "v0_p2wpkh",
        "scriptpubkey_address": "bc1q2xlmm43z9ef0mf4w597m3vrc56h0dem8dxs06e",
        "value": 100000
      },
      "scriptsig": "",
      "scriptsig_asm": "",
      "witness": [
        "304402206d19fb81fdc66256ca59bf392eb1389223d82098d395d7cee08a22f5016d848602203b00e0804c0b4f9fc54a00c4a5552069ba2a142959ab71c3f9591935d65e64e001",
        "0305c5e80140c90b25382aec455534aad82ca0e2d68039a4137535fd66955ec18a"
      ],
      "is_coinbase": false,
      "sequence": 4294967295
    },
    {
      "txid": "f26164ed4546a44ace1eaf2a4f5b11a77258de5faaa13aa0e2456b441a43ca97",
      "vout": 2,
      "prevout": {
        "scriptpubkey": "00142a5e629928e818cd90c8382fa74d38652e91136a",
        "scriptpubkey_asm": "OP_0 OP_PUSHBYTES_20 2a5e629928e818cd90c8382fa74d38652e91136a",
        "scriptpubkey_type": "v0_p2wpkh",
        "scriptpubkey_address": "bc1q9f0x9xfgaqvvmyxg8qh6wnfcv5hfzym2gy9qff",
        "value": 100000
      },
      "scriptsig": "",
      "scriptsig_asm": "",
      "witness": [
        "3045022100a9db6ed9de436bdef13cbb6d90d654ff0fb520cd801b178ebc721490bc2ce0df022007fa9fabfc0728b2e46b7dde097bd1a776706b057f257da280174783eabc94bf01",
        "02f6ea34af651084ab31d10368208a8b54270c235d2d74dc1bf9306a807737c842"
      ],
      "is_coinbase": false,
      "sequence": 4294967295
    }
  ],
  "vout": [
    {
      "scriptpubkey": "0014290e7bc3ea823bb9671b4fadd48392c57e511713",
      "scriptpubkey_asm": "OP_0 OP_PUSHBYTES_20 290e7bc3ea823bb9671b4fadd48392c57e511713",
      "scriptpubkey_type": "v0_p2wpkh",
      "scriptpubkey_address": "bc1q9y88hsl2sgamjecmf7kafqujc4l9z9cnhmtg0s",
      "value": 100000
    },
    {
      "scriptpubkey": "00143149780db96207dab167a05c5a75d336827d351c",
      "scriptpubkey_asm": "OP_0 OP_PUSHBYTES_20 3149780db96207dab167a05c5a75d336827d351c",
      "scriptpubkey_type": "v0_p2wpkh",
      "scriptpubkey_address": "bc1qx9yhsrdevgra4vt85pw95awnx6p86dgua9gjv3",
      "value": 100000
    },
    {
      "scriptpubkey": "001463b5a2fbbd93e6e409b01153ed6beeaf945f6414",
      "scriptpubkey_asm": "OP_0 OP_PUSHBYTES_20 63b5a2fbbd93e6e409b01153ed6beeaf945f6414",
      "scriptpubkey_type": "v0_p2wpkh",
      "scriptpubkey_address": "bc1qvw6697aaj0nwgzdsz9f766lw47297eq5ekx02s",
      "value": 100000
    },
    {
      "scriptpubkey": "0014693b9daee82363cdd39e038da70bee5726c319cd",
      "scriptpubkey_asm": "OP_0 OP_PUSHBYTES_20 693b9daee82363cdd39e038da70bee5726c319cd",
      "scriptpubkey_type": "v0_p2wpkh",
      "scriptpubkey_address": "bc1qdyaemthgyd3um5u7qwx6wzlw2unvxxwd3xutnl",
      "value": 100000
    },
    {
      "scriptpubkey": "0014e9f37b5fe94bc01dc82713696d2bb7f3273b7e0a",
      "scriptpubkey_asm": "OP_0 OP_PUSHBYTES_20 e9f37b5fe94bc01dc82713696d2bb7f3273b7e0a",
      "scriptpubkey_type": "v0_p2wpkh",
      "scriptpubkey_address": "bc1qa8ehkhlff0qpmjp8zd5k62ah7vnnkls2jydmk5",
      "value": 100000
    }
  ],
  "size": 909,
  "weight": 2019,
  "fee": 7344,
  "status": {
    "confirmed": true,
    "block_height": 834638,
    "block_hash": "000000000000000000025f742c626208ac87e0b7d15054abb4a19ca2d735a54e",
    "block_time": 1710405325
  },
  "hex": "0100000000010527c77d6b9cdcd07def4fe198c3e19dd9c2f9d7322338368a375b28971bb7223f0100000000ffffffff462c13f8c93eedb72fd6b91f1e48cdb6d9b58fb8e78fc119b3bcb4b46010356d0c00000000ffffffff793cfd0e025311ee19e7fb4f95b9d72d88d35e68853f119943781e91a7fb8a7b1500000000ffffffffb75898f90653ebf65688a38bdd32f503dee6080cb5808ed869c9a1fa633adc910200000000ffffffff97ca431a446b45e2a03aa1aa5fde5872a7115b4f2aaf1ece4aa44645ed6461f20200000000ffffffff05a086010000000000160014290e7bc3ea823bb9671b4fadd48392c57e511713a0860100000000001600143149780db96207dab167a05c5a75d336827d351ca08601000000000016001463b5a2fbbd93e6e409b01153ed6beeaf945f6414a086010000000000160014693b9daee82363cdd39e038da70bee5726c319cda086010000000000160014e9f37b5fe94bc01dc82713696d2bb7f3273b7e0a024730440220545e68640fcb9a3cb9d7b4323252a62aca461627407cd45957f05001a13f085c02201f025b32f6df73f4d5916238a61a6282186abad1e115f83ba0369abc46ed774f0121021faf0aa5def13daa1b5a32cac89bce31b544c6c8a09c8d551e394916f4b53a0b0247304402203d2de18b9775395d7f4f5a24050577a1f886bbf150b2da293ad717afe42a45e5022053bf5e75d282f70e67eb5673dc3e3c7cedb2f282e1fdd17637dbf43a09c51f45012103806fac18d19e4010847a273e2fd65ca9250fc353b736ed8c571ba146a198d1e902483045022100e884867328168c102c96ce01361b31becde07e9c49ea05029b62a92f6de6e85602203bcdaea4dd86da4ac84ea3e28b657a7145c3e1e041c142b09ff20f3c6492c3be012102f6ca6d1e561c049020b2c4a3cb28ad2577f5e2ff2364995a9c0cbdffc7fd87670247304402206d19fb81fdc66256ca59bf392eb1389223d82098d395d7cee08a22f5016d848602203b00e0804c0b4f9fc54a00c4a5552069ba2a142959ab71c3f9591935d65e64e001210305c5e80140c90b25382aec455534aad82ca0e2d68039a4137535fd66955ec18a02483045022100a9db6ed9de436bdef13cbb6d90d654ff0fb520cd801b178ebc721490bc2ce0df022007fa9fabfc0728b2e46b7dde097bd1a776706b057f257da280174783eabc94bf012102f6ea34af651084ab31d10368208a8b54270c235d2d74dc1bf9306a807737c84200000000"
}