{
  "txid": "49f37ffdf9f4f3842cc0d02e370634b3592588c2cc68675ca30cd40e2d6b2a06",
  "version": 2,
  "locktime": 0,
  "vin": [
    {
      "txid": "e054c137725b7a5d163dade8f5cd68c0927a2e8b00d920927dab9a7ba934ce5f",
      "vout": 23,
      "prevout": {
        "scriptpubkey": "51204557a36139f79d8cf9ef3f9f3d64fff78dfd578ee4e6435bfbffb77e6fd4bc78",
        "scriptpubkey_asm": "OP_PUSHNUM_1 OP_PUSHBYTES_32 4557a36139f79d8cf9ef3f9f3d64fff78dfd578ee4e6435bfbffb77e6fd4bc78",
        "scriptpubkey_type": "v1_p2tr",
        "scriptpubkey_address": "bc1pg4t6xcfe77wce700870n6e8l77xl64uwunnyxklml7mhum75h3uq2nyt4l",
        "value": 2658
      },
      "scriptsig": "",
      "scriptsig_asm": "",
      "witness": [
        "5319b568e66c0fda75dc0e2d6788fb74981f23520a2784fc34bec6fd0c8b56037fedc07f5753cdd40f8dc1d9ec3ada6a1317f396773455ec1dbd723e886ff141",
        "2046e02bd5c7bf42d19b7c07b471cdba3eb6624afaf2a22da97e78c458d5f0d650ac0063036f726401011e6170706c69636174696f6e2f6a736f6e3b636861727365743d7574662d38004cbf7b2270223a22706f772d3230222c226f70223a226d696e74222c227469636b223a2250455045222c22616d74223a2231303030222c22736f6c7574696f6e223a22504550453a6263317139736a36303977756e7468646a636d7a746a796379766475616e653071716b78726e773932653a303030303030303030303030303030303030303139393431613561653132383937363539383134343239323533333030353762306461393666336465613163353a3331313437323230393434227d68",
        "c0a0e509a599b6542378e5ac7959d344a1bebc95ec9899fd4ccf1904beefe3f047"
      ],
      "is_coinbase": false,
      "sequence": 4294967295
    }
  ],
  "vout": [
    {
      "scriptpubkey": "00142c25a795dc9aeed963625c898231bcecf2f002c6",
      "scriptpubkey_asm": "OP_0 OP_PUSHBYTES_20 2c25a795dc9aeed963625c898231bcecf2f002c6",
      "scriptpubkey_type": "v0_p2wpkh",
      "scriptpubkey_address": "bc1q9sj609wunthdjcmztjycyvduane0qqkxrnw92e",
      "value": 546
    }
  ],
  "size": 455,
  "weight": 701,
  "fee": 2112,
  "status": {
    "confirmed": true,
    "block_height": 834460,
    "block_hash": "00000000000000000000484a79b643b2524bbce82e5d8a442013fa5b8905ed98",
    "block_time": 1710307468
  },
  "hex": "020000000001015fce34a97b9aab7d9220d9008b2e7a92c068cdf5e8ad3d165d7a5b7237c154e01700000000ffffffff0122020000000000001600142c25a795dc9aeed963625c898231bcecf2f002c603405319b568e66c0fda75dc0e2d6788fb74981f23520a2784fc34bec6fd0c8b56037fedc07f5753cdd40f8dc1d9ec3ada6a1317f396773455ec1dbd723e886ff141fd0c012046e02bd5c7bf42d19b7c07b471cdba3eb6624afaf2a22da97e78c458d5f0d650ac0063036f726401011e6170706c69636174696f6e2f6a736f6e3b636861727365743d7574662d38004cbf7b2270223a22706f772d3230222c226f70223a226d696e74222c227469636b223a2250455045222c22616d74223a2231303030222c22736f6c7574696f6e223a22504550453a6263317139736a36303977756e7468646a636d7a746a796379766475616e653071716b78726e773932653a303030303030303030303030303030303030303139393431613561653132383937363539383134343239323533333030353762306461393666336465613163353a3331313437323230393434227d6821c0a0e509a599b6542378e5ac7959d344a1bebc95ec9899fd4ccf1904beefe3f04700000000"
}