{
  "txid": "49f954f67e8c465f64b09b250da311e73620bc4ec38a97099f1c526bd65a9362",
  "version": 1,
  "locktime": 0,
  "vin": [
    {
      "txid": "21fb1c6783baae3c65d170f177dcfcfa8d8f65dd87e4bbe5a3989286ddd70074",
      "vout": 0,
      "prevout": {
        "scriptpubkey": "a914ddde8f2ac5ee8ac623db74736186bccdcef31bc587",
        "scriptpubkey_asm": "OP_HASH160 OP_PUSHBYTES_20 ddde8f2ac5ee8ac623db74736186bccdcef31bc5 OP_EQUAL",
        "scriptpubkey_type": "p2sh",
        "scriptpubkey_address": "3Mv9sdFVXSybaMePX8wQDqX7F4vSBZGMTz",
        "value": 130900
      },
      "scriptsig": "2200202f873d6bc00b652534d1164a39c8db41f8e29006abd321cacfc035b07a6f09a3",
      "scriptsig_asm": "OP_PUSHBYTES_34 00202f873d6bc00b652534d1164a39c8db41f8e29006abd321cacfc035b07a6f09a3",
      "witness": [
        "",
        "304402202b24f5fc7605d9718b348c341e9f01128e65a60e42e61ef0e98d93151fdafd6002203e3ac0cdeeee5c1c3f5c0d73a3305ed8a31743c68f635a692f6f39bf6a4f877b01",
        "3044022015eea28bb558a022200daa6eca53c2f302be5522cbba7c9d52dbf34383a062c302204c9088ae78d891c8d49003113ee7fc32af6955c4ca543c6eb5a26313267210ba01",
        "522102ff49692678b7baedfc93753c820f87f2ca629e9744d87212ec9906e3b9bd4e452102aefe16ad23e21ede7706a641ee22b18df37317fda5105a669934a2ff8c73f369210234478809617c7e13c2d36cbce228db30c19db0073a5c4efd277883e8cf938a4653ae"
      ],
      "is_coinbase": false,
      "sequence": 4294967293,
      "inner_redeemscript_asm": "OP_0 OP_PUSHBYTES_32 2f873d6bc00b652534d1164a39c8db41f8e29006abd321cacfc035b07a6f09a3",
      "inner_witnessscript_asm": "OP_PUSHNUM_2 OP_PUSHBYTES_33 02ff49692678b7baedfc93753c820f87f2ca629e9744d87212ec9906e3b9bd4e45 OP_PUSHBYTES_33 02aefe16ad23e21ede7706a641ee22b18df37317fda5105a669934a2ff8c73f369 OP_PUSHBYTES_33 0234478809617c7e13c2d36cbce228db30c19db0073a5c4efd277883e8cf938a46 OP_PUSHNUM_3 OP_CHECKMULTISIG"
    },
    {
      "txid": "29218b622aa9cd92978396f0e03f5bdce14912c9863461c0aed88265341fd745",
      "vout": 5,
      "prevout": {
        "scriptpubkey": "a91407101c7b46c67f159402705b353b223f15e5e6e287",
        "scriptpubkey_asm": "OP_HASH160 OP_PUSHBYTES_20 07101c7b46c67f159402705b353b223f15e5e6e2 OP_EQUAL",
        "scriptpubkey_type": "p2sh",
        "scriptpubkey_address": "32LMxKJAAgMokE4UUEDg8LoEfkcs2XHCSb",
        "value": 653169
      },
      "scriptsig": "220020cde08f5ea2ee39a2797db7c1e6612a33ae9b2bbe38e89e82b99bb653d896dd54",
      "scriptsig_asm": "OP_PUSHBYTES_34 0020cde08f5ea2ee39a2797db7c1e6612a33ae9b2bbe38e89e82b99bb653d896dd54",
      "witness": [
        "",
        "3045022100a85035185115fee36a086be9f17bd7f8e93e52d6bb5a315246be9a66ea9c4cfa0220401a5d188a085b7e8a4baf947468ed5a0f6304a9c0afd6ec634852fd9d63a25101",
        "3044022005f52f5241c6f25785101865f0d95ddf1c0aa16dbbb5cd84c65527ea9fb6e90002204857704acf5fcc06cdf47dbf0ef866149ca06ee6da5a508387f69c9732f4460c01",
        "522103362085b736e46ffdd23cb8fd107e91c290d4ada5072690e95ec0d9fe4dda13172103c2ae3e3fb5b5679cae077c429eb562030a8236fd6243dcb85f7832060602ea2c2102077269c223fc5ac1d11d760d3bdc3c5958b5663530eb0bfc85f20c9bef7aad4e53ae"
      ],
      "is_coinbase": false,
      "sequence": 4294967293,
      "inner_redeemscript_asm": "OP_0 OP_PUSHBYTES_32 cde08f5ea2ee39a2797db7c1e6612a33ae9b2bbe38e89e82b99bb653d896dd54",
      "inner_witnessscript_asm": "OP_PUSHNUM_2 OP_PUSHBYTES_33 03362085b736e46ffdd23cb8fd107e91c290d4ada5072690e95ec0d9fe4dda1317 OP_PUSHBYTES_33 03c2ae3e3fb5b5679cae077c429eb562030a8236fd6243dcb85f7832060602ea2c OP_PUSHBYTES_33 02077269c223fc5ac1d11d760d3bdc3c5958b5663530eb0bfc85f20c9bef7aad4e OP_PUSHNUM_3 OP_CHECKMULTISIG"
    },
    {
      "txid": "4560c8497da8f5cd7840f5e1bcc745e5bb0233861e49ebc121eaa36349e2909f",
      "vout": 0,
      "prevout": {
        "scriptpubkey": "a91488525d4aec18bb86b8f6d8bd70f3e2a759af1f9e87",
        "scriptpubkey_asm": "OP_HASH160 OP_PUSHBYTES_20 88525d4aec18bb86b8f6d8bd70f3e2a759af1f9e OP_EQUAL",
        "scriptpubkey_type": "p2sh",
        "scriptpubkey_address": "3E7pVQvMrXkQSc77AtG3T4g4CA8sXRsTnm",
        "value": 318412
      },
      "scriptsig": "22002016d6a100805c3771fad72071cfd6848594ba372416c599e34587f93de2afe61e",
      "scriptsig_asm": "OP_PUSHBYTES_34 002016d6a100805c3771fad72071cfd6848594ba372416c599e34587f93de2afe61e",
      "witness": [
        "",
        "30450221009eb90fce8ed5ca9bc3eb5c9f266a114ad7ccdec66a77c716b0117d69893f014f0220680df32e630235af402045ecaf69b9dc8896f1d2ff6884d5ee72da98112ffab601",
        "3044022036e6548d61d68782102b096e4a6e1b9dea46bbfd76d753e367a59735dcaeed2802200d03a156ce324bf4aa43ac29896e06cd32d7fd9c332a1a64c2e87c33dcbb89ca01",
        "522103057c3e6757d3cce1654529d0c8ff8a1381d0e3098501432365ced0fa0e4ff94821032d687883d3d49e3caffa34d7cfecead899135b1a9e80a13796adea6e7379e4d32103eac46e58b696707129f7d001aff5c6b38453f6d9e8a37e382a09df039ca2579153ae"
      ],
      "is_coinbase": false,
      "sequence": 4294967293,
      "inner_redeemscript_asm": "OP_0 OP_PUSHBYTES_32 16d6a100805c3771fad72071cfd6848594ba372416c599e34587f93de2afe61e",
      "inner_witnessscript_asm": "OP_PUSHNUM_2 OP_PUSHBYTES_33 03057c3e6757d3cce1654529d0c8ff8a1381d0e3098501432365ced0fa0e4ff948 OP_PUSHBYTES_33 032d687883d3d49e3caffa34d7cfecead899135b1a9e80a13796adea6e7379e4d3 OP_PUSHBYTES_33 03eac46e58b696707129f7d001aff5c6b38453f6d9e8a37e382a09df039ca25791 OP_PUSHNUM_3 OP_CHECKMULTISIG"
    },
    {
      "txid": "79e916d02b6f7ade8145a782104c49310b4ec1652ef0061a9b5a99f07873b0ac",
      "vout": 0,
      "prevout": {
        "scriptpubkey": "a9144ae839518f6d1af5b4546471c4831093bce5b7f287",
        "scriptpubkey_asm": "OP_HASH160 OP_PUSHBYTES_20 4ae839518f6d1af5b4546471c4831093bce5b7f2 OP_EQUAL",
        "scriptpubkey_type": "p2sh",
        "scriptpubkey_address": "38X67wQ33yEYKdwZufaoFMPWwNApUqp9kk",
        "value": 1183838
      },
      "scriptsig": "22002041f41c1a44ec0cec8161534f467c5bd1628c2b499ce633c8d19504490ce9ed1d",
      "scriptsig_asm": "OP_PUSHBYTES_34 002041f41c1a44ec0cec8161534f467c5bd1628c2b499ce633c8d19504490ce9ed1d",
      "witness": [
        "",
        "3045022100f2a33e09e290ca102c1b6ff87bb5c4bc2859cfb6aa1a0bff88c9291c4e92d2f40220225fc84b1135d6b180f6ee69ec1f0b3825a9665b01beef57cb6cd56c5e07eb7e01",
        "30440220494ccf66e1d906e51c0b3c66f2c3f669865573b28168945494b5914469cefd690220704dd6cc721b6240dd866c6557fb65d02d72c3c95b72a09d99a28748c627d92001",
        "5221029cb7e649959d4f3ef2a12de2f0410de288e3668088e20f7fd81378c41982886a2102432397fc47c926cfa736eafc2968cc70a925aba8b490fc1ca788ed5d97440eef2102afadb2015bca973c04906908f79e89cf37b777bdd332d896734db4f54535f76453ae"
      ],
      "is_coinbase": false,
      "sequence": 4294967293,
      "inner_redeemscript_asm": "OP_0 OP_PUSHBYTES_32 41f41c1a44ec0cec8161534f467c5bd1628c2b499ce633c8d19504490ce9ed1d",
      "inner_witnessscript_asm": "OP_PUSHNUM_2 OP_PUSHBYTES_33 029cb7e649959d4f3ef2a12de2f0410de288e3668088e20f7fd81378c41982886a OP_PUSHBYTES_33 02432397fc47c926cfa736eafc2968cc70a925aba8b490fc1ca788ed5d97440eef OP_PUSHBYTES_33 02afadb2015bca973c04906908f79e89cf37b777bdd332d896734db4f54535f764 OP_PUSHNUM_3 OP_CHECKMULTISIG"
    },
    {
      "txid": "7b064b3431bf9a346f774d0ebe71aaedb0cd680a9f4081604901f4ddc2c192ee",
      "vout": 0,
      "prevout": {
        "scriptpubkey": "a914eb0fe85ab0c296553a82c98003a3c89a50fd982187",
        "scriptpubkey_asm": "OP_HASH160 OP_PUSHBYTES_20 eb0fe85ab0c296553a82c98003a3c89a50fd9821 OP_EQUAL",
        "scriptpubkey_type": "p2sh",
        "scriptpubkey_address": "3P7umuUxDzeesELyje2BSWu5nLmhokxk89",
        "value": 1101103
      },
      "scriptsig": "22002053f6310d0a0f855193aaa828c772cfda73f86c80d85b2723d47bf96f6bb1dee6",
      "scriptsig_asm": "OP_PUSHBYTES_34 002053f6310d0a0f855193aaa828c772cfda73f86c80d85b2723d47bf96f6bb1dee6",
      "witness": [
        "",
        "3044022078ec370036bb3038bcc0a1810cb3f3d8ed7661d916e35f5eeafbf9e0564af7ca02200264236ca24768150aac179264fcc52be183e2cb1283fd38e5325c4ebc716d3801",
        "3044022056ba3ae5396c2eacd4d306244939457295c02689172f7dc64f028028a85b30b3022077960a4b6ce55f62d903c06e9b2b6d73213bcdfcf9a2ffcb9f62f2cf92e125a601",
        "5221023cdff943e479647df0ebd56530385fddf25e80627adc9a1a1ef068240e53175021028a159c2f5d3e97c609b603f86bba8765adf11d4423dd78a86e88f21af35455452103d910e174a62b4284c36eb0dd1a4d942c40eae76e4da3eeb7aab186c507665b9b53ae"
      ],
      "is_coinbase": false,
      "sequence": 4294967293,
      "inner_redeemscript_asm": "OP_0 OP_PUSHBYTES_32 53f6310d0a0f855193aaa828c772cfda73f86c80d85b2723d47bf96f6bb1dee6",
      "inner_witnessscript_asm": "OP_PUSHNUM_2 OP_PUSHBYTES_33 023cdff943e479647df0ebd56530385fddf25e80627adc9a1a1ef068240e531750 OP_PUSHBYTES_33 028a159c2f5d3e97c609b603f86bba8765adf11d4423dd78a86e88f21af3545545 OP_PUSHBYTES_33 03d910e174a62b4284c36eb0dd1a4d942c40eae76e4da3eeb7aab186c507665b9b OP_PUSHNUM_3 OP_CHECKMULTISIG"
    },
    {
      "txid": "8c0746ba9a84548e63a810df7907250c3ce049c7113b2e692fb686b0238034d4",
      "vout": 0,
      "prevout": {
        "scriptpubkey": "a914106e9dfbc7c0d9a29cba2fd503e365558a0a215d87",
        "scriptpubkey_asm": "OP_HASH160 OP_PUSHBYTES_20 106e9dfbc7c0d9a29cba2fd503e365558a0a215d OP_EQUAL",
        "scriptpubkey_type": "p2sh",
        "scriptpubkey_address": "33BuFRdcyaFpA8pezYZZdr8DYvgkUU4ag3",
        "value": 500000
      },
      "scriptsig": "220020a08d38c7ae49d81a18f39ef3b7ffcdc98bd4ff85bb6a62c2e2c7028fd26b8b8f",
      "scriptsig_asm": "OP_PUSHBYTES_34 0020a08d38c7ae49d81a18f39ef3b7ffcdc98bd4ff85bb6a62c2e2c7028fd26b8b8f",
      "witness": [
        "",
        "3044022069de57933264af1662cf35864954fc55db975f07dc564939a39f0b3515339a1202200c743344c7b16efa39003bbeef78d7e35830b1c5d2b4d4654778119b7901f3f301",
        "304402206cd628e1c324b619897bc7bff200fc6efaf82bb8ebe3ce71e07481a14eb10b0f0220385d11a21c11befb40d6cbda004c06b52d8e87c7fa04e3c43d6964425b83523f01",
        "522102feb999b66edba00fb783c59c7f08bc0ad525dca8867f6e4cb9c36d81a62d39742103ea829c68b01059048bb6cce58b6865453095b0626c3c6769a4140a93fd08ff2021035eb27cfdb16269116f60ce8f6b540896351839689283e036c119770a24024ed553ae"
      ],
      "is_coinbase": false,
      "sequence": 4294967293,
      "inner_redeemscript_asm": "OP_0 OP_PUSHBYTES_32 a08d38c7ae49d81a18f39ef3b7ffcdc98bd4ff85bb6a62c2e2c7028fd26b8b8f",
      "inner_witnessscript_asm": "OP_PUSHNUM_2 OP_PUSHBYTES_33 02feb999b66edba00fb783c59c7f08bc0ad525dca8867f6e4cb9c36d81a62d3974 OP_PUSHBYTES_33 03ea829c68b01059048bb6cce58b6865453095b0626c3c6769a4140a93fd08ff20 OP_PUSHBYTES_33 035eb27cfdb16269116f60ce8f6b540896351839689283e036c119770a24024ed5 OP_PUSHNUM_3 OP_CHECKMULTISIG"
    },
    {
      "txid": "97f32fc6c37841cf15824e7dec2eff23832502dfb02d2ebecd4f8df192a99166",
      "vout": 0,
      "prevout": {
        "scriptpubkey": "a914bf63d3d669f27474edc2b8e66fe6860c46979c5d87",
        "scriptpubkey_asm": "OP_HASH160 OP_PUSHBYTES_20 bf63d3d669f27474edc2b8e66fe6860c46979c5d OP_EQUAL",
        "scriptpubkey_type": "p2sh",
        "scriptpubkey_address": "3K8zaKTN9HNCo8nUxwYsPqXrxkZNhdW6Vz",
        "value": 137149
      },
      "scriptsig": "220020b6179862cb2555c41b191abf8acd3d67b78f05b98c4467d77dae098793b0800b",
      "scriptsig_asm": "OP_PUSHBYTES_34 0020b6179862cb2555c41b191abf8acd3d67b78f05b98c4467d77dae098793b0800b",
      "witness": [
        "",
        "3045022100f72c6f39018737dce52525797389c3099f508ad4610f4ff0c039707d2822f070022058e943dee614833cbf0d7edcb04399385840f86c3c280088ed703d1a29900bc001",
        "304402200d1d76945bf8af71d39c8c2b38ae10c9c3086ffd1d2b1021804d7ad04d14cd0a02203d33d80942b4c70d904b7e59731a419c95516ad9b87b12bf7dc996d55d2bbb2701",
        "522102dedd8b0da1c880b3e8b3a86387382b977841efb25042eda549796191a2ba315721027e7abf80f652d70b5ec89fef7c13ddb7d93cec4d488be234b96782149b8f752a2103d131b03b9a92556301063cb4c324e6afdf82a3697d49c3a4b6732f6855be061753ae"
      ],
      "is_coinbase": false,
      "sequence": 4294967293,
      "inner_redeemscript_asm": "OP_0 OP_PUSHBYTES_32 b6179862cb2555c41b191abf8acd3d67b78f05b98c4467d77dae098793b0800b",
      "inner_witnessscript_asm": "OP_PUSHNUM_2 OP_PUSHBYTES_33 02dedd8b0da1c880b3e8b3a86387382b977841efb25042eda549796191a2ba3157 OP_PUSHBYTES_33 027e7abf80f652d70b5ec89fef7c13ddb7d93cec4d488be234b96782149b8f752a OP_PUSHBYTES_33 03d131b03b9a92556301063cb4c324e6afdf82a3697d49c3a4b6732f6855be0617 OP_PUSHNUM_3 OP_CHECKMULTISIG"
    },
    {
      "txid": "ecc9c6c00268ce6c69677e15aca5c479c32c9afbe8e97ad9d05524bc55199136",
      "vout": 12,
      "prevout": {
        "scriptpubkey": "a9148a47c6dfcccaecfb0e1c609bc92217da932e5d5387",
        "scriptpubkey_asm": "OP_HASH160 OP_PUSHBYTES_20 8a47c6dfcccaecfb0e1c609bc92217da932e5d53 OP_EQUAL",
        "scriptpubkey_type": "p2sh",
        "scriptpubkey_address": "3EJBAACmhhCeM4kd8UuZG1Zgqd4uMmNprS",
        "value": 116782
      },
      "scriptsig": "220020e3553c940c0579267c14486cc0a2287f5bb93f5127f32663dc84b82f7ad56fe3",
      "scriptsig_asm": "OP_PUSHBYTES_34 0020e3553c940c0579267c14486cc0a2287f5bb93f5127f32663dc84b82f7ad56fe3",
      "witness": [
        "",
        "30440220106c82da881f9cb1054b6fb20f0418c40516a84ca3d4f7ea7c363c73ae2c578f022051a7cfd603c582b4cb4434aadbbd267cf69f82ec38a5de3776787ea2f92c36c101",
        "304402201b7231354f4893a2de3e2356e2317cfcae4c9c294f66c638f3faac3affb6461f02200768373f6d69a7638973c8eefd628c3ec46647e7fd4aab81e07f4f2ca6e785d401",
        "522103c5c09dd4745372872f6cac82019147b9656aca2dec01afec01b75a4498baad4121033ba85aea5778a8b9a652d84ebeedf9a3662dd0b12b9e5d9d21a7bff7f2da84582102459390b2b7594d12dfbbcb511fc46610bc31ba3ca80ba73b989b5bd97a71f85a53ae"
      ],
      "is_coinbase": false,
      "sequence": 4294967293,
      "inner_redeemscript_asm": "OP_0 OP_PUSHBYTES_32 e3553c940c0579267c14486cc0a2287f5bb93f5127f32663dc84b82f7ad56fe3",
      "inner_witnessscript_asm": "OP_PUSHNUM_2 OP_PUSHBYTES_33 03c5c09dd4745372872f6cac82019147b9656aca2dec01afec01b75a4498baad41 OP_PUSHBYTES_33 033ba85aea5778a8b9a652d84ebeedf9a3662dd0b12b9e5d9d21a7bff7f2da8458 OP_PUSHBYTES_33 02459390b2b7594d12dfbbcb511fc46610bc31ba3ca80ba73b989b5bd97a71f85a OP_PUSHNUM_3 OP_CHECKMULTISIG"
    },
    {
      "txid": "fe7bc3004f5368cbb6ecec1b6d00648595c5bfc686167f5fc06a3e7408742cec",
      "vout": 0,
      "prevout": {
        "scriptpubkey": "a914ddde8f2ac5ee8ac623db74736186bccdcef31bc587",
        "scriptpubkey_asm": "OP_HASH160 OP_PUSHBYTES_20 ddde8f2ac5ee8ac623db74736186bccdcef31bc5 OP_EQUAL",
        "scriptpubkey_type": "p2sh",
        "scriptpubkey_address": "3Mv9sdFVXSybaMePX8wQDqX7F4vSBZGMTz",
        "value": 113700
      },
      "scriptsig": "2200202f873d6bc00b652534d1164a39c8db41f8e29006abd321cacfc035b07a6f09a3",
      "scriptsig_asm": "OP_PUSHBYTES_34 00202f873d6bc00b652534d1164a39c8db41f8e29006abd321cacfc035b07a6f09a3",
      "witness": [
        "",
        "3045022100eefff583198a74b07fa7c3f599e85ccc0d1427215b1c080d73521e49056dafdc02201839bb4763c96659dcbe3a387d36de200b954824d73ae23aae602f7dd5d8b26101",
        "30440220190b02a47270f87aefcfa36886ce9e07c326546ebdee64b7143e987d3f117a1002207036e8c4b9e1b4ddd6b3f20542d3bd88e21748b30f13b5065de51468e59f393601",
        "522102ff49692678b7baedfc93753c820f87f2ca629e9744d87212ec9906e3b9bd4e452102aefe16ad23e21ede7706a641ee22b18df37317fda5105a669934a2ff8c73f369210234478809617c7e13c2d36cbce228db30c19db0073a5c4efd277883e8cf938a4653ae"
      ],
      "is_coinbase": false,
      "sequence": 4294967293,
      "inner_redeemscript_asm": "OP_0 OP_PUSHBYTES_32 2f873d6bc00b652534d1164a39c8db41f8e29006abd321cacfc035b07a6f09a3",
      "inner_witnessscript_asm": "OP_PUSHNUM_2 OP_PUSHBYTES_33 02ff49692678b7baedfc93753c820f87f2ca629e9744d87212ec9906e3b9bd4e45 OP_PUSHBYTES_33 02aefe16ad23e21ede7706a641ee22b18df37317fda5105a669934a2ff8c73f369 OP_PUSHBYTES_33 0234478809617c7e13c2d36cbce228db30c19db0073a5c4efd277883e8cf938a46 OP_PUSHNUM_3 OP_CHECKMULTISIG"
    }
  ],
  "vout": [
    {
      "scriptpubkey": "00200f7aead79a49f724ddff1386d78ffd81b26cceb53d0f8aea45e07f4c204e5ace",
      "scriptpubkey_asm": "OP_0 OP_PUSHBYTES_32 0f7aead79a49f724ddff1386d78ffd81b26cceb53d0f8aea45e07f4c204e5ace",
      "scriptpubkey_type": "v0_p2wsh",
      "scriptpubkey_address": "bc1qpaaw44u6f8mjfh0lzwrd0rlasxexen44858c46j9upl5cgzwtt8qurc8rq",
      "value": 1065588
    },
    {
      "scriptpubkey": "00140011fae83e3998c51c29af967ccb77371db76bd6",
      "scriptpubkey_asm": "OP_0 OP_PUSHBYTES_20 0011fae83e3998c51c29af967ccb77371db76bd6",
      "scriptpubkey_type": "v0_p2wpkh",
      "scriptpubkey_address": "bc1qqqgl46p78xvv28pf47t8ejmhxuwmw67k007r85",
      "value": 3170635
    }
  ],
  "size": 3043,
  "weight": 5347,
  "fee": 18830,
  "status": {
    "confirmed": true,
    "block_height": 834552,
    "block_hash": "00000000000000000001dd0468a70c94f619251d286585cff57aeb4bd9ede330",
    "block_time": 1710355598
  },
  "hex": "010000000001097400d7dd869298a3e5bbe487dd658f8dfafcdc77f170d1653caeba83671cfb2100000000232200202f873d6bc00b652534d1164a39c8db41f8e29006abd321cacfc035b07a6f09a3fdffffff45d71f346582d8aec0613486c91249e1dc5b3fe0f096839792cda92a628b21290500000023220020cde08f5ea2ee39a2797db7c1e6612a33ae9b2bbe38e89e82b99bb653d896dd54fdffffff9f90e24963a3ea21c1eb491e863302bbe545c7bce1f54078cdf5a87d49c86045000000002322002016d6a100805c3771fad72071cfd6848594ba372416c599e34587f93de2afe61efdffffffacb07378f0995a9b1a06f02e65c14e0b31494c1082a74581de7a6f2bd016e979000000002322002041f41c1a44ec0cec8161534f467c5bd1628c2b499ce633c8d19504490ce9ed1dfdffffffee92c1c2ddf401496081409f0a68cdb0edaa71be0e4d776f349abf31344b067b000000002322002053f6310d0a0f855193aaa828c772cfda73f86c80d85b2723d47bf96f6bb1dee6fdffffffd4348023b086b62f692e3b11c749e03c0c250779df10a8638e54849aba46078c0000000023220020a08d38c7ae49d81a18f39ef3b7ffcdc98bd4ff85bb6a62c2e2c7028fd26b8b8ffdffffff6691a992f18d4fcdbe2e2db0df02258323ff2eec7d4e8215cf4178c3c62ff3970000000023220020b6179862cb2555c41b191abf8acd3d67b78f05b98c4467d77dae098793b0800bfdffffff36911955bc2455d0d97ae9e8fb9a2cc379c4a5ac157e67696cce6802c0c6c9ec0c00000023220020e3553c940c0579267c14486cc0a2287f5bb93f5127f32663dc84b82f7ad56fe3fdffffffec2c7408743e6ac05f7f1686c6bfc5958564006d1bececb6cb68534f00c37bfe00000000232200202f873d6bc00b652534d1164a39c8db41f8e29006abd321cacfc035b07a6f09a3fdffffff0274421000000000002200200f7aead79a49f724ddff1386d78ffd81b26cceb53d0f8aea45e07f4c204e5ace4b613000000000001600140011fae83e3998c51c29af967ccb77371db76bd6040047304402202b24f5fc7605d9718b348c341e9f01128e65a60e42e61ef0e98d93151fdafd6002203e3ac0cdeeee5c1c3f5c0d73a3305ed8a31743c68f635a692f6f39bf6a4f877b01473044022015eea28bb558a022200daa6eca53c2f302be5522cbba7c9d52dbf34383a062c302204c9088ae78d891c8d49003113ee7fc32af6955c4ca543c6eb5a26313267210ba0169522102ff49692678b7baedfc93753c820f87f2ca629e9744d87212ec9906e3b9bd4e452102aefe16ad23e21ede7706a641ee22b18df37317fda5105a669934a2ff8c73f369210234478809617c7e13c2d36cbce228db30c19db0073a5c4efd277883e8cf938a4653ae0400483045022100a85035185115fee36a086be9f17bd7f8e93e52d6bb5a315246be9a66ea9c4cfa0220401a5d188a085b7e8a4baf947468ed5a0f6304a9c0afd6ec634852fd9d63a25101473044022005f52f5241c6f25785101865f0d95ddf1c0aa16dbbb5cd84c65527ea9fb6e90002204857704acf5fcc06cdf47dbf0ef866149ca06ee6da5a508387f69c9732f4460c0169522103362085b736e46ffdd23cb8fd107e91c290d4ada5072690e95ec0d9fe4dda13172103c2ae3e3fb5b5679cae077c429eb562030a8236fd6243dcb85f7832060602ea2c2102077269c223fc5ac1d11d760d3bdc3c5958b5663530eb0bfc85f20c9bef7aad4e53ae04004830450221009eb90fce8ed5ca9bc3eb5c9f266a114ad7ccdec66a77c716b0117d69893f014f0220680df32e630235af402045ecaf69b9dc8896f1d2ff6884d5ee72da98112ffab601473044022036e6548d61d68782102b096e4a6e1b9dea46bbfd76d753e367a59735dcaeed2802200d03a156ce324bf4aa43ac29896e06cd32d7fd9c332a1a64c2e87c33dcbb89ca0169522103057c3e6757d3cce1654529d0c8ff8a1381d0e3098501432365ced0fa0e4ff94821032d687883d3d49e3caffa34d7cfecead899135b1a9e80a13796adea6e7379e4d32103eac46e58b696707129f7d001aff5c6b38453f6d9e8a37e382a09df039ca2579153ae0400483045022100f2a33e09e290ca102c1b6ff87bb5c4bc2859cfb6aa1a0bff88c9291c4e92d2f40220225fc84b1135d6b180f6ee69ec1f0b3825a9665b01beef57cb6cd56c5e07eb7e014730440220494ccf66e1d906e51c0b3c66f2c3f669865573b28168945494b5914469cefd690220704dd6cc721b6240dd866c6557fb65d02d72c3c95b72a09d99a28748c627d92001695221029cb7e649959d4f3ef2a12de2f0410de288e3668088e20f7fd81378c41982886a2102432397fc47c926cfa736eafc2968cc70a925aba8b490fc1ca788ed5d97440eef2102afadb2015bca973c04906908f79e89cf37b777bdd332d896734db4f54535f76453ae0400473044022078ec370036bb3038bcc0a1810cb3f3d8ed7661d916e35f5eeafbf9e0564af7ca02200264236ca24768150aac179264fcc52be183e2cb1283fd38e5325c4ebc716d3801473044022056ba3ae5396c2eacd4d306244939457295c02689172f7dc64f028028a85b30b3022077960a4b6ce55f62d903c06e9b2b6d73213bcdfcf9a2ffcb9f62f2cf92e125a601695221023cdff943e479647df0ebd56530385fddf25e80627adc9a1a1ef068240e53175021028a159c2f5d3e97c609b603f86bba8765adf11d4423dd78a86e88f21af35455452103d910e174a62b4284c36eb0dd1a4d942c40eae76e4da3eeb7aab186c507665b9b53ae0400473044022069de57933264af1662cf35864954fc55db975f07dc564939a39f0b3515339a1202200c743344c7b16efa39003bbeef78d7e35830b1c5d2b4d4654778119b7901f3f30147304402206cd628e1c324b619897bc7bff200fc6efaf82bb8ebe3ce71e07481a14eb10b0f0220385d11a21c11befb40d6cbda004c06b52d8e87c7fa04e3c43d6964425b83523f0169522102feb999b66edba00fb783c59c7f08bc0ad525dca8867f6e4cb9c36d81a62d39742103ea829c68b01059048bb6cce58b6865453095b0626c3c6769a4140a93fd08ff2021035eb27cfdb16269116f60ce8f6b540896351839689283e036c119770a24024ed553ae0400483045022100f72c6f39018737dce52525797389c3099f508ad4610f4ff0c039707d2822f070022058e943dee614833cbf0d7edcb04399385840f86c3c280088ed703d1a29900bc00147304402200d1d76945bf8af71d39c8c2b38ae10c9c3086ffd1d2b1021804d7ad04d14cd0a02203d33d80942b4c70d904b7e59731a419c95516ad9b87b12bf7dc996d55d2bbb270169522102dedd8b0da1c880b3e8b3a86387382b977841efb25042eda549796191a2ba315721027e7abf80f652d70b5ec89fef7c13ddb7d93cec4d488be234b96782149b8f752a2103d131b03b9a92556301063cb4c324e6afdf82a3697d49c3a4b6732f6855be061753ae04004730440220106c82da881f9cb1054b6fb20f0418c40516a84ca3d4f7ea7c363c73ae2c578f022051a7cfd603c582b4cb4434aadbbd267cf69f82ec38a5de3776787ea2f92c36c10147304402201b7231354f4893a2de3e2356e2317cfcae4c9c294f66c638f3faac3affb6461f02200768373f6d69a7638973c8eefd628c3ec46647e7fd4aab81e07f4f2ca6e785d40169522103c5c09dd4745372872f6cac82019147b9656aca2dec01afec01b75a4498baad4121033ba85aea5778a8b9a652d84ebeedf9a3662dd0b12b9e5d9d21a7bff7f2da84582102459390b2b7594d12dfbbcb511fc46610bc31ba3ca80ba73b989b5bd97a71f85a53ae0400483045022100eefff583198a74b07fa7c3f599e85ccc0d1427215b1c080d73521e49056dafdc02201839bb4763c96659dcbe3a387d36de200b954824d73ae23aae602f7dd5d8b261014730440220190b02a47270f87aefcfa36886ce9e07c326546ebdee64b7143e987d3f117a1002207036e8c4b9e1b4ddd6b3f20542d3bd88e21748b30f13b5065de51468e59f39360169522102ff49692678b7baedfc93753c820f87f2ca629e9744d87212ec9906e3b9bd4e452102aefe16ad23e21ede7706a641ee22b18df37317fda5105a669934a2ff8c73f369210234478809617c7e13c2d36cbce228db30c19db0073a5c4efd277883e8cf938a4653ae00000000"
}