{
  "txid": "4a0f2bee9de5229fa2d4cfb36577a38146eb1ca3dc0744ff22c4c26ec3fceb50",
  "version": 1,
  "locktime": 0,
  "vin": [
    {
      "txid": "160166cd6b1479807ae1a540e9178cff349936f30ae4f4a185626f962f93fb65",
      "vout": 40,
      "prevout": {
        "scriptpubkey": "0014f675f843dd3519523e8803c72d34f9717dddf20c",
        "scriptpubkey_asm": "OP_0 OP_PUSHBYTES_20 f675f843dd3519523e8803c72d34f9717dddf20c",
        "scriptpubkey_type": "v0_p2wpkh",
        "scriptpubkey_address": "bc1q7e6lss7ax5v4y05gq0rj6d8ew97amusve344ez",
        "value": 462297
      },
      "scriptsig": "",
      "scriptsig_asm": "",
      "witness": [
        "30440220697aad2a5923d1367b9aa4a4f73849083501da83639e08062f50e036f679bd29022002695ff0ce16c453e747ab826161434c754de81d47330ce9755a08e483157caf01",
        "02c6dce3bf71a7456f73f884fbc6192fbae3ce16792c5e1c9b15b3288cc77cab35"
      ],
      "is_coinbase": false,
      "sequence": 4294967295
    }
  ],
  "vout": [
    {
      "scriptpubkey": "a914b70723cf37bb500d0a96c4bd2ed5927dd4ed71f087",
      "scriptpubkey_asm": "OP_HASH160 OP_PUSHBYTES_20 b70723cf37bb500d0a96c4bd2ed5927dd4ed71f0 OP_EQUAL",
      "scriptpubkey_type": "p2sh",
      "scriptpubkey_address": "3JNn8jfFQxWE5XCcbp78YY1pyDkxV4bkrf",
      "value": 458320
    },
    {
      "scriptpubkey": "0014e2aa77413c458820be107a302f089272ac18c6fd",
      "scriptpubkey_asm": "OP_0 OP_PUSHBYTES_20 e2aa77413c458820be107a302f089272ac18c6fd",
      "scriptpubkey_type": "v0_p2wpkh",
      "scriptpubkey_address": "bc1qu248wsfugkyzp0ss0gcz7zyjw2kp33haslk49u",
      "value": 1865
    }
  ],
  "size": 223,
  "weight": 565,
  "fee": 2112,
  "status": {
    "confirmed": true,
    "block_height": 834638,
    "block_hash": "000000000000000000025f742c626208ac87e0b7d15054abb4a19ca2d735a54e",
    "block_time": 1710405325
  },
  "hex": "0100000000010165fb932f966f6285a1f4e40af3369934ff8c17e940a5e17a8079146bcd6601162800000000ffffffff0250fe06000000000017a914b70723cf37bb500d0a96c4bd2ed5927dd4ed71f0874907000000000000160014e2aa77413c458820be107a302f089272ac18c6fd024730440220697aad2a5923d1367b9aa4a4f73849083501da83639e08062f50e036f679bd29022002695ff0ce16c453e747ab826161434c754de81d47330ce9755a08e483157caf012102c6dce3bf71a7456f73f884fbc6192fbae3ce16792c5e1c9b15b3288cc77cab3500000000"
}