{
  "txid": "4a19454e927b2236bc99a3b116aa5322a4dffb4dbde8263437dd25c62ee1fbac",
  "version": 2,
  "locktime": 834637,
  "vin": [
    {
      "txid": "075fbc43511493761ce625541ed8137722521f089930881c2b34f19df46954c1",
      "vout": 0,
      "prevout": {
        "scriptpubkey": "0014d696c47f0b06b0ecdc5ace0a8bb9f720009109d4",
        "scriptpubkey_asm": "OP_0 OP_PUSHBYTES_20 d696c47f0b06b0ecdc5ace0a8bb9f720009109d4",
        "scriptpubkey_type": "v0_p2wpkh",
        "scriptpubkey_address": "bc1q66tvglctq6cwehz6ec9ghw0hyqqfzzw55wyxfl",
        "value": 303309
      },
      "scriptsig": "",
      "scriptsig_asm": "",
      "witness": [
        "3044022002027c50250b212a2cdf129debc07647b6a7548259aa9759aaadc32eb8804d32022075af559385a1c8d5922df3ed716e4691f0b184e8576f6a7c3a6d99de64eef63f01",
        "02e476173d1713e3739224137f4f7f803cae422cebe164599c32071f9d433f4a31"
      ],
      "is_coinbase": false,
      "sequence": 4294967294
    }
  ],
  "vout": [
    {
      "scriptpubkey": "0014f8c39eb016b3c09cc78071014c382b38fec1e823",
      "scriptpubkey_asm": "OP_0 OP_PUSHBYTES_20 f8c39eb016b3c09cc78071014c382b38fec1e823",
      "scriptpubkey_type": "v0_p2wpkh",
      "scriptpubkey_address": "bc1qlrpeavqkk0qfe3uqwyq5cwpt8rlvr6prf7jkjd",
      "value": 183180
    },
    {
      "scriptpubkey": "0020d66926067c166dd999e76ce826406fadbb901493301a2436a807a619611fd13b",
      "scriptpubkey_asm": "OP_0 OP_PUSHBYTES_32 d66926067c166dd999e76ce826406fadbb901493301a2436a807a619611fd13b",
      "scriptpubkey_type": "v0_p2wsh",
      "scriptpubkey_address": "bc1q6e5jvpnuzekanx08dn5zvsr04kaeq9ynxqdzgd4gq7npjcgl6yasuvvrmz",
      "value": 116000
    }
  ],
  "size": 234,
  "weight": 609,
  "fee": 4129,
  "status": {
    "confirmed": true,
    "block_height": 834638,
    "block_hash": "000000000000000000025f742c626208ac87e0b7d15054abb4a19ca2d735a54e",
    "block_time": 1710405325
  },
  "hex": "02000000000101c15469f49df1342b1c883099081f52227713d81e5425e61c7693145143bc5f070000000000feffffff028ccb020000000000160014f8c39eb016b3c09cc78071014c382b38fec1e82320c5010000000000220020d66926067c166dd999e76ce826406fadbb901493301a2436a807a619611fd13b02473044022002027c50250b212a2cdf129debc07647b6a7548259aa9759aaadc32eb8804d32022075af559385a1c8d5922df3ed716e4691f0b184e8576f6a7c3a6d99de64eef63f012102e476173d1713e3739224137f4f7f803cae422cebe164599c32071f9d433f4a314dbc0c00"
}