{
  "txid": "4a29f904c36e1c49c937ffb0c5f1505488b88aa9735044406c3758165691ea48",
  "version": 2,
  "locktime": 0,
  "vin": [
    {
      "txid": "648b35e6380215df30cf81dd7193ecd368bd09d3891dda2c3a5dcc1bf5c10d41",
      "vout": 1,
      "prevout": {
        "scriptpubkey": "51200c64fc95702d653e54459ebb4825c31b5f1af1b3a7bcc927da7aa51ed9acd528",
        "scriptpubkey_asm": "OP_PUSHNUM_1 OP_PUSHBYTES_32 0c64fc95702d653e54459ebb4825c31b5f1af1b3a7bcc927da7aa51ed9acd528",
        "scriptpubkey_type": "v1_p2tr",
        "scriptpubkey_address": "bc1pp3j0e9ts94jnu4z9n6a5sfwrrd034udn577vjf7602j3akdv655qw4knye",
        "value": 79510
      },
      "scriptsig": "",
      "scriptsig_asm": "",
      "witness": [
        "240c5b7bffbd933c4418feb504db26ab286751433ace689f43427703dac46b436313b782ca43e087b8d85741464f9890f76f31fe90492133cb996a5e844a82fb"
      ],
      "is_coinbase": false,
      "sequence": 4294967293
    }
  ],
  "vout": [
    {
      "scriptpubkey": "51202dac05f0eb0eacd6f02652e291fb4059374c82ed3af393ec5cda1e75a0dea3f6",
      "scriptpubkey_asm": "OP_PUSHNUM_1 OP_PUSHBYTES_32 2dac05f0eb0eacd6f02652e291fb4059374c82ed3af393ec5cda1e75a0dea3f6",
      "scriptpubkey_type": "v1_p2tr",
      "scriptpubkey_address": "bc1p9kkqtu8tp6kddupx2t3fr76qtym5eqhd8tee8mzumg08tgx750mqg82xsf",
      "value": 2856
    },
    {
      "scriptpubkey": "51200c64fc95702d653e54459ebb4825c31b5f1af1b3a7bcc927da7aa51ed9acd528",
      "scriptpubkey_asm": "OP_PUSHNUM_1 OP_PUSHBYTES_32 0c64fc95702d653e54459ebb4825c31b5f1af1b3a7bcc927da7aa51ed9acd528",
      "scriptpubkey_type": "v1_p2tr",
      "scriptpubkey_address": "bc1pp3j0e9ts94jnu4z9n6a5sfwrrd034udn577vjf7602j3akdv655qw4knye",
      "value": 74344
    }
  ],
  "size": 205,
  "weight": 616,
  "fee": 2310,
  "status": {
    "confirmed": true,
    "block_height": 834460,
    "block_hash": "00000000000000000000484a79b643b2524bbce82e5d8a442013fa5b8905ed98",
    "block_time": 1710307468
  },
  "hex": "02000000000101410dc1f51bcc5d3a2cda1d89d309bd68d3ec9371dd81cf30df150238e6358b640100000000fdffffff02280b0000000000002251202dac05f0eb0eacd6f02652e291fb4059374c82ed3af393ec5cda1e75a0dea3f668220100000000002251200c64fc95702d653e54459ebb4825c31b5f1af1b3a7bcc927da7aa51ed9acd5280140240c5b7bffbd933c4418feb504db26ab286751433ace689f43427703dac46b436313b782ca43e087b8d85741464f9890f76f31fe90492133cb996a5e844a82fb00000000"
}