{
  "txid": "4a2c97d8b77780752ad92d332b5f8674acaa7bb05d1617c5a52d74b7e5faab38",
  "version": 2,
  "locktime": 0,
  "vin": [
    {
      "txid": "8486ecb4df0880316dd6e82b3971b4df187aff23765bc3a47f8d78bb53aa273c",
      "vout": 53,
      "prevout": {
        "scriptpubkey": "51208a52e081e7de2fc731ba909c376bcc9a4bb3bc0dba98c9232afc5fcb4042d985",
        "scriptpubkey_asm": "OP_PUSHNUM_1 OP_PUSHBYTES_32 8a52e081e7de2fc731ba909c376bcc9a4bb3bc0dba98c9232afc5fcb4042d985",
        "scriptpubkey_type": "v1_p2tr",
        "scriptpubkey_address": "bc1p3ffwpq08mchuwvd6jzwrw67vnf9m80qdh2vvjge2l30ukszzmxzsg0jz86",
        "value": 2575
      },
      "scriptsig": "",
      "scriptsig_asm": "",
      "witness": [
        "80c4dd7837d381dca3989d20eee5cc0909b4b1780d4670d78133df63d573cefe8938325280b482d3edce71751769cc6ea5850a2e0f615e6a21a57f9062cd3275",
        "2018acfd5ad4c1e0cfdb47d2907baa7e3419df21e179b2911606adaf8585bcf49aac0063036f726401010a746578742f706c61696e00367b2270223a226272632d3230222c226f70223a226d696e74222c227469636b223a2261616161222c22616d74223a223130303030227d68",
        "c018acfd5ad4c1e0cfdb47d2907baa7e3419df21e179b2911606adaf8585bcf49a"
      ],
      "is_coinbase": false,
      "sequence": 4261412863
    }
  ],
  "vout": [
    {
      "scriptpubkey": "0014ddd7ef12ea6f78edcc1e8e7afa12c01ab59f3339",
      "scriptpubkey_asm": "OP_0 OP_PUSHBYTES_20 ddd7ef12ea6f78edcc1e8e7afa12c01ab59f3339",
      "scriptpubkey_type": "v0_p2wpkh",
      "scriptpubkey_address": "bc1qmht77yh2dauwmnq73ea05ykqr26e7veea8spz6",
      "value": 546
    }
  ],
  "size": 295,
  "weight": 541,
  "fee": 2029,
  "status": {
    "confirmed": true,
    "block_height": 834460,
    "block_hash": "00000000000000000000484a79b643b2524bbce82e5d8a442013fa5b8905ed98",
    "block_time": 1710307468
  },
  "hex": "020000000001013c27aa53bb788d7fa4c35b7623ff7a18dfb471392be8d66d318008dfb4ec86843500000000fffffffd012202000000000000160014ddd7ef12ea6f78edcc1e8e7afa12c01ab59f3339034080c4dd7837d381dca3989d20eee5cc0909b4b1780d4670d78133df63d573cefe8938325280b482d3edce71751769cc6ea5850a2e0f615e6a21a57f9062cd32756e2018acfd5ad4c1e0cfdb47d2907baa7e3419df21e179b2911606adaf8585bcf49aac0063036f726401010a746578742f706c61696e00367b2270223a226272632d3230222c226f70223a226d696e74222c227469636b223a2261616161222c22616d74223a223130303030227d6821c018acfd5ad4c1e0cfdb47d2907baa7e3419df21e179b2911606adaf8585bcf49a00000000"
}