{
  "txid": "4a2f0a8a367403530586ea1e2262b810eb1ec80594ce0f4ee8eb3c69f13a7344",
  "version": 1,
  "locktime": 0,
  "vin": [
    {
      "txid": "6071deae42a05bc577be719b19d159d8aaefff2bf20e4b59a940a3c237bed429",
      "vout": 0,
      "prevout": {
        "scriptpubkey": "00142927a136d297eef1509a8002d6381e0bad9bd06f",
        "scriptpubkey_asm": "OP_0 OP_PUSHBYTES_20 2927a136d297eef1509a8002d6381e0bad9bd06f",
        "scriptpubkey_type": "v0_p2wpkh",
        "scriptpubkey_address": "bc1q9yn6zdkjjlh0z5y6sqpdvwq7pwkeh5r0ka28ad",
        "value": 87239904
      },
      "scriptsig": "",
      "scriptsig_asm": "",
      "witness": [
        "3045022100bc8e008ed546ba6e964cd64a7a502b01d2a2d53f005af6022e655bc7edd4b01102200de1c93ea368fef42639d6df6f3357e0efee556b1a3063a4759a6e17c7ab6c8901",
        "02cf7ff74a9cd3ae162a1ca96a54c3c265a3b81ce4fc4d0195ea3885be2ec6012c"
      ],
      "is_coinbase": false,
      "sequence": 4294967295
    }
  ],
  "vout": [
    {
      "scriptpubkey": "00142927a136d297eef1509a8002d6381e0bad9bd06f",
      "scriptpubkey_asm": "OP_0 OP_PUSHBYTES_20 2927a136d297eef1509a8002d6381e0bad9bd06f",
      "scriptpubkey_type": "v0_p2wpkh",
      "scriptpubkey_address": "bc1q9yn6zdkjjlh0z5y6sqpdvwq7pwkeh5r0ka28ad",
      "value": 85823897
    },
    {
      "scriptpubkey": "0014d3323b062cf55f2b742404c9816627cdcb900519",
      "scriptpubkey_asm": "OP_0 OP_PUSHBYTES_20 d3323b062cf55f2b742404c9816627cdcb900519",
      "scriptpubkey_type": "v0_p2wpkh",
      "scriptpubkey_address": "bc1q6verkp3v740jkapyqnycze38eh9eqpge8hrjeu",
      "value": 1414467
    }
  ],
  "size": 223,
  "weight": 562,
  "fee": 1540,
  "status": {
    "confirmed": true,
    "block_height": 834464,
    "block_hash": "0000000000000000000177a0869a911a2b65c9bdcd5a8bcb02b68f305bee848e",
    "block_time": 1710308296
  },
  "hex": "0100000000010129d4be37c2a340a9594b0ef22bffefaad859d1199b71be77c55ba042aede71600000000000ffffffff0299911d05000000001600142927a136d297eef1509a8002d6381e0bad9bd06f4395150000000000160014d3323b062cf55f2b742404c9816627cdcb90051902483045022100bc8e008ed546ba6e964cd64a7a502b01d2a2d53f005af6022e655bc7edd4b01102200de1c93ea368fef42639d6df6f3357e0efee556b1a3063a4759a6e17c7ab6c89012102cf7ff74a9cd3ae162a1ca96a54c3c265a3b81ce4fc4d0195ea3885be2ec6012c00000000"
}