{
  "txid": "4a307ff7f885fa8059999cc09b7243ef152f3e24db881c0e17abbd23b341c7a2",
  "version": 2,
  "locktime": 0,
  "vin": [
    {
      "txid": "f87a3483763c58267a61eb7689cc63ec616640b8da8a2729c9f7742d3750e277",
      "vout": 0,
      "prevout": {
        "scriptpubkey": "51200851508f401d4b11f7d509ee5925ef9a18f780620372e34e611628030a2311c5",
        "scriptpubkey_asm": "OP_PUSHNUM_1 OP_PUSHBYTES_32 0851508f401d4b11f7d509ee5925ef9a18f780620372e34e611628030a2311c5",
        "scriptpubkey_type": "v1_p2tr",
        "scriptpubkey_address": "bc1pppg4pr6qr493ra74p8h9jf00ngv00qrzqdewxnnpzc5qxz3rz8zspuf8cz",
        "value": 4000
      },
      "scriptsig": "",
      "scriptsig_asm": "",
      "witness": [
        "5cbb0d7240ad5a70096aea80dc96475b6fba466b5863046ba4d362d909025729ac719b715e8182fe5cf79dc3389650fe7de0aab80c66807b5d6d97e752393f38",
        "2006b723c9efa6ef55cc2dd64e3a896a301cf88cfac358a10670f7cb641618e6f6ac0063036f7264010118746578742f706c61696e3b636861727365743d7574662d3800387b2270223a226272632d3230222c226f70223a227472616e73666572222c227469636b223a22316f6e38222c22616d74223a22323030227d68",
        "c0e79d52c93a1048c1bacf30c3a11ff045504fbebf4f70af8f74491eda24d94c32"
      ],
      "is_coinbase": false,
      "sequence": 4294967293
    }
  ],
  "vout": [
    {
      "scriptpubkey": "51203863ee247d81f74f5e191d80e32144df0dbdace9be51ab88a63080ac18e61773",
      "scriptpubkey_asm": "OP_PUSHNUM_1 OP_PUSHBYTES_32 3863ee247d81f74f5e191d80e32144df0dbdace9be51ab88a63080ac18e61773",
      "scriptpubkey_type": "v1_p2tr",
      "scriptpubkey_address": "bc1p8p37ufras8m57hserkqwxg2ymuxmmt8fheg6hz9xxzq2cx8xzaesp4p6c2",
      "value": 546
    },
    {
      "scriptpubkey": "0014bb2bdefb8ed623212e2dee51a5b3b5af42de7d92",
      "scriptpubkey_asm": "OP_0 OP_PUSHBYTES_20 bb2bdefb8ed623212e2dee51a5b3b5af42de7d92",
      "scriptpubkey_type": "v0_p2wpkh",
      "scriptpubkey_address": "bc1qhv4aa7uw6c3jzt3daeg6tva44apdulvj342c4a",
      "value": 1258
    }
  ],
  "size": 354,
  "weight": 729,
  "fee": 2196,
  "status": {
    "confirmed": true,
    "block_height": 834460,
    "block_hash": "00000000000000000000484a79b643b2524bbce82e5d8a442013fa5b8905ed98",
    "block_time": 1710307468
  },
  "hex": "0200000000010177e250372d74f7c929278adab8406661ec63cc8976eb617a26583c7683347af80000000000fdffffff0222020000000000002251203863ee247d81f74f5e191d80e32144df0dbdace9be51ab88a63080ac18e61773ea04000000000000160014bb2bdefb8ed623212e2dee51a5b3b5af42de7d9203405cbb0d7240ad5a70096aea80dc96475b6fba466b5863046ba4d362d909025729ac719b715e8182fe5cf79dc3389650fe7de0aab80c66807b5d6d97e752393f387e2006b723c9efa6ef55cc2dd64e3a896a301cf88cfac358a10670f7cb641618e6f6ac0063036f7264010118746578742f706c61696e3b636861727365743d7574662d3800387b2270223a226272632d3230222c226f70223a227472616e73666572222c227469636b223a22316f6e38222c22616d74223a22323030227d6821c0e79d52c93a1048c1bacf30c3a11ff045504fbebf4f70af8f74491eda24d94c3200000000"
}