{
  "txid": "4a4307141e364b3b6069c3727ad915e3813d4e80634e3210700990f72aa9e2f0",
  "version": 2,
  "locktime": 0,
  "vin": [
    {
      "txid": "f5539ce72c56d47df642b3079d91819639677214ba3febdc5e0d7a6ee411c98c",
      "vout": 1,
      "prevout": {
        "scriptpubkey": "a91476ed074bd093e07efe0cff187ecc87fca1057c8b87",
        "scriptpubkey_asm": "OP_HASH160 OP_PUSHBYTES_20 76ed074bd093e07efe0cff187ecc87fca1057c8b OP_EQUAL",
        "scriptpubkey_type": "p2sh",
        "scriptpubkey_address": "3CXqcD4Gn6nk9e9rGyEH1aAhJGzcj6Ur3B",
        "value": 798164
      },
      "scriptsig": "160014332ee0a0dc546fc319a59e7fa37813a65feda70f",
      "scriptsig_asm": "OP_PUSHBYTES_22 0014332ee0a0dc546fc319a59e7fa37813a65feda70f",
      "witness": [
        "304402206483b7ea39b0e3729a9e87a49df4f21cafbefcf3fa785f801874ae7822dfc6f5022031b61fa5c88478eb4dbd7f7184a980ab37b8e7863eff3328672cdb892d1305ca01",
        "0366dd3c1eb9e6bc34f1f7c66b5841acf7b9d1e21c90009bee7125c18ec9996336"
      ],
      "is_coinbase": false,
      "sequence": 4294967293,
      "inner_redeemscript_asm": "OP_0 OP_PUSHBYTES_20 332ee0a0dc546fc319a59e7fa37813a65feda70f"
    }
  ],
  "vout": [
    {
      "scriptpubkey": "a914805e74949c7dfaa7e726f0d9a90170bec45c5b5c87",
      "scriptpubkey_asm": "OP_HASH160 OP_PUSHBYTES_20 805e74949c7dfaa7e726f0d9a90170bec45c5b5c OP_EQUAL",
      "scriptpubkey_type": "p2sh",
      "scriptpubkey_address": "3DPmZyS4GSyixeFv3dz5cbJvc6Qqi53wCR",
      "value": 247839
    },
    {
      "scriptpubkey": "a91476ed074bd093e07efe0cff187ecc87fca1057c8b87",
      "scriptpubkey_asm": "OP_HASH160 OP_PUSHBYTES_20 76ed074bd093e07efe0cff187ecc87fca1057c8b OP_EQUAL",
      "scriptpubkey_type": "p2sh",
      "scriptpubkey_address": "3CXqcD4Gn6nk9e9rGyEH1aAhJGzcj6Ur3B",
      "value": 548001
    }
  ],
  "size": 247,
  "weight": 661,
  "fee": 2324,
  "status": {
    "confirmed": true,
    "block_height": 834638,
    "block_hash": "000000000000000000025f742c626208ac87e0b7d15054abb4a19ca2d735a54e",
    "block_time": 1710405325
  },
  "hex": "020000000001018cc911e46e7a0d5edceb3fba147267399681919d07b342f67dd4562ce79c53f50100000017160014332ee0a0dc546fc319a59e7fa37813a65feda70ffdffffff021fc803000000000017a914805e74949c7dfaa7e726f0d9a90170bec45c5b5c87a15c08000000000017a91476ed074bd093e07efe0cff187ecc87fca1057c8b870247304402206483b7ea39b0e3729a9e87a49df4f21cafbefcf3fa785f801874ae7822dfc6f5022031b61fa5c88478eb4dbd7f7184a980ab37b8e7863eff3328672cdb892d1305ca01210366dd3c1eb9e6bc34f1f7c66b5841acf7b9d1e21c90009bee7125c18ec999633600000000"
}