{
  "txid": "4a50886835d6d59d07f28d08d650b3a691ecd74fba087c182011bb969e01d01c",
  "version": 1,
  "locktime": 0,
  "vin": [
    {
      "txid": "d316cc93e7821db5aa0faaa9054ece19b0d27096e8add8bd56beab6c4e6de5ab",
      "vout": 0,
      "prevout": {
        "scriptpubkey": "76a914f71a127a68b58a659446d6557ee6a34f7e0121c188ac",
        "scriptpubkey_asm": "OP_DUP OP_HASH160 OP_PUSHBYTES_20 f71a127a68b58a659446d6557ee6a34f7e0121c1 OP_EQUALVERIFY OP_CHECKSIG",
        "scriptpubkey_type": "p2pkh",
        "scriptpubkey_address": "1PXZ8uik1VMr2QcRcodn2zFz5MXtxhRVWc",
        "value": 40708
      },
      "scriptsig": "47304402200a631f5711d7aeaccfabe1d41341e9d3ad3c3c1fff33d3aa6bdb6d0056b5097c02202128ffd357c6a94ec9223c91889ed363ffa24ec9ea64ee890cbdb1e84ce779cf012103a21772bedd0ee65fe581a37d3fda993812e2a44a28f50cdf020dc5c05fc479b9",
      "scriptsig_asm": "OP_PUSHBYTES_71 304402200a631f5711d7aeaccfabe1d41341e9d3ad3c3c1fff33d3aa6bdb6d0056b5097c02202128ffd357c6a94ec9223c91889ed363ffa24ec9ea64ee890cbdb1e84ce779cf01 OP_PUSHBYTES_33 03a21772bedd0ee65fe581a37d3fda993812e2a44a28f50cdf020dc5c05fc479b9",
      "is_coinbase": false,
      "sequence": 4294967295
    }
  ],
  "vout": [
    {
      "scriptpubkey": "76a914fefba28673e6e4bd721200c0bdb4cc371a57c3b788ac",
      "scriptpubkey_asm": "OP_DUP OP_HASH160 OP_PUSHBYTES_20 fefba28673e6e4bd721200c0bdb4cc371a57c3b7 OP_EQUALVERIFY OP_CHECKSIG",
      "scriptpubkey_type": "p2pkh",
      "scriptpubkey_address": "1QFE5d4iyarboiBhMS3grb8Z5CWdajDMLf",
      "value": 37039
    }
  ],
  "size": 191,
  "weight": 764,
  "fee": 3669,
  "status": {
    "confirmed": true,
    "block_height": 834638,
    "block_hash": "000000000000000000025f742c626208ac87e0b7d15054abb4a19ca2d735a54e",
    "block_time": 1710405325
  },
  "hex": "0100000001abe56d4e6cabbe56bdd8ade89670d2b019ce4e05a9aa0faab51d82e793cc16d3000000006a47304402200a631f5711d7aeaccfabe1d41341e9d3ad3c3c1fff33d3aa6bdb6d0056b5097c02202128ffd357c6a94ec9223c91889ed363ffa24ec9ea64ee890cbdb1e84ce779cf012103a21772bedd0ee65fe581a37d3fda993812e2a44a28f50cdf020dc5c05fc479b9ffffffff01af900000000000001976a914fefba28673e6e4bd721200c0bdb4cc371a57c3b788ac00000000"
}