{
  "txid": "4a576c2352cd2283e44e2ff8946f60c47974d3f7116908b2f3af89328d0b0497",
  "version": 2,
  "locktime": 0,
  "vin": [
    {
      "txid": "246d654c08ac53d370d501753f3ac2c90861e2c8cea715ed4b7554841cced399",
      "vout": 54,
      "prevout": {
        "scriptpubkey": "5120928c2d1452997ecb662dc140a27a092eb81397008a1eceeabd774b1d2d01a0a6",
        "scriptpubkey_asm": "OP_PUSHNUM_1 OP_PUSHBYTES_32 928c2d1452997ecb662dc140a27a092eb81397008a1eceeabd774b1d2d01a0a6",
        "scriptpubkey_type": "v1_p2tr",
        "scriptpubkey_address": "bc1pj2xz69zjn9lvke3dc9q2y7sf96up89cq3g0va64awa936tgp5znqtfnhmn",
        "value": 3055
      },
      "scriptsig": "",
      "scriptsig_asm": "",
      "witness": [
        "f51603c8b1400535338119d8b72400fe41aca6a50148067785c220c426efdc2e93d4c752bdf4c78ae4741d4c50d2e0405cfe08479ac434a326c46bfd441d71f1",
        "20cb25b179af07d15347dbd2496c4de31eee9fa0103599c982cfe73ad2bc757a1bac0063036f726401011e6170706c69636174696f6e2f6a736f6e3b636861727365743d7574662d38004cd37b2270223a22706f772d3230222c226f70223a226d696e74222c227469636b223a2250455045222c22616d74223a2231303030222c22736f6c7574696f6e223a22504550453a62633170756a666d33753333656e70786b38383339796c6b3239323239396b6e6467686c717468396e39647a6c7663647635617076366a717732776e71663a303030303030303030303030303030303030303139393431613561653132383937363539383134343239323533333030353762306461393666336465613163353a3135333034303131323338227d68",
        "c0f4929cb66946e40c5d3e5e2b126f88b9a6070d7490abd3aa8e42bf5bbcfe7b9f"
      ],
      "is_coinbase": false,
      "sequence": 4294967295
    }
  ],
  "vout": [
    {
      "scriptpubkey": "5120e493b8f231ccc26b1cf1293f65154a296d36a2ff02ee5995a2fb30d653a166a4",
      "scriptpubkey_asm": "OP_PUSHNUM_1 OP_PUSHBYTES_32 e493b8f231ccc26b1cf1293f65154a296d36a2ff02ee5995a2fb30d653a166a4",
      "scriptpubkey_type": "v1_p2tr",
      "scriptpubkey_address": "bc1pujfm3u33enpxk8839ylk292299kndghlqth9n9dzlvcdv5apv6jqw2wnqf",
      "value": 546
    }
  ],
  "size": 487,
  "weight": 769,
  "fee": 2509,
  "status": {
    "confirmed": true,
    "block_height": 834460,
    "block_hash": "00000000000000000000484a79b643b2524bbce82e5d8a442013fa5b8905ed98",
    "block_time": 1710307468
  },
  "hex": "0200000000010199d3ce1c8454754bed15a7cec8e26108c9c23a3f7501d570d353ac084c656d243600000000ffffffff012202000000000000225120e493b8f231ccc26b1cf1293f65154a296d36a2ff02ee5995a2fb30d653a166a40340f51603c8b1400535338119d8b72400fe41aca6a50148067785c220c426efdc2e93d4c752bdf4c78ae4741d4c50d2e0405cfe08479ac434a326c46bfd441d71f1fd200120cb25b179af07d15347dbd2496c4de31eee9fa0103599c982cfe73ad2bc757a1bac0063036f726401011e6170706c69636174696f6e2f6a736f6e3b636861727365743d7574662d38004cd37b2270223a22706f772d3230222c226f70223a226d696e74222c227469636b223a2250455045222c22616d74223a2231303030222c22736f6c7574696f6e223a22504550453a62633170756a666d33753333656e70786b38383339796c6b3239323239396b6e6467686c717468396e39647a6c7663647635617076366a717732776e71663a303030303030303030303030303030303030303139393431613561653132383937363539383134343239323533333030353762306461393666336465613163353a3135333034303131323338227d6821c0f4929cb66946e40c5d3e5e2b126f88b9a6070d7490abd3aa8e42bf5bbcfe7b9f00000000"
}