{
  "txid": "4a66e0756a826dc8552acb17a13d9ad41d7f7ab8b15d54182c0d18146052e08b",
  "version": 2,
  "locktime": 834637,
  "vin": [
    {
      "txid": "32195848d255b32af0a33445c706786bf4e1fc138f7db9300d72a4aad47a5d3a",
      "vout": 23,
      "prevout": {
        "scriptpubkey": "00141964c8f112be66556c4e75d8e3b499480d8d0626",
        "scriptpubkey_asm": "OP_0 OP_PUSHBYTES_20 1964c8f112be66556c4e75d8e3b499480d8d0626",
        "scriptpubkey_type": "v0_p2wpkh",
        "scriptpubkey_address": "bc1qr9jv3ugjhen92mzwwhvw8dyefqxc6p3x2uvm77",
        "value": 380816
      },
      "scriptsig": "",
      "scriptsig_asm": "",
      "witness": [
        "304402207c697a32fcfe37d57681411cb12b763b722883781c2dec5b1c8c4bb5728c12570220374a3c404e21c24db421112f88c464f2a3ec4c2013918620b0acb499c997e7dc01",
        "038abc07d307342fdf7a818d2ffcc3b596b503d76c8f92f92dd9a24c2f804d26e1"
      ],
      "is_coinbase": false,
      "sequence": 4294967293
    }
  ],
  "vout": [
    {
      "scriptpubkey": "00145df54efc14ea29a2593c7325e06df31d5aafecab",
      "scriptpubkey_asm": "OP_0 OP_PUSHBYTES_20 5df54efc14ea29a2593c7325e06df31d5aafecab",
      "scriptpubkey_type": "v0_p2wpkh",
      "scriptpubkey_address": "bc1qth65alq5ag56ykfuwvj7qm0nr4d2lm9tnx0yty",
      "value": 7698
    },
    {
      "scriptpubkey": "0014319bcd4f0c53f95c59d6cf78d63c48fa19d90278",
      "scriptpubkey_asm": "OP_0 OP_PUSHBYTES_20 319bcd4f0c53f95c59d6cf78d63c48fa19d90278",
      "scriptpubkey_type": "v0_p2wpkh",
      "scriptpubkey_address": "bc1qxxdu6ncv20u4ckwkeaudv0zglgvajqnczs5g2m",
      "value": 370619
    }
  ],
  "size": 222,
  "weight": 561,
  "fee": 2499,
  "status": {
    "confirmed": true,
    "block_height": 834638,
    "block_hash": "000000000000000000025f742c626208ac87e0b7d15054abb4a19ca2d735a54e",
    "block_time": 1710405325
  },
  "hex": "020000000001013a5d7ad4aaa4720d30b97d8f13fce1f46b7806c74534a3f02ab355d2485819321700000000fdffffff02121e0000000000001600145df54efc14ea29a2593c7325e06df31d5aafecabbba7050000000000160014319bcd4f0c53f95c59d6cf78d63c48fa19d902780247304402207c697a32fcfe37d57681411cb12b763b722883781c2dec5b1c8c4bb5728c12570220374a3c404e21c24db421112f88c464f2a3ec4c2013918620b0acb499c997e7dc0121038abc07d307342fdf7a818d2ffcc3b596b503d76c8f92f92dd9a24c2f804d26e14dbc0c00"
}