{
  "txid": "4a966a0e5f8ad8b63f6e3008b53929e9bdcf06fc80f7fe82dcfe566db50950e2",
  "version": 2,
  "locktime": 0,
  "vin": [
    {
      "txid": "5ba7367709e63cb3af01c192202771193f1dbc2e73e08f1866f1329d0a14d91d",
      "vout": 0,
      "prevout": {
        "scriptpubkey": "0014015f524f21a6d8e0c8cdf9338467814294dd9fbb",
        "scriptpubkey_asm": "OP_0 OP_PUSHBYTES_20 015f524f21a6d8e0c8cdf9338467814294dd9fbb",
        "scriptpubkey_type": "v0_p2wpkh",
        "scriptpubkey_address": "bc1qq904ynep5mvwpjxdlyecgeupg22dm8am6cfvgq",
        "value": 88188684
      },
      "scriptsig": "",
      "scriptsig_asm": "",
      "witness": [
        "304402203f15388a320ccdd4ca86bfb701f7e916772c93586107539fcf9ed5d1b8a7516702202a39267caec0c2db853ada5aeb890cf54c8f7c08d7682458ac3786cc54c2d6a801",
        "03e0ebb9dd2a9314f16c76a0c68ea4dd2355033f95a3294b01eaf1f6aa1aaaa3fd"
      ],
      "is_coinbase": false,
      "sequence": 4294967280
    }
  ],
  "vout": [
    {
      "scriptpubkey": "0014015f524f21a6d8e0c8cdf9338467814294dd9fbb",
      "scriptpubkey_asm": "OP_0 OP_PUSHBYTES_20 015f524f21a6d8e0c8cdf9338467814294dd9fbb",
      "scriptpubkey_type": "v0_p2wpkh",
      "scriptpubkey_address": "bc1qq904ynep5mvwpjxdlyecgeupg22dm8am6cfvgq",
      "value": 87986555
    },
    {
      "scriptpubkey": "00141f83077781fb6fb6eb56a8d6cfc7ca4cc9274693",
      "scriptpubkey_asm": "OP_0 OP_PUSHBYTES_20 1f83077781fb6fb6eb56a8d6cfc7ca4cc9274693",
      "scriptpubkey_type": "v0_p2wpkh",
      "scriptpubkey_address": "bc1qr7pswaupldhmd66k4rtvl372fnyjw35nw95cc7",
      "value": 196489
    }
  ],
  "size": 222,
  "weight": 561,
  "fee": 5640,
  "status": {
    "confirmed": true,
    "block_height": 834638,
    "block_hash": "000000000000000000025f742c626208ac87e0b7d15054abb4a19ca2d735a54e",
    "block_time": 1710405325
  },
  "hex": "020000000001011dd9140a9d32f166188fe0732ebc1d3f1971272092c101afb33ce6097736a75b0000000000f0ffffff027b913e0500000000160014015f524f21a6d8e0c8cdf9338467814294dd9fbb89ff0200000000001600141f83077781fb6fb6eb56a8d6cfc7ca4cc92746930247304402203f15388a320ccdd4ca86bfb701f7e916772c93586107539fcf9ed5d1b8a7516702202a39267caec0c2db853ada5aeb890cf54c8f7c08d7682458ac3786cc54c2d6a8012103e0ebb9dd2a9314f16c76a0c68ea4dd2355033f95a3294b01eaf1f6aa1aaaa3fd00000000"
}