{
  "txid": "4ab3cc4296fee78153d60d2884323a84260157db0b83a72309272f109ad9dd32",
  "version": 2,
  "locktime": 0,
  "vin": [
    {
      "txid": "6d0436133e66dab61507b021bbcf0ba6be1e3248c54b4a6585d9bbdeb23179d7",
      "vout": 0,
      "prevout": {
        "scriptpubkey": "76a91427c5e657972f8b4b2364de3f441cc6120490bfa488ac",
        "scriptpubkey_asm": "OP_DUP OP_HASH160 OP_PUSHBYTES_20 27c5e657972f8b4b2364de3f441cc6120490bfa4 OP_EQUALVERIFY OP_CHECKSIG",
        "scriptpubkey_type": "p2pkh",
        "scriptpubkey_address": "14dJRoKyj2i83uRbTUeKqhFMwvFZcpiXyn",
        "value": 625212597
      },
      "scriptsig": "47304402204b78f5c554088204a2420913cbcfccf103923eca78885bba7cd614fa7086a3dc02207cf84fd564bfebae83b8fd457f066911d1b7c46a50211604be7712dc8b37bf92012102aef80b855bac84033414d15c70082b541e4923c174bfdf01ff9a4e48ae05a553",
      "scriptsig_asm": "OP_PUSHBYTES_71 304402204b78f5c554088204a2420913cbcfccf103923eca78885bba7cd614fa7086a3dc02207cf84fd564bfebae83b8fd457f066911d1b7c46a50211604be7712dc8b37bf9201 OP_PUSHBYTES_33 02aef80b855bac84033414d15c70082b541e4923c174bfdf01ff9a4e48ae05a553",
      "is_coinbase": false,
      "sequence": 0
    }
  ],
  "vout": [
    {
      "scriptpubkey": "76a91427c5e657972f8b4b2364de3f441cc6120490bfa488ac",
      "scriptpubkey_asm": "OP_DUP OP_HASH160 OP_PUSHBYTES_20 27c5e657972f8b4b2364de3f441cc6120490bfa4 OP_EQUALVERIFY OP_CHECKSIG",
      "scriptpubkey_type": "p2pkh",
      "scriptpubkey_address": "14dJRoKyj2i83uRbTUeKqhFMwvFZcpiXyn",
      "value": 624162597
    },
    {
      "scriptpubkey": "76a9145b628abd9602abe154155c3db79920e27579bb2788ac",
      "scriptpubkey_asm": "OP_DUP OP_HASH160 OP_PUSHBYTES_20 5b628abd9602abe154155c3db79920e27579bb27 OP_EQUALVERIFY OP_CHECKSIG",
      "scriptpubkey_type": "p2pkh",
      "scriptpubkey_address": "19LCYGkrtoRCQkt4e97cxSNmnLtJ24PaF4",
      "value": 980000
    }
  ],
  "size": 225,
  "weight": 900,
  "fee": 70000,
  "status": {
    "confirmed": true,
    "block_height": 834638,
    "block_hash": "000000000000000000025f742c626208ac87e0b7d15054abb4a19ca2d735a54e",
    "block_time": 1710405325
  },
  "hex": "0200000001d77931b2debbd985654a4bc548321ebea60bcfbb21b00715b6da663e1336046d000000006a47304402204b78f5c554088204a2420913cbcfccf103923eca78885bba7cd614fa7086a3dc02207cf84fd564bfebae83b8fd457f066911d1b7c46a50211604be7712dc8b37bf92012102aef80b855bac84033414d15c70082b541e4923c174bfdf01ff9a4e48ae05a553000000000225f73325000000001976a91427c5e657972f8b4b2364de3f441cc6120490bfa488ac20f40e00000000001976a9145b628abd9602abe154155c3db79920e27579bb2788ac00000000"
}