{
  "txid": "4abc8c037943869a505a13b793fe4e09273528ad7d142627641a8bd931e7dcc8",
  "version": 1,
  "locktime": 0,
  "vin": [
    {
      "txid": "a82f11158d9eba918ee1c76598f069af88ac654fae5aa158d916b167cfc2ab17",
      "vout": 0,
      "prevout": {
        "scriptpubkey": "76a9144c09782e67b26eb4d8bdf861b40b22d6dab7618e88ac",
        "scriptpubkey_asm": "OP_DUP OP_HASH160 OP_PUSHBYTES_20 4c09782e67b26eb4d8bdf861b40b22d6dab7618e OP_EQUALVERIFY OP_CHECKSIG",
        "scriptpubkey_type": "p2pkh",
        "scriptpubkey_address": "17w3hXfC61NqYt9p7oD78T5PbXCi8q1VbY",
        "value": 50000000
      },
      "scriptsig": "48304502210089710436ad9a63fd905a5bceace40c7ab7b6c193f5e8bcf08016e319ded3e551022047e095fe5b1bfd5c954c89c3f49a0df812300369adae5d2db54bfe963c5ec5ae01210222cb7041cc81fe5f6fea96eb3ca7c47aea7d44aad4c7f4459d3a2f6561c1c610",
      "scriptsig_asm": "OP_PUSHBYTES_72 304502210089710436ad9a63fd905a5bceace40c7ab7b6c193f5e8bcf08016e319ded3e551022047e095fe5b1bfd5c954c89c3f49a0df812300369adae5d2db54bfe963c5ec5ae01 OP_PUSHBYTES_33 0222cb7041cc81fe5f6fea96eb3ca7c47aea7d44aad4c7f4459d3a2f6561c1c610",
      "is_coinbase": false,
      "sequence": 4294967295
    }
  ],
  "vout": [
    {
      "scriptpubkey": "a914bb4e082c28904aeb56a815a8213713913ac710a087",
      "scriptpubkey_asm": "OP_HASH160 OP_PUSHBYTES_20 bb4e082c28904aeb56a815a8213713913ac710a0 OP_EQUAL",
      "scriptpubkey_type": "p2sh",
      "scriptpubkey_address": "3JmPmAmJQBr2PZFq6a8oZj7wjCeqBkhkqo",
      "value": 49997300
    }
  ],
  "size": 190,
  "weight": 760,
  "fee": 2700,
  "status": {
    "confirmed": true,
    "block_height": 834460,
    "block_hash": "00000000000000000000484a79b643b2524bbce82e5d8a442013fa5b8905ed98",
    "block_time": 1710307468
  },
  "hex": "010000000117abc2cf67b116d958a15aae4f65ac88af69f09865c7e18e91ba9e8d15112fa8000000006b48304502210089710436ad9a63fd905a5bceace40c7ab7b6c193f5e8bcf08016e319ded3e551022047e095fe5b1bfd5c954c89c3f49a0df812300369adae5d2db54bfe963c5ec5ae01210222cb7041cc81fe5f6fea96eb3ca7c47aea7d44aad4c7f4459d3a2f6561c1c610ffffffff01f4e5fa020000000017a914bb4e082c28904aeb56a815a8213713913ac710a08700000000"
}