{
  "txid": "4acfc5c06029499275ac0c9f4a4126251911730032e54ed02a7b67652a88ca34",
  "version": 2,
  "locktime": 0,
  "vin": [
    {
      "txid": "e835c4d922fbed17c48b3bb466ba1ffc020ede84c1303bdb67ca1f883dd615bb",
      "vout": 3,
      "prevout": {
        "scriptpubkey": "51201e9a095a29b05dce004975b2a13c259f8e3bffcd209ec2e1225349ae9eb447fa",
        "scriptpubkey_asm": "OP_PUSHNUM_1 OP_PUSHBYTES_32 1e9a095a29b05dce004975b2a13c259f8e3bffcd209ec2e1225349ae9eb447fa",
        "scriptpubkey_type": "v1_p2tr",
        "scriptpubkey_address": "bc1pr6dqjk3fkpwuuqzfwke2z0p9n78rhl7dyz0v9cfz2dy6a845glaq3m6t54",
        "value": 3248
      },
      "scriptsig": "",
      "scriptsig_asm": "",
      "witness": [
        "bc2baf3423c12db2d6e7e5d4e0cb97b48525f6a21a6dd4494c9119ccf7f380b64ec256e901e4c05f9c49ee109051567c33f0af3dc72b8e73049068d15420b32a",
        "20556c6a72eef4e5e48fd7cbc3dcd905a9108744d7dc8da40842ef04b87943db06ac0063036f726401011e6170706c69636174696f6e2f6a736f6e3b636861727365743d7574662d38004cd37b2270223a22706f772d3230222c226f70223a226d696e74222c227469636b223a2250455045222c22616d74223a2231303030222c22736f6c7574696f6e223a22504550453a626331703378336875706e76383064666366666c34333367327a3776713378706c63673364666d79716365336d6c6d6e78397767753872717265763032653a303030303030303030303030303030303030303139393431613561653132383937363539383134343239323533333030353762306461393666336465613163353a3139353237393332303730227d68",
        "c0bf69a78b1b6433fca38fda21525e43a6c565682ca08e513a8f66feb668723930"
      ],
      "is_coinbase": false,
      "sequence": 4294967295
    }
  ],
  "vout": [
    {
      "scriptpubkey": "512089a37e066c3bda9c253fac62850bcc044c1fe1116a76406331dff73315c8e1c6",
      "scriptpubkey_asm": "OP_PUSHNUM_1 OP_PUSHBYTES_32 89a37e066c3bda9c253fac62850bcc044c1fe1116a76406331dff73315c8e1c6",
      "scriptpubkey_type": "v1_p2tr",
      "scriptpubkey_address": "bc1p3x3hupnv80dfcffl433g2z7vq3xplcg3dfmyqce3mlmnx9wgu8rqrev02e",
      "value": 546
    }
  ],
  "size": 487,
  "weight": 769,
  "fee": 2702,
  "status": {
    "confirmed": true,
    "block_height": 834460,
    "block_hash": "00000000000000000000484a79b643b2524bbce82e5d8a442013fa5b8905ed98",
    "block_time": 1710307468
  },
  "hex": "02000000000101bb15d63d881fca67db3b30c184de0e02fc1fba66b43b8bc417edfb22d9c435e80300000000ffffffff01220200000000000022512089a37e066c3bda9c253fac62850bcc044c1fe1116a76406331dff73315c8e1c60340bc2baf3423c12db2d6e7e5d4e0cb97b48525f6a21a6dd4494c9119ccf7f380b64ec256e901e4c05f9c49ee109051567c33f0af3dc72b8e73049068d15420b32afd200120556c6a72eef4e5e48fd7cbc3dcd905a9108744d7dc8da40842ef04b87943db06ac0063036f726401011e6170706c69636174696f6e2f6a736f6e3b636861727365743d7574662d38004cd37b2270223a22706f772d3230222c226f70223a226d696e74222c227469636b223a2250455045222c22616d74223a2231303030222c22736f6c7574696f6e223a22504550453a626331703378336875706e76383064666366666c34333367327a3776713378706c63673364666d79716365336d6c6d6e78397767753872717265763032653a303030303030303030303030303030303030303139393431613561653132383937363539383134343239323533333030353762306461393666336465613163353a3139353237393332303730227d6821c0bf69a78b1b6433fca38fda21525e43a6c565682ca08e513a8f66feb66872393000000000"
}