{
  "txid": "4ad22f6cc7182ad9e7bfe33ab6353ba1db5394f185abd56881af4505d77d525f",
  "version": 2,
  "locktime": 0,
  "vin": [
    {
      "txid": "acc3ba00869acb582a3f2904ce3a11dd3779350ce234063fc7d0959246213364",
      "vout": 283,
      "prevout": {
        "scriptpubkey": "5120652c04582ffa76b2026efac6f6b0ffb47e58340d28b63b66e5dd2c7e908e707e",
        "scriptpubkey_asm": "OP_PUSHNUM_1 OP_PUSHBYTES_32 652c04582ffa76b2026efac6f6b0ffb47e58340d28b63b66e5dd2c7e908e707e",
        "scriptpubkey_type": "v1_p2tr",
        "scriptpubkey_address": "bc1pv5kqgkp0lfmtyqnwltr0dv8lk3l9sdqd9zmrkeh9m5k8ayywwplq4z6f5w",
        "value": 1806
      },
      "scriptsig": "",
      "scriptsig_asm": "",
      "witness": [
        "8ab855ed7473f4acdd918d73a917fb700f842070dc27bea02b6a0831374d533f8ae582a51945922853d18dc816cb31e331323386224c433d08d5b6a41faefc8f",
        "208216cb05d5b4abee4f7a90f59d25c180cc743909ac584b894c61adc1b40e48daac0063036f726401010a746578742f706c61696e00357b2270223a226272632d3230222c226f70223a226d696e74222c227469636b223a22646f6765222c22616d74223a2234323030227d68",
        "c18216cb05d5b4abee4f7a90f59d25c180cc743909ac584b894c61adc1b40e48da"
      ],
      "is_coinbase": false,
      "sequence": 4261412863
    }
  ],
  "vout": [
    {
      "scriptpubkey": "00147a665de7a370f4c9b372ab1fae587500a5bcbdb4",
      "scriptpubkey_asm": "OP_0 OP_PUSHBYTES_20 7a665de7a370f4c9b372ab1fae587500a5bcbdb4",
      "scriptpubkey_type": "v0_p2wpkh",
      "scriptpubkey_address": "bc1q0fn9mearwr6vnvmj4v06ukr4qzjme0d565dzcx",
      "value": 294
    }
  ],
  "size": 294,
  "weight": 540,
  "fee": 1512,
  "status": {
    "confirmed": true,
    "block_height": 834460,
    "block_hash": "00000000000000000000484a79b643b2524bbce82e5d8a442013fa5b8905ed98",
    "block_time": 1710307468
  },
  "hex": "02000000000101643321469295d0c73f0634e20c357937dd113ace04293f2a58cb9a8600bac3ac1b01000000fffffffd0126010000000000001600147a665de7a370f4c9b372ab1fae587500a5bcbdb403408ab855ed7473f4acdd918d73a917fb700f842070dc27bea02b6a0831374d533f8ae582a51945922853d18dc816cb31e331323386224c433d08d5b6a41faefc8f6d208216cb05d5b4abee4f7a90f59d25c180cc743909ac584b894c61adc1b40e48daac0063036f726401010a746578742f706c61696e00357b2270223a226272632d3230222c226f70223a226d696e74222c227469636b223a22646f6765222c22616d74223a2234323030227d6821c18216cb05d5b4abee4f7a90f59d25c180cc743909ac584b894c61adc1b40e48da00000000"
}