{
  "txid": "4ae07b4c93e54b18b220885e7e17de9759ff7dffe684c739d2e6969403baff7d",
  "version": 1,
  "locktime": 0,
  "vin": [
    {
      "txid": "d856eab2c8d9e123b115fca70d78facc68c789e9f5acbaff251459b967f051d9",
      "vout": 1,
      "prevout": {
        "scriptpubkey": "51209d6dbbf9bad17d0135e06ea56ec304df985f9f9bc809fa52ae6789a0947e0300",
        "scriptpubkey_asm": "OP_PUSHNUM_1 OP_PUSHBYTES_32 9d6dbbf9bad17d0135e06ea56ec304df985f9f9bc809fa52ae6789a0947e0300",
        "scriptpubkey_type": "v1_p2tr",
        "scriptpubkey_address": "bc1pn4kmh7d6697szd0qd6jkascym7v9l8umeqyl554wv7y6p9r7qvqquzkndh",
        "value": 385267
      },
      "scriptsig": "",
      "scriptsig_asm": "",
      "witness": [
        "b540110e1013a9bd38333e081d19fb47758b7507494f7e9340479719d9936067c2d2ed3c81ce27b29e8e0bfbebf4170017c4e06741b020bcb50016df08d92c17"
      ],
      "is_coinbase": false,
      "sequence": 0
    }
  ],
  "vout": [
    {
      "scriptpubkey": "5120b98f4d67f2f2bd0ecb88aea589418db62967bdfc68f2687516ce199244d01955",
      "scriptpubkey_asm": "OP_PUSHNUM_1 OP_PUSHBYTES_32 b98f4d67f2f2bd0ecb88aea589418db62967bdfc68f2687516ce199244d01955",
      "scriptpubkey_type": "v1_p2tr",
      "scriptpubkey_address": "bc1phx856elj727sajug46jcjsvdkc5k000udrexsagkecvey3xsr92spm8rfg",
      "value": 2710
    },
    {
      "scriptpubkey": "51209d6dbbf9bad17d0135e06ea56ec304df985f9f9bc809fa52ae6789a0947e0300",
      "scriptpubkey_asm": "OP_PUSHNUM_1 OP_PUSHBYTES_32 9d6dbbf9bad17d0135e06ea56ec304df985f9f9bc809fa52ae6789a0947e0300",
      "scriptpubkey_type": "v1_p2tr",
      "scriptpubkey_address": "bc1pn4kmh7d6697szd0qd6jkascym7v9l8umeqyl554wv7y6p9r7qvqquzkndh",
      "value": 380709
    }
  ],
  "size": 205,
  "weight": 616,
  "fee": 1848,
  "status": {
    "confirmed": true,
    "block_height": 834460,
    "block_hash": "00000000000000000000484a79b643b2524bbce82e5d8a442013fa5b8905ed98",
    "block_time": 1710307468
  },
  "hex": "01000000000101d951f067b9591425ffbaacf5e989c768ccfa780da7fc15b123e1d9c8b2ea56d801000000000000000002960a000000000000225120b98f4d67f2f2bd0ecb88aea589418db62967bdfc68f2687516ce199244d0195525cf0500000000002251209d6dbbf9bad17d0135e06ea56ec304df985f9f9bc809fa52ae6789a0947e03000140b540110e1013a9bd38333e081d19fb47758b7507494f7e9340479719d9936067c2d2ed3c81ce27b29e8e0bfbebf4170017c4e06741b020bcb50016df08d92c1700000000"
}