{
  "txid": "4ae8009bf4a46e119f91820f418940fe19fdcf7cc1bd2ab5569d08be57a8284b",
  "version": 2,
  "locktime": 0,
  "vin": [
    {
      "txid": "88338000c2cd53bd0cea86f81c3b6aecffa650e0b506dc3900a275c87e1173f2",
      "vout": 1,
      "prevout": {
        "scriptpubkey": "0014e8c25fa43d28cd4423f90648c4219e18bd771f0f",
        "scriptpubkey_asm": "OP_0 OP_PUSHBYTES_20 e8c25fa43d28cd4423f90648c4219e18bd771f0f",
        "scriptpubkey_type": "v0_p2wpkh",
        "scriptpubkey_address": "bc1qarp9lfpa9rx5ggleqeyvggv7rz7hw8c0je4mk6",
        "value": 783064
      },
      "scriptsig": "",
      "scriptsig_asm": "",
      "witness": [
        "3044022053601afd1e2d21b1b6bb7c358521243153b97db0b6bb41608931c55596bd2233022073a1cda42bb873377fe1c288a7fec94665c09c59070235afbb261edebc6d274f01",
        "03596d213e8a4eee1b20d4b2fd0548f79b2a1078bd4c094f17f502307ab78a219f"
      ],
      "is_coinbase": false,
      "sequence": 4294967295
    }
  ],
  "vout": [
    {
      "scriptpubkey": "0014d27a1079964699a2931eaaddbcb30605c92276b2",
      "scriptpubkey_asm": "OP_0 OP_PUSHBYTES_20 d27a1079964699a2931eaaddbcb30605c92276b2",
      "scriptpubkey_type": "v0_p2wpkh",
      "scriptpubkey_address": "bc1q6fapq7vkg6v69yc74twmevcxqhyjya4jdy0v2q",
      "value": 8974
    },
    {
      "scriptpubkey": "a91403d11a7788eb7a1ec14ed2962c66e8f32e13390087",
      "scriptpubkey_asm": "OP_HASH160 OP_PUSHBYTES_20 03d11a7788eb7a1ec14ed2962c66e8f32e133900 OP_EQUAL",
      "scriptpubkey_type": "p2sh",
      "scriptpubkey_address": "323CSsqJAU6d9zaJDTK1jeRYgZpPExFgr9",
      "value": 770430
    }
  ],
  "size": 223,
  "weight": 565,
  "fee": 3660,
  "status": {
    "confirmed": true,
    "block_height": 834638,
    "block_hash": "000000000000000000025f742c626208ac87e0b7d15054abb4a19ca2d735a54e",
    "block_time": 1710405325
  },
  "hex": "02000000000101f273117ec875a20039dc06b5e050a6ffec6a3b1cf886ea0cbd53cdc2008033880100000000ffffffff020e23000000000000160014d27a1079964699a2931eaaddbcb30605c92276b27ec10b000000000017a91403d11a7788eb7a1ec14ed2962c66e8f32e1339008702473044022053601afd1e2d21b1b6bb7c358521243153b97db0b6bb41608931c55596bd2233022073a1cda42bb873377fe1c288a7fec94665c09c59070235afbb261edebc6d274f012103596d213e8a4eee1b20d4b2fd0548f79b2a1078bd4c094f17f502307ab78a219f00000000"
}