{
  "txid": "4af214321b0237fdf4eccdcf17e33e316bdc199961794d6d7e531769021b56ee",
  "version": 2,
  "locktime": 0,
  "vin": [
    {
      "txid": "5c2e0cdbbbda0730192349e16ef91adacc0e2a8b2f9d8808abef8ac8181432be",
      "vout": 1,
      "prevout": {
        "scriptpubkey": "512084767b477d300a6a79f325e8760cdd29b1f77e35381ae09a292d546d9d252d8e",
        "scriptpubkey_asm": "OP_PUSHNUM_1 OP_PUSHBYTES_32 84767b477d300a6a79f325e8760cdd29b1f77e35381ae09a292d546d9d252d8e",
        "scriptpubkey_type": "v1_p2tr",
        "scriptpubkey_address": "bc1ps3m8k3maxq9x570nyh58vrxa9xclwl348qdwpx3f942xm8f99k8q6tmdgh",
        "value": 105412
      },
      "scriptsig": "",
      "scriptsig_asm": "",
      "witness": [
        "930bf1426f388e2d48942ca5dd2a3fde2ff72b115aa5aa7927c7dfed431757659e840265af3b6471e439392133e081fe88194f4b573b026c1fd049a1c554e189"
      ],
      "is_coinbase": false,
      "sequence": 4294967293
    }
  ],
  "vout": [
    {
      "scriptpubkey": "5120777145dbbbe2f1db3930880de6b44c00cccdd156b5b118e227b7942f657d0f16",
      "scriptpubkey_asm": "OP_PUSHNUM_1 OP_PUSHBYTES_32 777145dbbbe2f1db3930880de6b44c00cccdd156b5b118e227b7942f657d0f16",
      "scriptpubkey_type": "v1_p2tr",
      "scriptpubkey_address": "bc1pwac5tkamutcakwfs3qx7ddzvqrxvm52kkkc33c38k72z7etaputqa78d0m",
      "value": 3696
    },
    {
      "scriptpubkey": "5120e54e84deea4dfc7a92536610b5aaed0e9ec0a4075ea6d2b23c54ba541f865ce5",
      "scriptpubkey_asm": "OP_PUSHNUM_1 OP_PUSHBYTES_32 e54e84deea4dfc7a92536610b5aaed0e9ec0a4075ea6d2b23c54ba541f865ce5",
      "scriptpubkey_type": "v1_p2tr",
      "scriptpubkey_address": "bc1pu48gfhh2fh784yjnvcgtt2hdp60vpfq8t6nd9v3u2ja9g8uxtnjs8wq0mh",
      "value": 98482
    }
  ],
  "size": 205,
  "weight": 616,
  "fee": 3234,
  "status": {
    "confirmed": true,
    "block_height": 834460,
    "block_hash": "00000000000000000000484a79b643b2524bbce82e5d8a442013fa5b8905ed98",
    "block_time": 1710307468
  },
  "hex": "02000000000101be321418c88aefab08889d2f8b2a0eccda1af96ee14923193007dabbdb0c2e5c0100000000fdffffff02700e000000000000225120777145dbbbe2f1db3930880de6b44c00cccdd156b5b118e227b7942f657d0f16b280010000000000225120e54e84deea4dfc7a92536610b5aaed0e9ec0a4075ea6d2b23c54ba541f865ce50140930bf1426f388e2d48942ca5dd2a3fde2ff72b115aa5aa7927c7dfed431757659e840265af3b6471e439392133e081fe88194f4b573b026c1fd049a1c554e18900000000"
}