{
  "txid": "4b2719d77688554c05e6ed5f685e3048a7c06ac2f2342e310046579d880ff394",
  "version": 1,
  "locktime": 0,
  "vin": [
    {
      "txid": "48a6665da3b6c77c77b6394fd84fa92adc0f617f1b6f05b3d9ed7fe58af35536",
      "vout": 1,
      "prevout": {
        "scriptpubkey": "0014df31aedc6549f5262cd4c6460e848a578e293aa5",
        "scriptpubkey_asm": "OP_0 OP_PUSHBYTES_20 df31aedc6549f5262cd4c6460e848a578e293aa5",
        "scriptpubkey_type": "v0_p2wpkh",
        "scriptpubkey_address": "bc1qmuc6ahr9f86jvtx5cerqapy2278zjw49vfffgq",
        "value": 7371
      },
      "scriptsig": "",
      "scriptsig_asm": "",
      "witness": [
        "3045022100f3f3b602ae2b31df8bcf5027bd6c6d79594472781b0d6dcab293d7d30231530502206c3f189c7831a37292048e2840c3ea6627557b1791b11a2097cd9934e58f20f701",
        "03400ef1c5214923c22974f7d51e43cc5bf67629a8e847b437b7e9e549c3c4448f"
      ],
      "is_coinbase": false,
      "sequence": 4294967295
    },
    {
      "txid": "7012027cb9386bae6f941e830aecba070af29b10e63395da72d2e0fd4f257dc0",
      "vout": 1,
      "prevout": {
        "scriptpubkey": "0014004d2f7bcdf95f547bc4f7cd052b1c327beff0ca",
        "scriptpubkey_asm": "OP_0 OP_PUSHBYTES_20 004d2f7bcdf95f547bc4f7cd052b1c327beff0ca",
        "scriptpubkey_type": "v0_p2wpkh",
        "scriptpubkey_address": "bc1qqpxj777dl904g77y7lxs22cuxfa7lux2ffqecf",
        "value": 31445
      },
      "scriptsig": "",
      "scriptsig_asm": "",
      "witness": [
        "304402201335e8cd2d0872765935c6eeb5cc824db9afce4d916320d68a267ff7234f158b022055ebee173ee2f04d6a1d1a0b87b4929e12243a3b838cecd772d097a2ae7d937501",
        "02385e991003f67ffa2594caeb90b8b9e92d0a69bf3a5ef52a0dff9b354b3a9b4a"
      ],
      "is_coinbase": false,
      "sequence": 4294967295
    }
  ],
  "vout": [
    {
      "scriptpubkey": "00147474bcd901baf61f527ebf5f881c7642cd1867b3",
      "scriptpubkey_asm": "OP_0 OP_PUSHBYTES_20 7474bcd901baf61f527ebf5f881c7642cd1867b3",
      "scriptpubkey_type": "v0_p2wpkh",
      "scriptpubkey_address": "bc1qw36tekgphtmp75n7ha0cs8rkgtx3seanzxqvu8",
      "value": 26803
    },
    {
      "scriptpubkey": "0014ff003236ae14569426db6919a82a7de4ad986a76",
      "scriptpubkey_asm": "OP_0 OP_PUSHBYTES_20 ff003236ae14569426db6919a82a7de4ad986a76",
      "scriptpubkey_type": "v0_p2wpkh",
      "scriptpubkey_address": "bc1qluqryd4wz3tfgfkmdyv6s2naujkes6nka55wy7",
      "value": 8899
    }
  ],
  "size": 371,
  "weight": 833,
  "fee": 3114,
  "status": {
    "confirmed": true,
    "block_height": 834638,
    "block_hash": "000000000000000000025f742c626208ac87e0b7d15054abb4a19ca2d735a54e",
    "block_time": 1710405325
  },
  "hex": "010000000001023655f38ae57fedd9b3056f1b7f610fdc2aa94fd84f39b6777cc7b6a35d66a6480100000000ffffffffc07d254ffde0d272da9533e6109bf20a07baec0a831e946fae6b38b97c0212700100000000ffffffff02b3680000000000001600147474bcd901baf61f527ebf5f881c7642cd1867b3c322000000000000160014ff003236ae14569426db6919a82a7de4ad986a7602483045022100f3f3b602ae2b31df8bcf5027bd6c6d79594472781b0d6dcab293d7d30231530502206c3f189c7831a37292048e2840c3ea6627557b1791b11a2097cd9934e58f20f7012103400ef1c5214923c22974f7d51e43cc5bf67629a8e847b437b7e9e549c3c4448f0247304402201335e8cd2d0872765935c6eeb5cc824db9afce4d916320d68a267ff7234f158b022055ebee173ee2f04d6a1d1a0b87b4929e12243a3b838cecd772d097a2ae7d9375012102385e991003f67ffa2594caeb90b8b9e92d0a69bf3a5ef52a0dff9b354b3a9b4a00000000"
}