{
  "txid": "4b39c3652fda6453558dd999ad496c4ada603bd3bc77c9742fcda72a31ceacda",
  "version": 1,
  "locktime": 0,
  "vin": [
    {
      "txid": "e7cf4cf38ff099de63b7ddd97ed77fefd48703a11b18dee3ea145bc774e8b9c5",
      "vout": 0,
      "prevout": {
        "scriptpubkey": "5120e715f2fe81c3f045a353bfd6b6165e723da41a56709e01eadff2fd8304da09a8",
        "scriptpubkey_asm": "OP_PUSHNUM_1 OP_PUSHBYTES_32 e715f2fe81c3f045a353bfd6b6165e723da41a56709e01eadff2fd8304da09a8",
        "scriptpubkey_type": "v1_p2tr",
        "scriptpubkey_address": "bc1puu2l9l5pc0cytg6nhlttv9j7wg76gxjkwz0qr6kl7t7cxpx6px5qank294",
        "value": 2710
      },
      "scriptsig": "",
      "scriptsig_asm": "",
      "witness": [
        "580375247972bbca324ec5599a83012acbaceb6ced439e43cfc0951fcde2c3e53d2f5f5f24e2648ddaf9b139b544061b98fd0f2c3a8c5d93333dbb3342c1a9c283",
        "20be11f1d0580232188e877ef283eb5a1efd4e9e5290a2633605d666f59ad3fff2ac00630461746f6d03646d742ca16461726773a36b6d696e745f7469636b657263627463656e6f6e63651a0028d6b46474696d651a65f10eae68",
        "c1be11f1d0580232188e877ef283eb5a1efd4e9e5290a2633605d666f59ad3fff2"
      ],
      "is_coinbase": false,
      "sequence": 4294967293
    }
  ],
  "vout": [
    {
      "scriptpubkey": "51209d6dbbf9bad17d0135e06ea56ec304df985f9f9bc809fa52ae6789a0947e0300",
      "scriptpubkey_asm": "OP_PUSHNUM_1 OP_PUSHBYTES_32 9d6dbbf9bad17d0135e06ea56ec304df985f9f9bc809fa52ae6789a0947e0300",
      "scriptpubkey_type": "v1_p2tr",
      "scriptpubkey_address": "bc1pn4kmh7d6697szd0qd6jkascym7v9l8umeqyl554wv7y6p9r7qvqquzkndh",
      "value": 1000
    }
  ],
  "size": 289,
  "weight": 571,
  "fee": 1710,
  "status": {
    "confirmed": true,
    "block_height": 834460,
    "block_hash": "00000000000000000000484a79b643b2524bbce82e5d8a442013fa5b8905ed98",
    "block_time": 1710307468
  },
  "hex": "01000000000101c5b9e874c75b14eae3de181ba10387d4ef7fd77ed9ddb763de99f08ff34ccfe70000000000fdffffff01e8030000000000002251209d6dbbf9bad17d0135e06ea56ec304df985f9f9bc809fa52ae6789a0947e03000341580375247972bbca324ec5599a83012acbaceb6ced439e43cfc0951fcde2c3e53d2f5f5f24e2648ddaf9b139b544061b98fd0f2c3a8c5d93333dbb3342c1a9c2835b20be11f1d0580232188e877ef283eb5a1efd4e9e5290a2633605d666f59ad3fff2ac00630461746f6d03646d742ca16461726773a36b6d696e745f7469636b657263627463656e6f6e63651a0028d6b46474696d651a65f10eae6821c1be11f1d0580232188e877ef283eb5a1efd4e9e5290a2633605d666f59ad3fff200000000"
}