{
  "txid": "4b3e7110c0d2530df209fa6220cae437687de65c8e778fb4378f09f30606579f",
  "version": 2,
  "locktime": 0,
  "vin": [
    {
      "txid": "a720c881354c2a11046772ed888bfea53f146e935aff569fa89d40d5c2281637",
      "vout": 0,
      "prevout": {
        "scriptpubkey": "0014b93bff8497e8f0b75d4c1f993952368b1bd3f05f",
        "scriptpubkey_asm": "OP_0 OP_PUSHBYTES_20 b93bff8497e8f0b75d4c1f993952368b1bd3f05f",
        "scriptpubkey_type": "v0_p2wpkh",
        "scriptpubkey_address": "bc1qhyallpyharctwh2vr7vnj53k3vda8uzlae86zs",
        "value": 833400
      },
      "scriptsig": "",
      "scriptsig_asm": "",
      "witness": [
        "30450221008b126baaf4f67d1ef6dee0d9b1efb9097e7a2115e6537f248d4b0a5b3e61811e02202a7b5992958600d9a5e76bd0c28daaf7aed7f8d40481fda6038cc0f8e2aed28701",
        "0321fbff42c0678fb6550f08d2a104660ebd8fcc4bd327e53d5ca70b0ca86c8251"
      ],
      "is_coinbase": false,
      "sequence": 4294967295
    },
    {
      "txid": "444ac2e63f77ab93307caa0aba804138ca36c4b4dc67251170252fff2afa88a9",
      "vout": 1,
      "prevout": {
        "scriptpubkey": "0014e0145df166b20db925a3f7492889a5eb5ff6d363",
        "scriptpubkey_asm": "OP_0 OP_PUSHBYTES_20 e0145df166b20db925a3f7492889a5eb5ff6d363",
        "scriptpubkey_type": "v0_p2wpkh",
        "scriptpubkey_address": "bc1quq29mutxkgxmjfdr7ayj3zd9ad0ld5mrhh89l2",
        "value": 834915
      },
      "scriptsig": "",
      "scriptsig_asm": "",
      "witness": [
        "304402203ea9316b45f241e08da74c497019c05a2ecfca0ea062b453b2a004562e05c6880220389b27838d55988da44bb0fae94ec8eb633f5c36103104b78ef4cb26a3b7432b01",
        "029c73c9de8db31bd1e6c27b8e0f83f7caf385f4d83b37912b8aa8ab23e047d9cb"
      ],
      "is_coinbase": false,
      "sequence": 4294967295
    }
  ],
  "vout": [
    {
      "scriptpubkey": "001456d4827a3b5700933b10a04d8b8c016fd59ba2e2",
      "scriptpubkey_asm": "OP_0 OP_PUSHBYTES_20 56d4827a3b5700933b10a04d8b8c016fd59ba2e2",
      "scriptpubkey_type": "v0_p2wpkh",
      "scriptpubkey_address": "bc1q2m2gy73m2uqfxwcs5pxchrqpdl2ehghzt8m4wn",
      "value": 298262
    },
    {
      "scriptpubkey": "0014e0145df166b20db925a3f7492889a5eb5ff6d363",
      "scriptpubkey_asm": "OP_0 OP_PUSHBYTES_20 e0145df166b20db925a3f7492889a5eb5ff6d363",
      "scriptpubkey_type": "v0_p2wpkh",
      "scriptpubkey_address": "bc1quq29mutxkgxmjfdr7ayj3zd9ad0ld5mrhh89l2",
      "value": 1363574
    }
  ],
  "size": 371,
  "weight": 833,
  "fee": 6479,
  "status": {
    "confirmed": true,
    "block_height": 834638,
    "block_hash": "000000000000000000025f742c626208ac87e0b7d15054abb4a19ca2d735a54e",
    "block_time": 1710405325
  },
  "hex": "02000000000102371628c2d5409da89f56ff5a936e143fa5fe8b88ed726704112a4c3581c820a70000000000ffffffffa988fa2aff2f2570112567dcb4c436ca384180ba0aaa7c3093ab773fe6c24a440100000000ffffffff02168d04000000000016001456d4827a3b5700933b10a04d8b8c016fd59ba2e276ce140000000000160014e0145df166b20db925a3f7492889a5eb5ff6d363024830450221008b126baaf4f67d1ef6dee0d9b1efb9097e7a2115e6537f248d4b0a5b3e61811e02202a7b5992958600d9a5e76bd0c28daaf7aed7f8d40481fda6038cc0f8e2aed28701210321fbff42c0678fb6550f08d2a104660ebd8fcc4bd327e53d5ca70b0ca86c82510247304402203ea9316b45f241e08da74c497019c05a2ecfca0ea062b453b2a004562e05c6880220389b27838d55988da44bb0fae94ec8eb633f5c36103104b78ef4cb26a3b7432b0121029c73c9de8db31bd1e6c27b8e0f83f7caf385f4d83b37912b8aa8ab23e047d9cb00000000"
}