{
  "txid": "4b43da81457a610018e5253d2290cea1baca7d8d87764019e47bb1690fb5964f",
  "version": 2,
  "locktime": 0,
  "vin": [
    {
      "txid": "b13bb5512a4904c28a6b7957b88edf574e8cb23551fc1dcfe22d6b239df42cf4",
      "vout": 69,
      "prevout": {
        "scriptpubkey": "51208e0357071aea43c19801a659d6ca806b4e7780dc748d491175940c032279b21a",
        "scriptpubkey_asm": "OP_PUSHNUM_1 OP_PUSHBYTES_32 8e0357071aea43c19801a659d6ca806b4e7780dc748d491175940c032279b21a",
        "scriptpubkey_type": "v1_p2tr",
        "scriptpubkey_address": "bc1p3cp4wpc6afpurxqp5evadj5qdd880qxuwjx5jyt4jsxqxgnekgdqxykypa",
        "value": 2575
      },
      "scriptsig": "",
      "scriptsig_asm": "",
      "witness": [
        "e03f101b24c87e5c4827f0a16018064923c032323a4bf0c4838f329622a08dec3124a0f22572b75241f8d2e187e85c21dfa5aba3550285a75fd7fc64fe5de987",
        "205018dfa1d36fc0f7813a595e2372a81ab57d4b32b36c4ffc6c8c8b8fcb2efa7bac0063036f726401010a746578742f706c61696e00367b2270223a226272632d3230222c226f70223a226d696e74222c227469636b223a2261616161222c22616d74223a223130303030227d68",
        "c15018dfa1d36fc0f7813a595e2372a81ab57d4b32b36c4ffc6c8c8b8fcb2efa7b"
      ],
      "is_coinbase": false,
      "sequence": 4261412863
    }
  ],
  "vout": [
    {
      "scriptpubkey": "0014ce0b5aa0dac72397a8aa5a85d90a2cfb46f0f630",
      "scriptpubkey_asm": "OP_0 OP_PUSHBYTES_20 ce0b5aa0dac72397a8aa5a85d90a2cfb46f0f630",
      "scriptpubkey_type": "v0_p2wpkh",
      "scriptpubkey_address": "bc1qec944gx6cu3e0292t2zajz3vldr0pa3sh356d9",
      "value": 546
    }
  ],
  "size": 295,
  "weight": 541,
  "fee": 2029,
  "status": {
    "confirmed": true,
    "block_height": 834464,
    "block_hash": "0000000000000000000177a0869a911a2b65c9bdcd5a8bcb02b68f305bee848e",
    "block_time": 1710308296
  },
  "hex": "02000000000101f42cf49d236b2de2cf1dfc5135b28c4e57df8eb857796b8ac204492a51b53bb14500000000fffffffd012202000000000000160014ce0b5aa0dac72397a8aa5a85d90a2cfb46f0f6300340e03f101b24c87e5c4827f0a16018064923c032323a4bf0c4838f329622a08dec3124a0f22572b75241f8d2e187e85c21dfa5aba3550285a75fd7fc64fe5de9876e205018dfa1d36fc0f7813a595e2372a81ab57d4b32b36c4ffc6c8c8b8fcb2efa7bac0063036f726401010a746578742f706c61696e00367b2270223a226272632d3230222c226f70223a226d696e74222c227469636b223a2261616161222c22616d74223a223130303030227d6821c15018dfa1d36fc0f7813a595e2372a81ab57d4b32b36c4ffc6c8c8b8fcb2efa7b00000000"
}