{
  "txid": "4b4a5fd88c4bc90b87addec6f07175323721de086ada49070af69ac80d5e2e82",
  "version": 1,
  "locktime": 0,
  "vin": [
    {
      "txid": "f3b6b0f7df19757f22f1310d08aaca591ff071e7b029974375088684c23c3255",
      "vout": 1,
      "prevout": {
        "scriptpubkey": "0014914480451f737357e97088842c7edb08a4455c52",
        "scriptpubkey_asm": "OP_0 OP_PUSHBYTES_20 914480451f737357e97088842c7edb08a4455c52",
        "scriptpubkey_type": "v0_p2wpkh",
        "scriptpubkey_address": "bc1qj9zgq3glwde406ts3zzzclkmpzjy2hzjmre33f",
        "value": 768742
      },
      "scriptsig": "",
      "scriptsig_asm": "",
      "witness": [
        "30440220077c2f8c04f1f7b55d89af8e9307a14f60ede32d4724c4e5bf57d777c91257870220375b958c52267a1925acfcf87f38c02eb6a2f925d76aac2e6005d6f36ab102f201",
        "03580554ee05bc925fbf818d88dbd2dd2638a9f905fb946d330029c5379844e356"
      ],
      "is_coinbase": false,
      "sequence": 4294967295
    }
  ],
  "vout": [
    {
      "scriptpubkey": "76a91459a86968bc8924b0472075ffae9abafdadcbd88b88ac",
      "scriptpubkey_asm": "OP_DUP OP_HASH160 OP_PUSHBYTES_20 59a86968bc8924b0472075ffae9abafdadcbd88b OP_EQUALVERIFY OP_CHECKSIG",
      "scriptpubkey_type": "p2pkh",
      "scriptpubkey_address": "19B4tXYxy3dfhkoVnukobx1xtR75HFwvd4",
      "value": 68000
    },
    {
      "scriptpubkey": "0014b6793023697c646290c6a02feb1a8b90ce6ac1b9",
      "scriptpubkey_asm": "OP_0 OP_PUSHBYTES_20 b6793023697c646290c6a02feb1a8b90ce6ac1b9",
      "scriptpubkey_type": "v0_p2wpkh",
      "scriptpubkey_address": "bc1qkeunqgmf03jx9yxx5qh7kx5tjr8x4sdehd8far",
      "value": 697887
    }
  ],
  "size": 225,
  "weight": 573,
  "fee": 2855,
  "status": {
    "confirmed": true,
    "block_height": 834638,
    "block_hash": "000000000000000000025f742c626208ac87e0b7d15054abb4a19ca2d735a54e",
    "block_time": 1710405325
  },
  "hex": "0100000000010155323cc284860875439729b0e771f01f59caaa080d31f1227f7519dff7b0b6f30100000000ffffffff02a0090100000000001976a91459a86968bc8924b0472075ffae9abafdadcbd88b88ac1fa60a0000000000160014b6793023697c646290c6a02feb1a8b90ce6ac1b9024730440220077c2f8c04f1f7b55d89af8e9307a14f60ede32d4724c4e5bf57d777c91257870220375b958c52267a1925acfcf87f38c02eb6a2f925d76aac2e6005d6f36ab102f2012103580554ee05bc925fbf818d88dbd2dd2638a9f905fb946d330029c5379844e35600000000"
}