{
  "txid": "4b6ccdd0077738f002825ada3ff4c484c5a7c253bb1be1fd106b100d54fa994b",
  "version": 2,
  "locktime": 0,
  "vin": [
    {
      "txid": "aa63d04ba24a2009b744888777e8047ad6f4ef85fc21293fddc6853ba64901c1",
      "vout": 0,
      "prevout": {
        "scriptpubkey": "51201da68f261b717232131551825a8c033d2de0988e26f99d80c83fa9cdea8cbd25",
        "scriptpubkey_asm": "OP_PUSHNUM_1 OP_PUSHBYTES_32 1da68f261b717232131551825a8c033d2de0988e26f99d80c83fa9cdea8cbd25",
        "scriptpubkey_type": "v1_p2tr",
        "scriptpubkey_address": "bc1prkng7fsmw9eryyc42xp94rqr85k7pxywymuemqxg875um65vh5js3jjn0w",
        "value": 3164
      },
      "scriptsig": "",
      "scriptsig_asm": "",
      "witness": [
        "cb11b14d7cc0bffa9c3e7e314162bef8df9d8face4126bb10c093087746e5b1b162e1a7c18f6f1273aa65d39628f2eaa9e2f23588709752868d2609764c6ba6e",
        "2015313bc0c46c00b03c55e5b24dd02c6f043b84082f1a0e24418a2c2c41347e14ac0063036f7264010118746578742f706c61696e3b636861727365743d7574662d3800407b2270223a226272632d3230222c226f70223a227472616e73666572222c227469636b223a22f09d9b91222c22616d74223a223230303030303030303030227d68",
        "c015313bc0c46c00b03c55e5b24dd02c6f043b84082f1a0e24418a2c2c41347e14"
      ],
      "is_coinbase": false,
      "sequence": 4294967293
    }
  ],
  "vout": [
    {
      "scriptpubkey": "512064b6beedce20ee4ac99f3cb26ee7ad887cd0e446de5120868d18e285557d0b94",
      "scriptpubkey_asm": "OP_PUSHNUM_1 OP_PUSHBYTES_32 64b6beedce20ee4ac99f3cb26ee7ad887cd0e446de5120868d18e285557d0b94",
      "scriptpubkey_type": "v1_p2tr",
      "scriptpubkey_address": "bc1pvjmtamwwyrhy4jvl8jexaead3p7dpezxmegjpp5drr3g24tapw2q3l7rll",
      "value": 546
    }
  ],
  "size": 331,
  "weight": 613,
  "fee": 2618,
  "status": {
    "confirmed": true,
    "block_height": 834638,
    "block_hash": "000000000000000000025f742c626208ac87e0b7d15054abb4a19ca2d735a54e",
    "block_time": 1710405325
  },
  "hex": "02000000000101c10149a63b85c6dd3f2921fc85eff4d67a04e877878844b709204aa24bd063aa0000000000fdffffff01220200000000000022512064b6beedce20ee4ac99f3cb26ee7ad887cd0e446de5120868d18e285557d0b940340cb11b14d7cc0bffa9c3e7e314162bef8df9d8face4126bb10c093087746e5b1b162e1a7c18f6f1273aa65d39628f2eaa9e2f23588709752868d2609764c6ba6e862015313bc0c46c00b03c55e5b24dd02c6f043b84082f1a0e24418a2c2c41347e14ac0063036f7264010118746578742f706c61696e3b636861727365743d7574662d3800407b2270223a226272632d3230222c226f70223a227472616e73666572222c227469636b223a22f09d9b91222c22616d74223a223230303030303030303030227d6821c015313bc0c46c00b03c55e5b24dd02c6f043b84082f1a0e24418a2c2c41347e1400000000"
}