{
  "txid": "4b6e5e84069dd775e081aabb27853557f8f78e0d03bb14cf5861c512eaaaf95a",
  "version": 1,
  "locktime": 0,
  "vin": [
    {
      "txid": "58b510b8386770586535cfb771843819bc43b01289243fa32cc8642b43e84279",
      "vout": 11,
      "prevout": {
        "scriptpubkey": "0020e5c7c00d174631d2d1e365d6347b016fb87b6a0c08902d8e443989cb771fa7ec",
        "scriptpubkey_asm": "OP_0 OP_PUSHBYTES_32 e5c7c00d174631d2d1e365d6347b016fb87b6a0c08902d8e443989cb771fa7ec",
        "scriptpubkey_type": "v0_p2wsh",
        "scriptpubkey_address": "bc1quhruqrghgcca950rvhtrg7cpd7u8k6svpzgzmrjy8xyukacl5lkq0r8l2d",
        "value": 17993862568
      },
      "scriptsig": "",
      "scriptsig_asm": "",
      "witness": [
        "",
        "3045022100b485773c186e5a706521ac8de963e67e099d0225f3f6bef1b58e36f7b8c9554c02207e028802ddc357d8589bb117c8bb718bb374c9c41b9d161943ffd8e6470dd9c401",
        "30440220364f2b057df2b57664f54ea929a53fc2f12ac096ddd28d5519cfb45ed5741b360220629b277bedad0b86008bebe36d0cbe0fc4413113b24e8e5f3abec772e24bafac01",
        "5221026064e5b88c4fff7dba7dc0300db8dbfc1faff14f9ddbaacbcaa4f70124de0e93210331870350912385ca9a9d537e9cf9d80c6c9558e31d654f82f3164fdc5955e9642103c7b133a0f463a501d8c58c8eb8c7b6e9e4ddfb7d4a7bf6365a4732201569bc8353ae"
      ],
      "is_coinbase": false,
      "sequence": 4294967295,
      "inner_witnessscript_asm": "OP_PUSHNUM_2 OP_PUSHBYTES_33 026064e5b88c4fff7dba7dc0300db8dbfc1faff14f9ddbaacbcaa4f70124de0e93 OP_PUSHBYTES_33 0331870350912385ca9a9d537e9cf9d80c6c9558e31d654f82f3164fdc5955e964 OP_PUSHBYTES_33 03c7b133a0f463a501d8c58c8eb8c7b6e9e4ddfb7d4a7bf6365a4732201569bc83 OP_PUSHNUM_3 OP_CHECKMULTISIG"
    }
  ],
  "vout": [
    {
      "scriptpubkey": "a914a7595562532e5d68d71b06cdd756a7beb7069a7487",
      "scriptpubkey_asm": "OP_HASH160 OP_PUSHBYTES_20 a7595562532e5d68d71b06cdd756a7beb7069a74 OP_EQUAL",
      "scriptpubkey_type": "p2sh",
      "scriptpubkey_address": "3GwsnaiBQSyrpEDJGV5XVAjBLFDuAysSzS",
      "value": 1355562
    },
    {
      "scriptpubkey": "00141d39a73a30f1930d0e0447cb68369480fd2aaaa8",
      "scriptpubkey_asm": "OP_0 OP_PUSHBYTES_20 1d39a73a30f1930d0e0447cb68369480fd2aaaa8",
      "scriptpubkey_type": "v0_p2wpkh",
      "scriptpubkey_address": "bc1qr5u6ww3s7xfs6rsygl9ksd55sr7j424gs46nur",
      "value": 2612577
    },
    {
      "scriptpubkey": "5120e9f0f6f99bb1ea388d45f6b53e388065550e495430b5dc3dac106894598d6ec6",
      "scriptpubkey_asm": "OP_PUSHNUM_1 OP_PUSHBYTES_32 e9f0f6f99bb1ea388d45f6b53e388065550e495430b5dc3dac106894598d6ec6",
      "scriptpubkey_type": "v1_p2tr",
      "scriptpubkey_address": "bc1pa8c0d7vmk84r3r29766nuwyqv42suj25xz6ac0dvzp5fgkvddmrqwawrej",
      "value": 1080000
    },
    {
      "scriptpubkey": "a914d6e5a76d588812037c87f0577acf44829bba258687",
      "scriptpubkey_asm": "OP_HASH160 OP_PUSHBYTES_20 d6e5a76d588812037c87f0577acf44829bba2586 OP_EQUAL",
      "scriptpubkey_type": "p2sh",
      "scriptpubkey_address": "3MHHeEe4hiYYDFSHMJ1Qnnx4NM7v37mQvi",
      "value": 1646583
    },
    {
      "scriptpubkey": "0014c3cad3f014487ea2b5237c62d661264a9aec5195",
      "scriptpubkey_asm": "OP_0 OP_PUSHBYTES_20 c3cad3f014487ea2b5237c62d661264a9aec5195",
      "scriptpubkey_type": "v0_p2wpkh",
      "scriptpubkey_address": "bc1qc09d8uq5fpl29dfr033dvcfxf2dwc5v40w85e6",
      "value": 4595000
    },
    {
      "scriptpubkey": "76a914c53a09441be43dec5a312160467d7926d0dc0c6688ac",
      "scriptpubkey_asm": "OP_DUP OP_HASH160 OP_PUSHBYTES_20 c53a09441be43dec5a312160467d7926d0dc0c66 OP_EQUALVERIFY OP_CHECKSIG",
      "scriptpubkey_type": "p2pkh",
      "scriptpubkey_address": "1JyqeDY8SFsn9Y77iT6ZudKA1DGCqGu4pQ",
      "value": 50000000
    },
    {
      "scriptpubkey": "0014c18a3526f0df5e7cf3b172fd00791cfa63449a4b",
      "scriptpubkey_asm": "OP_0 OP_PUSHBYTES_20 c18a3526f0df5e7cf3b172fd00791cfa63449a4b",
      "scriptpubkey_type": "v0_p2wpkh",
      "scriptpubkey_address": "bc1qcx9r2fhsma08eua3wt7sq7gulf35fxjtvangwx",
      "value": 133415
    },
    {
      "scriptpubkey": "76a914d365e6b8a0e238f4257d94422d591930db93290788ac",
      "scriptpubkey_asm": "OP_DUP OP_HASH160 OP_PUSHBYTES_20 d365e6b8a0e238f4257d94422d591930db932907 OP_EQUALVERIFY OP_CHECKSIG",
      "scriptpubkey_type": "p2pkh",
      "scriptpubkey_address": "1LGmehaBnfMusd7ZEa7g4mYRpAXgmPXGc8",
      "value": 4292195
    },
    {
      "scriptpubkey": "5120d52dd194bac873badf0f581bcadc1bdecac7cb9169ee755533f5c266a59ee647",
      "scriptpubkey_asm": "OP_PUSHNUM_1 OP_PUSHBYTES_32 d52dd194bac873badf0f581bcadc1bdecac7cb9169ee755533f5c266a59ee647",
      "scriptpubkey_type": "v1_p2tr",
      "scriptpubkey_address": "bc1p65kar996epem4hc0tqdu4hqmmm9v0ju3d8h824fn7hpxdfv7uersx9wrzq",
      "value": 100000
    },
    {
      "scriptpubkey": "76a9147d5bfe6c70f3139c3b0b1462ac80f9c5440a6ab888ac",
      "scriptpubkey_asm": "OP_DUP OP_HASH160 OP_PUSHBYTES_20 7d5bfe6c70f3139c3b0b1462ac80f9c5440a6ab8 OP_EQUALVERIFY OP_CHECKSIG",
      "scriptpubkey_type": "p2pkh",
      "scriptpubkey_address": "1CRqfpjcsC9T6eFnUUASWuHMvyfH5UT9Jx",
      "value": 31901183
    },
    {
      "scriptpubkey": "76a91493a43cf315230d3c68692a8ffb6197771079d26a88ac",
      "scriptpubkey_asm": "OP_DUP OP_HASH160 OP_PUSHBYTES_20 93a43cf315230d3c68692a8ffb6197771079d26a OP_EQUALVERIFY OP_CHECKSIG",
      "scriptpubkey_type": "p2pkh",
      "scriptpubkey_address": "1ETf5fMKtAPrMbLhDCyLRcDKwUwGQ9yMVd",
      "value": 1012844650
    },
    {
      "scriptpubkey": "76a914643c13f16b10cd4c894333b69bc1f767b7bfa80e88ac",
      "scriptpubkey_asm": "OP_DUP OP_HASH160 OP_PUSHBYTES_20 643c13f16b10cd4c894333b69bc1f767b7bfa80e OP_EQUALVERIFY OP_CHECKSIG",
      "scriptpubkey_type": "p2pkh",
      "scriptpubkey_address": "1A8zYUCLdrLTEq7KBhiKcMctnAopo6bSyf",
      "value": 180000000
    },
    {
      "scriptpubkey": "76a9141a5d8493fb39df50d6fc16eead167c2190fa60ca88ac",
      "scriptpubkey_asm": "OP_DUP OP_HASH160 OP_PUSHBYTES_20 1a5d8493fb39df50d6fc16eead167c2190fa60ca OP_EQUALVERIFY OP_CHECKSIG",
      "scriptpubkey_type": "p2pkh",
      "scriptpubkey_address": "13QQbizbBUCQmMjdh39DRrZkbPr4HjVPA7",
      "value": 100005000
    },
    {
      "scriptpubkey": "00144405e98904318ffef2bbe8d373570637a6884c2d",
      "scriptpubkey_asm": "OP_0 OP_PUSHBYTES_20 4405e98904318ffef2bbe8d373570637a6884c2d",
      "scriptpubkey_type": "v0_p2wpkh",
      "scriptpubkey_address": "bc1qgsz7nzgyxx8lau4marfhx4cxx7ngsnpdkjtgmp",
      "value": 7702650
    },
    {
      "scriptpubkey": "76a9143c2378b1d43712dec0e578145f8798ed3437e44088ac",
      "scriptpubkey_asm": "OP_DUP OP_HASH160 OP_PUSHBYTES_20 3c2378b1d43712dec0e578145f8798ed3437e440 OP_EQUALVERIFY OP_CHECKSIG",
      "scriptpubkey_type": "p2pkh",
      "scriptpubkey_address": "16Uz37Q6TfvK2UFTgamn3dyRjnP2Wtf4p2",
      "value": 15999994000
    },
    {
      "scriptpubkey": "a914fc3d35f8ddaf67d5f400d5dd26cfce08fd229eeb87",
      "scriptpubkey_asm": "OP_HASH160 OP_PUSHBYTES_20 fc3d35f8ddaf67d5f400d5dd26cfce08fd229eeb OP_EQUAL",
      "scriptpubkey_type": "p2sh",
      "scriptpubkey_address": "3QgjXtTL76v5RHHX8sdu3GP3YZCVQAKBZx",
      "value": 490000
    },
    {
      "scriptpubkey": "0020e5c7c00d174631d2d1e365d6347b016fb87b6a0c08902d8e443989cb771fa7ec",
      "scriptpubkey_asm": "OP_0 OP_PUSHBYTES_32 e5c7c00d174631d2d1e365d6347b016fb87b6a0c08902d8e443989cb771fa7ec",
      "scriptpubkey_type": "v0_p2wsh",
      "scriptpubkey_address": "bc1quhruqrghgcca950rvhtrg7cpd7u8k6svpzgzmrjy8xyukacl5lkq0r8l2d",
      "value": 595028753
    }
  ],
  "size": 893,
  "weight": 2807,
  "fee": 81000,
  "status": {
    "confirmed": true,
    "block_height": 834638,
    "block_hash": "000000000000000000025f742c626208ac87e0b7d15054abb4a19ca2d735a54e",
    "block_time": 1710405325
  },
  "hex": "010000000001017942e8432b64c82ca33f248912b043bc19388471b7cf356558706738b810b5580b00000000ffffffff112aaf14000000000017a914a7595562532e5d68d71b06cdd756a7beb7069a748761dd2700000000001600141d39a73a30f1930d0e0447cb68369480fd2aaaa8c07a100000000000225120e9f0f6f99bb1ea388d45f6b53e388065550e495430b5dc3dac106894598d6ec6f71f19000000000017a914d6e5a76d588812037c87f0577acf44829bba258687381d460000000000160014c3cad3f014487ea2b5237c62d661264a9aec519580f0fa02000000001976a914c53a09441be43dec5a312160467d7926d0dc0c6688ac2709020000000000160014c18a3526f0df5e7cf3b172fd00791cfa63449a4b637e4100000000001976a914d365e6b8a0e238f4257d94422d591930db93290788aca086010000000000225120d52dd194bac873badf0f581bcadc1bdecac7cb9169ee755533f5c266a59ee647ffc5e601000000001976a9147d5bfe6c70f3139c3b0b1462ac80f9c5440a6ab888ac6ac85e3c000000001976a91493a43cf315230d3c68692a8ffb6197771079d26a88ac0095ba0a000000001976a914643c13f16b10cd4c894333b69bc1f767b7bfa80e88ac88f4f505000000001976a9141a5d8493fb39df50d6fc16eead167c2190fa60ca88ac7a887500000000001600144405e98904318ffef2bbe8d373570637a6884c2d9088acb9030000001976a9143c2378b1d43712dec0e578145f8798ed3437e44088ac107a07000000000017a914fc3d35f8ddaf67d5f400d5dd26cfce08fd229eeb87116b772300000000220020e5c7c00d174631d2d1e365d6347b016fb87b6a0c08902d8e443989cb771fa7ec0400483045022100b485773c186e5a706521ac8de963e67e099d0225f3f6bef1b58e36f7b8c9554c02207e028802ddc357d8589bb117c8bb718bb374c9c41b9d161943ffd8e6470dd9c4014730440220364f2b057df2b57664f54ea929a53fc2f12ac096ddd28d5519cfb45ed5741b360220629b277bedad0b86008bebe36d0cbe0fc4413113b24e8e5f3abec772e24bafac01695221026064e5b88c4fff7dba7dc0300db8dbfc1faff14f9ddbaacbcaa4f70124de0e93210331870350912385ca9a9d537e9cf9d80c6c9558e31d654f82f3164fdc5955e9642103c7b133a0f463a501d8c58c8eb8c7b6e9e4ddfb7d4a7bf6365a4732201569bc8353ae00000000"
}