{
  "txid": "4b88c8f2828749f49227e51300c3d008fd73d0201352c4602af41f57369267eb",
  "version": 2,
  "locktime": 834458,
  "vin": [
    {
      "txid": "6bf4e169724ea7d3086325acdc19b2aa366f3f63eb3235ee04f251401937c7fa",
      "vout": 0,
      "prevout": {
        "scriptpubkey": "5120249c3962d0af26731d07a2afefa2e2f3e2d9ac034eb1c4b7c092083ac8f8b70c",
        "scriptpubkey_asm": "OP_PUSHNUM_1 OP_PUSHBYTES_32 249c3962d0af26731d07a2afefa2e2f3e2d9ac034eb1c4b7c092083ac8f8b70c",
        "scriptpubkey_type": "v1_p2tr",
        "scriptpubkey_address": "bc1pyjwrjcks4un8x8g852h7lghz703dntqrf6cufd7qjgyr4j8ckuxqhze4ss",
        "value": 1137920
      },
      "scriptsig": "",
      "scriptsig_asm": "",
      "witness": [
        "6b2de188f9b9b607b5e29d8b9279868ad929e618ec2a90bf21f6df454cece10892158de0bd5963ab205ff9c0bcbeadfa3d8a58ca56ce974c2100608fa34df0d2"
      ],
      "is_coinbase": false,
      "sequence": 0
    }
  ],
  "vout": [
    {
      "scriptpubkey": "00146b15b705a779c0cacd1575d568c7bb1c19205875",
      "scriptpubkey_asm": "OP_0 OP_PUSHBYTES_20 6b15b705a779c0cacd1575d568c7bb1c19205875",
      "scriptpubkey_type": "v0_p2wpkh",
      "scriptpubkey_address": "bc1qdv2mwpd808qv4ng4wh2k33amrsvjqkr49f2jww",
      "value": 1136630
    }
  ],
  "size": 150,
  "weight": 396,
  "fee": 1290,
  "status": {
    "confirmed": true,
    "block_height": 834460,
    "block_hash": "00000000000000000000484a79b643b2524bbce82e5d8a442013fa5b8905ed98",
    "block_time": 1710307468
  },
  "hex": "02000000000101fac737194051f204ee3532eb633f6f36aab219dcac256308d3a74e7269e1f46b00000000000000000001f6571100000000001600146b15b705a779c0cacd1575d568c7bb1c1920587501406b2de188f9b9b607b5e29d8b9279868ad929e618ec2a90bf21f6df454cece10892158de0bd5963ab205ff9c0bcbeadfa3d8a58ca56ce974c2100608fa34df0d29abb0c00"
}