{
  "txid": "4b9a0a7685f4f86ab6dd1a837f082ee7522ec95752908a47245b19bfa040a60e",
  "version": 1,
  "locktime": 0,
  "vin": [
    {
      "txid": "2aab71e1be8b7167d7c1ec74d3c9d9c058f45ac8bc0e6083de7460f5deb7fa10",
      "vout": 0,
      "prevout": {
        "scriptpubkey": "76a91462b8fed1c40a8dd1f777be4b702e139e61e8090d88ac",
        "scriptpubkey_asm": "OP_DUP OP_HASH160 OP_PUSHBYTES_20 62b8fed1c40a8dd1f777be4b702e139e61e8090d OP_EQUALVERIFY OP_CHECKSIG",
        "scriptpubkey_type": "p2pkh",
        "scriptpubkey_address": "19zzqWFTknyG66fTySDTUbML7WM33XGkSc",
        "value": 911310
      },
      "scriptsig": "4730440220728ce843e1e23c90f20c52da3e62796be7d776dc0d37ece0a6da95b6f4001f31022068016b6914ba638fcdb6b2ef7d86922378361b33bbbfce321ece55554e103261012102876b2137101d6fdd65edd77678d8dcafa3fca0c787db628fcd18e9d2894a8f49",
      "scriptsig_asm": "OP_PUSHBYTES_71 30440220728ce843e1e23c90f20c52da3e62796be7d776dc0d37ece0a6da95b6f4001f31022068016b6914ba638fcdb6b2ef7d86922378361b33bbbfce321ece55554e10326101 OP_PUSHBYTES_33 02876b2137101d6fdd65edd77678d8dcafa3fca0c787db628fcd18e9d2894a8f49",
      "is_coinbase": false,
      "sequence": 4294967295
    }
  ],
  "vout": [
    {
      "scriptpubkey": "a914663b764c8ccab7100c7fc68045f2562e6707cac587",
      "scriptpubkey_asm": "OP_HASH160 OP_PUSHBYTES_20 663b764c8ccab7100c7fc68045f2562e6707cac5 OP_EQUAL",
      "scriptpubkey_type": "p2sh",
      "scriptpubkey_address": "3B1a5cLEGC7VvESckeLXSz9pK2wgNa4PuW",
      "value": 909238
    }
  ],
  "size": 189,
  "weight": 756,
  "fee": 2072,
  "status": {
    "confirmed": true,
    "block_height": 834464,
    "block_hash": "0000000000000000000177a0869a911a2b65c9bdcd5a8bcb02b68f305bee848e",
    "block_time": 1710308296
  },
  "hex": "010000000110fab7def56074de83600ebcc85af458c0d9c9d374ecc1d767718bbee171ab2a000000006a4730440220728ce843e1e23c90f20c52da3e62796be7d776dc0d37ece0a6da95b6f4001f31022068016b6914ba638fcdb6b2ef7d86922378361b33bbbfce321ece55554e103261012102876b2137101d6fdd65edd77678d8dcafa3fca0c787db628fcd18e9d2894a8f49ffffffff01b6df0d000000000017a914663b764c8ccab7100c7fc68045f2562e6707cac58700000000"
}