{
  "txid": "4ba80148b21f6314b3b322648ace69f967fecb3dbf66845c9d7cf7097c73a7bc",
  "version": 2,
  "locktime": 0,
  "vin": [
    {
      "txid": "4ee77778659dcfe8d7a4e15882fc6193f4f3d5f6607624e256337b44c2280af5",
      "vout": 69,
      "prevout": {
        "scriptpubkey": "51200d6b90ce15011de1e14d07f54407dfd44234fa22e5c5c0cd472e669ff87432cb",
        "scriptpubkey_asm": "OP_PUSHNUM_1 OP_PUSHBYTES_32 0d6b90ce15011de1e14d07f54407dfd44234fa22e5c5c0cd472e669ff87432cb",
        "scriptpubkey_type": "v1_p2tr",
        "scriptpubkey_address": "bc1pp44epns4qyw7rc2dql65gp7l63prf73zuhzupn289enfl7r5xt9sdc9mt3",
        "value": 2075
      },
      "scriptsig": "",
      "scriptsig_asm": "",
      "witness": [
        "0b86c3575b732ab8a7b65a8a360a4264e333edcacad242bdf7ce4cc5a1e31ef29a99c51cce93fd2d71ac9d1b9d9034f59182d90989dbee890f1b44b23364c086",
        "209b6d05435fe3e7441730ff7aa3ceb64dafb3ab9347cc29507c49f2cb42005029ac0063036f7264010118746578742f706c61696e3b636861727365743d7574662d3800357b2270223a224252432d313030222c226f70223a226d696e74222c227469636b223a22696e73222c22616d74223a2231303030227d68",
        "c1c50eac15d7d7889f5ad84f80015e8a209129aeea937c37fa4b8bc0f9be289730"
      ],
      "is_coinbase": false,
      "sequence": 4294967295
    }
  ],
  "vout": [
    {
      "scriptpubkey": "00143e2325412b554cacdd163a93a42204c4707f8851",
      "scriptpubkey_asm": "OP_0 OP_PUSHBYTES_20 3e2325412b554cacdd163a93a42204c4707f8851",
      "scriptpubkey_type": "v0_p2wpkh",
      "scriptpubkey_address": "bc1q8c3j2sft24x2ehgk82f6ggsyc3c8lzz3yw9wsu",
      "value": 546
    }
  ],
  "size": 308,
  "weight": 554,
  "fee": 1529,
  "status": {
    "confirmed": true,
    "block_height": 834464,
    "block_hash": "0000000000000000000177a0869a911a2b65c9bdcd5a8bcb02b68f305bee848e",
    "block_time": 1710308296
  },
  "hex": "02000000000101f50a28c2447b3356e2247660f6d5f3f49361fc8258e1a4d7e8cf9d657877e74e4500000000ffffffff0122020000000000001600143e2325412b554cacdd163a93a42204c4707f885103400b86c3575b732ab8a7b65a8a360a4264e333edcacad242bdf7ce4cc5a1e31ef29a99c51cce93fd2d71ac9d1b9d9034f59182d90989dbee890f1b44b23364c0867b209b6d05435fe3e7441730ff7aa3ceb64dafb3ab9347cc29507c49f2cb42005029ac0063036f7264010118746578742f706c61696e3b636861727365743d7574662d3800357b2270223a224252432d313030222c226f70223a226d696e74222c227469636b223a22696e73222c22616d74223a2231303030227d6821c1c50eac15d7d7889f5ad84f80015e8a209129aeea937c37fa4b8bc0f9be28973000000000"
}