{
  "txid": "4bb5795219999b07321fec1f12a65b2ae2c4ef5b3aab44573d7aa766c8adab27",
  "version": 1,
  "locktime": 0,
  "vin": [
    {
      "txid": "6375af38dc645bfa16606c03a881383d70bd1ede0df511a0f9fab7b0273d30c0",
      "vout": 3,
      "prevout": {
        "scriptpubkey": "5120ab0735b9b9a1202ff8f27f7a2cfd67826fcc0b5120c6b6c51998384d2c64beb4",
        "scriptpubkey_asm": "OP_PUSHNUM_1 OP_PUSHBYTES_32 ab0735b9b9a1202ff8f27f7a2cfd67826fcc0b5120c6b6c51998384d2c64beb4",
        "scriptpubkey_type": "v1_p2tr",
        "scriptpubkey_address": "bc1p4vrntwde5yszl78j0aazelt8sfhucz63yrrtd3genquy6tryh66q9s9tzr",
        "value": 2716
      },
      "scriptsig": "",
      "scriptsig_asm": "",
      "witness": [
        "700a51e96c93a54bfcd4fce356403ec9fc80210e6fe80ee3cdc621c0accd01bb766cca6a1e736768af2965e5f691d7f590a00454124cf5dda302693bda8986f7",
        "20d35f345da4f7a26849a1156c0e5994e31f57348fe1c2c899d6261934b61db13eac0063036f72640101116d6f64656c2f676c74662d62696e617279004b2f636f6e74656e742f37633439306234383938343361346533636639613734613661356432646231386330346561376163353566383832316436353061396266643430656562663137693068",
        "c1d35f345da4f7a26849a1156c0e5994e31f57348fe1c2c899d6261934b61db13e"
      ],
      "is_coinbase": false,
      "sequence": 4294967293
    }
  ],
  "vout": [
    {
      "scriptpubkey": "5120f1768c246d76ff8a45c86e479459158c70d9b33887ba83b7b633606f1b0bb536",
      "scriptpubkey_asm": "OP_PUSHNUM_1 OP_PUSHBYTES_32 f1768c246d76ff8a45c86e479459158c70d9b33887ba83b7b633606f1b0bb536",
      "scriptpubkey_type": "v1_p2tr",
      "scriptpubkey_address": "bc1p79mgcfrdwmlc53wgderegkg433cdnvecs7ag8dakxdsx7xctk5mqnszxzv",
      "value": 546
    }
  ],
  "size": 335,
  "weight": 617,
  "fee": 2170,
  "status": {
    "confirmed": true,
    "block_height": 834460,
    "block_hash": "00000000000000000000484a79b643b2524bbce82e5d8a442013fa5b8905ed98",
    "block_time": 1710307468
  },
  "hex": "01000000000101c0303d27b0b7faf9a011f50dde1ebd703d3881a8036c6016fa5b64dc38af75630300000000fdffffff012202000000000000225120f1768c246d76ff8a45c86e479459158c70d9b33887ba83b7b633606f1b0bb5360340700a51e96c93a54bfcd4fce356403ec9fc80210e6fe80ee3cdc621c0accd01bb766cca6a1e736768af2965e5f691d7f590a00454124cf5dda302693bda8986f78a20d35f345da4f7a26849a1156c0e5994e31f57348fe1c2c899d6261934b61db13eac0063036f72640101116d6f64656c2f676c74662d62696e617279004b2f636f6e74656e742f3763343930623438393834336134653363663961373461366135643264623138633034656137616335356638383231643635306139626664343065656266313769306821c1d35f345da4f7a26849a1156c0e5994e31f57348fe1c2c899d6261934b61db13e00000000"
}