{
  "txid": "4bba76fba3e34ef57702888467eb2ec58968d3ad533ec5464d534eaaf3198644",
  "version": 2,
  "locktime": 832833,
  "vin": [
    {
      "txid": "384e3d84c43f538e3f28b747f3386d7e4e3591ac5e94746f0857d6566d885bf1",
      "vout": 0,
      "prevout": {
        "scriptpubkey": "00140fd90e23ddcc2a03a1aae28bff433fe357f864ac",
        "scriptpubkey_asm": "OP_0 OP_PUSHBYTES_20 0fd90e23ddcc2a03a1aae28bff433fe357f864ac",
        "scriptpubkey_type": "v0_p2wpkh",
        "scriptpubkey_address": "bc1qplvsug7aes4q8gd2u29l7seludtlse9vmcjjfr",
        "value": 16990
      },
      "scriptsig": "",
      "scriptsig_asm": "",
      "witness": [
        "3044022027dee2ba3a0c098c3e0d1f591789f3f0fd11c3919b09259dd1b5dde92df0444e022068cc00203e44cb8824f825d0df05f17eb6891b56462046e97df3410b7234920b01",
        "037cdd01e08fbaf2a7f77dd72223861d7b852b5126cec2ea77f7858d7db36dcf82"
      ],
      "is_coinbase": false,
      "sequence": 4294967293
    }
  ],
  "vout": [
    {
      "scriptpubkey": "001491c36e7fdd50f0d333d2a837f7ed64f208de3535",
      "scriptpubkey_asm": "OP_0 OP_PUSHBYTES_20 91c36e7fdd50f0d333d2a837f7ed64f208de3535",
      "scriptpubkey_type": "v0_p2wpkh",
      "scriptpubkey_address": "bc1qj8pkul7a2rcdxv7j4qml0mty7gydudf45wcr6l",
      "value": 15990
    }
  ],
  "size": 191,
  "weight": 437,
  "fee": 1000,
  "status": {
    "confirmed": true,
    "block_height": 834464,
    "block_hash": "0000000000000000000177a0869a911a2b65c9bdcd5a8bcb02b68f305bee848e",
    "block_time": 1710308296
  },
  "hex": "02000000000101f15b886d56d657086f74945eac91354e7e6d38f347b7283f8e533fc4843d4e380000000000fdffffff01763e00000000000016001491c36e7fdd50f0d333d2a837f7ed64f208de353502473044022027dee2ba3a0c098c3e0d1f591789f3f0fd11c3919b09259dd1b5dde92df0444e022068cc00203e44cb8824f825d0df05f17eb6891b56462046e97df3410b7234920b0121037cdd01e08fbaf2a7f77dd72223861d7b852b5126cec2ea77f7858d7db36dcf8241b50c00"
}