{
  "txid": "4bc6f49f40314e2f88ede985192da44b350be2b64d2e43c24e2e3cda706624a6",
  "version": 2,
  "locktime": 0,
  "vin": [
    {
      "txid": "4ee77778659dcfe8d7a4e15882fc6193f4f3d5f6607624e256337b44c2280af5",
      "vout": 2,
      "prevout": {
        "scriptpubkey": "5120d9b1af2037bef4635297c60b790b5b36c59668bfaa8dd7bf58b1ddb89e54b94a",
        "scriptpubkey_asm": "OP_PUSHNUM_1 OP_PUSHBYTES_32 d9b1af2037bef4635297c60b790b5b36c59668bfaa8dd7bf58b1ddb89e54b94a",
        "scriptpubkey_type": "v1_p2tr",
        "scriptpubkey_address": "bc1pmxc67gphhm6xx55hcc9hjz6mxmzev69l42xa006ck8wm38j5h99qqsjpmy",
        "value": 2075
      },
      "scriptsig": "",
      "scriptsig_asm": "",
      "witness": [
        "c1150811dc346733dbda6e03ca19d4466be21c692ea3c8e39b07bb3ad0599592374a1b366022f91d8f22dc06978031a7df369a2f96b80351de076f23ac3d1ed1",
        "205e94d161c2951be24414a1a014f3b801a58b3d74dda8da6c6ed2f6e0838cf325ac0063036f7264010118746578742f706c61696e3b636861727365743d7574662d3800357b2270223a224252432d313030222c226f70223a226d696e74222c227469636b223a22696e73222c22616d74223a2231303030227d68",
        "c1c50eac15d7d7889f5ad84f80015e8a209129aeea937c37fa4b8bc0f9be289730"
      ],
      "is_coinbase": false,
      "sequence": 4294967295
    }
  ],
  "vout": [
    {
      "scriptpubkey": "00143e2325412b554cacdd163a93a42204c4707f8851",
      "scriptpubkey_asm": "OP_0 OP_PUSHBYTES_20 3e2325412b554cacdd163a93a42204c4707f8851",
      "scriptpubkey_type": "v0_p2wpkh",
      "scriptpubkey_address": "bc1q8c3j2sft24x2ehgk82f6ggsyc3c8lzz3yw9wsu",
      "value": 546
    }
  ],
  "size": 308,
  "weight": 554,
  "fee": 1529,
  "status": {
    "confirmed": true,
    "block_height": 834464,
    "block_hash": "0000000000000000000177a0869a911a2b65c9bdcd5a8bcb02b68f305bee848e",
    "block_time": 1710308296
  },
  "hex": "02000000000101f50a28c2447b3356e2247660f6d5f3f49361fc8258e1a4d7e8cf9d657877e74e0200000000ffffffff0122020000000000001600143e2325412b554cacdd163a93a42204c4707f88510340c1150811dc346733dbda6e03ca19d4466be21c692ea3c8e39b07bb3ad0599592374a1b366022f91d8f22dc06978031a7df369a2f96b80351de076f23ac3d1ed17b205e94d161c2951be24414a1a014f3b801a58b3d74dda8da6c6ed2f6e0838cf325ac0063036f7264010118746578742f706c61696e3b636861727365743d7574662d3800357b2270223a224252432d313030222c226f70223a226d696e74222c227469636b223a22696e73222c22616d74223a2231303030227d6821c1c50eac15d7d7889f5ad84f80015e8a209129aeea937c37fa4b8bc0f9be28973000000000"
}