{
  "txid": "4bc8a6bbd9f01b7c20fb59adc81352ff087ff7dbc52efb3cc55f188edebf47d8",
  "version": 2,
  "locktime": 834637,
  "vin": [
    {
      "txid": "c3102ee4267e930ca38cc9a266e22aa8637d74bb08af30beb38f324fa9a43bc9",
      "vout": 1,
      "prevout": {
        "scriptpubkey": "00145f11f344700001a55ac5854640f07e59e548b580",
        "scriptpubkey_asm": "OP_0 OP_PUSHBYTES_20 5f11f344700001a55ac5854640f07e59e548b580",
        "scriptpubkey_type": "v0_p2wpkh",
        "scriptpubkey_address": "bc1qtuglx3rsqqq62kk9s4rypur7t8j53dvq06j2zp",
        "value": 262650548
      },
      "scriptsig": "",
      "scriptsig_asm": "",
      "witness": [
        "304402201d13f1f8aab55c462b9c3e0666ee38cb77b39ac2b03500c3dd134d8aae7480a602206dcc0f8461d9f6c96864944d62fd9bb5c0b9f79025343666c1b7ee83df73e74901",
        "03ba0a06b8e54f763bfec2c818e13b818188e82230c8fd6b9f1626121a15c67ac3"
      ],
      "is_coinbase": false,
      "sequence": 4294967294
    }
  ],
  "vout": [
    {
      "scriptpubkey": "a914b584b38fbdd9ed322bbe0cf56c71b9b4103ca96a87",
      "scriptpubkey_asm": "OP_HASH160 OP_PUSHBYTES_20 b584b38fbdd9ed322bbe0cf56c71b9b4103ca96a OP_EQUAL",
      "scriptpubkey_type": "p2sh",
      "scriptpubkey_address": "3JEoCXAGRyDcmza6visVfHAspax6r2KHWP",
      "value": 2753100
    },
    {
      "scriptpubkey": "00145017ec1e0f2e6fd64561aa072931bcd261797559",
      "scriptpubkey_asm": "OP_0 OP_PUSHBYTES_20 5017ec1e0f2e6fd64561aa072931bcd261797559",
      "scriptpubkey_type": "v0_p2wpkh",
      "scriptpubkey_address": "bc1q2qt7c8s09ehav3tp4grjjvdu6fshja2e49rqzq",
      "value": 259893968
    }
  ],
  "size": 223,
  "weight": 565,
  "fee": 3480,
  "status": {
    "confirmed": true,
    "block_height": 834638,
    "block_hash": "000000000000000000025f742c626208ac87e0b7d15054abb4a19ca2d735a54e",
    "block_time": 1710405325
  },
  "hex": "02000000000101c93ba4a94f328fb3be30af08bb747d63a82ae266a2c98ca30c937e26e42e10c30100000000feffffff024c022a000000000017a914b584b38fbdd9ed322bbe0cf56c71b9b4103ca96a87d0aa7d0f000000001600145017ec1e0f2e6fd64561aa072931bcd2617975590247304402201d13f1f8aab55c462b9c3e0666ee38cb77b39ac2b03500c3dd134d8aae7480a602206dcc0f8461d9f6c96864944d62fd9bb5c0b9f79025343666c1b7ee83df73e749012103ba0a06b8e54f763bfec2c818e13b818188e82230c8fd6b9f1626121a15c67ac34dbc0c00"
}