{
  "txid": "4bc8885e02aae8662c1717a198a5b5e567ec210c963d7e773b2e0d0d38d252dd",
  "version": 2,
  "locktime": 834637,
  "vin": [
    {
      "txid": "dbc5c7b9ccfd0fd570849951fa7a956a8fa3f886a0fa24a88afc66a7acb67b59",
      "vout": 0,
      "prevout": {
        "scriptpubkey": "5120889012cea7711e08e094e312dfb85c0ec4fd4b4593b455f39a63e749de4bb814",
        "scriptpubkey_asm": "OP_PUSHNUM_1 OP_PUSHBYTES_32 889012cea7711e08e094e312dfb85c0ec4fd4b4593b455f39a63e749de4bb814",
        "scriptpubkey_type": "v1_p2tr",
        "scriptpubkey_address": "bc1p3zgp9n48wy0q3cy5uvfdlwzupmz06j69jw69tuu6v0n5nhjthq2qvgzyzr",
        "value": 18229981
      },
      "scriptsig": "",
      "scriptsig_asm": "",
      "witness": [
        "c317e937fcb2737c55f17ade6c689ae2a24765839a75bfacb11871d23b0ff42b85f97ad335b25e437635ab017f8017fd23e97d20edfd53ba5452a5117023dfd6"
      ],
      "is_coinbase": false,
      "sequence": 4294967294
    }
  ],
  "vout": [
    {
      "scriptpubkey": "512040ae294f025451e57c3e4de6e3e48fc4656c81ea3ea41b974485709e27f1c028",
      "scriptpubkey_asm": "OP_PUSHNUM_1 OP_PUSHBYTES_32 40ae294f025451e57c3e4de6e3e48fc4656c81ea3ea41b974485709e27f1c028",
      "scriptpubkey_type": "v1_p2tr",
      "scriptpubkey_address": "bc1pgzhzjncz23g72lp7fhnw8ey0c3jkeq0286jph96ys4cfufl3cq5qryemkd",
      "value": 1986766
    },
    {
      "scriptpubkey": "5120f78efe8fb4e9cfdbf9b1b222deec6b711204409512b4afd95cecc2f7667f9ff5",
      "scriptpubkey_asm": "OP_PUSHNUM_1 OP_PUSHBYTES_32 f78efe8fb4e9cfdbf9b1b222deec6b711204409512b4afd95cecc2f7667f9ff5",
      "scriptpubkey_type": "v1_p2tr",
      "scriptpubkey_address": "bc1p7780ara5a88ah7d3kg3damrtwyfqgsy4z262lk2uanp0wenlnl6s5xuky4",
      "value": 16239960
    }
  ],
  "size": 205,
  "weight": 616,
  "fee": 3255,
  "status": {
    "confirmed": true,
    "block_height": 834638,
    "block_hash": "000000000000000000025f742c626208ac87e0b7d15054abb4a19ca2d735a54e",
    "block_time": 1710405325
  },
  "hex": "02000000000101597bb6aca766fc8aa824faa086f8a38f6a957afa51998470d50ffdccb9c7c5db0000000000feffffff02ce501e000000000022512040ae294f025451e57c3e4de6e3e48fc4656c81ea3ea41b974485709e27f1c02858cdf70000000000225120f78efe8fb4e9cfdbf9b1b222deec6b711204409512b4afd95cecc2f7667f9ff50140c317e937fcb2737c55f17ade6c689ae2a24765839a75bfacb11871d23b0ff42b85f97ad335b25e437635ab017f8017fd23e97d20edfd53ba5452a5117023dfd64dbc0c00"
}