{
  "txid": "4bf4b1814d5bf55ac3f0a36d2acd116631ace9241267da7101f07ddb8504ffd4",
  "version": 2,
  "locktime": 834637,
  "vin": [
    {
      "txid": "49763dfa14cf504b4abe60a153b091211a4ce97107e4ee9486ea46ffb93ca3a6",
      "vout": 3,
      "prevout": {
        "scriptpubkey": "0014a3a9f530fc9b31d4dc119b9d2d3227a6325e29b4",
        "scriptpubkey_asm": "OP_0 OP_PUSHBYTES_20 a3a9f530fc9b31d4dc119b9d2d3227a6325e29b4",
        "scriptpubkey_type": "v0_p2wpkh",
        "scriptpubkey_address": "bc1q5w5l2v8unvcafhq3nwwj6v385ce9u2d5xssxly",
        "value": 110800
      },
      "scriptsig": "",
      "scriptsig_asm": "",
      "witness": [
        "304402201c02cdb6c53cd1ac5b8e95d595da365b05976d7ba4ebdd3920313965aac02d93022067152e598fa8f60e938c29f4137108c00d79872fbef02cf99baca4bc4b4c5bf701",
        "02edb44c9659577e7fa0025712694afd24449bf45a1d7ee91178609a6bafa72af6"
      ],
      "is_coinbase": false,
      "sequence": 4294967293
    }
  ],
  "vout": [
    {
      "scriptpubkey": "0014ff4c4dd9d766ab79ef556e83bb101f636ad109c7",
      "scriptpubkey_asm": "OP_0 OP_PUSHBYTES_20 ff4c4dd9d766ab79ef556e83bb101f636ad109c7",
      "scriptpubkey_type": "v0_p2wpkh",
      "scriptpubkey_address": "bc1qlaxymkwhv64hnm64d6pmkyqlvd4dzzw8kj3rjf",
      "value": 43000
    },
    {
      "scriptpubkey": "00147d88f0df8a1f7f52d788293bac87310409f29a91",
      "scriptpubkey_asm": "OP_0 OP_PUSHBYTES_20 7d88f0df8a1f7f52d788293bac87310409f29a91",
      "scriptpubkey_type": "v0_p2wpkh",
      "scriptpubkey_address": "bc1q0ky0phu2ral494ug9ya6epe3qsyl9x53umvg78",
      "value": 64600
    }
  ],
  "size": 222,
  "weight": 561,
  "fee": 3200,
  "status": {
    "confirmed": true,
    "block_height": 834638,
    "block_hash": "000000000000000000025f742c626208ac87e0b7d15054abb4a19ca2d735a54e",
    "block_time": 1710405325
  },
  "hex": "02000000000101a6a33cb9ff46ea8694eee40771e94c1a2191b053a160be4a4b50cf14fa3d76490300000000fdffffff02f8a7000000000000160014ff4c4dd9d766ab79ef556e83bb101f636ad109c758fc0000000000001600147d88f0df8a1f7f52d788293bac87310409f29a910247304402201c02cdb6c53cd1ac5b8e95d595da365b05976d7ba4ebdd3920313965aac02d93022067152e598fa8f60e938c29f4137108c00d79872fbef02cf99baca4bc4b4c5bf7012102edb44c9659577e7fa0025712694afd24449bf45a1d7ee91178609a6bafa72af64dbc0c00"
}