{
  "txid": "4bf775e63669aa919b49cea40588033c1b83520cf0b417580b102fc58052f1fc",
  "version": 1,
  "locktime": 0,
  "vin": [
    {
      "txid": "f3a2d4e5bf631a2faf8b212496fcdbbcd531a172b5737d398fb7efe5dd698b7e",
      "vout": 15,
      "prevout": {
        "scriptpubkey": "00149c56aeaa089ac1f9e60522ba04251b50f0ddd4c0",
        "scriptpubkey_asm": "OP_0 OP_PUSHBYTES_20 9c56aeaa089ac1f9e60522ba04251b50f0ddd4c0",
        "scriptpubkey_type": "v0_p2wpkh",
        "scriptpubkey_address": "bc1qn3t2a2sgntqlnes9y2aqgfgm2rcdm4xqgkpyqu",
        "value": 712925
      },
      "scriptsig": "",
      "scriptsig_asm": "",
      "witness": [
        "3045022100fa7b514c93eb30a87c11969f2f1635a3296298caa74bdb63cb5a88386563b01d022062c0f41b00e81524daf0cbc61020b44f65a7da001b7708da1c2ade80c933e4d501",
        "0241f034b5825a654d1f82b97573b0271b9100235ee8955431c4df2bd6f3b29a51"
      ],
      "is_coinbase": false,
      "sequence": 4294967295
    }
  ],
  "vout": [
    {
      "scriptpubkey": "0014eeafa0f07b15f3e87b6eef6f752aa940b8f07d0e",
      "scriptpubkey_asm": "OP_0 OP_PUSHBYTES_20 eeafa0f07b15f3e87b6eef6f752aa940b8f07d0e",
      "scriptpubkey_type": "v0_p2wpkh",
      "scriptpubkey_address": "bc1qa6h6purmzhe7s7mwaahh224fgzu0qlgwpd3ar3",
      "value": 709955
    }
  ],
  "size": 192,
  "weight": 438,
  "fee": 2970,
  "status": {
    "confirmed": true,
    "block_height": 834638,
    "block_hash": "000000000000000000025f742c626208ac87e0b7d15054abb4a19ca2d735a54e",
    "block_time": 1710405325
  },
  "hex": "010000000001017e8b69dde5efb78f397d73b572a131d5bcdbfc9624218baf2f1a63bfe5d4a2f30f00000000ffffffff0143d50a0000000000160014eeafa0f07b15f3e87b6eef6f752aa940b8f07d0e02483045022100fa7b514c93eb30a87c11969f2f1635a3296298caa74bdb63cb5a88386563b01d022062c0f41b00e81524daf0cbc61020b44f65a7da001b7708da1c2ade80c933e4d501210241f034b5825a654d1f82b97573b0271b9100235ee8955431c4df2bd6f3b29a5100000000"
}