{
  "txid": "4c038564c8550e7986b86090540f0b3ff7f5e591730d57c15bee703bf82bb934",
  "version": 2,
  "locktime": 0,
  "vin": [
    {
      "txid": "36ac91b20090416f157e34ef41ed682878475f64bfefd7245de5fa38ffb4426a",
      "vout": 3,
      "prevout": {
        "scriptpubkey": "0014de464029b6cf761f5641ca0000dc301ece855b6e",
        "scriptpubkey_asm": "OP_0 OP_PUSHBYTES_20 de464029b6cf761f5641ca0000dc301ece855b6e",
        "scriptpubkey_type": "v0_p2wpkh",
        "scriptpubkey_address": "bc1qmeryq2dkeamp74jpegqqphpsrm8g2kmwr36kjs",
        "value": 547
      },
      "scriptsig": "",
      "scriptsig_asm": "",
      "witness": [
        "3044022054cb5cd0f151185e6bb6efedaad29854f204b075656d3ee308565f71402ce1200220560c2540f66a61d471aa3278a3ba785358941dcf65b2277583b4450578412c1c81",
        "02a644b772463289eaae8647a07c13df6aea64bc26214cd647e8a62aa16b39e716"
      ],
      "is_coinbase": false,
      "sequence": 4294967293
    },
    {
      "txid": "5e92e851331bed72c2f071622f935b13bc546052ab6bf1d93c4bedb1874e4ef2",
      "vout": 1,
      "prevout": {
        "scriptpubkey": "00148f89d450ccb4b6314aca57dda2a8bef77df0d42d",
        "scriptpubkey_asm": "OP_0 OP_PUSHBYTES_20 8f89d450ccb4b6314aca57dda2a8bef77df0d42d",
        "scriptpubkey_type": "v0_p2wpkh",
        "scriptpubkey_address": "bc1q37yag5xvkjmrzjk22lw692977a7lp4pdmwgxgv",
        "value": 2420554
      },
      "scriptsig": "",
      "scriptsig_asm": "",
      "witness": [
        "30440220520bd04b18bf88e90054b3f3cf7e8e2d1ff1d553a0ee886449571c355ededa6902207f5ecad662e10606aa60cd63b3426b3011b0fb15df7609bed0cc7a914f857b0601",
        "0240866d2855fb2184f464e0e9d1cb1fce618682d3abd455b2f774efe5975e56ab"
      ],
      "is_coinbase": false,
      "sequence": 4294967293
    }
  ],
  "vout": [
    {
      "scriptpubkey": "0014057e6b9ff3d8c68fd386f9c71899247e1bb83502",
      "scriptpubkey_asm": "OP_0 OP_PUSHBYTES_20 057e6b9ff3d8c68fd386f9c71899247e1bb83502",
      "scriptpubkey_type": "v0_p2wpkh",
      "scriptpubkey_address": "bc1qq4lxh8lnmrrgl5uxl8r33xfy0cdmsdgzhhpf7j",
      "value": 2403120
    },
    {
      "scriptpubkey": "5121023148f4c2a6900aecde63e91bac9d5d9611d5ab972f68521c052b331fc1f452b421028a823aaf6bc7a7ff3bc392a80d704cdd330f747fa84329e848c75bc69d4b602c2102222222222222222222222222222222222222222222222222222222222222222253ae",
      "scriptpubkey_asm": "OP_PUSHNUM_1 OP_PUSHBYTES_33 023148f4c2a6900aecde63e91bac9d5d9611d5ab972f68521c052b331fc1f452b4 OP_PUSHBYTES_33 028a823aaf6bc7a7ff3bc392a80d704cdd330f747fa84329e848c75bc69d4b602c OP_PUSHBYTES_33 022222222222222222222222222222222222222222222222222222222222222222 OP_PUSHNUM_3 OP_CHECKMULTISIG",
      "scriptpubkey_type": "unknown",
      "value": 796
    },
    {
      "scriptpubkey": "51210242f157d3c5c57510d4112b479e521c364fd21b8f2d9fbffd25a64dd006cfc79d210223c6be3bfa9ee5d877b67b9682a2694d38a7547a06a3c77798735b6dec451b022102020202020202020202020202020202020202020202020202020202020202020253ae",
      "scriptpubkey_asm": "OP_PUSHNUM_1 OP_PUSHBYTES_33 0242f157d3c5c57510d4112b479e521c364fd21b8f2d9fbffd25a64dd006cfc79d OP_PUSHBYTES_33 0223c6be3bfa9ee5d877b67b9682a2694d38a7547a06a3c77798735b6dec451b02 OP_PUSHBYTES_33 020202020202020202020202020202020202020202020202020202020202020202 OP_PUSHNUM_3 OP_CHECKMULTISIG",
      "scriptpubkey_type": "unknown",
      "value": 796
    },
    {
      "scriptpubkey": "0014de464029b6cf761f5641ca0000dc301ece855b6e",
      "scriptpubkey_asm": "OP_0 OP_PUSHBYTES_20 de464029b6cf761f5641ca0000dc301ece855b6e",
      "scriptpubkey_type": "v0_p2wpkh",
      "scriptpubkey_address": "bc1qmeryq2dkeamp74jpegqqphpsrm8g2kmwr36kjs",
      "value": 547
    }
  ],
  "size": 598,
  "weight": 1744,
  "fee": 15842,
  "status": {
    "confirmed": true,
    "block_height": 834638,
    "block_hash": "000000000000000000025f742c626208ac87e0b7d15054abb4a19ca2d735a54e",
    "block_time": 1710405325
  },
  "hex": "020000000001026a42b4ff38fae55d24d7efbf645f47782868ed41ef347e156f419000b291ac360300000000fdfffffff24e4e87b1ed4b3cd9f16bab526054bc135b932f6271f0c272ed1b3351e8925e0100000000fdffffff0430ab240000000000160014057e6b9ff3d8c68fd386f9c71899247e1bb835021c03000000000000695121023148f4c2a6900aecde63e91bac9d5d9611d5ab972f68521c052b331fc1f452b421028a823aaf6bc7a7ff3bc392a80d704cdd330f747fa84329e848c75bc69d4b602c2102222222222222222222222222222222222222222222222222222222222222222253ae1c030000000000006951210242f157d3c5c57510d4112b479e521c364fd21b8f2d9fbffd25a64dd006cfc79d210223c6be3bfa9ee5d877b67b9682a2694d38a7547a06a3c77798735b6dec451b022102020202020202020202020202020202020202020202020202020202020202020253ae2302000000000000160014de464029b6cf761f5641ca0000dc301ece855b6e02473044022054cb5cd0f151185e6bb6efedaad29854f204b075656d3ee308565f71402ce1200220560c2540f66a61d471aa3278a3ba785358941dcf65b2277583b4450578412c1c812102a644b772463289eaae8647a07c13df6aea64bc26214cd647e8a62aa16b39e716024730440220520bd04b18bf88e90054b3f3cf7e8e2d1ff1d553a0ee886449571c355ededa6902207f5ecad662e10606aa60cd63b3426b3011b0fb15df7609bed0cc7a914f857b0601210240866d2855fb2184f464e0e9d1cb1fce618682d3abd455b2f774efe5975e56ab00000000"
}