{
  "txid": "4c0b76b28dea3f61e38e4e177a2a12353c92eab2fb1afb463ea29e512ab7ffae",
  "version": 1,
  "locktime": 0,
  "vin": [
    {
      "txid": "8660166d535aa0eefc5058c3db503fe74e4b114d9559a8585639877a7b7a9eb4",
      "vout": 1,
      "prevout": {
        "scriptpubkey": "00140f8b64064bf9a6a670c07c6f3f4e673af05c30e6",
        "scriptpubkey_asm": "OP_0 OP_PUSHBYTES_20 0f8b64064bf9a6a670c07c6f3f4e673af05c30e6",
        "scriptpubkey_type": "v0_p2wpkh",
        "scriptpubkey_address": "bc1qp79kgpjtlxn2vuxq03hn7nn88tc9cv8x738vzs",
        "value": 297121
      },
      "scriptsig": "",
      "scriptsig_asm": "",
      "witness": [
        "3045022100f04c275a268d493dcd9acd96e487085c3e7dc36fd0ba58ae0914ff5220394b28022065e62c8fba7ba2be9e39e022515cb3748e8b2c2bfac6c43e97449bf12e549d8201",
        "03fb5cc57283a02c89beeae5e10f70450d9e40898069c43698f88454c118dbdff8"
      ],
      "is_coinbase": false,
      "sequence": 4294967295
    },
    {
      "txid": "e057a91d41eee52e70ca304f230e8e448c7451eca519f2c21298ab8126b59a06",
      "vout": 45,
      "prevout": {
        "scriptpubkey": "00148e722c1f196e6bc08e39f726b7563f3c38d1b937",
        "scriptpubkey_asm": "OP_0 OP_PUSHBYTES_20 8e722c1f196e6bc08e39f726b7563f3c38d1b937",
        "scriptpubkey_type": "v0_p2wpkh",
        "scriptpubkey_address": "bc1q3eezc8cede4upr3e7untw43l8sudrwfhn5quaq",
        "value": 2895950
      },
      "scriptsig": "",
      "scriptsig_asm": "",
      "witness": [
        "304402200c2c1f9c101f43bd3bceec653910dc5163b80b68b6b9aa42cd2d95cb5f192eeb022072b7ae16687d08106cfe86a6543711b30f9db21dfe2af81403b1b0fcd3d73ca401",
        "025d8a0da0c61e5b90f299098c0fe252fcac52027c28a6d5c908cac6f372567fe2"
      ],
      "is_coinbase": false,
      "sequence": 4294967295
    },
    {
      "txid": "c4465452401235cf6c946dcee84542e55c8ed89f6b5a3fcc9857667f35dc3763",
      "vout": 593,
      "prevout": {
        "scriptpubkey": "0014de16960bfa046654b3c848c3e82c9ca893fc7366",
        "scriptpubkey_asm": "OP_0 OP_PUSHBYTES_20 de16960bfa046654b3c848c3e82c9ca893fc7366",
        "scriptpubkey_type": "v0_p2wpkh",
        "scriptpubkey_address": "bc1qmctfvzl6q3n9fv7gfrp7styu4zflcumxvg3mth",
        "value": 4835194
      },
      "scriptsig": "",
      "scriptsig_asm": "",
      "witness": [
        "3045022100e892e449198aef5ce2b8986b9f77be9871f35f58822620d0d69176baf5dc2c1402202640e854d36fcde2cbcb1e07e07216cf8b1f865824f82f4957061e741b5783f101",
        "02856701777a1569e2997a2b5059aec45777757f66ba9e9b123581e6828f3cc200"
      ],
      "is_coinbase": false,
      "sequence": 4294967295
    }
  ],
  "vout": [
    {
      "scriptpubkey": "a91417eb7255098e8bd36c4b71137f52f24207ecac4f87",
      "scriptpubkey_asm": "OP_HASH160 OP_PUSHBYTES_20 17eb7255098e8bd36c4b71137f52f24207ecac4f OP_EQUAL",
      "scriptpubkey_type": "p2sh",
      "scriptpubkey_address": "33sVX5CDNCZ6yiVQorzkh5tJHMubAehk6H",
      "value": 4637000
    },
    {
      "scriptpubkey": "0014ae1793b6554f55b3a8ffffab796f9ac4f74f9853",
      "scriptpubkey_asm": "OP_0 OP_PUSHBYTES_20 ae1793b6554f55b3a8ffffab796f9ac4f74f9853",
      "scriptpubkey_type": "v0_p2wpkh",
      "scriptpubkey_address": "bc1q4cte8dj4fa2m828ll74hjmu6cnm5lxznwlwejg",
      "value": 3387119
    }
  ],
  "size": 521,
  "weight": 1109,
  "fee": 4146,
  "status": {
    "confirmed": true,
    "block_height": 834638,
    "block_hash": "000000000000000000025f742c626208ac87e0b7d15054abb4a19ca2d735a54e",
    "block_time": 1710405325
  },
  "hex": "01000000000103b49e7a7b7a87395658a859954d114b4ee73f50dbc35850fceea05a536d1660860100000000ffffffff069ab52681ab9812c2f219a5ec51748c448e0e234f30ca702ee5ee411da957e02d00000000ffffffff6337dc357f665798cc3f5a6b9fd88e5ce54245e8ce6d946ccf351240525446c45102000000ffffffff0248c146000000000017a91417eb7255098e8bd36c4b71137f52f24207ecac4f87efae330000000000160014ae1793b6554f55b3a8ffffab796f9ac4f74f985302483045022100f04c275a268d493dcd9acd96e487085c3e7dc36fd0ba58ae0914ff5220394b28022065e62c8fba7ba2be9e39e022515cb3748e8b2c2bfac6c43e97449bf12e549d82012103fb5cc57283a02c89beeae5e10f70450d9e40898069c43698f88454c118dbdff80247304402200c2c1f9c101f43bd3bceec653910dc5163b80b68b6b9aa42cd2d95cb5f192eeb022072b7ae16687d08106cfe86a6543711b30f9db21dfe2af81403b1b0fcd3d73ca40121025d8a0da0c61e5b90f299098c0fe252fcac52027c28a6d5c908cac6f372567fe202483045022100e892e449198aef5ce2b8986b9f77be9871f35f58822620d0d69176baf5dc2c1402202640e854d36fcde2cbcb1e07e07216cf8b1f865824f82f4957061e741b5783f1012102856701777a1569e2997a2b5059aec45777757f66ba9e9b123581e6828f3cc20000000000"
}