{
  "txid": "4c1969f11518cd2bfa7e245222ed4d32cdd571e57eac2cf4cd8111ac1ce325f6",
  "version": 2,
  "locktime": 0,
  "vin": [
    {
      "txid": "4ee77778659dcfe8d7a4e15882fc6193f4f3d5f6607624e256337b44c2280af5",
      "vout": 82,
      "prevout": {
        "scriptpubkey": "5120335dc6aca833aafdabf8b50dd784632cde9f871e7fafe9a98cb96fc678a4adca",
        "scriptpubkey_asm": "OP_PUSHNUM_1 OP_PUSHBYTES_32 335dc6aca833aafdabf8b50dd784632cde9f871e7fafe9a98cb96fc678a4adca",
        "scriptpubkey_type": "v1_p2tr",
        "scriptpubkey_address": "bc1pxdwudt9gxw40m2lck5xa0prr9n0flpc707h7n2vvh9huv79y4h9qjl8qls",
        "value": 2075
      },
      "scriptsig": "",
      "scriptsig_asm": "",
      "witness": [
        "e910f6a3c1a17476cf5c9807b643cb269a0b6d621fca280570ac1aecbcb2ee3774f8108ca6fca0cea98e60eb6c7b002ce34c6fe8d52a3462b3639decd128cf82",
        "20780fc0a6c5569d986e8a5c257bb1a2f6e0d86768960e252633d1ef947c2872e6ac0063036f7264010118746578742f706c61696e3b636861727365743d7574662d3800357b2270223a224252432d313030222c226f70223a226d696e74222c227469636b223a22696e73222c22616d74223a2231303030227d68",
        "c0c50eac15d7d7889f5ad84f80015e8a209129aeea937c37fa4b8bc0f9be289730"
      ],
      "is_coinbase": false,
      "sequence": 4294967295
    }
  ],
  "vout": [
    {
      "scriptpubkey": "00143e2325412b554cacdd163a93a42204c4707f8851",
      "scriptpubkey_asm": "OP_0 OP_PUSHBYTES_20 3e2325412b554cacdd163a93a42204c4707f8851",
      "scriptpubkey_type": "v0_p2wpkh",
      "scriptpubkey_address": "bc1q8c3j2sft24x2ehgk82f6ggsyc3c8lzz3yw9wsu",
      "value": 546
    }
  ],
  "size": 308,
  "weight": 554,
  "fee": 1529,
  "status": {
    "confirmed": true,
    "block_height": 834464,
    "block_hash": "0000000000000000000177a0869a911a2b65c9bdcd5a8bcb02b68f305bee848e",
    "block_time": 1710308296
  },
  "hex": "02000000000101f50a28c2447b3356e2247660f6d5f3f49361fc8258e1a4d7e8cf9d657877e74e5200000000ffffffff0122020000000000001600143e2325412b554cacdd163a93a42204c4707f88510340e910f6a3c1a17476cf5c9807b643cb269a0b6d621fca280570ac1aecbcb2ee3774f8108ca6fca0cea98e60eb6c7b002ce34c6fe8d52a3462b3639decd128cf827b20780fc0a6c5569d986e8a5c257bb1a2f6e0d86768960e252633d1ef947c2872e6ac0063036f7264010118746578742f706c61696e3b636861727365743d7574662d3800357b2270223a224252432d313030222c226f70223a226d696e74222c227469636b223a22696e73222c22616d74223a2231303030227d6821c0c50eac15d7d7889f5ad84f80015e8a209129aeea937c37fa4b8bc0f9be28973000000000"
}