{
  "txid": "4c275235574283f7e254c6aaead2585919b306f7ea02ba657e92284b41ff166c",
  "version": 2,
  "locktime": 0,
  "vin": [
    {
      "txid": "33392261e1a22b3cb7c948726add40f779e5e0653359da9eb7641c26e46df75d",
      "vout": 1,
      "prevout": {
        "scriptpubkey": "0014d219285954e262a2304bc3c6fce94a1d2b1ab858",
        "scriptpubkey_asm": "OP_0 OP_PUSHBYTES_20 d219285954e262a2304bc3c6fce94a1d2b1ab858",
        "scriptpubkey_type": "v0_p2wpkh",
        "scriptpubkey_address": "bc1q6gvjsk25uf32yvztc0r0e622r5434wzc8m47nu",
        "value": 2222149
      },
      "scriptsig": "",
      "scriptsig_asm": "",
      "witness": [
        "3045022100ba9abb0b11f3494e97677467f2950435ddc62df454cbe6c19543976039cfe1e0022041eb294a535745802f88915410abdcde74628e60dbc84ab7464b05087767928201",
        "03bb6f79fd599a0851692b53393adcd43fc0f4bab149bbe6a56a5a16d4effe9864"
      ],
      "is_coinbase": false,
      "sequence": 4294967295
    },
    {
      "txid": "92d9e7d283daf9a4e2919cf5697752e83c6cdd2dfd2d03f13627aec98ee38bb8",
      "vout": 1,
      "prevout": {
        "scriptpubkey": "001407fb00cde373093027eb70093d54c47281c6047f",
        "scriptpubkey_asm": "OP_0 OP_PUSHBYTES_20 07fb00cde373093027eb70093d54c47281c6047f",
        "scriptpubkey_type": "v0_p2wpkh",
        "scriptpubkey_address": "bc1qqlaspn0rwvynqfltwqyn64xyw2quvprlqdpue7",
        "value": 2942803
      },
      "scriptsig": "",
      "scriptsig_asm": "",
      "witness": [
        "3044022001f4a20d4c04250a59e6eeca8656f500bad5ebb4c30ff632067b9992ba4d9fac02200a0303b6efa67a6069d8eac33587b3f472ce665a9105a9b052f26846f821dd3d01",
        "03af1f2b6ca5bbc43074cbcae5ebf0a97d2b3e517f522fcb17872b21648e5a529b"
      ],
      "is_coinbase": false,
      "sequence": 4294967295
    },
    {
      "txid": "a42a122c7abb47dff4d08acfeba5cfce2c341fe11cb51bd12518d791686e792a",
      "vout": 0,
      "prevout": {
        "scriptpubkey": "0014c0bb62c429004724ff3d445e929b281754316fa0",
        "scriptpubkey_asm": "OP_0 OP_PUSHBYTES_20 c0bb62c429004724ff3d445e929b281754316fa0",
        "scriptpubkey_type": "v0_p2wpkh",
        "scriptpubkey_address": "bc1qczak93pfqprjfleag30f9xegza2rzmaqhvkc4l",
        "value": 3647318
      },
      "scriptsig": "",
      "scriptsig_asm": "",
      "witness": [
        "304402204a059d5885af1540ef6c94af49f4c9128da1ac192739c9bcb483c24b0bed2d9b02207b434237f387c232461b1e04f183713c490d0796ed33668dbff85174ee30fa8001",
        "027f33e9f7528be9f34237fe7aae643e450ddce7f31b3c18841a2fcae1773f5ecb"
      ],
      "is_coinbase": false,
      "sequence": 4294967295
    }
  ],
  "vout": [
    {
      "scriptpubkey": "00148d923b8634547c08c15d51a2576f2f22446cd150",
      "scriptpubkey_asm": "OP_0 OP_PUSHBYTES_20 8d923b8634547c08c15d51a2576f2f22446cd150",
      "scriptpubkey_type": "v0_p2wpkh",
      "scriptpubkey_address": "bc1q3kfrhp35237q3s2a2x39wme0yfzxe52skeehtp",
      "value": 1998636
    },
    {
      "scriptpubkey": "76a914fa149d21d744d8f16b8d470b343feb4d54b8895d88ac",
      "scriptpubkey_asm": "OP_DUP OP_HASH160 OP_PUSHBYTES_20 fa149d21d744d8f16b8d470b343feb4d54b8895d OP_EQUALVERIFY OP_CHECKSIG",
      "scriptpubkey_type": "p2pkh",
      "scriptpubkey_address": "1PoJdEJcRzcfLn7zf993ksN2MuksWgXWa2",
      "value": 6799721
    }
  ],
  "size": 522,
  "weight": 1116,
  "fee": 13913,
  "status": {
    "confirmed": true,
    "block_height": 834638,
    "block_hash": "000000000000000000025f742c626208ac87e0b7d15054abb4a19ca2d735a54e",
    "block_time": 1710405325
  },
  "hex": "020000000001035df76de4261c64b79eda593365e0e579f740dd6a7248c9b73c2ba2e1612239330100000000ffffffffb88be38ec9ae2736f1032dfd2ddd6c3ce8527769f59c91e2a4f9da83d2e7d9920100000000ffffffff2a796e6891d71825d11bb51ce11f342ccecfa5ebcf8ad0f4df47bb7a2c122aa40000000000ffffffff022c7f1e00000000001600148d923b8634547c08c15d51a2576f2f22446cd15069c16700000000001976a914fa149d21d744d8f16b8d470b343feb4d54b8895d88ac02483045022100ba9abb0b11f3494e97677467f2950435ddc62df454cbe6c19543976039cfe1e0022041eb294a535745802f88915410abdcde74628e60dbc84ab7464b050877679282012103bb6f79fd599a0851692b53393adcd43fc0f4bab149bbe6a56a5a16d4effe986402473044022001f4a20d4c04250a59e6eeca8656f500bad5ebb4c30ff632067b9992ba4d9fac02200a0303b6efa67a6069d8eac33587b3f472ce665a9105a9b052f26846f821dd3d012103af1f2b6ca5bbc43074cbcae5ebf0a97d2b3e517f522fcb17872b21648e5a529b0247304402204a059d5885af1540ef6c94af49f4c9128da1ac192739c9bcb483c24b0bed2d9b02207b434237f387c232461b1e04f183713c490d0796ed33668dbff85174ee30fa800121027f33e9f7528be9f34237fe7aae643e450ddce7f31b3c18841a2fcae1773f5ecb00000000"
}