{
  "txid": "4c40f67d061c8401dae61babb0253d1435797c36ba278a8ce56d1cedbff8f557",
  "version": 2,
  "locktime": 0,
  "vin": [
    {
      "txid": "5c3864e3e852ec96346d84fbc3195b536ef1db1891f28d4b48dba69c282b1a0d",
      "vout": 3,
      "prevout": {
        "scriptpubkey": "512013f9972358e3db4ba26cc191b4b47dcb100223fd20b9ba5a6ef8cc7f0aed08e6",
        "scriptpubkey_asm": "OP_PUSHNUM_1 OP_PUSHBYTES_32 13f9972358e3db4ba26cc191b4b47dcb100223fd20b9ba5a6ef8cc7f0aed08e6",
        "scriptpubkey_type": "v1_p2tr",
        "scriptpubkey_address": "bc1pz0uewg6cu0d5hgnvcxgmfdraevgqyglayzum5knwlrx87zhdprnqsyvz0z",
        "value": 3055
      },
      "scriptsig": "",
      "scriptsig_asm": "",
      "witness": [
        "e4a340d8d28669f1135e447df673f6579d9c34736e02e8785546e6b39b68b44e4e102227bea9f2cbd63c8ed01642bcacdaeddd450b7d19d11dceb18f43fcf437",
        "20e27713f7d9cc4e9fc576d6a75571a7f5700017bd08227d0e1cdbfc9f8c93f7efac0063036f726401011e6170706c69636174696f6e2f6a736f6e3b636861727365743d7574662d38004cd37b2270223a22706f772d3230222c226f70223a226d696e74222c227469636b223a2250455045222c22616d74223a2231303030222c22736f6c7574696f6e223a22504550453a626331703237796d68736b396a36716e706b7367767973363471356663717670646465716a6832716a796c6330793861667138663261727375637776796b3a303030303030303030303030303030303030303139393431613561653132383937363539383134343239323533333030353762306461393666336465613163353a3335373434383030313430227d68",
        "c129e6ca6c8c5ab61eaab81da0d3884f0ac7596b050aac6663ac46dee308a1dbc8"
      ],
      "is_coinbase": false,
      "sequence": 4294967295
    }
  ],
  "vout": [
    {
      "scriptpubkey": "51205789bbc2c5968130da086121aa8289c01816b72095d40913f8790fd480e95747",
      "scriptpubkey_asm": "OP_PUSHNUM_1 OP_PUSHBYTES_32 5789bbc2c5968130da086121aa8289c01816b72095d40913f8790fd480e95747",
      "scriptpubkey_type": "v1_p2tr",
      "scriptpubkey_address": "bc1p27ymhsk9j6qnpksgvys64q5fcqvpddeqjh2qjylc0y8afq8f2arsucwvyk",
      "value": 546
    }
  ],
  "size": 487,
  "weight": 769,
  "fee": 2509,
  "status": {
    "confirmed": true,
    "block_height": 834460,
    "block_hash": "00000000000000000000484a79b643b2524bbce82e5d8a442013fa5b8905ed98",
    "block_time": 1710307468
  },
  "hex": "020000000001010d1a2b289ca6db484b8df29118dbf16e535b19c3fb846d3496ec52e8e364385c0300000000ffffffff0122020000000000002251205789bbc2c5968130da086121aa8289c01816b72095d40913f8790fd480e957470340e4a340d8d28669f1135e447df673f6579d9c34736e02e8785546e6b39b68b44e4e102227bea9f2cbd63c8ed01642bcacdaeddd450b7d19d11dceb18f43fcf437fd200120e27713f7d9cc4e9fc576d6a75571a7f5700017bd08227d0e1cdbfc9f8c93f7efac0063036f726401011e6170706c69636174696f6e2f6a736f6e3b636861727365743d7574662d38004cd37b2270223a22706f772d3230222c226f70223a226d696e74222c227469636b223a2250455045222c22616d74223a2231303030222c22736f6c7574696f6e223a22504550453a626331703237796d68736b396a36716e706b7367767973363471356663717670646465716a6832716a796c6330793861667138663261727375637776796b3a303030303030303030303030303030303030303139393431613561653132383937363539383134343239323533333030353762306461393666336465613163353a3335373434383030313430227d6821c129e6ca6c8c5ab61eaab81da0d3884f0ac7596b050aac6663ac46dee308a1dbc800000000"
}