{
  "txid": "4c46dcf5b152eaff56b3056aa6df53470330ce4f051bcbba72f1be0452d537b6",
  "version": 2,
  "locktime": 834637,
  "vin": [
    {
      "txid": "362a4d82c2e92e8703a6acfc9078332dcaa2a3b129b820e60d9ccf92ea544955",
      "vout": 1,
      "prevout": {
        "scriptpubkey": "0014241545f91131081a8d8293eb17c4e763928cf57d",
        "scriptpubkey_asm": "OP_0 OP_PUSHBYTES_20 241545f91131081a8d8293eb17c4e763928cf57d",
        "scriptpubkey_type": "v0_p2wpkh",
        "scriptpubkey_address": "bc1qys25t7g3xyyp4rvzj0430388vwfgeatam0qwne",
        "value": 6869100
      },
      "scriptsig": "",
      "scriptsig_asm": "",
      "witness": [
        "304402207e3834cfdece75e6e9f1d6a20f017a3fbf04b36936770a8668ba2743f73794fb02207a6985dd012232182206320ac056a3f1dd2f6b73bcb6b3417b8a94cee78dd93701",
        "031f755d2b115c4a30ca53fab6488ef05e5d5dc670c43c0339c26feae528400231"
      ],
      "is_coinbase": false,
      "sequence": 4294967293
    },
    {
      "txid": "c88aeb00c1d40dc6177eaa3db6513ce2c628551ef79c20fdf05e9421eb54a8a8",
      "vout": 1,
      "prevout": {
        "scriptpubkey": "0014241545f91131081a8d8293eb17c4e763928cf57d",
        "scriptpubkey_asm": "OP_0 OP_PUSHBYTES_20 241545f91131081a8d8293eb17c4e763928cf57d",
        "scriptpubkey_type": "v0_p2wpkh",
        "scriptpubkey_address": "bc1qys25t7g3xyyp4rvzj0430388vwfgeatam0qwne",
        "value": 9500000
      },
      "scriptsig": "",
      "scriptsig_asm": "",
      "witness": [
        "304402203bc85ea93fc545bb1ae4430ce930fdff4a72795869abb3583565d0565f14fc4202202ca24756f3b3184ee87342cbb10c9d520e0814adeec198f47bd99f8b790bce6401",
        "031f755d2b115c4a30ca53fab6488ef05e5d5dc670c43c0339c26feae528400231"
      ],
      "is_coinbase": false,
      "sequence": 4294967293
    }
  ],
  "vout": [
    {
      "scriptpubkey": "0014c2dd89a5d58fc75d8438c5ade59b169ddc995219",
      "scriptpubkey_asm": "OP_0 OP_PUSHBYTES_20 c2dd89a5d58fc75d8438c5ade59b169ddc995219",
      "scriptpubkey_type": "v0_p2wpkh",
      "scriptpubkey_address": "bc1qctwcnfw43lr4mppcckk7txcknhwfj5sepup0wp",
      "value": 6891300
    },
    {
      "scriptpubkey": "76a9147d52ba6299ba6f6f952da31d93cd91cbc6bac46988ac",
      "scriptpubkey_asm": "OP_DUP OP_HASH160 OP_PUSHBYTES_20 7d52ba6299ba6f6f952da31d93cd91cbc6bac469 OP_EQUALVERIFY OP_CHECKSIG",
      "scriptpubkey_type": "p2pkh",
      "scriptpubkey_address": "1CRea2VMPsMFPtMnDuxQDBDJVzeM2xfHfM",
      "value": 9474400
    }
  ],
  "size": 373,
  "weight": 844,
  "fee": 3400,
  "status": {
    "confirmed": true,
    "block_height": 834638,
    "block_hash": "000000000000000000025f742c626208ac87e0b7d15054abb4a19ca2d735a54e",
    "block_time": 1710405325
  },
  "hex": "02000000000102554954ea92cf9c0de620b829b1a3a2ca2d337890fcaca603872ee9c2824d2a360100000000fdffffffa8a854eb21945ef0fd209cf71e5528c6e23c51b63daa7e17c60dd4c100eb8ac80100000000fdffffff022427690000000000160014c2dd89a5d58fc75d8438c5ade59b169ddc99521960919000000000001976a9147d52ba6299ba6f6f952da31d93cd91cbc6bac46988ac0247304402207e3834cfdece75e6e9f1d6a20f017a3fbf04b36936770a8668ba2743f73794fb02207a6985dd012232182206320ac056a3f1dd2f6b73bcb6b3417b8a94cee78dd9370121031f755d2b115c4a30ca53fab6488ef05e5d5dc670c43c0339c26feae5284002310247304402203bc85ea93fc545bb1ae4430ce930fdff4a72795869abb3583565d0565f14fc4202202ca24756f3b3184ee87342cbb10c9d520e0814adeec198f47bd99f8b790bce640121031f755d2b115c4a30ca53fab6488ef05e5d5dc670c43c0339c26feae5284002314dbc0c00"
}