{
  "txid": "4c5092439b4c117a91a7c7ca5d6dd79ce365f664f4b61060b99315947da64484",
  "version": 1,
  "locktime": 0,
  "vin": [
    {
      "txid": "01ff6803428aa16f0d05cc7a9bbc8ce113bc4e3ac1c89abda29d2a6bfcb507c9",
      "vout": 0,
      "prevout": {
        "scriptpubkey": "001496841436253049fec5c410b06ed6f7edda4dfff5",
        "scriptpubkey_asm": "OP_0 OP_PUSHBYTES_20 96841436253049fec5c410b06ed6f7edda4dfff5",
        "scriptpubkey_type": "v0_p2wpkh",
        "scriptpubkey_address": "bc1qj6zpgd39xpyla3wyzzcxa4hhahdymll4j7vkfd",
        "value": 11710999
      },
      "scriptsig": "",
      "scriptsig_asm": "",
      "witness": [
        "304502210096b171743648e49e4a12e2fbf965f19cf663902714ff87fab03c3cf557e1857f0220350f39adf48123d46f557bd709bc3718abe507f4fcdfbeba3993b4624696a0e001",
        "0253c17e52d5fadf74c1fe0dc6556046c9e418d737939a464ea3938d3c481809fa"
      ],
      "is_coinbase": false,
      "sequence": 4294967295
    }
  ],
  "vout": [
    {
      "scriptpubkey": "76a914999c23a6cf45fb7593d7272828dba6be563813a488ac",
      "scriptpubkey_asm": "OP_DUP OP_HASH160 OP_PUSHBYTES_20 999c23a6cf45fb7593d7272828dba6be563813a4 OP_EQUALVERIFY OP_CHECKSIG",
      "scriptpubkey_type": "p2pkh",
      "scriptpubkey_address": "1F1DS6azkVTA22X5SxAGdv6rqX4j6FZSZ4",
      "value": 6800000
    },
    {
      "scriptpubkey": "001496841436253049fec5c410b06ed6f7edda4dfff5",
      "scriptpubkey_asm": "OP_0 OP_PUSHBYTES_20 96841436253049fec5c410b06ed6f7edda4dfff5",
      "scriptpubkey_type": "v0_p2wpkh",
      "scriptpubkey_address": "bc1qj6zpgd39xpyla3wyzzcxa4hhahdymll4j7vkfd",
      "value": 4907111
    }
  ],
  "size": 226,
  "weight": 574,
  "fee": 3888,
  "status": {
    "confirmed": true,
    "block_height": 834638,
    "block_hash": "000000000000000000025f742c626208ac87e0b7d15054abb4a19ca2d735a54e",
    "block_time": 1710405325
  },
  "hex": "01000000000101c907b5fc6b2a9da2bd9ac8c13a4ebc13e18cbc9b7acc050d6fa18a420368ff010000000000ffffffff0280c26700000000001976a914999c23a6cf45fb7593d7272828dba6be563813a488ac67e04a000000000016001496841436253049fec5c410b06ed6f7edda4dfff50248304502210096b171743648e49e4a12e2fbf965f19cf663902714ff87fab03c3cf557e1857f0220350f39adf48123d46f557bd709bc3718abe507f4fcdfbeba3993b4624696a0e001210253c17e52d5fadf74c1fe0dc6556046c9e418d737939a464ea3938d3c481809fa00000000"
}