{
  "txid": "4c502f7bcfa451b0d11b3faeea889eacf1ad2ce1888a5083d6e03a21dda5f9c3",
  "version": 2,
  "locktime": 0,
  "vin": [
    {
      "txid": "5fee89fbe0db446c040ef2ca85cd208f245925871f50f63f8ba2889078007037",
      "vout": 0,
      "prevout": {
        "scriptpubkey": "51200a1c6bf1a73a41ae26a62fccc50a5f4a4775b1335dbddd0e79418f3ae5da3ff6",
        "scriptpubkey_asm": "OP_PUSHNUM_1 OP_PUSHBYTES_32 0a1c6bf1a73a41ae26a62fccc50a5f4a4775b1335dbddd0e79418f3ae5da3ff6",
        "scriptpubkey_type": "v1_p2tr",
        "scriptpubkey_address": "bc1ppgwxhud88fq6uf4x9lxv2zjlffrhtvfntk7a6rnegx8n4ew68lmq5ma4vh",
        "value": 2229
      },
      "scriptsig": "",
      "scriptsig_asm": "",
      "witness": [
        "ef34407cd88de8cff26b4e36861339cc1b04b3374882228c085ec6900a5cc3e6044f1e904ed550a8220cae0d0f4aea01b516e2b1814fd250090a7d436e658b1e",
        "20776783f8790a48a5a041629b1a5571de9e013da6e2a2dd20ce859bb3c12a5f80ac0063036f7264010118746578742f706c61696e3b636861727365743d7574662d38000c70617474796963652e62746368",
        "c0776783f8790a48a5a041629b1a5571de9e013da6e2a2dd20ce859bb3c12a5f80"
      ],
      "is_coinbase": false,
      "sequence": 4261412863
    }
  ],
  "vout": [
    {
      "scriptpubkey": "5120ebd8d9b0fa1fd56aeb0d9f90bbc9ab877ff6e586454187d1bcdc4b1ee93f9d67",
      "scriptpubkey_asm": "OP_PUSHNUM_1 OP_PUSHBYTES_32 ebd8d9b0fa1fd56aeb0d9f90bbc9ab877ff6e586454187d1bcdc4b1ee93f9d67",
      "scriptpubkey_type": "v1_p2tr",
      "scriptpubkey_address": "bc1pa0vdnv86rl2k46cdn7gthjdtsalldevxg4qc05dum393a6fln4ns6selas",
      "value": 546
    }
  ],
  "size": 279,
  "weight": 561,
  "fee": 1683,
  "status": {
    "confirmed": true,
    "block_height": 834460,
    "block_hash": "00000000000000000000484a79b643b2524bbce82e5d8a442013fa5b8905ed98",
    "block_time": 1710307468
  },
  "hex": "02000000000101377000789088a28b3ff6501f872559248f20cd85caf20e046c44dbe0fb89ee5f0000000000fffffffd012202000000000000225120ebd8d9b0fa1fd56aeb0d9f90bbc9ab877ff6e586454187d1bcdc4b1ee93f9d670340ef34407cd88de8cff26b4e36861339cc1b04b3374882228c085ec6900a5cc3e6044f1e904ed550a8220cae0d0f4aea01b516e2b1814fd250090a7d436e658b1e5220776783f8790a48a5a041629b1a5571de9e013da6e2a2dd20ce859bb3c12a5f80ac0063036f7264010118746578742f706c61696e3b636861727365743d7574662d38000c70617474796963652e6274636821c0776783f8790a48a5a041629b1a5571de9e013da6e2a2dd20ce859bb3c12a5f8000000000"
}