{
  "txid": "4c512f1b316fe78347d90484cdff2a262255d69d4527163b47bf63fb857d7090",
  "version": 1,
  "locktime": 0,
  "vin": [
    {
      "txid": "541e86f7965be765972c342c6e6e06e9f877863b94307669718ca82c104bb052",
      "vout": 1,
      "prevout": {
        "scriptpubkey": "00148a83e24f91af23c768e28074d24791cbfef1d042",
        "scriptpubkey_asm": "OP_0 OP_PUSHBYTES_20 8a83e24f91af23c768e28074d24791cbfef1d042",
        "scriptpubkey_type": "v0_p2wpkh",
        "scriptpubkey_address": "bc1q32p7ynu34u3uw68zsp6dy3u3e0l0r5zz3kzkc7",
        "value": 12028
      },
      "scriptsig": "",
      "scriptsig_asm": "",
      "witness": [
        "3044022013c55bc8d26a559a9c1733cb1409c508ce48a34c04c98a5ad2fa83730813cbf602207cf02f7bf060f0c52b992e0ea43a99ae1263b4a658fb98a53c035fd997591ad701",
        "029a4daf3ea900538f1c9d8141c9c17af96d2ce60ed302c51f761925308540bb31"
      ],
      "is_coinbase": false,
      "sequence": 4294967295
    },
    {
      "txid": "ca30b9d9d47dced6a16a0930e16894d26c95694b7992799e2859aa54e82c2473",
      "vout": 1,
      "prevout": {
        "scriptpubkey": "00148a83e24f91af23c768e28074d24791cbfef1d042",
        "scriptpubkey_asm": "OP_0 OP_PUSHBYTES_20 8a83e24f91af23c768e28074d24791cbfef1d042",
        "scriptpubkey_type": "v0_p2wpkh",
        "scriptpubkey_address": "bc1q32p7ynu34u3uw68zsp6dy3u3e0l0r5zz3kzkc7",
        "value": 32904
      },
      "scriptsig": "",
      "scriptsig_asm": "",
      "witness": [
        "304402205f40e956fe9d4b135af74fe4d7f656f0c377ec5313bf53cb2c83b9f2907604d8022024d51244772920a1803a58bde33a46ba96206f09fd36eaeccb3db4a6faa6021301",
        "029a4daf3ea900538f1c9d8141c9c17af96d2ce60ed302c51f761925308540bb31"
      ],
      "is_coinbase": false,
      "sequence": 4294967295
    },
    {
      "txid": "a47e9636fc1b0d8e65e690a7eb8978b1a05913b8fec354bfb706d3a31bf6ee2a",
      "vout": 1,
      "prevout": {
        "scriptpubkey": "00148a83e24f91af23c768e28074d24791cbfef1d042",
        "scriptpubkey_asm": "OP_0 OP_PUSHBYTES_20 8a83e24f91af23c768e28074d24791cbfef1d042",
        "scriptpubkey_type": "v0_p2wpkh",
        "scriptpubkey_address": "bc1q32p7ynu34u3uw68zsp6dy3u3e0l0r5zz3kzkc7",
        "value": 525723
      },
      "scriptsig": "",
      "scriptsig_asm": "",
      "witness": [
        "3044022012dfd5be0ca3612f27100275cf2cef7375b276b92876f33f8b524f74b0dfd0c902204b0baafe672ec40772871865a3d87ebbba314c65841b5ffaa20c2de21576d31401",
        "029a4daf3ea900538f1c9d8141c9c17af96d2ce60ed302c51f761925308540bb31"
      ],
      "is_coinbase": false,
      "sequence": 4294967295
    }
  ],
  "vout": [
    {
      "scriptpubkey": "76a914b2d220c2537ba525f862ffbbcc8c3d22b97c495b88ac",
      "scriptpubkey_asm": "OP_DUP OP_HASH160 OP_PUSHBYTES_20 b2d220c2537ba525f862ffbbcc8c3d22b97c495b OP_EQUALVERIFY OP_CHECKSIG",
      "scriptpubkey_type": "p2pkh",
      "scriptpubkey_address": "1HJX16P9PhuMXaq7rfxZXfF8ydb8d8D5YQ",
      "value": 550000
    },
    {
      "scriptpubkey": "00148a83e24f91af23c768e28074d24791cbfef1d042",
      "scriptpubkey_asm": "OP_0 OP_PUSHBYTES_20 8a83e24f91af23c768e28074d24791cbfef1d042",
      "scriptpubkey_type": "v0_p2wpkh",
      "scriptpubkey_address": "bc1q32p7ynu34u3uw68zsp6dy3u3e0l0r5zz3kzkc7",
      "value": 13095
    }
  ],
  "size": 521,
  "weight": 1115,
  "fee": 7560,
  "status": {
    "confirmed": true,
    "block_height": 834552,
    "block_hash": "00000000000000000001dd0468a70c94f619251d286585cff57aeb4bd9ede330",
    "block_time": 1710355598
  },
  "hex": "0100000000010352b04b102ca88c71697630943b8677f8e9066e6e2c342c9765e75b96f7861e540100000000ffffffff73242ce854aa59289e7992794b69956cd29468e130096aa1d6ce7dd4d9b930ca0100000000ffffffff2aeef61ba3d306b7bf54c3feb81359a0b17889eba790e6658e0d1bfc36967ea40100000000ffffffff0270640800000000001976a914b2d220c2537ba525f862ffbbcc8c3d22b97c495b88ac27330000000000001600148a83e24f91af23c768e28074d24791cbfef1d04202473044022013c55bc8d26a559a9c1733cb1409c508ce48a34c04c98a5ad2fa83730813cbf602207cf02f7bf060f0c52b992e0ea43a99ae1263b4a658fb98a53c035fd997591ad70121029a4daf3ea900538f1c9d8141c9c17af96d2ce60ed302c51f761925308540bb310247304402205f40e956fe9d4b135af74fe4d7f656f0c377ec5313bf53cb2c83b9f2907604d8022024d51244772920a1803a58bde33a46ba96206f09fd36eaeccb3db4a6faa602130121029a4daf3ea900538f1c9d8141c9c17af96d2ce60ed302c51f761925308540bb3102473044022012dfd5be0ca3612f27100275cf2cef7375b276b92876f33f8b524f74b0dfd0c902204b0baafe672ec40772871865a3d87ebbba314c65841b5ffaa20c2de21576d3140121029a4daf3ea900538f1c9d8141c9c17af96d2ce60ed302c51f761925308540bb3100000000"
}