{
  "txid": "4c58617ea1249b1c7f7d312d1635134381e78ea58bbe60363f260f71ea00d868",
  "version": 2,
  "locktime": 834637,
  "vin": [
    {
      "txid": "69907aee7ef57103f1b0f6c4d7075e8ba27972def5f04be4c25ce3c9339813c8",
      "vout": 3,
      "prevout": {
        "scriptpubkey": "76a9147d9d6564f30a1dd898c0f48fd73a12d991b3e5b888ac",
        "scriptpubkey_asm": "OP_DUP OP_HASH160 OP_PUSHBYTES_20 7d9d6564f30a1dd898c0f48fd73a12d991b3e5b8 OP_EQUALVERIFY OP_CHECKSIG",
        "scriptpubkey_type": "p2pkh",
        "scriptpubkey_address": "1CTC23snkGsP62XnLRuXdo47XjhN3hRmXE",
        "value": 99662837
      },
      "scriptsig": "4730440220708bf74674dd103c76bea7d0fcc783d6811465c50fbeaaffe6dd86aba6f7a399022076a74bd9e581e64856b809143a35462dcb330f424ffc1cec34facef5ea55197b01210360835cde4e00b996e2c9651812ad2ad1157dd21ef757004def31ca95109b9e45",
      "scriptsig_asm": "OP_PUSHBYTES_71 30440220708bf74674dd103c76bea7d0fcc783d6811465c50fbeaaffe6dd86aba6f7a399022076a74bd9e581e64856b809143a35462dcb330f424ffc1cec34facef5ea55197b01 OP_PUSHBYTES_33 0360835cde4e00b996e2c9651812ad2ad1157dd21ef757004def31ca95109b9e45",
      "is_coinbase": false,
      "sequence": 4294967293
    }
  ],
  "vout": [
    {
      "scriptpubkey": "0014f2d7d44c0ffb6f552908c5b979cc91d9b49ce04d",
      "scriptpubkey_asm": "OP_0 OP_PUSHBYTES_20 f2d7d44c0ffb6f552908c5b979cc91d9b49ce04d",
      "scriptpubkey_type": "v0_p2wpkh",
      "scriptpubkey_address": "bc1q7ttagnq0ldh422ggckuhnny3mx6feczd4xme07",
      "value": 7146
    },
    {
      "scriptpubkey": "0014be86fcc1d97d2d95fd921599e3643bb7d4c4b4b2",
      "scriptpubkey_asm": "OP_0 OP_PUSHBYTES_20 be86fcc1d97d2d95fd921599e3643bb7d4c4b4b2",
      "scriptpubkey_type": "v0_p2wpkh",
      "scriptpubkey_address": "bc1qh6r0eswe05ketlvjzkv7xepmkl2vfd9jms8a5u",
      "value": 28718
    },
    {
      "scriptpubkey": "a914b8815a4f61c1d2984675b486f6e6c5e8c5006cb687",
      "scriptpubkey_asm": "OP_HASH160 OP_PUSHBYTES_20 b8815a4f61c1d2984675b486f6e6c5e8c5006cb6 OP_EQUAL",
      "scriptpubkey_type": "p2sh",
      "scriptpubkey_address": "3JWbDRprdy6Tzo2pa9hMK7L9p5WcsveE9Z",
      "value": 1451148
    },
    {
      "scriptpubkey": "a914b8815a4f61c1d2984675b486f6e6c5e8c5006cb687",
      "scriptpubkey_asm": "OP_HASH160 OP_PUSHBYTES_20 b8815a4f61c1d2984675b486f6e6c5e8c5006cb6 OP_EQUAL",
      "scriptpubkey_type": "p2sh",
      "scriptpubkey_address": "3JWbDRprdy6Tzo2pa9hMK7L9p5WcsveE9Z",
      "value": 1451195
    },
    {
      "scriptpubkey": "a914b8815a4f61c1d2984675b486f6e6c5e8c5006cb687",
      "scriptpubkey_asm": "OP_HASH160 OP_PUSHBYTES_20 b8815a4f61c1d2984675b486f6e6c5e8c5006cb6 OP_EQUAL",
      "scriptpubkey_type": "p2sh",
      "scriptpubkey_address": "3JWbDRprdy6Tzo2pa9hMK7L9p5WcsveE9Z",
      "value": 1451314
    },
    {
      "scriptpubkey": "a914b8815a4f61c1d2984675b486f6e6c5e8c5006cb687",
      "scriptpubkey_asm": "OP_HASH160 OP_PUSHBYTES_20 b8815a4f61c1d2984675b486f6e6c5e8c5006cb6 OP_EQUAL",
      "scriptpubkey_type": "p2sh",
      "scriptpubkey_address": "3JWbDRprdy6Tzo2pa9hMK7L9p5WcsveE9Z",
      "value": 1451945
    },
    {
      "scriptpubkey": "a914b8815a4f61c1d2984675b486f6e6c5e8c5006cb687",
      "scriptpubkey_asm": "OP_HASH160 OP_PUSHBYTES_20 b8815a4f61c1d2984675b486f6e6c5e8c5006cb6 OP_EQUAL",
      "scriptpubkey_type": "p2sh",
      "scriptpubkey_address": "3JWbDRprdy6Tzo2pa9hMK7L9p5WcsveE9Z",
      "value": 1452338
    },
    {
      "scriptpubkey": "0014817d3a19d91e8c9043da3b6db7055c45dd55976f",
      "scriptpubkey_asm": "OP_0 OP_PUSHBYTES_20 817d3a19d91e8c9043da3b6db7055c45dd55976f",
      "scriptpubkey_type": "v0_p2wpkh",
      "scriptpubkey_address": "bc1qs97n5xwer6xfqs768dkmwp2ughw4t9m0md4x9r",
      "value": 1457257
    },
    {
      "scriptpubkey": "76a914ece0b4f37fac6706b1e41eaa24f0aec7f9bb52dc88ac",
      "scriptpubkey_asm": "OP_DUP OP_HASH160 OP_PUSHBYTES_20 ece0b4f37fac6706b1e41eaa24f0aec7f9bb52dc OP_EQUALVERIFY OP_CHECKSIG",
      "scriptpubkey_type": "p2pkh",
      "scriptpubkey_address": "1NbVfBGKqCPvS8gpKTkgaPJ44JX4fSDGjZ",
      "value": 90900651
    }
  ],
  "size": 444,
  "weight": 1776,
  "fee": 11125,
  "status": {
    "confirmed": true,
    "block_height": 834638,
    "block_hash": "000000000000000000025f742c626208ac87e0b7d15054abb4a19ca2d735a54e",
    "block_time": 1710405325
  },
  "hex": "0200000001c8139833c9e35cc2e44bf0f5de7279a28b5e07d7c4f6b0f10371f57eee7a9069030000006a4730440220708bf74674dd103c76bea7d0fcc783d6811465c50fbeaaffe6dd86aba6f7a399022076a74bd9e581e64856b809143a35462dcb330f424ffc1cec34facef5ea55197b01210360835cde4e00b996e2c9651812ad2ad1157dd21ef757004def31ca95109b9e45fdffffff09ea1b000000000000160014f2d7d44c0ffb6f552908c5b979cc91d9b49ce04d2e70000000000000160014be86fcc1d97d2d95fd921599e3643bb7d4c4b4b28c2416000000000017a914b8815a4f61c1d2984675b486f6e6c5e8c5006cb687bb2416000000000017a914b8815a4f61c1d2984675b486f6e6c5e8c5006cb687322516000000000017a914b8815a4f61c1d2984675b486f6e6c5e8c5006cb687a92716000000000017a914b8815a4f61c1d2984675b486f6e6c5e8c5006cb687322916000000000017a914b8815a4f61c1d2984675b486f6e6c5e8c5006cb687693c160000000000160014817d3a19d91e8c9043da3b6db7055c45dd55976fab086b05000000001976a914ece0b4f37fac6706b1e41eaa24f0aec7f9bb52dc88ac4dbc0c00"
}