{
  "txid": "4c640a933f9a715b795b2b252e9a1504164057207a4ddb6874b020a7b04d64c6",
  "version": 1,
  "locktime": 0,
  "vin": [
    {
      "txid": "aac1f1e729af502e93f504cb760042bb7983315956a8692cb3f5b1663621e71e",
      "vout": 0,
      "prevout": {
        "scriptpubkey": "002072e26506e97c471eb9214c32c6c8de480132442ca9b464818afe87c3f41ab2af",
        "scriptpubkey_asm": "OP_0 OP_PUSHBYTES_32 72e26506e97c471eb9214c32c6c8de480132442ca9b464818afe87c3f41ab2af",
        "scriptpubkey_type": "v0_p2wsh",
        "scriptpubkey_address": "bc1qwt3x2phf03r3awfpfsevdjx7fqqny3pv4x6xfqv2l6ru8aq6k2hsswe2l0",
        "value": 8850
      },
      "scriptsig": "",
      "scriptsig_asm": "",
      "witness": [
        "ee7d39d05b940b642af7b0e4b80330dfd514914537893b7ff53fe3bb40bf40c2",
        "3044022013b6cc608276be879b5fed1a88175e4ec9a46ba9e2c677f0418403eae741e9fd02201b79e7621d1cc984bc7a084cbdee54c8e8f4d31873a5e7a2d3664316cb2f9e9a01",
        "30450221008bb51ebc6a1b975d5872aa943073cfea30c5faae04319f6a120c5b8a0eb9b50302203a7507124c9210c40af1b2fdcc51fd28ec4b7087daf108c7bbf04870304db46701",
        "210216cc06d798b13cb5799f29eee2284f3e58a131918862746e026a1aaa5b413a56ac6476a9149538f254770119827c47f0247dfc663a3db8e7b888ad0344b40cb1672103e7f279ef3c3c1bd6e788c40e21f591d5dec0b94d39dc4ed4d9bd3f9e3dd1b3ffad82012088a9147e25a9ed0a0122226f0d8c5d11297857858da6a88768"
      ],
      "is_coinbase": false,
      "sequence": 4294967295,
      "inner_witnessscript_asm": "OP_PUSHBYTES_33 0216cc06d798b13cb5799f29eee2284f3e58a131918862746e026a1aaa5b413a56 OP_CHECKSIG OP_NOTIF OP_DUP OP_HASH160 OP_PUSHBYTES_20 9538f254770119827c47f0247dfc663a3db8e7b8 OP_EQUALVERIFY OP_CHECKSIGVERIFY OP_PUSHBYTES_3 44b40c OP_CLTV OP_ELSE OP_PUSHBYTES_33 03e7f279ef3c3c1bd6e788c40e21f591d5dec0b94d39dc4ed4d9bd3f9e3dd1b3ff OP_CHECKSIGVERIFY OP_SIZE OP_PUSHBYTES_1 20 OP_EQUALVERIFY OP_HASH160 OP_PUSHBYTES_20 7e25a9ed0a0122226f0d8c5d11297857858da6a8 OP_EQUAL OP_ENDIF"
    }
  ],
  "vout": [
    {
      "scriptpubkey": "5120a6f7896059bc62f93a2f97305b8c0c7cdb4174b08f51d8693f33b6097c918429",
      "scriptpubkey_asm": "OP_PUSHNUM_1 OP_PUSHBYTES_32 a6f7896059bc62f93a2f97305b8c0c7cdb4174b08f51d8693f33b6097c918429",
      "scriptpubkey_type": "v1_p2tr",
      "scriptpubkey_address": "bc1p5mmcjczeh330jw30juc9hrqv0nd5za9s3agas6flxwmqjly3ss5snuhkga",
      "value": 7000
    }
  ],
  "size": 406,
  "weight": 688,
  "fee": 1850,
  "status": {
    "confirmed": true,
    "block_height": 834464,
    "block_hash": "0000000000000000000177a0869a911a2b65c9bdcd5a8bcb02b68f305bee848e",
    "block_time": 1710308296
  },
  "hex": "010000000001011ee7213666b1f5b32c69a85659318379bb420076cb04f5932e50af29e7f1c1aa0000000000ffffffff01581b000000000000225120a6f7896059bc62f93a2f97305b8c0c7cdb4174b08f51d8693f33b6097c9184290420ee7d39d05b940b642af7b0e4b80330dfd514914537893b7ff53fe3bb40bf40c2473044022013b6cc608276be879b5fed1a88175e4ec9a46ba9e2c677f0418403eae741e9fd02201b79e7621d1cc984bc7a084cbdee54c8e8f4d31873a5e7a2d3664316cb2f9e9a014830450221008bb51ebc6a1b975d5872aa943073cfea30c5faae04319f6a120c5b8a0eb9b50302203a7507124c9210c40af1b2fdcc51fd28ec4b7087daf108c7bbf04870304db4670182210216cc06d798b13cb5799f29eee2284f3e58a131918862746e026a1aaa5b413a56ac6476a9149538f254770119827c47f0247dfc663a3db8e7b888ad0344b40cb1672103e7f279ef3c3c1bd6e788c40e21f591d5dec0b94d39dc4ed4d9bd3f9e3dd1b3ffad82012088a9147e25a9ed0a0122226f0d8c5d11297857858da6a8876800000000"
}