{
  "txid": "4c6e1339f6ec894ac4685f4ef934180d376b1870005fb5c6298261353d46cbac",
  "version": 2,
  "locktime": 0,
  "vin": [
    {
      "txid": "24406546155376a982d390dd2154fe6d0618cfd4c5ec3946fdd7db26699016dc",
      "vout": 33,
      "prevout": {
        "scriptpubkey": "0014e44f074f823b987c639d9fed2c54a68d535eac5f",
        "scriptpubkey_asm": "OP_0 OP_PUSHBYTES_20 e44f074f823b987c639d9fed2c54a68d535eac5f",
        "scriptpubkey_type": "v0_p2wpkh",
        "scriptpubkey_address": "bc1qu38swnuz8wv8ccuanlkjc49x34f4atzlzdj3w8",
        "value": 60737805
      },
      "scriptsig": "",
      "scriptsig_asm": "",
      "witness": [
        "304402204d47f169017db97799cf2fc3bd2a75b13e9088aa08b7de74694b16add8e06bee02204f06d502f444c71dbf0f239c7e3ebbf83ad43f743fd9a5993d41fefa7d75d4a601",
        "0390ccdc2ac8f9410b6be2c5e04822baa337c212ac1d41e89912d658f7b991a3cc"
      ],
      "is_coinbase": false,
      "sequence": 4294967293
    }
  ],
  "vout": [
    {
      "scriptpubkey": "00149859a00a11609a2026265dd2508ced72dd69c0be",
      "scriptpubkey_asm": "OP_0 OP_PUSHBYTES_20 9859a00a11609a2026265dd2508ced72dd69c0be",
      "scriptpubkey_type": "v0_p2wpkh",
      "scriptpubkey_address": "bc1qnpv6qzs3vzdzqf3xthf9pr8dwtwkns97v8sm40",
      "value": 60716045
    }
  ],
  "size": 191,
  "weight": 437,
  "fee": 21760,
  "status": {
    "confirmed": true,
    "block_height": 834638,
    "block_hash": "000000000000000000025f742c626208ac87e0b7d15054abb4a19ca2d735a54e",
    "block_time": 1710405325
  },
  "hex": "02000000000101dc16906926dbd7fd4639ecc5d4cf18066dfe5421dd90d382a9765315466540242100000000fdffffff010d749e03000000001600149859a00a11609a2026265dd2508ced72dd69c0be0247304402204d47f169017db97799cf2fc3bd2a75b13e9088aa08b7de74694b16add8e06bee02204f06d502f444c71dbf0f239c7e3ebbf83ad43f743fd9a5993d41fefa7d75d4a601210390ccdc2ac8f9410b6be2c5e04822baa337c212ac1d41e89912d658f7b991a3cc00000000"
}