{
  "txid": "4c78a63ccc28ca63a9827416cfb79c1f8f48bb2d3f7a15796e22f003af2fe3f8",
  "version": 2,
  "locktime": 0,
  "vin": [
    {
      "txid": "4ee77778659dcfe8d7a4e15882fc6193f4f3d5f6607624e256337b44c2280af5",
      "vout": 46,
      "prevout": {
        "scriptpubkey": "5120037bca512d56fe82952c58a7566bb1955e46ce899d1e7dbe844d72e218716f14",
        "scriptpubkey_asm": "OP_PUSHNUM_1 OP_PUSHBYTES_32 037bca512d56fe82952c58a7566bb1955e46ce899d1e7dbe844d72e218716f14",
        "scriptpubkey_type": "v1_p2tr",
        "scriptpubkey_address": "bc1pqdau55fd2mlg99fvtzn4v6a3j40ydn5fn508m05yf4ewyxr3du2qhexfes",
        "value": 2075
      },
      "scriptsig": "",
      "scriptsig_asm": "",
      "witness": [
        "489c68fd1810ecc9a55c4f9817921e4c0467e522800db5e2d9993c72640bdea2aed03602d3c3793c12a845b5e728a9b068ca769539adedfb6fc3b3d3c985b468",
        "2055091444357f0bac391285d1d754dc6ae291aa313c54c272768e007672b632a3ac0063036f7264010118746578742f706c61696e3b636861727365743d7574662d3800357b2270223a224252432d313030222c226f70223a226d696e74222c227469636b223a22696e73222c22616d74223a2231303030227d68",
        "c1c50eac15d7d7889f5ad84f80015e8a209129aeea937c37fa4b8bc0f9be289730"
      ],
      "is_coinbase": false,
      "sequence": 4294967295
    }
  ],
  "vout": [
    {
      "scriptpubkey": "00143e2325412b554cacdd163a93a42204c4707f8851",
      "scriptpubkey_asm": "OP_0 OP_PUSHBYTES_20 3e2325412b554cacdd163a93a42204c4707f8851",
      "scriptpubkey_type": "v0_p2wpkh",
      "scriptpubkey_address": "bc1q8c3j2sft24x2ehgk82f6ggsyc3c8lzz3yw9wsu",
      "value": 546
    }
  ],
  "size": 308,
  "weight": 554,
  "fee": 1529,
  "status": {
    "confirmed": true,
    "block_height": 834464,
    "block_hash": "0000000000000000000177a0869a911a2b65c9bdcd5a8bcb02b68f305bee848e",
    "block_time": 1710308296
  },
  "hex": "02000000000101f50a28c2447b3356e2247660f6d5f3f49361fc8258e1a4d7e8cf9d657877e74e2e00000000ffffffff0122020000000000001600143e2325412b554cacdd163a93a42204c4707f88510340489c68fd1810ecc9a55c4f9817921e4c0467e522800db5e2d9993c72640bdea2aed03602d3c3793c12a845b5e728a9b068ca769539adedfb6fc3b3d3c985b4687b2055091444357f0bac391285d1d754dc6ae291aa313c54c272768e007672b632a3ac0063036f7264010118746578742f706c61696e3b636861727365743d7574662d3800357b2270223a224252432d313030222c226f70223a226d696e74222c227469636b223a22696e73222c22616d74223a2231303030227d6821c1c50eac15d7d7889f5ad84f80015e8a209129aeea937c37fa4b8bc0f9be28973000000000"
}