{
  "txid": "4c80eb214cc40a18dd33fd8b1b4bddd322ff7271ff3d061c5cc9409317f5f97d",
  "version": 1,
  "locktime": 0,
  "vin": [
    {
      "txid": "051f5063fa414516655994ff6c710830ae34eb3ff1da564bc5dea553ee14ccd1",
      "vout": 319,
      "prevout": {
        "scriptpubkey": "00141ce77695555ecf5250a2eccb54fd9dc0ef4fa5e6",
        "scriptpubkey_asm": "OP_0 OP_PUSHBYTES_20 1ce77695555ecf5250a2eccb54fd9dc0ef4fa5e6",
        "scriptpubkey_type": "v0_p2wpkh",
        "scriptpubkey_address": "bc1qrnnhd924tm84y59zan94flvacrh5lf0x7kz4jm",
        "value": 708766
      },
      "scriptsig": "",
      "scriptsig_asm": "",
      "witness": [
        "3045022100ca048e0d86567ad870ef83b06626ca410988158b8523c708dcbfd9d9af78d1a10220581d561dddf067687a4a4f7b4fe95febc72ccdbbd708d4640607bf10fcaebe4801",
        "034a4877df17ee47c8fac7a6f21046838fb574a8d5e4c8c0b85d44a5f87a8059ce"
      ],
      "is_coinbase": false,
      "sequence": 4294967293
    },
    {
      "txid": "5f7eef06b298dfa22b910dec69b576b10d3fbeea215ae73db73ae27cd7811cf3",
      "vout": 203,
      "prevout": {
        "scriptpubkey": "00141ce77695555ecf5250a2eccb54fd9dc0ef4fa5e6",
        "scriptpubkey_asm": "OP_0 OP_PUSHBYTES_20 1ce77695555ecf5250a2eccb54fd9dc0ef4fa5e6",
        "scriptpubkey_type": "v0_p2wpkh",
        "scriptpubkey_address": "bc1qrnnhd924tm84y59zan94flvacrh5lf0x7kz4jm",
        "value": 708746
      },
      "scriptsig": "",
      "scriptsig_asm": "",
      "witness": [
        "3045022100a64363ac48e5778778af500b3e77f1fbc99e19802f436ae7f66d9dc057281b3c02205700684c75dfc4953636d2441a0c846a2d10f2b4374fcc4b551adf1880b9b80b01",
        "034a4877df17ee47c8fac7a6f21046838fb574a8d5e4c8c0b85d44a5f87a8059ce"
      ],
      "is_coinbase": false,
      "sequence": 4294967293
    },
    {
      "txid": "a21dd597a6e6d5e9df31db35ec0e0df9ee0e1c057edfc6959f9100851b451af4",
      "vout": 334,
      "prevout": {
        "scriptpubkey": "00141ce77695555ecf5250a2eccb54fd9dc0ef4fa5e6",
        "scriptpubkey_asm": "OP_0 OP_PUSHBYTES_20 1ce77695555ecf5250a2eccb54fd9dc0ef4fa5e6",
        "scriptpubkey_type": "v0_p2wpkh",
        "scriptpubkey_address": "bc1qrnnhd924tm84y59zan94flvacrh5lf0x7kz4jm",
        "value": 709695
      },
      "scriptsig": "",
      "scriptsig_asm": "",
      "witness": [
        "3045022100a642a30fca32806cc027380ea16482fe6cd75a60d48129d8186ed812903b1efc02206cb21e90c962e40ccc4e05a1ba8a0ef3552f894730e9b92af85ffdc27ad8715a01",
        "034a4877df17ee47c8fac7a6f21046838fb574a8d5e4c8c0b85d44a5f87a8059ce"
      ],
      "is_coinbase": false,
      "sequence": 4294967293
    },
    {
      "txid": "b087a0207e18f76b688bc4e3ab4985b277ec3975b909e175459bdc62a27bf617",
      "vout": 106,
      "prevout": {
        "scriptpubkey": "00141ce77695555ecf5250a2eccb54fd9dc0ef4fa5e6",
        "scriptpubkey_asm": "OP_0 OP_PUSHBYTES_20 1ce77695555ecf5250a2eccb54fd9dc0ef4fa5e6",
        "scriptpubkey_type": "v0_p2wpkh",
        "scriptpubkey_address": "bc1qrnnhd924tm84y59zan94flvacrh5lf0x7kz4jm",
        "value": 706841
      },
      "scriptsig": "",
      "scriptsig_asm": "",
      "witness": [
        "3045022100d671a8d040d1b63708c008587f81bbeb4555600bb3fd478de4d75be68bd16a8b02202f376e6261e02713617f2414ff942b169c677c959ef2e0d49d0eec9e2ed7b32301",
        "034a4877df17ee47c8fac7a6f21046838fb574a8d5e4c8c0b85d44a5f87a8059ce"
      ],
      "is_coinbase": false,
      "sequence": 4294967293
    },
    {
      "txid": "ddd56ffa7c6b56ac973ce01ac2b7696891fb3306ad436f10b7bedd3ed36b3b27",
      "vout": 106,
      "prevout": {
        "scriptpubkey": "00141ce77695555ecf5250a2eccb54fd9dc0ef4fa5e6",
        "scriptpubkey_asm": "OP_0 OP_PUSHBYTES_20 1ce77695555ecf5250a2eccb54fd9dc0ef4fa5e6",
        "scriptpubkey_type": "v0_p2wpkh",
        "scriptpubkey_address": "bc1qrnnhd924tm84y59zan94flvacrh5lf0x7kz4jm",
        "value": 702943
      },
      "scriptsig": "",
      "scriptsig_asm": "",
      "witness": [
        "3045022100e377b00f2e980716cc972cc7429f6f8535b3594333d9dab9fe20cc5d8c590df5022011a31905510d08f3fc2d147c0de7188ba82959c7073c2708fe5a006337159cef01",
        "034a4877df17ee47c8fac7a6f21046838fb574a8d5e4c8c0b85d44a5f87a8059ce"
      ],
      "is_coinbase": false,
      "sequence": 4294967293
    },
    {
      "txid": "e5b05124da09e4003679c112f61dddc9a92217924c653fe1a7706509d5101360",
      "vout": 114,
      "prevout": {
        "scriptpubkey": "00141ce77695555ecf5250a2eccb54fd9dc0ef4fa5e6",
        "scriptpubkey_asm": "OP_0 OP_PUSHBYTES_20 1ce77695555ecf5250a2eccb54fd9dc0ef4fa5e6",
        "scriptpubkey_type": "v0_p2wpkh",
        "scriptpubkey_address": "bc1qrnnhd924tm84y59zan94flvacrh5lf0x7kz4jm",
        "value": 669165
      },
      "scriptsig": "",
      "scriptsig_asm": "",
      "witness": [
        "3045022100bccc383a12b87314c8daacdf04491340557b23f4f97210edcdf0ad1270b996fb02206b1f57f0902ebc4422ec4f9715848a4b523c3ecb64d37104b22102b3ea80ce7801",
        "034a4877df17ee47c8fac7a6f21046838fb574a8d5e4c8c0b85d44a5f87a8059ce"
      ],
      "is_coinbase": false,
      "sequence": 4294967293
    }
  ],
  "vout": [
    {
      "scriptpubkey": "0014086195bac0a73bb5e0a994232ac8e2789f21ad63",
      "scriptpubkey_asm": "OP_0 OP_PUSHBYTES_20 086195bac0a73bb5e0a994232ac8e2789f21ad63",
      "scriptpubkey_type": "v0_p2wpkh",
      "scriptpubkey_address": "bc1qppsetwkq5uamtc9fjs3j4j8z0z0jrttre7v392",
      "value": 4201315
    }
  ],
  "size": 937,
  "weight": 1798,
  "fee": 4841,
  "status": {
    "confirmed": true,
    "block_height": 834464,
    "block_hash": "0000000000000000000177a0869a911a2b65c9bdcd5a8bcb02b68f305bee848e",
    "block_time": 1710308296
  },
  "hex": "01000000000106d1cc14ee53a5dec54b56daf13feb34ae3008716cff945965164541fa63501f053f01000000fdfffffff31c81d77ce23ab73de75a21eabe3f0db176b569ec0d912ba2df98b206ef7e5fcb00000000fdfffffff41a451b8500919f95c6df7e051c0eeef90d0eec35db31dfe9d5e6a697d51da24e01000000fdffffff17f67ba262dc9b4575e109b97539ec77b28549abe3c48b686bf7187e20a087b06a00000000fdffffff273b6bd33eddbeb7106f43ad0633fb916869b7c21ae03c97ac566b7cfa6fd5dd6a00000000fdffffff601310d5096570a7e13f654c921722a9c9dd1df612c1793600e409da2451b0e57200000000fdffffff01631b400000000000160014086195bac0a73bb5e0a994232ac8e2789f21ad6302483045022100ca048e0d86567ad870ef83b06626ca410988158b8523c708dcbfd9d9af78d1a10220581d561dddf067687a4a4f7b4fe95febc72ccdbbd708d4640607bf10fcaebe480121034a4877df17ee47c8fac7a6f21046838fb574a8d5e4c8c0b85d44a5f87a8059ce02483045022100a64363ac48e5778778af500b3e77f1fbc99e19802f436ae7f66d9dc057281b3c02205700684c75dfc4953636d2441a0c846a2d10f2b4374fcc4b551adf1880b9b80b0121034a4877df17ee47c8fac7a6f21046838fb574a8d5e4c8c0b85d44a5f87a8059ce02483045022100a642a30fca32806cc027380ea16482fe6cd75a60d48129d8186ed812903b1efc02206cb21e90c962e40ccc4e05a1ba8a0ef3552f894730e9b92af85ffdc27ad8715a0121034a4877df17ee47c8fac7a6f21046838fb574a8d5e4c8c0b85d44a5f87a8059ce02483045022100d671a8d040d1b63708c008587f81bbeb4555600bb3fd478de4d75be68bd16a8b02202f376e6261e02713617f2414ff942b169c677c959ef2e0d49d0eec9e2ed7b3230121034a4877df17ee47c8fac7a6f21046838fb574a8d5e4c8c0b85d44a5f87a8059ce02483045022100e377b00f2e980716cc972cc7429f6f8535b3594333d9dab9fe20cc5d8c590df5022011a31905510d08f3fc2d147c0de7188ba82959c7073c2708fe5a006337159cef0121034a4877df17ee47c8fac7a6f21046838fb574a8d5e4c8c0b85d44a5f87a8059ce02483045022100bccc383a12b87314c8daacdf04491340557b23f4f97210edcdf0ad1270b996fb02206b1f57f0902ebc4422ec4f9715848a4b523c3ecb64d37104b22102b3ea80ce780121034a4877df17ee47c8fac7a6f21046838fb574a8d5e4c8c0b85d44a5f87a8059ce00000000"
}