{
  "txid": "4c961e363ec78cf19c98b3fed46508f5643361fccc5682623fc143caf668ae45",
  "version": 1,
  "locktime": 0,
  "vin": [
    {
      "txid": "6cb49f27a2a76c186481d0cbeada6cabc3bbb6acde0a55046b3ff358eac166e1",
      "vout": 1,
      "prevout": {
        "scriptpubkey": "76a9149c6c60fbcd57e024e9fec5433a6d08ea4a80e73088ac",
        "scriptpubkey_asm": "OP_DUP OP_HASH160 OP_PUSHBYTES_20 9c6c60fbcd57e024e9fec5433a6d08ea4a80e730 OP_EQUALVERIFY OP_CHECKSIG",
        "scriptpubkey_type": "p2pkh",
        "scriptpubkey_address": "1FG6FDjTEMe94UmoSnpT6vMkv2i8Meabu9",
        "value": 8674
      },
      "scriptsig": "47304402201fc2896ad6ba1ba786c4a834852568ca6d1737c34d946b1bfc9abfc861587ee10220496151749e978005095a5fdf2063741ac25146ee57b665efd5125027a1968f63012103179f4c8a6202d2d15407a9268bb677849293bc81b4e8bdcab66995c3b4e14b88",
      "scriptsig_asm": "OP_PUSHBYTES_71 304402201fc2896ad6ba1ba786c4a834852568ca6d1737c34d946b1bfc9abfc861587ee10220496151749e978005095a5fdf2063741ac25146ee57b665efd5125027a1968f6301 OP_PUSHBYTES_33 03179f4c8a6202d2d15407a9268bb677849293bc81b4e8bdcab66995c3b4e14b88",
      "is_coinbase": false,
      "sequence": 4294967295
    }
  ],
  "vout": [
    {
      "scriptpubkey": "a914d9c31a1f6172c6a6a0397255a3e93b895ec6cee287",
      "scriptpubkey_asm": "OP_HASH160 OP_PUSHBYTES_20 d9c31a1f6172c6a6a0397255a3e93b895ec6cee2 OP_EQUAL",
      "scriptpubkey_type": "p2sh",
      "scriptpubkey_address": "3MYSH6fQ5JWnAr2v4SeQqwfPgG9ToBScou",
      "value": 6592
    }
  ],
  "size": 189,
  "weight": 756,
  "fee": 2082,
  "status": {
    "confirmed": true,
    "block_height": 834460,
    "block_hash": "00000000000000000000484a79b643b2524bbce82e5d8a442013fa5b8905ed98",
    "block_time": 1710307468
  },
  "hex": "0100000001e166c1ea58f33f6b04550adeacb6bbc3ab6cdaeacbd08164186ca7a2279fb46c010000006a47304402201fc2896ad6ba1ba786c4a834852568ca6d1737c34d946b1bfc9abfc861587ee10220496151749e978005095a5fdf2063741ac25146ee57b665efd5125027a1968f63012103179f4c8a6202d2d15407a9268bb677849293bc81b4e8bdcab66995c3b4e14b88ffffffff01c01900000000000017a914d9c31a1f6172c6a6a0397255a3e93b895ec6cee28700000000"
}