{
  "txid": "4caffc88438ee7df649ae1d50f339d98e418b1dbc96449a2cf0e16a1cb94c67b",
  "version": 2,
  "locktime": 0,
  "vin": [
    {
      "txid": "acc3ba00869acb582a3f2904ce3a11dd3779350ce234063fc7d0959246213364",
      "vout": 45,
      "prevout": {
        "scriptpubkey": "512037afbbd8bb1a7e6ee91f329d57453bc61ebe8dab23c22e0f2f7bb78fe790f32f",
        "scriptpubkey_asm": "OP_PUSHNUM_1 OP_PUSHBYTES_32 37afbbd8bb1a7e6ee91f329d57453bc61ebe8dab23c22e0f2f7bb78fe790f32f",
        "scriptpubkey_type": "v1_p2tr",
        "scriptpubkey_address": "bc1px7hmhk9mrflxa6glx2w4w3fmcc0tardty0pzure00wmcleus7vhs0a7plr",
        "value": 1806
      },
      "scriptsig": "",
      "scriptsig_asm": "",
      "witness": [
        "9afcc8ca1289449f5aa24a346339cae93c116bba00bd04f7890d9f930f133e3f3b402ca9db122bc70ddedc34cb5de923518172efdfc0e25e31a3b7c3af1be211",
        "20093113f919b084c23bcc31d6ce45486bc2195c995a99764f03ede3a199a6b995ac0063036f726401010a746578742f706c61696e00357b2270223a226272632d3230222c226f70223a226d696e74222c227469636b223a22646f6765222c22616d74223a2234323030227d68",
        "c0093113f919b084c23bcc31d6ce45486bc2195c995a99764f03ede3a199a6b995"
      ],
      "is_coinbase": false,
      "sequence": 4261412863
    }
  ],
  "vout": [
    {
      "scriptpubkey": "00147a665de7a370f4c9b372ab1fae587500a5bcbdb4",
      "scriptpubkey_asm": "OP_0 OP_PUSHBYTES_20 7a665de7a370f4c9b372ab1fae587500a5bcbdb4",
      "scriptpubkey_type": "v0_p2wpkh",
      "scriptpubkey_address": "bc1q0fn9mearwr6vnvmj4v06ukr4qzjme0d565dzcx",
      "value": 294
    }
  ],
  "size": 294,
  "weight": 540,
  "fee": 1512,
  "status": {
    "confirmed": true,
    "block_height": 834460,
    "block_hash": "00000000000000000000484a79b643b2524bbce82e5d8a442013fa5b8905ed98",
    "block_time": 1710307468
  },
  "hex": "02000000000101643321469295d0c73f0634e20c357937dd113ace04293f2a58cb9a8600bac3ac2d00000000fffffffd0126010000000000001600147a665de7a370f4c9b372ab1fae587500a5bcbdb403409afcc8ca1289449f5aa24a346339cae93c116bba00bd04f7890d9f930f133e3f3b402ca9db122bc70ddedc34cb5de923518172efdfc0e25e31a3b7c3af1be2116d20093113f919b084c23bcc31d6ce45486bc2195c995a99764f03ede3a199a6b995ac0063036f726401010a746578742f706c61696e00357b2270223a226272632d3230222c226f70223a226d696e74222c227469636b223a22646f6765222c22616d74223a2234323030227d6821c0093113f919b084c23bcc31d6ce45486bc2195c995a99764f03ede3a199a6b99500000000"
}