{
  "txid": "4cbc0cb8dd6754b15e545a0a26a770b31464bc9f070db643adf743f7de00164b",
  "version": 2,
  "locktime": 0,
  "vin": [
    {
      "txid": "63ae3f28afd5d0a929109d69e6dd14c64a5f88e60465d97a08caa06060e15e8f",
      "vout": 29,
      "prevout": {
        "scriptpubkey": "5120896c8a5cd6c9b61bb8084540e8458cb5b150a90999eb4c14e4764ee7bb3bd74a",
        "scriptpubkey_asm": "OP_PUSHNUM_1 OP_PUSHBYTES_32 896c8a5cd6c9b61bb8084540e8458cb5b150a90999eb4c14e4764ee7bb3bd74a",
        "scriptpubkey_type": "v1_p2tr",
        "scriptpubkey_address": "bc1p39kg5hxkexmphwqgg4qws3vvkkc4p2gfn845c98ywe8w0wem6a9qkhh5vz",
        "value": 3055
      },
      "scriptsig": "",
      "scriptsig_asm": "",
      "witness": [
        "a80ce8c7d8d60035222e7ea50059b839aac4581aff5dd7ccaa08ed2d489648626bb71c1f6fb4dba90addd9addf95a37344adf34b195b10cb30ca22600366129f",
        "203598b580b140471f6a273ac527c8dcbe9b46d17e43b1bc9d0fe703ed9b343168ac0063036f726401011e6170706c69636174696f6e2f6a736f6e3b636861727365743d7574662d38004cd37b2270223a22706f772d3230222c226f70223a226d696e74222c227469636b223a2250455045222c22616d74223a2231303030222c22736f6c7574696f6e223a22504550453a626331706a39356d676c663836377961396a32756368377a34647836793635746736373330676e7661796b706b6c77793335757667376a73773033676d713a303030303030303030303030303030303030303139393431613561653132383937363539383134343239323533333030353762306461393666336465613163353a3139353638303931303331227d68",
        "c0ffe2b6185dd514800047a24f9c3d628916daef0b23d9f98ab4cda2a0457a18d1"
      ],
      "is_coinbase": false,
      "sequence": 4294967295
    }
  ],
  "vout": [
    {
      "scriptpubkey": "51209169b47d27d789d2c95cc5fc2ab4da26a8b46bd17a26ce92c1b7dc48d38c47a5",
      "scriptpubkey_asm": "OP_PUSHNUM_1 OP_PUSHBYTES_32 9169b47d27d789d2c95cc5fc2ab4da26a8b46bd17a26ce92c1b7dc48d38c47a5",
      "scriptpubkey_type": "v1_p2tr",
      "scriptpubkey_address": "bc1pj95mglf867ya9j2uch7z4dx6y65tg6730gnvaykpklwy35uvg7jsw03gmq",
      "value": 546
    }
  ],
  "size": 487,
  "weight": 769,
  "fee": 2509,
  "status": {
    "confirmed": true,
    "block_height": 834460,
    "block_hash": "00000000000000000000484a79b643b2524bbce82e5d8a442013fa5b8905ed98",
    "block_time": 1710307468
  },
  "hex": "020000000001018f5ee16060a0ca087ad96504e6885f4ac614dde6699d1029a9d0d5af283fae631d00000000ffffffff0122020000000000002251209169b47d27d789d2c95cc5fc2ab4da26a8b46bd17a26ce92c1b7dc48d38c47a50340a80ce8c7d8d60035222e7ea50059b839aac4581aff5dd7ccaa08ed2d489648626bb71c1f6fb4dba90addd9addf95a37344adf34b195b10cb30ca22600366129ffd2001203598b580b140471f6a273ac527c8dcbe9b46d17e43b1bc9d0fe703ed9b343168ac0063036f726401011e6170706c69636174696f6e2f6a736f6e3b636861727365743d7574662d38004cd37b2270223a22706f772d3230222c226f70223a226d696e74222c227469636b223a2250455045222c22616d74223a2231303030222c22736f6c7574696f6e223a22504550453a626331706a39356d676c663836377961396a32756368377a34647836793635746736373330676e7661796b706b6c77793335757667376a73773033676d713a303030303030303030303030303030303030303139393431613561653132383937363539383134343239323533333030353762306461393666336465613163353a3139353638303931303331227d6821c0ffe2b6185dd514800047a24f9c3d628916daef0b23d9f98ab4cda2a0457a18d100000000"
}