{
  "txid": "4cd076a59bdf4fd1b24f04f17710f8777ccc93c0f5bb4d5076a68697bfb506d6",
  "version": 2,
  "locktime": 0,
  "vin": [
    {
      "txid": "573166c074d1f9d97e74b7e445ae9eee4071bb54005e0e28be99fe4fa5597b23",
      "vout": 37,
      "prevout": {
        "scriptpubkey": "512096eae819e4b2e43aff83b57fc8f6aa8222536eedc28f3d8395d43ac028f664c4",
        "scriptpubkey_asm": "OP_PUSHNUM_1 OP_PUSHBYTES_32 96eae819e4b2e43aff83b57fc8f6aa8222536eedc28f3d8395d43ac028f664c4",
        "scriptpubkey_type": "v1_p2tr",
        "scriptpubkey_address": "bc1pjm4wsx0yktjr4lurk4lu3a42sg39xmhdc28nmqu46savq28kvnzq8nywzx",
        "value": 3055
      },
      "scriptsig": "",
      "scriptsig_asm": "",
      "witness": [
        "f195f7d03f3c8701b02709a0c06f8559e71ae591c353f19589e715e0fc459b56814b0fa1dcabb595c52af9c81f3bbe0a254dfc4aef0fb1ab5466f1bd344ba72d",
        "2057839fd56a7b7d8e3e03c572a231e5fc57f4c2e6299e0ace97e274363a7853adac0063036f726401011e6170706c69636174696f6e2f6a736f6e3b636861727365743d7574662d38004cd37b2270223a22706f772d3230222c226f70223a226d696e74222c227469636b223a2250455045222c22616d74223a2231303030222c22736f6c7574696f6e223a22504550453a6263317070376e727a37746333726c6d6d72373773676a6b6b7561677073323971776830617261393430777a616878666b6d6e61687770717877667139703a303030303030303030303030303030303030303139393431613561653132383937363539383134343239323533333030353762306461393666336465613163353a3133313330303733393035227d68",
        "c1f1b4027b27384657c547a9d6289f3be45ec463ffc50ccbf57ef9c2d60d2b0f32"
      ],
      "is_coinbase": false,
      "sequence": 4294967295
    }
  ],
  "vout": [
    {
      "scriptpubkey": "51200fa631797888ffbd8fde82256b73a80c14503aefe8fa5abdc2edcc9b6e7dbb82",
      "scriptpubkey_asm": "OP_PUSHNUM_1 OP_PUSHBYTES_32 0fa631797888ffbd8fde82256b73a80c14503aefe8fa5abdc2edcc9b6e7dbb82",
      "scriptpubkey_type": "v1_p2tr",
      "scriptpubkey_address": "bc1pp7nrz7tc3rlmmr77sgjkkuagps29qwh0ara940wzahxfkmnahwpqxwfq9p",
      "value": 546
    }
  ],
  "size": 487,
  "weight": 769,
  "fee": 2509,
  "status": {
    "confirmed": true,
    "block_height": 834460,
    "block_hash": "00000000000000000000484a79b643b2524bbce82e5d8a442013fa5b8905ed98",
    "block_time": 1710307468
  },
  "hex": "02000000000101237b59a54ffe99be280e5e0054bb7140ee9eae45e4b7747ed9f9d174c06631572500000000ffffffff0122020000000000002251200fa631797888ffbd8fde82256b73a80c14503aefe8fa5abdc2edcc9b6e7dbb820340f195f7d03f3c8701b02709a0c06f8559e71ae591c353f19589e715e0fc459b56814b0fa1dcabb595c52af9c81f3bbe0a254dfc4aef0fb1ab5466f1bd344ba72dfd20012057839fd56a7b7d8e3e03c572a231e5fc57f4c2e6299e0ace97e274363a7853adac0063036f726401011e6170706c69636174696f6e2f6a736f6e3b636861727365743d7574662d38004cd37b2270223a22706f772d3230222c226f70223a226d696e74222c227469636b223a2250455045222c22616d74223a2231303030222c22736f6c7574696f6e223a22504550453a6263317070376e727a37746333726c6d6d72373773676a6b6b7561677073323971776830617261393430777a616878666b6d6e61687770717877667139703a303030303030303030303030303030303030303139393431613561653132383937363539383134343239323533333030353762306461393666336465613163353a3133313330303733393035227d6821c1f1b4027b27384657c547a9d6289f3be45ec463ffc50ccbf57ef9c2d60d2b0f3200000000"
}