{
  "txid": "4cd6b1524532174128c7556bbaaa5030db9335f63a4d85bfeb5aaf27256ca890",
  "version": 2,
  "locktime": 0,
  "vin": [
    {
      "txid": "68e61387132b94bd5ad87645a0783358db4e4680890c4a0cc9441e0ee4fe6c10",
      "vout": 0,
      "prevout": {
        "scriptpubkey": "0014875af9336fbc101702cd9f88167faf795ee4c908",
        "scriptpubkey_asm": "OP_0 OP_PUSHBYTES_20 875af9336fbc101702cd9f88167faf795ee4c908",
        "scriptpubkey_type": "v0_p2wpkh",
        "scriptpubkey_address": "bc1qsad0jvm0hsgpwqkdn7ypvla0090wfjgg0938rt",
        "value": 1237719
      },
      "scriptsig": "",
      "scriptsig_asm": "",
      "witness": [
        "3044022020338b241d15c72f121d13fc4d8c8bbed085fbff797bc36c3322e90f28dea2ab022043f7de4f307eca0d6482b126288b1ffe6250bdb92c385fc4d87778db2cc354f601",
        "0344b5d50e320a14cea85095ae55a1cbff1e6ce2f7117450bb35c82808d4158a1e"
      ],
      "is_coinbase": false,
      "sequence": 4294967295
    },
    {
      "txid": "c5049df67ae360bb1e91f1236e045e0d32f9ce1521c59af857d302a8c8fd42ca",
      "vout": 42,
      "prevout": {
        "scriptpubkey": "00149ead219c7fb2b85ada3e3ebe1d5f6ec98f26abe6",
        "scriptpubkey_asm": "OP_0 OP_PUSHBYTES_20 9ead219c7fb2b85ada3e3ebe1d5f6ec98f26abe6",
        "scriptpubkey_type": "v0_p2wpkh",
        "scriptpubkey_address": "bc1qn6kjr8rlk2u94k3786lp6hmwex8jd2lx46q6tg",
        "value": 82265232
      },
      "scriptsig": "",
      "scriptsig_asm": "",
      "witness": [
        "3044022035688d32f66cbbf9058f69caeab7f0ad74f36aaec8a40e17c4354dc12bfa1ad802207549a58c9a422cb84d8d1fbb0db1d89e686e7ff7a984ad70d69c82e8388be89d01",
        "02477fa73b751f5f45b8292d9d66b637b3ca00b98b3d76d37fdfabba30f1593b28"
      ],
      "is_coinbase": false,
      "sequence": 4294967295
    }
  ],
  "vout": [
    {
      "scriptpubkey": "0014480847b17bffdec8d324307f43e50ad73e7ddc9f",
      "scriptpubkey_asm": "OP_0 OP_PUSHBYTES_20 480847b17bffdec8d324307f43e50ad73e7ddc9f",
      "scriptpubkey_type": "v0_p2wpkh",
      "scriptpubkey_address": "bc1qfqyy0vtmll0v35eyxpl58eg26ul8mhyl9hwppt",
      "value": 21424
    },
    {
      "scriptpubkey": "0014d8c7b6d55b6986f74099bae1d560a69e09b87936",
      "scriptpubkey_asm": "OP_0 OP_PUSHBYTES_20 d8c7b6d55b6986f74099bae1d560a69e09b87936",
      "scriptpubkey_type": "v0_p2wpkh",
      "scriptpubkey_address": "bc1qmrrmd42mdxr0wsyehtsa2c9xncyms7fk2rwxq2",
      "value": 133843
    },
    {
      "scriptpubkey": "a9140dd54ca2975401d1c83aeda4a1f339f83d281e6e87",
      "scriptpubkey_asm": "OP_HASH160 OP_PUSHBYTES_20 0dd54ca2975401d1c83aeda4a1f339f83d281e6e OP_EQUAL",
      "scriptpubkey_type": "p2sh",
      "scriptpubkey_address": "32xAELUdmzy4c19W8v5AJZsULzDE8fj2hF",
      "value": 28082
    },
    {
      "scriptpubkey": "001454a72324118318985fbd08354692ba226dab06d2",
      "scriptpubkey_asm": "OP_0 OP_PUSHBYTES_20 54a72324118318985fbd08354692ba226dab06d2",
      "scriptpubkey_type": "v0_p2wpkh",
      "scriptpubkey_address": "bc1q2jnjxfq3svvfshaapq65dy46yfk6kpkjj0jehh",
      "value": 13599
    },
    {
      "scriptpubkey": "76a9149b9b3d163b04092787c03bcaa7e33d471884867388ac",
      "scriptpubkey_asm": "OP_DUP OP_HASH160 OP_PUSHBYTES_20 9b9b3d163b04092787c03bcaa7e33d4718848673 OP_EQUALVERIFY OP_CHECKSIG",
      "scriptpubkey_type": "p2pkh",
      "scriptpubkey_address": "1FBmhuKs2fPdRrkTnxPTwunKYDrKBHoPWv",
      "value": 1869680
    },
    {
      "scriptpubkey": "00149a9b3e5343954bacac217b785612523fa5ecf3b1",
      "scriptpubkey_asm": "OP_0 OP_PUSHBYTES_20 9a9b3e5343954bacac217b785612523fa5ecf3b1",
      "scriptpubkey_type": "v0_p2wpkh",
      "scriptpubkey_address": "bc1qn2dnu56rj496etpp0du9vyjj87j7eua3kerr6f",
      "value": 127205
    },
    {
      "scriptpubkey": "76a914b331afd7658fe6cbae8f59d064242b43099ac99a88ac",
      "scriptpubkey_asm": "OP_DUP OP_HASH160 OP_PUSHBYTES_20 b331afd7658fe6cbae8f59d064242b43099ac99a OP_EQUALVERIFY OP_CHECKSIG",
      "scriptpubkey_type": "p2pkh",
      "scriptpubkey_address": "1HLVUeGn8AV5dJCsDWj8oFo8KQGWwBVJSD",
      "value": 135984
    },
    {
      "scriptpubkey": "00145bbf05536429d1c687904139ecc75fcb09873662",
      "scriptpubkey_asm": "OP_0 OP_PUSHBYTES_20 5bbf05536429d1c687904139ecc75fcb09873662",
      "scriptpubkey_type": "v0_p2wpkh",
      "scriptpubkey_address": "bc1qtwls25my98gudpusgyu7e36levycwdnzu29mdq",
      "value": 258398
    },
    {
      "scriptpubkey": "a91449957ca3bb5945cc8a989b19639b6d528f28078587",
      "scriptpubkey_asm": "OP_HASH160 OP_PUSHBYTES_20 49957ca3bb5945cc8a989b19639b6d528f280785 OP_EQUAL",
      "scriptpubkey_type": "p2sh",
      "scriptpubkey_address": "38Q6L5ShnfPYUHy5euDB98KqaV4hMekzcL",
      "value": 95199
    },
    {
      "scriptpubkey": "0014d949218060c42c64d8257ef5087bfad0add51ea2",
      "scriptpubkey_asm": "OP_0 OP_PUSHBYTES_20 d949218060c42c64d8257ef5087bfad0add51ea2",
      "scriptpubkey_type": "v0_p2wpkh",
      "scriptpubkey_address": "bc1qm9yjrqrqcskxfkp90m6ss7l66zka284z0kfejj",
      "value": 47877
    },
    {
      "scriptpubkey": "76a9141f95f4892b790a6269db455605d7fd345f50e79988ac",
      "scriptpubkey_asm": "OP_DUP OP_HASH160 OP_PUSHBYTES_20 1f95f4892b790a6269db455605d7fd345f50e799 OP_EQUALVERIFY OP_CHECKSIG",
      "scriptpubkey_type": "p2pkh",
      "scriptpubkey_address": "13t1b23PXkprgnoSYqjdDLzRKxWuPcTcy1",
      "value": 2293822
    },
    {
      "scriptpubkey": "a91496d6a3c36b4b39757c85ac8db0aa707f50fa418187",
      "scriptpubkey_asm": "OP_HASH160 OP_PUSHBYTES_20 96d6a3c36b4b39757c85ac8db0aa707f50fa4181 OP_EQUAL",
      "scriptpubkey_type": "p2sh",
      "scriptpubkey_address": "3FSaQkEMQdU41p1pSj4RUmhMJH2wnm976y",
      "value": 124639
    },
    {
      "scriptpubkey": "0020b73a8296cc694a40338325f723af6e2b9fc3d57fd212bc5ce37f46bcd2edbc70",
      "scriptpubkey_asm": "OP_0 OP_PUSHBYTES_32 b73a8296cc694a40338325f723af6e2b9fc3d57fd212bc5ce37f46bcd2edbc70",
      "scriptpubkey_type": "v0_p2wsh",
      "scriptpubkey_address": "bc1qkuag99kvd99yqvuryhmj8tmw9w0u84tl6gftch8r0arte5hdh3cqun7put",
      "value": 37303
    },
    {
      "scriptpubkey": "a9149b7b0764ce69588a71f620538d0b9985e588b1cd87",
      "scriptpubkey_asm": "OP_HASH160 OP_PUSHBYTES_20 9b7b0764ce69588a71f620538d0b9985e588b1cd OP_EQUAL",
      "scriptpubkey_type": "p2sh",
      "scriptpubkey_address": "3Fs83USwcRUxuxo9t6Hex1CKjAMdRyJxRh",
      "value": 180275
    },
    {
      "scriptpubkey": "00145be69113943c6b0ead12f42b99782b6c1ce5460f",
      "scriptpubkey_asm": "OP_0 OP_PUSHBYTES_20 5be69113943c6b0ead12f42b99782b6c1ce5460f",
      "scriptpubkey_type": "v0_p2wpkh",
      "scriptpubkey_address": "bc1qt0nfzyu5834satgj7s4ej7ptdsww23s0rj94wy",
      "value": 22759
    },
    {
      "scriptpubkey": "a9142008d28963d83cbffcb7517d88dcf1a523ef2ab087",
      "scriptpubkey_asm": "OP_HASH160 OP_PUSHBYTES_20 2008d28963d83cbffcb7517d88dcf1a523ef2ab0 OP_EQUAL",
      "scriptpubkey_type": "p2sh",
      "scriptpubkey_address": "34cQ7g3jpMxDb1ME4iWTrwyHXe4nGLSfAr",
      "value": 74342
    },
    {
      "scriptpubkey": "a914f956ad5c7aa829eedd064e340b68fe3d24b8c5e587",
      "scriptpubkey_asm": "OP_HASH160 OP_PUSHBYTES_20 f956ad5c7aa829eedd064e340b68fe3d24b8c5e5 OP_EQUAL",
      "scriptpubkey_type": "p2sh",
      "scriptpubkey_address": "3QRQ1kFFzd3fSU5JKyNpF97JGfjSKikoMe",
      "value": 100000
    },
    {
      "scriptpubkey": "0014a8e4f30b21c2b416a0d465f0517ca88a4c6455be",
      "scriptpubkey_asm": "OP_0 OP_PUSHBYTES_20 a8e4f30b21c2b416a0d465f0517ca88a4c6455be",
      "scriptpubkey_type": "v0_p2wpkh",
      "scriptpubkey_address": "bc1q4rj0xzepc26pdgx5vhc9zl9g3fxxg4d7yse6ld",
      "value": 61183
    },
    {
      "scriptpubkey": "a914a0a99a943f29a87f558240fa93fb1de06a65dd8c87",
      "scriptpubkey_asm": "OP_HASH160 OP_PUSHBYTES_20 a0a99a943f29a87f558240fa93fb1de06a65dd8c OP_EQUAL",
      "scriptpubkey_type": "p2sh",
      "scriptpubkey_address": "3GLXDWwFehC8ZVRevjZyjnyW6zQo3SQ1sT",
      "value": 226446
    },
    {
      "scriptpubkey": "00145ff4eaaad6f94ce906ac3466e6560631df101134",
      "scriptpubkey_asm": "OP_0 OP_PUSHBYTES_20 5ff4eaaad6f94ce906ac3466e6560631df101134",
      "scriptpubkey_type": "v0_p2wpkh",
      "scriptpubkey_address": "bc1qtl6w42kkl9xwjp4vx3nwv4sxx803qyf54mfejp",
      "value": 85243
    },
    {
      "scriptpubkey": "a9147b16f40330c9efa5bdb075f3ec8addd4eb723bfa87",
      "scriptpubkey_asm": "OP_HASH160 OP_PUSHBYTES_20 7b16f40330c9efa5bdb075f3ec8addd4eb723bfa OP_EQUAL",
      "scriptpubkey_type": "p2sh",
      "scriptpubkey_address": "3CurXxFN2GnoLmtuskpNMiaESdZdWLsz2J",
      "value": 40000
    },
    {
      "scriptpubkey": "a914d83372fbcdc7dfab15600d46b0bfb9b91cf7886687",
      "scriptpubkey_asm": "OP_HASH160 OP_PUSHBYTES_20 d83372fbcdc7dfab15600d46b0bfb9b91cf78866 OP_EQUAL",
      "scriptpubkey_type": "p2sh",
      "scriptpubkey_address": "3MQBWjEpoqT3sWYYhBgwrp4DZXFJf9ziEP",
      "value": 260055
    },
    {
      "scriptpubkey": "0014e434eb0758b803a7d24b3feecfc909e2f6b35674",
      "scriptpubkey_asm": "OP_0 OP_PUSHBYTES_20 e434eb0758b803a7d24b3feecfc909e2f6b35674",
      "scriptpubkey_type": "v0_p2wpkh",
      "scriptpubkey_address": "bc1qus6wkp6chqp605jt8lhvljgfutmtx4n5gmz8ez",
      "value": 500152
    },
    {
      "scriptpubkey": "76a9148fcb739f0736a938cd4187fae79ebab060c9cafe88ac",
      "scriptpubkey_asm": "OP_DUP OP_HASH160 OP_PUSHBYTES_20 8fcb739f0736a938cd4187fae79ebab060c9cafe OP_EQUALVERIFY OP_CHECKSIG",
      "scriptpubkey_type": "p2pkh",
      "scriptpubkey_address": "1E7KMVzdQ2KmXE6TmE9yHct1SQLunakNfa",
      "value": 353588
    },
    {
      "scriptpubkey": "0014807f9234535bf3c29aa84e5563740e9dfa12d7bc",
      "scriptpubkey_asm": "OP_0 OP_PUSHBYTES_20 807f9234535bf3c29aa84e5563740e9dfa12d7bc",
      "scriptpubkey_type": "v0_p2wpkh",
      "scriptpubkey_address": "bc1qspleydznt0eu9x4gfe2kxaqwnhap94autgz9mu",
      "value": 135940
    },
    {
      "scriptpubkey": "a91449102a1b75f01de376235da435bc18cbb19d3f6687",
      "scriptpubkey_asm": "OP_HASH160 OP_PUSHBYTES_20 49102a1b75f01de376235da435bc18cbb19d3f66 OP_EQUAL",
      "scriptpubkey_type": "p2sh",
      "scriptpubkey_address": "38MLcg7m5o6PCaNBPdpKGJe6VwXhm6ze1H",
      "value": 27198
    },
    {
      "scriptpubkey": "76a914f253ae6caf33a53fcc9fa874eee92a4d1ece009b88ac",
      "scriptpubkey_asm": "OP_DUP OP_HASH160 OP_PUSHBYTES_20 f253ae6caf33a53fcc9fa874eee92a4d1ece009b OP_EQUALVERIFY OP_CHECKSIG",
      "scriptpubkey_type": "p2pkh",
      "scriptpubkey_address": "1P6Jmhsxyos7diSHL1C6ZMVL7QkXQarMcC",
      "value": 160625
    },
    {
      "scriptpubkey": "00140027be36400b2b8b40047aa6e5d9bb124a53c4ee",
      "scriptpubkey_asm": "OP_0 OP_PUSHBYTES_20 0027be36400b2b8b40047aa6e5d9bb124a53c4ee",
      "scriptpubkey_type": "v0_p2wpkh",
      "scriptpubkey_address": "bc1qqqnmudjqpv4cksqy02nwtkdmzf99838w7ph8mh",
      "value": 13733
    },
    {
      "scriptpubkey": "a914832556c7c9425ed755006d32f4495ec9d4d1f28e87",
      "scriptpubkey_asm": "OP_HASH160 OP_PUSHBYTES_20 832556c7c9425ed755006d32f4495ec9d4d1f28e OP_EQUAL",
      "scriptpubkey_type": "p2sh",
      "scriptpubkey_address": "3DeTB2o7x4qb769afWcnKTSPhnx9i9jUr4",
      "value": 47883
    },
    {
      "scriptpubkey": "a9147d295ccac03e6912f75c4a88a17fb05f96b142a187",
      "scriptpubkey_asm": "OP_HASH160 OP_PUSHBYTES_20 7d295ccac03e6912f75c4a88a17fb05f96b142a1 OP_EQUAL",
      "scriptpubkey_type": "p2sh",
      "scriptpubkey_address": "3D6owSKDhVRV5czP88ywFFKV418ehvc4s9",
      "value": 333815
    },
    {
      "scriptpubkey": "00148bc4b6df0ad4b34f1f5b111308e89cf7ed9d0d22",
      "scriptpubkey_asm": "OP_0 OP_PUSHBYTES_20 8bc4b6df0ad4b34f1f5b111308e89cf7ed9d0d22",
      "scriptpubkey_type": "v0_p2wpkh",
      "scriptpubkey_address": "bc1q30ztdhc26je5786mzyfs36yu7lke6rfzr7z74p",
      "value": 28046
    },
    {
      "scriptpubkey": "76a9141b57ffc886f1b782b0efb9366c3643abebd7a2c688ac",
      "scriptpubkey_asm": "OP_DUP OP_HASH160 OP_PUSHBYTES_20 1b57ffc886f1b782b0efb9366c3643abebd7a2c6 OP_EQUALVERIFY OP_CHECKSIG",
      "scriptpubkey_type": "p2pkh",
      "scriptpubkey_address": "13VafU8gYAyodQ4Bys2Mu4zGMRi6H4Pr7x",
      "value": 28043
    },
    {
      "scriptpubkey": "002026b064b254d183635812f7ea873eea308cb98ea6c7e560d9a8291d922f2ecc83",
      "scriptpubkey_asm": "OP_0 OP_PUSHBYTES_32 26b064b254d183635812f7ea873eea308cb98ea6c7e560d9a8291d922f2ecc83",
      "scriptpubkey_type": "v0_p2wsh",
      "scriptpubkey_address": "bc1qy6cxfvj56xpkxkqj7l4gw0h2xzxtnr4xcljkpkdg9yweytewejpsvu20ll",
      "value": 1390773
    },
    {
      "scriptpubkey": "a91424e443788e12af440bb879d9c37cfbe46537e83a87",
      "scriptpubkey_asm": "OP_HASH160 OP_PUSHBYTES_20 24e443788e12af440bb879d9c37cfbe46537e83a OP_EQUAL",
      "scriptpubkey_type": "p2sh",
      "scriptpubkey_address": "3545hUn3KMa9xGxBSGUFYgtRgcYcZvL9RX",
      "value": 8216
    },
    {
      "scriptpubkey": "001450a2a4548693e2a44a40df0825d0fe46e3716d21",
      "scriptpubkey_asm": "OP_0 OP_PUSHBYTES_20 50a2a4548693e2a44a40df0825d0fe46e3716d21",
      "scriptpubkey_type": "v0_p2wpkh",
      "scriptpubkey_address": "bc1q2z32g4yxj032gjjqmuyzt587gm3hzmfp43wv9t",
      "value": 127825
    },
    {
      "scriptpubkey": "0014280e652b2a475856bcf312f0b5783d9ba9fc7a49",
      "scriptpubkey_asm": "OP_0 OP_PUSHBYTES_20 280e652b2a475856bcf312f0b5783d9ba9fc7a49",
      "scriptpubkey_type": "v0_p2wpkh",
      "scriptpubkey_address": "bc1q9q8x22e2gav9d08nztct27panw5lc7jfrwzerd",
      "value": 27184
    },
    {
      "scriptpubkey": "00147f1930b072d433e42a3072db320a4b72b623385e",
      "scriptpubkey_asm": "OP_0 OP_PUSHBYTES_20 7f1930b072d433e42a3072db320a4b72b623385e",
      "scriptpubkey_type": "v0_p2wpkh",
      "scriptpubkey_address": "bc1q0uvnpvrj6se7g23swtdnyzjtw2mzxwz75nzj48",
      "value": 67971
    },
    {
      "scriptpubkey": "00145f9edf43fae1489606fd821a367220d85d1f274d",
      "scriptpubkey_asm": "OP_0 OP_PUSHBYTES_20 5f9edf43fae1489606fd821a367220d85d1f274d",
      "scriptpubkey_type": "v0_p2wpkh",
      "scriptpubkey_address": "bc1qt70d7sl6u9yfvphasgdrvu3qmpw37f6dxakzqv",
      "value": 127253
    },
    {
      "scriptpubkey": "a91495d8a7ccf6e44b148f8af4e38989cc002f88a4db87",
      "scriptpubkey_asm": "OP_HASH160 OP_PUSHBYTES_20 95d8a7ccf6e44b148f8af4e38989cc002f88a4db OP_EQUAL",
      "scriptpubkey_type": "p2sh",
      "scriptpubkey_address": "3FML9cUpY1zMfbALVTC1m9CHS7BGvV1rmf",
      "value": 193770
    },
    {
      "scriptpubkey": "0014e14ee687a7d2c58ae7abdd2cdc8c61c9484c6722",
      "scriptpubkey_asm": "OP_0 OP_PUSHBYTES_20 e14ee687a7d2c58ae7abdd2cdc8c61c9484c6722",
      "scriptpubkey_type": "v0_p2wpkh",
      "scriptpubkey_address": "bc1qu98wdpa86tzc4eatm5kderrpe9yyceezqjj02n",
      "value": 127254
    },
    {
      "scriptpubkey": "76a914a2c5828c7361a3d2928d69895d22b3a22ac3e59e88ac",
      "scriptpubkey_asm": "OP_DUP OP_HASH160 OP_PUSHBYTES_20 a2c5828c7361a3d2928d69895d22b3a22ac3e59e OP_EQUALVERIFY OP_CHECKSIG",
      "scriptpubkey_type": "p2pkh",
      "scriptpubkey_address": "1Fqf5Juu4ATGpy5bUVj6fyHneQpVqrsR2B",
      "value": 265004
    },
    {
      "scriptpubkey": "76a91438dcab0f5aae6ae591d1b09144d15601385a8bec88ac",
      "scriptpubkey_asm": "OP_DUP OP_HASH160 OP_PUSHBYTES_20 38dcab0f5aae6ae591d1b09144d15601385a8bec OP_EQUALVERIFY OP_CHECKSIG",
      "scriptpubkey_type": "p2pkh",
      "scriptpubkey_address": "16BfC3CynMPZjZGUhs1eSotvGng6dFdKxf",
      "value": 34666
    },
    {
      "scriptpubkey": "0014cd5a4d4a3cf25d378da072b30bd47f667b4a1b18",
      "scriptpubkey_asm": "OP_0 OP_PUSHBYTES_20 cd5a4d4a3cf25d378da072b30bd47f667b4a1b18",
      "scriptpubkey_type": "v0_p2wpkh",
      "scriptpubkey_address": "bc1qe4dy6j3u7fwn0rdqw2esh4rlvea55xcc3aulkf",
      "value": 59493782
    },
    {
      "scriptpubkey": "00149cb0fd507d64912c592b5b990b4fc54ebe9486e6",
      "scriptpubkey_asm": "OP_0 OP_PUSHBYTES_20 9cb0fd507d64912c592b5b990b4fc54ebe9486e6",
      "scriptpubkey_type": "v0_p2wpkh",
      "scriptpubkey_address": "bc1qnjc065ravjgjckfttwvskn79f6lffphxavy722",
      "value": 1521953
    },
    {
      "scriptpubkey": "a91490040ecbc7d25bf353d9c176ef5296ef54f9a6bb87",
      "scriptpubkey_asm": "OP_HASH160 OP_PUSHBYTES_20 90040ecbc7d25bf353d9c176ef5296ef54f9a6bb OP_EQUAL",
      "scriptpubkey_type": "p2sh",
      "scriptpubkey_address": "3EpW67DbT28TtDdK3hZdxhvLAWV8gP17py",
      "value": 83603
    },
    {
      "scriptpubkey": "a91435295d20bdba94257d9088888ce117eda514926787",
      "scriptpubkey_asm": "OP_HASH160 OP_PUSHBYTES_20 35295d20bdba94257d9088888ce117eda5149267 OP_EQUAL",
      "scriptpubkey_type": "p2sh",
      "scriptpubkey_address": "36Y7HiX3Qc9EbeHcMZoNgaTABGTCmcVvJK",
      "value": 163184
    },
    {
      "scriptpubkey": "0014932c27dfb866f165fde73d538df997f7c6379ab9",
      "scriptpubkey_asm": "OP_0 OP_PUSHBYTES_20 932c27dfb866f165fde73d538df997f7c6379ab9",
      "scriptpubkey_type": "v0_p2wpkh",
      "scriptpubkey_address": "bc1qjvkz0hacvmcktl0884fcm7vh7lrr0x4e4yvhf6",
      "value": 133580
    },
    {
      "scriptpubkey": "a914575166031b87a39d749928d4b97663aeaf9ec08187",
      "scriptpubkey_asm": "OP_HASH160 OP_PUSHBYTES_20 575166031b87a39d749928d4b97663aeaf9ec081 OP_EQUAL",
      "scriptpubkey_type": "p2sh",
      "scriptpubkey_address": "39eiDu66VJfx3CG368wxgKSYPBerwJrQkN",
      "value": 127164
    },
    {
      "scriptpubkey": "a914c5f79eb55f88ab9cab0c9f7aa269cac18472803b87",
      "scriptpubkey_asm": "OP_HASH160 OP_PUSHBYTES_20 c5f79eb55f88ab9cab0c9f7aa269cac18472803b OP_EQUAL",
      "scriptpubkey_type": "p2sh",
      "scriptpubkey_address": "3KjmgGe2k4Bhx5h3jxYYg9Tznbce5Lp3gM",
      "value": 339960
    },
    {
      "scriptpubkey": "76a914a71e6f437c6aed5ff4292726f67c049d76822f2588ac",
      "scriptpubkey_asm": "OP_DUP OP_HASH160 OP_PUSHBYTES_20 a71e6f437c6aed5ff4292726f67c049d76822f25 OP_EQUALVERIFY OP_CHECKSIG",
      "scriptpubkey_type": "p2pkh",
      "scriptpubkey_address": "1GEeJftCmFbqEsSUayRDAGqfdfbBSLQDEQ",
      "value": 207030
    },
    {
      "scriptpubkey": "5120c63267f21e1772f42afc73a445d59357231979506a5a4def5a399a1b3207dc16",
      "scriptpubkey_asm": "OP_PUSHNUM_1 OP_PUSHBYTES_32 c63267f21e1772f42afc73a445d59357231979506a5a4def5a399a1b3207dc16",
      "scriptpubkey_type": "v1_p2tr",
      "scriptpubkey_address": "bc1pccex0us7zae0g2huwwjyt4vn2u33j72sdfdymm668xdpkvs8mstq9erq6g",
      "value": 259995
    },
    {
      "scriptpubkey": "001409e216c78cdfce9e485fafc80c6e1e8c81a16e24",
      "scriptpubkey_asm": "OP_0 OP_PUSHBYTES_20 09e216c78cdfce9e485fafc80c6e1e8c81a16e24",
      "scriptpubkey_type": "v0_p2wpkh",
      "scriptpubkey_address": "bc1qp83pd3uvml8fujzl4lyqcms73jq6zm3y6ntgcv",
      "value": 61158
    },
    {
      "scriptpubkey": "76a914763621a564cd84dcd579e2ce6e39359903f8425d88ac",
      "scriptpubkey_asm": "OP_DUP OP_HASH160 OP_PUSHBYTES_20 763621a564cd84dcd579e2ce6e39359903f8425d OP_EQUALVERIFY OP_CHECKSIG",
      "scriptpubkey_type": "p2pkh",
      "scriptpubkey_address": "1Bn3akiNz5r7WFoVVT6C62BLKKe2cr1Wt9",
      "value": 110056
    },
    {
      "scriptpubkey": "a914107eb35254e9edc8f56b23f652e8790a0cdf7d3187",
      "scriptpubkey_asm": "OP_HASH160 OP_PUSHBYTES_20 107eb35254e9edc8f56b23f652e8790a0cdf7d31 OP_EQUAL",
      "scriptpubkey_type": "p2sh",
      "scriptpubkey_address": "33CEWv6x1H1D7wywT6eim9KxQ1NAyq2HVe",
      "value": 34656
    },
    {
      "scriptpubkey": "0020ab5e78a79eac4b201f7d9e165ec5c86d78bdd183d691dad061f2b74dbb54092c",
      "scriptpubkey_asm": "OP_0 OP_PUSHBYTES_32 ab5e78a79eac4b201f7d9e165ec5c86d78bdd183d691dad061f2b74dbb54092c",
      "scriptpubkey_type": "v0_p2wsh",
      "scriptpubkey_address": "bc1q4d083fu7439jq8manct9a3wgd4utm5vr66ga45rp72m5mw65pykqm6cde4",
      "value": 107400
    },
    {
      "scriptpubkey": "a9147cb752d6886f3a5c3cc97ce94fd22f64794b01b287",
      "scriptpubkey_asm": "OP_HASH160 OP_PUSHBYTES_20 7cb752d6886f3a5c3cc97ce94fd22f64794b01b2 OP_EQUAL",
      "scriptpubkey_type": "p2sh",
      "scriptpubkey_address": "3D4TKsomAixJWuZNDv4vibnYpMLaLV4sJ9",
      "value": 28063
    },
    {
      "scriptpubkey": "76a914642a68c9dacb6287b288d0854c8a76359558950388ac",
      "scriptpubkey_asm": "OP_DUP OP_HASH160 OP_PUSHBYTES_20 642a68c9dacb6287b288d0854c8a763595589503 OP_EQUALVERIFY OP_CHECKSIG",
      "scriptpubkey_type": "p2pkh",
      "scriptpubkey_address": "1A8dNqRnHPL7FUR9VsQtkYaGbQxSbonnoX",
      "value": 98146
    },
    {
      "scriptpubkey": "76a914e704acda95484e06d6c64328d151e6af6d2241f388ac",
      "scriptpubkey_asm": "OP_DUP OP_HASH160 OP_PUSHBYTES_20 e704acda95484e06d6c64328d151e6af6d2241f3 OP_EQUALVERIFY OP_CHECKSIG",
      "scriptpubkey_type": "p2pkh",
      "scriptpubkey_address": "1N4Wh9pnEvaC2ZN2Z66pdzSmfPPX5YGXpb",
      "value": 40770
    },
    {
      "scriptpubkey": "0014b482c194efe3e3ea3c7910946f6d83d8864fcb63",
      "scriptpubkey_asm": "OP_0 OP_PUSHBYTES_20 b482c194efe3e3ea3c7910946f6d83d8864fcb63",
      "scriptpubkey_type": "v0_p2wpkh",
      "scriptpubkey_address": "bc1qkjpvr980u03750rezz2x7mvrmzryljmrqch0xy",
      "value": 134534
    },
    {
      "scriptpubkey": "00147c9b9a7ca086cc5b1d24a78bf601b8b37b907fcb",
      "scriptpubkey_asm": "OP_0 OP_PUSHBYTES_20 7c9b9a7ca086cc5b1d24a78bf601b8b37b907fcb",
      "scriptpubkey_type": "v0_p2wpkh",
      "scriptpubkey_address": "bc1q0jde5l9qsmx9k8fy579lvqdckdaeql7tfan02d",
      "value": 725636
    },
    {
      "scriptpubkey": "00143503da470af153b93906cbb3f62ac91744b339cb",
      "scriptpubkey_asm": "OP_0 OP_PUSHBYTES_20 3503da470af153b93906cbb3f62ac91744b339cb",
      "scriptpubkey_type": "v0_p2wpkh",
      "scriptpubkey_address": "bc1qx5pa53c279fmjwgxewelv2kfzaztxwwt75pz52",
      "value": 136000
    },
    {
      "scriptpubkey": "0014fadd7172a043cb6872690e347665b8bb0669b1d7",
      "scriptpubkey_asm": "OP_0 OP_PUSHBYTES_20 fadd7172a043cb6872690e347665b8bb0669b1d7",
      "scriptpubkey_type": "v0_p2wpkh",
      "scriptpubkey_address": "bc1qltwhzu4qg09ksunfpc68vedchvrxnvwhtrxzmd",
      "value": 113955
    },
    {
      "scriptpubkey": "a914b96190081d41cd46675be1714694db290bfddb1e87",
      "scriptpubkey_asm": "OP_HASH160 OP_PUSHBYTES_20 b96190081d41cd46675be1714694db290bfddb1e OP_EQUAL",
      "scriptpubkey_type": "p2sh",
      "scriptpubkey_address": "3JbDooVGfxs7UhR7xFBWotmpYYSRx7WQB6",
      "value": 26745
    },
    {
      "scriptpubkey": "a914fcb9e1d278431f20548de1d77f88877932c655bc87",
      "scriptpubkey_asm": "OP_HASH160 OP_PUSHBYTES_20 fcb9e1d278431f20548de1d77f88877932c655bc OP_EQUAL",
      "scriptpubkey_type": "p2sh",
      "scriptpubkey_address": "3QjJtCcMkeaSkJxsMFwLx1Eu6hisDEeVRU",
      "value": 725745
    },
    {
      "scriptpubkey": "76a914e057797972e8a9c7777b31dd8d4fe174e5e1810788ac",
      "scriptpubkey_asm": "OP_DUP OP_HASH160 OP_PUSHBYTES_20 e057797972e8a9c7777b31dd8d4fe174e5e18107 OP_EQUALVERIFY OP_CHECKSIG",
      "scriptpubkey_type": "p2pkh",
      "scriptpubkey_address": "1MTD9oidjeH6V5umKRPPnHqf9yVfpcHqEm",
      "value": 90000
    },
    {
      "scriptpubkey": "0014c5823dbcfda41c712aa9a29556952c51f430fa04",
      "scriptpubkey_asm": "OP_0 OP_PUSHBYTES_20 c5823dbcfda41c712aa9a29556952c51f430fa04",
      "scriptpubkey_type": "v0_p2wpkh",
      "scriptpubkey_address": "bc1qckprm08a5sw8z24f5224d9fv286rp7syupkx93",
      "value": 94190
    },
    {
      "scriptpubkey": "76a91479c2022a72902c62afda97098cd2e8e49246c60488ac",
      "scriptpubkey_asm": "OP_DUP OP_HASH160 OP_PUSHBYTES_20 79c2022a72902c62afda97098cd2e8e49246c604 OP_EQUALVERIFY OP_CHECKSIG",
      "scriptpubkey_type": "p2pkh",
      "scriptpubkey_address": "1C6oBA2VH2rSMDPskg19b3dV2Y5oKdpBj9",
      "value": 33990
    },
    {
      "scriptpubkey": "00141abc8888c2029d7f589947a3f06c4d5feda1c9af",
      "scriptpubkey_asm": "OP_0 OP_PUSHBYTES_20 1abc8888c2029d7f589947a3f06c4d5feda1c9af",
      "scriptpubkey_type": "v0_p2wpkh",
      "scriptpubkey_address": "bc1qr27g3zxzq2wh7kyeg73lqmzdtlk6rjd08v7rkn",
      "value": 101991
    },
    {
      "scriptpubkey": "76a914dc3abe0e380923ef3658aa6aff0ff609325a8c3b88ac",
      "scriptpubkey_asm": "OP_DUP OP_HASH160 OP_PUSHBYTES_20 dc3abe0e380923ef3658aa6aff0ff609325a8c3b OP_EQUALVERIFY OP_CHECKSIG",
      "scriptpubkey_type": "p2pkh",
      "scriptpubkey_address": "1M5U2hQ42nYR2V8FL2LxP6h6SJdBH3vx4E",
      "value": 410000
    },
    {
      "scriptpubkey": "00144bb8541092214b6f8cabe7508d8633988f89ab6f",
      "scriptpubkey_asm": "OP_0 OP_PUSHBYTES_20 4bb8541092214b6f8cabe7508d8633988f89ab6f",
      "scriptpubkey_type": "v0_p2wpkh",
      "scriptpubkey_address": "bc1qfwu9gyyjy99klr9tuaggmp3nnz8cn2m0j2v23n",
      "value": 27197
    },
    {
      "scriptpubkey": "00140653cd6eee1c6528c6af2cffc049737f923a7d7f",
      "scriptpubkey_asm": "OP_0 OP_PUSHBYTES_20 0653cd6eee1c6528c6af2cffc049737f923a7d7f",
      "scriptpubkey_type": "v0_p2wpkh",
      "scriptpubkey_address": "bc1qqefu6mhwr3jj33409nluqjtn07fr5ltlvaypv6",
      "value": 24474
    },
    {
      "scriptpubkey": "a914ec23de091ebba8608e2ca7ea7eebd93a8d272d2f87",
      "scriptpubkey_asm": "OP_HASH160 OP_PUSHBYTES_20 ec23de091ebba8608e2ca7ea7eebd93a8d272d2f OP_EQUAL",
      "scriptpubkey_type": "p2sh",
      "scriptpubkey_address": "3PDcMvPSCqVBHEhQcaj6K7MBethYGHha6C",
      "value": 27197
    },
    {
      "scriptpubkey": "001491a02c8fbfd1e08066394bcc534fe95ff3a4f7dd",
      "scriptpubkey_asm": "OP_0 OP_PUSHBYTES_20 91a02c8fbfd1e08066394bcc534fe95ff3a4f7dd",
      "scriptpubkey_type": "v0_p2wpkh",
      "scriptpubkey_address": "bc1qjxszeral68sgqe3ef0x9xnlftle6fa7aa8utw2",
      "value": 35367
    },
    {
      "scriptpubkey": "76a914da29bce7066641be5b4713335b93a45faed1df0a88ac",
      "scriptpubkey_asm": "OP_DUP OP_HASH160 OP_PUSHBYTES_20 da29bce7066641be5b4713335b93a45faed1df0a OP_EQUALVERIFY OP_CHECKSIG",
      "scriptpubkey_type": "p2pkh",
      "scriptpubkey_address": "1LtYJpWhu8HEiUdQvHzSzumaZYVF3yYYx8",
      "value": 2460577
    },
    {
      "scriptpubkey": "a9146dbdaee69cb8b23f5809c48b65ef218f3a67243987",
      "scriptpubkey_asm": "OP_HASH160 OP_PUSHBYTES_20 6dbdaee69cb8b23f5809c48b65ef218f3a672439 OP_EQUAL",
      "scriptpubkey_type": "p2sh",
      "scriptpubkey_address": "3BhGoschgBpLpPf2pe74niUukAyn75rCZP",
      "value": 32016
    },
    {
      "scriptpubkey": "001456d7f6a4eef50a8791bec9c01877ae9d946d631b",
      "scriptpubkey_asm": "OP_0 OP_PUSHBYTES_20 56d7f6a4eef50a8791bec9c01877ae9d946d631b",
      "scriptpubkey_type": "v0_p2wpkh",
      "scriptpubkey_address": "bc1q2mtldf8w759g0yd7e8qpsaawnk2x6ccmpj5qux",
      "value": 80966
    },
    {
      "scriptpubkey": "76a91496558ff10bf66a0b7c67a20d7b34015bc012279288ac",
      "scriptpubkey_asm": "OP_DUP OP_HASH160 OP_PUSHBYTES_20 96558ff10bf66a0b7c67a20d7b34015bc0122792 OP_EQUALVERIFY OP_CHECKSIG",
      "scriptpubkey_type": "p2pkh",
      "scriptpubkey_address": "1EhtrkEdkZr6qTsQtFiwS7rJrVJ7ma1HQm",
      "value": 1021220
    },
    {
      "scriptpubkey": "0014b29ea78c2a8d548e5d11c0ac2bda4fea7d688a91",
      "scriptpubkey_asm": "OP_0 OP_PUSHBYTES_20 b29ea78c2a8d548e5d11c0ac2bda4fea7d688a91",
      "scriptpubkey_type": "v0_p2wpkh",
      "scriptpubkey_address": "bc1qk2020rp2342guhg3czkzhkj0af7k3z53t9el77",
      "value": 1322083
    },
    {
      "scriptpubkey": "76a9141a93bd35e85095182e60bd3f9aa8594551e3442788ac",
      "scriptpubkey_asm": "OP_DUP OP_HASH160 OP_PUSHBYTES_20 1a93bd35e85095182e60bd3f9aa8594551e34427 OP_EQUALVERIFY OP_CHECKSIG",
      "scriptpubkey_type": "p2pkh",
      "scriptpubkey_address": "13RXZ5fkCVU8jTdBiADrbYsmMnvcRBp4JJ",
      "value": 8153
    },
    {
      "scriptpubkey": "00142807eb08f9902a2acd080242a15e7b3eea474b83",
      "scriptpubkey_asm": "OP_0 OP_PUSHBYTES_20 2807eb08f9902a2acd080242a15e7b3eea474b83",
      "scriptpubkey_type": "v0_p2wpkh",
      "scriptpubkey_address": "bc1q9qr7kz8ejq4z4nggqfp2zhnm8m4ywjurz8ymtd",
      "value": 792049
    },
    {
      "scriptpubkey": "0014ce5e197e24d250b9adab52b7543eb9ac6d2005c4",
      "scriptpubkey_asm": "OP_0 OP_PUSHBYTES_20 ce5e197e24d250b9adab52b7543eb9ac6d2005c4",
      "scriptpubkey_type": "v0_p2wpkh",
      "scriptpubkey_address": "bc1qee0pjl3y6fgtntdt22m4g04e43kjqpwyqtgv4n",
      "value": 100791
    },
    {
      "scriptpubkey": "a91440ab77ae2c1a53070c0c65ce3d9b494271b56feb87",
      "scriptpubkey_asm": "OP_HASH160 OP_PUSHBYTES_20 40ab77ae2c1a53070c0c65ce3d9b494271b56feb OP_EQUAL",
      "scriptpubkey_type": "p2sh",
      "scriptpubkey_address": "37axabGwKHP6eYuEG1jmUsvYCBY7D7B16L",
      "value": 47885
    },
    {
      "scriptpubkey": "0014a8eecfe9fb524d91e5a9c994f74d7ccde450f571",
      "scriptpubkey_asm": "OP_0 OP_PUSHBYTES_20 a8eecfe9fb524d91e5a9c994f74d7ccde450f571",
      "scriptpubkey_type": "v0_p2wpkh",
      "scriptpubkey_address": "bc1q4rhvl60m2fxeredfex20wntuehj9pat3k6u3u3",
      "value": 21452
    },
    {
      "scriptpubkey": "0014de58074c96c96f9abbd7de7512c2a1aafcf1ffd3",
      "scriptpubkey_asm": "OP_0 OP_PUSHBYTES_20 de58074c96c96f9abbd7de7512c2a1aafcf1ffd3",
      "scriptpubkey_type": "v0_p2wpkh",
      "scriptpubkey_address": "bc1qmevqwnyke9he4w7hme639s4p4t70rl7nukc37s",
      "value": 35001
    },
    {
      "scriptpubkey": "76a914602c98c700c002e67054cccf904adf1364da595288ac",
      "scriptpubkey_asm": "OP_DUP OP_HASH160 OP_PUSHBYTES_20 602c98c700c002e67054cccf904adf1364da5952 OP_EQUALVERIFY OP_CHECKSIG",
      "scriptpubkey_type": "p2pkh",
      "scriptpubkey_address": "19mXJ4BFheWd6Dcv1kR6LjjpJXinyxneGh",
      "value": 215007
    },
    {
      "scriptpubkey": "a91456b36c6415e8d653514e5193ac46f98229ec531687",
      "scriptpubkey_asm": "OP_HASH160 OP_PUSHBYTES_20 56b36c6415e8d653514e5193ac46f98229ec5316 OP_EQUAL",
      "scriptpubkey_type": "p2sh",
      "scriptpubkey_address": "39bSybcwVHQQ2jNhQrawH9xS4VBnbbTALt",
      "value": 220431
    },
    {
      "scriptpubkey": "001464dab1ab593fd5566479a94f71ba04e1f7ea49d6",
      "scriptpubkey_asm": "OP_0 OP_PUSHBYTES_20 64dab1ab593fd5566479a94f71ba04e1f7ea49d6",
      "scriptpubkey_type": "v0_p2wpkh",
      "scriptpubkey_address": "bc1qvndtr26e8l24vere498hrwsyu8m75jwk0ql00j",
      "value": 127177
    },
    {
      "scriptpubkey": "a914b9061e8d00a6cede79766c71069942882fdd8a4787",
      "scriptpubkey_asm": "OP_HASH160 OP_PUSHBYTES_20 b9061e8d00a6cede79766c71069942882fdd8a47 OP_EQUAL",
      "scriptpubkey_type": "p2sh",
      "scriptpubkey_address": "3JZLGDDmzY12EkTVFKpso8Wx6kexw83Anw",
      "value": 54374
    },
    {
      "scriptpubkey": "0014febe5162143323f3a2892399e4c40e6d1095f0a5",
      "scriptpubkey_asm": "OP_0 OP_PUSHBYTES_20 febe5162143323f3a2892399e4c40e6d1095f0a5",
      "scriptpubkey_type": "v0_p2wpkh",
      "scriptpubkey_address": "bc1ql6l9zcs5xv3l8g5fywv7f3qwd5gftu998pr58v",
      "value": 41268
    },
    {
      "scriptpubkey": "a9147f23890a53060c6272575e1474b125c34c6997e987",
      "scriptpubkey_asm": "OP_HASH160 OP_PUSHBYTES_20 7f23890a53060c6272575e1474b125c34c6997e9 OP_EQUAL",
      "scriptpubkey_type": "p2sh",
      "scriptpubkey_address": "3DHGJwerb1SxAbyQ8Ti1K8iKYNZ9GgM8ck",
      "value": 203900
    },
    {
      "scriptpubkey": "0014b35de85f78f6a074c6aedec2b46b884121547d82",
      "scriptpubkey_asm": "OP_0 OP_PUSHBYTES_20 b35de85f78f6a074c6aedec2b46b884121547d82",
      "scriptpubkey_type": "v0_p2wpkh",
      "scriptpubkey_address": "bc1qkdw7shmc76s8f34wmmptg6uggys4glvzhkx7kg",
      "value": 30993
    },
    {
      "scriptpubkey": "a914a20edb7ab0a065ecafea2802328f0624bf4c7c9387",
      "scriptpubkey_asm": "OP_HASH160 OP_PUSHBYTES_20 a20edb7ab0a065ecafea2802328f0624bf4c7c93 OP_EQUAL",
      "scriptpubkey_type": "p2sh",
      "scriptpubkey_address": "3GTuBvgjdLn5YEaYQcmKu81rtjjqbcMQzE",
      "value": 28062
    },
    {
      "scriptpubkey": "0014158ef63005b1ee92076d4c3c8cfdd0575fa14b7d",
      "scriptpubkey_asm": "OP_0 OP_PUSHBYTES_20 158ef63005b1ee92076d4c3c8cfdd0575fa14b7d",
      "scriptpubkey_type": "v0_p2wpkh",
      "scriptpubkey_address": "bc1qzk80vvq9k8hfypmdfs7gelws2a06zjmafhc9az",
      "value": 88393
    },
    {
      "scriptpubkey": "0014e09e94d19275b00d31332a83d04f50bef9b7eb60",
      "scriptpubkey_asm": "OP_0 OP_PUSHBYTES_20 e09e94d19275b00d31332a83d04f50bef9b7eb60",
      "scriptpubkey_type": "v0_p2wpkh",
      "scriptpubkey_address": "bc1quz0ff5vjwkcq6vfn92paqn6shmum06mq73lqgr",
      "value": 460316
    },
    {
      "scriptpubkey": "0014e959124fb1cd5d154b9c3b639685b74bd18c518f",
      "scriptpubkey_asm": "OP_0 OP_PUSHBYTES_20 e959124fb1cd5d154b9c3b639685b74bd18c518f",
      "scriptpubkey_type": "v0_p2wpkh",
      "scriptpubkey_address": "bc1qa9v3yna3e4w32juu8d3edpdhf0gcc5v0k3yfut",
      "value": 28058
    },
    {
      "scriptpubkey": "a914c9122d81d8ce0a51ca6e9fcb895f3007d6bfd3de87",
      "scriptpubkey_asm": "OP_HASH160 OP_PUSHBYTES_20 c9122d81d8ce0a51ca6e9fcb895f3007d6bfd3de OP_EQUAL",
      "scriptpubkey_type": "p2sh",
      "scriptpubkey_address": "3L2BX7cHHKztBLfAe5NMzSnNsAEemMEbZx",
      "value": 126467
    },
    {
      "scriptpubkey": "0014dfacd8ceecae0ef8e64537d80d404cf072897758",
      "scriptpubkey_asm": "OP_0 OP_PUSHBYTES_20 dfacd8ceecae0ef8e64537d80d404cf072897758",
      "scriptpubkey_type": "v0_p2wpkh",
      "scriptpubkey_address": "bc1qm7kd3nhv4c803ej9xlvq6szv7pegja6clz220t",
      "value": 32027
    },
    {
      "scriptpubkey": "a914ad8eaccb088f03ffae8bf3f55962540c9483738b87",
      "scriptpubkey_asm": "OP_HASH160 OP_PUSHBYTES_20 ad8eaccb088f03ffae8bf3f55962540c9483738b OP_EQUAL",
      "scriptpubkey_type": "p2sh",
      "scriptpubkey_address": "3HWhjxiBV1u8MJtVjDNLRfHhsjrPYXa5tk",
      "value": 54472
    },
    {
      "scriptpubkey": "002071d62910b152ef39acacb62bf5ffb630ed3ff8695650903a67fdf63c7984883c",
      "scriptpubkey_asm": "OP_0 OP_PUSHBYTES_32 71d62910b152ef39acacb62bf5ffb630ed3ff8695650903a67fdf63c7984883c",
      "scriptpubkey_type": "v0_p2wsh",
      "scriptpubkey_address": "bc1qw8tzjy932thnnt9vkc4ltlakxrknl7rf2egfqwn8lhmrc7vy3q7qjvuvmx",
      "value": 8215
    },
    {
      "scriptpubkey": "0020dd4c0e5f08fb85873d11572b87240becda2d72b3d44e7c28bdb15b5bd128e8ea",
      "scriptpubkey_asm": "OP_0 OP_PUSHBYTES_32 dd4c0e5f08fb85873d11572b87240becda2d72b3d44e7c28bdb15b5bd128e8ea",
      "scriptpubkey_type": "v0_p2wsh",
      "scriptpubkey_address": "bc1qm4xquhcglwzcw0g32u4cwfqtandz6u4n6388c29ak9d4h5fgar4qmejnha",
      "value": 41288
    },
    {
      "scriptpubkey": "76a914b0b32cbe9ccb911e8d3570e3fbd167ed574b3f6888ac",
      "scriptpubkey_asm": "OP_DUP OP_HASH160 OP_PUSHBYTES_20 b0b32cbe9ccb911e8d3570e3fbd167ed574b3f68 OP_EQUALVERIFY OP_CHECKSIG",
      "scriptpubkey_type": "p2pkh",
      "scriptpubkey_address": "1H7Ja3aEmrM1z6rKi3w5du3K5dtKxi4BwE",
      "value": 14816
    }
  ],
  "size": 3602,
  "weight": 13760,
  "fee": 51676,
  "status": {
    "confirmed": true,
    "block_height": 834638,
    "block_hash": "000000000000000000025f742c626208ac87e0b7d15054abb4a19ca2d735a54e",
    "block_time": 1710405325
  },
  "hex": "02000000000102106cfee40e1e44c90c4a0c8980464edb583378a04576d85abd942b138713e6680000000000ffffffffca42fdc8a802d357f89ac52115cef9320d5e046e23f1911ebb60e37af69d04c52a00000000ffffffff65b053000000000000160014480847b17bffdec8d324307f43e50ad73e7ddc9fd30a020000000000160014d8c7b6d55b6986f74099bae1d560a69e09b87936b26d00000000000017a9140dd54ca2975401d1c83aeda4a1f339f83d281e6e871f3500000000000016001454a72324118318985fbd08354692ba226dab06d270871c00000000001976a9149b9b3d163b04092787c03bcaa7e33d471884867388ace5f00100000000001600149a9b3e5343954bacac217b785612523fa5ecf3b130130200000000001976a914b331afd7658fe6cbae8f59d064242b43099ac99a88ac5ef10300000000001600145bbf05536429d1c687904139ecc75fcb09873662df7301000000000017a91449957ca3bb5945cc8a989b19639b6d528f2807858705bb000000000000160014d949218060c42c64d8257ef5087bfad0add51ea23e002300000000001976a9141f95f4892b790a6269db455605d7fd345f50e79988acdfe601000000000017a91496d6a3c36b4b39757c85ac8db0aa707f50fa418187b791000000000000220020b73a8296cc694a40338325f723af6e2b9fc3d57fd212bc5ce37f46bcd2edbc7033c002000000000017a9149b7b0764ce69588a71f620538d0b9985e588b1cd87e7580000000000001600145be69113943c6b0ead12f42b99782b6c1ce5460f662201000000000017a9142008d28963d83cbffcb7517d88dcf1a523ef2ab087a08601000000000017a914f956ad5c7aa829eedd064e340b68fe3d24b8c5e587ffee000000000000160014a8e4f30b21c2b416a0d465f0517ca88a4c6455be8e7403000000000017a914a0a99a943f29a87f558240fa93fb1de06a65dd8c87fb4c0100000000001600145ff4eaaad6f94ce906ac3466e6560631df101134409c00000000000017a9147b16f40330c9efa5bdb075f3ec8addd4eb723bfa87d7f703000000000017a914d83372fbcdc7dfab15600d46b0bfb9b91cf7886687b8a1070000000000160014e434eb0758b803a7d24b3feecfc909e2f6b3567434650500000000001976a9148fcb739f0736a938cd4187fae79ebab060c9cafe88ac0413020000000000160014807f9234535bf3c29aa84e5563740e9dfa12d7bc3e6a00000000000017a91449102a1b75f01de376235da435bc18cbb19d3f668771730200000000001976a914f253ae6caf33a53fcc9fa874eee92a4d1ece009b88aca5350000000000001600140027be36400b2b8b40047aa6e5d9bb124a53c4ee0bbb00000000000017a914832556c7c9425ed755006d32f4495ec9d4d1f28e87f71705000000000017a9147d295ccac03e6912f75c4a88a17fb05f96b142a1878e6d0000000000001600148bc4b6df0ad4b34f1f5b111308e89cf7ed9d0d228b6d0000000000001976a9141b57ffc886f1b782b0efb9366c3643abebd7a2c688acb53815000000000022002026b064b254d183635812f7ea873eea308cb98ea6c7e560d9a8291d922f2ecc83182000000000000017a91424e443788e12af440bb879d9c37cfbe46537e83a8751f301000000000016001450a2a4548693e2a44a40df0825d0fe46e3716d21306a000000000000160014280e652b2a475856bcf312f0b5783d9ba9fc7a4983090100000000001600147f1930b072d433e42a3072db320a4b72b623385e15f10100000000001600145f9edf43fae1489606fd821a367220d85d1f274deaf402000000000017a91495d8a7ccf6e44b148f8af4e38989cc002f88a4db8716f1010000000000160014e14ee687a7d2c58ae7abdd2cdc8c61c9484c67222c0b0400000000001976a914a2c5828c7361a3d2928d69895d22b3a22ac3e59e88ac6a870000000000001976a91438dcab0f5aae6ae591d1b09144d15601385a8bec88ac96cd8b0300000000160014cd5a4d4a3cf25d378da072b30bd47f667b4a1b1821391700000000001600149cb0fd507d64912c592b5b990b4fc54ebe9486e6934601000000000017a91490040ecbc7d25bf353d9c176ef5296ef54f9a6bb87707d02000000000017a91435295d20bdba94257d9088888ce117eda514926787cc09020000000000160014932c27dfb866f165fde73d538df997f7c6379ab9bcf001000000000017a914575166031b87a39d749928d4b97663aeaf9ec08187f82f05000000000017a914c5f79eb55f88ab9cab0c9f7aa269cac18472803b87b6280300000000001976a914a71e6f437c6aed5ff4292726f67c049d76822f2588ac9bf7030000000000225120c63267f21e1772f42afc73a445d59357231979506a5a4def5a399a1b3207dc16e6ee00000000000016001409e216c78cdfce9e485fafc80c6e1e8c81a16e24e8ad0100000000001976a914763621a564cd84dcd579e2ce6e39359903f8425d88ac608700000000000017a914107eb35254e9edc8f56b23f652e8790a0cdf7d318788a3010000000000220020ab5e78a79eac4b201f7d9e165ec5c86d78bdd183d691dad061f2b74dbb54092c9f6d00000000000017a9147cb752d6886f3a5c3cc97ce94fd22f64794b01b287627f0100000000001976a914642a68c9dacb6287b288d0854c8a76359558950388ac429f0000000000001976a914e704acda95484e06d6c64328d151e6af6d2241f388ac860d020000000000160014b482c194efe3e3ea3c7910946f6d83d8864fcb6384120b00000000001600147c9b9a7ca086cc5b1d24a78bf601b8b37b907fcb40130200000000001600143503da470af153b93906cbb3f62ac91744b339cb23bd010000000000160014fadd7172a043cb6872690e347665b8bb0669b1d7796800000000000017a914b96190081d41cd46675be1714694db290bfddb1e87f1120b000000000017a914fcb9e1d278431f20548de1d77f88877932c655bc87905f0100000000001976a914e057797972e8a9c7777b31dd8d4fe174e5e1810788acee6f010000000000160014c5823dbcfda41c712aa9a29556952c51f430fa04c6840000000000001976a91479c2022a72902c62afda97098cd2e8e49246c60488ac678e0100000000001600141abc8888c2029d7f589947a3f06c4d5feda1c9af90410600000000001976a914dc3abe0e380923ef3658aa6aff0ff609325a8c3b88ac3d6a0000000000001600144bb8541092214b6f8cabe7508d8633988f89ab6f9a5f0000000000001600140653cd6eee1c6528c6af2cffc049737f923a7d7f3d6a00000000000017a914ec23de091ebba8608e2ca7ea7eebd93a8d272d2f87278a00000000000016001491a02c8fbfd1e08066394bcc534fe95ff3a4f7dda18b2500000000001976a914da29bce7066641be5b4713335b93a45faed1df0a88ac107d00000000000017a9146dbdaee69cb8b23f5809c48b65ef218f3a67243987463c01000000000016001456d7f6a4eef50a8791bec9c01877ae9d946d631b24950f00000000001976a91496558ff10bf66a0b7c67a20d7b34015bc012279288ac632c140000000000160014b29ea78c2a8d548e5d11c0ac2bda4fea7d688a91d91f0000000000001976a9141a93bd35e85095182e60bd3f9aa8594551e3442788acf1150c00000000001600142807eb08f9902a2acd080242a15e7b3eea474b83b789010000000000160014ce5e197e24d250b9adab52b7543eb9ac6d2005c40dbb00000000000017a91440ab77ae2c1a53070c0c65ce3d9b494271b56feb87cc53000000000000160014a8eecfe9fb524d91e5a9c994f74d7ccde450f571b988000000000000160014de58074c96c96f9abbd7de7512c2a1aafcf1ffd3df470300000000001976a914602c98c700c002e67054cccf904adf1364da595288ac0f5d03000000000017a91456b36c6415e8d653514e5193ac46f98229ec531687c9f001000000000016001464dab1ab593fd5566479a94f71ba04e1f7ea49d666d400000000000017a914b9061e8d00a6cede79766c71069942882fdd8a478734a1000000000000160014febe5162143323f3a2892399e4c40e6d1095f0a57c1c03000000000017a9147f23890a53060c6272575e1474b125c34c6997e9871179000000000000160014b35de85f78f6a074c6aedec2b46b884121547d829e6d00000000000017a914a20edb7ab0a065ecafea2802328f0624bf4c7c93874959010000000000160014158ef63005b1ee92076d4c3c8cfdd0575fa14b7d1c06070000000000160014e09e94d19275b00d31332a83d04f50bef9b7eb609a6d000000000000160014e959124fb1cd5d154b9c3b639685b74bd18c518f03ee01000000000017a914c9122d81d8ce0a51ca6e9fcb895f3007d6bfd3de871b7d000000000000160014dfacd8ceecae0ef8e64537d80d404cf072897758c8d400000000000017a914ad8eaccb088f03ffae8bf3f55962540c9483738b87172000000000000022002071d62910b152ef39acacb62bf5ffb630ed3ff8695650903a67fdf63c7984883c48a1000000000000220020dd4c0e5f08fb85873d11572b87240becda2d72b3d44e7c28bdb15b5bd128e8eae0390000000000001976a914b0b32cbe9ccb911e8d3570e3fbd167ed574b3f6888ac02473044022020338b241d15c72f121d13fc4d8c8bbed085fbff797bc36c3322e90f28dea2ab022043f7de4f307eca0d6482b126288b1ffe6250bdb92c385fc4d87778db2cc354f601210344b5d50e320a14cea85095ae55a1cbff1e6ce2f7117450bb35c82808d4158a1e02473044022035688d32f66cbbf9058f69caeab7f0ad74f36aaec8a40e17c4354dc12bfa1ad802207549a58c9a422cb84d8d1fbb0db1d89e686e7ff7a984ad70d69c82e8388be89d012102477fa73b751f5f45b8292d9d66b637b3ca00b98b3d76d37fdfabba30f1593b2800000000"
}