{
  "txid": "4cd600a052071b7332fe6e1128ae57cc26790380e0d608e67e55e0efc0ef0857",
  "version": 1,
  "locktime": 0,
  "vin": [
    {
      "txid": "d71f9b527d89b4f4aabdb30342efded6d8f16251a9f45d36d639140c8350489c",
      "vout": 1,
      "prevout": {
        "scriptpubkey": "76a914bed18d66f26571b4e709b23df6212f0ac70b1a8588ac",
        "scriptpubkey_asm": "OP_DUP OP_HASH160 OP_PUSHBYTES_20 bed18d66f26571b4e709b23df6212f0ac70b1a85 OP_EQUALVERIFY OP_CHECKSIG",
        "scriptpubkey_type": "p2pkh",
        "scriptpubkey_address": "1JPxRQE8qtg93dPyC144b3ndUJiFWYeLhe",
        "value": 157046
      },
      "scriptsig": "4730440220359c7855659000ba085594d00f0a44a24efb5c6154c38834ca1206cc63f82aa8022057f80e154a60e70aceebbf36a6e06c2ed54e50ca0d3b0b49079753a03280091c012103359c4c5d0570a25b412be3d25f16aa50e888b76f586d134fd92ea692d1b62f27",
      "scriptsig_asm": "OP_PUSHBYTES_71 30440220359c7855659000ba085594d00f0a44a24efb5c6154c38834ca1206cc63f82aa8022057f80e154a60e70aceebbf36a6e06c2ed54e50ca0d3b0b49079753a03280091c01 OP_PUSHBYTES_33 03359c4c5d0570a25b412be3d25f16aa50e888b76f586d134fd92ea692d1b62f27",
      "is_coinbase": false,
      "sequence": 4294967295
    }
  ],
  "vout": [
    {
      "scriptpubkey": "76a91402ca49f6d86a804b987c70a1414e865cb58008e988ac",
      "scriptpubkey_asm": "OP_DUP OP_HASH160 OP_PUSHBYTES_20 02ca49f6d86a804b987c70a1414e865cb58008e9 OP_EQUALVERIFY OP_CHECKSIG",
      "scriptpubkey_type": "p2pkh",
      "scriptpubkey_address": "1FkgfY7yppd1318Ydvk125rgVxG5CywEd",
      "value": 27697
    },
    {
      "scriptpubkey": "76a914bed18d66f26571b4e709b23df6212f0ac70b1a8588ac",
      "scriptpubkey_asm": "OP_DUP OP_HASH160 OP_PUSHBYTES_20 bed18d66f26571b4e709b23df6212f0ac70b1a85 OP_EQUALVERIFY OP_CHECKSIG",
      "scriptpubkey_type": "p2pkh",
      "scriptpubkey_address": "1JPxRQE8qtg93dPyC144b3ndUJiFWYeLhe",
      "value": 125490
    }
  ],
  "size": 225,
  "weight": 900,
  "fee": 3859,
  "status": {
    "confirmed": true,
    "block_height": 834460,
    "block_hash": "00000000000000000000484a79b643b2524bbce82e5d8a442013fa5b8905ed98",
    "block_time": 1710307468
  },
  "hex": "01000000019c4850830c1439d6365df4a95162f1d8d6deef4203b3bdaaf4b4897d529b1fd7010000006a4730440220359c7855659000ba085594d00f0a44a24efb5c6154c38834ca1206cc63f82aa8022057f80e154a60e70aceebbf36a6e06c2ed54e50ca0d3b0b49079753a03280091c012103359c4c5d0570a25b412be3d25f16aa50e888b76f586d134fd92ea692d1b62f27ffffffff02316c0000000000001976a91402ca49f6d86a804b987c70a1414e865cb58008e988ac32ea0100000000001976a914bed18d66f26571b4e709b23df6212f0ac70b1a8588ac00000000"
}