{
  "txid": "4ce7091f3009fbb79ae6a32f6c800b775967dfc6098e6d7791d623a9deef46d5",
  "version": 2,
  "locktime": 0,
  "vin": [
    {
      "txid": "432b8b381e70611b52307ad0d70988316ba3b554080e4433dbf749b1f1378533",
      "vout": 3,
      "prevout": {
        "scriptpubkey": "51207937e30d92619282d898f2157385de9fb1500a0b3cd906b97835208f322d49cd",
        "scriptpubkey_asm": "OP_PUSHNUM_1 OP_PUSHBYTES_32 7937e30d92619282d898f2157385de9fb1500a0b3cd906b97835208f322d49cd",
        "scriptpubkey_type": "v1_p2tr",
        "scriptpubkey_address": "bc1p0ym7xrvjvxfg9kyc7g2h8pw7n7c4qzst8nvsdwtcx5sg7v3df8xs0nt3vf",
        "value": 4992
      },
      "scriptsig": "",
      "scriptsig_asm": "",
      "witness": [
        "1e42cf8e255cb7f57efc3af05ab5a1ab7e9ec19cd2549405df00434f9910e5d621221e6252d6f4a66c4eb826c2bca4231b5e1f5edc61d17e5faabb36521b26d3",
        "20df0f132d53282426a438834a3e204352229d21293a820e043e30515bd18e9230ac0063036f7264010117746578742f68746d6c3b636861727365743d7574662d38004d7f013c21444f43545950452068746d6c3e0a3c68746d6c206c616e673d22656e223e0a20203c686561643e0a202020203c6d65746120636861727365743d225554462d3822202f3e0a202020203c6d657461206e616d653d2276696577706f72742220636f6e74656e743d2277696474683d6465766963652d77696474682c20696e697469616c2d7363616c653d312e3022202f3e0a202020203c7469746c653e6469616465706978616c65733c2f7469746c653e0a20203c2f686561643e0a20203c626f6479207374796c653d226d617267696e3a20307078223e0a202020203c6469763e0a2020202020203c696d67207374796c653d2277696474683a313030253b6d617267696e3a30707822207372633d222f636f6e74656e742f36383162353337336330336533663831393233316166643932323766353431303133393532393963396535383335366264613237386532663332626566326364693022202f3e0a202020203c2f6469763e0a20203c2f626f64793e0a3c2f68746d6c3e68",
        "c0df0f132d53282426a438834a3e204352229d21293a820e043e30515bd18e9230"
      ],
      "is_coinbase": false,
      "sequence": 4294967295
    }
  ],
  "vout": [
    {
      "scriptpubkey": "5120b205e485180dcd0eac52732fdfe79705d786b4c9d855ee0067a16fe8a46188cf",
      "scriptpubkey_asm": "OP_PUSHNUM_1 OP_PUSHBYTES_32 b205e485180dcd0eac52732fdfe79705d786b4c9d855ee0067a16fe8a46188cf",
      "scriptpubkey_type": "v1_p2tr",
      "scriptpubkey_address": "bc1pkgz7fpgcphxsatzjwvhaleuhqhtcddxfmp27uqr859h73frp3r8s9fc5dt",
      "value": 546
    }
  ],
  "size": 653,
  "weight": 935,
  "fee": 4446,
  "status": {
    "confirmed": true,
    "block_height": 834638,
    "block_hash": "000000000000000000025f742c626208ac87e0b7d15054abb4a19ca2d735a54e",
    "block_time": 1710405325
  },
  "hex": "02000000000101338537f1b149f7db33440e0854b5a36b318809d7d07a30521b61701e388b2b430300000000ffffffff012202000000000000225120b205e485180dcd0eac52732fdfe79705d786b4c9d855ee0067a16fe8a46188cf03401e42cf8e255cb7f57efc3af05ab5a1ab7e9ec19cd2549405df00434f9910e5d621221e6252d6f4a66c4eb826c2bca4231b5e1f5edc61d17e5faabb36521b26d3fdc60120df0f132d53282426a438834a3e204352229d21293a820e043e30515bd18e9230ac0063036f7264010117746578742f68746d6c3b636861727365743d7574662d38004d7f013c21444f43545950452068746d6c3e0a3c68746d6c206c616e673d22656e223e0a20203c686561643e0a202020203c6d65746120636861727365743d225554462d3822202f3e0a202020203c6d657461206e616d653d2276696577706f72742220636f6e74656e743d2277696474683d6465766963652d77696474682c20696e697469616c2d7363616c653d312e3022202f3e0a202020203c7469746c653e6469616465706978616c65733c2f7469746c653e0a20203c2f686561643e0a20203c626f6479207374796c653d226d617267696e3a20307078223e0a202020203c6469763e0a2020202020203c696d67207374796c653d2277696474683a313030253b6d617267696e3a30707822207372633d222f636f6e74656e742f36383162353337336330336533663831393233316166643932323766353431303133393532393963396535383335366264613237386532663332626566326364693022202f3e0a202020203c2f6469763e0a20203c2f626f64793e0a3c2f68746d6c3e6821c0df0f132d53282426a438834a3e204352229d21293a820e043e30515bd18e923000000000"
}