{
  "txid": "4cfe31007a14b52f8a91c7d896ff13b22d043b6b943ebfefd5589a8c5d86a1f8",
  "version": 2,
  "locktime": 834412,
  "vin": [
    {
      "txid": "c17d9a494d7f29fc076a79fb3b5dc5e561e89246e6df4848d4cb039ec525177c",
      "vout": 0,
      "prevout": {
        "scriptpubkey": "00144a658bdd45a9a89e48279dcd88cf582d9c918889",
        "scriptpubkey_asm": "OP_0 OP_PUSHBYTES_20 4a658bdd45a9a89e48279dcd88cf582d9c918889",
        "scriptpubkey_type": "v0_p2wpkh",
        "scriptpubkey_address": "bc1qffjchh294x5fujp8nhxc3n6c9kwfrzyfu554d9",
        "value": 1528
      },
      "scriptsig": "",
      "scriptsig_asm": "",
      "witness": [
        "304402204fc5d1dfdf4547edaebdea2627c58611bbb08bfc259fde60a2618ba4488049d0022066347abb2af5b7628b1d97d7fa6003984f91193c4b8f769c4628e27da047b0a301",
        "0372b5352a518e33ce0419aa43410441590300813dd5853738d7302e09bfd48486"
      ],
      "is_coinbase": false,
      "sequence": 4294967293
    }
  ],
  "vout": [
    {
      "scriptpubkey": "0014638712d377cedef34865e385cbc085c33b446c4b",
      "scriptpubkey_asm": "OP_0 OP_PUSHBYTES_20 638712d377cedef34865e385cbc085c33b446c4b",
      "scriptpubkey_type": "v0_p2wpkh",
      "scriptpubkey_address": "bc1qvwr395mhem00xjr9uwzuhsy9cva5gmzt5srdt3",
      "value": 346
    }
  ],
  "size": 191,
  "weight": 437,
  "fee": 1182,
  "status": {
    "confirmed": true,
    "block_height": 834464,
    "block_hash": "0000000000000000000177a0869a911a2b65c9bdcd5a8bcb02b68f305bee848e",
    "block_time": 1710308296
  },
  "hex": "020000000001017c1725c59e03cbd44848dfe64692e861e5c55d3bfb796a07fc297f4d499a7dc10000000000fdffffff015a01000000000000160014638712d377cedef34865e385cbc085c33b446c4b0247304402204fc5d1dfdf4547edaebdea2627c58611bbb08bfc259fde60a2618ba4488049d0022066347abb2af5b7628b1d97d7fa6003984f91193c4b8f769c4628e27da047b0a301210372b5352a518e33ce0419aa43410441590300813dd5853738d7302e09bfd484866cbb0c00"
}