{
  "txid": "4d0e13b92c99941f460d00512ab76688af3404295436f978a646ab3b678e73f0",
  "version": 2,
  "locktime": 0,
  "vin": [
    {
      "txid": "659b82bf51c32df260f3e3563d90fcbcb0098209af4d18020ca9e1a619ccc8c8",
      "vout": 18,
      "prevout": {
        "scriptpubkey": "512000dcd51d628c61cf9d296801214f36a5d9f9b5e8ad2f973533f26ea209d49564",
        "scriptpubkey_asm": "OP_PUSHNUM_1 OP_PUSHBYTES_32 00dcd51d628c61cf9d296801214f36a5d9f9b5e8ad2f973533f26ea209d49564",
        "scriptpubkey_type": "v1_p2tr",
        "scriptpubkey_address": "bc1pqrwd28tz33sul8ffdqqjznek5hvlnd0g45hewdfn7fh2yzw5j4jqtr647g",
        "value": 1931
      },
      "scriptsig": "",
      "scriptsig_asm": "",
      "witness": [
        "3db1125f7039a4e3338b92d6c4cf44c97609a04ddb4575846368ed239104440290ffcb4ebae20ec4266ff829a649cf0aac21607eca4e51a86f7056d0ff7d921c",
        "20dd66939431ed38e142a76522528a0630c52ffdb1f0420d9d1106e40a45585a88ac0063036f726401010a746578742f706c61696e00367b2270223a226272632d3230222c226f70223a226d696e74222c227469636b223a2261616161222c22616d74223a223130303030227d68",
        "c1dd66939431ed38e142a76522528a0630c52ffdb1f0420d9d1106e40a45585a88"
      ],
      "is_coinbase": false,
      "sequence": 4261412863
    }
  ],
  "vout": [
    {
      "scriptpubkey": "0014be9f0c070a9b1bd40f5fcb06fba89738d936ceb6",
      "scriptpubkey_asm": "OP_0 OP_PUSHBYTES_20 be9f0c070a9b1bd40f5fcb06fba89738d936ceb6",
      "scriptpubkey_type": "v0_p2wpkh",
      "scriptpubkey_address": "bc1qh60scpc2nvdagr6levr0h2yh8rvndn4k4v5s9g",
      "value": 294
    }
  ],
  "size": 295,
  "weight": 541,
  "fee": 1637,
  "status": {
    "confirmed": true,
    "block_height": 834460,
    "block_hash": "00000000000000000000484a79b643b2524bbce82e5d8a442013fa5b8905ed98",
    "block_time": 1710307468
  },
  "hex": "02000000000101c8c8cc19a6e1a90c02184daf098209b0bcfc903d56e3f360f22dc351bf829b651200000000fffffffd012601000000000000160014be9f0c070a9b1bd40f5fcb06fba89738d936ceb603403db1125f7039a4e3338b92d6c4cf44c97609a04ddb4575846368ed239104440290ffcb4ebae20ec4266ff829a649cf0aac21607eca4e51a86f7056d0ff7d921c6e20dd66939431ed38e142a76522528a0630c52ffdb1f0420d9d1106e40a45585a88ac0063036f726401010a746578742f706c61696e00367b2270223a226272632d3230222c226f70223a226d696e74222c227469636b223a2261616161222c22616d74223a223130303030227d6821c1dd66939431ed38e142a76522528a0630c52ffdb1f0420d9d1106e40a45585a8800000000"
}