{
  "txid": "4d1fd6e8f8537006c8e379a233c565d5960b3150888c3a2617a1d3abc2a7ea65",
  "version": 2,
  "locktime": 0,
  "vin": [
    {
      "txid": "5cfcb9802c5d16d63a590f4e1935d071df9896b1bbe1fdab25dbf1589bddf056",
      "vout": 1,
      "prevout": {
        "scriptpubkey": "5120c455bcd1fe22a2d2ad02a7193ca46563efdc1e99416fbc10d8c25bcdb55ded58",
        "scriptpubkey_asm": "OP_PUSHNUM_1 OP_PUSHBYTES_32 c455bcd1fe22a2d2ad02a7193ca46563efdc1e99416fbc10d8c25bcdb55ded58",
        "scriptpubkey_type": "v1_p2tr",
        "scriptpubkey_address": "bc1pc32me507y23d9tgz5uvnefr9v0hac85eg9hmcyxccfdumd2aa4vqwc2hc3",
        "value": 3663209
      },
      "scriptsig": "",
      "scriptsig_asm": "",
      "witness": [
        "eb138387a2b9de15cfcf36a7c9740ee636f36a9d9aea2204bc6553633f3cbca534d92eab6914c01904cfd299edff9ca565526697ef839f8ee63afbb5eb774053"
      ],
      "is_coinbase": false,
      "sequence": 4294967295
    }
  ],
  "vout": [
    {
      "scriptpubkey": "00142867a44744e1d6cba280701afc23a355384a5f04",
      "scriptpubkey_asm": "OP_0 OP_PUSHBYTES_20 2867a44744e1d6cba280701afc23a355384a5f04",
      "scriptpubkey_type": "v0_p2wpkh",
      "scriptpubkey_address": "bc1q9pn6g36yu8tvhg5qwqd0cgar25uy5hcy0swndc",
      "value": 726470
    },
    {
      "scriptpubkey": "5120c455bcd1fe22a2d2ad02a7193ca46563efdc1e99416fbc10d8c25bcdb55ded58",
      "scriptpubkey_asm": "OP_PUSHNUM_1 OP_PUSHBYTES_32 c455bcd1fe22a2d2ad02a7193ca46563efdc1e99416fbc10d8c25bcdb55ded58",
      "scriptpubkey_type": "v1_p2tr",
      "scriptpubkey_address": "bc1pc32me507y23d9tgz5uvnefr9v0hac85eg9hmcyxccfdumd2aa4vqwc2hc3",
      "value": 2935035
    }
  ],
  "size": 193,
  "weight": 568,
  "fee": 1704,
  "status": {
    "confirmed": true,
    "block_height": 834460,
    "block_hash": "00000000000000000000484a79b643b2524bbce82e5d8a442013fa5b8905ed98",
    "block_time": 1710307468
  },
  "hex": "0200000000010156f0dd9b58f1db25abfde1bbb19698df71d035194e0f593ad6165d2c80b9fc5c0100000000ffffffff02c6150b00000000001600142867a44744e1d6cba280701afc23a355384a5f04fbc82c0000000000225120c455bcd1fe22a2d2ad02a7193ca46563efdc1e99416fbc10d8c25bcdb55ded580140eb138387a2b9de15cfcf36a7c9740ee636f36a9d9aea2204bc6553633f3cbca534d92eab6914c01904cfd299edff9ca565526697ef839f8ee63afbb5eb77405300000000"
}