{
  "txid": "4d21bf834f5057348412e84a497f2aebff43a3bf5387832d1f5d886b9b6b5fea",
  "version": 2,
  "locktime": 0,
  "vin": [
    {
      "txid": "722fc25141f7d379b5700dc51103e3e722aca2c9b4772896b3d2b51a7ae817a0",
      "vout": 2,
      "prevout": {
        "scriptpubkey": "51204e2e9225ff0eb680764341c3e1b1a4ccbe91e335dea78a68fdb648a5d4a7411c",
        "scriptpubkey_asm": "OP_PUSHNUM_1 OP_PUSHBYTES_32 4e2e9225ff0eb680764341c3e1b1a4ccbe91e335dea78a68fdb648a5d4a7411c",
        "scriptpubkey_type": "v1_p2tr",
        "scriptpubkey_address": "bc1pfchfyf0lp6mgqajrg8p7rvdyejlfrce4m6nc568akey2t498gywqgk04gd",
        "value": 600
      },
      "scriptsig": "",
      "scriptsig_asm": "",
      "witness": [
        "f54ca95d336d016bcc4b5f40088295b1165a169646c4e1fcb6597c1e28c14a00d84e3ce20cf4ca804c94869ebf5b14c2913e83793f2f2f09cb7e136433521104"
      ],
      "is_coinbase": false,
      "sequence": 4294967295
    },
    {
      "txid": "689b072110208141c8aedaf59c6177941ab6a9096c468ff5ecaa05da1805e606",
      "vout": 4,
      "prevout": {
        "scriptpubkey": "51204e2e9225ff0eb680764341c3e1b1a4ccbe91e335dea78a68fdb648a5d4a7411c",
        "scriptpubkey_asm": "OP_PUSHNUM_1 OP_PUSHBYTES_32 4e2e9225ff0eb680764341c3e1b1a4ccbe91e335dea78a68fdb648a5d4a7411c",
        "scriptpubkey_type": "v1_p2tr",
        "scriptpubkey_address": "bc1pfchfyf0lp6mgqajrg8p7rvdyejlfrce4m6nc568akey2t498gywqgk04gd",
        "value": 600
      },
      "scriptsig": "",
      "scriptsig_asm": "",
      "witness": [
        "e116a3974c39ddf953506f4ac918c9c70e0903f7a8756bdde1d833823ce36e20c7821bfb48d314fde2f442e00f94bca67829903885c44d333f64caa95f202267"
      ],
      "is_coinbase": false,
      "sequence": 4294967295
    },
    {
      "txid": "6823d30c9dbe9bb4deb7bfaf4518fe4b3498df25ea41adf178ecc81c6e10d8b7",
      "vout": 646,
      "prevout": {
        "scriptpubkey": "5120a1649a102c067a1d501755868c89eae82393f0c5fcd49b8e6cefb74fec9a3cf6",
        "scriptpubkey_asm": "OP_PUSHNUM_1 OP_PUSHBYTES_32 a1649a102c067a1d501755868c89eae82393f0c5fcd49b8e6cefb74fec9a3cf6",
        "scriptpubkey_type": "v1_p2tr",
        "scriptpubkey_address": "bc1p59jf5ypvqeap65qh2krgez02aq3e8ux9ln2fhrnva7m5lmy68nmqgds3gl",
        "value": 333
      },
      "scriptsig": "",
      "scriptsig_asm": "",
      "witness": [
        "eebb8f956894d6259a3209f6d1fcafed9eca34fd8f8f0c8ac20833198246832e9abb5ed6e348d5203a47702231a036a79ea54f4d26c61870bc4f48b4f40ab6ce83"
      ],
      "is_coinbase": false,
      "sequence": 4294967295
    },
    {
      "txid": "341cf1e5ecab1d83b09b15d0cf26b102690228a4a1603b8dd1bf0d9cac38acec",
      "vout": 6,
      "prevout": {
        "scriptpubkey": "51204e2e9225ff0eb680764341c3e1b1a4ccbe91e335dea78a68fdb648a5d4a7411c",
        "scriptpubkey_asm": "OP_PUSHNUM_1 OP_PUSHBYTES_32 4e2e9225ff0eb680764341c3e1b1a4ccbe91e335dea78a68fdb648a5d4a7411c",
        "scriptpubkey_type": "v1_p2tr",
        "scriptpubkey_address": "bc1pfchfyf0lp6mgqajrg8p7rvdyejlfrce4m6nc568akey2t498gywqgk04gd",
        "value": 2546431
      },
      "scriptsig": "",
      "scriptsig_asm": "",
      "witness": [
        "dadc450b2b0b35d4a064c20ced9f30ecd4a81c63c40a75aa47482804d4a6dfdaa17b5218441cff197e2fad16009cb4320941d45079208d985c1006455fe66955"
      ],
      "is_coinbase": false,
      "sequence": 4294967295
    }
  ],
  "vout": [
    {
      "scriptpubkey": "51204e2e9225ff0eb680764341c3e1b1a4ccbe91e335dea78a68fdb648a5d4a7411c",
      "scriptpubkey_asm": "OP_PUSHNUM_1 OP_PUSHBYTES_32 4e2e9225ff0eb680764341c3e1b1a4ccbe91e335dea78a68fdb648a5d4a7411c",
      "scriptpubkey_type": "v1_p2tr",
      "scriptpubkey_address": "bc1pfchfyf0lp6mgqajrg8p7rvdyejlfrce4m6nc568akey2t498gywqgk04gd",
      "value": 1200
    },
    {
      "scriptpubkey": "51204e2e9225ff0eb680764341c3e1b1a4ccbe91e335dea78a68fdb648a5d4a7411c",
      "scriptpubkey_asm": "OP_PUSHNUM_1 OP_PUSHBYTES_32 4e2e9225ff0eb680764341c3e1b1a4ccbe91e335dea78a68fdb648a5d4a7411c",
      "scriptpubkey_type": "v1_p2tr",
      "scriptpubkey_address": "bc1pfchfyf0lp6mgqajrg8p7rvdyejlfrce4m6nc568akey2t498gywqgk04gd",
      "value": 333
    },
    {
      "scriptpubkey": "5120a1649a102c067a1d501755868c89eae82393f0c5fcd49b8e6cefb74fec9a3cf6",
      "scriptpubkey_asm": "OP_PUSHNUM_1 OP_PUSHBYTES_32 a1649a102c067a1d501755868c89eae82393f0c5fcd49b8e6cefb74fec9a3cf6",
      "scriptpubkey_type": "v1_p2tr",
      "scriptpubkey_address": "bc1p59jf5ypvqeap65qh2krgez02aq3e8ux9ln2fhrnva7m5lmy68nmqgds3gl",
      "value": 1224183
    },
    {
      "scriptpubkey": "a914ea6b832a05c6ca578baa3836f3f25553d41068a587",
      "scriptpubkey_asm": "OP_HASH160 OP_PUSHBYTES_20 ea6b832a05c6ca578baa3836f3f25553d41068a5 OP_EQUAL",
      "scriptpubkey_type": "p2sh",
      "scriptpubkey_address": "3P4WqXDbSLRhzo2H6MT6YFbvBKBDPLbVtQ",
      "value": 30750
    },
    {
      "scriptpubkey": "51204e2e9225ff0eb680764341c3e1b1a4ccbe91e335dea78a68fdb648a5d4a7411c",
      "scriptpubkey_asm": "OP_PUSHNUM_1 OP_PUSHBYTES_32 4e2e9225ff0eb680764341c3e1b1a4ccbe91e335dea78a68fdb648a5d4a7411c",
      "scriptpubkey_type": "v1_p2tr",
      "scriptpubkey_address": "bc1pfchfyf0lp6mgqajrg8p7rvdyejlfrce4m6nc568akey2t498gywqgk04gd",
      "value": 600
    },
    {
      "scriptpubkey": "51204e2e9225ff0eb680764341c3e1b1a4ccbe91e335dea78a68fdb648a5d4a7411c",
      "scriptpubkey_asm": "OP_PUSHNUM_1 OP_PUSHBYTES_32 4e2e9225ff0eb680764341c3e1b1a4ccbe91e335dea78a68fdb648a5d4a7411c",
      "scriptpubkey_type": "v1_p2tr",
      "scriptpubkey_address": "bc1pfchfyf0lp6mgqajrg8p7rvdyejlfrce4m6nc568akey2t498gywqgk04gd",
      "value": 600
    },
    {
      "scriptpubkey": "51204e2e9225ff0eb680764341c3e1b1a4ccbe91e335dea78a68fdb648a5d4a7411c",
      "scriptpubkey_asm": "OP_PUSHNUM_1 OP_PUSHBYTES_32 4e2e9225ff0eb680764341c3e1b1a4ccbe91e335dea78a68fdb648a5d4a7411c",
      "scriptpubkey_type": "v1_p2tr",
      "scriptpubkey_address": "bc1pfchfyf0lp6mgqajrg8p7rvdyejlfrce4m6nc568akey2t498gywqgk04gd",
      "value": 1282318
    }
  ],
  "size": 731,
  "weight": 2123,
  "fee": 7980,
  "status": {
    "confirmed": true,
    "block_height": 834638,
    "block_hash": "000000000000000000025f742c626208ac87e0b7d15054abb4a19ca2d735a54e",
    "block_time": 1710405325
  },
  "hex": "02000000000104a017e87a1ab5d2b3962877b4c9a2ac22e7e30311c50d70b579d3f74151c22f720200000000ffffffff06e60518da05aaecf58f466c09a9b61a9477619cf5daaec84181201021079b680400000000ffffffffb7d8106e1cc8ec78f1ad41ea25df98344bfe1845afbfb7deb49bbe9d0cd323688602000000ffffffffecac38ac9c0dbfd18d3b60a1a428026902b126cfd0159bb0831dabece5f11c340600000000ffffffff07b0040000000000002251204e2e9225ff0eb680764341c3e1b1a4ccbe91e335dea78a68fdb648a5d4a7411c4d010000000000002251204e2e9225ff0eb680764341c3e1b1a4ccbe91e335dea78a68fdb648a5d4a7411cf7ad120000000000225120a1649a102c067a1d501755868c89eae82393f0c5fcd49b8e6cefb74fec9a3cf61e7800000000000017a914ea6b832a05c6ca578baa3836f3f25553d41068a58758020000000000002251204e2e9225ff0eb680764341c3e1b1a4ccbe91e335dea78a68fdb648a5d4a7411c58020000000000002251204e2e9225ff0eb680764341c3e1b1a4ccbe91e335dea78a68fdb648a5d4a7411c0e911300000000002251204e2e9225ff0eb680764341c3e1b1a4ccbe91e335dea78a68fdb648a5d4a7411c0140f54ca95d336d016bcc4b5f40088295b1165a169646c4e1fcb6597c1e28c14a00d84e3ce20cf4ca804c94869ebf5b14c2913e83793f2f2f09cb7e1364335211040140e116a3974c39ddf953506f4ac918c9c70e0903f7a8756bdde1d833823ce36e20c7821bfb48d314fde2f442e00f94bca67829903885c44d333f64caa95f2022670141eebb8f956894d6259a3209f6d1fcafed9eca34fd8f8f0c8ac20833198246832e9abb5ed6e348d5203a47702231a036a79ea54f4d26c61870bc4f48b4f40ab6ce830140dadc450b2b0b35d4a064c20ced9f30ecd4a81c63c40a75aa47482804d4a6dfdaa17b5218441cff197e2fad16009cb4320941d45079208d985c1006455fe6695500000000"
}