{
  "txid": "4d225e2584fc6763f02e46ec15fdb6cdc44be16df5a0c9e87836288b822d5155",
  "version": 2,
  "locktime": 0,
  "vin": [
    {
      "txid": "fcd160935fe9fb8f86d55a41482e815c3b68f65915d2c1220a4b58b55b9a7adb",
      "vout": 1,
      "prevout": {
        "scriptpubkey": "0014c2682fa6547e2d49e3053bc46ede12ce7031ca4b",
        "scriptpubkey_asm": "OP_0 OP_PUSHBYTES_20 c2682fa6547e2d49e3053bc46ede12ce7031ca4b",
        "scriptpubkey_type": "v0_p2wpkh",
        "scriptpubkey_address": "bc1qcf5zlfj50ck5ncc980zxahsjeecrrjjtddenp4",
        "value": 2279711
      },
      "scriptsig": "",
      "scriptsig_asm": "",
      "witness": [
        "3044022053dfc00ca0f56c68a69b6b5d0f00ef8812cfec3c8ad250aaae517f19ee5e543b022056ca1a7ed9ca7626e5e0bbf4e20222eb3e28bd6fec881642b5e4756c2c60528401",
        "028e927579a0c7017abc4ddc44b375a0ead92b5c139ef4e0baee49767014ad6916"
      ],
      "is_coinbase": false,
      "sequence": 4294967295
    }
  ],
  "vout": [
    {
      "scriptpubkey": "0014213b59d155b91e901e6ff4484452f22a7be49cfa",
      "scriptpubkey_asm": "OP_0 OP_PUSHBYTES_20 213b59d155b91e901e6ff4484452f22a7be49cfa",
      "scriptpubkey_type": "v0_p2wpkh",
      "scriptpubkey_address": "bc1qyya4n524hy0fq8n073yyg5hj9fa7f886gzgvw4",
      "value": 59836
    },
    {
      "scriptpubkey": "0014b0c9c3c97c553a0f43b95f62a5d53471a312c292",
      "scriptpubkey_asm": "OP_0 OP_PUSHBYTES_20 b0c9c3c97c553a0f43b95f62a5d53471a312c292",
      "scriptpubkey_type": "v0_p2wpkh",
      "scriptpubkey_address": "bc1qkryu8jtu25aq7saeta32t4f5wx339s5jaz9rx0",
      "value": 2216241
    }
  ],
  "size": 222,
  "weight": 561,
  "fee": 3634,
  "status": {
    "confirmed": true,
    "block_height": 834638,
    "block_hash": "000000000000000000025f742c626208ac87e0b7d15054abb4a19ca2d735a54e",
    "block_time": 1710405325
  },
  "hex": "02000000000101db7a9a5bb5584b0a22c1d21559f6683b5c812e48415ad5868ffbe95f9360d1fc0100000000ffffffff02bce9000000000000160014213b59d155b91e901e6ff4484452f22a7be49cfa31d1210000000000160014b0c9c3c97c553a0f43b95f62a5d53471a312c29202473044022053dfc00ca0f56c68a69b6b5d0f00ef8812cfec3c8ad250aaae517f19ee5e543b022056ca1a7ed9ca7626e5e0bbf4e20222eb3e28bd6fec881642b5e4756c2c6052840121028e927579a0c7017abc4ddc44b375a0ead92b5c139ef4e0baee49767014ad691600000000"
}