{
  "txid": "4d28f92400c2ea1b5d126774c239312cd7e0710b8868bda36478149bedd6b643",
  "version": 2,
  "locktime": 0,
  "vin": [
    {
      "txid": "357225d6fc5a5a8aad8916d35c58c05b4c00af05e3f5e9069a6905ca7f820d65",
      "vout": 0,
      "prevout": {
        "scriptpubkey": "51204d9d0279e38c7118a52bbfd9a012fc48555fb1422f2a9e13dd8056f9abedcc09",
        "scriptpubkey_asm": "OP_PUSHNUM_1 OP_PUSHBYTES_32 4d9d0279e38c7118a52bbfd9a012fc48555fb1422f2a9e13dd8056f9abedcc09",
        "scriptpubkey_type": "v1_p2tr",
        "scriptpubkey_address": "bc1pfkwsy70r33c33ffthlv6qyhufp24lv2z9u4fuy7aspt0n2ldesyssalmr0",
        "value": 3130
      },
      "scriptsig": "",
      "scriptsig_asm": "",
      "witness": [
        "26ea7d92b43240c725a694e0e415bed348cde72b604ef628b4f2b3e5bac7145ad1dee660483b42fdc9f2da7db241749969d5e55340cfa91a5ce8b7c0a692ff57",
        "2058b2588b6ca0ea3cef39a088ffb6c6be833d11f423397d7f1b44b8c6d98b0a5cac0063036f7264010118746578742f706c61696e3b636861727365743d7574662d3800397b2270223a226272632d3230222c226f70223a227472616e73666572222c227469636b223a2244654149222c22616d74223a2231313030227d68",
        "c158b2588b6ca0ea3cef39a088ffb6c6be833d11f423397d7f1b44b8c6d98b0a5c"
      ],
      "is_coinbase": false,
      "sequence": 4294967293
    }
  ],
  "vout": [
    {
      "scriptpubkey": "5120c0e2ac483e27d0b0e6362b70274fd557b8cfc3c9f29a00e5b6bfaec5707b6cb7",
      "scriptpubkey_asm": "OP_PUSHNUM_1 OP_PUSHBYTES_32 c0e2ac483e27d0b0e6362b70274fd557b8cfc3c9f29a00e5b6bfaec5707b6cb7",
      "scriptpubkey_type": "v1_p2tr",
      "scriptpubkey_address": "bc1pcr32cjp7ylgtpe3k9dczwn7427uvls7f72dqpedkh7hv2urmdjmshv56en",
      "value": 546
    }
  ],
  "size": 324,
  "weight": 606,
  "fee": 2584,
  "status": {
    "confirmed": true,
    "block_height": 834638,
    "block_hash": "000000000000000000025f742c626208ac87e0b7d15054abb4a19ca2d735a54e",
    "block_time": 1710405325
  },
  "hex": "02000000000101650d827fca05699a06e9f5e305af004c5bc0585cd31689ad8a5a5afcd62572350000000000fdffffff012202000000000000225120c0e2ac483e27d0b0e6362b70274fd557b8cfc3c9f29a00e5b6bfaec5707b6cb7034026ea7d92b43240c725a694e0e415bed348cde72b604ef628b4f2b3e5bac7145ad1dee660483b42fdc9f2da7db241749969d5e55340cfa91a5ce8b7c0a692ff577f2058b2588b6ca0ea3cef39a088ffb6c6be833d11f423397d7f1b44b8c6d98b0a5cac0063036f7264010118746578742f706c61696e3b636861727365743d7574662d3800397b2270223a226272632d3230222c226f70223a227472616e73666572222c227469636b223a2244654149222c22616d74223a2231313030227d6821c158b2588b6ca0ea3cef39a088ffb6c6be833d11f423397d7f1b44b8c6d98b0a5c00000000"
}