{
  "txid": "4d3af0600554a229bd5e12822640d2a266ec6e73148289d671c5550c04f1c56e",
  "version": 1,
  "locktime": 0,
  "vin": [
    {
      "txid": "6d26e998091ad8374c648c31b86d45b2164599c53168f5e27b38cb9b9d057efc",
      "vout": 1,
      "prevout": {
        "scriptpubkey": "76a91435d8b2c10088021655388f4dfe5267b4fe1e4afb88ac",
        "scriptpubkey_asm": "OP_DUP OP_HASH160 OP_PUSHBYTES_20 35d8b2c10088021655388f4dfe5267b4fe1e4afb OP_EQUALVERIFY OP_CHECKSIG",
        "scriptpubkey_type": "p2pkh",
        "scriptpubkey_address": "15uiQdJXTXGt8BWz7SnPDS4BGYSsMa3h2Y",
        "value": 296794
      },
      "scriptsig": "473044022044bf6ae6d53ab254c7a26d40b769c817cfde0ae88d59f1665d8a27f5db5b5b92022006600242e1b4e6a9d58647fb111a9e7f71dfa8e12edb66a30cfdd1db57a52c4101210282fe2302bd4b6e13eafa571e684f3b4f08d354a8c089e7c49d35e9aa948bd1ee",
      "scriptsig_asm": "OP_PUSHBYTES_71 3044022044bf6ae6d53ab254c7a26d40b769c817cfde0ae88d59f1665d8a27f5db5b5b92022006600242e1b4e6a9d58647fb111a9e7f71dfa8e12edb66a30cfdd1db57a52c4101 OP_PUSHBYTES_33 0282fe2302bd4b6e13eafa571e684f3b4f08d354a8c089e7c49d35e9aa948bd1ee",
      "is_coinbase": false,
      "sequence": 4294967295
    }
  ],
  "vout": [
    {
      "scriptpubkey": "00140da3155ed41fa46ea14688e83ff0bd917f20b915",
      "scriptpubkey_asm": "OP_0 OP_PUSHBYTES_20 0da3155ed41fa46ea14688e83ff0bd917f20b915",
      "scriptpubkey_type": "v0_p2wpkh",
      "scriptpubkey_address": "bc1qpk332hk5r7jxag2x3r5rlu9aj9ljpwg4750l7z",
      "value": 274028
    },
    {
      "scriptpubkey": "76a914542b705eedf31893ea630e7c43395cde7c96467188ac",
      "scriptpubkey_asm": "OP_DUP OP_HASH160 OP_PUSHBYTES_20 542b705eedf31893ea630e7c43395cde7c964671 OP_EQUALVERIFY OP_CHECKSIG",
      "scriptpubkey_type": "p2pkh",
      "scriptpubkey_address": "18g3oJgP7KGAC3pMQxMK7RXD78aGTqCfoL",
      "value": 15630
    }
  ],
  "size": 222,
  "weight": 888,
  "fee": 7136,
  "status": {
    "confirmed": true,
    "block_height": 834638,
    "block_hash": "000000000000000000025f742c626208ac87e0b7d15054abb4a19ca2d735a54e",
    "block_time": 1710405325
  },
  "hex": "0100000001fc7e059d9bcb387be2f56831c5994516b2456db8318c644c37d81a0998e9266d010000006a473044022044bf6ae6d53ab254c7a26d40b769c817cfde0ae88d59f1665d8a27f5db5b5b92022006600242e1b4e6a9d58647fb111a9e7f71dfa8e12edb66a30cfdd1db57a52c4101210282fe2302bd4b6e13eafa571e684f3b4f08d354a8c089e7c49d35e9aa948bd1eeffffffff026c2e0400000000001600140da3155ed41fa46ea14688e83ff0bd917f20b9150e3d0000000000001976a914542b705eedf31893ea630e7c43395cde7c96467188ac00000000"
}