{
  "txid": "4d5a445575df12be0fe25e5ddf5fabf17eac6fdcfbd717cf0a6938d6064b5783",
  "version": 2,
  "locktime": 0,
  "vin": [
    {
      "txid": "193a0215c1b05bf7304586b46515f55b37337c504dc6ffd970cc52de77065837",
      "vout": 0,
      "prevout": {
        "scriptpubkey": "5120bb821e66140ee3fe85dad8316e87c409a55d9d6c64b209d86f6b63e61c15c65c",
        "scriptpubkey_asm": "OP_PUSHNUM_1 OP_PUSHBYTES_32 bb821e66140ee3fe85dad8316e87c409a55d9d6c64b209d86f6b63e61c15c65c",
        "scriptpubkey_type": "v1_p2tr",
        "scriptpubkey_address": "bc1phwppues5pm3lapw6mqckap7ypxj4m8tvvjeqnkr0dd37v8q4cewqt5y6al",
        "value": 4000
      },
      "scriptsig": "",
      "scriptsig_asm": "",
      "witness": [
        "257b9175f9b6804e26963c3268b37bda05605404e4fccc3a6952870f00f15153f05be9e8c9edbe9eca8820bc57aecb0cbe04a58800767324eb7e726b57f2e621",
        "203c7918bca991c130a8ebee944d7b3ef72f93aaff4258c4e4b1080af4b6868807ac0063036f7264010118746578742f706c61696e3b636861727365743d7574662d38004c4e7b0a2270223a22746170222c0a226f70223a22646d742d6d696e74222c0a22646570223a22544241222c0a227469636b223a226e61746f776c222c0a22626c6b223a223c3730363331373e220a7d68",
        "c1742d59390dd0b7bac736be57b6f85c17d7443dca7e3add4938e934860660f1d7"
      ],
      "is_coinbase": false,
      "sequence": 4294967293
    }
  ],
  "vout": [
    {
      "scriptpubkey": "5120aac5326a304a5fe4d65f47ee5f829b39fd194d9878ab9632be3c806abb451792",
      "scriptpubkey_asm": "OP_PUSHNUM_1 OP_PUSHBYTES_32 aac5326a304a5fe4d65f47ee5f829b39fd194d9878ab9632be3c806abb451792",
      "scriptpubkey_type": "v1_p2tr",
      "scriptpubkey_address": "bc1p4tzny63sff07f4jlglh9lq5m8873jnvc0z4evv478jqx4w69z7fqdk66eh",
      "value": 546
    },
    {
      "scriptpubkey": "00140884e019d73f8346b23f49202351882e9db22659",
      "scriptpubkey_asm": "OP_0 OP_PUSHBYTES_20 0884e019d73f8346b23f49202351882e9db22659",
      "scriptpubkey_type": "v0_p2wpkh",
      "scriptpubkey_address": "bc1qpzzwqxwh87p5dv3lfyszx5vg96wmyfje3xz26v",
      "value": 1198
    }
  ],
  "size": 377,
  "weight": 752,
  "fee": 2256,
  "status": {
    "confirmed": true,
    "block_height": 834460,
    "block_hash": "00000000000000000000484a79b643b2524bbce82e5d8a442013fa5b8905ed98",
    "block_time": 1710307468
  },
  "hex": "0200000000010137580677de52cc70d9ffc64d507c33375bf51565b4864530f75bb0c115023a190000000000fdffffff022202000000000000225120aac5326a304a5fe4d65f47ee5f829b39fd194d9878ab9632be3c806abb451792ae040000000000001600140884e019d73f8346b23f49202351882e9db226590340257b9175f9b6804e26963c3268b37bda05605404e4fccc3a6952870f00f15153f05be9e8c9edbe9eca8820bc57aecb0cbe04a58800767324eb7e726b57f2e62195203c7918bca991c130a8ebee944d7b3ef72f93aaff4258c4e4b1080af4b6868807ac0063036f7264010118746578742f706c61696e3b636861727365743d7574662d38004c4e7b0a2270223a22746170222c0a226f70223a22646d742d6d696e74222c0a22646570223a22544241222c0a227469636b223a226e61746f776c222c0a22626c6b223a223c3730363331373e220a7d6821c1742d59390dd0b7bac736be57b6f85c17d7443dca7e3add4938e934860660f1d700000000"
}