{
  "txid": "4d7efd5e88080862a687f3ebfc6d59ed481261f27bffe0d14cb3e50c94bfbe92",
  "version": 2,
  "locktime": 0,
  "vin": [
    {
      "txid": "fe365e58df022cecf7311875da0e4365e583f27e8315863968e02c64e55f8c24",
      "vout": 209,
      "prevout": {
        "scriptpubkey": "0014e02147095e17498b033065e7cd3e29cbb3ec138d",
        "scriptpubkey_asm": "OP_0 OP_PUSHBYTES_20 e02147095e17498b033065e7cd3e29cbb3ec138d",
        "scriptpubkey_type": "v0_p2wpkh",
        "scriptpubkey_address": "bc1quqs5wz27zayckqesvhnu603fewe7cyud4uqvaa",
        "value": 61610
      },
      "scriptsig": "",
      "scriptsig_asm": "",
      "witness": [
        "30450221009a7111daf3dffdde4887a15e8881ed1356820a3d9c0b4f5de74455f1cdd2d466022044c8bc7a20f029598c06fe459b61c01cd123d63ff233837ba64f1b618e97503401",
        "03d3314a0ed015c5bf4309bf3ad88a89ff4c2bf905f01677483f8314b69cc0fc02"
      ],
      "is_coinbase": false,
      "sequence": 4294967293
    }
  ],
  "vout": [
    {
      "scriptpubkey": "76a91418e5da018b9b2497c9a8095ec64898342d7899ac88ac",
      "scriptpubkey_asm": "OP_DUP OP_HASH160 OP_PUSHBYTES_20 18e5da018b9b2497c9a8095ec64898342d7899ac OP_EQUALVERIFY OP_CHECKSIG",
      "scriptpubkey_type": "p2pkh",
      "scriptpubkey_address": "13GeZyPBNxjfBVLdUoA8G7jfUf5HYkFyWq",
      "value": 60390
    }
  ],
  "size": 195,
  "weight": 450,
  "fee": 1220,
  "status": {
    "confirmed": true,
    "block_height": 834464,
    "block_hash": "0000000000000000000177a0869a911a2b65c9bdcd5a8bcb02b68f305bee848e",
    "block_time": 1710308296
  },
  "hex": "02000000000101248c5fe5642ce068398615837ef283e565430eda751831f7ec2c02df585e36fed100000000fdffffff01e6eb0000000000001976a91418e5da018b9b2497c9a8095ec64898342d7899ac88ac024830450221009a7111daf3dffdde4887a15e8881ed1356820a3d9c0b4f5de74455f1cdd2d466022044c8bc7a20f029598c06fe459b61c01cd123d63ff233837ba64f1b618e975034012103d3314a0ed015c5bf4309bf3ad88a89ff4c2bf905f01677483f8314b69cc0fc0200000000"
}