{
  "txid": "4d8792bfe9cb9232311001c0c8e9cc58519a81f3ec4c4df50c2bed9e3bfd7ef6",
  "version": 2,
  "locktime": 0,
  "vin": [
    {
      "txid": "acc3ba00869acb582a3f2904ce3a11dd3779350ce234063fc7d0959246213364",
      "vout": 170,
      "prevout": {
        "scriptpubkey": "5120a880c01ee0a96a9eddb1c03e251b08c36f046116f56a8d59531239026a59dd0b",
        "scriptpubkey_asm": "OP_PUSHNUM_1 OP_PUSHBYTES_32 a880c01ee0a96a9eddb1c03e251b08c36f046116f56a8d59531239026a59dd0b",
        "scriptpubkey_type": "v1_p2tr",
        "scriptpubkey_address": "bc1p4zqvq8hq494fahd3cqlz2xcgcdhsgcgk744g6k2nzgusy6jem59sfz7cnx",
        "value": 1806
      },
      "scriptsig": "",
      "scriptsig_asm": "",
      "witness": [
        "691936a12bf4514f9d2149b6038deaaf6e041587776f48cf40c4fbb002446b1e7db5698d2c3fff3294a7765ed0de0575fcef822a53d86ef2bc5fda82dca025c7",
        "20880de0840869aac1b8e04b9f9ea9d6259e15e2583b6772f3629e87a153a0891fac0063036f726401010a746578742f706c61696e00357b2270223a226272632d3230222c226f70223a226d696e74222c227469636b223a22646f6765222c22616d74223a2234323030227d68",
        "c1880de0840869aac1b8e04b9f9ea9d6259e15e2583b6772f3629e87a153a0891f"
      ],
      "is_coinbase": false,
      "sequence": 4261412863
    }
  ],
  "vout": [
    {
      "scriptpubkey": "00147a665de7a370f4c9b372ab1fae587500a5bcbdb4",
      "scriptpubkey_asm": "OP_0 OP_PUSHBYTES_20 7a665de7a370f4c9b372ab1fae587500a5bcbdb4",
      "scriptpubkey_type": "v0_p2wpkh",
      "scriptpubkey_address": "bc1q0fn9mearwr6vnvmj4v06ukr4qzjme0d565dzcx",
      "value": 294
    }
  ],
  "size": 294,
  "weight": 540,
  "fee": 1512,
  "status": {
    "confirmed": true,
    "block_height": 834460,
    "block_hash": "00000000000000000000484a79b643b2524bbce82e5d8a442013fa5b8905ed98",
    "block_time": 1710307468
  },
  "hex": "02000000000101643321469295d0c73f0634e20c357937dd113ace04293f2a58cb9a8600bac3acaa00000000fffffffd0126010000000000001600147a665de7a370f4c9b372ab1fae587500a5bcbdb40340691936a12bf4514f9d2149b6038deaaf6e041587776f48cf40c4fbb002446b1e7db5698d2c3fff3294a7765ed0de0575fcef822a53d86ef2bc5fda82dca025c76d20880de0840869aac1b8e04b9f9ea9d6259e15e2583b6772f3629e87a153a0891fac0063036f726401010a746578742f706c61696e00357b2270223a226272632d3230222c226f70223a226d696e74222c227469636b223a22646f6765222c22616d74223a2234323030227d6821c1880de0840869aac1b8e04b9f9ea9d6259e15e2583b6772f3629e87a153a0891f00000000"
}