{
  "txid": "4d8a075e69dece980a5e4c390d04fe5ae3f72883b2c0c4d2ecfc9800363d6cba",
  "version": 2,
  "locktime": 0,
  "vin": [
    {
      "txid": "c09acfc5d4df4432856eeb91cc4decf354f1c890e3be62d972b05f2599815a7d",
      "vout": 0,
      "prevout": {
        "scriptpubkey": "0014260d6779eeae087b76b69e7e15baee8364404d6c",
        "scriptpubkey_asm": "OP_0 OP_PUSHBYTES_20 260d6779eeae087b76b69e7e15baee8364404d6c",
        "scriptpubkey_type": "v0_p2wpkh",
        "scriptpubkey_address": "bc1qycxkw70w4cy8ka4knelptwhwsdjyqntv4elaq9",
        "value": 884960
      },
      "scriptsig": "",
      "scriptsig_asm": "",
      "witness": [
        "304402202877838143b7fe4bedcf94a6787b31a026bfe2e8d89323918b82e67535e6fee5022073521008340e3e8102ee1b2862ec6210312f6b3713aea4162d390c3e9f4c2ae801",
        "0320a7e86239872b58e70654f4e283e4dfde7034c5de24ea10c1b8e9aaedfeb788"
      ],
      "is_coinbase": false,
      "sequence": 4294967295
    }
  ],
  "vout": [
    {
      "scriptpubkey": "0014c039069fda92c389c1952511225f8a4f2e8128d5",
      "scriptpubkey_asm": "OP_0 OP_PUSHBYTES_20 c039069fda92c389c1952511225f8a4f2e8128d5",
      "scriptpubkey_type": "v0_p2wpkh",
      "scriptpubkey_address": "bc1qcqusd876jtpcnsv4y5gjyhu2fuhgz2x4sn7sjj",
      "value": 450000
    },
    {
      "scriptpubkey": "0014260d6779eeae087b76b69e7e15baee8364404d6c",
      "scriptpubkey_asm": "OP_0 OP_PUSHBYTES_20 260d6779eeae087b76b69e7e15baee8364404d6c",
      "scriptpubkey_type": "v0_p2wpkh",
      "scriptpubkey_address": "bc1qycxkw70w4cy8ka4knelptwhwsdjyqntv4elaq9",
      "value": 432871
    }
  ],
  "size": 222,
  "weight": 561,
  "fee": 2089,
  "status": {
    "confirmed": true,
    "block_height": 834460,
    "block_hash": "00000000000000000000484a79b643b2524bbce82e5d8a442013fa5b8905ed98",
    "block_time": 1710307468
  },
  "hex": "020000000001017d5a8199255fb072d962bee390c8f154f3ec4dcc91eb6e853244dfd4c5cf9ac00000000000ffffffff02d0dd060000000000160014c039069fda92c389c1952511225f8a4f2e8128d5e79a060000000000160014260d6779eeae087b76b69e7e15baee8364404d6c0247304402202877838143b7fe4bedcf94a6787b31a026bfe2e8d89323918b82e67535e6fee5022073521008340e3e8102ee1b2862ec6210312f6b3713aea4162d390c3e9f4c2ae801210320a7e86239872b58e70654f4e283e4dfde7034c5de24ea10c1b8e9aaedfeb78800000000"
}