{
  "txid": "4dc0081058331df702e3ce06f633eb99b6447f3d05d348ac7c5cb4e5b12b17c1",
  "version": 1,
  "locktime": 0,
  "vin": [
    {
      "txid": "ff5aec60bc0b7a7ca9db3b20c71f1fc49697832328e6927a28c97550b2b15bdc",
      "vout": 0,
      "prevout": {
        "scriptpubkey": "00148fe6cecc6fcd2740f0d745495882262c30c5c6d9",
        "scriptpubkey_asm": "OP_0 OP_PUSHBYTES_20 8fe6cecc6fcd2740f0d745495882262c30c5c6d9",
        "scriptpubkey_type": "v0_p2wpkh",
        "scriptpubkey_address": "bc1q3lnvanr0e5n5puxhg4y43q3x9scvt3ker52qxt",
        "value": 59423
      },
      "scriptsig": "",
      "scriptsig_asm": "",
      "witness": [
        "304402201bc63426ccdfd8e7e9ece1e9cdc7979043c18f30f16b876038ab77c4bcc0fa28022071c1ea2c90777a24a9d87781d7765def2f9d36569a98aa7fc33b1e4bfaece2ff01",
        "023954f792eb95cc80bcb63a40fd5399237564ba9bf65b79f938c635d8c52ee8ca"
      ],
      "is_coinbase": false,
      "sequence": 4294967295
    }
  ],
  "vout": [
    {
      "scriptpubkey": "76a914459c3b86b1123bc271c78850fbd98707559f71b388ac",
      "scriptpubkey_asm": "OP_DUP OP_HASH160 OP_PUSHBYTES_20 459c3b86b1123bc271c78850fbd98707559f71b3 OP_EQUALVERIFY OP_CHECKSIG",
      "scriptpubkey_type": "p2pkh",
      "scriptpubkey_address": "17M4nTpQxdAfYGBeViSu8LdrLcepWUTU8v",
      "value": 52587
    }
  ],
  "size": 194,
  "weight": 449,
  "fee": 6836,
  "status": {
    "confirmed": true,
    "block_height": 834638,
    "block_hash": "000000000000000000025f742c626208ac87e0b7d15054abb4a19ca2d735a54e",
    "block_time": 1710405325
  },
  "hex": "01000000000101dc5bb1b25075c9287a92e62823839796c41f1fc7203bdba97c7a0bbc60ec5aff0000000000ffffffff016bcd0000000000001976a914459c3b86b1123bc271c78850fbd98707559f71b388ac0247304402201bc63426ccdfd8e7e9ece1e9cdc7979043c18f30f16b876038ab77c4bcc0fa28022071c1ea2c90777a24a9d87781d7765def2f9d36569a98aa7fc33b1e4bfaece2ff0121023954f792eb95cc80bcb63a40fd5399237564ba9bf65b79f938c635d8c52ee8ca00000000"
}