{
  "txid": "4df509521a5f585245ac7b63f60be24ff91617c89bf6986111d447b563b34ff2",
  "version": 1,
  "locktime": 0,
  "vin": [
    {
      "txid": "884bd542337dfc37d8c521ac740792abffd2b56cda0a45d69ababe29dbe1c5e6",
      "vout": 1,
      "prevout": {
        "scriptpubkey": "0014f6f8d0364f0e00e2ebb3ceedf13cce370b01fe87",
        "scriptpubkey_asm": "OP_0 OP_PUSHBYTES_20 f6f8d0364f0e00e2ebb3ceedf13cce370b01fe87",
        "scriptpubkey_type": "v0_p2wpkh",
        "scriptpubkey_address": "bc1q7mudqdj0pcqw96anemklz0xwxu9srl58xe4lde",
        "value": 321307
      },
      "scriptsig": "",
      "scriptsig_asm": "",
      "witness": [
        "304502210094ed8f5ef92922a45f7189c00df6840ae81924ec1ddf231469b3d0e5e9a1aa8a02206a66f4aa94dd26cd665421faa510946458139750276762163daa1eed37b6120e01",
        "03014ec65dae1ee8da13500c373080fb5f001fe76fd9aa99daf87d23e6c4b7069e"
      ],
      "is_coinbase": false,
      "sequence": 4294967295
    },
    {
      "txid": "74ff95926a6356ed10c87bec930f870f0a2f8f0e3312aeca30e68215e9aeab9b",
      "vout": 0,
      "prevout": {
        "scriptpubkey": "00140c881fef6d1c7e07c321e23987a995ae2167e5ea",
        "scriptpubkey_asm": "OP_0 OP_PUSHBYTES_20 0c881fef6d1c7e07c321e23987a995ae2167e5ea",
        "scriptpubkey_type": "v0_p2wpkh",
        "scriptpubkey_address": "bc1qpjyplmmdr3lq0sepuguc02v44csk0e02r96ljj",
        "value": 108937
      },
      "scriptsig": "",
      "scriptsig_asm": "",
      "witness": [
        "304402200448fabf059191fbc16fa447a7fad2a13ffe2baf940bab9869a2ff04f5950a1a022048de1f00ea3d50f0c8652f087b4ada4e802b5a78247666f16379228e3a96785e01",
        "0253803423a9d12108607c960afad45d1d2a8978f28dc20889da994975c7df0604"
      ],
      "is_coinbase": false,
      "sequence": 4294967295
    }
  ],
  "vout": [
    {
      "scriptpubkey": "001406386fe3f6d3ed83801ebf9d6ca61bdbcd5c1b14",
      "scriptpubkey_asm": "OP_0 OP_PUSHBYTES_20 06386fe3f6d3ed83801ebf9d6ca61bdbcd5c1b14",
      "scriptpubkey_type": "v0_p2wpkh",
      "scriptpubkey_address": "bc1qqcuxlclk60kc8qq7h7wkefsmm0x4cxc5gk93pa",
      "value": 53204
    },
    {
      "scriptpubkey": "a914d63a0afed820f42a887175178434d5c9f8a49c2887",
      "scriptpubkey_asm": "OP_HASH160 OP_PUSHBYTES_20 d63a0afed820f42a887175178434d5c9f8a49c28 OP_EQUAL",
      "scriptpubkey_type": "p2sh",
      "scriptpubkey_address": "3MDk4VPzET6GbqpNRZ1iN7dwHBtFoLebiv",
      "value": 373664
    }
  ],
  "size": 372,
  "weight": 837,
  "fee": 3376,
  "status": {
    "confirmed": true,
    "block_height": 834638,
    "block_hash": "000000000000000000025f742c626208ac87e0b7d15054abb4a19ca2d735a54e",
    "block_time": 1710405325
  },
  "hex": "01000000000102e6c5e1db29beba9ad6450ada6cb5d2ffab920774ac21c5d837fc7d3342d54b880100000000ffffffff9babaee91582e630caae12330e8f2f0a0f870f93ec7bc810ed56636a9295ff740000000000ffffffff02d4cf00000000000016001406386fe3f6d3ed83801ebf9d6ca61bdbcd5c1b14a0b305000000000017a914d63a0afed820f42a887175178434d5c9f8a49c28870248304502210094ed8f5ef92922a45f7189c00df6840ae81924ec1ddf231469b3d0e5e9a1aa8a02206a66f4aa94dd26cd665421faa510946458139750276762163daa1eed37b6120e012103014ec65dae1ee8da13500c373080fb5f001fe76fd9aa99daf87d23e6c4b7069e0247304402200448fabf059191fbc16fa447a7fad2a13ffe2baf940bab9869a2ff04f5950a1a022048de1f00ea3d50f0c8652f087b4ada4e802b5a78247666f16379228e3a96785e01210253803423a9d12108607c960afad45d1d2a8978f28dc20889da994975c7df060400000000"
}