{
  "txid": "4dfa573494f6274e088ff373ab905e1479571f0e599e04d559b08fc49f3ad947",
  "version": 2,
  "locktime": 0,
  "vin": [
    {
      "txid": "9a5b9d06ef2abf01182ec070a002f89da53db6e62d09d1182a01d3a45af0dadc",
      "vout": 0,
      "prevout": {
        "scriptpubkey": "5120b102fb899180126f3bc382dac57c04ebb6a45410dc6f33d6eb36823e44af08e2",
        "scriptpubkey_asm": "OP_PUSHNUM_1 OP_PUSHBYTES_32 b102fb899180126f3bc382dac57c04ebb6a45410dc6f33d6eb36823e44af08e2",
        "scriptpubkey_type": "v1_p2tr",
        "scriptpubkey_address": "bc1pkyp0hzv3sqfx7w7rstdv2lqyawm2g4qsm3hn84htx6pru390pr3qwhavtr",
        "value": 2826
      },
      "scriptsig": "",
      "scriptsig_asm": "",
      "witness": [
        "de6312a551c1f955e4e98dbe35ccf75e186edde03aa62d5c7af18ac82ed92f50b0fea3f4feacc9d6abc981480da938e341c718c82d3a37377f845daa3cfbfac0",
        "20eceee3e0895d03998c44aa750d699fc3a57a168e2b79de699eb9f0ad18c7d8eeac0063036f7264010118746578742f706c61696e3b636861727365743d7574662d3800397b2270223a226272632d3230222c226f70223a227472616e73666572222c227469636b223a224652414d222c22616d74223a2238323833227d68",
        "c1eceee3e0895d03998c44aa750d699fc3a57a168e2b79de699eb9f0ad18c7d8ee"
      ],
      "is_coinbase": false,
      "sequence": 4294967293
    }
  ],
  "vout": [
    {
      "scriptpubkey": "5120d826ab2636fc8fbdecaf2d73e51ed5dcc9e9e9c452a5604cd40d44ab61a2342d",
      "scriptpubkey_asm": "OP_PUSHNUM_1 OP_PUSHBYTES_32 d826ab2636fc8fbdecaf2d73e51ed5dcc9e9e9c452a5604cd40d44ab61a2342d",
      "scriptpubkey_type": "v1_p2tr",
      "scriptpubkey_address": "bc1pmqn2kf3klj8mmm9094e728k4mny7n6wy22jkqnx5p4z2kcdzxsksslj3mr",
      "value": 546
    }
  ],
  "size": 324,
  "weight": 606,
  "fee": 2280,
  "status": {
    "confirmed": true,
    "block_height": 834638,
    "block_hash": "000000000000000000025f742c626208ac87e0b7d15054abb4a19ca2d735a54e",
    "block_time": 1710405325
  },
  "hex": "02000000000101dcdaf05aa4d3012a18d1092de6b63da59df802a070c02e1801bf2aef069d5b9a0000000000fdffffff012202000000000000225120d826ab2636fc8fbdecaf2d73e51ed5dcc9e9e9c452a5604cd40d44ab61a2342d0340de6312a551c1f955e4e98dbe35ccf75e186edde03aa62d5c7af18ac82ed92f50b0fea3f4feacc9d6abc981480da938e341c718c82d3a37377f845daa3cfbfac07f20eceee3e0895d03998c44aa750d699fc3a57a168e2b79de699eb9f0ad18c7d8eeac0063036f7264010118746578742f706c61696e3b636861727365743d7574662d3800397b2270223a226272632d3230222c226f70223a227472616e73666572222c227469636b223a224652414d222c22616d74223a2238323833227d6821c1eceee3e0895d03998c44aa750d699fc3a57a168e2b79de699eb9f0ad18c7d8ee00000000"
}