{
  "txid": "4e0792a07715145aced847984c55cb7b87c65bcb752381000f9edfa3e7c22b9c",
  "version": 2,
  "locktime": 0,
  "vin": [
    {
      "txid": "acc3ba00869acb582a3f2904ce3a11dd3779350ce234063fc7d0959246213364",
      "vout": 241,
      "prevout": {
        "scriptpubkey": "512017cdfe43347d2e22d558067cb00a9e37aaf767f655974eb33b5df7cb1136c7fb",
        "scriptpubkey_asm": "OP_PUSHNUM_1 OP_PUSHBYTES_32 17cdfe43347d2e22d558067cb00a9e37aaf767f655974eb33b5df7cb1136c7fb",
        "scriptpubkey_type": "v1_p2tr",
        "scriptpubkey_address": "bc1pzlxluse505hz942cqe7tqz57x740welk2kt5avemthmukyfkclas70qzum",
        "value": 1806
      },
      "scriptsig": "",
      "scriptsig_asm": "",
      "witness": [
        "2e16ff80535421457baf253fddd2bc51a82b15159f3a606321822c373db1ff42538ffa876d1cbe09e37112323e03af6dac277a9a0b666fc864360f891a9f1832",
        "20dc796bc862839bc207719beb69d4d8eeeb81ab296d53fb52868b6876106f4c73ac0063036f726401010a746578742f706c61696e00357b2270223a226272632d3230222c226f70223a226d696e74222c227469636b223a22646f6765222c22616d74223a2234323030227d68",
        "c1dc796bc862839bc207719beb69d4d8eeeb81ab296d53fb52868b6876106f4c73"
      ],
      "is_coinbase": false,
      "sequence": 4261412863
    }
  ],
  "vout": [
    {
      "scriptpubkey": "00147a665de7a370f4c9b372ab1fae587500a5bcbdb4",
      "scriptpubkey_asm": "OP_0 OP_PUSHBYTES_20 7a665de7a370f4c9b372ab1fae587500a5bcbdb4",
      "scriptpubkey_type": "v0_p2wpkh",
      "scriptpubkey_address": "bc1q0fn9mearwr6vnvmj4v06ukr4qzjme0d565dzcx",
      "value": 294
    }
  ],
  "size": 294,
  "weight": 540,
  "fee": 1512,
  "status": {
    "confirmed": true,
    "block_height": 834460,
    "block_hash": "00000000000000000000484a79b643b2524bbce82e5d8a442013fa5b8905ed98",
    "block_time": 1710307468
  },
  "hex": "02000000000101643321469295d0c73f0634e20c357937dd113ace04293f2a58cb9a8600bac3acf100000000fffffffd0126010000000000001600147a665de7a370f4c9b372ab1fae587500a5bcbdb403402e16ff80535421457baf253fddd2bc51a82b15159f3a606321822c373db1ff42538ffa876d1cbe09e37112323e03af6dac277a9a0b666fc864360f891a9f18326d20dc796bc862839bc207719beb69d4d8eeeb81ab296d53fb52868b6876106f4c73ac0063036f726401010a746578742f706c61696e00357b2270223a226272632d3230222c226f70223a226d696e74222c227469636b223a22646f6765222c22616d74223a2234323030227d6821c1dc796bc862839bc207719beb69d4d8eeeb81ab296d53fb52868b6876106f4c7300000000"
}