{
  "txid": "4e1b57752fed92d5ea8c35fa95aa30a2e946a7e605474ef16c1462da2dc88d74",
  "version": 2,
  "locktime": 0,
  "vin": [
    {
      "txid": "201fe9ffc664c12b5b8d4d08d241aef5458a20da52bed83b8baff4565606ba9e",
      "vout": 0,
      "prevout": {
        "scriptpubkey": "5120acd3b49e5741c5d81aec0ceeb94c0208f041a335a8d4506f3c16d2d632fd1c5e",
        "scriptpubkey_asm": "OP_PUSHNUM_1 OP_PUSHBYTES_32 acd3b49e5741c5d81aec0ceeb94c0208f041a335a8d4506f3c16d2d632fd1c5e",
        "scriptpubkey_type": "v1_p2tr",
        "scriptpubkey_address": "bc1p4nfmf8jhg8zasxhvpnhtjnqzprcyrge44r29qmeuzmfdvvhar30qa0slyy",
        "value": 5000
      },
      "scriptsig": "",
      "scriptsig_asm": "",
      "witness": [
        "500e405327a365f6c3c03b268b2aef156599a40c81e7a95dd6beb647a73302f68daf214acb5cd759ddc8e04193abb3fa8ea2757373133574f4605ad36e96c820",
        "209379867fba86909a327c4681d1979edecdb47d74a1f63c0f21b0c7fd4db32992ac0063036f7264010118746578742f706c61696e3b636861727365743d7574662d3800387b2270223a226272632d3230222c226f70223a227472616e73666572222c227469636b223a22316f6e38222c22616d74223a22313830227d68",
        "c15c177c8c1d90d8925e395a488c9564c2f1ea537d276d8f5997208835ef38e234"
      ],
      "is_coinbase": false,
      "sequence": 4294967293
    }
  ],
  "vout": [
    {
      "scriptpubkey": "51203863ee247d81f74f5e191d80e32144df0dbdace9be51ab88a63080ac18e61773",
      "scriptpubkey_asm": "OP_PUSHNUM_1 OP_PUSHBYTES_32 3863ee247d81f74f5e191d80e32144df0dbdace9be51ab88a63080ac18e61773",
      "scriptpubkey_type": "v1_p2tr",
      "scriptpubkey_address": "bc1p8p37ufras8m57hserkqwxg2ymuxmmt8fheg6hz9xxzq2cx8xzaesp4p6c2",
      "value": 546
    },
    {
      "scriptpubkey": "0014ba50a919bee994a628d104c9bb8956023cd47ef0",
      "scriptpubkey_asm": "OP_0 OP_PUSHBYTES_20 ba50a919bee994a628d104c9bb8956023cd47ef0",
      "scriptpubkey_type": "v0_p2wpkh",
      "scriptpubkey_address": "bc1qhfg2jxd7ax22v2x3qnymhz2kqg7dglhs7v4q6h",
      "value": 2075
    }
  ],
  "size": 354,
  "weight": 729,
  "fee": 2379,
  "status": {
    "confirmed": true,
    "block_height": 834460,
    "block_hash": "00000000000000000000484a79b643b2524bbce82e5d8a442013fa5b8905ed98",
    "block_time": 1710307468
  },
  "hex": "020000000001019eba065656f4af8b3bd8be52da208a45f5ae41d2084d8d5b2bc164c6ffe91f200000000000fdffffff0222020000000000002251203863ee247d81f74f5e191d80e32144df0dbdace9be51ab88a63080ac18e617731b08000000000000160014ba50a919bee994a628d104c9bb8956023cd47ef00340500e405327a365f6c3c03b268b2aef156599a40c81e7a95dd6beb647a73302f68daf214acb5cd759ddc8e04193abb3fa8ea2757373133574f4605ad36e96c8207e209379867fba86909a327c4681d1979edecdb47d74a1f63c0f21b0c7fd4db32992ac0063036f7264010118746578742f706c61696e3b636861727365743d7574662d3800387b2270223a226272632d3230222c226f70223a227472616e73666572222c227469636b223a22316f6e38222c22616d74223a22313830227d6821c15c177c8c1d90d8925e395a488c9564c2f1ea537d276d8f5997208835ef38e23400000000"
}