{
  "txid": "4e1bc2a7fc422ee2ee6a686cc58503f397cf898df143d1759df70ee5c5a8d411",
  "version": 2,
  "locktime": 0,
  "vin": [
    {
      "txid": "63ae3f28afd5d0a929109d69e6dd14c64a5f88e60465d97a08caa06060e15e8f",
      "vout": 43,
      "prevout": {
        "scriptpubkey": "512012aba0f1d525fbaeffe6a1d65cabfb855497ca90582d577a6b19d1ac90fbfa2b",
        "scriptpubkey_asm": "OP_PUSHNUM_1 OP_PUSHBYTES_32 12aba0f1d525fbaeffe6a1d65cabfb855497ca90582d577a6b19d1ac90fbfa2b",
        "scriptpubkey_type": "v1_p2tr",
        "scriptpubkey_address": "bc1pz246puw4yha6allx58t9e2lms42f0j5stqk4w7ntr8g6ey8mlg4szmzs92",
        "value": 3055
      },
      "scriptsig": "",
      "scriptsig_asm": "",
      "witness": [
        "ffa1ec4349199f66a14231054819ab309ad31cb5d0b7dbfa70f79b70679e6f088e96735d5fe208fd2c0d5f3afa24318a8fa9dee2ac064ebf2ab4c01e10f38d3e",
        "2019ef25ee1e94de703d8fc242784376123767301c19cec4fd507f000d5638e1b1ac0063036f726401011e6170706c69636174696f6e2f6a736f6e3b636861727365743d7574662d38004cd37b2270223a22706f772d3230222c226f70223a226d696e74222c227469636b223a2250455045222c22616d74223a2231303030222c22736f6c7574696f6e223a22504550453a626331706a39356d676c663836377961396a32756368377a34647836793635746736373330676e7661796b706b6c77793335757667376a73773033676d713a303030303030303030303030303030303030303139393431613561653132383937363539383134343239323533333030353762306461393666336465613163353a3634313430373334323936227d68",
        "c0ffe2b6185dd514800047a24f9c3d628916daef0b23d9f98ab4cda2a0457a18d1"
      ],
      "is_coinbase": false,
      "sequence": 4294967295
    }
  ],
  "vout": [
    {
      "scriptpubkey": "51209169b47d27d789d2c95cc5fc2ab4da26a8b46bd17a26ce92c1b7dc48d38c47a5",
      "scriptpubkey_asm": "OP_PUSHNUM_1 OP_PUSHBYTES_32 9169b47d27d789d2c95cc5fc2ab4da26a8b46bd17a26ce92c1b7dc48d38c47a5",
      "scriptpubkey_type": "v1_p2tr",
      "scriptpubkey_address": "bc1pj95mglf867ya9j2uch7z4dx6y65tg6730gnvaykpklwy35uvg7jsw03gmq",
      "value": 546
    }
  ],
  "size": 487,
  "weight": 769,
  "fee": 2509,
  "status": {
    "confirmed": true,
    "block_height": 834460,
    "block_hash": "00000000000000000000484a79b643b2524bbce82e5d8a442013fa5b8905ed98",
    "block_time": 1710307468
  },
  "hex": "020000000001018f5ee16060a0ca087ad96504e6885f4ac614dde6699d1029a9d0d5af283fae632b00000000ffffffff0122020000000000002251209169b47d27d789d2c95cc5fc2ab4da26a8b46bd17a26ce92c1b7dc48d38c47a50340ffa1ec4349199f66a14231054819ab309ad31cb5d0b7dbfa70f79b70679e6f088e96735d5fe208fd2c0d5f3afa24318a8fa9dee2ac064ebf2ab4c01e10f38d3efd20012019ef25ee1e94de703d8fc242784376123767301c19cec4fd507f000d5638e1b1ac0063036f726401011e6170706c69636174696f6e2f6a736f6e3b636861727365743d7574662d38004cd37b2270223a22706f772d3230222c226f70223a226d696e74222c227469636b223a2250455045222c22616d74223a2231303030222c22736f6c7574696f6e223a22504550453a626331706a39356d676c663836377961396a32756368377a34647836793635746736373330676e7661796b706b6c77793335757667376a73773033676d713a303030303030303030303030303030303030303139393431613561653132383937363539383134343239323533333030353762306461393666336465613163353a3634313430373334323936227d6821c0ffe2b6185dd514800047a24f9c3d628916daef0b23d9f98ab4cda2a0457a18d100000000"
}