{
  "txid": "4e2c428da8f881ba91fb99ac07a39cf5cc407ab52a91e541e0f1ea6c26518235",
  "version": 2,
  "locktime": 0,
  "vin": [
    {
      "txid": "756fc9993d7a2b705949d6f72fed9d38f8db430a1e0ce08917e1b642af4f43ef",
      "vout": 0,
      "prevout": {
        "scriptpubkey": "0014e10a6d4406e9ce9286cfc1433e8d0f3e8720b187",
        "scriptpubkey_asm": "OP_0 OP_PUSHBYTES_20 e10a6d4406e9ce9286cfc1433e8d0f3e8720b187",
        "scriptpubkey_type": "v0_p2wpkh",
        "scriptpubkey_address": "bc1quy9x63qxa88f9pk0c9pnarg086rjpvv8anvh2s",
        "value": 546
      },
      "scriptsig": "",
      "scriptsig_asm": "",
      "witness": [
        "30440220771a2c83c7a15b075c3d4d2d61321636879226fffbeb96ffb87515c5d2f8ea8a022044fe72f6d725f5566accab1b9c71131804fee8eccd53f8e04a54377c52b6dea701",
        "02ce8fbdf73deecd900f3ca41f9fa4e34ab236e5915a2b1200fb07cfee35b33d18"
      ],
      "is_coinbase": false,
      "sequence": 4294967295
    },
    {
      "txid": "6810cda08a02d3a7476f6ab0927a213c369963cca7035b442f0dd8ef3790595a",
      "vout": 0,
      "prevout": {
        "scriptpubkey": "0014e10a6d4406e9ce9286cfc1433e8d0f3e8720b187",
        "scriptpubkey_asm": "OP_0 OP_PUSHBYTES_20 e10a6d4406e9ce9286cfc1433e8d0f3e8720b187",
        "scriptpubkey_type": "v0_p2wpkh",
        "scriptpubkey_address": "bc1quy9x63qxa88f9pk0c9pnarg086rjpvv8anvh2s",
        "value": 20715
      },
      "scriptsig": "",
      "scriptsig_asm": "",
      "witness": [
        "3045022100ab4f7de34c3a7b3debc0d9c24d369c658efeab9228af1a289baac1e123d23878022071ea49a577d397328c0e8e73822691a30f5f517a4d2294e2a56ccf75ffe9bd1501",
        "02ce8fbdf73deecd900f3ca41f9fa4e34ab236e5915a2b1200fb07cfee35b33d18"
      ],
      "is_coinbase": false,
      "sequence": 4294967295
    }
  ],
  "vout": [
    {
      "scriptpubkey": "0014e10a6d4406e9ce9286cfc1433e8d0f3e8720b187",
      "scriptpubkey_asm": "OP_0 OP_PUSHBYTES_20 e10a6d4406e9ce9286cfc1433e8d0f3e8720b187",
      "scriptpubkey_type": "v0_p2wpkh",
      "scriptpubkey_address": "bc1quy9x63qxa88f9pk0c9pnarg086rjpvv8anvh2s",
      "value": 546
    },
    {
      "scriptpubkey": "0014e10a6d4406e9ce9286cfc1433e8d0f3e8720b187",
      "scriptpubkey_asm": "OP_0 OP_PUSHBYTES_20 e10a6d4406e9ce9286cfc1433e8d0f3e8720b187",
      "scriptpubkey_type": "v0_p2wpkh",
      "scriptpubkey_address": "bc1quy9x63qxa88f9pk0c9pnarg086rjpvv8anvh2s",
      "value": 17998
    }
  ],
  "size": 371,
  "weight": 833,
  "fee": 2717,
  "status": {
    "confirmed": true,
    "block_height": 834460,
    "block_hash": "00000000000000000000484a79b643b2524bbce82e5d8a442013fa5b8905ed98",
    "block_time": 1710307468
  },
  "hex": "02000000000102ef434faf42b6e11789e00c1e0a43dbf8389ded2ff7d64959702b7a3d99c96f750000000000ffffffff5a599037efd80d2f445b03a7cc6399363c217a92b06a6f47a7d3028aa0cd10680000000000ffffffff022202000000000000160014e10a6d4406e9ce9286cfc1433e8d0f3e8720b1874e46000000000000160014e10a6d4406e9ce9286cfc1433e8d0f3e8720b187024730440220771a2c83c7a15b075c3d4d2d61321636879226fffbeb96ffb87515c5d2f8ea8a022044fe72f6d725f5566accab1b9c71131804fee8eccd53f8e04a54377c52b6dea7012102ce8fbdf73deecd900f3ca41f9fa4e34ab236e5915a2b1200fb07cfee35b33d1802483045022100ab4f7de34c3a7b3debc0d9c24d369c658efeab9228af1a289baac1e123d23878022071ea49a577d397328c0e8e73822691a30f5f517a4d2294e2a56ccf75ffe9bd15012102ce8fbdf73deecd900f3ca41f9fa4e34ab236e5915a2b1200fb07cfee35b33d1800000000"
}