{
  "txid": "4e330922eb98fe785af7e08855ffc179635a6446fbcc7b03037d08ea53a47a7a",
  "version": 1,
  "locktime": 0,
  "vin": [
    {
      "txid": "9e481344347dceff3b85eeef38373b92213a331ddf9332c9b35a58fe0b3e893a",
      "vout": 1,
      "prevout": {
        "scriptpubkey": "0014d280d04f67b62e5f3275b77c6cd7f71b2ef82f5c",
        "scriptpubkey_asm": "OP_0 OP_PUSHBYTES_20 d280d04f67b62e5f3275b77c6cd7f71b2ef82f5c",
        "scriptpubkey_type": "v0_p2wpkh",
        "scriptpubkey_address": "bc1q62qdqnm8kch97vn4ka7xe4lhrvh0st6utp0a5k",
        "value": 2132786
      },
      "scriptsig": "",
      "scriptsig_asm": "",
      "witness": [
        "304402206b23d99739c5df056810b28183a4f40a12627e670b86dcefe23dd7638d58ef9b02204619a39a8e6b330eef069bebd8cd5ebb6b547933f163ed57e11c3725bef6ae3c01",
        "03fd6887a852d3b3a14f20d5e1dd3eb0b1384706dfc1f1493011f6f1f577354185"
      ],
      "is_coinbase": false,
      "sequence": 4294967295
    }
  ],
  "vout": [
    {
      "scriptpubkey": "76a914cb15249a6a9cecc0aaba33c00e0f65472479beb788ac",
      "scriptpubkey_asm": "OP_DUP OP_HASH160 OP_PUSHBYTES_20 cb15249a6a9cecc0aaba33c00e0f65472479beb7 OP_EQUALVERIFY OP_CHECKSIG",
      "scriptpubkey_type": "p2pkh",
      "scriptpubkey_address": "1KWoVywKLRGvkzZfQ8tQa4ajFpMWiduqGy",
      "value": 735904
    },
    {
      "scriptpubkey": "0014d280d04f67b62e5f3275b77c6cd7f71b2ef82f5c",
      "scriptpubkey_asm": "OP_0 OP_PUSHBYTES_20 d280d04f67b62e5f3275b77c6cd7f71b2ef82f5c",
      "scriptpubkey_type": "v0_p2wpkh",
      "scriptpubkey_address": "bc1q62qdqnm8kch97vn4ka7xe4lhrvh0st6utp0a5k",
      "value": 1392994
    }
  ],
  "size": 225,
  "weight": 573,
  "fee": 3888,
  "status": {
    "confirmed": true,
    "block_height": 834638,
    "block_hash": "000000000000000000025f742c626208ac87e0b7d15054abb4a19ca2d735a54e",
    "block_time": 1710405325
  },
  "hex": "010000000001013a893e0bfe585ab3c93293df1d333a21923b3738efee853bffce7d344413489e0100000000ffffffff02a03a0b00000000001976a914cb15249a6a9cecc0aaba33c00e0f65472479beb788ac6241150000000000160014d280d04f67b62e5f3275b77c6cd7f71b2ef82f5c0247304402206b23d99739c5df056810b28183a4f40a12627e670b86dcefe23dd7638d58ef9b02204619a39a8e6b330eef069bebd8cd5ebb6b547933f163ed57e11c3725bef6ae3c012103fd6887a852d3b3a14f20d5e1dd3eb0b1384706dfc1f1493011f6f1f57735418500000000"
}