{
  "txid": "4e381a3434630b860c68e3a82179744f186da91d7f2a32f332573dbf096f1c8f",
  "version": 2,
  "locktime": 834637,
  "vin": [
    {
      "txid": "685d7fd96dc7358f8f1f39f13750632e5f3decb83e8fdfc238bd2d84db54ce47",
      "vout": 0,
      "prevout": {
        "scriptpubkey": "00145f72c8ecc67252994a241eb242aef400d41e3ded",
        "scriptpubkey_asm": "OP_0 OP_PUSHBYTES_20 5f72c8ecc67252994a241eb242aef400d41e3ded",
        "scriptpubkey_type": "v0_p2wpkh",
        "scriptpubkey_address": "bc1qtaev3mxxwfffjj3yr6ey9th5qr2pu00dgxzfpp",
        "value": 24017
      },
      "scriptsig": "",
      "scriptsig_asm": "",
      "witness": [
        "3045022100b1445f77b05502a9bff648a5829770838aa99b2fbb937e9ee939892814dc24aa022031ff69e16b63fbd57fb7568e1e605829c86e5b4effdd58ce1df64cab6053684801",
        "02d0d56f8a399e066f2203c2d8aaccfedac28234cf348d5e735e9e0e31fc3b6980"
      ],
      "is_coinbase": false,
      "sequence": 0
    }
  ],
  "vout": [
    {
      "scriptpubkey": "51207c0af13646440df29dd3b407ae385621101fbbede03d25e5755e1d4eb9d8d145",
      "scriptpubkey_asm": "OP_PUSHNUM_1 OP_PUSHBYTES_32 7c0af13646440df29dd3b407ae385621101fbbede03d25e5755e1d4eb9d8d145",
      "scriptpubkey_type": "v1_p2tr",
      "scriptpubkey_address": "bc1p0s90zdjxgsxl98wnksr6uwzkyygplwlduq7jtet4tcw5awwc69zswjqpru",
      "value": 22079
    }
  ],
  "size": 204,
  "weight": 486,
  "fee": 1938,
  "status": {
    "confirmed": true,
    "block_height": 834638,
    "block_hash": "000000000000000000025f742c626208ac87e0b7d15054abb4a19ca2d735a54e",
    "block_time": 1710405325
  },
  "hex": "0200000000010147ce54db842dbd38c2df8f3eb8ec3d5f2e635037f1391f8f8f35c76dd97f5d68000000000000000000013f560000000000002251207c0af13646440df29dd3b407ae385621101fbbede03d25e5755e1d4eb9d8d14502483045022100b1445f77b05502a9bff648a5829770838aa99b2fbb937e9ee939892814dc24aa022031ff69e16b63fbd57fb7568e1e605829c86e5b4effdd58ce1df64cab60536848012102d0d56f8a399e066f2203c2d8aaccfedac28234cf348d5e735e9e0e31fc3b69804dbc0c00"
}