{
  "txid": "4e3e235645095375b07ddb912745f1a674a51d9d7d83db61c7d07cec47ebee81",
  "version": 2,
  "locktime": 0,
  "vin": [
    {
      "txid": "6d651855366df95b0ae7cb5756088f3605952d829e0013fcaf65cf5020a12868",
      "vout": 1,
      "prevout": {
        "scriptpubkey": "5120b55185aad09211573a50c32a0a23324cbc14751aec38e69416a6bacd19daa46e",
        "scriptpubkey_asm": "OP_PUSHNUM_1 OP_PUSHBYTES_32 b55185aad09211573a50c32a0a23324cbc14751aec38e69416a6bacd19daa46e",
        "scriptpubkey_type": "v1_p2tr",
        "scriptpubkey_address": "bc1pk4gct2ksjgg4wwjscv4q5gejfj7pgag6asuwd9qk56av6xw653hq2rnfg4",
        "value": 2596342
      },
      "scriptsig": "",
      "scriptsig_asm": "",
      "witness": [
        "72821dadb9fe6d8c4589fd7f75b17fb671066c9fb83c067976245fb2017a9f9fccdee5615bdb50a75e4cb17e6abb12ad0ed9d17337e3ea0cbeb77c97dfaa44db"
      ],
      "is_coinbase": false,
      "sequence": 4294967293
    }
  ],
  "vout": [
    {
      "scriptpubkey": "51201f1c94c9d0ba1c045b3de9d5667b4c2937dff859ac0904ea268b55fa65256200",
      "scriptpubkey_asm": "OP_PUSHNUM_1 OP_PUSHBYTES_32 1f1c94c9d0ba1c045b3de9d5667b4c2937dff859ac0904ea268b55fa65256200",
      "scriptpubkey_type": "v1_p2tr",
      "scriptpubkey_address": "bc1pruwffjwshgwqgkeaa82kv76v9ymal7ze4sysf63x3d2l5ef9vgqqqmsw22",
      "value": 8046
    },
    {
      "scriptpubkey": "512045cd2c2b16dbf90e8971c515fa615ac2466e796b5dfc7b5b4925824ef8aaf252",
      "scriptpubkey_asm": "OP_PUSHNUM_1 OP_PUSHBYTES_32 45cd2c2b16dbf90e8971c515fa615ac2466e796b5dfc7b5b4925824ef8aaf252",
      "scriptpubkey_type": "v1_p2tr",
      "scriptpubkey_address": "bc1pghxjc2ckm0usazt3c52l5c26cfrxu7ttth78kk6fykpya7927ffq5uhxkm",
      "value": 2580596
    }
  ],
  "size": 205,
  "weight": 616,
  "fee": 7700,
  "status": {
    "confirmed": true,
    "block_height": 834460,
    "block_hash": "00000000000000000000484a79b643b2524bbce82e5d8a442013fa5b8905ed98",
    "block_time": 1710307468
  },
  "hex": "020000000001016828a12050cf65affc13009e822d9505368f085657cbe70a5bf96d365518656d0100000000fdffffff026e1f0000000000002251201f1c94c9d0ba1c045b3de9d5667b4c2937dff859ac0904ea268b55fa65256200746027000000000022512045cd2c2b16dbf90e8971c515fa615ac2466e796b5dfc7b5b4925824ef8aaf252014072821dadb9fe6d8c4589fd7f75b17fb671066c9fb83c067976245fb2017a9f9fccdee5615bdb50a75e4cb17e6abb12ad0ed9d17337e3ea0cbeb77c97dfaa44db00000000"
}