{
  "txid": "4e48a3e426557e4283d6235739f19e00cbbc971dbae626a7e732211f88c4b116",
  "version": 1,
  "locktime": 0,
  "vin": [
    {
      "txid": "20ad12bc366328da65d5aec6608704acccc58eb40fa2b67fd313dab2c6925ab1",
      "vout": 0,
      "prevout": {
        "scriptpubkey": "0020e2be13207d2b6554251071585f5f4167ef7a8d921fcc6186b1834fe29cc12a0e",
        "scriptpubkey_asm": "OP_0 OP_PUSHBYTES_32 e2be13207d2b6554251071585f5f4167ef7a8d921fcc6186b1834fe29cc12a0e",
        "scriptpubkey_type": "v0_p2wsh",
        "scriptpubkey_address": "bc1qu2lpxgra9dj4gfgsw9v97h6pvlhh4rvjrlxxrp43sd8798xp9g8qf6uyns",
        "value": 27283
      },
      "scriptsig": "",
      "scriptsig_asm": "",
      "witness": [
        "58b24443442633be6893879d2260fb288292120e47bf6eb957d7269a21761b1a",
        "3045022100a297d05877fa615d7eef036c084efd8075419151d65ec6e3128d73b4fa2ca889022021a10eb5ae8adfb497a033c4915675da9e15086481cfd1feea57b27c0ab8186a01",
        "304402201114b6650e81d6e8d48a41a134ea2a954bc851181c4fc980378a17557efa2c56022036b679dd42ee59c096c44d089d7f2db0747d62d52d0d421248dd0a5469cd8c3401",
        "2103b8a1dc13ec5a7d416c6ad84c0d13c02f83224ea9ec48662d8d0402df46b4ba96ac6476a914f301b94955597fd1c586eafa83784c52ee10e37c88ad03dbbb0cb167210259a772f6565c429e23a4b6b8cd18e7209abb2cd7f6e57ea23ac15ddd603824b3ad82012088a914170942209cbdf8fb70490a4bf7fd01736e05141e8768"
      ],
      "is_coinbase": false,
      "sequence": 4294967295,
      "inner_witnessscript_asm": "OP_PUSHBYTES_33 03b8a1dc13ec5a7d416c6ad84c0d13c02f83224ea9ec48662d8d0402df46b4ba96 OP_CHECKSIG OP_NOTIF OP_DUP OP_HASH160 OP_PUSHBYTES_20 f301b94955597fd1c586eafa83784c52ee10e37c OP_EQUALVERIFY OP_CHECKSIGVERIFY OP_PUSHBYTES_3 dbbb0c OP_CLTV OP_ELSE OP_PUSHBYTES_33 0259a772f6565c429e23a4b6b8cd18e7209abb2cd7f6e57ea23ac15ddd603824b3 OP_CHECKSIGVERIFY OP_SIZE OP_PUSHBYTES_1 20 OP_EQUALVERIFY OP_HASH160 OP_PUSHBYTES_20 170942209cbdf8fb70490a4bf7fd01736e05141e OP_EQUAL OP_ENDIF"
    }
  ],
  "vout": [
    {
      "scriptpubkey": "512080ee6bbc0b201a4c184d1fd9e3d01b9a2e0502d80a0117e29195a8304ea1ee98",
      "scriptpubkey_asm": "OP_PUSHNUM_1 OP_PUSHBYTES_32 80ee6bbc0b201a4c184d1fd9e3d01b9a2e0502d80a0117e29195a8304ea1ee98",
      "scriptpubkey_type": "v1_p2tr",
      "scriptpubkey_address": "bc1psrhxh0qtyqdycxzdrlv785qmnghq2qkcpgq30c53jk5rqn4pa6vqhenehu",
      "value": 25000
    }
  ],
  "size": 406,
  "weight": 688,
  "fee": 2283,
  "status": {
    "confirmed": true,
    "block_height": 834460,
    "block_hash": "00000000000000000000484a79b643b2524bbce82e5d8a442013fa5b8905ed98",
    "block_time": 1710307468
  },
  "hex": "01000000000101b15a92c6b2da13d37fb6a20fb48ec5ccac048760c6aed565da286336bc12ad200000000000ffffffff01a86100000000000022512080ee6bbc0b201a4c184d1fd9e3d01b9a2e0502d80a0117e29195a8304ea1ee98042058b24443442633be6893879d2260fb288292120e47bf6eb957d7269a21761b1a483045022100a297d05877fa615d7eef036c084efd8075419151d65ec6e3128d73b4fa2ca889022021a10eb5ae8adfb497a033c4915675da9e15086481cfd1feea57b27c0ab8186a0147304402201114b6650e81d6e8d48a41a134ea2a954bc851181c4fc980378a17557efa2c56022036b679dd42ee59c096c44d089d7f2db0747d62d52d0d421248dd0a5469cd8c3401822103b8a1dc13ec5a7d416c6ad84c0d13c02f83224ea9ec48662d8d0402df46b4ba96ac6476a914f301b94955597fd1c586eafa83784c52ee10e37c88ad03dbbb0cb167210259a772f6565c429e23a4b6b8cd18e7209abb2cd7f6e57ea23ac15ddd603824b3ad82012088a914170942209cbdf8fb70490a4bf7fd01736e05141e876800000000"
}