{
  "txid": "4e4bd49a3e505a86c07a46338a054c9a2b155c7680fd544628c793731a11bd99",
  "version": 2,
  "locktime": 0,
  "vin": [
    {
      "txid": "06cde88c55f1819ddf5233fb4ace066dc86e53fb9e2e6da2bcfaca20df559b78",
      "vout": 0,
      "prevout": {
        "scriptpubkey": "76a9141f33ffb9948c502f910feb635caa1aadb9f81f2788ac",
        "scriptpubkey_asm": "OP_DUP OP_HASH160 OP_PUSHBYTES_20 1f33ffb9948c502f910feb635caa1aadb9f81f27 OP_EQUALVERIFY OP_CHECKSIG",
        "scriptpubkey_type": "p2pkh",
        "scriptpubkey_address": "13qzEtwD64JMJu16CtBCNLzf1mpydQSwX1",
        "value": 881263
      },
      "scriptsig": "483045022100f7b4c916c2468ba0366479c906a4f192daf743fef2dcd34e278531baed99b91702206ef089440cefea57d26acb0031fe49f6a09cdc196e916a11422095598bce5fb201210290ef9471b041b7a6090ead4186cb6325bbf494ccba209d97a342f1e56573e6f2",
      "scriptsig_asm": "OP_PUSHBYTES_72 3045022100f7b4c916c2468ba0366479c906a4f192daf743fef2dcd34e278531baed99b91702206ef089440cefea57d26acb0031fe49f6a09cdc196e916a11422095598bce5fb201 OP_PUSHBYTES_33 0290ef9471b041b7a6090ead4186cb6325bbf494ccba209d97a342f1e56573e6f2",
      "is_coinbase": false,
      "sequence": 4294967295
    },
    {
      "txid": "04ddef4102790a4c3928928d47cded60395d3d4d4c201c2a9010a7dce4a80d90",
      "vout": 0,
      "prevout": {
        "scriptpubkey": "76a9141f33ffb9948c502f910feb635caa1aadb9f81f2788ac",
        "scriptpubkey_asm": "OP_DUP OP_HASH160 OP_PUSHBYTES_20 1f33ffb9948c502f910feb635caa1aadb9f81f27 OP_EQUALVERIFY OP_CHECKSIG",
        "scriptpubkey_type": "p2pkh",
        "scriptpubkey_address": "13qzEtwD64JMJu16CtBCNLzf1mpydQSwX1",
        "value": 1349019
      },
      "scriptsig": "463043021f3f48afffe4b96e4ccf53dccde4fed353a2fe6001d3248cf9af4faecbfd59ff02201e2e4ecb062e9f573adfc27c9ba5acbda8803dd9813522b1428c2e8b1163df3d01210290ef9471b041b7a6090ead4186cb6325bbf494ccba209d97a342f1e56573e6f2",
      "scriptsig_asm": "OP_PUSHBYTES_70 3043021f3f48afffe4b96e4ccf53dccde4fed353a2fe6001d3248cf9af4faecbfd59ff02201e2e4ecb062e9f573adfc27c9ba5acbda8803dd9813522b1428c2e8b1163df3d01 OP_PUSHBYTES_33 0290ef9471b041b7a6090ead4186cb6325bbf494ccba209d97a342f1e56573e6f2",
      "is_coinbase": false,
      "sequence": 4294967295
    }
  ],
  "vout": [
    {
      "scriptpubkey": "a914cfdb6d9328b56e9817dd3839b4e3878c1adf65ed87",
      "scriptpubkey_asm": "OP_HASH160 OP_PUSHBYTES_20 cfdb6d9328b56e9817dd3839b4e3878c1adf65ed OP_EQUAL",
      "scriptpubkey_type": "p2sh",
      "scriptpubkey_address": "3Le4fNwyucD4qFs9dWNm8j6GPE6KpgjAtC",
      "value": 2216320
    }
  ],
  "size": 336,
  "weight": 1344,
  "fee": 13962,
  "status": {
    "confirmed": true,
    "block_height": 834460,
    "block_hash": "00000000000000000000484a79b643b2524bbce82e5d8a442013fa5b8905ed98",
    "block_time": 1710307468
  },
  "hex": "0200000002789b55df20cafabca26d2e9efb536ec86d06ce4afb3352df9d81f1558ce8cd06000000006b483045022100f7b4c916c2468ba0366479c906a4f192daf743fef2dcd34e278531baed99b91702206ef089440cefea57d26acb0031fe49f6a09cdc196e916a11422095598bce5fb201210290ef9471b041b7a6090ead4186cb6325bbf494ccba209d97a342f1e56573e6f2ffffffff900da8e4dca710902a1c204c4d3d5d3960edcd478d9228394c0a790241efdd040000000069463043021f3f48afffe4b96e4ccf53dccde4fed353a2fe6001d3248cf9af4faecbfd59ff02201e2e4ecb062e9f573adfc27c9ba5acbda8803dd9813522b1428c2e8b1163df3d01210290ef9471b041b7a6090ead4186cb6325bbf494ccba209d97a342f1e56573e6f2ffffffff0180d121000000000017a914cfdb6d9328b56e9817dd3839b4e3878c1adf65ed8700000000"
}