{
  "txid": "4e4b14c044f82356e5255cf403e06d94180546af8606e5bd1af4738d3f0ab7c3",
  "version": 1,
  "locktime": 0,
  "vin": [
    {
      "txid": "df19f0cdc00314e3fe983f17716149578859bd1678b170022460c559f3ab7760",
      "vout": 1,
      "prevout": {
        "scriptpubkey": "001448721845d8d8ad552aecdd259053f9fcc1f10a72",
        "scriptpubkey_asm": "OP_0 OP_PUSHBYTES_20 48721845d8d8ad552aecdd259053f9fcc1f10a72",
        "scriptpubkey_type": "v0_p2wpkh",
        "scriptpubkey_address": "bc1qfpeps3wcmzk422hvm5jeq5lelnqlzznjwyfy69",
        "value": 5234706148
      },
      "scriptsig": "",
      "scriptsig_asm": "",
      "witness": [
        "3044022011c92b37503e902e4ea5f80267dfb2f6c2d51fb65bb7a7daa7782f34eae75594022066da1e098ad3f367a8146469359ed4e90d33453eed7a97171333634fb7bb6d8301",
        "02dc8683704adb6dbea6d1e0bb392ab45b57dcc9c5f919b7d59389fdd9fb096f25"
      ],
      "is_coinbase": false,
      "sequence": 4294967295
    }
  ],
  "vout": [
    {
      "scriptpubkey": "76a9144e66a2398d401b64feefc8a491336798ee79c59488ac",
      "scriptpubkey_asm": "OP_DUP OP_HASH160 OP_PUSHBYTES_20 4e66a2398d401b64feefc8a491336798ee79c594 OP_EQUALVERIFY OP_CHECKSIG",
      "scriptpubkey_type": "p2pkh",
      "scriptpubkey_address": "189Yf5Sjxa1fHcG4H3NXVoE7j2CkW1WedP",
      "value": 2416547
    },
    {
      "scriptpubkey": "001448721845d8d8ad552aecdd259053f9fcc1f10a72",
      "scriptpubkey_asm": "OP_0 OP_PUSHBYTES_20 48721845d8d8ad552aecdd259053f9fcc1f10a72",
      "scriptpubkey_type": "v0_p2wpkh",
      "scriptpubkey_address": "bc1qfpeps3wcmzk422hvm5jeq5lelnqlzznjwyfy69",
      "value": 5232287700
    }
  ],
  "size": 225,
  "weight": 573,
  "fee": 1901,
  "status": {
    "confirmed": true,
    "block_height": 834638,
    "block_hash": "000000000000000000025f742c626208ac87e0b7d15054abb4a19ca2d735a54e",
    "block_time": 1710405325
  },
  "hex": "010000000001016077abf359c560240270b17816bd598857496171173f98fee31403c0cdf019df0100000000ffffffff02a3df2400000000001976a9144e66a2398d401b64feefc8a491336798ee79c59488acd45fde370100000016001448721845d8d8ad552aecdd259053f9fcc1f10a7202473044022011c92b37503e902e4ea5f80267dfb2f6c2d51fb65bb7a7daa7782f34eae75594022066da1e098ad3f367a8146469359ed4e90d33453eed7a97171333634fb7bb6d83012102dc8683704adb6dbea6d1e0bb392ab45b57dcc9c5f919b7d59389fdd9fb096f2500000000"
}