{
  "txid": "4e4b2967dce0a6e668296c0458400f53ba82553ceb771a638cdd4b67f8604afa",
  "version": 1,
  "locktime": 0,
  "vin": [
    {
      "txid": "f87cea03a7bffee48d3482c8730a53adad7c25dedb6b5825b3e69c76c0c69ddf",
      "vout": 161,
      "prevout": {
        "scriptpubkey": "0014c3574c2e6382c9507cb8cdd1cc86ebd64dbb6e52",
        "scriptpubkey_asm": "OP_0 OP_PUSHBYTES_20 c3574c2e6382c9507cb8cdd1cc86ebd64dbb6e52",
        "scriptpubkey_type": "v0_p2wpkh",
        "scriptpubkey_address": "bc1qcdt5ctnrsty4ql9cehguepht6exmkmjjyjfk7y",
        "value": 21184
      },
      "scriptsig": "",
      "scriptsig_asm": "",
      "witness": [
        "3045022100b47bf5b608748850616e92f0b7cb30edbe7b9b63be2b9ab918a5d739cafb3b7602202a187a41019ae6f9e68b2eb5efab90d2fbad043ccd9cf92692ec66d328b163e001",
        "021a75494b9889b42a5748e654bbf9122907ee05d1c5facf1ac8f3f7d057552a35"
      ],
      "is_coinbase": false,
      "sequence": 4294967293
    },
    {
      "txid": "37e9078cd7a626caa7b5e8173307cc09e26dbd54f64b05c8de11563edf957b45",
      "vout": 72,
      "prevout": {
        "scriptpubkey": "001495c2186da77a1912e8ea26f9bf5c2f22cf79cc64",
        "scriptpubkey_asm": "OP_0 OP_PUSHBYTES_20 95c2186da77a1912e8ea26f9bf5c2f22cf79cc64",
        "scriptpubkey_type": "v0_p2wpkh",
        "scriptpubkey_address": "bc1qjhppsmd80gv39682ymum7hp0yt8hnnryhrdpyc",
        "value": 19550
      },
      "scriptsig": "",
      "scriptsig_asm": "",
      "witness": [
        "3045022100e3b088387c6aef07b1cd28923c5924792bd4039b1fc8bd4ad9dce439139f863702201023808e0748f4cd1c602c74a3549ccef1f6910476b5f88fac5357a8926ab50a01",
        "024a880279b96ace5e088299f2cda8b38a483733e6085c13d5c5525fc2063d3b93"
      ],
      "is_coinbase": false,
      "sequence": 4294967293
    },
    {
      "txid": "bb5af02b138c598e882bb47576ab733bcecfa57b382e9c69c00756998a8ed448",
      "vout": 17,
      "prevout": {
        "scriptpubkey": "0014433baa08f4781b818ed8913b7f7480f574a9e131",
        "scriptpubkey_asm": "OP_0 OP_PUSHBYTES_20 433baa08f4781b818ed8913b7f7480f574a9e131",
        "scriptpubkey_type": "v0_p2wpkh",
        "scriptpubkey_address": "bc1qgva65z850qdcrrkcjyah7ayq7462ncf3kt79vg",
        "value": 19347
      },
      "scriptsig": "",
      "scriptsig_asm": "",
      "witness": [
        "3045022100ad95dcc5011a1bfed9cdff8a6b3d795ce07c130b58578f3237d613f2e16887cf022075ce30819496a3519eac07281006cea56174ec1f27f98740401aa820443cc29301",
        "025fff522669ef44df37ce4a9cedf006d8ceb6ace394a18384c375e06252a658b8"
      ],
      "is_coinbase": false,
      "sequence": 4294967293
    },
    {
      "txid": "334a8f6e21ccf6698e6dad461678577d8fbe2930073655222551c45772ba7bab",
      "vout": 12,
      "prevout": {
        "scriptpubkey": "0014d30b8641ff18e8359268041c0d7b8242040c0401",
        "scriptpubkey_asm": "OP_0 OP_PUSHBYTES_20 d30b8641ff18e8359268041c0d7b8242040c0401",
        "scriptpubkey_type": "v0_p2wpkh",
        "scriptpubkey_address": "bc1q6v9cvs0lrr5rtyngqswq67uzggzqcpqpfnq7n3",
        "value": 17453
      },
      "scriptsig": "",
      "scriptsig_asm": "",
      "witness": [
        "3044022009e7d87eaa5081a94cc4f4fd51dd34c1d5ae0919f24c1910b1e26ec3dd4e9479022003e0ab2ca4d4b4b97a3a93af69915dbf4713f1ed51be1c136961e496e50fb74301",
        "036e7e5ace02bc064f457e84cac94fb281c7a3ea870fd27713e37b13138c8c2d26"
      ],
      "is_coinbase": false,
      "sequence": 4294967293
    }
  ],
  "vout": [
    {
      "scriptpubkey": "00146f99a2abe9231eb70c97410d6f831b15b0e9a36f",
      "scriptpubkey_asm": "OP_0 OP_PUSHBYTES_20 6f99a2abe9231eb70c97410d6f831b15b0e9a36f",
      "scriptpubkey_type": "v0_p2wpkh",
      "scriptpubkey_address": "bc1qd7v692lfyv0twryhgyxklqcmzkcwngm00ae76y",
      "value": 69318
    }
  ],
  "size": 638,
  "weight": 1253,
  "fee": 8216,
  "status": {
    "confirmed": true,
    "block_height": 834464,
    "block_hash": "0000000000000000000177a0869a911a2b65c9bdcd5a8bcb02b68f305bee848e",
    "block_time": 1710308296
  },
  "hex": "01000000000104df9dc6c0769ce6b325586bdbde257cadad530a73c882348de4febfa703ea7cf8a100000000fdffffff457b95df3e5611dec8054bf654bd6de209cc073317e8b5a7ca26a6d78c07e9374800000000fdffffff48d48e8a995607c0699c2e387ba5cfce3b73ab7675b42b888e598c132bf05abb1100000000fdffffffab7bba7257c45125225536073029be8f7d57781646ad6d8e69f6cc216e8f4a330c00000000fdffffff01c60e0100000000001600146f99a2abe9231eb70c97410d6f831b15b0e9a36f02483045022100b47bf5b608748850616e92f0b7cb30edbe7b9b63be2b9ab918a5d739cafb3b7602202a187a41019ae6f9e68b2eb5efab90d2fbad043ccd9cf92692ec66d328b163e00121021a75494b9889b42a5748e654bbf9122907ee05d1c5facf1ac8f3f7d057552a3502483045022100e3b088387c6aef07b1cd28923c5924792bd4039b1fc8bd4ad9dce439139f863702201023808e0748f4cd1c602c74a3549ccef1f6910476b5f88fac5357a8926ab50a0121024a880279b96ace5e088299f2cda8b38a483733e6085c13d5c5525fc2063d3b9302483045022100ad95dcc5011a1bfed9cdff8a6b3d795ce07c130b58578f3237d613f2e16887cf022075ce30819496a3519eac07281006cea56174ec1f27f98740401aa820443cc2930121025fff522669ef44df37ce4a9cedf006d8ceb6ace394a18384c375e06252a658b802473044022009e7d87eaa5081a94cc4f4fd51dd34c1d5ae0919f24c1910b1e26ec3dd4e9479022003e0ab2ca4d4b4b97a3a93af69915dbf4713f1ed51be1c136961e496e50fb7430121036e7e5ace02bc064f457e84cac94fb281c7a3ea870fd27713e37b13138c8c2d2600000000"
}