{
  "txid": "4e4b14e0d955bfa053ce4a7c3245ab1253406b480f70247d7a5ba92636d13926",
  "version": 2,
  "locktime": 0,
  "vin": [
    {
      "txid": "fd07fcb27e595a0a01114846ed2b524898133d79c96d9ad0a23e09df05937399",
      "vout": 4,
      "prevout": {
        "scriptpubkey": "76a914a7189f3ee1e7c0d8bfaa250249b765a5be66d7ff88ac",
        "scriptpubkey_asm": "OP_DUP OP_HASH160 OP_PUSHBYTES_20 a7189f3ee1e7c0d8bfaa250249b765a5be66d7ff OP_EQUALVERIFY OP_CHECKSIG",
        "scriptpubkey_type": "p2pkh",
        "scriptpubkey_address": "1GEXLokA5jgdwqVrk38girjv2JmrqntG4d",
        "value": 7295023
      },
      "scriptsig": "483045022100d36ca88fc0995dea8d89f5b694330171a2aab7ec6ad7fa099032bbd4cb9fbf9402204e6959cc05dc3dd1ad4a84ec1a2900a8fe943cbc998dd5f551934dec42a91e660121039964b7863243803ae7f32915b3b640812b463775134d4997baa9150b81f06433",
      "scriptsig_asm": "OP_PUSHBYTES_72 3045022100d36ca88fc0995dea8d89f5b694330171a2aab7ec6ad7fa099032bbd4cb9fbf9402204e6959cc05dc3dd1ad4a84ec1a2900a8fe943cbc998dd5f551934dec42a91e6601 OP_PUSHBYTES_33 039964b7863243803ae7f32915b3b640812b463775134d4997baa9150b81f06433",
      "is_coinbase": false,
      "sequence": 4294967295
    }
  ],
  "vout": [
    {
      "scriptpubkey": "a914014809e2d32eb2cc3d4519ff935aa027984bb02487",
      "scriptpubkey_asm": "OP_HASH160 OP_PUSHBYTES_20 014809e2d32eb2cc3d4519ff935aa027984bb024 OP_EQUAL",
      "scriptpubkey_type": "p2sh",
      "scriptpubkey_address": "31onu4oqpc2wD6iZJWJLmrxt2FneJD8zig",
      "value": 175092
    },
    {
      "scriptpubkey": "00143fbb745e12d9e961f731cf419cd2ed34d26f81a9",
      "scriptpubkey_asm": "OP_0 OP_PUSHBYTES_20 3fbb745e12d9e961f731cf419cd2ed34d26f81a9",
      "scriptpubkey_type": "v0_p2wpkh",
      "scriptpubkey_address": "bc1q87ahghsjm85krae3eaqee5hdxnfxlqdfcafc8s",
      "value": 7114185
    }
  ],
  "size": 221,
  "weight": 884,
  "fee": 5746,
  "status": {
    "confirmed": true,
    "block_height": 834638,
    "block_hash": "000000000000000000025f742c626208ac87e0b7d15054abb4a19ca2d735a54e",
    "block_time": 1710405325
  },
  "hex": "020000000199739305df093ea2d09a6dc9793d139848522bed464811010a5a597eb2fc07fd040000006b483045022100d36ca88fc0995dea8d89f5b694330171a2aab7ec6ad7fa099032bbd4cb9fbf9402204e6959cc05dc3dd1ad4a84ec1a2900a8fe943cbc998dd5f551934dec42a91e660121039964b7863243803ae7f32915b3b640812b463775134d4997baa9150b81f06433ffffffff02f4ab02000000000017a914014809e2d32eb2cc3d4519ff935aa027984bb02487c98d6c00000000001600143fbb745e12d9e961f731cf419cd2ed34d26f81a900000000"
}