{
  "txid": "4e4e4691862497b12c2bd974a938160183455894d59872aa3749bdb3a32c47a0",
  "version": 1,
  "locktime": 0,
  "vin": [
    {
      "txid": "b967930d1d5126762497a6d108af9dadc4f3ac659fa5effbaafe97ac0c7ad4fc",
      "vout": 20,
      "prevout": {
        "scriptpubkey": "5120dd95024ff0b57c9174b8b1e58ee59bce784da07da9176f1dc624bfcd0d53960f",
        "scriptpubkey_asm": "OP_PUSHNUM_1 OP_PUSHBYTES_32 dd95024ff0b57c9174b8b1e58ee59bce784da07da9176f1dc624bfcd0d53960f",
        "scriptpubkey_type": "v1_p2tr",
        "scriptpubkey_address": "bc1pmk2synlsk47fza9ck8jcaevmeeuymgra4ytk78wxyjlu6r2njc8smn5xzs",
        "value": 7368199
      },
      "scriptsig": "",
      "scriptsig_asm": "",
      "witness": [
        "499e217228b8c09152b7b4068278ea5cad5223efc8cfc156827a48d5bf3a5a17af9a6380116394c8c7147b250fced87abdcfb55146c0a197ef1877653ed708bd"
      ],
      "is_coinbase": false,
      "sequence": 4294967295
    },
    {
      "txid": "c01189a51dcc6e3ee9f59c764fcace2910f68c68d721ebcc8c03546ae9c64b87",
      "vout": 19,
      "prevout": {
        "scriptpubkey": "51207730a1a6737ebb6e534d96920092b3d283d32f74431483d714a0d9841b07ff92",
        "scriptpubkey_asm": "OP_PUSHNUM_1 OP_PUSHBYTES_32 7730a1a6737ebb6e534d96920092b3d283d32f74431483d714a0d9841b07ff92",
        "scriptpubkey_type": "v1_p2tr",
        "scriptpubkey_address": "bc1pwuc2rfnn06aku56dj6fqpy4n62paxtm5gv2g84c55rvcgxc8l7fq004fl8",
        "value": 12499999
      },
      "scriptsig": "",
      "scriptsig_asm": "",
      "witness": [
        "a8979578ab44ab36471d11040d5c2674b5ea51e62dc9d7f20eddc30408b35844ba151085b211ab2fd44e4d05cdc90b40c856bb8e7788742c24b74e5025fc8d9a"
      ],
      "is_coinbase": false,
      "sequence": 4294967295
    }
  ],
  "vout": [
    {
      "scriptpubkey": "0014821f727cbf684e8f1f4b206e16c12e1f497465b4",
      "scriptpubkey_asm": "OP_0 OP_PUSHBYTES_20 821f727cbf684e8f1f4b206e16c12e1f497465b4",
      "scriptpubkey_type": "v0_p2wpkh",
      "scriptpubkey_address": "bc1qsg0hyl9ldp8g786typhpdsfwrayhged5s2d9lp",
      "value": 151967
    },
    {
      "scriptpubkey": "a914358ae440e250d2e8026691b5e2888132fb078dd787",
      "scriptpubkey_asm": "OP_HASH160 OP_PUSHBYTES_20 358ae440e250d2e8026691b5e2888132fb078dd7 OP_EQUAL",
      "scriptpubkey_type": "p2sh",
      "scriptpubkey_address": "36a884yb22AkeadSkzZ34dWmG9RMvZesxj",
      "value": 167381
    },
    {
      "scriptpubkey": "00144705da377e3ae609b5848035e14fa5ea3830b5e1",
      "scriptpubkey_asm": "OP_0 OP_PUSHBYTES_20 4705da377e3ae609b5848035e14fa5ea3830b5e1",
      "scriptpubkey_type": "v0_p2wpkh",
      "scriptpubkey_address": "bc1qguza5dm78tnqndvysq67zna9agurpd0pvewwvc",
      "value": 173253
    },
    {
      "scriptpubkey": "00140f8dcf2c7eccbe019735ec7117a6222c3cf36473",
      "scriptpubkey_asm": "OP_0 OP_PUSHBYTES_20 0f8dcf2c7eccbe019735ec7117a6222c3cf36473",
      "scriptpubkey_type": "v0_p2wpkh",
      "scriptpubkey_address": "bc1qp7xu7tr7ejlqr9e4a3c30f3z9s70xernpx6h50",
      "value": 308999
    },
    {
      "scriptpubkey": "a914f119e8a20664a7460064d0f6fe87d4fe63bc841387",
      "scriptpubkey_asm": "OP_HASH160 OP_PUSHBYTES_20 f119e8a20664a7460064d0f6fe87d4fe63bc8413 OP_EQUAL",
      "scriptpubkey_type": "p2sh",
      "scriptpubkey_address": "3PfqowjT3ZVj3QDpumiTaDX2562RBgAd1K",
      "value": 506817
    },
    {
      "scriptpubkey": "76a91446b31341526b76a0dd5504f3eaf9092e25f43db188ac",
      "scriptpubkey_asm": "OP_DUP OP_HASH160 OP_PUSHBYTES_20 46b31341526b76a0dd5504f3eaf9092e25f43db1 OP_EQUALVERIFY OP_CHECKSIG",
      "scriptpubkey_type": "p2pkh",
      "scriptpubkey_address": "17Sppnx4gBFw3RjJACozT6h3aDssL4mawL",
      "value": 759804
    },
    {
      "scriptpubkey": "0014404defc23bae08701cb80be81d4d18c3a60d94c1",
      "scriptpubkey_asm": "OP_0 OP_PUSHBYTES_20 404defc23bae08701cb80be81d4d18c3a60d94c1",
      "scriptpubkey_type": "v0_p2wpkh",
      "scriptpubkey_address": "bc1qgpx7ls3m4cy8q89cp05p6ngccwnqm9xpdy8y6k",
      "value": 983078
    },
    {
      "scriptpubkey": "a91426fc0132de874363e4e956d9c90705dface7021087",
      "scriptpubkey_asm": "OP_HASH160 OP_PUSHBYTES_20 26fc0132de874363e4e956d9c90705dface70210 OP_EQUAL",
      "scriptpubkey_type": "p2sh",
      "scriptpubkey_address": "35F9VRe1MCkw7uVe3Uzt9N6K4ETAah5hAw",
      "value": 1519875
    },
    {
      "scriptpubkey": "001452fe9cf5c240b2b1cc2311c0c2959dc89325b682",
      "scriptpubkey_asm": "OP_0 OP_PUSHBYTES_20 52fe9cf5c240b2b1cc2311c0c2959dc89325b682",
      "scriptpubkey_type": "v0_p2wpkh",
      "scriptpubkey_address": "bc1q2tlfeawzgzetrnprz8qv99vaezfjtd5zpcglr2",
      "value": 2051000
    },
    {
      "scriptpubkey": "51203b410bdc2033521e5864ab6bf5f76e6e21fb0ed87cd7899e66ab022ac32bdf46",
      "scriptpubkey_asm": "OP_PUSHNUM_1 OP_PUSHBYTES_32 3b410bdc2033521e5864ab6bf5f76e6e21fb0ed87cd7899e66ab022ac32bdf46",
      "scriptpubkey_type": "v1_p2tr",
      "scriptpubkey_address": "bc1p8dqshhpqxdfpukry4d4ltamwdcslkrkc0ntcn8nx4vpz4setmarqfc6dyz",
      "value": 6146368
    },
    {
      "scriptpubkey": "76a91419b921ab4f44742c84cb340b8382ac26235885b088ac",
      "scriptpubkey_asm": "OP_DUP OP_HASH160 OP_PUSHBYTES_20 19b921ab4f44742c84cb340b8382ac26235885b0 OP_EQUALVERIFY OP_CHECKSIG",
      "scriptpubkey_type": "p2pkh",
      "scriptpubkey_address": "13M1fxe4ScLp2h3zzeZfo2yEjh2SYHGxai",
      "value": 7093195
    }
  ],
  "size": 588,
  "weight": 1950,
  "fee": 6461,
  "status": {
    "confirmed": true,
    "block_height": 834460,
    "block_hash": "00000000000000000000484a79b643b2524bbce82e5d8a442013fa5b8905ed98",
    "block_time": 1710307468
  },
  "hex": "01000000000102fcd47a0cac97feaafbefa59f65acf3c4ad9daf08d1a697247626511d0d9367b91400000000ffffffff874bc6e96a54038ccceb21d7688cf61029ceca4f769cf5e93e6ecc1da58911c01300000000ffffffff0b9f51020000000000160014821f727cbf684e8f1f4b206e16c12e1f497465b4d58d02000000000017a914358ae440e250d2e8026691b5e2888132fb078dd787c5a40200000000001600144705da377e3ae609b5848035e14fa5ea3830b5e107b70400000000001600140f8dcf2c7eccbe019735ec7117a6222c3cf36473c1bb07000000000017a914f119e8a20664a7460064d0f6fe87d4fe63bc841387fc970b00000000001976a91446b31341526b76a0dd5504f3eaf9092e25f43db188ac26000f0000000000160014404defc23bae08701cb80be81d4d18c3a60d94c1033117000000000017a91426fc0132de874363e4e956d9c90705dface7021087b84b1f000000000016001452fe9cf5c240b2b1cc2311c0c2959dc89325b68240c95d00000000002251203b410bdc2033521e5864ab6bf5f76e6e21fb0ed87cd7899e66ab022ac32bdf46cb3b6c00000000001976a91419b921ab4f44742c84cb340b8382ac26235885b088ac0140499e217228b8c09152b7b4068278ea5cad5223efc8cfc156827a48d5bf3a5a17af9a6380116394c8c7147b250fced87abdcfb55146c0a197ef1877653ed708bd0140a8979578ab44ab36471d11040d5c2674b5ea51e62dc9d7f20eddc30408b35844ba151085b211ab2fd44e4d05cdc90b40c856bb8e7788742c24b74e5025fc8d9a00000000"
}