{
  "txid": "4e50503a0c54a46edb1fc5b1f08cb34c0ee3f747a6835f39b080828dc74ffb53",
  "version": 2,
  "locktime": 0,
  "vin": [
    {
      "txid": "0ba4aa0b397f909ae1762cb15c8d9e573d3ca70cf2f9af896977dfaf55d74431",
      "vout": 0,
      "prevout": {
        "scriptpubkey": "5120d8e6c4a91a3886424da0a954c7dd81c5f2903abaf3495a83018a699ef93dcd27",
        "scriptpubkey_asm": "OP_PUSHNUM_1 OP_PUSHBYTES_32 d8e6c4a91a3886424da0a954c7dd81c5f2903abaf3495a83018a699ef93dcd27",
        "scriptpubkey_type": "v1_p2tr",
        "scriptpubkey_address": "bc1pmrnvf2g68zryyndq492v0hvpchefqw467dy44qcp3f5ea7fae5nsn2fj9y",
        "value": 18420
      },
      "scriptsig": "",
      "scriptsig_asm": "",
      "witness": [
        "507363cbf21efcfbb972f196c3d7a58b6f4dae7b6e6107e3f25e41804716172fa189557c13bd2b2bbadf3f1624a6d99ad35e05a0cf4124a6ec4fb0bdb5d3cbf4",
        "20d9a776f409789274b9ffd0c8ba652eaa1966abac9a01f974a57ee2a162098c8fac0063036f7264010109696d6167652f706e67004d080289504e470d0a1a0a0000000d49484452000001f4000001f40803000000fc082fb800000054504c54455555535dc7ff5bb1ff6999ff030000ae7a4ba17244454545be895a5b8697b8885b5a8596332b25191715575a59785e469070535a83935b8a9ca87748627a81576c7364472c61a5ff3f51896ba5cf59caff8a97a45137d232000000097048597300000b1300000b1301009a9c1800000fb049444154789ced9d0f5f9bb01a46bd773a68d0b554dd6eb7efff3defaf6a0b811002f227c9738ed5d6d655c6e9f3e625507c38801c0f7b2f006c0fd20541ba20481704e982205d10a40b827441902e08d20541ba20481704e982205d10a40b827441902e08d20541ba20481704e982205d10a40b827441902e08d20541ba20481704e982205d10aff4ea50d587aada6e692082a4578733cad5927e7e2bce245d4d7afd8ef4fca0bc0b32d6c87d5c404efa760b03dbc076ba20481704e982205d10a40b827441902e08d20541ba20481704e982205d10a40b827441902e08d20541ba20481704e982205d10a40b827441902e08d20541ba20481704e982205d10a40b827441902e08d20541ba20481704e982205d10a40b827441902e08d20541ba20481704e982205d10a40b827441902e08d20541ba20481704e982205d10a40b827441902e08d20541ba20481704e982205d10a40b827441902e08d20541ba20481704e982205d10a40b8274414d0802902e08d20541ba20481704e982205d10a40b827441902e08d20541ba20481704e982205d10a40b827441902e08d20541ba20481704e982205d10a40b827441902e08d20541ba20481704e982205d10a40b827441902ec8aed2ab43952387ea1037247d69903eb27e0e5555674745d2fdd2eb5ff951237d4cfa436efc423ad22364e7ee9da4ef01d29786f2ee87a4ef03495f1a92ee87a4ef03495f1a92ee87a4ef03495f1a92ee87a4ef03495f1a92ee87a4e795f4eaba6379fc70834ca761c7d9754fdc7ad203fee748cf6c4caf825eca5926fd1cb27a0e7996f7b7f7003294fe1ec0befbdc5794febef7ea8f981ae97ad448d7a346ba1e35d2f5a891ae478d743d6aa4eb51235d8f1ae97ad448d7a346ba1e35d2f5a891ae478d743d6aa4eb51f70e2cdaf255b0effef45f19f21024fd7c385b6c9afc7da53f3f3ebe5c3fb6b86c45117c78cdafd6e5ed2c93f497c7fc28661d01f68ef49429904ed2c320e9495390743f8ce937487ad21424dd0f49bf41d293a620e97e48fa0d929e340549f743d26f90f4a42948ba1f927e83a4274d41d2fd90f41b243d690a92ee87a4df20e9495390743f24fd06494f9a82a4fb21e937487ad21424dd0f49bf41d293a620e97e48fa0d929e340549f743d26f90f4a42948ba1f927e83a4274d41d2fd90f41b243d690a99a43bfe4e0fef4fcf5dbaebec199c942073e9d5a1eeb194f42dce19f248799f21fd4d0802fc36e5753d45faefd79f5d4ce294c73c92bea9f432758e489f9ef432690cd2e794f7fbda8bf3baf43e84f47963fa751d7eacc638af8deba1e63192fe9da4278aa1bccf4d7aba18a493f42b6cb28524bd3542267629493a49ff80a433a6af4b923372b74da1143f0de57dae74ba77cda4dfe63c52bc3ef6d604637a80f47bd44d62d725d2e727fd73b3adb995ce753990f4e91caa4aa8bc274ee990ee380a658cca79c0521ed29f5e3b3c95a9635e9fdabc3e9daaf30c66067d67e901ce1f5f9ec1c9cb439ae53d443a0c51a459de07ff3f1000d20529d26de43e9ab917cf27e425fd318417adcf9780cb671872960e03242d9d1a2e26fd2e9c515d477a082f3297c7299fa94ba7c0cf2165e9189fc54baad25bbe19d32793a8f4c0ffdd4bff8bf73512c79797993faf32a6c31cd2957e7fddc2548a3477ad766dbb2a1fe497f41b0856911e62faf9f70cfeb712efc700ba0b53acb32cc5afb9c74ba5718cdcd3fd23f018b9cb9f1f6bf0e732e788b8d32a0bf3e7dfdbdc9313257cdcfbf0c594973556f38f1f3f2e216faee9be4bf5b4ceb25ca5679bf43967a25851fa7456943ecf16d26725ddf72e451b83f44d926e564eba21e9bb94f77bdc9c5fb628ef66f8da8a3d495f30e99f2bd9ad7cd546aec1f31e450bc6f40593eee6e3a175bb7733a6dd8e3dd2b7e8de374aba97d60f223d934d363318ef4e1920e9b925dd34bd44bba7e840d217ee4d0802de07369477db6433ddab6c92fe710a846adf193913ed986e324d7a15c576ba679daf3ef76e7cd371adcdc9bc92de6197b977c72938b749ba9914f76ca4d7a7d3e9f4aff5795a48faf3efdff6e53825e9b7fb37d8cb66dcd7d6927dbe128f99ec70a9debaabfb7521e947eb6c2cd713b2fc1c3e63e4a0facb9f75b8749d3aaf6d9e8a759665fba4bf95c6fe2f2e95f463dff1b431fd83cb7fd7e1723b3b984f776bfafd53fa3acbb247d23beb7d31e98e640f8de9ae56eaf36a45e95e8ce3fb6ca49f77963eb6d1b672d24bd7945c6fdee68b6ca41f7ad25ff748fa60deb64abaf14dc599cca4ef9ff47689effcdd840dc7f40e9dd13cfba4ef31a6b7b7cded75bffd986e06ef37b948df3fe97ed61fd387690df126f3a46f3ea6b77e7fa7795f577a19302167fd4036d2497a00b93572718ce9034dd5f568d89db6d3efb41691317dc131dd793cc326e53d18c6f41592de5eb7d6f79148cfabbcef3fa6fb7772ac29dd7876a7bb76af67233d8e31bd5984a677df77eebd0f63fa44e9afedabd6fd9d8d6587886d36d9ccc83563fad249f71cc3b241d24da8f78ccafbfe63bac3f43673efe5a4985faf4f2b2dcbdb3c77798ce9bded37535efeb30a7f6774efa6347f5759984bbdb1f4fd93ee5ffb97bfeb4937a307c835d3c19f03d12a0bf37773e90bcdbd3f7f7b3bddbe795fd56b4a0f7d77cbbde9c845fade496fadd5ce1ed6cf5b2b4a375db94d08022ed5f65d99488f634c1f5ef1eb26dd04fafefae15ca42f94f4d9e5bd1f72bb9bdba0bc7be87496b9488f607ffaf0fade664c77d23f968731bdc3afa019396b5eae95745f91dda27b370373edf785b8f772d9267ddbf2de5ab78e75be5fd25bb436df3291be77f73ed044dfef5cbf7b379d5fd9cc0af7fbb94ca4473ba66fd9bd1ba7f7ee4b90ee7de1f2deda9f6acf916c54de4d5f77e7059177d295b6d347b03b3a923ead7bf78de9c3edfb96dd7be9dbeb737f28dba46f3df76e374eb688cd926ec2b29e89f4fdbbf74156df4e2f073bb68117422ed2e5c774e3cc7aa7a1fbfa647ffaa4f23e70909c9574e7a9862effe91c4631efa88a4bf75be70981fb87cb745e0a7fc74933e9db6fa70f4fc59ad2ac45e952defdedd69294a5f937ce2580b3f571997b845cdaddfbe82a5f0363ff927b7971bc6d7ac2a298aa1ec73a875b5d7f9cc2516beeddb74657146ffa076c8cfd54c8e218c7a9f97a78cfd9a9d2bd3bff5693bdeaad7e6aeea574ed47eb5471b7ee61e5dddf322ad0f10395e0983e90998175bf28c67957d0283ff0af670b143a722650c93d9edf790518cf7ef3c1dfec78a45d8c4c8ad2e3de4e77a9985fdc9d8c0ce7cdb8e099b46bfff9c014a4c7d0bd0f0ed541724209ccf8c853f4e615ba3f9282f4fde7de475772efec7ef73a6fa6dce83ff714d98e856a3f7a9fb94d42fa36ddbbef18b9f0b5df515e4ebdd1c9f9770786ce4d08026ff97aee14a44731a64f99fc70dc34536ecca57b7847b79bfbba3309e9b174ef9336ad97c8f95cdc4d7bf3700ad2e3dd4e1f5adfb79b66ca8dde132dd2faf7fa7aa9a4cfefdec7c2f739eadfc6fee6d654be9df3fec679a7f67cdd9982f4fde7de3bebd4aaea5e45263ceddf1ed1ed5f6b8f19d6634948df7b4c9fa1a353724dc08d72819c07dc956ed237df4e1f30f179f7ebef2bc74f3e6ebfba57bd19bcb150cced2ad47a62abaf571ad3974efafdeee3738797a3bdb24bef8d7b315ea5c83bee4a427a2463fac0c699e94b7fbe4b0f6049cdede71cdefc4f42fa4649f71e23e753e349fa585def57e1856957159392f408c674f7dafc5a918349378e6aeed8321f994b992ddbf58c1f9b932948df7b4c6fe7d13513329ef42edd19b8b5c8aa7b8fe8208aa031dd7c7d71cdd735dfaca2df316b9784f4bd933eb4d1765b8d8349378e6ade95bb5ed0079f3909e9118ce966b87d9fd3bd1bebba3f57bac865e03733a62f32233790f4fe3f33c3815f07f72b21d1a4c730a637991f4eba7165af1fec7547f5fe92a7207dff31bd55d41d76e676efa6dc8724a44730a60faf40df76fa487d6fdf6d7fb3ee6712d2f74ffa00665ed24db92f49488f604cf71c1ae519d38d7bb6dee9bdf533dd62b0e435ddfb42fbd383936e0252bea6f194925ebd75de021e45f7deac4667d29def3737e36f662f57bebede9affbee34dc7f4f2fb8d9c734c7ffaf94d08023ac267d2bdedfbf1e5caf3d7c7f5d6b18c19733e2490f4c3e9cabfd6975fcb24fd76b88b879f636bb02c9f4e89f16ebfff3c42e91fef873f9fcfe7eaf6e5707e5b28e9cfc528a7af544f6ab98f45d43cc45fdefbe74d9825fd61b6f456a83bfdf8c02bc1207d81f2def97edba44fddac36247d89edf40e7b25fda6d4baa6bcc72cfd1b49774cc878934e79cf2ce9413d1d637aea49b76747c78d93f44c92de991527e92a490f85a46792f48930a6e790f489472920bd81a4c74102d3b0f18ce961fbac497a1e49efbcad78f49af29e4fd283b493f4c8931e30fed1bde797f4eec778d247e3ce981e77d203ea7d3323671d2e357ccd981e79d2c3a43323a799f460f374ef7924bd39f03d606a8e313da7a44f82edf4d493eed891eed946a77bcf26e9cd7c5cc0db86487a36490f8b3949cf27e9c1ed3bdd7b36491faceefd0718d3734a7a3bccee373a3577d0bda79ef491a360ad07e8de334dfa80ef36243df5a47776a1398b7bfbfd2fec65cb3ae95fbadb67f620e97924dd4c87f29e76d2c7ce44c1989e61d21f8e3378e83dcd32cf7b5c6661740e819e99f4b5384d3ed9c15c4ec2d267261de9df84a477926ed6ff30249da46b9577d131dd90743de9a5b474922e289dee5d503a4917944ed205a5937441e9245d503a4917944ed205a56bcebd97ccc84526dd6cf2c18c5c44d2b742597a6463fa71b33fd37314961ed998be273ad2234bfa9e4d0802e84827e982d249baa074922e289da40b4a27e982d249baa074922e289da40b4a27e982d249baa074922e289da40b4a27e982d249baa074922e289da40b4a27e982d249baa074922e289da40b4a27e982d249baa074922e289da40b4a27e982d249baa074922e289da40b4a27e982d249baa074922e289da40b4a27e982d249baa074922e289da40b4a27e982d249baa074922e289da40b4a27e982d249baa074922e289da40b4a27e982d249baa074922e289da40b4a27e982d249baa0f4b0a43f5cd749f3f971d9e9e3a1787eb9f33cf4397d3d140fef32d28392fefbf56797d7a77d787d3a062c7071a8ebaa9ec455f876ce13487a5ffaf1296ee9e7392bb0dad03a495f21e9d50c64cafbdca4c75edeab0d4bf51c48fa04906e41d21b48ba64f75e51de19d36383317d0224dd8231bd81f2ce981e216ca74f80f26ec1dc3be59d19b9a8a17b9f00e5dd82eebd81ee9dee3d42e8de274079b7a07b6fa0bcb33f3d42e8de274079b7a07b6fa0bcd3bd4708ddfb0428ef1674ef0d9477baf708a17b9f00e5dd82eebd81f24ef71e2174ef13a0bc5bd0bd3750dee9de2384ee7d0294770bbaf706ca3bdd7b84d0bd4f80f26e41f7de4079a77b8f10baf70950de2de8de1b28ef74ef1142f73e01cabb05dd7b03e59dee3d42e8de274079b7a07b6fa0bcd3bd4708ddfb0428ef1674ef0d9477baf708a17b9f00e5dd82eebd81f24ef71e2174ef13a01ebc5bd0bd3f2654deff0f84305d11d75ad2ce0000000049454e44ae42608268",
        "c0d9a776f409789274b9ffd0c8ba652eaa1966abac9a01f974a57ee2a162098c8f"
      ],
      "is_coinbase": false,
      "sequence": 4294967293
    }
  ],
  "vout": [
    {
      "scriptpubkey": "512092d0c4be49414c8ce960e04bd67b94f223e9ce71227bcb9ae8584d3d87f33a1e",
      "scriptpubkey_asm": "OP_PUSHNUM_1 OP_PUSHBYTES_32 92d0c4be49414c8ce960e04bd67b94f223e9ce71227bcb9ae8584d3d87f33a1e",
      "scriptpubkey_type": "v1_p2tr",
      "scriptpubkey_address": "bc1pjtgvf0jfg9xge6tqup9av7u57g37nnn3yfauhxhgtpxnmpln8g0qek58d9",
      "value": 600
    }
  ],
  "size": 4468,
  "weight": 4750,
  "fee": 17820,
  "status": {
    "confirmed": true,
    "block_height": 834460,
    "block_hash": "00000000000000000000484a79b643b2524bbce82e5d8a442013fa5b8905ed98",
    "block_time": 1710307468
  },
  "hex": "020000000001013144d755afdf776989aff9f20ca73c3d579e8d5cb12c76e19a907f390baaa40b0000000000fdffffff01580200000000000022512092d0c4be49414c8ce960e04bd67b94f223e9ce71227bcb9ae8584d3d87f33a1e0340507363cbf21efcfbb972f196c3d7a58b6f4dae7b6e6107e3f25e41804716172fa189557c13bd2b2bbadf3f1624a6d99ad35e05a0cf4124a6ec4fb0bdb5d3cbf4fdad1020d9a776f409789274b9ffd0c8ba652eaa1966abac9a01f974a57ee2a162098c8fac0063036f7264010109696d6167652f706e67004d080289504e470d0a1a0a0000000d49484452000001f4000001f40803000000fc082fb800000054504c54455555535dc7ff5bb1ff6999ff030000ae7a4ba17244454545be895a5b8697b8885b5a8596332b25191715575a59785e469070535a83935b8a9ca87748627a81576c7364472c61a5ff3f51896ba5cf59caff8a97a45137d232000000097048597300000b1300000b1301009a9c1800000fb049444154789ced9d0f5f9bb01a46bd773a68d0b554dd6eb7efff3defaf6a0b811002f227c9738ed5d6d655c6e9f3e625507c38801c0f7b2f006c0fd20541ba20481704e982205d10a40b827441902e08d20541ba20481704e982205d10a40b827441902e08d20541ba20481704e982205d10a40b827441902e08d20541ba20481704e982205d10aff4ea50d587aada6e692082a4578733cad5927e7e2bce245d4d7afd8ef4fca0bc0b32d6c87d5c404efa760b03dbc076ba20481704e982205d10a40b827441902e08d20541ba20481704e982205d10a40b827441902e08d20541ba20481704e982205d10a40b827441902e08d20541ba20481704e982205d10a40b827441902e08d20541ba20481704e982205d10a40b827441902e08d20541ba20481704e982205d10a40b827441902e08d20541ba20481704e982205d10a40b827441902e08d20541ba20481704e982205d10a40b827441902e08d20541ba20481704e982205d10a40b8274414d0802902e08d20541ba20481704e982205d10a40b827441902e08d20541ba20481704e982205d10a40b827441902e08d20541ba20481704e982205d10a40b827441902e08d20541ba20481704e982205d10a40b827441902ec8aed2ab43952387ea1037247d69903eb27e0e5555674745d2fdd2eb5ff951237d4cfa436efc423ad22364e7ee9da4ef01d29786f2ee87a4ef03495f1a92ee87a4ef03495f1a92ee87a4ef03495f1a92ee87a4ef03495f1a92ee87a4e795f4eaba6379fc70834ca761c7d9754fdc7ad203fee748cf6c4caf825eca5926fd1cb27a0e7996f7b7f7003294fe1ec0befbdc5794febef7ea8f981ae97ad448d7a346ba1e35d2f5a891ae478d743d6aa4eb51235d8f1ae97ad448d7a346ba1e35d2f5a891ae478d743d6aa4eb51f70e2cdaf255b0effef45f19f21024fd7c385b6c9afc7da53f3f3ebe5c3fb6b86c45117c78cdafd6e5ed2c93f497c7fc28661d01f68ef49429904ed2c320e9495390743f8ce937487ad21424dd0f49bf41d293a620e97e48fa0d929e340549f743d26f90f4a42948ba1f927e83a4274d41d2fd90f41b243d690a92ee87a4df20e9495390743f24fd06494f9a82a4fb21e937487ad21424dd0f49bf41d293a620e97e48fa0d929e340549f743d26f90f4a42948ba1f927e83a4274d41d2fd90f41b243d690a99a43bfe4e0fef4fcf5dbaebec199c942073e9d5a1eeb194f42dce19f248799f21fd4d0802fc36e5753d45faefd79f5d4ce294c73c92bea9f432758e489f9ef432690cd2e794f7fbda8bf3baf43e84f47963fa751d7eacc638af8deba1e63192fe9da4278aa1bccf4d7aba18a493f42b6cb28524bd3542267629493a49ff80a433a6af4b923372b74da1143f0de57dae74ba77cda4dfe63c52bc3ef6d604637a80f47bd44d62d725d2e727fd73b3adb995ce753990f4e91caa4aa8bc274ee990ee380a658cca79c0521ed29f5e3b3c95a9635e9fdabc3e9daaf30c66067d67e901ce1f5f9ec1c9cb439ae53d443a0c51a459de07ff3f1000d20529d26de43e9ab917cf27e425fd318417adcf9780cb671872960e03242d9d1a2e26fd2e9c515d477a082f3297c7299fa94ba7c0cf2165e9189fc54baad25bbe19d32793a8f4c0ffdd4bff8bf73512c79797993faf32a6c31cd2957e7fddc2548a3477ad766dbb2a1fe497f41b0856911e62faf9f70cfeb712efc700ba0b53acb32cc5afb9c74ba5718cdcd3fd23f018b9cb9f1f6bf0e732e788b8d32a0bf3e7dfdbdc9313257cdcfbf0c594973556f38f1f3f2e216faee9be4bf5b4ceb25ca5679bf43967a25851fa7456943ecf16d26725ddf72e451b83f44d926e564eba21e9bb94f77bdc9c5fb628ef66f8da8a3d495f30e99f2bd9ad7cd546aec1f31e450bc6f40593eee6e3a175bb7733a6dd8e3dd2b7e8de374aba97d60f223d934d363318ef4e1920e9b925dd34bd44bba7e840d217ee4d0802de07369477db6433ddab6c92fe710a846adf193913ed986e324d7a15c576ba679daf3ef76e7cd371adcdc9bc92de6197b977c72938b749ba9914f76ca4d7a7d3e9f4aff5795a48faf3efdff6e53825e9b7fb37d8cb66dcd7d6927dbe128f99ec70a9debaabfb7521e947eb6c2cd713b2fc1c3e63e4a0facb9f75b8749d3aaf6d9e8a759665fba4bf95c6fe2f2e95f463dff1b431fd83cb7fd7e1723b3b984f776bfafd53fa3acbb247d23beb7d31e98e640f8de9ae56eaf36a45e95e8ce3fb6ca49f77963eb6d1b672d24bd7945c6fdee68b6ca41f7ad25ff748fa60deb64abaf14dc599cca4ef9ff47689effcdd840dc7f40e9dd13cfba4ef31a6b7b7cded75bffd986e06ef37b948df3fe97ed61fd387690df126f3a46f3ea6b77e7fa7795f577a19302167fd4036d2497a00b93572718ce9034dd5f568d89db6d3efb41691317dc131dd793cc326e53d18c6f41592de5eb7d6f79148cfabbcef3fa6fb7772ac29dd7876a7bb76af67233d8e31bd5984a677df77eebd0f63fa44e9afedabd6fd9d8d6587886d36d9ccc83563fad249f71cc3b241d24da8f78ccafbfe63bac3f43673efe5a4985faf4f2b2dcbdb3c77798ce9bded37535efeb30a7f6774efa6347f5759984bbdb1f4fd93ee5ffb97bfeb4937a307c835d3c19f03d12a0bf37773e90bcdbd3f7f7b3bddbe795fd56b4a0f7d77cbbde9c845fade496fadd5ce1ed6cf5b2b4a375db94d08022ed5f65d99488f634c1f5ef1eb26dd04fafefae15ca42f94f4d9e5bd1f72bb9bdba0bc7be87496b9488f607ffaf0fade664c77d23f968731bdc3afa019396b5eae95745f91dda27b370373edf785b8f772d9267ddbf2de5ab78e75be5fd25bb436df3291be77f73ed044dfef5cbf7b379d5fd9cc0af7fbb94ca4473ba66fd9bd1ba7f7ee4b90ee7de1f2deda9f6acf916c54de4d5f77e7059177d295b6d347b03b3a923ead7bf78de9c3edfb96dd7be9dbeb737f28dba46f3df76e374eb688cd926ec2b29e89f4fdbbf74156df4e2f073bb68117422ed2e5c774e3cc7aa7a1fbfa647ffaa4f23e70909c9574e7a9862effe91c4631efa88a4bf75be70981fb87cb745e0a7fc74933e9db6fa70f4fc59ad2ac45e952defdedd69294a5f937ce2580b3f571997b845cdaddfbe82a5f0363ff927b7971bc6d7ac2a298aa1ec73a875b5d7f9cc2516beeddb74657146ffa076c8cfd54c8e218c7a9f97a78cfd9a9d2bd3bff5693bdeaad7e6aeea574ed47eb5471b7ee61e5dddf322ad0f10395e0983e90998175bf28c67957d0283ff0af670b143a722650c93d9edf790518cf7ef3c1dfec78a45d8c4c8ad2e3de4e77a9985fdc9d8c0ce7cdb8e099b46bfff9c014a4c7d0bd0f0ed541724209ccf8c853f4e615ba3f9282f4fde7de475772efec7ef73a6fa6dce83ff714d98e856a3f7a9fb94d42fa36ddbbef18b9f0b5df515e4ebdd1c9f9770786ce4d08026ff97aee14a44731a64f99fc70dc34536ecca57b7847b79bfbba3309e9b174ef9336ad97c8f95cdc4d7bf3700ad2e3dd4e1f5adfb79b66ca8dde132dd2faf7fa7aa9a4cfefdec7c2f739eadfc6fee6d654be9df3fec679a7f67cdd9982f4fde7de3bebd4aaea5e45263ceddf1ed1ed5f6b8f19d6634948df7b4c9fa1a353724dc08d72819c07dc956ed237df4e1f30f179f7ebef2bc74f3e6ebfba57bd19bcb150cced2ad47a62abaf571ad3974efafdeee3738797a3bdb24bef8d7b315ea5c83bee4a427a2463fac0c699e94b7fbe4b0f6049cdede71cdefc4f42fa4649f71e23e753e349fa585def57e1856957159392f408c674f7dafc5a918349378e6aeed8321f994b992ddbf58c1f9b932948df7b4c6fe7d13513329ef42edd19b8b5c8aa7b8fe8208aa031dd7c7d71cdd735dfaca2df316b9784f4bd933eb4d1765b8d8349378e6ade95bb5ed0079f3909e9118ce966b87d9fd3bd1bebba3f57bac865e03733a62f32233790f4fe3f33c3815f07f72b21d1a4c730a637991f4eba7165af1fec7547f5fe92a7207dff31bd55d41d76e676efa6dc8724a44730a60faf40df76fa487d6fdf6d7fb3ee6712d2f74ffa00665ed24db92f49488f604cf71c1ae519d38d7bb6dee9bdf533dd62b0e435ddfb42fbd383936e0252bea6f194925ebd75de021e45f7deac4667d29def3737e36f662f57bebede9affbee34dc7f4f2fb8d9c734c7ffaf94d08023ac267d2bdedfbf1e5caf3d7c7f5d6b18c19733e2490f4c3e9cabfd6975fcb24fd76b88b879f636bb02c9f4e89f16ebfff3c42e91fef873f9fcfe7eaf6e5707e5b28e9cfc528a7af544f6ab98f45d43cc45fdefbe74d9825fd61b6f456a83bfdf8c02bc1207d81f2def97edba44fddac36247d89edf40e7b25fda6d4baa6bcc72cfd1b49774cc878934e79cf2ce9413d1d637aea49b76747c78d93f44c92de991527e92a490f85a46792f48930a6e790f489472920bd81a4c74102d3b0f18ce961fbac497a1e49efbcad78f49af29e4fd283b493f4c8931e30fed1bde797f4eec778d247e3ce981e77d203ea7d3323671d2e357ccd981e79d2c3a43323a799f460f374ef7924bd39f03d606a8e313da7a44f82edf4d493eed891eed946a77bcf26e9cd7c5cc0db86487a36490f8b3949cf27e9c1ed3bdd7b36491faceefd0718d3734a7a3bccee373a3577d0bda79ef491a360ad07e8de334dfa80ef36243df5a47776a1398b7bfbfd2fec65cb3ae95fbadb67f620e97924dd4c87f29e76d2c7ce44c1989e61d21f8e3378e83dcd32cf7b5c6661740e819e99f4b5384d3ed9c15c4ec2d267261de9df84a477926ed6ff30249da46b9577d131dd90743de9a5b474922e289dee5d503a4917944ed205a5937441e9245d503a4917944ed205a56bcebd97ccc84526dd6cf2c18c5c44d2b742597a6463fa71b33fd37314961ed998be273ad2234bfa9e4d0802e84827e982d249baa074922e289da40b4a27e982d249baa074922e289da40b4a27e982d249baa074922e289da40b4a27e982d249baa074922e289da40b4a27e982d249baa074922e289da40b4a27e982d249baa074922e289da40b4a27e982d249baa074922e289da40b4a27e982d249baa074922e289da40b4a27e982d249baa074922e289da40b4a27e982d249baa074922e289da40b4a27e982d249baa074922e289da40b4a27e982d249baa074922e289da40b4a27e982d249baa0f4b0a43f5cd749f3f971d9e9e3a1787eb9f33cf4397d3d140fef32d28392fefbf56797d7a77d787d3a062c7071a8ebaa9ec455f876ce13487a5ffaf1296ee9e7392bb0dad03a495f21e9d50c64cafbdca4c75edeab0d4bf51c48fa04906e41d21b48ba64f75e51de19d36383317d0224dd8231bd81f2ce981e216ca74f80f26ec1dc3be59d19b9a8a17b9f00e5dd82eebd81ee9dee3d42e8de274079b7a07b6fa0bcb33f3d42e8de274079b7a07b6fa0bcd3bd4708ddfb0428ef1674ef0d9477baf708a17b9f00e5dd82eebd81f24ef71e2174ef13a0bc5bd0bd3750dee9de2384ee7d0294770bbaf706ca3bdd7b84d0bd4f80f26e41f7de4079a77b8f10baf70950de2de8de1b28ef74ef1142f73e01cabb05dd7b03e59dee3d42e8de274079b7a07b6fa0bcd3bd4708ddfb0428ef1674ef0d9477baf708a17b9f00e5dd82eebd81f24ef71e2174ef13a01ebc5bd0bd3f2654deff0f84305d11d75ad2ce0000000049454e44ae4260826821c0d9a776f409789274b9ffd0c8ba652eaa1966abac9a01f974a57ee2a162098c8f00000000"
}