{
  "txid": "4e5b5161da036730dbd6c2a648e13d1cee9f4a683132323197f81d9d5a01d5b2",
  "version": 2,
  "locktime": 0,
  "vin": [
    {
      "txid": "4ee77778659dcfe8d7a4e15882fc6193f4f3d5f6607624e256337b44c2280af5",
      "vout": 45,
      "prevout": {
        "scriptpubkey": "5120c1630c7cc406aa7f9b7580208ccd5fca5e49388ff4517ea3edb683f2b767e191",
        "scriptpubkey_asm": "OP_PUSHNUM_1 OP_PUSHBYTES_32 c1630c7cc406aa7f9b7580208ccd5fca5e49388ff4517ea3edb683f2b767e191",
        "scriptpubkey_type": "v1_p2tr",
        "scriptpubkey_address": "bc1pc93sclxyq648lxm4sqsgen2lef0yjwy073ghagldk6pl9dm8uxgsq578yk",
        "value": 2075
      },
      "scriptsig": "",
      "scriptsig_asm": "",
      "witness": [
        "5bf889356a72fe15e34dd36945756e79fc57f46ff78e42217ee880fe308057aaa0f18e94858977d2449be3ff59a872285da5d5168fb2a4473fec5115d5da48ea",
        "20cb9a9e7b1fe4d618033c2f37393e74242b2a38933627d6cc4dc9df81b016f5e9ac0063036f7264010118746578742f706c61696e3b636861727365743d7574662d3800357b2270223a224252432d313030222c226f70223a226d696e74222c227469636b223a22696e73222c22616d74223a2231303030227d68",
        "c1c50eac15d7d7889f5ad84f80015e8a209129aeea937c37fa4b8bc0f9be289730"
      ],
      "is_coinbase": false,
      "sequence": 4294967295
    }
  ],
  "vout": [
    {
      "scriptpubkey": "00143e2325412b554cacdd163a93a42204c4707f8851",
      "scriptpubkey_asm": "OP_0 OP_PUSHBYTES_20 3e2325412b554cacdd163a93a42204c4707f8851",
      "scriptpubkey_type": "v0_p2wpkh",
      "scriptpubkey_address": "bc1q8c3j2sft24x2ehgk82f6ggsyc3c8lzz3yw9wsu",
      "value": 546
    }
  ],
  "size": 308,
  "weight": 554,
  "fee": 1529,
  "status": {
    "confirmed": true,
    "block_height": 834464,
    "block_hash": "0000000000000000000177a0869a911a2b65c9bdcd5a8bcb02b68f305bee848e",
    "block_time": 1710308296
  },
  "hex": "02000000000101f50a28c2447b3356e2247660f6d5f3f49361fc8258e1a4d7e8cf9d657877e74e2d00000000ffffffff0122020000000000001600143e2325412b554cacdd163a93a42204c4707f885103405bf889356a72fe15e34dd36945756e79fc57f46ff78e42217ee880fe308057aaa0f18e94858977d2449be3ff59a872285da5d5168fb2a4473fec5115d5da48ea7b20cb9a9e7b1fe4d618033c2f37393e74242b2a38933627d6cc4dc9df81b016f5e9ac0063036f7264010118746578742f706c61696e3b636861727365743d7574662d3800357b2270223a224252432d313030222c226f70223a226d696e74222c227469636b223a22696e73222c22616d74223a2231303030227d6821c1c50eac15d7d7889f5ad84f80015e8a209129aeea937c37fa4b8bc0f9be28973000000000"
}