{
  "txid": "4e66e1201785bf8a51572163778b5811a1d2fae8edd03dc7201c6e645078554a",
  "version": 1,
  "locktime": 0,
  "vin": [
    {
      "txid": "f3b81eade71af062b0a457c11a9ba909accc65a06cea00aa686950790aece513",
      "vout": 0,
      "prevout": {
        "scriptpubkey": "512077fa127b098e59205ff954974b17e17e10c6b09e952949f42a0289068eb5c6b0",
        "scriptpubkey_asm": "OP_PUSHNUM_1 OP_PUSHBYTES_32 77fa127b098e59205ff954974b17e17e10c6b09e952949f42a0289068eb5c6b0",
        "scriptpubkey_type": "v1_p2tr",
        "scriptpubkey_address": "bc1pwlapy7cf3evjqhle2jt5k9lp0cgvdvy7j555nap2q2ysdr44c6cq0nxykk",
        "value": 2425
      },
      "scriptsig": "",
      "scriptsig_asm": "",
      "witness": [
        "31cdca35179946ccd98eb1e1bbf186b806d10851bec0289e2320cfd5284f3ce775f1e9b806d078fd7d19cdd1fb1aa92a3824838f73fd4299183ff25eecbabd6e83",
        "20be11f1d0580232188e877ef283eb5a1efd4e9e5290a2633605d666f59ad3fff2ac00630461746f6d03646d742ca16461726773a36b6d696e745f7469636b657263627463656e6f6e63651a0052634b6474696d651a65eb4c0c68",
        "c1be11f1d0580232188e877ef283eb5a1efd4e9e5290a2633605d666f59ad3fff2"
      ],
      "is_coinbase": false,
      "sequence": 4294967293
    }
  ],
  "vout": [
    {
      "scriptpubkey": "0014027bc455b49578636e080eabed6048b02ab3985f",
      "scriptpubkey_asm": "OP_0 OP_PUSHBYTES_20 027bc455b49578636e080eabed6048b02ab3985f",
      "scriptpubkey_type": "v0_p2wpkh",
      "scriptpubkey_address": "bc1qqfaug4d5j4uxxmsgp6476czgkq4t8xzl6u3zjv",
      "value": 1000
    }
  ],
  "size": 277,
  "weight": 523,
  "fee": 1425,
  "status": {
    "confirmed": true,
    "block_height": 834464,
    "block_hash": "0000000000000000000177a0869a911a2b65c9bdcd5a8bcb02b68f305bee848e",
    "block_time": 1710308296
  },
  "hex": "0100000000010113e5ec0a79506968aa00ea6ca065ccac09a99b1ac157a4b062f01ae7ad1eb8f30000000000fdffffff01e803000000000000160014027bc455b49578636e080eabed6048b02ab3985f034131cdca35179946ccd98eb1e1bbf186b806d10851bec0289e2320cfd5284f3ce775f1e9b806d078fd7d19cdd1fb1aa92a3824838f73fd4299183ff25eecbabd6e835b20be11f1d0580232188e877ef283eb5a1efd4e9e5290a2633605d666f59ad3fff2ac00630461746f6d03646d742ca16461726773a36b6d696e745f7469636b657263627463656e6f6e63651a0052634b6474696d651a65eb4c0c6821c1be11f1d0580232188e877ef283eb5a1efd4e9e5290a2633605d666f59ad3fff200000000"
}