{
  "txid": "4e6b40e498fd0f7324f5ef7cf90f7db47f51879704d701f03a807eb60ba9729e",
  "version": 2,
  "locktime": 0,
  "vin": [
    {
      "txid": "5c0a8567a8ff6f5c3546f70d0258a6904842822d53e40194881175d5fb9f2562",
      "vout": 0,
      "prevout": {
        "scriptpubkey": "5120ad2f454063c07edc0f20890ac09e93c284f3adf33ab068d2de3fb64d82478d37",
        "scriptpubkey_asm": "OP_PUSHNUM_1 OP_PUSHBYTES_32 ad2f454063c07edc0f20890ac09e93c284f3adf33ab068d2de3fb64d82478d37",
        "scriptpubkey_type": "v1_p2tr",
        "scriptpubkey_address": "bc1p45h52srrcpldcreq3y9vp85nc2z08t0n82cx35k787mymqj835mskywupp",
        "value": 546
      },
      "scriptsig": "",
      "scriptsig_asm": "",
      "witness": [
        "696569232fcfa2fc00d01e046009f9ef123449a7de9377c1428c643d7b45f46661f8e9155159880d2be5b03b4d9e7177d9574e5b73c16d25e138f5887be7258d"
      ],
      "is_coinbase": false,
      "sequence": 2147483649
    },
    {
      "txid": "0403c52c5f34f4b056815f51d95a306c2c2d8f50713f101a394c59d9ef4bedb3",
      "vout": 1,
      "prevout": {
        "scriptpubkey": "5120ad2f454063c07edc0f20890ac09e93c284f3adf33ab068d2de3fb64d82478d37",
        "scriptpubkey_asm": "OP_PUSHNUM_1 OP_PUSHBYTES_32 ad2f454063c07edc0f20890ac09e93c284f3adf33ab068d2de3fb64d82478d37",
        "scriptpubkey_type": "v1_p2tr",
        "scriptpubkey_address": "bc1p45h52srrcpldcreq3y9vp85nc2z08t0n82cx35k787mymqj835mskywupp",
        "value": 256157
      },
      "scriptsig": "",
      "scriptsig_asm": "",
      "witness": [
        "a6b33640c8b9f5a671917a3d4194b20a9ac945abe2822e5aff1b50822564668ef42b5dfde1963385ec56083b2483c8fd7afad4d08331a6840f8cf13bb93aee45"
      ],
      "is_coinbase": false,
      "sequence": 2147483649
    }
  ],
  "vout": [
    {
      "scriptpubkey": "5120b07c06ea30d2978b7e9fcab2207192aa6f8c199813e8ebd94f9a2ea9cde93519",
      "scriptpubkey_asm": "OP_PUSHNUM_1 OP_PUSHBYTES_32 b07c06ea30d2978b7e9fcab2207192aa6f8c199813e8ebd94f9a2ea9cde93519",
      "scriptpubkey_type": "v1_p2tr",
      "scriptpubkey_address": "bc1pkp7qd63s62tckl5le2ezquvj4fhccxvcz05whk20ngh2nn0fx5vsdmes6n",
      "value": 546
    },
    {
      "scriptpubkey": "5120ad2f454063c07edc0f20890ac09e93c284f3adf33ab068d2de3fb64d82478d37",
      "scriptpubkey_asm": "OP_PUSHNUM_1 OP_PUSHBYTES_32 ad2f454063c07edc0f20890ac09e93c284f3adf33ab068d2de3fb64d82478d37",
      "scriptpubkey_type": "v1_p2tr",
      "scriptpubkey_address": "bc1p45h52srrcpldcreq3y9vp85nc2z08t0n82cx35k787mymqj835mskywupp",
      "value": 252781
    }
  ],
  "size": 312,
  "weight": 846,
  "fee": 3376,
  "status": {
    "confirmed": true,
    "block_height": 834638,
    "block_hash": "000000000000000000025f742c626208ac87e0b7d15054abb4a19ca2d735a54e",
    "block_time": 1710405325
  },
  "hex": "0200000000010262259ffbd57511889401e4532d82424890a658020df746355c6fffa867850a5c000000000001000080b3ed4befd9594c391a103f71508f2d2c6c305ad9515f8156b0f4345f2cc50304010000000001000080022202000000000000225120b07c06ea30d2978b7e9fcab2207192aa6f8c199813e8ebd94f9a2ea9cde935196ddb030000000000225120ad2f454063c07edc0f20890ac09e93c284f3adf33ab068d2de3fb64d82478d370140696569232fcfa2fc00d01e046009f9ef123449a7de9377c1428c643d7b45f46661f8e9155159880d2be5b03b4d9e7177d9574e5b73c16d25e138f5887be7258d0140a6b33640c8b9f5a671917a3d4194b20a9ac945abe2822e5aff1b50822564668ef42b5dfde1963385ec56083b2483c8fd7afad4d08331a6840f8cf13bb93aee4500000000"
}