{
  "txid": "4e6e89304a2f551fa660b6dd4d15d47757f443b9ea2adb5c0a3f1620f5c2ebc8",
  "version": 2,
  "locktime": 0,
  "vin": [
    {
      "txid": "f1a447ff86a678f4da68565e76bc6d95cc3c095f442266c52b95d68e44ac48b2",
      "vout": 1,
      "prevout": {
        "scriptpubkey": "512068fc1102964aa7f87587635695a74bf2da4c5734aaf12566830dfd61c83960a1",
        "scriptpubkey_asm": "OP_PUSHNUM_1 OP_PUSHBYTES_32 68fc1102964aa7f87587635695a74bf2da4c5734aaf12566830dfd61c83960a1",
        "scriptpubkey_type": "v1_p2tr",
        "scriptpubkey_address": "bc1pdr7pzq5kf2nlsav8vdtftf6t7tdyc4e54tcj2e5rph7krjpevzssnzxcx2",
        "value": 36906040
      },
      "scriptsig": "",
      "scriptsig_asm": "",
      "witness": [
        "78ec61fa5cc32417e3d5dd6ca02c32a4103b0485b968fbdcac61d253ac8e72d396b9bf62aed33de03442e00d3c83a039b00948b091870196530693da464b2282",
        "2088225c0158a85208c9f0a93d3b724953f164a056121b81a87f88ab0a666cbff1ac0063036f726401010a746578742f706c61696e000d3833343633382e6269746d617068",
        "c088225c0158a85208c9f0a93d3b724953f164a056121b81a87f88ab0a666cbff1"
      ],
      "is_coinbase": false,
      "sequence": 4261412863
    }
  ],
  "vout": [
    {
      "scriptpubkey": "0014463d3fb48cc0b5c0493b098f364bc2beab5309eb",
      "scriptpubkey_asm": "OP_0 OP_PUSHBYTES_20 463d3fb48cc0b5c0493b098f364bc2beab5309eb",
      "scriptpubkey_type": "v0_p2wpkh",
      "scriptpubkey_address": "bc1qgc7nldyvcz6uqjfmpx8nvj7zh644xz0tj8k9xp",
      "value": 294
    },
    {
      "scriptpubkey": "5120ec1390ac89ad78539ad05fb8a585fb6e0ba021f38d45b81ca8b03cd720961f25",
      "scriptpubkey_asm": "OP_PUSHNUM_1 OP_PUSHBYTES_32 ec1390ac89ad78539ad05fb8a585fb6e0ba021f38d45b81ca8b03cd720961f25",
      "scriptpubkey_type": "v1_p2tr",
      "scriptpubkey_address": "bc1pasfeptyf44u98xkst7u2tp0mdc96qg0n34zms89gkq7dwgykrujsdfeawl",
      "value": 36899026
    }
  ],
  "size": 297,
  "weight": 672,
  "fee": 6720,
  "status": {
    "confirmed": true,
    "block_height": 834638,
    "block_hash": "000000000000000000025f742c626208ac87e0b7d15054abb4a19ca2d735a54e",
    "block_time": 1710405325
  },
  "hex": "02000000000101b248ac448ed6952bc56622445f093ccc956dbc765e5668daf478a686ff47a4f10100000000fffffffd022601000000000000160014463d3fb48cc0b5c0493b098f364bc2beab5309ebd208330200000000225120ec1390ac89ad78539ad05fb8a585fb6e0ba021f38d45b81ca8b03cd720961f25034078ec61fa5cc32417e3d5dd6ca02c32a4103b0485b968fbdcac61d253ac8e72d396b9bf62aed33de03442e00d3c83a039b00948b091870196530693da464b2282452088225c0158a85208c9f0a93d3b724953f164a056121b81a87f88ab0a666cbff1ac0063036f726401010a746578742f706c61696e000d3833343633382e6269746d61706821c088225c0158a85208c9f0a93d3b724953f164a056121b81a87f88ab0a666cbff100000000"
}