{
  "txid": "4e8b891cf5c9c97fd4b37cc8c84433e49624449ad9d61bd14058f009e58c17c7",
  "version": 2,
  "locktime": 0,
  "vin": [
    {
      "txid": "2bcc4ab09f0786499bc3f6299daab6e9cfecccfbe584fa829ac37bf90c155df5",
      "vout": 1,
      "prevout": {
        "scriptpubkey": "001496f1d87610d236707354449ecc80cb7f87aebd0b",
        "scriptpubkey_asm": "OP_0 OP_PUSHBYTES_20 96f1d87610d236707354449ecc80cb7f87aebd0b",
        "scriptpubkey_type": "v0_p2wpkh",
        "scriptpubkey_address": "bc1qjmcasass6gm8qu65gj0veqxt07r6a0gt7da646",
        "value": 692243
      },
      "scriptsig": "",
      "scriptsig_asm": "",
      "witness": [
        "3045022100fe9cabefe730df15e6ea733018a25f0b9d132e419e96a3aa4399eb1022f555a402202ccb36e455437477668db9945b4170789d8068ab2cae892d23c1f5c4233b387501",
        "02316e97dd0030bf15b9357226d43e119c9398276c09f951097ee81152b273bc2d"
      ],
      "is_coinbase": false,
      "sequence": 4294967295
    }
  ],
  "vout": [
    {
      "scriptpubkey": "001468a290f1a1e714d482da12c54b9eed44e37c589b",
      "scriptpubkey_asm": "OP_0 OP_PUSHBYTES_20 68a290f1a1e714d482da12c54b9eed44e37c589b",
      "scriptpubkey_type": "v0_p2wpkh",
      "scriptpubkey_address": "bc1qdz3fpudpuu2dfqk6ztz5h8hdgn3hckymhvxx5e",
      "value": 300000
    },
    {
      "scriptpubkey": "0014e1db4c76ced529aaf63601eee6dc98b3a9882d8f",
      "scriptpubkey_asm": "OP_0 OP_PUSHBYTES_20 e1db4c76ced529aaf63601eee6dc98b3a9882d8f",
      "scriptpubkey_type": "v0_p2wpkh",
      "scriptpubkey_address": "bc1qu8d5cakw65564a3kq8hwdhyckw5cstv09a8l4x",
      "value": 3000
    },
    {
      "scriptpubkey": "001496f1d87610d236707354449ecc80cb7f87aebd0b",
      "scriptpubkey_asm": "OP_0 OP_PUSHBYTES_20 96f1d87610d236707354449ecc80cb7f87aebd0b",
      "scriptpubkey_type": "v0_p2wpkh",
      "scriptpubkey_address": "bc1qjmcasass6gm8qu65gj0veqxt07r6a0gt7da646",
      "value": 387007
    }
  ],
  "size": 254,
  "weight": 686,
  "fee": 2236,
  "status": {
    "confirmed": true,
    "block_height": 834460,
    "block_hash": "00000000000000000000484a79b643b2524bbce82e5d8a442013fa5b8905ed98",
    "block_time": 1710307468
  },
  "hex": "02000000000101f55d150cf97bc39a82fa84e5fbcceccfe9b6aa9d29f6c39b4986079fb04acc2b0100000000ffffffff03e09304000000000016001468a290f1a1e714d482da12c54b9eed44e37c589bb80b000000000000160014e1db4c76ced529aaf63601eee6dc98b3a9882d8fbfe705000000000016001496f1d87610d236707354449ecc80cb7f87aebd0b02483045022100fe9cabefe730df15e6ea733018a25f0b9d132e419e96a3aa4399eb1022f555a402202ccb36e455437477668db9945b4170789d8068ab2cae892d23c1f5c4233b3875012102316e97dd0030bf15b9357226d43e119c9398276c09f951097ee81152b273bc2d00000000"
}