{
  "txid": "4ea0b5fca7a36e4ed43aca9028da1e83b5cfa2fefee99590134972f51891e6db",
  "version": 2,
  "locktime": 833121,
  "vin": [
    {
      "txid": "2b99d763d652b5dd6d0370af3e8e7f8eb4dc23c615fa3218384c1e133853eaed",
      "vout": 0,
      "prevout": {
        "scriptpubkey": "0014bb03f6be0be4a544e2f57c7cc24918eb83918bf0",
        "scriptpubkey_asm": "OP_0 OP_PUSHBYTES_20 bb03f6be0be4a544e2f57c7cc24918eb83918bf0",
        "scriptpubkey_type": "v0_p2wpkh",
        "scriptpubkey_address": "bc1qhvpld0stujj5fch4037vyjgcawperzlsh6j6p2",
        "value": 10355302
      },
      "scriptsig": "",
      "scriptsig_asm": "",
      "witness": [
        "30440220057b92dddbc7290555b11d6d9e45e59632b56070f707522ac3bb952b5a2d1dd002205e4326f1f26023d88eb97159d3dae6aa7d70c97167906aee0452273fc88ee59801",
        "027f514f19b49c2ff489611b5338f3739a6ae523a875d5d2cd59f37340793904c2"
      ],
      "is_coinbase": false,
      "sequence": 4294967294
    }
  ],
  "vout": [
    {
      "scriptpubkey": "00142abe9938cd5c5faf9978640534177167084ed5e3",
      "scriptpubkey_asm": "OP_0 OP_PUSHBYTES_20 2abe9938cd5c5faf9978640534177167084ed5e3",
      "scriptpubkey_type": "v0_p2wpkh",
      "scriptpubkey_address": "bc1q92lfjwxdt306lxtcvszng9m3vuyya40r4jj696",
      "value": 10166811
    },
    {
      "scriptpubkey": "001416d783d36f6788c96467f7c7b1177adbe10b5e5e",
      "scriptpubkey_asm": "OP_0 OP_PUSHBYTES_20 16d783d36f6788c96467f7c7b1177adbe10b5e5e",
      "scriptpubkey_type": "v0_p2wpkh",
      "scriptpubkey_address": "bc1qzmtc85m0v7yvjer87lrmz9m6m0sskhj7haxht6",
      "value": 186995
    }
  ],
  "size": 222,
  "weight": 561,
  "fee": 1496,
  "status": {
    "confirmed": true,
    "block_height": 834464,
    "block_hash": "0000000000000000000177a0869a911a2b65c9bdcd5a8bcb02b68f305bee848e",
    "block_time": 1710308296
  },
  "hex": "02000000000101edea5338131e4c381832fa15c623dcb48e7f8e3eaf70036dddb552d663d7992b0000000000feffffff021b229b00000000001600142abe9938cd5c5faf9978640534177167084ed5e373da02000000000016001416d783d36f6788c96467f7c7b1177adbe10b5e5e024730440220057b92dddbc7290555b11d6d9e45e59632b56070f707522ac3bb952b5a2d1dd002205e4326f1f26023d88eb97159d3dae6aa7d70c97167906aee0452273fc88ee5980121027f514f19b49c2ff489611b5338f3739a6ae523a875d5d2cd59f37340793904c261b60c00"
}