{
  "txid": "4ea7ee648c9d55fbbd37b8ecdf6368ca095e3b8d23439fd0de17b23029ccc470",
  "version": 1,
  "locktime": 0,
  "vin": [
    {
      "txid": "65c522406608c5c3054c965ea400e85cd40ce372eda7139ed889c78f9e1bce82",
      "vout": 0,
      "prevout": {
        "scriptpubkey": "00143b39c5d6e991bb7bf68082df7ec6ccd5ea0fdb5e",
        "scriptpubkey_asm": "OP_0 OP_PUSHBYTES_20 3b39c5d6e991bb7bf68082df7ec6ccd5ea0fdb5e",
        "scriptpubkey_type": "v0_p2wpkh",
        "scriptpubkey_address": "bc1q8vuut4hfjxahha5qst0ha3kv6h4qlk6729qhur",
        "value": 140836
      },
      "scriptsig": "",
      "scriptsig_asm": "",
      "witness": [
        "3045022100ea16bb32560d0d79aa62457c4c98733bc61d87d620a9fb1172a4d9584545ddb9022009f5de97f6cc9f71c3b41a4f040157c22a0cbe3e4f311944ed574cd51cf54cb601",
        "032bbbb03f052e6fc326e76a5ef4aa5f20d4719dfa955a1f13e4eaff27b8ede731"
      ],
      "is_coinbase": false,
      "sequence": 4294967295
    }
  ],
  "vout": [
    {
      "scriptpubkey": "a9142a85b4b7dca08e14008bc91f38d12026d626b8eb87",
      "scriptpubkey_asm": "OP_HASH160 OP_PUSHBYTES_20 2a85b4b7dca08e14008bc91f38d12026d626b8eb OP_EQUAL",
      "scriptpubkey_type": "p2sh",
      "scriptpubkey_address": "35ZrUek4dZWc9CZvCL4HNKpK36jcz9UVLR",
      "value": 40817
    },
    {
      "scriptpubkey": "00143b39c5d6e991bb7bf68082df7ec6ccd5ea0fdb5e",
      "scriptpubkey_asm": "OP_0 OP_PUSHBYTES_20 3b39c5d6e991bb7bf68082df7ec6ccd5ea0fdb5e",
      "scriptpubkey_type": "v0_p2wpkh",
      "scriptpubkey_address": "bc1q8vuut4hfjxahha5qst0ha3kv6h4qlk6729qhur",
      "value": 96629
    }
  ],
  "size": 224,
  "weight": 566,
  "fee": 3390,
  "status": {
    "confirmed": true,
    "block_height": 834638,
    "block_hash": "000000000000000000025f742c626208ac87e0b7d15054abb4a19ca2d735a54e",
    "block_time": 1710405325
  },
  "hex": "0100000000010182ce1b9e8fc789d89e13a7ed72e30cd45ce800a45e964c05c3c508664022c5650000000000ffffffff02719f00000000000017a9142a85b4b7dca08e14008bc91f38d12026d626b8eb8775790100000000001600143b39c5d6e991bb7bf68082df7ec6ccd5ea0fdb5e02483045022100ea16bb32560d0d79aa62457c4c98733bc61d87d620a9fb1172a4d9584545ddb9022009f5de97f6cc9f71c3b41a4f040157c22a0cbe3e4f311944ed574cd51cf54cb60121032bbbb03f052e6fc326e76a5ef4aa5f20d4719dfa955a1f13e4eaff27b8ede73100000000"
}