{
  "txid": "4ebcd032c8b58c130daa931c7cf27bd8c39be6ebad22092d0b51e8fc861e3bb4",
  "version": 2,
  "locktime": 0,
  "vin": [
    {
      "txid": "f08f4b88c096083cd96a75498d4bb91236e4e84fe0965508c8b8a2432c2ad5eb",
      "vout": 12,
      "prevout": {
        "scriptpubkey": "5120eeec35c3826ece94d67144e50311adc95ec9f81335a18c6468f47683e7f85f43",
        "scriptpubkey_asm": "OP_PUSHNUM_1 OP_PUSHBYTES_32 eeec35c3826ece94d67144e50311adc95ec9f81335a18c6468f47683e7f85f43",
        "scriptpubkey_type": "v1_p2tr",
        "scriptpubkey_address": "bc1pamkrtsuzdm8ff4n3gnjsxydde90vn7qnxksccerg73mg8elctaps0gr0za",
        "value": 1859
      },
      "scriptsig": "",
      "scriptsig_asm": "",
      "witness": [
        "210b30231daf0377491bac11a62a3666e0c2c438f97d61b776229123bb579956a0aedd2dbafe6b0d811db6b23c302b9ebf3cac5e0eaa3e698795a500f66cdbb3",
        "20857ae92bfb1617a8649c55698c174042c55f1b9257af83b6130200a1f28df3cdac0063036f7264010118746578742f706c61696e3b636861727365743d7574662d3800357b2270223a226272632d3230222c226f70223a226d696e74222c227469636b223a22646f6765222c22616d74223a2234323030227d68",
        "c1a1b8f27720bdb58312407ff108aa0a8a79eb6ade7272753df37ca3add73a736a"
      ],
      "is_coinbase": false,
      "sequence": 4294967295
    }
  ],
  "vout": [
    {
      "scriptpubkey": "00149e8548cc69df89adefb3c19ee6963818466a179d",
      "scriptpubkey_asm": "OP_0 OP_PUSHBYTES_20 9e8548cc69df89adefb3c19ee6963818466a179d",
      "scriptpubkey_type": "v0_p2wpkh",
      "scriptpubkey_address": "bc1qn6z53nrfm7y6mmancx0wd93crprx59uau9ymz7",
      "value": 330
    }
  ],
  "size": 308,
  "weight": 554,
  "fee": 1529,
  "status": {
    "confirmed": true,
    "block_height": 834464,
    "block_hash": "0000000000000000000177a0869a911a2b65c9bdcd5a8bcb02b68f305bee848e",
    "block_time": 1710308296
  },
  "hex": "02000000000101ebd52a2c43a2b8c8085596e04fe8e43612b94b8d49756ad93c0896c0884b8ff00c00000000ffffffff014a010000000000001600149e8548cc69df89adefb3c19ee6963818466a179d0340210b30231daf0377491bac11a62a3666e0c2c438f97d61b776229123bb579956a0aedd2dbafe6b0d811db6b23c302b9ebf3cac5e0eaa3e698795a500f66cdbb37b20857ae92bfb1617a8649c55698c174042c55f1b9257af83b6130200a1f28df3cdac0063036f7264010118746578742f706c61696e3b636861727365743d7574662d3800357b2270223a226272632d3230222c226f70223a226d696e74222c227469636b223a22646f6765222c22616d74223a2234323030227d6821c1a1b8f27720bdb58312407ff108aa0a8a79eb6ade7272753df37ca3add73a736a00000000"
}