{
  "txid": "4ec75bc934da27bd34f45b6ba301404ba0d686381e37f46e37b305c37a10be35",
  "version": 2,
  "locktime": 0,
  "vin": [
    {
      "txid": "5cf1a25e4d755501fb3a9ffa876a3acb3800a09e73528f31e0846e3f1f18184a",
      "vout": 5,
      "prevout": {
        "scriptpubkey": "5120bdb85409696713e03bddaf74ed4fc33055b10abe08142f21987d4f57fe517595",
        "scriptpubkey_asm": "OP_PUSHNUM_1 OP_PUSHBYTES_32 bdb85409696713e03bddaf74ed4fc33055b10abe08142f21987d4f57fe517595",
        "scriptpubkey_type": "v1_p2tr",
        "scriptpubkey_address": "bc1phku9gztfvuf7qw7a4a6w6n7rxp2mzz47pq2z7gvc04840lj3wk2setq5gf",
        "value": 360529
      },
      "scriptsig": "",
      "scriptsig_asm": "",
      "witness": [
        "1e04bb8f60be08be4a373cca167bd32ec7774350aa6c8f138bfe281788a65e5b3d1ce4d1b7c9564b421f6873f28923c951959719c9fae4be26e48425ded10267"
      ],
      "is_coinbase": false,
      "sequence": 4294967293
    }
  ],
  "vout": [
    {
      "scriptpubkey": "5120b657f1f0818d09709fbe23397f205d1e211e7e8e34a9d3a6d025efa7d3ec988b",
      "scriptpubkey_asm": "OP_PUSHNUM_1 OP_PUSHBYTES_32 b657f1f0818d09709fbe23397f205d1e211e7e8e34a9d3a6d025efa7d3ec988b",
      "scriptpubkey_type": "v1_p2tr",
      "scriptpubkey_address": "bc1pketlruyp35yhp8a7yvuh7gzarcs3ul5wxj5a8fksyhh605lvnz9sd22yre",
      "value": 3759
    },
    {
      "scriptpubkey": "5120bdb85409696713e03bddaf74ed4fc33055b10abe08142f21987d4f57fe517595",
      "scriptpubkey_asm": "OP_PUSHNUM_1 OP_PUSHBYTES_32 bdb85409696713e03bddaf74ed4fc33055b10abe08142f21987d4f57fe517595",
      "scriptpubkey_type": "v1_p2tr",
      "scriptpubkey_address": "bc1phku9gztfvuf7qw7a4a6w6n7rxp2mzz47pq2z7gvc04840lj3wk2setq5gf",
      "value": 353536
    }
  ],
  "size": 205,
  "weight": 616,
  "fee": 3234,
  "status": {
    "confirmed": true,
    "block_height": 834460,
    "block_hash": "00000000000000000000484a79b643b2524bbce82e5d8a442013fa5b8905ed98",
    "block_time": 1710307468
  },
  "hex": "020000000001014a18181f3f6e84e0318f52739ea00038cb3a6a87fa9f3afb0155754d5ea2f15c0500000000fdffffff02af0e000000000000225120b657f1f0818d09709fbe23397f205d1e211e7e8e34a9d3a6d025efa7d3ec988b0065050000000000225120bdb85409696713e03bddaf74ed4fc33055b10abe08142f21987d4f57fe51759501401e04bb8f60be08be4a373cca167bd32ec7774350aa6c8f138bfe281788a65e5b3d1ce4d1b7c9564b421f6873f28923c951959719c9fae4be26e48425ded1026700000000"
}