{
  "txid": "4ed03b7ec42df27459b802a2d2c4efd22b7d3bbad6de74cf0fdc1a2155eda0e1",
  "version": 1,
  "locktime": 0,
  "vin": [
    {
      "txid": "37ba5d90db1029eed9ed7edc73657ba37856bee69438ab3276feb4dd58a5778d",
      "vout": 2,
      "prevout": {
        "scriptpubkey": "a91410065dd50b3a7f299fef3b1c53b8216399916ab087",
        "scriptpubkey_asm": "OP_HASH160 OP_PUSHBYTES_20 10065dd50b3a7f299fef3b1c53b8216399916ab0 OP_EQUAL",
        "scriptpubkey_type": "p2sh",
        "scriptpubkey_address": "339kMy4j9nMS2jhomBeDZCwfVoB9CKqFyY",
        "value": 1501150
      },
      "scriptsig": "00483045022100ee2652f7a05cd0f58f5798eed75ce5ac8168fe2d3430efb24e55a2054795290f02202aeaab8a47443e97b5587dbaa2c515c1a67516d5d6d44f640d4ce7a12ac4947b014730440220133493b99a35831bdb97fc503295e22fdcad2551c84eb76744fd6522e7cf4ee802201efa2f4078189ced227a5f60880959a0df1edd8109ca9f664f06220ae0f34e8e014c69522103e54bc61efbcb8eeff3a5ab2a92a75272f5f6820e38e3d28edb54beb06b86c0862103a553e30733d7a8df6d390d59cc136e2c9d9cf4e808f3b6ab009beae68dd60822210291c5a54bb8b00b6f72b90af0ac0ecaf78fab026d8eded282ad95d4d65db268c953ae",
      "scriptsig_asm": "OP_0 OP_PUSHBYTES_72 3045022100ee2652f7a05cd0f58f5798eed75ce5ac8168fe2d3430efb24e55a2054795290f02202aeaab8a47443e97b5587dbaa2c515c1a67516d5d6d44f640d4ce7a12ac4947b01 OP_PUSHBYTES_71 30440220133493b99a35831bdb97fc503295e22fdcad2551c84eb76744fd6522e7cf4ee802201efa2f4078189ced227a5f60880959a0df1edd8109ca9f664f06220ae0f34e8e01 OP_PUSHDATA1 522103e54bc61efbcb8eeff3a5ab2a92a75272f5f6820e38e3d28edb54beb06b86c0862103a553e30733d7a8df6d390d59cc136e2c9d9cf4e808f3b6ab009beae68dd60822210291c5a54bb8b00b6f72b90af0ac0ecaf78fab026d8eded282ad95d4d65db268c953ae",
      "is_coinbase": false,
      "sequence": 4294967295,
      "inner_redeemscript_asm": "OP_PUSHNUM_2 OP_PUSHBYTES_33 03e54bc61efbcb8eeff3a5ab2a92a75272f5f6820e38e3d28edb54beb06b86c086 OP_PUSHBYTES_33 03a553e30733d7a8df6d390d59cc136e2c9d9cf4e808f3b6ab009beae68dd60822 OP_PUSHBYTES_33 0291c5a54bb8b00b6f72b90af0ac0ecaf78fab026d8eded282ad95d4d65db268c9 OP_PUSHNUM_3 OP_CHECKMULTISIG"
    },
    {
      "txid": "a874d9fa76fcb97a528069d065eab907329cb98662c49760f1813891212687c0",
      "vout": 0,
      "prevout": {
        "scriptpubkey": "a91410065dd50b3a7f299fef3b1c53b8216399916ab087",
        "scriptpubkey_asm": "OP_HASH160 OP_PUSHBYTES_20 10065dd50b3a7f299fef3b1c53b8216399916ab0 OP_EQUAL",
        "scriptpubkey_type": "p2sh",
        "scriptpubkey_address": "339kMy4j9nMS2jhomBeDZCwfVoB9CKqFyY",
        "value": 1212978
      },
      "scriptsig": "00483045022100d74b9d1dd74dad9dde62cd16aaa0ff95cd14edc4f9e366459edbbfb1eadebdb5022055b11dfc4e6cd6493d9d6160503ffa1380755764a7d9523ac57ba87bcf7317df0147304402207fb5a339ce134c1d770bc1336c5e7c3315d577925137cfffc8724606c0ffea310220498e9d74eb444cc5510a0e8f75aa890736433b0ff13bc5a7b210100737056be1014c69522103e54bc61efbcb8eeff3a5ab2a92a75272f5f6820e38e3d28edb54beb06b86c0862103a553e30733d7a8df6d390d59cc136e2c9d9cf4e808f3b6ab009beae68dd60822210291c5a54bb8b00b6f72b90af0ac0ecaf78fab026d8eded282ad95d4d65db268c953ae",
      "scriptsig_asm": "OP_0 OP_PUSHBYTES_72 3045022100d74b9d1dd74dad9dde62cd16aaa0ff95cd14edc4f9e366459edbbfb1eadebdb5022055b11dfc4e6cd6493d9d6160503ffa1380755764a7d9523ac57ba87bcf7317df01 OP_PUSHBYTES_71 304402207fb5a339ce134c1d770bc1336c5e7c3315d577925137cfffc8724606c0ffea310220498e9d74eb444cc5510a0e8f75aa890736433b0ff13bc5a7b210100737056be101 OP_PUSHDATA1 522103e54bc61efbcb8eeff3a5ab2a92a75272f5f6820e38e3d28edb54beb06b86c0862103a553e30733d7a8df6d390d59cc136e2c9d9cf4e808f3b6ab009beae68dd60822210291c5a54bb8b00b6f72b90af0ac0ecaf78fab026d8eded282ad95d4d65db268c953ae",
      "is_coinbase": false,
      "sequence": 4294967295,
      "inner_redeemscript_asm": "OP_PUSHNUM_2 OP_PUSHBYTES_33 03e54bc61efbcb8eeff3a5ab2a92a75272f5f6820e38e3d28edb54beb06b86c086 OP_PUSHBYTES_33 03a553e30733d7a8df6d390d59cc136e2c9d9cf4e808f3b6ab009beae68dd60822 OP_PUSHBYTES_33 0291c5a54bb8b00b6f72b90af0ac0ecaf78fab026d8eded282ad95d4d65db268c9 OP_PUSHNUM_3 OP_CHECKMULTISIG"
    }
  ],
  "vout": [
    {
      "scriptpubkey": "a9149f01ccd203d5c01cdfb97feb0806ce322ebe36d087",
      "scriptpubkey_asm": "OP_HASH160 OP_PUSHBYTES_20 9f01ccd203d5c01cdfb97feb0806ce322ebe36d0 OP_EQUAL",
      "scriptpubkey_type": "p2sh",
      "scriptpubkey_address": "3GBmX7iCYky7VcTnqaHUJxXSMzNe4stsxN",
      "value": 737759
    },
    {
      "scriptpubkey": "a91410065dd50b3a7f299fef3b1c53b8216399916ab087",
      "scriptpubkey_asm": "OP_HASH160 OP_PUSHBYTES_20 10065dd50b3a7f299fef3b1c53b8216399916ab0 OP_EQUAL",
      "scriptpubkey_type": "p2sh",
      "scriptpubkey_address": "339kMy4j9nMS2jhomBeDZCwfVoB9CKqFyY",
      "value": 1961630
    }
  ],
  "size": 666,
  "weight": 2664,
  "fee": 14739,
  "status": {
    "confirmed": true,
    "block_height": 834638,
    "block_hash": "000000000000000000025f742c626208ac87e0b7d15054abb4a19ca2d735a54e",
    "block_time": 1710405325
  },
  "hex": "01000000028d77a558ddb4fe7632ab3894e6be5678a37b6573dc7eedd9ee2910db905dba3702000000fdfd0000483045022100ee2652f7a05cd0f58f5798eed75ce5ac8168fe2d3430efb24e55a2054795290f02202aeaab8a47443e97b5587dbaa2c515c1a67516d5d6d44f640d4ce7a12ac4947b014730440220133493b99a35831bdb97fc503295e22fdcad2551c84eb76744fd6522e7cf4ee802201efa2f4078189ced227a5f60880959a0df1edd8109ca9f664f06220ae0f34e8e014c69522103e54bc61efbcb8eeff3a5ab2a92a75272f5f6820e38e3d28edb54beb06b86c0862103a553e30733d7a8df6d390d59cc136e2c9d9cf4e808f3b6ab009beae68dd60822210291c5a54bb8b00b6f72b90af0ac0ecaf78fab026d8eded282ad95d4d65db268c953aeffffffffc0872621913881f16097c46286b99c3207b9ea65d06980527ab9fc76fad974a800000000fdfd0000483045022100d74b9d1dd74dad9dde62cd16aaa0ff95cd14edc4f9e366459edbbfb1eadebdb5022055b11dfc4e6cd6493d9d6160503ffa1380755764a7d9523ac57ba87bcf7317df0147304402207fb5a339ce134c1d770bc1336c5e7c3315d577925137cfffc8724606c0ffea310220498e9d74eb444cc5510a0e8f75aa890736433b0ff13bc5a7b210100737056be1014c69522103e54bc61efbcb8eeff3a5ab2a92a75272f5f6820e38e3d28edb54beb06b86c0862103a553e30733d7a8df6d390d59cc136e2c9d9cf4e808f3b6ab009beae68dd60822210291c5a54bb8b00b6f72b90af0ac0ecaf78fab026d8eded282ad95d4d65db268c953aeffffffff02df410b000000000017a9149f01ccd203d5c01cdfb97feb0806ce322ebe36d0879eee1d000000000017a91410065dd50b3a7f299fef3b1c53b8216399916ab08700000000"
}