{
  "txid": "4eda172383e35a0de992d0e91084fbd92b037b24064d88eb97a2347e9a5c50aa",
  "version": 2,
  "locktime": 0,
  "vin": [
    {
      "txid": "daf4112917442679e670fb713dd7ce4447ce3a68d5b9494e40d274e03486e3ab",
      "vout": 1,
      "prevout": {
        "scriptpubkey": "0014aa68ce645b9af88494d3fd62d8cbc4002d0a003d",
        "scriptpubkey_asm": "OP_0 OP_PUSHBYTES_20 aa68ce645b9af88494d3fd62d8cbc4002d0a003d",
        "scriptpubkey_type": "v0_p2wpkh",
        "scriptpubkey_address": "bc1q4f5vuezmntugf9xnl43d3j7yqqks5qpax5xygs",
        "value": 115679
      },
      "scriptsig": "",
      "scriptsig_asm": "",
      "witness": [
        "3045022100cbe1078bbd191d2158e76ad6ce8dc74e5ec1f9729303bbe49169541d3980178e02206de8badc3b390549f18712678b5a489344a8d97395569d12590147b64188492d01",
        "03820bb28521f5c30d4088d6ec6f09db1c493a04ee1a564199dd3315156c30eedf"
      ],
      "is_coinbase": false,
      "sequence": 4294967295
    }
  ],
  "vout": [
    {
      "scriptpubkey": "0014becbbc4569384171b816984afcb77473ae4eb468",
      "scriptpubkey_asm": "OP_0 OP_PUSHBYTES_20 becbbc4569384171b816984afcb77473ae4eb468",
      "scriptpubkey_type": "v0_p2wpkh",
      "scriptpubkey_address": "bc1qhm9mc3tf8pqhrwqknp90edm5wwhyadrgv30r78",
      "value": 32930
    },
    {
      "scriptpubkey": "76a91455f1feacd5b11e0574da178a3441618c7c9d96d088ac",
      "scriptpubkey_asm": "OP_DUP OP_HASH160 OP_PUSHBYTES_20 55f1feacd5b11e0574da178a3441618c7c9d96d0 OP_EQUALVERIFY OP_CHECKSIG",
      "scriptpubkey_type": "p2pkh",
      "scriptpubkey_address": "18qSLQFE1RAB9D38jJwtVohTmBgRzKZTHe",
      "value": 80600
    }
  ],
  "size": 226,
  "weight": 574,
  "fee": 2149,
  "status": {
    "confirmed": true,
    "block_height": 834464,
    "block_hash": "0000000000000000000177a0869a911a2b65c9bdcd5a8bcb02b68f305bee848e",
    "block_time": 1710308296
  },
  "hex": "02000000000101abe38634e074d2404e49b9d5683ace4744ced73d71fb70e6792644172911f4da0100000000ffffffff02a280000000000000160014becbbc4569384171b816984afcb77473ae4eb468d83a0100000000001976a91455f1feacd5b11e0574da178a3441618c7c9d96d088ac02483045022100cbe1078bbd191d2158e76ad6ce8dc74e5ec1f9729303bbe49169541d3980178e02206de8badc3b390549f18712678b5a489344a8d97395569d12590147b64188492d012103820bb28521f5c30d4088d6ec6f09db1c493a04ee1a564199dd3315156c30eedf00000000"
}