{
  "txid": "4eda2b12862c3aff56323d76a33f0739c655249305ad68a49d73afd8b4ee6a89",
  "version": 2,
  "locktime": 0,
  "vin": [
    {
      "txid": "fb7fe37919a55dfa45a062f88bd3c7412b54de759115cb58c3b9b46ac5f7c925",
      "vout": 1,
      "prevout": {
        "scriptpubkey": "76a914286eb663201959fb12eff504329080e4c56ae28788ac",
        "scriptpubkey_asm": "OP_DUP OP_HASH160 OP_PUSHBYTES_20 286eb663201959fb12eff504329080e4c56ae287 OP_EQUALVERIFY OP_CHECKSIG",
        "scriptpubkey_type": "p2pkh",
        "scriptpubkey_address": "14gnf7L2DjBYKFuWb6iftBoWE9hmAoFbcF",
        "value": 433833
      },
      "scriptsig": "4830450221008f619822a97841ffd26eee942d41c1c4704022af2dd42600f006336ce686353a0220659476204210b21d605baab00bef7005ff30e878e911dc99413edb6c1e022acd012102c371793f2e19d1652408efef67704a2e9953a43a9dd54360d56fc93277a5667d",
      "scriptsig_asm": "OP_PUSHBYTES_72 30450221008f619822a97841ffd26eee942d41c1c4704022af2dd42600f006336ce686353a0220659476204210b21d605baab00bef7005ff30e878e911dc99413edb6c1e022acd01 OP_PUSHBYTES_33 02c371793f2e19d1652408efef67704a2e9953a43a9dd54360d56fc93277a5667d",
      "is_coinbase": false,
      "sequence": 4294967295
    }
  ],
  "vout": [
    {
      "scriptpubkey": "76a9141ef7874d338d24ecf6577e6eadeeee6cd579c67188ac",
      "scriptpubkey_asm": "OP_DUP OP_HASH160 OP_PUSHBYTES_20 1ef7874d338d24ecf6577e6eadeeee6cd579c671 OP_EQUALVERIFY OP_CHECKSIG",
      "scriptpubkey_type": "p2pkh",
      "scriptpubkey_address": "13pjoLcRKqhzPCbJgYW77LSFCcuwmHN2qA",
      "value": 387156
    },
    {
      "scriptpubkey": "76a9142e391b6c47778d35586b1f4154cbc6b06dc9840c88ac",
      "scriptpubkey_asm": "OP_DUP OP_HASH160 OP_PUSHBYTES_20 2e391b6c47778d35586b1f4154cbc6b06dc9840c OP_EQUALVERIFY OP_CHECKSIG",
      "scriptpubkey_type": "p2pkh",
      "scriptpubkey_address": "15DQVhQ7PU6VPsTtvwLxfDsTP4P6A3Z5vP",
      "value": 37320
    }
  ],
  "size": 226,
  "weight": 904,
  "fee": 9357,
  "status": {
    "confirmed": true,
    "block_height": 834638,
    "block_hash": "000000000000000000025f742c626208ac87e0b7d15054abb4a19ca2d735a54e",
    "block_time": 1710405325
  },
  "hex": "020000000125c9f7c56ab4b9c358cb159175de542b41c7d38bf862a045fa5da51979e37ffb010000006b4830450221008f619822a97841ffd26eee942d41c1c4704022af2dd42600f006336ce686353a0220659476204210b21d605baab00bef7005ff30e878e911dc99413edb6c1e022acd012102c371793f2e19d1652408efef67704a2e9953a43a9dd54360d56fc93277a5667dffffffff0254e80500000000001976a9141ef7874d338d24ecf6577e6eadeeee6cd579c67188acc8910000000000001976a9142e391b6c47778d35586b1f4154cbc6b06dc9840c88ac00000000"
}