{
  "txid": "4edeafbc7d061d59182c213975a01ce763b62dfbffd8551bfa08cdc07573a68a",
  "version": 2,
  "locktime": 834449,
  "vin": [
    {
      "txid": "0a1f59565b353dfed4baa4ac688f435ad88537dd8cbeb8fa0edfd57e6d33989f",
      "vout": 306,
      "prevout": {
        "scriptpubkey": "76a914a27a07e45329626e028f9a883b7d7965c6ca28c888ac",
        "scriptpubkey_asm": "OP_DUP OP_HASH160 OP_PUSHBYTES_20 a27a07e45329626e028f9a883b7d7965c6ca28c8 OP_EQUALVERIFY OP_CHECKSIG",
        "scriptpubkey_type": "p2pkh",
        "scriptpubkey_address": "1Fp6evmhjjmtLKEWi8BU9eBkz3ufR6Z3pj",
        "value": 1013194
      },
      "scriptsig": "473044022068eac9e2352528b4d234f66f72f3cc7b46bf55ea8ac6d6d601cae618444d775402203949c59d5e0473ae54c919a102699d2df4af271007b0b136a78ae2b3731ed3c701210265921c480c8acd258133dbd91246e94bfa1d1eb7643dcc5672879941866c560b",
      "scriptsig_asm": "OP_PUSHBYTES_71 3044022068eac9e2352528b4d234f66f72f3cc7b46bf55ea8ac6d6d601cae618444d775402203949c59d5e0473ae54c919a102699d2df4af271007b0b136a78ae2b3731ed3c701 OP_PUSHBYTES_33 0265921c480c8acd258133dbd91246e94bfa1d1eb7643dcc5672879941866c560b",
      "is_coinbase": false,
      "sequence": 4294967293
    },
    {
      "txid": "1239909fedac32e0e956223c9c8204e6a33df23d7e2cef126552f6f02bc795e7",
      "vout": 413,
      "prevout": {
        "scriptpubkey": "76a914a27a07e45329626e028f9a883b7d7965c6ca28c888ac",
        "scriptpubkey_asm": "OP_DUP OP_HASH160 OP_PUSHBYTES_20 a27a07e45329626e028f9a883b7d7965c6ca28c8 OP_EQUALVERIFY OP_CHECKSIG",
        "scriptpubkey_type": "p2pkh",
        "scriptpubkey_address": "1Fp6evmhjjmtLKEWi8BU9eBkz3ufR6Z3pj",
        "value": 1039120
      },
      "scriptsig": "4730440220654ea78bb64718ab969a5c0d43d29a4a5b63146ea190d6d273ea3fe8ed59171702201537ebd9a7be4941c77faf705cf4663d18115cee63873bd4632f93ad3ae2470001210265921c480c8acd258133dbd91246e94bfa1d1eb7643dcc5672879941866c560b",
      "scriptsig_asm": "OP_PUSHBYTES_71 30440220654ea78bb64718ab969a5c0d43d29a4a5b63146ea190d6d273ea3fe8ed59171702201537ebd9a7be4941c77faf705cf4663d18115cee63873bd4632f93ad3ae2470001 OP_PUSHBYTES_33 0265921c480c8acd258133dbd91246e94bfa1d1eb7643dcc5672879941866c560b",
      "is_coinbase": false,
      "sequence": 4294967293
    },
    {
      "txid": "229fb8bba090d402f08e166839d2337169383001874a1adea3d8d8e9bc63a7a6",
      "vout": 331,
      "prevout": {
        "scriptpubkey": "76a914a27a07e45329626e028f9a883b7d7965c6ca28c888ac",
        "scriptpubkey_asm": "OP_DUP OP_HASH160 OP_PUSHBYTES_20 a27a07e45329626e028f9a883b7d7965c6ca28c8 OP_EQUALVERIFY OP_CHECKSIG",
        "scriptpubkey_type": "p2pkh",
        "scriptpubkey_address": "1Fp6evmhjjmtLKEWi8BU9eBkz3ufR6Z3pj",
        "value": 1008443
      },
      "scriptsig": "473044022040c5aad497f57124b644e56b9bbb2cfe40110ea4b40bb98f1eab79ae753ec1440220490e5e6cebe6bc4d009e2575dfd7944e235da99e1272e6ebb2a622d111c32a8d01210265921c480c8acd258133dbd91246e94bfa1d1eb7643dcc5672879941866c560b",
      "scriptsig_asm": "OP_PUSHBYTES_71 3044022040c5aad497f57124b644e56b9bbb2cfe40110ea4b40bb98f1eab79ae753ec1440220490e5e6cebe6bc4d009e2575dfd7944e235da99e1272e6ebb2a622d111c32a8d01 OP_PUSHBYTES_33 0265921c480c8acd258133dbd91246e94bfa1d1eb7643dcc5672879941866c560b",
      "is_coinbase": false,
      "sequence": 4294967293
    },
    {
      "txid": "58c42167b2e72a16061c4a8b359b5ecbcdfdd0d56a57701e454293cc22f8a014",
      "vout": 48,
      "prevout": {
        "scriptpubkey": "76a914a27a07e45329626e028f9a883b7d7965c6ca28c888ac",
        "scriptpubkey_asm": "OP_DUP OP_HASH160 OP_PUSHBYTES_20 a27a07e45329626e028f9a883b7d7965c6ca28c8 OP_EQUALVERIFY OP_CHECKSIG",
        "scriptpubkey_type": "p2pkh",
        "scriptpubkey_address": "1Fp6evmhjjmtLKEWi8BU9eBkz3ufR6Z3pj",
        "value": 1051482
      },
      "scriptsig": "47304402202b89338ce3f0573bed98fbbbb79195d3fff597de66146626fdd03c2015762eea02201465a0a01f0340105fce6d780c1cd60bd755922d62702f1f270ed539d12d03b601210265921c480c8acd258133dbd91246e94bfa1d1eb7643dcc5672879941866c560b",
      "scriptsig_asm": "OP_PUSHBYTES_71 304402202b89338ce3f0573bed98fbbbb79195d3fff597de66146626fdd03c2015762eea02201465a0a01f0340105fce6d780c1cd60bd755922d62702f1f270ed539d12d03b601 OP_PUSHBYTES_33 0265921c480c8acd258133dbd91246e94bfa1d1eb7643dcc5672879941866c560b",
      "is_coinbase": false,
      "sequence": 4294967293
    },
    {
      "txid": "69c57ecd363491713fecc0b1a1a036afdb79c642d84686e6baf8f50bf8b1dfe6",
      "vout": 608,
      "prevout": {
        "scriptpubkey": "76a914a27a07e45329626e028f9a883b7d7965c6ca28c888ac",
        "scriptpubkey_asm": "OP_DUP OP_HASH160 OP_PUSHBYTES_20 a27a07e45329626e028f9a883b7d7965c6ca28c8 OP_EQUALVERIFY OP_CHECKSIG",
        "scriptpubkey_type": "p2pkh",
        "scriptpubkey_address": "1Fp6evmhjjmtLKEWi8BU9eBkz3ufR6Z3pj",
        "value": 1064850
      },
      "scriptsig": "47304402205c91f90293f9c25c2bc3c1e7c84df073b9e8c3dfab74c6ca1857fade7ba3dbfb022038c271e23c0b332dc6044cf3cf961077d2c8093464cee0ab2568a7a4a52bb0bb01210265921c480c8acd258133dbd91246e94bfa1d1eb7643dcc5672879941866c560b",
      "scriptsig_asm": "OP_PUSHBYTES_71 304402205c91f90293f9c25c2bc3c1e7c84df073b9e8c3dfab74c6ca1857fade7ba3dbfb022038c271e23c0b332dc6044cf3cf961077d2c8093464cee0ab2568a7a4a52bb0bb01 OP_PUSHBYTES_33 0265921c480c8acd258133dbd91246e94bfa1d1eb7643dcc5672879941866c560b",
      "is_coinbase": false,
      "sequence": 4294967293
    },
    {
      "txid": "6b5deb901a2fa7132e985f13bb7b7e4297cd2d57c6c5184e6656134b8d8e73e0",
      "vout": 1,
      "prevout": {
        "scriptpubkey": "76a914a27a07e45329626e028f9a883b7d7965c6ca28c888ac",
        "scriptpubkey_asm": "OP_DUP OP_HASH160 OP_PUSHBYTES_20 a27a07e45329626e028f9a883b7d7965c6ca28c8 OP_EQUALVERIFY OP_CHECKSIG",
        "scriptpubkey_type": "p2pkh",
        "scriptpubkey_address": "1Fp6evmhjjmtLKEWi8BU9eBkz3ufR6Z3pj",
        "value": 215500
      },
      "scriptsig": "473044022007df529adb93222954188a6b3994fb46c7814121a135c6da13e4c7f00aa1dfe802204ca92b1d5cd6b32b726c2cf03fa1c31eee4666bd6917dad61ad5c4cb176d179801210265921c480c8acd258133dbd91246e94bfa1d1eb7643dcc5672879941866c560b",
      "scriptsig_asm": "OP_PUSHBYTES_71 3044022007df529adb93222954188a6b3994fb46c7814121a135c6da13e4c7f00aa1dfe802204ca92b1d5cd6b32b726c2cf03fa1c31eee4666bd6917dad61ad5c4cb176d179801 OP_PUSHBYTES_33 0265921c480c8acd258133dbd91246e94bfa1d1eb7643dcc5672879941866c560b",
      "is_coinbase": false,
      "sequence": 4294967293
    },
    {
      "txid": "6ef9da332565789e9ed49ca7161c5a4b0eb2eda1a29842a8d1104f455a5d5560",
      "vout": 242,
      "prevout": {
        "scriptpubkey": "76a914a27a07e45329626e028f9a883b7d7965c6ca28c888ac",
        "scriptpubkey_asm": "OP_DUP OP_HASH160 OP_PUSHBYTES_20 a27a07e45329626e028f9a883b7d7965c6ca28c8 OP_EQUALVERIFY OP_CHECKSIG",
        "scriptpubkey_type": "p2pkh",
        "scriptpubkey_address": "1Fp6evmhjjmtLKEWi8BU9eBkz3ufR6Z3pj",
        "value": 1046443
      },
      "scriptsig": "473044022000d9c8a4a03f7c82597ea1b72ba345d969b3c94f94f0ea31de8be8946893a2880220432579d8ebb4a6f81117e27b815e4d795ff0272eb240a922470292b8a63728fa01210265921c480c8acd258133dbd91246e94bfa1d1eb7643dcc5672879941866c560b",
      "scriptsig_asm": "OP_PUSHBYTES_71 3044022000d9c8a4a03f7c82597ea1b72ba345d969b3c94f94f0ea31de8be8946893a2880220432579d8ebb4a6f81117e27b815e4d795ff0272eb240a922470292b8a63728fa01 OP_PUSHBYTES_33 0265921c480c8acd258133dbd91246e94bfa1d1eb7643dcc5672879941866c560b",
      "is_coinbase": false,
      "sequence": 4294967293
    },
    {
      "txid": "714d0a8f2de8c96bc59510e40e122286f06f648a03a5056fab2a7650313931e7",
      "vout": 579,
      "prevout": {
        "scriptpubkey": "76a914a27a07e45329626e028f9a883b7d7965c6ca28c888ac",
        "scriptpubkey_asm": "OP_DUP OP_HASH160 OP_PUSHBYTES_20 a27a07e45329626e028f9a883b7d7965c6ca28c8 OP_EQUALVERIFY OP_CHECKSIG",
        "scriptpubkey_type": "p2pkh",
        "scriptpubkey_address": "1Fp6evmhjjmtLKEWi8BU9eBkz3ufR6Z3pj",
        "value": 1117698
      },
      "scriptsig": "473044022071dde9d37f1750a2d2869a7f0f022c5b4dc4897b186a8b74d0c77541f854afef0220658b75c4e5f408297afbc139712845f0dff2b988b10fdc858d649ffc11cfee4001210265921c480c8acd258133dbd91246e94bfa1d1eb7643dcc5672879941866c560b",
      "scriptsig_asm": "OP_PUSHBYTES_71 3044022071dde9d37f1750a2d2869a7f0f022c5b4dc4897b186a8b74d0c77541f854afef0220658b75c4e5f408297afbc139712845f0dff2b988b10fdc858d649ffc11cfee4001 OP_PUSHBYTES_33 0265921c480c8acd258133dbd91246e94bfa1d1eb7643dcc5672879941866c560b",
      "is_coinbase": false,
      "sequence": 4294967293
    },
    {
      "txid": "97b84fc968156110b3f62a22cddf53cd2178c886adbabe5a58679b230d77d6fd",
      "vout": 259,
      "prevout": {
        "scriptpubkey": "76a914a27a07e45329626e028f9a883b7d7965c6ca28c888ac",
        "scriptpubkey_asm": "OP_DUP OP_HASH160 OP_PUSHBYTES_20 a27a07e45329626e028f9a883b7d7965c6ca28c8 OP_EQUALVERIFY OP_CHECKSIG",
        "scriptpubkey_type": "p2pkh",
        "scriptpubkey_address": "1Fp6evmhjjmtLKEWi8BU9eBkz3ufR6Z3pj",
        "value": 1003625
      },
      "scriptsig": "473044022075be683a0f8b408739a9efbf2960f7aabf1c3a197275db233f9a2babeff2b0c40220642fe0805e15678ab22fd004efb692e5a88dc3b3eeadd6a4d666384aae3dd54601210265921c480c8acd258133dbd91246e94bfa1d1eb7643dcc5672879941866c560b",
      "scriptsig_asm": "OP_PUSHBYTES_71 3044022075be683a0f8b408739a9efbf2960f7aabf1c3a197275db233f9a2babeff2b0c40220642fe0805e15678ab22fd004efb692e5a88dc3b3eeadd6a4d666384aae3dd54601 OP_PUSHBYTES_33 0265921c480c8acd258133dbd91246e94bfa1d1eb7643dcc5672879941866c560b",
      "is_coinbase": false,
      "sequence": 4294967293
    },
    {
      "txid": "a47af0fac93a6f7fc849ba836cf20e20889f629cc1020880c2e4ee58eba944e3",
      "vout": 756,
      "prevout": {
        "scriptpubkey": "76a914a27a07e45329626e028f9a883b7d7965c6ca28c888ac",
        "scriptpubkey_asm": "OP_DUP OP_HASH160 OP_PUSHBYTES_20 a27a07e45329626e028f9a883b7d7965c6ca28c8 OP_EQUALVERIFY OP_CHECKSIG",
        "scriptpubkey_type": "p2pkh",
        "scriptpubkey_address": "1Fp6evmhjjmtLKEWi8BU9eBkz3ufR6Z3pj",
        "value": 1076458
      },
      "scriptsig": "473044022044becb7f7e633f9ad3eba5cf14d6092859e0cf7c97d32f6c417da72110858f5302207f3ca2c5f8963f38192bb4a2901492e1995f4db09a43c452eda7a9965837b76501210265921c480c8acd258133dbd91246e94bfa1d1eb7643dcc5672879941866c560b",
      "scriptsig_asm": "OP_PUSHBYTES_71 3044022044becb7f7e633f9ad3eba5cf14d6092859e0cf7c97d32f6c417da72110858f5302207f3ca2c5f8963f38192bb4a2901492e1995f4db09a43c452eda7a9965837b76501 OP_PUSHBYTES_33 0265921c480c8acd258133dbd91246e94bfa1d1eb7643dcc5672879941866c560b",
      "is_coinbase": false,
      "sequence": 4294967293
    },
    {
      "txid": "b2aed5fe5ed3c4fc5987f16a7d9e59d9e0b6072871494773f6415005f767744a",
      "vout": 1078,
      "prevout": {
        "scriptpubkey": "76a914a27a07e45329626e028f9a883b7d7965c6ca28c888ac",
        "scriptpubkey_asm": "OP_DUP OP_HASH160 OP_PUSHBYTES_20 a27a07e45329626e028f9a883b7d7965c6ca28c8 OP_EQUALVERIFY OP_CHECKSIG",
        "scriptpubkey_type": "p2pkh",
        "scriptpubkey_address": "1Fp6evmhjjmtLKEWi8BU9eBkz3ufR6Z3pj",
        "value": 1000570
      },
      "scriptsig": "46304302202e482082a67acb178cdf0d13f0d0640c5a696e2be58f04e47249b75a35755185021f6137f94ecfe7369d598f128c5acab8fde7b2742da7b13f692fd6d74c65280601210265921c480c8acd258133dbd91246e94bfa1d1eb7643dcc5672879941866c560b",
      "scriptsig_asm": "OP_PUSHBYTES_70 304302202e482082a67acb178cdf0d13f0d0640c5a696e2be58f04e47249b75a35755185021f6137f94ecfe7369d598f128c5acab8fde7b2742da7b13f692fd6d74c65280601 OP_PUSHBYTES_33 0265921c480c8acd258133dbd91246e94bfa1d1eb7643dcc5672879941866c560b",
      "is_coinbase": false,
      "sequence": 4294967293
    },
    {
      "txid": "c34cce79aa0b411ed621e6b33508ecc2d2aa84b117558f58faace2a34dceef7c",
      "vout": 733,
      "prevout": {
        "scriptpubkey": "76a914a27a07e45329626e028f9a883b7d7965c6ca28c888ac",
        "scriptpubkey_asm": "OP_DUP OP_HASH160 OP_PUSHBYTES_20 a27a07e45329626e028f9a883b7d7965c6ca28c8 OP_EQUALVERIFY OP_CHECKSIG",
        "scriptpubkey_type": "p2pkh",
        "scriptpubkey_address": "1Fp6evmhjjmtLKEWi8BU9eBkz3ufR6Z3pj",
        "value": 1135499
      },
      "scriptsig": "473044022078f34d2caeb1bde61895f909a24636405c1b00872e1c04c8be87afc39f4b59fa0220427c80f39de012eda2fcceee57b69b699655a2e3aa0c8859e1ff3adea9e87c6f01210265921c480c8acd258133dbd91246e94bfa1d1eb7643dcc5672879941866c560b",
      "scriptsig_asm": "OP_PUSHBYTES_71 3044022078f34d2caeb1bde61895f909a24636405c1b00872e1c04c8be87afc39f4b59fa0220427c80f39de012eda2fcceee57b69b699655a2e3aa0c8859e1ff3adea9e87c6f01 OP_PUSHBYTES_33 0265921c480c8acd258133dbd91246e94bfa1d1eb7643dcc5672879941866c560b",
      "is_coinbase": false,
      "sequence": 4294967293
    },
    {
      "txid": "d23e0a104a0e0be762d0250f44c4cbef1d95882fa079e0cd91f3e565e0f1b298",
      "vout": 552,
      "prevout": {
        "scriptpubkey": "76a914a27a07e45329626e028f9a883b7d7965c6ca28c888ac",
        "scriptpubkey_asm": "OP_DUP OP_HASH160 OP_PUSHBYTES_20 a27a07e45329626e028f9a883b7d7965c6ca28c8 OP_EQUALVERIFY OP_CHECKSIG",
        "scriptpubkey_type": "p2pkh",
        "scriptpubkey_address": "1Fp6evmhjjmtLKEWi8BU9eBkz3ufR6Z3pj",
        "value": 1024721
      },
      "scriptsig": "473044022012177def1657bd9e484a860dea5abf12d03136326e8e8f4cfa3606e8c3c8515702200d4e7d06b812c9d524781fcf671283186542d3aa0a5eb3ae103459f392f786c001210265921c480c8acd258133dbd91246e94bfa1d1eb7643dcc5672879941866c560b",
      "scriptsig_asm": "OP_PUSHBYTES_71 3044022012177def1657bd9e484a860dea5abf12d03136326e8e8f4cfa3606e8c3c8515702200d4e7d06b812c9d524781fcf671283186542d3aa0a5eb3ae103459f392f786c001 OP_PUSHBYTES_33 0265921c480c8acd258133dbd91246e94bfa1d1eb7643dcc5672879941866c560b",
      "is_coinbase": false,
      "sequence": 4294967293
    },
    {
      "txid": "d8ab1493036c4158cea3573ffcb818be1a31b6f3e83f064d8b36cfff9c3e38fd",
      "vout": 1302,
      "prevout": {
        "scriptpubkey": "76a914a27a07e45329626e028f9a883b7d7965c6ca28c888ac",
        "scriptpubkey_asm": "OP_DUP OP_HASH160 OP_PUSHBYTES_20 a27a07e45329626e028f9a883b7d7965c6ca28c8 OP_EQUALVERIFY OP_CHECKSIG",
        "scriptpubkey_type": "p2pkh",
        "scriptpubkey_address": "1Fp6evmhjjmtLKEWi8BU9eBkz3ufR6Z3pj",
        "value": 1074658
      },
      "scriptsig": "47304402204a20d77c6f2f6780aa9721e56ba04aefc2548166482e9f1b943f7d40ded3136202203f67dd5eb577969b929e8765c593e6e601f602626d36267309c46ee1fd35bdf701210265921c480c8acd258133dbd91246e94bfa1d1eb7643dcc5672879941866c560b",
      "scriptsig_asm": "OP_PUSHBYTES_71 304402204a20d77c6f2f6780aa9721e56ba04aefc2548166482e9f1b943f7d40ded3136202203f67dd5eb577969b929e8765c593e6e601f602626d36267309c46ee1fd35bdf701 OP_PUSHBYTES_33 0265921c480c8acd258133dbd91246e94bfa1d1eb7643dcc5672879941866c560b",
      "is_coinbase": false,
      "sequence": 4294967293
    },
    {
      "txid": "dca3f9e8028c0363c4e3c1c9b89e4954cd6fbd5975b86d4ee8ec97f497136277",
      "vout": 1368,
      "prevout": {
        "scriptpubkey": "76a914a27a07e45329626e028f9a883b7d7965c6ca28c888ac",
        "scriptpubkey_asm": "OP_DUP OP_HASH160 OP_PUSHBYTES_20 a27a07e45329626e028f9a883b7d7965c6ca28c8 OP_EQUALVERIFY OP_CHECKSIG",
        "scriptpubkey_type": "p2pkh",
        "scriptpubkey_address": "1Fp6evmhjjmtLKEWi8BU9eBkz3ufR6Z3pj",
        "value": 1090689
      },
      "scriptsig": "47304402206c9c8eacb3764e138b26e449cc5549f989d6284831e7c5a0a141249f17ecf35302206466d88d68428ce143e0a692e51deb05d024168c5990b70044e0805cc78e64a201210265921c480c8acd258133dbd91246e94bfa1d1eb7643dcc5672879941866c560b",
      "scriptsig_asm": "OP_PUSHBYTES_71 304402206c9c8eacb3764e138b26e449cc5549f989d6284831e7c5a0a141249f17ecf35302206466d88d68428ce143e0a692e51deb05d024168c5990b70044e0805cc78e64a201 OP_PUSHBYTES_33 0265921c480c8acd258133dbd91246e94bfa1d1eb7643dcc5672879941866c560b",
      "is_coinbase": false,
      "sequence": 4294967293
    }
  ],
  "vout": [
    {
      "scriptpubkey": "76a914a27a07e45329626e028f9a883b7d7965c6ca28c888ac",
      "scriptpubkey_asm": "OP_DUP OP_HASH160 OP_PUSHBYTES_20 a27a07e45329626e028f9a883b7d7965c6ca28c8 OP_EQUALVERIFY OP_CHECKSIG",
      "scriptpubkey_type": "p2pkh",
      "scriptpubkey_address": "1Fp6evmhjjmtLKEWi8BU9eBkz3ufR6Z3pj",
      "value": 37700
    },
    {
      "scriptpubkey": "001453a89f4630399ec4cd58ce2b9da1dce12a2c6e3b",
      "scriptpubkey_asm": "OP_0 OP_PUSHBYTES_20 53a89f4630399ec4cd58ce2b9da1dce12a2c6e3b",
      "scriptpubkey_type": "v0_p2wpkh",
      "scriptpubkey_address": "bc1q2w5f733s8x0vfn2cec4emgwuuy4zcm3mcg59ts",
      "value": 14900000
    }
  ],
  "size": 2279,
  "weight": 9116,
  "fee": 25250,
  "status": {
    "confirmed": true,
    "block_height": 834460,
    "block_hash": "00000000000000000000484a79b643b2524bbce82e5d8a442013fa5b8905ed98",
    "block_time": 1710307468
  },
  "hex": "020000000f9f98336d7ed5df0efab8be8cdd3785d85a438f68aca4bad4fe3d355b56591f0a320100006a473044022068eac9e2352528b4d234f66f72f3cc7b46bf55ea8ac6d6d601cae618444d775402203949c59d5e0473ae54c919a102699d2df4af271007b0b136a78ae2b3731ed3c701210265921c480c8acd258133dbd91246e94bfa1d1eb7643dcc5672879941866c560bfdffffffe795c72bf0f6526512ef2c7e3df23da3e604829c3c2256e9e032aced9f9039129d0100006a4730440220654ea78bb64718ab969a5c0d43d29a4a5b63146ea190d6d273ea3fe8ed59171702201537ebd9a7be4941c77faf705cf4663d18115cee63873bd4632f93ad3ae2470001210265921c480c8acd258133dbd91246e94bfa1d1eb7643dcc5672879941866c560bfdffffffa6a763bce9d8d8a3de1a4a87013038697133d23968168ef002d490a0bbb89f224b0100006a473044022040c5aad497f57124b644e56b9bbb2cfe40110ea4b40bb98f1eab79ae753ec1440220490e5e6cebe6bc4d009e2575dfd7944e235da99e1272e6ebb2a622d111c32a8d01210265921c480c8acd258133dbd91246e94bfa1d1eb7643dcc5672879941866c560bfdffffff14a0f822cc9342451e70576ad5d0fdcdcb5e9b358b4a1c06162ae7b26721c458300000006a47304402202b89338ce3f0573bed98fbbbb79195d3fff597de66146626fdd03c2015762eea02201465a0a01f0340105fce6d780c1cd60bd755922d62702f1f270ed539d12d03b601210265921c480c8acd258133dbd91246e94bfa1d1eb7643dcc5672879941866c560bfdffffffe6dfb1f80bf5f8bae68646d842c679dbaf36a0a1b1c0ec3f71913436cd7ec569600200006a47304402205c91f90293f9c25c2bc3c1e7c84df073b9e8c3dfab74c6ca1857fade7ba3dbfb022038c271e23c0b332dc6044cf3cf961077d2c8093464cee0ab2568a7a4a52bb0bb01210265921c480c8acd258133dbd91246e94bfa1d1eb7643dcc5672879941866c560bfdffffffe0738e8d4b1356664e18c5c6572dcd97427e7bbb135f982e13a72f1a90eb5d6b010000006a473044022007df529adb93222954188a6b3994fb46c7814121a135c6da13e4c7f00aa1dfe802204ca92b1d5cd6b32b726c2cf03fa1c31eee4666bd6917dad61ad5c4cb176d179801210265921c480c8acd258133dbd91246e94bfa1d1eb7643dcc5672879941866c560bfdffffff60555d5a454f10d1a84298a2a1edb20e4b5a1c16a79cd49e9e78652533daf96ef20000006a473044022000d9c8a4a03f7c82597ea1b72ba345d969b3c94f94f0ea31de8be8946893a2880220432579d8ebb4a6f81117e27b815e4d795ff0272eb240a922470292b8a63728fa01210265921c480c8acd258133dbd91246e94bfa1d1eb7643dcc5672879941866c560bfdffffffe731393150762aab6f05a5038a646ff08622120ee41095c56bc9e82d8f0a4d71430200006a473044022071dde9d37f1750a2d2869a7f0f022c5b4dc4897b186a8b74d0c77541f854afef0220658b75c4e5f408297afbc139712845f0dff2b988b10fdc858d649ffc11cfee4001210265921c480c8acd258133dbd91246e94bfa1d1eb7643dcc5672879941866c560bfdfffffffdd6770d239b67585abebaad86c87821cd53dfcd222af6b310611568c94fb897030100006a473044022075be683a0f8b408739a9efbf2960f7aabf1c3a197275db233f9a2babeff2b0c40220642fe0805e15678ab22fd004efb692e5a88dc3b3eeadd6a4d666384aae3dd54601210265921c480c8acd258133dbd91246e94bfa1d1eb7643dcc5672879941866c560bfdffffffe344a9eb58eee4c2800802c19c629f88200ef26c83ba49c87f6f3ac9faf07aa4f40200006a473044022044becb7f7e633f9ad3eba5cf14d6092859e0cf7c97d32f6c417da72110858f5302207f3ca2c5f8963f38192bb4a2901492e1995f4db09a43c452eda7a9965837b76501210265921c480c8acd258133dbd91246e94bfa1d1eb7643dcc5672879941866c560bfdffffff4a7467f7055041f6734749712807b6e0d9599e7d6af18759fcc4d35efed5aeb2360400006946304302202e482082a67acb178cdf0d13f0d0640c5a696e2be58f04e47249b75a35755185021f6137f94ecfe7369d598f128c5acab8fde7b2742da7b13f692fd6d74c65280601210265921c480c8acd258133dbd91246e94bfa1d1eb7643dcc5672879941866c560bfdffffff7cefce4da3e2acfa588f5517b184aad2c2ec0835b3e621d61e410baa79ce4cc3dd0200006a473044022078f34d2caeb1bde61895f909a24636405c1b00872e1c04c8be87afc39f4b59fa0220427c80f39de012eda2fcceee57b69b699655a2e3aa0c8859e1ff3adea9e87c6f01210265921c480c8acd258133dbd91246e94bfa1d1eb7643dcc5672879941866c560bfdffffff98b2f1e065e5f391cde079a02f88951defcbc4440f25d062e70b0e4a100a3ed2280200006a473044022012177def1657bd9e484a860dea5abf12d03136326e8e8f4cfa3606e8c3c8515702200d4e7d06b812c9d524781fcf671283186542d3aa0a5eb3ae103459f392f786c001210265921c480c8acd258133dbd91246e94bfa1d1eb7643dcc5672879941866c560bfdfffffffd383e9cffcf368b4d063fe8f3b6311abe18b8fc3f57a3ce58416c039314abd8160500006a47304402204a20d77c6f2f6780aa9721e56ba04aefc2548166482e9f1b943f7d40ded3136202203f67dd5eb577969b929e8765c593e6e601f602626d36267309c46ee1fd35bdf701210265921c480c8acd258133dbd91246e94bfa1d1eb7643dcc5672879941866c560bfdffffff77621397f497ece84e6db87559bd6fcd54499eb8c9c1e3c463038c02e8f9a3dc580500006a47304402206c9c8eacb3764e138b26e449cc5549f989d6284831e7c5a0a141249f17ecf35302206466d88d68428ce143e0a692e51deb05d024168c5990b70044e0805cc78e64a201210265921c480c8acd258133dbd91246e94bfa1d1eb7643dcc5672879941866c560bfdffffff0244930000000000001976a914a27a07e45329626e028f9a883b7d7965c6ca28c888ac205be3000000000016001453a89f4630399ec4cd58ce2b9da1dce12a2c6e3b91bb0c00"
}