{
  "txid": "4ef1b6ef735dcb41721edcebe5645d4c926af523489692b7b261310a677ea04c",
  "version": 2,
  "locktime": 0,
  "vin": [
    {
      "txid": "0297933275e9b87a592b5fe50eac2574def18b5ac071aa88b863986e7db5e3d6",
      "vout": 1,
      "prevout": {
        "scriptpubkey": "512083305d2bb7997f48140bcef86b51f7268528afe627eb1f707512921117dd62bd",
        "scriptpubkey_asm": "OP_PUSHNUM_1 OP_PUSHBYTES_32 83305d2bb7997f48140bcef86b51f7268528afe627eb1f707512921117dd62bd",
        "scriptpubkey_type": "v1_p2tr",
        "scriptpubkey_address": "bc1psvc962ahn9l5s9qtemuxk50hy6zj3tlxyl437ur4z2fpz97av27shkf2ue",
        "value": 3186
      },
      "scriptsig": "",
      "scriptsig_asm": "",
      "witness": [
        "0a0c6ad0f48a1eb3606d15cb8e91e9263b6b3b774bf305f65457da892daa36bafb4df9e38075642645904e53d07a51f8dad03dc869d9f98bd2a906cfc96ad317",
        "2085a83155bb209135ce54eba635e4182654d9cbe2fb21e3c3493228353c061f35ac0063036f726401011e6170706c69636174696f6e2f6a736f6e3b636861727365743d7574662d38004cbf7b2270223a22706f772d3230222c226f70223a226d696e74222c227469636b223a2250455045222c22616d74223a2231303030222c22736f6c7574696f6e223a22504550453a6263317171633839726a7563797a776c77786d7761646c7763797139353668726e726b6a6833637361723a303030303030303030303030303030303030303139393431613561653132383937363539383134343239323533333030353762306461393666336465613163353a3530363235313735333439227d68",
        "c0ebc23c5cb62efa16bafbb201dcb9689a89d3be5df33e83929d6fd8751a90bb42"
      ],
      "is_coinbase": false,
      "sequence": 4294967295
    }
  ],
  "vout": [
    {
      "scriptpubkey": "0014060e51cb98209df71b6eeb7eec1005a6ae398ed2",
      "scriptpubkey_asm": "OP_0 OP_PUSHBYTES_20 060e51cb98209df71b6eeb7eec1005a6ae398ed2",
      "scriptpubkey_type": "v0_p2wpkh",
      "scriptpubkey_address": "bc1qqc89rjucyzwlwxmwadlwcyq956hrnrkjh3csar",
      "value": 546
    }
  ],
  "size": 455,
  "weight": 701,
  "fee": 2640,
  "status": {
    "confirmed": true,
    "block_height": 834460,
    "block_hash": "00000000000000000000484a79b643b2524bbce82e5d8a442013fa5b8905ed98",
    "block_time": 1710307468
  },
  "hex": "02000000000101d6e3b57d6e9863b888aa71c05a8bf1de7425ac0ee55f2b597ab8e975329397020100000000ffffffff012202000000000000160014060e51cb98209df71b6eeb7eec1005a6ae398ed203400a0c6ad0f48a1eb3606d15cb8e91e9263b6b3b774bf305f65457da892daa36bafb4df9e38075642645904e53d07a51f8dad03dc869d9f98bd2a906cfc96ad317fd0c012085a83155bb209135ce54eba635e4182654d9cbe2fb21e3c3493228353c061f35ac0063036f726401011e6170706c69636174696f6e2f6a736f6e3b636861727365743d7574662d38004cbf7b2270223a22706f772d3230222c226f70223a226d696e74222c227469636b223a2250455045222c22616d74223a2231303030222c22736f6c7574696f6e223a22504550453a6263317171633839726a7563797a776c77786d7761646c7763797139353668726e726b6a6833637361723a303030303030303030303030303030303030303139393431613561653132383937363539383134343239323533333030353762306461393666336465613163353a3530363235313735333439227d6821c0ebc23c5cb62efa16bafbb201dcb9689a89d3be5df33e83929d6fd8751a90bb4200000000"
}