{
  "txid": "4f061d9aebcfa8df098ed2ea7060eff01aae92099cd93b4ee49a0026fef35952",
  "version": 2,
  "locktime": 0,
  "vin": [
    {
      "txid": "15b4d1a4f893d8791ca40f5395a48129635ac5dce7772dbb697944990a1ec126",
      "vout": 41,
      "prevout": {
        "scriptpubkey": "a914b3d63941b9f726aca376cd2fdaef53227bc6a5bc87",
        "scriptpubkey_asm": "OP_HASH160 OP_PUSHBYTES_20 b3d63941b9f726aca376cd2fdaef53227bc6a5bc OP_EQUAL",
        "scriptpubkey_type": "p2sh",
        "scriptpubkey_address": "3J5uWQHBrAbN2kP71bTSoV64bBSqbisupa",
        "value": 683000
      },
      "scriptsig": "16001458df6ac68e0438a438c3c47dc3b9babd5393afa7",
      "scriptsig_asm": "OP_PUSHBYTES_22 001458df6ac68e0438a438c3c47dc3b9babd5393afa7",
      "witness": [
        "3044022062b4a44b6238c9ded8c1dd1aa81ce6cf724f96e98260e534dc9c519e90dd407102201494ffe8c993e460dad8b10a97ffe301371dcc9705b5e844c2411912715786cd01",
        "0395084ecbd5ad3bfc72045d8f70c412910f8bd60da666bdee79e077db70000825"
      ],
      "is_coinbase": false,
      "sequence": 4294967293,
      "inner_redeemscript_asm": "OP_0 OP_PUSHBYTES_20 58df6ac68e0438a438c3c47dc3b9babd5393afa7"
    }
  ],
  "vout": [
    {
      "scriptpubkey": "76a9141e3396a2bd7a50618715482dc3db90000b1a556e88ac",
      "scriptpubkey_asm": "OP_DUP OP_HASH160 OP_PUSHBYTES_20 1e3396a2bd7a50618715482dc3db90000b1a556e OP_EQUALVERIFY OP_CHECKSIG",
      "scriptpubkey_type": "p2pkh",
      "scriptpubkey_address": "13kh5BWdqK23T8D3v7v5iZM4bggq44dPiu",
      "value": 372529
    },
    {
      "scriptpubkey": "a914a6886ece6774ccfe6d82ea9b6a25b7095171a51087",
      "scriptpubkey_asm": "OP_HASH160 OP_PUSHBYTES_20 a6886ece6774ccfe6d82ea9b6a25b7095171a510 OP_EQUAL",
      "scriptpubkey_type": "p2sh",
      "scriptpubkey_address": "3GsZXuaRWeSaD6V2cfEsmwmpzJ4dwmT9jV",
      "value": 307326
    }
  ],
  "size": 249,
  "weight": 669,
  "fee": 3145,
  "status": {
    "confirmed": true,
    "block_height": 834638,
    "block_hash": "000000000000000000025f742c626208ac87e0b7d15054abb4a19ca2d735a54e",
    "block_time": 1710405325
  },
  "hex": "0200000000010126c11e0a99447969bb2d77e7dcc55a632981a495530fa41c79d893f8a4d1b415290000001716001458df6ac68e0438a438c3c47dc3b9babd5393afa7fdffffff0231af0500000000001976a9141e3396a2bd7a50618715482dc3db90000b1a556e88ac7eb004000000000017a914a6886ece6774ccfe6d82ea9b6a25b7095171a5108702473044022062b4a44b6238c9ded8c1dd1aa81ce6cf724f96e98260e534dc9c519e90dd407102201494ffe8c993e460dad8b10a97ffe301371dcc9705b5e844c2411912715786cd01210395084ecbd5ad3bfc72045d8f70c412910f8bd60da666bdee79e077db7000082500000000"
}