{
  "txid": "4f188d14e5c057b2b671ab66ada56b00b58993f84028955c3c1c05d64e27c44b",
  "version": 2,
  "locktime": 0,
  "vin": [
    {
      "txid": "8486ecb4df0880316dd6e82b3971b4df187aff23765bc3a47f8d78bb53aa273c",
      "vout": 115,
      "prevout": {
        "scriptpubkey": "5120f0504cfd2f07ab2b6a0927a7291a12a2fd367a5e70e61f65564d484268207f60",
        "scriptpubkey_asm": "OP_PUSHNUM_1 OP_PUSHBYTES_32 f0504cfd2f07ab2b6a0927a7291a12a2fd367a5e70e61f65564d484268207f60",
        "scriptpubkey_type": "v1_p2tr",
        "scriptpubkey_address": "bc1p7pgyelf0q74jk6sfy7njjxsj5t7nv7j7wrnp7e2kf4yyy6pq0asqdjx4vr",
        "value": 2575
      },
      "scriptsig": "",
      "scriptsig_asm": "",
      "witness": [
        "15cea65add4683c62119d1082a67343aff201fb06ddb2b2dd8e03d4d744fc4606005011e8795de80e2b9c9aa2e133e8fc1179293a786f7220fbe927ef4b51ce9",
        "207cc9230c16c89f44fe27a67bc30562a22aaea9bfed9e9bdd13f4b4da8134c5abac0063036f726401010a746578742f706c61696e00367b2270223a226272632d3230222c226f70223a226d696e74222c227469636b223a2261616161222c22616d74223a223130303030227d68",
        "c07cc9230c16c89f44fe27a67bc30562a22aaea9bfed9e9bdd13f4b4da8134c5ab"
      ],
      "is_coinbase": false,
      "sequence": 4261412863
    }
  ],
  "vout": [
    {
      "scriptpubkey": "0014ddd7ef12ea6f78edcc1e8e7afa12c01ab59f3339",
      "scriptpubkey_asm": "OP_0 OP_PUSHBYTES_20 ddd7ef12ea6f78edcc1e8e7afa12c01ab59f3339",
      "scriptpubkey_type": "v0_p2wpkh",
      "scriptpubkey_address": "bc1qmht77yh2dauwmnq73ea05ykqr26e7veea8spz6",
      "value": 546
    }
  ],
  "size": 295,
  "weight": 541,
  "fee": 2029,
  "status": {
    "confirmed": true,
    "block_height": 834460,
    "block_hash": "00000000000000000000484a79b643b2524bbce82e5d8a442013fa5b8905ed98",
    "block_time": 1710307468
  },
  "hex": "020000000001013c27aa53bb788d7fa4c35b7623ff7a18dfb471392be8d66d318008dfb4ec86847300000000fffffffd012202000000000000160014ddd7ef12ea6f78edcc1e8e7afa12c01ab59f3339034015cea65add4683c62119d1082a67343aff201fb06ddb2b2dd8e03d4d744fc4606005011e8795de80e2b9c9aa2e133e8fc1179293a786f7220fbe927ef4b51ce96e207cc9230c16c89f44fe27a67bc30562a22aaea9bfed9e9bdd13f4b4da8134c5abac0063036f726401010a746578742f706c61696e00367b2270223a226272632d3230222c226f70223a226d696e74222c227469636b223a2261616161222c22616d74223a223130303030227d6821c07cc9230c16c89f44fe27a67bc30562a22aaea9bfed9e9bdd13f4b4da8134c5ab00000000"
}