{
  "txid": "4f30834329f7edad2f63824893b0970e12707b6b0e0526532ad86bcf96695ecd",
  "version": 1,
  "locktime": 0,
  "vin": [
    {
      "txid": "e343dc4bc128e72dc6300c467a6ec37bfc4c8c59dbcc90d90a609fab2ddb082d",
      "vout": 0,
      "prevout": {
        "scriptpubkey": "001438dce15fa7735a14075e255a942974f1e274db06",
        "scriptpubkey_asm": "OP_0 OP_PUSHBYTES_20 38dce15fa7735a14075e255a942974f1e274db06",
        "scriptpubkey_type": "v0_p2wpkh",
        "scriptpubkey_address": "bc1q8rwwzha8wddpgp67y4dfg2t57838fkcxyqdwy7",
        "value": 4092
      },
      "scriptsig": "",
      "scriptsig_asm": "",
      "witness": [
        "304402201c91da3c6363ae4ae824fac90bcc5044e17a619e09eddcfe4fe3b3b547c4da7f02206ef0112cdd3e1516fa4ec285b1343c151a3337622da1d5c5da272bedeb25660501",
        "03610ec7abcea7ca2b42974cebb42c24ed1943493e94f5b7bc6d8352e308fbf268"
      ],
      "is_coinbase": false,
      "sequence": 4294967295
    }
  ],
  "vout": [
    {
      "scriptpubkey": "0014a171823325dbad4dbdc558b29f1778eedff066de",
      "scriptpubkey_asm": "OP_0 OP_PUSHBYTES_20 a171823325dbad4dbdc558b29f1778eedff066de",
      "scriptpubkey_type": "v0_p2wpkh",
      "scriptpubkey_address": "bc1q59ccyve9mwk5m0w9tzef79mcam0lqek775sr3w",
      "value": 1232
    }
  ],
  "size": 191,
  "weight": 437,
  "fee": 2860,
  "status": {
    "confirmed": true,
    "block_height": 834638,
    "block_hash": "000000000000000000025f742c626208ac87e0b7d15054abb4a19ca2d735a54e",
    "block_time": 1710405325
  },
  "hex": "010000000001012d08db2dab9f600ad990ccdb598c4cfc7bc36e7a460c30c62de728c14bdc43e30000000000ffffffff01d004000000000000160014a171823325dbad4dbdc558b29f1778eedff066de0247304402201c91da3c6363ae4ae824fac90bcc5044e17a619e09eddcfe4fe3b3b547c4da7f02206ef0112cdd3e1516fa4ec285b1343c151a3337622da1d5c5da272bedeb256605012103610ec7abcea7ca2b42974cebb42c24ed1943493e94f5b7bc6d8352e308fbf26800000000"
}