{
  "txid": "4f3836c12fd1c9fd8d4522b0916dde72494b89cd0908dd4d91bdebecd98c1be2",
  "version": 2,
  "locktime": 0,
  "vin": [
    {
      "txid": "cefaf150afddb8f5a8783f252dfeaeda8753d86a81df0279404512348571f544",
      "vout": 2,
      "prevout": {
        "scriptpubkey": "51209a73204aa6636c0ce234e97fbdab17a4c96daf041142d2e74262a9baf94e6cad",
        "scriptpubkey_asm": "OP_PUSHNUM_1 OP_PUSHBYTES_32 9a73204aa6636c0ce234e97fbdab17a4c96daf041142d2e74262a9baf94e6cad",
        "scriptpubkey_type": "v1_p2tr",
        "scriptpubkey_address": "bc1pnfejqj4xvdkqec35a9lmm2ch5nykmtcyz9pd9e6zv25m472wdjksvkm2sq",
        "value": 780990
      },
      "scriptsig": "",
      "scriptsig_asm": "",
      "witness": [
        "f8a90e08af16739adad2aad0bb983c766c3c6cd3bc5eb5e15274a02b3c40c34564f6cd599d95d19d984c0fcb2d54aeca6d9acf6380ac4e77d919cbd3d89568cb"
      ],
      "is_coinbase": false,
      "sequence": 4294967293
    }
  ],
  "vout": [
    {
      "scriptpubkey": "512095cdc92066ba85b1cfc0e60f08ce06d12a27b43036cf5fc233832519f2b9884d",
      "scriptpubkey_asm": "OP_PUSHNUM_1 OP_PUSHBYTES_32 95cdc92066ba85b1cfc0e60f08ce06d12a27b43036cf5fc233832519f2b9884d",
      "scriptpubkey_type": "v1_p2tr",
      "scriptpubkey_address": "bc1pjhxujgrxh2zmrn7quc8s3nsx6y4z0dpsxm84ls3nsvj3nu4e3pxscv9d6s",
      "value": 2856
    },
    {
      "scriptpubkey": "51209a73204aa6636c0ce234e97fbdab17a4c96daf041142d2e74262a9baf94e6cad",
      "scriptpubkey_asm": "OP_PUSHNUM_1 OP_PUSHBYTES_32 9a73204aa6636c0ce234e97fbdab17a4c96daf041142d2e74262a9baf94e6cad",
      "scriptpubkey_type": "v1_p2tr",
      "scriptpubkey_address": "bc1pnfejqj4xvdkqec35a9lmm2ch5nykmtcyz9pd9e6zv25m472wdjksvkm2sq",
      "value": 775824
    }
  ],
  "size": 205,
  "weight": 616,
  "fee": 2310,
  "status": {
    "confirmed": true,
    "block_height": 834638,
    "block_hash": "000000000000000000025f742c626208ac87e0b7d15054abb4a19ca2d735a54e",
    "block_time": 1710405325
  },
  "hex": "0200000000010144f57185341245407902df816ad85387daaefe2d253f78a8f5b8ddaf50f1face0200000000fdffffff02280b00000000000022512095cdc92066ba85b1cfc0e60f08ce06d12a27b43036cf5fc233832519f2b9884d90d60b00000000002251209a73204aa6636c0ce234e97fbdab17a4c96daf041142d2e74262a9baf94e6cad0140f8a90e08af16739adad2aad0bb983c766c3c6cd3bc5eb5e15274a02b3c40c34564f6cd599d95d19d984c0fcb2d54aeca6d9acf6380ac4e77d919cbd3d89568cb00000000"
}