{
  "txid": "4f58eb15c3ff3da11f074bb7dda41a4faf9fbf03b3ab5ac96b88b880be5b6d2f",
  "version": 2,
  "locktime": 0,
  "vin": [
    {
      "txid": "acc3ba00869acb582a3f2904ce3a11dd3779350ce234063fc7d0959246213364",
      "vout": 57,
      "prevout": {
        "scriptpubkey": "51201f401d92e437c7ee3a7b8ff5d3900b7ffeb1fa71ce5b018f33d331e003c9bca7",
        "scriptpubkey_asm": "OP_PUSHNUM_1 OP_PUSHBYTES_32 1f401d92e437c7ee3a7b8ff5d3900b7ffeb1fa71ce5b018f33d331e003c9bca7",
        "scriptpubkey_type": "v1_p2tr",
        "scriptpubkey_address": "bc1praqpmyhyxlr7uwnm3l6a8yqt0lltr7n3eedsrren6vc7qq7fhjns34vsmm",
        "value": 1806
      },
      "scriptsig": "",
      "scriptsig_asm": "",
      "witness": [
        "2daad49d9a715a4f50a83d5ccb383121d5a66005709da994c8ff7aeeb009c4e87651a110b88e1312173595fb1e9deda378afc5d6ae2ae743b9fd23c09a0c940b",
        "20abd6e5054ebc18e03721c526a4179be87446c963b03ec9d4a7b28b38a984373fac0063036f726401010a746578742f706c61696e00357b2270223a226272632d3230222c226f70223a226d696e74222c227469636b223a22646f6765222c22616d74223a2234323030227d68",
        "c0abd6e5054ebc18e03721c526a4179be87446c963b03ec9d4a7b28b38a984373f"
      ],
      "is_coinbase": false,
      "sequence": 4261412863
    }
  ],
  "vout": [
    {
      "scriptpubkey": "00147a665de7a370f4c9b372ab1fae587500a5bcbdb4",
      "scriptpubkey_asm": "OP_0 OP_PUSHBYTES_20 7a665de7a370f4c9b372ab1fae587500a5bcbdb4",
      "scriptpubkey_type": "v0_p2wpkh",
      "scriptpubkey_address": "bc1q0fn9mearwr6vnvmj4v06ukr4qzjme0d565dzcx",
      "value": 294
    }
  ],
  "size": 294,
  "weight": 540,
  "fee": 1512,
  "status": {
    "confirmed": true,
    "block_height": 834460,
    "block_hash": "00000000000000000000484a79b643b2524bbce82e5d8a442013fa5b8905ed98",
    "block_time": 1710307468
  },
  "hex": "02000000000101643321469295d0c73f0634e20c357937dd113ace04293f2a58cb9a8600bac3ac3900000000fffffffd0126010000000000001600147a665de7a370f4c9b372ab1fae587500a5bcbdb403402daad49d9a715a4f50a83d5ccb383121d5a66005709da994c8ff7aeeb009c4e87651a110b88e1312173595fb1e9deda378afc5d6ae2ae743b9fd23c09a0c940b6d20abd6e5054ebc18e03721c526a4179be87446c963b03ec9d4a7b28b38a984373fac0063036f726401010a746578742f706c61696e00357b2270223a226272632d3230222c226f70223a226d696e74222c227469636b223a22646f6765222c22616d74223a2234323030227d6821c0abd6e5054ebc18e03721c526a4179be87446c963b03ec9d4a7b28b38a984373f00000000"
}