{
  "txid": "4f6478da3089556099aacc61f5e41cc7b73af9c15b25ae0ed797c1ec31f2412b",
  "version": 2,
  "locktime": 0,
  "vin": [
    {
      "txid": "c2ef8661b1a552d25ca0683c73ad6e452a4730c580db360721be42b4c1da5e9f",
      "vout": 0,
      "prevout": {
        "scriptpubkey": "0014f64b5e78d8df0e1e5364ee2359aff89a83d8ac9e",
        "scriptpubkey_asm": "OP_0 OP_PUSHBYTES_20 f64b5e78d8df0e1e5364ee2359aff89a83d8ac9e",
        "scriptpubkey_type": "v0_p2wpkh",
        "scriptpubkey_address": "bc1q7e94u7xcmu8pu5myac34ntlcn2pa3ty7trrrt8",
        "value": 94741
      },
      "scriptsig": "",
      "scriptsig_asm": "",
      "witness": [
        "30440220583ac7c039669b7a1376d596de9f383c26e8b13e6e844dd47a2685800d15a207022025b5137c5802cf3fb8421f685fa9fea8f4cf6ea021941af1e30e87f36dfc2c1901",
        "03e5524b279e09de7f657c7947bf93991f1b56163907fff224e421761d7590804b"
      ],
      "is_coinbase": false,
      "sequence": 4294967293
    }
  ],
  "vout": [
    {
      "scriptpubkey": "a914b32d4efd080684d6fa04df98d967dbcf92de262787",
      "scriptpubkey_asm": "OP_HASH160 OP_PUSHBYTES_20 b32d4efd080684d6fa04df98d967dbcf92de2627 OP_EQUAL",
      "scriptpubkey_type": "p2sh",
      "scriptpubkey_address": "3J2R9yUbACdMdFe54cUDe9kcmF9t5kFjyu",
      "value": 26982
    },
    {
      "scriptpubkey": "0014f64b5e78d8df0e1e5364ee2359aff89a83d8ac9e",
      "scriptpubkey_asm": "OP_0 OP_PUSHBYTES_20 f64b5e78d8df0e1e5364ee2359aff89a83d8ac9e",
      "scriptpubkey_type": "v0_p2wpkh",
      "scriptpubkey_address": "bc1q7e94u7xcmu8pu5myac34ntlcn2pa3ty7trrrt8",
      "value": 65188
    }
  ],
  "size": 223,
  "weight": 565,
  "fee": 2571,
  "status": {
    "confirmed": true,
    "block_height": 834638,
    "block_hash": "000000000000000000025f742c626208ac87e0b7d15054abb4a19ca2d735a54e",
    "block_time": 1710405325
  },
  "hex": "020000000001019f5edac1b442be210736db80c530472a456ead733c68a05cd252a5b16186efc20000000000fdffffff02666900000000000017a914b32d4efd080684d6fa04df98d967dbcf92de262787a4fe000000000000160014f64b5e78d8df0e1e5364ee2359aff89a83d8ac9e024730440220583ac7c039669b7a1376d596de9f383c26e8b13e6e844dd47a2685800d15a207022025b5137c5802cf3fb8421f685fa9fea8f4cf6ea021941af1e30e87f36dfc2c19012103e5524b279e09de7f657c7947bf93991f1b56163907fff224e421761d7590804b00000000"
}