{
  "txid": "4f64719f4492f54e796551afc6ba0417868fff7094839ca7a26dc3382069cf94",
  "version": 2,
  "locktime": 0,
  "vin": [
    {
      "txid": "e835c4d922fbed17c48b3bb466ba1ffc020ede84c1303bdb67ca1f883dd615bb",
      "vout": 10,
      "prevout": {
        "scriptpubkey": "5120e084226e120a410f59ff426e57e355698c442bd8a81af8fb7dbcf6f7ff5aa82b",
        "scriptpubkey_asm": "OP_PUSHNUM_1 OP_PUSHBYTES_32 e084226e120a410f59ff426e57e355698c442bd8a81af8fb7dbcf6f7ff5aa82b",
        "scriptpubkey_type": "v1_p2tr",
        "scriptpubkey_address": "bc1puzzzymsjpfqs7k0lgfh90c64dxxyg27c4qd037mahnm00l664q4s4f4z9t",
        "value": 3248
      },
      "scriptsig": "",
      "scriptsig_asm": "",
      "witness": [
        "5befb35d13e94686314676e94ea58ed873390e346a4f1d233e23184190fc6e3fd52080789d78307c8b55b33d001335169046cfa57ce6767af41f73970683e026",
        "2094846c6c77b4c1ec9b0bd699ff4b0ed93b5f6c18e2c83c8cc4a600d10542aa6bac0063036f726401011e6170706c69636174696f6e2f6a736f6e3b636861727365743d7574662d38004cd37b2270223a22706f772d3230222c226f70223a226d696e74222c227469636b223a2250455045222c22616d74223a2231303030222c22736f6c7574696f6e223a22504550453a626331703378336875706e76383064666366666c34333367327a3776713378706c63673364666d79716365336d6c6d6e78397767753872717265763032653a303030303030303030303030303030303030303139393431613561653132383937363539383134343239323533333030353762306461393666336465613163353a3437313538333837393935227d68",
        "c1bf69a78b1b6433fca38fda21525e43a6c565682ca08e513a8f66feb668723930"
      ],
      "is_coinbase": false,
      "sequence": 4294967295
    }
  ],
  "vout": [
    {
      "scriptpubkey": "512089a37e066c3bda9c253fac62850bcc044c1fe1116a76406331dff73315c8e1c6",
      "scriptpubkey_asm": "OP_PUSHNUM_1 OP_PUSHBYTES_32 89a37e066c3bda9c253fac62850bcc044c1fe1116a76406331dff73315c8e1c6",
      "scriptpubkey_type": "v1_p2tr",
      "scriptpubkey_address": "bc1p3x3hupnv80dfcffl433g2z7vq3xplcg3dfmyqce3mlmnx9wgu8rqrev02e",
      "value": 546
    }
  ],
  "size": 487,
  "weight": 769,
  "fee": 2702,
  "status": {
    "confirmed": true,
    "block_height": 834460,
    "block_hash": "00000000000000000000484a79b643b2524bbce82e5d8a442013fa5b8905ed98",
    "block_time": 1710307468
  },
  "hex": "02000000000101bb15d63d881fca67db3b30c184de0e02fc1fba66b43b8bc417edfb22d9c435e80a00000000ffffffff01220200000000000022512089a37e066c3bda9c253fac62850bcc044c1fe1116a76406331dff73315c8e1c603405befb35d13e94686314676e94ea58ed873390e346a4f1d233e23184190fc6e3fd52080789d78307c8b55b33d001335169046cfa57ce6767af41f73970683e026fd20012094846c6c77b4c1ec9b0bd699ff4b0ed93b5f6c18e2c83c8cc4a600d10542aa6bac0063036f726401011e6170706c69636174696f6e2f6a736f6e3b636861727365743d7574662d38004cd37b2270223a22706f772d3230222c226f70223a226d696e74222c227469636b223a2250455045222c22616d74223a2231303030222c22736f6c7574696f6e223a22504550453a626331703378336875706e76383064666366666c34333367327a3776713378706c63673364666d79716365336d6c6d6e78397767753872717265763032653a303030303030303030303030303030303030303139393431613561653132383937363539383134343239323533333030353762306461393666336465613163353a3437313538333837393935227d6821c1bf69a78b1b6433fca38fda21525e43a6c565682ca08e513a8f66feb66872393000000000"
}