{
  "txid": "4f7d9562c25467a64f0403269de64a906aa4dd0a0f0091a7f0d0e683872b4885",
  "version": 2,
  "locktime": 834637,
  "vin": [
    {
      "txid": "b9b515b6171b47940809366f5d58591a56063db03fc39f678a03cb2b455f9428",
      "vout": 0,
      "prevout": {
        "scriptpubkey": "0014371e036c75b663254314287faa19c7b3f6c35e8a",
        "scriptpubkey_asm": "OP_0 OP_PUSHBYTES_20 371e036c75b663254314287faa19c7b3f6c35e8a",
        "scriptpubkey_type": "v0_p2wpkh",
        "scriptpubkey_address": "bc1qxu0qxmr4ke3j2sc59pl65xw8k0mvxh52kt0x5m",
        "value": 293400650
      },
      "scriptsig": "",
      "scriptsig_asm": "",
      "witness": [
        "304402207ed00dfbbf904a6f24d43725fe3cd9d8fec2f5b6f6a7ac7b1e0816e39266ff7602200966bdee875f64538a655dd2a0bc548c3deb5fd717ec3e9e107d1233533cc23a01",
        "021160ee898d5480f4a193254338a6f289ab33a56ed639ca0b1504c9acffdf4fda"
      ],
      "is_coinbase": false,
      "sequence": 4294967294
    }
  ],
  "vout": [
    {
      "scriptpubkey": "00140d1c76c89fbba64867349c1ad0f3313e6b4b7d36",
      "scriptpubkey_asm": "OP_0 OP_PUSHBYTES_20 0d1c76c89fbba64867349c1ad0f3313e6b4b7d36",
      "scriptpubkey_type": "v0_p2wpkh",
      "scriptpubkey_address": "bc1qp5w8djylhwnysee5nsddpue38e45klfk893yee",
      "value": 4402400
    },
    {
      "scriptpubkey": "001414989c53e65d603069bf506996f24f45f4a12107",
      "scriptpubkey_asm": "OP_0 OP_PUSHBYTES_20 14989c53e65d603069bf506996f24f45f4a12107",
      "scriptpubkey_type": "v0_p2wpkh",
      "scriptpubkey_address": "bc1qzjvfc5lxt4srq6dl2p5eduj0gh62zgg8mqeurg",
      "value": 288994794
    }
  ],
  "size": 222,
  "weight": 561,
  "fee": 3456,
  "status": {
    "confirmed": true,
    "block_height": 834638,
    "block_hash": "000000000000000000025f742c626208ac87e0b7d15054abb4a19ca2d735a54e",
    "block_time": 1710405325
  },
  "hex": "0200000000010128945f452bcb038a679fc33fb03d06561a59585d6f36090894471b17b615b5b90000000000feffffff02e02c4300000000001600140d1c76c89fbba64867349c1ad0f3313e6b4b7d36eab539110000000016001414989c53e65d603069bf506996f24f45f4a121070247304402207ed00dfbbf904a6f24d43725fe3cd9d8fec2f5b6f6a7ac7b1e0816e39266ff7602200966bdee875f64538a655dd2a0bc548c3deb5fd717ec3e9e107d1233533cc23a0121021160ee898d5480f4a193254338a6f289ab33a56ed639ca0b1504c9acffdf4fda4dbc0c00"
}