{
  "txid": "4f870b8575f5860e8f535b51f5c12f40c376f6d554770a3e425f3f049c1de7d7",
  "version": 2,
  "locktime": 0,
  "vin": [
    {
      "txid": "d75504df0226c32ada660e4e4cd8cdcd093ac30b02ccd74b5b6c465e63a04537",
      "vout": 0,
      "prevout": {
        "scriptpubkey": "512021f1d6ab6bf1dc77f6cf741214d4d248108d8573afae883eb244f7faea3d5fb9",
        "scriptpubkey_asm": "OP_PUSHNUM_1 OP_PUSHBYTES_32 21f1d6ab6bf1dc77f6cf741214d4d248108d8573afae883eb244f7faea3d5fb9",
        "scriptpubkey_type": "v1_p2tr",
        "scriptpubkey_address": "bc1py8cad2mt78w80ak0wsfpf4xjfqggmptn47hgs04jgnml463at7usd4cjc9",
        "value": 600
      },
      "scriptsig": "",
      "scriptsig_asm": "",
      "witness": [
        "672e38b31f22bb64be3665ffe55c192480a32327b26832eb971f2b4cb2c588848992f62c09277c6a549b158a4fe2997d43609a82b1756097e6e6856d127e0710"
      ],
      "is_coinbase": false,
      "sequence": 4294967295
    },
    {
      "txid": "d75504df0226c32ada660e4e4cd8cdcd093ac30b02ccd74b5b6c465e63a04537",
      "vout": 1,
      "prevout": {
        "scriptpubkey": "512021f1d6ab6bf1dc77f6cf741214d4d248108d8573afae883eb244f7faea3d5fb9",
        "scriptpubkey_asm": "OP_PUSHNUM_1 OP_PUSHBYTES_32 21f1d6ab6bf1dc77f6cf741214d4d248108d8573afae883eb244f7faea3d5fb9",
        "scriptpubkey_type": "v1_p2tr",
        "scriptpubkey_address": "bc1py8cad2mt78w80ak0wsfpf4xjfqggmptn47hgs04jgnml463at7usd4cjc9",
        "value": 600
      },
      "scriptsig": "",
      "scriptsig_asm": "",
      "witness": [
        "88056552e92d55a7d6caee4aa591de8adcf9fc3d23f6abead018747a0b49ad9157588d213631fdea7fcf59da99208fe43b41bbb50d18af18624f0be4ff38cbea"
      ],
      "is_coinbase": false,
      "sequence": 4294967295
    },
    {
      "txid": "0751e6694dd15ff04e52a5afc479df8efc1105a1ff89317ab1f1ec4963b3f74f",
      "vout": 0,
      "prevout": {
        "scriptpubkey": "5120ef10f8f6c405fb3be44b0451f7b8b3bc39d11fbc2f43257b4da9cb0e4374796a",
        "scriptpubkey_asm": "OP_PUSHNUM_1 OP_PUSHBYTES_32 ef10f8f6c405fb3be44b0451f7b8b3bc39d11fbc2f43257b4da9cb0e4374796a",
        "scriptpubkey_type": "v1_p2tr",
        "scriptpubkey_address": "bc1paug03akyqhanheztq3gl0w9nhsuaz8au9apj276d489susm5094qsdy860",
        "value": 546
      },
      "scriptsig": "",
      "scriptsig_asm": "",
      "witness": [
        "4aff699e3a3a16a4f969bb69de60d1c509572bb6415dc488c546f0d2135123c651112586dfea4199e58645e3ca4001d28912f6784e1f92f690c7736bef05c2ce83"
      ],
      "is_coinbase": false,
      "sequence": 4294967295
    },
    {
      "txid": "d75504df0226c32ada660e4e4cd8cdcd093ac30b02ccd74b5b6c465e63a04537",
      "vout": 2,
      "prevout": {
        "scriptpubkey": "512021f1d6ab6bf1dc77f6cf741214d4d248108d8573afae883eb244f7faea3d5fb9",
        "scriptpubkey_asm": "OP_PUSHNUM_1 OP_PUSHBYTES_32 21f1d6ab6bf1dc77f6cf741214d4d248108d8573afae883eb244f7faea3d5fb9",
        "scriptpubkey_type": "v1_p2tr",
        "scriptpubkey_address": "bc1py8cad2mt78w80ak0wsfpf4xjfqggmptn47hgs04jgnml463at7usd4cjc9",
        "value": 148633
      },
      "scriptsig": "",
      "scriptsig_asm": "",
      "witness": [
        "f2e3f7969e72d270ff17c7998375070b81b3e4bba3413ccc8f4fba35917986c48068a6664e90b74428a37e0bfd966dcf5fb8b038611d247b8337fd395584127c"
      ],
      "is_coinbase": false,
      "sequence": 4294967295
    }
  ],
  "vout": [
    {
      "scriptpubkey": "512021f1d6ab6bf1dc77f6cf741214d4d248108d8573afae883eb244f7faea3d5fb9",
      "scriptpubkey_asm": "OP_PUSHNUM_1 OP_PUSHBYTES_32 21f1d6ab6bf1dc77f6cf741214d4d248108d8573afae883eb244f7faea3d5fb9",
      "scriptpubkey_type": "v1_p2tr",
      "scriptpubkey_address": "bc1py8cad2mt78w80ak0wsfpf4xjfqggmptn47hgs04jgnml463at7usd4cjc9",
      "value": 1200
    },
    {
      "scriptpubkey": "512021f1d6ab6bf1dc77f6cf741214d4d248108d8573afae883eb244f7faea3d5fb9",
      "scriptpubkey_asm": "OP_PUSHNUM_1 OP_PUSHBYTES_32 21f1d6ab6bf1dc77f6cf741214d4d248108d8573afae883eb244f7faea3d5fb9",
      "scriptpubkey_type": "v1_p2tr",
      "scriptpubkey_address": "bc1py8cad2mt78w80ak0wsfpf4xjfqggmptn47hgs04jgnml463at7usd4cjc9",
      "value": 546
    },
    {
      "scriptpubkey": "5120ef10f8f6c405fb3be44b0451f7b8b3bc39d11fbc2f43257b4da9cb0e4374796a",
      "scriptpubkey_asm": "OP_PUSHNUM_1 OP_PUSHBYTES_32 ef10f8f6c405fb3be44b0451f7b8b3bc39d11fbc2f43257b4da9cb0e4374796a",
      "scriptpubkey_type": "v1_p2tr",
      "scriptpubkey_address": "bc1paug03akyqhanheztq3gl0w9nhsuaz8au9apj276d489susm5094qsdy860",
      "value": 128000
    },
    {
      "scriptpubkey": "512021f1d6ab6bf1dc77f6cf741214d4d248108d8573afae883eb244f7faea3d5fb9",
      "scriptpubkey_asm": "OP_PUSHNUM_1 OP_PUSHBYTES_32 21f1d6ab6bf1dc77f6cf741214d4d248108d8573afae883eb244f7faea3d5fb9",
      "scriptpubkey_type": "v1_p2tr",
      "scriptpubkey_address": "bc1py8cad2mt78w80ak0wsfpf4xjfqggmptn47hgs04jgnml463at7usd4cjc9",
      "value": 600
    },
    {
      "scriptpubkey": "512021f1d6ab6bf1dc77f6cf741214d4d248108d8573afae883eb244f7faea3d5fb9",
      "scriptpubkey_asm": "OP_PUSHNUM_1 OP_PUSHBYTES_32 21f1d6ab6bf1dc77f6cf741214d4d248108d8573afae883eb244f7faea3d5fb9",
      "scriptpubkey_type": "v1_p2tr",
      "scriptpubkey_address": "bc1py8cad2mt78w80ak0wsfpf4xjfqggmptn47hgs04jgnml463at7usd4cjc9",
      "value": 600
    },
    {
      "scriptpubkey": "512021f1d6ab6bf1dc77f6cf741214d4d248108d8573afae883eb244f7faea3d5fb9",
      "scriptpubkey_asm": "OP_PUSHNUM_1 OP_PUSHBYTES_32 21f1d6ab6bf1dc77f6cf741214d4d248108d8573afae883eb244f7faea3d5fb9",
      "scriptpubkey_type": "v1_p2tr",
      "scriptpubkey_address": "bc1py8cad2mt78w80ak0wsfpf4xjfqggmptn47hgs04jgnml463at7usd4cjc9",
      "value": 13944
    }
  ],
  "size": 699,
  "weight": 1995,
  "fee": 5489,
  "status": {
    "confirmed": true,
    "block_height": 834464,
    "block_hash": "0000000000000000000177a0869a911a2b65c9bdcd5a8bcb02b68f305bee848e",
    "block_time": 1710308296
  },
  "hex": "020000000001043745a0635e466c5b4bd7cc020bc33a09cdcdd84c4e0e66da2ac32602df0455d70000000000ffffffff3745a0635e466c5b4bd7cc020bc33a09cdcdd84c4e0e66da2ac32602df0455d70100000000ffffffff4ff7b36349ecf1b17a3189ffa10511fc8edf79c4afa5524ef05fd14d69e651070000000000ffffffff3745a0635e466c5b4bd7cc020bc33a09cdcdd84c4e0e66da2ac32602df0455d70200000000ffffffff06b00400000000000022512021f1d6ab6bf1dc77f6cf741214d4d248108d8573afae883eb244f7faea3d5fb9220200000000000022512021f1d6ab6bf1dc77f6cf741214d4d248108d8573afae883eb244f7faea3d5fb900f4010000000000225120ef10f8f6c405fb3be44b0451f7b8b3bc39d11fbc2f43257b4da9cb0e4374796a580200000000000022512021f1d6ab6bf1dc77f6cf741214d4d248108d8573afae883eb244f7faea3d5fb9580200000000000022512021f1d6ab6bf1dc77f6cf741214d4d248108d8573afae883eb244f7faea3d5fb9783600000000000022512021f1d6ab6bf1dc77f6cf741214d4d248108d8573afae883eb244f7faea3d5fb90140672e38b31f22bb64be3665ffe55c192480a32327b26832eb971f2b4cb2c588848992f62c09277c6a549b158a4fe2997d43609a82b1756097e6e6856d127e0710014088056552e92d55a7d6caee4aa591de8adcf9fc3d23f6abead018747a0b49ad9157588d213631fdea7fcf59da99208fe43b41bbb50d18af18624f0be4ff38cbea01414aff699e3a3a16a4f969bb69de60d1c509572bb6415dc488c546f0d2135123c651112586dfea4199e58645e3ca4001d28912f6784e1f92f690c7736bef05c2ce830140f2e3f7969e72d270ff17c7998375070b81b3e4bba3413ccc8f4fba35917986c48068a6664e90b74428a37e0bfd966dcf5fb8b038611d247b8337fd395584127c00000000"
}