{
  "txid": "4f98f916f54e7cd45133f2a0052cc97227ee8503e3e9552e216276e944c96fa2",
  "version": 2,
  "locktime": 0,
  "vin": [
    {
      "txid": "acc3ba00869acb582a3f2904ce3a11dd3779350ce234063fc7d0959246213364",
      "vout": 221,
      "prevout": {
        "scriptpubkey": "51200b966c03b45029555edffe297e14f6aac6a7be6d678e2303ee6c2da064c3c62f",
        "scriptpubkey_asm": "OP_PUSHNUM_1 OP_PUSHBYTES_32 0b966c03b45029555edffe297e14f6aac6a7be6d678e2303ee6c2da064c3c62f",
        "scriptpubkey_type": "v1_p2tr",
        "scriptpubkey_address": "bc1ppwtxcqa52q542hkllc5hu98k4tr200ndv78zxqlwdsk6qexrcchscy2l58",
        "value": 1806
      },
      "scriptsig": "",
      "scriptsig_asm": "",
      "witness": [
        "deb0bd2cd65aa669097daec97c50d3381892ddef2445a07a88a39c2c79e308ebbb5869fb8e7509ca36c9c6c7449221a135386cb7ed584a2f9a85d9d146fbe5b0",
        "20fb979bec03c4f7e89cf4f62fb2d9bcd4e07adb1983ec828da2a0f7454e3d6099ac0063036f726401010a746578742f706c61696e00357b2270223a226272632d3230222c226f70223a226d696e74222c227469636b223a22646f6765222c22616d74223a2234323030227d68",
        "c0fb979bec03c4f7e89cf4f62fb2d9bcd4e07adb1983ec828da2a0f7454e3d6099"
      ],
      "is_coinbase": false,
      "sequence": 4261412863
    }
  ],
  "vout": [
    {
      "scriptpubkey": "00147a665de7a370f4c9b372ab1fae587500a5bcbdb4",
      "scriptpubkey_asm": "OP_0 OP_PUSHBYTES_20 7a665de7a370f4c9b372ab1fae587500a5bcbdb4",
      "scriptpubkey_type": "v0_p2wpkh",
      "scriptpubkey_address": "bc1q0fn9mearwr6vnvmj4v06ukr4qzjme0d565dzcx",
      "value": 294
    }
  ],
  "size": 294,
  "weight": 540,
  "fee": 1512,
  "status": {
    "confirmed": true,
    "block_height": 834460,
    "block_hash": "00000000000000000000484a79b643b2524bbce82e5d8a442013fa5b8905ed98",
    "block_time": 1710307468
  },
  "hex": "02000000000101643321469295d0c73f0634e20c357937dd113ace04293f2a58cb9a8600bac3acdd00000000fffffffd0126010000000000001600147a665de7a370f4c9b372ab1fae587500a5bcbdb40340deb0bd2cd65aa669097daec97c50d3381892ddef2445a07a88a39c2c79e308ebbb5869fb8e7509ca36c9c6c7449221a135386cb7ed584a2f9a85d9d146fbe5b06d20fb979bec03c4f7e89cf4f62fb2d9bcd4e07adb1983ec828da2a0f7454e3d6099ac0063036f726401010a746578742f706c61696e00357b2270223a226272632d3230222c226f70223a226d696e74222c227469636b223a22646f6765222c22616d74223a2234323030227d6821c0fb979bec03c4f7e89cf4f62fb2d9bcd4e07adb1983ec828da2a0f7454e3d609900000000"
}