{
  "txid": "4fa47d27364e3593a1c9e2bcf48e5d44aba370509827e6590bee3e5b8a8da7a3",
  "version": 2,
  "locktime": 0,
  "vin": [
    {
      "txid": "b13bb5512a4904c28a6b7957b88edf574e8cb23551fc1dcfe22d6b239df42cf4",
      "vout": 36,
      "prevout": {
        "scriptpubkey": "51205fbfce0827812afc519997c5a50825c11322e2f14ba2a265a2fc20a7fe69cca1",
        "scriptpubkey_asm": "OP_PUSHNUM_1 OP_PUSHBYTES_32 5fbfce0827812afc519997c5a50825c11322e2f14ba2a265a2fc20a7fe69cca1",
        "scriptpubkey_type": "v1_p2tr",
        "scriptpubkey_address": "bc1pt7luuzp8sy40c5vejlz62zp9cyfj9ch3fw32yedzlss20lnfejss4dzp45",
        "value": 2575
      },
      "scriptsig": "",
      "scriptsig_asm": "",
      "witness": [
        "801c78ceb4892a90eb9cf73266fdc124d757e3c5df089944df6b653c9d3f1a89e888ba7777e37fbe645c90756dbf5ce5fd173fc1545855003930bc85913cf8ab",
        "2001b22554a70e010d4ea7c20482a7db9ec6f8afacef7cafdf948466ef8a6dbebeac0063036f726401010a746578742f706c61696e00367b2270223a226272632d3230222c226f70223a226d696e74222c227469636b223a2261616161222c22616d74223a223130303030227d68",
        "c001b22554a70e010d4ea7c20482a7db9ec6f8afacef7cafdf948466ef8a6dbebe"
      ],
      "is_coinbase": false,
      "sequence": 4261412863
    }
  ],
  "vout": [
    {
      "scriptpubkey": "0014ce0b5aa0dac72397a8aa5a85d90a2cfb46f0f630",
      "scriptpubkey_asm": "OP_0 OP_PUSHBYTES_20 ce0b5aa0dac72397a8aa5a85d90a2cfb46f0f630",
      "scriptpubkey_type": "v0_p2wpkh",
      "scriptpubkey_address": "bc1qec944gx6cu3e0292t2zajz3vldr0pa3sh356d9",
      "value": 546
    }
  ],
  "size": 295,
  "weight": 541,
  "fee": 2029,
  "status": {
    "confirmed": true,
    "block_height": 834464,
    "block_hash": "0000000000000000000177a0869a911a2b65c9bdcd5a8bcb02b68f305bee848e",
    "block_time": 1710308296
  },
  "hex": "02000000000101f42cf49d236b2de2cf1dfc5135b28c4e57df8eb857796b8ac204492a51b53bb12400000000fffffffd012202000000000000160014ce0b5aa0dac72397a8aa5a85d90a2cfb46f0f6300340801c78ceb4892a90eb9cf73266fdc124d757e3c5df089944df6b653c9d3f1a89e888ba7777e37fbe645c90756dbf5ce5fd173fc1545855003930bc85913cf8ab6e2001b22554a70e010d4ea7c20482a7db9ec6f8afacef7cafdf948466ef8a6dbebeac0063036f726401010a746578742f706c61696e00367b2270223a226272632d3230222c226f70223a226d696e74222c227469636b223a2261616161222c22616d74223a223130303030227d6821c001b22554a70e010d4ea7c20482a7db9ec6f8afacef7cafdf948466ef8a6dbebe00000000"
}