{
  "txid": "4fac49f0ef846f5f3365b6e8e7aaad05e0d62d92d29229c751a7789703a559e5",
  "version": 2,
  "locktime": 0,
  "vin": [
    {
      "txid": "c300137ec88c0bcc42558bb00cd377048688942d7f71e0c064a3d9b1751ff61b",
      "vout": 0,
      "prevout": {
        "scriptpubkey": "51208146db75109a0c55b54649c71e03a04662de0fd339468236e4a2d632de113633",
        "scriptpubkey_asm": "OP_PUSHNUM_1 OP_PUSHBYTES_32 8146db75109a0c55b54649c71e03a04662de0fd339468236e4a2d632de113633",
        "scriptpubkey_type": "v1_p2tr",
        "scriptpubkey_address": "bc1ps9rdkagsngx9td2xf8r3uqaqge3dur7n89rgydhy5ttr9hs3xceslayr47",
        "value": 4776
      },
      "scriptsig": "",
      "scriptsig_asm": "",
      "witness": [
        "c7d9af8f76609bcdc31024db30080ac9c895df14df4b11b5b409687711e0a969adb162acfb3e08c469df9688f8a6c8b16e7d8dbdc544a4df0d2d4b6bf2c9d917",
        "20331100850a7b58443534ff6e389afc3873a29c8425fd0f562b3982db320d95ddac0063036f7264010118746578742f706c61696e3b636861727365743d7574662d3800477b2270223a226272632d3230222c226f70223a227472616e73666572222c227469636b223a2272617473222c22616d74223a223132333136323732382e3532393630363034227d68",
        "c1331100850a7b58443534ff6e389afc3873a29c8425fd0f562b3982db320d95dd"
      ],
      "is_coinbase": false,
      "sequence": 4294967293
    }
  ],
  "vout": [
    {
      "scriptpubkey": "5120a15a0b028ecaa3c1ca7b9d610092adef8b7703e75a3bd7735d6cacf2c87fc94e",
      "scriptpubkey_asm": "OP_PUSHNUM_1 OP_PUSHBYTES_32 a15a0b028ecaa3c1ca7b9d610092adef8b7703e75a3bd7735d6cacf2c87fc94e",
      "scriptpubkey_type": "v1_p2tr",
      "scriptpubkey_address": "bc1p59dqkq5we23urjnmn4sspy4da79hwql8tgaawu6adjk09jrle98q963cww",
      "value": 546
    }
  ],
  "size": 338,
  "weight": 620,
  "fee": 4230,
  "status": {
    "confirmed": true,
    "block_height": 834638,
    "block_hash": "000000000000000000025f742c626208ac87e0b7d15054abb4a19ca2d735a54e",
    "block_time": 1710405325
  },
  "hex": "020000000001011bf61f75b1d9a364c0e0717f2d9488860477d30cb08b5542cc0b8cc87e1300c30000000000fdffffff012202000000000000225120a15a0b028ecaa3c1ca7b9d610092adef8b7703e75a3bd7735d6cacf2c87fc94e0340c7d9af8f76609bcdc31024db30080ac9c895df14df4b11b5b409687711e0a969adb162acfb3e08c469df9688f8a6c8b16e7d8dbdc544a4df0d2d4b6bf2c9d9178d20331100850a7b58443534ff6e389afc3873a29c8425fd0f562b3982db320d95ddac0063036f7264010118746578742f706c61696e3b636861727365743d7574662d3800477b2270223a226272632d3230222c226f70223a227472616e73666572222c227469636b223a2272617473222c22616d74223a223132333136323732382e3532393630363034227d6821c1331100850a7b58443534ff6e389afc3873a29c8425fd0f562b3982db320d95dd00000000"
}