{
  "txid": "4fb635d71dbef87e1e9b7208c98bbfaceac8865135a6e0be3d584ff581170534",
  "version": 2,
  "locktime": 0,
  "vin": [
    {
      "txid": "3cc96e351bc079fde08e25aeb1ac8376e76113696939f122fa34711352e7f788",
      "vout": 2,
      "prevout": {
        "scriptpubkey": "512050a4c479de63d47b0ab01ed2c4937410439d45bd6f8f8c55c2f4c5198e91ef73",
        "scriptpubkey_asm": "OP_PUSHNUM_1 OP_PUSHBYTES_32 50a4c479de63d47b0ab01ed2c4937410439d45bd6f8f8c55c2f4c5198e91ef73",
        "scriptpubkey_type": "v1_p2tr",
        "scriptpubkey_address": "bc1p2zjvg7w7v028kz4srmfvfym5zppe63dad78cc4wz7nz3nr53aaesx8emsv",
        "value": 498000
      },
      "scriptsig": "",
      "scriptsig_asm": "",
      "witness": [
        "6d510d8b7c5f683399161bc19953aa88d8f4e941063fd9eade792a852c9d7e296f4f1c94af33c82c07590679bccfcd23f590589e30619afe05547c57be84db03"
      ],
      "is_coinbase": false,
      "sequence": 4294967293
    }
  ],
  "vout": [
    {
      "scriptpubkey": "51209f186ed8324c00fcd0fd19f655334925cfaeaacf18c2349dc94cd71285a808c3",
      "scriptpubkey_asm": "OP_PUSHNUM_1 OP_PUSHBYTES_32 9f186ed8324c00fcd0fd19f655334925cfaeaacf18c2349dc94cd71285a808c3",
      "scriptpubkey_type": "v1_p2tr",
      "scriptpubkey_address": "bc1pnuvxakpjfsq0e58ar8m92v6fyh86a2k0rrprf8wffnt39pdgprps7awulj",
      "value": 3130
    },
    {
      "scriptpubkey": "512050a4c479de63d47b0ab01ed2c4937410439d45bd6f8f8c55c2f4c5198e91ef73",
      "scriptpubkey_asm": "OP_PUSHNUM_1 OP_PUSHBYTES_32 50a4c479de63d47b0ab01ed2c4937410439d45bd6f8f8c55c2f4c5198e91ef73",
      "scriptpubkey_type": "v1_p2tr",
      "scriptpubkey_address": "bc1p2zjvg7w7v028kz4srmfvfym5zppe63dad78cc4wz7nz3nr53aaesx8emsv",
      "value": 492252
    }
  ],
  "size": 205,
  "weight": 616,
  "fee": 2618,
  "status": {
    "confirmed": true,
    "block_height": 834638,
    "block_hash": "000000000000000000025f742c626208ac87e0b7d15054abb4a19ca2d735a54e",
    "block_time": 1710405325
  },
  "hex": "0200000000010188f7e752137134fa22f13969691361e77683acb1ae258ee0fd79c01b356ec93c0200000000fdffffff023a0c0000000000002251209f186ed8324c00fcd0fd19f655334925cfaeaacf18c2349dc94cd71285a808c3dc8207000000000022512050a4c479de63d47b0ab01ed2c4937410439d45bd6f8f8c55c2f4c5198e91ef7301406d510d8b7c5f683399161bc19953aa88d8f4e941063fd9eade792a852c9d7e296f4f1c94af33c82c07590679bccfcd23f590589e30619afe05547c57be84db0300000000"
}