{
  "txid": "4fb823aab5e47c7fe40075d699a7056390cf0b96d8ac78cd85dd417785f3452e",
  "version": 1,
  "locktime": 0,
  "vin": [
    {
      "txid": "e1c111191cc7267276685f072b0ca74ec853adac5f381f645c193db1f7e6251a",
      "vout": 1,
      "prevout": {
        "scriptpubkey": "51204a0c615ecd75787c9070cc054bbeb6f4afc5e0cbcb17181cc538c1a52f5f83a1",
        "scriptpubkey_asm": "OP_PUSHNUM_1 OP_PUSHBYTES_32 4a0c615ecd75787c9070cc054bbeb6f4afc5e0cbcb17181cc538c1a52f5f83a1",
        "scriptpubkey_type": "v1_p2tr",
        "scriptpubkey_address": "bc1pfgxxzhkdw4u8eyrsesz5h04k7jhutcxtevt3s8x98rq62t6lswsskyg0c7",
        "value": 581490
      },
      "scriptsig": "",
      "scriptsig_asm": "",
      "witness": [
        "bdaa5f47fd555052c5ea58c4c5767d422e5fe7528b63eba0b8a01f0ff1ee8d2837c4130b3a9e6355547f4dd96dcfba79339c7cac89e19a41386424b4c0515a17"
      ],
      "is_coinbase": false,
      "sequence": 4294967295
    }
  ],
  "vout": [
    {
      "scriptpubkey": "5120775105970b6ce2c0536b2591bf1dc1f63be21cf9a62ab7fdeb8cad4637e2801b",
      "scriptpubkey_asm": "OP_PUSHNUM_1 OP_PUSHBYTES_32 775105970b6ce2c0536b2591bf1dc1f63be21cf9a62ab7fdeb8cad4637e2801b",
      "scriptpubkey_type": "v1_p2tr",
      "scriptpubkey_address": "bc1pwagst9ctdn3vq5mtykgm78wp7ca7y88e5c4t0l0t3jk5vdlzsqds6xer3c",
      "value": 213665
    },
    {
      "scriptpubkey": "0014eea9e1551c89579350a7c5aba9ae0369c4db89eb",
      "scriptpubkey_asm": "OP_0 OP_PUSHBYTES_20 eea9e1551c89579350a7c5aba9ae0369c4db89eb",
      "scriptpubkey_type": "v0_p2wpkh",
      "scriptpubkey_address": "bc1qa657z4gu39tex598ck46ntsrd8zdhz0t8rufa4",
      "value": 364965
    }
  ],
  "size": 193,
  "weight": 568,
  "fee": 2860,
  "status": {
    "confirmed": true,
    "block_height": 834638,
    "block_hash": "000000000000000000025f742c626208ac87e0b7d15054abb4a19ca2d735a54e",
    "block_time": 1710405325
  },
  "hex": "010000000001011a25e6f7b13d195c641f385facad53c84ea70c2b075f68767226c71c1911c1e10100000000ffffffff02a142030000000000225120775105970b6ce2c0536b2591bf1dc1f63be21cf9a62ab7fdeb8cad4637e2801ba591050000000000160014eea9e1551c89579350a7c5aba9ae0369c4db89eb0140bdaa5f47fd555052c5ea58c4c5767d422e5fe7528b63eba0b8a01f0ff1ee8d2837c4130b3a9e6355547f4dd96dcfba79339c7cac89e19a41386424b4c0515a1700000000"
}