{
  "txid": "4fc857383643eb2573dae3c1d7549d86aa7ee7ca9ae22feca7587f542d34a6b3",
  "version": 1,
  "locktime": 0,
  "vin": [
    {
      "txid": "7e8414fdb0a074642d7cf808544b8c035a07f35d0fa24d2a871b821f486824e6",
      "vout": 0,
      "prevout": {
        "scriptpubkey": "00140097cc8d3c247321621c6b84201076785afb1871",
        "scriptpubkey_asm": "OP_0 OP_PUSHBYTES_20 0097cc8d3c247321621c6b84201076785afb1871",
        "scriptpubkey_type": "v0_p2wpkh",
        "scriptpubkey_address": "bc1qqztuerfuy3ejzcsudwzzqyrk0pd0kxr3h9zuzk",
        "value": 1030000
      },
      "scriptsig": "",
      "scriptsig_asm": "",
      "witness": [
        "304402203301abddc9cf13f15d6809f5fafe14850f1d037e796b7f4f98318b169ea0f66e0220439604a89935dde35397cb16f5623ff58055d984cde7171388513969ff004e4001",
        "0336b03794ad394ab78de41cbf5d4c1f24d3b52fc8130c53d090c0e3849d121fc1"
      ],
      "is_coinbase": false,
      "sequence": 4294967295
    }
  ],
  "vout": [
    {
      "scriptpubkey": "00147928f58c56fb3dcc19bd7e8030803a25ce64b1de",
      "scriptpubkey_asm": "OP_0 OP_PUSHBYTES_20 7928f58c56fb3dcc19bd7e8030803a25ce64b1de",
      "scriptpubkey_type": "v0_p2wpkh",
      "scriptpubkey_address": "bc1q0y50trzklv7ucxda06qrpqp6yh8xfvw7cjmq3n",
      "value": 1005000
    },
    {
      "scriptpubkey": "00140097cc8d3c247321621c6b84201076785afb1871",
      "scriptpubkey_asm": "OP_0 OP_PUSHBYTES_20 0097cc8d3c247321621c6b84201076785afb1871",
      "scriptpubkey_type": "v0_p2wpkh",
      "scriptpubkey_address": "bc1qqztuerfuy3ejzcsudwzzqyrk0pd0kxr3h9zuzk",
      "value": 21193
    }
  ],
  "size": 222,
  "weight": 561,
  "fee": 3807,
  "status": {
    "confirmed": true,
    "block_height": 834638,
    "block_hash": "000000000000000000025f742c626208ac87e0b7d15054abb4a19ca2d735a54e",
    "block_time": 1710405325
  },
  "hex": "01000000000101e62468481f821b872a4da20f5df3075a038c4b5408f87c2d6474a0b0fd14847e0000000000ffffffff02c8550f00000000001600147928f58c56fb3dcc19bd7e8030803a25ce64b1dec9520000000000001600140097cc8d3c247321621c6b84201076785afb18710247304402203301abddc9cf13f15d6809f5fafe14850f1d037e796b7f4f98318b169ea0f66e0220439604a89935dde35397cb16f5623ff58055d984cde7171388513969ff004e4001210336b03794ad394ab78de41cbf5d4c1f24d3b52fc8130c53d090c0e3849d121fc100000000"
}