{
  "txid": "4fde793267afba236c2e2ecf43e9fa724a64eac40dc1e4ea1fa5ddb6bd532bab",
  "version": 1,
  "locktime": 834459,
  "vin": [
    {
      "txid": "d8083f817999a17c1e9ec351feb8021cd5769acdda394f3fb32ec2e5a169ad65",
      "vout": 0,
      "prevout": {
        "scriptpubkey": "0014fd986f067029113f78e730ed5c8f920e9a476372",
        "scriptpubkey_asm": "OP_0 OP_PUSHBYTES_20 fd986f067029113f78e730ed5c8f920e9a476372",
        "scriptpubkey_type": "v0_p2wpkh",
        "scriptpubkey_address": "bc1qlkvx7pns9ygn7788xrk4erujp6dywcmjkqr8j3",
        "value": 1046548
      },
      "scriptsig": "",
      "scriptsig_asm": "",
      "witness": [
        "304402207f9aa7b972ccca0b2153a7c787d72e381f411d3b3ebb82b2742fc962664d146c0220033e8c641b8c412b270a9537a0a9f1b677896eb0bac6f9fac29b41ce070624fe01",
        "02523d4f442ef934234f3fc7928d03fd2b327c6a59646fedde678b340ee46697aa"
      ],
      "is_coinbase": false,
      "sequence": 4294967294
    }
  ],
  "vout": [
    {
      "scriptpubkey": "00146eb45b06f1ab2727f7b69590a327a2f75070acaf",
      "scriptpubkey_asm": "OP_0 OP_PUSHBYTES_20 6eb45b06f1ab2727f7b69590a327a2f75070acaf",
      "scriptpubkey_type": "v0_p2wpkh",
      "scriptpubkey_address": "bc1qd669kph34vnj0aakjkg2xfaz7ag8pt9030wwvj",
      "value": 1044552
    },
    {
      "scriptpubkey": "6a20ebd0774d52726dac460acea377f34d427d4a7f56c6c61129ff64af3d1d35f881",
      "scriptpubkey_asm": "OP_RETURN OP_PUSHBYTES_32 ebd0774d52726dac460acea377f34d427d4a7f56c6c61129ff64af3d1d35f881",
      "scriptpubkey_type": "op_return",
      "value": 0
    }
  ],
  "size": 234,
  "weight": 609,
  "fee": 1996,
  "status": {
    "confirmed": true,
    "block_height": 834460,
    "block_hash": "00000000000000000000484a79b643b2524bbce82e5d8a442013fa5b8905ed98",
    "block_time": 1710307468
  },
  "hex": "0100000000010165ad69a1e5c22eb33f4f39dacd9a76d51c02b8fe51c39e1e7ca19979813f08d80000000000feffffff0248f00f00000000001600146eb45b06f1ab2727f7b69590a327a2f75070acaf0000000000000000226a20ebd0774d52726dac460acea377f34d427d4a7f56c6c61129ff64af3d1d35f8810247304402207f9aa7b972ccca0b2153a7c787d72e381f411d3b3ebb82b2742fc962664d146c0220033e8c641b8c412b270a9537a0a9f1b677896eb0bac6f9fac29b41ce070624fe012102523d4f442ef934234f3fc7928d03fd2b327c6a59646fedde678b340ee46697aa9bbb0c00"
}