{
  "txid": "4feaa74d3d0cf5e7dc369ed6882b21e211009404bb47e27cf20b5d53f02f4085",
  "version": 2,
  "locktime": 0,
  "vin": [
    {
      "txid": "769381ab213bcbe6778f4a54e9fe7cb7f713ee9e79c7df9d413f89d1db0a45e4",
      "vout": 0,
      "prevout": {
        "scriptpubkey": "51202460686311ba80925106f1e06967949decb6ae1851f0ca44d3a947e907d88cbc",
        "scriptpubkey_asm": "OP_PUSHNUM_1 OP_PUSHBYTES_32 2460686311ba80925106f1e06967949decb6ae1851f0ca44d3a947e907d88cbc",
        "scriptpubkey_type": "v1_p2tr",
        "scriptpubkey_address": "bc1py3sxscc3h2qfy5gx78sxjeu5nhktdtsc28cv53xn49r7jp7c3j7qxjyfld",
        "value": 4000
      },
      "scriptsig": "",
      "scriptsig_asm": "",
      "witness": [
        "3d7f49ea100f89770a770775f2f42cd93ce8296d7846e7c1139b785fa65ac33bd46492c768bf608c111340a75c269e82a2a7ffe82e8691532655a934ddc74c5d",
        "20e7451b4da142bb1498645a0134a909de1f5d65a88afc3fc532aed06921e2d4bcac0063036f7264010118746578742f706c61696e3b636861727365743d7574662d3800397b2270223a226272632d3230222c226f70223a227472616e73666572222c227469636b223a2272637376222c22616d74223a2236303030227d68",
        "c105e76ab06e60f7ec692b897f6d0c2bdc59f53640e7dcf66d31dd4e2b242822df"
      ],
      "is_coinbase": false,
      "sequence": 4294967293
    }
  ],
  "vout": [
    {
      "scriptpubkey": "51205af96cf1534b404a274f6b9248afad6c2adca7b6f4e4f72d1075a2b0a05b5e74",
      "scriptpubkey_asm": "OP_PUSHNUM_1 OP_PUSHBYTES_32 5af96cf1534b404a274f6b9248afad6c2adca7b6f4e4f72d1075a2b0a05b5e74",
      "scriptpubkey_type": "v1_p2tr",
      "scriptpubkey_address": "bc1pttukeu2nfdqy5f60dwfy3tadds4defak7nj0wtgswk3tpgzmte6qeh0rvp",
      "value": 330
    },
    {
      "scriptpubkey": "0014a2fed5ea2525e66470984d7abd19d0008c5acd76",
      "scriptpubkey_asm": "OP_0 OP_PUSHBYTES_20 a2fed5ea2525e66470984d7abd19d0008c5acd76",
      "scriptpubkey_type": "v0_p2wpkh",
      "scriptpubkey_address": "bc1q5tldt639yhnxguycf4at6xwsqzx94ntkpeat67",
      "value": 1291
    }
  ],
  "size": 355,
  "weight": 730,
  "fee": 2379,
  "status": {
    "confirmed": true,
    "block_height": 834460,
    "block_hash": "00000000000000000000484a79b643b2524bbce82e5d8a442013fa5b8905ed98",
    "block_time": 1710307468
  },
  "hex": "02000000000101e4450adbd1893f419ddfc7799eee13f7b77cfee9544a8f77e6cb3b21ab8193760000000000fdffffff024a010000000000002251205af96cf1534b404a274f6b9248afad6c2adca7b6f4e4f72d1075a2b0a05b5e740b05000000000000160014a2fed5ea2525e66470984d7abd19d0008c5acd7603403d7f49ea100f89770a770775f2f42cd93ce8296d7846e7c1139b785fa65ac33bd46492c768bf608c111340a75c269e82a2a7ffe82e8691532655a934ddc74c5d7f20e7451b4da142bb1498645a0134a909de1f5d65a88afc3fc532aed06921e2d4bcac0063036f7264010118746578742f706c61696e3b636861727365743d7574662d3800397b2270223a226272632d3230222c226f70223a227472616e73666572222c227469636b223a2272637376222c22616d74223a2236303030227d6821c105e76ab06e60f7ec692b897f6d0c2bdc59f53640e7dcf66d31dd4e2b242822df00000000"
}