{
  "txid": "4ff31616cea77b08aafe30723b2c26a998287c132ae2ab6e385051642891e375",
  "version": 1,
  "locktime": 0,
  "vin": [
    {
      "txid": "6d9fc4208dc938cd70c39bb709204fdcf233da9e90822f4ccc89181a6ab88759",
      "vout": 1,
      "prevout": {
        "scriptpubkey": "76a9147c54b52950b8fc3f405f0129ede14afb413313ff88ac",
        "scriptpubkey_asm": "OP_DUP OP_HASH160 OP_PUSHBYTES_20 7c54b52950b8fc3f405f0129ede14afb413313ff OP_EQUALVERIFY OP_CHECKSIG",
        "scriptpubkey_type": "p2pkh",
        "scriptpubkey_address": "1CLQGNxEEAkfgQPYamdqpVFwm3nXq7Srip",
        "value": 282629
      },
      "scriptsig": "4730440220384e2641d853382f3801476c921bae3d789205d207e8b379c6a254e2d0db070102201aaab1faa745799861fcd278e847812dd72535a7b1a0bfe1c8b51c19d4cb40d30121021b08d85737fc02f7603e37703b05126aaa8668d737f0b63fff3ae2afededb4f4",
      "scriptsig_asm": "OP_PUSHBYTES_71 30440220384e2641d853382f3801476c921bae3d789205d207e8b379c6a254e2d0db070102201aaab1faa745799861fcd278e847812dd72535a7b1a0bfe1c8b51c19d4cb40d301 OP_PUSHBYTES_33 021b08d85737fc02f7603e37703b05126aaa8668d737f0b63fff3ae2afededb4f4",
      "is_coinbase": false,
      "sequence": 4294967295
    }
  ],
  "vout": [
    {
      "scriptpubkey": "00148fa99e0005cf4acac4ac1f296aeb15f46c1dbb65",
      "scriptpubkey_asm": "OP_0 OP_PUSHBYTES_20 8fa99e0005cf4acac4ac1f296aeb15f46c1dbb65",
      "scriptpubkey_type": "v0_p2wpkh",
      "scriptpubkey_address": "bc1q375euqq9ea9v439vru5k46c473kpmwm9yf6yqu",
      "value": 136015
    },
    {
      "scriptpubkey": "76a914a3f5350d549becdc08d922574e8aed077cbe38c288ac",
      "scriptpubkey_asm": "OP_DUP OP_HASH160 OP_PUSHBYTES_20 a3f5350d549becdc08d922574e8aed077cbe38c2 OP_EQUALVERIFY OP_CHECKSIG",
      "scriptpubkey_type": "p2pkh",
      "scriptpubkey_address": "1FwvtZp35rPE95ei39Dnsm1YJgBJi9jx86",
      "value": 139032
    }
  ],
  "size": 222,
  "weight": 888,
  "fee": 7582,
  "status": {
    "confirmed": true,
    "block_height": 834638,
    "block_hash": "000000000000000000025f742c626208ac87e0b7d15054abb4a19ca2d735a54e",
    "block_time": 1710405325
  },
  "hex": "01000000015987b86a1a1889cc4c2f82909eda33f2dc4f2009b79bc370cd38c98d20c49f6d010000006a4730440220384e2641d853382f3801476c921bae3d789205d207e8b379c6a254e2d0db070102201aaab1faa745799861fcd278e847812dd72535a7b1a0bfe1c8b51c19d4cb40d30121021b08d85737fc02f7603e37703b05126aaa8668d737f0b63fff3ae2afededb4f4ffffffff024f130200000000001600148fa99e0005cf4acac4ac1f296aeb15f46c1dbb65181f0200000000001976a914a3f5350d549becdc08d922574e8aed077cbe38c288ac00000000"
}