{
  "txid": "5016303f5807c16d2228e13f9e46eff5fce2c138d7845b86046b4ea6987d9f7f",
  "version": 1,
  "locktime": 0,
  "vin": [
    {
      "txid": "1b8a73dc31bfcbe1da3b41dd87c7a579abe55ef95d5fa600e2fc93786f2115d3",
      "vout": 1,
      "prevout": {
        "scriptpubkey": "00207250d91085a77a4568fa4cfd5bebb59f0b9cb3530f8154cd4fab6d28abd548fe",
        "scriptpubkey_asm": "OP_0 OP_PUSHBYTES_32 7250d91085a77a4568fa4cfd5bebb59f0b9cb3530f8154cd4fab6d28abd548fe",
        "scriptpubkey_type": "v0_p2wsh",
        "scriptpubkey_address": "bc1qwfgdjyy95aay2686fn74h6a4nu9eev6np7q4fn204dkj3274frlqrskvx0",
        "value": 181472822
      },
      "scriptsig": "",
      "scriptsig_asm": "",
      "witness": [
        "",
        "3045022100d454ad9da184b47e7ccf408faad597c226d6d637acf5cb113730fe2d31d3ddc9022070771d1763aa8cc7bb3e1a57a048244c5b2a9a05868976fcc4aa687f84d0c3e901",
        "30440220160b46c846fa6989a0db19e2928d617e59df14d4f16872073dae69fbaa2d4db9022064e62607c23a13bbc526cf70290609dc00bfb4185d6b7c83ae9692058ed11eb201",
        "5221030fac04165b606dea3b8f81ada5eb66ca181d5215c873fcf46623ea7cf8e98b1b2102b7836a2a9d3ff095415383cb23a5f4f1badd75e44adb17537962eafe3ded3b602102f8cb472df1ae03cfa6b65b013add7862c7d3ac3684a8a92a44192faace228aee53ae"
      ],
      "is_coinbase": false,
      "sequence": 4294967295,
      "inner_witnessscript_asm": "OP_PUSHNUM_2 OP_PUSHBYTES_33 030fac04165b606dea3b8f81ada5eb66ca181d5215c873fcf46623ea7cf8e98b1b OP_PUSHBYTES_33 02b7836a2a9d3ff095415383cb23a5f4f1badd75e44adb17537962eafe3ded3b60 OP_PUSHBYTES_33 02f8cb472df1ae03cfa6b65b013add7862c7d3ac3684a8a92a44192faace228aee OP_PUSHNUM_3 OP_CHECKMULTISIG"
    }
  ],
  "vout": [
    {
      "scriptpubkey": "76a91434ed878b77c85e9a75af5372fbac458e15ffe57288ac",
      "scriptpubkey_asm": "OP_DUP OP_HASH160 OP_PUSHBYTES_20 34ed878b77c85e9a75af5372fbac458e15ffe572 OP_EQUALVERIFY OP_CHECKSIG",
      "scriptpubkey_type": "p2pkh",
      "scriptpubkey_address": "15prgp7JZkRhVUq2Po4iLi8tobrgDtAN54",
      "value": 289499
    },
    {
      "scriptpubkey": "00207250d91085a77a4568fa4cfd5bebb59f0b9cb3530f8154cd4fab6d28abd548fe",
      "scriptpubkey_asm": "OP_0 OP_PUSHBYTES_32 7250d91085a77a4568fa4cfd5bebb59f0b9cb3530f8154cd4fab6d28abd548fe",
      "scriptpubkey_type": "v0_p2wsh",
      "scriptpubkey_address": "bc1qwfgdjyy95aay2686fn74h6a4nu9eev6np7q4fn204dkj3274frlqrskvx0",
      "value": 181179503
    }
  ],
  "size": 383,
  "weight": 767,
  "fee": 3820,
  "status": {
    "confirmed": true,
    "block_height": 834638,
    "block_hash": "000000000000000000025f742c626208ac87e0b7d15054abb4a19ca2d735a54e",
    "block_time": 1710405325
  },
  "hex": "01000000000101d315216f7893fce200a65f5df95ee5ab79a5c787dd413bdae1cbbf31dc738a1b0100000000ffffffff02db6a0400000000001976a91434ed878b77c85e9a75af5372fbac458e15ffe57288ac6f94cc0a000000002200207250d91085a77a4568fa4cfd5bebb59f0b9cb3530f8154cd4fab6d28abd548fe0400483045022100d454ad9da184b47e7ccf408faad597c226d6d637acf5cb113730fe2d31d3ddc9022070771d1763aa8cc7bb3e1a57a048244c5b2a9a05868976fcc4aa687f84d0c3e9014730440220160b46c846fa6989a0db19e2928d617e59df14d4f16872073dae69fbaa2d4db9022064e62607c23a13bbc526cf70290609dc00bfb4185d6b7c83ae9692058ed11eb201695221030fac04165b606dea3b8f81ada5eb66ca181d5215c873fcf46623ea7cf8e98b1b2102b7836a2a9d3ff095415383cb23a5f4f1badd75e44adb17537962eafe3ded3b602102f8cb472df1ae03cfa6b65b013add7862c7d3ac3684a8a92a44192faace228aee53ae00000000"
}