{
  "txid": "501f1dca1da3cd30ebdedc570901243597c4a41366bc4c4ce0bed7f9cff00c39",
  "version": 1,
  "locktime": 0,
  "vin": [
    {
      "txid": "7a001e2b619ca8f13018bd36a787ec9c9cedfd148260ad2cec7d0f95b2708c33",
      "vout": 1,
      "prevout": {
        "scriptpubkey": "0014649857acda5ca387608d23e1968ee081aa7c0f10",
        "scriptpubkey_asm": "OP_0 OP_PUSHBYTES_20 649857acda5ca387608d23e1968ee081aa7c0f10",
        "scriptpubkey_type": "v0_p2wpkh",
        "scriptpubkey_address": "bc1qvjv90tx6tj3cwcydy0sedrhqsx48crcsxzleu6",
        "value": 113847
      },
      "scriptsig": "",
      "scriptsig_asm": "",
      "witness": [
        "30450221009e2ed46df1db14f8527ae2f05ecc6068ccc51fba7dee0efd954d0d83ebbc33f10220045a18218603d8477f817f09868a190725b741b8da03d6f8f6e7a20dce0ac5cf01",
        "03ffd6fc7bffa6ef688a61d740ea2a5d5f96888ded843998f17216aef6c41ac96e"
      ],
      "is_coinbase": false,
      "sequence": 4294967295
    }
  ],
  "vout": [
    {
      "scriptpubkey": "76a91408a46ac9af3fd11a55ac38271b6d276546b035be88ac",
      "scriptpubkey_asm": "OP_DUP OP_HASH160 OP_PUSHBYTES_20 08a46ac9af3fd11a55ac38271b6d276546b035be OP_EQUALVERIFY OP_CHECKSIG",
      "scriptpubkey_type": "p2pkh",
      "scriptpubkey_address": "1nhNSPmWEmKAJA43wLSF1aBJCBrfrWBEC",
      "value": 69000
    },
    {
      "scriptpubkey": "0014649857acda5ca387608d23e1968ee081aa7c0f10",
      "scriptpubkey_asm": "OP_0 OP_PUSHBYTES_20 649857acda5ca387608d23e1968ee081aa7c0f10",
      "scriptpubkey_type": "v0_p2wpkh",
      "scriptpubkey_address": "bc1qvjv90tx6tj3cwcydy0sedrhqsx48crcsxzleu6",
      "value": 40959
    }
  ],
  "size": 226,
  "weight": 574,
  "fee": 3888,
  "status": {
    "confirmed": true,
    "block_height": 834638,
    "block_hash": "000000000000000000025f742c626208ac87e0b7d15054abb4a19ca2d735a54e",
    "block_time": 1710405325
  },
  "hex": "01000000000101338c70b2950f7dec2cad608214fded9c9cec87a736bd1830f1a89c612b1e007a0100000000ffffffff02880d0100000000001976a91408a46ac9af3fd11a55ac38271b6d276546b035be88acff9f000000000000160014649857acda5ca387608d23e1968ee081aa7c0f10024830450221009e2ed46df1db14f8527ae2f05ecc6068ccc51fba7dee0efd954d0d83ebbc33f10220045a18218603d8477f817f09868a190725b741b8da03d6f8f6e7a20dce0ac5cf012103ffd6fc7bffa6ef688a61d740ea2a5d5f96888ded843998f17216aef6c41ac96e00000000"
}