{
  "txid": "5061b7d3b7ec2a1f748802b0f2addb6a822a8b197bd27845824c790e538bba0a",
  "version": 1,
  "locktime": 0,
  "vin": [
    {
      "txid": "b77adc40a6001c6d8a6d67b09b72a415a44afa9bdad81e407e05307c8aac995f",
      "vout": 0,
      "prevout": {
        "scriptpubkey": "a9141447beec16dc5e1b0e78593a2a4ac8b4c99836bf87",
        "scriptpubkey_asm": "OP_HASH160 OP_PUSHBYTES_20 1447beec16dc5e1b0e78593a2a4ac8b4c99836bf OP_EQUAL",
        "scriptpubkey_type": "p2sh",
        "scriptpubkey_address": "33YFPN8vJLhSvTN4L69eqRZYk8rZUQ8qxE",
        "value": 775918
      },
      "scriptsig": "160014b3075e091cf24975d4af2cebde7335972f5afffc",
      "scriptsig_asm": "OP_PUSHBYTES_22 0014b3075e091cf24975d4af2cebde7335972f5afffc",
      "witness": [
        "30440220540d0fe6258e79ecf59ee0140b4d2a0a115d6c39acb03e82dda13c285d9352a40220714ee2278890b7ffbe055af8cd4b587636f2b601cf1b6cb69fed28734801305901",
        "02071b32fe8c8375b261e0038200f7b9ba799148ca5080e4cf13fd3ae1322fce87"
      ],
      "is_coinbase": false,
      "sequence": 4294967295,
      "inner_redeemscript_asm": "OP_0 OP_PUSHBYTES_20 b3075e091cf24975d4af2cebde7335972f5afffc"
    }
  ],
  "vout": [
    {
      "scriptpubkey": "76a91414441a676347769e33a2726ef608dfb08e4604a788ac",
      "scriptpubkey_asm": "OP_DUP OP_HASH160 OP_PUSHBYTES_20 14441a676347769e33a2726ef608dfb08e4604a7 OP_EQUALVERIFY OP_CHECKSIG",
      "scriptpubkey_type": "p2pkh",
      "scriptpubkey_address": "12rA6j6NrET3dG6waZ31UcpLSb53wY6ptK",
      "value": 774455
    }
  ],
  "size": 217,
  "weight": 541,
  "fee": 1463,
  "status": {
    "confirmed": true,
    "block_height": 834464,
    "block_hash": "0000000000000000000177a0869a911a2b65c9bdcd5a8bcb02b68f305bee848e",
    "block_time": 1710308296
  },
  "hex": "010000000001015f99ac8a7c30057e401ed8da9bfa4aa415a4729bb0676d8a6d1c00a640dc7ab70000000017160014b3075e091cf24975d4af2cebde7335972f5afffcffffffff0137d10b00000000001976a91414441a676347769e33a2726ef608dfb08e4604a788ac024730440220540d0fe6258e79ecf59ee0140b4d2a0a115d6c39acb03e82dda13c285d9352a40220714ee2278890b7ffbe055af8cd4b587636f2b601cf1b6cb69fed287348013059012102071b32fe8c8375b261e0038200f7b9ba799148ca5080e4cf13fd3ae1322fce8700000000"
}