{
  "txid": "5086371005a058bdd283b4045c0edfef1f6ec13e404a38afcd0b777964005531",
  "version": 1,
  "locktime": 0,
  "vin": [
    {
      "txid": "23330bf2b5aa1825917a54650d92a36d99f41fa3dcac3107d563ac984afde80f",
      "vout": 0,
      "prevout": {
        "scriptpubkey": "0014c1d73521de1c512e972eda0d693bda06563824d6",
        "scriptpubkey_asm": "OP_0 OP_PUSHBYTES_20 c1d73521de1c512e972eda0d693bda06563824d6",
        "scriptpubkey_type": "v0_p2wpkh",
        "scriptpubkey_address": "bc1qc8tn2gw7r3gja9ewmgxkjw76qetrsfxkdcclz5",
        "value": 97309
      },
      "scriptsig": "",
      "scriptsig_asm": "",
      "witness": [
        "304402203b9c79b4e37bb4d31770f1f63493426049dbb87e138b67eb67fe808ab65d4c9d02202f41ab924eb0125321e44bdadcb769f483396fbed52fab2fc484d6e13fd3699801",
        "02236c152077fbf004964095976cdadfeb157f4c155cf759bce2053db5d96327e6"
      ],
      "is_coinbase": false,
      "sequence": 4294967295
    },
    {
      "txid": "ab8e411567fa82e7b6dc3878c1d8d7408afe51134b65131ad066001424c75f4b",
      "vout": 0,
      "prevout": {
        "scriptpubkey": "0014152c54bb589a6172d6e4d6264d1ebf121286a69e",
        "scriptpubkey_asm": "OP_0 OP_PUSHBYTES_20 152c54bb589a6172d6e4d6264d1ebf121286a69e",
        "scriptpubkey_type": "v0_p2wpkh",
        "scriptpubkey_address": "bc1qz5k9fw6cnfsh94hy6cny684lzgfgdf57vt75xc",
        "value": 180000
      },
      "scriptsig": "",
      "scriptsig_asm": "",
      "witness": [
        "304402201015be1a0976b680b713a6b35d7cf2dadca4eaf3768d328095d638416f50c6bc022033ace7d1b9bcb5f45969da48322b6935a661960bb24f3050ed2463b137e7692001",
        "03457cf9c3f1be3ac9294f5400857a160496bce1a0d175f14a45b46a0de75cf898"
      ],
      "is_coinbase": false,
      "sequence": 4294967295
    },
    {
      "txid": "c84d9ec3a8e1d2bd7ed317bc71fcc4910ffb188c80653c1286386fc9c357bebe",
      "vout": 8,
      "prevout": {
        "scriptpubkey": "001458b58bf4c65f12308bd535bb7c73bffd775634b1",
        "scriptpubkey_asm": "OP_0 OP_PUSHBYTES_20 58b58bf4c65f12308bd535bb7c73bffd775634b1",
        "scriptpubkey_type": "v0_p2wpkh",
        "scriptpubkey_address": "bc1qtz6chaxxtufrpz74xkahcuall4m4vd934plm8r",
        "value": 531015
      },
      "scriptsig": "",
      "scriptsig_asm": "",
      "witness": [
        "304402206241ea603e374af1b4e27c6b797a5be266bd15942490b92120953130aa49325f02202c73b91e19960f865e76402afd78e97d7c50a306c1d550a600a895f6ae2c802e01",
        "02d3a2e5ee4e3584a080d2be48c761b681470a477fb679eb0fdb2b6fd3a33d7e48"
      ],
      "is_coinbase": false,
      "sequence": 4294967295
    },
    {
      "txid": "865baedce45b72a7613abe83da40c5beb0fbacbd4a01b328f63addc7760c9aaf",
      "vout": 1,
      "prevout": {
        "scriptpubkey": "0014aaa25949c0af8d8b5ec51aad6e797eb826fb9e8d",
        "scriptpubkey_asm": "OP_0 OP_PUSHBYTES_20 aaa25949c0af8d8b5ec51aad6e797eb826fb9e8d",
        "scriptpubkey_type": "v0_p2wpkh",
        "scriptpubkey_address": "bc1q4239jjwq47xckhk9r2kku7t7hqn0h85dn9ql7t",
        "value": 7375008
      },
      "scriptsig": "",
      "scriptsig_asm": "",
      "witness": [
        "3045022100c12fca3db26b6a534b51e99fd81412239ca4307a10f71bdf7dadea47739a361502206181199c233337b40451b8e9492ecdfa2b04f02737f2a34d6224ebc2d21043b201",
        "02d845c5438b767c39d578fc409a6049703243d1b2ee5ec6f30e6dc25cc8454b39"
      ],
      "is_coinbase": false,
      "sequence": 4294967295
    },
    {
      "txid": "2f67393369c30d3313d4618b04a2a2c5d160930f9ba0283ebdc838b49af40b31",
      "vout": 2,
      "prevout": {
        "scriptpubkey": "001422d7dff04e17ed9a394f23c7396f2bfeb1a325e1",
        "scriptpubkey_asm": "OP_0 OP_PUSHBYTES_20 22d7dff04e17ed9a394f23c7396f2bfeb1a325e1",
        "scriptpubkey_type": "v0_p2wpkh",
        "scriptpubkey_address": "bc1qyttaluzwzlke5w20y0rnjmetl6c6xf0pn2tsm7",
        "value": 15000000
      },
      "scriptsig": "",
      "scriptsig_asm": "",
      "witness": [
        "3045022100e7f3aa41386c2a44547ca701a99759706be9feeba32ddc77460473a4e5c42eba022052391a9dc529eb45019d9e293c6812eb0249167fa335195a707ebff0a067cfd601",
        "025824b02d8bbbe14a3a94b3a3cc6749bb40cf7e4d755de15c71c7b9b8c2fccebe"
      ],
      "is_coinbase": false,
      "sequence": 4294967295
    },
    {
      "txid": "865baedce45b72a7613abe83da40c5beb0fbacbd4a01b328f63addc7760c9aaf",
      "vout": 4,
      "prevout": {
        "scriptpubkey": "0014d22024f4ffcafc39adba6238301a30e1d6b13b25",
        "scriptpubkey_asm": "OP_0 OP_PUSHBYTES_20 d22024f4ffcafc39adba6238301a30e1d6b13b25",
        "scriptpubkey_type": "v0_p2wpkh",
        "scriptpubkey_address": "bc1q6gszfa8let7rntd6vgurqx3su8ttzwe95fr5zn",
        "value": 15300000
      },
      "scriptsig": "",
      "scriptsig_asm": "",
      "witness": [
        "3044022054932658e558ab9b6b9579692e31af166a5a92d5aa4e3535a718e520f57a6f5d022015553eaefe00f960d485c547ed9af638fe93a2e9f41ffc0b91273813c442d59801",
        "0303333a4845242d9a847a399d5fa9190368605d7ee2824123b3be01fa103f4f2c"
      ],
      "is_coinbase": false,
      "sequence": 4294967295
    },
    {
      "txid": "e731262c078ae317abc4ab95479f0011f8ad16daea16a954e744be1bed303415",
      "vout": 1,
      "prevout": {
        "scriptpubkey": "0014175ead51beed58467b5a82d805ad612e07b39aca",
        "scriptpubkey_asm": "OP_0 OP_PUSHBYTES_20 175ead51beed58467b5a82d805ad612e07b39aca",
        "scriptpubkey_type": "v0_p2wpkh",
        "scriptpubkey_address": "bc1qza0265d7a4vyv766stvqtttp9crm8xk2ctx8hn",
        "value": 2930653
      },
      "scriptsig": "",
      "scriptsig_asm": "",
      "witness": [
        "30450221009877ebebafa0a45d5f86b303a2c636cdf993e5f03415a45890c7d3bda04ac59002201d671f3b59db2b23c2b5102e301318a857e9a718d21a8816aa3b2dc90cf3ca6f01",
        "03459f0f4575996eb42f230501e3821a75140bce6c760afdd9554706ee8667d78e"
      ],
      "is_coinbase": false,
      "sequence": 4294967295
    }
  ],
  "vout": [
    {
      "scriptpubkey": "0014351e2b0c3fcbb0fd3cd227e52bff3b2bd98184d3",
      "scriptpubkey_asm": "OP_0 OP_PUSHBYTES_20 351e2b0c3fcbb0fd3cd227e52bff3b2bd98184d3",
      "scriptpubkey_type": "v0_p2wpkh",
      "scriptpubkey_address": "bc1qx50zkrplewc060xjyljjhlem90vcrpxn08ayks",
      "value": 38477974
    },
    {
      "scriptpubkey": "0014175ead51beed58467b5a82d805ad612e07b39aca",
      "scriptpubkey_asm": "OP_0 OP_PUSHBYTES_20 175ead51beed58467b5a82d805ad612e07b39aca",
      "scriptpubkey_type": "v0_p2wpkh",
      "scriptpubkey_address": "bc1qza0265d7a4vyv766stvqtttp9crm8xk2ctx8hn",
      "value": 2926771
    }
  ],
  "size": 1113,
  "weight": 2190,
  "fee": 9240,
  "status": {
    "confirmed": true,
    "block_height": 834638,
    "block_hash": "000000000000000000025f742c626208ac87e0b7d15054abb4a19ca2d735a54e",
    "block_time": 1710405325
  },
  "hex": "010000000001070fe8fd4a98ac63d50731acdca31ff4996da3920d65547a912518aab5f20b33230000000000ffffffff4b5fc724140066d01a13654b1351fe8a40d7d8c17838dcb6e782fa6715418eab0000000000ffffffffbebe57c3c96f3886123c65808c18fb0f91c4fc71bc17d37ebdd2e1a8c39e4dc80800000000ffffffffaf9a0c76c7dd3af628b3014abdacfbb0bec540da83be3a61a7725be4dcae5b860100000000ffffffff310bf49ab438c8bd3e28a09b0f9360d1c5a2a2048b61d413330dc3693339672f0200000000ffffffffaf9a0c76c7dd3af628b3014abdacfbb0bec540da83be3a61a7725be4dcae5b860400000000ffffffff153430ed1bbe44e754a916eada16adf811009f4795abc4ab17e38a072c2631e70100000000ffffffff0296204b0200000000160014351e2b0c3fcbb0fd3cd227e52bff3b2bd98184d3b3a82c0000000000160014175ead51beed58467b5a82d805ad612e07b39aca0247304402203b9c79b4e37bb4d31770f1f63493426049dbb87e138b67eb67fe808ab65d4c9d02202f41ab924eb0125321e44bdadcb769f483396fbed52fab2fc484d6e13fd36998012102236c152077fbf004964095976cdadfeb157f4c155cf759bce2053db5d96327e60247304402201015be1a0976b680b713a6b35d7cf2dadca4eaf3768d328095d638416f50c6bc022033ace7d1b9bcb5f45969da48322b6935a661960bb24f3050ed2463b137e76920012103457cf9c3f1be3ac9294f5400857a160496bce1a0d175f14a45b46a0de75cf8980247304402206241ea603e374af1b4e27c6b797a5be266bd15942490b92120953130aa49325f02202c73b91e19960f865e76402afd78e97d7c50a306c1d550a600a895f6ae2c802e012102d3a2e5ee4e3584a080d2be48c761b681470a477fb679eb0fdb2b6fd3a33d7e4802483045022100c12fca3db26b6a534b51e99fd81412239ca4307a10f71bdf7dadea47739a361502206181199c233337b40451b8e9492ecdfa2b04f02737f2a34d6224ebc2d21043b2012102d845c5438b767c39d578fc409a6049703243d1b2ee5ec6f30e6dc25cc8454b3902483045022100e7f3aa41386c2a44547ca701a99759706be9feeba32ddc77460473a4e5c42eba022052391a9dc529eb45019d9e293c6812eb0249167fa335195a707ebff0a067cfd60121025824b02d8bbbe14a3a94b3a3cc6749bb40cf7e4d755de15c71c7b9b8c2fccebe02473044022054932658e558ab9b6b9579692e31af166a5a92d5aa4e3535a718e520f57a6f5d022015553eaefe00f960d485c547ed9af638fe93a2e9f41ffc0b91273813c442d59801210303333a4845242d9a847a399d5fa9190368605d7ee2824123b3be01fa103f4f2c024830450221009877ebebafa0a45d5f86b303a2c636cdf993e5f03415a45890c7d3bda04ac59002201d671f3b59db2b23c2b5102e301318a857e9a718d21a8816aa3b2dc90cf3ca6f012103459f0f4575996eb42f230501e3821a75140bce6c760afdd9554706ee8667d78e00000000"
}