{
  "txid": "50b07d5766b622b4f56e7b14c54ba7e3d005fb9b7f4b058d42acc472f3cdde99",
  "version": 1,
  "locktime": 0,
  "vin": [
    {
      "txid": "80dfbcc645cb29eae12c0648129a4f1852cba76f8fa1a88f61860f4f1046e3d3",
      "vout": 0,
      "prevout": {
        "scriptpubkey": "a9146de4494e6f930f0867eb58eca229720bccb7c62587",
        "scriptpubkey_asm": "OP_HASH160 OP_PUSHBYTES_20 6de4494e6f930f0867eb58eca229720bccb7c625 OP_EQUAL",
        "scriptpubkey_type": "p2sh",
        "scriptpubkey_address": "3Bi544rAMK9SFv52zY99ugzdY6iduYnWJr",
        "value": 170000
      },
      "scriptsig": "160014f98793a20a92270368dc3888fdbc3f9ef4cc5281",
      "scriptsig_asm": "OP_PUSHBYTES_22 0014f98793a20a92270368dc3888fdbc3f9ef4cc5281",
      "witness": [
        "30450221008e7abfe0731544cfd730464b7646804e5b430b8cf96c9398d4d2c1ed1e54faa702206c570c5cf488ae35d12bc746e954c563c6b9a15014da29f3c125d7db6ad710d201",
        "034db4f3a47b636126fdf927abc49b8a26ab011ef541ec323b267f496f0d94898c"
      ],
      "is_coinbase": false,
      "sequence": 4294967280,
      "inner_redeemscript_asm": "OP_0 OP_PUSHBYTES_20 f98793a20a92270368dc3888fdbc3f9ef4cc5281"
    },
    {
      "txid": "1c0138c0fdb55bd8d39a40e85474a84931cb59442b0769e8710737dbf02d60d6",
      "vout": 0,
      "prevout": {
        "scriptpubkey": "a914692699950498d495bdeb15c2290dea9ebacbb75a87",
        "scriptpubkey_asm": "OP_HASH160 OP_PUSHBYTES_20 692699950498d495bdeb15c2290dea9ebacbb75a OP_EQUAL",
        "scriptpubkey_type": "p2sh",
        "scriptpubkey_address": "3BH17f1QEcKgMeN6XzhHV4htnqhJSDVx95",
        "value": 90000
      },
      "scriptsig": "16001428f89aba8d05451efeb6a610ae31cf22d899dc64",
      "scriptsig_asm": "OP_PUSHBYTES_22 001428f89aba8d05451efeb6a610ae31cf22d899dc64",
      "witness": [
        "3045022100ce65d9098b287aee663c45475b4acfb40947d70925208f06cf907375c7b5636a02206af19b7f63cfce298801f743ed1eded0115c2b8dac40d4689c896515ed41506b01",
        "0240416e3da99e7c0fe925de15a8d8efc876e5319c2ae37787a01b90c6d63568ad"
      ],
      "is_coinbase": false,
      "sequence": 4294967280,
      "inner_redeemscript_asm": "OP_0 OP_PUSHBYTES_20 28f89aba8d05451efeb6a610ae31cf22d899dc64"
    },
    {
      "txid": "28e07f66023565f892fdf98012a6132c8af51107d2020e3ca4a5d5c0395a8c06",
      "vout": 1,
      "prevout": {
        "scriptpubkey": "a914855adc18b2405d8f12d8a8a0086bf5c6f8c38c0687",
        "scriptpubkey_asm": "OP_HASH160 OP_PUSHBYTES_20 855adc18b2405d8f12d8a8a0086bf5c6f8c38c06 OP_EQUAL",
        "scriptpubkey_type": "p2sh",
        "scriptpubkey_address": "3Dr8e6xCYBvLC7QmV3v5Hzn3Y7zUmknAW5",
        "value": 20000
      },
      "scriptsig": "160014c0600c58bd4e95bd804ee6d9ee596bf92e3bb0c4",
      "scriptsig_asm": "OP_PUSHBYTES_22 0014c0600c58bd4e95bd804ee6d9ee596bf92e3bb0c4",
      "witness": [
        "3044022077380f85054fb278d5f782eeaae569c56e94bacd479deb21dd2bc29801a0bedd022028d3ec4a0ab6e9c240ac0653c0d746f993b230e305aaf632be4d0b3eca7c524901",
        "03ab009e0f76e8765334338ab2b6dff24f4528112bae1d9eb3f577b5660faab615"
      ],
      "is_coinbase": false,
      "sequence": 4294967280,
      "inner_redeemscript_asm": "OP_0 OP_PUSHBYTES_20 c0600c58bd4e95bd804ee6d9ee596bf92e3bb0c4"
    },
    {
      "txid": "511136736e8ec26b7338fd3ed8fbbfac6cf25554a9095a79267323e0eefef737",
      "vout": 1,
      "prevout": {
        "scriptpubkey": "a91421fdfdbd89df6bddff2d766ee3b0291760e4d78a87",
        "scriptpubkey_asm": "OP_HASH160 OP_PUSHBYTES_20 21fdfdbd89df6bddff2d766ee3b0291760e4d78a OP_EQUAL",
        "scriptpubkey_type": "p2sh",
        "scriptpubkey_address": "34nkVVPWjYqdmmerbvbpaQyTZWWfeNKtGh",
        "value": 97000
      },
      "scriptsig": "1600141404db179a5587c8b93fea311190aca3d9804654",
      "scriptsig_asm": "OP_PUSHBYTES_22 00141404db179a5587c8b93fea311190aca3d9804654",
      "witness": [
        "3045022100c12d6d480d90faac711db890934b2219ea220d162a8ef1ab2c0b475d31b648e1022043ab0e0d06a4a97ed95fbabd5259dbe4f4515723444824192a9459c2cb933bf001",
        "028bf2f7c007901ef0edb0a8c01d139c4ff9c38f62fddbbc7ff4fa7e18b48c382c"
      ],
      "is_coinbase": false,
      "sequence": 4294967280,
      "inner_redeemscript_asm": "OP_0 OP_PUSHBYTES_20 1404db179a5587c8b93fea311190aca3d9804654"
    },
    {
      "txid": "23ea1e1e5323970896ecd98e65f3448600e0e5916bdaf1a7e908270b478ecc8e",
      "vout": 0,
      "prevout": {
        "scriptpubkey": "a914acdcd656cc8460d76f53592151a00a0c628eb41187",
        "scriptpubkey_asm": "OP_HASH160 OP_PUSHBYTES_20 acdcd656cc8460d76f53592151a00a0c628eb411 OP_EQUAL",
        "scriptpubkey_type": "p2sh",
        "scriptpubkey_address": "3HT2hadCyePRPC8U9g5xEBVzBS8MUGWxD2",
        "value": 20248
      },
      "scriptsig": "1600146e3c45684b0fc38dd0595cf250d22e7533434b7c",
      "scriptsig_asm": "OP_PUSHBYTES_22 00146e3c45684b0fc38dd0595cf250d22e7533434b7c",
      "witness": [
        "304402207a81b6d86d4e749a0d18a1e3a3c21ee0cdb6a5ae6d649f553a3ce1725f723fdb0220762cbcb2911ddfa29eda515c76cdd7e6388ee056b9ad36df0907dc33e7c1160501",
        "028addaf6f4d708f77bd92804a9f4579d75edb877d78132c90546c2e5af978e6d4"
      ],
      "is_coinbase": false,
      "sequence": 4294967280,
      "inner_redeemscript_asm": "OP_0 OP_PUSHBYTES_20 6e3c45684b0fc38dd0595cf250d22e7533434b7c"
    },
    {
      "txid": "894f48fb5d2641371bb122f592f74d0f293f1e16e60e4533484edbd6e0d9b1c6",
      "vout": 0,
      "prevout": {
        "scriptpubkey": "a9145eb41890b86d006414f3a03bca0760c4917c349c87",
        "scriptpubkey_asm": "OP_HASH160 OP_PUSHBYTES_20 5eb41890b86d006414f3a03bca0760c4917c349c OP_EQUAL",
        "scriptpubkey_type": "p2sh",
        "scriptpubkey_address": "3AKmBryFYxRCzZUVh2dAroYeNG5HyBL7o8",
        "value": 205460
      },
      "scriptsig": "16001462101e9c25f8c7e568340254adee986260dce815",
      "scriptsig_asm": "OP_PUSHBYTES_22 001462101e9c25f8c7e568340254adee986260dce815",
      "witness": [
        "30450221009a52ceee3c167141a4cd755e38e3baa7abf832b26043f6d61c042b1914e0747f022045d03462833b40d61198d3b4e9ae00c7e7e32be8aa7df57df91ef9da1b18f08501",
        "02ad09194a98fc9451ccee2e020374fa9924a8c8b487de771c4516ec14c98b3d97"
      ],
      "is_coinbase": false,
      "sequence": 4294967280,
      "inner_redeemscript_asm": "OP_0 OP_PUSHBYTES_20 62101e9c25f8c7e568340254adee986260dce815"
    },
    {
      "txid": "1e29bf9b505986ead7854d76797035af23231028909b6534e9dbe158a374bb56",
      "vout": 0,
      "prevout": {
        "scriptpubkey": "a9141f305b074c5f18c19af748dbd51a52d9f66e180e87",
        "scriptpubkey_asm": "OP_HASH160 OP_PUSHBYTES_20 1f305b074c5f18c19af748dbd51a52d9f66e180e OP_EQUAL",
        "scriptpubkey_type": "p2sh",
        "scriptpubkey_address": "34XvoJ4z5MGRfPUvqqkHvPosFaZkFhC7dy",
        "value": 213205
      },
      "scriptsig": "160014cb6d7499e7b176b8f5ba6344b04272073ac4d692",
      "scriptsig_asm": "OP_PUSHBYTES_22 0014cb6d7499e7b176b8f5ba6344b04272073ac4d692",
      "witness": [
        "3045022100c18f840e2c74e67068712d57ee1bbd724f6d2ff83a5536a5ec2ae5ca524cca1302205761df5e0b7c37501931f01f3ddb829aac8aa9eae14230b90f91f9693b0a472101",
        "033e7d69f9e1bf0b534441b0b7ce148c8cea99bef6de8fd3118e448fe6f972a836"
      ],
      "is_coinbase": false,
      "sequence": 4294967280,
      "inner_redeemscript_asm": "OP_0 OP_PUSHBYTES_20 cb6d7499e7b176b8f5ba6344b04272073ac4d692"
    },
    {
      "txid": "72abf6cda06ab9b456a67721ddbdaad5dce2404a1d201bd9eaa1f318ffc6e765",
      "vout": 71,
      "prevout": {
        "scriptpubkey": "a91464b285d5b55d7812a446b103ca44eab870045c9687",
        "scriptpubkey_asm": "OP_HASH160 OP_PUSHBYTES_20 64b285d5b55d7812a446b103ca44eab870045c96 OP_EQUAL",
        "scriptpubkey_type": "p2sh",
        "scriptpubkey_address": "3AsTMi1UGesBUhQVL3KqHsh72Nejurfcwt",
        "value": 37370
      },
      "scriptsig": "16001430ead3c9b7021b26c394fc08bc7b6873ddabbad6",
      "scriptsig_asm": "OP_PUSHBYTES_22 001430ead3c9b7021b26c394fc08bc7b6873ddabbad6",
      "witness": [
        "304402207d13d5d946b5932da1ac174319ef9b38c4ef37d7977c79ad7665957a9617f87602205f55aade8b5de0fbf5ef0fd47f2f13f32a231982668ba5d8d2742780cceb69fc01",
        "0394ed90ac414ff46194e223dd6a8b6d9524520fadbcbb0843980eeb7b95605c7b"
      ],
      "is_coinbase": false,
      "sequence": 4294967280,
      "inner_redeemscript_asm": "OP_0 OP_PUSHBYTES_20 30ead3c9b7021b26c394fc08bc7b6873ddabbad6"
    },
    {
      "txid": "2dcbef7ab6a5bac591ecc3546b1b029c58dd829a02cd8daa6ad23164b75f9a8f",
      "vout": 0,
      "prevout": {
        "scriptpubkey": "a914f432786e0f05131d47df2ef32868d9ba1d52a05f87",
        "scriptpubkey_asm": "OP_HASH160 OP_PUSHBYTES_20 f432786e0f05131d47df2ef32868d9ba1d52a05f OP_EQUAL",
        "scriptpubkey_type": "p2sh",
        "scriptpubkey_address": "3PxDG6bXG5ymfix5txegz1V5ufwTWQ6GRo",
        "value": 25557
      },
      "scriptsig": "1600144716aaf6707c35418fbba439d93d5bcb3065a15b",
      "scriptsig_asm": "OP_PUSHBYTES_22 00144716aaf6707c35418fbba439d93d5bcb3065a15b",
      "witness": [
        "3045022100c8890f356673346b8c2e28e3857e8976d05fa34027a9bb8ef6343634ac82662502204290b71b43a9542243b8a4a6619c2063e012bdaf22350f01580b810a79bf19b301",
        "035088aee1ecf7bbe8a5f9a7b58069c02cbafabdb0e58ad40ca6025f94e8605206"
      ],
      "is_coinbase": false,
      "sequence": 4294967280,
      "inner_redeemscript_asm": "OP_0 OP_PUSHBYTES_20 4716aaf6707c35418fbba439d93d5bcb3065a15b"
    }
  ],
  "vout": [
    {
      "scriptpubkey": "a914423877331b30a905240c7e1f2adee4ebaa47c5f687",
      "scriptpubkey_asm": "OP_HASH160 OP_PUSHBYTES_20 423877331b30a905240c7e1f2adee4ebaa47c5f6 OP_EQUAL",
      "scriptpubkey_type": "p2sh",
      "scriptpubkey_address": "37jAAWEdJ9D9mXybRobcveioxSkt7Lkwog",
      "value": 844360
    }
  ],
  "size": 1589,
  "weight": 3443,
  "fee": 34480,
  "status": {
    "confirmed": true,
    "block_height": 834638,
    "block_hash": "000000000000000000025f742c626208ac87e0b7d15054abb4a19ca2d735a54e",
    "block_time": 1710405325
  },
  "hex": "01000000000109d3e346104f0f86618fa8a18f6fa7cb52184f9a1248062ce1ea29cb45c6bcdf800000000017160014f98793a20a92270368dc3888fdbc3f9ef4cc5281f0ffffffd6602df0db370771e869072b4459cb3149a87454e8409ad3d85bb5fdc038011c000000001716001428f89aba8d05451efeb6a610ae31cf22d899dc64f0ffffff068c5a39c0d5a5a43c0e02d20711f58a2c13a61280f9fd92f8653502667fe0280100000017160014c0600c58bd4e95bd804ee6d9ee596bf92e3bb0c4f0ffffff37f7feeee0237326795a09a95455f26cacbffbd83efd38736bc28e6e7336115101000000171600141404db179a5587c8b93fea311190aca3d9804654f0ffffff8ecc8e470b2708e9a7f1da6b91e5e0008644f3658ed9ec96089723531e1eea2300000000171600146e3c45684b0fc38dd0595cf250d22e7533434b7cf0ffffffc6b1d9e0d6db4e4833450ee6161e3f290f4df792f522b11b3741265dfb484f89000000001716001462101e9c25f8c7e568340254adee986260dce815f0ffffff56bb74a358e1dbe934659b9028102323af357079764d85d7ea8659509bbf291e0000000017160014cb6d7499e7b176b8f5ba6344b04272073ac4d692f0ffffff65e7c6ff18f3a1ead91b201d4a40e2dcd5aabddd2177a656b4b96aa0cdf6ab72470000001716001430ead3c9b7021b26c394fc08bc7b6873ddabbad6f0ffffff8f9a5fb76431d26aaa8dcd029a82dd589c021b6b54c3ec91c5baa5b67aefcb2d00000000171600144716aaf6707c35418fbba439d93d5bcb3065a15bf0ffffff0148e20c000000000017a914423877331b30a905240c7e1f2adee4ebaa47c5f687024830450221008e7abfe0731544cfd730464b7646804e5b430b8cf96c9398d4d2c1ed1e54faa702206c570c5cf488ae35d12bc746e954c563c6b9a15014da29f3c125d7db6ad710d20121034db4f3a47b636126fdf927abc49b8a26ab011ef541ec323b267f496f0d94898c02483045022100ce65d9098b287aee663c45475b4acfb40947d70925208f06cf907375c7b5636a02206af19b7f63cfce298801f743ed1eded0115c2b8dac40d4689c896515ed41506b01210240416e3da99e7c0fe925de15a8d8efc876e5319c2ae37787a01b90c6d63568ad02473044022077380f85054fb278d5f782eeaae569c56e94bacd479deb21dd2bc29801a0bedd022028d3ec4a0ab6e9c240ac0653c0d746f993b230e305aaf632be4d0b3eca7c5249012103ab009e0f76e8765334338ab2b6dff24f4528112bae1d9eb3f577b5660faab61502483045022100c12d6d480d90faac711db890934b2219ea220d162a8ef1ab2c0b475d31b648e1022043ab0e0d06a4a97ed95fbabd5259dbe4f4515723444824192a9459c2cb933bf00121028bf2f7c007901ef0edb0a8c01d139c4ff9c38f62fddbbc7ff4fa7e18b48c382c0247304402207a81b6d86d4e749a0d18a1e3a3c21ee0cdb6a5ae6d649f553a3ce1725f723fdb0220762cbcb2911ddfa29eda515c76cdd7e6388ee056b9ad36df0907dc33e7c116050121028addaf6f4d708f77bd92804a9f4579d75edb877d78132c90546c2e5af978e6d4024830450221009a52ceee3c167141a4cd755e38e3baa7abf832b26043f6d61c042b1914e0747f022045d03462833b40d61198d3b4e9ae00c7e7e32be8aa7df57df91ef9da1b18f085012102ad09194a98fc9451ccee2e020374fa9924a8c8b487de771c4516ec14c98b3d9702483045022100c18f840e2c74e67068712d57ee1bbd724f6d2ff83a5536a5ec2ae5ca524cca1302205761df5e0b7c37501931f01f3ddb829aac8aa9eae14230b90f91f9693b0a47210121033e7d69f9e1bf0b534441b0b7ce148c8cea99bef6de8fd3118e448fe6f972a8360247304402207d13d5d946b5932da1ac174319ef9b38c4ef37d7977c79ad7665957a9617f87602205f55aade8b5de0fbf5ef0fd47f2f13f32a231982668ba5d8d2742780cceb69fc01210394ed90ac414ff46194e223dd6a8b6d9524520fadbcbb0843980eeb7b95605c7b02483045022100c8890f356673346b8c2e28e3857e8976d05fa34027a9bb8ef6343634ac82662502204290b71b43a9542243b8a4a6619c2063e012bdaf22350f01580b810a79bf19b30121035088aee1ecf7bbe8a5f9a7b58069c02cbafabdb0e58ad40ca6025f94e860520600000000"
}