{
  "txid": "50bd273b5b763b0ca1596bd715dde964d8b86f60cb579c9e0a2fe1a9c0ffde5d",
  "version": 2,
  "locktime": 0,
  "vin": [
    {
      "txid": "c1bdf359b65d497d89c223dfc867c7edaa472d071c3e92d1302f98fe380fa5c8",
      "vout": 2,
      "prevout": {
        "scriptpubkey": "00142c34a9a42b5c7b5152f6d6830af38b1c49e051c5",
        "scriptpubkey_asm": "OP_0 OP_PUSHBYTES_20 2c34a9a42b5c7b5152f6d6830af38b1c49e051c5",
        "scriptpubkey_type": "v0_p2wpkh",
        "scriptpubkey_address": "bc1q9s62nfptt3a4z5hk66ps4uutr3y7q5w95lhvdh",
        "value": 14228688
      },
      "scriptsig": "",
      "scriptsig_asm": "",
      "witness": [
        "3045022100af2981213453f62b6d3fadec2e24acb294bccf3e5c2895f3668a5106b0a3856c022043dc0fc46fc1b7462a4d0b629d0445d226df9a4af75aa3722a5bf96fe9fc442401",
        "03199b847be371b484bcae54916366726b6cdc9848f1fe5906b9ea58b8a2f49177"
      ],
      "is_coinbase": false,
      "sequence": 4294967295
    },
    {
      "txid": "f4c317580e4472013081c20e0ebf0b94e080f2b33fab11902ce3890cd818e22b",
      "vout": 2,
      "prevout": {
        "scriptpubkey": "0014cff913711a60905e65a243787bd3c35375b87ff5",
        "scriptpubkey_asm": "OP_0 OP_PUSHBYTES_20 cff913711a60905e65a243787bd3c35375b87ff5",
        "scriptpubkey_type": "v0_p2wpkh",
        "scriptpubkey_address": "bc1qelu3xug6vzg9uedzgdu8h57r2d6msll464w9cf",
        "value": 14123164
      },
      "scriptsig": "",
      "scriptsig_asm": "",
      "witness": [
        "3044022079c3e9dda5a378902dac27b1a8410078cc7ee52a214c46ad019bc10e1e26c7c002204821b1cfd4f93e44891d42deaabe7d86d439d0e37a940aca6ca1fe7bd2e0318b01",
        "03251ac7ae9b0c96ef01d9a0a1f27117afcc8c5ca6f427c38de11afa5842005470"
      ],
      "is_coinbase": false,
      "sequence": 4294967295
    }
  ],
  "vout": [
    {
      "scriptpubkey": "0014406d75eacba291b4a4872db8f928476c62d3aada",
      "scriptpubkey_asm": "OP_0 OP_PUSHBYTES_20 406d75eacba291b4a4872db8f928476c62d3aada",
      "scriptpubkey_type": "v0_p2wpkh",
      "scriptpubkey_address": "bc1qgpkht6kt52gmffy89ku0j2z8d33d82k6upmpm9",
      "value": 75000
    },
    {
      "scriptpubkey": "76a914edd639e0d0dd17eb5e7c118f322e0687d007697488ac",
      "scriptpubkey_asm": "OP_DUP OP_HASH160 OP_PUSHBYTES_20 edd639e0d0dd17eb5e7c118f322e0687d0076974 OP_EQUALVERIFY OP_CHECKSIG",
      "scriptpubkey_type": "p2pkh",
      "scriptpubkey_address": "1NgZn9tZLQPGcP3HzwJ1E6Cdfdu6tnoAzu",
      "value": 129977
    },
    {
      "scriptpubkey": "001498b384eb6e4364e00521d923a23a2b946da678c8",
      "scriptpubkey_asm": "OP_0 OP_PUSHBYTES_20 98b384eb6e4364e00521d923a23a2b946da678c8",
      "scriptpubkey_type": "v0_p2wpkh",
      "scriptpubkey_address": "bc1qnzecf6mwgdjwqpfpmy36yw3tj3k6v7xg5j8kuc",
      "value": 337406
    },
    {
      "scriptpubkey": "0014f80c120d47ca064d867f70aa7486473d995568af",
      "scriptpubkey_asm": "OP_0 OP_PUSHBYTES_20 f80c120d47ca064d867f70aa7486473d995568af",
      "scriptpubkey_type": "v0_p2wpkh",
      "scriptpubkey_address": "bc1qlqxpyr28egrympnlwz48fpj88kv42690pa4uaa",
      "value": 451885
    },
    {
      "scriptpubkey": "0014a63b674c8b0495dc0561e6e67747c7a0bbe6cd7b",
      "scriptpubkey_asm": "OP_0 OP_PUSHBYTES_20 a63b674c8b0495dc0561e6e67747c7a0bbe6cd7b",
      "scriptpubkey_type": "v0_p2wpkh",
      "scriptpubkey_address": "bc1q5cakwnytqj2acptpumn8w3785za7dntmypesyu",
      "value": 545012
    },
    {
      "scriptpubkey": "00148653c8ab26f6c79948230164b1d028d75092d367",
      "scriptpubkey_asm": "OP_0 OP_PUSHBYTES_20 8653c8ab26f6c79948230164b1d028d75092d367",
      "scriptpubkey_type": "v0_p2wpkh",
      "scriptpubkey_address": "bc1qsefu32ex7mrejjprq9jtr5pg6agf95m8msuc7t",
      "value": 557890
    },
    {
      "scriptpubkey": "001498b2bcac157a6a285836e87c78f54028a30c1032",
      "scriptpubkey_asm": "OP_0 OP_PUSHBYTES_20 98b2bcac157a6a285836e87c78f54028a30c1032",
      "scriptpubkey_type": "v0_p2wpkh",
      "scriptpubkey_address": "bc1qnzetetq40f4zskpkap783a2q9z3scypj879g4d",
      "value": 711309
    },
    {
      "scriptpubkey": "0014fb6bddb678adfd9174c5a7dd7a3d14eb63a85f0e",
      "scriptpubkey_asm": "OP_0 OP_PUSHBYTES_20 fb6bddb678adfd9174c5a7dd7a3d14eb63a85f0e",
      "scriptpubkey_type": "v0_p2wpkh",
      "scriptpubkey_address": "bc1qld4amdnc4h7ezax95lwh50g5ad36shcwtq79fd",
      "value": 3395325
    },
    {
      "scriptpubkey": "0014ae1d526b655cf4887b355adc074d4d87684af905",
      "scriptpubkey_asm": "OP_0 OP_PUSHBYTES_20 ae1d526b655cf4887b355adc074d4d87684af905",
      "scriptpubkey_type": "v0_p2wpkh",
      "scriptpubkey_address": "bc1q4cw4y6m9tn6gs7e4ttwqwn2dsa5y47g9ehglls",
      "value": 5325255
    },
    {
      "scriptpubkey": "00148d74d80a1027b1affcd73fa94c79ca04c6db79b6",
      "scriptpubkey_asm": "OP_0 OP_PUSHBYTES_20 8d74d80a1027b1affcd73fa94c79ca04c6db79b6",
      "scriptpubkey_type": "v0_p2wpkh",
      "scriptpubkey_address": "bc1q346dszssy7c6llxh8755c7w2qnrdk7dkhu4j39",
      "value": 6814921
    },
    {
      "scriptpubkey": "00144419f1b7407855e0aaaed51cd1ff55df556236a3",
      "scriptpubkey_asm": "OP_0 OP_PUSHBYTES_20 4419f1b7407855e0aaaed51cd1ff55df556236a3",
      "scriptpubkey_type": "v0_p2wpkh",
      "scriptpubkey_address": "bc1qgsvlrd6q0p27p24w65wdrl64ma2kyd4r2e8ztv",
      "value": 10000000
    }
  ],
  "size": 653,
  "weight": 1961,
  "fee": 7872,
  "status": {
    "confirmed": true,
    "block_height": 834638,
    "block_hash": "000000000000000000025f742c626208ac87e0b7d15054abb4a19ca2d735a54e",
    "block_time": 1710405325
  },
  "hex": "02000000000102c8a50f38fe982f30d1923e1c072d47aaedc767c8df23c2897d495db659f3bdc10200000000ffffffff2be218d80c89e32c9011ab3fb3f280e0940bbf0e0ec281300172440e5817c3f40200000000ffffffff0bf824010000000000160014406d75eacba291b4a4872db8f928476c62d3aadab9fb0100000000001976a914edd639e0d0dd17eb5e7c118f322e0687d007697488acfe2505000000000016001498b384eb6e4364e00521d923a23a2b946da678c82de5060000000000160014f80c120d47ca064d867f70aa7486473d995568aff450080000000000160014a63b674c8b0495dc0561e6e67747c7a0bbe6cd7b42830800000000001600148653c8ab26f6c79948230164b1d028d75092d3678dda0a000000000016001498b2bcac157a6a285836e87c78f54028a30c1032fdce330000000000160014fb6bddb678adfd9174c5a7dd7a3d14eb63a85f0ec741510000000000160014ae1d526b655cf4887b355adc074d4d87684af905c9fc6700000000001600148d74d80a1027b1affcd73fa94c79ca04c6db79b680969800000000001600144419f1b7407855e0aaaed51cd1ff55df556236a302483045022100af2981213453f62b6d3fadec2e24acb294bccf3e5c2895f3668a5106b0a3856c022043dc0fc46fc1b7462a4d0b629d0445d226df9a4af75aa3722a5bf96fe9fc4424012103199b847be371b484bcae54916366726b6cdc9848f1fe5906b9ea58b8a2f4917702473044022079c3e9dda5a378902dac27b1a8410078cc7ee52a214c46ad019bc10e1e26c7c002204821b1cfd4f93e44891d42deaabe7d86d439d0e37a940aca6ca1fe7bd2e0318b012103251ac7ae9b0c96ef01d9a0a1f27117afcc8c5ca6f427c38de11afa584200547000000000"
}