{
  "txid": "50bf276885c4d4411e56e39ef1e567cc689cf9ff42f05f4c1ff92935353bd55e",
  "version": 2,
  "locktime": 0,
  "vin": [
    {
      "txid": "acc3ba00869acb582a3f2904ce3a11dd3779350ce234063fc7d0959246213364",
      "vout": 140,
      "prevout": {
        "scriptpubkey": "512068c96de009d518659f98155aaf5dcf497001b9c394ce8a980ca98ad74d522e7a",
        "scriptpubkey_asm": "OP_PUSHNUM_1 OP_PUSHBYTES_32 68c96de009d518659f98155aaf5dcf497001b9c394ce8a980ca98ad74d522e7a",
        "scriptpubkey_type": "v1_p2tr",
        "scriptpubkey_address": "bc1pdrykmcqf65vxt8ucz4d27hw0f9cqrwwrjn8g4xqv4x9dwn2j9eaqkz3yw6",
        "value": 1806
      },
      "scriptsig": "",
      "scriptsig_asm": "",
      "witness": [
        "6e75e7e97f2ff823a153a063bcd1e09a4ac676302e1b2fd3791d16e11d375c05cc2de48730d2df48ce4f95e47283ce140372d7cb03a2d4ea25b5322065f09779",
        "2012ac8d8cff422f63c46d94e55a7360c429b675da0599c0b5460207cd17d742d0ac0063036f726401010a746578742f706c61696e00357b2270223a226272632d3230222c226f70223a226d696e74222c227469636b223a22646f6765222c22616d74223a2234323030227d68",
        "c012ac8d8cff422f63c46d94e55a7360c429b675da0599c0b5460207cd17d742d0"
      ],
      "is_coinbase": false,
      "sequence": 4261412863
    }
  ],
  "vout": [
    {
      "scriptpubkey": "00147a665de7a370f4c9b372ab1fae587500a5bcbdb4",
      "scriptpubkey_asm": "OP_0 OP_PUSHBYTES_20 7a665de7a370f4c9b372ab1fae587500a5bcbdb4",
      "scriptpubkey_type": "v0_p2wpkh",
      "scriptpubkey_address": "bc1q0fn9mearwr6vnvmj4v06ukr4qzjme0d565dzcx",
      "value": 294
    }
  ],
  "size": 294,
  "weight": 540,
  "fee": 1512,
  "status": {
    "confirmed": true,
    "block_height": 834460,
    "block_hash": "00000000000000000000484a79b643b2524bbce82e5d8a442013fa5b8905ed98",
    "block_time": 1710307468
  },
  "hex": "02000000000101643321469295d0c73f0634e20c357937dd113ace04293f2a58cb9a8600bac3ac8c00000000fffffffd0126010000000000001600147a665de7a370f4c9b372ab1fae587500a5bcbdb403406e75e7e97f2ff823a153a063bcd1e09a4ac676302e1b2fd3791d16e11d375c05cc2de48730d2df48ce4f95e47283ce140372d7cb03a2d4ea25b5322065f097796d2012ac8d8cff422f63c46d94e55a7360c429b675da0599c0b5460207cd17d742d0ac0063036f726401010a746578742f706c61696e00357b2270223a226272632d3230222c226f70223a226d696e74222c227469636b223a22646f6765222c22616d74223a2234323030227d6821c012ac8d8cff422f63c46d94e55a7360c429b675da0599c0b5460207cd17d742d000000000"
}