{
  "txid": "50d4b5399260e4c5217c77304a0e0763c4e592225b1816e4993a57f9d7c9e35f",
  "version": 2,
  "locktime": 0,
  "vin": [
    {
      "txid": "5cffe6f44accc9a10b24fe1c5537024f5000e084d069f1f1f9528962fdb56a9d",
      "vout": 0,
      "prevout": {
        "scriptpubkey": "512057afc1ed0d50361076966b7d9a815e1d25b7e5b7ecafc0d9ba34576cd834fb0c",
        "scriptpubkey_asm": "OP_PUSHNUM_1 OP_PUSHBYTES_32 57afc1ed0d50361076966b7d9a815e1d25b7e5b7ecafc0d9ba34576cd834fb0c",
        "scriptpubkey_type": "v1_p2tr",
        "scriptpubkey_address": "bc1p27hurmgd2qmpqa5kdd7e4q27r5jm0edhajhupkd6x3tkekp5lvxq8ueccf",
        "value": 8629
      },
      "scriptsig": "",
      "scriptsig_asm": "",
      "witness": [
        "d963ed6941c03e777667726910cc9a505ea81bbd47f25852582b84361e393b01b703b9afd47f47929d11444978b1846951fb544b06d1b4c3fcbdd432d437a1fc",
        "20cd2d1ff5879838a6422e21125b7d58be264786ace7087fb5a1a8da579c878852ac0063036f726401010a746578742f706c61696e004c8f7b2270223a2022746170222c20226f70223a2022646d742d6d696e74222c2022646570223a2022333962373532343338626533613435326464623731376230613635346233313662316164343661383139656234343831383933626337313331663738396539616930222c20227469636b223a20226e61746f776c73222c2022626c6b223a2022373035373131227d68",
        "c1cd2d1ff5879838a6422e21125b7d58be264786ace7087fb5a1a8da579c878852"
      ],
      "is_coinbase": false,
      "sequence": 4294967293
    }
  ],
  "vout": [
    {
      "scriptpubkey": "5120875b27e2ebaa1189ad1777eb124b8f0cd3dfe933d9a47622ffca147caaca54b5",
      "scriptpubkey_asm": "OP_PUSHNUM_1 OP_PUSHBYTES_32 875b27e2ebaa1189ad1777eb124b8f0cd3dfe933d9a47622ffca147caaca54b5",
      "scriptpubkey_type": "v1_p2tr",
      "scriptpubkey_address": "bc1psadj0cht4ggcntghwl43yju0pnfal6fnmxj8vghleg28e2k22j6s05x69l",
      "value": 546
    },
    {
      "scriptpubkey": "51200008255431089e7c1675392b385f2d5adac23fabb17d7d16dcafd5b23e787e65",
      "scriptpubkey_asm": "OP_PUSHNUM_1 OP_PUSHBYTES_32 0008255431089e7c1675392b385f2d5adac23fabb17d7d16dcafd5b23e787e65",
      "scriptpubkey_type": "v1_p2tr",
      "scriptpubkey_address": "bc1pqqyz24p3pz08c9n48y4nshedttdvy0atk97h69ku4l2my0nc0ejsv0h7gu",
      "value": 2923
    },
    {
      "scriptpubkey": "001484306f02e84950eb425978beb4106e8896c4fca6",
      "scriptpubkey_asm": "OP_0 OP_PUSHBYTES_20 84306f02e84950eb425978beb4106e8896c4fca6",
      "scriptpubkey_type": "v0_p2wpkh",
      "scriptpubkey_address": "bc1qsscx7qhgf9gwksje0zltgyrw3ztvfl9x6zj6m2",
      "value": 1744
    }
  ],
  "size": 471,
  "weight": 975,
  "fee": 3416,
  "status": {
    "confirmed": true,
    "block_height": 834460,
    "block_hash": "00000000000000000000484a79b643b2524bbce82e5d8a442013fa5b8905ed98",
    "block_time": 1710307468
  },
  "hex": "020000000001019d6ab5fd628952f9f1f169d084e000504f0237551cfe240ba1c9cc4af4e6ff5c0000000000fdffffff032202000000000000225120875b27e2ebaa1189ad1777eb124b8f0cd3dfe933d9a47622ffca147caaca54b56b0b0000000000002251200008255431089e7c1675392b385f2d5adac23fabb17d7d16dcafd5b23e787e65d00600000000000016001484306f02e84950eb425978beb4106e8896c4fca60340d963ed6941c03e777667726910cc9a505ea81bbd47f25852582b84361e393b01b703b9afd47f47929d11444978b1846951fb544b06d1b4c3fcbdd432d437a1fcc820cd2d1ff5879838a6422e21125b7d58be264786ace7087fb5a1a8da579c878852ac0063036f726401010a746578742f706c61696e004c8f7b2270223a2022746170222c20226f70223a2022646d742d6d696e74222c2022646570223a2022333962373532343338626533613435326464623731376230613635346233313662316164343661383139656234343831383933626337313331663738396539616930222c20227469636b223a20226e61746f776c73222c2022626c6b223a2022373035373131227d6821c1cd2d1ff5879838a6422e21125b7d58be264786ace7087fb5a1a8da579c87885200000000"
}