{
  "txid": "50d96c43c78ee35c96954ecb5e72be8d0142f6810c928a3c57e7590458f5b16e",
  "version": 2,
  "locktime": 834637,
  "vin": [
    {
      "txid": "a27cebdf5ea140d5a01e70713d8f483ec273482721f8ee7357a2b21aeb88b675",
      "vout": 1,
      "prevout": {
        "scriptpubkey": "0014dce6a965c09d7a6335885d282bcd9fa288b03cb7",
        "scriptpubkey_asm": "OP_0 OP_PUSHBYTES_20 dce6a965c09d7a6335885d282bcd9fa288b03cb7",
        "scriptpubkey_type": "v0_p2wpkh",
        "scriptpubkey_address": "bc1qmnn2jewqn4axxdvgt55zhnvl52ytq09h3qwr7d",
        "value": 242605736
      },
      "scriptsig": "",
      "scriptsig_asm": "",
      "witness": [
        "30440220164598c40cd392db025e6a3bf560dc96b0802d3a20e4f945c6a54247c0fc8a230220227bccdc5e083003ee3aabf6b6c4b4f12585fda5bf3689db6a3284e30fbe99b601",
        "0252be5d384f7559ece96d579d5febfc351ed2a9fa17efe4b35a72f13a40575293"
      ],
      "is_coinbase": false,
      "sequence": 4294967294
    }
  ],
  "vout": [
    {
      "scriptpubkey": "0014174a6c0900a825468cc43d6b381aeca8f269ccef",
      "scriptpubkey_asm": "OP_0 OP_PUSHBYTES_20 174a6c0900a825468cc43d6b381aeca8f269ccef",
      "scriptpubkey_type": "v0_p2wpkh",
      "scriptpubkey_address": "bc1qza9xczgq4qj5drxy844nsxhv4rexnn80ewr9vf",
      "value": 6196700
    },
    {
      "scriptpubkey": "00145c79d05b5c93ff50ad3a28914f283159461c2a6f",
      "scriptpubkey_asm": "OP_0 OP_PUSHBYTES_20 5c79d05b5c93ff50ad3a28914f283159461c2a6f",
      "scriptpubkey_type": "v0_p2wpkh",
      "scriptpubkey_address": "bc1qt3uaqk6uj0l4ptf69zg572p3t9rpc2n0uwtmpr",
      "value": 236405580
    }
  ],
  "size": 222,
  "weight": 561,
  "fee": 3456,
  "status": {
    "confirmed": true,
    "block_height": 834638,
    "block_hash": "000000000000000000025f742c626208ac87e0b7d15054abb4a19ca2d735a54e",
    "block_time": 1710405325
  },
  "hex": "0200000000010175b688eb1ab2a25773eef821274873c23e488f3d71701ea0d540a15edfeb7ca20100000000feffffff02dc8d5e0000000000160014174a6c0900a825468cc43d6b381aeca8f269ccef4c43170e000000001600145c79d05b5c93ff50ad3a28914f283159461c2a6f024730440220164598c40cd392db025e6a3bf560dc96b0802d3a20e4f945c6a54247c0fc8a230220227bccdc5e083003ee3aabf6b6c4b4f12585fda5bf3689db6a3284e30fbe99b601210252be5d384f7559ece96d579d5febfc351ed2a9fa17efe4b35a72f13a405752934dbc0c00"
}