{
  "txid": "5110ca4464b82e4b1052b926328945326f4e466c1663a8fcac45dad23cb451dc",
  "version": 2,
  "locktime": 0,
  "vin": [
    {
      "txid": "4ee77778659dcfe8d7a4e15882fc6193f4f3d5f6607624e256337b44c2280af5",
      "vout": 41,
      "prevout": {
        "scriptpubkey": "5120cf3eeaffc33ee0a801fe11462c51581654028201c59a2b853a046c6b893da445",
        "scriptpubkey_asm": "OP_PUSHNUM_1 OP_PUSHBYTES_32 cf3eeaffc33ee0a801fe11462c51581654028201c59a2b853a046c6b893da445",
        "scriptpubkey_type": "v1_p2tr",
        "scriptpubkey_address": "bc1peulw4l7r8ms2sq07z9rzc52cze2q9qspckdzhpf6q3kxhzfa53zstdjc3k",
        "value": 2075
      },
      "scriptsig": "",
      "scriptsig_asm": "",
      "witness": [
        "38eec36cf9c7bac9a483bf5c1e69fa169b1dd3666f5a156f2a00034aa7c495bcceb541750a79a3d15e4d533ce232fd6cba079bc792cb1271eefac0fa555220c1",
        "20a51ae495aa4042110ac0fa8a2b2bf8d63db47867a65af0e0168355caba7053beac0063036f7264010118746578742f706c61696e3b636861727365743d7574662d3800357b2270223a224252432d313030222c226f70223a226d696e74222c227469636b223a22696e73222c22616d74223a2231303030227d68",
        "c1c50eac15d7d7889f5ad84f80015e8a209129aeea937c37fa4b8bc0f9be289730"
      ],
      "is_coinbase": false,
      "sequence": 4294967295
    }
  ],
  "vout": [
    {
      "scriptpubkey": "00143e2325412b554cacdd163a93a42204c4707f8851",
      "scriptpubkey_asm": "OP_0 OP_PUSHBYTES_20 3e2325412b554cacdd163a93a42204c4707f8851",
      "scriptpubkey_type": "v0_p2wpkh",
      "scriptpubkey_address": "bc1q8c3j2sft24x2ehgk82f6ggsyc3c8lzz3yw9wsu",
      "value": 546
    }
  ],
  "size": 308,
  "weight": 554,
  "fee": 1529,
  "status": {
    "confirmed": true,
    "block_height": 834464,
    "block_hash": "0000000000000000000177a0869a911a2b65c9bdcd5a8bcb02b68f305bee848e",
    "block_time": 1710308296
  },
  "hex": "02000000000101f50a28c2447b3356e2247660f6d5f3f49361fc8258e1a4d7e8cf9d657877e74e2900000000ffffffff0122020000000000001600143e2325412b554cacdd163a93a42204c4707f8851034038eec36cf9c7bac9a483bf5c1e69fa169b1dd3666f5a156f2a00034aa7c495bcceb541750a79a3d15e4d533ce232fd6cba079bc792cb1271eefac0fa555220c17b20a51ae495aa4042110ac0fa8a2b2bf8d63db47867a65af0e0168355caba7053beac0063036f7264010118746578742f706c61696e3b636861727365743d7574662d3800357b2270223a224252432d313030222c226f70223a226d696e74222c227469636b223a22696e73222c22616d74223a2231303030227d6821c1c50eac15d7d7889f5ad84f80015e8a209129aeea937c37fa4b8bc0f9be28973000000000"
}