{
  "txid": "512a462521cf2221911e06dd58fe975ff1511460cf4d14d441e9a40b4cc203fe",
  "version": 2,
  "locktime": 0,
  "vin": [
    {
      "txid": "02c33f2d9526f3ab19a74b57728796dc818b2c0de0f268ed4555379ad667ce0f",
      "vout": 0,
      "prevout": {
        "scriptpubkey": "76a914276623cd96b1cab3ff3e3824e4e5827b213db92788ac",
        "scriptpubkey_asm": "OP_DUP OP_HASH160 OP_PUSHBYTES_20 276623cd96b1cab3ff3e3824e4e5827b213db927 OP_EQUALVERIFY OP_CHECKSIG",
        "scriptpubkey_type": "p2pkh",
        "scriptpubkey_address": "14bKiHQx6CyAVrZPM1D31TL7J2Qeia4QEZ",
        "value": 1307890
      },
      "scriptsig": "47304402203ca36a80114c57448e8985f0dbf5f1c2b97a4b9709cb5bfd0f7f2c6a21aafa9002207702e03fc3f30c1b020f4e7b19d15e9c30a106f50cc430aedc9577330595a5cf012102819ddf12e7ad03c62de61609897451d138f42fe16f0aef2ad9e42f5c0066e2c0",
      "scriptsig_asm": "OP_PUSHBYTES_71 304402203ca36a80114c57448e8985f0dbf5f1c2b97a4b9709cb5bfd0f7f2c6a21aafa9002207702e03fc3f30c1b020f4e7b19d15e9c30a106f50cc430aedc9577330595a5cf01 OP_PUSHBYTES_33 02819ddf12e7ad03c62de61609897451d138f42fe16f0aef2ad9e42f5c0066e2c0",
      "is_coinbase": false,
      "sequence": 4294967295
    }
  ],
  "vout": [
    {
      "scriptpubkey": "76a9140d55b7fb479185961e74ec5c4c1004c543e0ac5388ac",
      "scriptpubkey_asm": "OP_DUP OP_HASH160 OP_PUSHBYTES_20 0d55b7fb479185961e74ec5c4c1004c543e0ac53 OP_EQUALVERIFY OP_CHECKSIG",
      "scriptpubkey_type": "p2pkh",
      "scriptpubkey_address": "12DWULFhApW8NHiPkE1UtcYhjWk1kNqwg4",
      "value": 1302898
    }
  ],
  "size": 191,
  "weight": 764,
  "fee": 4992,
  "status": {
    "confirmed": true,
    "block_height": 834638,
    "block_hash": "000000000000000000025f742c626208ac87e0b7d15054abb4a19ca2d735a54e",
    "block_time": 1710405325
  },
  "hex": "02000000010fce67d69a375545ed68f2e00d2c8b81dc968772574ba719abf326952d3fc302000000006a47304402203ca36a80114c57448e8985f0dbf5f1c2b97a4b9709cb5bfd0f7f2c6a21aafa9002207702e03fc3f30c1b020f4e7b19d15e9c30a106f50cc430aedc9577330595a5cf012102819ddf12e7ad03c62de61609897451d138f42fe16f0aef2ad9e42f5c0066e2c0ffffffff0172e11300000000001976a9140d55b7fb479185961e74ec5c4c1004c543e0ac5388ac00000000"
}