{
  "txid": "513ca7877f2fe02ac1196bad655adf9def267874bc6016028ed8138aa15708d2",
  "version": 2,
  "locktime": 0,
  "vin": [
    {
      "txid": "8429f0d674a2e351dca019dd6ef84879a1e090448c8faa5e3e514b7ad816f38e",
      "vout": 0,
      "prevout": {
        "scriptpubkey": "5120f80763153c8a89947f36f87328d305b2e3aa86e60a63473e91b393e07958eba2",
        "scriptpubkey_asm": "OP_PUSHNUM_1 OP_PUSHBYTES_32 f80763153c8a89947f36f87328d305b2e3aa86e60a63473e91b393e07958eba2",
        "scriptpubkey_type": "v1_p2tr",
        "scriptpubkey_address": "bc1plqrkx9fu32yegleklpej35c9kt364phxpf35w053kwf7q72caw3qntfynr",
        "value": 546
      },
      "scriptsig": "",
      "scriptsig_asm": "",
      "witness": [
        "cea76d74dce6b6342b8b8e23c68bb54265e428b8b3609cef9c56f2c86b3bab08e1270ae465f2204bbd98ee59c18057587fa0c05adb267cdd95964663eaacef64"
      ],
      "is_coinbase": false,
      "sequence": 4294967295
    },
    {
      "txid": "4515dc4ad0d852d41d437a4706f700ee87c7654f505ec107e05daf832633cbb5",
      "vout": 2,
      "prevout": {
        "scriptpubkey": "5120f80763153c8a89947f36f87328d305b2e3aa86e60a63473e91b393e07958eba2",
        "scriptpubkey_asm": "OP_PUSHNUM_1 OP_PUSHBYTES_32 f80763153c8a89947f36f87328d305b2e3aa86e60a63473e91b393e07958eba2",
        "scriptpubkey_type": "v1_p2tr",
        "scriptpubkey_address": "bc1plqrkx9fu32yegleklpej35c9kt364phxpf35w053kwf7q72caw3qntfynr",
        "value": 130755
      },
      "scriptsig": "",
      "scriptsig_asm": "",
      "witness": [
        "9869dc3fd2eeeb56bec2fd6c228fd26ff1a06bbc30eeb2d67d2f6e0a19b0c48b41e213605007e004562157cff558205b2b6220423f507bb4018fc188a6adca1b"
      ],
      "is_coinbase": false,
      "sequence": 4294967295
    }
  ],
  "vout": [
    {
      "scriptpubkey": "5120f80763153c8a89947f36f87328d305b2e3aa86e60a63473e91b393e07958eba2",
      "scriptpubkey_asm": "OP_PUSHNUM_1 OP_PUSHBYTES_32 f80763153c8a89947f36f87328d305b2e3aa86e60a63473e91b393e07958eba2",
      "scriptpubkey_type": "v1_p2tr",
      "scriptpubkey_address": "bc1plqrkx9fu32yegleklpej35c9kt364phxpf35w053kwf7q72caw3qntfynr",
      "value": 546
    },
    {
      "scriptpubkey": "6a1152554e45414c5048415f5354414b494e47096338323937303835320431303030",
      "scriptpubkey_asm": "OP_RETURN OP_PUSHBYTES_17 52554e45414c5048415f5354414b494e47 OP_PUSHBYTES_9 633832393730383532 OP_PUSHBYTES_4 31303030",
      "scriptpubkey_type": "op_return",
      "value": 0
    },
    {
      "scriptpubkey": "5120f80763153c8a89947f36f87328d305b2e3aa86e60a63473e91b393e07958eba2",
      "scriptpubkey_asm": "OP_PUSHNUM_1 OP_PUSHBYTES_32 f80763153c8a89947f36f87328d305b2e3aa86e60a63473e91b393e07958eba2",
      "scriptpubkey_type": "v1_p2tr",
      "scriptpubkey_address": "bc1plqrkx9fu32yegleklpej35c9kt364phxpf35w053kwf7q72caw3qntfynr",
      "value": 126919
    }
  ],
  "size": 355,
  "weight": 1018,
  "fee": 3836,
  "status": {
    "confirmed": true,
    "block_height": 834638,
    "block_hash": "000000000000000000025f742c626208ac87e0b7d15054abb4a19ca2d735a54e",
    "block_time": 1710405325
  },
  "hex": "020000000001028ef316d87a4b513e5eaa8f8c4490e0a17948f86edd19a0dc51e3a274d6f029840000000000ffffffffb5cb332683af5de007c15e504f65c787ee00f706477a431dd452d8d04adc15450200000000ffffffff032202000000000000225120f80763153c8a89947f36f87328d305b2e3aa86e60a63473e91b393e07958eba20000000000000000226a1152554e45414c5048415f5354414b494e47096338323937303835320431303030c7ef010000000000225120f80763153c8a89947f36f87328d305b2e3aa86e60a63473e91b393e07958eba20140cea76d74dce6b6342b8b8e23c68bb54265e428b8b3609cef9c56f2c86b3bab08e1270ae465f2204bbd98ee59c18057587fa0c05adb267cdd95964663eaacef6401409869dc3fd2eeeb56bec2fd6c228fd26ff1a06bbc30eeb2d67d2f6e0a19b0c48b41e213605007e004562157cff558205b2b6220423f507bb4018fc188a6adca1b00000000"
}