{
  "txid": "51564b873977b4312a21ebf5ac0d006bbfef5b1f975d644aea31af487c39137d",
  "version": 2,
  "locktime": 832814,
  "vin": [
    {
      "txid": "b28610c91fc256b847b9e87ae7f719a262788f603046a81993ff64cfed6318d0",
      "vout": 0,
      "prevout": {
        "scriptpubkey": "0014e4a1406a286fd5a72548225b662dff983e5f1a1d",
        "scriptpubkey_asm": "OP_0 OP_PUSHBYTES_20 e4a1406a286fd5a72548225b662dff983e5f1a1d",
        "scriptpubkey_type": "v0_p2wpkh",
        "scriptpubkey_address": "bc1qujs5q63gdl26wf2gyfdkvt0lnql97xsah3sj68",
        "value": 271281
      },
      "scriptsig": "",
      "scriptsig_asm": "",
      "witness": [
        "3045022100cacb3d626ec820260177c86356a554c09fe414a58f5ac861c9e53ae6d459780c02201f8203254bfcf586e98cb44496e5b7e68b1569ac99fa60d2ffb91f818be5b7f401",
        "03b046e8e6723a67c9855cf981d9d440e55d36a87790fa429b309a5a0c47cfad97"
      ],
      "is_coinbase": false,
      "sequence": 0
    }
  ],
  "vout": [
    {
      "scriptpubkey": "5120ee9d72a066c46612a2c1e2e084fa2b211dc43f295fbf8b7fc6bad02a59a3e257",
      "scriptpubkey_asm": "OP_PUSHNUM_1 OP_PUSHBYTES_32 ee9d72a066c46612a2c1e2e084fa2b211dc43f295fbf8b7fc6bad02a59a3e257",
      "scriptpubkey_type": "v1_p2tr",
      "scriptpubkey_address": "bc1pa6wh9grxc3np9gkputsgf73tyywug0eft7lckl7xhtgz5kdruftss4m5a6",
      "value": 269942
    }
  ],
  "size": 204,
  "weight": 486,
  "fee": 1339,
  "status": {
    "confirmed": true,
    "block_height": 834464,
    "block_hash": "0000000000000000000177a0869a911a2b65c9bdcd5a8bcb02b68f305bee848e",
    "block_time": 1710308296
  },
  "hex": "02000000000101d01863edcf64ff9319a84630608f7862a219f7e77ae8b947b856c21fc91086b200000000000000000001761e040000000000225120ee9d72a066c46612a2c1e2e084fa2b211dc43f295fbf8b7fc6bad02a59a3e25702483045022100cacb3d626ec820260177c86356a554c09fe414a58f5ac861c9e53ae6d459780c02201f8203254bfcf586e98cb44496e5b7e68b1569ac99fa60d2ffb91f818be5b7f4012103b046e8e6723a67c9855cf981d9d440e55d36a87790fa429b309a5a0c47cfad972eb50c00"
}