{
  "txid": "515a70d79f2f4e3ed6ae1e4dfc0f6d260d1445e72b22b0b8043ff12d06bfa975",
  "version": 2,
  "locktime": 834637,
  "vin": [
    {
      "txid": "cf021f7230c7ec9a482bfc9950ba095cf9912ac1c02987707155d6f094fcfe0b",
      "vout": 7,
      "prevout": {
        "scriptpubkey": "0014823aad6371b29b0ee79a0e6338a92317dded83c4",
        "scriptpubkey_asm": "OP_0 OP_PUSHBYTES_20 823aad6371b29b0ee79a0e6338a92317dded83c4",
        "scriptpubkey_type": "v0_p2wpkh",
        "scriptpubkey_address": "bc1qsga26cm3k2dsaeu6pe3n32frzlw7mq7yv8z0k9",
        "value": 120437850
      },
      "scriptsig": "",
      "scriptsig_asm": "",
      "witness": [
        "304402207ef8e7284a36dafbe259199abff71d554c7c4a8c0c22fc14abbe0c17ce8e70250220217c58628e6a41bdfd4e9dab6f00ccdd18db6545bf8084456cf07b9a3f9a2e4f01",
        "02b0bd4a737a6aeaaa1965a98953920a67fb1d7ae884afa7667de61a420302de2f"
      ],
      "is_coinbase": false,
      "sequence": 4294967293
    }
  ],
  "vout": [
    {
      "scriptpubkey": "00147a2bd65bb5632ea24488b8aba87bf0aa7f98a2e6",
      "scriptpubkey_asm": "OP_0 OP_PUSHBYTES_20 7a2bd65bb5632ea24488b8aba87bf0aa7f98a2e6",
      "scriptpubkey_type": "v0_p2wpkh",
      "scriptpubkey_address": "bc1q0g4avka4vvh2y3yghz46s7ls4fle3ghx9pclux",
      "value": 15000
    },
    {
      "scriptpubkey": "001481f9d7d71b880e6ad72f8f022bd216a0664aa2f1",
      "scriptpubkey_asm": "OP_0 OP_PUSHBYTES_20 81f9d7d71b880e6ad72f8f022bd216a0664aa2f1",
      "scriptpubkey_type": "v0_p2wpkh",
      "scriptpubkey_address": "bc1qs8ua04cm3q8x44e03upzh5sk5pny4gh3yr7mut",
      "value": 18581
    },
    {
      "scriptpubkey": "a9149e4dd195169ebfdd8cec4a34a28a9e8125d65f7f87",
      "scriptpubkey_asm": "OP_HASH160 OP_PUSHBYTES_20 9e4dd195169ebfdd8cec4a34a28a9e8125d65f7f OP_EQUAL",
      "scriptpubkey_type": "p2sh",
      "scriptpubkey_address": "3G83unkruYBS3PTZdrxb21xViiJbZVgifh",
      "value": 29000
    },
    {
      "scriptpubkey": "001479b42c562e1e96297f141dd13d05286b996eee43",
      "scriptpubkey_asm": "OP_0 OP_PUSHBYTES_20 79b42c562e1e96297f141dd13d05286b996eee43",
      "scriptpubkey_type": "v0_p2wpkh",
      "scriptpubkey_address": "bc1q0x6zc43wr6tzjlc5rhgn6pfgdwvkamjr4g7hay",
      "value": 44524
    },
    {
      "scriptpubkey": "00146ac3d596c23b6f00f0846b0da5acc94e752ba61d",
      "scriptpubkey_asm": "OP_0 OP_PUSHBYTES_20 6ac3d596c23b6f00f0846b0da5acc94e752ba61d",
      "scriptpubkey_type": "v0_p2wpkh",
      "scriptpubkey_address": "bc1qdtpat9kz8dhspuyydvx6ttxffe6jhfsashzdal",
      "value": 46000
    },
    {
      "scriptpubkey": "0014879b012befdf02922bec816a008fbb467ee60452",
      "scriptpubkey_asm": "OP_0 OP_PUSHBYTES_20 879b012befdf02922bec816a008fbb467ee60452",
      "scriptpubkey_type": "v0_p2wpkh",
      "scriptpubkey_address": "bc1qs7dsz2l0mupfy2lvs94qpramgelwvpzj3t4kaj",
      "value": 71000
    },
    {
      "scriptpubkey": "0014239a81657d780737ecd9bd0f96e41ac75f5d8c0f",
      "scriptpubkey_asm": "OP_0 OP_PUSHBYTES_20 239a81657d780737ecd9bd0f96e41ac75f5d8c0f",
      "scriptpubkey_type": "v0_p2wpkh",
      "scriptpubkey_address": "bc1qywdgzeta0qrn0mxeh58edeq6ca04mrq0uuu5ww",
      "value": 76000
    },
    {
      "scriptpubkey": "0014dd0c43b789f75fac03a1b8b4cedd3b03560027d2",
      "scriptpubkey_asm": "OP_0 OP_PUSHBYTES_20 dd0c43b789f75fac03a1b8b4cedd3b03560027d2",
      "scriptpubkey_type": "v0_p2wpkh",
      "scriptpubkey_address": "bc1qm5xy8duf7a06cqaphz6vahfmqdtqqf7jp7hp2n",
      "value": 1633346
    },
    {
      "scriptpubkey": "0014823aad6371b29b0ee79a0e6338a92317dded83c4",
      "scriptpubkey_asm": "OP_0 OP_PUSHBYTES_20 823aad6371b29b0ee79a0e6338a92317dded83c4",
      "scriptpubkey_type": "v0_p2wpkh",
      "scriptpubkey_address": "bc1qsga26cm3k2dsaeu6pe3n32frzlw7mq7yv8z0k9",
      "value": 118497739
    }
  ],
  "size": 440,
  "weight": 1433,
  "fee": 6660,
  "status": {
    "confirmed": true,
    "block_height": 834638,
    "block_hash": "000000000000000000025f742c626208ac87e0b7d15054abb4a19ca2d735a54e",
    "block_time": 1710405325
  },
  "hex": "020000000001010bfefc94f0d65571708729c0c12a91f95c09ba5099fc2b489aecc730721f02cf0700000000fdffffff09983a0000000000001600147a2bd65bb5632ea24488b8aba87bf0aa7f98a2e6954800000000000016001481f9d7d71b880e6ad72f8f022bd216a0664aa2f1487100000000000017a9149e4dd195169ebfdd8cec4a34a28a9e8125d65f7f87ecad00000000000016001479b42c562e1e96297f141dd13d05286b996eee43b0b30000000000001600146ac3d596c23b6f00f0846b0da5acc94e752ba61d5815010000000000160014879b012befdf02922bec816a008fbb467ee60452e028010000000000160014239a81657d780737ecd9bd0f96e41ac75f5d8c0f42ec180000000000160014dd0c43b789f75fac03a1b8b4cedd3b03560027d2cb21100700000000160014823aad6371b29b0ee79a0e6338a92317dded83c40247304402207ef8e7284a36dafbe259199abff71d554c7c4a8c0c22fc14abbe0c17ce8e70250220217c58628e6a41bdfd4e9dab6f00ccdd18db6545bf8084456cf07b9a3f9a2e4f012102b0bd4a737a6aeaaa1965a98953920a67fb1d7ae884afa7667de61a420302de2f4dbc0c00"
}