{
  "txid": "515cabb2025b42711646fc81a651031dcfc2f97c70f9f4ed3266a20de4de2d51",
  "version": 2,
  "locktime": 0,
  "vin": [
    {
      "txid": "5bc5a88e424a4902e0b2f447b3d485cae5ead7b1b99ebc3c9a2e0d70b37e333c",
      "vout": 1,
      "prevout": {
        "scriptpubkey": "00147880ffb54c97370e1f42c7bf84adb125f01b4962",
        "scriptpubkey_asm": "OP_0 OP_PUSHBYTES_20 7880ffb54c97370e1f42c7bf84adb125f01b4962",
        "scriptpubkey_type": "v0_p2wpkh",
        "scriptpubkey_address": "bc1q0zq0ld2vjumsu86zc7lcftd3yhcpkjtz3tyh7n",
        "value": 8815817
      },
      "scriptsig": "",
      "scriptsig_asm": "",
      "witness": [
        "304502210084479ae6ed08421cfc6086753f3c2976b374829bfc8acbf25663eb53ba08141302204a6e1e3daf9754644535e35e8a067ad76321714b4a55164a9b53692ef70736de01",
        "027dc9b48a542874cc89d4134c95fc38d0ce07a4c8b37002dfbf2b0ca8b21ad792"
      ],
      "is_coinbase": false,
      "sequence": 4294967295
    }
  ],
  "vout": [
    {
      "scriptpubkey": "a91455d3ef805c0f18455726d5ebb338579f68a723b087",
      "scriptpubkey_asm": "OP_HASH160 OP_PUSHBYTES_20 55d3ef805c0f18455726d5ebb338579f68a723b0 OP_EQUAL",
      "scriptpubkey_type": "p2sh",
      "scriptpubkey_address": "39WqFPZ7fYhvY6iigfyL6QQPoYw5eur16i",
      "value": 81994
    },
    {
      "scriptpubkey": "0014d8a34fc2bd1d44f74218c412a75f90289eb9a1e2",
      "scriptpubkey_asm": "OP_0 OP_PUSHBYTES_20 d8a34fc2bd1d44f74218c412a75f90289eb9a1e2",
      "scriptpubkey_type": "v0_p2wpkh",
      "scriptpubkey_address": "bc1qmz35ls4ar4z0wssccsf2whus9z0tng0zyvav2f",
      "value": 8731289
    }
  ],
  "size": 224,
  "weight": 566,
  "fee": 2534,
  "status": {
    "confirmed": true,
    "block_height": 834552,
    "block_hash": "00000000000000000001dd0468a70c94f619251d286585cff57aeb4bd9ede330",
    "block_time": 1710355598
  },
  "hex": "020000000001013c337eb3700d2e9a3cbc9eb9b1d7eae5ca85d4b347f4b2e002494a428ea8c55b0100000000ffffffff024a4001000000000017a91455d3ef805c0f18455726d5ebb338579f68a723b087993a850000000000160014d8a34fc2bd1d44f74218c412a75f90289eb9a1e20248304502210084479ae6ed08421cfc6086753f3c2976b374829bfc8acbf25663eb53ba08141302204a6e1e3daf9754644535e35e8a067ad76321714b4a55164a9b53692ef70736de0121027dc9b48a542874cc89d4134c95fc38d0ce07a4c8b37002dfbf2b0ca8b21ad79200000000"
}