{
  "txid": "5161a52ff061a78ed0a0f782ae93ba4a5b70d50d280dac9bfdad4d7c65f2933c",
  "version": 2,
  "locktime": 0,
  "vin": [
    {
      "txid": "22f5187a45c7608296f97889769c8c1238265a1511179b632db2014902bca27e",
      "vout": 12,
      "prevout": {
        "scriptpubkey": "51207a31300834f7c8e99673d7b0ea7147a30e7992344c70e3869c9500feebb41085",
        "scriptpubkey_asm": "OP_PUSHNUM_1 OP_PUSHBYTES_32 7a31300834f7c8e99673d7b0ea7147a30e7992344c70e3869c9500feebb41085",
        "scriptpubkey_type": "v1_p2tr",
        "scriptpubkey_address": "bc1p0gcnqzp57lywn9nn67cw5u285v88ny35f3cw8p5uj5q0a6a5zzzskqccj9",
        "value": 1962
      },
      "scriptsig": "",
      "scriptsig_asm": "",
      "witness": [
        "26cac58e98abe59c9f3661c5d40db5ac95b65eb79cb6629395ed7e85d32a7955b03b8ae7c2595f60af2a41972a3ec7b4068319d6c8c1c24cc70748295e726633",
        "2024f14b181a0f77d670b063836b8942eaafb9714de6ee5bcf9b5ecfaeb76446d1ac0063036f7264010118746578742f706c61696e3b636861727365743d7574662d3800367b2270223a226272632d3230222c226f70223a226d696e74222c227469636b223a2261616161222c22616d74223a223130303030227d68",
        "c024f14b181a0f77d670b063836b8942eaafb9714de6ee5bcf9b5ecfaeb76446d1"
      ],
      "is_coinbase": false,
      "sequence": 4294967293
    }
  ],
  "vout": [
    {
      "scriptpubkey": "0014858ccaca6c4e482f629fdbcc5539e695d8673ea2",
      "scriptpubkey_asm": "OP_0 OP_PUSHBYTES_20 858ccaca6c4e482f629fdbcc5539e695d8673ea2",
      "scriptpubkey_type": "v0_p2wpkh",
      "scriptpubkey_address": "bc1qskxv4jnvfeyz7c5lm0x92w0xjhvxw04zpzg6gn",
      "value": 294
    }
  ],
  "size": 309,
  "weight": 555,
  "fee": 1668,
  "status": {
    "confirmed": true,
    "block_height": 834460,
    "block_hash": "00000000000000000000484a79b643b2524bbce82e5d8a442013fa5b8905ed98",
    "block_time": 1710307468
  },
  "hex": "020000000001017ea2bc024901b22d639b1711155a2638128c9c768978f9968260c7457a18f5220c00000000fdffffff012601000000000000160014858ccaca6c4e482f629fdbcc5539e695d8673ea2034026cac58e98abe59c9f3661c5d40db5ac95b65eb79cb6629395ed7e85d32a7955b03b8ae7c2595f60af2a41972a3ec7b4068319d6c8c1c24cc70748295e7266337c2024f14b181a0f77d670b063836b8942eaafb9714de6ee5bcf9b5ecfaeb76446d1ac0063036f7264010118746578742f706c61696e3b636861727365743d7574662d3800367b2270223a226272632d3230222c226f70223a226d696e74222c227469636b223a2261616161222c22616d74223a223130303030227d6821c024f14b181a0f77d670b063836b8942eaafb9714de6ee5bcf9b5ecfaeb76446d100000000"
}