{
  "txid": "5168018d10cec7273f8446ee88cf7741b990240efbba5b07b79d987f42305ee0",
  "version": 2,
  "locktime": 0,
  "vin": [
    {
      "txid": "acc3ba00869acb582a3f2904ce3a11dd3779350ce234063fc7d0959246213364",
      "vout": 52,
      "prevout": {
        "scriptpubkey": "51203ffbf32120aa123106c9a09884214c9072438c884f79ce7a912da0c29d3f6d0d",
        "scriptpubkey_asm": "OP_PUSHNUM_1 OP_PUSHBYTES_32 3ffbf32120aa123106c9a09884214c9072438c884f79ce7a912da0c29d3f6d0d",
        "scriptpubkey_type": "v1_p2tr",
        "scriptpubkey_address": "bc1p8lalxgfq4gfrzpkf5zvggg2vjpey8rygfauuu7539ksv98fld5xsj2yljq",
        "value": 1806
      },
      "scriptsig": "",
      "scriptsig_asm": "",
      "witness": [
        "2143d58a8b278246a59225d3d8e72696bac4edb93618f0b127b26b2a444895fd828ed971e4f150f1034fc6f8ea947e3e272637dd024974602c1352e1cf6ac637",
        "20226c172e5fb5ef35a0c4266a3fdb32ec247c0e863125b4a3525f6a1c4cfd28b1ac0063036f726401010a746578742f706c61696e00357b2270223a226272632d3230222c226f70223a226d696e74222c227469636b223a22646f6765222c22616d74223a2234323030227d68",
        "c1226c172e5fb5ef35a0c4266a3fdb32ec247c0e863125b4a3525f6a1c4cfd28b1"
      ],
      "is_coinbase": false,
      "sequence": 4261412863
    }
  ],
  "vout": [
    {
      "scriptpubkey": "00147a665de7a370f4c9b372ab1fae587500a5bcbdb4",
      "scriptpubkey_asm": "OP_0 OP_PUSHBYTES_20 7a665de7a370f4c9b372ab1fae587500a5bcbdb4",
      "scriptpubkey_type": "v0_p2wpkh",
      "scriptpubkey_address": "bc1q0fn9mearwr6vnvmj4v06ukr4qzjme0d565dzcx",
      "value": 294
    }
  ],
  "size": 294,
  "weight": 540,
  "fee": 1512,
  "status": {
    "confirmed": true,
    "block_height": 834460,
    "block_hash": "00000000000000000000484a79b643b2524bbce82e5d8a442013fa5b8905ed98",
    "block_time": 1710307468
  },
  "hex": "02000000000101643321469295d0c73f0634e20c357937dd113ace04293f2a58cb9a8600bac3ac3400000000fffffffd0126010000000000001600147a665de7a370f4c9b372ab1fae587500a5bcbdb403402143d58a8b278246a59225d3d8e72696bac4edb93618f0b127b26b2a444895fd828ed971e4f150f1034fc6f8ea947e3e272637dd024974602c1352e1cf6ac6376d20226c172e5fb5ef35a0c4266a3fdb32ec247c0e863125b4a3525f6a1c4cfd28b1ac0063036f726401010a746578742f706c61696e00357b2270223a226272632d3230222c226f70223a226d696e74222c227469636b223a22646f6765222c22616d74223a2234323030227d6821c1226c172e5fb5ef35a0c4266a3fdb32ec247c0e863125b4a3525f6a1c4cfd28b100000000"
}