{
  "txid": "516e334f04398b626d016e0c56ee6c0c63d77cd0face69426dadbe9d4be62c54",
  "version": 2,
  "locktime": 0,
  "vin": [
    {
      "txid": "f7ee1d9857f23adb6df9fd8217beb528bdc0691f0011cdc5da4b9c98e3415cb2",
      "vout": 3,
      "prevout": {
        "scriptpubkey": "51204e1bd1f4a775ef30605273101588576d4d58854994adebb581f470cc9330f2e7",
        "scriptpubkey_asm": "OP_PUSHNUM_1 OP_PUSHBYTES_32 4e1bd1f4a775ef30605273101588576d4d58854994adebb581f470cc9330f2e7",
        "scriptpubkey_type": "v1_p2tr",
        "scriptpubkey_address": "bc1pfcdara98whhnqczjwvgptzzhd4x43p2fjjk7hdvp73cveyes7tnsy2fa3s",
        "value": 2862
      },
      "scriptsig": "",
      "scriptsig_asm": "",
      "witness": [
        "981d34758517651afce4bb612b98614ed6f8def15028462060b479463608b2d697704ceb57d1266744568d3418dbd857dc51515c7c08333626dfd4e598ad58c2",
        "20674fa99c8b1ee1adfe47bf57fa708f3034dfa46ba7370a6440f43b95a897fcf6ac0063036f726401011e6170706c69636174696f6e2f6a736f6e3b636861727365743d7574662d38004cd37b2270223a22706f772d3230222c226f70223a226d696e74222c227469636b223a2250455045222c22616d74223a2231303030222c22736f6c7574696f6e223a22504550453a626331707136676b767964716164703375666734666865777770757771743730716b37396d6c6b6d37706b356a38657967363870796632716379703832633a303030303030303030303030303030303030303139393431613561653132383937363539383134343239323533333030353762306461393666336465613163353a3438303832353632383733227d68",
        "c19c5626bdc3533ba8aa729d0f30d751dd071a8b8f6bd9e78daf679d343f12d20e"
      ],
      "is_coinbase": false,
      "sequence": 4294967295
    }
  ],
  "vout": [
    {
      "scriptpubkey": "512006916611a0eb431e25154df2e7078e02fcf05bc5dfedbf06d491f24468e12254",
      "scriptpubkey_asm": "OP_PUSHNUM_1 OP_PUSHBYTES_32 06916611a0eb431e25154df2e7078e02fcf05bc5dfedbf06d491f24468e12254",
      "scriptpubkey_type": "v1_p2tr",
      "scriptpubkey_address": "bc1pq6gkvydqadp3ufg4fhewwpuwqt70qk79mlkm7pk5j8eyg68pyf2qcyp82c",
      "value": 546
    }
  ],
  "size": 487,
  "weight": 769,
  "fee": 2316,
  "status": {
    "confirmed": true,
    "block_height": 834460,
    "block_hash": "00000000000000000000484a79b643b2524bbce82e5d8a442013fa5b8905ed98",
    "block_time": 1710307468
  },
  "hex": "02000000000101b25c41e3989c4bdac5cd11001f69c0bd28b5be1782fdf96ddb3af257981deef70300000000ffffffff01220200000000000022512006916611a0eb431e25154df2e7078e02fcf05bc5dfedbf06d491f24468e122540340981d34758517651afce4bb612b98614ed6f8def15028462060b479463608b2d697704ceb57d1266744568d3418dbd857dc51515c7c08333626dfd4e598ad58c2fd200120674fa99c8b1ee1adfe47bf57fa708f3034dfa46ba7370a6440f43b95a897fcf6ac0063036f726401011e6170706c69636174696f6e2f6a736f6e3b636861727365743d7574662d38004cd37b2270223a22706f772d3230222c226f70223a226d696e74222c227469636b223a2250455045222c22616d74223a2231303030222c22736f6c7574696f6e223a22504550453a626331707136676b767964716164703375666734666865777770757771743730716b37396d6c6b6d37706b356a38657967363870796632716379703832633a303030303030303030303030303030303030303139393431613561653132383937363539383134343239323533333030353762306461393666336465613163353a3438303832353632383733227d6821c19c5626bdc3533ba8aa729d0f30d751dd071a8b8f6bd9e78daf679d343f12d20e00000000"
}