{
  "txid": "51767f184ad3e3e96c7eea385e948372e9ff8f084ca0ea42aee6aa294a40d65a",
  "version": 2,
  "locktime": 0,
  "vin": [
    {
      "txid": "6162e98f53a91a1749b3cda929f73afb3632a894fa813a838a868a48cae232b6",
      "vout": 3,
      "prevout": {
        "scriptpubkey": "001442c66023257f65a1c3308dfc9fe4ed1f83529b46",
        "scriptpubkey_asm": "OP_0 OP_PUSHBYTES_20 42c66023257f65a1c3308dfc9fe4ed1f83529b46",
        "scriptpubkey_type": "v0_p2wpkh",
        "scriptpubkey_address": "bc1qgtrxqge90aj6rses3h7fle8dr7p49x6xe5w5gg",
        "value": 1612023
      },
      "scriptsig": "",
      "scriptsig_asm": "",
      "witness": [
        "3044022010a7723d774c1b18e5ad7e31bd96f297b0b33d0ccc1fe12321f39f5b3421762f022039f5528af97e9d66e6d4732ce6b6d3dae8bcd89b591de9ab3811b1a200e79fb501",
        "02c8e920acb6f2e00124204b75f2117edf1c1dbe069e4779c3b5b50c52e5311f36"
      ],
      "is_coinbase": false,
      "sequence": 0
    },
    {
      "txid": "5820a588eb7c223b75e686a486abc418e79b50f7bcc1c159a7045339498b81f7",
      "vout": 3,
      "prevout": {
        "scriptpubkey": "001442c66023257f65a1c3308dfc9fe4ed1f83529b46",
        "scriptpubkey_asm": "OP_0 OP_PUSHBYTES_20 42c66023257f65a1c3308dfc9fe4ed1f83529b46",
        "scriptpubkey_type": "v0_p2wpkh",
        "scriptpubkey_address": "bc1qgtrxqge90aj6rses3h7fle8dr7p49x6xe5w5gg",
        "value": 1601271
      },
      "scriptsig": "",
      "scriptsig_asm": "",
      "witness": [
        "30440220105bfcac8cff12d94987e549d7a577fbfc53f75c453a2483635c03d953af4c39022020b788369b9e2f54307dd0c04e9602c896dc1cb3e03157fc88e62c66a686916601",
        "02c8e920acb6f2e00124204b75f2117edf1c1dbe069e4779c3b5b50c52e5311f36"
      ],
      "is_coinbase": false,
      "sequence": 0
    },
    {
      "txid": "e2faf08e168c03ae69bfb7b335a29432922d5b5eef272f85148401c5c0530c39",
      "vout": 1,
      "prevout": {
        "scriptpubkey": "001442c66023257f65a1c3308dfc9fe4ed1f83529b46",
        "scriptpubkey_asm": "OP_0 OP_PUSHBYTES_20 42c66023257f65a1c3308dfc9fe4ed1f83529b46",
        "scriptpubkey_type": "v0_p2wpkh",
        "scriptpubkey_address": "bc1qgtrxqge90aj6rses3h7fle8dr7p49x6xe5w5gg",
        "value": 48932
      },
      "scriptsig": "",
      "scriptsig_asm": "",
      "witness": [
        "304402200a4dce19c00772a09ed99f35c0ba5cebaf2c49096eca8e49c3a101d0a42762c1022064ec09525fb2e4455ee1a3722413d8d4c852d71cccfd1c02b5c68ef2735230a701",
        "02c8e920acb6f2e00124204b75f2117edf1c1dbe069e4779c3b5b50c52e5311f36"
      ],
      "is_coinbase": false,
      "sequence": 0
    }
  ],
  "vout": [
    {
      "scriptpubkey": "76a914fcf65dc241dac20e55a80d7948015b9a0a51705e88ac",
      "scriptpubkey_asm": "OP_DUP OP_HASH160 OP_PUSHBYTES_20 fcf65dc241dac20e55a80d7948015b9a0a51705e OP_EQUALVERIFY OP_CHECKSIG",
      "scriptpubkey_type": "p2pkh",
      "scriptpubkey_address": "1Q4YRAkTTjnW847TqW6QpthSArmJpspmnC",
      "value": 3250000
    },
    {
      "scriptpubkey": "001442c66023257f65a1c3308dfc9fe4ed1f83529b46",
      "scriptpubkey_asm": "OP_0 OP_PUSHBYTES_20 42c66023257f65a1c3308dfc9fe4ed1f83529b46",
      "scriptpubkey_type": "v0_p2wpkh",
      "scriptpubkey_address": "bc1qgtrxqge90aj6rses3h7fle8dr7p49x6xe5w5gg",
      "value": 7084
    }
  ],
  "size": 521,
  "weight": 1115,
  "fee": 5142,
  "status": {
    "confirmed": true,
    "block_height": 834638,
    "block_hash": "000000000000000000025f742c626208ac87e0b7d15054abb4a19ca2d735a54e",
    "block_time": 1710405325
  },
  "hex": "02000000000103b632e2ca488a868a833a81fa94a83236fb3af729a9cdb349171aa9538fe96261030000000000000000f7818b49395304a759c1c1bcf7509be718c4ab86a486e6753b227ceb88a52058030000000000000000390c53c0c5018414852f27ef5e5b2d923294a235b3b7bf69ae038c168ef0fae20100000000000000000250973100000000001976a914fcf65dc241dac20e55a80d7948015b9a0a51705e88acac1b00000000000016001442c66023257f65a1c3308dfc9fe4ed1f83529b4602473044022010a7723d774c1b18e5ad7e31bd96f297b0b33d0ccc1fe12321f39f5b3421762f022039f5528af97e9d66e6d4732ce6b6d3dae8bcd89b591de9ab3811b1a200e79fb5012102c8e920acb6f2e00124204b75f2117edf1c1dbe069e4779c3b5b50c52e5311f36024730440220105bfcac8cff12d94987e549d7a577fbfc53f75c453a2483635c03d953af4c39022020b788369b9e2f54307dd0c04e9602c896dc1cb3e03157fc88e62c66a6869166012102c8e920acb6f2e00124204b75f2117edf1c1dbe069e4779c3b5b50c52e5311f360247304402200a4dce19c00772a09ed99f35c0ba5cebaf2c49096eca8e49c3a101d0a42762c1022064ec09525fb2e4455ee1a3722413d8d4c852d71cccfd1c02b5c68ef2735230a7012102c8e920acb6f2e00124204b75f2117edf1c1dbe069e4779c3b5b50c52e5311f3600000000"
}