{
  "txid": "517c2f3b6804bdb7cac012e8e2845003fca081c285ca1d5b68e9300cb5383999",
  "version": 2,
  "locktime": 0,
  "vin": [
    {
      "txid": "22f22adf9f743b389ab42bb5afa4f727a131f533ba21e6d8856011503ebe9940",
      "vout": 40,
      "prevout": {
        "scriptpubkey": "001457408b156beb800bd85f99d099e594dbf69b9b3d",
        "scriptpubkey_asm": "OP_0 OP_PUSHBYTES_20 57408b156beb800bd85f99d099e594dbf69b9b3d",
        "scriptpubkey_type": "v0_p2wpkh",
        "scriptpubkey_address": "bc1q2aqgk9ttawqqhkzln8gfnev5m0mfhxea2cglaj",
        "value": 21648
      },
      "scriptsig": "",
      "scriptsig_asm": "",
      "witness": [
        "30440220249083a511a7d5543c116ff8b41b113d9455d4b461fd5722f11e4913096a642e02204df620f3e214447597333f71484a32f116baacde3a19763082eb8b7600eaf61e01",
        "027c072dd7e6cd17bc84aa405cd73ffab67f1924ceb26e7a7e461a47d9f985e68a"
      ],
      "is_coinbase": false,
      "sequence": 4294967295
    },
    {
      "txid": "37e9078cd7a626caa7b5e8173307cc09e26dbd54f64b05c8de11563edf957b45",
      "vout": 15,
      "prevout": {
        "scriptpubkey": "001457408b156beb800bd85f99d099e594dbf69b9b3d",
        "scriptpubkey_asm": "OP_0 OP_PUSHBYTES_20 57408b156beb800bd85f99d099e594dbf69b9b3d",
        "scriptpubkey_type": "v0_p2wpkh",
        "scriptpubkey_address": "bc1q2aqgk9ttawqqhkzln8gfnev5m0mfhxea2cglaj",
        "value": 1020151
      },
      "scriptsig": "",
      "scriptsig_asm": "",
      "witness": [
        "304402200918abf79e77a80366469852145d13833047cbce00cc88f1baa7e340ea1604d902201764c3cb56919334f6e8b8d9567507f8f7fefd72eeff34bc88a9537e689db16401",
        "027c072dd7e6cd17bc84aa405cd73ffab67f1924ceb26e7a7e461a47d9f985e68a"
      ],
      "is_coinbase": false,
      "sequence": 4294967295
    }
  ],
  "vout": [
    {
      "scriptpubkey": "76a91409e9d8ce75c4c3b87099198540815d72f164d83088ac",
      "scriptpubkey_asm": "OP_DUP OP_HASH160 OP_PUSHBYTES_20 09e9d8ce75c4c3b87099198540815d72f164d830 OP_EQUALVERIFY OP_CHECKSIG",
      "scriptpubkey_type": "p2pkh",
      "scriptpubkey_address": "1uRDhFTtmpCUvieSytHdqXLNQhuzbu24z",
      "value": 1039405
    }
  ],
  "size": 342,
  "weight": 720,
  "fee": 2394,
  "status": {
    "confirmed": true,
    "block_height": 834460,
    "block_hash": "00000000000000000000484a79b643b2524bbce82e5d8a442013fa5b8905ed98",
    "block_time": 1710307468
  },
  "hex": "020000000001024099be3e50116085d8e621ba33f531a127f7a4afb52bb49a383b749fdf2af2222800000000ffffffff457b95df3e5611dec8054bf654bd6de209cc073317e8b5a7ca26a6d78c07e9370f00000000ffffffff012ddc0f00000000001976a91409e9d8ce75c4c3b87099198540815d72f164d83088ac024730440220249083a511a7d5543c116ff8b41b113d9455d4b461fd5722f11e4913096a642e02204df620f3e214447597333f71484a32f116baacde3a19763082eb8b7600eaf61e0121027c072dd7e6cd17bc84aa405cd73ffab67f1924ceb26e7a7e461a47d9f985e68a0247304402200918abf79e77a80366469852145d13833047cbce00cc88f1baa7e340ea1604d902201764c3cb56919334f6e8b8d9567507f8f7fefd72eeff34bc88a9537e689db1640121027c072dd7e6cd17bc84aa405cd73ffab67f1924ceb26e7a7e461a47d9f985e68a00000000"
}