{
  "txid": "517d387a13cf0ac6e6f67580c63abdeaf3d2b1aab71606251369a4c62a682504",
  "version": 1,
  "locktime": 0,
  "vin": [
    {
      "txid": "3e553841fe416917c6219b48c3df65cb8fcbe12549f16a3cb463f2a659c64b83",
      "vout": 1,
      "prevout": {
        "scriptpubkey": "76a914288c29770fd670d001707763af81809bc2e49c5588ac",
        "scriptpubkey_asm": "OP_DUP OP_HASH160 OP_PUSHBYTES_20 288c29770fd670d001707763af81809bc2e49c55 OP_EQUALVERIFY OP_CHECKSIG",
        "scriptpubkey_type": "p2pkh",
        "scriptpubkey_address": "14hPwJGu9Q8zuyktjnHsW5Xvg6C1BUxsoB",
        "value": 59059
      },
      "scriptsig": "473044022031c5136f7032627b1788f390a5539d99895293807d3d723e1628de6ca4d43c22022024b724b66bb8d2cb6afa72feb066a91e60408640667d41f68e3f1f93723f272b012103c07572c8a4fb01dda68d811649517729030cc84886371ddd1049ce7a53a7f5ae",
      "scriptsig_asm": "OP_PUSHBYTES_71 3044022031c5136f7032627b1788f390a5539d99895293807d3d723e1628de6ca4d43c22022024b724b66bb8d2cb6afa72feb066a91e60408640667d41f68e3f1f93723f272b01 OP_PUSHBYTES_33 03c07572c8a4fb01dda68d811649517729030cc84886371ddd1049ce7a53a7f5ae",
      "is_coinbase": false,
      "sequence": 4294967295
    },
    {
      "txid": "37ca52591f416dc4524952bf3d938b8f31992ef68016790688dbba79717c63a9",
      "vout": 1,
      "prevout": {
        "scriptpubkey": "76a914e02f3bd5382f09667491eb3d0260ac9e8f2c279888ac",
        "scriptpubkey_asm": "OP_DUP OP_HASH160 OP_PUSHBYTES_20 e02f3bd5382f09667491eb3d0260ac9e8f2c2798 OP_EQUALVERIFY OP_CHECKSIG",
        "scriptpubkey_type": "p2pkh",
        "scriptpubkey_address": "1MSNwpwaUZehQfbQMhpy6ZLcrWYntW7tiF",
        "value": 77464
      },
      "scriptsig": "483045022100b4b82707b1420b1ae179298aaf01add2423413194db9c4c2265e55a20eb2b5af02204ef7374c44ee4bc7fb0d9d29bf0a022b31cde007deab399acfc4e4ea8f8979480121024dffdece205bc0f33237ce3328b395deae3d0dc43cbffaa7a0ac2a89ddfca781",
      "scriptsig_asm": "OP_PUSHBYTES_72 3045022100b4b82707b1420b1ae179298aaf01add2423413194db9c4c2265e55a20eb2b5af02204ef7374c44ee4bc7fb0d9d29bf0a022b31cde007deab399acfc4e4ea8f89794801 OP_PUSHBYTES_33 024dffdece205bc0f33237ce3328b395deae3d0dc43cbffaa7a0ac2a89ddfca781",
      "is_coinbase": false,
      "sequence": 4294967295
    }
  ],
  "vout": [
    {
      "scriptpubkey": "a914e06491b0c2d243f287f78731a12c127e4879045787",
      "scriptpubkey_asm": "OP_HASH160 OP_PUSHBYTES_20 e06491b0c2d243f287f78731a12c127e48790457 OP_EQUAL",
      "scriptpubkey_type": "p2sh",
      "scriptpubkey_address": "3N9VmBFcbubhNEPV9BhzSqikUEXot7Ku5Q",
      "value": 124355
    }
  ],
  "size": 337,
  "weight": 1348,
  "fee": 12168,
  "status": {
    "confirmed": true,
    "block_height": 834638,
    "block_hash": "000000000000000000025f742c626208ac87e0b7d15054abb4a19ca2d735a54e",
    "block_time": 1710405325
  },
  "hex": "0100000002834bc659a6f263b43c6af14925e1cb8fcb65dfc3489b21c6176941fe4138553e010000006a473044022031c5136f7032627b1788f390a5539d99895293807d3d723e1628de6ca4d43c22022024b724b66bb8d2cb6afa72feb066a91e60408640667d41f68e3f1f93723f272b012103c07572c8a4fb01dda68d811649517729030cc84886371ddd1049ce7a53a7f5aeffffffffa9637c7179badb8806791680f62e99318f8b933dbf524952c46d411f5952ca37010000006b483045022100b4b82707b1420b1ae179298aaf01add2423413194db9c4c2265e55a20eb2b5af02204ef7374c44ee4bc7fb0d9d29bf0a022b31cde007deab399acfc4e4ea8f8979480121024dffdece205bc0f33237ce3328b395deae3d0dc43cbffaa7a0ac2a89ddfca781ffffffff01c3e501000000000017a914e06491b0c2d243f287f78731a12c127e487904578700000000"
}