{
  "txid": "51841ebe84bbcd25ac7b7c9e42a60834f1af0be57294e26d52a5daec7232b9b3",
  "version": 2,
  "locktime": 0,
  "vin": [
    {
      "txid": "985b9afeafa1ed2e61e6f337f93569e0d474a26f4921bd2c0334a82135535d7e",
      "vout": 5,
      "prevout": {
        "scriptpubkey": "00141e37a0d89bd9b86f2d55028d3475f57e05402d43",
        "scriptpubkey_asm": "OP_0 OP_PUSHBYTES_20 1e37a0d89bd9b86f2d55028d3475f57e05402d43",
        "scriptpubkey_type": "v0_p2wpkh",
        "scriptpubkey_address": "bc1qrcm6pkymmxux7t24q2xnga040cz5qt2rcx5czn",
        "value": 1036665
      },
      "scriptsig": "",
      "scriptsig_asm": "",
      "witness": [
        "304402200be462767afddcff17f3689c5574430206d5ddd4af187f422d3fb7cb4d033eb702203217b018ca774f804cced9d5e099139cfe1a569f6e354544a22ffd6969f5639b01",
        "02066d8854f02dc4115e34b2790e634d910e947142c8355d1872f01bb3618a1f86"
      ],
      "is_coinbase": false,
      "sequence": 4294967295
    },
    {
      "txid": "81c01ee2fc93e1e739a2d4234f9f0179fdc463fbe55acfe5dc97ba870ede3a23",
      "vout": 0,
      "prevout": {
        "scriptpubkey": "0014c329fa313687060b29f3e44954f3c73f3d662555",
        "scriptpubkey_asm": "OP_0 OP_PUSHBYTES_20 c329fa313687060b29f3e44954f3c73f3d662555",
        "scriptpubkey_type": "v0_p2wpkh",
        "scriptpubkey_address": "bc1qcv5l5vfksurqk20nu3y4fu788u7kvf24c0zesu",
        "value": 14189021
      },
      "scriptsig": "",
      "scriptsig_asm": "",
      "witness": [
        "304402201dcdd6e01164eac2479e35042ad59a022a536bc990f50317ebcf155f6e92cd9b02207d6dbafa907bc2bb788fa9c17ef57cd502be7930a1d4a3fa3c8b7f6d192fb02401",
        "02f959f64327048f3a4664992aad49c7fde8c117a29ebef2dabc0e5356c00e5857"
      ],
      "is_coinbase": false,
      "sequence": 4294967295
    }
  ],
  "vout": [
    {
      "scriptpubkey": "a91474829ffe6e8b80bb9a9c214a9e2313351b8ae43687",
      "scriptpubkey_asm": "OP_HASH160 OP_PUSHBYTES_20 74829ffe6e8b80bb9a9c214a9e2313351b8ae436 OP_EQUAL",
      "scriptpubkey_type": "p2sh",
      "scriptpubkey_address": "3CK4nn7Ei2cwj5rmTu7SosgQacQpU8cLQE",
      "value": 5527600
    },
    {
      "scriptpubkey": "001491dd20bf484c7ef2eb6c683c9408e21fa4f41902",
      "scriptpubkey_asm": "OP_0 OP_PUSHBYTES_20 91dd20bf484c7ef2eb6c683c9408e21fa4f41902",
      "scriptpubkey_type": "v0_p2wpkh",
      "scriptpubkey_address": "bc1qj8wjp06gf3l096mvdq7fgz8zr7j0gxgzhcyyr9",
      "value": 9694324
    }
  ],
  "size": 371,
  "weight": 836,
  "fee": 3762,
  "status": {
    "confirmed": true,
    "block_height": 834638,
    "block_hash": "000000000000000000025f742c626208ac87e0b7d15054abb4a19ca2d735a54e",
    "block_time": 1710405325
  },
  "hex": "020000000001027e5d533521a834032cbd21496fa274d4e06935f937f3e6612eeda1affe9a5b980500000000ffffffff233ade0e87ba97dce5cf5ae5fb63c4fd79019f4f23d4a239e7e193fce21ec0810000000000ffffffff02305854000000000017a91474829ffe6e8b80bb9a9c214a9e2313351b8ae4368774ec93000000000016001491dd20bf484c7ef2eb6c683c9408e21fa4f419020247304402200be462767afddcff17f3689c5574430206d5ddd4af187f422d3fb7cb4d033eb702203217b018ca774f804cced9d5e099139cfe1a569f6e354544a22ffd6969f5639b012102066d8854f02dc4115e34b2790e634d910e947142c8355d1872f01bb3618a1f860247304402201dcdd6e01164eac2479e35042ad59a022a536bc990f50317ebcf155f6e92cd9b02207d6dbafa907bc2bb788fa9c17ef57cd502be7930a1d4a3fa3c8b7f6d192fb024012102f959f64327048f3a4664992aad49c7fde8c117a29ebef2dabc0e5356c00e585700000000"
}