{
  "txid": "5186b4db47ef4f531dad78d576b9fe473379346f280deffdf9989fc0b579a806",
  "version": 1,
  "locktime": 0,
  "vin": [
    {
      "txid": "98fe2e5e4373e35bcdfd43cd98b146fd2ccf2673415f87201ba750c2c7d3b6fc",
      "vout": 0,
      "prevout": {
        "scriptpubkey": "5120cec7731aa4692c7d753ad9d032678399d6ceb3c7c8c61f8ef3ef6d56593c9af1",
        "scriptpubkey_asm": "OP_PUSHNUM_1 OP_PUSHBYTES_32 cec7731aa4692c7d753ad9d032678399d6ceb3c7c8c61f8ef3ef6d56593c9af1",
        "scriptpubkey_type": "v1_p2tr",
        "scriptpubkey_address": "bc1pemrhxx4ydyk86af6m8gryeurn8tvav78errplrhnaak4vkfuntcswhpu7y",
        "value": 2721
      },
      "scriptsig": "",
      "scriptsig_asm": "",
      "witness": [
        "813c0bc935a0438074841474965265fe40478365825491c4142ec18d4ab253dd46f69eca101a947e8c4475cfb759466067a72b6988cdadbd99a313fea803a547",
        "2079f9d72d9b9b1dcb10f7ce421deb098c111f9504f4c35d2f77d14ee0d7bea71eac0063036f7264010118746578742f706c61696e3b636861727365743d7574662d3800397b2270223a226272632d3230222c226f70223a227472616e73666572222c227469636b223a224d574343222c22616d74223a2233313236227d68",
        "c079f9d72d9b9b1dcb10f7ce421deb098c111f9504f4c35d2f77d14ee0d7bea71e"
      ],
      "is_coinbase": false,
      "sequence": 4294967293
    }
  ],
  "vout": [
    {
      "scriptpubkey": "0014303339128bc1e7928aebac5f28757088066d5977",
      "scriptpubkey_asm": "OP_0 OP_PUSHBYTES_20 303339128bc1e7928aebac5f28757088066d5977",
      "scriptpubkey_type": "v0_p2wpkh",
      "scriptpubkey_address": "bc1qxqenjy5tc8ne9zht430jsats3qrx6kthmqu50d",
      "value": 546
    }
  ],
  "size": 312,
  "weight": 558,
  "fee": 2175,
  "status": {
    "confirmed": true,
    "block_height": 834460,
    "block_hash": "00000000000000000000484a79b643b2524bbce82e5d8a442013fa5b8905ed98",
    "block_time": 1710307468
  },
  "hex": "01000000000101fcb6d3c7c250a71b20875f417326cf2cfd46b198cd43fdcd5be373435e2efe980000000000fdffffff012202000000000000160014303339128bc1e7928aebac5f28757088066d59770340813c0bc935a0438074841474965265fe40478365825491c4142ec18d4ab253dd46f69eca101a947e8c4475cfb759466067a72b6988cdadbd99a313fea803a5477f2079f9d72d9b9b1dcb10f7ce421deb098c111f9504f4c35d2f77d14ee0d7bea71eac0063036f7264010118746578742f706c61696e3b636861727365743d7574662d3800397b2270223a226272632d3230222c226f70223a227472616e73666572222c227469636b223a224d574343222c22616d74223a2233313236227d6821c079f9d72d9b9b1dcb10f7ce421deb098c111f9504f4c35d2f77d14ee0d7bea71e00000000"
}