{
  "txid": "51938cbaecae5085f08b88a3856c8798f92e964fbf917ca22061e48fe54cbaaa",
  "version": 1,
  "locktime": 0,
  "vin": [
    {
      "txid": "07d5520d1caee5c908305da0ec2056facd3e8aba9aada4d6c667816713e5112f",
      "vout": 84,
      "prevout": {
        "scriptpubkey": "0014d4b7b3b9612f3e435713afe43cefd20bed833afd",
        "scriptpubkey_asm": "OP_0 OP_PUSHBYTES_20 d4b7b3b9612f3e435713afe43cefd20bed833afd",
        "scriptpubkey_type": "v0_p2wpkh",
        "scriptpubkey_address": "bc1q6jmm8wtp9ulyx4cn4ljrem7jp0kcxwhas7zy89",
        "value": 172643
      },
      "scriptsig": "",
      "scriptsig_asm": "",
      "witness": [
        "30440220051a1e3b78f0a84b2d38131d8fb5c30f7e597ff490859bce8ea28c425681e1150220397233625a4eaefff1e40f04e67a0eeca99c3faf0248fbc4cc2f4c62d4cb882d01",
        "021086a8d0ff32eaabf558f4374fe0fd5ffbc74040500a01a88091f54bb2e24cc6"
      ],
      "is_coinbase": false,
      "sequence": 4294967295
    }
  ],
  "vout": [
    {
      "scriptpubkey": "a914e7fce78086fa7c060f80ad57cb00870a0c7807d687",
      "scriptpubkey_asm": "OP_HASH160 OP_PUSHBYTES_20 e7fce78086fa7c060f80ad57cb00870a0c7807d6 OP_EQUAL",
      "scriptpubkey_type": "p2sh",
      "scriptpubkey_address": "3NqeyxPPDAxF8EsYwKhWHtrveEGx6xXBEP",
      "value": 169646
    }
  ],
  "size": 192,
  "weight": 441,
  "fee": 2997,
  "status": {
    "confirmed": true,
    "block_height": 834552,
    "block_hash": "00000000000000000001dd0468a70c94f619251d286585cff57aeb4bd9ede330",
    "block_time": 1710355598
  },
  "hex": "010000000001012f11e513678167c6d6a4ad9aba8a3ecdfa5620eca05d3008c9e5ae1c0d52d5075400000000ffffffff01ae9602000000000017a914e7fce78086fa7c060f80ad57cb00870a0c7807d687024730440220051a1e3b78f0a84b2d38131d8fb5c30f7e597ff490859bce8ea28c425681e1150220397233625a4eaefff1e40f04e67a0eeca99c3faf0248fbc4cc2f4c62d4cb882d0121021086a8d0ff32eaabf558f4374fe0fd5ffbc74040500a01a88091f54bb2e24cc600000000"
}