{
  "txid": "5197ddd945d3883002d31c3761ce21b08a1ff8e8470d86b470e4d8c0d611b099",
  "version": 2,
  "locktime": 0,
  "vin": [
    {
      "txid": "1e063b45d066ad4f6583bf02ae20aa6a61aabfdcd9cc81baa99fdf583da84927",
      "vout": 5,
      "prevout": {
        "scriptpubkey": "00147f132432c3aabd93c14d7d65f4203c394ce8218d",
        "scriptpubkey_asm": "OP_0 OP_PUSHBYTES_20 7f132432c3aabd93c14d7d65f4203c394ce8218d",
        "scriptpubkey_type": "v0_p2wpkh",
        "scriptpubkey_address": "bc1q0ufjgvkr427e8s2d04jlggpu89xwsgvd3rawpz",
        "value": 300
      },
      "scriptsig": "",
      "scriptsig_asm": "",
      "witness": [
        "3045022100ac85e46f38acab6b8a3379fb01516d0be3c9764d61067acba8e8442c38afc24c02204d693fc81bc6c1b37d89c3fd0c1448a7176d51c635200d95e7b925a33f2600f901",
        "038e514f6d43f2304723d45325a9729d446e07968d1c018dd53b1bbd66898c9e27"
      ],
      "is_coinbase": false,
      "sequence": 4294967295
    },
    {
      "txid": "1e063b45d066ad4f6583bf02ae20aa6a61aabfdcd9cc81baa99fdf583da84927",
      "vout": 6,
      "prevout": {
        "scriptpubkey": "00147f132432c3aabd93c14d7d65f4203c394ce8218d",
        "scriptpubkey_asm": "OP_0 OP_PUSHBYTES_20 7f132432c3aabd93c14d7d65f4203c394ce8218d",
        "scriptpubkey_type": "v0_p2wpkh",
        "scriptpubkey_address": "bc1q0ufjgvkr427e8s2d04jlggpu89xwsgvd3rawpz",
        "value": 300
      },
      "scriptsig": "",
      "scriptsig_asm": "",
      "witness": [
        "304402207d76f1fbf9ac020396291d353aae8be0e447516fb75711302efadf322c9397b602206c11d09865297a617fa8a2228c96bf62cff258bb0d738252de1b581d3a5d51b601",
        "038e514f6d43f2304723d45325a9729d446e07968d1c018dd53b1bbd66898c9e27"
      ],
      "is_coinbase": false,
      "sequence": 4294967295
    },
    {
      "txid": "cda268af0809e8e11ae96d8f820d3f70f1ab4b0f5d4d5ffb7a664ebef7b1fbdb",
      "vout": 0,
      "prevout": {
        "scriptpubkey": "5120320dd1ad6bbb1c832da61d12896c79eae18744b7ef2af5a2465038ba9aa808bc",
        "scriptpubkey_asm": "OP_PUSHNUM_1 OP_PUSHBYTES_32 320dd1ad6bbb1c832da61d12896c79eae18744b7ef2af5a2465038ba9aa808bc",
        "scriptpubkey_type": "v1_p2tr",
        "scriptpubkey_address": "bc1pxgxarttthvwgxtdxr5fgjmreatscw39hau40tgjx2qut4x4gpz7qffxv7c",
        "value": 330
      },
      "scriptsig": "",
      "scriptsig_asm": "",
      "witness": [
        "c1162ae7c9508940bc7dbde3d9500499eaca8a5ffa8841c216457584d36faf409007b1babaf9d9a71eb60d7d4abb50ae7ee213cf15f6282986811f97da17ba8d83"
      ],
      "is_coinbase": false,
      "sequence": 4294967295
    },
    {
      "txid": "b6ef87c0419ffd5ff82991553b14533d5d56f51c53a339124cc7d69b09a3d573",
      "vout": 8,
      "prevout": {
        "scriptpubkey": "00147836b4302dd3455c2aea93d29444d5eef8719ec2",
        "scriptpubkey_asm": "OP_0 OP_PUSHBYTES_20 7836b4302dd3455c2aea93d29444d5eef8719ec2",
        "scriptpubkey_type": "v0_p2wpkh",
        "scriptpubkey_address": "bc1q0qmtgvpd6dz4c2h2j0ffg3x4amu8r8kz2hqg96",
        "value": 114783
      },
      "scriptsig": "",
      "scriptsig_asm": "",
      "witness": [
        "3044022047689ab7fbb7241f9be2076cbf74cd862f5af055ef744d6b30fd18f4ba71953302201f68ae4c0685d733a2df7e98b222202687080fbdb0b519c8859e4f71bba9a72701",
        "0270a0bdcccaf35f58c29dd88a23bcc412de154c4e9ffbf1ca1433ae2f318983f8"
      ],
      "is_coinbase": false,
      "sequence": 4294967295
    },
    {
      "txid": "1e063b45d066ad4f6583bf02ae20aa6a61aabfdcd9cc81baa99fdf583da84927",
      "vout": 0,
      "prevout": {
        "scriptpubkey": "00147f132432c3aabd93c14d7d65f4203c394ce8218d",
        "scriptpubkey_asm": "OP_0 OP_PUSHBYTES_20 7f132432c3aabd93c14d7d65f4203c394ce8218d",
        "scriptpubkey_type": "v0_p2wpkh",
        "scriptpubkey_address": "bc1q0ufjgvkr427e8s2d04jlggpu89xwsgvd3rawpz",
        "value": 600
      },
      "scriptsig": "",
      "scriptsig_asm": "",
      "witness": [
        "3045022100ca69355ef6406b10cad3ebfc761f2bbe71b45f4c2f7194065ce5cc480a3a85290220679d8bc7ee4c99a4dceb5935449451a92fec9f22b897cd089c4d59674a735c7601",
        "038e514f6d43f2304723d45325a9729d446e07968d1c018dd53b1bbd66898c9e27"
      ],
      "is_coinbase": false,
      "sequence": 4294967295
    }
  ],
  "vout": [
    {
      "scriptpubkey": "00147f132432c3aabd93c14d7d65f4203c394ce8218d",
      "scriptpubkey_asm": "OP_0 OP_PUSHBYTES_20 7f132432c3aabd93c14d7d65f4203c394ce8218d",
      "scriptpubkey_type": "v0_p2wpkh",
      "scriptpubkey_address": "bc1q0ufjgvkr427e8s2d04jlggpu89xwsgvd3rawpz",
      "value": 600
    },
    {
      "scriptpubkey": "00147836b4302dd3455c2aea93d29444d5eef8719ec2",
      "scriptpubkey_asm": "OP_0 OP_PUSHBYTES_20 7836b4302dd3455c2aea93d29444d5eef8719ec2",
      "scriptpubkey_type": "v0_p2wpkh",
      "scriptpubkey_address": "bc1q0qmtgvpd6dz4c2h2j0ffg3x4amu8r8kz2hqg96",
      "value": 330
    },
    {
      "scriptpubkey": "5120320dd1ad6bbb1c832da61d12896c79eae18744b7ef2af5a2465038ba9aa808bc",
      "scriptpubkey_asm": "OP_PUSHNUM_1 OP_PUSHBYTES_32 320dd1ad6bbb1c832da61d12896c79eae18744b7ef2af5a2465038ba9aa808bc",
      "scriptpubkey_type": "v1_p2tr",
      "scriptpubkey_address": "bc1pxgxarttthvwgxtdxr5fgjmreatscw39hau40tgjx2qut4x4gpz7qffxv7c",
      "value": 69300
    },
    {
      "scriptpubkey": "00147836b4302dd3455c2aea93d29444d5eef8719ec2",
      "scriptpubkey_asm": "OP_0 OP_PUSHBYTES_20 7836b4302dd3455c2aea93d29444d5eef8719ec2",
      "scriptpubkey_type": "v0_p2wpkh",
      "scriptpubkey_address": "bc1q0qmtgvpd6dz4c2h2j0ffg3x4amu8r8kz2hqg96",
      "value": 38985
    },
    {
      "scriptpubkey": "00147f132432c3aabd93c14d7d65f4203c394ce8218d",
      "scriptpubkey_asm": "OP_0 OP_PUSHBYTES_20 7f132432c3aabd93c14d7d65f4203c394ce8218d",
      "scriptpubkey_type": "v0_p2wpkh",
      "scriptpubkey_address": "bc1q0ufjgvkr427e8s2d04jlggpu89xwsgvd3rawpz",
      "value": 300
    },
    {
      "scriptpubkey": "00147f132432c3aabd93c14d7d65f4203c394ce8218d",
      "scriptpubkey_asm": "OP_0 OP_PUSHBYTES_20 7f132432c3aabd93c14d7d65f4203c394ce8218d",
      "scriptpubkey_type": "v0_p2wpkh",
      "scriptpubkey_address": "bc1q0ufjgvkr427e8s2d04jlggpu89xwsgvd3rawpz",
      "value": 300
    }
  ],
  "size": 912,
  "weight": 2151,
  "fee": 6498,
  "status": {
    "confirmed": true,
    "block_height": 834460,
    "block_hash": "00000000000000000000484a79b643b2524bbce82e5d8a442013fa5b8905ed98",
    "block_time": 1710307468
  },
  "hex": "020000000001052749a83d58df9fa9ba81ccd9dcbfaa616aaa20ae02bf83654fad66d0453b061e0500000000ffffffff2749a83d58df9fa9ba81ccd9dcbfaa616aaa20ae02bf83654fad66d0453b061e0600000000ffffffffdbfbb1f7be4e667afb5f4d5d0f4babf1703f0d828f6de91ae1e80908af68a2cd0000000000ffffffff73d5a3099bd6c74c1239a3531cf5565d3d53143b559129f85ffd9f41c087efb60800000000ffffffff2749a83d58df9fa9ba81ccd9dcbfaa616aaa20ae02bf83654fad66d0453b061e0000000000ffffffff0658020000000000001600147f132432c3aabd93c14d7d65f4203c394ce8218d4a010000000000001600147836b4302dd3455c2aea93d29444d5eef8719ec2b40e010000000000225120320dd1ad6bbb1c832da61d12896c79eae18744b7ef2af5a2465038ba9aa808bc49980000000000001600147836b4302dd3455c2aea93d29444d5eef8719ec22c010000000000001600147f132432c3aabd93c14d7d65f4203c394ce8218d2c010000000000001600147f132432c3aabd93c14d7d65f4203c394ce8218d02483045022100ac85e46f38acab6b8a3379fb01516d0be3c9764d61067acba8e8442c38afc24c02204d693fc81bc6c1b37d89c3fd0c1448a7176d51c635200d95e7b925a33f2600f90121038e514f6d43f2304723d45325a9729d446e07968d1c018dd53b1bbd66898c9e270247304402207d76f1fbf9ac020396291d353aae8be0e447516fb75711302efadf322c9397b602206c11d09865297a617fa8a2228c96bf62cff258bb0d738252de1b581d3a5d51b60121038e514f6d43f2304723d45325a9729d446e07968d1c018dd53b1bbd66898c9e270141c1162ae7c9508940bc7dbde3d9500499eaca8a5ffa8841c216457584d36faf409007b1babaf9d9a71eb60d7d4abb50ae7ee213cf15f6282986811f97da17ba8d8302473044022047689ab7fbb7241f9be2076cbf74cd862f5af055ef744d6b30fd18f4ba71953302201f68ae4c0685d733a2df7e98b222202687080fbdb0b519c8859e4f71bba9a72701210270a0bdcccaf35f58c29dd88a23bcc412de154c4e9ffbf1ca1433ae2f318983f802483045022100ca69355ef6406b10cad3ebfc761f2bbe71b45f4c2f7194065ce5cc480a3a85290220679d8bc7ee4c99a4dceb5935449451a92fec9f22b897cd089c4d59674a735c760121038e514f6d43f2304723d45325a9729d446e07968d1c018dd53b1bbd66898c9e2700000000"
}