{
  "txid": "519c81bb189641e1b578970c31e502fefb3976701347ad2500b1e34a233e324d",
  "version": 1,
  "locktime": 0,
  "vin": [
    {
      "txid": "1135834c5928bcd0e4529d00a7bcf9304a19a1c66d53270936463cffb5fcec46",
      "vout": 0,
      "prevout": {
        "scriptpubkey": "0014dc6bf86354105de2fcd9868a2b0376d6731cb92f",
        "scriptpubkey_asm": "OP_0 OP_PUSHBYTES_20 dc6bf86354105de2fcd9868a2b0376d6731cb92f",
        "scriptpubkey_type": "v0_p2wpkh",
        "scriptpubkey_address": "bc1qm34lsc65zpw79lxes69zkqmk6ee3ewf0j77s3h",
        "value": 1652678370
      },
      "scriptsig": "",
      "scriptsig_asm": "",
      "witness": [
        "3044022071ee10ea5a070b95d6213629afbbf77a2840c6625e6a119fe8c05a7c93a0665902202756cfdc898ae5419d5b24d40b230e671933a1cac1c426715ccbcbd6e6112ed301",
        "02174ee672429ff94304321cdae1fc1e487edf658b34bd1d36da03761658a2bb09"
      ],
      "is_coinbase": false,
      "sequence": 4294967295
    }
  ],
  "vout": [
    {
      "scriptpubkey": "0014790b6b56fcc31ee7f30eb41b8ef7915cf4db8a1d",
      "scriptpubkey_asm": "OP_0 OP_PUSHBYTES_20 790b6b56fcc31ee7f30eb41b8ef7915cf4db8a1d",
      "scriptpubkey_type": "v0_p2wpkh",
      "scriptpubkey_address": "bc1q0y9kk4hucv0w0ucwksdcaau3tn6dhzsaxxcwcu",
      "value": 2903000
    },
    {
      "scriptpubkey": "0014dc6bf86354105de2fcd9868a2b0376d6731cb92f",
      "scriptpubkey_asm": "OP_0 OP_PUSHBYTES_20 dc6bf86354105de2fcd9868a2b0376d6731cb92f",
      "scriptpubkey_type": "v0_p2wpkh",
      "scriptpubkey_address": "bc1qm34lsc65zpw79lxes69zkqmk6ee3ewf0j77s3h",
      "value": 48760956
    },
    {
      "scriptpubkey": "a91409fff03b246fad524cfdc3f85c93c819251ee4c587",
      "scriptpubkey_asm": "OP_HASH160 OP_PUSHBYTES_20 09fff03b246fad524cfdc3f85c93c819251ee4c5 OP_EQUAL",
      "scriptpubkey_type": "p2sh",
      "scriptpubkey_address": "32btcBX83aX6Xzbwxve8hmX3MEMSV3ePy3",
      "value": 29108700
    },
    {
      "scriptpubkey": "5120370971a2db6e68da0a1842d6fbc4a4b5743f172f4838f40785b5986521b030f3",
      "scriptpubkey_asm": "OP_PUSHNUM_1 OP_PUSHBYTES_32 370971a2db6e68da0a1842d6fbc4a4b5743f172f4838f40785b5986521b030f3",
      "scriptpubkey_type": "v1_p2tr",
      "scriptpubkey_address": "bc1pxuyhrgkmde5d5zscgtt0h39yk46r79e0fqu0gpu9kkvx2gdsxrestnufyw",
      "value": 1028950
    },
    {
      "scriptpubkey": "76a91496a98d9066811d04a0a878f3785085972d1c9ec888ac",
      "scriptpubkey_asm": "OP_DUP OP_HASH160 OP_PUSHBYTES_20 96a98d9066811d04a0a878f3785085972d1c9ec8 OP_EQUALVERIFY OP_CHECKSIG",
      "scriptpubkey_type": "p2pkh",
      "scriptpubkey_address": "1EjdUXJaDD92FGJAsJD4RKZpHX3QKgc3gG",
      "value": 3917436
    },
    {
      "scriptpubkey": "0014a6ec7eb9ded8ee8dd3640b63f6067a1072baae59",
      "scriptpubkey_asm": "OP_0 OP_PUSHBYTES_20 a6ec7eb9ded8ee8dd3640b63f6067a1072baae59",
      "scriptpubkey_type": "v0_p2wpkh",
      "scriptpubkey_address": "bc1q5mk8aww7mrhgm5mypd3lvpn6zpet4tjenwgqxm",
      "value": 5422757
    },
    {
      "scriptpubkey": "a914b09eb674540c1089dbbf0cfce946b69862e0569487",
      "scriptpubkey_asm": "OP_HASH160 OP_PUSHBYTES_20 b09eb674540c1089dbbf0cfce946b69862e05694 OP_EQUAL",
      "scriptpubkey_type": "p2sh",
      "scriptpubkey_address": "3HntyrkFLs3rLZu1a6PxrCWwWsHYLytK9i",
      "value": 210000
    },
    {
      "scriptpubkey": "76a914fd330ece171d91abdc01a00d0768ed8b0b04445188ac",
      "scriptpubkey_asm": "OP_DUP OP_HASH160 OP_PUSHBYTES_20 fd330ece171d91abdc01a00d0768ed8b0b044451 OP_EQUALVERIFY OP_CHECKSIG",
      "scriptpubkey_type": "p2pkh",
      "scriptpubkey_address": "1Q5o86RS2W7dMbuzt9Bq6CJ67M2wq7KSuT",
      "value": 44295
    },
    {
      "scriptpubkey": "0014f8459027637f3d6da7fc6a02101326c680837425",
      "scriptpubkey_asm": "OP_0 OP_PUSHBYTES_20 f8459027637f3d6da7fc6a02101326c680837425",
      "scriptpubkey_type": "v0_p2wpkh",
      "scriptpubkey_address": "bc1qlpzeqfmr0u7kmfludgppqyexc6qgxap956ds2t",
      "value": 142838
    },
    {
      "scriptpubkey": "00203ce79af76baba4def5e437044716a5349be4dd4e2baf7af197d5fa9d62935599",
      "scriptpubkey_asm": "OP_0 OP_PUSHBYTES_32 3ce79af76baba4def5e437044716a5349be4dd4e2baf7af197d5fa9d62935599",
      "scriptpubkey_type": "v0_p2wsh",
      "scriptpubkey_address": "bc1q8nne4amt4wjdaa0yxuzyw949xjd7fh2w9whh4uvh6haf6c5n2kvswnxk0e",
      "value": 1499980000
    },
    {
      "scriptpubkey": "001483dd6409850cd533ad6d707e7d19353cf66becce",
      "scriptpubkey_asm": "OP_0 OP_PUSHBYTES_20 83dd6409850cd533ad6d707e7d19353cf66becce",
      "scriptpubkey_type": "v0_p2wpkh",
      "scriptpubkey_address": "bc1qs0wkgzv9pn2n8ttdwpl86xf48nmxhmxwxtl6wu",
      "value": 536086
    },
    {
      "scriptpubkey": "a9148471a767dcfa76064b995a35f2bcfbc9eec2609587",
      "scriptpubkey_asm": "OP_HASH160 OP_PUSHBYTES_20 8471a767dcfa76064b995a35f2bcfbc9eec26095 OP_EQUAL",
      "scriptpubkey_type": "p2sh",
      "scriptpubkey_address": "3DmKGgKdGkMrxp6wbAMCrV1SeXrtViguXy",
      "value": 253665
    },
    {
      "scriptpubkey": "a9144975544375f191796d78ee092621a9f160bfdb5f87",
      "scriptpubkey_asm": "OP_HASH160 OP_PUSHBYTES_20 4975544375f191796d78ee092621a9f160bfdb5f OP_EQUAL",
      "scriptpubkey_type": "p2sh",
      "scriptpubkey_address": "38PRoii83GWopdjmQjyiksXbbgmogW13Bm",
      "value": 30093429
    },
    {
      "scriptpubkey": "a91432653c1bc650e2b44ed37f978c55f17749cd7a4d87",
      "scriptpubkey_asm": "OP_HASH160 OP_PUSHBYTES_20 32653c1bc650e2b44ed37f978c55f17749cd7a4d OP_EQUAL",
      "scriptpubkey_type": "p2sh",
      "scriptpubkey_address": "36HUz3zZFCkXLimgVW8sdGkRx8x49X6dRJ",
      "value": 30000000
    },
    {
      "scriptpubkey": "a914799416c72fbb24c4b633cec1ee02986d088db9cc87",
      "scriptpubkey_asm": "OP_HASH160 OP_PUSHBYTES_20 799416c72fbb24c4b633cec1ee02986d088db9cc OP_EQUAL",
      "scriptpubkey_type": "p2sh",
      "scriptpubkey_address": "3Cms6A6rstqfs14HqXARKiWb8Ps5vLkfkJ",
      "value": 131158
    },
    {
      "scriptpubkey": "00148070a854565234a36febfac6dcf2e933e52a07cc",
      "scriptpubkey_asm": "OP_0 OP_PUSHBYTES_20 8070a854565234a36febfac6dcf2e933e52a07cc",
      "scriptpubkey_type": "v0_p2wpkh",
      "scriptpubkey_address": "bc1qspc2s4zk2g62xmltltrdeuhfx0jj5p7vv8ysfz",
      "value": 73000
    },
    {
      "scriptpubkey": "0014599735bcad883b763c739690fa983b88118984b7",
      "scriptpubkey_asm": "OP_0 OP_PUSHBYTES_20 599735bcad883b763c739690fa983b88118984b7",
      "scriptpubkey_type": "v0_p2wpkh",
      "scriptpubkey_address": "bc1qtxtnt09d3qahv0rnj6g04xpm3qgcnp9h8yh8mq",
      "value": 40000
    }
  ],
  "size": 723,
  "weight": 2565,
  "fee": 32100,
  "status": {
    "confirmed": true,
    "block_height": 834638,
    "block_hash": "000000000000000000025f742c626208ac87e0b7d15054abb4a19ca2d735a54e",
    "block_time": 1710405325
  },
  "hex": "0100000000010146ecfcb5ff3c46360927536dc6a1194a30f9bca7009d52e4d0bc28594c8335110000000000ffffffff11d84b2c0000000000160014790b6b56fcc31ee7f30eb41b8ef7915cf4db8a1d7c08e80200000000160014dc6bf86354105de2fcd9868a2b0376d6731cb92fdc29bc010000000017a91409fff03b246fad524cfdc3f85c93c819251ee4c58756b30f0000000000225120370971a2db6e68da0a1842d6fbc4a4b5743f172f4838f40785b5986521b030f37cc63b00000000001976a91496a98d9066811d04a0a878f3785085972d1c9ec888aca5be520000000000160014a6ec7eb9ded8ee8dd3640b63f6067a1072baae59503403000000000017a914b09eb674540c1089dbbf0cfce946b69862e056948707ad0000000000001976a914fd330ece171d91abdc01a00d0768ed8b0b04445188acf62d020000000000160014f8459027637f3d6da7fc6a02101326c680837425e0e06759000000002200203ce79af76baba4def5e437044716a5349be4dd4e2baf7af197d5fa9d62935599162e08000000000016001483dd6409850cd533ad6d707e7d19353cf66beccee1de03000000000017a9148471a767dcfa76064b995a35f2bcfbc9eec26095877530cb010000000017a9144975544375f191796d78ee092621a9f160bfdb5f8780c3c9010000000017a91432653c1bc650e2b44ed37f978c55f17749cd7a4d87560002000000000017a914799416c72fbb24c4b633cec1ee02986d088db9cc87281d0100000000001600148070a854565234a36febfac6dcf2e933e52a07cc409c000000000000160014599735bcad883b763c739690fa983b88118984b702473044022071ee10ea5a070b95d6213629afbbf77a2840c6625e6a119fe8c05a7c93a0665902202756cfdc898ae5419d5b24d40b230e671933a1cac1c426715ccbcbd6e6112ed3012102174ee672429ff94304321cdae1fc1e487edf658b34bd1d36da03761658a2bb0900000000"
}