{
  "txid": "51b8347f38e38a12616700301b96c4802945f90f576497019ee885a7bb82a89a",
  "version": 2,
  "locktime": 0,
  "vin": [
    {
      "txid": "2ec861de74f4ee19bb41c910c8cd041538f2ad94a92729115e72c7b6159441b7",
      "vout": 7,
      "prevout": {
        "scriptpubkey": "512001baaf175b9acc0ebad968648e293f9c2c4c0f85fc84caf6aaf5714a82744cf2",
        "scriptpubkey_asm": "OP_PUSHNUM_1 OP_PUSHBYTES_32 01baaf175b9acc0ebad968648e293f9c2c4c0f85fc84caf6aaf5714a82744cf2",
        "scriptpubkey_type": "v1_p2tr",
        "scriptpubkey_address": "bc1pqxa2796mntxqawkedpjgu2flnskycru9ljzv4a4274c54qn5fneqg7tp9y",
        "value": 2862
      },
      "scriptsig": "",
      "scriptsig_asm": "",
      "witness": [
        "9b399b149e997e187375e12d80c8097d5e4b09aea12c1baeada5fff17570220e600bfb6e9e5beedf3fda41dd5485ae6983775d7ff154b83f5f4db3be6fc65f86",
        "205d2c5fe86ced55a17dbdd6295798a8bc8420dd547e62eafddc8801cd57c936c7ac0063036f726401011e6170706c69636174696f6e2f6a736f6e3b636861727365743d7574662d38004cd37b2270223a22706f772d3230222c226f70223a226d696e74222c227469636b223a2250455045222c22616d74223a2231303030222c22736f6c7574696f6e223a22504550453a62633170746e776d6a6c6e30347468677938776d3632347175746a357163736676646a7179343676366b67747337656e6330797367633871666d646135723a303030303030303030303030303030303030303139393431613561653132383937363539383134343239323533333030353762306461393666336465613163353a3632313739313134393230227d68",
        "c0b3bc6f424055c5ec6ac1dc8b207f1ba18c4db693056bc938ea6425d8b7a62268"
      ],
      "is_coinbase": false,
      "sequence": 4294967295
    }
  ],
  "vout": [
    {
      "scriptpubkey": "51205cddb97e6faaee821ddbd2aa0e2e5406209636402574cd590b87b33c3c90460e",
      "scriptpubkey_asm": "OP_PUSHNUM_1 OP_PUSHBYTES_32 5cddb97e6faaee821ddbd2aa0e2e5406209636402574cd590b87b33c3c90460e",
      "scriptpubkey_type": "v1_p2tr",
      "scriptpubkey_address": "bc1ptnwmjln04thgy8wm624qutj5qcsfvdjqy46v6kgts7enc0ysgc8qfmda5r",
      "value": 546
    }
  ],
  "size": 487,
  "weight": 769,
  "fee": 2316,
  "status": {
    "confirmed": true,
    "block_height": 834460,
    "block_hash": "00000000000000000000484a79b643b2524bbce82e5d8a442013fa5b8905ed98",
    "block_time": 1710307468
  },
  "hex": "02000000000101b7419415b6c7725e112927a994adf2381504cdc810c941bb19eef474de61c82e0700000000ffffffff0122020000000000002251205cddb97e6faaee821ddbd2aa0e2e5406209636402574cd590b87b33c3c90460e03409b399b149e997e187375e12d80c8097d5e4b09aea12c1baeada5fff17570220e600bfb6e9e5beedf3fda41dd5485ae6983775d7ff154b83f5f4db3be6fc65f86fd2001205d2c5fe86ced55a17dbdd6295798a8bc8420dd547e62eafddc8801cd57c936c7ac0063036f726401011e6170706c69636174696f6e2f6a736f6e3b636861727365743d7574662d38004cd37b2270223a22706f772d3230222c226f70223a226d696e74222c227469636b223a2250455045222c22616d74223a2231303030222c22736f6c7574696f6e223a22504550453a62633170746e776d6a6c6e30347468677938776d3632347175746a357163736676646a7179343676366b67747337656e6330797367633871666d646135723a303030303030303030303030303030303030303139393431613561653132383937363539383134343239323533333030353762306461393666336465613163353a3632313739313134393230227d6821c0b3bc6f424055c5ec6ac1dc8b207f1ba18c4db693056bc938ea6425d8b7a6226800000000"
}