{
  "txid": "51ea531c1bb769bdd220aeada686bb321a8fbe646fb1f22662c7352c3220e3da",
  "version": 2,
  "locktime": 0,
  "vin": [
    {
      "txid": "6337b956f8f99e92ccb282c47f329bf5560c788f962d64ff2275825acc0dbc76",
      "vout": 1,
      "prevout": {
        "scriptpubkey": "0014ce1e2c3387d91fb92dce036e2e30fc89fad9e95f",
        "scriptpubkey_asm": "OP_0 OP_PUSHBYTES_20 ce1e2c3387d91fb92dce036e2e30fc89fad9e95f",
        "scriptpubkey_type": "v0_p2wpkh",
        "scriptpubkey_address": "bc1qec0zcvu8my0mjtwwqdhzuv8u38adn62l4l5c3h",
        "value": 249143
      },
      "scriptsig": "",
      "scriptsig_asm": "",
      "witness": [
        "30440220223a07055e7f61eb6ed07615a26ec703c14cdc6290627ad75774420f102fd1ef0220295120f349961c92874a7c5c405d25ab02223fa80f437437f4bcc09c867a538601",
        "03f21b3a25d6dc24c97612086570cf3fbbc55386a325a367b249fee72b4f2fe9a7"
      ],
      "is_coinbase": false,
      "sequence": 4294967295
    }
  ],
  "vout": [
    {
      "scriptpubkey": "76a914068817fe0ccafd1a21494164df5b69710226e3f888ac",
      "scriptpubkey_asm": "OP_DUP OP_HASH160 OP_PUSHBYTES_20 068817fe0ccafd1a21494164df5b69710226e3f8 OP_EQUALVERIFY OP_CHECKSIG",
      "scriptpubkey_type": "p2pkh",
      "scriptpubkey_address": "1bY67HnnqrJyT1Hs1Sfmhy6mFer273tWA",
      "value": 44985
    },
    {
      "scriptpubkey": "0014847a12dee12c5a4c393a226282fdfe6b971483b2",
      "scriptpubkey_asm": "OP_0 OP_PUSHBYTES_20 847a12dee12c5a4c393a226282fdfe6b971483b2",
      "scriptpubkey_type": "v0_p2wpkh",
      "scriptpubkey_address": "bc1qs3ap9hhp93dycwf6yf3g9l07dwt3fqajxn5q72",
      "value": 200446
    }
  ],
  "size": 225,
  "weight": 573,
  "fee": 3712,
  "status": {
    "confirmed": true,
    "block_height": 834638,
    "block_hash": "000000000000000000025f742c626208ac87e0b7d15054abb4a19ca2d735a54e",
    "block_time": 1710405325
  },
  "hex": "0200000000010176bc0dcc5a827522ff642d968f780c56f59b327fc482b2cc929ef9f856b937630100000000ffffffff02b9af0000000000001976a914068817fe0ccafd1a21494164df5b69710226e3f888acfe0e030000000000160014847a12dee12c5a4c393a226282fdfe6b971483b2024730440220223a07055e7f61eb6ed07615a26ec703c14cdc6290627ad75774420f102fd1ef0220295120f349961c92874a7c5c405d25ab02223fa80f437437f4bcc09c867a5386012103f21b3a25d6dc24c97612086570cf3fbbc55386a325a367b249fee72b4f2fe9a700000000"
}