{
  "txid": "51eee14b3f86ca0c053648520b736922a2cd4bed1dbfbdb78bbc6ead97072c46",
  "version": 2,
  "locktime": 0,
  "vin": [
    {
      "txid": "24038d8f1b1b3621b211097aaf658d3453f2e347333521d03bd5c8e9fdf1e54c",
      "vout": 4,
      "prevout": {
        "scriptpubkey": "5120478bad54632491f90c1da091e4b701d39d3ffacd0b6b074f18fcf663c11a333a",
        "scriptpubkey_asm": "OP_PUSHNUM_1 OP_PUSHBYTES_32 478bad54632491f90c1da091e4b701d39d3ffacd0b6b074f18fcf663c11a333a",
        "scriptpubkey_type": "v1_p2tr",
        "scriptpubkey_address": "bc1pg79664rryjgljrqa5zg7fdcp6wwnl7kdpd4swncclnmx8sg6xvaqwzgkdu",
        "value": 600
      },
      "scriptsig": "",
      "scriptsig_asm": "",
      "witness": [
        "334f60dfbdbb7809ade8d7980df61c9fa0ef83d138cf76692ffa980e6a4ad99d74e48cdcc4162cd5e0d7df9014bd7d7317f7e903a665d9fcda64234a109ab4a4"
      ],
      "is_coinbase": false,
      "sequence": 4294967295
    },
    {
      "txid": "d00ae30f4dd43f36ce385398acee19cc6c26853a3be2dfe35446336362a3fd0b",
      "vout": 4,
      "prevout": {
        "scriptpubkey": "5120478bad54632491f90c1da091e4b701d39d3ffacd0b6b074f18fcf663c11a333a",
        "scriptpubkey_asm": "OP_PUSHNUM_1 OP_PUSHBYTES_32 478bad54632491f90c1da091e4b701d39d3ffacd0b6b074f18fcf663c11a333a",
        "scriptpubkey_type": "v1_p2tr",
        "scriptpubkey_address": "bc1pg79664rryjgljrqa5zg7fdcp6wwnl7kdpd4swncclnmx8sg6xvaqwzgkdu",
        "value": 600
      },
      "scriptsig": "",
      "scriptsig_asm": "",
      "witness": [
        "07e0f423c408bdd652b52581aaa52bbf44607d3a9c977eab1f204d983192cffba1dd3b53a68c2c7beb88378e04977526f63c2ffdb8f22fd2745de6a4b549e2bc"
      ],
      "is_coinbase": false,
      "sequence": 4294967295
    },
    {
      "txid": "5c30086390e0a67c7be0bb9c46f567ce0e7cf167e81712d0f045371652b24f05",
      "vout": 0,
      "prevout": {
        "scriptpubkey": "5120c4d6f33b3dabdff90cff99278d6a4d6b57f5307195b4b2e41397c3c02ef49d96",
        "scriptpubkey_asm": "OP_PUSHNUM_1 OP_PUSHBYTES_32 c4d6f33b3dabdff90cff99278d6a4d6b57f5307195b4b2e41397c3c02ef49d96",
        "scriptpubkey_type": "v1_p2tr",
        "scriptpubkey_address": "bc1pcnt0xwea400ljr8lnync66jdddtl2vr3jk6t9eqnjlpuqth5nktqs05r3w",
        "value": 546
      },
      "scriptsig": "",
      "scriptsig_asm": "",
      "witness": [
        "46b7486beea6e85c35c262d6e2fa7da998ec6e62883b6aa76c850e18e599073b8c3535b5c42ad76934ebb840a3b6a9cbe09234ba6b0076d8b5b8823ba94a991083"
      ],
      "is_coinbase": false,
      "sequence": 4294967295
    },
    {
      "txid": "d00ae30f4dd43f36ce385398acee19cc6c26853a3be2dfe35446336362a3fd0b",
      "vout": 5,
      "prevout": {
        "scriptpubkey": "5120478bad54632491f90c1da091e4b701d39d3ffacd0b6b074f18fcf663c11a333a",
        "scriptpubkey_asm": "OP_PUSHNUM_1 OP_PUSHBYTES_32 478bad54632491f90c1da091e4b701d39d3ffacd0b6b074f18fcf663c11a333a",
        "scriptpubkey_type": "v1_p2tr",
        "scriptpubkey_address": "bc1pg79664rryjgljrqa5zg7fdcp6wwnl7kdpd4swncclnmx8sg6xvaqwzgkdu",
        "value": 503198
      },
      "scriptsig": "",
      "scriptsig_asm": "",
      "witness": [
        "c89d1696a59fa1c7fc5f86c61177596680e4c982a99cf6cf4eef634945fc5328948a09dcd87abc019b833c458182e2cdd82ca0b84a9f42b016dbd07a2aca85fa"
      ],
      "is_coinbase": false,
      "sequence": 4294967295
    },
    {
      "txid": "24038d8f1b1b3621b211097aaf658d3453f2e347333521d03bd5c8e9fdf1e54c",
      "vout": 5,
      "prevout": {
        "scriptpubkey": "5120478bad54632491f90c1da091e4b701d39d3ffacd0b6b074f18fcf663c11a333a",
        "scriptpubkey_asm": "OP_PUSHNUM_1 OP_PUSHBYTES_32 478bad54632491f90c1da091e4b701d39d3ffacd0b6b074f18fcf663c11a333a",
        "scriptpubkey_type": "v1_p2tr",
        "scriptpubkey_address": "bc1pg79664rryjgljrqa5zg7fdcp6wwnl7kdpd4swncclnmx8sg6xvaqwzgkdu",
        "value": 430279
      },
      "scriptsig": "",
      "scriptsig_asm": "",
      "witness": [
        "fd43e0b5ff6f54d69ba29a09248011c8fcc62dc1ed9c1b5d5b82537b61de2ab06d756b81612786becb72d9fc0b19132be76819b6b517bbed10df86231d9ab9ac"
      ],
      "is_coinbase": false,
      "sequence": 4294967295
    }
  ],
  "vout": [
    {
      "scriptpubkey": "5120478bad54632491f90c1da091e4b701d39d3ffacd0b6b074f18fcf663c11a333a",
      "scriptpubkey_asm": "OP_PUSHNUM_1 OP_PUSHBYTES_32 478bad54632491f90c1da091e4b701d39d3ffacd0b6b074f18fcf663c11a333a",
      "scriptpubkey_type": "v1_p2tr",
      "scriptpubkey_address": "bc1pg79664rryjgljrqa5zg7fdcp6wwnl7kdpd4swncclnmx8sg6xvaqwzgkdu",
      "value": 1200
    },
    {
      "scriptpubkey": "5120478bad54632491f90c1da091e4b701d39d3ffacd0b6b074f18fcf663c11a333a",
      "scriptpubkey_asm": "OP_PUSHNUM_1 OP_PUSHBYTES_32 478bad54632491f90c1da091e4b701d39d3ffacd0b6b074f18fcf663c11a333a",
      "scriptpubkey_type": "v1_p2tr",
      "scriptpubkey_address": "bc1pg79664rryjgljrqa5zg7fdcp6wwnl7kdpd4swncclnmx8sg6xvaqwzgkdu",
      "value": 546
    },
    {
      "scriptpubkey": "5120c4d6f33b3dabdff90cff99278d6a4d6b57f5307195b4b2e41397c3c02ef49d96",
      "scriptpubkey_asm": "OP_PUSHNUM_1 OP_PUSHBYTES_32 c4d6f33b3dabdff90cff99278d6a4d6b57f5307195b4b2e41397c3c02ef49d96",
      "scriptpubkey_type": "v1_p2tr",
      "scriptpubkey_address": "bc1pcnt0xwea400ljr8lnync66jdddtl2vr3jk6t9eqnjlpuqth5nktqs05r3w",
      "value": 835000
    },
    {
      "scriptpubkey": "5120478bad54632491f90c1da091e4b701d39d3ffacd0b6b074f18fcf663c11a333a",
      "scriptpubkey_asm": "OP_PUSHNUM_1 OP_PUSHBYTES_32 478bad54632491f90c1da091e4b701d39d3ffacd0b6b074f18fcf663c11a333a",
      "scriptpubkey_type": "v1_p2tr",
      "scriptpubkey_address": "bc1pg79664rryjgljrqa5zg7fdcp6wwnl7kdpd4swncclnmx8sg6xvaqwzgkdu",
      "value": 600
    },
    {
      "scriptpubkey": "5120478bad54632491f90c1da091e4b701d39d3ffacd0b6b074f18fcf663c11a333a",
      "scriptpubkey_asm": "OP_PUSHNUM_1 OP_PUSHBYTES_32 478bad54632491f90c1da091e4b701d39d3ffacd0b6b074f18fcf663c11a333a",
      "scriptpubkey_type": "v1_p2tr",
      "scriptpubkey_address": "bc1pg79664rryjgljrqa5zg7fdcp6wwnl7kdpd4swncclnmx8sg6xvaqwzgkdu",
      "value": 600
    },
    {
      "scriptpubkey": "5120478bad54632491f90c1da091e4b701d39d3ffacd0b6b074f18fcf663c11a333a",
      "scriptpubkey_asm": "OP_PUSHNUM_1 OP_PUSHBYTES_32 478bad54632491f90c1da091e4b701d39d3ffacd0b6b074f18fcf663c11a333a",
      "scriptpubkey_type": "v1_p2tr",
      "scriptpubkey_address": "bc1pg79664rryjgljrqa5zg7fdcp6wwnl7kdpd4swncclnmx8sg6xvaqwzgkdu",
      "value": 88922
    }
  ],
  "size": 806,
  "weight": 2225,
  "fee": 8355,
  "status": {
    "confirmed": true,
    "block_height": 834460,
    "block_hash": "00000000000000000000484a79b643b2524bbce82e5d8a442013fa5b8905ed98",
    "block_time": 1710307468
  },
  "hex": "020000000001054ce5f1fde9c8d53bd021353347e3f253348d65af7a0911b221361b1b8f8d03240400000000ffffffff0bfda36263334654e3dfe23b3a85266ccc19eeac985338ce363fd44d0fe30ad00400000000ffffffff054fb252163745f0d01217e867f17c0ece67f5469cbbe07b7ca6e0906308305c0000000000ffffffff0bfda36263334654e3dfe23b3a85266ccc19eeac985338ce363fd44d0fe30ad00500000000ffffffff4ce5f1fde9c8d53bd021353347e3f253348d65af7a0911b221361b1b8f8d03240500000000ffffffff06b004000000000000225120478bad54632491f90c1da091e4b701d39d3ffacd0b6b074f18fcf663c11a333a2202000000000000225120478bad54632491f90c1da091e4b701d39d3ffacd0b6b074f18fcf663c11a333ab8bd0c0000000000225120c4d6f33b3dabdff90cff99278d6a4d6b57f5307195b4b2e41397c3c02ef49d965802000000000000225120478bad54632491f90c1da091e4b701d39d3ffacd0b6b074f18fcf663c11a333a5802000000000000225120478bad54632491f90c1da091e4b701d39d3ffacd0b6b074f18fcf663c11a333a5a5b010000000000225120478bad54632491f90c1da091e4b701d39d3ffacd0b6b074f18fcf663c11a333a0140334f60dfbdbb7809ade8d7980df61c9fa0ef83d138cf76692ffa980e6a4ad99d74e48cdcc4162cd5e0d7df9014bd7d7317f7e903a665d9fcda64234a109ab4a4014007e0f423c408bdd652b52581aaa52bbf44607d3a9c977eab1f204d983192cffba1dd3b53a68c2c7beb88378e04977526f63c2ffdb8f22fd2745de6a4b549e2bc014146b7486beea6e85c35c262d6e2fa7da998ec6e62883b6aa76c850e18e599073b8c3535b5c42ad76934ebb840a3b6a9cbe09234ba6b0076d8b5b8823ba94a9910830140c89d1696a59fa1c7fc5f86c61177596680e4c982a99cf6cf4eef634945fc5328948a09dcd87abc019b833c458182e2cdd82ca0b84a9f42b016dbd07a2aca85fa0140fd43e0b5ff6f54d69ba29a09248011c8fcc62dc1ed9c1b5d5b82537b61de2ab06d756b81612786becb72d9fc0b19132be76819b6b517bbed10df86231d9ab9ac00000000"
}