{
  "txid": "51feeb2726169f2a5e2826a3548246bfa3972cc4f862ebd7d106b0c847656d49",
  "version": 1,
  "locktime": 0,
  "vin": [
    {
      "txid": "e4fc61618fd31d4803ea2c3c1de15ca006bf7db0de4fc9c74dc712e151be2e40",
      "vout": 403,
      "prevout": {
        "scriptpubkey": "a914fdb47cb487857d19232761ff812246764413360187",
        "scriptpubkey_asm": "OP_HASH160 OP_PUSHBYTES_20 fdb47cb487857d19232761ff8122467644133601 OP_EQUAL",
        "scriptpubkey_type": "p2sh",
        "scriptpubkey_address": "3QpV6YR7eXqXgbQ3pFDfCfA91qnLx5ZhKW",
        "value": 833055
      },
      "scriptsig": "160014f0f2e8652b15932f23700143091211799b44216c",
      "scriptsig_asm": "OP_PUSHBYTES_22 0014f0f2e8652b15932f23700143091211799b44216c",
      "witness": [
        "304402203e0cd68da8fc609a5852fe346aded1478dd4de5059ecb2d8fe5e9f1f641c0641022055829ace8844318ba24390932ed7a83a9ec286d4c302f73363b9e0c8325b8e6201",
        "039a290799b777e5867c52394ebac019fe5dad0905e759e9889c1f62a88390f9b6"
      ],
      "is_coinbase": false,
      "sequence": 0,
      "inner_redeemscript_asm": "OP_0 OP_PUSHBYTES_20 f0f2e8652b15932f23700143091211799b44216c"
    },
    {
      "txid": "fec8fab061fc59c83b56d15b413685d47cd3ade7c7ac8914a5026369a2542790",
      "vout": 461,
      "prevout": {
        "scriptpubkey": "a9146b15a29f118c380a8c33839388658510b0978c4f87",
        "scriptpubkey_asm": "OP_HASH160 OP_PUSHBYTES_20 6b15a29f118c380a8c33839388658510b0978c4f OP_EQUAL",
        "scriptpubkey_type": "p2sh",
        "scriptpubkey_address": "3BTE9K5Dp3DeETrez75Pex35Tx9CxjHZ2G",
        "value": 647386
      },
      "scriptsig": "160014ec7e45c086056546b5d4ab8a51e47643dc1403db",
      "scriptsig_asm": "OP_PUSHBYTES_22 0014ec7e45c086056546b5d4ab8a51e47643dc1403db",
      "witness": [
        "30440220271e5e8a023f39e2b48ce259ed70bad8f4b63af219d5d9a13dc62c1e45e2ae6f02203104338dd78d5886985283ab7e7bc6db181d5f138f1c9180a880b2b449d1ba1b01",
        "036a967fefa080c124e88d2b6915d1d4a79ec675277d1ee57557413dcc7d8faf93"
      ],
      "is_coinbase": false,
      "sequence": 0,
      "inner_redeemscript_asm": "OP_0 OP_PUSHBYTES_20 ec7e45c086056546b5d4ab8a51e47643dc1403db"
    },
    {
      "txid": "29c1da61a7f859bfb198406cdaf333eb2dffb0878217e9a91b0451d225f3b985",
      "vout": 643,
      "prevout": {
        "scriptpubkey": "a9141515de44d14af21987d4761322c0f5467fbc512787",
        "scriptpubkey_asm": "OP_HASH160 OP_PUSHBYTES_20 1515de44d14af21987d4761322c0f5467fbc5127 OP_EQUAL",
        "scriptpubkey_type": "p2sh",
        "scriptpubkey_address": "33cWK1BdY7VEZdDKFbLcgxbEGSMs6vEZUJ",
        "value": 161466
      },
      "scriptsig": "16001494e2aac4c58e2a1c23a92c86ebcedee79a4815ef",
      "scriptsig_asm": "OP_PUSHBYTES_22 001494e2aac4c58e2a1c23a92c86ebcedee79a4815ef",
      "witness": [
        "304402202d78e479489eb18fac661390fa8f012cc6af25669f058e123600fa23f9a0789602202a9f2390bdde5ec66c458b7c640141660ddc966947c1d419c8f9a2bc21ed869601",
        "021723034357dcb629139ccc538ff69d9de0f460a25020a1c4ff9973b738132394"
      ],
      "is_coinbase": false,
      "sequence": 0,
      "inner_redeemscript_asm": "OP_0 OP_PUSHBYTES_20 94e2aac4c58e2a1c23a92c86ebcedee79a4815ef"
    }
  ],
  "vout": [
    {
      "scriptpubkey": "76a914377d2be0278fc11411962d800b75990aa23d526988ac",
      "scriptpubkey_asm": "OP_DUP OP_HASH160 OP_PUSHBYTES_20 377d2be0278fc11411962d800b75990aa23d5269 OP_EQUALVERIFY OP_CHECKSIG",
      "scriptpubkey_type": "p2pkh",
      "scriptpubkey_address": "164Q7cTGMPDFGpdwqRqKhYChfr3BxK3nrd",
      "value": 1324219
    },
    {
      "scriptpubkey": "a914b7c194c14e4356265ac967e05b93301f94055aa987",
      "scriptpubkey_asm": "OP_HASH160 OP_PUSHBYTES_20 b7c194c14e4356265ac967e05b93301f94055aa9 OP_EQUAL",
      "scriptpubkey_type": "p2sh",
      "scriptpubkey_address": "3JSdUu1ivm3rqMvuCTAdAj6Dc2hdVhHiEe",
      "value": 309688
    }
  ],
  "size": 591,
  "weight": 1395,
  "fee": 8000,
  "status": {
    "confirmed": true,
    "block_height": 834638,
    "block_hash": "000000000000000000025f742c626208ac87e0b7d15054abb4a19ca2d735a54e",
    "block_time": 1710405325
  },
  "hex": "01000000000103402ebe51e112c74dc7c94fdeb07dbf06a05ce11d3c2cea03481dd38f6161fce49301000017160014f0f2e8652b15932f23700143091211799b44216c00000000902754a2696302a51489acc7e7add37cd48536415bd1563bc859fc61b0fac8fecd01000017160014ec7e45c086056546b5d4ab8a51e47643dc1403db0000000085b9f325d251041ba9e9178287b0ff2deb33f3da6c4098b1bf59f8a761dac129830200001716001494e2aac4c58e2a1c23a92c86ebcedee79a4815ef0000000002bb341400000000001976a914377d2be0278fc11411962d800b75990aa23d526988acb8b904000000000017a914b7c194c14e4356265ac967e05b93301f94055aa9870247304402203e0cd68da8fc609a5852fe346aded1478dd4de5059ecb2d8fe5e9f1f641c0641022055829ace8844318ba24390932ed7a83a9ec286d4c302f73363b9e0c8325b8e620121039a290799b777e5867c52394ebac019fe5dad0905e759e9889c1f62a88390f9b6024730440220271e5e8a023f39e2b48ce259ed70bad8f4b63af219d5d9a13dc62c1e45e2ae6f02203104338dd78d5886985283ab7e7bc6db181d5f138f1c9180a880b2b449d1ba1b0121036a967fefa080c124e88d2b6915d1d4a79ec675277d1ee57557413dcc7d8faf930247304402202d78e479489eb18fac661390fa8f012cc6af25669f058e123600fa23f9a0789602202a9f2390bdde5ec66c458b7c640141660ddc966947c1d419c8f9a2bc21ed86960121021723034357dcb629139ccc538ff69d9de0f460a25020a1c4ff9973b73813239400000000"
}