{
  "txid": "520cfb216ab710cf0a8aa110aaa0f57eb86bcc900cbc3da339d326ed61318f9f",
  "version": 1,
  "locktime": 0,
  "vin": [
    {
      "txid": "6477b40acdde7be163d3f67b09e26888613bd520604b7a9e4748d7c2eee4d291",
      "vout": 0,
      "prevout": {
        "scriptpubkey": "5120664a2b29632a47973d13c8429038ace0461dec21a06b4fc565a5a4e9a2825629",
        "scriptpubkey_asm": "OP_PUSHNUM_1 OP_PUSHBYTES_32 664a2b29632a47973d13c8429038ace0461dec21a06b4fc565a5a4e9a2825629",
        "scriptpubkey_type": "v1_p2tr",
        "scriptpubkey_address": "bc1pve9zk2tr9frew0gneppfqw9vuprpmmpp5p45l3t95kjwng5z2c5s6e4470",
        "value": 2776
      },
      "scriptsig": "",
      "scriptsig_asm": "",
      "witness": [
        "fcb6541d7648d9ad45b975fe370e1b96449bd44256ae2c2330571787830398c54d056e3574d93ca7d246b09f83d2eaac4dcb44f87d77572afaf3819e2345d8f383",
        "20be11f1d0580232188e877ef283eb5a1efd4e9e5290a2633605d666f59ad3fff2ac00630461746f6d036e667442a16461726773a468626974776f726b6364363437376d726571756573745f7265616c6d69e9ba92e9ba9fe4bc9a656e6f6e63651a0026cdce6474696d651a65f10df868",
        "c1be11f1d0580232188e877ef283eb5a1efd4e9e5290a2633605d666f59ad3fff2"
      ],
      "is_coinbase": false,
      "sequence": 4294967293
    }
  ],
  "vout": [
    {
      "scriptpubkey": "51209d6dbbf9bad17d0135e06ea56ec304df985f9f9bc809fa52ae6789a0947e0300",
      "scriptpubkey_asm": "OP_PUSHNUM_1 OP_PUSHBYTES_32 9d6dbbf9bad17d0135e06ea56ec304df985f9f9bc809fa52ae6789a0947e0300",
      "scriptpubkey_type": "v1_p2tr",
      "scriptpubkey_address": "bc1pn4kmh7d6697szd0qd6jkascym7v9l8umeqyl554wv7y6p9r7qvqquzkndh",
      "value": 1000
    }
  ],
  "size": 311,
  "weight": 593,
  "fee": 1776,
  "status": {
    "confirmed": true,
    "block_height": 834460,
    "block_hash": "00000000000000000000484a79b643b2524bbce82e5d8a442013fa5b8905ed98",
    "block_time": 1710307468
  },
  "hex": "0100000000010191d2e4eec2d748479e7a4b6020d53b618868e2097bf6d363e17bdecd0ab477640000000000fdffffff01e8030000000000002251209d6dbbf9bad17d0135e06ea56ec304df985f9f9bc809fa52ae6789a0947e03000341fcb6541d7648d9ad45b975fe370e1b96449bd44256ae2c2330571787830398c54d056e3574d93ca7d246b09f83d2eaac4dcb44f87d77572afaf3819e2345d8f3837120be11f1d0580232188e877ef283eb5a1efd4e9e5290a2633605d666f59ad3fff2ac00630461746f6d036e667442a16461726773a468626974776f726b6364363437376d726571756573745f7265616c6d69e9ba92e9ba9fe4bc9a656e6f6e63651a0026cdce6474696d651a65f10df86821c1be11f1d0580232188e877ef283eb5a1efd4e9e5290a2633605d666f59ad3fff200000000"
}