{
  "txid": "5221e913f5349a2aba2aa2ae3fc76d35b87b0212b7030d50dccc1d59ff529965",
  "version": 2,
  "locktime": 834637,
  "vin": [
    {
      "txid": "122c229ac39f2f6304e75fc73b0574924f06b0b98a6a9e39b126781603e83218",
      "vout": 10,
      "prevout": {
        "scriptpubkey": "00147a9724b355df255a95af57fdaa2adc0fd60e5dc7",
        "scriptpubkey_asm": "OP_0 OP_PUSHBYTES_20 7a9724b355df255a95af57fdaa2adc0fd60e5dc7",
        "scriptpubkey_type": "v0_p2wpkh",
        "scriptpubkey_address": "bc1q02tjfv64muj449d02l7652kupltquhw8p374c7",
        "value": 2985070
      },
      "scriptsig": "",
      "scriptsig_asm": "",
      "witness": [
        "3044022055de00a6fb1cd786488a19c2bfc516118462dfda9af5e9062bdaeb8f6162c477022070bb96d2d08ccfed200c71873b9f1a6016447bdea680b4afa9f179c60c88adaa01",
        "031653c99120485f3db67dc7120b5708966d16e73581370593c4f3cb7e7b605329"
      ],
      "is_coinbase": false,
      "sequence": 4294967294
    },
    {
      "txid": "a29e163521950bfb4f108f3688c15dbae50648917b44f9f00b681a2572389600",
      "vout": 13,
      "prevout": {
        "scriptpubkey": "0014371101cb8cbec0efd0249531bbf9270ef99d61b0",
        "scriptpubkey_asm": "OP_0 OP_PUSHBYTES_20 371101cb8cbec0efd0249531bbf9270ef99d61b0",
        "scriptpubkey_type": "v0_p2wpkh",
        "scriptpubkey_address": "bc1qxugsrjuvhmqwl5pyj5cmh7f8pmue6cdseef0w2",
        "value": 100603
      },
      "scriptsig": "",
      "scriptsig_asm": "",
      "witness": [
        "3044022062d028999f9b11d90905e8a0aa7cbd8000d5c3d0a62311cef0051e37ad28c49702200fa7f7f60c0045006e5987be81a34096a6e7f71b4ab93b02d0a2d55ee44882b301",
        "031f5fc6c77846c1ebe224546b87a78dcdfb16058b32f1eaaafd5cfbdd2af926ea"
      ],
      "is_coinbase": false,
      "sequence": 4294967294
    },
    {
      "txid": "7bbe7b642094eb8822df0eae81615c8801b1b0f409d6f3c43542ccf35223fb5a",
      "vout": 6,
      "prevout": {
        "scriptpubkey": "00147feb328592bc1709021711c3094f6bfcdb2c33cc",
        "scriptpubkey_asm": "OP_0 OP_PUSHBYTES_20 7feb328592bc1709021711c3094f6bfcdb2c33cc",
        "scriptpubkey_type": "v0_p2wpkh",
        "scriptpubkey_address": "bc1q0l4n9pvjhstsjqshz8psjnmtlndjcv7vcm8fg9",
        "value": 600000
      },
      "scriptsig": "",
      "scriptsig_asm": "",
      "witness": [
        "304402201b14e8448b27ddaf65562a54b04f7bf270f27544ea30b7024ea7f5cdff5857750220026e8a33cd48a4e528d4537820593f83e978ae9a844c8cc97410d6077465d32c01",
        "02b76a89e88582db304bf3282bce068137ab8899ff35ef0a9c457c7cae163272fc"
      ],
      "is_coinbase": false,
      "sequence": 4294967294
    }
  ],
  "vout": [
    {
      "scriptpubkey": "0014f1bb6b57d89dcde73de73d92b4cd1e898acafcb7",
      "scriptpubkey_asm": "OP_0 OP_PUSHBYTES_20 f1bb6b57d89dcde73de73d92b4cd1e898acafcb7",
      "scriptpubkey_type": "v0_p2wpkh",
      "scriptpubkey_address": "bc1q7xakk47cnhx7w0088kftfng73x9v4l9hq6d7xv",
      "value": 3680100
    }
  ],
  "size": 487,
  "weight": 979,
  "fee": 5573,
  "status": {
    "confirmed": true,
    "block_height": 834638,
    "block_hash": "000000000000000000025f742c626208ac87e0b7d15054abb4a19ca2d735a54e",
    "block_time": 1710405325
  },
  "hex": "020000000001031832e803167826b1399e6a8ab9b0064f9274053bc75fe704632f9fc39a222c120a00000000feffffff00963872251a680bf0f9447b914806e5ba5dc188368f104ffb0b952135169ea20d00000000feffffff5afb2352f3cc4235c4f3d609f4b0b101885c6181ae0edf2288eb9420647bbe7b0600000000feffffff016427380000000000160014f1bb6b57d89dcde73de73d92b4cd1e898acafcb702473044022055de00a6fb1cd786488a19c2bfc516118462dfda9af5e9062bdaeb8f6162c477022070bb96d2d08ccfed200c71873b9f1a6016447bdea680b4afa9f179c60c88adaa0121031653c99120485f3db67dc7120b5708966d16e73581370593c4f3cb7e7b60532902473044022062d028999f9b11d90905e8a0aa7cbd8000d5c3d0a62311cef0051e37ad28c49702200fa7f7f60c0045006e5987be81a34096a6e7f71b4ab93b02d0a2d55ee44882b30121031f5fc6c77846c1ebe224546b87a78dcdfb16058b32f1eaaafd5cfbdd2af926ea0247304402201b14e8448b27ddaf65562a54b04f7bf270f27544ea30b7024ea7f5cdff5857750220026e8a33cd48a4e528d4537820593f83e978ae9a844c8cc97410d6077465d32c012102b76a89e88582db304bf3282bce068137ab8899ff35ef0a9c457c7cae163272fc4dbc0c00"
}