{
  "txid": "52315209f35f31f2be2aaca425f314a11709dc1e63d0796b9fc2b0aa60d36cca",
  "version": 2,
  "locktime": 0,
  "vin": [
    {
      "txid": "740082a6cd319f5749e918e1cf7e95e4aaccc47d76b9bf3f61626029a0cca39f",
      "vout": 11,
      "prevout": {
        "scriptpubkey": "51202d071a3b480cd9b47db94593e4592074b81d5edaec2e007722cfb1058d63912e",
        "scriptpubkey_asm": "OP_PUSHNUM_1 OP_PUSHBYTES_32 2d071a3b480cd9b47db94593e4592074b81d5edaec2e007722cfb1058d63912e",
        "scriptpubkey_type": "v1_p2tr",
        "scriptpubkey_address": "bc1p95r35w6gpnvmgldegkf7gkfqwjup6hk6ashqqaeze7cstrtrjyhqnjkr68",
        "value": 795151
      },
      "scriptsig": "",
      "scriptsig_asm": "",
      "witness": [
        "f6591e3a58005e42c7482141959d37c10e13d5eb883739fc65536b0e4b247254d115abdbb9b6aad735f01633f3c01c85223de32056ad9fc320e0df5d65c9e095"
      ],
      "is_coinbase": false,
      "sequence": 4294967295
    },
    {
      "txid": "8dae2da113cdb24e2298f920594b4bfb32ed729bd33be37e838524fee14d7686",
      "vout": 0,
      "prevout": {
        "scriptpubkey": "001498e44f85d38486b28bfc804c364b854586ab7ac7",
        "scriptpubkey_asm": "OP_0 OP_PUSHBYTES_20 98e44f85d38486b28bfc804c364b854586ab7ac7",
        "scriptpubkey_type": "v0_p2wpkh",
        "scriptpubkey_address": "bc1qnrjylpwnsjrt9zluspxrvju9gkr2k7k8g0rdv9",
        "value": 100000
      },
      "scriptsig": "",
      "scriptsig_asm": "",
      "witness": [
        "3045022100f403fd006d65d8029968bd540850d2e2507ffedfd0705376dd21f05fa6bdf50202205da76e9fd0e989d9b0417e38dfe13b7befc34e7f681085605a100c1eb057507a83",
        "039265d33e9ff3cda18723b9c3589ab6aba4e749d9efc61b680a0579622c6d8dba"
      ],
      "is_coinbase": false,
      "sequence": 4294967295
    }
  ],
  "vout": [
    {
      "scriptpubkey": "51202d071a3b480cd9b47db94593e4592074b81d5edaec2e007722cfb1058d63912e",
      "scriptpubkey_asm": "OP_PUSHNUM_1 OP_PUSHBYTES_32 2d071a3b480cd9b47db94593e4592074b81d5edaec2e007722cfb1058d63912e",
      "scriptpubkey_type": "v1_p2tr",
      "scriptpubkey_address": "bc1p95r35w6gpnvmgldegkf7gkfqwjup6hk6ashqqaeze7cstrtrjyhqnjkr68",
      "value": 100000
    },
    {
      "scriptpubkey": "001498e44f85d38486b28bfc804c364b854586ab7ac7",
      "scriptpubkey_asm": "OP_0 OP_PUSHBYTES_20 98e44f85d38486b28bfc804c364b854586ab7ac7",
      "scriptpubkey_type": "v0_p2wpkh",
      "scriptpubkey_address": "bc1qnrjylpwnsjrt9zluspxrvju9gkr2k7k8g0rdv9",
      "value": 100899
    },
    {
      "scriptpubkey": "0014e5cb2de82fd4c136218c67a310fde879344c1bef",
      "scriptpubkey_asm": "OP_0 OP_PUSHBYTES_20 e5cb2de82fd4c136218c67a310fde879344c1bef",
      "scriptpubkey_type": "v0_p2wpkh",
      "scriptpubkey_address": "bc1quh9jm6p06nqnvgvvv733pl0g0y6ycxl0aas2t4",
      "value": 2017
    },
    {
      "scriptpubkey": "51202d071a3b480cd9b47db94593e4592074b81d5edaec2e007722cfb1058d63912e",
      "scriptpubkey_asm": "OP_PUSHNUM_1 OP_PUSHBYTES_32 2d071a3b480cd9b47db94593e4592074b81d5edaec2e007722cfb1058d63912e",
      "scriptpubkey_type": "v1_p2tr",
      "scriptpubkey_address": "bc1p95r35w6gpnvmgldegkf7gkfqwjup6hk6ashqqaeze7cstrtrjyhqnjkr68",
      "value": 688591
    }
  ],
  "size": 416,
  "weight": 1136,
  "fee": 3644,
  "status": {
    "confirmed": true,
    "block_height": 834460,
    "block_hash": "00000000000000000000484a79b643b2524bbce82e5d8a442013fa5b8905ed98",
    "block_time": 1710307468
  },
  "hex": "020000000001029fa3cca0296062613fbfb9767dc4ccaae4957ecfe118e949579f31cda68200740b00000000ffffffff86764de1fe2485837ee33bd39b72ed32fb4b4b5920f998224eb2cd13a12dae8d0000000000ffffffff04a0860100000000002251202d071a3b480cd9b47db94593e4592074b81d5edaec2e007722cfb1058d63912e238a01000000000016001498e44f85d38486b28bfc804c364b854586ab7ac7e107000000000000160014e5cb2de82fd4c136218c67a310fde879344c1befcf810a00000000002251202d071a3b480cd9b47db94593e4592074b81d5edaec2e007722cfb1058d63912e0140f6591e3a58005e42c7482141959d37c10e13d5eb883739fc65536b0e4b247254d115abdbb9b6aad735f01633f3c01c85223de32056ad9fc320e0df5d65c9e09502483045022100f403fd006d65d8029968bd540850d2e2507ffedfd0705376dd21f05fa6bdf50202205da76e9fd0e989d9b0417e38dfe13b7befc34e7f681085605a100c1eb057507a8321039265d33e9ff3cda18723b9c3589ab6aba4e749d9efc61b680a0579622c6d8dba00000000"
}