{
  "txid": "523d94de2738df3d17c9916f28f1f917ad924981bedc05661b9745c426b626e8",
  "version": 2,
  "locktime": 0,
  "vin": [
    {
      "txid": "38a8dae13e82e722fb977cafd5291bb1ab36afb94a8318781061340156faf5be",
      "vout": 0,
      "prevout": {
        "scriptpubkey": "0014b8e9b0f834f5e5134c4b133b6ea0a21e7542ac01",
        "scriptpubkey_asm": "OP_0 OP_PUSHBYTES_20 b8e9b0f834f5e5134c4b133b6ea0a21e7542ac01",
        "scriptpubkey_type": "v0_p2wpkh",
        "scriptpubkey_address": "bc1qhr5mp7p57hj3xnztzvakag9zre659tqpe9ea42",
        "value": 710716
      },
      "scriptsig": "",
      "scriptsig_asm": "",
      "witness": [
        "304402201d9cc362eadff4d761ae9654d4d09e2e0c9f5beab0f4d87d937cc6a2f8c30de302202d01dc37fce6eddc91cc4743971871715473737cd214f8eb5678cbe466f546b901",
        "021d0718c8e36750612fe1bd545d8f22ef93bb8e798c04b8b6af26f89c40ca8fe6"
      ],
      "is_coinbase": false,
      "sequence": 4294967295
    },
    {
      "txid": "b61007a5d0cc8bc99466815cd3b893a5c4f43dae905a8141eb337676fadd25d0",
      "vout": 0,
      "prevout": {
        "scriptpubkey": "0014b8e9b0f834f5e5134c4b133b6ea0a21e7542ac01",
        "scriptpubkey_asm": "OP_0 OP_PUSHBYTES_20 b8e9b0f834f5e5134c4b133b6ea0a21e7542ac01",
        "scriptpubkey_type": "v0_p2wpkh",
        "scriptpubkey_address": "bc1qhr5mp7p57hj3xnztzvakag9zre659tqpe9ea42",
        "value": 2527086
      },
      "scriptsig": "",
      "scriptsig_asm": "",
      "witness": [
        "3045022100db1f49d5508520621b40bed5d78e81bd7b49edd062a1c56b1ff099fdfd85e6c202204667a4b10b30497ef9f26a8b69ad5a94882c6a8e97553c0983a7e02dd6317b4601",
        "021d0718c8e36750612fe1bd545d8f22ef93bb8e798c04b8b6af26f89c40ca8fe6"
      ],
      "is_coinbase": false,
      "sequence": 4294967295
    },
    {
      "txid": "759ae59276c48a3260caf6d559763d956ef1090d01be29ae2df1025a136cdc60",
      "vout": 0,
      "prevout": {
        "scriptpubkey": "0014b8e9b0f834f5e5134c4b133b6ea0a21e7542ac01",
        "scriptpubkey_asm": "OP_0 OP_PUSHBYTES_20 b8e9b0f834f5e5134c4b133b6ea0a21e7542ac01",
        "scriptpubkey_type": "v0_p2wpkh",
        "scriptpubkey_address": "bc1qhr5mp7p57hj3xnztzvakag9zre659tqpe9ea42",
        "value": 8700717
      },
      "scriptsig": "",
      "scriptsig_asm": "",
      "witness": [
        "30450221009f0a83361e9ae0717e447b7005e65e58a53b6e7d6d86e67633cc307b43b6a17d02204a125049a76f351df887aa22ceae514e165af6b005b09a2c3215de7f82f7389601",
        "021d0718c8e36750612fe1bd545d8f22ef93bb8e798c04b8b6af26f89c40ca8fe6"
      ],
      "is_coinbase": false,
      "sequence": 4294967295
    },
    {
      "txid": "1d8b6b755870b2414ac5b08b2746f4f35deac4ed0d6da8f681d87084449ac6dc",
      "vout": 0,
      "prevout": {
        "scriptpubkey": "0014b8e9b0f834f5e5134c4b133b6ea0a21e7542ac01",
        "scriptpubkey_asm": "OP_0 OP_PUSHBYTES_20 b8e9b0f834f5e5134c4b133b6ea0a21e7542ac01",
        "scriptpubkey_type": "v0_p2wpkh",
        "scriptpubkey_address": "bc1qhr5mp7p57hj3xnztzvakag9zre659tqpe9ea42",
        "value": 3934307
      },
      "scriptsig": "",
      "scriptsig_asm": "",
      "witness": [
        "3045022100844621bd55b56cdced3d2d0da84a20394a00fc0042e4e9ab5389d4a35135e8f302202ca93307101d7b51a02dd91405ec5fc7d3302dc49f9250294795118f0865f0c101",
        "021d0718c8e36750612fe1bd545d8f22ef93bb8e798c04b8b6af26f89c40ca8fe6"
      ],
      "is_coinbase": false,
      "sequence": 4294967295
    }
  ],
  "vout": [
    {
      "scriptpubkey": "00145b0a404c3094e96a5fe2f20d942e52e7e0e3245d",
      "scriptpubkey_asm": "OP_0 OP_PUSHBYTES_20 5b0a404c3094e96a5fe2f20d942e52e7e0e3245d",
      "scriptpubkey_type": "v0_p2wpkh",
      "scriptpubkey_address": "bc1qtv9yqnpsjn5k5hlz7gxegtjjulswxfzach3qqs",
      "value": 10000000
    },
    {
      "scriptpubkey": "0014b8e9b0f834f5e5134c4b133b6ea0a21e7542ac01",
      "scriptpubkey_asm": "OP_0 OP_PUSHBYTES_20 b8e9b0f834f5e5134c4b133b6ea0a21e7542ac01",
      "scriptpubkey_type": "v0_p2wpkh",
      "scriptpubkey_address": "bc1qhr5mp7p57hj3xnztzvakag9zre659tqpe9ea42",
      "value": 5866435
    }
  ],
  "size": 669,
  "weight": 1377,
  "fee": 6391,
  "status": {
    "confirmed": true,
    "block_height": 834638,
    "block_hash": "000000000000000000025f742c626208ac87e0b7d15054abb4a19ca2d735a54e",
    "block_time": 1710405325
  },
  "hex": "02000000000104bef5fa56013461107818834ab9af36abb11b29d5af7c97fb22e7823ee1daa8380000000000ffffffffd025ddfa767633eb41815a90ae3df4c4a593b8d35c816694c98bccd0a50710b60000000000ffffffff60dc6c135a02f12dae29be010d09f16e953d7659d5f6ca60328ac47692e59a750000000000ffffffffdcc69a448470d881f6a86d0dedc4ea5df3f446278bb0c54a41b27058756b8b1d0000000000ffffffff0280969800000000001600145b0a404c3094e96a5fe2f20d942e52e7e0e3245dc383590000000000160014b8e9b0f834f5e5134c4b133b6ea0a21e7542ac010247304402201d9cc362eadff4d761ae9654d4d09e2e0c9f5beab0f4d87d937cc6a2f8c30de302202d01dc37fce6eddc91cc4743971871715473737cd214f8eb5678cbe466f546b90121021d0718c8e36750612fe1bd545d8f22ef93bb8e798c04b8b6af26f89c40ca8fe602483045022100db1f49d5508520621b40bed5d78e81bd7b49edd062a1c56b1ff099fdfd85e6c202204667a4b10b30497ef9f26a8b69ad5a94882c6a8e97553c0983a7e02dd6317b460121021d0718c8e36750612fe1bd545d8f22ef93bb8e798c04b8b6af26f89c40ca8fe6024830450221009f0a83361e9ae0717e447b7005e65e58a53b6e7d6d86e67633cc307b43b6a17d02204a125049a76f351df887aa22ceae514e165af6b005b09a2c3215de7f82f738960121021d0718c8e36750612fe1bd545d8f22ef93bb8e798c04b8b6af26f89c40ca8fe602483045022100844621bd55b56cdced3d2d0da84a20394a00fc0042e4e9ab5389d4a35135e8f302202ca93307101d7b51a02dd91405ec5fc7d3302dc49f9250294795118f0865f0c10121021d0718c8e36750612fe1bd545d8f22ef93bb8e798c04b8b6af26f89c40ca8fe600000000"
}