{
  "txid": "523d3b64848c9b268eba0c0ed12a241b62ad16cb661f828c92e3b739aadd4c19",
  "version": 2,
  "locktime": 0,
  "vin": [
    {
      "txid": "acc3ba00869acb582a3f2904ce3a11dd3779350ce234063fc7d0959246213364",
      "vout": 27,
      "prevout": {
        "scriptpubkey": "5120402c70d0eac898830c3e16f70340cd9463a079dcc84142a10806667ff40295d3",
        "scriptpubkey_asm": "OP_PUSHNUM_1 OP_PUSHBYTES_32 402c70d0eac898830c3e16f70340cd9463a079dcc84142a10806667ff40295d3",
        "scriptpubkey_type": "v1_p2tr",
        "scriptpubkey_address": "bc1pgqk8p582ezvgxrp7zmmsxsxdj336q7wuepq59gggqen8laqzjhfsph52z5",
        "value": 1806
      },
      "scriptsig": "",
      "scriptsig_asm": "",
      "witness": [
        "47c7c8c92929edb0f4f27663909f1a1f62bbb74823b026ad0f7636f0895469f7fb43b063c2fc8bd2418ec3d45e7af0a2149d21f8b7a9325de5d6a48b860c5239",
        "20d22c65087669d6c22df88942ca01959e5618f1aeb88d5d400c6c2cc5b6db9835ac0063036f726401010a746578742f706c61696e00357b2270223a226272632d3230222c226f70223a226d696e74222c227469636b223a22646f6765222c22616d74223a2234323030227d68",
        "c0d22c65087669d6c22df88942ca01959e5618f1aeb88d5d400c6c2cc5b6db9835"
      ],
      "is_coinbase": false,
      "sequence": 4261412863
    }
  ],
  "vout": [
    {
      "scriptpubkey": "00147a665de7a370f4c9b372ab1fae587500a5bcbdb4",
      "scriptpubkey_asm": "OP_0 OP_PUSHBYTES_20 7a665de7a370f4c9b372ab1fae587500a5bcbdb4",
      "scriptpubkey_type": "v0_p2wpkh",
      "scriptpubkey_address": "bc1q0fn9mearwr6vnvmj4v06ukr4qzjme0d565dzcx",
      "value": 294
    }
  ],
  "size": 294,
  "weight": 540,
  "fee": 1512,
  "status": {
    "confirmed": true,
    "block_height": 834460,
    "block_hash": "00000000000000000000484a79b643b2524bbce82e5d8a442013fa5b8905ed98",
    "block_time": 1710307468
  },
  "hex": "02000000000101643321469295d0c73f0634e20c357937dd113ace04293f2a58cb9a8600bac3ac1b00000000fffffffd0126010000000000001600147a665de7a370f4c9b372ab1fae587500a5bcbdb4034047c7c8c92929edb0f4f27663909f1a1f62bbb74823b026ad0f7636f0895469f7fb43b063c2fc8bd2418ec3d45e7af0a2149d21f8b7a9325de5d6a48b860c52396d20d22c65087669d6c22df88942ca01959e5618f1aeb88d5d400c6c2cc5b6db9835ac0063036f726401010a746578742f706c61696e00357b2270223a226272632d3230222c226f70223a226d696e74222c227469636b223a22646f6765222c22616d74223a2234323030227d6821c0d22c65087669d6c22df88942ca01959e5618f1aeb88d5d400c6c2cc5b6db983500000000"
}