{
  "txid": "52450d3f0d8cd3b5f9147ae2cbc73693d8c0f71d74e0408d7f8af9164ffbf3ca",
  "version": 2,
  "locktime": 0,
  "vin": [
    {
      "txid": "f08d8519177f1748494d63cdea5149573ca1a1be363a18924c4791c49791639f",
      "vout": 1,
      "prevout": {
        "scriptpubkey": "0014c662d9a93bcef34adcb1c5a186b3671453c0cea3",
        "scriptpubkey_asm": "OP_0 OP_PUSHBYTES_20 c662d9a93bcef34adcb1c5a186b3671453c0cea3",
        "scriptpubkey_type": "v0_p2wpkh",
        "scriptpubkey_address": "bc1qce3dn2fmeme54h93ckscdvm8z3fupn4rpmy9e9",
        "value": 368446
      },
      "scriptsig": "",
      "scriptsig_asm": "",
      "witness": [
        "304402203abc21a2f12f83f3df264a2b67bf669d867dd3d2b82fdff50f60c7b839a9ed65022029a520de818e5e5ed6ca1c3f6ddb7e691e976bea5a13eff3a6084162e1143ff401",
        "03f534f48400997b3f732f55d26ca8882962893e5c06d0d5c7375ca75a11c63e89"
      ],
      "is_coinbase": false,
      "sequence": 4294967293
    }
  ],
  "vout": [
    {
      "scriptpubkey": "0014c662d9a93bcef34adcb1c5a186b3671453c0cea3",
      "scriptpubkey_asm": "OP_0 OP_PUSHBYTES_20 c662d9a93bcef34adcb1c5a186b3671453c0cea3",
      "scriptpubkey_type": "v0_p2wpkh",
      "scriptpubkey_address": "bc1qce3dn2fmeme54h93ckscdvm8z3fupn4rpmy9e9",
      "value": 199584
    },
    {
      "scriptpubkey": "00145e59b331e098caf04193ae7db9b0bcc69f38a163",
      "scriptpubkey_asm": "OP_0 OP_PUSHBYTES_20 5e59b331e098caf04193ae7db9b0bcc69f38a163",
      "scriptpubkey_type": "v0_p2wpkh",
      "scriptpubkey_address": "bc1qtevmxv0qnr90qsvn4e7mnv9uc60n3gtrs3glmy",
      "value": 167332
    }
  ],
  "size": 222,
  "weight": 561,
  "fee": 1530,
  "status": {
    "confirmed": true,
    "block_height": 834464,
    "block_hash": "0000000000000000000177a0869a911a2b65c9bdcd5a8bcb02b68f305bee848e",
    "block_time": 1710308296
  },
  "hex": "020000000001019f639197c491474c92183a36bea1a13c574951eacd634d4948177f1719858df00100000000fdffffff02a00b030000000000160014c662d9a93bcef34adcb1c5a186b3671453c0cea3a48d0200000000001600145e59b331e098caf04193ae7db9b0bcc69f38a1630247304402203abc21a2f12f83f3df264a2b67bf669d867dd3d2b82fdff50f60c7b839a9ed65022029a520de818e5e5ed6ca1c3f6ddb7e691e976bea5a13eff3a6084162e1143ff4012103f534f48400997b3f732f55d26ca8882962893e5c06d0d5c7375ca75a11c63e8900000000"
}