{
  "txid": "5246ea08c3eca4fb23e14d1d2a040fc55ea7834223eb7d235b2d47eb950f5574",
  "version": 2,
  "locktime": 834637,
  "vin": [
    {
      "txid": "24a5c4e494dab9094973184060483c1a2b85d1ce1b9a82a626eac5c34b121d8f",
      "vout": 1,
      "prevout": {
        "scriptpubkey": "0020de9d7682692004341d9b53eda9d9c2ebd5884a87e10788edd539771b3f03331c",
        "scriptpubkey_asm": "OP_0 OP_PUSHBYTES_32 de9d7682692004341d9b53eda9d9c2ebd5884a87e10788edd539771b3f03331c",
        "scriptpubkey_type": "v0_p2wsh",
        "scriptpubkey_address": "bc1qm6whdqnfyqzrg8vm20k6nkwza02csj58uyrc3mw489m3k0crxvwqfnj64a",
        "value": 4481730100
      },
      "scriptsig": "",
      "scriptsig_asm": "",
      "witness": [
        "",
        "3044022048a06fa88fa2d316415703ab0bbb2edaa48cee057507b6560f95ca124dc616de02201766699ad8038ff79b5e54f8d84d3a8d3ab7997896b54dd311b16d73420f318201",
        "3044022003fe12303fa3f9128127d3ec84ccfebb9fb579f9c63b012c271415cb6c8605fe022060a89dbe2cf0f7e7646a25e01f2e1fe577c0174049eab67d5906ea22e3f75e3801",
        "5221020c4ad48bc7c29224534cca2e794b03bc8affcb1cda659fedb96e91a1f6cff9af210331a2ef028214af114e1c1239aa3f7143eaf909d19cf64938864e9ae2e8e2aa2d2103e9eae09530b71e9193049df6a09a9ca6af13c24384a0159deaae0ebc48ed8f8953ae"
      ],
      "is_coinbase": false,
      "sequence": 4294967293,
      "inner_witnessscript_asm": "OP_PUSHNUM_2 OP_PUSHBYTES_33 020c4ad48bc7c29224534cca2e794b03bc8affcb1cda659fedb96e91a1f6cff9af OP_PUSHBYTES_33 0331a2ef028214af114e1c1239aa3f7143eaf909d19cf64938864e9ae2e8e2aa2d OP_PUSHBYTES_33 03e9eae09530b71e9193049df6a09a9ca6af13c24384a0159deaae0ebc48ed8f89 OP_PUSHNUM_3 OP_CHECKMULTISIG"
    }
  ],
  "vout": [
    {
      "scriptpubkey": "0020ccfe2e4f2c8f102ebb1dfec557fe6b410643f790fee16a2b1b27da94881f5351",
      "scriptpubkey_asm": "OP_0 OP_PUSHBYTES_32 ccfe2e4f2c8f102ebb1dfec557fe6b410643f790fee16a2b1b27da94881f5351",
      "scriptpubkey_type": "v0_p2wsh",
      "scriptpubkey_address": "bc1qenlzunev3ugzawcalmz40lntgyry8auslmsk52cmyldffzql2dgskmqunf",
      "value": 1000000000
    },
    {
      "scriptpubkey": "0020de9d7682692004341d9b53eda9d9c2ebd5884a87e10788edd539771b3f03331c",
      "scriptpubkey_asm": "OP_0 OP_PUSHBYTES_32 de9d7682692004341d9b53eda9d9c2ebd5884a87e10788edd539771b3f03331c",
      "scriptpubkey_type": "v0_p2wsh",
      "scriptpubkey_address": "bc1qm6whdqnfyqzrg8vm20k6nkwza02csj58uyrc3mw489m3k0crxvwqfnj64a",
      "value": 3481726000
    }
  ],
  "size": 391,
  "weight": 802,
  "fee": 4100,
  "status": {
    "confirmed": true,
    "block_height": 834638,
    "block_hash": "000000000000000000025f742c626208ac87e0b7d15054abb4a19ca2d735a54e",
    "block_time": 1710405325
  },
  "hex": "020000000001018f1d124bc3c5ea26a6829a1bced1852b1a3c48604018734909b9da94e4c4a5240100000000fdffffff0200ca9a3b00000000220020ccfe2e4f2c8f102ebb1dfec557fe6b410643f790fee16a2b1b27da94881f535130ec86cf00000000220020de9d7682692004341d9b53eda9d9c2ebd5884a87e10788edd539771b3f03331c0400473044022048a06fa88fa2d316415703ab0bbb2edaa48cee057507b6560f95ca124dc616de02201766699ad8038ff79b5e54f8d84d3a8d3ab7997896b54dd311b16d73420f318201473044022003fe12303fa3f9128127d3ec84ccfebb9fb579f9c63b012c271415cb6c8605fe022060a89dbe2cf0f7e7646a25e01f2e1fe577c0174049eab67d5906ea22e3f75e3801695221020c4ad48bc7c29224534cca2e794b03bc8affcb1cda659fedb96e91a1f6cff9af210331a2ef028214af114e1c1239aa3f7143eaf909d19cf64938864e9ae2e8e2aa2d2103e9eae09530b71e9193049df6a09a9ca6af13c24384a0159deaae0ebc48ed8f8953ae4dbc0c00"
}