{
  "txid": "525e24f73b59819906f8d7359083353deb8647e5a8c9f2433503464c97039102",
  "version": 2,
  "locktime": 0,
  "vin": [
    {
      "txid": "01eb4eea829314dd41034072f5ae7c925694b620c855125d92ce0b4ae21f13f4",
      "vout": 1,
      "prevout": {
        "scriptpubkey": "0014497197dca73ac1193eeb17a224e9e216140b63de",
        "scriptpubkey_asm": "OP_0 OP_PUSHBYTES_20 497197dca73ac1193eeb17a224e9e216140b63de",
        "scriptpubkey_type": "v0_p2wpkh",
        "scriptpubkey_address": "bc1qf9ce0h988tq3j0htz73zf60zzc2qkc7789ldva",
        "value": 174839
      },
      "scriptsig": "",
      "scriptsig_asm": "",
      "witness": [
        "304402204547265b5eda9426ff7223c307b3426f50e4aa79cdf2de650aa4c846e4b3eb1302205d1221dcaf97238d619092e48485dc648fdbe5710dbefc710ad9a1fd70d7d5f601",
        "02d37a8ec34aaa37ff7cf54fe4a30d81d76344c44a14c9d8a5debec202b042c4ac"
      ],
      "is_coinbase": false,
      "sequence": 4294967295
    }
  ],
  "vout": [
    {
      "scriptpubkey": "6a2aa6deccd50b9bf904ae3033272d2d42ffbf331df057568446542c3ea0c86bef49566a6a6e58d4187732c2",
      "scriptpubkey_asm": "OP_RETURN OP_PUSHBYTES_42 a6deccd50b9bf904ae3033272d2d42ffbf331df057568446542c3ea0c86bef49566a6a6e58d4187732c2",
      "scriptpubkey_type": "op_return",
      "value": 0
    },
    {
      "scriptpubkey": "0014497197dca73ac1193eeb17a224e9e216140b63de",
      "scriptpubkey_asm": "OP_0 OP_PUSHBYTES_20 497197dca73ac1193eeb17a224e9e216140b63de",
      "scriptpubkey_type": "v0_p2wpkh",
      "scriptpubkey_address": "bc1qf9ce0h988tq3j0htz73zf60zzc2qkc7789ldva",
      "value": 172634
    }
  ],
  "size": 244,
  "weight": 649,
  "fee": 2205,
  "status": {
    "confirmed": true,
    "block_height": 834460,
    "block_hash": "00000000000000000000484a79b643b2524bbce82e5d8a442013fa5b8905ed98",
    "block_time": 1710307468
  },
  "hex": "02000000000101f4131fe24a0bce925d1255c820b69456927caef572400341dd149382ea4eeb010100000000ffffffff0200000000000000002c6a2aa6deccd50b9bf904ae3033272d2d42ffbf331df057568446542c3ea0c86bef49566a6a6e58d4187732c25aa2020000000000160014497197dca73ac1193eeb17a224e9e216140b63de0247304402204547265b5eda9426ff7223c307b3426f50e4aa79cdf2de650aa4c846e4b3eb1302205d1221dcaf97238d619092e48485dc648fdbe5710dbefc710ad9a1fd70d7d5f6012102d37a8ec34aaa37ff7cf54fe4a30d81d76344c44a14c9d8a5debec202b042c4ac00000000"
}