{
  "txid": "52665141058c002f9a3397fa031198f9c7460a383447c563dca5161f2203a2d4",
  "version": 2,
  "locktime": 0,
  "vin": [
    {
      "txid": "b13840ba3b8d0eb9c5803c97d8b34caab8889e188a2ca73210f28b64136b7db3",
      "vout": 3,
      "prevout": {
        "scriptpubkey": "0014f499a1e2392cd5b942ecbd089321bc8e7f814693",
        "scriptpubkey_asm": "OP_0 OP_PUSHBYTES_20 f499a1e2392cd5b942ecbd089321bc8e7f814693",
        "scriptpubkey_type": "v0_p2wpkh",
        "scriptpubkey_address": "bc1q7jv6rc3e9n2mjshvh5yfxgdu3elcz35nxfy7jq",
        "value": 106928
      },
      "scriptsig": "",
      "scriptsig_asm": "",
      "witness": [
        "3045022100a132a99679b5f4da40ec8b5b72f434b8d9e5f2b4a48f2287bcbdcf63438e92f502200379821046a7437861e3c6b457a978eb01b33d1b69602a15c534a832e7a324e001",
        "033cef16f1e4ecbfcb3da3b82247722d4d9b7ec3c57bc97eec57a950034fdc5550"
      ],
      "is_coinbase": false,
      "sequence": 2147483648
    }
  ],
  "vout": [
    {
      "scriptpubkey": "00142e591b77974d82d016cdc4134eff418218980601",
      "scriptpubkey_asm": "OP_0 OP_PUSHBYTES_20 2e591b77974d82d016cdc4134eff418218980601",
      "scriptpubkey_type": "v0_p2wpkh",
      "scriptpubkey_address": "bc1q9ev3kauhfkpdq9kdcsf5al6psgvfspspwkd2ju",
      "value": 35960
    },
    {
      "scriptpubkey": "0014c237d653c66fe1c803a66c870624eb9a9142bbfd",
      "scriptpubkey_asm": "OP_0 OP_PUSHBYTES_20 c237d653c66fe1c803a66c870624eb9a9142bbfd",
      "scriptpubkey_type": "v0_p2wpkh",
      "scriptpubkey_address": "bc1qcgmav57xdlsusqaxdjrsvf8tn2g59wla8y468v",
      "value": 69362
    }
  ],
  "size": 223,
  "weight": 562,
  "fee": 1606,
  "status": {
    "confirmed": true,
    "block_height": 834460,
    "block_hash": "00000000000000000000484a79b643b2524bbce82e5d8a442013fa5b8905ed98",
    "block_time": 1710307468
  },
  "hex": "02000000000101b37d6b13648bf21032a72c8a189e88b8aa4cb3d8973c80c5b90e8d3bba4038b103000000000000008002788c0000000000001600142e591b77974d82d016cdc4134eff418218980601f20e010000000000160014c237d653c66fe1c803a66c870624eb9a9142bbfd02483045022100a132a99679b5f4da40ec8b5b72f434b8d9e5f2b4a48f2287bcbdcf63438e92f502200379821046a7437861e3c6b457a978eb01b33d1b69602a15c534a832e7a324e00121033cef16f1e4ecbfcb3da3b82247722d4d9b7ec3c57bc97eec57a950034fdc555000000000"
}