{
  "txid": "5273f51ca9d8193d91172ab050fb1f21cefc2691d35973cc04231456e1ddd418",
  "version": 1,
  "locktime": 0,
  "vin": [
    {
      "txid": "c3e386af17a356d9df1b2df86d6143833723b0a7bb1919169c5988bc0297f7af",
      "vout": 0,
      "prevout": {
        "scriptpubkey": "a914421a32fd270777626d7d621226bbf155aa86000287",
        "scriptpubkey_asm": "OP_HASH160 OP_PUSHBYTES_20 421a32fd270777626d7d621226bbf155aa860002 OP_EQUAL",
        "scriptpubkey_type": "p2sh",
        "scriptpubkey_address": "37iXuZ9rp7cKxmUHwDsi1fxBxY9t37GPrn",
        "value": 288137073
      },
      "scriptsig": "1600147581b501371e39a6a42dadb42bab011a4ce0c0e6",
      "scriptsig_asm": "OP_PUSHBYTES_22 00147581b501371e39a6a42dadb42bab011a4ce0c0e6",
      "witness": [
        "30440220399d09295cb77d468b192088f7b3c450bef5dfd409beb885f214c53821a8aed802205f332891b33f24492b67b03515df50df66e48bef540ad7f6465fece43c3c48fc01",
        "0356d7f73d7e1e9cc93e4aaaa0d589cc1b70b7a343f84d18ca9eb42039455eef4d"
      ],
      "is_coinbase": false,
      "sequence": 4294967295,
      "inner_redeemscript_asm": "OP_0 OP_PUSHBYTES_20 7581b501371e39a6a42dadb42bab011a4ce0c0e6"
    }
  ],
  "vout": [
    {
      "scriptpubkey": "76a914f42f8f23f664f60034cce02e832a85e49f7fe80e88ac",
      "scriptpubkey_asm": "OP_DUP OP_HASH160 OP_PUSHBYTES_20 f42f8f23f664f60034cce02e832a85e49f7fe80e OP_EQUALVERIFY OP_CHECKSIG",
      "scriptpubkey_type": "p2pkh",
      "scriptpubkey_address": "1PG8rGsyc7rm58ynwCUB7oCPrfSCbjTNQu",
      "value": 286385
    },
    {
      "scriptpubkey": "76a914aec5e5c0ec2bceeaccfe1f0ee002fa0594c7f3c688ac",
      "scriptpubkey_asm": "OP_DUP OP_HASH160 OP_PUSHBYTES_20 aec5e5c0ec2bceeaccfe1f0ee002fa0594c7f3c6 OP_EQUALVERIFY OP_CHECKSIG",
      "scriptpubkey_type": "p2pkh",
      "scriptpubkey_address": "1Gw7eY6VAyBG7468s3CLGDHYiqVsLC8a3V",
      "value": 141589
    },
    {
      "scriptpubkey": "76a914ecc623c72a4de649019794039ebc4c4ea3e053c288ac",
      "scriptpubkey_asm": "OP_DUP OP_HASH160 OP_PUSHBYTES_20 ecc623c72a4de649019794039ebc4c4ea3e053c2 OP_EQUALVERIFY OP_CHECKSIG",
      "scriptpubkey_type": "p2pkh",
      "scriptpubkey_address": "1NawqGJ68mERh6MMeDA1Qe4RB6VECzEpoJ",
      "value": 220154
    },
    {
      "scriptpubkey": "a914fa31581f91a627cda07724241e912c66d4ebc88887",
      "scriptpubkey_asm": "OP_HASH160 OP_PUSHBYTES_20 fa31581f91a627cda07724241e912c66d4ebc888 OP_EQUAL",
      "scriptpubkey_type": "p2sh",
      "scriptpubkey_address": "3QVuxzspiM9NjWRSdbvLpnz74H56g4u4M9",
      "value": 287449381
    },
    {
      "scriptpubkey": "00148d800bc1729c7b400f21b39b57193dfa2797d488",
      "scriptpubkey_asm": "OP_0 OP_PUSHBYTES_20 8d800bc1729c7b400f21b39b57193dfa2797d488",
      "scriptpubkey_type": "v0_p2wpkh",
      "scriptpubkey_address": "bc1q3kqqhstjn3a5qrepkwd4wxfalgne04yg28jmyp",
      "value": 34219
    }
  ],
  "size": 348,
  "weight": 1065,
  "fee": 5345,
  "status": {
    "confirmed": true,
    "block_height": 834638,
    "block_hash": "000000000000000000025f742c626208ac87e0b7d15054abb4a19ca2d735a54e",
    "block_time": 1710405325
  },
  "hex": "01000000000101aff79702bc88599c161919bba7b023378343616df82d1bdfd956a317af86e3c300000000171600147581b501371e39a6a42dadb42bab011a4ce0c0e6ffffffff05b15e0400000000001976a914f42f8f23f664f60034cce02e832a85e49f7fe80e88ac15290200000000001976a914aec5e5c0ec2bceeaccfe1f0ee002fa0594c7f3c688acfa5b0300000000001976a914ecc623c72a4de649019794039ebc4c4ea3e053c288ac252122110000000017a914fa31581f91a627cda07724241e912c66d4ebc88887ab850000000000001600148d800bc1729c7b400f21b39b57193dfa2797d488024730440220399d09295cb77d468b192088f7b3c450bef5dfd409beb885f214c53821a8aed802205f332891b33f24492b67b03515df50df66e48bef540ad7f6465fece43c3c48fc01210356d7f73d7e1e9cc93e4aaaa0d589cc1b70b7a343f84d18ca9eb42039455eef4d00000000"
}