{
  "txid": "5274dc12379d81494bc0a907f4a49c1cbaca59912e2e6415b0438949a4759b4e",
  "version": 2,
  "locktime": 0,
  "vin": [
    {
      "txid": "bf079e0bdf91893756066e6f27c22c65a6847c186f6fbec1ff2e39d5e9639fb1",
      "vout": 0,
      "prevout": {
        "scriptpubkey": "512012d84569a6bb60a9daa5763382790b66b59d332617586c07cd68aa8630563a78",
        "scriptpubkey_asm": "OP_PUSHNUM_1 OP_PUSHBYTES_32 12d84569a6bb60a9daa5763382790b66b59d332617586c07cd68aa8630563a78",
        "scriptpubkey_type": "v1_p2tr",
        "scriptpubkey_address": "bc1pztvy26dxhds2nk49wcecy7gtv66e6vexzavxcp7ddz4gvvzk8fuqdge8zh",
        "value": 5016
      },
      "scriptsig": "",
      "scriptsig_asm": "",
      "witness": [
        "bd513041c62be135aeeb8cbf45773ea6d08d1dd1ac0101f6cc2135909d2ff4a6b539d33a2a2d97bcf9178d86a736dedfc655e9d62201110cb3d581763eaafa57",
        "203eb03579728c24fee98d2cd8d677399a93a0e24f90ca237f7b373ba33402048fac0063036f7264010109696d6167652f706e67004d080289504e470d0a1a0a0000000d49484452000001610000015b080300000033c0cf2e0000001b504c544500000065954af4ba45ad1515be361dffffffe0ab40f98798b06b452d6d1eba000000097048597300000b1300000b1301009a9c18000003ca49444154789ceddcd16edb480c05504e244ff2ff5f5c0805821a8d1dc93623cee49c17be14a8717177cab2f1460000000000000000000000000000000000000000000030891efda1f1166f3bc76fd7252ce0a1f5cd03e36db36bfc7add23a1c383eb3a2ce0b17515060028a6275c280f8fa975090b78683de1427978ccad7b249203dee8706ac4619510f0d0ba0a030014d32b6c6853df32bb84053cb45ee1d633f72db37b249203dee8706ac4619510f0d0ba0a030094b6c65a7b0c6fad90e2cc09af15429c3ae04de531beb5424f7578d5611d2e6badf010ccfc48448914a74e1800e0a8b5c21636f5f6b656486ae684d70a414d1df066d43186b5421775783dbdae3a1c3aec9138c95ae1399df919060028f8ff1b7ffbe5df2aef1216708c5ce1befb9bb525be2b3ee2b7cabb472239e08d0ea7461c560901c7c07fd0850a03000cbf9af541ee95e76fc4124e26e0a2479efe7794b84916bf5eea70321d4ea7c3c9049c4dc20000b57db9af5d6bd1461ad548389980cfb8fc5c6b9b7146393a9c4c87d3e970320167933000c080da8387c34b5c6e8ed7fcca1dbfed109a84051c2357b83d784d080238bc6c6e8cd7fcca1dbfed189a472239e08d0ea7461c560901c7c07fd0850a0300d4d62afc0ce5b83f6db943ab90dbcc09b70ab14d1df0669c31a256a1993adc4e2faf0e870e7b244ed22a3cae333fc30000fb9558b8daccdb5b8950dac40997c8a4cd1c7085d34d9bfa0e54a2764d87dbd9cdd4e12850dea2ef70854cdac401d708a5cd9c3000c0734aac58ed95e33dde6f8e339408a54d9c70894cdacc015738d6b4578ef7cd8d714ec4156ad774b89ddd4c1d8e02e52dfa0e57c8a44d1c708d50dacc0903007c6f89e59f71adc48af5111fcf8c7b1bdacf6c6f128edc84051cc9016f3ec7b512c79a8fcde3e3debdf2876e993a1c3afca1c36195f048845d2d66dd8601009efb8bf2bdf1a536cfbf2f67ed6b128edc84051cc9015fdd2bef8d2fb5797e522ded7aa9c3a1c34d87a3c69e507395f048845dad0d5d610080973a7cbdbce7a7ff3e71d8191b9a84233761014772c047af97f7fcf469f2b053be39aec3a1c34d873f5925fee79108bb5abbf95fc761ee9500c05cf6ffcbfff2e0b933ff03d626e164024eb6ffa7349707cf9df91fb0381d4ea6c3e974389980b349180060b27d6db91a97b8248ff20be577249c4cc0d52e3fcbd5b86c5247f9d3d4b77438990ea7d3e16402ce26610080c936b425fd96f9e487389f849309b8f6ad6749bf653ef9210ad0e1643a9c4e879309389b8401006a3b7c005cd26f992ffd2ce793703201272f3b7c005cd26f992ffd2c05e870321d4ea7c3c9049c4dc200f1b43f2a498c298ca6be670000000049454e44ae42608268",
        "c13eb03579728c24fee98d2cd8d677399a93a0e24f90ca237f7b373ba33402048f"
      ],
      "is_coinbase": false,
      "sequence": 4294967293
    }
  ],
  "vout": [
    {
      "scriptpubkey": "512031c9373955ea0fad71226e1c067f891ffeeddef61a72fefd7d4e3e22cd284543",
      "scriptpubkey_asm": "OP_PUSHNUM_1 OP_PUSHBYTES_32 31c9373955ea0fad71226e1c067f891ffeeddef61a72fefd7d4e3e22cd284543",
      "scriptpubkey_type": "v1_p2tr",
      "scriptpubkey_address": "bc1px8ynww24ag866ufzdcwqvlufrllwmhhkrfe0altafclz9nfgg4pshq4tvn",
      "value": 550
    }
  ],
  "size": 1347,
  "weight": 1629,
  "fee": 4466,
  "status": {
    "confirmed": true,
    "block_height": 834464,
    "block_hash": "0000000000000000000177a0869a911a2b65c9bdcd5a8bcb02b68f305bee848e",
    "block_time": 1710308296
  },
  "hex": "02000000000101b19f63e9d5392effc1be6f6f187c84a6652cc2276f6e0656378991df0b9e07bf0000000000fdffffff01260200000000000022512031c9373955ea0fad71226e1c067f891ffeeddef61a72fefd7d4e3e22cd2845430340bd513041c62be135aeeb8cbf45773ea6d08d1dd1ac0101f6cc2135909d2ff4a6b539d33a2a2d97bcf9178d86a736dedfc655e9d62201110cb3d581763eaafa57fd7c04203eb03579728c24fee98d2cd8d677399a93a0e24f90ca237f7b373ba33402048fac0063036f7264010109696d6167652f706e67004d080289504e470d0a1a0a0000000d49484452000001610000015b080300000033c0cf2e0000001b504c544500000065954af4ba45ad1515be361dffffffe0ab40f98798b06b452d6d1eba000000097048597300000b1300000b1301009a9c18000003ca49444154789ceddcd16edb480c05504e244ff2ff5f5c0805821a8d1dc93623cee49c17be14a8717177cab2f1460000000000000000000000000000000000000000000030891efda1f1166f3bc76fd7252ce0a1f5cd03e36db36bfc7add23a1c383eb3a2ce0b17515060028a6275c280f8fa975090b78683de1427978ccad7b249203dee8706ac4619510f0d0ba0a030014d32b6c6853df32bb84053cb45ee1d633f72db37b249203dee8706ac4619510f0d0ba0a030094b6c65a7b0c6fad90e2cc09af15429c3ae04de531beb5424f7578d5611d2e6badf010ccfc48448914a74e1800e0a8b5c21636f5f6b656486ae684d70a414d1df066d43186b5421775783dbdae3a1c3aec9138c95ae1399df919060028f8ff1b7ffbe5df2aef1216708c5ce1befb9bb525be2b3ee2b7cabb472239e08d0ea7461c560901c7c07fd0850a03000cbf9af541ee95e76fc4124e26e0a2479efe7794b84916bf5eea70321d4ea7c3c9049c4dc20000b57db9af5d6bd1461ad548389980cfb8fc5c6b9b7146393a9c4c87d3e970320167933000c080da8387c34b5c6e8ed7fcca1dbfed109a84051c2357b83d784d080238bc6c6e8cd7fcca1dbfed189a472239e08d0ea7461c560901c7c07fd0850a0300d4d62afc0ce5b83f6db943ab90dbcc09b70ab14d1df0669c31a256a1993adc4e2faf0e870e7b244ed22a3cae333fc30000fb9558b8daccdb5b8950dac40997c8a4cd1c7085d34d9bfa0e54a2764d87dbd9cdd4e12850dea2ef70854cdac401d708a5cd9c3000c0734aac58ed95e33dde6f8e339408a54d9c70894cdacc015738d6b4578ef7cd8d714ec4156ad774b89ddd4c1d8e02e52dfa0e57c8a44d1c708d50dacc0903007c6f89e59f71adc48af5111fcf8c7b1bdacf6c6f128edc84051cc9016f3ec7b512c79a8fcde3e3debdf2876e993a1c3afca1c36195f048845d2d66dd8601009efb8bf2bdf1a536cfbf2f67ed6b128edc84051cc9015fdd2bef8d2fb5797e522ded7aa9c3a1c34d87a3c69e507395f048845dad0d5d610080973a7cbdbce7a7ff3e71d8191b9a84233761014772c047af97f7fcf469f2b053be39aec3a1c34d873f5925fee79108bb5abbf95fc761ee9500c05cf6ffcbfff2e0b933ff03d626e164024eb6ffa7349707cf9df91fb0381d4ea6c3e974389980b349180060b27d6db91a97b8248ff20be577249c4cc0d52e3fcbd5b86c5247f9d3d4b77438990ea7d3e16402ce26610080c936b425fd96f9e487389f849309b8f6ad6749bf653ef9210ad0e1643a9c4e879309389b8401006a3b7c005cd26f992ffd2ce793703201272f3b7c005cd26f992ffd2c05e870321d4ea7c3c9049c4dc200f1b43f2a498c298ca6be670000000049454e44ae4260826821c13eb03579728c24fee98d2cd8d677399a93a0e24f90ca237f7b373ba33402048f00000000"
}