{
  "txid": "5278197fcd1824ba790af2ddb72aa8ee16a0a313afaba3f7034344fc791c4c11",
  "version": 2,
  "locktime": 0,
  "vin": [
    {
      "txid": "7536239b9c229fba58bd6fccd3ef1dc7125fdb949fbb6fe35f73bcee376df1d3",
      "vout": 2,
      "prevout": {
        "scriptpubkey": "001461bdf87d9ba7c125744b53414dc0232815f2e4d2",
        "scriptpubkey_asm": "OP_0 OP_PUSHBYTES_20 61bdf87d9ba7c125744b53414dc0232815f2e4d2",
        "scriptpubkey_type": "v0_p2wpkh",
        "scriptpubkey_address": "bc1qvx7lslvm5lqj2azt2dq5mspr9q2l9exj908d4f",
        "value": 105932
      },
      "scriptsig": "",
      "scriptsig_asm": "",
      "witness": [
        "304402204bb2f7d958d35a64c7371f08e1c4f0009534c9f19fb05471d384701e00ade93d022006392febf368480328af0028bfe4ff5b689eb86000425aa53d475a8c3fbb125b01",
        "02aa13ddadbf607bc1b6df34b8be45e4c1dbf0914e917453eaf7333c572f317104"
      ],
      "is_coinbase": false,
      "sequence": 4294967295
    }
  ],
  "vout": [
    {
      "scriptpubkey": "76a914858469192a9ee2406602fc3357740b04fa8bf81488ac",
      "scriptpubkey_asm": "OP_DUP OP_HASH160 OP_PUSHBYTES_20 858469192a9ee2406602fc3357740b04fa8bf814 OP_EQUALVERIFY OP_CHECKSIG",
      "scriptpubkey_type": "p2pkh",
      "scriptpubkey_address": "1DAyVZRiQYqN3xTmrr1f9B3rgAhdxDBJvR",
      "value": 104266
    }
  ],
  "size": 194,
  "weight": 449,
  "fee": 1666,
  "status": {
    "confirmed": true,
    "block_height": 834460,
    "block_hash": "00000000000000000000484a79b643b2524bbce82e5d8a442013fa5b8905ed98",
    "block_time": 1710307468
  },
  "hex": "02000000000101d3f16d37eebc735fe36fbb9f94db5f12c71defd3cc6fbd58ba9f229c9b2336750200000000ffffffff014a970100000000001976a914858469192a9ee2406602fc3357740b04fa8bf81488ac0247304402204bb2f7d958d35a64c7371f08e1c4f0009534c9f19fb05471d384701e00ade93d022006392febf368480328af0028bfe4ff5b689eb86000425aa53d475a8c3fbb125b012102aa13ddadbf607bc1b6df34b8be45e4c1dbf0914e917453eaf7333c572f31710400000000"
}