{
  "txid": "52843b7b5bec224a66f48219a964367fdf90ddc392d9089fe8ab0b038f7a00ad",
  "version": 1,
  "locktime": 0,
  "vin": [
    {
      "txid": "85191581505bba5048b1a6ae39a1e3adf65b5f38018406f0d5563cbf51e534c5",
      "vout": 1,
      "prevout": {
        "scriptpubkey": "51209d6dbbf9bad17d0135e06ea56ec304df985f9f9bc809fa52ae6789a0947e0300",
        "scriptpubkey_asm": "OP_PUSHNUM_1 OP_PUSHBYTES_32 9d6dbbf9bad17d0135e06ea56ec304df985f9f9bc809fa52ae6789a0947e0300",
        "scriptpubkey_type": "v1_p2tr",
        "scriptpubkey_address": "bc1pn4kmh7d6697szd0qd6jkascym7v9l8umeqyl554wv7y6p9r7qvqquzkndh",
        "value": 337974
      },
      "scriptsig": "",
      "scriptsig_asm": "",
      "witness": [
        "dcc5e1da0acbcd6a6231c81c6d2654818be2d230f50c8b9a4baeec80bd3d2385d6f6c66fb91156dae8473e485f77a71f237e2755a7d0987178979476822fa364"
      ],
      "is_coinbase": false,
      "sequence": 4443
    }
  ],
  "vout": [
    {
      "scriptpubkey": "512022a7034ce7766079ca4e6f4f9e26058d05ab26d1646a818314a76747d85f00a0",
      "scriptpubkey_asm": "OP_PUSHNUM_1 OP_PUSHBYTES_32 22a7034ce7766079ca4e6f4f9e26058d05ab26d1646a818314a76747d85f00a0",
      "scriptpubkey_type": "v1_p2tr",
      "scriptpubkey_address": "bc1py2nsxn88wes8njjwda8eufs935z6kfk3v34grqc55an50kzlqzsqmc4220",
      "value": 3198
    },
    {
      "scriptpubkey": "51209d6dbbf9bad17d0135e06ea56ec304df985f9f9bc809fa52ae6789a0947e0300",
      "scriptpubkey_asm": "OP_PUSHNUM_1 OP_PUSHBYTES_32 9d6dbbf9bad17d0135e06ea56ec304df985f9f9bc809fa52ae6789a0947e0300",
      "scriptpubkey_type": "v1_p2tr",
      "scriptpubkey_address": "bc1pn4kmh7d6697szd0qd6jkascym7v9l8umeqyl554wv7y6p9r7qvqquzkndh",
      "value": 332466
    }
  ],
  "size": 205,
  "weight": 616,
  "fee": 2310,
  "status": {
    "confirmed": true,
    "block_height": 834460,
    "block_hash": "00000000000000000000484a79b643b2524bbce82e5d8a442013fa5b8905ed98",
    "block_time": 1710307468
  },
  "hex": "01000000000101c534e551bf3c56d5f0068401385f5bf6ade3a139aea6b14850ba5b508115198501000000005b110000027e0c00000000000022512022a7034ce7766079ca4e6f4f9e26058d05ab26d1646a818314a76747d85f00a0b2120500000000002251209d6dbbf9bad17d0135e06ea56ec304df985f9f9bc809fa52ae6789a0947e03000140dcc5e1da0acbcd6a6231c81c6d2654818be2d230f50c8b9a4baeec80bd3d2385d6f6c66fb91156dae8473e485f77a71f237e2755a7d0987178979476822fa36400000000"
}