{
  "txid": "528f2c1b0cae1056a1f70d8c0cad7f47a30d75aa875a5db35e0a0474e4e9145e",
  "version": 2,
  "locktime": 0,
  "vin": [
    {
      "txid": "0896439a76f711f32041e1147cecd3945604f83e9f9b3bd6ea43adf47c5e6a5f",
      "vout": 0,
      "prevout": {
        "scriptpubkey": "001454364819747f37606835ec00b4f4cfd7da5dd43e",
        "scriptpubkey_asm": "OP_0 OP_PUSHBYTES_20 54364819747f37606835ec00b4f4cfd7da5dd43e",
        "scriptpubkey_type": "v0_p2wpkh",
        "scriptpubkey_address": "bc1q2smysxt50umkq6p4asqtfax06ld9m4p7xmjmyn",
        "value": 287310
      },
      "scriptsig": "",
      "scriptsig_asm": "",
      "witness": [
        "30450221009b1ad28e648521c8a15e78e015d1b4301d981645955cd69cf2657a79ba662d30022014d5e4cc43e2c04eb76a0c8fa2abcf84f6297eb62652ecc633f8f10dc8706b0801",
        "031e2113120af714ef97fb4e6993d0807c42620a139c68cff75e5ce21303ef7666"
      ],
      "is_coinbase": false,
      "sequence": 4294967295
    }
  ],
  "vout": [
    {
      "scriptpubkey": "001411b3de97ebde821358ce5c1700330116e5d7303c",
      "scriptpubkey_asm": "OP_0 OP_PUSHBYTES_20 11b3de97ebde821358ce5c1700330116e5d7303c",
      "scriptpubkey_type": "v0_p2wpkh",
      "scriptpubkey_address": "bc1qzxeaa9ltm6ppxkxwtstsqvcpzmjawvpuswcyj9",
      "value": 52132
    },
    {
      "scriptpubkey": "001454364819747f37606835ec00b4f4cfd7da5dd43e",
      "scriptpubkey_asm": "OP_0 OP_PUSHBYTES_20 54364819747f37606835ec00b4f4cfd7da5dd43e",
      "scriptpubkey_type": "v0_p2wpkh",
      "scriptpubkey_address": "bc1q2smysxt50umkq6p4asqtfax06ld9m4p7xmjmyn",
      "value": 233351
    }
  ],
  "size": 223,
  "weight": 562,
  "fee": 1827,
  "status": {
    "confirmed": true,
    "block_height": 834460,
    "block_hash": "00000000000000000000484a79b643b2524bbce82e5d8a442013fa5b8905ed98",
    "block_time": 1710307468
  },
  "hex": "020000000001015f6a5e7cf4ad43ead63b9b9f3ef8045694d3ec7c14e14120f311f7769a4396080000000000ffffffff02a4cb00000000000016001411b3de97ebde821358ce5c1700330116e5d7303c878f03000000000016001454364819747f37606835ec00b4f4cfd7da5dd43e024830450221009b1ad28e648521c8a15e78e015d1b4301d981645955cd69cf2657a79ba662d30022014d5e4cc43e2c04eb76a0c8fa2abcf84f6297eb62652ecc633f8f10dc8706b080121031e2113120af714ef97fb4e6993d0807c42620a139c68cff75e5ce21303ef766600000000"
}