{
  "txid": "529d9478511a587d81cde63933552f702074187e39223a35966d72e4dcf3b3b7",
  "version": 2,
  "locktime": 832412,
  "vin": [
    {
      "txid": "009791e560c829c9f232d06143f616c702045aa3c47c4c3e451429c737598522",
      "vout": 0,
      "prevout": {
        "scriptpubkey": "76a914e5adbb1c206c2c0b88bb7c81411ff7e1eecf546888ac",
        "scriptpubkey_asm": "OP_DUP OP_HASH160 OP_PUSHBYTES_20 e5adbb1c206c2c0b88bb7c81411ff7e1eecf5468 OP_EQUALVERIFY OP_CHECKSIG",
        "scriptpubkey_type": "p2pkh",
        "scriptpubkey_address": "1MwRrxtTn5yGgy5UmjvSVN4aPgcsQtX6BN",
        "value": 13050
      },
      "scriptsig": "47304402203cc7c6226fd740e959d576bdabb0263c9233eadb6a6386cd5f5e9ba853f93b4902205bbadf2310998160250aa2187d3f9ebf35844e938bb2a8ab66e19e639aaf64260121034699320940552486c31f855c243ef6b4b0c512b9956c38187ea090ef0c32e771",
      "scriptsig_asm": "OP_PUSHBYTES_71 304402203cc7c6226fd740e959d576bdabb0263c9233eadb6a6386cd5f5e9ba853f93b4902205bbadf2310998160250aa2187d3f9ebf35844e938bb2a8ab66e19e639aaf642601 OP_PUSHBYTES_33 034699320940552486c31f855c243ef6b4b0c512b9956c38187ea090ef0c32e771",
      "is_coinbase": false,
      "sequence": 4294967293
    },
    {
      "txid": "80c19e2e5f6cca9be9b370ade6d74b02bc5c2dc3411d293a75b0fc504f916f0a",
      "vout": 0,
      "prevout": {
        "scriptpubkey": "76a914fa0f4a9fff119bc938ffbcbabbdee75dfe596fe488ac",
        "scriptpubkey_asm": "OP_DUP OP_HASH160 OP_PUSHBYTES_20 fa0f4a9fff119bc938ffbcbabbdee75dfe596fe4 OP_EQUALVERIFY OP_CHECKSIG",
        "scriptpubkey_type": "p2pkh",
        "scriptpubkey_address": "1PoCFRwFKwcHoTzZzU4E8KmPDNpZYy5yLz",
        "value": 2200
      },
      "scriptsig": "473044022025f5a8114b97cc16b43ad3bc42602494ab3e5c7541d8f60fd79628f23f9992aa022015221940953be037d933c464bc6e46919c197046d45e75b164b112e959e3ced60121021752c495062a0cd05b15bf9d8d9ee9508a5de529341d93b90cbaaa21cafab2fa",
      "scriptsig_asm": "OP_PUSHBYTES_71 3044022025f5a8114b97cc16b43ad3bc42602494ab3e5c7541d8f60fd79628f23f9992aa022015221940953be037d933c464bc6e46919c197046d45e75b164b112e959e3ced601 OP_PUSHBYTES_33 021752c495062a0cd05b15bf9d8d9ee9508a5de529341d93b90cbaaa21cafab2fa",
      "is_coinbase": false,
      "sequence": 4294967293
    },
    {
      "txid": "ca33dce0f000283b55c797dbccff72b69dccc2ead11a12bfd8c21155df4ed14a",
      "vout": 0,
      "prevout": {
        "scriptpubkey": "76a914438bd9ca4167b36ce7726104b0f9dc9b24ec4e6588ac",
        "scriptpubkey_asm": "OP_DUP OP_HASH160 OP_PUSHBYTES_20 438bd9ca4167b36ce7726104b0f9dc9b24ec4e65 OP_EQUALVERIFY OP_CHECKSIG",
        "scriptpubkey_type": "p2pkh",
        "scriptpubkey_address": "17A9orT44cm4Mni5i9RgSKGuVCnkxEgLvm",
        "value": 7780
      },
      "scriptsig": "4730440220412d612340b8fea331200cb4ec2137d6a195c10b642f558bbf99ee68cd9fd6e9022063dab2450a8801c767eb1a0b0383419c77aec382e11a757e09519cc22b2e3e35012103362eff4dde23b0225df4c8c99892daf785106d65085cddebc5bf8ea3bbe906ec",
      "scriptsig_asm": "OP_PUSHBYTES_71 30440220412d612340b8fea331200cb4ec2137d6a195c10b642f558bbf99ee68cd9fd6e9022063dab2450a8801c767eb1a0b0383419c77aec382e11a757e09519cc22b2e3e3501 OP_PUSHBYTES_33 03362eff4dde23b0225df4c8c99892daf785106d65085cddebc5bf8ea3bbe906ec",
      "is_coinbase": false,
      "sequence": 4294967293
    },
    {
      "txid": "f7d39070eec82e35d2fa63108d76de3634f4f899e35cb858ff1aefb14d996aba",
      "vout": 0,
      "prevout": {
        "scriptpubkey": "76a9147904b79d2d2261ba1a10cc7781045d5cae5bae9488ac",
        "scriptpubkey_asm": "OP_DUP OP_HASH160 OP_PUSHBYTES_20 7904b79d2d2261ba1a10cc7781045d5cae5bae94 OP_EQUALVERIFY OP_CHECKSIG",
        "scriptpubkey_type": "p2pkh",
        "scriptpubkey_address": "1C2tQyL8unDubXnbGCXEq6xqUvzsY37Qzr",
        "value": 2244
      },
      "scriptsig": "473044022033af7813bd47a14ef49434ad0a127683dff03ec118d282f0b951767a07eb2e600220230ef44e6e7501557c22eb8a08d7fda9e399902e0aff8c8298f7c81a93c33924012102712cf1f1512f1dc162a93c1e683f410d35e6902960240d35e78f1770b96a065a",
      "scriptsig_asm": "OP_PUSHBYTES_71 3044022033af7813bd47a14ef49434ad0a127683dff03ec118d282f0b951767a07eb2e600220230ef44e6e7501557c22eb8a08d7fda9e399902e0aff8c8298f7c81a93c3392401 OP_PUSHBYTES_33 02712cf1f1512f1dc162a93c1e683f410d35e6902960240d35e78f1770b96a065a",
      "is_coinbase": false,
      "sequence": 4294967293
    }
  ],
  "vout": [
    {
      "scriptpubkey": "76a9140bac3e69bc3968b27a6664f1e3f5b143a21280c988ac",
      "scriptpubkey_asm": "OP_DUP OP_HASH160 OP_PUSHBYTES_20 0bac3e69bc3968b27a6664f1e3f5b143a21280c9 OP_EQUALVERIFY OP_CHECKSIG",
      "scriptpubkey_type": "p2pkh",
      "scriptpubkey_address": "124impWtLPP2jk4ELzaYmfHwurivYntL4t",
      "value": 18363
    }
  ],
  "size": 632,
  "weight": 2528,
  "fee": 6911,
  "status": {
    "confirmed": true,
    "block_height": 834464,
    "block_hash": "0000000000000000000177a0869a911a2b65c9bdcd5a8bcb02b68f305bee848e",
    "block_time": 1710308296
  },
  "hex": "020000000422855937c72914453e4c7cc4a35a0402c716f64361d032f2c929c860e5919700000000006a47304402203cc7c6226fd740e959d576bdabb0263c9233eadb6a6386cd5f5e9ba853f93b4902205bbadf2310998160250aa2187d3f9ebf35844e938bb2a8ab66e19e639aaf64260121034699320940552486c31f855c243ef6b4b0c512b9956c38187ea090ef0c32e771fdffffff0a6f914f50fcb0753a291d41c32d5cbc024bd7e6ad70b3e99bca6c5f2e9ec180000000006a473044022025f5a8114b97cc16b43ad3bc42602494ab3e5c7541d8f60fd79628f23f9992aa022015221940953be037d933c464bc6e46919c197046d45e75b164b112e959e3ced60121021752c495062a0cd05b15bf9d8d9ee9508a5de529341d93b90cbaaa21cafab2fafdffffff4ad14edf5511c2d8bf121ad1eac2cc9db672ffccdb97c7553b2800f0e0dc33ca000000006a4730440220412d612340b8fea331200cb4ec2137d6a195c10b642f558bbf99ee68cd9fd6e9022063dab2450a8801c767eb1a0b0383419c77aec382e11a757e09519cc22b2e3e35012103362eff4dde23b0225df4c8c99892daf785106d65085cddebc5bf8ea3bbe906ecfdffffffba6a994db1ef1aff58b85ce399f8f43436de768d1063fad2352ec8ee7090d3f7000000006a473044022033af7813bd47a14ef49434ad0a127683dff03ec118d282f0b951767a07eb2e600220230ef44e6e7501557c22eb8a08d7fda9e399902e0aff8c8298f7c81a93c33924012102712cf1f1512f1dc162a93c1e683f410d35e6902960240d35e78f1770b96a065afdffffff01bb470000000000001976a9140bac3e69bc3968b27a6664f1e3f5b143a21280c988ac9cb30c00"
}