{
  "txid": "52a86c7cf89fed89735ce8da32b0c6048e263b9d5ae5a85ab19a5a00c77ba59b",
  "version": 1,
  "locktime": 0,
  "vin": [
    {
      "txid": "748bb9ee43827ee151685076c4b0b5cb82ada20db4d80532b5e8546a02812406",
      "vout": 1,
      "prevout": {
        "scriptpubkey": "001443616347a8628c33c84dd6d0da83dc0699f3a513",
        "scriptpubkey_asm": "OP_0 OP_PUSHBYTES_20 43616347a8628c33c84dd6d0da83dc0699f3a513",
        "scriptpubkey_type": "v0_p2wpkh",
        "scriptpubkey_address": "bc1qgdskx3agv2xr8jzd6mgd4q7uq6vl8fgn0jwurm",
        "value": 36914
      },
      "scriptsig": "",
      "scriptsig_asm": "",
      "witness": [
        "30440220386d58efaace1074ee5069c1d4f3cfcbd8b27e93345eb4262a38298530819f4602206459846e766aafd52f13de7cdedb293a56f618f8ea6669591fac6f6cc122944f01",
        "0216f34b0fe55c709ebb10c2cc52dbd434f35f6e95ba8f0b37eafbb87b4937c998"
      ],
      "is_coinbase": false,
      "sequence": 4294967295
    },
    {
      "txid": "0c78cde4af74e9134731423e749ef1f5a76bc9ad2a617f9e3b29a0d1916ae423",
      "vout": 6,
      "prevout": {
        "scriptpubkey": "00144eb758e787d13ece94ef0a42f65f81905bc8a3b3",
        "scriptpubkey_asm": "OP_0 OP_PUSHBYTES_20 4eb758e787d13ece94ef0a42f65f81905bc8a3b3",
        "scriptpubkey_type": "v0_p2wpkh",
        "scriptpubkey_address": "bc1qf6m43eu86ylva980pfp0vhupjpdu3ganh90ysw",
        "value": 633488
      },
      "scriptsig": "",
      "scriptsig_asm": "",
      "witness": [
        "304402204a421aca5628c80a0dfa92c2470861a3ef23f7d569e6cb4f9e47cc71c4797a6a02206aefbca8de93a4acd873d76ecc2bdf47e45dcbdd38850600b86dab3f94332cd601",
        "020c6c3f3ce48a38982475eec0b8b9e9aef9a30fec901e66bbdbdb8a820514322b"
      ],
      "is_coinbase": false,
      "sequence": 4294967295
    }
  ],
  "vout": [
    {
      "scriptpubkey": "0014d4fcaffca20745edf83cf37a355bc7133a0dad27",
      "scriptpubkey_asm": "OP_0 OP_PUSHBYTES_20 d4fcaffca20745edf83cf37a355bc7133a0dad27",
      "scriptpubkey_type": "v0_p2wpkh",
      "scriptpubkey_address": "bc1q6n72ll9zqaz7m7pu7dar2k78zvaqmtf85v02f0",
      "value": 609700
    },
    {
      "scriptpubkey": "001434a97778ad631ea37c23f58ce9434c69f82b4496",
      "scriptpubkey_asm": "OP_0 OP_PUSHBYTES_20 34a97778ad631ea37c23f58ce9434c69f82b4496",
      "scriptpubkey_type": "v0_p2wpkh",
      "scriptpubkey_address": "bc1qxj5hw79dvv02xlpr7kxwjs6vd8uzk3yk9f9dy2",
      "value": 57588
    }
  ],
  "size": 370,
  "weight": 832,
  "fee": 3114,
  "status": {
    "confirmed": true,
    "block_height": 834638,
    "block_hash": "000000000000000000025f742c626208ac87e0b7d15054abb4a19ca2d735a54e",
    "block_time": 1710405325
  },
  "hex": "01000000000102062481026a54e8b53205d8b40da2ad82cbb5b0c476506851e17e8243eeb98b740100000000ffffffff23e46a91d1a0293b9e7f612aadc96ba7f5f19e743e42314713e974afe4cd780c0600000000ffffffff02a44d090000000000160014d4fcaffca20745edf83cf37a355bc7133a0dad27f4e000000000000016001434a97778ad631ea37c23f58ce9434c69f82b4496024730440220386d58efaace1074ee5069c1d4f3cfcbd8b27e93345eb4262a38298530819f4602206459846e766aafd52f13de7cdedb293a56f618f8ea6669591fac6f6cc122944f01210216f34b0fe55c709ebb10c2cc52dbd434f35f6e95ba8f0b37eafbb87b4937c9980247304402204a421aca5628c80a0dfa92c2470861a3ef23f7d569e6cb4f9e47cc71c4797a6a02206aefbca8de93a4acd873d76ecc2bdf47e45dcbdd38850600b86dab3f94332cd60121020c6c3f3ce48a38982475eec0b8b9e9aef9a30fec901e66bbdbdb8a820514322b00000000"
}