{
  "txid": "52e2ac3851e9515423a4bff3ccde27389837da5767366f6a4d34a0d9ad6b152a",
  "version": 2,
  "locktime": 0,
  "vin": [
    {
      "txid": "acc3ba00869acb582a3f2904ce3a11dd3779350ce234063fc7d0959246213364",
      "vout": 168,
      "prevout": {
        "scriptpubkey": "5120135e9a104433389251636215954c7470be04169e62befcf547542f0c41d47205",
        "scriptpubkey_asm": "OP_PUSHNUM_1 OP_PUSHBYTES_32 135e9a104433389251636215954c7470be04169e62befcf547542f0c41d47205",
        "scriptpubkey_type": "v1_p2tr",
        "scriptpubkey_address": "bc1pzd0f5yzyxvufy5trvg2e2nr5wzlqg957v2l0ea282shscsw5wgzsxcgpn3",
        "value": 1806
      },
      "scriptsig": "",
      "scriptsig_asm": "",
      "witness": [
        "40fe473282742b1d0086862d9b06ec3bf6418fa03f6b67d5b6b7cf411e66a3434c3533ff721a8776620351cdfaff384ed518a349f32ae0f77d3ac2016abba405",
        "20b9921ee77d5e288692d18676e790b9c298719a7ca3f679640cfe836ff2e31cd5ac0063036f726401010a746578742f706c61696e00357b2270223a226272632d3230222c226f70223a226d696e74222c227469636b223a22646f6765222c22616d74223a2234323030227d68",
        "c0b9921ee77d5e288692d18676e790b9c298719a7ca3f679640cfe836ff2e31cd5"
      ],
      "is_coinbase": false,
      "sequence": 4261412863
    }
  ],
  "vout": [
    {
      "scriptpubkey": "00147a665de7a370f4c9b372ab1fae587500a5bcbdb4",
      "scriptpubkey_asm": "OP_0 OP_PUSHBYTES_20 7a665de7a370f4c9b372ab1fae587500a5bcbdb4",
      "scriptpubkey_type": "v0_p2wpkh",
      "scriptpubkey_address": "bc1q0fn9mearwr6vnvmj4v06ukr4qzjme0d565dzcx",
      "value": 294
    }
  ],
  "size": 294,
  "weight": 540,
  "fee": 1512,
  "status": {
    "confirmed": true,
    "block_height": 834460,
    "block_hash": "00000000000000000000484a79b643b2524bbce82e5d8a442013fa5b8905ed98",
    "block_time": 1710307468
  },
  "hex": "02000000000101643321469295d0c73f0634e20c357937dd113ace04293f2a58cb9a8600bac3aca800000000fffffffd0126010000000000001600147a665de7a370f4c9b372ab1fae587500a5bcbdb4034040fe473282742b1d0086862d9b06ec3bf6418fa03f6b67d5b6b7cf411e66a3434c3533ff721a8776620351cdfaff384ed518a349f32ae0f77d3ac2016abba4056d20b9921ee77d5e288692d18676e790b9c298719a7ca3f679640cfe836ff2e31cd5ac0063036f726401010a746578742f706c61696e00357b2270223a226272632d3230222c226f70223a226d696e74222c227469636b223a22646f6765222c22616d74223a2234323030227d6821c0b9921ee77d5e288692d18676e790b9c298719a7ca3f679640cfe836ff2e31cd500000000"
}