{
  "txid": "53075780e0a466dadf948d8f5ce889e35fbe45e061ebbadfc0b6f4f1a8e5082b",
  "version": 1,
  "locktime": 0,
  "vin": [
    {
      "txid": "0b63afcbca7fbfae9c7684de73e10266e929e50883a1017429400b6c54694b3c",
      "vout": 0,
      "prevout": {
        "scriptpubkey": "512049b72863ab882d093379f14a1e344e9ad28b052a394130939b840cb044c5a84e",
        "scriptpubkey_asm": "OP_PUSHNUM_1 OP_PUSHBYTES_32 49b72863ab882d093379f14a1e344e9ad28b052a394130939b840cb044c5a84e",
        "scriptpubkey_type": "v1_p2tr",
        "scriptpubkey_address": "bc1pfxmjscat3qksjvme799pudzwntfgkpf289qnpyumssxtq3x94p8qdkhww6",
        "value": 2713
      },
      "scriptsig": "",
      "scriptsig_asm": "",
      "witness": [
        "f0dcdbb1e66afed97bd20d480688aa63881c49e1d4b7d5273f2763c9035668a174b81295422eddb83fce414eb2305b96372e9ab1dedceb54c17b2d503da3647683",
        "20be11f1d0580232188e877ef283eb5a1efd4e9e5290a2633605d666f59ad3fff2ac00630461746f6d03646d742da16461726773a36b6d696e745f7469636b657264646f6765656e6f6e63651a002728bc6474696d651a65f10dd068",
        "c1be11f1d0580232188e877ef283eb5a1efd4e9e5290a2633605d666f59ad3fff2"
      ],
      "is_coinbase": false,
      "sequence": 4294967293
    }
  ],
  "vout": [
    {
      "scriptpubkey": "512075477ce1be988eced13eeea6a5916faba538db3d480fe0cf9cab08f2ccfaa4a3",
      "scriptpubkey_asm": "OP_PUSHNUM_1 OP_PUSHBYTES_32 75477ce1be988eced13eeea6a5916faba538db3d480fe0cf9cab08f2ccfaa4a3",
      "scriptpubkey_type": "v1_p2tr",
      "scriptpubkey_address": "bc1pw4rhecd7nz8va5f7a6n2tyt04wjn3keafq87pnuu4vy09n865j3sa7z3vc",
      "value": 1000
    }
  ],
  "size": 290,
  "weight": 572,
  "fee": 1713,
  "status": {
    "confirmed": true,
    "block_height": 834460,
    "block_hash": "00000000000000000000484a79b643b2524bbce82e5d8a442013fa5b8905ed98",
    "block_time": 1710307468
  },
  "hex": "010000000001013c4b69546c0b40297401a18308e529e96602e173de84769caebf7fcacbaf630b0000000000fdffffff01e80300000000000022512075477ce1be988eced13eeea6a5916faba538db3d480fe0cf9cab08f2ccfaa4a30341f0dcdbb1e66afed97bd20d480688aa63881c49e1d4b7d5273f2763c9035668a174b81295422eddb83fce414eb2305b96372e9ab1dedceb54c17b2d503da36476835c20be11f1d0580232188e877ef283eb5a1efd4e9e5290a2633605d666f59ad3fff2ac00630461746f6d03646d742da16461726773a36b6d696e745f7469636b657264646f6765656e6f6e63651a002728bc6474696d651a65f10dd06821c1be11f1d0580232188e877ef283eb5a1efd4e9e5290a2633605d666f59ad3fff200000000"
}