{
  "txid": "530c85e2b4413d0d1102347326b9bccab495cf59700f0e3eaec04344bb632bf9",
  "version": 2,
  "locktime": 0,
  "vin": [
    {
      "txid": "d9ec36a1f912f510f4f73d4e0957779013c0466c98f77b1cade9a744a1c5c05c",
      "vout": 119,
      "prevout": {
        "scriptpubkey": "76a914399470cab924a7c1e42e349b9498f4fca8aa255e88ac",
        "scriptpubkey_asm": "OP_DUP OP_HASH160 OP_PUSHBYTES_20 399470cab924a7c1e42e349b9498f4fca8aa255e OP_EQUALVERIFY OP_CHECKSIG",
        "scriptpubkey_type": "p2pkh",
        "scriptpubkey_address": "16FTLmX7GqJP4WVQcPCpF1uUeXY2hnDK8v",
        "value": 125638
      },
      "scriptsig": "47304402200cec1acb1a4acd9a20686136abea0e86202126c70bd89473fb82e5068af755a502204edc906996745d5fcf7649874d26c800947fa598de0bdb66a460b63dbdb9819401210323186d89a20f2a8700055821beba205b35fc2e806c4b313ff7e5c380edf00142",
      "scriptsig_asm": "OP_PUSHBYTES_71 304402200cec1acb1a4acd9a20686136abea0e86202126c70bd89473fb82e5068af755a502204edc906996745d5fcf7649874d26c800947fa598de0bdb66a460b63dbdb9819401 OP_PUSHBYTES_33 0323186d89a20f2a8700055821beba205b35fc2e806c4b313ff7e5c380edf00142",
      "is_coinbase": false,
      "sequence": 4294967295
    },
    {
      "txid": "b5cfc17e5c9e7816b8b6ea4f281fe5a351b651a92fbddf6ada63644487e246fd",
      "vout": 120,
      "prevout": {
        "scriptpubkey": "76a914399470cab924a7c1e42e349b9498f4fca8aa255e88ac",
        "scriptpubkey_asm": "OP_DUP OP_HASH160 OP_PUSHBYTES_20 399470cab924a7c1e42e349b9498f4fca8aa255e OP_EQUALVERIFY OP_CHECKSIG",
        "scriptpubkey_type": "p2pkh",
        "scriptpubkey_address": "16FTLmX7GqJP4WVQcPCpF1uUeXY2hnDK8v",
        "value": 1853839
      },
      "scriptsig": "483045022100fc9b4a638142b8ae869c5a64217ada797f90d48f6f5e066686f613287a2b9ea8022072ce1e9306e2de087f828f2fca534df17e72099e6b9e00ce097331bce642f7d401210323186d89a20f2a8700055821beba205b35fc2e806c4b313ff7e5c380edf00142",
      "scriptsig_asm": "OP_PUSHBYTES_72 3045022100fc9b4a638142b8ae869c5a64217ada797f90d48f6f5e066686f613287a2b9ea8022072ce1e9306e2de087f828f2fca534df17e72099e6b9e00ce097331bce642f7d401 OP_PUSHBYTES_33 0323186d89a20f2a8700055821beba205b35fc2e806c4b313ff7e5c380edf00142",
      "is_coinbase": false,
      "sequence": 4294967295
    }
  ],
  "vout": [
    {
      "scriptpubkey": "0014b7ed34b34477e13bbfce090e75620976d04433a3",
      "scriptpubkey_asm": "OP_0 OP_PUSHBYTES_20 b7ed34b34477e13bbfce090e75620976d04433a3",
      "scriptpubkey_type": "v0_p2wpkh",
      "scriptpubkey_address": "bc1qklknfv6ywlsnh07wpy882csfwmgygvarntq3rg",
      "value": 1974713
    }
  ],
  "size": 336,
  "weight": 1344,
  "fee": 4764,
  "status": {
    "confirmed": true,
    "block_height": 834460,
    "block_hash": "00000000000000000000484a79b643b2524bbce82e5d8a442013fa5b8905ed98",
    "block_time": 1710307468
  },
  "hex": "02000000025cc0c5a144a7e9ad1c7bf7986c46c013907757094e3df7f410f512f9a136ecd9770000006a47304402200cec1acb1a4acd9a20686136abea0e86202126c70bd89473fb82e5068af755a502204edc906996745d5fcf7649874d26c800947fa598de0bdb66a460b63dbdb9819401210323186d89a20f2a8700055821beba205b35fc2e806c4b313ff7e5c380edf00142fffffffffd46e287446463da6adfbd2fa951b651a3e51f284feab6b816789e5c7ec1cfb5780000006b483045022100fc9b4a638142b8ae869c5a64217ada797f90d48f6f5e066686f613287a2b9ea8022072ce1e9306e2de087f828f2fca534df17e72099e6b9e00ce097331bce642f7d401210323186d89a20f2a8700055821beba205b35fc2e806c4b313ff7e5c380edf00142ffffffff01b9211e0000000000160014b7ed34b34477e13bbfce090e75620976d04433a300000000"
}