{
  "txid": "530f7730d4a6670ba2435635a04db586dbb1985ce86459086d96cb46be174a53",
  "version": 2,
  "locktime": 0,
  "vin": [
    {
      "txid": "df7f17e399d82bb79e7121f91a72f5fb09f02443e3d85d7e8f77e9d7ebeeaa0c",
      "vout": 0,
      "prevout": {
        "scriptpubkey": "51203afd8dbcc665606b881b87f2a0bc5c1ccfde64f8b05b713453b42ddb1cfd9930",
        "scriptpubkey_asm": "OP_PUSHNUM_1 OP_PUSHBYTES_32 3afd8dbcc665606b881b87f2a0bc5c1ccfde64f8b05b713453b42ddb1cfd9930",
        "scriptpubkey_type": "v1_p2tr",
        "scriptpubkey_address": "bc1p8t7cm0xxv4sxhzqmsle2p0zurn8aue8ckpdhzdznkskak88anycqm2gu5u",
        "value": 61321
      },
      "scriptsig": "",
      "scriptsig_asm": "",
      "witness": [
        "a7ca40ab3658edfcb7ca5c1d584f180ff4fa2c80af8667f1b60f07c4e59487c8aaf2c621ba800b53061e2bfe6d0833f60b7e56aba15fa5568ce5e8349b6c2d01"
      ],
      "is_coinbase": false,
      "sequence": 4294967295
    }
  ],
  "vout": [
    {
      "scriptpubkey": "51203e0af42539d9fe6fe1615690a416749ab7da5b440422c515e2932c1d1aa355d7",
      "scriptpubkey_asm": "OP_PUSHNUM_1 OP_PUSHBYTES_32 3e0af42539d9fe6fe1615690a416749ab7da5b440422c515e2932c1d1aa355d7",
      "scriptpubkey_type": "v1_p2tr",
      "scriptpubkey_address": "bc1p8c90gffem8lxlctp26g2g9n5n2ma5k6yqs3v290zjvkp6x4r2hts72mngs",
      "value": 5000
    },
    {
      "scriptpubkey": "51203afd8dbcc665606b881b87f2a0bc5c1ccfde64f8b05b713453b42ddb1cfd9930",
      "scriptpubkey_asm": "OP_PUSHNUM_1 OP_PUSHBYTES_32 3afd8dbcc665606b881b87f2a0bc5c1ccfde64f8b05b713453b42ddb1cfd9930",
      "scriptpubkey_type": "v1_p2tr",
      "scriptpubkey_address": "bc1p8t7cm0xxv4sxhzqmsle2p0zurn8aue8ckpdhzdznkskak88anycqm2gu5u",
      "value": 54011
    }
  ],
  "size": 205,
  "weight": 616,
  "fee": 2310,
  "status": {
    "confirmed": true,
    "block_height": 834638,
    "block_hash": "000000000000000000025f742c626208ac87e0b7d15054abb4a19ca2d735a54e",
    "block_time": 1710405325
  },
  "hex": "020000000001010caaeeebd7e9778f7e5dd8e34324f009fbf5721af921719eb72bd899e3177fdf0000000000ffffffff0288130000000000002251203e0af42539d9fe6fe1615690a416749ab7da5b440422c515e2932c1d1aa355d7fbd20000000000002251203afd8dbcc665606b881b87f2a0bc5c1ccfde64f8b05b713453b42ddb1cfd99300140a7ca40ab3658edfcb7ca5c1d584f180ff4fa2c80af8667f1b60f07c4e59487c8aaf2c621ba800b53061e2bfe6d0833f60b7e56aba15fa5568ce5e8349b6c2d0100000000"
}