{
  "txid": "53244b576705cae2186f19fc55dc7dcd5a97cbac3d7b8677e0e442132ead3590",
  "version": 2,
  "locktime": 0,
  "vin": [
    {
      "txid": "6f2da93ff63b65764d94f48ba627da11fd299767ecc4d0012e53d0eaf9cd773c",
      "vout": 0,
      "prevout": {
        "scriptpubkey": "00142bc02435275978b0e96b92d536c77b2f68694667",
        "scriptpubkey_asm": "OP_0 OP_PUSHBYTES_20 2bc02435275978b0e96b92d536c77b2f68694667",
        "scriptpubkey_type": "v0_p2wpkh",
        "scriptpubkey_address": "bc1q90qzgdf8t9utp6ttjt2nd3mm9a5xj3n8jpcxz3",
        "value": 25000
      },
      "scriptsig": "",
      "scriptsig_asm": "",
      "witness": [
        "3045022100bd93bf9a6ab2af25a52375f2613934c9f8c61bfd22afa691b84a75804c3eea63022002cdaa2a2bcda4f5e87bc5620a7bd46d8e97bb1dccc0ac2c4b2d6445887164fa01",
        "03b0f80ad79d642e29fdf947677ced2104245d32f3e7e8e631df6a78a0e214285e"
      ],
      "is_coinbase": false,
      "sequence": 4294967295
    },
    {
      "txid": "f7824f35f88d49fe1b657265e72b1cc5a970fdcd1614959e17f3421b1e582a21",
      "vout": 2,
      "prevout": {
        "scriptpubkey": "00142bc02435275978b0e96b92d536c77b2f68694667",
        "scriptpubkey_asm": "OP_0 OP_PUSHBYTES_20 2bc02435275978b0e96b92d536c77b2f68694667",
        "scriptpubkey_type": "v0_p2wpkh",
        "scriptpubkey_address": "bc1q90qzgdf8t9utp6ttjt2nd3mm9a5xj3n8jpcxz3",
        "value": 25000
      },
      "scriptsig": "",
      "scriptsig_asm": "",
      "witness": [
        "304402203e4fe685910847cfc108bda21a160cecdf93685478ce102bf387e55856a6c3ba02202f2d5f35729b413269634ef6f1da4f16d1bd213a4340bef7bc3199ce7dd131dd01",
        "03b0f80ad79d642e29fdf947677ced2104245d32f3e7e8e631df6a78a0e214285e"
      ],
      "is_coinbase": false,
      "sequence": 4294967295
    },
    {
      "txid": "482fc3dfe48b80e40e1404a2de64a0b8a466a163210427848b6eb3e54e2ad66e",
      "vout": 2,
      "prevout": {
        "scriptpubkey": "00142bc02435275978b0e96b92d536c77b2f68694667",
        "scriptpubkey_asm": "OP_0 OP_PUSHBYTES_20 2bc02435275978b0e96b92d536c77b2f68694667",
        "scriptpubkey_type": "v0_p2wpkh",
        "scriptpubkey_address": "bc1q90qzgdf8t9utp6ttjt2nd3mm9a5xj3n8jpcxz3",
        "value": 25000
      },
      "scriptsig": "",
      "scriptsig_asm": "",
      "witness": [
        "304402206a39a27640d9866ce698b75b2c0f3e8abd8453168b2dbc33034a6d066ee022f1022061fde131f23e370cee9d827d0fec6f620886db3ccc5692ae359750007612c8f001",
        "03b0f80ad79d642e29fdf947677ced2104245d32f3e7e8e631df6a78a0e214285e"
      ],
      "is_coinbase": false,
      "sequence": 4294967295
    },
    {
      "txid": "976e2a44c150891cf12c856d059a7bd0e0b0b5b3ae1a4a96866a8e341ec399c0",
      "vout": 3,
      "prevout": {
        "scriptpubkey": "00142bc02435275978b0e96b92d536c77b2f68694667",
        "scriptpubkey_asm": "OP_0 OP_PUSHBYTES_20 2bc02435275978b0e96b92d536c77b2f68694667",
        "scriptpubkey_type": "v0_p2wpkh",
        "scriptpubkey_address": "bc1q90qzgdf8t9utp6ttjt2nd3mm9a5xj3n8jpcxz3",
        "value": 25000
      },
      "scriptsig": "",
      "scriptsig_asm": "",
      "witness": [
        "30450221009b9a28f43db456c690d215ace6eff411410af970d9e8a914dbc1a391b8cb01170220244caee2890ccf6595e6c03634f55f7a42e0f5b7fc78bb8fb40f40cb5b47132c01",
        "03b0f80ad79d642e29fdf947677ced2104245d32f3e7e8e631df6a78a0e214285e"
      ],
      "is_coinbase": false,
      "sequence": 4294967295
    },
    {
      "txid": "0b63d35bcb89e671171bf149858c639652839286365cafebe03f1f48a5471e43",
      "vout": 0,
      "prevout": {
        "scriptpubkey": "00142bc02435275978b0e96b92d536c77b2f68694667",
        "scriptpubkey_asm": "OP_0 OP_PUSHBYTES_20 2bc02435275978b0e96b92d536c77b2f68694667",
        "scriptpubkey_type": "v0_p2wpkh",
        "scriptpubkey_address": "bc1q90qzgdf8t9utp6ttjt2nd3mm9a5xj3n8jpcxz3",
        "value": 25000
      },
      "scriptsig": "",
      "scriptsig_asm": "",
      "witness": [
        "30440220232553bc69f80f23af7b0d3aad394c236de6613a7b50b610c682822bfdb3892f022004269f8973d4a38c1ead2842177acdb302ddc494cce43ade4f4e646c8a022f6a01",
        "03b0f80ad79d642e29fdf947677ced2104245d32f3e7e8e631df6a78a0e214285e"
      ],
      "is_coinbase": false,
      "sequence": 4294967295
    },
    {
      "txid": "5672fd2ccd459047136767f1e1bb33b267eff3dd0e55832407a5b0c24459a649",
      "vout": 2,
      "prevout": {
        "scriptpubkey": "00142bc02435275978b0e96b92d536c77b2f68694667",
        "scriptpubkey_asm": "OP_0 OP_PUSHBYTES_20 2bc02435275978b0e96b92d536c77b2f68694667",
        "scriptpubkey_type": "v0_p2wpkh",
        "scriptpubkey_address": "bc1q90qzgdf8t9utp6ttjt2nd3mm9a5xj3n8jpcxz3",
        "value": 25000
      },
      "scriptsig": "",
      "scriptsig_asm": "",
      "witness": [
        "304402204a4b8c02d6c3d9934a9570abfeb8bcb5572033233c73e0215732db728b3fe05902200989e6c109d30a594038e9495430dee18039041c65b0cf15ce71afafbce15a8a01",
        "03b0f80ad79d642e29fdf947677ced2104245d32f3e7e8e631df6a78a0e214285e"
      ],
      "is_coinbase": false,
      "sequence": 4294967295
    },
    {
      "txid": "33e9f911df8279c6e1dd5886cf46c374957d955ee5bac084b19d23209365cfb0",
      "vout": 0,
      "prevout": {
        "scriptpubkey": "00142bc02435275978b0e96b92d536c77b2f68694667",
        "scriptpubkey_asm": "OP_0 OP_PUSHBYTES_20 2bc02435275978b0e96b92d536c77b2f68694667",
        "scriptpubkey_type": "v0_p2wpkh",
        "scriptpubkey_address": "bc1q90qzgdf8t9utp6ttjt2nd3mm9a5xj3n8jpcxz3",
        "value": 25000
      },
      "scriptsig": "",
      "scriptsig_asm": "",
      "witness": [
        "3045022100cc6e17780d0790ab89f3578e76cff259c56fc43aa1577ac243ea627b8070781202203b849da31a055470d472fd82e4e96dad1117863191d79d9615d4802a700ecba301",
        "03b0f80ad79d642e29fdf947677ced2104245d32f3e7e8e631df6a78a0e214285e"
      ],
      "is_coinbase": false,
      "sequence": 4294967295
    }
  ],
  "vout": [
    {
      "scriptpubkey": "0014419854753506f2b3e771860f36eb919d89cc890f",
      "scriptpubkey_asm": "OP_0 OP_PUSHBYTES_20 419854753506f2b3e771860f36eb919d89cc890f",
      "scriptpubkey_type": "v0_p2wpkh",
      "scriptpubkey_address": "bc1qgxv9gaf4qmet8em3sc8nd6u3nkyuezg0cg9p36",
      "value": 2222
    },
    {
      "scriptpubkey": "76a9141fe2de41946c80a5d3c56ac886997cc471b9ab8188ac",
      "scriptpubkey_asm": "OP_DUP OP_HASH160 OP_PUSHBYTES_20 1fe2de41946c80a5d3c56ac886997cc471b9ab81 OP_EQUALVERIFY OP_CHECKSIG",
      "scriptpubkey_type": "p2pkh",
      "scriptpubkey_address": "13ubj2SSDWnCP234Bx1rix8qSk9LhQort3",
      "value": 165339
    }
  ],
  "size": 1116,
  "weight": 2202,
  "fee": 7439,
  "status": {
    "confirmed": true,
    "block_height": 834460,
    "block_hash": "00000000000000000000484a79b643b2524bbce82e5d8a442013fa5b8905ed98",
    "block_time": 1710307468
  },
  "hex": "020000000001073c77cdf9ead0532e01d0c4ec679729fd11da27a68bf4944d76653bf63fa92d6f0000000000ffffffff212a581e1b42f3179e951416cdfd70a9c51c2be76572651bfe498df8354f82f70200000000ffffffff6ed62a4ee5b36e8b8427042163a166a4b8a064dea204140ee4808be4dfc32f480200000000ffffffffc099c31e348e6a86964a1aaeb3b5b0e0d07b9a056d852cf11c8950c1442a6e970300000000ffffffff431e47a5481f3fe0ebaf5c368692835296638c8549f11b1771e689cb5bd3630b0000000000ffffffff49a65944c2b0a5072483550eddf3ef67b233bbe1f1676713479045cd2cfd72560200000000ffffffffb0cf659320239db184c0bae55e957d9574c346cf8658dde1c67982df11f9e9330000000000ffffffff02ae08000000000000160014419854753506f2b3e771860f36eb919d89cc890fdb850200000000001976a9141fe2de41946c80a5d3c56ac886997cc471b9ab8188ac02483045022100bd93bf9a6ab2af25a52375f2613934c9f8c61bfd22afa691b84a75804c3eea63022002cdaa2a2bcda4f5e87bc5620a7bd46d8e97bb1dccc0ac2c4b2d6445887164fa012103b0f80ad79d642e29fdf947677ced2104245d32f3e7e8e631df6a78a0e214285e0247304402203e4fe685910847cfc108bda21a160cecdf93685478ce102bf387e55856a6c3ba02202f2d5f35729b413269634ef6f1da4f16d1bd213a4340bef7bc3199ce7dd131dd012103b0f80ad79d642e29fdf947677ced2104245d32f3e7e8e631df6a78a0e214285e0247304402206a39a27640d9866ce698b75b2c0f3e8abd8453168b2dbc33034a6d066ee022f1022061fde131f23e370cee9d827d0fec6f620886db3ccc5692ae359750007612c8f0012103b0f80ad79d642e29fdf947677ced2104245d32f3e7e8e631df6a78a0e214285e024830450221009b9a28f43db456c690d215ace6eff411410af970d9e8a914dbc1a391b8cb01170220244caee2890ccf6595e6c03634f55f7a42e0f5b7fc78bb8fb40f40cb5b47132c012103b0f80ad79d642e29fdf947677ced2104245d32f3e7e8e631df6a78a0e214285e024730440220232553bc69f80f23af7b0d3aad394c236de6613a7b50b610c682822bfdb3892f022004269f8973d4a38c1ead2842177acdb302ddc494cce43ade4f4e646c8a022f6a012103b0f80ad79d642e29fdf947677ced2104245d32f3e7e8e631df6a78a0e214285e0247304402204a4b8c02d6c3d9934a9570abfeb8bcb5572033233c73e0215732db728b3fe05902200989e6c109d30a594038e9495430dee18039041c65b0cf15ce71afafbce15a8a012103b0f80ad79d642e29fdf947677ced2104245d32f3e7e8e631df6a78a0e214285e02483045022100cc6e17780d0790ab89f3578e76cff259c56fc43aa1577ac243ea627b8070781202203b849da31a055470d472fd82e4e96dad1117863191d79d9615d4802a700ecba3012103b0f80ad79d642e29fdf947677ced2104245d32f3e7e8e631df6a78a0e214285e00000000"
}