{
  "txid": "53279452b44f24f222e61ab5b48c3104b50bf9ae9198838e3e66d3149484d80d",
  "version": 1,
  "locktime": 0,
  "vin": [
    {
      "txid": "378b08e447708df819c218c6f0273df4cad46bab5f01083e2f8d46bda4c09f61",
      "vout": 3,
      "prevout": {
        "scriptpubkey": "0014951e6e01507f300fd6a157e513f906b8cd0d50d8",
        "scriptpubkey_asm": "OP_0 OP_PUSHBYTES_20 951e6e01507f300fd6a157e513f906b8cd0d50d8",
        "scriptpubkey_type": "v0_p2wpkh",
        "scriptpubkey_address": "bc1qj50xuq2s0ucql44p2lj387gxhrxs65xc263suq",
        "value": 100000
      },
      "scriptsig": "",
      "scriptsig_asm": "",
      "witness": [
        "3045022100d581565e85c5e935843c430ef7819df9eb84556d6b3af6c5872a929dc0f55d7602206235d3e15b2a09c08dd7285207f81aff7450d6628119a4cc7b31a3f67d4b524f01",
        "037ddd68fbaa73374e3d728c81531e89e7c57b43ef0b476cad961a957f0fcb1436"
      ],
      "is_coinbase": false,
      "sequence": 4294967295
    },
    {
      "txid": "442ce812ac2f12a18dc5d87e0f56865778e61f78e1103cd92e15010730a1eee3",
      "vout": 4,
      "prevout": {
        "scriptpubkey": "0014b42e7e01b968a604a4e22e6bb2a9b273e3955149",
        "scriptpubkey_asm": "OP_0 OP_PUSHBYTES_20 b42e7e01b968a604a4e22e6bb2a9b273e3955149",
        "scriptpubkey_type": "v0_p2wpkh",
        "scriptpubkey_address": "bc1qksh8uqdedznqff8z9e4m92djw03e252fxkaww7",
        "value": 100000
      },
      "scriptsig": "",
      "scriptsig_asm": "",
      "witness": [
        "304402200bc5900c6c94ed5f04a0832628bf311f7c31d35009c0337c33b2120cd0d66a2802205c1ef1178c2038df01e92b9c4c31d03561a721c8e5819603cc6c151bb1d4c31501",
        "0327c34900db4f3fc83da7ea0df11ace87f251538d51b0c24290456190437f093c"
      ],
      "is_coinbase": false,
      "sequence": 4294967295
    },
    {
      "txid": "5113f81dd762eb13897b1856420f8dbe192e9bf3498abb576a09c59d58679f08",
      "vout": 4,
      "prevout": {
        "scriptpubkey": "0014e3f82044d58b233d5e0c9da972a9b175c8dfb3d3",
        "scriptpubkey_asm": "OP_0 OP_PUSHBYTES_20 e3f82044d58b233d5e0c9da972a9b175c8dfb3d3",
        "scriptpubkey_type": "v0_p2wpkh",
        "scriptpubkey_address": "bc1qu0uzq3x43v3n6hsvnk5h92d3whydlv7nmtnksy",
        "value": 100000
      },
      "scriptsig": "",
      "scriptsig_asm": "",
      "witness": [
        "3045022100ddb390ec7b21970d29a637b701a35cfd670e77f02e73d7bea992d1ad67dfd9910220582a6cc6c41acf5fed4118fd044a12382b5de8d59ec0780d8d6015ab7a25fc8a01",
        "02b4b91836166bd84180392febaf2256de123f06c177854127466daeabdb55e3da"
      ],
      "is_coinbase": false,
      "sequence": 4294967295
    },
    {
      "txid": "6d351060b4b4bcb319c18fe7b88fb5d9b6cd481e1fb9d62fb7ed3ec9f8132c46",
      "vout": 5,
      "prevout": {
        "scriptpubkey": "001429d099a7632eb91772bd1a185bcb0c18f27a756a",
        "scriptpubkey_asm": "OP_0 OP_PUSHBYTES_20 29d099a7632eb91772bd1a185bcb0c18f27a756a",
        "scriptpubkey_type": "v0_p2wpkh",
        "scriptpubkey_address": "bc1q98gfnfmr96u3wu4argv9hjcvrre85at25quzn9",
        "value": 103932
      },
      "scriptsig": "",
      "scriptsig_asm": "",
      "witness": [
        "30450221009c207d32bcfcf400489e3ca266bc177cb5a0aafa4ce0b8a5cdf8e939806654870220536da361f401d9e6135a564a01a388f339df3c0f2b0bc42de2b154452a1f4d5801",
        "027a60de5948f7a8f15e7d6b61ccce0387a848f82aaf5a28dd92853cf489824a0e"
      ],
      "is_coinbase": false,
      "sequence": 4294967295
    },
    {
      "txid": "7b8afba7911e784399113f85685ed3882dd7b9954ffbe719ee1153020efd3c79",
      "vout": 18,
      "prevout": {
        "scriptpubkey": "001481a7e44e5468ab019254daf2626dd1fed3a264dd",
        "scriptpubkey_asm": "OP_0 OP_PUSHBYTES_20 81a7e44e5468ab019254daf2626dd1fed3a264dd",
        "scriptpubkey_type": "v0_p2wpkh",
        "scriptpubkey_address": "bc1qsxn7gnj5dz4sryj5mtexymw3lmf6yexa3hjx53",
        "value": 103412
      },
      "scriptsig": "",
      "scriptsig_asm": "",
      "witness": [
        "304402204684a65d4058b18811b63aedd43164377fef4f1164eca44ddfb0b4a7b39e3ea102207d741df9a079497c896756e9a3a92f40f84e283250cd02bae35117599241b8eb01",
        "027fc393dfde3a65361a111c96b3ad85d28d2efbc4fbb331d83b18e4cef8043e7d"
      ],
      "is_coinbase": false,
      "sequence": 4294967295
    }
  ],
  "vout": [
    {
      "scriptpubkey": "00141d3ae090675a5640e85c18b1d1c28af9cbb50d6d",
      "scriptpubkey_asm": "OP_0 OP_PUSHBYTES_20 1d3ae090675a5640e85c18b1d1c28af9cbb50d6d",
      "scriptpubkey_type": "v0_p2wpkh",
      "scriptpubkey_address": "bc1qr5awpyr8tftyp6zurzcars52l89m2rtd7yg2y9",
      "value": 100000
    },
    {
      "scriptpubkey": "0014252bc432ae82ff53771441907a79d14301ef44bf",
      "scriptpubkey_asm": "OP_0 OP_PUSHBYTES_20 252bc432ae82ff53771441907a79d14301ef44bf",
      "scriptpubkey_type": "v0_p2wpkh",
      "scriptpubkey_address": "bc1qy54ugv4wstl4xac5gxg857w3gvq7739lhswjw7",
      "value": 100000
    },
    {
      "scriptpubkey": "0014a0aefb50df7ff042bb71851e524b4aa32b521608",
      "scriptpubkey_asm": "OP_0 OP_PUSHBYTES_20 a0aefb50df7ff042bb71851e524b4aa32b521608",
      "scriptpubkey_type": "v0_p2wpkh",
      "scriptpubkey_address": "bc1q5zh0k5xl0lcy9wm3s509yj625v44y9sgu5lrg0",
      "value": 100000
    },
    {
      "scriptpubkey": "0014ab7a932204b62d1c49b4c7897ce199f4268c81fc",
      "scriptpubkey_asm": "OP_0 OP_PUSHBYTES_20 ab7a932204b62d1c49b4c7897ce199f4268c81fc",
      "scriptpubkey_type": "v0_p2wpkh",
      "scriptpubkey_address": "bc1q4dafxgsykck3cjd5c7yhecve7sngeq0uk8hnc2",
      "value": 100000
    },
    {
      "scriptpubkey": "0014cc9fe2378f1a7127e012b3c14bd8689664b719e9",
      "scriptpubkey_asm": "OP_0 OP_PUSHBYTES_20 cc9fe2378f1a7127e012b3c14bd8689664b719e9",
      "scriptpubkey_type": "v0_p2wpkh",
      "scriptpubkey_address": "bc1qej07ydu0rfcj0cqjk0q5hkrgjejtwx0f06atyd",
      "value": 100000
    }
  ],
  "size": 910,
  "weight": 2020,
  "fee": 7344,
  "status": {
    "confirmed": true,
    "block_height": 834638,
    "block_hash": "000000000000000000025f742c626208ac87e0b7d15054abb4a19ca2d735a54e",
    "block_time": 1710405325
  },
  "hex": "01000000000105619fc0a4bd468d2f3e08015fab6bd4caf43d27f0c618c219f88d7047e4088b370300000000ffffffffe3eea1300701152ed93c10e1781fe6785786560f7ed8c58da1122fac12e82c440400000000ffffffff089f67589dc5096a57bb8a49f39b2e19be8d0f4256187b8913eb62d71df813510400000000ffffffff462c13f8c93eedb72fd6b91f1e48cdb6d9b58fb8e78fc119b3bcb4b46010356d0500000000ffffffff793cfd0e025311ee19e7fb4f95b9d72d88d35e68853f119943781e91a7fb8a7b1200000000ffffffff05a0860100000000001600141d3ae090675a5640e85c18b1d1c28af9cbb50d6da086010000000000160014252bc432ae82ff53771441907a79d14301ef44bfa086010000000000160014a0aefb50df7ff042bb71851e524b4aa32b521608a086010000000000160014ab7a932204b62d1c49b4c7897ce199f4268c81fca086010000000000160014cc9fe2378f1a7127e012b3c14bd8689664b719e902483045022100d581565e85c5e935843c430ef7819df9eb84556d6b3af6c5872a929dc0f55d7602206235d3e15b2a09c08dd7285207f81aff7450d6628119a4cc7b31a3f67d4b524f0121037ddd68fbaa73374e3d728c81531e89e7c57b43ef0b476cad961a957f0fcb14360247304402200bc5900c6c94ed5f04a0832628bf311f7c31d35009c0337c33b2120cd0d66a2802205c1ef1178c2038df01e92b9c4c31d03561a721c8e5819603cc6c151bb1d4c31501210327c34900db4f3fc83da7ea0df11ace87f251538d51b0c24290456190437f093c02483045022100ddb390ec7b21970d29a637b701a35cfd670e77f02e73d7bea992d1ad67dfd9910220582a6cc6c41acf5fed4118fd044a12382b5de8d59ec0780d8d6015ab7a25fc8a012102b4b91836166bd84180392febaf2256de123f06c177854127466daeabdb55e3da024830450221009c207d32bcfcf400489e3ca266bc177cb5a0aafa4ce0b8a5cdf8e939806654870220536da361f401d9e6135a564a01a388f339df3c0f2b0bc42de2b154452a1f4d580121027a60de5948f7a8f15e7d6b61ccce0387a848f82aaf5a28dd92853cf489824a0e0247304402204684a65d4058b18811b63aedd43164377fef4f1164eca44ddfb0b4a7b39e3ea102207d741df9a079497c896756e9a3a92f40f84e283250cd02bae35117599241b8eb0121027fc393dfde3a65361a111c96b3ad85d28d2efbc4fbb331d83b18e4cef8043e7d00000000"
}