{
  "txid": "5331ff0a363d439bb81d4dd948dfee657c3c574802b6121688f18a8adf22374f",
  "version": 2,
  "locktime": 0,
  "vin": [
    {
      "txid": "039faf677779466d239003b526d53eff1929d70e7dda3f4f545b6df7efeeff2c",
      "vout": 1,
      "prevout": {
        "scriptpubkey": "0014e0145df166b20db925a3f7492889a5eb5ff6d363",
        "scriptpubkey_asm": "OP_0 OP_PUSHBYTES_20 e0145df166b20db925a3f7492889a5eb5ff6d363",
        "scriptpubkey_type": "v0_p2wpkh",
        "scriptpubkey_address": "bc1quq29mutxkgxmjfdr7ayj3zd9ad0ld5mrhh89l2",
        "value": 692088
      },
      "scriptsig": "",
      "scriptsig_asm": "",
      "witness": [
        "3044022070f0b36c116eadaabb39c42c97a179d3b8937bd8d346fdce9a7f4c9014e128c802203d44d8eb0713cc486a36aff1cba5fa78f3d4cb66d0da37a8ae776079fe220b1c01",
        "029c73c9de8db31bd1e6c27b8e0f83f7caf385f4d83b37912b8aa8ab23e047d9cb"
      ],
      "is_coinbase": false,
      "sequence": 4294967295
    },
    {
      "txid": "8c2c226dc107c7f895c38c8eb41834303dcc3e4ab036fb3594f42af71fa60934",
      "vout": 0,
      "prevout": {
        "scriptpubkey": "001488f7ed0d26380bee19c5105d0ed03897fdbe9917",
        "scriptpubkey_asm": "OP_0 OP_PUSHBYTES_20 88f7ed0d26380bee19c5105d0ed03897fdbe9917",
        "scriptpubkey_type": "v0_p2wpkh",
        "scriptpubkey_address": "bc1q3rm76rfx8q97uxw9zpwsa5pcjl7maxghu8j0jg",
        "value": 718305
      },
      "scriptsig": "",
      "scriptsig_asm": "",
      "witness": [
        "304402202e00c32393a5022f191c08f5d2154bb392f7d714f1af0f111e6791a0a7bbb8db02204a2047926bf17fa28d23f74eb7309a3afc8e5e358cebb44daff6ec342d1901f701",
        "024dd45b32981a8ffdb49701d910bed750efb0a7043dd9b7aa21615665636828d9"
      ],
      "is_coinbase": false,
      "sequence": 4294967295
    }
  ],
  "vout": [
    {
      "scriptpubkey": "0014c73479c2e1b9e6ea0edd04e584bc854461dad42e",
      "scriptpubkey_asm": "OP_0 OP_PUSHBYTES_20 c73479c2e1b9e6ea0edd04e584bc854461dad42e",
      "scriptpubkey_type": "v0_p2wpkh",
      "scriptpubkey_address": "bc1qcu68nshph8nw5rkaqnjcf0y9g3sa44pws8e7jt",
      "value": 131539
    },
    {
      "scriptpubkey": "0014e0145df166b20db925a3f7492889a5eb5ff6d363",
      "scriptpubkey_asm": "OP_0 OP_PUSHBYTES_20 e0145df166b20db925a3f7492889a5eb5ff6d363",
      "scriptpubkey_type": "v0_p2wpkh",
      "scriptpubkey_address": "bc1quq29mutxkgxmjfdr7ayj3zd9ad0ld5mrhh89l2",
      "value": 1272375
    }
  ],
  "size": 370,
  "weight": 832,
  "fee": 6479,
  "status": {
    "confirmed": true,
    "block_height": 834638,
    "block_hash": "000000000000000000025f742c626208ac87e0b7d15054abb4a19ca2d735a54e",
    "block_time": 1710405325
  },
  "hex": "020000000001022cffeeeff76d5b544f3fda7d0ed72919ff3ed526b50390236d46797767af9f030100000000ffffffff3409a61ff72af49435fb36b04a3ecc3d303418b48e8cc395f8c707c16d222c8c0000000000ffffffff02d301020000000000160014c73479c2e1b9e6ea0edd04e584bc854461dad42e376a130000000000160014e0145df166b20db925a3f7492889a5eb5ff6d36302473044022070f0b36c116eadaabb39c42c97a179d3b8937bd8d346fdce9a7f4c9014e128c802203d44d8eb0713cc486a36aff1cba5fa78f3d4cb66d0da37a8ae776079fe220b1c0121029c73c9de8db31bd1e6c27b8e0f83f7caf385f4d83b37912b8aa8ab23e047d9cb0247304402202e00c32393a5022f191c08f5d2154bb392f7d714f1af0f111e6791a0a7bbb8db02204a2047926bf17fa28d23f74eb7309a3afc8e5e358cebb44daff6ec342d1901f70121024dd45b32981a8ffdb49701d910bed750efb0a7043dd9b7aa21615665636828d900000000"
}