{
  "txid": "53367c9fb5e503dc2a026bb2f32ffc3d83d594cd35b5489c75a71c1bf0b5576f",
  "version": 2,
  "locktime": 0,
  "vin": [
    {
      "txid": "d853538c0accf674097468ccb0ecdfdb28bf7ba8393bc6f44843cea0d73075d8",
      "vout": 0,
      "prevout": {
        "scriptpubkey": "0014c046688d98de44a0528ed8a9a4efde1edfb65554",
        "scriptpubkey_asm": "OP_0 OP_PUSHBYTES_20 c046688d98de44a0528ed8a9a4efde1edfb65554",
        "scriptpubkey_type": "v0_p2wpkh",
        "scriptpubkey_address": "bc1qcprx3rvcmez2q55wmz56fm77rm0mv425dpmz29",
        "value": 6843
      },
      "scriptsig": "",
      "scriptsig_asm": "",
      "witness": [
        "304402206dfaeed503732310aab0843ecc5c6267bf15241780118c9ec4ec759794f358d9022044cd9045f3c6b1510e3ac4329cc7a6fa18fd6de4a98f90209a56eb40941baf4501",
        "03b47b4403ff1dac7d60c706f840d8650ae77b7b1b7e4eed7acba9c41da49d8216"
      ],
      "is_coinbase": false,
      "sequence": 4294967293
    },
    {
      "txid": "c728cee34c78eadd9729377043edf85afeeeb38db53c841e392b8ae8ba540440",
      "vout": 0,
      "prevout": {
        "scriptpubkey": "0014c046688d98de44a0528ed8a9a4efde1edfb65554",
        "scriptpubkey_asm": "OP_0 OP_PUSHBYTES_20 c046688d98de44a0528ed8a9a4efde1edfb65554",
        "scriptpubkey_type": "v0_p2wpkh",
        "scriptpubkey_address": "bc1qcprx3rvcmez2q55wmz56fm77rm0mv425dpmz29",
        "value": 2429
      },
      "scriptsig": "",
      "scriptsig_asm": "",
      "witness": [
        "3045022100b872f4ac28214ad03e0d7d800accb05f9b908e6a25fb9f4658141881f18d86a702201a2577da7d24ee1e5d8ec2e1ff798732ee02e152367074ca84907eb1b65573c301",
        "03b47b4403ff1dac7d60c706f840d8650ae77b7b1b7e4eed7acba9c41da49d8216"
      ],
      "is_coinbase": false,
      "sequence": 4294967293
    },
    {
      "txid": "e3e46f296a3aef364fe19267d400762498f19b44e16c1b7834198853e4f44548",
      "vout": 1,
      "prevout": {
        "scriptpubkey": "0014c046688d98de44a0528ed8a9a4efde1edfb65554",
        "scriptpubkey_asm": "OP_0 OP_PUSHBYTES_20 c046688d98de44a0528ed8a9a4efde1edfb65554",
        "scriptpubkey_type": "v0_p2wpkh",
        "scriptpubkey_address": "bc1qcprx3rvcmez2q55wmz56fm77rm0mv425dpmz29",
        "value": 2043
      },
      "scriptsig": "",
      "scriptsig_asm": "",
      "witness": [
        "3045022100874f7fe2680709ce1a18319785d9160e8864668b912f795e1e2b17edfcf0a06302202bf44493503fdc23002a628f501647c061287b3f13a5c5ad2615a1dbfe0a28c001",
        "03b47b4403ff1dac7d60c706f840d8650ae77b7b1b7e4eed7acba9c41da49d8216"
      ],
      "is_coinbase": false,
      "sequence": 4294967293
    }
  ],
  "vout": [
    {
      "scriptpubkey": "a914b0be3cf7c9a9c30e8c71d6e84515fa60aeddf2ab87",
      "scriptpubkey_asm": "OP_HASH160 OP_PUSHBYTES_20 b0be3cf7c9a9c30e8c71d6e84515fa60aeddf2ab OP_EQUAL",
      "scriptpubkey_type": "p2sh",
      "scriptpubkey_address": "3HoYkHU1qMth8WysH8p3ZQ3BfgxG8E2SsN",
      "value": 790
    },
    {
      "scriptpubkey": "51210306e42b0dc5050ed0ceaf509aa0b96245ae097415686dbcb9c07330d3cc38860021022f54aacb10a7f40b4dc006e0f462998a8e316345bcb8cc492cb2b928d2e79c002102020202020202020202020202020202020202020202020202020202020202020253ae",
      "scriptpubkey_asm": "OP_PUSHNUM_1 OP_PUSHBYTES_33 0306e42b0dc5050ed0ceaf509aa0b96245ae097415686dbcb9c07330d3cc388600 OP_PUSHBYTES_33 022f54aacb10a7f40b4dc006e0f462998a8e316345bcb8cc492cb2b928d2e79c00 OP_PUSHBYTES_33 020202020202020202020202020202020202020202020202020202020202020202 OP_PUSHNUM_3 OP_CHECKMULTISIG",
      "scriptpubkey_type": "unknown",
      "value": 790
    },
    {
      "scriptpubkey": "5121038b854f81702d2f0c7cf5fbbd85526cd73de49c3a4fe4e8838197b40f3f181f002102fff13bcb214d914075304aa9299ddd57c23c658c6705ee1a17ff9f07b9b8f6002102020202020202020202020202020202020202020202020202020202020202020253ae",
      "scriptpubkey_asm": "OP_PUSHNUM_1 OP_PUSHBYTES_33 038b854f81702d2f0c7cf5fbbd85526cd73de49c3a4fe4e8838197b40f3f181f00 OP_PUSHBYTES_33 02fff13bcb214d914075304aa9299ddd57c23c658c6705ee1a17ff9f07b9b8f600 OP_PUSHBYTES_33 020202020202020202020202020202020202020202020202020202020202020202 OP_PUSHNUM_3 OP_CHECKMULTISIG",
      "scriptpubkey_type": "unknown",
      "value": 790
    }
  ],
  "size": 718,
  "weight": 1897,
  "fee": 8945,
  "status": {
    "confirmed": true,
    "block_height": 834464,
    "block_hash": "0000000000000000000177a0869a911a2b65c9bdcd5a8bcb02b68f305bee848e",
    "block_time": 1710308296
  },
  "hex": "02000000000103d87530d7a0ce4348f4c63b39a87bbf28dbdfecb0cc68740974f6cc0a8c5353d80000000000fdffffff400454bae88a2b391e843cb58db3eefe5af8ed4370372997ddea784ce3ce28c70000000000fdffffff4845f4e453881934781b6ce1449bf198247600d46792e14f36ef3a6a296fe4e30100000000fdffffff03160300000000000017a914b0be3cf7c9a9c30e8c71d6e84515fa60aeddf2ab8716030000000000006951210306e42b0dc5050ed0ceaf509aa0b96245ae097415686dbcb9c07330d3cc38860021022f54aacb10a7f40b4dc006e0f462998a8e316345bcb8cc492cb2b928d2e79c002102020202020202020202020202020202020202020202020202020202020202020253ae1603000000000000695121038b854f81702d2f0c7cf5fbbd85526cd73de49c3a4fe4e8838197b40f3f181f002102fff13bcb214d914075304aa9299ddd57c23c658c6705ee1a17ff9f07b9b8f6002102020202020202020202020202020202020202020202020202020202020202020253ae0247304402206dfaeed503732310aab0843ecc5c6267bf15241780118c9ec4ec759794f358d9022044cd9045f3c6b1510e3ac4329cc7a6fa18fd6de4a98f90209a56eb40941baf45012103b47b4403ff1dac7d60c706f840d8650ae77b7b1b7e4eed7acba9c41da49d821602483045022100b872f4ac28214ad03e0d7d800accb05f9b908e6a25fb9f4658141881f18d86a702201a2577da7d24ee1e5d8ec2e1ff798732ee02e152367074ca84907eb1b65573c3012103b47b4403ff1dac7d60c706f840d8650ae77b7b1b7e4eed7acba9c41da49d821602483045022100874f7fe2680709ce1a18319785d9160e8864668b912f795e1e2b17edfcf0a06302202bf44493503fdc23002a628f501647c061287b3f13a5c5ad2615a1dbfe0a28c0012103b47b4403ff1dac7d60c706f840d8650ae77b7b1b7e4eed7acba9c41da49d821600000000"
}