{
  "txid": "533af69d70a896c05386d68233d0b4f628e410aeba52b30c95c7c1a5e821fd96",
  "version": 2,
  "locktime": 0,
  "vin": [
    {
      "txid": "c6d467c0c78df871cb8aded57a8afdd5354df8ff7bca8a0feff022e645542afa",
      "vout": 0,
      "prevout": {
        "scriptpubkey": "00143fd5e368798ca6ed9609323fc04d26c650cd8e59",
        "scriptpubkey_asm": "OP_0 OP_PUSHBYTES_20 3fd5e368798ca6ed9609323fc04d26c650cd8e59",
        "scriptpubkey_type": "v0_p2wpkh",
        "scriptpubkey_address": "bc1q8l27x6re3jnwm9sfxgluqnfxcegvmrjejd9nxa",
        "value": 5664406
      },
      "scriptsig": "",
      "scriptsig_asm": "",
      "witness": [
        "3044022016d74c7675a7ec142d85778bac0236867eb991bcf02045fc84843cdf75eb8a45022069d1c684949f8352481f4efd735e8cd2682b03ad338a97b2caee9eb6cf3f2ea401",
        "023b9d3023d4617cbb8053a608c1eab052667b236dafd802c9e5c93945ccae7348"
      ],
      "is_coinbase": false,
      "sequence": 4294967293
    },
    {
      "txid": "e4d5d333dcee6017d374ca928faeb21d75084a61758901041b6b02dfc19fd2b9",
      "vout": 0,
      "prevout": {
        "scriptpubkey": "00140c041ca805b79e051af9157c1de2f5d19174640c",
        "scriptpubkey_asm": "OP_0 OP_PUSHBYTES_20 0c041ca805b79e051af9157c1de2f5d19174640c",
        "scriptpubkey_type": "v0_p2wpkh",
        "scriptpubkey_address": "bc1qpszpe2q9k70q2xhez47pmch46xghgeqvqseaar",
        "value": 677512
      },
      "scriptsig": "",
      "scriptsig_asm": "",
      "witness": [
        "3045022100babc080a431b8c4ee10bb23322e890e5fb0818d126da882049a494e3540c74cb02204dd57b306c95abd5f5c1ef705da6c35064979925e7e157b24d16d456035f672401",
        "0218193372191ed1df01d42cf715ae4b97877eecae375b967512524f0c975ccd3d"
      ],
      "is_coinbase": false,
      "sequence": 4294967293
    }
  ],
  "vout": [
    {
      "scriptpubkey": "a9148e1f68faf1662d899004dde9e4e9649b1f03ce3587",
      "scriptpubkey_asm": "OP_HASH160 OP_PUSHBYTES_20 8e1f68faf1662d899004dde9e4e9649b1f03ce35 OP_EQUAL",
      "scriptpubkey_type": "p2sh",
      "scriptpubkey_address": "3EeVWCDdyBpov7sgiHhcWkB4uYZeFFBgvg",
      "value": 2410586
    },
    {
      "scriptpubkey": "a9140ad1c3f6e0883069234737399808f535d584100f87",
      "scriptpubkey_asm": "OP_HASH160 OP_PUSHBYTES_20 0ad1c3f6e0883069234737399808f535d584100f OP_EQUAL",
      "scriptpubkey_type": "p2sh",
      "scriptpubkey_address": "32gDyDvBqCUioC552hEr87ZFNszmjGogcV",
      "value": 154526
    },
    {
      "scriptpubkey": "0014f403ac3b8ffbfbc8b69603be9a5b30e97455afad",
      "scriptpubkey_asm": "OP_0 OP_PUSHBYTES_20 f403ac3b8ffbfbc8b69603be9a5b30e97455afad",
      "scriptpubkey_type": "v0_p2wpkh",
      "scriptpubkey_address": "bc1q7sp6cwu0l0au3d5kqwlf5kesa969ttadft4dl0",
      "value": 3772289
    }
  ],
  "size": 404,
  "weight": 965,
  "fee": 4517,
  "status": {
    "confirmed": true,
    "block_height": 834638,
    "block_hash": "000000000000000000025f742c626208ac87e0b7d15054abb4a19ca2d735a54e",
    "block_time": 1710405325
  },
  "hex": "02000000000102fa2a5445e622f0ef0f8aca7bfff84d35d5fd8a7ad5de8acb71f88dc7c067d4c60000000000fdffffffb9d29fc1df026b1b04018975614a08751db2ae8f92ca74d31760eedc33d3d5e40000000000fdffffff035ac824000000000017a9148e1f68faf1662d899004dde9e4e9649b1f03ce35879e5b02000000000017a9140ad1c3f6e0883069234737399808f535d584100f87818f390000000000160014f403ac3b8ffbfbc8b69603be9a5b30e97455afad02473044022016d74c7675a7ec142d85778bac0236867eb991bcf02045fc84843cdf75eb8a45022069d1c684949f8352481f4efd735e8cd2682b03ad338a97b2caee9eb6cf3f2ea40121023b9d3023d4617cbb8053a608c1eab052667b236dafd802c9e5c93945ccae734802483045022100babc080a431b8c4ee10bb23322e890e5fb0818d126da882049a494e3540c74cb02204dd57b306c95abd5f5c1ef705da6c35064979925e7e157b24d16d456035f672401210218193372191ed1df01d42cf715ae4b97877eecae375b967512524f0c975ccd3d00000000"
}