{
  "txid": "533fd3ba1a5b372c6549d73b4515e239cae5bb50b2f67be197fe41b9e6b69b8d",
  "version": 2,
  "locktime": 834458,
  "vin": [
    {
      "txid": "3bad0062a2243f0027f709cb09175cc0e34dd31681f0b76fd8cfce53930bfd6f",
      "vout": 10,
      "prevout": {
        "scriptpubkey": "0014b40f3ac60e56fd7a587526af68194598e7d905c5",
        "scriptpubkey_asm": "OP_0 OP_PUSHBYTES_20 b40f3ac60e56fd7a587526af68194598e7d905c5",
        "scriptpubkey_type": "v0_p2wpkh",
        "scriptpubkey_address": "bc1qks8n43sw2m7h5kr4y6hksx29nrnajpw9puph2e",
        "value": 86286971
      },
      "scriptsig": "",
      "scriptsig_asm": "",
      "witness": [
        "304402207b953c4c4d6f37ab3cf356f4dd82095aa7202c3288ba74e6fe2af801a350f94802201a462045273577d35657c4c7f9b051d1d2c3d3315408235b0e0d1b6b200e794a01",
        "02c665a48c6b43e10a8016b01d39d03684621338fd9a16ece76396dfb56dfdc791"
      ],
      "is_coinbase": false,
      "sequence": 4294967293
    }
  ],
  "vout": [
    {
      "scriptpubkey": "001406133fa47f149cb1823280ebe5558b3f3177371f",
      "scriptpubkey_asm": "OP_0 OP_PUSHBYTES_20 06133fa47f149cb1823280ebe5558b3f3177371f",
      "scriptpubkey_type": "v0_p2wpkh",
      "scriptpubkey_address": "bc1qqcfnlfrlzjwtrq3jsr4724vt8uchwdcl47rdsu",
      "value": 66136
    },
    {
      "scriptpubkey": "0014003447c2978ebad31c248a76d4db8374d1669d4a",
      "scriptpubkey_asm": "OP_0 OP_PUSHBYTES_20 003447c2978ebad31c248a76d4db8374d1669d4a",
      "scriptpubkey_type": "v0_p2wpkh",
      "scriptpubkey_address": "bc1qqq6y0s5h36adx8py3fmdfkurwngkd822rf5dcv",
      "value": 251037
    },
    {
      "scriptpubkey": "00141c6b5a0ccefc4306214018065d7457880c4e2bee",
      "scriptpubkey_asm": "OP_0 OP_PUSHBYTES_20 1c6b5a0ccefc4306214018065d7457880c4e2bee",
      "scriptpubkey_type": "v0_p2wpkh",
      "scriptpubkey_address": "bc1qr3445rxwl3psvg2qrqr96azh3qxyu2lwjjq8gx",
      "value": 753472
    },
    {
      "scriptpubkey": "0014279e8a04ce854776aa325d8e56002a87e1337f2a",
      "scriptpubkey_asm": "OP_0 OP_PUSHBYTES_20 279e8a04ce854776aa325d8e56002a87e1337f2a",
      "scriptpubkey_type": "v0_p2wpkh",
      "scriptpubkey_address": "bc1qy70g5pxws4rhd23jtk89vqp2slsnxle257cjdw",
      "value": 85213686
    }
  ],
  "size": 284,
  "weight": 809,
  "fee": 2640,
  "status": {
    "confirmed": true,
    "block_height": 834460,
    "block_hash": "00000000000000000000484a79b643b2524bbce82e5d8a442013fa5b8905ed98",
    "block_time": 1710307468
  },
  "hex": "020000000001016ffd0b9353cecfd86fb7f08116d34de3c05c1709cb09f727003f24a26200ad3b0a00000000fdffffff04580201000000000016001406133fa47f149cb1823280ebe5558b3f3177371f9dd4030000000000160014003447c2978ebad31c248a76d4db8374d1669d4a407f0b00000000001600141c6b5a0ccefc4306214018065d7457880c4e2beef641140500000000160014279e8a04ce854776aa325d8e56002a87e1337f2a0247304402207b953c4c4d6f37ab3cf356f4dd82095aa7202c3288ba74e6fe2af801a350f94802201a462045273577d35657c4c7f9b051d1d2c3d3315408235b0e0d1b6b200e794a012102c665a48c6b43e10a8016b01d39d03684621338fd9a16ece76396dfb56dfdc7919abb0c00"
}