{
  "txid": "534c82fadcc43b12e6d3378ae798047cf909000b3017a24b769903f5b7daa807",
  "version": 2,
  "locktime": 0,
  "vin": [
    {
      "txid": "65a4eff69fbf97128816534c40cbd3e4bc4eb1559d9cb314dad354a55661c03f",
      "vout": 0,
      "prevout": {
        "scriptpubkey": "5120a5d2ff64e7ea628feda65c5746b2b98c3ab8df872c311f26402fcdd88f2bb73f",
        "scriptpubkey_asm": "OP_PUSHNUM_1 OP_PUSHBYTES_32 a5d2ff64e7ea628feda65c5746b2b98c3ab8df872c311f26402fcdd88f2bb73f",
        "scriptpubkey_type": "v1_p2tr",
        "scriptpubkey_address": "bc1p5hf07e88af3glmdxt3t5dv4e3sat3hu89sc37fjq9lxa3retkulsljjxxp",
        "value": 5000
      },
      "scriptsig": "",
      "scriptsig_asm": "",
      "witness": [
        "c51948f8becdd76a972f65ade2c8d51a01ab956c6247416839a8f2abdc2e6a614182e6a918f8eff4e076da4688ca6f1f9233abbf386cc7368fba2d8dbbc70d77",
        "2012e70b9cae31e915f86431e978ebaaf79c56193a74f6ff6df5246e25fb740495ac0063036f7264010118746578742f706c61696e3b636861727365743d7574662d3800387b2270223a226272632d3230222c226f70223a227472616e73666572222c227469636b223a224e455755222c22616d74223a22323030227d68",
        "c09e88c8e3ef5020ae19d259ea116f534abae3ad5b49e7975d988e768fecb4c048"
      ],
      "is_coinbase": false,
      "sequence": 4294967293
    }
  ],
  "vout": [
    {
      "scriptpubkey": "51200d93e5e7233c54d49e9e880e2d2986f7836c95bb0de0920465f31ce30ea31192",
      "scriptpubkey_asm": "OP_PUSHNUM_1 OP_PUSHBYTES_32 0d93e5e7233c54d49e9e880e2d2986f7836c95bb0de0920465f31ce30ea31192",
      "scriptpubkey_type": "v1_p2tr",
      "scriptpubkey_address": "bc1ppkf7teer832df8573q8z62vx77pke9dmphsfypr97vwwxr4rzxfqf0mh73",
      "value": 330
    },
    {
      "scriptpubkey": "00147396a693f12be00410dbdc448c07fe2a22f50bab",
      "scriptpubkey_asm": "OP_0 OP_PUSHBYTES_20 7396a693f12be00410dbdc448c07fe2a22f50bab",
      "scriptpubkey_type": "v0_p2wpkh",
      "scriptpubkey_address": "bc1qwwt2dyl390sqgyxmm3zgcpl79g302zat9kpl7a",
      "value": 1742
    }
  ],
  "size": 354,
  "weight": 729,
  "fee": 2928,
  "status": {
    "confirmed": true,
    "block_height": 834638,
    "block_hash": "000000000000000000025f742c626208ac87e0b7d15054abb4a19ca2d735a54e",
    "block_time": 1710405325
  },
  "hex": "020000000001013fc06156a554d3da14b39c9d55b14ebce4d3cb404c5316881297bf9ff6efa4650000000000fdffffff024a010000000000002251200d93e5e7233c54d49e9e880e2d2986f7836c95bb0de0920465f31ce30ea31192ce060000000000001600147396a693f12be00410dbdc448c07fe2a22f50bab0340c51948f8becdd76a972f65ade2c8d51a01ab956c6247416839a8f2abdc2e6a614182e6a918f8eff4e076da4688ca6f1f9233abbf386cc7368fba2d8dbbc70d777e2012e70b9cae31e915f86431e978ebaaf79c56193a74f6ff6df5246e25fb740495ac0063036f7264010118746578742f706c61696e3b636861727365743d7574662d3800387b2270223a226272632d3230222c226f70223a227472616e73666572222c227469636b223a224e455755222c22616d74223a22323030227d6821c09e88c8e3ef5020ae19d259ea116f534abae3ad5b49e7975d988e768fecb4c04800000000"
}