{
  "txid": "5374b3db0a4f199f500535e40445c76e9e0b106493c1c339d21b004caa13fa81",
  "version": 1,
  "locktime": 0,
  "vin": [
    {
      "txid": "ac235bcfe412fe1e434d3b1c03e1e88ca91f1a0fd132008084eb941589f5bac8",
      "vout": 23,
      "prevout": {
        "scriptpubkey": "51208fbb31a145d71862f6c5648edf4e4434046706eb64c2985b0a6ba63af0e3ea9a",
        "scriptpubkey_asm": "OP_PUSHNUM_1 OP_PUSHBYTES_32 8fbb31a145d71862f6c5648edf4e4434046706eb64c2985b0a6ba63af0e3ea9a",
        "scriptpubkey_type": "v1_p2tr",
        "scriptpubkey_address": "bc1p37anrg296uvx9ak9vj8d7njyxszxwphtvnpfskc2dwnr4u8ra2dqc54a5x",
        "value": 14000
      },
      "scriptsig": "",
      "scriptsig_asm": "",
      "witness": [
        "b816ace6a460152c00be39fc5345e6b176a908bf6bbfa47094232a232a1027a6dc1d0d9452043b0e478556f059df17d8da21f5334cb95c35a6836ad7ce64a4c1"
      ],
      "is_coinbase": false,
      "sequence": 4294967293
    }
  ],
  "vout": [
    {
      "scriptpubkey": "51208200a5b47b2965b6cd5aa8955e64c4323a2140adcf16cf3ddb4e0edc7511ae96",
      "scriptpubkey_asm": "OP_PUSHNUM_1 OP_PUSHBYTES_32 8200a5b47b2965b6cd5aa8955e64c4323a2140adcf16cf3ddb4e0edc7511ae96",
      "scriptpubkey_type": "v1_p2tr",
      "scriptpubkey_address": "bc1psgq2tdrm99jmdn264z24uexyxgazzs9deutv70wmfc8dcag346tqa5sx9z",
      "value": 2196
    },
    {
      "scriptpubkey": "5120f667578b85bed256c7fcb9f2cda488d5281e52ca42e7dd4bc21e95149562f09f",
      "scriptpubkey_asm": "OP_PUSHNUM_1 OP_PUSHBYTES_32 f667578b85bed256c7fcb9f2cda488d5281e52ca42e7dd4bc21e95149562f09f",
      "scriptpubkey_type": "v1_p2tr",
      "scriptpubkey_address": "bc1p7en40zu9hmf9d3luh8evmfyg655pu5k2gtna6j7zr623f9tz7z0stfnwav",
      "value": 2106
    },
    {
      "scriptpubkey": "51208fbb31a145d71862f6c5648edf4e4434046706eb64c2985b0a6ba63af0e3ea9a",
      "scriptpubkey_asm": "OP_PUSHNUM_1 OP_PUSHBYTES_32 8fbb31a145d71862f6c5648edf4e4434046706eb64c2985b0a6ba63af0e3ea9a",
      "scriptpubkey_type": "v1_p2tr",
      "scriptpubkey_address": "bc1p37anrg296uvx9ak9vj8d7njyxszxwphtvnpfskc2dwnr4u8ra2dqc54a5x",
      "value": 7520
    }
  ],
  "size": 248,
  "weight": 788,
  "fee": 2178,
  "status": {
    "confirmed": true,
    "block_height": 834460,
    "block_hash": "00000000000000000000484a79b643b2524bbce82e5d8a442013fa5b8905ed98",
    "block_time": 1710307468
  },
  "hex": "01000000000101c8baf5891594eb84800032d10f1a1fa98ce8e1031c3b4d431efe12e4cf5b23ac1700000000fdffffff0394080000000000002251208200a5b47b2965b6cd5aa8955e64c4323a2140adcf16cf3ddb4e0edc7511ae963a08000000000000225120f667578b85bed256c7fcb9f2cda488d5281e52ca42e7dd4bc21e95149562f09f601d0000000000002251208fbb31a145d71862f6c5648edf4e4434046706eb64c2985b0a6ba63af0e3ea9a0140b816ace6a460152c00be39fc5345e6b176a908bf6bbfa47094232a232a1027a6dc1d0d9452043b0e478556f059df17d8da21f5334cb95c35a6836ad7ce64a4c100000000"
}