{
  "txid": "5376f51ca5512fbae641a8fca0590d4f8fc4d0968c0956e3fab8243a849d2c98",
  "version": 1,
  "locktime": 0,
  "vin": [
    {
      "txid": "263c75c5b17e26a4ab6ee869bbd86d12f3a9da5e3de1dfa4fdcc76e62264cc31",
      "vout": 0,
      "prevout": {
        "scriptpubkey": "002095582e90165f3591484cdbef7f48975d6f733d382ab358538e61c9d48a0da87d",
        "scriptpubkey_asm": "OP_0 OP_PUSHBYTES_32 95582e90165f3591484cdbef7f48975d6f733d382ab358538e61c9d48a0da87d",
        "scriptpubkey_type": "v0_p2wsh",
        "scriptpubkey_address": "bc1qj4vzayqktu6ezjzvm0hh7jyht4hhx0fc92e4s5uwv8yafzsd4p7sz6y0l5",
        "value": 1043587
      },
      "scriptsig": "",
      "scriptsig_asm": "",
      "witness": [
        "",
        "3044022037421b71082a7bc8bcd4ae1958b9d67983780e7be1e5aa460166ba06a725d03a02207b31b7dabeb3acec5f41909e8107295034939090204a3ad9f76419bf726682e201",
        "3044022038775144c2fb05b49f8bccc4a68f865aee719c0a7d2ae7de1827454530c3e4420220741282bff3c76c3d91f28645848489bb9bd8ee60901a50728226d4b5c664732301",
        "522102e977833ee6c17a3e17ef0c5f93278b4a307c8c82bbf5d99ad66ffc5fead333bd2103e7c7edd04a85f351395bd21dbb233fae341052624882e6fc935b009d1fcd9e3d52ae"
      ],
      "is_coinbase": false,
      "sequence": 4294967295,
      "inner_witnessscript_asm": "OP_PUSHNUM_2 OP_PUSHBYTES_33 02e977833ee6c17a3e17ef0c5f93278b4a307c8c82bbf5d99ad66ffc5fead333bd OP_PUSHBYTES_33 03e7c7edd04a85f351395bd21dbb233fae341052624882e6fc935b009d1fcd9e3d OP_PUSHNUM_2 OP_CHECKMULTISIG"
    }
  ],
  "vout": [
    {
      "scriptpubkey": "5120cbeb42825010be559986780080ca75d7d93f893a4323fe4a802ed4a3a0b58d78",
      "scriptpubkey_asm": "OP_PUSHNUM_1 OP_PUSHBYTES_32 cbeb42825010be559986780080ca75d7d93f893a4323fe4a802ed4a3a0b58d78",
      "scriptpubkey_type": "v1_p2tr",
      "scriptpubkey_address": "bc1pe0459qjszzl9txvx0qqgpjn46lvnlzf6gv3luj5q9m228g9434uq4en25a",
      "value": 1027104
    },
    {
      "scriptpubkey": "0020010c5640988a39abe21fe4950e598bcd96780a1c59c1ec7717dc3db921f1beaf",
      "scriptpubkey_asm": "OP_0 OP_PUSHBYTES_32 010c5640988a39abe21fe4950e598bcd96780a1c59c1ec7717dc3db921f1beaf",
      "scriptpubkey_type": "v0_p2wsh",
      "scriptpubkey_address": "bc1qqyx9vsyc3gu6hcsluj2sukvtekt8szsut8q7cachms7mjg03h6hs8u0ll8",
      "value": 14391
    }
  ],
  "size": 357,
  "weight": 768,
  "fee": 2092,
  "status": {
    "confirmed": true,
    "block_height": 834464,
    "block_hash": "0000000000000000000177a0869a911a2b65c9bdcd5a8bcb02b68f305bee848e",
    "block_time": 1710308296
  },
  "hex": "0100000000010131cc6422e676ccfda4dfe13d5edaa9f3126dd8bb69e86eaba4267eb1c5753c260000000000ffffffff0220ac0f0000000000225120cbeb42825010be559986780080ca75d7d93f893a4323fe4a802ed4a3a0b58d783738000000000000220020010c5640988a39abe21fe4950e598bcd96780a1c59c1ec7717dc3db921f1beaf0400473044022037421b71082a7bc8bcd4ae1958b9d67983780e7be1e5aa460166ba06a725d03a02207b31b7dabeb3acec5f41909e8107295034939090204a3ad9f76419bf726682e201473044022038775144c2fb05b49f8bccc4a68f865aee719c0a7d2ae7de1827454530c3e4420220741282bff3c76c3d91f28645848489bb9bd8ee60901a50728226d4b5c66473230147522102e977833ee6c17a3e17ef0c5f93278b4a307c8c82bbf5d99ad66ffc5fead333bd2103e7c7edd04a85f351395bd21dbb233fae341052624882e6fc935b009d1fcd9e3d52ae00000000"
}