{
  "txid": "537c5fb3a61cf78d62951194a1c039402c146eb34eeee1a08771bf178fc8bff5",
  "version": 2,
  "locktime": 0,
  "vin": [
    {
      "txid": "c10e48caeee8756d57fbce0e4f26c1d08bb9f0d4a35c2d26269682da8df04dac",
      "vout": 50,
      "prevout": {
        "scriptpubkey": "5120b78302e39eb587b0e8b9aa30122c21132deeb12c5d4c6d43311ecec0807e8478",
        "scriptpubkey_asm": "OP_PUSHNUM_1 OP_PUSHBYTES_32 b78302e39eb587b0e8b9aa30122c21132deeb12c5d4c6d43311ecec0807e8478",
        "scriptpubkey_type": "v1_p2tr",
        "scriptpubkey_address": "bc1pk7ps9cu7kkrmp69e4gcpytppzvk7avfvt4xx6se3rm8vpqr7s3uqgx6l4v",
        "value": 3634
      },
      "scriptsig": "",
      "scriptsig_asm": "",
      "witness": [
        "6f9c930e59822312596df9af57376e1c508f853153a21775d525d8594c607d576ab05324fc2568f527b450a6a1454860e3748f7741d86196dd7c5e4bf1046320",
        "20cdd3046a70147fcc92b80e335c055c4806ce401d5d6f506fb66eef919a6ad9bcac0063036f726401011e6170706c69636174696f6e2f6a736f6e3b636861727365743d7574662d38004cd37b2270223a22706f772d3230222c226f70223a226d696e74222c227469636b223a2250455045222c22616d74223a2231303030222c22736f6c7574696f6e223a22504550453a6263317071336e67663775716e73667434706d37357236397371616c6c30637068747278677773757a6d657864356c337039333566366d713666337664383a303030303030303030303030303030303030303139393431613561653132383937363539383134343239323533333030353762306461393666336465613163353a3238343736333132323739227d68",
        "c0406c0f2a67700582b42f36a71eb03478d57ba1acdc179ee1ec758acb282de3fd"
      ],
      "is_coinbase": false,
      "sequence": 4294967295
    }
  ],
  "vout": [
    {
      "scriptpubkey": "5120046684fb809c12ba877ea0f45803bffbf01bac6643a1c16f266d3f1096344eb6",
      "scriptpubkey_asm": "OP_PUSHNUM_1 OP_PUSHBYTES_32 046684fb809c12ba877ea0f45803bffbf01bac6643a1c16f266d3f1096344eb6",
      "scriptpubkey_type": "v1_p2tr",
      "scriptpubkey_address": "bc1pq3ngf7uqnsft4pm75r69sqall0cphtrxgwsuzmexd5l3p935f6mq6f3vd8",
      "value": 546
    }
  ],
  "size": 487,
  "weight": 769,
  "fee": 3088,
  "status": {
    "confirmed": true,
    "block_height": 834460,
    "block_hash": "00000000000000000000484a79b643b2524bbce82e5d8a442013fa5b8905ed98",
    "block_time": 1710307468
  },
  "hex": "02000000000101ac4df08dda829626262d5ca3d4f0b98bd0c1264f0ecefb576d75e8eeca480ec13200000000ffffffff012202000000000000225120046684fb809c12ba877ea0f45803bffbf01bac6643a1c16f266d3f1096344eb603406f9c930e59822312596df9af57376e1c508f853153a21775d525d8594c607d576ab05324fc2568f527b450a6a1454860e3748f7741d86196dd7c5e4bf1046320fd200120cdd3046a70147fcc92b80e335c055c4806ce401d5d6f506fb66eef919a6ad9bcac0063036f726401011e6170706c69636174696f6e2f6a736f6e3b636861727365743d7574662d38004cd37b2270223a22706f772d3230222c226f70223a226d696e74222c227469636b223a2250455045222c22616d74223a2231303030222c22736f6c7574696f6e223a22504550453a6263317071336e67663775716e73667434706d37357236397371616c6c30637068747278677773757a6d657864356c337039333566366d713666337664383a303030303030303030303030303030303030303139393431613561653132383937363539383134343239323533333030353762306461393666336465613163353a3238343736333132323739227d6821c0406c0f2a67700582b42f36a71eb03478d57ba1acdc179ee1ec758acb282de3fd00000000"
}