{
  "txid": "53af8b0766e295e36c2a825107fae5e9afebc612c129d6c9b9f49f31088d3f18",
  "version": 2,
  "locktime": 834637,
  "vin": [
    {
      "txid": "28526e4e66f4d899e3b17483533261a26d06807c6b28f36d279d8f0a00cf3099",
      "vout": 1,
      "prevout": {
        "scriptpubkey": "76a914250e854a3dabaaad6e525b994cdbb4e4b8a5658288ac",
        "scriptpubkey_asm": "OP_DUP OP_HASH160 OP_PUSHBYTES_20 250e854a3dabaaad6e525b994cdbb4e4b8a56582 OP_EQUALVERIFY OP_CHECKSIG",
        "scriptpubkey_type": "p2pkh",
        "scriptpubkey_address": "14NwQ1eX5hokPeXb74hf1BjQg7bzRpdDoz",
        "value": 168336923
      },
      "scriptsig": "4730440220731e1f89fa147514bc14ecb65c0650f04be2e429c49373a62f765aa4717641510220629fa3b2b5a8972f46485cd721a63cfa7ca91161679adb870a5fd71cea71116e0121035c8d3c812860585bfa5f7e22679813eae876249bc9fe278d0f07dfaf4b4b3a33",
      "scriptsig_asm": "OP_PUSHBYTES_71 30440220731e1f89fa147514bc14ecb65c0650f04be2e429c49373a62f765aa4717641510220629fa3b2b5a8972f46485cd721a63cfa7ca91161679adb870a5fd71cea71116e01 OP_PUSHBYTES_33 035c8d3c812860585bfa5f7e22679813eae876249bc9fe278d0f07dfaf4b4b3a33",
      "is_coinbase": false,
      "sequence": 4294967293
    }
  ],
  "vout": [
    {
      "scriptpubkey": "76a9143eed706ee0d4eeb236adee5bb97c48c42c7bd17788ac",
      "scriptpubkey_asm": "OP_DUP OP_HASH160 OP_PUSHBYTES_20 3eed706ee0d4eeb236adee5bb97c48c42c7bd177 OP_EQUALVERIFY OP_CHECKSIG",
      "scriptpubkey_type": "p2pkh",
      "scriptpubkey_address": "16jjLTYuDkxJMvqWCbp6vsznBGYoTgysNT",
      "value": 168329147
    }
  ],
  "size": 191,
  "weight": 764,
  "fee": 7776,
  "status": {
    "confirmed": true,
    "block_height": 834638,
    "block_hash": "000000000000000000025f742c626208ac87e0b7d15054abb4a19ca2d735a54e",
    "block_time": 1710405325
  },
  "hex": "02000000019930cf000a8f9d276df3286b7c80066da26132538374b1e399d8f4664e6e5228010000006a4730440220731e1f89fa147514bc14ecb65c0650f04be2e429c49373a62f765aa4717641510220629fa3b2b5a8972f46485cd721a63cfa7ca91161679adb870a5fd71cea71116e0121035c8d3c812860585bfa5f7e22679813eae876249bc9fe278d0f07dfaf4b4b3a33fdffffff01bb7f080a000000001976a9143eed706ee0d4eeb236adee5bb97c48c42c7bd17788ac4dbc0c00"
}