{
  "txid": "53bef52f912acf44b45bd8d0ade66755f325cd7ac00e72795ec9dfbab4c1b896",
  "version": 1,
  "locktime": 0,
  "vin": [
    {
      "txid": "9ff3c73fc6525dda56b987c781e422c3c36b304cd610c2b94280021507d970bd",
      "vout": 0,
      "prevout": {
        "scriptpubkey": "00147e01167f2b79bbd70a2bbdeaceea368796d5dff1",
        "scriptpubkey_asm": "OP_0 OP_PUSHBYTES_20 7e01167f2b79bbd70a2bbdeaceea368796d5dff1",
        "scriptpubkey_type": "v0_p2wpkh",
        "scriptpubkey_address": "bc1q0cq3vlet0xaawz3thh4va63ks7tdthl3hja2sc",
        "value": 69350
      },
      "scriptsig": "",
      "scriptsig_asm": "",
      "witness": [
        "304402203e2e4e59d07178bcc19fb78235a545fbfc21c48b0231a0dc97e7c09ffb1f0010022034f531118262fc391c82767871402116ad9cc1ee04c4c7574e36a30d3db92d1d01",
        "022799f712cd4e0da2b5426d770cd52b3d284295dd3b1cd635165dba7b0a70bae1"
      ],
      "is_coinbase": false,
      "sequence": 4294967295
    }
  ],
  "vout": [
    {
      "scriptpubkey": "002053dae6b3bb0c2c61ffacc431230f013a4971aec34e003f1c9834e42215af5f74",
      "scriptpubkey_asm": "OP_0 OP_PUSHBYTES_32 53dae6b3bb0c2c61ffacc431230f013a4971aec34e003f1c9834e42215af5f74",
      "scriptpubkey_type": "v0_p2wsh",
      "scriptpubkey_address": "bc1q20dwdvampskxrlavcscjxrcp8fyhrtkrfcqr78ycxnjzy9d0ta6q0h4yyk",
      "value": 37825
    },
    {
      "scriptpubkey": "001478a9d762e739fcb21717f01bd7f2be281a470af2",
      "scriptpubkey_asm": "OP_0 OP_PUSHBYTES_20 78a9d762e739fcb21717f01bd7f2be281a470af2",
      "scriptpubkey_type": "v0_p2wpkh",
      "scriptpubkey_address": "bc1q0z5awch8887ty9ch7qda0u479qdywzhjvgxmej",
      "value": 28186
    }
  ],
  "size": 234,
  "weight": 609,
  "fee": 3339,
  "status": {
    "confirmed": true,
    "block_height": 834460,
    "block_hash": "00000000000000000000484a79b643b2524bbce82e5d8a442013fa5b8905ed98",
    "block_time": 1710307468
  },
  "hex": "01000000000101bd70d90715028042b9c210d64c306bc3c322e481c787b956da5d52c63fc7f39f0000000000ffffffff02c19300000000000022002053dae6b3bb0c2c61ffacc431230f013a4971aec34e003f1c9834e42215af5f741a6e00000000000016001478a9d762e739fcb21717f01bd7f2be281a470af20247304402203e2e4e59d07178bcc19fb78235a545fbfc21c48b0231a0dc97e7c09ffb1f0010022034f531118262fc391c82767871402116ad9cc1ee04c4c7574e36a30d3db92d1d0121022799f712cd4e0da2b5426d770cd52b3d284295dd3b1cd635165dba7b0a70bae100000000"
}