{
  "txid": "53c0674b0caee3b6ac4e1ec4312bc422d512c0086fe6c17f14dc5c30ccbfacef",
  "version": 2,
  "locktime": 0,
  "vin": [
    {
      "txid": "ca49732a8789b812361e997512b66bc3787f1e3ff39f5f0d8b845e09438043f6",
      "vout": 18,
      "prevout": {
        "scriptpubkey": "5120b9f980302488fa3e86e26ad2001ba1f68e62804fc9cd46486c5ecd6863212d87",
        "scriptpubkey_asm": "OP_PUSHNUM_1 OP_PUSHBYTES_32 b9f980302488fa3e86e26ad2001ba1f68e62804fc9cd46486c5ecd6863212d87",
        "scriptpubkey_type": "v1_p2tr",
        "scriptpubkey_address": "bc1ph8ucqvpy3raraphzdtfqqxap768x9qz0e8x5vjrvtmxkscep9krsc8mtrp",
        "value": 2066
      },
      "scriptsig": "",
      "scriptsig_asm": "",
      "witness": [
        "cf83b228ab4b1510f4075cf8c3d4a92f31143069a6d077055e4542f33ceac0e637ef7a01d039d4002b0cd294965ddd2bb546a080dffb44b658d5c6e5c0ee3c5f",
        "205b3799a9d2ac860e428ace276fddce4f7377a0fe429e4ca824ad49bde8a41943ac0063036f726401010a746578742f706c61696e00367b2270223a226272632d3230222c226f70223a226d696e74222c227469636b223a2261616161222c22616d74223a223130303030227d68",
        "c05b3799a9d2ac860e428ace276fddce4f7377a0fe429e4ca824ad49bde8a41943"
      ],
      "is_coinbase": false,
      "sequence": 4261412863
    }
  ],
  "vout": [
    {
      "scriptpubkey": "0014b12a255b419b46c01324705abea5fd2949f55051",
      "scriptpubkey_asm": "OP_0 OP_PUSHBYTES_20 b12a255b419b46c01324705abea5fd2949f55051",
      "scriptpubkey_type": "v0_p2wpkh",
      "scriptpubkey_address": "bc1qky4z2k6pndrvqyeywpdtaf0a99yl25z3zp84r6",
      "value": 294
    }
  ],
  "size": 295,
  "weight": 541,
  "fee": 1772,
  "status": {
    "confirmed": true,
    "block_height": 834460,
    "block_hash": "00000000000000000000484a79b643b2524bbce82e5d8a442013fa5b8905ed98",
    "block_time": 1710307468
  },
  "hex": "02000000000101f6438043095e848b0d5f9ff33f1e7f78c36bb61275991e3612b889872a7349ca1200000000fffffffd012601000000000000160014b12a255b419b46c01324705abea5fd2949f550510340cf83b228ab4b1510f4075cf8c3d4a92f31143069a6d077055e4542f33ceac0e637ef7a01d039d4002b0cd294965ddd2bb546a080dffb44b658d5c6e5c0ee3c5f6e205b3799a9d2ac860e428ace276fddce4f7377a0fe429e4ca824ad49bde8a41943ac0063036f726401010a746578742f706c61696e00367b2270223a226272632d3230222c226f70223a226d696e74222c227469636b223a2261616161222c22616d74223a223130303030227d6821c05b3799a9d2ac860e428ace276fddce4f7377a0fe429e4ca824ad49bde8a4194300000000"
}