{
  "txid": "53c67086b5d5aca3d64a8cbcc72a47d6d68b5a8ab7c03091eb272766c01ecee2",
  "version": 2,
  "locktime": 0,
  "vin": [
    {
      "txid": "b0071abf013e99e119cdaf057e2360df59341d1ad3425a215dfb24a270f93e5d",
      "vout": 1,
      "prevout": {
        "scriptpubkey": "51200e87f2cd65f2132c7d1164b4196cbc60f530101182f55c082019b29a07b509b5",
        "scriptpubkey_asm": "OP_PUSHNUM_1 OP_PUSHBYTES_32 0e87f2cd65f2132c7d1164b4196cbc60f530101182f55c082019b29a07b509b5",
        "scriptpubkey_type": "v1_p2tr",
        "scriptpubkey_address": "bc1pp6rl9nt97gfjclg3vj6pjm9uvr6nqyq3st64czpqrxef5pa4px6s0t0qse",
        "value": 311319
      },
      "scriptsig": "",
      "scriptsig_asm": "",
      "witness": [
        "7053babf9d05a423154caf8bda34577adcd1aa317bf2b53a734dcf19e37107134ed8070b6483eb6e1544b9698c28f84e250ee58d84a2ccbcc0489dd75f891ad0"
      ],
      "is_coinbase": false,
      "sequence": 4294967295
    }
  ],
  "vout": [
    {
      "scriptpubkey": "001448dfa704897f78fdfbc2b9534055dd9b219ef5a8",
      "scriptpubkey_asm": "OP_0 OP_PUSHBYTES_20 48dfa704897f78fdfbc2b9534055dd9b219ef5a8",
      "scriptpubkey_type": "v0_p2wpkh",
      "scriptpubkey_address": "bc1qfr06wpyf0au0m77zh9f5q4wanvseaadgq9qhf9",
      "value": 12499
    },
    {
      "scriptpubkey": "51200e87f2cd65f2132c7d1164b4196cbc60f530101182f55c082019b29a07b509b5",
      "scriptpubkey_asm": "OP_PUSHNUM_1 OP_PUSHBYTES_32 0e87f2cd65f2132c7d1164b4196cbc60f530101182f55c082019b29a07b509b5",
      "scriptpubkey_type": "v1_p2tr",
      "scriptpubkey_address": "bc1pp6rl9nt97gfjclg3vj6pjm9uvr6nqyq3st64czpqrxef5pa4px6s0t0qse",
      "value": 297116
    }
  ],
  "size": 193,
  "weight": 568,
  "fee": 1704,
  "status": {
    "confirmed": true,
    "block_height": 834460,
    "block_hash": "00000000000000000000484a79b643b2524bbce82e5d8a442013fa5b8905ed98",
    "block_time": 1710307468
  },
  "hex": "020000000001015d3ef970a224fb5d215a42d31a1d3459df60237e05afcd19e1993e01bf1a07b00100000000ffffffff02d33000000000000016001448dfa704897f78fdfbc2b9534055dd9b219ef5a89c880400000000002251200e87f2cd65f2132c7d1164b4196cbc60f530101182f55c082019b29a07b509b501407053babf9d05a423154caf8bda34577adcd1aa317bf2b53a734dcf19e37107134ed8070b6483eb6e1544b9698c28f84e250ee58d84a2ccbcc0489dd75f891ad000000000"
}