{
  "txid": "53cec7ba2dc54fa46466c0d6c55a5869851b5a8617e4e21962f219b1956c0faa",
  "version": 1,
  "locktime": 0,
  "vin": [
    {
      "txid": "aaa7455ddeb35acbf70dd40055ee0e1e45b9077559ecf7ba19a8a17b6527ee17",
      "vout": 1,
      "prevout": {
        "scriptpubkey": "001459dac881f21a786db940af10b06b1576c09de94d",
        "scriptpubkey_asm": "OP_0 OP_PUSHBYTES_20 59dac881f21a786db940af10b06b1576c09de94d",
        "scriptpubkey_type": "v0_p2wpkh",
        "scriptpubkey_address": "bc1qt8dv3q0jrfuxmw2q4ugtq6c4wmqfm62d05y8sz",
        "value": 35965082
      },
      "scriptsig": "",
      "scriptsig_asm": "",
      "witness": [
        "304402200f41b2ce9c5526076c9875586087483246cad491e81894c05e7c561e9533cead02203d860cd184615175ec119b5ba7d1f9cf8569dbcfbd7ceed7b1a417b1482150c101",
        "020d076581de5376f997bf609bb96eab634651b06f1a643d529ce185b2aa49c687"
      ],
      "is_coinbase": false,
      "sequence": 4294967293
    }
  ],
  "vout": [
    {
      "scriptpubkey": "00144a54aceb9b0f024a19a0a067d6ea867fe3b40499",
      "scriptpubkey_asm": "OP_0 OP_PUSHBYTES_20 4a54aceb9b0f024a19a0a067d6ea867fe3b40499",
      "scriptpubkey_type": "v0_p2wpkh",
      "scriptpubkey_address": "bc1qff22e6umpupy5xdq5pnad65x0l3mgpyekqqzl6",
      "value": 16801635
    },
    {
      "scriptpubkey": "001412d96c0f040638e4b21a7110479973dbe059a672",
      "scriptpubkey_asm": "OP_0 OP_PUSHBYTES_20 12d96c0f040638e4b21a7110479973dbe059a672",
      "scriptpubkey_type": "v0_p2wpkh",
      "scriptpubkey_address": "bc1qztvkcrcyqcuwfvs6wygy0xtnm0s9nfnjav7g66",
      "value": 19161332
    }
  ],
  "size": 222,
  "weight": 561,
  "fee": 2115,
  "status": {
    "confirmed": true,
    "block_height": 834638,
    "block_hash": "000000000000000000025f742c626208ac87e0b7d15054abb4a19ca2d735a54e",
    "block_time": 1710405325
  },
  "hex": "0100000000010117ee27657ba1a819baf7ec597507b9451e0eee5500d40df7cb5ab3de5d45a7aa0100000000fdffffff02635f0001000000001600144a54aceb9b0f024a19a0a067d6ea867fe3b40499f46024010000000016001412d96c0f040638e4b21a7110479973dbe059a6720247304402200f41b2ce9c5526076c9875586087483246cad491e81894c05e7c561e9533cead02203d860cd184615175ec119b5ba7d1f9cf8569dbcfbd7ceed7b1a417b1482150c10121020d076581de5376f997bf609bb96eab634651b06f1a643d529ce185b2aa49c68700000000"
}