{
  "txid": "53d950890c4244e8dbd82336afe012eefde038428156d193d504e2630a5f61a9",
  "version": 2,
  "locktime": 0,
  "vin": [
    {
      "txid": "008eca5c887032aafcbc8ff235aa2516024c7027bc681428571c5b723247280c",
      "vout": 0,
      "prevout": {
        "scriptpubkey": "0014567b2f2f85a882890dd71321d4f53e649df3c01a",
        "scriptpubkey_asm": "OP_0 OP_PUSHBYTES_20 567b2f2f85a882890dd71321d4f53e649df3c01a",
        "scriptpubkey_type": "v0_p2wpkh",
        "scriptpubkey_address": "bc1q2eaj7tu94zpgjrwhzvsafaf7vjwl8sq68xx7c3",
        "value": 98664
      },
      "scriptsig": "",
      "scriptsig_asm": "",
      "witness": [
        "30440220098614327594a62012aae11aa937fe96992d18b25a6c79172a89597777656e36022070fefc06c0243a58411e94664d1d659c4eec713795cca72acf22f9c7ff1a7c5201",
        "02452fc532d1a6a05624116b3eb5c6def2e3c431ab63327162ae37cbb27a419be8"
      ],
      "is_coinbase": false,
      "sequence": 4294967295
    }
  ],
  "vout": [
    {
      "scriptpubkey": "00140d3f5d2fad0404c5ede9be86500c8f723d934419",
      "scriptpubkey_asm": "OP_0 OP_PUSHBYTES_20 0d3f5d2fad0404c5ede9be86500c8f723d934419",
      "scriptpubkey_type": "v0_p2wpkh",
      "scriptpubkey_address": "bc1qp5l46tadqszvtm0fh6r9qry0wg7ex3qe0nxadx",
      "value": 97353
    }
  ],
  "size": 191,
  "weight": 437,
  "fee": 1311,
  "status": {
    "confirmed": true,
    "block_height": 834460,
    "block_hash": "00000000000000000000484a79b643b2524bbce82e5d8a442013fa5b8905ed98",
    "block_time": 1710307468
  },
  "hex": "020000000001010c284732725b1c57281468bc27704c021625aa35f28fbcfcaa3270885cca8e000000000000ffffffff01497c0100000000001600140d3f5d2fad0404c5ede9be86500c8f723d934419024730440220098614327594a62012aae11aa937fe96992d18b25a6c79172a89597777656e36022070fefc06c0243a58411e94664d1d659c4eec713795cca72acf22f9c7ff1a7c52012102452fc532d1a6a05624116b3eb5c6def2e3c431ab63327162ae37cbb27a419be800000000"
}