{
  "txid": "53dce74fdd2e3aff6c5738ed520c01530e3c239693eccd248675002765aaa721",
  "version": 2,
  "locktime": 834637,
  "vin": [
    {
      "txid": "3c096a9f245bcb0ff1ed90278d2752d11a822bf1813f896155519b0b237eb20e",
      "vout": 0,
      "prevout": {
        "scriptpubkey": "0014b8803b0d6d17b89dcfc74fad4fdb8f8c8300dc57",
        "scriptpubkey_asm": "OP_0 OP_PUSHBYTES_20 b8803b0d6d17b89dcfc74fad4fdb8f8c8300dc57",
        "scriptpubkey_type": "v0_p2wpkh",
        "scriptpubkey_address": "bc1qhzqrkrtdz7ufmn78f7k5lku03jpsphzhw6rn78",
        "value": 788249694
      },
      "scriptsig": "",
      "scriptsig_asm": "",
      "witness": [
        "304402206e2c641594385464bbf3e46a4a2acc6f36fa828d4b2977351811a295c210c1d302205e9782cd0e72917306d5284f226371d0f5a59aa4f075c4b2fc62db1fa0bb06d501",
        "0397f0ab0a17f24ac9c075194130d0584b8ee6f896712a274517135406b763181a"
      ],
      "is_coinbase": false,
      "sequence": 4294967294
    }
  ],
  "vout": [
    {
      "scriptpubkey": "00144ecefd0c2238df0ed721fbd921ac6386b6d63afc",
      "scriptpubkey_asm": "OP_0 OP_PUSHBYTES_20 4ecefd0c2238df0ed721fbd921ac6386b6d63afc",
      "scriptpubkey_type": "v0_p2wpkh",
      "scriptpubkey_address": "bc1qfm806rpz8r0sa4epl0vjrtrrs6mdvwhuzjpaqp",
      "value": 786594364
    },
    {
      "scriptpubkey": "76a914f644fdab26c32902fabd5319249e1f0c7a27082088ac",
      "scriptpubkey_asm": "OP_DUP OP_HASH160 OP_PUSHBYTES_20 f644fdab26c32902fabd5319249e1f0c7a270820 OP_EQUALVERIFY OP_CHECKSIG",
      "scriptpubkey_type": "p2pkh",
      "scriptpubkey_address": "1PT9smAs6nzT6nnqDYvM1hEn1M6XttuMcr",
      "value": 1651800
    }
  ],
  "size": 225,
  "weight": 573,
  "fee": 3530,
  "status": {
    "confirmed": true,
    "block_height": 834638,
    "block_hash": "000000000000000000025f742c626208ac87e0b7d15054abb4a19ca2d735a54e",
    "block_time": 1710405325
  },
  "hex": "020000000001010eb27e230b9b515561893f81f12b821ad152278d2790edf10fcb5b249f6a093c0000000000feffffff023c7ae22e000000001600144ecefd0c2238df0ed721fbd921ac6386b6d63afc58341900000000001976a914f644fdab26c32902fabd5319249e1f0c7a27082088ac0247304402206e2c641594385464bbf3e46a4a2acc6f36fa828d4b2977351811a295c210c1d302205e9782cd0e72917306d5284f226371d0f5a59aa4f075c4b2fc62db1fa0bb06d501210397f0ab0a17f24ac9c075194130d0584b8ee6f896712a274517135406b763181a4dbc0c00"
}