{
  "txid": "53dfc35d305bb6de8636daf26cf167f1fa83649d4ff7da82ad68b3e137284818",
  "version": 2,
  "locktime": 0,
  "vin": [
    {
      "txid": "d20800632e287109a0d183a2f76ba6a6b5a3314a10e5e809698a55aa629af9f9",
      "vout": 0,
      "prevout": {
        "scriptpubkey": "00149465650daa0f861b7949739819a3de1201889b52",
        "scriptpubkey_asm": "OP_0 OP_PUSHBYTES_20 9465650daa0f861b7949739819a3de1201889b52",
        "scriptpubkey_type": "v0_p2wpkh",
        "scriptpubkey_address": "bc1qj3jk2rd2p7rpk72fwwvpng77zgqc3x6jkj8fua",
        "value": 1212210
      },
      "scriptsig": "",
      "scriptsig_asm": "",
      "witness": [
        "3045022100df9ab58dd846359d40d616c473d24c166e674f6789082eb94777e54a78a8e862022032060c75ce1b41722f02d31e6c931038d1ca64477662b6d538d606b82619b2c001",
        "0335d944244b34849eeec8261ba492dc17ed3e812855f11ab3132c58d100e5c589"
      ],
      "is_coinbase": false,
      "sequence": 4294967295
    }
  ],
  "vout": [
    {
      "scriptpubkey": "00149465650daa0f861b7949739819a3de1201889b52",
      "scriptpubkey_asm": "OP_0 OP_PUSHBYTES_20 9465650daa0f861b7949739819a3de1201889b52",
      "scriptpubkey_type": "v0_p2wpkh",
      "scriptpubkey_address": "bc1qj3jk2rd2p7rpk72fwwvpng77zgqc3x6jkj8fua",
      "value": 937559
    },
    {
      "scriptpubkey": "0014aa0114fcffc299999f1e305f34d985980575e878",
      "scriptpubkey_asm": "OP_0 OP_PUSHBYTES_20 aa0114fcffc299999f1e305f34d985980575e878",
      "scriptpubkey_type": "v0_p2wpkh",
      "scriptpubkey_address": "bc1q4gq3fl8lc2ven8c7xp0nfkv9nqzht6rcaue8gx",
      "value": 272401
    }
  ],
  "size": 223,
  "weight": 562,
  "fee": 2250,
  "status": {
    "confirmed": true,
    "block_height": 834638,
    "block_hash": "000000000000000000025f742c626208ac87e0b7d15054abb4a19ca2d735a54e",
    "block_time": 1710405325
  },
  "hex": "02000000000101f9f99a62aa558a6909e8e5104a31a3b5a6a66bf7a283d1a00971282e630008d20000000000ffffffff02574e0e00000000001600149465650daa0f861b7949739819a3de1201889b521128040000000000160014aa0114fcffc299999f1e305f34d985980575e87802483045022100df9ab58dd846359d40d616c473d24c166e674f6789082eb94777e54a78a8e862022032060c75ce1b41722f02d31e6c931038d1ca64477662b6d538d606b82619b2c001210335d944244b34849eeec8261ba492dc17ed3e812855f11ab3132c58d100e5c58900000000"
}