{
  "txid": "5400a84b9c5b7fefbba9d651c9447e4517024a6d724befea78c37d775bfaef2b",
  "version": 2,
  "locktime": 0,
  "vin": [
    {
      "txid": "bce53f2aa5384be15a1d75ef1b40106ec12a2e2779f39ec3369cdbfd35bafbaa",
      "vout": 4,
      "prevout": {
        "scriptpubkey": "0014a254da759284926c67611e35588faaeb8b45d24f",
        "scriptpubkey_asm": "OP_0 OP_PUSHBYTES_20 a254da759284926c67611e35588faaeb8b45d24f",
        "scriptpubkey_type": "v0_p2wpkh",
        "scriptpubkey_address": "bc1q5f2d5avjsjfxcemprc643ra2aw95t5j0556vtr",
        "value": 9936624
      },
      "scriptsig": "",
      "scriptsig_asm": "",
      "witness": [
        "3044022056b7e783cd33140dc6fc5c2fc2a4dd76ff5bf4d3e1a7cb3e010f5c36731584f10220785bc89c4d8856a43603599b959c8a38de7215372a8b5c96aae21f126d831fc701",
        "03cc4a157e25cb6733aad0a6d7b66bf3e768cfd7e3291e14971da77e92ef0d16ff"
      ],
      "is_coinbase": false,
      "sequence": 4294967295
    }
  ],
  "vout": [
    {
      "scriptpubkey": "001483e3ad14983064c7bc13b3cff52cb5eb819f1df9",
      "scriptpubkey_asm": "OP_0 OP_PUSHBYTES_20 83e3ad14983064c7bc13b3cff52cb5eb819f1df9",
      "scriptpubkey_type": "v0_p2wpkh",
      "scriptpubkey_address": "bc1qs03669ycxpjv00qnk08l2t94awqe780eaqfm6j",
      "value": 980245
    },
    {
      "scriptpubkey": "0014a254da759284926c67611e35588faaeb8b45d24f",
      "scriptpubkey_asm": "OP_0 OP_PUSHBYTES_20 a254da759284926c67611e35588faaeb8b45d24f",
      "scriptpubkey_type": "v0_p2wpkh",
      "scriptpubkey_address": "bc1q5f2d5avjsjfxcemprc643ra2aw95t5j0556vtr",
      "value": 8954129
    }
  ],
  "size": 222,
  "weight": 561,
  "fee": 2250,
  "status": {
    "confirmed": true,
    "block_height": 834638,
    "block_hash": "000000000000000000025f742c626208ac87e0b7d15054abb4a19ca2d735a54e",
    "block_time": 1710405325
  },
  "hex": "02000000000101aafbba35fddb9c36c39ef379272e2ac16e10401bef751d5ae14b38a52a3fe5bc0400000000ffffffff0215f50e000000000016001483e3ad14983064c7bc13b3cff52cb5eb819f1df911a1880000000000160014a254da759284926c67611e35588faaeb8b45d24f02473044022056b7e783cd33140dc6fc5c2fc2a4dd76ff5bf4d3e1a7cb3e010f5c36731584f10220785bc89c4d8856a43603599b959c8a38de7215372a8b5c96aae21f126d831fc7012103cc4a157e25cb6733aad0a6d7b66bf3e768cfd7e3291e14971da77e92ef0d16ff00000000"
}