{
  "txid": "54049d94ca55f9629a1f77684d4223ccf573694d996abac505f3ce8f30a99a2f",
  "version": 2,
  "locktime": 0,
  "vin": [
    {
      "txid": "434a190af4c77d79979d2d21602f5142851f9bba256446dd7d31a7b311999b99",
      "vout": 6,
      "prevout": {
        "scriptpubkey": "51201d626218978256ef36c71b4abb95ee108ce999275fa302a283552a55299a9ca0",
        "scriptpubkey_asm": "OP_PUSHNUM_1 OP_PUSHBYTES_32 1d626218978256ef36c71b4abb95ee108ce999275fa302a283552a55299a9ca0",
        "scriptpubkey_type": "v1_p2tr",
        "scriptpubkey_address": "bc1pr43xyxyhsftw7dk8rd9th90wzzxwnxf8t73s9g5r254922v6njsqrl86lq",
        "value": 3234
      },
      "scriptsig": "",
      "scriptsig_asm": "",
      "witness": [
        "9ac1715705d16e8ffc1aa2921c1baf51a4856c9b0f5cc889285f6ee4c31abdf20f6cc171d3db7be23e966e4320f72ccc5f9f9d2c6a2b58f110901a951914cd74",
        "20428675e2cbbf020e909d84c84762b363aefb68dbbaf799e98a70bc20635c4ef7ac0063036f726401011e6170706c69636174696f6e2f6a736f6e3b636861727365743d7574662d38004cd27b2270223a22706f772d3230222c226f70223a226d696e74222c227469636b223a2250455045222c22616d74223a2231303030222c22736f6c7574696f6e223a22504550453a6263317034346572347876306c6430706c6a3779346c6a71307536617433747936773234356c7961366173337474367578747039716c79737637327161613a303030303030303030303030303030303030303139393431613561653132383937363539383134343239323533333030353762306461393666336465613163353a38393235303430343334227d68",
        "c0f9337ae8d846120319842204c8fa6fb30a2d36b39aa08502370b80ec3c9c59a9"
      ],
      "is_coinbase": false,
      "sequence": 4294967295
    }
  ],
  "vout": [
    {
      "scriptpubkey": "5120ad723a998ffb5e1fcbc4afe407f35d5c564d3955a7c9dd76115af5c32c2507c9",
      "scriptpubkey_asm": "OP_PUSHNUM_1 OP_PUSHBYTES_32 ad723a998ffb5e1fcbc4afe407f35d5c564d3955a7c9dd76115af5c32c2507c9",
      "scriptpubkey_type": "v1_p2tr",
      "scriptpubkey_address": "bc1p44er4xv0ld0plj7y4ljq0u6at3ty6w245lya6as3tt6uxtp9qlysv72qaa",
      "value": 546
    }
  ],
  "size": 486,
  "weight": 768,
  "fee": 2688,
  "status": {
    "confirmed": true,
    "block_height": 834460,
    "block_hash": "00000000000000000000484a79b643b2524bbce82e5d8a442013fa5b8905ed98",
    "block_time": 1710307468
  },
  "hex": "02000000000101999b9911b3a7317ddd466425ba9b1f8542512f60212d9d97797dc7f40a194a430600000000ffffffff012202000000000000225120ad723a998ffb5e1fcbc4afe407f35d5c564d3955a7c9dd76115af5c32c2507c903409ac1715705d16e8ffc1aa2921c1baf51a4856c9b0f5cc889285f6ee4c31abdf20f6cc171d3db7be23e966e4320f72ccc5f9f9d2c6a2b58f110901a951914cd74fd1f0120428675e2cbbf020e909d84c84762b363aefb68dbbaf799e98a70bc20635c4ef7ac0063036f726401011e6170706c69636174696f6e2f6a736f6e3b636861727365743d7574662d38004cd27b2270223a22706f772d3230222c226f70223a226d696e74222c227469636b223a2250455045222c22616d74223a2231303030222c22736f6c7574696f6e223a22504550453a6263317034346572347876306c6430706c6a3779346c6a71307536617433747936773234356c7961366173337474367578747039716c79737637327161613a303030303030303030303030303030303030303139393431613561653132383937363539383134343239323533333030353762306461393666336465613163353a38393235303430343334227d6821c0f9337ae8d846120319842204c8fa6fb30a2d36b39aa08502370b80ec3c9c59a900000000"
}