{
  "txid": "540df4c106bb4f92491dce8739fdefc9a3c9a3659d288e7bda130f27967b57ef",
  "version": 2,
  "locktime": 0,
  "vin": [
    {
      "txid": "5c8ed173eefba869013227bfde0c78f0f1b5c2fbbf776926d1527239d1e04ece",
      "vout": 1,
      "prevout": {
        "scriptpubkey": "001464ee3e62aebc38daf6667d2a7c2ee9e47196bd91",
        "scriptpubkey_asm": "OP_0 OP_PUSHBYTES_20 64ee3e62aebc38daf6667d2a7c2ee9e47196bd91",
        "scriptpubkey_type": "v0_p2wpkh",
        "scriptpubkey_address": "bc1qvnhruc4whsud4anx0548cthfu3ced0v392cdeu",
        "value": 1111729
      },
      "scriptsig": "",
      "scriptsig_asm": "",
      "witness": [
        "304502210088df022d1a78561c4ec11757861dc7263ad57a5886ff00b15175ca8031626dc502201f13375a67fd9cb24b66892e93c7c72baab08bb72efc19ffc831f7b6158cf8b601",
        "02a0b3e253a7592e5d39e08ea3ff6d3c0efd653b6155e1ae5a33e2aa4c2dd2c5da"
      ],
      "is_coinbase": false,
      "sequence": 4294967295
    }
  ],
  "vout": [
    {
      "scriptpubkey": "00202eb5234c2cfda8b0d8336e0c700965e59ecbd51a07aa8232d887842a19e40ab6",
      "scriptpubkey_asm": "OP_0 OP_PUSHBYTES_32 2eb5234c2cfda8b0d8336e0c700965e59ecbd51a07aa8232d887842a19e40ab6",
      "scriptpubkey_type": "v0_p2wsh",
      "scriptpubkey_address": "bc1q966jxnpvlk5tpkpndcx8qzt9uk0vh4g6q74gyvkcs7zz5x0yp2mq6rjzuh",
      "value": 415558
    },
    {
      "scriptpubkey": "0014f7e9c687a666a6e4676f2a94fea148aa953f9eb5",
      "scriptpubkey_asm": "OP_0 OP_PUSHBYTES_20 f7e9c687a666a6e4676f2a94fea148aa953f9eb5",
      "scriptpubkey_type": "v0_p2wpkh",
      "scriptpubkey_address": "bc1q7l5udpaxv6nwgem09220ag2g422nl844gau8nf",
      "value": 694082
    }
  ],
  "size": 235,
  "weight": 610,
  "fee": 2089,
  "status": {
    "confirmed": true,
    "block_height": 834460,
    "block_hash": "00000000000000000000484a79b643b2524bbce82e5d8a442013fa5b8905ed98",
    "block_time": 1710307468
  },
  "hex": "02000000000101ce4ee0d1397252d1266977bffbc2b5f1f0780cdebf27320169a8fbee73d18e5c0100000000ffffffff0246570600000000002200202eb5234c2cfda8b0d8336e0c700965e59ecbd51a07aa8232d887842a19e40ab642970a0000000000160014f7e9c687a666a6e4676f2a94fea148aa953f9eb50248304502210088df022d1a78561c4ec11757861dc7263ad57a5886ff00b15175ca8031626dc502201f13375a67fd9cb24b66892e93c7c72baab08bb72efc19ffc831f7b6158cf8b6012102a0b3e253a7592e5d39e08ea3ff6d3c0efd653b6155e1ae5a33e2aa4c2dd2c5da00000000"
}