{
  "txid": "5413fc25a705ac68cc05dd7add5b553d923b2ec3210637c804cb13e2e6e3c464",
  "version": 2,
  "locktime": 834637,
  "vin": [
    {
      "txid": "22ea615c9f50f226d81a21ce7655083124a20de4df222fb2335884637e616692",
      "vout": 0,
      "prevout": {
        "scriptpubkey": "001401917d523815a30bbaabde3faea12ecd35622e01",
        "scriptpubkey_asm": "OP_0 OP_PUSHBYTES_20 01917d523815a30bbaabde3faea12ecd35622e01",
        "scriptpubkey_type": "v0_p2wpkh",
        "scriptpubkey_address": "bc1qqxgh653czk3shw4tmcl6agfwe56kytspcf5q75",
        "value": 259781544
      },
      "scriptsig": "",
      "scriptsig_asm": "",
      "witness": [
        "3044022025f75aac8785ae16435a6279a23a5cb1ece2498719c1f93e2967eef0188a02ff02204ddbed2862490893a12a3c43410b0168b11d97059549ab050d4f3fedbadef49801",
        "02b08b0e9c41d855f035005195ba3b3cea7b811069afe48f36041ef2980f1f5cee"
      ],
      "is_coinbase": false,
      "sequence": 4294967294
    }
  ],
  "vout": [
    {
      "scriptpubkey": "a914567087a421ba3e5e2684c53b49634e6ebc931c4587",
      "scriptpubkey_asm": "OP_HASH160 OP_PUSHBYTES_20 567087a421ba3e5e2684c53b49634e6ebc931c45 OP_EQUAL",
      "scriptpubkey_type": "p2sh",
      "scriptpubkey_address": "39a4qkaJFh2FxNvE3rqRY4hebsDRKjqgph",
      "value": 1650900
    },
    {
      "scriptpubkey": "00140063c181cd0b7b8c261d2b0dd5f0f268cc6f8a74",
      "scriptpubkey_asm": "OP_0 OP_PUSHBYTES_20 0063c181cd0b7b8c261d2b0dd5f0f268cc6f8a74",
      "scriptpubkey_type": "v0_p2wpkh",
      "scriptpubkey_address": "bc1qqp3urqwdpdaccfsa9vxatu8jdrxxlzn56uzwxd",
      "value": 258127164
    }
  ],
  "size": 223,
  "weight": 565,
  "fee": 3480,
  "status": {
    "confirmed": true,
    "block_height": 834638,
    "block_hash": "000000000000000000025f742c626208ac87e0b7d15054abb4a19ca2d735a54e",
    "block_time": 1710405325
  },
  "hex": "020000000001019266617e63845833b22f22dfe40da22431085576ce211ad826f2509f5c61ea220000000000feffffff02d43019000000000017a914567087a421ba3e5e2684c53b49634e6ebc931c45873cb5620f000000001600140063c181cd0b7b8c261d2b0dd5f0f268cc6f8a7402473044022025f75aac8785ae16435a6279a23a5cb1ece2498719c1f93e2967eef0188a02ff02204ddbed2862490893a12a3c43410b0168b11d97059549ab050d4f3fedbadef498012102b08b0e9c41d855f035005195ba3b3cea7b811069afe48f36041ef2980f1f5cee4dbc0c00"
}