{
  "txid": "541edb4b74f309134cc57851f44923294804f642eb85f93b25271e681b400f1c",
  "version": 2,
  "locktime": 0,
  "vin": [
    {
      "txid": "b7c85c8be728468f18da579423d1321301572a863082d396b691b7d7ea8624ab",
      "vout": 1,
      "prevout": {
        "scriptpubkey": "a914f90e76500f4cab364666a9b92112cc7b84cb397387",
        "scriptpubkey_asm": "OP_HASH160 OP_PUSHBYTES_20 f90e76500f4cab364666a9b92112cc7b84cb3973 OP_EQUAL",
        "scriptpubkey_type": "p2sh",
        "scriptpubkey_address": "3QPuWA7dWQatjkpsmhDCwWbH3QmzvcLYw9",
        "value": 6013975
      },
      "scriptsig": "160014966d79edb5539bf51f2ac6160fbf3a02bbefe42d",
      "scriptsig_asm": "OP_PUSHBYTES_22 0014966d79edb5539bf51f2ac6160fbf3a02bbefe42d",
      "witness": [
        "3045022100def955f49c40b5e725991b79d5d82328ed7369032637eb0408c7b050cea47aa10220453c0fe8535f1f880321c3edf927ea8ccd4c07117506055e515eb2169b8389cb01",
        "02afc75f16e764393f02032cf4bfa4f18cd5644ecb38b4f514f779a59215131b0a"
      ],
      "is_coinbase": false,
      "sequence": 4294967293,
      "inner_redeemscript_asm": "OP_0 OP_PUSHBYTES_20 966d79edb5539bf51f2ac6160fbf3a02bbefe42d"
    }
  ],
  "vout": [
    {
      "scriptpubkey": "a914c1df8558bebecf2ebfb075ed7879d65c9e7269e887",
      "scriptpubkey_asm": "OP_HASH160 OP_PUSHBYTES_20 c1df8558bebecf2ebfb075ed7879d65c9e7269e8 OP_EQUAL",
      "scriptpubkey_type": "p2sh",
      "scriptpubkey_address": "3KN87537UTGpeiDfoz9pTSFopcvKnHtksw",
      "value": 100000
    },
    {
      "scriptpubkey": "a914f90e76500f4cab364666a9b92112cc7b84cb397387",
      "scriptpubkey_asm": "OP_HASH160 OP_PUSHBYTES_20 f90e76500f4cab364666a9b92112cc7b84cb3973 OP_EQUAL",
      "scriptpubkey_type": "p2sh",
      "scriptpubkey_address": "3QPuWA7dWQatjkpsmhDCwWbH3QmzvcLYw9",
      "value": 5910157
    }
  ],
  "size": 248,
  "weight": 662,
  "fee": 3818,
  "status": {
    "confirmed": true,
    "block_height": 834638,
    "block_hash": "000000000000000000025f742c626208ac87e0b7d15054abb4a19ca2d735a54e",
    "block_time": 1710405325
  },
  "hex": "02000000000101ab2486ead7b791b696d38230862a57011332d1239457da188f4628e78b5cc8b70100000017160014966d79edb5539bf51f2ac6160fbf3a02bbefe42dfdffffff02a08601000000000017a914c1df8558bebecf2ebfb075ed7879d65c9e7269e8878d2e5a000000000017a914f90e76500f4cab364666a9b92112cc7b84cb39738702483045022100def955f49c40b5e725991b79d5d82328ed7369032637eb0408c7b050cea47aa10220453c0fe8535f1f880321c3edf927ea8ccd4c07117506055e515eb2169b8389cb012102afc75f16e764393f02032cf4bfa4f18cd5644ecb38b4f514f779a59215131b0a00000000"
}