{
  "txid": "542b2f4401a7f5aaa3781aef83889f7f48f9dfb3eefe6c8b51ab1f37ff916735",
  "version": 2,
  "locktime": 0,
  "vin": [
    {
      "txid": "33f3419df0c07e31190bf104dbf0fb5e26afe4426ac7b07aef8eb511707fdba8",
      "vout": 0,
      "prevout": {
        "scriptpubkey": "5120c713d1e4d114eed130b500b614b08e2483d4e88d5bba6c81fee82ea90c330167",
        "scriptpubkey_asm": "OP_PUSHNUM_1 OP_PUSHBYTES_32 c713d1e4d114eed130b500b614b08e2483d4e88d5bba6c81fee82ea90c330167",
        "scriptpubkey_type": "v1_p2tr",
        "scriptpubkey_address": "bc1pcufarex3znhdzv94qzmpfvywyjpaf6ydtwaxeq07aqh2jrpnq9nssqd4uw",
        "value": 546
      },
      "scriptsig": "",
      "scriptsig_asm": "",
      "witness": [
        "50ae7a2ae60600e92da0713854e4ec6bc0933dee818eec7eff8ef8be651f26f49965d6507b7237bbac51ed6c9227669b22e2e78e839d93be22718a61b7527521"
      ],
      "is_coinbase": false,
      "sequence": 4294967295
    },
    {
      "txid": "73b45ea78f8fbdbc8bbe23b4e280f9e2ec54a2db3357a55d324c7269f2c0ac1a",
      "vout": 1,
      "prevout": {
        "scriptpubkey": "5120c713d1e4d114eed130b500b614b08e2483d4e88d5bba6c81fee82ea90c330167",
        "scriptpubkey_asm": "OP_PUSHNUM_1 OP_PUSHBYTES_32 c713d1e4d114eed130b500b614b08e2483d4e88d5bba6c81fee82ea90c330167",
        "scriptpubkey_type": "v1_p2tr",
        "scriptpubkey_address": "bc1pcufarex3znhdzv94qzmpfvywyjpaf6ydtwaxeq07aqh2jrpnq9nssqd4uw",
        "value": 2712700
      },
      "scriptsig": "",
      "scriptsig_asm": "",
      "witness": [
        "6577808e58db362c4404509cabef456f6000a438be7733dafc33d927f09bc18ea61778ba1a86c176cf5bf85c8cb5b89011f84253e1e1cfec6cf2a92736afa795"
      ],
      "is_coinbase": false,
      "sequence": 4294967295
    }
  ],
  "vout": [
    {
      "scriptpubkey": "51202a0061e6a49583449852413fbe141aa8c53ab7b00d47a03dc6b4654fd2be6976",
      "scriptpubkey_asm": "OP_PUSHNUM_1 OP_PUSHBYTES_32 2a0061e6a49583449852413fbe141aa8c53ab7b00d47a03dc6b4654fd2be6976",
      "scriptpubkey_type": "v1_p2tr",
      "scriptpubkey_address": "bc1p9gqxre4yjkp5fxzjgylmu9q64rzn4dasp4r6q0wxk3j5l547d9mqs6mmlj",
      "value": 330
    },
    {
      "scriptpubkey": "5120c713d1e4d114eed130b500b614b08e2483d4e88d5bba6c81fee82ea90c330167",
      "scriptpubkey_asm": "OP_PUSHNUM_1 OP_PUSHBYTES_32 c713d1e4d114eed130b500b614b08e2483d4e88d5bba6c81fee82ea90c330167",
      "scriptpubkey_type": "v1_p2tr",
      "scriptpubkey_address": "bc1pcufarex3znhdzv94qzmpfvywyjpaf6ydtwaxeq07aqh2jrpnq9nssqd4uw",
      "value": 2707616
    }
  ],
  "size": 312,
  "weight": 846,
  "fee": 5300,
  "status": {
    "confirmed": true,
    "block_height": 834638,
    "block_hash": "000000000000000000025f742c626208ac87e0b7d15054abb4a19ca2d735a54e",
    "block_time": 1710405325
  },
  "hex": "02000000000102a8db7f7011b58eef7ab0c76a42e4af265efbf0db04f10b19317ec0f09d41f3330000000000ffffffff1aacc0f269724c325da55733dba254ece2f980e2b423be8bbcbd8f8fa75eb4730100000000ffffffff024a010000000000002251202a0061e6a49583449852413fbe141aa8c53ab7b00d47a03dc6b4654fd2be6976a050290000000000225120c713d1e4d114eed130b500b614b08e2483d4e88d5bba6c81fee82ea90c330167014050ae7a2ae60600e92da0713854e4ec6bc0933dee818eec7eff8ef8be651f26f49965d6507b7237bbac51ed6c9227669b22e2e78e839d93be22718a61b752752101406577808e58db362c4404509cabef456f6000a438be7733dafc33d927f09bc18ea61778ba1a86c176cf5bf85c8cb5b89011f84253e1e1cfec6cf2a92736afa79500000000"
}