{
  "txid": "5432adbd56ecec66d599b346ca20778be6e89ace49e3a94f40daa87779bd2230",
  "version": 1,
  "locktime": 0,
  "vin": [
    {
      "txid": "888888888cc09aaec3138cccaa43631ebe941b3423ffc4d973f7823f89bedb2c",
      "vout": 0,
      "prevout": {
        "scriptpubkey": "51209f34d0da7309f9ec7b46478b16f7c39cdfc541d9d54176a8a0a885bd52a1cb84",
        "scriptpubkey_asm": "OP_PUSHNUM_1 OP_PUSHBYTES_32 9f34d0da7309f9ec7b46478b16f7c39cdfc541d9d54176a8a0a885bd52a1cb84",
        "scriptpubkey_type": "v1_p2tr",
        "scriptpubkey_address": "bc1pnu6dpknnp8u7c76xg793da7rnn0u2swe64qhd29q4zzm654pewzqfgkgxk",
        "value": 12071
      },
      "scriptsig": "",
      "scriptsig_asm": "",
      "witness": [
        "6c2f2df46a85a2cb580d046029ebdf837b27a462e99e9d7a7708f969797b14e6cd3744a886d516a872c8a98073ab610c07fcf38f0bd35e7ef1b72e4c58a0fbbf",
        "20964ac4b39c9655d5bed1908c028e5b13bdcc67f011169207c5b2bcfd1aaffa8cac00630461746f6d03646d7446a16461726773a46474696d651a65f13557656e6f6e63651a0001000468626974776f726b636b3838383838383838382e386b6d696e745f7469636b657268696e66696e69747968",
        "c1964ac4b39c9655d5bed1908c028e5b13bdcc67f011169207c5b2bcfd1aaffa8c"
      ],
      "is_coinbase": false,
      "sequence": 4294967295
    }
  ],
  "vout": [
    {
      "scriptpubkey": "5120c9778f0f7116a0fa90e759ca54b375f5c38d7db5875a2860af8354d65a8671e2",
      "scriptpubkey_asm": "OP_PUSHNUM_1 OP_PUSHBYTES_32 c9778f0f7116a0fa90e759ca54b375f5c38d7db5875a2860af8354d65a8671e2",
      "scriptpubkey_type": "v1_p2tr",
      "scriptpubkey_address": "bc1pe9mc7rm3z6s04y88t899fvm47hpc6ld4sadzsc90sd2dvk5xw83qeh2mmm",
      "value": 9999
    }
  ],
  "size": 314,
  "weight": 596,
  "fee": 2072,
  "status": {
    "confirmed": true,
    "block_height": 834460,
    "block_hash": "00000000000000000000484a79b643b2524bbce82e5d8a442013fa5b8905ed98",
    "block_time": 1710307468
  },
  "hex": "010000000001012cdbbe893f82f773d9c4ff23341b94be1e6343aacc8c13c3ae9ac08c888888880000000000ffffffff010f27000000000000225120c9778f0f7116a0fa90e759ca54b375f5c38d7db5875a2860af8354d65a8671e203406c2f2df46a85a2cb580d046029ebdf837b27a462e99e9d7a7708f969797b14e6cd3744a886d516a872c8a98073ab610c07fcf38f0bd35e7ef1b72e4c58a0fbbf7520964ac4b39c9655d5bed1908c028e5b13bdcc67f011169207c5b2bcfd1aaffa8cac00630461746f6d03646d7446a16461726773a46474696d651a65f13557656e6f6e63651a0001000468626974776f726b636b3838383838383838382e386b6d696e745f7469636b657268696e66696e6974796821c1964ac4b39c9655d5bed1908c028e5b13bdcc67f011169207c5b2bcfd1aaffa8c00000000"
}