{
  "txid": "54390621262a5826692b29bea2a8ef8d80f2bdeaad130f323338ee27af477031",
  "version": 2,
  "locktime": 0,
  "vin": [
    {
      "txid": "acc3ba00869acb582a3f2904ce3a11dd3779350ce234063fc7d0959246213364",
      "vout": 138,
      "prevout": {
        "scriptpubkey": "51206c32ce88c5b9bdaa3ef1bd1def0b2b208c0443adc0380e05261a74222cd0ecfe",
        "scriptpubkey_asm": "OP_PUSHNUM_1 OP_PUSHBYTES_32 6c32ce88c5b9bdaa3ef1bd1def0b2b208c0443adc0380e05261a74222cd0ecfe",
        "scriptpubkey_type": "v1_p2tr",
        "scriptpubkey_address": "bc1pdsevazx9hx7650h3h5w77zetyzxqgsadcququpfxrf6zytxsanlqplzcny",
        "value": 1806
      },
      "scriptsig": "",
      "scriptsig_asm": "",
      "witness": [
        "fd568454f2af5af9f0d3cc7582e3dfbc873cbf5b853d5baa28e36d0e732cb5bb18dd17bfdb2db08e18ffd810cce9b0aca4ff2f63fd580e689dca14f8db2e0c50",
        "20d6f29df030f5403232f11bcf8c3d8d4c544c9d7e23b459a18bda4928ea0c0465ac0063036f726401010a746578742f706c61696e00357b2270223a226272632d3230222c226f70223a226d696e74222c227469636b223a22646f6765222c22616d74223a2234323030227d68",
        "c0d6f29df030f5403232f11bcf8c3d8d4c544c9d7e23b459a18bda4928ea0c0465"
      ],
      "is_coinbase": false,
      "sequence": 4261412863
    }
  ],
  "vout": [
    {
      "scriptpubkey": "00147a665de7a370f4c9b372ab1fae587500a5bcbdb4",
      "scriptpubkey_asm": "OP_0 OP_PUSHBYTES_20 7a665de7a370f4c9b372ab1fae587500a5bcbdb4",
      "scriptpubkey_type": "v0_p2wpkh",
      "scriptpubkey_address": "bc1q0fn9mearwr6vnvmj4v06ukr4qzjme0d565dzcx",
      "value": 294
    }
  ],
  "size": 294,
  "weight": 540,
  "fee": 1512,
  "status": {
    "confirmed": true,
    "block_height": 834460,
    "block_hash": "00000000000000000000484a79b643b2524bbce82e5d8a442013fa5b8905ed98",
    "block_time": 1710307468
  },
  "hex": "02000000000101643321469295d0c73f0634e20c357937dd113ace04293f2a58cb9a8600bac3ac8a00000000fffffffd0126010000000000001600147a665de7a370f4c9b372ab1fae587500a5bcbdb40340fd568454f2af5af9f0d3cc7582e3dfbc873cbf5b853d5baa28e36d0e732cb5bb18dd17bfdb2db08e18ffd810cce9b0aca4ff2f63fd580e689dca14f8db2e0c506d20d6f29df030f5403232f11bcf8c3d8d4c544c9d7e23b459a18bda4928ea0c0465ac0063036f726401010a746578742f706c61696e00357b2270223a226272632d3230222c226f70223a226d696e74222c227469636b223a22646f6765222c22616d74223a2234323030227d6821c0d6f29df030f5403232f11bcf8c3d8d4c544c9d7e23b459a18bda4928ea0c046500000000"
}