{
  "txid": "5470967c00b7873c37abb69e8c634a97067287465fda9efff73f56150a1eb81a",
  "version": 2,
  "locktime": 0,
  "vin": [
    {
      "txid": "33198a5cbe2a53fc30099ab53009144888cef479020e7acbc065183b03c26d7b",
      "vout": 6,
      "prevout": {
        "scriptpubkey": "512006060b2fdf4f40958939a562e8707d4b35031c12e240e4db12cf569f13676bfd",
        "scriptpubkey_asm": "OP_PUSHNUM_1 OP_PUSHBYTES_32 06060b2fdf4f40958939a562e8707d4b35031c12e240e4db12cf569f13676bfd",
        "scriptpubkey_type": "v1_p2tr",
        "scriptpubkey_address": "bc1pqcrqkt7lfaqftzfe543wsurafv6sx8qjufqwfkcjeatf7ym8d07src7d0p",
        "value": 2658
      },
      "scriptsig": "",
      "scriptsig_asm": "",
      "witness": [
        "9dfd6353da33bf33084999c1ee5e33816a3258acf7e4a78bc76f22f8b5e795395a09060a33d57c52122dbcc2a6feea33103674e993d60df1fdbd62983afd3d27",
        "20d1a74f800eb6d0e611dce70cc0da26fa1f4874b42564ea56249850b4ee64d0c8ac0063036f726401011e6170706c69636174696f6e2f6a736f6e3b636861727365743d7574662d38004cbf7b2270223a22706f772d3230222c226f70223a226d696e74222c227469636b223a2250455045222c22616d74223a2231303030222c22736f6c7574696f6e223a22504550453a626331717832636c7935673578376b356a6b7376396d61346332753661646c7a78657470616e387071733a303030303030303030303030303030303030303139393431613561653132383937363539383134343239323533333030353762306461393666336465613163353a3530313239333332353231227d68",
        "c0da2c9a1920efdfbecd176e4adbb0ca1150e62509fd8a3a19d8331b0c89a8a97b"
      ],
      "is_coinbase": false,
      "sequence": 4294967295
    }
  ],
  "vout": [
    {
      "scriptpubkey": "001432b1f2511437ad495a0c2efb5c2b9aeb7e236561",
      "scriptpubkey_asm": "OP_0 OP_PUSHBYTES_20 32b1f2511437ad495a0c2efb5c2b9aeb7e236561",
      "scriptpubkey_type": "v0_p2wpkh",
      "scriptpubkey_address": "bc1qx2cly5g5x7k5jksv9ma4c2u6adlzxetpan8pqs",
      "value": 546
    }
  ],
  "size": 455,
  "weight": 701,
  "fee": 2112,
  "status": {
    "confirmed": true,
    "block_height": 834460,
    "block_hash": "00000000000000000000484a79b643b2524bbce82e5d8a442013fa5b8905ed98",
    "block_time": 1710307468
  },
  "hex": "020000000001017b6dc2033b1865c0cb7a0e0279f4ce8848140930b59a0930fc532abe5c8a19330600000000ffffffff01220200000000000016001432b1f2511437ad495a0c2efb5c2b9aeb7e23656103409dfd6353da33bf33084999c1ee5e33816a3258acf7e4a78bc76f22f8b5e795395a09060a33d57c52122dbcc2a6feea33103674e993d60df1fdbd62983afd3d27fd0c0120d1a74f800eb6d0e611dce70cc0da26fa1f4874b42564ea56249850b4ee64d0c8ac0063036f726401011e6170706c69636174696f6e2f6a736f6e3b636861727365743d7574662d38004cbf7b2270223a22706f772d3230222c226f70223a226d696e74222c227469636b223a2250455045222c22616d74223a2231303030222c22736f6c7574696f6e223a22504550453a626331717832636c7935673578376b356a6b7376396d61346332753661646c7a78657470616e387071733a303030303030303030303030303030303030303139393431613561653132383937363539383134343239323533333030353762306461393666336465613163353a3530313239333332353231227d6821c0da2c9a1920efdfbecd176e4adbb0ca1150e62509fd8a3a19d8331b0c89a8a97b00000000"
}