{
  "txid": "54741594d1a6d78760e79a804c20d119cf73c5b7f2624045e1663e2d713705b6",
  "version": 2,
  "locktime": 0,
  "vin": [
    {
      "txid": "7dd2f192fee367ea866844722f8dd9714417a24bd19fa4e66573758eba95e1b1",
      "vout": 1,
      "prevout": {
        "scriptpubkey": "0014ccfa0f03e6d9e8628175a3cfda383aa6ec5beb37",
        "scriptpubkey_asm": "OP_0 OP_PUSHBYTES_20 ccfa0f03e6d9e8628175a3cfda383aa6ec5beb37",
        "scriptpubkey_type": "v0_p2wpkh",
        "scriptpubkey_address": "bc1qenaq7qlxm85x9qt4508a5wp65mk9h6ehmxan8j",
        "value": 8664967
      },
      "scriptsig": "",
      "scriptsig_asm": "",
      "witness": [
        "3044022078339f8955cb4a52ea7eec3ace253dd046c410287aff408a5435fdfcac2ae5980220144c979a67d99c274f8ae2af507e0d08c9d0991d710ce3f112062f61c9cc894f01",
        "028eee75b2513959b188ea6d5d90c5c94eef42b2196616a2764806cc217354c87d"
      ],
      "is_coinbase": false,
      "sequence": 4294967295
    }
  ],
  "vout": [
    {
      "scriptpubkey": "5120e9cb401725066ac40edf189247c44f464a1bc3d5b7e9637a3ad41beca6e07b62",
      "scriptpubkey_asm": "OP_PUSHNUM_1 OP_PUSHBYTES_32 e9cb401725066ac40edf189247c44f464a1bc3d5b7e9637a3ad41beca6e07b62",
      "scriptpubkey_type": "v1_p2tr",
      "scriptpubkey_address": "bc1pa895q9e9qe4vgrklrzfy03z0ge9phs74kl5kx7366sd7efhq0d3qv347cs",
      "value": 1011861
    },
    {
      "scriptpubkey": "0014ccfa0f03e6d9e8628175a3cfda383aa6ec5beb37",
      "scriptpubkey_asm": "OP_0 OP_PUSHBYTES_20 ccfa0f03e6d9e8628175a3cfda383aa6ec5beb37",
      "scriptpubkey_type": "v0_p2wpkh",
      "scriptpubkey_address": "bc1qenaq7qlxm85x9qt4508a5wp65mk9h6ehmxan8j",
      "value": 7651423
    }
  ],
  "size": 234,
  "weight": 609,
  "fee": 1683,
  "status": {
    "confirmed": true,
    "block_height": 834464,
    "block_hash": "0000000000000000000177a0869a911a2b65c9bdcd5a8bcb02b68f305bee848e",
    "block_time": 1710308296
  },
  "hex": "02000000000101b1e195ba8e757365e6a49fd14ba2174471d98d2f72446886ea67e3fe92f1d27d0100000000ffffffff0295700f0000000000225120e9cb401725066ac40edf189247c44f464a1bc3d5b7e9637a3ad41beca6e07b625fc0740000000000160014ccfa0f03e6d9e8628175a3cfda383aa6ec5beb3702473044022078339f8955cb4a52ea7eec3ace253dd046c410287aff408a5435fdfcac2ae5980220144c979a67d99c274f8ae2af507e0d08c9d0991d710ce3f112062f61c9cc894f0121028eee75b2513959b188ea6d5d90c5c94eef42b2196616a2764806cc217354c87d00000000"
}