{
  "txid": "547914966f871354e653fecbd7b36aa72574572239f680c4dc07fc2fcfe47cec",
  "version": 2,
  "locktime": 0,
  "vin": [
    {
      "txid": "3c3c02d3ec77046c9348e8b69c85e37bdaeaf7bb58faa2997e8ea187fe3e4189",
      "vout": 0,
      "prevout": {
        "scriptpubkey": "0014cabde21dc9e58ac1a44e48d9f89c47fb3cf692a7",
        "scriptpubkey_asm": "OP_0 OP_PUSHBYTES_20 cabde21dc9e58ac1a44e48d9f89c47fb3cf692a7",
        "scriptpubkey_type": "v0_p2wpkh",
        "scriptpubkey_address": "bc1qe277y8wfuk9vrfzwfrvl38z8lv70dy48rqqv6y",
        "value": 26448275
      },
      "scriptsig": "",
      "scriptsig_asm": "",
      "witness": [
        "3045022100feedb06a20b8f1ec94a1401c29da47464e0222f3001a2d696bca60f6118ced3902201b901761bf1a2c618ee6b3f2f78d0dd3727e6a4bd52c2d57183e32e899b34f8b01",
        "027379ed86d4745c36beda866490de340e9702b9d5aca735f22df4b8b662c64528"
      ],
      "is_coinbase": false,
      "sequence": 2147483648
    }
  ],
  "vout": [
    {
      "scriptpubkey": "00143bc9061628be706811ef3734276deb0a73dfca0f",
      "scriptpubkey_asm": "OP_0 OP_PUSHBYTES_20 3bc9061628be706811ef3734276deb0a73dfca0f",
      "scriptpubkey_type": "v0_p2wpkh",
      "scriptpubkey_address": "bc1q80ysv93ghecxsy00xu6zwm0tpfealjs048vt25",
      "value": 613405
    },
    {
      "scriptpubkey": "0014f09818cf1ddac568be32af6f42a63a49f24b7541",
      "scriptpubkey_asm": "OP_0 OP_PUSHBYTES_20 f09818cf1ddac568be32af6f42a63a49f24b7541",
      "scriptpubkey_type": "v0_p2wpkh",
      "scriptpubkey_address": "bc1q7zvp3ncamtzk303j4ah59f36f8eyka2pzaelfj",
      "value": 25832242
    }
  ],
  "size": 223,
  "weight": 562,
  "fee": 2628,
  "status": {
    "confirmed": true,
    "block_height": 834638,
    "block_hash": "000000000000000000025f742c626208ac87e0b7d15054abb4a19ca2d735a54e",
    "block_time": 1710405325
  },
  "hex": "0200000000010189413efe87a18e7e99a2fa58bbf7eada7be3859cb6e848936c0477ecd3023c3c000000000000000080021d5c0900000000001600143bc9061628be706811ef3734276deb0a73dfca0f322b8a0100000000160014f09818cf1ddac568be32af6f42a63a49f24b754102483045022100feedb06a20b8f1ec94a1401c29da47464e0222f3001a2d696bca60f6118ced3902201b901761bf1a2c618ee6b3f2f78d0dd3727e6a4bd52c2d57183e32e899b34f8b0121027379ed86d4745c36beda866490de340e9702b9d5aca735f22df4b8b662c6452800000000"
}