{
  "txid": "549428a7c4f3f473e3d6bea478e499056a17b25d8006b37e08d77d9036a54caf",
  "version": 1,
  "locktime": 0,
  "vin": [
    {
      "txid": "888888888a7aaa5b9aaaff982926fa6f3aeba92551f2587c385bb39ca6d54398",
      "vout": 0,
      "prevout": {
        "scriptpubkey": "5120a1106d59fd9479ad1e733832816fd0122d720c13f414464446ea21dccc9ad6c7",
        "scriptpubkey_asm": "OP_PUSHNUM_1 OP_PUSHBYTES_32 a1106d59fd9479ad1e733832816fd0122d720c13f414464446ea21dccc9ad6c7",
        "scriptpubkey_type": "v1_p2tr",
        "scriptpubkey_address": "bc1p5ygx6k0aj3u668nn8qegzm7szgkhyrqn7s2yv3zxagsaeny66mrs0yhtqx",
        "value": 12071
      },
      "scriptsig": "",
      "scriptsig_asm": "",
      "witness": [
        "de677b9ed347e4286f7d5a0e1b5b83c1878475dc0511b9b3772d42b647cf24039d6068b206a7a786f4fd23bc3a3c5658e8ba9455e0afe7ac5a168b77bfd44b39",
        "203060b2bad7c5f4c7e5fb42222f243a95cb39ec6c0ff7fb8dcd2f3870241a6396ac00630461746f6d03646d7446a16461726773a46474696d651a65f1362c656e6f6e63651a0001000668626974776f726b636b3838383838383838382e386b6d696e745f7469636b657268696e66696e69747968",
        "c03060b2bad7c5f4c7e5fb42222f243a95cb39ec6c0ff7fb8dcd2f3870241a6396"
      ],
      "is_coinbase": false,
      "sequence": 4294967295
    }
  ],
  "vout": [
    {
      "scriptpubkey": "512093db24fa9a31d03624560c24bc678ef6143e8cbb4fe9cd39f5f731f7beabf37e",
      "scriptpubkey_asm": "OP_PUSHNUM_1 OP_PUSHBYTES_32 93db24fa9a31d03624560c24bc678ef6143e8cbb4fe9cd39f5f731f7beabf37e",
      "scriptpubkey_type": "v1_p2tr",
      "scriptpubkey_address": "bc1pj0djf756x8grvfzkpsjtceuw7c2rar9mfl5u6w047ucl004t7dlqge98q0",
      "value": 9999
    }
  ],
  "size": 314,
  "weight": 596,
  "fee": 2072,
  "status": {
    "confirmed": true,
    "block_height": 834460,
    "block_hash": "00000000000000000000484a79b643b2524bbce82e5d8a442013fa5b8905ed98",
    "block_time": 1710307468
  },
  "hex": "010000000001019843d5a69cb35b387c58f25125a9eb3a6ffa262998ffaa9a5baa7a8a888888880000000000ffffffff010f2700000000000022512093db24fa9a31d03624560c24bc678ef6143e8cbb4fe9cd39f5f731f7beabf37e0340de677b9ed347e4286f7d5a0e1b5b83c1878475dc0511b9b3772d42b647cf24039d6068b206a7a786f4fd23bc3a3c5658e8ba9455e0afe7ac5a168b77bfd44b3975203060b2bad7c5f4c7e5fb42222f243a95cb39ec6c0ff7fb8dcd2f3870241a6396ac00630461746f6d03646d7446a16461726773a46474696d651a65f1362c656e6f6e63651a0001000668626974776f726b636b3838383838383838382e386b6d696e745f7469636b657268696e66696e6974796821c03060b2bad7c5f4c7e5fb42222f243a95cb39ec6c0ff7fb8dcd2f3870241a639600000000"
}