{
  "txid": "5499bcc9db4bf8020d6a3b02fd042587cb48ea4c47ea693d707b77b80f21a1b0",
  "version": 1,
  "locktime": 0,
  "vin": [
    {
      "txid": "97e499d5d928ca6d2ee783e7bfc7ba722f10b2fec668d304d83233e45bca1756",
      "vout": 1,
      "prevout": {
        "scriptpubkey": "0014dacd60c7423c1f7f7260135ccbb8541b938c717d",
        "scriptpubkey_asm": "OP_0 OP_PUSHBYTES_20 dacd60c7423c1f7f7260135ccbb8541b938c717d",
        "scriptpubkey_type": "v0_p2wpkh",
        "scriptpubkey_address": "bc1qmtxkp36z8s0h7unqzdwvhwz5rwfccuta280sdl",
        "value": 6446
      },
      "scriptsig": "",
      "scriptsig_asm": "",
      "witness": [
        "3044022050d7d9d4f239d25a4cc0a1777c165a63687969f10943642406e9b6143d00c7d602201f7d358b61db2dfcbe91d0738b01073c5074acfa639292b10e8e12793146deb401",
        "0369e1b96bc0302060daa2a36f530a51010e205a706058efe8d742f1eba4ecc5f9"
      ],
      "is_coinbase": false,
      "sequence": 4294967295
    },
    {
      "txid": "2eef7e631311ec2b279776a22bd1751dfa1f42c1d35842564069a276ddea4f0e",
      "vout": 165,
      "prevout": {
        "scriptpubkey": "0014dacd60c7423c1f7f7260135ccbb8541b938c717d",
        "scriptpubkey_asm": "OP_0 OP_PUSHBYTES_20 dacd60c7423c1f7f7260135ccbb8541b938c717d",
        "scriptpubkey_type": "v0_p2wpkh",
        "scriptpubkey_address": "bc1qmtxkp36z8s0h7unqzdwvhwz5rwfccuta280sdl",
        "value": 18729
      },
      "scriptsig": "",
      "scriptsig_asm": "",
      "witness": [
        "3045022100f62c006bef40efa90668d2135ed80851b780e75084f7f8f4e7587bc56bc8822f0220694919bb5ff634d68413ed8f813386e8d2afeb03f0ab50c34797500aadb80d0901",
        "0369e1b96bc0302060daa2a36f530a51010e205a706058efe8d742f1eba4ecc5f9"
      ],
      "is_coinbase": false,
      "sequence": 4294967295
    },
    {
      "txid": "e9657a3d49fd02c881e88701648ce5fed809f46ed0ffa0d58ffa2cdf52905d5a",
      "vout": 1,
      "prevout": {
        "scriptpubkey": "0014dacd60c7423c1f7f7260135ccbb8541b938c717d",
        "scriptpubkey_asm": "OP_0 OP_PUSHBYTES_20 dacd60c7423c1f7f7260135ccbb8541b938c717d",
        "scriptpubkey_type": "v0_p2wpkh",
        "scriptpubkey_address": "bc1qmtxkp36z8s0h7unqzdwvhwz5rwfccuta280sdl",
        "value": 33303
      },
      "scriptsig": "",
      "scriptsig_asm": "",
      "witness": [
        "3045022100d3259357893dedf4d39a83e4bb34e269ef65f4ab0836e4aec7cec6480b218362022060d63ac9d63fe1f4b59d42061ed2a202eefaf3d2a39c3002ac5b294d3bd0719901",
        "0369e1b96bc0302060daa2a36f530a51010e205a706058efe8d742f1eba4ecc5f9"
      ],
      "is_coinbase": false,
      "sequence": 4294967295
    }
  ],
  "vout": [
    {
      "scriptpubkey": "76a91401dafacc422d05d5027112011f1a512b33ba7da888ac",
      "scriptpubkey_asm": "OP_DUP OP_HASH160 OP_PUSHBYTES_20 01dafacc422d05d5027112011f1a512b33ba7da8 OP_EQUALVERIFY OP_CHECKSIG",
      "scriptpubkey_type": "p2pkh",
      "scriptpubkey_address": "1Ap1AfiKUVgotDyKVr1Vy3iSPoDoibpr5",
      "value": 47717
    },
    {
      "scriptpubkey": "0014dacd60c7423c1f7f7260135ccbb8541b938c717d",
      "scriptpubkey_asm": "OP_0 OP_PUSHBYTES_20 dacd60c7423c1f7f7260135ccbb8541b938c717d",
      "scriptpubkey_type": "v0_p2wpkh",
      "scriptpubkey_address": "bc1qmtxkp36z8s0h7unqzdwvhwz5rwfccuta280sdl",
      "value": 3201
    }
  ],
  "size": 523,
  "weight": 1117,
  "fee": 7560,
  "status": {
    "confirmed": true,
    "block_height": 834638,
    "block_hash": "000000000000000000025f742c626208ac87e0b7d15054abb4a19ca2d735a54e",
    "block_time": 1710405325
  },
  "hex": "010000000001035617ca5be43332d804d368c6feb2102f72bac7bfe783e72e6dca28d9d599e4970100000000ffffffff0e4feadd76a26940564258d3c1421ffa1d75d12ba27697272bec1113637eef2ea500000000ffffffff5a5d9052df2cfa8fd5a0ffd06ef409d8fee58c640187e881c802fd493d7a65e90100000000ffffffff0265ba0000000000001976a91401dafacc422d05d5027112011f1a512b33ba7da888ac810c000000000000160014dacd60c7423c1f7f7260135ccbb8541b938c717d02473044022050d7d9d4f239d25a4cc0a1777c165a63687969f10943642406e9b6143d00c7d602201f7d358b61db2dfcbe91d0738b01073c5074acfa639292b10e8e12793146deb401210369e1b96bc0302060daa2a36f530a51010e205a706058efe8d742f1eba4ecc5f902483045022100f62c006bef40efa90668d2135ed80851b780e75084f7f8f4e7587bc56bc8822f0220694919bb5ff634d68413ed8f813386e8d2afeb03f0ab50c34797500aadb80d0901210369e1b96bc0302060daa2a36f530a51010e205a706058efe8d742f1eba4ecc5f902483045022100d3259357893dedf4d39a83e4bb34e269ef65f4ab0836e4aec7cec6480b218362022060d63ac9d63fe1f4b59d42061ed2a202eefaf3d2a39c3002ac5b294d3bd0719901210369e1b96bc0302060daa2a36f530a51010e205a706058efe8d742f1eba4ecc5f900000000"
}