{
  "txid": "549b2b25ce0d26d08b9374f76c4bcf378488e7a4811d832085852ff30294d8b3",
  "version": 2,
  "locktime": 0,
  "vin": [
    {
      "txid": "5324457bc1f6a80e93c0f466d89a3c78af455bbdf8876490a5b3d437f1559950",
      "vout": 1,
      "prevout": {
        "scriptpubkey": "00149e87beafe635a1a106d229a73020237ff376fd1f",
        "scriptpubkey_asm": "OP_0 OP_PUSHBYTES_20 9e87beafe635a1a106d229a73020237ff376fd1f",
        "scriptpubkey_type": "v0_p2wpkh",
        "scriptpubkey_address": "bc1qn6rmatlxxks6zpkj9xnnqgpr0lehdlgl0zz92d",
        "value": 356337
      },
      "scriptsig": "",
      "scriptsig_asm": "",
      "witness": [
        "3045022100e0cb35b902aa2de1eeba274aa91735b38178ba6923a4ac9882ada7ea96a2d5b30220116d614f8af179a659cff8e49f268e2fcae98ed1dd1ddb9f6db3e5d59ff539fc01",
        "029d18e9d689bd1f298f234ea566be7bb13114c3c3f7de1c04759a8a6d24e93324"
      ],
      "is_coinbase": false,
      "sequence": 4294967295
    },
    {
      "txid": "039ebe836a611e619ebe1184a542932c323ffc4bb1721a87ddce56bca9bf6767",
      "vout": 1,
      "prevout": {
        "scriptpubkey": "0014ceba0305ba39073ea7b1e131b89b26ad208fc941",
        "scriptpubkey_asm": "OP_0 OP_PUSHBYTES_20 ceba0305ba39073ea7b1e131b89b26ad208fc941",
        "scriptpubkey_type": "v0_p2wpkh",
        "scriptpubkey_address": "bc1qe6aqxpd68yrnafa3uycm3xex45sglj2pdqtrff",
        "value": 449529
      },
      "scriptsig": "",
      "scriptsig_asm": "",
      "witness": [
        "304402207832581d2b6d11128b38503decb22c91808428cffdc037b7efa814b8e0ca9d4002205e062ff44d161d8530e0d5b6600acb1b5b7800e310baea2fcee04474dfc6aa4401",
        "02e9c48caa154392abb67a330558cb42fd70bcae6a6d80573179834dd7457f3e49"
      ],
      "is_coinbase": false,
      "sequence": 4294967295
    },
    {
      "txid": "17f9e46de135b90715f13cd3102267489d3d39eab1bbd3c37da63c431bb24ec8",
      "vout": 14,
      "prevout": {
        "scriptpubkey": "0014a88830db42fb667215c5c691c1d083d9b8fe177f",
        "scriptpubkey_asm": "OP_0 OP_PUSHBYTES_20 a88830db42fb667215c5c691c1d083d9b8fe177f",
        "scriptpubkey_type": "v0_p2wpkh",
        "scriptpubkey_address": "bc1q4zyrpk6zldn8y9w9c6gur5yrmxu0u9ml0gf7kd",
        "value": 742790
      },
      "scriptsig": "",
      "scriptsig_asm": "",
      "witness": [
        "3045022100f0459c0b5bb967c67fa20e613fb0bcd57bd7d7a665c27fe73fe31b88aafaed7f02201ffaa326612c4940cb62ccf389a183c8fca95966ca317d9cfe6435a94e83c29001",
        "03da698b0db445bfe7ee9038683b68b1a97661ca29ae64f9abc657148c77d04c5c"
      ],
      "is_coinbase": false,
      "sequence": 4294967295
    },
    {
      "txid": "b692ec0ff3469de9ac07f97e7fb68e96bf9dc94d0281aebb1abbcf66ec36894d",
      "vout": 29,
      "prevout": {
        "scriptpubkey": "00142c6bade62f6340c99a704e01f8f0d503a383927b",
        "scriptpubkey_asm": "OP_0 OP_PUSHBYTES_20 2c6bade62f6340c99a704e01f8f0d503a383927b",
        "scriptpubkey_type": "v0_p2wpkh",
        "scriptpubkey_address": "bc1q9346me30vdqvnxnsfcql3ux4qw3c8ynmmqkppr",
        "value": 1344429
      },
      "scriptsig": "",
      "scriptsig_asm": "",
      "witness": [
        "3044022056a23bd3d4a537d86c63500c6b36b0388f07fd747db2ec5b0cefdd0b2eee9c2f022061979e74c9f7616e73cf403f0e2bdeb7c21c208b524e9764cd336a1f488d604c01",
        "03d7d2e9f4c10780f94fd76009a50d3b7cf7698df86e10d12a5fa310d99bfcede4"
      ],
      "is_coinbase": false,
      "sequence": 4294967295
    },
    {
      "txid": "b53d13ea0f9123f8b69fb0de8a2c29af3c4a196b8b098acca16b16ce5f08ee7a",
      "vout": 20,
      "prevout": {
        "scriptpubkey": "001490f2dbf75f88ce09cac8773c945730b258379ceb",
        "scriptpubkey_asm": "OP_0 OP_PUSHBYTES_20 90f2dbf75f88ce09cac8773c945730b258379ceb",
        "scriptpubkey_type": "v0_p2wpkh",
        "scriptpubkey_address": "bc1qjredha6l3r8qnjkgwu7fg4eskfvr088tdyk6d8",
        "value": 1591958
      },
      "scriptsig": "",
      "scriptsig_asm": "",
      "witness": [
        "3045022100cc5d6ab6ba416144de21b222e3368a3e1895373ce0676c37d118634c621072d5022075fe62c9d55b90e527176df9bd8c6d70bda058f1b48fc5364083a0a9168a15e601",
        "03f9d2036d651949f0d575abd5ceea1fd1382203989eecf12190b364a4b04a264a"
      ],
      "is_coinbase": false,
      "sequence": 4294967295
    },
    {
      "txid": "9ff4d7cc49df2625ea7a1bf30e1fbb460ca6c4f92d1a7b2e277aa6d7b776cc01",
      "vout": 2,
      "prevout": {
        "scriptpubkey": "0014dd569cdff79fe54379660d7f0c370c52d499368c",
        "scriptpubkey_asm": "OP_0 OP_PUSHBYTES_20 dd569cdff79fe54379660d7f0c370c52d499368c",
        "scriptpubkey_type": "v0_p2wpkh",
        "scriptpubkey_address": "bc1qm4tfehlhnlj5x7txp4lscdcv2t2fjd5vqsrh4r",
        "value": 1461478
      },
      "scriptsig": "",
      "scriptsig_asm": "",
      "witness": [
        "3044022033d1aa530e60a73f7e3ac3fc484ca936df511043c00fcbec128a665dfa426f240220513cf2471c7f7a9bcf518ede0b0c305dfd7eb3aff651b3d5a6f201fca03ee10e01",
        "02491d907c9a06522b0fedb3e0df73669725ef1cbf021c7f7167d4c5f9c1fd05db"
      ],
      "is_coinbase": false,
      "sequence": 4294967295
    },
    {
      "txid": "84f5b42157c6f8da72e17aed9f90ef6d9d82f4ec0864a292c47701b8a4b39fa4",
      "vout": 26,
      "prevout": {
        "scriptpubkey": "0014520001ac51e1cbec8487f2384653c0f23eeaada3",
        "scriptpubkey_asm": "OP_0 OP_PUSHBYTES_20 520001ac51e1cbec8487f2384653c0f23eeaada3",
        "scriptpubkey_type": "v0_p2wpkh",
        "scriptpubkey_address": "bc1q2gqqrtz3u897epy87guyv57q7glw4tdrggem2t",
        "value": 1487813
      },
      "scriptsig": "",
      "scriptsig_asm": "",
      "witness": [
        "3044022022c0545208d75d615e9512edd890676d73f3e945ed81633c603c45bed46e10270220527e84ffcca926814bf2993f39ce68d3309a409f430a25a241369bdc60adad3a01",
        "033cffc34cd66a2fdaf5662a6fc7213b6baef3733f6b8a2cf95f0ae5aa3615ba1c"
      ],
      "is_coinbase": false,
      "sequence": 4294967295
    },
    {
      "txid": "bfde3ac776116340736023ad0f687d2ac9abeda9dc19add311174a8523159aa2",
      "vout": 7,
      "prevout": {
        "scriptpubkey": "0014429caa314d94a0d1ac017640c22c7512d2e51c4d",
        "scriptpubkey_asm": "OP_0 OP_PUSHBYTES_20 429caa314d94a0d1ac017640c22c7512d2e51c4d",
        "scriptpubkey_type": "v0_p2wpkh",
        "scriptpubkey_address": "bc1qg2w25v2djjsdrtqpweqvytr4ztfw28zd4vvn2y",
        "value": 691279
      },
      "scriptsig": "",
      "scriptsig_asm": "",
      "witness": [
        "304502210094d4b60b70b02fc1c03ed98695d756a88e4894926511ae1d22413638560c572502206f930313eb75488c5854c4def009743bb8d04f67c7a79c0b102d01a19541ad9b01",
        "020c805a796c028237e7df0870fca1acf162a3811c28a6ce109c4c169ece28d7b3"
      ],
      "is_coinbase": false,
      "sequence": 4294967295
    },
    {
      "txid": "e231d077eb59da9fe5c1ecaf49f4f7f58746fa2a89036742310a8c7e7e783861",
      "vout": 48,
      "prevout": {
        "scriptpubkey": "0014a245f2ce77da76c86c2290927165f23336816cce",
        "scriptpubkey_asm": "OP_0 OP_PUSHBYTES_20 a245f2ce77da76c86c2290927165f23336816cce",
        "scriptpubkey_type": "v0_p2wpkh",
        "scriptpubkey_address": "bc1q5fzl9nnhmfmvsmpzjzf8ze0jxvmgzmxwxntdac",
        "value": 2238101
      },
      "scriptsig": "",
      "scriptsig_asm": "",
      "witness": [
        "3045022100aaff96f4cfb61151bc9daaa591d40d660aba6ccc69388f4f774213022b395efa0220145baecaddc86f8a254a3985f70c27747a93e181720651964691a64b98350f8001",
        "03893c9b1efce1674a2da905a0d9eafc36f478e6036517c233546cbcd6f27e5307"
      ],
      "is_coinbase": false,
      "sequence": 4294967295
    }
  ],
  "vout": [
    {
      "scriptpubkey": "76a914f713ec7e9bbd1bf977df6773937664184b12760488ac",
      "scriptpubkey_asm": "OP_DUP OP_HASH160 OP_PUSHBYTES_20 f713ec7e9bbd1bf977df6773937664184b127604 OP_EQUALVERIFY OP_CHECKSIG",
      "scriptpubkey_type": "p2pkh",
      "scriptpubkey_address": "1PXRmiKoSHSLUw8GQNRw8jfUacxx67sjtJ",
      "value": 10351888
    }
  ],
  "size": 1383,
  "weight": 2622,
  "fee": 11826,
  "status": {
    "confirmed": true,
    "block_height": 834638,
    "block_hash": "000000000000000000025f742c626208ac87e0b7d15054abb4a19ca2d735a54e",
    "block_time": 1710405325
  },
  "hex": "02000000000109509955f137d4b3a5906487f8bd5b45af783c9ad866f4c0930ea8f6c17b4524530100000000ffffffff6767bfa9bc56cedd871a72b14bfc3f322c9342a58411be9e611e616a83be9e030100000000ffffffffc84eb21b433ca67dc3d3bbb1ea393d9d48672210d33cf11507b935e16de4f9170e00000000ffffffff4d8936ec66cfbb1abbae81024dc99dbf968eb67f7ef907ace99d46f30fec92b61d00000000ffffffff7aee085fce166ba1cc8a098b6b194a3caf292c8adeb09fb6f823910fea133db51400000000ffffffff01cc76b7d7a67a272e7b1a2df9c4a60c46bb1f0ef31b7aea2526df49ccd7f49f0200000000ffffffffa49fb3a4b80177c492a26408ecf4829d6def909fed7ae172daf8c65721b4f5841a00000000ffffffffa29a1523854a1711d3ad19dca9edabc92a7d680fad23607340631176c73adebf0700000000ffffffff6138787e7e8c0a31426703892afa4687f5f7f449afecc1e59fda59eb77d031e23000000000ffffffff0110f59d00000000001976a914f713ec7e9bbd1bf977df6773937664184b12760488ac02483045022100e0cb35b902aa2de1eeba274aa91735b38178ba6923a4ac9882ada7ea96a2d5b30220116d614f8af179a659cff8e49f268e2fcae98ed1dd1ddb9f6db3e5d59ff539fc0121029d18e9d689bd1f298f234ea566be7bb13114c3c3f7de1c04759a8a6d24e933240247304402207832581d2b6d11128b38503decb22c91808428cffdc037b7efa814b8e0ca9d4002205e062ff44d161d8530e0d5b6600acb1b5b7800e310baea2fcee04474dfc6aa44012102e9c48caa154392abb67a330558cb42fd70bcae6a6d80573179834dd7457f3e4902483045022100f0459c0b5bb967c67fa20e613fb0bcd57bd7d7a665c27fe73fe31b88aafaed7f02201ffaa326612c4940cb62ccf389a183c8fca95966ca317d9cfe6435a94e83c290012103da698b0db445bfe7ee9038683b68b1a97661ca29ae64f9abc657148c77d04c5c02473044022056a23bd3d4a537d86c63500c6b36b0388f07fd747db2ec5b0cefdd0b2eee9c2f022061979e74c9f7616e73cf403f0e2bdeb7c21c208b524e9764cd336a1f488d604c012103d7d2e9f4c10780f94fd76009a50d3b7cf7698df86e10d12a5fa310d99bfcede402483045022100cc5d6ab6ba416144de21b222e3368a3e1895373ce0676c37d118634c621072d5022075fe62c9d55b90e527176df9bd8c6d70bda058f1b48fc5364083a0a9168a15e6012103f9d2036d651949f0d575abd5ceea1fd1382203989eecf12190b364a4b04a264a02473044022033d1aa530e60a73f7e3ac3fc484ca936df511043c00fcbec128a665dfa426f240220513cf2471c7f7a9bcf518ede0b0c305dfd7eb3aff651b3d5a6f201fca03ee10e012102491d907c9a06522b0fedb3e0df73669725ef1cbf021c7f7167d4c5f9c1fd05db02473044022022c0545208d75d615e9512edd890676d73f3e945ed81633c603c45bed46e10270220527e84ffcca926814bf2993f39ce68d3309a409f430a25a241369bdc60adad3a0121033cffc34cd66a2fdaf5662a6fc7213b6baef3733f6b8a2cf95f0ae5aa3615ba1c0248304502210094d4b60b70b02fc1c03ed98695d756a88e4894926511ae1d22413638560c572502206f930313eb75488c5854c4def009743bb8d04f67c7a79c0b102d01a19541ad9b0121020c805a796c028237e7df0870fca1acf162a3811c28a6ce109c4c169ece28d7b302483045022100aaff96f4cfb61151bc9daaa591d40d660aba6ccc69388f4f774213022b395efa0220145baecaddc86f8a254a3985f70c27747a93e181720651964691a64b98350f80012103893c9b1efce1674a2da905a0d9eafc36f478e6036517c233546cbcd6f27e530700000000"
}