{
  "txid": "54a684587e818c815dbc557e8652456ce4805e48a34688ca3b63c9bb62114588",
  "version": 2,
  "locktime": 0,
  "vin": [
    {
      "txid": "2f989298143a04febd0cc00d2948ebf738b0d0b6f59178a40b19c62f42466d5b",
      "vout": 1,
      "prevout": {
        "scriptpubkey": "0014787e558d7a67e42ce01e340427756c47b7d024a1",
        "scriptpubkey_asm": "OP_0 OP_PUSHBYTES_20 787e558d7a67e42ce01e340427756c47b7d024a1",
        "scriptpubkey_type": "v0_p2wpkh",
        "scriptpubkey_address": "bc1q0pl9trt6vljzecq7xszzwatvg7maqf9p347zcy",
        "value": 546
      },
      "scriptsig": "",
      "scriptsig_asm": "",
      "witness": [
        "3045022100de4a7dcf9f786eb993753201229d41531301676b66b2d3343df383e7e31a3a9902207b249e8fffaef1651b7838d7601c88167a90d76919a23313f78678d7da5b5b1f01",
        "035ceb448f83177f7bddc2cdd7131f66d0d9198091b9e7264e6b0fcc9c895cba76"
      ],
      "is_coinbase": false,
      "sequence": 4294967293
    },
    {
      "txid": "86daa9c5f5ba9281bd2103bd12740178892c031953390048be9f373d906e1220",
      "vout": 6,
      "prevout": {
        "scriptpubkey": "0014787e558d7a67e42ce01e340427756c47b7d024a1",
        "scriptpubkey_asm": "OP_0 OP_PUSHBYTES_20 787e558d7a67e42ce01e340427756c47b7d024a1",
        "scriptpubkey_type": "v0_p2wpkh",
        "scriptpubkey_address": "bc1q0pl9trt6vljzecq7xszzwatvg7maqf9p347zcy",
        "value": 69413
      },
      "scriptsig": "",
      "scriptsig_asm": "",
      "witness": [
        "3044022061139f6859cfbc94a389d909033ce378392954888aa8ae3a352f00c6e4c1e78502202b9e84120aa6aef47cc91685e450e118335b961294da46c1c1703ec95c66662301",
        "035ceb448f83177f7bddc2cdd7131f66d0d9198091b9e7264e6b0fcc9c895cba76"
      ],
      "is_coinbase": false,
      "sequence": 4294967293
    }
  ],
  "vout": [
    {
      "scriptpubkey": "5120f88a4954f9cca9c51b974b93ddee3a52006b665a6bbbd3e885a7b396a65aa1a7",
      "scriptpubkey_asm": "OP_PUSHNUM_1 OP_PUSHBYTES_32 f88a4954f9cca9c51b974b93ddee3a52006b665a6bbbd3e885a7b396a65aa1a7",
      "scriptpubkey_type": "v1_p2tr",
      "scriptpubkey_address": "bc1plz9yj48eej5u2xuhfwfamm362gqxkej6dwaa86y957eedfj65xnsuks3km",
      "value": 546
    },
    {
      "scriptpubkey": "0014787e558d7a67e42ce01e340427756c47b7d024a1",
      "scriptpubkey_asm": "OP_0 OP_PUSHBYTES_20 787e558d7a67e42ce01e340427756c47b7d024a1",
      "scriptpubkey_type": "v0_p2wpkh",
      "scriptpubkey_address": "bc1q0pl9trt6vljzecq7xszzwatvg7maqf9p347zcy",
      "value": 66333
    }
  ],
  "size": 383,
  "weight": 881,
  "fee": 3080,
  "status": {
    "confirmed": true,
    "block_height": 834552,
    "block_hash": "00000000000000000001dd0468a70c94f619251d286585cff57aeb4bd9ede330",
    "block_time": 1710355598
  },
  "hex": "020000000001025b6d46422fc6190ba47891f5b6d0b038f7eb48290dc00cbdfe043a149892982f0100000000fdffffff20126e903d379fbe4800395319032c8978017412bd0321bd8192baf5c5a9da860600000000fdffffff022202000000000000225120f88a4954f9cca9c51b974b93ddee3a52006b665a6bbbd3e885a7b396a65aa1a71d03010000000000160014787e558d7a67e42ce01e340427756c47b7d024a102483045022100de4a7dcf9f786eb993753201229d41531301676b66b2d3343df383e7e31a3a9902207b249e8fffaef1651b7838d7601c88167a90d76919a23313f78678d7da5b5b1f0121035ceb448f83177f7bddc2cdd7131f66d0d9198091b9e7264e6b0fcc9c895cba7602473044022061139f6859cfbc94a389d909033ce378392954888aa8ae3a352f00c6e4c1e78502202b9e84120aa6aef47cc91685e450e118335b961294da46c1c1703ec95c6666230121035ceb448f83177f7bddc2cdd7131f66d0d9198091b9e7264e6b0fcc9c895cba7600000000"
}