{
  "txid": "54ad84f9eafea39b70af34512d1efbc4cc44121a66ea2f916912ae226006c0b9",
  "version": 2,
  "locktime": 0,
  "vin": [
    {
      "txid": "a7f9cdf77b3f7e5216f472faed5c9b357d9e9b571778ef80f5c037427281d2a8",
      "vout": 1,
      "prevout": {
        "scriptpubkey": "76a9145d48d2c51475e954f6ea4fd825adc11b345f7ec888ac",
        "scriptpubkey_asm": "OP_DUP OP_HASH160 OP_PUSHBYTES_20 5d48d2c51475e954f6ea4fd825adc11b345f7ec8 OP_EQUALVERIFY OP_CHECKSIG",
        "scriptpubkey_type": "p2pkh",
        "scriptpubkey_address": "19WF5hCt7GyFYxjre6AH2HaXDLuoPwQwi2",
        "value": 5667
      },
      "scriptsig": "483045022100913440dfb587a99a57c5f909ac6afd553e36c6fe6dfc4dc0268b4b2336a6ed8d022038ac937ecd80e9632b7fea654870383d17da3c7c288c9365f58551eaf8e02af001210242e99239e1e2354d5f7927e8c3533e9c1516275a4e345983a5d00932577af019",
      "scriptsig_asm": "OP_PUSHBYTES_72 3045022100913440dfb587a99a57c5f909ac6afd553e36c6fe6dfc4dc0268b4b2336a6ed8d022038ac937ecd80e9632b7fea654870383d17da3c7c288c9365f58551eaf8e02af001 OP_PUSHBYTES_33 0242e99239e1e2354d5f7927e8c3533e9c1516275a4e345983a5d00932577af019",
      "is_coinbase": false,
      "sequence": 4294967295
    },
    {
      "txid": "1248ea75ce4301c6c7e3a0958afadbcaed1b68f3c2ee3910c8b8f30dedcecd56",
      "vout": 0,
      "prevout": {
        "scriptpubkey": "76a914acd783f632ad040fc72d9a06ec17ffb2d8a97a5d88ac",
        "scriptpubkey_asm": "OP_DUP OP_HASH160 OP_PUSHBYTES_20 acd783f632ad040fc72d9a06ec17ffb2d8a97a5d OP_EQUALVERIFY OP_CHECKSIG",
        "scriptpubkey_type": "p2pkh",
        "scriptpubkey_address": "1GkuQGoy1erCJfQKY9AGC75rttCBQRtGer",
        "value": 275995
      },
      "scriptsig": "47304402203fc52d52c7e24d4c8b84d2ba145f6c3a5e5594450f3572ce8576458e4cf24e780220358ee031fd316223da3dd02dacd792300221ff8603a5b1b5dba3b59e6362b45e01210377c44adefb8533b5a926cd616fc1a76d7f2fd4f44e2d85528e3220f4ba08ede6",
      "scriptsig_asm": "OP_PUSHBYTES_71 304402203fc52d52c7e24d4c8b84d2ba145f6c3a5e5594450f3572ce8576458e4cf24e780220358ee031fd316223da3dd02dacd792300221ff8603a5b1b5dba3b59e6362b45e01 OP_PUSHBYTES_33 0377c44adefb8533b5a926cd616fc1a76d7f2fd4f44e2d85528e3220f4ba08ede6",
      "is_coinbase": false,
      "sequence": 4294967295
    }
  ],
  "vout": [
    {
      "scriptpubkey": "76a9141e7cd64836347761c0f4bd8ccdc7f0294d513c2888ac",
      "scriptpubkey_asm": "OP_DUP OP_HASH160 OP_PUSHBYTES_20 1e7cd64836347761c0f4bd8ccdc7f0294d513c28 OP_EQUALVERIFY OP_CHECKSIG",
      "scriptpubkey_type": "p2pkh",
      "scriptpubkey_address": "13nCpauA7h7ad3NXaVQHY4HsEKHZfVrHrL",
      "value": 250000
    },
    {
      "scriptpubkey": "76a914447a44164163fe675100a701d3eff45e3f143ebc88ac",
      "scriptpubkey_asm": "OP_DUP OP_HASH160 OP_PUSHBYTES_20 447a44164163fe675100a701d3eff45e3f143ebc OP_EQUALVERIFY OP_CHECKSIG",
      "scriptpubkey_type": "p2pkh",
      "scriptpubkey_address": "17F5REVXkc1C8wdMdRo5VMeEuhwLN1ePLR",
      "value": 18828
    }
  ],
  "size": 373,
  "weight": 1492,
  "fee": 12834,
  "status": {
    "confirmed": true,
    "block_height": 834638,
    "block_hash": "000000000000000000025f742c626208ac87e0b7d15054abb4a19ca2d735a54e",
    "block_time": 1710405325
  },
  "hex": "0200000002a8d281724237c0f580ef7817579b9e7d359b5cedfa72f416527e3f7bf7cdf9a7010000006b483045022100913440dfb587a99a57c5f909ac6afd553e36c6fe6dfc4dc0268b4b2336a6ed8d022038ac937ecd80e9632b7fea654870383d17da3c7c288c9365f58551eaf8e02af001210242e99239e1e2354d5f7927e8c3533e9c1516275a4e345983a5d00932577af019ffffffff56cdceed0df3b8c81039eec2f3681bedcadbfa8a95a0e3c7c60143ce75ea4812000000006a47304402203fc52d52c7e24d4c8b84d2ba145f6c3a5e5594450f3572ce8576458e4cf24e780220358ee031fd316223da3dd02dacd792300221ff8603a5b1b5dba3b59e6362b45e01210377c44adefb8533b5a926cd616fc1a76d7f2fd4f44e2d85528e3220f4ba08ede6ffffffff0290d00300000000001976a9141e7cd64836347761c0f4bd8ccdc7f0294d513c2888ac8c490000000000001976a914447a44164163fe675100a701d3eff45e3f143ebc88ac00000000"
}