{
  "txid": "54b042c2adfdcb615fa41bf5a559af7058adb10efa573d853951a3da1a897bd5",
  "version": 2,
  "locktime": 0,
  "vin": [
    {
      "txid": "eb554a3334237ea9a5293aa55f89609a19152b559ff71731f1459ac51c3b6170",
      "vout": 0,
      "prevout": {
        "scriptpubkey": "512009293095be2b8b3263d733a40bbcd899e98b0908af5d169e72e0ca1ae9714bd1",
        "scriptpubkey_asm": "OP_PUSHNUM_1 OP_PUSHBYTES_32 09293095be2b8b3263d733a40bbcd899e98b0908af5d169e72e0ca1ae9714bd1",
        "scriptpubkey_type": "v1_p2tr",
        "scriptpubkey_address": "bc1ppy5np9d79w9nyc7hxwjqh0xcn85ckzgg4aw3d8njur9p46t3f0gsx3rtn5",
        "value": 24968
      },
      "scriptsig": "",
      "scriptsig_asm": "",
      "witness": [
        "b44931a5897be89e496856a5ce86d691edf56c33a27fc07adb53fca89ff1b71048c35f93a8c01a0f4e6fa7a3ded974ef26a87ddc5184e81a6a8f5b5b1e338c91",
        "20f2d00e1cce0b839d2e197679cac7a15152ec244338032c7767f72c1332d49a65ac0063036f726401010a696d6167652f77656270004d080252494646bc0d0000574542505650384caf0d00002fffc03f002f05b9b61d5455ee4d1eee3a726d80291dd11fa55083bb7dcd0a55b8aa6d5b55f63ecfdd05be208015f00ca4a60405dc9d033bb26d55515fc33d25922151f2e0d35dc6e7ccbf22b76d9bec9eca77081422027f008000a4080901899114c90af14a0900044a0094048200202390940c3e1a80445060242029a284244572428a18490906829712080a060446f2066912100524e10330f261c607010974de1cb1ba82918899d0cd72eb0692e8eb97ffff25af21ef5230fefd787d60a2764123cbf31f8a916cdc433353bbca445de614944c9854a3f06d0dd14832710fcd0c40ad02920c9fc5f5fef2fffcb1df1e5dcf0f7fbf3f8e208a6b10c5115cc3ff3f08826b700da7c9cefadbe7cff07ffb93190f409279f436eb6f2c7ecd547f74cc90b84dcae8a09f98536d361b4f79d91cb65efca6876fd7fb87e7f9cb512f6eb8bbea43dbf9504967fe7a0bad0b60224c00400449cc9dbff6635f3df0f0dc1499e5d22af8d65ded2c072bc670d0b69120c5fc61efccedbe9e40444c407fef67bf77c3d5478e284f343d77c183c4567151aac4143ea8d228439874ca50c9d192a3d8347eb03850491f111a8d3d84a8541e9432f656089deea45529371195563739fbece65665f0403383cd5211aab45032050d7ae96835a958cead1cbb2af454bb7ea9c7b6d38b9065c5bf6d9b22db4e2aeeee4d0802ee9ee0ee102b7cb3d08d3b344e9db5b24823bbce6c5871cfee15976ece5f5a5f7d255d3d8bdf78be88fe4f00054972e348d2ffdf0d1000015073ef4646c4044cffffffffffffb7ee70fcf1e3472da87fd02620c30f1910b43f60610a77ba50f3c72ad4fd7e9f7027f1f54cd941ac0005610af20732f5ad207612b49f47c9bad0e344c805fd9d20ec7a3a77955e673a7f7b843b5dd8ff9966299f9ac20885006795949f19014c04f14c21951f024c0277b8e38f1f7c126ed99d2fdc75049887cae5e05328faf040f80e8aab940877930028fef00e15b28a3fccaaf8e108593561e7230bdaa7c10441fd8ca04f3cacc5535f10bae3b5eb85e284957c42f914960b7bd153d82c54eda2a7c05aa1038b7da2f058808d427d9dde751db8d2c14340a5d327ca8f876d42cd8f2cf92b03102e0e6ec9c6d825145f63c55797dd5c8d6851c66091507a6d553fd13c57bae42759e14ea1d42a37fb4ceeca6cb9b980426c110aad7a0965c8d74bfb765635000fa366a9fbb51249adacfa890d42a19a00542cfd76641df08c4f5420065c2d7d5fed4d3af10ad37154002cbd7771b91c907a1095802f2f3bdc9b4eaca2bb396afec3b2d75b66f6cd163af11a6a2efb1da613af30b34f1855975d7f2d51aae1adbe0a2d3408c669fa65233b3328d48a8d1ae77896d69c63d76360ccb52dfa3a32578d28b5c18eb10c4b3c16b0db6a14db784b381f6e978f162d07714d0802d9c13512c3f0782c50e7ab66a1d48ee2aa03f2d308d86d0d2bb33197c0d1f058b05bab42a18dfa1b10acd995740366c02a2a81a3c003ccbed9084c8784dd41fdbeaee15912fe8fc26301ecb6c9254bf1817120491540031b0938a27dddea5da2b94112e159005597761404c0eaa1b90136d117200298d937bf51e1de0d642c21d90a2b4859d9a5fdddd2e87224c458b4646fb292388673ce8ac0ecf602ea2110831cd99b8110cdd9bff6f48fe3217205f0cf1ff92857546077245356a121032250f146bf376dc1f946760b0601dd1451e32dc84ee36ca169aaa0d9ed62c6b8e840646a4c2935b85dcc18192fc2ed63665f2a9b465b714f07d3a49324117494800a2a4e03ce71af00a6498e32d45042dd11418a2298160ea80307625f2109d03907e4a83d0d3e430e7807704da83f1d1857fe3bbec1cde930d895b4d7748439a8e01759afe057cd6e20dc74331de36efc76e4fb988e52152ac18dd614fed639f2edb4929d4661b3e940a5cf826075c024da4dc7fac954a18da8fdad06d3e1e690ac81b803aa7f43371df727951ab336c062d440004208e14ae2e6e17db2f8b340ceccdaa40bae0131311cdda79b59b3011edc276b167d6bb1a1dd0ba547f339aaa0f9ee921dd7bd50381dece71eff5fab17e44bcb988d28dc0bc547f4b95a412965170955a7e3fdfce37f6f5542e14ea1f28bbe53e95f0a8849da20547fd017bff3387f5fe299422b4d08023b2ab47c10df31fbfbcfe93c10ca6b685038333ea79af072857faae11add9052865983e99833939ca18c6ac11b33c34c42e86ea8eee5477d9249f60d68d62fb5bdfe319fff1c4c790515600cf4c15bbe40deebb7a2dce78f24efcb0b98477d5ff570fc01d0d0570e87e2eb16c0a4ebd0d0573f125f7b954babe79b1e86ef08f6f26fa1611bc21b7cc392af7e7d1797a1f6bf1abefd7ebe6d05d0cfad5972494bdfe772be750df471bb9819d73b6164be7d155fb9776b8b5968edbbdeca775904dcb95dcc8cd6befb8d7caf656ecd37439fbeeefbbfff29fe6d3ff2b2373fed875efba307e0fb2db93cd8147dfaf29ff11f7e8b2b7eb6fbf99fd3b08defba62e7bee64f3ecb65a38b2e4ab20256f19df7bbb426bee2f35c1ad52a5ef2d611f9febb5c5a07befca79d18f52e1b5d74e98b24f6f0bbec71dfd77462d4bb6ccc3a4062147eaff37cc51f7d964b63a1cb46ad030476f07b9ee4abbed0c9054e8ec09cc301022ce0773fc2577ea6d3cd58e2c458d10102e3fc08dbf9cadfefb489ec1433986970c0f31346f981b6f1f59d18216398e5626a8668191cf09c0f613bf8fa4e8cbad4a551a23868e7f831d7f9a6cf15a24a56e5673020144ef1e7e3735c1a15645c1aeb86e28ff76c07c4ac6616622730c10ff1bed9005eec8098ce00090902656658c82f66bbf163bc9f268f76e580a82d8a55437e49255e07088fe8cf01b1b3905df207c67d4d08023372787804f4f65e07513903091a2737a05918455ea0ca068d3ee05205cc453583bca8055a85a15144931f7f8300155c4369296c17ec1af735482836515aa9f27aa73c20b50ce2526c78ca06c27d33d364ebac6ac52f38f589030887b1b57bbd232ac071e5d1451771d145171da1965e44c2ce1cc454e3f43189a56d68c68c0d1420195080b4017e031220f19c56b38c83083380938ce0c44aec2aec8d465eb115ad993417953508e842237a04e5181478b86f66c023f08fc0c32320e737c59a7a40f1833a72b46208f43b9925f4b169155eccbda75a2407096466535187e54e664613bf06152c71c474165c36a60a797828142e40ab53962debb75485c723c06f452be02b892e1be584381bc444099c38f710f672522a10b86f66091ec1267b326be664b907ef7611982d719530c0c141d262a7c23f1fd6494b3f5ed47838a598d903332788ae6c9644070761c9ae409b930802129e165e418534339711c180040987c0a25c8126a7142433049f1708555dc1a7391efc7b223a3192833927830305d23338990196df03ab8793418eff725176622c2121fa075e269e9494dea7e9c9cc40007ed1d18324ac07678365da1a53fcaa8ba21363aa609688f9102129350d0f48340393923e4372699415b341099f403cc943f010df2eb85a684c0283e169a79da17a72e2c458342724242651a4c4b4039a9d44f62c3d30b3ff701127c674c604623e03184d080208d7a36e1adc4966800fd25f2e499328ce2a239540e0f1792eecb5ff74d189b1c26ca40951144245f463ce29a5e5459a5c642fc003f81527c774360c97cb66cc24573860484fbd8ee164463bf01780eff08149313b031a09c010b30204a7d2bf1c5ef30b3c17b2efe2970a66c0e5cc70132040a8ce4dfd2e72214b62473c10627e36c8290d11cc3917397a826117e52ab800afbe903d17b28224ca46ea3256212f09a0c2a55dc11a9e5ec8a17885063380c42ca692a1080f52ee6044c977984b3d1740ee3599d90c037069044399103190834016e0e0b2bfd3194c033ac9261eb800323fee88a59261a084d6209194fea83bde840607c99c73522a9000121219995261dae5b0de17e0cb9f2901b38064a803ae408e94c0c1afef03d8e6891453aeae1366032c71522a9083a120ed80df3c0b9e5077401035160d7d48204072949ace80ed89e27b2f775488e506070910672d015b6c5410b77e562126519c3da5dc48d0017fb127ccb4bb4d2c01b8f3bd0e9219cb11314a0d9e4e028122bf368d71479bb8b24186e00ddee820321b621253ab87c85ae2803f38b80d5671ab7ae5c3af4ef2099199628311804ee2e8e0e3d3a16db06a732bb0c10a5b033ee8a020560db881bc03fef0e8d61aabbe0199d93244ab80e1e41b9671e974686bb1b0166e0d7010b349ac6c088878f2a443dbeaac4534f88112a4b90d0ab9741ae788b50b36eae1802243a94d94010801b09c4ba7435bf7f74e05c28c19961132e494c91f9f195b77bcdf810a98a9683828e280df9f06ea876c6966938b36a001af73a020626092018ae0451d300d755c34e2f90e5460a40618d91a77166ce9ba0199952a34e2d90e2290030cd9740866924ba7736045b1ade996f6e2c71ca099519b80439275c09f4de7042540277ec20102519eb1c4c83b281cf057d360fd4ed64dbbd6da68c7bb5c5e219a590607c9a5bf3b9d05ab66cdee039e9e4152ce9844c089d37877422fbec76a5a87e8c43f9dce066dbdad176806893c0d791f6c6b7603ddaadc3a8217b8b483dffedb3362556e3000defc4a27d671d969d47e77d4da3a839f7a7722aa9cf26fa6b367abe23bff9e974a35ff641af93991bee91d25bfc7ff7c6c1afc5ea068cbee0e78bf7fdf87becfbb573df5bd3fecff7a3ac0fd6dc256b4a57e80d301fae1206ca91fe074d680b355fc3f810df043fc3aacb0a54f6425d9df8960034cabf0a3fc40d4f27728a8e107fa8d4481017fa861ff0cf3fb0cea1faf5071b3e9ac088d970ae744e8f5c725f4fc6312763c2b9c0d61ef4f0200680063036f726401011e6170706c69636174696f6e2f6a736f6e3b636861727365743d7574662d38004d62017b2270223a22766f7264222c2276223a312c227479223a22696e7363222c22636f6c223a2232383133313430306463623037343737623066393836323162353866346338653931393164613830326137363865633032353436613739656637616334326532222c22696964223a22466c697070656420507570706574222c227075626c223a2231455337623370636a527a4667796969714c7278484b546e43686535364c4a485937222c226e6f6e6365223a323337392c226d696e746572223a226263317073347973616d6434786b35357736756a3430346672343871727673767967616334796670787a307533366d61707979733438747166396c74356d222c22736967223a224842644b38566b436647324f47433345394c71776577736b35594770366149393333676a454b7150685053334f49597756385035317165756c2b697a666b555a3366354f43322b5a6c32382f2b7657764f496f2b6d6d413d227d68",
        "c1f2d00e1cce0b839d2e197679cac7a15152ec244338032c7767f72c1332d49a65675a92934efa5e4869b2432a3e00abfc6819367af43949c2edc693b32d23ac05"
      ],
      "is_coinbase": false,
      "sequence": 4294967293
    }
  ],
  "vout": [
    {
      "scriptpubkey": "512085490eedb535a9476b92abea91d4e01b20c223b8a9121309fc8eb7d09090a9d6",
      "scriptpubkey_asm": "OP_PUSHNUM_1 OP_PUSHBYTES_32 85490eedb535a9476b92abea91d4e01b20c223b8a9121309fc8eb7d09090a9d6",
      "scriptpubkey_type": "v1_p2tr",
      "scriptpubkey_address": "bc1ps4ysamd4xk55w6uj404fr48qrvsvygac4yfpxz0u36mapyys48tqf9lt5m",
      "value": 1000
    },
    {
      "scriptpubkey": "51208a716e52070ca810b1e3cd2bedc8983da5b927c06f362db1296fb09a8da7c15c",
      "scriptpubkey_asm": "OP_PUSHNUM_1 OP_PUSHBYTES_32 8a716e52070ca810b1e3cd2bedc8983da5b927c06f362db1296fb09a8da7c15c",
      "scriptpubkey_type": "v1_p2tr",
      "scriptpubkey_address": "bc1p3fcku5s8pj5ppv0re547mjyc8kjmjf7qdumzmvffd7cf4rd8c9wqzdj4xz",
      "value": 7643
    },
    {
      "scriptpubkey": "51200705a5767db892e98125775049b1a13dd9ecdc8aea0df413cabbee683e871012",
      "scriptpubkey_asm": "OP_PUSHNUM_1 OP_PUSHBYTES_32 0705a5767db892e98125775049b1a13dd9ecdc8aea0df413cabbee683e871012",
      "scriptpubkey_type": "v1_p2tr",
      "scriptpubkey_address": "bc1pquz62anahzfwnqf9wagynvdp8hv7ehy2agxlgy72h0hxs058zqfqk8ksyq",
      "value": 2971
    }
  ],
  "size": 4315,
  "weight": 4855,
  "fee": 13354,
  "status": {
    "confirmed": true,
    "block_height": 834464,
    "block_hash": "0000000000000000000177a0869a911a2b65c9bdcd5a8bcb02b68f305bee848e",
    "block_time": 1710308296
  },
  "hex": "0200000000010170613b1cc59a45f13117f79f552b15199a60895fa53a29a5a97e2334334a55eb0000000000fdffffff03e80300000000000022512085490eedb535a9476b92abea91d4e01b20c223b8a9121309fc8eb7d09090a9d6db1d0000000000002251208a716e52070ca810b1e3cd2bedc8983da5b927c06f362db1296fb09a8da7c15c9b0b0000000000002251200705a5767db892e98125775049b1a13dd9ecdc8aea0df413cabbee683e8710120340b44931a5897be89e496856a5ce86d691edf56c33a27fc07adb53fca89ff1b71048c35f93a8c01a0f4e6fa7a3ded974ef26a87ddc5184e81a6a8f5b5b1e338c91fd9e0f20f2d00e1cce0b839d2e197679cac7a15152ec244338032c7767f72c1332d49a65ac0063036f726401010a696d6167652f77656270004d080252494646bc0d0000574542505650384caf0d00002fffc03f002f05b9b61d5455ee4d1eee3a726d80291dd11fa55083bb7dcd0a55b8aa6d5b55f63ecfdd05be208015f00ca4a60405dc9d033bb26d55515fc33d25922151f2e0d35dc6e7ccbf22b76d9bec9eca77081422027f008000a4080901899114c90af14a0900044a0094048200202390940c3e1a80445060242029a284244572428a18490906829712080a060446f2066912100524e10330f261c607010974de1cb1ba82918899d0cd72eb0692e8eb97ffff25af21ef5230fefd787d60a2764123cbf31f8a916cdc433353bbca445de614944c9854a3f06d0dd14832710fcd0c40ad02920c9fc5f5fef2fffcb1df1e5dcf0f7fbf3f8e208a6b10c5115cc3ff3f08826b700da7c9cefadbe7cff07ffb93190f409279f436eb6f2c7ecd547f74cc90b84dcae8a09f98536d361b4f79d91cb65efca6876fd7fb87e7f9cb512f6eb8bbea43dbf9504967fe7a0bad0b60224c00400449cc9dbff6635f3df0f0dc1499e5d22af8d65ded2c072bc670d0b69120c5fc61efccedbe9e40444c407fef67bf77c3d5478e284f343d77c183c4567151aac4143ea8d228439874ca50c9d192a3d8347eb03850491f111a8d3d84a8541e9432f656089deea45529371195563739fbece65665f0403383cd5211aab45032050d7ae96835a958cead1cbb2af454bb7ea9c7b6d38b9065c5bf6d9b22db4e2aeeee4d0802ee9ee0ee102b7cb3d08d3b344e9db5b24823bbce6c5871cfee15976ece5f5a5f7d255d3d8bdf78be88fe4f00054972e348d2ffdf0d1000015073ef4646c4044cffffffffffffb7ee70fcf1e3472da87fd02620c30f1910b43f60610a77ba50f3c72ad4fd7e9f7027f1f54cd941ac0005610af20732f5ad207612b49f47c9bad0e344c805fd9d20ec7a3a77955e673a7f7b843b5dd8ff9966299f9ac20885006795949f19014c04f14c21951f024c0277b8e38f1f7c126ed99d2fdc75049887cae5e05328faf040f80e8aab940877930028fef00e15b28a3fccaaf8e108593561e7230bdaa7c10441fd8ca04f3cacc5535f10bae3b5eb85e284957c42f914960b7bd153d82c54eda2a7c05aa1038b7da2f058808d427d9dde751db8d2c14340a5d327ca8f876d42cd8f2cf92b03102e0e6ec9c6d825145f63c55797dd5c8d6851c66091507a6d553fd13c57bae42759e14ea1d42a37fb4ceeca6cb9b980426c110aad7a0965c8d74bfb765635000fa366a9fbb51249adacfa890d42a19a00542cfd76641df08c4f5420065c2d7d5fed4d3af10ad37154002cbd7771b91c907a1095802f2f3bdc9b4eaca2bb396afec3b2d75b66f6cd163af11a6a2efb1da613af30b34f1855975d7f2d51aae1adbe0a2d3408c669fa65233b3328d48a8d1ae77896d69c63d76360ccb52dfa3a32578d28b5c18eb10c4b3c16b0db6a14db784b381f6e978f162d07714d0802d9c13512c3f0782c50e7ab66a1d48ee2aa03f2d308d86d0d2bb33197c0d1f058b05bab42a18dfa1b10acd995740366c02a2a81a3c003ccbed9084c8784dd41fdbeaee15912fe8fc26301ecb6c9254bf1817120491540031b0938a27dddea5da2b94112e159005597761404c0eaa1b90136d117200298d937bf51e1de0d642c21d90a2b4859d9a5fdddd2e87224c458b4646fb292388673ce8ac0ecf602ea2110831cd99b8110cdd9bff6f48fe3217205f0cf1ff92857546077245356a121032250f146bf376dc1f946760b0601dd1451e32dc84ee36ca169aaa0d9ed62c6b8e840646a4c2935b85dcc18192fc2ed63665f2a9b465b714f07d3a49324117494800a2a4e03ce71af00a6498e32d45042dd11418a2298160ea80307625f2109d03907e4a83d0d3e430e7807704da83f1d1857fe3bbec1cde930d895b4d7748439a8e01759afe057cd6e20dc74331de36efc76e4fb988e52152ac18dd614fed639f2edb4929d4661b3e940a5cf826075c024da4dc7fac954a18da8fdad06d3e1e690ac81b803aa7f43371df727951ab336c062d440004208e14ae2e6e17db2f8b340ceccdaa40bae0131311cdda79b59b3011edc276b167d6bb1a1dd0ba547f339aaa0f9ee921dd7bd50381dece71eff5fab17e44bcb988d28dc0bc547f4b95a412965170955a7e3fdfce37f6f5542e14ea1f28bbe53e95f0a8849da20547fd017bff3387f5fe299422b4d08023b2ab47c10df31fbfbcfe93c10ca6b685038333ea79af072857faae11add9052865983e99833939ca18c6ac11b33c34c42e86ea8eee5477d9249f60d68d62fb5bdfe319fff1c4c790515600cf4c15bbe40deebb7a2dce78f24efcb0b98477d5ff570fc01d0d0570e87e2eb16c0a4ebd0d0573f125f7b954babe79b1e86ef08f6f26fa1611bc21b7cc392af7e7d1797a1f6bf1abefd7ebe6d05d0cfad5972494bdfe772be750df471bb9819d73b6164be7d155fb9776b8b5968edbbdeca775904dcb95dcc8cd6befb8d7caf656ecd37439fbeeefbbfff29fe6d3ff2b2373fed875efba307e0fb2db93cd8147dfaf29ff11f7e8b2b7eb6fbf99fd3b08defba62e7bee64f3ecb65a38b2e4ab20256f19df7bbb426bee2f35c1ad52a5ef2d611f9febb5c5a07befca79d18f52e1b5d74e98b24f6f0bbec71dfd77462d4bb6ccc3a4062147eaff37cc51f7d964b63a1cb46ad030476f07b9ee4abbed0c9054e8ec09cc301022ce0773fc2577ea6d3cd58e2c458d10102e3fc08dbf9cadfefb489ec1433986970c0f31346f981b6f1f59d18216398e5626a8668191cf09c0f613bf8fa4e8cbad4a551a23868e7f831d7f9a6cf15a24a56e5673020144ef1e7e3735c1a15645c1aeb86e28ff76c07c4ac6616622730c10ff1bed9005eec8098ce00090902656658c82f66bbf163bc9f268f76e580a82d8a55437e49255e07088fe8cf01b1b3905df207c67d4d08023372787804f4f65e07513903091a2737a05918455ea0ca068d3ee05205cc453583bca8055a85a15144931f7f8300155c4369296c17ec1af735482836515aa9f27aa73c20b50ce2526c78ca06c27d33d364ebac6ac52f38f589030887b1b57bbd232ac071e5d1451771d145171da1965e44c2ce1cc454e3f43189a56d68c68c0d1420195080b4017e031220f19c56b38c83083380938ce0c44aec2aec8d465eb115ad993417953508e842237a04e5181478b86f66c023f08fc0c32320e737c59a7a40f1833a72b46208f43b9925f4b169155eccbda75a2407096466535187e54e664613bf06152c71c474165c36a60a797828142e40ab53962debb75485c723c06f452be02b892e1be584381bc444099c38f710f672522a10b86f66091ec1267b326be664b907ef7611982d719530c0c141d262a7c23f1fd6494b3f5ed47838a598d903332788ae6c9644070761c9ae409b930802129e165e418534339711c180040987c0a25c8126a7142433049f1708555dc1a7391efc7b223a3192833927830305d23338990196df03ab8793418eff725176622c2121fa075e269e9494dea7e9c9cc40007ed1d18324ac07678365da1a53fcaa8ba21363aa609688f9102129350d0f48340393923e4372699415b341099f403cc943f010df2eb85a684c0283e169a79da17a72e2c458342724242651a4c4b4039a9d44f62c3d30b3ff701127c674c604623e03184d080208d7a36e1adc4966800fd25f2e499328ce2a239540e0f1792eecb5ff74d189b1c26ca40951144245f463ce29a5e5459a5c642fc003f81527c774360c97cb66cc24573860484fbd8ee164463bf01780eff08149313b031a09c010b30204a7d2bf1c5ef30b3c17b2efe2970a66c0e5cc70132040a8ce4dfd2e72214b62473c10627e36c8290d11cc3917397a826117e52ab800afbe903d17b28224ca46ea3256212f09a0c2a55dc11a9e5ec8a17885063380c42ca692a1080f52ee6044c977984b3d1740ee3599d90c037069044399103190834016e0e0b2bfd3194c033ac9261eb800323fee88a59261a084d6209194fea83bde840607c99c73522a9000121219995261dae5b0de17e0cb9f2901b38064a803ae408e94c0c1afef03d8e6891453aeae1366032c71522a9083a120ed80df3c0b9e5077401035160d7d48204072949ace80ed89e27b2f775488e506070910672d015b6c5410b77e562126519c3da5dc48d0017fb127ccb4bb4d2c01b8f3bd0e9219cb11314a0d9e4e028122bf368d71479bb8b24186e00ddee820321b621253ab87c85ae2803f38b80d5671ab7ae5c3af4ef2099199628311804ee2e8e0e3d3a16db06a732bb0c10a5b033ee8a020560db881bc03fef0e8d61aabbe0199d93244ab80e1e41b9671e974686bb1b0166e0d7010b349ac6c088878f2a443dbeaac4534f88112a4b90d0ab9741ae788b50b36eae1802243a94d94010801b09c4ba7435bf7f74e05c28c19961132e494c91f9f195b77bcdf810a98a9683828e280df9f06ea876c6966938b36a001af73a020626092018ae0451d300d755c34e2f90e5460a40618d91a77166ce9ba0199952a34e2d90e2290030cd9740866924ba7736045b1ade996f6e2c71ca099519b80439275c09f4de7042540277ec20102519eb1c4c83b281cf057d360fd4ed64dbbd6da68c7bb5c5e219a590607c9a5bf3b9d05ab66cdee039e9e4152ce9844c089d37877422fbec76a5a87e8c43f9dce066dbdad176806893c0d791f6c6b7603ddaadc3a8217b8b483dffedb3362556e3000defc4a27d671d969d47e77d4da3a839f7a7722aa9cf26fa6b367abe23bff9e974a35ff641af93991bee91d25bfc7ff7c6c1afc5ea068cbee0e78bf7fdf87becfbb573df5bd3fecff7a3ac0fd6dc256b4a57e80d301fae1206ca91fe074d680b355fc3f810df043fc3aacb0a54f6425d9df8960034cabf0a3fc40d4f27728a8e107fa8d4481017fa861ff0cf3fb0cea1faf5071b3e9ac088d970ae744e8f5c725f4fc6312763c2b9c0d61ef4f0200680063036f726401011e6170706c69636174696f6e2f6a736f6e3b636861727365743d7574662d38004d62017b2270223a22766f7264222c2276223a312c227479223a22696e7363222c22636f6c223a2232383133313430306463623037343737623066393836323162353866346338653931393164613830326137363865633032353436613739656637616334326532222c22696964223a22466c697070656420507570706574222c227075626c223a2231455337623370636a527a4667796969714c7278484b546e43686535364c4a485937222c226e6f6e6365223a323337392c226d696e746572223a226263317073347973616d6434786b35357736756a3430346672343871727673767967616334796670787a307533366d61707979733438747166396c74356d222c22736967223a224842644b38566b436647324f47433345394c71776577736b35594770366149393333676a454b7150685053334f49597756385035317165756c2b697a666b555a3366354f43322b5a6c32382f2b7657764f496f2b6d6d413d227d6841c1f2d00e1cce0b839d2e197679cac7a15152ec244338032c7767f72c1332d49a65675a92934efa5e4869b2432a3e00abfc6819367af43949c2edc693b32d23ac0500000000"
}