{
  "txid": "54b3cf54dc48f939bf797609a3bb9aaabf8ce2cbfa5e1247f5b74d24521803e5",
  "version": 2,
  "locktime": 0,
  "vin": [
    {
      "txid": "4ee77778659dcfe8d7a4e15882fc6193f4f3d5f6607624e256337b44c2280af5",
      "vout": 7,
      "prevout": {
        "scriptpubkey": "5120d7e8787148a3b1da7034e1a3fdd2d2912ac64dd1ca5e503507230d0778952132",
        "scriptpubkey_asm": "OP_PUSHNUM_1 OP_PUSHBYTES_32 d7e8787148a3b1da7034e1a3fdd2d2912ac64dd1ca5e503507230d0778952132",
        "scriptpubkey_type": "v1_p2tr",
        "scriptpubkey_address": "bc1p6l58su2g5wca5up5ux3lm5kjjy4vvnw3ef09qdg8yvxsw7y4yyeq3f3rw7",
        "value": 2075
      },
      "scriptsig": "",
      "scriptsig_asm": "",
      "witness": [
        "8cdf37d7f3ffc360c39273195578f20ab629da96eb00ad735b90128753382e9a5b08d9f6ecee1cf6f75cab8c62cbccc32ed3cff283f1cd433e4f22be3884a970",
        "2039413914ae6cd0115bdfdbea2bc07950449c895e38cf66b35465493bc717fd04ac0063036f7264010118746578742f706c61696e3b636861727365743d7574662d3800357b2270223a224252432d313030222c226f70223a226d696e74222c227469636b223a22696e73222c22616d74223a2231303030227d68",
        "c1c50eac15d7d7889f5ad84f80015e8a209129aeea937c37fa4b8bc0f9be289730"
      ],
      "is_coinbase": false,
      "sequence": 4294967295
    }
  ],
  "vout": [
    {
      "scriptpubkey": "00143e2325412b554cacdd163a93a42204c4707f8851",
      "scriptpubkey_asm": "OP_0 OP_PUSHBYTES_20 3e2325412b554cacdd163a93a42204c4707f8851",
      "scriptpubkey_type": "v0_p2wpkh",
      "scriptpubkey_address": "bc1q8c3j2sft24x2ehgk82f6ggsyc3c8lzz3yw9wsu",
      "value": 546
    }
  ],
  "size": 308,
  "weight": 554,
  "fee": 1529,
  "status": {
    "confirmed": true,
    "block_height": 834464,
    "block_hash": "0000000000000000000177a0869a911a2b65c9bdcd5a8bcb02b68f305bee848e",
    "block_time": 1710308296
  },
  "hex": "02000000000101f50a28c2447b3356e2247660f6d5f3f49361fc8258e1a4d7e8cf9d657877e74e0700000000ffffffff0122020000000000001600143e2325412b554cacdd163a93a42204c4707f885103408cdf37d7f3ffc360c39273195578f20ab629da96eb00ad735b90128753382e9a5b08d9f6ecee1cf6f75cab8c62cbccc32ed3cff283f1cd433e4f22be3884a9707b2039413914ae6cd0115bdfdbea2bc07950449c895e38cf66b35465493bc717fd04ac0063036f7264010118746578742f706c61696e3b636861727365743d7574662d3800357b2270223a224252432d313030222c226f70223a226d696e74222c227469636b223a22696e73222c22616d74223a2231303030227d6821c1c50eac15d7d7889f5ad84f80015e8a209129aeea937c37fa4b8bc0f9be28973000000000"
}