{
  "txid": "54b5698325018849303153fe245617e902669f126cf9425da7fc8f48acd0af4b",
  "version": 2,
  "locktime": 0,
  "vin": [
    {
      "txid": "6553a3260bef446ecaa2edf09d7b9dbf05de93eccd6158b141f5c3e57aa6fe85",
      "vout": 63,
      "prevout": {
        "scriptpubkey": "001414dc5c79469c882a15839f2942cbcb4869f5fdef",
        "scriptpubkey_asm": "OP_0 OP_PUSHBYTES_20 14dc5c79469c882a15839f2942cbcb4869f5fdef",
        "scriptpubkey_type": "v0_p2wpkh",
        "scriptpubkey_address": "bc1qznw9c72xnjyz59vrnu559j7tfp5ltl00jemvhp",
        "value": 970051
      },
      "scriptsig": "",
      "scriptsig_asm": "",
      "witness": [
        "3044022054d5abe3ed805649180329c6fec4ac8865db0de57ce130445db2d83464990d3302203a2096717da4d6df31ae51f0a278b50b821a6fbaa50c5338f9ed3961db02cd6701",
        "0225aac061c91dabe1b5f8344b3a3e5d8ab6dba4d421d4efc27e7a914820fb34f0"
      ],
      "is_coinbase": false,
      "sequence": 4294967293
    }
  ],
  "vout": [
    {
      "scriptpubkey": "0014247b1471623cfa543f8a4d9b850e74db3912ff03",
      "scriptpubkey_asm": "OP_0 OP_PUSHBYTES_20 247b1471623cfa543f8a4d9b850e74db3912ff03",
      "scriptpubkey_type": "v0_p2wpkh",
      "scriptpubkey_address": "bc1qy3a3gutz8na9g0u2fkdc2rn5mvu39lcr8er3fa",
      "value": 14502
    },
    {
      "scriptpubkey": "00142d0fdb7842061a67bf5714b3fc140cd798d6c22c",
      "scriptpubkey_asm": "OP_0 OP_PUSHBYTES_20 2d0fdb7842061a67bf5714b3fc140cd798d6c22c",
      "scriptpubkey_type": "v0_p2wpkh",
      "scriptpubkey_address": "bc1q958ak7zzqcdx006hzjelc9qv67vdds3v42swrs",
      "value": 13384
    },
    {
      "scriptpubkey": "0014915d26302998479a3e108bb951ad7290e5bc669e",
      "scriptpubkey_asm": "OP_0 OP_PUSHBYTES_20 915d26302998479a3e108bb951ad7290e5bc669e",
      "scriptpubkey_type": "v0_p2wpkh",
      "scriptpubkey_address": "bc1qj9wjvvpfnpre50ss3wu4rttjjrjmce57xktkjl",
      "value": 940267
    }
  ],
  "size": 253,
  "weight": 685,
  "fee": 1898,
  "status": {
    "confirmed": true,
    "block_height": 834460,
    "block_hash": "00000000000000000000484a79b643b2524bbce82e5d8a442013fa5b8905ed98",
    "block_time": 1710307468
  },
  "hex": "0200000000010185fea67ae5c3f541b15861cdec93de05bf9d7b9df0eda2ca6e44ef0b26a353653f00000000fdffffff03a638000000000000160014247b1471623cfa543f8a4d9b850e74db3912ff0348340000000000001600142d0fdb7842061a67bf5714b3fc140cd798d6c22ceb580e0000000000160014915d26302998479a3e108bb951ad7290e5bc669e02473044022054d5abe3ed805649180329c6fec4ac8865db0de57ce130445db2d83464990d3302203a2096717da4d6df31ae51f0a278b50b821a6fbaa50c5338f9ed3961db02cd6701210225aac061c91dabe1b5f8344b3a3e5d8ab6dba4d421d4efc27e7a914820fb34f000000000"
}