{
  "txid": "54c6bb6ee874eebd44fdea66ea5fd8a5e71339ab453f6874ec78250426aa8ab0",
  "version": 1,
  "locktime": 0,
  "vin": [
    {
      "txid": "8ba1b5679ebca653cba4d9ecc3cb7afae337c90da274408eea0f0950a48c644e",
      "vout": 0,
      "prevout": {
        "scriptpubkey": "0014650839135fe17d5fe26d309eb9eeff9e509039b3",
        "scriptpubkey_asm": "OP_0 OP_PUSHBYTES_20 650839135fe17d5fe26d309eb9eeff9e509039b3",
        "scriptpubkey_type": "v0_p2wpkh",
        "scriptpubkey_address": "bc1qv5yrjy6lu974lcndxz0tnmhlnegfqwdnxyql79",
        "value": 4570500
      },
      "scriptsig": "",
      "scriptsig_asm": "",
      "witness": [
        "304402206ce01309cbceb6bccc12cb1897aae6adce37cf76f5411055d00d6c792290da7d022063d1d7fee64c83dd9a5538d56595a0e879aaf5037e0a895580b46d6808a3b07c01",
        "02da989c4129d0824fbd408ab206d012f2b04c141ddca626544cdb29516e735cce"
      ],
      "is_coinbase": false,
      "sequence": 4294967295
    },
    {
      "txid": "ee354d7ba3dabb628bad12c4558970f4e87aa24f3172a4c6b6e76636b068cc2c",
      "vout": 1,
      "prevout": {
        "scriptpubkey": "0014b9730a17baef606cf23c6bfcde92be175b19fbec",
        "scriptpubkey_asm": "OP_0 OP_PUSHBYTES_20 b9730a17baef606cf23c6bfcde92be175b19fbec",
        "scriptpubkey_type": "v0_p2wpkh",
        "scriptpubkey_address": "bc1qh9es59a6aasxeu3ud07day47zad3n7lvqrjkvq",
        "value": 526300
      },
      "scriptsig": "",
      "scriptsig_asm": "",
      "witness": [
        "3045022100cd77189083d290cff973c63448f435698769ff6e39b326e98fdbf825576e6d6902204df219b4248afbb667fa6b442310850deafbf4f2da2d1b45ce5633b3373a6cf201",
        "03dbba0138ab16ad3cb1fc147d2480dae1129f049e1c26b2518d473a2342c0e38a"
      ],
      "is_coinbase": false,
      "sequence": 4294967295
    },
    {
      "txid": "2c9f83933f0b01edec8f876e0cf0163e94cc1dd0c4d62bf8cdeb895bff7f9de8",
      "vout": 5,
      "prevout": {
        "scriptpubkey": "0014270b79af9d1e36317e8e61b1c5b15e641dd5d9ab",
        "scriptpubkey_asm": "OP_0 OP_PUSHBYTES_20 270b79af9d1e36317e8e61b1c5b15e641dd5d9ab",
        "scriptpubkey_type": "v0_p2wpkh",
        "scriptpubkey_address": "bc1qyu9hntuarcmrzl5wvxcutv27vswatkdt89zykl",
        "value": 2543000
      },
      "scriptsig": "",
      "scriptsig_asm": "",
      "witness": [
        "3045022100da47238da50869ad227389b3267647bfa6f4e2995a43fd67607917f54a53466802205bdcebf2e99dae194fa36e504f5dee57889347a19eb828aaad38bcf150ab68f801",
        "028fb896a37e1c85306e5732845931dae5290fb58654625537b4607a746d67f556"
      ],
      "is_coinbase": false,
      "sequence": 4294967295
    }
  ],
  "vout": [
    {
      "scriptpubkey": "00142927a136d297eef1509a8002d6381e0bad9bd06f",
      "scriptpubkey_asm": "OP_0 OP_PUSHBYTES_20 2927a136d297eef1509a8002d6381e0bad9bd06f",
      "scriptpubkey_type": "v0_p2wpkh",
      "scriptpubkey_address": "bc1q9yn6zdkjjlh0z5y6sqpdvwq7pwkeh5r0ka28ad",
      "value": 2204854
    },
    {
      "scriptpubkey": "76a91404099f37258a70b16c36e31ca232631ea97a6da488ac",
      "scriptpubkey_asm": "OP_DUP OP_HASH160 OP_PUSHBYTES_20 04099f37258a70b16c36e31ca232631ea97a6da4 OP_EQUALVERIFY OP_CHECKSIG",
      "scriptpubkey_type": "p2pkh",
      "scriptpubkey_address": "1NMEK3YaQxsTEoqUCMzU2sT5MxYjVX6a7",
      "value": 5430978
    }
  ],
  "size": 523,
  "weight": 1117,
  "fee": 3968,
  "status": {
    "confirmed": true,
    "block_height": 834460,
    "block_hash": "00000000000000000000484a79b643b2524bbce82e5d8a442013fa5b8905ed98",
    "block_time": 1710307468
  },
  "hex": "010000000001034e648ca450090fea8e4074a20dc937e3fa7acbc3ecd9a4cb53a6bc9e67b5a18b0000000000ffffffff2ccc68b03666e7b6c6a472314fa27ae8f4708955c412ad8b62bbdaa37b4d35ee0100000000ffffffffe89d7fff5b89ebcdf82bd6c4d01dcc943e16f00c6e878feced010b3f93839f2c0500000000ffffffff02b6a42100000000001600142927a136d297eef1509a8002d6381e0bad9bd06fc2de5200000000001976a91404099f37258a70b16c36e31ca232631ea97a6da488ac0247304402206ce01309cbceb6bccc12cb1897aae6adce37cf76f5411055d00d6c792290da7d022063d1d7fee64c83dd9a5538d56595a0e879aaf5037e0a895580b46d6808a3b07c012102da989c4129d0824fbd408ab206d012f2b04c141ddca626544cdb29516e735cce02483045022100cd77189083d290cff973c63448f435698769ff6e39b326e98fdbf825576e6d6902204df219b4248afbb667fa6b442310850deafbf4f2da2d1b45ce5633b3373a6cf2012103dbba0138ab16ad3cb1fc147d2480dae1129f049e1c26b2518d473a2342c0e38a02483045022100da47238da50869ad227389b3267647bfa6f4e2995a43fd67607917f54a53466802205bdcebf2e99dae194fa36e504f5dee57889347a19eb828aaad38bcf150ab68f80121028fb896a37e1c85306e5732845931dae5290fb58654625537b4607a746d67f55600000000"
}