{
  "txid": "54cd546bda2927cd8af5d9ff7d649ab35e8a5d92f5c3a8708ec336532899ef4d",
  "version": 2,
  "locktime": 834637,
  "vin": [
    {
      "txid": "e75844cbb41a703b5c95214d5bdd3c5dc9ec7a522586859c1f307c2a51fd841e",
      "vout": 1,
      "prevout": {
        "scriptpubkey": "76a9145746ad1949eaca316e4d03461e9de3acf385ab5e88ac",
        "scriptpubkey_asm": "OP_DUP OP_HASH160 OP_PUSHBYTES_20 5746ad1949eaca316e4d03461e9de3acf385ab5e OP_EQUALVERIFY OP_CHECKSIG",
        "scriptpubkey_type": "p2pkh",
        "scriptpubkey_address": "18xUTMcfJFiSjwtjU4enPL6CZV9gFcqxoB",
        "value": 69766025
      },
      "scriptsig": "473044022064b31d46ea979f99b2c0c2ae796a819fb2e74b37a5d269de1e4bcd289e08635f022024a5a762013d80451f4851edbba3d94f53ec93bc441c47caa997cc7b7eecde4d01210272a8c68974b52935000f6154bd50dffeac6fe578fa342b97a0c4fe519513a601",
      "scriptsig_asm": "OP_PUSHBYTES_71 3044022064b31d46ea979f99b2c0c2ae796a819fb2e74b37a5d269de1e4bcd289e08635f022024a5a762013d80451f4851edbba3d94f53ec93bc441c47caa997cc7b7eecde4d01 OP_PUSHBYTES_33 0272a8c68974b52935000f6154bd50dffeac6fe578fa342b97a0c4fe519513a601",
      "is_coinbase": false,
      "sequence": 4294967293
    }
  ],
  "vout": [
    {
      "scriptpubkey": "0014a75edf69203c0ebf01b0fb7446b88f91d1384cb1",
      "scriptpubkey_asm": "OP_0 OP_PUSHBYTES_20 a75edf69203c0ebf01b0fb7446b88f91d1384cb1",
      "scriptpubkey_type": "v0_p2wpkh",
      "scriptpubkey_address": "bc1q5a0d76fq8s8t7qdsld6ydwy0j8gnsn93ey6s9d",
      "value": 1099068
    },
    {
      "scriptpubkey": "76a9148124e94edd44973f0738ce31cefedfcf5519ade988ac",
      "scriptpubkey_asm": "OP_DUP OP_HASH160 OP_PUSHBYTES_20 8124e94edd44973f0738ce31cefedfcf5519ade9 OP_EQUALVERIFY OP_CHECKSIG",
      "scriptpubkey_type": "p2pkh",
      "scriptpubkey_address": "1CmrPPksbpoQdJnFyyK9VpN39TppK3XBTC",
      "value": 68660936
    }
  ],
  "size": 222,
  "weight": 888,
  "fee": 6021,
  "status": {
    "confirmed": true,
    "block_height": 834638,
    "block_hash": "000000000000000000025f742c626208ac87e0b7d15054abb4a19ca2d735a54e",
    "block_time": 1710405325
  },
  "hex": "02000000011e84fd512a7c301f9c858625527aecc95d3cdd5b4d21955c3b701ab4cb4458e7010000006a473044022064b31d46ea979f99b2c0c2ae796a819fb2e74b37a5d269de1e4bcd289e08635f022024a5a762013d80451f4851edbba3d94f53ec93bc441c47caa997cc7b7eecde4d01210272a8c68974b52935000f6154bd50dffeac6fe578fa342b97a0c4fe519513a601fdffffff023cc5100000000000160014a75edf69203c0ebf01b0fb7446b88f91d1384cb1c8ae1704000000001976a9148124e94edd44973f0738ce31cefedfcf5519ade988ac4dbc0c00"
}