{
  "txid": "54d1be5d4f90f64ed1834801b11f09847ac7a4cc70d8b8ff14efb81d722aef13",
  "version": 2,
  "locktime": 0,
  "vin": [
    {
      "txid": "3658820da517225d74c4cd478a0196ca3f88b55b73137462d8933f79de5d6e74",
      "vout": 1,
      "prevout": {
        "scriptpubkey": "001456ad507cc9483d2ee59edb346c28070b2896910d",
        "scriptpubkey_asm": "OP_0 OP_PUSHBYTES_20 56ad507cc9483d2ee59edb346c28070b2896910d",
        "scriptpubkey_type": "v0_p2wpkh",
        "scriptpubkey_address": "bc1q26k4qlxffq7jaev7mv6xc2q8pv5fdygdeufz0n",
        "value": 340500
      },
      "scriptsig": "",
      "scriptsig_asm": "",
      "witness": [
        "3044022006da3c30a01e33f4113815e670e80049ad64513bb4e9df2f45a7b9d8de1309c20220235e61236c5f0e6ce51f41fd2a88a11d6882fef8be5b19f453acd75eb6f9752501",
        "03d24847201a0724585ca857eafeccc4ae400af6abe4925250bfe65183eb507de9"
      ],
      "is_coinbase": false,
      "sequence": 4294967295
    },
    {
      "txid": "c68ae6015a9059bdd957f10df049b2c4e2ae67efa02e4773d3ee25cdf67f1dd2",
      "vout": 4,
      "prevout": {
        "scriptpubkey": "001456ad507cc9483d2ee59edb346c28070b2896910d",
        "scriptpubkey_asm": "OP_0 OP_PUSHBYTES_20 56ad507cc9483d2ee59edb346c28070b2896910d",
        "scriptpubkey_type": "v0_p2wpkh",
        "scriptpubkey_address": "bc1q26k4qlxffq7jaev7mv6xc2q8pv5fdygdeufz0n",
        "value": 2469775
      },
      "scriptsig": "",
      "scriptsig_asm": "",
      "witness": [
        "30440220464991e1cc9e0d44ddd7854454bbe62311df7942d474f98bee74067d8b3abc1502205b67c0b3ac469182b1f5d9c66d1e8dd39e522693936ce73bac3d6d1ed5b4fe6001",
        "03d24847201a0724585ca857eafeccc4ae400af6abe4925250bfe65183eb507de9"
      ],
      "is_coinbase": false,
      "sequence": 4294967295
    }
  ],
  "vout": [
    {
      "scriptpubkey": "a9140fcce77a3a8d5d0b6a5c93d204e2fe63bd495ceb87",
      "scriptpubkey_asm": "OP_HASH160 OP_PUSHBYTES_20 0fcce77a3a8d5d0b6a5c93d204e2fe63bd495ceb OP_EQUAL",
      "scriptpubkey_type": "p2sh",
      "scriptpubkey_address": "338ZXR35wmYMHNrq3xH5ns5sgX6rJwGYWd",
      "value": 481839
    },
    {
      "scriptpubkey": "001456ad507cc9483d2ee59edb346c28070b2896910d",
      "scriptpubkey_asm": "OP_0 OP_PUSHBYTES_20 56ad507cc9483d2ee59edb346c28070b2896910d",
      "scriptpubkey_type": "v0_p2wpkh",
      "scriptpubkey_address": "bc1q26k4qlxffq7jaev7mv6xc2q8pv5fdygdeufz0n",
      "value": 2324723
    }
  ],
  "size": 371,
  "weight": 836,
  "fee": 3713,
  "status": {
    "confirmed": true,
    "block_height": 834638,
    "block_hash": "000000000000000000025f742c626208ac87e0b7d15054abb4a19ca2d735a54e",
    "block_time": 1710405325
  },
  "hex": "02000000000102746e5dde793f93d8627413735bb5883fca96018a47cdc4745d2217a50d8258360100000000ffffffffd21d7ff6cd25eed373472ea0ef67aee2c4b249f00df157d9bd59905a01e68ac60400000000ffffffff022f5a07000000000017a9140fcce77a3a8d5d0b6a5c93d204e2fe63bd495ceb87f37823000000000016001456ad507cc9483d2ee59edb346c28070b2896910d02473044022006da3c30a01e33f4113815e670e80049ad64513bb4e9df2f45a7b9d8de1309c20220235e61236c5f0e6ce51f41fd2a88a11d6882fef8be5b19f453acd75eb6f97525012103d24847201a0724585ca857eafeccc4ae400af6abe4925250bfe65183eb507de9024730440220464991e1cc9e0d44ddd7854454bbe62311df7942d474f98bee74067d8b3abc1502205b67c0b3ac469182b1f5d9c66d1e8dd39e522693936ce73bac3d6d1ed5b4fe60012103d24847201a0724585ca857eafeccc4ae400af6abe4925250bfe65183eb507de900000000"
}