{
  "txid": "550445fbf17934c34228fb1aa8c60eed5d6cf5abb16bd9b0358e55ad0cd0c9f2",
  "version": 2,
  "locktime": 0,
  "vin": [
    {
      "txid": "b9d8869bea54606df91b216179ee99888556691e0874effa3858fb408c7d1b9a",
      "vout": 0,
      "prevout": {
        "scriptpubkey": "51204d03f3d308bedbd95261cf70d764b34a1d7af59dd777b66d65e69706a46dc13a",
        "scriptpubkey_asm": "OP_PUSHNUM_1 OP_PUSHBYTES_32 4d03f3d308bedbd95261cf70d764b34a1d7af59dd777b66d65e69706a46dc13a",
        "scriptpubkey_type": "v1_p2tr",
        "scriptpubkey_address": "bc1pf5pl85cghmdaj5npeacdwe9nfgwh4ava6ammvmt9u6tsdfrdcyaqz6nt3d",
        "value": 3010
      },
      "scriptsig": "",
      "scriptsig_asm": "",
      "witness": [
        "b1ac30ba51110af1bf86d1159e4f4d9ac45301ab026d299040b3e688501216c6e37880985a2d555973aac61e572f86e72920d1c0bc5de858c8d0876c30385cac",
        "20eceee3e0895d03998c44aa750d699fc3a57a168e2b79de699eb9f0ad18c7d8eeac0063036f7264010118746578742f706c61696e3b636861727365743d7574662d3800407b2270223a226272632d3230222c226f70223a227472616e73666572222c227469636b223a22f09d9b91222c22616d74223a223232323232323232323232227d68",
        "c0eceee3e0895d03998c44aa750d699fc3a57a168e2b79de699eb9f0ad18c7d8ee"
      ],
      "is_coinbase": false,
      "sequence": 4294967293
    }
  ],
  "vout": [
    {
      "scriptpubkey": "5120d826ab2636fc8fbdecaf2d73e51ed5dcc9e9e9c452a5604cd40d44ab61a2342d",
      "scriptpubkey_asm": "OP_PUSHNUM_1 OP_PUSHBYTES_32 d826ab2636fc8fbdecaf2d73e51ed5dcc9e9e9c452a5604cd40d44ab61a2342d",
      "scriptpubkey_type": "v1_p2tr",
      "scriptpubkey_address": "bc1pmqn2kf3klj8mmm9094e728k4mny7n6wy22jkqnx5p4z2kcdzxsksslj3mr",
      "value": 546
    }
  ],
  "size": 331,
  "weight": 613,
  "fee": 2464,
  "status": {
    "confirmed": true,
    "block_height": 834464,
    "block_hash": "0000000000000000000177a0869a911a2b65c9bdcd5a8bcb02b68f305bee848e",
    "block_time": 1710308296
  },
  "hex": "020000000001019a1b7d8c40fb5838faef74081e6956858899ee7961211bf96d6054ea9b86d8b90000000000fdffffff012202000000000000225120d826ab2636fc8fbdecaf2d73e51ed5dcc9e9e9c452a5604cd40d44ab61a2342d0340b1ac30ba51110af1bf86d1159e4f4d9ac45301ab026d299040b3e688501216c6e37880985a2d555973aac61e572f86e72920d1c0bc5de858c8d0876c30385cac8620eceee3e0895d03998c44aa750d699fc3a57a168e2b79de699eb9f0ad18c7d8eeac0063036f7264010118746578742f706c61696e3b636861727365743d7574662d3800407b2270223a226272632d3230222c226f70223a227472616e73666572222c227469636b223a22f09d9b91222c22616d74223a223232323232323232323232227d6821c0eceee3e0895d03998c44aa750d699fc3a57a168e2b79de699eb9f0ad18c7d8ee00000000"
}