{
  "txid": "5508bd1e9a9263706c3c6a3e785dfe1b67fd6217cc4fe94cebd79ea9b3d30f6a",
  "version": 2,
  "locktime": 0,
  "vin": [
    {
      "txid": "8486ecb4df0880316dd6e82b3971b4df187aff23765bc3a47f8d78bb53aa273c",
      "vout": 64,
      "prevout": {
        "scriptpubkey": "5120adba64b8aa87bd072206b000a45a9d1d42babb830a30cb370b81bbc094f25ef8",
        "scriptpubkey_asm": "OP_PUSHNUM_1 OP_PUSHBYTES_32 adba64b8aa87bd072206b000a45a9d1d42babb830a30cb370b81bbc094f25ef8",
        "scriptpubkey_type": "v1_p2tr",
        "scriptpubkey_address": "bc1p4kaxfw92s77swgsxkqq2gk5ar4pt4wurpgcvkdctsxaup98jtmuq729wpu",
        "value": 2575
      },
      "scriptsig": "",
      "scriptsig_asm": "",
      "witness": [
        "6b1d2affed2ccd0c140e4b84112054a90b2bd9cd889861fb3533b8960e01622b784803ae07aeda9ec7ab81f4d56ea3b67f0650dab6404ca9dcb5bed7b766db21",
        "209102946198682bb20f51bac95c95af80dbda761e86c81a3958d53f148cd13444ac0063036f726401010a746578742f706c61696e00367b2270223a226272632d3230222c226f70223a226d696e74222c227469636b223a2261616161222c22616d74223a223130303030227d68",
        "c19102946198682bb20f51bac95c95af80dbda761e86c81a3958d53f148cd13444"
      ],
      "is_coinbase": false,
      "sequence": 4261412863
    }
  ],
  "vout": [
    {
      "scriptpubkey": "0014ddd7ef12ea6f78edcc1e8e7afa12c01ab59f3339",
      "scriptpubkey_asm": "OP_0 OP_PUSHBYTES_20 ddd7ef12ea6f78edcc1e8e7afa12c01ab59f3339",
      "scriptpubkey_type": "v0_p2wpkh",
      "scriptpubkey_address": "bc1qmht77yh2dauwmnq73ea05ykqr26e7veea8spz6",
      "value": 546
    }
  ],
  "size": 295,
  "weight": 541,
  "fee": 2029,
  "status": {
    "confirmed": true,
    "block_height": 834460,
    "block_hash": "00000000000000000000484a79b643b2524bbce82e5d8a442013fa5b8905ed98",
    "block_time": 1710307468
  },
  "hex": "020000000001013c27aa53bb788d7fa4c35b7623ff7a18dfb471392be8d66d318008dfb4ec86844000000000fffffffd012202000000000000160014ddd7ef12ea6f78edcc1e8e7afa12c01ab59f333903406b1d2affed2ccd0c140e4b84112054a90b2bd9cd889861fb3533b8960e01622b784803ae07aeda9ec7ab81f4d56ea3b67f0650dab6404ca9dcb5bed7b766db216e209102946198682bb20f51bac95c95af80dbda761e86c81a3958d53f148cd13444ac0063036f726401010a746578742f706c61696e00367b2270223a226272632d3230222c226f70223a226d696e74222c227469636b223a2261616161222c22616d74223a223130303030227d6821c19102946198682bb20f51bac95c95af80dbda761e86c81a3958d53f148cd1344400000000"
}