{
  "txid": "550d1c7eac671fb95ce42cf31e42b9fbcf2cdfadc3556096511f2e06e946cff7",
  "version": 2,
  "locktime": 0,
  "vin": [
    {
      "txid": "709d8d048925e43fa47d5a507c23857c3bfd1d949ea194cceb4149a089e69243",
      "vout": 2,
      "prevout": {
        "scriptpubkey": "00143f165ada542cd297cc97454d0d4580fecf093570",
        "scriptpubkey_asm": "OP_0 OP_PUSHBYTES_20 3f165ada542cd297cc97454d0d4580fecf093570",
        "scriptpubkey_type": "v0_p2wpkh",
        "scriptpubkey_address": "bc1q8ut94kj59nff0nyhg4xs63vqlm8sjdtsh8hz6t",
        "value": 2427600
      },
      "scriptsig": "",
      "scriptsig_asm": "",
      "witness": [
        "3044022005ba01903caf6e097086309be43ba3523c2b70e62878d7ff9dcb95eb5d4d31010220239fcdc7745278b9ad0ab318ca5244d1443827df1c6330d0a09099c60a4f5b7801",
        "03abec00cb82664e3dfba49fa97da79020e809a408f3ff9ab94d33a520ea00d2c5"
      ],
      "is_coinbase": false,
      "sequence": 4294967295
    }
  ],
  "vout": [
    {
      "scriptpubkey": "00143f165ada542cd297cc97454d0d4580fecf093570",
      "scriptpubkey_asm": "OP_0 OP_PUSHBYTES_20 3f165ada542cd297cc97454d0d4580fecf093570",
      "scriptpubkey_type": "v0_p2wpkh",
      "scriptpubkey_address": "bc1q8ut94kj59nff0nyhg4xs63vqlm8sjdtsh8hz6t",
      "value": 989191
    },
    {
      "scriptpubkey": "00140b4bb681ea875a097fa4bba122c223a8278480f4",
      "scriptpubkey_asm": "OP_0 OP_PUSHBYTES_20 0b4bb681ea875a097fa4bba122c223a8278480f4",
      "scriptpubkey_type": "v0_p2wpkh",
      "scriptpubkey_address": "bc1qpd9mdq02sadqjlayhwsj9s3r4qncfq855ccluk",
      "value": 1436309
    }
  ],
  "size": 222,
  "weight": 561,
  "fee": 2100,
  "status": {
    "confirmed": true,
    "block_height": 834638,
    "block_hash": "000000000000000000025f742c626208ac87e0b7d15054abb4a19ca2d735a54e",
    "block_time": 1710405325
  },
  "hex": "020000000001014392e689a04941ebcc94a19e941dfd3b7c85237c505a7da43fe42589048d9d700200000000ffffffff0207180f00000000001600143f165ada542cd297cc97454d0d4580fecf09357095ea1500000000001600140b4bb681ea875a097fa4bba122c223a8278480f402473044022005ba01903caf6e097086309be43ba3523c2b70e62878d7ff9dcb95eb5d4d31010220239fcdc7745278b9ad0ab318ca5244d1443827df1c6330d0a09099c60a4f5b78012103abec00cb82664e3dfba49fa97da79020e809a408f3ff9ab94d33a520ea00d2c500000000"
}