{
  "txid": "5515285ee161a6d0e92b746fdb4a0d3d8727045e79e36fa76f20e0ffc132d987",
  "version": 1,
  "locktime": 0,
  "vin": [
    {
      "txid": "e7b577b4da6377b4e40ede0032e1fb7c0bca7ff55da6d93b60ec9f2395cf821a",
      "vout": 0,
      "prevout": {
        "scriptpubkey": "0014dd02183e595ba4ed908ee2f462d3433dd4ad48a8",
        "scriptpubkey_asm": "OP_0 OP_PUSHBYTES_20 dd02183e595ba4ed908ee2f462d3433dd4ad48a8",
        "scriptpubkey_type": "v0_p2wpkh",
        "scriptpubkey_address": "bc1qm5pps0jetwjwmyywut6x956r8h226j9guvwuhh",
        "value": 31871
      },
      "scriptsig": "",
      "scriptsig_asm": "",
      "witness": [
        "3045022100efed6e6a461ecd6a715f4695a2d5a4503527b65d1307e9da6c06cbc55d31bbde02202da5603677567941da319bdae32abda49449e25ec186295fdf9aaa350559279b01",
        "03204a16a96ad3d9ad2927a21039c01e2eedbb083066ff16bdd8c427ce8d0cf184"
      ],
      "is_coinbase": false,
      "sequence": 4294967295
    }
  ],
  "vout": [
    {
      "scriptpubkey": "76a914f742691b3e8369600baae5048fea52389187a07288ac",
      "scriptpubkey_asm": "OP_DUP OP_HASH160 OP_PUSHBYTES_20 f742691b3e8369600baae5048fea52389187a072 OP_EQUALVERIFY OP_CHECKSIG",
      "scriptpubkey_type": "p2pkh",
      "scriptpubkey_address": "1PYPTfqMmGqWFjivjLagNbbqufU1qpT1W5",
      "value": 28820
    }
  ],
  "size": 195,
  "weight": 450,
  "fee": 3051,
  "status": {
    "confirmed": true,
    "block_height": 834638,
    "block_hash": "000000000000000000025f742c626208ac87e0b7d15054abb4a19ca2d735a54e",
    "block_time": 1710405325
  },
  "hex": "010000000001011a82cf95239fec603bd9a65df57fca0b7cfbe13200de0ee4b47763dab477b5e70000000000ffffffff0194700000000000001976a914f742691b3e8369600baae5048fea52389187a07288ac02483045022100efed6e6a461ecd6a715f4695a2d5a4503527b65d1307e9da6c06cbc55d31bbde02202da5603677567941da319bdae32abda49449e25ec186295fdf9aaa350559279b012103204a16a96ad3d9ad2927a21039c01e2eedbb083066ff16bdd8c427ce8d0cf18400000000"
}