{
  "txid": "5518611b2b9cf3985941d8d9a077967282b719331947da7099f2eb2d43d5892e",
  "version": 1,
  "locktime": 0,
  "vin": [
    {
      "txid": "bc9e3f3d2aecc8b9f56c5673f35e587ffe240a1c74287f119ae4fd123f38214a",
      "vout": 0,
      "prevout": {
        "scriptpubkey": "76a9148fd41a8fc6f78e11df3e262c9d8fb2da5072ede988ac",
        "scriptpubkey_asm": "OP_DUP OP_HASH160 OP_PUSHBYTES_20 8fd41a8fc6f78e11df3e262c9d8fb2da5072ede9 OP_EQUALVERIFY OP_CHECKSIG",
        "scriptpubkey_type": "p2pkh",
        "scriptpubkey_address": "1E7VifEDxejYNUaEV1S3KF9PagZrPCuviv",
        "value": 535689
      },
      "scriptsig": "483045022100f5757293db7a671605c01bbb960cd91ca119422659524c57c828c265c1d09f6f02205e2110343ac25021ec3da010a13bf66c8d182135e85122a2d4abd608e26fb6140121037a355eab02126a8716f3982532b5d97cade1446ef68e22277eea6929d1d9d458",
      "scriptsig_asm": "OP_PUSHBYTES_72 3045022100f5757293db7a671605c01bbb960cd91ca119422659524c57c828c265c1d09f6f02205e2110343ac25021ec3da010a13bf66c8d182135e85122a2d4abd608e26fb61401 OP_PUSHBYTES_33 037a355eab02126a8716f3982532b5d97cade1446ef68e22277eea6929d1d9d458",
      "is_coinbase": false,
      "sequence": 4294967295
    }
  ],
  "vout": [
    {
      "scriptpubkey": "a914feb37befe902c588e64a7219b4cb9282660a418f87",
      "scriptpubkey_asm": "OP_HASH160 OP_PUSHBYTES_20 feb37befe902c588e64a7219b4cb9282660a418f OP_EQUAL",
      "scriptpubkey_type": "p2sh",
      "scriptpubkey_address": "3Quka3YNUCvR5kxPr3iSaEAioyMVvainHo",
      "value": 517609
    }
  ],
  "size": 190,
  "weight": 760,
  "fee": 18080,
  "status": {
    "confirmed": true,
    "block_height": 834638,
    "block_hash": "000000000000000000025f742c626208ac87e0b7d15054abb4a19ca2d735a54e",
    "block_time": 1710405325
  },
  "hex": "01000000014a21383f12fde49a117f28741c0a24fe7f585ef373566cf5b9c8ec2a3d3f9ebc000000006b483045022100f5757293db7a671605c01bbb960cd91ca119422659524c57c828c265c1d09f6f02205e2110343ac25021ec3da010a13bf66c8d182135e85122a2d4abd608e26fb6140121037a355eab02126a8716f3982532b5d97cade1446ef68e22277eea6929d1d9d458ffffffff01e9e507000000000017a914feb37befe902c588e64a7219b4cb9282660a418f8700000000"
}