{
  "txid": "5529b79da55654025f9cfc29b3602222ebe626ba4ec6921d20b4bffc65b92b12",
  "version": 1,
  "locktime": 0,
  "vin": [
    {
      "txid": "1535e4fa94fe9e7fcaf6912624fa5966ea66982313a72c31eef2c5e3877311d3",
      "vout": 3,
      "prevout": {
        "scriptpubkey": "001494808e8029cafcba3e3779b2df3e668fa347c7eb",
        "scriptpubkey_asm": "OP_0 OP_PUSHBYTES_20 94808e8029cafcba3e3779b2df3e668fa347c7eb",
        "scriptpubkey_type": "v0_p2wpkh",
        "scriptpubkey_address": "bc1qjjqgaqpfet7t503h0xed70nx373503ltcdsc46",
        "value": 673054
      },
      "scriptsig": "",
      "scriptsig_asm": "",
      "witness": [
        "3045022100b35b2a587a78eb4d1046792ca3c3a1ac38e091062eadc5b6f5f4aed0c58309bf022035689e2a4e59a0ba9db37fb617b1ef3bcc134d6583186ec0a73c0e0bc9707dcb01",
        "03339dc7f264a3ea9cfea1216d60f8b3366f001ccea7a3bab3c33fea84bf0d57e2"
      ],
      "is_coinbase": false,
      "sequence": 4294967295
    },
    {
      "txid": "198ab5bed7edd73abb33d4dac121cba92a362f3350e1ac559b9be84a7dac619a",
      "vout": 14,
      "prevout": {
        "scriptpubkey": "00149af7cd232a1e38210bffb121a4393b58f886beae",
        "scriptpubkey_asm": "OP_0 OP_PUSHBYTES_20 9af7cd232a1e38210bffb121a4393b58f886beae",
        "scriptpubkey_type": "v0_p2wpkh",
        "scriptpubkey_address": "bc1qntmu6ge2rcuzzzllkys6gwfmtrugd04w3jzttr",
        "value": 42307
      },
      "scriptsig": "",
      "scriptsig_asm": "",
      "witness": [
        "3045022100de48106c88cea83d3cafb7621e16132ff4efb34e6307af92ccd0edd79709ebb0022050f3d9d16f34773aaa45f76c9eb79626e936468e0270c345aa4bc4b36866660001",
        "03d4d52df6e17d9b05de27959afb3bfc58f31063d057954b9be7197d040b0bc781"
      ],
      "is_coinbase": false,
      "sequence": 4294967295
    },
    {
      "txid": "0c3d4b9db9ea6f47bf37c9dcdb528bf9bff0f0e215ec4f47607c420a8d09cc70",
      "vout": 1,
      "prevout": {
        "scriptpubkey": "0014a56c98beb14deb29359553608c56acebc5e1c0a6",
        "scriptpubkey_asm": "OP_0 OP_PUSHBYTES_20 a56c98beb14deb29359553608c56acebc5e1c0a6",
        "scriptpubkey_type": "v0_p2wpkh",
        "scriptpubkey_address": "bc1q54kf3043fh4jjdv42dsgc44va0z7rs9xslz7k6",
        "value": 4331
      },
      "scriptsig": "",
      "scriptsig_asm": "",
      "witness": [
        "304402205a56a8981311c19a9fdf9b47337b9facdddbce82d4be4f3ad10c9653cc96d3b3022079254352fecffff3b5753ac54e347dd4bf06ca6e14138f07a085d88793aa2faa01",
        "03273d4ee3483e49c762fbd629906e8740d8d428dd25beb62c6103e5c4ac5de46d"
      ],
      "is_coinbase": false,
      "sequence": 4294967295
    }
  ],
  "vout": [
    {
      "scriptpubkey": "00149c5d4daa175b0ab4f80c3410043a54645d0a1062",
      "scriptpubkey_asm": "OP_0 OP_PUSHBYTES_20 9c5d4daa175b0ab4f80c3410043a54645d0a1062",
      "scriptpubkey_type": "v0_p2wpkh",
      "scriptpubkey_address": "bc1qn3w5m2shtv9tf7qvxsgqgwj5v3ws5yrzsapfxq",
      "value": 707900
    },
    {
      "scriptpubkey": "00140f07aab423271f076facc1264ccc3f80f492d9bf",
      "scriptpubkey_asm": "OP_0 OP_PUSHBYTES_20 0f07aab423271f076facc1264ccc3f80f492d9bf",
      "scriptpubkey_type": "v0_p2wpkh",
      "scriptpubkey_address": "bc1qpur64dpryu0swmavcynyenplsr6f9kdl9c6g7e",
      "value": 4538
    }
  ],
  "size": 520,
  "weight": 1105,
  "fee": 7254,
  "status": {
    "confirmed": true,
    "block_height": 834638,
    "block_hash": "000000000000000000025f742c626208ac87e0b7d15054abb4a19ca2d735a54e",
    "block_time": 1710405325
  },
  "hex": "01000000000103d3117387e3c5f2ee312ca713239866ea6659fa242691f6ca7f9efe94fae435150300000000ffffffff9a61ac7d4ae89b9b55ace150332f362aa9cb21c1dad433bb3ad7edd7beb58a190e00000000ffffffff70cc098d0a427c60474fec15e2f0f0bff98b52dbdcc937bf476feab99d4b3d0c0100000000ffffffff023ccd0a00000000001600149c5d4daa175b0ab4f80c3410043a54645d0a1062ba110000000000001600140f07aab423271f076facc1264ccc3f80f492d9bf02483045022100b35b2a587a78eb4d1046792ca3c3a1ac38e091062eadc5b6f5f4aed0c58309bf022035689e2a4e59a0ba9db37fb617b1ef3bcc134d6583186ec0a73c0e0bc9707dcb012103339dc7f264a3ea9cfea1216d60f8b3366f001ccea7a3bab3c33fea84bf0d57e202483045022100de48106c88cea83d3cafb7621e16132ff4efb34e6307af92ccd0edd79709ebb0022050f3d9d16f34773aaa45f76c9eb79626e936468e0270c345aa4bc4b368666600012103d4d52df6e17d9b05de27959afb3bfc58f31063d057954b9be7197d040b0bc7810247304402205a56a8981311c19a9fdf9b47337b9facdddbce82d4be4f3ad10c9653cc96d3b3022079254352fecffff3b5753ac54e347dd4bf06ca6e14138f07a085d88793aa2faa012103273d4ee3483e49c762fbd629906e8740d8d428dd25beb62c6103e5c4ac5de46d00000000"
}