{
  "txid": "553e0cc225b82d05669f3d042a2b5cf8de0832afbc1c6d54c563b44c967d655f",
  "version": 2,
  "locktime": 0,
  "vin": [
    {
      "txid": "acc3ba00869acb582a3f2904ce3a11dd3779350ce234063fc7d0959246213364",
      "vout": 146,
      "prevout": {
        "scriptpubkey": "5120bd8a2e10241b4c659988d6887c366946035478f31037425659f2e9ffc4568c89",
        "scriptpubkey_asm": "OP_PUSHNUM_1 OP_PUSHBYTES_32 bd8a2e10241b4c659988d6887c366946035478f31037425659f2e9ffc4568c89",
        "scriptpubkey_type": "v1_p2tr",
        "scriptpubkey_address": "bc1phk9zuypyrdxxtxvg66y8cdnfgcp4g78nzqm5y4je7t5ll3zk3jysu9z7j5",
        "value": 1806
      },
      "scriptsig": "",
      "scriptsig_asm": "",
      "witness": [
        "483115d10bee6cc2aad68bb375ec301dd86e5283b300abef7dc35c437e6aafa265104eb1229220283c694c3028c9c40fbb72f0420294ee98f55da1c672896745",
        "2082c0b2038b6a8c8c07fcf11dc687840becbb8e049551570ef56df73779b41ea3ac0063036f726401010a746578742f706c61696e00357b2270223a226272632d3230222c226f70223a226d696e74222c227469636b223a22646f6765222c22616d74223a2234323030227d68",
        "c182c0b2038b6a8c8c07fcf11dc687840becbb8e049551570ef56df73779b41ea3"
      ],
      "is_coinbase": false,
      "sequence": 4261412863
    }
  ],
  "vout": [
    {
      "scriptpubkey": "00147a665de7a370f4c9b372ab1fae587500a5bcbdb4",
      "scriptpubkey_asm": "OP_0 OP_PUSHBYTES_20 7a665de7a370f4c9b372ab1fae587500a5bcbdb4",
      "scriptpubkey_type": "v0_p2wpkh",
      "scriptpubkey_address": "bc1q0fn9mearwr6vnvmj4v06ukr4qzjme0d565dzcx",
      "value": 294
    }
  ],
  "size": 294,
  "weight": 540,
  "fee": 1512,
  "status": {
    "confirmed": true,
    "block_height": 834460,
    "block_hash": "00000000000000000000484a79b643b2524bbce82e5d8a442013fa5b8905ed98",
    "block_time": 1710307468
  },
  "hex": "02000000000101643321469295d0c73f0634e20c357937dd113ace04293f2a58cb9a8600bac3ac9200000000fffffffd0126010000000000001600147a665de7a370f4c9b372ab1fae587500a5bcbdb40340483115d10bee6cc2aad68bb375ec301dd86e5283b300abef7dc35c437e6aafa265104eb1229220283c694c3028c9c40fbb72f0420294ee98f55da1c6728967456d2082c0b2038b6a8c8c07fcf11dc687840becbb8e049551570ef56df73779b41ea3ac0063036f726401010a746578742f706c61696e00357b2270223a226272632d3230222c226f70223a226d696e74222c227469636b223a22646f6765222c22616d74223a2234323030227d6821c182c0b2038b6a8c8c07fcf11dc687840becbb8e049551570ef56df73779b41ea300000000"
}