{
  "txid": "5542a6f2f8f87b5957fbb050fdcb1e68ce827cab703181d6ae56e79554151f8f",
  "version": 2,
  "locktime": 0,
  "vin": [
    {
      "txid": "b2289efc7fb8f8b6925f452dbc4ac59163ca27b07701e72bb17cf67b547172be",
      "vout": 1,
      "prevout": {
        "scriptpubkey": "5120abad1eef225e6b926bf2002d47786b9cd7e665b8e6c676a1bedd578d2ab20f84",
        "scriptpubkey_asm": "OP_PUSHNUM_1 OP_PUSHBYTES_32 abad1eef225e6b926bf2002d47786b9cd7e665b8e6c676a1bedd578d2ab20f84",
        "scriptpubkey_type": "v1_p2tr",
        "scriptpubkey_address": "bc1p4wk3amezte4ey6ljqqk5w7rtnnt7vedcumr8dgd7m4tc624jp7zq649xl9",
        "value": 88614
      },
      "scriptsig": "",
      "scriptsig_asm": "",
      "witness": [
        "1c458d8892fb90de38da8125de6ad504f322dd1dbc3649d7debedb3d71cb469813df785fa9323c41ff424c8f27ac73e0d2434b3108216d03e8e2d71146205a62"
      ],
      "is_coinbase": false,
      "sequence": 4294967293
    }
  ],
  "vout": [
    {
      "scriptpubkey": "5120127fd98e3f18fca216f0b7e02d0da16a74bddf643a05ef0d56a826dc9c0a1216",
      "scriptpubkey_asm": "OP_PUSHNUM_1 OP_PUSHBYTES_32 127fd98e3f18fca216f0b7e02d0da16a74bddf643a05ef0d56a826dc9c0a1216",
      "scriptpubkey_type": "v1_p2tr",
      "scriptpubkey_address": "bc1pzflanr3lrr72y9hsklsz6rdpdf6tmhmy8gz77r2k4qnde8q2zgtqsq58qn",
      "value": 3246
    },
    {
      "scriptpubkey": "512032a597824069bd1a67418fc0f71a5cadd50df0087b71285cc23e897aadffc544",
      "scriptpubkey_asm": "OP_PUSHNUM_1 OP_PUSHBYTES_32 32a597824069bd1a67418fc0f71a5cadd50df0087b71285cc23e897aadffc544",
      "scriptpubkey_type": "v1_p2tr",
      "scriptpubkey_address": "bc1px2je0qjqdx735e6p3lq0wxju4h2smuqg0dcjshxz86yh4t0lc4zqp9h7re",
      "value": 82596
    }
  ],
  "size": 205,
  "weight": 616,
  "fee": 2772,
  "status": {
    "confirmed": true,
    "block_height": 834460,
    "block_hash": "00000000000000000000484a79b643b2524bbce82e5d8a442013fa5b8905ed98",
    "block_time": 1710307468
  },
  "hex": "02000000000101be7271547bf67cb12be70177b027ca6391c54abc2d455f92b6f8b87ffc9e28b20100000000fdffffff02ae0c000000000000225120127fd98e3f18fca216f0b7e02d0da16a74bddf643a05ef0d56a826dc9c0a1216a44201000000000022512032a597824069bd1a67418fc0f71a5cadd50df0087b71285cc23e897aadffc54401401c458d8892fb90de38da8125de6ad504f322dd1dbc3649d7debedb3d71cb469813df785fa9323c41ff424c8f27ac73e0d2434b3108216d03e8e2d71146205a6200000000"
}