{
  "txid": "55473324a576e966c7b1249ef44b7b53323cdecffceeb6f7790ae51549d59da5",
  "version": 1,
  "locktime": 0,
  "vin": [
    {
      "txid": "34a6fc63c27fd73bc3d22c63c00c241f8beb78b447856adbcbcbbd5e2e7364c8",
      "vout": 1,
      "prevout": {
        "scriptpubkey": "00201535adf6e10335bf6e4410eea8986075473e675fee343c3a0a729d7f669903e3",
        "scriptpubkey_asm": "OP_0 OP_PUSHBYTES_32 1535adf6e10335bf6e4410eea8986075473e675fee343c3a0a729d7f669903e3",
        "scriptpubkey_type": "v0_p2wsh",
        "scriptpubkey_address": "bc1qz566mahpqv6m7mjyzrh23xrqw4rnue6lac6rcws2w2wh7e5eq03sqrpn2c",
        "value": 1388644
      },
      "scriptsig": "",
      "scriptsig_asm": "",
      "witness": [
        "",
        "30450221008982729b7a04559934ad6bad2191eace831057329228aab211a4c0ef78c6f41502200d094f52eed65072caf52a102327f65ab42272a9767f7f687e999717e7dc20cb01",
        "304402202bf6ea7fbebef87e83ab1149580afb450ea056617fee390fb1aefc3b502dbb7202207e0bdfa56289d37030d687dd854131ed6c9dedab41d4863fc038995f8f1d869d01",
        "5221022b3ec5f0c1516e862105d2c1f253d958732cff8a12b1f07c31ad3d17b09e19802102db34c3125390225b3df1d250ccc09dfb46cf5755025a21f88130124595b5cc392103504fb8640dd8b0e8333af05423e39367115744148ccfbfd771d9c86472e31b4e53ae"
      ],
      "is_coinbase": false,
      "sequence": 4294967293,
      "inner_witnessscript_asm": "OP_PUSHNUM_2 OP_PUSHBYTES_33 022b3ec5f0c1516e862105d2c1f253d958732cff8a12b1f07c31ad3d17b09e1980 OP_PUSHBYTES_33 02db34c3125390225b3df1d250ccc09dfb46cf5755025a21f88130124595b5cc39 OP_PUSHBYTES_33 03504fb8640dd8b0e8333af05423e39367115744148ccfbfd771d9c86472e31b4e OP_PUSHNUM_3 OP_CHECKMULTISIG"
    }
  ],
  "vout": [
    {
      "scriptpubkey": "0014cfdd2c220df45ceb21ec4c3275337a19f33fa7e8",
      "scriptpubkey_asm": "OP_0 OP_PUSHBYTES_20 cfdd2c220df45ceb21ec4c3275337a19f33fa7e8",
      "scriptpubkey_type": "v0_p2wpkh",
      "scriptpubkey_address": "bc1qelwjcgsd73wwkg0vfse82vm6r8enlflg0t94kv",
      "value": 171200
    },
    {
      "scriptpubkey": "00205cc915f515bc0eac92126994681da500f5b1ecbfafb883a203efec556521fc6c",
      "scriptpubkey_asm": "OP_0 OP_PUSHBYTES_32 5cc915f515bc0eac92126994681da500f5b1ecbfafb883a203efec556521fc6c",
      "scriptpubkey_type": "v0_p2wsh",
      "scriptpubkey_address": "bc1qtny3tag4hs82eysjdx2xs8d9qr6mrm9l47ug8gsralk92efpl3kqnuuaxz",
      "value": 1213644
    }
  ],
  "size": 380,
  "weight": 755,
  "fee": 3800,
  "status": {
    "confirmed": true,
    "block_height": 834638,
    "block_hash": "000000000000000000025f742c626208ac87e0b7d15054abb4a19ca2d735a54e",
    "block_time": 1710405325
  },
  "hex": "01000000000101c864732e5ebdcbcbdb6a8547b478eb8b1f240cc0632cd2c33bd77fc263fca6340100000000fdffffff02c09c020000000000160014cfdd2c220df45ceb21ec4c3275337a19f33fa7e8cc841200000000002200205cc915f515bc0eac92126994681da500f5b1ecbfafb883a203efec556521fc6c04004830450221008982729b7a04559934ad6bad2191eace831057329228aab211a4c0ef78c6f41502200d094f52eed65072caf52a102327f65ab42272a9767f7f687e999717e7dc20cb0147304402202bf6ea7fbebef87e83ab1149580afb450ea056617fee390fb1aefc3b502dbb7202207e0bdfa56289d37030d687dd854131ed6c9dedab41d4863fc038995f8f1d869d01695221022b3ec5f0c1516e862105d2c1f253d958732cff8a12b1f07c31ad3d17b09e19802102db34c3125390225b3df1d250ccc09dfb46cf5755025a21f88130124595b5cc392103504fb8640dd8b0e8333af05423e39367115744148ccfbfd771d9c86472e31b4e53ae00000000"
}