{
  "txid": "55653cfdf72d99322aa90f0ec4897665773f87546db9b3e6d516c8af3419d004",
  "version": 1,
  "locktime": 0,
  "vin": [
    {
      "txid": "9a88240760707dc89bab676ddb8024e1bca22c591dae09a2129351dad36fa08c",
      "vout": 11,
      "prevout": {
        "scriptpubkey": "0014b31ac973ae18b9b871e5b73d00a5f4342398b266",
        "scriptpubkey_asm": "OP_0 OP_PUSHBYTES_20 b31ac973ae18b9b871e5b73d00a5f4342398b266",
        "scriptpubkey_type": "v0_p2wpkh",
        "scriptpubkey_address": "bc1qkvdvjuawrzumsu09ku7spf05xs3e3vnx3s5uem",
        "value": 2000000
      },
      "scriptsig": "",
      "scriptsig_asm": "",
      "witness": [
        "304402200734c9de52c7685c132dade004ed2f5b3e8d11951eae622d64c8463cf690fd5f02204a4f7bd1e98aaef59b98a99deecfe7fa517b1a3deed572023bed48960c047c3c01",
        "03aca78d91c96129b2f4e2436635fe2795ea90a6471d4fa6f7f423c1f9ae7b642f"
      ],
      "is_coinbase": false,
      "sequence": 4294967294
    }
  ],
  "vout": [
    {
      "scriptpubkey": "0014d6392042288523ca7c9568dd5811743d1ec5591f",
      "scriptpubkey_asm": "OP_0 OP_PUSHBYTES_20 d6392042288523ca7c9568dd5811743d1ec5591f",
      "scriptpubkey_type": "v0_p2wpkh",
      "scriptpubkey_address": "bc1q6cujqs3gs53u5ly4drw4syt5850v2kglkh8faw",
      "value": 250414
    },
    {
      "scriptpubkey": "0014b31ac973ae18b9b871e5b73d00a5f4342398b266",
      "scriptpubkey_asm": "OP_0 OP_PUSHBYTES_20 b31ac973ae18b9b871e5b73d00a5f4342398b266",
      "scriptpubkey_type": "v0_p2wpkh",
      "scriptpubkey_address": "bc1qkvdvjuawrzumsu09ku7spf05xs3e3vnx3s5uem",
      "value": 1745779
    }
  ],
  "size": 222,
  "weight": 561,
  "fee": 3807,
  "status": {
    "confirmed": true,
    "block_height": 834638,
    "block_hash": "000000000000000000025f742c626208ac87e0b7d15054abb4a19ca2d735a54e",
    "block_time": 1710405325
  },
  "hex": "010000000001018ca06fd3da519312a209ae1d592ca2bce12480db6d67ab9bc87d70600724889a0b00000000feffffff022ed2030000000000160014d6392042288523ca7c9568dd5811743d1ec5591f73a31a0000000000160014b31ac973ae18b9b871e5b73d00a5f4342398b2660247304402200734c9de52c7685c132dade004ed2f5b3e8d11951eae622d64c8463cf690fd5f02204a4f7bd1e98aaef59b98a99deecfe7fa517b1a3deed572023bed48960c047c3c012103aca78d91c96129b2f4e2436635fe2795ea90a6471d4fa6f7f423c1f9ae7b642f00000000"
}