{
  "txid": "5570fb237a0e1081b8ada535ede51dbc63635716b9f61051737af8be970f5581",
  "version": 1,
  "locktime": 0,
  "vin": [
    {
      "txid": "47589f760193e4a8d6813d667b5c3d2465f0f5143cad3dd25a5b649f952795b4",
      "vout": 1,
      "prevout": {
        "scriptpubkey": "001465cf022b84a8ddc11619d78a6f02b37436377b3d",
        "scriptpubkey_asm": "OP_0 OP_PUSHBYTES_20 65cf022b84a8ddc11619d78a6f02b37436377b3d",
        "scriptpubkey_type": "v0_p2wpkh",
        "scriptpubkey_address": "bc1qvh8sy2uy4rwuz9se679x7q4nwsmrw7ea6y8wyh",
        "value": 5925862
      },
      "scriptsig": "",
      "scriptsig_asm": "",
      "witness": [
        "3045022100f50a156c576ddd66acca57aeff6371d79c1fded9ea41713fbe5715c42402892902204a818bb301fca2b11397ad0076915bbebb5bcd40771b8fee4e73ebd770bbe44601",
        "03161bc7ad82a23e4a3f2c8d16ce7c54189d573f57f43b5c30efe90c81ec726873"
      ],
      "is_coinbase": false,
      "sequence": 0
    }
  ],
  "vout": [
    {
      "scriptpubkey": "0014ece6a61453c34dc89bc24e27a431619f2d491f41",
      "scriptpubkey_asm": "OP_0 OP_PUSHBYTES_20 ece6a61453c34dc89bc24e27a431619f2d491f41",
      "scriptpubkey_type": "v0_p2wpkh",
      "scriptpubkey_address": "bc1qann2v9zncdxu3x7zfcn6gvtpnuk5j86pjepe0n",
      "value": 1000000
    },
    {
      "scriptpubkey": "001465cf022b84a8ddc11619d78a6f02b37436377b3d",
      "scriptpubkey_asm": "OP_0 OP_PUSHBYTES_20 65cf022b84a8ddc11619d78a6f02b37436377b3d",
      "scriptpubkey_type": "v0_p2wpkh",
      "scriptpubkey_address": "bc1qvh8sy2uy4rwuz9se679x7q4nwsmrw7ea6y8wyh",
      "value": 4923324
    }
  ],
  "size": 223,
  "weight": 562,
  "fee": 2538,
  "status": {
    "confirmed": true,
    "block_height": 834552,
    "block_hash": "00000000000000000001dd0468a70c94f619251d286585cff57aeb4bd9ede330",
    "block_time": 1710355598
  },
  "hex": "01000000000101b49527959f645b5ad23dad3c14f5f065243d5c7b663d81d6a8e49301769f58470100000000000000000240420f0000000000160014ece6a61453c34dc89bc24e27a431619f2d491f41bc1f4b000000000016001465cf022b84a8ddc11619d78a6f02b37436377b3d02483045022100f50a156c576ddd66acca57aeff6371d79c1fded9ea41713fbe5715c42402892902204a818bb301fca2b11397ad0076915bbebb5bcd40771b8fee4e73ebd770bbe446012103161bc7ad82a23e4a3f2c8d16ce7c54189d573f57f43b5c30efe90c81ec72687300000000"
}