{
  "txid": "55754dac0c2bb845382704369ae9dc900a9927a5dc90178297b702e5afc29f3f",
  "version": 2,
  "locktime": 0,
  "vin": [
    {
      "txid": "68d9f7e7b000b1197db68146e2654a75b48d99182f709c70f486cc67cc11954e",
      "vout": 3,
      "prevout": {
        "scriptpubkey": "0014c105b9942bcd5dc082ed185f946dc303efa89018",
        "scriptpubkey_asm": "OP_0 OP_PUSHBYTES_20 c105b9942bcd5dc082ed185f946dc303efa89018",
        "scriptpubkey_type": "v0_p2wpkh",
        "scriptpubkey_address": "bc1qcyzmn9pte4wupqhdrp0egmwrq0h63yqc2vt4q5",
        "value": 600
      },
      "scriptsig": "",
      "scriptsig_asm": "",
      "witness": [
        "3045022100f6e8b07f4b696d5c3fa1a141dcaaa8649ac9934c28e27a5cb214f9cc38e4461002203d9e3ba61241029084a9803e317a234bae32cc375b3695fae1a12d22edb7a44d01",
        "02e90fd9dd0372919fce8de49aeedaf1204f86d0ba35590e2c4c752b44f8db9382"
      ],
      "is_coinbase": false,
      "sequence": 4294967295
    },
    {
      "txid": "a88e9aad654a17cda04fab15be40be33f12e8ba0c4f2fa791a07004144e20814",
      "vout": 19,
      "prevout": {
        "scriptpubkey": "0014c105b9942bcd5dc082ed185f946dc303efa89018",
        "scriptpubkey_asm": "OP_0 OP_PUSHBYTES_20 c105b9942bcd5dc082ed185f946dc303efa89018",
        "scriptpubkey_type": "v0_p2wpkh",
        "scriptpubkey_address": "bc1qcyzmn9pte4wupqhdrp0egmwrq0h63yqc2vt4q5",
        "value": 600
      },
      "scriptsig": "",
      "scriptsig_asm": "",
      "witness": [
        "3045022100dad19f28299e7a34f653dd01719480c231055ea56da12dd34cd4fd42d2bb20390220550474c7308a0e8fa3b465b1d970830c53888003fb6bf2a35d8fc0c6c51cb88001",
        "02e90fd9dd0372919fce8de49aeedaf1204f86d0ba35590e2c4c752b44f8db9382"
      ],
      "is_coinbase": false,
      "sequence": 4294967295
    },
    {
      "txid": "179befb220aa22a168826953d4127b2154b2a9dff67672eb795bdc1b9b4baa05",
      "vout": 0,
      "prevout": {
        "scriptpubkey": "5120c4dd05c8f2907c040aa04417c74fbb078dac14d9125f2810729e52c6c775915a",
        "scriptpubkey_asm": "OP_PUSHNUM_1 OP_PUSHBYTES_32 c4dd05c8f2907c040aa04417c74fbb078dac14d9125f2810729e52c6c775915a",
        "scriptpubkey_type": "v1_p2tr",
        "scriptpubkey_address": "bc1pcnwstj8jjp7qgz4qgstuwnamq7x6c9xezf0jsyrjnefvd3m4j9dqjsmzfq",
        "value": 546
      },
      "scriptsig": "",
      "scriptsig_asm": "",
      "witness": [
        "e69f937e1891912d3466f5bba4915804b452e32ca7c74262ef2496f6e605aa49cfb6777d751bbe2bf993cc637e33ab4d52cf173aa08aeb049aa27930c23d735283"
      ],
      "is_coinbase": false,
      "sequence": 4294967295
    },
    {
      "txid": "e86136febb68b4b58a950235dde6c44b0b9576d574a13a2008e138b79fb80c53",
      "vout": 2,
      "prevout": {
        "scriptpubkey": "0014c105b9942bcd5dc082ed185f946dc303efa89018",
        "scriptpubkey_asm": "OP_0 OP_PUSHBYTES_20 c105b9942bcd5dc082ed185f946dc303efa89018",
        "scriptpubkey_type": "v0_p2wpkh",
        "scriptpubkey_address": "bc1qcyzmn9pte4wupqhdrp0egmwrq0h63yqc2vt4q5",
        "value": 280000
      },
      "scriptsig": "",
      "scriptsig_asm": "",
      "witness": [
        "3044022030c153a589ad28c5540ee884b85e1150092def6fae05f3c148f573b5e4956e360220450d5293c6d6e6806e8a06a4663f4d72f875ce9ae6b58e67d091c2b20581105401",
        "02e90fd9dd0372919fce8de49aeedaf1204f86d0ba35590e2c4c752b44f8db9382"
      ],
      "is_coinbase": false,
      "sequence": 4294967295
    },
    {
      "txid": "886b783dbe35322f17954c84017fedd0541035a2a736c351b34d29e7f066d606",
      "vout": 13,
      "prevout": {
        "scriptpubkey": "0014c105b9942bcd5dc082ed185f946dc303efa89018",
        "scriptpubkey_asm": "OP_0 OP_PUSHBYTES_20 c105b9942bcd5dc082ed185f946dc303efa89018",
        "scriptpubkey_type": "v0_p2wpkh",
        "scriptpubkey_address": "bc1qcyzmn9pte4wupqhdrp0egmwrq0h63yqc2vt4q5",
        "value": 280000
      },
      "scriptsig": "",
      "scriptsig_asm": "",
      "witness": [
        "304402201a11f9eed9e024b36cd64e72b15dc2354c518ec3b60fc59d5c9dd839baa0fb60022013ae775b4815699bf60595710cb6d573568a09c463037589ace731fd9b3d501a01",
        "02e90fd9dd0372919fce8de49aeedaf1204f86d0ba35590e2c4c752b44f8db9382"
      ],
      "is_coinbase": false,
      "sequence": 4294967295
    },
    {
      "txid": "821ebfdec74755d253edee014956cac73977dfb90f5c8a12f03d1be09be453ad",
      "vout": 2,
      "prevout": {
        "scriptpubkey": "0014c105b9942bcd5dc082ed185f946dc303efa89018",
        "scriptpubkey_asm": "OP_0 OP_PUSHBYTES_20 c105b9942bcd5dc082ed185f946dc303efa89018",
        "scriptpubkey_type": "v0_p2wpkh",
        "scriptpubkey_address": "bc1qcyzmn9pte4wupqhdrp0egmwrq0h63yqc2vt4q5",
        "value": 280000
      },
      "scriptsig": "",
      "scriptsig_asm": "",
      "witness": [
        "304402204b8d9a7b00e6806ab01afe93a3a7abe4f3dcc25bbb25c178ce6b6c90b31426e0022079a82ff1f1bf9e0a3f6cd9848873cadb89c70cbfc7d1af531ee3153ddf38b7e001",
        "02e90fd9dd0372919fce8de49aeedaf1204f86d0ba35590e2c4c752b44f8db9382"
      ],
      "is_coinbase": false,
      "sequence": 4294967295
    },
    {
      "txid": "e92370a2932f99a6c10b82a2517778accdb461844e0e9e231973c2b89dc9e1eb",
      "vout": 3,
      "prevout": {
        "scriptpubkey": "0014c105b9942bcd5dc082ed185f946dc303efa89018",
        "scriptpubkey_asm": "OP_0 OP_PUSHBYTES_20 c105b9942bcd5dc082ed185f946dc303efa89018",
        "scriptpubkey_type": "v0_p2wpkh",
        "scriptpubkey_address": "bc1qcyzmn9pte4wupqhdrp0egmwrq0h63yqc2vt4q5",
        "value": 280000
      },
      "scriptsig": "",
      "scriptsig_asm": "",
      "witness": [
        "3045022100fc6b5ed40e5ca34bd082260a791c8063d3374c94ae993702f8754b0a8483504d022005139d2921bf9dd0540de6904a879b8553dad6dd763bf35322da1aa114cb6a5f01",
        "02e90fd9dd0372919fce8de49aeedaf1204f86d0ba35590e2c4c752b44f8db9382"
      ],
      "is_coinbase": false,
      "sequence": 4294967295
    },
    {
      "txid": "3a762705f254634aff062932e27747d5bed5ebee7e4bef59dd70dcb95accbd53",
      "vout": 4,
      "prevout": {
        "scriptpubkey": "0014c105b9942bcd5dc082ed185f946dc303efa89018",
        "scriptpubkey_asm": "OP_0 OP_PUSHBYTES_20 c105b9942bcd5dc082ed185f946dc303efa89018",
        "scriptpubkey_type": "v0_p2wpkh",
        "scriptpubkey_address": "bc1qcyzmn9pte4wupqhdrp0egmwrq0h63yqc2vt4q5",
        "value": 280000
      },
      "scriptsig": "",
      "scriptsig_asm": "",
      "witness": [
        "30440220553fef7df074a18ba59aa0e522b4ac2bd563417421fd53e63569c3ed10b78b550220665151376f5cc27c6169e25567e2d8af6223038e61f71a85cc293c5a6dc38dc701",
        "02e90fd9dd0372919fce8de49aeedaf1204f86d0ba35590e2c4c752b44f8db9382"
      ],
      "is_coinbase": false,
      "sequence": 4294967295
    },
    {
      "txid": "3a762705f254634aff062932e27747d5bed5ebee7e4bef59dd70dcb95accbd53",
      "vout": 5,
      "prevout": {
        "scriptpubkey": "0014c105b9942bcd5dc082ed185f946dc303efa89018",
        "scriptpubkey_asm": "OP_0 OP_PUSHBYTES_20 c105b9942bcd5dc082ed185f946dc303efa89018",
        "scriptpubkey_type": "v0_p2wpkh",
        "scriptpubkey_address": "bc1qcyzmn9pte4wupqhdrp0egmwrq0h63yqc2vt4q5",
        "value": 280000
      },
      "scriptsig": "",
      "scriptsig_asm": "",
      "witness": [
        "304402203abdec91b498b787b44954d7f2a3cb94d0f55d0d804e7804b6a2e1a395255c47022056224183c2b990b8747c508c9ff8d8a943cb1288c3e6404a6f675b793762dc4b01",
        "02e90fd9dd0372919fce8de49aeedaf1204f86d0ba35590e2c4c752b44f8db9382"
      ],
      "is_coinbase": false,
      "sequence": 4294967295
    },
    {
      "txid": "641d760a0a420d5c9bb20b562f8539c8e4931a764643d61c0a5c587616499b5f",
      "vout": 2,
      "prevout": {
        "scriptpubkey": "0014c105b9942bcd5dc082ed185f946dc303efa89018",
        "scriptpubkey_asm": "OP_0 OP_PUSHBYTES_20 c105b9942bcd5dc082ed185f946dc303efa89018",
        "scriptpubkey_type": "v0_p2wpkh",
        "scriptpubkey_address": "bc1qcyzmn9pte4wupqhdrp0egmwrq0h63yqc2vt4q5",
        "value": 280000
      },
      "scriptsig": "",
      "scriptsig_asm": "",
      "witness": [
        "3045022100c5812e3cc75c736fbe230a97b33136652de8ca2ae4642c9ad9d9cfeebde21646022031b3b6c5d787de39fa5b6476b84dce83a488b5e0c86f139cd1d71e7454d1d97101",
        "02e90fd9dd0372919fce8de49aeedaf1204f86d0ba35590e2c4c752b44f8db9382"
      ],
      "is_coinbase": false,
      "sequence": 4294967295
    },
    {
      "txid": "3a762705f254634aff062932e27747d5bed5ebee7e4bef59dd70dcb95accbd53",
      "vout": 6,
      "prevout": {
        "scriptpubkey": "0014c105b9942bcd5dc082ed185f946dc303efa89018",
        "scriptpubkey_asm": "OP_0 OP_PUSHBYTES_20 c105b9942bcd5dc082ed185f946dc303efa89018",
        "scriptpubkey_type": "v0_p2wpkh",
        "scriptpubkey_address": "bc1qcyzmn9pte4wupqhdrp0egmwrq0h63yqc2vt4q5",
        "value": 280000
      },
      "scriptsig": "",
      "scriptsig_asm": "",
      "witness": [
        "3044022063e537faa83b7317d5219e922314f3aafe678f890fd4827b745e8d4e62b9962e022048369600e96c36e7f8cc40238588b21d731b4df0ebe5d7857c69125baeec520401",
        "02e90fd9dd0372919fce8de49aeedaf1204f86d0ba35590e2c4c752b44f8db9382"
      ],
      "is_coinbase": false,
      "sequence": 4294967295
    },
    {
      "txid": "ff226209bd3e850e387ce4f98d0ba97a791974d37cc02363e82ee133afb7d2f5",
      "vout": 1,
      "prevout": {
        "scriptpubkey": "0014c105b9942bcd5dc082ed185f946dc303efa89018",
        "scriptpubkey_asm": "OP_0 OP_PUSHBYTES_20 c105b9942bcd5dc082ed185f946dc303efa89018",
        "scriptpubkey_type": "v0_p2wpkh",
        "scriptpubkey_address": "bc1qcyzmn9pte4wupqhdrp0egmwrq0h63yqc2vt4q5",
        "value": 275600
      },
      "scriptsig": "",
      "scriptsig_asm": "",
      "witness": [
        "304402205daa48df63630abd6c3b34c29b8d565aacd650aeb52cc6be6f3b450e35fd2fbf0220199a34226c3e04545952fec74be7a066d6f8d4c422597c2cab9b1df6a127dff701",
        "02e90fd9dd0372919fce8de49aeedaf1204f86d0ba35590e2c4c752b44f8db9382"
      ],
      "is_coinbase": false,
      "sequence": 4294967295
    },
    {
      "txid": "c558c561d6e070a7415c11aae95f802f25840a84a2174dbb87cad8510c31085b",
      "vout": 5,
      "prevout": {
        "scriptpubkey": "0014c105b9942bcd5dc082ed185f946dc303efa89018",
        "scriptpubkey_asm": "OP_0 OP_PUSHBYTES_20 c105b9942bcd5dc082ed185f946dc303efa89018",
        "scriptpubkey_type": "v0_p2wpkh",
        "scriptpubkey_address": "bc1qcyzmn9pte4wupqhdrp0egmwrq0h63yqc2vt4q5",
        "value": 271706
      },
      "scriptsig": "",
      "scriptsig_asm": "",
      "witness": [
        "304402200ae445049479f9d1691b26d8e78846eb0928e60ce6329295a220e506e9a83378022072fe333ce0399a1b75553e45e5b7d96ab841450afdbcbb5b8a8bca38847dde3b01",
        "02e90fd9dd0372919fce8de49aeedaf1204f86d0ba35590e2c4c752b44f8db9382"
      ],
      "is_coinbase": false,
      "sequence": 4294967295
    },
    {
      "txid": "775c6d13a4ddaa0bf672f54117d94c083ca6c57d31574eb74511204c47462214",
      "vout": 5,
      "prevout": {
        "scriptpubkey": "0014c105b9942bcd5dc082ed185f946dc303efa89018",
        "scriptpubkey_asm": "OP_0 OP_PUSHBYTES_20 c105b9942bcd5dc082ed185f946dc303efa89018",
        "scriptpubkey_type": "v0_p2wpkh",
        "scriptpubkey_address": "bc1qcyzmn9pte4wupqhdrp0egmwrq0h63yqc2vt4q5",
        "value": 270704
      },
      "scriptsig": "",
      "scriptsig_asm": "",
      "witness": [
        "3045022100df3ea6bda849a28b6ba7fe90b5908b9b572bb1f0510debff5e328e070eed630702205f341a061f595a11fa1e662396a360a19657ed2ac65e7d8fb5dbec782c3af31c01",
        "02e90fd9dd0372919fce8de49aeedaf1204f86d0ba35590e2c4c752b44f8db9382"
      ],
      "is_coinbase": false,
      "sequence": 4294967295
    },
    {
      "txid": "dff922d88f04054fb1cf2331299af1c1a00210f79af35f00d25662ad894b6899",
      "vout": 1,
      "prevout": {
        "scriptpubkey": "0014c105b9942bcd5dc082ed185f946dc303efa89018",
        "scriptpubkey_asm": "OP_0 OP_PUSHBYTES_20 c105b9942bcd5dc082ed185f946dc303efa89018",
        "scriptpubkey_type": "v0_p2wpkh",
        "scriptpubkey_address": "bc1qcyzmn9pte4wupqhdrp0egmwrq0h63yqc2vt4q5",
        "value": 270078
      },
      "scriptsig": "",
      "scriptsig_asm": "",
      "witness": [
        "304402203e46a05ae3efcad8a629afb7a5f8d71d1c8f1e4759f3b67db43445d9f9749ab2022029eef47d9be256eebacb23ca270b1c6235bd9f80547c9cbd27a9faf29a27164a01",
        "02e90fd9dd0372919fce8de49aeedaf1204f86d0ba35590e2c4c752b44f8db9382"
      ],
      "is_coinbase": false,
      "sequence": 4294967295
    },
    {
      "txid": "20cf621cccb885ee03501c8234d2890c7f8d6c8849fecf1170528e6bb1c6200b",
      "vout": 5,
      "prevout": {
        "scriptpubkey": "0014c105b9942bcd5dc082ed185f946dc303efa89018",
        "scriptpubkey_asm": "OP_0 OP_PUSHBYTES_20 c105b9942bcd5dc082ed185f946dc303efa89018",
        "scriptpubkey_type": "v0_p2wpkh",
        "scriptpubkey_address": "bc1qcyzmn9pte4wupqhdrp0egmwrq0h63yqc2vt4q5",
        "value": 268240
      },
      "scriptsig": "",
      "scriptsig_asm": "",
      "witness": [
        "3045022100ec012b670acdd5f3eee5c6ea16b144527585d08f92a2f28e9ae016655f08fa350220615be6ce5ed579cd2952beed4cc1b5b5a9c3183a03c0147e5c0bff5a3e15cfe101",
        "02e90fd9dd0372919fce8de49aeedaf1204f86d0ba35590e2c4c752b44f8db9382"
      ],
      "is_coinbase": false,
      "sequence": 4294967295
    },
    {
      "txid": "3106a9ed21bd78536f12d819d8ecabd3c0dc14bc17f0eeee65e2c5b1f245d4a2",
      "vout": 5,
      "prevout": {
        "scriptpubkey": "0014c105b9942bcd5dc082ed185f946dc303efa89018",
        "scriptpubkey_asm": "OP_0 OP_PUSHBYTES_20 c105b9942bcd5dc082ed185f946dc303efa89018",
        "scriptpubkey_type": "v0_p2wpkh",
        "scriptpubkey_address": "bc1qcyzmn9pte4wupqhdrp0egmwrq0h63yqc2vt4q5",
        "value": 265074
      },
      "scriptsig": "",
      "scriptsig_asm": "",
      "witness": [
        "3044022012d361b3817faccc6201c0f3ff979bd3c2d221b9dd40f721c9cdd4a920173573022004b6a2a559937ac120eb58fbd7d976729a8744527cd66add937f926ce8f1152701",
        "02e90fd9dd0372919fce8de49aeedaf1204f86d0ba35590e2c4c752b44f8db9382"
      ],
      "is_coinbase": false,
      "sequence": 4294967295
    }
  ],
  "vout": [
    {
      "scriptpubkey": "0014c105b9942bcd5dc082ed185f946dc303efa89018",
      "scriptpubkey_asm": "OP_0 OP_PUSHBYTES_20 c105b9942bcd5dc082ed185f946dc303efa89018",
      "scriptpubkey_type": "v0_p2wpkh",
      "scriptpubkey_address": "bc1qcyzmn9pte4wupqhdrp0egmwrq0h63yqc2vt4q5",
      "value": 1200
    },
    {
      "scriptpubkey": "0014c105b9942bcd5dc082ed185f946dc303efa89018",
      "scriptpubkey_asm": "OP_0 OP_PUSHBYTES_20 c105b9942bcd5dc082ed185f946dc303efa89018",
      "scriptpubkey_type": "v0_p2wpkh",
      "scriptpubkey_address": "bc1qcyzmn9pte4wupqhdrp0egmwrq0h63yqc2vt4q5",
      "value": 546
    },
    {
      "scriptpubkey": "5120c4dd05c8f2907c040aa04417c74fbb078dac14d9125f2810729e52c6c775915a",
      "scriptpubkey_asm": "OP_PUSHNUM_1 OP_PUSHBYTES_32 c4dd05c8f2907c040aa04417c74fbb078dac14d9125f2810729e52c6c775915a",
      "scriptpubkey_type": "v1_p2tr",
      "scriptpubkey_address": "bc1pcnwstj8jjp7qgz4qgstuwnamq7x6c9xezf0jsyrjnefvd3m4j9dqjsmzfq",
      "value": 3599996
    },
    {
      "scriptpubkey": "0014c105b9942bcd5dc082ed185f946dc303efa89018",
      "scriptpubkey_asm": "OP_0 OP_PUSHBYTES_20 c105b9942bcd5dc082ed185f946dc303efa89018",
      "scriptpubkey_type": "v0_p2wpkh",
      "scriptpubkey_address": "bc1qcyzmn9pte4wupqhdrp0egmwrq0h63yqc2vt4q5",
      "value": 600
    },
    {
      "scriptpubkey": "0014c105b9942bcd5dc082ed185f946dc303efa89018",
      "scriptpubkey_asm": "OP_0 OP_PUSHBYTES_20 c105b9942bcd5dc082ed185f946dc303efa89018",
      "scriptpubkey_type": "v0_p2wpkh",
      "scriptpubkey_address": "bc1qcyzmn9pte4wupqhdrp0egmwrq0h63yqc2vt4q5",
      "value": 600
    },
    {
      "scriptpubkey": "0014c105b9942bcd5dc082ed185f946dc303efa89018",
      "scriptpubkey_asm": "OP_0 OP_PUSHBYTES_20 c105b9942bcd5dc082ed185f946dc303efa89018",
      "scriptpubkey_type": "v0_p2wpkh",
      "scriptpubkey_address": "bc1qcyzmn9pte4wupqhdrp0egmwrq0h63yqc2vt4q5",
      "value": 243982
    }
  ],
  "size": 2692,
  "weight": 5407,
  "fee": 16224,
  "status": {
    "confirmed": true,
    "block_height": 834460,
    "block_hash": "00000000000000000000484a79b643b2524bbce82e5d8a442013fa5b8905ed98",
    "block_time": 1710307468
  },
  "hex": "020000000001114e9511cc67cc86f4709c702f18998db4754a65e24681b67d19b100b0e7f7d9680300000000ffffffff1408e2444100071a79faf2c4a08b2ef133be40be15ab4fa0cd174a65ad9a8ea81300000000ffffffff05aa4b9b1bdc5b79eb7276f6dfa9b254217b12d453698268a122aa20b2ef9b170000000000ffffffff530cb89fb738e108203aa174d576950b4bc4e6dd3502958ab5b468bbfe3661e80200000000ffffffff06d666f0e7294db351c336a7a2351054d0ed7f01844c95172f3235be3d786b880d00000000ffffffffad53e49be01b3df0128a5c0fb9df7739c7ca564901eeed53d25547c7debf1e820200000000ffffffffebe1c99db8c27319239e0e4e8461b4cdac787751a2820bc1a6992f93a27023e90300000000ffffffff53bdcc5ab9dc70dd59ef4b7eeeebd5bed54777e2322906ff4a6354f20527763a0400000000ffffffff53bdcc5ab9dc70dd59ef4b7eeeebd5bed54777e2322906ff4a6354f20527763a0500000000ffffffff5f9b491676585c0a1cd64346761a93e4c839852f560bb29b5c0d420a0a761d640200000000ffffffff53bdcc5ab9dc70dd59ef4b7eeeebd5bed54777e2322906ff4a6354f20527763a0600000000fffffffff5d2b7af33e12ee86323c07cd37419797aa90b8df9e47c380e853ebd096222ff0100000000ffffffff5b08310c51d8ca87bb4d17a2840a84252f805fe9aa115c41a770e0d661c558c50500000000ffffffff142246474c201145b74e57317dc5a63c084cd91741f572f60baadda4136d5c770500000000ffffffff99684b89ad6256d2005ff39af71002a0c1f19a293123cfb14f05048fd822f9df0100000000ffffffff0b20c6b16b8e527011cffe49886c8d7f0c89d234821c5003ee85b8cc1c62cf200500000000ffffffffa2d445f2b1c5e265eeeef017bc14dcc0d3abecd819d8126f5378bd21eda906310500000000ffffffff06b004000000000000160014c105b9942bcd5dc082ed185f946dc303efa890182202000000000000160014c105b9942bcd5dc082ed185f946dc303efa890187cee360000000000225120c4dd05c8f2907c040aa04417c74fbb078dac14d9125f2810729e52c6c775915a5802000000000000160014c105b9942bcd5dc082ed185f946dc303efa890185802000000000000160014c105b9942bcd5dc082ed185f946dc303efa890180eb9030000000000160014c105b9942bcd5dc082ed185f946dc303efa8901802483045022100f6e8b07f4b696d5c3fa1a141dcaaa8649ac9934c28e27a5cb214f9cc38e4461002203d9e3ba61241029084a9803e317a234bae32cc375b3695fae1a12d22edb7a44d012102e90fd9dd0372919fce8de49aeedaf1204f86d0ba35590e2c4c752b44f8db938202483045022100dad19f28299e7a34f653dd01719480c231055ea56da12dd34cd4fd42d2bb20390220550474c7308a0e8fa3b465b1d970830c53888003fb6bf2a35d8fc0c6c51cb880012102e90fd9dd0372919fce8de49aeedaf1204f86d0ba35590e2c4c752b44f8db93820141e69f937e1891912d3466f5bba4915804b452e32ca7c74262ef2496f6e605aa49cfb6777d751bbe2bf993cc637e33ab4d52cf173aa08aeb049aa27930c23d73528302473044022030c153a589ad28c5540ee884b85e1150092def6fae05f3c148f573b5e4956e360220450d5293c6d6e6806e8a06a4663f4d72f875ce9ae6b58e67d091c2b205811054012102e90fd9dd0372919fce8de49aeedaf1204f86d0ba35590e2c4c752b44f8db93820247304402201a11f9eed9e024b36cd64e72b15dc2354c518ec3b60fc59d5c9dd839baa0fb60022013ae775b4815699bf60595710cb6d573568a09c463037589ace731fd9b3d501a012102e90fd9dd0372919fce8de49aeedaf1204f86d0ba35590e2c4c752b44f8db93820247304402204b8d9a7b00e6806ab01afe93a3a7abe4f3dcc25bbb25c178ce6b6c90b31426e0022079a82ff1f1bf9e0a3f6cd9848873cadb89c70cbfc7d1af531ee3153ddf38b7e0012102e90fd9dd0372919fce8de49aeedaf1204f86d0ba35590e2c4c752b44f8db938202483045022100fc6b5ed40e5ca34bd082260a791c8063d3374c94ae993702f8754b0a8483504d022005139d2921bf9dd0540de6904a879b8553dad6dd763bf35322da1aa114cb6a5f012102e90fd9dd0372919fce8de49aeedaf1204f86d0ba35590e2c4c752b44f8db9382024730440220553fef7df074a18ba59aa0e522b4ac2bd563417421fd53e63569c3ed10b78b550220665151376f5cc27c6169e25567e2d8af6223038e61f71a85cc293c5a6dc38dc7012102e90fd9dd0372919fce8de49aeedaf1204f86d0ba35590e2c4c752b44f8db93820247304402203abdec91b498b787b44954d7f2a3cb94d0f55d0d804e7804b6a2e1a395255c47022056224183c2b990b8747c508c9ff8d8a943cb1288c3e6404a6f675b793762dc4b012102e90fd9dd0372919fce8de49aeedaf1204f86d0ba35590e2c4c752b44f8db938202483045022100c5812e3cc75c736fbe230a97b33136652de8ca2ae4642c9ad9d9cfeebde21646022031b3b6c5d787de39fa5b6476b84dce83a488b5e0c86f139cd1d71e7454d1d971012102e90fd9dd0372919fce8de49aeedaf1204f86d0ba35590e2c4c752b44f8db938202473044022063e537faa83b7317d5219e922314f3aafe678f890fd4827b745e8d4e62b9962e022048369600e96c36e7f8cc40238588b21d731b4df0ebe5d7857c69125baeec5204012102e90fd9dd0372919fce8de49aeedaf1204f86d0ba35590e2c4c752b44f8db93820247304402205daa48df63630abd6c3b34c29b8d565aacd650aeb52cc6be6f3b450e35fd2fbf0220199a34226c3e04545952fec74be7a066d6f8d4c422597c2cab9b1df6a127dff7012102e90fd9dd0372919fce8de49aeedaf1204f86d0ba35590e2c4c752b44f8db93820247304402200ae445049479f9d1691b26d8e78846eb0928e60ce6329295a220e506e9a83378022072fe333ce0399a1b75553e45e5b7d96ab841450afdbcbb5b8a8bca38847dde3b012102e90fd9dd0372919fce8de49aeedaf1204f86d0ba35590e2c4c752b44f8db938202483045022100df3ea6bda849a28b6ba7fe90b5908b9b572bb1f0510debff5e328e070eed630702205f341a061f595a11fa1e662396a360a19657ed2ac65e7d8fb5dbec782c3af31c012102e90fd9dd0372919fce8de49aeedaf1204f86d0ba35590e2c4c752b44f8db93820247304402203e46a05ae3efcad8a629afb7a5f8d71d1c8f1e4759f3b67db43445d9f9749ab2022029eef47d9be256eebacb23ca270b1c6235bd9f80547c9cbd27a9faf29a27164a012102e90fd9dd0372919fce8de49aeedaf1204f86d0ba35590e2c4c752b44f8db938202483045022100ec012b670acdd5f3eee5c6ea16b144527585d08f92a2f28e9ae016655f08fa350220615be6ce5ed579cd2952beed4cc1b5b5a9c3183a03c0147e5c0bff5a3e15cfe1012102e90fd9dd0372919fce8de49aeedaf1204f86d0ba35590e2c4c752b44f8db938202473044022012d361b3817faccc6201c0f3ff979bd3c2d221b9dd40f721c9cdd4a920173573022004b6a2a559937ac120eb58fbd7d976729a8744527cd66add937f926ce8f11527012102e90fd9dd0372919fce8de49aeedaf1204f86d0ba35590e2c4c752b44f8db938200000000"
}