{
  "txid": "557c7a173653c6f9d029a9e3ed3ae35e7693582da45d2156f429a41f717267b9",
  "version": 1,
  "locktime": 0,
  "vin": [
    {
      "txid": "1dc51c1c5b11d02c49077676cf1f40d5574add32f18ba6aa4b5fbcda80a25fd0",
      "vout": 0,
      "prevout": {
        "scriptpubkey": "512028565a22888b57029b64c735a33ff01372851e123c876b3e5adc5dee2bc87e9e",
        "scriptpubkey_asm": "OP_PUSHNUM_1 OP_PUSHBYTES_32 28565a22888b57029b64c735a33ff01372851e123c876b3e5adc5dee2bc87e9e",
        "scriptpubkey_type": "v1_p2tr",
        "scriptpubkey_address": "bc1p9pt95g5g3dts9xmycu66x0lszdeg28sj8jrkk0j6m3w7u27g060qqdmvw4",
        "value": 2576
      },
      "scriptsig": "",
      "scriptsig_asm": "",
      "witness": [
        "3ef2e8bc6761c56b3f17f32d1035b83d94406cd9466e18ae7510b68b47010df2986f7e103351bdaa2d8cdbefc767b63f6f5f3a69f42067a332fa44c0f87c7a77",
        "2079f9d72d9b9b1dcb10f7ce421deb098c111f9504f4c35d2f77d14ee0d7bea71eac0063036f7264010118746578742f706c61696e3b636861727365743d7574662d3800397b2270223a226272632d3230222c226f70223a227472616e73666572222c227469636b223a224d574343222c22616d74223a2237323935227d68",
        "c179f9d72d9b9b1dcb10f7ce421deb098c111f9504f4c35d2f77d14ee0d7bea71e"
      ],
      "is_coinbase": false,
      "sequence": 4294967293
    }
  ],
  "vout": [
    {
      "scriptpubkey": "0014303339128bc1e7928aebac5f28757088066d5977",
      "scriptpubkey_asm": "OP_0 OP_PUSHBYTES_20 303339128bc1e7928aebac5f28757088066d5977",
      "scriptpubkey_type": "v0_p2wpkh",
      "scriptpubkey_address": "bc1qxqenjy5tc8ne9zht430jsats3qrx6kthmqu50d",
      "value": 546
    }
  ],
  "size": 312,
  "weight": 558,
  "fee": 2030,
  "status": {
    "confirmed": true,
    "block_height": 834460,
    "block_hash": "00000000000000000000484a79b643b2524bbce82e5d8a442013fa5b8905ed98",
    "block_time": 1710307468
  },
  "hex": "01000000000101d05fa280dabc5f4baaa68bf132dd4a57d5401fcf767607492cd0115b1c1cc51d0000000000fdffffff012202000000000000160014303339128bc1e7928aebac5f28757088066d597703403ef2e8bc6761c56b3f17f32d1035b83d94406cd9466e18ae7510b68b47010df2986f7e103351bdaa2d8cdbefc767b63f6f5f3a69f42067a332fa44c0f87c7a777f2079f9d72d9b9b1dcb10f7ce421deb098c111f9504f4c35d2f77d14ee0d7bea71eac0063036f7264010118746578742f706c61696e3b636861727365743d7574662d3800397b2270223a226272632d3230222c226f70223a227472616e73666572222c227469636b223a224d574343222c22616d74223a2237323935227d6821c179f9d72d9b9b1dcb10f7ce421deb098c111f9504f4c35d2f77d14ee0d7bea71e00000000"
}