{
  "txid": "5589729fb1e1643a57acdee33090e0dc320bdc66939d0ee001532cc4f0e5bf15",
  "version": 2,
  "locktime": 834637,
  "vin": [
    {
      "txid": "25210853c824cb8a26f3cad66c473d4f8a38b2975f0c167b2f7f56f938f69c82",
      "vout": 1,
      "prevout": {
        "scriptpubkey": "0014e7a2cbc53c92f894a27759a4ff3307ce8ef2d5e1",
        "scriptpubkey_asm": "OP_0 OP_PUSHBYTES_20 e7a2cbc53c92f894a27759a4ff3307ce8ef2d5e1",
        "scriptpubkey_type": "v0_p2wpkh",
        "scriptpubkey_address": "bc1qu73vh3fujtuffgnhtxj07vc8e680940p7f9f52",
        "value": 773074418
      },
      "scriptsig": "",
      "scriptsig_asm": "",
      "witness": [
        "304402203198bdeca43cebd1e2312a63f67c5d012aac5911feb85792a6b552c82c902d75022075d64b5641c9506b6ec1e994e6054fdf8ab7f01268b6d1d2ba164545fe52a37101",
        "027b9d7a736d3f15e3638e99b113d483d3cda3ae90913c7126ed2c62adcba8d5a2"
      ],
      "is_coinbase": false,
      "sequence": 4294967294
    }
  ],
  "vout": [
    {
      "scriptpubkey": "76a914d3a619b255dbd0d37a2ccb025afbdbd8ae30431e88ac",
      "scriptpubkey_asm": "OP_DUP OP_HASH160 OP_PUSHBYTES_20 d3a619b255dbd0d37a2ccb025afbdbd8ae30431e OP_EQUALVERIFY OP_CHECKSIG",
      "scriptpubkey_type": "p2pkh",
      "scriptpubkey_address": "1LJ6ZLJRu82NoM1UNPXCzYR8a7WC2JY29E",
      "value": 37166300
    },
    {
      "scriptpubkey": "001492c640978a43b23e227f2eee8cf0ce85c4a352ab",
      "scriptpubkey_asm": "OP_0 OP_PUSHBYTES_20 92c640978a43b23e227f2eee8cf0ce85c4a352ab",
      "scriptpubkey_type": "v0_p2wpkh",
      "scriptpubkey_address": "bc1qjtryp9u2gwerugnl9mhgeuxwshz2x54t5ar0xf",
      "value": 735904588
    }
  ],
  "size": 225,
  "weight": 573,
  "fee": 3530,
  "status": {
    "confirmed": true,
    "block_height": 834638,
    "block_hash": "000000000000000000025f742c626208ac87e0b7d15054abb4a19ca2d735a54e",
    "block_time": 1710405325
  },
  "hex": "02000000000101829cf638f9567f2f7b160c5f97b2388a4f3d476cd6caf3268acb24c8530821250100000000feffffff02dc1c3702000000001976a914d3a619b255dbd0d37a2ccb025afbdbd8ae30431e88ac4c03dd2b0000000016001492c640978a43b23e227f2eee8cf0ce85c4a352ab0247304402203198bdeca43cebd1e2312a63f67c5d012aac5911feb85792a6b552c82c902d75022075d64b5641c9506b6ec1e994e6054fdf8ab7f01268b6d1d2ba164545fe52a3710121027b9d7a736d3f15e3638e99b113d483d3cda3ae90913c7126ed2c62adcba8d5a24dbc0c00"
}