{
  "txid": "55a9caa385e76be158c22b617d6ed92a789d16c3736c8340668f4c9413896f5e",
  "version": 2,
  "locktime": 0,
  "vin": [
    {
      "txid": "12848a1f84ad552475e874cce291926f292412de23b7537898e98c7370f2e86c",
      "vout": 18,
      "prevout": {
        "scriptpubkey": "51208ef0760798c5e174cc08f38d2e1051a974d41c1e825dbdaa37427a2c9b3c8b2f",
        "scriptpubkey_asm": "OP_PUSHNUM_1 OP_PUSHBYTES_32 8ef0760798c5e174cc08f38d2e1051a974d41c1e825dbdaa37427a2c9b3c8b2f",
        "scriptpubkey_type": "v1_p2tr",
        "scriptpubkey_address": "bc1p3mc8vpucchshfnqg7wxjuyz3496dg8q7sfwmm23hgfazexeu3vhsnwt8jy",
        "value": 2358
      },
      "scriptsig": "",
      "scriptsig_asm": "",
      "witness": [
        "518eff6400a91babc5134b452f4155d02b24fe40830ce133945fd256c2e08dca78db0f3ae105213f22fa68445cbea3190f8e54233ed0a157e16be4f5b267d7be",
        "20eec3f85bbf99454eaf21323ca9924a2826401f0b39983f89c4b3f4e19c58634eac0063036f7264010118746578742f706c61696e3b636861727365743d7574662d3800377b2270223a226272632d3230222c226f70223a226d696e74222c227469636b223a22424f424f222c22616d74223a22313030303030227d68",
        "c1507504f881a2548efcb0bd8b5287fd78c473d5bd35b181abdd5c5cd6d10de204"
      ],
      "is_coinbase": false,
      "sequence": 4294967295
    }
  ],
  "vout": [
    {
      "scriptpubkey": "512048d62e6aa4ce9b4b4d760b1dc0c3e46b46d84be76ae456792a664139e7aaa19c",
      "scriptpubkey_asm": "OP_PUSHNUM_1 OP_PUSHBYTES_32 48d62e6aa4ce9b4b4d760b1dc0c3e46b46d84be76ae456792a664139e7aaa19c",
      "scriptpubkey_type": "v1_p2tr",
      "scriptpubkey_address": "bc1pfrtzu64ye6d5kntkpvwupslyddrdsjl8dtj9v7f2veqnnea25xwqu8ycu4",
      "value": 546
    }
  ],
  "size": 322,
  "weight": 604,
  "fee": 1812,
  "status": {
    "confirmed": true,
    "block_height": 834460,
    "block_hash": "00000000000000000000484a79b643b2524bbce82e5d8a442013fa5b8905ed98",
    "block_time": 1710307468
  },
  "hex": "020000000001016ce8f270738ce9987853b723de1224296f9291e2cc74e8752455ad841f8a84121200000000ffffffff01220200000000000022512048d62e6aa4ce9b4b4d760b1dc0c3e46b46d84be76ae456792a664139e7aaa19c0340518eff6400a91babc5134b452f4155d02b24fe40830ce133945fd256c2e08dca78db0f3ae105213f22fa68445cbea3190f8e54233ed0a157e16be4f5b267d7be7d20eec3f85bbf99454eaf21323ca9924a2826401f0b39983f89c4b3f4e19c58634eac0063036f7264010118746578742f706c61696e3b636861727365743d7574662d3800377b2270223a226272632d3230222c226f70223a226d696e74222c227469636b223a22424f424f222c22616d74223a22313030303030227d6821c1507504f881a2548efcb0bd8b5287fd78c473d5bd35b181abdd5c5cd6d10de20400000000"
}