{
  "txid": "55b0fbc5e44371a42c1c897c2d6df4cdd1774467a0545ef65efc613dc1bb1f41",
  "version": 2,
  "locktime": 0,
  "vin": [
    {
      "txid": "acc3ba00869acb582a3f2904ce3a11dd3779350ce234063fc7d0959246213364",
      "vout": 103,
      "prevout": {
        "scriptpubkey": "512024889cd3a6d0a3ed07d82c2b7e49bc7b95727e1bbd066ae95e8fb123a3f20ed4",
        "scriptpubkey_asm": "OP_PUSHNUM_1 OP_PUSHBYTES_32 24889cd3a6d0a3ed07d82c2b7e49bc7b95727e1bbd066ae95e8fb123a3f20ed4",
        "scriptpubkey_type": "v1_p2tr",
        "scriptpubkey_address": "bc1pyjyfe5ax6z376p7c9s4hujdu0w2hylsmh5rx462737cj8gljpm2qpfe345",
        "value": 1806
      },
      "scriptsig": "",
      "scriptsig_asm": "",
      "witness": [
        "5c5372673316d38b37c2cf26e544f03a68ff5dc0fb229c9b73a034fb60ccb22de478cc4c3f89d7ca4269596ee2d802ca640c51b82e588cc61ed8bdee7ceaedb6",
        "203c0626767d153a26dbc53a96da2d0463fd242e6efc0452cb528d7d348be48b58ac0063036f726401010a746578742f706c61696e00357b2270223a226272632d3230222c226f70223a226d696e74222c227469636b223a22646f6765222c22616d74223a2234323030227d68",
        "c03c0626767d153a26dbc53a96da2d0463fd242e6efc0452cb528d7d348be48b58"
      ],
      "is_coinbase": false,
      "sequence": 4261412863
    }
  ],
  "vout": [
    {
      "scriptpubkey": "00147a665de7a370f4c9b372ab1fae587500a5bcbdb4",
      "scriptpubkey_asm": "OP_0 OP_PUSHBYTES_20 7a665de7a370f4c9b372ab1fae587500a5bcbdb4",
      "scriptpubkey_type": "v0_p2wpkh",
      "scriptpubkey_address": "bc1q0fn9mearwr6vnvmj4v06ukr4qzjme0d565dzcx",
      "value": 294
    }
  ],
  "size": 294,
  "weight": 540,
  "fee": 1512,
  "status": {
    "confirmed": true,
    "block_height": 834460,
    "block_hash": "00000000000000000000484a79b643b2524bbce82e5d8a442013fa5b8905ed98",
    "block_time": 1710307468
  },
  "hex": "02000000000101643321469295d0c73f0634e20c357937dd113ace04293f2a58cb9a8600bac3ac6700000000fffffffd0126010000000000001600147a665de7a370f4c9b372ab1fae587500a5bcbdb403405c5372673316d38b37c2cf26e544f03a68ff5dc0fb229c9b73a034fb60ccb22de478cc4c3f89d7ca4269596ee2d802ca640c51b82e588cc61ed8bdee7ceaedb66d203c0626767d153a26dbc53a96da2d0463fd242e6efc0452cb528d7d348be48b58ac0063036f726401010a746578742f706c61696e00357b2270223a226272632d3230222c226f70223a226d696e74222c227469636b223a22646f6765222c22616d74223a2234323030227d6821c03c0626767d153a26dbc53a96da2d0463fd242e6efc0452cb528d7d348be48b5800000000"
}