{
  "txid": "55c7362b043afea5300915bee55df239d1ad86f07262e445bfefba3e4432f12a",
  "version": 2,
  "locktime": 0,
  "vin": [
    {
      "txid": "f8a42c130c69d2accee628d502caa380f6a02b01d4b2e8f3d9c09b4319cedf13",
      "vout": 0,
      "prevout": {
        "scriptpubkey": "001465bbbb13761c508dd9ee5cd5e8b211ae0f85c239",
        "scriptpubkey_asm": "OP_0 OP_PUSHBYTES_20 65bbbb13761c508dd9ee5cd5e8b211ae0f85c239",
        "scriptpubkey_type": "v0_p2wpkh",
        "scriptpubkey_address": "bc1qvkamkymkr3ggmk0wtn273vs34c8cts3etnnmll",
        "value": 9980042
      },
      "scriptsig": "",
      "scriptsig_asm": "",
      "witness": [
        "3045022100c006119d9f45a790dbe651b19f22c4b6fbadb0cce6f4ab1c59017f2fe35298d602200f3944c7d6d4d74be047748a591d3bbad58f5d3baf377ec1957fee27007aa5ee01",
        "036502b8da4747a66a6382b4d73a4528f8ec640d25351f94539e1aa77fe135af63"
      ],
      "is_coinbase": false,
      "sequence": 4294967295
    },
    {
      "txid": "a8eae2cd167726b2cebc63f96b8ebb2e5f9f7e3c28a792a0fa3167ebc98e79c8",
      "vout": 2,
      "prevout": {
        "scriptpubkey": "00142335016e3b075c9876415a2fea8abf7c9a53ff7f",
        "scriptpubkey_asm": "OP_0 OP_PUSHBYTES_20 2335016e3b075c9876415a2fea8abf7c9a53ff7f",
        "scriptpubkey_type": "v0_p2wpkh",
        "scriptpubkey_address": "bc1qyv6szm3mqawfsajptgh74z4l0jd98lml4lfyrl",
        "value": 29980000
      },
      "scriptsig": "",
      "scriptsig_asm": "",
      "witness": [
        "304402206f735c09ecab1dd4ce9f94f90912e74a1fce2131f088dbd08cf19edfb223030d022005babc7a906d59d6fc54d504a8804425c533e50af4885fe7f64afea04b5067b001",
        "0203dd297fb42e0557fbf4690ed9f2feb01e4b74270be7e442eb8e03b3ca9b0edb"
      ],
      "is_coinbase": false,
      "sequence": 4294967295
    },
    {
      "txid": "079cba27726ccc048b27967a07f9269895b725160635227ed694d35b19686a90",
      "vout": 0,
      "prevout": {
        "scriptpubkey": "0014ffac1c05a8fc78d4ca771ad2ca12297de05e0931",
        "scriptpubkey_asm": "OP_0 OP_PUSHBYTES_20 ffac1c05a8fc78d4ca771ad2ca12297de05e0931",
        "scriptpubkey_type": "v0_p2wpkh",
        "scriptpubkey_address": "bc1ql7kpcpdgl3udfjnhrtfv5y3f0hs9uzf3haph97",
        "value": 19980000
      },
      "scriptsig": "",
      "scriptsig_asm": "",
      "witness": [
        "304502210080c5b527ae7f9370029baa71439969b259e77f72dee20a1383c135077bd436f002204b35caed28ba0de0899980571ef901c84b910caa35a16a8269f178c77f2bbc4c01",
        "03d03cfe29d26ae2b24c0cd9a77934ce17f8b872649204a2587ae723ab02cfd486"
      ],
      "is_coinbase": false,
      "sequence": 4294967295
    },
    {
      "txid": "1fa522810ed5251a659a0a2fac379d75eac285ecb4b5d42bf0aae53133084f34",
      "vout": 0,
      "prevout": {
        "scriptpubkey": "00144ff537899cdec354bb322404973e4fff270a2291",
        "scriptpubkey_asm": "OP_0 OP_PUSHBYTES_20 4ff537899cdec354bb322404973e4fff270a2291",
        "scriptpubkey_type": "v0_p2wpkh",
        "scriptpubkey_address": "bc1qfl6n0zvummp4fwejyszfw0j0luns5g53n9p3cs",
        "value": 12562894
      },
      "scriptsig": "",
      "scriptsig_asm": "",
      "witness": [
        "304402203013423eac9298884ec4fe7b3895481bb1dbc1c70e87b826a15f3619cad9a4e7022079260e32ba5d9f27253947b08c22d2c708994a66180559ed154174f22bb01acf01",
        "0387614276ce8449e8d5c56c3250ec700c1ce806c7305aa7e6d951eee2ef69323b"
      ],
      "is_coinbase": false,
      "sequence": 4294967295
    }
  ],
  "vout": [
    {
      "scriptpubkey": "00202f34829c43ae0c0e8bb08fc90f2e0eb23b2766523d02b6f66ba23fc24a816bc1",
      "scriptpubkey_asm": "OP_0 OP_PUSHBYTES_32 2f34829c43ae0c0e8bb08fc90f2e0eb23b2766523d02b6f66ba23fc24a816bc1",
      "scriptpubkey_type": "v0_p2wsh",
      "scriptpubkey_address": "bc1q9u6g98zr4cxqazas3lys7tswkgajwejj85ptdant5gluyj5pd0qs8jrtg5",
      "value": 60000000
    },
    {
      "scriptpubkey": "0014d902b629c5572ee495ab8086fa3a9e78ed16d956",
      "scriptpubkey_asm": "OP_0 OP_PUSHBYTES_20 d902b629c5572ee495ab8086fa3a9e78ed16d956",
      "scriptpubkey_type": "v0_p2wpkh",
      "scriptpubkey_address": "bc1qmyptv2w92uhwf9dtszr05w570rk3dk2kyyfr6g",
      "value": 12496348
    }
  ],
  "size": 680,
  "weight": 1424,
  "fee": 6588,
  "status": {
    "confirmed": true,
    "block_height": 834638,
    "block_hash": "000000000000000000025f742c626208ac87e0b7d15054abb4a19ca2d735a54e",
    "block_time": 1710405325
  },
  "hex": "0200000000010413dfce19439bc0d9f3e8b2d4012ba0f680a3ca02d528e6ceacd2690c132ca4f80000000000ffffffffc8798ec9eb6731faa092a7283c7e9f5f2ebb8e6bf963bcceb2267716cde2eaa80200000000ffffffff906a68195bd394d67e2235061625b7959826f9077a96278b04cc6c7227ba9c070000000000ffffffff344f083331e5aaf02bd4b5b4ec85c2ea759d37ac2f0a9a651a25d50e8122a51f0000000000ffffffff0200879303000000002200202f34829c43ae0c0e8bb08fc90f2e0eb23b2766523d02b6f66ba23fc24a816bc1dcadbe0000000000160014d902b629c5572ee495ab8086fa3a9e78ed16d95602483045022100c006119d9f45a790dbe651b19f22c4b6fbadb0cce6f4ab1c59017f2fe35298d602200f3944c7d6d4d74be047748a591d3bbad58f5d3baf377ec1957fee27007aa5ee0121036502b8da4747a66a6382b4d73a4528f8ec640d25351f94539e1aa77fe135af630247304402206f735c09ecab1dd4ce9f94f90912e74a1fce2131f088dbd08cf19edfb223030d022005babc7a906d59d6fc54d504a8804425c533e50af4885fe7f64afea04b5067b001210203dd297fb42e0557fbf4690ed9f2feb01e4b74270be7e442eb8e03b3ca9b0edb0248304502210080c5b527ae7f9370029baa71439969b259e77f72dee20a1383c135077bd436f002204b35caed28ba0de0899980571ef901c84b910caa35a16a8269f178c77f2bbc4c012103d03cfe29d26ae2b24c0cd9a77934ce17f8b872649204a2587ae723ab02cfd4860247304402203013423eac9298884ec4fe7b3895481bb1dbc1c70e87b826a15f3619cad9a4e7022079260e32ba5d9f27253947b08c22d2c708994a66180559ed154174f22bb01acf01210387614276ce8449e8d5c56c3250ec700c1ce806c7305aa7e6d951eee2ef69323b00000000"
}