{
  "txid": "55c895644c2474fad12301a9a9385df92779850efec50d43363109ad501eccb2",
  "version": 1,
  "locktime": 834414,
  "vin": [
    {
      "txid": "12630f5d1c0c7ce19cda86f9d3e758ffd5828310f5bc60b5f8add0d1c75b4dc1",
      "vout": 0,
      "prevout": {
        "scriptpubkey": "0014c9002269e685f5210a933c08708b9e9393cd114b",
        "scriptpubkey_asm": "OP_0 OP_PUSHBYTES_20 c9002269e685f5210a933c08708b9e9393cd114b",
        "scriptpubkey_type": "v0_p2wpkh",
        "scriptpubkey_address": "bc1qeyqzy60xsh6jzz5n8sy8pzu7jwfu6y2t0p27pz",
        "value": 210554
      },
      "scriptsig": "",
      "scriptsig_asm": "",
      "witness": [
        "304402202230117f8a0e66f14f31bef43308c00c8ddcf376dfba629c99c2720a68727d6c02200c0eca1aac786cfe54e90ececae93ed29ef9ae9fd190efefeeb2c1184de1abe301",
        "03e4124225c490aec8b0ebaa190be080aa0433bb0f6e47772c239d26297f31c994"
      ],
      "is_coinbase": false,
      "sequence": 4294967294
    },
    {
      "txid": "cdaf17352e3586a9700f8aee1169a245cec7cfe902c8494d6d22ff0e54655c7c",
      "vout": 0,
      "prevout": {
        "scriptpubkey": "0014c9002269e685f5210a933c08708b9e9393cd114b",
        "scriptpubkey_asm": "OP_0 OP_PUSHBYTES_20 c9002269e685f5210a933c08708b9e9393cd114b",
        "scriptpubkey_type": "v0_p2wpkh",
        "scriptpubkey_address": "bc1qeyqzy60xsh6jzz5n8sy8pzu7jwfu6y2t0p27pz",
        "value": 278964
      },
      "scriptsig": "",
      "scriptsig_asm": "",
      "witness": [
        "304402200e11c1704e8cb52b12217b2fc03771aa1704844a25ca02a2aa1717024c5b245402202c02f50745e0c14243615e7496b79180b94ca4589cd8697c81dd307dc8e89ed601",
        "03e4124225c490aec8b0ebaa190be080aa0433bb0f6e47772c239d26297f31c994"
      ],
      "is_coinbase": false,
      "sequence": 4294967294
    }
  ],
  "vout": [
    {
      "scriptpubkey": "00148baf5736cf7e5b9366b952985cc2414a46aa8c59",
      "scriptpubkey_asm": "OP_0 OP_PUSHBYTES_20 8baf5736cf7e5b9366b952985cc2414a46aa8c59",
      "scriptpubkey_type": "v0_p2wpkh",
      "scriptpubkey_address": "bc1q3wh4wdk00edexe4e22v9esjpffr24rze02sss6",
      "value": 487026
    }
  ],
  "size": 339,
  "weight": 708,
  "fee": 2492,
  "status": {
    "confirmed": true,
    "block_height": 834464,
    "block_hash": "0000000000000000000177a0869a911a2b65c9bdcd5a8bcb02b68f305bee848e",
    "block_time": 1710308296
  },
  "hex": "01000000000102c14d5bc7d1d0adf8b560bcf5108382d5ff58e7d3f986da9ce17c0c1c5d0f63120000000000feffffff7c5c65540eff226d4d49c802e9cfc7ce45a26911ee8a0f70a986352e3517afcd0000000000feffffff01726e0700000000001600148baf5736cf7e5b9366b952985cc2414a46aa8c590247304402202230117f8a0e66f14f31bef43308c00c8ddcf376dfba629c99c2720a68727d6c02200c0eca1aac786cfe54e90ececae93ed29ef9ae9fd190efefeeb2c1184de1abe3012103e4124225c490aec8b0ebaa190be080aa0433bb0f6e47772c239d26297f31c9940247304402200e11c1704e8cb52b12217b2fc03771aa1704844a25ca02a2aa1717024c5b245402202c02f50745e0c14243615e7496b79180b94ca4589cd8697c81dd307dc8e89ed6012103e4124225c490aec8b0ebaa190be080aa0433bb0f6e47772c239d26297f31c9946ebb0c00"
}