{
  "txid": "55cd37e46ccc0186c2ed4992a19f88882e136afb8f2df63a3b488218ad946aa3",
  "version": 1,
  "locktime": 0,
  "vin": [
    {
      "txid": "e20b79694ae88509bfa5f7a20bfee10e79ec126b3ab103df4656e6ff6ee07232",
      "vout": 6,
      "prevout": {
        "scriptpubkey": "76a9141beff67c96ce2f753bf1e4fa4d1cbd45bc9947b088ac",
        "scriptpubkey_asm": "OP_DUP OP_HASH160 OP_PUSHBYTES_20 1beff67c96ce2f753bf1e4fa4d1cbd45bc9947b0 OP_EQUALVERIFY OP_CHECKSIG",
        "scriptpubkey_type": "p2pkh",
        "scriptpubkey_address": "13Yii6CteZ7SZB8DTwovUgEQqgzv8KYcFP",
        "value": 91641
      },
      "scriptsig": "47304402206d90c9a2770c44fcddb6effad33780e1e544190106285f05d398b96189d25e5b02202246f928c17e998aab573bb8d1c4cf7ec363b0bd6f8f9b116811c74b86642c9b01210230db4ba142bb4ef59a9542ded51583056b0ecd456bdbe2e7f42c1a301ecfddda",
      "scriptsig_asm": "OP_PUSHBYTES_71 304402206d90c9a2770c44fcddb6effad33780e1e544190106285f05d398b96189d25e5b02202246f928c17e998aab573bb8d1c4cf7ec363b0bd6f8f9b116811c74b86642c9b01 OP_PUSHBYTES_33 0230db4ba142bb4ef59a9542ded51583056b0ecd456bdbe2e7f42c1a301ecfddda",
      "is_coinbase": false,
      "sequence": 4294967295
    }
  ],
  "vout": [
    {
      "scriptpubkey": "001455f031d0f3e517eb4acfa165fc1a5fc2d766196c",
      "scriptpubkey_asm": "OP_0 OP_PUSHBYTES_20 55f031d0f3e517eb4acfa165fc1a5fc2d766196c",
      "scriptpubkey_type": "v0_p2wpkh",
      "scriptpubkey_address": "bc1q2hcrr58nu5t7kjk059jlcxjlcttkvxtvu7zhey",
      "value": 85530
    }
  ],
  "size": 188,
  "weight": 752,
  "fee": 6111,
  "status": {
    "confirmed": true,
    "block_height": 834638,
    "block_hash": "000000000000000000025f742c626208ac87e0b7d15054abb4a19ca2d735a54e",
    "block_time": 1710405325
  },
  "hex": "01000000013272e06effe65646df03b13a6b12ec790ee1fe0ba2f7a5bf0985e84a69790be2060000006a47304402206d90c9a2770c44fcddb6effad33780e1e544190106285f05d398b96189d25e5b02202246f928c17e998aab573bb8d1c4cf7ec363b0bd6f8f9b116811c74b86642c9b01210230db4ba142bb4ef59a9542ded51583056b0ecd456bdbe2e7f42c1a301ecfdddaffffffff011a4e01000000000016001455f031d0f3e517eb4acfa165fc1a5fc2d766196c00000000"
}