{
  "txid": "55de053b7de838af416492b03df560f582099ac29f21b2f54c5b051f71bf29de",
  "version": 2,
  "locktime": 0,
  "vin": [
    {
      "txid": "c2d673b10443cec6cca3c8ce013d5308a31a9b6bf9aa9244b86bf9312823d800",
      "vout": 5,
      "prevout": {
        "scriptpubkey": "00207bb8f5802ae446be4e5f7dde387ca1624faee09a8643a8c16ff87df4235e2584",
        "scriptpubkey_asm": "OP_0 OP_PUSHBYTES_32 7bb8f5802ae446be4e5f7dde387ca1624faee09a8643a8c16ff87df4235e2584",
        "scriptpubkey_type": "v0_p2wsh",
        "scriptpubkey_address": "bc1q0wu0tqp2u3rtunjl0h0rsl9pvf86acy6sep63st0lp7lgg67ykzqeq89pn",
        "value": 9092223
      },
      "scriptsig": "",
      "scriptsig_asm": "",
      "witness": [
        "",
        "3044022021f72f19c993790e5f7e6e2cd0081bf002d594496d7687a7b019a3a8d0c2dacc02205a434fbe4cf226d5b7c87cd33229bf121d927833e99f65c76e8a4c6fe020929701",
        "304402205374850686084c06a127aa9e7bf8767fcff3925a73ea944177c5b50773145d7f0220661efc0eda11c97762f03e538976eae143775364bf8ac42f81b5ae145dbcd42b01",
        "5221026f1787876e7c4be3414fe4c5455a3aa4dd20e2bfb21acd0d7fbf24f15770d07f2102827d1757c652484f9ee5f14dd8fd4cea674a4bffbef8a19d24bff6f7c0e63955210374f3e239bf6a0b988d6bbd1798fa32829ceec30f4d345b4be172190d9e805ece53ae"
      ],
      "is_coinbase": false,
      "sequence": 4294967293,
      "inner_witnessscript_asm": "OP_PUSHNUM_2 OP_PUSHBYTES_33 026f1787876e7c4be3414fe4c5455a3aa4dd20e2bfb21acd0d7fbf24f15770d07f OP_PUSHBYTES_33 02827d1757c652484f9ee5f14dd8fd4cea674a4bffbef8a19d24bff6f7c0e63955 OP_PUSHBYTES_33 0374f3e239bf6a0b988d6bbd1798fa32829ceec30f4d345b4be172190d9e805ece OP_PUSHNUM_3 OP_CHECKMULTISIG"
    }
  ],
  "vout": [
    {
      "scriptpubkey": "00147cf6ba7e7f143e4629edf4732907953e61734a77",
      "scriptpubkey_asm": "OP_0 OP_PUSHBYTES_20 7cf6ba7e7f143e4629edf4732907953e61734a77",
      "scriptpubkey_type": "v0_p2wpkh",
      "scriptpubkey_address": "bc1q0nmt5lnlzslyv20d73ejjpu48eshxjnh2gcg3l",
      "value": 62605
    },
    {
      "scriptpubkey": "0014d9333d1e7b23caa2b7bd496139cbcbecd79eb9fc",
      "scriptpubkey_asm": "OP_0 OP_PUSHBYTES_20 d9333d1e7b23caa2b7bd496139cbcbecd79eb9fc",
      "scriptpubkey_type": "v0_p2wpkh",
      "scriptpubkey_address": "bc1qmyen68nmy0929daaf9snnj7tanteaw0ucz9ldz",
      "value": 18657
    },
    {
      "scriptpubkey": "0014bf3f7054786e417ca216b4d2c614b37650a0d07a",
      "scriptpubkey_asm": "OP_0 OP_PUSHBYTES_20 bf3f7054786e417ca216b4d2c614b37650a0d07a",
      "scriptpubkey_type": "v0_p2wpkh",
      "scriptpubkey_address": "bc1qhulhq4rcdeqhegskknfvv99nweg2p5r6vhrerc",
      "value": 21949
    },
    {
      "scriptpubkey": "a914095617f3ff096717662cfebb3fe5eab7ee196e0987",
      "scriptpubkey_asm": "OP_HASH160 OP_PUSHBYTES_20 095617f3ff096717662cfebb3fe5eab7ee196e09 OP_EQUAL",
      "scriptpubkey_type": "p2sh",
      "scriptpubkey_address": "32YP9A1Sj1Uert13HAj4Td9qwbrknxhuE6",
      "value": 29615
    },
    {
      "scriptpubkey": "76a91465fa1daf02ae33098c0ac5290f7148bbb202755488ac",
      "scriptpubkey_asm": "OP_DUP OP_HASH160 OP_PUSHBYTES_20 65fa1daf02ae33098c0ac5290f7148bbb2027554 OP_EQUALVERIFY OP_CHECKSIG",
      "scriptpubkey_type": "p2pkh",
      "scriptpubkey_address": "1AJCsjgS1uNJ1bF1yH4qEMyaFxKBKcYEuZ",
      "value": 1096098
    },
    {
      "scriptpubkey": "0014d4057e3fcd7ee117747073a6a226da3354a8122b",
      "scriptpubkey_asm": "OP_0 OP_PUSHBYTES_20 d4057e3fcd7ee117747073a6a226da3354a8122b",
      "scriptpubkey_type": "v0_p2wpkh",
      "scriptpubkey_address": "bc1q6szhu07d0ms3warswwn2yfk6xd22sy3tgmrav9",
      "value": 106370
    },
    {
      "scriptpubkey": "00207bb8f5802ae446be4e5f7dde387ca1624faee09a8643a8c16ff87df4235e2584",
      "scriptpubkey_asm": "OP_0 OP_PUSHBYTES_32 7bb8f5802ae446be4e5f7dde387ca1624faee09a8643a8c16ff87df4235e2584",
      "scriptpubkey_type": "v0_p2wsh",
      "scriptpubkey_address": "bc1q0wu0tqp2u3rtunjl0h0rsl9pvf86acy6sep63st0lp7lgg67ykzqeq89pn",
      "value": 7747535
    }
  ],
  "size": 538,
  "weight": 1390,
  "fee": 9394,
  "status": {
    "confirmed": true,
    "block_height": 834638,
    "block_hash": "000000000000000000025f742c626208ac87e0b7d15054abb4a19ca2d735a54e",
    "block_time": 1710405325
  },
  "hex": "0200000000010100d8232831f96bb84492aaf96b9b1aa308533d01cec8a3ccc6ce4304b173d6c20500000000fdffffff078df40000000000001600147cf6ba7e7f143e4629edf4732907953e61734a77e148000000000000160014d9333d1e7b23caa2b7bd496139cbcbecd79eb9fcbd55000000000000160014bf3f7054786e417ca216b4d2c614b37650a0d07aaf7300000000000017a914095617f3ff096717662cfebb3fe5eab7ee196e0987a2b91000000000001976a91465fa1daf02ae33098c0ac5290f7148bbb202755488ac829f010000000000160014d4057e3fcd7ee117747073a6a226da3354a8122bcf377600000000002200207bb8f5802ae446be4e5f7dde387ca1624faee09a8643a8c16ff87df4235e25840400473044022021f72f19c993790e5f7e6e2cd0081bf002d594496d7687a7b019a3a8d0c2dacc02205a434fbe4cf226d5b7c87cd33229bf121d927833e99f65c76e8a4c6fe02092970147304402205374850686084c06a127aa9e7bf8767fcff3925a73ea944177c5b50773145d7f0220661efc0eda11c97762f03e538976eae143775364bf8ac42f81b5ae145dbcd42b01695221026f1787876e7c4be3414fe4c5455a3aa4dd20e2bfb21acd0d7fbf24f15770d07f2102827d1757c652484f9ee5f14dd8fd4cea674a4bffbef8a19d24bff6f7c0e63955210374f3e239bf6a0b988d6bbd1798fa32829ceec30f4d345b4be172190d9e805ece53ae00000000"
}