{
  "txid": "55e2c2b106554f42fbe3ab601b74fac94d6ea07834df928426233bbf558713b7",
  "version": 1,
  "locktime": 0,
  "vin": [
    {
      "txid": "4027c0e2d9355b60429b5f3b22066ce6ebae8379543f38b484e2412242ce81b8",
      "vout": 1,
      "prevout": {
        "scriptpubkey": "76a9140412e6159d986adcbdf0d38f7ffb7c2e5f60f5a988ac",
        "scriptpubkey_asm": "OP_DUP OP_HASH160 OP_PUSHBYTES_20 0412e6159d986adcbdf0d38f7ffb7c2e5f60f5a9 OP_EQUALVERIFY OP_CHECKSIG",
        "scriptpubkey_type": "p2pkh",
        "scriptpubkey_address": "1NYLsrCuZTjKpkTyG9iTEAAYzqdX38s4T",
        "value": 22845480
      },
      "scriptsig": "473044022054da64b3d126cb4e1893e33966e2218f1a4beb9ef78aea402f1c0574ed7cddfc0220759e14da94d33dc0324a2445ce6a12edb11640d87a62f4b4ea5ba2cc5b6518f2012102eb9989ff81764ec7a2e1e78ba69b3df8abd58e168a7608bf6ae0b7fc67fb1014",
      "scriptsig_asm": "OP_PUSHBYTES_71 3044022054da64b3d126cb4e1893e33966e2218f1a4beb9ef78aea402f1c0574ed7cddfc0220759e14da94d33dc0324a2445ce6a12edb11640d87a62f4b4ea5ba2cc5b6518f201 OP_PUSHBYTES_33 02eb9989ff81764ec7a2e1e78ba69b3df8abd58e168a7608bf6ae0b7fc67fb1014",
      "is_coinbase": false,
      "sequence": 4294967295
    }
  ],
  "vout": [
    {
      "scriptpubkey": "76a9145500231d7c52b1b775d9a6b9796b13d66f74122088ac",
      "scriptpubkey_asm": "OP_DUP OP_HASH160 OP_PUSHBYTES_20 5500231d7c52b1b775d9a6b9796b13d66f741220 OP_EQUALVERIFY OP_CHECKSIG",
      "scriptpubkey_type": "p2pkh",
      "scriptpubkey_address": "18kSbqW5pcEJEwWDAFBs1KpkNQhWeL6iXH",
      "value": 22841640
    }
  ],
  "size": 191,
  "weight": 764,
  "fee": 3840,
  "status": {
    "confirmed": true,
    "block_height": 834638,
    "block_hash": "000000000000000000025f742c626208ac87e0b7d15054abb4a19ca2d735a54e",
    "block_time": 1710405325
  },
  "hex": "0100000001b881ce422241e284b4383f547983aeebe66c06223b5f9b42605b35d9e2c02740010000006a473044022054da64b3d126cb4e1893e33966e2218f1a4beb9ef78aea402f1c0574ed7cddfc0220759e14da94d33dc0324a2445ce6a12edb11640d87a62f4b4ea5ba2cc5b6518f2012102eb9989ff81764ec7a2e1e78ba69b3df8abd58e168a7608bf6ae0b7fc67fb1014ffffffff0128895c01000000001976a9145500231d7c52b1b775d9a6b9796b13d66f74122088ac00000000"
}