{
  "txid": "55e613549193b550f34ef0ab858654da17760cf3aa611c14b3709d78af823d04",
  "version": 2,
  "locktime": 0,
  "vin": [
    {
      "txid": "8486ecb4df0880316dd6e82b3971b4df187aff23765bc3a47f8d78bb53aa273c",
      "vout": 97,
      "prevout": {
        "scriptpubkey": "512099dcb5921b874d6ebadb0956a757423f8de54d854633cf8fc020d5bbb23ae004",
        "scriptpubkey_asm": "OP_PUSHNUM_1 OP_PUSHBYTES_32 99dcb5921b874d6ebadb0956a757423f8de54d854633cf8fc020d5bbb23ae004",
        "scriptpubkey_type": "v1_p2tr",
        "scriptpubkey_address": "bc1pn8wttysmsaxkawkmp9t2w46z87x72nv9gceulr7qyr2mhv36uqzqt0h60g",
        "value": 2575
      },
      "scriptsig": "",
      "scriptsig_asm": "",
      "witness": [
        "18020f927d8e38e7c2805bc042bc108c257fbc70a1d73f701317ee69c1d58df814141ac4574112195cc231eea269f739716366346992a4038e42969c3107673b",
        "20c309a8da4947c614d1503ebfbecccdd673a83296201250fc2b820142f4b50ebaac0063036f726401010a746578742f706c61696e00367b2270223a226272632d3230222c226f70223a226d696e74222c227469636b223a2261616161222c22616d74223a223130303030227d68",
        "c1c309a8da4947c614d1503ebfbecccdd673a83296201250fc2b820142f4b50eba"
      ],
      "is_coinbase": false,
      "sequence": 4261412863
    }
  ],
  "vout": [
    {
      "scriptpubkey": "0014ddd7ef12ea6f78edcc1e8e7afa12c01ab59f3339",
      "scriptpubkey_asm": "OP_0 OP_PUSHBYTES_20 ddd7ef12ea6f78edcc1e8e7afa12c01ab59f3339",
      "scriptpubkey_type": "v0_p2wpkh",
      "scriptpubkey_address": "bc1qmht77yh2dauwmnq73ea05ykqr26e7veea8spz6",
      "value": 546
    }
  ],
  "size": 295,
  "weight": 541,
  "fee": 2029,
  "status": {
    "confirmed": true,
    "block_height": 834460,
    "block_hash": "00000000000000000000484a79b643b2524bbce82e5d8a442013fa5b8905ed98",
    "block_time": 1710307468
  },
  "hex": "020000000001013c27aa53bb788d7fa4c35b7623ff7a18dfb471392be8d66d318008dfb4ec86846100000000fffffffd012202000000000000160014ddd7ef12ea6f78edcc1e8e7afa12c01ab59f3339034018020f927d8e38e7c2805bc042bc108c257fbc70a1d73f701317ee69c1d58df814141ac4574112195cc231eea269f739716366346992a4038e42969c3107673b6e20c309a8da4947c614d1503ebfbecccdd673a83296201250fc2b820142f4b50ebaac0063036f726401010a746578742f706c61696e00367b2270223a226272632d3230222c226f70223a226d696e74222c227469636b223a2261616161222c22616d74223a223130303030227d6821c1c309a8da4947c614d1503ebfbecccdd673a83296201250fc2b820142f4b50eba00000000"
}