{
  "txid": "55eb09b8054a912a9fd2f4199c0dbbcf307076929b78aa1259b2a7e9766ee9e6",
  "version": 1,
  "locktime": 0,
  "vin": [
    {
      "txid": "a262e017a554a5de0b23e41c5b07de97825d10c2f0faad1bf886093cfe408e4a",
      "vout": 0,
      "prevout": {
        "scriptpubkey": "5120fc200f80c223fc8cc8cc7212b675ca06cb8eee79f88fbbfd2978f96199825be9",
        "scriptpubkey_asm": "OP_PUSHNUM_1 OP_PUSHBYTES_32 fc200f80c223fc8cc8cc7212b675ca06cb8eee79f88fbbfd2978f96199825be9",
        "scriptpubkey_type": "v1_p2tr",
        "scriptpubkey_address": "bc1plssqlqxzy07gejxvwgftvaw2qm9camnelz8mhlff0rukrxvzt05scntkje",
        "value": 5000
      },
      "scriptsig": "",
      "scriptsig_asm": "",
      "witness": [
        "eecc3522f43ab76b2cce27f33861159718ff60f125a69cce7f54ec61a43769f569f88d79b928db6ef5b76307009667ae8a48786278ff60b302bb73fa0d6bf80c01"
      ],
      "is_coinbase": false,
      "sequence": 4294967295
    },
    {
      "txid": "757c7586803e3f169df5fdf4444166825f8a523891389863e6baffb0cd8ccf33",
      "vout": 0,
      "prevout": {
        "scriptpubkey": "512024dcd20e62aeef74eb4601bef97edaf2cecdc10e6b8ad0b4b130a4caa7b08216",
        "scriptpubkey_asm": "OP_PUSHNUM_1 OP_PUSHBYTES_32 24dcd20e62aeef74eb4601bef97edaf2cecdc10e6b8ad0b4b130a4caa7b08216",
        "scriptpubkey_type": "v1_p2tr",
        "scriptpubkey_address": "bc1pynwdyrnz4mhhf66xqxl0jlk67t8vmsgwdw9dpd93xzjv4fassgtqp870lk",
        "value": 2500
      },
      "scriptsig": "",
      "scriptsig_asm": "",
      "witness": [
        "2d03a41c4713c10ab5a075fba24d57a908e33a25384bb7c99173c81f8222417e75f772115f15136b55cabc3ea34f128bc458161aac29fabaa01d634fc216c7f701"
      ],
      "is_coinbase": false,
      "sequence": 4294967295
    },
    {
      "txid": "109a15d77d3dbc370a102a90fcdacb1d38c4f5dd4576a89b030eaf9e70db34f2",
      "vout": 0,
      "prevout": {
        "scriptpubkey": "51209149a535ee83657b84cdef2cb9eaf30851caa6a035d96d26bcf03e9a34ab3451",
        "scriptpubkey_asm": "OP_PUSHNUM_1 OP_PUSHBYTES_32 9149a535ee83657b84cdef2cb9eaf30851caa6a035d96d26bcf03e9a34ab3451",
        "scriptpubkey_type": "v1_p2tr",
        "scriptpubkey_address": "bc1pj9y62d0wsdjhhpxdauktn6hnppgu4f4qxhvk6f4u7qlf5d9tx3gsxlx3md",
        "value": 1531
      },
      "scriptsig": "",
      "scriptsig_asm": "",
      "witness": [
        "28b1b46327da10b6e2082864e121693be131814529d23d62aa5a9632f4aa571c4429fdc8813fd00e28779c8224491e82eddeb4335edf2792629d27b0e0b264b501"
      ],
      "is_coinbase": false,
      "sequence": 4294967295
    }
  ],
  "vout": [
    {
      "scriptpubkey": "51201ff554f6b565d8f14cab3f880566ffb327006b936b5c906fcc2567637590ed6f",
      "scriptpubkey_asm": "OP_PUSHNUM_1 OP_PUSHBYTES_32 1ff554f6b565d8f14cab3f880566ffb327006b936b5c906fcc2567637590ed6f",
      "scriptpubkey_type": "v1_p2tr",
      "scriptpubkey_address": "bc1prl64fa44vhv0zn9t87yq2ehlkvnsq6unddwfqm7vy4nkxavsa4hs8wwl7z",
      "value": 692
    },
    {
      "scriptpubkey": "76a914cd8b8758d3fa06af4a2faa0881114baf714eee6888ac",
      "scriptpubkey_asm": "OP_DUP OP_HASH160 OP_PUSHBYTES_20 cd8b8758d3fa06af4a2faa0881114baf714eee68 OP_EQUALVERIFY OP_CHECKSIG",
      "scriptpubkey_type": "p2pkh",
      "scriptpubkey_address": "1Kjpfx49bZvjNYPTKjteVz3aVLNZ52waww",
      "value": 5490
    }
  ],
  "size": 413,
  "weight": 1043,
  "fee": 2849,
  "status": {
    "confirmed": true,
    "block_height": 834464,
    "block_hash": "0000000000000000000177a0869a911a2b65c9bdcd5a8bcb02b68f305bee848e",
    "block_time": 1710308296
  },
  "hex": "010000000001034a8e40fe3c0986f81badfaf0c2105d8297de075b1ce4230bdea554a517e062a20000000000ffffffff33cf8ccdb0ffbae66398389138528a5f82664144f4fdf59d163f3e8086757c750000000000fffffffff234db709eaf0e039ba87645ddf5c4381dcbdafc902a100a37bc3d7dd7159a100000000000ffffffff02b4020000000000002251201ff554f6b565d8f14cab3f880566ffb327006b936b5c906fcc2567637590ed6f72150000000000001976a914cd8b8758d3fa06af4a2faa0881114baf714eee6888ac0141eecc3522f43ab76b2cce27f33861159718ff60f125a69cce7f54ec61a43769f569f88d79b928db6ef5b76307009667ae8a48786278ff60b302bb73fa0d6bf80c0101412d03a41c4713c10ab5a075fba24d57a908e33a25384bb7c99173c81f8222417e75f772115f15136b55cabc3ea34f128bc458161aac29fabaa01d634fc216c7f701014128b1b46327da10b6e2082864e121693be131814529d23d62aa5a9632f4aa571c4429fdc8813fd00e28779c8224491e82eddeb4335edf2792629d27b0e0b264b50100000000"
}