{
  "txid": "5605842dbf1e3aad27f8785b5ac186b5d2611630adf30edc68a5325fd379b2fb",
  "version": 2,
  "locktime": 0,
  "vin": [
    {
      "txid": "5c748e9651a8cd3b7190e7fe3fbdf57b199f7d584c21cc32aaee75fefefdada6",
      "vout": 41,
      "prevout": {
        "scriptpubkey": "00140288c94321acb4f21d7b29b0d3d06547af8a5c0b",
        "scriptpubkey_asm": "OP_0 OP_PUSHBYTES_20 0288c94321acb4f21d7b29b0d3d06547af8a5c0b",
        "scriptpubkey_type": "v0_p2wpkh",
        "scriptpubkey_address": "bc1qq2yvjsep4j60y8tm9xcd85r9g7hc5hqtwzzqzw",
        "value": 5642495
      },
      "scriptsig": "",
      "scriptsig_asm": "",
      "witness": [
        "3045022100a91bb4bd2b1f8147b80e86fcc1a472f83777a71156efbc53290f61335dd0e863022016b2d4acc68531a99632db708b3cb51be76d3ad6db20943fa8ed60f44dc0b1af01",
        "02f491dde14923d0706cc8ffcd25793a88bb603d4edd077bdf45880c5362c5c596"
      ],
      "is_coinbase": false,
      "sequence": 0
    }
  ],
  "vout": [
    {
      "scriptpubkey": "001421803b9f3bc4a22a206da58024c5471cddca592d",
      "scriptpubkey_asm": "OP_0 OP_PUSHBYTES_20 21803b9f3bc4a22a206da58024c5471cddca592d",
      "scriptpubkey_type": "v0_p2wpkh",
      "scriptpubkey_address": "bc1qyxqrh8emcj3z5grd5kqzf328rnwu5kfd7zgq6n",
      "value": 4924059
    },
    {
      "scriptpubkey": "00148ce8d04ce314b11ecbe8e7fc5494744ed948e8b1",
      "scriptpubkey_asm": "OP_0 OP_PUSHBYTES_20 8ce8d04ce314b11ecbe8e7fc5494744ed948e8b1",
      "scriptpubkey_type": "v0_p2wpkh",
      "scriptpubkey_address": "bc1q3n5dqn8rzjc3ajlgul79f9r5fmv53693cxfwqa",
      "value": 714669
    }
  ],
  "size": 223,
  "weight": 562,
  "fee": 3767,
  "status": {
    "confirmed": true,
    "block_height": 834638,
    "block_hash": "000000000000000000025f742c626208ac87e0b7d15054abb4a19ca2d735a54e",
    "block_time": 1710405325
  },
  "hex": "02000000000101a6adfdfefe75eeaa32cc214c587d9f197bf5bd3ffee790713bcda851968e745c290000000000000000029b224b000000000016001421803b9f3bc4a22a206da58024c5471cddca592dade70a00000000001600148ce8d04ce314b11ecbe8e7fc5494744ed948e8b102483045022100a91bb4bd2b1f8147b80e86fcc1a472f83777a71156efbc53290f61335dd0e863022016b2d4acc68531a99632db708b3cb51be76d3ad6db20943fa8ed60f44dc0b1af012102f491dde14923d0706cc8ffcd25793a88bb603d4edd077bdf45880c5362c5c59600000000"
}