{
  "txid": "5606b8ac2cac919e269c623f8dcba2125320d6f460d8af86de397ecd05e3840f",
  "version": 2,
  "locktime": 0,
  "vin": [
    {
      "txid": "3069bf4ce43f0c00c049bc0ff2e33a17a4825c1a2c16b770e5b0819d89afe260",
      "vout": 0,
      "prevout": {
        "scriptpubkey": "5120467c40b1596e04cc5e50636aa9f4639aa93c1380ce1df4661dc3eef40a399d2a",
        "scriptpubkey_asm": "OP_PUSHNUM_1 OP_PUSHBYTES_32 467c40b1596e04cc5e50636aa9f4639aa93c1380ce1df4661dc3eef40a399d2a",
        "scriptpubkey_type": "v1_p2tr",
        "scriptpubkey_address": "bc1pge7ypv2edczvchjsvd42narrn25ncyuqecwlgesac0h0gz3en54qrd8e5e",
        "value": 31000
      },
      "scriptsig": "",
      "scriptsig_asm": "",
      "witness": [
        "ff73a2dabf705c724fecb6337340558aa2884739054cc35e82d9b945200ca766c3c75dc489f66b3dcb59ba9980ba59c061c7bc33385c4e93fa0dec7a0226f781",
        "20065c56647af3cf60641d7c9f16bd2fcfc1724724907a7c5088bd51a0c3f95855ac0063036f726401011e6170706c69636174696f6e2f6a736f6e3b636861727365743d7574662d38004ccf7b2270223a22706f772d3230222c226f70223a226d696e74222c227469636b223a2250554e4b222c22616d74223a2231222c22736f6c7574696f6e223a2250554e4b3a6263317079326c633774336c746371643470656833653670703839386a3635763778726d736d7a6e7a366b397a63356a66303578366877717a7167336e793a303030303030303030303030303030303030303164363332346233346661396639643231623835373366623937656538666534396465643439313934373962643a37313532363437313336227d68",
        "c10012eef0dd5686971201ee0affa8d24f6230a970f914fa050cfc5fbfb49107dd"
      ],
      "is_coinbase": false,
      "sequence": 4294967293
    }
  ],
  "vout": [
    {
      "scriptpubkey": "512022bf8f2e3f5e00da87378e74109ca796a8cf187b86c5316ac5162924be86d5dc",
      "scriptpubkey_asm": "OP_PUSHNUM_1 OP_PUSHBYTES_32 22bf8f2e3f5e00da87378e74109ca796a8cf187b86c5316ac5162924be86d5dc",
      "scriptpubkey_type": "v1_p2tr",
      "scriptpubkey_address": "bc1py2lc7t3ltcqd4peh3e6pp898j65v7xrmsmznz6k9zc5jf05x6hwqzqg3ny",
      "value": 546
    },
    {
      "scriptpubkey": "5120163419f929eedc95190e818899863725f897ecfd1a68da8b1c22f66b64e976eb",
      "scriptpubkey_asm": "OP_PUSHNUM_1 OP_PUSHBYTES_32 163419f929eedc95190e818899863725f897ecfd1a68da8b1c22f66b64e976eb",
      "scriptpubkey_type": "v1_p2tr",
      "scriptpubkey_address": "bc1pzc6pn7ffamwf2xgwsxyfnp3hyhuf0m8arf5d4zcuytmxke8fwm4sur7ute",
      "value": 3426
    },
    {
      "scriptpubkey": "5120c899eab0f6fd72e0708ac0e2dbdfd66d6453d4ce09881a21bae3d017a1523aaa",
      "scriptpubkey_asm": "OP_PUSHNUM_1 OP_PUSHBYTES_32 c899eab0f6fd72e0708ac0e2dbdfd66d6453d4ce09881a21bae3d017a1523aaa",
      "scriptpubkey_type": "v1_p2tr",
      "scriptpubkey_address": "bc1pezv74v8kl4ewquy2cr3dhh7kd4j984xwpxyp5gd6u0gp0g2j824qzth48j",
      "value": 3426
    },
    {
      "scriptpubkey": "51206d1d356c6b056ce50a64b3362982e036279990cf55f397f63d20bcd3f51ff266",
      "scriptpubkey_asm": "OP_PUSHNUM_1 OP_PUSHBYTES_32 6d1d356c6b056ce50a64b3362982e036279990cf55f397f63d20bcd3f51ff266",
      "scriptpubkey_type": "v1_p2tr",
      "scriptpubkey_address": "bc1pd5wn2mrtq4kw2znykvmznqhqxcnenyx02hee0a3ayz7d8agl7fnq3udxq2",
      "value": 3426
    },
    {
      "scriptpubkey": "5120768554d8e20e2ad30a93c938b1d0291d1c538f146acc44062989eeb1f821f80a",
      "scriptpubkey_asm": "OP_PUSHNUM_1 OP_PUSHBYTES_32 768554d8e20e2ad30a93c938b1d0291d1c538f146acc44062989eeb1f821f80a",
      "scriptpubkey_type": "v1_p2tr",
      "scriptpubkey_address": "bc1pw6z4fk8zpc4dxz5neyutr5pfr5w98rc5dtxygp3f38htr7pplq9qytfxsm",
      "value": 3426
    },
    {
      "scriptpubkey": "00140f85e6c1d8734fd9d9fe605556348a0d08a677b3",
      "scriptpubkey_asm": "OP_0 OP_PUSHBYTES_20 0f85e6c1d8734fd9d9fe605556348a0d08a677b3",
      "scriptpubkey_type": "v0_p2wpkh",
      "scriptpubkey_address": "bc1qp7z7dswcwd8ank07vp24vdy2p5y2vaan8z5duq",
      "value": 10825
    }
  ],
  "size": 686,
  "weight": 1577,
  "fee": 5925,
  "status": {
    "confirmed": true,
    "block_height": 834638,
    "block_hash": "000000000000000000025f742c626208ac87e0b7d15054abb4a19ca2d735a54e",
    "block_time": 1710405325
  },
  "hex": "0200000000010160e2af899d81b0e570b7162c1a5c82a4173ae3f20fbc49c0000c3fe44cbf69300000000000fdffffff06220200000000000022512022bf8f2e3f5e00da87378e74109ca796a8cf187b86c5316ac5162924be86d5dc620d000000000000225120163419f929eedc95190e818899863725f897ecfd1a68da8b1c22f66b64e976eb620d000000000000225120c899eab0f6fd72e0708ac0e2dbdfd66d6453d4ce09881a21bae3d017a1523aaa620d0000000000002251206d1d356c6b056ce50a64b3362982e036279990cf55f397f63d20bcd3f51ff266620d000000000000225120768554d8e20e2ad30a93c938b1d0291d1c538f146acc44062989eeb1f821f80a492a0000000000001600140f85e6c1d8734fd9d9fe605556348a0d08a677b30340ff73a2dabf705c724fecb6337340558aa2884739054cc35e82d9b945200ca766c3c75dc489f66b3dcb59ba9980ba59c061c7bc33385c4e93fa0dec7a0226f781fd1c0120065c56647af3cf60641d7c9f16bd2fcfc1724724907a7c5088bd51a0c3f95855ac0063036f726401011e6170706c69636174696f6e2f6a736f6e3b636861727365743d7574662d38004ccf7b2270223a22706f772d3230222c226f70223a226d696e74222c227469636b223a2250554e4b222c22616d74223a2231222c22736f6c7574696f6e223a2250554e4b3a6263317079326c633774336c746371643470656833653670703839386a3635763778726d736d7a6e7a366b397a63356a66303578366877717a7167336e793a303030303030303030303030303030303030303164363332346233346661396639643231623835373366623937656538666534396465643439313934373962643a37313532363437313336227d6821c10012eef0dd5686971201ee0affa8d24f6230a970f914fa050cfc5fbfb49107dd00000000"
}