{
  "txid": "56191ed0534dc737e2ef6fee6e99794c6ab33eca29411bdf750eb9e234234da9",
  "version": 1,
  "locktime": 0,
  "vin": [
    {
      "txid": "b53c375b6ba4b0f509ec4a3a284e44dcc379b7c5a50cc372334a0a9caa24718b",
      "vout": 1,
      "prevout": {
        "scriptpubkey": "a914b50092609dde01aba8a9145e338f3b749f92cf3987",
        "scriptpubkey_asm": "OP_HASH160 OP_PUSHBYTES_20 b50092609dde01aba8a9145e338f3b749f92cf39 OP_EQUAL",
        "scriptpubkey_type": "p2sh",
        "scriptpubkey_address": "3JC4uzaPQSdWXzMeUy9Hak6hSVH9riToXG",
        "value": 111302
      },
      "scriptsig": "160014eafe4a2fa2b233282f78952a056a7279b0a095c9",
      "scriptsig_asm": "OP_PUSHBYTES_22 0014eafe4a2fa2b233282f78952a056a7279b0a095c9",
      "witness": [
        "3045022100971b85b18e58d099936534aa2bf67f1de14716a240f2fccffe43d120cb66cb8e0220115b1113235228d6fc8c74651d5a9486abe909d50f84f68d9871e0413149891e01",
        "0244e1db0d93f5d4f8b48246bc86e586f85ed388f7464a112a7a7c75892ac31208"
      ],
      "is_coinbase": false,
      "sequence": 0,
      "inner_redeemscript_asm": "OP_0 OP_PUSHBYTES_20 eafe4a2fa2b233282f78952a056a7279b0a095c9"
    }
  ],
  "vout": [
    {
      "scriptpubkey": "a914e012e2ffe636889db62d802b239a7bd34838ff1487",
      "scriptpubkey_asm": "OP_HASH160 OP_PUSHBYTES_20 e012e2ffe636889db62d802b239a7bd34838ff14 OP_EQUAL",
      "scriptpubkey_type": "p2sh",
      "scriptpubkey_address": "3N7ounXyLYTv79zYJGEBqqXa21DPaTT6cQ",
      "value": 108908
    }
  ],
  "size": 216,
  "weight": 534,
  "fee": 2394,
  "status": {
    "confirmed": true,
    "block_height": 834638,
    "block_hash": "000000000000000000025f742c626208ac87e0b7d15054abb4a19ca2d735a54e",
    "block_time": 1710405325
  },
  "hex": "010000000001018b7124aa9c0a4a3372c30ca5c5b779c3dc444e283a4aec09f5b0a46b5b373cb50100000017160014eafe4a2fa2b233282f78952a056a7279b0a095c900000000016ca901000000000017a914e012e2ffe636889db62d802b239a7bd34838ff148702483045022100971b85b18e58d099936534aa2bf67f1de14716a240f2fccffe43d120cb66cb8e0220115b1113235228d6fc8c74651d5a9486abe909d50f84f68d9871e0413149891e01210244e1db0d93f5d4f8b48246bc86e586f85ed388f7464a112a7a7c75892ac3120800000000"
}