{
  "txid": "562000f6699d4068280439df1e9779fbc278ea84b4c0d5c68d64df3e39d39b88",
  "version": 1,
  "locktime": 0,
  "vin": [
    {
      "txid": "a4dfa4a4a39688eb62e12c32333433dcdce2ee0ce87381747c78227832d6d0d5",
      "vout": 13,
      "prevout": {
        "scriptpubkey": "0014e948ced20e4ef632a7fcfcdb6eb383977ab86cba",
        "scriptpubkey_asm": "OP_0 OP_PUSHBYTES_20 e948ced20e4ef632a7fcfcdb6eb383977ab86cba",
        "scriptpubkey_type": "v0_p2wpkh",
        "scriptpubkey_address": "bc1qa9yva5swfmmr9flulndkavurjaatsm96kghxj6",
        "value": 4431460
      },
      "scriptsig": "",
      "scriptsig_asm": "",
      "witness": [
        "30450221009441836af1e6be290cf5c9b43de55be14298499644bdd1b93b558a000d95f2d902200715cca7cf2ef69e3a09c5c8e0a74f32deec1610cc7d3acb814a369c7bc25dc101",
        "02611ada88609ee302c768f6f6ef61e41e2c3b1ef182da6dd5ada78ad9f4f83072"
      ],
      "is_coinbase": false,
      "sequence": 4294967295
    }
  ],
  "vout": [
    {
      "scriptpubkey": "0014bf7efea88e5b680597c24e15bdc9d9f99df85d12",
      "scriptpubkey_asm": "OP_0 OP_PUSHBYTES_20 bf7efea88e5b680597c24e15bdc9d9f99df85d12",
      "scriptpubkey_type": "v0_p2wpkh",
      "scriptpubkey_address": "bc1qhal0a2ywtd5qt97zfc2mmjwelxwlshgj85lpc6",
      "value": 1500000
    },
    {
      "scriptpubkey": "0014e948ced20e4ef632a7fcfcdb6eb383977ab86cba",
      "scriptpubkey_asm": "OP_0 OP_PUSHBYTES_20 e948ced20e4ef632a7fcfcdb6eb383977ab86cba",
      "scriptpubkey_type": "v0_p2wpkh",
      "scriptpubkey_address": "bc1qa9yva5swfmmr9flulndkavurjaatsm96kghxj6",
      "value": 2926762
    },
    {
      "scriptpubkey": "6a403d3a4253432e424e423a3078333934316530323833333737613941646137363232443537353764374137453331366463313933393a302f312f303a74693a3730",
      "scriptpubkey_asm": "OP_RETURN OP_PUSHBYTES_64 3d3a4253432e424e423a3078333934316530323833333737613941646137363232443537353764374137453331366463313933393a302f312f303a74693a3730",
      "scriptpubkey_type": "op_return",
      "value": 0
    }
  ],
  "size": 298,
  "weight": 862,
  "fee": 4698,
  "status": {
    "confirmed": true,
    "block_height": 834638,
    "block_hash": "000000000000000000025f742c626208ac87e0b7d15054abb4a19ca2d735a54e",
    "block_time": 1710405325
  },
  "hex": "01000000000101d5d0d6327822787c748173e80ceee2dcdc333433322ce162eb8896a3a4a4dfa40d00000000ffffffff0360e3160000000000160014bf7efea88e5b680597c24e15bdc9d9f99df85d12aaa82c0000000000160014e948ced20e4ef632a7fcfcdb6eb383977ab86cba0000000000000000426a403d3a4253432e424e423a3078333934316530323833333737613941646137363232443537353764374137453331366463313933393a302f312f303a74693a3730024830450221009441836af1e6be290cf5c9b43de55be14298499644bdd1b93b558a000d95f2d902200715cca7cf2ef69e3a09c5c8e0a74f32deec1610cc7d3acb814a369c7bc25dc1012102611ada88609ee302c768f6f6ef61e41e2c3b1ef182da6dd5ada78ad9f4f8307200000000"
}