{
  "txid": "562020c589b13373527aa059a1f176bd54a0b2187d0aa7007b41d97f99facb96",
  "version": 1,
  "locktime": 0,
  "vin": [
    {
      "txid": "a0030a4c9325473e4d21716bdaeb69152852c375fc84f54da8730325453bcccd",
      "vout": 0,
      "prevout": {
        "scriptpubkey": "00142c1a47bcb2298d691c7adc3a7bd78869a25d4c91",
        "scriptpubkey_asm": "OP_0 OP_PUSHBYTES_20 2c1a47bcb2298d691c7adc3a7bd78869a25d4c91",
        "scriptpubkey_type": "v0_p2wpkh",
        "scriptpubkey_address": "bc1q9sdy009j9xxkj8r6msa8h4ugdx396ny3llwzgl",
        "value": 260304
      },
      "scriptsig": "",
      "scriptsig_asm": "",
      "witness": [
        "3045022100e20981483489289cf2b3f05993272b8fa9a9fd3d091da54d417c4661e4df489902204b96d844103d98ccf475534871b0adf85420c16f36bfbeb3ec89ef159201fbc601",
        "03c6e43149ad4dbb9dd37ee527795d2e315c06fdf239fc0d22566d8481a6e48ecf"
      ],
      "is_coinbase": false,
      "sequence": 4294967295
    }
  ],
  "vout": [
    {
      "scriptpubkey": "76a9148366ec7b9e2dc530d7bcd54ee22eed62270c468e88ac",
      "scriptpubkey_asm": "OP_DUP OP_HASH160 OP_PUSHBYTES_20 8366ec7b9e2dc530d7bcd54ee22eed62270c468e OP_EQUALVERIFY OP_CHECKSIG",
      "scriptpubkey_type": "p2pkh",
      "scriptpubkey_address": "1CynpQ6Adh6bFXrxgDGyg1vPjEu5CS6E5Q",
      "value": 152483
    },
    {
      "scriptpubkey": "00142c1a47bcb2298d691c7adc3a7bd78869a25d4c91",
      "scriptpubkey_asm": "OP_0 OP_PUSHBYTES_20 2c1a47bcb2298d691c7adc3a7bd78869a25d4c91",
      "scriptpubkey_type": "v0_p2wpkh",
      "scriptpubkey_address": "bc1q9sdy009j9xxkj8r6msa8h4ugdx396ny3llwzgl",
      "value": 103933
    }
  ],
  "size": 226,
  "weight": 574,
  "fee": 3888,
  "status": {
    "confirmed": true,
    "block_height": 834464,
    "block_hash": "0000000000000000000177a0869a911a2b65c9bdcd5a8bcb02b68f305bee848e",
    "block_time": 1710308296
  },
  "hex": "01000000000101cdcc3b45250373a84df584fc75c352281569ebda6b71214d3e4725934c0a03a00000000000ffffffff02a3530200000000001976a9148366ec7b9e2dc530d7bcd54ee22eed62270c468e88acfd950100000000001600142c1a47bcb2298d691c7adc3a7bd78869a25d4c9102483045022100e20981483489289cf2b3f05993272b8fa9a9fd3d091da54d417c4661e4df489902204b96d844103d98ccf475534871b0adf85420c16f36bfbeb3ec89ef159201fbc6012103c6e43149ad4dbb9dd37ee527795d2e315c06fdf239fc0d22566d8481a6e48ecf00000000"
}