{
  "txid": "5624baaa6b22a1ce12754aab8f152831b658f66a499a6f41bdf27796c017c364",
  "version": 2,
  "locktime": 0,
  "vin": [
    {
      "txid": "8486ecb4df0880316dd6e82b3971b4df187aff23765bc3a47f8d78bb53aa273c",
      "vout": 78,
      "prevout": {
        "scriptpubkey": "51205b99e6e25662a47d85dab288d56ca907777c4840c539039bc39ad0bcdb9572c5",
        "scriptpubkey_asm": "OP_PUSHNUM_1 OP_PUSHBYTES_32 5b99e6e25662a47d85dab288d56ca907777c4840c539039bc39ad0bcdb9572c5",
        "scriptpubkey_type": "v1_p2tr",
        "scriptpubkey_address": "bc1ptwv7dcjkv2j8mpw6k2yd2m9fqamhcjzqc5us8x7rntgteku4wtzshfy49m",
        "value": 2575
      },
      "scriptsig": "",
      "scriptsig_asm": "",
      "witness": [
        "a9a96340af97e65accefef44b26b39b4be511f2a89f58d5f3946397dba134e452c2f71f1dbb4d97340e8daa25e29a37f7d9d5e9b341489cb26170bd9f8a2e7e6",
        "20eca262ade5d6242dae25f492102db0935f91fd63ba14bb236545cfa93b81f4b8ac0063036f726401010a746578742f706c61696e00367b2270223a226272632d3230222c226f70223a226d696e74222c227469636b223a2261616161222c22616d74223a223130303030227d68",
        "c1eca262ade5d6242dae25f492102db0935f91fd63ba14bb236545cfa93b81f4b8"
      ],
      "is_coinbase": false,
      "sequence": 4261412863
    }
  ],
  "vout": [
    {
      "scriptpubkey": "0014ddd7ef12ea6f78edcc1e8e7afa12c01ab59f3339",
      "scriptpubkey_asm": "OP_0 OP_PUSHBYTES_20 ddd7ef12ea6f78edcc1e8e7afa12c01ab59f3339",
      "scriptpubkey_type": "v0_p2wpkh",
      "scriptpubkey_address": "bc1qmht77yh2dauwmnq73ea05ykqr26e7veea8spz6",
      "value": 546
    }
  ],
  "size": 295,
  "weight": 541,
  "fee": 2029,
  "status": {
    "confirmed": true,
    "block_height": 834460,
    "block_hash": "00000000000000000000484a79b643b2524bbce82e5d8a442013fa5b8905ed98",
    "block_time": 1710307468
  },
  "hex": "020000000001013c27aa53bb788d7fa4c35b7623ff7a18dfb471392be8d66d318008dfb4ec86844e00000000fffffffd012202000000000000160014ddd7ef12ea6f78edcc1e8e7afa12c01ab59f33390340a9a96340af97e65accefef44b26b39b4be511f2a89f58d5f3946397dba134e452c2f71f1dbb4d97340e8daa25e29a37f7d9d5e9b341489cb26170bd9f8a2e7e66e20eca262ade5d6242dae25f492102db0935f91fd63ba14bb236545cfa93b81f4b8ac0063036f726401010a746578742f706c61696e00367b2270223a226272632d3230222c226f70223a226d696e74222c227469636b223a2261616161222c22616d74223a223130303030227d6821c1eca262ade5d6242dae25f492102db0935f91fd63ba14bb236545cfa93b81f4b800000000"
}