{
  "txid": "5633960711e0af00c6d8b24406986a77bd0aed3c49d929728d4e44470c679bab",
  "version": 2,
  "locktime": 0,
  "vin": [
    {
      "txid": "f0b389553d4202305af4db66303b549747a7ea95cb8b98ee71537eea3961ce33",
      "vout": 1,
      "prevout": {
        "scriptpubkey": "001457e329f824e7fe3a7177a8483da7c8d5e570f6c2",
        "scriptpubkey_asm": "OP_0 OP_PUSHBYTES_20 57e329f824e7fe3a7177a8483da7c8d5e570f6c2",
        "scriptpubkey_type": "v0_p2wpkh",
        "scriptpubkey_address": "bc1q2l3jn7pyullr5uth4pyrmf7g6hjhpakztefp34",
        "value": 11200
      },
      "scriptsig": "",
      "scriptsig_asm": "",
      "witness": [
        "3045022100fcb618b579468aabfa7c4bbd91e905f696e4967077e6a9054e3a7368b658bc4e0220591b7f748f2461a11c5b8d82d937bd11ab5affb8cc3d99c73624c9d2717e3a3c01",
        "025f763f6d8a11d1f7256766d834b5342d28b1bfb9f812318dba5ed1c690b4ec49"
      ],
      "is_coinbase": false,
      "sequence": 4294967293
    },
    {
      "txid": "8ba2a32f30684bd3c2539b1e31793f6b33ffd110dd0dfd13e093fa270d4887e1",
      "vout": 3,
      "prevout": {
        "scriptpubkey": "001457e329f824e7fe3a7177a8483da7c8d5e570f6c2",
        "scriptpubkey_asm": "OP_0 OP_PUSHBYTES_20 57e329f824e7fe3a7177a8483da7c8d5e570f6c2",
        "scriptpubkey_type": "v0_p2wpkh",
        "scriptpubkey_address": "bc1q2l3jn7pyullr5uth4pyrmf7g6hjhpakztefp34",
        "value": 10494
      },
      "scriptsig": "",
      "scriptsig_asm": "",
      "witness": [
        "304402204f954725daff30ffef8cded234624ddb2d2c445fdb30a3a1baed5a3300c38fad02200f844ae958784551ae6bebea7936aa6cc482c00f8d2f03e5a2e9f198018ba62101",
        "025f763f6d8a11d1f7256766d834b5342d28b1bfb9f812318dba5ed1c690b4ec49"
      ],
      "is_coinbase": false,
      "sequence": 4294967293
    }
  ],
  "vout": [
    {
      "scriptpubkey": "51208fa2966ae5ca0100f9f12b4000b72d07578d2c5f34206b551b30c4e612a48430",
      "scriptpubkey_asm": "OP_PUSHNUM_1 OP_PUSHBYTES_32 8fa2966ae5ca0100f9f12b4000b72d07578d2c5f34206b551b30c4e612a48430",
      "scriptpubkey_type": "v1_p2tr",
      "scriptpubkey_address": "bc1p373fv6h9egqsp7039dqqpdedqatc6tzlxssxk4gmxrzwvy4ysscqtphd60",
      "value": 2207
    },
    {
      "scriptpubkey": "51208fa2966ae5ca0100f9f12b4000b72d07578d2c5f34206b551b30c4e612a48430",
      "scriptpubkey_asm": "OP_PUSHNUM_1 OP_PUSHBYTES_32 8fa2966ae5ca0100f9f12b4000b72d07578d2c5f34206b551b30c4e612a48430",
      "scriptpubkey_type": "v1_p2tr",
      "scriptpubkey_address": "bc1p373fv6h9egqsp7039dqqpdedqatc6tzlxssxk4gmxrzwvy4ysscqtphd60",
      "value": 2207
    },
    {
      "scriptpubkey": "51208fa2966ae5ca0100f9f12b4000b72d07578d2c5f34206b551b30c4e612a48430",
      "scriptpubkey_asm": "OP_PUSHNUM_1 OP_PUSHBYTES_32 8fa2966ae5ca0100f9f12b4000b72d07578d2c5f34206b551b30c4e612a48430",
      "scriptpubkey_type": "v1_p2tr",
      "scriptpubkey_address": "bc1p373fv6h9egqsp7039dqqpdedqatc6tzlxssxk4gmxrzwvy4ysscqtphd60",
      "value": 2207
    },
    {
      "scriptpubkey": "51208fa2966ae5ca0100f9f12b4000b72d07578d2c5f34206b551b30c4e612a48430",
      "scriptpubkey_asm": "OP_PUSHNUM_1 OP_PUSHBYTES_32 8fa2966ae5ca0100f9f12b4000b72d07578d2c5f34206b551b30c4e612a48430",
      "scriptpubkey_type": "v1_p2tr",
      "scriptpubkey_address": "bc1p373fv6h9egqsp7039dqqpdedqatc6tzlxssxk4gmxrzwvy4ysscqtphd60",
      "value": 2207
    },
    {
      "scriptpubkey": "51208fa2966ae5ca0100f9f12b4000b72d07578d2c5f34206b551b30c4e612a48430",
      "scriptpubkey_asm": "OP_PUSHNUM_1 OP_PUSHBYTES_32 8fa2966ae5ca0100f9f12b4000b72d07578d2c5f34206b551b30c4e612a48430",
      "scriptpubkey_type": "v1_p2tr",
      "scriptpubkey_address": "bc1p373fv6h9egqsp7039dqqpdedqatc6tzlxssxk4gmxrzwvy4ysscqtphd60",
      "value": 2207
    },
    {
      "scriptpubkey": "001457e329f824e7fe3a7177a8483da7c8d5e570f6c2",
      "scriptpubkey_asm": "OP_0 OP_PUSHBYTES_20 57e329f824e7fe3a7177a8483da7c8d5e570f6c2",
      "scriptpubkey_type": "v0_p2wpkh",
      "scriptpubkey_address": "bc1q2l3jn7pyullr5uth4pyrmf7g6hjhpakztefp34",
      "value": 6347
    }
  ],
  "size": 555,
  "weight": 1569,
  "fee": 4312,
  "status": {
    "confirmed": true,
    "block_height": 834464,
    "block_hash": "0000000000000000000177a0869a911a2b65c9bdcd5a8bcb02b68f305bee848e",
    "block_time": 1710308296
  },
  "hex": "0200000000010233ce6139ea7e5371ee988bcb95eaa74797543b3066dbf45a3002423d5589b3f00100000000fdffffffe187480d27fa93e013fd0ddd10d1ff336b3f79311e9b53c2d34b68302fa3a28b0300000000fdffffff069f080000000000002251208fa2966ae5ca0100f9f12b4000b72d07578d2c5f34206b551b30c4e612a484309f080000000000002251208fa2966ae5ca0100f9f12b4000b72d07578d2c5f34206b551b30c4e612a484309f080000000000002251208fa2966ae5ca0100f9f12b4000b72d07578d2c5f34206b551b30c4e612a484309f080000000000002251208fa2966ae5ca0100f9f12b4000b72d07578d2c5f34206b551b30c4e612a484309f080000000000002251208fa2966ae5ca0100f9f12b4000b72d07578d2c5f34206b551b30c4e612a48430cb1800000000000016001457e329f824e7fe3a7177a8483da7c8d5e570f6c202483045022100fcb618b579468aabfa7c4bbd91e905f696e4967077e6a9054e3a7368b658bc4e0220591b7f748f2461a11c5b8d82d937bd11ab5affb8cc3d99c73624c9d2717e3a3c0121025f763f6d8a11d1f7256766d834b5342d28b1bfb9f812318dba5ed1c690b4ec490247304402204f954725daff30ffef8cded234624ddb2d2c445fdb30a3a1baed5a3300c38fad02200f844ae958784551ae6bebea7936aa6cc482c00f8d2f03e5a2e9f198018ba6210121025f763f6d8a11d1f7256766d834b5342d28b1bfb9f812318dba5ed1c690b4ec4900000000"
}