{
  "txid": "5636a91797234a50a1c7c0c7c650a58d4f9e249020ca552a0adc3df7f1d457ae",
  "version": 2,
  "locktime": 0,
  "vin": [
    {
      "txid": "434a190af4c77d79979d2d21602f5142851f9bba256446dd7d31a7b311999b99",
      "vout": 4,
      "prevout": {
        "scriptpubkey": "512092adad0b8e8a4d940f3db7156a0910ba3f70cd79b365902280bc2bc035ceca14",
        "scriptpubkey_asm": "OP_PUSHNUM_1 OP_PUSHBYTES_32 92adad0b8e8a4d940f3db7156a0910ba3f70cd79b365902280bc2bc035ceca14",
        "scriptpubkey_type": "v1_p2tr",
        "scriptpubkey_address": "bc1pj2k66zuw3fxegreaku2k5zgshglhpntekdjeqg5qhs4uqdwweg2q48k4qp",
        "value": 3248
      },
      "scriptsig": "",
      "scriptsig_asm": "",
      "witness": [
        "1f182b3ab10fd0a0795706e409ebceb4f76118317d966e989dc06bf13ed9763c5a6f501f654f5795bac66ce5de13adfebabdb2daa3087ff24ebaccbfe522760b",
        "205d732e11004ec4a818a86c7f7699257bd44b504c3e0a93a3b8b8347ecf502911ac0063036f726401011e6170706c69636174696f6e2f6a736f6e3b636861727365743d7574662d38004cd37b2270223a22706f772d3230222c226f70223a226d696e74222c227469636b223a2250455045222c22616d74223a2231303030222c22736f6c7574696f6e223a22504550453a6263317034346572347876306c6430706c6a3779346c6a71307536617433747936773234356c7961366173337474367578747039716c79737637327161613a303030303030303030303030303030303030303139393431613561653132383937363539383134343239323533333030353762306461393666336465613163353a3537363732323436383537227d68",
        "c0f9337ae8d846120319842204c8fa6fb30a2d36b39aa08502370b80ec3c9c59a9"
      ],
      "is_coinbase": false,
      "sequence": 4294967295
    }
  ],
  "vout": [
    {
      "scriptpubkey": "5120ad723a998ffb5e1fcbc4afe407f35d5c564d3955a7c9dd76115af5c32c2507c9",
      "scriptpubkey_asm": "OP_PUSHNUM_1 OP_PUSHBYTES_32 ad723a998ffb5e1fcbc4afe407f35d5c564d3955a7c9dd76115af5c32c2507c9",
      "scriptpubkey_type": "v1_p2tr",
      "scriptpubkey_address": "bc1p44er4xv0ld0plj7y4ljq0u6at3ty6w245lya6as3tt6uxtp9qlysv72qaa",
      "value": 546
    }
  ],
  "size": 487,
  "weight": 769,
  "fee": 2702,
  "status": {
    "confirmed": true,
    "block_height": 834460,
    "block_hash": "00000000000000000000484a79b643b2524bbce82e5d8a442013fa5b8905ed98",
    "block_time": 1710307468
  },
  "hex": "02000000000101999b9911b3a7317ddd466425ba9b1f8542512f60212d9d97797dc7f40a194a430400000000ffffffff012202000000000000225120ad723a998ffb5e1fcbc4afe407f35d5c564d3955a7c9dd76115af5c32c2507c903401f182b3ab10fd0a0795706e409ebceb4f76118317d966e989dc06bf13ed9763c5a6f501f654f5795bac66ce5de13adfebabdb2daa3087ff24ebaccbfe522760bfd2001205d732e11004ec4a818a86c7f7699257bd44b504c3e0a93a3b8b8347ecf502911ac0063036f726401011e6170706c69636174696f6e2f6a736f6e3b636861727365743d7574662d38004cd37b2270223a22706f772d3230222c226f70223a226d696e74222c227469636b223a2250455045222c22616d74223a2231303030222c22736f6c7574696f6e223a22504550453a6263317034346572347876306c6430706c6a3779346c6a71307536617433747936773234356c7961366173337474367578747039716c79737637327161613a303030303030303030303030303030303030303139393431613561653132383937363539383134343239323533333030353762306461393666336465613163353a3537363732323436383537227d6821c0f9337ae8d846120319842204c8fa6fb30a2d36b39aa08502370b80ec3c9c59a900000000"
}