{
  "txid": "5645311f22f1ac98df3acafdde5881f52236e8b07bd2c55975e76b588e5ad807",
  "version": 1,
  "locktime": 0,
  "vin": [
    {
      "txid": "c4da5fecb9ee797031869cfd18c85032de50c1927f03bc4e3a9effbb2c25627a",
      "vout": 0,
      "prevout": {
        "scriptpubkey": "5120dfed28d21262b4fdd79ce39ac071ac7d20469ab74239b19186b765c740fc8be7",
        "scriptpubkey_asm": "OP_PUSHNUM_1 OP_PUSHBYTES_32 dfed28d21262b4fdd79ce39ac071ac7d20469ab74239b19186b765c740fc8be7",
        "scriptpubkey_type": "v1_p2tr",
        "scriptpubkey_address": "bc1pmlkj35sjv260m4uuuwdvqudv05sydx4hggumryvxkajuws8u30nsus9rct",
        "value": 2431
      },
      "scriptsig": "",
      "scriptsig_asm": "",
      "witness": [
        "d8cca62ccf0df527c11cfc61e66ba00205df9ae8beecc2366653361734791750cf4943a6685a5b35655042a993f81d51d4847641e5c28321c93553e84025250d",
        "2066540c6741546d2f88c7a6e079b705a33a9cef200cdf7724b13aedb9a4c33c81ac0063036f7264010118746578742f706c61696e3b636861727365743d7574662d3800397b2270223a226272632d3230222c226f70223a227472616e73666572222c227469636b223a22696e6473222c22616d74223a2232353030227d68",
        "c166540c6741546d2f88c7a6e079b705a33a9cef200cdf7724b13aedb9a4c33c81"
      ],
      "is_coinbase": false,
      "sequence": 4294967293
    }
  ],
  "vout": [
    {
      "scriptpubkey": "001473480904a72d4d438b33766761d4677630e8328e",
      "scriptpubkey_asm": "OP_0 OP_PUSHBYTES_20 73480904a72d4d438b33766761d4677630e8328e",
      "scriptpubkey_type": "v0_p2wpkh",
      "scriptpubkey_address": "bc1qwdyqjp9894x58zenwenkr4r8wccwsv5wlswm8v",
      "value": 546
    }
  ],
  "size": 312,
  "weight": 558,
  "fee": 1885,
  "status": {
    "confirmed": true,
    "block_height": 834460,
    "block_hash": "00000000000000000000484a79b643b2524bbce82e5d8a442013fa5b8905ed98",
    "block_time": 1710307468
  },
  "hex": "010000000001017a62252cbbff9e3a4ebc037f92c150de3250c818fd9c86317079eeb9ec5fdac40000000000fdffffff01220200000000000016001473480904a72d4d438b33766761d4677630e8328e0340d8cca62ccf0df527c11cfc61e66ba00205df9ae8beecc2366653361734791750cf4943a6685a5b35655042a993f81d51d4847641e5c28321c93553e84025250d7f2066540c6741546d2f88c7a6e079b705a33a9cef200cdf7724b13aedb9a4c33c81ac0063036f7264010118746578742f706c61696e3b636861727365743d7574662d3800397b2270223a226272632d3230222c226f70223a227472616e73666572222c227469636b223a22696e6473222c22616d74223a2232353030227d6821c166540c6741546d2f88c7a6e079b705a33a9cef200cdf7724b13aedb9a4c33c8100000000"
}