{
  "txid": "565fb24034a0a15cfd1d7ab1ddf6621f34701bc3cf6d5a2a58a3ac852dd61b92",
  "version": 1,
  "locktime": 0,
  "vin": [
    {
      "txid": "d065de3e1cda24f452d48d8da1c583df431b8ad4d93acedd2c98e2d4fa83179f",
      "vout": 2,
      "prevout": {
        "scriptpubkey": "0014cbbfcc021f4dbd0697f7e02eb1949a70be183375",
        "scriptpubkey_asm": "OP_0 OP_PUSHBYTES_20 cbbfcc021f4dbd0697f7e02eb1949a70be183375",
        "scriptpubkey_type": "v0_p2wpkh",
        "scriptpubkey_address": "bc1qewlucqslfk7sd9lhuqhtr9y6wzlpsvm46wyugs",
        "value": 137662217
      },
      "scriptsig": "",
      "scriptsig_asm": "",
      "witness": [
        "30440220169a9b9e58773a906fab18b02d5b7d02c14ed90f7018e10fc6f03b199c0ff5a80220284345ffc9600c6608e1e18e7c663e4703447f227e11e59cc23f64d937aaeb2d01",
        "0267a353d263f0b45548fcbdef9e63ee30ded60a3f3ac86462d4d3f49b22298e60"
      ],
      "is_coinbase": false,
      "sequence": 4294967295
    }
  ],
  "vout": [
    {
      "scriptpubkey": "a91420756d2dd9f0cc05fe200794251642ff9e76008587",
      "scriptpubkey_asm": "OP_HASH160 OP_PUSHBYTES_20 20756d2dd9f0cc05fe200794251642ff9e760085 OP_EQUAL",
      "scriptpubkey_type": "p2sh",
      "scriptpubkey_address": "34eeDckhVvGkbnTzGx6qbz2AkmyV9syc8R",
      "value": 137660774
    }
  ],
  "size": 192,
  "weight": 441,
  "fee": 1443,
  "status": {
    "confirmed": true,
    "block_height": 834552,
    "block_hash": "00000000000000000001dd0468a70c94f619251d286585cff57aeb4bd9ede330",
    "block_time": 1710355598
  },
  "hex": "010000000001019f1783fad4e2982cddce3ad9d48a1b43df83c5a18d8dd452f424da1c3ede65d00200000000ffffffff01668934080000000017a91420756d2dd9f0cc05fe200794251642ff9e76008587024730440220169a9b9e58773a906fab18b02d5b7d02c14ed90f7018e10fc6f03b199c0ff5a80220284345ffc9600c6608e1e18e7c663e4703447f227e11e59cc23f64d937aaeb2d01210267a353d263f0b45548fcbdef9e63ee30ded60a3f3ac86462d4d3f49b22298e6000000000"
}