{
  "txid": "5661402eb416e30e22d780d5952d53c176c87593e59c6a762b917f50733f3d50",
  "version": 1,
  "locktime": 0,
  "vin": [
    {
      "txid": "574671c2a77b8c5454a13b90e452aa695bff6f4671a6b3d02f7f5dad30b738de",
      "vout": 1,
      "prevout": {
        "scriptpubkey": "00141e3a55f5e650a7b076f373a090d9ad97d1e8c27e",
        "scriptpubkey_asm": "OP_0 OP_PUSHBYTES_20 1e3a55f5e650a7b076f373a090d9ad97d1e8c27e",
        "scriptpubkey_type": "v0_p2wpkh",
        "scriptpubkey_address": "bc1qrca9ta0x2znmqahnwwsfpkddjlg73sn79pcq02",
        "value": 9369394298
      },
      "scriptsig": "",
      "scriptsig_asm": "",
      "witness": [
        "30450221009da4836839994ffda9466c241ead1835e830eff98c0513c471034b506381fb4c0220662dd0ad99a8d009a060ffa46cd27c63eaf5005e68bcbb8d889621030818423b01",
        "03c9a313937d7459a1ad9c389e23eccef43b5dff74f7468221d72fcd15e82d2364"
      ],
      "is_coinbase": false,
      "sequence": 4294967295
    }
  ],
  "vout": [
    {
      "scriptpubkey": "00148e020166beaa489d39e2e24bcddb548fb98330dc",
      "scriptpubkey_asm": "OP_0 OP_PUSHBYTES_20 8e020166beaa489d39e2e24bcddb548fb98330dc",
      "scriptpubkey_type": "v0_p2wpkh",
      "scriptpubkey_address": "bc1q3cpqze474fyf6w0zuf9umk6537ucxvxuy9vats",
      "value": 559408
    },
    {
      "scriptpubkey": "00141e3a55f5e650a7b076f373a090d9ad97d1e8c27e",
      "scriptpubkey_asm": "OP_0 OP_PUSHBYTES_20 1e3a55f5e650a7b076f373a090d9ad97d1e8c27e",
      "scriptpubkey_type": "v0_p2wpkh",
      "scriptpubkey_address": "bc1qrca9ta0x2znmqahnwwsfpkddjlg73sn79pcq02",
      "value": 9368830754
    },
    {
      "scriptpubkey": "6a444f55543a38453937413535413245333333304134434238304536343646454146324143454444323144453632414244453431323030363142443834454136464235333646",
      "scriptpubkey_asm": "OP_RETURN OP_PUSHBYTES_68 4f55543a38453937413535413245333333304134434238304536343646454146324143454444323144453632414244453431323030363142443834454136464235333646",
      "scriptpubkey_type": "op_return",
      "value": 0
    }
  ],
  "size": 302,
  "weight": 878,
  "fee": 4136,
  "status": {
    "confirmed": true,
    "block_height": 834460,
    "block_hash": "00000000000000000000484a79b643b2524bbce82e5d8a442013fa5b8905ed98",
    "block_time": 1710307468
  },
  "hex": "01000000000101de38b730ad5d7f2fd0b3a671466fff5b69aa52e4903ba154548c7ba7c27146570100000000ffffffff0330890800000000001600148e020166beaa489d39e2e24bcddb548fb98330dc22036d2e020000001600141e3a55f5e650a7b076f373a090d9ad97d1e8c27e0000000000000000466a444f55543a38453937413535413245333333304134434238304536343646454146324143454444323144453632414244453431323030363142443834454136464235333646024830450221009da4836839994ffda9466c241ead1835e830eff98c0513c471034b506381fb4c0220662dd0ad99a8d009a060ffa46cd27c63eaf5005e68bcbb8d889621030818423b012103c9a313937d7459a1ad9c389e23eccef43b5dff74f7468221d72fcd15e82d236400000000"
}