{
  "txid": "5661fef3a650d471443d266de66ae4b8f732806d90124761a56df096c380c92c",
  "version": 2,
  "locktime": 0,
  "vin": [
    {
      "txid": "07e5a2464aad52658dec17fdc43035c7f5bbf86935eaf9253b1f16b7620e06d6",
      "vout": 2,
      "prevout": {
        "scriptpubkey": "0014f60834ef165253c571b11ce9fa74e46692fc5ec1",
        "scriptpubkey_asm": "OP_0 OP_PUSHBYTES_20 f60834ef165253c571b11ce9fa74e46692fc5ec1",
        "scriptpubkey_type": "v0_p2wpkh",
        "scriptpubkey_address": "bc1q7cyrfmck2ffu2ud3rn5l5a8yv6f0chkp0zpemf",
        "value": 638307365
      },
      "scriptsig": "",
      "scriptsig_asm": "",
      "witness": [
        "304402204f29b7d860d0bd88fd2539c5bf6a74a314c6d6d9d15c3b549e194af9c37df06002203a68844d46284f5887f75e45cbf7b1f14c784daab54278362fbd65120215c8d801",
        "026e5628506ecd33242e5ceb5fdafe4d3066b5c0f159b3c05a621ef65f177ea286"
      ],
      "is_coinbase": false,
      "sequence": 4294967293
    }
  ],
  "vout": [
    {
      "scriptpubkey": "0014963ad1701f801cb2cbc0057fd9bf44588905fc3e",
      "scriptpubkey_asm": "OP_0 OP_PUSHBYTES_20 963ad1701f801cb2cbc0057fd9bf44588905fc3e",
      "scriptpubkey_type": "v0_p2wpkh",
      "scriptpubkey_address": "bc1qjcadzuqlsqwt9j7qq4lan06ytzystlp75pdsum",
      "value": 75290
    },
    {
      "scriptpubkey": "76a91459b3d4e52bbde1e2ab57628ef44966a77ef8b44188ac",
      "scriptpubkey_asm": "OP_DUP OP_HASH160 OP_PUSHBYTES_20 59b3d4e52bbde1e2ab57628ef44966a77ef8b441 OP_EQUALVERIFY OP_CHECKSIG",
      "scriptpubkey_type": "p2pkh",
      "scriptpubkey_address": "19BJZzbc6ob8E48PfEU4ndbrai2kQQnw87",
      "value": 9940000
    },
    {
      "scriptpubkey": "a914626dec20274636081745773ee25e548e446a58b387",
      "scriptpubkey_asm": "OP_HASH160 OP_PUSHBYTES_20 626dec20274636081745773ee25e548e446a58b3 OP_EQUAL",
      "scriptpubkey_type": "p2sh",
      "scriptpubkey_address": "3AfTptAeGigWPW5haaYXyhtPFvLwwzWsjM",
      "value": 1174470
    },
    {
      "scriptpubkey": "0014f60834ef165253c571b11ce9fa74e46692fc5ec1",
      "scriptpubkey_asm": "OP_0 OP_PUSHBYTES_20 f60834ef165253c571b11ce9fa74e46692fc5ec1",
      "scriptpubkey_type": "v0_p2wpkh",
      "scriptpubkey_address": "bc1q7cyrfmck2ffu2ud3rn5l5a8yv6f0chkp0zpemf",
      "value": 627110885
    }
  ],
  "size": 288,
  "weight": 825,
  "fee": 6720,
  "status": {
    "confirmed": true,
    "block_height": 834460,
    "block_hash": "00000000000000000000484a79b643b2524bbce82e5d8a442013fa5b8905ed98",
    "block_time": 1710307468
  },
  "hex": "02000000000101d6060e62b7161f3b25f9ea3569f8bbf5c73530c4fd17ec8d6552ad4a46a2e5070200000000fdffffff041a26010000000000160014963ad1701f801cb2cbc0057fd9bf44588905fc3e20ac9700000000001976a91459b3d4e52bbde1e2ab57628ef44966a77ef8b44188acc6eb11000000000017a914626dec20274636081745773ee25e548e446a58b387e5f3602500000000160014f60834ef165253c571b11ce9fa74e46692fc5ec10247304402204f29b7d860d0bd88fd2539c5bf6a74a314c6d6d9d15c3b549e194af9c37df06002203a68844d46284f5887f75e45cbf7b1f14c784daab54278362fbd65120215c8d80121026e5628506ecd33242e5ceb5fdafe4d3066b5c0f159b3c05a621ef65f177ea28600000000"
}