{
  "txid": "56689baa126382cdb7dcbc09d28addaf0622199a2c500ab60bd8661956386714",
  "version": 2,
  "locktime": 0,
  "vin": [
    {
      "txid": "b68f347cb270120c52e9ff251581209da81425735e1ac520b884096e93bff3b0",
      "vout": 0,
      "prevout": {
        "scriptpubkey": "5120e59a3ac0e8e73e42e55c1f5e167cfba4348a6870730388eacf7fbca3e05c2a9c",
        "scriptpubkey_asm": "OP_PUSHNUM_1 OP_PUSHBYTES_32 e59a3ac0e8e73e42e55c1f5e167cfba4348a6870730388eacf7fbca3e05c2a9c",
        "scriptpubkey_type": "v1_p2tr",
        "scriptpubkey_address": "bc1pukdr4s8guuly9e2ura0pvl8m5s6g56rswvpc36k007728czu92wqgy4w5r",
        "value": 2994
      },
      "scriptsig": "",
      "scriptsig_asm": "",
      "witness": [
        "180997ca9814b2d892b0dbbbd17d1d90ef698db7c5dec5c551b678664d64fb1c6b95e1d52431a3a05b69f125cb8ca50eb19d6b9de95cc13c4f1bdbdd90de93bb",
        "20f883762fb1ab5d8d12d4bffea793a06d6655851c59696e8f59e656cb3cec97d7ac0063036f7264010118746578742f706c61696e3b636861727365743d7574662d38003c7b2270223a226272632d3230222c226f70223a227472616e73666572222c227469636b223a227069696e222c22616d74223a2233303030303030227d68",
        "c0f883762fb1ab5d8d12d4bffea793a06d6655851c59696e8f59e656cb3cec97d7"
      ],
      "is_coinbase": false,
      "sequence": 4294967293
    }
  ],
  "vout": [
    {
      "scriptpubkey": "5120cb83a415fd6a72cdba6f30d867d9fd0eed8a942ddeb9619814c62c762e8435f6",
      "scriptpubkey_asm": "OP_PUSHNUM_1 OP_PUSHBYTES_32 cb83a415fd6a72cdba6f30d867d9fd0eed8a942ddeb9619814c62c762e8435f6",
      "scriptpubkey_type": "v1_p2tr",
      "scriptpubkey_address": "bc1pewp6g90adfevmwn0xrvx0k0apmkc49pdm6ukrxq5cck8vt5yxhmq42u74l",
      "value": 546
    }
  ],
  "size": 327,
  "weight": 609,
  "fee": 2448,
  "status": {
    "confirmed": true,
    "block_height": 834638,
    "block_hash": "000000000000000000025f742c626208ac87e0b7d15054abb4a19ca2d735a54e",
    "block_time": 1710405325
  },
  "hex": "02000000000101b0f3bf936e0984b820c51a5e732514a89d20811525ffe9520c1270b27c348fb60000000000fdffffff012202000000000000225120cb83a415fd6a72cdba6f30d867d9fd0eed8a942ddeb9619814c62c762e8435f60340180997ca9814b2d892b0dbbbd17d1d90ef698db7c5dec5c551b678664d64fb1c6b95e1d52431a3a05b69f125cb8ca50eb19d6b9de95cc13c4f1bdbdd90de93bb8220f883762fb1ab5d8d12d4bffea793a06d6655851c59696e8f59e656cb3cec97d7ac0063036f7264010118746578742f706c61696e3b636861727365743d7574662d38003c7b2270223a226272632d3230222c226f70223a227472616e73666572222c227469636b223a227069696e222c22616d74223a2233303030303030227d6821c0f883762fb1ab5d8d12d4bffea793a06d6655851c59696e8f59e656cb3cec97d700000000"
}