{
  "txid": "5669b968953b87eaaf3c731b36e40a9cf7cee7b5ae400e70971ad44f09d0fad6",
  "version": 2,
  "locktime": 0,
  "vin": [
    {
      "txid": "acc3ba00869acb582a3f2904ce3a11dd3779350ce234063fc7d0959246213364",
      "vout": 149,
      "prevout": {
        "scriptpubkey": "51201db78069156928b656aaa4c7338cb84379e66367650120369b0995270ad43445",
        "scriptpubkey_asm": "OP_PUSHNUM_1 OP_PUSHBYTES_32 1db78069156928b656aaa4c7338cb84379e66367650120369b0995270ad43445",
        "scriptpubkey_type": "v1_p2tr",
        "scriptpubkey_address": "bc1prkmcq6g4dy5tv4425nrn8r9cgdu7vcm8v5qjqd5mpx2jwzk5x3zsp8uunn",
        "value": 1806
      },
      "scriptsig": "",
      "scriptsig_asm": "",
      "witness": [
        "c0d34b9dfe8fc6d3dcac9bb9a57365ea68d02c77eddb470d22eaf74d601b204e15f1c5bbf3a3205c275ac3640aa6238eec7481156f58e00c9d2830ec83d2f7b7",
        "2096085eeabb2bdf52a6b43613c6f881f719347d116e4ab0f3460638e01688a16fac0063036f726401010a746578742f706c61696e00357b2270223a226272632d3230222c226f70223a226d696e74222c227469636b223a22646f6765222c22616d74223a2234323030227d68",
        "c196085eeabb2bdf52a6b43613c6f881f719347d116e4ab0f3460638e01688a16f"
      ],
      "is_coinbase": false,
      "sequence": 4261412863
    }
  ],
  "vout": [
    {
      "scriptpubkey": "00147a665de7a370f4c9b372ab1fae587500a5bcbdb4",
      "scriptpubkey_asm": "OP_0 OP_PUSHBYTES_20 7a665de7a370f4c9b372ab1fae587500a5bcbdb4",
      "scriptpubkey_type": "v0_p2wpkh",
      "scriptpubkey_address": "bc1q0fn9mearwr6vnvmj4v06ukr4qzjme0d565dzcx",
      "value": 294
    }
  ],
  "size": 294,
  "weight": 540,
  "fee": 1512,
  "status": {
    "confirmed": true,
    "block_height": 834460,
    "block_hash": "00000000000000000000484a79b643b2524bbce82e5d8a442013fa5b8905ed98",
    "block_time": 1710307468
  },
  "hex": "02000000000101643321469295d0c73f0634e20c357937dd113ace04293f2a58cb9a8600bac3ac9500000000fffffffd0126010000000000001600147a665de7a370f4c9b372ab1fae587500a5bcbdb40340c0d34b9dfe8fc6d3dcac9bb9a57365ea68d02c77eddb470d22eaf74d601b204e15f1c5bbf3a3205c275ac3640aa6238eec7481156f58e00c9d2830ec83d2f7b76d2096085eeabb2bdf52a6b43613c6f881f719347d116e4ab0f3460638e01688a16fac0063036f726401010a746578742f706c61696e00357b2270223a226272632d3230222c226f70223a226d696e74222c227469636b223a22646f6765222c22616d74223a2234323030227d6821c196085eeabb2bdf52a6b43613c6f881f719347d116e4ab0f3460638e01688a16f00000000"
}