{
  "txid": "5676b21586b3da13f1f03642a5d4d6eb502792bd1c44563bf6cd59b2737e7553",
  "version": 2,
  "locktime": 0,
  "vin": [
    {
      "txid": "d1549cab0b64841e74b6500e14919bc84c3c1d833acdc0deb33e5e70e951b2f2",
      "vout": 18,
      "prevout": {
        "scriptpubkey": "00143877cc298fc5b8a591e34982a91183bb35f0c242",
        "scriptpubkey_asm": "OP_0 OP_PUSHBYTES_20 3877cc298fc5b8a591e34982a91183bb35f0c242",
        "scriptpubkey_type": "v0_p2wpkh",
        "scriptpubkey_address": "bc1q8pmuc2v0cku2ty0rfxp2jyvrhv6lpsjzq9y6s8",
        "value": 360537424
      },
      "scriptsig": "",
      "scriptsig_asm": "",
      "witness": [
        "3045022100deb202563da04b9ae78f6abe4dac98bb5ca146f759281ca20bf1c21a036b999302202c7feb1568318fcdd1636c8e616599616dcf0e55b6d873391a459f709262ded501",
        "023e86a944b9cff6bea3e61d3594820cacbfb122b817934f981256b2bc4e6b8504"
      ],
      "is_coinbase": false,
      "sequence": 4294967295
    }
  ],
  "vout": [
    {
      "scriptpubkey": "0014035a6801b8d06a2d0f0c4b3dec2b3df8d2f0cc15",
      "scriptpubkey_asm": "OP_0 OP_PUSHBYTES_20 035a6801b8d06a2d0f0c4b3dec2b3df8d2f0cc15",
      "scriptpubkey_type": "v0_p2wpkh",
      "scriptpubkey_address": "bc1qqddxsqdc6p4z6rcvfv77c2ealrf0pnq46se4r9",
      "value": 853573
    },
    {
      "scriptpubkey": "00143cca851a62be5c6e3024e231aa12ce09a1b7892e",
      "scriptpubkey_asm": "OP_0 OP_PUSHBYTES_20 3cca851a62be5c6e3024e231aa12ce09a1b7892e",
      "scriptpubkey_type": "v0_p2wpkh",
      "scriptpubkey_address": "bc1q8n9g2xnzhewxuvpyugc65ykwpxsm0zfwjhmnrz",
      "value": 2662566
    },
    {
      "scriptpubkey": "0014aa14ab8026caadc7bb98aac37db98c0fa2ccae7f",
      "scriptpubkey_asm": "OP_0 OP_PUSHBYTES_20 aa14ab8026caadc7bb98aac37db98c0fa2ccae7f",
      "scriptpubkey_type": "v0_p2wpkh",
      "scriptpubkey_address": "bc1q4g22hqpxe2ku0wuc4tphmwvvp73vetnlj08cu4",
      "value": 756122
    },
    {
      "scriptpubkey": "0014258505ba9c54b4e76fe70c37728755b62d5720c5",
      "scriptpubkey_asm": "OP_0 OP_PUSHBYTES_20 258505ba9c54b4e76fe70c37728755b62d5720c5",
      "scriptpubkey_type": "v0_p2wpkh",
      "scriptpubkey_address": "bc1qykzstw5u2j6wwml8psmh9p64kck4wgx94v9v74",
      "value": 475994
    },
    {
      "scriptpubkey": "a914c910d2a04835bc3c7dab201276831245deeabf9287",
      "scriptpubkey_asm": "OP_HASH160 OP_PUSHBYTES_20 c910d2a04835bc3c7dab201276831245deeabf92 OP_EQUAL",
      "scriptpubkey_type": "p2sh",
      "scriptpubkey_address": "3L29ty4b3bE3vGUcvbea81ptSmNfPUTygK",
      "value": 200169438
    },
    {
      "scriptpubkey": "0014a3e48390b6747e786d49df6573c1c1ece9b57282",
      "scriptpubkey_asm": "OP_0 OP_PUSHBYTES_20 a3e48390b6747e786d49df6573c1c1ece9b57282",
      "scriptpubkey_type": "v0_p2wpkh",
      "scriptpubkey_address": "bc1q50jg8y9kw3l8sm2fmajh8swpan5m2u5zl2g0wu",
      "value": 1242799
    },
    {
      "scriptpubkey": "00143ebabde457e89fb171f708270b9da51aef011db2",
      "scriptpubkey_asm": "OP_0 OP_PUSHBYTES_20 3ebabde457e89fb171f708270b9da51aef011db2",
      "scriptpubkey_type": "v0_p2wpkh",
      "scriptpubkey_address": "bc1q86atmezhaz0mzu0hpqnsh8d9rthsz8djrntpf9",
      "value": 404489
    },
    {
      "scriptpubkey": "a9149c92ffaede332374101104bde3f881bccf9450b787",
      "scriptpubkey_asm": "OP_HASH160 OP_PUSHBYTES_20 9c92ffaede332374101104bde3f881bccf9450b7 OP_EQUAL",
      "scriptpubkey_type": "p2sh",
      "scriptpubkey_address": "3FxuS83p49aMn6FrApMg8JvYguKbZW7qmN",
      "value": 1099981
    },
    {
      "scriptpubkey": "001450f00d50dbf319b287845ceb777f4b0d07750bdc",
      "scriptpubkey_asm": "OP_0 OP_PUSHBYTES_20 50f00d50dbf319b287845ceb777f4b0d07750bdc",
      "scriptpubkey_type": "v0_p2wpkh",
      "scriptpubkey_address": "bc1q2rcq65xm7vvm9puytn4hwl6tp5rh2z7uqe4r62",
      "value": 795157
    },
    {
      "scriptpubkey": "0014e5f3ba2e8d5993df84845119974971c1115ae7c9",
      "scriptpubkey_asm": "OP_0 OP_PUSHBYTES_20 e5f3ba2e8d5993df84845119974971c1115ae7c9",
      "scriptpubkey_type": "v0_p2wpkh",
      "scriptpubkey_address": "bc1quhem5t5dtxfalpyy2yvewjt3cyg44e7fq0p94w",
      "value": 1794814
    },
    {
      "scriptpubkey": "00144d78e51fa6dd0aef0c07bf07b995af91f6b14e75",
      "scriptpubkey_asm": "OP_0 OP_PUSHBYTES_20 4d78e51fa6dd0aef0c07bf07b995af91f6b14e75",
      "scriptpubkey_type": "v0_p2wpkh",
      "scriptpubkey_address": "bc1qf4uw28axm59w7rq8hurmn9d0j8mtznn4yr65lj",
      "value": 10244166
    },
    {
      "scriptpubkey": "0014eb5139009a5363f4abe331e3b697d7d38bd422e8",
      "scriptpubkey_asm": "OP_0 OP_PUSHBYTES_20 eb5139009a5363f4abe331e3b697d7d38bd422e8",
      "scriptpubkey_type": "v0_p2wpkh",
      "scriptpubkey_address": "bc1qadgnjqy62d3lf2lrx83md97h6w9agghgvel5y2",
      "value": 2189785
    },
    {
      "scriptpubkey": "76a914da328006dbe202d3ffcce75d53c2698a471b1dfc88ac",
      "scriptpubkey_asm": "OP_DUP OP_HASH160 OP_PUSHBYTES_20 da328006dbe202d3ffcce75d53c2698a471b1dfc OP_EQUALVERIFY OP_CHECKSIG",
      "scriptpubkey_type": "p2pkh",
      "scriptpubkey_address": "1LtiodQyaRkLdFp4gyhMU3J8a16ZFRt1Ro",
      "value": 168083
    },
    {
      "scriptpubkey": "0014f6c04dcff7841ae09537ec993ecd81cf361f33d3",
      "scriptpubkey_asm": "OP_0 OP_PUSHBYTES_20 f6c04dcff7841ae09537ec993ecd81cf361f33d3",
      "scriptpubkey_type": "v0_p2wpkh",
      "scriptpubkey_address": "bc1q7mqymnlhssdwp9fhajvnanvpeump7v7nkwmy00",
      "value": 1372283
    },
    {
      "scriptpubkey": "001429273d532583f33d4ba5edb91de07a9058ad57b3",
      "scriptpubkey_asm": "OP_0 OP_PUSHBYTES_20 29273d532583f33d4ba5edb91de07a9058ad57b3",
      "scriptpubkey_type": "v0_p2wpkh",
      "scriptpubkey_address": "bc1q9ynn65e9s0en6ja9aku3mcr6jpv264anpf374p",
      "value": 315528
    },
    {
      "scriptpubkey": "a9149edc9d67873ea2d469afa05ba5a8bf3ba8d56f6287",
      "scriptpubkey_asm": "OP_HASH160 OP_PUSHBYTES_20 9edc9d67873ea2d469afa05ba5a8bf3ba8d56f62 OP_EQUAL",
      "scriptpubkey_type": "p2sh",
      "scriptpubkey_address": "3GAzySbuhhwyx2NHLhXxPd9zDo2TQxa46P",
      "value": 1233603
    },
    {
      "scriptpubkey": "00143877cc298fc5b8a591e34982a91183bb35f0c242",
      "scriptpubkey_asm": "OP_0 OP_PUSHBYTES_20 3877cc298fc5b8a591e34982a91183bb35f0c242",
      "scriptpubkey_type": "v0_p2wpkh",
      "scriptpubkey_address": "bc1q8pmuc2v0cku2ty0rfxp2jyvrhv6lpsjzq9y6s8",
      "value": 134746803
    }
  ],
  "size": 694,
  "weight": 2446,
  "fee": 12240,
  "status": {
    "confirmed": true,
    "block_height": 834638,
    "block_hash": "000000000000000000025f742c626208ac87e0b7d15054abb4a19ca2d735a54e",
    "block_time": 1710405325
  },
  "hex": "02000000000101f2b251e9705e3eb3dec0cd3a831d3c4cc89b91140e50b6741e84640bab9c54d11200000000ffffffff1145060d0000000000160014035a6801b8d06a2d0f0c4b3dec2b3df8d2f0cc15a6a02800000000001600143cca851a62be5c6e3024e231aa12ce09a1b7892e9a890b0000000000160014aa14ab8026caadc7bb98aac37db98c0fa2ccae7f5a43070000000000160014258505ba9c54b4e76fe70c37728755b62d5720c5de57ee0b0000000017a914c910d2a04835bc3c7dab201276831245deeabf9287aff6120000000000160014a3e48390b6747e786d49df6573c1c1ece9b57282092c0600000000001600143ebabde457e89fb171f708270b9da51aef011db2cdc810000000000017a9149c92ffaede332374101104bde3f881bccf9450b78715220c000000000016001450f00d50dbf319b287845ceb777f4b0d07750bdcfe621b0000000000160014e5f3ba2e8d5993df84845119974971c1115ae7c946509c00000000001600144d78e51fa6dd0aef0c07bf07b995af91f6b14e75d969210000000000160014eb5139009a5363f4abe331e3b697d7d38bd422e893900200000000001976a914da328006dbe202d3ffcce75d53c2698a471b1dfc88ac7bf0140000000000160014f6c04dcff7841ae09537ec993ecd81cf361f33d388d004000000000016001429273d532583f33d4ba5edb91de07a9058ad57b3c3d212000000000017a9149edc9d67873ea2d469afa05ba5a8bf3ba8d56f6287b3120808000000001600143877cc298fc5b8a591e34982a91183bb35f0c24202483045022100deb202563da04b9ae78f6abe4dac98bb5ca146f759281ca20bf1c21a036b999302202c7feb1568318fcdd1636c8e616599616dcf0e55b6d873391a459f709262ded50121023e86a944b9cff6bea3e61d3594820cacbfb122b817934f981256b2bc4e6b850400000000"
}