{
  "txid": "56d1387678cea1bcce7fdf1881a392d138cef26161857e0fd80a5394f6ddab24",
  "version": 1,
  "locktime": 0,
  "vin": [
    {
      "txid": "70cb0d605f19bb6c80d447cea7b0ac4e7f3711d930e5aa58f6223a247d6e6089",
      "vout": 0,
      "prevout": {
        "scriptpubkey": "0014cae4070a2d4d8322fe66e2806e7c5c512dc53a17",
        "scriptpubkey_asm": "OP_0 OP_PUSHBYTES_20 cae4070a2d4d8322fe66e2806e7c5c512dc53a17",
        "scriptpubkey_type": "v0_p2wpkh",
        "scriptpubkey_address": "bc1qetjqwz3dfkpj9lnxu2qxulzu2yku2wshwndf35",
        "value": 5000
      },
      "scriptsig": "",
      "scriptsig_asm": "",
      "witness": [
        "304402203d30b8dd8fc4e2502e299993b11cbfb26c102d9894855833d281da8744f103a602205b3dd884c2c2b8bf07250068ba19500b158cfca5d4d4c203ff8393f8e1406aed01",
        "03e815da5259c8fda307904704af14b7b0c5a3b3f8872fb77b8fe6ebf0611bd809"
      ],
      "is_coinbase": false,
      "sequence": 4294967295
    },
    {
      "txid": "5be3adf89f2b6c3a0017c70e09f556959fd59a8f01236b75440a0ee92423380f",
      "vout": 0,
      "prevout": {
        "scriptpubkey": "0014593b11d552dc60574c09a035f30c9437d45d62a9",
        "scriptpubkey_asm": "OP_0 OP_PUSHBYTES_20 593b11d552dc60574c09a035f30c9437d45d62a9",
        "scriptpubkey_type": "v0_p2wpkh",
        "scriptpubkey_address": "bc1qtya3r42jm3s9wnqf5q6lxry5xl296c4fg2l40q",
        "value": 10000
      },
      "scriptsig": "",
      "scriptsig_asm": "",
      "witness": [
        "30440220423643356e6f8a796a914c1866dd89559f5346fcda5fb4b640e26df05c9a7c12022035e8f330a8138e85ed37c5557743fcc10ee6e18de60c2cf0b5d3fec298954d2c01",
        "0265ed3d2cba058930f79ec27b15a6cc658e36a3fea2ae75ef0ed5e1848914578f"
      ],
      "is_coinbase": false,
      "sequence": 4294967295
    },
    {
      "txid": "32c2e72a97b2e72a4c68cab87af60f8db91788636aa015791f39b116b418ba17",
      "vout": 0,
      "prevout": {
        "scriptpubkey": "00144dca67d42a46f8b8a65cc9d0a00e26bb67c970ef",
        "scriptpubkey_asm": "OP_0 OP_PUSHBYTES_20 4dca67d42a46f8b8a65cc9d0a00e26bb67c970ef",
        "scriptpubkey_type": "v0_p2wpkh",
        "scriptpubkey_address": "bc1qfh9x04p2gmut3fjue8g2qr3xhdnuju80rva677",
        "value": 17851
      },
      "scriptsig": "",
      "scriptsig_asm": "",
      "witness": [
        "3045022100f5b863051bc08ac2a08ea1ac7dddcbba647516431720ca717db97f76bce16bfa022059521f7cfc32c028c7f8337626daa505f553677208923a0b3236a90a0fb863c601",
        "02041f40aa37852c4321a2ceb0b5edd324f4d9e852d771781e3efc7cb3c1f4b1b2"
      ],
      "is_coinbase": false,
      "sequence": 4294967295
    },
    {
      "txid": "411756a9a507138297c645c383cd2bc76b7b150fa5f85cf4aa68aba5490c44d6",
      "vout": 12,
      "prevout": {
        "scriptpubkey": "00143b87237802791acccda77c06b6e2ffa0ecada3dd",
        "scriptpubkey_asm": "OP_0 OP_PUSHBYTES_20 3b87237802791acccda77c06b6e2ffa0ecada3dd",
        "scriptpubkey_type": "v0_p2wpkh",
        "scriptpubkey_address": "bc1q8wrjx7qz0ydvend80srtdchl5rk2mg7a0ee0qw",
        "value": 63546
      },
      "scriptsig": "",
      "scriptsig_asm": "",
      "witness": [
        "304402202ccfd8b5c7f3a9b8ad48908b06d94478ee10642563328b40db630e9ba48d6736022020fe6b37d69d491d38bf11dc730cec4bd303a1d8aa00cafd5f779d0e45fb2e4c01",
        "02d9b4df067b014a73b6303908261a7cc239dfb11fdb4622df7c4b86aeaebea5c3"
      ],
      "is_coinbase": false,
      "sequence": 4294967295
    }
  ],
  "vout": [
    {
      "scriptpubkey": "76a914ef5fe578b82333137cb1e63eb3aa97a941ec74fc88ac",
      "scriptpubkey_asm": "OP_DUP OP_HASH160 OP_PUSHBYTES_20 ef5fe578b82333137cb1e63eb3aa97a941ec74fc OP_EQUALVERIFY OP_CHECKSIG",
      "scriptpubkey_type": "p2pkh",
      "scriptpubkey_address": "1NphNqyDH4FjUa7Duj5MJZ6bxV1AceL3Xm",
      "value": 81660
    },
    {
      "scriptpubkey": "0014f38b65774914ea076e9a6963543d7d790d4693a3",
      "scriptpubkey_asm": "OP_0 OP_PUSHBYTES_20 f38b65774914ea076e9a6963543d7d790d4693a3",
      "scriptpubkey_type": "v0_p2wpkh",
      "scriptpubkey_address": "bc1q7w9k2a6fzn4qwm56d934g0ta0yx5dyarn9p8s9",
      "value": 9544
    }
  ],
  "size": 670,
  "weight": 1387,
  "fee": 5193,
  "status": {
    "confirmed": true,
    "block_height": 834638,
    "block_hash": "000000000000000000025f742c626208ac87e0b7d15054abb4a19ca2d735a54e",
    "block_time": 1710405325
  },
  "hex": "0100000000010489606e7d243a22f658aae530d911377f4eacb0a7ce47d4806cbb195f600dcb700000000000ffffffff0f382324e90e0a44756b23018f9ad59f9556f5090ec717003a6c2b9ff8ade35b0000000000ffffffff17ba18b416b1391f7915a06a638817b98d0ff67ab8ca684c2ae7b2972ae7c2320000000000ffffffffd6440c49a5ab68aaf45cf8a50f157b6bc72bcd83c345c697821307a5a95617410c00000000ffffffff02fc3e0100000000001976a914ef5fe578b82333137cb1e63eb3aa97a941ec74fc88ac4825000000000000160014f38b65774914ea076e9a6963543d7d790d4693a30247304402203d30b8dd8fc4e2502e299993b11cbfb26c102d9894855833d281da8744f103a602205b3dd884c2c2b8bf07250068ba19500b158cfca5d4d4c203ff8393f8e1406aed012103e815da5259c8fda307904704af14b7b0c5a3b3f8872fb77b8fe6ebf0611bd809024730440220423643356e6f8a796a914c1866dd89559f5346fcda5fb4b640e26df05c9a7c12022035e8f330a8138e85ed37c5557743fcc10ee6e18de60c2cf0b5d3fec298954d2c01210265ed3d2cba058930f79ec27b15a6cc658e36a3fea2ae75ef0ed5e1848914578f02483045022100f5b863051bc08ac2a08ea1ac7dddcbba647516431720ca717db97f76bce16bfa022059521f7cfc32c028c7f8337626daa505f553677208923a0b3236a90a0fb863c6012102041f40aa37852c4321a2ceb0b5edd324f4d9e852d771781e3efc7cb3c1f4b1b20247304402202ccfd8b5c7f3a9b8ad48908b06d94478ee10642563328b40db630e9ba48d6736022020fe6b37d69d491d38bf11dc730cec4bd303a1d8aa00cafd5f779d0e45fb2e4c012102d9b4df067b014a73b6303908261a7cc239dfb11fdb4622df7c4b86aeaebea5c300000000"
}