{
  "txid": "56d8516d7f1372b28a190e2ee63dd3a33f120accc85ef50f1ac5651e06bae72d",
  "version": 2,
  "locktime": 0,
  "vin": [
    {
      "txid": "1a67667f2350cf3e2f8d5c0065be1c9fb66c62f3c6a115e95f2dee815fa4e58f",
      "vout": 3,
      "prevout": {
        "scriptpubkey": "00149ac7551ddfdd2f14ab84d210dc01b91819fac37c",
        "scriptpubkey_asm": "OP_0 OP_PUSHBYTES_20 9ac7551ddfdd2f14ab84d210dc01b91819fac37c",
        "scriptpubkey_type": "v0_p2wpkh",
        "scriptpubkey_address": "bc1qntr428wlm5h3f2uy6ggdcqderqvl4smunt8rx6",
        "value": 235224
      },
      "scriptsig": "",
      "scriptsig_asm": "",
      "witness": [
        "304402203f5ce502fbf448a02cc8ffbfde703e28fe33163c57e33887eef30ba9c670ff4102206094c2030a87342105e1076f1c296a74fb4607d4a9684364fe4ded851eb8b1a101",
        "0303551edc8f6570bb6d1cac2a1f3275fc2434b3ae5c689b57755b1c4674fc3251"
      ],
      "is_coinbase": false,
      "sequence": 2147483649
    },
    {
      "txid": "00237a29733a5a5d70906098428f99364804971bc49e344378303da413a19304",
      "vout": 0,
      "prevout": {
        "scriptpubkey": "00149ac7551ddfdd2f14ab84d210dc01b91819fac37c",
        "scriptpubkey_asm": "OP_0 OP_PUSHBYTES_20 9ac7551ddfdd2f14ab84d210dc01b91819fac37c",
        "scriptpubkey_type": "v0_p2wpkh",
        "scriptpubkey_address": "bc1qntr428wlm5h3f2uy6ggdcqderqvl4smunt8rx6",
        "value": 547
      },
      "scriptsig": "",
      "scriptsig_asm": "",
      "witness": [
        "30450221008deef8a29bc68b272f17822026447d79e4fdebbe3ca06e5ce6b66fecac1a60ef02202fccace91fb43494105c293a9b5dd5acab854f1bf15af96253f36e63ecbb1b8001",
        "0303551edc8f6570bb6d1cac2a1f3275fc2434b3ae5c689b57755b1c4674fc3251"
      ],
      "is_coinbase": false,
      "sequence": 2147483649
    },
    {
      "txid": "5dbcb4d98bc86da84e02825c212ba982dd806a23aa7834ac33957e5dca843da5",
      "vout": 0,
      "prevout": {
        "scriptpubkey": "00149ac7551ddfdd2f14ab84d210dc01b91819fac37c",
        "scriptpubkey_asm": "OP_0 OP_PUSHBYTES_20 9ac7551ddfdd2f14ab84d210dc01b91819fac37c",
        "scriptpubkey_type": "v0_p2wpkh",
        "scriptpubkey_address": "bc1qntr428wlm5h3f2uy6ggdcqderqvl4smunt8rx6",
        "value": 547
      },
      "scriptsig": "",
      "scriptsig_asm": "",
      "witness": [
        "3045022100978ed4ed5d6e1d97575b146bfabee2c4172f3b0029b356993a28b5c318c75af302203dab4b571bee0b8da970fbb3057866935d0fb2915354669982c1bdaec072a23701",
        "0303551edc8f6570bb6d1cac2a1f3275fc2434b3ae5c689b57755b1c4674fc3251"
      ],
      "is_coinbase": false,
      "sequence": 2147483649
    },
    {
      "txid": "dfadf34077db356cd66f0e0b74844438e019351ddc009a83969a339f7e81526e",
      "vout": 0,
      "prevout": {
        "scriptpubkey": "00149ac7551ddfdd2f14ab84d210dc01b91819fac37c",
        "scriptpubkey_asm": "OP_0 OP_PUSHBYTES_20 9ac7551ddfdd2f14ab84d210dc01b91819fac37c",
        "scriptpubkey_type": "v0_p2wpkh",
        "scriptpubkey_address": "bc1qntr428wlm5h3f2uy6ggdcqderqvl4smunt8rx6",
        "value": 547
      },
      "scriptsig": "",
      "scriptsig_asm": "",
      "witness": [
        "30440220434ed2c3004ebda9cb27125c3e5034b16ee7be5afbe66e0294b49d2a779dcb8e0220426c52432e3bc9a8fc9887c848060cde8f8a6f16ec4a140040cea30d23783d7801",
        "0303551edc8f6570bb6d1cac2a1f3275fc2434b3ae5c689b57755b1c4674fc3251"
      ],
      "is_coinbase": false,
      "sequence": 2147483649
    },
    {
      "txid": "225125e81d7452d9e930030b7c3d3b8da3c7453ae4d7c0eab81d8813471b7623",
      "vout": 0,
      "prevout": {
        "scriptpubkey": "00149ac7551ddfdd2f14ab84d210dc01b91819fac37c",
        "scriptpubkey_asm": "OP_0 OP_PUSHBYTES_20 9ac7551ddfdd2f14ab84d210dc01b91819fac37c",
        "scriptpubkey_type": "v0_p2wpkh",
        "scriptpubkey_address": "bc1qntr428wlm5h3f2uy6ggdcqderqvl4smunt8rx6",
        "value": 547
      },
      "scriptsig": "",
      "scriptsig_asm": "",
      "witness": [
        "3045022100b22a6f0cad8af968e60b3b40acb144151718a9cd22b7491389934157ce026cc3022009d9f40ab30330bb46ca5c1ea8835b665d94a9884b815bf972061a9c12b6fc2a01",
        "0303551edc8f6570bb6d1cac2a1f3275fc2434b3ae5c689b57755b1c4674fc3251"
      ],
      "is_coinbase": false,
      "sequence": 2147483649
    },
    {
      "txid": "53adab4972f8e714e2b72d97b41902158d8e41c9f4ce01161e47d1c1faa47bf7",
      "vout": 0,
      "prevout": {
        "scriptpubkey": "00149ac7551ddfdd2f14ab84d210dc01b91819fac37c",
        "scriptpubkey_asm": "OP_0 OP_PUSHBYTES_20 9ac7551ddfdd2f14ab84d210dc01b91819fac37c",
        "scriptpubkey_type": "v0_p2wpkh",
        "scriptpubkey_address": "bc1qntr428wlm5h3f2uy6ggdcqderqvl4smunt8rx6",
        "value": 547
      },
      "scriptsig": "",
      "scriptsig_asm": "",
      "witness": [
        "30440220708c87c614801c814c49ca674567c7d6a6d273dd9c6a1d1b46c90c6ffcb594e702204bbffface1124829c31bc5aab5138113ed66fe19d9a6ec5d257ad66bb6ced67501",
        "0303551edc8f6570bb6d1cac2a1f3275fc2434b3ae5c689b57755b1c4674fc3251"
      ],
      "is_coinbase": false,
      "sequence": 2147483649
    },
    {
      "txid": "c0b08cf0f845f47df8441ee9e006c5c800cd685830cdf9f67caf6f46acc8ecf6",
      "vout": 0,
      "prevout": {
        "scriptpubkey": "00149ac7551ddfdd2f14ab84d210dc01b91819fac37c",
        "scriptpubkey_asm": "OP_0 OP_PUSHBYTES_20 9ac7551ddfdd2f14ab84d210dc01b91819fac37c",
        "scriptpubkey_type": "v0_p2wpkh",
        "scriptpubkey_address": "bc1qntr428wlm5h3f2uy6ggdcqderqvl4smunt8rx6",
        "value": 547
      },
      "scriptsig": "",
      "scriptsig_asm": "",
      "witness": [
        "304402203f9629f956e4122d62f03421a8782ba7967ff1ffecc024f179dfaedbebf2467502202118f6d93326fe84b25ee7d972c80114c84fc878f04abfda0abaf5be454254e101",
        "0303551edc8f6570bb6d1cac2a1f3275fc2434b3ae5c689b57755b1c4674fc3251"
      ],
      "is_coinbase": false,
      "sequence": 2147483649
    },
    {
      "txid": "caf5fe07f474c52d81f3baea9a725db4981f11c2e28501f477c0b72f7dad5586",
      "vout": 0,
      "prevout": {
        "scriptpubkey": "00149ac7551ddfdd2f14ab84d210dc01b91819fac37c",
        "scriptpubkey_asm": "OP_0 OP_PUSHBYTES_20 9ac7551ddfdd2f14ab84d210dc01b91819fac37c",
        "scriptpubkey_type": "v0_p2wpkh",
        "scriptpubkey_address": "bc1qntr428wlm5h3f2uy6ggdcqderqvl4smunt8rx6",
        "value": 547
      },
      "scriptsig": "",
      "scriptsig_asm": "",
      "witness": [
        "3045022100d71fe18f4b76eb9937854bc5666f1fd30e83200f5fd5968f4f1bb00f9072d6dd02206d60d14cebefed8b8562799548343811e28c65fe7d488a00a376fd32e2a35a0101",
        "0303551edc8f6570bb6d1cac2a1f3275fc2434b3ae5c689b57755b1c4674fc3251"
      ],
      "is_coinbase": false,
      "sequence": 2147483649
    },
    {
      "txid": "84428d72bf5986df2c26fe4d2b86b968313e66f93646c39b91d1c1e715aa31fc",
      "vout": 0,
      "prevout": {
        "scriptpubkey": "00149ac7551ddfdd2f14ab84d210dc01b91819fac37c",
        "scriptpubkey_asm": "OP_0 OP_PUSHBYTES_20 9ac7551ddfdd2f14ab84d210dc01b91819fac37c",
        "scriptpubkey_type": "v0_p2wpkh",
        "scriptpubkey_address": "bc1qntr428wlm5h3f2uy6ggdcqderqvl4smunt8rx6",
        "value": 547
      },
      "scriptsig": "",
      "scriptsig_asm": "",
      "witness": [
        "30440220484f7ee00e23a0a94a8daa67f6e1d943e82b006056c126cc497e38ec2f0298e1022056e2150138911d106f517eb013e76abcc55980da1cd2fa08b8fbca67a899f82f01",
        "0303551edc8f6570bb6d1cac2a1f3275fc2434b3ae5c689b57755b1c4674fc3251"
      ],
      "is_coinbase": false,
      "sequence": 2147483649
    },
    {
      "txid": "0841c4cd591969045a05d043047af7e9d0e52cfc6cff039489ad2531dcb7bf86",
      "vout": 0,
      "prevout": {
        "scriptpubkey": "00149ac7551ddfdd2f14ab84d210dc01b91819fac37c",
        "scriptpubkey_asm": "OP_0 OP_PUSHBYTES_20 9ac7551ddfdd2f14ab84d210dc01b91819fac37c",
        "scriptpubkey_type": "v0_p2wpkh",
        "scriptpubkey_address": "bc1qntr428wlm5h3f2uy6ggdcqderqvl4smunt8rx6",
        "value": 547
      },
      "scriptsig": "",
      "scriptsig_asm": "",
      "witness": [
        "304402204889f5b744f4f70645e5deccfe67557cb723024d3aef2292346f4dc8810ad480022007137b37ca7c35f5c2375cd7865fad8678e6c021460b0543642ba0c227adab4001",
        "0303551edc8f6570bb6d1cac2a1f3275fc2434b3ae5c689b57755b1c4674fc3251"
      ],
      "is_coinbase": false,
      "sequence": 2147483649
    },
    {
      "txid": "12ed064fac90e756be8bcf609b357488beb34ba9b1d6dd632693afa8b471c79e",
      "vout": 0,
      "prevout": {
        "scriptpubkey": "00149ac7551ddfdd2f14ab84d210dc01b91819fac37c",
        "scriptpubkey_asm": "OP_0 OP_PUSHBYTES_20 9ac7551ddfdd2f14ab84d210dc01b91819fac37c",
        "scriptpubkey_type": "v0_p2wpkh",
        "scriptpubkey_address": "bc1qntr428wlm5h3f2uy6ggdcqderqvl4smunt8rx6",
        "value": 547
      },
      "scriptsig": "",
      "scriptsig_asm": "",
      "witness": [
        "3045022100e3c087ba93e90221a9057bfcf988ddf2da96ed485a62b185671ea7db6e17b3a4022067d456a5c6e784aad31d93850d26a382a975cdf83d6ba3ec8a5d7c1607d2e58801",
        "0303551edc8f6570bb6d1cac2a1f3275fc2434b3ae5c689b57755b1c4674fc3251"
      ],
      "is_coinbase": false,
      "sequence": 2147483649
    },
    {
      "txid": "fcd9ab8328fbd4df33aef589a855b1784f1f4b27d8a789807a08fae84aafeb84",
      "vout": 0,
      "prevout": {
        "scriptpubkey": "00149ac7551ddfdd2f14ab84d210dc01b91819fac37c",
        "scriptpubkey_asm": "OP_0 OP_PUSHBYTES_20 9ac7551ddfdd2f14ab84d210dc01b91819fac37c",
        "scriptpubkey_type": "v0_p2wpkh",
        "scriptpubkey_address": "bc1qntr428wlm5h3f2uy6ggdcqderqvl4smunt8rx6",
        "value": 547
      },
      "scriptsig": "",
      "scriptsig_asm": "",
      "witness": [
        "3045022100c510e67062ba5ed751774f9728e4407ad392e8e51da7e1d831d58810338b2b7e022073f5d249dac89706f98c7d3dc24cc5d320705a2208ab5498a080b763e8506fc701",
        "0303551edc8f6570bb6d1cac2a1f3275fc2434b3ae5c689b57755b1c4674fc3251"
      ],
      "is_coinbase": false,
      "sequence": 2147483649
    }
  ],
  "vout": [
    {
      "scriptpubkey": "0014f7fe66067d430d49c194f79d3f1961c1e0bdcb4f",
      "scriptpubkey_asm": "OP_0 OP_PUSHBYTES_20 f7fe66067d430d49c194f79d3f1961c1e0bdcb4f",
      "scriptpubkey_type": "v0_p2wpkh",
      "scriptpubkey_address": "bc1q7llxvpnagvx5nsv577wn7xtpc8stmj603rqmvk",
      "value": 226689
    }
  ],
  "size": 1825,
  "weight": 3424,
  "fee": 14552,
  "status": {
    "confirmed": true,
    "block_height": 834638,
    "block_hash": "000000000000000000025f742c626208ac87e0b7d15054abb4a19ca2d735a54e",
    "block_time": 1710405325
  },
  "hex": "0200000000010c8fe5a45f81ee2d5fe915a1c6f3626cb69f1cbe65005c8d2f3ecf50237f66671a0300000000010000800493a113a43d307843349ec41b97044836998f42986090705d5a3a73297a2300000000000001000080a53d84ca5d7e9533ac3478aa236a80dd82a92b215c82024ea86dc88bd9b4bc5d0000000000010000806e52817e9f339a96839a00dc1d3519e0384484740b0e6fd66c35db7740f3addf00000000000100008023761b4713881db8eac0d7e43a45c7a38d3b3d7c0b0330e9d952741de8255122000000000001000080f77ba4fac1d1471e1601cef4c9418e8d150219b4972db7e214e7f87249abad53000000000001000080f6ecc8ac466faf7cf6f9cd305868cd00c8c506e0e91e44f87df445f8f08cb0c00000000000010000808655ad7d2fb7c077f40185e2c2111f98b45d729aeabaf3812dc574f407fef5ca000000000001000080fc31aa15e7c1d1919bc34636f9663e3168b9862b4dfe262cdf8659bf728d428400000000000100008086bfb7dc3125ad899403ff6cfc2ce5d0e9f77a0443d0055a04691959cdc441080000000000010000809ec771b4a8af932663ddd6b1a94bb3be8874359b60cf8bbe56e790ac4f06ed1200000000000100008084ebaf4ae8fa087a8089a7d8274b1f4f78b155a889f5ae33dfd4fb2883abd9fc000000000001000080018175030000000000160014f7fe66067d430d49c194f79d3f1961c1e0bdcb4f0247304402203f5ce502fbf448a02cc8ffbfde703e28fe33163c57e33887eef30ba9c670ff4102206094c2030a87342105e1076f1c296a74fb4607d4a9684364fe4ded851eb8b1a101210303551edc8f6570bb6d1cac2a1f3275fc2434b3ae5c689b57755b1c4674fc3251024830450221008deef8a29bc68b272f17822026447d79e4fdebbe3ca06e5ce6b66fecac1a60ef02202fccace91fb43494105c293a9b5dd5acab854f1bf15af96253f36e63ecbb1b8001210303551edc8f6570bb6d1cac2a1f3275fc2434b3ae5c689b57755b1c4674fc325102483045022100978ed4ed5d6e1d97575b146bfabee2c4172f3b0029b356993a28b5c318c75af302203dab4b571bee0b8da970fbb3057866935d0fb2915354669982c1bdaec072a23701210303551edc8f6570bb6d1cac2a1f3275fc2434b3ae5c689b57755b1c4674fc3251024730440220434ed2c3004ebda9cb27125c3e5034b16ee7be5afbe66e0294b49d2a779dcb8e0220426c52432e3bc9a8fc9887c848060cde8f8a6f16ec4a140040cea30d23783d7801210303551edc8f6570bb6d1cac2a1f3275fc2434b3ae5c689b57755b1c4674fc325102483045022100b22a6f0cad8af968e60b3b40acb144151718a9cd22b7491389934157ce026cc3022009d9f40ab30330bb46ca5c1ea8835b665d94a9884b815bf972061a9c12b6fc2a01210303551edc8f6570bb6d1cac2a1f3275fc2434b3ae5c689b57755b1c4674fc3251024730440220708c87c614801c814c49ca674567c7d6a6d273dd9c6a1d1b46c90c6ffcb594e702204bbffface1124829c31bc5aab5138113ed66fe19d9a6ec5d257ad66bb6ced67501210303551edc8f6570bb6d1cac2a1f3275fc2434b3ae5c689b57755b1c4674fc32510247304402203f9629f956e4122d62f03421a8782ba7967ff1ffecc024f179dfaedbebf2467502202118f6d93326fe84b25ee7d972c80114c84fc878f04abfda0abaf5be454254e101210303551edc8f6570bb6d1cac2a1f3275fc2434b3ae5c689b57755b1c4674fc325102483045022100d71fe18f4b76eb9937854bc5666f1fd30e83200f5fd5968f4f1bb00f9072d6dd02206d60d14cebefed8b8562799548343811e28c65fe7d488a00a376fd32e2a35a0101210303551edc8f6570bb6d1cac2a1f3275fc2434b3ae5c689b57755b1c4674fc3251024730440220484f7ee00e23a0a94a8daa67f6e1d943e82b006056c126cc497e38ec2f0298e1022056e2150138911d106f517eb013e76abcc55980da1cd2fa08b8fbca67a899f82f01210303551edc8f6570bb6d1cac2a1f3275fc2434b3ae5c689b57755b1c4674fc32510247304402204889f5b744f4f70645e5deccfe67557cb723024d3aef2292346f4dc8810ad480022007137b37ca7c35f5c2375cd7865fad8678e6c021460b0543642ba0c227adab4001210303551edc8f6570bb6d1cac2a1f3275fc2434b3ae5c689b57755b1c4674fc325102483045022100e3c087ba93e90221a9057bfcf988ddf2da96ed485a62b185671ea7db6e17b3a4022067d456a5c6e784aad31d93850d26a382a975cdf83d6ba3ec8a5d7c1607d2e58801210303551edc8f6570bb6d1cac2a1f3275fc2434b3ae5c689b57755b1c4674fc325102483045022100c510e67062ba5ed751774f9728e4407ad392e8e51da7e1d831d58810338b2b7e022073f5d249dac89706f98c7d3dc24cc5d320705a2208ab5498a080b763e8506fc701210303551edc8f6570bb6d1cac2a1f3275fc2434b3ae5c689b57755b1c4674fc325100000000"
}