{
  "txid": "56da27bdb53127a5196a056791ea6b8b52966912940d63c23cc0520b2d7ed4ef",
  "version": 2,
  "locktime": 0,
  "vin": [
    {
      "txid": "d187677a8eea4c2fe4a72076fda25e33f1a100d3e29de00cb1453432dc625ff8",
      "vout": 3,
      "prevout": {
        "scriptpubkey": "5120cb7d7889325dec00c6a6b647826cdc0af8789ce4ad28377d171b265b71d41c54",
        "scriptpubkey_asm": "OP_PUSHNUM_1 OP_PUSHBYTES_32 cb7d7889325dec00c6a6b647826cdc0af8789ce4ad28377d171b265b71d41c54",
        "scriptpubkey_type": "v1_p2tr",
        "scriptpubkey_address": "bc1ped7h3zfjthkqp34xkercymxuptu8388y455rwlghrvn9kuw5r32qdcc9s9",
        "value": 600
      },
      "scriptsig": "",
      "scriptsig_asm": "",
      "witness": [
        "876457bd2e1368d131d7070e4f46d779d110876f00a819f1fa21e24bad2b47d779561054b464c21379f6bfc5e263082fd841e7afdac72c35af5c272acf4368c1"
      ],
      "is_coinbase": false,
      "sequence": 4294967295
    },
    {
      "txid": "d187677a8eea4c2fe4a72076fda25e33f1a100d3e29de00cb1453432dc625ff8",
      "vout": 4,
      "prevout": {
        "scriptpubkey": "5120cb7d7889325dec00c6a6b647826cdc0af8789ce4ad28377d171b265b71d41c54",
        "scriptpubkey_asm": "OP_PUSHNUM_1 OP_PUSHBYTES_32 cb7d7889325dec00c6a6b647826cdc0af8789ce4ad28377d171b265b71d41c54",
        "scriptpubkey_type": "v1_p2tr",
        "scriptpubkey_address": "bc1ped7h3zfjthkqp34xkercymxuptu8388y455rwlghrvn9kuw5r32qdcc9s9",
        "value": 600
      },
      "scriptsig": "",
      "scriptsig_asm": "",
      "witness": [
        "8ebf9b15c7b68e831b8287a443a66dd04e663a8e9c48a852f2da426b8b1f5ed998830448f2b8416f4f3be35da8c41ce8baf0586090d1dd73f3b3dc8b5d24a92d"
      ],
      "is_coinbase": false,
      "sequence": 4294967295
    },
    {
      "txid": "0ae4856d2205dedb00636ae3c3001efc2a3428fc0246954abacf3b8bd01b5461",
      "vout": 0,
      "prevout": {
        "scriptpubkey": "512090c0a2f51fc1584de3bd68a3236ee560e3e1bdf8f038a08847ec0059f8045227",
        "scriptpubkey_asm": "OP_PUSHNUM_1 OP_PUSHBYTES_32 90c0a2f51fc1584de3bd68a3236ee560e3e1bdf8f038a08847ec0059f8045227",
        "scriptpubkey_type": "v1_p2tr",
        "scriptpubkey_address": "bc1pjrq29aglc9vymcaadz3jxmh9vr37r00c7qu2pzz8asq9n7qy2gns66l7q2",
        "value": 546
      },
      "scriptsig": "",
      "scriptsig_asm": "",
      "witness": [
        "4d0763df871ca7d6bc6f5e3ee54f49ff26f99080d2b55c02b31069b6c00ae70b0a8bc48af4e937a0551eba899ba668c22559bbd5f8dc5bd43a2a76e3d6688ae983"
      ],
      "is_coinbase": false,
      "sequence": 4294967295
    },
    {
      "txid": "8530c10658eb9a89fe7e643c562494dd6257b7f1433091b8eda3d7a4a0c69d3b",
      "vout": 2,
      "prevout": {
        "scriptpubkey": "5120cb7d7889325dec00c6a6b647826cdc0af8789ce4ad28377d171b265b71d41c54",
        "scriptpubkey_asm": "OP_PUSHNUM_1 OP_PUSHBYTES_32 cb7d7889325dec00c6a6b647826cdc0af8789ce4ad28377d171b265b71d41c54",
        "scriptpubkey_type": "v1_p2tr",
        "scriptpubkey_address": "bc1ped7h3zfjthkqp34xkercymxuptu8388y455rwlghrvn9kuw5r32qdcc9s9",
        "value": 5600000
      },
      "scriptsig": "",
      "scriptsig_asm": "",
      "witness": [
        "dda023f426ab6e4a170eb0f6106937963f441579314b3d640c256fb191f340b30620ce1fb27a2e1f8ed1fb961b0589997caa7c404806f831dacef1fa0e6e2e87"
      ],
      "is_coinbase": false,
      "sequence": 4294967295
    },
    {
      "txid": "2a44094d83d082156f61fe6a1c61b7b84b03b11859a1514e251d16edd5fdd8dc",
      "vout": 1,
      "prevout": {
        "scriptpubkey": "5120cb7d7889325dec00c6a6b647826cdc0af8789ce4ad28377d171b265b71d41c54",
        "scriptpubkey_asm": "OP_PUSHNUM_1 OP_PUSHBYTES_32 cb7d7889325dec00c6a6b647826cdc0af8789ce4ad28377d171b265b71d41c54",
        "scriptpubkey_type": "v1_p2tr",
        "scriptpubkey_address": "bc1ped7h3zfjthkqp34xkercymxuptu8388y455rwlghrvn9kuw5r32qdcc9s9",
        "value": 211274
      },
      "scriptsig": "",
      "scriptsig_asm": "",
      "witness": [
        "37c578dcef691354b095027ab300f7aa22650a6869353d57407a625f56cbbe7dfb9377e1ebcd35a0feb4d822c46f0c9f007ad3913164465ea58b7c218280050a"
      ],
      "is_coinbase": false,
      "sequence": 4294967295
    }
  ],
  "vout": [
    {
      "scriptpubkey": "5120cb7d7889325dec00c6a6b647826cdc0af8789ce4ad28377d171b265b71d41c54",
      "scriptpubkey_asm": "OP_PUSHNUM_1 OP_PUSHBYTES_32 cb7d7889325dec00c6a6b647826cdc0af8789ce4ad28377d171b265b71d41c54",
      "scriptpubkey_type": "v1_p2tr",
      "scriptpubkey_address": "bc1ped7h3zfjthkqp34xkercymxuptu8388y455rwlghrvn9kuw5r32qdcc9s9",
      "value": 1200
    },
    {
      "scriptpubkey": "5120cb7d7889325dec00c6a6b647826cdc0af8789ce4ad28377d171b265b71d41c54",
      "scriptpubkey_asm": "OP_PUSHNUM_1 OP_PUSHBYTES_32 cb7d7889325dec00c6a6b647826cdc0af8789ce4ad28377d171b265b71d41c54",
      "scriptpubkey_type": "v1_p2tr",
      "scriptpubkey_address": "bc1ped7h3zfjthkqp34xkercymxuptu8388y455rwlghrvn9kuw5r32qdcc9s9",
      "value": 546
    },
    {
      "scriptpubkey": "512090c0a2f51fc1584de3bd68a3236ee560e3e1bdf8f038a08847ec0059f8045227",
      "scriptpubkey_asm": "OP_PUSHNUM_1 OP_PUSHBYTES_32 90c0a2f51fc1584de3bd68a3236ee560e3e1bdf8f038a08847ec0059f8045227",
      "scriptpubkey_type": "v1_p2tr",
      "scriptpubkey_address": "bc1pjrq29aglc9vymcaadz3jxmh9vr37r00c7qu2pzz8asq9n7qy2gns66l7q2",
      "value": 5600000
    },
    {
      "scriptpubkey": "5120cb7d7889325dec00c6a6b647826cdc0af8789ce4ad28377d171b265b71d41c54",
      "scriptpubkey_asm": "OP_PUSHNUM_1 OP_PUSHBYTES_32 cb7d7889325dec00c6a6b647826cdc0af8789ce4ad28377d171b265b71d41c54",
      "scriptpubkey_type": "v1_p2tr",
      "scriptpubkey_address": "bc1ped7h3zfjthkqp34xkercymxuptu8388y455rwlghrvn9kuw5r32qdcc9s9",
      "value": 600
    },
    {
      "scriptpubkey": "5120cb7d7889325dec00c6a6b647826cdc0af8789ce4ad28377d171b265b71d41c54",
      "scriptpubkey_asm": "OP_PUSHNUM_1 OP_PUSHBYTES_32 cb7d7889325dec00c6a6b647826cdc0af8789ce4ad28377d171b265b71d41c54",
      "scriptpubkey_type": "v1_p2tr",
      "scriptpubkey_address": "bc1ped7h3zfjthkqp34xkercymxuptu8388y455rwlghrvn9kuw5r32qdcc9s9",
      "value": 600
    },
    {
      "scriptpubkey": "5120cb7d7889325dec00c6a6b647826cdc0af8789ce4ad28377d171b265b71d41c54",
      "scriptpubkey_asm": "OP_PUSHNUM_1 OP_PUSHBYTES_32 cb7d7889325dec00c6a6b647826cdc0af8789ce4ad28377d171b265b71d41c54",
      "scriptpubkey_type": "v1_p2tr",
      "scriptpubkey_address": "bc1ped7h3zfjthkqp34xkercymxuptu8388y455rwlghrvn9kuw5r32qdcc9s9",
      "value": 200605
    }
  ],
  "size": 806,
  "weight": 2225,
  "fee": 9469,
  "status": {
    "confirmed": true,
    "block_height": 834638,
    "block_hash": "000000000000000000025f742c626208ac87e0b7d15054abb4a19ca2d735a54e",
    "block_time": 1710405325
  },
  "hex": "02000000000105f85f62dc323445b10ce09de2d300a1f1335ea2fd7620a7e42f4cea8e7a6787d10300000000fffffffff85f62dc323445b10ce09de2d300a1f1335ea2fd7620a7e42f4cea8e7a6787d10400000000ffffffff61541bd08b3bcfba4a954602fc28342afc1e00c3e36a6300dbde05226d85e40a0000000000ffffffff3b9dc6a0a4d7a3edb8913043f1b75762dd9424563c647efe899aeb5806c130850200000000ffffffffdcd8fdd5ed161d254e51a15918b1034bb8b7611c6afe616f1582d0834d09442a0100000000ffffffff06b004000000000000225120cb7d7889325dec00c6a6b647826cdc0af8789ce4ad28377d171b265b71d41c542202000000000000225120cb7d7889325dec00c6a6b647826cdc0af8789ce4ad28377d171b265b71d41c54007355000000000022512090c0a2f51fc1584de3bd68a3236ee560e3e1bdf8f038a08847ec0059f80452275802000000000000225120cb7d7889325dec00c6a6b647826cdc0af8789ce4ad28377d171b265b71d41c545802000000000000225120cb7d7889325dec00c6a6b647826cdc0af8789ce4ad28377d171b265b71d41c549d0f030000000000225120cb7d7889325dec00c6a6b647826cdc0af8789ce4ad28377d171b265b71d41c540140876457bd2e1368d131d7070e4f46d779d110876f00a819f1fa21e24bad2b47d779561054b464c21379f6bfc5e263082fd841e7afdac72c35af5c272acf4368c101408ebf9b15c7b68e831b8287a443a66dd04e663a8e9c48a852f2da426b8b1f5ed998830448f2b8416f4f3be35da8c41ce8baf0586090d1dd73f3b3dc8b5d24a92d01414d0763df871ca7d6bc6f5e3ee54f49ff26f99080d2b55c02b31069b6c00ae70b0a8bc48af4e937a0551eba899ba668c22559bbd5f8dc5bd43a2a76e3d6688ae9830140dda023f426ab6e4a170eb0f6106937963f441579314b3d640c256fb191f340b30620ce1fb27a2e1f8ed1fb961b0589997caa7c404806f831dacef1fa0e6e2e87014037c578dcef691354b095027ab300f7aa22650a6869353d57407a625f56cbbe7dfb9377e1ebcd35a0feb4d822c46f0c9f007ad3913164465ea58b7c218280050a00000000"
}