{
  "txid": "56e1cb2c0df95384a7077ecd6cfcd896a2fda34f4c65cfc080ef4669b69ebdb3",
  "version": 2,
  "locktime": 0,
  "vin": [
    {
      "txid": "5f846d283984d01eb9829d816f88218abd33effc15a08222518615da3e5f47c5",
      "vout": 7,
      "prevout": {
        "scriptpubkey": "5120a681cf58565bc671f3cca227fe8c949126c3f900b3d2abc19fefd4142fa5eaf7",
        "scriptpubkey_asm": "OP_PUSHNUM_1 OP_PUSHBYTES_32 a681cf58565bc671f3cca227fe8c949126c3f900b3d2abc19fefd4142fa5eaf7",
        "scriptpubkey_type": "v1_p2tr",
        "scriptpubkey_address": "bc1p56qu7kzkt0r8ru7v5gnlary5jynv87gqk0f2hsvlal2pgta9atms5h7kp5",
        "value": 2862
      },
      "scriptsig": "",
      "scriptsig_asm": "",
      "witness": [
        "d2cc31f9c619c6c2c715e60a248371e38aa1056552de8455d2a03ad6fd1e1c6b2bd00faeea568ebfdcbbfe3901f267dfee0e9b5eda17ce90c5d8400a0a4ff839",
        "208a05b824b36c77426171ca14fbef2894c30c34acfc2ac3f21688e6055f8d776fac0063036f726401011e6170706c69636174696f6e2f6a736f6e3b636861727365743d7574662d38004cd37b2270223a22706f772d3230222c226f70223a226d696e74222c227469636b223a2250455045222c22616d74223a2231303030222c22736f6c7574696f6e223a22504550453a626331706d6c3973653572666b6c3076393075786c7972667871717a366c34797364637172647371683735656c727133396676647164777139777276736e3a303030303030303030303030303030303030303139393431613561653132383937363539383134343239323533333030353762306461393666336465613163353a3137303830363235333933227d68",
        "c13beca27a4fc825f712a8ee0e92a93b2e9ce7496e1e1c5bfb1b103e51f3be77b5"
      ],
      "is_coinbase": false,
      "sequence": 4294967295
    }
  ],
  "vout": [
    {
      "scriptpubkey": "5120dfcb0cd069b7dec2bf86f906930002d7ea4837001b600bfa99f8c112a58d035c",
      "scriptpubkey_asm": "OP_PUSHNUM_1 OP_PUSHBYTES_32 dfcb0cd069b7dec2bf86f906930002d7ea4837001b600bfa99f8c112a58d035c",
      "scriptpubkey_type": "v1_p2tr",
      "scriptpubkey_address": "bc1pml9se5rfkl0v90uxlyrfxqqz6l4ysdcqrdsqh75elrq39fvdqdwq9wrvsn",
      "value": 546
    }
  ],
  "size": 487,
  "weight": 769,
  "fee": 2316,
  "status": {
    "confirmed": true,
    "block_height": 834460,
    "block_hash": "00000000000000000000484a79b643b2524bbce82e5d8a442013fa5b8905ed98",
    "block_time": 1710307468
  },
  "hex": "02000000000101c5475f3eda1586512282a015fcef33bd8a21886f819d82b91ed08439286d845f0700000000ffffffff012202000000000000225120dfcb0cd069b7dec2bf86f906930002d7ea4837001b600bfa99f8c112a58d035c0340d2cc31f9c619c6c2c715e60a248371e38aa1056552de8455d2a03ad6fd1e1c6b2bd00faeea568ebfdcbbfe3901f267dfee0e9b5eda17ce90c5d8400a0a4ff839fd2001208a05b824b36c77426171ca14fbef2894c30c34acfc2ac3f21688e6055f8d776fac0063036f726401011e6170706c69636174696f6e2f6a736f6e3b636861727365743d7574662d38004cd37b2270223a22706f772d3230222c226f70223a226d696e74222c227469636b223a2250455045222c22616d74223a2231303030222c22736f6c7574696f6e223a22504550453a626331706d6c3973653572666b6c3076393075786c7972667871717a366c34797364637172647371683735656c727133396676647164777139777276736e3a303030303030303030303030303030303030303139393431613561653132383937363539383134343239323533333030353762306461393666336465613163353a3137303830363235333933227d6821c13beca27a4fc825f712a8ee0e92a93b2e9ce7496e1e1c5bfb1b103e51f3be77b500000000"
}