{
  "txid": "5703f125fa6433551d31d1d01bba8ea5694b3ef9a9633f793b7f258cf54ee307",
  "version": 2,
  "locktime": 0,
  "vin": [
    {
      "txid": "cc74c8d46100773dc95f97e33ba4eeed3a44e8ecfbb25e46127f5ee91cdac33a",
      "vout": 4,
      "prevout": {
        "scriptpubkey": "5120657a447d986732e6e705e5f41f0c1f9c148f683db3f477f920fe27a16a8a6c8e",
        "scriptpubkey_asm": "OP_PUSHNUM_1 OP_PUSHBYTES_32 657a447d986732e6e705e5f41f0c1f9c148f683db3f477f920fe27a16a8a6c8e",
        "scriptpubkey_type": "v1_p2tr",
        "scriptpubkey_address": "bc1pv4ayglvcvuewdec9uh6p7rqlns2g76pak06807fqlcn6z652dj8qxrcs0m",
        "value": 600
      },
      "scriptsig": "",
      "scriptsig_asm": "",
      "witness": [
        "01ef94cf23b146105100f32f7d49cf2d0b8d09354ee41d25327a004637592df2fb45f78cc50d8c91778b0ab7a1e447576350cd62112b039d6bbf802a3b227ece"
      ],
      "is_coinbase": false,
      "sequence": 4294967295
    },
    {
      "txid": "cc74c8d46100773dc95f97e33ba4eeed3a44e8ecfbb25e46127f5ee91cdac33a",
      "vout": 5,
      "prevout": {
        "scriptpubkey": "5120657a447d986732e6e705e5f41f0c1f9c148f683db3f477f920fe27a16a8a6c8e",
        "scriptpubkey_asm": "OP_PUSHNUM_1 OP_PUSHBYTES_32 657a447d986732e6e705e5f41f0c1f9c148f683db3f477f920fe27a16a8a6c8e",
        "scriptpubkey_type": "v1_p2tr",
        "scriptpubkey_address": "bc1pv4ayglvcvuewdec9uh6p7rqlns2g76pak06807fqlcn6z652dj8qxrcs0m",
        "value": 600
      },
      "scriptsig": "",
      "scriptsig_asm": "",
      "witness": [
        "763de4d5d951e4f7d1ff14b4bfcd5e660e99fd1095f22c0f534fbf1899c809c1afdb098b8f0fa2a75b3560c5cf019598b1b691d4ec24b9b57e4a75d48eb9ecda"
      ],
      "is_coinbase": false,
      "sequence": 4294967295
    },
    {
      "txid": "d5d665922d152df6624baaf7cfac203733108518d01d055dba53bed88c30a721",
      "vout": 0,
      "prevout": {
        "scriptpubkey": "51206a18f03e3961e4049dbd9377549d67168c1b8d90843236b73e7ba980c184187d",
        "scriptpubkey_asm": "OP_PUSHNUM_1 OP_PUSHBYTES_32 6a18f03e3961e4049dbd9377549d67168c1b8d90843236b73e7ba980c184187d",
        "scriptpubkey_type": "v1_p2tr",
        "scriptpubkey_address": "bc1pdgv0q03ev8jqf8dajdm4f8t8z6xphrvssserdde70w5cpsvyrp7skfkjmm",
        "value": 1000
      },
      "scriptsig": "",
      "scriptsig_asm": "",
      "witness": [
        "3b3d081e0462c23129e5c095a9cfc3399dd2c83bd15fcbf027a3b2b34a16299ceb983f39ca54b7519511b528c9a298fde59a954d8d1497b8f495c4b46c58b8e283"
      ],
      "is_coinbase": false,
      "sequence": 4294967295
    },
    {
      "txid": "2dc24214f7bd00bf8949ca36dac389fdc6f44ac4e2ab2cb6a2b6974efaebde80",
      "vout": 1,
      "prevout": {
        "scriptpubkey": "5120657a447d986732e6e705e5f41f0c1f9c148f683db3f477f920fe27a16a8a6c8e",
        "scriptpubkey_asm": "OP_PUSHNUM_1 OP_PUSHBYTES_32 657a447d986732e6e705e5f41f0c1f9c148f683db3f477f920fe27a16a8a6c8e",
        "scriptpubkey_type": "v1_p2tr",
        "scriptpubkey_address": "bc1pv4ayglvcvuewdec9uh6p7rqlns2g76pak06807fqlcn6z652dj8qxrcs0m",
        "value": 16913
      },
      "scriptsig": "",
      "scriptsig_asm": "",
      "witness": [
        "adf3f35a5bde15081c07f13e1627695e954c6f1f53e4b9105d726c7912383f9695611be5e9e4b950b44434c8ef06082097735dcf77bd103db166dcf0fd3e461f"
      ],
      "is_coinbase": false,
      "sequence": 4294967295
    },
    {
      "txid": "bf34cbed197ca40d7c6f97a6188cb1fae275371346730ad763e07c7860b8eabf",
      "vout": 1,
      "prevout": {
        "scriptpubkey": "5120657a447d986732e6e705e5f41f0c1f9c148f683db3f477f920fe27a16a8a6c8e",
        "scriptpubkey_asm": "OP_PUSHNUM_1 OP_PUSHBYTES_32 657a447d986732e6e705e5f41f0c1f9c148f683db3f477f920fe27a16a8a6c8e",
        "scriptpubkey_type": "v1_p2tr",
        "scriptpubkey_address": "bc1pv4ayglvcvuewdec9uh6p7rqlns2g76pak06807fqlcn6z652dj8qxrcs0m",
        "value": 7909
      },
      "scriptsig": "",
      "scriptsig_asm": "",
      "witness": [
        "93333921a858b766cefed703d73fca4856645aa8f69e26d0295774bba1fde1f296691c9bb923191277784cc5f2c3d6b62dbdf5f42f860662c7f020c68e622b2e"
      ],
      "is_coinbase": false,
      "sequence": 4294967295
    },
    {
      "txid": "b1baa3c0531895a5227fd68109560680fce87661d64d24d11da66ac6a507f545",
      "vout": 1,
      "prevout": {
        "scriptpubkey": "5120657a447d986732e6e705e5f41f0c1f9c148f683db3f477f920fe27a16a8a6c8e",
        "scriptpubkey_asm": "OP_PUSHNUM_1 OP_PUSHBYTES_32 657a447d986732e6e705e5f41f0c1f9c148f683db3f477f920fe27a16a8a6c8e",
        "scriptpubkey_type": "v1_p2tr",
        "scriptpubkey_address": "bc1pv4ayglvcvuewdec9uh6p7rqlns2g76pak06807fqlcn6z652dj8qxrcs0m",
        "value": 7400
      },
      "scriptsig": "",
      "scriptsig_asm": "",
      "witness": [
        "c749d173160bf65703c9f3ddf687b235e29053a0b4eb9af2bb48a9c582ad12ef924c87f8e1f77e4d53af0753de3275928d1bb3dd7d83796a95dfc7fe0de70475"
      ],
      "is_coinbase": false,
      "sequence": 4294967295
    }
  ],
  "vout": [
    {
      "scriptpubkey": "5120657a447d986732e6e705e5f41f0c1f9c148f683db3f477f920fe27a16a8a6c8e",
      "scriptpubkey_asm": "OP_PUSHNUM_1 OP_PUSHBYTES_32 657a447d986732e6e705e5f41f0c1f9c148f683db3f477f920fe27a16a8a6c8e",
      "scriptpubkey_type": "v1_p2tr",
      "scriptpubkey_address": "bc1pv4ayglvcvuewdec9uh6p7rqlns2g76pak06807fqlcn6z652dj8qxrcs0m",
      "value": 1200
    },
    {
      "scriptpubkey": "5120657a447d986732e6e705e5f41f0c1f9c148f683db3f477f920fe27a16a8a6c8e",
      "scriptpubkey_asm": "OP_PUSHNUM_1 OP_PUSHBYTES_32 657a447d986732e6e705e5f41f0c1f9c148f683db3f477f920fe27a16a8a6c8e",
      "scriptpubkey_type": "v1_p2tr",
      "scriptpubkey_address": "bc1pv4ayglvcvuewdec9uh6p7rqlns2g76pak06807fqlcn6z652dj8qxrcs0m",
      "value": 1000
    },
    {
      "scriptpubkey": "51206a18f03e3961e4049dbd9377549d67168c1b8d90843236b73e7ba980c184187d",
      "scriptpubkey_asm": "OP_PUSHNUM_1 OP_PUSHBYTES_32 6a18f03e3961e4049dbd9377549d67168c1b8d90843236b73e7ba980c184187d",
      "scriptpubkey_type": "v1_p2tr",
      "scriptpubkey_address": "bc1pdgv0q03ev8jqf8dajdm4f8t8z6xphrvssserdde70w5cpsvyrp7skfkjmm",
      "value": 12940
    },
    {
      "scriptpubkey": "a914ea6b832a05c6ca578baa3836f3f25553d41068a587",
      "scriptpubkey_asm": "OP_HASH160 OP_PUSHBYTES_20 ea6b832a05c6ca578baa3836f3f25553d41068a5 OP_EQUAL",
      "scriptpubkey_type": "p2sh",
      "scriptpubkey_address": "3P4WqXDbSLRhzo2H6MT6YFbvBKBDPLbVtQ",
      "value": 580
    },
    {
      "scriptpubkey": "5120657a447d986732e6e705e5f41f0c1f9c148f683db3f477f920fe27a16a8a6c8e",
      "scriptpubkey_asm": "OP_PUSHNUM_1 OP_PUSHBYTES_32 657a447d986732e6e705e5f41f0c1f9c148f683db3f477f920fe27a16a8a6c8e",
      "scriptpubkey_type": "v1_p2tr",
      "scriptpubkey_address": "bc1pv4ayglvcvuewdec9uh6p7rqlns2g76pak06807fqlcn6z652dj8qxrcs0m",
      "value": 600
    },
    {
      "scriptpubkey": "5120657a447d986732e6e705e5f41f0c1f9c148f683db3f477f920fe27a16a8a6c8e",
      "scriptpubkey_asm": "OP_PUSHNUM_1 OP_PUSHBYTES_32 657a447d986732e6e705e5f41f0c1f9c148f683db3f477f920fe27a16a8a6c8e",
      "scriptpubkey_type": "v1_p2tr",
      "scriptpubkey_address": "bc1pv4ayglvcvuewdec9uh6p7rqlns2g76pak06807fqlcn6z652dj8qxrcs0m",
      "value": 600
    },
    {
      "scriptpubkey": "5120657a447d986732e6e705e5f41f0c1f9c148f683db3f477f920fe27a16a8a6c8e",
      "scriptpubkey_asm": "OP_PUSHNUM_1 OP_PUSHBYTES_32 657a447d986732e6e705e5f41f0c1f9c148f683db3f477f920fe27a16a8a6c8e",
      "scriptpubkey_type": "v1_p2tr",
      "scriptpubkey_address": "bc1pv4ayglvcvuewdec9uh6p7rqlns2g76pak06807fqlcn6z652dj8qxrcs0m",
      "value": 7150
    }
  ],
  "size": 945,
  "weight": 2583,
  "fee": 10352,
  "status": {
    "confirmed": true,
    "block_height": 834638,
    "block_hash": "000000000000000000025f742c626208ac87e0b7d15054abb4a19ca2d735a54e",
    "block_time": 1710405325
  },
  "hex": "020000000001063ac3da1ce95e7f12465eb2fbece8443aedeea43be3975fc93d770061d4c874cc0400000000ffffffff3ac3da1ce95e7f12465eb2fbece8443aedeea43be3975fc93d770061d4c874cc0500000000ffffffff21a7308cd8be53ba5d051dd0188510333720accff7aa4b62f62d152d9265d6d50000000000ffffffff80deebfa4e97b6a2b62cabe2c44af4c6fd89c3da36ca4989bf00bdf71442c22d0100000000ffffffffbfeab860787ce063d70a7346133775e2fab18c18a6976f7c0da47c19edcb34bf0100000000ffffffff45f507a5c66aa61dd1244dd66176e8fc8006560981d67f22a5951853c0a3bab10100000000ffffffff07b004000000000000225120657a447d986732e6e705e5f41f0c1f9c148f683db3f477f920fe27a16a8a6c8ee803000000000000225120657a447d986732e6e705e5f41f0c1f9c148f683db3f477f920fe27a16a8a6c8e8c320000000000002251206a18f03e3961e4049dbd9377549d67168c1b8d90843236b73e7ba980c184187d440200000000000017a914ea6b832a05c6ca578baa3836f3f25553d41068a5875802000000000000225120657a447d986732e6e705e5f41f0c1f9c148f683db3f477f920fe27a16a8a6c8e5802000000000000225120657a447d986732e6e705e5f41f0c1f9c148f683db3f477f920fe27a16a8a6c8eee1b000000000000225120657a447d986732e6e705e5f41f0c1f9c148f683db3f477f920fe27a16a8a6c8e014001ef94cf23b146105100f32f7d49cf2d0b8d09354ee41d25327a004637592df2fb45f78cc50d8c91778b0ab7a1e447576350cd62112b039d6bbf802a3b227ece0140763de4d5d951e4f7d1ff14b4bfcd5e660e99fd1095f22c0f534fbf1899c809c1afdb098b8f0fa2a75b3560c5cf019598b1b691d4ec24b9b57e4a75d48eb9ecda01413b3d081e0462c23129e5c095a9cfc3399dd2c83bd15fcbf027a3b2b34a16299ceb983f39ca54b7519511b528c9a298fde59a954d8d1497b8f495c4b46c58b8e2830140adf3f35a5bde15081c07f13e1627695e954c6f1f53e4b9105d726c7912383f9695611be5e9e4b950b44434c8ef06082097735dcf77bd103db166dcf0fd3e461f014093333921a858b766cefed703d73fca4856645aa8f69e26d0295774bba1fde1f296691c9bb923191277784cc5f2c3d6b62dbdf5f42f860662c7f020c68e622b2e0140c749d173160bf65703c9f3ddf687b235e29053a0b4eb9af2bb48a9c582ad12ef924c87f8e1f77e4d53af0753de3275928d1bb3dd7d83796a95dfc7fe0de7047500000000"
}