{
  "txid": "57032fd518468aaa7f6462a7c1490da7f6e1dcf657e339eccbb66687161e3cf6",
  "version": 2,
  "locktime": 0,
  "vin": [
    {
      "txid": "f580fbd02889ae187ef5eb8023d49398d91af445e95471256592bb0643b12a4f",
      "vout": 134,
      "prevout": {
        "scriptpubkey": "00148e0aa425ad9840907ec66e10e37843a700cf9164",
        "scriptpubkey_asm": "OP_0 OP_PUSHBYTES_20 8e0aa425ad9840907ec66e10e37843a700cf9164",
        "scriptpubkey_type": "v0_p2wpkh",
        "scriptpubkey_address": "bc1q3c92gfddnpqfqlkxdcgwx7zr5uqvlytyeq74d8",
        "value": 221155
      },
      "scriptsig": "",
      "scriptsig_asm": "",
      "witness": [
        "304402200f7f8508bd121ebf06a9242ec179afb43c068cfa599568fe7ee135fdb22b70e202206fbebc858841b2681f7abd1d6c30b037e46a2f72de3f011754587fcb6a85b7d901",
        "023bf259b1a4b93686fb07998004f39bdd183ee708625db7cd6c61fe14073d5da6"
      ],
      "is_coinbase": false,
      "sequence": 4294967293
    }
  ],
  "vout": [
    {
      "scriptpubkey": "001438c42d139c1a91e70b72f8bb0b64beb4c277b2e2",
      "scriptpubkey_asm": "OP_0 OP_PUSHBYTES_20 38c42d139c1a91e70b72f8bb0b64beb4c277b2e2",
      "scriptpubkey_type": "v0_p2wpkh",
      "scriptpubkey_address": "bc1q8rzz6yuur2g7wzmjlzaske97knp80vhzjwp293",
      "value": 3306
    },
    {
      "scriptpubkey": "00147c610816fc73c3a03ab68d1b6111e04651456d72",
      "scriptpubkey_asm": "OP_0 OP_PUSHBYTES_20 7c610816fc73c3a03ab68d1b6111e04651456d72",
      "scriptpubkey_type": "v0_p2wpkh",
      "scriptpubkey_address": "bc1q03sss9huw0p6qw4k35dkzy0qgeg52mtj9ct4xs",
      "value": 2319
    },
    {
      "scriptpubkey": "001432b24105cdcd4a30196aa157a485fbcbf7de0e6b",
      "scriptpubkey_asm": "OP_0 OP_PUSHBYTES_20 32b24105cdcd4a30196aa157a485fbcbf7de0e6b",
      "scriptpubkey_type": "v0_p2wpkh",
      "scriptpubkey_address": "bc1qx2eyzpwde49rqxt259t6fp0me0maurnt80pmqt",
      "value": 213632
    }
  ],
  "size": 253,
  "weight": 685,
  "fee": 1898,
  "status": {
    "confirmed": true,
    "block_height": 834460,
    "block_hash": "00000000000000000000484a79b643b2524bbce82e5d8a442013fa5b8905ed98",
    "block_time": 1710307468
  },
  "hex": "020000000001014f2ab14306bb9265257154e945f41ad99893d42380ebf57e18ae8928d0fb80f58600000000fdffffff03ea0c00000000000016001438c42d139c1a91e70b72f8bb0b64beb4c277b2e20f090000000000001600147c610816fc73c3a03ab68d1b6111e04651456d72804203000000000016001432b24105cdcd4a30196aa157a485fbcbf7de0e6b0247304402200f7f8508bd121ebf06a9242ec179afb43c068cfa599568fe7ee135fdb22b70e202206fbebc858841b2681f7abd1d6c30b037e46a2f72de3f011754587fcb6a85b7d90121023bf259b1a4b93686fb07998004f39bdd183ee708625db7cd6c61fe14073d5da600000000"
}