{
  "txid": "57068109ca9011738cf90f2e46474f122dc8c875eff23dd92b2bb1b59d1dfab3",
  "version": 1,
  "locktime": 0,
  "vin": [
    {
      "txid": "c457461d730bbfe90fc729d3a783460e261f2f6bc75bbda1e5933961cfc3a450",
      "vout": 1,
      "prevout": {
        "scriptpubkey": "00149085cfc3925f88769e8eddfc91345950230d3184",
        "scriptpubkey_asm": "OP_0 OP_PUSHBYTES_20 9085cfc3925f88769e8eddfc91345950230d3184",
        "scriptpubkey_type": "v0_p2wpkh",
        "scriptpubkey_address": "bc1qjzzulsujt7y8d85wmh7fzdze2q3s6vvypg94eh",
        "value": 23163
      },
      "scriptsig": "",
      "scriptsig_asm": "",
      "witness": [
        "3045022100ab3f0a2b048aca60df8ed55407a6ade126771b76765d93d1a58e6fd5bbad38bb02206ed7dcb06fc5ae178fbcf129ed43f8590626b68747d486bb33ec4dbd32ae78d101",
        "02acc2ed3e02491bfcc8e0acff093b8359a4b5557a582f66b58b7b68376add808d"
      ],
      "is_coinbase": false,
      "sequence": 0
    },
    {
      "txid": "c0696f794d956d6dd825459e55ed59c9d9d4bf8464dfcc743b861b30a5bdfaaf",
      "vout": 1,
      "prevout": {
        "scriptpubkey": "00149085cfc3925f88769e8eddfc91345950230d3184",
        "scriptpubkey_asm": "OP_0 OP_PUSHBYTES_20 9085cfc3925f88769e8eddfc91345950230d3184",
        "scriptpubkey_type": "v0_p2wpkh",
        "scriptpubkey_address": "bc1qjzzulsujt7y8d85wmh7fzdze2q3s6vvypg94eh",
        "value": 8811
      },
      "scriptsig": "",
      "scriptsig_asm": "",
      "witness": [
        "3045022100d51bc672ccf35d0d11713ef964098075ad4a43ebb0badeebc08e94276279eed5022066370fdf8645328e82a6ced9f71d21ab14516594718b5fffaffc5a5a5368057901",
        "02acc2ed3e02491bfcc8e0acff093b8359a4b5557a582f66b58b7b68376add808d"
      ],
      "is_coinbase": false,
      "sequence": 0
    },
    {
      "txid": "92efb4cb08f601e12bfa82fae96e43a482493a81b261969a2b48c834ceb7acca",
      "vout": 1,
      "prevout": {
        "scriptpubkey": "00149085cfc3925f88769e8eddfc91345950230d3184",
        "scriptpubkey_asm": "OP_0 OP_PUSHBYTES_20 9085cfc3925f88769e8eddfc91345950230d3184",
        "scriptpubkey_type": "v0_p2wpkh",
        "scriptpubkey_address": "bc1qjzzulsujt7y8d85wmh7fzdze2q3s6vvypg94eh",
        "value": 21844
      },
      "scriptsig": "",
      "scriptsig_asm": "",
      "witness": [
        "3045022100b56828c29a7cf96573717c9fb367eaa04062af7124efd26da500e7d9f5af039f02203230f8578a3e0643a56a64c84e087075a56c9ada017132ba593f990a3ffe0d6901",
        "02acc2ed3e02491bfcc8e0acff093b8359a4b5557a582f66b58b7b68376add808d"
      ],
      "is_coinbase": false,
      "sequence": 0
    }
  ],
  "vout": [
    {
      "scriptpubkey": "0014aff8e45a998a2c55a496de66c3472f73c3462a16",
      "scriptpubkey_asm": "OP_0 OP_PUSHBYTES_20 aff8e45a998a2c55a496de66c3472f73c3462a16",
      "scriptpubkey_type": "v0_p2wpkh",
      "scriptpubkey_address": "bc1q4luwgk5e3gk9tfykmenvx3e0w0p5v2skdyr7z5",
      "value": 47176
    }
  ],
  "size": 490,
  "weight": 982,
  "fee": 6642,
  "status": {
    "confirmed": true,
    "block_height": 834638,
    "block_hash": "000000000000000000025f742c626208ac87e0b7d15054abb4a19ca2d735a54e",
    "block_time": 1710405325
  },
  "hex": "0100000000010350a4c3cf613993e5a1bd5bc76b2f1f260e4683a7d329c70fe9bf0b731d4657c4010000000000000000affabda5301b863b74ccdf6484bfd4d9c959ed559e4525d86d6d954d796f69c0010000000000000000caacb7ce34c8482b9a9661b2813a4982a4436ee9fa82fa2be101f608cbb4ef920100000000000000000148b8000000000000160014aff8e45a998a2c55a496de66c3472f73c3462a1602483045022100ab3f0a2b048aca60df8ed55407a6ade126771b76765d93d1a58e6fd5bbad38bb02206ed7dcb06fc5ae178fbcf129ed43f8590626b68747d486bb33ec4dbd32ae78d1012102acc2ed3e02491bfcc8e0acff093b8359a4b5557a582f66b58b7b68376add808d02483045022100d51bc672ccf35d0d11713ef964098075ad4a43ebb0badeebc08e94276279eed5022066370fdf8645328e82a6ced9f71d21ab14516594718b5fffaffc5a5a53680579012102acc2ed3e02491bfcc8e0acff093b8359a4b5557a582f66b58b7b68376add808d02483045022100b56828c29a7cf96573717c9fb367eaa04062af7124efd26da500e7d9f5af039f02203230f8578a3e0643a56a64c84e087075a56c9ada017132ba593f990a3ffe0d69012102acc2ed3e02491bfcc8e0acff093b8359a4b5557a582f66b58b7b68376add808d00000000"
}