{
  "txid": "57263f0f911031aac557a4b68282433df4c8a4a0b2ed488f83a1da8680942e81",
  "version": 1,
  "locktime": 0,
  "vin": [
    {
      "txid": "ba67fe759982fd5326cb854334cbaa9ac1d7b33891242405b5c149e59dfc6b51",
      "vout": 3,
      "prevout": {
        "scriptpubkey": "76a914f6a5c5c2eeb79a2fae9be31bf3256319a0fc029e88ac",
        "scriptpubkey_asm": "OP_DUP OP_HASH160 OP_PUSHBYTES_20 f6a5c5c2eeb79a2fae9be31bf3256319a0fc029e OP_EQUALVERIFY OP_CHECKSIG",
        "scriptpubkey_type": "p2pkh",
        "scriptpubkey_address": "1PV9pGRVye42m31epR94WP3azV2WKGnpPs",
        "value": 1528077
      },
      "scriptsig": "47304402200a0584632d33f3a285f0660312f8eaf82e2d6ac46df9d380c9858cb719131039022023be902a2f31c5313a2e8776a76f401d08fa981b29624686c51e8060604a6e920121023fb76886e0390198bb6cebef175a59f4cb284fca0b52b5980458bd7674c3fe01",
      "scriptsig_asm": "OP_PUSHBYTES_71 304402200a0584632d33f3a285f0660312f8eaf82e2d6ac46df9d380c9858cb719131039022023be902a2f31c5313a2e8776a76f401d08fa981b29624686c51e8060604a6e9201 OP_PUSHBYTES_33 023fb76886e0390198bb6cebef175a59f4cb284fca0b52b5980458bd7674c3fe01",
      "is_coinbase": false,
      "sequence": 4294967295
    }
  ],
  "vout": [
    {
      "scriptpubkey": "a914c8b8339761163844e88c03892d31177046f278e687",
      "scriptpubkey_asm": "OP_HASH160 OP_PUSHBYTES_20 c8b8339761163844e88c03892d31177046f278e6 OP_EQUAL",
      "scriptpubkey_type": "p2sh",
      "scriptpubkey_address": "3KzKjTReZjdzmFYUcCLso7tp66GxfgEZL3",
      "value": 275800
    },
    {
      "scriptpubkey": "76a914f6a5c5c2eeb79a2fae9be31bf3256319a0fc029e88ac",
      "scriptpubkey_asm": "OP_DUP OP_HASH160 OP_PUSHBYTES_20 f6a5c5c2eeb79a2fae9be31bf3256319a0fc029e OP_EQUALVERIFY OP_CHECKSIG",
      "scriptpubkey_type": "p2pkh",
      "scriptpubkey_address": "1PV9pGRVye42m31epR94WP3azV2WKGnpPs",
      "value": 1239487
    },
    {
      "scriptpubkey": "a914ec8577fa035f60c29c10bf0f9f1c2938356fb05587",
      "scriptpubkey_asm": "OP_HASH160 OP_PUSHBYTES_20 ec8577fa035f60c29c10bf0f9f1c2938356fb055 OP_EQUAL",
      "scriptpubkey_type": "p2sh",
      "scriptpubkey_address": "3PFdHP2yBefVpsKxZMtTMMYBCveukBG46t",
      "value": 9192
    }
  ],
  "size": 255,
  "weight": 1020,
  "fee": 3598,
  "status": {
    "confirmed": true,
    "block_height": 834638,
    "block_hash": "000000000000000000025f742c626208ac87e0b7d15054abb4a19ca2d735a54e",
    "block_time": 1710405325
  },
  "hex": "0100000001516bfc9de549c1b50524249138b3d7c19aaacb344385cb2653fd829975fe67ba030000006a47304402200a0584632d33f3a285f0660312f8eaf82e2d6ac46df9d380c9858cb719131039022023be902a2f31c5313a2e8776a76f401d08fa981b29624686c51e8060604a6e920121023fb76886e0390198bb6cebef175a59f4cb284fca0b52b5980458bd7674c3fe01ffffffff03583504000000000017a914c8b8339761163844e88c03892d31177046f278e687bfe91200000000001976a914f6a5c5c2eeb79a2fae9be31bf3256319a0fc029e88ace82300000000000017a914ec8577fa035f60c29c10bf0f9f1c2938356fb0558700000000"
}