{
  "txid": "5734b051fd53812970098d5a73ea301409d287d40d7100414e59a1e0aea9fade",
  "version": 2,
  "locktime": 834458,
  "vin": [
    {
      "txid": "72c0545c8a4d6be545737d423d7115fa91cb0a2567103ff079841c3170d923fa",
      "vout": 1,
      "prevout": {
        "scriptpubkey": "0014f0daa46e88024684316e620f306d21250446b1ab",
        "scriptpubkey_asm": "OP_0 OP_PUSHBYTES_20 f0daa46e88024684316e620f306d21250446b1ab",
        "scriptpubkey_type": "v0_p2wpkh",
        "scriptpubkey_address": "bc1q7rd2gm5gqfrggvtwvg8nqmfpy5zydvdtas7wkl",
        "value": 17196983
      },
      "scriptsig": "",
      "scriptsig_asm": "",
      "witness": [
        "304402200174bc5190250119f3683f1cca9a166bbaab027340dc48b3f818b3ededd458dc02200c189bed4092472e82feecb76fec1d6e06e260eb2502514ac1445f85dc5d75d301",
        "03db9a7f8ae2e5c3c233e85a8b1a05e7c65924b9ea5bae33a93c6816aab8611458"
      ],
      "is_coinbase": false,
      "sequence": 4294967293
    }
  ],
  "vout": [
    {
      "scriptpubkey": "0014841e3e9ed490670a8a49bc296b779c0498c54099",
      "scriptpubkey_asm": "OP_0 OP_PUSHBYTES_20 841e3e9ed490670a8a49bc296b779c0498c54099",
      "scriptpubkey_type": "v0_p2wpkh",
      "scriptpubkey_address": "bc1qss0ra8k5jpns4zjfhs5kkauuqjvv2syeqvuscr",
      "value": 3838965
    },
    {
      "scriptpubkey": "0014a08142cd3b64ee0dacc46a764e19944a556d845c",
      "scriptpubkey_asm": "OP_0 OP_PUSHBYTES_20 a08142cd3b64ee0dacc46a764e19944a556d845c",
      "scriptpubkey_type": "v0_p2wpkh",
      "scriptpubkey_address": "bc1q5zq59nfmvnhqmtxydfmyuxv5ff2kmpzullf8fy",
      "value": 13356030
    }
  ],
  "size": 222,
  "weight": 561,
  "fee": 1988,
  "status": {
    "confirmed": true,
    "block_height": 834460,
    "block_hash": "00000000000000000000484a79b643b2524bbce82e5d8a442013fa5b8905ed98",
    "block_time": 1710307468
  },
  "hex": "02000000000101fa23d970311c8479f03f1067250acb91fa15713d427d7345e56b4d8a5c54c0720100000000fdffffff02f5933a0000000000160014841e3e9ed490670a8a49bc296b779c0498c54099fecbcb0000000000160014a08142cd3b64ee0dacc46a764e19944a556d845c0247304402200174bc5190250119f3683f1cca9a166bbaab027340dc48b3f818b3ededd458dc02200c189bed4092472e82feecb76fec1d6e06e260eb2502514ac1445f85dc5d75d3012103db9a7f8ae2e5c3c233e85a8b1a05e7c65924b9ea5bae33a93c6816aab86114589abb0c00"
}