{
  "txid": "5741da1da00b6932d0a2639459b3e1ddceb69578036bfc9eae9866f30ff956d1",
  "version": 2,
  "locktime": 0,
  "vin": [
    {
      "txid": "114fd62e20d00306655eae80d149459a57ece48bfea747a79e742d34891909ee",
      "vout": 0,
      "prevout": {
        "scriptpubkey": "51200945722f551bffeaaebcf02b5b58c684a28c3b2568352424ee0c1ffbfb099c8c",
        "scriptpubkey_asm": "OP_PUSHNUM_1 OP_PUSHBYTES_32 0945722f551bffeaaebcf02b5b58c684a28c3b2568352424ee0c1ffbfb099c8c",
        "scriptpubkey_type": "v1_p2tr",
        "scriptpubkey_address": "bc1pp9zhyt64r0l74t4u7q44kkxxsj3gcwe9dq6jgf8wps0lh7cfnjxq6lrthl",
        "value": 2218
      },
      "scriptsig": "",
      "scriptsig_asm": "",
      "witness": [
        "8175612f9b16eff03e6ceecabf31a76033b63f81d31005cf0350ac562c7d157d7a8892aa30e5c6066d3ce6d57b6fdaea05344c9cb7d989ecf33cb54208e87d5f",
        "20aeac3c717c22a7f0839263d0d2ac4eefe0fcab72f55dc96474a0e12a4209b44aac0063036f7264010118746578742f706c61696e3b636861727365743d7574662d38003b7b2270223a226272632d3230222c226f70223a227472616e73666572222c227469636b223a2263617473222c22616d74223a22323030303030227d68",
        "c1aeac3c717c22a7f0839263d0d2ac4eefe0fcab72f55dc96474a0e12a4209b44a"
      ],
      "is_coinbase": false,
      "sequence": 4294967293
    }
  ],
  "vout": [
    {
      "scriptpubkey": "5120529ce4e2c96c8405236261a430f5ddf8fe71186631b17eb6118324669fdb1232",
      "scriptpubkey_asm": "OP_PUSHNUM_1 OP_PUSHBYTES_32 529ce4e2c96c8405236261a430f5ddf8fe71186631b17eb6118324669fdb1232",
      "scriptpubkey_type": "v1_p2tr",
      "scriptpubkey_address": "bc1p22wwfckfdjzq2gmzvxjrpawalrl8zxrxxxchads3svjxd87mzgeqqy3zxe",
      "value": 546
    }
  ],
  "size": 326,
  "weight": 608,
  "fee": 1672,
  "status": {
    "confirmed": true,
    "block_height": 834464,
    "block_hash": "0000000000000000000177a0869a911a2b65c9bdcd5a8bcb02b68f305bee848e",
    "block_time": 1710308296
  },
  "hex": "02000000000101ee091989342d749ea747a7fe8be4ec579a4549d180ae5e650603d0202ed64f110000000000fdffffff012202000000000000225120529ce4e2c96c8405236261a430f5ddf8fe71186631b17eb6118324669fdb123203408175612f9b16eff03e6ceecabf31a76033b63f81d31005cf0350ac562c7d157d7a8892aa30e5c6066d3ce6d57b6fdaea05344c9cb7d989ecf33cb54208e87d5f8120aeac3c717c22a7f0839263d0d2ac4eefe0fcab72f55dc96474a0e12a4209b44aac0063036f7264010118746578742f706c61696e3b636861727365743d7574662d38003b7b2270223a226272632d3230222c226f70223a227472616e73666572222c227469636b223a2263617473222c22616d74223a22323030303030227d6821c1aeac3c717c22a7f0839263d0d2ac4eefe0fcab72f55dc96474a0e12a4209b44a00000000"
}