{
  "txid": "574e7f44eff9051a23dca024f731e3fec9c15e4250ee23884dad95c9fe2c7111",
  "version": 1,
  "locktime": 0,
  "vin": [
    {
      "txid": "e50f1e77ebb4c1db7f8f801f88bcde2e4fe786ef9f6bb1c1c44b432f9b5aaaba",
      "vout": 0,
      "prevout": {
        "scriptpubkey": "00147228a193dce767b1aa1a33fccd45ebd87ec4909d",
        "scriptpubkey_asm": "OP_0 OP_PUSHBYTES_20 7228a193dce767b1aa1a33fccd45ebd87ec4909d",
        "scriptpubkey_type": "v0_p2wpkh",
        "scriptpubkey_address": "bc1qwg52ry7uuanmr2s6x07v630tmplvfyyaknqwea",
        "value": 389400
      },
      "scriptsig": "",
      "scriptsig_asm": "",
      "witness": [
        "30450221008933879845781727d892e3c71e20b674fb4a72b651e7ddef06d94300405ca2000220454189c92a7b9ce0393864731bc87786bc46c1f808c479597ed5a33c426165d001",
        "020490fc07c9e62854d91de40312281a25224f868e634723bb1b7af581020f0000"
      ],
      "is_coinbase": false,
      "sequence": 4294967295
    },
    {
      "txid": "bf03d425af408caba97a7cc2920f909aa4324afd8a2445a8953cca46ca4968b9",
      "vout": 1,
      "prevout": {
        "scriptpubkey": "0014627a5c07ef55ab06f157a7aafe550f01d4156a67",
        "scriptpubkey_asm": "OP_0 OP_PUSHBYTES_20 627a5c07ef55ab06f157a7aafe550f01d4156a67",
        "scriptpubkey_type": "v0_p2wpkh",
        "scriptpubkey_address": "bc1qvfa9cpl02k4sdu2h5740u4g0q82p26n8c7w4av",
        "value": 47408
      },
      "scriptsig": "",
      "scriptsig_asm": "",
      "witness": [
        "3045022100801c14c7e9f5147c3dbab620b91073fb6adab736a813d4dc3f188d10ed8f440f022012c8ea1bf321121ec448967c27f63ab1ec5ba2c44fa882f5e64a8e92c09fb01801",
        "03ab96c7f81209b17a7982c7d952b48ecd05d6587dbbb335316835202de7ca981b"
      ],
      "is_coinbase": false,
      "sequence": 4294967295
    }
  ],
  "vout": [
    {
      "scriptpubkey": "76a914aada78c62fe38772d7f1d103fdcdf19508845e7288ac",
      "scriptpubkey_asm": "OP_DUP OP_HASH160 OP_PUSHBYTES_20 aada78c62fe38772d7f1d103fdcdf19508845e72 OP_EQUALVERIFY OP_CHECKSIG",
      "scriptpubkey_type": "p2pkh",
      "scriptpubkey_address": "1GaPbJBG3MUwLYhppNVu8yP8CYreeArEDB",
      "value": 434828
    }
  ],
  "size": 344,
  "weight": 722,
  "fee": 1980,
  "status": {
    "confirmed": true,
    "block_height": 834464,
    "block_hash": "0000000000000000000177a0869a911a2b65c9bdcd5a8bcb02b68f305bee848e",
    "block_time": 1710308296
  },
  "hex": "01000000000102baaa5a9b2f434bc4c1b16b9fef86e74f2edebc881f808f7fdbc1b4eb771e0fe50000000000ffffffffb96849ca46ca3c95a845248afd4a32a49a900f92c27c7aa9ab8c40af25d403bf0100000000ffffffff018ca20600000000001976a914aada78c62fe38772d7f1d103fdcdf19508845e7288ac024830450221008933879845781727d892e3c71e20b674fb4a72b651e7ddef06d94300405ca2000220454189c92a7b9ce0393864731bc87786bc46c1f808c479597ed5a33c426165d00121020490fc07c9e62854d91de40312281a25224f868e634723bb1b7af581020f000002483045022100801c14c7e9f5147c3dbab620b91073fb6adab736a813d4dc3f188d10ed8f440f022012c8ea1bf321121ec448967c27f63ab1ec5ba2c44fa882f5e64a8e92c09fb018012103ab96c7f81209b17a7982c7d952b48ecd05d6587dbbb335316835202de7ca981b00000000"
}