{
  "txid": "575996b053ef583b96a624e9b3bb2088392bb97d5b9e55a5c1b78e54d01ba157",
  "version": 2,
  "locktime": 0,
  "vin": [
    {
      "txid": "3f69fae8ca9bdd774ca5294e86509449f431bb44e2206cae9f7f495b7952d9e2",
      "vout": 9,
      "prevout": {
        "scriptpubkey": "512087616cfeb28d4cfe4cd8f4c97a4f39f02492c62e9b7764d3f6d286c39a1158fc",
        "scriptpubkey_asm": "OP_PUSHNUM_1 OP_PUSHBYTES_32 87616cfeb28d4cfe4cd8f4c97a4f39f02492c62e9b7764d3f6d286c39a1158fc",
        "scriptpubkey_type": "v1_p2tr",
        "scriptpubkey_address": "bc1psaskel4j34x0unxc7nyh5nee7qjf933wndmkf5lk62rv8xs3tr7q5cc2vz",
        "value": 2996
      },
      "scriptsig": "",
      "scriptsig_asm": "",
      "witness": [
        "726b22383af5cf49e9fb508c19a462749df3f4d0da72e65ee2e4cd5f22187fc4f60c3a1bdf43e6febb784ce827e297c42c42f9ddef5f1738837ad9f7685cbf92",
        "20ba50acd0020f139d5cba4a7e662f3303e5b91fd43aaae58954a0020d58ecb50bac0063036f726401011e6170706c69636174696f6e2f6a736f6e3b636861727365743d7574662d38004cb77b2270223a22706f772d3230222c226f70223a226d696e74222c227469636b223a2250455045222c22616d74223a2231303030222c22736f6c7574696f6e223a22504550453a334d524d3246744a42504c46315958564766504d33656556746675364446734762623a303030303030303030303030303030303030303139393431613561653132383937363539383134343239323533333030353762306461393666336465613163353a3137343935303933303731227d68",
        "c06b70a06f37e9fa1ff7e7bec8bd1210228b25051d0c17b5264cdd8c73b544f454"
      ],
      "is_coinbase": false,
      "sequence": 4294967295
    }
  ],
  "vout": [
    {
      "scriptpubkey": "a914d86bcd8c487ad519e95c6557e7463d579cce14a287",
      "scriptpubkey_asm": "OP_HASH160 OP_PUSHBYTES_20 d86bcd8c487ad519e95c6557e7463d579cce14a2 OP_EQUAL",
      "scriptpubkey_type": "p2sh",
      "scriptpubkey_address": "3MRM2FtJBPLF1YXVGfPM3eeVtfu6DFsGbb",
      "value": 546
    }
  ],
  "size": 448,
  "weight": 697,
  "fee": 2450,
  "status": {
    "confirmed": true,
    "block_height": 834460,
    "block_hash": "00000000000000000000484a79b643b2524bbce82e5d8a442013fa5b8905ed98",
    "block_time": 1710307468
  },
  "hex": "02000000000101e2d952795b497f9fae6c20e244bb31f4499450864e29a54c77dd9bcae8fa693f0900000000ffffffff01220200000000000017a914d86bcd8c487ad519e95c6557e7463d579cce14a2870340726b22383af5cf49e9fb508c19a462749df3f4d0da72e65ee2e4cd5f22187fc4f60c3a1bdf43e6febb784ce827e297c42c42f9ddef5f1738837ad9f7685cbf92fd040120ba50acd0020f139d5cba4a7e662f3303e5b91fd43aaae58954a0020d58ecb50bac0063036f726401011e6170706c69636174696f6e2f6a736f6e3b636861727365743d7574662d38004cb77b2270223a22706f772d3230222c226f70223a226d696e74222c227469636b223a2250455045222c22616d74223a2231303030222c22736f6c7574696f6e223a22504550453a334d524d3246744a42504c46315958564766504d33656556746675364446734762623a303030303030303030303030303030303030303139393431613561653132383937363539383134343239323533333030353762306461393666336465613163353a3137343935303933303731227d6821c06b70a06f37e9fa1ff7e7bec8bd1210228b25051d0c17b5264cdd8c73b544f45400000000"
}