{
  "txid": "575fdef412da126c48e174fe5f15564cf363d1921a042b56ee33f633046e61aa",
  "version": 1,
  "locktime": 0,
  "vin": [
    {
      "txid": "cbc50ea0ac1c9a8334732745abfaa7a51faa94deef4c309b7110c56504a8a350",
      "vout": 58,
      "prevout": {
        "scriptpubkey": "00149efda4621925d2a0a9ed278f75f1f23de0374a0a",
        "scriptpubkey_asm": "OP_0 OP_PUSHBYTES_20 9efda4621925d2a0a9ed278f75f1f23de0374a0a",
        "scriptpubkey_type": "v0_p2wpkh",
        "scriptpubkey_address": "bc1qnm76gcseyhf2p20dy78htu0j8hsrwjs2dsndp2",
        "value": 47373
      },
      "scriptsig": "",
      "scriptsig_asm": "",
      "witness": [
        "304402206ad9ce80f265d57723e0fdca4b55cbbc8a173721f6d60a13f2142b8a865aa5f202207ca9c8c0ada78e9120f08e57177b092aa18bb3fd81a5ec60ba8c298d69fd875a01",
        "0212daa03204de7226c2abd31432deb7ab9617acd341a825cbea802b9262065816"
      ],
      "is_coinbase": false,
      "sequence": 4294967293
    },
    {
      "txid": "22d7ce470a439d5c5b159befefa1c8c6b1ac0c19cfdfffddd22c32a8b3844667",
      "vout": 19,
      "prevout": {
        "scriptpubkey": "0014bb3918b538cbbd8e4665df826fd1dd4859722972",
        "scriptpubkey_asm": "OP_0 OP_PUSHBYTES_20 bb3918b538cbbd8e4665df826fd1dd4859722972",
        "scriptpubkey_type": "v0_p2wpkh",
        "scriptpubkey_address": "bc1qhvu33dfcew7cu3n9m7pxl5wafpvhy2tjdkdala",
        "value": 47371
      },
      "scriptsig": "",
      "scriptsig_asm": "",
      "witness": [
        "304402206b698cb3e505220a1a0c8b417f628c54954287489b2c2419775c945df092e1f5022079fc1f2067c96ad7c8deb34f822d92cc8a69c4c295d87985d2d55b6b39d25a6a01",
        "03694f4cf00fdff4fda0ce3ad3df69832e9dda009a5d264e319a3eee42c3bccaba"
      ],
      "is_coinbase": false,
      "sequence": 4294967293
    },
    {
      "txid": "d3878dc6cf99ecb6b0efe978f98c1b88f2e313ad021f71f948a0043b78ea9261",
      "vout": 1,
      "prevout": {
        "scriptpubkey": "0014ffde38ff60706956adfe65083a3e879c744fdf52",
        "scriptpubkey_asm": "OP_0 OP_PUSHBYTES_20 ffde38ff60706956adfe65083a3e879c744fdf52",
        "scriptpubkey_type": "v0_p2wpkh",
        "scriptpubkey_address": "bc1qll0r3lmqwp54dt07v5yr5058n36ylh6jrqtfud",
        "value": 47369
      },
      "scriptsig": "",
      "scriptsig_asm": "",
      "witness": [
        "3044022068d49cdeb62e8faeacb21b6cc75c3144d12f3a6ad5fae0766ab6d330ecfbef8f0220097d857477bcbed6854162bf16d025a3fbc88b9f63ee03810300693194a3034801",
        "02a01525e9ad0d5f2278363b17e10c89e5475a152401c522721922f8f14ebd1da2"
      ],
      "is_coinbase": false,
      "sequence": 4294967293
    },
    {
      "txid": "1c8750ed07654d2c8d378151c26f7ef7154ef22df0af049605bc04a853bde9e8",
      "vout": 69,
      "prevout": {
        "scriptpubkey": "00143e5da9e1b3ef47be7ae8c9e9e9551acfe538b8f5",
        "scriptpubkey_asm": "OP_0 OP_PUSHBYTES_20 3e5da9e1b3ef47be7ae8c9e9e9551acfe538b8f5",
        "scriptpubkey_type": "v0_p2wpkh",
        "scriptpubkey_address": "bc1q8ew6ncdnaarmu7hge857j4g6eljn3w84mtgp4j",
        "value": 47368
      },
      "scriptsig": "",
      "scriptsig_asm": "",
      "witness": [
        "304402201074f118b0993b5234a71630906e1e90d226e9948c60702e69e3574b3952109e02207dfc41a0dd87d794cb1c674cc1db755748978cf74079fb14ddc237bf30aa19b801",
        "02b4af245008cb126b190ee02413fb82094fcdc7fcfa30ab33f76ffa6f0161f079"
      ],
      "is_coinbase": false,
      "sequence": 4294967293
    },
    {
      "txid": "7d60d0849ca836a948575b575c9700d8b20cbe9c413669bb1832345a0eb73786",
      "vout": 155,
      "prevout": {
        "scriptpubkey": "0014c627b22acabe0431b55777b0b23af121dab79b78",
        "scriptpubkey_asm": "OP_0 OP_PUSHBYTES_20 c627b22acabe0431b55777b0b23af121dab79b78",
        "scriptpubkey_type": "v0_p2wpkh",
        "scriptpubkey_address": "bc1qccnmy2k2hczrrd2hw7ctywh3y8dt0xmcqrtwxl",
        "value": 47367
      },
      "scriptsig": "",
      "scriptsig_asm": "",
      "witness": [
        "30450221008f7448cd5477c2ee19299ce1191cef59a531f5342fec7a79c3b8d22ef15911f40220701dc813b1e8522c65b236bde86fa1dc198d860633b183900e09557f5659059401",
        "03255f715551e2300cce7911c496bdb32f48b907730c833004c7b19223bdade419"
      ],
      "is_coinbase": false,
      "sequence": 4294967293
    }
  ],
  "vout": [
    {
      "scriptpubkey": "76a9141f230d041abe2d465e66d1a033201b7b6d1ccd5288ac",
      "scriptpubkey_asm": "OP_DUP OP_HASH160 OP_PUSHBYTES_20 1f230d041abe2d465e66d1a033201b7b6d1ccd52 OP_EQUALVERIFY OP_CHECKSIG",
      "scriptpubkey_type": "p2pkh",
      "scriptpubkey_address": "13qdwKgSs8Nrw9bss7DPzefHq4aobE8CfT",
      "value": 225328
    }
  ],
  "size": 787,
  "weight": 1534,
  "fee": 11520,
  "status": {
    "confirmed": true,
    "block_height": 834638,
    "block_hash": "000000000000000000025f742c626208ac87e0b7d15054abb4a19ca2d735a54e",
    "block_time": 1710405325
  },
  "hex": "0100000000010550a3a80465c510719b304cefde94aa1fa5a7faab45277334839a1caca00ec5cb3a00000000fdffffff674684b3a8322cd2ddffdfcf190cacb1c6c8a1efef9b155b5c9d430a47ced7221300000000fdffffff6192ea783b04a048f9711f02ad13e3f2881b8cf978e9efb0b6ec99cfc68d87d30100000000fdffffffe8e9bd53a804bc059604aff02df24e15f77e6fc25181378d2c4d6507ed50871c4500000000fdffffff8637b70e5a343218bb6936419cbe0cb2d800975c575b5748a936a89c84d0607d9b00000000fdffffff0130700300000000001976a9141f230d041abe2d465e66d1a033201b7b6d1ccd5288ac0247304402206ad9ce80f265d57723e0fdca4b55cbbc8a173721f6d60a13f2142b8a865aa5f202207ca9c8c0ada78e9120f08e57177b092aa18bb3fd81a5ec60ba8c298d69fd875a01210212daa03204de7226c2abd31432deb7ab9617acd341a825cbea802b92620658160247304402206b698cb3e505220a1a0c8b417f628c54954287489b2c2419775c945df092e1f5022079fc1f2067c96ad7c8deb34f822d92cc8a69c4c295d87985d2d55b6b39d25a6a012103694f4cf00fdff4fda0ce3ad3df69832e9dda009a5d264e319a3eee42c3bccaba02473044022068d49cdeb62e8faeacb21b6cc75c3144d12f3a6ad5fae0766ab6d330ecfbef8f0220097d857477bcbed6854162bf16d025a3fbc88b9f63ee03810300693194a30348012102a01525e9ad0d5f2278363b17e10c89e5475a152401c522721922f8f14ebd1da20247304402201074f118b0993b5234a71630906e1e90d226e9948c60702e69e3574b3952109e02207dfc41a0dd87d794cb1c674cc1db755748978cf74079fb14ddc237bf30aa19b8012102b4af245008cb126b190ee02413fb82094fcdc7fcfa30ab33f76ffa6f0161f079024830450221008f7448cd5477c2ee19299ce1191cef59a531f5342fec7a79c3b8d22ef15911f40220701dc813b1e8522c65b236bde86fa1dc198d860633b183900e09557f56590594012103255f715551e2300cce7911c496bdb32f48b907730c833004c7b19223bdade41900000000"
}