{
  "txid": "577394cd4002417b214e6c241c57bdbb5b6a2c65c7df348a67715a9c8f71fc55",
  "version": 2,
  "locktime": 0,
  "vin": [
    {
      "txid": "8486ecb4df0880316dd6e82b3971b4df187aff23765bc3a47f8d78bb53aa273c",
      "vout": 25,
      "prevout": {
        "scriptpubkey": "51206c5b0dcc54d13d135281ce083c28977d69e81108455731cab5d42aeca65aeb4a",
        "scriptpubkey_asm": "OP_PUSHNUM_1 OP_PUSHBYTES_32 6c5b0dcc54d13d135281ce083c28977d69e81108455731cab5d42aeca65aeb4a",
        "scriptpubkey_type": "v1_p2tr",
        "scriptpubkey_address": "bc1pd3dsmnz56y73x55pecyrc2yh0457syggg4tnrj446s4wefj6ad9qwmtcj7",
        "value": 2575
      },
      "scriptsig": "",
      "scriptsig_asm": "",
      "witness": [
        "5473623bb82b3fbc3d108ac4fc2fb07d3e18e7f2a29d1587c19e2546961308eb30b33ae82112c4eaea903bce8804ebdb54cf39fc6e086ea5c4bd2e2a746720d3",
        "20fc9d5df80fc49dab8a572bd5987255f1d75971aba737e338bf0d571088459230ac0063036f726401010a746578742f706c61696e00367b2270223a226272632d3230222c226f70223a226d696e74222c227469636b223a2261616161222c22616d74223a223130303030227d68",
        "c0fc9d5df80fc49dab8a572bd5987255f1d75971aba737e338bf0d571088459230"
      ],
      "is_coinbase": false,
      "sequence": 4261412863
    }
  ],
  "vout": [
    {
      "scriptpubkey": "0014ddd7ef12ea6f78edcc1e8e7afa12c01ab59f3339",
      "scriptpubkey_asm": "OP_0 OP_PUSHBYTES_20 ddd7ef12ea6f78edcc1e8e7afa12c01ab59f3339",
      "scriptpubkey_type": "v0_p2wpkh",
      "scriptpubkey_address": "bc1qmht77yh2dauwmnq73ea05ykqr26e7veea8spz6",
      "value": 546
    }
  ],
  "size": 295,
  "weight": 541,
  "fee": 2029,
  "status": {
    "confirmed": true,
    "block_height": 834460,
    "block_hash": "00000000000000000000484a79b643b2524bbce82e5d8a442013fa5b8905ed98",
    "block_time": 1710307468
  },
  "hex": "020000000001013c27aa53bb788d7fa4c35b7623ff7a18dfb471392be8d66d318008dfb4ec86841900000000fffffffd012202000000000000160014ddd7ef12ea6f78edcc1e8e7afa12c01ab59f333903405473623bb82b3fbc3d108ac4fc2fb07d3e18e7f2a29d1587c19e2546961308eb30b33ae82112c4eaea903bce8804ebdb54cf39fc6e086ea5c4bd2e2a746720d36e20fc9d5df80fc49dab8a572bd5987255f1d75971aba737e338bf0d571088459230ac0063036f726401010a746578742f706c61696e00367b2270223a226272632d3230222c226f70223a226d696e74222c227469636b223a2261616161222c22616d74223a223130303030227d6821c0fc9d5df80fc49dab8a572bd5987255f1d75971aba737e338bf0d57108845923000000000"
}