{
  "txid": "5796b04d9f19876a295c3dbb80118418e61c23c51e8ab0aa9070fa6c3c156e9a",
  "version": 2,
  "locktime": 0,
  "vin": [
    {
      "txid": "e054c137725b7a5d163dade8f5cd68c0927a2e8b00d920927dab9a7ba934ce5f",
      "vout": 8,
      "prevout": {
        "scriptpubkey": "51201c29b858a79857edac624400db63dd0eed41879427eb76e843df1f2e6e9bceff",
        "scriptpubkey_asm": "OP_PUSHNUM_1 OP_PUSHBYTES_32 1c29b858a79857edac624400db63dd0eed41879427eb76e843df1f2e6e9bceff",
        "scriptpubkey_type": "v1_p2tr",
        "scriptpubkey_address": "bc1prs5msk98npt7mtrzgsqdkc7apmk5rpu5yl4hd6zrmu0jum5memlsftwjkf",
        "value": 2658
      },
      "scriptsig": "",
      "scriptsig_asm": "",
      "witness": [
        "b3a63aed4c1052c895f29ecd66341866659c6eea1cb23a99d618d3c79fd7ecb2980e8f3ee191dd6a8ffb41232ed6bd25c76be15c0ea5da806efaf09ce3a0211d",
        "200603668a36e161117549a5d9100393c8f07ec3ba1e0d6fcad23496c2e6ad28aaac0063036f726401011e6170706c69636174696f6e2f6a736f6e3b636861727365743d7574662d38004cbf7b2270223a22706f772d3230222c226f70223a226d696e74222c227469636b223a2250455045222c22616d74223a2231303030222c22736f6c7574696f6e223a22504550453a6263317139736a36303977756e7468646a636d7a746a796379766475616e653071716b78726e773932653a303030303030303030303030303030303030303139393431613561653132383937363539383134343239323533333030353762306461393666336465613163353a3335383939323539343732227d68",
        "c0a0e509a599b6542378e5ac7959d344a1bebc95ec9899fd4ccf1904beefe3f047"
      ],
      "is_coinbase": false,
      "sequence": 4294967295
    }
  ],
  "vout": [
    {
      "scriptpubkey": "00142c25a795dc9aeed963625c898231bcecf2f002c6",
      "scriptpubkey_asm": "OP_0 OP_PUSHBYTES_20 2c25a795dc9aeed963625c898231bcecf2f002c6",
      "scriptpubkey_type": "v0_p2wpkh",
      "scriptpubkey_address": "bc1q9sj609wunthdjcmztjycyvduane0qqkxrnw92e",
      "value": 546
    }
  ],
  "size": 455,
  "weight": 701,
  "fee": 2112,
  "status": {
    "confirmed": true,
    "block_height": 834460,
    "block_hash": "00000000000000000000484a79b643b2524bbce82e5d8a442013fa5b8905ed98",
    "block_time": 1710307468
  },
  "hex": "020000000001015fce34a97b9aab7d9220d9008b2e7a92c068cdf5e8ad3d165d7a5b7237c154e00800000000ffffffff0122020000000000001600142c25a795dc9aeed963625c898231bcecf2f002c60340b3a63aed4c1052c895f29ecd66341866659c6eea1cb23a99d618d3c79fd7ecb2980e8f3ee191dd6a8ffb41232ed6bd25c76be15c0ea5da806efaf09ce3a0211dfd0c01200603668a36e161117549a5d9100393c8f07ec3ba1e0d6fcad23496c2e6ad28aaac0063036f726401011e6170706c69636174696f6e2f6a736f6e3b636861727365743d7574662d38004cbf7b2270223a22706f772d3230222c226f70223a226d696e74222c227469636b223a2250455045222c22616d74223a2231303030222c22736f6c7574696f6e223a22504550453a6263317139736a36303977756e7468646a636d7a746a796379766475616e653071716b78726e773932653a303030303030303030303030303030303030303139393431613561653132383937363539383134343239323533333030353762306461393666336465613163353a3335383939323539343732227d6821c0a0e509a599b6542378e5ac7959d344a1bebc95ec9899fd4ccf1904beefe3f04700000000"
}