{
  "txid": "5799dfe8f070bfc1f9e34b9d96626d34246bf6b0bf5bab3a785747607c257621",
  "version": 1,
  "locktime": 0,
  "vin": [
    {
      "txid": "f6ff07ae18d586de4bf4177923330b2d53de06ce2ac2962bf8700f9539cdc9be",
      "vout": 1,
      "prevout": {
        "scriptpubkey": "00146d827ae184dc7695bffd7243ad6fa8f376c803eb",
        "scriptpubkey_asm": "OP_0 OP_PUSHBYTES_20 6d827ae184dc7695bffd7243ad6fa8f376c803eb",
        "scriptpubkey_type": "v0_p2wpkh",
        "scriptpubkey_address": "bc1qdkp84cvym3mft0lawfp66mag7dmvsqlt7g5h4p",
        "value": 97300
      },
      "scriptsig": "",
      "scriptsig_asm": "",
      "witness": [
        "3044022054c4992a4b40d955ef3c673bb53fa44cb450d4a88cb4d2e5272efa3eb515526e02201d4fe2b0eaf8f6b6f4f585cc083f33818c0cb594a235c6784b6da4b149ec4de001",
        "020e831179d075bd6b4ef5dde3c79df99147fbd6cbddc5805bcdc9b7c280593f28"
      ],
      "is_coinbase": false,
      "sequence": 4294967295
    }
  ],
  "vout": [
    {
      "scriptpubkey": "001419efff70c8fb856749deb24c175a01a2bf6f3718",
      "scriptpubkey_asm": "OP_0 OP_PUSHBYTES_20 19efff70c8fb856749deb24c175a01a2bf6f3718",
      "scriptpubkey_type": "v0_p2wpkh",
      "scriptpubkey_address": "bc1qr8hl7uxglwzkwjw7kfxpwksp52lk7dcca23ht7",
      "value": 47651
    },
    {
      "scriptpubkey": "00146d827ae184dc7695bffd7243ad6fa8f376c803eb",
      "scriptpubkey_asm": "OP_0 OP_PUSHBYTES_20 6d827ae184dc7695bffd7243ad6fa8f376c803eb",
      "scriptpubkey_type": "v0_p2wpkh",
      "scriptpubkey_address": "bc1qdkp84cvym3mft0lawfp66mag7dmvsqlt7g5h4p",
      "value": 45842
    }
  ],
  "size": 222,
  "weight": 561,
  "fee": 3807,
  "status": {
    "confirmed": true,
    "block_height": 834638,
    "block_hash": "000000000000000000025f742c626208ac87e0b7d15054abb4a19ca2d735a54e",
    "block_time": 1710405325
  },
  "hex": "01000000000101bec9cd39950f70f82b96c22ace06de532d0b33237917f44bde86d518ae07fff60100000000ffffffff0223ba00000000000016001419efff70c8fb856749deb24c175a01a2bf6f371812b30000000000001600146d827ae184dc7695bffd7243ad6fa8f376c803eb02473044022054c4992a4b40d955ef3c673bb53fa44cb450d4a88cb4d2e5272efa3eb515526e02201d4fe2b0eaf8f6b6f4f585cc083f33818c0cb594a235c6784b6da4b149ec4de00121020e831179d075bd6b4ef5dde3c79df99147fbd6cbddc5805bcdc9b7c280593f2800000000"
}