{
  "txid": "57a5ac37dab9b6b5fb2aa16abd8e727493e9695c09235846771218918448089a",
  "version": 1,
  "locktime": 0,
  "vin": [
    {
      "txid": "37331fb540b53cc2c521feb9d29f35e43e372fe9cddcbc25434a189a715dccee",
      "vout": 1,
      "prevout": {
        "scriptpubkey": "00145e8a7b5edafc1c5c085f91a99dee733b791d4164",
        "scriptpubkey_asm": "OP_0 OP_PUSHBYTES_20 5e8a7b5edafc1c5c085f91a99dee733b791d4164",
        "scriptpubkey_type": "v0_p2wpkh",
        "scriptpubkey_address": "bc1qt698khk6lsw9czzljx5emmnn8du36sty3n2mm3",
        "value": 258536
      },
      "scriptsig": "",
      "scriptsig_asm": "",
      "witness": [
        "3045022100b7c04320feac64fc110e08c19ee92db4d419ac9e591561b4f48f588dd1630e070220569e43a769e9e37ad802e245b64e7f2e00afeed93538b3ba93b0c4569846307f01",
        "03f2bbd444c377afdd5f57d8cdac1d961845324c5b9913a3a9994c7e5cff15e49d"
      ],
      "is_coinbase": false,
      "sequence": 4294967295
    },
    {
      "txid": "b82f3ad8e3c2af9d93bb76b0aa43e0773a45ecc827fcb66c5ed7b53ff548cb49",
      "vout": 1,
      "prevout": {
        "scriptpubkey": "00145e8a7b5edafc1c5c085f91a99dee733b791d4164",
        "scriptpubkey_asm": "OP_0 OP_PUSHBYTES_20 5e8a7b5edafc1c5c085f91a99dee733b791d4164",
        "scriptpubkey_type": "v0_p2wpkh",
        "scriptpubkey_address": "bc1qt698khk6lsw9czzljx5emmnn8du36sty3n2mm3",
        "value": 335680
      },
      "scriptsig": "",
      "scriptsig_asm": "",
      "witness": [
        "3045022100fb3adc1639a22d36c594a2084cfeff6a941c027fc7db4249b08a4b921d811d7e02205f2e77953e0eca487e3cb9943a12692aa397deb8ecd7cc86b1475f87f8bfd73601",
        "03f2bbd444c377afdd5f57d8cdac1d961845324c5b9913a3a9994c7e5cff15e49d"
      ],
      "is_coinbase": false,
      "sequence": 4294967295
    },
    {
      "txid": "3d807a7dc24b0e9b7a2e3f0b92d87b346b56f0b255c924a12bbe9eee8bc54594",
      "vout": 1,
      "prevout": {
        "scriptpubkey": "00145e8a7b5edafc1c5c085f91a99dee733b791d4164",
        "scriptpubkey_asm": "OP_0 OP_PUSHBYTES_20 5e8a7b5edafc1c5c085f91a99dee733b791d4164",
        "scriptpubkey_type": "v0_p2wpkh",
        "scriptpubkey_address": "bc1qt698khk6lsw9czzljx5emmnn8du36sty3n2mm3",
        "value": 434960
      },
      "scriptsig": "",
      "scriptsig_asm": "",
      "witness": [
        "3045022100cc0ee29f7a56c1d29f4afae7baa9bf9e66efd861d20f4f8e875283deb22a276302207e9709a437f0c5773f2f40b76dc6abccba5f6c6ca119c20a00facec1ada9debe01",
        "03f2bbd444c377afdd5f57d8cdac1d961845324c5b9913a3a9994c7e5cff15e49d"
      ],
      "is_coinbase": false,
      "sequence": 4294967295
    },
    {
      "txid": "344fccc229a2e3deaf7c848f2486f0f236bcc5441582c7414a577f5363b801c9",
      "vout": 0,
      "prevout": {
        "scriptpubkey": "00145e8a7b5edafc1c5c085f91a99dee733b791d4164",
        "scriptpubkey_asm": "OP_0 OP_PUSHBYTES_20 5e8a7b5edafc1c5c085f91a99dee733b791d4164",
        "scriptpubkey_type": "v0_p2wpkh",
        "scriptpubkey_address": "bc1qt698khk6lsw9czzljx5emmnn8du36sty3n2mm3",
        "value": 534735
      },
      "scriptsig": "",
      "scriptsig_asm": "",
      "witness": [
        "304402205544e43ea665dc973dcd0f895aa9ab0e12b2362f56a53c346d927d6ee1df14b00220285fba7256c4089c508794d892c94d4990698ac13fce73167881d767270e3ea801",
        "03f2bbd444c377afdd5f57d8cdac1d961845324c5b9913a3a9994c7e5cff15e49d"
      ],
      "is_coinbase": false,
      "sequence": 4294967295
    },
    {
      "txid": "c371f5701046e1e14bf02e4c34d1d00cbdd8b5505436c1bef70c34c737c20674",
      "vout": 1,
      "prevout": {
        "scriptpubkey": "00145e8a7b5edafc1c5c085f91a99dee733b791d4164",
        "scriptpubkey_asm": "OP_0 OP_PUSHBYTES_20 5e8a7b5edafc1c5c085f91a99dee733b791d4164",
        "scriptpubkey_type": "v0_p2wpkh",
        "scriptpubkey_address": "bc1qt698khk6lsw9czzljx5emmnn8du36sty3n2mm3",
        "value": 549594
      },
      "scriptsig": "",
      "scriptsig_asm": "",
      "witness": [
        "304502210097f65dd066738116e60166def265a3792e83df3098a3a719c53e61c484b0e51c022026768e0a90b2ac142253d074f65e2938f79d5ec338e4e31f8fdaec2e1142ff9201",
        "03f2bbd444c377afdd5f57d8cdac1d961845324c5b9913a3a9994c7e5cff15e49d"
      ],
      "is_coinbase": false,
      "sequence": 4294967295
    },
    {
      "txid": "1cbb3603f7be7a598e36489c5819d9177d9a2ac67062679046e3c65eae49abe3",
      "vout": 1,
      "prevout": {
        "scriptpubkey": "00145e8a7b5edafc1c5c085f91a99dee733b791d4164",
        "scriptpubkey_asm": "OP_0 OP_PUSHBYTES_20 5e8a7b5edafc1c5c085f91a99dee733b791d4164",
        "scriptpubkey_type": "v0_p2wpkh",
        "scriptpubkey_address": "bc1qt698khk6lsw9czzljx5emmnn8du36sty3n2mm3",
        "value": 1308181
      },
      "scriptsig": "",
      "scriptsig_asm": "",
      "witness": [
        "3045022100fadebb097f7171edd69d87db9f2f3370110447eb236e978e9d1a6b01eb528cc802201f0d9804e22e4fe572120245c8bb626c3d2ad82f82c3f5cab95fc4d05a4ca22901",
        "03f2bbd444c377afdd5f57d8cdac1d961845324c5b9913a3a9994c7e5cff15e49d"
      ],
      "is_coinbase": false,
      "sequence": 4294967295
    }
  ],
  "vout": [
    {
      "scriptpubkey": "76a91475430347e5caa7f4f5109ad33dff01ba0a31dab088ac",
      "scriptpubkey_asm": "OP_DUP OP_HASH160 OP_PUSHBYTES_20 75430347e5caa7f4f5109ad33dff01ba0a31dab0 OP_EQUALVERIFY OP_CHECKSIG",
      "scriptpubkey_type": "p2pkh",
      "scriptpubkey_address": "1Bh2LaRSMBaVciDNJB3zM6xLBMZn3kwSqg",
      "value": 3400000
    },
    {
      "scriptpubkey": "00145e8a7b5edafc1c5c085f91a99dee733b791d4164",
      "scriptpubkey_asm": "OP_0 OP_PUSHBYTES_20 5e8a7b5edafc1c5c085f91a99dee733b791d4164",
      "scriptpubkey_type": "v0_p2wpkh",
      "scriptpubkey_address": "bc1qt698khk6lsw9czzljx5emmnn8du36sty3n2mm3",
      "value": 8618
    }
  ],
  "size": 970,
  "weight": 1933,
  "fee": 13068,
  "status": {
    "confirmed": true,
    "block_height": 834638,
    "block_hash": "000000000000000000025f742c626208ac87e0b7d15054abb4a19ca2d735a54e",
    "block_time": 1710405325
  },
  "hex": "01000000000106eecc5d719a184a4325bcdccde92f373ee4359fd2b9fe21c5c23cb540b51f33370100000000ffffffff49cb48f53fb5d75e6cb6fc27c8ec453a77e043aab076bb939dafc2e3d83a2fb80100000000ffffffff9445c58bee9ebe2ba124c955b2f0566b347bd8920b3f2e7a9b0e4bc27d7a803d0100000000ffffffffc901b863537f574a41c7821544c5bc36f2f086248f847cafdee3a229c2cc4f340000000000ffffffff7406c237c7340cf7bec1365450b5d8bd0cd0d1344c2ef04be1e1461070f571c30100000000ffffffffe3ab49ae5ec6e34690676270c62a9a7d17d919589c48368e597abef70336bb1c0100000000ffffffff0240e13300000000001976a91475430347e5caa7f4f5109ad33dff01ba0a31dab088acaa210000000000001600145e8a7b5edafc1c5c085f91a99dee733b791d416402483045022100b7c04320feac64fc110e08c19ee92db4d419ac9e591561b4f48f588dd1630e070220569e43a769e9e37ad802e245b64e7f2e00afeed93538b3ba93b0c4569846307f012103f2bbd444c377afdd5f57d8cdac1d961845324c5b9913a3a9994c7e5cff15e49d02483045022100fb3adc1639a22d36c594a2084cfeff6a941c027fc7db4249b08a4b921d811d7e02205f2e77953e0eca487e3cb9943a12692aa397deb8ecd7cc86b1475f87f8bfd736012103f2bbd444c377afdd5f57d8cdac1d961845324c5b9913a3a9994c7e5cff15e49d02483045022100cc0ee29f7a56c1d29f4afae7baa9bf9e66efd861d20f4f8e875283deb22a276302207e9709a437f0c5773f2f40b76dc6abccba5f6c6ca119c20a00facec1ada9debe012103f2bbd444c377afdd5f57d8cdac1d961845324c5b9913a3a9994c7e5cff15e49d0247304402205544e43ea665dc973dcd0f895aa9ab0e12b2362f56a53c346d927d6ee1df14b00220285fba7256c4089c508794d892c94d4990698ac13fce73167881d767270e3ea8012103f2bbd444c377afdd5f57d8cdac1d961845324c5b9913a3a9994c7e5cff15e49d0248304502210097f65dd066738116e60166def265a3792e83df3098a3a719c53e61c484b0e51c022026768e0a90b2ac142253d074f65e2938f79d5ec338e4e31f8fdaec2e1142ff92012103f2bbd444c377afdd5f57d8cdac1d961845324c5b9913a3a9994c7e5cff15e49d02483045022100fadebb097f7171edd69d87db9f2f3370110447eb236e978e9d1a6b01eb528cc802201f0d9804e22e4fe572120245c8bb626c3d2ad82f82c3f5cab95fc4d05a4ca229012103f2bbd444c377afdd5f57d8cdac1d961845324c5b9913a3a9994c7e5cff15e49d00000000"
}