{
  "txid": "57a7c1d46ca2bd284d8dbe0f415d0f961a6b02bf134cab8f480346551a028ccd",
  "version": 1,
  "locktime": 0,
  "vin": [
    {
      "txid": "ed2101212c7cf515cc05eb40e85bd5c70001614d925426326a039c8ee0f4be7c",
      "vout": 0,
      "prevout": {
        "scriptpubkey": "00149dcff45a2328813537cd4c5680e82d3548934539",
        "scriptpubkey_asm": "OP_0 OP_PUSHBYTES_20 9dcff45a2328813537cd4c5680e82d3548934539",
        "scriptpubkey_type": "v0_p2wpkh",
        "scriptpubkey_address": "bc1qnh8lgk3r9zqn2d7df3tgp6pdx4yfx3fenq8pj4",
        "value": 25779
      },
      "scriptsig": "",
      "scriptsig_asm": "",
      "witness": [
        "3045022100e07966a580c2c4b7bbe6372dfb089885acd19aab2ff8a3213f376fad251865e202205e34ffbf09727cb28838d1b19296b073376fce46433607e3afd8dc43e9ba5a0001",
        "02ec9d3bb289816c7e7551cf1ed8a4b35b70ad8970819881743907fc647b8184d1"
      ],
      "is_coinbase": false,
      "sequence": 4294967295
    }
  ],
  "vout": [
    {
      "scriptpubkey": "a914add9e62b2dd78d2ecd23906edcfbbc389166945487",
      "scriptpubkey_asm": "OP_HASH160 OP_PUSHBYTES_20 add9e62b2dd78d2ecd23906edcfbbc3891669454 OP_EQUAL",
      "scriptpubkey_type": "p2sh",
      "scriptpubkey_address": "3HYFrdCvkChfpDYzT1W6T3PbGwqe9AddGD",
      "value": 23883
    }
  ],
  "size": 193,
  "weight": 442,
  "fee": 1896,
  "status": {
    "confirmed": true,
    "block_height": 834552,
    "block_hash": "00000000000000000001dd0468a70c94f619251d286585cff57aeb4bd9ede330",
    "block_time": 1710355598
  },
  "hex": "010000000001017cbef4e08e9c036a322654924d610100c7d55be840eb05cc15f57c2c210121ed0000000000ffffffff014b5d00000000000017a914add9e62b2dd78d2ecd23906edcfbbc38916694548702483045022100e07966a580c2c4b7bbe6372dfb089885acd19aab2ff8a3213f376fad251865e202205e34ffbf09727cb28838d1b19296b073376fce46433607e3afd8dc43e9ba5a00012102ec9d3bb289816c7e7551cf1ed8a4b35b70ad8970819881743907fc647b8184d100000000"
}