{
  "txid": "57aaf6c681b513e4c89a2e49a7bad2048d6946169d75407c4ce96ac61d80d277",
  "version": 2,
  "locktime": 0,
  "vin": [
    {
      "txid": "556c4aa36d3d65899e8184ead3a950071f5c55eab9252791f9685ca3525cd69c",
      "vout": 3,
      "prevout": {
        "scriptpubkey": "0014d26bb189873be797bb3746fb3d34f091e0c42624",
        "scriptpubkey_asm": "OP_0 OP_PUSHBYTES_20 d26bb189873be797bb3746fb3d34f091e0c42624",
        "scriptpubkey_type": "v0_p2wpkh",
        "scriptpubkey_address": "bc1q6f4mrzv880ne0wehgman6d8sj8svgf3ytnam2z",
        "value": 83000
      },
      "scriptsig": "",
      "scriptsig_asm": "",
      "witness": [
        "3045022100cae53f18b021904738b1c3b93ba783ee51bd999c65c7a7915fe44fe8fdaca0c502205f65dd7e37a075dff0961a3adb7bc43c735d9978483d3267d47c505b48317c4b01",
        "03e40f55103df2baa83ca6354f2c4fcb90c03d1851cabcad9a1e9ca4b369703924"
      ],
      "is_coinbase": false,
      "sequence": 4294967295
    }
  ],
  "vout": [
    {
      "scriptpubkey": "0014b292c16584d8178b10a7c0a6d4d1d3800d167d1c",
      "scriptpubkey_asm": "OP_0 OP_PUSHBYTES_20 b292c16584d8178b10a7c0a6d4d1d3800d167d1c",
      "scriptpubkey_type": "v0_p2wpkh",
      "scriptpubkey_address": "bc1qk2fvzevymqtcky98czndf5wnsqx3vlgudzryq9",
      "value": 81462
    }
  ],
  "size": 192,
  "weight": 438,
  "fee": 1538,
  "status": {
    "confirmed": true,
    "block_height": 834460,
    "block_hash": "00000000000000000000484a79b643b2524bbce82e5d8a442013fa5b8905ed98",
    "block_time": 1710307468
  },
  "hex": "020000000001019cd65c52a35c68f9912725b9ea555c1f0750a9d3ea84819e89653d6da34a6c550300000000ffffffff01363e010000000000160014b292c16584d8178b10a7c0a6d4d1d3800d167d1c02483045022100cae53f18b021904738b1c3b93ba783ee51bd999c65c7a7915fe44fe8fdaca0c502205f65dd7e37a075dff0961a3adb7bc43c735d9978483d3267d47c505b48317c4b012103e40f55103df2baa83ca6354f2c4fcb90c03d1851cabcad9a1e9ca4b36970392400000000"
}