{
  "txid": "57b8fcabb61b38cd629195cf9942dad532e8a23b3b43a5efd1ffe446f39accff",
  "version": 1,
  "locktime": 0,
  "vin": [
    {
      "txid": "197c1168f99eaccd10b337ad4b1baa6647c9dfdaf3dcf9421c057b2f94bccdc5",
      "vout": 0,
      "prevout": {
        "scriptpubkey": "00142dfe59917f7daddd5ea00e3f3be996075696cf38",
        "scriptpubkey_asm": "OP_0 OP_PUSHBYTES_20 2dfe59917f7daddd5ea00e3f3be996075696cf38",
        "scriptpubkey_type": "v0_p2wpkh",
        "scriptpubkey_address": "bc1q9hl9nytl0kka6h4qpclnh6vkqatfdnec0k76tf",
        "value": 546
      },
      "scriptsig": "",
      "scriptsig_asm": "",
      "witness": [
        "3045022100e969051368ac705fe62fe123950e2bb15469367e524784d5ff05c1a99f1e7aaa022045cded8579482e1c249a08abc4db0a01d648aa909a12f91a3679083806f4c33d01",
        "0330e7ba150c69231bc9e831c17ec570a335a921fce694b8abe2a804d7d4b9a1c5"
      ],
      "is_coinbase": false,
      "sequence": 4294967293
    },
    {
      "txid": "73cfa8b17447dbe8c89f5118e7e127c9665cb3bed6c0ac40c8cdfa2232b741d4",
      "vout": 1,
      "prevout": {
        "scriptpubkey": "00142dfe59917f7daddd5ea00e3f3be996075696cf38",
        "scriptpubkey_asm": "OP_0 OP_PUSHBYTES_20 2dfe59917f7daddd5ea00e3f3be996075696cf38",
        "scriptpubkey_type": "v0_p2wpkh",
        "scriptpubkey_address": "bc1q9hl9nytl0kka6h4qpclnh6vkqatfdnec0k76tf",
        "value": 645784
      },
      "scriptsig": "",
      "scriptsig_asm": "",
      "witness": [
        "30450221009c547b50a17504eb07358b2640a0334f8394abe60cfe9ef3f500754e4e3ca4c102206a4142a8d3038649425bec279e592f45c93428bcbcc351d0a0d4450ae9ce984301",
        "0330e7ba150c69231bc9e831c17ec570a335a921fce694b8abe2a804d7d4b9a1c5"
      ],
      "is_coinbase": false,
      "sequence": 4294967293
    }
  ],
  "vout": [
    {
      "scriptpubkey": "5120287bcc0a7d5d7a4c889a2493c6066f7447cfcca90993196dcd8166a83d5a6eb3",
      "scriptpubkey_asm": "OP_PUSHNUM_1 OP_PUSHBYTES_32 287bcc0a7d5d7a4c889a2493c6066f7447cfcca90993196dcd8166a83d5a6eb3",
      "scriptpubkey_type": "v1_p2tr",
      "scriptpubkey_address": "bc1p9paucznat4ayezy6yjfuvpn0w3ruln9fpxf3jmwds9n2s026d6esug2nez",
      "value": 546
    },
    {
      "scriptpubkey": "00142dfe59917f7daddd5ea00e3f3be996075696cf38",
      "scriptpubkey_asm": "OP_0 OP_PUSHBYTES_20 2dfe59917f7daddd5ea00e3f3be996075696cf38",
      "scriptpubkey_type": "v0_p2wpkh",
      "scriptpubkey_address": "bc1q9hl9nytl0kka6h4qpclnh6vkqatfdnec0k76tf",
      "value": 641976
    }
  ],
  "size": 384,
  "weight": 882,
  "fee": 3808,
  "status": {
    "confirmed": true,
    "block_height": 834638,
    "block_hash": "000000000000000000025f742c626208ac87e0b7d15054abb4a19ca2d735a54e",
    "block_time": 1710405325
  },
  "hex": "01000000000102c5cdbc942f7b051c42f9dcf3dadfc94766aa1b4bad37b310cdac9ef968117c190000000000fdffffffd441b73222facdc840acc0d6beb35c66c927e1e718519fc8e8db4774b1a8cf730100000000fdffffff022202000000000000225120287bcc0a7d5d7a4c889a2493c6066f7447cfcca90993196dcd8166a83d5a6eb3b8cb0900000000001600142dfe59917f7daddd5ea00e3f3be996075696cf3802483045022100e969051368ac705fe62fe123950e2bb15469367e524784d5ff05c1a99f1e7aaa022045cded8579482e1c249a08abc4db0a01d648aa909a12f91a3679083806f4c33d01210330e7ba150c69231bc9e831c17ec570a335a921fce694b8abe2a804d7d4b9a1c5024830450221009c547b50a17504eb07358b2640a0334f8394abe60cfe9ef3f500754e4e3ca4c102206a4142a8d3038649425bec279e592f45c93428bcbcc351d0a0d4450ae9ce984301210330e7ba150c69231bc9e831c17ec570a335a921fce694b8abe2a804d7d4b9a1c500000000"
}