{
  "txid": "57c778b188a39a178e1658e1fc83155d9a41e84a6508028335156900df926b16",
  "version": 2,
  "locktime": 0,
  "vin": [
    {
      "txid": "35a1091db8fe8f236e4baf075134ee81caaf743520ccad323f9ae95c9a151664",
      "vout": 1,
      "prevout": {
        "scriptpubkey": "51204cba3cb95f6257b0917d280e3a40846df02566afe03b5798b2a55d6f4f70e2e4",
        "scriptpubkey_asm": "OP_PUSHNUM_1 OP_PUSHBYTES_32 4cba3cb95f6257b0917d280e3a40846df02566afe03b5798b2a55d6f4f70e2e4",
        "scriptpubkey_type": "v1_p2tr",
        "scriptpubkey_address": "bc1pfjarew2lvftmpyta9q8r5syydhcz2e40uqa40x9j54wk7nmsutjq8rn3dt",
        "value": 76757
      },
      "scriptsig": "",
      "scriptsig_asm": "",
      "witness": [
        "160b3020e5b1ff83412085ebefc69084ccabf09ff8660cc795452adf313ba9aa913580b5bc7c053344609392887ce9bfcc7c1594b4c737ee1dbbbba634dfbe39"
      ],
      "is_coinbase": false,
      "sequence": 2147483649
    }
  ],
  "vout": [
    {
      "scriptpubkey": "5120948137bef079e9948ced5f0a3b289144d1cfcd8107f1140e45463895bd14f23d",
      "scriptpubkey_asm": "OP_PUSHNUM_1 OP_PUSHBYTES_32 948137bef079e9948ced5f0a3b289144d1cfcd8107f1140e45463895bd14f23d",
      "scriptpubkey_type": "v1_p2tr",
      "scriptpubkey_address": "bc1pjjqn00hs085efr8dtu9rk2y3gngulnvpqlc3grj9gcuft0g57g7sgnhhc2",
      "value": 50000
    },
    {
      "scriptpubkey": "51204cba3cb95f6257b0917d280e3a40846df02566afe03b5798b2a55d6f4f70e2e4",
      "scriptpubkey_asm": "OP_PUSHNUM_1 OP_PUSHBYTES_32 4cba3cb95f6257b0917d280e3a40846df02566afe03b5798b2a55d6f4f70e2e4",
      "scriptpubkey_type": "v1_p2tr",
      "scriptpubkey_address": "bc1pfjarew2lvftmpyta9q8r5syydhcz2e40uqa40x9j54wk7nmsutjq8rn3dt",
      "value": 24139
    }
  ],
  "size": 205,
  "weight": 616,
  "fee": 2618,
  "status": {
    "confirmed": true,
    "block_height": 834638,
    "block_hash": "000000000000000000025f742c626208ac87e0b7d15054abb4a19ca2d735a54e",
    "block_time": 1710405325
  },
  "hex": "020000000001016416159a5ce99a3f32adcc203574afca81ee345107af4b6e238ffeb81d09a1350100000000010000800250c3000000000000225120948137bef079e9948ced5f0a3b289144d1cfcd8107f1140e45463895bd14f23d4b5e0000000000002251204cba3cb95f6257b0917d280e3a40846df02566afe03b5798b2a55d6f4f70e2e40140160b3020e5b1ff83412085ebefc69084ccabf09ff8660cc795452adf313ba9aa913580b5bc7c053344609392887ce9bfcc7c1594b4c737ee1dbbbba634dfbe3900000000"
}