{
  "txid": "57d7b09ddf00c95b78ebeb7d5ec1242180379e225da9848835a2df213901b148",
  "version": 2,
  "locktime": 0,
  "vin": [
    {
      "txid": "7280e520b602e31203e8030a14636fbb8a7246d84b2c450c96127b7956f1ef1b",
      "vout": 13,
      "prevout": {
        "scriptpubkey": "001447135b50bb109b4ff1465a23330a361f92220740",
        "scriptpubkey_asm": "OP_0 OP_PUSHBYTES_20 47135b50bb109b4ff1465a23330a361f92220740",
        "scriptpubkey_type": "v0_p2wpkh",
        "scriptpubkey_address": "bc1qguf4k59mzzd5lu2xtg3nxz3kr7fzyp6q8hlkye",
        "value": 2334673
      },
      "scriptsig": "",
      "scriptsig_asm": "",
      "witness": [
        "304402201d7e8564aba3b2cf62b50f6234159b2333fd014551c9856a5f3b4ce916b1e8ff0220200cdea6a55719b9b2668e40b28a036496a10d23e84b541d9ba5fd8a2f49a1c501",
        "02d4c8034f4edf591cbd01d85e46999aa7f28357cb11afd620e1af75ae01256f1f"
      ],
      "is_coinbase": false,
      "sequence": 4294967295
    }
  ],
  "vout": [
    {
      "scriptpubkey": "a914db06f076c177f5937204d2e35a9d3314ea72de3d87",
      "scriptpubkey_asm": "OP_HASH160 OP_PUSHBYTES_20 db06f076c177f5937204d2e35a9d3314ea72de3d OP_EQUAL",
      "scriptpubkey_type": "p2sh",
      "scriptpubkey_address": "3Mf8Dhvpcc7yEX2Pf9wpwbDmrCqgtChqZJ",
      "value": 400000
    },
    {
      "scriptpubkey": "0014f1af68e53658ce1b4cdf7c817a744ad7da511d72",
      "scriptpubkey_asm": "OP_0 OP_PUSHBYTES_20 f1af68e53658ce1b4cdf7c817a744ad7da511d72",
      "scriptpubkey_type": "v0_p2wpkh",
      "scriptpubkey_address": "bc1q7xhk3efktr8pknxl0jqh5az26ld9z8tj272rpv",
      "value": 1932126
    }
  ],
  "size": 223,
  "weight": 565,
  "fee": 2547,
  "status": {
    "confirmed": true,
    "block_height": 834638,
    "block_hash": "000000000000000000025f742c626208ac87e0b7d15054abb4a19ca2d735a54e",
    "block_time": 1710405325
  },
  "hex": "020000000001011beff156797b12960c452c4bd846728abb6f63140a03e80312e302b620e580720d00000000ffffffff02801a06000000000017a914db06f076c177f5937204d2e35a9d3314ea72de3d875e7b1d0000000000160014f1af68e53658ce1b4cdf7c817a744ad7da511d720247304402201d7e8564aba3b2cf62b50f6234159b2333fd014551c9856a5f3b4ce916b1e8ff0220200cdea6a55719b9b2668e40b28a036496a10d23e84b541d9ba5fd8a2f49a1c5012102d4c8034f4edf591cbd01d85e46999aa7f28357cb11afd620e1af75ae01256f1f00000000"
}