{
  "txid": "57dd36f69b16e1f54b77755753c486ec5423497412b2f65a09865a4bb356430b",
  "version": 2,
  "locktime": 834637,
  "vin": [
    {
      "txid": "8b67051186fc1bb6d3a879f9696621d0352af7abfa6278b1d2c70b6c5f042d3d",
      "vout": 0,
      "prevout": {
        "scriptpubkey": "0014fa81e5cd1ed206d2d3f89276d436331728bf3118",
        "scriptpubkey_asm": "OP_0 OP_PUSHBYTES_20 fa81e5cd1ed206d2d3f89276d436331728bf3118",
        "scriptpubkey_type": "v0_p2wpkh",
        "scriptpubkey_address": "bc1ql2q7tng76grd95lcjfmdgd3nzu5t7vgc7zvzxv",
        "value": 308264510
      },
      "scriptsig": "",
      "scriptsig_asm": "",
      "witness": [
        "30440220525bb2f76e674d2e607a61adbed5d4a8fe3af288001d9e4782bfbc55f50965bd02204dc4b3df3b1613f2a426909f42ab4ccb9db97692f5225d2e8eb0bdf5b6be488401",
        "03e186e00a5f5007eeb1e261311272f11f1985850424cb3215768b072ed0f280af"
      ],
      "is_coinbase": false,
      "sequence": 4294967294
    }
  ],
  "vout": [
    {
      "scriptpubkey": "a9146d8c718806aee1c32da92010cf5153f952e4e60187",
      "scriptpubkey_asm": "OP_HASH160 OP_PUSHBYTES_20 6d8c718806aee1c32da92010cf5153f952e4e601 OP_EQUAL",
      "scriptpubkey_type": "p2sh",
      "scriptpubkey_address": "3BgFpdvfrNqoTxkRGRixyQ4yypxHPYHSMc",
      "value": 1100500
    },
    {
      "scriptpubkey": "001440515109cbd8fd0d8a0d89e1555fbd3bd1ee5d0f",
      "scriptpubkey_asm": "OP_0 OP_PUSHBYTES_20 40515109cbd8fd0d8a0d89e1555fbd3bd1ee5d0f",
      "scriptpubkey_type": "v0_p2wpkh",
      "scriptpubkey_address": "bc1qgpg4zzwtmr7smzsd38s42haa80g7uhg0xfj543",
      "value": 307160530
    }
  ],
  "size": 223,
  "weight": 565,
  "fee": 3480,
  "status": {
    "confirmed": true,
    "block_height": 834638,
    "block_hash": "000000000000000000025f742c626208ac87e0b7d15054abb4a19ca2d735a54e",
    "block_time": 1710405325
  },
  "hex": "020000000001013d2d045f6c0bc7d2b17862faabf72a35d0216669f979a8d3b61bfc861105678b0000000000feffffff02d4ca10000000000017a9146d8c718806aee1c32da92010cf5153f952e4e60187d2e54e120000000016001440515109cbd8fd0d8a0d89e1555fbd3bd1ee5d0f024730440220525bb2f76e674d2e607a61adbed5d4a8fe3af288001d9e4782bfbc55f50965bd02204dc4b3df3b1613f2a426909f42ab4ccb9db97692f5225d2e8eb0bdf5b6be4884012103e186e00a5f5007eeb1e261311272f11f1985850424cb3215768b072ed0f280af4dbc0c00"
}