{
  "txid": "57f115bb1460d42ed38bb9cc4e167fa41895256c739c1e9d57b26fd32bb8329e",
  "version": 2,
  "locktime": 0,
  "vin": [
    {
      "txid": "d4e2e590ac3e52d5dd077d97df033158e5bc1e11ba29ab6edb5ea54477a62ef7",
      "vout": 1,
      "prevout": {
        "scriptpubkey": "0014c4d7b56345be484effd447b0bc879dbe53dbeb35",
        "scriptpubkey_asm": "OP_0 OP_PUSHBYTES_20 c4d7b56345be484effd447b0bc879dbe53dbeb35",
        "scriptpubkey_type": "v0_p2wpkh",
        "scriptpubkey_address": "bc1qcntm2c69heyyal75g7ctepuahefah6e4z88uuh",
        "value": 245177511
      },
      "scriptsig": "",
      "scriptsig_asm": "",
      "witness": [
        "3044022017b0eadd0b71d8e2008d7fca0fb700941c5e97a4c4444752c996d7953d2ccbb80220039f49d12410a2dad9e7a0f7a00201e40bc23a52a9994032543e531b2aa8b04a01",
        "037064266119427889fa86e3cf9bc156ed065270fe1dfa47d0cf53c34aca8b727c"
      ],
      "is_coinbase": false,
      "sequence": 4294967293
    }
  ],
  "vout": [
    {
      "scriptpubkey": "a914ad30f40e9ae7d5713210f2cfccdc740e4721913587",
      "scriptpubkey_asm": "OP_HASH160 OP_PUSHBYTES_20 ad30f40e9ae7d5713210f2cfccdc740e47219135 OP_EQUAL",
      "scriptpubkey_type": "p2sh",
      "scriptpubkey_address": "3HUmU4wD4B5EC4EZyXGqZxdPB16Snj5ooX",
      "value": 245000000
    },
    {
      "scriptpubkey": "0014c4d7b56345be484effd447b0bc879dbe53dbeb35",
      "scriptpubkey_asm": "OP_0 OP_PUSHBYTES_20 c4d7b56345be484effd447b0bc879dbe53dbeb35",
      "scriptpubkey_type": "v0_p2wpkh",
      "scriptpubkey_address": "bc1qcntm2c69heyyal75g7ctepuahefah6e4z88uuh",
      "value": 174813
    }
  ],
  "size": 223,
  "weight": 565,
  "fee": 2698,
  "status": {
    "confirmed": true,
    "block_height": 834638,
    "block_hash": "000000000000000000025f742c626208ac87e0b7d15054abb4a19ca2d735a54e",
    "block_time": 1710405325
  },
  "hex": "02000000000101f72ea67744a55edb6eab29ba111ebce5583103df977d07ddd5523eac90e5e2d40100000000fdffffff0240679a0e0000000017a914ad30f40e9ae7d5713210f2cfccdc740e4721913587ddaa020000000000160014c4d7b56345be484effd447b0bc879dbe53dbeb3502473044022017b0eadd0b71d8e2008d7fca0fb700941c5e97a4c4444752c996d7953d2ccbb80220039f49d12410a2dad9e7a0f7a00201e40bc23a52a9994032543e531b2aa8b04a0121037064266119427889fa86e3cf9bc156ed065270fe1dfa47d0cf53c34aca8b727c00000000"
}