{
  "txid": "57f2c10948eb0b47aa36ebbd374b4a557c7162e4cd12ef3eacbb11d1f8655814",
  "version": 2,
  "locktime": 0,
  "vin": [
    {
      "txid": "530de9af2c757f1d541f6a5ce55c3de505dd357ef94029784985a7a267b4b5ef",
      "vout": 0,
      "prevout": {
        "scriptpubkey": "0014da7f9f79626569d5b9b1e9caa783c0ee902c4bf9",
        "scriptpubkey_asm": "OP_0 OP_PUSHBYTES_20 da7f9f79626569d5b9b1e9caa783c0ee902c4bf9",
        "scriptpubkey_type": "v0_p2wpkh",
        "scriptpubkey_address": "bc1qmfle77tzv45atwd3a8920q7qa6gzcjlephmy58",
        "value": 546
      },
      "scriptsig": "",
      "scriptsig_asm": "",
      "witness": [
        "304402204af9ad8ad064acde2d3e7ed5f05ebd7822b9ed5b55307c6d3182c33d9495408e02200bd507335cb971ab0a72e2c15266df32467f95fae790c5a12e5313db35b46cf301",
        "03b1cacb4f6f060427030b59f3480b9f59f7fd6252fa5d82ed40a222325a5c7c40"
      ],
      "is_coinbase": false,
      "sequence": 4294967295
    },
    {
      "txid": "eb6708dafae80909347cb8d47f453ee36bc79d04c1e86f3608a41b8477b70f00",
      "vout": 1,
      "prevout": {
        "scriptpubkey": "0014da7f9f79626569d5b9b1e9caa783c0ee902c4bf9",
        "scriptpubkey_asm": "OP_0 OP_PUSHBYTES_20 da7f9f79626569d5b9b1e9caa783c0ee902c4bf9",
        "scriptpubkey_type": "v0_p2wpkh",
        "scriptpubkey_address": "bc1qmfle77tzv45atwd3a8920q7qa6gzcjlephmy58",
        "value": 422634
      },
      "scriptsig": "",
      "scriptsig_asm": "",
      "witness": [
        "304402203025d2b6eac665f51aa7612ced6657df805e86c6f4d797b47c7938a18e6137c902204b779378519eeefa69bfa9a381b92f4e1558b2809fe90eaa0a7e2a46aeb497f001",
        "03b1cacb4f6f060427030b59f3480b9f59f7fd6252fa5d82ed40a222325a5c7c40"
      ],
      "is_coinbase": false,
      "sequence": 4294967295
    }
  ],
  "vout": [
    {
      "scriptpubkey": "0014da7f9f79626569d5b9b1e9caa783c0ee902c4bf9",
      "scriptpubkey_asm": "OP_0 OP_PUSHBYTES_20 da7f9f79626569d5b9b1e9caa783c0ee902c4bf9",
      "scriptpubkey_type": "v0_p2wpkh",
      "scriptpubkey_address": "bc1qmfle77tzv45atwd3a8920q7qa6gzcjlephmy58",
      "value": 546
    },
    {
      "scriptpubkey": "0014da7f9f79626569d5b9b1e9caa783c0ee902c4bf9",
      "scriptpubkey_asm": "OP_0 OP_PUSHBYTES_20 da7f9f79626569d5b9b1e9caa783c0ee902c4bf9",
      "scriptpubkey_type": "v0_p2wpkh",
      "scriptpubkey_address": "bc1qmfle77tzv45atwd3a8920q7qa6gzcjlephmy58",
      "value": 419917
    }
  ],
  "size": 370,
  "weight": 832,
  "fee": 2717,
  "status": {
    "confirmed": true,
    "block_height": 834460,
    "block_hash": "00000000000000000000484a79b643b2524bbce82e5d8a442013fa5b8905ed98",
    "block_time": 1710307468
  },
  "hex": "02000000000102efb5b467a2a78549782940f97e35dd05e53d5ce55c6a1f541d7f752cafe90d530000000000ffffffff000fb777841ba408366fe8c1049dc76be33e457fd4b87c340909e8fada0867eb0100000000ffffffff022202000000000000160014da7f9f79626569d5b9b1e9caa783c0ee902c4bf94d68060000000000160014da7f9f79626569d5b9b1e9caa783c0ee902c4bf90247304402204af9ad8ad064acde2d3e7ed5f05ebd7822b9ed5b55307c6d3182c33d9495408e02200bd507335cb971ab0a72e2c15266df32467f95fae790c5a12e5313db35b46cf3012103b1cacb4f6f060427030b59f3480b9f59f7fd6252fa5d82ed40a222325a5c7c400247304402203025d2b6eac665f51aa7612ced6657df805e86c6f4d797b47c7938a18e6137c902204b779378519eeefa69bfa9a381b92f4e1558b2809fe90eaa0a7e2a46aeb497f0012103b1cacb4f6f060427030b59f3480b9f59f7fd6252fa5d82ed40a222325a5c7c4000000000"
}