{
  "txid": "57f2c92dc8625a9422aafaff1f0208759c6ad167dba066a2b1e33c903af124e7",
  "version": 2,
  "locktime": 0,
  "vin": [
    {
      "txid": "534de7476f3b0a5b6f81476e1e4aa145a4a5b4b8464a746a07f54566579335d2",
      "vout": 0,
      "prevout": {
        "scriptpubkey": "51205bc4b598a27f4f07a0d50d9a56e7198f3ce21c090b3b6048a465b6f37014f515",
        "scriptpubkey_asm": "OP_PUSHNUM_1 OP_PUSHBYTES_32 5bc4b598a27f4f07a0d50d9a56e7198f3ce21c090b3b6048a465b6f37014f515",
        "scriptpubkey_type": "v1_p2tr",
        "scriptpubkey_address": "bc1pt0zttx9z0a8s0gx4pkd9dece3u7wy8qfpvakqj9yvkm0xuq5752sq86z5u",
        "value": 51027
      },
      "scriptsig": "",
      "scriptsig_asm": "",
      "witness": [
        "aa581683cb1b5260d8e600dadb8fc032b7406a215ee84fd4f59850821f35ebcea9150d498fe0bcb5e81c3b639c0bfe6e88bd0892344eee88967720de2a5abf8f",
        "20f2d00e1cce0b839d2e197679cac7a15152ec244338032c7767f72c1332d49a65ac0063036f7264010109696d6167652f706e67004d520189504e470d0a1a0a0000000d4948445200000020000000200806000000737a7af400000006624b474400ff00ff00ffa0bda79300000107494441545885ed564b0e8320141c9a2e3d8f17708bc9f3a490e8b617e879dcb7ab97a0469867b56c9cc418109861de273a1fe4838a78d424bf0500c0935d384aa40feda39c2740892d875af664058c124dc40addc3eccf0ae8a3d475203de4aa1ca0aba08f02e7507cac21a3ab601a22e6ae2dae6b86081f4e7680250780b96b310d7cb88a022ce4474454ef84b700ba0a9ad77b314ef322f7ad84ac037b09a8734abcb7864944da81d2adac95a2c83ae0836cec55e87cee3bd3901cf34f68ed052c39405641ce895fc869016b82dcdb0a2a040a26ab2db7070c5570e47006d53b617501a6105891e68c0fb219037f70609d373ec862ae4a0852272e17b02eddf5d8d407aec017c0cd7bceb49f608d0000000049454e44ae426082680063036f726401011e6170706c69636174696f6e2f6a736f6e3b636861727365743d7574662d38004d67017b2270223a22766f7264222c2276223a312c227479223a22696e7363222c22636f6c223a2233346530363736386230636362346536643861326337343162663031666463396637373235643761366430343436326663323530656661313737376361376337222c22696964223a2253696c6b20536b756c6c205363686f6f6c204f47222c227075626c223a2231455337623370636a527a4667796969714c7278484b546e43686535364c4a485937222c226e6f6e6365223a3137302c226d696e746572223a2262633170376167686c3677397077383530617475776c356b6b77767363737935777967776a6768387668737375307a367934773767786173777366376c6b222c22736967223a22484f383968653356702f36417837476d2f384f35544b6f59584d374b585041733049724772522f427061654162587a485644423146447832566478456b34615a6e516e2f612f7651492b336578784f57472b724265474d3d227d68",
        "c1f2d00e1cce0b839d2e197679cac7a15152ec244338032c7767f72c1332d49a65675a92934efa5e4869b2432a3e00abfc6819367af43949c2edc693b32d23ac05"
      ],
      "is_coinbase": false,
      "sequence": 4294967293
    }
  ],
  "vout": [
    {
      "scriptpubkey": "5120f7517fe9c50b8f47f57c77e96b3990c40947110e922e765e10e3c5a255de41bb",
      "scriptpubkey_asm": "OP_PUSHNUM_1 OP_PUSHBYTES_32 f7517fe9c50b8f47f57c77e96b3990c40947110e922e765e10e3c5a255de41bb",
      "scriptpubkey_type": "v1_p2tr",
      "scriptpubkey_address": "bc1p7aghl6w9pw850atuwl5kkwvscsy5wygwjgh8vhssu0z6y4w7gxaswsf7lk",
      "value": 1000
    },
    {
      "scriptpubkey": "a91436731fe2e21ec7dc84af3e3989e0a269b4df613f87",
      "scriptpubkey_asm": "OP_HASH160 OP_PUSHBYTES_20 36731fe2e21ec7dc84af3e3989e0a269b4df613f OP_EQUAL",
      "scriptpubkey_type": "p2sh",
      "scriptpubkey_address": "36evKtydBCAXM4jRSKSnXSxAuMrBU2sxRB",
      "value": 42774
    },
    {
      "scriptpubkey": "51200705a5767db892e98125775049b1a13dd9ecdc8aea0df413cabbee683e871012",
      "scriptpubkey_asm": "OP_PUSHNUM_1 OP_PUSHBYTES_32 0705a5767db892e98125775049b1a13dd9ecdc8aea0df413cabbee683e871012",
      "scriptpubkey_type": "v1_p2tr",
      "scriptpubkey_address": "bc1pquz62anahzfwnqf9wagynvdp8hv7ehy2agxlgy72h0hxs058zqfqk8ksyq",
      "value": 2820
    }
  ],
  "size": 1104,
  "weight": 1611,
  "fee": 4433,
  "status": {
    "confirmed": true,
    "block_height": 834464,
    "block_hash": "0000000000000000000177a0869a911a2b65c9bdcd5a8bcb02b68f305bee848e",
    "block_time": 1710308296
  },
  "hex": "02000000000101d23593576645f5076a744a46b8b4a5a445a14a1e6e47816f5b0a3b6f47e74d530000000000fdffffff03e803000000000000225120f7517fe9c50b8f47f57c77e96b3990c40947110e922e765e10e3c5a255de41bb16a700000000000017a91436731fe2e21ec7dc84af3e3989e0a269b4df613f87040b0000000000002251200705a5767db892e98125775049b1a13dd9ecdc8aea0df413cabbee683e8710120340aa581683cb1b5260d8e600dadb8fc032b7406a215ee84fd4f59850821f35ebcea9150d498fe0bcb5e81c3b639c0bfe6e88bd0892344eee88967720de2a5abf8ffd1e0320f2d00e1cce0b839d2e197679cac7a15152ec244338032c7767f72c1332d49a65ac0063036f7264010109696d6167652f706e67004d520189504e470d0a1a0a0000000d4948445200000020000000200806000000737a7af400000006624b474400ff00ff00ffa0bda79300000107494441545885ed564b0e8320141c9a2e3d8f17708bc9f3a490e8b617e879dcb7ab97a0469867b56c9cc418109861de273a1fe4838a78d424bf0500c0935d384aa40feda39c2740892d875af664058c124dc40addc3eccf0ae8a3d475203de4aa1ca0aba08f02e7507cac21a3ab601a22e6ae2dae6b86081f4e7680250780b96b310d7cb88a022ce4474454ef84b700ba0a9ad77b314ef322f7ad84ac037b09a8734abcb7864944da81d2adac95a2c83ae0836cec55e87cee3bd3901cf34f68ed052c39405641ce895fc869016b82dcdb0a2a040a26ab2db7070c5570e47006d53b617501a6105891e68c0fb219037f70609d373ec862ae4a0852272e17b02eddf5d8d407aec017c0cd7bceb49f608d0000000049454e44ae426082680063036f726401011e6170706c69636174696f6e2f6a736f6e3b636861727365743d7574662d38004d67017b2270223a22766f7264222c2276223a312c227479223a22696e7363222c22636f6c223a2233346530363736386230636362346536643861326337343162663031666463396637373235643761366430343436326663323530656661313737376361376337222c22696964223a2253696c6b20536b756c6c205363686f6f6c204f47222c227075626c223a2231455337623370636a527a4667796969714c7278484b546e43686535364c4a485937222c226e6f6e6365223a3137302c226d696e746572223a2262633170376167686c3677397077383530617475776c356b6b77767363737935777967776a6768387668737375307a367934773767786173777366376c6b222c22736967223a22484f383968653356702f36417837476d2f384f35544b6f59584d374b585041733049724772522f427061654162587a485644423146447832566478456b34615a6e516e2f612f7651492b336578784f57472b724265474d3d227d6841c1f2d00e1cce0b839d2e197679cac7a15152ec244338032c7767f72c1332d49a65675a92934efa5e4869b2432a3e00abfc6819367af43949c2edc693b32d23ac0500000000"
}