{
  "txid": "580e0bcc88214146b362948cd2154b9100d2a895c1741106165cefe487199054",
  "version": 1,
  "locktime": 0,
  "vin": [
    {
      "txid": "083f3e202dd23de344c633d65df1a87b1f8ce53cd4be1b12937d47c90b48bf91",
      "vout": 0,
      "prevout": {
        "scriptpubkey": "0014074986b8a3b662702fdc7bf3b33e2d09a616ebd2",
        "scriptpubkey_asm": "OP_0 OP_PUSHBYTES_20 074986b8a3b662702fdc7bf3b33e2d09a616ebd2",
        "scriptpubkey_type": "v0_p2wpkh",
        "scriptpubkey_address": "bc1qqaycdw9rke38qt7u00emx03dpxnpd67jaqe9yf",
        "value": 344306
      },
      "scriptsig": "",
      "scriptsig_asm": "",
      "witness": [
        "304402207eef9dd0b6b27f44cf8e875dea894d303263d16e7329f9c312129ad2b95686d902205ca501ac35ea3256672a11e8fcd540dfe09e3a8c4fc2685d800d9ba7c30c141801",
        "039215a54a562df57558441455f5e2458cc3150fba854242baacd6f4e6f18ae8bf"
      ],
      "is_coinbase": false,
      "sequence": 4294967295
    },
    {
      "txid": "02836ca880ccdb13ab378d31b75c997ef60749f8ecca4d9132d9eb1cb0653d56",
      "vout": 1,
      "prevout": {
        "scriptpubkey": "0014074986b8a3b662702fdc7bf3b33e2d09a616ebd2",
        "scriptpubkey_asm": "OP_0 OP_PUSHBYTES_20 074986b8a3b662702fdc7bf3b33e2d09a616ebd2",
        "scriptpubkey_type": "v0_p2wpkh",
        "scriptpubkey_address": "bc1qqaycdw9rke38qt7u00emx03dpxnpd67jaqe9yf",
        "value": 13895
      },
      "scriptsig": "",
      "scriptsig_asm": "",
      "witness": [
        "30450221009b59f6d62c46fa4fff1f4a80135972f6e51ad7dfa347f05c97a6f5a3b20aefad02203bad0ef7d06f5d743e3ccc2f24a24f3bf8fdc058e078abded5b92a8183b6915101",
        "039215a54a562df57558441455f5e2458cc3150fba854242baacd6f4e6f18ae8bf"
      ],
      "is_coinbase": false,
      "sequence": 4294967295
    }
  ],
  "vout": [
    {
      "scriptpubkey": "a91492eb6e6ca1dc9e6f4890554f5036827e0641116987",
      "scriptpubkey_asm": "OP_HASH160 OP_PUSHBYTES_20 92eb6e6ca1dc9e6f4890554f5036827e06411169 OP_EQUAL",
      "scriptpubkey_type": "p2sh",
      "scriptpubkey_address": "3F5rccCKFYGLmwD3ZaPb9WkXK7TrwdpCdE",
      "value": 353368
    }
  ],
  "size": 341,
  "weight": 713,
  "fee": 4833,
  "status": {
    "confirmed": true,
    "block_height": 834638,
    "block_hash": "000000000000000000025f742c626208ac87e0b7d15054abb4a19ca2d735a54e",
    "block_time": 1710405325
  },
  "hex": "0100000000010291bf480bc9477d93121bbed43ce58c1f7ba8f15dd633c644e33dd22d203e3f080000000000ffffffff563d65b01cebd932914dcaecf84907f67e995cb7318d37ab13dbcc80a86c83020100000000ffffffff01586405000000000017a91492eb6e6ca1dc9e6f4890554f5036827e06411169870247304402207eef9dd0b6b27f44cf8e875dea894d303263d16e7329f9c312129ad2b95686d902205ca501ac35ea3256672a11e8fcd540dfe09e3a8c4fc2685d800d9ba7c30c14180121039215a54a562df57558441455f5e2458cc3150fba854242baacd6f4e6f18ae8bf024830450221009b59f6d62c46fa4fff1f4a80135972f6e51ad7dfa347f05c97a6f5a3b20aefad02203bad0ef7d06f5d743e3ccc2f24a24f3bf8fdc058e078abded5b92a8183b691510121039215a54a562df57558441455f5e2458cc3150fba854242baacd6f4e6f18ae8bf00000000"
}