{
  "txid": "581df4ce752444482c85e1ced92256b86e81fc8ccce8350ee1115f091033832a",
  "version": 2,
  "locktime": 0,
  "vin": [
    {
      "txid": "c5c8f19178fed3ad166d0a6be48695a10ee173c590f72e54e501da7189ccec7f",
      "vout": 7,
      "prevout": {
        "scriptpubkey": "5120beaeed8a42b16be4ec25a06c06c947d40b35f239923a0e0011e7690597075280",
        "scriptpubkey_asm": "OP_PUSHNUM_1 OP_PUSHBYTES_32 beaeed8a42b16be4ec25a06c06c947d40b35f239923a0e0011e7690597075280",
        "scriptpubkey_type": "v1_p2tr",
        "scriptpubkey_address": "bc1ph6hwmzjzk947fmp95pkqdj286s9ntu3ejgaquqq3ua5st9c822qqnx9w7h",
        "value": 2586
      },
      "scriptsig": "",
      "scriptsig_asm": "",
      "witness": [
        "6007b78fd10f0843303562a9cd0a216a467a0f78a8639c1a83ebcfa5ba154442fe481c897223ea93a531a49344505d8e4caac92eb994bba322758e4b60aad2e2",
        "20efdf21fabcbbda63732e380c9cb64331690c0dec8e192552cf9d31f786755532ac0063036f7264010118746578742f706c61696e3b636861727365743d7574662d38004c827b2270223a22746170222c226f70223a22646d742d6d696e74222c22646570223a22303238313934396339656438363764633061323338346636303239623438633766333032663831613163333162653763363030306333636439626135616435656930222c227469636b223a22626268222c22626c6b223a22383334343432227d68",
        "c1efdf21fabcbbda63732e380c9cb64331690c0dec8e192552cf9d31f786755532"
      ],
      "is_coinbase": false,
      "sequence": 4294967293
    }
  ],
  "vout": [
    {
      "scriptpubkey": "5120343476391501163ffc69f78bf5566876e8cc2b880ae6b0093327194a6c7b04b5",
      "scriptpubkey_asm": "OP_PUSHNUM_1 OP_PUSHBYTES_32 343476391501163ffc69f78bf5566876e8cc2b880ae6b0093327194a6c7b04b5",
      "scriptpubkey_type": "v1_p2tr",
      "scriptpubkey_address": "bc1pxs68vwg4qytrllrf779l24ngwm5vc2ugptntqzfnyuv55mrmqj6sgcwchg",
      "value": 546
    }
  ],
  "size": 398,
  "weight": 680,
  "fee": 2040,
  "status": {
    "confirmed": true,
    "block_height": 834460,
    "block_hash": "00000000000000000000484a79b643b2524bbce82e5d8a442013fa5b8905ed98",
    "block_time": 1710307468
  },
  "hex": "020000000001017feccc8971da01e5542ef790c573e10ea19586e46b0a6d16add3fe7891f1c8c50700000000fdffffff012202000000000000225120343476391501163ffc69f78bf5566876e8cc2b880ae6b0093327194a6c7b04b503406007b78fd10f0843303562a9cd0a216a467a0f78a8639c1a83ebcfa5ba154442fe481c897223ea93a531a49344505d8e4caac92eb994bba322758e4b60aad2e2c920efdf21fabcbbda63732e380c9cb64331690c0dec8e192552cf9d31f786755532ac0063036f7264010118746578742f706c61696e3b636861727365743d7574662d38004c827b2270223a22746170222c226f70223a22646d742d6d696e74222c22646570223a22303238313934396339656438363764633061323338346636303239623438633766333032663831613163333162653763363030306333636439626135616435656930222c227469636b223a22626268222c22626c6b223a22383334343432227d6821c1efdf21fabcbbda63732e380c9cb64331690c0dec8e192552cf9d31f78675553200000000"
}