{
  "txid": "5825095ea9ca0a8436e2a7ac856c79278677bc0e9cfffb55c33b5bccb31af272",
  "version": 1,
  "locktime": 0,
  "vin": [
    {
      "txid": "88888889c16ac289e7788fe16ba2064d4cf8c5c94d23fe5ce572cf342ca0f5d7",
      "vout": 0,
      "prevout": {
        "scriptpubkey": "5120ce914d401807cdbdc908a098d9baa08635784a15835f757657c471d110e9da7c",
        "scriptpubkey_asm": "OP_PUSHNUM_1 OP_PUSHBYTES_32 ce914d401807cdbdc908a098d9baa08635784a15835f757657c471d110e9da7c",
        "scriptpubkey_type": "v1_p2tr",
        "scriptpubkey_address": "bc1pe6g56sqcqlxmmjgg5zvdnw4qsc6hsjs4sd0h2ajhc3cazy8fmf7qz6dldu",
        "value": 11627
      },
      "scriptsig": "",
      "scriptsig_asm": "",
      "witness": [
        "0d8a6af7b6e6607c65cd2cfe5ec3657b903f26fcb03b5b876eec594dc3ea3aa78664f161b44548c72e3e7f1ebf438a5080203956f2951d1ee46f0c8b352b14b383",
        "206e52c938c29c99e9a77647b2895f750d08ffac8b4128f105ecf15445f35d3cc5ac00630461746f6d03646d7442a16461726773a468626974776f726b6367383838383838386b6d696e745f7469636b657268696e66696e697479656e6f6e63651a008109fc6474696d651a65dc494f68",
        "c06e52c938c29c99e9a77647b2895f750d08ffac8b4128f105ecf15445f35d3cc5"
      ],
      "is_coinbase": false,
      "sequence": 4294967293
    }
  ],
  "vout": [
    {
      "scriptpubkey": "5120bf94882e5d0c036449dc3f1782adc8fe707e6d03ea0ecdd97e048b8da94a44b1",
      "scriptpubkey_asm": "OP_PUSHNUM_1 OP_PUSHBYTES_32 bf94882e5d0c036449dc3f1782adc8fe707e6d03ea0ecdd97e048b8da94a44b1",
      "scriptpubkey_type": "v1_p2tr",
      "scriptpubkey_address": "bc1ph72gstjapspkgjwu8utc9twglec8umgrag8vmkt7qj9cm222gjcsurlt3p",
      "value": 9999
    }
  ],
  "size": 311,
  "weight": 593,
  "fee": 1628,
  "status": {
    "confirmed": true,
    "block_height": 834464,
    "block_hash": "0000000000000000000177a0869a911a2b65c9bdcd5a8bcb02b68f305bee848e",
    "block_time": 1710308296
  },
  "hex": "01000000000101d7f5a02c34cf72e55cfe234dc9c5f84c4d06a26be18f78e789c26ac1898888880000000000fdffffff010f27000000000000225120bf94882e5d0c036449dc3f1782adc8fe707e6d03ea0ecdd97e048b8da94a44b103410d8a6af7b6e6607c65cd2cfe5ec3657b903f26fcb03b5b876eec594dc3ea3aa78664f161b44548c72e3e7f1ebf438a5080203956f2951d1ee46f0c8b352b14b38371206e52c938c29c99e9a77647b2895f750d08ffac8b4128f105ecf15445f35d3cc5ac00630461746f6d03646d7442a16461726773a468626974776f726b6367383838383838386b6d696e745f7469636b657268696e66696e697479656e6f6e63651a008109fc6474696d651a65dc494f6821c06e52c938c29c99e9a77647b2895f750d08ffac8b4128f105ecf15445f35d3cc500000000"
}