{
  "txid": "5834b0b8fa1f0855948902bd9acb59235f08e99c50e669cd21df1b9f800a2854",
  "version": 2,
  "locktime": 0,
  "vin": [
    {
      "txid": "ff11ef06ca9069766cca030f1be542cef8f1864f0236dfb07457a3bb949c3b45",
      "vout": 22,
      "prevout": {
        "scriptpubkey": "5120ab71745472051894656fa47aefcc1485ecb8cc4ac77701ae3dfe7bdce43874fd",
        "scriptpubkey_asm": "OP_PUSHNUM_1 OP_PUSHBYTES_32 ab71745472051894656fa47aefcc1485ecb8cc4ac77701ae3dfe7bdce43874fd",
        "scriptpubkey_type": "v1_p2tr",
        "scriptpubkey_address": "bc1p4dchg4rjq5vfget053awlnq5shkt3nz2camsrt3aleaaeepcwn7sxmsnm7",
        "value": 2142
      },
      "scriptsig": "",
      "scriptsig_asm": "",
      "witness": [
        "9fea42981867f53357ad3a378a65fc4bf4aea910b92443fdc40e02fd594bcfe38b02de39c8b32e5dc4b9942c4a735ac190a8535af62b394c8d74b550bb7e9551",
        "20230ff75c5daf92eccc19d7f24e89b03166565c023fbdc614ca88b6a4c994a6acac0063036f7264010118746578742f706c61696e3b636861727365743d7574662d3800377b2270223a226272632d3230222c226f70223a227472616e73666572222c227469636b223a226d696e74222c22616d74223a223530227d68",
        "c1230ff75c5daf92eccc19d7f24e89b03166565c023fbdc614ca88b6a4c994a6ac"
      ],
      "is_coinbase": false,
      "sequence": 4294967293
    }
  ],
  "vout": [
    {
      "scriptpubkey": "51205fea984a18184fa61a980355e0774a4da656e6e5cff0568d95f06e5eb5f6d942",
      "scriptpubkey_asm": "OP_PUSHNUM_1 OP_PUSHBYTES_32 5fea984a18184fa61a980355e0774a4da656e6e5cff0568d95f06e5eb5f6d942",
      "scriptpubkey_type": "v1_p2tr",
      "scriptpubkey_address": "bc1ptl4fsjscrp86vx5cqd27qa62fkn9deh9elc9drv47ph9ad0km9pqyc75jz",
      "value": 330
    }
  ],
  "size": 322,
  "weight": 604,
  "fee": 1812,
  "status": {
    "confirmed": true,
    "block_height": 834460,
    "block_hash": "00000000000000000000484a79b643b2524bbce82e5d8a442013fa5b8905ed98",
    "block_time": 1710307468
  },
  "hex": "02000000000101453b9c94bba35774b0df36024f86f1f8ce42e51b0f03ca6c766990ca06ef11ff1600000000fdffffff014a010000000000002251205fea984a18184fa61a980355e0774a4da656e6e5cff0568d95f06e5eb5f6d94203409fea42981867f53357ad3a378a65fc4bf4aea910b92443fdc40e02fd594bcfe38b02de39c8b32e5dc4b9942c4a735ac190a8535af62b394c8d74b550bb7e95517d20230ff75c5daf92eccc19d7f24e89b03166565c023fbdc614ca88b6a4c994a6acac0063036f7264010118746578742f706c61696e3b636861727365743d7574662d3800377b2270223a226272632d3230222c226f70223a227472616e73666572222c227469636b223a226d696e74222c22616d74223a223530227d6821c1230ff75c5daf92eccc19d7f24e89b03166565c023fbdc614ca88b6a4c994a6ac00000000"
}