{
  "txid": "583681f3e0ea3e4ee28c15f30853a876751649c895f2c09e0fc0e479415d62bc",
  "version": 2,
  "locktime": 832020,
  "vin": [
    {
      "txid": "407a9b33e0e9c66e42c030f6a8b2487423515c39535e5714cb080d96b76b45e8",
      "vout": 1,
      "prevout": {
        "scriptpubkey": "0020838461d606553b0f135b509027914198040a721d022d1e7a110036fca906e685",
        "scriptpubkey_asm": "OP_0 OP_PUSHBYTES_32 838461d606553b0f135b509027914198040a721d022d1e7a110036fca906e685",
        "scriptpubkey_type": "v0_p2wsh",
        "scriptpubkey_address": "bc1qswzxr4sx25as7y6m2zgz0y2pnqzq5usaqgk3u7s3qqm0e2gxu6zsx5xyn8",
        "value": 330
      },
      "scriptsig": "",
      "scriptsig_asm": "",
      "witness": [
        "3044022039727bb54e57ac9de653b08519159db2a5c9ded6dec2c9daccb92eca2da0cdce02206cf059956b5689cde9412ecb1e5d3054f2122ce40bf620994c2737e099cfa27101",
        "2103e7037df2f5b599dd3dfbef3572de3ef9c67a6c4ba7ce08f66ecec20e4bb5abe3ac736460b268"
      ],
      "is_coinbase": false,
      "sequence": 0,
      "inner_witnessscript_asm": "OP_PUSHBYTES_33 03e7037df2f5b599dd3dfbef3572de3ef9c67a6c4ba7ce08f66ecec20e4bb5abe3 OP_CHECKSIG OP_IFDUP OP_NOTIF OP_PUSHNUM_16 OP_CSV OP_ENDIF"
    },
    {
      "txid": "6adc326d3896e15adde9abfc4f0c9c4307385f1593ba1991cf44591e509bfabf",
      "vout": 1,
      "prevout": {
        "scriptpubkey": "5120478b91bb42286223637fba6328605ca1819c5714498fca2fe1ced2e6c88960d7",
        "scriptpubkey_asm": "OP_PUSHNUM_1 OP_PUSHBYTES_32 478b91bb42286223637fba6328605ca1819c5714498fca2fe1ced2e6c88960d7",
        "scriptpubkey_type": "v1_p2tr",
        "scriptpubkey_address": "bc1pg79erw6z9p3zxcmlhf3jsczu5xqec4c5fx8u5tlpemfwdjyfvrtssglz0f",
        "value": 1290435
      },
      "scriptsig": "",
      "scriptsig_asm": "",
      "witness": [
        "7f1871d01d655cba17ceb3e8ae64d085dd8ead5be6142cd2daf59f14a3a3ae7e6d8b7cd24d2042d4a6aeaa64ab9dca17992d8122b8a7475aa063724cca4b7fc7"
      ],
      "is_coinbase": false,
      "sequence": 0
    }
  ],
  "vout": [
    {
      "scriptpubkey": "5120910042ba1f7508ad73e86c77e340f60dc5236e2fbe83085c6e9fd8bc06b36086",
      "scriptpubkey_asm": "OP_PUSHNUM_1 OP_PUSHBYTES_32 910042ba1f7508ad73e86c77e340f60dc5236e2fbe83085c6e9fd8bc06b36086",
      "scriptpubkey_type": "v1_p2tr",
      "scriptpubkey_address": "bc1pjyqy9wslw5y26ulgd3m7xs8kphzjxm30h6psshrwnlvtcp4nvzrqjgz6wd",
      "value": 1290582
    }
  ],
  "size": 317,
  "weight": 722,
  "fee": 183,
  "status": {
    "confirmed": true,
    "block_height": 834464,
    "block_hash": "0000000000000000000177a0869a911a2b65c9bdcd5a8bcb02b68f305bee848e",
    "block_time": 1710308296
  },
  "hex": "02000000000102e8456bb7960d08cb14575e53395c51237448b2a8f630c0426ec6e9e0339b7a40010000000000000000bffa9b501e5944cf9119ba93155f3807439c0c4ffcabe9dd5ae196386d32dc6a0100000000000000000156b1130000000000225120910042ba1f7508ad73e86c77e340f60dc5236e2fbe83085c6e9fd8bc06b3608602473044022039727bb54e57ac9de653b08519159db2a5c9ded6dec2c9daccb92eca2da0cdce02206cf059956b5689cde9412ecb1e5d3054f2122ce40bf620994c2737e099cfa27101282103e7037df2f5b599dd3dfbef3572de3ef9c67a6c4ba7ce08f66ecec20e4bb5abe3ac736460b26801407f1871d01d655cba17ceb3e8ae64d085dd8ead5be6142cd2daf59f14a3a3ae7e6d8b7cd24d2042d4a6aeaa64ab9dca17992d8122b8a7475aa063724cca4b7fc714b20c00"
}