{
  "txid": "583ea5bae59a2057a48bde0385cd96862fdd2cae7e74b74aa19a24639abe53a6",
  "version": 2,
  "locktime": 0,
  "vin": [
    {
      "txid": "9e5d969296192decb3e82145d7e9b55d5155dcd0e6167544b007919daae4ddca",
      "vout": 1,
      "prevout": {
        "scriptpubkey": "00140e9e872d39d14d66b44b97ba4c81fc0d4a9f3c56",
        "scriptpubkey_asm": "OP_0 OP_PUSHBYTES_20 0e9e872d39d14d66b44b97ba4c81fc0d4a9f3c56",
        "scriptpubkey_type": "v0_p2wpkh",
        "scriptpubkey_address": "bc1qp60gwtfe69xkddztj7ayeq0up49f70zkekevf6",
        "value": 75522262
      },
      "scriptsig": "",
      "scriptsig_asm": "",
      "witness": [
        "30450221009ef83cf87be5d89f9356113e02b8e354cfb347a109eaf38dc71b561a438277be02204568a76f90aed4864176721daba7a3d9873254e821be2e7dc4d2574ad67beb8101",
        "031ed85a764c7ebc5738b00f18ed1809d1cd88153cc43abcfdda0f0f1212400d87"
      ],
      "is_coinbase": false,
      "sequence": 0
    }
  ],
  "vout": [
    {
      "scriptpubkey": "a914b43ff76811d32dd2aaf8bc3cb184bdc47a2d873b87",
      "scriptpubkey_asm": "OP_HASH160 OP_PUSHBYTES_20 b43ff76811d32dd2aaf8bc3cb184bdc47a2d873b OP_EQUAL",
      "scriptpubkey_type": "p2sh",
      "scriptpubkey_address": "3J86BYCrNpvYMTsZ65FZWzyqANzrTU2xhB",
      "value": 900000
    },
    {
      "scriptpubkey": "0014e7b84a7e9ddbbcb4a70b839a5a370a66d9d4191a",
      "scriptpubkey_asm": "OP_0 OP_PUSHBYTES_20 e7b84a7e9ddbbcb4a70b839a5a370a66d9d4191a",
      "scriptpubkey_type": "v0_p2wpkh",
      "scriptpubkey_address": "bc1qu7uy5l5amw7tffctswd95dc2vmvagxg6fa7qkc",
      "value": 74619715
    }
  ],
  "size": 224,
  "weight": 566,
  "fee": 2547,
  "status": {
    "confirmed": true,
    "block_height": 834638,
    "block_hash": "000000000000000000025f742c626208ac87e0b7d15054abb4a19ca2d735a54e",
    "block_time": 1710405325
  },
  "hex": "02000000000101cadde4aa9d9107b0447516e6d0dc55515db5e9d74521e8b3ec2d199692965d9e01000000000000000002a0bb0d000000000017a914b43ff76811d32dd2aaf8bc3cb184bdc47a2d873b87439b720400000000160014e7b84a7e9ddbbcb4a70b839a5a370a66d9d4191a024830450221009ef83cf87be5d89f9356113e02b8e354cfb347a109eaf38dc71b561a438277be02204568a76f90aed4864176721daba7a3d9873254e821be2e7dc4d2574ad67beb810121031ed85a764c7ebc5738b00f18ed1809d1cd88153cc43abcfdda0f0f1212400d8700000000"
}