{
  "txid": "584e455f90d61c33c9a0aef8a12af8ff80b157e8cdc2e31d59c16122f92e5e19",
  "version": 2,
  "locktime": 0,
  "vin": [
    {
      "txid": "8486ecb4df0880316dd6e82b3971b4df187aff23765bc3a47f8d78bb53aa273c",
      "vout": 38,
      "prevout": {
        "scriptpubkey": "51208b9caf3ba13b29df24c730bb359a87896c900178032ae333d408c2ba58bdd2b8",
        "scriptpubkey_asm": "OP_PUSHNUM_1 OP_PUSHBYTES_32 8b9caf3ba13b29df24c730bb359a87896c900178032ae333d408c2ba58bdd2b8",
        "scriptpubkey_type": "v1_p2tr",
        "scriptpubkey_address": "bc1p3ww27wap8v5a7fx8xzantx5839kfqqtcqv4wxv75prpt5k9a62uqwxhtex",
        "value": 2575
      },
      "scriptsig": "",
      "scriptsig_asm": "",
      "witness": [
        "bf9867339ef2d291bd2dbb1d6507e146e7b1d31988645d96959a9b6f9e269a15cc97bfeabbc21f2d16d2a465f5bed85581d61af6f43f2c6c2097a5045e452c8e",
        "20e4158a129fe17e1c008a554f009b9f095b68a0c03df230bf0eec99029f0a7307ac0063036f726401010a746578742f706c61696e00367b2270223a226272632d3230222c226f70223a226d696e74222c227469636b223a2261616161222c22616d74223a223130303030227d68",
        "c1e4158a129fe17e1c008a554f009b9f095b68a0c03df230bf0eec99029f0a7307"
      ],
      "is_coinbase": false,
      "sequence": 4261412863
    }
  ],
  "vout": [
    {
      "scriptpubkey": "0014ddd7ef12ea6f78edcc1e8e7afa12c01ab59f3339",
      "scriptpubkey_asm": "OP_0 OP_PUSHBYTES_20 ddd7ef12ea6f78edcc1e8e7afa12c01ab59f3339",
      "scriptpubkey_type": "v0_p2wpkh",
      "scriptpubkey_address": "bc1qmht77yh2dauwmnq73ea05ykqr26e7veea8spz6",
      "value": 546
    }
  ],
  "size": 295,
  "weight": 541,
  "fee": 2029,
  "status": {
    "confirmed": true,
    "block_height": 834460,
    "block_hash": "00000000000000000000484a79b643b2524bbce82e5d8a442013fa5b8905ed98",
    "block_time": 1710307468
  },
  "hex": "020000000001013c27aa53bb788d7fa4c35b7623ff7a18dfb471392be8d66d318008dfb4ec86842600000000fffffffd012202000000000000160014ddd7ef12ea6f78edcc1e8e7afa12c01ab59f33390340bf9867339ef2d291bd2dbb1d6507e146e7b1d31988645d96959a9b6f9e269a15cc97bfeabbc21f2d16d2a465f5bed85581d61af6f43f2c6c2097a5045e452c8e6e20e4158a129fe17e1c008a554f009b9f095b68a0c03df230bf0eec99029f0a7307ac0063036f726401010a746578742f706c61696e00367b2270223a226272632d3230222c226f70223a226d696e74222c227469636b223a2261616161222c22616d74223a223130303030227d6821c1e4158a129fe17e1c008a554f009b9f095b68a0c03df230bf0eec99029f0a730700000000"
}