{
  "txid": "585477309a48cee51ca381a9c90b18715338dea1712a2ba14cad68a5ff70a854",
  "version": 2,
  "locktime": 0,
  "vin": [
    {
      "txid": "5fee89fbe0db446c040ef2ca85cd208f245925871f50f63f8ba2889078007037",
      "vout": 2,
      "prevout": {
        "scriptpubkey": "512097cf850ea2800dc6287247d1677eaf9dcac3781ebafc2d614bffe3d5596dae78",
        "scriptpubkey_asm": "OP_PUSHNUM_1 OP_PUSHBYTES_32 97cf850ea2800dc6287247d1677eaf9dcac3781ebafc2d614bffe3d5596dae78",
        "scriptpubkey_type": "v1_p2tr",
        "scriptpubkey_address": "bc1pjl8c2r4zsqxuv2rjglgkwl40nh9vx7q7ht7z6c2tll3a2ktd4euqwr9vaj",
        "value": 2226
      },
      "scriptsig": "",
      "scriptsig_asm": "",
      "witness": [
        "c9ff7836d08f63203966a76daf90d577a3d4abf200d8e54753ae57ac91fa1e5f7c4265cb44a78b88d3f71d013ec372dc9244db2eb23becf8754321a2ef5b254c",
        "203ed4c67e99f2915c9a3fa95ab8afb34b5732b9e0e75b94b35c2e4c02254b9e33ac0063036f7264010118746578742f706c61696e3b636861727365743d7574662d38000b616c6c6e69636b2e62746368",
        "c13ed4c67e99f2915c9a3fa95ab8afb34b5732b9e0e75b94b35c2e4c02254b9e33"
      ],
      "is_coinbase": false,
      "sequence": 4261412863
    }
  ],
  "vout": [
    {
      "scriptpubkey": "5120ebd8d9b0fa1fd56aeb0d9f90bbc9ab877ff6e586454187d1bcdc4b1ee93f9d67",
      "scriptpubkey_asm": "OP_PUSHNUM_1 OP_PUSHBYTES_32 ebd8d9b0fa1fd56aeb0d9f90bbc9ab877ff6e586454187d1bcdc4b1ee93f9d67",
      "scriptpubkey_type": "v1_p2tr",
      "scriptpubkey_address": "bc1pa0vdnv86rl2k46cdn7gthjdtsalldevxg4qc05dum393a6fln4ns6selas",
      "value": 546
    }
  ],
  "size": 278,
  "weight": 560,
  "fee": 1680,
  "status": {
    "confirmed": true,
    "block_height": 834460,
    "block_hash": "00000000000000000000484a79b643b2524bbce82e5d8a442013fa5b8905ed98",
    "block_time": 1710307468
  },
  "hex": "02000000000101377000789088a28b3ff6501f872559248f20cd85caf20e046c44dbe0fb89ee5f0200000000fffffffd012202000000000000225120ebd8d9b0fa1fd56aeb0d9f90bbc9ab877ff6e586454187d1bcdc4b1ee93f9d670340c9ff7836d08f63203966a76daf90d577a3d4abf200d8e54753ae57ac91fa1e5f7c4265cb44a78b88d3f71d013ec372dc9244db2eb23becf8754321a2ef5b254c51203ed4c67e99f2915c9a3fa95ab8afb34b5732b9e0e75b94b35c2e4c02254b9e33ac0063036f7264010118746578742f706c61696e3b636861727365743d7574662d38000b616c6c6e69636b2e6274636821c13ed4c67e99f2915c9a3fa95ab8afb34b5732b9e0e75b94b35c2e4c02254b9e3300000000"
}