{
  "txid": "585c16b4debabcc57f6a55ae79b6a366e3b609b50775e2fa7aaa29fb308b5c8c",
  "version": 2,
  "locktime": 834637,
  "vin": [
    {
      "txid": "1ef4ba7e76787924697e755e03190299d103d42c795673604a8e1934f9e28e00",
      "vout": 1,
      "prevout": {
        "scriptpubkey": "0020f61ef24b2ede5581481baee1953495ff948c53253d60b15f66191ef6a7528fe5",
        "scriptpubkey_asm": "OP_0 OP_PUSHBYTES_32 f61ef24b2ede5581481baee1953495ff948c53253d60b15f66191ef6a7528fe5",
        "scriptpubkey_type": "v0_p2wsh",
        "scriptpubkey_address": "bc1q7c00yjewme2czjqm4mse2dy4l72gc5e984stzhmxry00df6j3ljshydl0e",
        "value": 1318464
      },
      "scriptsig": "",
      "scriptsig_asm": "",
      "witness": [
        "",
        "304402207c5cb5a6ad7e857b1a69746f946312d78d3fdd25a0014f36ff63b10b6a84ee050220777488ea4dc6d43ddbdf1010af9ae14d0fbe0b0e5eb7362e0eeaca290d51ed1b01",
        "304402204ee6db929cf4cde5e796dae6347bcced5566d8aec3c35fb5a574a8465c221f9f0220371711b0be56e07272d3775a994372666cec3767f2fa28aab11c06ae98d60bc401",
        "5221026945c1eb9ca801254ab56024bfcdfe5e384e8d7cfcbd6c5452132188b3b263da21034d3ed76404b8926be6a9447399d108117e94ac27f74dca0e283214a31f08a35f2103b182e80d7909e2de397543aa6870ff7fb9fb8f3df3fc2209079181525744a90453ae"
      ],
      "is_coinbase": false,
      "sequence": 4294967293,
      "inner_witnessscript_asm": "OP_PUSHNUM_2 OP_PUSHBYTES_33 026945c1eb9ca801254ab56024bfcdfe5e384e8d7cfcbd6c5452132188b3b263da OP_PUSHBYTES_33 034d3ed76404b8926be6a9447399d108117e94ac27f74dca0e283214a31f08a35f OP_PUSHBYTES_33 03b182e80d7909e2de397543aa6870ff7fb9fb8f3df3fc2209079181525744a904 OP_PUSHNUM_3 OP_CHECKMULTISIG"
    }
  ],
  "vout": [
    {
      "scriptpubkey": "0020d4a6b1bbf597c370b5df52f4fd0713fa47fe62b4c2b0ead402d2304ec6d63bc6",
      "scriptpubkey_asm": "OP_0 OP_PUSHBYTES_32 d4a6b1bbf597c370b5df52f4fd0713fa47fe62b4c2b0ead402d2304ec6d63bc6",
      "scriptpubkey_type": "v0_p2wsh",
      "scriptpubkey_address": "bc1q6jntrwl4jlphpdwl2t606pcnlfrluc45c2cw44qz6gcya3kk80rqx0awaq",
      "value": 575443
    },
    {
      "scriptpubkey": "a914beadeabd2aefc694cca1c17037b5732f6bd333ed87",
      "scriptpubkey_asm": "OP_HASH160 OP_PUSHBYTES_20 beadeabd2aefc694cca1c17037b5732f6bd333ed OP_EQUAL",
      "scriptpubkey_type": "p2sh",
      "scriptpubkey_address": "3K5EexE8EjdKeejojWWiMUwcne7ub6vyF9",
      "value": 740000
    }
  ],
  "size": 380,
  "weight": 758,
  "fee": 3021,
  "status": {
    "confirmed": true,
    "block_height": 834638,
    "block_hash": "000000000000000000025f742c626208ac87e0b7d15054abb4a19ca2d735a54e",
    "block_time": 1710405325
  },
  "hex": "02000000000101008ee2f934198e4a607356792cd403d1990219035e757e69247978767ebaf41e0100000000fdffffff02d3c7080000000000220020d4a6b1bbf597c370b5df52f4fd0713fa47fe62b4c2b0ead402d2304ec6d63bc6a04a0b000000000017a914beadeabd2aefc694cca1c17037b5732f6bd333ed87040047304402207c5cb5a6ad7e857b1a69746f946312d78d3fdd25a0014f36ff63b10b6a84ee050220777488ea4dc6d43ddbdf1010af9ae14d0fbe0b0e5eb7362e0eeaca290d51ed1b0147304402204ee6db929cf4cde5e796dae6347bcced5566d8aec3c35fb5a574a8465c221f9f0220371711b0be56e07272d3775a994372666cec3767f2fa28aab11c06ae98d60bc401695221026945c1eb9ca801254ab56024bfcdfe5e384e8d7cfcbd6c5452132188b3b263da21034d3ed76404b8926be6a9447399d108117e94ac27f74dca0e283214a31f08a35f2103b182e80d7909e2de397543aa6870ff7fb9fb8f3df3fc2209079181525744a90453ae4dbc0c00"
}