{
  "txid": "58604c09b73911c848baec48dd0df33b106bd30a9874893fd77663b5a63d1fee",
  "version": 1,
  "locktime": 0,
  "vin": [
    {
      "txid": "6829276a8b0bed4f3b11c9baaf92c80c258ce8b08e11ab1d32a60044c9105298",
      "vout": 0,
      "prevout": {
        "scriptpubkey": "76a9143c04031feba5fbea207d32a18dde6d665ca1a30e88ac",
        "scriptpubkey_asm": "OP_DUP OP_HASH160 OP_PUSHBYTES_20 3c04031feba5fbea207d32a18dde6d665ca1a30e OP_EQUALVERIFY OP_CHECKSIG",
        "scriptpubkey_type": "p2pkh",
        "scriptpubkey_address": "16ULMHQFLW7u5UEyk1f9JxNL96NoCiCGMU",
        "value": 19754
      },
      "scriptsig": "483045022100a3a770c02f1259cb52f360e3b8af81dd307f613a5af3d00810e4d2310031648502206d57ff4d28c3e2bba8129d67bda7ae99eb47fbd70c0789facc4c3a7bd9eb5f82012102221dc59d1ab6e93e596632f026062ad1586be7c8078d072cb0c90af6268e9d0f",
      "scriptsig_asm": "OP_PUSHBYTES_72 3045022100a3a770c02f1259cb52f360e3b8af81dd307f613a5af3d00810e4d2310031648502206d57ff4d28c3e2bba8129d67bda7ae99eb47fbd70c0789facc4c3a7bd9eb5f8201 OP_PUSHBYTES_33 02221dc59d1ab6e93e596632f026062ad1586be7c8078d072cb0c90af6268e9d0f",
      "is_coinbase": false,
      "sequence": 2147483649
    }
  ],
  "vout": [
    {
      "scriptpubkey": "76a91458a3b1e04be63177e099160eb3f38e469f7aa5df88ac",
      "scriptpubkey_asm": "OP_DUP OP_HASH160 OP_PUSHBYTES_20 58a3b1e04be63177e099160eb3f38e469f7aa5df OP_EQUALVERIFY OP_CHECKSIG",
      "scriptpubkey_type": "p2pkh",
      "scriptpubkey_address": "195gZbdtYRfsw5mYA4Crmavx2VGuGXhfft",
      "value": 16490
    }
  ],
  "size": 192,
  "weight": 768,
  "fee": 3264,
  "status": {
    "confirmed": true,
    "block_height": 834638,
    "block_hash": "000000000000000000025f742c626208ac87e0b7d15054abb4a19ca2d735a54e",
    "block_time": 1710405325
  },
  "hex": "0100000001985210c94400a6321dab118eb0e88c250cc892afbac9113b4fed0b8b6a272968000000006b483045022100a3a770c02f1259cb52f360e3b8af81dd307f613a5af3d00810e4d2310031648502206d57ff4d28c3e2bba8129d67bda7ae99eb47fbd70c0789facc4c3a7bd9eb5f82012102221dc59d1ab6e93e596632f026062ad1586be7c8078d072cb0c90af6268e9d0f01000080016a400000000000001976a91458a3b1e04be63177e099160eb3f38e469f7aa5df88ac00000000"
}