{
  "txid": "586663c789495a0ae8d4aa255e2bac33b23cfd40a7259e90021786d62cf558eb",
  "version": 2,
  "locktime": 0,
  "vin": [
    {
      "txid": "8fe6957c7ab3c97f2b5e38418c1ff43560197378acea91b6497b15f9aa79986d",
      "vout": 1,
      "prevout": {
        "scriptpubkey": "001459fa4bd971d5890f8ba545af8efc539e12c95b20",
        "scriptpubkey_asm": "OP_0 OP_PUSHBYTES_20 59fa4bd971d5890f8ba545af8efc539e12c95b20",
        "scriptpubkey_type": "v0_p2wpkh",
        "scriptpubkey_address": "bc1qt8ayhkt36kyslza9gkhcalznncfvjkeql40fge",
        "value": 25377
      },
      "scriptsig": "",
      "scriptsig_asm": "",
      "witness": [
        "30440220451f2918ea8d41a3c7c7aa53929a35df9b7d2f7337903fdd041635835c50056f0220344e94c790f8e971109132405adda599f90c45666c2447d1ad1137fc1f88f4a501",
        "03fad2dfe7155a85439da0da5596e75e3ec6f0bac998c473ab77b0b0741c2690d4"
      ],
      "is_coinbase": false,
      "sequence": 4294967295
    }
  ],
  "vout": [
    {
      "scriptpubkey": "a914492b87ed902d3cbd6c57952fbd833ca00c27dd7587",
      "scriptpubkey_asm": "OP_HASH160 OP_PUSHBYTES_20 492b87ed902d3cbd6c57952fbd833ca00c27dd75 OP_EQUAL",
      "scriptpubkey_type": "p2sh",
      "scriptpubkey_address": "38MuQ8ceTvtHxVMyt5sNGR529fZLpvZ3ZF",
      "value": 8382
    },
    {
      "scriptpubkey": "001469c0baf4fa3e8a1e36e2e554c772bb93900e73a5",
      "scriptpubkey_asm": "OP_0 OP_PUSHBYTES_20 69c0baf4fa3e8a1e36e2e554c772bb93900e73a5",
      "scriptpubkey_type": "v0_p2wpkh",
      "scriptpubkey_address": "bc1qd8qt4a86869pudhzu42vwu4mjwgquua9grs520",
      "value": 15458
    }
  ],
  "size": 223,
  "weight": 565,
  "fee": 1537,
  "status": {
    "confirmed": true,
    "block_height": 834464,
    "block_hash": "0000000000000000000177a0869a911a2b65c9bdcd5a8bcb02b68f305bee848e",
    "block_time": 1710308296
  },
  "hex": "020000000001016d9879aaf9157b49b691eaac7873196035f41f8c41385e2b7fc9b37a7c95e68f0100000000ffffffff02be2000000000000017a914492b87ed902d3cbd6c57952fbd833ca00c27dd7587623c00000000000016001469c0baf4fa3e8a1e36e2e554c772bb93900e73a5024730440220451f2918ea8d41a3c7c7aa53929a35df9b7d2f7337903fdd041635835c50056f0220344e94c790f8e971109132405adda599f90c45666c2447d1ad1137fc1f88f4a5012103fad2dfe7155a85439da0da5596e75e3ec6f0bac998c473ab77b0b0741c2690d400000000"
}