{
  "txid": "587528150c913fda4f59ddc046881b99198a51b93fa9647e1187c577e6412d3a",
  "version": 2,
  "locktime": 0,
  "vin": [
    {
      "txid": "215b26ba408469c04c3ab2a63d717c9d8231665c32156502e5dcb9417425e1c7",
      "vout": 5,
      "prevout": {
        "scriptpubkey": "5120d3810c49acaa3235b870bbb47445fa835906e72902f8a6bc5e80619f0ad23660",
        "scriptpubkey_asm": "OP_PUSHNUM_1 OP_PUSHBYTES_32 d3810c49acaa3235b870bbb47445fa835906e72902f8a6bc5e80619f0ad23660",
        "scriptpubkey_type": "v1_p2tr",
        "scriptpubkey_address": "bc1p6wqscjdv4gertwrshw68g306sdvsdeefqtu2d0z7spse7zkjxesqphgzhc",
        "value": 600
      },
      "scriptsig": "",
      "scriptsig_asm": "",
      "witness": [
        "539cf9a407921cf08efd9180ce41eeadb941339de26dfd3b39d40e00bab2f0504ed13c793c7e222942807496d564c97f66783e0e2e7151aef74dac804a7587e0"
      ],
      "is_coinbase": false,
      "sequence": 4294967295
    },
    {
      "txid": "0c87687095d0f621f50401566dbc728ee9e66fb705fd7977f43558b1f40326af",
      "vout": 4,
      "prevout": {
        "scriptpubkey": "5120d3810c49acaa3235b870bbb47445fa835906e72902f8a6bc5e80619f0ad23660",
        "scriptpubkey_asm": "OP_PUSHNUM_1 OP_PUSHBYTES_32 d3810c49acaa3235b870bbb47445fa835906e72902f8a6bc5e80619f0ad23660",
        "scriptpubkey_type": "v1_p2tr",
        "scriptpubkey_address": "bc1p6wqscjdv4gertwrshw68g306sdvsdeefqtu2d0z7spse7zkjxesqphgzhc",
        "value": 600
      },
      "scriptsig": "",
      "scriptsig_asm": "",
      "witness": [
        "1a123988ece91c57b74fff15a4ff10099f05adf0e760aed8eb2901cc80be0c4be590cee22589249137bab671f173eac6632e92525cce5f985ae6f7b4c5d903f6"
      ],
      "is_coinbase": false,
      "sequence": 4294967295
    },
    {
      "txid": "763ab931f44753b99f5c028c9b224ffcc325c5e377f4fc1bc231eca422931315",
      "vout": 8,
      "prevout": {
        "scriptpubkey": "5120d3810c49acaa3235b870bbb47445fa835906e72902f8a6bc5e80619f0ad23660",
        "scriptpubkey_asm": "OP_PUSHNUM_1 OP_PUSHBYTES_32 d3810c49acaa3235b870bbb47445fa835906e72902f8a6bc5e80619f0ad23660",
        "scriptpubkey_type": "v1_p2tr",
        "scriptpubkey_address": "bc1p6wqscjdv4gertwrshw68g306sdvsdeefqtu2d0z7spse7zkjxesqphgzhc",
        "value": 600
      },
      "scriptsig": "",
      "scriptsig_asm": "",
      "witness": [
        "ed320d9b3d27f2784a0339db15a71ee18faf77edf332b5ff7fa7bf0571275b57ad4014a0113c7b44355febe701bea626187d4514e1ec73c142b8a0b193b5153c"
      ],
      "is_coinbase": false,
      "sequence": 4294967295
    },
    {
      "txid": "763ab931f44753b99f5c028c9b224ffcc325c5e377f4fc1bc231eca422931315",
      "vout": 9,
      "prevout": {
        "scriptpubkey": "5120d3810c49acaa3235b870bbb47445fa835906e72902f8a6bc5e80619f0ad23660",
        "scriptpubkey_asm": "OP_PUSHNUM_1 OP_PUSHBYTES_32 d3810c49acaa3235b870bbb47445fa835906e72902f8a6bc5e80619f0ad23660",
        "scriptpubkey_type": "v1_p2tr",
        "scriptpubkey_address": "bc1p6wqscjdv4gertwrshw68g306sdvsdeefqtu2d0z7spse7zkjxesqphgzhc",
        "value": 600
      },
      "scriptsig": "",
      "scriptsig_asm": "",
      "witness": [
        "34b45d655fe3e304076b338837d04d05f51cad1688fb7f3036493ee8fc6deba0f8e5879a662b6e1870cdaabe8ca46ac1b58655a687272051f84dad124c510961"
      ],
      "is_coinbase": false,
      "sequence": 4294967295
    },
    {
      "txid": "215b26ba408469c04c3ab2a63d717c9d8231665c32156502e5dcb9417425e1c7",
      "vout": 4,
      "prevout": {
        "scriptpubkey": "5120d3810c49acaa3235b870bbb47445fa835906e72902f8a6bc5e80619f0ad23660",
        "scriptpubkey_asm": "OP_PUSHNUM_1 OP_PUSHBYTES_32 d3810c49acaa3235b870bbb47445fa835906e72902f8a6bc5e80619f0ad23660",
        "scriptpubkey_type": "v1_p2tr",
        "scriptpubkey_address": "bc1p6wqscjdv4gertwrshw68g306sdvsdeefqtu2d0z7spse7zkjxesqphgzhc",
        "value": 600
      },
      "scriptsig": "",
      "scriptsig_asm": "",
      "witness": [
        "2d98ca2a16fa308e6b977a290dfed1b38fb7e8db961f229adc02ec8abffde7b8af0503c52e6d9e2f7227d440330cebb8c1c5e30f144bce58484577aac01e1525"
      ],
      "is_coinbase": false,
      "sequence": 4294967295
    },
    {
      "txid": "6efdb3f26ede1dd015cfc169bacb7058c0443499040aab2f6bc2f6bf9f4834f6",
      "vout": 9,
      "prevout": {
        "scriptpubkey": "5120d3810c49acaa3235b870bbb47445fa835906e72902f8a6bc5e80619f0ad23660",
        "scriptpubkey_asm": "OP_PUSHNUM_1 OP_PUSHBYTES_32 d3810c49acaa3235b870bbb47445fa835906e72902f8a6bc5e80619f0ad23660",
        "scriptpubkey_type": "v1_p2tr",
        "scriptpubkey_address": "bc1p6wqscjdv4gertwrshw68g306sdvsdeefqtu2d0z7spse7zkjxesqphgzhc",
        "value": 600
      },
      "scriptsig": "",
      "scriptsig_asm": "",
      "witness": [
        "05dac5dafce5c3e163af277d64db73ad721ccdadf49cff78cf50b3657c39c906cbb17a4058902e8edf84663a8c8af70922c8c02cf2861fc6a643cefc552be172"
      ],
      "is_coinbase": false,
      "sequence": 4294967295
    },
    {
      "txid": "763ab931f44753b99f5c028c9b224ffcc325c5e377f4fc1bc231eca422931315",
      "vout": 10,
      "prevout": {
        "scriptpubkey": "5120d3810c49acaa3235b870bbb47445fa835906e72902f8a6bc5e80619f0ad23660",
        "scriptpubkey_asm": "OP_PUSHNUM_1 OP_PUSHBYTES_32 d3810c49acaa3235b870bbb47445fa835906e72902f8a6bc5e80619f0ad23660",
        "scriptpubkey_type": "v1_p2tr",
        "scriptpubkey_address": "bc1p6wqscjdv4gertwrshw68g306sdvsdeefqtu2d0z7spse7zkjxesqphgzhc",
        "value": 600
      },
      "scriptsig": "",
      "scriptsig_asm": "",
      "witness": [
        "558a848133c5b014263aec62cbd20f15647a087fe423655ba42e63f7305176c90ad333d041394d7baf39e92174ebf18978d2faec9a5a5153934f54a44764fee1"
      ],
      "is_coinbase": false,
      "sequence": 4294967295
    },
    {
      "txid": "96b5ab8a7cad82013d2ee9faabe26f5941b6b185cca0a4d925c551ba980b9383",
      "vout": 1,
      "prevout": {
        "scriptpubkey": "5120d3810c49acaa3235b870bbb47445fa835906e72902f8a6bc5e80619f0ad23660",
        "scriptpubkey_asm": "OP_PUSHNUM_1 OP_PUSHBYTES_32 d3810c49acaa3235b870bbb47445fa835906e72902f8a6bc5e80619f0ad23660",
        "scriptpubkey_type": "v1_p2tr",
        "scriptpubkey_address": "bc1p6wqscjdv4gertwrshw68g306sdvsdeefqtu2d0z7spse7zkjxesqphgzhc",
        "value": 600
      },
      "scriptsig": "",
      "scriptsig_asm": "",
      "witness": [
        "5ae094224448f9481d2db1fe19a01e6247443b92338c7c916846ee0bf82ea8a750645e75d3bd9b440f3d75f5a327ebe82af9876be29c36767f7f51dcd382067e"
      ],
      "is_coinbase": false,
      "sequence": 4294967295
    },
    {
      "txid": "6efdb3f26ede1dd015cfc169bacb7058c0443499040aab2f6bc2f6bf9f4834f6",
      "vout": 8,
      "prevout": {
        "scriptpubkey": "5120d3810c49acaa3235b870bbb47445fa835906e72902f8a6bc5e80619f0ad23660",
        "scriptpubkey_asm": "OP_PUSHNUM_1 OP_PUSHBYTES_32 d3810c49acaa3235b870bbb47445fa835906e72902f8a6bc5e80619f0ad23660",
        "scriptpubkey_type": "v1_p2tr",
        "scriptpubkey_address": "bc1p6wqscjdv4gertwrshw68g306sdvsdeefqtu2d0z7spse7zkjxesqphgzhc",
        "value": 600
      },
      "scriptsig": "",
      "scriptsig_asm": "",
      "witness": [
        "79cc4d8afd765f3798ae3f1517db18066f09819393674a3f348ea5fbf18453ca891e4ca689c6172b17117c85a2f8d92239aa04a309259270165272f766254f23"
      ],
      "is_coinbase": false,
      "sequence": 4294967295
    },
    {
      "txid": "1790b25ffa67abdcaccfb5d3bf9aa22f14a2ee0b492625345562ba188e8ee8ee",
      "vout": 5,
      "prevout": {
        "scriptpubkey": "5120d3810c49acaa3235b870bbb47445fa835906e72902f8a6bc5e80619f0ad23660",
        "scriptpubkey_asm": "OP_PUSHNUM_1 OP_PUSHBYTES_32 d3810c49acaa3235b870bbb47445fa835906e72902f8a6bc5e80619f0ad23660",
        "scriptpubkey_type": "v1_p2tr",
        "scriptpubkey_address": "bc1p6wqscjdv4gertwrshw68g306sdvsdeefqtu2d0z7spse7zkjxesqphgzhc",
        "value": 600
      },
      "scriptsig": "",
      "scriptsig_asm": "",
      "witness": [
        "f2bdc9bd3cb840960a4e34b60d8ae03d29c51ec6edf20274a82434a9bf0ca79f1e6637cf450655ab79d871e086b228308d8beb002a468e264d0b25ddd8df7753"
      ],
      "is_coinbase": false,
      "sequence": 4294967295
    },
    {
      "txid": "763ab931f44753b99f5c028c9b224ffcc325c5e377f4fc1bc231eca422931315",
      "vout": 11,
      "prevout": {
        "scriptpubkey": "5120d3810c49acaa3235b870bbb47445fa835906e72902f8a6bc5e80619f0ad23660",
        "scriptpubkey_asm": "OP_PUSHNUM_1 OP_PUSHBYTES_32 d3810c49acaa3235b870bbb47445fa835906e72902f8a6bc5e80619f0ad23660",
        "scriptpubkey_type": "v1_p2tr",
        "scriptpubkey_address": "bc1p6wqscjdv4gertwrshw68g306sdvsdeefqtu2d0z7spse7zkjxesqphgzhc",
        "value": 600
      },
      "scriptsig": "",
      "scriptsig_asm": "",
      "witness": [
        "9de4816d49cccb24e3c6a4772aa63fc918063fe72b617983f9aed74f1176c6a61774b98579fb5efd3be6e9151cb10b9d8bd1bac7b4cd7bc5820620f77d6a52f7"
      ],
      "is_coinbase": false,
      "sequence": 4294967295
    },
    {
      "txid": "99bde2048f5323737677c51e1df92806bb2d4e646af5acd0faf8f1deccd84357",
      "vout": 4,
      "prevout": {
        "scriptpubkey": "5120d3810c49acaa3235b870bbb47445fa835906e72902f8a6bc5e80619f0ad23660",
        "scriptpubkey_asm": "OP_PUSHNUM_1 OP_PUSHBYTES_32 d3810c49acaa3235b870bbb47445fa835906e72902f8a6bc5e80619f0ad23660",
        "scriptpubkey_type": "v1_p2tr",
        "scriptpubkey_address": "bc1p6wqscjdv4gertwrshw68g306sdvsdeefqtu2d0z7spse7zkjxesqphgzhc",
        "value": 600
      },
      "scriptsig": "",
      "scriptsig_asm": "",
      "witness": [
        "4b484955eec0000d5eb1803918145de561ca8252743759ae2b05d12cfa8ab9e5e46e92f50a624cc2e981689db5093f31d6fdfa0b699f63030b291118c857715d"
      ],
      "is_coinbase": false,
      "sequence": 4294967295
    },
    {
      "txid": "2b7d4b69076a9c22acd8f65f763dc6ece62dce08d4e543ddac34cd618a42b4ae",
      "vout": 1,
      "prevout": {
        "scriptpubkey": "5120d3810c49acaa3235b870bbb47445fa835906e72902f8a6bc5e80619f0ad23660",
        "scriptpubkey_asm": "OP_PUSHNUM_1 OP_PUSHBYTES_32 d3810c49acaa3235b870bbb47445fa835906e72902f8a6bc5e80619f0ad23660",
        "scriptpubkey_type": "v1_p2tr",
        "scriptpubkey_address": "bc1p6wqscjdv4gertwrshw68g306sdvsdeefqtu2d0z7spse7zkjxesqphgzhc",
        "value": 595
      },
      "scriptsig": "",
      "scriptsig_asm": "",
      "witness": [
        "e92b6a38e6d58bf0e6dc6ff03c8e992af075843c79640e6de19cfdbfbc88023c4258d9faee9e6ce773f395fa9821f588371129179e1e549d794a9eab13613cd1"
      ],
      "is_coinbase": false,
      "sequence": 4294967295
    },
    {
      "txid": "9ee3b6f87db43f7208d6b80582c914f88f941e250036bfa57c672cc8b7529d96",
      "vout": 1,
      "prevout": {
        "scriptpubkey": "5120d3810c49acaa3235b870bbb47445fa835906e72902f8a6bc5e80619f0ad23660",
        "scriptpubkey_asm": "OP_PUSHNUM_1 OP_PUSHBYTES_32 d3810c49acaa3235b870bbb47445fa835906e72902f8a6bc5e80619f0ad23660",
        "scriptpubkey_type": "v1_p2tr",
        "scriptpubkey_address": "bc1p6wqscjdv4gertwrshw68g306sdvsdeefqtu2d0z7spse7zkjxesqphgzhc",
        "value": 828
      },
      "scriptsig": "",
      "scriptsig_asm": "",
      "witness": [
        "453e0890b7274be3043170645cae419e2803cc464a94d23e04b12617860855b4470f0e06c04750f85f685248b9e83740046224397af5875afb8160934b228c7d"
      ],
      "is_coinbase": false,
      "sequence": 4294967295
    },
    {
      "txid": "998c81170c28669c76dba15162859f66500be3e2179a69c79b8e88d25e2b030b",
      "vout": 0,
      "prevout": {
        "scriptpubkey": "51206493db42895d6bef4a7f250d28f40e7e2f309dec1410e4bb3b2b2f43d8a93ded",
        "scriptpubkey_asm": "OP_PUSHNUM_1 OP_PUSHBYTES_32 6493db42895d6bef4a7f250d28f40e7e2f309dec1410e4bb3b2b2f43d8a93ded",
        "scriptpubkey_type": "v1_p2tr",
        "scriptpubkey_address": "bc1pvjfaks5ft4477jnly5xj3aqw0chnp80vzsgwfwem9vh58k9f8hksqnglhj",
        "value": 546
      },
      "scriptsig": "",
      "scriptsig_asm": "",
      "witness": [
        "287b8521bc67e3ff056a9e2647254b9f66b059999ae58746050efb69c4a3354acd27c0705b54772b06fc1b2c2097d327169e91ad89726c57d4e70781a9514aff83"
      ],
      "is_coinbase": false,
      "sequence": 4294967295
    },
    {
      "txid": "a25fcd3ff2208547f8709ddade0b191e6b1626f8f4d2244f03ba8dca4aff073b",
      "vout": 0,
      "prevout": {
        "scriptpubkey": "51208bf1870e51e42dd6b63005f25266e2a0767461fbe4b387046acd822133aa08db",
        "scriptpubkey_asm": "OP_PUSHNUM_1 OP_PUSHBYTES_32 8bf1870e51e42dd6b63005f25266e2a0767461fbe4b387046acd822133aa08db",
        "scriptpubkey_type": "v1_p2tr",
        "scriptpubkey_address": "bc1p30ccwrj3uskadd3sqhe9yehz5pm8gc0mujecwpr2ekpzzva2prdstccmsg",
        "value": 546
      },
      "scriptsig": "",
      "scriptsig_asm": "",
      "witness": [
        "b8df470b6a0e5a7e670d5dc71fed8343d58c22e63576f5c9e5b11e5c6a966c122792df3d29151273130121c324c10d8b8398f38bda43195858eb5416330f8b7b83"
      ],
      "is_coinbase": false,
      "sequence": 4294967295
    },
    {
      "txid": "a40b89f91aee4b1bc4241e17d568851706b912ddcc662a7c6b14439f913682b2",
      "vout": 0,
      "prevout": {
        "scriptpubkey": "51208bf1870e51e42dd6b63005f25266e2a0767461fbe4b387046acd822133aa08db",
        "scriptpubkey_asm": "OP_PUSHNUM_1 OP_PUSHBYTES_32 8bf1870e51e42dd6b63005f25266e2a0767461fbe4b387046acd822133aa08db",
        "scriptpubkey_type": "v1_p2tr",
        "scriptpubkey_address": "bc1p30ccwrj3uskadd3sqhe9yehz5pm8gc0mujecwpr2ekpzzva2prdstccmsg",
        "value": 546
      },
      "scriptsig": "",
      "scriptsig_asm": "",
      "witness": [
        "386abd99f98af337d9054913440df4d92745f98e30e4fe22d30c922a060581934587d4136a884af0ddbd5592adb321c8afabfbf8545445969f32632dc2b580a183"
      ],
      "is_coinbase": false,
      "sequence": 4294967295
    },
    {
      "txid": "ac0e2ff516df2ede88b95d8ea1cae3f27b31661ca52823788a4e57ba7abf8161",
      "vout": 0,
      "prevout": {
        "scriptpubkey": "51208bf1870e51e42dd6b63005f25266e2a0767461fbe4b387046acd822133aa08db",
        "scriptpubkey_asm": "OP_PUSHNUM_1 OP_PUSHBYTES_32 8bf1870e51e42dd6b63005f25266e2a0767461fbe4b387046acd822133aa08db",
        "scriptpubkey_type": "v1_p2tr",
        "scriptpubkey_address": "bc1p30ccwrj3uskadd3sqhe9yehz5pm8gc0mujecwpr2ekpzzva2prdstccmsg",
        "value": 546
      },
      "scriptsig": "",
      "scriptsig_asm": "",
      "witness": [
        "0f93d9ee50e01bd9b2d941d368dd62b89640ee1245dc35475c6c5a89f78317796f0ba88a2ccdc587e3d21b5004f510cb0d22ab5c2442d61214c1bfa8f30f574583"
      ],
      "is_coinbase": false,
      "sequence": 4294967295
    },
    {
      "txid": "ea19503a81162aa2b5f2c7a38f4b43d81799afc2475c79c0e1ef1c77147feb76",
      "vout": 0,
      "prevout": {
        "scriptpubkey": "51208bf1870e51e42dd6b63005f25266e2a0767461fbe4b387046acd822133aa08db",
        "scriptpubkey_asm": "OP_PUSHNUM_1 OP_PUSHBYTES_32 8bf1870e51e42dd6b63005f25266e2a0767461fbe4b387046acd822133aa08db",
        "scriptpubkey_type": "v1_p2tr",
        "scriptpubkey_address": "bc1p30ccwrj3uskadd3sqhe9yehz5pm8gc0mujecwpr2ekpzzva2prdstccmsg",
        "value": 546
      },
      "scriptsig": "",
      "scriptsig_asm": "",
      "witness": [
        "8a854e165da174b9e0cd7356e86040feaff9a034a64621f23828b144bb1d0ab39c6dfb828a18e1d073e2aa4aeca0a5b3ebd12bd3aee0a363abe3d5030a3a4de383"
      ],
      "is_coinbase": false,
      "sequence": 4294967295
    },
    {
      "txid": "fbd94e183ed1a262527d25f0c10c1f25b092146aef1a2a0e7924a075f2385c0e",
      "vout": 0,
      "prevout": {
        "scriptpubkey": "51208bf1870e51e42dd6b63005f25266e2a0767461fbe4b387046acd822133aa08db",
        "scriptpubkey_asm": "OP_PUSHNUM_1 OP_PUSHBYTES_32 8bf1870e51e42dd6b63005f25266e2a0767461fbe4b387046acd822133aa08db",
        "scriptpubkey_type": "v1_p2tr",
        "scriptpubkey_address": "bc1p30ccwrj3uskadd3sqhe9yehz5pm8gc0mujecwpr2ekpzzva2prdstccmsg",
        "value": 546
      },
      "scriptsig": "",
      "scriptsig_asm": "",
      "witness": [
        "096346fc3fbaefa6fb1d4ff752fad7c79cb558ea9672fc1626b8a60c9d638be337c79cfa8e8733065b81c6c451fcb0cdd488e01cdf5b3df71ab726672f6194f583"
      ],
      "is_coinbase": false,
      "sequence": 4294967295
    },
    {
      "txid": "42bfd178b801729897890be2a14fa724c044100017a7c7db21b89eafa69a631d",
      "vout": 0,
      "prevout": {
        "scriptpubkey": "512070ee6258f00ac21056f86877ec3c6bb0a7c89122e07308511e1c5a3b7339ab6a",
        "scriptpubkey_asm": "OP_PUSHNUM_1 OP_PUSHBYTES_32 70ee6258f00ac21056f86877ec3c6bb0a7c89122e07308511e1c5a3b7339ab6a",
        "scriptpubkey_type": "v1_p2tr",
        "scriptpubkey_address": "bc1pwrhxyk8sptppq4hcdpm7c0rtkznu3yfzupess5g7r3drkuee4d4qzt80pc",
        "value": 546
      },
      "scriptsig": "",
      "scriptsig_asm": "",
      "witness": [
        "22f6937e97a14ba3e8dcc22f722114e3414a5d043380ef729a14c52ba05940d09c2556209752099be6688a1963f69e87ea97b16cb5c5923fddf4a815edd8396a83"
      ],
      "is_coinbase": false,
      "sequence": 4294967295
    },
    {
      "txid": "b097713c7dab99b2a534b2929878ab0007a35d5629f22dff4fa6ee75f78beca0",
      "vout": 1,
      "prevout": {
        "scriptpubkey": "51209ffb50f1c1092e172387429acb87cf34b2ef64cffeb922416651c85023c4ac3c",
        "scriptpubkey_asm": "OP_PUSHNUM_1 OP_PUSHBYTES_32 9ffb50f1c1092e172387429acb87cf34b2ef64cffeb922416651c85023c4ac3c",
        "scriptpubkey_type": "v1_p2tr",
        "scriptpubkey_address": "bc1pnla4puwppyhpwgu8g2dvhp70xjew7ex0l6ujystx28y9qg7y4s7qjxsvvt",
        "value": 546
      },
      "scriptsig": "",
      "scriptsig_asm": "",
      "witness": [
        "8f6ddf17d9880a9d53441f7fa6c86d2dc96a6cc5edec3fa5e7c271975d49a43248f9cf6f60e99f175b23802525b23af1c518efe5b85e4aaa4c665511618afae683"
      ],
      "is_coinbase": false,
      "sequence": 4294967295
    },
    {
      "txid": "b097713c7dab99b2a534b2929878ab0007a35d5629f22dff4fa6ee75f78beca0",
      "vout": 2,
      "prevout": {
        "scriptpubkey": "51209ffb50f1c1092e172387429acb87cf34b2ef64cffeb922416651c85023c4ac3c",
        "scriptpubkey_asm": "OP_PUSHNUM_1 OP_PUSHBYTES_32 9ffb50f1c1092e172387429acb87cf34b2ef64cffeb922416651c85023c4ac3c",
        "scriptpubkey_type": "v1_p2tr",
        "scriptpubkey_address": "bc1pnla4puwppyhpwgu8g2dvhp70xjew7ex0l6ujystx28y9qg7y4s7qjxsvvt",
        "value": 546
      },
      "scriptsig": "",
      "scriptsig_asm": "",
      "witness": [
        "fcc02cbb8c72f29de4db6678c586081a378ffeba1a8ab14fc59d0bb46eeb6ebc9509c273d39630c3200a02abc914d231a8e16c2b14a2e544e816619d4d40a49883"
      ],
      "is_coinbase": false,
      "sequence": 4294967295
    },
    {
      "txid": "b097713c7dab99b2a534b2929878ab0007a35d5629f22dff4fa6ee75f78beca0",
      "vout": 3,
      "prevout": {
        "scriptpubkey": "51209ffb50f1c1092e172387429acb87cf34b2ef64cffeb922416651c85023c4ac3c",
        "scriptpubkey_asm": "OP_PUSHNUM_1 OP_PUSHBYTES_32 9ffb50f1c1092e172387429acb87cf34b2ef64cffeb922416651c85023c4ac3c",
        "scriptpubkey_type": "v1_p2tr",
        "scriptpubkey_address": "bc1pnla4puwppyhpwgu8g2dvhp70xjew7ex0l6ujystx28y9qg7y4s7qjxsvvt",
        "value": 546
      },
      "scriptsig": "",
      "scriptsig_asm": "",
      "witness": [
        "0952df9b4c1facfe9b69870d13bc2fb103a44baf9e46da960b725523c4d906a0d966ac3ad0334480f82d92e9b40dc324ce1d3b4ffb59d7f0d5debcb72eb4375583"
      ],
      "is_coinbase": false,
      "sequence": 4294967295
    },
    {
      "txid": "411d8dd8f90abffed4b0e8be0b0f2eb27d695ccdc840a15e330904629fe98259",
      "vout": 0,
      "prevout": {
        "scriptpubkey": "51204a79623a9799d4f3df1ca662dd764d896812819ebfae167b3e237fefb24b5bf0",
        "scriptpubkey_asm": "OP_PUSHNUM_1 OP_PUSHBYTES_32 4a79623a9799d4f3df1ca662dd764d896812819ebfae167b3e237fefb24b5bf0",
        "scriptpubkey_type": "v1_p2tr",
        "scriptpubkey_address": "bc1pffukyw5hn8208hcu5e3d6ajd395p9qv7h7hpv7e7ydl7lvjtt0cq3yagxu",
        "value": 546
      },
      "scriptsig": "",
      "scriptsig_asm": "",
      "witness": [
        "6bec4c6644280754e3c7c528c28c4641bde06f7640686e33e55a7335abc1af226bedfc58208afc9b391668347bc6bede368f583f4c5d3fe75808b43fc80b5c1683"
      ],
      "is_coinbase": false,
      "sequence": 4294967295
    },
    {
      "txid": "ffc189ed9a26ba2d22d0796e502dd9d667ede06bf017a12828292ba7e1e01354",
      "vout": 0,
      "prevout": {
        "scriptpubkey": "51204a79623a9799d4f3df1ca662dd764d896812819ebfae167b3e237fefb24b5bf0",
        "scriptpubkey_asm": "OP_PUSHNUM_1 OP_PUSHBYTES_32 4a79623a9799d4f3df1ca662dd764d896812819ebfae167b3e237fefb24b5bf0",
        "scriptpubkey_type": "v1_p2tr",
        "scriptpubkey_address": "bc1pffukyw5hn8208hcu5e3d6ajd395p9qv7h7hpv7e7ydl7lvjtt0cq3yagxu",
        "value": 546
      },
      "scriptsig": "",
      "scriptsig_asm": "",
      "witness": [
        "e46714212a81883ea2eaeeffed079a26a751577002bbb7f7e1282c94b260a4586fd47ead453e8d1b937e8669ac245286f8e0fe4a67ccf5c8296bdbcea90389e583"
      ],
      "is_coinbase": false,
      "sequence": 4294967295
    },
    {
      "txid": "8e36e997901dc81ab6de1ba0fc9b470472ec54656725b88739442776eaa44e16",
      "vout": 0,
      "prevout": {
        "scriptpubkey": "51208e349334a650e6bac7fdb8f568f813a4fb4d095bfd34989d85f7b46d7bcad503",
        "scriptpubkey_asm": "OP_PUSHNUM_1 OP_PUSHBYTES_32 8e349334a650e6bac7fdb8f568f813a4fb4d095bfd34989d85f7b46d7bcad503",
        "scriptpubkey_type": "v1_p2tr",
        "scriptpubkey_address": "bc1p3c6fxd9x2rnt43lahr6k37qn5na56z2ml56f38v9776x677265pspuf6h5",
        "value": 330
      },
      "scriptsig": "",
      "scriptsig_asm": "",
      "witness": [
        "efa23d7e7e8a403e0d17cfcd4b6904156caeb918ef358e51f2b0d6a72ae8dce24d91d6b8c14be4b71852a0cb6b6a3e3f4b3b312f6497e8526750db3b2b86aa1e83"
      ],
      "is_coinbase": false,
      "sequence": 4294967295
    },
    {
      "txid": "763ab931f44753b99f5c028c9b224ffcc325c5e377f4fc1bc231eca422931315",
      "vout": 12,
      "prevout": {
        "scriptpubkey": "5120d3810c49acaa3235b870bbb47445fa835906e72902f8a6bc5e80619f0ad23660",
        "scriptpubkey_asm": "OP_PUSHNUM_1 OP_PUSHBYTES_32 d3810c49acaa3235b870bbb47445fa835906e72902f8a6bc5e80619f0ad23660",
        "scriptpubkey_type": "v1_p2tr",
        "scriptpubkey_address": "bc1p6wqscjdv4gertwrshw68g306sdvsdeefqtu2d0z7spse7zkjxesqphgzhc",
        "value": 239161
      },
      "scriptsig": "",
      "scriptsig_asm": "",
      "witness": [
        "2143402430e09e78b67c967286dac982f50042913d7c68732abb64a2d63d6ae5834038326d2bf7fadfe0037b91330ab30c155eaf0afd826946e9d84b74103541"
      ],
      "is_coinbase": false,
      "sequence": 4294967295
    }
  ],
  "vout": [
    {
      "scriptpubkey": "5120d3810c49acaa3235b870bbb47445fa835906e72902f8a6bc5e80619f0ad23660",
      "scriptpubkey_asm": "OP_PUSHNUM_1 OP_PUSHBYTES_32 d3810c49acaa3235b870bbb47445fa835906e72902f8a6bc5e80619f0ad23660",
      "scriptpubkey_type": "v1_p2tr",
      "scriptpubkey_address": "bc1p6wqscjdv4gertwrshw68g306sdvsdeefqtu2d0z7spse7zkjxesqphgzhc",
      "value": 8623
    },
    {
      "scriptpubkey": "5120d3810c49acaa3235b870bbb47445fa835906e72902f8a6bc5e80619f0ad23660",
      "scriptpubkey_asm": "OP_PUSHNUM_1 OP_PUSHBYTES_32 d3810c49acaa3235b870bbb47445fa835906e72902f8a6bc5e80619f0ad23660",
      "scriptpubkey_type": "v1_p2tr",
      "scriptpubkey_address": "bc1p6wqscjdv4gertwrshw68g306sdvsdeefqtu2d0z7spse7zkjxesqphgzhc",
      "value": 546
    },
    {
      "scriptpubkey": "5120d3810c49acaa3235b870bbb47445fa835906e72902f8a6bc5e80619f0ad23660",
      "scriptpubkey_asm": "OP_PUSHNUM_1 OP_PUSHBYTES_32 d3810c49acaa3235b870bbb47445fa835906e72902f8a6bc5e80619f0ad23660",
      "scriptpubkey_type": "v1_p2tr",
      "scriptpubkey_address": "bc1p6wqscjdv4gertwrshw68g306sdvsdeefqtu2d0z7spse7zkjxesqphgzhc",
      "value": 546
    },
    {
      "scriptpubkey": "5120d3810c49acaa3235b870bbb47445fa835906e72902f8a6bc5e80619f0ad23660",
      "scriptpubkey_asm": "OP_PUSHNUM_1 OP_PUSHBYTES_32 d3810c49acaa3235b870bbb47445fa835906e72902f8a6bc5e80619f0ad23660",
      "scriptpubkey_type": "v1_p2tr",
      "scriptpubkey_address": "bc1p6wqscjdv4gertwrshw68g306sdvsdeefqtu2d0z7spse7zkjxesqphgzhc",
      "value": 546
    },
    {
      "scriptpubkey": "5120d3810c49acaa3235b870bbb47445fa835906e72902f8a6bc5e80619f0ad23660",
      "scriptpubkey_asm": "OP_PUSHNUM_1 OP_PUSHBYTES_32 d3810c49acaa3235b870bbb47445fa835906e72902f8a6bc5e80619f0ad23660",
      "scriptpubkey_type": "v1_p2tr",
      "scriptpubkey_address": "bc1p6wqscjdv4gertwrshw68g306sdvsdeefqtu2d0z7spse7zkjxesqphgzhc",
      "value": 546
    },
    {
      "scriptpubkey": "5120d3810c49acaa3235b870bbb47445fa835906e72902f8a6bc5e80619f0ad23660",
      "scriptpubkey_asm": "OP_PUSHNUM_1 OP_PUSHBYTES_32 d3810c49acaa3235b870bbb47445fa835906e72902f8a6bc5e80619f0ad23660",
      "scriptpubkey_type": "v1_p2tr",
      "scriptpubkey_address": "bc1p6wqscjdv4gertwrshw68g306sdvsdeefqtu2d0z7spse7zkjxesqphgzhc",
      "value": 546
    },
    {
      "scriptpubkey": "5120d3810c49acaa3235b870bbb47445fa835906e72902f8a6bc5e80619f0ad23660",
      "scriptpubkey_asm": "OP_PUSHNUM_1 OP_PUSHBYTES_32 d3810c49acaa3235b870bbb47445fa835906e72902f8a6bc5e80619f0ad23660",
      "scriptpubkey_type": "v1_p2tr",
      "scriptpubkey_address": "bc1p6wqscjdv4gertwrshw68g306sdvsdeefqtu2d0z7spse7zkjxesqphgzhc",
      "value": 546
    },
    {
      "scriptpubkey": "5120d3810c49acaa3235b870bbb47445fa835906e72902f8a6bc5e80619f0ad23660",
      "scriptpubkey_asm": "OP_PUSHNUM_1 OP_PUSHBYTES_32 d3810c49acaa3235b870bbb47445fa835906e72902f8a6bc5e80619f0ad23660",
      "scriptpubkey_type": "v1_p2tr",
      "scriptpubkey_address": "bc1p6wqscjdv4gertwrshw68g306sdvsdeefqtu2d0z7spse7zkjxesqphgzhc",
      "value": 546
    },
    {
      "scriptpubkey": "5120d3810c49acaa3235b870bbb47445fa835906e72902f8a6bc5e80619f0ad23660",
      "scriptpubkey_asm": "OP_PUSHNUM_1 OP_PUSHBYTES_32 d3810c49acaa3235b870bbb47445fa835906e72902f8a6bc5e80619f0ad23660",
      "scriptpubkey_type": "v1_p2tr",
      "scriptpubkey_address": "bc1p6wqscjdv4gertwrshw68g306sdvsdeefqtu2d0z7spse7zkjxesqphgzhc",
      "value": 546
    },
    {
      "scriptpubkey": "5120d3810c49acaa3235b870bbb47445fa835906e72902f8a6bc5e80619f0ad23660",
      "scriptpubkey_asm": "OP_PUSHNUM_1 OP_PUSHBYTES_32 d3810c49acaa3235b870bbb47445fa835906e72902f8a6bc5e80619f0ad23660",
      "scriptpubkey_type": "v1_p2tr",
      "scriptpubkey_address": "bc1p6wqscjdv4gertwrshw68g306sdvsdeefqtu2d0z7spse7zkjxesqphgzhc",
      "value": 546
    },
    {
      "scriptpubkey": "5120d3810c49acaa3235b870bbb47445fa835906e72902f8a6bc5e80619f0ad23660",
      "scriptpubkey_asm": "OP_PUSHNUM_1 OP_PUSHBYTES_32 d3810c49acaa3235b870bbb47445fa835906e72902f8a6bc5e80619f0ad23660",
      "scriptpubkey_type": "v1_p2tr",
      "scriptpubkey_address": "bc1p6wqscjdv4gertwrshw68g306sdvsdeefqtu2d0z7spse7zkjxesqphgzhc",
      "value": 546
    },
    {
      "scriptpubkey": "5120d3810c49acaa3235b870bbb47445fa835906e72902f8a6bc5e80619f0ad23660",
      "scriptpubkey_asm": "OP_PUSHNUM_1 OP_PUSHBYTES_32 d3810c49acaa3235b870bbb47445fa835906e72902f8a6bc5e80619f0ad23660",
      "scriptpubkey_type": "v1_p2tr",
      "scriptpubkey_address": "bc1p6wqscjdv4gertwrshw68g306sdvsdeefqtu2d0z7spse7zkjxesqphgzhc",
      "value": 546
    },
    {
      "scriptpubkey": "5120d3810c49acaa3235b870bbb47445fa835906e72902f8a6bc5e80619f0ad23660",
      "scriptpubkey_asm": "OP_PUSHNUM_1 OP_PUSHBYTES_32 d3810c49acaa3235b870bbb47445fa835906e72902f8a6bc5e80619f0ad23660",
      "scriptpubkey_type": "v1_p2tr",
      "scriptpubkey_address": "bc1p6wqscjdv4gertwrshw68g306sdvsdeefqtu2d0z7spse7zkjxesqphgzhc",
      "value": 546
    },
    {
      "scriptpubkey": "5120d3810c49acaa3235b870bbb47445fa835906e72902f8a6bc5e80619f0ad23660",
      "scriptpubkey_asm": "OP_PUSHNUM_1 OP_PUSHBYTES_32 d3810c49acaa3235b870bbb47445fa835906e72902f8a6bc5e80619f0ad23660",
      "scriptpubkey_type": "v1_p2tr",
      "scriptpubkey_address": "bc1p6wqscjdv4gertwrshw68g306sdvsdeefqtu2d0z7spse7zkjxesqphgzhc",
      "value": 330
    },
    {
      "scriptpubkey": "51206493db42895d6bef4a7f250d28f40e7e2f309dec1410e4bb3b2b2f43d8a93ded",
      "scriptpubkey_asm": "OP_PUSHNUM_1 OP_PUSHBYTES_32 6493db42895d6bef4a7f250d28f40e7e2f309dec1410e4bb3b2b2f43d8a93ded",
      "scriptpubkey_type": "v1_p2tr",
      "scriptpubkey_address": "bc1pvjfaks5ft4477jnly5xj3aqw0chnp80vzsgwfwem9vh58k9f8hksqnglhj",
      "value": 7511
    },
    {
      "scriptpubkey": "51208bf1870e51e42dd6b63005f25266e2a0767461fbe4b387046acd822133aa08db",
      "scriptpubkey_asm": "OP_PUSHNUM_1 OP_PUSHBYTES_32 8bf1870e51e42dd6b63005f25266e2a0767461fbe4b387046acd822133aa08db",
      "scriptpubkey_type": "v1_p2tr",
      "scriptpubkey_address": "bc1p30ccwrj3uskadd3sqhe9yehz5pm8gc0mujecwpr2ekpzzva2prdstccmsg",
      "value": 7511
    },
    {
      "scriptpubkey": "51208bf1870e51e42dd6b63005f25266e2a0767461fbe4b387046acd822133aa08db",
      "scriptpubkey_asm": "OP_PUSHNUM_1 OP_PUSHBYTES_32 8bf1870e51e42dd6b63005f25266e2a0767461fbe4b387046acd822133aa08db",
      "scriptpubkey_type": "v1_p2tr",
      "scriptpubkey_address": "bc1p30ccwrj3uskadd3sqhe9yehz5pm8gc0mujecwpr2ekpzzva2prdstccmsg",
      "value": 7511
    },
    {
      "scriptpubkey": "51208bf1870e51e42dd6b63005f25266e2a0767461fbe4b387046acd822133aa08db",
      "scriptpubkey_asm": "OP_PUSHNUM_1 OP_PUSHBYTES_32 8bf1870e51e42dd6b63005f25266e2a0767461fbe4b387046acd822133aa08db",
      "scriptpubkey_type": "v1_p2tr",
      "scriptpubkey_address": "bc1p30ccwrj3uskadd3sqhe9yehz5pm8gc0mujecwpr2ekpzzva2prdstccmsg",
      "value": 7511
    },
    {
      "scriptpubkey": "51208bf1870e51e42dd6b63005f25266e2a0767461fbe4b387046acd822133aa08db",
      "scriptpubkey_asm": "OP_PUSHNUM_1 OP_PUSHBYTES_32 8bf1870e51e42dd6b63005f25266e2a0767461fbe4b387046acd822133aa08db",
      "scriptpubkey_type": "v1_p2tr",
      "scriptpubkey_address": "bc1p30ccwrj3uskadd3sqhe9yehz5pm8gc0mujecwpr2ekpzzva2prdstccmsg",
      "value": 7511
    },
    {
      "scriptpubkey": "51208bf1870e51e42dd6b63005f25266e2a0767461fbe4b387046acd822133aa08db",
      "scriptpubkey_asm": "OP_PUSHNUM_1 OP_PUSHBYTES_32 8bf1870e51e42dd6b63005f25266e2a0767461fbe4b387046acd822133aa08db",
      "scriptpubkey_type": "v1_p2tr",
      "scriptpubkey_address": "bc1p30ccwrj3uskadd3sqhe9yehz5pm8gc0mujecwpr2ekpzzva2prdstccmsg",
      "value": 7511
    },
    {
      "scriptpubkey": "512070ee6258f00ac21056f86877ec3c6bb0a7c89122e07308511e1c5a3b7339ab6a",
      "scriptpubkey_asm": "OP_PUSHNUM_1 OP_PUSHBYTES_32 70ee6258f00ac21056f86877ec3c6bb0a7c89122e07308511e1c5a3b7339ab6a",
      "scriptpubkey_type": "v1_p2tr",
      "scriptpubkey_address": "bc1pwrhxyk8sptppq4hcdpm7c0rtkznu3yfzupess5g7r3drkuee4d4qzt80pc",
      "value": 8407
    },
    {
      "scriptpubkey": "a9140c220d60f379b6925f24a45ac58c89b594db154b87",
      "scriptpubkey_asm": "OP_HASH160 OP_PUSHBYTES_20 0c220d60f379b6925f24a45ac58c89b594db154b OP_EQUAL",
      "scriptpubkey_type": "p2sh",
      "scriptpubkey_address": "32oApqaB6fyv38wuuqbUF76A3tQpMEXvAX",
      "value": 8506
    },
    {
      "scriptpubkey": "a9140c220d60f379b6925f24a45ac58c89b594db154b87",
      "scriptpubkey_asm": "OP_HASH160 OP_PUSHBYTES_20 0c220d60f379b6925f24a45ac58c89b594db154b OP_EQUAL",
      "scriptpubkey_type": "p2sh",
      "scriptpubkey_address": "32oApqaB6fyv38wuuqbUF76A3tQpMEXvAX",
      "value": 8506
    },
    {
      "scriptpubkey": "a9140c220d60f379b6925f24a45ac58c89b594db154b87",
      "scriptpubkey_asm": "OP_HASH160 OP_PUSHBYTES_20 0c220d60f379b6925f24a45ac58c89b594db154b OP_EQUAL",
      "scriptpubkey_type": "p2sh",
      "scriptpubkey_address": "32oApqaB6fyv38wuuqbUF76A3tQpMEXvAX",
      "value": 8506
    },
    {
      "scriptpubkey": "51204a79623a9799d4f3df1ca662dd764d896812819ebfae167b3e237fefb24b5bf0",
      "scriptpubkey_asm": "OP_PUSHNUM_1 OP_PUSHBYTES_32 4a79623a9799d4f3df1ca662dd764d896812819ebfae167b3e237fefb24b5bf0",
      "scriptpubkey_type": "v1_p2tr",
      "scriptpubkey_address": "bc1pffukyw5hn8208hcu5e3d6ajd395p9qv7h7hpv7e7ydl7lvjtt0cq3yagxu",
      "value": 8506
    },
    {
      "scriptpubkey": "51204a79623a9799d4f3df1ca662dd764d896812819ebfae167b3e237fefb24b5bf0",
      "scriptpubkey_asm": "OP_PUSHNUM_1 OP_PUSHBYTES_32 4a79623a9799d4f3df1ca662dd764d896812819ebfae167b3e237fefb24b5bf0",
      "scriptpubkey_type": "v1_p2tr",
      "scriptpubkey_address": "bc1pffukyw5hn8208hcu5e3d6ajd395p9qv7h7hpv7e7ydl7lvjtt0cq3yagxu",
      "value": 8506
    },
    {
      "scriptpubkey": "51208e349334a650e6bac7fdb8f568f813a4fb4d095bfd34989d85f7b46d7bcad503",
      "scriptpubkey_asm": "OP_PUSHNUM_1 OP_PUSHBYTES_32 8e349334a650e6bac7fdb8f568f813a4fb4d095bfd34989d85f7b46d7bcad503",
      "scriptpubkey_type": "v1_p2tr",
      "scriptpubkey_address": "bc1p3c6fxd9x2rnt43lahr6k37qn5na56z2ml56f38v9776x677265pspuf6h5",
      "value": 8887
    },
    {
      "scriptpubkey": "a914ea6b832a05c6ca578baa3836f3f25553d41068a587",
      "scriptpubkey_asm": "OP_HASH160 OP_PUSHBYTES_20 ea6b832a05c6ca578baa3836f3f25553d41068a5 OP_EQUAL",
      "scriptpubkey_type": "p2sh",
      "scriptpubkey_address": "3P4WqXDbSLRhzo2H6MT6YFbvBKBDPLbVtQ",
      "value": 2462
    },
    {
      "scriptpubkey": "5120d3810c49acaa3235b870bbb47445fa835906e72902f8a6bc5e80619f0ad23660",
      "scriptpubkey_asm": "OP_PUSHNUM_1 OP_PUSHBYTES_32 d3810c49acaa3235b870bbb47445fa835906e72902f8a6bc5e80619f0ad23660",
      "scriptpubkey_type": "v1_p2tr",
      "scriptpubkey_address": "bc1p6wqscjdv4gertwrshw68g306sdvsdeefqtu2d0z7spse7zkjxesqphgzhc",
      "value": 600
    },
    {
      "scriptpubkey": "5120d3810c49acaa3235b870bbb47445fa835906e72902f8a6bc5e80619f0ad23660",
      "scriptpubkey_asm": "OP_PUSHNUM_1 OP_PUSHBYTES_32 d3810c49acaa3235b870bbb47445fa835906e72902f8a6bc5e80619f0ad23660",
      "scriptpubkey_type": "v1_p2tr",
      "scriptpubkey_address": "bc1p6wqscjdv4gertwrshw68g306sdvsdeefqtu2d0z7spse7zkjxesqphgzhc",
      "value": 600
    },
    {
      "scriptpubkey": "5120d3810c49acaa3235b870bbb47445fa835906e72902f8a6bc5e80619f0ad23660",
      "scriptpubkey_asm": "OP_PUSHNUM_1 OP_PUSHBYTES_32 d3810c49acaa3235b870bbb47445fa835906e72902f8a6bc5e80619f0ad23660",
      "scriptpubkey_type": "v1_p2tr",
      "scriptpubkey_address": "bc1p6wqscjdv4gertwrshw68g306sdvsdeefqtu2d0z7spse7zkjxesqphgzhc",
      "value": 600
    },
    {
      "scriptpubkey": "5120d3810c49acaa3235b870bbb47445fa835906e72902f8a6bc5e80619f0ad23660",
      "scriptpubkey_asm": "OP_PUSHNUM_1 OP_PUSHBYTES_32 d3810c49acaa3235b870bbb47445fa835906e72902f8a6bc5e80619f0ad23660",
      "scriptpubkey_type": "v1_p2tr",
      "scriptpubkey_address": "bc1p6wqscjdv4gertwrshw68g306sdvsdeefqtu2d0z7spse7zkjxesqphgzhc",
      "value": 600
    },
    {
      "scriptpubkey": "5120d3810c49acaa3235b870bbb47445fa835906e72902f8a6bc5e80619f0ad23660",
      "scriptpubkey_asm": "OP_PUSHNUM_1 OP_PUSHBYTES_32 d3810c49acaa3235b870bbb47445fa835906e72902f8a6bc5e80619f0ad23660",
      "scriptpubkey_type": "v1_p2tr",
      "scriptpubkey_address": "bc1p6wqscjdv4gertwrshw68g306sdvsdeefqtu2d0z7spse7zkjxesqphgzhc",
      "value": 600
    },
    {
      "scriptpubkey": "5120d3810c49acaa3235b870bbb47445fa835906e72902f8a6bc5e80619f0ad23660",
      "scriptpubkey_asm": "OP_PUSHNUM_1 OP_PUSHBYTES_32 d3810c49acaa3235b870bbb47445fa835906e72902f8a6bc5e80619f0ad23660",
      "scriptpubkey_type": "v1_p2tr",
      "scriptpubkey_address": "bc1p6wqscjdv4gertwrshw68g306sdvsdeefqtu2d0z7spse7zkjxesqphgzhc",
      "value": 600
    },
    {
      "scriptpubkey": "5120d3810c49acaa3235b870bbb47445fa835906e72902f8a6bc5e80619f0ad23660",
      "scriptpubkey_asm": "OP_PUSHNUM_1 OP_PUSHBYTES_32 d3810c49acaa3235b870bbb47445fa835906e72902f8a6bc5e80619f0ad23660",
      "scriptpubkey_type": "v1_p2tr",
      "scriptpubkey_address": "bc1p6wqscjdv4gertwrshw68g306sdvsdeefqtu2d0z7spse7zkjxesqphgzhc",
      "value": 600
    },
    {
      "scriptpubkey": "5120d3810c49acaa3235b870bbb47445fa835906e72902f8a6bc5e80619f0ad23660",
      "scriptpubkey_asm": "OP_PUSHNUM_1 OP_PUSHBYTES_32 d3810c49acaa3235b870bbb47445fa835906e72902f8a6bc5e80619f0ad23660",
      "scriptpubkey_type": "v1_p2tr",
      "scriptpubkey_address": "bc1p6wqscjdv4gertwrshw68g306sdvsdeefqtu2d0z7spse7zkjxesqphgzhc",
      "value": 600
    },
    {
      "scriptpubkey": "5120d3810c49acaa3235b870bbb47445fa835906e72902f8a6bc5e80619f0ad23660",
      "scriptpubkey_asm": "OP_PUSHNUM_1 OP_PUSHBYTES_32 d3810c49acaa3235b870bbb47445fa835906e72902f8a6bc5e80619f0ad23660",
      "scriptpubkey_type": "v1_p2tr",
      "scriptpubkey_address": "bc1p6wqscjdv4gertwrshw68g306sdvsdeefqtu2d0z7spse7zkjxesqphgzhc",
      "value": 600
    },
    {
      "scriptpubkey": "5120d3810c49acaa3235b870bbb47445fa835906e72902f8a6bc5e80619f0ad23660",
      "scriptpubkey_asm": "OP_PUSHNUM_1 OP_PUSHBYTES_32 d3810c49acaa3235b870bbb47445fa835906e72902f8a6bc5e80619f0ad23660",
      "scriptpubkey_type": "v1_p2tr",
      "scriptpubkey_address": "bc1p6wqscjdv4gertwrshw68g306sdvsdeefqtu2d0z7spse7zkjxesqphgzhc",
      "value": 600
    },
    {
      "scriptpubkey": "5120d3810c49acaa3235b870bbb47445fa835906e72902f8a6bc5e80619f0ad23660",
      "scriptpubkey_asm": "OP_PUSHNUM_1 OP_PUSHBYTES_32 d3810c49acaa3235b870bbb47445fa835906e72902f8a6bc5e80619f0ad23660",
      "scriptpubkey_type": "v1_p2tr",
      "scriptpubkey_address": "bc1p6wqscjdv4gertwrshw68g306sdvsdeefqtu2d0z7spse7zkjxesqphgzhc",
      "value": 600
    },
    {
      "scriptpubkey": "5120d3810c49acaa3235b870bbb47445fa835906e72902f8a6bc5e80619f0ad23660",
      "scriptpubkey_asm": "OP_PUSHNUM_1 OP_PUSHBYTES_32 d3810c49acaa3235b870bbb47445fa835906e72902f8a6bc5e80619f0ad23660",
      "scriptpubkey_type": "v1_p2tr",
      "scriptpubkey_address": "bc1p6wqscjdv4gertwrshw68g306sdvsdeefqtu2d0z7spse7zkjxesqphgzhc",
      "value": 600
    },
    {
      "scriptpubkey": "5120d3810c49acaa3235b870bbb47445fa835906e72902f8a6bc5e80619f0ad23660",
      "scriptpubkey_asm": "OP_PUSHNUM_1 OP_PUSHBYTES_32 d3810c49acaa3235b870bbb47445fa835906e72902f8a6bc5e80619f0ad23660",
      "scriptpubkey_type": "v1_p2tr",
      "scriptpubkey_address": "bc1p6wqscjdv4gertwrshw68g306sdvsdeefqtu2d0z7spse7zkjxesqphgzhc",
      "value": 600
    },
    {
      "scriptpubkey": "5120d3810c49acaa3235b870bbb47445fa835906e72902f8a6bc5e80619f0ad23660",
      "scriptpubkey_asm": "OP_PUSHNUM_1 OP_PUSHBYTES_32 d3810c49acaa3235b870bbb47445fa835906e72902f8a6bc5e80619f0ad23660",
      "scriptpubkey_type": "v1_p2tr",
      "scriptpubkey_address": "bc1p6wqscjdv4gertwrshw68g306sdvsdeefqtu2d0z7spse7zkjxesqphgzhc",
      "value": 600
    },
    {
      "scriptpubkey": "5120d3810c49acaa3235b870bbb47445fa835906e72902f8a6bc5e80619f0ad23660",
      "scriptpubkey_asm": "OP_PUSHNUM_1 OP_PUSHBYTES_32 d3810c49acaa3235b870bbb47445fa835906e72902f8a6bc5e80619f0ad23660",
      "scriptpubkey_type": "v1_p2tr",
      "scriptpubkey_address": "bc1p6wqscjdv4gertwrshw68g306sdvsdeefqtu2d0z7spse7zkjxesqphgzhc",
      "value": 71914
    }
  ],
  "size": 4826,
  "weight": 13715,
  "fee": 51495,
  "status": {
    "confirmed": true,
    "block_height": 834638,
    "block_hash": "000000000000000000025f742c626208ac87e0b7d15054abb4a19ca2d735a54e",
    "block_time": 1710405325
  },
  "hex": "0200000000011cc7e1257441b9dce5026515325c6631829d7c713da6b23a4cc0698440ba265b210500000000ffffffffaf2603f4b15835f47779fd05b76fe6e98e72bc6d560104f521f6d0957068870c0400000000ffffffff15139322a4ec31c21bfcf477e3c525c3fc4f229b8c025c9fb95347f431b93a760800000000ffffffff15139322a4ec31c21bfcf477e3c525c3fc4f229b8c025c9fb95347f431b93a760900000000ffffffffc7e1257441b9dce5026515325c6631829d7c713da6b23a4cc0698440ba265b210400000000fffffffff634489fbff6c26b2fab0a04993444c05870cbba69c1cf15d01dde6ef2b3fd6e0900000000ffffffff15139322a4ec31c21bfcf477e3c525c3fc4f229b8c025c9fb95347f431b93a760a00000000ffffffff83930b98ba51c525d9a4a0cc85b1b641596fe2abfae92e3d0182ad7c8aabb5960100000000fffffffff634489fbff6c26b2fab0a04993444c05870cbba69c1cf15d01dde6ef2b3fd6e0800000000ffffffffeee88e8e18ba6255342526490beea2142fa29abfd3b5cfacdcab67fa5fb290170500000000ffffffff15139322a4ec31c21bfcf477e3c525c3fc4f229b8c025c9fb95347f431b93a760b00000000ffffffff5743d8ccdef1f8fad0acf56a644e2dbb0628f91d1ec577767323538f04e2bd990400000000ffffffffaeb4428a61cd34acdd43e5d408ce2de6ecc63d765ff6d8ac229c6a07694b7d2b0100000000ffffffff969d52b7c82c677ca5bf3600251e948ff814c98205b8d608723fb47df8b6e39e0100000000ffffffff0b032b5ed2888e9bc7699a17e2e30b50669f856251a1db769c66280c17818c990000000000ffffffff3b07ff4aca8dba034f24d2f4f826166b1e190bdeda9d70f8478520f23fcd5fa20000000000ffffffffb28236919f43146b7c2a66ccdd12b906178568d5171e24c41b4bee1af9890ba40000000000ffffffff6181bf7aba574e8a782328a51c66317bf2e3caa18e5db988de2edf16f52f0eac0000000000ffffffff76eb7f14771cefe1c0795c47c2af9917d8434b8fa3c7f2b5a22a16813a5019ea0000000000ffffffff0e5c38f275a024790e2a1aef6a1492b0251f0cc1f0257d5262a2d13e184ed9fb0000000000ffffffff1d639aa6af9eb821dbc7a717001044c024a74fa1e20b8997987201b878d1bf420000000000ffffffffa0ec8bf775eea64fff2df229565da30700ab789892b234a5b299ab7d3c7197b00100000000ffffffffa0ec8bf775eea64fff2df229565da30700ab789892b234a5b299ab7d3c7197b00200000000ffffffffa0ec8bf775eea64fff2df229565da30700ab789892b234a5b299ab7d3c7197b00300000000ffffffff5982e99f620409335ea140c8cd5c697db22e0f0bbee8b0d4febf0af9d88d1d410000000000ffffffff5413e0e1a72b292828a117f06be0ed67d6d92d506e79d0222dba269aed89c1ff0000000000ffffffff164ea4ea7627443987b825676554ec7204479bfca01bdeb61ac81d9097e9368e0000000000ffffffff15139322a4ec31c21bfcf477e3c525c3fc4f229b8c025c9fb95347f431b93a760c00000000ffffffff2baf21000000000000225120d3810c49acaa3235b870bbb47445fa835906e72902f8a6bc5e80619f0ad236602202000000000000225120d3810c49acaa3235b870bbb47445fa835906e72902f8a6bc5e80619f0ad236602202000000000000225120d3810c49acaa3235b870bbb47445fa835906e72902f8a6bc5e80619f0ad236602202000000000000225120d3810c49acaa3235b870bbb47445fa835906e72902f8a6bc5e80619f0ad236602202000000000000225120d3810c49acaa3235b870bbb47445fa835906e72902f8a6bc5e80619f0ad236602202000000000000225120d3810c49acaa3235b870bbb47445fa835906e72902f8a6bc5e80619f0ad236602202000000000000225120d3810c49acaa3235b870bbb47445fa835906e72902f8a6bc5e80619f0ad236602202000000000000225120d3810c49acaa3235b870bbb47445fa835906e72902f8a6bc5e80619f0ad236602202000000000000225120d3810c49acaa3235b870bbb47445fa835906e72902f8a6bc5e80619f0ad236602202000000000000225120d3810c49acaa3235b870bbb47445fa835906e72902f8a6bc5e80619f0ad236602202000000000000225120d3810c49acaa3235b870bbb47445fa835906e72902f8a6bc5e80619f0ad236602202000000000000225120d3810c49acaa3235b870bbb47445fa835906e72902f8a6bc5e80619f0ad236602202000000000000225120d3810c49acaa3235b870bbb47445fa835906e72902f8a6bc5e80619f0ad236604a01000000000000225120d3810c49acaa3235b870bbb47445fa835906e72902f8a6bc5e80619f0ad23660571d0000000000002251206493db42895d6bef4a7f250d28f40e7e2f309dec1410e4bb3b2b2f43d8a93ded571d0000000000002251208bf1870e51e42dd6b63005f25266e2a0767461fbe4b387046acd822133aa08db571d0000000000002251208bf1870e51e42dd6b63005f25266e2a0767461fbe4b387046acd822133aa08db571d0000000000002251208bf1870e51e42dd6b63005f25266e2a0767461fbe4b387046acd822133aa08db571d0000000000002251208bf1870e51e42dd6b63005f25266e2a0767461fbe4b387046acd822133aa08db571d0000000000002251208bf1870e51e42dd6b63005f25266e2a0767461fbe4b387046acd822133aa08dbd72000000000000022512070ee6258f00ac21056f86877ec3c6bb0a7c89122e07308511e1c5a3b7339ab6a3a2100000000000017a9140c220d60f379b6925f24a45ac58c89b594db154b873a2100000000000017a9140c220d60f379b6925f24a45ac58c89b594db154b873a2100000000000017a9140c220d60f379b6925f24a45ac58c89b594db154b873a210000000000002251204a79623a9799d4f3df1ca662dd764d896812819ebfae167b3e237fefb24b5bf03a210000000000002251204a79623a9799d4f3df1ca662dd764d896812819ebfae167b3e237fefb24b5bf0b7220000000000002251208e349334a650e6bac7fdb8f568f813a4fb4d095bfd34989d85f7b46d7bcad5039e0900000000000017a914ea6b832a05c6ca578baa3836f3f25553d41068a5875802000000000000225120d3810c49acaa3235b870bbb47445fa835906e72902f8a6bc5e80619f0ad236605802000000000000225120d3810c49acaa3235b870bbb47445fa835906e72902f8a6bc5e80619f0ad236605802000000000000225120d3810c49acaa3235b870bbb47445fa835906e72902f8a6bc5e80619f0ad236605802000000000000225120d3810c49acaa3235b870bbb47445fa835906e72902f8a6bc5e80619f0ad236605802000000000000225120d3810c49acaa3235b870bbb47445fa835906e72902f8a6bc5e80619f0ad236605802000000000000225120d3810c49acaa3235b870bbb47445fa835906e72902f8a6bc5e80619f0ad236605802000000000000225120d3810c49acaa3235b870bbb47445fa835906e72902f8a6bc5e80619f0ad236605802000000000000225120d3810c49acaa3235b870bbb47445fa835906e72902f8a6bc5e80619f0ad236605802000000000000225120d3810c49acaa3235b870bbb47445fa835906e72902f8a6bc5e80619f0ad236605802000000000000225120d3810c49acaa3235b870bbb47445fa835906e72902f8a6bc5e80619f0ad236605802000000000000225120d3810c49acaa3235b870bbb47445fa835906e72902f8a6bc5e80619f0ad236605802000000000000225120d3810c49acaa3235b870bbb47445fa835906e72902f8a6bc5e80619f0ad236605802000000000000225120d3810c49acaa3235b870bbb47445fa835906e72902f8a6bc5e80619f0ad236605802000000000000225120d3810c49acaa3235b870bbb47445fa835906e72902f8a6bc5e80619f0ad23660ea18010000000000225120d3810c49acaa3235b870bbb47445fa835906e72902f8a6bc5e80619f0ad236600140539cf9a407921cf08efd9180ce41eeadb941339de26dfd3b39d40e00bab2f0504ed13c793c7e222942807496d564c97f66783e0e2e7151aef74dac804a7587e001401a123988ece91c57b74fff15a4ff10099f05adf0e760aed8eb2901cc80be0c4be590cee22589249137bab671f173eac6632e92525cce5f985ae6f7b4c5d903f60140ed320d9b3d27f2784a0339db15a71ee18faf77edf332b5ff7fa7bf0571275b57ad4014a0113c7b44355febe701bea626187d4514e1ec73c142b8a0b193b5153c014034b45d655fe3e304076b338837d04d05f51cad1688fb7f3036493ee8fc6deba0f8e5879a662b6e1870cdaabe8ca46ac1b58655a687272051f84dad124c51096101402d98ca2a16fa308e6b977a290dfed1b38fb7e8db961f229adc02ec8abffde7b8af0503c52e6d9e2f7227d440330cebb8c1c5e30f144bce58484577aac01e1525014005dac5dafce5c3e163af277d64db73ad721ccdadf49cff78cf50b3657c39c906cbb17a4058902e8edf84663a8c8af70922c8c02cf2861fc6a643cefc552be1720140558a848133c5b014263aec62cbd20f15647a087fe423655ba42e63f7305176c90ad333d041394d7baf39e92174ebf18978d2faec9a5a5153934f54a44764fee101405ae094224448f9481d2db1fe19a01e6247443b92338c7c916846ee0bf82ea8a750645e75d3bd9b440f3d75f5a327ebe82af9876be29c36767f7f51dcd382067e014079cc4d8afd765f3798ae3f1517db18066f09819393674a3f348ea5fbf18453ca891e4ca689c6172b17117c85a2f8d92239aa04a309259270165272f766254f230140f2bdc9bd3cb840960a4e34b60d8ae03d29c51ec6edf20274a82434a9bf0ca79f1e6637cf450655ab79d871e086b228308d8beb002a468e264d0b25ddd8df775301409de4816d49cccb24e3c6a4772aa63fc918063fe72b617983f9aed74f1176c6a61774b98579fb5efd3be6e9151cb10b9d8bd1bac7b4cd7bc5820620f77d6a52f701404b484955eec0000d5eb1803918145de561ca8252743759ae2b05d12cfa8ab9e5e46e92f50a624cc2e981689db5093f31d6fdfa0b699f63030b291118c857715d0140e92b6a38e6d58bf0e6dc6ff03c8e992af075843c79640e6de19cfdbfbc88023c4258d9faee9e6ce773f395fa9821f588371129179e1e549d794a9eab13613cd10140453e0890b7274be3043170645cae419e2803cc464a94d23e04b12617860855b4470f0e06c04750f85f685248b9e83740046224397af5875afb8160934b228c7d0141287b8521bc67e3ff056a9e2647254b9f66b059999ae58746050efb69c4a3354acd27c0705b54772b06fc1b2c2097d327169e91ad89726c57d4e70781a9514aff830141b8df470b6a0e5a7e670d5dc71fed8343d58c22e63576f5c9e5b11e5c6a966c122792df3d29151273130121c324c10d8b8398f38bda43195858eb5416330f8b7b830141386abd99f98af337d9054913440df4d92745f98e30e4fe22d30c922a060581934587d4136a884af0ddbd5592adb321c8afabfbf8545445969f32632dc2b580a18301410f93d9ee50e01bd9b2d941d368dd62b89640ee1245dc35475c6c5a89f78317796f0ba88a2ccdc587e3d21b5004f510cb0d22ab5c2442d61214c1bfa8f30f57458301418a854e165da174b9e0cd7356e86040feaff9a034a64621f23828b144bb1d0ab39c6dfb828a18e1d073e2aa4aeca0a5b3ebd12bd3aee0a363abe3d5030a3a4de3830141096346fc3fbaefa6fb1d4ff752fad7c79cb558ea9672fc1626b8a60c9d638be337c79cfa8e8733065b81c6c451fcb0cdd488e01cdf5b3df71ab726672f6194f583014122f6937e97a14ba3e8dcc22f722114e3414a5d043380ef729a14c52ba05940d09c2556209752099be6688a1963f69e87ea97b16cb5c5923fddf4a815edd8396a8301418f6ddf17d9880a9d53441f7fa6c86d2dc96a6cc5edec3fa5e7c271975d49a43248f9cf6f60e99f175b23802525b23af1c518efe5b85e4aaa4c665511618afae6830141fcc02cbb8c72f29de4db6678c586081a378ffeba1a8ab14fc59d0bb46eeb6ebc9509c273d39630c3200a02abc914d231a8e16c2b14a2e544e816619d4d40a4988301410952df9b4c1facfe9b69870d13bc2fb103a44baf9e46da960b725523c4d906a0d966ac3ad0334480f82d92e9b40dc324ce1d3b4ffb59d7f0d5debcb72eb437558301416bec4c6644280754e3c7c528c28c4641bde06f7640686e33e55a7335abc1af226bedfc58208afc9b391668347bc6bede368f583f4c5d3fe75808b43fc80b5c16830141e46714212a81883ea2eaeeffed079a26a751577002bbb7f7e1282c94b260a4586fd47ead453e8d1b937e8669ac245286f8e0fe4a67ccf5c8296bdbcea90389e5830141efa23d7e7e8a403e0d17cfcd4b6904156caeb918ef358e51f2b0d6a72ae8dce24d91d6b8c14be4b71852a0cb6b6a3e3f4b3b312f6497e8526750db3b2b86aa1e8301402143402430e09e78b67c967286dac982f50042913d7c68732abb64a2d63d6ae5834038326d2bf7fadfe0037b91330ab30c155eaf0afd826946e9d84b7410354100000000"
}