{
  "txid": "58824207c3c85453dd1f58a6fde5c9a8b97353c71cb328e61efd453e10ccfdc5",
  "version": 2,
  "locktime": 0,
  "vin": [
    {
      "txid": "7e06d11c611a0cb3fe9934165cd12b254637ba624ddbfc25439e714cf6bafe0f",
      "vout": 0,
      "prevout": {
        "scriptpubkey": "5120601e229dc7fb8af0d811c8ed63b4c420481645e813a955b3ddb1674d0f45c9d8",
        "scriptpubkey_asm": "OP_PUSHNUM_1 OP_PUSHBYTES_32 601e229dc7fb8af0d811c8ed63b4c420481645e813a955b3ddb1674d0f45c9d8",
        "scriptpubkey_type": "v1_p2tr",
        "scriptpubkey_address": "bc1pvq0z98w8lw90pkq3erkk8dxyypypv30gzw54tv7ak9n56r69e8vqggx94x",
        "value": 2702
      },
      "scriptsig": "",
      "scriptsig_asm": "",
      "witness": [
        "77c4b7cc1511583c3887cdbefc9fb302ca3c5202bf7f25e6eaa1f0dfbcda9ed8218279704136af37161ce4fcc3b9b8e0f94486debe3abc987e7ae655c0945572",
        "2003fa099d30ec4e68e23a467dbd1ff0297240964bcfb80184a08af3bf3d649f68ac0063036f7264010118746578742f706c61696e3b636861727365743d7574662d3800407b2270223a226272632d3230222c226f70223a227472616e73666572222c227469636b223a22f09d9b91222c22616d74223a223232303030303030303030227d68",
        "c103fa099d30ec4e68e23a467dbd1ff0297240964bcfb80184a08af3bf3d649f68"
      ],
      "is_coinbase": false,
      "sequence": 4294967293
    }
  ],
  "vout": [
    {
      "scriptpubkey": "512014cc795c55a43affa0e8db8b449ab8dd044687df910dcd855faa8b5cf3431242",
      "scriptpubkey_asm": "OP_PUSHNUM_1 OP_PUSHBYTES_32 14cc795c55a43affa0e8db8b449ab8dd044687df910dcd855faa8b5cf3431242",
      "scriptpubkey_type": "v1_p2tr",
      "scriptpubkey_address": "bc1pznx8jhz45sa0lg8gmw95fx4cm5zydp7ljyxump2l4294eu6rzfpqm6qvgk",
      "value": 546
    }
  ],
  "size": 331,
  "weight": 613,
  "fee": 2156,
  "status": {
    "confirmed": true,
    "block_height": 834460,
    "block_hash": "00000000000000000000484a79b643b2524bbce82e5d8a442013fa5b8905ed98",
    "block_time": 1710307468
  },
  "hex": "020000000001010ffebaf64c719e4325fcdb4d62ba3746252bd15c163499feb30c1a611cd1067e0000000000fdffffff01220200000000000022512014cc795c55a43affa0e8db8b449ab8dd044687df910dcd855faa8b5cf3431242034077c4b7cc1511583c3887cdbefc9fb302ca3c5202bf7f25e6eaa1f0dfbcda9ed8218279704136af37161ce4fcc3b9b8e0f94486debe3abc987e7ae655c0945572862003fa099d30ec4e68e23a467dbd1ff0297240964bcfb80184a08af3bf3d649f68ac0063036f7264010118746578742f706c61696e3b636861727365743d7574662d3800407b2270223a226272632d3230222c226f70223a227472616e73666572222c227469636b223a22f09d9b91222c22616d74223a223232303030303030303030227d6821c103fa099d30ec4e68e23a467dbd1ff0297240964bcfb80184a08af3bf3d649f6800000000"
}