{
  "txid": "5883ca99ee4a01ffcb31c462fb1c72dc0bae3daecd46da50f8ec6402088fa7d8",
  "version": 2,
  "locktime": 0,
  "vin": [
    {
      "txid": "0be531f90b7f03eacfde082f494050039b1e81a651fa114b3cea053b3ce7b3aa",
      "vout": 0,
      "prevout": {
        "scriptpubkey": "5120b359a9b5efce57b576b6a8ac5a9b4e1a869447f86eeb5c34b89e407afaf741fb",
        "scriptpubkey_asm": "OP_PUSHNUM_1 OP_PUSHBYTES_32 b359a9b5efce57b576b6a8ac5a9b4e1a869447f86eeb5c34b89e407afaf741fb",
        "scriptpubkey_type": "v1_p2tr",
        "scriptpubkey_address": "bc1pkdv6nd00eetm2a4k4zk94x6wr2rfg3lcdm44cd9cneq847hhg8as7dmta3",
        "value": 3164
      },
      "scriptsig": "",
      "scriptsig_asm": "",
      "witness": [
        "e35c3474ed27d609bad6a5b99cc1ec54e2f0f278c72ea07dd61f0cffca2105f116ef8869c18096d7fa9a8f536a834c7329cde33e933a646cf066cfd9091a40f6",
        "20ea02a77f25f369c3529d79ad241f9fa6f00c7ef9702b27c59def2c073ca80eecac0063036f7264010118746578742f706c61696e3b636861727365743d7574662d3800407b2270223a226272632d3230222c226f70223a227472616e73666572222c227469636b223a2273617478222c22616d74223a223636363636363636363636227d68",
        "c0ea02a77f25f369c3529d79ad241f9fa6f00c7ef9702b27c59def2c073ca80eec"
      ],
      "is_coinbase": false,
      "sequence": 4294967293
    }
  ],
  "vout": [
    {
      "scriptpubkey": "5120cc0cec1234ef55d60e8ba0ab40738e63f02bf578bae17cf8557265e1751f5599",
      "scriptpubkey_asm": "OP_PUSHNUM_1 OP_PUSHBYTES_32 cc0cec1234ef55d60e8ba0ab40738e63f02bf578bae17cf8557265e1751f5599",
      "scriptpubkey_type": "v1_p2tr",
      "scriptpubkey_address": "bc1pesxwcy35aa2avr5t5z45quuwv0czhatchtshe7z4wfj7zagl2kvsphsnjf",
      "value": 546
    }
  ],
  "size": 331,
  "weight": 613,
  "fee": 2618,
  "status": {
    "confirmed": true,
    "block_height": 834638,
    "block_hash": "000000000000000000025f742c626208ac87e0b7d15054abb4a19ca2d735a54e",
    "block_time": 1710405325
  },
  "hex": "02000000000101aab3e73c3b05ea3c4b11fa51a6811e9b035040492f08decfea037f0bf931e50b0000000000fdffffff012202000000000000225120cc0cec1234ef55d60e8ba0ab40738e63f02bf578bae17cf8557265e1751f55990340e35c3474ed27d609bad6a5b99cc1ec54e2f0f278c72ea07dd61f0cffca2105f116ef8869c18096d7fa9a8f536a834c7329cde33e933a646cf066cfd9091a40f68620ea02a77f25f369c3529d79ad241f9fa6f00c7ef9702b27c59def2c073ca80eecac0063036f7264010118746578742f706c61696e3b636861727365743d7574662d3800407b2270223a226272632d3230222c226f70223a227472616e73666572222c227469636b223a2273617478222c22616d74223a223636363636363636363636227d6821c0ea02a77f25f369c3529d79ad241f9fa6f00c7ef9702b27c59def2c073ca80eec00000000"
}