{
  "txid": "58912aa64cc5269e65307c1f146bb4f9e49ce7d3c71cb7564ee02943d405bfaf",
  "version": 2,
  "locktime": 834370,
  "vin": [
    {
      "txid": "466c90ecad42f0d49f05095e5da48d0f6a6a33efe1da8c54d6e235ddf80fc7cc",
      "vout": 57,
      "prevout": {
        "scriptpubkey": "00145ee0b692505c8acac3ad535f9c7d7dab605f1940",
        "scriptpubkey_asm": "OP_0 OP_PUSHBYTES_20 5ee0b692505c8acac3ad535f9c7d7dab605f1940",
        "scriptpubkey_type": "v0_p2wpkh",
        "scriptpubkey_address": "bc1qtmstdyjstj9v4sad2d0eclta4ds97x2qc5cgss",
        "value": 135773
      },
      "scriptsig": "",
      "scriptsig_asm": "",
      "witness": [
        "30440220795b504a62b98b9b964f88a7c9336588d6541ccee8bc1a3c63ee82486e5415f902200829d4dedc5191b8539ea8afd26734c1ad9b2ffad9c0071d1b02a0474db9323601",
        "03b3e0622644fb38b9bc101df1cfe4620fffd8a2ed0409f643def14e0d3c7e7003"
      ],
      "is_coinbase": false,
      "sequence": 4294967293
    },
    {
      "txid": "8893d15628ce6bc443609f617b015af43d4a4ea6daaa97cc7214d3fffbe5d321",
      "vout": 0,
      "prevout": {
        "scriptpubkey": "00144f14a05d940f7f3e9be9aac4b290f6e6c947680d",
        "scriptpubkey_asm": "OP_0 OP_PUSHBYTES_20 4f14a05d940f7f3e9be9aac4b290f6e6c947680d",
        "scriptpubkey_type": "v0_p2wpkh",
        "scriptpubkey_address": "bc1qfu22qhv5palnaxlf4tzt9y8kumy5w6qd3y7t3e",
        "value": 51465
      },
      "scriptsig": "",
      "scriptsig_asm": "",
      "witness": [
        "30440220429e93d6eb92995ce18c809ef7dabf07db7ef2095f5e68c2693d050e1020835802203e8139a32718bf7976dd3f50f9a039c794f37ff9fbab366122ad9221d5ab2bec01",
        "021ca753712a1e1a39fe6cc42618e093f4cb8c6165a9d60cdfe8ad1cf341939636"
      ],
      "is_coinbase": false,
      "sequence": 4294967293
    },
    {
      "txid": "f749f4fcc05dfbb9f85b97b4275fdc0073d91c21a61f718a6b9f3c8cc5d45cb6",
      "vout": 19,
      "prevout": {
        "scriptpubkey": "001441c5d5c578073ccd23b2c51c2d28bc2343f2973f",
        "scriptpubkey_asm": "OP_0 OP_PUSHBYTES_20 41c5d5c578073ccd23b2c51c2d28bc2343f2973f",
        "scriptpubkey_type": "v0_p2wpkh",
        "scriptpubkey_address": "bc1qg8zat3tcqu7v6gajc5wz629uydpl99elzc7j69",
        "value": 746376
      },
      "scriptsig": "",
      "scriptsig_asm": "",
      "witness": [
        "304402204993538959e8a9aad3757b4ce901da149cfb398403d59445fde2b830894979db02203903944e2bba50de268d17d9acd140a92f2e7e2b297ff19950bb30929747250a01",
        "02ea81f085f2775830b9c3801d3fc19bed75ed78bfc451edfeab1d589d7c81621e"
      ],
      "is_coinbase": false,
      "sequence": 4294967293
    }
  ],
  "vout": [
    {
      "scriptpubkey": "76a91438814f00ba7dfa25f40b38f427b4ae3343f3593788ac",
      "scriptpubkey_asm": "OP_DUP OP_HASH160 OP_PUSHBYTES_20 38814f00ba7dfa25f40b38f427b4ae3343f35937 OP_EQUALVERIFY OP_CHECKSIG",
      "scriptpubkey_type": "p2pkh",
      "scriptpubkey_address": "169mkGBxhAnMVGSsikYuasaZEH1TS2atUJ",
      "value": 929894
    }
  ],
  "size": 490,
  "weight": 991,
  "fee": 3720,
  "status": {
    "confirmed": true,
    "block_height": 834460,
    "block_hash": "00000000000000000000484a79b643b2524bbce82e5d8a442013fa5b8905ed98",
    "block_time": 1710307468
  },
  "hex": "02000000000103ccc70ff8dd35e2d6548cdae1ef336a6a0f8da45d5e09059fd4f042adec906c463900000000fdffffff21d3e5fbffd31472cc97aadaa64e4a3df45a017b619f6043c46bce2856d193880000000000fdffffffb65cd4c58c3c9f6b8a711fa6211cd97300dc5f27b4975bf8b9fb5dc0fcf449f71300000000fdffffff0166300e00000000001976a91438814f00ba7dfa25f40b38f427b4ae3343f3593788ac024730440220795b504a62b98b9b964f88a7c9336588d6541ccee8bc1a3c63ee82486e5415f902200829d4dedc5191b8539ea8afd26734c1ad9b2ffad9c0071d1b02a0474db93236012103b3e0622644fb38b9bc101df1cfe4620fffd8a2ed0409f643def14e0d3c7e7003024730440220429e93d6eb92995ce18c809ef7dabf07db7ef2095f5e68c2693d050e1020835802203e8139a32718bf7976dd3f50f9a039c794f37ff9fbab366122ad9221d5ab2bec0121021ca753712a1e1a39fe6cc42618e093f4cb8c6165a9d60cdfe8ad1cf3419396360247304402204993538959e8a9aad3757b4ce901da149cfb398403d59445fde2b830894979db02203903944e2bba50de268d17d9acd140a92f2e7e2b297ff19950bb30929747250a012102ea81f085f2775830b9c3801d3fc19bed75ed78bfc451edfeab1d589d7c81621e42bb0c00"
}