{
  "txid": "589c36fb6c75e2e1fc1a49c316d4e0197350328c5b4286f737b90520367b9a1f",
  "version": 2,
  "locktime": 0,
  "vin": [
    {
      "txid": "acc3ba00869acb582a3f2904ce3a11dd3779350ce234063fc7d0959246213364",
      "vout": 267,
      "prevout": {
        "scriptpubkey": "51209d74f6dafed95753ae6d1c5cec153fd59acd542bf2e9d3c187f6aca7d830e008",
        "scriptpubkey_asm": "OP_PUSHNUM_1 OP_PUSHBYTES_32 9d74f6dafed95753ae6d1c5cec153fd59acd542bf2e9d3c187f6aca7d830e008",
        "scriptpubkey_type": "v1_p2tr",
        "scriptpubkey_address": "bc1pn460dkh7m9t48tndr3wwc9fl6kdv64pt7t5a8sv876k20kpsuqyqz2jg65",
        "value": 1806
      },
      "scriptsig": "",
      "scriptsig_asm": "",
      "witness": [
        "f338c9e1179847fa5de7b116ce9f719cc73e4a49e7ccf726f52fcc0cf3f00a23eb76b8dc12f1b05fe0e67c0627861d423f4d3e24c7df3f47d81a6ac418969c5b",
        "20f313d859a23ee7fb3d009de394e207627f85e2819e023a2c1987c4efdeab243eac0063036f726401010a746578742f706c61696e00357b2270223a226272632d3230222c226f70223a226d696e74222c227469636b223a22646f6765222c22616d74223a2234323030227d68",
        "c0f313d859a23ee7fb3d009de394e207627f85e2819e023a2c1987c4efdeab243e"
      ],
      "is_coinbase": false,
      "sequence": 4261412863
    }
  ],
  "vout": [
    {
      "scriptpubkey": "00147a665de7a370f4c9b372ab1fae587500a5bcbdb4",
      "scriptpubkey_asm": "OP_0 OP_PUSHBYTES_20 7a665de7a370f4c9b372ab1fae587500a5bcbdb4",
      "scriptpubkey_type": "v0_p2wpkh",
      "scriptpubkey_address": "bc1q0fn9mearwr6vnvmj4v06ukr4qzjme0d565dzcx",
      "value": 294
    }
  ],
  "size": 294,
  "weight": 540,
  "fee": 1512,
  "status": {
    "confirmed": true,
    "block_height": 834460,
    "block_hash": "00000000000000000000484a79b643b2524bbce82e5d8a442013fa5b8905ed98",
    "block_time": 1710307468
  },
  "hex": "02000000000101643321469295d0c73f0634e20c357937dd113ace04293f2a58cb9a8600bac3ac0b01000000fffffffd0126010000000000001600147a665de7a370f4c9b372ab1fae587500a5bcbdb40340f338c9e1179847fa5de7b116ce9f719cc73e4a49e7ccf726f52fcc0cf3f00a23eb76b8dc12f1b05fe0e67c0627861d423f4d3e24c7df3f47d81a6ac418969c5b6d20f313d859a23ee7fb3d009de394e207627f85e2819e023a2c1987c4efdeab243eac0063036f726401010a746578742f706c61696e00357b2270223a226272632d3230222c226f70223a226d696e74222c227469636b223a22646f6765222c22616d74223a2234323030227d6821c0f313d859a23ee7fb3d009de394e207627f85e2819e023a2c1987c4efdeab243e00000000"
}