{
  "txid": "58a5e69fa928a295fdafdc33012e15d495a2e59899d9d203a79e226959a79e04",
  "version": 1,
  "locktime": 0,
  "vin": [
    {
      "txid": "2db378f5ec70cad2058b3df819964ba54f9fc1bb9463e136002307c517395ef6",
      "vout": 0,
      "prevout": {
        "scriptpubkey": "0014e7ec21db88284f54ec9bbcca7ed47432fabf3a4f",
        "scriptpubkey_asm": "OP_0 OP_PUSHBYTES_20 e7ec21db88284f54ec9bbcca7ed47432fabf3a4f",
        "scriptpubkey_type": "v0_p2wpkh",
        "scriptpubkey_address": "bc1qulkzrkug9p84fmymhn98a4r5xtat7wj0fkcft3",
        "value": 50337
      },
      "scriptsig": "",
      "scriptsig_asm": "",
      "witness": [
        "304402207ee90c61ebb4ee3f272759df040cb28c1ad9dd7e8a6a2592a1360188717afbb90220233a25e7bdcafb86d85d58f888b67b9b28b0b0cfa663099ef2dece479a9caa1c01",
        "035fa663af6994c22bcd6f5adeedca406bbcdb48a6bed3d3979e90249f58625042"
      ],
      "is_coinbase": false,
      "sequence": 4294967295
    }
  ],
  "vout": [
    {
      "scriptpubkey": "0014ce04371195d7000f87aec3a2be8ddb81a0d2c1d2",
      "scriptpubkey_asm": "OP_0 OP_PUSHBYTES_20 ce04371195d7000f87aec3a2be8ddb81a0d2c1d2",
      "scriptpubkey_type": "v0_p2wpkh",
      "scriptpubkey_address": "bc1qeczrwyv46uqqlpawcw3tarwmsxsd9swj4euc32",
      "value": 46962
    }
  ],
  "size": 191,
  "weight": 437,
  "fee": 3375,
  "status": {
    "confirmed": true,
    "block_height": 834464,
    "block_hash": "0000000000000000000177a0869a911a2b65c9bdcd5a8bcb02b68f305bee848e",
    "block_time": 1710308296
  },
  "hex": "01000000000101f65e3917c507230036e16394bbc19f4fa54b9619f83d8b05d2ca70ecf578b32d0000000000ffffffff0172b7000000000000160014ce04371195d7000f87aec3a2be8ddb81a0d2c1d20247304402207ee90c61ebb4ee3f272759df040cb28c1ad9dd7e8a6a2592a1360188717afbb90220233a25e7bdcafb86d85d58f888b67b9b28b0b0cfa663099ef2dece479a9caa1c0121035fa663af6994c22bcd6f5adeedca406bbcdb48a6bed3d3979e90249f5862504200000000"
}