{
  "txid": "58a9f5efbec6d5db968c1dc6f363a714680d52430cc8df9dd6a1800d62a7b420",
  "version": 2,
  "locktime": 546893007,
  "vin": [
    {
      "txid": "19a9c09f5a56c70a810c9726aa1a0f101a52e3f208b6e72cc651befdea7f7f88",
      "vout": 0,
      "prevout": {
        "scriptpubkey": "002068cf6bb2ceba56f051bb1ed7024ecbb3d0fb1038826b4e127d987e740f928169",
        "scriptpubkey_asm": "OP_0 OP_PUSHBYTES_32 68cf6bb2ceba56f051bb1ed7024ecbb3d0fb1038826b4e127d987e740f928169",
        "scriptpubkey_type": "v0_p2wsh",
        "scriptpubkey_address": "bc1qdr8khvkwhft0q5dmrmtsynktk0g0kypcsf45uynanpl8grujs95sz4y98j",
        "value": 175853
      },
      "scriptsig": "",
      "scriptsig_asm": "",
      "witness": [
        "",
        "3044022025b0d23e9750cd47c1e4c3120e6b98ec30228be1ac05e8c7805e1ce9eaf686930220327a870c4299529791d2fcf6e18f46c09af5f15baf1efeb93312a6d1b338f9cc01",
        "304402201a9342e67bcc8f616c27197643d39a22ff8b2980e02f0fa3f3f9951901f67f1a02202a51b3f2231924a8583ebe89b19a4ef111d382ff6a5bfbe7cf0e5a526a37c1ee01",
        "5221028db9b64fc358ab55ce6a189284d84d99dce39800682de8fe3c50f8e7e0dd33db2102b2fb48ce4536bc0218d0d72d84d791f07649b0650cecb46d9b1ee94afc1785d452ae"
      ],
      "is_coinbase": false,
      "sequence": 2162246618,
      "inner_witnessscript_asm": "OP_PUSHNUM_2 OP_PUSHBYTES_33 028db9b64fc358ab55ce6a189284d84d99dce39800682de8fe3c50f8e7e0dd33db OP_PUSHBYTES_33 02b2fb48ce4536bc0218d0d72d84d791f07649b0650cecb46d9b1ee94afc1785d4 OP_PUSHNUM_2 OP_CHECKMULTISIG"
    }
  ],
  "vout": [
    {
      "scriptpubkey": "0020de24a01de89994e1b80bc0938d808aa9dc1f773a5ad77a8dae8c62d66d01d92a",
      "scriptpubkey_asm": "OP_0 OP_PUSHBYTES_32 de24a01de89994e1b80bc0938d808aa9dc1f773a5ad77a8dae8c62d66d01d92a",
      "scriptpubkey_type": "v0_p2wsh",
      "scriptpubkey_address": "bc1qmcj2q80gnx2wrwqtczfcmqy248wp7ae6ttth4rdw333dvmgpmy4qtys2sr",
      "value": 330
    },
    {
      "scriptpubkey": "0020f8d3d4f4dd9c1ac59dc429b0428ebaefc1997e82277917066b6c7030c7e4c6e4",
      "scriptpubkey_asm": "OP_0 OP_PUSHBYTES_32 f8d3d4f4dd9c1ac59dc429b0428ebaefc1997e82277917066b6c7030c7e4c6e4",
      "scriptpubkey_type": "v0_p2wsh",
      "scriptpubkey_address": "bc1qlrfafaxansdvt8wy9xcy9r46alqejl5zyau3wpntd3crp3lycmjqjg9dnv",
      "value": 330
    },
    {
      "scriptpubkey": "0020f8380080eef14dce7ce23f68affd15ca624f2a2ecc5bf353b07c1743b23663c8",
      "scriptpubkey_asm": "OP_0 OP_PUSHBYTES_32 f8380080eef14dce7ce23f68affd15ca624f2a2ecc5bf353b07c1743b23663c8",
      "scriptpubkey_type": "v0_p2wsh",
      "scriptpubkey_address": "bc1qlquqpq8w79xuul8z8a52llg4ef3y723we3dlx5as0st58v3kv0yq9nwkp6",
      "value": 73352
    },
    {
      "scriptpubkey": "002017cda684c7b0f6427ee2c28d75a66fc99c467afab1c06f449c668c2de8c8806d",
      "scriptpubkey_asm": "OP_0 OP_PUSHBYTES_32 17cda684c7b0f6427ee2c28d75a66fc99c467afab1c06f449c668c2de8c8806d",
      "scriptpubkey_type": "v0_p2wsh",
      "scriptpubkey_address": "bc1qzlx6dpx8krmyylhzc2xhtfn0exwyv7h6k8qx73yuv6xzm6xgspksruy4sm",
      "value": 98177
    }
  ],
  "size": 443,
  "weight": 1112,
  "fee": 3664,
  "status": {
    "confirmed": true,
    "block_height": 834552,
    "block_hash": "00000000000000000001dd0468a70c94f619251d286585cff57aeb4bd9ede330",
    "block_time": 1710355598
  },
  "hex": "02000000000101887f7feafdbe51c62ce7b608f2e3521a100f1aaa26970c810ac7565a9fc0a9190000000000da43e180044a01000000000000220020de24a01de89994e1b80bc0938d808aa9dc1f773a5ad77a8dae8c62d66d01d92a4a01000000000000220020f8d3d4f4dd9c1ac59dc429b0428ebaefc1997e82277917066b6c7030c7e4c6e4881e010000000000220020f8380080eef14dce7ce23f68affd15ca624f2a2ecc5bf353b07c1743b23663c8817f01000000000022002017cda684c7b0f6427ee2c28d75a66fc99c467afab1c06f449c668c2de8c8806d0400473044022025b0d23e9750cd47c1e4c3120e6b98ec30228be1ac05e8c7805e1ce9eaf686930220327a870c4299529791d2fcf6e18f46c09af5f15baf1efeb93312a6d1b338f9cc0147304402201a9342e67bcc8f616c27197643d39a22ff8b2980e02f0fa3f3f9951901f67f1a02202a51b3f2231924a8583ebe89b19a4ef111d382ff6a5bfbe7cf0e5a526a37c1ee01475221028db9b64fc358ab55ce6a189284d84d99dce39800682de8fe3c50f8e7e0dd33db2102b2fb48ce4536bc0218d0d72d84d791f07649b0650cecb46d9b1ee94afc1785d452aecfec9820"
}