{
  "txid": "58af1ccc221542955bca9c2600e71ef9157b43eaaf4d40f47d81cec81ecff561",
  "version": 1,
  "locktime": 0,
  "vin": [
    {
      "txid": "1158733f611a5612a5398aa10fd677feb88c7c99df8c3e2f419d773da5fbf2a1",
      "vout": 111,
      "prevout": {
        "scriptpubkey": "0014db83a45edcf19e3c1f3977397d2fbcda1cc5a777",
        "scriptpubkey_asm": "OP_0 OP_PUSHBYTES_20 db83a45edcf19e3c1f3977397d2fbcda1cc5a777",
        "scriptpubkey_type": "v0_p2wpkh",
        "scriptpubkey_address": "bc1qmwp6ghku7x0rc8eewuuh6taumgwvtfmh2sekqh",
        "value": 300736
      },
      "scriptsig": "",
      "scriptsig_asm": "",
      "witness": [
        "3045022100ab340e9fccf7414dfb4f4f048dffb3bea84335a2c6ba4a3df0e88e57982fd31a02204582dc52c2aa02dc18cd60cee7f773937ad2b166972e7f1133952a2d3267f4af01",
        "03d517aedd380a4125bcdc23382277786a36ebeaa14065f0a7b561072a5e5e0595"
      ],
      "is_coinbase": false,
      "sequence": 4294967295
    },
    {
      "txid": "c4a48d7f7357ac6eaf5b9d48d80cbc38fddb70a12d5e132f08326e946f4630e5",
      "vout": 172,
      "prevout": {
        "scriptpubkey": "0014db83a45edcf19e3c1f3977397d2fbcda1cc5a777",
        "scriptpubkey_asm": "OP_0 OP_PUSHBYTES_20 db83a45edcf19e3c1f3977397d2fbcda1cc5a777",
        "scriptpubkey_type": "v0_p2wpkh",
        "scriptpubkey_address": "bc1qmwp6ghku7x0rc8eewuuh6taumgwvtfmh2sekqh",
        "value": 204579
      },
      "scriptsig": "",
      "scriptsig_asm": "",
      "witness": [
        "3044022077eb12cf1f0d2d9593c8fbeea91edef4e4724ba21e42682b85b209a8e0600bbc022035e198d0fb59ceca3fa418c92acbf72b573968489593cc1a08c5cc3843d14ee701",
        "03d517aedd380a4125bcdc23382277786a36ebeaa14065f0a7b561072a5e5e0595"
      ],
      "is_coinbase": false,
      "sequence": 4294967295
    },
    {
      "txid": "1a09ac2816f6ad644c847cb50fe0c8af1799d98bb9d1a785f501a4941d6cc459",
      "vout": 144,
      "prevout": {
        "scriptpubkey": "0014db83a45edcf19e3c1f3977397d2fbcda1cc5a777",
        "scriptpubkey_asm": "OP_0 OP_PUSHBYTES_20 db83a45edcf19e3c1f3977397d2fbcda1cc5a777",
        "scriptpubkey_type": "v0_p2wpkh",
        "scriptpubkey_address": "bc1qmwp6ghku7x0rc8eewuuh6taumgwvtfmh2sekqh",
        "value": 136731
      },
      "scriptsig": "",
      "scriptsig_asm": "",
      "witness": [
        "304402206b83d7ca209e2199d363f07a00c0660137d563770f16cba7c313c29f128a7f3f022012716020c5c02b40760d69c9accdb25b5f05d62061700058e62fefae0a66e41601",
        "03d517aedd380a4125bcdc23382277786a36ebeaa14065f0a7b561072a5e5e0595"
      ],
      "is_coinbase": false,
      "sequence": 4294967295
    },
    {
      "txid": "68003fd3d908f913dcf46637f08bab6237acd1b95c0d0510596cf29295ce6f5d",
      "vout": 1,
      "prevout": {
        "scriptpubkey": "0014db83a45edcf19e3c1f3977397d2fbcda1cc5a777",
        "scriptpubkey_asm": "OP_0 OP_PUSHBYTES_20 db83a45edcf19e3c1f3977397d2fbcda1cc5a777",
        "scriptpubkey_type": "v0_p2wpkh",
        "scriptpubkey_address": "bc1qmwp6ghku7x0rc8eewuuh6taumgwvtfmh2sekqh",
        "value": 4628
      },
      "scriptsig": "",
      "scriptsig_asm": "",
      "witness": [
        "3044022034e1f1dc768b00461109b85e28e0670e06a8e236680c5698fff4d35d8663ed8b0220100035c6601beb45e8ba621f1ab5b16a94fbd54922107f5aa82b5d1325b7e32201",
        "03d517aedd380a4125bcdc23382277786a36ebeaa14065f0a7b561072a5e5e0595"
      ],
      "is_coinbase": false,
      "sequence": 4294967295
    }
  ],
  "vout": [
    {
      "scriptpubkey": "76a9144535ef69506d1e4c3067e77e04b801f4fda47b3288ac",
      "scriptpubkey_asm": "OP_DUP OP_HASH160 OP_PUSHBYTES_20 4535ef69506d1e4c3067e77e04b801f4fda47b32 OP_EQUALVERIFY OP_CHECKSIG",
      "scriptpubkey_type": "p2pkh",
      "scriptpubkey_address": "17JxEikDQd79PdGsNPBcZBT59qy9wmRRNw",
      "value": 638115
    }
  ],
  "size": 639,
  "weight": 1263,
  "fee": 8559,
  "status": {
    "confirmed": true,
    "block_height": 834638,
    "block_hash": "000000000000000000025f742c626208ac87e0b7d15054abb4a19ca2d735a54e",
    "block_time": 1710405325
  },
  "hex": "01000000000104a1f2fba53d779d412f3e8cdf997c8cb8fe77d60fa18a39a512561a613f7358116f00000000ffffffffe530466f946e32082f135e2da170dbfd38bc0cd8489d5baf6eac57737f8da4c4ac00000000ffffffff59c46c1d94a401f585a7d1b98bd99917afc8e00fb57c844c64adf61628ac091a9000000000ffffffff5d6fce9592f26c5910050d5cb9d1ac3762ab8bf03766f4dc13f908d9d33f00680100000000ffffffff01a3bc0900000000001976a9144535ef69506d1e4c3067e77e04b801f4fda47b3288ac02483045022100ab340e9fccf7414dfb4f4f048dffb3bea84335a2c6ba4a3df0e88e57982fd31a02204582dc52c2aa02dc18cd60cee7f773937ad2b166972e7f1133952a2d3267f4af012103d517aedd380a4125bcdc23382277786a36ebeaa14065f0a7b561072a5e5e059502473044022077eb12cf1f0d2d9593c8fbeea91edef4e4724ba21e42682b85b209a8e0600bbc022035e198d0fb59ceca3fa418c92acbf72b573968489593cc1a08c5cc3843d14ee7012103d517aedd380a4125bcdc23382277786a36ebeaa14065f0a7b561072a5e5e05950247304402206b83d7ca209e2199d363f07a00c0660137d563770f16cba7c313c29f128a7f3f022012716020c5c02b40760d69c9accdb25b5f05d62061700058e62fefae0a66e416012103d517aedd380a4125bcdc23382277786a36ebeaa14065f0a7b561072a5e5e059502473044022034e1f1dc768b00461109b85e28e0670e06a8e236680c5698fff4d35d8663ed8b0220100035c6601beb45e8ba621f1ab5b16a94fbd54922107f5aa82b5d1325b7e322012103d517aedd380a4125bcdc23382277786a36ebeaa14065f0a7b561072a5e5e059500000000"
}