{
  "txid": "58af46b6c6ae64dc7f720ea2d51cdc72b17a7cf6853f3603d6fb4ac21b8f252e",
  "version": 2,
  "locktime": 0,
  "vin": [
    {
      "txid": "96ec37232141d817e674dded39f2e711adb5d8af1f0328dfa73df8584787eb5f",
      "vout": 0,
      "prevout": {
        "scriptpubkey": "5120ad2f454063c07edc0f20890ac09e93c284f3adf33ab068d2de3fb64d82478d37",
        "scriptpubkey_asm": "OP_PUSHNUM_1 OP_PUSHBYTES_32 ad2f454063c07edc0f20890ac09e93c284f3adf33ab068d2de3fb64d82478d37",
        "scriptpubkey_type": "v1_p2tr",
        "scriptpubkey_address": "bc1p45h52srrcpldcreq3y9vp85nc2z08t0n82cx35k787mymqj835mskywupp",
        "value": 546
      },
      "scriptsig": "",
      "scriptsig_asm": "",
      "witness": [
        "a953c45dcbf6f43bce6d38b0b08d8dbc813df3c1418d518ada156bce9b5990bad23515feb51798ce4bfe91e4f94afed79faf7dbbb9b30568da07fc16d2b919da"
      ],
      "is_coinbase": false,
      "sequence": 2147483649
    },
    {
      "txid": "aecb08288582cd2474148c2a583701500dc93396866396ae08d1da800315ed73",
      "vout": 1,
      "prevout": {
        "scriptpubkey": "5120ad2f454063c07edc0f20890ac09e93c284f3adf33ab068d2de3fb64d82478d37",
        "scriptpubkey_asm": "OP_PUSHNUM_1 OP_PUSHBYTES_32 ad2f454063c07edc0f20890ac09e93c284f3adf33ab068d2de3fb64d82478d37",
        "scriptpubkey_type": "v1_p2tr",
        "scriptpubkey_address": "bc1p45h52srrcpldcreq3y9vp85nc2z08t0n82cx35k787mymqj835mskywupp",
        "value": 265755
      },
      "scriptsig": "",
      "scriptsig_asm": "",
      "witness": [
        "ac853b0fd157b2a9a5e70ffd37c23e18963825f3af1d66e63e6ce08e6b6dbf3df5007f2d97f3f2c78d943e23d5ab3fbadcf043a4db6ce62f1ca02aeaeaaca482"
      ],
      "is_coinbase": false,
      "sequence": 2147483649
    }
  ],
  "vout": [
    {
      "scriptpubkey": "51209cd18976e009ad67c730280775fe7606b5bbb21089604c427864641855ed9b51",
      "scriptpubkey_asm": "OP_PUSHNUM_1 OP_PUSHBYTES_32 9cd18976e009ad67c730280775fe7606b5bbb21089604c427864641855ed9b51",
      "scriptpubkey_type": "v1_p2tr",
      "scriptpubkey_address": "bc1pnngcjahqpxkk03es9qrhtlnkq66mhvss39sycsncv3jps40dndgsccdrcx",
      "value": 546
    },
    {
      "scriptpubkey": "5120ad2f454063c07edc0f20890ac09e93c284f3adf33ab068d2de3fb64d82478d37",
      "scriptpubkey_asm": "OP_PUSHNUM_1 OP_PUSHBYTES_32 ad2f454063c07edc0f20890ac09e93c284f3adf33ab068d2de3fb64d82478d37",
      "scriptpubkey_type": "v1_p2tr",
      "scriptpubkey_address": "bc1p45h52srrcpldcreq3y9vp85nc2z08t0n82cx35k787mymqj835mskywupp",
      "value": 262590
    }
  ],
  "size": 312,
  "weight": 846,
  "fee": 3165,
  "status": {
    "confirmed": true,
    "block_height": 834638,
    "block_hash": "000000000000000000025f742c626208ac87e0b7d15054abb4a19ca2d735a54e",
    "block_time": 1710405325
  },
  "hex": "020000000001025feb874758f83da7df28031fafd8b5ad11e7f239eddd74e617d841212337ec9600000000000100008073ed150380dad108ae9663869633c90d500137582a8c147424cd82852808cbae0100000000010000800222020000000000002251209cd18976e009ad67c730280775fe7606b5bbb21089604c427864641855ed9b51be01040000000000225120ad2f454063c07edc0f20890ac09e93c284f3adf33ab068d2de3fb64d82478d370140a953c45dcbf6f43bce6d38b0b08d8dbc813df3c1418d518ada156bce9b5990bad23515feb51798ce4bfe91e4f94afed79faf7dbbb9b30568da07fc16d2b919da0140ac853b0fd157b2a9a5e70ffd37c23e18963825f3af1d66e63e6ce08e6b6dbf3df5007f2d97f3f2c78d943e23d5ab3fbadcf043a4db6ce62f1ca02aeaeaaca48200000000"
}