{
  "txid": "58bc766d3c2b53b2ba809ea324a118f3462fc9b31d6b0c84b59a0ffa57b95229",
  "version": 2,
  "locktime": 0,
  "vin": [
    {
      "txid": "df591e3f4584734968fbfce1444dcebe18baef49c490e051d799e564eeac134e",
      "vout": 33,
      "prevout": {
        "scriptpubkey": "0014b8e9b0f834f5e5134c4b133b6ea0a21e7542ac01",
        "scriptpubkey_asm": "OP_0 OP_PUSHBYTES_20 b8e9b0f834f5e5134c4b133b6ea0a21e7542ac01",
        "scriptpubkey_type": "v0_p2wpkh",
        "scriptpubkey_address": "bc1qhr5mp7p57hj3xnztzvakag9zre659tqpe9ea42",
        "value": 10644081
      },
      "scriptsig": "",
      "scriptsig_asm": "",
      "witness": [
        "3045022100aac9808cfad1e04d63546e88cc20971ceae0a0dd0b955ce797c2e65170edc244022067a488454f9eb77cb0cf6c8b6661562b18998b24aa2ac466a9af45e9248f43b301",
        "021d0718c8e36750612fe1bd545d8f22ef93bb8e798c04b8b6af26f89c40ca8fe6"
      ],
      "is_coinbase": false,
      "sequence": 4294967295
    },
    {
      "txid": "f15fe4f71e9d3b5e81ae1a8079467cb1e2551d5dbf37257e231200c671548423",
      "vout": 38,
      "prevout": {
        "scriptpubkey": "0014b8e9b0f834f5e5134c4b133b6ea0a21e7542ac01",
        "scriptpubkey_asm": "OP_0 OP_PUSHBYTES_20 b8e9b0f834f5e5134c4b133b6ea0a21e7542ac01",
        "scriptpubkey_type": "v0_p2wpkh",
        "scriptpubkey_address": "bc1qhr5mp7p57hj3xnztzvakag9zre659tqpe9ea42",
        "value": 10282000
      },
      "scriptsig": "",
      "scriptsig_asm": "",
      "witness": [
        "3044022005ceaa558f5947310b7b5d6801af7f7c270a8c75a13fddc60aafbe8b22488279022058a71e80e4abfd98f9300ea1567f5a639627d61a4d0f4122b055918b02b0d6c601",
        "021d0718c8e36750612fe1bd545d8f22ef93bb8e798c04b8b6af26f89c40ca8fe6"
      ],
      "is_coinbase": false,
      "sequence": 4294967295
    }
  ],
  "vout": [
    {
      "scriptpubkey": "0014b8e9b0f834f5e5134c4b133b6ea0a21e7542ac01",
      "scriptpubkey_asm": "OP_0 OP_PUSHBYTES_20 b8e9b0f834f5e5134c4b133b6ea0a21e7542ac01",
      "scriptpubkey_type": "v0_p2wpkh",
      "scriptpubkey_address": "bc1qhr5mp7p57hj3xnztzvakag9zre659tqpe9ea42",
      "value": 1922136
    },
    {
      "scriptpubkey": "00145b0a404c3094e96a5fe2f20d942e52e7e0e3245d",
      "scriptpubkey_asm": "OP_0 OP_PUSHBYTES_20 5b0a404c3094e96a5fe2f20d942e52e7e0e3245d",
      "scriptpubkey_type": "v0_p2wpkh",
      "scriptpubkey_address": "bc1qtv9yqnpsjn5k5hlz7gxegtjjulswxfzach3qqs",
      "value": 19000000
    }
  ],
  "size": 371,
  "weight": 833,
  "fee": 3945,
  "status": {
    "confirmed": true,
    "block_height": 834638,
    "block_hash": "000000000000000000025f742c626208ac87e0b7d15054abb4a19ca2d735a54e",
    "block_time": 1710405325
  },
  "hex": "020000000001024e13acee64e599d751e090c449efba18bece4d44e1fcfb68497384453f1e59df2100000000ffffffff23845471c60012237e2537bf5d1d55e2b17c4679801aae815e3b9d1ef7e45ff12600000000ffffffff0258541d0000000000160014b8e9b0f834f5e5134c4b133b6ea0a21e7542ac01c0ea2101000000001600145b0a404c3094e96a5fe2f20d942e52e7e0e3245d02483045022100aac9808cfad1e04d63546e88cc20971ceae0a0dd0b955ce797c2e65170edc244022067a488454f9eb77cb0cf6c8b6661562b18998b24aa2ac466a9af45e9248f43b30121021d0718c8e36750612fe1bd545d8f22ef93bb8e798c04b8b6af26f89c40ca8fe602473044022005ceaa558f5947310b7b5d6801af7f7c270a8c75a13fddc60aafbe8b22488279022058a71e80e4abfd98f9300ea1567f5a639627d61a4d0f4122b055918b02b0d6c60121021d0718c8e36750612fe1bd545d8f22ef93bb8e798c04b8b6af26f89c40ca8fe600000000"
}