{
  "txid": "58c2fcbb1ca9582314979cec3d314e5acb494e49ea42c55967121f85ef009252",
  "version": 2,
  "locktime": 0,
  "vin": [
    {
      "txid": "9c10b007d2133e013cafef64d1faa7fec4afc4908ff78aa73222c05d55f4b3b4",
      "vout": 26,
      "prevout": {
        "scriptpubkey": "51203c656e65d15d56dca891d37c20f30af895a9ee2d562cff4d2ef5e399af8fb584",
        "scriptpubkey_asm": "OP_PUSHNUM_1 OP_PUSHBYTES_32 3c656e65d15d56dca891d37c20f30af895a9ee2d562cff4d2ef5e399af8fb584",
        "scriptpubkey_type": "v1_p2tr",
        "scriptpubkey_address": "bc1p83jkuew3t4tde2y36d7zpuc2lz26nm3d2ck07nfw7h3entu0kkzqyz2q7j",
        "value": 3248
      },
      "scriptsig": "",
      "scriptsig_asm": "",
      "witness": [
        "9cda3180cfc1611fc87911d63068537c43064cfdc3d0f776b86583c684bb5af756d03ea1b10b31df138ae89446b645be43e5193fa4d68d36be5d5b5e1a94f605",
        "206adab30430f2f0944938b6873689eb4401e7b092ea86c4db8b1da80e63ff9ee1ac0063036f726401011e6170706c69636174696f6e2f6a736f6e3b636861727365743d7574662d38004cd37b2270223a22706f772d3230222c226f70223a226d696e74222c227469636b223a2250455045222c22616d74223a2231303030222c22736f6c7574696f6e223a22504550453a62633170636a65387233733875656e746d64767a6e34777337786d3836367879707535756139357371796877756835616d61677565367a73707a733637713a303030303030303030303030303030303030303139393431613561653132383937363539383134343239323533333030353762306461393666336465613163353a3138393838363132333535227d68",
        "c03e1a296467c00ef4aae3d2c5b2725c238a71cd400892ce19de6d969e3f5bb91e"
      ],
      "is_coinbase": false,
      "sequence": 4294967295
    }
  ],
  "vout": [
    {
      "scriptpubkey": "5120c4b271c607e666bdb5829d5d0f1b67d68c40f29ce9690012eee5e9ddf51cce85",
      "scriptpubkey_asm": "OP_PUSHNUM_1 OP_PUSHBYTES_32 c4b271c607e666bdb5829d5d0f1b67d68c40f29ce9690012eee5e9ddf51cce85",
      "scriptpubkey_type": "v1_p2tr",
      "scriptpubkey_address": "bc1pcje8r3s8uentmdvzn4ws7xm866xypu5ua95sqyhwuh5amague6zspzs67q",
      "value": 546
    }
  ],
  "size": 487,
  "weight": 769,
  "fee": 2702,
  "status": {
    "confirmed": true,
    "block_height": 834460,
    "block_hash": "00000000000000000000484a79b643b2524bbce82e5d8a442013fa5b8905ed98",
    "block_time": 1710307468
  },
  "hex": "02000000000101b4b3f4555dc02232a78af78f90c4afc4fea7fad164efaf3c013e13d207b0109c1a00000000ffffffff012202000000000000225120c4b271c607e666bdb5829d5d0f1b67d68c40f29ce9690012eee5e9ddf51cce8503409cda3180cfc1611fc87911d63068537c43064cfdc3d0f776b86583c684bb5af756d03ea1b10b31df138ae89446b645be43e5193fa4d68d36be5d5b5e1a94f605fd2001206adab30430f2f0944938b6873689eb4401e7b092ea86c4db8b1da80e63ff9ee1ac0063036f726401011e6170706c69636174696f6e2f6a736f6e3b636861727365743d7574662d38004cd37b2270223a22706f772d3230222c226f70223a226d696e74222c227469636b223a2250455045222c22616d74223a2231303030222c22736f6c7574696f6e223a22504550453a62633170636a65387233733875656e746d64767a6e34777337786d3836367879707535756139357371796877756835616d61677565367a73707a733637713a303030303030303030303030303030303030303139393431613561653132383937363539383134343239323533333030353762306461393666336465613163353a3138393838363132333535227d6821c03e1a296467c00ef4aae3d2c5b2725c238a71cd400892ce19de6d969e3f5bb91e00000000"
}