{
  "txid": "58d3f7e1e6a188456640c063c50d2be90afe2a07457e5288724d718d56f52d0b",
  "version": 1,
  "locktime": 0,
  "vin": [
    {
      "txid": "43775c769bb9aeb9c0e9ce1bc87a780ee097848dce9bf0e60029182d588a9306",
      "vout": 1,
      "prevout": {
        "scriptpubkey": "0014e389dadadd02e5db2658884d4f0fb89bf536f85f",
        "scriptpubkey_asm": "OP_0 OP_PUSHBYTES_20 e389dadadd02e5db2658884d4f0fb89bf536f85f",
        "scriptpubkey_type": "v0_p2wpkh",
        "scriptpubkey_address": "bc1quwya4kkaqtjakfjc3px57racn06nd7zl76dtn7",
        "value": 775674
      },
      "scriptsig": "",
      "scriptsig_asm": "",
      "witness": [
        "30440220449f882dd39bc5335001480c3cc0b3c65287bb00fc462d1eed4ce56d6558bdca02200d69346a906d4eee72ce1d85694e95e4e46e73be1f60242e3749922c0c6ddc9e01",
        "0276ec938577d947abb760cd9063e8608a84a660b543e2b87e32dbe0bdd959aff3"
      ],
      "is_coinbase": false,
      "sequence": 4294967295
    }
  ],
  "vout": [
    {
      "scriptpubkey": "0014e0f74fc956f546d660807fb8ffcb2e8cc982cb92",
      "scriptpubkey_asm": "OP_0 OP_PUSHBYTES_20 e0f74fc956f546d660807fb8ffcb2e8cc982cb92",
      "scriptpubkey_type": "v0_p2wpkh",
      "scriptpubkey_address": "bc1qurm5lj2k74rdvcyq07u0ljew3nyc9jujmq3xjw",
      "value": 772704
    }
  ],
  "size": 191,
  "weight": 437,
  "fee": 2970,
  "status": {
    "confirmed": true,
    "block_height": 834638,
    "block_hash": "000000000000000000025f742c626208ac87e0b7d15054abb4a19ca2d735a54e",
    "block_time": 1710405325
  },
  "hex": "0100000000010106938a582d182900e6f09bce8d8497e00e787ac81bcee9c0b9aeb99b765c77430100000000ffffffff0160ca0b0000000000160014e0f74fc956f546d660807fb8ffcb2e8cc982cb92024730440220449f882dd39bc5335001480c3cc0b3c65287bb00fc462d1eed4ce56d6558bdca02200d69346a906d4eee72ce1d85694e95e4e46e73be1f60242e3749922c0c6ddc9e01210276ec938577d947abb760cd9063e8608a84a660b543e2b87e32dbe0bdd959aff300000000"
}