{
  "txid": "58dddb56aac9a1afaf34e570f74a3a4b67ef07b43604b976e9b94652f325119c",
  "version": 2,
  "locktime": 0,
  "vin": [
    {
      "txid": "a0e1a93e80852a4eef4c7f942764452f5c80309e103f4435a585b8bf69379cd1",
      "vout": 0,
      "prevout": {
        "scriptpubkey": "00141df264d60bf2a3a73beefc15a9a7590c5b62b533",
        "scriptpubkey_asm": "OP_0 OP_PUSHBYTES_20 1df264d60bf2a3a73beefc15a9a7590c5b62b533",
        "scriptpubkey_type": "v0_p2wpkh",
        "scriptpubkey_address": "bc1qrhexf4st7236wwlwls26nf6ep3dk9dfnzq5kqw",
        "value": 854693
      },
      "scriptsig": "",
      "scriptsig_asm": "",
      "witness": [
        "3044022045ca38d731d05f897b6c371cc6be55ea0e699d69d529de34e5e7cf950e2f5ab40220448b46b0d62f7d42a1111811ed80eecc2895960ff813b534f3fae17aa114c93e01",
        "021b0ef9bf09a957d4657b9caca9ee02bbfb816bc7d064d5c68acfad3cfa2cc52b"
      ],
      "is_coinbase": false,
      "sequence": 4294967295
    },
    {
      "txid": "a0a1691fc384a8e474b80e8ca462b66dfbb3773378ac01965275c16c777c5e92",
      "vout": 0,
      "prevout": {
        "scriptpubkey": "00141df264d60bf2a3a73beefc15a9a7590c5b62b533",
        "scriptpubkey_asm": "OP_0 OP_PUSHBYTES_20 1df264d60bf2a3a73beefc15a9a7590c5b62b533",
        "scriptpubkey_type": "v0_p2wpkh",
        "scriptpubkey_address": "bc1qrhexf4st7236wwlwls26nf6ep3dk9dfnzq5kqw",
        "value": 1315439
      },
      "scriptsig": "",
      "scriptsig_asm": "",
      "witness": [
        "3044022043093c14899454e666bdd1a74478488c6a24bdd2307891227beb51fb70e31c58022051ee9430dac34b3cade21e5d03fc991eb5229a1f86693904aca7390a35e0c7d901",
        "021b0ef9bf09a957d4657b9caca9ee02bbfb816bc7d064d5c68acfad3cfa2cc52b"
      ],
      "is_coinbase": false,
      "sequence": 4294967295
    }
  ],
  "vout": [
    {
      "scriptpubkey": "00141df264d60bf2a3a73beefc15a9a7590c5b62b533",
      "scriptpubkey_asm": "OP_0 OP_PUSHBYTES_20 1df264d60bf2a3a73beefc15a9a7590c5b62b533",
      "scriptpubkey_type": "v0_p2wpkh",
      "scriptpubkey_address": "bc1qrhexf4st7236wwlwls26nf6ep3dk9dfnzq5kqw",
      "value": 1211020
    },
    {
      "scriptpubkey": "0014be59ff7c5dbf63b70bef3d1b0ded0fe6192f0985",
      "scriptpubkey_asm": "OP_0 OP_PUSHBYTES_20 be59ff7c5dbf63b70bef3d1b0ded0fe6192f0985",
      "scriptpubkey_type": "v0_p2wpkh",
      "scriptpubkey_address": "bc1qhevl7lzaha3mwzl085dsmmg0ucvj7zv9vyslz6",
      "value": 956095
    }
  ],
  "size": 370,
  "weight": 832,
  "fee": 3017,
  "status": {
    "confirmed": true,
    "block_height": 834638,
    "block_hash": "000000000000000000025f742c626208ac87e0b7d15054abb4a19ca2d735a54e",
    "block_time": 1710405325
  },
  "hex": "02000000000102d19c3769bfb885a535443f109e30805c2f456427947f4cef4e2a85803ea9e1a00000000000ffffffff925e7c776cc175529601ac783377b3fb6db662a48c0eb874e4a884c31f69a1a00000000000ffffffff028c7a1200000000001600141df264d60bf2a3a73beefc15a9a7590c5b62b533bf960e0000000000160014be59ff7c5dbf63b70bef3d1b0ded0fe6192f098502473044022045ca38d731d05f897b6c371cc6be55ea0e699d69d529de34e5e7cf950e2f5ab40220448b46b0d62f7d42a1111811ed80eecc2895960ff813b534f3fae17aa114c93e0121021b0ef9bf09a957d4657b9caca9ee02bbfb816bc7d064d5c68acfad3cfa2cc52b02473044022043093c14899454e666bdd1a74478488c6a24bdd2307891227beb51fb70e31c58022051ee9430dac34b3cade21e5d03fc991eb5229a1f86693904aca7390a35e0c7d90121021b0ef9bf09a957d4657b9caca9ee02bbfb816bc7d064d5c68acfad3cfa2cc52b00000000"
}