{
  "txid": "58f4ab89c3f24bd539d3f3ba5931e0792f0316a0569c6e5bb7a4150b07aea87b",
  "version": 2,
  "locktime": 0,
  "vin": [
    {
      "txid": "a540620fe14bbea67830b627ccd51c8b2cc20de8fc5c9511e9eb1d1dc847d160",
      "vout": 6,
      "prevout": {
        "scriptpubkey": "76a9147887596031e887d9130fa0f622acfe74b730a8c188ac",
        "scriptpubkey_asm": "OP_DUP OP_HASH160 OP_PUSHBYTES_20 7887596031e887d9130fa0f622acfe74b730a8c1 OP_EQUALVERIFY OP_CHECKSIG",
        "scriptpubkey_type": "p2pkh",
        "scriptpubkey_address": "1BzJEF1wKfKzfy3aHskctHWSHNNEvbU2xe",
        "value": 2007935
      },
      "scriptsig": "473044022028b4c122d3c9ced47087d4cfe3780b7070cf1cbb57e8918bbd394bd7cd324075022044a22453fd6240db239fb0e4603a2fe2a9d8a8bab4f83aa6408c9102669589260121024f70a9fc0b9f1ae740d43a67b597365192ba2e87c88fe38c2e47f2227d3aa74e",
      "scriptsig_asm": "OP_PUSHBYTES_71 3044022028b4c122d3c9ced47087d4cfe3780b7070cf1cbb57e8918bbd394bd7cd324075022044a22453fd6240db239fb0e4603a2fe2a9d8a8bab4f83aa6408c91026695892601 OP_PUSHBYTES_33 024f70a9fc0b9f1ae740d43a67b597365192ba2e87c88fe38c2e47f2227d3aa74e",
      "is_coinbase": false,
      "sequence": 4294967293
    },
    {
      "txid": "a85a642aaed6cd81769fa511e54eff03285be7abff285a1bb9afdb5188db54db",
      "vout": 3,
      "prevout": {
        "scriptpubkey": "76a9147887596031e887d9130fa0f622acfe74b730a8c188ac",
        "scriptpubkey_asm": "OP_DUP OP_HASH160 OP_PUSHBYTES_20 7887596031e887d9130fa0f622acfe74b730a8c1 OP_EQUALVERIFY OP_CHECKSIG",
        "scriptpubkey_type": "p2pkh",
        "scriptpubkey_address": "1BzJEF1wKfKzfy3aHskctHWSHNNEvbU2xe",
        "value": 1004300
      },
      "scriptsig": "48304502210089698079d97cbe3e4c96317664c109bafa014497f9f85349ad85c66e26538a32022027a452a468acb464991d31856f1ab0757886238e2db46bbab1d5c05d6768c9d40121024f70a9fc0b9f1ae740d43a67b597365192ba2e87c88fe38c2e47f2227d3aa74e",
      "scriptsig_asm": "OP_PUSHBYTES_72 304502210089698079d97cbe3e4c96317664c109bafa014497f9f85349ad85c66e26538a32022027a452a468acb464991d31856f1ab0757886238e2db46bbab1d5c05d6768c9d401 OP_PUSHBYTES_33 024f70a9fc0b9f1ae740d43a67b597365192ba2e87c88fe38c2e47f2227d3aa74e",
      "is_coinbase": false,
      "sequence": 4294967293
    }
  ],
  "vout": [
    {
      "scriptpubkey": "00140d938f8177975d6b3bdbcbb5b976a0007bc71460",
      "scriptpubkey_asm": "OP_0 OP_PUSHBYTES_20 0d938f8177975d6b3bdbcbb5b976a0007bc71460",
      "scriptpubkey_type": "v0_p2wpkh",
      "scriptpubkey_address": "bc1qpkfclqthjawkkw7mew6mja4qqpauw9rq40n7l0",
      "value": 2966605
    }
  ],
  "size": 336,
  "weight": 1344,
  "fee": 45630,
  "status": {
    "confirmed": true,
    "block_height": 834638,
    "block_hash": "000000000000000000025f742c626208ac87e0b7d15054abb4a19ca2d735a54e",
    "block_time": 1710405325
  },
  "hex": "020000000260d147c81d1debe911955cfce80dc22c8b1cd5cc27b63078a6be4be10f6240a5060000006a473044022028b4c122d3c9ced47087d4cfe3780b7070cf1cbb57e8918bbd394bd7cd324075022044a22453fd6240db239fb0e4603a2fe2a9d8a8bab4f83aa6408c9102669589260121024f70a9fc0b9f1ae740d43a67b597365192ba2e87c88fe38c2e47f2227d3aa74efdffffffdb54db8851dbafb91b5a28ffabe75b2803ff4ee511a59f7681cdd6ae2a645aa8030000006b48304502210089698079d97cbe3e4c96317664c109bafa014497f9f85349ad85c66e26538a32022027a452a468acb464991d31856f1ab0757886238e2db46bbab1d5c05d6768c9d40121024f70a9fc0b9f1ae740d43a67b597365192ba2e87c88fe38c2e47f2227d3aa74efdffffff014d442d00000000001600140d938f8177975d6b3bdbcbb5b976a0007bc7146000000000"
}