{
  "txid": "59023709e537b5ea015c196a98f7381fe2687fba887267552390794dcb18dcd7",
  "version": 1,
  "locktime": 0,
  "vin": [
    {
      "txid": "59cca59139c56134075a57791d80aa597e7998c3a84006b7490fb447c9a38905",
      "vout": 0,
      "prevout": {
        "scriptpubkey": "51209c9c6ed86a869447662bc738bf72eeafa7cd78e23186f58ae0a283917bfd25f9",
        "scriptpubkey_asm": "OP_PUSHNUM_1 OP_PUSHBYTES_32 9c9c6ed86a869447662bc738bf72eeafa7cd78e23186f58ae0a283917bfd25f9",
        "scriptpubkey_type": "v1_p2tr",
        "scriptpubkey_address": "bc1pnjwxakr2s62ywe3tcuut7uhw47nu678zxxr0tzhq52pez7layhuspzf027",
        "value": 2713
      },
      "scriptsig": "",
      "scriptsig_asm": "",
      "witness": [
        "05fcfdc63b8a7c836e956b06ea72bba0fb74525894dac207ce1332d5c97d033b09aadba1eceafe3c870f123e890b0f5f6f8adcb65307398286f7fe198874e18c83",
        "20be11f1d0580232188e877ef283eb5a1efd4e9e5290a2633605d666f59ad3fff2ac00630461746f6d03646d742da16461726773a36b6d696e745f7469636b657264646f6765656e6f6e63651a00391e456474696d651a65f10d5b68",
        "c1be11f1d0580232188e877ef283eb5a1efd4e9e5290a2633605d666f59ad3fff2"
      ],
      "is_coinbase": false,
      "sequence": 4294967293
    }
  ],
  "vout": [
    {
      "scriptpubkey": "51202cf3cfe57a56e55f9d66b8c9313e1283f273548520643be2519b18235a4815e8",
      "scriptpubkey_asm": "OP_PUSHNUM_1 OP_PUSHBYTES_32 2cf3cfe57a56e55f9d66b8c9313e1283f273548520643be2519b18235a4815e8",
      "scriptpubkey_type": "v1_p2tr",
      "scriptpubkey_address": "bc1p9neulet62mj4l8txhrynz0sjs0e8x4y9ypjrhcj3nvvzxkjgzh5qsrxgx5",
      "value": 1000
    }
  ],
  "size": 290,
  "weight": 572,
  "fee": 1713,
  "status": {
    "confirmed": true,
    "block_height": 834460,
    "block_hash": "00000000000000000000484a79b643b2524bbce82e5d8a442013fa5b8905ed98",
    "block_time": 1710307468
  },
  "hex": "010000000001010589a3c947b40f49b70640a8c398797e59aa801d79575a073461c53991a5cc590000000000fdffffff01e8030000000000002251202cf3cfe57a56e55f9d66b8c9313e1283f273548520643be2519b18235a4815e8034105fcfdc63b8a7c836e956b06ea72bba0fb74525894dac207ce1332d5c97d033b09aadba1eceafe3c870f123e890b0f5f6f8adcb65307398286f7fe198874e18c835c20be11f1d0580232188e877ef283eb5a1efd4e9e5290a2633605d666f59ad3fff2ac00630461746f6d03646d742da16461726773a36b6d696e745f7469636b657264646f6765656e6f6e63651a00391e456474696d651a65f10d5b6821c1be11f1d0580232188e877ef283eb5a1efd4e9e5290a2633605d666f59ad3fff200000000"
}