{
  "txid": "590c00626ac0f473740794be7264dff08dd93bcc895757ca8cfdb61fbfa2ae42",
  "version": 1,
  "locktime": 0,
  "vin": [
    {
      "txid": "4d66d0eeeaa32dbcfe95d77a6745880b4b77f1ef70f2342487ba3aa2eefff784",
      "vout": 1,
      "prevout": {
        "scriptpubkey": "001451c9e62a7fddae7d89579281b7820e3712989f2a",
        "scriptpubkey_asm": "OP_0 OP_PUSHBYTES_20 51c9e62a7fddae7d89579281b7820e3712989f2a",
        "scriptpubkey_type": "v0_p2wpkh",
        "scriptpubkey_address": "bc1q28y7v2nlmkh8mz2hj2qm0qswxuff38e29nx8ta",
        "value": 5913
      },
      "scriptsig": "",
      "scriptsig_asm": "",
      "witness": [
        "304402204f4c55eef5c6f98eb22c467239de8051186354320a964ef221c736112297090902207011b3f6d07ba5b8d9a878627ec1387fbc4fecf5fa89727f155dcab5bc58a45201",
        "02d41f6a4ebc80d286f2dd4e5c6c6b12055d7f1b86a75af2b4a3412511d13d1742"
      ],
      "is_coinbase": false,
      "sequence": 4294967295
    },
    {
      "txid": "fae03a1b8eadd2075e249e8ff59ddb3ac07d267b4bc54ef2e8431246c0139c94",
      "vout": 0,
      "prevout": {
        "scriptpubkey": "00143b654b468a7c29366540eeae9ba22cde78a5426b",
        "scriptpubkey_asm": "OP_0 OP_PUSHBYTES_20 3b654b468a7c29366540eeae9ba22cde78a5426b",
        "scriptpubkey_type": "v0_p2wpkh",
        "scriptpubkey_address": "bc1q8dj5k3520s5nve2qa6hfhg3vmeu22sntew72rt",
        "value": 923875
      },
      "scriptsig": "",
      "scriptsig_asm": "",
      "witness": [
        "3044022002baf3816312165ca6ea6a534d3be7cfa8dad4072e9128b0425c96be8ef4b2430220413f98e6ba113cd07a310351f2ca60761fc7ddba4b26658951ed241e12bfd0d701",
        "0328cd58b8dacf0f9c44aa78bc64597f10cf06531a111ae1b4e5d7d3b9569fd97d"
      ],
      "is_coinbase": false,
      "sequence": 4294967295
    }
  ],
  "vout": [
    {
      "scriptpubkey": "001497e942cc0e6f03d0ad4af8ad8f7b1d476a222b3a",
      "scriptpubkey_asm": "OP_0 OP_PUSHBYTES_20 97e942cc0e6f03d0ad4af8ad8f7b1d476a222b3a",
      "scriptpubkey_type": "v0_p2wpkh",
      "scriptpubkey_address": "bc1qjl559nqwdupapt22lzkc77caga4zy2e6gyzhn5",
      "value": 924516
    },
    {
      "scriptpubkey": "001402cf1778cade90b47002db1d2cbff0adaeb511e0",
      "scriptpubkey_asm": "OP_0 OP_PUSHBYTES_20 02cf1778cade90b47002db1d2cbff0adaeb511e0",
      "scriptpubkey_type": "v0_p2wpkh",
      "scriptpubkey_address": "bc1qqt83w7x2m6gtguqzmvwje0ls4kht2y0q5hzt7p",
      "value": 2158
    }
  ],
  "size": 370,
  "weight": 832,
  "fee": 3114,
  "status": {
    "confirmed": true,
    "block_height": 834638,
    "block_hash": "000000000000000000025f742c626208ac87e0b7d15054abb4a19ca2d735a54e",
    "block_time": 1710405325
  },
  "hex": "0100000000010284f7ffeea23aba872434f270eff1774b0b8845677ad795febc2da3eaeed0664d0100000000ffffffff949c13c0461243e8f24ec54b7b267dc03adb9df58f9e245e07d2ad8e1b3ae0fa0000000000ffffffff02641b0e000000000016001497e942cc0e6f03d0ad4af8ad8f7b1d476a222b3a6e0800000000000016001402cf1778cade90b47002db1d2cbff0adaeb511e00247304402204f4c55eef5c6f98eb22c467239de8051186354320a964ef221c736112297090902207011b3f6d07ba5b8d9a878627ec1387fbc4fecf5fa89727f155dcab5bc58a452012102d41f6a4ebc80d286f2dd4e5c6c6b12055d7f1b86a75af2b4a3412511d13d174202473044022002baf3816312165ca6ea6a534d3be7cfa8dad4072e9128b0425c96be8ef4b2430220413f98e6ba113cd07a310351f2ca60761fc7ddba4b26658951ed241e12bfd0d701210328cd58b8dacf0f9c44aa78bc64597f10cf06531a111ae1b4e5d7d3b9569fd97d00000000"
}