{
  "txid": "59124505e91aa6d4df6b7cf4cb006de6e1c577d67a9dc745062454bf0203c753",
  "version": 2,
  "locktime": 0,
  "vin": [
    {
      "txid": "acc3ba00869acb582a3f2904ce3a11dd3779350ce234063fc7d0959246213364",
      "vout": 134,
      "prevout": {
        "scriptpubkey": "5120e5378a39dee1e483fd7c66f7200cc54d430b10e993cc86a8fa98ef9bb6c6b528",
        "scriptpubkey_asm": "OP_PUSHNUM_1 OP_PUSHBYTES_32 e5378a39dee1e483fd7c66f7200cc54d430b10e993cc86a8fa98ef9bb6c6b528",
        "scriptpubkey_type": "v1_p2tr",
        "scriptpubkey_address": "bc1pu5mc5ww7u8jg8ltuvmmjqrx9f4psky8fj0xgd286nrhehdkxk55q96c6l6",
        "value": 1806
      },
      "scriptsig": "",
      "scriptsig_asm": "",
      "witness": [
        "fe4b495b0eeb1dfcbb0198f91a86fbc1b03db6315191ed325ba53a062836d192037c04c571aa46a4cd5d7ee93082f7fefa678dc6f942eff4c00ea0badb428021",
        "2021bb6f49f79fec1f4a5f8db5cff95c9d86517e0672d97b5c828519b73d9139e8ac0063036f726401010a746578742f706c61696e00357b2270223a226272632d3230222c226f70223a226d696e74222c227469636b223a22646f6765222c22616d74223a2234323030227d68",
        "c121bb6f49f79fec1f4a5f8db5cff95c9d86517e0672d97b5c828519b73d9139e8"
      ],
      "is_coinbase": false,
      "sequence": 4261412863
    }
  ],
  "vout": [
    {
      "scriptpubkey": "00147a665de7a370f4c9b372ab1fae587500a5bcbdb4",
      "scriptpubkey_asm": "OP_0 OP_PUSHBYTES_20 7a665de7a370f4c9b372ab1fae587500a5bcbdb4",
      "scriptpubkey_type": "v0_p2wpkh",
      "scriptpubkey_address": "bc1q0fn9mearwr6vnvmj4v06ukr4qzjme0d565dzcx",
      "value": 294
    }
  ],
  "size": 294,
  "weight": 540,
  "fee": 1512,
  "status": {
    "confirmed": true,
    "block_height": 834460,
    "block_hash": "00000000000000000000484a79b643b2524bbce82e5d8a442013fa5b8905ed98",
    "block_time": 1710307468
  },
  "hex": "02000000000101643321469295d0c73f0634e20c357937dd113ace04293f2a58cb9a8600bac3ac8600000000fffffffd0126010000000000001600147a665de7a370f4c9b372ab1fae587500a5bcbdb40340fe4b495b0eeb1dfcbb0198f91a86fbc1b03db6315191ed325ba53a062836d192037c04c571aa46a4cd5d7ee93082f7fefa678dc6f942eff4c00ea0badb4280216d2021bb6f49f79fec1f4a5f8db5cff95c9d86517e0672d97b5c828519b73d9139e8ac0063036f726401010a746578742f706c61696e00357b2270223a226272632d3230222c226f70223a226d696e74222c227469636b223a22646f6765222c22616d74223a2234323030227d6821c121bb6f49f79fec1f4a5f8db5cff95c9d86517e0672d97b5c828519b73d9139e800000000"
}