{
  "txid": "59198128d7f846042986a6d1c4f569a5a059ae2d55f11402c3680def026eafbb",
  "version": 1,
  "locktime": 0,
  "vin": [
    {
      "txid": "3a5d7c3ff804feddaa65e603627429a2eee1bad55d62bf2fec6e13f3a2579466",
      "vout": 2,
      "prevout": {
        "scriptpubkey": "5120f3c84bffe2ed7adb9f980ffc34fd53989247a63916fae3db1f92d9702ced3c6c",
        "scriptpubkey_asm": "OP_PUSHNUM_1 OP_PUSHBYTES_32 f3c84bffe2ed7adb9f980ffc34fd53989247a63916fae3db1f92d9702ced3c6c",
        "scriptpubkey_type": "v1_p2tr",
        "scriptpubkey_address": "bc1p70yyhllza4adh8ucpl7rfl2nnzfy0f3ezmaw8kcljtvhqt8d83kq3vzfyz",
        "value": 41194
      },
      "scriptsig": "",
      "scriptsig_asm": "",
      "witness": [
        "7a1d78de9c8bfba3256b9079443bd6a1dcb1fea961db5716f99d73de6fa840cb168279e98f9324a0f51657a2056512ed79bea765b66ae5d922a258557ff672d9"
      ],
      "is_coinbase": false,
      "sequence": 4294967293
    }
  ],
  "vout": [
    {
      "scriptpubkey": "512053f5e5c70b7343d0d27c0431643ad349a86c72ebc8a79e51d32b37ff51ecff4e",
      "scriptpubkey_asm": "OP_PUSHNUM_1 OP_PUSHBYTES_32 53f5e5c70b7343d0d27c0431643ad349a86c72ebc8a79e51d32b37ff51ecff4e",
      "scriptpubkey_type": "v1_p2tr",
      "scriptpubkey_address": "bc1p2067t3ctwdpap5nuqsckgwknfx5xcuhtezneu5wn9vml750vla8qjj6a8a",
      "value": 2358
    },
    {
      "scriptpubkey": "5120f667578b85bed256c7fcb9f2cda488d5281e52ca42e7dd4bc21e95149562f09f",
      "scriptpubkey_asm": "OP_PUSHNUM_1 OP_PUSHBYTES_32 f667578b85bed256c7fcb9f2cda488d5281e52ca42e7dd4bc21e95149562f09f",
      "scriptpubkey_type": "v1_p2tr",
      "scriptpubkey_address": "bc1p7en40zu9hmf9d3luh8evmfyg655pu5k2gtna6j7zr623f9tz7z0stfnwav",
      "value": 2114
    },
    {
      "scriptpubkey": "5120f3c84bffe2ed7adb9f980ffc34fd53989247a63916fae3db1f92d9702ced3c6c",
      "scriptpubkey_asm": "OP_PUSHNUM_1 OP_PUSHBYTES_32 f3c84bffe2ed7adb9f980ffc34fd53989247a63916fae3db1f92d9702ced3c6c",
      "scriptpubkey_type": "v1_p2tr",
      "scriptpubkey_address": "bc1p70yyhllza4adh8ucpl7rfl2nnzfy0f3ezmaw8kcljtvhqt8d83kq3vzfyz",
      "value": 34346
    }
  ],
  "size": 248,
  "weight": 788,
  "fee": 2376,
  "status": {
    "confirmed": true,
    "block_height": 834460,
    "block_hash": "00000000000000000000484a79b643b2524bbce82e5d8a442013fa5b8905ed98",
    "block_time": 1710307468
  },
  "hex": "01000000000101669457a2f3136eec2fbf625dd5bae1eea229746203e665aaddfe04f83f7c5d3a0200000000fdffffff03360900000000000022512053f5e5c70b7343d0d27c0431643ad349a86c72ebc8a79e51d32b37ff51ecff4e4208000000000000225120f667578b85bed256c7fcb9f2cda488d5281e52ca42e7dd4bc21e95149562f09f2a86000000000000225120f3c84bffe2ed7adb9f980ffc34fd53989247a63916fae3db1f92d9702ced3c6c01407a1d78de9c8bfba3256b9079443bd6a1dcb1fea961db5716f99d73de6fa840cb168279e98f9324a0f51657a2056512ed79bea765b66ae5d922a258557ff672d900000000"
}