{
  "txid": "59267ee7cda1f660422d54c2782ba0cd26cfb1455057a6cb6106c58aa6205d0c",
  "version": 1,
  "locktime": 0,
  "vin": [
    {
      "txid": "41d4c0713d6d9630400ba169537a7ff2f96d07e56bac022a714d6b1d86697aaf",
      "vout": 69,
      "prevout": {
        "scriptpubkey": "0014b59484f4325f257fa56acb0430f8dec89fafd485",
        "scriptpubkey_asm": "OP_0 OP_PUSHBYTES_20 b59484f4325f257fa56acb0430f8dec89fafd485",
        "scriptpubkey_type": "v0_p2wpkh",
        "scriptpubkey_address": "bc1qkk2gfapjtujhlft2evzrp7x7ez06l4y94lh49k",
        "value": 129235
      },
      "scriptsig": "",
      "scriptsig_asm": "",
      "witness": [
        "3045022100e2e48c2656ed209a8db921e103e609e26bec196ea624fdffc748325f50ac53d102204b9bf26481fc2a5cc3599fe772b44f93d0020ba6564c8fcd252fa7a17d893ed901",
        "025ab9f41a14f206edab8246348ec1c03eb5b38495ae26150e58bfa2f9d10b0422"
      ],
      "is_coinbase": false,
      "sequence": 4294967295
    }
  ],
  "vout": [
    {
      "scriptpubkey": "76a914eecc6a4a91dee50adb9e4361b14ff793d837352c88ac",
      "scriptpubkey_asm": "OP_DUP OP_HASH160 OP_PUSHBYTES_20 eecc6a4a91dee50adb9e4361b14ff793d837352c OP_EQUALVERIFY OP_CHECKSIG",
      "scriptpubkey_type": "p2pkh",
      "scriptpubkey_address": "1Nmehg29fSYoV9biztY5dXpWBfkp9vme1B",
      "value": 27229
    },
    {
      "scriptpubkey": "0014b59484f4325f257fa56acb0430f8dec89fafd485",
      "scriptpubkey_asm": "OP_0 OP_PUSHBYTES_20 b59484f4325f257fa56acb0430f8dec89fafd485",
      "scriptpubkey_type": "v0_p2wpkh",
      "scriptpubkey_address": "bc1qkk2gfapjtujhlft2evzrp7x7ez06l4y94lh49k",
      "value": 98118
    }
  ],
  "size": 226,
  "weight": 574,
  "fee": 3888,
  "status": {
    "confirmed": true,
    "block_height": 834638,
    "block_hash": "000000000000000000025f742c626208ac87e0b7d15054abb4a19ca2d735a54e",
    "block_time": 1710405325
  },
  "hex": "01000000000101af7a69861d6b4d712a02ac6be5076df9f27f7a5369a10b4030966d3d71c0d4414500000000ffffffff025d6a0000000000001976a914eecc6a4a91dee50adb9e4361b14ff793d837352c88ac467f010000000000160014b59484f4325f257fa56acb0430f8dec89fafd48502483045022100e2e48c2656ed209a8db921e103e609e26bec196ea624fdffc748325f50ac53d102204b9bf26481fc2a5cc3599fe772b44f93d0020ba6564c8fcd252fa7a17d893ed90121025ab9f41a14f206edab8246348ec1c03eb5b38495ae26150e58bfa2f9d10b042200000000"
}