{
  "txid": "594b52dca9b06b6b5aea3211ac1cf5705783a7814d1cdb8d5a88834b84ba208e",
  "version": 2,
  "locktime": 0,
  "vin": [
    {
      "txid": "966073f7465696065b04974d4218b069f9ad970b254f020fa997b0b1805fd2b0",
      "vout": 0,
      "prevout": {
        "scriptpubkey": "0014ce7004e6f9a5bab097feae41e68b52cb4eb091f2",
        "scriptpubkey_asm": "OP_0 OP_PUSHBYTES_20 ce7004e6f9a5bab097feae41e68b52cb4eb091f2",
        "scriptpubkey_type": "v0_p2wpkh",
        "scriptpubkey_address": "bc1qeecqfehe5katp9l74eq7dz6jed8tpy0jdzden7",
        "value": 62159
      },
      "scriptsig": "",
      "scriptsig_asm": "",
      "witness": [
        "3044022035d12605d6105e0425605e12c82df2f6e6ddbed795beb188683fbe2ad2688ed902204eab51539ea63e9fbb7bb04506767eeb093b1f4ac9396127d81ceb09fab7d45301",
        "03b65432d5bb55a160d65b22660042934316bb5806af4733bc00b940794290802d"
      ],
      "is_coinbase": false,
      "sequence": 4294967295
    }
  ],
  "vout": [
    {
      "scriptpubkey": "001498f1d735cd202efd5e6ff9bf9e9f02d07e6f6608",
      "scriptpubkey_asm": "OP_0 OP_PUSHBYTES_20 98f1d735cd202efd5e6ff9bf9e9f02d07e6f6608",
      "scriptpubkey_type": "v0_p2wpkh",
      "scriptpubkey_address": "bc1qnrcawdwdyqh06hn0lxlea8cz6plx7esgpkv06r",
      "value": 53150
    },
    {
      "scriptpubkey": "0014ce7004e6f9a5bab097feae41e68b52cb4eb091f2",
      "scriptpubkey_asm": "OP_0 OP_PUSHBYTES_20 ce7004e6f9a5bab097feae41e68b52cb4eb091f2",
      "scriptpubkey_type": "v0_p2wpkh",
      "scriptpubkey_address": "bc1qeecqfehe5katp9l74eq7dz6jed8tpy0jdzden7",
      "value": 7232
    }
  ],
  "size": 222,
  "weight": 561,
  "fee": 1777,
  "status": {
    "confirmed": true,
    "block_height": 834460,
    "block_hash": "00000000000000000000484a79b643b2524bbce82e5d8a442013fa5b8905ed98",
    "block_time": 1710307468
  },
  "hex": "02000000000101b0d25f80b1b097a90f024f250b97adf969b018424d97045b06965646f77360960000000000ffffffff029ecf00000000000016001498f1d735cd202efd5e6ff9bf9e9f02d07e6f6608401c000000000000160014ce7004e6f9a5bab097feae41e68b52cb4eb091f202473044022035d12605d6105e0425605e12c82df2f6e6ddbed795beb188683fbe2ad2688ed902204eab51539ea63e9fbb7bb04506767eeb093b1f4ac9396127d81ceb09fab7d453012103b65432d5bb55a160d65b22660042934316bb5806af4733bc00b940794290802d00000000"
}