{
  "txid": "5953e6c597bc36e567b43af14f7b9cdf3ac93ac0b807bc348162d6b6b7ac73da",
  "version": 2,
  "locktime": 0,
  "vin": [
    {
      "txid": "a9eb37a7955d0115906754d4564e19f43539ed6b22d41d1653fd56448fa130a3",
      "vout": 1,
      "prevout": {
        "scriptpubkey": "a914b9ec84750ed48f141ad42c92e8b2cb1eaa83144f87",
        "scriptpubkey_asm": "OP_HASH160 OP_PUSHBYTES_20 b9ec84750ed48f141ad42c92e8b2cb1eaa83144f OP_EQUAL",
        "scriptpubkey_type": "p2sh",
        "scriptpubkey_address": "3Je6GYs9pnc1ZMprMA8jRoRwsuDG41BRcS",
        "value": 266112
      },
      "scriptsig": "160014e0a97426ace638c0a3392b6aa302f009be841ff3",
      "scriptsig_asm": "OP_PUSHBYTES_22 0014e0a97426ace638c0a3392b6aa302f009be841ff3",
      "witness": [
        "304402201063410f2fb971a8f371b23c1ff0877b4ef6d35e9d40e8d9f9d032c3fbfdedda022001e557758f580ca6e73b75c5066250c98645e0244bda06a3f96ab8c0b62f863201",
        "0245db7f782b632293269d48b7e93da6831f17920a334b231c0e4616f476ebf552"
      ],
      "is_coinbase": false,
      "sequence": 4294967293,
      "inner_redeemscript_asm": "OP_0 OP_PUSHBYTES_20 e0a97426ace638c0a3392b6aa302f009be841ff3"
    }
  ],
  "vout": [
    {
      "scriptpubkey": "51200fffa6ae0744ebcd1482a4b3bfd1d8bf15455c0a028229a5e57d48d7c3c1dadc",
      "scriptpubkey_asm": "OP_PUSHNUM_1 OP_PUSHBYTES_32 0fffa6ae0744ebcd1482a4b3bfd1d8bf15455c0a028229a5e57d48d7c3c1dadc",
      "scriptpubkey_type": "v1_p2tr",
      "scriptpubkey_address": "bc1ppll6dts8gn4u69yz5jeml5wchu252hq2q2pznf0904yd0s7pmtwq998jng",
      "value": 36945
    },
    {
      "scriptpubkey": "a914b9ec84750ed48f141ad42c92e8b2cb1eaa83144f87",
      "scriptpubkey_asm": "OP_HASH160 OP_PUSHBYTES_20 b9ec84750ed48f141ad42c92e8b2cb1eaa83144f OP_EQUAL",
      "scriptpubkey_type": "p2sh",
      "scriptpubkey_address": "3Je6GYs9pnc1ZMprMA8jRoRwsuDG41BRcS",
      "value": 227220
    }
  ],
  "size": 258,
  "weight": 705,
  "fee": 1947,
  "status": {
    "confirmed": true,
    "block_height": 834464,
    "block_hash": "0000000000000000000177a0869a911a2b65c9bdcd5a8bcb02b68f305bee848e",
    "block_time": 1710308296
  },
  "hex": "02000000000101a330a18f4456fd53161dd4226bed3935f4194e56d454679015015d95a737eba90100000017160014e0a97426ace638c0a3392b6aa302f009be841ff3fdffffff0251900000000000002251200fffa6ae0744ebcd1482a4b3bfd1d8bf15455c0a028229a5e57d48d7c3c1dadc947703000000000017a914b9ec84750ed48f141ad42c92e8b2cb1eaa83144f870247304402201063410f2fb971a8f371b23c1ff0877b4ef6d35e9d40e8d9f9d032c3fbfdedda022001e557758f580ca6e73b75c5066250c98645e0244bda06a3f96ab8c0b62f863201210245db7f782b632293269d48b7e93da6831f17920a334b231c0e4616f476ebf55200000000"
}