{
  "txid": "5954ddf026038976f185ac077935c2e57309f34fbf70bd0fa0e9ecb84ea78efa",
  "version": 2,
  "locktime": 0,
  "vin": [
    {
      "txid": "5c3864e3e852ec96346d84fbc3195b536ef1db1891f28d4b48dba69c282b1a0d",
      "vout": 5,
      "prevout": {
        "scriptpubkey": "51204fea663700cc4ea05a663df1e0fc71c9e67fb7ad7e7352c949a0137e9c61c423",
        "scriptpubkey_asm": "OP_PUSHNUM_1 OP_PUSHBYTES_32 4fea663700cc4ea05a663df1e0fc71c9e67fb7ad7e7352c949a0137e9c61c423",
        "scriptpubkey_type": "v1_p2tr",
        "scriptpubkey_address": "bc1pfl4xvdcqe382qknx8hc7plr3e8n8ldad0ee49j2f5qfha8rpcs3svcq3yu",
        "value": 3055
      },
      "scriptsig": "",
      "scriptsig_asm": "",
      "witness": [
        "c11040d330ac87f4e9f9f9858677d14c93f7ac6f2a38bfbc4060734fdf669e7bdbb34acc1f17eff2fd880094e6fa2e755f0bcb6772b756a71a14e3c7d5ed3a3b",
        "20c6e89fbcd023fbb67ad36f31d92ddc111f5b2c261f5d2759947142fc6a165326ac0063036f726401011e6170706c69636174696f6e2f6a736f6e3b636861727365743d7574662d38004cd37b2270223a22706f772d3230222c226f70223a226d696e74222c227469636b223a2250455045222c22616d74223a2231303030222c22736f6c7574696f6e223a22504550453a626331703237796d68736b396a36716e706b7367767973363471356663717670646465716a6832716a796c6330793861667138663261727375637776796b3a303030303030303030303030303030303030303139393431613561653132383937363539383134343239323533333030353762306461393666336465613163353a3337323139383434373731227d68",
        "c029e6ca6c8c5ab61eaab81da0d3884f0ac7596b050aac6663ac46dee308a1dbc8"
      ],
      "is_coinbase": false,
      "sequence": 4294967295
    }
  ],
  "vout": [
    {
      "scriptpubkey": "51205789bbc2c5968130da086121aa8289c01816b72095d40913f8790fd480e95747",
      "scriptpubkey_asm": "OP_PUSHNUM_1 OP_PUSHBYTES_32 5789bbc2c5968130da086121aa8289c01816b72095d40913f8790fd480e95747",
      "scriptpubkey_type": "v1_p2tr",
      "scriptpubkey_address": "bc1p27ymhsk9j6qnpksgvys64q5fcqvpddeqjh2qjylc0y8afq8f2arsucwvyk",
      "value": 546
    }
  ],
  "size": 487,
  "weight": 769,
  "fee": 2509,
  "status": {
    "confirmed": true,
    "block_height": 834460,
    "block_hash": "00000000000000000000484a79b643b2524bbce82e5d8a442013fa5b8905ed98",
    "block_time": 1710307468
  },
  "hex": "020000000001010d1a2b289ca6db484b8df29118dbf16e535b19c3fb846d3496ec52e8e364385c0500000000ffffffff0122020000000000002251205789bbc2c5968130da086121aa8289c01816b72095d40913f8790fd480e957470340c11040d330ac87f4e9f9f9858677d14c93f7ac6f2a38bfbc4060734fdf669e7bdbb34acc1f17eff2fd880094e6fa2e755f0bcb6772b756a71a14e3c7d5ed3a3bfd200120c6e89fbcd023fbb67ad36f31d92ddc111f5b2c261f5d2759947142fc6a165326ac0063036f726401011e6170706c69636174696f6e2f6a736f6e3b636861727365743d7574662d38004cd37b2270223a22706f772d3230222c226f70223a226d696e74222c227469636b223a2250455045222c22616d74223a2231303030222c22736f6c7574696f6e223a22504550453a626331703237796d68736b396a36716e706b7367767973363471356663717670646465716a6832716a796c6330793861667138663261727375637776796b3a303030303030303030303030303030303030303139393431613561653132383937363539383134343239323533333030353762306461393666336465613163353a3337323139383434373731227d6821c029e6ca6c8c5ab61eaab81da0d3884f0ac7596b050aac6663ac46dee308a1dbc800000000"
}