{
  "txid": "595a068b62fc00db961dfec8e2d6f7d4c7f5aeb4820db83ccb13636a6ff01f14",
  "version": 2,
  "locktime": 0,
  "vin": [
    {
      "txid": "75959e10b282063921403dc89595297501740325efaa16bdbd08aff3adde99c1",
      "vout": 0,
      "prevout": {
        "scriptpubkey": "51209f242f7f1280771bfe8fe99e4aa642ba879046e207186927b714008153dc4a9c",
        "scriptpubkey_asm": "OP_PUSHNUM_1 OP_PUSHBYTES_32 9f242f7f1280771bfe8fe99e4aa642ba879046e207186927b714008153dc4a9c",
        "scriptpubkey_type": "v1_p2tr",
        "scriptpubkey_address": "bc1pnujz7lcjspm3hl50ax0y4fjzh2req3hzquvxjfahzsqgz57uf2wqy05pdy",
        "value": 20000000
      },
      "scriptsig": "",
      "scriptsig_asm": "",
      "witness": [
        "3b07bc7b9b9b86877b3d6be501f7d8bbbef1df059dd08d8348f5b466ed83145b77c281f45ce4beaf95e8106ad0a8a285ad6c59408ce86932a57a14e91d0aa707"
      ],
      "is_coinbase": false,
      "sequence": 4294967295
    }
  ],
  "vout": [
    {
      "scriptpubkey": "51201adfb6f349979083f19c400e7919b7c61e2534ee2bd44a17bb6be48c40595d9a",
      "scriptpubkey_asm": "OP_PUSHNUM_1 OP_PUSHBYTES_32 1adfb6f349979083f19c400e7919b7c61e2534ee2bd44a17bb6be48c40595d9a",
      "scriptpubkey_type": "v1_p2tr",
      "scriptpubkey_address": "bc1prt0mdu6fj7gg8uvugq88jxdhcc0z2d8w902y59amd0jgcszetkdqvaytr8",
      "value": 19998335
    }
  ],
  "size": 162,
  "weight": 444,
  "fee": 1665,
  "status": {
    "confirmed": true,
    "block_height": 834638,
    "block_hash": "000000000000000000025f742c626208ac87e0b7d15054abb4a19ca2d735a54e",
    "block_time": 1710405325
  },
  "hex": "02000000000101c199deadf3af08bdbd16aaef2503740175299595c83d4021390682b2109e95750000000000ffffffff017f263101000000002251201adfb6f349979083f19c400e7919b7c61e2534ee2bd44a17bb6be48c40595d9a01403b07bc7b9b9b86877b3d6be501f7d8bbbef1df059dd08d8348f5b466ed83145b77c281f45ce4beaf95e8106ad0a8a285ad6c59408ce86932a57a14e91d0aa70700000000"
}