{
  "txid": "5966efbaa71d6d6edf5e87f67855854b8d71cd0503d1aed2f8c01aa3c94568a4",
  "version": 2,
  "locktime": 0,
  "vin": [
    {
      "txid": "6899ac4d62c8b65a7fd7c7d88d59a79e9349ee302233afe5c88e0bb32c04a834",
      "vout": 0,
      "prevout": {
        "scriptpubkey": "00143c167159b3a46c9115df9b4e26745e6b03e3e8bd",
        "scriptpubkey_asm": "OP_0 OP_PUSHBYTES_20 3c167159b3a46c9115df9b4e26745e6b03e3e8bd",
        "scriptpubkey_type": "v0_p2wpkh",
        "scriptpubkey_address": "bc1q8st8zkdn53kfz9wlnd8zvaz7dvp7869apzdaet",
        "value": 87400
      },
      "scriptsig": "",
      "scriptsig_asm": "",
      "witness": [
        "304402207893d113568993da98df3aed0d28b0b5d0aa4c7629895455a135a932e363bf59022040010a4a859512554ed967b515fea5c34451fe2d8b1ae6af46c058dd1a7c6f6001",
        "02c8737873bb4c91941b7c7cf24b91cc584fc77d89ae2c0e533b64e679910a5648"
      ],
      "is_coinbase": false,
      "sequence": 4294967293
    },
    {
      "txid": "373bab184d72a90980330faccf27dc4051abee066ff246aa677168c16c90dc58",
      "vout": 1,
      "prevout": {
        "scriptpubkey": "001469ba2cb1b976b6fbb9d6a97177dfd49d635f6374",
        "scriptpubkey_asm": "OP_0 OP_PUSHBYTES_20 69ba2cb1b976b6fbb9d6a97177dfd49d635f6374",
        "scriptpubkey_type": "v0_p2wpkh",
        "scriptpubkey_address": "bc1qdxazevdew6m0hwwk49ch0h75n4347cm5tcj0xc",
        "value": 2838
      },
      "scriptsig": "",
      "scriptsig_asm": "",
      "witness": [
        "304402200e6d1767678cd4cb5aab75744a9941fb235acbd32504b5cdc6084710444b2216022024ad90aaa57880d8c7bf8491a8a9db19ad151d9feb6cd5f93ffd85465ca789c501",
        "03ad318521c85a05eb50f5ebde6d4f066a64b1ac3ddbd2c5f327f09828d9583cd9"
      ],
      "is_coinbase": false,
      "sequence": 4294967293
    },
    {
      "txid": "82d78867f39447a596bf42d39dc1a7dd8ffe7d0a8ce0d3f41c7b4e5b86f6899c",
      "vout": 1,
      "prevout": {
        "scriptpubkey": "001402ab0122964fb67cf0f78eea7dcde5093ad8f5e1",
        "scriptpubkey_asm": "OP_0 OP_PUSHBYTES_20 02ab0122964fb67cf0f78eea7dcde5093ad8f5e1",
        "scriptpubkey_type": "v0_p2wpkh",
        "scriptpubkey_address": "bc1qq24szg5kf7m8eu8h3m48mn09pyad3a0pc0fmzc",
        "value": 1043872
      },
      "scriptsig": "",
      "scriptsig_asm": "",
      "witness": [
        "304402201c623ee4ca0cfcb696dbd30b3b199e28b8f114a9b5b9a30f84deb93723d08c3502206e87b88ef77384d59e09e77fa911ebe16652e6b9cd80d862be1612a34598012301",
        "0296911dfc14ec905b60c1e071b9841cd15567cf5effecf7dbecda35f13ea1ace6"
      ],
      "is_coinbase": false,
      "sequence": 4294967293
    }
  ],
  "vout": [
    {
      "scriptpubkey": "76a9141617634335a523535f21f8a9a822b04941fc0a4288ac",
      "scriptpubkey_asm": "OP_DUP OP_HASH160 OP_PUSHBYTES_20 1617634335a523535f21f8a9a822b04941fc0a42 OP_EQUALVERIFY OP_CHECKSIG",
      "scriptpubkey_type": "p2pkh",
      "scriptpubkey_address": "131otEJ8dpYEpvMYYqEWCjv5cQ4581bxzj",
      "value": 127999
    },
    {
      "scriptpubkey": "0014d938222ad02403ea4c176d7c1026097e986a7be0",
      "scriptpubkey_asm": "OP_0 OP_PUSHBYTES_20 d938222ad02403ea4c176d7c1026097e986a7be0",
      "scriptpubkey_type": "v0_p2wpkh",
      "scriptpubkey_address": "bc1qmyuzy2ksysp75nqhd47pqfsf06vx57lqsv4pta",
      "value": 1001911
    }
  ],
  "size": 521,
  "weight": 1115,
  "fee": 4200,
  "status": {
    "confirmed": true,
    "block_height": 834638,
    "block_hash": "000000000000000000025f742c626208ac87e0b7d15054abb4a19ca2d735a54e",
    "block_time": 1710405325
  },
  "hex": "0200000000010334a8042cb30b8ec8e5af332230ee49939ea7598dd8c7d77f5ab6c8624dac99680000000000fdffffff58dc906cc1687167aa46f26f06eeab5140dc27cfac0f338009a9724d18ab3b370100000000fdffffff9c89f6865b4e7b1cf4d3e08c0a7dfe8fdda7c19dd342bf96a54794f36788d7820100000000fdffffff02fff30100000000001976a9141617634335a523535f21f8a9a822b04941fc0a4288acb7490f0000000000160014d938222ad02403ea4c176d7c1026097e986a7be00247304402207893d113568993da98df3aed0d28b0b5d0aa4c7629895455a135a932e363bf59022040010a4a859512554ed967b515fea5c34451fe2d8b1ae6af46c058dd1a7c6f60012102c8737873bb4c91941b7c7cf24b91cc584fc77d89ae2c0e533b64e679910a56480247304402200e6d1767678cd4cb5aab75744a9941fb235acbd32504b5cdc6084710444b2216022024ad90aaa57880d8c7bf8491a8a9db19ad151d9feb6cd5f93ffd85465ca789c5012103ad318521c85a05eb50f5ebde6d4f066a64b1ac3ddbd2c5f327f09828d9583cd90247304402201c623ee4ca0cfcb696dbd30b3b199e28b8f114a9b5b9a30f84deb93723d08c3502206e87b88ef77384d59e09e77fa911ebe16652e6b9cd80d862be1612a34598012301210296911dfc14ec905b60c1e071b9841cd15567cf5effecf7dbecda35f13ea1ace600000000"
}