{
  "txid": "5982a1b482ecbf33192fd3425c05210bcf500dcbb3df20abbb7f21cc73d18766",
  "version": 1,
  "locktime": 0,
  "vin": [
    {
      "txid": "de4b768c87b5878e4e03f6b1197506d35ca2d5b70dfdbf00d53e7951c95cc17f",
      "vout": 1,
      "prevout": {
        "scriptpubkey": "76a914de40bdb09bea73d6d927b3f06f56dd50ea2d26a088ac",
        "scriptpubkey_asm": "OP_DUP OP_HASH160 OP_PUSHBYTES_20 de40bdb09bea73d6d927b3f06f56dd50ea2d26a0 OP_EQUALVERIFY OP_CHECKSIG",
        "scriptpubkey_type": "p2pkh",
        "scriptpubkey_address": "1MGAZsMjVuLEVDNVrvtmogsondUjVpDhcr",
        "value": 28755
      },
      "scriptsig": "4730440220150ab00dd1513d88658fced438ae859859622b4326a8a389a7518b456485291602207eeef6ab6aaddacf4c9d3f3f63f35227d9ccdba186e23d09b7cfbb782e6a955f01210328c052734bbb418980adb3b80c9f804f161b740e308e817bf0abeef19e55114b",
      "scriptsig_asm": "OP_PUSHBYTES_71 30440220150ab00dd1513d88658fced438ae859859622b4326a8a389a7518b456485291602207eeef6ab6aaddacf4c9d3f3f63f35227d9ccdba186e23d09b7cfbb782e6a955f01 OP_PUSHBYTES_33 0328c052734bbb418980adb3b80c9f804f161b740e308e817bf0abeef19e55114b",
      "is_coinbase": false,
      "sequence": 4294967295
    }
  ],
  "vout": [
    {
      "scriptpubkey": "a914c71ba56b345dd31541b1a5308f0b4d802e4ac69a87",
      "scriptpubkey_asm": "OP_HASH160 OP_PUSHBYTES_20 c71ba56b345dd31541b1a5308f0b4d802e4ac69a OP_EQUAL",
      "scriptpubkey_type": "p2sh",
      "scriptpubkey_address": "3KqoWcBSsjQDLRWri8QhmWb7fEVPdEynrb",
      "value": 13629
    },
    {
      "scriptpubkey": "76a914de40bdb09bea73d6d927b3f06f56dd50ea2d26a088ac",
      "scriptpubkey_asm": "OP_DUP OP_HASH160 OP_PUSHBYTES_20 de40bdb09bea73d6d927b3f06f56dd50ea2d26a0 OP_EQUALVERIFY OP_CHECKSIG",
      "scriptpubkey_type": "p2pkh",
      "scriptpubkey_address": "1MGAZsMjVuLEVDNVrvtmogsondUjVpDhcr",
      "value": 10606
    }
  ],
  "size": 223,
  "weight": 892,
  "fee": 4520,
  "status": {
    "confirmed": true,
    "block_height": 834638,
    "block_hash": "000000000000000000025f742c626208ac87e0b7d15054abb4a19ca2d735a54e",
    "block_time": 1710405325
  },
  "hex": "01000000017fc15cc951793ed500bffd0db7d5a25cd3067519b1f6034e8e87b5878c764bde010000006a4730440220150ab00dd1513d88658fced438ae859859622b4326a8a389a7518b456485291602207eeef6ab6aaddacf4c9d3f3f63f35227d9ccdba186e23d09b7cfbb782e6a955f01210328c052734bbb418980adb3b80c9f804f161b740e308e817bf0abeef19e55114bffffffff023d3500000000000017a914c71ba56b345dd31541b1a5308f0b4d802e4ac69a876e290000000000001976a914de40bdb09bea73d6d927b3f06f56dd50ea2d26a088ac00000000"
}