{
  "txid": "59addb84108ce05ce6cc89175b8277c0458daf6cdc1244ec7e547170d4ec5614",
  "version": 2,
  "locktime": 0,
  "vin": [
    {
      "txid": "7fab9ab60e72d0c7fb5478198d0e446c2e445034d00b5d77acbd5e1b52f0d776",
      "vout": 0,
      "prevout": {
        "scriptpubkey": "5120d663210a51babb8f55919938ccfad29f07da0599b46acad67ac123b5f6a76389",
        "scriptpubkey_asm": "OP_PUSHNUM_1 OP_PUSHBYTES_32 d663210a51babb8f55919938ccfad29f07da0599b46acad67ac123b5f6a76389",
        "scriptpubkey_type": "v1_p2tr",
        "scriptpubkey_address": "bc1p6e3jzzj3h2ac74v3nyuve7kjnura5pvek34v44n6cy3mta48vwysk25tlc",
        "value": 546
      },
      "scriptsig": "",
      "scriptsig_asm": "",
      "witness": [
        "898e4df26651941f099176d831fd9d50fdf970ee3ac4ba8d1f59bf2d83bc8e9daf27a11f4048ee331547f213b739a5a719bdb7cad2d5e7cb0ae64d40976fad6c01"
      ],
      "is_coinbase": false,
      "sequence": 4294967295
    },
    {
      "txid": "8c68f4378afa38141a935cbc20c1f61daeb76c4fd68b68cf83fa5cadf5657e58",
      "vout": 0,
      "prevout": {
        "scriptpubkey": "5120d663210a51babb8f55919938ccfad29f07da0599b46acad67ac123b5f6a76389",
        "scriptpubkey_asm": "OP_PUSHNUM_1 OP_PUSHBYTES_32 d663210a51babb8f55919938ccfad29f07da0599b46acad67ac123b5f6a76389",
        "scriptpubkey_type": "v1_p2tr",
        "scriptpubkey_address": "bc1p6e3jzzj3h2ac74v3nyuve7kjnura5pvek34v44n6cy3mta48vwysk25tlc",
        "value": 546
      },
      "scriptsig": "",
      "scriptsig_asm": "",
      "witness": [
        "146d45932ff36fda6084684ec34d3e97da2de6aded112f0170a9e40c0833e06fad170f6cb9bcfc1ad094295ba1371e93d3063b8be94f49e291c2bea60d8078a701"
      ],
      "is_coinbase": false,
      "sequence": 4294967295
    },
    {
      "txid": "8c68f4378afa38141a935cbc20c1f61daeb76c4fd68b68cf83fa5cadf5657e58",
      "vout": 1,
      "prevout": {
        "scriptpubkey": "5120d663210a51babb8f55919938ccfad29f07da0599b46acad67ac123b5f6a76389",
        "scriptpubkey_asm": "OP_PUSHNUM_1 OP_PUSHBYTES_32 d663210a51babb8f55919938ccfad29f07da0599b46acad67ac123b5f6a76389",
        "scriptpubkey_type": "v1_p2tr",
        "scriptpubkey_address": "bc1p6e3jzzj3h2ac74v3nyuve7kjnura5pvek34v44n6cy3mta48vwysk25tlc",
        "value": 546
      },
      "scriptsig": "",
      "scriptsig_asm": "",
      "witness": [
        "e6a798f0880ed3d749e9f1cd893f361bea183156198e1caa594e7e6cb0cdacc5a949bab285593bb9fff50b87f9cb5dcf6e6ddb41ffa88884ce5c5d76db03354b01"
      ],
      "is_coinbase": false,
      "sequence": 4294967295
    },
    {
      "txid": "8c68f4378afa38141a935cbc20c1f61daeb76c4fd68b68cf83fa5cadf5657e58",
      "vout": 2,
      "prevout": {
        "scriptpubkey": "5120d663210a51babb8f55919938ccfad29f07da0599b46acad67ac123b5f6a76389",
        "scriptpubkey_asm": "OP_PUSHNUM_1 OP_PUSHBYTES_32 d663210a51babb8f55919938ccfad29f07da0599b46acad67ac123b5f6a76389",
        "scriptpubkey_type": "v1_p2tr",
        "scriptpubkey_address": "bc1p6e3jzzj3h2ac74v3nyuve7kjnura5pvek34v44n6cy3mta48vwysk25tlc",
        "value": 546
      },
      "scriptsig": "",
      "scriptsig_asm": "",
      "witness": [
        "178905200b1b74eab6b8d228bbae55656f5be64e48823f4a7fb0ba3d1f56701f4edfe6ffe05d0e37cf0a86afa9a14639999ae6ebfa840dbab5a988c0c97e0cfe01"
      ],
      "is_coinbase": false,
      "sequence": 4294967295
    },
    {
      "txid": "8c68f4378afa38141a935cbc20c1f61daeb76c4fd68b68cf83fa5cadf5657e58",
      "vout": 3,
      "prevout": {
        "scriptpubkey": "5120d663210a51babb8f55919938ccfad29f07da0599b46acad67ac123b5f6a76389",
        "scriptpubkey_asm": "OP_PUSHNUM_1 OP_PUSHBYTES_32 d663210a51babb8f55919938ccfad29f07da0599b46acad67ac123b5f6a76389",
        "scriptpubkey_type": "v1_p2tr",
        "scriptpubkey_address": "bc1p6e3jzzj3h2ac74v3nyuve7kjnura5pvek34v44n6cy3mta48vwysk25tlc",
        "value": 546
      },
      "scriptsig": "",
      "scriptsig_asm": "",
      "witness": [
        "6777808fc01bfa65cde8aebbfa947017020347ef70c6678df8a7a31a9f02f80cb32bbfe8537a93d2c1c2d31b81b97c05d92e6a32a16671ff78f711e1cbf357ff01"
      ],
      "is_coinbase": false,
      "sequence": 4294967295
    },
    {
      "txid": "8c68f4378afa38141a935cbc20c1f61daeb76c4fd68b68cf83fa5cadf5657e58",
      "vout": 4,
      "prevout": {
        "scriptpubkey": "5120d663210a51babb8f55919938ccfad29f07da0599b46acad67ac123b5f6a76389",
        "scriptpubkey_asm": "OP_PUSHNUM_1 OP_PUSHBYTES_32 d663210a51babb8f55919938ccfad29f07da0599b46acad67ac123b5f6a76389",
        "scriptpubkey_type": "v1_p2tr",
        "scriptpubkey_address": "bc1p6e3jzzj3h2ac74v3nyuve7kjnura5pvek34v44n6cy3mta48vwysk25tlc",
        "value": 546
      },
      "scriptsig": "",
      "scriptsig_asm": "",
      "witness": [
        "f16ff635374672e6241a5c69f07e1f9fee771d2550df357839d88a885e4c652e74b411054a223e2679109a7839cd50f9e192be41216fe3b778d3c1284413243701"
      ],
      "is_coinbase": false,
      "sequence": 4294967295
    },
    {
      "txid": "958d06f0de5b75ab0d83d4ad3c04c8867899dee74ba36d5dc16d66507e0cec20",
      "vout": 5,
      "prevout": {
        "scriptpubkey": "a9146ca0cfce777d9774dc6de9763282090685822c1c87",
        "scriptpubkey_asm": "OP_HASH160 OP_PUSHBYTES_20 6ca0cfce777d9774dc6de9763282090685822c1c OP_EQUAL",
        "scriptpubkey_type": "p2sh",
        "scriptpubkey_address": "3BbPYf5SHSiV53sLBA96TeTu3yWVX77GVx",
        "value": 762147
      },
      "scriptsig": "160014e6ad3f1348d1c0da9c235ec9f0c94ae1cedded4f",
      "scriptsig_asm": "OP_PUSHBYTES_22 0014e6ad3f1348d1c0da9c235ec9f0c94ae1cedded4f",
      "witness": [
        "3044022013a2c8429ccf8b20e5a2e0ca1e5de3339f95e8d569feebb30a5630f96ea770db02202d3b7a7c8f71d16a0e7d418ab64f7033f2670b831782863c21f4a234eb86e36d01",
        "0318cc436bba9bc2b1e7ed339dee8913ed339f267b1e0d03f3677ad91af8dc098a"
      ],
      "is_coinbase": false,
      "sequence": 4294967295,
      "inner_redeemscript_asm": "OP_0 OP_PUSHBYTES_20 e6ad3f1348d1c0da9c235ec9f0c94ae1cedded4f"
    }
  ],
  "vout": [
    {
      "scriptpubkey": "51200184d0e812b26fb6e58db445e399ceab7085b43f873c98d59740f346d86627ba",
      "scriptpubkey_asm": "OP_PUSHNUM_1 OP_PUSHBYTES_32 0184d0e812b26fb6e58db445e399ceab7085b43f873c98d59740f346d86627ba",
      "scriptpubkey_type": "v1_p2tr",
      "scriptpubkey_address": "bc1pqxzdp6qjkfhmdevdk3z78xww4dcgtdplsu7f34vhgre5dkrxy7aqdyurhn",
      "value": 546
    },
    {
      "scriptpubkey": "51200184d0e812b26fb6e58db445e399ceab7085b43f873c98d59740f346d86627ba",
      "scriptpubkey_asm": "OP_PUSHNUM_1 OP_PUSHBYTES_32 0184d0e812b26fb6e58db445e399ceab7085b43f873c98d59740f346d86627ba",
      "scriptpubkey_type": "v1_p2tr",
      "scriptpubkey_address": "bc1pqxzdp6qjkfhmdevdk3z78xww4dcgtdplsu7f34vhgre5dkrxy7aqdyurhn",
      "value": 546
    },
    {
      "scriptpubkey": "51200184d0e812b26fb6e58db445e399ceab7085b43f873c98d59740f346d86627ba",
      "scriptpubkey_asm": "OP_PUSHNUM_1 OP_PUSHBYTES_32 0184d0e812b26fb6e58db445e399ceab7085b43f873c98d59740f346d86627ba",
      "scriptpubkey_type": "v1_p2tr",
      "scriptpubkey_address": "bc1pqxzdp6qjkfhmdevdk3z78xww4dcgtdplsu7f34vhgre5dkrxy7aqdyurhn",
      "value": 546
    },
    {
      "scriptpubkey": "51200184d0e812b26fb6e58db445e399ceab7085b43f873c98d59740f346d86627ba",
      "scriptpubkey_asm": "OP_PUSHNUM_1 OP_PUSHBYTES_32 0184d0e812b26fb6e58db445e399ceab7085b43f873c98d59740f346d86627ba",
      "scriptpubkey_type": "v1_p2tr",
      "scriptpubkey_address": "bc1pqxzdp6qjkfhmdevdk3z78xww4dcgtdplsu7f34vhgre5dkrxy7aqdyurhn",
      "value": 546
    },
    {
      "scriptpubkey": "51200184d0e812b26fb6e58db445e399ceab7085b43f873c98d59740f346d86627ba",
      "scriptpubkey_asm": "OP_PUSHNUM_1 OP_PUSHBYTES_32 0184d0e812b26fb6e58db445e399ceab7085b43f873c98d59740f346d86627ba",
      "scriptpubkey_type": "v1_p2tr",
      "scriptpubkey_address": "bc1pqxzdp6qjkfhmdevdk3z78xww4dcgtdplsu7f34vhgre5dkrxy7aqdyurhn",
      "value": 546
    },
    {
      "scriptpubkey": "51200184d0e812b26fb6e58db445e399ceab7085b43f873c98d59740f346d86627ba",
      "scriptpubkey_asm": "OP_PUSHNUM_1 OP_PUSHBYTES_32 0184d0e812b26fb6e58db445e399ceab7085b43f873c98d59740f346d86627ba",
      "scriptpubkey_type": "v1_p2tr",
      "scriptpubkey_address": "bc1pqxzdp6qjkfhmdevdk3z78xww4dcgtdplsu7f34vhgre5dkrxy7aqdyurhn",
      "value": 546
    },
    {
      "scriptpubkey": "a914ea6b832a05c6ca578baa3836f3f25553d41068a587",
      "scriptpubkey_asm": "OP_HASH160 OP_PUSHBYTES_20 ea6b832a05c6ca578baa3836f3f25553d41068a5 OP_EQUAL",
      "scriptpubkey_type": "p2sh",
      "scriptpubkey_address": "3P4WqXDbSLRhzo2H6MT6YFbvBKBDPLbVtQ",
      "value": 1000
    },
    {
      "scriptpubkey": "a9146ca0cfce777d9774dc6de9763282090685822c1c87",
      "scriptpubkey_asm": "OP_HASH160 OP_PUSHBYTES_20 6ca0cfce777d9774dc6de9763282090685822c1c OP_EQUAL",
      "scriptpubkey_type": "p2sh",
      "scriptpubkey_address": "3BbPYf5SHSiV53sLBA96TeTu3yWVX77GVx",
      "value": 747287
    }
  ],
  "size": 1153,
  "weight": 3079,
  "fee": 13860,
  "status": {
    "confirmed": true,
    "block_height": 834638,
    "block_hash": "000000000000000000025f742c626208ac87e0b7d15054abb4a19ca2d735a54e",
    "block_time": 1710405325
  },
  "hex": "0200000000010776d7f0521b5ebdac775d0bd03450442e6c440e8d197854fbc7d0720eb69aab7f0000000000ffffffff587e65f5ad5cfa83cf688bd64f6cb7ae1df6c120bc5c931a1438fa8a37f4688c0000000000ffffffff587e65f5ad5cfa83cf688bd64f6cb7ae1df6c120bc5c931a1438fa8a37f4688c0100000000ffffffff587e65f5ad5cfa83cf688bd64f6cb7ae1df6c120bc5c931a1438fa8a37f4688c0200000000ffffffff587e65f5ad5cfa83cf688bd64f6cb7ae1df6c120bc5c931a1438fa8a37f4688c0300000000ffffffff587e65f5ad5cfa83cf688bd64f6cb7ae1df6c120bc5c931a1438fa8a37f4688c0400000000ffffffff20ec0c7e50666dc15d6da34be7de997886c8043cadd4830dab755bdef0068d950500000017160014e6ad3f1348d1c0da9c235ec9f0c94ae1cedded4fffffffff0822020000000000002251200184d0e812b26fb6e58db445e399ceab7085b43f873c98d59740f346d86627ba22020000000000002251200184d0e812b26fb6e58db445e399ceab7085b43f873c98d59740f346d86627ba22020000000000002251200184d0e812b26fb6e58db445e399ceab7085b43f873c98d59740f346d86627ba22020000000000002251200184d0e812b26fb6e58db445e399ceab7085b43f873c98d59740f346d86627ba22020000000000002251200184d0e812b26fb6e58db445e399ceab7085b43f873c98d59740f346d86627ba22020000000000002251200184d0e812b26fb6e58db445e399ceab7085b43f873c98d59740f346d86627bae80300000000000017a914ea6b832a05c6ca578baa3836f3f25553d41068a58717670b000000000017a9146ca0cfce777d9774dc6de9763282090685822c1c870141898e4df26651941f099176d831fd9d50fdf970ee3ac4ba8d1f59bf2d83bc8e9daf27a11f4048ee331547f213b739a5a719bdb7cad2d5e7cb0ae64d40976fad6c010141146d45932ff36fda6084684ec34d3e97da2de6aded112f0170a9e40c0833e06fad170f6cb9bcfc1ad094295ba1371e93d3063b8be94f49e291c2bea60d8078a7010141e6a798f0880ed3d749e9f1cd893f361bea183156198e1caa594e7e6cb0cdacc5a949bab285593bb9fff50b87f9cb5dcf6e6ddb41ffa88884ce5c5d76db03354b010141178905200b1b74eab6b8d228bbae55656f5be64e48823f4a7fb0ba3d1f56701f4edfe6ffe05d0e37cf0a86afa9a14639999ae6ebfa840dbab5a988c0c97e0cfe0101416777808fc01bfa65cde8aebbfa947017020347ef70c6678df8a7a31a9f02f80cb32bbfe8537a93d2c1c2d31b81b97c05d92e6a32a16671ff78f711e1cbf357ff010141f16ff635374672e6241a5c69f07e1f9fee771d2550df357839d88a885e4c652e74b411054a223e2679109a7839cd50f9e192be41216fe3b778d3c128441324370102473044022013a2c8429ccf8b20e5a2e0ca1e5de3339f95e8d569feebb30a5630f96ea770db02202d3b7a7c8f71d16a0e7d418ab64f7033f2670b831782863c21f4a234eb86e36d01210318cc436bba9bc2b1e7ed339dee8913ed339f267b1e0d03f3677ad91af8dc098a00000000"
}