{
  "txid": "59b5ee4979c3df0674a7bb6c9db554f4e3e2a95e9566051d971bd51f196c7c11",
  "version": 2,
  "locktime": 0,
  "vin": [
    {
      "txid": "63dbae73a425de938871e9c768deb098ad7263e74bc3749d37df578be2ca6004",
      "vout": 6,
      "prevout": {
        "scriptpubkey": "5120a8242c96ada6a45e13094fad5219695b4def085b2f1510da2d43871ec7d1691b",
        "scriptpubkey_asm": "OP_PUSHNUM_1 OP_PUSHBYTES_32 a8242c96ada6a45e13094fad5219695b4def085b2f1510da2d43871ec7d1691b",
        "scriptpubkey_type": "v1_p2tr",
        "scriptpubkey_address": "bc1p4qjze94d56j9uycff7k4yxtftdx77zzm9u23pk3dgwr3a373dyds7vy0s7",
        "value": 600
      },
      "scriptsig": "",
      "scriptsig_asm": "",
      "witness": [
        "bd1d8e1a12c0795486ecc0a437903938790e48d2cb7975fab4fdedf8e8974e82dee96da4019745181061dca8a5173bf1d457c401ae7f54b3c116ea2f1ca5023a"
      ],
      "is_coinbase": false,
      "sequence": 4294967295
    },
    {
      "txid": "63dbae73a425de938871e9c768deb098ad7263e74bc3749d37df578be2ca6004",
      "vout": 7,
      "prevout": {
        "scriptpubkey": "5120a8242c96ada6a45e13094fad5219695b4def085b2f1510da2d43871ec7d1691b",
        "scriptpubkey_asm": "OP_PUSHNUM_1 OP_PUSHBYTES_32 a8242c96ada6a45e13094fad5219695b4def085b2f1510da2d43871ec7d1691b",
        "scriptpubkey_type": "v1_p2tr",
        "scriptpubkey_address": "bc1p4qjze94d56j9uycff7k4yxtftdx77zzm9u23pk3dgwr3a373dyds7vy0s7",
        "value": 600
      },
      "scriptsig": "",
      "scriptsig_asm": "",
      "witness": [
        "0d8c8355d4b1148546062b5a5a66fc77bd738bd0cb295f0f01bc4f2333f9529289be66780cab34d8cf413d734eb4972acfda1e2ac675b1638ccae5e525718529"
      ],
      "is_coinbase": false,
      "sequence": 4294967295
    },
    {
      "txid": "fef1a60678577fe4714df342cf444f0267fe86c4b5d52cf13c126db1f1343f0d",
      "vout": 21,
      "prevout": {
        "scriptpubkey": "5120a8242c96ada6a45e13094fad5219695b4def085b2f1510da2d43871ec7d1691b",
        "scriptpubkey_asm": "OP_PUSHNUM_1 OP_PUSHBYTES_32 a8242c96ada6a45e13094fad5219695b4def085b2f1510da2d43871ec7d1691b",
        "scriptpubkey_type": "v1_p2tr",
        "scriptpubkey_address": "bc1p4qjze94d56j9uycff7k4yxtftdx77zzm9u23pk3dgwr3a373dyds7vy0s7",
        "value": 600
      },
      "scriptsig": "",
      "scriptsig_asm": "",
      "witness": [
        "c09774e3d127bcbc992b0e920d025f0b8ba634fa33f8c57100dfb2e71007ce7b2333dd714d212dedb8a8be527ac21a93f957f7945b221c82a17535b1cb99569a"
      ],
      "is_coinbase": false,
      "sequence": 4294967295
    },
    {
      "txid": "fef1a60678577fe4714df342cf444f0267fe86c4b5d52cf13c126db1f1343f0d",
      "vout": 30,
      "prevout": {
        "scriptpubkey": "5120a8242c96ada6a45e13094fad5219695b4def085b2f1510da2d43871ec7d1691b",
        "scriptpubkey_asm": "OP_PUSHNUM_1 OP_PUSHBYTES_32 a8242c96ada6a45e13094fad5219695b4def085b2f1510da2d43871ec7d1691b",
        "scriptpubkey_type": "v1_p2tr",
        "scriptpubkey_address": "bc1p4qjze94d56j9uycff7k4yxtftdx77zzm9u23pk3dgwr3a373dyds7vy0s7",
        "value": 600
      },
      "scriptsig": "",
      "scriptsig_asm": "",
      "witness": [
        "01c062e6d1d1e32f5b9624fc8e58333534f3ab41561ab7855c022b8e0ebd52700f1939fb82832902425a93d0d1e1e87e4f98be44bdc66f7f31bafd2ada9c7c2f"
      ],
      "is_coinbase": false,
      "sequence": 4294967295
    },
    {
      "txid": "fef1a60678577fe4714df342cf444f0267fe86c4b5d52cf13c126db1f1343f0d",
      "vout": 26,
      "prevout": {
        "scriptpubkey": "5120a8242c96ada6a45e13094fad5219695b4def085b2f1510da2d43871ec7d1691b",
        "scriptpubkey_asm": "OP_PUSHNUM_1 OP_PUSHBYTES_32 a8242c96ada6a45e13094fad5219695b4def085b2f1510da2d43871ec7d1691b",
        "scriptpubkey_type": "v1_p2tr",
        "scriptpubkey_address": "bc1p4qjze94d56j9uycff7k4yxtftdx77zzm9u23pk3dgwr3a373dyds7vy0s7",
        "value": 600
      },
      "scriptsig": "",
      "scriptsig_asm": "",
      "witness": [
        "cbb62c7d4fe9c0f72a906456cc7a4931739aed1786c3c00b534fb5a39baceca02fce652e949dcddd263e66f804ba1cda88afcb60961f7b3e16991f7eddf9a2c8"
      ],
      "is_coinbase": false,
      "sequence": 4294967295
    },
    {
      "txid": "fef1a60678577fe4714df342cf444f0267fe86c4b5d52cf13c126db1f1343f0d",
      "vout": 25,
      "prevout": {
        "scriptpubkey": "5120a8242c96ada6a45e13094fad5219695b4def085b2f1510da2d43871ec7d1691b",
        "scriptpubkey_asm": "OP_PUSHNUM_1 OP_PUSHBYTES_32 a8242c96ada6a45e13094fad5219695b4def085b2f1510da2d43871ec7d1691b",
        "scriptpubkey_type": "v1_p2tr",
        "scriptpubkey_address": "bc1p4qjze94d56j9uycff7k4yxtftdx77zzm9u23pk3dgwr3a373dyds7vy0s7",
        "value": 600
      },
      "scriptsig": "",
      "scriptsig_asm": "",
      "witness": [
        "03162e8cb1d9b6fceb89a0a0a57b120d4c845899590af30a0e69797908febc6d551d3e8537f7772bbd19943be2d7c34d7a2331430fdfc7bc4be33c10678eb97a"
      ],
      "is_coinbase": false,
      "sequence": 4294967295
    },
    {
      "txid": "fef1a60678577fe4714df342cf444f0267fe86c4b5d52cf13c126db1f1343f0d",
      "vout": 27,
      "prevout": {
        "scriptpubkey": "5120a8242c96ada6a45e13094fad5219695b4def085b2f1510da2d43871ec7d1691b",
        "scriptpubkey_asm": "OP_PUSHNUM_1 OP_PUSHBYTES_32 a8242c96ada6a45e13094fad5219695b4def085b2f1510da2d43871ec7d1691b",
        "scriptpubkey_type": "v1_p2tr",
        "scriptpubkey_address": "bc1p4qjze94d56j9uycff7k4yxtftdx77zzm9u23pk3dgwr3a373dyds7vy0s7",
        "value": 600
      },
      "scriptsig": "",
      "scriptsig_asm": "",
      "witness": [
        "0a9b5797e9a78fc5993ec5beff2f3689d40a234e9ae7fb799819b344b29c1bf5f38b6f9e680a7391d707dd8dd7abd686f27e8ccdb441ba1907399f215e65a2c4"
      ],
      "is_coinbase": false,
      "sequence": 4294967295
    },
    {
      "txid": "fef1a60678577fe4714df342cf444f0267fe86c4b5d52cf13c126db1f1343f0d",
      "vout": 23,
      "prevout": {
        "scriptpubkey": "5120a8242c96ada6a45e13094fad5219695b4def085b2f1510da2d43871ec7d1691b",
        "scriptpubkey_asm": "OP_PUSHNUM_1 OP_PUSHBYTES_32 a8242c96ada6a45e13094fad5219695b4def085b2f1510da2d43871ec7d1691b",
        "scriptpubkey_type": "v1_p2tr",
        "scriptpubkey_address": "bc1p4qjze94d56j9uycff7k4yxtftdx77zzm9u23pk3dgwr3a373dyds7vy0s7",
        "value": 600
      },
      "scriptsig": "",
      "scriptsig_asm": "",
      "witness": [
        "2b44c46a4adb10a775fda631184a688a43f1d10fb2620724c4dc445686afb2d52919dc3958c2bd0d5a9ff5bac76755c86a890478052532685eeb0de362b3183a"
      ],
      "is_coinbase": false,
      "sequence": 4294967295
    },
    {
      "txid": "fef1a60678577fe4714df342cf444f0267fe86c4b5d52cf13c126db1f1343f0d",
      "vout": 24,
      "prevout": {
        "scriptpubkey": "5120a8242c96ada6a45e13094fad5219695b4def085b2f1510da2d43871ec7d1691b",
        "scriptpubkey_asm": "OP_PUSHNUM_1 OP_PUSHBYTES_32 a8242c96ada6a45e13094fad5219695b4def085b2f1510da2d43871ec7d1691b",
        "scriptpubkey_type": "v1_p2tr",
        "scriptpubkey_address": "bc1p4qjze94d56j9uycff7k4yxtftdx77zzm9u23pk3dgwr3a373dyds7vy0s7",
        "value": 600
      },
      "scriptsig": "",
      "scriptsig_asm": "",
      "witness": [
        "e623ed927273990145a035bcb36893782a474b26e0d17b2d6d7674f315a9ccd0e985f09f4dec013c837362608354f58f4e00b92378cc12833695601291fdfce1"
      ],
      "is_coinbase": false,
      "sequence": 4294967295
    },
    {
      "txid": "fef1a60678577fe4714df342cf444f0267fe86c4b5d52cf13c126db1f1343f0d",
      "vout": 31,
      "prevout": {
        "scriptpubkey": "5120a8242c96ada6a45e13094fad5219695b4def085b2f1510da2d43871ec7d1691b",
        "scriptpubkey_asm": "OP_PUSHNUM_1 OP_PUSHBYTES_32 a8242c96ada6a45e13094fad5219695b4def085b2f1510da2d43871ec7d1691b",
        "scriptpubkey_type": "v1_p2tr",
        "scriptpubkey_address": "bc1p4qjze94d56j9uycff7k4yxtftdx77zzm9u23pk3dgwr3a373dyds7vy0s7",
        "value": 600
      },
      "scriptsig": "",
      "scriptsig_asm": "",
      "witness": [
        "5ec07b6b15ffbf6b0501cdcd70d8fb26e391eb5e4920d2e42d6af8db83a52f442edfc6f1e23dd92d32f4db59587b8c957cb41cb2851f4fbd7cc779cbe2840f72"
      ],
      "is_coinbase": false,
      "sequence": 4294967295
    },
    {
      "txid": "63dbae73a425de938871e9c768deb098ad7263e74bc3749d37df578be2ca6004",
      "vout": 5,
      "prevout": {
        "scriptpubkey": "5120a8242c96ada6a45e13094fad5219695b4def085b2f1510da2d43871ec7d1691b",
        "scriptpubkey_asm": "OP_PUSHNUM_1 OP_PUSHBYTES_32 a8242c96ada6a45e13094fad5219695b4def085b2f1510da2d43871ec7d1691b",
        "scriptpubkey_type": "v1_p2tr",
        "scriptpubkey_address": "bc1p4qjze94d56j9uycff7k4yxtftdx77zzm9u23pk3dgwr3a373dyds7vy0s7",
        "value": 600
      },
      "scriptsig": "",
      "scriptsig_asm": "",
      "witness": [
        "a556470c644543c518f627a2730ce9ca1b616deab0957aa965ef37c77420c90dc54a1a809a6b51a106e889f6b1c7e850628bcf9ccb9a7d3d80afc02625a01988"
      ],
      "is_coinbase": false,
      "sequence": 4294967295
    },
    {
      "txid": "925fd828a4e0cb891328c2f6cedc375c59895f9f484d4f0d1ab7452174f4acf3",
      "vout": 0,
      "prevout": {
        "scriptpubkey": "5120be83080d8eb127f8814332ac4665cb11821f2970906455b3d89a44d60bdebe49",
        "scriptpubkey_asm": "OP_PUSHNUM_1 OP_PUSHBYTES_32 be83080d8eb127f8814332ac4665cb11821f2970906455b3d89a44d60bdebe49",
        "scriptpubkey_type": "v1_p2tr",
        "scriptpubkey_address": "bc1ph6pssrvwkynl3q2rx2kyvewtzxpp72tsjpj9tv7cnfzdvz77heysle3rcm",
        "value": 546
      },
      "scriptsig": "",
      "scriptsig_asm": "",
      "witness": [
        "3ee2804a2a03d2931cca888f0f0a8e77973042ff9c3760505ca4ff164c1634ab8dda829d1c375b9789969035ea6cc7eaa397cb3f76eaa14c9ba84bc67609c19883"
      ],
      "is_coinbase": false,
      "sequence": 4294967295
    },
    {
      "txid": "f3587af37520b423decc7f4326d95c6490d2bad2697c6d3e74a173cd0f8f04f1",
      "vout": 4,
      "prevout": {
        "scriptpubkey": "5120263c109048692ab978e35b331e8234ec89eaa62a9cbf96c47c737f833eba9ff7",
        "scriptpubkey_asm": "OP_PUSHNUM_1 OP_PUSHBYTES_32 263c109048692ab978e35b331e8234ec89eaa62a9cbf96c47c737f833eba9ff7",
        "scriptpubkey_type": "v1_p2tr",
        "scriptpubkey_address": "bc1pyc7ppyzgdy4tj78rtve3aq35ajy74f32njled3ruwdlcx046nlms9ze0ux",
        "value": 546
      },
      "scriptsig": "",
      "scriptsig_asm": "",
      "witness": [
        "5b0138912466afb83d5d54fa633b51c9e8e58027e3f762cf327a108995f3c7f8e9367ac723694ea601fcc33cfe841bfca710a88d1b05e36e5ad3e6d2d8fc577383"
      ],
      "is_coinbase": false,
      "sequence": 4294967295
    },
    {
      "txid": "4cf612e39c886c02414d93931b5a7687e7fe1acbbab9e83420290ba812880888",
      "vout": 1,
      "prevout": {
        "scriptpubkey": "51203c1ba13e6d8cd65f7e33fa55bc02d271fd538e33151f5fb858f40b918b4270ac",
        "scriptpubkey_asm": "OP_PUSHNUM_1 OP_PUSHBYTES_32 3c1ba13e6d8cd65f7e33fa55bc02d271fd538e33151f5fb858f40b918b4270ac",
        "scriptpubkey_type": "v1_p2tr",
        "scriptpubkey_address": "bc1p8sd6z0nd3nt97l3nlf2mcqkjw8748r3nz504lwzc7s9erz6zwzkqe7qv8k",
        "value": 546
      },
      "scriptsig": "",
      "scriptsig_asm": "",
      "witness": [
        "eff8a86be17fc5b481eea0a7a6da1c4e9e13842e7d9e243296c33b107f4fbd8c48fe98b31915d105cd861a075722a384bc386d16d93e6d7eedefc9500585e71183"
      ],
      "is_coinbase": false,
      "sequence": 4294967295
    },
    {
      "txid": "a21e2073b68c0151afa8f8e59081c77f941af9c132cab903be3a95d4c95782f6",
      "vout": 2,
      "prevout": {
        "scriptpubkey": "5120263c109048692ab978e35b331e8234ec89eaa62a9cbf96c47c737f833eba9ff7",
        "scriptpubkey_asm": "OP_PUSHNUM_1 OP_PUSHBYTES_32 263c109048692ab978e35b331e8234ec89eaa62a9cbf96c47c737f833eba9ff7",
        "scriptpubkey_type": "v1_p2tr",
        "scriptpubkey_address": "bc1pyc7ppyzgdy4tj78rtve3aq35ajy74f32njled3ruwdlcx046nlms9ze0ux",
        "value": 546
      },
      "scriptsig": "",
      "scriptsig_asm": "",
      "witness": [
        "b726e0b076a5ce0ead6cf77f1c41bdf0c292b7485beb949a429cade101726f37978950d321f08f6e90edf29a5ee191b233dfa6682427a05333300ffd2fe6074c83"
      ],
      "is_coinbase": false,
      "sequence": 4294967295
    },
    {
      "txid": "a1e1811f3cb128c5b22b987ee7e1da235f67e0ce68309e551672a116c6f8a7c0",
      "vout": 1,
      "prevout": {
        "scriptpubkey": "5120ab29a9996e6a8d668dfb29b2b9cce82c4d48706a44d3b1e5dffc11fd6172d658",
        "scriptpubkey_asm": "OP_PUSHNUM_1 OP_PUSHBYTES_32 ab29a9996e6a8d668dfb29b2b9cce82c4d48706a44d3b1e5dffc11fd6172d658",
        "scriptpubkey_type": "v1_p2tr",
        "scriptpubkey_address": "bc1p4v56nxtwd2xkdr0m9xetnn8g93x5sur2gnfmrewllsgl6ctj6evqwq4ffw",
        "value": 546
      },
      "scriptsig": "",
      "scriptsig_asm": "",
      "witness": [
        "d07e7f592d45f3af4c928ae02e207c140103af86ddca25d124605049a9b3e3a9ed91e890c14f664a6bd35be8409824dbf0b6eb21f1c8d41fe6cad0859097e81383"
      ],
      "is_coinbase": false,
      "sequence": 4294967295
    },
    {
      "txid": "7818e537121109c5cfc93eaa6e2a875455ba997bbbe9bb6291590d611917505f",
      "vout": 0,
      "prevout": {
        "scriptpubkey": "5120be83080d8eb127f8814332ac4665cb11821f2970906455b3d89a44d60bdebe49",
        "scriptpubkey_asm": "OP_PUSHNUM_1 OP_PUSHBYTES_32 be83080d8eb127f8814332ac4665cb11821f2970906455b3d89a44d60bdebe49",
        "scriptpubkey_type": "v1_p2tr",
        "scriptpubkey_address": "bc1ph6pssrvwkynl3q2rx2kyvewtzxpp72tsjpj9tv7cnfzdvz77heysle3rcm",
        "value": 546
      },
      "scriptsig": "",
      "scriptsig_asm": "",
      "witness": [
        "c8d10aa859c544799f1d3296fb0d6ede9e00efd9b40ac28dcb80ee827c551268469ff3f1cd8deb711014da0fd547a94a6d4f4f26c17a4a7554f1a41c76e9e86083"
      ],
      "is_coinbase": false,
      "sequence": 4294967295
    },
    {
      "txid": "f6673a334277291104af108ee360c385d2f34bb4531d3e43f23d252581aec0f9",
      "vout": 0,
      "prevout": {
        "scriptpubkey": "0014c54edb836f879b479e3d558c255324c321ec191a",
        "scriptpubkey_asm": "OP_0 OP_PUSHBYTES_20 c54edb836f879b479e3d558c255324c321ec191a",
        "scriptpubkey_type": "v0_p2wpkh",
        "scriptpubkey_address": "bc1qc48dhqm0s7d5083a2kxz25eycvs7cxg69wfmp0",
        "value": 546
      },
      "scriptsig": "",
      "scriptsig_asm": "",
      "witness": [
        "3045022100f9edcba5d51f18f458e7c2b39fa95fe98a1e579c1c659c12f3865c1d8eb5132f022061d8ca7650fcb1b3a73de348541a78476bfdef228b0ebb0d89b5b23202db30e683",
        "02b7735e85dbcea500485118c0e8edb3bed81ea80caf162c7a5be3bcfabff697ef"
      ],
      "is_coinbase": false,
      "sequence": 4294967295
    },
    {
      "txid": "08b8e683d24f96f6e8741fd63c1681633122db3755c25d08113b3f540362db27",
      "vout": 1,
      "prevout": {
        "scriptpubkey": "5120ab29a9996e6a8d668dfb29b2b9cce82c4d48706a44d3b1e5dffc11fd6172d658",
        "scriptpubkey_asm": "OP_PUSHNUM_1 OP_PUSHBYTES_32 ab29a9996e6a8d668dfb29b2b9cce82c4d48706a44d3b1e5dffc11fd6172d658",
        "scriptpubkey_type": "v1_p2tr",
        "scriptpubkey_address": "bc1p4v56nxtwd2xkdr0m9xetnn8g93x5sur2gnfmrewllsgl6ctj6evqwq4ffw",
        "value": 546
      },
      "scriptsig": "",
      "scriptsig_asm": "",
      "witness": [
        "bcf348af2277fd941c8f7dd5f79ff76c569777bc1e30a29df91b202d592c6bc5bceb5f6dae94c8f43654a632fc5334b4ec3278339e14c2994db32aadb986df6083"
      ],
      "is_coinbase": false,
      "sequence": 4294967295
    },
    {
      "txid": "eebd9552038f2fff4ff9277e42dac8f673131a5a7564bf3b5e81659b9fd6506a",
      "vout": 1,
      "prevout": {
        "scriptpubkey": "5120a803c9e049998c3a3e0d356ae9c99cc7929442c4645143bc67953a65769cc06b",
        "scriptpubkey_asm": "OP_PUSHNUM_1 OP_PUSHBYTES_32 a803c9e049998c3a3e0d356ae9c99cc7929442c4645143bc67953a65769cc06b",
        "scriptpubkey_type": "v1_p2tr",
        "scriptpubkey_address": "bc1p4qpunczfnxxr50sdx44wnjvuc7ffgskyv3g580r8j5ax2a5ucp4ssfaqa3",
        "value": 546
      },
      "scriptsig": "",
      "scriptsig_asm": "",
      "witness": [
        "50cbf81501357a284a0a0585b33470421eca4b539b4eb6e3e335484fd781886bbc4338643ab42e7f380e154ed074493fc899906bb908aa8cddef0c10b8df317983"
      ],
      "is_coinbase": false,
      "sequence": 4294967295
    },
    {
      "txid": "f3587af37520b423decc7f4326d95c6490d2bad2697c6d3e74a173cd0f8f04f1",
      "vout": 1,
      "prevout": {
        "scriptpubkey": "5120263c109048692ab978e35b331e8234ec89eaa62a9cbf96c47c737f833eba9ff7",
        "scriptpubkey_asm": "OP_PUSHNUM_1 OP_PUSHBYTES_32 263c109048692ab978e35b331e8234ec89eaa62a9cbf96c47c737f833eba9ff7",
        "scriptpubkey_type": "v1_p2tr",
        "scriptpubkey_address": "bc1pyc7ppyzgdy4tj78rtve3aq35ajy74f32njled3ruwdlcx046nlms9ze0ux",
        "value": 546
      },
      "scriptsig": "",
      "scriptsig_asm": "",
      "witness": [
        "0542d4dfbf9f0e8b5c71c4834f9fbff55d10fb66ab272a9d646571813fb9a31b9e96538fd3e24c044cf68503ceb791a254d91d4fe7f37670a75aadef81f8fc2283"
      ],
      "is_coinbase": false,
      "sequence": 4294967295
    },
    {
      "txid": "63dbae73a425de938871e9c768deb098ad7263e74bc3749d37df578be2ca6004",
      "vout": 8,
      "prevout": {
        "scriptpubkey": "5120a8242c96ada6a45e13094fad5219695b4def085b2f1510da2d43871ec7d1691b",
        "scriptpubkey_asm": "OP_PUSHNUM_1 OP_PUSHBYTES_32 a8242c96ada6a45e13094fad5219695b4def085b2f1510da2d43871ec7d1691b",
        "scriptpubkey_type": "v1_p2tr",
        "scriptpubkey_address": "bc1p4qjze94d56j9uycff7k4yxtftdx77zzm9u23pk3dgwr3a373dyds7vy0s7",
        "value": 98264949
      },
      "scriptsig": "",
      "scriptsig_asm": "",
      "witness": [
        "9be7747de0a8b4cb335384684c2a6bfa16751e33c485082b01f3a5735f4642b0bde085e307f018f7193911a124dd30d803b9509496d3095fb80830b64080c71c"
      ],
      "is_coinbase": false,
      "sequence": 4294967295
    }
  ],
  "vout": [
    {
      "scriptpubkey": "5120a8242c96ada6a45e13094fad5219695b4def085b2f1510da2d43871ec7d1691b",
      "scriptpubkey_asm": "OP_PUSHNUM_1 OP_PUSHBYTES_32 a8242c96ada6a45e13094fad5219695b4def085b2f1510da2d43871ec7d1691b",
      "scriptpubkey_type": "v1_p2tr",
      "scriptpubkey_address": "bc1p4qjze94d56j9uycff7k4yxtftdx77zzm9u23pk3dgwr3a373dyds7vy0s7",
      "value": 6600
    },
    {
      "scriptpubkey": "5120a8242c96ada6a45e13094fad5219695b4def085b2f1510da2d43871ec7d1691b",
      "scriptpubkey_asm": "OP_PUSHNUM_1 OP_PUSHBYTES_32 a8242c96ada6a45e13094fad5219695b4def085b2f1510da2d43871ec7d1691b",
      "scriptpubkey_type": "v1_p2tr",
      "scriptpubkey_address": "bc1p4qjze94d56j9uycff7k4yxtftdx77zzm9u23pk3dgwr3a373dyds7vy0s7",
      "value": 546
    },
    {
      "scriptpubkey": "5120a8242c96ada6a45e13094fad5219695b4def085b2f1510da2d43871ec7d1691b",
      "scriptpubkey_asm": "OP_PUSHNUM_1 OP_PUSHBYTES_32 a8242c96ada6a45e13094fad5219695b4def085b2f1510da2d43871ec7d1691b",
      "scriptpubkey_type": "v1_p2tr",
      "scriptpubkey_address": "bc1p4qjze94d56j9uycff7k4yxtftdx77zzm9u23pk3dgwr3a373dyds7vy0s7",
      "value": 546
    },
    {
      "scriptpubkey": "5120a8242c96ada6a45e13094fad5219695b4def085b2f1510da2d43871ec7d1691b",
      "scriptpubkey_asm": "OP_PUSHNUM_1 OP_PUSHBYTES_32 a8242c96ada6a45e13094fad5219695b4def085b2f1510da2d43871ec7d1691b",
      "scriptpubkey_type": "v1_p2tr",
      "scriptpubkey_address": "bc1p4qjze94d56j9uycff7k4yxtftdx77zzm9u23pk3dgwr3a373dyds7vy0s7",
      "value": 546
    },
    {
      "scriptpubkey": "5120a8242c96ada6a45e13094fad5219695b4def085b2f1510da2d43871ec7d1691b",
      "scriptpubkey_asm": "OP_PUSHNUM_1 OP_PUSHBYTES_32 a8242c96ada6a45e13094fad5219695b4def085b2f1510da2d43871ec7d1691b",
      "scriptpubkey_type": "v1_p2tr",
      "scriptpubkey_address": "bc1p4qjze94d56j9uycff7k4yxtftdx77zzm9u23pk3dgwr3a373dyds7vy0s7",
      "value": 546
    },
    {
      "scriptpubkey": "5120a8242c96ada6a45e13094fad5219695b4def085b2f1510da2d43871ec7d1691b",
      "scriptpubkey_asm": "OP_PUSHNUM_1 OP_PUSHBYTES_32 a8242c96ada6a45e13094fad5219695b4def085b2f1510da2d43871ec7d1691b",
      "scriptpubkey_type": "v1_p2tr",
      "scriptpubkey_address": "bc1p4qjze94d56j9uycff7k4yxtftdx77zzm9u23pk3dgwr3a373dyds7vy0s7",
      "value": 546
    },
    {
      "scriptpubkey": "5120a8242c96ada6a45e13094fad5219695b4def085b2f1510da2d43871ec7d1691b",
      "scriptpubkey_asm": "OP_PUSHNUM_1 OP_PUSHBYTES_32 a8242c96ada6a45e13094fad5219695b4def085b2f1510da2d43871ec7d1691b",
      "scriptpubkey_type": "v1_p2tr",
      "scriptpubkey_address": "bc1p4qjze94d56j9uycff7k4yxtftdx77zzm9u23pk3dgwr3a373dyds7vy0s7",
      "value": 546
    },
    {
      "scriptpubkey": "5120a8242c96ada6a45e13094fad5219695b4def085b2f1510da2d43871ec7d1691b",
      "scriptpubkey_asm": "OP_PUSHNUM_1 OP_PUSHBYTES_32 a8242c96ada6a45e13094fad5219695b4def085b2f1510da2d43871ec7d1691b",
      "scriptpubkey_type": "v1_p2tr",
      "scriptpubkey_address": "bc1p4qjze94d56j9uycff7k4yxtftdx77zzm9u23pk3dgwr3a373dyds7vy0s7",
      "value": 546
    },
    {
      "scriptpubkey": "5120a8242c96ada6a45e13094fad5219695b4def085b2f1510da2d43871ec7d1691b",
      "scriptpubkey_asm": "OP_PUSHNUM_1 OP_PUSHBYTES_32 a8242c96ada6a45e13094fad5219695b4def085b2f1510da2d43871ec7d1691b",
      "scriptpubkey_type": "v1_p2tr",
      "scriptpubkey_address": "bc1p4qjze94d56j9uycff7k4yxtftdx77zzm9u23pk3dgwr3a373dyds7vy0s7",
      "value": 546
    },
    {
      "scriptpubkey": "5120a8242c96ada6a45e13094fad5219695b4def085b2f1510da2d43871ec7d1691b",
      "scriptpubkey_asm": "OP_PUSHNUM_1 OP_PUSHBYTES_32 a8242c96ada6a45e13094fad5219695b4def085b2f1510da2d43871ec7d1691b",
      "scriptpubkey_type": "v1_p2tr",
      "scriptpubkey_address": "bc1p4qjze94d56j9uycff7k4yxtftdx77zzm9u23pk3dgwr3a373dyds7vy0s7",
      "value": 546
    },
    {
      "scriptpubkey": "5120a8242c96ada6a45e13094fad5219695b4def085b2f1510da2d43871ec7d1691b",
      "scriptpubkey_asm": "OP_PUSHNUM_1 OP_PUSHBYTES_32 a8242c96ada6a45e13094fad5219695b4def085b2f1510da2d43871ec7d1691b",
      "scriptpubkey_type": "v1_p2tr",
      "scriptpubkey_address": "bc1p4qjze94d56j9uycff7k4yxtftdx77zzm9u23pk3dgwr3a373dyds7vy0s7",
      "value": 546
    },
    {
      "scriptpubkey": "5120be83080d8eb127f8814332ac4665cb11821f2970906455b3d89a44d60bdebe49",
      "scriptpubkey_asm": "OP_PUSHNUM_1 OP_PUSHBYTES_32 be83080d8eb127f8814332ac4665cb11821f2970906455b3d89a44d60bdebe49",
      "scriptpubkey_type": "v1_p2tr",
      "scriptpubkey_address": "bc1ph6pssrvwkynl3q2rx2kyvewtzxpp72tsjpj9tv7cnfzdvz77heysle3rcm",
      "value": 2079000
    },
    {
      "scriptpubkey": "5120263c109048692ab978e35b331e8234ec89eaa62a9cbf96c47c737f833eba9ff7",
      "scriptpubkey_asm": "OP_PUSHNUM_1 OP_PUSHBYTES_32 263c109048692ab978e35b331e8234ec89eaa62a9cbf96c47c737f833eba9ff7",
      "scriptpubkey_type": "v1_p2tr",
      "scriptpubkey_address": "bc1pyc7ppyzgdy4tj78rtve3aq35ajy74f32njled3ruwdlcx046nlms9ze0ux",
      "value": 2080000
    },
    {
      "scriptpubkey": "51203c1ba13e6d8cd65f7e33fa55bc02d271fd538e33151f5fb858f40b918b4270ac",
      "scriptpubkey_asm": "OP_PUSHNUM_1 OP_PUSHBYTES_32 3c1ba13e6d8cd65f7e33fa55bc02d271fd538e33151f5fb858f40b918b4270ac",
      "scriptpubkey_type": "v1_p2tr",
      "scriptpubkey_address": "bc1p8sd6z0nd3nt97l3nlf2mcqkjw8748r3nz504lwzc7s9erz6zwzkqe7qv8k",
      "value": 2078000
    },
    {
      "scriptpubkey": "5120263c109048692ab978e35b331e8234ec89eaa62a9cbf96c47c737f833eba9ff7",
      "scriptpubkey_asm": "OP_PUSHNUM_1 OP_PUSHBYTES_32 263c109048692ab978e35b331e8234ec89eaa62a9cbf96c47c737f833eba9ff7",
      "scriptpubkey_type": "v1_p2tr",
      "scriptpubkey_address": "bc1pyc7ppyzgdy4tj78rtve3aq35ajy74f32njled3ruwdlcx046nlms9ze0ux",
      "value": 2080000
    },
    {
      "scriptpubkey": "5120ab29a9996e6a8d668dfb29b2b9cce82c4d48706a44d3b1e5dffc11fd6172d658",
      "scriptpubkey_asm": "OP_PUSHNUM_1 OP_PUSHBYTES_32 ab29a9996e6a8d668dfb29b2b9cce82c4d48706a44d3b1e5dffc11fd6172d658",
      "scriptpubkey_type": "v1_p2tr",
      "scriptpubkey_address": "bc1p4v56nxtwd2xkdr0m9xetnn8g93x5sur2gnfmrewllsgl6ctj6evqwq4ffw",
      "value": 2100000
    },
    {
      "scriptpubkey": "5120be83080d8eb127f8814332ac4665cb11821f2970906455b3d89a44d60bdebe49",
      "scriptpubkey_asm": "OP_PUSHNUM_1 OP_PUSHBYTES_32 be83080d8eb127f8814332ac4665cb11821f2970906455b3d89a44d60bdebe49",
      "scriptpubkey_type": "v1_p2tr",
      "scriptpubkey_address": "bc1ph6pssrvwkynl3q2rx2kyvewtzxpp72tsjpj9tv7cnfzdvz77heysle3rcm",
      "value": 2079000
    },
    {
      "scriptpubkey": "0014c54edb836f879b479e3d558c255324c321ec191a",
      "scriptpubkey_asm": "OP_0 OP_PUSHBYTES_20 c54edb836f879b479e3d558c255324c321ec191a",
      "scriptpubkey_type": "v0_p2wpkh",
      "scriptpubkey_address": "bc1qc48dhqm0s7d5083a2kxz25eycvs7cxg69wfmp0",
      "value": 2079000
    },
    {
      "scriptpubkey": "5120ab29a9996e6a8d668dfb29b2b9cce82c4d48706a44d3b1e5dffc11fd6172d658",
      "scriptpubkey_asm": "OP_PUSHNUM_1 OP_PUSHBYTES_32 ab29a9996e6a8d668dfb29b2b9cce82c4d48706a44d3b1e5dffc11fd6172d658",
      "scriptpubkey_type": "v1_p2tr",
      "scriptpubkey_address": "bc1p4v56nxtwd2xkdr0m9xetnn8g93x5sur2gnfmrewllsgl6ctj6evqwq4ffw",
      "value": 2100000
    },
    {
      "scriptpubkey": "5120a803c9e049998c3a3e0d356ae9c99cc7929442c4645143bc67953a65769cc06b",
      "scriptpubkey_asm": "OP_PUSHNUM_1 OP_PUSHBYTES_32 a803c9e049998c3a3e0d356ae9c99cc7929442c4645143bc67953a65769cc06b",
      "scriptpubkey_type": "v1_p2tr",
      "scriptpubkey_address": "bc1p4qpunczfnxxr50sdx44wnjvuc7ffgskyv3g580r8j5ax2a5ucp4ssfaqa3",
      "value": 2090000
    },
    {
      "scriptpubkey": "5120263c109048692ab978e35b331e8234ec89eaa62a9cbf96c47c737f833eba9ff7",
      "scriptpubkey_asm": "OP_PUSHNUM_1 OP_PUSHBYTES_32 263c109048692ab978e35b331e8234ec89eaa62a9cbf96c47c737f833eba9ff7",
      "scriptpubkey_type": "v1_p2tr",
      "scriptpubkey_address": "bc1pyc7ppyzgdy4tj78rtve3aq35ajy74f32njled3ruwdlcx046nlms9ze0ux",
      "value": 2080000
    },
    {
      "scriptpubkey": "5120a8242c96ada6a45e13094fad5219695b4def085b2f1510da2d43871ec7d1691b",
      "scriptpubkey_asm": "OP_PUSHNUM_1 OP_PUSHBYTES_32 a8242c96ada6a45e13094fad5219695b4def085b2f1510da2d43871ec7d1691b",
      "scriptpubkey_type": "v1_p2tr",
      "scriptpubkey_address": "bc1p4qjze94d56j9uycff7k4yxtftdx77zzm9u23pk3dgwr3a373dyds7vy0s7",
      "value": 600
    },
    {
      "scriptpubkey": "5120a8242c96ada6a45e13094fad5219695b4def085b2f1510da2d43871ec7d1691b",
      "scriptpubkey_asm": "OP_PUSHNUM_1 OP_PUSHBYTES_32 a8242c96ada6a45e13094fad5219695b4def085b2f1510da2d43871ec7d1691b",
      "scriptpubkey_type": "v1_p2tr",
      "scriptpubkey_address": "bc1p4qjze94d56j9uycff7k4yxtftdx77zzm9u23pk3dgwr3a373dyds7vy0s7",
      "value": 600
    },
    {
      "scriptpubkey": "5120a8242c96ada6a45e13094fad5219695b4def085b2f1510da2d43871ec7d1691b",
      "scriptpubkey_asm": "OP_PUSHNUM_1 OP_PUSHBYTES_32 a8242c96ada6a45e13094fad5219695b4def085b2f1510da2d43871ec7d1691b",
      "scriptpubkey_type": "v1_p2tr",
      "scriptpubkey_address": "bc1p4qjze94d56j9uycff7k4yxtftdx77zzm9u23pk3dgwr3a373dyds7vy0s7",
      "value": 600
    },
    {
      "scriptpubkey": "5120a8242c96ada6a45e13094fad5219695b4def085b2f1510da2d43871ec7d1691b",
      "scriptpubkey_asm": "OP_PUSHNUM_1 OP_PUSHBYTES_32 a8242c96ada6a45e13094fad5219695b4def085b2f1510da2d43871ec7d1691b",
      "scriptpubkey_type": "v1_p2tr",
      "scriptpubkey_address": "bc1p4qjze94d56j9uycff7k4yxtftdx77zzm9u23pk3dgwr3a373dyds7vy0s7",
      "value": 600
    },
    {
      "scriptpubkey": "5120a8242c96ada6a45e13094fad5219695b4def085b2f1510da2d43871ec7d1691b",
      "scriptpubkey_asm": "OP_PUSHNUM_1 OP_PUSHBYTES_32 a8242c96ada6a45e13094fad5219695b4def085b2f1510da2d43871ec7d1691b",
      "scriptpubkey_type": "v1_p2tr",
      "scriptpubkey_address": "bc1p4qjze94d56j9uycff7k4yxtftdx77zzm9u23pk3dgwr3a373dyds7vy0s7",
      "value": 600
    },
    {
      "scriptpubkey": "5120a8242c96ada6a45e13094fad5219695b4def085b2f1510da2d43871ec7d1691b",
      "scriptpubkey_asm": "OP_PUSHNUM_1 OP_PUSHBYTES_32 a8242c96ada6a45e13094fad5219695b4def085b2f1510da2d43871ec7d1691b",
      "scriptpubkey_type": "v1_p2tr",
      "scriptpubkey_address": "bc1p4qjze94d56j9uycff7k4yxtftdx77zzm9u23pk3dgwr3a373dyds7vy0s7",
      "value": 600
    },
    {
      "scriptpubkey": "5120a8242c96ada6a45e13094fad5219695b4def085b2f1510da2d43871ec7d1691b",
      "scriptpubkey_asm": "OP_PUSHNUM_1 OP_PUSHBYTES_32 a8242c96ada6a45e13094fad5219695b4def085b2f1510da2d43871ec7d1691b",
      "scriptpubkey_type": "v1_p2tr",
      "scriptpubkey_address": "bc1p4qjze94d56j9uycff7k4yxtftdx77zzm9u23pk3dgwr3a373dyds7vy0s7",
      "value": 600
    },
    {
      "scriptpubkey": "5120a8242c96ada6a45e13094fad5219695b4def085b2f1510da2d43871ec7d1691b",
      "scriptpubkey_asm": "OP_PUSHNUM_1 OP_PUSHBYTES_32 a8242c96ada6a45e13094fad5219695b4def085b2f1510da2d43871ec7d1691b",
      "scriptpubkey_type": "v1_p2tr",
      "scriptpubkey_address": "bc1p4qjze94d56j9uycff7k4yxtftdx77zzm9u23pk3dgwr3a373dyds7vy0s7",
      "value": 600
    },
    {
      "scriptpubkey": "5120a8242c96ada6a45e13094fad5219695b4def085b2f1510da2d43871ec7d1691b",
      "scriptpubkey_asm": "OP_PUSHNUM_1 OP_PUSHBYTES_32 a8242c96ada6a45e13094fad5219695b4def085b2f1510da2d43871ec7d1691b",
      "scriptpubkey_type": "v1_p2tr",
      "scriptpubkey_address": "bc1p4qjze94d56j9uycff7k4yxtftdx77zzm9u23pk3dgwr3a373dyds7vy0s7",
      "value": 600
    },
    {
      "scriptpubkey": "5120a8242c96ada6a45e13094fad5219695b4def085b2f1510da2d43871ec7d1691b",
      "scriptpubkey_asm": "OP_PUSHNUM_1 OP_PUSHBYTES_32 a8242c96ada6a45e13094fad5219695b4def085b2f1510da2d43871ec7d1691b",
      "scriptpubkey_type": "v1_p2tr",
      "scriptpubkey_address": "bc1p4qjze94d56j9uycff7k4yxtftdx77zzm9u23pk3dgwr3a373dyds7vy0s7",
      "value": 600
    },
    {
      "scriptpubkey": "5120a8242c96ada6a45e13094fad5219695b4def085b2f1510da2d43871ec7d1691b",
      "scriptpubkey_asm": "OP_PUSHNUM_1 OP_PUSHBYTES_32 a8242c96ada6a45e13094fad5219695b4def085b2f1510da2d43871ec7d1691b",
      "scriptpubkey_type": "v1_p2tr",
      "scriptpubkey_address": "bc1p4qjze94d56j9uycff7k4yxtftdx77zzm9u23pk3dgwr3a373dyds7vy0s7",
      "value": 600
    },
    {
      "scriptpubkey": "5120a8242c96ada6a45e13094fad5219695b4def085b2f1510da2d43871ec7d1691b",
      "scriptpubkey_asm": "OP_PUSHNUM_1 OP_PUSHBYTES_32 a8242c96ada6a45e13094fad5219695b4def085b2f1510da2d43871ec7d1691b",
      "scriptpubkey_type": "v1_p2tr",
      "scriptpubkey_address": "bc1p4qjze94d56j9uycff7k4yxtftdx77zzm9u23pk3dgwr3a373dyds7vy0s7",
      "value": 77370213
    }
  ],
  "size": 3824,
  "weight": 10781,
  "fee": 43136,
  "status": {
    "confirmed": true,
    "block_height": 834460,
    "block_hash": "00000000000000000000484a79b643b2524bbce82e5d8a442013fa5b8905ed98",
    "block_time": 1710307468
  },
  "hex": "020000000001160460cae28b57df379d74c34be76372ad98b0de68c7e9718893de25a473aedb630600000000ffffffff0460cae28b57df379d74c34be76372ad98b0de68c7e9718893de25a473aedb630700000000ffffffff0d3f34f1b16d123cf12cd5b5c486fe67024f44cf42f34d71e47f577806a6f1fe1500000000ffffffff0d3f34f1b16d123cf12cd5b5c486fe67024f44cf42f34d71e47f577806a6f1fe1e00000000ffffffff0d3f34f1b16d123cf12cd5b5c486fe67024f44cf42f34d71e47f577806a6f1fe1a00000000ffffffff0d3f34f1b16d123cf12cd5b5c486fe67024f44cf42f34d71e47f577806a6f1fe1900000000ffffffff0d3f34f1b16d123cf12cd5b5c486fe67024f44cf42f34d71e47f577806a6f1fe1b00000000ffffffff0d3f34f1b16d123cf12cd5b5c486fe67024f44cf42f34d71e47f577806a6f1fe1700000000ffffffff0d3f34f1b16d123cf12cd5b5c486fe67024f44cf42f34d71e47f577806a6f1fe1800000000ffffffff0d3f34f1b16d123cf12cd5b5c486fe67024f44cf42f34d71e47f577806a6f1fe1f00000000ffffffff0460cae28b57df379d74c34be76372ad98b0de68c7e9718893de25a473aedb630500000000fffffffff3acf4742145b71a0d4f4d489f5f89595c37dccef6c2281389cbe0a428d85f920000000000fffffffff1048f0fcd73a1743e6d7c69d2bad290645cd926437fccde23b42075f37a58f30400000000ffffffff88088812a80b292034e8b9bacb1afee787765a1b93934d41026c889ce312f64c0100000000fffffffff68257c9d4953abe03b9ca32c1f91a947fc78190e5f8a8af51018cb673201ea20200000000ffffffffc0a7f8c616a17216559e3068cee0675f23dae1e77e982bb2c528b13c1f81e1a10100000000ffffffff5f501719610d599162bbe9bb7b99ba5554872a6eaa3ec9cfc509111237e518780000000000fffffffff9c0ae8125253df2433e1d53b44bf3d285c360e38e10af0411297742333a67f60000000000ffffffff27db6203543f3b11085dc25537db22316381163cd61f74e8f6964fd283e6b8080100000000ffffffff6a50d69f9b65815e3bbf64755a1a1373f6c8da427e27f94fff2f8f035295bdee0100000000fffffffff1048f0fcd73a1743e6d7c69d2bad290645cd926437fccde23b42075f37a58f30100000000ffffffff0460cae28b57df379d74c34be76372ad98b0de68c7e9718893de25a473aedb630800000000ffffffff21c819000000000000225120a8242c96ada6a45e13094fad5219695b4def085b2f1510da2d43871ec7d1691b2202000000000000225120a8242c96ada6a45e13094fad5219695b4def085b2f1510da2d43871ec7d1691b2202000000000000225120a8242c96ada6a45e13094fad5219695b4def085b2f1510da2d43871ec7d1691b2202000000000000225120a8242c96ada6a45e13094fad5219695b4def085b2f1510da2d43871ec7d1691b2202000000000000225120a8242c96ada6a45e13094fad5219695b4def085b2f1510da2d43871ec7d1691b2202000000000000225120a8242c96ada6a45e13094fad5219695b4def085b2f1510da2d43871ec7d1691b2202000000000000225120a8242c96ada6a45e13094fad5219695b4def085b2f1510da2d43871ec7d1691b2202000000000000225120a8242c96ada6a45e13094fad5219695b4def085b2f1510da2d43871ec7d1691b2202000000000000225120a8242c96ada6a45e13094fad5219695b4def085b2f1510da2d43871ec7d1691b2202000000000000225120a8242c96ada6a45e13094fad5219695b4def085b2f1510da2d43871ec7d1691b2202000000000000225120a8242c96ada6a45e13094fad5219695b4def085b2f1510da2d43871ec7d1691b18b91f0000000000225120be83080d8eb127f8814332ac4665cb11821f2970906455b3d89a44d60bdebe4900bd1f0000000000225120263c109048692ab978e35b331e8234ec89eaa62a9cbf96c47c737f833eba9ff730b51f00000000002251203c1ba13e6d8cd65f7e33fa55bc02d271fd538e33151f5fb858f40b918b4270ac00bd1f0000000000225120263c109048692ab978e35b331e8234ec89eaa62a9cbf96c47c737f833eba9ff7200b200000000000225120ab29a9996e6a8d668dfb29b2b9cce82c4d48706a44d3b1e5dffc11fd6172d65818b91f0000000000225120be83080d8eb127f8814332ac4665cb11821f2970906455b3d89a44d60bdebe4918b91f0000000000160014c54edb836f879b479e3d558c255324c321ec191a200b200000000000225120ab29a9996e6a8d668dfb29b2b9cce82c4d48706a44d3b1e5dffc11fd6172d65810e41f0000000000225120a803c9e049998c3a3e0d356ae9c99cc7929442c4645143bc67953a65769cc06b00bd1f0000000000225120263c109048692ab978e35b331e8234ec89eaa62a9cbf96c47c737f833eba9ff75802000000000000225120a8242c96ada6a45e13094fad5219695b4def085b2f1510da2d43871ec7d1691b5802000000000000225120a8242c96ada6a45e13094fad5219695b4def085b2f1510da2d43871ec7d1691b5802000000000000225120a8242c96ada6a45e13094fad5219695b4def085b2f1510da2d43871ec7d1691b5802000000000000225120a8242c96ada6a45e13094fad5219695b4def085b2f1510da2d43871ec7d1691b5802000000000000225120a8242c96ada6a45e13094fad5219695b4def085b2f1510da2d43871ec7d1691b5802000000000000225120a8242c96ada6a45e13094fad5219695b4def085b2f1510da2d43871ec7d1691b5802000000000000225120a8242c96ada6a45e13094fad5219695b4def085b2f1510da2d43871ec7d1691b5802000000000000225120a8242c96ada6a45e13094fad5219695b4def085b2f1510da2d43871ec7d1691b5802000000000000225120a8242c96ada6a45e13094fad5219695b4def085b2f1510da2d43871ec7d1691b5802000000000000225120a8242c96ada6a45e13094fad5219695b4def085b2f1510da2d43871ec7d1691b5802000000000000225120a8242c96ada6a45e13094fad5219695b4def085b2f1510da2d43871ec7d1691b65939c0400000000225120a8242c96ada6a45e13094fad5219695b4def085b2f1510da2d43871ec7d1691b0140bd1d8e1a12c0795486ecc0a437903938790e48d2cb7975fab4fdedf8e8974e82dee96da4019745181061dca8a5173bf1d457c401ae7f54b3c116ea2f1ca5023a01400d8c8355d4b1148546062b5a5a66fc77bd738bd0cb295f0f01bc4f2333f9529289be66780cab34d8cf413d734eb4972acfda1e2ac675b1638ccae5e5257185290140c09774e3d127bcbc992b0e920d025f0b8ba634fa33f8c57100dfb2e71007ce7b2333dd714d212dedb8a8be527ac21a93f957f7945b221c82a17535b1cb99569a014001c062e6d1d1e32f5b9624fc8e58333534f3ab41561ab7855c022b8e0ebd52700f1939fb82832902425a93d0d1e1e87e4f98be44bdc66f7f31bafd2ada9c7c2f0140cbb62c7d4fe9c0f72a906456cc7a4931739aed1786c3c00b534fb5a39baceca02fce652e949dcddd263e66f804ba1cda88afcb60961f7b3e16991f7eddf9a2c8014003162e8cb1d9b6fceb89a0a0a57b120d4c845899590af30a0e69797908febc6d551d3e8537f7772bbd19943be2d7c34d7a2331430fdfc7bc4be33c10678eb97a01400a9b5797e9a78fc5993ec5beff2f3689d40a234e9ae7fb799819b344b29c1bf5f38b6f9e680a7391d707dd8dd7abd686f27e8ccdb441ba1907399f215e65a2c401402b44c46a4adb10a775fda631184a688a43f1d10fb2620724c4dc445686afb2d52919dc3958c2bd0d5a9ff5bac76755c86a890478052532685eeb0de362b3183a0140e623ed927273990145a035bcb36893782a474b26e0d17b2d6d7674f315a9ccd0e985f09f4dec013c837362608354f58f4e00b92378cc12833695601291fdfce101405ec07b6b15ffbf6b0501cdcd70d8fb26e391eb5e4920d2e42d6af8db83a52f442edfc6f1e23dd92d32f4db59587b8c957cb41cb2851f4fbd7cc779cbe2840f720140a556470c644543c518f627a2730ce9ca1b616deab0957aa965ef37c77420c90dc54a1a809a6b51a106e889f6b1c7e850628bcf9ccb9a7d3d80afc02625a0198801413ee2804a2a03d2931cca888f0f0a8e77973042ff9c3760505ca4ff164c1634ab8dda829d1c375b9789969035ea6cc7eaa397cb3f76eaa14c9ba84bc67609c1988301415b0138912466afb83d5d54fa633b51c9e8e58027e3f762cf327a108995f3c7f8e9367ac723694ea601fcc33cfe841bfca710a88d1b05e36e5ad3e6d2d8fc5773830141eff8a86be17fc5b481eea0a7a6da1c4e9e13842e7d9e243296c33b107f4fbd8c48fe98b31915d105cd861a075722a384bc386d16d93e6d7eedefc9500585e711830141b726e0b076a5ce0ead6cf77f1c41bdf0c292b7485beb949a429cade101726f37978950d321f08f6e90edf29a5ee191b233dfa6682427a05333300ffd2fe6074c830141d07e7f592d45f3af4c928ae02e207c140103af86ddca25d124605049a9b3e3a9ed91e890c14f664a6bd35be8409824dbf0b6eb21f1c8d41fe6cad0859097e813830141c8d10aa859c544799f1d3296fb0d6ede9e00efd9b40ac28dcb80ee827c551268469ff3f1cd8deb711014da0fd547a94a6d4f4f26c17a4a7554f1a41c76e9e8608302483045022100f9edcba5d51f18f458e7c2b39fa95fe98a1e579c1c659c12f3865c1d8eb5132f022061d8ca7650fcb1b3a73de348541a78476bfdef228b0ebb0d89b5b23202db30e6832102b7735e85dbcea500485118c0e8edb3bed81ea80caf162c7a5be3bcfabff697ef0141bcf348af2277fd941c8f7dd5f79ff76c569777bc1e30a29df91b202d592c6bc5bceb5f6dae94c8f43654a632fc5334b4ec3278339e14c2994db32aadb986df6083014150cbf81501357a284a0a0585b33470421eca4b539b4eb6e3e335484fd781886bbc4338643ab42e7f380e154ed074493fc899906bb908aa8cddef0c10b8df31798301410542d4dfbf9f0e8b5c71c4834f9fbff55d10fb66ab272a9d646571813fb9a31b9e96538fd3e24c044cf68503ceb791a254d91d4fe7f37670a75aadef81f8fc228301409be7747de0a8b4cb335384684c2a6bfa16751e33c485082b01f3a5735f4642b0bde085e307f018f7193911a124dd30d803b9509496d3095fb80830b64080c71c00000000"
}