{
  "txid": "59b8d543c4e3ab3dccbdc5afac4d11f6ea9e10569996f71c0a69bffa4a379cb6",
  "version": 2,
  "locktime": 0,
  "vin": [
    {
      "txid": "32fb81a29282d1a1fe5fc37b3105dde0dd499c535a57093992928209466ba721",
      "vout": 0,
      "prevout": {
        "scriptpubkey": "0014403bfd7e2277d8925ec83219caf65cd3420054d5",
        "scriptpubkey_asm": "OP_0 OP_PUSHBYTES_20 403bfd7e2277d8925ec83219caf65cd3420054d5",
        "scriptpubkey_type": "v0_p2wpkh",
        "scriptpubkey_address": "bc1qgqal6l3zwlvfyhkgxgvu4aju6dpqq4x4xj7rfe",
        "value": 1095921
      },
      "scriptsig": "",
      "scriptsig_asm": "",
      "witness": [
        "3045022100f97392902b5e6f8a0326026fd29bd3f0ec77383c34d28e6863555f8bf4abf1ce0220604fa92402163e1ab327db6e367dd81b6536ff31444a99331af659753e62c54f01",
        "0321c709d63003396543e033e6c2854cef1bf2e51913431861cbf0936b3a009294"
      ],
      "is_coinbase": false,
      "sequence": 4294967293
    }
  ],
  "vout": [
    {
      "scriptpubkey": "76a91436b069b4f974020dbde03302f6e806c1089ddf6288ac",
      "scriptpubkey_asm": "OP_DUP OP_HASH160 OP_PUSHBYTES_20 36b069b4f974020dbde03302f6e806c1089ddf62 OP_EQUALVERIFY OP_CHECKSIG",
      "scriptpubkey_type": "p2pkh",
      "scriptpubkey_address": "15zApk7JAdGH78XpQMAjJnD6kpvira4jXu",
      "value": 1094701
    }
  ],
  "size": 195,
  "weight": 450,
  "fee": 1220,
  "status": {
    "confirmed": true,
    "block_height": 834464,
    "block_hash": "0000000000000000000177a0869a911a2b65c9bdcd5a8bcb02b68f305bee848e",
    "block_time": 1710308296
  },
  "hex": "0200000000010121a76b46098292923909575a539c49dde0dd05317bc35ffea1d18292a281fb320000000000fdffffff012db41000000000001976a91436b069b4f974020dbde03302f6e806c1089ddf6288ac02483045022100f97392902b5e6f8a0326026fd29bd3f0ec77383c34d28e6863555f8bf4abf1ce0220604fa92402163e1ab327db6e367dd81b6536ff31444a99331af659753e62c54f01210321c709d63003396543e033e6c2854cef1bf2e51913431861cbf0936b3a00929400000000"
}