{
  "txid": "59cda35f306894e1b6e9a4b427ef92d6bfd624fcd19e95c6740fb7cc5ce60a72",
  "version": 1,
  "locktime": 0,
  "vin": [
    {
      "txid": "2bd47d0c8947dc44d858226c4def55dda2e2b3475e0969d34cbdf3830f1a9eda",
      "vout": 1,
      "prevout": {
        "scriptpubkey": "00145e9d91bb6cdff6d1d74bbf3a229ace6cd737a7fb",
        "scriptpubkey_asm": "OP_0 OP_PUSHBYTES_20 5e9d91bb6cdff6d1d74bbf3a229ace6cd737a7fb",
        "scriptpubkey_type": "v0_p2wpkh",
        "scriptpubkey_address": "bc1qt6werwmvmlmdr46thuaz9xkwdntn0flm370wv7",
        "value": 2090236167
      },
      "scriptsig": "",
      "scriptsig_asm": "",
      "witness": [
        "3045022100b19a5bdf7cfdf47729a356948e86a8419c131a032da60f481d00d2b433535bae022024e20ba4c81f6841c451bab382b7290a20220ec14f90f579d14477d05d41410b01",
        "03bf03167f89c3b904f59b62966d6f75e03c95d6d1a8aa48209017940608970284"
      ],
      "is_coinbase": false,
      "sequence": 4294967293
    }
  ],
  "vout": [
    {
      "scriptpubkey": "a9140665e4babb8675e8eb1e4f8e9ffd67feb5d0429387",
      "scriptpubkey_asm": "OP_HASH160 OP_PUSHBYTES_20 0665e4babb8675e8eb1e4f8e9ffd67feb5d04293 OP_EQUAL",
      "scriptpubkey_type": "p2sh",
      "scriptpubkey_address": "32Gr3Nqz3H2uWbJeutzBxC1me4Dm3Rtoz1",
      "value": 100000
    },
    {
      "scriptpubkey": "00142099b785f1314b332575d8750802f8dac9b29998",
      "scriptpubkey_asm": "OP_0 OP_PUSHBYTES_20 2099b785f1314b332575d8750802f8dac9b29998",
      "scriptpubkey_type": "v0_p2wpkh",
      "scriptpubkey_address": "bc1qyzvm0p03x99nxft4mp6ssqhcmtym9xvcwncvxa",
      "value": 2090132334
    }
  ],
  "size": 224,
  "weight": 566,
  "fee": 3833,
  "status": {
    "confirmed": true,
    "block_height": 834638,
    "block_hash": "000000000000000000025f742c626208ac87e0b7d15054abb4a19ca2d735a54e",
    "block_time": 1710405325
  },
  "hex": "01000000000101da9e1a0f83f3bd4cd369095e47b3e2a2dd55ef4d6c2258d844dc47890c7dd42b0100000000fdffffff02a08601000000000017a9140665e4babb8675e8eb1e4f8e9ffd67feb5d04293876ee3947c000000001600142099b785f1314b332575d8750802f8dac9b2999802483045022100b19a5bdf7cfdf47729a356948e86a8419c131a032da60f481d00d2b433535bae022024e20ba4c81f6841c451bab382b7290a20220ec14f90f579d14477d05d41410b012103bf03167f89c3b904f59b62966d6f75e03c95d6d1a8aa4820901794060897028400000000"
}