{
  "txid": "59e09faf72796071cef91de471f2b1e50945b798ee76085efc08aad6834b9265",
  "version": 1,
  "locktime": 0,
  "vin": [
    {
      "txid": "8d451fb445bb6051c9f1e218d171d915f2387deb8399b14821877d4a6e386a55",
      "vout": 1,
      "prevout": {
        "scriptpubkey": "76a9148cb7edbac7873f2322f61918a4d7be791ba3533988ac",
        "scriptpubkey_asm": "OP_DUP OP_HASH160 OP_PUSHBYTES_20 8cb7edbac7873f2322f61918a4d7be791ba35339 OP_EQUALVERIFY OP_CHECKSIG",
        "scriptpubkey_type": "p2pkh",
        "scriptpubkey_address": "1Dq3wScYg375VnC6C4aKsTDbkq5sUXTSas",
        "value": 7670
      },
      "scriptsig": "483045022100d4c2d9dd4b92af038429cede01e6c18ec35529bc9a7f892a94d6c0059ecb4cca0220537d2b199a8d10709ba4c15eaf56b921951d855b528dde3f246db59743f3c1db01210282a40e43df505d71518121a3daf0de02460c37a90d391c7182000233e9e591d4",
      "scriptsig_asm": "OP_PUSHBYTES_72 3045022100d4c2d9dd4b92af038429cede01e6c18ec35529bc9a7f892a94d6c0059ecb4cca0220537d2b199a8d10709ba4c15eaf56b921951d855b528dde3f246db59743f3c1db01 OP_PUSHBYTES_33 0282a40e43df505d71518121a3daf0de02460c37a90d391c7182000233e9e591d4",
      "is_coinbase": false,
      "sequence": 4294967295
    }
  ],
  "vout": [
    {
      "scriptpubkey": "a91407dfb90d2a3959eb73e922c715586da69be048c187",
      "scriptpubkey_asm": "OP_HASH160 OP_PUSHBYTES_20 07dfb90d2a3959eb73e922c715586da69be048c1 OP_EQUAL",
      "scriptpubkey_type": "p2sh",
      "scriptpubkey_address": "32QefRVsw3LU3GkjeSvK5ymW8mMitbdbTc",
      "value": 1000
    },
    {
      "scriptpubkey": "76a9148cb7edbac7873f2322f61918a4d7be791ba3533988ac",
      "scriptpubkey_asm": "OP_DUP OP_HASH160 OP_PUSHBYTES_20 8cb7edbac7873f2322f61918a4d7be791ba35339 OP_EQUALVERIFY OP_CHECKSIG",
      "scriptpubkey_type": "p2pkh",
      "scriptpubkey_address": "1Dq3wScYg375VnC6C4aKsTDbkq5sUXTSas",
      "value": 5670
    }
  ],
  "size": 224,
  "weight": 896,
  "fee": 1000,
  "status": {
    "confirmed": true,
    "block_height": 834464,
    "block_hash": "0000000000000000000177a0869a911a2b65c9bdcd5a8bcb02b68f305bee848e",
    "block_time": 1710308296
  },
  "hex": "0100000001556a386e4a7d872148b19983eb7d38f215d971d118e2f1c95160bb45b41f458d010000006b483045022100d4c2d9dd4b92af038429cede01e6c18ec35529bc9a7f892a94d6c0059ecb4cca0220537d2b199a8d10709ba4c15eaf56b921951d855b528dde3f246db59743f3c1db01210282a40e43df505d71518121a3daf0de02460c37a90d391c7182000233e9e591d4ffffffff02e80300000000000017a91407dfb90d2a3959eb73e922c715586da69be048c18726160000000000001976a9148cb7edbac7873f2322f61918a4d7be791ba3533988ac00000000"
}