{
  "txid": "59e6e8185a2ec697cc254fe507d4381badfd130081ec27e382437fde1b96e7b2",
  "version": 2,
  "locktime": 0,
  "vin": [
    {
      "txid": "d18ed70056c00a6cd5de0ccb10b1ae8f7dd5250f9d0f22c727aba826d03302c8",
      "vout": 13,
      "prevout": {
        "scriptpubkey": "512078c7130b091819aad35141f8849f97a3242886527c9e0975131176d516f7f05e",
        "scriptpubkey_asm": "OP_PUSHNUM_1 OP_PUSHBYTES_32 78c7130b091819aad35141f8849f97a3242886527c9e0975131176d516f7f05e",
        "scriptpubkey_type": "v1_p2tr",
        "scriptpubkey_address": "bc1p0rr3xzcfrqv64563g8ugf8uh5vjz3pjj0j0qjagnz9md29hh7p0qunlkpw",
        "value": 3010
      },
      "scriptsig": "",
      "scriptsig_asm": "",
      "witness": [
        "8186fe8e01f37c44079acf041d13dc0c2667586c341943520b7c6a70145c1626f5c521f078367fa28dfb3caf4cc5e773ef8ba8b82f18e90e38d310c0adf561e5",
        "2050ebba73f58e5352e313522290c236fd03bbb06322cd15b8b537d2a094f8c24fac0063036f726401011e6170706c69636174696f6e2f6a736f6e3b636861727365743d7574662d38004cbf7b2270223a22706f772d3230222c226f70223a226d696e74222c227469636b223a2250455045222c22616d74223a2231303030222c22736f6c7574696f6e223a22504550453a6263317168337833756334707a796478716436757776376e3732676874787a33753937306564663078613a303030303030303030303030303030303030303139393431613561653132383937363539383134343239323533333030353762306461393666336465613163353a3335303032383237363533227d68",
        "c0e5c6b8d70510d88b341fcdd9a2aa08913e89d9e736480c530fde3fe13419cdab"
      ],
      "is_coinbase": false,
      "sequence": 4294967295
    }
  ],
  "vout": [
    {
      "scriptpubkey": "0014bc4d1e62a1111a60375c733d3f291759851e17cf",
      "scriptpubkey_asm": "OP_0 OP_PUSHBYTES_20 bc4d1e62a1111a60375c733d3f291759851e17cf",
      "scriptpubkey_type": "v0_p2wpkh",
      "scriptpubkey_address": "bc1qh3x3uc4pzydxqd6uwv7n72ghtxz3u970edf0xa",
      "value": 546
    }
  ],
  "size": 455,
  "weight": 701,
  "fee": 2464,
  "status": {
    "confirmed": true,
    "block_height": 834460,
    "block_hash": "00000000000000000000484a79b643b2524bbce82e5d8a442013fa5b8905ed98",
    "block_time": 1710307468
  },
  "hex": "02000000000101c80233d026a8ab27c7220f9d0f25d57d8faeb110cb0cded56c0ac05600d78ed10d00000000ffffffff012202000000000000160014bc4d1e62a1111a60375c733d3f291759851e17cf03408186fe8e01f37c44079acf041d13dc0c2667586c341943520b7c6a70145c1626f5c521f078367fa28dfb3caf4cc5e773ef8ba8b82f18e90e38d310c0adf561e5fd0c012050ebba73f58e5352e313522290c236fd03bbb06322cd15b8b537d2a094f8c24fac0063036f726401011e6170706c69636174696f6e2f6a736f6e3b636861727365743d7574662d38004cbf7b2270223a22706f772d3230222c226f70223a226d696e74222c227469636b223a2250455045222c22616d74223a2231303030222c22736f6c7574696f6e223a22504550453a6263317168337833756334707a796478716436757776376e3732676874787a33753937306564663078613a303030303030303030303030303030303030303139393431613561653132383937363539383134343239323533333030353762306461393666336465613163353a3335303032383237363533227d6821c0e5c6b8d70510d88b341fcdd9a2aa08913e89d9e736480c530fde3fe13419cdab00000000"
}