{
  "txid": "59e6c30bd72a3104d733fb2d197dc911f020b6e096d461b0da9af0a32c0f33f1",
  "version": 1,
  "locktime": 0,
  "vin": [
    {
      "txid": "5fa8ae89ef4c80b697bdaba27f9e5a976c710786d189f318d34c8f7eaea5d1fe",
      "vout": 1,
      "prevout": {
        "scriptpubkey": "76a914e6d93f922e32ece6dae2c489521577d1cee6fdfc88ac",
        "scriptpubkey_asm": "OP_DUP OP_HASH160 OP_PUSHBYTES_20 e6d93f922e32ece6dae2c489521577d1cee6fdfc OP_EQUALVERIFY OP_CHECKSIG",
        "scriptpubkey_type": "p2pkh",
        "scriptpubkey_address": "1N3cfoMVd9apnmxQecgWUoqbqn2tvqQmSq",
        "value": 25273
      },
      "scriptsig": "4830450221008b77d755483c22a14a1e3b38b80a1e51591f589bdd2649caa8cfe5a6f3f8f0c102202fdedfd4313c0906c5a26f42923c6b395348fba58687647d4f23a505d790c1300121020f8f088afb8a85a7e0a65d954bed945fc002055b8d6f3ba02fff1c86dc7067b7",
      "scriptsig_asm": "OP_PUSHBYTES_72 30450221008b77d755483c22a14a1e3b38b80a1e51591f589bdd2649caa8cfe5a6f3f8f0c102202fdedfd4313c0906c5a26f42923c6b395348fba58687647d4f23a505d790c13001 OP_PUSHBYTES_33 020f8f088afb8a85a7e0a65d954bed945fc002055b8d6f3ba02fff1c86dc7067b7",
      "is_coinbase": false,
      "sequence": 4294967295
    }
  ],
  "vout": [
    {
      "scriptpubkey": "76a914c6e1fad65dfe4efa9cc5a1e5b528ddc0a58d2bab88ac",
      "scriptpubkey_asm": "OP_DUP OP_HASH160 OP_PUSHBYTES_20 c6e1fad65dfe4efa9cc5a1e5b528ddc0a58d2bab OP_EQUALVERIFY OP_CHECKSIG",
      "scriptpubkey_type": "p2pkh",
      "scriptpubkey_address": "1K8bWLX3THs3KaRTYHsyXLFiLYNNKiTVtx",
      "value": 21563
    }
  ],
  "size": 192,
  "weight": 768,
  "fee": 3710,
  "status": {
    "confirmed": true,
    "block_height": 834638,
    "block_hash": "000000000000000000025f742c626208ac87e0b7d15054abb4a19ca2d735a54e",
    "block_time": 1710405325
  },
  "hex": "0100000001fed1a5ae7e8f4cd318f389d18607716c975a9e7fa2abbd97b6804cef89aea85f010000006b4830450221008b77d755483c22a14a1e3b38b80a1e51591f589bdd2649caa8cfe5a6f3f8f0c102202fdedfd4313c0906c5a26f42923c6b395348fba58687647d4f23a505d790c1300121020f8f088afb8a85a7e0a65d954bed945fc002055b8d6f3ba02fff1c86dc7067b7ffffffff013b540000000000001976a914c6e1fad65dfe4efa9cc5a1e5b528ddc0a58d2bab88ac00000000"
}