{
  "txid": "5a1f2617b4c599f5c6754331b30448e8c40e6a4678a7db59c265a0e6e6b33604",
  "version": 2,
  "locktime": 834637,
  "vin": [
    {
      "txid": "9703993c9f792b3249dfa34ff79486aac0c5ab93d242cbc99fe7c29648a1519d",
      "vout": 19,
      "prevout": {
        "scriptpubkey": "0014ce94b20cad71f22457ac3b69d10271714e0f2e78",
        "scriptpubkey_asm": "OP_0 OP_PUSHBYTES_20 ce94b20cad71f22457ac3b69d10271714e0f2e78",
        "scriptpubkey_type": "v0_p2wpkh",
        "scriptpubkey_address": "bc1qe62tyr9dw8ezg4av8d5azqn3w98q7tnctrwcvs",
        "value": 381700
      },
      "scriptsig": "",
      "scriptsig_asm": "",
      "witness": [
        "304402200f4a4efcb23f4257161928aa384f4d088fe2d6ef07db33700a107a82354350b40220162300fa66fae5bda1f184dc3b0eb5abc1bb531dea0d431cf6981f99ac70146201",
        "0357dd891949b8c92ad5e4802b11b4685e985d1d9abc7816c9f629782158e522f2"
      ],
      "is_coinbase": false,
      "sequence": 4294967293
    }
  ],
  "vout": [
    {
      "scriptpubkey": "0014c3f0446c20163f8bf338aea7db72b637ce23ff0f",
      "scriptpubkey_asm": "OP_0 OP_PUSHBYTES_20 c3f0446c20163f8bf338aea7db72b637ce23ff0f",
      "scriptpubkey_type": "v0_p2wpkh",
      "scriptpubkey_address": "bc1qc0cygmpqzclchuec46naku4kxl8z8lc0r3cn5e",
      "value": 3817
    },
    {
      "scriptpubkey": "001488cdab0f5bbf06ff320ce8a16aab0100992007ec",
      "scriptpubkey_asm": "OP_0 OP_PUSHBYTES_20 88cdab0f5bbf06ff320ce8a16aab0100992007ec",
      "scriptpubkey_type": "v0_p2wpkh",
      "scriptpubkey_address": "bc1q3rx6kr6mhur07vsvazsk42cpqzvjqplvdcrxyx",
      "value": 370833
    }
  ],
  "size": 222,
  "weight": 561,
  "fee": 7050,
  "status": {
    "confirmed": true,
    "block_height": 834638,
    "block_hash": "000000000000000000025f742c626208ac87e0b7d15054abb4a19ca2d735a54e",
    "block_time": 1710405325
  },
  "hex": "020000000001019d51a14896c2e79fc9cb42d293abc5c0aa8694f74fa3df49322b799f3c9903971300000000fdffffff02e90e000000000000160014c3f0446c20163f8bf338aea7db72b637ce23ff0f91a805000000000016001488cdab0f5bbf06ff320ce8a16aab0100992007ec0247304402200f4a4efcb23f4257161928aa384f4d088fe2d6ef07db33700a107a82354350b40220162300fa66fae5bda1f184dc3b0eb5abc1bb531dea0d431cf6981f99ac70146201210357dd891949b8c92ad5e4802b11b4685e985d1d9abc7816c9f629782158e522f24dbc0c00"
}