{
  "txid": "5a32fc52360d43ba7764ca33a5692945ddcb11b7f4e6b2092e439fdef23d7b15",
  "version": 2,
  "locktime": 834637,
  "vin": [
    {
      "txid": "a80f68d30b4ed14f6f24461cf9ef99799d651e8af9c9bb218f343449e555ca74",
      "vout": 0,
      "prevout": {
        "scriptpubkey": "001444dcc4f1919c1921d59d362587af309798b26873",
        "scriptpubkey_asm": "OP_0 OP_PUSHBYTES_20 44dcc4f1919c1921d59d362587af309798b26873",
        "scriptpubkey_type": "v0_p2wpkh",
        "scriptpubkey_address": "bc1qgnwvfuv3nsvjr4vaxcjc0tesj7vty6rnswvy9v",
        "value": 284435044
      },
      "scriptsig": "",
      "scriptsig_asm": "",
      "witness": [
        "3044022064efcf4ada311daff6a7ee451743b66dfb770cf25c1c96a6d52e513f91c060d8022072c7edc55efcb0469b72fef25feafe636ec97b408a988ac47c87d1184562366101",
        "0371991a1fd04701f29b4a2e52e01452b81083eed96605687d6e91bb5c2a6245f6"
      ],
      "is_coinbase": false,
      "sequence": 4294967294
    }
  ],
  "vout": [
    {
      "scriptpubkey": "00140a35eb3115b38336895a43128860a8baf4b626ca",
      "scriptpubkey_asm": "OP_0 OP_PUSHBYTES_20 0a35eb3115b38336895a43128860a8baf4b626ca",
      "scriptpubkey_type": "v0_p2wpkh",
      "scriptpubkey_address": "bc1qpg67kvg4kwpndz26gvfgsc9ght6tvfk25sgqr8",
      "value": 283880764
    },
    {
      "scriptpubkey": "a91435adf985399cd9dae0d43f5fdb6503fae3fd410887",
      "scriptpubkey_asm": "OP_HASH160 OP_PUSHBYTES_20 35adf985399cd9dae0d43f5fdb6503fae3fd4108 OP_EQUAL",
      "scriptpubkey_type": "p2sh",
      "scriptpubkey_address": "36ar9gdW8icjewsMgn63CqsAUGwwudFPgm",
      "value": 550800
    }
  ],
  "size": 223,
  "weight": 565,
  "fee": 3480,
  "status": {
    "confirmed": true,
    "block_height": 834638,
    "block_hash": "000000000000000000025f742c626208ac87e0b7d15054abb4a19ca2d735a54e",
    "block_time": 1710405325
  },
  "hex": "0200000000010174ca55e54934348f21bbc9f98a1e659d7999eff91c46246f4fd14e0bd3680fa80000000000feffffff023cadeb10000000001600140a35eb3115b38336895a43128860a8baf4b626ca906708000000000017a91435adf985399cd9dae0d43f5fdb6503fae3fd41088702473044022064efcf4ada311daff6a7ee451743b66dfb770cf25c1c96a6d52e513f91c060d8022072c7edc55efcb0469b72fef25feafe636ec97b408a988ac47c87d1184562366101210371991a1fd04701f29b4a2e52e01452b81083eed96605687d6e91bb5c2a6245f64dbc0c00"
}