{
  "txid": "5a348cf64337e899ee417bb07ac674a1cbca1c98f6064fb445ea3ea15133bc9c",
  "version": 2,
  "locktime": 834458,
  "vin": [
    {
      "txid": "cc2ddb6515097d96c11f112eaaec28041fd04a6405110eb2b7118cc04eddd921",
      "vout": 1,
      "prevout": {
        "scriptpubkey": "a91462fa859893a407766c3c54c32496e2c9be00c00287",
        "scriptpubkey_asm": "OP_HASH160 OP_PUSHBYTES_20 62fa859893a407766c3c54c32496e2c9be00c002 OP_EQUAL",
        "scriptpubkey_type": "p2sh",
        "scriptpubkey_address": "3AiNFuZgN9E2j1eMtVptLFCnRPVhu8zscX",
        "value": 1571907
      },
      "scriptsig": "220020769686a906419f2b94c961e223b5b46f9aa815426d4a005c9b439f50c9428708",
      "scriptsig_asm": "OP_PUSHBYTES_34 0020769686a906419f2b94c961e223b5b46f9aa815426d4a005c9b439f50c9428708",
      "witness": [
        "304402204360205cb8d1ea4614ea9621907cc3961183703e73176eb86c1158367f2e1fd302203d127ce96540b3009113179f117dc5ba63e92ebc1ffafcb6ca58123021484eed01",
        "3044022018228b70944cce54885f232760d44c096fbd89eff5392d459e85aebde67ac3cc02201131aac511e164fb40b9510430c9ee355ff603360efd2c9ae6f6430ce159281901",
        "210358c5f31584089c3c6f16b2603fa3f10cdba2feb10e003a73a6eac59e0555fca5ad21029dbeafcd91763a030b5f0a86aafe2bfcee29ed533dce565ed528bd3ca36a24d2ac73640380ca00b268"
      ],
      "is_coinbase": false,
      "sequence": 4294967293,
      "inner_redeemscript_asm": "OP_0 OP_PUSHBYTES_32 769686a906419f2b94c961e223b5b46f9aa815426d4a005c9b439f50c9428708",
      "inner_witnessscript_asm": "OP_PUSHBYTES_33 0358c5f31584089c3c6f16b2603fa3f10cdba2feb10e003a73a6eac59e0555fca5 OP_CHECKSIGVERIFY OP_PUSHBYTES_33 029dbeafcd91763a030b5f0a86aafe2bfcee29ed533dce565ed528bd3ca36a24d2 OP_CHECKSIG OP_IFDUP OP_NOTIF OP_PUSHBYTES_3 80ca00 OP_CSV OP_ENDIF"
    },
    {
      "txid": "bc7c064ae8503e80af4a9bf3b8499e178d3dd163f5d9e8e03b5607478c7e3099",
      "vout": 1,
      "prevout": {
        "scriptpubkey": "a914a1f45b5e07d7748ec4319cc5022eb98d5b10fa6387",
        "scriptpubkey_asm": "OP_HASH160 OP_PUSHBYTES_20 a1f45b5e07d7748ec4319cc5022eb98d5b10fa63 OP_EQUAL",
        "scriptpubkey_type": "p2sh",
        "scriptpubkey_address": "3GTMSeHrWNpZ7BqZEteKY3UcN6orSVsTdB",
        "value": 12936728
      },
      "scriptsig": "220020443c9d0157d7303b28ed56981838b92501b5686dcfcb4a496a2cfd03eee33017",
      "scriptsig_asm": "OP_PUSHBYTES_34 0020443c9d0157d7303b28ed56981838b92501b5686dcfcb4a496a2cfd03eee33017",
      "witness": [
        "30440220635ed74ccdabfc5591f0f6e2f31f6d8d9dae43ce5fbc8ba05558848aa3cb166c022062f3c83512968fd666e044bdf311ec1887aa06fb83df9e30c805b10b4da0767d01",
        "304402204aa5f8073b16857bdb649c9298a4ab53fc8c5fb8b86db7a63ee784a2fdc35b30022071dc84f2ad2fc58dccc820b9df88dd497ff2ba9aaf0baadec42a676e19252dcc01",
        "21025ada92d93c32074dd2cffe863149a41b6295334f2347fc19429925fdf19ee513ad2103f889c6e94bab87479c2fcf574c81d7330e4f3a3377e187d64ddf68c7d8fe6739ac73640380ca00b268"
      ],
      "is_coinbase": false,
      "sequence": 4294967293,
      "inner_redeemscript_asm": "OP_0 OP_PUSHBYTES_32 443c9d0157d7303b28ed56981838b92501b5686dcfcb4a496a2cfd03eee33017",
      "inner_witnessscript_asm": "OP_PUSHBYTES_33 025ada92d93c32074dd2cffe863149a41b6295334f2347fc19429925fdf19ee513 OP_CHECKSIGVERIFY OP_PUSHBYTES_33 03f889c6e94bab87479c2fcf574c81d7330e4f3a3377e187d64ddf68c7d8fe6739 OP_CHECKSIG OP_IFDUP OP_NOTIF OP_PUSHBYTES_3 80ca00 OP_CSV OP_ENDIF"
    },
    {
      "txid": "44229bfa580ae8ca7b44d714070bba4e4cfc46521be082cc0690f931a8141529",
      "vout": 0,
      "prevout": {
        "scriptpubkey": "a9148f60dbbe779ed9c399183411f438090926d45ead87",
        "scriptpubkey_asm": "OP_HASH160 OP_PUSHBYTES_20 8f60dbbe779ed9c399183411f438090926d45ead OP_EQUAL",
        "scriptpubkey_type": "p2sh",
        "scriptpubkey_address": "3Em8ap8Ugsf8iUJjR4HL6W699XmqRi2hHF",
        "value": 16348798
      },
      "scriptsig": "220020680b2f6e57a1ebac1cd3bc410cf9ed4263518dc4f2e1c21501d28311474320c4",
      "scriptsig_asm": "OP_PUSHBYTES_34 0020680b2f6e57a1ebac1cd3bc410cf9ed4263518dc4f2e1c21501d28311474320c4",
      "witness": [
        "3044022014ffaa3264a6875588f0626f10fba78e1965e059eeeefa24b25965add51f77f402207cb96994bf2ad7ddf018faf2f73435945621679fed4cf6ae6027557bbd577ee001",
        "30440220242871dd2f9c1fec9665ad419d554a25a37a933efdfc601fefafa29d9c421e7502205a3ead9a561dc34bbfedfaeb43d8ab92682a76df046a603aaf5c8edd91ff895201",
        "21035965909eb2925cefe763a49829b24e372984074e4ba50cb452c45fe947280eb6ad210273eaf2afc7b55bc8644a25be07773a8472203e15d524d718f3550f01d957db8cac73640380ca00b268"
      ],
      "is_coinbase": false,
      "sequence": 4294967293,
      "inner_redeemscript_asm": "OP_0 OP_PUSHBYTES_32 680b2f6e57a1ebac1cd3bc410cf9ed4263518dc4f2e1c21501d28311474320c4",
      "inner_witnessscript_asm": "OP_PUSHBYTES_33 035965909eb2925cefe763a49829b24e372984074e4ba50cb452c45fe947280eb6 OP_CHECKSIGVERIFY OP_PUSHBYTES_33 0273eaf2afc7b55bc8644a25be07773a8472203e15d524d718f3550f01d957db8c OP_CHECKSIG OP_IFDUP OP_NOTIF OP_PUSHBYTES_3 80ca00 OP_CSV OP_ENDIF"
    },
    {
      "txid": "cd8cd23ca7fe65f4943fc0939f93a7ec4bf30524ad7b7521c4fb99f38dc9fa64",
      "vout": 18,
      "prevout": {
        "scriptpubkey": "a914e6db7a285a1235bb6ed27a5149204f4a6d52d63487",
        "scriptpubkey_asm": "OP_HASH160 OP_PUSHBYTES_20 e6db7a285a1235bb6ed27a5149204f4a6d52d634 OP_EQUAL",
        "scriptpubkey_type": "p2sh",
        "scriptpubkey_address": "3NjgGCvhhVrmjAvsB8AYhCDWgsHpJLvrGh",
        "value": 2965731
      },
      "scriptsig": "2200205c47a761766cf03db1b0b602c8546906181c6485b532969c9472eb55c68756a3",
      "scriptsig_asm": "OP_PUSHBYTES_34 00205c47a761766cf03db1b0b602c8546906181c6485b532969c9472eb55c68756a3",
      "witness": [
        "3044022000f7002e18039194f1821fb6000105ef00ca5f3f15e2cb2d17f53d41af8ebbba022017699eab0793672ab710d35bffeb8faaa377d022aded2b7e2b009ff6b131038801",
        "304402202c585d2421b108534c08fbd2c20c9cba26ec2cde95011650536b5c8c7d25907502206765764d6f5cfda2969b01cccd83839ac98347ff85f0afceffde16c10db4280d01",
        "2103cc36b7c7f030f99db840a2ad0dc50827ffa0c6e5277e7a0465014775f7b62f32ad2102b58554b04909c3b684ef7fb5ad4e8a88aacf8b18e7b50851ea0f2b8326de1836ac73640380ca00b268"
      ],
      "is_coinbase": false,
      "sequence": 4294967293,
      "inner_redeemscript_asm": "OP_0 OP_PUSHBYTES_32 5c47a761766cf03db1b0b602c8546906181c6485b532969c9472eb55c68756a3",
      "inner_witnessscript_asm": "OP_PUSHBYTES_33 03cc36b7c7f030f99db840a2ad0dc50827ffa0c6e5277e7a0465014775f7b62f32 OP_CHECKSIGVERIFY OP_PUSHBYTES_33 02b58554b04909c3b684ef7fb5ad4e8a88aacf8b18e7b50851ea0f2b8326de1836 OP_CHECKSIG OP_IFDUP OP_NOTIF OP_PUSHBYTES_3 80ca00 OP_CSV OP_ENDIF"
    },
    {
      "txid": "e0edb21d2a86c886fad9d79f4f4a28bfef4a026e40c6b09611b8ec394edd1bd1",
      "vout": 1,
      "prevout": {
        "scriptpubkey": "a914e62082a19f017ea7172ab459d999467a10a7c65887",
        "scriptpubkey_asm": "OP_HASH160 OP_PUSHBYTES_20 e62082a19f017ea7172ab459d999467a10a7c658 OP_EQUAL",
        "scriptpubkey_type": "p2sh",
        "scriptpubkey_address": "3NfpHX2XLCjEXPyixyWfWvsTiY4tgLJbWU",
        "value": 3044541
      },
      "scriptsig": "220020baa41a422f8232b10ca1bc3af84c286fe045656469c1451b4fd3d241451141e6",
      "scriptsig_asm": "OP_PUSHBYTES_34 0020baa41a422f8232b10ca1bc3af84c286fe045656469c1451b4fd3d241451141e6",
      "witness": [
        "304402204a471dd081e0ab2b7140c52707d359a9353d9be38bda9744fe64006625cbfa5702206430a5dadf7ed938dbc8bbdba5121d4bb3f58399ca69fde06a6ab29d96629f1b01",
        "3044022065c12dc30615b82e5cd693ae5978d32ab1ea70441b2f9cbed5d65739cc38d1620220306ae4ebd935fafae5daa53ed5e358b3152b23f5f8fa1948085e63d04dc03ff501",
        "21029f2fae5b1cefca052a26567e976d4df3122eeab12402471f5ef2c8d31b242ee6ad21038c9558578560eb4d703869a37e79dabf2ac0cac9dd844d3642e303a356a6f174ac73640380ca00b268"
      ],
      "is_coinbase": false,
      "sequence": 4294967293,
      "inner_redeemscript_asm": "OP_0 OP_PUSHBYTES_32 baa41a422f8232b10ca1bc3af84c286fe045656469c1451b4fd3d241451141e6",
      "inner_witnessscript_asm": "OP_PUSHBYTES_33 029f2fae5b1cefca052a26567e976d4df3122eeab12402471f5ef2c8d31b242ee6 OP_CHECKSIGVERIFY OP_PUSHBYTES_33 038c9558578560eb4d703869a37e79dabf2ac0cac9dd844d3642e303a356a6f174 OP_CHECKSIG OP_IFDUP OP_NOTIF OP_PUSHBYTES_3 80ca00 OP_CSV OP_ENDIF"
    },
    {
      "txid": "c96779ac2acdbffc45f5cd903bf77ff681a578a98074c869445c5f429e4951c9",
      "vout": 1,
      "prevout": {
        "scriptpubkey": "a914b171452317b123dd0414d3bbbf1ad0c258a0c39787",
        "scriptpubkey_asm": "OP_HASH160 OP_PUSHBYTES_20 b171452317b123dd0414d3bbbf1ad0c258a0c397 OP_EQUAL",
        "scriptpubkey_type": "p2sh",
        "scriptpubkey_address": "3HsFDe52vdjiE8xNEafzTRvFzNNfUDFncw",
        "value": 9089872
      },
      "scriptsig": "220020837a5bccac89c2f94ab850898bb8a904aba68332992a24c8566a5d15802f5f7f",
      "scriptsig_asm": "OP_PUSHBYTES_34 0020837a5bccac89c2f94ab850898bb8a904aba68332992a24c8566a5d15802f5f7f",
      "witness": [
        "304402202e93381267accd1c2a741890c34d7b7332ea782ea49cb92b95d690d49cb1532602202b359d50d4a8ec6a08e4e72ac42d75b76d9cae23baf5520b363306d8f0b531ef01",
        "304402205867efa7bdde6b28e1b98ab2003942ae298e9a55c44d3ae2029115ad91a317ce02200bb53c3b0883a6df81af10bb5924793b3f55b6795183b1bd4984bb3cd35ebbac01",
        "2103b9818d77eec6e1cb5da789403a1c6b6100b8d1407be1982fcc88c2c4f4db9d2fad21025537c937cae5a67e5910f8ff95a9344f89cd532ab3f1a62d9b053b2d2a6036f7ac73640380ca00b268"
      ],
      "is_coinbase": false,
      "sequence": 4294967293,
      "inner_redeemscript_asm": "OP_0 OP_PUSHBYTES_32 837a5bccac89c2f94ab850898bb8a904aba68332992a24c8566a5d15802f5f7f",
      "inner_witnessscript_asm": "OP_PUSHBYTES_33 03b9818d77eec6e1cb5da789403a1c6b6100b8d1407be1982fcc88c2c4f4db9d2f OP_CHECKSIGVERIFY OP_PUSHBYTES_33 025537c937cae5a67e5910f8ff95a9344f89cd532ab3f1a62d9b053b2d2a6036f7 OP_CHECKSIG OP_IFDUP OP_NOTIF OP_PUSHBYTES_3 80ca00 OP_CSV OP_ENDIF"
    },
    {
      "txid": "537789cf94f3e9cfd1790d56d8d5c7bacab82a4533de1105b5d89370e9297e32",
      "vout": 0,
      "prevout": {
        "scriptpubkey": "a914fa4d3453ebb3ca9ace844dbb85a7f1b4681b4c5087",
        "scriptpubkey_asm": "OP_HASH160 OP_PUSHBYTES_20 fa4d3453ebb3ca9ace844dbb85a7f1b4681b4c50 OP_EQUAL",
        "scriptpubkey_type": "p2sh",
        "scriptpubkey_address": "3QWVLktUKuY3YxiVZrXUXwJQr2WVmTU9cj",
        "value": 19555210
      },
      "scriptsig": "22002017499597e1292bb40c0dcf8ab6bd0201ec0e3156ac765db99b70a7c9464b9a1c",
      "scriptsig_asm": "OP_PUSHBYTES_34 002017499597e1292bb40c0dcf8ab6bd0201ec0e3156ac765db99b70a7c9464b9a1c",
      "witness": [
        "3044022033976bd170238e1a79c8948dd9f0d3f938d92f0db1c994bf168b9c68fcb29bc302201732a55548d714894cdeb5aaac753bdb6af64b16193aeecc6124b41e77b2e1b901",
        "30440220604f7be0f5b87b5658e43f563fa2fe87abfd64a9522884b9d12c21f268c329fd022067b4e5be890986ea804bf3d283f65f76ee13ce89dec4e46aa98dd047a70dca1001",
        "2103d0532aa7addc96e780a58fac7652c40dfaac57c1744583053e37bd163584a2a9ad2102624510c5fa431f3ca1a56fe9b3258518c0fbeb8e1835bcb89c2ef3eca458a09fac73640380ca00b268"
      ],
      "is_coinbase": false,
      "sequence": 4294967293,
      "inner_redeemscript_asm": "OP_0 OP_PUSHBYTES_32 17499597e1292bb40c0dcf8ab6bd0201ec0e3156ac765db99b70a7c9464b9a1c",
      "inner_witnessscript_asm": "OP_PUSHBYTES_33 03d0532aa7addc96e780a58fac7652c40dfaac57c1744583053e37bd163584a2a9 OP_CHECKSIGVERIFY OP_PUSHBYTES_33 02624510c5fa431f3ca1a56fe9b3258518c0fbeb8e1835bcb89c2ef3eca458a09f OP_CHECKSIG OP_IFDUP OP_NOTIF OP_PUSHBYTES_3 80ca00 OP_CSV OP_ENDIF"
    },
    {
      "txid": "7447ad7055eeb15594f3d8637a42b85ae8948d348fe8f83f9078ab24ba0d90bc",
      "vout": 0,
      "prevout": {
        "scriptpubkey": "a914d22f28a40ebd887fa2f26c8656b28dcb49dbcd2287",
        "scriptpubkey_asm": "OP_HASH160 OP_PUSHBYTES_20 d22f28a40ebd887fa2f26c8656b28dcb49dbcd22 OP_EQUAL",
        "scriptpubkey_type": "p2sh",
        "scriptpubkey_address": "3LrNKUYjLErSSXQtxpy9Dj5C71St8Zfji3",
        "value": 2955618
      },
      "scriptsig": "2200201d6475788f37fa72c76ea95b326f3557ce4fc08a96441680b0d78bdb6131615b",
      "scriptsig_asm": "OP_PUSHBYTES_34 00201d6475788f37fa72c76ea95b326f3557ce4fc08a96441680b0d78bdb6131615b",
      "witness": [
        "304402207265342d607f4a3a6e5623557e82c91f77787de4585d0d9412d9436a35d61c7a02205ddce79adcf241407c1c197bebda2e028fbd3d14d96374f41cb1ef1d660d25e701",
        "304402203c72d51f3c2635d3d952838dcd3a56f8418ba833aff90820e73e1cd15a0650550220696c10dc343c450582bdb592df8bc76f1938118adf08817bd49f42b084356f8f01",
        "21035c2a3e4d4f54a978b5260e44c4e7d54af1aa3f03f49b522874f7c4cb37553e73ad21036149bdf134586d5f52b49ae27062b6a1995efc6adb35a2004308fc4d014d3d4dac73640380ca00b268"
      ],
      "is_coinbase": false,
      "sequence": 4294967293,
      "inner_redeemscript_asm": "OP_0 OP_PUSHBYTES_32 1d6475788f37fa72c76ea95b326f3557ce4fc08a96441680b0d78bdb6131615b",
      "inner_witnessscript_asm": "OP_PUSHBYTES_33 035c2a3e4d4f54a978b5260e44c4e7d54af1aa3f03f49b522874f7c4cb37553e73 OP_CHECKSIGVERIFY OP_PUSHBYTES_33 036149bdf134586d5f52b49ae27062b6a1995efc6adb35a2004308fc4d014d3d4d OP_CHECKSIG OP_IFDUP OP_NOTIF OP_PUSHBYTES_3 80ca00 OP_CSV OP_ENDIF"
    },
    {
      "txid": "c06d8eef3962075bca8bf8d86af2c8e158bd21aa97cca8ccb61d303ad63aba5b",
      "vout": 18,
      "prevout": {
        "scriptpubkey": "a914f0aac0075e25dc03c7a58fddc550dfe45ef5c05487",
        "scriptpubkey_asm": "OP_HASH160 OP_PUSHBYTES_20 f0aac0075e25dc03c7a58fddc550dfe45ef5c054 OP_EQUAL",
        "scriptpubkey_type": "p2sh",
        "scriptpubkey_address": "3PdYeWU3ETbncvzeziyp5GXDhATZNsyBeo",
        "value": 8676815
      },
      "scriptsig": "22002007d71d0154dba16e81b112c5e58481902be97d9671c4d3e383f70c6f57e5dc45",
      "scriptsig_asm": "OP_PUSHBYTES_34 002007d71d0154dba16e81b112c5e58481902be97d9671c4d3e383f70c6f57e5dc45",
      "witness": [
        "304402205f5986f59079811025586d0c30365d6cef5ac4accae9a481f8955007bfbafb9902206c46accbeb60c78854598303f11377322f105576a985a8af12fb416293b4737c01",
        "304402200b53b0066ed6e39d0bd0fe934e0f8b337f6dc4b357fa4aa283c04c2d34ddea8a022007e1fa422d72ddbb3abb4009bcdffc5435ddf988ce6312257631a844aad7198701",
        "21034b755ac2e6daa3b93c9c366b8594c21142731d66293240a198de98b4749f647ead21031b2c50deb8b9455dbd1d38d00fe91d7df78e06b96b0d3bd2f9946ab6b3d0eb0fac73640380ca00b268"
      ],
      "is_coinbase": false,
      "sequence": 4294967293,
      "inner_redeemscript_asm": "OP_0 OP_PUSHBYTES_32 07d71d0154dba16e81b112c5e58481902be97d9671c4d3e383f70c6f57e5dc45",
      "inner_witnessscript_asm": "OP_PUSHBYTES_33 034b755ac2e6daa3b93c9c366b8594c21142731d66293240a198de98b4749f647e OP_CHECKSIGVERIFY OP_PUSHBYTES_33 031b2c50deb8b9455dbd1d38d00fe91d7df78e06b96b0d3bd2f9946ab6b3d0eb0f OP_CHECKSIG OP_IFDUP OP_NOTIF OP_PUSHBYTES_3 80ca00 OP_CSV OP_ENDIF"
    },
    {
      "txid": "95f83cab00f37e5dd07b2e287db0dbc6834a200212495a6e6aca22453a658a22",
      "vout": 14,
      "prevout": {
        "scriptpubkey": "a914f0aac0075e25dc03c7a58fddc550dfe45ef5c05487",
        "scriptpubkey_asm": "OP_HASH160 OP_PUSHBYTES_20 f0aac0075e25dc03c7a58fddc550dfe45ef5c054 OP_EQUAL",
        "scriptpubkey_type": "p2sh",
        "scriptpubkey_address": "3PdYeWU3ETbncvzeziyp5GXDhATZNsyBeo",
        "value": 600000
      },
      "scriptsig": "22002007d71d0154dba16e81b112c5e58481902be97d9671c4d3e383f70c6f57e5dc45",
      "scriptsig_asm": "OP_PUSHBYTES_34 002007d71d0154dba16e81b112c5e58481902be97d9671c4d3e383f70c6f57e5dc45",
      "witness": [
        "3044022055e8f6f668468f943f37c2ef88db04a9492370a49f68f35fbfc06809135399f00220700cf82287564e57c50b934a7e959bffd8d97fb89d0257133cc33c6d92a404df01",
        "3044022010a9363096c3406f2cdf694a4634bf733598cf3a65795b1ffa4016c7ff462bea02200775bd2354fed70c4de4a109fd926ee067b9ceb5df199165c59adcf7e8d8ab6901",
        "21034b755ac2e6daa3b93c9c366b8594c21142731d66293240a198de98b4749f647ead21031b2c50deb8b9455dbd1d38d00fe91d7df78e06b96b0d3bd2f9946ab6b3d0eb0fac73640380ca00b268"
      ],
      "is_coinbase": false,
      "sequence": 4294967293,
      "inner_redeemscript_asm": "OP_0 OP_PUSHBYTES_32 07d71d0154dba16e81b112c5e58481902be97d9671c4d3e383f70c6f57e5dc45",
      "inner_witnessscript_asm": "OP_PUSHBYTES_33 034b755ac2e6daa3b93c9c366b8594c21142731d66293240a198de98b4749f647e OP_CHECKSIGVERIFY OP_PUSHBYTES_33 031b2c50deb8b9455dbd1d38d00fe91d7df78e06b96b0d3bd2f9946ab6b3d0eb0f OP_CHECKSIG OP_IFDUP OP_NOTIF OP_PUSHBYTES_3 80ca00 OP_CSV OP_ENDIF"
    },
    {
      "txid": "2a763ad71c132ce334e0eab55f92810b01dc4b1be57e4803a0b619b23541379c",
      "vout": 0,
      "prevout": {
        "scriptpubkey": "a914f0aac0075e25dc03c7a58fddc550dfe45ef5c05487",
        "scriptpubkey_asm": "OP_HASH160 OP_PUSHBYTES_20 f0aac0075e25dc03c7a58fddc550dfe45ef5c054 OP_EQUAL",
        "scriptpubkey_type": "p2sh",
        "scriptpubkey_address": "3PdYeWU3ETbncvzeziyp5GXDhATZNsyBeo",
        "value": 5291268
      },
      "scriptsig": "22002007d71d0154dba16e81b112c5e58481902be97d9671c4d3e383f70c6f57e5dc45",
      "scriptsig_asm": "OP_PUSHBYTES_34 002007d71d0154dba16e81b112c5e58481902be97d9671c4d3e383f70c6f57e5dc45",
      "witness": [
        "304402207783d3a87af962a4bf1917f6bed8f559979029490c11c38fdd5113f150b69c8a02200bbb389aa9d2cf4cdf60f8e127115c0b76186ca67476f11eb49f9609ae8ad16001",
        "304402204dbf53f382affd56d47ab8a06e7773096f9e63bcb0b81f882981e400be6eed0402203feff7d2764824ef066b8872327bdae18c4a06b98b246e91beb1062db57224e401",
        "21034b755ac2e6daa3b93c9c366b8594c21142731d66293240a198de98b4749f647ead21031b2c50deb8b9455dbd1d38d00fe91d7df78e06b96b0d3bd2f9946ab6b3d0eb0fac73640380ca00b268"
      ],
      "is_coinbase": false,
      "sequence": 4294967293,
      "inner_redeemscript_asm": "OP_0 OP_PUSHBYTES_32 07d71d0154dba16e81b112c5e58481902be97d9671c4d3e383f70c6f57e5dc45",
      "inner_witnessscript_asm": "OP_PUSHBYTES_33 034b755ac2e6daa3b93c9c366b8594c21142731d66293240a198de98b4749f647e OP_CHECKSIGVERIFY OP_PUSHBYTES_33 031b2c50deb8b9455dbd1d38d00fe91d7df78e06b96b0d3bd2f9946ab6b3d0eb0f OP_CHECKSIG OP_IFDUP OP_NOTIF OP_PUSHBYTES_3 80ca00 OP_CSV OP_ENDIF"
    },
    {
      "txid": "6d7d32bc25cbebe8e19da40e72e046b7e1156e953be7026a74fa47a1c8e0f48e",
      "vout": 17,
      "prevout": {
        "scriptpubkey": "a914f0aac0075e25dc03c7a58fddc550dfe45ef5c05487",
        "scriptpubkey_asm": "OP_HASH160 OP_PUSHBYTES_20 f0aac0075e25dc03c7a58fddc550dfe45ef5c054 OP_EQUAL",
        "scriptpubkey_type": "p2sh",
        "scriptpubkey_address": "3PdYeWU3ETbncvzeziyp5GXDhATZNsyBeo",
        "value": 1024605
      },
      "scriptsig": "22002007d71d0154dba16e81b112c5e58481902be97d9671c4d3e383f70c6f57e5dc45",
      "scriptsig_asm": "OP_PUSHBYTES_34 002007d71d0154dba16e81b112c5e58481902be97d9671c4d3e383f70c6f57e5dc45",
      "witness": [
        "304402207a693a75901209e38ffc782c7046915dd7ef7ab240abf0e1a3e3a5b05d01fd9a0220592dbc9b129ca9ec24f0e247f93fd68cf4e2edd55d019e240f832547e1e6ef9801",
        "304402202b49a93e5a120f9a52e0250f38f3df713fbb8d5dedd4d9369bcd1b302d2d1f36022021a4fd3fc4b6d31864e60725a85c03a3857299109ff3c53305f56a619960000401",
        "21034b755ac2e6daa3b93c9c366b8594c21142731d66293240a198de98b4749f647ead21031b2c50deb8b9455dbd1d38d00fe91d7df78e06b96b0d3bd2f9946ab6b3d0eb0fac73640380ca00b268"
      ],
      "is_coinbase": false,
      "sequence": 4294967293,
      "inner_redeemscript_asm": "OP_0 OP_PUSHBYTES_32 07d71d0154dba16e81b112c5e58481902be97d9671c4d3e383f70c6f57e5dc45",
      "inner_witnessscript_asm": "OP_PUSHBYTES_33 034b755ac2e6daa3b93c9c366b8594c21142731d66293240a198de98b4749f647e OP_CHECKSIGVERIFY OP_PUSHBYTES_33 031b2c50deb8b9455dbd1d38d00fe91d7df78e06b96b0d3bd2f9946ab6b3d0eb0f OP_CHECKSIG OP_IFDUP OP_NOTIF OP_PUSHBYTES_3 80ca00 OP_CSV OP_ENDIF"
    }
  ],
  "vout": [
    {
      "scriptpubkey": "a9144d4a4339470de603f99e0e348236ff8bddad642a87",
      "scriptpubkey_asm": "OP_HASH160 OP_PUSHBYTES_20 4d4a4339470de603f99e0e348236ff8bddad642a OP_EQUAL",
      "scriptpubkey_type": "p2sh",
      "scriptpubkey_address": "38jgvApTmq3oLepHMdtw3Ux9tKvFhasUyJ",
      "value": 84000000
    },
    {
      "scriptpubkey": "a9149e75e192ee9bc1c8d421e4931e13f87504fa065a87",
      "scriptpubkey_asm": "OP_HASH160 OP_PUSHBYTES_20 9e75e192ee9bc1c8d421e4931e13f87504fa065a OP_EQUAL",
      "scriptpubkey_type": "p2sh",
      "scriptpubkey_address": "3G8suNvJWoNAgmsdLAGmrfw4ANVi8zQ94q",
      "value": 37580
    }
  ],
  "size": 3676,
  "weight": 6634,
  "fee": 23513,
  "status": {
    "confirmed": true,
    "block_height": 834460,
    "block_hash": "00000000000000000000484a79b643b2524bbce82e5d8a442013fa5b8905ed98",
    "block_time": 1710307468
  },
  "hex": "0200000000010c21d9dd4ec08c11b7b20e1105644ad01f0428ecaa2e111fc1967d091565db2dcc0100000023220020769686a906419f2b94c961e223b5b46f9aa815426d4a005c9b439f50c9428708fdffffff99307e8c4707563be0e8d9f563d13d8d179e49b8f39b4aaf803e50e84a067cbc0100000023220020443c9d0157d7303b28ed56981838b92501b5686dcfcb4a496a2cfd03eee33017fdffffff291514a831f99006cc82e01b5246fc4c4eba0b0714d7447bcae80a58fa9b22440000000023220020680b2f6e57a1ebac1cd3bc410cf9ed4263518dc4f2e1c21501d28311474320c4fdffffff64fac98df399fbc421757bad2405f34beca7939f93c03f94f465fea73cd28ccd12000000232200205c47a761766cf03db1b0b602c8546906181c6485b532969c9472eb55c68756a3fdffffffd11bdd4e39ecb81196b0c6406e024aefbf284a4f9fd7d9fa86c8862a1db2ede00100000023220020baa41a422f8232b10ca1bc3af84c286fe045656469c1451b4fd3d241451141e6fdffffffc951499e425f5c4469c87480a978a581f67ff73b90cdf545fcbfcd2aac7967c90100000023220020837a5bccac89c2f94ab850898bb8a904aba68332992a24c8566a5d15802f5f7ffdffffff327e29e97093d8b50511de33452ab8cabac7d5d8560d79d1cfe9f394cf897753000000002322002017499597e1292bb40c0dcf8ab6bd0201ec0e3156ac765db99b70a7c9464b9a1cfdffffffbc900dba24ab78903ff8e88f348d94e85ab8427a63d8f39455b1ee5570ad477400000000232200201d6475788f37fa72c76ea95b326f3557ce4fc08a96441680b0d78bdb6131615bfdffffff5bba3ad63a301db6cca8cc97aa21bd58e1c8f26ad8f88bca5b076239ef8e6dc0120000002322002007d71d0154dba16e81b112c5e58481902be97d9671c4d3e383f70c6f57e5dc45fdffffff228a653a4522ca6a6e5a491202204a83c6dbb07d282e7bd05d7ef300ab3cf8950e0000002322002007d71d0154dba16e81b112c5e58481902be97d9671c4d3e383f70c6f57e5dc45fdffffff9c374135b219b6a003487ee51b4bdc010b81925fb5eae034e32c131cd73a762a000000002322002007d71d0154dba16e81b112c5e58481902be97d9671c4d3e383f70c6f57e5dc45fdffffff8ef4e0c8a147fa746a02e73b956e15e1b746e0720ea49de1e8ebcb25bc327d6d110000002322002007d71d0154dba16e81b112c5e58481902be97d9671c4d3e383f70c6f57e5dc45fdffffff0200bd01050000000017a9144d4a4339470de603f99e0e348236ff8bddad642a87cc9200000000000017a9149e75e192ee9bc1c8d421e4931e13f87504fa065a870347304402204360205cb8d1ea4614ea9621907cc3961183703e73176eb86c1158367f2e1fd302203d127ce96540b3009113179f117dc5ba63e92ebc1ffafcb6ca58123021484eed01473044022018228b70944cce54885f232760d44c096fbd89eff5392d459e85aebde67ac3cc02201131aac511e164fb40b9510430c9ee355ff603360efd2c9ae6f6430ce1592819014e210358c5f31584089c3c6f16b2603fa3f10cdba2feb10e003a73a6eac59e0555fca5ad21029dbeafcd91763a030b5f0a86aafe2bfcee29ed533dce565ed528bd3ca36a24d2ac73640380ca00b268034730440220635ed74ccdabfc5591f0f6e2f31f6d8d9dae43ce5fbc8ba05558848aa3cb166c022062f3c83512968fd666e044bdf311ec1887aa06fb83df9e30c805b10b4da0767d0147304402204aa5f8073b16857bdb649c9298a4ab53fc8c5fb8b86db7a63ee784a2fdc35b30022071dc84f2ad2fc58dccc820b9df88dd497ff2ba9aaf0baadec42a676e19252dcc014e21025ada92d93c32074dd2cffe863149a41b6295334f2347fc19429925fdf19ee513ad2103f889c6e94bab87479c2fcf574c81d7330e4f3a3377e187d64ddf68c7d8fe6739ac73640380ca00b26803473044022014ffaa3264a6875588f0626f10fba78e1965e059eeeefa24b25965add51f77f402207cb96994bf2ad7ddf018faf2f73435945621679fed4cf6ae6027557bbd577ee0014730440220242871dd2f9c1fec9665ad419d554a25a37a933efdfc601fefafa29d9c421e7502205a3ead9a561dc34bbfedfaeb43d8ab92682a76df046a603aaf5c8edd91ff8952014e21035965909eb2925cefe763a49829b24e372984074e4ba50cb452c45fe947280eb6ad210273eaf2afc7b55bc8644a25be07773a8472203e15d524d718f3550f01d957db8cac73640380ca00b26803473044022000f7002e18039194f1821fb6000105ef00ca5f3f15e2cb2d17f53d41af8ebbba022017699eab0793672ab710d35bffeb8faaa377d022aded2b7e2b009ff6b13103880147304402202c585d2421b108534c08fbd2c20c9cba26ec2cde95011650536b5c8c7d25907502206765764d6f5cfda2969b01cccd83839ac98347ff85f0afceffde16c10db4280d014e2103cc36b7c7f030f99db840a2ad0dc50827ffa0c6e5277e7a0465014775f7b62f32ad2102b58554b04909c3b684ef7fb5ad4e8a88aacf8b18e7b50851ea0f2b8326de1836ac73640380ca00b2680347304402204a471dd081e0ab2b7140c52707d359a9353d9be38bda9744fe64006625cbfa5702206430a5dadf7ed938dbc8bbdba5121d4bb3f58399ca69fde06a6ab29d96629f1b01473044022065c12dc30615b82e5cd693ae5978d32ab1ea70441b2f9cbed5d65739cc38d1620220306ae4ebd935fafae5daa53ed5e358b3152b23f5f8fa1948085e63d04dc03ff5014e21029f2fae5b1cefca052a26567e976d4df3122eeab12402471f5ef2c8d31b242ee6ad21038c9558578560eb4d703869a37e79dabf2ac0cac9dd844d3642e303a356a6f174ac73640380ca00b2680347304402202e93381267accd1c2a741890c34d7b7332ea782ea49cb92b95d690d49cb1532602202b359d50d4a8ec6a08e4e72ac42d75b76d9cae23baf5520b363306d8f0b531ef0147304402205867efa7bdde6b28e1b98ab2003942ae298e9a55c44d3ae2029115ad91a317ce02200bb53c3b0883a6df81af10bb5924793b3f55b6795183b1bd4984bb3cd35ebbac014e2103b9818d77eec6e1cb5da789403a1c6b6100b8d1407be1982fcc88c2c4f4db9d2fad21025537c937cae5a67e5910f8ff95a9344f89cd532ab3f1a62d9b053b2d2a6036f7ac73640380ca00b26803473044022033976bd170238e1a79c8948dd9f0d3f938d92f0db1c994bf168b9c68fcb29bc302201732a55548d714894cdeb5aaac753bdb6af64b16193aeecc6124b41e77b2e1b9014730440220604f7be0f5b87b5658e43f563fa2fe87abfd64a9522884b9d12c21f268c329fd022067b4e5be890986ea804bf3d283f65f76ee13ce89dec4e46aa98dd047a70dca10014e2103d0532aa7addc96e780a58fac7652c40dfaac57c1744583053e37bd163584a2a9ad2102624510c5fa431f3ca1a56fe9b3258518c0fbeb8e1835bcb89c2ef3eca458a09fac73640380ca00b2680347304402207265342d607f4a3a6e5623557e82c91f77787de4585d0d9412d9436a35d61c7a02205ddce79adcf241407c1c197bebda2e028fbd3d14d96374f41cb1ef1d660d25e70147304402203c72d51f3c2635d3d952838dcd3a56f8418ba833aff90820e73e1cd15a0650550220696c10dc343c450582bdb592df8bc76f1938118adf08817bd49f42b084356f8f014e21035c2a3e4d4f54a978b5260e44c4e7d54af1aa3f03f49b522874f7c4cb37553e73ad21036149bdf134586d5f52b49ae27062b6a1995efc6adb35a2004308fc4d014d3d4dac73640380ca00b2680347304402205f5986f59079811025586d0c30365d6cef5ac4accae9a481f8955007bfbafb9902206c46accbeb60c78854598303f11377322f105576a985a8af12fb416293b4737c0147304402200b53b0066ed6e39d0bd0fe934e0f8b337f6dc4b357fa4aa283c04c2d34ddea8a022007e1fa422d72ddbb3abb4009bcdffc5435ddf988ce6312257631a844aad71987014e21034b755ac2e6daa3b93c9c366b8594c21142731d66293240a198de98b4749f647ead21031b2c50deb8b9455dbd1d38d00fe91d7df78e06b96b0d3bd2f9946ab6b3d0eb0fac73640380ca00b26803473044022055e8f6f668468f943f37c2ef88db04a9492370a49f68f35fbfc06809135399f00220700cf82287564e57c50b934a7e959bffd8d97fb89d0257133cc33c6d92a404df01473044022010a9363096c3406f2cdf694a4634bf733598cf3a65795b1ffa4016c7ff462bea02200775bd2354fed70c4de4a109fd926ee067b9ceb5df199165c59adcf7e8d8ab69014e21034b755ac2e6daa3b93c9c366b8594c21142731d66293240a198de98b4749f647ead21031b2c50deb8b9455dbd1d38d00fe91d7df78e06b96b0d3bd2f9946ab6b3d0eb0fac73640380ca00b2680347304402207783d3a87af962a4bf1917f6bed8f559979029490c11c38fdd5113f150b69c8a02200bbb389aa9d2cf4cdf60f8e127115c0b76186ca67476f11eb49f9609ae8ad1600147304402204dbf53f382affd56d47ab8a06e7773096f9e63bcb0b81f882981e400be6eed0402203feff7d2764824ef066b8872327bdae18c4a06b98b246e91beb1062db57224e4014e21034b755ac2e6daa3b93c9c366b8594c21142731d66293240a198de98b4749f647ead21031b2c50deb8b9455dbd1d38d00fe91d7df78e06b96b0d3bd2f9946ab6b3d0eb0fac73640380ca00b2680347304402207a693a75901209e38ffc782c7046915dd7ef7ab240abf0e1a3e3a5b05d01fd9a0220592dbc9b129ca9ec24f0e247f93fd68cf4e2edd55d019e240f832547e1e6ef980147304402202b49a93e5a120f9a52e0250f38f3df713fbb8d5dedd4d9369bcd1b302d2d1f36022021a4fd3fc4b6d31864e60725a85c03a3857299109ff3c53305f56a6199600004014e21034b755ac2e6daa3b93c9c366b8594c21142731d66293240a198de98b4749f647ead21031b2c50deb8b9455dbd1d38d00fe91d7df78e06b96b0d3bd2f9946ab6b3d0eb0fac73640380ca00b2689abb0c00"
}