{
  "txid": "5a439b172c629a06a9845e08ae4b189c70e1a247558696794dd84fbd2570108b",
  "version": 2,
  "locktime": 0,
  "vin": [
    {
      "txid": "12848a1f84ad552475e874cce291926f292412de23b7537898e98c7370f2e86c",
      "vout": 13,
      "prevout": {
        "scriptpubkey": "5120a1716624243a20acf2bee1cc9d0549e60ae5e0c0c69fb43301ab5a3d305aabfa",
        "scriptpubkey_asm": "OP_PUSHNUM_1 OP_PUSHBYTES_32 a1716624243a20acf2bee1cc9d0549e60ae5e0c0c69fb43301ab5a3d305aabfa",
        "scriptpubkey_type": "v1_p2tr",
        "scriptpubkey_address": "bc1p59ckvfpy8gs2eu47u8xf6p2fuc9wtcxqc60mgvcp4ddr6vz640aq2x3k68",
        "value": 2358
      },
      "scriptsig": "",
      "scriptsig_asm": "",
      "witness": [
        "d763ab3005a4a49d7141b03705683978aacc03f8fd6ffc37e08ca5ebfe398d2b48f62f740ea0487936f33499f22512231dc488c0df77030a9e41d9d89b5534eb",
        "205fc05646b42f6d1739350e5e645c106cd3620e8504f2fbf339cce61cf88f3de8ac0063036f7264010118746578742f706c61696e3b636861727365743d7574662d3800377b2270223a226272632d3230222c226f70223a226d696e74222c227469636b223a22424f424f222c22616d74223a22313030303030227d68",
        "c1507504f881a2548efcb0bd8b5287fd78c473d5bd35b181abdd5c5cd6d10de204"
      ],
      "is_coinbase": false,
      "sequence": 4294967295
    }
  ],
  "vout": [
    {
      "scriptpubkey": "512048d62e6aa4ce9b4b4d760b1dc0c3e46b46d84be76ae456792a664139e7aaa19c",
      "scriptpubkey_asm": "OP_PUSHNUM_1 OP_PUSHBYTES_32 48d62e6aa4ce9b4b4d760b1dc0c3e46b46d84be76ae456792a664139e7aaa19c",
      "scriptpubkey_type": "v1_p2tr",
      "scriptpubkey_address": "bc1pfrtzu64ye6d5kntkpvwupslyddrdsjl8dtj9v7f2veqnnea25xwqu8ycu4",
      "value": 546
    }
  ],
  "size": 322,
  "weight": 604,
  "fee": 1812,
  "status": {
    "confirmed": true,
    "block_height": 834460,
    "block_hash": "00000000000000000000484a79b643b2524bbce82e5d8a442013fa5b8905ed98",
    "block_time": 1710307468
  },
  "hex": "020000000001016ce8f270738ce9987853b723de1224296f9291e2cc74e8752455ad841f8a84120d00000000ffffffff01220200000000000022512048d62e6aa4ce9b4b4d760b1dc0c3e46b46d84be76ae456792a664139e7aaa19c0340d763ab3005a4a49d7141b03705683978aacc03f8fd6ffc37e08ca5ebfe398d2b48f62f740ea0487936f33499f22512231dc488c0df77030a9e41d9d89b5534eb7d205fc05646b42f6d1739350e5e645c106cd3620e8504f2fbf339cce61cf88f3de8ac0063036f7264010118746578742f706c61696e3b636861727365743d7574662d3800377b2270223a226272632d3230222c226f70223a226d696e74222c227469636b223a22424f424f222c22616d74223a22313030303030227d6821c1507504f881a2548efcb0bd8b5287fd78c473d5bd35b181abdd5c5cd6d10de20400000000"
}