{
  "txid": "5a46f438c6c206c41e32b5fa5f31e0eb411a0ce486a808590ec22966ffaaea74",
  "version": 2,
  "locktime": 0,
  "vin": [
    {
      "txid": "ce8839e538757b96830eae35c8e8a063170910af5e7181649c185dcaa1a61851",
      "vout": 58,
      "prevout": {
        "scriptpubkey": "a9143641c7b1d5178f57ae8000da7353f47846156a3987",
        "scriptpubkey_asm": "OP_HASH160 OP_PUSHBYTES_20 3641c7b1d5178f57ae8000da7353f47846156a39 OP_EQUAL",
        "scriptpubkey_type": "p2sh",
        "scriptpubkey_address": "36duDP4GwyEexU3sk7hKyC45K9JfgccVbY",
        "value": 2304639
      },
      "scriptsig": "160014c5f2d37fed71dfbd425bc184e6489fa5f42fad15",
      "scriptsig_asm": "OP_PUSHBYTES_22 0014c5f2d37fed71dfbd425bc184e6489fa5f42fad15",
      "witness": [
        "3045022100991f1f5913a157c9f46b013078f281820ddced55ae80fa5cd29b8799629921d202203bf00ffa2f98a8838e81ab19850f24ba34127312653ff06cd50ee534b4534ca401",
        "030da716bb3f912ac978868865516d5761092496a024bdd5910c91d998e60a947e"
      ],
      "is_coinbase": false,
      "sequence": 4294967295,
      "inner_redeemscript_asm": "OP_0 OP_PUSHBYTES_20 c5f2d37fed71dfbd425bc184e6489fa5f42fad15"
    }
  ],
  "vout": [
    {
      "scriptpubkey": "a914f126f85c6ab14d6985a5c462b29baeedd79014db87",
      "scriptpubkey_asm": "OP_HASH160 OP_PUSHBYTES_20 f126f85c6ab14d6985a5c462b29baeedd79014db OP_EQUAL",
      "scriptpubkey_type": "p2sh",
      "scriptpubkey_address": "3Pg7TUAFH6rtSPb6qXtQsPd4TdUMkBbZcW",
      "value": 2302754
    }
  ],
  "size": 216,
  "weight": 534,
  "fee": 1885,
  "status": {
    "confirmed": true,
    "block_height": 834638,
    "block_hash": "000000000000000000025f742c626208ac87e0b7d15054abb4a19ca2d735a54e",
    "block_time": 1710405325
  },
  "hex": "020000000001015118a6a1ca5d189c6481715eaf10091763a0e8c835ae0e83967b7538e53988ce3a00000017160014c5f2d37fed71dfbd425bc184e6489fa5f42fad15ffffffff01222323000000000017a914f126f85c6ab14d6985a5c462b29baeedd79014db8702483045022100991f1f5913a157c9f46b013078f281820ddced55ae80fa5cd29b8799629921d202203bf00ffa2f98a8838e81ab19850f24ba34127312653ff06cd50ee534b4534ca40121030da716bb3f912ac978868865516d5761092496a024bdd5910c91d998e60a947e00000000"
}