{
  "txid": "5a47910481e1fb858febfd0e1eadfc886142ee90809d54028bfc7c3ec15eb744",
  "version": 2,
  "locktime": 0,
  "vin": [
    {
      "txid": "acc3ba00869acb582a3f2904ce3a11dd3779350ce234063fc7d0959246213364",
      "vout": 272,
      "prevout": {
        "scriptpubkey": "51208892cd596cac49604f2ecdb496bf48768eecae37049afc417a84bf28b3ff5e98",
        "scriptpubkey_asm": "OP_PUSHNUM_1 OP_PUSHBYTES_32 8892cd596cac49604f2ecdb496bf48768eecae37049afc417a84bf28b3ff5e98",
        "scriptpubkey_type": "v1_p2tr",
        "scriptpubkey_address": "bc1p3zfv6ktv43ykqnewek6fd06gw68wet3hqjd0cst6sjlj3vllt6vq7548fg",
        "value": 1806
      },
      "scriptsig": "",
      "scriptsig_asm": "",
      "witness": [
        "32e748b26f95bdf5f84a409e28fbbb9c16ec1c9efb80a6dbeadfc963d96f57e81b4f0cc066690f41cb19c64ffa11bdc58a35345d543efd3a66fcce4a7a9ba6cb",
        "20c1cc29203594ad8dd5a1ae6de42bc3990bd43c0c8cb0fc6c7f829a6693604730ac0063036f726401010a746578742f706c61696e00357b2270223a226272632d3230222c226f70223a226d696e74222c227469636b223a22646f6765222c22616d74223a2234323030227d68",
        "c0c1cc29203594ad8dd5a1ae6de42bc3990bd43c0c8cb0fc6c7f829a6693604730"
      ],
      "is_coinbase": false,
      "sequence": 4261412863
    }
  ],
  "vout": [
    {
      "scriptpubkey": "00147a665de7a370f4c9b372ab1fae587500a5bcbdb4",
      "scriptpubkey_asm": "OP_0 OP_PUSHBYTES_20 7a665de7a370f4c9b372ab1fae587500a5bcbdb4",
      "scriptpubkey_type": "v0_p2wpkh",
      "scriptpubkey_address": "bc1q0fn9mearwr6vnvmj4v06ukr4qzjme0d565dzcx",
      "value": 294
    }
  ],
  "size": 294,
  "weight": 540,
  "fee": 1512,
  "status": {
    "confirmed": true,
    "block_height": 834460,
    "block_hash": "00000000000000000000484a79b643b2524bbce82e5d8a442013fa5b8905ed98",
    "block_time": 1710307468
  },
  "hex": "02000000000101643321469295d0c73f0634e20c357937dd113ace04293f2a58cb9a8600bac3ac1001000000fffffffd0126010000000000001600147a665de7a370f4c9b372ab1fae587500a5bcbdb4034032e748b26f95bdf5f84a409e28fbbb9c16ec1c9efb80a6dbeadfc963d96f57e81b4f0cc066690f41cb19c64ffa11bdc58a35345d543efd3a66fcce4a7a9ba6cb6d20c1cc29203594ad8dd5a1ae6de42bc3990bd43c0c8cb0fc6c7f829a6693604730ac0063036f726401010a746578742f706c61696e00357b2270223a226272632d3230222c226f70223a226d696e74222c227469636b223a22646f6765222c22616d74223a2234323030227d6821c0c1cc29203594ad8dd5a1ae6de42bc3990bd43c0c8cb0fc6c7f829a669360473000000000"
}