{
  "txid": "5a4e2ae70b108a9881be2f89b28980e48d4e81614af16be4b6a749511e0d4acc",
  "version": 2,
  "locktime": 0,
  "vin": [
    {
      "txid": "c032f2b96a6bce874e42bf6e6fd7251caddf0e762e70dc42ab7f10adb0bb410c",
      "vout": 3,
      "prevout": {
        "scriptpubkey": "0014f60834ef165253c571b11ce9fa74e46692fc5ec1",
        "scriptpubkey_asm": "OP_0 OP_PUSHBYTES_20 f60834ef165253c571b11ce9fa74e46692fc5ec1",
        "scriptpubkey_type": "v0_p2wpkh",
        "scriptpubkey_address": "bc1q7cyrfmck2ffu2ud3rn5l5a8yv6f0chkp0zpemf",
        "value": 406139046
      },
      "scriptsig": "",
      "scriptsig_asm": "",
      "witness": [
        "304502210094b97a195ceda95367dbe85375334267034d9a52f3549bda19ba32fb5626e661022007381203deb8735ed9d4406d5eb13faaf350c368ccbf007adbe4cc881e72f1b101",
        "026e5628506ecd33242e5ceb5fdafe4d3066b5c0f159b3c05a621ef65f177ea286"
      ],
      "is_coinbase": false,
      "sequence": 4294967293
    }
  ],
  "vout": [
    {
      "scriptpubkey": "00140d31e5101aeabfd4cb219a85a23c99055bb39c81",
      "scriptpubkey_asm": "OP_0 OP_PUSHBYTES_20 0d31e5101aeabfd4cb219a85a23c99055bb39c81",
      "scriptpubkey_type": "v0_p2wpkh",
      "scriptpubkey_address": "bc1qp5c72yq6a2lafjepn2z6y0yeq4dm88ypt24l5y",
      "value": 1556107
    },
    {
      "scriptpubkey": "0014f60834ef165253c571b11ce9fa74e46692fc5ec1",
      "scriptpubkey_asm": "OP_0 OP_PUSHBYTES_20 f60834ef165253c571b11ce9fa74e46692fc5ec1",
      "scriptpubkey_type": "v0_p2wpkh",
      "scriptpubkey_address": "bc1q7cyrfmck2ffu2ud3rn5l5a8yv6f0chkp0zpemf",
      "value": 404578331
    }
  ],
  "size": 223,
  "weight": 562,
  "fee": 4608,
  "status": {
    "confirmed": true,
    "block_height": 834638,
    "block_hash": "000000000000000000025f742c626208ac87e0b7d15054abb4a19ca2d735a54e",
    "block_time": 1710405325
  },
  "hex": "020000000001010c41bbb0ad107fab42dc702e760edfad1c25d76f6ebf424e87ce6b6ab9f232c00300000000fdffffff028bbe1700000000001600140d31e5101aeabfd4cb219a85a23c99055bb39c811b601d1800000000160014f60834ef165253c571b11ce9fa74e46692fc5ec10248304502210094b97a195ceda95367dbe85375334267034d9a52f3549bda19ba32fb5626e661022007381203deb8735ed9d4406d5eb13faaf350c368ccbf007adbe4cc881e72f1b10121026e5628506ecd33242e5ceb5fdafe4d3066b5c0f159b3c05a621ef65f177ea28600000000"
}