{
  "txid": "5a59688b1cc209913f15a6babb28d95b939c0a0a64b778164749965ec39995c4",
  "version": 1,
  "locktime": 0,
  "vin": [
    {
      "txid": "d2bb6148888f4b7041a8a2e3857fb2498e1e609d87c6fc4bd29b44449969ca8e",
      "vout": 3,
      "prevout": {
        "scriptpubkey": "a9145f77117f2ab2cef81379ba111c9aa759bc705cb087",
        "scriptpubkey_asm": "OP_HASH160 OP_PUSHBYTES_20 5f77117f2ab2cef81379ba111c9aa759bc705cb0 OP_EQUAL",
        "scriptpubkey_type": "p2sh",
        "scriptpubkey_address": "3APnknGuDrWByM5bNgb2c7QhV7Fbp8XhAn",
        "value": 3588430
      },
      "scriptsig": "220020227082ede8ca2de27346676acae21c913736eaa79c5a936c2c0e3b680ffd7bda",
      "scriptsig_asm": "OP_PUSHBYTES_34 0020227082ede8ca2de27346676acae21c913736eaa79c5a936c2c0e3b680ffd7bda",
      "witness": [
        "",
        "30450221008c252137a1afeb50495794c027163272014868b1d197e2271c62af857d30597a022063d4f754a428e46907870b7031f3977f503202f302bc871128c6ff30514516dc01",
        "304402200080d617eb150d6979a874c1adfca6404e489cdf92c9a4c833e6ba24c9c682150220780566c48f4792e7fb63f03c5c26db16ddbb4f23b2720177755640058ccdd21b01",
        "522102b41e69c2729ec05530d67509ccc62da889dfc4e47aab25e6b9135285a9e874a92102ab87dceee8af3f8006389f52e3a29404fe5e9f66b8236e25ec00938c35dd3ed621039d027cd7d6168ba876a400d64b0ef4133de5867b1fee596a7377056a4ebe8fed53ae"
      ],
      "is_coinbase": false,
      "sequence": 4294967293,
      "inner_redeemscript_asm": "OP_0 OP_PUSHBYTES_32 227082ede8ca2de27346676acae21c913736eaa79c5a936c2c0e3b680ffd7bda",
      "inner_witnessscript_asm": "OP_PUSHNUM_2 OP_PUSHBYTES_33 02b41e69c2729ec05530d67509ccc62da889dfc4e47aab25e6b9135285a9e874a9 OP_PUSHBYTES_33 02ab87dceee8af3f8006389f52e3a29404fe5e9f66b8236e25ec00938c35dd3ed6 OP_PUSHBYTES_33 039d027cd7d6168ba876a400d64b0ef4133de5867b1fee596a7377056a4ebe8fed OP_PUSHNUM_3 OP_CHECKMULTISIG"
    }
  ],
  "vout": [
    {
      "scriptpubkey": "76a914add08cbb1c7ce8d4ced5e146ecbbb2a3bc76c6ef88ac",
      "scriptpubkey_asm": "OP_DUP OP_HASH160 OP_PUSHBYTES_20 add08cbb1c7ce8d4ced5e146ecbbb2a3bc76c6ef OP_EQUALVERIFY OP_CHECKSIG",
      "scriptpubkey_type": "p2pkh",
      "scriptpubkey_address": "1Gr3jUc4qd97Cpt6w5KHt8QKhE5hoZ165B",
      "value": 314400
    },
    {
      "scriptpubkey": "0020f10cd70fce1f6a01dc88c13b353f6938cd7e7a278f489ba0d8cf5efbb6f3507f",
      "scriptpubkey_asm": "OP_0 OP_PUSHBYTES_32 f10cd70fce1f6a01dc88c13b353f6938cd7e7a278f489ba0d8cf5efbb6f3507f",
      "scriptpubkey_type": "v0_p2wsh",
      "scriptpubkey_address": "bc1q7yxdwr7wra4qrhygcyan20mf8rxhu7383ayfhgxcea00hdhn2plsu036ke",
      "value": 3269584
    }
  ],
  "size": 418,
  "weight": 907,
  "fee": 4446,
  "status": {
    "confirmed": true,
    "block_height": 834638,
    "block_hash": "000000000000000000025f742c626208ac87e0b7d15054abb4a19ca2d735a54e",
    "block_time": 1710405325
  },
  "hex": "010000000001018eca699944449bd24bfcc6879d601e8e49b27f85e3a2a841704b8f884861bbd20300000023220020227082ede8ca2de27346676acae21c913736eaa79c5a936c2c0e3b680ffd7bdafdffffff0220cc0400000000001976a914add08cbb1c7ce8d4ced5e146ecbbb2a3bc76c6ef88acd0e3310000000000220020f10cd70fce1f6a01dc88c13b353f6938cd7e7a278f489ba0d8cf5efbb6f3507f04004830450221008c252137a1afeb50495794c027163272014868b1d197e2271c62af857d30597a022063d4f754a428e46907870b7031f3977f503202f302bc871128c6ff30514516dc0147304402200080d617eb150d6979a874c1adfca6404e489cdf92c9a4c833e6ba24c9c682150220780566c48f4792e7fb63f03c5c26db16ddbb4f23b2720177755640058ccdd21b0169522102b41e69c2729ec05530d67509ccc62da889dfc4e47aab25e6b9135285a9e874a92102ab87dceee8af3f8006389f52e3a29404fe5e9f66b8236e25ec00938c35dd3ed621039d027cd7d6168ba876a400d64b0ef4133de5867b1fee596a7377056a4ebe8fed53ae00000000"
}