{
  "txid": "5a67791ccea77f68844597b5fc92657efc5d5f1f65ab5b3e9655cf7d08170ed0",
  "version": 2,
  "locktime": 0,
  "vin": [
    {
      "txid": "df2f8015b04a4edc03306b6667b47601e45dbcc5f2bb4f9a6e7f99c92b1b86dd",
      "vout": 3,
      "prevout": {
        "scriptpubkey": "5120a035c930df9198671d214d6fb6e4f4d90242bfd574983a1704d80bba64830f30",
        "scriptpubkey_asm": "OP_PUSHNUM_1 OP_PUSHBYTES_32 a035c930df9198671d214d6fb6e4f4d90242bfd574983a1704d80bba64830f30",
        "scriptpubkey_type": "v1_p2tr",
        "scriptpubkey_address": "bc1p5q6ujvxljxvxw8fpf4hmde85mypy9074wjvr59cymq9m5eyrpucqtmrqjs",
        "value": 600
      },
      "scriptsig": "",
      "scriptsig_asm": "",
      "witness": [
        "e91bda1e5c9d8faf7fe78d0c2118114009d1c80028640a6250b160322f39bb992c7b0c49e5ce38331a6af7167a973803a6a8f7b65323999eb65fd227a5f25191"
      ],
      "is_coinbase": false,
      "sequence": 2147483649
    },
    {
      "txid": "df2f8015b04a4edc03306b6667b47601e45dbcc5f2bb4f9a6e7f99c92b1b86dd",
      "vout": 4,
      "prevout": {
        "scriptpubkey": "5120a035c930df9198671d214d6fb6e4f4d90242bfd574983a1704d80bba64830f30",
        "scriptpubkey_asm": "OP_PUSHNUM_1 OP_PUSHBYTES_32 a035c930df9198671d214d6fb6e4f4d90242bfd574983a1704d80bba64830f30",
        "scriptpubkey_type": "v1_p2tr",
        "scriptpubkey_address": "bc1p5q6ujvxljxvxw8fpf4hmde85mypy9074wjvr59cymq9m5eyrpucqtmrqjs",
        "value": 600
      },
      "scriptsig": "",
      "scriptsig_asm": "",
      "witness": [
        "9a8b938256a60082aa2340d2061eeb102c4ea58679f73909b232b1762a3a94e77dbd7a2203086f8a42f338f455fdf81880f6c3bc0f457e344755d897f7f8473e"
      ],
      "is_coinbase": false,
      "sequence": 2147483649
    },
    {
      "txid": "6512b9a857f655991431622ccce65153103a7aeaf86cea169e73aab5671772ca",
      "vout": 0,
      "prevout": {
        "scriptpubkey": "51200695b74ba71c0efba85a75c1f6503fd7db7081912e4940b71f0cf17d6d0a41b8",
        "scriptpubkey_asm": "OP_PUSHNUM_1 OP_PUSHBYTES_32 0695b74ba71c0efba85a75c1f6503fd7db7081912e4940b71f0cf17d6d0a41b8",
        "scriptpubkey_type": "v1_p2tr",
        "scriptpubkey_address": "bc1pq62mwja8rs80h2z6whqlv5pl6ldhpqv39ey5pdclpnch6mg2gxuqr4tx0n",
        "value": 546
      },
      "scriptsig": "",
      "scriptsig_asm": "",
      "witness": [
        "7d5d998a6c6d9d3c1ecc123f8dde3cba3478cb6ed770bd59476f311e5ad21260f0ab35ff41bddfb96aa2253d7ab0df77bb611e0078f36c426be6f7ddf46ce99f83"
      ],
      "is_coinbase": false,
      "sequence": 4294967295
    },
    {
      "txid": "10be1b08ed624f6d3f06999e1729e0c1558dc623c213565f50a5eaea04025329",
      "vout": 1,
      "prevout": {
        "scriptpubkey": "5120a035c930df9198671d214d6fb6e4f4d90242bfd574983a1704d80bba64830f30",
        "scriptpubkey_asm": "OP_PUSHNUM_1 OP_PUSHBYTES_32 a035c930df9198671d214d6fb6e4f4d90242bfd574983a1704d80bba64830f30",
        "scriptpubkey_type": "v1_p2tr",
        "scriptpubkey_address": "bc1p5q6ujvxljxvxw8fpf4hmde85mypy9074wjvr59cymq9m5eyrpucqtmrqjs",
        "value": 223086
      },
      "scriptsig": "",
      "scriptsig_asm": "",
      "witness": [
        "3cfffb24dc9495f1da25edf3fff8bcf1e6776af56b0edcf32b95976b31c3e4cb12c145c7b885729bde1a3c4210c49037df9b941b0d0b679ea8daa815e2f7b5a4"
      ],
      "is_coinbase": false,
      "sequence": 2147483649
    },
    {
      "txid": "761e1f310e0cadcd72b6438293c3bcda50a82c47d8b8f16f6135d26c57635614",
      "vout": 0,
      "prevout": {
        "scriptpubkey": "5120a035c930df9198671d214d6fb6e4f4d90242bfd574983a1704d80bba64830f30",
        "scriptpubkey_asm": "OP_PUSHNUM_1 OP_PUSHBYTES_32 a035c930df9198671d214d6fb6e4f4d90242bfd574983a1704d80bba64830f30",
        "scriptpubkey_type": "v1_p2tr",
        "scriptpubkey_address": "bc1p5q6ujvxljxvxw8fpf4hmde85mypy9074wjvr59cymq9m5eyrpucqtmrqjs",
        "value": 200000
      },
      "scriptsig": "",
      "scriptsig_asm": "",
      "witness": [
        "b807a1c27b31ea6eaa3de6781cdca00f3060e2ea279183f1cd8edaf987fb1ce842f272c689df6f1a57b779424f642c9529cc1efa0c2c396c08bf9cd2bee59b3e"
      ],
      "is_coinbase": false,
      "sequence": 2147483649
    }
  ],
  "vout": [
    {
      "scriptpubkey": "5120a035c930df9198671d214d6fb6e4f4d90242bfd574983a1704d80bba64830f30",
      "scriptpubkey_asm": "OP_PUSHNUM_1 OP_PUSHBYTES_32 a035c930df9198671d214d6fb6e4f4d90242bfd574983a1704d80bba64830f30",
      "scriptpubkey_type": "v1_p2tr",
      "scriptpubkey_address": "bc1p5q6ujvxljxvxw8fpf4hmde85mypy9074wjvr59cymq9m5eyrpucqtmrqjs",
      "value": 1200
    },
    {
      "scriptpubkey": "5120a035c930df9198671d214d6fb6e4f4d90242bfd574983a1704d80bba64830f30",
      "scriptpubkey_asm": "OP_PUSHNUM_1 OP_PUSHBYTES_32 a035c930df9198671d214d6fb6e4f4d90242bfd574983a1704d80bba64830f30",
      "scriptpubkey_type": "v1_p2tr",
      "scriptpubkey_address": "bc1p5q6ujvxljxvxw8fpf4hmde85mypy9074wjvr59cymq9m5eyrpucqtmrqjs",
      "value": 546
    },
    {
      "scriptpubkey": "51200695b74ba71c0efba85a75c1f6503fd7db7081912e4940b71f0cf17d6d0a41b8",
      "scriptpubkey_asm": "OP_PUSHNUM_1 OP_PUSHBYTES_32 0695b74ba71c0efba85a75c1f6503fd7db7081912e4940b71f0cf17d6d0a41b8",
      "scriptpubkey_type": "v1_p2tr",
      "scriptpubkey_address": "bc1pq62mwja8rs80h2z6whqlv5pl6ldhpqv39ey5pdclpnch6mg2gxuqr4tx0n",
      "value": 402800
    },
    {
      "scriptpubkey": "5120a035c930df9198671d214d6fb6e4f4d90242bfd574983a1704d80bba64830f30",
      "scriptpubkey_asm": "OP_PUSHNUM_1 OP_PUSHBYTES_32 a035c930df9198671d214d6fb6e4f4d90242bfd574983a1704d80bba64830f30",
      "scriptpubkey_type": "v1_p2tr",
      "scriptpubkey_address": "bc1p5q6ujvxljxvxw8fpf4hmde85mypy9074wjvr59cymq9m5eyrpucqtmrqjs",
      "value": 600
    },
    {
      "scriptpubkey": "5120a035c930df9198671d214d6fb6e4f4d90242bfd574983a1704d80bba64830f30",
      "scriptpubkey_asm": "OP_PUSHNUM_1 OP_PUSHBYTES_32 a035c930df9198671d214d6fb6e4f4d90242bfd574983a1704d80bba64830f30",
      "scriptpubkey_type": "v1_p2tr",
      "scriptpubkey_address": "bc1p5q6ujvxljxvxw8fpf4hmde85mypy9074wjvr59cymq9m5eyrpucqtmrqjs",
      "value": 600
    },
    {
      "scriptpubkey": "5120a035c930df9198671d214d6fb6e4f4d90242bfd574983a1704d80bba64830f30",
      "scriptpubkey_asm": "OP_PUSHNUM_1 OP_PUSHBYTES_32 a035c930df9198671d214d6fb6e4f4d90242bfd574983a1704d80bba64830f30",
      "scriptpubkey_type": "v1_p2tr",
      "scriptpubkey_address": "bc1p5q6ujvxljxvxw8fpf4hmde85mypy9074wjvr59cymq9m5eyrpucqtmrqjs",
      "value": 12959
    }
  ],
  "size": 806,
  "weight": 2225,
  "fee": 6127,
  "status": {
    "confirmed": true,
    "block_height": 834464,
    "block_hash": "0000000000000000000177a0869a911a2b65c9bdcd5a8bcb02b68f305bee848e",
    "block_time": 1710308296
  },
  "hex": "02000000000105dd861b2bc9997f6e9a4fbbf2c5bc5de40176b467666b3003dc4e4ab015802fdf030000000001000080dd861b2bc9997f6e9a4fbbf2c5bc5de40176b467666b3003dc4e4ab015802fdf040000000001000080ca721767b5aa739e16ea6cf8ea7a3a105351e6cc2c6231149955f657a8b912650000000000ffffffff29530204eaeaa5505f5613c223c68d55c1e029179e99063f6d4f62ed081bbe10010000000001000080145663576cd235616ff1b8d8472ca850dabcc3938243b672cdad0c0e311f1e7600000000000100008006b004000000000000225120a035c930df9198671d214d6fb6e4f4d90242bfd574983a1704d80bba64830f302202000000000000225120a035c930df9198671d214d6fb6e4f4d90242bfd574983a1704d80bba64830f3070250600000000002251200695b74ba71c0efba85a75c1f6503fd7db7081912e4940b71f0cf17d6d0a41b85802000000000000225120a035c930df9198671d214d6fb6e4f4d90242bfd574983a1704d80bba64830f305802000000000000225120a035c930df9198671d214d6fb6e4f4d90242bfd574983a1704d80bba64830f309f32000000000000225120a035c930df9198671d214d6fb6e4f4d90242bfd574983a1704d80bba64830f300140e91bda1e5c9d8faf7fe78d0c2118114009d1c80028640a6250b160322f39bb992c7b0c49e5ce38331a6af7167a973803a6a8f7b65323999eb65fd227a5f2519101409a8b938256a60082aa2340d2061eeb102c4ea58679f73909b232b1762a3a94e77dbd7a2203086f8a42f338f455fdf81880f6c3bc0f457e344755d897f7f8473e01417d5d998a6c6d9d3c1ecc123f8dde3cba3478cb6ed770bd59476f311e5ad21260f0ab35ff41bddfb96aa2253d7ab0df77bb611e0078f36c426be6f7ddf46ce99f8301403cfffb24dc9495f1da25edf3fff8bcf1e6776af56b0edcf32b95976b31c3e4cb12c145c7b885729bde1a3c4210c49037df9b941b0d0b679ea8daa815e2f7b5a40140b807a1c27b31ea6eaa3de6781cdca00f3060e2ea279183f1cd8edaf987fb1ce842f272c689df6f1a57b779424f642c9529cc1efa0c2c396c08bf9cd2bee59b3e00000000"
}