{
  "txid": "5a6773112b8156643f2ad4dd4734e500e459a05c245399b71b0344affbef5e52",
  "version": 2,
  "locktime": 0,
  "vin": [
    {
      "txid": "175e39c712ecda6339ef6a6f321befbbe63c95c7486743dd4fe651adacba20fc",
      "vout": 36,
      "prevout": {
        "scriptpubkey": "0014c3dd2fd456af13e0dab0720bdbf7b1b317252d67",
        "scriptpubkey_asm": "OP_0 OP_PUSHBYTES_20 c3dd2fd456af13e0dab0720bdbf7b1b317252d67",
        "scriptpubkey_type": "v0_p2wpkh",
        "scriptpubkey_address": "bc1qc0wjl4zk4uf7pk4swg9ahaa3kvtj2tt82zeaun",
        "value": 12730725
      },
      "scriptsig": "",
      "scriptsig_asm": "",
      "witness": [
        "304402204285dcf820d1c169eadf09f3edf7d5bbf712cac94e69eb4ccf29d5692e467f3b02205c5db621ffe37b5e774bbae11e28a98dc45bb7f05d961bf0fe788c2f189ea58101",
        "038dd94ed3e1594446c9e09f6e123efe7d1b4da44d9f94138f389e058e060332fe"
      ],
      "is_coinbase": false,
      "sequence": 4294967295
    }
  ],
  "vout": [
    {
      "scriptpubkey": "76a914d8bfc7a6b5844521dfca6863971a8183ac53e71b88ac",
      "scriptpubkey_asm": "OP_DUP OP_HASH160 OP_PUSHBYTES_20 d8bfc7a6b5844521dfca6863971a8183ac53e71b OP_EQUALVERIFY OP_CHECKSIG",
      "scriptpubkey_type": "p2pkh",
      "scriptpubkey_address": "1Lm4hY4dLfA7G3yh4zuFGPhysado1br4c6",
      "value": 1500000
    },
    {
      "scriptpubkey": "00140f2d9b47485d2fbb13030929c96d1e7ebe807b74",
      "scriptpubkey_asm": "OP_0 OP_PUSHBYTES_20 0f2d9b47485d2fbb13030929c96d1e7ebe807b74",
      "scriptpubkey_type": "v0_p2wpkh",
      "scriptpubkey_address": "bc1qpukek36gt5hmkycrpy5ujmg706lgq7m52jyg3r",
      "value": 11228106
    }
  ],
  "size": 225,
  "weight": 573,
  "fee": 2619,
  "status": {
    "confirmed": true,
    "block_height": 834638,
    "block_hash": "000000000000000000025f742c626208ac87e0b7d15054abb4a19ca2d735a54e",
    "block_time": 1710405325
  },
  "hex": "02000000000101fc20baacad51e64fdd436748c7953ce6bbef1b326f6aef3963daec12c7395e172400000000ffffffff0260e31600000000001976a914d8bfc7a6b5844521dfca6863971a8183ac53e71b88acca53ab00000000001600140f2d9b47485d2fbb13030929c96d1e7ebe807b740247304402204285dcf820d1c169eadf09f3edf7d5bbf712cac94e69eb4ccf29d5692e467f3b02205c5db621ffe37b5e774bbae11e28a98dc45bb7f05d961bf0fe788c2f189ea5810121038dd94ed3e1594446c9e09f6e123efe7d1b4da44d9f94138f389e058e060332fe00000000"
}