{
  "txid": "5a6d7c809418608d7413932a6290c75d0ac02a54819bc94c6ffb485f83d2b46b",
  "version": 2,
  "locktime": 0,
  "vin": [
    {
      "txid": "4c118c2412e056c6e0fb9d6e4bcaaad7d65ba6d4ba93317b31ff615147b19eee",
      "vout": 1,
      "prevout": {
        "scriptpubkey": "001461f72a0fc6ee638a9924096379e5aa63202637d3",
        "scriptpubkey_asm": "OP_0 OP_PUSHBYTES_20 61f72a0fc6ee638a9924096379e5aa63202637d3",
        "scriptpubkey_type": "v0_p2wpkh",
        "scriptpubkey_address": "bc1qv8mj5r7xae3c4xfyp93hned2vvszvd7naktflg",
        "value": 133637
      },
      "scriptsig": "",
      "scriptsig_asm": "",
      "witness": [
        "30440220256a507adbdd6b3e60fb62b40f3a4a8e2019f85261a177ae06d7a77e8cc1441b02203908a64f8f772d63ed862c5deed4262363998b4a23eef62254e90a56d7a1529501",
        "03a977c3529220855d27beb2eb939594c08108f639ff1fa738429813739d229584"
      ],
      "is_coinbase": false,
      "sequence": 4294967293
    }
  ],
  "vout": [
    {
      "scriptpubkey": "51208b162113a10164f2da3bb2e523d0c7f5293678de9984cb6560daff902d1da6b0",
      "scriptpubkey_asm": "OP_PUSHNUM_1 OP_PUSHBYTES_32 8b162113a10164f2da3bb2e523d0c7f5293678de9984cb6560daff902d1da6b0",
      "scriptpubkey_type": "v1_p2tr",
      "scriptpubkey_address": "bc1p3vtzzyapq9j09k3mktjj85x8755nv7x7nxzvketqmtleqtga56cqm28mzv",
      "value": 2101
    },
    {
      "scriptpubkey": "51208b162113a10164f2da3bb2e523d0c7f5293678de9984cb6560daff902d1da6b0",
      "scriptpubkey_asm": "OP_PUSHNUM_1 OP_PUSHBYTES_32 8b162113a10164f2da3bb2e523d0c7f5293678de9984cb6560daff902d1da6b0",
      "scriptpubkey_type": "v1_p2tr",
      "scriptpubkey_address": "bc1p3vtzzyapq9j09k3mktjj85x8755nv7x7nxzvketqmtleqtga56cqm28mzv",
      "value": 2101
    },
    {
      "scriptpubkey": "51208b162113a10164f2da3bb2e523d0c7f5293678de9984cb6560daff902d1da6b0",
      "scriptpubkey_asm": "OP_PUSHNUM_1 OP_PUSHBYTES_32 8b162113a10164f2da3bb2e523d0c7f5293678de9984cb6560daff902d1da6b0",
      "scriptpubkey_type": "v1_p2tr",
      "scriptpubkey_address": "bc1p3vtzzyapq9j09k3mktjj85x8755nv7x7nxzvketqmtleqtga56cqm28mzv",
      "value": 2101
    },
    {
      "scriptpubkey": "51208b162113a10164f2da3bb2e523d0c7f5293678de9984cb6560daff902d1da6b0",
      "scriptpubkey_asm": "OP_PUSHNUM_1 OP_PUSHBYTES_32 8b162113a10164f2da3bb2e523d0c7f5293678de9984cb6560daff902d1da6b0",
      "scriptpubkey_type": "v1_p2tr",
      "scriptpubkey_address": "bc1p3vtzzyapq9j09k3mktjj85x8755nv7x7nxzvketqmtleqtga56cqm28mzv",
      "value": 2101
    },
    {
      "scriptpubkey": "51208b162113a10164f2da3bb2e523d0c7f5293678de9984cb6560daff902d1da6b0",
      "scriptpubkey_asm": "OP_PUSHNUM_1 OP_PUSHBYTES_32 8b162113a10164f2da3bb2e523d0c7f5293678de9984cb6560daff902d1da6b0",
      "scriptpubkey_type": "v1_p2tr",
      "scriptpubkey_address": "bc1p3vtzzyapq9j09k3mktjj85x8755nv7x7nxzvketqmtleqtga56cqm28mzv",
      "value": 2101
    },
    {
      "scriptpubkey": "51208b162113a10164f2da3bb2e523d0c7f5293678de9984cb6560daff902d1da6b0",
      "scriptpubkey_asm": "OP_PUSHNUM_1 OP_PUSHBYTES_32 8b162113a10164f2da3bb2e523d0c7f5293678de9984cb6560daff902d1da6b0",
      "scriptpubkey_type": "v1_p2tr",
      "scriptpubkey_address": "bc1p3vtzzyapq9j09k3mktjj85x8755nv7x7nxzvketqmtleqtga56cqm28mzv",
      "value": 2101
    },
    {
      "scriptpubkey": "51208b162113a10164f2da3bb2e523d0c7f5293678de9984cb6560daff902d1da6b0",
      "scriptpubkey_asm": "OP_PUSHNUM_1 OP_PUSHBYTES_32 8b162113a10164f2da3bb2e523d0c7f5293678de9984cb6560daff902d1da6b0",
      "scriptpubkey_type": "v1_p2tr",
      "scriptpubkey_address": "bc1p3vtzzyapq9j09k3mktjj85x8755nv7x7nxzvketqmtleqtga56cqm28mzv",
      "value": 2101
    },
    {
      "scriptpubkey": "51208b162113a10164f2da3bb2e523d0c7f5293678de9984cb6560daff902d1da6b0",
      "scriptpubkey_asm": "OP_PUSHNUM_1 OP_PUSHBYTES_32 8b162113a10164f2da3bb2e523d0c7f5293678de9984cb6560daff902d1da6b0",
      "scriptpubkey_type": "v1_p2tr",
      "scriptpubkey_address": "bc1p3vtzzyapq9j09k3mktjj85x8755nv7x7nxzvketqmtleqtga56cqm28mzv",
      "value": 2101
    },
    {
      "scriptpubkey": "51208b162113a10164f2da3bb2e523d0c7f5293678de9984cb6560daff902d1da6b0",
      "scriptpubkey_asm": "OP_PUSHNUM_1 OP_PUSHBYTES_32 8b162113a10164f2da3bb2e523d0c7f5293678de9984cb6560daff902d1da6b0",
      "scriptpubkey_type": "v1_p2tr",
      "scriptpubkey_address": "bc1p3vtzzyapq9j09k3mktjj85x8755nv7x7nxzvketqmtleqtga56cqm28mzv",
      "value": 2101
    },
    {
      "scriptpubkey": "51208b162113a10164f2da3bb2e523d0c7f5293678de9984cb6560daff902d1da6b0",
      "scriptpubkey_asm": "OP_PUSHNUM_1 OP_PUSHBYTES_32 8b162113a10164f2da3bb2e523d0c7f5293678de9984cb6560daff902d1da6b0",
      "scriptpubkey_type": "v1_p2tr",
      "scriptpubkey_address": "bc1p3vtzzyapq9j09k3mktjj85x8755nv7x7nxzvketqmtleqtga56cqm28mzv",
      "value": 2101
    },
    {
      "scriptpubkey": "51208b162113a10164f2da3bb2e523d0c7f5293678de9984cb6560daff902d1da6b0",
      "scriptpubkey_asm": "OP_PUSHNUM_1 OP_PUSHBYTES_32 8b162113a10164f2da3bb2e523d0c7f5293678de9984cb6560daff902d1da6b0",
      "scriptpubkey_type": "v1_p2tr",
      "scriptpubkey_address": "bc1p3vtzzyapq9j09k3mktjj85x8755nv7x7nxzvketqmtleqtga56cqm28mzv",
      "value": 2101
    },
    {
      "scriptpubkey": "51208b162113a10164f2da3bb2e523d0c7f5293678de9984cb6560daff902d1da6b0",
      "scriptpubkey_asm": "OP_PUSHNUM_1 OP_PUSHBYTES_32 8b162113a10164f2da3bb2e523d0c7f5293678de9984cb6560daff902d1da6b0",
      "scriptpubkey_type": "v1_p2tr",
      "scriptpubkey_address": "bc1p3vtzzyapq9j09k3mktjj85x8755nv7x7nxzvketqmtleqtga56cqm28mzv",
      "value": 2101
    },
    {
      "scriptpubkey": "51208b162113a10164f2da3bb2e523d0c7f5293678de9984cb6560daff902d1da6b0",
      "scriptpubkey_asm": "OP_PUSHNUM_1 OP_PUSHBYTES_32 8b162113a10164f2da3bb2e523d0c7f5293678de9984cb6560daff902d1da6b0",
      "scriptpubkey_type": "v1_p2tr",
      "scriptpubkey_address": "bc1p3vtzzyapq9j09k3mktjj85x8755nv7x7nxzvketqmtleqtga56cqm28mzv",
      "value": 2101
    },
    {
      "scriptpubkey": "51208b162113a10164f2da3bb2e523d0c7f5293678de9984cb6560daff902d1da6b0",
      "scriptpubkey_asm": "OP_PUSHNUM_1 OP_PUSHBYTES_32 8b162113a10164f2da3bb2e523d0c7f5293678de9984cb6560daff902d1da6b0",
      "scriptpubkey_type": "v1_p2tr",
      "scriptpubkey_address": "bc1p3vtzzyapq9j09k3mktjj85x8755nv7x7nxzvketqmtleqtga56cqm28mzv",
      "value": 2101
    },
    {
      "scriptpubkey": "51208b162113a10164f2da3bb2e523d0c7f5293678de9984cb6560daff902d1da6b0",
      "scriptpubkey_asm": "OP_PUSHNUM_1 OP_PUSHBYTES_32 8b162113a10164f2da3bb2e523d0c7f5293678de9984cb6560daff902d1da6b0",
      "scriptpubkey_type": "v1_p2tr",
      "scriptpubkey_address": "bc1p3vtzzyapq9j09k3mktjj85x8755nv7x7nxzvketqmtleqtga56cqm28mzv",
      "value": 2101
    },
    {
      "scriptpubkey": "51208b162113a10164f2da3bb2e523d0c7f5293678de9984cb6560daff902d1da6b0",
      "scriptpubkey_asm": "OP_PUSHNUM_1 OP_PUSHBYTES_32 8b162113a10164f2da3bb2e523d0c7f5293678de9984cb6560daff902d1da6b0",
      "scriptpubkey_type": "v1_p2tr",
      "scriptpubkey_address": "bc1p3vtzzyapq9j09k3mktjj85x8755nv7x7nxzvketqmtleqtga56cqm28mzv",
      "value": 2101
    },
    {
      "scriptpubkey": "51208b162113a10164f2da3bb2e523d0c7f5293678de9984cb6560daff902d1da6b0",
      "scriptpubkey_asm": "OP_PUSHNUM_1 OP_PUSHBYTES_32 8b162113a10164f2da3bb2e523d0c7f5293678de9984cb6560daff902d1da6b0",
      "scriptpubkey_type": "v1_p2tr",
      "scriptpubkey_address": "bc1p3vtzzyapq9j09k3mktjj85x8755nv7x7nxzvketqmtleqtga56cqm28mzv",
      "value": 2101
    },
    {
      "scriptpubkey": "51208b162113a10164f2da3bb2e523d0c7f5293678de9984cb6560daff902d1da6b0",
      "scriptpubkey_asm": "OP_PUSHNUM_1 OP_PUSHBYTES_32 8b162113a10164f2da3bb2e523d0c7f5293678de9984cb6560daff902d1da6b0",
      "scriptpubkey_type": "v1_p2tr",
      "scriptpubkey_address": "bc1p3vtzzyapq9j09k3mktjj85x8755nv7x7nxzvketqmtleqtga56cqm28mzv",
      "value": 2101
    },
    {
      "scriptpubkey": "51208b162113a10164f2da3bb2e523d0c7f5293678de9984cb6560daff902d1da6b0",
      "scriptpubkey_asm": "OP_PUSHNUM_1 OP_PUSHBYTES_32 8b162113a10164f2da3bb2e523d0c7f5293678de9984cb6560daff902d1da6b0",
      "scriptpubkey_type": "v1_p2tr",
      "scriptpubkey_address": "bc1p3vtzzyapq9j09k3mktjj85x8755nv7x7nxzvketqmtleqtga56cqm28mzv",
      "value": 2101
    },
    {
      "scriptpubkey": "51208b162113a10164f2da3bb2e523d0c7f5293678de9984cb6560daff902d1da6b0",
      "scriptpubkey_asm": "OP_PUSHNUM_1 OP_PUSHBYTES_32 8b162113a10164f2da3bb2e523d0c7f5293678de9984cb6560daff902d1da6b0",
      "scriptpubkey_type": "v1_p2tr",
      "scriptpubkey_address": "bc1p3vtzzyapq9j09k3mktjj85x8755nv7x7nxzvketqmtleqtga56cqm28mzv",
      "value": 2101
    },
    {
      "scriptpubkey": "51208b162113a10164f2da3bb2e523d0c7f5293678de9984cb6560daff902d1da6b0",
      "scriptpubkey_asm": "OP_PUSHNUM_1 OP_PUSHBYTES_32 8b162113a10164f2da3bb2e523d0c7f5293678de9984cb6560daff902d1da6b0",
      "scriptpubkey_type": "v1_p2tr",
      "scriptpubkey_address": "bc1p3vtzzyapq9j09k3mktjj85x8755nv7x7nxzvketqmtleqtga56cqm28mzv",
      "value": 2101
    },
    {
      "scriptpubkey": "51208b162113a10164f2da3bb2e523d0c7f5293678de9984cb6560daff902d1da6b0",
      "scriptpubkey_asm": "OP_PUSHNUM_1 OP_PUSHBYTES_32 8b162113a10164f2da3bb2e523d0c7f5293678de9984cb6560daff902d1da6b0",
      "scriptpubkey_type": "v1_p2tr",
      "scriptpubkey_address": "bc1p3vtzzyapq9j09k3mktjj85x8755nv7x7nxzvketqmtleqtga56cqm28mzv",
      "value": 2101
    },
    {
      "scriptpubkey": "51208b162113a10164f2da3bb2e523d0c7f5293678de9984cb6560daff902d1da6b0",
      "scriptpubkey_asm": "OP_PUSHNUM_1 OP_PUSHBYTES_32 8b162113a10164f2da3bb2e523d0c7f5293678de9984cb6560daff902d1da6b0",
      "scriptpubkey_type": "v1_p2tr",
      "scriptpubkey_address": "bc1p3vtzzyapq9j09k3mktjj85x8755nv7x7nxzvketqmtleqtga56cqm28mzv",
      "value": 2101
    },
    {
      "scriptpubkey": "51208b162113a10164f2da3bb2e523d0c7f5293678de9984cb6560daff902d1da6b0",
      "scriptpubkey_asm": "OP_PUSHNUM_1 OP_PUSHBYTES_32 8b162113a10164f2da3bb2e523d0c7f5293678de9984cb6560daff902d1da6b0",
      "scriptpubkey_type": "v1_p2tr",
      "scriptpubkey_address": "bc1p3vtzzyapq9j09k3mktjj85x8755nv7x7nxzvketqmtleqtga56cqm28mzv",
      "value": 2101
    },
    {
      "scriptpubkey": "001461f72a0fc6ee638a9924096379e5aa63202637d3",
      "scriptpubkey_asm": "OP_0 OP_PUSHBYTES_20 61f72a0fc6ee638a9924096379e5aa63202637d3",
      "scriptpubkey_type": "v0_p2wpkh",
      "scriptpubkey_address": "bc1qv8mj5r7xae3c4xfyp93hned2vvszvd7naktflg",
      "value": 68367
    }
  ],
  "size": 1223,
  "weight": 4565,
  "fee": 14846,
  "status": {
    "confirmed": true,
    "block_height": 834460,
    "block_hash": "00000000000000000000484a79b643b2524bbce82e5d8a442013fa5b8905ed98",
    "block_time": 1710307468
  },
  "hex": "02000000000101ee9eb1475161ff317b3193bad4a65bd6d7aaca4b6e9dfbe0c656e012248c114c0100000000fdffffff1935080000000000002251208b162113a10164f2da3bb2e523d0c7f5293678de9984cb6560daff902d1da6b035080000000000002251208b162113a10164f2da3bb2e523d0c7f5293678de9984cb6560daff902d1da6b035080000000000002251208b162113a10164f2da3bb2e523d0c7f5293678de9984cb6560daff902d1da6b035080000000000002251208b162113a10164f2da3bb2e523d0c7f5293678de9984cb6560daff902d1da6b035080000000000002251208b162113a10164f2da3bb2e523d0c7f5293678de9984cb6560daff902d1da6b035080000000000002251208b162113a10164f2da3bb2e523d0c7f5293678de9984cb6560daff902d1da6b035080000000000002251208b162113a10164f2da3bb2e523d0c7f5293678de9984cb6560daff902d1da6b035080000000000002251208b162113a10164f2da3bb2e523d0c7f5293678de9984cb6560daff902d1da6b035080000000000002251208b162113a10164f2da3bb2e523d0c7f5293678de9984cb6560daff902d1da6b035080000000000002251208b162113a10164f2da3bb2e523d0c7f5293678de9984cb6560daff902d1da6b035080000000000002251208b162113a10164f2da3bb2e523d0c7f5293678de9984cb6560daff902d1da6b035080000000000002251208b162113a10164f2da3bb2e523d0c7f5293678de9984cb6560daff902d1da6b035080000000000002251208b162113a10164f2da3bb2e523d0c7f5293678de9984cb6560daff902d1da6b035080000000000002251208b162113a10164f2da3bb2e523d0c7f5293678de9984cb6560daff902d1da6b035080000000000002251208b162113a10164f2da3bb2e523d0c7f5293678de9984cb6560daff902d1da6b035080000000000002251208b162113a10164f2da3bb2e523d0c7f5293678de9984cb6560daff902d1da6b035080000000000002251208b162113a10164f2da3bb2e523d0c7f5293678de9984cb6560daff902d1da6b035080000000000002251208b162113a10164f2da3bb2e523d0c7f5293678de9984cb6560daff902d1da6b035080000000000002251208b162113a10164f2da3bb2e523d0c7f5293678de9984cb6560daff902d1da6b035080000000000002251208b162113a10164f2da3bb2e523d0c7f5293678de9984cb6560daff902d1da6b035080000000000002251208b162113a10164f2da3bb2e523d0c7f5293678de9984cb6560daff902d1da6b035080000000000002251208b162113a10164f2da3bb2e523d0c7f5293678de9984cb6560daff902d1da6b035080000000000002251208b162113a10164f2da3bb2e523d0c7f5293678de9984cb6560daff902d1da6b035080000000000002251208b162113a10164f2da3bb2e523d0c7f5293678de9984cb6560daff902d1da6b00f0b01000000000016001461f72a0fc6ee638a9924096379e5aa63202637d3024730440220256a507adbdd6b3e60fb62b40f3a4a8e2019f85261a177ae06d7a77e8cc1441b02203908a64f8f772d63ed862c5deed4262363998b4a23eef62254e90a56d7a15295012103a977c3529220855d27beb2eb939594c08108f639ff1fa738429813739d22958400000000"
}