{
  "txid": "5a6f2722d8eb09336dabe9a04f9001e3bf0cfad54142f3bde5d07c1d952802b7",
  "version": 2,
  "locktime": 0,
  "vin": [
    {
      "txid": "d7a1f98b2c72cb57404021030740601c7680f24a1579c7a4d25e2c43875983d9",
      "vout": 0,
      "prevout": {
        "scriptpubkey": "a91489005ef872b96a3788c711c71de717f0d168878387",
        "scriptpubkey_asm": "OP_HASH160 OP_PUSHBYTES_20 89005ef872b96a3788c711c71de717f0d1688783 OP_EQUAL",
        "scriptpubkey_type": "p2sh",
        "scriptpubkey_address": "3EBQwbnYEias7ddab1mk5YWi4xmPvzj6Z6",
        "value": 110000
      },
      "scriptsig": "160014639fd738eb356b608ba29595f432c295ca5972b5",
      "scriptsig_asm": "OP_PUSHBYTES_22 0014639fd738eb356b608ba29595f432c295ca5972b5",
      "witness": [
        "3044022057df2be3b879d3aa0dc9738b33672779e209179b4f798619a7c6e4ddd3e408e202201071ae7fe654aa02899f54c9cfd2b51902892365016240702a1c2ff6331cde8701",
        "02d969fe78bba90e5ec8f4f7a8f2f67421bda4a76066b12b9ccb6b9b63ab26a398"
      ],
      "is_coinbase": false,
      "sequence": 4294967293,
      "inner_redeemscript_asm": "OP_0 OP_PUSHBYTES_20 639fd738eb356b608ba29595f432c295ca5972b5"
    }
  ],
  "vout": [
    {
      "scriptpubkey": "a91477b7e4608740f14760cbdaf17bbda32ffd2300b987",
      "scriptpubkey_asm": "OP_HASH160 OP_PUSHBYTES_20 77b7e4608740f14760cbdaf17bbda32ffd2300b9 OP_EQUAL",
      "scriptpubkey_type": "p2sh",
      "scriptpubkey_address": "3Cc2dRECSyu48oi4rU7EZ2WyArJ8eMPh1v",
      "value": 108535
    }
  ],
  "size": 215,
  "weight": 533,
  "fee": 1465,
  "status": {
    "confirmed": true,
    "block_height": 834464,
    "block_hash": "0000000000000000000177a0869a911a2b65c9bdcd5a8bcb02b68f305bee848e",
    "block_time": 1710308296
  },
  "hex": "02000000000101d9835987432c5ed2a4c779154af280761c6040070321404057cb722c8bf9a1d70000000017160014639fd738eb356b608ba29595f432c295ca5972b5fdffffff01f7a701000000000017a91477b7e4608740f14760cbdaf17bbda32ffd2300b98702473044022057df2be3b879d3aa0dc9738b33672779e209179b4f798619a7c6e4ddd3e408e202201071ae7fe654aa02899f54c9cfd2b51902892365016240702a1c2ff6331cde87012102d969fe78bba90e5ec8f4f7a8f2f67421bda4a76066b12b9ccb6b9b63ab26a39800000000"
}