{
  "txid": "5a8453e7be387d77dee25d95092e1bcbeb2ca752446b72089e51e2a263779439",
  "version": 1,
  "locktime": 0,
  "vin": [
    {
      "txid": "541983582a3fb39f422a7c9357ebd2cd19806dd5f65cbbd82403e95c2baff8de",
      "vout": 1,
      "prevout": {
        "scriptpubkey": "0014303339128bc1e7928aebac5f28757088066d5977",
        "scriptpubkey_asm": "OP_0 OP_PUSHBYTES_20 303339128bc1e7928aebac5f28757088066d5977",
        "scriptpubkey_type": "v0_p2wpkh",
        "scriptpubkey_address": "bc1qxqenjy5tc8ne9zht430jsats3qrx6kthmqu50d",
        "value": 365017
      },
      "scriptsig": "",
      "scriptsig_asm": "",
      "witness": [
        "3044022003f1c59e9dead1a490033b1f98d50507f64fe35e1d4dc9f9524e305e126778a902202d0ec84d3bec7b0cbfc118d6d5156312a03fa64d44f095d6b6c62515f5cbc06801",
        "0279f9d72d9b9b1dcb10f7ce421deb098c111f9504f4c35d2f77d14ee0d7bea71e"
      ],
      "is_coinbase": false,
      "sequence": 4294967293
    }
  ],
  "vout": [
    {
      "scriptpubkey": "5120b5658e03a35279cae649d344cf7358d0c01831b4a3b70d638699e4d76a8cf462",
      "scriptpubkey_asm": "OP_PUSHNUM_1 OP_PUSHBYTES_32 b5658e03a35279cae649d344cf7358d0c01831b4a3b70d638699e4d76a8cf462",
      "scriptpubkey_type": "v1_p2tr",
      "scriptpubkey_address": "bc1pk4jcuqar2fuu4ejf6dzv7u6c6rqpsvd55wms6cuxn8jdw65v733q7yu6t0",
      "value": 2721
    },
    {
      "scriptpubkey": "0014303339128bc1e7928aebac5f28757088066d5977",
      "scriptpubkey_asm": "OP_0 OP_PUSHBYTES_20 303339128bc1e7928aebac5f28757088066d5977",
      "scriptpubkey_type": "v0_p2wpkh",
      "scriptpubkey_address": "bc1qxqenjy5tc8ne9zht430jsats3qrx6kthmqu50d",
      "value": 359971
    }
  ],
  "size": 234,
  "weight": 609,
  "fee": 2325,
  "status": {
    "confirmed": true,
    "block_height": 834460,
    "block_hash": "00000000000000000000484a79b643b2524bbce82e5d8a442013fa5b8905ed98",
    "block_time": 1710307468
  },
  "hex": "01000000000101def8af2b5ce90324d8bb5cf6d56d8019cdd2eb57937c2a429fb33f2a588319540100000000fdffffff02a10a000000000000225120b5658e03a35279cae649d344cf7358d0c01831b4a3b70d638699e4d76a8cf462237e050000000000160014303339128bc1e7928aebac5f28757088066d597702473044022003f1c59e9dead1a490033b1f98d50507f64fe35e1d4dc9f9524e305e126778a902202d0ec84d3bec7b0cbfc118d6d5156312a03fa64d44f095d6b6c62515f5cbc06801210279f9d72d9b9b1dcb10f7ce421deb098c111f9504f4c35d2f77d14ee0d7bea71e00000000"
}