{
  "txid": "5ac51f43e0846d045c47bba520c8956f4b1bcde0f5c748d0d098cdde5d5fc55d",
  "version": 2,
  "locktime": 0,
  "vin": [
    {
      "txid": "361c665730ebbf33b1375272bc59ba3411c2c937165aad01fea246c43fdafbb7",
      "vout": 0,
      "prevout": {
        "scriptpubkey": "5120a0ebd433b98838d837a693153fc3dc69873d6f754135175b5eccfa9f1901f5df",
        "scriptpubkey_asm": "OP_PUSHNUM_1 OP_PUSHBYTES_32 a0ebd433b98838d837a693153fc3dc69873d6f754135175b5eccfa9f1901f5df",
        "scriptpubkey_type": "v1_p2tr",
        "scriptpubkey_address": "bc1p5r4agvae3qudsdaxjv2nls7udxrn6mm4gy63wk67enaf7xgp7h0slfn6zy",
        "value": 600
      },
      "scriptsig": "",
      "scriptsig_asm": "",
      "witness": [
        "53be935f61e394b65c011908f69803fa1b39ed8c050ba6cb9d754f06792cbc0324ffd4670a8c501873410ffc719a92f6669443d4beeab09ddc0e089b34d5f999"
      ],
      "is_coinbase": false,
      "sequence": 4294967295
    },
    {
      "txid": "361c665730ebbf33b1375272bc59ba3411c2c937165aad01fea246c43fdafbb7",
      "vout": 1,
      "prevout": {
        "scriptpubkey": "5120a0ebd433b98838d837a693153fc3dc69873d6f754135175b5eccfa9f1901f5df",
        "scriptpubkey_asm": "OP_PUSHNUM_1 OP_PUSHBYTES_32 a0ebd433b98838d837a693153fc3dc69873d6f754135175b5eccfa9f1901f5df",
        "scriptpubkey_type": "v1_p2tr",
        "scriptpubkey_address": "bc1p5r4agvae3qudsdaxjv2nls7udxrn6mm4gy63wk67enaf7xgp7h0slfn6zy",
        "value": 600
      },
      "scriptsig": "",
      "scriptsig_asm": "",
      "witness": [
        "f8919cabedac12a4719397aa5df4d7d937b65eab39db997145e640ee3190cda0ca96441106b1a549fc3a3ef8e01bc0871690c9e1790fee5daa5ade19c978a1df"
      ],
      "is_coinbase": false,
      "sequence": 4294967295
    },
    {
      "txid": "01e23e4b729a31c4290fe9739c334b841fa06990528d7c99ffbe7ca4e23d7f40",
      "vout": 0,
      "prevout": {
        "scriptpubkey": "5120653f24f52e05641a74e9371e5d28eaa2cebc3259c1830af45060b3e364e9ae20",
        "scriptpubkey_asm": "OP_PUSHNUM_1 OP_PUSHBYTES_32 653f24f52e05641a74e9371e5d28eaa2cebc3259c1830af45060b3e364e9ae20",
        "scriptpubkey_type": "v1_p2tr",
        "scriptpubkey_address": "bc1pv5ljfafwq4jp5a8fxu0962825t8tcvjecxps4azsvze7xe8f4csq9c6wth",
        "value": 546
      },
      "scriptsig": "",
      "scriptsig_asm": "",
      "witness": [
        "42fb645418cae34d6321ec7b9e81e95e6ac51e94c5a78a5ab596eb6c3d46d076af2409b547089c02821d050c2f242ba46a678aa73b9401736dadb36e2b55aa9783"
      ],
      "is_coinbase": false,
      "sequence": 4294967295
    },
    {
      "txid": "361c665730ebbf33b1375272bc59ba3411c2c937165aad01fea246c43fdafbb7",
      "vout": 2,
      "prevout": {
        "scriptpubkey": "5120a0ebd433b98838d837a693153fc3dc69873d6f754135175b5eccfa9f1901f5df",
        "scriptpubkey_asm": "OP_PUSHNUM_1 OP_PUSHBYTES_32 a0ebd433b98838d837a693153fc3dc69873d6f754135175b5eccfa9f1901f5df",
        "scriptpubkey_type": "v1_p2tr",
        "scriptpubkey_address": "bc1p5r4agvae3qudsdaxjv2nls7udxrn6mm4gy63wk67enaf7xgp7h0slfn6zy",
        "value": 732348
      },
      "scriptsig": "",
      "scriptsig_asm": "",
      "witness": [
        "6fa4fc8c840b8ba67efc01933d8ba919bcc5e7c4bcc667ec375dc581a6eb1a1ec4afd1ea78cec4f3e15c34c014316383c096601ae91249a16ae381e5750ebc65"
      ],
      "is_coinbase": false,
      "sequence": 4294967295
    }
  ],
  "vout": [
    {
      "scriptpubkey": "5120a0ebd433b98838d837a693153fc3dc69873d6f754135175b5eccfa9f1901f5df",
      "scriptpubkey_asm": "OP_PUSHNUM_1 OP_PUSHBYTES_32 a0ebd433b98838d837a693153fc3dc69873d6f754135175b5eccfa9f1901f5df",
      "scriptpubkey_type": "v1_p2tr",
      "scriptpubkey_address": "bc1p5r4agvae3qudsdaxjv2nls7udxrn6mm4gy63wk67enaf7xgp7h0slfn6zy",
      "value": 1200
    },
    {
      "scriptpubkey": "5120a0ebd433b98838d837a693153fc3dc69873d6f754135175b5eccfa9f1901f5df",
      "scriptpubkey_asm": "OP_PUSHNUM_1 OP_PUSHBYTES_32 a0ebd433b98838d837a693153fc3dc69873d6f754135175b5eccfa9f1901f5df",
      "scriptpubkey_type": "v1_p2tr",
      "scriptpubkey_address": "bc1p5r4agvae3qudsdaxjv2nls7udxrn6mm4gy63wk67enaf7xgp7h0slfn6zy",
      "value": 546
    },
    {
      "scriptpubkey": "5120653f24f52e05641a74e9371e5d28eaa2cebc3259c1830af45060b3e364e9ae20",
      "scriptpubkey_asm": "OP_PUSHNUM_1 OP_PUSHBYTES_32 653f24f52e05641a74e9371e5d28eaa2cebc3259c1830af45060b3e364e9ae20",
      "scriptpubkey_type": "v1_p2tr",
      "scriptpubkey_address": "bc1pv5ljfafwq4jp5a8fxu0962825t8tcvjecxps4azsvze7xe8f4csq9c6wth",
      "value": 656500
    },
    {
      "scriptpubkey": "5120a0ebd433b98838d837a693153fc3dc69873d6f754135175b5eccfa9f1901f5df",
      "scriptpubkey_asm": "OP_PUSHNUM_1 OP_PUSHBYTES_32 a0ebd433b98838d837a693153fc3dc69873d6f754135175b5eccfa9f1901f5df",
      "scriptpubkey_type": "v1_p2tr",
      "scriptpubkey_address": "bc1p5r4agvae3qudsdaxjv2nls7udxrn6mm4gy63wk67enaf7xgp7h0slfn6zy",
      "value": 600
    },
    {
      "scriptpubkey": "5120a0ebd433b98838d837a693153fc3dc69873d6f754135175b5eccfa9f1901f5df",
      "scriptpubkey_asm": "OP_PUSHNUM_1 OP_PUSHBYTES_32 a0ebd433b98838d837a693153fc3dc69873d6f754135175b5eccfa9f1901f5df",
      "scriptpubkey_type": "v1_p2tr",
      "scriptpubkey_address": "bc1p5r4agvae3qudsdaxjv2nls7udxrn6mm4gy63wk67enaf7xgp7h0slfn6zy",
      "value": 600
    },
    {
      "scriptpubkey": "5120a0ebd433b98838d837a693153fc3dc69873d6f754135175b5eccfa9f1901f5df",
      "scriptpubkey_asm": "OP_PUSHNUM_1 OP_PUSHBYTES_32 a0ebd433b98838d837a693153fc3dc69873d6f754135175b5eccfa9f1901f5df",
      "scriptpubkey_type": "v1_p2tr",
      "scriptpubkey_address": "bc1p5r4agvae3qudsdaxjv2nls7udxrn6mm4gy63wk67enaf7xgp7h0slfn6zy",
      "value": 66664
    }
  ],
  "size": 699,
  "weight": 1995,
  "fee": 7984,
  "status": {
    "confirmed": true,
    "block_height": 834464,
    "block_hash": "0000000000000000000177a0869a911a2b65c9bdcd5a8bcb02b68f305bee848e",
    "block_time": 1710308296
  },
  "hex": "02000000000104b7fbda3fc446a2fe01ad5a1637c9c21134ba59bc725237b133bfeb3057661c360000000000ffffffffb7fbda3fc446a2fe01ad5a1637c9c21134ba59bc725237b133bfeb3057661c360100000000ffffffff407f3de2a47cbeff997c8d529069a01f844b339c73e90f29c4319a724b3ee2010000000000ffffffffb7fbda3fc446a2fe01ad5a1637c9c21134ba59bc725237b133bfeb3057661c360200000000ffffffff06b004000000000000225120a0ebd433b98838d837a693153fc3dc69873d6f754135175b5eccfa9f1901f5df2202000000000000225120a0ebd433b98838d837a693153fc3dc69873d6f754135175b5eccfa9f1901f5df74040a0000000000225120653f24f52e05641a74e9371e5d28eaa2cebc3259c1830af45060b3e364e9ae205802000000000000225120a0ebd433b98838d837a693153fc3dc69873d6f754135175b5eccfa9f1901f5df5802000000000000225120a0ebd433b98838d837a693153fc3dc69873d6f754135175b5eccfa9f1901f5df6804010000000000225120a0ebd433b98838d837a693153fc3dc69873d6f754135175b5eccfa9f1901f5df014053be935f61e394b65c011908f69803fa1b39ed8c050ba6cb9d754f06792cbc0324ffd4670a8c501873410ffc719a92f6669443d4beeab09ddc0e089b34d5f9990140f8919cabedac12a4719397aa5df4d7d937b65eab39db997145e640ee3190cda0ca96441106b1a549fc3a3ef8e01bc0871690c9e1790fee5daa5ade19c978a1df014142fb645418cae34d6321ec7b9e81e95e6ac51e94c5a78a5ab596eb6c3d46d076af2409b547089c02821d050c2f242ba46a678aa73b9401736dadb36e2b55aa978301406fa4fc8c840b8ba67efc01933d8ba919bcc5e7c4bcc667ec375dc581a6eb1a1ec4afd1ea78cec4f3e15c34c014316383c096601ae91249a16ae381e5750ebc6500000000"
}