{
  "txid": "5ac88651c3681fefac99864fa0db4e591942d6afeda35e3409304543d45da26d",
  "version": 1,
  "locktime": 0,
  "vin": [
    {
      "txid": "4e2c428da8f881ba91fb99ac07a39cf5cc407ab52a91e541e0f1ea6c26518235",
      "vout": 1,
      "prevout": {
        "scriptpubkey": "0014e10a6d4406e9ce9286cfc1433e8d0f3e8720b187",
        "scriptpubkey_asm": "OP_0 OP_PUSHBYTES_20 e10a6d4406e9ce9286cfc1433e8d0f3e8720b187",
        "scriptpubkey_type": "v0_p2wpkh",
        "scriptpubkey_address": "bc1quy9x63qxa88f9pk0c9pnarg086rjpvv8anvh2s",
        "value": 17998
      },
      "scriptsig": "",
      "scriptsig_asm": "",
      "witness": [
        "3045022100ba0654668d780fd67e2caffe0d9986dfbccd1497256172482c8a1410afe765d202205d0b6c21ed4fe4c38a951861a6bcda55393fe46b823bc6d58aae94c4646c313b01",
        "02ce8fbdf73deecd900f3ca41f9fa4e34ab236e5915a2b1200fb07cfee35b33d18"
      ],
      "is_coinbase": false,
      "sequence": 4294967293
    }
  ],
  "vout": [
    {
      "scriptpubkey": "51207eb7dc422ac650fb70cdddb1b6cacbe7d58f1e1157daf3c5ed35e80b9e3c32e1",
      "scriptpubkey_asm": "OP_PUSHNUM_1 OP_PUSHBYTES_32 7eb7dc422ac650fb70cdddb1b6cacbe7d58f1e1157daf3c5ed35e80b9e3c32e1",
      "scriptpubkey_type": "v1_p2tr",
      "scriptpubkey_address": "bc1p06macs32ceg0kuxdmkcmdjktul2c78s32ld0830dxh5qh83uxtss2npzh7",
      "value": 2721
    },
    {
      "scriptpubkey": "0014e10a6d4406e9ce9286cfc1433e8d0f3e8720b187",
      "scriptpubkey_asm": "OP_0 OP_PUSHBYTES_20 e10a6d4406e9ce9286cfc1433e8d0f3e8720b187",
      "scriptpubkey_type": "v0_p2wpkh",
      "scriptpubkey_address": "bc1quy9x63qxa88f9pk0c9pnarg086rjpvv8anvh2s",
      "value": 12952
    }
  ],
  "size": 235,
  "weight": 610,
  "fee": 2325,
  "status": {
    "confirmed": true,
    "block_height": 834460,
    "block_hash": "00000000000000000000484a79b643b2524bbce82e5d8a442013fa5b8905ed98",
    "block_time": 1710307468
  },
  "hex": "01000000000101358251266ceaf1e041e5912ab57a40ccf59ca307ac99fb91ba81f8a88d422c4e0100000000fdffffff02a10a0000000000002251207eb7dc422ac650fb70cdddb1b6cacbe7d58f1e1157daf3c5ed35e80b9e3c32e19832000000000000160014e10a6d4406e9ce9286cfc1433e8d0f3e8720b18702483045022100ba0654668d780fd67e2caffe0d9986dfbccd1497256172482c8a1410afe765d202205d0b6c21ed4fe4c38a951861a6bcda55393fe46b823bc6d58aae94c4646c313b012102ce8fbdf73deecd900f3ca41f9fa4e34ab236e5915a2b1200fb07cfee35b33d1800000000"
}