{
  "txid": "5ad2aa16f4218c0fcef6d3c89be710c3ee0da6666bdf32af34ca98c75e7c5a67",
  "version": 1,
  "locktime": 0,
  "vin": [
    {
      "txid": "6d351060b4b4bcb319c18fe7b88fb5d9b6cd481e1fb9d62fb7ed3ec9f8132c46",
      "vout": 4,
      "prevout": {
        "scriptpubkey": "00140f244bb58e6f7c08f7675f6249f4f50dfb3a6aaa",
        "scriptpubkey_asm": "OP_0 OP_PUSHBYTES_20 0f244bb58e6f7c08f7675f6249f4f50dfb3a6aaa",
        "scriptpubkey_type": "v0_p2wpkh",
        "scriptpubkey_address": "bc1qpujyhdvwda7q3am8ta3yna84phan5642jnfqu3",
        "value": 103932
      },
      "scriptsig": "",
      "scriptsig_asm": "",
      "witness": [
        "3045022100e06709f87a034ac6e5e3d6ce8e40adb1db1817ff7abc3808a49d5bdfb179b2da02203900da6c8d1bb6aa02cb195d8e594746e242773de042654527242e0639c667b801",
        "03bbc3079fcf153bb7b47dbd0674498eb477f741c202f44be5b0c484914ccfde98"
      ],
      "is_coinbase": false,
      "sequence": 4294967295
    },
    {
      "txid": "7b8afba7911e784399113f85685ed3882dd7b9954ffbe719ee1153020efd3c79",
      "vout": 16,
      "prevout": {
        "scriptpubkey": "00147a32a78cda0dec76f463f424bfa7873a2a4998fa",
        "scriptpubkey_asm": "OP_0 OP_PUSHBYTES_20 7a32a78cda0dec76f463f424bfa7873a2a4998fa",
        "scriptpubkey_type": "v0_p2wpkh",
        "scriptpubkey_address": "bc1q0ge20rx6phk8darr7sjtlfu88g4ynx86hv274v",
        "value": 103412
      },
      "scriptsig": "",
      "scriptsig_asm": "",
      "witness": [
        "30450221009eb2417c271bce1812e99a4bf195c626969cc00ba874d1cbf512d56f9816ff6a022059db5aae4160ee3378043e4a44a5676f95323e24ed7c76b36133338d7f760d9101",
        "023b2a4d9c329deddffe3952f4cadd35d1e6b17fc2179b24bd71e386c8eaebd51b"
      ],
      "is_coinbase": false,
      "sequence": 4294967295
    },
    {
      "txid": "e8311823836f6f85a3c320274d64aa3df02f90ba079f6336cd7e733693cf11b3",
      "vout": 0,
      "prevout": {
        "scriptpubkey": "00140856522eec172492b859745967d29ba563e927cb",
        "scriptpubkey_asm": "OP_0 OP_PUSHBYTES_20 0856522eec172492b859745967d29ba563e927cb",
        "scriptpubkey_type": "v0_p2wpkh",
        "scriptpubkey_address": "bc1qppt9ythvzujf9wzew3vk055m5437jf7t8dz2j5",
        "value": 100000
      },
      "scriptsig": "",
      "scriptsig_asm": "",
      "witness": [
        "30440220288d7a5485c824a0fd41414a387078d2c6f19370217d85d0ade51bcd99f6466302201557f717cc156dbffdff76abe8a03645b72e9d12d31976b4aca56d9c7f92ea4a01",
        "0319aae672cd91e121eedcf3e12133834f28d2ebfec6d1d82c27a10cb8a5718733"
      ],
      "is_coinbase": false,
      "sequence": 4294967295
    },
    {
      "txid": "e95b052f69d4d550c7c4fb5daeb15b9471d41ac484c732f19a372abf8a7304ff",
      "vout": 1,
      "prevout": {
        "scriptpubkey": "001471f149febed931875c9141bfb9d2681f0b880d30",
        "scriptpubkey_asm": "OP_0 OP_PUSHBYTES_20 71f149febed931875c9141bfb9d2681f0b880d30",
        "scriptpubkey_type": "v0_p2wpkh",
        "scriptpubkey_address": "bc1qw8c5nl47myccwhy3gxlmn5ngru9csrfsv6a8yk",
        "value": 100000
      },
      "scriptsig": "",
      "scriptsig_asm": "",
      "witness": [
        "3045022100e2136e0454cbfe5da2fcdd3c3c6a632a8f918568f79938e9d74fe8b83df35b6f02202f2a2c1d15bdb8de3f59da17c7dce76052fa0f7ec5965bcf91a5c49dceaa8dbb01",
        "02de8d19ed7b1edfdf519865889f7194bd2fd78ddd8236261863f858a2e63e9b38"
      ],
      "is_coinbase": false,
      "sequence": 4294967295
    },
    {
      "txid": "f2ba3ed199a561c9c48878a54f33229e860b677454d3d32c93d66c929b54ba51",
      "vout": 4,
      "prevout": {
        "scriptpubkey": "0014b5085d36158e8eb968bc252672dfa4cf9eb9a3a2",
        "scriptpubkey_asm": "OP_0 OP_PUSHBYTES_20 b5085d36158e8eb968bc252672dfa4cf9eb9a3a2",
        "scriptpubkey_type": "v0_p2wpkh",
        "scriptpubkey_address": "bc1qk5y96ds4368tj69uy5n89haye70tngazzd5qt3",
        "value": 100000
      },
      "scriptsig": "",
      "scriptsig_asm": "",
      "witness": [
        "304402207856519633e4154b3c6edadd06d5f7fc2134f987b61b290c26a4f2ac6174967902206d29b2a113e826cefe83d28b8a0aa24e7b191e0117bf4eb957d9b73651e3f36201",
        "03cf3158cc4a686e9196fb01688a900bdb7f1b02a3a6744e7778a109a3656d63a5"
      ],
      "is_coinbase": false,
      "sequence": 4294967295
    }
  ],
  "vout": [
    {
      "scriptpubkey": "001478fab4989fbd466d52d8ce611aba974917633425",
      "scriptpubkey_asm": "OP_0 OP_PUSHBYTES_20 78fab4989fbd466d52d8ce611aba974917633425",
      "scriptpubkey_type": "v0_p2wpkh",
      "scriptpubkey_address": "bc1q0ratfxylh4rx65kcees34w5hfytkxdp9vf6u9y",
      "value": 100000
    },
    {
      "scriptpubkey": "00148bfe69c348084dab333b1633e91cf29d7249a1e5",
      "scriptpubkey_asm": "OP_0 OP_PUSHBYTES_20 8bfe69c348084dab333b1633e91cf29d7249a1e5",
      "scriptpubkey_type": "v0_p2wpkh",
      "scriptpubkey_address": "bc1q30lxns6gppx6kvemzce7j88jn4eyng09gw082c",
      "value": 100000
    },
    {
      "scriptpubkey": "0014b691389e4fe4a049f3af783c5172e97bd9dbb4d8",
      "scriptpubkey_asm": "OP_0 OP_PUSHBYTES_20 b691389e4fe4a049f3af783c5172e97bd9dbb4d8",
      "scriptpubkey_type": "v0_p2wpkh",
      "scriptpubkey_address": "bc1qk6gn38j0ujsynua00q79zuhf00vahdxcgx55qd",
      "value": 100000
    },
    {
      "scriptpubkey": "0014d307cc0e841ed21cb4f6adbed185a5dd3daf55c6",
      "scriptpubkey_asm": "OP_0 OP_PUSHBYTES_20 d307cc0e841ed21cb4f6adbed185a5dd3daf55c6",
      "scriptpubkey_type": "v0_p2wpkh",
      "scriptpubkey_address": "bc1q6vrucr5yrmfped8k4kldrpd9m57674wxzy6wlc",
      "value": 100000
    },
    {
      "scriptpubkey": "00208e0d6dbc9fa25f776e65ea78bd704dc06a97e1b60120270069df7837b15b1cdd",
      "scriptpubkey_asm": "OP_0 OP_PUSHBYTES_32 8e0d6dbc9fa25f776e65ea78bd704dc06a97e1b60120270069df7837b15b1cdd",
      "scriptpubkey_type": "v0_p2wsh",
      "scriptpubkey_address": "bc1q3cxkm0yl5f0hwmn9afut6uzdcp4f0cdkqyszwqrfmaur0v2mrnwse7w9tq",
      "value": 100000
    }
  ],
  "size": 922,
  "weight": 2068,
  "fee": 7344,
  "status": {
    "confirmed": true,
    "block_height": 834638,
    "block_hash": "000000000000000000025f742c626208ac87e0b7d15054abb4a19ca2d735a54e",
    "block_time": 1710405325
  },
  "hex": "01000000000105462c13f8c93eedb72fd6b91f1e48cdb6d9b58fb8e78fc119b3bcb4b46010356d0400000000ffffffff793cfd0e025311ee19e7fb4f95b9d72d88d35e68853f119943781e91a7fb8a7b1000000000ffffffffb311cf9336737ecd36639f07ba902ff03daa644d2720c3a3856f6f83231831e80000000000ffffffffff04738abf2a379af132c784c41ad471945bb1ae5dfbc4c750d5d4692f055be90100000000ffffffff51ba549b926cd6932cd3d35474670b869e22334fa57888c4c961a599d13ebaf20400000000ffffffff05a08601000000000016001478fab4989fbd466d52d8ce611aba974917633425a0860100000000001600148bfe69c348084dab333b1633e91cf29d7249a1e5a086010000000000160014b691389e4fe4a049f3af783c5172e97bd9dbb4d8a086010000000000160014d307cc0e841ed21cb4f6adbed185a5dd3daf55c6a0860100000000002200208e0d6dbc9fa25f776e65ea78bd704dc06a97e1b60120270069df7837b15b1cdd02483045022100e06709f87a034ac6e5e3d6ce8e40adb1db1817ff7abc3808a49d5bdfb179b2da02203900da6c8d1bb6aa02cb195d8e594746e242773de042654527242e0639c667b8012103bbc3079fcf153bb7b47dbd0674498eb477f741c202f44be5b0c484914ccfde98024830450221009eb2417c271bce1812e99a4bf195c626969cc00ba874d1cbf512d56f9816ff6a022059db5aae4160ee3378043e4a44a5676f95323e24ed7c76b36133338d7f760d910121023b2a4d9c329deddffe3952f4cadd35d1e6b17fc2179b24bd71e386c8eaebd51b024730440220288d7a5485c824a0fd41414a387078d2c6f19370217d85d0ade51bcd99f6466302201557f717cc156dbffdff76abe8a03645b72e9d12d31976b4aca56d9c7f92ea4a01210319aae672cd91e121eedcf3e12133834f28d2ebfec6d1d82c27a10cb8a571873302483045022100e2136e0454cbfe5da2fcdd3c3c6a632a8f918568f79938e9d74fe8b83df35b6f02202f2a2c1d15bdb8de3f59da17c7dce76052fa0f7ec5965bcf91a5c49dceaa8dbb012102de8d19ed7b1edfdf519865889f7194bd2fd78ddd8236261863f858a2e63e9b380247304402207856519633e4154b3c6edadd06d5f7fc2134f987b61b290c26a4f2ac6174967902206d29b2a113e826cefe83d28b8a0aa24e7b191e0117bf4eb957d9b73651e3f362012103cf3158cc4a686e9196fb01688a900bdb7f1b02a3a6744e7778a109a3656d63a500000000"
}