{
  "txid": "5ad2b66b5b883ec2bdd3eb2fde47998a3f629f3274b156543b5cefa200833962",
  "version": 2,
  "locktime": 0,
  "vin": [
    {
      "txid": "5bf51ea0e46a91a5c3efa666ae144bd7353aa755942459a48769574d3a2c83f4",
      "vout": 0,
      "prevout": {
        "scriptpubkey": "512028f0752880137784d7abd3dae5bfe9caf89374883e28f3bc1853257c2456bcf8",
        "scriptpubkey_asm": "OP_PUSHNUM_1 OP_PUSHBYTES_32 28f0752880137784d7abd3dae5bfe9caf89374883e28f3bc1853257c2456bcf8",
        "scriptpubkey_type": "v1_p2tr",
        "scriptpubkey_address": "bc1p9rc822yqzdmcf4at60dwt0lfetufxayg8c5080qc2vjhcfzkhnuq0a0fz5",
        "value": 3300
      },
      "scriptsig": "",
      "scriptsig_asm": "",
      "witness": [
        "2cc900d92dbee473ccb0caa96d97dc131c367bb5ee13b6d5f50395ed1d14023f666f18bdcbf263af273c47e546b3da680dc3202a76cab17d7676c6fe17158bc4",
        "20d03456fb9894ff84a56b73a91b6744cdfb4162de09bc3b840aa71ff6e7066ac7ac0063036f7264010118746578742f706c61696e3b636861727365743d7574662d38003c7b2270223a226272632d3230222c226f70223a227472616e73666572222c227469636b223a2244524352222c22616d74223a2232303133313331227d68",
        "c0d03456fb9894ff84a56b73a91b6744cdfb4162de09bc3b840aa71ff6e7066ac7"
      ],
      "is_coinbase": false,
      "sequence": 4294967293
    }
  ],
  "vout": [
    {
      "scriptpubkey": "512024c65b6797fa4d1844bda2e2f03f4d12b7e2ddc334b780b96949d06933eb1950",
      "scriptpubkey_asm": "OP_PUSHNUM_1 OP_PUSHBYTES_32 24c65b6797fa4d1844bda2e2f03f4d12b7e2ddc334b780b96949d06933eb1950",
      "scriptpubkey_type": "v1_p2tr",
      "scriptpubkey_address": "bc1pynr9keuhlfx3s39a5t30q06dz2m79hwrxjmcpwtff8gxjvltr9gqynpn3v",
      "value": 546
    }
  ],
  "size": 327,
  "weight": 609,
  "fee": 2754,
  "status": {
    "confirmed": true,
    "block_height": 834638,
    "block_hash": "000000000000000000025f742c626208ac87e0b7d15054abb4a19ca2d735a54e",
    "block_time": 1710405325
  },
  "hex": "02000000000101f4832c3a4d576987a459249455a73a35d74b14ae66a6efc3a5916ae4a01ef55b0000000000fdffffff01220200000000000022512024c65b6797fa4d1844bda2e2f03f4d12b7e2ddc334b780b96949d06933eb195003402cc900d92dbee473ccb0caa96d97dc131c367bb5ee13b6d5f50395ed1d14023f666f18bdcbf263af273c47e546b3da680dc3202a76cab17d7676c6fe17158bc48220d03456fb9894ff84a56b73a91b6744cdfb4162de09bc3b840aa71ff6e7066ac7ac0063036f7264010118746578742f706c61696e3b636861727365743d7574662d38003c7b2270223a226272632d3230222c226f70223a227472616e73666572222c227469636b223a2244524352222c22616d74223a2232303133313331227d6821c0d03456fb9894ff84a56b73a91b6744cdfb4162de09bc3b840aa71ff6e7066ac700000000"
}