{
  "txid": "5adb77cec99549445d4d2dd8f97d2f4c18f3afbf3e3be8d3702f98759af7c751",
  "version": 2,
  "locktime": 0,
  "vin": [
    {
      "txid": "641f7f12e63796372eee673e700dc87c4ddf45326a640e0747a85c5259e77345",
      "vout": 11,
      "prevout": {
        "scriptpubkey": "5120046b00d887e7c9e75d73bb6dd1d1b568f9ec8c8a54aff59e2c81ee929bd479be",
        "scriptpubkey_asm": "OP_PUSHNUM_1 OP_PUSHBYTES_32 046b00d887e7c9e75d73bb6dd1d1b568f9ec8c8a54aff59e2c81ee929bd479be",
        "scriptpubkey_type": "v1_p2tr",
        "scriptpubkey_address": "bc1pq34spky8uly7whtnhdkar5d4dru7ery22jhlt83vs8hf9x750xlqrqjrd9",
        "value": 109382
      },
      "scriptsig": "",
      "scriptsig_asm": "",
      "witness": [
        "888ae8a51ec06ef9807f52c95606f637d7a3117afb42420f174d262a35cb13562c0a71dd1fb08da90c6ab114c8a93ca3091cd33331b57098933fe2828a08551e"
      ],
      "is_coinbase": false,
      "sequence": 4294967293
    }
  ],
  "vout": [
    {
      "scriptpubkey": "512056df7b1ed2123995e8b0dda4e4cadbbbed66f96b772cf59b98a0d857c4797b28",
      "scriptpubkey_asm": "OP_PUSHNUM_1 OP_PUSHBYTES_32 56df7b1ed2123995e8b0dda4e4cadbbbed66f96b772cf59b98a0d857c4797b28",
      "scriptpubkey_type": "v1_p2tr",
      "scriptpubkey_address": "bc1p2m0hk8kjzguet69smkjwfjkmh0kkd7ttwuk0txuc5rv903re0v5qeh7ecr",
      "value": 18345
    },
    {
      "scriptpubkey": "a9140231a59aa5b81c9a379b6e218da09a5baee2813e87",
      "scriptpubkey_asm": "OP_HASH160 OP_PUSHBYTES_20 0231a59aa5b81c9a379b6e218da09a5baee2813e OP_EQUAL",
      "scriptpubkey_type": "p2sh",
      "scriptpubkey_address": "31tckTH5yZuSN35FEhP9ufeJLtfMLPYjMZ",
      "value": 70200
    },
    {
      "scriptpubkey": "a914bac6519736144c7704e729b7ca98e047b8424ef487",
      "scriptpubkey_asm": "OP_HASH160 OP_PUSHBYTES_20 bac6519736144c7704e729b7ca98e047b8424ef4 OP_EQUAL",
      "scriptpubkey_type": "p2sh",
      "scriptpubkey_address": "3JibBeerFCN5NgxkUk5mjdMwwBYL3H6Kof",
      "value": 18212
    }
  ],
  "size": 226,
  "weight": 700,
  "fee": 2625,
  "status": {
    "confirmed": true,
    "block_height": 834460,
    "block_hash": "00000000000000000000484a79b643b2524bbce82e5d8a442013fa5b8905ed98",
    "block_time": 1710307468
  },
  "hex": "020000000001014573e759525ca847070e646a3245df4d7cc80d703e67ee2e379637e6127f1f640b00000000fdffffff03a94700000000000022512056df7b1ed2123995e8b0dda4e4cadbbbed66f96b772cf59b98a0d857c4797b28381201000000000017a9140231a59aa5b81c9a379b6e218da09a5baee2813e87244700000000000017a914bac6519736144c7704e729b7ca98e047b8424ef4870140888ae8a51ec06ef9807f52c95606f637d7a3117afb42420f174d262a35cb13562c0a71dd1fb08da90c6ab114c8a93ca3091cd33331b57098933fe2828a08551e00000000"
}