{
  "txid": "5ae7ad71f06b2727223b76b1bdbae43aae5e3000936988b13ca4507ae0252ddb",
  "version": 2,
  "locktime": 0,
  "vin": [
    {
      "txid": "1bb7469a00e4c50618e102533ad0c5b4bedf6fd724397f79036a168a9ca48150",
      "vout": 72,
      "prevout": {
        "scriptpubkey": "00140b66010119f6cd69e1518a2abdd7117db22fdccb",
        "scriptpubkey_asm": "OP_0 OP_PUSHBYTES_20 0b66010119f6cd69e1518a2abdd7117db22fdccb",
        "scriptpubkey_type": "v0_p2wpkh",
        "scriptpubkey_address": "bc1qpdnqzqge7mxknc233g4tm4c30kezlhxt4zpfh0",
        "value": 99434
      },
      "scriptsig": "",
      "scriptsig_asm": "",
      "witness": [
        "3045022100c46b0e5065e081f7fbb0a32a49790d93febf893b3044da3be823bb7c23a5c71a02201ba922f8f87fddc17a6d446a725fa8f58faf199ffd95c81e24503a92e750b19001",
        "02428438969a2b33d9d275f5ba32a352bf873c5b6c1e7ff85607fc817bf9b0b902"
      ],
      "is_coinbase": false,
      "sequence": 4294967293
    }
  ],
  "vout": [
    {
      "scriptpubkey": "a914251c9fcf4b443768cea2cff155adc169b724870687",
      "scriptpubkey_asm": "OP_HASH160 OP_PUSHBYTES_20 251c9fcf4b443768cea2cff155adc169b7248706 OP_EQUAL",
      "scriptpubkey_type": "p2sh",
      "scriptpubkey_address": "355FDVMdmU48zurCqGqPQfUtrvzmrZau3q",
      "value": 96359
    }
  ],
  "size": 193,
  "weight": 442,
  "fee": 3075,
  "status": {
    "confirmed": true,
    "block_height": 834638,
    "block_hash": "000000000000000000025f742c626208ac87e0b7d15054abb4a19ca2d735a54e",
    "block_time": 1710405325
  },
  "hex": "020000000001015081a49c8a166a03797f3924d76fdfbeb4c5d03a5302e11806c5e4009a46b71b4800000000fdffffff01677801000000000017a914251c9fcf4b443768cea2cff155adc169b72487068702483045022100c46b0e5065e081f7fbb0a32a49790d93febf893b3044da3be823bb7c23a5c71a02201ba922f8f87fddc17a6d446a725fa8f58faf199ffd95c81e24503a92e750b190012102428438969a2b33d9d275f5ba32a352bf873c5b6c1e7ff85607fc817bf9b0b90200000000"
}