{
  "txid": "5ae95728013d96066aa5f5769a04f8b23bd69320ecf3372cbb61187dea723783",
  "version": 2,
  "locktime": 834357,
  "vin": [
    {
      "txid": "e56f84a239477a1c74e5980f1076d86d47609447354dddebd8ca00337b2e5cc7",
      "vout": 0,
      "prevout": {
        "scriptpubkey": "0014bad88b13d8a08e80a7d22c1bf70c3a1627dfabf5",
        "scriptpubkey_asm": "OP_0 OP_PUSHBYTES_20 bad88b13d8a08e80a7d22c1bf70c3a1627dfabf5",
        "scriptpubkey_type": "v0_p2wpkh",
        "scriptpubkey_address": "bc1qhtvgky7c5z8gpf7j9sdlwrp6zcnal2l4792f39",
        "value": 15148
      },
      "scriptsig": "",
      "scriptsig_asm": "",
      "witness": [
        "304402205baf262118bf6841705392d1b1c92f1e63bd7680c64205ab8e6d4b7f96af9759022024f5cf57d97c0f083e260aa4aafad6da4cd072fd3f3b266e36a378e096eb2ead01",
        "0389aec7d3a3f273d90bc2a81f8d963ca4e3dee7efe70eb7de1fea16ac1b769c37"
      ],
      "is_coinbase": false,
      "sequence": 4294967293
    }
  ],
  "vout": [
    {
      "scriptpubkey": "001449633e3106ad1860c9b846c234ba45c9260bf250",
      "scriptpubkey_asm": "OP_0 OP_PUSHBYTES_20 49633e3106ad1860c9b846c234ba45c9260bf250",
      "scriptpubkey_type": "v0_p2wpkh",
      "scriptpubkey_address": "bc1qf93nuvgx45vxpjdcgmprfwj9eynqhujstrydls",
      "value": 14372
    }
  ],
  "size": 191,
  "weight": 437,
  "fee": 776,
  "status": {
    "confirmed": true,
    "block_height": 834464,
    "block_hash": "0000000000000000000177a0869a911a2b65c9bdcd5a8bcb02b68f305bee848e",
    "block_time": 1710308296
  },
  "hex": "02000000000101c75c2e7b3300cad8ebdd4d35479460476dd876100f98e5741c7a4739a2846fe50000000000fdffffff01243800000000000016001449633e3106ad1860c9b846c234ba45c9260bf2500247304402205baf262118bf6841705392d1b1c92f1e63bd7680c64205ab8e6d4b7f96af9759022024f5cf57d97c0f083e260aa4aafad6da4cd072fd3f3b266e36a378e096eb2ead01210389aec7d3a3f273d90bc2a81f8d963ca4e3dee7efe70eb7de1fea16ac1b769c3735bb0c00"
}