{
  "txid": "5aee7d5c6afac0c13a80ac03a559ae47592d5e4c104c12cabf1267fc8aca0e02",
  "version": 2,
  "locktime": 0,
  "vin": [
    {
      "txid": "14e2167695fd53b97ae50c0a70e65ac4ef7ad1480621c0c13d9d798945a5d5dc",
      "vout": 10,
      "prevout": {
        "scriptpubkey": "5120b45622da2b01618866597c989ebf099cc33adc87ddb48f905885fda4e22bc315",
        "scriptpubkey_asm": "OP_PUSHNUM_1 OP_PUSHBYTES_32 b45622da2b01618866597c989ebf099cc33adc87ddb48f905885fda4e22bc315",
        "scriptpubkey_type": "v1_p2tr",
        "scriptpubkey_address": "bc1pk3tz9k3tq9scseje0jvfa0cfnnpn4hy8mk6glyzcsh76fc3tcv2sy3sgw8",
        "value": 2862
      },
      "scriptsig": "",
      "scriptsig_asm": "",
      "witness": [
        "5cd93a67788ae63e955700f6764d70f48d7e1c4163730725e37ec8e06b320a77ce0eeaa4ca62c9b19b50b46a53544c866f28cf7f528dbdaf2928e40219bb7452",
        "2044a47bdb374234ea6c864c1811015962030f838d44dc95e676e2877103cc70f7ac0063036f726401011e6170706c69636174696f6e2f6a736f6e3b636861727365743d7574662d38004cd37b2270223a22706f772d3230222c226f70223a226d696e74222c227469636b223a2250455045222c22616d74223a2231303030222c22736f6c7574696f6e223a22504550453a62633170673935386e6b7a747678347271756e78676d747a6c35666e70666b633330776a323770777367396e6c706a786b796e64793671737376386c6b303a303030303030303030303030303030303030303139393431613561653132383937363539383134343239323533333030353762306461393666336465613163353a3630333532353736313936227d68",
        "c0631b34e489e80d4fba35164e5ad52a60d66865df7d7db84d2adbf53ec13ca2a1"
      ],
      "is_coinbase": false,
      "sequence": 4294967295
    }
  ],
  "vout": [
    {
      "scriptpubkey": "5120416879d84b61aa30726646d62fd1330a6d88bdd25782e820b3f8646b126d2681",
      "scriptpubkey_asm": "OP_PUSHNUM_1 OP_PUSHBYTES_32 416879d84b61aa30726646d62fd1330a6d88bdd25782e820b3f8646b126d2681",
      "scriptpubkey_type": "v1_p2tr",
      "scriptpubkey_address": "bc1pg958nkztvx4rqunxgmtzl5fnpfkc30wj27pwsg9nlpjxkyndy6qssv8lk0",
      "value": 546
    }
  ],
  "size": 487,
  "weight": 769,
  "fee": 2316,
  "status": {
    "confirmed": true,
    "block_height": 834460,
    "block_hash": "00000000000000000000484a79b643b2524bbce82e5d8a442013fa5b8905ed98",
    "block_time": 1710307468
  },
  "hex": "02000000000101dcd5a54589799d3dc1c0210648d17aefc45ae6700a0ce57ab953fd957616e2140a00000000ffffffff012202000000000000225120416879d84b61aa30726646d62fd1330a6d88bdd25782e820b3f8646b126d268103405cd93a67788ae63e955700f6764d70f48d7e1c4163730725e37ec8e06b320a77ce0eeaa4ca62c9b19b50b46a53544c866f28cf7f528dbdaf2928e40219bb7452fd20012044a47bdb374234ea6c864c1811015962030f838d44dc95e676e2877103cc70f7ac0063036f726401011e6170706c69636174696f6e2f6a736f6e3b636861727365743d7574662d38004cd37b2270223a22706f772d3230222c226f70223a226d696e74222c227469636b223a2250455045222c22616d74223a2231303030222c22736f6c7574696f6e223a22504550453a62633170673935386e6b7a747678347271756e78676d747a6c35666e70666b633330776a323770777367396e6c706a786b796e64793671737376386c6b303a303030303030303030303030303030303030303139393431613561653132383937363539383134343239323533333030353762306461393666336465613163353a3630333532353736313936227d6821c0631b34e489e80d4fba35164e5ad52a60d66865df7d7db84d2adbf53ec13ca2a100000000"
}