{
  "txid": "5b06bb0eba9746e7f3ba26a6c125c80eda3f27aa88bf753587f6a76c794c3739",
  "version": 2,
  "locktime": 834550,
  "vin": [
    {
      "txid": "4d0bce9712020195facfc8ae8b9901186a65348d8e147b5931e0b859121037af",
      "vout": 0,
      "prevout": {
        "scriptpubkey": "00145c0c0cf34927919fb1dcc94fa9fe3e4360a276f5",
        "scriptpubkey_asm": "OP_0 OP_PUSHBYTES_20 5c0c0cf34927919fb1dcc94fa9fe3e4360a276f5",
        "scriptpubkey_type": "v0_p2wpkh",
        "scriptpubkey_address": "bc1qtsxqeu6fy7gelvwue986nl37gds2yah4akdyfk",
        "value": 5783408
      },
      "scriptsig": "",
      "scriptsig_asm": "",
      "witness": [
        "304402203cacd3bccde68ec8e9e96431785e4ade9fa6c7cb2516e620f2d4f73fd8234fb00220712594e9bd308357840fb1f08f0c6ed2d6b34afb8d74d8e16588b9268ace73b601",
        "03afb3ca4b0a9fb234f02ad08bdc57692016af8b1c06b84f262c43a36e252a4a89"
      ],
      "is_coinbase": false,
      "sequence": 4294967294
    },
    {
      "txid": "2453e78c383e9ace3e0afdac42c46a0fce86329229e7c2cbf586ad254757469e",
      "vout": 0,
      "prevout": {
        "scriptpubkey": "001411e51964fd5cad0bddeca1fb1e591aebeea126e6",
        "scriptpubkey_asm": "OP_0 OP_PUSHBYTES_20 11e51964fd5cad0bddeca1fb1e591aebeea126e6",
        "scriptpubkey_type": "v0_p2wpkh",
        "scriptpubkey_address": "bc1qz8j3je8atjkshh0v58a3ukg6a0h2zfhxwqf3h0",
        "value": 8683177
      },
      "scriptsig": "",
      "scriptsig_asm": "",
      "witness": [
        "304402207a150fa1f2543280757cf04429f440bd99f9f2d1ef7cad177c3cf88070a96ba0022060e228fff9bd56b2d6de844cbbdf19b71122d90300b3b3610e6c9e99067331f601",
        "031214d1dbb76e3a56f2960172ceafca3146ec7a5ea8427582ad3291ef96d82229"
      ],
      "is_coinbase": false,
      "sequence": 4294967294
    },
    {
      "txid": "ab765b28c15de66f28666da86cb0e4b5b439bd1ad85ee0594684e9df2e13e6de",
      "vout": 0,
      "prevout": {
        "scriptpubkey": "001437f84731d3135d841977b88c47075ab14b382849",
        "scriptpubkey_asm": "OP_0 OP_PUSHBYTES_20 37f84731d3135d841977b88c47075ab14b382849",
        "scriptpubkey_type": "v0_p2wpkh",
        "scriptpubkey_address": "bc1qxluywvwnzdwcgxthhzxywp66k99ns2zfgfgdd8",
        "value": 102515
      },
      "scriptsig": "",
      "scriptsig_asm": "",
      "witness": [
        "30440220453f25172665377bec1a3bbfb9c2a981c5da78bccdaf45a40bef03d2a3618d540220564514c99e155f46799cce733ed06738c6b6279a52f716042553a7a079f9f7f601",
        "025ad22ed441751f3cb60814955a0e9a776ad35a5864410214e84aefc60725339f"
      ],
      "is_coinbase": false,
      "sequence": 4294967294
    },
    {
      "txid": "4ae841ec2fa64d21f761eb5a4971f02be52c084da7761e1595a112e12a7dfc9b",
      "vout": 0,
      "prevout": {
        "scriptpubkey": "00147aa25c956de847c9990f1099a2afb7502a212745",
        "scriptpubkey_asm": "OP_0 OP_PUSHBYTES_20 7aa25c956de847c9990f1099a2afb7502a212745",
        "scriptpubkey_type": "v0_p2wpkh",
        "scriptpubkey_address": "bc1q0239e9tdaprunxg0zzv69tah2q4zzf69lfj42z",
        "value": 680447
      },
      "scriptsig": "",
      "scriptsig_asm": "",
      "witness": [
        "304402207b1be9473ff381c649ae3d6d665f99ccd0502fc89c841bb2c03ec32b814354c3022042001417167469f1a14d4a389614ecf4274fed63583156c456e3f96b2e0ab46801",
        "03901dd4c07576535d9fa32625c95c2b60de3319e6a1331518a1680a20ed5d4abb"
      ],
      "is_coinbase": false,
      "sequence": 4294967294
    }
  ],
  "vout": [
    {
      "scriptpubkey": "a9145ef3dd289f45a5df68aabad72661fc611121478b87",
      "scriptpubkey_asm": "OP_HASH160 OP_PUSHBYTES_20 5ef3dd289f45a5df68aabad72661fc611121478b OP_EQUAL",
      "scriptpubkey_type": "p2sh",
      "scriptpubkey_address": "3AM5aY5k1RPPafTEnCPEaaBR3DTBxJrfZ8",
      "value": 15242598
    }
  ],
  "size": 636,
  "weight": 1254,
  "fee": 6949,
  "status": {
    "confirmed": true,
    "block_height": 834552,
    "block_hash": "00000000000000000001dd0468a70c94f619251d286585cff57aeb4bd9ede330",
    "block_time": 1710355598
  },
  "hex": "02000000000104af37101259b8e031597b148e8d34656a1801998baec8cffa9501021297ce0b4d0000000000feffffff9e46574725ad86f5cbc2e729923286ce0f6ac442acfd0a3ece9a3e388ce753240000000000feffffffdee6132edfe9844659e05ed81abd39b4b5e4b06ca86d66286fe65dc1285b76ab0000000000feffffff9bfc7d2ae112a195151e76a74d082ce52bf071495aeb61f7214da62fec41e84a0000000000feffffff016695e8000000000017a9145ef3dd289f45a5df68aabad72661fc611121478b870247304402203cacd3bccde68ec8e9e96431785e4ade9fa6c7cb2516e620f2d4f73fd8234fb00220712594e9bd308357840fb1f08f0c6ed2d6b34afb8d74d8e16588b9268ace73b6012103afb3ca4b0a9fb234f02ad08bdc57692016af8b1c06b84f262c43a36e252a4a890247304402207a150fa1f2543280757cf04429f440bd99f9f2d1ef7cad177c3cf88070a96ba0022060e228fff9bd56b2d6de844cbbdf19b71122d90300b3b3610e6c9e99067331f60121031214d1dbb76e3a56f2960172ceafca3146ec7a5ea8427582ad3291ef96d82229024730440220453f25172665377bec1a3bbfb9c2a981c5da78bccdaf45a40bef03d2a3618d540220564514c99e155f46799cce733ed06738c6b6279a52f716042553a7a079f9f7f60121025ad22ed441751f3cb60814955a0e9a776ad35a5864410214e84aefc60725339f0247304402207b1be9473ff381c649ae3d6d665f99ccd0502fc89c841bb2c03ec32b814354c3022042001417167469f1a14d4a389614ecf4274fed63583156c456e3f96b2e0ab468012103901dd4c07576535d9fa32625c95c2b60de3319e6a1331518a1680a20ed5d4abbf6bb0c00"
}