{
  "txid": "5b2b3f1ed7857040d575b55a58d32b0322a1741e67e6d2c6072ce178f26c8f46",
  "version": 2,
  "locktime": 0,
  "vin": [
    {
      "txid": "1b892e00e8ad5ebdab8793540bd4d1dac3133b0f092e789110cc1b4b99d9ab4f",
      "vout": 0,
      "prevout": {
        "scriptpubkey": "5120bc157a7e9b88daaace49ca402f47f5a4788567313dcbee76128a28e26d3ae8e7",
        "scriptpubkey_asm": "OP_PUSHNUM_1 OP_PUSHBYTES_32 bc157a7e9b88daaace49ca402f47f5a4788567313dcbee76128a28e26d3ae8e7",
        "scriptpubkey_type": "v1_p2tr",
        "scriptpubkey_address": "bc1phs2h5l5m3rd24njfefqz73l453ug2ee38h97uasj3g5wymf6arnszy3wqx",
        "value": 3164
      },
      "scriptsig": "",
      "scriptsig_asm": "",
      "witness": [
        "fb7bdf613e022289ae5bfef3b7bc70ae789cdadd439e7b5f4b8fb16a24e9bf41a86d2397ad4cd65e9c26f2f13e0875dadc15057a4b208744d9ed6b16c185a915",
        "20ea02a77f25f369c3529d79ad241f9fa6f00c7ef9702b27c59def2c073ca80eecac0063036f7264010118746578742f706c61696e3b636861727365743d7574662d3800407b2270223a226272632d3230222c226f70223a227472616e73666572222c227469636b223a2273617478222c22616d74223a223939393939393939393939227d68",
        "c1ea02a77f25f369c3529d79ad241f9fa6f00c7ef9702b27c59def2c073ca80eec"
      ],
      "is_coinbase": false,
      "sequence": 4294967293
    }
  ],
  "vout": [
    {
      "scriptpubkey": "5120cc0cec1234ef55d60e8ba0ab40738e63f02bf578bae17cf8557265e1751f5599",
      "scriptpubkey_asm": "OP_PUSHNUM_1 OP_PUSHBYTES_32 cc0cec1234ef55d60e8ba0ab40738e63f02bf578bae17cf8557265e1751f5599",
      "scriptpubkey_type": "v1_p2tr",
      "scriptpubkey_address": "bc1pesxwcy35aa2avr5t5z45quuwv0czhatchtshe7z4wfj7zagl2kvsphsnjf",
      "value": 546
    }
  ],
  "size": 331,
  "weight": 613,
  "fee": 2618,
  "status": {
    "confirmed": true,
    "block_height": 834638,
    "block_hash": "000000000000000000025f742c626208ac87e0b7d15054abb4a19ca2d735a54e",
    "block_time": 1710405325
  },
  "hex": "020000000001014fabd9994b1bcc1091782e090f3b13c3dad1d40b549387abbd5eade8002e891b0000000000fdffffff012202000000000000225120cc0cec1234ef55d60e8ba0ab40738e63f02bf578bae17cf8557265e1751f55990340fb7bdf613e022289ae5bfef3b7bc70ae789cdadd439e7b5f4b8fb16a24e9bf41a86d2397ad4cd65e9c26f2f13e0875dadc15057a4b208744d9ed6b16c185a9158620ea02a77f25f369c3529d79ad241f9fa6f00c7ef9702b27c59def2c073ca80eecac0063036f7264010118746578742f706c61696e3b636861727365743d7574662d3800407b2270223a226272632d3230222c226f70223a227472616e73666572222c227469636b223a2273617478222c22616d74223a223939393939393939393939227d6821c1ea02a77f25f369c3529d79ad241f9fa6f00c7ef9702b27c59def2c073ca80eec00000000"
}