{
  "txid": "5b389164f3c8e9d099b5a59c4c5f97eebf5d5419b665527a6baebb0be3b4b78f",
  "version": 1,
  "locktime": 0,
  "vin": [
    {
      "txid": "ff46cd5922a2777fec9d1371fd71295296087bc29dcbf1a7d1ea246afe2cd325",
      "vout": 98,
      "prevout": {
        "scriptpubkey": "0014e847b52f7d0be58c36afb7e2bdb999ea37bd12d4",
        "scriptpubkey_asm": "OP_0 OP_PUSHBYTES_20 e847b52f7d0be58c36afb7e2bdb999ea37bd12d4",
        "scriptpubkey_type": "v0_p2wpkh",
        "scriptpubkey_address": "bc1qaprm2tmap0jccd40kl3tmwveagmm6yk5zf7x6x",
        "value": 686361
      },
      "scriptsig": "",
      "scriptsig_asm": "",
      "witness": [
        "304402205cea9af2cca774de04eb27ab3dfac410829ba1eff7c18aadf29742a126143e6b02204a4611ba5dd7b7ccd174cb3dbf4189d973279e7fc845a928c3589523ae897e0301",
        "02d9baceedc19e15ff49404058d30f340cfdccc00db0aaccd2e3f3e2475c3ce4d7"
      ],
      "is_coinbase": false,
      "sequence": 4294967295
    }
  ],
  "vout": [
    {
      "scriptpubkey": "a914754acbd08b2164f791c23ff7726dc6ab0b25a88b87",
      "scriptpubkey_asm": "OP_HASH160 OP_PUSHBYTES_20 754acbd08b2164f791c23ff7726dc6ab0b25a88b OP_EQUAL",
      "scriptpubkey_type": "p2sh",
      "scriptpubkey_address": "3CPCav4H2AuvVFx42sZmBZ1gBoVHHYzibo",
      "value": 272637
    },
    {
      "scriptpubkey": "0014e847b52f7d0be58c36afb7e2bdb999ea37bd12d4",
      "scriptpubkey_asm": "OP_0 OP_PUSHBYTES_20 e847b52f7d0be58c36afb7e2bdb999ea37bd12d4",
      "scriptpubkey_type": "v0_p2wpkh",
      "scriptpubkey_address": "bc1qaprm2tmap0jccd40kl3tmwveagmm6yk5zf7x6x",
      "value": 409890
    }
  ],
  "size": 223,
  "weight": 565,
  "fee": 3834,
  "status": {
    "confirmed": true,
    "block_height": 834638,
    "block_hash": "000000000000000000025f742c626208ac87e0b7d15054abb4a19ca2d735a54e",
    "block_time": 1710405325
  },
  "hex": "0100000000010125d32cfe6a24ead1a7f1cb9dc27b0896522971fd71139dec7f77a22259cd46ff6200000000ffffffff02fd2804000000000017a914754acbd08b2164f791c23ff7726dc6ab0b25a88b872241060000000000160014e847b52f7d0be58c36afb7e2bdb999ea37bd12d40247304402205cea9af2cca774de04eb27ab3dfac410829ba1eff7c18aadf29742a126143e6b02204a4611ba5dd7b7ccd174cb3dbf4189d973279e7fc845a928c3589523ae897e03012102d9baceedc19e15ff49404058d30f340cfdccc00db0aaccd2e3f3e2475c3ce4d700000000"
}