{
  "txid": "5b3a5ed5bf5ad545126ef0cce21c2441b7e6906bd28c1ead2fa9ded5e2747dd7",
  "version": 2,
  "locktime": 0,
  "vin": [
    {
      "txid": "acc3ba00869acb582a3f2904ce3a11dd3779350ce234063fc7d0959246213364",
      "vout": 131,
      "prevout": {
        "scriptpubkey": "5120f0cdcf21eff528f5a90187876202b4e5f357aa4ba3cd8ffe092f5547f3bef69d",
        "scriptpubkey_asm": "OP_PUSHNUM_1 OP_PUSHBYTES_32 f0cdcf21eff528f5a90187876202b4e5f357aa4ba3cd8ffe092f5547f3bef69d",
        "scriptpubkey_type": "v1_p2tr",
        "scriptpubkey_address": "bc1p7rxu7g007550t2gps7rkyq45uhe402jt50xcllsf9a250ua776ws7tvjln",
        "value": 1806
      },
      "scriptsig": "",
      "scriptsig_asm": "",
      "witness": [
        "74318b38e773b6962139863b8aaf3cb27c18e62817c9636a2b9f659d3c2f8f5d5772cb93fc341b4d345fae5181d16d8e22eebbafad74ed9ae6a8d238bee9a988",
        "200146ee899df75271bceaafcc4493bdf0a55d7dc2682f5e3dcc5fea61f2021b89ac0063036f726401010a746578742f706c61696e00357b2270223a226272632d3230222c226f70223a226d696e74222c227469636b223a22646f6765222c22616d74223a2234323030227d68",
        "c10146ee899df75271bceaafcc4493bdf0a55d7dc2682f5e3dcc5fea61f2021b89"
      ],
      "is_coinbase": false,
      "sequence": 4261412863
    }
  ],
  "vout": [
    {
      "scriptpubkey": "00147a665de7a370f4c9b372ab1fae587500a5bcbdb4",
      "scriptpubkey_asm": "OP_0 OP_PUSHBYTES_20 7a665de7a370f4c9b372ab1fae587500a5bcbdb4",
      "scriptpubkey_type": "v0_p2wpkh",
      "scriptpubkey_address": "bc1q0fn9mearwr6vnvmj4v06ukr4qzjme0d565dzcx",
      "value": 294
    }
  ],
  "size": 294,
  "weight": 540,
  "fee": 1512,
  "status": {
    "confirmed": true,
    "block_height": 834460,
    "block_hash": "00000000000000000000484a79b643b2524bbce82e5d8a442013fa5b8905ed98",
    "block_time": 1710307468
  },
  "hex": "02000000000101643321469295d0c73f0634e20c357937dd113ace04293f2a58cb9a8600bac3ac8300000000fffffffd0126010000000000001600147a665de7a370f4c9b372ab1fae587500a5bcbdb4034074318b38e773b6962139863b8aaf3cb27c18e62817c9636a2b9f659d3c2f8f5d5772cb93fc341b4d345fae5181d16d8e22eebbafad74ed9ae6a8d238bee9a9886d200146ee899df75271bceaafcc4493bdf0a55d7dc2682f5e3dcc5fea61f2021b89ac0063036f726401010a746578742f706c61696e00357b2270223a226272632d3230222c226f70223a226d696e74222c227469636b223a22646f6765222c22616d74223a2234323030227d6821c10146ee899df75271bceaafcc4493bdf0a55d7dc2682f5e3dcc5fea61f2021b8900000000"
}