{
  "txid": "5b4a6f3ec40c0e6721cf2848c6ebf1b12f862eaeeac74b2677567c5e32754996",
  "version": 1,
  "locktime": 0,
  "vin": [
    {
      "txid": "984ee3dba2661f23bb9144faf21afe1c91b708714b9586e6248f57273c3bd294",
      "vout": 0,
      "prevout": {
        "scriptpubkey": "0014c452645d0b682a89c2173aac0d1deef95bed1c38",
        "scriptpubkey_asm": "OP_0 OP_PUSHBYTES_20 c452645d0b682a89c2173aac0d1deef95bed1c38",
        "scriptpubkey_type": "v0_p2wpkh",
        "scriptpubkey_address": "bc1qc3fxghgtdq4gnssh82kq680wl9d768pc5t7j78",
        "value": 775100
      },
      "scriptsig": "",
      "scriptsig_asm": "",
      "witness": [
        "304502210092a0dadffa5db82a9a7b4b92ef1917734eb91c8e601f43acb66220bf64f35db602202e41834b6b7d06eace3aed21f47cc0867ac06dfb29b664f0269fb64831f23b1101",
        "031f99e790dec9ebed04854e193d48005f75788e048514e99ccf378df2d948b152"
      ],
      "is_coinbase": false,
      "sequence": 4294967295
    },
    {
      "txid": "3aa12908df6a924b4652a88ac133cff08b21c822458fb50130a5b4fb10ceb4e4",
      "vout": 0,
      "prevout": {
        "scriptpubkey": "0014c452645d0b682a89c2173aac0d1deef95bed1c38",
        "scriptpubkey_asm": "OP_0 OP_PUSHBYTES_20 c452645d0b682a89c2173aac0d1deef95bed1c38",
        "scriptpubkey_type": "v0_p2wpkh",
        "scriptpubkey_address": "bc1qc3fxghgtdq4gnssh82kq680wl9d768pc5t7j78",
        "value": 946477
      },
      "scriptsig": "",
      "scriptsig_asm": "",
      "witness": [
        "3045022100ef50b8fea8bfa5ccfeafc4082a2f2d112756963f183f732e14d7991561b1e43402205ba168fca992aaa5dd3b0c754612bfc76696003c8bae8b6966438e9e5874213101",
        "031f99e790dec9ebed04854e193d48005f75788e048514e99ccf378df2d948b152"
      ],
      "is_coinbase": false,
      "sequence": 4294967295
    }
  ],
  "vout": [
    {
      "scriptpubkey": "00148626be918fcc0500daabe4cecc7645af126ebbd3",
      "scriptpubkey_asm": "OP_0 OP_PUSHBYTES_20 8626be918fcc0500daabe4cecc7645af126ebbd3",
      "scriptpubkey_type": "v0_p2wpkh",
      "scriptpubkey_address": "bc1qscntayv0eszspk4tun8vcaj94ufxaw7n808g0z",
      "value": 1500000
    },
    {
      "scriptpubkey": "0014c452645d0b682a89c2173aac0d1deef95bed1c38",
      "scriptpubkey_asm": "OP_0 OP_PUSHBYTES_20 c452645d0b682a89c2173aac0d1deef95bed1c38",
      "scriptpubkey_type": "v0_p2wpkh",
      "scriptpubkey_address": "bc1qc3fxghgtdq4gnssh82kq680wl9d768pc5t7j78",
      "value": 215934
    }
  ],
  "size": 372,
  "weight": 834,
  "fee": 5643,
  "status": {
    "confirmed": true,
    "block_height": 834638,
    "block_hash": "000000000000000000025f742c626208ac87e0b7d15054abb4a19ca2d735a54e",
    "block_time": 1710405325
  },
  "hex": "0100000000010294d23b3c27578f24e686954b7108b7911cfe1af2fa4491bb231f66a2dbe34e980000000000ffffffffe4b4ce10fbb4a53001b58f4522c8218bf0cf33c18aa852464b926adf0829a13a0000000000ffffffff0260e31600000000001600148626be918fcc0500daabe4cecc7645af126ebbd37e4b030000000000160014c452645d0b682a89c2173aac0d1deef95bed1c380248304502210092a0dadffa5db82a9a7b4b92ef1917734eb91c8e601f43acb66220bf64f35db602202e41834b6b7d06eace3aed21f47cc0867ac06dfb29b664f0269fb64831f23b110121031f99e790dec9ebed04854e193d48005f75788e048514e99ccf378df2d948b15202483045022100ef50b8fea8bfa5ccfeafc4082a2f2d112756963f183f732e14d7991561b1e43402205ba168fca992aaa5dd3b0c754612bfc76696003c8bae8b6966438e9e587421310121031f99e790dec9ebed04854e193d48005f75788e048514e99ccf378df2d948b15200000000"
}