{
  "txid": "5b597fbb7be25b9726e4b7b9e7b3c29ea50520b511c5d614e3998355c16c301c",
  "version": 2,
  "locktime": 0,
  "vin": [
    {
      "txid": "659b82bf51c32df260f3e3563d90fcbcb0098209af4d18020ca9e1a619ccc8c8",
      "vout": 8,
      "prevout": {
        "scriptpubkey": "5120f54b047b6ce79c1970a5d291c8dd10c712860c43b4e251a60b56f5d5cb9cf157",
        "scriptpubkey_asm": "OP_PUSHNUM_1 OP_PUSHBYTES_32 f54b047b6ce79c1970a5d291c8dd10c712860c43b4e251a60b56f5d5cb9cf157",
        "scriptpubkey_type": "v1_p2tr",
        "scriptpubkey_address": "bc1p749sg7mvu7wpju9962gu3hgscufgvrzrkn39rfst2m6atjuu79tsmsrzn9",
        "value": 1931
      },
      "scriptsig": "",
      "scriptsig_asm": "",
      "witness": [
        "e2fb8b9ec7293df718379e4ded9f2db35500038e70375d01a08139b992b1139bc622180e9d3f7885a719ed88f19540bcb35d29d4b31c5dfd8a83e9021b6315c8",
        "20b1006ac20b3c4771e177850bbf1c1ef03454bc95716a481f9b7e120c297da8d3ac0063036f726401010a746578742f706c61696e00367b2270223a226272632d3230222c226f70223a226d696e74222c227469636b223a2261616161222c22616d74223a223130303030227d68",
        "c0b1006ac20b3c4771e177850bbf1c1ef03454bc95716a481f9b7e120c297da8d3"
      ],
      "is_coinbase": false,
      "sequence": 4261412863
    }
  ],
  "vout": [
    {
      "scriptpubkey": "0014be9f0c070a9b1bd40f5fcb06fba89738d936ceb6",
      "scriptpubkey_asm": "OP_0 OP_PUSHBYTES_20 be9f0c070a9b1bd40f5fcb06fba89738d936ceb6",
      "scriptpubkey_type": "v0_p2wpkh",
      "scriptpubkey_address": "bc1qh60scpc2nvdagr6levr0h2yh8rvndn4k4v5s9g",
      "value": 294
    }
  ],
  "size": 295,
  "weight": 541,
  "fee": 1637,
  "status": {
    "confirmed": true,
    "block_height": 834460,
    "block_hash": "00000000000000000000484a79b643b2524bbce82e5d8a442013fa5b8905ed98",
    "block_time": 1710307468
  },
  "hex": "02000000000101c8c8cc19a6e1a90c02184daf098209b0bcfc903d56e3f360f22dc351bf829b650800000000fffffffd012601000000000000160014be9f0c070a9b1bd40f5fcb06fba89738d936ceb60340e2fb8b9ec7293df718379e4ded9f2db35500038e70375d01a08139b992b1139bc622180e9d3f7885a719ed88f19540bcb35d29d4b31c5dfd8a83e9021b6315c86e20b1006ac20b3c4771e177850bbf1c1ef03454bc95716a481f9b7e120c297da8d3ac0063036f726401010a746578742f706c61696e00367b2270223a226272632d3230222c226f70223a226d696e74222c227469636b223a2261616161222c22616d74223a223130303030227d6821c0b1006ac20b3c4771e177850bbf1c1ef03454bc95716a481f9b7e120c297da8d300000000"
}