{
  "txid": "5b5b51307ebffc18b9f2354486f92c47d74be0419e5a8a16303dd1024c8d96f0",
  "version": 2,
  "locktime": 0,
  "vin": [
    {
      "txid": "acc3ba00869acb582a3f2904ce3a11dd3779350ce234063fc7d0959246213364",
      "vout": 61,
      "prevout": {
        "scriptpubkey": "51204719f022d4c36399fe9d833499a9d833ccca47fe7dc2077bae7f42d25f6c3332",
        "scriptpubkey_asm": "OP_PUSHNUM_1 OP_PUSHBYTES_32 4719f022d4c36399fe9d833499a9d833ccca47fe7dc2077bae7f42d25f6c3332",
        "scriptpubkey_type": "v1_p2tr",
        "scriptpubkey_address": "bc1pguvlqgk5cd3enl5asv6fn2wcx0xv53l70hpqw7aw0apdyhmvxveq0mf0j5",
        "value": 1806
      },
      "scriptsig": "",
      "scriptsig_asm": "",
      "witness": [
        "6517eecab8c8471d87848dccff66da5f342367f94a7b54d38367cf971e4e7bddba2472da338e2410859fdb39603346a215ba1b925e524c628d148b30ba988575",
        "20636b1f7edc251b894c3abd0e16c94edecdbe04da7df24c20f14315a021a7a234ac0063036f726401010a746578742f706c61696e00357b2270223a226272632d3230222c226f70223a226d696e74222c227469636b223a22646f6765222c22616d74223a2234323030227d68",
        "c0636b1f7edc251b894c3abd0e16c94edecdbe04da7df24c20f14315a021a7a234"
      ],
      "is_coinbase": false,
      "sequence": 4261412863
    }
  ],
  "vout": [
    {
      "scriptpubkey": "00147a665de7a370f4c9b372ab1fae587500a5bcbdb4",
      "scriptpubkey_asm": "OP_0 OP_PUSHBYTES_20 7a665de7a370f4c9b372ab1fae587500a5bcbdb4",
      "scriptpubkey_type": "v0_p2wpkh",
      "scriptpubkey_address": "bc1q0fn9mearwr6vnvmj4v06ukr4qzjme0d565dzcx",
      "value": 294
    }
  ],
  "size": 294,
  "weight": 540,
  "fee": 1512,
  "status": {
    "confirmed": true,
    "block_height": 834460,
    "block_hash": "00000000000000000000484a79b643b2524bbce82e5d8a442013fa5b8905ed98",
    "block_time": 1710307468
  },
  "hex": "02000000000101643321469295d0c73f0634e20c357937dd113ace04293f2a58cb9a8600bac3ac3d00000000fffffffd0126010000000000001600147a665de7a370f4c9b372ab1fae587500a5bcbdb403406517eecab8c8471d87848dccff66da5f342367f94a7b54d38367cf971e4e7bddba2472da338e2410859fdb39603346a215ba1b925e524c628d148b30ba9885756d20636b1f7edc251b894c3abd0e16c94edecdbe04da7df24c20f14315a021a7a234ac0063036f726401010a746578742f706c61696e00357b2270223a226272632d3230222c226f70223a226d696e74222c227469636b223a22646f6765222c22616d74223a2234323030227d6821c0636b1f7edc251b894c3abd0e16c94edecdbe04da7df24c20f14315a021a7a23400000000"
}