{
  "txid": "5b5fd1b7048bca4897e02fe879a1a9430a877bc058b386995ddf0e8df17b1465",
  "version": 2,
  "locktime": 0,
  "vin": [
    {
      "txid": "955fb2eaaf3a88c88e260c4d1bc71967f62ff3080f5b338f6d87860878462b66",
      "vout": 2,
      "prevout": {
        "scriptpubkey": "51209abffbc9f12cedba1d46caf308806f3f5099029f780a59bc7546f2609b652715",
        "scriptpubkey_asm": "OP_PUSHNUM_1 OP_PUSHBYTES_32 9abffbc9f12cedba1d46caf308806f3f5099029f780a59bc7546f2609b652715",
        "scriptpubkey_type": "v1_p2tr",
        "scriptpubkey_address": "bc1pn2llhj039nkm582xetes3qr08agfjq5l0q99n0r4gmexpxm9yu2s6ye5fe",
        "value": 2753
      },
      "scriptsig": "",
      "scriptsig_asm": "",
      "witness": [
        "7e053e3170d73d9a88a3eabb73dc627d908aff752a30ce739db0e9a19570ab228cf2e1a5424e95893f50aa04bf44b9fe34142314776f154d02fbb4f5702f6645",
        "2074c9aad624feedb723bd70fc697ae30c1935c547d9b21f66ff95e51c9a2a6772ac0063036f726401010a746578742f706c61696e004c8f7b2270223a2022746170222c20226f70223a2022646d742d6d696e74222c2022646570223a2022333962373532343338626533613435326464623731376230613635346233313662316164343661383139656234343831383933626337313331663738396539616930222c20227469636b223a20226e61746f776c73222c2022626c6b223a2022373035373634227d68",
        "c074c9aad624feedb723bd70fc697ae30c1935c547d9b21f66ff95e51c9a2a6772"
      ],
      "is_coinbase": false,
      "sequence": 4294967293
    }
  ],
  "vout": [
    {
      "scriptpubkey": "5120875b27e2ebaa1189ad1777eb124b8f0cd3dfe933d9a47622ffca147caaca54b5",
      "scriptpubkey_asm": "OP_PUSHNUM_1 OP_PUSHBYTES_32 875b27e2ebaa1189ad1777eb124b8f0cd3dfe933d9a47622ffca147caaca54b5",
      "scriptpubkey_type": "v1_p2tr",
      "scriptpubkey_address": "bc1psadj0cht4ggcntghwl43yju0pnfal6fnmxj8vghleg28e2k22j6s05x69l",
      "value": 546
    }
  ],
  "size": 397,
  "weight": 679,
  "fee": 2207,
  "status": {
    "confirmed": true,
    "block_height": 834460,
    "block_hash": "00000000000000000000484a79b643b2524bbce82e5d8a442013fa5b8905ed98",
    "block_time": 1710307468
  },
  "hex": "02000000000101662b46780886876d8f335b0f08f32ff66719c71b4d0c268ec8883aafeab25f950200000000fdffffff012202000000000000225120875b27e2ebaa1189ad1777eb124b8f0cd3dfe933d9a47622ffca147caaca54b503407e053e3170d73d9a88a3eabb73dc627d908aff752a30ce739db0e9a19570ab228cf2e1a5424e95893f50aa04bf44b9fe34142314776f154d02fbb4f5702f6645c82074c9aad624feedb723bd70fc697ae30c1935c547d9b21f66ff95e51c9a2a6772ac0063036f726401010a746578742f706c61696e004c8f7b2270223a2022746170222c20226f70223a2022646d742d6d696e74222c2022646570223a2022333962373532343338626533613435326464623731376230613635346233313662316164343661383139656234343831383933626337313331663738396539616930222c20227469636b223a20226e61746f776c73222c2022626c6b223a2022373035373634227d6821c074c9aad624feedb723bd70fc697ae30c1935c547d9b21f66ff95e51c9a2a677200000000"
}