{
  "txid": "5b71a31a8221ac35b163d2bb9ef77a66573c92549afcc0cec4e03e1234981607",
  "version": 2,
  "locktime": 0,
  "vin": [
    {
      "txid": "b9f357d83cb3c7e1a11f861540f2ef8f0eb87871f723f91f9a708db0db1bcabf",
      "vout": 17,
      "prevout": {
        "scriptpubkey": "51203de961c4939da2f2ca97e5a4641fa6a819d4864bf83592da4f84c00fb16b459b",
        "scriptpubkey_asm": "OP_PUSHNUM_1 OP_PUSHBYTES_32 3de961c4939da2f2ca97e5a4641fa6a819d4864bf83592da4f84c00fb16b459b",
        "scriptpubkey_type": "v1_p2tr",
        "scriptpubkey_address": "bc1p8h5kr3ynnk309j5hukjxg8ax4qvafpjtlq6e9kj0snqqlvttgkds29jvvp",
        "value": 2862
      },
      "scriptsig": "",
      "scriptsig_asm": "",
      "witness": [
        "11e9c699e461c7eea7543d67dcded1c88b45792bfc31cc642ab94065d7ea62809d850d4355f2da53019cd97d81434d255d134c5cc33cb59f261395f785f6df2f",
        "2059c6c4451ee9c8777640f987147feef020c311083922b20831e02d5c01510ca5ac0063036f726401011e6170706c69636174696f6e2f6a736f6e3b636861727365743d7574662d38004cd37b2270223a22706f772d3230222c226f70223a226d696e74222c227469636b223a2250455045222c22616d74223a2231303030222c22736f6c7574696f6e223a22504550453a62633170646c6a6d747a783365646e716e7572366332786c6c3277726472787a636e72373270333874636a6b736476306b726c67643268737a3279767a6c3a303030303030303030303030303030303030303139393431613561653132383937363539383134343239323533333030353762306461393666336465613163353a3134353833373934333732227d68",
        "c096123be632ec23e42a1daadb49c59b3ad8ca39108d2d31b6eff3b52b525d1622"
      ],
      "is_coinbase": false,
      "sequence": 4294967295
    }
  ],
  "vout": [
    {
      "scriptpubkey": "51206fe5b588d1cb6609f07ac28dffa9c368cc2c4c7e506275e2568358fb0fe86aaf",
      "scriptpubkey_asm": "OP_PUSHNUM_1 OP_PUSHBYTES_32 6fe5b588d1cb6609f07ac28dffa9c368cc2c4c7e506275e2568358fb0fe86aaf",
      "scriptpubkey_type": "v1_p2tr",
      "scriptpubkey_address": "bc1pdljmtzx3ednqnur6c2xll2wrdrxzcnr72p38tcjksdv0krlgd2hsz2yvzl",
      "value": 546
    }
  ],
  "size": 487,
  "weight": 769,
  "fee": 2316,
  "status": {
    "confirmed": true,
    "block_height": 834460,
    "block_hash": "00000000000000000000484a79b643b2524bbce82e5d8a442013fa5b8905ed98",
    "block_time": 1710307468
  },
  "hex": "02000000000101bfca1bdbb08d709a1ff923f77178b80e8feff24015861fa1e1c7b33cd857f3b91100000000ffffffff0122020000000000002251206fe5b588d1cb6609f07ac28dffa9c368cc2c4c7e506275e2568358fb0fe86aaf034011e9c699e461c7eea7543d67dcded1c88b45792bfc31cc642ab94065d7ea62809d850d4355f2da53019cd97d81434d255d134c5cc33cb59f261395f785f6df2ffd20012059c6c4451ee9c8777640f987147feef020c311083922b20831e02d5c01510ca5ac0063036f726401011e6170706c69636174696f6e2f6a736f6e3b636861727365743d7574662d38004cd37b2270223a22706f772d3230222c226f70223a226d696e74222c227469636b223a2250455045222c22616d74223a2231303030222c22736f6c7574696f6e223a22504550453a62633170646c6a6d747a783365646e716e7572366332786c6c3277726472787a636e72373270333874636a6b736476306b726c67643268737a3279767a6c3a303030303030303030303030303030303030303139393431613561653132383937363539383134343239323533333030353762306461393666336465613163353a3134353833373934333732227d6821c096123be632ec23e42a1daadb49c59b3ad8ca39108d2d31b6eff3b52b525d162200000000"
}