{
  "txid": "5b87326e1ea8b276f28801c5f4d249ca530fcc257c6944305f68e4e052972643",
  "version": 1,
  "locktime": 0,
  "vin": [
    {
      "txid": "44df7d94dd336f8bcc813ef1edfbfd3cbe44cac0febe8c06458e70d8675254c6",
      "vout": 1,
      "prevout": {
        "scriptpubkey": "0014510e76a4eea4a24562dc0635688a883a93bdc1dc",
        "scriptpubkey_asm": "OP_0 OP_PUSHBYTES_20 510e76a4eea4a24562dc0635688a883a93bdc1dc",
        "scriptpubkey_type": "v0_p2wpkh",
        "scriptpubkey_address": "bc1q2y88df8w5j3y2ckuqc6k3z5g82fmmswu3ch4a8",
        "value": 807771
      },
      "scriptsig": "",
      "scriptsig_asm": "",
      "witness": [
        "3045022100e673cbfea925c9d77867d544ef0f9b9ea37632325039522411da3bab2394e0c6022014e8c404fc6c2e6d10453bd4a4d7d7606cccf2ff75014ee3c8ae962413c774f401",
        "02949b33dd9cbf6d27544710ffe9bfa5c9c6d15bacf4ba9cde2809611d16b514ac"
      ],
      "is_coinbase": false,
      "sequence": 4294967295
    }
  ],
  "vout": [
    {
      "scriptpubkey": "001449a8d0960ba269f25badb6110d3a49d732616980",
      "scriptpubkey_asm": "OP_0 OP_PUSHBYTES_20 49a8d0960ba269f25badb6110d3a49d732616980",
      "scriptpubkey_type": "v0_p2wpkh",
      "scriptpubkey_address": "bc1qfx5dp9st5f5lykadkcgs6wjf6uexz6vqgp4v9m",
      "value": 683724
    },
    {
      "scriptpubkey": "001425b699abefd815b0c0cab4b3c43005f260bcadef",
      "scriptpubkey_asm": "OP_0 OP_PUSHBYTES_20 25b699abefd815b0c0cab4b3c43005f260bcadef",
      "scriptpubkey_type": "v0_p2wpkh",
      "scriptpubkey_address": "bc1qykmfn2l0mq2mpsx2kjeugvq97fstet00670gca",
      "value": 120413
    }
  ],
  "size": 223,
  "weight": 562,
  "fee": 3634,
  "status": {
    "confirmed": true,
    "block_height": 834638,
    "block_hash": "000000000000000000025f742c626208ac87e0b7d15054abb4a19ca2d735a54e",
    "block_time": 1710405325
  },
  "hex": "01000000000101c6545267d8708e45068cbefec0ca44be3cfdfbedf13e81cc8b6f33dd947ddf440100000000ffffffff02cc6e0a000000000016001449a8d0960ba269f25badb6110d3a49d7326169805dd601000000000016001425b699abefd815b0c0cab4b3c43005f260bcadef02483045022100e673cbfea925c9d77867d544ef0f9b9ea37632325039522411da3bab2394e0c6022014e8c404fc6c2e6d10453bd4a4d7d7606cccf2ff75014ee3c8ae962413c774f4012102949b33dd9cbf6d27544710ffe9bfa5c9c6d15bacf4ba9cde2809611d16b514ac00000000"
}