{
  "txid": "5bc8bebe7854329a8c85d7aa6d8936010267ea8ceee4217bb047ea6bca7d5fb6",
  "version": 1,
  "locktime": 0,
  "vin": [
    {
      "txid": "da3e04370f9febac1ca8bc1fa62850f4f63d85f5d4ff2a2266f3a6f04fc3dd87",
      "vout": 1,
      "prevout": {
        "scriptpubkey": "001475cdcc8a26f6fb878a0cbc30eaab6e95eae072cf",
        "scriptpubkey_asm": "OP_0 OP_PUSHBYTES_20 75cdcc8a26f6fb878a0cbc30eaab6e95eae072cf",
        "scriptpubkey_type": "v0_p2wpkh",
        "scriptpubkey_address": "bc1qwhxuez3x7mac0zsvhscw42mwjh4wquk0rv9gha",
        "value": 182634
      },
      "scriptsig": "",
      "scriptsig_asm": "",
      "witness": [
        "304402201539b20ecc0cb4475691287cbd73b1381d90095f44d5b40240c7c35aad2795b70220025f46849ae7a8c4e0ed7b53b95df3e6b837d7e1eb09ecc36af7f60d189c1b1901",
        "032d191906de11609fd0655861968323f2e5efe08921eba867cada203241c2ef48"
      ],
      "is_coinbase": false,
      "sequence": 4294967295
    }
  ],
  "vout": [
    {
      "scriptpubkey": "0014c56a504d2392d65a8df722feb6703ab0bb9a6044",
      "scriptpubkey_asm": "OP_0 OP_PUSHBYTES_20 c56a504d2392d65a8df722feb6703ab0bb9a6044",
      "scriptpubkey_type": "v0_p2wpkh",
      "scriptpubkey_address": "bc1qc449qnfrjtt94r0hytltvup6kzae5czy53h3w9",
      "value": 100000
    },
    {
      "scriptpubkey": "001475cdcc8a26f6fb878a0cbc30eaab6e95eae072cf",
      "scriptpubkey_asm": "OP_0 OP_PUSHBYTES_20 75cdcc8a26f6fb878a0cbc30eaab6e95eae072cf",
      "scriptpubkey_type": "v0_p2wpkh",
      "scriptpubkey_address": "bc1qwhxuez3x7mac0zsvhscw42mwjh4wquk0rv9gha",
      "value": 78827
    }
  ],
  "size": 222,
  "weight": 561,
  "fee": 3807,
  "status": {
    "confirmed": true,
    "block_height": 834638,
    "block_hash": "000000000000000000025f742c626208ac87e0b7d15054abb4a19ca2d735a54e",
    "block_time": 1710405325
  },
  "hex": "0100000000010187ddc34ff0a6f366222affd4f5853df6f45028a61fbca81caceb9f0f37043eda0100000000ffffffff02a086010000000000160014c56a504d2392d65a8df722feb6703ab0bb9a6044eb3301000000000016001475cdcc8a26f6fb878a0cbc30eaab6e95eae072cf0247304402201539b20ecc0cb4475691287cbd73b1381d90095f44d5b40240c7c35aad2795b70220025f46849ae7a8c4e0ed7b53b95df3e6b837d7e1eb09ecc36af7f60d189c1b190121032d191906de11609fd0655861968323f2e5efe08921eba867cada203241c2ef4800000000"
}