{
  "txid": "5bcad6dc58b6a2568ef82fdfef18f5cc8e5f189cdf43423ddb4234745de64194",
  "version": 2,
  "locktime": 0,
  "vin": [
    {
      "txid": "79708ea6c6cec0112732c6b2a35138400713db053b996cf306586e6ffd58d5ab",
      "vout": 0,
      "prevout": {
        "scriptpubkey": "0014a493489de7c9fefc69a9c833e1c8886568348362",
        "scriptpubkey_asm": "OP_0 OP_PUSHBYTES_20 a493489de7c9fefc69a9c833e1c8886568348362",
        "scriptpubkey_type": "v0_p2wpkh",
        "scriptpubkey_address": "bc1q5jf53808e8l0c6dfeqe7rjygv45rfqmzjdtg0z",
        "value": 1097519
      },
      "scriptsig": "",
      "scriptsig_asm": "",
      "witness": [
        "3044022072f2a47d0ab3b934ae2aad5ecd90d8db2c53f9505f7f1535204745ba3100620802203a0a59b8dd1b1d8224f8f39f019d30a1d3261c5cc1a6e6b8545caeff564f370b01",
        "03669bbfd9605b98bff9c080a2e1269cc8c4e2cfb5cc7caec64b84cf0e156716f1"
      ],
      "is_coinbase": false,
      "sequence": 4294967295
    }
  ],
  "vout": [
    {
      "scriptpubkey": "0014de0f1de6dc10c6ba699db267335a6d830d47ca49",
      "scriptpubkey_asm": "OP_0 OP_PUSHBYTES_20 de0f1de6dc10c6ba699db267335a6d830d47ca49",
      "scriptpubkey_type": "v0_p2wpkh",
      "scriptpubkey_address": "bc1qmc83mekuzrrt56vakfnnxkndsvx50jjf63dkyy",
      "value": 1087829
    },
    {
      "scriptpubkey": "76a9141aa62fe80a7aa5023310d3b082c86099a791a61588ac",
      "scriptpubkey_asm": "OP_DUP OP_HASH160 OP_PUSHBYTES_20 1aa62fe80a7aa5023310d3b082c86099a791a615 OP_EQUALVERIFY OP_CHECKSIG",
      "scriptpubkey_type": "p2pkh",
      "scriptpubkey_address": "13RuesapAeesUD7ZsrhT9caPhMeAgdLd7P",
      "value": 6798
    }
  ],
  "size": 225,
  "weight": 573,
  "fee": 2892,
  "status": {
    "confirmed": true,
    "block_height": 834638,
    "block_hash": "000000000000000000025f742c626208ac87e0b7d15054abb4a19ca2d735a54e",
    "block_time": 1710405325
  },
  "hex": "02000000000101abd558fd6f6e5806f36c993b05db1307403851a3b2c6322711c0cec6a68e70790000000000ffffffff025599100000000000160014de0f1de6dc10c6ba699db267335a6d830d47ca498e1a0000000000001976a9141aa62fe80a7aa5023310d3b082c86099a791a61588ac02473044022072f2a47d0ab3b934ae2aad5ecd90d8db2c53f9505f7f1535204745ba3100620802203a0a59b8dd1b1d8224f8f39f019d30a1d3261c5cc1a6e6b8545caeff564f370b012103669bbfd9605b98bff9c080a2e1269cc8c4e2cfb5cc7caec64b84cf0e156716f100000000"
}