{
  "txid": "5bdeae4ee68af5210922d314535640186268012bf24185616f8ab169c614b56a",
  "version": 1,
  "locktime": 0,
  "vin": [
    {
      "txid": "308703e2a4b42e80864ce2a804b9a016ebb77744dd6b520e4b60dba5c203c114",
      "vout": 0,
      "prevout": {
        "scriptpubkey": "0014dc6bf86354105de2fcd9868a2b0376d6731cb92f",
        "scriptpubkey_asm": "OP_0 OP_PUSHBYTES_20 dc6bf86354105de2fcd9868a2b0376d6731cb92f",
        "scriptpubkey_type": "v0_p2wpkh",
        "scriptpubkey_address": "bc1qm34lsc65zpw79lxes69zkqmk6ee3ewf0j77s3h",
        "value": 10669346152
      },
      "scriptsig": "",
      "scriptsig_asm": "",
      "witness": [
        "3045022100a5ba40e6bf7d29b39776883573d86b1e91ccff55255533eae4155e45b6378b95022045ee8601df62973b9184247961bb5f4cf05710d10677b851a1821feb7250f51301",
        "02174ee672429ff94304321cdae1fc1e487edf658b34bd1d36da03761658a2bb09"
      ],
      "is_coinbase": false,
      "sequence": 4294967295
    }
  ],
  "vout": [
    {
      "scriptpubkey": "5120dbde2dc8b721cf1186e614eba28df2e1cdd38a8f227bc693fc840096c66fd807",
      "scriptpubkey_asm": "OP_PUSHNUM_1 OP_PUSHBYTES_32 dbde2dc8b721cf1186e614eba28df2e1cdd38a8f227bc693fc840096c66fd807",
      "scriptpubkey_type": "v1_p2tr",
      "scriptpubkey_address": "bc1pm00zmj9hy883rphxzn469r0ju8xa8z50yfaudylussqfd3n0mqrsxvx4sl",
      "value": 894200
    },
    {
      "scriptpubkey": "0014dc6bf86354105de2fcd9868a2b0376d6731cb92f",
      "scriptpubkey_asm": "OP_0 OP_PUSHBYTES_20 dc6bf86354105de2fcd9868a2b0376d6731cb92f",
      "scriptpubkey_type": "v0_p2wpkh",
      "scriptpubkey_address": "bc1qm34lsc65zpw79lxes69zkqmk6ee3ewf0j77s3h",
      "value": 6411127949
    },
    {
      "scriptpubkey": "00147efe3a268c6390cb51617f8f743d57ab08b37c9c",
      "scriptpubkey_asm": "OP_0 OP_PUSHBYTES_20 7efe3a268c6390cb51617f8f743d57ab08b37c9c",
      "scriptpubkey_type": "v0_p2wpkh",
      "scriptpubkey_address": "bc1q0mlr5f5vvwgvk5tp078hg02h4vytxlyuregdnh",
      "value": 343679
    },
    {
      "scriptpubkey": "a9146d6e305e13c9abd3f5090fc5ada602cd6b9af1e687",
      "scriptpubkey_asm": "OP_HASH160 OP_PUSHBYTES_20 6d6e305e13c9abd3f5090fc5ada602cd6b9af1e6 OP_EQUAL",
      "scriptpubkey_type": "p2sh",
      "scriptpubkey_address": "3BfdaWooKK7TswnWJyVvYWizGWo67tWpSj",
      "value": 28003300
    },
    {
      "scriptpubkey": "00145d73e1a54dd6f8b0d7d594b303148fcca4389a86",
      "scriptpubkey_asm": "OP_0 OP_PUSHBYTES_20 5d73e1a54dd6f8b0d7d594b303148fcca4389a86",
      "scriptpubkey_type": "v0_p2wpkh",
      "scriptpubkey_address": "bc1qt4e7rf2d6mutp474jjesx9y0ejjr3x5x0nvp9z",
      "value": 825088
    },
    {
      "scriptpubkey": "0014cc06c84ce8f7e7a1ed63e52dbe3335c6fb1f0ca8",
      "scriptpubkey_asm": "OP_0 OP_PUSHBYTES_20 cc06c84ce8f7e7a1ed63e52dbe3335c6fb1f0ca8",
      "scriptpubkey_type": "v0_p2wpkh",
      "scriptpubkey_address": "bc1qesrvsn8g7ln6rmtru5kmuve4cma37r9gsrd78w",
      "value": 1717550000
    },
    {
      "scriptpubkey": "a9143a77e73d4c9eb9ec8aaae9370ff32b381af572d887",
      "scriptpubkey_asm": "OP_HASH160 OP_PUSHBYTES_20 3a77e73d4c9eb9ec8aaae9370ff32b381af572d8 OP_EQUAL",
      "scriptpubkey_type": "p2sh",
      "scriptpubkey_address": "372AkhJwA5enwjJuJrvNXDZtsmsNe6sEmR",
      "value": 376000
    },
    {
      "scriptpubkey": "51206eb694da36792727d16606fcfccc87b26fe22de67e734ff749118b6c6f197183",
      "scriptpubkey_asm": "OP_PUSHNUM_1 OP_PUSHBYTES_32 6eb694da36792727d16606fcfccc87b26fe22de67e734ff749118b6c6f197183",
      "scriptpubkey_type": "v1_p2tr",
      "scriptpubkey_address": "bc1pd6mffk3k0ynj05txqm70eny8kfh7yt0x0ee5la6fzx9kcmcewxpsdrgg0w",
      "value": 2501980000
    },
    {
      "scriptpubkey": "a9144f4c572cdecc3f4d46ffd977cbcfc2e0450351e087",
      "scriptpubkey_asm": "OP_HASH160 OP_PUSHBYTES_20 4f4c572cdecc3f4d46ffd977cbcfc2e0450351e0 OP_EQUAL",
      "scriptpubkey_type": "p2sh",
      "scriptpubkey_address": "38vJkvy1p5nxvszHTLXELejZMFs42pmDcz",
      "value": 5456719
    },
    {
      "scriptpubkey": "a914500a060ef00309b27c501915ef351e121b786dbf87",
      "scriptpubkey_asm": "OP_HASH160 OP_PUSHBYTES_20 500a060ef00309b27c501915ef351e121b786dbf OP_EQUAL",
      "scriptpubkey_type": "p2sh",
      "scriptpubkey_address": "38zDzM4TLzHTj9nfDGVwc9yWcuRZdELvAy",
      "value": 120000
    },
    {
      "scriptpubkey": "5120385ece1fbf1510ecd78066e9a5f7bb4376850690981c536c04574dd6589781e1",
      "scriptpubkey_asm": "OP_PUSHNUM_1 OP_PUSHBYTES_32 385ece1fbf1510ecd78066e9a5f7bb4376850690981c536c04574dd6589781e1",
      "scriptpubkey_type": "v1_p2tr",
      "scriptpubkey_address": "bc1p8p0vu8alz5gwe4uqvm56taamgdmg2p5snqw9xmqy2axavkyhs8ssq0fk6t",
      "value": 349122
    },
    {
      "scriptpubkey": "00141704f98e4d174d5fdc6e137c2660062c64c9c5a5",
      "scriptpubkey_asm": "OP_0 OP_PUSHBYTES_20 1704f98e4d174d5fdc6e137c2660062c64c9c5a5",
      "scriptpubkey_type": "v0_p2wpkh",
      "scriptpubkey_address": "bc1qzuz0nrjdzax4lhrwzd7zvcqx93jvn3d97sf7td",
      "value": 1046932
    },
    {
      "scriptpubkey": "a9142b0d671b6f7596879ec190cc9a479013080dc38a87",
      "scriptpubkey_asm": "OP_HASH160 OP_PUSHBYTES_20 2b0d671b6f7596879ec190cc9a479013080dc38a OP_EQUAL",
      "scriptpubkey_type": "p2sh",
      "scriptpubkey_address": "35cf32rKJ4PaxbLU9Nbm6tR2mKSsacgm4u",
      "value": 584779
    },
    {
      "scriptpubkey": "a914766a0fa71534f1b3d158854cd1cbf0dbe9e9c3c087",
      "scriptpubkey_asm": "OP_HASH160 OP_PUSHBYTES_20 766a0fa71534f1b3d158854cd1cbf0dbe9e9c3c0 OP_EQUAL",
      "scriptpubkey_type": "p2sh",
      "scriptpubkey_address": "3CV8iSJt9omV9Uq9bxwSAyXuPqVLxiinPf",
      "value": 40000
    },
    {
      "scriptpubkey": "a91405d6f84907dcee7caae2de15e6f740c768391fc087",
      "scriptpubkey_asm": "OP_HASH160 OP_PUSHBYTES_20 05d6f84907dcee7caae2de15e6f740c768391fc0 OP_EQUAL",
      "scriptpubkey_type": "p2sh",
      "scriptpubkey_address": "32DtpsU5HjjEg21HTQxej8bwcf31XvzQqc",
      "value": 570386
    },
    {
      "scriptpubkey": "a914e4af0a9ced8c4fa9faa509c976aec944be19905187",
      "scriptpubkey_asm": "OP_HASH160 OP_PUSHBYTES_20 e4af0a9ced8c4fa9faa509c976aec944be199051 OP_EQUAL",
      "scriptpubkey_type": "p2sh",
      "scriptpubkey_address": "3NYBgNgst5gkPok9ZJcCT2d6obV9fPYcKM",
      "value": 47048
    }
  ],
  "size": 701,
  "weight": 2474,
  "fee": 30950,
  "status": {
    "confirmed": true,
    "block_height": 834638,
    "block_hash": "000000000000000000025f742c626208ac87e0b7d15054abb4a19ca2d735a54e",
    "block_time": 1710405325
  },
  "hex": "0100000000010114c103c2a5db604b0e526bdd4477b7eb16a0b904a8e24c86802eb4a4e20387300000000000ffffffff10f8a40d0000000000225120dbde2dc8b721cf1186e614eba28df2e1cdd38a8f227bc693fc840096c66fd8078d0c227e01000000160014dc6bf86354105de2fcd9868a2b0376d6731cb92f7f3e0500000000001600147efe3a268c6390cb51617f8f743d57ab08b37c9ce44bab010000000017a9146d6e305e13c9abd3f5090fc5ada602cd6b9af1e68700970c00000000001600145d73e1a54dd6f8b0d7d594b303148fcca4389a86b0bb5f6600000000160014cc06c84ce8f7e7a1ed63e52dbe3335c6fb1f0ca8c0bc05000000000017a9143a77e73d4c9eb9ec8aaae9370ff32b381af572d887602f2195000000002251206eb694da36792727d16606fcfccc87b26fe22de67e734ff749118b6c6f1971834f4353000000000017a9144f4c572cdecc3f4d46ffd977cbcfc2e0450351e087c0d401000000000017a914500a060ef00309b27c501915ef351e121b786dbf87c253050000000000225120385ece1fbf1510ecd78066e9a5f7bb4376850690981c536c04574dd6589781e194f90f00000000001600141704f98e4d174d5fdc6e137c2660062c64c9c5a54bec08000000000017a9142b0d671b6f7596879ec190cc9a479013080dc38a87409c00000000000017a914766a0fa71534f1b3d158854cd1cbf0dbe9e9c3c08712b408000000000017a91405d6f84907dcee7caae2de15e6f740c768391fc087c8b700000000000017a914e4af0a9ced8c4fa9faa509c976aec944be1990518702483045022100a5ba40e6bf7d29b39776883573d86b1e91ccff55255533eae4155e45b6378b95022045ee8601df62973b9184247961bb5f4cf05710d10677b851a1821feb7250f513012102174ee672429ff94304321cdae1fc1e487edf658b34bd1d36da03761658a2bb0900000000"
}