{
  "txid": "5be1e8040e796d1eed386eb3269596a00b93b39c37754105e108b861d66c45f6",
  "version": 2,
  "locktime": 0,
  "vin": [
    {
      "txid": "4ee77778659dcfe8d7a4e15882fc6193f4f3d5f6607624e256337b44c2280af5",
      "vout": 99,
      "prevout": {
        "scriptpubkey": "51208d2cd12afcb7d2453cd6f2ebcd0387f8a6432013592aebf32fe1a23d386e6f4b",
        "scriptpubkey_asm": "OP_PUSHNUM_1 OP_PUSHBYTES_32 8d2cd12afcb7d2453cd6f2ebcd0387f8a6432013592aebf32fe1a23d386e6f4b",
        "scriptpubkey_type": "v1_p2tr",
        "scriptpubkey_address": "bc1p35kdz2huklfy20xk7t4u6qu8lznyxgqnty4whue0ux3r6wrwda9s7ktl8t",
        "value": 2075
      },
      "scriptsig": "",
      "scriptsig_asm": "",
      "witness": [
        "fc3f1b9cbbd6e988f2c5213799ea8705c536ead7ecdc63f7851155cf9d5929a21562d16cdf898df6bfe233cef7d6fb646c91da91db92a36a6061634ee7d202f3",
        "209440cfa0a00979315de283d69b90e71d1dc5ce3dbdaabaeafc48739973e06109ac0063036f7264010118746578742f706c61696e3b636861727365743d7574662d3800357b2270223a224252432d313030222c226f70223a226d696e74222c227469636b223a22696e73222c22616d74223a2231303030227d68",
        "c0c50eac15d7d7889f5ad84f80015e8a209129aeea937c37fa4b8bc0f9be289730"
      ],
      "is_coinbase": false,
      "sequence": 4294967295
    }
  ],
  "vout": [
    {
      "scriptpubkey": "00143e2325412b554cacdd163a93a42204c4707f8851",
      "scriptpubkey_asm": "OP_0 OP_PUSHBYTES_20 3e2325412b554cacdd163a93a42204c4707f8851",
      "scriptpubkey_type": "v0_p2wpkh",
      "scriptpubkey_address": "bc1q8c3j2sft24x2ehgk82f6ggsyc3c8lzz3yw9wsu",
      "value": 546
    }
  ],
  "size": 308,
  "weight": 554,
  "fee": 1529,
  "status": {
    "confirmed": true,
    "block_height": 834464,
    "block_hash": "0000000000000000000177a0869a911a2b65c9bdcd5a8bcb02b68f305bee848e",
    "block_time": 1710308296
  },
  "hex": "02000000000101f50a28c2447b3356e2247660f6d5f3f49361fc8258e1a4d7e8cf9d657877e74e6300000000ffffffff0122020000000000001600143e2325412b554cacdd163a93a42204c4707f88510340fc3f1b9cbbd6e988f2c5213799ea8705c536ead7ecdc63f7851155cf9d5929a21562d16cdf898df6bfe233cef7d6fb646c91da91db92a36a6061634ee7d202f37b209440cfa0a00979315de283d69b90e71d1dc5ce3dbdaabaeafc48739973e06109ac0063036f7264010118746578742f706c61696e3b636861727365743d7574662d3800357b2270223a224252432d313030222c226f70223a226d696e74222c227469636b223a22696e73222c22616d74223a2231303030227d6821c0c50eac15d7d7889f5ad84f80015e8a209129aeea937c37fa4b8bc0f9be28973000000000"
}