{
  "txid": "5be9539feb6c45a0d5ae93da7090bf56ecfdc0e5a9073b52f8c2a3d0d4c63b6b",
  "version": 2,
  "locktime": 0,
  "vin": [
    {
      "txid": "282d2ab432809d13bb11d779255b36d3af692d9e50499a4e2d03c9d6afebc545",
      "vout": 1,
      "prevout": {
        "scriptpubkey": "0014e8ace5696a01537c9e8d2f401cfaded978dc907a",
        "scriptpubkey_asm": "OP_0 OP_PUSHBYTES_20 e8ace5696a01537c9e8d2f401cfaded978dc907a",
        "scriptpubkey_type": "v0_p2wpkh",
        "scriptpubkey_address": "bc1qazkw26t2q9fhe85d9aqpe7k7m9udeyr6trpqx9",
        "value": 163043999
      },
      "scriptsig": "",
      "scriptsig_asm": "",
      "witness": [
        "3045022100d0e1d5f71a3c7717698a5b2f17c506eb41f1bb797efb1a5a4aa368a4cbe4980f022026cf8f25644345bb49d0a1f10a4f03f4943f7feb19ae72f2df7ef946dae9e53101",
        "0301ecc7428ece5afdbee672fe560c35ae1e68e8a92e29801b60e4b0e1389e5651"
      ],
      "is_coinbase": false,
      "sequence": 4294967295
    }
  ],
  "vout": [
    {
      "scriptpubkey": "76a914ea8eef6eea7eb72942642e096ec00fcbf8344d0b88ac",
      "scriptpubkey_asm": "OP_DUP OP_HASH160 OP_PUSHBYTES_20 ea8eef6eea7eb72942642e096ec00fcbf8344d0b OP_EQUALVERIFY OP_CHECKSIG",
      "scriptpubkey_type": "p2pkh",
      "scriptpubkey_address": "1NPEMCxMfBYXuGW9Zfrt4LYZQfMbqYXnPV",
      "value": 1045285
    },
    {
      "scriptpubkey": "0014644eeef341fc8eb0cf75aef3a26d7a00a82409e3",
      "scriptpubkey_asm": "OP_0 OP_PUSHBYTES_20 644eeef341fc8eb0cf75aef3a26d7a00a82409e3",
      "scriptpubkey_type": "v0_p2wpkh",
      "scriptpubkey_address": "bc1qv38wau6plj8tpnm44me6ymt6qz5zgz0rv6jqg6",
      "value": 161996572
    }
  ],
  "size": 226,
  "weight": 574,
  "fee": 2142,
  "status": {
    "confirmed": true,
    "block_height": 834638,
    "block_hash": "000000000000000000025f742c626208ac87e0b7d15054abb4a19ca2d735a54e",
    "block_time": 1710405325
  },
  "hex": "0200000000010145c5ebafd6c9032d4e9a49509e2d69afd3365b2579d711bb139d8032b42a2d280100000000ffffffff0225f30f00000000001976a914ea8eef6eea7eb72942642e096ec00fcbf8344d0b88ac1cdfa70900000000160014644eeef341fc8eb0cf75aef3a26d7a00a82409e302483045022100d0e1d5f71a3c7717698a5b2f17c506eb41f1bb797efb1a5a4aa368a4cbe4980f022026cf8f25644345bb49d0a1f10a4f03f4943f7feb19ae72f2df7ef946dae9e53101210301ecc7428ece5afdbee672fe560c35ae1e68e8a92e29801b60e4b0e1389e565100000000"
}