{
  "txid": "5bf51ea0e46a91a5c3efa666ae144bd7353aa755942459a48769574d3a2c83f4",
  "version": 2,
  "locktime": 0,
  "vin": [
    {
      "txid": "6a96be849be2c5fc8129b5b9a9729102ddac0e8c2d3da240168c8e58cd07b5af",
      "vout": 1,
      "prevout": {
        "scriptpubkey": "512024c65b6797fa4d1844bda2e2f03f4d12b7e2ddc334b780b96949d06933eb1950",
        "scriptpubkey_asm": "OP_PUSHNUM_1 OP_PUSHBYTES_32 24c65b6797fa4d1844bda2e2f03f4d12b7e2ddc334b780b96949d06933eb1950",
        "scriptpubkey_type": "v1_p2tr",
        "scriptpubkey_address": "bc1pynr9keuhlfx3s39a5t30q06dz2m79hwrxjmcpwtff8gxjvltr9gqynpn3v",
        "value": 136989076
      },
      "scriptsig": "",
      "scriptsig_asm": "",
      "witness": [
        "08e57ab5ab67b759ce6882bc8e27dc36257def8ccd924d294905d149cc76f9e5e0b707ab5b82013810c924a0f7df9572c03a1a794c075974a31e96cb7a616eaa"
      ],
      "is_coinbase": false,
      "sequence": 4294967293
    }
  ],
  "vout": [
    {
      "scriptpubkey": "512028f0752880137784d7abd3dae5bfe9caf89374883e28f3bc1853257c2456bcf8",
      "scriptpubkey_asm": "OP_PUSHNUM_1 OP_PUSHBYTES_32 28f0752880137784d7abd3dae5bfe9caf89374883e28f3bc1853257c2456bcf8",
      "scriptpubkey_type": "v1_p2tr",
      "scriptpubkey_address": "bc1p9rc822yqzdmcf4at60dwt0lfetufxayg8c5080qc2vjhcfzkhnuq0a0fz5",
      "value": 3300
    },
    {
      "scriptpubkey": "512024c65b6797fa4d1844bda2e2f03f4d12b7e2ddc334b780b96949d06933eb1950",
      "scriptpubkey_asm": "OP_PUSHNUM_1 OP_PUSHBYTES_32 24c65b6797fa4d1844bda2e2f03f4d12b7e2ddc334b780b96949d06933eb1950",
      "scriptpubkey_type": "v1_p2tr",
      "scriptpubkey_address": "bc1pynr9keuhlfx3s39a5t30q06dz2m79hwrxjmcpwtff8gxjvltr9gqynpn3v",
      "value": 136983004
    }
  ],
  "size": 205,
  "weight": 616,
  "fee": 2772,
  "status": {
    "confirmed": true,
    "block_height": 834638,
    "block_hash": "000000000000000000025f742c626208ac87e0b7d15054abb4a19ca2d735a54e",
    "block_time": 1710405325
  },
  "hex": "02000000000101afb507cd588e8c1640a23d2d8c0eacdd029172a9b9b52981fcc5e29b84be966a0100000000fdffffff02e40c00000000000022512028f0752880137784d7abd3dae5bfe9caf89374883e28f3bc1853257c2456bcf8dc312a080000000022512024c65b6797fa4d1844bda2e2f03f4d12b7e2ddc334b780b96949d06933eb1950014008e57ab5ab67b759ce6882bc8e27dc36257def8ccd924d294905d149cc76f9e5e0b707ab5b82013810c924a0f7df9572c03a1a794c075974a31e96cb7a616eaa00000000"
}