{
  "txid": "5bf97ec2da86ff87669e31c06d97ad3575c3336a449c0f15e474ccd90c709da7",
  "version": 2,
  "locktime": 0,
  "vin": [
    {
      "txid": "54994fd0bc246bc355ecfdb4d510e1050260eb532edefabfef7541f8dd66ec12",
      "vout": 0,
      "prevout": {
        "scriptpubkey": "51207eb7997b2670cb75abb1d235d3765d49386c856b48d09aaa9ad14f071e52ae3e",
        "scriptpubkey_asm": "OP_PUSHNUM_1 OP_PUSHBYTES_32 7eb7997b2670cb75abb1d235d3765d49386c856b48d09aaa9ad14f071e52ae3e",
        "scriptpubkey_type": "v1_p2tr",
        "scriptpubkey_address": "bc1p06mej7exwr9ht2a36g6axajafyuxepttfrgf4256698sw8jj4clqnky8hx",
        "value": 1075000
      },
      "scriptsig": "",
      "scriptsig_asm": "",
      "witness": [
        "b173a2ce7daa263d876ba7470bedf8e3c73ea1feafaf3aa99a04f9db6b4e208e1766b5ff45a95ab00e32181d01941f2ead80b090d366694607e1b0caec19ae3d"
      ],
      "is_coinbase": false,
      "sequence": 4294967293
    }
  ],
  "vout": [
    {
      "scriptpubkey": "00145f35a124069683ddeb2f1726e9a1173f9340c87e",
      "scriptpubkey_asm": "OP_0 OP_PUSHBYTES_20 5f35a124069683ddeb2f1726e9a1173f9340c87e",
      "scriptpubkey_type": "v0_p2wpkh",
      "scriptpubkey_address": "bc1qtu66zfqxj6pam6e0zunwnggh87f5pjr7vdr5cd",
      "value": 1000000
    },
    {
      "scriptpubkey": "0014fb7a185fc47428a9992c09f70c6add47a5c19223",
      "scriptpubkey_asm": "OP_0 OP_PUSHBYTES_20 fb7a185fc47428a9992c09f70c6add47a5c19223",
      "scriptpubkey_type": "v0_p2wpkh",
      "scriptpubkey_address": "bc1qldapsh7yws52nxfvp8msc6kag7jury3rxrw4dm",
      "value": 30000
    },
    {
      "scriptpubkey": "51207eb7997b2670cb75abb1d235d3765d49386c856b48d09aaa9ad14f071e52ae3e",
      "scriptpubkey_asm": "OP_PUSHNUM_1 OP_PUSHBYTES_32 7eb7997b2670cb75abb1d235d3765d49386c856b48d09aaa9ad14f071e52ae3e",
      "scriptpubkey_type": "v1_p2tr",
      "scriptpubkey_address": "bc1p06mej7exwr9ht2a36g6axajafyuxepttfrgf4256698sw8jj4clqnky8hx",
      "value": 41031
    }
  ],
  "size": 224,
  "weight": 692,
  "fee": 3969,
  "status": {
    "confirmed": true,
    "block_height": 834638,
    "block_hash": "000000000000000000025f742c626208ac87e0b7d15054abb4a19ca2d735a54e",
    "block_time": 1710405325
  },
  "hex": "0200000000010112ec66ddf84175efbffade2e53eb600205e110d5b4fdec55c36b24bcd04f99540000000000fdffffff0340420f00000000001600145f35a124069683ddeb2f1726e9a1173f9340c87e3075000000000000160014fb7a185fc47428a9992c09f70c6add47a5c1922347a00000000000002251207eb7997b2670cb75abb1d235d3765d49386c856b48d09aaa9ad14f071e52ae3e0140b173a2ce7daa263d876ba7470bedf8e3c73ea1feafaf3aa99a04f9db6b4e208e1766b5ff45a95ab00e32181d01941f2ead80b090d366694607e1b0caec19ae3d00000000"
}