{
  "txid": "5bfddc04dd473fa5f66d64953db2ec54345bb9243eade72e08185fd90ce4a39e",
  "version": 2,
  "locktime": 834637,
  "vin": [
    {
      "txid": "3a873494c93ccf94c1692ef4173c983a34c7a94ab98bfe9894b6ffc1a32752cf",
      "vout": 0,
      "prevout": {
        "scriptpubkey": "76a91443f6f21344988b747831bd3f4ff73485112d996888ac",
        "scriptpubkey_asm": "OP_DUP OP_HASH160 OP_PUSHBYTES_20 43f6f21344988b747831bd3f4ff73485112d9968 OP_EQUALVERIFY OP_CHECKSIG",
        "scriptpubkey_type": "p2pkh",
        "scriptpubkey_address": "17CN6wBadbZAmSVPnXpS1WAgK5gAtNYmy1",
        "value": 79300
      },
      "scriptsig": "47304402206a47095928fba32f024b46d99efc5e3b74cb3f51efd010fd825a77c32c970bb602202917564d246ee0c7b3c0199c22d418c87f3e0a2d4d2c11f951e971496b849e40012102b5bbfb2957dfddb6916a02399b83152d1827c5521aba2391c669910ce7860572",
      "scriptsig_asm": "OP_PUSHBYTES_71 304402206a47095928fba32f024b46d99efc5e3b74cb3f51efd010fd825a77c32c970bb602202917564d246ee0c7b3c0199c22d418c87f3e0a2d4d2c11f951e971496b849e4001 OP_PUSHBYTES_33 02b5bbfb2957dfddb6916a02399b83152d1827c5521aba2391c669910ce7860572",
      "is_coinbase": false,
      "sequence": 4294967293
    }
  ],
  "vout": [
    {
      "scriptpubkey": "76a9147e2dcd549bd8cfb377ec5cd583ba428723f45b3b88ac",
      "scriptpubkey_asm": "OP_DUP OP_HASH160 OP_PUSHBYTES_20 7e2dcd549bd8cfb377ec5cd583ba428723f45b3b OP_EQUALVERIFY OP_CHECKSIG",
      "scriptpubkey_type": "p2pkh",
      "scriptpubkey_address": "1CWB1ZA2CJmiYGzork3g6XCitgY1yViDN6",
      "value": 28100
    },
    {
      "scriptpubkey": "a91451635b8b169fb69b1badaf4c30636b0fd5b589a087",
      "scriptpubkey_asm": "OP_HASH160 OP_PUSHBYTES_20 51635b8b169fb69b1badaf4c30636b0fd5b589a0 OP_EQUAL",
      "scriptpubkey_type": "p2sh",
      "scriptpubkey_address": "397MgZvbHi7KVsnvhs6dxUKgGBpiXfA3rs",
      "value": 40000
    }
  ],
  "size": 223,
  "weight": 892,
  "fee": 11200,
  "status": {
    "confirmed": true,
    "block_height": 834638,
    "block_hash": "000000000000000000025f742c626208ac87e0b7d15054abb4a19ca2d735a54e",
    "block_time": 1710405325
  },
  "hex": "0200000001cf5227a3c1ffb69498fe8bb94aa9c7343a983c17f42e69c194cf3cc99434873a000000006a47304402206a47095928fba32f024b46d99efc5e3b74cb3f51efd010fd825a77c32c970bb602202917564d246ee0c7b3c0199c22d418c87f3e0a2d4d2c11f951e971496b849e40012102b5bbfb2957dfddb6916a02399b83152d1827c5521aba2391c669910ce7860572fdffffff02c46d0000000000001976a9147e2dcd549bd8cfb377ec5cd583ba428723f45b3b88ac409c00000000000017a91451635b8b169fb69b1badaf4c30636b0fd5b589a0874dbc0c00"
}