{
  "txid": "5c07819d89f3132f6216cf62009d95cfda05bc4345330647adee20b3abf343b2",
  "version": 2,
  "locktime": 0,
  "vin": [
    {
      "txid": "c10e48caeee8756d57fbce0e4f26c1d08bb9f0d4a35c2d26269682da8df04dac",
      "vout": 46,
      "prevout": {
        "scriptpubkey": "512039e8492790c5c7f6eb54ba1d4bd81668f59d45d22f053584e36eafefb6f77053",
        "scriptpubkey_asm": "OP_PUSHNUM_1 OP_PUSHBYTES_32 39e8492790c5c7f6eb54ba1d4bd81668f59d45d22f053584e36eafefb6f77053",
        "scriptpubkey_type": "v1_p2tr",
        "scriptpubkey_address": "bc1p885yjfuschrld665hgw5hkqkdr6e63wj9uzntp8rd6h7ldhhwpfsar73xr",
        "value": 3634
      },
      "scriptsig": "",
      "scriptsig_asm": "",
      "witness": [
        "3a9ca86d2d32fc2ff41023e237691dfe75d2a18e102354ca06a71d322bb6e4f17b5ca3982d84a847b0a08fe64fbd69ef9c3e95881a448cab9d95e3e2878f4961",
        "20ff2ca4cb631cd0bef14a20eba1fbc210f36002eb3e74250b1c5c4bb3ded62b5eac0063036f726401011e6170706c69636174696f6e2f6a736f6e3b636861727365743d7574662d38004cd37b2270223a22706f772d3230222c226f70223a226d696e74222c227469636b223a2250455045222c22616d74223a2231303030222c22736f6c7574696f6e223a22504550453a6263317071336e67663775716e73667434706d37357236397371616c6c30637068747278677773757a6d657864356c337039333566366d713666337664383a303030303030303030303030303030303030303139393431613561653132383937363539383134343239323533333030353762306461393666336465613163353a3139363434323639343032227d68",
        "c1406c0f2a67700582b42f36a71eb03478d57ba1acdc179ee1ec758acb282de3fd"
      ],
      "is_coinbase": false,
      "sequence": 4294967295
    }
  ],
  "vout": [
    {
      "scriptpubkey": "5120046684fb809c12ba877ea0f45803bffbf01bac6643a1c16f266d3f1096344eb6",
      "scriptpubkey_asm": "OP_PUSHNUM_1 OP_PUSHBYTES_32 046684fb809c12ba877ea0f45803bffbf01bac6643a1c16f266d3f1096344eb6",
      "scriptpubkey_type": "v1_p2tr",
      "scriptpubkey_address": "bc1pq3ngf7uqnsft4pm75r69sqall0cphtrxgwsuzmexd5l3p935f6mq6f3vd8",
      "value": 546
    }
  ],
  "size": 487,
  "weight": 769,
  "fee": 3088,
  "status": {
    "confirmed": true,
    "block_height": 834460,
    "block_hash": "00000000000000000000484a79b643b2524bbce82e5d8a442013fa5b8905ed98",
    "block_time": 1710307468
  },
  "hex": "02000000000101ac4df08dda829626262d5ca3d4f0b98bd0c1264f0ecefb576d75e8eeca480ec12e00000000ffffffff012202000000000000225120046684fb809c12ba877ea0f45803bffbf01bac6643a1c16f266d3f1096344eb603403a9ca86d2d32fc2ff41023e237691dfe75d2a18e102354ca06a71d322bb6e4f17b5ca3982d84a847b0a08fe64fbd69ef9c3e95881a448cab9d95e3e2878f4961fd200120ff2ca4cb631cd0bef14a20eba1fbc210f36002eb3e74250b1c5c4bb3ded62b5eac0063036f726401011e6170706c69636174696f6e2f6a736f6e3b636861727365743d7574662d38004cd37b2270223a22706f772d3230222c226f70223a226d696e74222c227469636b223a2250455045222c22616d74223a2231303030222c22736f6c7574696f6e223a22504550453a6263317071336e67663775716e73667434706d37357236397371616c6c30637068747278677773757a6d657864356c337039333566366d713666337664383a303030303030303030303030303030303030303139393431613561653132383937363539383134343239323533333030353762306461393666336465613163353a3139363434323639343032227d6821c1406c0f2a67700582b42f36a71eb03478d57ba1acdc179ee1ec758acb282de3fd00000000"
}