{
  "txid": "5c088b8837d4b3414a4604358ee7ad7ea9c26abf50e4c733de1777a18c1f744d",
  "version": 1,
  "locktime": 0,
  "vin": [
    {
      "txid": "9da8705b9e807a5c7a168442c2e3c751ab2c62fa3cd261a80925f6a815552558",
      "vout": 1,
      "prevout": {
        "scriptpubkey": "00144ef4cd0ea298f247b518655941af9abc7b1f9148",
        "scriptpubkey_asm": "OP_0 OP_PUSHBYTES_20 4ef4cd0ea298f247b518655941af9abc7b1f9148",
        "scriptpubkey_type": "v0_p2wpkh",
        "scriptpubkey_address": "bc1qfm6v6r4znrey0dgcv4v5rtu6h3a3ly2gfuu6cr",
        "value": 4516
      },
      "scriptsig": "",
      "scriptsig_asm": "",
      "witness": [
        "3045022100fa5da72cf4635fed85d4159f5fbe2166250c488b8386f4efd95283d0271220ce02204bce96cce67e9407c34c01d316d3bc5336f6dff7b115c6613d254f1aff6c5ca101",
        "03747046a45c304adcb2d1a322c4a7315decea3be54891da68edf3a956acc71dc5"
      ],
      "is_coinbase": false,
      "sequence": 4294967295
    },
    {
      "txid": "dc314a2397f686e3887472d3a4d86317d262b5fb1027962e4bb70db8c5505062",
      "vout": 2,
      "prevout": {
        "scriptpubkey": "00144ef4cd0ea298f247b518655941af9abc7b1f9148",
        "scriptpubkey_asm": "OP_0 OP_PUSHBYTES_20 4ef4cd0ea298f247b518655941af9abc7b1f9148",
        "scriptpubkey_type": "v0_p2wpkh",
        "scriptpubkey_address": "bc1qfm6v6r4znrey0dgcv4v5rtu6h3a3ly2gfuu6cr",
        "value": 403343
      },
      "scriptsig": "",
      "scriptsig_asm": "",
      "witness": [
        "3044022000846ca8a4ef99672a72c0ca4acfda84697503eb5970b9ab8c5b96dd48a794cc02204106210bfc1677046ed156ac5828df225d0a48489fcab1298ae2a2cd512daceb01",
        "03747046a45c304adcb2d1a322c4a7315decea3be54891da68edf3a956acc71dc5"
      ],
      "is_coinbase": false,
      "sequence": 4294967295
    }
  ],
  "vout": [
    {
      "scriptpubkey": "76a9141540af974a533604e5572bbc2369ca27adec0bba88ac",
      "scriptpubkey_asm": "OP_DUP OP_HASH160 OP_PUSHBYTES_20 1540af974a533604e5572bbc2369ca27adec0bba OP_EQUALVERIFY OP_CHECKSIG",
      "scriptpubkey_type": "p2pkh",
      "scriptpubkey_address": "12wNgV4EiqGR1sy25zv1RKvtir8e5jV9TW",
      "value": 399622
    },
    {
      "scriptpubkey": "00144ef4cd0ea298f247b518655941af9abc7b1f9148",
      "scriptpubkey_asm": "OP_0 OP_PUSHBYTES_20 4ef4cd0ea298f247b518655941af9abc7b1f9148",
      "scriptpubkey_type": "v0_p2wpkh",
      "scriptpubkey_address": "bc1qfm6v6r4znrey0dgcv4v5rtu6h3a3ly2gfuu6cr",
      "value": 2513
    }
  ],
  "size": 374,
  "weight": 845,
  "fee": 5724,
  "status": {
    "confirmed": true,
    "block_height": 834638,
    "block_hash": "000000000000000000025f742c626208ac87e0b7d15054abb4a19ca2d735a54e",
    "block_time": 1710405325
  },
  "hex": "0100000000010258255515a8f62509a861d23cfa622cab51c7e3c24284167a5c7a809e5b70a89d0100000000ffffffff625050c5b80db74b2e962710fbb562d21763d8a4d3727488e386f697234a31dc0200000000ffffffff0206190600000000001976a9141540af974a533604e5572bbc2369ca27adec0bba88acd1090000000000001600144ef4cd0ea298f247b518655941af9abc7b1f914802483045022100fa5da72cf4635fed85d4159f5fbe2166250c488b8386f4efd95283d0271220ce02204bce96cce67e9407c34c01d316d3bc5336f6dff7b115c6613d254f1aff6c5ca1012103747046a45c304adcb2d1a322c4a7315decea3be54891da68edf3a956acc71dc502473044022000846ca8a4ef99672a72c0ca4acfda84697503eb5970b9ab8c5b96dd48a794cc02204106210bfc1677046ed156ac5828df225d0a48489fcab1298ae2a2cd512daceb012103747046a45c304adcb2d1a322c4a7315decea3be54891da68edf3a956acc71dc500000000"
}