{
  "txid": "5c095d85c234c0577252a18bdfd7073e97d4470edd1187fa23940f658bd416ef",
  "version": 2,
  "locktime": 0,
  "vin": [
    {
      "txid": "dae07fd632c7eb231d0da33aa49fa007bc912adf423a19f23695a5444aeaf24f",
      "vout": 996,
      "prevout": {
        "scriptpubkey": "0014eba483395af496fb35f5cf904944137486302b82",
        "scriptpubkey_asm": "OP_0 OP_PUSHBYTES_20 eba483395af496fb35f5cf904944137486302b82",
        "scriptpubkey_type": "v0_p2wpkh",
        "scriptpubkey_address": "bc1qawjgxw267jt0kd04e7gyj3qnwjrrq2uz6ygcn7",
        "value": 2036627
      },
      "scriptsig": "",
      "scriptsig_asm": "",
      "witness": [
        "304402205c2d3de560aa32cf65dd516ad86a2ab3515823ed96750380e1b87b08e683fadd0220710e6e406c68ef2bd670a995965d94d0aabf592f3b4e5b6ec2620dd01d5c955b01",
        "021570e0cd307c69a93ebcd5dfd1fb88b430ed98dbc0325b248fa06ef36af0739a"
      ],
      "is_coinbase": false,
      "sequence": 4294967293
    },
    {
      "txid": "0d504a94fd7619d06f7f9d1646a85a97ec05098b83821e37a2396bdefade2a5c",
      "vout": 320,
      "prevout": {
        "scriptpubkey": "001471bb05ea27fec07494872eae7ec6306d10b02998",
        "scriptpubkey_asm": "OP_0 OP_PUSHBYTES_20 71bb05ea27fec07494872eae7ec6306d10b02998",
        "scriptpubkey_type": "v0_p2wpkh",
        "scriptpubkey_address": "bc1qwxast638lmq8f9y896h8a33sd5gtq2vcns7ptk",
        "value": 1919209
      },
      "scriptsig": "",
      "scriptsig_asm": "",
      "witness": [
        "30440220667287147dbc06b073fe192ab01965e94d18c995c00e9f6a7e2f47c3f05cd57302203ce58596b95bca49f68a5bcc912eebab84dcd7fb843c68cd38d1bbc472848d6701",
        "02dd4988b218200393df613093b06cd3aa3bd8b79044aaced3c978ec59605d7115"
      ],
      "is_coinbase": false,
      "sequence": 4294967293
    },
    {
      "txid": "f32c0e0cca57a1f93f208df811c4819e3efb0a51c7f0b9191472ed660be47a30",
      "vout": 645,
      "prevout": {
        "scriptpubkey": "001459098c1e35d2081fef53878c6ae860a2e76cf723",
        "scriptpubkey_asm": "OP_0 OP_PUSHBYTES_20 59098c1e35d2081fef53878c6ae860a2e76cf723",
        "scriptpubkey_type": "v0_p2wpkh",
        "scriptpubkey_address": "bc1qtyycc8346gyplm6ns7xx46rq5tnkeaerkfpmj2",
        "value": 1498339
      },
      "scriptsig": "",
      "scriptsig_asm": "",
      "witness": [
        "304402202f6fbfca4439731a226deb9ccdff331db3625a091eb344d323bf7f33583c71cd0220055bb10de82a4edd6b5e681263b023ca4e0990c6cb49b664b62165fb914ff83501",
        "0286045ca4e1c8641d164dad3f0a7467998f57c1d9f560dd641606b731fc6397c8"
      ],
      "is_coinbase": false,
      "sequence": 4294967293
    },
    {
      "txid": "8ad12c5a4089764da265a3371ebe9462e95079a10b5b2394ed522ad94dc69f40",
      "vout": 403,
      "prevout": {
        "scriptpubkey": "001494ea9a7030b3fefc6f1cf68d849acc8c0145fdfa",
        "scriptpubkey_asm": "OP_0 OP_PUSHBYTES_20 94ea9a7030b3fefc6f1cf68d849acc8c0145fdfa",
        "scriptpubkey_type": "v0_p2wpkh",
        "scriptpubkey_address": "bc1qjn4f5upsk0l0cmcu76xcfxkv3sq5tl06ynvka3",
        "value": 1227807
      },
      "scriptsig": "",
      "scriptsig_asm": "",
      "witness": [
        "3044022013a0bb9e4bd02f4331bf311c2dc5633059458313f0e046db4b82863ef0bed43402200e232ab4b3c47a6de0b10d5d437fc473a3a50a16c39e4d57ed21e91cbf45cdf401",
        "02e9693feaf335d33b4011dd056f0eb652a659728dd1e792c5a4bfc600c675d867"
      ],
      "is_coinbase": false,
      "sequence": 4294967293
    }
  ],
  "vout": [
    {
      "scriptpubkey": "76a91409b368c066cba7b55f1709b4b42ace7fce3ff0fd88ac",
      "scriptpubkey_asm": "OP_DUP OP_HASH160 OP_PUSHBYTES_20 09b368c066cba7b55f1709b4b42ace7fce3ff0fd OP_EQUALVERIFY OP_CHECKSIG",
      "scriptpubkey_type": "p2pkh",
      "scriptpubkey_address": "1tJ1J8BvPcDinJRiH46ZNvohQ19b3NA2N",
      "value": 6013839
    },
    {
      "scriptpubkey": "0014345afebd287ba94a2f5e08475a540ab6a407f010",
      "scriptpubkey_asm": "OP_0 OP_PUSHBYTES_20 345afebd287ba94a2f5e08475a540ab6a407f010",
      "scriptpubkey_type": "v0_p2wpkh",
      "scriptpubkey_address": "bc1qx3d0a0fg0w555t67ppr454q2k6jq0uqskf6d7x",
      "value": 662927
    }
  ],
  "size": 669,
  "weight": 1386,
  "fee": 5216,
  "status": {
    "confirmed": true,
    "block_height": 834460,
    "block_hash": "00000000000000000000484a79b643b2524bbce82e5d8a442013fa5b8905ed98",
    "block_time": 1710307468
  },
  "hex": "020000000001044ff2ea4a44a59536f2193a42df2a91bc07a09fa43aa30d1d23ebc732d67fe0dae403000000fdffffff5c2adefade6b39a2371e82838b0905ec975aa846169d7f6fd01976fd944a500d4001000000fdffffff307ae40b66ed721419b9f0c7510afb3e9e81c411f88d203ff9a157ca0c0e2cf38502000000fdffffff409fc64dd92a52ed94235b0ba17950e96294be1e37a365a24d7689405a2cd18a9301000000fdffffff028fc35b00000000001976a91409b368c066cba7b55f1709b4b42ace7fce3ff0fd88ac8f1d0a0000000000160014345afebd287ba94a2f5e08475a540ab6a407f0100247304402205c2d3de560aa32cf65dd516ad86a2ab3515823ed96750380e1b87b08e683fadd0220710e6e406c68ef2bd670a995965d94d0aabf592f3b4e5b6ec2620dd01d5c955b0121021570e0cd307c69a93ebcd5dfd1fb88b430ed98dbc0325b248fa06ef36af0739a024730440220667287147dbc06b073fe192ab01965e94d18c995c00e9f6a7e2f47c3f05cd57302203ce58596b95bca49f68a5bcc912eebab84dcd7fb843c68cd38d1bbc472848d67012102dd4988b218200393df613093b06cd3aa3bd8b79044aaced3c978ec59605d71150247304402202f6fbfca4439731a226deb9ccdff331db3625a091eb344d323bf7f33583c71cd0220055bb10de82a4edd6b5e681263b023ca4e0990c6cb49b664b62165fb914ff83501210286045ca4e1c8641d164dad3f0a7467998f57c1d9f560dd641606b731fc6397c802473044022013a0bb9e4bd02f4331bf311c2dc5633059458313f0e046db4b82863ef0bed43402200e232ab4b3c47a6de0b10d5d437fc473a3a50a16c39e4d57ed21e91cbf45cdf4012102e9693feaf335d33b4011dd056f0eb652a659728dd1e792c5a4bfc600c675d86700000000"
}