{
  "txid": "5c14b064500961a509bc9210fb85f67350f1618e10fd4ce40f5c11445e6b687e",
  "version": 2,
  "locktime": 0,
  "vin": [
    {
      "txid": "33198a5cbe2a53fc30099ab53009144888cef479020e7acbc065183b03c26d7b",
      "vout": 14,
      "prevout": {
        "scriptpubkey": "5120184ee1dfdf492d4121548add24ab2208458f0fd5e567b0910b851e62fbb0ce61",
        "scriptpubkey_asm": "OP_PUSHNUM_1 OP_PUSHBYTES_32 184ee1dfdf492d4121548add24ab2208458f0fd5e567b0910b851e62fbb0ce61",
        "scriptpubkey_type": "v1_p2tr",
        "scriptpubkey_address": "bc1prp8wrh7lfyk5zg253twjf2ezppzc7r74u4nmpygts50x97aseessqgnpl2",
        "value": 2658
      },
      "scriptsig": "",
      "scriptsig_asm": "",
      "witness": [
        "69d4292b58cb37088f5b2c1943b0bd81c39824594fb7ae6a8c35d748139523a7d57cfae77475f3c85cf88d21e8b8288a832af2dbe64d51d95240598bdf217a68",
        "2066dd9d7dc57546a72cf5e432f7f88f7e64ea8f5c4a7f3b3285ee6cdd00bf2511ac0063036f726401011e6170706c69636174696f6e2f6a736f6e3b636861727365743d7574662d38004cbf7b2270223a22706f772d3230222c226f70223a226d696e74222c227469636b223a2250455045222c22616d74223a2231303030222c22736f6c7574696f6e223a22504550453a626331717832636c7935673578376b356a6b7376396d61346332753661646c7a78657470616e387071733a303030303030303030303030303030303030303139393431613561653132383937363539383134343239323533333030353762306461393666336465613163353a3631373437303636363737227d68",
        "c1da2c9a1920efdfbecd176e4adbb0ca1150e62509fd8a3a19d8331b0c89a8a97b"
      ],
      "is_coinbase": false,
      "sequence": 4294967295
    }
  ],
  "vout": [
    {
      "scriptpubkey": "001432b1f2511437ad495a0c2efb5c2b9aeb7e236561",
      "scriptpubkey_asm": "OP_0 OP_PUSHBYTES_20 32b1f2511437ad495a0c2efb5c2b9aeb7e236561",
      "scriptpubkey_type": "v0_p2wpkh",
      "scriptpubkey_address": "bc1qx2cly5g5x7k5jksv9ma4c2u6adlzxetpan8pqs",
      "value": 546
    }
  ],
  "size": 455,
  "weight": 701,
  "fee": 2112,
  "status": {
    "confirmed": true,
    "block_height": 834460,
    "block_hash": "00000000000000000000484a79b643b2524bbce82e5d8a442013fa5b8905ed98",
    "block_time": 1710307468
  },
  "hex": "020000000001017b6dc2033b1865c0cb7a0e0279f4ce8848140930b59a0930fc532abe5c8a19330e00000000ffffffff01220200000000000016001432b1f2511437ad495a0c2efb5c2b9aeb7e236561034069d4292b58cb37088f5b2c1943b0bd81c39824594fb7ae6a8c35d748139523a7d57cfae77475f3c85cf88d21e8b8288a832af2dbe64d51d95240598bdf217a68fd0c012066dd9d7dc57546a72cf5e432f7f88f7e64ea8f5c4a7f3b3285ee6cdd00bf2511ac0063036f726401011e6170706c69636174696f6e2f6a736f6e3b636861727365743d7574662d38004cbf7b2270223a22706f772d3230222c226f70223a226d696e74222c227469636b223a2250455045222c22616d74223a2231303030222c22736f6c7574696f6e223a22504550453a626331717832636c7935673578376b356a6b7376396d61346332753661646c7a78657470616e387071733a303030303030303030303030303030303030303139393431613561653132383937363539383134343239323533333030353762306461393666336465613163353a3631373437303636363737227d6821c1da2c9a1920efdfbecd176e4adbb0ca1150e62509fd8a3a19d8331b0c89a8a97b00000000"
}