{
  "txid": "5c37b68c8f8023cca53be56c331f26e8e3a15c1f71b03e90ce8a10b5e3868d7b",
  "version": 1,
  "locktime": 0,
  "vin": [
    {
      "txid": "0d42e0bd55eb8c86e09a9379d3bdf234081ee7e2814bc036d2d18c1a882386c9",
      "vout": 1,
      "prevout": {
        "scriptpubkey": "00145bf9c1ee693b299588db2201c5f55b4302cb91f1",
        "scriptpubkey_asm": "OP_0 OP_PUSHBYTES_20 5bf9c1ee693b299588db2201c5f55b4302cb91f1",
        "scriptpubkey_type": "v0_p2wpkh",
        "scriptpubkey_address": "bc1qt0uurmnf8v5etzxmygquta2mgvpvhy030rcm93",
        "value": 3175510
      },
      "scriptsig": "",
      "scriptsig_asm": "",
      "witness": [
        "30450221009a61089947099e549c9a5f8053719258bb06fb73b1a2723f5d34fb9290948986022055140102b9a426d9e9570bfc683086fc3541358605e5b1f37db03a9018917b7201",
        "039ad2320228d5f9702ecab719fda63151106e8aec9179b33fd2f69a7c61d4f84d"
      ],
      "is_coinbase": false,
      "sequence": 4294967295
    },
    {
      "txid": "47a5aeb617ec0bcf5751218077517ea45652c3b50dacec904d63d8537940a2aa",
      "vout": 1,
      "prevout": {
        "scriptpubkey": "00147571b66980e24e120b4ca06a148cef0ce0f1648b",
        "scriptpubkey_asm": "OP_0 OP_PUSHBYTES_20 7571b66980e24e120b4ca06a148cef0ce0f1648b",
        "scriptpubkey_type": "v0_p2wpkh",
        "scriptpubkey_address": "bc1qw4cmv6vquf8pyz6v5p4pfr80pns0zeytkepj8v",
        "value": 1144382
      },
      "scriptsig": "",
      "scriptsig_asm": "",
      "witness": [
        "3045022100aabd49efa8f41a761e0722de14471bf13b83efc6839b75010492462f2989ea5a02201965f80ec2ba909f493edd2e1af2ea629ab3a112460429de6dcac52612c4776f01",
        "03ac2ee2a3ca788423a43b28814d9622f7ff2c34cc7454961bd66162c92bf94e4e"
      ],
      "is_coinbase": false,
      "sequence": 4294967295
    }
  ],
  "vout": [
    {
      "scriptpubkey": "0014f5cbc1f4c640ed61b97f8b7de91ebebcd75c256d",
      "scriptpubkey_asm": "OP_0 OP_PUSHBYTES_20 f5cbc1f4c640ed61b97f8b7de91ebebcd75c256d",
      "scriptpubkey_type": "v0_p2wpkh",
      "scriptpubkey_address": "bc1q7h9uraxxgrkkrwtl3d77j847hnt4cftd9vn3k4",
      "value": 904953
    },
    {
      "scriptpubkey": "0014e7af0c4a7384bb5570c0bc8eb010d49c484461d2",
      "scriptpubkey_asm": "OP_0 OP_PUSHBYTES_20 e7af0c4a7384bb5570c0bc8eb010d49c484461d2",
      "scriptpubkey_type": "v0_p2wpkh",
      "scriptpubkey_address": "bc1qu7hscjnnsja42uxqhj8tqyx5n3yygcwj09vw0e",
      "value": 3411000
    }
  ],
  "size": 372,
  "weight": 834,
  "fee": 3939,
  "status": {
    "confirmed": true,
    "block_height": 834638,
    "block_hash": "000000000000000000025f742c626208ac87e0b7d15054abb4a19ca2d735a54e",
    "block_time": 1710405325
  },
  "hex": "01000000000102c98623881a8cd1d236c04b81e2e71e0834f2bdd379939ae0868ceb55bde0420d0100000000ffffffffaaa2407953d8634d90ecac0db5c35256a47e517780215157cf0bec17b6aea5470100000000ffffffff02f9ce0d0000000000160014f5cbc1f4c640ed61b97f8b7de91ebebcd75c256d380c340000000000160014e7af0c4a7384bb5570c0bc8eb010d49c484461d2024830450221009a61089947099e549c9a5f8053719258bb06fb73b1a2723f5d34fb9290948986022055140102b9a426d9e9570bfc683086fc3541358605e5b1f37db03a9018917b720121039ad2320228d5f9702ecab719fda63151106e8aec9179b33fd2f69a7c61d4f84d02483045022100aabd49efa8f41a761e0722de14471bf13b83efc6839b75010492462f2989ea5a02201965f80ec2ba909f493edd2e1af2ea629ab3a112460429de6dcac52612c4776f012103ac2ee2a3ca788423a43b28814d9622f7ff2c34cc7454961bd66162c92bf94e4e00000000"
}