{
  "txid": "5c3a5f0f8ee57a75554455432bfeda82d71aafe97c14793cbe336ba8ce9fd72f",
  "version": 2,
  "locktime": 0,
  "vin": [
    {
      "txid": "db6b59a811cc6891e12e3ca54707b51aee4ee6264bc74e2c3e2ddc1df1aa7067",
      "vout": 8,
      "prevout": {
        "scriptpubkey": "a914f63c858fff24edf84224b77f352d90062636b5c487",
        "scriptpubkey_asm": "OP_HASH160 OP_PUSHBYTES_20 f63c858fff24edf84224b77f352d90062636b5c4 OP_EQUAL",
        "scriptpubkey_type": "p2sh",
        "scriptpubkey_address": "3Q8zergijsQd9o2HysYsohDKmVxfT5KAxc",
        "value": 20345
      },
      "scriptsig": "160014cfe00b5bb6e3bad8f87e9210113272b0db9d294c",
      "scriptsig_asm": "OP_PUSHBYTES_22 0014cfe00b5bb6e3bad8f87e9210113272b0db9d294c",
      "witness": [
        "3045022100831543f286e79cc3137e69488eb2116b07d8dacd33fb9e1fc189df5c146800800220115c4c1fd2feeb6e1fd8b05105545a42fd58be08cddde9b7ee035080e3dd862b01",
        "025a7508eb702c40ed15ff631514c468de5376615ebedf8bb42fbc9a9743b6a9ef"
      ],
      "is_coinbase": false,
      "sequence": 4294967293,
      "inner_redeemscript_asm": "OP_0 OP_PUSHBYTES_20 cfe00b5bb6e3bad8f87e9210113272b0db9d294c"
    }
  ],
  "vout": [
    {
      "scriptpubkey": "a9148b38e3dbfa174071060e143d90cf3d431afce65b87",
      "scriptpubkey_asm": "OP_HASH160 OP_PUSHBYTES_20 8b38e3dbfa174071060e143d90cf3d431afce65b OP_EQUAL",
      "scriptpubkey_type": "p2sh",
      "scriptpubkey_address": "3EP9zzwxjU3oLRg2J96U9X227MsQX2we6c",
      "value": 8821
    },
    {
      "scriptpubkey": "a914f63c858fff24edf84224b77f352d90062636b5c487",
      "scriptpubkey_asm": "OP_HASH160 OP_PUSHBYTES_20 f63c858fff24edf84224b77f352d90062636b5c4 OP_EQUAL",
      "scriptpubkey_type": "p2sh",
      "scriptpubkey_address": "3Q8zergijsQd9o2HysYsohDKmVxfT5KAxc",
      "value": 9034
    }
  ],
  "size": 248,
  "weight": 662,
  "fee": 2490,
  "status": {
    "confirmed": true,
    "block_height": 834460,
    "block_hash": "00000000000000000000484a79b643b2524bbce82e5d8a442013fa5b8905ed98",
    "block_time": 1710307468
  },
  "hex": "020000000001016770aaf11ddc2d3e2c4ec74b26e64eee1ab50747a53c2ee19168cc11a8596bdb0800000017160014cfe00b5bb6e3bad8f87e9210113272b0db9d294cfdffffff02752200000000000017a9148b38e3dbfa174071060e143d90cf3d431afce65b874a2300000000000017a914f63c858fff24edf84224b77f352d90062636b5c48702483045022100831543f286e79cc3137e69488eb2116b07d8dacd33fb9e1fc189df5c146800800220115c4c1fd2feeb6e1fd8b05105545a42fd58be08cddde9b7ee035080e3dd862b0121025a7508eb702c40ed15ff631514c468de5376615ebedf8bb42fbc9a9743b6a9ef00000000"
}