{
  "txid": "5c482bd1c135e67df2f10e9428db1661d913d454ba1d12f1c8b2f187ae98fcb7",
  "version": 2,
  "locktime": 0,
  "vin": [
    {
      "txid": "8486ecb4df0880316dd6e82b3971b4df187aff23765bc3a47f8d78bb53aa273c",
      "vout": 126,
      "prevout": {
        "scriptpubkey": "5120a82c114d77beadec15afba90064c653695d4d0450c870ffdcefebe1272d9d44f",
        "scriptpubkey_asm": "OP_PUSHNUM_1 OP_PUSHBYTES_32 a82c114d77beadec15afba90064c653695d4d0450c870ffdcefebe1272d9d44f",
        "scriptpubkey_type": "v1_p2tr",
        "scriptpubkey_address": "bc1p4qkpznthh6k7c9d0h2gqvnr9x62af5z9pjrsllwwl6lpyuke638sqrh6tu",
        "value": 2575
      },
      "scriptsig": "",
      "scriptsig_asm": "",
      "witness": [
        "793446781903bb90b80cd7b29865922331866516d56eee8b3dd8f45b0f80ba0b683f0b31dec9406c977a806fe38f39dab14bdb23c7270390b1b0f24f2a623e2a",
        "204be3ddd39de99c0ca06e2e2659fb4e05eee86bce03a493376dca75fe5dc44620ac0063036f726401010a746578742f706c61696e00367b2270223a226272632d3230222c226f70223a226d696e74222c227469636b223a2261616161222c22616d74223a223130303030227d68",
        "c14be3ddd39de99c0ca06e2e2659fb4e05eee86bce03a493376dca75fe5dc44620"
      ],
      "is_coinbase": false,
      "sequence": 4261412863
    }
  ],
  "vout": [
    {
      "scriptpubkey": "0014ddd7ef12ea6f78edcc1e8e7afa12c01ab59f3339",
      "scriptpubkey_asm": "OP_0 OP_PUSHBYTES_20 ddd7ef12ea6f78edcc1e8e7afa12c01ab59f3339",
      "scriptpubkey_type": "v0_p2wpkh",
      "scriptpubkey_address": "bc1qmht77yh2dauwmnq73ea05ykqr26e7veea8spz6",
      "value": 546
    }
  ],
  "size": 295,
  "weight": 541,
  "fee": 2029,
  "status": {
    "confirmed": true,
    "block_height": 834460,
    "block_hash": "00000000000000000000484a79b643b2524bbce82e5d8a442013fa5b8905ed98",
    "block_time": 1710307468
  },
  "hex": "020000000001013c27aa53bb788d7fa4c35b7623ff7a18dfb471392be8d66d318008dfb4ec86847e00000000fffffffd012202000000000000160014ddd7ef12ea6f78edcc1e8e7afa12c01ab59f33390340793446781903bb90b80cd7b29865922331866516d56eee8b3dd8f45b0f80ba0b683f0b31dec9406c977a806fe38f39dab14bdb23c7270390b1b0f24f2a623e2a6e204be3ddd39de99c0ca06e2e2659fb4e05eee86bce03a493376dca75fe5dc44620ac0063036f726401010a746578742f706c61696e00367b2270223a226272632d3230222c226f70223a226d696e74222c227469636b223a2261616161222c22616d74223a223130303030227d6821c14be3ddd39de99c0ca06e2e2659fb4e05eee86bce03a493376dca75fe5dc4462000000000"
}