{
  "txid": "5c5aac8345686bd466014ef256a503bc896f4186366fb000daea1f90a4143377",
  "version": 2,
  "locktime": 0,
  "vin": [
    {
      "txid": "d99c87a4485c2b6ff18c49618df04a15a108e974d7c237c220256b18eb07f5cf",
      "vout": 31,
      "prevout": {
        "scriptpubkey": "76a914d99f7825daeaf332846938d8380716c94455528488ac",
        "scriptpubkey_asm": "OP_DUP OP_HASH160 OP_PUSHBYTES_20 d99f7825daeaf332846938d8380716c944555284 OP_EQUALVERIFY OP_CHECKSIG",
        "scriptpubkey_type": "p2pkh",
        "scriptpubkey_address": "1LqgfkX7mfLUHVvuuJ8ucPQJ2zy413F4bD",
        "value": 934441
      },
      "scriptsig": "483045022100ac45fd55101f440e9b1f67c310c0a10371d036b9507952e18b920713860cde4e02205f71474d531c03472b5dc19a9d6d8b8ad6a1bca3176d0e4b9e89ff0972c06a71012103d781c1c6bb2d0bbe1040330638ac0a2e6e94c41c1f9dd14d0d605776e7b651f4",
      "scriptsig_asm": "OP_PUSHBYTES_72 3045022100ac45fd55101f440e9b1f67c310c0a10371d036b9507952e18b920713860cde4e02205f71474d531c03472b5dc19a9d6d8b8ad6a1bca3176d0e4b9e89ff0972c06a7101 OP_PUSHBYTES_33 03d781c1c6bb2d0bbe1040330638ac0a2e6e94c41c1f9dd14d0d605776e7b651f4",
      "is_coinbase": false,
      "sequence": 4294967293
    }
  ],
  "vout": [
    {
      "scriptpubkey": "76a914961700dc0dbc51d32e1dd28065d6d997eedae92488ac",
      "scriptpubkey_asm": "OP_DUP OP_HASH160 OP_PUSHBYTES_20 961700dc0dbc51d32e1dd28065d6d997eedae924 OP_EQUALVERIFY OP_CHECKSIG",
      "scriptpubkey_type": "p2pkh",
      "scriptpubkey_address": "1Egbv5QG36CgXEo2DKvCEYELqHJppGdgTK",
      "value": 908656
    }
  ],
  "size": 192,
  "weight": 768,
  "fee": 25785,
  "status": {
    "confirmed": true,
    "block_height": 834552,
    "block_hash": "00000000000000000001dd0468a70c94f619251d286585cff57aeb4bd9ede330",
    "block_time": 1710355598
  },
  "hex": "0200000001cff507eb186b2520c237c2d774e908a1154af08d61498cf16f2b5c48a4879cd91f0000006b483045022100ac45fd55101f440e9b1f67c310c0a10371d036b9507952e18b920713860cde4e02205f71474d531c03472b5dc19a9d6d8b8ad6a1bca3176d0e4b9e89ff0972c06a71012103d781c1c6bb2d0bbe1040330638ac0a2e6e94c41c1f9dd14d0d605776e7b651f4fdffffff0170dd0d00000000001976a914961700dc0dbc51d32e1dd28065d6d997eedae92488ac00000000"
}