{
  "txid": "5c6c6337984a961e21770ae4fb3c3d60cdd6c44749f66fa913cc0afba0bcfee6",
  "version": 2,
  "locktime": 834462,
  "vin": [
    {
      "txid": "3bc7809e5e37b5f67db4d3a5f9dfc69e2c96aa6eaf68c5b03a596dab012d079f",
      "vout": 1,
      "prevout": {
        "scriptpubkey": "00146ed1c827e16338c36de7fac1e1ce98039f423e97",
        "scriptpubkey_asm": "OP_0 OP_PUSHBYTES_20 6ed1c827e16338c36de7fac1e1ce98039f423e97",
        "scriptpubkey_type": "v0_p2wpkh",
        "scriptpubkey_address": "bc1qdmgusflpvvuvxm08ltq7rn5cqw05y05hqxmtj8",
        "value": 173539470
      },
      "scriptsig": "",
      "scriptsig_asm": "",
      "witness": [
        "304402200e4509541662be88cde48c7089f9e54aa63afb0ad5d39ead9210d186d1a01eca0220619fc28c017862df9a8f4c1bb018f1d53006a35aca47194e6f90ee704abd868401",
        "02fd40f3fd0be17b443b5aa479878d50db87271b67aaadd9e26f18609d7bf88e3c"
      ],
      "is_coinbase": false,
      "sequence": 4294967294
    }
  ],
  "vout": [
    {
      "scriptpubkey": "76a9147bc3fbeb59fce1e852dba72dedfad87dd5a3340388ac",
      "scriptpubkey_asm": "OP_DUP OP_HASH160 OP_PUSHBYTES_20 7bc3fbeb59fce1e852dba72dedfad87dd5a33403 OP_EQUALVERIFY OP_CHECKSIG",
      "scriptpubkey_type": "p2pkh",
      "scriptpubkey_address": "1CHQtomZoaF1rE66uH9F24BZQiYoXEMeae",
      "value": 1400400
    },
    {
      "scriptpubkey": "0014ac55c659d78e7789f894905c6a609c32d035624a",
      "scriptpubkey_asm": "OP_0 OP_PUSHBYTES_20 ac55c659d78e7789f894905c6a609c32d035624a",
      "scriptpubkey_type": "v0_p2wpkh",
      "scriptpubkey_address": "bc1q432uvkwh3emcn7y5jpwx5cyuxtgr2cj2t3egn4",
      "value": 172135895
    }
  ],
  "size": 225,
  "weight": 573,
  "fee": 3175,
  "status": {
    "confirmed": true,
    "block_height": 834464,
    "block_hash": "0000000000000000000177a0869a911a2b65c9bdcd5a8bcb02b68f305bee848e",
    "block_time": 1710308296
  },
  "hex": "020000000001019f072d01ab6d593ab0c568af6eaa962c9ec6dff9a5d3b47df6b5375e9e80c73b0100000000feffffff02505e1500000000001976a9147bc3fbeb59fce1e852dba72dedfad87dd5a3340388acd795420a00000000160014ac55c659d78e7789f894905c6a609c32d035624a0247304402200e4509541662be88cde48c7089f9e54aa63afb0ad5d39ead9210d186d1a01eca0220619fc28c017862df9a8f4c1bb018f1d53006a35aca47194e6f90ee704abd8684012102fd40f3fd0be17b443b5aa479878d50db87271b67aaadd9e26f18609d7bf88e3c9ebb0c00"
}