{
  "txid": "5c77277f4d6ad20b03a69d2ab042ecc9d56da536ff00ea5a9d49829b4a817a89",
  "version": 2,
  "locktime": 0,
  "vin": [
    {
      "txid": "246d654c08ac53d370d501753f3ac2c90861e2c8cea715ed4b7554841cced399",
      "vout": 89,
      "prevout": {
        "scriptpubkey": "51203fef14c025f1ebc55a0552fae72fb2d35029d87f731e015182e0c65743686d2b",
        "scriptpubkey_asm": "OP_PUSHNUM_1 OP_PUSHBYTES_32 3fef14c025f1ebc55a0552fae72fb2d35029d87f731e015182e0c65743686d2b",
        "scriptpubkey_type": "v1_p2tr",
        "scriptpubkey_address": "bc1p8lh3fsp9784u2ks92tawwtaj6dgznkrlwv0qz5vzurr9wsmgd54sw32ghk",
        "value": 3055
      },
      "scriptsig": "",
      "scriptsig_asm": "",
      "witness": [
        "b00071620e6b66908ad011dce62f65632460982b052f7be1cd3033bfd87d0d8c2f0955763fc03934d05b58c5cd91f736d3807fc795e518b6bf702cdcffd55d0b",
        "2038dfe6ea50f3b509c9905462b1ccb047a558f7f46d8bbf7a5445f724e8bf2c89ac0063036f726401011e6170706c69636174696f6e2f6a736f6e3b636861727365743d7574662d38004cd37b2270223a22706f772d3230222c226f70223a226d696e74222c227469636b223a2250455045222c22616d74223a2231303030222c22736f6c7574696f6e223a22504550453a62633170756a666d33753333656e70786b38383339796c6b3239323239396b6e6467686c717468396e39647a6c7663647635617076366a717732776e71663a303030303030303030303030303030303030303139393431613561653132383937363539383134343239323533333030353762306461393666336465613163353a3236383139363330393832227d68",
        "c0f4929cb66946e40c5d3e5e2b126f88b9a6070d7490abd3aa8e42bf5bbcfe7b9f"
      ],
      "is_coinbase": false,
      "sequence": 4294967295
    }
  ],
  "vout": [
    {
      "scriptpubkey": "5120e493b8f231ccc26b1cf1293f65154a296d36a2ff02ee5995a2fb30d653a166a4",
      "scriptpubkey_asm": "OP_PUSHNUM_1 OP_PUSHBYTES_32 e493b8f231ccc26b1cf1293f65154a296d36a2ff02ee5995a2fb30d653a166a4",
      "scriptpubkey_type": "v1_p2tr",
      "scriptpubkey_address": "bc1pujfm3u33enpxk8839ylk292299kndghlqth9n9dzlvcdv5apv6jqw2wnqf",
      "value": 546
    }
  ],
  "size": 487,
  "weight": 769,
  "fee": 2509,
  "status": {
    "confirmed": true,
    "block_height": 834460,
    "block_hash": "00000000000000000000484a79b643b2524bbce82e5d8a442013fa5b8905ed98",
    "block_time": 1710307468
  },
  "hex": "0200000000010199d3ce1c8454754bed15a7cec8e26108c9c23a3f7501d570d353ac084c656d245900000000ffffffff012202000000000000225120e493b8f231ccc26b1cf1293f65154a296d36a2ff02ee5995a2fb30d653a166a40340b00071620e6b66908ad011dce62f65632460982b052f7be1cd3033bfd87d0d8c2f0955763fc03934d05b58c5cd91f736d3807fc795e518b6bf702cdcffd55d0bfd20012038dfe6ea50f3b509c9905462b1ccb047a558f7f46d8bbf7a5445f724e8bf2c89ac0063036f726401011e6170706c69636174696f6e2f6a736f6e3b636861727365743d7574662d38004cd37b2270223a22706f772d3230222c226f70223a226d696e74222c227469636b223a2250455045222c22616d74223a2231303030222c22736f6c7574696f6e223a22504550453a62633170756a666d33753333656e70786b38383339796c6b3239323239396b6e6467686c717468396e39647a6c7663647635617076366a717732776e71663a303030303030303030303030303030303030303139393431613561653132383937363539383134343239323533333030353762306461393666336465613163353a3236383139363330393832227d6821c0f4929cb66946e40c5d3e5e2b126f88b9a6070d7490abd3aa8e42bf5bbcfe7b9f00000000"
}