{
  "txid": "5c864253d4db2ed14814ac43d6b7849f32d392129618bdeb25258251c34cf608",
  "version": 2,
  "locktime": 0,
  "vin": [
    {
      "txid": "000b0eab8a75228d38079d47cd349a440d8e6c24d7a8823be5367f8349bfa3e5",
      "vout": 43,
      "prevout": {
        "scriptpubkey": "0014a678731aba7845c502632b30e4abb8f0c317ed75",
        "scriptpubkey_asm": "OP_0 OP_PUSHBYTES_20 a678731aba7845c502632b30e4abb8f0c317ed75",
        "scriptpubkey_type": "v0_p2wpkh",
        "scriptpubkey_address": "bc1q5eu8xx460pzu2qnr9vcwf2ac7rp30mt4araeft",
        "value": 18240
      },
      "scriptsig": "",
      "scriptsig_asm": "",
      "witness": [
        "3045022100cf5f1c87f718ac09972b323b4a76b1cf2837b0ed0b51bba09339044ce20544cd022007ff9438445058c15887525c240d07ded11302cedad7191e409318de661ea73401",
        "0315e14ae687b52a686a897a36178858af6466d6d8e64ec62e4d1bfb7f348651fd"
      ],
      "is_coinbase": false,
      "sequence": 4294967293
    },
    {
      "txid": "7353d0af88cefac073b806a342c0c1da1b024c9b0392532cafc803be225b909d",
      "vout": 2,
      "prevout": {
        "scriptpubkey": "0014a678731aba7845c502632b30e4abb8f0c317ed75",
        "scriptpubkey_asm": "OP_0 OP_PUSHBYTES_20 a678731aba7845c502632b30e4abb8f0c317ed75",
        "scriptpubkey_type": "v0_p2wpkh",
        "scriptpubkey_address": "bc1q5eu8xx460pzu2qnr9vcwf2ac7rp30mt4araeft",
        "value": 18240
      },
      "scriptsig": "",
      "scriptsig_asm": "",
      "witness": [
        "3045022100b46b56c20868c378562c0ef022aec6bffe76889dae4d78805036f6b1a4f6e31b022043605dfb158f25d9813cb6c9fca3dcad1c767585a0d3e06a72fa3a9d214e5a3601",
        "0315e14ae687b52a686a897a36178858af6466d6d8e64ec62e4d1bfb7f348651fd"
      ],
      "is_coinbase": false,
      "sequence": 4294967293
    }
  ],
  "vout": [
    {
      "scriptpubkey": "51203735affb8853a81602542b5837dc5ac28c4b47ecaf4be881da9dfbeec6d09c32",
      "scriptpubkey_asm": "OP_PUSHNUM_1 OP_PUSHBYTES_32 3735affb8853a81602542b5837dc5ac28c4b47ecaf4be881da9dfbeec6d09c32",
      "scriptpubkey_type": "v1_p2tr",
      "scriptpubkey_address": "bc1pxu66l7ug2w5pvqj59dvr0hz6c2xyk3lv4a973qw6nha7a3ksnseq94znld",
      "value": 26369
    },
    {
      "scriptpubkey": "0014a678731aba7845c502632b30e4abb8f0c317ed75",
      "scriptpubkey_asm": "OP_0 OP_PUSHBYTES_20 a678731aba7845c502632b30e4abb8f0c317ed75",
      "scriptpubkey_type": "v0_p2wpkh",
      "scriptpubkey_address": "bc1q5eu8xx460pzu2qnr9vcwf2ac7rp30mt4araeft",
      "value": 7691
    }
  ],
  "size": 384,
  "weight": 882,
  "fee": 2420,
  "status": {
    "confirmed": true,
    "block_height": 834464,
    "block_hash": "0000000000000000000177a0869a911a2b65c9bdcd5a8bcb02b68f305bee848e",
    "block_time": 1710308296
  },
  "hex": "02000000000102e5a3bf49837f36e53b82a8d7246c8e0d449a34cd479d07388d22758aab0e0b002b00000000fdffffff9d905b22be03c8af2c5392039b4c021bdac1c042a306b873c0face88afd053730200000000fdffffff0201670000000000002251203735affb8853a81602542b5837dc5ac28c4b47ecaf4be881da9dfbeec6d09c320b1e000000000000160014a678731aba7845c502632b30e4abb8f0c317ed7502483045022100cf5f1c87f718ac09972b323b4a76b1cf2837b0ed0b51bba09339044ce20544cd022007ff9438445058c15887525c240d07ded11302cedad7191e409318de661ea73401210315e14ae687b52a686a897a36178858af6466d6d8e64ec62e4d1bfb7f348651fd02483045022100b46b56c20868c378562c0ef022aec6bffe76889dae4d78805036f6b1a4f6e31b022043605dfb158f25d9813cb6c9fca3dcad1c767585a0d3e06a72fa3a9d214e5a3601210315e14ae687b52a686a897a36178858af6466d6d8e64ec62e4d1bfb7f348651fd00000000"
}