{
  "txid": "5c87e98e4541a0b55e3d0f1cb1831b93e003cf35063ade92502e6379b53c0fbd",
  "version": 1,
  "locktime": 0,
  "vin": [
    {
      "txid": "eb954cdf2ce5f8831c840963b0b8926c5825bb217e3dd0ae58e662e38890e4df",
      "vout": 1,
      "prevout": {
        "scriptpubkey": "00149ef4906f01fa4d395121afc8c60817eef22dd935",
        "scriptpubkey_asm": "OP_0 OP_PUSHBYTES_20 9ef4906f01fa4d395121afc8c60817eef22dd935",
        "scriptpubkey_type": "v0_p2wpkh",
        "scriptpubkey_address": "bc1qnm6fqmcplfxnj5fp4lyvvzqhamezmkf493rm4z",
        "value": 6820223
      },
      "scriptsig": "",
      "scriptsig_asm": "",
      "witness": [
        "3045022100c4ac6901670387650d11856e83f099adfb0b55b38bf881b9d4d7ae4cd04fb2510220743e37125bbac03e8ef6caba0702d79d3ef047c65737091fd018528c78cdfb0c01",
        "03bab1275a436baebe1bfe5cd21b39688d46baf2624e175692c52a2f4d2812fb95"
      ],
      "is_coinbase": false,
      "sequence": 4294967295
    }
  ],
  "vout": [
    {
      "scriptpubkey": "a9146c06deafe998ab91c94b0cfabdc1faee0d1adfb987",
      "scriptpubkey_asm": "OP_HASH160 OP_PUSHBYTES_20 6c06deafe998ab91c94b0cfabdc1faee0d1adfb9 OP_EQUAL",
      "scriptpubkey_type": "p2sh",
      "scriptpubkey_address": "3BYD8b5wrH6RT8NdF7gfrXf98W9NJpFmjb",
      "value": 6747755
    },
    {
      "scriptpubkey": "00149ef4906f01fa4d395121afc8c60817eef22dd935",
      "scriptpubkey_asm": "OP_0 OP_PUSHBYTES_20 9ef4906f01fa4d395121afc8c60817eef22dd935",
      "scriptpubkey_type": "v0_p2wpkh",
      "scriptpubkey_address": "bc1qnm6fqmcplfxnj5fp4lyvvzqhamezmkf493rm4z",
      "value": 68634
    }
  ],
  "size": 224,
  "weight": 566,
  "fee": 3834,
  "status": {
    "confirmed": true,
    "block_height": 834638,
    "block_hash": "000000000000000000025f742c626208ac87e0b7d15054abb4a19ca2d735a54e",
    "block_time": 1710405325
  },
  "hex": "01000000000101dfe49088e362e658aed03d7e21bb25586c92b8b06309841c83f8e52cdf4c95eb0100000000ffffffff026bf666000000000017a9146c06deafe998ab91c94b0cfabdc1faee0d1adfb9871a0c0100000000001600149ef4906f01fa4d395121afc8c60817eef22dd93502483045022100c4ac6901670387650d11856e83f099adfb0b55b38bf881b9d4d7ae4cd04fb2510220743e37125bbac03e8ef6caba0702d79d3ef047c65737091fd018528c78cdfb0c012103bab1275a436baebe1bfe5cd21b39688d46baf2624e175692c52a2f4d2812fb9500000000"
}