{
  "txid": "5c940b126e3e4e80148782f32aada256737ca6479dd9fe53c74f0793f0861f88",
  "version": 2,
  "locktime": 0,
  "vin": [
    {
      "txid": "426f08fbaaacdc4b13cb6f428c89487358ea4dac9ed7948a96cfaa3f67ad9d67",
      "vout": 39,
      "prevout": {
        "scriptpubkey": "51206c4f95f72f66a100a0065e130464a1736583054034ff1386b445420d18ddeb56",
        "scriptpubkey_asm": "OP_PUSHNUM_1 OP_PUSHBYTES_32 6c4f95f72f66a100a0065e130464a1736583054034ff1386b445420d18ddeb56",
        "scriptpubkey_type": "v1_p2tr",
        "scriptpubkey_address": "bc1pd38etae0v6sspgqxtcfsge9pwdjcxp2qxnl38p45g4pq6xxaadtqj9upqa",
        "value": 4578
      },
      "scriptsig": "",
      "scriptsig_asm": "",
      "witness": [
        "ff87458c92b61c0bf52d82b88b959a9a1d8dae95c21ed892b5fd5ad718cc6a812355255414cf60bf5769bac23cb3c11758b4069eb0e9c5bfcbe32fe63c73cc36",
        "20f2cdff0e90df2b6bda01c70c2a70a5898567bcd3ff79d3ae194bfe753bfc009bac0063036f726401011e6170706c69636174696f6e2f6a736f6e3b636861727365743d7574662d38004cd27b2270223a22706f772d3230222c226f70223a226d696e74222c227469636b223a2250455045222c22616d74223a2231303030222c22736f6c7574696f6e223a22504550453a62633170636a65387233733875656e746d64767a6e34777337786d3836367879707535756139357371796877756835616d61677565367a73707a733637713a303030303030303030303030303030303030303139393431613561653132383937363539383134343239323533333030353762306461393666336465613163353a35323735333934353034227d68",
        "c0039ed2fd528e891a28907036b81ec900320c2b9f26f0b27e7e5cfd0fc9102a4d"
      ],
      "is_coinbase": false,
      "sequence": 4294967295
    }
  ],
  "vout": [
    {
      "scriptpubkey": "5120c4b271c607e666bdb5829d5d0f1b67d68c40f29ce9690012eee5e9ddf51cce85",
      "scriptpubkey_asm": "OP_PUSHNUM_1 OP_PUSHBYTES_32 c4b271c607e666bdb5829d5d0f1b67d68c40f29ce9690012eee5e9ddf51cce85",
      "scriptpubkey_type": "v1_p2tr",
      "scriptpubkey_address": "bc1pcje8r3s8uentmdvzn4ws7xm866xypu5ua95sqyhwuh5amague6zspzs67q",
      "value": 546
    }
  ],
  "size": 486,
  "weight": 768,
  "fee": 4032,
  "status": {
    "confirmed": true,
    "block_height": 834460,
    "block_hash": "00000000000000000000484a79b643b2524bbce82e5d8a442013fa5b8905ed98",
    "block_time": 1710307468
  },
  "hex": "02000000000101679dad673faacf968a94d79eac4dea587348898c426fcb134bdcacaafb086f422700000000ffffffff012202000000000000225120c4b271c607e666bdb5829d5d0f1b67d68c40f29ce9690012eee5e9ddf51cce850340ff87458c92b61c0bf52d82b88b959a9a1d8dae95c21ed892b5fd5ad718cc6a812355255414cf60bf5769bac23cb3c11758b4069eb0e9c5bfcbe32fe63c73cc36fd1f0120f2cdff0e90df2b6bda01c70c2a70a5898567bcd3ff79d3ae194bfe753bfc009bac0063036f726401011e6170706c69636174696f6e2f6a736f6e3b636861727365743d7574662d38004cd27b2270223a22706f772d3230222c226f70223a226d696e74222c227469636b223a2250455045222c22616d74223a2231303030222c22736f6c7574696f6e223a22504550453a62633170636a65387233733875656e746d64767a6e34777337786d3836367879707535756139357371796877756835616d61677565367a73707a733637713a303030303030303030303030303030303030303139393431613561653132383937363539383134343239323533333030353762306461393666336465613163353a35323735333934353034227d6821c0039ed2fd528e891a28907036b81ec900320c2b9f26f0b27e7e5cfd0fc9102a4d00000000"
}