{
  "txid": "5c94995d83d650796381b4d9c01e4e6ff7a85e78e5d4a558cf6f0d10af4b76d3",
  "version": 2,
  "locktime": 0,
  "vin": [
    {
      "txid": "acc3ba00869acb582a3f2904ce3a11dd3779350ce234063fc7d0959246213364",
      "vout": 49,
      "prevout": {
        "scriptpubkey": "512020e2a4040cc2c2a9e9765fa27d19dea4fa7c1ee9dcea9e5376f93b4cc923ea40",
        "scriptpubkey_asm": "OP_PUSHNUM_1 OP_PUSHBYTES_32 20e2a4040cc2c2a9e9765fa27d19dea4fa7c1ee9dcea9e5376f93b4cc923ea40",
        "scriptpubkey_type": "v1_p2tr",
        "scriptpubkey_address": "bc1pyr32gpqvctp2n6tkt7386xw75na8c8hfmn4fu5mklya5ejfrafqq25t698",
        "value": 1806
      },
      "scriptsig": "",
      "scriptsig_asm": "",
      "witness": [
        "cba0c2cde1c6b9022c44310283eafd86c741c9bffbf99cc6e7f42bc295703bb41b99493d525d40e20f2bcf5ca63b10ab233ce2282ba0c433b6d59fcfeaf03f44",
        "2044f61ffb7ce4a3b2c420a21421769fe3108775ffc5b8a904952ef42a37e5684aac0063036f726401010a746578742f706c61696e00357b2270223a226272632d3230222c226f70223a226d696e74222c227469636b223a22646f6765222c22616d74223a2234323030227d68",
        "c044f61ffb7ce4a3b2c420a21421769fe3108775ffc5b8a904952ef42a37e5684a"
      ],
      "is_coinbase": false,
      "sequence": 4261412863
    }
  ],
  "vout": [
    {
      "scriptpubkey": "00147a665de7a370f4c9b372ab1fae587500a5bcbdb4",
      "scriptpubkey_asm": "OP_0 OP_PUSHBYTES_20 7a665de7a370f4c9b372ab1fae587500a5bcbdb4",
      "scriptpubkey_type": "v0_p2wpkh",
      "scriptpubkey_address": "bc1q0fn9mearwr6vnvmj4v06ukr4qzjme0d565dzcx",
      "value": 294
    }
  ],
  "size": 294,
  "weight": 540,
  "fee": 1512,
  "status": {
    "confirmed": true,
    "block_height": 834460,
    "block_hash": "00000000000000000000484a79b643b2524bbce82e5d8a442013fa5b8905ed98",
    "block_time": 1710307468
  },
  "hex": "02000000000101643321469295d0c73f0634e20c357937dd113ace04293f2a58cb9a8600bac3ac3100000000fffffffd0126010000000000001600147a665de7a370f4c9b372ab1fae587500a5bcbdb40340cba0c2cde1c6b9022c44310283eafd86c741c9bffbf99cc6e7f42bc295703bb41b99493d525d40e20f2bcf5ca63b10ab233ce2282ba0c433b6d59fcfeaf03f446d2044f61ffb7ce4a3b2c420a21421769fe3108775ffc5b8a904952ef42a37e5684aac0063036f726401010a746578742f706c61696e00357b2270223a226272632d3230222c226f70223a226d696e74222c227469636b223a22646f6765222c22616d74223a2234323030227d6821c044f61ffb7ce4a3b2c420a21421769fe3108775ffc5b8a904952ef42a37e5684a00000000"
}