{
  "txid": "5cc1876c4f14dba952cc477ec14be7d015ac0ced5c6edd2950cd705e0f9cd046",
  "version": 1,
  "locktime": 0,
  "vin": [
    {
      "txid": "0952e862ed62273e932514e9d7b10eafda75293f417a3034c81704b14b8b7c80",
      "vout": 27,
      "prevout": {
        "scriptpubkey": "0014a7f47e93085c722bea40fd68b91abe9ea0ecc52f",
        "scriptpubkey_asm": "OP_0 OP_PUSHBYTES_20 a7f47e93085c722bea40fd68b91abe9ea0ecc52f",
        "scriptpubkey_type": "v0_p2wpkh",
        "scriptpubkey_address": "bc1q5l68aycgt3ezh6jql45tjx47n6swe3f0e7xtae",
        "value": 490668355
      },
      "scriptsig": "",
      "scriptsig_asm": "",
      "witness": [
        "30440220178238c59fca1a3c19977d3a55209bf90384fc2b674e2b7248d0a44d81a5abce02207440ad8b21ea88bbcbb117dc7243aff051200a80e2aa04cb63e18ed407db341301",
        "02dc4d054e0a3122f3ebe1cdb525a5c6c0a38e37ad08183169c5bfe1be5e201e46"
      ],
      "is_coinbase": false,
      "sequence": 4294967295
    }
  ],
  "vout": [
    {
      "scriptpubkey": "76a914e8288e2614a880574cbc9ff8b7c006ffc499cec688ac",
      "scriptpubkey_asm": "OP_DUP OP_HASH160 OP_PUSHBYTES_20 e8288e2614a880574cbc9ff8b7c006ffc499cec6 OP_EQUALVERIFY OP_CHECKSIG",
      "scriptpubkey_type": "p2pkh",
      "scriptpubkey_address": "1NAYMLNyGJTcKutK9pvQWMKsX9BucZ6Vpc",
      "value": 86000
    },
    {
      "scriptpubkey": "a914c7dc9088bd50f3d64fefd761d8b44b399de5fc2487",
      "scriptpubkey_asm": "OP_HASH160 OP_PUSHBYTES_20 c7dc9088bd50f3d64fefd761d8b44b399de5fc24 OP_EQUAL",
      "scriptpubkey_type": "p2sh",
      "scriptpubkey_address": "3KuncpB2hrzF1LcY3xTniP4Hxs288jBqwP",
      "value": 159000
    },
    {
      "scriptpubkey": "00149b8ea70f0b57d1da484a0937f718713dbf198e14",
      "scriptpubkey_asm": "OP_0 OP_PUSHBYTES_20 9b8ea70f0b57d1da484a0937f718713dbf198e14",
      "scriptpubkey_type": "v0_p2wpkh",
      "scriptpubkey_address": "bc1qnw82wrct2lga5jz2pymlwxr38kl3nrs5zrnk0g",
      "value": 51000
    },
    {
      "scriptpubkey": "76a914e26c2c5adaf966a44894b30864bba7ceb54ad91388ac",
      "scriptpubkey_asm": "OP_DUP OP_HASH160 OP_PUSHBYTES_20 e26c2c5adaf966a44894b30864bba7ceb54ad913 OP_EQUALVERIFY OP_CHECKSIG",
      "scriptpubkey_type": "p2pkh",
      "scriptpubkey_address": "1MeDJN6H2j23Nt1tEJ5iyUsW637k4Uikhb",
      "value": 34000
    },
    {
      "scriptpubkey": "0014ea7a90b0eb7231b70610db6dab46c7c8058fbdf4",
      "scriptpubkey_asm": "OP_0 OP_PUSHBYTES_20 ea7a90b0eb7231b70610db6dab46c7c8058fbdf4",
      "scriptpubkey_type": "v0_p2wpkh",
      "scriptpubkey_address": "bc1qafafpv8twgcmwpssmdk6k3k8eqzcl005ykrzut",
      "value": 51000
    },
    {
      "scriptpubkey": "76a914e944b4cf77c248d66a827d414b6dab0af1fbd85688ac",
      "scriptpubkey_asm": "OP_DUP OP_HASH160 OP_PUSHBYTES_20 e944b4cf77c248d66a827d414b6dab0af1fbd856 OP_EQUALVERIFY OP_CHECKSIG",
      "scriptpubkey_type": "p2pkh",
      "scriptpubkey_address": "1NGQkVcKFE4cpeZ97ZkBd5EUECM6GdrwXe",
      "value": 97000
    },
    {
      "scriptpubkey": "76a914eb90bbe1ac3975b21741c8edbf4249b8cd01376888ac",
      "scriptpubkey_asm": "OP_DUP OP_HASH160 OP_PUSHBYTES_20 eb90bbe1ac3975b21741c8edbf4249b8cd013768 OP_EQUALVERIFY OP_CHECKSIG",
      "scriptpubkey_type": "p2pkh",
      "scriptpubkey_address": "1NUZBNPCugpX9U6uemi5CtF49mcgF2tAXy",
      "value": 203000
    },
    {
      "scriptpubkey": "0014333d52b50dd9ae0d9bc92d71e2f6e4c86f8d3ca0",
      "scriptpubkey_asm": "OP_0 OP_PUSHBYTES_20 333d52b50dd9ae0d9bc92d71e2f6e4c86f8d3ca0",
      "scriptpubkey_type": "v0_p2wpkh",
      "scriptpubkey_address": "bc1qxv749dgdmxhqmx7f94c79ahyephc609qpqk7m7",
      "value": 75000
    },
    {
      "scriptpubkey": "0014c1f3411e12d0df9e762bc89be62f540ea5e4d93d",
      "scriptpubkey_asm": "OP_0 OP_PUSHBYTES_20 c1f3411e12d0df9e762bc89be62f540ea5e4d93d",
      "scriptpubkey_type": "v0_p2wpkh",
      "scriptpubkey_address": "bc1qc8e5z8sj6r0eua3tezd7vt65p6j7fkfaue87yz",
      "value": 194000
    },
    {
      "scriptpubkey": "0014b9ff64574698b77504ac64c80e5771bb16f3791f",
      "scriptpubkey_asm": "OP_0 OP_PUSHBYTES_20 b9ff64574698b77504ac64c80e5771bb16f3791f",
      "scriptpubkey_type": "v0_p2wpkh",
      "scriptpubkey_address": "bc1qh8lkg46xnzmh2p9vvnyqu4m3hvt0x7gltxmmr6",
      "value": 58000
    },
    {
      "scriptpubkey": "001472e542101a9826150058ab0f92c195502008b74c",
      "scriptpubkey_asm": "OP_0 OP_PUSHBYTES_20 72e542101a9826150058ab0f92c195502008b74c",
      "scriptpubkey_type": "v0_p2wpkh",
      "scriptpubkey_address": "bc1qwtj5yyq6nqnp2qzc4v8e9sv42qsq3d6vq28m2m",
      "value": 139000
    },
    {
      "scriptpubkey": "0014545902552b41d6ead5703d5ffd2fe8b03a1e9bdb",
      "scriptpubkey_asm": "OP_0 OP_PUSHBYTES_20 545902552b41d6ead5703d5ffd2fe8b03a1e9bdb",
      "scriptpubkey_type": "v0_p2wpkh",
      "scriptpubkey_address": "bc1q23vsy4ftg8tw44ts840l6tlgkqapax7mt5jz76",
      "value": 155000
    },
    {
      "scriptpubkey": "0014339485e90898c94b9cdff48e4e0e4ef178cf358e",
      "scriptpubkey_asm": "OP_0 OP_PUSHBYTES_20 339485e90898c94b9cdff48e4e0e4ef178cf358e",
      "scriptpubkey_type": "v0_p2wpkh",
      "scriptpubkey_address": "bc1qxw2gt6ggnry5h8xl7j8yurjw79uv7dvwcl4p32",
      "value": 36000
    },
    {
      "scriptpubkey": "00141d9836fc662c1bab1ea1aa0b24d8c582324e229e",
      "scriptpubkey_asm": "OP_0 OP_PUSHBYTES_20 1d9836fc662c1bab1ea1aa0b24d8c582324e229e",
      "scriptpubkey_type": "v0_p2wpkh",
      "scriptpubkey_address": "bc1qrkvrdlrx9sd6k84p4g9jfkx9sgeyug57vxp8ef",
      "value": 259000
    },
    {
      "scriptpubkey": "00149cbba618821d8013eb238a94f51681e3926061b9",
      "scriptpubkey_asm": "OP_0 OP_PUSHBYTES_20 9cbba618821d8013eb238a94f51681e3926061b9",
      "scriptpubkey_type": "v0_p2wpkh",
      "scriptpubkey_address": "bc1qnja6vxyzrkqp86er3220295puwfxqcdegs7mm9",
      "value": 369000
    },
    {
      "scriptpubkey": "a9144d509ad11211fe13ae3d6349382b1540fa58882d87",
      "scriptpubkey_asm": "OP_HASH160 OP_PUSHBYTES_20 4d509ad11211fe13ae3d6349382b1540fa58882d OP_EQUAL",
      "scriptpubkey_type": "p2sh",
      "scriptpubkey_address": "38jpWqA4EnaCgmWRJQAMvH4UHbTUjpsBBX",
      "value": 1364000
    },
    {
      "scriptpubkey": "a914412fd3b7459b690d80cf79dc3471d8f6c4a96cf287",
      "scriptpubkey_asm": "OP_HASH160 OP_PUSHBYTES_20 412fd3b7459b690d80cf79dc3471d8f6c4a96cf2 OP_EQUAL",
      "scriptpubkey_type": "p2sh",
      "scriptpubkey_address": "37dh96HmegeTMt1qPfoQsMrodU9m4MFCTn",
      "value": 59000
    },
    {
      "scriptpubkey": "00144617885b4b05db0a2a6b3d1e9207cfac70f33790",
      "scriptpubkey_asm": "OP_0 OP_PUSHBYTES_20 4617885b4b05db0a2a6b3d1e9207cfac70f33790",
      "scriptpubkey_type": "v0_p2wpkh",
      "scriptpubkey_address": "bc1qgctcsk6tqhds52nt850fyp7043c0xdusj5vv63",
      "value": 711000
    },
    {
      "scriptpubkey": "0014581e1226192b940245e5b4c39a18e4e121517830",
      "scriptpubkey_asm": "OP_0 OP_PUSHBYTES_20 581e1226192b940245e5b4c39a18e4e121517830",
      "scriptpubkey_type": "v0_p2wpkh",
      "scriptpubkey_address": "bc1qtq0pyfse9w2qy309knpe5x8yuys4z7psa0tmhd",
      "value": 141000
    },
    {
      "scriptpubkey": "76a914cad6fb3edfa247e5bedb2612470f54e9f84b5d7788ac",
      "scriptpubkey_asm": "OP_DUP OP_HASH160 OP_PUSHBYTES_20 cad6fb3edfa247e5bedb2612470f54e9f84b5d77 OP_EQUALVERIFY OP_CHECKSIG",
      "scriptpubkey_type": "p2pkh",
      "scriptpubkey_address": "1KVX2vS3QaTRdAy9NCBn699FGNTig8snjF",
      "value": 279000
    },
    {
      "scriptpubkey": "0014821508f3c4540b53f7e7396cde3e8c20ac046e5c",
      "scriptpubkey_asm": "OP_0 OP_PUSHBYTES_20 821508f3c4540b53f7e7396cde3e8c20ac046e5c",
      "scriptpubkey_type": "v0_p2wpkh",
      "scriptpubkey_address": "bc1qsg2s3u7y2s948al889kdu05vyzkqgmju23chm0",
      "value": 36000
    },
    {
      "scriptpubkey": "001492dd81dd812962afedb5c7aac7d6ffc452e3cd92",
      "scriptpubkey_asm": "OP_0 OP_PUSHBYTES_20 92dd81dd812962afedb5c7aac7d6ffc452e3cd92",
      "scriptpubkey_type": "v0_p2wpkh",
      "scriptpubkey_address": "bc1qjtwcrhvp9932lmd4c74v04hlc3fw8nvjv3u90p",
      "value": 103000
    },
    {
      "scriptpubkey": "a914d247cd43a4b95d35110b5546c9305da69347d1c187",
      "scriptpubkey_asm": "OP_HASH160 OP_PUSHBYTES_20 d247cd43a4b95d35110b5546c9305da69347d1c1 OP_EQUAL",
      "scriptpubkey_type": "p2sh",
      "scriptpubkey_address": "3LrsqhstN8ErZxtZrUn8AEuNbJj1FzJp7Z",
      "value": 955000
    },
    {
      "scriptpubkey": "0014db729d94facb73ae7036ef2b814c8e7f976cca31",
      "scriptpubkey_asm": "OP_0 OP_PUSHBYTES_20 db729d94facb73ae7036ef2b814c8e7f976cca31",
      "scriptpubkey_type": "v0_p2wpkh",
      "scriptpubkey_address": "bc1qmdefm986ede6uupkau4cznyw07tkej33t9nk2d",
      "value": 1111000
    },
    {
      "scriptpubkey": "76a914e62f6ebaf3509b04e5f682d564c5df74370918ab88ac",
      "scriptpubkey_asm": "OP_DUP OP_HASH160 OP_PUSHBYTES_20 e62f6ebaf3509b04e5f682d564c5df74370918ab OP_EQUALVERIFY OP_CHECKSIG",
      "scriptpubkey_type": "p2pkh",
      "scriptpubkey_address": "1Mz7Env9ojzeMbAFYVHCq2uVp4awRYabB1",
      "value": 58000
    },
    {
      "scriptpubkey": "001456d2b72b9ad0bf1de53b3b9f481416918d7f0801",
      "scriptpubkey_asm": "OP_0 OP_PUSHBYTES_20 56d2b72b9ad0bf1de53b3b9f481416918d7f0801",
      "scriptpubkey_type": "v0_p2wpkh",
      "scriptpubkey_address": "bc1q2mftw2u66zl3mefm8w05s9qkjxxh7zqpjzgz6u",
      "value": 802000
    },
    {
      "scriptpubkey": "00149fee02eb975d101b7dbbe6441f5743eef69d7398",
      "scriptpubkey_asm": "OP_0 OP_PUSHBYTES_20 9fee02eb975d101b7dbbe6441f5743eef69d7398",
      "scriptpubkey_type": "v0_p2wpkh",
      "scriptpubkey_address": "bc1qnlhq96uht5gpkldmuezp746rammf6uuc2dvkvy",
      "value": 378000
    },
    {
      "scriptpubkey": "a9144d509ad11211fe13ae3d6349382b1540fa58882d87",
      "scriptpubkey_asm": "OP_HASH160 OP_PUSHBYTES_20 4d509ad11211fe13ae3d6349382b1540fa58882d OP_EQUAL",
      "scriptpubkey_type": "p2sh",
      "scriptpubkey_address": "38jpWqA4EnaCgmWRJQAMvH4UHbTUjpsBBX",
      "value": 1091000
    },
    {
      "scriptpubkey": "76a914cb2f28c2c34b70058210404be688095f5a4b166c88ac",
      "scriptpubkey_asm": "OP_DUP OP_HASH160 OP_PUSHBYTES_20 cb2f28c2c34b70058210404be688095f5a4b166c OP_EQUALVERIFY OP_CHECKSIG",
      "scriptpubkey_type": "p2pkh",
      "scriptpubkey_address": "1KXLfd4aVD74W3ND39Lz3PS3c8XAL8a8Dc",
      "value": 98000
    },
    {
      "scriptpubkey": "a91434a4197b615fe474206bf96d10c22d70efbdcea487",
      "scriptpubkey_asm": "OP_HASH160 OP_PUSHBYTES_20 34a4197b615fe474206bf96d10c22d70efbdcea4 OP_EQUAL",
      "scriptpubkey_type": "p2sh",
      "scriptpubkey_address": "36VMeMXkTp369T8zMeUpwvk6v2H5Ga6cDv",
      "value": 249000
    },
    {
      "scriptpubkey": "76a9141866d96512831f53b60b39bc72d60e1f94687a1588ac",
      "scriptpubkey_asm": "OP_DUP OP_HASH160 OP_PUSHBYTES_20 1866d96512831f53b60b39bc72d60e1f94687a15 OP_EQUALVERIFY OP_CHECKSIG",
      "scriptpubkey_type": "p2pkh",
      "scriptpubkey_address": "13E2Rh7GxhfUSGWWr49vq6qe5QGnRSXCza",
      "value": 134000
    },
    {
      "scriptpubkey": "0014f2da1b543e2cbe5573ecac6f7ac99aa5e8c54cb8",
      "scriptpubkey_asm": "OP_0 OP_PUSHBYTES_20 f2da1b543e2cbe5573ecac6f7ac99aa5e8c54cb8",
      "scriptpubkey_type": "v0_p2wpkh",
      "scriptpubkey_address": "bc1q7tdpk4p79jl92ulv43hh4jv65h5v2n9cpd5xze",
      "value": 55000
    },
    {
      "scriptpubkey": "a914d8a62b539fd470fdb855ed391493beefc9ed18f687",
      "scriptpubkey_asm": "OP_HASH160 OP_PUSHBYTES_20 d8a62b539fd470fdb855ed391493beefc9ed18f6 OP_EQUAL",
      "scriptpubkey_type": "p2sh",
      "scriptpubkey_address": "3MSYwcx9dtGSgHMc1cmSKR7Nv87pH9mxsj",
      "value": 125000
    },
    {
      "scriptpubkey": "a91403d01fd4a04111bbce508998164f75b57bd4b30187",
      "scriptpubkey_asm": "OP_HASH160 OP_PUSHBYTES_20 03d01fd4a04111bbce508998164f75b57bd4b301 OP_EQUAL",
      "scriptpubkey_type": "p2sh",
      "scriptpubkey_address": "323BGrMd5JyifGyJQ7k6p7jqVof1NyULm9",
      "value": 58000
    },
    {
      "scriptpubkey": "0014692daf91973090640647f27d0a4b5cd8eb034ec7",
      "scriptpubkey_asm": "OP_0 OP_PUSHBYTES_20 692daf91973090640647f27d0a4b5cd8eb034ec7",
      "scriptpubkey_type": "v0_p2wpkh",
      "scriptpubkey_address": "bc1qdyk6lyvhxzgxgpj87f7s5j6umr4sxnk89g6yhc",
      "value": 393000
    },
    {
      "scriptpubkey": "00148b79a3007eba9bdcef60fa081545ae58eb4d5abb",
      "scriptpubkey_asm": "OP_0 OP_PUSHBYTES_20 8b79a3007eba9bdcef60fa081545ae58eb4d5abb",
      "scriptpubkey_type": "v0_p2wpkh",
      "scriptpubkey_address": "bc1q3du6xqr7h2daemmqlgyp23dwtr456k4mjcp0h4",
      "value": 29000
    },
    {
      "scriptpubkey": "0014a2adaed1ed408e6c0274bcb64bca3a18e5641bd6",
      "scriptpubkey_asm": "OP_0 OP_PUSHBYTES_20 a2adaed1ed408e6c0274bcb64bca3a18e5641bd6",
      "scriptpubkey_type": "v0_p2wpkh",
      "scriptpubkey_address": "bc1q52k6a50dgz8xcqn5hjmyhj36rrjkgx7kmy0mp4",
      "value": 278000
    },
    {
      "scriptpubkey": "0014666b2895e92787def18ee3f27bbfe413f3ae7a8e",
      "scriptpubkey_asm": "OP_0 OP_PUSHBYTES_20 666b2895e92787def18ee3f27bbfe413f3ae7a8e",
      "scriptpubkey_type": "v0_p2wpkh",
      "scriptpubkey_address": "bc1qve4j390fy7raauvwu0e8h0lyz0e6u75wa5swe8",
      "value": 114000
    },
    {
      "scriptpubkey": "0014a7f47e93085c722bea40fd68b91abe9ea0ecc52f",
      "scriptpubkey_asm": "OP_0 OP_PUSHBYTES_20 a7f47e93085c722bea40fd68b91abe9ea0ecc52f",
      "scriptpubkey_type": "v0_p2wpkh",
      "scriptpubkey_address": "bc1q5l68aycgt3ezh6jql45tjx47n6swe3f0e7xtae",
      "value": 480063931
    }
  ],
  "size": 1401,
  "weight": 5277,
  "fee": 17424,
  "status": {
    "confirmed": true,
    "block_height": 834638,
    "block_hash": "000000000000000000025f742c626208ac87e0b7d15054abb4a19ca2d735a54e",
    "block_time": 1710405325
  },
  "hex": "01000000000101807c8b4bb10417c834307a413f2975daaf0eb1d7e91425933e2762ed62e852091b00000000ffffffff27f04f0100000000001976a914e8288e2614a880574cbc9ff8b7c006ffc499cec688ac186d02000000000017a914c7dc9088bd50f3d64fefd761d8b44b399de5fc248738c70000000000001600149b8ea70f0b57d1da484a0937f718713dbf198e14d0840000000000001976a914e26c2c5adaf966a44894b30864bba7ceb54ad91388ac38c7000000000000160014ea7a90b0eb7231b70610db6dab46c7c8058fbdf4e87a0100000000001976a914e944b4cf77c248d66a827d414b6dab0af1fbd85688acf8180300000000001976a914eb90bbe1ac3975b21741c8edbf4249b8cd01376888acf824010000000000160014333d52b50dd9ae0d9bc92d71e2f6e4c86f8d3ca0d0f5020000000000160014c1f3411e12d0df9e762bc89be62f540ea5e4d93d90e2000000000000160014b9ff64574698b77504ac64c80e5771bb16f3791ff81e02000000000016001472e542101a9826150058ab0f92c195502008b74c785d020000000000160014545902552b41d6ead5703d5ffd2fe8b03a1e9bdba08c000000000000160014339485e90898c94b9cdff48e4e0e4ef178cf358eb8f30300000000001600141d9836fc662c1bab1ea1aa0b24d8c582324e229e68a10500000000001600149cbba618821d8013eb238a94f51681e3926061b920d014000000000017a9144d509ad11211fe13ae3d6349382b1540fa58882d8778e600000000000017a914412fd3b7459b690d80cf79dc3471d8f6c4a96cf28758d90a00000000001600144617885b4b05db0a2a6b3d1e9207cfac70f33790c826020000000000160014581e1226192b940245e5b4c39a18e4e121517830d8410400000000001976a914cad6fb3edfa247e5bedb2612470f54e9f84b5d7788aca08c000000000000160014821508f3c4540b53f7e7396cde3e8c20ac046e5c589201000000000016001492dd81dd812962afedb5c7aac7d6ffc452e3cd9278920e000000000017a914d247cd43a4b95d35110b5546c9305da69347d1c187d8f3100000000000160014db729d94facb73ae7036ef2b814c8e7f976cca3190e20000000000001976a914e62f6ebaf3509b04e5f682d564c5df74370918ab88acd03c0c000000000016001456d2b72b9ad0bf1de53b3b9f481416918d7f080190c40500000000001600149fee02eb975d101b7dbbe6441f5743eef69d7398b8a510000000000017a9144d509ad11211fe13ae3d6349382b1540fa58882d87d07e0100000000001976a914cb2f28c2c34b70058210404be688095f5a4b166c88aca8cc03000000000017a91434a4197b615fe474206bf96d10c22d70efbdcea487700b0200000000001976a9141866d96512831f53b60b39bc72d60e1f94687a1588acd8d6000000000000160014f2da1b543e2cbe5573ecac6f7ac99aa5e8c54cb848e801000000000017a914d8a62b539fd470fdb855ed391493beefc9ed18f68790e200000000000017a91403d01fd4a04111bbce508998164f75b57bd4b3018728ff050000000000160014692daf91973090640647f27d0a4b5cd8eb034ec748710000000000001600148b79a3007eba9bdcef60fa081545ae58eb4d5abbf03d040000000000160014a2adaed1ed408e6c0274bcb64bca3a18e5641bd650bd010000000000160014666b2895e92787def18ee3f27bbfe413f3ae7a8ebb319d1c00000000160014a7f47e93085c722bea40fd68b91abe9ea0ecc52f024730440220178238c59fca1a3c19977d3a55209bf90384fc2b674e2b7248d0a44d81a5abce02207440ad8b21ea88bbcbb117dc7243aff051200a80e2aa04cb63e18ed407db3413012102dc4d054e0a3122f3ebe1cdb525a5c6c0a38e37ad08183169c5bfe1be5e201e4600000000"
}