{
  "txid": "5cc38bc3a9c26b3d269e6c1c73d734685c9ab35f58a045b759e28a9614b1017a",
  "version": 2,
  "locktime": 0,
  "vin": [
    {
      "txid": "6e3ab418737a4750cc5691455abbaac84dc5cc9d6b674ead102b67100e75c603",
      "vout": 3,
      "prevout": {
        "scriptpubkey": "51203bdba8b4b9d29e1452cc228f1452a069de1e6fe459cfdb89ccb26af53f7dd65f",
        "scriptpubkey_asm": "OP_PUSHNUM_1 OP_PUSHBYTES_32 3bdba8b4b9d29e1452cc228f1452a069de1e6fe459cfdb89ccb26af53f7dd65f",
        "scriptpubkey_type": "v1_p2tr",
        "scriptpubkey_address": "bc1p80d63d9e620pg5kvy283g54qd80pumlyt88ahzwvkf4020ma6e0s24xf0n",
        "value": 600
      },
      "scriptsig": "",
      "scriptsig_asm": "",
      "witness": [
        "c833bd20244d92377089ee2f6a196e7352dca844c0ec1530b01cb48acb497bf4835a080a7626e4cd9e8abba63fcf641e8fc18042071b48436e2b7936cdb7d68e01"
      ],
      "is_coinbase": false,
      "sequence": 4294967295
    },
    {
      "txid": "a3e692f525139836ab114efb6b82a2a7e8dce762ea831ac6ed3154dfebb59835",
      "vout": 4,
      "prevout": {
        "scriptpubkey": "51203bdba8b4b9d29e1452cc228f1452a069de1e6fe459cfdb89ccb26af53f7dd65f",
        "scriptpubkey_asm": "OP_PUSHNUM_1 OP_PUSHBYTES_32 3bdba8b4b9d29e1452cc228f1452a069de1e6fe459cfdb89ccb26af53f7dd65f",
        "scriptpubkey_type": "v1_p2tr",
        "scriptpubkey_address": "bc1p80d63d9e620pg5kvy283g54qd80pumlyt88ahzwvkf4020ma6e0s24xf0n",
        "value": 600
      },
      "scriptsig": "",
      "scriptsig_asm": "",
      "witness": [
        "c9d5589198064840b0ec761aa442eff32391b7dee478ed17819d21356f81984266d9583ff03b312ae486ccc40c5108f6d884869e84596160a7df056d396b744c01"
      ],
      "is_coinbase": false,
      "sequence": 4294967295
    },
    {
      "txid": "38b2d12692986e89c16d96342b821b46f269aa65854d1a4506403dc197fe907a",
      "vout": 0,
      "prevout": {
        "scriptpubkey": "5120269db7e4a013f6f6cdb4548cfefb69debbb5fb7a546c87ebfbccf30a651f51cd",
        "scriptpubkey_asm": "OP_PUSHNUM_1 OP_PUSHBYTES_32 269db7e4a013f6f6cdb4548cfefb69debbb5fb7a546c87ebfbccf30a651f51cd",
        "scriptpubkey_type": "v1_p2tr",
        "scriptpubkey_address": "bc1py6wm0e9qz0m0dnd52jx0a7mfm6amt7m623kg06lmenes5egl28xscgn9ew",
        "value": 546
      },
      "scriptsig": "",
      "scriptsig_asm": "",
      "witness": [
        "ab765deaa15121a78a5cca4444459ff7ef7e6b20cd5580d180d5ef2e6c34724b615b3facea963af13013645af3ac5eb954522320e90db1080455d7dcbbf047c383"
      ],
      "is_coinbase": false,
      "sequence": 4294967295
    },
    {
      "txid": "6e3ab418737a4750cc5691455abbaac84dc5cc9d6b674ead102b67100e75c603",
      "vout": 5,
      "prevout": {
        "scriptpubkey": "51203bdba8b4b9d29e1452cc228f1452a069de1e6fe459cfdb89ccb26af53f7dd65f",
        "scriptpubkey_asm": "OP_PUSHNUM_1 OP_PUSHBYTES_32 3bdba8b4b9d29e1452cc228f1452a069de1e6fe459cfdb89ccb26af53f7dd65f",
        "scriptpubkey_type": "v1_p2tr",
        "scriptpubkey_address": "bc1p80d63d9e620pg5kvy283g54qd80pumlyt88ahzwvkf4020ma6e0s24xf0n",
        "value": 673843
      },
      "scriptsig": "",
      "scriptsig_asm": "",
      "witness": [
        "b038b6791d1795e2c935286d7e2e3be71166f66ef94b4fdc197acb4391c4564cf7c70bec7a719a9c2cf66d6e111149c75444475461ec3f13ed371121c62e75bb01"
      ],
      "is_coinbase": false,
      "sequence": 4294967295
    }
  ],
  "vout": [
    {
      "scriptpubkey": "51203bdba8b4b9d29e1452cc228f1452a069de1e6fe459cfdb89ccb26af53f7dd65f",
      "scriptpubkey_asm": "OP_PUSHNUM_1 OP_PUSHBYTES_32 3bdba8b4b9d29e1452cc228f1452a069de1e6fe459cfdb89ccb26af53f7dd65f",
      "scriptpubkey_type": "v1_p2tr",
      "scriptpubkey_address": "bc1p80d63d9e620pg5kvy283g54qd80pumlyt88ahzwvkf4020ma6e0s24xf0n",
      "value": 1200
    },
    {
      "scriptpubkey": "51203bdba8b4b9d29e1452cc228f1452a069de1e6fe459cfdb89ccb26af53f7dd65f",
      "scriptpubkey_asm": "OP_PUSHNUM_1 OP_PUSHBYTES_32 3bdba8b4b9d29e1452cc228f1452a069de1e6fe459cfdb89ccb26af53f7dd65f",
      "scriptpubkey_type": "v1_p2tr",
      "scriptpubkey_address": "bc1p80d63d9e620pg5kvy283g54qd80pumlyt88ahzwvkf4020ma6e0s24xf0n",
      "value": 546
    },
    {
      "scriptpubkey": "5120269db7e4a013f6f6cdb4548cfefb69debbb5fb7a546c87ebfbccf30a651f51cd",
      "scriptpubkey_asm": "OP_PUSHNUM_1 OP_PUSHBYTES_32 269db7e4a013f6f6cdb4548cfefb69debbb5fb7a546c87ebfbccf30a651f51cd",
      "scriptpubkey_type": "v1_p2tr",
      "scriptpubkey_address": "bc1py6wm0e9qz0m0dnd52jx0a7mfm6amt7m623kg06lmenes5egl28xscgn9ew",
      "value": 130000
    },
    {
      "scriptpubkey": "51203bdba8b4b9d29e1452cc228f1452a069de1e6fe459cfdb89ccb26af53f7dd65f",
      "scriptpubkey_asm": "OP_PUSHNUM_1 OP_PUSHBYTES_32 3bdba8b4b9d29e1452cc228f1452a069de1e6fe459cfdb89ccb26af53f7dd65f",
      "scriptpubkey_type": "v1_p2tr",
      "scriptpubkey_address": "bc1p80d63d9e620pg5kvy283g54qd80pumlyt88ahzwvkf4020ma6e0s24xf0n",
      "value": 600
    },
    {
      "scriptpubkey": "51203bdba8b4b9d29e1452cc228f1452a069de1e6fe459cfdb89ccb26af53f7dd65f",
      "scriptpubkey_asm": "OP_PUSHNUM_1 OP_PUSHBYTES_32 3bdba8b4b9d29e1452cc228f1452a069de1e6fe459cfdb89ccb26af53f7dd65f",
      "scriptpubkey_type": "v1_p2tr",
      "scriptpubkey_address": "bc1p80d63d9e620pg5kvy283g54qd80pumlyt88ahzwvkf4020ma6e0s24xf0n",
      "value": 600
    },
    {
      "scriptpubkey": "51203bdba8b4b9d29e1452cc228f1452a069de1e6fe459cfdb89ccb26af53f7dd65f",
      "scriptpubkey_asm": "OP_PUSHNUM_1 OP_PUSHBYTES_32 3bdba8b4b9d29e1452cc228f1452a069de1e6fe459cfdb89ccb26af53f7dd65f",
      "scriptpubkey_type": "v1_p2tr",
      "scriptpubkey_address": "bc1p80d63d9e620pg5kvy283g54qd80pumlyt88ahzwvkf4020ma6e0s24xf0n",
      "value": 537219
    }
  ],
  "size": 702,
  "weight": 1998,
  "fee": 5424,
  "status": {
    "confirmed": true,
    "block_height": 834464,
    "block_hash": "0000000000000000000177a0869a911a2b65c9bdcd5a8bcb02b68f305bee848e",
    "block_time": 1710308296
  },
  "hex": "0200000000010403c6750e10672b10ad4e676b9dccc54dc8aabb5a459156cc50477a7318b43a6e0300000000ffffffff3598b5ebdf5431edc61a83ea62e7dce8a7a2826bfb4e11ab36981325f592e6a30400000000ffffffff7a90fe97c13d4006451a4d8565aa69f2461b822b34966dc1896e989226d1b2380000000000ffffffff03c6750e10672b10ad4e676b9dccc54dc8aabb5a459156cc50477a7318b43a6e0500000000ffffffff06b0040000000000002251203bdba8b4b9d29e1452cc228f1452a069de1e6fe459cfdb89ccb26af53f7dd65f22020000000000002251203bdba8b4b9d29e1452cc228f1452a069de1e6fe459cfdb89ccb26af53f7dd65fd0fb010000000000225120269db7e4a013f6f6cdb4548cfefb69debbb5fb7a546c87ebfbccf30a651f51cd58020000000000002251203bdba8b4b9d29e1452cc228f1452a069de1e6fe459cfdb89ccb26af53f7dd65f58020000000000002251203bdba8b4b9d29e1452cc228f1452a069de1e6fe459cfdb89ccb26af53f7dd65f83320800000000002251203bdba8b4b9d29e1452cc228f1452a069de1e6fe459cfdb89ccb26af53f7dd65f0141c833bd20244d92377089ee2f6a196e7352dca844c0ec1530b01cb48acb497bf4835a080a7626e4cd9e8abba63fcf641e8fc18042071b48436e2b7936cdb7d68e010141c9d5589198064840b0ec761aa442eff32391b7dee478ed17819d21356f81984266d9583ff03b312ae486ccc40c5108f6d884869e84596160a7df056d396b744c010141ab765deaa15121a78a5cca4444459ff7ef7e6b20cd5580d180d5ef2e6c34724b615b3facea963af13013645af3ac5eb954522320e90db1080455d7dcbbf047c3830141b038b6791d1795e2c935286d7e2e3be71166f66ef94b4fdc197acb4391c4564cf7c70bec7a719a9c2cf66d6e111149c75444475461ec3f13ed371121c62e75bb0100000000"
}