{
  "txid": "5cd18385589d5ade763ad4f72b942d08028294b5731dc27bb88c983f93e8c652",
  "version": 1,
  "locktime": 0,
  "vin": [
    {
      "txid": "88888880137184652347e08013633931b4d68b4edbf56907acb5982b9ef3cc5d",
      "vout": 0,
      "prevout": {
        "scriptpubkey": "51200f4fd888387f0e77018614fc2541450931351008929d39b6404731e117476f9d",
        "scriptpubkey_asm": "OP_PUSHNUM_1 OP_PUSHBYTES_32 0f4fd888387f0e77018614fc2541450931351008929d39b6404731e117476f9d",
        "scriptpubkey_type": "v1_p2tr",
        "scriptpubkey_address": "bc1ppa8a3zpc0u88wqvxzn7z2s29pycn2yqgj2wnndjqguc7z968d7ws3y9tce",
        "value": 11627
      },
      "scriptsig": "",
      "scriptsig_asm": "",
      "witness": [
        "cfb9af66eb92e272f446704edd828295d6c35379cff93330fb5ef5e09bee80c0cd3a0b48578e8f67c100fffc53b46939b20725435cd0804af49881b24ef39d8083",
        "20930d4ffacedaeeda983fbe6875a3f39bad4c323e8346d8dda5652f8cfd9db2eaac00630461746f6d03646d7442a16461726773a468626974776f726b6367383838383838386b6d696e745f7469636b657268696e66696e697479656e6f6e63651a00210e846474696d651a65dc5cc668",
        "c0930d4ffacedaeeda983fbe6875a3f39bad4c323e8346d8dda5652f8cfd9db2ea"
      ],
      "is_coinbase": false,
      "sequence": 4294967293
    }
  ],
  "vout": [
    {
      "scriptpubkey": "5120bf94882e5d0c036449dc3f1782adc8fe707e6d03ea0ecdd97e048b8da94a44b1",
      "scriptpubkey_asm": "OP_PUSHNUM_1 OP_PUSHBYTES_32 bf94882e5d0c036449dc3f1782adc8fe707e6d03ea0ecdd97e048b8da94a44b1",
      "scriptpubkey_type": "v1_p2tr",
      "scriptpubkey_address": "bc1ph72gstjapspkgjwu8utc9twglec8umgrag8vmkt7qj9cm222gjcsurlt3p",
      "value": 9999
    }
  ],
  "size": 311,
  "weight": 593,
  "fee": 1628,
  "status": {
    "confirmed": true,
    "block_height": 834464,
    "block_hash": "0000000000000000000177a0869a911a2b65c9bdcd5a8bcb02b68f305bee848e",
    "block_time": 1710308296
  },
  "hex": "010000000001015dccf39e2b98b5ac0769f5db4e8bd6b43139631380e0472365847113808888880000000000fdffffff010f27000000000000225120bf94882e5d0c036449dc3f1782adc8fe707e6d03ea0ecdd97e048b8da94a44b10341cfb9af66eb92e272f446704edd828295d6c35379cff93330fb5ef5e09bee80c0cd3a0b48578e8f67c100fffc53b46939b20725435cd0804af49881b24ef39d80837120930d4ffacedaeeda983fbe6875a3f39bad4c323e8346d8dda5652f8cfd9db2eaac00630461746f6d03646d7442a16461726773a468626974776f726b6367383838383838386b6d696e745f7469636b657268696e66696e697479656e6f6e63651a00210e846474696d651a65dc5cc66821c0930d4ffacedaeeda983fbe6875a3f39bad4c323e8346d8dda5652f8cfd9db2ea00000000"
}