{
  "txid": "5cff2d191e70272427fbcfc4941de630b0c4afb41f230e41645a0a49d29017b9",
  "version": 2,
  "locktime": 0,
  "vin": [
    {
      "txid": "e37f8a43b3857cf898ae46ed789a1f0a2c529eb9656bd5fe591ed7589c7535eb",
      "vout": 0,
      "prevout": {
        "scriptpubkey": "0014f3f1eb797ceeab44ef03689940621dfdfbe9efe6",
        "scriptpubkey_asm": "OP_0 OP_PUSHBYTES_20 f3f1eb797ceeab44ef03689940621dfdfbe9efe6",
        "scriptpubkey_type": "v0_p2wpkh",
        "scriptpubkey_address": "bc1q70c7k7tua645fmcrdzv5qcsalha7nmlxld2rn8",
        "value": 1687169
      },
      "scriptsig": "",
      "scriptsig_asm": "",
      "witness": [
        "3045022100c8b69a0648284dfe2c9c1b4a2c44858f22bf8afdd5f6156b39ec93af2f96e37d02203464cb293167f5ad40da0036e09badc44a16974314e27080cd25301a9c11ebed01",
        "03dc926741507343f6dd63c87dc87aa62d6613c4baf79954cdcd61bc898d655f4e"
      ],
      "is_coinbase": false,
      "sequence": 4294967295
    }
  ],
  "vout": [
    {
      "scriptpubkey": "a914e84a7805378d4ea7a0f543a267efa09be6dcb77987",
      "scriptpubkey_asm": "OP_HASH160 OP_PUSHBYTES_20 e84a7805378d4ea7a0f543a267efa09be6dcb779 OP_EQUAL",
      "scriptpubkey_type": "p2sh",
      "scriptpubkey_address": "3NsFuEVR8K3Bra4U9W4Zi6b3L3W44vUGnB",
      "value": 1670631
    }
  ],
  "size": 193,
  "weight": 442,
  "fee": 16538,
  "status": {
    "confirmed": true,
    "block_height": 834638,
    "block_hash": "000000000000000000025f742c626208ac87e0b7d15054abb4a19ca2d735a54e",
    "block_time": 1710405325
  },
  "hex": "02000000000101eb35759c58d71e59fed56b65b99e522c0a1f9a78ed46ae98f87c85b3438a7fe30000000000ffffffff01e77d19000000000017a914e84a7805378d4ea7a0f543a267efa09be6dcb7798702483045022100c8b69a0648284dfe2c9c1b4a2c44858f22bf8afdd5f6156b39ec93af2f96e37d02203464cb293167f5ad40da0036e09badc44a16974314e27080cd25301a9c11ebed012103dc926741507343f6dd63c87dc87aa62d6613c4baf79954cdcd61bc898d655f4e00000000"
}