{
  "txid": "5d00dd5202fdc7917ffe5a96f0e73b457f01356c051703b25b7f772d4a127754",
  "version": 2,
  "locktime": 0,
  "vin": [
    {
      "txid": "19ccba95e809772b508a3fd07edccd0e6175b31f9a98108103c8730e0bc5af80",
      "vout": 0,
      "prevout": {
        "scriptpubkey": "5120f342a936d27b098f074cbf19631a51b6d8e486e4846cb96e164db265cc9e8d12",
        "scriptpubkey_asm": "OP_PUSHNUM_1 OP_PUSHBYTES_32 f342a936d27b098f074cbf19631a51b6d8e486e4846cb96e164db265cc9e8d12",
        "scriptpubkey_type": "v1_p2tr",
        "scriptpubkey_address": "bc1p7dp2jdkj0vyc7p6vhuvkxxj3kmvwfphys3ktjmskfkextny735fqf7zh70",
        "value": 5000
      },
      "scriptsig": "",
      "scriptsig_asm": "",
      "witness": [
        "856d86cfddd6575d681317e16642ae8fc9948fd721c4216c0621aa45afbf62df6664e9fe416fd492d9c00fc0319bfcd00af8c4fdccadfdff6488778d7e9fa7bf01"
      ],
      "is_coinbase": false,
      "sequence": 4294967295
    }
  ],
  "vout": [
    {
      "scriptpubkey": "76a914afbc586159ab1a7ae76a345ba9225a5dd5b18c0e88ac",
      "scriptpubkey_asm": "OP_DUP OP_HASH160 OP_PUSHBYTES_20 afbc586159ab1a7ae76a345ba9225a5dd5b18c0e OP_EQUALVERIFY OP_CHECKSIG",
      "scriptpubkey_type": "p2pkh",
      "scriptpubkey_address": "1H2Ct2Yq8mgnq9HSi5gFzPNhEo1FgDLRyy",
      "value": 3768
    }
  ],
  "size": 154,
  "weight": 409,
  "fee": 1232,
  "status": {
    "confirmed": true,
    "block_height": 834460,
    "block_hash": "00000000000000000000484a79b643b2524bbce82e5d8a442013fa5b8905ed98",
    "block_time": 1710307468
  },
  "hex": "0200000000010180afc50b0e73c8038110989a1fb375610ecddc7ed03f8a502b7709e895bacc190000000000ffffffff01b80e0000000000001976a914afbc586159ab1a7ae76a345ba9225a5dd5b18c0e88ac0141856d86cfddd6575d681317e16642ae8fc9948fd721c4216c0621aa45afbf62df6664e9fe416fd492d9c00fc0319bfcd00af8c4fdccadfdff6488778d7e9fa7bf0100000000"
}