{
  "txid": "5d1f031d8232ced3ab69525e66916f88bdfc834d8a8f78c357affd55cdc6a43e",
  "version": 2,
  "locktime": 0,
  "vin": [
    {
      "txid": "0eddf93f24b2d392cda3aed855586f759c118678ab0fdf1339c1a2f0871fef42",
      "vout": 4,
      "prevout": {
        "scriptpubkey": "5120b5fafc08b600af5a22ff42607ac4e1e8d1ae17be9d529c1a6e37f01d3fbc5280",
        "scriptpubkey_asm": "OP_PUSHNUM_1 OP_PUSHBYTES_32 b5fafc08b600af5a22ff42607ac4e1e8d1ae17be9d529c1a6e37f01d3fbc5280",
        "scriptpubkey_type": "v1_p2tr",
        "scriptpubkey_address": "bc1pkha0cz9kqzh45ghlgfs8438parg6u9a7n4ffcxnwxlcp60au22qq7362yp",
        "value": 2834
      },
      "scriptsig": "",
      "scriptsig_asm": "",
      "witness": [
        "6bc94158b2e02fa5f064abf8f3a523f1fd08927fd2bdd74e25033c0e8cfc95616632dc4d5dda55dcf8c8d8f58eebad4553573074c9041a7702c8a507e881e4b5",
        "20fb5cb2992106ee4f4e78bd3b662dba163ac8d071e0fe7c6bb17bde506df7ee35ac0063036f726401011e6170706c69636174696f6e2f6a736f6e3b636861727365743d7574662d38004cbf7b2270223a22706f772d3230222c226f70223a226d696e74222c227469636b223a2250455045222c22616d74223a2231303030222c22736f6c7574696f6e223a22504550453a6263317172713238376168727578703271783033726774706379666a327261786e306175667a646a717a3a303030303030303030303030303030303030303139393431613561653132383937363539383134343239323533333030353762306461393666336465613163353a3331333538343935343138227d68",
        "c0f26df831a413724db8123fd1cb518d6560252685500a3c204e36c4bb2a2cc255"
      ],
      "is_coinbase": false,
      "sequence": 4294967295
    }
  ],
  "vout": [
    {
      "scriptpubkey": "001418147f76e3e182a019f11a161c113250fa69bfbc",
      "scriptpubkey_asm": "OP_0 OP_PUSHBYTES_20 18147f76e3e182a019f11a161c113250fa69bfbc",
      "scriptpubkey_type": "v0_p2wpkh",
      "scriptpubkey_address": "bc1qrq287ahruxp2qx03rgtpcyfj2raxn0aufzdjqz",
      "value": 546
    }
  ],
  "size": 455,
  "weight": 701,
  "fee": 2288,
  "status": {
    "confirmed": true,
    "block_height": 834460,
    "block_hash": "00000000000000000000484a79b643b2524bbce82e5d8a442013fa5b8905ed98",
    "block_time": 1710307468
  },
  "hex": "0200000000010142ef1f87f0a2c13913df0fab7886119c756f5855d8aea3cd92d3b2243ff9dd0e0400000000ffffffff01220200000000000016001418147f76e3e182a019f11a161c113250fa69bfbc03406bc94158b2e02fa5f064abf8f3a523f1fd08927fd2bdd74e25033c0e8cfc95616632dc4d5dda55dcf8c8d8f58eebad4553573074c9041a7702c8a507e881e4b5fd0c0120fb5cb2992106ee4f4e78bd3b662dba163ac8d071e0fe7c6bb17bde506df7ee35ac0063036f726401011e6170706c69636174696f6e2f6a736f6e3b636861727365743d7574662d38004cbf7b2270223a22706f772d3230222c226f70223a226d696e74222c227469636b223a2250455045222c22616d74223a2231303030222c22736f6c7574696f6e223a22504550453a6263317172713238376168727578703271783033726774706379666a327261786e306175667a646a717a3a303030303030303030303030303030303030303139393431613561653132383937363539383134343239323533333030353762306461393666336465613163353a3331333538343935343138227d6821c0f26df831a413724db8123fd1cb518d6560252685500a3c204e36c4bb2a2cc25500000000"
}