{
  "txid": "5d203e1faa69479af10ad34a9aacba6d9ced6b03f3a9d934ce30554c335f60a6",
  "version": 2,
  "locktime": 0,
  "vin": [
    {
      "txid": "749290da2b4b5ad71ffd06c1364dc81d0fd837e04f86c186b4b5797c235aebd5",
      "vout": 1,
      "prevout": {
        "scriptpubkey": "a914fc85c6aa880c616db537a873607f610256285d7d87",
        "scriptpubkey_asm": "OP_HASH160 OP_PUSHBYTES_20 fc85c6aa880c616db537a873607f610256285d7d OP_EQUAL",
        "scriptpubkey_type": "p2sh",
        "scriptpubkey_address": "3QiETomgUhPu573ZvhXbdofq7y5ocNS1ie",
        "value": 252020087
      },
      "scriptsig": "160014c188c6f016e332b74ed1cd9459111f53b581ecf2",
      "scriptsig_asm": "OP_PUSHBYTES_22 0014c188c6f016e332b74ed1cd9459111f53b581ecf2",
      "witness": [
        "304402204f2f697a5a7bb6cda3204da207d0f279bbe58d9e8ba924d71c485f784f8f6d75022027176ec531062f49107d2785f9d2d881abebd8a35862e7a97b18cce6459750b101",
        "023634e479b58c58cb8cc1650684729c5c58765b245a4844aee2e39bca4da3f3f9"
      ],
      "is_coinbase": false,
      "sequence": 4294967293,
      "inner_redeemscript_asm": "OP_0 OP_PUSHBYTES_20 c188c6f016e332b74ed1cd9459111f53b581ecf2"
    },
    {
      "txid": "b46ce1c49cd5a5b1e75722c4023c3c6cca23952c2aa3a9084c03b706fe23ea7b",
      "vout": 43,
      "prevout": {
        "scriptpubkey": "a914db60e1f72bf24fd7f700c30596732de9d8ee922087",
        "scriptpubkey_asm": "OP_HASH160 OP_PUSHBYTES_20 db60e1f72bf24fd7f700c30596732de9d8ee9220 OP_EQUAL",
        "scriptpubkey_type": "p2sh",
        "scriptpubkey_address": "3Mgyy5f1NUjpFLsNYe953v4PKLtvJPW16u",
        "value": 28119
      },
      "scriptsig": "1600142ad91af7e18e0ae11a9472968b1e5ce5201426e0",
      "scriptsig_asm": "OP_PUSHBYTES_22 00142ad91af7e18e0ae11a9472968b1e5ce5201426e0",
      "witness": [
        "304402206b88bfe371c58dbaeceeb66a2c56bd3b50173fb2c8fc15054b980c1498b04f3002206679d7d32ff92d01d54b994820b10b08a9ae929eef1bc52d1439bbfcf64c197601",
        "03e79a6e191c7dacd83c726b2ed1a8daa98cbf6adc9a4e69df156243d0bf9eb0be"
      ],
      "is_coinbase": false,
      "sequence": 4294967293,
      "inner_redeemscript_asm": "OP_0 OP_PUSHBYTES_20 2ad91af7e18e0ae11a9472968b1e5ce5201426e0"
    },
    {
      "txid": "83644fdb3f5077e31b245dc62999d7a272379df802ffb9ea9811549bf825286f",
      "vout": 11,
      "prevout": {
        "scriptpubkey": "a9144269ea789759dc177addb1f2f18a4c17c52e4b8587",
        "scriptpubkey_asm": "OP_HASH160 OP_PUSHBYTES_20 4269ea789759dc177addb1f2f18a4c17c52e4b85 OP_EQUAL",
        "scriptpubkey_type": "p2sh",
        "scriptpubkey_address": "37kBQNSaBRTDHfuNtdV6isH5rits2HkFZB",
        "value": 46858
      },
      "scriptsig": "1600144947a0099e254a04c0963d0041cf0e515d62cd6e",
      "scriptsig_asm": "OP_PUSHBYTES_22 00144947a0099e254a04c0963d0041cf0e515d62cd6e",
      "witness": [
        "304402206d9b4611b04abe9deaa2bd008a003a69cb1c908702c373c823c959e2037ed54002202be3c5618b1286dfa66320263e4cbfd0653672655213aa98cbfb21c38f5d731801",
        "03ddf3c8467f8d4242ae4dce3f17ca8d0115a19b81f52e4c184f13719de5c029ed"
      ],
      "is_coinbase": false,
      "sequence": 4294967293,
      "inner_redeemscript_asm": "OP_0 OP_PUSHBYTES_20 4947a0099e254a04c0963d0041cf0e515d62cd6e"
    },
    {
      "txid": "34a4663d76a3dc4c30f57d6977917360b6c65c9f794f93025f28283bfcd6944f",
      "vout": 0,
      "prevout": {
        "scriptpubkey": "a91458377eea8fcbecc5c7a1f8934fbc993079491e0287",
        "scriptpubkey_asm": "OP_HASH160 OP_PUSHBYTES_20 58377eea8fcbecc5c7a1f8934fbc993079491e02 OP_EQUAL",
        "scriptpubkey_type": "p2sh",
        "scriptpubkey_address": "39jTsLaH21GL695wyuvfvi5qEfa9KEBFya",
        "value": 126159
      },
      "scriptsig": "160014bb022c04fa33f2d1cc600e08c81637915639bede",
      "scriptsig_asm": "OP_PUSHBYTES_22 0014bb022c04fa33f2d1cc600e08c81637915639bede",
      "witness": [
        "304402200392133b66d37797abbd8f2b8617282cbbdaf850aae1e03822a420ab5c211b7f0220737c4b3dca9c123ea10fefaf9697debc1643ea60b4735bf6bcd45868cd19e4ec01",
        "02d2df0d7cec19bb2b248e6426075cf02e021852d2423b29f2607afb56c9bb2ccc"
      ],
      "is_coinbase": false,
      "sequence": 4294967293,
      "inner_redeemscript_asm": "OP_0 OP_PUSHBYTES_20 bb022c04fa33f2d1cc600e08c81637915639bede"
    },
    {
      "txid": "dbd4ff83c6fc2e30b49d0696c61129f86ca6e228d9764d064e5c704d5296b8e2",
      "vout": 1,
      "prevout": {
        "scriptpubkey": "a914cb608a5c758c3e5d22e8ad6454e9871d7b9c95cd87",
        "scriptpubkey_asm": "OP_HASH160 OP_PUSHBYTES_20 cb608a5c758c3e5d22e8ad6454e9871d7b9c95cd OP_EQUAL",
        "scriptpubkey_type": "p2sh",
        "scriptpubkey_address": "3LENkEaps7GBmP2Cih1ZiT8SoPBczpYhZr",
        "value": 126159
      },
      "scriptsig": "1600141fcde0a665d43a0616c152666d9e3230e9c4a796",
      "scriptsig_asm": "OP_PUSHBYTES_22 00141fcde0a665d43a0616c152666d9e3230e9c4a796",
      "witness": [
        "304402204a76783691359ea2111e8a3cdc1776e21bb799ff44fb6e1f74333b029402398f02203d0638a7b20b992c408279d99c6a0e82fb9835cfec3566d55cb52cdc83ffd50b01",
        "039076eb2a5c9d64214b7cd550ece2be622360c2105696d755cbdf2e81ec5ee3e8"
      ],
      "is_coinbase": false,
      "sequence": 4294967293,
      "inner_redeemscript_asm": "OP_0 OP_PUSHBYTES_20 1fcde0a665d43a0616c152666d9e3230e9c4a796"
    }
  ],
  "vout": [
    {
      "scriptpubkey": "001466030afc45137b28126462ec70de36f46e0c997f",
      "scriptpubkey_asm": "OP_0 OP_PUSHBYTES_20 66030afc45137b28126462ec70de36f46e0c997f",
      "scriptpubkey_type": "v0_p2wpkh",
      "scriptpubkey_address": "bc1qvcps4lz9zdajsynyvtk8ph3k73hqextllg5e9e",
      "value": 145889
    },
    {
      "scriptpubkey": "a914fc85c6aa880c616db537a873607f610256285d7d87",
      "scriptpubkey_asm": "OP_HASH160 OP_PUSHBYTES_20 fc85c6aa880c616db537a873607f610256285d7d OP_EQUAL",
      "scriptpubkey_type": "p2sh",
      "scriptpubkey_address": "3QiETomgUhPu573ZvhXbdofq7y5ocNS1ie",
      "value": 252189866
    }
  ],
  "size": 930,
  "weight": 2109,
  "fee": 11627,
  "status": {
    "confirmed": true,
    "block_height": 834638,
    "block_hash": "000000000000000000025f742c626208ac87e0b7d15054abb4a19ca2d735a54e",
    "block_time": 1710405325
  },
  "hex": "02000000000105d5eb5a237c79b5b486c1864fe037d80f1dc84d36c106fd1fd75a4b2bda9092740100000017160014c188c6f016e332b74ed1cd9459111f53b581ecf2fdffffff7bea23fe06b7034c08a9a32a2c9523ca6c3c3c02c42257e7b1a5d59cc4e16cb42b000000171600142ad91af7e18e0ae11a9472968b1e5ce5201426e0fdffffff6f2825f89b541198eab9ff02f89d3772a2d79929c65d241be377503fdb4f64830b000000171600144947a0099e254a04c0963d0041cf0e515d62cd6efdffffff4f94d6fc3b28285f02934f799f5cc6b660739177697df5304cdca3763d66a4340000000017160014bb022c04fa33f2d1cc600e08c81637915639bedefdffffffe2b896524d705c4e064d76d928e2a66cf82911c696069db4302efcc683ffd4db01000000171600141fcde0a665d43a0616c152666d9e3230e9c4a796fdffffff02e13902000000000016001466030afc45137b28126462ec70de36f46e0c997faa1c080f0000000017a914fc85c6aa880c616db537a873607f610256285d7d870247304402204f2f697a5a7bb6cda3204da207d0f279bbe58d9e8ba924d71c485f784f8f6d75022027176ec531062f49107d2785f9d2d881abebd8a35862e7a97b18cce6459750b10121023634e479b58c58cb8cc1650684729c5c58765b245a4844aee2e39bca4da3f3f90247304402206b88bfe371c58dbaeceeb66a2c56bd3b50173fb2c8fc15054b980c1498b04f3002206679d7d32ff92d01d54b994820b10b08a9ae929eef1bc52d1439bbfcf64c1976012103e79a6e191c7dacd83c726b2ed1a8daa98cbf6adc9a4e69df156243d0bf9eb0be0247304402206d9b4611b04abe9deaa2bd008a003a69cb1c908702c373c823c959e2037ed54002202be3c5618b1286dfa66320263e4cbfd0653672655213aa98cbfb21c38f5d7318012103ddf3c8467f8d4242ae4dce3f17ca8d0115a19b81f52e4c184f13719de5c029ed0247304402200392133b66d37797abbd8f2b8617282cbbdaf850aae1e03822a420ab5c211b7f0220737c4b3dca9c123ea10fefaf9697debc1643ea60b4735bf6bcd45868cd19e4ec012102d2df0d7cec19bb2b248e6426075cf02e021852d2423b29f2607afb56c9bb2ccc0247304402204a76783691359ea2111e8a3cdc1776e21bb799ff44fb6e1f74333b029402398f02203d0638a7b20b992c408279d99c6a0e82fb9835cfec3566d55cb52cdc83ffd50b0121039076eb2a5c9d64214b7cd550ece2be622360c2105696d755cbdf2e81ec5ee3e800000000"
}