{
  "txid": "5d448cfcb36c8f6b1c56cc5befbaf65e834c80613744bf76af759eb735b9336e",
  "version": 2,
  "locktime": 0,
  "vin": [
    {
      "txid": "7ebd764b22c6f951b38857e47b5e73ee2dbe76cb1f791c1f70b01f463e36ba60",
      "vout": 21,
      "prevout": {
        "scriptpubkey": "a914b104c9a2a529aa9763e200ea0f5bf24dae6bf5d687",
        "scriptpubkey_asm": "OP_HASH160 OP_PUSHBYTES_20 b104c9a2a529aa9763e200ea0f5bf24dae6bf5d6 OP_EQUAL",
        "scriptpubkey_type": "p2sh",
        "scriptpubkey_address": "3Hq1G9aLt8UGX2Jya6G4FEkVNK9vnMVp4Z",
        "value": 344000
      },
      "scriptsig": "160014839aed246871b9006e586ab67eed9f7b9d8f1c81",
      "scriptsig_asm": "OP_PUSHBYTES_22 0014839aed246871b9006e586ab67eed9f7b9d8f1c81",
      "witness": [
        "3044022060d6dc3d876632a8b55d3c769c84b48d4ba16e56026860c9e823106554e42d8e022017217d99df549875a8c74128153980b753d5606610ef32ed5e0b3031a4c15c9001",
        "02dc7150981109e73bc468b70f964ec8b50b1c23991dbef070c81d6b8b8fa4d2d2"
      ],
      "is_coinbase": false,
      "sequence": 4294967293,
      "inner_redeemscript_asm": "OP_0 OP_PUSHBYTES_20 839aed246871b9006e586ab67eed9f7b9d8f1c81"
    }
  ],
  "vout": [
    {
      "scriptpubkey": "00142b1514d7be5ea241a88b42ed966f1718719d8983",
      "scriptpubkey_asm": "OP_0 OP_PUSHBYTES_20 2b1514d7be5ea241a88b42ed966f1718719d8983",
      "scriptpubkey_type": "v0_p2wpkh",
      "scriptpubkey_address": "bc1q9v23f4a7t63yr2ytgtkevmchrpcemzvrnlpw06",
      "value": 43597
    },
    {
      "scriptpubkey": "0014ecfedb540d8633c41b91eb20c7627522aa47e372",
      "scriptpubkey_asm": "OP_0 OP_PUSHBYTES_20 ecfedb540d8633c41b91eb20c7627522aa47e372",
      "scriptpubkey_type": "v0_p2wpkh",
      "scriptpubkey_address": "bc1qanldk4qdsceugxu3avsvwcn4y24y0cmjuj2jx6",
      "value": 296811
    }
  ],
  "size": 245,
  "weight": 653,
  "fee": 3592,
  "status": {
    "confirmed": true,
    "block_height": 834638,
    "block_hash": "000000000000000000025f742c626208ac87e0b7d15054abb4a19ca2d735a54e",
    "block_time": 1710405325
  },
  "hex": "0200000000010160ba363e461fb0701f1c791fcb76be2dee735e7be45788b351f9c6224b76bd7e1500000017160014839aed246871b9006e586ab67eed9f7b9d8f1c81fdffffff024daa0000000000001600142b1514d7be5ea241a88b42ed966f1718719d89836b87040000000000160014ecfedb540d8633c41b91eb20c7627522aa47e37202473044022060d6dc3d876632a8b55d3c769c84b48d4ba16e56026860c9e823106554e42d8e022017217d99df549875a8c74128153980b753d5606610ef32ed5e0b3031a4c15c90012102dc7150981109e73bc468b70f964ec8b50b1c23991dbef070c81d6b8b8fa4d2d200000000"
}