{
  "txid": "5d557a9146084fb040a3ba3821252516b177bc58cc92ac80e7453e2e48305d34",
  "version": 2,
  "locktime": 834637,
  "vin": [
    {
      "txid": "6e2e011f6c49689ff6fb7ceb66b608e9a04b38572b617015139d3a9019eb1e42",
      "vout": 1,
      "prevout": {
        "scriptpubkey": "76a91409a4be0865fb2e73c4e197c8f01a5c405d5f305b88ac",
        "scriptpubkey_asm": "OP_DUP OP_HASH160 OP_PUSHBYTES_20 09a4be0865fb2e73c4e197c8f01a5c405d5f305b OP_EQUALVERIFY OP_CHECKSIG",
        "scriptpubkey_type": "p2pkh",
        "scriptpubkey_address": "1szSDwxx6D7SeoAKLABNt5w6pzSyvq71Y",
        "value": 852501127
      },
      "scriptsig": "463043021f484c1abaf9dddaedab486b51bf54e7a4dc4e67c5bc672269f04bbb393670a502205de1f087d0e784f7f7a52ea3f49ba22ae73154d3a39066a5c8e326333ce0612001210262beccd6e7c88e5597e00b2041c63098d1ee24a220213d0bad3742241e1b0858",
      "scriptsig_asm": "OP_PUSHBYTES_70 3043021f484c1abaf9dddaedab486b51bf54e7a4dc4e67c5bc672269f04bbb393670a502205de1f087d0e784f7f7a52ea3f49ba22ae73154d3a39066a5c8e326333ce0612001 OP_PUSHBYTES_33 0262beccd6e7c88e5597e00b2041c63098d1ee24a220213d0bad3742241e1b0858",
      "is_coinbase": false,
      "sequence": 4294967293
    }
  ],
  "vout": [
    {
      "scriptpubkey": "76a9142ac5869ea62c65b7529601ef7c2add625de9c22a88ac",
      "scriptpubkey_asm": "OP_DUP OP_HASH160 OP_PUSHBYTES_20 2ac5869ea62c65b7529601ef7c2add625de9c22a OP_EQUALVERIFY OP_CHECKSIG",
      "scriptpubkey_type": "p2pkh",
      "scriptpubkey_address": "14uA1Proh6XikuLK7z2hhSFaiB6yxEBMfk",
      "value": 10000000
    },
    {
      "scriptpubkey": "76a9149e6b125b0b0d8c8bf452e3b5f1c96195a05e2f6588ac",
      "scriptpubkey_asm": "OP_DUP OP_HASH160 OP_PUSHBYTES_20 9e6b125b0b0d8c8bf452e3b5f1c96195a05e2f65 OP_EQUALVERIFY OP_CHECKSIG",
      "scriptpubkey_type": "p2pkh",
      "scriptpubkey_address": "1FSe2nKqx8kBE5xHtpUoeUq5vYyv42Pgjo",
      "value": 842492127
    }
  ],
  "size": 224,
  "weight": 896,
  "fee": 9000,
  "status": {
    "confirmed": true,
    "block_height": 834638,
    "block_hash": "000000000000000000025f742c626208ac87e0b7d15054abb4a19ca2d735a54e",
    "block_time": 1710405325
  },
  "hex": "0200000001421eeb19903a9d131570612b57384ba0e908b666eb7cfbf69f68496c1f012e6e0100000069463043021f484c1abaf9dddaedab486b51bf54e7a4dc4e67c5bc672269f04bbb393670a502205de1f087d0e784f7f7a52ea3f49ba22ae73154d3a39066a5c8e326333ce0612001210262beccd6e7c88e5597e00b2041c63098d1ee24a220213d0bad3742241e1b0858fdffffff0280969800000000001976a9142ac5869ea62c65b7529601ef7c2add625de9c22a88acdf683732000000001976a9149e6b125b0b0d8c8bf452e3b5f1c96195a05e2f6588ac4dbc0c00"
}