{
  "txid": "5d59da2f8dfe6e6bcf5bea27674891a1f70d1f37bedf5f87dbdd6e87b88728f3",
  "version": 2,
  "locktime": 0,
  "vin": [
    {
      "txid": "42900d568b33061ca5c7d804c1c9806677699a595a87b4bacebd0c6272e8d1a7",
      "vout": 1,
      "prevout": {
        "scriptpubkey": "0014edc4b50deb41a978c702346f7e8f2088399b531d",
        "scriptpubkey_asm": "OP_0 OP_PUSHBYTES_20 edc4b50deb41a978c702346f7e8f2088399b531d",
        "scriptpubkey_type": "v0_p2wpkh",
        "scriptpubkey_address": "bc1qahzt2r0tgx5h33czx3hhareq3quek5casfgay0",
        "value": 6263417
      },
      "scriptsig": "",
      "scriptsig_asm": "",
      "witness": [
        "3044022029cded97af320ef2cae3d6620ed2c24de9a6f01f3a0e55866e52f34a8f20722c02204c0610f65cf8eb8e29d88ea9242db296301cd215d658ca8c5eea74914a1f610901",
        "02ef6e9fbe6dbee58ec4a64065d0ffb6f00d678bee18909f4aa2e606b818a0cfdb"
      ],
      "is_coinbase": false,
      "sequence": 4294967293
    }
  ],
  "vout": [
    {
      "scriptpubkey": "a9149af5abff85deca5cf016fe877bd21feb265cb21787",
      "scriptpubkey_asm": "OP_HASH160 OP_PUSHBYTES_20 9af5abff85deca5cf016fe877bd21feb265cb217 OP_EQUAL",
      "scriptpubkey_type": "p2sh",
      "scriptpubkey_address": "3FpNHfbYVUCZQFcCQjWzxypED9hJG22P4K",
      "value": 407610
    },
    {
      "scriptpubkey": "0014a045e3322a5eb96d6afb71ab805441dc155b8852",
      "scriptpubkey_asm": "OP_0 OP_PUSHBYTES_20 a045e3322a5eb96d6afb71ab805441dc155b8852",
      "scriptpubkey_type": "v0_p2wpkh",
      "scriptpubkey_address": "bc1q5pz7xv32t6uk66hmwx4cq4zpms24hzzjpmlzwd",
      "value": 5851312
    }
  ],
  "size": 223,
  "weight": 565,
  "fee": 4495,
  "status": {
    "confirmed": true,
    "block_height": 834638,
    "block_hash": "000000000000000000025f742c626208ac87e0b7d15054abb4a19ca2d735a54e",
    "block_time": 1710405325
  },
  "hex": "02000000000101a7d1e872620cbdcebab4875a599a69776680c9c104d8c7a51c06338b560d90420100000000fdffffff023a3806000000000017a9149af5abff85deca5cf016fe877bd21feb265cb21787b048590000000000160014a045e3322a5eb96d6afb71ab805441dc155b885202473044022029cded97af320ef2cae3d6620ed2c24de9a6f01f3a0e55866e52f34a8f20722c02204c0610f65cf8eb8e29d88ea9242db296301cd215d658ca8c5eea74914a1f6109012102ef6e9fbe6dbee58ec4a64065d0ffb6f00d678bee18909f4aa2e606b818a0cfdb00000000"
}