{
  "txid": "5d6628d684f9038cfacd56ffff298c81b31348b1615377c36052cf2d6db3f377",
  "version": 2,
  "locktime": 834637,
  "vin": [
    {
      "txid": "b1eca3f6ac95aacc306520efdee1b71902d7d2d2d16f6e999570d2415d63cd82",
      "vout": 0,
      "prevout": {
        "scriptpubkey": "00143f83bf1a57a5d29934c33fe13a6d82c07e101681",
        "scriptpubkey_asm": "OP_0 OP_PUSHBYTES_20 3f83bf1a57a5d29934c33fe13a6d82c07e101681",
        "scriptpubkey_type": "v0_p2wpkh",
        "scriptpubkey_address": "bc1q87pm7xjh5hffjdxr8lsn5mvzcplpq95pmrpxsm",
        "value": 270127138
      },
      "scriptsig": "",
      "scriptsig_asm": "",
      "witness": [
        "3044022012304f2f3a5a236c6deec60503991a8bc7d62a061f9af05f04b0a452a4ffde60022053606a4bda23d1408385789f1aa5a71ca26ee0cf90889690faacbd4945c8510e01",
        "034cb7006e0611d0c724acae6ef0a8e9adbbbce1303dcc80a77b0ea651f0b721d6"
      ],
      "is_coinbase": false,
      "sequence": 4294967294
    }
  ],
  "vout": [
    {
      "scriptpubkey": "0014a28c208b14b810f4e249c2cf2a199a1a14c1e37e",
      "scriptpubkey_asm": "OP_0 OP_PUSHBYTES_20 a28c208b14b810f4e249c2cf2a199a1a14c1e37e",
      "scriptpubkey_type": "v0_p2wpkh",
      "scriptpubkey_address": "bc1q52xzpzc5hqg0fcjfct8j5xv6rg2vrcm7ngq6qx",
      "value": 1100600
    },
    {
      "scriptpubkey": "0014bbbee8fb676892855a0b9b57fa98817f2553dbd2",
      "scriptpubkey_asm": "OP_0 OP_PUSHBYTES_20 bbbee8fb676892855a0b9b57fa98817f2553dbd2",
      "scriptpubkey_type": "v0_p2wpkh",
      "scriptpubkey_address": "bc1qhwlw37m8dzfg2kstndtl4xyp0uj48k7jypq5ur",
      "value": 269023082
    }
  ],
  "size": 222,
  "weight": 561,
  "fee": 3456,
  "status": {
    "confirmed": true,
    "block_height": 834638,
    "block_hash": "000000000000000000025f742c626208ac87e0b7d15054abb4a19ca2d735a54e",
    "block_time": 1710405325
  },
  "hex": "0200000000010182cd635d41d27095996e6fd1d2d2d70219b7e1deef206530ccaa95acf6a3ecb10000000000feffffff0238cb100000000000160014a28c208b14b810f4e249c2cf2a199a1a14c1e37e6af7081000000000160014bbbee8fb676892855a0b9b57fa98817f2553dbd202473044022012304f2f3a5a236c6deec60503991a8bc7d62a061f9af05f04b0a452a4ffde60022053606a4bda23d1408385789f1aa5a71ca26ee0cf90889690faacbd4945c8510e0121034cb7006e0611d0c724acae6ef0a8e9adbbbce1303dcc80a77b0ea651f0b721d64dbc0c00"
}