{
  "txid": "5d700bf1233e052b1504ab4ddbfd13a8bba907b9fffe16d1bae172e90e4dd680",
  "version": 2,
  "locktime": 0,
  "vin": [
    {
      "txid": "550feeea13e1c9ebb712ea1f1d7cd016f5e19d47122830cb9ff80a9422283e3e",
      "vout": 1,
      "prevout": {
        "scriptpubkey": "0014c7af5c31412c392c1e64e00215daab74f1c4deae",
        "scriptpubkey_asm": "OP_0 OP_PUSHBYTES_20 c7af5c31412c392c1e64e00215daab74f1c4deae",
        "scriptpubkey_type": "v0_p2wpkh",
        "scriptpubkey_address": "bc1qc7h4cv2p9sujc8nyuqpptk4twncufh4wc6uf7q",
        "value": 186135000
      },
      "scriptsig": "",
      "scriptsig_asm": "",
      "witness": [
        "3045022100d174156d3eefe2f9b0dab952533ebd09d562e213bc7ac7dc38ffeca04ff9dcc402203439235c16aa8d41062339463ece7c858e70615990a5a02d926f42b724c19b4a01",
        "02a391a15515e5850cfbb6e6d5d18eb5656c49627f5ae745714bb92b3e8b027654"
      ],
      "is_coinbase": false,
      "sequence": 4294967295
    }
  ],
  "vout": [
    {
      "scriptpubkey": "0014c7af5c31412c392c1e64e00215daab74f1c4deae",
      "scriptpubkey_asm": "OP_0 OP_PUSHBYTES_20 c7af5c31412c392c1e64e00215daab74f1c4deae",
      "scriptpubkey_type": "v0_p2wpkh",
      "scriptpubkey_address": "bc1qc7h4cv2p9sujc8nyuqpptk4twncufh4wc6uf7q",
      "value": 131653510
    },
    {
      "scriptpubkey": "a91446f44dae147d27bc67e0be7c66924b5b5bf9f73387",
      "scriptpubkey_asm": "OP_HASH160 OP_PUSHBYTES_20 46f44dae147d27bc67e0be7c66924b5b5bf9f733 OP_EQUAL",
      "scriptpubkey_type": "p2sh",
      "scriptpubkey_address": "38ABtUM5n4KiuNHwtzyYm6S9UAsJM7VLmp",
      "value": 54478100
    }
  ],
  "size": 224,
  "weight": 566,
  "fee": 3390,
  "status": {
    "confirmed": true,
    "block_height": 834638,
    "block_hash": "000000000000000000025f742c626208ac87e0b7d15054abb4a19ca2d735a54e",
    "block_time": 1710405325
  },
  "hex": "020000000001013e3e2822940af89fcb302812479de1f516d07c1d1fea12b7ebc9e113eaee0f550100000000ffffffff0286dfd80700000000160014c7af5c31412c392c1e64e00215daab74f1c4deae14453f030000000017a91446f44dae147d27bc67e0be7c66924b5b5bf9f7338702483045022100d174156d3eefe2f9b0dab952533ebd09d562e213bc7ac7dc38ffeca04ff9dcc402203439235c16aa8d41062339463ece7c858e70615990a5a02d926f42b724c19b4a012102a391a15515e5850cfbb6e6d5d18eb5656c49627f5ae745714bb92b3e8b02765400000000"
}