{
  "txid": "5d7a0a6484c157beb3a9368adf53e5d84552ea765df9a1cc617bf6add4b56a65",
  "version": 1,
  "locktime": 0,
  "vin": [
    {
      "txid": "81bfbb51b07ff498bc5948a2f71664f2d64959a5e64273d97d550566963514a6",
      "vout": 1,
      "prevout": {
        "scriptpubkey": "001431eb427d021318837d6ad75b452ff9f60673c021",
        "scriptpubkey_asm": "OP_0 OP_PUSHBYTES_20 31eb427d021318837d6ad75b452ff9f60673c021",
        "scriptpubkey_type": "v0_p2wpkh",
        "scriptpubkey_address": "bc1qx845ylgzzvvgxlt26ad52tle7cr88sppyx8ter",
        "value": 13245857
      },
      "scriptsig": "",
      "scriptsig_asm": "",
      "witness": [
        "3044022075cad789fc23a629f01449649a3639425935da0835677342f3b55a1d34876c34022057ba7fd5b175708c1cb564e6c17cf3b4097dc0d9c3247f92374baf752c9e836f01",
        "03b089c717485a5c4f8ece9142f6813bf31b6f7b0860300a21faa6f74857e86ac3"
      ],
      "is_coinbase": false,
      "sequence": 4294967295
    }
  ],
  "vout": [
    {
      "scriptpubkey": "0014a223853cbdcb2ada73eca43ae7a2bb3f821c9b01",
      "scriptpubkey_asm": "OP_0 OP_PUSHBYTES_20 a223853cbdcb2ada73eca43ae7a2bb3f821c9b01",
      "scriptpubkey_type": "v0_p2wpkh",
      "scriptpubkey_address": "bc1q5g3c209aev4d5ulv5saw0g4m87ppexcps5rgjq",
      "value": 8450000
    },
    {
      "scriptpubkey": "001431eb427d021318837d6ad75b452ff9f60673c021",
      "scriptpubkey_asm": "OP_0 OP_PUSHBYTES_20 31eb427d021318837d6ad75b452ff9f60673c021",
      "scriptpubkey_type": "v0_p2wpkh",
      "scriptpubkey_address": "bc1qx845ylgzzvvgxlt26ad52tle7cr88sppyx8ter",
      "value": 4793854
    }
  ],
  "size": 222,
  "weight": 561,
  "fee": 2003,
  "status": {
    "confirmed": true,
    "block_height": 834638,
    "block_hash": "000000000000000000025f742c626208ac87e0b7d15054abb4a19ca2d735a54e",
    "block_time": 1710405325
  },
  "hex": "01000000000101a61435966605557dd97342e6a55949d6f26416f7a24859bc98f47fb051bbbf810100000000ffffffff02d0ef800000000000160014a223853cbdcb2ada73eca43ae7a2bb3f821c9b01fe2549000000000016001431eb427d021318837d6ad75b452ff9f60673c02102473044022075cad789fc23a629f01449649a3639425935da0835677342f3b55a1d34876c34022057ba7fd5b175708c1cb564e6c17cf3b4097dc0d9c3247f92374baf752c9e836f012103b089c717485a5c4f8ece9142f6813bf31b6f7b0860300a21faa6f74857e86ac300000000"
}