{
  "txid": "5d903c0834254ccdf8a0d8fe15e20a29df10c5568d1c0ffd03d90bc7d7cf9470",
  "version": 2,
  "locktime": 834459,
  "vin": [
    {
      "txid": "c5eac44e78896ddb0503d7610169d08a7ffa57e917cac66fe4c8fafc992cbed2",
      "vout": 1,
      "prevout": {
        "scriptpubkey": "0020fa0344234fbe1131f5d2570b5a4c0a3a11fcf0220c13585ca569e8551c1bc6aa",
        "scriptpubkey_asm": "OP_0 OP_PUSHBYTES_32 fa0344234fbe1131f5d2570b5a4c0a3a11fcf0220c13585ca569e8551c1bc6aa",
        "scriptpubkey_type": "v0_p2wsh",
        "scriptpubkey_address": "bc1qlgp5gg60hcgnrawj2u945nq28ggleupzpsf4sh99d85928qmc64q0y87ku",
        "value": 330
      },
      "scriptsig": "",
      "scriptsig_asm": "",
      "witness": [
        "3045022100f72fb949df93aa6ee0433e966759b61976ec94f87f531d3965af75c790e2190002203e446b89888a8f47397dcc7f15612ddc6865fe760f3ea387e6fbe2b69358e29501",
        "210241138f9570c0cf7a91ed8f60b28ada6c77e6203339f0d13ae41fc431e2576349ac736460b268"
      ],
      "is_coinbase": false,
      "sequence": 0,
      "inner_witnessscript_asm": "OP_PUSHBYTES_33 0241138f9570c0cf7a91ed8f60b28ada6c77e6203339f0d13ae41fc431e2576349 OP_CHECKSIG OP_IFDUP OP_NOTIF OP_PUSHNUM_16 OP_CSV OP_ENDIF"
    },
    {
      "txid": "b26ac5a58291a81bf6b88313d220b6d6a8b800bfb96cf3ab81244bc1c2da9f4c",
      "vout": 0,
      "prevout": {
        "scriptpubkey": "512099b3dd8fabbad6c879ee3c3a7b61a4cac1dadae64146fa9ebf1c7c60ac95706e",
        "scriptpubkey_asm": "OP_PUSHNUM_1 OP_PUSHBYTES_32 99b3dd8fabbad6c879ee3c3a7b61a4cac1dadae64146fa9ebf1c7c60ac95706e",
        "scriptpubkey_type": "v1_p2tr",
        "scriptpubkey_address": "bc1pnxeamrathttvs70w8sa8kcdyetqa4khxg9r0484lr37xpty4wphqqfefep",
        "value": 6481
      },
      "scriptsig": "",
      "scriptsig_asm": "",
      "witness": [
        "0160ab746843ec3e5051c4422471f71ff2b668117dd7a5d29280b86b5564c7b79529af031f04654af180e176e0552c49fba763faec61b441eb8d7e42193688ba"
      ],
      "is_coinbase": false,
      "sequence": 0
    },
    {
      "txid": "b7e74d40d17b1a3372f18b1f9738e4c2c8a0118f90de248b669eea2c13a350a5",
      "vout": 1,
      "prevout": {
        "scriptpubkey": "512040bb20b0b9524a5a9aef4a8d24579fcb18aa8708c34fad3a7847a38560e3d682",
        "scriptpubkey_asm": "OP_PUSHNUM_1 OP_PUSHBYTES_32 40bb20b0b9524a5a9aef4a8d24579fcb18aa8708c34fad3a7847a38560e3d682",
        "scriptpubkey_type": "v1_p2tr",
        "scriptpubkey_address": "bc1pgzajpv9e2f994xh0f2xjg4ulevv24pcgcd866wncg73c2c8r66pqyda38m",
        "value": 361394
      },
      "scriptsig": "",
      "scriptsig_asm": "",
      "witness": [
        "be447ab8b098906e56abefe86744c3136df9d6407fe38e4fd182b2badb95afd9b635a35f9ebdf6d3434faa61b933fb63e96ee5ad246764f72208c3e5b1e5e8af"
      ],
      "is_coinbase": false,
      "sequence": 0
    }
  ],
  "vout": [
    {
      "scriptpubkey": "51204e827293689b96ad2b30da6f40a5d0c1890154f9890cf32ffa77de22cdcb92b8",
      "scriptpubkey_asm": "OP_PUSHNUM_1 OP_PUSHBYTES_32 4e827293689b96ad2b30da6f40a5d0c1890154f9890cf32ffa77de22cdcb92b8",
      "scriptpubkey_type": "v1_p2tr",
      "scriptpubkey_address": "bc1pf6p89ymgnwt262esmfh5pfwscxysz48e3yx0xtl6wl0z9nwtj2uq662wvx",
      "value": 356296
    }
  ],
  "size": 425,
  "weight": 953,
  "fee": 11909,
  "status": {
    "confirmed": true,
    "block_height": 834460,
    "block_hash": "00000000000000000000484a79b643b2524bbce82e5d8a442013fa5b8905ed98",
    "block_time": 1710307468
  },
  "hex": "02000000000103d2be2c99fcfac8e46fc6ca17e957fa7f8ad0690161d70305db6d89784ec4eac50100000000000000004c9fdac2c14b2481abf36cb9bf00b8a8d6b620d21383b8f61ba89182a5c56ab2000000000000000000a550a3132cea9e668b24de908f11a0c8c2e438971f8bf172331a7bd1404de7b701000000000000000001c86f0500000000002251204e827293689b96ad2b30da6f40a5d0c1890154f9890cf32ffa77de22cdcb92b802483045022100f72fb949df93aa6ee0433e966759b61976ec94f87f531d3965af75c790e2190002203e446b89888a8f47397dcc7f15612ddc6865fe760f3ea387e6fbe2b69358e2950128210241138f9570c0cf7a91ed8f60b28ada6c77e6203339f0d13ae41fc431e2576349ac736460b26801400160ab746843ec3e5051c4422471f71ff2b668117dd7a5d29280b86b5564c7b79529af031f04654af180e176e0552c49fba763faec61b441eb8d7e42193688ba0140be447ab8b098906e56abefe86744c3136df9d6407fe38e4fd182b2badb95afd9b635a35f9ebdf6d3434faa61b933fb63e96ee5ad246764f72208c3e5b1e5e8af9bbb0c00"
}