{
  "txid": "5d9bf1baaead72f2aa060e2e43a868885de88e11a5f73ebebd50ef497c9e7681",
  "version": 2,
  "locktime": 0,
  "vin": [
    {
      "txid": "acc3ba00869acb582a3f2904ce3a11dd3779350ce234063fc7d0959246213364",
      "vout": 226,
      "prevout": {
        "scriptpubkey": "5120b8cee5547947c7dc321235415aaa931254e7dbbf2d5cde75c5f007032ee33f37",
        "scriptpubkey_asm": "OP_PUSHNUM_1 OP_PUSHBYTES_32 b8cee5547947c7dc321235415aaa931254e7dbbf2d5cde75c5f007032ee33f37",
        "scriptpubkey_type": "v1_p2tr",
        "scriptpubkey_address": "bc1phr8w24reglracvsjx4q4425nzf2w0kal94wduaw97qrsxthr8umsu70kee",
        "value": 1806
      },
      "scriptsig": "",
      "scriptsig_asm": "",
      "witness": [
        "928e26136a23989a7aacd6a8e9086f9b0f1d9ccf7dbab66457093eb7eed9f4d2ffa28b86d7c591463fa1cf8c1919eca867aec294eb95470a499a4ecf4de22a79",
        "204b33beb36f291d50fe04f80c5612df71b4c838d9c15559602961422811dc0f34ac0063036f726401010a746578742f706c61696e00357b2270223a226272632d3230222c226f70223a226d696e74222c227469636b223a22646f6765222c22616d74223a2234323030227d68",
        "c14b33beb36f291d50fe04f80c5612df71b4c838d9c15559602961422811dc0f34"
      ],
      "is_coinbase": false,
      "sequence": 4261412863
    }
  ],
  "vout": [
    {
      "scriptpubkey": "00147a665de7a370f4c9b372ab1fae587500a5bcbdb4",
      "scriptpubkey_asm": "OP_0 OP_PUSHBYTES_20 7a665de7a370f4c9b372ab1fae587500a5bcbdb4",
      "scriptpubkey_type": "v0_p2wpkh",
      "scriptpubkey_address": "bc1q0fn9mearwr6vnvmj4v06ukr4qzjme0d565dzcx",
      "value": 294
    }
  ],
  "size": 294,
  "weight": 540,
  "fee": 1512,
  "status": {
    "confirmed": true,
    "block_height": 834460,
    "block_hash": "00000000000000000000484a79b643b2524bbce82e5d8a442013fa5b8905ed98",
    "block_time": 1710307468
  },
  "hex": "02000000000101643321469295d0c73f0634e20c357937dd113ace04293f2a58cb9a8600bac3ace200000000fffffffd0126010000000000001600147a665de7a370f4c9b372ab1fae587500a5bcbdb40340928e26136a23989a7aacd6a8e9086f9b0f1d9ccf7dbab66457093eb7eed9f4d2ffa28b86d7c591463fa1cf8c1919eca867aec294eb95470a499a4ecf4de22a796d204b33beb36f291d50fe04f80c5612df71b4c838d9c15559602961422811dc0f34ac0063036f726401010a746578742f706c61696e00357b2270223a226272632d3230222c226f70223a226d696e74222c227469636b223a22646f6765222c22616d74223a2234323030227d6821c14b33beb36f291d50fe04f80c5612df71b4c838d9c15559602961422811dc0f3400000000"
}