{
  "txid": "5db4998af317f13c80bc0689c9d8708277767e9267b86b776abb26e5b3e7fd5e",
  "version": 2,
  "locktime": 0,
  "vin": [
    {
      "txid": "4d7b00f91d43447a49a4617136b33719d01a9ac49078f19b88d7a375393e0832",
      "vout": 1,
      "prevout": {
        "scriptpubkey": "00143ea3a87d9031105972a09b363ecf2b9a5c7000b2",
        "scriptpubkey_asm": "OP_0 OP_PUSHBYTES_20 3ea3a87d9031105972a09b363ecf2b9a5c7000b2",
        "scriptpubkey_type": "v0_p2wpkh",
        "scriptpubkey_address": "bc1q8636slvsxyg9ju4qnvmranetnfw8qq9jjd35sk",
        "value": 220406
      },
      "scriptsig": "",
      "scriptsig_asm": "",
      "witness": [
        "3045022100df10dc111342b35fa6fd5ec8ad06ab615cf8409a3403100fc8b9edfcedf678d902204906b1ede242269592252306fab0313c266f800517f54028f36a7416e148487701",
        "020fac05f845f331ca1c35dbd8a87c3c91dd276091d9c3f1e4eac1e92273fb4d74"
      ],
      "is_coinbase": false,
      "sequence": 4294967295
    }
  ],
  "vout": [
    {
      "scriptpubkey": "a9142a3d44232735a47e1292f6117009e412413cfd3987",
      "scriptpubkey_asm": "OP_HASH160 OP_PUSHBYTES_20 2a3d44232735a47e1292f6117009e412413cfd39 OP_EQUAL",
      "scriptpubkey_type": "p2sh",
      "scriptpubkey_address": "35YMhSwqdBfBnpAqnCCfKtrYXgAHNyJssd",
      "value": 24000
    },
    {
      "scriptpubkey": "0014060687cb17bdfbc5ab4127b143413c791206cffb",
      "scriptpubkey_asm": "OP_0 OP_PUSHBYTES_20 060687cb17bdfbc5ab4127b143413c791206cffb",
      "scriptpubkey_type": "v0_p2wpkh",
      "scriptpubkey_address": "bc1qqcrg0jchhhaut26py7c5xsfu0yfqdnlmhu28yc",
      "value": 194869
    }
  ],
  "size": 224,
  "weight": 566,
  "fee": 1537,
  "status": {
    "confirmed": true,
    "block_height": 834464,
    "block_hash": "0000000000000000000177a0869a911a2b65c9bdcd5a8bcb02b68f305bee848e",
    "block_time": 1710308296
  },
  "hex": "0200000000010132083e3975a3d7889bf17890c49a1ad01937b3367161a4497a44431df9007b4d0100000000ffffffff02c05d00000000000017a9142a3d44232735a47e1292f6117009e412413cfd398735f9020000000000160014060687cb17bdfbc5ab4127b143413c791206cffb02483045022100df10dc111342b35fa6fd5ec8ad06ab615cf8409a3403100fc8b9edfcedf678d902204906b1ede242269592252306fab0313c266f800517f54028f36a7416e14848770121020fac05f845f331ca1c35dbd8a87c3c91dd276091d9c3f1e4eac1e92273fb4d7400000000"
}