{
  "txid": "5dc2a2e28431c6d64e1522bd945269bd9f839f98825e8affe6671b7388399d7a",
  "version": 2,
  "locktime": 834637,
  "vin": [
    {
      "txid": "6494cdb062c4a1bc3e74760f9fd389c69c9cd0dcba246c0c58ab37688671edbd",
      "vout": 0,
      "prevout": {
        "scriptpubkey": "0014b9c1c402d4a435ba726f52e31c71e254af33ee0e",
        "scriptpubkey_asm": "OP_0 OP_PUSHBYTES_20 b9c1c402d4a435ba726f52e31c71e254af33ee0e",
        "scriptpubkey_type": "v0_p2wpkh",
        "scriptpubkey_address": "bc1qh8qugqk55s6m5un02t33cu0z2jhn8msw8rv8mr",
        "value": 257963288
      },
      "scriptsig": "",
      "scriptsig_asm": "",
      "witness": [
        "304402207ee3c1c33adff9e43639b3ecca8bbc0ff29dace025492be0db76113c4e092aa902204812213ceeaad54422ec6d426cf01669811917eb80a7d5c6e019546b45825caa01",
        "02eeb676b33e4bc41262ae92a78074dfe12a2dd4c0c513c0d96d263625ab6369a5"
      ],
      "is_coinbase": false,
      "sequence": 4294967294
    }
  ],
  "vout": [
    {
      "scriptpubkey": "a9146e124187052feba23bbf6c4b839adce380219a5787",
      "scriptpubkey_asm": "OP_HASH160 OP_PUSHBYTES_20 6e124187052feba23bbf6c4b839adce380219a57 OP_EQUAL",
      "scriptpubkey_type": "p2sh",
      "scriptpubkey_address": "3Bj286HNPmHunruTHhAX2nCpME1iANn62n",
      "value": 687800
    },
    {
      "scriptpubkey": "001436249fc16d9d73a62e30ff630a9f42583ca386c9",
      "scriptpubkey_asm": "OP_0 OP_PUSHBYTES_20 36249fc16d9d73a62e30ff630a9f42583ca386c9",
      "scriptpubkey_type": "v0_p2wpkh",
      "scriptpubkey_address": "bc1qxcjflstdn4e6vt3sla3s486ztq728pkfjs20tw",
      "value": 257272008
    }
  ],
  "size": 223,
  "weight": 565,
  "fee": 3480,
  "status": {
    "confirmed": true,
    "block_height": 834638,
    "block_hash": "000000000000000000025f742c626208ac87e0b7d15054abb4a19ca2d735a54e",
    "block_time": 1710405325
  },
  "hex": "02000000000101bded71866837ab580c6c24badcd09c9cc689d39f0f76743ebca1c462b0cd94640000000000feffffff02b87e0a000000000017a9146e124187052feba23bbf6c4b839adce380219a5787c8a8550f0000000016001436249fc16d9d73a62e30ff630a9f42583ca386c90247304402207ee3c1c33adff9e43639b3ecca8bbc0ff29dace025492be0db76113c4e092aa902204812213ceeaad54422ec6d426cf01669811917eb80a7d5c6e019546b45825caa012102eeb676b33e4bc41262ae92a78074dfe12a2dd4c0c513c0d96d263625ab6369a54dbc0c00"
}