{
  "txid": "5dc659b609edcab9535f1c186163417e536aef43dd6136cc648b51468c523cce",
  "version": 2,
  "locktime": 0,
  "vin": [
    {
      "txid": "ce74a108bc5e5858b50342a64d241ae85756b120ab76848611f728f299772370",
      "vout": 1,
      "prevout": {
        "scriptpubkey": "0014fe4ec26ab72e0f7b8db1e34dc712cb146599815c",
        "scriptpubkey_asm": "OP_0 OP_PUSHBYTES_20 fe4ec26ab72e0f7b8db1e34dc712cb146599815c",
        "scriptpubkey_type": "v0_p2wpkh",
        "scriptpubkey_address": "bc1qle8vy64h9c8hhrd3udxuwyktz3jenq2ua3sfv5",
        "value": 1505016
      },
      "scriptsig": "",
      "scriptsig_asm": "",
      "witness": [
        "3044022070e0f232e7ac8f179cefc977356926c70806385ba37e25ea5e7453225b26e1ed02207054dd4fd302e2df1eea48636fd62070c0736a29dc3e45d99f6febdb2e6691f501",
        "022aa283f81ec54a0c2380c0d9da0781fc2b07c81462cd9d36f257ee8eec54dba1"
      ],
      "is_coinbase": false,
      "sequence": 4294967295
    }
  ],
  "vout": [
    {
      "scriptpubkey": "0020b84a8e0aa951252fbd84a4447012c96ef46f2c97060951af3ca0b7bd613b957a",
      "scriptpubkey_asm": "OP_0 OP_PUSHBYTES_32 b84a8e0aa951252fbd84a4447012c96ef46f2c97060951af3ca0b7bd613b957a",
      "scriptpubkey_type": "v0_p2wsh",
      "scriptpubkey_address": "bc1qhp9guz4f2yjjl0vy53z8qykfdm6x7tyhqcy4rteu5zmm6cfmj4aqr70gem",
      "value": 109130
    },
    {
      "scriptpubkey": "0014cf15d2dd4312f68e60486340b002b1750542a9e9",
      "scriptpubkey_asm": "OP_0 OP_PUSHBYTES_20 cf15d2dd4312f68e60486340b002b1750542a9e9",
      "scriptpubkey_type": "v0_p2wpkh",
      "scriptpubkey_address": "bc1qeu2a9h2rztmguczgvdqtqq43w5z5920fc3mrka",
      "value": 1393230
    }
  ],
  "size": 234,
  "weight": 609,
  "fee": 2656,
  "status": {
    "confirmed": true,
    "block_height": 834638,
    "block_hash": "000000000000000000025f742c626208ac87e0b7d15054abb4a19ca2d735a54e",
    "block_time": 1710405325
  },
  "hex": "0200000000010170237799f228f711868476ab20b15657e81a244da64203b558585ebc08a174ce0100000000ffffffff024aaa010000000000220020b84a8e0aa951252fbd84a4447012c96ef46f2c97060951af3ca0b7bd613b957a4e42150000000000160014cf15d2dd4312f68e60486340b002b1750542a9e902473044022070e0f232e7ac8f179cefc977356926c70806385ba37e25ea5e7453225b26e1ed02207054dd4fd302e2df1eea48636fd62070c0736a29dc3e45d99f6febdb2e6691f50121022aa283f81ec54a0c2380c0d9da0781fc2b07c81462cd9d36f257ee8eec54dba100000000"
}