{
  "txid": "5dc788a912b206aad5f17c0f7208ff4c147fd456b0956c835cc66a90453a1339",
  "version": 2,
  "locktime": 0,
  "vin": [
    {
      "txid": "97140e11194a75305a4dd541d2894a8c9161fa6ab7ee349a2b6261dc4a521e8b",
      "vout": 0,
      "prevout": {
        "scriptpubkey": "0014015f524f21a6d8e0c8cdf9338467814294dd9fbb",
        "scriptpubkey_asm": "OP_0 OP_PUSHBYTES_20 015f524f21a6d8e0c8cdf9338467814294dd9fbb",
        "scriptpubkey_type": "v0_p2wpkh",
        "scriptpubkey_address": "bc1qq904ynep5mvwpjxdlyecgeupg22dm8am6cfvgq",
        "value": 104932467
      },
      "scriptsig": "",
      "scriptsig_asm": "",
      "witness": [
        "3045022100fdd1ba77b874967c162843e94834e946a26641eb30dd069a1cc498584a87c5a60220476e89fdbc7910e285ba88c3dd302c601d41795de33645f917a06c1765889e0a01",
        "03e0ebb9dd2a9314f16c76a0c68ea4dd2355033f95a3294b01eaf1f6aa1aaaa3fd"
      ],
      "is_coinbase": false,
      "sequence": 4294967280
    }
  ],
  "vout": [
    {
      "scriptpubkey": "0014015f524f21a6d8e0c8cdf9338467814294dd9fbb",
      "scriptpubkey_asm": "OP_0 OP_PUSHBYTES_20 015f524f21a6d8e0c8cdf9338467814294dd9fbb",
      "scriptpubkey_type": "v0_p2wpkh",
      "scriptpubkey_address": "bc1qq904ynep5mvwpjxdlyecgeupg22dm8am6cfvgq",
      "value": 98560979
    },
    {
      "scriptpubkey": "001492599af9d92f5b09a064f1faf3a7b3f8e3449a22",
      "scriptpubkey_asm": "OP_0 OP_PUSHBYTES_20 92599af9d92f5b09a064f1faf3a7b3f8e3449a22",
      "scriptpubkey_type": "v0_p2wpkh",
      "scriptpubkey_address": "bc1qjfve47we9adsngry78a08fanlr35fx3zqtv08y",
      "value": 77273
    },
    {
      "scriptpubkey": "0014d48cb3623c12673ad49ed4bb9b5f6ae03c905665",
      "scriptpubkey_asm": "OP_0 OP_PUSHBYTES_20 d48cb3623c12673ad49ed4bb9b5f6ae03c905665",
      "scriptpubkey_type": "v0_p2wpkh",
      "scriptpubkey_address": "bc1q6jxtxc3uzfnn44y76jaekhm2uq7fq4n9w4483g",
      "value": 5332677
    },
    {
      "scriptpubkey": "001466785135a64f80f1a9307a487a8075a021083738",
      "scriptpubkey_asm": "OP_0 OP_PUSHBYTES_20 66785135a64f80f1a9307a487a8075a021083738",
      "scriptpubkey_type": "v0_p2wpkh",
      "scriptpubkey_address": "bc1qveu9zddxf7q0r2fs0fy84qr45qsssdecwalfn7",
      "value": 8721
    },
    {
      "scriptpubkey": "a91468366565de427154875f5c64c6a5a3cc7a7e651a87",
      "scriptpubkey_asm": "OP_HASH160 OP_PUSHBYTES_20 68366565de427154875f5c64c6a5a3cc7a7e651a OP_EQUAL",
      "scriptpubkey_type": "p2sh",
      "scriptpubkey_address": "3BC3MzyczKmFT39z1sXNodEEG3GXbJaPJu",
      "value": 685849
    },
    {
      "scriptpubkey": "a914e3894d531df4605f12bae5d50ecebd4d9920220087",
      "scriptpubkey_asm": "OP_HASH160 OP_PUSHBYTES_20 e3894d531df4605f12bae5d50ecebd4d99202200 OP_EQUAL",
      "scriptpubkey_type": "p2sh",
      "scriptpubkey_address": "3NS7o182WjXQXczoJXBTxtyNKodZULGLSc",
      "value": 66363
    },
    {
      "scriptpubkey": "76a914a634a079b69f653ba8c141dba048fbc9bdb5282b88ac",
      "scriptpubkey_asm": "OP_DUP OP_HASH160 OP_PUSHBYTES_20 a634a079b69f653ba8c141dba048fbc9bdb5282b OP_EQUALVERIFY OP_CHECKSIG",
      "scriptpubkey_type": "p2pkh",
      "scriptpubkey_address": "1G9pDRUah7tzFMDypUhuwRPf3rTJmFn124",
      "value": 189167
    }
  ],
  "size": 383,
  "weight": 1202,
  "fee": 11438,
  "status": {
    "confirmed": true,
    "block_height": 834460,
    "block_hash": "00000000000000000000484a79b643b2524bbce82e5d8a442013fa5b8905ed98",
    "block_time": 1710307468
  },
  "hex": "020000000001018b1e524adc61622b9a34eeb76afa61918c4a89d241d54d5a30754a19110e14970000000000f0ffffff07d3ebdf0500000000160014015f524f21a6d8e0c8cdf9338467814294dd9fbbd92d01000000000016001492599af9d92f5b09a064f1faf3a7b3f8e3449a22c55e510000000000160014d48cb3623c12673ad49ed4bb9b5f6ae03c905665112200000000000016001466785135a64f80f1a9307a487a8075a02108373819770a000000000017a91468366565de427154875f5c64c6a5a3cc7a7e651a873b0301000000000017a914e3894d531df4605f12bae5d50ecebd4d9920220087efe20200000000001976a914a634a079b69f653ba8c141dba048fbc9bdb5282b88ac02483045022100fdd1ba77b874967c162843e94834e946a26641eb30dd069a1cc498584a87c5a60220476e89fdbc7910e285ba88c3dd302c601d41795de33645f917a06c1765889e0a012103e0ebb9dd2a9314f16c76a0c68ea4dd2355033f95a3294b01eaf1f6aa1aaaa3fd00000000"
}