{
  "txid": "5dce03f43abcca94ce924661e4d9d74d5388d10a55a71ddfd45de8d6efe77f6f",
  "version": 2,
  "locktime": 0,
  "vin": [
    {
      "txid": "fa016236fd469d0d7bec2a621d665d0736501da4506ea6dd0fd86fd07181b332",
      "vout": 1,
      "prevout": {
        "scriptpubkey": "a91428a1c56d4ac78ed74b87c1dc076bad2c02fb15bd87",
        "scriptpubkey_asm": "OP_HASH160 OP_PUSHBYTES_20 28a1c56d4ac78ed74b87c1dc076bad2c02fb15bd OP_EQUAL",
        "scriptpubkey_type": "p2sh",
        "scriptpubkey_address": "35PrkH1pbrNeXXMh6hMBVykEoj82xbja8u",
        "value": 538672
      },
      "scriptsig": "160014372b29ee77417ce05905b57327a2b6800bb0deef",
      "scriptsig_asm": "OP_PUSHBYTES_22 0014372b29ee77417ce05905b57327a2b6800bb0deef",
      "witness": [
        "30440220681d9efd006c33e97d53e92514a7e6727e55c269184f4bc265f955610ac22979022036d9c753534ba3a03857dbfaad40c4db6919471b31aee662c0804a15a8642add01",
        "02be96311296c8deb3be4379018b503a5a806c325669943666f61ae0bbb8b1a962"
      ],
      "is_coinbase": false,
      "sequence": 4294967295,
      "inner_redeemscript_asm": "OP_0 OP_PUSHBYTES_20 372b29ee77417ce05905b57327a2b6800bb0deef"
    }
  ],
  "vout": [
    {
      "scriptpubkey": "51207fa91fe10c809f8077dc535b1e8ab5b7d3f3b12e130612793880813b7029aa23",
      "scriptpubkey_asm": "OP_PUSHNUM_1 OP_PUSHBYTES_32 7fa91fe10c809f8077dc535b1e8ab5b7d3f3b12e130612793880813b7029aa23",
      "scriptpubkey_type": "v1_p2tr",
      "scriptpubkey_address": "bc1p0753lcgvsz0cqa7u2dd3az44klfl8vfwzvrpy7fcszqnkupf4g3sfpg35t",
      "value": 79970
    },
    {
      "scriptpubkey": "a91428a1c56d4ac78ed74b87c1dc076bad2c02fb15bd87",
      "scriptpubkey_asm": "OP_HASH160 OP_PUSHBYTES_20 28a1c56d4ac78ed74b87c1dc076bad2c02fb15bd OP_EQUAL",
      "scriptpubkey_type": "p2sh",
      "scriptpubkey_address": "35PrkH1pbrNeXXMh6hMBVykEoj82xbja8u",
      "value": 455516
    }
  ],
  "size": 258,
  "weight": 705,
  "fee": 3186,
  "status": {
    "confirmed": true,
    "block_height": 834638,
    "block_hash": "000000000000000000025f742c626208ac87e0b7d15054abb4a19ca2d735a54e",
    "block_time": 1710405325
  },
  "hex": "0200000000010132b38171d06fd80fdda66e50a41d5036075d661d622aec7b0d9d46fd366201fa0100000017160014372b29ee77417ce05905b57327a2b6800bb0deefffffffff0262380100000000002251207fa91fe10c809f8077dc535b1e8ab5b7d3f3b12e130612793880813b7029aa235cf306000000000017a91428a1c56d4ac78ed74b87c1dc076bad2c02fb15bd87024730440220681d9efd006c33e97d53e92514a7e6727e55c269184f4bc265f955610ac22979022036d9c753534ba3a03857dbfaad40c4db6919471b31aee662c0804a15a8642add012102be96311296c8deb3be4379018b503a5a806c325669943666f61ae0bbb8b1a96200000000"
}