{
  "txid": "5dd0d3ac7d11fb1e76259abf5f01ee923ff8e080418df18aaacbc644295dc3d5",
  "version": 2,
  "locktime": 0,
  "vin": [
    {
      "txid": "8486ecb4df0880316dd6e82b3971b4df187aff23765bc3a47f8d78bb53aa273c",
      "vout": 82,
      "prevout": {
        "scriptpubkey": "51203b2ebb614ea255e61da685e44c61d10d60a6dae268f2551ac930ed9bce2981cc",
        "scriptpubkey_asm": "OP_PUSHNUM_1 OP_PUSHBYTES_32 3b2ebb614ea255e61da685e44c61d10d60a6dae268f2551ac930ed9bce2981cc",
        "scriptpubkey_type": "v1_p2tr",
        "scriptpubkey_address": "bc1p8vhtkc2w5f27v8dxshjyccw3p4s2dkhzdre92xkfxrkehn3fs8xqhd66q4",
        "value": 2575
      },
      "scriptsig": "",
      "scriptsig_asm": "",
      "witness": [
        "a2c19bbd4a4387c32151c11bd1d39c7f2a82f8c4c8d3af9e615b2224523a3c2b7cc9413113e13e07dbc1c272f412fa0c898773fe95d775592a17443ce7edf61d",
        "20438231a350c0d201a1c17343e1c4a4085f0f1fb06b0d3172ec3bd129fd8e02cdac0063036f726401010a746578742f706c61696e00367b2270223a226272632d3230222c226f70223a226d696e74222c227469636b223a2261616161222c22616d74223a223130303030227d68",
        "c1438231a350c0d201a1c17343e1c4a4085f0f1fb06b0d3172ec3bd129fd8e02cd"
      ],
      "is_coinbase": false,
      "sequence": 4261412863
    }
  ],
  "vout": [
    {
      "scriptpubkey": "0014ddd7ef12ea6f78edcc1e8e7afa12c01ab59f3339",
      "scriptpubkey_asm": "OP_0 OP_PUSHBYTES_20 ddd7ef12ea6f78edcc1e8e7afa12c01ab59f3339",
      "scriptpubkey_type": "v0_p2wpkh",
      "scriptpubkey_address": "bc1qmht77yh2dauwmnq73ea05ykqr26e7veea8spz6",
      "value": 546
    }
  ],
  "size": 295,
  "weight": 541,
  "fee": 2029,
  "status": {
    "confirmed": true,
    "block_height": 834460,
    "block_hash": "00000000000000000000484a79b643b2524bbce82e5d8a442013fa5b8905ed98",
    "block_time": 1710307468
  },
  "hex": "020000000001013c27aa53bb788d7fa4c35b7623ff7a18dfb471392be8d66d318008dfb4ec86845200000000fffffffd012202000000000000160014ddd7ef12ea6f78edcc1e8e7afa12c01ab59f33390340a2c19bbd4a4387c32151c11bd1d39c7f2a82f8c4c8d3af9e615b2224523a3c2b7cc9413113e13e07dbc1c272f412fa0c898773fe95d775592a17443ce7edf61d6e20438231a350c0d201a1c17343e1c4a4085f0f1fb06b0d3172ec3bd129fd8e02cdac0063036f726401010a746578742f706c61696e00367b2270223a226272632d3230222c226f70223a226d696e74222c227469636b223a2261616161222c22616d74223a223130303030227d6821c1438231a350c0d201a1c17343e1c4a4085f0f1fb06b0d3172ec3bd129fd8e02cd00000000"
}