{
  "txid": "5de644c2ee046ac427826427d4f6adf9d68af70a45698308c70ae367b264834f",
  "version": 2,
  "locktime": 0,
  "vin": [
    {
      "txid": "5a0a367cb2659f102448484f2875920b150061b4f939a99ef365f596168b8a8a",
      "vout": 0,
      "prevout": {
        "scriptpubkey": "0014b075403bae046aed9f0ba2ffb370cd017e241a33",
        "scriptpubkey_asm": "OP_0 OP_PUSHBYTES_20 b075403bae046aed9f0ba2ffb370cd017e241a33",
        "scriptpubkey_type": "v0_p2wpkh",
        "scriptpubkey_address": "bc1qkp65qwawq34wm8ct5tlmxuxdq9lzgx3nw7flm9",
        "value": 6256641
      },
      "scriptsig": "",
      "scriptsig_asm": "",
      "witness": [
        "304402205030d3058345813b1b0eecac8ea6a5ebc8e412628c1cb58de6cc68ec234e62f602201958421112574cead6d102bca4dbfa1a2464b730401fc8c5a0007171c1d4784401",
        "02fab0acc6a132003eda73ca2b1b5118112e0452d34fb976d2d2e913c26cf7c66a"
      ],
      "is_coinbase": false,
      "sequence": 4294967295
    },
    {
      "txid": "578cb13899e090fdeafe761b138d97671bc076f9bd0ad8f73e9c3f927d96a451",
      "vout": 1,
      "prevout": {
        "scriptpubkey": "001435391d6e07b1cefc46aee9a1b54e394d4e684662",
        "scriptpubkey_asm": "OP_0 OP_PUSHBYTES_20 35391d6e07b1cefc46aee9a1b54e394d4e684662",
        "scriptpubkey_type": "v0_p2wpkh",
        "scriptpubkey_address": "bc1qx5u36ms8k880c34waxsm2n3ef48xs3nzf8uyda",
        "value": 7791819
      },
      "scriptsig": "",
      "scriptsig_asm": "",
      "witness": [
        "30440220188dcd85c8fa39c4f7bfaac25aac059612a5eacd007b9b078f424c61023aa4fc022049ef845c49958d4e563609e6c358d8e39cba0102d574ba9f4a7ac8e171f533c401",
        "0289012d1fa6af1191fd0483aa8b0d02f9c04445ec0168b857474d485c2a211a3f"
      ],
      "is_coinbase": false,
      "sequence": 4294967295
    },
    {
      "txid": "a76581d43225f254f748e10638c3099ca024108cc8266ff955b4b3fee9c0b78c",
      "vout": 1,
      "prevout": {
        "scriptpubkey": "00144c1d22c369152d6befcc1c0eff77f5288c76b54a",
        "scriptpubkey_asm": "OP_0 OP_PUSHBYTES_20 4c1d22c369152d6befcc1c0eff77f5288c76b54a",
        "scriptpubkey_type": "v0_p2wpkh",
        "scriptpubkey_address": "bc1qfswj9smfz5kkhm7vrs807al49zx8dd22squtqx",
        "value": 2679070
      },
      "scriptsig": "",
      "scriptsig_asm": "",
      "witness": [
        "304402205d2e7893c0563b99fe2a56758fdd767b0228f32860d8494dcccca789a627d3ab0220025d4914164ebf2812394d134a0140da849a467020764ac8b3db2af4bdb919a001",
        "03c443e84a1e5209b8683c88c96f73a64d0ce8411baebfeb4bfaf266aa46acafc3"
      ],
      "is_coinbase": false,
      "sequence": 4294967295
    }
  ],
  "vout": [
    {
      "scriptpubkey": "5120e0de86574ab5c9f9d414a4f3c3838b8f3ac5a7b8cf0079be47d44fe4ccd0cfc3",
      "scriptpubkey_asm": "OP_PUSHNUM_1 OP_PUSHBYTES_32 e0de86574ab5c9f9d414a4f3c3838b8f3ac5a7b8cf0079be47d44fe4ccd0cfc3",
      "scriptpubkey_type": "v1_p2tr",
      "scriptpubkey_address": "bc1pur0gv462khyln4q55neu8qut3uavtfaceuq8n0j86387fnxselpsd7w30v",
      "value": 15000000
    },
    {
      "scriptpubkey": "001479224b976794e3b0149a9cae3390b8177c0f85bf",
      "scriptpubkey_asm": "OP_0 OP_PUSHBYTES_20 79224b976794e3b0149a9cae3390b8177c0f85bf",
      "scriptpubkey_type": "v0_p2wpkh",
      "scriptpubkey_address": "bc1q0y3yh9m8jn3mq9y6njhr8y9cza7qlpdlswdkvv",
      "value": 1719470
    }
  ],
  "size": 530,
  "weight": 1151,
  "fee": 8060,
  "status": {
    "confirmed": true,
    "block_height": 834638,
    "block_hash": "000000000000000000025f742c626208ac87e0b7d15054abb4a19ca2d735a54e",
    "block_time": 1710405325
  },
  "hex": "020000000001038a8a8b1696f565f39ea939f9b46100150b9275284f484824109f65b27c360a5a0000000000ffffffff51a4967d923f9c3ef7d80abdf976c01b67978d131b76feeafd90e09938b18c570100000000ffffffff8cb7c0e9feb3b455f96f26c88c1024a09c09c33806e148f754f22532d48165a70100000000ffffffff02c0e1e40000000000225120e0de86574ab5c9f9d414a4f3c3838b8f3ac5a7b8cf0079be47d44fe4ccd0cfc3ae3c1a000000000016001479224b976794e3b0149a9cae3390b8177c0f85bf0247304402205030d3058345813b1b0eecac8ea6a5ebc8e412628c1cb58de6cc68ec234e62f602201958421112574cead6d102bca4dbfa1a2464b730401fc8c5a0007171c1d47844012102fab0acc6a132003eda73ca2b1b5118112e0452d34fb976d2d2e913c26cf7c66a024730440220188dcd85c8fa39c4f7bfaac25aac059612a5eacd007b9b078f424c61023aa4fc022049ef845c49958d4e563609e6c358d8e39cba0102d574ba9f4a7ac8e171f533c401210289012d1fa6af1191fd0483aa8b0d02f9c04445ec0168b857474d485c2a211a3f0247304402205d2e7893c0563b99fe2a56758fdd767b0228f32860d8494dcccca789a627d3ab0220025d4914164ebf2812394d134a0140da849a467020764ac8b3db2af4bdb919a0012103c443e84a1e5209b8683c88c96f73a64d0ce8411baebfeb4bfaf266aa46acafc300000000"
}