{
  "txid": "5de933cdc11ff2a11abf02ebf5f8bbb66ee7a120b59f122dd1bb32fd1935f620",
  "version": 2,
  "locktime": 0,
  "vin": [
    {
      "txid": "acc3ba00869acb582a3f2904ce3a11dd3779350ce234063fc7d0959246213364",
      "vout": 137,
      "prevout": {
        "scriptpubkey": "5120e3b917c499b052eefa27a88057f5c03f7844ca2e354010eb5239e7414a12ed93",
        "scriptpubkey_asm": "OP_PUSHNUM_1 OP_PUSHBYTES_32 e3b917c499b052eefa27a88057f5c03f7844ca2e354010eb5239e7414a12ed93",
        "scriptpubkey_type": "v1_p2tr",
        "scriptpubkey_address": "bc1puwu303yekpfwa7384zq90awq8auyfj3wx4qpp66j88n5zjsjakfsnf9vsv",
        "value": 1806
      },
      "scriptsig": "",
      "scriptsig_asm": "",
      "witness": [
        "d3a8f937c2526c22d88bb7dfd72d5e3b6f021a7fa4f94c3d2adce446c1b0ae78fdc4700e5b83ae758c449e5af938cfdcdfda822107ef15947c2e7201f75d545a",
        "209fc05cc7e8b29c40d4e29446cd448c68dd90766e7f77c3363ad8e54491d71565ac0063036f726401010a746578742f706c61696e00357b2270223a226272632d3230222c226f70223a226d696e74222c227469636b223a22646f6765222c22616d74223a2234323030227d68",
        "c19fc05cc7e8b29c40d4e29446cd448c68dd90766e7f77c3363ad8e54491d71565"
      ],
      "is_coinbase": false,
      "sequence": 4261412863
    }
  ],
  "vout": [
    {
      "scriptpubkey": "00147a665de7a370f4c9b372ab1fae587500a5bcbdb4",
      "scriptpubkey_asm": "OP_0 OP_PUSHBYTES_20 7a665de7a370f4c9b372ab1fae587500a5bcbdb4",
      "scriptpubkey_type": "v0_p2wpkh",
      "scriptpubkey_address": "bc1q0fn9mearwr6vnvmj4v06ukr4qzjme0d565dzcx",
      "value": 294
    }
  ],
  "size": 294,
  "weight": 540,
  "fee": 1512,
  "status": {
    "confirmed": true,
    "block_height": 834460,
    "block_hash": "00000000000000000000484a79b643b2524bbce82e5d8a442013fa5b8905ed98",
    "block_time": 1710307468
  },
  "hex": "02000000000101643321469295d0c73f0634e20c357937dd113ace04293f2a58cb9a8600bac3ac8900000000fffffffd0126010000000000001600147a665de7a370f4c9b372ab1fae587500a5bcbdb40340d3a8f937c2526c22d88bb7dfd72d5e3b6f021a7fa4f94c3d2adce446c1b0ae78fdc4700e5b83ae758c449e5af938cfdcdfda822107ef15947c2e7201f75d545a6d209fc05cc7e8b29c40d4e29446cd448c68dd90766e7f77c3363ad8e54491d71565ac0063036f726401010a746578742f706c61696e00357b2270223a226272632d3230222c226f70223a226d696e74222c227469636b223a22646f6765222c22616d74223a2234323030227d6821c19fc05cc7e8b29c40d4e29446cd448c68dd90766e7f77c3363ad8e54491d7156500000000"
}