{
  "txid": "5df57513de99454227c729f4f48880813ad89a6149406c89cb34202a6639e782",
  "version": 2,
  "locktime": 0,
  "vin": [
    {
      "txid": "9516c2fcf6149e5bf61ff0ab1e7d6e98a824b476c606b7f9a98fd329b08a840b",
      "vout": 1,
      "prevout": {
        "scriptpubkey": "a914a639c044a495729c0e9bb8d18a36de9b80abcbc287",
        "scriptpubkey_asm": "OP_HASH160 OP_PUSHBYTES_20 a639c044a495729c0e9bb8d18a36de9b80abcbc2 OP_EQUAL",
        "scriptpubkey_type": "p2sh",
        "scriptpubkey_address": "3GqwGzzgkzfsyvowBEy8Q9CHSihAGv1F2G",
        "value": 3084460
      },
      "scriptsig": "160014d393781c58811fcd6637a0cd2047bb1fcc793e2d",
      "scriptsig_asm": "OP_PUSHBYTES_22 0014d393781c58811fcd6637a0cd2047bb1fcc793e2d",
      "witness": [
        "3044022037f7f7d719bb99b20a07b8cb66336636d9a89b53f28c8ca78496a3b21d2ee27a022001febf33572e423dfa0ec2288df0bc00294f9e86be7baf5903d65b98cded00b501",
        "02a6b6c3a7bd25a766bdbe312adc603b14c52bdce80704de0aa06870ae05074de0"
      ],
      "is_coinbase": false,
      "sequence": 4294967295,
      "inner_redeemscript_asm": "OP_0 OP_PUSHBYTES_20 d393781c58811fcd6637a0cd2047bb1fcc793e2d"
    }
  ],
  "vout": [
    {
      "scriptpubkey": "a914d05785cc1e47dfdaa5c5179ede6b13a3c3f12d8787",
      "scriptpubkey_asm": "OP_HASH160 OP_PUSHBYTES_20 d05785cc1e47dfdaa5c5179ede6b13a3c3f12d87 OP_EQUAL",
      "scriptpubkey_type": "p2sh",
      "scriptpubkey_address": "3LgdKdB9x42m4ujae78NcwUXjYW3z45KrX",
      "value": 600000
    },
    {
      "scriptpubkey": "a914a639c044a495729c0e9bb8d18a36de9b80abcbc287",
      "scriptpubkey_asm": "OP_HASH160 OP_PUSHBYTES_20 a639c044a495729c0e9bb8d18a36de9b80abcbc2 OP_EQUAL",
      "scriptpubkey_type": "p2sh",
      "scriptpubkey_address": "3GqwGzzgkzfsyvowBEy8Q9CHSihAGv1F2G",
      "value": 2481611
    }
  ],
  "size": 247,
  "weight": 661,
  "fee": 2849,
  "status": {
    "confirmed": true,
    "block_height": 834638,
    "block_hash": "000000000000000000025f742c626208ac87e0b7d15054abb4a19ca2d735a54e",
    "block_time": 1710405325
  },
  "hex": "020000000001010b848ab029d38fa9f9b706c676b424a8986e7d1eabf01ff65b9e14f6fcc216950100000017160014d393781c58811fcd6637a0cd2047bb1fcc793e2dffffffff02c02709000000000017a914d05785cc1e47dfdaa5c5179ede6b13a3c3f12d8787cbdd25000000000017a914a639c044a495729c0e9bb8d18a36de9b80abcbc28702473044022037f7f7d719bb99b20a07b8cb66336636d9a89b53f28c8ca78496a3b21d2ee27a022001febf33572e423dfa0ec2288df0bc00294f9e86be7baf5903d65b98cded00b5012102a6b6c3a7bd25a766bdbe312adc603b14c52bdce80704de0aa06870ae05074de000000000"
}