{
  "txid": "5e0285293faef10a3c97f7570688bfa75dea27af4186b33fd6395b67398fec00",
  "version": 1,
  "locktime": 0,
  "vin": [
    {
      "txid": "f8d9c3a45ec3a4649d0b4266b8b6c0d7527b4d828b2d7fe7e3da0088747c7a1c",
      "vout": 9,
      "prevout": {
        "scriptpubkey": "001420db421b631bd46ece39db160253fa6ea06840f1",
        "scriptpubkey_asm": "OP_0 OP_PUSHBYTES_20 20db421b631bd46ece39db160253fa6ea06840f1",
        "scriptpubkey_type": "v0_p2wpkh",
        "scriptpubkey_address": "bc1qyrd5yxmrr02xan3emvtqy5l6d6sxss83p0qc7y",
        "value": 223000
      },
      "scriptsig": "",
      "scriptsig_asm": "",
      "witness": [
        "3045022100c46c042994cb0daef8979c0fce31e3f4563e09a359794e6e7c7f5a905002beb50220506660e01b4f0ee425fc43c1c3c8771e208cb1729bc343789359bef3ceaec25501",
        "03ce45e14abc8144fc438b8898fad21ebc05381c5cbc1bd7fa2814d239caf937ad"
      ],
      "is_coinbase": false,
      "sequence": 0
    },
    {
      "txid": "bf9d7d8ba8e24eeedcaaabf6bd1fad31a12790b0c9443e8f7e927cb9f43b775c",
      "vout": 1,
      "prevout": {
        "scriptpubkey": "001420db421b631bd46ece39db160253fa6ea06840f1",
        "scriptpubkey_asm": "OP_0 OP_PUSHBYTES_20 20db421b631bd46ece39db160253fa6ea06840f1",
        "scriptpubkey_type": "v0_p2wpkh",
        "scriptpubkey_address": "bc1qyrd5yxmrr02xan3emvtqy5l6d6sxss83p0qc7y",
        "value": 143166
      },
      "scriptsig": "",
      "scriptsig_asm": "",
      "witness": [
        "304402202125efddfe1cbed1f6d72a7470624eab55d84580e7c8412709e28ff32097350902207bdac8e25ddb4ee24492ca780a47d92d0a166158591592da2045ea3875ba5dec01",
        "03ce45e14abc8144fc438b8898fad21ebc05381c5cbc1bd7fa2814d239caf937ad"
      ],
      "is_coinbase": false,
      "sequence": 0
    },
    {
      "txid": "0ef08905d2d52af55cc1a3b792e48f284f37ec6e024498d5d83b5ec54d32e4b5",
      "vout": 0,
      "prevout": {
        "scriptpubkey": "001420db421b631bd46ece39db160253fa6ea06840f1",
        "scriptpubkey_asm": "OP_0 OP_PUSHBYTES_20 20db421b631bd46ece39db160253fa6ea06840f1",
        "scriptpubkey_type": "v0_p2wpkh",
        "scriptpubkey_address": "bc1qyrd5yxmrr02xan3emvtqy5l6d6sxss83p0qc7y",
        "value": 300854
      },
      "scriptsig": "",
      "scriptsig_asm": "",
      "witness": [
        "3045022100c40d3bd8041d1c791953dd764719da05ceb42192f6655f2e973d1fe517910d75022013d6e97735b09d673af27e44b4fea9c5d0ab94f4b7f9fcad3da0c66617695f3b01",
        "03ce45e14abc8144fc438b8898fad21ebc05381c5cbc1bd7fa2814d239caf937ad"
      ],
      "is_coinbase": false,
      "sequence": 0
    },
    {
      "txid": "a7ac74b1cfb6c12facb749662aa601a74ad3c942b0fda53fc4aa6a68c476d545",
      "vout": 3,
      "prevout": {
        "scriptpubkey": "001420db421b631bd46ece39db160253fa6ea06840f1",
        "scriptpubkey_asm": "OP_0 OP_PUSHBYTES_20 20db421b631bd46ece39db160253fa6ea06840f1",
        "scriptpubkey_type": "v0_p2wpkh",
        "scriptpubkey_address": "bc1qyrd5yxmrr02xan3emvtqy5l6d6sxss83p0qc7y",
        "value": 276964
      },
      "scriptsig": "",
      "scriptsig_asm": "",
      "witness": [
        "304402207a26b50faad5975c2357261c3a0c9ec94bb692a7be9ee1456a27633c3ec3246d02201cf52d97af3eac0ca12819524c769414d3b8b08ffba89912684a10831f038f4901",
        "03ce45e14abc8144fc438b8898fad21ebc05381c5cbc1bd7fa2814d239caf937ad"
      ],
      "is_coinbase": false,
      "sequence": 0
    },
    {
      "txid": "78b5e41f524c07c84abf1faa33cfd40b2238f8650b00090c94fec5dc7584c9bc",
      "vout": 8,
      "prevout": {
        "scriptpubkey": "001420db421b631bd46ece39db160253fa6ea06840f1",
        "scriptpubkey_asm": "OP_0 OP_PUSHBYTES_20 20db421b631bd46ece39db160253fa6ea06840f1",
        "scriptpubkey_type": "v0_p2wpkh",
        "scriptpubkey_address": "bc1qyrd5yxmrr02xan3emvtqy5l6d6sxss83p0qc7y",
        "value": 272705
      },
      "scriptsig": "",
      "scriptsig_asm": "",
      "witness": [
        "304502210088d35242fbd69b8c192ed6f705f80b46eeef1dbad58be9dc469eff038c520a16022027bd0dabf863aeffb5808344d371cd9ff3795cada90e4e66d33e32aa6b2e670801",
        "03ce45e14abc8144fc438b8898fad21ebc05381c5cbc1bd7fa2814d239caf937ad"
      ],
      "is_coinbase": false,
      "sequence": 0
    }
  ],
  "vout": [
    {
      "scriptpubkey": "00146a7d3eadbab7c4e6d2eef3ba9a217be24cb78e41",
      "scriptpubkey_asm": "OP_0 OP_PUSHBYTES_20 6a7d3eadbab7c4e6d2eef3ba9a217be24cb78e41",
      "scriptpubkey_type": "v0_p2wpkh",
      "scriptpubkey_address": "bc1qdf7natd6klzwd5hw7waf5gtmufxt0rjp3qlfz8",
      "value": 1206375
    }
  ],
  "size": 786,
  "weight": 1524,
  "fee": 10314,
  "status": {
    "confirmed": true,
    "block_height": 834638,
    "block_hash": "000000000000000000025f742c626208ac87e0b7d15054abb4a19ca2d735a54e",
    "block_time": 1710405325
  },
  "hex": "010000000001051c7a7c748800dae3e77f2d8b824d7b52d7c0b6b866420b9d64a4c35ea4c3d9f80900000000000000005c773bf4b97c927e8f3e44c9b09027a131ad1fbdf6abaadcee4ee2a88b7d9dbf010000000000000000b5e4324dc55e3bd8d59844026eec374f288fe492b7a3c15cf52ad5d20589f00e00000000000000000045d576c4686aaac43fa5fdb042c9d34aa701a62a6649b7ac2fc1b6cfb174aca7030000000000000000bcc98475dcc5fe940c09000b65f838220bd4cf33aa1fbf4ac8074c521fe4b5780800000000000000000167681200000000001600146a7d3eadbab7c4e6d2eef3ba9a217be24cb78e4102483045022100c46c042994cb0daef8979c0fce31e3f4563e09a359794e6e7c7f5a905002beb50220506660e01b4f0ee425fc43c1c3c8771e208cb1729bc343789359bef3ceaec255012103ce45e14abc8144fc438b8898fad21ebc05381c5cbc1bd7fa2814d239caf937ad0247304402202125efddfe1cbed1f6d72a7470624eab55d84580e7c8412709e28ff32097350902207bdac8e25ddb4ee24492ca780a47d92d0a166158591592da2045ea3875ba5dec012103ce45e14abc8144fc438b8898fad21ebc05381c5cbc1bd7fa2814d239caf937ad02483045022100c40d3bd8041d1c791953dd764719da05ceb42192f6655f2e973d1fe517910d75022013d6e97735b09d673af27e44b4fea9c5d0ab94f4b7f9fcad3da0c66617695f3b012103ce45e14abc8144fc438b8898fad21ebc05381c5cbc1bd7fa2814d239caf937ad0247304402207a26b50faad5975c2357261c3a0c9ec94bb692a7be9ee1456a27633c3ec3246d02201cf52d97af3eac0ca12819524c769414d3b8b08ffba89912684a10831f038f49012103ce45e14abc8144fc438b8898fad21ebc05381c5cbc1bd7fa2814d239caf937ad0248304502210088d35242fbd69b8c192ed6f705f80b46eeef1dbad58be9dc469eff038c520a16022027bd0dabf863aeffb5808344d371cd9ff3795cada90e4e66d33e32aa6b2e6708012103ce45e14abc8144fc438b8898fad21ebc05381c5cbc1bd7fa2814d239caf937ad00000000"
}