{
  "txid": "5e06a4087bfdfc9f9bbb94972a37f82d3acc52a5daa93e22172a1f2ffde28cea",
  "version": 1,
  "locktime": 0,
  "vin": [
    {
      "txid": "485cd6b0eb17c59ea62f4a9feb82e0c9ceb4d395e711056b4814c4ff5a99e176",
      "vout": 1,
      "prevout": {
        "scriptpubkey": "0014692e94fb788636405f0c1b16bd5f88c7a01c4c13",
        "scriptpubkey_asm": "OP_0 OP_PUSHBYTES_20 692e94fb788636405f0c1b16bd5f88c7a01c4c13",
        "scriptpubkey_type": "v0_p2wpkh",
        "scriptpubkey_address": "bc1qdyhff7mcscmyqhcvrvtt6hugc7spcnqnctqfmn",
        "value": 8167440
      },
      "scriptsig": "",
      "scriptsig_asm": "",
      "witness": [
        "30440220781cdfc4131e44acb080d4352069647ab32c90e8b27471182c215d38fc3a4d5a022035edd4cf7570e6d91f30689edc02907a7974e19464f12091f6e4bba106e37f8201",
        "0386de3f1b1c62ded63c0825f074e37c969921a7c825b350d19d8673f008c8e8ea"
      ],
      "is_coinbase": false,
      "sequence": 4294967295
    },
    {
      "txid": "44df7d94dd336f8bcc813ef1edfbfd3cbe44cac0febe8c06458e70d8675254c6",
      "vout": 0,
      "prevout": {
        "scriptpubkey": "00141b6852baf769d6524cf5b70889ad215bb684d392",
        "scriptpubkey_asm": "OP_0 OP_PUSHBYTES_20 1b6852baf769d6524cf5b70889ad215bb684d392",
        "scriptpubkey_type": "v0_p2wpkh",
        "scriptpubkey_address": "bc1qrd599whhd8t9yn84kuygntfptwmgf5ujv0feqg",
        "value": 15045202
      },
      "scriptsig": "",
      "scriptsig_asm": "",
      "witness": [
        "304402207f1c16c0bc468ffd18f7c4cf3244a91a41df3675a6878625eb434fff169ff6f2022054fe8dbea1c8afa8eef481babc0f1a92aea34b72151fc8833a138075a6af4f7801",
        "029ca4dc952489c977f641cfe634547ef225fa4e63cec67d6be5508e4c8329c9ae"
      ],
      "is_coinbase": false,
      "sequence": 4294967295
    }
  ],
  "vout": [
    {
      "scriptpubkey": "0014467ebaf2c91d95e8b458c7c950d2018272754a19",
      "scriptpubkey_asm": "OP_0 OP_PUSHBYTES_20 467ebaf2c91d95e8b458c7c950d2018272754a19",
      "scriptpubkey_type": "v0_p2wpkh",
      "scriptpubkey_address": "bc1qgelt4ukfrk273dzccly4p5spsfe82jsexyp8xu",
      "value": 10880154
    },
    {
      "scriptpubkey": "001414bc99c207609319df9c7a89f27265b0eb88c858",
      "scriptpubkey_asm": "OP_0 OP_PUSHBYTES_20 14bc99c207609319df9c7a89f27265b0eb88c858",
      "scriptpubkey_type": "v0_p2wpkh",
      "scriptpubkey_address": "bc1qzj7fnss8vzf3nhuu02ylyun9kr4c3jzcjyh6pa",
      "value": 12327092
    }
  ],
  "size": 370,
  "weight": 832,
  "fee": 5396,
  "status": {
    "confirmed": true,
    "block_height": 834638,
    "block_hash": "000000000000000000025f742c626208ac87e0b7d15054abb4a19ca2d735a54e",
    "block_time": 1710405325
  },
  "hex": "0100000000010276e1995affc414486b0511e795d3b4cec9e082eb9f4a2fa69ec517ebb0d65c480100000000ffffffffc6545267d8708e45068cbefec0ca44be3cfdfbedf13e81cc8b6f33dd947ddf440000000000ffffffff029a04a60000000000160014467ebaf2c91d95e8b458c7c950d2018272754a19b418bc000000000016001414bc99c207609319df9c7a89f27265b0eb88c858024730440220781cdfc4131e44acb080d4352069647ab32c90e8b27471182c215d38fc3a4d5a022035edd4cf7570e6d91f30689edc02907a7974e19464f12091f6e4bba106e37f8201210386de3f1b1c62ded63c0825f074e37c969921a7c825b350d19d8673f008c8e8ea0247304402207f1c16c0bc468ffd18f7c4cf3244a91a41df3675a6878625eb434fff169ff6f2022054fe8dbea1c8afa8eef481babc0f1a92aea34b72151fc8833a138075a6af4f780121029ca4dc952489c977f641cfe634547ef225fa4e63cec67d6be5508e4c8329c9ae00000000"
}