{
  "txid": "5e15038450230e341439bbe081764ce21564632d292c834fb44107075458b0e0",
  "version": 2,
  "locktime": 0,
  "vin": [
    {
      "txid": "3cc222bdd2af976d1911c84fb44a55f4510ba2b6a3bcdef06a9bb0490312d2f3",
      "vout": 1,
      "prevout": {
        "scriptpubkey": "0014074382000e04ac6ae9168880580bc70cb9b455e2",
        "scriptpubkey_asm": "OP_0 OP_PUSHBYTES_20 074382000e04ac6ae9168880580bc70cb9b455e2",
        "scriptpubkey_type": "v0_p2wpkh",
        "scriptpubkey_address": "bc1qqapcyqqwqjkx46gk3zq9sz78pjumg40zaqxp0t",
        "value": 20506
      },
      "scriptsig": "",
      "scriptsig_asm": "",
      "witness": [
        "3044022013750a46b9b0f5ee6e5fe0886203ac1adfabab14f0662eea4a0a5d53582b96c4022059493dbf1d0823be9459318c9222e4da9962c4ba094fb5c47f7fca014249f59201",
        "027ba6d0caf28573ec2858f0e508f8d9402bcb2938015e25cea61ca001991bbfd5"
      ],
      "is_coinbase": false,
      "sequence": 4294967295
    }
  ],
  "vout": [
    {
      "scriptpubkey": "6a2a47aa250435d877670806dac8c400c300ed7cab64ce0939d23b70cc58cb5f2b48df910033b54e61bc6a34",
      "scriptpubkey_asm": "OP_RETURN OP_PUSHBYTES_42 47aa250435d877670806dac8c400c300ed7cab64ce0939d23b70cc58cb5f2b48df910033b54e61bc6a34",
      "scriptpubkey_type": "op_return",
      "value": 0
    },
    {
      "scriptpubkey": "0014074382000e04ac6ae9168880580bc70cb9b455e2",
      "scriptpubkey_asm": "OP_0 OP_PUSHBYTES_20 074382000e04ac6ae9168880580bc70cb9b455e2",
      "scriptpubkey_type": "v0_p2wpkh",
      "scriptpubkey_address": "bc1qqapcyqqwqjkx46gk3zq9sz78pjumg40zaqxp0t",
      "value": 18801
    }
  ],
  "size": 244,
  "weight": 649,
  "fee": 1705,
  "status": {
    "confirmed": true,
    "block_height": 834464,
    "block_hash": "0000000000000000000177a0869a911a2b65c9bdcd5a8bcb02b68f305bee848e",
    "block_time": 1710308296
  },
  "hex": "02000000000101f3d2120349b09b6af0debca3b6a20b51f4554ab44fc811196d97afd2bd22c23c0100000000ffffffff0200000000000000002c6a2a47aa250435d877670806dac8c400c300ed7cab64ce0939d23b70cc58cb5f2b48df910033b54e61bc6a347149000000000000160014074382000e04ac6ae9168880580bc70cb9b455e202473044022013750a46b9b0f5ee6e5fe0886203ac1adfabab14f0662eea4a0a5d53582b96c4022059493dbf1d0823be9459318c9222e4da9962c4ba094fb5c47f7fca014249f5920121027ba6d0caf28573ec2858f0e508f8d9402bcb2938015e25cea61ca001991bbfd500000000"
}