{
  "txid": "5e18ae53b3f462710671bbda695561fac63793ba0d9d85ca1447550747d7d0c1",
  "version": 2,
  "locktime": 0,
  "vin": [
    {
      "txid": "246d654c08ac53d370d501753f3ac2c90861e2c8cea715ed4b7554841cced399",
      "vout": 83,
      "prevout": {
        "scriptpubkey": "5120bb96aca5a98d22a77eef2d5370e325ed7696f23f4a21c4704917d2426c509b02",
        "scriptpubkey_asm": "OP_PUSHNUM_1 OP_PUSHBYTES_32 bb96aca5a98d22a77eef2d5370e325ed7696f23f4a21c4704917d2426c509b02",
        "scriptpubkey_type": "v1_p2tr",
        "scriptpubkey_address": "bc1phwt2efdf3532wlh094fhpce9a4mfdu3lfgsuguzfzlfyymzsnvpqmnxhsm",
        "value": 3055
      },
      "scriptsig": "",
      "scriptsig_asm": "",
      "witness": [
        "3b8103cdfdaa08b9cbd7b53d5017a0a808fd5251d01d973d0958f02db62c00dda0b6cc6644f2d6929331af41dcef42ec144e35f96498611a12c29ddceb2b136b",
        "20b245ace04a1a1deeeba32fea668736f448007ded8e287d282e43ca865f3d8595ac0063036f726401011e6170706c69636174696f6e2f6a736f6e3b636861727365743d7574662d38004cd37b2270223a22706f772d3230222c226f70223a226d696e74222c227469636b223a2250455045222c22616d74223a2231303030222c22736f6c7574696f6e223a22504550453a62633170756a666d33753333656e70786b38383339796c6b3239323239396b6e6467686c717468396e39647a6c7663647635617076366a717732776e71663a303030303030303030303030303030303030303139393431613561653132383937363539383134343239323533333030353762306461393666336465613163353a3631343535353338343930227d68",
        "c0f4929cb66946e40c5d3e5e2b126f88b9a6070d7490abd3aa8e42bf5bbcfe7b9f"
      ],
      "is_coinbase": false,
      "sequence": 4294967295
    }
  ],
  "vout": [
    {
      "scriptpubkey": "5120e493b8f231ccc26b1cf1293f65154a296d36a2ff02ee5995a2fb30d653a166a4",
      "scriptpubkey_asm": "OP_PUSHNUM_1 OP_PUSHBYTES_32 e493b8f231ccc26b1cf1293f65154a296d36a2ff02ee5995a2fb30d653a166a4",
      "scriptpubkey_type": "v1_p2tr",
      "scriptpubkey_address": "bc1pujfm3u33enpxk8839ylk292299kndghlqth9n9dzlvcdv5apv6jqw2wnqf",
      "value": 546
    }
  ],
  "size": 487,
  "weight": 769,
  "fee": 2509,
  "status": {
    "confirmed": true,
    "block_height": 834460,
    "block_hash": "00000000000000000000484a79b643b2524bbce82e5d8a442013fa5b8905ed98",
    "block_time": 1710307468
  },
  "hex": "0200000000010199d3ce1c8454754bed15a7cec8e26108c9c23a3f7501d570d353ac084c656d245300000000ffffffff012202000000000000225120e493b8f231ccc26b1cf1293f65154a296d36a2ff02ee5995a2fb30d653a166a403403b8103cdfdaa08b9cbd7b53d5017a0a808fd5251d01d973d0958f02db62c00dda0b6cc6644f2d6929331af41dcef42ec144e35f96498611a12c29ddceb2b136bfd200120b245ace04a1a1deeeba32fea668736f448007ded8e287d282e43ca865f3d8595ac0063036f726401011e6170706c69636174696f6e2f6a736f6e3b636861727365743d7574662d38004cd37b2270223a22706f772d3230222c226f70223a226d696e74222c227469636b223a2250455045222c22616d74223a2231303030222c22736f6c7574696f6e223a22504550453a62633170756a666d33753333656e70786b38383339796c6b3239323239396b6e6467686c717468396e39647a6c7663647635617076366a717732776e71663a303030303030303030303030303030303030303139393431613561653132383937363539383134343239323533333030353762306461393666336465613163353a3631343535353338343930227d6821c0f4929cb66946e40c5d3e5e2b126f88b9a6070d7490abd3aa8e42bf5bbcfe7b9f00000000"
}