{
  "txid": "5e1b8541313249e161e4cdfd13e9b012d3a399b60c1f346456d36aa169fc30cf",
  "version": 2,
  "locktime": 0,
  "vin": [
    {
      "txid": "0b0d7129bec15e31c56f395e3459047e31c30f28084ceb9ef9f328593d2d0a05",
      "vout": 0,
      "prevout": {
        "scriptpubkey": "00144779200e57aa02252a778b65c66a67ee7efedf6d",
        "scriptpubkey_asm": "OP_0 OP_PUSHBYTES_20 4779200e57aa02252a778b65c66a67ee7efedf6d",
        "scriptpubkey_type": "v0_p2wpkh",
        "scriptpubkey_address": "bc1qgaujqrjh4gpz22nh3djuv6n8ael0ahmd3lns0u",
        "value": 952161
      },
      "scriptsig": "",
      "scriptsig_asm": "",
      "witness": [
        "304402206de321fe33ae1c207bd69f081a0e24b614c8e2004912c8731a36a64d44ad7f0c0220402cab8ec64173250780e14adfe402fc9fb3796808ca14d3185412d0b244586501",
        "03edba69ca1adb16fefc7087e7d91e2cf2213b7020093e7a1365724b864c761869"
      ],
      "is_coinbase": false,
      "sequence": 2147483648
    }
  ],
  "vout": [
    {
      "scriptpubkey": "0014af7a1e8841eb385a1f21cb0919d1105e12a39a81",
      "scriptpubkey_asm": "OP_0 OP_PUSHBYTES_20 af7a1e8841eb385a1f21cb0919d1105e12a39a81",
      "scriptpubkey_type": "v0_p2wpkh",
      "scriptpubkey_address": "bc1q4aapazzpavu958epevy3n5gstcf28x5pgq09kl",
      "value": 408864
    },
    {
      "scriptpubkey": "0014fee2ddf1fc08f49f39a2976319b5a6d093ee426f",
      "scriptpubkey_asm": "OP_0 OP_PUSHBYTES_20 fee2ddf1fc08f49f39a2976319b5a6d093ee426f",
      "scriptpubkey_type": "v0_p2wpkh",
      "scriptpubkey_address": "bc1qlm3dmu0upr6f7wdzja33nddx6zf7usn0m6s6pf",
      "value": 541107
    }
  ],
  "size": 222,
  "weight": 561,
  "fee": 2190,
  "status": {
    "confirmed": true,
    "block_height": 834638,
    "block_hash": "000000000000000000025f742c626208ac87e0b7d15054abb4a19ca2d735a54e",
    "block_time": 1710405325
  },
  "hex": "02000000000101050a2d3d5928f3f99eeb4c08280fc3317e0459345e396fc5315ec1be29710d0b00000000000000008002203d060000000000160014af7a1e8841eb385a1f21cb0919d1105e12a39a81b341080000000000160014fee2ddf1fc08f49f39a2976319b5a6d093ee426f0247304402206de321fe33ae1c207bd69f081a0e24b614c8e2004912c8731a36a64d44ad7f0c0220402cab8ec64173250780e14adfe402fc9fb3796808ca14d3185412d0b2445865012103edba69ca1adb16fefc7087e7d91e2cf2213b7020093e7a1365724b864c76186900000000"
}