{
  "txid": "5e1c71de443e12f56b486c4f6962ca875c8378845cb80c5082314dc4319a25ba",
  "version": 1,
  "locktime": 0,
  "vin": [
    {
      "txid": "bf9ed75c9c772db0911583d0d3d31e66346fcb75ad5bd5fad4798a1182a3efc6",
      "vout": 1,
      "prevout": {
        "scriptpubkey": "0014da8628ca48f670fc33ded698325821366a196444",
        "scriptpubkey_asm": "OP_0 OP_PUSHBYTES_20 da8628ca48f670fc33ded698325821366a196444",
        "scriptpubkey_type": "v0_p2wpkh",
        "scriptpubkey_address": "bc1qm2rz3jjg7ec0cv7766vrykppxe4pjezyxf4e7v",
        "value": 18193381
      },
      "scriptsig": "",
      "scriptsig_asm": "",
      "witness": [
        "304402205529c44c03e9f6facfc28f35e8db77ff3bdf2152fd07612bac7feb1a314753c8022066f2b802cab37e431e5af5472ee7ad39a72eabc4701afd2c8403e44fe3a8207401",
        "0236f625cdb44c251d46f7d32f7c094e1c65cf6b898d97b5c9dfc2c16cf7871017"
      ],
      "is_coinbase": false,
      "sequence": 4294967295
    }
  ],
  "vout": [
    {
      "scriptpubkey": "002000e1ffa2a89392a9639d99dc621126cef50ee86369e1e6aaa4504ef3aa10775d",
      "scriptpubkey_asm": "OP_0 OP_PUSHBYTES_32 00e1ffa2a89392a9639d99dc621126cef50ee86369e1e6aaa4504ef3aa10775d",
      "scriptpubkey_type": "v0_p2wsh",
      "scriptpubkey_address": "bc1qqrsllg4gjwf2jcuan8wxyyfxem6sa6rrd8s7d24y2p8082sswawsqjc7nm",
      "value": 135900
    },
    {
      "scriptpubkey": "0014e7ee717cb380cf542f0c4749f20deda7e65ab4c3",
      "scriptpubkey_asm": "OP_0 OP_PUSHBYTES_20 e7ee717cb380cf542f0c4749f20deda7e65ab4c3",
      "scriptpubkey_type": "v0_p2wpkh",
      "scriptpubkey_address": "bc1qulh8zl9nsr84gtcvgaylyr0d5ln94dxrhw0k0g",
      "value": 18053535
    }
  ],
  "size": 234,
  "weight": 609,
  "fee": 3946,
  "status": {
    "confirmed": true,
    "block_height": 834638,
    "block_hash": "000000000000000000025f742c626208ac87e0b7d15054abb4a19ca2d735a54e",
    "block_time": 1710405325
  },
  "hex": "01000000000101c6efa382118a79d4fad55bad75cb6f34661ed3d3d0831591b02d779c5cd79ebf0100000000ffffffff02dc1202000000000022002000e1ffa2a89392a9639d99dc621126cef50ee86369e1e6aaa4504ef3aa10775d9f79130100000000160014e7ee717cb380cf542f0c4749f20deda7e65ab4c30247304402205529c44c03e9f6facfc28f35e8db77ff3bdf2152fd07612bac7feb1a314753c8022066f2b802cab37e431e5af5472ee7ad39a72eabc4701afd2c8403e44fe3a8207401210236f625cdb44c251d46f7d32f7c094e1c65cf6b898d97b5c9dfc2c16cf787101700000000"
}