{
  "txid": "5e3d459986161589455cf0b7e112212fa173fbf20f65bf1f4588338e2b05620c",
  "version": 1,
  "locktime": 0,
  "vin": [
    {
      "txid": "4bc8885e02aae8662c1717a198a5b5e567ec210c963d7e773b2e0d0d38d252dd",
      "vout": 0,
      "prevout": {
        "scriptpubkey": "512040ae294f025451e57c3e4de6e3e48fc4656c81ea3ea41b974485709e27f1c028",
        "scriptpubkey_asm": "OP_PUSHNUM_1 OP_PUSHBYTES_32 40ae294f025451e57c3e4de6e3e48fc4656c81ea3ea41b974485709e27f1c028",
        "scriptpubkey_type": "v1_p2tr",
        "scriptpubkey_address": "bc1pgzhzjncz23g72lp7fhnw8ey0c3jkeq0286jph96ys4cfufl3cq5qryemkd",
        "value": 1986766
      },
      "scriptsig": "",
      "scriptsig_asm": "",
      "witness": [
        "53c00bf546321ed270bac37cd9dfef3bb24546c1e5e11b75017b46259a091e77f11eb5ee8d431d7076c259ad751a2898b630275c9621b609a8f2d7553cfa5910"
      ],
      "is_coinbase": false,
      "sequence": 4294967293
    }
  ],
  "vout": [
    {
      "scriptpubkey": "0014acaea175b0281c224b346ffcfc447b6430956cea",
      "scriptpubkey_asm": "OP_0 OP_PUSHBYTES_20 acaea175b0281c224b346ffcfc447b6430956cea",
      "scriptpubkey_type": "v0_p2wpkh",
      "scriptpubkey_address": "bc1q4jh2zads9qwzyje5dl70c3rmvscf2m82ewyats",
      "value": 1984435
    }
  ],
  "size": 150,
  "weight": 396,
  "fee": 2331,
  "status": {
    "confirmed": true,
    "block_height": 834638,
    "block_hash": "000000000000000000025f742c626208ac87e0b7d15054abb4a19ca2d735a54e",
    "block_time": 1710405325
  },
  "hex": "01000000000101dd52d2380d0d2e3b777e3d960c21ec67e5b5a598a117172c66e8aa025e88c84b0000000000fdffffff01b3471e0000000000160014acaea175b0281c224b346ffcfc447b6430956cea014053c00bf546321ed270bac37cd9dfef3bb24546c1e5e11b75017b46259a091e77f11eb5ee8d431d7076c259ad751a2898b630275c9621b609a8f2d7553cfa591000000000"
}