{
  "txid": "5e4264597a493f7a3ec9c66f6d4f820d0b3b5d645f7a6d94051c72266db25bae",
  "version": 1,
  "locktime": 0,
  "vin": [
    {
      "txid": "b7e253866025226a85b8dd47813c960c31f986df3e8cccce5ffdefee372d7744",
      "vout": 1,
      "prevout": {
        "scriptpubkey": "0014ea883c02c398aff066876410e96029a3c3bc8333",
        "scriptpubkey_asm": "OP_0 OP_PUSHBYTES_20 ea883c02c398aff066876410e96029a3c3bc8333",
        "scriptpubkey_type": "v0_p2wpkh",
        "scriptpubkey_address": "bc1qa2yrcqkrnzhlqe58vsgwjcpf50pmeqencyypj6",
        "value": 79953658
      },
      "scriptsig": "",
      "scriptsig_asm": "",
      "witness": [
        "3044022043b51a72a7ab6db01858e7b7de38738186f9cc1d2bdf8e9a272aa9826f9b276f022052fbd8cefd476d6995f24562c98fe100b88a984aad991dbf0d3004e23d5df24b01",
        "02441983251e1ca57f94427a9ff80ef576054694f026a3db1b31442c72aa60be1f"
      ],
      "is_coinbase": false,
      "sequence": 4294967295
    }
  ],
  "vout": [
    {
      "scriptpubkey": "a91492c7d0a7550d0d5b1f6a96b92ad85209dea8703987",
      "scriptpubkey_asm": "OP_HASH160 OP_PUSHBYTES_20 92c7d0a7550d0d5b1f6a96b92ad85209dea87039 OP_EQUAL",
      "scriptpubkey_type": "p2sh",
      "scriptpubkey_address": "3F57wwiqumVikUYRrGmhirygUXrqEK7H3s",
      "value": 50000000
    },
    {
      "scriptpubkey": "001446c67aa9ee678b2181a21cd53f1cdeb94fef528c",
      "scriptpubkey_asm": "OP_0 OP_PUSHBYTES_20 46c67aa9ee678b2181a21cd53f1cdeb94fef528c",
      "scriptpubkey_type": "v0_p2wpkh",
      "scriptpubkey_address": "bc1qgmr8420wv79jrqdzrn2n78x7h987755vkcspyw",
      "value": 29949837
    }
  ],
  "size": 223,
  "weight": 565,
  "fee": 3821,
  "status": {
    "confirmed": true,
    "block_height": 834638,
    "block_hash": "000000000000000000025f742c626208ac87e0b7d15054abb4a19ca2d735a54e",
    "block_time": 1710405325
  },
  "hex": "0100000000010144772d37eeeffd5fcecc8c3edf86f9310c963c8147ddb8856a2225608653e2b70100000000ffffffff0280f0fa020000000017a91492c7d0a7550d0d5b1f6a96b92ad85209dea87039878dffc8010000000016001446c67aa9ee678b2181a21cd53f1cdeb94fef528c02473044022043b51a72a7ab6db01858e7b7de38738186f9cc1d2bdf8e9a272aa9826f9b276f022052fbd8cefd476d6995f24562c98fe100b88a984aad991dbf0d3004e23d5df24b012102441983251e1ca57f94427a9ff80ef576054694f026a3db1b31442c72aa60be1f00000000"
}