{
  "txid": "5e451cdfe1614ecd48f73d93f767d651686985c7a6bbd033a4325b76c5a9750e",
  "version": 1,
  "locktime": 0,
  "vin": [
    {
      "txid": "4d61ac3b3d950d941d3792d7191b5685b666b14c21c28ab5d698286f10bab81c",
      "vout": 1,
      "prevout": {
        "scriptpubkey": "00144f6ffbf30aec8f5d4722c4c41797a7a08d36c175",
        "scriptpubkey_asm": "OP_0 OP_PUSHBYTES_20 4f6ffbf30aec8f5d4722c4c41797a7a08d36c175",
        "scriptpubkey_type": "v0_p2wpkh",
        "scriptpubkey_address": "bc1qfahlhuc2aj8463ezcnzp09a85zxndst4u3z8pk",
        "value": 236301
      },
      "scriptsig": "",
      "scriptsig_asm": "",
      "witness": [
        "3045022100963904b650fda4d353bca68b7c77498118ff2bd2b86202de0ebb3ad61b44ec6b022048b8db9c28681d0fb32e8120d86349df4fda865c18ba517fb55e752c906f2cb301",
        "03652abd916a230469af0331e369cf5ef6cd8132369063fc914891e85cad3a9ba6"
      ],
      "is_coinbase": false,
      "sequence": 4294967295
    }
  ],
  "vout": [
    {
      "scriptpubkey": "a9144809b90a66dfa3479ace39ca1585871f75c7914487",
      "scriptpubkey_asm": "OP_HASH160 OP_PUSHBYTES_20 4809b90a66dfa3479ace39ca1585871f75c79144 OP_EQUAL",
      "scriptpubkey_type": "p2sh",
      "scriptpubkey_address": "38FvDuegqBTUPjxtRX61RxBVz2JZV61gZX",
      "value": 50000
    },
    {
      "scriptpubkey": "00144f6ffbf30aec8f5d4722c4c41797a7a08d36c175",
      "scriptpubkey_asm": "OP_0 OP_PUSHBYTES_20 4f6ffbf30aec8f5d4722c4c41797a7a08d36c175",
      "scriptpubkey_type": "v0_p2wpkh",
      "scriptpubkey_address": "bc1qfahlhuc2aj8463ezcnzp09a85zxndst4u3z8pk",
      "value": 182467
    }
  ],
  "size": 224,
  "weight": 566,
  "fee": 3834,
  "status": {
    "confirmed": true,
    "block_height": 834638,
    "block_hash": "000000000000000000025f742c626208ac87e0b7d15054abb4a19ca2d735a54e",
    "block_time": 1710405325
  },
  "hex": "010000000001011cb8ba106f2898d6b58ac2214cb166b685561b19d792371d940d953d3bac614d0100000000ffffffff0250c300000000000017a9144809b90a66dfa3479ace39ca1585871f75c7914487c3c80200000000001600144f6ffbf30aec8f5d4722c4c41797a7a08d36c17502483045022100963904b650fda4d353bca68b7c77498118ff2bd2b86202de0ebb3ad61b44ec6b022048b8db9c28681d0fb32e8120d86349df4fda865c18ba517fb55e752c906f2cb3012103652abd916a230469af0331e369cf5ef6cd8132369063fc914891e85cad3a9ba600000000"
}