{
  "txid": "5e4ac34932f5d1acca2d23193b4379f611e1dd161703c8611b89fe6cea99b6d7",
  "version": 2,
  "locktime": 0,
  "vin": [
    {
      "txid": "acc3ba00869acb582a3f2904ce3a11dd3779350ce234063fc7d0959246213364",
      "vout": 256,
      "prevout": {
        "scriptpubkey": "51207dba8b9d67c8f06b84fa31abb06f463b863ea34747b0a6fee622cf818dc76fa2",
        "scriptpubkey_asm": "OP_PUSHNUM_1 OP_PUSHBYTES_32 7dba8b9d67c8f06b84fa31abb06f463b863ea34747b0a6fee622cf818dc76fa2",
        "scriptpubkey_type": "v1_p2tr",
        "scriptpubkey_address": "bc1p0kagh8t8ercxhp86xx4mqm6x8wrrag68g7c2dlhxyt8crrw8d73qhqexf8",
        "value": 1806
      },
      "scriptsig": "",
      "scriptsig_asm": "",
      "witness": [
        "58ded9687236e48eb43990bc5a55ed05416e09f63de5901f5504758d01ffaa02f3b3f327f5aa71a931cb272a58630fefa9b6af56bfad69fa6384b204dfa03b7f",
        "207bb593baea03e08dbb5547a8a9e46b69be782b2c8685edfd8f3aed204689981aac0063036f726401010a746578742f706c61696e00357b2270223a226272632d3230222c226f70223a226d696e74222c227469636b223a22646f6765222c22616d74223a2234323030227d68",
        "c17bb593baea03e08dbb5547a8a9e46b69be782b2c8685edfd8f3aed204689981a"
      ],
      "is_coinbase": false,
      "sequence": 4261412863
    }
  ],
  "vout": [
    {
      "scriptpubkey": "00147a665de7a370f4c9b372ab1fae587500a5bcbdb4",
      "scriptpubkey_asm": "OP_0 OP_PUSHBYTES_20 7a665de7a370f4c9b372ab1fae587500a5bcbdb4",
      "scriptpubkey_type": "v0_p2wpkh",
      "scriptpubkey_address": "bc1q0fn9mearwr6vnvmj4v06ukr4qzjme0d565dzcx",
      "value": 294
    }
  ],
  "size": 294,
  "weight": 540,
  "fee": 1512,
  "status": {
    "confirmed": true,
    "block_height": 834460,
    "block_hash": "00000000000000000000484a79b643b2524bbce82e5d8a442013fa5b8905ed98",
    "block_time": 1710307468
  },
  "hex": "02000000000101643321469295d0c73f0634e20c357937dd113ace04293f2a58cb9a8600bac3ac0001000000fffffffd0126010000000000001600147a665de7a370f4c9b372ab1fae587500a5bcbdb4034058ded9687236e48eb43990bc5a55ed05416e09f63de5901f5504758d01ffaa02f3b3f327f5aa71a931cb272a58630fefa9b6af56bfad69fa6384b204dfa03b7f6d207bb593baea03e08dbb5547a8a9e46b69be782b2c8685edfd8f3aed204689981aac0063036f726401010a746578742f706c61696e00357b2270223a226272632d3230222c226f70223a226d696e74222c227469636b223a22646f6765222c22616d74223a2234323030227d6821c17bb593baea03e08dbb5547a8a9e46b69be782b2c8685edfd8f3aed204689981a00000000"
}