{
  "txid": "5e6788083f740e845776fd8276d561ae7ebf42da2babf63099a17831457cad60",
  "version": 2,
  "locktime": 0,
  "vin": [
    {
      "txid": "b13bb5512a4904c28a6b7957b88edf574e8cb23551fc1dcfe22d6b239df42cf4",
      "vout": 47,
      "prevout": {
        "scriptpubkey": "51200cd60f349df398f544e364cdb55752c53adf3913afa9c7fa290d0f2323478a68",
        "scriptpubkey_asm": "OP_PUSHNUM_1 OP_PUSHBYTES_32 0cd60f349df398f544e364cdb55752c53adf3913afa9c7fa290d0f2323478a68",
        "scriptpubkey_type": "v1_p2tr",
        "scriptpubkey_address": "bc1ppntq7dya7wv0238rvnxm246jc5ad7wgn475u073fp58jxg683f5qws4hsq",
        "value": 2575
      },
      "scriptsig": "",
      "scriptsig_asm": "",
      "witness": [
        "0603998bd5c866eea8316301e001cd83c1915fb908a3314af1026f87ec71e6f04cb0007357985d780035f5ccc69592b912dbb89232ad4099f04ae50c6eb18f88",
        "206049b5cad0b844b9b0fe1d23a1aed580a1e2d14bfa7cbfeff6403eac6b3b9387ac0063036f726401010a746578742f706c61696e00367b2270223a226272632d3230222c226f70223a226d696e74222c227469636b223a2261616161222c22616d74223a223130303030227d68",
        "c06049b5cad0b844b9b0fe1d23a1aed580a1e2d14bfa7cbfeff6403eac6b3b9387"
      ],
      "is_coinbase": false,
      "sequence": 4261412863
    }
  ],
  "vout": [
    {
      "scriptpubkey": "0014ce0b5aa0dac72397a8aa5a85d90a2cfb46f0f630",
      "scriptpubkey_asm": "OP_0 OP_PUSHBYTES_20 ce0b5aa0dac72397a8aa5a85d90a2cfb46f0f630",
      "scriptpubkey_type": "v0_p2wpkh",
      "scriptpubkey_address": "bc1qec944gx6cu3e0292t2zajz3vldr0pa3sh356d9",
      "value": 546
    }
  ],
  "size": 295,
  "weight": 541,
  "fee": 2029,
  "status": {
    "confirmed": true,
    "block_height": 834464,
    "block_hash": "0000000000000000000177a0869a911a2b65c9bdcd5a8bcb02b68f305bee848e",
    "block_time": 1710308296
  },
  "hex": "02000000000101f42cf49d236b2de2cf1dfc5135b28c4e57df8eb857796b8ac204492a51b53bb12f00000000fffffffd012202000000000000160014ce0b5aa0dac72397a8aa5a85d90a2cfb46f0f63003400603998bd5c866eea8316301e001cd83c1915fb908a3314af1026f87ec71e6f04cb0007357985d780035f5ccc69592b912dbb89232ad4099f04ae50c6eb18f886e206049b5cad0b844b9b0fe1d23a1aed580a1e2d14bfa7cbfeff6403eac6b3b9387ac0063036f726401010a746578742f706c61696e00367b2270223a226272632d3230222c226f70223a226d696e74222c227469636b223a2261616161222c22616d74223a223130303030227d6821c06049b5cad0b844b9b0fe1d23a1aed580a1e2d14bfa7cbfeff6403eac6b3b938700000000"
}