{
  "txid": "5e7ebf071b1d7b76d502be1580c1e58dfd274b74b17b9e5e510f1afa1c369c6a",
  "version": 2,
  "locktime": 0,
  "vin": [
    {
      "txid": "0297933275e9b87a592b5fe50eac2574def18b5ac071aa88b863986e7db5e3d6",
      "vout": 4,
      "prevout": {
        "scriptpubkey": "5120436c7aef2b4b1f047086562b8878850eaf41ce644b989f1c001f2906c82a38d3",
        "scriptpubkey_asm": "OP_PUSHNUM_1 OP_PUSHBYTES_32 436c7aef2b4b1f047086562b8878850eaf41ce644b989f1c001f2906c82a38d3",
        "scriptpubkey_type": "v1_p2tr",
        "scriptpubkey_address": "bc1pgdk84metfv0sguyx2c4cs7y9p6h5rnnyfwvf78qqru5sdjp28rfs87eaek",
        "value": 3186
      },
      "scriptsig": "",
      "scriptsig_asm": "",
      "witness": [
        "43bf378856505601295478ff5fb979980d9d00d054b2b5056f33ca26797056aaac4f1d5c131203d88c7cfd6e075e61fc8a6bc1f5d80dd12adc29b8c7b3dea729",
        "205b0753c295cb8cc657ab5b120bd58fecc1e3aea56c076519a1cad6589690aba1ac0063036f726401011e6170706c69636174696f6e2f6a736f6e3b636861727365743d7574662d38004cbf7b2270223a22706f772d3230222c226f70223a226d696e74222c227469636b223a2250455045222c22616d74223a2231303030222c22736f6c7574696f6e223a22504550453a6263317171633839726a7563797a776c77786d7761646c7763797139353668726e726b6a6833637361723a303030303030303030303030303030303030303139393431613561653132383937363539383134343239323533333030353762306461393666336465613163353a3236363631303435373033227d68",
        "c1ebc23c5cb62efa16bafbb201dcb9689a89d3be5df33e83929d6fd8751a90bb42"
      ],
      "is_coinbase": false,
      "sequence": 4294967295
    }
  ],
  "vout": [
    {
      "scriptpubkey": "0014060e51cb98209df71b6eeb7eec1005a6ae398ed2",
      "scriptpubkey_asm": "OP_0 OP_PUSHBYTES_20 060e51cb98209df71b6eeb7eec1005a6ae398ed2",
      "scriptpubkey_type": "v0_p2wpkh",
      "scriptpubkey_address": "bc1qqc89rjucyzwlwxmwadlwcyq956hrnrkjh3csar",
      "value": 546
    }
  ],
  "size": 455,
  "weight": 701,
  "fee": 2640,
  "status": {
    "confirmed": true,
    "block_height": 834460,
    "block_hash": "00000000000000000000484a79b643b2524bbce82e5d8a442013fa5b8905ed98",
    "block_time": 1710307468
  },
  "hex": "02000000000101d6e3b57d6e9863b888aa71c05a8bf1de7425ac0ee55f2b597ab8e975329397020400000000ffffffff012202000000000000160014060e51cb98209df71b6eeb7eec1005a6ae398ed2034043bf378856505601295478ff5fb979980d9d00d054b2b5056f33ca26797056aaac4f1d5c131203d88c7cfd6e075e61fc8a6bc1f5d80dd12adc29b8c7b3dea729fd0c01205b0753c295cb8cc657ab5b120bd58fecc1e3aea56c076519a1cad6589690aba1ac0063036f726401011e6170706c69636174696f6e2f6a736f6e3b636861727365743d7574662d38004cbf7b2270223a22706f772d3230222c226f70223a226d696e74222c227469636b223a2250455045222c22616d74223a2231303030222c22736f6c7574696f6e223a22504550453a6263317171633839726a7563797a776c77786d7761646c7763797139353668726e726b6a6833637361723a303030303030303030303030303030303030303139393431613561653132383937363539383134343239323533333030353762306461393666336465613163353a3236363631303435373033227d6821c1ebc23c5cb62efa16bafbb201dcb9689a89d3be5df33e83929d6fd8751a90bb4200000000"
}