{
  "txid": "5e8299e043d2565c857e542190b1192c9abd7e9f1d734ab1a09017d9b1188233",
  "version": 2,
  "locktime": 0,
  "vin": [
    {
      "txid": "73b0ab8fa084136a0ae34e0499cc19df222186c489ba63ac67b14c2c9cf3a26e",
      "vout": 9,
      "prevout": {
        "scriptpubkey": "a91402be1769d6bf0251b1268e02178bc4785a3f3c5687",
        "scriptpubkey_asm": "OP_HASH160 OP_PUSHBYTES_20 02be1769d6bf0251b1268e02178bc4785a3f3c56 OP_EQUAL",
        "scriptpubkey_type": "p2sh",
        "scriptpubkey_address": "31wWziLWwswrxpfkKt8WTDrvHVgceXkm4w",
        "value": 914000
      },
      "scriptsig": "16001497dbf8cb6bb7a2d24138856399abb06c275c08e8",
      "scriptsig_asm": "OP_PUSHBYTES_22 001497dbf8cb6bb7a2d24138856399abb06c275c08e8",
      "witness": [
        "304402200e2475c29de538cc7fdde5fd8940b9c43edd37d87bf5b90e010613855b68022202206dd5b5a00fd309af317809cf065065429a04013d5fa5263af89acbdb9b38688501",
        "03bea45197ac4be6b442dfa0ec22cd8c7b3a3f3622e712140959759a7dccd98898"
      ],
      "is_coinbase": false,
      "sequence": 4294967293,
      "inner_redeemscript_asm": "OP_0 OP_PUSHBYTES_20 97dbf8cb6bb7a2d24138856399abb06c275c08e8"
    }
  ],
  "vout": [
    {
      "scriptpubkey": "a91477bf92e0c13f895d012c7257f9a2e5abd8c8c55087",
      "scriptpubkey_asm": "OP_HASH160 OP_PUSHBYTES_20 77bf92e0c13f895d012c7257f9a2e5abd8c8c550 OP_EQUAL",
      "scriptpubkey_type": "p2sh",
      "scriptpubkey_address": "3CcBq9Zsp2ySjC9rBWYvDkYACftfqmgmAn",
      "value": 908137
    }
  ],
  "size": 215,
  "weight": 533,
  "fee": 5863,
  "status": {
    "confirmed": true,
    "block_height": 834460,
    "block_hash": "00000000000000000000484a79b643b2524bbce82e5d8a442013fa5b8905ed98",
    "block_time": 1710307468
  },
  "hex": "020000000001016ea2f39c2c4cb167ac63ba89c4862122df19cc99044ee30a6a1384a08fabb073090000001716001497dbf8cb6bb7a2d24138856399abb06c275c08e8fdffffff0169db0d000000000017a91477bf92e0c13f895d012c7257f9a2e5abd8c8c550870247304402200e2475c29de538cc7fdde5fd8940b9c43edd37d87bf5b90e010613855b68022202206dd5b5a00fd309af317809cf065065429a04013d5fa5263af89acbdb9b386885012103bea45197ac4be6b442dfa0ec22cd8c7b3a3f3622e712140959759a7dccd9889800000000"
}