{
  "txid": "5e8501f7444e6870f9d3de009c60c15862da53140a0a7babcb7d5a0bf96d9c1c",
  "version": 2,
  "locktime": 0,
  "vin": [
    {
      "txid": "b13bb5512a4904c28a6b7957b88edf574e8cb23551fc1dcfe22d6b239df42cf4",
      "vout": 57,
      "prevout": {
        "scriptpubkey": "51200ec6c25aae585a7b506481308f44a3fe2bf4b23f390e26eb5c242d349960bd47",
        "scriptpubkey_asm": "OP_PUSHNUM_1 OP_PUSHBYTES_32 0ec6c25aae585a7b506481308f44a3fe2bf4b23f390e26eb5c242d349960bd47",
        "scriptpubkey_type": "v1_p2tr",
        "scriptpubkey_address": "bc1ppmrvyk4wtpd8k5rysycg739rlc4lfv3l8y8zd66uysknfxtqh4rsl9tc53",
        "value": 2575
      },
      "scriptsig": "",
      "scriptsig_asm": "",
      "witness": [
        "909a46d4bde59bd05e38b9960707d9ba9c07bface9f4527ca3d32905bc5e1803cb0e7919037a27b16e02a0fd857cb36973b379a4b9050d625e01354461838826",
        "208788b56df6520c1b8c48865c0b14613e1cc1090af6e5b9c00d610820566fefddac0063036f726401010a746578742f706c61696e00367b2270223a226272632d3230222c226f70223a226d696e74222c227469636b223a2261616161222c22616d74223a223130303030227d68",
        "c08788b56df6520c1b8c48865c0b14613e1cc1090af6e5b9c00d610820566fefdd"
      ],
      "is_coinbase": false,
      "sequence": 4261412863
    }
  ],
  "vout": [
    {
      "scriptpubkey": "0014ce0b5aa0dac72397a8aa5a85d90a2cfb46f0f630",
      "scriptpubkey_asm": "OP_0 OP_PUSHBYTES_20 ce0b5aa0dac72397a8aa5a85d90a2cfb46f0f630",
      "scriptpubkey_type": "v0_p2wpkh",
      "scriptpubkey_address": "bc1qec944gx6cu3e0292t2zajz3vldr0pa3sh356d9",
      "value": 546
    }
  ],
  "size": 295,
  "weight": 541,
  "fee": 2029,
  "status": {
    "confirmed": true,
    "block_height": 834464,
    "block_hash": "0000000000000000000177a0869a911a2b65c9bdcd5a8bcb02b68f305bee848e",
    "block_time": 1710308296
  },
  "hex": "02000000000101f42cf49d236b2de2cf1dfc5135b28c4e57df8eb857796b8ac204492a51b53bb13900000000fffffffd012202000000000000160014ce0b5aa0dac72397a8aa5a85d90a2cfb46f0f6300340909a46d4bde59bd05e38b9960707d9ba9c07bface9f4527ca3d32905bc5e1803cb0e7919037a27b16e02a0fd857cb36973b379a4b9050d625e013544618388266e208788b56df6520c1b8c48865c0b14613e1cc1090af6e5b9c00d610820566fefddac0063036f726401010a746578742f706c61696e00367b2270223a226272632d3230222c226f70223a226d696e74222c227469636b223a2261616161222c22616d74223a223130303030227d6821c08788b56df6520c1b8c48865c0b14613e1cc1090af6e5b9c00d610820566fefdd00000000"
}