{
  "txid": "5e92e851331bed72c2f071622f935b13bc546052ab6bf1d93c4bedb1874e4ef2",
  "version": 2,
  "locktime": 0,
  "vin": [
    {
      "txid": "e961c4e54e13adb307c0163d0ad37c2658c90b318412d5166e465c311f9f9909",
      "vout": 3,
      "prevout": {
        "scriptpubkey": "001458e5a4cc5cbda53fc9b4f25859fb5e837f344ca7",
        "scriptpubkey_asm": "OP_0 OP_PUSHBYTES_20 58e5a4cc5cbda53fc9b4f25859fb5e837f344ca7",
        "scriptpubkey_type": "v0_p2wpkh",
        "scriptpubkey_address": "bc1qtrj6fnzuhkjnljd57fv9n767sdlngn98m2hrce",
        "value": 2026123
      },
      "scriptsig": "",
      "scriptsig_asm": "",
      "witness": [
        "3045022100c0d689052ef2bf3aeb2539c84fa80266a5efda764c5f2337b930b406cbab02cf02202644bf50017df953244d60f5985fbfe779e9f1ade1a700843c839dd7844ef99501",
        "03241e5fa93773e58cd990c251b9f198d333d3e317987bbe9ee340d59c338b637e"
      ],
      "is_coinbase": false,
      "sequence": 4294967295
    },
    {
      "txid": "791e90a415732c72d47addc2b8916d58b208c4fb497145d5a530a4b10e8e19f1",
      "vout": 3,
      "prevout": {
        "scriptpubkey": "001458e5a4cc5cbda53fc9b4f25859fb5e837f344ca7",
        "scriptpubkey_asm": "OP_0 OP_PUSHBYTES_20 58e5a4cc5cbda53fc9b4f25859fb5e837f344ca7",
        "scriptpubkey_type": "v0_p2wpkh",
        "scriptpubkey_address": "bc1qtrj6fnzuhkjnljd57fv9n767sdlngn98m2hrce",
        "value": 2077463
      },
      "scriptsig": "",
      "scriptsig_asm": "",
      "witness": [
        "3045022100a0fe1d415cfb6fce898d809e72f9a7558f6796e2f7fd107d9f6356df75ca3aa10220042fc5e9104ad09293c0c709d0afdb03d1da5b76f609d74521c60398ba72c28601",
        "03241e5fa93773e58cd990c251b9f198d333d3e317987bbe9ee340d59c338b637e"
      ],
      "is_coinbase": false,
      "sequence": 4294967295
    }
  ],
  "vout": [
    {
      "scriptpubkey": "001458e5a4cc5cbda53fc9b4f25859fb5e837f344ca7",
      "scriptpubkey_asm": "OP_0 OP_PUSHBYTES_20 58e5a4cc5cbda53fc9b4f25859fb5e837f344ca7",
      "scriptpubkey_type": "v0_p2wpkh",
      "scriptpubkey_address": "bc1qtrj6fnzuhkjnljd57fv9n767sdlngn98m2hrce",
      "value": 1678890
    },
    {
      "scriptpubkey": "00148f89d450ccb4b6314aca57dda2a8bef77df0d42d",
      "scriptpubkey_asm": "OP_0 OP_PUSHBYTES_20 8f89d450ccb4b6314aca57dda2a8bef77df0d42d",
      "scriptpubkey_type": "v0_p2wpkh",
      "scriptpubkey_address": "bc1q37yag5xvkjmrzjk22lw692977a7lp4pdmwgxgv",
      "value": 2420554
    }
  ],
  "size": 372,
  "weight": 834,
  "fee": 4142,
  "status": {
    "confirmed": true,
    "block_height": 834638,
    "block_hash": "000000000000000000025f742c626208ac87e0b7d15054abb4a19ca2d735a54e",
    "block_time": 1710405325
  },
  "hex": "0200000000010209999f1f315c466e16d51284310bc958267cd30a3d16c007b3ad134ee5c461e90300000000fffffffff1198e0eb1a430a5d5457149fbc408b2586d91b8c2dd7ad4722c7315a4901e790300000000ffffffff022a9e19000000000016001458e5a4cc5cbda53fc9b4f25859fb5e837f344ca74aef2400000000001600148f89d450ccb4b6314aca57dda2a8bef77df0d42d02483045022100c0d689052ef2bf3aeb2539c84fa80266a5efda764c5f2337b930b406cbab02cf02202644bf50017df953244d60f5985fbfe779e9f1ade1a700843c839dd7844ef995012103241e5fa93773e58cd990c251b9f198d333d3e317987bbe9ee340d59c338b637e02483045022100a0fe1d415cfb6fce898d809e72f9a7558f6796e2f7fd107d9f6356df75ca3aa10220042fc5e9104ad09293c0c709d0afdb03d1da5b76f609d74521c60398ba72c286012103241e5fa93773e58cd990c251b9f198d333d3e317987bbe9ee340d59c338b637e00000000"
}