{
  "txid": "5e9dad9498d8e9921a87d8ad814dd4e060da7e275a11d81acf0e396ca02aee5d",
  "version": 1,
  "locktime": 0,
  "vin": [
    {
      "txid": "4c717bf5e409d8d9ccfd8b5288eacb10020c278ae2ebe91dc771bc09e7d6c97b",
      "vout": 33,
      "prevout": {
        "scriptpubkey": "00141921ce06ed98f26e0218171a44b7cceb2de42560",
        "scriptpubkey_asm": "OP_0 OP_PUSHBYTES_20 1921ce06ed98f26e0218171a44b7cceb2de42560",
        "scriptpubkey_type": "v0_p2wpkh",
        "scriptpubkey_address": "bc1qrysuuphdnrexuqsczudyfd7vavk7gftq2fje8d",
        "value": 24306996
      },
      "scriptsig": "",
      "scriptsig_asm": "",
      "witness": [
        "3045022100f8883c244658c4f370fbede782201aef02aa5671b874aab6b1709055bac4399c022040215466f13c5ddf80eae743152b7e81f38748ff6858f902dddb5ca69b9dc58d01",
        "02072bd412dab6555e3b19f99d69981a313076f61ae3c14edccad30a31254a25e5"
      ],
      "is_coinbase": false,
      "sequence": 4294967295
    }
  ],
  "vout": [
    {
      "scriptpubkey": "a91475ea21fbd64fd6a6eedd8ed2d47b58044b38da1587",
      "scriptpubkey_asm": "OP_HASH160 OP_PUSHBYTES_20 75ea21fbd64fd6a6eedd8ed2d47b58044b38da15 OP_EQUAL",
      "scriptpubkey_type": "p2sh",
      "scriptpubkey_address": "3CSVTpJypcHUnbCDzL281h8PodzQCW7TKd",
      "value": 10700000
    },
    {
      "scriptpubkey": "00141921ce06ed98f26e0218171a44b7cceb2de42560",
      "scriptpubkey_asm": "OP_0 OP_PUSHBYTES_20 1921ce06ed98f26e0218171a44b7cceb2de42560",
      "scriptpubkey_type": "v0_p2wpkh",
      "scriptpubkey_address": "bc1qrysuuphdnrexuqsczudyfd7vavk7gftq2fje8d",
      "value": 13603162
    }
  ],
  "size": 224,
  "weight": 566,
  "fee": 3834,
  "status": {
    "confirmed": true,
    "block_height": 834638,
    "block_hash": "000000000000000000025f742c626208ac87e0b7d15054abb4a19ca2d735a54e",
    "block_time": 1710405325
  },
  "hex": "010000000001017bc9d6e709bc71c71de9ebe28a270c0210cbea88528bfdccd9d809e4f57b714c2100000000ffffffff02e044a3000000000017a91475ea21fbd64fd6a6eedd8ed2d47b58044b38da15875a91cf00000000001600141921ce06ed98f26e0218171a44b7cceb2de4256002483045022100f8883c244658c4f370fbede782201aef02aa5671b874aab6b1709055bac4399c022040215466f13c5ddf80eae743152b7e81f38748ff6858f902dddb5ca69b9dc58d012102072bd412dab6555e3b19f99d69981a313076f61ae3c14edccad30a31254a25e500000000"
}