{
  "txid": "5ea25149284da4afd4e658cea371f0766bcef153f49354e4267fc58bdbdf26aa",
  "version": 2,
  "locktime": 0,
  "vin": [
    {
      "txid": "a74026e81488bc8ed65781b5904edb3fd401d40e8892fa7c6d91a1cc66f02170",
      "vout": 9,
      "prevout": {
        "scriptpubkey": "51202691567e31e951fc72a28ebace6fd5ab716dd455e7b150eadfcadd03a9e37b0e",
        "scriptpubkey_asm": "OP_PUSHNUM_1 OP_PUSHBYTES_32 2691567e31e951fc72a28ebace6fd5ab716dd455e7b150eadfcadd03a9e37b0e",
        "scriptpubkey_type": "v1_p2tr",
        "scriptpubkey_address": "bc1py6g4vl33a9glcu4z36avum744dckm4z4u7c4p6kletws820r0v8qh8nknh",
        "value": 1962
      },
      "scriptsig": "",
      "scriptsig_asm": "",
      "witness": [
        "bd9ab8f3c1e1b1c3a91b56e81b4445c04a7c1a2ec9692d04fc7733aa8697827e0d6a277363b63e6c1da908c606ec57452fd49256343aaaf3efe5a121ff395a41",
        "20abf657ab0c1aabaa24896a8ab10adde8612397f1eb7067bdcd5d9371d70c2febac0063036f7264010118746578742f706c61696e3b636861727365743d7574662d3800367b2270223a226272632d3230222c226f70223a226d696e74222c227469636b223a2261616161222c22616d74223a223130303030227d68",
        "c1abf657ab0c1aabaa24896a8ab10adde8612397f1eb7067bdcd5d9371d70c2feb"
      ],
      "is_coinbase": false,
      "sequence": 4294967293
    }
  ],
  "vout": [
    {
      "scriptpubkey": "0014606aea6bcae8843bfa542b3231f709d8e8c47366",
      "scriptpubkey_asm": "OP_0 OP_PUSHBYTES_20 606aea6bcae8843bfa542b3231f709d8e8c47366",
      "scriptpubkey_type": "v0_p2wpkh",
      "scriptpubkey_address": "bc1qvp4w5672azzrh7j59verracfmr5vgumxtld8pd",
      "value": 294
    }
  ],
  "size": 309,
  "weight": 555,
  "fee": 1668,
  "status": {
    "confirmed": true,
    "block_height": 834460,
    "block_hash": "00000000000000000000484a79b643b2524bbce82e5d8a442013fa5b8905ed98",
    "block_time": 1710307468
  },
  "hex": "020000000001017021f066cca1916d7cfa92880ed401d43fdb4e90b58157d68ebc8814e82640a70900000000fdffffff012601000000000000160014606aea6bcae8843bfa542b3231f709d8e8c473660340bd9ab8f3c1e1b1c3a91b56e81b4445c04a7c1a2ec9692d04fc7733aa8697827e0d6a277363b63e6c1da908c606ec57452fd49256343aaaf3efe5a121ff395a417c20abf657ab0c1aabaa24896a8ab10adde8612397f1eb7067bdcd5d9371d70c2febac0063036f7264010118746578742f706c61696e3b636861727365743d7574662d3800367b2270223a226272632d3230222c226f70223a226d696e74222c227469636b223a2261616161222c22616d74223a223130303030227d6821c1abf657ab0c1aabaa24896a8ab10adde8612397f1eb7067bdcd5d9371d70c2feb00000000"
}