{
  "txid": "5ea528b6479a8d92140661d2907dc101fd1a8bbca74d49d9df6c65cc68cfb9b0",
  "version": 1,
  "locktime": 0,
  "vin": [
    {
      "txid": "892ac99de9efffb8790ee35510fcc34f87980d445eb4ac1cddd42dc01f93effa",
      "vout": 1,
      "prevout": {
        "scriptpubkey": "0014b37730494e222b70640a34b48135de7be3839b67",
        "scriptpubkey_asm": "OP_0 OP_PUSHBYTES_20 b37730494e222b70640a34b48135de7be3839b67",
        "scriptpubkey_type": "v0_p2wpkh",
        "scriptpubkey_address": "bc1qkdmnqj2wyg4hqeq2xj6gzdw7003c8xm8tf0h8d",
        "value": 617390379
      },
      "scriptsig": "",
      "scriptsig_asm": "",
      "witness": [
        "3045022100adb418a8f652a26d1d4f055099d5cd3e2a65b45c978239c53c0671cef7da59fd02205e477ae8d794de5c8fbcc50731668e9d5fcc154832018d32acd19e4f86a48a4401",
        "03bd9758ec2cd5ad89bff2d2f2595462028b43869e4fb3bfd68298639c4d06cd15"
      ],
      "is_coinbase": false,
      "sequence": 4294967295
    },
    {
      "txid": "0112433201659d58a096a9db311fa9d23eef66ebf81f8584b9fa29fdb89359c2",
      "vout": 1,
      "prevout": {
        "scriptpubkey": "0014b37730494e222b70640a34b48135de7be3839b67",
        "scriptpubkey_asm": "OP_0 OP_PUSHBYTES_20 b37730494e222b70640a34b48135de7be3839b67",
        "scriptpubkey_type": "v0_p2wpkh",
        "scriptpubkey_address": "bc1qkdmnqj2wyg4hqeq2xj6gzdw7003c8xm8tf0h8d",
        "value": 1149968270
      },
      "scriptsig": "",
      "scriptsig_asm": "",
      "witness": [
        "3045022100b78083999453be744faaf3e588f2c3c91c399165bfc79642f528aeda846a060c022047e3d72a602a2e3294403bfb3b8c143b19e87294965f438cb128cddeccdbef1e01",
        "03bd9758ec2cd5ad89bff2d2f2595462028b43869e4fb3bfd68298639c4d06cd15"
      ],
      "is_coinbase": false,
      "sequence": 4294967295
    }
  ],
  "vout": [
    {
      "scriptpubkey": "00149ee8a0e559ad1d92f0aa1bd077fdc9420a4f3c06",
      "scriptpubkey_asm": "OP_0 OP_PUSHBYTES_20 9ee8a0e559ad1d92f0aa1bd077fdc9420a4f3c06",
      "scriptpubkey_type": "v0_p2wpkh",
      "scriptpubkey_address": "bc1qnm52pe2e45we9u92r0g80lwfgg9y70qxq87sux",
      "value": 1000000000
    },
    {
      "scriptpubkey": "0014b37730494e222b70640a34b48135de7be3839b67",
      "scriptpubkey_asm": "OP_0 OP_PUSHBYTES_20 b37730494e222b70640a34b48135de7be3839b67",
      "scriptpubkey_type": "v0_p2wpkh",
      "scriptpubkey_address": "bc1qkdmnqj2wyg4hqeq2xj6gzdw7003c8xm8tf0h8d",
      "value": 767355138
    }
  ],
  "size": 372,
  "weight": 834,
  "fee": 3511,
  "status": {
    "confirmed": true,
    "block_height": 834638,
    "block_hash": "000000000000000000025f742c626208ac87e0b7d15054abb4a19ca2d735a54e",
    "block_time": 1710405325
  },
  "hex": "01000000000102faef931fc02dd4dd1cacb45e440d98874fc3fc1055e30e79b8ffefe99dc92a890100000000ffffffffc25993b8fd29fab984851ff8eb66ef3ed2a91f31dba996a0589d6501324312010100000000ffffffff0200ca9a3b000000001600149ee8a0e559ad1d92f0aa1bd077fdc9420a4f3c0602e9bc2d00000000160014b37730494e222b70640a34b48135de7be3839b6702483045022100adb418a8f652a26d1d4f055099d5cd3e2a65b45c978239c53c0671cef7da59fd02205e477ae8d794de5c8fbcc50731668e9d5fcc154832018d32acd19e4f86a48a44012103bd9758ec2cd5ad89bff2d2f2595462028b43869e4fb3bfd68298639c4d06cd1502483045022100b78083999453be744faaf3e588f2c3c91c399165bfc79642f528aeda846a060c022047e3d72a602a2e3294403bfb3b8c143b19e87294965f438cb128cddeccdbef1e012103bd9758ec2cd5ad89bff2d2f2595462028b43869e4fb3bfd68298639c4d06cd1500000000"
}