{
  "txid": "5eaa449ea80c7b899ed2423a6419134828fdb1c95a05fc633248c76759d743ac",
  "version": 2,
  "locktime": 834637,
  "vin": [
    {
      "txid": "0c0c70aa464397efa4a908c774326bc366ae99c1d7e106e8977da380ad508da7",
      "vout": 77,
      "prevout": {
        "scriptpubkey": "001486e9ff3f3f2846d75623145882ab52ce7ff2b327",
        "scriptpubkey_asm": "OP_0 OP_PUSHBYTES_20 86e9ff3f3f2846d75623145882ab52ce7ff2b327",
        "scriptpubkey_type": "v0_p2wpkh",
        "scriptpubkey_address": "bc1qsm5l70el9prdw43rz3vg926jeell9ve8js7sa5",
        "value": 138980
      },
      "scriptsig": "",
      "scriptsig_asm": "",
      "witness": [
        "304402207fbf4a37bcb2d51c76aaec32fad5f157cc6c3c0a358038375c5bf432410f44c5022008c498fc200b50c85ec39cbbbb02d08c4cb9ea0ba394ffc9581eb8791a26007d01",
        "0327a38a12841e735845d4759814d8633125ec1467a7480e13929ad3b6020ffd06"
      ],
      "is_coinbase": false,
      "sequence": 4294967294
    },
    {
      "txid": "6f24eda6bf42bab935f1e6978ab3c21c84614860c682a2e83ea9faebe8401fe0",
      "vout": 42,
      "prevout": {
        "scriptpubkey": "0014bdc5bd2b1d093d248b0edffa607b4de2c4240835",
        "scriptpubkey_asm": "OP_0 OP_PUSHBYTES_20 bdc5bd2b1d093d248b0edffa607b4de2c4240835",
        "scriptpubkey_type": "v0_p2wpkh",
        "scriptpubkey_address": "bc1qhhzm62capy7jfzcwmlaxq76dutzzgzp465wa0n",
        "value": 138957
      },
      "scriptsig": "",
      "scriptsig_asm": "",
      "witness": [
        "3043021f246b04aa0ac39c48c39a1df85eaedca2ea747204494a41f0663189d9438a4d02207ee4ec6492856eae6f9fde14ead5c5d9635fdccc6ef93c17401c9d65606ad19501",
        "0379bfc24424a110fda0c53edfb5a3511a8e38890fdad8cf1b3a5ccc2bc271b598"
      ],
      "is_coinbase": false,
      "sequence": 4294967294
    },
    {
      "txid": "567aa48bf239e52732108a4f1376bd20f791cab9d10dac63381569749ea9e69b",
      "vout": 18,
      "prevout": {
        "scriptpubkey": "00143f38d522f77309ab040faf61f3f6f938d9ddf762",
        "scriptpubkey_asm": "OP_0 OP_PUSHBYTES_20 3f38d522f77309ab040faf61f3f6f938d9ddf762",
        "scriptpubkey_type": "v0_p2wpkh",
        "scriptpubkey_address": "bc1q8uud2ghhwvy6kpq04asl8ahe8rvamamzau5a67",
        "value": 139000
      },
      "scriptsig": "",
      "scriptsig_asm": "",
      "witness": [
        "304402206cf4ffaa02f39b020abb84612d348da97ec0c07073fe0bf89af4c808d89b4db9022034a3f8fb5c29bc7a6e1bb10c31cb738a892329905d9bc6782223e8bc2b57fa6401",
        "02cdc4bdf1cccb31cedda9334fe98468e3e22c18e94d9993f2585742259411da16"
      ],
      "is_coinbase": false,
      "sequence": 4294967294
    },
    {
      "txid": "4dda83865bf756990a8c63e9bc0665c6f82e1dfe80aa5a4c9c3f6bd38daacdba",
      "vout": 85,
      "prevout": {
        "scriptpubkey": "00142047af04501230fa4186b9f6c5efea9b8873ba80",
        "scriptpubkey_asm": "OP_0 OP_PUSHBYTES_20 2047af04501230fa4186b9f6c5efea9b8873ba80",
        "scriptpubkey_type": "v0_p2wpkh",
        "scriptpubkey_address": "bc1qypr67pzszgc05svxh8mvtml2nwy88w5qnyqv59",
        "value": 139088
      },
      "scriptsig": "",
      "scriptsig_asm": "",
      "witness": [
        "30440220228fb8c15e672a9d41ddadca8071387bc890ed2f1d66abf22189fdfc4dbaae6202204e6e5efed85c078955e07ed7e1954858f5f9ba699842ce7bbe457c585a1393c201",
        "0299a72b5cfefc085f76e6c53b5e7fa6773c1279f0f3384a3a37bc90d1079b3202"
      ],
      "is_coinbase": false,
      "sequence": 4294967294
    },
    {
      "txid": "53000aa328b2e59d67c9dae571361dbc6de62291687562bf778a7484b33ab5d2",
      "vout": 138,
      "prevout": {
        "scriptpubkey": "00148838ff0545b4675df6322e2e2cc100f86cbe91b3",
        "scriptpubkey_asm": "OP_0 OP_PUSHBYTES_20 8838ff0545b4675df6322e2e2cc100f86cbe91b3",
        "scriptpubkey_type": "v0_p2wpkh",
        "scriptpubkey_address": "bc1q3qu07p29k3n4ma3j9chzesgqlpktaydn9edlmz",
        "value": 139019
      },
      "scriptsig": "",
      "scriptsig_asm": "",
      "witness": [
        "30440220524f6157dd661e6e8fcafbcc5b355f278daa220701d169dd2a2eeb0b8f8e119502202f426652841a7bbc3d37189bf5d6cf0af23c899b54f417cbe24ac8358da582a801",
        "03242f1de73b62828e4236f3c9a677ca056a910f1576c1018078259ce024692179"
      ],
      "is_coinbase": false,
      "sequence": 4294967294
    },
    {
      "txid": "d11a62524df7627580c46045023d2fada86420609b9c857392aa2567fbdabbf6",
      "vout": 92,
      "prevout": {
        "scriptpubkey": "00148ab2edf1e20879d1ed416d445c6ff4659370b7d2",
        "scriptpubkey_asm": "OP_0 OP_PUSHBYTES_20 8ab2edf1e20879d1ed416d445c6ff4659370b7d2",
        "scriptpubkey_type": "v0_p2wpkh",
        "scriptpubkey_address": "bc1q32ewmu0zppuarm2pd4z9cml5vkfhpd7jnaf02l",
        "value": 139097
      },
      "scriptsig": "",
      "scriptsig_asm": "",
      "witness": [
        "30440220141d24785e276cda737f2200791fea8ff8689c69c958a78a42e74f03c776291d02202f4a749dc2de8615849f897c27b5a67d164ec2338f6b8733e95deb3e6074653301",
        "037c543f547c785486b9085e5ac8603e3269fe4a86dc845cc364ebed7ad454b828"
      ],
      "is_coinbase": false,
      "sequence": 4294967294
    },
    {
      "txid": "f8b846d9194dce4dbcf2f017ee6b763ce8271fb6fc022316960acae656ee4ba3",
      "vout": 52,
      "prevout": {
        "scriptpubkey": "0014dc5c6d11c794ac457fcf7045b0aee3468b4d8776",
        "scriptpubkey_asm": "OP_0 OP_PUSHBYTES_20 dc5c6d11c794ac457fcf7045b0aee3468b4d8776",
        "scriptpubkey_type": "v0_p2wpkh",
        "scriptpubkey_address": "bc1qm3wx6yw8jjky2l70wpzmpthrg695mpmkaawvlk",
        "value": 139000
      },
      "scriptsig": "",
      "scriptsig_asm": "",
      "witness": [
        "304402205cc96a804340156339d81989b0220004724eca93566a955a82099de1e958593202201786568ac1b02181a7e521da1a04e1e6d981c1d1ea2fee855fdebd100ca8292e01",
        "027a9ee40716d57d26634eeb48abac1e48015dc0a5a176c70a5f5110778184bd49"
      ],
      "is_coinbase": false,
      "sequence": 4294967294
    },
    {
      "txid": "28227fba43e92d7c938e796ab2d3cedfe2bd8d2bf41cffe2316cf7358f037b71",
      "vout": 49,
      "prevout": {
        "scriptpubkey": "00143667a7f22d467b9a03f12d05b553c42850329894",
        "scriptpubkey_asm": "OP_0 OP_PUSHBYTES_20 3667a7f22d467b9a03f12d05b553c42850329894",
        "scriptpubkey_type": "v0_p2wpkh",
        "scriptpubkey_address": "bc1qxen60u3dgeae5ql395zm257y9pgr9xy5pc080q",
        "value": 139001
      },
      "scriptsig": "",
      "scriptsig_asm": "",
      "witness": [
        "30440220246a1d7d910717016ab5c85e755eef8e71320f30b7e0205c6cc09501352e284202207754cb2c5ba9e0dc04ffa18659fa9469b3c5e38652cf865eb37edb1f1d54b4b301",
        "02be3bfc3d3f97ec904b4c881dda2c2334394083de8d87ec83b650f43d3babc22e"
      ],
      "is_coinbase": false,
      "sequence": 4294967294
    },
    {
      "txid": "811264957fd8771c0f25536c470bfe24bd6e29adffd7770fcc245adbb546b02d",
      "vout": 48,
      "prevout": {
        "scriptpubkey": "0014cbbf9bd81dd7f41e5609330c271304cd95f99c3a",
        "scriptpubkey_asm": "OP_0 OP_PUSHBYTES_20 cbbf9bd81dd7f41e5609330c271304cd95f99c3a",
        "scriptpubkey_type": "v0_p2wpkh",
        "scriptpubkey_address": "bc1qewlehkqa6l6pu4sfxvxzwycyek2ln8p60kkj3n",
        "value": 138942
      },
      "scriptsig": "",
      "scriptsig_asm": "",
      "witness": [
        "30440220567397a03564aa55959b91ef04404d82f8a7654d8a87d23e790e4d397863fab8022003d27024bd177126b3279f2349691eb95ed49e0e08c4437fa89350334b5c52be01",
        "02e0efbaf713599732c5741608cfd7bb8e898f53ce0f06139f2b62ce3210dee380"
      ],
      "is_coinbase": false,
      "sequence": 4294967294
    },
    {
      "txid": "e28789ad65ba60bc4e68ab39db54241ba34f99a0cf1b84787e1982087bb2ae1b",
      "vout": 5,
      "prevout": {
        "scriptpubkey": "00148d5a1157dd6bdd42919563b88e57d27fbd2812c7",
        "scriptpubkey_asm": "OP_0 OP_PUSHBYTES_20 8d5a1157dd6bdd42919563b88e57d27fbd2812c7",
        "scriptpubkey_type": "v0_p2wpkh",
        "scriptpubkey_address": "bc1q34dpz47ad0w59yv4vwugu47j077jsyk8ry48ek",
        "value": 139035
      },
      "scriptsig": "",
      "scriptsig_asm": "",
      "witness": [
        "304402202801ceb7f65e401dc0560c358cae3228cfa67acbe30b2002ed828a2a367771c302203dece71c0ae054b3893000cd87351481dfa3e9feb0f12a887933f670b6bf2c3201",
        "02714dc24b72e9bfc33dfe894e48e043df234709470baa6a5b7fd3aa47754eb5d8"
      ],
      "is_coinbase": false,
      "sequence": 4294967294
    },
    {
      "txid": "ab04cb4040c3ff3bcfcffd37fc97a632397c520e0d0db890078ed800e31044b0",
      "vout": 48,
      "prevout": {
        "scriptpubkey": "0014679f1bee22abe18f7af52922b98805f34fdd26a0",
        "scriptpubkey_asm": "OP_0 OP_PUSHBYTES_20 679f1bee22abe18f7af52922b98805f34fdd26a0",
        "scriptpubkey_type": "v0_p2wpkh",
        "scriptpubkey_address": "bc1qv703hm3z40sc77h49y3tnzq97d8a6f4qcsh6ay",
        "value": 138995
      },
      "scriptsig": "",
      "scriptsig_asm": "",
      "witness": [
        "304402202f491856850b76c9b9e8fce4a68588949391dfa33d8ad5884db325890d31acdf022017be2539b99d7f7821ee9a55cc7de2ba5e5420cea3678b8e5df7d8a46d177b7801",
        "03dec053bebed4f005fb2e0db39eadf5ed8e674e45eaae1324ea65272c128a7a0a"
      ],
      "is_coinbase": false,
      "sequence": 4294967294
    },
    {
      "txid": "d46c0ec533b2d6129c49b0ab8d85813cf10bee22cdab7a7cb9386caf54c1488d",
      "vout": 15,
      "prevout": {
        "scriptpubkey": "001443d34184314d3667c73565651fba48745018f1a6",
        "scriptpubkey_asm": "OP_0 OP_PUSHBYTES_20 43d34184314d3667c73565651fba48745018f1a6",
        "scriptpubkey_type": "v0_p2wpkh",
        "scriptpubkey_address": "bc1qg0f5rpp3f5mx03e4v4j3lwjgw3gp3udx3n7v43",
        "value": 139093
      },
      "scriptsig": "",
      "scriptsig_asm": "",
      "witness": [
        "304402204846202707714ac488b8a97a02d6eeb8c93d13f69313de2dc6cc4a5d4896014d0220761229d042bff972fee9912b9668219877ee5b301d2818ddce681cee9d0e193401",
        "03ae1f2efafe293ba438b56569ac845d4d968b587315f3bb7c3d58421350d856eb"
      ],
      "is_coinbase": false,
      "sequence": 4294967294
    },
    {
      "txid": "eb3217419bbde6bccd7b4d215073bca9f7590b6514430468a41bf1b5e93744be",
      "vout": 14,
      "prevout": {
        "scriptpubkey": "0014a21343e129e287e042adb83775e1e82064b52b0f",
        "scriptpubkey_asm": "OP_0 OP_PUSHBYTES_20 a21343e129e287e042adb83775e1e82064b52b0f",
        "scriptpubkey_type": "v0_p2wpkh",
        "scriptpubkey_address": "bc1q5gf58cffu2r7qs4dhqmhtc0gypjt22c0u09vjw",
        "value": 139111
      },
      "scriptsig": "",
      "scriptsig_asm": "",
      "witness": [
        "304402204f0e8b8ddc156867639bb2b6ad7ce6a1a9acaab3e7af6f677dfc9a30410befbc022002cb915e899762a647187f671a5865733f0cf0931dd1464906182e0022d203ab01",
        "03a5e84c53b1bc0aa96b97c1fd417484527ef525d6a89be5893c30cfe65bd9bb6f"
      ],
      "is_coinbase": false,
      "sequence": 4294967294
    },
    {
      "txid": "59e0835142af65e6c92fb191e1542e2fad68558ad55a2c23cebf239a4d24c020",
      "vout": 107,
      "prevout": {
        "scriptpubkey": "0014355df41e15bfeba0d7180cc3b5418534db1e38e6",
        "scriptpubkey_asm": "OP_0 OP_PUSHBYTES_20 355df41e15bfeba0d7180cc3b5418534db1e38e6",
        "scriptpubkey_type": "v0_p2wpkh",
        "scriptpubkey_address": "bc1qx4wlg8s4hl46p4ccpnpm2sv9xnd3uw8xqq0ylv",
        "value": 138998
      },
      "scriptsig": "",
      "scriptsig_asm": "",
      "witness": [
        "3044022059bc7032035097569d61a4ecf9f824223d5de3b91a1b36c1ad8dda45602c7d9c0220710802d2a88b1647f06767c8d682f1fd202bcfd780dcd5f8bffe3b2d28c0959901",
        "03cd13494ef433dadff6c6b6ae925f112624758eb4ab50860900e2baa55fcb47d3"
      ],
      "is_coinbase": false,
      "sequence": 4294967294
    },
    {
      "txid": "acdb3389ce8c5304f586871c3bef75f760021b48be85e43f0c35e2f983c2c6ed",
      "vout": 206,
      "prevout": {
        "scriptpubkey": "001426f452d97634338fc530fb8fa3bfcb8ee26f8af7",
        "scriptpubkey_asm": "OP_0 OP_PUSHBYTES_20 26f452d97634338fc530fb8fa3bfcb8ee26f8af7",
        "scriptpubkey_type": "v0_p2wpkh",
        "scriptpubkey_address": "bc1qym699ktkxsecl3fslw86807t3m3xlzhhx3mqxx",
        "value": 138968
      },
      "scriptsig": "",
      "scriptsig_asm": "",
      "witness": [
        "304402204c075061cf77864838761a1c31a05e31d921ccfd7025733fcdc49e54244ed4a202202792d43fc354317da9b25450bc5ae426ad6e1c587ae01a0248a580183c8600a401",
        "03ec942dcfc7abd7ad687a0c1e28669c324dddb3439cd89dbcd4d5a1a8e3ecf0c2"
      ],
      "is_coinbase": false,
      "sequence": 4294967294
    },
    {
      "txid": "bcbd13045808a178e589e5fad7d0f11c6c43f2750d6ac4f8db921dae290ff24e",
      "vout": 1,
      "prevout": {
        "scriptpubkey": "00141f9e070e04c25d245d283c833b86b0979e988366",
        "scriptpubkey_asm": "OP_0 OP_PUSHBYTES_20 1f9e070e04c25d245d283c833b86b0979e988366",
        "scriptpubkey_type": "v0_p2wpkh",
        "scriptpubkey_address": "bc1qr70qwrsycfwjghfg8jpnhp4sj70f3qmx4djwy2",
        "value": 139102
      },
      "scriptsig": "",
      "scriptsig_asm": "",
      "witness": [
        "304402203b735ebbaa741555a5182fee35614892323f52e5d86a48c634d0a1049064e4250220469b59c5b48712800038e543884acad8ca306a3db35f3337be5636d01554f98b01",
        "02a54998eabd2c76c2cb53b1b7b6c6885089472ac808ef77d65bbe978eaf1d6f4e"
      ],
      "is_coinbase": false,
      "sequence": 4294967294
    },
    {
      "txid": "b098ca3b1883bb498e58f151729923bc3615f87300480695519a9441692a3872",
      "vout": 97,
      "prevout": {
        "scriptpubkey": "00146a92900c50100b0338b60163eb93289c7ddfec2c",
        "scriptpubkey_asm": "OP_0 OP_PUSHBYTES_20 6a92900c50100b0338b60163eb93289c7ddfec2c",
        "scriptpubkey_type": "v0_p2wpkh",
        "scriptpubkey_address": "bc1qd2ffqrzszq9sxw9kq937hyegn37almpvvpdsaf",
        "value": 138981
      },
      "scriptsig": "",
      "scriptsig_asm": "",
      "witness": [
        "3044022074f4df1ce6d17d563ab8a437b212ae571ef3afec60bf7fa4ecced3061d5c3ea802206d35cff7bdbaef04b05b359dd47ec25ddbed78ea9c91e3a85e9dbac6bfe5865d01",
        "032c53af6e0d3fb941224f0f44fea77b085a73d50329d5a73786e5ccfa971195bd"
      ],
      "is_coinbase": false,
      "sequence": 4294967294
    },
    {
      "txid": "1eed136fd015a2878df081cfeca3d2375ac9bdce680fe33554d53a0fe7453879",
      "vout": 0,
      "prevout": {
        "scriptpubkey": "00146e07074e4a06b90d19ca2b8f525579aa0dd12c9b",
        "scriptpubkey_asm": "OP_0 OP_PUSHBYTES_20 6e07074e4a06b90d19ca2b8f525579aa0dd12c9b",
        "scriptpubkey_type": "v0_p2wpkh",
        "scriptpubkey_address": "bc1qdcrswnj2q6us6xw29w84y4te4gxaztymqeyqf4",
        "value": 139069
      },
      "scriptsig": "",
      "scriptsig_asm": "",
      "witness": [
        "30440220139d4451ef62b66d34efa32b850a60a5df114123427c250c9ce16fb9df60824202206224cc54a8e7c028f340a6c6376a64b6686096d526c7edfa2539f109205878b901",
        "0282446c12bbf23b21fa28ae4658eda18a77a5e0d7b00b3771f1287fdf0c3a58bd"
      ],
      "is_coinbase": false,
      "sequence": 4294967294
    },
    {
      "txid": "a20542866b43f3322bbad741d22a5cc2bf38f2ae919056e8cc9fcb44aac26f18",
      "vout": 195,
      "prevout": {
        "scriptpubkey": "0014187324c4d247840f499589e6a46edc50f6d9a7c8",
        "scriptpubkey_asm": "OP_0 OP_PUSHBYTES_20 187324c4d247840f499589e6a46edc50f6d9a7c8",
        "scriptpubkey_type": "v0_p2wpkh",
        "scriptpubkey_address": "bc1qrpejf3xjg7zq7jv438n2gmku2rmdnf7gg6v0gt",
        "value": 139110
      },
      "scriptsig": "",
      "scriptsig_asm": "",
      "witness": [
        "304402202314c2c1651262bc6d656a94b5d6d004c93419987861ace15b4db90bf23a5b000220573122169017dfd4d126b74dfdedfcd14b075a46c3a219ba20f52e2365a6c15f01",
        "0380d4681c6cb4399119c390eea2798fe0a8a5af7b23a289c7fd332a042ee034ed"
      ],
      "is_coinbase": false,
      "sequence": 4294967294
    },
    {
      "txid": "9f0a63568648772f032a004be4411def1d83bbd937826a5d979e0fad9976f53e",
      "vout": 72,
      "prevout": {
        "scriptpubkey": "001447ca0a19a4413893b71c580353e9253580b62b57",
        "scriptpubkey_asm": "OP_0 OP_PUSHBYTES_20 47ca0a19a4413893b71c580353e9253580b62b57",
        "scriptpubkey_type": "v0_p2wpkh",
        "scriptpubkey_address": "bc1qgl9q5xdygyuf8dcutqp486f9xkqtv26hmegj0q",
        "value": 138987
      },
      "scriptsig": "",
      "scriptsig_asm": "",
      "witness": [
        "3044022002fc44e3f2155c3721eb0dcef625523734438233f7650d3dc362c3e628e5f2b5022044152604cfa16e215701478866b9ea0e8a8783ce1e28683845897ef8d388f8fb01",
        "03c2613b266a3184de1676a356cd5303a5e4f0296a31f805f941b21f91826b0be6"
      ],
      "is_coinbase": false,
      "sequence": 4294967294
    },
    {
      "txid": "782312adc4f97dc3233942faa73175dda031b35abfa6dd4750e0ae76a80dddda",
      "vout": 17,
      "prevout": {
        "scriptpubkey": "001465b392a5ec4062e29a487144188a444c4db22196",
        "scriptpubkey_asm": "OP_0 OP_PUSHBYTES_20 65b392a5ec4062e29a487144188a444c4db22196",
        "scriptpubkey_type": "v0_p2wpkh",
        "scriptpubkey_address": "bc1qvkee9f0vgp3w9xjgw9zp3zjyf3xmygvkw3jasd",
        "value": 139172
      },
      "scriptsig": "",
      "scriptsig_asm": "",
      "witness": [
        "3044022054bc51c884bc580c26c3843041f3064dc845d12f251eda3bcbb00390c763da6502203e1e78b0351e4953d826dfcc5c04d2b1e9f925173476867c2a4e50f2c65eeb1d01",
        "0255f66052c2b98bc703ccee0225eaae83c0834751db7d045869345f42fe5511a2"
      ],
      "is_coinbase": false,
      "sequence": 4294967294
    },
    {
      "txid": "72a7910045aa21f5689cd673be0bf36c60ddb25b2d543a4fb8a81fd2e9c4ebd7",
      "vout": 0,
      "prevout": {
        "scriptpubkey": "0014a1e6955af0e550999fa21f5b1c56c3f8373636ab",
        "scriptpubkey_asm": "OP_0 OP_PUSHBYTES_20 a1e6955af0e550999fa21f5b1c56c3f8373636ab",
        "scriptpubkey_type": "v0_p2wpkh",
        "scriptpubkey_address": "bc1q58nf2khsu4gfn8azrad3c4krlqmnvd4tsp4l50",
        "value": 103974
      },
      "scriptsig": "",
      "scriptsig_asm": "",
      "witness": [
        "30440220167f60fcad2acfa6d081682986febfea3f349a3c145584e788572f6bdc6c913502205e3a1d456d62a8e79ed095839b24ca176887681241632b3f33adfe7d95c34e0b01",
        "02d490f685ba3bc6861536802f26f4a8321a2c1d146bc9eef077faf5e62c5f57f7"
      ],
      "is_coinbase": false,
      "sequence": 4294967294
    },
    {
      "txid": "bea8b857799c8d70ca13900fbdb42d3c440c01f52f4bde8c575236ce51c44ce8",
      "vout": 24,
      "prevout": {
        "scriptpubkey": "001443d34184314d3667c73565651fba48745018f1a6",
        "scriptpubkey_asm": "OP_0 OP_PUSHBYTES_20 43d34184314d3667c73565651fba48745018f1a6",
        "scriptpubkey_type": "v0_p2wpkh",
        "scriptpubkey_address": "bc1qg0f5rpp3f5mx03e4v4j3lwjgw3gp3udx3n7v43",
        "value": 139085
      },
      "scriptsig": "",
      "scriptsig_asm": "",
      "witness": [
        "3044022066fef0828a2ea7cb44614613233a9b16e04addaea611d9e6b17be150d619727e022043139c6a956ac5aa47c6de9591e8599d8f212c5ce83de8758c1f9d422e7522cd01",
        "03ae1f2efafe293ba438b56569ac845d4d968b587315f3bb7c3d58421350d856eb"
      ],
      "is_coinbase": false,
      "sequence": 4294967294
    },
    {
      "txid": "71deaa91535fca27247478b42efca25b1c1fe082f24a6358662aad6433b2b5bf",
      "vout": 14,
      "prevout": {
        "scriptpubkey": "0014cc0e4bc9653e412d22f7be6f542f8e0372a7cd9f",
        "scriptpubkey_asm": "OP_0 OP_PUSHBYTES_20 cc0e4bc9653e412d22f7be6f542f8e0372a7cd9f",
        "scriptpubkey_type": "v0_p2wpkh",
        "scriptpubkey_address": "bc1qes8yhjt98eqj6ghhheh4gtuwqde20nvlhqdw0g",
        "value": 139131
      },
      "scriptsig": "",
      "scriptsig_asm": "",
      "witness": [
        "304402206bdaf4f51e9e5fcb43b11adb50ae3768c85ed113917975842bca5e525f57e70202201256e88c7b90608a541bcf7ab7625e5e3934464fc5228e8d206e17659ad71dd701",
        "0347940f115c30f92de5e7dd095d0e0f82eb21852c235268ffbb7b11c7ae23d76f"
      ],
      "is_coinbase": false,
      "sequence": 4294967294
    },
    {
      "txid": "891b3f4ee773a53f074b68a86f5ff7dce1d734e4dfbc535f72be9cbf00a0019c",
      "vout": 55,
      "prevout": {
        "scriptpubkey": "0014a0c8cdb77cb4e245e22b849f09824738488643a0",
        "scriptpubkey_asm": "OP_0 OP_PUSHBYTES_20 a0c8cdb77cb4e245e22b849f09824738488643a0",
        "scriptpubkey_type": "v0_p2wpkh",
        "scriptpubkey_address": "bc1q5ryvmdmukn3ytc3tsj0snqj88pygvsaqcdkm67",
        "value": 139182
      },
      "scriptsig": "",
      "scriptsig_asm": "",
      "witness": [
        "304402203e09f099c1ebfd73e6e9d5f243b86fc19c1eb2b8042bb9b5afe396ad879812380220742195eb458b4bb60f5eb2487b7dc00aa90f3385a12b2ed067d07fbd774a00d401",
        "0288f59b3e749dae7ae9a0677b40d6b2d3760f78583dd7b486db2a055256e2fe55"
      ],
      "is_coinbase": false,
      "sequence": 4294967294
    },
    {
      "txid": "ff60a4daa171613a6afeea11315b0d449dbb13141d25c241876182d4d9b6afde",
      "vout": 45,
      "prevout": {
        "scriptpubkey": "001443d34184314d3667c73565651fba48745018f1a6",
        "scriptpubkey_asm": "OP_0 OP_PUSHBYTES_20 43d34184314d3667c73565651fba48745018f1a6",
        "scriptpubkey_type": "v0_p2wpkh",
        "scriptpubkey_address": "bc1qg0f5rpp3f5mx03e4v4j3lwjgw3gp3udx3n7v43",
        "value": 139082
      },
      "scriptsig": "",
      "scriptsig_asm": "",
      "witness": [
        "30440220045c32ed9a313d5ff2b4ee7712f6193cdeb5a96e395ccce8eb6337d5936617c2022064b2d6ab692e6b99cd20a7d57f5f48938fba983386a08f6ade5661924742769601",
        "03ae1f2efafe293ba438b56569ac845d4d968b587315f3bb7c3d58421350d856eb"
      ],
      "is_coinbase": false,
      "sequence": 4294967294
    },
    {
      "txid": "dede9c56b57aa34fb550881966b79b311801c5858cdd81951fac43649f28e6a3",
      "vout": 58,
      "prevout": {
        "scriptpubkey": "001489d060aacfdf5735fcedd3a1929713724dd2bd3a",
        "scriptpubkey_asm": "OP_0 OP_PUSHBYTES_20 89d060aacfdf5735fcedd3a1929713724dd2bd3a",
        "scriptpubkey_type": "v0_p2wpkh",
        "scriptpubkey_address": "bc1q38gxp2k0matntl8d6wse99cnwfxa90f6m9jzft",
        "value": 139071
      },
      "scriptsig": "",
      "scriptsig_asm": "",
      "witness": [
        "304402201510879cfde2cfb47e18f7036c560e339daa7016ea95dbacb8f08964f66ac22002200fc4e9cef35d4590f7ef0c5c6691e564d7502e407610777bc57fce962e774b0701",
        "0218288736d5d082e53f915c76f6f4dca7ebe27e245cf0cf154a421e4778cdc9a5"
      ],
      "is_coinbase": false,
      "sequence": 4294967294
    },
    {
      "txid": "ee5b8284aa959be600ab7e92086b4e9f044379c7427e956a7aa88b03fdfd4b0c",
      "vout": 72,
      "prevout": {
        "scriptpubkey": "001443d34184314d3667c73565651fba48745018f1a6",
        "scriptpubkey_asm": "OP_0 OP_PUSHBYTES_20 43d34184314d3667c73565651fba48745018f1a6",
        "scriptpubkey_type": "v0_p2wpkh",
        "scriptpubkey_address": "bc1qg0f5rpp3f5mx03e4v4j3lwjgw3gp3udx3n7v43",
        "value": 139072
      },
      "scriptsig": "",
      "scriptsig_asm": "",
      "witness": [
        "30440220330a6e26e328753047f608111bfd37d3f02c8054e9220cff27dcb958bf7ad2d202202b56b8c565aee88d4e81eda70dbae980643d9b1973be11d88ad747413b4ad2cc01",
        "03ae1f2efafe293ba438b56569ac845d4d968b587315f3bb7c3d58421350d856eb"
      ],
      "is_coinbase": false,
      "sequence": 4294967294
    }
  ],
  "vout": [
    {
      "scriptpubkey": "a914ef05a3eaf9912c68acdf656b41a9640059d8122f87",
      "scriptpubkey_asm": "OP_HASH160 OP_PUSHBYTES_20 ef05a3eaf9912c68acdf656b41a9640059d8122f OP_EQUAL",
      "scriptpubkey_type": "p2sh",
      "scriptpubkey_address": "3PUrBHZoQKEQJpvrTXJxCXtPT5My9kYDBn",
      "value": 3808000
    }
  ],
  "size": 4187,
  "weight": 7757,
  "fee": 50302,
  "status": {
    "confirmed": true,
    "block_height": 834638,
    "block_hash": "000000000000000000025f742c626208ac87e0b7d15054abb4a19ca2d735a54e",
    "block_time": 1710405325
  },
  "hex": "0200000000011ca78d50ad80a37d97e806e1d7c199ae66c36b3274c708a9a4ef974346aa700c0c4d00000000feffffffe01f40e8ebfaa93ee8a282c6604861841cc2b38a97e6f135b9ba42bfa6ed246f2a00000000feffffff9be6a99e7469153863ac0dd1b9ca91f720bd76134f8a103227e539f28ba47a561200000000feffffffbacdaa8dd36b3f9c4c5aaa80fe1d2ef8c66506bce9638c0a9956f75b8683da4d5500000000feffffffd2b53ab384748a77bf6275689122e66dbc1d3671e5dac9679de5b228a30a00538a00000000fefffffff6bbdafb6725aa9273859c9b602064a8ad2f3d024560c4807562f74d52621ad15c00000000feffffffa34bee56e6ca0a96162302fcb61f27e83c766bee17f0f2bc4dce4d19d946b8f83400000000feffffff717b038f35f76c31e2ff1cf42b8dbde2dfced3b26a798e937c2de943ba7f22283100000000feffffff2db046b5db5a24cc0f77d7ffad296ebd24fe0b476c53250f1c77d87f956412813000000000feffffff1baeb27b0882197e78841bcfa0994fa31b2454db39ab684ebc60ba65ad8987e20500000000feffffffb04410e300d88e0790b80d0d0e527c3932a697fc37fdcfcf3bffc34040cb04ab3000000000feffffff8d48c154af6c38b97c7aabcd22ee0bf13c81858dabb0499c12d6b233c50e6cd40f00000000feffffffbe4437e9b5f11ba468044314650b59f7a9bc7350214d7bcdbce6bd9b411732eb0e00000000feffffff20c0244d9a23bfce232c5ad58a5568ad2f2e54e191b12fc9e665af425183e0596b00000000feffffffedc6c283f9e2350c3fe485be481b0260f775ef3b1c8786f504538cce8933dbacce00000000feffffff4ef20f29ae1d92dbf8c46a0d75f2436c1cf1d0d7fae589e578a108580413bdbc0100000000feffffff72382a6941949a519506480073f81536bc23997251f1588e49bb83183bca98b06100000000feffffff793845e70f3ad55435e30f68cebdc95a37d2a3eccf81f08d87a215d06f13ed1e0000000000feffffff186fc2aa44cb9fcce8569091aef238bfc25c2ad241d7ba2b32f3436b864205a2c300000000feffffff3ef57699ad0f9e975d6a8237d9bb831def1d41e44b002a032f77488656630a9f4800000000feffffffdadd0da876aee05047dda6bf5ab331a0dd7531a7fa423923c37df9c4ad1223781100000000feffffffd7ebc4e9d21fa8b84f3a542d5bb2dd606cf30bbe73d69c68f521aa450091a7720000000000feffffffe84cc451ce3652578cde4b2ff5010c443c2db4bd0f9013ca708d9c7957b8a8be1800000000feffffffbfb5b23364ad2a6658634af282e01f1c5ba2fc2eb478742427ca5f5391aade710e00000000feffffff9c01a000bf9cbe725f53bcdfe434d7e1dcf75f6fa8684b073fa573e74e3f1b893700000000feffffffdeafb6d9d482618741c2251d1413bb9d440d5b3111eafe6a3a6171a1daa460ff2d00000000feffffffa3e6289f6443ac1f9581dd8c85c50118319bb766198850b54fa37ab5569cdede3a00000000feffffff0c4bfdfd038ba87a6a957e42c77943049f4e6b08927eab00e69b95aa84825bee4800000000feffffff01001b3a000000000017a914ef05a3eaf9912c68acdf656b41a9640059d8122f870247304402207fbf4a37bcb2d51c76aaec32fad5f157cc6c3c0a358038375c5bf432410f44c5022008c498fc200b50c85ec39cbbbb02d08c4cb9ea0ba394ffc9581eb8791a26007d01210327a38a12841e735845d4759814d8633125ec1467a7480e13929ad3b6020ffd0602463043021f246b04aa0ac39c48c39a1df85eaedca2ea747204494a41f0663189d9438a4d02207ee4ec6492856eae6f9fde14ead5c5d9635fdccc6ef93c17401c9d65606ad19501210379bfc24424a110fda0c53edfb5a3511a8e38890fdad8cf1b3a5ccc2bc271b5980247304402206cf4ffaa02f39b020abb84612d348da97ec0c07073fe0bf89af4c808d89b4db9022034a3f8fb5c29bc7a6e1bb10c31cb738a892329905d9bc6782223e8bc2b57fa64012102cdc4bdf1cccb31cedda9334fe98468e3e22c18e94d9993f2585742259411da16024730440220228fb8c15e672a9d41ddadca8071387bc890ed2f1d66abf22189fdfc4dbaae6202204e6e5efed85c078955e07ed7e1954858f5f9ba699842ce7bbe457c585a1393c201210299a72b5cfefc085f76e6c53b5e7fa6773c1279f0f3384a3a37bc90d1079b3202024730440220524f6157dd661e6e8fcafbcc5b355f278daa220701d169dd2a2eeb0b8f8e119502202f426652841a7bbc3d37189bf5d6cf0af23c899b54f417cbe24ac8358da582a8012103242f1de73b62828e4236f3c9a677ca056a910f1576c1018078259ce024692179024730440220141d24785e276cda737f2200791fea8ff8689c69c958a78a42e74f03c776291d02202f4a749dc2de8615849f897c27b5a67d164ec2338f6b8733e95deb3e607465330121037c543f547c785486b9085e5ac8603e3269fe4a86dc845cc364ebed7ad454b8280247304402205cc96a804340156339d81989b0220004724eca93566a955a82099de1e958593202201786568ac1b02181a7e521da1a04e1e6d981c1d1ea2fee855fdebd100ca8292e0121027a9ee40716d57d26634eeb48abac1e48015dc0a5a176c70a5f5110778184bd49024730440220246a1d7d910717016ab5c85e755eef8e71320f30b7e0205c6cc09501352e284202207754cb2c5ba9e0dc04ffa18659fa9469b3c5e38652cf865eb37edb1f1d54b4b3012102be3bfc3d3f97ec904b4c881dda2c2334394083de8d87ec83b650f43d3babc22e024730440220567397a03564aa55959b91ef04404d82f8a7654d8a87d23e790e4d397863fab8022003d27024bd177126b3279f2349691eb95ed49e0e08c4437fa89350334b5c52be012102e0efbaf713599732c5741608cfd7bb8e898f53ce0f06139f2b62ce3210dee3800247304402202801ceb7f65e401dc0560c358cae3228cfa67acbe30b2002ed828a2a367771c302203dece71c0ae054b3893000cd87351481dfa3e9feb0f12a887933f670b6bf2c32012102714dc24b72e9bfc33dfe894e48e043df234709470baa6a5b7fd3aa47754eb5d80247304402202f491856850b76c9b9e8fce4a68588949391dfa33d8ad5884db325890d31acdf022017be2539b99d7f7821ee9a55cc7de2ba5e5420cea3678b8e5df7d8a46d177b78012103dec053bebed4f005fb2e0db39eadf5ed8e674e45eaae1324ea65272c128a7a0a0247304402204846202707714ac488b8a97a02d6eeb8c93d13f69313de2dc6cc4a5d4896014d0220761229d042bff972fee9912b9668219877ee5b301d2818ddce681cee9d0e1934012103ae1f2efafe293ba438b56569ac845d4d968b587315f3bb7c3d58421350d856eb0247304402204f0e8b8ddc156867639bb2b6ad7ce6a1a9acaab3e7af6f677dfc9a30410befbc022002cb915e899762a647187f671a5865733f0cf0931dd1464906182e0022d203ab012103a5e84c53b1bc0aa96b97c1fd417484527ef525d6a89be5893c30cfe65bd9bb6f02473044022059bc7032035097569d61a4ecf9f824223d5de3b91a1b36c1ad8dda45602c7d9c0220710802d2a88b1647f06767c8d682f1fd202bcfd780dcd5f8bffe3b2d28c09599012103cd13494ef433dadff6c6b6ae925f112624758eb4ab50860900e2baa55fcb47d30247304402204c075061cf77864838761a1c31a05e31d921ccfd7025733fcdc49e54244ed4a202202792d43fc354317da9b25450bc5ae426ad6e1c587ae01a0248a580183c8600a4012103ec942dcfc7abd7ad687a0c1e28669c324dddb3439cd89dbcd4d5a1a8e3ecf0c20247304402203b735ebbaa741555a5182fee35614892323f52e5d86a48c634d0a1049064e4250220469b59c5b48712800038e543884acad8ca306a3db35f3337be5636d01554f98b012102a54998eabd2c76c2cb53b1b7b6c6885089472ac808ef77d65bbe978eaf1d6f4e02473044022074f4df1ce6d17d563ab8a437b212ae571ef3afec60bf7fa4ecced3061d5c3ea802206d35cff7bdbaef04b05b359dd47ec25ddbed78ea9c91e3a85e9dbac6bfe5865d0121032c53af6e0d3fb941224f0f44fea77b085a73d50329d5a73786e5ccfa971195bd024730440220139d4451ef62b66d34efa32b850a60a5df114123427c250c9ce16fb9df60824202206224cc54a8e7c028f340a6c6376a64b6686096d526c7edfa2539f109205878b901210282446c12bbf23b21fa28ae4658eda18a77a5e0d7b00b3771f1287fdf0c3a58bd0247304402202314c2c1651262bc6d656a94b5d6d004c93419987861ace15b4db90bf23a5b000220573122169017dfd4d126b74dfdedfcd14b075a46c3a219ba20f52e2365a6c15f01210380d4681c6cb4399119c390eea2798fe0a8a5af7b23a289c7fd332a042ee034ed02473044022002fc44e3f2155c3721eb0dcef625523734438233f7650d3dc362c3e628e5f2b5022044152604cfa16e215701478866b9ea0e8a8783ce1e28683845897ef8d388f8fb012103c2613b266a3184de1676a356cd5303a5e4f0296a31f805f941b21f91826b0be602473044022054bc51c884bc580c26c3843041f3064dc845d12f251eda3bcbb00390c763da6502203e1e78b0351e4953d826dfcc5c04d2b1e9f925173476867c2a4e50f2c65eeb1d01210255f66052c2b98bc703ccee0225eaae83c0834751db7d045869345f42fe5511a2024730440220167f60fcad2acfa6d081682986febfea3f349a3c145584e788572f6bdc6c913502205e3a1d456d62a8e79ed095839b24ca176887681241632b3f33adfe7d95c34e0b012102d490f685ba3bc6861536802f26f4a8321a2c1d146bc9eef077faf5e62c5f57f702473044022066fef0828a2ea7cb44614613233a9b16e04addaea611d9e6b17be150d619727e022043139c6a956ac5aa47c6de9591e8599d8f212c5ce83de8758c1f9d422e7522cd012103ae1f2efafe293ba438b56569ac845d4d968b587315f3bb7c3d58421350d856eb0247304402206bdaf4f51e9e5fcb43b11adb50ae3768c85ed113917975842bca5e525f57e70202201256e88c7b90608a541bcf7ab7625e5e3934464fc5228e8d206e17659ad71dd701210347940f115c30f92de5e7dd095d0e0f82eb21852c235268ffbb7b11c7ae23d76f0247304402203e09f099c1ebfd73e6e9d5f243b86fc19c1eb2b8042bb9b5afe396ad879812380220742195eb458b4bb60f5eb2487b7dc00aa90f3385a12b2ed067d07fbd774a00d401210288f59b3e749dae7ae9a0677b40d6b2d3760f78583dd7b486db2a055256e2fe55024730440220045c32ed9a313d5ff2b4ee7712f6193cdeb5a96e395ccce8eb6337d5936617c2022064b2d6ab692e6b99cd20a7d57f5f48938fba983386a08f6ade56619247427696012103ae1f2efafe293ba438b56569ac845d4d968b587315f3bb7c3d58421350d856eb0247304402201510879cfde2cfb47e18f7036c560e339daa7016ea95dbacb8f08964f66ac22002200fc4e9cef35d4590f7ef0c5c6691e564d7502e407610777bc57fce962e774b0701210218288736d5d082e53f915c76f6f4dca7ebe27e245cf0cf154a421e4778cdc9a5024730440220330a6e26e328753047f608111bfd37d3f02c8054e9220cff27dcb958bf7ad2d202202b56b8c565aee88d4e81eda70dbae980643d9b1973be11d88ad747413b4ad2cc012103ae1f2efafe293ba438b56569ac845d4d968b587315f3bb7c3d58421350d856eb4dbc0c00"
}