{
  "txid": "5eabe6b4d9ecabbeb050b2e646cbdac4e265e6b40fec3f35eb23834d92505bae",
  "version": 2,
  "locktime": 0,
  "vin": [
    {
      "txid": "63ae3f28afd5d0a929109d69e6dd14c64a5f88e60465d97a08caa06060e15e8f",
      "vout": 28,
      "prevout": {
        "scriptpubkey": "51206c8865e2852aebc0439aa18e4602a0963d3cb79637c50b8354024eabe260274f",
        "scriptpubkey_asm": "OP_PUSHNUM_1 OP_PUSHBYTES_32 6c8865e2852aebc0439aa18e4602a0963d3cb79637c50b8354024eabe260274f",
        "scriptpubkey_type": "v1_p2tr",
        "scriptpubkey_address": "bc1pdjyxtc599t4uqsu65x8yvq4qjc7nedukxlzshq65qf82hcnqya8se5ltje",
        "value": 3055
      },
      "scriptsig": "",
      "scriptsig_asm": "",
      "witness": [
        "6270d61779a9392e01ad651abdc1921c96ff1ee866d81fcbb661e3e2bff4b5dabbaef110e8b0fd1ca4c87a62521a89989cef2953a52943423e849d8414c8c6e3",
        "2036363dc2cb68487b373dfd521a4f0de50aeda80863269690c017a8f54678a230ac0063036f726401011e6170706c69636174696f6e2f6a736f6e3b636861727365743d7574662d38004cd37b2270223a22706f772d3230222c226f70223a226d696e74222c227469636b223a2250455045222c22616d74223a2231303030222c22736f6c7574696f6e223a22504550453a626331706a39356d676c663836377961396a32756368377a34647836793635746736373330676e7661796b706b6c77793335757667376a73773033676d713a303030303030303030303030303030303030303139393431613561653132383937363539383134343239323533333030353762306461393666336465613163353a3139333634383235323730227d68",
        "c1ffe2b6185dd514800047a24f9c3d628916daef0b23d9f98ab4cda2a0457a18d1"
      ],
      "is_coinbase": false,
      "sequence": 4294967295
    }
  ],
  "vout": [
    {
      "scriptpubkey": "51209169b47d27d789d2c95cc5fc2ab4da26a8b46bd17a26ce92c1b7dc48d38c47a5",
      "scriptpubkey_asm": "OP_PUSHNUM_1 OP_PUSHBYTES_32 9169b47d27d789d2c95cc5fc2ab4da26a8b46bd17a26ce92c1b7dc48d38c47a5",
      "scriptpubkey_type": "v1_p2tr",
      "scriptpubkey_address": "bc1pj95mglf867ya9j2uch7z4dx6y65tg6730gnvaykpklwy35uvg7jsw03gmq",
      "value": 546
    }
  ],
  "size": 487,
  "weight": 769,
  "fee": 2509,
  "status": {
    "confirmed": true,
    "block_height": 834460,
    "block_hash": "00000000000000000000484a79b643b2524bbce82e5d8a442013fa5b8905ed98",
    "block_time": 1710307468
  },
  "hex": "020000000001018f5ee16060a0ca087ad96504e6885f4ac614dde6699d1029a9d0d5af283fae631c00000000ffffffff0122020000000000002251209169b47d27d789d2c95cc5fc2ab4da26a8b46bd17a26ce92c1b7dc48d38c47a503406270d61779a9392e01ad651abdc1921c96ff1ee866d81fcbb661e3e2bff4b5dabbaef110e8b0fd1ca4c87a62521a89989cef2953a52943423e849d8414c8c6e3fd20012036363dc2cb68487b373dfd521a4f0de50aeda80863269690c017a8f54678a230ac0063036f726401011e6170706c69636174696f6e2f6a736f6e3b636861727365743d7574662d38004cd37b2270223a22706f772d3230222c226f70223a226d696e74222c227469636b223a2250455045222c22616d74223a2231303030222c22736f6c7574696f6e223a22504550453a626331706a39356d676c663836377961396a32756368377a34647836793635746736373330676e7661796b706b6c77793335757667376a73773033676d713a303030303030303030303030303030303030303139393431613561653132383937363539383134343239323533333030353762306461393666336465613163353a3139333634383235323730227d6821c1ffe2b6185dd514800047a24f9c3d628916daef0b23d9f98ab4cda2a0457a18d100000000"
}