{
  "txid": "5eb86e817c483c9cab68faf228a9cb1d7566ba573f32d5d5e01b2f2ca42d79cb",
  "version": 2,
  "locktime": 0,
  "vin": [
    {
      "txid": "e75c647e170ca1cad863e968096748c625cc20d95a08088e9a2d6a95fb5cf28c",
      "vout": 0,
      "prevout": {
        "scriptpubkey": "51206273501ea5fa11bdfac0d7bdd53fe77a2fb5f39397921bc44c7bf4caccb34e86",
        "scriptpubkey_asm": "OP_PUSHNUM_1 OP_PUSHBYTES_32 6273501ea5fa11bdfac0d7bdd53fe77a2fb5f39397921bc44c7bf4caccb34e86",
        "scriptpubkey_type": "v1_p2tr",
        "scriptpubkey_address": "bc1pvfe4q849lggmm7kq677a20l80ghmtuunj7fph3zv006v4n9nf6rqz9d244",
        "value": 1678224
      },
      "scriptsig": "",
      "scriptsig_asm": "",
      "witness": [
        "cc29396d5c8b74edae7e3517d47ad1c5791f0bcb44ccc9f660626554fa13b5ad2eb0a5d194abde3768a459d22cb0998cb0cd7531ca46c87f6b8a9cde21b8ca41"
      ],
      "is_coinbase": false,
      "sequence": 4294967295
    },
    {
      "txid": "a35f346e2ceb2f0e45f73187a84be1c530b777ea2e52e36dafdb35d0d2438a40",
      "vout": 7,
      "prevout": {
        "scriptpubkey": "51206273501ea5fa11bdfac0d7bdd53fe77a2fb5f39397921bc44c7bf4caccb34e86",
        "scriptpubkey_asm": "OP_PUSHNUM_1 OP_PUSHBYTES_32 6273501ea5fa11bdfac0d7bdd53fe77a2fb5f39397921bc44c7bf4caccb34e86",
        "scriptpubkey_type": "v1_p2tr",
        "scriptpubkey_address": "bc1pvfe4q849lggmm7kq677a20l80ghmtuunj7fph3zv006v4n9nf6rqz9d244",
        "value": 44332
      },
      "scriptsig": "",
      "scriptsig_asm": "",
      "witness": [
        "76f1a6418ee1beef5971f4926c24421f597f5dc14cecb0e8b333d06e9cc25e9050d4045568bf4b564dca3333f3faa4cbc1cded7bacb808a3ae9cab3273ac1a7e"
      ],
      "is_coinbase": false,
      "sequence": 4294967295
    }
  ],
  "vout": [
    {
      "scriptpubkey": "51207ab80c73fd2e7cabf5d02899cbc343b624ac16929989bf39ad9fbd8f759eea5c",
      "scriptpubkey_asm": "OP_PUSHNUM_1 OP_PUSHBYTES_32 7ab80c73fd2e7cabf5d02899cbc343b624ac16929989bf39ad9fbd8f759eea5c",
      "scriptpubkey_type": "v1_p2tr",
      "scriptpubkey_address": "bc1p02uqcula9e72haws9zvuhs6rkcj2c95jnxym7wddn77c7av7afwq3emm57",
      "value": 1700000
    },
    {
      "scriptpubkey": "51206273501ea5fa11bdfac0d7bdd53fe77a2fb5f39397921bc44c7bf4caccb34e86",
      "scriptpubkey_asm": "OP_PUSHNUM_1 OP_PUSHBYTES_32 6273501ea5fa11bdfac0d7bdd53fe77a2fb5f39397921bc44c7bf4caccb34e86",
      "scriptpubkey_type": "v1_p2tr",
      "scriptpubkey_address": "bc1pvfe4q849lggmm7kq677a20l80ghmtuunj7fph3zv006v4n9nf6rqz9d244",
      "value": 19383
    }
  ],
  "size": 312,
  "weight": 846,
  "fee": 3173,
  "status": {
    "confirmed": true,
    "block_height": 834638,
    "block_hash": "000000000000000000025f742c626208ac87e0b7d15054abb4a19ca2d735a54e",
    "block_time": 1710405325
  },
  "hex": "020000000001028cf25cfb956a2d9a8e08085ad920cc25c648670968e963d8caa10c177e645ce70000000000ffffffff408a43d2d035dbaf6de3522eea77b730c5e14ba88731f7450e2feb2c6e345fa30700000000ffffffff02a0f01900000000002251207ab80c73fd2e7cabf5d02899cbc343b624ac16929989bf39ad9fbd8f759eea5cb74b0000000000002251206273501ea5fa11bdfac0d7bdd53fe77a2fb5f39397921bc44c7bf4caccb34e860140cc29396d5c8b74edae7e3517d47ad1c5791f0bcb44ccc9f660626554fa13b5ad2eb0a5d194abde3768a459d22cb0998cb0cd7531ca46c87f6b8a9cde21b8ca41014076f1a6418ee1beef5971f4926c24421f597f5dc14cecb0e8b333d06e9cc25e9050d4045568bf4b564dca3333f3faa4cbc1cded7bacb808a3ae9cab3273ac1a7e00000000"
}