{
  "txid": "5ec4c2941133aa27750ccd0a2d6ea7176c6858ec1d7ef472b8131266aeacd6c7",
  "version": 2,
  "locktime": 0,
  "vin": [
    {
      "txid": "02eb03268d4342f7b61999295ad3a8499e64262277fc17c9ff0c723104074000",
      "vout": 0,
      "prevout": {
        "scriptpubkey": "51203e9e0d5a264af2fc729154fead37af463c36a28d90618487e854b19ba4229b72",
        "scriptpubkey_asm": "OP_PUSHNUM_1 OP_PUSHBYTES_32 3e9e0d5a264af2fc729154fead37af463c36a28d90618487e854b19ba4229b72",
        "scriptpubkey_type": "v1_p2tr",
        "scriptpubkey_address": "bc1p860q6k3xfte0cu532nl26da0gc7rdg5djpscfplg2jcehfpzndeqav3uqn",
        "value": 21655
      },
      "scriptsig": "",
      "scriptsig_asm": "",
      "witness": [
        "51b8e889e6d6d154864e7ab74a0ae7e829ec2ffc5ab048e4bc4e6700a980e7f4936f34c48b47b0d00586759ccee03d027c7bd99585792a01a36273359f50d24f",
        "20f2d00e1cce0b839d2e197679cac7a15152ec244338032c7767f72c1332d49a65ac0063036f726401010a696d6167652f6a706567004d0802ffd8ffe000104a46494600010100000100010000ffe201d84943435f50524f46494c45000101000001c800000000043000006d6e74725247422058595a2007e00001000100000000000061637370000000000000000000000000000000000000000000000000000000010000f6d6000100000000d32d0000000000000000000000000000000000000000000000000000000000000000000000000000000000000000000000000000000964657363000000f0000000247258595a00000114000000146758595a00000128000000146258595a0000013c00000014777470740000015000000014725452430000016400000028675452430000016400000028625452430000016400000028637072740000018c0000003c6d6c756300000000000000010000000c656e5553000000080000001c007300520047004258595a200000000000006fa2000038f50000039058595a2000000000000062990000b785000018da58595a2000000000000024a000000f840000b6cf58595a20000000000000f6d6000100000000d32d706172610000000000040000000266660000f2a700000d59000013d000000a5b00000000000000006d6c756300000000000000010000000c656e5553000000200000001c0047006f006f0067006c006500200049006e0063002e00200032003000310036ffdb0043000302020302020303030304030304050805050404054d08020a070706080c0a0c0c0b0a0b0b0d0e12100d0e110e0b0b1016101113141515150c0f171816141812141514ffdb00430103040405040509050509140d0b0d1414141414141414141414141414141414141414141414141414141414141414141414141414141414141414141414141414ffc00011080200020003012200021101031101ffc4001a000100020301000000000000000000000000050706090a08ffc40014100100000000000000000000000000000000ffc4001a010100030101010000000000000000000000040607050208ffc40014110100000000000000000000000000000000ffda000c03010002110311003f00d5500000000000000000000000000000000000000000000000000000000000000000000000000000000000000000000000000000000000000000000000000000000000000000000000000000000000000000000000000000000000000000000000000000000000000000000000000000000000000000000000000000000000000000000000000000000000000000000000000000000000000000000000000000000000000000000000000000000000000000000000000000000000000000000000000000000000000000000000000000000000000000000000000000000000000000000000000000000000000000000000000000000000000000000000000000000000000000000000000000000000000000004d080200000000000000000000000000000000000000000000000000000000000000000000000000000000000000000000000000000000000000000000000000000000000000000000000000000000000000000000000000000000000000000000000000000000000000000000000000000000000000000000000000000000000000000000000000000000000000000000000000000000000000000000000000000000000000000000000000000000000000000000000000000000000000000000000000000000000000000000000000000000000000000000000000000000000000bc804b674000000000000000000000000a3404468a000000000000000000000000000000000000000000000000000000000000b8804b51000120008acac0652dc80019580e6a70000000000000000000003c6e035d510000000000000000000000000000000000000000000001680090a780000024807b44000480022b2b0194b72000656039a9c000000000000000000000f1b80d75440000000000000000000000000000000000000000000005a002429e0000009201ed1000120008acac0652dc80019580e6a70000000000000000000003c6e035d510000000000000000000000000000000000000000000001680090a780000024807b44000480022b2b0194b72000656039a9c000000000000000000000f1b80d75440000000000000000000000000000000004d08020000000000005a002429e0000009201ed1000120008ade800b6b2900000000000000068140529f4c37f402eaf99da05014a7d30dfd00babe67737a028efa6c000000000000000000000000000000000000000000001680090a780000024807b44000480022b7a002daca40019800e234873aa038ad40000000001d1500ed32f73aa038ad400000000015b80f0f6000000000000000000000000000000000000000000b4004853c0012403da20002400115bd0016d652000cc00711a43c8a039ed0c000000001eba01d0678f2280e7b43000000000691c042740000000000000000000000000000000000000000001680090a780024807b44000480022b7a002daca40019800e234866c0384d4dccf80f6f0000e9800787b61203bacb19b00e1353733e03dbc0003a6001e1edcab800000000000000000000000000000000000000000000b4004853c0012403da20002400115bd0016d652000cc00711a4000000000000000000000000398d01c26a6000000000000000000000000000000000000000000000b4004853c0012403da20002400115bd0016d652000cc00711a4000000000000000000000000398d01c26a6000000000000000000000000000000000000000000000b4004853c0012403da20002400115bd0016d652000cc00711a4000000000000000000000000398d01c26a6000000000000000000000000000000000000000000004d08020b4004853c0012403da20002400115bd0016d652d2d00f9f1f6437aa03687cfe000000000000000000000000e6340709a98000000000000000000000000000000000000000000000002d001214f4900f6880009000456f4005b594b4b403e7c7d90cac073538000000000000000000000001e3701aea88000000000000000000000000000000000000000000000000b4004853d2403da20002400115bd0016d652d2d00f9f1f6432b01cd4e00000000000000000000000078dc06baa20000000000000000000000000000000000000000000000002d001214f4900f6880009000456f4005b594800000000000000000341a029edad2403da229d01117b0000000000000000000000000000000000000000000000005a002429e000000000000000000000c8807b728000000000000000000000000000000001468088d14000000000000000000000000000000001680090a780000000000000000000032201edca00000000000000000000000000000000051a0223450000000000000000000000000000000005a002429e000000000000000000000c8807b728000001d1b0088d15ce48096ce8000000001d1b0088d15ce48096ce8000001468088d14000000000000000000000000000000001680090a780000000000000000000032201edca000000746c0223457392025b3a000000000746c0223457392025b3a00000051a0223450000000004c930000000000000000000000005a002429e000000000000000000000c8807b728000001d1b0088d15ce48096ce8000000001d1b0088d15ce48096ce8000001468088d14000000000000000000000000000000001680090a780000000000000000000032201edca000000746c0223457392025b3a000000000746c0223457392025b3a00000051a0223450000000000000007ffd9680063036f726401011e6170706c69636174696f6e2f6a736f6e3b636861727365743d7574662d38004d4b017b2270223a22766f7264222c2276223a312c227479223a22696e7363222c22636f6c223a2230323336303866343162323735633034313737386331353733383530366633633665336536313539646139333364333761343531373566643833313436666237222c22696964223a224e4f4445205341544f534849222c227075626c223a2231455337623370636a527a4667796969714c7278484b546e43686535364c4a485937222c226e6f6e6365223a3938322c226d696e746572223a2262633171346d6e77307078613737687733707232777567677a397679346e386c70707273613832353963222c22736967223a22477764746479524b4a4838726d30666d6a616d333336744e36736e414d544b5568664e4b3569565546326d47505668494e433379674c6f6369664167666a5a784352312b66544f37624a4a722f6548737a6232343653383d227d68",
        "c0f2d00e1cce0b839d2e197679cac7a15152ec244338032c7767f72c1332d49a65675a92934efa5e4869b2432a3e00abfc6819367af43949c2edc693b32d23ac05"
      ],
      "is_coinbase": false,
      "sequence": 4294967293
    }
  ],
  "vout": [
    {
      "scriptpubkey": "0014aee6e784ddf7aee8846a7710811584accff08470",
      "scriptpubkey_asm": "OP_0 OP_PUSHBYTES_20 aee6e784ddf7aee8846a7710811584accff08470",
      "scriptpubkey_type": "v0_p2wpkh",
      "scriptpubkey_address": "bc1q4mnw0pxa77hw3pr2wuggz9vy4n8lpprsa8259c",
      "value": 1000
    },
    {
      "scriptpubkey": "5120690fc8b7fefd11506ba7a7176eca71153a3c0390a407d6de8bb6a33aa12dcdf0",
      "scriptpubkey_asm": "OP_PUSHNUM_1 OP_PUSHBYTES_32 690fc8b7fefd11506ba7a7176eca71153a3c0390a407d6de8bb6a33aa12dcdf0",
      "scriptpubkey_type": "v1_p2tr",
      "scriptpubkey_address": "bc1pdy8u3dl7l5g4q6a85utkajn3z5arcqus5sradh5tk63n4gfdehcqryzwum",
      "value": 6729
    },
    {
      "scriptpubkey": "51200705a5767db892e98125775049b1a13dd9ecdc8aea0df413cabbee683e871012",
      "scriptpubkey_asm": "OP_PUSHNUM_1 OP_PUSHBYTES_32 0705a5767db892e98125775049b1a13dd9ecdc8aea0df413cabbee683e871012",
      "scriptpubkey_type": "v1_p2tr",
      "scriptpubkey_address": "bc1pquz62anahzfwnqf9wagynvdp8hv7ehy2agxlgy72h0hxs058zqfqk8ksyq",
      "value": 2915
    }
  ],
  "size": 3499,
  "weight": 4003,
  "fee": 11011,
  "status": {
    "confirmed": true,
    "block_height": 834464,
    "block_hash": "0000000000000000000177a0869a911a2b65c9bdcd5a8bcb02b68f305bee848e",
    "block_time": 1710308296
  },
  "hex": "020000000001010040070431720cffc917fc772226649e49a8d35a299919b6f742438d2603eb020000000000fdffffff03e803000000000000160014aee6e784ddf7aee8846a7710811584accff08470491a000000000000225120690fc8b7fefd11506ba7a7176eca71153a3c0390a407d6de8bb6a33aa12dcdf0630b0000000000002251200705a5767db892e98125775049b1a13dd9ecdc8aea0df413cabbee683e871012034051b8e889e6d6d154864e7ab74a0ae7e829ec2ffc5ab048e4bc4e6700a980e7f4936f34c48b47b0d00586759ccee03d027c7bd99585792a01a36273359f50d24ffd7a0c20f2d00e1cce0b839d2e197679cac7a15152ec244338032c7767f72c1332d49a65ac0063036f726401010a696d6167652f6a706567004d0802ffd8ffe000104a46494600010100000100010000ffe201d84943435f50524f46494c45000101000001c800000000043000006d6e74725247422058595a2007e00001000100000000000061637370000000000000000000000000000000000000000000000000000000010000f6d6000100000000d32d0000000000000000000000000000000000000000000000000000000000000000000000000000000000000000000000000000000964657363000000f0000000247258595a00000114000000146758595a00000128000000146258595a0000013c00000014777470740000015000000014725452430000016400000028675452430000016400000028625452430000016400000028637072740000018c0000003c6d6c756300000000000000010000000c656e5553000000080000001c007300520047004258595a200000000000006fa2000038f50000039058595a2000000000000062990000b785000018da58595a2000000000000024a000000f840000b6cf58595a20000000000000f6d6000100000000d32d706172610000000000040000000266660000f2a700000d59000013d000000a5b00000000000000006d6c756300000000000000010000000c656e5553000000200000001c0047006f006f0067006c006500200049006e0063002e00200032003000310036ffdb0043000302020302020303030304030304050805050404054d08020a070706080c0a0c0c0b0a0b0b0d0e12100d0e110e0b0b1016101113141515150c0f171816141812141514ffdb00430103040405040509050509140d0b0d1414141414141414141414141414141414141414141414141414141414141414141414141414141414141414141414141414ffc00011080200020003012200021101031101ffc4001a000100020301000000000000000000000000050706090a08ffc40014100100000000000000000000000000000000ffc4001a010100030101010000000000000000000000040607050208ffc40014110100000000000000000000000000000000ffda000c03010002110311003f00d5500000000000000000000000000000000000000000000000000000000000000000000000000000000000000000000000000000000000000000000000000000000000000000000000000000000000000000000000000000000000000000000000000000000000000000000000000000000000000000000000000000000000000000000000000000000000000000000000000000000000000000000000000000000000000000000000000000000000000000000000000000000000000000000000000000000000000000000000000000000000000000000000000000000000000000000000000000000000000000000000000000000000000000000000000000000000000000000000000000000000000000004d080200000000000000000000000000000000000000000000000000000000000000000000000000000000000000000000000000000000000000000000000000000000000000000000000000000000000000000000000000000000000000000000000000000000000000000000000000000000000000000000000000000000000000000000000000000000000000000000000000000000000000000000000000000000000000000000000000000000000000000000000000000000000000000000000000000000000000000000000000000000000000000000000000000000000000bc804b674000000000000000000000000a3404468a000000000000000000000000000000000000000000000000000000000000b8804b51000120008acac0652dc80019580e6a70000000000000000000003c6e035d510000000000000000000000000000000000000000000001680090a780000024807b44000480022b2b0194b72000656039a9c000000000000000000000f1b80d75440000000000000000000000000000000000000000000005a002429e0000009201ed1000120008acac0652dc80019580e6a70000000000000000000003c6e035d510000000000000000000000000000000000000000000001680090a780000024807b44000480022b2b0194b72000656039a9c000000000000000000000f1b80d75440000000000000000000000000000000004d08020000000000005a002429e0000009201ed1000120008ade800b6b2900000000000000068140529f4c37f402eaf99da05014a7d30dfd00babe67737a028efa6c000000000000000000000000000000000000000000001680090a780000024807b44000480022b7a002daca40019800e234873aa038ad40000000001d1500ed32f73aa038ad400000000015b80f0f6000000000000000000000000000000000000000000b4004853c0012403da20002400115bd0016d652000cc00711a43c8a039ed0c000000001eba01d0678f2280e7b43000000000691c042740000000000000000000000000000000000000000001680090a780024807b44000480022b7a002daca40019800e234866c0384d4dccf80f6f0000e9800787b61203bacb19b00e1353733e03dbc0003a6001e1edcab800000000000000000000000000000000000000000000b4004853c0012403da20002400115bd0016d652000cc00711a4000000000000000000000000398d01c26a6000000000000000000000000000000000000000000000b4004853c0012403da20002400115bd0016d652000cc00711a4000000000000000000000000398d01c26a6000000000000000000000000000000000000000000000b4004853c0012403da20002400115bd0016d652000cc00711a4000000000000000000000000398d01c26a6000000000000000000000000000000000000000000004d08020b4004853c0012403da20002400115bd0016d652d2d00f9f1f6437aa03687cfe000000000000000000000000e6340709a98000000000000000000000000000000000000000000000002d001214f4900f6880009000456f4005b594b4b403e7c7d90cac073538000000000000000000000001e3701aea88000000000000000000000000000000000000000000000000b4004853d2403da20002400115bd0016d652d2d00f9f1f6432b01cd4e00000000000000000000000078dc06baa20000000000000000000000000000000000000000000000002d001214f4900f6880009000456f4005b594800000000000000000341a029edad2403da229d01117b0000000000000000000000000000000000000000000000005a002429e000000000000000000000c8807b728000000000000000000000000000000001468088d14000000000000000000000000000000001680090a780000000000000000000032201edca00000000000000000000000000000000051a0223450000000000000000000000000000000005a002429e000000000000000000000c8807b728000001d1b0088d15ce48096ce8000000001d1b0088d15ce48096ce8000001468088d14000000000000000000000000000000001680090a780000000000000000000032201edca000000746c0223457392025b3a000000000746c0223457392025b3a00000051a0223450000000004c930000000000000000000000005a002429e000000000000000000000c8807b728000001d1b0088d15ce48096ce8000000001d1b0088d15ce48096ce8000001468088d14000000000000000000000000000000001680090a780000000000000000000032201edca000000746c0223457392025b3a000000000746c0223457392025b3a00000051a0223450000000000000007ffd9680063036f726401011e6170706c69636174696f6e2f6a736f6e3b636861727365743d7574662d38004d4b017b2270223a22766f7264222c2276223a312c227479223a22696e7363222c22636f6c223a2230323336303866343162323735633034313737386331353733383530366633633665336536313539646139333364333761343531373566643833313436666237222c22696964223a224e4f4445205341544f534849222c227075626c223a2231455337623370636a527a4667796969714c7278484b546e43686535364c4a485937222c226e6f6e6365223a3938322c226d696e746572223a2262633171346d6e77307078613737687733707232777567677a397679346e386c70707273613832353963222c22736967223a22477764746479524b4a4838726d30666d6a616d333336744e36736e414d544b5568664e4b3569565546326d47505668494e433379674c6f6369664167666a5a784352312b66544f37624a4a722f6548737a6232343653383d227d6841c0f2d00e1cce0b839d2e197679cac7a15152ec244338032c7767f72c1332d49a65675a92934efa5e4869b2432a3e00abfc6819367af43949c2edc693b32d23ac0500000000"
}