{
  "txid": "5ecf18f584bdf50ca374bfe49104126da278b87286df2df5d90c73b64133502f",
  "version": 2,
  "locktime": 0,
  "vin": [
    {
      "txid": "c55d13bd120f0d981e9ec0f71bacefef1f04c781ad535db3b299802291cb1c4f",
      "vout": 2,
      "prevout": {
        "scriptpubkey": "512029342bcb78c7145dd84898d21cee79d8eba0b40b76154822041947a75c712b24",
        "scriptpubkey_asm": "OP_PUSHNUM_1 OP_PUSHBYTES_32 29342bcb78c7145dd84898d21cee79d8eba0b40b76154822041947a75c712b24",
        "scriptpubkey_type": "v1_p2tr",
        "scriptpubkey_address": "bc1p9y6zhjmccu29mkzgnrfpemnemr46pdqtwc25sgsyr9r6whr39vjqa5xxey",
        "value": 3441
      },
      "scriptsig": "",
      "scriptsig_asm": "",
      "witness": [
        "80366b88bcc3b65b2b1b014ad0e6d9255a6d8589b5bba00b677e113bde219d24f58440aa01d747e838b70b5ecf57dc7dcfe8f6ec5c58aef82df61bd411a6bb2a",
        "2080f62a6021abe7196eb46d9ec036c045276d82d4df7a906f62a5bfd0a03914dbac0063036f726401011e6170706c69636174696f6e2f6a736f6e3b636861727365743d7574662d38004cd37b2270223a22706f772d3230222c226f70223a226d696e74222c227469636b223a2250455045222c22616d74223a2231303030222c22736f6c7574696f6e223a22504550453a626331706b79306a6d686471683675343061616b6e353376673936387a3533396379383879633261386b78656d6e703832786c76633336736763773777653a303030303030303030303030303030303030303139393431613561653132383937363539383134343239323533333030353762306461393666336465613163353a3234333838353532373736227d68",
        "c053c416cf7a0a7bfeca3887b8d7742e19b7125829738fef977e775c0a6289d195"
      ],
      "is_coinbase": false,
      "sequence": 4294967295
    }
  ],
  "vout": [
    {
      "scriptpubkey": "5120b11f2ddda0beb957f7b69d22c4174715225c10e72615d3d8d9dcc2751becc475",
      "scriptpubkey_asm": "OP_PUSHNUM_1 OP_PUSHBYTES_32 b11f2ddda0beb957f7b69d22c4174715225c10e72615d3d8d9dcc2751becc475",
      "scriptpubkey_type": "v1_p2tr",
      "scriptpubkey_address": "bc1pky0jmhdqh6u40aakn53vg968z539cy88yc2a8kxemnp82xlvc36sgcw7we",
      "value": 546
    }
  ],
  "size": 487,
  "weight": 769,
  "fee": 2895,
  "status": {
    "confirmed": true,
    "block_height": 834460,
    "block_hash": "00000000000000000000484a79b643b2524bbce82e5d8a442013fa5b8905ed98",
    "block_time": 1710307468
  },
  "hex": "020000000001014f1ccb91228099b2b35d53ad81c7041fefefac1bf7c09e1e980d0f12bd135dc50200000000ffffffff012202000000000000225120b11f2ddda0beb957f7b69d22c4174715225c10e72615d3d8d9dcc2751becc475034080366b88bcc3b65b2b1b014ad0e6d9255a6d8589b5bba00b677e113bde219d24f58440aa01d747e838b70b5ecf57dc7dcfe8f6ec5c58aef82df61bd411a6bb2afd20012080f62a6021abe7196eb46d9ec036c045276d82d4df7a906f62a5bfd0a03914dbac0063036f726401011e6170706c69636174696f6e2f6a736f6e3b636861727365743d7574662d38004cd37b2270223a22706f772d3230222c226f70223a226d696e74222c227469636b223a2250455045222c22616d74223a2231303030222c22736f6c7574696f6e223a22504550453a626331706b79306a6d686471683675343061616b6e353376673936387a3533396379383879633261386b78656d6e703832786c76633336736763773777653a303030303030303030303030303030303030303139393431613561653132383937363539383134343239323533333030353762306461393666336465613163353a3234333838353532373736227d6821c053c416cf7a0a7bfeca3887b8d7742e19b7125829738fef977e775c0a6289d19500000000"
}