{
  "txid": "5ed717a11d4656c86249585e246fb9a6e3d762b7d8dd56a4a729a6265323a3c3",
  "version": 1,
  "locktime": 0,
  "vin": [
    {
      "txid": "8dd61e54b14fd9e67b477551909201634680be720195fdf281e566fe30ea2e88",
      "vout": 0,
      "prevout": {
        "scriptpubkey": "001484722c9617f9fb5a606cd01ec28b908c0c4db72d",
        "scriptpubkey_asm": "OP_0 OP_PUSHBYTES_20 84722c9617f9fb5a606cd01ec28b908c0c4db72d",
        "scriptpubkey_type": "v0_p2wpkh",
        "scriptpubkey_address": "bc1qs3eze9shl8a45crv6q0v9zus3sxymdedfv9fta",
        "value": 20475
      },
      "scriptsig": "",
      "scriptsig_asm": "",
      "witness": [
        "304402200f03357604b96234586cdae97db770b26a432592fbfb3a99fa8555e9a290b97c02204aab727ffdf8172c432da6862bbab9a717bfa9525b5cf568d2d763109d65add101",
        "03239ab955098171c3672ae1a9f55f02a51c7f194c874c195db4c457ad9d15e698"
      ],
      "is_coinbase": false,
      "sequence": 4294967295
    }
  ],
  "vout": [
    {
      "scriptpubkey": "76a9144b5a78a2edcba9aaeeb693a7b62b850c3dc5a88688ac",
      "scriptpubkey_asm": "OP_DUP OP_HASH160 OP_PUSHBYTES_20 4b5a78a2edcba9aaeeb693a7b62b850c3dc5a886 OP_EQUALVERIFY OP_CHECKSIG",
      "scriptpubkey_type": "p2pkh",
      "scriptpubkey_address": "17sS4STgp3RRw1YL4bwsKYCxLKfXLGpX7k",
      "value": 13620
    },
    {
      "scriptpubkey": "0014bc93b4d63605d0f367ccba1474097fd2721a53a0",
      "scriptpubkey_asm": "OP_0 OP_PUSHBYTES_20 bc93b4d63605d0f367ccba1474097fd2721a53a0",
      "scriptpubkey_type": "v0_p2wpkh",
      "scriptpubkey_address": "bc1qhjfmf43kqhg0xe7vhg28gztl6fep55aqa68l77",
      "value": 3143
    }
  ],
  "size": 225,
  "weight": 573,
  "fee": 3712,
  "status": {
    "confirmed": true,
    "block_height": 834638,
    "block_hash": "000000000000000000025f742c626208ac87e0b7d15054abb4a19ca2d735a54e",
    "block_time": 1710405325
  },
  "hex": "01000000000101882eea30fe66e581f2fd950172be8046630192905175477be6d94fb1541ed68d0000000000ffffffff0234350000000000001976a9144b5a78a2edcba9aaeeb693a7b62b850c3dc5a88688ac470c000000000000160014bc93b4d63605d0f367ccba1474097fd2721a53a00247304402200f03357604b96234586cdae97db770b26a432592fbfb3a99fa8555e9a290b97c02204aab727ffdf8172c432da6862bbab9a717bfa9525b5cf568d2d763109d65add1012103239ab955098171c3672ae1a9f55f02a51c7f194c874c195db4c457ad9d15e69800000000"
}