{
  "txid": "5eddfcaca70c38540eae624a5da94d25947a56cca5c479496d2736bb4a3b7b85",
  "version": 2,
  "locktime": 834637,
  "vin": [
    {
      "txid": "9e1c914146f5ff775cb6036b82e89b0fcbb4adcf70abb93a5a38a5b9d2802816",
      "vout": 1,
      "prevout": {
        "scriptpubkey": "0014296036ae7ecb987c6afc2fb0b4e6690ad9088da9",
        "scriptpubkey_asm": "OP_0 OP_PUSHBYTES_20 296036ae7ecb987c6afc2fb0b4e6690ad9088da9",
        "scriptpubkey_type": "v0_p2wpkh",
        "scriptpubkey_address": "bc1q99srdtn7ewv8c6hu97ctfenfptvs3rdfpyf6cf",
        "value": 9174606
      },
      "scriptsig": "",
      "scriptsig_asm": "",
      "witness": [
        "304402204059f2acd52f2214f651c0874e6b4bb27386f54df831d084b8b52b04f8b9edbb02206a00c94c930181d8a0835ab92726c7bf879f58a64eef4a4c4f8d13024abf158901",
        "028a69c4f494f73480327a778670a1ce3103c4c2059754b0cc49a5c38a25fee3ae"
      ],
      "is_coinbase": false,
      "sequence": 4294967293
    }
  ],
  "vout": [
    {
      "scriptpubkey": "76a91448944258020449a9ee27515a119965f69c50699d88ac",
      "scriptpubkey_asm": "OP_DUP OP_HASH160 OP_PUSHBYTES_20 48944258020449a9ee27515a119965f69c50699d OP_EQUALVERIFY OP_CHECKSIG",
      "scriptpubkey_type": "p2pkh",
      "scriptpubkey_address": "17cmG3EWjZjPWCx9VezoAK6X6ZXDzHqZuP",
      "value": 400000
    },
    {
      "scriptpubkey": "0014b861d034039458862c3c321d125b106f0bdfe1b4",
      "scriptpubkey_asm": "OP_0 OP_PUSHBYTES_20 b861d034039458862c3c321d125b106f0bdfe1b4",
      "scriptpubkey_type": "v0_p2wpkh",
      "scriptpubkey_address": "bc1qhpsaqdqrj3vgvtpuxgw3ykcsdu9alcd5wz5n0c",
      "value": 8772300
    }
  ],
  "size": 225,
  "weight": 573,
  "fee": 2306,
  "status": {
    "confirmed": true,
    "block_height": 834638,
    "block_hash": "000000000000000000025f742c626208ac87e0b7d15054abb4a19ca2d735a54e",
    "block_time": 1710405325
  },
  "hex": "02000000000101162880d2b9a5385a3ab9ab70cfadb4cb0f9be8826b03b65c77fff54641911c9e0100000000fdffffff02801a0600000000001976a91448944258020449a9ee27515a119965f69c50699d88acccda850000000000160014b861d034039458862c3c321d125b106f0bdfe1b40247304402204059f2acd52f2214f651c0874e6b4bb27386f54df831d084b8b52b04f8b9edbb02206a00c94c930181d8a0835ab92726c7bf879f58a64eef4a4c4f8d13024abf15890121028a69c4f494f73480327a778670a1ce3103c4c2059754b0cc49a5c38a25fee3ae4dbc0c00"
}