{
  "txid": "5f05c6923adcb16580e2f83701c2672609edacde17c713cac8d0139e731b368d",
  "version": 1,
  "locktime": 0,
  "vin": [
    {
      "txid": "3a527b5dd0687a439eaf2617b7b408304981edf0ea66e0de65d82a5d0ebe087d",
      "vout": 1,
      "prevout": {
        "scriptpubkey": "a914b0990f4e12058988d921c7d30f06b15b3107a94a87",
        "scriptpubkey_asm": "OP_HASH160 OP_PUSHBYTES_20 b0990f4e12058988d921c7d30f06b15b3107a94a OP_EQUAL",
        "scriptpubkey_type": "p2sh",
        "scriptpubkey_address": "3HnnD5xGLKmTkGi6MMeXK4ZcNXfNg4qzL7",
        "value": 25000
      },
      "scriptsig": "220020c43b03bf55b0b363591b232127e877b29f8493f0a188b586cf998aec5bfe9e8a",
      "scriptsig_asm": "OP_PUSHBYTES_34 0020c43b03bf55b0b363591b232127e877b29f8493f0a188b586cf998aec5bfe9e8a",
      "witness": [
        "",
        "3045022100b0d2e8858d2057634e1a6aef8214d0f4fb065cce5e40952cf79431d9bb8e8ffd02204133e1ec03d776a5de282de468e8c76a36ad75c36f9ba9f2c78e46b41888aaf501",
        "30440220083a9d40dca80ce258bd1d826e8a2429d4cb9aed2364555268bf1da9e5a0e1a40220711c4a02ae8490934167785de5350b451a5d092472c0430f3e536b56a5038a0801",
        "5221033ea23a264cc9b7d651b3453f3c6f72303a250b1c370c87787ae05024aa04ca44210236f7752938a65c1655de865bd248cb40df275e48c77f4628df1d30f1e46893742102bfc1aa1f83f22f73515fcc4e4ac2e7d9fed6895732ffecb12ac9ba0d4b47a6de53ae"
      ],
      "is_coinbase": false,
      "sequence": 4294967293,
      "inner_redeemscript_asm": "OP_0 OP_PUSHBYTES_32 c43b03bf55b0b363591b232127e877b29f8493f0a188b586cf998aec5bfe9e8a",
      "inner_witnessscript_asm": "OP_PUSHNUM_2 OP_PUSHBYTES_33 033ea23a264cc9b7d651b3453f3c6f72303a250b1c370c87787ae05024aa04ca44 OP_PUSHBYTES_33 0236f7752938a65c1655de865bd248cb40df275e48c77f4628df1d30f1e4689374 OP_PUSHBYTES_33 02bfc1aa1f83f22f73515fcc4e4ac2e7d9fed6895732ffecb12ac9ba0d4b47a6de OP_PUSHNUM_3 OP_CHECKMULTISIG"
    },
    {
      "txid": "75fd7f0b729c9f1f68e66bc125c5b245a6c3717dfce709f10cc1585c94782b1d",
      "vout": 0,
      "prevout": {
        "scriptpubkey": "a914cd170989c482e95129a3d5308a3b3145c036eac187",
        "scriptpubkey_asm": "OP_HASH160 OP_PUSHBYTES_20 cd170989c482e95129a3d5308a3b3145c036eac1 OP_EQUAL",
        "scriptpubkey_type": "p2sh",
        "scriptpubkey_address": "3LPS3XSvvXNn4g3x6JechriYggFCKGrS6v",
        "value": 307942
      },
      "scriptsig": "220020d4ec004a84a7e476e1cf0dc77d6b0bab3152012578eed152b07d77ed9ec784b5",
      "scriptsig_asm": "OP_PUSHBYTES_34 0020d4ec004a84a7e476e1cf0dc77d6b0bab3152012578eed152b07d77ed9ec784b5",
      "witness": [
        "",
        "3044022047a8637e28a250a84fe76e5386a412184f8e1819363d4180c75991a090a4cfad02202dc4591f43498608bbc6192080ac1e611e65afe91fea6cdcccc031d520349b9401",
        "304402202f7cd136d32ea991ea7097baa2383f7896177d886454521c8d51f140ea97348002205163642a1acc3b1e8c308b51b5912bda5c36b49d48720493083255ad8691920001",
        "5221021b3f68477dce51a54eaf32f809c5d9feb49fbb212f5323cf86d577deb22d916b210364bb3e12f667e40ec2c8ba50d8c337e77a678d770db9deaaf169355b0875830021033a20786ade792bf100e29e51f9b613a607f280790b632e2c91bfc232be898d2753ae"
      ],
      "is_coinbase": false,
      "sequence": 4294967293,
      "inner_redeemscript_asm": "OP_0 OP_PUSHBYTES_32 d4ec004a84a7e476e1cf0dc77d6b0bab3152012578eed152b07d77ed9ec784b5",
      "inner_witnessscript_asm": "OP_PUSHNUM_2 OP_PUSHBYTES_33 021b3f68477dce51a54eaf32f809c5d9feb49fbb212f5323cf86d577deb22d916b OP_PUSHBYTES_33 0364bb3e12f667e40ec2c8ba50d8c337e77a678d770db9deaaf169355b08758300 OP_PUSHBYTES_33 033a20786ade792bf100e29e51f9b613a607f280790b632e2c91bfc232be898d27 OP_PUSHNUM_3 OP_CHECKMULTISIG"
    },
    {
      "txid": "a7d9fdb63bce00ed3a0fb0fdaff4d9315f9fe89314c225a3f891f23879988907",
      "vout": 1,
      "prevout": {
        "scriptpubkey": "a914ce7364689f2d42f86a550bc1f672ad644615772a87",
        "scriptpubkey_asm": "OP_HASH160 OP_PUSHBYTES_20 ce7364689f2d42f86a550bc1f672ad644615772a OP_EQUAL",
        "scriptpubkey_type": "p2sh",
        "scriptpubkey_address": "3LWdMepgPsGFeEDdDUVkinFQ7z2vLtMyCL",
        "value": 11000
      },
      "scriptsig": "220020920a07eb67be7451ce221f4b64f7467643e23489517284f5c6da18074d0bb491",
      "scriptsig_asm": "OP_PUSHBYTES_34 0020920a07eb67be7451ce221f4b64f7467643e23489517284f5c6da18074d0bb491",
      "witness": [
        "",
        "30450221009a9c586cccd5e63b13001d190165af7f6fcd281bab8c33d88b3240c22b23b5f902201806d4f93210e5a60af69b64c4b6514bdb9837bd0c13de97c806d416b5c5696c01",
        "304402205c716070d23dfc89410dad160892bf92f65b9a414cf93cf72984d51f221cf4d50220752fcb882caf3416bb8a0b9bf3a179e5a34aa1c9036b814e6abfac78c8ae634e01",
        "522102407268558e706cd9373f219c08647743db27dd75f05bdfb4b4b48a61703945ba21028708037a66e858843d5877e6340c41f955c200a7b5fee2c9dae628b9a3b0a0e621029f493861fcc5d128abdfece7dafb439fe108c30eeb2d8e22978fa3a87e3f98b453ae"
      ],
      "is_coinbase": false,
      "sequence": 4294967293,
      "inner_redeemscript_asm": "OP_0 OP_PUSHBYTES_32 920a07eb67be7451ce221f4b64f7467643e23489517284f5c6da18074d0bb491",
      "inner_witnessscript_asm": "OP_PUSHNUM_2 OP_PUSHBYTES_33 02407268558e706cd9373f219c08647743db27dd75f05bdfb4b4b48a61703945ba OP_PUSHBYTES_33 028708037a66e858843d5877e6340c41f955c200a7b5fee2c9dae628b9a3b0a0e6 OP_PUSHBYTES_33 029f493861fcc5d128abdfece7dafb439fe108c30eeb2d8e22978fa3a87e3f98b4 OP_PUSHNUM_3 OP_CHECKMULTISIG"
    },
    {
      "txid": "bc064da99545c23c328dadb08c41c4979df0d3322566f6a80e33a20cdbbe6167",
      "vout": 0,
      "prevout": {
        "scriptpubkey": "a9141bff890b99b873447aa366f8029149a6e09a946487",
        "scriptpubkey_asm": "OP_HASH160 OP_PUSHBYTES_20 1bff890b99b873447aa366f8029149a6e09a9464 OP_EQUAL",
        "scriptpubkey_type": "p2sh",
        "scriptpubkey_address": "34F4HdTY4J3ECGp3g39paQuy9TJ9o3t9zh",
        "value": 196848
      },
      "scriptsig": "220020503ca8f1647613e11b8843fd7f1e2eaaaee57d2f7aaf4d245127d60bccff1781",
      "scriptsig_asm": "OP_PUSHBYTES_34 0020503ca8f1647613e11b8843fd7f1e2eaaaee57d2f7aaf4d245127d60bccff1781",
      "witness": [
        "",
        "3045022100bae93885bf33991c6b3d913d2dff13d08ec8358b305542948763acbfe65ae42b02201882b6b27cf67f09f110301eac6a93048e588e16860aa5c6bf24f7a29e52210c01",
        "304402203683e74d2e73d939261f14cdb7e75c590c5351575b8d3f9478e5e5ecf2089ebe02203d18a117acd37bb776c8a9cf2987405e6fd2e03cec3a995bc2b3b43a7842f7f301",
        "522103382839904ec847ec2b38466439df6832b2f422aa5176580579f82c37e6c80dbd2102cd6f7bf647663fce82baf93fc26ff93bf7291521f19ecabf608469f073da5fc621034eb847d19e756b7841ceaf286afdaeeb3f33d6b90c4c65786d8892f33aa6bace53ae"
      ],
      "is_coinbase": false,
      "sequence": 4294967293,
      "inner_redeemscript_asm": "OP_0 OP_PUSHBYTES_32 503ca8f1647613e11b8843fd7f1e2eaaaee57d2f7aaf4d245127d60bccff1781",
      "inner_witnessscript_asm": "OP_PUSHNUM_2 OP_PUSHBYTES_33 03382839904ec847ec2b38466439df6832b2f422aa5176580579f82c37e6c80dbd OP_PUSHBYTES_33 02cd6f7bf647663fce82baf93fc26ff93bf7291521f19ecabf608469f073da5fc6 OP_PUSHBYTES_33 034eb847d19e756b7841ceaf286afdaeeb3f33d6b90c4c65786d8892f33aa6bace OP_PUSHNUM_3 OP_CHECKMULTISIG"
    },
    {
      "txid": "ecbfea09e4fc2fea4e353c6f8678e9bad3b4b5c4c9b7fdffc58ed394f7971c71",
      "vout": 0,
      "prevout": {
        "scriptpubkey": "a91433d4dfc13e0e3e775998b987f706202f935cf24d87",
        "scriptpubkey_asm": "OP_HASH160 OP_PUSHBYTES_20 33d4dfc13e0e3e775998b987f706202f935cf24d OP_EQUAL",
        "scriptpubkey_type": "p2sh",
        "scriptpubkey_address": "36R5Q5J7hhMVk6v3PcG2dAr1UQgExsY451",
        "value": 537462
      },
      "scriptsig": "220020a1f6c710b4b08e81cfbc60d46d0026062de2199de5f61d74e035cbff5e8be9ce",
      "scriptsig_asm": "OP_PUSHBYTES_34 0020a1f6c710b4b08e81cfbc60d46d0026062de2199de5f61d74e035cbff5e8be9ce",
      "witness": [
        "",
        "3045022100ac30b91b1624afc1bd3192eb2f7fc6826e19c7787a09f576c52b18f3efd0ce4c02203ecdd22e564c3bb04d24b57eac8a536edec2293d2aa2a11018de40305db9ddc701",
        "304402206a9b139816a9ca0b69377a15e49bb3af79cb215b90bd31ce93b785d3ca296779022054a1da1f1598edcb9f5d39772984185fe96c10044302aad1ba41ebc39655db7701",
        "5221027aa0b5fee3274a0815622e36e12e65c6e6e2411879944a3edb228b4055d750962102b953c063de6041856296199731c432096277515e566392e68d5ab26d60922e3f2103868f4f0e80382d65aa3cb5919962bc509b20a738e9bbd5de6db4db49052b584853ae"
      ],
      "is_coinbase": false,
      "sequence": 4294967293,
      "inner_redeemscript_asm": "OP_0 OP_PUSHBYTES_32 a1f6c710b4b08e81cfbc60d46d0026062de2199de5f61d74e035cbff5e8be9ce",
      "inner_witnessscript_asm": "OP_PUSHNUM_2 OP_PUSHBYTES_33 027aa0b5fee3274a0815622e36e12e65c6e6e2411879944a3edb228b4055d75096 OP_PUSHBYTES_33 02b953c063de6041856296199731c432096277515e566392e68d5ab26d60922e3f OP_PUSHBYTES_33 03868f4f0e80382d65aa3cb5919962bc509b20a738e9bbd5de6db4db49052b5848 OP_PUSHNUM_3 OP_CHECKMULTISIG"
    }
  ],
  "vout": [
    {
      "scriptpubkey": "0014f38ae2f1c3227a866f48694821fd9eed12c21012",
      "scriptpubkey_asm": "OP_0 OP_PUSHBYTES_20 f38ae2f1c3227a866f48694821fd9eed12c21012",
      "scriptpubkey_type": "v0_p2wpkh",
      "scriptpubkey_address": "bc1q7w9w9uwryfagvm6gd9yzrlv7a5fvyyqj0a8sdp",
      "value": 63284
    },
    {
      "scriptpubkey": "00204882809bc9f7a68a585592885a965486dae11b6efee0a077d52f4c37c100b266",
      "scriptpubkey_asm": "OP_0 OP_PUSHBYTES_32 4882809bc9f7a68a585592885a965486dae11b6efee0a077d52f4c37c100b266",
      "scriptpubkey_type": "v0_p2wsh",
      "scriptpubkey_address": "bc1qfzpgpx7f77ng5kz4j2y949j5smdwzxmwlms2qa749axr0sgqkfnq3usz53",
      "value": 1003780
    }
  ],
  "size": 1730,
  "weight": 3122,
  "fee": 11188,
  "status": {
    "confirmed": true,
    "block_height": 834460,
    "block_hash": "00000000000000000000484a79b643b2524bbce82e5d8a442013fa5b8905ed98",
    "block_time": 1710307468
  },
  "hex": "010000000001057d08be0e5d2ad865dee066eaf0ed81493008b4b71726af9e437a68d05d7b523a0100000023220020c43b03bf55b0b363591b232127e877b29f8493f0a188b586cf998aec5bfe9e8afdffffff1d2b78945c58c10cf109e7fc7d71c3a645b2c525c16be6681f9f9c720b7ffd750000000023220020d4ec004a84a7e476e1cf0dc77d6b0bab3152012578eed152b07d77ed9ec784b5fdffffff0789987938f291f8a325c21493e89f5f31d9f4affdb00f3aed00ce3bb6fdd9a70100000023220020920a07eb67be7451ce221f4b64f7467643e23489517284f5c6da18074d0bb491fdffffff6761bedb0ca2330ea8f6662532d3f09d97c4418cb0ad8d323cc24595a94d06bc0000000023220020503ca8f1647613e11b8843fd7f1e2eaaaee57d2f7aaf4d245127d60bccff1781fdffffff711c97f794d38ec5fffdb7c9c4b5b4d3bae978866f3c354eea2ffce409eabfec0000000023220020a1f6c710b4b08e81cfbc60d46d0026062de2199de5f61d74e035cbff5e8be9cefdffffff0234f7000000000000160014f38ae2f1c3227a866f48694821fd9eed12c2101204510f00000000002200204882809bc9f7a68a585592885a965486dae11b6efee0a077d52f4c37c100b2660400483045022100b0d2e8858d2057634e1a6aef8214d0f4fb065cce5e40952cf79431d9bb8e8ffd02204133e1ec03d776a5de282de468e8c76a36ad75c36f9ba9f2c78e46b41888aaf5014730440220083a9d40dca80ce258bd1d826e8a2429d4cb9aed2364555268bf1da9e5a0e1a40220711c4a02ae8490934167785de5350b451a5d092472c0430f3e536b56a5038a0801695221033ea23a264cc9b7d651b3453f3c6f72303a250b1c370c87787ae05024aa04ca44210236f7752938a65c1655de865bd248cb40df275e48c77f4628df1d30f1e46893742102bfc1aa1f83f22f73515fcc4e4ac2e7d9fed6895732ffecb12ac9ba0d4b47a6de53ae0400473044022047a8637e28a250a84fe76e5386a412184f8e1819363d4180c75991a090a4cfad02202dc4591f43498608bbc6192080ac1e611e65afe91fea6cdcccc031d520349b940147304402202f7cd136d32ea991ea7097baa2383f7896177d886454521c8d51f140ea97348002205163642a1acc3b1e8c308b51b5912bda5c36b49d48720493083255ad8691920001695221021b3f68477dce51a54eaf32f809c5d9feb49fbb212f5323cf86d577deb22d916b210364bb3e12f667e40ec2c8ba50d8c337e77a678d770db9deaaf169355b0875830021033a20786ade792bf100e29e51f9b613a607f280790b632e2c91bfc232be898d2753ae04004830450221009a9c586cccd5e63b13001d190165af7f6fcd281bab8c33d88b3240c22b23b5f902201806d4f93210e5a60af69b64c4b6514bdb9837bd0c13de97c806d416b5c5696c0147304402205c716070d23dfc89410dad160892bf92f65b9a414cf93cf72984d51f221cf4d50220752fcb882caf3416bb8a0b9bf3a179e5a34aa1c9036b814e6abfac78c8ae634e0169522102407268558e706cd9373f219c08647743db27dd75f05bdfb4b4b48a61703945ba21028708037a66e858843d5877e6340c41f955c200a7b5fee2c9dae628b9a3b0a0e621029f493861fcc5d128abdfece7dafb439fe108c30eeb2d8e22978fa3a87e3f98b453ae0400483045022100bae93885bf33991c6b3d913d2dff13d08ec8358b305542948763acbfe65ae42b02201882b6b27cf67f09f110301eac6a93048e588e16860aa5c6bf24f7a29e52210c0147304402203683e74d2e73d939261f14cdb7e75c590c5351575b8d3f9478e5e5ecf2089ebe02203d18a117acd37bb776c8a9cf2987405e6fd2e03cec3a995bc2b3b43a7842f7f30169522103382839904ec847ec2b38466439df6832b2f422aa5176580579f82c37e6c80dbd2102cd6f7bf647663fce82baf93fc26ff93bf7291521f19ecabf608469f073da5fc621034eb847d19e756b7841ceaf286afdaeeb3f33d6b90c4c65786d8892f33aa6bace53ae0400483045022100ac30b91b1624afc1bd3192eb2f7fc6826e19c7787a09f576c52b18f3efd0ce4c02203ecdd22e564c3bb04d24b57eac8a536edec2293d2aa2a11018de40305db9ddc70147304402206a9b139816a9ca0b69377a15e49bb3af79cb215b90bd31ce93b785d3ca296779022054a1da1f1598edcb9f5d39772984185fe96c10044302aad1ba41ebc39655db7701695221027aa0b5fee3274a0815622e36e12e65c6e6e2411879944a3edb228b4055d750962102b953c063de6041856296199731c432096277515e566392e68d5ab26d60922e3f2103868f4f0e80382d65aa3cb5919962bc509b20a738e9bbd5de6db4db49052b584853ae00000000"
}