{
  "txid": "5f2551bc1d21afccc5ca0c2e901dd5915ddfb39e0a10a51267d087a9bb5126ac",
  "version": 1,
  "locktime": 0,
  "vin": [
    {
      "txid": "e99133729873b444fea8bcbf6ad0918f1a596f5b8b9a951bd0a1906788146a95",
      "vout": 1,
      "prevout": {
        "scriptpubkey": "002056413a3238c77d602c605e6d3dc36f61133456dabe1550ea413dc31f36e4ad11",
        "scriptpubkey_asm": "OP_0 OP_PUSHBYTES_32 56413a3238c77d602c605e6d3dc36f61133456dabe1550ea413dc31f36e4ad11",
        "scriptpubkey_type": "v0_p2wsh",
        "scriptpubkey_address": "bc1q2eqn5v3cca7kqtrqteknmsm0vyfng4k6hc24p6jp8hp37dhy45gsrhxepq",
        "value": 204799
      },
      "scriptsig": "",
      "scriptsig_asm": "",
      "witness": [
        "",
        "304402201c83f0177e454c61a2025d28eb515a31020c4151839faab9682c3aedf84dfbc10220399a5cbfd3f314f20fc9b0200cf7bc3df91d3b0ddabd163161bfc2f9274b74f001",
        "3044022028421c4f3405790f4ca748ddc53bfe5bbf0df49449536d09c0a18ae2bee61f8302202ec145cd1607bb348b097a32160ace50e8cf9bb2aa93e8a0137cd50e2a6bedc801",
        "5221024984e9a7d96b9dd7d24703ff18ff107f1a751f8adb84add47bc69784545c580021035d9ec159ccded3b6b72c48a57e305e0aeeea03bf9b3aabb46bd24cf8d545f01f52ae"
      ],
      "is_coinbase": false,
      "sequence": 4294967295,
      "inner_witnessscript_asm": "OP_PUSHNUM_2 OP_PUSHBYTES_33 024984e9a7d96b9dd7d24703ff18ff107f1a751f8adb84add47bc69784545c5800 OP_PUSHBYTES_33 035d9ec159ccded3b6b72c48a57e305e0aeeea03bf9b3aabb46bd24cf8d545f01f OP_PUSHNUM_2 OP_CHECKMULTISIG"
    }
  ],
  "vout": [
    {
      "scriptpubkey": "5120179782f70da592f34a329d3a65817adcbc18ff6b8da47984408190964fa1856a",
      "scriptpubkey_asm": "OP_PUSHNUM_1 OP_PUSHBYTES_32 179782f70da592f34a329d3a65817adcbc18ff6b8da47984408190964fa1856a",
      "scriptpubkey_type": "v1_p2tr",
      "scriptpubkey_address": "bc1pz7tc9acd5kf0xj3jn5axtqt6mj7p3lmt3kj8npzqsxgfvnaps44qalkgld",
      "value": 920
    },
    {
      "scriptpubkey": "76a914a933f256c969a59ea4521667f58ad32c4ca06c2f88ac",
      "scriptpubkey_asm": "OP_DUP OP_HASH160 OP_PUSHBYTES_20 a933f256c969a59ea4521667f58ad32c4ca06c2f OP_EQUALVERIFY OP_CHECKSIG",
      "scriptpubkey_type": "p2pkh",
      "scriptpubkey_address": "1GRfRjdLM1ZfD4BvaN58L5RZkT7ZGVzruE",
      "value": 199950
    }
  ],
  "size": 348,
  "weight": 732,
  "fee": 3929,
  "status": {
    "confirmed": true,
    "block_height": 834638,
    "block_hash": "000000000000000000025f742c626208ac87e0b7d15054abb4a19ca2d735a54e",
    "block_time": 1710405325
  },
  "hex": "01000000000101956a14886790a1d01b959a8b5b6f591a8f91d06abfbca8fe44b47398723391e90100000000ffffffff029803000000000000225120179782f70da592f34a329d3a65817adcbc18ff6b8da47984408190964fa1856a0e0d0300000000001976a914a933f256c969a59ea4521667f58ad32c4ca06c2f88ac040047304402201c83f0177e454c61a2025d28eb515a31020c4151839faab9682c3aedf84dfbc10220399a5cbfd3f314f20fc9b0200cf7bc3df91d3b0ddabd163161bfc2f9274b74f001473044022028421c4f3405790f4ca748ddc53bfe5bbf0df49449536d09c0a18ae2bee61f8302202ec145cd1607bb348b097a32160ace50e8cf9bb2aa93e8a0137cd50e2a6bedc801475221024984e9a7d96b9dd7d24703ff18ff107f1a751f8adb84add47bc69784545c580021035d9ec159ccded3b6b72c48a57e305e0aeeea03bf9b3aabb46bd24cf8d545f01f52ae00000000"
}