{
  "txid": "5f25f6d02e7adeedc275f8c6aa9edcc9e58680dcc7fdcc751d9756e7719c03fc",
  "version": 1,
  "locktime": 0,
  "vin": [
    {
      "txid": "88888889b656f3adf91a60cc3865a0be4b18ac92c9313e6780c061213789b61b",
      "vout": 0,
      "prevout": {
        "scriptpubkey": "5120494060998da0047b099694595a48c6d42810dd0a9f1ed661f866c5299c067432",
        "scriptpubkey_asm": "OP_PUSHNUM_1 OP_PUSHBYTES_32 494060998da0047b099694595a48c6d42810dd0a9f1ed661f866c5299c067432",
        "scriptpubkey_type": "v1_p2tr",
        "scriptpubkey_address": "bc1pf9qxpxvd5qz8kzvkj3v45jxx6s5pphg2nu0dvc0cvmzjn8qxwseqe8xujf",
        "value": 11704
      },
      "scriptsig": "",
      "scriptsig_asm": "",
      "witness": [
        "67d03c21a99ed16d2007e31670d22c47ad728e6b16f8d09c684a1a66ae8ad262786072fba3ce3fa2944feefa49cc1e40c2ffa19354cef39be2b4a4f1f79a9403",
        "20c939a6c99941b6d3b54ce120ec99b1597a9557352a600150e097bc361ea60299ac00630461746f6d03646d7442a16461726773a46474696d651a65dc385c656e6f6e636519205268626974776f726b6369383838383838382e316b6d696e745f7469636b657268696e66696e69747968",
        "c0c939a6c99941b6d3b54ce120ec99b1597a9557352a600150e097bc361ea60299"
      ],
      "is_coinbase": false,
      "sequence": 1
    }
  ],
  "vout": [
    {
      "scriptpubkey": "5120b510c4cbbd9adad0840a5f50b2fbc7bb1d8231996d5f115e52bb89456507f42a",
      "scriptpubkey_asm": "OP_PUSHNUM_1 OP_PUSHBYTES_32 b510c4cbbd9adad0840a5f50b2fbc7bb1d8231996d5f115e52bb89456507f42a",
      "scriptpubkey_type": "v1_p2tr",
      "scriptpubkey_address": "bc1pk5gvfjaantddppq2tagt9778hvwcyvved403zhjjhwy52eg87s4qdwylgf",
      "value": 9999
    }
  ],
  "size": 310,
  "weight": 592,
  "fee": 1705,
  "status": {
    "confirmed": true,
    "block_height": 834464,
    "block_hash": "0000000000000000000177a0869a911a2b65c9bdcd5a8bcb02b68f305bee848e",
    "block_time": 1710308296
  },
  "hex": "010000000001011bb689372161c080673e31c992ac184bbea06538cc601af9adf356b689888888000000000001000000010f27000000000000225120b510c4cbbd9adad0840a5f50b2fbc7bb1d8231996d5f115e52bb89456507f42a034067d03c21a99ed16d2007e31670d22c47ad728e6b16f8d09c684a1a66ae8ad262786072fba3ce3fa2944feefa49cc1e40c2ffa19354cef39be2b4a4f1f79a94037120c939a6c99941b6d3b54ce120ec99b1597a9557352a600150e097bc361ea60299ac00630461746f6d03646d7442a16461726773a46474696d651a65dc385c656e6f6e636519205268626974776f726b6369383838383838382e316b6d696e745f7469636b657268696e66696e6974796821c0c939a6c99941b6d3b54ce120ec99b1597a9557352a600150e097bc361ea6029900000000"
}