{
  "txid": "5f3491ff9569af2f43ab0459b30be6ea7849400527841350ded83f9d1240c7cc",
  "version": 1,
  "locktime": 0,
  "vin": [
    {
      "txid": "f6dd49e82aaa6be178dbe738a2d2a844394877cf373c65830bb1fc86dedca9ea",
      "vout": 1,
      "prevout": {
        "scriptpubkey": "00143b3b3689cbfe2a02dfcfae336a7fc0122ad70d7a",
        "scriptpubkey_asm": "OP_0 OP_PUSHBYTES_20 3b3b3689cbfe2a02dfcfae336a7fc0122ad70d7a",
        "scriptpubkey_type": "v0_p2wpkh",
        "scriptpubkey_address": "bc1q8vandzwtlc4q9h704cek5l7qzg4dwrt68jtuds",
        "value": 375589
      },
      "scriptsig": "",
      "scriptsig_asm": "",
      "witness": [
        "304502210084be010000d6f795338d691e680b5e535ef64894b1fa0671514c944ea191a0ae022019b7ba72b5fdf6cd15df7bab3be1d27ecc3c8acc66173f9e5912441dafc705d401",
        "02f4fd3b0c9e362ac3a3c2deb4f2a2cefdfd9342e18339ccb62e627780c04157ff"
      ],
      "is_coinbase": false,
      "sequence": 4294967295
    },
    {
      "txid": "f627ce14687f91441f1c6f0d84a116655919e26e65d5423c7375cfe8a7c397b6",
      "vout": 0,
      "prevout": {
        "scriptpubkey": "00143b3b3689cbfe2a02dfcfae336a7fc0122ad70d7a",
        "scriptpubkey_asm": "OP_0 OP_PUSHBYTES_20 3b3b3689cbfe2a02dfcfae336a7fc0122ad70d7a",
        "scriptpubkey_type": "v0_p2wpkh",
        "scriptpubkey_address": "bc1q8vandzwtlc4q9h704cek5l7qzg4dwrt68jtuds",
        "value": 198562
      },
      "scriptsig": "",
      "scriptsig_asm": "",
      "witness": [
        "3044022036d35b6cd147aa8bba52258d2cd14de1fd3ac13d7b348a06444aedbb4cb86d5c02204448ed69712ae672c7b393cfc9a86f8933a6c134bdbd26447cc62d6bd2d3d6fb01",
        "02f4fd3b0c9e362ac3a3c2deb4f2a2cefdfd9342e18339ccb62e627780c04157ff"
      ],
      "is_coinbase": false,
      "sequence": 4294967295
    }
  ],
  "vout": [
    {
      "scriptpubkey": "76a914a0c3786abe705cf93edbe8a3f9b89dab034020b888ac",
      "scriptpubkey_asm": "OP_DUP OP_HASH160 OP_PUSHBYTES_20 a0c3786abe705cf93edbe8a3f9b89dab034020b8 OP_EQUALVERIFY OP_CHECKSIG",
      "scriptpubkey_type": "p2pkh",
      "scriptpubkey_address": "1Ff3HDM9RHJRh1Vw13sJTf7u8Wa73BcP64",
      "value": 570000
    }
  ],
  "size": 343,
  "weight": 721,
  "fee": 4151,
  "status": {
    "confirmed": true,
    "block_height": 834638,
    "block_hash": "000000000000000000025f742c626208ac87e0b7d15054abb4a19ca2d735a54e",
    "block_time": 1710405325
  },
  "hex": "01000000000102eaa9dcde86fcb10b83653c37cf77483944a8d2a238e7db78e16baa2ae849ddf60100000000ffffffffb697c3a7e8cf75733c42d5656ee219596516a1840d6f1c1f44917f6814ce27f60000000000ffffffff0190b20800000000001976a914a0c3786abe705cf93edbe8a3f9b89dab034020b888ac0248304502210084be010000d6f795338d691e680b5e535ef64894b1fa0671514c944ea191a0ae022019b7ba72b5fdf6cd15df7bab3be1d27ecc3c8acc66173f9e5912441dafc705d4012102f4fd3b0c9e362ac3a3c2deb4f2a2cefdfd9342e18339ccb62e627780c04157ff02473044022036d35b6cd147aa8bba52258d2cd14de1fd3ac13d7b348a06444aedbb4cb86d5c02204448ed69712ae672c7b393cfc9a86f8933a6c134bdbd26447cc62d6bd2d3d6fb012102f4fd3b0c9e362ac3a3c2deb4f2a2cefdfd9342e18339ccb62e627780c04157ff00000000"
}