{
  "txid": "5f3508474e41a1d6e0470ef9d881b7d4f94a9c06254b5e0c4b97487d232da456",
  "version": 1,
  "locktime": 0,
  "vin": [
    {
      "txid": "888888888cae9de737ea4305fa7b5797bef0b91da88681e7fd80ef9eac497a3b",
      "vout": 0,
      "prevout": {
        "scriptpubkey": "51207f6224eefbb0c35741a4dae4f4e0d1cbb036b73f91651a6323190da19e6e93cd",
        "scriptpubkey_asm": "OP_PUSHNUM_1 OP_PUSHBYTES_32 7f6224eefbb0c35741a4dae4f4e0d1cbb036b73f91651a6323190da19e6e93cd",
        "scriptpubkey_type": "v1_p2tr",
        "scriptpubkey_address": "bc1p0a3zfmhmkrp4wsdymtj0fcx3ewcrddelj9j35cerryx6r8nwj0xsllnswr",
        "value": 12071
      },
      "scriptsig": "",
      "scriptsig_asm": "",
      "witness": [
        "bcf4ca1fa82a6c240cbb7e8dc5cfb2f8bbf8c4e3f8a4838cadb538d02f15c7948168bb41ba12020b33a7a58c374abef11a907cd93850798d0588559013ebcbe3",
        "20469b0976e6dfb4aa85741069171d443249beab5e42def6639b54fb614787ad1fac00630461746f6d03646d7446a16461726773a46474696d651a65f1365a656e6f6e63651a0001000b68626974776f726b636b3838383838383838382e386b6d696e745f7469636b657268696e66696e69747968",
        "c1469b0976e6dfb4aa85741069171d443249beab5e42def6639b54fb614787ad1f"
      ],
      "is_coinbase": false,
      "sequence": 4294967295
    }
  ],
  "vout": [
    {
      "scriptpubkey": "5120bd20606e7cbe51b4b2f50225f8d7bab93d73d2d0a9fb14d955dee05ec9f0b2f8",
      "scriptpubkey_asm": "OP_PUSHNUM_1 OP_PUSHBYTES_32 bd20606e7cbe51b4b2f50225f8d7bab93d73d2d0a9fb14d955dee05ec9f0b2f8",
      "scriptpubkey_type": "v1_p2tr",
      "scriptpubkey_address": "bc1ph5sxqmnuhegmfvh4qgjl34a6hy7h85ks48a3fk24mms9aj0sktuqd0m35p",
      "value": 9999
    }
  ],
  "size": 314,
  "weight": 596,
  "fee": 2072,
  "status": {
    "confirmed": true,
    "block_height": 834460,
    "block_hash": "00000000000000000000484a79b643b2524bbce82e5d8a442013fa5b8905ed98",
    "block_time": 1710307468
  },
  "hex": "010000000001013b7a49ac9eef80fde78186a81db9f0be97577bfa0543ea37e79dae8c888888880000000000ffffffff010f27000000000000225120bd20606e7cbe51b4b2f50225f8d7bab93d73d2d0a9fb14d955dee05ec9f0b2f80340bcf4ca1fa82a6c240cbb7e8dc5cfb2f8bbf8c4e3f8a4838cadb538d02f15c7948168bb41ba12020b33a7a58c374abef11a907cd93850798d0588559013ebcbe37520469b0976e6dfb4aa85741069171d443249beab5e42def6639b54fb614787ad1fac00630461746f6d03646d7446a16461726773a46474696d651a65f1365a656e6f6e63651a0001000b68626974776f726b636b3838383838383838382e386b6d696e745f7469636b657268696e66696e6974796821c1469b0976e6dfb4aa85741069171d443249beab5e42def6639b54fb614787ad1f00000000"
}