{
  "txid": "5f3e7071a8423a64f19af140991705a8284eab5ee0f514bc006f823a49d9b5f5",
  "version": 2,
  "locktime": 0,
  "vin": [
    {
      "txid": "abdcbb8bcefa0f088373ceda41a70fe1aeaa3823b969e1169e2a29269068d8dc",
      "vout": 4,
      "prevout": {
        "scriptpubkey": "5120d9b13011294c16973cdb7a71a1fa93cea455531ec98afb1e67189f7c704bc68a",
        "scriptpubkey_asm": "OP_PUSHNUM_1 OP_PUSHBYTES_32 d9b13011294c16973cdb7a71a1fa93cea455531ec98afb1e67189f7c704bc68a",
        "scriptpubkey_type": "v1_p2tr",
        "scriptpubkey_address": "bc1pmxcnqyfffstfw0xm0fc6r75ne6j925c7ex90k8n8rz0hcuztc69qdqhlg4",
        "value": 2522
      },
      "scriptsig": "",
      "scriptsig_asm": "",
      "witness": [
        "a5cbfe2b78ce9b1e77948d919f12e127562ce071c9b135e6798fe294857576c52adbbb5f5dca28cf64680fb0747507d52de8535c1e64dbee179cfe417c17f01f",
        "20e75bea2c85390a45dc416fcf0c09aaa7b1fc1cf55691709a99d81c0abc90a4c2ac0063036f7264010118746578742f706c61696e3b636861727365743d7574662d3800387b2270223a226272632d3230222c226f70223a227472616e73666572222c227469636b223a226f726e6a222c22616d74223a22313030227d68",
        "c025dced391475af84759664675c16f5ed581b243a944241d7ee258c8cfb80c9db"
      ],
      "is_coinbase": false,
      "sequence": 4294967295
    }
  ],
  "vout": [
    {
      "scriptpubkey": "512060e7b9d91ee3091b65165528563dba11a47299520ea2fc67070ec6ac303fc05d",
      "scriptpubkey_asm": "OP_PUSHNUM_1 OP_PUSHBYTES_32 60e7b9d91ee3091b65165528563dba11a47299520ea2fc67070ec6ac303fc05d",
      "scriptpubkey_type": "v1_p2tr",
      "scriptpubkey_address": "bc1pvrnmnkg7uvy3kegk2559v0d6zxj89x2jp630cec8pmr2cvplcpwsn3pn79",
      "value": 546
    }
  ],
  "size": 323,
  "weight": 605,
  "fee": 1976,
  "status": {
    "confirmed": true,
    "block_height": 834460,
    "block_hash": "00000000000000000000484a79b643b2524bbce82e5d8a442013fa5b8905ed98",
    "block_time": 1710307468
  },
  "hex": "02000000000101dcd8689026292a9e16e169b92338aaaee10fa741dace7383080fface8bbbdcab0400000000ffffffff01220200000000000022512060e7b9d91ee3091b65165528563dba11a47299520ea2fc67070ec6ac303fc05d0340a5cbfe2b78ce9b1e77948d919f12e127562ce071c9b135e6798fe294857576c52adbbb5f5dca28cf64680fb0747507d52de8535c1e64dbee179cfe417c17f01f7e20e75bea2c85390a45dc416fcf0c09aaa7b1fc1cf55691709a99d81c0abc90a4c2ac0063036f7264010118746578742f706c61696e3b636861727365743d7574662d3800387b2270223a226272632d3230222c226f70223a227472616e73666572222c227469636b223a226f726e6a222c22616d74223a22313030227d6821c025dced391475af84759664675c16f5ed581b243a944241d7ee258c8cfb80c9db00000000"
}