{
  "txid": "5f46924f2e23189d6f9481e1f718bb72376577e3746509c9405f49a37497493b",
  "version": 1,
  "locktime": 0,
  "vin": [
    {
      "txid": "c68405cf0a543700a484df050725069b6dc7c0a6f1ec9b5ef4cf0ed447b2348d",
      "vout": 1,
      "prevout": {
        "scriptpubkey": "0014f7052f9bc27916ec254518aa31fb080ff248883a",
        "scriptpubkey_asm": "OP_0 OP_PUSHBYTES_20 f7052f9bc27916ec254518aa31fb080ff248883a",
        "scriptpubkey_type": "v0_p2wpkh",
        "scriptpubkey_address": "bc1q7uzjlx7z0ytwcf29rz4rr7cgpley3zp62mpry9",
        "value": 8282868956
      },
      "scriptsig": "",
      "scriptsig_asm": "",
      "witness": [
        "304402206123d6f94c5344ecba56c4692f475ab47a64762b6468b8387f28a1ded43a121f022038b8be2772453954ab5f7b7c49cef7b0f1799b012290ba9fae519f8fe03bf3dc01",
        "03015f99a5077a35004f7257644a9f26cec29b7c0d73c7166c065d8af2f99c5762"
      ],
      "is_coinbase": false,
      "sequence": 4294967295
    }
  ],
  "vout": [
    {
      "scriptpubkey": "001488e6e5ef7fb94c39d797bb7abd8065209972c332",
      "scriptpubkey_asm": "OP_0 OP_PUSHBYTES_20 88e6e5ef7fb94c39d797bb7abd8065209972c332",
      "scriptpubkey_type": "v0_p2wpkh",
      "scriptpubkey_address": "bc1q3rnwtmmlh9xrn4uhhdatmqr9yzvh9sejhngrck",
      "value": 400000000
    },
    {
      "scriptpubkey": "0014f7052f9bc27916ec254518aa31fb080ff248883a",
      "scriptpubkey_asm": "OP_0 OP_PUSHBYTES_20 f7052f9bc27916ec254518aa31fb080ff248883a",
      "scriptpubkey_type": "v0_p2wpkh",
      "scriptpubkey_address": "bc1q7uzjlx7z0ytwcf29rz4rr7cgpley3zp62mpry9",
      "value": 7882866249
    }
  ],
  "size": 222,
  "weight": 561,
  "fee": 2707,
  "status": {
    "confirmed": true,
    "block_height": 834638,
    "block_hash": "000000000000000000025f742c626208ac87e0b7d15054abb4a19ca2d735a54e",
    "block_time": 1710405325
  },
  "hex": "010000000001018d34b247d40ecff45e9becf1a6c0c76d9b06250705df84a40037540acf0584c60100000000ffffffff020084d7170000000016001488e6e5ef7fb94c39d797bb7abd8065209972c33249fedad501000000160014f7052f9bc27916ec254518aa31fb080ff248883a0247304402206123d6f94c5344ecba56c4692f475ab47a64762b6468b8387f28a1ded43a121f022038b8be2772453954ab5f7b7c49cef7b0f1799b012290ba9fae519f8fe03bf3dc012103015f99a5077a35004f7257644a9f26cec29b7c0d73c7166c065d8af2f99c576200000000"
}