{
  "txid": "5f467b8f736b115d34364891a6092167072f59e312bccaa1396bc780cf9f9eda",
  "version": 2,
  "locktime": 0,
  "vin": [
    {
      "txid": "83fca1b465b27415d252921a4d09ab34ad2340ad9c0b16a749d287af4001c6f6",
      "vout": 0,
      "prevout": {
        "scriptpubkey": "512091dcf4a939b1ec261f73058985063eec89dba7e636fb03e46c5deee358328fa0",
        "scriptpubkey_asm": "OP_PUSHNUM_1 OP_PUSHBYTES_32 91dcf4a939b1ec261f73058985063eec89dba7e636fb03e46c5deee358328fa0",
        "scriptpubkey_type": "v1_p2tr",
        "scriptpubkey_address": "bc1pj8w0f2fek8kzv8mnqkyc2p37ajyahflxxmas8ervthhwxkpj37sq60chgz",
        "value": 20285
      },
      "scriptsig": "",
      "scriptsig_asm": "",
      "witness": [
        "667bc4d3b8a65ef452b6899c0358075eb871371023af93904a296a6d2fcdea04720221411dd530c74bf1e905f9f92b8608862140611453d6d736641848a880ba",
        "20f2d00e1cce0b839d2e197679cac7a15152ec244338032c7767f72c1332d49a65ac0063036f7264010109696d6167652f706e67004d080289504e470d0a1a0a0000000d4948445200000118000001180803000000b05019be000000017352474200aece1ce90000000467414d410000b18f0bfc610500000132504c5445ff7b00fe8705fbb700fc8e13febb3affd501ffe000ffde00faa909ffa323ffeb64ffe858fddd57ffe013ffe644ffe329ffe63bfdd00ff8ea74fcca45f18f0bef6f00f7f081f07e10fdea67f17a07ef7200f4b14befa800efa500ef7a01a46b10808003889749a8a215533f03001f040836160d49260c4928616030002205104b28104a272e32055c372956336124386bac8653aca64bcea40d964f02ff5c00ff440eff132af00f23ef0f22fa0c58ff0a73ff06adff00fff200ffba00ffb301ff6805ff5706ff1904ff221dff009dff00a9fc00f3e700ffe400ff6700ff2700ff2a69f828ffed25f2b76b3d4a23f2c875ecd198eed095eece94ff07721601ff9d6710f36f5ee567cab56ab48082ca78cec379cd4aace35eedcc913b5320c7954fbb9b60ba9a5fc8a86de88c26042c0d384412c7011ea6000000097048597300000ec300000ec301c76fa864000004fa49444154785eeddd795b13571886f1841008855005433558ac02822db58bdd375bb57ba16a6bf7a276f9fe5fa103f3ccc9c49e2733bd3a32938bfbf767ce4b9873c305219930ad92360eafbe548317b7af556b6fa80d55853006610cc2188431086310c6208c4118833006610cc218843108634d080210c6208c4118833006610cc2188431086310c6208c4118833006610cc2188431086310c6208c4118833006610cc2188431086310c6208c4118833006610cc2188431086310c6208c411863e370e76a29da51459a1fa675e941397f6f57ea2f6da8c8de8d722e693b276f53477ac236f5e99b8b3006610cc2188431086310c6d8dcd2a19eacfac2fc59d2ee41a5f6b4f122f58579f8e8710d1eed6ae345ea0c530bc2188431086310c6208c4118833006610cc2188431086310c6208c4118833006610cc2188431086310c6208c4118833006610cc2188431086310c6281d46275b14d276aad3f030079a2ff250dba94ed3c33cd60714208c4118833006610cc218843108633c8d303ac3f4444d43983f6ad1f830edfdfbb5b8ac8d17396d61ee11268e3006610cc2188431086310c6281f461b2f72dac26c1dfe5ece7e5b1baa4ad3c3ecdebf57cab7a72f4c298431086310c6208c4118a3b161f44bb3b4bbcd0fb3ba94f9edd7cc2f113f073f053fc6fc30c97ae681765ea0c630fd6f325f7f95faf28bcf339f7d7a2773fb7bb9f549e6e39b1f653efc20f3fe77f2ee3bc15bc19b6fc80dedbcc03484b995511617e63d1985795b551284214c8a300965214c8a3084394618833046f3c3e88f88c9ee9eb630d70ef6cb59d77e2ad3f430b59d324f18833006610cc2188431086310c6208c4118833006610cc2188431086310c6208c4118a7d3cb4d0802bc7e25f35af06a70fd957fbb1ef3f244bbd2fc2b5994b59b5dde4e17bb2bb63349d98bdb4d41981d85a944e9abfe11c6208c4118833006610cc2188431a6218c1eb755637bab9ce687b972b95a2f9453df5589cb5a7da65267e6ca99d1a76faeaac3cc974218833006610cc218843108634c5398c518ade569e5095acc87e9476869aac2c4bed6fd489965ad8d59d662ee5efa4a36e6592d4e7b98f9ff154637e511863029c210264518c23c893071edbac254fd06ad6ab4578370f8b3e7829920b2b9550d252e6a6a662612a6db0974da45e2ac16e7bb41a312b597b48f9cd94166e3f98b99c8dcea506383e1682ef27dd7ddd0587eaeabc591b96ef3c30c53856132b9b97818cd4d0c334f982384214c8a308449118630c70863c4c3648ac2682c3f170f23531e6649ffb06d7d3df7c7c1c4b9750d252261ce6a28a1a1c4cc9c56471a1f66652d73fe82bed4830b91b9f39a5a5b5b794e638361244c3fdce14a476383c1d487497f36148749e786856134469804618e108630c7fb204c823089c2305218263339cc394d4de7af6bbdec9e58d6a3b1c4e4b99ea6a20ff0fa2bc142109ef31d697c98d196729ed6ab043984394218c2a4084398146108738c30462e8c1eac2d2e46c32c6b31271e468b8b67f4527db71b3f6b538bddd1739c4d0db3a033123ab33af6bce5b03ab2a0b53161ae1df4746aef989e16db3d65697018ddd45ad00d798b4c8b1d2de6c4e646f732d28e3cf13ddfd3628b30e3084398146108738c3009c224086310c6208c4118833006610cc2188431086310c6208c713261f45f97f27261744bc3deaf341b84ad7774c398c84147e72201db7af3db98707fb9d526850100000000000000000000000000000000000000e0bf69b5fe010e09a4553c6d00510000000049454e44ae426082680063036f726401011e6170706c69636174696f6e2f6a736f6e3b636861727365743d7574662d38004d69017b2270223a22766f7264222c2276223a312c227479223a22696e7363222c22636f6c223a2261643262353365623665333264663466633139386133626262306662663638666637336432666432323832323163313136373630306533316337613163343836222c22696964223a22557073696465646f776e204e6f64654d6f6e6b6573222c227075626c223a2231455337623370636a527a4667796969714c7278484b546e43686535364c4a485937222c226e6f6e6365223a313337332c226d696e746572223a2262633170736533336e6168776871726b3578646a38797978746c383675777a6473393037616d756a7877336b34333770356a676a7739747174646c75396b222c22736967223a224849716175614c627349702b357658695359735a5548657031376c356672447a514f784f307752425869593253523054514d6752556630726971652b497a445a766474766836597764325a4b544274766f6c79677279633d227d68",
        "c1f2d00e1cce0b839d2e197679cac7a15152ec244338032c7767f72c1332d49a65675a92934efa5e4869b2432a3e00abfc6819367af43949c2edc693b32d23ac05"
      ],
      "is_coinbase": false,
      "sequence": 4294967293
    }
  ],
  "vout": [
    {
      "scriptpubkey": "5120866319f6eeb8076a19b2390865fcfae384d815feeef9233a36ac7c1a49127156",
      "scriptpubkey_asm": "OP_PUSHNUM_1 OP_PUSHBYTES_32 866319f6eeb8076a19b2390865fcfae384d815feeef9233a36ac7c1a49127156",
      "scriptpubkey_type": "v1_p2tr",
      "scriptpubkey_address": "bc1pse33nahwhqrk5xdj8yyxtl86uwzds907amujxw3k437p5jgjw9tqtdlu9k",
      "value": 1000
    },
    {
      "scriptpubkey": "5120f62171bf126320eed697da59179bb0a31c00c0460a1a69c591c3c0d0f8f5038f",
      "scriptpubkey_asm": "OP_PUSHNUM_1 OP_PUSHBYTES_32 f62171bf126320eed697da59179bb0a31c00c0460a1a69c591c3c0d0f8f5038f",
      "scriptpubkey_type": "v1_p2tr",
      "scriptpubkey_address": "bc1p7cshr0cjvvswa45hmfv30xas5vwqpszxpgdxn3v3c0qdp784qw8szjtge2",
      "value": 7712
    },
    {
      "scriptpubkey": "51200705a5767db892e98125775049b1a13dd9ecdc8aea0df413cabbee683e871012",
      "scriptpubkey_asm": "OP_PUSHNUM_1 OP_PUSHBYTES_32 0705a5767db892e98125775049b1a13dd9ecdc8aea0df413cabbee683e871012",
      "scriptpubkey_type": "v1_p2tr",
      "scriptpubkey_address": "bc1pquz62anahzfwnqf9wagynvdp8hv7ehy2agxlgy72h0hxs058zqfqk8ksyq",
      "value": 3246
    }
  ],
  "size": 2486,
  "weight": 3026,
  "fee": 8327,
  "status": {
    "confirmed": true,
    "block_height": 834464,
    "block_hash": "0000000000000000000177a0869a911a2b65c9bdcd5a8bcb02b68f305bee848e",
    "block_time": 1710308296
  },
  "hex": "02000000000101f6c60140af87d249a7160b9cad4023ad34ab094d1a9252d21574b265b4a1fc830000000000fdffffff03e803000000000000225120866319f6eeb8076a19b2390865fcfae384d815feeef9233a36ac7c1a49127156201e000000000000225120f62171bf126320eed697da59179bb0a31c00c0460a1a69c591c3c0d0f8f5038fae0c0000000000002251200705a5767db892e98125775049b1a13dd9ecdc8aea0df413cabbee683e8710120340667bc4d3b8a65ef452b6899c0358075eb871371023af93904a296a6d2fcdea04720221411dd530c74bf1e905f9f92b8608862140611453d6d736641848a880bafd790820f2d00e1cce0b839d2e197679cac7a15152ec244338032c7767f72c1332d49a65ac0063036f7264010109696d6167652f706e67004d080289504e470d0a1a0a0000000d4948445200000118000001180803000000b05019be000000017352474200aece1ce90000000467414d410000b18f0bfc610500000132504c5445ff7b00fe8705fbb700fc8e13febb3affd501ffe000ffde00faa909ffa323ffeb64ffe858fddd57ffe013ffe644ffe329ffe63bfdd00ff8ea74fcca45f18f0bef6f00f7f081f07e10fdea67f17a07ef7200f4b14befa800efa500ef7a01a46b10808003889749a8a215533f03001f040836160d49260c4928616030002205104b28104a272e32055c372956336124386bac8653aca64bcea40d964f02ff5c00ff440eff132af00f23ef0f22fa0c58ff0a73ff06adff00fff200ffba00ffb301ff6805ff5706ff1904ff221dff009dff00a9fc00f3e700ffe400ff6700ff2700ff2a69f828ffed25f2b76b3d4a23f2c875ecd198eed095eece94ff07721601ff9d6710f36f5ee567cab56ab48082ca78cec379cd4aace35eedcc913b5320c7954fbb9b60ba9a5fc8a86de88c26042c0d384412c7011ea6000000097048597300000ec300000ec301c76fa864000004fa49444154785eeddd795b13571886f1841008855005433558ac02822db58bdd375bb57ba16a6bf7a276f9fe5fa103f3ccc9c49e2733bd3a32938bfbf767ce4b9873c305219930ad92360eafbe548317b7af556b6fa80d55853006610cc2188431086310c6208c4118833006610cc218843108634d080210c6208c4118833006610cc2188431086310c6208c4118833006610cc2188431086310c6208c4118833006610cc2188431086310c6208c4118833006610cc2188431086310c6208c411863e370e76a29da51459a1fa675e941397f6f57ea2f6da8c8de8d722e693b276f53477ac236f5e99b8b3006610cc2188431086310c6d8dcd2a19eacfac2fc59d2ee41a5f6b4f122f58579f8e8710d1eed6ae345ea0c530bc2188431086310c6208c4118833006610cc2188431086310c6208c4118833006610cc2188431086310c6208c4118833006610cc2188431086310c6281d46275b14d276aad3f030079a2ff250dba94ed3c33cd60714208c4118833006610cc218843108633c8d303ac3f4444d43983f6ad1f830edfdfbb5b8ac8d17396d61ee11268e3006610cc2188431086310c6281f461b2f72dac26c1dfe5ece7e5b1baa4ad3c3ecdebf57cab7a72f4c298431086310c6208c4118a3b161f44bb3b4bbcd0fb3ba94f9edd7cc2f113f073f053fc6fc30c97ae681765ea0c630fd6f325f7f95faf28bcf339f7d7a2773fb7bb9f549e6e39b1f653efc20f3fe77f2ee3bc15bc19b6fc80dedbcc03484b995511617e63d1985795b551284214c8a300965214c8a3084394618833046f3c3e88f88c9ee9eb630d70ef6cb59d77e2ad3f430b59d324f18833006610cc2188431086310c6208c4118833006610cc2188431086310c6208c4118a7d3cb4d0802bc7e25f35af06a70fd957fbb1ef3f244bbd2fc2b5994b59b5dde4e17bb2bb63349d98bdb4d41981d85a944e9abfe11c6208c4118833006610cc2188431a6218c1eb755637bab9ce687b972b95a2f9453df5589cb5a7da65267e6ca99d1a76faeaac3cc974218833006610cc218843108634c5398c518ade569e5095acc87e9476869aac2c4bed6fd489965ad8d59d662ee5efa4a36e6592d4e7b98f9ff154637e511863029c210264518c23c893071edbac254fd06ad6ab4578370f8b3e7829920b2b9550d252e6a6a662612a6db0974da45e2ac16e7bb41a312b597b48f9cd94166e3f98b99c8dcea506383e1682ef27dd7ddd0587eaeabc591b96ef3c30c53856132b9b97818cd4d0c334f982384214c8a308449118630c70863c4c3648ac2682c3f170f23531e6649ffb06d7d3df7c7c1c4b9750d252261ce6a28a1a1c4cc9c56471a1f66652d73fe82bed4830b91b9f39a5a5b5b794e638361244c3fdce14a476383c1d487497f36148749e786856134469804618e108630c7fb204c823089c2305218263339cc394d4de7af6bbdec9e58d6a3b1c4e4b99ea6a20ff0fa2bc142109ef31d697c98d196729ed6ab043984394218c2a4084398146108738c30462e8c1eac2d2e46c32c6b31271e468b8b67f4527db71b3f6b538bddd1739c4d0db3a033123ab33af6bce5b03ab2a0b53161ae1df4746aef989e16db3d65697018ddd45ad00d798b4c8b1d2de6c4e646f732d28e3cf13ddfd3628b30e3084398146108738c3009c224086310c6208c4118833006610cc2188431086310c6208c713261f45f97f27261744bc3deaf341b84ad7774c398c84147e72201db7af3db98707fb9d526850100000000000000000000000000000000000000e0bf69b5fe010e09a4553c6d00510000000049454e44ae426082680063036f726401011e6170706c69636174696f6e2f6a736f6e3b636861727365743d7574662d38004d69017b2270223a22766f7264222c2276223a312c227479223a22696e7363222c22636f6c223a2261643262353365623665333264663466633139386133626262306662663638666637336432666432323832323163313136373630306533316337613163343836222c22696964223a22557073696465646f776e204e6f64654d6f6e6b6573222c227075626c223a2231455337623370636a527a4667796969714c7278484b546e43686535364c4a485937222c226e6f6e6365223a313337332c226d696e746572223a2262633170736533336e6168776871726b3578646a38797978746c383675777a6473393037616d756a7877336b34333770356a676a7739747174646c75396b222c22736967223a224849716175614c627349702b357658695359735a5548657031376c356672447a514f784f307752425869593253523054514d6752556630726971652b497a445a766474766836597764325a4b544274766f6c79677279633d227d6841c1f2d00e1cce0b839d2e197679cac7a15152ec244338032c7767f72c1332d49a65675a92934efa5e4869b2432a3e00abfc6819367af43949c2edc693b32d23ac0500000000"
}