{
  "txid": "5f5f41a7d1783b044ca77c75d8c6a9104a83c9c9aa9d1c5f59af8f27f3427208",
  "version": 1,
  "locktime": 0,
  "vin": [
    {
      "txid": "6b2690202043ef97642f73c954aaecd52d7adcc78681100ffa8bedd0ab7b9934",
      "vout": 1,
      "prevout": {
        "scriptpubkey": "0014a0f2d820591e2e38c659cbe0991d057257ee0729",
        "scriptpubkey_asm": "OP_0 OP_PUSHBYTES_20 a0f2d820591e2e38c659cbe0991d057257ee0729",
        "scriptpubkey_type": "v0_p2wpkh",
        "scriptpubkey_address": "bc1q5redsgzerchr33jee0sfj8g9wft7upefaksyt2",
        "value": 6209
      },
      "scriptsig": "",
      "scriptsig_asm": "",
      "witness": [
        "304402200b2af8ed707fed046bb3b7e62cf5eb5d123dad333fa8b658d4dfc4431bdf515102204e503d3da2dd8ec128d1f00f7b3ad4781620e82716017e46d25d88d93b1ac13e01",
        "03bbd2d1c1415d9d4f1da31f04f4ed0ac6db3cfa547c853b5f113956da2ff2e1ca"
      ],
      "is_coinbase": false,
      "sequence": 4294967295
    },
    {
      "txid": "9f5ff1d4c72a0c0c420c575d7b256c8b71bab9a1256b65f64265e26e623e2a42",
      "vout": 1,
      "prevout": {
        "scriptpubkey": "0014a0f2d820591e2e38c659cbe0991d057257ee0729",
        "scriptpubkey_asm": "OP_0 OP_PUSHBYTES_20 a0f2d820591e2e38c659cbe0991d057257ee0729",
        "scriptpubkey_type": "v0_p2wpkh",
        "scriptpubkey_address": "bc1q5redsgzerchr33jee0sfj8g9wft7upefaksyt2",
        "value": 60371
      },
      "scriptsig": "",
      "scriptsig_asm": "",
      "witness": [
        "3045022100c4e939f09da2062670f9caf01757e833967d1b205863a1f761ac34b12dd55b560220301337e13b043015d9819b8a058f7b5cf86cc7d1ab5596436fc4398051408e8901",
        "03bbd2d1c1415d9d4f1da31f04f4ed0ac6db3cfa547c853b5f113956da2ff2e1ca"
      ],
      "is_coinbase": false,
      "sequence": 4294967295
    }
  ],
  "vout": [
    {
      "scriptpubkey": "76a91426f3363f1d0f56dcf05c538043c9a94d161457a288ac",
      "scriptpubkey_asm": "OP_DUP OP_HASH160 OP_PUSHBYTES_20 26f3363f1d0f56dcf05c538043c9a94d161457a2 OP_EQUALVERIFY OP_CHECKSIG",
      "scriptpubkey_type": "p2pkh",
      "scriptpubkey_address": "14Yx2x2HfuU5TeZ33a3H32cy81SQRrMbBn",
      "value": 58560
    },
    {
      "scriptpubkey": "0014a0f2d820591e2e38c659cbe0991d057257ee0729",
      "scriptpubkey_asm": "OP_0 OP_PUSHBYTES_20 a0f2d820591e2e38c659cbe0991d057257ee0729",
      "scriptpubkey_type": "v0_p2wpkh",
      "scriptpubkey_address": "bc1q5redsgzerchr33jee0sfj8g9wft7upefaksyt2",
      "value": 2296
    }
  ],
  "size": 374,
  "weight": 845,
  "fee": 5724,
  "status": {
    "confirmed": true,
    "block_height": 834638,
    "block_hash": "000000000000000000025f742c626208ac87e0b7d15054abb4a19ca2d735a54e",
    "block_time": 1710405325
  },
  "hex": "0100000000010234997babd0ed8bfa0f108186c7dc7a2dd5ecaa54c9732f6497ef43202090266b0100000000ffffffff422a3e626ee26542f6656b25a1b9ba718b6c257b5d570c420c0c2ac7d4f15f9f0100000000ffffffff02c0e40000000000001976a91426f3363f1d0f56dcf05c538043c9a94d161457a288acf808000000000000160014a0f2d820591e2e38c659cbe0991d057257ee07290247304402200b2af8ed707fed046bb3b7e62cf5eb5d123dad333fa8b658d4dfc4431bdf515102204e503d3da2dd8ec128d1f00f7b3ad4781620e82716017e46d25d88d93b1ac13e012103bbd2d1c1415d9d4f1da31f04f4ed0ac6db3cfa547c853b5f113956da2ff2e1ca02483045022100c4e939f09da2062670f9caf01757e833967d1b205863a1f761ac34b12dd55b560220301337e13b043015d9819b8a058f7b5cf86cc7d1ab5596436fc4398051408e89012103bbd2d1c1415d9d4f1da31f04f4ed0ac6db3cfa547c853b5f113956da2ff2e1ca00000000"
}