{
  "txid": "5f6f13ec777a59b17791c8292a15a8b0ac48865206eb224c6edcad18b198bea7",
  "version": 1,
  "locktime": 834637,
  "vin": [
    {
      "txid": "7780f4b75a5e1d88edba399de2436974bde83ee79d7ceb2c28860cbf7a539ee4",
      "vout": 1,
      "prevout": {
        "scriptpubkey": "0020fb4bfa812fce96d056bc4e8a700b3f33a0fe06277492758150e4da7f609bb93c",
        "scriptpubkey_asm": "OP_0 OP_PUSHBYTES_32 fb4bfa812fce96d056bc4e8a700b3f33a0fe06277492758150e4da7f609bb93c",
        "scriptpubkey_type": "v0_p2wsh",
        "scriptpubkey_address": "bc1qld9l4qf0e6tdq44uf698qzelxws0up38wjf8tq2sund87cymhy7q7dfqnh",
        "value": 1074132
      },
      "scriptsig": "",
      "scriptsig_asm": "",
      "witness": [
        "",
        "3045022100f80442a52fab68dbb10f0ecc27c407813734303ad92c2d846bcdeba43bdc228a02203e053eb1a903081dbaaa0074a9b0b424a7a7f94324b200f8a19fa7cd0eb5001e01",
        "304402203ff4a33474d9f8f34cc2461ee84035acfa9ffdb14d4122f7173042645cb406ac02200f822e2ec41bb69bdeca40fd1a03815060ca0816bded1628db4cf33f564434c201",
        "522103324cb81dfa335ad38a0ad3bb1018b4fe6790f1486f7190e629394c75f36d6b39210317de5330120e8e6d9fe87b9fe89d173088a9cd27f09eb85ed7941fdd2dad8b642102caca287d72aa2e41ba088e9d2b288b75eff4a29b6b5596a36858913276427e2953ae"
      ],
      "is_coinbase": false,
      "sequence": 4294967293,
      "inner_witnessscript_asm": "OP_PUSHNUM_2 OP_PUSHBYTES_33 03324cb81dfa335ad38a0ad3bb1018b4fe6790f1486f7190e629394c75f36d6b39 OP_PUSHBYTES_33 0317de5330120e8e6d9fe87b9fe89d173088a9cd27f09eb85ed7941fdd2dad8b64 OP_PUSHBYTES_33 02caca287d72aa2e41ba088e9d2b288b75eff4a29b6b5596a36858913276427e29 OP_PUSHNUM_3 OP_CHECKMULTISIG"
    }
  ],
  "vout": [
    {
      "scriptpubkey": "a914102460e682e3b86495f056257b7d2196bfb14a5787",
      "scriptpubkey_asm": "OP_HASH160 OP_PUSHBYTES_20 102460e682e3b86495f056257b7d2196bfb14a57 OP_EQUAL",
      "scriptpubkey_type": "p2sh",
      "scriptpubkey_address": "33ANKEgdm622sAGLKAahErhRBptmpej84v",
      "value": 48065
    },
    {
      "scriptpubkey": "0020227956b56c810936a61c6980715d24c31f358c808c8dab9288e86d1500726e84",
      "scriptpubkey_asm": "OP_0 OP_PUSHBYTES_32 227956b56c810936a61c6980715d24c31f358c808c8dab9288e86d1500726e84",
      "scriptpubkey_type": "v0_p2wsh",
      "scriptpubkey_address": "bc1qyfu4ddtvsyyndfsudxq8zhfycv0ntryq3jx6hy5gapk32qrjd6zqe0n8kc",
      "value": 1022342
    }
  ],
  "size": 381,
  "weight": 759,
  "fee": 3725,
  "status": {
    "confirmed": true,
    "block_height": 834638,
    "block_hash": "000000000000000000025f742c626208ac87e0b7d15054abb4a19ca2d735a54e",
    "block_time": 1710405325
  },
  "hex": "01000000000101e49e537abf0c86282ceb7c9de73ee8bd746943e29d39baed881d5e5ab7f480770100000000fdffffff02c1bb00000000000017a914102460e682e3b86495f056257b7d2196bfb14a578786990f0000000000220020227956b56c810936a61c6980715d24c31f358c808c8dab9288e86d1500726e840400483045022100f80442a52fab68dbb10f0ecc27c407813734303ad92c2d846bcdeba43bdc228a02203e053eb1a903081dbaaa0074a9b0b424a7a7f94324b200f8a19fa7cd0eb5001e0147304402203ff4a33474d9f8f34cc2461ee84035acfa9ffdb14d4122f7173042645cb406ac02200f822e2ec41bb69bdeca40fd1a03815060ca0816bded1628db4cf33f564434c20169522103324cb81dfa335ad38a0ad3bb1018b4fe6790f1486f7190e629394c75f36d6b39210317de5330120e8e6d9fe87b9fe89d173088a9cd27f09eb85ed7941fdd2dad8b642102caca287d72aa2e41ba088e9d2b288b75eff4a29b6b5596a36858913276427e2953ae4dbc0c00"
}