{
  "txid": "5f81d3b68daf550de47f4b2831c1cfd822f59c56a7589d21109fd5d2a61f5211",
  "version": 1,
  "locktime": 0,
  "vin": [
    {
      "txid": "ec03551d8eaf0231419f30695c520abd36397a70ee56e4de15aea1fb066d11dd",
      "vout": 0,
      "prevout": {
        "scriptpubkey": "512040e0a23941187af72792427834b7e5747215329b3117b90a8a219c21adae3f01",
        "scriptpubkey_asm": "OP_PUSHNUM_1 OP_PUSHBYTES_32 40e0a23941187af72792427834b7e5747215329b3117b90a8a219c21adae3f01",
        "scriptpubkey_type": "v1_p2tr",
        "scriptpubkey_address": "bc1pgrs2yw2prpa0wfujgfurfdl9w3ep2v5mxytmjz52yxwzrtdw8uqsdpjmr0",
        "value": 130913
      },
      "scriptsig": "",
      "scriptsig_asm": "",
      "witness": [
        "8ff0a914f7a7615741990af22eb797513a8b1631555899d532dae9272c52448728ead0b894d5903a59c327d9bbd6dbc5445869e0c96d9a68618a80cb2e0fca9101"
      ],
      "is_coinbase": false,
      "sequence": 4294967295
    }
  ],
  "vout": [
    {
      "scriptpubkey": "51201b88991549be89636fd596b1be1d469374bbf2eaad8fb61b73c88a582adbf135",
      "scriptpubkey_asm": "OP_PUSHNUM_1 OP_PUSHBYTES_32 1b88991549be89636fd596b1be1d469374bbf2eaad8fb61b73c88a582adbf135",
      "scriptpubkey_type": "v1_p2tr",
      "scriptpubkey_address": "bc1prwyfj92fh6ykxm74j6cmu82xjd6thuh24k8mvxmnez99s2km7y6s4vv0nh",
      "value": 121311
    },
    {
      "scriptpubkey": "0020dd0926bc9e2cb00670e3489c3123c6a4215f4509f8f83e6d3e79a37ddf9e5db8",
      "scriptpubkey_asm": "OP_0 OP_PUSHBYTES_32 dd0926bc9e2cb00670e3489c3123c6a4215f4509f8f83e6d3e79a37ddf9e5db8",
      "scriptpubkey_type": "v0_p2wsh",
      "scriptpubkey_address": "bc1qm5yjd0y79jcqvu8rfzwrzg7x5ss473gflrurumf70x3hmhu7tkuqc7uwsa",
      "value": 8070
    }
  ],
  "size": 206,
  "weight": 617,
  "fee": 1532,
  "status": {
    "confirmed": true,
    "block_height": 834464,
    "block_hash": "0000000000000000000177a0869a911a2b65c9bdcd5a8bcb02b68f305bee848e",
    "block_time": 1710308296
  },
  "hex": "01000000000101dd116d06fba1ae15dee456ee707a3936bd0a525c69309f413102af8e1d5503ec0000000000ffffffff02dfd90100000000002251201b88991549be89636fd596b1be1d469374bbf2eaad8fb61b73c88a582adbf135861f000000000000220020dd0926bc9e2cb00670e3489c3123c6a4215f4509f8f83e6d3e79a37ddf9e5db801418ff0a914f7a7615741990af22eb797513a8b1631555899d532dae9272c52448728ead0b894d5903a59c327d9bbd6dbc5445869e0c96d9a68618a80cb2e0fca910100000000"
}