{
  "txid": "5f846d283984d01eb9829d816f88218abd33effc15a08222518615da3e5f47c5",
  "version": 2,
  "locktime": 0,
  "vin": [
    {
      "txid": "7527d19d8d8ad24648d2bc964647f978fff63a54cc08c60ad76d5c3bf0e700aa",
      "vout": 0,
      "prevout": {
        "scriptpubkey": "5120fcdaf0f9b92fb6c2412156c2aaa9e8cf7fa53e47d1570a1e1d1a74a975d086aa",
        "scriptpubkey_asm": "OP_PUSHNUM_1 OP_PUSHBYTES_32 fcdaf0f9b92fb6c2412156c2aaa9e8cf7fa53e47d1570a1e1d1a74a975d086aa",
        "scriptpubkey_type": "v1_p2tr",
        "scriptpubkey_address": "bc1plnd0p7de97mvysfp2mp2420geal620j869ts58sarf62jawss64qggjr3h",
        "value": 154000
      },
      "scriptsig": "",
      "scriptsig_asm": "",
      "witness": [
        "f9a5765a5b3e3a0f2ee4a67f6c632b67c24807e4418a387b9d89449da93b13a8b865f3657751d9a2c1687fac3b02d301ca921715d628363039912151ce5b17e2",
        "205291c3fff48e328ca44998545c5a027c9026c9d9d66a564407d2e547214b1274ac0063036f726401011e6170706c69636174696f6e2f6a736f6e3b636861727365743d7574662d38004cd37b2270223a22706f772d3230222c226f70223a226d696e74222c227469636b223a2250455045222c22616d74223a2231303030222c22736f6c7574696f6e223a22504550453a626331706d6c3973653572666b6c3076393075786c7972667871717a366c34797364637172647371683735656c727133396676647164777139777276736e3a303030303030303030303030303030303030303139393431613561653132383937363539383134343239323533333030353762306461393666336465613163353a3535333434393534373232227d68",
        "c13beca27a4fc825f712a8ee0e92a93b2e9ce7496e1e1c5bfb1b103e51f3be77b5"
      ],
      "is_coinbase": false,
      "sequence": 4294967293
    }
  ],
  "vout": [
    {
      "scriptpubkey": "5120dfcb0cd069b7dec2bf86f906930002d7ea4837001b600bfa99f8c112a58d035c",
      "scriptpubkey_asm": "OP_PUSHNUM_1 OP_PUSHBYTES_32 dfcb0cd069b7dec2bf86f906930002d7ea4837001b600bfa99f8c112a58d035c",
      "scriptpubkey_type": "v1_p2tr",
      "scriptpubkey_address": "bc1pml9se5rfkl0v90uxlyrfxqqz6l4ysdcqrdsqh75elrq39fvdqdwq9wrvsn",
      "value": 546
    },
    {
      "scriptpubkey": "51207184c9291fe3699b685e150e165ed3f8dd25df9078f3c222aa645165bcec020f",
      "scriptpubkey_asm": "OP_PUSHNUM_1 OP_PUSHBYTES_32 7184c9291fe3699b685e150e165ed3f8dd25df9078f3c222aa645165bcec020f",
      "scriptpubkey_type": "v1_p2tr",
      "scriptpubkey_address": "bc1pwxzvj2glud5ek6z7z58pvhknlrwjthus0reuyg42v3gkt08vqg8saqga28",
      "value": 2862
    },
    {
      "scriptpubkey": "51203a276275676ebb8fe1332baf3278aa7ee4a22bd1ee122a9e5f2a812fc930b688",
      "scriptpubkey_asm": "OP_PUSHNUM_1 OP_PUSHBYTES_32 3a276275676ebb8fe1332baf3278aa7ee4a22bd1ee122a9e5f2a812fc930b688",
      "scriptpubkey_type": "v1_p2tr",
      "scriptpubkey_address": "bc1p8gnkyat8d6aclcfn9whny7920mj2y273acfz48jl92qjljfsk6yqv5jtvv",
      "value": 2862
    },
    {
      "scriptpubkey": "5120f9b40ab3721a25a1907e395dc70e33d6ae2ee539935a616f5bbfdc08c6cd0786",
      "scriptpubkey_asm": "OP_PUSHNUM_1 OP_PUSHBYTES_32 f9b40ab3721a25a1907e395dc70e33d6ae2ee539935a616f5bbfdc08c6cd0786",
      "scriptpubkey_type": "v1_p2tr",
      "scriptpubkey_address": "bc1plx6q4vmjrgj6ryr789wuwr3n66hzaefejddxzm6mhlwq33kdq7rqu5tkvm",
      "value": 2862
    },
    {
      "scriptpubkey": "5120d5fb1e63424fd72dc3597708ec627575fa4938b859a6e89453c680bc936884c3",
      "scriptpubkey_asm": "OP_PUSHNUM_1 OP_PUSHBYTES_32 d5fb1e63424fd72dc3597708ec627575fa4938b859a6e89453c680bc936884c3",
      "scriptpubkey_type": "v1_p2tr",
      "scriptpubkey_address": "bc1p6ha3uc6zfltjms6ewuywccn4whayjw9ctxnw39znc6qteymgsnpsyq6wae",
      "value": 2862
    },
    {
      "scriptpubkey": "5120fb52ea5c68199a32585e6541192ec283fbd2ee9994bd7facf79cca0f05a16831",
      "scriptpubkey_asm": "OP_PUSHNUM_1 OP_PUSHBYTES_32 fb52ea5c68199a32585e6541192ec283fbd2ee9994bd7facf79cca0f05a16831",
      "scriptpubkey_type": "v1_p2tr",
      "scriptpubkey_address": "bc1pldfw5hrgrxdrykz7v4q3jtkzs0aa9m5ejj7hlt8hnn9q7pdpdqcs5gx7ae",
      "value": 2862
    },
    {
      "scriptpubkey": "5120ef4c98ab8135469e396d282cc85ec2c9ca6fd431b6deb5eba7e07db01da62b8a",
      "scriptpubkey_asm": "OP_PUSHNUM_1 OP_PUSHBYTES_32 ef4c98ab8135469e396d282cc85ec2c9ca6fd431b6deb5eba7e07db01da62b8a",
      "scriptpubkey_type": "v1_p2tr",
      "scriptpubkey_address": "bc1paaxf32upx4rfuwtd9qkvshkze89xl4p3km0tt6a8up7mq8dx9w9ql3r9ee",
      "value": 2862
    },
    {
      "scriptpubkey": "5120a681cf58565bc671f3cca227fe8c949126c3f900b3d2abc19fefd4142fa5eaf7",
      "scriptpubkey_asm": "OP_PUSHNUM_1 OP_PUSHBYTES_32 a681cf58565bc671f3cca227fe8c949126c3f900b3d2abc19fefd4142fa5eaf7",
      "scriptpubkey_type": "v1_p2tr",
      "scriptpubkey_address": "bc1p56qu7kzkt0r8ru7v5gnlary5jynv87gqk0f2hsvlal2pgta9atms5h7kp5",
      "value": 2862
    },
    {
      "scriptpubkey": "512089dde36cf0570a12b4bebdeff376e07322eebbd20d73ccdc78d3798f88e50f59",
      "scriptpubkey_asm": "OP_PUSHNUM_1 OP_PUSHBYTES_32 89dde36cf0570a12b4bebdeff376e07322eebbd20d73ccdc78d3798f88e50f59",
      "scriptpubkey_type": "v1_p2tr",
      "scriptpubkey_address": "bc1p38w7xm8s2u9p9d97hhhlxahqwv3waw7jp4euehrc6duclz89pavshc5379",
      "value": 2862
    },
    {
      "scriptpubkey": "512098bdceaeebd0ee416721fa4416eb697a91ba92a670144a0cba09f5f3461d7c89",
      "scriptpubkey_asm": "OP_PUSHNUM_1 OP_PUSHBYTES_32 98bdceaeebd0ee416721fa4416eb697a91ba92a670144a0cba09f5f3461d7c89",
      "scriptpubkey_type": "v1_p2tr",
      "scriptpubkey_address": "bc1pnz7uatht6rhyzeeplfzpd6mf02gm4y4xwq2y5r96p86lx3sa0jys05s53g",
      "value": 2862
    },
    {
      "scriptpubkey": "5120c1161e2ffed8ddbd8fa65cd36e7c12222e373261b1c481e0afd7660ae532c842",
      "scriptpubkey_asm": "OP_PUSHNUM_1 OP_PUSHBYTES_32 c1161e2ffed8ddbd8fa65cd36e7c12222e373261b1c481e0afd7660ae532c842",
      "scriptpubkey_type": "v1_p2tr",
      "scriptpubkey_address": "bc1pcytputl7mrwmmraxtnfkulqjyghrwvnpk8zgrc906anq4efjeppq0dlne4",
      "value": 2862
    },
    {
      "scriptpubkey": "51203c18ecf876c00cafc4905a827870993e2452a4d51dfceaa62bbd3184e62e4fa7",
      "scriptpubkey_asm": "OP_PUSHNUM_1 OP_PUSHBYTES_32 3c18ecf876c00cafc4905a827870993e2452a4d51dfceaa62bbd3184e62e4fa7",
      "scriptpubkey_type": "v1_p2tr",
      "scriptpubkey_address": "bc1p8svwe7rkcqx2l3yst2p8suye8cj99fx4rh7w4f3th5ccfe3wf7nsmgphcf",
      "value": 2862
    },
    {
      "scriptpubkey": "512096b4ef747e956c7916f6b540d2d2afd468a0326c3f738d10419767f919805e99",
      "scriptpubkey_asm": "OP_PUSHNUM_1 OP_PUSHBYTES_32 96b4ef747e956c7916f6b540d2d2afd468a0326c3f738d10419767f919805e99",
      "scriptpubkey_type": "v1_p2tr",
      "scriptpubkey_address": "bc1pj66w7ar7j4k8j9hkk4qd95406352qvnv8aec6yzpjanljxvqt6vsacx7jy",
      "value": 2862
    },
    {
      "scriptpubkey": "5120753a85957564082d7d5db9904c0a988c0bc73c1b2775ff7c55c74ac217c668b9",
      "scriptpubkey_asm": "OP_PUSHNUM_1 OP_PUSHBYTES_32 753a85957564082d7d5db9904c0a988c0bc73c1b2775ff7c55c74ac217c668b9",
      "scriptpubkey_type": "v1_p2tr",
      "scriptpubkey_address": "bc1pw5agt9t4vsyz6l2ahxgycz5c3s9uw0qmya6l7lz4ca9vy97xdzusy4t9t7",
      "value": 2850
    },
    {
      "scriptpubkey": "51203bec40b5d8fee7df79b622f5f03f2141e38f9770a7cf9f59a94ab80f329b8631",
      "scriptpubkey_asm": "OP_PUSHNUM_1 OP_PUSHBYTES_32 3bec40b5d8fee7df79b622f5f03f2141e38f9770a7cf9f59a94ab80f329b8631",
      "scriptpubkey_type": "v1_p2tr",
      "scriptpubkey_address": "bc1p80kypdwclmna77dkyt6lq0epg83cl9ms5l8e7kdff2uq7v5msccsprd9qw",
      "value": 2862
    },
    {
      "scriptpubkey": "5120f91ff89045279ab0248d3f8be5b118d91f7a2b4dab94ba2ba62ae91535385942",
      "scriptpubkey_asm": "OP_PUSHNUM_1 OP_PUSHBYTES_32 f91ff89045279ab0248d3f8be5b118d91f7a2b4dab94ba2ba62ae91535385942",
      "scriptpubkey_type": "v1_p2tr",
      "scriptpubkey_address": "bc1ply0l3yz9y7dtqfyd8797tvgcmy0h526d4w2t52ax9t532dfct9pqcwtntg",
      "value": 2862
    },
    {
      "scriptpubkey": "51209c49f6641fa86915214348309370ad97178e5509f0003d980ca7ad0d4fc1cef0",
      "scriptpubkey_asm": "OP_PUSHNUM_1 OP_PUSHBYTES_32 9c49f6641fa86915214348309370ad97178e5509f0003d980ca7ad0d4fc1cef0",
      "scriptpubkey_type": "v1_p2tr",
      "scriptpubkey_address": "bc1pn3ylveql4p532g2rfqcfxu9djutcu4gf7qqrmxqv57ks6n7pemcqh8a9rm",
      "value": 2862
    },
    {
      "scriptpubkey": "51202591d376e1b3a1245b3da2e3dc789c23c6db98dcc9174235fce329999de9bfc2",
      "scriptpubkey_asm": "OP_PUSHNUM_1 OP_PUSHBYTES_32 2591d376e1b3a1245b3da2e3dc789c23c6db98dcc9174235fce329999de9bfc2",
      "scriptpubkey_type": "v1_p2tr",
      "scriptpubkey_address": "bc1pykgaxahpkwsjgkea5t3ac7yuy0rdhxxueyt5yd0uuv5en80fhlpqxfxzr6",
      "value": 2862
    },
    {
      "scriptpubkey": "5120ab63a0ec51934db5b620baeebed6d908a73ac29cd93f5a4d33818db2a21f68cb",
      "scriptpubkey_asm": "OP_PUSHNUM_1 OP_PUSHBYTES_32 ab63a0ec51934db5b620baeebed6d908a73ac29cd93f5a4d33818db2a21f68cb",
      "scriptpubkey_type": "v1_p2tr",
      "scriptpubkey_address": "bc1p4d36pmz3jdxmtd3qhthta4kepznn4s5umyl45nfnsxxm9gsldr9shnvru7",
      "value": 2862
    },
    {
      "scriptpubkey": "5120d15674fe0f3f0d68540e51d550f5ad1359620f7bcc49a1cf2e006f5f8eef513e",
      "scriptpubkey_asm": "OP_PUSHNUM_1 OP_PUSHBYTES_32 d15674fe0f3f0d68540e51d550f5ad1359620f7bcc49a1cf2e006f5f8eef513e",
      "scriptpubkey_type": "v1_p2tr",
      "scriptpubkey_address": "bc1p69t8fls08uxks4qw2824paddzdvkyrmme3y6rnewqph4lrh02ylqmcn0s3",
      "value": 2862
    },
    {
      "scriptpubkey": "5120a1f0e3d1de23cca7110f0ead12673717f02fbf3dd8f3ddd9eb14cbda55e03e4f",
      "scriptpubkey_asm": "OP_PUSHNUM_1 OP_PUSHBYTES_32 a1f0e3d1de23cca7110f0ead12673717f02fbf3dd8f3ddd9eb14cbda55e03e4f",
      "scriptpubkey_type": "v1_p2tr",
      "scriptpubkey_address": "bc1p58cw85w7y0x2wyg0p6k3yeehzlczl0eamreamk0tzn9a540q8e8s7n2xwj",
      "value": 2862
    },
    {
      "scriptpubkey": "51202629212d002e07f2f924db69d400c23df82bab058e883fcdca4e3aebbe8d1030",
      "scriptpubkey_asm": "OP_PUSHNUM_1 OP_PUSHBYTES_32 2629212d002e07f2f924db69d400c23df82bab058e883fcdca4e3aebbe8d1030",
      "scriptpubkey_type": "v1_p2tr",
      "scriptpubkey_address": "bc1pyc5jztgq9crl97fymd5agqxz8huzh2c936yrlnw2fcawh05dzqcqnztez9",
      "value": 2862
    },
    {
      "scriptpubkey": "51205bbc004a6b6aacb0d596056b7611b0133bc66a8810bdb93eb666d6437b8a26e4",
      "scriptpubkey_asm": "OP_PUSHNUM_1 OP_PUSHBYTES_32 5bbc004a6b6aacb0d596056b7611b0133bc66a8810bdb93eb666d6437b8a26e4",
      "scriptpubkey_type": "v1_p2tr",
      "scriptpubkey_address": "bc1ptw7qqjntd2ktp4vkq44hvydszvauv65gzz7mj04kvmtyx7u2ymjq4adwtq",
      "value": 2862
    },
    {
      "scriptpubkey": "5120fc78868b540fe8cd93addddeb6d2a7a9dba0def6d0550c5b7affe11f9e923e78",
      "scriptpubkey_asm": "OP_PUSHNUM_1 OP_PUSHBYTES_32 fc78868b540fe8cd93addddeb6d2a7a9dba0def6d0550c5b7affe11f9e923e78",
      "scriptpubkey_type": "v1_p2tr",
      "scriptpubkey_address": "bc1pl3ugdz65pl5vmyadmh0td54848d6phhk6p2sckm6lls3l85j8euq73f4lc",
      "value": 2862
    },
    {
      "scriptpubkey": "5120c5b90add1495959b3f7b45fcea65ff103020f191bacfdac1ff9bc21118ace090",
      "scriptpubkey_asm": "OP_PUSHNUM_1 OP_PUSHBYTES_32 c5b90add1495959b3f7b45fcea65ff103020f191bacfdac1ff9bc21118ace090",
      "scriptpubkey_type": "v1_p2tr",
      "scriptpubkey_address": "bc1pckus4hg5jk2ek0mmgh7w5e0lzqczpuv3ht8a4s0ln0ppzx9vuzgq5wt5sg",
      "value": 2862
    },
    {
      "scriptpubkey": "5120b3e19aff72ac873fddb265b6df23fa34ed86d4e3d1b6500fb628a9886d345b83",
      "scriptpubkey_asm": "OP_PUSHNUM_1 OP_PUSHBYTES_32 b3e19aff72ac873fddb265b6df23fa34ed86d4e3d1b6500fb628a9886d345b83",
      "scriptpubkey_type": "v1_p2tr",
      "scriptpubkey_address": "bc1pk0se4lmj4jrnlhdjvkmd7gl6xnkcd48r6xm9qrak9z5csmf5twps3c8tau",
      "value": 2862
    },
    {
      "scriptpubkey": "5120cd68e40dfdc27b7cd33515411d63b3d489c4e036c3ec65f5897cbfb9f9dc5415",
      "scriptpubkey_asm": "OP_PUSHNUM_1 OP_PUSHBYTES_32 cd68e40dfdc27b7cd33515411d63b3d489c4e036c3ec65f5897cbfb9f9dc5415",
      "scriptpubkey_type": "v1_p2tr",
      "scriptpubkey_address": "bc1pe45wgr0acfahe5e4z4q36can6jyufcpkc0kxtavf0jlmn7wu2s2swrhf78",
      "value": 2862
    },
    {
      "scriptpubkey": "51206851a3f0c98eec479f9a37482c235e71b195b76138c4413365ba8ce27b690fc6",
      "scriptpubkey_asm": "OP_PUSHNUM_1 OP_PUSHBYTES_32 6851a3f0c98eec479f9a37482c235e71b195b76138c4413365ba8ce27b690fc6",
      "scriptpubkey_type": "v1_p2tr",
      "scriptpubkey_address": "bc1pdpg68uxf3mky08u6xayzcg67wxcetdmp8rzyzvm9h2xwy7mfplrqc99u32",
      "value": 2862
    },
    {
      "scriptpubkey": "5120ea96ed645ef9865a8e82b93dfec8830639c2eb5aec4773f301edcd69e432df65",
      "scriptpubkey_asm": "OP_PUSHNUM_1 OP_PUSHBYTES_32 ea96ed645ef9865a8e82b93dfec8830639c2eb5aec4773f301edcd69e432df65",
      "scriptpubkey_type": "v1_p2tr",
      "scriptpubkey_address": "bc1pa2tw6ez7lxr94r5zhy7lajyrqcuu9666a3rh8ucpahxknepjmajs4m38wc",
      "value": 2862
    },
    {
      "scriptpubkey": "5120d07cb9fe0b8e4bef62f04307780eea182720f936d63aaf5c97f6b40148a828bf",
      "scriptpubkey_asm": "OP_PUSHNUM_1 OP_PUSHBYTES_32 d07cb9fe0b8e4bef62f04307780eea182720f936d63aaf5c97f6b40148a828bf",
      "scriptpubkey_type": "v1_p2tr",
      "scriptpubkey_address": "bc1p6p7tnlst3e977chsgvrhsrh2rqnjp7fk6ca27hyh766qzj9g9zlsmryktf",
      "value": 2862
    },
    {
      "scriptpubkey": "00146d9244d11f1321a9db6ef43e95161200c620c388",
      "scriptpubkey_asm": "OP_0 OP_PUSHBYTES_20 6d9244d11f1321a9db6ef43e95161200c620c388",
      "scriptpubkey_type": "v0_p2wpkh",
      "scriptpubkey_address": "bc1qdkfyf5glzvs6nkmw7slf29sjqrrzpsugfrksk5",
      "value": 52816
    }
  ],
  "size": 1765,
  "weight": 5881,
  "fee": 17652,
  "status": {
    "confirmed": true,
    "block_height": 834460,
    "block_hash": "00000000000000000000484a79b643b2524bbce82e5d8a442013fa5b8905ed98",
    "block_time": 1710307468
  },
  "hex": "02000000000101aa00e7f03b5c6dd70ac608cc543af6ff78f9474696bcd24846d28a8d9dd127750000000000fdffffff1f2202000000000000225120dfcb0cd069b7dec2bf86f906930002d7ea4837001b600bfa99f8c112a58d035c2e0b0000000000002251207184c9291fe3699b685e150e165ed3f8dd25df9078f3c222aa645165bcec020f2e0b0000000000002251203a276275676ebb8fe1332baf3278aa7ee4a22bd1ee122a9e5f2a812fc930b6882e0b000000000000225120f9b40ab3721a25a1907e395dc70e33d6ae2ee539935a616f5bbfdc08c6cd07862e0b000000000000225120d5fb1e63424fd72dc3597708ec627575fa4938b859a6e89453c680bc936884c32e0b000000000000225120fb52ea5c68199a32585e6541192ec283fbd2ee9994bd7facf79cca0f05a168312e0b000000000000225120ef4c98ab8135469e396d282cc85ec2c9ca6fd431b6deb5eba7e07db01da62b8a2e0b000000000000225120a681cf58565bc671f3cca227fe8c949126c3f900b3d2abc19fefd4142fa5eaf72e0b00000000000022512089dde36cf0570a12b4bebdeff376e07322eebbd20d73ccdc78d3798f88e50f592e0b00000000000022512098bdceaeebd0ee416721fa4416eb697a91ba92a670144a0cba09f5f3461d7c892e0b000000000000225120c1161e2ffed8ddbd8fa65cd36e7c12222e373261b1c481e0afd7660ae532c8422e0b0000000000002251203c18ecf876c00cafc4905a827870993e2452a4d51dfceaa62bbd3184e62e4fa72e0b00000000000022512096b4ef747e956c7916f6b540d2d2afd468a0326c3f738d10419767f919805e99220b000000000000225120753a85957564082d7d5db9904c0a988c0bc73c1b2775ff7c55c74ac217c668b92e0b0000000000002251203bec40b5d8fee7df79b622f5f03f2141e38f9770a7cf9f59a94ab80f329b86312e0b000000000000225120f91ff89045279ab0248d3f8be5b118d91f7a2b4dab94ba2ba62ae915353859422e0b0000000000002251209c49f6641fa86915214348309370ad97178e5509f0003d980ca7ad0d4fc1cef02e0b0000000000002251202591d376e1b3a1245b3da2e3dc789c23c6db98dcc9174235fce329999de9bfc22e0b000000000000225120ab63a0ec51934db5b620baeebed6d908a73ac29cd93f5a4d33818db2a21f68cb2e0b000000000000225120d15674fe0f3f0d68540e51d550f5ad1359620f7bcc49a1cf2e006f5f8eef513e2e0b000000000000225120a1f0e3d1de23cca7110f0ead12673717f02fbf3dd8f3ddd9eb14cbda55e03e4f2e0b0000000000002251202629212d002e07f2f924db69d400c23df82bab058e883fcdca4e3aebbe8d10302e0b0000000000002251205bbc004a6b6aacb0d596056b7611b0133bc66a8810bdb93eb666d6437b8a26e42e0b000000000000225120fc78868b540fe8cd93addddeb6d2a7a9dba0def6d0550c5b7affe11f9e923e782e0b000000000000225120c5b90add1495959b3f7b45fcea65ff103020f191bacfdac1ff9bc21118ace0902e0b000000000000225120b3e19aff72ac873fddb265b6df23fa34ed86d4e3d1b6500fb628a9886d345b832e0b000000000000225120cd68e40dfdc27b7cd33515411d63b3d489c4e036c3ec65f5897cbfb9f9dc54152e0b0000000000002251206851a3f0c98eec479f9a37482c235e71b195b76138c4413365ba8ce27b690fc62e0b000000000000225120ea96ed645ef9865a8e82b93dfec8830639c2eb5aec4773f301edcd69e432df652e0b000000000000225120d07cb9fe0b8e4bef62f04307780eea182720f936d63aaf5c97f6b40148a828bf50ce0000000000001600146d9244d11f1321a9db6ef43e95161200c620c3880340f9a5765a5b3e3a0f2ee4a67f6c632b67c24807e4418a387b9d89449da93b13a8b865f3657751d9a2c1687fac3b02d301ca921715d628363039912151ce5b17e2fd2001205291c3fff48e328ca44998545c5a027c9026c9d9d66a564407d2e547214b1274ac0063036f726401011e6170706c69636174696f6e2f6a736f6e3b636861727365743d7574662d38004cd37b2270223a22706f772d3230222c226f70223a226d696e74222c227469636b223a2250455045222c22616d74223a2231303030222c22736f6c7574696f6e223a22504550453a626331706d6c3973653572666b6c3076393075786c7972667871717a366c34797364637172647371683735656c727133396676647164777139777276736e3a303030303030303030303030303030303030303139393431613561653132383937363539383134343239323533333030353762306461393666336465613163353a3535333434393534373232227d6821c13beca27a4fc825f712a8ee0e92a93b2e9ce7496e1e1c5bfb1b103e51f3be77b500000000"
}