{
  "txid": "5fa4510b2e40dbd4588615299f2c7bad4edd52061d093fc43c1c9c14e3bfbffd",
  "version": 2,
  "locktime": 0,
  "vin": [
    {
      "txid": "acc3ba00869acb582a3f2904ce3a11dd3779350ce234063fc7d0959246213364",
      "vout": 265,
      "prevout": {
        "scriptpubkey": "51201e073f69dc7b99a0cd7d34a70b3625e139a4173fcbd79cc611be36bbcf5a6903",
        "scriptpubkey_asm": "OP_PUSHNUM_1 OP_PUSHBYTES_32 1e073f69dc7b99a0cd7d34a70b3625e139a4173fcbd79cc611be36bbcf5a6903",
        "scriptpubkey_type": "v1_p2tr",
        "scriptpubkey_address": "bc1prcrn76wu0wv6pntaxjnskd39uyu6g9ele0tee3s3hcmthn66dypsl57ztl",
        "value": 1806
      },
      "scriptsig": "",
      "scriptsig_asm": "",
      "witness": [
        "cd0473e02ece9c720c7ce5b5816ebdab92cc3ce2e973f0dbe9d0531e8f507c51fa89d5a426d6299d2ba91dd93e106b03a14543e10d818c570fe5118415733b8b",
        "209b340d5e708a7204557c1a99a48200b099133ff317a8f995b49bd910c4ca6470ac0063036f726401010a746578742f706c61696e00357b2270223a226272632d3230222c226f70223a226d696e74222c227469636b223a22646f6765222c22616d74223a2234323030227d68",
        "c19b340d5e708a7204557c1a99a48200b099133ff317a8f995b49bd910c4ca6470"
      ],
      "is_coinbase": false,
      "sequence": 4261412863
    }
  ],
  "vout": [
    {
      "scriptpubkey": "00147a665de7a370f4c9b372ab1fae587500a5bcbdb4",
      "scriptpubkey_asm": "OP_0 OP_PUSHBYTES_20 7a665de7a370f4c9b372ab1fae587500a5bcbdb4",
      "scriptpubkey_type": "v0_p2wpkh",
      "scriptpubkey_address": "bc1q0fn9mearwr6vnvmj4v06ukr4qzjme0d565dzcx",
      "value": 294
    }
  ],
  "size": 294,
  "weight": 540,
  "fee": 1512,
  "status": {
    "confirmed": true,
    "block_height": 834460,
    "block_hash": "00000000000000000000484a79b643b2524bbce82e5d8a442013fa5b8905ed98",
    "block_time": 1710307468
  },
  "hex": "02000000000101643321469295d0c73f0634e20c357937dd113ace04293f2a58cb9a8600bac3ac0901000000fffffffd0126010000000000001600147a665de7a370f4c9b372ab1fae587500a5bcbdb40340cd0473e02ece9c720c7ce5b5816ebdab92cc3ce2e973f0dbe9d0531e8f507c51fa89d5a426d6299d2ba91dd93e106b03a14543e10d818c570fe5118415733b8b6d209b340d5e708a7204557c1a99a48200b099133ff317a8f995b49bd910c4ca6470ac0063036f726401010a746578742f706c61696e00357b2270223a226272632d3230222c226f70223a226d696e74222c227469636b223a22646f6765222c22616d74223a2234323030227d6821c19b340d5e708a7204557c1a99a48200b099133ff317a8f995b49bd910c4ca647000000000"
}