{
  "txid": "5fa8ae89ef4c80b697bdaba27f9e5a976c710786d189f318d34c8f7eaea5d1fe",
  "version": 1,
  "locktime": 0,
  "vin": [
    {
      "txid": "05b91101553bbfd762ff8f43a51e995d41683b679a28446eba76349658509bc7",
      "vout": 0,
      "prevout": {
        "scriptpubkey": "76a914e6d93f922e32ece6dae2c489521577d1cee6fdfc88ac",
        "scriptpubkey_asm": "OP_DUP OP_HASH160 OP_PUSHBYTES_20 e6d93f922e32ece6dae2c489521577d1cee6fdfc OP_EQUALVERIFY OP_CHECKSIG",
        "scriptpubkey_type": "p2pkh",
        "scriptpubkey_address": "1N3cfoMVd9apnmxQecgWUoqbqn2tvqQmSq",
        "value": 28717
      },
      "scriptsig": "473044022031843f82aaed0736e2287fbf4440389ee1f9e319936e05caf18db6ac57231f3b02205a82155719405098e7c8e383dbcdbdefd946b0b1b0039bbc117f6889bb2ee6b70121020f8f088afb8a85a7e0a65d954bed945fc002055b8d6f3ba02fff1c86dc7067b7",
      "scriptsig_asm": "OP_PUSHBYTES_71 3044022031843f82aaed0736e2287fbf4440389ee1f9e319936e05caf18db6ac57231f3b02205a82155719405098e7c8e383dbcdbdefd946b0b1b0039bbc117f6889bb2ee6b701 OP_PUSHBYTES_33 020f8f088afb8a85a7e0a65d954bed945fc002055b8d6f3ba02fff1c86dc7067b7",
      "is_coinbase": false,
      "sequence": 4294967295
    }
  ],
  "vout": [
    {
      "scriptpubkey": "6a2eee78e22cec667556cb3b1f9e44a5e965f88075c7016106ad46ec79486a14f03c23f9cfacc8be01eba9a4a9e6f198",
      "scriptpubkey_asm": "OP_RETURN OP_PUSHBYTES_46 ee78e22cec667556cb3b1f9e44a5e965f88075c7016106ad46ec79486a14f03c23f9cfacc8be01eba9a4a9e6f198",
      "scriptpubkey_type": "op_return",
      "value": 0
    },
    {
      "scriptpubkey": "76a914e6d93f922e32ece6dae2c489521577d1cee6fdfc88ac",
      "scriptpubkey_asm": "OP_DUP OP_HASH160 OP_PUSHBYTES_20 e6d93f922e32ece6dae2c489521577d1cee6fdfc OP_EQUALVERIFY OP_CHECKSIG",
      "scriptpubkey_type": "p2pkh",
      "scriptpubkey_address": "1N3cfoMVd9apnmxQecgWUoqbqn2tvqQmSq",
      "value": 25273
    }
  ],
  "size": 248,
  "weight": 992,
  "fee": 3444,
  "status": {
    "confirmed": true,
    "block_height": 834638,
    "block_hash": "000000000000000000025f742c626208ac87e0b7d15054abb4a19ca2d735a54e",
    "block_time": 1710405325
  },
  "hex": "0100000001c79b5058963476ba6e44289a673b68415d991ea5438fff62d7bf3b550111b905000000006a473044022031843f82aaed0736e2287fbf4440389ee1f9e319936e05caf18db6ac57231f3b02205a82155719405098e7c8e383dbcdbdefd946b0b1b0039bbc117f6889bb2ee6b70121020f8f088afb8a85a7e0a65d954bed945fc002055b8d6f3ba02fff1c86dc7067b7ffffffff020000000000000000306a2eee78e22cec667556cb3b1f9e44a5e965f88075c7016106ad46ec79486a14f03c23f9cfacc8be01eba9a4a9e6f198b9620000000000001976a914e6d93f922e32ece6dae2c489521577d1cee6fdfc88ac00000000"
}