{
  "txid": "5fd8db2754cc035eca5273f259a7392cf7208dd577b607c52afd943990dd34eb",
  "version": 2,
  "locktime": 0,
  "vin": [
    {
      "txid": "9d760f816c49fed61b2f413c86a439ef5cd05afa42ba92ac4133962fa5fbaac2",
      "vout": 3,
      "prevout": {
        "scriptpubkey": "512030f9d3bfc7ac08a00b78900305b26d4b3411210a94b366dd57d40da4b20a7974",
        "scriptpubkey_asm": "OP_PUSHNUM_1 OP_PUSHBYTES_32 30f9d3bfc7ac08a00b78900305b26d4b3411210a94b366dd57d40da4b20a7974",
        "scriptpubkey_type": "v1_p2tr",
        "scriptpubkey_address": "bc1pxrua80784sy2qzmcjqpstvndfv6pzgg2jjekdh2h6sx6fvs2096q4aun6j",
        "value": 3141
      },
      "scriptsig": "",
      "scriptsig_asm": "",
      "witness": [
        "16a303f0e0223058f93f5c49b1887340a3fb6cf0718e13fc933e269f7082ee425e09d5abe8c4de3ff7e2851ae86bdbe06eea66006b104b53ea8f2b31953eb7b2",
        "20855cf625a86a05bbe827869f775491a54364bd6bb40fe83441919deb5e86c5d4ac0063036f7264010118746578742f706c61696e3b636861727365743d7574662d38004c867b2270223a22746170222c226f70223a22646d742d6d696e74222c22646570223a22666231343834623834663431336431356137616366383563326235393261616233343664336262383831386532313738616530393461346161333261353437656930222c227469636b223a2273616e64626f78222c22626c6b223a22323930373731227d68",
        "c0855cf625a86a05bbe827869f775491a54364bd6bb40fe83441919deb5e86c5d4e4aaa4cbb1fe882c7aaf737d343c3c707b99eec8d2d6d2ee285dc306da44b2a4"
      ],
      "is_coinbase": false,
      "sequence": 4294967293
    }
  ],
  "vout": [
    {
      "scriptpubkey": "5120a9cc25c4ee0b606ac11ce228cd2642706ecefffbb5d44907052aaf6a77119c83",
      "scriptpubkey_asm": "OP_PUSHNUM_1 OP_PUSHBYTES_32 a9cc25c4ee0b606ac11ce228cd2642706ecefffbb5d44907052aaf6a77119c83",
      "scriptpubkey_type": "v1_p2tr",
      "scriptpubkey_address": "bc1p48xzt38wpdsx4sguug5v6fjzwphvallmkh2yjpc992hk5ac3njpsdr9q02",
      "value": 546
    }
  ],
  "size": 434,
  "weight": 716,
  "fee": 2595,
  "status": {
    "confirmed": true,
    "block_height": 834460,
    "block_hash": "00000000000000000000484a79b643b2524bbce82e5d8a442013fa5b8905ed98",
    "block_time": 1710307468
  },
  "hex": "02000000000101c2aafba52f963341ac92ba42fa5ad05cef39a4863c412f1bd6fe496c810f769d0300000000fdffffff012202000000000000225120a9cc25c4ee0b606ac11ce228cd2642706ecefffbb5d44907052aaf6a77119c83034016a303f0e0223058f93f5c49b1887340a3fb6cf0718e13fc933e269f7082ee425e09d5abe8c4de3ff7e2851ae86bdbe06eea66006b104b53ea8f2b31953eb7b2cd20855cf625a86a05bbe827869f775491a54364bd6bb40fe83441919deb5e86c5d4ac0063036f7264010118746578742f706c61696e3b636861727365743d7574662d38004c867b2270223a22746170222c226f70223a22646d742d6d696e74222c22646570223a22666231343834623834663431336431356137616366383563326235393261616233343664336262383831386532313738616530393461346161333261353437656930222c227469636b223a2273616e64626f78222c22626c6b223a22323930373731227d6841c0855cf625a86a05bbe827869f775491a54364bd6bb40fe83441919deb5e86c5d4e4aaa4cbb1fe882c7aaf737d343c3c707b99eec8d2d6d2ee285dc306da44b2a400000000"
}