{
  "txid": "5fe0768a47090dba2ecbb66cf4c8d405f992b0e2a24c03cf480f77a70cd8efd0",
  "version": 1,
  "locktime": 0,
  "vin": [
    {
      "txid": "d5b9f463404ffec463b6d23552b5a62630e0a591144edfeff518c812750538e3",
      "vout": 0,
      "prevout": {
        "scriptpubkey": "0014f10396f1fa4cea7dcebeefab51fd07542710e455",
        "scriptpubkey_asm": "OP_0 OP_PUSHBYTES_20 f10396f1fa4cea7dcebeefab51fd07542710e455",
        "scriptpubkey_type": "v0_p2wpkh",
        "scriptpubkey_address": "bc1q7ypedu06fn48mn47a744rlg82sn3pez4sl05la",
        "value": 1447
      },
      "scriptsig": "",
      "scriptsig_asm": "",
      "witness": [
        "30440220342cf7f0ac429ba53c7982457a47e3fc5f661f82274aef4919bc76a3299283e4022079546b2acc3b8abd9258aaf4a846a794a384ff3d8c8a13f25363329a8409c8e301",
        "022b55ec3986b9e6d44e84620af305aa34ced4f2b2782d2236a15412eff78f4465"
      ],
      "is_coinbase": false,
      "sequence": 4294967295
    },
    {
      "txid": "7de225b24c2b079e94388b4e11f4c3903b69ae5eb7dbc6d32a1f461f9f51b086",
      "vout": 117,
      "prevout": {
        "scriptpubkey": "001430de9618d6ca1aeb6c954c55dd4b1e90b03d10b1",
        "scriptpubkey_asm": "OP_0 OP_PUSHBYTES_20 30de9618d6ca1aeb6c954c55dd4b1e90b03d10b1",
        "scriptpubkey_type": "v0_p2wpkh",
        "scriptpubkey_address": "bc1qxr0fvxxkegdwkmy4f32a6jc7jzcr6y93hg0uy0",
        "value": 63000
      },
      "scriptsig": "",
      "scriptsig_asm": "",
      "witness": [
        "3044022050ccd342d1457f7155f21c989d720680e266dc4d45f928ebd5fecf912524124e022054ae6b7b438f5c3bc4e43c1f98739b274c486b7066d34c38853d0088202b84d601",
        "02b376b218a7ec30d4cc14c98a4adf7c2a16104519115b2b3f63937afaa676f0ac"
      ],
      "is_coinbase": false,
      "sequence": 4294967295
    }
  ],
  "vout": [
    {
      "scriptpubkey": "a9145b685c6993dfe900e824cdb1c49705f311f4abcd87",
      "scriptpubkey_asm": "OP_HASH160 OP_PUSHBYTES_20 5b685c6993dfe900e824cdb1c49705f311f4abcd OP_EQUAL",
      "scriptpubkey_type": "p2sh",
      "scriptpubkey_address": "3A2LS8RNAiu8zCFxFFQG18PURW84HwV35c",
      "value": 61202
    }
  ],
  "size": 340,
  "weight": 712,
  "fee": 3245,
  "status": {
    "confirmed": true,
    "block_height": 834638,
    "block_hash": "000000000000000000025f742c626208ac87e0b7d15054abb4a19ca2d735a54e",
    "block_time": 1710405325
  },
  "hex": "01000000000102e338057512c818f5efdf4e1491a5e03026a6b55235d2b663c4fe4f4063f4b9d50000000000ffffffff86b0519f1f461f2ad3c6dbb75eae693b90c3f4114e8b38949e072b4cb225e27d7500000000ffffffff0112ef00000000000017a9145b685c6993dfe900e824cdb1c49705f311f4abcd87024730440220342cf7f0ac429ba53c7982457a47e3fc5f661f82274aef4919bc76a3299283e4022079546b2acc3b8abd9258aaf4a846a794a384ff3d8c8a13f25363329a8409c8e30121022b55ec3986b9e6d44e84620af305aa34ced4f2b2782d2236a15412eff78f446502473044022050ccd342d1457f7155f21c989d720680e266dc4d45f928ebd5fecf912524124e022054ae6b7b438f5c3bc4e43c1f98739b274c486b7066d34c38853d0088202b84d6012102b376b218a7ec30d4cc14c98a4adf7c2a16104519115b2b3f63937afaa676f0ac00000000"
}