{
  "txid": "5ff411985b1f657a13e88608397b94ded01c3cbd9fabf35d71b4910bd7bb7683",
  "version": 1,
  "locktime": 0,
  "vin": [
    {
      "txid": "0e514328ecf665b428a23068eb98f189063ff9db5f29581fa044372073897a57",
      "vout": 5,
      "prevout": {
        "scriptpubkey": "0014c347a4c18cbf60e169c77db58be1af16839f3745",
        "scriptpubkey_asm": "OP_0 OP_PUSHBYTES_20 c347a4c18cbf60e169c77db58be1af16839f3745",
        "scriptpubkey_type": "v0_p2wpkh",
        "scriptpubkey_address": "bc1qcdr6fsvvhaswz6w80k6chcd0z6pe7d695ksqzj",
        "value": 122178
      },
      "scriptsig": "",
      "scriptsig_asm": "",
      "witness": [
        "3045022100daffca4b2126f6d018299fa17fa861773ff797a1d530ad015310a1ad913b181c02207007d68ff4d07a85a10f42def39940f5795b92f9aa423864605cf6012f50849f01",
        "03eb5c1a64319435e66930a4ea88d895471273699f5395e61b266c7057d38816d2"
      ],
      "is_coinbase": false,
      "sequence": 4294967293
    },
    {
      "txid": "8f446c5d5dd19a29ef4095ed173976afc60674035689b89a9597fa4658329fc8",
      "vout": 18,
      "prevout": {
        "scriptpubkey": "0014a4590e99ca7199fe1d12cca2f4d0dc45425bd6fd",
        "scriptpubkey_asm": "OP_0 OP_PUSHBYTES_20 a4590e99ca7199fe1d12cca2f4d0dc45425bd6fd",
        "scriptpubkey_type": "v0_p2wpkh",
        "scriptpubkey_address": "bc1q53vsaxw2wxvlu8gjej30f5xug4p9h4ha2csjex",
        "value": 115711
      },
      "scriptsig": "",
      "scriptsig_asm": "",
      "witness": [
        "3045022100efa45658f8584f4a6d0c9cbbd1ef729c1412168a6aa9b5920250b9553bf701a30220690fcc16cf34292c1629fc353f528901db4ba59264455bcd1a4503c572eb646f01",
        "02016d21afe4ecfeab34386d61cf78e17eb54da424ca5d0bdb7a9372543244467c"
      ],
      "is_coinbase": false,
      "sequence": 4294967293
    },
    {
      "txid": "4b466d72445830912e95ea8b553f978c65d1d0f4417e701efa224e993258e26a",
      "vout": 1,
      "prevout": {
        "scriptpubkey": "00144f8e17d1480d2aa4b7bc8b58683c16e91e3391ab",
        "scriptpubkey_asm": "OP_0 OP_PUSHBYTES_20 4f8e17d1480d2aa4b7bc8b58683c16e91e3391ab",
        "scriptpubkey_type": "v0_p2wpkh",
        "scriptpubkey_address": "bc1qf78p052gp542fdau3dvxs0qkay0r8ydt9x7ym4",
        "value": 109569
      },
      "scriptsig": "",
      "scriptsig_asm": "",
      "witness": [
        "3044022044f6aea875112270c978b2b35fb44b36e153a8b54ec58e1463ae257c7cbd02f40220308169e88f8fc12482e7c285825f58ae579298094e6be87e92c2e32d222c056901",
        "025bb3830eaa8ad928bfc13783212eb947be3e56507bc4517b4cd50cde41f307ce"
      ],
      "is_coinbase": false,
      "sequence": 4294967293
    }
  ],
  "vout": [
    {
      "scriptpubkey": "0014bc745897f4903e5c12d75657681a473f55dce2b6",
      "scriptpubkey_asm": "OP_0 OP_PUSHBYTES_20 bc745897f4903e5c12d75657681a473f55dce2b6",
      "scriptpubkey_type": "v0_p2wpkh",
      "scriptpubkey_address": "bc1qh36939l5jql9cykh2etksxj88a2aec4kk5502u",
      "value": 340018
    }
  ],
  "size": 489,
  "weight": 981,
  "fee": 7440,
  "status": {
    "confirmed": true,
    "block_height": 834638,
    "block_hash": "000000000000000000025f742c626208ac87e0b7d15054abb4a19ca2d735a54e",
    "block_time": 1710405325
  },
  "hex": "01000000000103577a8973203744a01f58295fdbf93f0689f198eb6830a228b465f6ec2843510e0500000000fdffffffc89f325846fa97959ab88956037406c6af763917ed9540ef299ad15d5d6c448f1200000000fdffffff6ae25832994e22fa1e707e41f4d0d1658c973f558bea952e91305844726d464b0100000000fdffffff013230050000000000160014bc745897f4903e5c12d75657681a473f55dce2b602483045022100daffca4b2126f6d018299fa17fa861773ff797a1d530ad015310a1ad913b181c02207007d68ff4d07a85a10f42def39940f5795b92f9aa423864605cf6012f50849f012103eb5c1a64319435e66930a4ea88d895471273699f5395e61b266c7057d38816d202483045022100efa45658f8584f4a6d0c9cbbd1ef729c1412168a6aa9b5920250b9553bf701a30220690fcc16cf34292c1629fc353f528901db4ba59264455bcd1a4503c572eb646f012102016d21afe4ecfeab34386d61cf78e17eb54da424ca5d0bdb7a9372543244467c02473044022044f6aea875112270c978b2b35fb44b36e153a8b54ec58e1463ae257c7cbd02f40220308169e88f8fc12482e7c285825f58ae579298094e6be87e92c2e32d222c05690121025bb3830eaa8ad928bfc13783212eb947be3e56507bc4517b4cd50cde41f307ce00000000"
}