{
  "txid": "6000ac5b4e2494cdd384e7236e12bb8d2b5cb706cf6336ab7567683b442dd224",
  "version": 1,
  "locktime": 0,
  "vin": [
    {
      "txid": "fe94283f08ee356cb9dcd48a5e9930951171c944d829573122ffa01d591f25a4",
      "vout": 1,
      "prevout": {
        "scriptpubkey": "001466fe0d715980e99ad7fbaa9524a2a75a63839d19",
        "scriptpubkey_asm": "OP_0 OP_PUSHBYTES_20 66fe0d715980e99ad7fbaa9524a2a75a63839d19",
        "scriptpubkey_type": "v0_p2wpkh",
        "scriptpubkey_address": "bc1qvmlq6u2esr5e44lm422jfg48tf3c88ge8e6fkk",
        "value": 1697726
      },
      "scriptsig": "",
      "scriptsig_asm": "",
      "witness": [
        "304402200c109ba47e52b463de6b0de5412095029ab8b1111076368bebb93f0ae5eb5d5d022024de28f1b8b8e76fc225fa757b84d6410113a41f39628761ba06a3f57b2c68ae01",
        "02c554cbf56287be6d333598ba9a05cb11c2127a49e7ec81719edd3cc6a6e5f150"
      ],
      "is_coinbase": false,
      "sequence": 4294967295
    }
  ],
  "vout": [
    {
      "scriptpubkey": "76a914d15618d5fc18b68354def1092b823c67c0bfe1c188ac",
      "scriptpubkey_asm": "OP_DUP OP_HASH160 OP_PUSHBYTES_20 d15618d5fc18b68354def1092b823c67c0bfe1c1 OP_EQUALVERIFY OP_CHECKSIG",
      "scriptpubkey_type": "p2pkh",
      "scriptpubkey_address": "1L5sNDeVyykiAGxkhEamw1R3scFtZoJ5kP",
      "value": 61273
    },
    {
      "scriptpubkey": "001466fe0d715980e99ad7fbaa9524a2a75a63839d19",
      "scriptpubkey_asm": "OP_0 OP_PUSHBYTES_20 66fe0d715980e99ad7fbaa9524a2a75a63839d19",
      "scriptpubkey_type": "v0_p2wpkh",
      "scriptpubkey_address": "bc1qvmlq6u2esr5e44lm422jfg48tf3c88ge8e6fkk",
      "value": 1632565
    }
  ],
  "size": 225,
  "weight": 573,
  "fee": 3888,
  "status": {
    "confirmed": true,
    "block_height": 834638,
    "block_hash": "000000000000000000025f742c626208ac87e0b7d15054abb4a19ca2d735a54e",
    "block_time": 1710405325
  },
  "hex": "01000000000101a4251f591da0ff22315729d844c971119530995e8ad4dcb96c35ee083f2894fe0100000000ffffffff0259ef0000000000001976a914d15618d5fc18b68354def1092b823c67c0bfe1c188ac35e918000000000016001466fe0d715980e99ad7fbaa9524a2a75a63839d190247304402200c109ba47e52b463de6b0de5412095029ab8b1111076368bebb93f0ae5eb5d5d022024de28f1b8b8e76fc225fa757b84d6410113a41f39628761ba06a3f57b2c68ae012102c554cbf56287be6d333598ba9a05cb11c2127a49e7ec81719edd3cc6a6e5f15000000000"
}