{
  "txid": "60027c1bd20f9849027966cdc4043a3d4057286b5e9d8d5e9966118195382932",
  "version": 2,
  "locktime": 0,
  "vin": [
    {
      "txid": "2ee7e9bc2f0f43192f5d2dcb9ba2f7bf417e46f7a86aea7e61bf494a2116911f",
      "vout": 2,
      "prevout": {
        "scriptpubkey": "51204d4c55816c915c88cac582e5e9d8ad8d27cf6c60b83ab2bfa7997b6020924e3a",
        "scriptpubkey_asm": "OP_PUSHNUM_1 OP_PUSHBYTES_32 4d4c55816c915c88cac582e5e9d8ad8d27cf6c60b83ab2bfa7997b6020924e3a",
        "scriptpubkey_type": "v1_p2tr",
        "scriptpubkey_address": "bc1pf4x9tqtvj9wg3jk9stj7nk9d35nu7mrqhqat90a8n9akqgyjfcaqc48ez5",
        "value": 2850
      },
      "scriptsig": "",
      "scriptsig_asm": "",
      "witness": [
        "3a38d38114c32aa5d2d3c04a0bd0491da99b4947b1f1d8a369c9258b67c7da130f7f977b623e98c2f112be70f7c160091ebd3dd4537acfa06a7b03aa33107de1",
        "200b3c428e49f1c74d4f5bb6015391354b79beebd4203cf4acae0e39c24a1931a8ac0063036f726401011e6170706c69636174696f6e2f6a736f6e3b636861727365743d7574662d38004cd27b2270223a22706f772d3230222c226f70223a226d696e74222c227469636b223a2250455045222c22616d74223a2231303030222c22736f6c7574696f6e223a22504550453a6263317032643677617a36736d6332646c33337861686b7364747a70793379397164713670677072776d3535376d303063646135303976733972333779633a303030303030303030303030303030303030303139393431613561653132383937363539383134343239323533333030353762306461393666336465613163353a33373537313838313033227d68",
        "c1c302becc0a7fa5f96ff01f380e695b2faa1e460e5e66e108f6410cf3df3f4a28"
      ],
      "is_coinbase": false,
      "sequence": 4294967295
    }
  ],
  "vout": [
    {
      "scriptpubkey": "51205374ee8b50de14dfc626eded06ac41244850341a0a02376e94f6defc37b47959",
      "scriptpubkey_asm": "OP_PUSHNUM_1 OP_PUSHBYTES_32 5374ee8b50de14dfc626eded06ac41244850341a0a02376e94f6defc37b47959",
      "scriptpubkey_type": "v1_p2tr",
      "scriptpubkey_address": "bc1p2d6waz6smc2dl33xahksdtzpy3y9qdq6pgprwm557m00cda509vs9r37yc",
      "value": 546
    }
  ],
  "size": 486,
  "weight": 768,
  "fee": 2304,
  "status": {
    "confirmed": true,
    "block_height": 834460,
    "block_hash": "00000000000000000000484a79b643b2524bbce82e5d8a442013fa5b8905ed98",
    "block_time": 1710307468
  },
  "hex": "020000000001011f9116214a49bf617eea6aa8f7467e41bff7a29bcb2d5d2f19430f2fbce9e72e0200000000ffffffff0122020000000000002251205374ee8b50de14dfc626eded06ac41244850341a0a02376e94f6defc37b4795903403a38d38114c32aa5d2d3c04a0bd0491da99b4947b1f1d8a369c9258b67c7da130f7f977b623e98c2f112be70f7c160091ebd3dd4537acfa06a7b03aa33107de1fd1f01200b3c428e49f1c74d4f5bb6015391354b79beebd4203cf4acae0e39c24a1931a8ac0063036f726401011e6170706c69636174696f6e2f6a736f6e3b636861727365743d7574662d38004cd27b2270223a22706f772d3230222c226f70223a226d696e74222c227469636b223a2250455045222c22616d74223a2231303030222c22736f6c7574696f6e223a22504550453a6263317032643677617a36736d6332646c33337861686b7364747a70793379397164713670677072776d3535376d303063646135303976733972333779633a303030303030303030303030303030303030303139393431613561653132383937363539383134343239323533333030353762306461393666336465613163353a33373537313838313033227d6821c1c302becc0a7fa5f96ff01f380e695b2faa1e460e5e66e108f6410cf3df3f4a2800000000"
}