{
  "txid": "600309c5d48143a0a6dcc3cad0dcb7c04b59a48b7de388e5ce98b16b1df23915",
  "version": 2,
  "locktime": 834084,
  "vin": [
    {
      "txid": "6521c19b5919bcfa888e872b650d05be13d5eb623c5ca770bca40b5800afbd37",
      "vout": 7,
      "prevout": {
        "scriptpubkey": "a914bde72a390967fd5b53aa03263347f267ce87571e87",
        "scriptpubkey_asm": "OP_HASH160 OP_PUSHBYTES_20 bde72a390967fd5b53aa03263347f267ce87571e OP_EQUAL",
        "scriptpubkey_type": "p2sh",
        "scriptpubkey_address": "3K18ZRMsX6wa1m1TQx8VftzYS6VSgHrRba",
        "value": 117894
      },
      "scriptsig": "220020d2cb7f94e7c536aa1d6f44bad36465d4bbae3f1ea8f6023d4e54ce416a144dbb",
      "scriptsig_asm": "OP_PUSHBYTES_34 0020d2cb7f94e7c536aa1d6f44bad36465d4bbae3f1ea8f6023d4e54ce416a144dbb",
      "witness": [
        "3044022026eeb61bcbf3877b7b95eef3bd3bae8651dbde511e254a05a9a195c38167e3af02207121613a1374df134351addb4df620c904c07e6c02644140e8f77c8141f40b5101",
        "30440220435ff326e28f2beab2eb10ba2bd50dbc353df08f0afecb63a69f93d9078d5cfc02207b10f40bf128467a2cb09a78b0003c7e44a78b9353c7aa57c823dcf87568c0a101",
        "210288df3415e27b81626e44a32720760e6ebec5e36be2ef58572ff884ceec40da63ad2102db7f4fafb93c52364ed588f69d87405633ab02f01c8186db8ae27b37fcc104a3ac73640380ca00b268"
      ],
      "is_coinbase": false,
      "sequence": 4294967293,
      "inner_redeemscript_asm": "OP_0 OP_PUSHBYTES_32 d2cb7f94e7c536aa1d6f44bad36465d4bbae3f1ea8f6023d4e54ce416a144dbb",
      "inner_witnessscript_asm": "OP_PUSHBYTES_33 0288df3415e27b81626e44a32720760e6ebec5e36be2ef58572ff884ceec40da63 OP_CHECKSIGVERIFY OP_PUSHBYTES_33 02db7f4fafb93c52364ed588f69d87405633ab02f01c8186db8ae27b37fcc104a3 OP_CHECKSIG OP_IFDUP OP_NOTIF OP_PUSHBYTES_3 80ca00 OP_CSV OP_ENDIF"
    }
  ],
  "vout": [
    {
      "scriptpubkey": "0014baa3d477fa68bc79fad44cf3a5e617497e3ef716",
      "scriptpubkey_asm": "OP_0 OP_PUSHBYTES_20 baa3d477fa68bc79fad44cf3a5e617497e3ef716",
      "scriptpubkey_type": "v0_p2wpkh",
      "scriptpubkey_address": "bc1qh23agal6dz78n7k5fne6teshf9lraackup5drz",
      "value": 116014
    }
  ],
  "size": 343,
  "weight": 694,
  "fee": 1880,
  "status": {
    "confirmed": true,
    "block_height": 834464,
    "block_hash": "0000000000000000000177a0869a911a2b65c9bdcd5a8bcb02b68f305bee848e",
    "block_time": 1710308296
  },
  "hex": "0200000000010137bdaf00580ba4bc70a75c3c62ebd513be050d652b878e88fabc19599bc121650700000023220020d2cb7f94e7c536aa1d6f44bad36465d4bbae3f1ea8f6023d4e54ce416a144dbbfdffffff012ec5010000000000160014baa3d477fa68bc79fad44cf3a5e617497e3ef71603473044022026eeb61bcbf3877b7b95eef3bd3bae8651dbde511e254a05a9a195c38167e3af02207121613a1374df134351addb4df620c904c07e6c02644140e8f77c8141f40b51014730440220435ff326e28f2beab2eb10ba2bd50dbc353df08f0afecb63a69f93d9078d5cfc02207b10f40bf128467a2cb09a78b0003c7e44a78b9353c7aa57c823dcf87568c0a1014e210288df3415e27b81626e44a32720760e6ebec5e36be2ef58572ff884ceec40da63ad2102db7f4fafb93c52364ed588f69d87405633ab02f01c8186db8ae27b37fcc104a3ac73640380ca00b26824ba0c00"
}