{
  "txid": "600ebd36e6c63f625603a24b986038550352581f0d23f5b259f167d7af0fb95b",
  "version": 1,
  "locktime": 0,
  "vin": [
    {
      "txid": "a168fb98ba6569a6e36465072bcf3266bb9eb2262fbdf6357b98cafd7338a5cb",
      "vout": 8,
      "prevout": {
        "scriptpubkey": "00149abe89a3ff05d4d13864b10dcaa50c62e3e420b2",
        "scriptpubkey_asm": "OP_0 OP_PUSHBYTES_20 9abe89a3ff05d4d13864b10dcaa50c62e3e420b2",
        "scriptpubkey_type": "v0_p2wpkh",
        "scriptpubkey_address": "bc1qn2lgngllqh2dzwrykyxu4fgvvt37gg9j27ycm4",
        "value": 97935
      },
      "scriptsig": "",
      "scriptsig_asm": "",
      "witness": [
        "304402205391531b902541157dcb5691f562199b1cca1dbefd1f73fe36745307bfeb027c0220181658f1b4d20560cc2e9754ef5280696d8bc8bfcf6d8455745f2f8d74cc378601",
        "020c2a5efd11450e76523f33979e4039f3187edead8e2a8e134037f723b6856925"
      ],
      "is_coinbase": false,
      "sequence": 4294967295
    }
  ],
  "vout": [
    {
      "scriptpubkey": "00144ce2b1acdeccd60a7a116739f19ec07b52c055a5",
      "scriptpubkey_asm": "OP_0 OP_PUSHBYTES_20 4ce2b1acdeccd60a7a116739f19ec07b52c055a5",
      "scriptpubkey_type": "v0_p2wpkh",
      "scriptpubkey_address": "bc1qfn3trtx7entq57s3vuulr8kq0dfvq4d9ktu45n",
      "value": 94965
    }
  ],
  "size": 191,
  "weight": 437,
  "fee": 2970,
  "status": {
    "confirmed": true,
    "block_height": 834638,
    "block_hash": "000000000000000000025f742c626208ac87e0b7d15054abb4a19ca2d735a54e",
    "block_time": 1710405325
  },
  "hex": "01000000000101cba53873fdca987b35f6bd2f26b29ebb6632cf2b076564e3a66965ba98fb68a10800000000ffffffff01f5720100000000001600144ce2b1acdeccd60a7a116739f19ec07b52c055a50247304402205391531b902541157dcb5691f562199b1cca1dbefd1f73fe36745307bfeb027c0220181658f1b4d20560cc2e9754ef5280696d8bc8bfcf6d8455745f2f8d74cc37860121020c2a5efd11450e76523f33979e4039f3187edead8e2a8e134037f723b685692500000000"
}