{
  "txid": "601a0239ef00a427facee115a648494dad5c6d7c3d4f77e29f9a7504b4e38c01",
  "version": 2,
  "locktime": 0,
  "vin": [
    {
      "txid": "1c599cc45a6fa49bab5abb275da4d8ca69c40ca2544436145d4e77af8c110fbd",
      "vout": 1,
      "prevout": {
        "scriptpubkey": "a9143fe9f0ec4f2b0379c7c917504014d7d105864d0187",
        "scriptpubkey_asm": "OP_HASH160 OP_PUSHBYTES_20 3fe9f0ec4f2b0379c7c917504014d7d105864d01 OP_EQUAL",
        "scriptpubkey_type": "p2sh",
        "scriptpubkey_address": "37Wxk9C9ZUax8ZEYFbuW97xC4T2KjhLqfP",
        "value": 2999832
      },
      "scriptsig": "16001495f883ebd76056c8e9afa033e5da19dfa421251a",
      "scriptsig_asm": "OP_PUSHBYTES_22 001495f883ebd76056c8e9afa033e5da19dfa421251a",
      "witness": [
        "3044022007b504aad659df75b6331fce3e5660cfbbe60694af5ec82b59f825672375155e02203203967b29d5c0f64a2db71034a03e7eefa8226f972ba173d86459e461e0aaf701",
        "0218b9d8ca0f0977e9a256a94b6d561634fdde8b8fd1bea372290665f79945f417"
      ],
      "is_coinbase": false,
      "sequence": 0,
      "inner_redeemscript_asm": "OP_0 OP_PUSHBYTES_20 95f883ebd76056c8e9afa033e5da19dfa421251a"
    },
    {
      "txid": "05ae0e9ecad6984aff4a8e006f454c6c462a50479bd5ce2d5a576ddff88e6660",
      "vout": 1,
      "prevout": {
        "scriptpubkey": "a914677ad801988517b98ada9f9d9d47cd398342f0be87",
        "scriptpubkey_asm": "OP_HASH160 OP_PUSHBYTES_20 677ad801988517b98ada9f9d9d47cd398342f0be OP_EQUAL",
        "scriptpubkey_type": "p2sh",
        "scriptpubkey_address": "3B8AgdvLtbJCvoSGW7fkN9az83VGJHhUqS",
        "value": 2899832
      },
      "scriptsig": "16001407d3f028402573d8d479f6f73c85ceb78ff58d5f",
      "scriptsig_asm": "OP_PUSHBYTES_22 001407d3f028402573d8d479f6f73c85ceb78ff58d5f",
      "witness": [
        "3045022100bb93fe7a93187665b08b80c333cd0e1f1f532a9de005e6d08b10b3506983b842022050e4078345029dc248aa28cf2484f8708c8a5173e1310686e3e2b6bbc5bd712301",
        "039dbe252033c49a39b6de29c8383df2e33b40de9754e654dddf25e841092f6cc5"
      ],
      "is_coinbase": false,
      "sequence": 0,
      "inner_redeemscript_asm": "OP_0 OP_PUSHBYTES_20 07d3f028402573d8d479f6f73c85ceb78ff58d5f"
    },
    {
      "txid": "5af922d12bfefedc8846bad55602d6b4e58b68e4e783da0754a8f99f43750373",
      "vout": 1,
      "prevout": {
        "scriptpubkey": "a914edc083433d5fa2fa7a652bf59cbcab27748d964987",
        "scriptpubkey_asm": "OP_HASH160 OP_PUSHBYTES_20 edc083433d5fa2fa7a652bf59cbcab27748d9649 OP_EQUAL",
        "scriptpubkey_type": "p2sh",
        "scriptpubkey_address": "3PN8h2Yz3sXs5ND8SU1s9dRARVmAupnWha",
        "value": 1999664
      },
      "scriptsig": "160014bb26a71477912cb6a57479165419ffa47f5ce552",
      "scriptsig_asm": "OP_PUSHBYTES_22 0014bb26a71477912cb6a57479165419ffa47f5ce552",
      "witness": [
        "3045022100a9a0449c3710fc465ba52396ce536281b6eae53d1490650b0fe5d5cb9c402f17022058a236f050a8103fbd38d1034b5e486a3cdbbf545fe504494193a0b8c1ae301b01",
        "038c92a5fdf6c46156470dc42ce12511124bd01efe2952f5d6ae3683b94eb87cef"
      ],
      "is_coinbase": false,
      "sequence": 0,
      "inner_redeemscript_asm": "OP_0 OP_PUSHBYTES_20 bb26a71477912cb6a57479165419ffa47f5ce552"
    },
    {
      "txid": "95dd066bcd15031221397a1eb82cfc2567235d63168235f61567353781503734",
      "vout": 1,
      "prevout": {
        "scriptpubkey": "a914a954397a46df3781538d4ff37316f5ad6f1008af87",
        "scriptpubkey_asm": "OP_HASH160 OP_PUSHBYTES_20 a954397a46df3781538d4ff37316f5ad6f1008af OP_EQUAL",
        "scriptpubkey_type": "p2sh",
        "scriptpubkey_address": "3H8M1z7QWQcotr5fX2QGv7roLRLqAbBouN",
        "value": 2999664
      },
      "scriptsig": "1600148efc0b4f42ae5ee58777c40dde93c743b79d7b8a",
      "scriptsig_asm": "OP_PUSHBYTES_22 00148efc0b4f42ae5ee58777c40dde93c743b79d7b8a",
      "witness": [
        "30450221008b8498a8454aaab51b1e9780124204247379c33304ca143450adee04216d8833022037c04002ff73e98fe3d76f9570be518fb490c82e7ee3a090408721d3edc1b82801",
        "03d0893186b45704df299240a2de34b374a2507836659c14ed9d2767460b3577ac"
      ],
      "is_coinbase": false,
      "sequence": 0,
      "inner_redeemscript_asm": "OP_0 OP_PUSHBYTES_20 8efc0b4f42ae5ee58777c40dde93c743b79d7b8a"
    }
  ],
  "vout": [
    {
      "scriptpubkey": "a9143569430b9f590f3787cb0d7a84980329faaa321087",
      "scriptpubkey_asm": "OP_HASH160 OP_PUSHBYTES_20 3569430b9f590f3787cb0d7a84980329faaa3210 OP_EQUAL",
      "scriptpubkey_type": "p2sh",
      "scriptpubkey_address": "36ZRqSDMny9kxsrRiNEyz5bm89mWJxiuw7",
      "value": 10000000
    },
    {
      "scriptpubkey": "a9140cf80163e816b7428114497758ce03ae60e551c887",
      "scriptpubkey_asm": "OP_HASH160 OP_PUSHBYTES_20 0cf80163e816b7428114497758ce03ae60e551c8 OP_EQUAL",
      "scriptpubkey_type": "p2sh",
      "scriptpubkey_address": "32sb8ZjNZi2DLWyNMmLRG6jqRffs7BJXSp",
      "value": 894240
    }
  ],
  "size": 763,
  "weight": 1753,
  "fee": 4752,
  "status": {
    "confirmed": true,
    "block_height": 834464,
    "block_hash": "0000000000000000000177a0869a911a2b65c9bdcd5a8bcb02b68f305bee848e",
    "block_time": 1710308296
  },
  "hex": "02000000000104bd0f118caf774e5d14364454a20cc469cad8a45d27bb5aab9ba46f5ac49c591c010000001716001495f883ebd76056c8e9afa033e5da19dfa421251a0000000060668ef8df6d575a2dced59b47502a466c4c456f008e4aff4a98d6ca9e0eae05010000001716001407d3f028402573d8d479f6f73c85ceb78ff58d5f00000000730375439ff9a85407da83e7e4688be5b4d60256d5ba4688dcfefe2bd122f95a0100000017160014bb26a71477912cb6a57479165419ffa47f5ce552000000003437508137356715f6358216635d236725fc2cb81e7a3921120315cd6b06dd9501000000171600148efc0b4f42ae5ee58777c40dde93c743b79d7b8a0000000002809698000000000017a9143569430b9f590f3787cb0d7a84980329faaa32108720a50d000000000017a9140cf80163e816b7428114497758ce03ae60e551c88702473044022007b504aad659df75b6331fce3e5660cfbbe60694af5ec82b59f825672375155e02203203967b29d5c0f64a2db71034a03e7eefa8226f972ba173d86459e461e0aaf701210218b9d8ca0f0977e9a256a94b6d561634fdde8b8fd1bea372290665f79945f41702483045022100bb93fe7a93187665b08b80c333cd0e1f1f532a9de005e6d08b10b3506983b842022050e4078345029dc248aa28cf2484f8708c8a5173e1310686e3e2b6bbc5bd71230121039dbe252033c49a39b6de29c8383df2e33b40de9754e654dddf25e841092f6cc502483045022100a9a0449c3710fc465ba52396ce536281b6eae53d1490650b0fe5d5cb9c402f17022058a236f050a8103fbd38d1034b5e486a3cdbbf545fe504494193a0b8c1ae301b0121038c92a5fdf6c46156470dc42ce12511124bd01efe2952f5d6ae3683b94eb87cef024830450221008b8498a8454aaab51b1e9780124204247379c33304ca143450adee04216d8833022037c04002ff73e98fe3d76f9570be518fb490c82e7ee3a090408721d3edc1b828012103d0893186b45704df299240a2de34b374a2507836659c14ed9d2767460b3577ac00000000"
}