{
  "txid": "605f2b5c3c19c4fa6fbe2225b0ca6581cc91bb9791e5bf95e46449928d54369d",
  "version": 2,
  "locktime": 0,
  "vin": [
    {
      "txid": "83e6dfd6965ce6540ca47c638b587fce61d50141c9218e961906d7f06bd1f1fe",
      "vout": 0,
      "prevout": {
        "scriptpubkey": "5120195b789096e2023d5b4228907d9a3818d4f938e844914ae2dabd56991b07d22b",
        "scriptpubkey_asm": "OP_PUSHNUM_1 OP_PUSHBYTES_32 195b789096e2023d5b4228907d9a3818d4f938e844914ae2dabd56991b07d22b",
        "scriptpubkey_type": "v1_p2tr",
        "scriptpubkey_address": "bc1pr9dh3yykugpr6k6z9zg8mx3crr20jw8ggjg54ck6h4tfjxc86g4s70evzg",
        "value": 18375
      },
      "scriptsig": "",
      "scriptsig_asm": "",
      "witness": [
        "ee89c40d5adbf09e7e44e5b8e1b215e3a05d1a0432b2bf3a70aa9a770e021739c17ace0ed03bc3fc93eaa3af46fdb5c6ad22daf00a9c0c4dfd6773cc17d80a74",
        "20e7c75469d842b516f1fb609d9c4afad9968e0b39b7cf126b9eae703d0d7b70aeac0063036f7264010109696d6167652f706e67004d080289504e470d0a1a0a0000000d494844520000025800000258080300000089b868ee00000060504c54453b56ac984803723605b26205304587722d0487a7b37e39105b8697682a013431343e3a3dffc4013374f56c6b6f0401061837751e2020b9690c2640936878a7fff258344e9e244382ac820df7c7444a434f6a7c7dbea84aecba0f8f85594573c5b5687934000000097048597300000b1300000b1301009a9c1800000f9849444154789ceddde1561b471645e186c8ee6bc9962128c2088cdfff2d6741ec71425f66554df7e95b757b7f10ff98953852d873ba242433182030287e5380b020415890202c48101624080b12840509c28204614182b020415890202c48101624080b12840509c28204614182b020415890202c48101624080b12840509c28204610d2bb2edd8d27df511960461ad19d6c93683b0582c09c25a33acc136634377f51d7425415884254158842541589cb124088bc592202cc292202cc292202cce581284c562491016610586756b791156605847cb8b3396049742164b82b0084b82b0084b226f5843cfac7b09ee82ef3474ccfa97e13ef8869e59f712dc05dfd033eb5f86fbe01b7a66dd4b7017de3174ec64dd4b1bd6d035eb5e82bbf08ea163d6bf0cf7c137f4ccba97e02ef886ae59f712dc85770c1db3fe65b80fbea167d6bd0477c137f4ec64dd4b1b56df6559f712dc85770c1db3fe65b80faea16bd6bd044d080277e11d43cfac7b09eec23b868e59ff32dc07d7d035eb5e82bbf08ea16327eb1e6135c9ba97e02ef8667e659f3dabada0f5afaffb703eefa61f2f5f8861384d7e9de3f4d9f35cfccf3f7d773cd5dd8477eed6db5f1bd5ec0df3ec5ce7ff231c79589f1ddf0537b4d9b25abd5d2ec2eae79c4f582e166b2ec2222c09c2ea3c2c6b54b337ccc319cb616d6af576b908cb616d6af576b9086bca1ad5ec0df31096c3dad4eaed721196c3dad4eaed7211d69435aad91be6212c87b5a9d5dbe5222c87b5a9d5dbe522ac296b54b337cc43580e6b53abb7cb45580e6b53abb7cb455853d6a8666f9887b01cd6a6566f978bb01cd6a6566f978bb01cd6a6066ed76e775fc4cf4af39af747f7f5584fee7b773e3a1f4fde9b2934af79afb0b9b0e69184f5eddbb7efd34fafb6bf3c4fdf3c43b08d85756e30acb31b863b630f84d568582d2ed6e086c5627515d6b9d14b6161582c56ab61edbab914b2585d8575eefb52c862b51a568b8bb563b1fa0fabc5c53216abffb05a5c2cce5809c26a71b138632508abc5c5e28c9520ac16178b335682b05a5c2cce5809c26a71b138632508abc5c5e28c9520ac16178b335682b05a5c2cce5809c26a71b138632508abc5c5e28c351761b93863f515d66e773ff9d8b5b858c799af6e7878f20c0dca129680e427533c78dcb07c0f8e16c3927da9096bdb610d84d5c0627dce17961156578bf5d04b582c565f617dee4d0802252c168bb034b81436b0589cb1caf1a8507229fcdecba590c56a61b138639563b1b61dd66022842539633df41296aa2bc2f2b15873b158db0ecb54086bdb610d84d5c0a342ce58e558ac8ab058ac7284b5edb04c85b0b61dd640589cb11458ac16c262b13675297c8debedff30372cf7cd1009bf096d2a49c29a88fe827543f5a526ac6d33c262b124088bb014582cc2d260b1582c05168bb034582c164b81c5222c0d168bc55260b1084b83c562b114582cc2d260b1582c05168bb034582c164b81c5222c0d168bc55260b1084b83c562b11458ac5ae7f3f453f2e39cba71763f58ac250c9b76727c74f1660ac22a773e159745588435332c168b4be15c2c96ceb06927168bb004582c164b8233166149b05884a5c1198b3396028b4558129cb1084b82c5222c0dce589cb114582cc292e08c4558122c16616970c6e28ca5c062119604672cc29260b1fa0ceb3cf9ac35f967fddff2dd7fcbf46fffd7df9779b1ecec7c0843da80f3e99f1fc3fff8d5e78755fed948589ee82f4ddf4e153e2eafe5b0263f600915dc271108eb45cd7f46bcc562b158122cd6bb34ffc1b7e2c4a5903396028bc56249c40e168f0ad31ab81472c652e08cc5194b82c562b124582c164b82c562b1247854c86249b0582c9604672c164b82c562b124582c164b82c562b124582c164b82c5aa73d917daed9e8bf9bfe9a56bc74787e2750cfdbdbac175b92db4db7dff4d0802ecf8cbf3e4fe0efb43c7f6c7e3f1f1ed2761e9c27a280febd0b5a353166135b158879eed5f068ac55aef52b8a5c57a7cf3c1a590c55a64b17e7ffefc8b4b218b35dbcf23d6f34b4fcf3f378bb03863cdb59fee159742ce580bf8c783c2d78fd7e9e279acf987f79b9b8d3f2a3c3e1e7f5e027f9db0086b894be1ed2d8f0a8f2f493dff5c2d9ec79286b5a9c53afebe18b2584b3d8fc5621dff7bc0fab95a5c0a59acc516ebd7f18ac562b196f11ad4f33faa7ae6792c166bc9c57a7da281c562b116f2fb12f8eba0c562b1584b7faf9033168b25592c1e15cac3dad0f358c7d7cbdfeb098bc562b196f2f6e558bc6c86c55a6ab1fe7eb6e1f7b70a7982547829747d9b7729f4df26748875f97ba67ea7f5f2ebcb4f2339cdf88b77e9ac19d6ed57cf3ed6e1725c1e613510d66d7059174158159395f77d85d16105777560b1084b82c54a1a56f0a5f0c062250d2be3623d72c6da7c5807162be962657c547862b1e2c30aeeeac062255dace0b0f63c2a4c1a168f0a7d3c41ca624df0a8b081c50abe121e3863d5e1525888478549c3dac73ab0588425c1a3c2a461f1a8d0c7a3c2be2f857bbe579874b182bb3a70c6aa0cabfcbf6d7158dfbe0af0bdc2be2e859fe61aa7fcc999691febc062c587b54f18d69e478549178b4785be2d5d0a3f29c2cab8588f895f8fc56295e18cd540589cb10a657e0569378bb58f75e05161d23356c6e7b18cc5624d0802b12e82b032ffd90d8ac5e28c558847850d2c16cf63f9b6b4583c8f558847852cd6813356fc6271c62ac4a3c206162bf8d986038b15bf583c8f558847852cd681c58a5f2cce58857854d8c062f13c968fe7b1fa3ebceff95e61e247859f0e711fd797cbe572fdefcf979fdc3447e5d76af38b357e12b8bebebe1e5b63f1b67429dc0e8b475819593cc2cac8e2115646168fb032b278849591c523ac8c2c1e616564f1082b238b475819593cc2cac8e2115646168fb032b278849591c523ac8c2c1e616564f1082b238b475819593cc2cac8e211d67899676c90c523ace1cb3cc7b56ab994bfcde6878bb0567d33c58f5ec23acebca15f088bb03c84b504166b82b0084b82b0084b82b0084b82b0084b82b0084b82b0084b82b0084b82b0084b82b0084b82b0084b82b0084b82b0084b82b0084b82b0084b82b0084b82b0084b82b0fa0a6bf8f2e547e98767b577531c7969725761dd28dc7b668675b3da2d5de20bc8bb7456fb72dd13560358ac75fe1fc0627129bc212c16eb9e4ba1b5894be1048b4558372c168bb5dac9e57e9c87c562b16e088bc562b126965806c222ac09c2e25b3ab34db3222cbe57b800c2e29bd0128445581284455812844558128445581284455812844558128445581239c29afd2a2bc59b296e8bf9df5bf6eceea61f77335fddb057dc50f7962ef1a526acdbafc5eeef4a9d3d33c3aab8a13777b36e29616d2aacaf844d0802d5d5a5b09bb06e098bb0ce84656b62b166e0524858772c168bc5196b62898b13617513d6570eef9cb1ce82b0785448587784c5a5904be104672c9e20f5f12d1d9e792fc7198b33d6ddf4f2c2a342259e799f81c522ac3bc562111661dd7129e4e9866e9e6eb82dbfa13c2ae4516139c2e25278c7a5904be16df93b5a2ef38cf354dcd0ddee52fa713a3dbefd7ce499f7259e791fcb7f44cd18eb4bb11fe5697cf42c50168b4558132c168be563b11a7854c8624db05884e563b158ac0aab85c562b1583e168bc5aab05a582c168be563b158ac0aab85c562b1583e168bc5aab05a582c168be563b158ac0aab85c562b1583e168bc5aab05a582c168be563b158ac0aab85c562b1583e168bc5aab05a582cd6228b752c36c63a16b378bce63d238b475819593cc2cac8e2115646168fb032b278849591c523ac8c2c1e616564f1082b238b475819593cc2cac8e2115646168fb032b278849591c523ac8c2c1e616564f1082b238b475819593cc2cac8e21156469638ac27cf37cf95e4ad3ae39659e2b0be7f76fce57922aca5d9d6c27a20ac55583c162b238bc7626564f158ac8c2c1e8b9591c563b132b2782c5646168fc5cac8e2b15819593c162b238bc7626564f158ac8c2c1e8b9591c563b132b2782c5646168fc5cac8e2b15819593c162b238bc7626564f158ac8c6c6b61b99e9c7ffaf1aad8c8bb7426ca7f6c8e2f71587f147be7dd63e34d080296998bb0086b26c262b124088bb024088bb024088bb024088bb024088bb024088bb024088bb024088bb024088bb024088bb024088bb024088bb024088bb024088bb024088bb024088bb024088bb0243287354fc56bdeffb8ba9a7e5ef19af729c2aa0bcbf561dc327311d60261b1585384455833395511d62b166b16c27a0f61cd4258842541588425415884254158842541588425415884254158842541588425415884254158842541588425415884254158842541588425415884254158b2b05ce3c6c3b2d28f052478978eefcfa9ad87b52ac2cac8e2115646168fb032b278849591c523ac8c2c1e616564f1082b238b475819593cc2cac8e2115646168fb032b278849591c523ac8c2c1e616564f1082b238b475819593cc2cac8e2115646168fb032b278849591c5db52587fba7fe39890c5db5458ae31218b47586342168fb0c6842c1e618d09593cc21a13b27884352664f1086b4cc8e211d69890c523ac31218b47586342168fb0c6842c1e618d09593cc21a13b27884352664f1086b4cc8e211d69890c523ac31218b47586342168fb0c6842c1e618d093dae87b092bee6fd2a18611196046111960461119604611196046111960461119604611196046111960461119604611196046111960461119604611196046111960461119604611196046111960461119604611196446761d9fcd782bfbc1abce8afbe5d05eb2dac4f738d1b4d080271455884a54058842541588425415884254158842541588425415884254158842541588425415884254158842541588425415884254158842541588425415884254158842541588425415884254158842541582b87f5a171e342ae8b953758f3efdfdcbb741a2ccb14246155fca69b0beb437b4c81b0560eabc1b22c6158d7efdd2e168bb026b814b258c6a5b04ec22be1075320ac95c36ab02c4b181667ac0658c2b0b6f774038bf516612d12d687f698c27531c262b1fa098b3356034c81c5aac319ab1061d5e18c5588b0eab058853863d561b10ab1587558ac42845587c52a44587558ac429cb1eab0588558ac3a2c5621c2aac3621522ac3a2c5621ce587558ac422c561d16ab1061d561b10a11561d16ab1067ac3a2c562116ab0e8b5588b0eab0588508ab0e8b558833561d16ab108b5587c52a44587558ac42845587c52ac419ab0e8b5588c5aac3621522ac3a2c5621c2aac36215e28c5587c52ac462d561b10a11561d16ab50c59f3824f86917fc897e2d3085eb609bfba3223fb4c71482bbe2cf206d8011563c16ab108b558747857d84c519ab01a6c062d561b10a11561dce588508ab0e8b558833561d16ab108b5587c52a44587558ac42845587c52ac419ab0e8b5588c5aac3621522ac3a2c5621c2aac36215e28c5587c52ac462d561b10a11561d16ab1061d561b10a71c6aac3621562b1eab0588508ab0e8bd57958ff015df51214c8fea3f63f0000000049454e44ae42608268",
        "c1e7c75469d842b516f1fb609d9c4afad9968e0b39b7cf126b9eae703d0d7b70ae"
      ],
      "is_coinbase": false,
      "sequence": 4294967293
    }
  ],
  "vout": [
    {
      "scriptpubkey": "512092d0c4be49414c8ce960e04bd67b94f223e9ce71227bcb9ae8584d3d87f33a1e",
      "scriptpubkey_asm": "OP_PUSHNUM_1 OP_PUSHBYTES_32 92d0c4be49414c8ce960e04bd67b94f223e9ce71227bcb9ae8584d3d87f33a1e",
      "scriptpubkey_type": "v1_p2tr",
      "scriptpubkey_address": "bc1pjtgvf0jfg9xge6tqup9av7u57g37nnn3yfauhxhgtpxnmpln8g0qek58d9",
      "value": 600
    }
  ],
  "size": 4456,
  "weight": 4738,
  "fee": 17775,
  "status": {
    "confirmed": true,
    "block_height": 834460,
    "block_hash": "00000000000000000000484a79b643b2524bbce82e5d8a442013fa5b8905ed98",
    "block_time": 1710307468
  },
  "hex": "02000000000101fef1d16bf0d70619968e21c94101d561ce7f588b637ca40c54e65c96d6dfe6830000000000fdffffff01580200000000000022512092d0c4be49414c8ce960e04bd67b94f223e9ce71227bcb9ae8584d3d87f33a1e0340ee89c40d5adbf09e7e44e5b8e1b215e3a05d1a0432b2bf3a70aa9a770e021739c17ace0ed03bc3fc93eaa3af46fdb5c6ad22daf00a9c0c4dfd6773cc17d80a74fda11020e7c75469d842b516f1fb609d9c4afad9968e0b39b7cf126b9eae703d0d7b70aeac0063036f7264010109696d6167652f706e67004d080289504e470d0a1a0a0000000d494844520000025800000258080300000089b868ee00000060504c54453b56ac984803723605b26205304587722d0487a7b37e39105b8697682a013431343e3a3dffc4013374f56c6b6f0401061837751e2020b9690c2640936878a7fff258344e9e244382ac820df7c7444a434f6a7c7dbea84aecba0f8f85594573c5b5687934000000097048597300000b1300000b1301009a9c1800000f9849444154789ceddde1561b471645e186c8ee6bc9962128c2088cdfff2d6741ec71425f66554df7e95b757b7f10ff98953852d873ba242433182030287e5380b020415890202c48101624080b12840509c28204614182b020415890202c48101624080b12840509c28204614182b020415890202c48101624080b12840509c28204610d2bb2edd8d27df511960461ad19d6c93683b0582c09c25a33acc136634377f51d7425415884254158842541589cb124088bc592202cc292202cc292202cce581284c562491016610586756b791156605847cb8b3396049742164b82b0084b82b0084b226f5843cfac7b09ee82ef3474ccfa97e13ef8869e59f712dc05dfd033eb5f86fbe01b7a66dd4b7017de3174ec64dd4b1bd6d035eb5e82bbf08ea163d6bf0cf7c137f4ccba97e02ef886ae59f712dc85770c1db3fe65b80fbea167d6bd0477c137f4ec64dd4b1b56df6559f712dc85770c1db3fe65b80faea16bd6bd044d080277e11d43cfac7b09eec23b868e59ff32dc07d7d035eb5e82bbf08ea16327eb1e6135c9ba97e02ef8667e659f3dabada0f5afaffb703eefa61f2f5f8861384d7e9de3f4d9f35cfccf3f7d773cd5dd8477eed6db5f1bd5ec0df3ec5ce7ff231c79589f1ddf0537b4d9b25abd5d2ec2eae79c4f582e166b2ec2222c09c2ea3c2c6b54b337ccc319cb616d6af576b908cb616d6af576b9086bca1ad5ec0df31096c3dad4eaed721196c3dad4eaed7211d69435aad91be6212c87b5a9d5dbe5222c87b5a9d5dbe522ac296b54b337cc43580e6b53abb7cb45580e6b53abb7cb455853d6a8666f9887b01cd6a6566f978bb01cd6a6566f978bb01cd6a6066ed76e775fc4cf4af39af747f7f5584fee7b773e3a1f4fde9b2934af79afb0b9b0e69184f5eddbb7efd34fafb6bf3c4fdf3c43b08d85756e30acb31b863b630f84d568582d2ed6e086c5627515d6b9d14b6161582c56ab61edbab914b2585d8575eefb52c862b51a568b8bb563b1fa0fabc5c53216abffb05a5c2cce5809c26a71b138632508abc5c5e28c9520ac16178b335682b05a5c2cce5809c26a71b138632508abc5c5e28c9520ac16178b335682b05a5c2cce5809c26a71b138632508abc5c5e28c351761b93863f515d66e773ff9d8b5b858c799af6e7878f20c0dca129680e427533c78dcb07c0f8e16c3927da9096bdb610d84d5c0627dce17961156578bf5d04b582c565f617dee4d0802252c168bb034b81436b0589cb1caf1a8507229fcdecba590c56a61b138639563b1b61dd66022842539633df41296aa2bc2f2b15873b158db0ecb54086bdb610d84d5c0a342ce58e558ac8ab058ac7284b5edb04c85b0b61dd640589cb11458ac16c262b13675297c8debedff30372cf7cd1009bf096d2a49c29a88fe827543f5a526ac6d33c262b124088bb014582cc2d260b1582c05168bb034582c164b81c5222c0d168bc55260b1084b83c562b114582cc2d260b1582c05168bb034582c164b81c5222c0d168bc55260b1084b83c562b11458ac5ae7f3f453f2e39cba71763f58ac250c9b76727c74f1660ac22a773e159745588435332c168b4be15c2c96ceb06927168bb004582c164b8233166149b05884a5c1198b3396028b4558129cb1084b82c5222c0dce589cb114582cc292e08c4558122c16616970c6e28ca5c062119604672cc29260b1fa0ceb3cf9ac35f967fddff2dd7fcbf46fffd7df9779b1ecec7c0843da80f3e99f1fc3fff8d5e78755fed948589ee82f4ddf4e153e2eafe5b0263f600915dc271108eb45cd7f46bcc562b158122cd6bb34ffc1b7e2c4a5903396028bc56249c40e168f0ad31ab81472c652e08cc5194b82c562b124582c164b82c562b1247854c86249b0582c9604672c164b82c562b124582c164b82c562b124582c164b82c5aa73d917daed9e8bf9bfe9a56bc74787e2750cfdbdbac175b92db4db7dff4d0802ecf8cbf3e4fe0efb43c7f6c7e3f1f1ed2761e9c27a280febd0b5a353166135b158879eed5f068ac55aef52b8a5c57a7cf3c1a590c55a64b17e7ffefc8b4b218b35dbcf23d6f34b4fcf3f378bb03863cdb59fee159742ce580bf8c783c2d78fd7e9e279acf987f79b9b8d3f2a3c3e1e7f5e027f9db0086b894be1ed2d8f0a8f2f493dff5c2d9ec79286b5a9c53afebe18b2584b3d8fc5621dff7bc0fab95a5c0a59acc516ebd7f18ac562b196f11ad4f33faa7ae6792c166bc9c57a7da281c562b116f2fb12f8eba0c562b1584b7faf9033168b25592c1e15cac3dad0f358c7d7cbdfeb098bc562b196f2f6e558bc6c86c55a6ab1fe7eb6e1f7b70a7982547829747d9b7729f4df26748875f97ba67ea7f5f2ebcb4f2339cdf88b77e9ac19d6ed57cf3ed6e1725c1e613510d66d7059174158159395f77d85d16105777560b1084b82c54a1a56f0a5f0c062250d2be3623d72c6da7c5807162be962657c547862b1e2c30aeeeac062255dace0b0f63c2a4c1a168f0a7d3c41ca624df0a8b081c50abe121e3863d5e1525888478549c3dac73ab0588425c1a3c2a461f1a8d0c7a3c2be2f857bbe579874b182bb3a70c6aa0cabfcbf6d7158dfbe0af0bdc2be2e859fe61aa7fcc999691febc062c587b54f18d69e478549178b4785be2d5d0a3f29c2cab8588f895f8fc56295e18cd540589cb10a657e0569378bb58f75e05161d23356c6e7b18cc5624d0802b12e82b032ffd90d8ac5e28c558847850d2c16cf63f9b6b4583c8f558847852cd6813356fc6271c62ac4a3c206162bf8d986038b15bf583c8f558847852cd681c58a5f2cce58857854d8c062f13c968fe7b1fa3ebceff95e61e247859f0e711fd797cbe572fdefcf979fdc3447e5d76af38b357e12b8bebebe1e5b63f1b67429dc0e8b475819593cc2cac8e2115646168fb032b278849591c523ac8c2c1e616564f1082b238b475819593cc2cac8e2115646168fb032b278849591c523ac8c2c1e616564f1082b238b475819593cc2cac8e211d67899676c90c523ace1cb3cc7b56ab994bfcde6878bb0567d33c58f5ec23acebca15f088bb03c84b504166b82b0084b82b0084b82b0084b82b0084b82b0084b82b0084b82b0084b82b0084b82b0084b82b0084b82b0084b82b0084b82b0084b82b0084b82b0084b82b0084b82b0fa0a6bf8f2e547e98767b577531c7969725761dd28dc7b668675b3da2d5de20bc8bb7456fb72dd13560358ac75fe1fc0627129bc212c16eb9e4ba1b5894be1048b4558372c168bb5dac9e57e9c87c562b16e088bc562b126965806c222ac09c2e25b3ab34db3222cbe57b800c2e29bd0128445581284455812844558128445581284455812844558128445581239c29afd2a2bc59b296e8bf9df5bf6eceea61f77335fddb057dc50f7962ef1a526acdbafc5eeef4a9d3d33c3aab8a13777b36e29616d2aacaf844d0802d5d5a5b09bb06e098bb0ce84656b62b166e0524858772c168bc5196b62898b13617513d6570eef9cb1ce82b0785448587784c5a5904be104672c9e20f5f12d1d9e792fc7198b33d6ddf4f2c2a342259e799f81c522ac3bc562111661dd7129e4e9866e9e6eb82dbfa13c2ae4516139c2e25278c7a5904be16df93b5a2ef38cf354dcd0ddee52fa713a3dbefd7ce499f7259e791fcb7f44cd18eb4bb11fe5697cf42c50168b4558132c168be563b11a7854c8624db05884e563b158ac0aab85c562b1583e168bc5aab05a582c168be563b158ac0aab85c562b1583e168bc5aab05a582c168be563b158ac0aab85c562b1583e168bc5aab05a582c168be563b158ac0aab85c562b1583e168bc5aab05a582cd6228b752c36c63a16b378bce63d238b475819593cc2cac8e2115646168fb032b278849591c523ac8c2c1e616564f1082b238b475819593cc2cac8e2115646168fb032b278849591c523ac8c2c1e616564f1082b238b475819593cc2cac8e21156469638ac27cf37cf95e4ad3ae39659e2b0be7f76fce57922aca5d9d6c27a20ac55583c162b238bc7626564f158ac8c2c1e8b9591c563b132b2782c5646168fc5cac8e2b15819593c162b238bc7626564f158ac8c2c1e8b9591c563b132b2782c5646168fc5cac8e2b15819593c162b238bc7626564f158ac8c6c6b61b99e9c7ffaf1aad8c8bb7426ca7f6c8e2f71587f147be7dd63e34d080296998bb0086b26c262b124088bb024088bb024088bb024088bb024088bb024088bb024088bb024088bb024088bb024088bb024088bb024088bb024088bb024088bb024088bb024088bb024088bb0243287354fc56bdeffb8ba9a7e5ef19af729c2aa0bcbf561dc327311d60261b1585384455833395511d62b166b16c27a0f61cd4258842541588425415884254158842541588425415884254158842541588425415884254158842541588425415884254158842541588425415884254158b2b05ce3c6c3b2d28f052478978eefcfa9ad87b52ac2cac8e2115646168fb032b278849591c523ac8c2c1e616564f1082b238b475819593cc2cac8e2115646168fb032b278849591c523ac8c2c1e616564f1082b238b475819593cc2cac8e2115646168fb032b278849591c5db52587fba7fe39890c5db5458ae31218b47586342168fb0c6842c1e618d09593cc21a13b27884352664f1086b4cc8e211d69890c523ac31218b47586342168fb0c6842c1e618d09593cc21a13b27884352664f1086b4cc8e211d69890c523ac31218b47586342168fb0c6842c1e618d093dae87b092bee6fd2a18611196046111960461119604611196046111960461119604611196046111960461119604611196046111960461119604611196046111960461119604611196046111960461119604611196446761d9fcd782bfbc1abce8afbe5d05eb2dac4f738d1b4d080271455884a54058842541588425415884254158842541588425415884254158842541588425415884254158842541588425415884254158842541588425415884254158842541588425415884254158842541582b87f5a171e342ae8b953758f3efdfdcbb741a2ccb14246155fca69b0beb437b4c81b0560eabc1b22c6158d7efdd2e168bb026b814b258c6a5b04ec22be1075320ac95c36ab02c4b181667ac0658c2b0b6f774038bf516612d12d687f698c27531c262b1fa098b3356034c81c5aac319ab1061d5e18c5588b0eab058853863d561b10ab1587558ac42845587c52a44587558ac429cb1eab0588558ac3a2c5621c2aac3621522ac3a2c5621ce587558ac422c561d16ab1061d561b10a11561d16ab1067ac3a2c562116ab0e8b5588b0eab0588508ab0e8b558833561d16ab108b5587c52a44587558ac42845587c52ac419ab0e8b5588c5aac3621522ac3a2c5621c2aac36215e28c5587c52ac462d561b10a11561d16ab50c59f3824f86917fc897e2d3085eb609bfba3223fb4c71482bbe2cf206d8011563c16ab108b558747857d84c519ab01a6c062d561b10a11561dce588508ab0e8b558833561d16ab108b5587c52a44587558ac42845587c52ac419ab0e8b5588c5aac3621522ac3a2c5621c2aac36215e28c5587c52ac462d561b10a11561d16ab1061d561b10a71c6aac3621562b1eab0588508ab0e8bd57958ff015df51214c8fea3f63f0000000049454e44ae4260826821c1e7c75469d842b516f1fb609d9c4afad9968e0b39b7cf126b9eae703d0d7b70ae00000000"
}