{
  "txid": "607090de17c627a10e062c9da4f1814c5a1a3800b62515612c2445e0867b8891",
  "version": 1,
  "locktime": 0,
  "vin": [
    {
      "txid": "81b8a2dfffad0f9b0cfa3d2845548d5c1970378e9eda78b7b755d1abc08b393b",
      "vout": 4,
      "prevout": {
        "scriptpubkey": "001486551f1ca7d5fc1ff18d8379bbce2b1fff1e4d87",
        "scriptpubkey_asm": "OP_0 OP_PUSHBYTES_20 86551f1ca7d5fc1ff18d8379bbce2b1fff1e4d87",
        "scriptpubkey_type": "v0_p2wpkh",
        "scriptpubkey_address": "bc1qse2378986h7pluvdsdumhn3trll3unv8ukgas5",
        "value": 318825
      },
      "scriptsig": "",
      "scriptsig_asm": "",
      "witness": [
        "304402202927761c80b9fa0e9e2fc8a7e7ab14043554a69d396d198e0fff65fc05a1f192022034f977a5b67ce1354ab28ebcb08c7f7c51d0afc26a675090d2a228e2d85031cf01",
        "033f0c33a50df647a12eca2cf81acf56f21f95c4b5e12be8efe17d40c529ad2b4a"
      ],
      "is_coinbase": false,
      "sequence": 4294967295
    }
  ],
  "vout": [
    {
      "scriptpubkey": "00141a58be0662e3aacee86daee42518a42dbfddbd4b",
      "scriptpubkey_asm": "OP_0 OP_PUSHBYTES_20 1a58be0662e3aacee86daee42518a42dbfddbd4b",
      "scriptpubkey_type": "v0_p2wpkh",
      "scriptpubkey_address": "bc1qrfvtupnzuw4va6rd4mjz2x9y9klam02tx9xm8v",
      "value": 227680
    },
    {
      "scriptpubkey": "001486551f1ca7d5fc1ff18d8379bbce2b1fff1e4d87",
      "scriptpubkey_asm": "OP_0 OP_PUSHBYTES_20 86551f1ca7d5fc1ff18d8379bbce2b1fff1e4d87",
      "scriptpubkey_type": "v0_p2wpkh",
      "scriptpubkey_address": "bc1qse2378986h7pluvdsdumhn3trll3unv8ukgas5",
      "value": 87338
    }
  ],
  "size": 222,
  "weight": 561,
  "fee": 3807,
  "status": {
    "confirmed": true,
    "block_height": 834638,
    "block_hash": "000000000000000000025f742c626208ac87e0b7d15054abb4a19ca2d735a54e",
    "block_time": 1710405325
  },
  "hex": "010000000001013b398bc0abd155b7b778da9e8e3770195c8d5445283dfa0c9b0fadffdfa2b8810400000000ffffffff0260790300000000001600141a58be0662e3aacee86daee42518a42dbfddbd4b2a5501000000000016001486551f1ca7d5fc1ff18d8379bbce2b1fff1e4d870247304402202927761c80b9fa0e9e2fc8a7e7ab14043554a69d396d198e0fff65fc05a1f192022034f977a5b67ce1354ab28ebcb08c7f7c51d0afc26a675090d2a228e2d85031cf0121033f0c33a50df647a12eca2cf81acf56f21f95c4b5e12be8efe17d40c529ad2b4a00000000"
}