{
  "txid": "607e8ac9f62647ee9d2bff659c1e08542aa99eec29a2bfc031215d31f37208f5",
  "version": 1,
  "locktime": 0,
  "vin": [
    {
      "txid": "b1d43e97421d9662f69bec0acaa63d2e27302821479ef48087c71f9ef4ba8b1e",
      "vout": 2,
      "prevout": {
        "scriptpubkey": "76a914f0ba762697078ced4960a38bfaeccff25273153688ac",
        "scriptpubkey_asm": "OP_DUP OP_HASH160 OP_PUSHBYTES_20 f0ba762697078ced4960a38bfaeccff252731536 OP_EQUALVERIFY OP_CHECKSIG",
        "scriptpubkey_type": "p2pkh",
        "scriptpubkey_address": "1NwrYca4hpwohNEwkykD2u2KhcMSXjSkSi",
        "value": 29103
      },
      "scriptsig": "47304402201a4c2bcb80d5cff22e49a743fed746413880067a1e3d6031ea2ecca2776738e8022051b2a3ce003bc729701b45efcc32e595e36c21da0f69a15a5e1fe1c0aface13101210345a33e86b38abd08adaa712a76a4bd20f8c86b8449316aceda3be766b8f395fc",
      "scriptsig_asm": "OP_PUSHBYTES_71 304402201a4c2bcb80d5cff22e49a743fed746413880067a1e3d6031ea2ecca2776738e8022051b2a3ce003bc729701b45efcc32e595e36c21da0f69a15a5e1fe1c0aface13101 OP_PUSHBYTES_33 0345a33e86b38abd08adaa712a76a4bd20f8c86b8449316aceda3be766b8f395fc",
      "is_coinbase": false,
      "sequence": 4294967295
    }
  ],
  "vout": [
    {
      "scriptpubkey": "0014db91d8cfae83565445efd93cdf1db9c8a68f038d",
      "scriptpubkey_asm": "OP_0 OP_PUSHBYTES_20 db91d8cfae83565445efd93cdf1db9c8a68f038d",
      "scriptpubkey_type": "v0_p2wpkh",
      "scriptpubkey_address": "bc1qmwga3nawsdt9g300my7d78deezng7qudekt58s",
      "value": 25713
    }
  ],
  "size": 188,
  "weight": 752,
  "fee": 3390,
  "status": {
    "confirmed": true,
    "block_height": 834638,
    "block_hash": "000000000000000000025f742c626208ac87e0b7d15054abb4a19ca2d735a54e",
    "block_time": 1710405325
  },
  "hex": "01000000011e8bbaf49e1fc78780f49e47212830272e3da6ca0aec9bf662961d42973ed4b1020000006a47304402201a4c2bcb80d5cff22e49a743fed746413880067a1e3d6031ea2ecca2776738e8022051b2a3ce003bc729701b45efcc32e595e36c21da0f69a15a5e1fe1c0aface13101210345a33e86b38abd08adaa712a76a4bd20f8c86b8449316aceda3be766b8f395fcffffffff017164000000000000160014db91d8cfae83565445efd93cdf1db9c8a68f038d00000000"
}