{
  "txid": "608ba3d80de3b62a638d72c0098da1e11409051b5d28c53c26681e6c4005841e",
  "version": 1,
  "locktime": 0,
  "vin": [
    {
      "txid": "a4a3586e7b4e6ffdac2c55f42ddd2de7a3665b0d8cb528a2512c9a774f465335",
      "vout": 5,
      "prevout": {
        "scriptpubkey": "0014d3fdecaa8c7b6ebfdaeb2d4d5848966ccadffdd0",
        "scriptpubkey_asm": "OP_0 OP_PUSHBYTES_20 d3fdecaa8c7b6ebfdaeb2d4d5848966ccadffdd0",
        "scriptpubkey_type": "v0_p2wpkh",
        "scriptpubkey_address": "bc1q6077e25v0dhtlkht94x4sjykdn9dllwsh0ylh8",
        "value": 55494
      },
      "scriptsig": "",
      "scriptsig_asm": "",
      "witness": [
        "3044022069fbacb01e702ebc5c1723b69ec01f49d243f46aeb301714a488751b542883d9022035f0b0140e3bc9a4e71f774684f55f0d9c6e15026aedfd532500eeb4ded186ff01",
        "02ade30a74ee98c5f9ecdd24631f103895147ac8497cc7c09c2e0580ebed4928cf"
      ],
      "is_coinbase": false,
      "sequence": 4294967295
    },
    {
      "txid": "c57905ac9d82a15bcdfd8d6e5ab77642241764b8a5bd19a37cdd4635a8f9a247",
      "vout": 139,
      "prevout": {
        "scriptpubkey": "0014d3fdecaa8c7b6ebfdaeb2d4d5848966ccadffdd0",
        "scriptpubkey_asm": "OP_0 OP_PUSHBYTES_20 d3fdecaa8c7b6ebfdaeb2d4d5848966ccadffdd0",
        "scriptpubkey_type": "v0_p2wpkh",
        "scriptpubkey_address": "bc1q6077e25v0dhtlkht94x4sjykdn9dllwsh0ylh8",
        "value": 69169
      },
      "scriptsig": "",
      "scriptsig_asm": "",
      "witness": [
        "304502210080e69988a71eb8b257da68c92c1bfe271964de679c26e4b1dd20b6e914263ddd02206e03a6fdf72d69d6655b8acc9dc33aafb9283db9089bdf3ef8e22fe15e5e8fdf01",
        "02ade30a74ee98c5f9ecdd24631f103895147ac8497cc7c09c2e0580ebed4928cf"
      ],
      "is_coinbase": false,
      "sequence": 4294967295
    },
    {
      "txid": "564200d55453e3e69233f00ed0013916831debed04591d82a827554489c7878f",
      "vout": 76,
      "prevout": {
        "scriptpubkey": "0014d3fdecaa8c7b6ebfdaeb2d4d5848966ccadffdd0",
        "scriptpubkey_asm": "OP_0 OP_PUSHBYTES_20 d3fdecaa8c7b6ebfdaeb2d4d5848966ccadffdd0",
        "scriptpubkey_type": "v0_p2wpkh",
        "scriptpubkey_address": "bc1q6077e25v0dhtlkht94x4sjykdn9dllwsh0ylh8",
        "value": 69266
      },
      "scriptsig": "",
      "scriptsig_asm": "",
      "witness": [
        "3044022067ecaa8c776591ace3f9f69cb02b29ec2af806c8213da91f53c4758c34919cb50220238ec17c775ceba5f8995429ec2e9f458283bee977eae2c964b7092632f049f501",
        "02ade30a74ee98c5f9ecdd24631f103895147ac8497cc7c09c2e0580ebed4928cf"
      ],
      "is_coinbase": false,
      "sequence": 4294967295
    },
    {
      "txid": "e2e4ec05be970975308a09c354b9862ef0ac09cd3cc724622bf90149d6cb2434",
      "vout": 140,
      "prevout": {
        "scriptpubkey": "0014d3fdecaa8c7b6ebfdaeb2d4d5848966ccadffdd0",
        "scriptpubkey_asm": "OP_0 OP_PUSHBYTES_20 d3fdecaa8c7b6ebfdaeb2d4d5848966ccadffdd0",
        "scriptpubkey_type": "v0_p2wpkh",
        "scriptpubkey_address": "bc1q6077e25v0dhtlkht94x4sjykdn9dllwsh0ylh8",
        "value": 71957
      },
      "scriptsig": "",
      "scriptsig_asm": "",
      "witness": [
        "304402207b687dbd96eb973ab208887ef6b0e04de9760665abaca6645a7898f51c775ba202206a796e2077fbd7bef960d9774fe95b98131be66fb352d8d35a96eb6cdb6b5bc001",
        "02ade30a74ee98c5f9ecdd24631f103895147ac8497cc7c09c2e0580ebed4928cf"
      ],
      "is_coinbase": false,
      "sequence": 4294967295
    },
    {
      "txid": "aceb2232f337660a0aa3de7b9436fd23a6ce2f29be9abfa8ea4f5026ac141125",
      "vout": 200,
      "prevout": {
        "scriptpubkey": "0014d3fdecaa8c7b6ebfdaeb2d4d5848966ccadffdd0",
        "scriptpubkey_asm": "OP_0 OP_PUSHBYTES_20 d3fdecaa8c7b6ebfdaeb2d4d5848966ccadffdd0",
        "scriptpubkey_type": "v0_p2wpkh",
        "scriptpubkey_address": "bc1q6077e25v0dhtlkht94x4sjykdn9dllwsh0ylh8",
        "value": 137561
      },
      "scriptsig": "",
      "scriptsig_asm": "",
      "witness": [
        "30450221009a468d93aac8fd0ffdec23169e2c53ac58f1042c45659888322d99531091b47f02201e08d1724abbded549df0a3c6a6e5869e7460642368498d49a3ce71d4719472001",
        "02ade30a74ee98c5f9ecdd24631f103895147ac8497cc7c09c2e0580ebed4928cf"
      ],
      "is_coinbase": false,
      "sequence": 4294967295
    },
    {
      "txid": "74883342cddb9f6845af37f987e5014f03912a1fd654da145f954e7863f029d2",
      "vout": 44,
      "prevout": {
        "scriptpubkey": "0014d3fdecaa8c7b6ebfdaeb2d4d5848966ccadffdd0",
        "scriptpubkey_asm": "OP_0 OP_PUSHBYTES_20 d3fdecaa8c7b6ebfdaeb2d4d5848966ccadffdd0",
        "scriptpubkey_type": "v0_p2wpkh",
        "scriptpubkey_address": "bc1q6077e25v0dhtlkht94x4sjykdn9dllwsh0ylh8",
        "value": 138321
      },
      "scriptsig": "",
      "scriptsig_asm": "",
      "witness": [
        "30450221009abdfd54869d9d78e5ba6e4fb23c96797eb260773367d45a630b7480c019f2c20220207f609833dea5375385abe92150cebcd9dd5cf889500dcdac0f7595aee9903201",
        "02ade30a74ee98c5f9ecdd24631f103895147ac8497cc7c09c2e0580ebed4928cf"
      ],
      "is_coinbase": false,
      "sequence": 4294967295
    },
    {
      "txid": "1c25ee91e7888bc4c1c5a97644cca728cf31af338e7677285e7890cea94989e3",
      "vout": 80,
      "prevout": {
        "scriptpubkey": "0014d3fdecaa8c7b6ebfdaeb2d4d5848966ccadffdd0",
        "scriptpubkey_asm": "OP_0 OP_PUSHBYTES_20 d3fdecaa8c7b6ebfdaeb2d4d5848966ccadffdd0",
        "scriptpubkey_type": "v0_p2wpkh",
        "scriptpubkey_address": "bc1q6077e25v0dhtlkht94x4sjykdn9dllwsh0ylh8",
        "value": 143678
      },
      "scriptsig": "",
      "scriptsig_asm": "",
      "witness": [
        "3045022100f6ce252e8cc9e25bd9aaaab73c78d583b6a908ad3aa34acaae937a7b9063bedb02201cc6f88a42f032c84bd87c581d2bf7e01e85595d72c2f84e51eb89379483a6f901",
        "02ade30a74ee98c5f9ecdd24631f103895147ac8497cc7c09c2e0580ebed4928cf"
      ],
      "is_coinbase": false,
      "sequence": 4294967295
    },
    {
      "txid": "475ee063880d730ffe0b2d1c0087e41124f63a07cf3300be7c76d65a5d697839",
      "vout": 13,
      "prevout": {
        "scriptpubkey": "0014d3fdecaa8c7b6ebfdaeb2d4d5848966ccadffdd0",
        "scriptpubkey_asm": "OP_0 OP_PUSHBYTES_20 d3fdecaa8c7b6ebfdaeb2d4d5848966ccadffdd0",
        "scriptpubkey_type": "v0_p2wpkh",
        "scriptpubkey_address": "bc1q6077e25v0dhtlkht94x4sjykdn9dllwsh0ylh8",
        "value": 143696
      },
      "scriptsig": "",
      "scriptsig_asm": "",
      "witness": [
        "3045022100963408685ad651b078b5c0ec21ee6fc06ded51056329cae1f4c32ad867596b79022009dddfcc4158c20202eb7f68cc187a3e4e85f13196a4595b7b99c7a5ef81ddec01",
        "02ade30a74ee98c5f9ecdd24631f103895147ac8497cc7c09c2e0580ebed4928cf"
      ],
      "is_coinbase": false,
      "sequence": 4294967295
    },
    {
      "txid": "a67ccd0c9ac2318237dee6275da5b155f4097e36eadc9382192ca7e510327e89",
      "vout": 31,
      "prevout": {
        "scriptpubkey": "0014d3fdecaa8c7b6ebfdaeb2d4d5848966ccadffdd0",
        "scriptpubkey_asm": "OP_0 OP_PUSHBYTES_20 d3fdecaa8c7b6ebfdaeb2d4d5848966ccadffdd0",
        "scriptpubkey_type": "v0_p2wpkh",
        "scriptpubkey_address": "bc1q6077e25v0dhtlkht94x4sjykdn9dllwsh0ylh8",
        "value": 143747
      },
      "scriptsig": "",
      "scriptsig_asm": "",
      "witness": [
        "304402203501b089c096739df5e022a768ad9ab0b6ae1b04c99c8c428143e2a36f3d84ae02200843896e399c0045024f4efdc2998a36e42804981d150632a0350038a320766d01",
        "02ade30a74ee98c5f9ecdd24631f103895147ac8497cc7c09c2e0580ebed4928cf"
      ],
      "is_coinbase": false,
      "sequence": 4294967295
    },
    {
      "txid": "3fa09fc4f88e91d20c791e030c5fbfecee386622ee6ed79b85ad995f6ad1d0fc",
      "vout": 23,
      "prevout": {
        "scriptpubkey": "0014d3fdecaa8c7b6ebfdaeb2d4d5848966ccadffdd0",
        "scriptpubkey_asm": "OP_0 OP_PUSHBYTES_20 d3fdecaa8c7b6ebfdaeb2d4d5848966ccadffdd0",
        "scriptpubkey_type": "v0_p2wpkh",
        "scriptpubkey_address": "bc1q6077e25v0dhtlkht94x4sjykdn9dllwsh0ylh8",
        "value": 318480
      },
      "scriptsig": "",
      "scriptsig_asm": "",
      "witness": [
        "3045022100d0d451ec6049fe2e6bb446d4a719215b210b0719a592c83c3a985e317914813a02205772d85d261bc627c0c1c5a7752660bb79b727f20f1576c914afa3c7ae10ecfd01",
        "02ade30a74ee98c5f9ecdd24631f103895147ac8497cc7c09c2e0580ebed4928cf"
      ],
      "is_coinbase": false,
      "sequence": 4294967295
    },
    {
      "txid": "0f4e87b17d8d2ab00ba4e881d18f80b470b2e7ed544050634e2afbef27465e9d",
      "vout": 48,
      "prevout": {
        "scriptpubkey": "0014d3fdecaa8c7b6ebfdaeb2d4d5848966ccadffdd0",
        "scriptpubkey_asm": "OP_0 OP_PUSHBYTES_20 d3fdecaa8c7b6ebfdaeb2d4d5848966ccadffdd0",
        "scriptpubkey_type": "v0_p2wpkh",
        "scriptpubkey_address": "bc1q6077e25v0dhtlkht94x4sjykdn9dllwsh0ylh8",
        "value": 359461
      },
      "scriptsig": "",
      "scriptsig_asm": "",
      "witness": [
        "304402205076e37d998e8e72bc2e7b0304592dce4768c493057da360e637336c1b62ec38022035e52cd68cabaf123476907736e90c02937579ce10e8320fcc0948ead484255801",
        "02ade30a74ee98c5f9ecdd24631f103895147ac8497cc7c09c2e0580ebed4928cf"
      ],
      "is_coinbase": false,
      "sequence": 4294967295
    },
    {
      "txid": "2cfc00e2b06d9892053eed195e3cdb077ac7ebdd0ff841c0d408b2caef83e0d9",
      "vout": 112,
      "prevout": {
        "scriptpubkey": "0014d3fdecaa8c7b6ebfdaeb2d4d5848966ccadffdd0",
        "scriptpubkey_asm": "OP_0 OP_PUSHBYTES_20 d3fdecaa8c7b6ebfdaeb2d4d5848966ccadffdd0",
        "scriptpubkey_type": "v0_p2wpkh",
        "scriptpubkey_address": "bc1q6077e25v0dhtlkht94x4sjykdn9dllwsh0ylh8",
        "value": 434066
      },
      "scriptsig": "",
      "scriptsig_asm": "",
      "witness": [
        "304402204c7d29e247c44cdacdf1492d72521abeaa139e68cdc8b891dfef5397ee970354022016e0f64d24513a5f568c84ae362a6dae679f6a2ff61527a6e7a1eb4773aa305501",
        "02ade30a74ee98c5f9ecdd24631f103895147ac8497cc7c09c2e0580ebed4928cf"
      ],
      "is_coinbase": false,
      "sequence": 4294967295
    },
    {
      "txid": "16780638f2481c35b0dabcbac02e0bf6f80ecaa4de15cc47521eafba800c453e",
      "vout": 31,
      "prevout": {
        "scriptpubkey": "0014d3fdecaa8c7b6ebfdaeb2d4d5848966ccadffdd0",
        "scriptpubkey_asm": "OP_0 OP_PUSHBYTES_20 d3fdecaa8c7b6ebfdaeb2d4d5848966ccadffdd0",
        "scriptpubkey_type": "v0_p2wpkh",
        "scriptpubkey_address": "bc1q6077e25v0dhtlkht94x4sjykdn9dllwsh0ylh8",
        "value": 477630
      },
      "scriptsig": "",
      "scriptsig_asm": "",
      "witness": [
        "3044022007e2e2c7141101be15107635da590fadc8bb1126b59dfd491def84c8d0b4c9e5022026c54fb46360b47cb955617b020332442e363070507215c468e2835e71320bc501",
        "02ade30a74ee98c5f9ecdd24631f103895147ac8497cc7c09c2e0580ebed4928cf"
      ],
      "is_coinbase": false,
      "sequence": 4294967295
    },
    {
      "txid": "eb33d5066cf9d0912e3ddf1b723193010894c46e20fe1178836bf39f7e5f100a",
      "vout": 25,
      "prevout": {
        "scriptpubkey": "0014d3fdecaa8c7b6ebfdaeb2d4d5848966ccadffdd0",
        "scriptpubkey_asm": "OP_0 OP_PUSHBYTES_20 d3fdecaa8c7b6ebfdaeb2d4d5848966ccadffdd0",
        "scriptpubkey_type": "v0_p2wpkh",
        "scriptpubkey_address": "bc1q6077e25v0dhtlkht94x4sjykdn9dllwsh0ylh8",
        "value": 503599
      },
      "scriptsig": "",
      "scriptsig_asm": "",
      "witness": [
        "3044022035a03a2b4b04efb7d0f0730566c8543aa9e726e1b865867e034d6f770c473ab602205eafb981dace05bd471d9c50ec470a49ef7f710b26f780afacc2acdf3fd55cf101",
        "02ade30a74ee98c5f9ecdd24631f103895147ac8497cc7c09c2e0580ebed4928cf"
      ],
      "is_coinbase": false,
      "sequence": 4294967295
    },
    {
      "txid": "f026e6e84e39f6f2f683666bc938af88bbd39ead369d33c6aabf18a1cc4fff72",
      "vout": 21,
      "prevout": {
        "scriptpubkey": "0014d3fdecaa8c7b6ebfdaeb2d4d5848966ccadffdd0",
        "scriptpubkey_asm": "OP_0 OP_PUSHBYTES_20 d3fdecaa8c7b6ebfdaeb2d4d5848966ccadffdd0",
        "scriptpubkey_type": "v0_p2wpkh",
        "scriptpubkey_address": "bc1q6077e25v0dhtlkht94x4sjykdn9dllwsh0ylh8",
        "value": 517619
      },
      "scriptsig": "",
      "scriptsig_asm": "",
      "witness": [
        "304402204c48fa470cb1f015fe549cfb4c8e0977eba51e797c009fe88168348e3d8b1d7902201068516fcfab0c24bf0f128d068b74e3886f360a2a3b985877f86b31fcd6985601",
        "02ade30a74ee98c5f9ecdd24631f103895147ac8497cc7c09c2e0580ebed4928cf"
      ],
      "is_coinbase": false,
      "sequence": 4294967295
    }
  ],
  "vout": [
    {
      "scriptpubkey": "76a9148b5c48b228798d0fdea2f3e681fda9f0525ddd4988ac",
      "scriptpubkey_asm": "OP_DUP OP_HASH160 OP_PUSHBYTES_20 8b5c48b228798d0fdea2f3e681fda9f0525ddd49 OP_EQUALVERIFY OP_CHECKSIG",
      "scriptpubkey_type": "p2pkh",
      "scriptpubkey_address": "1DhsUfggUQyMGP22J3UpHVYUT3KFzA5dkv",
      "value": 3553785
    }
  ],
  "size": 2272,
  "weight": 4249,
  "fee": 29959,
  "status": {
    "confirmed": true,
    "block_height": 834638,
    "block_hash": "000000000000000000025f742c626208ac87e0b7d15054abb4a19ca2d735a54e",
    "block_time": 1710405325
  },
  "hex": "0100000000010f3553464f779a2c51a228b58c0d5b66a3e72ddd2df4552cacfd6f4e7b6e58a3a40500000000ffffffff47a2f9a83546dd7ca319bda5b86417244276b75a6e8dfdcd5ba1829dac0579c58b00000000ffffffff8f87c789445527a8821d5904edeb1d83163901d00ef03392e6e35354d50042564c00000000ffffffff3424cbd64901f92b6224c73ccd09acf02e86b954c3098a30750997be05ece4e28c00000000ffffffff251114ac26504feaa8bf9abe292fcea623fd36947bdea30a0a6637f33222ebacc800000000ffffffffd229f063784e955f14da54d61f2a91034f01e587f937af45689fdbcd423388742c00000000ffffffffe38949a9ce90785e2877768e33af31cf28a7cc4476a9c5c1c48b88e791ee251c5000000000ffffffff3978695d5ad6767cbe0033cf073af62411e487001c2d0bfe0f730d8863e05e470d00000000ffffffff897e3210e5a72c198293dcea367e09f455b1a55d27e6de378231c29a0ccd7ca61f00000000fffffffffcd0d16a5f99ad859bd76eee226638eeecbf5f0c031e790cd2918ef8c49fa03f1700000000ffffffff9d5e4627effb2a4e63504054ede7b270b4808fd181e8a40bb02a8d7db1874e0f3000000000ffffffffd9e083efcab208d4c041f80fddebc77a07db3c5e19ed3e0592986db0e200fc2c7000000000ffffffff3e450c80baaf1e5247cc15dea4ca0ef8f60b2ec0babcdab0351c48f2380678161f00000000ffffffff0a105f7e9ff36b837811fe206ec49408019331721bdf3d2e91d0f96c06d533eb1900000000ffffffff72ff4fcca118bfaac6339d36ad9ed3bb88af38c96b6683f6f2f6394ee8e626f01500000000ffffffff01f9393600000000001976a9148b5c48b228798d0fdea2f3e681fda9f0525ddd4988ac02473044022069fbacb01e702ebc5c1723b69ec01f49d243f46aeb301714a488751b542883d9022035f0b0140e3bc9a4e71f774684f55f0d9c6e15026aedfd532500eeb4ded186ff012102ade30a74ee98c5f9ecdd24631f103895147ac8497cc7c09c2e0580ebed4928cf0248304502210080e69988a71eb8b257da68c92c1bfe271964de679c26e4b1dd20b6e914263ddd02206e03a6fdf72d69d6655b8acc9dc33aafb9283db9089bdf3ef8e22fe15e5e8fdf012102ade30a74ee98c5f9ecdd24631f103895147ac8497cc7c09c2e0580ebed4928cf02473044022067ecaa8c776591ace3f9f69cb02b29ec2af806c8213da91f53c4758c34919cb50220238ec17c775ceba5f8995429ec2e9f458283bee977eae2c964b7092632f049f5012102ade30a74ee98c5f9ecdd24631f103895147ac8497cc7c09c2e0580ebed4928cf0247304402207b687dbd96eb973ab208887ef6b0e04de9760665abaca6645a7898f51c775ba202206a796e2077fbd7bef960d9774fe95b98131be66fb352d8d35a96eb6cdb6b5bc0012102ade30a74ee98c5f9ecdd24631f103895147ac8497cc7c09c2e0580ebed4928cf024830450221009a468d93aac8fd0ffdec23169e2c53ac58f1042c45659888322d99531091b47f02201e08d1724abbded549df0a3c6a6e5869e7460642368498d49a3ce71d47194720012102ade30a74ee98c5f9ecdd24631f103895147ac8497cc7c09c2e0580ebed4928cf024830450221009abdfd54869d9d78e5ba6e4fb23c96797eb260773367d45a630b7480c019f2c20220207f609833dea5375385abe92150cebcd9dd5cf889500dcdac0f7595aee99032012102ade30a74ee98c5f9ecdd24631f103895147ac8497cc7c09c2e0580ebed4928cf02483045022100f6ce252e8cc9e25bd9aaaab73c78d583b6a908ad3aa34acaae937a7b9063bedb02201cc6f88a42f032c84bd87c581d2bf7e01e85595d72c2f84e51eb89379483a6f9012102ade30a74ee98c5f9ecdd24631f103895147ac8497cc7c09c2e0580ebed4928cf02483045022100963408685ad651b078b5c0ec21ee6fc06ded51056329cae1f4c32ad867596b79022009dddfcc4158c20202eb7f68cc187a3e4e85f13196a4595b7b99c7a5ef81ddec012102ade30a74ee98c5f9ecdd24631f103895147ac8497cc7c09c2e0580ebed4928cf0247304402203501b089c096739df5e022a768ad9ab0b6ae1b04c99c8c428143e2a36f3d84ae02200843896e399c0045024f4efdc2998a36e42804981d150632a0350038a320766d012102ade30a74ee98c5f9ecdd24631f103895147ac8497cc7c09c2e0580ebed4928cf02483045022100d0d451ec6049fe2e6bb446d4a719215b210b0719a592c83c3a985e317914813a02205772d85d261bc627c0c1c5a7752660bb79b727f20f1576c914afa3c7ae10ecfd012102ade30a74ee98c5f9ecdd24631f103895147ac8497cc7c09c2e0580ebed4928cf0247304402205076e37d998e8e72bc2e7b0304592dce4768c493057da360e637336c1b62ec38022035e52cd68cabaf123476907736e90c02937579ce10e8320fcc0948ead4842558012102ade30a74ee98c5f9ecdd24631f103895147ac8497cc7c09c2e0580ebed4928cf0247304402204c7d29e247c44cdacdf1492d72521abeaa139e68cdc8b891dfef5397ee970354022016e0f64d24513a5f568c84ae362a6dae679f6a2ff61527a6e7a1eb4773aa3055012102ade30a74ee98c5f9ecdd24631f103895147ac8497cc7c09c2e0580ebed4928cf02473044022007e2e2c7141101be15107635da590fadc8bb1126b59dfd491def84c8d0b4c9e5022026c54fb46360b47cb955617b020332442e363070507215c468e2835e71320bc5012102ade30a74ee98c5f9ecdd24631f103895147ac8497cc7c09c2e0580ebed4928cf02473044022035a03a2b4b04efb7d0f0730566c8543aa9e726e1b865867e034d6f770c473ab602205eafb981dace05bd471d9c50ec470a49ef7f710b26f780afacc2acdf3fd55cf1012102ade30a74ee98c5f9ecdd24631f103895147ac8497cc7c09c2e0580ebed4928cf0247304402204c48fa470cb1f015fe549cfb4c8e0977eba51e797c009fe88168348e3d8b1d7902201068516fcfab0c24bf0f128d068b74e3886f360a2a3b985877f86b31fcd69856012102ade30a74ee98c5f9ecdd24631f103895147ac8497cc7c09c2e0580ebed4928cf00000000"
}