{
  "txid": "60a39032decbf928764d6030295cafe9338bec0a0c4450eea2e1f6487493f921",
  "version": 2,
  "locktime": 0,
  "vin": [
    {
      "txid": "acc3ba00869acb582a3f2904ce3a11dd3779350ce234063fc7d0959246213364",
      "vout": 80,
      "prevout": {
        "scriptpubkey": "512031b1f566c00ac76bce2fb1ffe7224d67d6d9ff72db358aed6c6afc2afa5aa75e",
        "scriptpubkey_asm": "OP_PUSHNUM_1 OP_PUSHBYTES_32 31b1f566c00ac76bce2fb1ffe7224d67d6d9ff72db358aed6c6afc2afa5aa75e",
        "scriptpubkey_type": "v1_p2tr",
        "scriptpubkey_address": "bc1pxxcl2ekqptrkhn30k8l7wgjdvltdnlmjmv6c4mtvdt7z47j65a0ql3wx0m",
        "value": 1806
      },
      "scriptsig": "",
      "scriptsig_asm": "",
      "witness": [
        "ced3521012303c1bc9b2c7c112559824a6be6b8ff70f6e2a56d057d7d1b8131c0272fd9eae85c233fd0c1f73f82e63aa20ebb016ff1882d18c7201b529d00f68",
        "205430de0e9575cfb0e4b8a1b44183bcb21f11ee56d7cba01496fb41b5bb03c8b6ac0063036f726401010a746578742f706c61696e00357b2270223a226272632d3230222c226f70223a226d696e74222c227469636b223a22646f6765222c22616d74223a2234323030227d68",
        "c05430de0e9575cfb0e4b8a1b44183bcb21f11ee56d7cba01496fb41b5bb03c8b6"
      ],
      "is_coinbase": false,
      "sequence": 4261412863
    }
  ],
  "vout": [
    {
      "scriptpubkey": "00147a665de7a370f4c9b372ab1fae587500a5bcbdb4",
      "scriptpubkey_asm": "OP_0 OP_PUSHBYTES_20 7a665de7a370f4c9b372ab1fae587500a5bcbdb4",
      "scriptpubkey_type": "v0_p2wpkh",
      "scriptpubkey_address": "bc1q0fn9mearwr6vnvmj4v06ukr4qzjme0d565dzcx",
      "value": 294
    }
  ],
  "size": 294,
  "weight": 540,
  "fee": 1512,
  "status": {
    "confirmed": true,
    "block_height": 834460,
    "block_hash": "00000000000000000000484a79b643b2524bbce82e5d8a442013fa5b8905ed98",
    "block_time": 1710307468
  },
  "hex": "02000000000101643321469295d0c73f0634e20c357937dd113ace04293f2a58cb9a8600bac3ac5000000000fffffffd0126010000000000001600147a665de7a370f4c9b372ab1fae587500a5bcbdb40340ced3521012303c1bc9b2c7c112559824a6be6b8ff70f6e2a56d057d7d1b8131c0272fd9eae85c233fd0c1f73f82e63aa20ebb016ff1882d18c7201b529d00f686d205430de0e9575cfb0e4b8a1b44183bcb21f11ee56d7cba01496fb41b5bb03c8b6ac0063036f726401010a746578742f706c61696e00357b2270223a226272632d3230222c226f70223a226d696e74222c227469636b223a22646f6765222c22616d74223a2234323030227d6821c05430de0e9575cfb0e4b8a1b44183bcb21f11ee56d7cba01496fb41b5bb03c8b600000000"
}