{
  "txid": "60a68f2b83632dcc4117fb186a2186cda35b5121fb2ca110a7474369528ba8da",
  "version": 2,
  "locktime": 0,
  "vin": [
    {
      "txid": "439613cb65349d64a58d1d596321ab253fd65efbcdee30fad87c6575413a7d86",
      "vout": 1,
      "prevout": {
        "scriptpubkey": "5120956aa6041a70bf8fa9bc14cda4590b422408f09ae06d46e915d3dda63895ffb7",
        "scriptpubkey_asm": "OP_PUSHNUM_1 OP_PUSHBYTES_32 956aa6041a70bf8fa9bc14cda4590b422408f09ae06d46e915d3dda63895ffb7",
        "scriptpubkey_type": "v1_p2tr",
        "scriptpubkey_address": "bc1pj442vpq6wzlcl2duznx6gkgtggjq3uy6upk5d6g460w6vwy4l7mssdpqtf",
        "value": 26601
      },
      "scriptsig": "",
      "scriptsig_asm": "",
      "witness": [
        "39296b32cb18e8767b225129d8b0842f4e5724a201a7cf43b369691a82e3c49741f6a2f8ab673d6aba6df68a93dd7c4378aa9ebb8f0450c3aef17d943330ac39"
      ],
      "is_coinbase": false,
      "sequence": 4294967293
    }
  ],
  "vout": [
    {
      "scriptpubkey": "5120d26f8f09d1432263d841e21690a712d3dde0cf00d3922f22146fa7e19d8b1621",
      "scriptpubkey_asm": "OP_PUSHNUM_1 OP_PUSHBYTES_32 d26f8f09d1432263d841e21690a712d3dde0cf00d3922f22146fa7e19d8b1621",
      "scriptpubkey_type": "v1_p2tr",
      "scriptpubkey_address": "bc1p6fhc7zw3gv3x8kzpugtfpfcj60w7pncq6wfz7gs5d7n7r8vtzcss9l3lq7",
      "value": 2826
    },
    {
      "scriptpubkey": "5120956aa6041a70bf8fa9bc14cda4590b422408f09ae06d46e915d3dda63895ffb7",
      "scriptpubkey_asm": "OP_PUSHNUM_1 OP_PUSHBYTES_32 956aa6041a70bf8fa9bc14cda4590b422408f09ae06d46e915d3dda63895ffb7",
      "scriptpubkey_type": "v1_p2tr",
      "scriptpubkey_address": "bc1pj442vpq6wzlcl2duznx6gkgtggjq3uy6upk5d6g460w6vwy4l7mssdpqtf",
      "value": 21465
    }
  ],
  "size": 205,
  "weight": 616,
  "fee": 2310,
  "status": {
    "confirmed": true,
    "block_height": 834638,
    "block_hash": "000000000000000000025f742c626208ac87e0b7d15054abb4a19ca2d735a54e",
    "block_time": 1710405325
  },
  "hex": "02000000000101867d3a4175657cd8fa30eecdfb5ed63f25ab2163591d8da5649d3465cb1396430100000000fdffffff020a0b000000000000225120d26f8f09d1432263d841e21690a712d3dde0cf00d3922f22146fa7e19d8b1621d953000000000000225120956aa6041a70bf8fa9bc14cda4590b422408f09ae06d46e915d3dda63895ffb7014039296b32cb18e8767b225129d8b0842f4e5724a201a7cf43b369691a82e3c49741f6a2f8ab673d6aba6df68a93dd7c4378aa9ebb8f0450c3aef17d943330ac3900000000"
}