{
  "txid": "60adeb042c157c4d80c39f7301813207153cb31154630b05a9602ad8bc2e0741",
  "version": 2,
  "locktime": 0,
  "vin": [
    {
      "txid": "9679c2b2e05b13e317709a23bfd5429762b3ef92f6d3d84217444dd1a99b8217",
      "vout": 1,
      "prevout": {
        "scriptpubkey": "512065f332558d3abf6eac4577445711d440ad63da9fc7afa40e5d8592a3d84b526f",
        "scriptpubkey_asm": "OP_PUSHNUM_1 OP_PUSHBYTES_32 65f332558d3abf6eac4577445711d440ad63da9fc7afa40e5d8592a3d84b526f",
        "scriptpubkey_type": "v1_p2tr",
        "scriptpubkey_address": "bc1pvheny4vd82lkatz9waz9wyw5gzkk8k5lc7h6grjaskf28kzt2fhs0hrpel",
        "value": 7639
      },
      "scriptsig": "",
      "scriptsig_asm": "",
      "witness": [
        "a0b18a9af707e1548028a8e86608ec2b40055573b6dc6a6bd70a6eb9009cfa85c5160f151567f09a8f6fe4f0571135c2bf2a76aaa2ebde5d6684bd06a3f1002701",
        "51690063036f7264010117746578742f68746d6c3b636861727365743d7574662d38004d08023c73637269707420646174612d733d2230786130313937336161653638653261613639383761323131306430336366323639383863343732663036393338303533653531373865343565626634386566643622207372633d222f636f6e74656e742f663830623933343636613238633565666337303366616230326265656262663465333265316263346630363361633237666564666437396164393832663263656930223e3c2f7363726970743e3c626f6479207374796c653d22646973706c61793a206e6f6e65223e3c2f626f64793e000000000000000062766d76341bc301f867404fd30ee425db8e71603b2d0eb7c070bec1090002971c3336bec9ab0687d9589e16c599eb2df8f4d7b67f020010f311150465150a9e16f4008209664d52fe819620492d030a414224b3f175b88af0b71b6b73a7b5eb773d80660985578b86270197ae295a847d506d5d01b819eb2730c6010b0932ca4c46a200a77da942914fb6ef426400d4d5879a245f8017212fc212dcaafa41c9f583788fc231e1fd3d21ab3113f9424b55d851125d3c585386903684a278db8185f2c5ecf1cb9c9c52ca90d763b0a1f9f5347310793057ecc6b9adbc3f0b61c3002dfc407ac991d98e986247edad4174dc88e2de14fd5e0b0395644181e20d833feaf8a4b228da700249de6ef7b1f1bc538e8fb6bc8e33352a92df7009d850b41e726517f0abed5a1c8ceea6ff0f4c591fd5abce654cc446478658b9389ddde4497c80a9a1b6e0e6866e04f2b6ca48549b41e3d54d286b9493e22bcc63c8ee01f30f346d06db5680dc067df1f44ec6036bd3bebfbd63c47b053baa0ed9311d94cab7403d69ebd5060068",
        "c0d2d8084d959566f0788913a3b8c3a8cbf9a458d9b379839a380bd9b0aa8f57ce"
      ],
      "is_coinbase": false,
      "sequence": 0
    }
  ],
  "vout": [
    {
      "scriptpubkey": "5120ea6e164912a1bd91f6b8652826dc3fa780c93f1a789e7a8a1ff61dfdce280156",
      "scriptpubkey_asm": "OP_PUSHNUM_1 OP_PUSHBYTES_32 ea6e164912a1bd91f6b8652826dc3fa780c93f1a789e7a8a1ff61dfdce280156",
      "scriptpubkey_type": "v1_p2tr",
      "scriptpubkey_address": "bc1pafhpvjgj5x7era4cv55zdhpl57qvj0c60z084zsl7cwlmn3gq9tq3hqdmn",
      "value": 546
    }
  ],
  "size": 850,
  "weight": 1132,
  "fee": 7093,
  "status": {
    "confirmed": true,
    "block_height": 834638,
    "block_hash": "000000000000000000025f742c626208ac87e0b7d15054abb4a19ca2d735a54e",
    "block_time": 1710405325
  },
  "hex": "0200000000010117829ba9d14d441742d8d3f692efb3629742d5bf239a7017e3135be0b2c27996010000000000000000012202000000000000225120ea6e164912a1bd91f6b8652826dc3fa780c93f1a789e7a8a1ff61dfdce2801560341a0b18a9af707e1548028a8e86608ec2b40055573b6dc6a6bd70a6eb9009cfa85c5160f151567f09a8f6fe4f0571135c2bf2a76aaa2ebde5d6684bd06a3f1002701fd8a0251690063036f7264010117746578742f68746d6c3b636861727365743d7574662d38004d08023c73637269707420646174612d733d2230786130313937336161653638653261613639383761323131306430336366323639383863343732663036393338303533653531373865343565626634386566643622207372633d222f636f6e74656e742f663830623933343636613238633565666337303366616230326265656262663465333265316263346630363361633237666564666437396164393832663263656930223e3c2f7363726970743e3c626f6479207374796c653d22646973706c61793a206e6f6e65223e3c2f626f64793e000000000000000062766d76341bc301f867404fd30ee425db8e71603b2d0eb7c070bec1090002971c3336bec9ab0687d9589e16c599eb2df8f4d7b67f020010f311150465150a9e16f4008209664d52fe819620492d030a414224b3f175b88af0b71b6b73a7b5eb773d80660985578b86270197ae295a847d506d5d01b819eb2730c6010b0932ca4c46a200a77da942914fb6ef426400d4d5879a245f8017212fc212dcaafa41c9f583788fc231e1fd3d21ab3113f9424b55d851125d3c585386903684a278db8185f2c5ecf1cb9c9c52ca90d763b0a1f9f5347310793057ecc6b9adbc3f0b61c3002dfc407ac991d98e986247edad4174dc88e2de14fd5e0b0395644181e20d833feaf8a4b228da700249de6ef7b1f1bc538e8fb6bc8e33352a92df7009d850b41e726517f0abed5a1c8ceea6ff0f4c591fd5abce654cc446478658b9389ddde4497c80a9a1b6e0e6866e04f2b6ca48549b41e3d54d286b9493e22bcc63c8ee01f30f346d06db5680dc067df1f44ec6036bd3bebfbd63c47b053baa0ed9311d94cab7403d69ebd506006821c0d2d8084d959566f0788913a3b8c3a8cbf9a458d9b379839a380bd9b0aa8f57ce00000000"
}