{
  "txid": "60b7302062349a2a027fc6befa7dea6c288bae41e84ab4225f315dcc4559630c",
  "version": 1,
  "locktime": 0,
  "vin": [
    {
      "txid": "f615c0412f959c0b3813cbd232bbb1c1a8ad656c37fb60b601f633a6d2d76942",
      "vout": 36,
      "prevout": {
        "scriptpubkey": "0014dbd973a9f87a2ddc8a871b998bc99d6bd830655f",
        "scriptpubkey_asm": "OP_0 OP_PUSHBYTES_20 dbd973a9f87a2ddc8a871b998bc99d6bd830655f",
        "scriptpubkey_type": "v0_p2wpkh",
        "scriptpubkey_address": "bc1qm0vh820c0gkaez58rwvchjvad0vrqe2lx22f5s",
        "value": 261770
      },
      "scriptsig": "",
      "scriptsig_asm": "",
      "witness": [
        "3045022100f6e36a0d6eb3bd882feb817750bacd4850384df3b7678e4253c840fdde49e04102203a3a154e2ca7a7a43b313068d80921a3130f6aa920f7c174c96f941ebdf5930a01",
        "0370ce1d573a05ed231c94918c2ce8145529ebae7b205e753716d33b52c51433f0"
      ],
      "is_coinbase": false,
      "sequence": 4294967293
    },
    {
      "txid": "71a62c366831b06ed3c19a3865256e7d4d5bd54f5f649b120c5a7eca62649dce",
      "vout": 57,
      "prevout": {
        "scriptpubkey": "001431afa64765ad60ac8953287a71d102d069dc432f",
        "scriptpubkey_asm": "OP_0 OP_PUSHBYTES_20 31afa64765ad60ac8953287a71d102d069dc432f",
        "scriptpubkey_type": "v0_p2wpkh",
        "scriptpubkey_address": "bc1qxxh6v3m944s2ez2n9pa8r5gz6p5acse0lql4qa",
        "value": 181561
      },
      "scriptsig": "",
      "scriptsig_asm": "",
      "witness": [
        "30450221009bddd0c6ddb049b9badf8f69340536d8a8e320ab11cd8036a96a186f5e240e090220223916e82707d45cbf682797e31a362c204bc274b15dd0d75507a1c245ca226701",
        "02c6bef0270136a08483a19ce593d10eb6b775cb373be7f64b9ab21662556b14fa"
      ],
      "is_coinbase": false,
      "sequence": 4294967293
    },
    {
      "txid": "b6d99dceb523e44fcc7b34aa84e2a745919270f19b03d93cda663c23ccb706e1",
      "vout": 5,
      "prevout": {
        "scriptpubkey": "00144585c65c20da240d14a184ea9a49acd6e6b80fd6",
        "scriptpubkey_asm": "OP_0 OP_PUSHBYTES_20 4585c65c20da240d14a184ea9a49acd6e6b80fd6",
        "scriptpubkey_type": "v0_p2wpkh",
        "scriptpubkey_address": "bc1qgkzuvhpqmgjq699psn4f5jdv6mntsr7knpv3pk",
        "value": 170312
      },
      "scriptsig": "",
      "scriptsig_asm": "",
      "witness": [
        "304402203f5a6745de01a41c4d6bcdb0760cb326ead35b69e4f741b91ad1716a21b698ed02206bcd01bb25eea3037e0434018cee9176642af45f857b9d4395806707b7e2b61601",
        "023c0dfe468048fdeb5b267d2c39fa9236b6f3d73cae035d3653160c040ae1da9f"
      ],
      "is_coinbase": false,
      "sequence": 4294967293
    },
    {
      "txid": "46c087f26811eacc3fe05f462064df22a35d36be5b0ad088243feed48e21ebab",
      "vout": 45,
      "prevout": {
        "scriptpubkey": "00146df2952b6f39ef0af318dcc4c0a678dc65898923",
        "scriptpubkey_asm": "OP_0 OP_PUSHBYTES_20 6df2952b6f39ef0af318dcc4c0a678dc65898923",
        "scriptpubkey_type": "v0_p2wpkh",
        "scriptpubkey_address": "bc1qdhef22m088hs4uccmnzvpfncm3jcnzfr4rsq07",
        "value": 150834
      },
      "scriptsig": "",
      "scriptsig_asm": "",
      "witness": [
        "3045022100d12eb6f35da115393ebf980ea0194487c33ee7048b3c7f7871633905578841630220167157b55669fe5a3e837a67eeac2cca628ff9d0795c679d2187eaa0b629440801",
        "02a496d5253e8ea3070ef7484f12a760b53a2fd52e17a4b76d99f37badfa0f2cd5"
      ],
      "is_coinbase": false,
      "sequence": 4294967293
    },
    {
      "txid": "46c087f26811eacc3fe05f462064df22a35d36be5b0ad088243feed48e21ebab",
      "vout": 95,
      "prevout": {
        "scriptpubkey": "0014c7aebce06c5b7b0d47d4e139e558f450221f45f7",
        "scriptpubkey_asm": "OP_0 OP_PUSHBYTES_20 c7aebce06c5b7b0d47d4e139e558f450221f45f7",
        "scriptpubkey_type": "v0_p2wpkh",
        "scriptpubkey_address": "bc1qc7htecrvtdas6375uyu72k852q3p730hgxpust",
        "value": 147997
      },
      "scriptsig": "",
      "scriptsig_asm": "",
      "witness": [
        "3045022100d2bbf7d0542c91c67111397aba2b07343df1a4e8c66e35b551e818f3df3771e30220375b37512509b09450ec2c4e71239edda7f2309a171f64f6073e67850bd2a79401",
        "0352e605b2236fa7c79d430b89a241f68da218c0c8eaa8ff19775831a3c3b3fbbe"
      ],
      "is_coinbase": false,
      "sequence": 4294967293
    },
    {
      "txid": "8c0daa31a169e593e68d2e95552951dfa270099b9973cd83ae13a89e914a0c03",
      "vout": 0,
      "prevout": {
        "scriptpubkey": "00147cc9718cd065f4a38edf4ea590b4e5d06c78632e",
        "scriptpubkey_asm": "OP_0 OP_PUSHBYTES_20 7cc9718cd065f4a38edf4ea590b4e5d06c78632e",
        "scriptpubkey_type": "v0_p2wpkh",
        "scriptpubkey_address": "bc1q0nyhrrxsvh628rklf6jepd896pk8scewwknpkc",
        "value": 85650
      },
      "scriptsig": "",
      "scriptsig_asm": "",
      "witness": [
        "304502210093f3a6c4dd96a1728be1d90e65254ed04100927ff2d61222b60aba420e54d5f3022023d6b63607644b3a84457dd82452d8af4e387db65537cc503df625c6f25494d901",
        "0295430c35fdf30f95bfb706bda05cf4d0d87cd8ffd055c51900da8365aeec7bfe"
      ],
      "is_coinbase": false,
      "sequence": 4294967293
    }
  ],
  "vout": [
    {
      "scriptpubkey": "76a9149f91dfcab6acd38c270acfdf5ee543137631ff2688ac",
      "scriptpubkey_asm": "OP_DUP OP_HASH160 OP_PUSHBYTES_20 9f91dfcab6acd38c270acfdf5ee543137631ff26 OP_EQUALVERIFY OP_CHECKSIG",
      "scriptpubkey_type": "p2pkh",
      "scriptpubkey_address": "1FYjC1zxykzT6e1g19VVwvNG2RWgdCr6LP",
      "value": 984559
    }
  ],
  "size": 939,
  "weight": 1809,
  "fee": 13565,
  "status": {
    "confirmed": true,
    "block_height": 834638,
    "block_hash": "000000000000000000025f742c626208ac87e0b7d15054abb4a19ca2d735a54e",
    "block_time": 1710405325
  },
  "hex": "010000000001064269d7d2a633f601b660fb376c65ada8c1b1bb32d2cb13380b9c952f41c015f62400000000fdffffffce9d6462ca7e5a0c129b645f4fd55b4d7d6e2565389ac1d36eb03168362ca6713900000000fdffffffe106b7cc233c66da3cd9039bf170929145a7e284aa347bcc4fe423b5ce9dd9b60500000000fdffffffabeb218ed4ee3f2488d00a5bbe365da322df6420465fe03fccea1168f287c0462d00000000fdffffffabeb218ed4ee3f2488d00a5bbe365da322df6420465fe03fccea1168f287c0465f00000000fdffffff030c4a919ea813ae83cd73999b0970a2df512955952e8de693e569a131aa0d8c0000000000fdffffff01ef050f00000000001976a9149f91dfcab6acd38c270acfdf5ee543137631ff2688ac02483045022100f6e36a0d6eb3bd882feb817750bacd4850384df3b7678e4253c840fdde49e04102203a3a154e2ca7a7a43b313068d80921a3130f6aa920f7c174c96f941ebdf5930a01210370ce1d573a05ed231c94918c2ce8145529ebae7b205e753716d33b52c51433f0024830450221009bddd0c6ddb049b9badf8f69340536d8a8e320ab11cd8036a96a186f5e240e090220223916e82707d45cbf682797e31a362c204bc274b15dd0d75507a1c245ca2267012102c6bef0270136a08483a19ce593d10eb6b775cb373be7f64b9ab21662556b14fa0247304402203f5a6745de01a41c4d6bcdb0760cb326ead35b69e4f741b91ad1716a21b698ed02206bcd01bb25eea3037e0434018cee9176642af45f857b9d4395806707b7e2b6160121023c0dfe468048fdeb5b267d2c39fa9236b6f3d73cae035d3653160c040ae1da9f02483045022100d12eb6f35da115393ebf980ea0194487c33ee7048b3c7f7871633905578841630220167157b55669fe5a3e837a67eeac2cca628ff9d0795c679d2187eaa0b6294408012102a496d5253e8ea3070ef7484f12a760b53a2fd52e17a4b76d99f37badfa0f2cd502483045022100d2bbf7d0542c91c67111397aba2b07343df1a4e8c66e35b551e818f3df3771e30220375b37512509b09450ec2c4e71239edda7f2309a171f64f6073e67850bd2a79401210352e605b2236fa7c79d430b89a241f68da218c0c8eaa8ff19775831a3c3b3fbbe0248304502210093f3a6c4dd96a1728be1d90e65254ed04100927ff2d61222b60aba420e54d5f3022023d6b63607644b3a84457dd82452d8af4e387db65537cc503df625c6f25494d901210295430c35fdf30f95bfb706bda05cf4d0d87cd8ffd055c51900da8365aeec7bfe00000000"
}