{
  "txid": "60b98b2eb469ed66b4a58f8839ec57064e85888248016ef7f04a2fbaf437c6f3",
  "version": 2,
  "locktime": 0,
  "vin": [
    {
      "txid": "12848a1f84ad552475e874cce291926f292412de23b7537898e98c7370f2e86c",
      "vout": 15,
      "prevout": {
        "scriptpubkey": "5120faa6dfb6c7ad9605f17716cbcc6f5354e3749f381e9125e5b48f66986c76de27",
        "scriptpubkey_asm": "OP_PUSHNUM_1 OP_PUSHBYTES_32 faa6dfb6c7ad9605f17716cbcc6f5354e3749f381e9125e5b48f66986c76de27",
        "scriptpubkey_type": "v1_p2tr",
        "scriptpubkey_address": "bc1pl2ndldk84ktqtuthzm9ucm6n2n3hf8ecr6gjted53anfsmrkmcnsvj4tj4",
        "value": 2358
      },
      "scriptsig": "",
      "scriptsig_asm": "",
      "witness": [
        "faf938c4b84fe5e9d1665496dab7763550ff16ad0d2d1c3a382e7dc55f27d801b68060acf2c8da2a9248787dbbf9dff5511f0eeb7fb69fad44597e373ebafdb1",
        "2090a70dbcbe35c711dd301607ad8e580c74898d083830af59c261ba8d38e3fe6cac0063036f7264010118746578742f706c61696e3b636861727365743d7574662d3800377b2270223a226272632d3230222c226f70223a226d696e74222c227469636b223a22424f424f222c22616d74223a22313030303030227d68",
        "c1507504f881a2548efcb0bd8b5287fd78c473d5bd35b181abdd5c5cd6d10de204"
      ],
      "is_coinbase": false,
      "sequence": 4294967295
    }
  ],
  "vout": [
    {
      "scriptpubkey": "512048d62e6aa4ce9b4b4d760b1dc0c3e46b46d84be76ae456792a664139e7aaa19c",
      "scriptpubkey_asm": "OP_PUSHNUM_1 OP_PUSHBYTES_32 48d62e6aa4ce9b4b4d760b1dc0c3e46b46d84be76ae456792a664139e7aaa19c",
      "scriptpubkey_type": "v1_p2tr",
      "scriptpubkey_address": "bc1pfrtzu64ye6d5kntkpvwupslyddrdsjl8dtj9v7f2veqnnea25xwqu8ycu4",
      "value": 546
    }
  ],
  "size": 322,
  "weight": 604,
  "fee": 1812,
  "status": {
    "confirmed": true,
    "block_height": 834460,
    "block_hash": "00000000000000000000484a79b643b2524bbce82e5d8a442013fa5b8905ed98",
    "block_time": 1710307468
  },
  "hex": "020000000001016ce8f270738ce9987853b723de1224296f9291e2cc74e8752455ad841f8a84120f00000000ffffffff01220200000000000022512048d62e6aa4ce9b4b4d760b1dc0c3e46b46d84be76ae456792a664139e7aaa19c0340faf938c4b84fe5e9d1665496dab7763550ff16ad0d2d1c3a382e7dc55f27d801b68060acf2c8da2a9248787dbbf9dff5511f0eeb7fb69fad44597e373ebafdb17d2090a70dbcbe35c711dd301607ad8e580c74898d083830af59c261ba8d38e3fe6cac0063036f7264010118746578742f706c61696e3b636861727365743d7574662d3800377b2270223a226272632d3230222c226f70223a226d696e74222c227469636b223a22424f424f222c22616d74223a22313030303030227d6821c1507504f881a2548efcb0bd8b5287fd78c473d5bd35b181abdd5c5cd6d10de20400000000"
}