{
  "txid": "60c46701d761f1a609f9e675648a763040dd0b763bcba2519bdcf88875fc410d",
  "version": 2,
  "locktime": 0,
  "vin": [
    {
      "txid": "6b0768d2b590eec49ddd68d80bf18caecdcface37dbc266a889939537481dd3e",
      "vout": 2,
      "prevout": {
        "scriptpubkey": "a9142e9adbd4a9a49c6d2763f729b5ec3b7ecacc47aa87",
        "scriptpubkey_asm": "OP_HASH160 OP_PUSHBYTES_20 2e9adbd4a9a49c6d2763f729b5ec3b7ecacc47aa OP_EQUAL",
        "scriptpubkey_type": "p2sh",
        "scriptpubkey_address": "35wSX95G75N9ZjgaSFPJfSjg8YtrwKC7Ce",
        "value": 659980000
      },
      "scriptsig": "1600149f4b9cd1b3a286cc58ba6b770c2ace9dd74cd48d",
      "scriptsig_asm": "OP_PUSHBYTES_22 00149f4b9cd1b3a286cc58ba6b770c2ace9dd74cd48d",
      "witness": [
        "3045022100ea07f5260aafd7315b89e295f7fb7b0836fe0700b669bde6a9beb36d8e3b7c4e02204b6785f0dc4d2f44a39a2346b7f517902e46f06f2d524c91e980363825b4c97b01",
        "03185ddade321da7c6484b950272f469cb33095b50db01bb2dbbe40906c1bf68b5"
      ],
      "is_coinbase": false,
      "sequence": 4294967295,
      "inner_redeemscript_asm": "OP_0 OP_PUSHBYTES_20 9f4b9cd1b3a286cc58ba6b770c2ace9dd74cd48d"
    }
  ],
  "vout": [
    {
      "scriptpubkey": "a9142e9adbd4a9a49c6d2763f729b5ec3b7ecacc47aa87",
      "scriptpubkey_asm": "OP_HASH160 OP_PUSHBYTES_20 2e9adbd4a9a49c6d2763f729b5ec3b7ecacc47aa OP_EQUAL",
      "scriptpubkey_type": "p2sh",
      "scriptpubkey_address": "35wSX95G75N9ZjgaSFPJfSjg8YtrwKC7Ce",
      "value": 3141735
    },
    {
      "scriptpubkey": "512002bcb1b6f6a087ba513eb8ab48efd0e57fb00beca4fc2d6c9f27eafd7b25328e",
      "scriptpubkey_asm": "OP_PUSHNUM_1 OP_PUSHBYTES_32 02bcb1b6f6a087ba513eb8ab48efd0e57fb00beca4fc2d6c9f27eafd7b25328e",
      "scriptpubkey_type": "v1_p2tr",
      "scriptpubkey_address": "bc1pq27trdhk5zrm55f7hz453m7su4lmqzlv5n7z6mylyl4067e9x28qzppesp",
      "value": 546
    },
    {
      "scriptpubkey": "a9142e9adbd4a9a49c6d2763f729b5ec3b7ecacc47aa87",
      "scriptpubkey_asm": "OP_HASH160 OP_PUSHBYTES_20 2e9adbd4a9a49c6d2763f729b5ec3b7ecacc47aa OP_EQUAL",
      "scriptpubkey_type": "p2sh",
      "scriptpubkey_address": "35wSX95G75N9ZjgaSFPJfSjg8YtrwKC7Ce",
      "value": 8484504
    },
    {
      "scriptpubkey": "512002bcb1b6f6a087ba513eb8ab48efd0e57fb00beca4fc2d6c9f27eafd7b25328e",
      "scriptpubkey_asm": "OP_PUSHNUM_1 OP_PUSHBYTES_32 02bcb1b6f6a087ba513eb8ab48efd0e57fb00beca4fc2d6c9f27eafd7b25328e",
      "scriptpubkey_type": "v1_p2tr",
      "scriptpubkey_address": "bc1pq27trdhk5zrm55f7hz453m7su4lmqzlv5n7z6mylyl4067e9x28qzppesp",
      "value": 546
    },
    {
      "scriptpubkey": "a9142e9adbd4a9a49c6d2763f729b5ec3b7ecacc47aa87",
      "scriptpubkey_asm": "OP_HASH160 OP_PUSHBYTES_20 2e9adbd4a9a49c6d2763f729b5ec3b7ecacc47aa OP_EQUAL",
      "scriptpubkey_type": "p2sh",
      "scriptpubkey_address": "35wSX95G75N9ZjgaSFPJfSjg8YtrwKC7Ce",
      "value": 3933720
    },
    {
      "scriptpubkey": "512002bcb1b6f6a087ba513eb8ab48efd0e57fb00beca4fc2d6c9f27eafd7b25328e",
      "scriptpubkey_asm": "OP_PUSHNUM_1 OP_PUSHBYTES_32 02bcb1b6f6a087ba513eb8ab48efd0e57fb00beca4fc2d6c9f27eafd7b25328e",
      "scriptpubkey_type": "v1_p2tr",
      "scriptpubkey_address": "bc1pq27trdhk5zrm55f7hz453m7su4lmqzlv5n7z6mylyl4067e9x28qzppesp",
      "value": 546
    },
    {
      "scriptpubkey": "a9142e9adbd4a9a49c6d2763f729b5ec3b7ecacc47aa87",
      "scriptpubkey_asm": "OP_HASH160 OP_PUSHBYTES_20 2e9adbd4a9a49c6d2763f729b5ec3b7ecacc47aa OP_EQUAL",
      "scriptpubkey_type": "p2sh",
      "scriptpubkey_address": "35wSX95G75N9ZjgaSFPJfSjg8YtrwKC7Ce",
      "value": 10717872
    },
    {
      "scriptpubkey": "512002bcb1b6f6a087ba513eb8ab48efd0e57fb00beca4fc2d6c9f27eafd7b25328e",
      "scriptpubkey_asm": "OP_PUSHNUM_1 OP_PUSHBYTES_32 02bcb1b6f6a087ba513eb8ab48efd0e57fb00beca4fc2d6c9f27eafd7b25328e",
      "scriptpubkey_type": "v1_p2tr",
      "scriptpubkey_address": "bc1pq27trdhk5zrm55f7hz453m7su4lmqzlv5n7z6mylyl4067e9x28qzppesp",
      "value": 546
    },
    {
      "scriptpubkey": "a9142e9adbd4a9a49c6d2763f729b5ec3b7ecacc47aa87",
      "scriptpubkey_asm": "OP_HASH160 OP_PUSHBYTES_20 2e9adbd4a9a49c6d2763f729b5ec3b7ecacc47aa OP_EQUAL",
      "scriptpubkey_type": "p2sh",
      "scriptpubkey_address": "35wSX95G75N9ZjgaSFPJfSjg8YtrwKC7Ce",
      "value": 73524687
    },
    {
      "scriptpubkey": "512002bcb1b6f6a087ba513eb8ab48efd0e57fb00beca4fc2d6c9f27eafd7b25328e",
      "scriptpubkey_asm": "OP_PUSHNUM_1 OP_PUSHBYTES_32 02bcb1b6f6a087ba513eb8ab48efd0e57fb00beca4fc2d6c9f27eafd7b25328e",
      "scriptpubkey_type": "v1_p2tr",
      "scriptpubkey_address": "bc1pq27trdhk5zrm55f7hz453m7su4lmqzlv5n7z6mylyl4067e9x28qzppesp",
      "value": 546
    },
    {
      "scriptpubkey": "a9142e9adbd4a9a49c6d2763f729b5ec3b7ecacc47aa87",
      "scriptpubkey_asm": "OP_HASH160 OP_PUSHBYTES_20 2e9adbd4a9a49c6d2763f729b5ec3b7ecacc47aa OP_EQUAL",
      "scriptpubkey_type": "p2sh",
      "scriptpubkey_address": "35wSX95G75N9ZjgaSFPJfSjg8YtrwKC7Ce",
      "value": 35219370
    },
    {
      "scriptpubkey": "512002bcb1b6f6a087ba513eb8ab48efd0e57fb00beca4fc2d6c9f27eafd7b25328e",
      "scriptpubkey_asm": "OP_PUSHNUM_1 OP_PUSHBYTES_32 02bcb1b6f6a087ba513eb8ab48efd0e57fb00beca4fc2d6c9f27eafd7b25328e",
      "scriptpubkey_type": "v1_p2tr",
      "scriptpubkey_address": "bc1pq27trdhk5zrm55f7hz453m7su4lmqzlv5n7z6mylyl4067e9x28qzppesp",
      "value": 546
    },
    {
      "scriptpubkey": "a9142e9adbd4a9a49c6d2763f729b5ec3b7ecacc47aa87",
      "scriptpubkey_asm": "OP_HASH160 OP_PUSHBYTES_20 2e9adbd4a9a49c6d2763f729b5ec3b7ecacc47aa OP_EQUAL",
      "scriptpubkey_type": "p2sh",
      "scriptpubkey_address": "35wSX95G75N9ZjgaSFPJfSjg8YtrwKC7Ce",
      "value": 2275253
    },
    {
      "scriptpubkey": "512002bcb1b6f6a087ba513eb8ab48efd0e57fb00beca4fc2d6c9f27eafd7b25328e",
      "scriptpubkey_asm": "OP_PUSHNUM_1 OP_PUSHBYTES_32 02bcb1b6f6a087ba513eb8ab48efd0e57fb00beca4fc2d6c9f27eafd7b25328e",
      "scriptpubkey_type": "v1_p2tr",
      "scriptpubkey_address": "bc1pq27trdhk5zrm55f7hz453m7su4lmqzlv5n7z6mylyl4067e9x28qzppesp",
      "value": 546
    },
    {
      "scriptpubkey": "a9142e9adbd4a9a49c6d2763f729b5ec3b7ecacc47aa87",
      "scriptpubkey_asm": "OP_HASH160 OP_PUSHBYTES_20 2e9adbd4a9a49c6d2763f729b5ec3b7ecacc47aa OP_EQUAL",
      "scriptpubkey_type": "p2sh",
      "scriptpubkey_address": "35wSX95G75N9ZjgaSFPJfSjg8YtrwKC7Ce",
      "value": 12884542
    },
    {
      "scriptpubkey": "512002bcb1b6f6a087ba513eb8ab48efd0e57fb00beca4fc2d6c9f27eafd7b25328e",
      "scriptpubkey_asm": "OP_PUSHNUM_1 OP_PUSHBYTES_32 02bcb1b6f6a087ba513eb8ab48efd0e57fb00beca4fc2d6c9f27eafd7b25328e",
      "scriptpubkey_type": "v1_p2tr",
      "scriptpubkey_address": "bc1pq27trdhk5zrm55f7hz453m7su4lmqzlv5n7z6mylyl4067e9x28qzppesp",
      "value": 546
    },
    {
      "scriptpubkey": "a9142e9adbd4a9a49c6d2763f729b5ec3b7ecacc47aa87",
      "scriptpubkey_asm": "OP_HASH160 OP_PUSHBYTES_20 2e9adbd4a9a49c6d2763f729b5ec3b7ecacc47aa OP_EQUAL",
      "scriptpubkey_type": "p2sh",
      "scriptpubkey_address": "35wSX95G75N9ZjgaSFPJfSjg8YtrwKC7Ce",
      "value": 85079746
    },
    {
      "scriptpubkey": "512002bcb1b6f6a087ba513eb8ab48efd0e57fb00beca4fc2d6c9f27eafd7b25328e",
      "scriptpubkey_asm": "OP_PUSHNUM_1 OP_PUSHBYTES_32 02bcb1b6f6a087ba513eb8ab48efd0e57fb00beca4fc2d6c9f27eafd7b25328e",
      "scriptpubkey_type": "v1_p2tr",
      "scriptpubkey_address": "bc1pq27trdhk5zrm55f7hz453m7su4lmqzlv5n7z6mylyl4067e9x28qzppesp",
      "value": 546
    },
    {
      "scriptpubkey": "a9142e9adbd4a9a49c6d2763f729b5ec3b7ecacc47aa87",
      "scriptpubkey_asm": "OP_HASH160 OP_PUSHBYTES_20 2e9adbd4a9a49c6d2763f729b5ec3b7ecacc47aa OP_EQUAL",
      "scriptpubkey_type": "p2sh",
      "scriptpubkey_address": "35wSX95G75N9ZjgaSFPJfSjg8YtrwKC7Ce",
      "value": 39418916
    },
    {
      "scriptpubkey": "512002bcb1b6f6a087ba513eb8ab48efd0e57fb00beca4fc2d6c9f27eafd7b25328e",
      "scriptpubkey_asm": "OP_PUSHNUM_1 OP_PUSHBYTES_32 02bcb1b6f6a087ba513eb8ab48efd0e57fb00beca4fc2d6c9f27eafd7b25328e",
      "scriptpubkey_type": "v1_p2tr",
      "scriptpubkey_address": "bc1pq27trdhk5zrm55f7hz453m7su4lmqzlv5n7z6mylyl4067e9x28qzppesp",
      "value": 546
    },
    {
      "scriptpubkey": "a9142e9adbd4a9a49c6d2763f729b5ec3b7ecacc47aa87",
      "scriptpubkey_asm": "OP_HASH160 OP_PUSHBYTES_20 2e9adbd4a9a49c6d2763f729b5ec3b7ecacc47aa OP_EQUAL",
      "scriptpubkey_type": "p2sh",
      "scriptpubkey_address": "35wSX95G75N9ZjgaSFPJfSjg8YtrwKC7Ce",
      "value": 9832747
    },
    {
      "scriptpubkey": "512002bcb1b6f6a087ba513eb8ab48efd0e57fb00beca4fc2d6c9f27eafd7b25328e",
      "scriptpubkey_asm": "OP_PUSHNUM_1 OP_PUSHBYTES_32 02bcb1b6f6a087ba513eb8ab48efd0e57fb00beca4fc2d6c9f27eafd7b25328e",
      "scriptpubkey_type": "v1_p2tr",
      "scriptpubkey_address": "bc1pq27trdhk5zrm55f7hz453m7su4lmqzlv5n7z6mylyl4067e9x28qzppesp",
      "value": 546
    },
    {
      "scriptpubkey": "a9142e9adbd4a9a49c6d2763f729b5ec3b7ecacc47aa87",
      "scriptpubkey_asm": "OP_HASH160 OP_PUSHBYTES_20 2e9adbd4a9a49c6d2763f729b5ec3b7ecacc47aa OP_EQUAL",
      "scriptpubkey_type": "p2sh",
      "scriptpubkey_address": "35wSX95G75N9ZjgaSFPJfSjg8YtrwKC7Ce",
      "value": 4138881
    },
    {
      "scriptpubkey": "512002bcb1b6f6a087ba513eb8ab48efd0e57fb00beca4fc2d6c9f27eafd7b25328e",
      "scriptpubkey_asm": "OP_PUSHNUM_1 OP_PUSHBYTES_32 02bcb1b6f6a087ba513eb8ab48efd0e57fb00beca4fc2d6c9f27eafd7b25328e",
      "scriptpubkey_type": "v1_p2tr",
      "scriptpubkey_address": "bc1pq27trdhk5zrm55f7hz453m7su4lmqzlv5n7z6mylyl4067e9x28qzppesp",
      "value": 546
    },
    {
      "scriptpubkey": "a9142e9adbd4a9a49c6d2763f729b5ec3b7ecacc47aa87",
      "scriptpubkey_asm": "OP_HASH160 OP_PUSHBYTES_20 2e9adbd4a9a49c6d2763f729b5ec3b7ecacc47aa OP_EQUAL",
      "scriptpubkey_type": "p2sh",
      "scriptpubkey_address": "35wSX95G75N9ZjgaSFPJfSjg8YtrwKC7Ce",
      "value": 5758929
    },
    {
      "scriptpubkey": "512002bcb1b6f6a087ba513eb8ab48efd0e57fb00beca4fc2d6c9f27eafd7b25328e",
      "scriptpubkey_asm": "OP_PUSHNUM_1 OP_PUSHBYTES_32 02bcb1b6f6a087ba513eb8ab48efd0e57fb00beca4fc2d6c9f27eafd7b25328e",
      "scriptpubkey_type": "v1_p2tr",
      "scriptpubkey_address": "bc1pq27trdhk5zrm55f7hz453m7su4lmqzlv5n7z6mylyl4067e9x28qzppesp",
      "value": 546
    },
    {
      "scriptpubkey": "a9142e9adbd4a9a49c6d2763f729b5ec3b7ecacc47aa87",
      "scriptpubkey_asm": "OP_HASH160 OP_PUSHBYTES_20 2e9adbd4a9a49c6d2763f729b5ec3b7ecacc47aa OP_EQUAL",
      "scriptpubkey_type": "p2sh",
      "scriptpubkey_address": "35wSX95G75N9ZjgaSFPJfSjg8YtrwKC7Ce",
      "value": 6981907
    },
    {
      "scriptpubkey": "512002bcb1b6f6a087ba513eb8ab48efd0e57fb00beca4fc2d6c9f27eafd7b25328e",
      "scriptpubkey_asm": "OP_PUSHNUM_1 OP_PUSHBYTES_32 02bcb1b6f6a087ba513eb8ab48efd0e57fb00beca4fc2d6c9f27eafd7b25328e",
      "scriptpubkey_type": "v1_p2tr",
      "scriptpubkey_address": "bc1pq27trdhk5zrm55f7hz453m7su4lmqzlv5n7z6mylyl4067e9x28qzppesp",
      "value": 546
    },
    {
      "scriptpubkey": "a9142e9adbd4a9a49c6d2763f729b5ec3b7ecacc47aa87",
      "scriptpubkey_asm": "OP_HASH160 OP_PUSHBYTES_20 2e9adbd4a9a49c6d2763f729b5ec3b7ecacc47aa OP_EQUAL",
      "scriptpubkey_type": "p2sh",
      "scriptpubkey_address": "35wSX95G75N9ZjgaSFPJfSjg8YtrwKC7Ce",
      "value": 9903438
    },
    {
      "scriptpubkey": "512002bcb1b6f6a087ba513eb8ab48efd0e57fb00beca4fc2d6c9f27eafd7b25328e",
      "scriptpubkey_asm": "OP_PUSHNUM_1 OP_PUSHBYTES_32 02bcb1b6f6a087ba513eb8ab48efd0e57fb00beca4fc2d6c9f27eafd7b25328e",
      "scriptpubkey_type": "v1_p2tr",
      "scriptpubkey_address": "bc1pq27trdhk5zrm55f7hz453m7su4lmqzlv5n7z6mylyl4067e9x28qzppesp",
      "value": 546
    },
    {
      "scriptpubkey": "a9142e9adbd4a9a49c6d2763f729b5ec3b7ecacc47aa87",
      "scriptpubkey_asm": "OP_HASH160 OP_PUSHBYTES_20 2e9adbd4a9a49c6d2763f729b5ec3b7ecacc47aa OP_EQUAL",
      "scriptpubkey_type": "p2sh",
      "scriptpubkey_address": "35wSX95G75N9ZjgaSFPJfSjg8YtrwKC7Ce",
      "value": 859904
    },
    {
      "scriptpubkey": "512002bcb1b6f6a087ba513eb8ab48efd0e57fb00beca4fc2d6c9f27eafd7b25328e",
      "scriptpubkey_asm": "OP_PUSHNUM_1 OP_PUSHBYTES_32 02bcb1b6f6a087ba513eb8ab48efd0e57fb00beca4fc2d6c9f27eafd7b25328e",
      "scriptpubkey_type": "v1_p2tr",
      "scriptpubkey_address": "bc1pq27trdhk5zrm55f7hz453m7su4lmqzlv5n7z6mylyl4067e9x28qzppesp",
      "value": 546
    },
    {
      "scriptpubkey": "a9142e9adbd4a9a49c6d2763f729b5ec3b7ecacc47aa87",
      "scriptpubkey_asm": "OP_HASH160 OP_PUSHBYTES_20 2e9adbd4a9a49c6d2763f729b5ec3b7ecacc47aa OP_EQUAL",
      "scriptpubkey_type": "p2sh",
      "scriptpubkey_address": "35wSX95G75N9ZjgaSFPJfSjg8YtrwKC7Ce",
      "value": 6626408
    },
    {
      "scriptpubkey": "512002bcb1b6f6a087ba513eb8ab48efd0e57fb00beca4fc2d6c9f27eafd7b25328e",
      "scriptpubkey_asm": "OP_PUSHNUM_1 OP_PUSHBYTES_32 02bcb1b6f6a087ba513eb8ab48efd0e57fb00beca4fc2d6c9f27eafd7b25328e",
      "scriptpubkey_type": "v1_p2tr",
      "scriptpubkey_address": "bc1pq27trdhk5zrm55f7hz453m7su4lmqzlv5n7z6mylyl4067e9x28qzppesp",
      "value": 546
    },
    {
      "scriptpubkey": "a9142e9adbd4a9a49c6d2763f729b5ec3b7ecacc47aa87",
      "scriptpubkey_asm": "OP_HASH160 OP_PUSHBYTES_20 2e9adbd4a9a49c6d2763f729b5ec3b7ecacc47aa OP_EQUAL",
      "scriptpubkey_type": "p2sh",
      "scriptpubkey_address": "35wSX95G75N9ZjgaSFPJfSjg8YtrwKC7Ce",
      "value": 10306287
    },
    {
      "scriptpubkey": "512002bcb1b6f6a087ba513eb8ab48efd0e57fb00beca4fc2d6c9f27eafd7b25328e",
      "scriptpubkey_asm": "OP_PUSHNUM_1 OP_PUSHBYTES_32 02bcb1b6f6a087ba513eb8ab48efd0e57fb00beca4fc2d6c9f27eafd7b25328e",
      "scriptpubkey_type": "v1_p2tr",
      "scriptpubkey_address": "bc1pq27trdhk5zrm55f7hz453m7su4lmqzlv5n7z6mylyl4067e9x28qzppesp",
      "value": 41090
    },
    {
      "scriptpubkey": "a9142e9adbd4a9a49c6d2763f729b5ec3b7ecacc47aa87",
      "scriptpubkey_asm": "OP_HASH160 OP_PUSHBYTES_20 2e9adbd4a9a49c6d2763f729b5ec3b7ecacc47aa OP_EQUAL",
      "scriptpubkey_type": "p2sh",
      "scriptpubkey_address": "35wSX95G75N9ZjgaSFPJfSjg8YtrwKC7Ce",
      "value": 20299102
    },
    {
      "scriptpubkey": "512002bcb1b6f6a087ba513eb8ab48efd0e57fb00beca4fc2d6c9f27eafd7b25328e",
      "scriptpubkey_asm": "OP_PUSHNUM_1 OP_PUSHBYTES_32 02bcb1b6f6a087ba513eb8ab48efd0e57fb00beca4fc2d6c9f27eafd7b25328e",
      "scriptpubkey_type": "v1_p2tr",
      "scriptpubkey_address": "bc1pq27trdhk5zrm55f7hz453m7su4lmqzlv5n7z6mylyl4067e9x28qzppesp",
      "value": 546
    },
    {
      "scriptpubkey": "a9142e9adbd4a9a49c6d2763f729b5ec3b7ecacc47aa87",
      "scriptpubkey_asm": "OP_HASH160 OP_PUSHBYTES_20 2e9adbd4a9a49c6d2763f729b5ec3b7ecacc47aa OP_EQUAL",
      "scriptpubkey_type": "p2sh",
      "scriptpubkey_address": "35wSX95G75N9ZjgaSFPJfSjg8YtrwKC7Ce",
      "value": 4085925
    },
    {
      "scriptpubkey": "512002bcb1b6f6a087ba513eb8ab48efd0e57fb00beca4fc2d6c9f27eafd7b25328e",
      "scriptpubkey_asm": "OP_PUSHNUM_1 OP_PUSHBYTES_32 02bcb1b6f6a087ba513eb8ab48efd0e57fb00beca4fc2d6c9f27eafd7b25328e",
      "scriptpubkey_type": "v1_p2tr",
      "scriptpubkey_address": "bc1pq27trdhk5zrm55f7hz453m7su4lmqzlv5n7z6mylyl4067e9x28qzppesp",
      "value": 546
    },
    {
      "scriptpubkey": "a9142e9adbd4a9a49c6d2763f729b5ec3b7ecacc47aa87",
      "scriptpubkey_asm": "OP_HASH160 OP_PUSHBYTES_20 2e9adbd4a9a49c6d2763f729b5ec3b7ecacc47aa OP_EQUAL",
      "scriptpubkey_type": "p2sh",
      "scriptpubkey_address": "35wSX95G75N9ZjgaSFPJfSjg8YtrwKC7Ce",
      "value": 3049032
    },
    {
      "scriptpubkey": "512002bcb1b6f6a087ba513eb8ab48efd0e57fb00beca4fc2d6c9f27eafd7b25328e",
      "scriptpubkey_asm": "OP_PUSHNUM_1 OP_PUSHBYTES_32 02bcb1b6f6a087ba513eb8ab48efd0e57fb00beca4fc2d6c9f27eafd7b25328e",
      "scriptpubkey_type": "v1_p2tr",
      "scriptpubkey_address": "bc1pq27trdhk5zrm55f7hz453m7su4lmqzlv5n7z6mylyl4067e9x28qzppesp",
      "value": 546
    },
    {
      "scriptpubkey": "a9142e9adbd4a9a49c6d2763f729b5ec3b7ecacc47aa87",
      "scriptpubkey_asm": "OP_HASH160 OP_PUSHBYTES_20 2e9adbd4a9a49c6d2763f729b5ec3b7ecacc47aa OP_EQUAL",
      "scriptpubkey_type": "p2sh",
      "scriptpubkey_address": "35wSX95G75N9ZjgaSFPJfSjg8YtrwKC7Ce",
      "value": 6886474
    },
    {
      "scriptpubkey": "512002bcb1b6f6a087ba513eb8ab48efd0e57fb00beca4fc2d6c9f27eafd7b25328e",
      "scriptpubkey_asm": "OP_PUSHNUM_1 OP_PUSHBYTES_32 02bcb1b6f6a087ba513eb8ab48efd0e57fb00beca4fc2d6c9f27eafd7b25328e",
      "scriptpubkey_type": "v1_p2tr",
      "scriptpubkey_address": "bc1pq27trdhk5zrm55f7hz453m7su4lmqzlv5n7z6mylyl4067e9x28qzppesp",
      "value": 546
    },
    {
      "scriptpubkey": "a9142e9adbd4a9a49c6d2763f729b5ec3b7ecacc47aa87",
      "scriptpubkey_asm": "OP_HASH160 OP_PUSHBYTES_20 2e9adbd4a9a49c6d2763f729b5ec3b7ecacc47aa OP_EQUAL",
      "scriptpubkey_type": "p2sh",
      "scriptpubkey_address": "35wSX95G75N9ZjgaSFPJfSjg8YtrwKC7Ce",
      "value": 17981613
    },
    {
      "scriptpubkey": "512002bcb1b6f6a087ba513eb8ab48efd0e57fb00beca4fc2d6c9f27eafd7b25328e",
      "scriptpubkey_asm": "OP_PUSHNUM_1 OP_PUSHBYTES_32 02bcb1b6f6a087ba513eb8ab48efd0e57fb00beca4fc2d6c9f27eafd7b25328e",
      "scriptpubkey_type": "v1_p2tr",
      "scriptpubkey_address": "bc1pq27trdhk5zrm55f7hz453m7su4lmqzlv5n7z6mylyl4067e9x28qzppesp",
      "value": 546
    },
    {
      "scriptpubkey": "a9142e9adbd4a9a49c6d2763f729b5ec3b7ecacc47aa87",
      "scriptpubkey_asm": "OP_HASH160 OP_PUSHBYTES_20 2e9adbd4a9a49c6d2763f729b5ec3b7ecacc47aa OP_EQUAL",
      "scriptpubkey_type": "p2sh",
      "scriptpubkey_address": "35wSX95G75N9ZjgaSFPJfSjg8YtrwKC7Ce",
      "value": 38736363
    },
    {
      "scriptpubkey": "512002bcb1b6f6a087ba513eb8ab48efd0e57fb00beca4fc2d6c9f27eafd7b25328e",
      "scriptpubkey_asm": "OP_PUSHNUM_1 OP_PUSHBYTES_32 02bcb1b6f6a087ba513eb8ab48efd0e57fb00beca4fc2d6c9f27eafd7b25328e",
      "scriptpubkey_type": "v1_p2tr",
      "scriptpubkey_address": "bc1pq27trdhk5zrm55f7hz453m7su4lmqzlv5n7z6mylyl4067e9x28qzppesp",
      "value": 546
    },
    {
      "scriptpubkey": "a9142e9adbd4a9a49c6d2763f729b5ec3b7ecacc47aa87",
      "scriptpubkey_asm": "OP_HASH160 OP_PUSHBYTES_20 2e9adbd4a9a49c6d2763f729b5ec3b7ecacc47aa OP_EQUAL",
      "scriptpubkey_type": "p2sh",
      "scriptpubkey_address": "35wSX95G75N9ZjgaSFPJfSjg8YtrwKC7Ce",
      "value": 21965947
    },
    {
      "scriptpubkey": "512002bcb1b6f6a087ba513eb8ab48efd0e57fb00beca4fc2d6c9f27eafd7b25328e",
      "scriptpubkey_asm": "OP_PUSHNUM_1 OP_PUSHBYTES_32 02bcb1b6f6a087ba513eb8ab48efd0e57fb00beca4fc2d6c9f27eafd7b25328e",
      "scriptpubkey_type": "v1_p2tr",
      "scriptpubkey_address": "bc1pq27trdhk5zrm55f7hz453m7su4lmqzlv5n7z6mylyl4067e9x28qzppesp",
      "value": 546
    },
    {
      "scriptpubkey": "a9142e9adbd4a9a49c6d2763f729b5ec3b7ecacc47aa87",
      "scriptpubkey_asm": "OP_HASH160 OP_PUSHBYTES_20 2e9adbd4a9a49c6d2763f729b5ec3b7ecacc47aa OP_EQUAL",
      "scriptpubkey_type": "p2sh",
      "scriptpubkey_address": "35wSX95G75N9ZjgaSFPJfSjg8YtrwKC7Ce",
      "value": 6886110
    },
    {
      "scriptpubkey": "512002bcb1b6f6a087ba513eb8ab48efd0e57fb00beca4fc2d6c9f27eafd7b25328e",
      "scriptpubkey_asm": "OP_PUSHNUM_1 OP_PUSHBYTES_32 02bcb1b6f6a087ba513eb8ab48efd0e57fb00beca4fc2d6c9f27eafd7b25328e",
      "scriptpubkey_type": "v1_p2tr",
      "scriptpubkey_address": "bc1pq27trdhk5zrm55f7hz453m7su4lmqzlv5n7z6mylyl4067e9x28qzppesp",
      "value": 546
    },
    {
      "scriptpubkey": "a9142e9adbd4a9a49c6d2763f729b5ec3b7ecacc47aa87",
      "scriptpubkey_asm": "OP_HASH160 OP_PUSHBYTES_20 2e9adbd4a9a49c6d2763f729b5ec3b7ecacc47aa OP_EQUAL",
      "scriptpubkey_type": "p2sh",
      "scriptpubkey_address": "35wSX95G75N9ZjgaSFPJfSjg8YtrwKC7Ce",
      "value": 1305875
    },
    {
      "scriptpubkey": "512002bcb1b6f6a087ba513eb8ab48efd0e57fb00beca4fc2d6c9f27eafd7b25328e",
      "scriptpubkey_asm": "OP_PUSHNUM_1 OP_PUSHBYTES_32 02bcb1b6f6a087ba513eb8ab48efd0e57fb00beca4fc2d6c9f27eafd7b25328e",
      "scriptpubkey_type": "v1_p2tr",
      "scriptpubkey_address": "bc1pq27trdhk5zrm55f7hz453m7su4lmqzlv5n7z6mylyl4067e9x28qzppesp",
      "value": 546
    },
    {
      "scriptpubkey": "a9142e9adbd4a9a49c6d2763f729b5ec3b7ecacc47aa87",
      "scriptpubkey_asm": "OP_HASH160 OP_PUSHBYTES_20 2e9adbd4a9a49c6d2763f729b5ec3b7ecacc47aa OP_EQUAL",
      "scriptpubkey_type": "p2sh",
      "scriptpubkey_address": "35wSX95G75N9ZjgaSFPJfSjg8YtrwKC7Ce",
      "value": 23130631
    },
    {
      "scriptpubkey": "512002bcb1b6f6a087ba513eb8ab48efd0e57fb00beca4fc2d6c9f27eafd7b25328e",
      "scriptpubkey_asm": "OP_PUSHNUM_1 OP_PUSHBYTES_32 02bcb1b6f6a087ba513eb8ab48efd0e57fb00beca4fc2d6c9f27eafd7b25328e",
      "scriptpubkey_type": "v1_p2tr",
      "scriptpubkey_address": "bc1pq27trdhk5zrm55f7hz453m7su4lmqzlv5n7z6mylyl4067e9x28qzppesp",
      "value": 546
    },
    {
      "scriptpubkey": "a9142e9adbd4a9a49c6d2763f729b5ec3b7ecacc47aa87",
      "scriptpubkey_asm": "OP_HASH160 OP_PUSHBYTES_20 2e9adbd4a9a49c6d2763f729b5ec3b7ecacc47aa OP_EQUAL",
      "scriptpubkey_type": "p2sh",
      "scriptpubkey_address": "35wSX95G75N9ZjgaSFPJfSjg8YtrwKC7Ce",
      "value": 30780616
    },
    {
      "scriptpubkey": "512002bcb1b6f6a087ba513eb8ab48efd0e57fb00beca4fc2d6c9f27eafd7b25328e",
      "scriptpubkey_asm": "OP_PUSHNUM_1 OP_PUSHBYTES_32 02bcb1b6f6a087ba513eb8ab48efd0e57fb00beca4fc2d6c9f27eafd7b25328e",
      "scriptpubkey_type": "v1_p2tr",
      "scriptpubkey_address": "bc1pq27trdhk5zrm55f7hz453m7su4lmqzlv5n7z6mylyl4067e9x28qzppesp",
      "value": 47248
    },
    {
      "scriptpubkey": "a9142e9adbd4a9a49c6d2763f729b5ec3b7ecacc47aa87",
      "scriptpubkey_asm": "OP_HASH160 OP_PUSHBYTES_20 2e9adbd4a9a49c6d2763f729b5ec3b7ecacc47aa OP_EQUAL",
      "scriptpubkey_type": "p2sh",
      "scriptpubkey_address": "35wSX95G75N9ZjgaSFPJfSjg8YtrwKC7Ce",
      "value": 10156735
    },
    {
      "scriptpubkey": "512002bcb1b6f6a087ba513eb8ab48efd0e57fb00beca4fc2d6c9f27eafd7b25328e",
      "scriptpubkey_asm": "OP_PUSHNUM_1 OP_PUSHBYTES_32 02bcb1b6f6a087ba513eb8ab48efd0e57fb00beca4fc2d6c9f27eafd7b25328e",
      "scriptpubkey_type": "v1_p2tr",
      "scriptpubkey_address": "bc1pq27trdhk5zrm55f7hz453m7su4lmqzlv5n7z6mylyl4067e9x28qzppesp",
      "value": 546
    },
    {
      "scriptpubkey": "a9142e9adbd4a9a49c6d2763f729b5ec3b7ecacc47aa87",
      "scriptpubkey_asm": "OP_HASH160 OP_PUSHBYTES_20 2e9adbd4a9a49c6d2763f729b5ec3b7ecacc47aa OP_EQUAL",
      "scriptpubkey_type": "p2sh",
      "scriptpubkey_address": "35wSX95G75N9ZjgaSFPJfSjg8YtrwKC7Ce",
      "value": 54898035
    },
    {
      "scriptpubkey": "512002bcb1b6f6a087ba513eb8ab48efd0e57fb00beca4fc2d6c9f27eafd7b25328e",
      "scriptpubkey_asm": "OP_PUSHNUM_1 OP_PUSHBYTES_32 02bcb1b6f6a087ba513eb8ab48efd0e57fb00beca4fc2d6c9f27eafd7b25328e",
      "scriptpubkey_type": "v1_p2tr",
      "scriptpubkey_address": "bc1pq27trdhk5zrm55f7hz453m7su4lmqzlv5n7z6mylyl4067e9x28qzppesp",
      "value": 546
    },
    {
      "scriptpubkey": "a9142e9adbd4a9a49c6d2763f729b5ec3b7ecacc47aa87",
      "scriptpubkey_asm": "OP_HASH160 OP_PUSHBYTES_20 2e9adbd4a9a49c6d2763f729b5ec3b7ecacc47aa OP_EQUAL",
      "scriptpubkey_type": "p2sh",
      "scriptpubkey_address": "35wSX95G75N9ZjgaSFPJfSjg8YtrwKC7Ce",
      "value": 9966641
    },
    {
      "scriptpubkey": "512002bcb1b6f6a087ba513eb8ab48efd0e57fb00beca4fc2d6c9f27eafd7b25328e",
      "scriptpubkey_asm": "OP_PUSHNUM_1 OP_PUSHBYTES_32 02bcb1b6f6a087ba513eb8ab48efd0e57fb00beca4fc2d6c9f27eafd7b25328e",
      "scriptpubkey_type": "v1_p2tr",
      "scriptpubkey_address": "bc1pq27trdhk5zrm55f7hz453m7su4lmqzlv5n7z6mylyl4067e9x28qzppesp",
      "value": 35335
    },
    {
      "scriptpubkey": "a9142e9adbd4a9a49c6d2763f729b5ec3b7ecacc47aa87",
      "scriptpubkey_asm": "OP_HASH160 OP_PUSHBYTES_20 2e9adbd4a9a49c6d2763f729b5ec3b7ecacc47aa OP_EQUAL",
      "scriptpubkey_type": "p2sh",
      "scriptpubkey_address": "35wSX95G75N9ZjgaSFPJfSjg8YtrwKC7Ce",
      "value": 2733508
    },
    {
      "scriptpubkey": "512002bcb1b6f6a087ba513eb8ab48efd0e57fb00beca4fc2d6c9f27eafd7b25328e",
      "scriptpubkey_asm": "OP_PUSHNUM_1 OP_PUSHBYTES_32 02bcb1b6f6a087ba513eb8ab48efd0e57fb00beca4fc2d6c9f27eafd7b25328e",
      "scriptpubkey_type": "v1_p2tr",
      "scriptpubkey_address": "bc1pq27trdhk5zrm55f7hz453m7su4lmqzlv5n7z6mylyl4067e9x28qzppesp",
      "value": 30216
    },
    {
      "scriptpubkey": "a9142e9adbd4a9a49c6d2763f729b5ec3b7ecacc47aa87",
      "scriptpubkey_asm": "OP_HASH160 OP_PUSHBYTES_20 2e9adbd4a9a49c6d2763f729b5ec3b7ecacc47aa OP_EQUAL",
      "scriptpubkey_type": "p2sh",
      "scriptpubkey_address": "35wSX95G75N9ZjgaSFPJfSjg8YtrwKC7Ce",
      "value": 6799962
    },
    {
      "scriptpubkey": "512002bcb1b6f6a087ba513eb8ab48efd0e57fb00beca4fc2d6c9f27eafd7b25328e",
      "scriptpubkey_asm": "OP_PUSHNUM_1 OP_PUSHBYTES_32 02bcb1b6f6a087ba513eb8ab48efd0e57fb00beca4fc2d6c9f27eafd7b25328e",
      "scriptpubkey_type": "v1_p2tr",
      "scriptpubkey_address": "bc1pq27trdhk5zrm55f7hz453m7su4lmqzlv5n7z6mylyl4067e9x28qzppesp",
      "value": 546
    },
    {
      "scriptpubkey": "a9142e9adbd4a9a49c6d2763f729b5ec3b7ecacc47aa87",
      "scriptpubkey_asm": "OP_HASH160 OP_PUSHBYTES_20 2e9adbd4a9a49c6d2763f729b5ec3b7ecacc47aa OP_EQUAL",
      "scriptpubkey_type": "p2sh",
      "scriptpubkey_address": "35wSX95G75N9ZjgaSFPJfSjg8YtrwKC7Ce",
      "value": 10583526
    },
    {
      "scriptpubkey": "512002bcb1b6f6a087ba513eb8ab48efd0e57fb00beca4fc2d6c9f27eafd7b25328e",
      "scriptpubkey_asm": "OP_PUSHNUM_1 OP_PUSHBYTES_32 02bcb1b6f6a087ba513eb8ab48efd0e57fb00beca4fc2d6c9f27eafd7b25328e",
      "scriptpubkey_type": "v1_p2tr",
      "scriptpubkey_address": "bc1pq27trdhk5zrm55f7hz453m7su4lmqzlv5n7z6mylyl4067e9x28qzppesp",
      "value": 546
    },
    {
      "scriptpubkey": "a9142e9adbd4a9a49c6d2763f729b5ec3b7ecacc47aa87",
      "scriptpubkey_asm": "OP_HASH160 OP_PUSHBYTES_20 2e9adbd4a9a49c6d2763f729b5ec3b7ecacc47aa OP_EQUAL",
      "scriptpubkey_type": "p2sh",
      "scriptpubkey_address": "35wSX95G75N9ZjgaSFPJfSjg8YtrwKC7Ce",
      "value": 5336276
    },
    {
      "scriptpubkey": "512002bcb1b6f6a087ba513eb8ab48efd0e57fb00beca4fc2d6c9f27eafd7b25328e",
      "scriptpubkey_asm": "OP_PUSHNUM_1 OP_PUSHBYTES_32 02bcb1b6f6a087ba513eb8ab48efd0e57fb00beca4fc2d6c9f27eafd7b25328e",
      "scriptpubkey_type": "v1_p2tr",
      "scriptpubkey_address": "bc1pq27trdhk5zrm55f7hz453m7su4lmqzlv5n7z6mylyl4067e9x28qzppesp",
      "value": 546
    },
    {
      "scriptpubkey": "a9142e9adbd4a9a49c6d2763f729b5ec3b7ecacc47aa87",
      "scriptpubkey_asm": "OP_HASH160 OP_PUSHBYTES_20 2e9adbd4a9a49c6d2763f729b5ec3b7ecacc47aa OP_EQUAL",
      "scriptpubkey_type": "p2sh",
      "scriptpubkey_address": "35wSX95G75N9ZjgaSFPJfSjg8YtrwKC7Ce",
      "value": 3403604
    },
    {
      "scriptpubkey": "512002bcb1b6f6a087ba513eb8ab48efd0e57fb00beca4fc2d6c9f27eafd7b25328e",
      "scriptpubkey_asm": "OP_PUSHNUM_1 OP_PUSHBYTES_32 02bcb1b6f6a087ba513eb8ab48efd0e57fb00beca4fc2d6c9f27eafd7b25328e",
      "scriptpubkey_type": "v1_p2tr",
      "scriptpubkey_address": "bc1pq27trdhk5zrm55f7hz453m7su4lmqzlv5n7z6mylyl4067e9x28qzppesp",
      "value": 546
    },
    {
      "scriptpubkey": "a9142e9adbd4a9a49c6d2763f729b5ec3b7ecacc47aa87",
      "scriptpubkey_asm": "OP_HASH160 OP_PUSHBYTES_20 2e9adbd4a9a49c6d2763f729b5ec3b7ecacc47aa OP_EQUAL",
      "scriptpubkey_type": "p2sh",
      "scriptpubkey_address": "35wSX95G75N9ZjgaSFPJfSjg8YtrwKC7Ce",
      "value": 27266001
    },
    {
      "scriptpubkey": "512002bcb1b6f6a087ba513eb8ab48efd0e57fb00beca4fc2d6c9f27eafd7b25328e",
      "scriptpubkey_asm": "OP_PUSHNUM_1 OP_PUSHBYTES_32 02bcb1b6f6a087ba513eb8ab48efd0e57fb00beca4fc2d6c9f27eafd7b25328e",
      "scriptpubkey_type": "v1_p2tr",
      "scriptpubkey_address": "bc1pq27trdhk5zrm55f7hz453m7su4lmqzlv5n7z6mylyl4067e9x28qzppesp",
      "value": 546
    },
    {
      "scriptpubkey": "a9142e9adbd4a9a49c6d2763f729b5ec3b7ecacc47aa87",
      "scriptpubkey_asm": "OP_HASH160 OP_PUSHBYTES_20 2e9adbd4a9a49c6d2763f729b5ec3b7ecacc47aa OP_EQUAL",
      "scriptpubkey_type": "p2sh",
      "scriptpubkey_address": "35wSX95G75N9ZjgaSFPJfSjg8YtrwKC7Ce",
      "value": 3969341
    },
    {
      "scriptpubkey": "512002bcb1b6f6a087ba513eb8ab48efd0e57fb00beca4fc2d6c9f27eafd7b25328e",
      "scriptpubkey_asm": "OP_PUSHNUM_1 OP_PUSHBYTES_32 02bcb1b6f6a087ba513eb8ab48efd0e57fb00beca4fc2d6c9f27eafd7b25328e",
      "scriptpubkey_type": "v1_p2tr",
      "scriptpubkey_address": "bc1pq27trdhk5zrm55f7hz453m7su4lmqzlv5n7z6mylyl4067e9x28qzppesp",
      "value": 546
    },
    {
      "scriptpubkey": "a9142e9adbd4a9a49c6d2763f729b5ec3b7ecacc47aa87",
      "scriptpubkey_asm": "OP_HASH160 OP_PUSHBYTES_20 2e9adbd4a9a49c6d2763f729b5ec3b7ecacc47aa OP_EQUAL",
      "scriptpubkey_type": "p2sh",
      "scriptpubkey_address": "35wSX95G75N9ZjgaSFPJfSjg8YtrwKC7Ce",
      "value": 20393398
    },
    {
      "scriptpubkey": "a914c4e1178d6dc8426ebd9cd7ee64f3181b6a03bac187",
      "scriptpubkey_asm": "OP_HASH160 OP_PUSHBYTES_20 c4e1178d6dc8426ebd9cd7ee64f3181b6a03bac1 OP_EQUAL",
      "scriptpubkey_type": "p2sh",
      "scriptpubkey_address": "3Ke21osfhEbEryUeqdwAuAY8VKxm5B9uB2",
      "value": 54000
    }
  ],
  "size": 3173,
  "weight": 12362,
  "fee": 49440,
  "status": {
    "confirmed": true,
    "block_height": 834638,
    "block_hash": "000000000000000000025f742c626208ac87e0b7d15054abb4a19ca2d735a54e",
    "block_time": 1710405325
  },
  "hex": "020000000001013edd8174533999886a26bc7de3accfcdae8cf10bd868dd9dc4ee90b5d268076b02000000171600149f4b9cd1b3a286cc58ba6b770c2ace9dd74cd48dffffffff5067f02f000000000017a9142e9adbd4a9a49c6d2763f729b5ec3b7ecacc47aa87220200000000000022512002bcb1b6f6a087ba513eb8ab48efd0e57fb00beca4fc2d6c9f27eafd7b25328e987681000000000017a9142e9adbd4a9a49c6d2763f729b5ec3b7ecacc47aa87220200000000000022512002bcb1b6f6a087ba513eb8ab48efd0e57fb00beca4fc2d6c9f27eafd7b25328e18063c000000000017a9142e9adbd4a9a49c6d2763f729b5ec3b7ecacc47aa87220200000000000022512002bcb1b6f6a087ba513eb8ab48efd0e57fb00beca4fc2d6c9f27eafd7b25328eb08aa3000000000017a9142e9adbd4a9a49c6d2763f729b5ec3b7ecacc47aa87220200000000000022512002bcb1b6f6a087ba513eb8ab48efd0e57fb00beca4fc2d6c9f27eafd7b25328ecfe561040000000017a9142e9adbd4a9a49c6d2763f729b5ec3b7ecacc47aa87220200000000000022512002bcb1b6f6a087ba513eb8ab48efd0e57fb00beca4fc2d6c9f27eafd7b25328eaa6719020000000017a9142e9adbd4a9a49c6d2763f729b5ec3b7ecacc47aa87220200000000000022512002bcb1b6f6a087ba513eb8ab48efd0e57fb00beca4fc2d6c9f27eafd7b25328eb5b722000000000017a9142e9adbd4a9a49c6d2763f729b5ec3b7ecacc47aa87220200000000000022512002bcb1b6f6a087ba513eb8ab48efd0e57fb00beca4fc2d6c9f27eafd7b25328e3e9ac4000000000017a9142e9adbd4a9a49c6d2763f729b5ec3b7ecacc47aa87220200000000000022512002bcb1b6f6a087ba513eb8ab48efd0e57fb00beca4fc2d6c9f27eafd7b25328ec23612050000000017a9142e9adbd4a9a49c6d2763f729b5ec3b7ecacc47aa87220200000000000022512002bcb1b6f6a087ba513eb8ab48efd0e57fb00beca4fc2d6c9f27eafd7b25328e247c59020000000017a9142e9adbd4a9a49c6d2763f729b5ec3b7ecacc47aa87220200000000000022512002bcb1b6f6a087ba513eb8ab48efd0e57fb00beca4fc2d6c9f27eafd7b25328e2b0996000000000017a9142e9adbd4a9a49c6d2763f729b5ec3b7ecacc47aa87220200000000000022512002bcb1b6f6a087ba513eb8ab48efd0e57fb00beca4fc2d6c9f27eafd7b25328e81273f000000000017a9142e9adbd4a9a49c6d2763f729b5ec3b7ecacc47aa87220200000000000022512002bcb1b6f6a087ba513eb8ab48efd0e57fb00beca4fc2d6c9f27eafd7b25328ed1df57000000000017a9142e9adbd4a9a49c6d2763f729b5ec3b7ecacc47aa87220200000000000022512002bcb1b6f6a087ba513eb8ab48efd0e57fb00beca4fc2d6c9f27eafd7b25328e13896a000000000017a9142e9adbd4a9a49c6d2763f729b5ec3b7ecacc47aa87220200000000000022512002bcb1b6f6a087ba513eb8ab48efd0e57fb00beca4fc2d6c9f27eafd7b25328e4e1d97000000000017a9142e9adbd4a9a49c6d2763f729b5ec3b7ecacc47aa87220200000000000022512002bcb1b6f6a087ba513eb8ab48efd0e57fb00beca4fc2d6c9f27eafd7b25328e001f0d000000000017a9142e9adbd4a9a49c6d2763f729b5ec3b7ecacc47aa87220200000000000022512002bcb1b6f6a087ba513eb8ab48efd0e57fb00beca4fc2d6c9f27eafd7b25328e681c65000000000017a9142e9adbd4a9a49c6d2763f729b5ec3b7ecacc47aa87220200000000000022512002bcb1b6f6a087ba513eb8ab48efd0e57fb00beca4fc2d6c9f27eafd7b25328eef429d000000000017a9142e9adbd4a9a49c6d2763f729b5ec3b7ecacc47aa8782a000000000000022512002bcb1b6f6a087ba513eb8ab48efd0e57fb00beca4fc2d6c9f27eafd7b25328e5ebd35010000000017a9142e9adbd4a9a49c6d2763f729b5ec3b7ecacc47aa87220200000000000022512002bcb1b6f6a087ba513eb8ab48efd0e57fb00beca4fc2d6c9f27eafd7b25328ea5583e000000000017a9142e9adbd4a9a49c6d2763f729b5ec3b7ecacc47aa87220200000000000022512002bcb1b6f6a087ba513eb8ab48efd0e57fb00beca4fc2d6c9f27eafd7b25328e48862e000000000017a9142e9adbd4a9a49c6d2763f729b5ec3b7ecacc47aa87220200000000000022512002bcb1b6f6a087ba513eb8ab48efd0e57fb00beca4fc2d6c9f27eafd7b25328e4a1469000000000017a9142e9adbd4a9a49c6d2763f729b5ec3b7ecacc47aa87220200000000000022512002bcb1b6f6a087ba513eb8ab48efd0e57fb00beca4fc2d6c9f27eafd7b25328ead6012010000000017a9142e9adbd4a9a49c6d2763f729b5ec3b7ecacc47aa87220200000000000022512002bcb1b6f6a087ba513eb8ab48efd0e57fb00beca4fc2d6c9f27eafd7b25328eeb114f020000000017a9142e9adbd4a9a49c6d2763f729b5ec3b7ecacc47aa87220200000000000022512002bcb1b6f6a087ba513eb8ab48efd0e57fb00beca4fc2d6c9f27eafd7b25328e7b2c4f010000000017a9142e9adbd4a9a49c6d2763f729b5ec3b7ecacc47aa87220200000000000022512002bcb1b6f6a087ba513eb8ab48efd0e57fb00beca4fc2d6c9f27eafd7b25328ede1269000000000017a9142e9adbd4a9a49c6d2763f729b5ec3b7ecacc47aa87220200000000000022512002bcb1b6f6a087ba513eb8ab48efd0e57fb00beca4fc2d6c9f27eafd7b25328e13ed13000000000017a9142e9adbd4a9a49c6d2763f729b5ec3b7ecacc47aa87220200000000000022512002bcb1b6f6a087ba513eb8ab48efd0e57fb00beca4fc2d6c9f27eafd7b25328e07f260010000000017a9142e9adbd4a9a49c6d2763f729b5ec3b7ecacc47aa87220200000000000022512002bcb1b6f6a087ba513eb8ab48efd0e57fb00beca4fc2d6c9f27eafd7b25328ec8acd5010000000017a9142e9adbd4a9a49c6d2763f729b5ec3b7ecacc47aa8790b800000000000022512002bcb1b6f6a087ba513eb8ab48efd0e57fb00beca4fc2d6c9f27eafd7b25328ebffa9a000000000017a9142e9adbd4a9a49c6d2763f729b5ec3b7ecacc47aa87220200000000000022512002bcb1b6f6a087ba513eb8ab48efd0e57fb00beca4fc2d6c9f27eafd7b25328e73ad45030000000017a9142e9adbd4a9a49c6d2763f729b5ec3b7ecacc47aa87220200000000000022512002bcb1b6f6a087ba513eb8ab48efd0e57fb00beca4fc2d6c9f27eafd7b25328e311498000000000017a9142e9adbd4a9a49c6d2763f729b5ec3b7ecacc47aa87078a00000000000022512002bcb1b6f6a087ba513eb8ab48efd0e57fb00beca4fc2d6c9f27eafd7b25328ec4b529000000000017a9142e9adbd4a9a49c6d2763f729b5ec3b7ecacc47aa87087600000000000022512002bcb1b6f6a087ba513eb8ab48efd0e57fb00beca4fc2d6c9f27eafd7b25328e5ac267000000000017a9142e9adbd4a9a49c6d2763f729b5ec3b7ecacc47aa87220200000000000022512002bcb1b6f6a087ba513eb8ab48efd0e57fb00beca4fc2d6c9f27eafd7b25328ee67da1000000000017a9142e9adbd4a9a49c6d2763f729b5ec3b7ecacc47aa87220200000000000022512002bcb1b6f6a087ba513eb8ab48efd0e57fb00beca4fc2d6c9f27eafd7b25328ed46c51000000000017a9142e9adbd4a9a49c6d2763f729b5ec3b7ecacc47aa87220200000000000022512002bcb1b6f6a087ba513eb8ab48efd0e57fb00beca4fc2d6c9f27eafd7b25328e54ef33000000000017a9142e9adbd4a9a49c6d2763f729b5ec3b7ecacc47aa87220200000000000022512002bcb1b6f6a087ba513eb8ab48efd0e57fb00beca4fc2d6c9f27eafd7b25328ed10ba0010000000017a9142e9adbd4a9a49c6d2763f729b5ec3b7ecacc47aa87220200000000000022512002bcb1b6f6a087ba513eb8ab48efd0e57fb00beca4fc2d6c9f27eafd7b25328e3d913c000000000017a9142e9adbd4a9a49c6d2763f729b5ec3b7ecacc47aa87220200000000000022512002bcb1b6f6a087ba513eb8ab48efd0e57fb00beca4fc2d6c9f27eafd7b25328eb62d37010000000017a9142e9adbd4a9a49c6d2763f729b5ec3b7ecacc47aa87f0d200000000000017a914c4e1178d6dc8426ebd9cd7ee64f3181b6a03bac18702483045022100ea07f5260aafd7315b89e295f7fb7b0836fe0700b669bde6a9beb36d8e3b7c4e02204b6785f0dc4d2f44a39a2346b7f517902e46f06f2d524c91e980363825b4c97b012103185ddade321da7c6484b950272f469cb33095b50db01bb2dbbe40906c1bf68b500000000"
}