{
  "txid": "60d1f65b7c56509489e319ef01f230d989aed738b9d00e9cc081314c3f87bdba",
  "version": 2,
  "locktime": 0,
  "vin": [
    {
      "txid": "a20943d92f63d1b1dd9332d14acf8372e859477eaa1d9afd84552906edd4f3ac",
      "vout": 0,
      "prevout": {
        "scriptpubkey": "51208bf039717af29d3c10c872448e41f6c2ab034c6100f6445c0580cc2457d63405",
        "scriptpubkey_asm": "OP_PUSHNUM_1 OP_PUSHBYTES_32 8bf039717af29d3c10c872448e41f6c2ab034c6100f6445c0580cc2457d63405",
        "scriptpubkey_type": "v1_p2tr",
        "scriptpubkey_address": "bc1p30crjut672wncyxgwfzgus0kc24sxnrpqrmyghq9srxzg47kxszs5x4w0y",
        "value": 22000
      },
      "scriptsig": "",
      "scriptsig_asm": "",
      "witness": [
        "3cb6597695dac3932aea9ce2a2f7b765e5249f73ccb0faad35e70db814c8b4ab8a63af003a33f23a1fd6c16b6ad7eef018baf32ee66bb4a4ba516630a55d4748",
        "20d8e9b8e4a359220c1e3c5a92a292b113b9cf4eb7645bb01dddadeacd6718ae28ac",
        "c1d8e9b8e4a359220c1e3c5a92a292b113b9cf4eb7645bb01dddadeacd6718ae28"
      ],
      "is_coinbase": false,
      "sequence": 4294967293
    }
  ],
  "vout": [
    {
      "scriptpubkey": "512023455ccfe5c2b07d7fe7d8056448aaa950a306770f5dff7286cd27a7962ac090",
      "scriptpubkey_asm": "OP_PUSHNUM_1 OP_PUSHBYTES_32 23455ccfe5c2b07d7fe7d8056448aaa950a306770f5dff7286cd27a7962ac090",
      "scriptpubkey_type": "v1_p2tr",
      "scriptpubkey_address": "bc1pydz4enl9c2c86ll8mqzkgj9249g2xpnhpawl7u5xe5n60932czgq634pw7",
      "value": 2622
    },
    {
      "scriptpubkey": "51204094d2db211c5619cc127911560bea2b61ed62abf2a4d4aee15ced101d6328d8",
      "scriptpubkey_asm": "OP_PUSHNUM_1 OP_PUSHBYTES_32 4094d2db211c5619cc127911560bea2b61ed62abf2a4d4aee15ced101d6328d8",
      "scriptpubkey_type": "v1_p2tr",
      "scriptpubkey_address": "bc1pgz2d9kepr3tpnnqj0yg4vzl29ds76c4t72jdfthptnk3q8tr9rvqg8vcjn",
      "value": 2622
    },
    {
      "scriptpubkey": "512030714921b8642feab51d4a5fc88000479fe9cbb1d7da78019563a6a04729c89e",
      "scriptpubkey_asm": "OP_PUSHNUM_1 OP_PUSHBYTES_32 30714921b8642feab51d4a5fc88000479fe9cbb1d7da78019563a6a04729c89e",
      "scriptpubkey_type": "v1_p2tr",
      "scriptpubkey_address": "bc1pxpc5jgdcvsh74dgaff0u3qqqg707nja36ld8sqv4vwn2q3efez0qxrdft0",
      "value": 2622
    },
    {
      "scriptpubkey": "5120d93a92f62c87ce785c1f66276d433bff582b7b97dcaea8ae363b52577e3d5871",
      "scriptpubkey_asm": "OP_PUSHNUM_1 OP_PUSHBYTES_32 d93a92f62c87ce785c1f66276d433bff582b7b97dcaea8ae363b52577e3d5871",
      "scriptpubkey_type": "v1_p2tr",
      "scriptpubkey_address": "bc1pmyaf9a3vsl88shqlvcnk6semlavzk7uhmjh23t3k8df9wl3atpcs3fu50f",
      "value": 2622
    },
    {
      "scriptpubkey": "0014d9d200ae31c054a355cfc8fd0cceae82dd3dff78",
      "scriptpubkey_asm": "OP_0 OP_PUSHBYTES_20 d9d200ae31c054a355cfc8fd0cceae82dd3dff78",
      "scriptpubkey_type": "v0_p2wpkh",
      "scriptpubkey_address": "bc1qm8fqpt33cp22x4w0er7sen4wstwnmlmc6y0ccz",
      "value": 8434
    }
  ],
  "size": 391,
  "weight": 1153,
  "fee": 3078,
  "status": {
    "confirmed": true,
    "block_height": 834460,
    "block_hash": "00000000000000000000484a79b643b2524bbce82e5d8a442013fa5b8905ed98",
    "block_time": 1710307468
  },
  "hex": "02000000000101acf3d4ed06295584fd9a1daa7e4759e87283cf4ad13293ddb1d1632fd94309a20000000000fdffffff053e0a00000000000022512023455ccfe5c2b07d7fe7d8056448aaa950a306770f5dff7286cd27a7962ac0903e0a0000000000002251204094d2db211c5619cc127911560bea2b61ed62abf2a4d4aee15ced101d6328d83e0a00000000000022512030714921b8642feab51d4a5fc88000479fe9cbb1d7da78019563a6a04729c89e3e0a000000000000225120d93a92f62c87ce785c1f66276d433bff582b7b97dcaea8ae363b52577e3d5871f220000000000000160014d9d200ae31c054a355cfc8fd0cceae82dd3dff7803403cb6597695dac3932aea9ce2a2f7b765e5249f73ccb0faad35e70db814c8b4ab8a63af003a33f23a1fd6c16b6ad7eef018baf32ee66bb4a4ba516630a55d47482220d8e9b8e4a359220c1e3c5a92a292b113b9cf4eb7645bb01dddadeacd6718ae28ac21c1d8e9b8e4a359220c1e3c5a92a292b113b9cf4eb7645bb01dddadeacd6718ae2800000000"
}