{
  "txid": "60e41a641ccb5ea996b71d29c6c4ed83646050c3c5f2cd9dcf7dfeb50ba6ce96",
  "version": 2,
  "locktime": 834637,
  "vin": [
    {
      "txid": "52d01d06e6a011e86eea45e87e3f420ee7d693dba236f7d4e6272cb435ebf3b1",
      "vout": 1,
      "prevout": {
        "scriptpubkey": "0014965b2e2ac361285b2411f474b21e0626118a4f8a",
        "scriptpubkey_asm": "OP_0 OP_PUSHBYTES_20 965b2e2ac361285b2411f474b21e0626118a4f8a",
        "scriptpubkey_type": "v0_p2wpkh",
        "scriptpubkey_address": "bc1qjedju2krvy59kfq3736ty8sxycgc5nu2mseygh",
        "value": 5392702
      },
      "scriptsig": "",
      "scriptsig_asm": "",
      "witness": [
        "30440220030ce40450aec48c0347fbe6e2a8a34be8421c0a1c2ffec622d5be0afa5828f102206f5c1f31efa5fcd9d336764ead8048aa0e9272e882e30024958f6d7024039f3201",
        "020d0875189fa9212907e13b7cd7745ea5424fd5c0099a9c72eea6ddc77daffeef"
      ],
      "is_coinbase": false,
      "sequence": 4294967293
    }
  ],
  "vout": [
    {
      "scriptpubkey": "00149939fe56fd1d78a47bc30b616337978512fdeef9",
      "scriptpubkey_asm": "OP_0 OP_PUSHBYTES_20 9939fe56fd1d78a47bc30b616337978512fdeef9",
      "scriptpubkey_type": "v0_p2wpkh",
      "scriptpubkey_address": "bc1qnyulu4har4u2g77rpdskxduhs5f0mmhe7cvz2j",
      "value": 584615
    },
    {
      "scriptpubkey": "0014bd2590be28f5e509fdf6c3122b4796f3deda8434",
      "scriptpubkey_asm": "OP_0 OP_PUSHBYTES_20 bd2590be28f5e509fdf6c3122b4796f3deda8434",
      "scriptpubkey_type": "v0_p2wpkh",
      "scriptpubkey_address": "bc1qh5jep03g7hjsnl0kcvfzk3uk700d4pp5dcupwe",
      "value": 4804280
    }
  ],
  "size": 222,
  "weight": 561,
  "fee": 3807,
  "status": {
    "confirmed": true,
    "block_height": 834638,
    "block_hash": "000000000000000000025f742c626208ac87e0b7d15054abb4a19ca2d735a54e",
    "block_time": 1710405325
  },
  "hex": "02000000000101b1f3eb35b42c27e6d4f736a2db93d6e70e423f7ee845ea6ee811a0e6061dd0520100000000fdffffff02a7eb0800000000001600149939fe56fd1d78a47bc30b616337978512fdeef9b84e490000000000160014bd2590be28f5e509fdf6c3122b4796f3deda8434024730440220030ce40450aec48c0347fbe6e2a8a34be8421c0a1c2ffec622d5be0afa5828f102206f5c1f31efa5fcd9d336764ead8048aa0e9272e882e30024958f6d7024039f320121020d0875189fa9212907e13b7cd7745ea5424fd5c0099a9c72eea6ddc77daffeef4dbc0c00"
}