{
  "txid": "60fdcf3feb60c735c8381fb7b420c9b7d66408b91bd63c1e2b4015a436c731cb",
  "version": 2,
  "locktime": 0,
  "vin": [
    {
      "txid": "b61ccab364d11a7e4bcf38ceb4dc9aa33fa28311f53ef08ccce2015e4238ad52",
      "vout": 0,
      "prevout": {
        "scriptpubkey": "51209253312bcb4c9bcb77dc641b93e69a6d34d0cccb0d6f8bc73fb6f40e219afe4e",
        "scriptpubkey_asm": "OP_PUSHNUM_1 OP_PUSHBYTES_32 9253312bcb4c9bcb77dc641b93e69a6d34d0cccb0d6f8bc73fb6f40e219afe4e",
        "scriptpubkey_type": "v1_p2tr",
        "scriptpubkey_address": "bc1pjffnz27tfjduka7uvsde8e56d56dpnxtp4hch3elkm6qugv6le8qa7xth4",
        "value": 33567
      },
      "scriptsig": "",
      "scriptsig_asm": "",
      "witness": [
        "1bcfa12e9fddd1aa1fd710fad42c0b348cd06f50d8aa266f594eb1367115575a0ef10df0295b38896d2607730f166e06810a6b1dc74853a2a0c5310ae3162b82",
        "20f2d00e1cce0b839d2e197679cac7a15152ec244338032c7767f72c1332d49a65ac0063036f726401010d696d6167652f7376672b786d6c004d08023c7376672076696577426f783d223020302032342032342220786d6c6e733d22687474703a2f2f7777772e77332e6f72672f323030302f737667222073686170652d72656e646572696e673d226372697370456467657322207072657365727665417370656374526174696f3d22784d696e594d696e206d656574223e3c646566733e3c72616469616c4772616469656e742069643d2267223e3c73746f70206f66667365743d223525222073746f702d636f6c6f723d2223333861386232222f3e3c73746f70206f66667365743d22373025222073746f702d636f6c6f723d2223323537343732222f3e3c2f72616469616c4772616469656e743e3c2f646566733e3c636972636c652066696c6c3d2275726c282367292220723d223234222063783d223132222063793d223132222f3e3c706174682066696c6c3d22236631356635662220643d224d3920323456313548385631334837563748385636483130563134483131563135483132563136483135563138483133563139483132563234222f3e3c706174682066696c6c3d22236666383936662220643d224d313220313656313548313156313448313056364831355637483136563135483135563136222f3e3c706174682066696c6c3d22236666383936662220643d224d3132203234563139483133563138483137563139483138563234222f3e3c706174682066696c6c3d224d0802236666383936662220643d224d372032345631384839563234222f3e3c706174682066696c6c3d22236631356635662220643d224d362032345631394837563234222f3e3c706174682066696c6c3d22236666383936662220643d224d362031335631324837563133222f3e3c706174682066696c6c3d22233030303030302220643d224d38203656313548313056313648395631344836563133483756313248365631334835563131483756374839563548313556374831375631344831355631374831345631354831365636222f3e3c706174682066696c6c3d22236562306434652220643d224d3133203133563132483135563133222f3e3c706174682066696c6c3d22233030303030302220643d224d31302031364839563138483656323448355631394837563137483131563139483132563234483133563139483134563136483135563137483136563139483138563234483137563138483130222f3e3c706174682066696c6c3d22236666383232352220643d224d3132203232483131563231483130563230483956323148375632304838563139483130563138483131563139483132222f3e3c706174682066696c6c3d22236638346131352220643d224d362032315631394837563138483956313748313056313948385632304837563231222f3e3c706174682066696c6c3d22236666383232352220643d224d313520324d080232483133563139483137563231483135222f3e3c706174682066696c6c3d22233030303030302220643d224d382032345632314839563234222f3e3c706174682066696c6c3d22233030303030302220643d224d3135203234563231483136563234222f3e3c706174682066696c6c3d22236638346131352220643d224d31312032324839563230483130563231483131222f3e3c706174682066696c6c3d22236139616161392220643d224d31312032334839563232483131222f3e3c706174682066696c6c3d22236533653465332220643d224d3133203233563232483135563233222f3e3c706174682066696c6c3d22236638346131352220643d224d31312032344839563233483131222f3e3c706174682066696c6c3d22236638346131352220643d224d3136203139483134563138483136222f3e3c706174682066696c6c3d22236666383232352220643d224d3135203234483133563233483135222f3e3c706174682066696c6c3d22236139616161392220643d224d362032345632334837563234222f3e3c706174682066696c6c3d22236139616161392220643d224d362032325632314837563232222f3e3c706174682066696c6c3d22236533653465332220643d224d372032345632334838563234222f3e3c706174682066696c6c3d22236533653465332220643d224d3136203234563233483137563234222f3e3c704d08026174682066696c6c3d22236533653465332220643d224d372032325632314838563232222f3e3c706174682066696c6c3d22236533653465332220643d224d3136203232563231483137563232222f3e3c706174682066696c6c3d22236533653465332220643d224d3131203233563232483132563233222f3e3c706174682066696c6c3d22236638346131352220643d224d362032335632324837563233222f3e3c706174682066696c6c3d22236666383232352220643d224d3131203234563233483132563234222f3e3c706174682066696c6c3d22236666383232352220643d224d372032335632324838563233222f3e3c706174682066696c6c3d22236666383232352220643d224d3136203233563232483137563233222f3e3c706174682066696c6c3d22233030303030302220643d224d3132203131483130563130483132222f3e3c706174682066696c6c3d22233030303030302220643d224d3230203131483138563130483230222f3e3c706174682066696c6c3d222366666334646138322220643d224d3130203133563132483131563133222f3e3c706174682066696c6c3d22233030303030302220643d224d313120335635483956344838563848313656344831335633483134563548313556334831365632483137563948375632483856334831315632483130563448313256324831335633222f3e3c70617468204cae66696c6c3d22236662643130302220643d224d3920385635483131563448313256334831335638222f3e3c706174682066696c6c3d22236666653437352220643d224d31362038483133563448313456354831355634483136222f3e3c706174682066696c6c3d22236636623130302220643d224d382038563448395638222f3e3c706174682066696c6c3d22236636623130302220643d224d3130203456334831315634222f3e3c2f7376673e680063036f726401011e6170706c69636174696f6e2f6a736f6e3b636861727365743d7574662d38004d5d017b2270223a22766f7264222c2276223a312c227479223a22696e7363222c22636f6c223a2235353863346465613938363466656666636239313763316139343635663439623732316465623662346663653631313563363538313137613836336261663265222c22696964223a224e6572645065706573222c227075626c223a2231455337623370636a527a4667796969714c7278484b546e43686535364c4a485937222c226e6f6e6365223a323938342c226d696e746572223a226263317036756e3979386d7535737473367a3737686b6a32756632753361706c6b6a70373468716a66323635726b30366179327633726c73307172646672222c22736967223a2247327753506a79362f3241674e6755657169577571464d53526a397a57644f525858762b7a45654145686750573651435841784f61314f623554734a79634c57466f6761554552625a2b4443545a4354665473526264673d227d68",
        "c0f2d00e1cce0b839d2e197679cac7a15152ec244338032c7767f72c1332d49a65675a92934efa5e4869b2432a3e00abfc6819367af43949c2edc693b32d23ac05"
      ],
      "is_coinbase": false,
      "sequence": 4294967293
    }
  ],
  "vout": [
    {
      "scriptpubkey": "5120d726521f7ca4170d0bdebda4ae255c8f43fb483eadc124ab541d9fae914c88ff",
      "scriptpubkey_asm": "OP_PUSHNUM_1 OP_PUSHBYTES_32 d726521f7ca4170d0bdebda4ae255c8f43fb483eadc124ab541d9fae914c88ff",
      "scriptpubkey_type": "v1_p2tr",
      "scriptpubkey_address": "bc1p6un9y8mu5sts6z77hkj2uf2u3aplkjp74hqjf265rk06ay2v3rls0qrdfr",
      "value": 1000
    },
    {
      "scriptpubkey": "51202947132ac8e35e36d5613ed42fa0e93a15477f7abc04e9069bee42fa9dd1d90b",
      "scriptpubkey_asm": "OP_PUSHNUM_1 OP_PUSHBYTES_32 2947132ac8e35e36d5613ed42fa0e93a15477f7abc04e9069bee42fa9dd1d90b",
      "scriptpubkey_type": "v1_p2tr",
      "scriptpubkey_address": "bc1p99r3x2kgud0rd4tp8m2zlg8f8g25wlm6hszwjp5maep048w3my9s6z5zp8",
      "value": 19747
    },
    {
      "scriptpubkey": "51200705a5767db892e98125775049b1a13dd9ecdc8aea0df413cabbee683e871012",
      "scriptpubkey_asm": "OP_PUSHNUM_1 OP_PUSHBYTES_32 0705a5767db892e98125775049b1a13dd9ecdc8aea0df413cabbee683e871012",
      "scriptpubkey_type": "v1_p2tr",
      "scriptpubkey_address": "bc1pquz62anahzfwnqf9wagynvdp8hv7ehy2agxlgy72h0hxs058zqfqk8ksyq",
      "value": 2986
    }
  ],
  "size": 3036,
  "weight": 3576,
  "fee": 9834,
  "status": {
    "confirmed": true,
    "block_height": 834464,
    "block_hash": "0000000000000000000177a0869a911a2b65c9bdcd5a8bcb02b68f305bee848e",
    "block_time": 1710308296
  },
  "hex": "0200000000010152ad38425e01e2cc8cf03ef51183a23fa39adcb4ce38cf4b7e1ad164b3ca1cb60000000000fdffffff03e803000000000000225120d726521f7ca4170d0bdebda4ae255c8f43fb483eadc124ab541d9fae914c88ff234d0000000000002251202947132ac8e35e36d5613ed42fa0e93a15477f7abc04e9069bee42fa9dd1d90baa0b0000000000002251200705a5767db892e98125775049b1a13dd9ecdc8aea0df413cabbee683e87101203401bcfa12e9fddd1aa1fd710fad42c0b348cd06f50d8aa266f594eb1367115575a0ef10df0295b38896d2607730f166e06810a6b1dc74853a2a0c5310ae3162b82fd9f0a20f2d00e1cce0b839d2e197679cac7a15152ec244338032c7767f72c1332d49a65ac0063036f726401010d696d6167652f7376672b786d6c004d08023c7376672076696577426f783d223020302032342032342220786d6c6e733d22687474703a2f2f7777772e77332e6f72672f323030302f737667222073686170652d72656e646572696e673d226372697370456467657322207072657365727665417370656374526174696f3d22784d696e594d696e206d656574223e3c646566733e3c72616469616c4772616469656e742069643d2267223e3c73746f70206f66667365743d223525222073746f702d636f6c6f723d2223333861386232222f3e3c73746f70206f66667365743d22373025222073746f702d636f6c6f723d2223323537343732222f3e3c2f72616469616c4772616469656e743e3c2f646566733e3c636972636c652066696c6c3d2275726c282367292220723d223234222063783d223132222063793d223132222f3e3c706174682066696c6c3d22236631356635662220643d224d3920323456313548385631334837563748385636483130563134483131563135483132563136483135563138483133563139483132563234222f3e3c706174682066696c6c3d22236666383936662220643d224d313220313656313548313156313448313056364831355637483136563135483135563136222f3e3c706174682066696c6c3d22236666383936662220643d224d3132203234563139483133563138483137563139483138563234222f3e3c706174682066696c6c3d224d0802236666383936662220643d224d372032345631384839563234222f3e3c706174682066696c6c3d22236631356635662220643d224d362032345631394837563234222f3e3c706174682066696c6c3d22236666383936662220643d224d362031335631324837563133222f3e3c706174682066696c6c3d22233030303030302220643d224d38203656313548313056313648395631344836563133483756313248365631334835563131483756374839563548313556374831375631344831355631374831345631354831365636222f3e3c706174682066696c6c3d22236562306434652220643d224d3133203133563132483135563133222f3e3c706174682066696c6c3d22233030303030302220643d224d31302031364839563138483656323448355631394837563137483131563139483132563234483133563139483134563136483135563137483136563139483138563234483137563138483130222f3e3c706174682066696c6c3d22236666383232352220643d224d3132203232483131563231483130563230483956323148375632304838563139483130563138483131563139483132222f3e3c706174682066696c6c3d22236638346131352220643d224d362032315631394837563138483956313748313056313948385632304837563231222f3e3c706174682066696c6c3d22236666383232352220643d224d313520324d080232483133563139483137563231483135222f3e3c706174682066696c6c3d22233030303030302220643d224d382032345632314839563234222f3e3c706174682066696c6c3d22233030303030302220643d224d3135203234563231483136563234222f3e3c706174682066696c6c3d22236638346131352220643d224d31312032324839563230483130563231483131222f3e3c706174682066696c6c3d22236139616161392220643d224d31312032334839563232483131222f3e3c706174682066696c6c3d22236533653465332220643d224d3133203233563232483135563233222f3e3c706174682066696c6c3d22236638346131352220643d224d31312032344839563233483131222f3e3c706174682066696c6c3d22236638346131352220643d224d3136203139483134563138483136222f3e3c706174682066696c6c3d22236666383232352220643d224d3135203234483133563233483135222f3e3c706174682066696c6c3d22236139616161392220643d224d362032345632334837563234222f3e3c706174682066696c6c3d22236139616161392220643d224d362032325632314837563232222f3e3c706174682066696c6c3d22236533653465332220643d224d372032345632334838563234222f3e3c706174682066696c6c3d22236533653465332220643d224d3136203234563233483137563234222f3e3c704d08026174682066696c6c3d22236533653465332220643d224d372032325632314838563232222f3e3c706174682066696c6c3d22236533653465332220643d224d3136203232563231483137563232222f3e3c706174682066696c6c3d22236533653465332220643d224d3131203233563232483132563233222f3e3c706174682066696c6c3d22236638346131352220643d224d362032335632324837563233222f3e3c706174682066696c6c3d22236666383232352220643d224d3131203234563233483132563234222f3e3c706174682066696c6c3d22236666383232352220643d224d372032335632324838563233222f3e3c706174682066696c6c3d22236666383232352220643d224d3136203233563232483137563233222f3e3c706174682066696c6c3d22233030303030302220643d224d3132203131483130563130483132222f3e3c706174682066696c6c3d22233030303030302220643d224d3230203131483138563130483230222f3e3c706174682066696c6c3d222366666334646138322220643d224d3130203133563132483131563133222f3e3c706174682066696c6c3d22233030303030302220643d224d313120335635483956344838563848313656344831335633483134563548313556334831365632483137563948375632483856334831315632483130563448313256324831335633222f3e3c70617468204cae66696c6c3d22236662643130302220643d224d3920385635483131563448313256334831335638222f3e3c706174682066696c6c3d22236666653437352220643d224d31362038483133563448313456354831355634483136222f3e3c706174682066696c6c3d22236636623130302220643d224d382038563448395638222f3e3c706174682066696c6c3d22236636623130302220643d224d3130203456334831315634222f3e3c2f7376673e680063036f726401011e6170706c69636174696f6e2f6a736f6e3b636861727365743d7574662d38004d5d017b2270223a22766f7264222c2276223a312c227479223a22696e7363222c22636f6c223a2235353863346465613938363466656666636239313763316139343635663439623732316465623662346663653631313563363538313137613836336261663265222c22696964223a224e6572645065706573222c227075626c223a2231455337623370636a527a4667796969714c7278484b546e43686535364c4a485937222c226e6f6e6365223a323938342c226d696e746572223a226263317036756e3979386d7535737473367a3737686b6a32756632753361706c6b6a70373468716a66323635726b30366179327633726c73307172646672222c22736967223a2247327753506a79362f3241674e6755657169577571464d53526a397a57644f525858762b7a45654145686750573651435841784f61314f623554734a79634c57466f6761554552625a2b4443545a4354665473526264673d227d6841c0f2d00e1cce0b839d2e197679cac7a15152ec244338032c7767f72c1332d49a65675a92934efa5e4869b2432a3e00abfc6819367af43949c2edc693b32d23ac0500000000"
}