{
  "txid": "61502ca4e5f47e0af5cffe463fba0b2f30ba66df91b46b67f1528fc594abdc4e",
  "version": 2,
  "locktime": 0,
  "vin": [
    {
      "txid": "9746359c392adb16c662290c39590212d322d4a9576acc0bc46863213d8d7396",
      "vout": 1,
      "prevout": {
        "scriptpubkey": "0014dc1882e70c1c9614030f35d0bf09eb91d499ab0e",
        "scriptpubkey_asm": "OP_0 OP_PUSHBYTES_20 dc1882e70c1c9614030f35d0bf09eb91d499ab0e",
        "scriptpubkey_type": "v0_p2wpkh",
        "scriptpubkey_address": "bc1qmsvg9ecvrjtpgqc0xhgt7z0tj82fn2cwa20g4q",
        "value": 146477
      },
      "scriptsig": "",
      "scriptsig_asm": "",
      "witness": [
        "304402202d7f77242bda0118151bbaef3e130281e679f117ee211f4bf53ca14d3df44ff102204f4cc0de3cab8e01adbbffe0733c189a90a43f21e64eef47c01322769efdc8e001",
        "02c7e1d08349ee67345f28c7db937e0fd295da11cf5c89a2e88a646fd92ab35759"
      ],
      "is_coinbase": false,
      "sequence": 4294967293
    }
  ],
  "vout": [
    {
      "scriptpubkey": "0014dc1882e70c1c9614030f35d0bf09eb91d499ab0e",
      "scriptpubkey_asm": "OP_0 OP_PUSHBYTES_20 dc1882e70c1c9614030f35d0bf09eb91d499ab0e",
      "scriptpubkey_type": "v0_p2wpkh",
      "scriptpubkey_address": "bc1qmsvg9ecvrjtpgqc0xhgt7z0tj82fn2cwa20g4q",
      "value": 126620
    },
    {
      "scriptpubkey": "0014f93d8317970f9e1ec7cab8afaf38b7fc464c5c1e",
      "scriptpubkey_asm": "OP_0 OP_PUSHBYTES_20 f93d8317970f9e1ec7cab8afaf38b7fc464c5c1e",
      "scriptpubkey_type": "v0_p2wpkh",
      "scriptpubkey_address": "bc1qly7cx9uhp70pa372hzh67w9hl3rychq7c3fcp4",
      "value": 17932
    }
  ],
  "size": 222,
  "weight": 561,
  "fee": 1925,
  "status": {
    "confirmed": true,
    "block_height": 834460,
    "block_hash": "00000000000000000000484a79b643b2524bbce82e5d8a442013fa5b8905ed98",
    "block_time": 1710307468
  },
  "hex": "0200000000010196738d3d216368c40bcc6a57a9d422d3120259390c2962c616db2a399c3546970100000000fdffffff029cee010000000000160014dc1882e70c1c9614030f35d0bf09eb91d499ab0e0c46000000000000160014f93d8317970f9e1ec7cab8afaf38b7fc464c5c1e0247304402202d7f77242bda0118151bbaef3e130281e679f117ee211f4bf53ca14d3df44ff102204f4cc0de3cab8e01adbbffe0733c189a90a43f21e64eef47c01322769efdc8e0012102c7e1d08349ee67345f28c7db937e0fd295da11cf5c89a2e88a646fd92ab3575900000000"
}