{
  "txid": "616a3c7621e815d686d7e10c4c09e34b1a6381de3698e8582abf7a1c8194bf24",
  "version": 1,
  "locktime": 0,
  "vin": [
    {
      "txid": "30977ef44236df5e36e89d6f577ad555b7bde95bfee7a1fbd93bcc23c0421041",
      "vout": 13,
      "prevout": {
        "scriptpubkey": "001423717b0d4bbed669f4d732d6c1e0372651635ebe",
        "scriptpubkey_asm": "OP_0 OP_PUSHBYTES_20 23717b0d4bbed669f4d732d6c1e0372651635ebe",
        "scriptpubkey_type": "v0_p2wpkh",
        "scriptpubkey_address": "bc1qydchkr2thmtxnaxhxttvrcphyegkxh47vrpvtq",
        "value": 263000
      },
      "scriptsig": "",
      "scriptsig_asm": "",
      "witness": [
        "3044022002fe2c162116f590f90ef327ff42d6d946a9ca35891ce6ae280fc8ddff21362f022011e125b1e27a7aeddf878f923f5f4edc5727e04aabc7e88d078080dfee52af5a01",
        "03469e5424298c4bd86dd948b2a4fe9a265f5769807374f70763bd6a2360c2c1bf"
      ],
      "is_coinbase": false,
      "sequence": 4294967295
    }
  ],
  "vout": [
    {
      "scriptpubkey": "001453e77b50872d80e0b7714a0e8ec96dc9f7d4c770",
      "scriptpubkey_asm": "OP_0 OP_PUSHBYTES_20 53e77b50872d80e0b7714a0e8ec96dc9f7d4c770",
      "scriptpubkey_type": "v0_p2wpkh",
      "scriptpubkey_address": "bc1q20nhk5y89kqwpdm3fg8gajtde8maf3ms4uhcgz",
      "value": 261000
    }
  ],
  "size": 191,
  "weight": 437,
  "fee": 2000,
  "status": {
    "confirmed": true,
    "block_height": 834464,
    "block_hash": "0000000000000000000177a0869a911a2b65c9bdcd5a8bcb02b68f305bee848e",
    "block_time": 1710308296
  },
  "hex": "01000000000101411042c023cc3bd9fba1e7fe5be9bdb755d57a576f9de8365edf3642f47e97300d00000000ffffffff0188fb03000000000016001453e77b50872d80e0b7714a0e8ec96dc9f7d4c77002473044022002fe2c162116f590f90ef327ff42d6d946a9ca35891ce6ae280fc8ddff21362f022011e125b1e27a7aeddf878f923f5f4edc5727e04aabc7e88d078080dfee52af5a012103469e5424298c4bd86dd948b2a4fe9a265f5769807374f70763bd6a2360c2c1bf00000000"
}