{
  "txid": "617e5b9b772aa2cca910e0f7d71c68fa781ae5f6c87717d7ca0f51bcb8f06c67",
  "version": 1,
  "locktime": 0,
  "vin": [
    {
      "txid": "8accba81831effcc635949a9a48d0768236e904259cef52b82b9f4ba786d30ed",
      "vout": 0,
      "prevout": {
        "scriptpubkey": "a914e1beaa9889ac9867ec2ccaec760837c80dcbacb387",
        "scriptpubkey_asm": "OP_HASH160 OP_PUSHBYTES_20 e1beaa9889ac9867ec2ccaec760837c80dcbacb3 OP_EQUAL",
        "scriptpubkey_type": "p2sh",
        "scriptpubkey_address": "3NGeNSPnzS3Jt1ghDukZY6SQbXpYVCYNnd",
        "value": 40869657
      },
      "scriptsig": "00473044022055f53e92e273d1ece712531976a388fcd8bc7e3624f86aea40e4028757d0d1b302206d22a0ff7dd0795e43c9a2a9fc5d6467d76cf6e81df42ebe2d82105d3f2612260147304402202e0d351170021721de175804253c435f85fe018428d7b3b3f72c62436f845ea102206f1a858b28408623e7e19a62ad55b41b3677a825bfda4dd039973e36220808a8014c695221023d7d58a83b655617b571c1891db53642eb223164469f88b5a7ceaa7dffa0b0682103a553e30733d7a8df6d390d59cc136e2c9d9cf4e808f3b6ab009beae68dd60822210327bc7b5a44643a3225f4a0fde3d0c0becefaedf33952d0499b8da55e542f79a953ae",
      "scriptsig_asm": "OP_0 OP_PUSHBYTES_71 3044022055f53e92e273d1ece712531976a388fcd8bc7e3624f86aea40e4028757d0d1b302206d22a0ff7dd0795e43c9a2a9fc5d6467d76cf6e81df42ebe2d82105d3f26122601 OP_PUSHBYTES_71 304402202e0d351170021721de175804253c435f85fe018428d7b3b3f72c62436f845ea102206f1a858b28408623e7e19a62ad55b41b3677a825bfda4dd039973e36220808a801 OP_PUSHDATA1 5221023d7d58a83b655617b571c1891db53642eb223164469f88b5a7ceaa7dffa0b0682103a553e30733d7a8df6d390d59cc136e2c9d9cf4e808f3b6ab009beae68dd60822210327bc7b5a44643a3225f4a0fde3d0c0becefaedf33952d0499b8da55e542f79a953ae",
      "is_coinbase": false,
      "sequence": 4294967295,
      "inner_redeemscript_asm": "OP_PUSHNUM_2 OP_PUSHBYTES_33 023d7d58a83b655617b571c1891db53642eb223164469f88b5a7ceaa7dffa0b068 OP_PUSHBYTES_33 03a553e30733d7a8df6d390d59cc136e2c9d9cf4e808f3b6ab009beae68dd60822 OP_PUSHBYTES_33 0327bc7b5a44643a3225f4a0fde3d0c0becefaedf33952d0499b8da55e542f79a9 OP_PUSHNUM_3 OP_CHECKMULTISIG"
    },
    {
      "txid": "bbcd4342174a27f54320326ed1e6399d5fe8efd7408e6475684371b39484ef51",
      "vout": 0,
      "prevout": {
        "scriptpubkey": "a914e1beaa9889ac9867ec2ccaec760837c80dcbacb387",
        "scriptpubkey_asm": "OP_HASH160 OP_PUSHBYTES_20 e1beaa9889ac9867ec2ccaec760837c80dcbacb3 OP_EQUAL",
        "scriptpubkey_type": "p2sh",
        "scriptpubkey_address": "3NGeNSPnzS3Jt1ghDukZY6SQbXpYVCYNnd",
        "value": 1321723
      },
      "scriptsig": "0047304402205ad37fe989b4b5bd60859166c523b2e134444ff06de93f4f88039308555584ff02207003bda071485b3a8e3daff47bfb470b347a29968f1dd3a0d23e7053eb2736790147304402203485a8c6d45fb87bf3ea767c0fa089c82c95e169595b13ea46b9309bc66bf8a7022020156cb70498f92b70023c9c7d15d1321258208335557e2d8007e140f6befd35014c695221023d7d58a83b655617b571c1891db53642eb223164469f88b5a7ceaa7dffa0b0682103a553e30733d7a8df6d390d59cc136e2c9d9cf4e808f3b6ab009beae68dd60822210327bc7b5a44643a3225f4a0fde3d0c0becefaedf33952d0499b8da55e542f79a953ae",
      "scriptsig_asm": "OP_0 OP_PUSHBYTES_71 304402205ad37fe989b4b5bd60859166c523b2e134444ff06de93f4f88039308555584ff02207003bda071485b3a8e3daff47bfb470b347a29968f1dd3a0d23e7053eb27367901 OP_PUSHBYTES_71 304402203485a8c6d45fb87bf3ea767c0fa089c82c95e169595b13ea46b9309bc66bf8a7022020156cb70498f92b70023c9c7d15d1321258208335557e2d8007e140f6befd3501 OP_PUSHDATA1 5221023d7d58a83b655617b571c1891db53642eb223164469f88b5a7ceaa7dffa0b0682103a553e30733d7a8df6d390d59cc136e2c9d9cf4e808f3b6ab009beae68dd60822210327bc7b5a44643a3225f4a0fde3d0c0becefaedf33952d0499b8da55e542f79a953ae",
      "is_coinbase": false,
      "sequence": 4294967295,
      "inner_redeemscript_asm": "OP_PUSHNUM_2 OP_PUSHBYTES_33 023d7d58a83b655617b571c1891db53642eb223164469f88b5a7ceaa7dffa0b068 OP_PUSHBYTES_33 03a553e30733d7a8df6d390d59cc136e2c9d9cf4e808f3b6ab009beae68dd60822 OP_PUSHBYTES_33 0327bc7b5a44643a3225f4a0fde3d0c0becefaedf33952d0499b8da55e542f79a9 OP_PUSHNUM_3 OP_CHECKMULTISIG"
    }
  ],
  "vout": [
    {
      "scriptpubkey": "a914e1beaa9889ac9867ec2ccaec760837c80dcbacb387",
      "scriptpubkey_asm": "OP_HASH160 OP_PUSHBYTES_20 e1beaa9889ac9867ec2ccaec760837c80dcbacb3 OP_EQUAL",
      "scriptpubkey_type": "p2sh",
      "scriptpubkey_address": "3NGeNSPnzS3Jt1ghDukZY6SQbXpYVCYNnd",
      "value": 76663
    },
    {
      "scriptpubkey": "0014901c483c6d56f596e408305b073546208f724f02",
      "scriptpubkey_asm": "OP_0 OP_PUSHBYTES_20 901c483c6d56f596e408305b073546208f724f02",
      "scriptpubkey_type": "v0_p2wpkh",
      "scriptpubkey_address": "bc1qjqwys0rd2m6edeqgxpdswd2xyz8hynczuhgw8l",
      "value": 42100000
    }
  ],
  "size": 659,
  "weight": 2636,
  "fee": 14717,
  "status": {
    "confirmed": true,
    "block_height": 834638,
    "block_hash": "000000000000000000025f742c626208ac87e0b7d15054abb4a19ca2d735a54e",
    "block_time": 1710405325
  },
  "hex": "0100000002ed306d78baf4b9822bf5ce5942906e2368078da4a9495963ccff1e8381bacc8a00000000fc00473044022055f53e92e273d1ece712531976a388fcd8bc7e3624f86aea40e4028757d0d1b302206d22a0ff7dd0795e43c9a2a9fc5d6467d76cf6e81df42ebe2d82105d3f2612260147304402202e0d351170021721de175804253c435f85fe018428d7b3b3f72c62436f845ea102206f1a858b28408623e7e19a62ad55b41b3677a825bfda4dd039973e36220808a8014c695221023d7d58a83b655617b571c1891db53642eb223164469f88b5a7ceaa7dffa0b0682103a553e30733d7a8df6d390d59cc136e2c9d9cf4e808f3b6ab009beae68dd60822210327bc7b5a44643a3225f4a0fde3d0c0becefaedf33952d0499b8da55e542f79a953aeffffffff51ef8494b371436875648e40d7efe85f9d39e6d16e322043f5274a174243cdbb00000000fc0047304402205ad37fe989b4b5bd60859166c523b2e134444ff06de93f4f88039308555584ff02207003bda071485b3a8e3daff47bfb470b347a29968f1dd3a0d23e7053eb2736790147304402203485a8c6d45fb87bf3ea767c0fa089c82c95e169595b13ea46b9309bc66bf8a7022020156cb70498f92b70023c9c7d15d1321258208335557e2d8007e140f6befd35014c695221023d7d58a83b655617b571c1891db53642eb223164469f88b5a7ceaa7dffa0b0682103a553e30733d7a8df6d390d59cc136e2c9d9cf4e808f3b6ab009beae68dd60822210327bc7b5a44643a3225f4a0fde3d0c0becefaedf33952d0499b8da55e542f79a953aeffffffff02772b01000000000017a914e1beaa9889ac9867ec2ccaec760837c80dcbacb3872065820200000000160014901c483c6d56f596e408305b073546208f724f0200000000"
}