{
  "txid": "619c63ca08ec08a67f07cb572034b93056b6202173ef2595278f6d7cc945aba6",
  "version": 2,
  "locktime": 0,
  "vin": [
    {
      "txid": "97d5fecae0b7ee2ffc78a575a368e088955414d451a86956df9c57d7f64c3707",
      "vout": 127,
      "prevout": {
        "scriptpubkey": "5120e0e276889f967ae49f8145be790b8e9369782c9f4087761ba7d5598b4ada7748",
        "scriptpubkey_asm": "OP_PUSHNUM_1 OP_PUSHBYTES_32 e0e276889f967ae49f8145be790b8e9369782c9f4087761ba7d5598b4ada7748",
        "scriptpubkey_type": "v1_p2tr",
        "scriptpubkey_address": "bc1pur38dzyljeawf8upgkl8jzuwjd5hstylgzrhvxa864vckjk6wayq84lcem",
        "value": 600
      },
      "scriptsig": "",
      "scriptsig_asm": "",
      "witness": [
        "3183db4769a3ab21a963932ada197c689bb902a3a70eda43609fb5169a56de211328d62b383dad89f9967013d6577d69cbb9a3a9adb5eb87a211ec1342520527"
      ],
      "is_coinbase": false,
      "sequence": 4294967295
    },
    {
      "txid": "97d5fecae0b7ee2ffc78a575a368e088955414d451a86956df9c57d7f64c3707",
      "vout": 100,
      "prevout": {
        "scriptpubkey": "5120e0e276889f967ae49f8145be790b8e9369782c9f4087761ba7d5598b4ada7748",
        "scriptpubkey_asm": "OP_PUSHNUM_1 OP_PUSHBYTES_32 e0e276889f967ae49f8145be790b8e9369782c9f4087761ba7d5598b4ada7748",
        "scriptpubkey_type": "v1_p2tr",
        "scriptpubkey_address": "bc1pur38dzyljeawf8upgkl8jzuwjd5hstylgzrhvxa864vckjk6wayq84lcem",
        "value": 600
      },
      "scriptsig": "",
      "scriptsig_asm": "",
      "witness": [
        "183a2e9e7ae0451f19805ae20c4131a3b0d0e1f78a1913fc3e1470f0b9ef44c8e18b30352b2d3a3011a65a5095808b1699d4149a791654272031ab6e6d1ca4ef"
      ],
      "is_coinbase": false,
      "sequence": 4294967295
    },
    {
      "txid": "97d5fecae0b7ee2ffc78a575a368e088955414d451a86956df9c57d7f64c3707",
      "vout": 106,
      "prevout": {
        "scriptpubkey": "5120e0e276889f967ae49f8145be790b8e9369782c9f4087761ba7d5598b4ada7748",
        "scriptpubkey_asm": "OP_PUSHNUM_1 OP_PUSHBYTES_32 e0e276889f967ae49f8145be790b8e9369782c9f4087761ba7d5598b4ada7748",
        "scriptpubkey_type": "v1_p2tr",
        "scriptpubkey_address": "bc1pur38dzyljeawf8upgkl8jzuwjd5hstylgzrhvxa864vckjk6wayq84lcem",
        "value": 600
      },
      "scriptsig": "",
      "scriptsig_asm": "",
      "witness": [
        "3fc3e87ca83dce7418d0fa90ab9c7da2480ad1922ba304ee237914cc30cab388279b60b1bddd966c46eece413cfb33bf8eabd013bd606dd595c60eb99ac2f85f"
      ],
      "is_coinbase": false,
      "sequence": 4294967295
    },
    {
      "txid": "97d5fecae0b7ee2ffc78a575a368e088955414d451a86956df9c57d7f64c3707",
      "vout": 122,
      "prevout": {
        "scriptpubkey": "5120e0e276889f967ae49f8145be790b8e9369782c9f4087761ba7d5598b4ada7748",
        "scriptpubkey_asm": "OP_PUSHNUM_1 OP_PUSHBYTES_32 e0e276889f967ae49f8145be790b8e9369782c9f4087761ba7d5598b4ada7748",
        "scriptpubkey_type": "v1_p2tr",
        "scriptpubkey_address": "bc1pur38dzyljeawf8upgkl8jzuwjd5hstylgzrhvxa864vckjk6wayq84lcem",
        "value": 600
      },
      "scriptsig": "",
      "scriptsig_asm": "",
      "witness": [
        "4cfb91f6c4d9bd306291f08a16d2db84bb0aea79bb7314c7ebec1b152fb7051104ddef06fc2578b20b0966dfb14e0b4839fe2485eb9c011252fba1b86bf3d97f"
      ],
      "is_coinbase": false,
      "sequence": 4294967295
    },
    {
      "txid": "97d5fecae0b7ee2ffc78a575a368e088955414d451a86956df9c57d7f64c3707",
      "vout": 133,
      "prevout": {
        "scriptpubkey": "5120e0e276889f967ae49f8145be790b8e9369782c9f4087761ba7d5598b4ada7748",
        "scriptpubkey_asm": "OP_PUSHNUM_1 OP_PUSHBYTES_32 e0e276889f967ae49f8145be790b8e9369782c9f4087761ba7d5598b4ada7748",
        "scriptpubkey_type": "v1_p2tr",
        "scriptpubkey_address": "bc1pur38dzyljeawf8upgkl8jzuwjd5hstylgzrhvxa864vckjk6wayq84lcem",
        "value": 600
      },
      "scriptsig": "",
      "scriptsig_asm": "",
      "witness": [
        "4b26831f0966d08e41243b04e7f1e1bf1ae89615cbc8b9a59d3e8ac100ac1ebd6e37b41d7f4ef922e60d5eeb0a968d945d80137620d89d561f84cd5a4aeab2b6"
      ],
      "is_coinbase": false,
      "sequence": 4294967295
    },
    {
      "txid": "97d5fecae0b7ee2ffc78a575a368e088955414d451a86956df9c57d7f64c3707",
      "vout": 131,
      "prevout": {
        "scriptpubkey": "5120e0e276889f967ae49f8145be790b8e9369782c9f4087761ba7d5598b4ada7748",
        "scriptpubkey_asm": "OP_PUSHNUM_1 OP_PUSHBYTES_32 e0e276889f967ae49f8145be790b8e9369782c9f4087761ba7d5598b4ada7748",
        "scriptpubkey_type": "v1_p2tr",
        "scriptpubkey_address": "bc1pur38dzyljeawf8upgkl8jzuwjd5hstylgzrhvxa864vckjk6wayq84lcem",
        "value": 600
      },
      "scriptsig": "",
      "scriptsig_asm": "",
      "witness": [
        "3487a0ec164c206c24102cf00b3a2b2391ac90d7a43c82dfafb3eec554629c179a8570caaad7fe7fab5c28bee2115c7259c352ff7aaee6dd04464a61e245be6f"
      ],
      "is_coinbase": false,
      "sequence": 4294967295
    },
    {
      "txid": "13d4dfc58b5c547d6117500840a14740b729710ee80cc3bd94dcbb4735ecee4c",
      "vout": 14,
      "prevout": {
        "scriptpubkey": "5120e0e276889f967ae49f8145be790b8e9369782c9f4087761ba7d5598b4ada7748",
        "scriptpubkey_asm": "OP_PUSHNUM_1 OP_PUSHBYTES_32 e0e276889f967ae49f8145be790b8e9369782c9f4087761ba7d5598b4ada7748",
        "scriptpubkey_type": "v1_p2tr",
        "scriptpubkey_address": "bc1pur38dzyljeawf8upgkl8jzuwjd5hstylgzrhvxa864vckjk6wayq84lcem",
        "value": 600
      },
      "scriptsig": "",
      "scriptsig_asm": "",
      "witness": [
        "06eb181681fed0aeba6af3cddd4457c60c8ba441965c69042e49d2a708d7aad250d43e66ca89d60f08dcade4d22eb0e1f10155564de56ac159b3915c841fd9b4"
      ],
      "is_coinbase": false,
      "sequence": 4294967295
    },
    {
      "txid": "97d5fecae0b7ee2ffc78a575a368e088955414d451a86956df9c57d7f64c3707",
      "vout": 105,
      "prevout": {
        "scriptpubkey": "5120e0e276889f967ae49f8145be790b8e9369782c9f4087761ba7d5598b4ada7748",
        "scriptpubkey_asm": "OP_PUSHNUM_1 OP_PUSHBYTES_32 e0e276889f967ae49f8145be790b8e9369782c9f4087761ba7d5598b4ada7748",
        "scriptpubkey_type": "v1_p2tr",
        "scriptpubkey_address": "bc1pur38dzyljeawf8upgkl8jzuwjd5hstylgzrhvxa864vckjk6wayq84lcem",
        "value": 600
      },
      "scriptsig": "",
      "scriptsig_asm": "",
      "witness": [
        "87b20522ea7a40d75b706ef7831599ae2aa919a4dd2337d9b07e763e1175b7b555d46562744f90bb4f0e485efce2d36acc8a3b0ce349f1c9795a14c7693b727a"
      ],
      "is_coinbase": false,
      "sequence": 4294967295
    },
    {
      "txid": "97d5fecae0b7ee2ffc78a575a368e088955414d451a86956df9c57d7f64c3707",
      "vout": 149,
      "prevout": {
        "scriptpubkey": "5120e0e276889f967ae49f8145be790b8e9369782c9f4087761ba7d5598b4ada7748",
        "scriptpubkey_asm": "OP_PUSHNUM_1 OP_PUSHBYTES_32 e0e276889f967ae49f8145be790b8e9369782c9f4087761ba7d5598b4ada7748",
        "scriptpubkey_type": "v1_p2tr",
        "scriptpubkey_address": "bc1pur38dzyljeawf8upgkl8jzuwjd5hstylgzrhvxa864vckjk6wayq84lcem",
        "value": 600
      },
      "scriptsig": "",
      "scriptsig_asm": "",
      "witness": [
        "a45d28cf4c1dc00a0fd1d865a9d02ba63922394cb55df09448c1480081b11caffaa9100e4ca7897ddbdfbf434fc97ca4aa556f1011296952d50cc90fa289881e"
      ],
      "is_coinbase": false,
      "sequence": 4294967295
    },
    {
      "txid": "97d5fecae0b7ee2ffc78a575a368e088955414d451a86956df9c57d7f64c3707",
      "vout": 123,
      "prevout": {
        "scriptpubkey": "5120e0e276889f967ae49f8145be790b8e9369782c9f4087761ba7d5598b4ada7748",
        "scriptpubkey_asm": "OP_PUSHNUM_1 OP_PUSHBYTES_32 e0e276889f967ae49f8145be790b8e9369782c9f4087761ba7d5598b4ada7748",
        "scriptpubkey_type": "v1_p2tr",
        "scriptpubkey_address": "bc1pur38dzyljeawf8upgkl8jzuwjd5hstylgzrhvxa864vckjk6wayq84lcem",
        "value": 600
      },
      "scriptsig": "",
      "scriptsig_asm": "",
      "witness": [
        "fd55d49f8b0d95a9430ecf9030754123389abf7b99d102c513dada953849c289d02828f8383a755fff28c179b27c038a8bcb20b5ffca8455ae8df33953c5e0fb"
      ],
      "is_coinbase": false,
      "sequence": 4294967295
    },
    {
      "txid": "71e49161dad379c2bdc46c3071ae307951ccf6e83cb2466a5ef54de5dc660699",
      "vout": 1,
      "prevout": {
        "scriptpubkey": "0014fac7286aca1e5611308c1658fc20f84945a2a7e1",
        "scriptpubkey_asm": "OP_0 OP_PUSHBYTES_20 fac7286aca1e5611308c1658fc20f84945a2a7e1",
        "scriptpubkey_type": "v0_p2wpkh",
        "scriptpubkey_address": "bc1qltrjs6k2retpzvyvzev0cg8cf9z69flp8hk8pg",
        "value": 546
      },
      "scriptsig": "",
      "scriptsig_asm": "",
      "witness": [
        "30440220304827f676c501eb0b3a040d28730a75fadabed791aa50c3685517ef7cde9373022050f8c1f94a6ed62da03088371c4c4db3567ac9d8e16591f870c20255c5387dae83",
        "0238c4bd33fd8bfaa9d61ee6ebe79017238bb6d6ed1d6acc573adfb3f59a6589e4"
      ],
      "is_coinbase": false,
      "sequence": 4294967295
    },
    {
      "txid": "e157c154afb30b778f33b70fe800881ad276b098d0a0a871de8ece890f83f3b5",
      "vout": 1,
      "prevout": {
        "scriptpubkey": "0014d2dac3509c4f0a4a9ee55fa8caf872d0cfcdada0",
        "scriptpubkey_asm": "OP_0 OP_PUSHBYTES_20 d2dac3509c4f0a4a9ee55fa8caf872d0cfcdada0",
        "scriptpubkey_type": "v0_p2wpkh",
        "scriptpubkey_address": "bc1q6tdvx5yufu9y48h9t75v47rj6r8umtdqfzd6c9",
        "value": 546
      },
      "scriptsig": "",
      "scriptsig_asm": "",
      "witness": [
        "3045022100a397ae991fb77c62c5654d1753fec742cefc03cd0c0a854630306a1a740ddee302203b67c767ecbc9f4de301297ca6f53ddf0278cc972d4b54af34ffc6206fb8bf0883",
        "02ed0acc3bed2d1ce3dc6ca9a27e0a9338b1576d10cf154e9e3976eb20ce577932"
      ],
      "is_coinbase": false,
      "sequence": 4294967295
    },
    {
      "txid": "7ca8f98153bd4a806f1a276933ab01b02f38bbeb75d8ada25bc539792e83bb8d",
      "vout": 1,
      "prevout": {
        "scriptpubkey": "512099e78c29852471e64c1b18109d404ecbffbda8475fba5c0b836b6fd2b127ff1c",
        "scriptpubkey_asm": "OP_PUSHNUM_1 OP_PUSHBYTES_32 99e78c29852471e64c1b18109d404ecbffbda8475fba5c0b836b6fd2b127ff1c",
        "scriptpubkey_type": "v1_p2tr",
        "scriptpubkey_address": "bc1pn8ncc2v9y3c7vnqmrqgf6szwe0lmm2z8t7a9czurddha9vf8luwqdz7lqv",
        "value": 546
      },
      "scriptsig": "",
      "scriptsig_asm": "",
      "witness": [
        "0f03fead2004629e2ad1ea6e6a436aeae675319bbe34d6eecf9fda1f926688697d32d1042848a68e478f104fdef8463e5a578f4e6fee119d1e095bf480a6674b83"
      ],
      "is_coinbase": false,
      "sequence": 4294967295
    },
    {
      "txid": "396eb00d2c165f8f89563c35c3f02c9edb54d09f8e4a64b4ee5874ef63a178cb",
      "vout": 1,
      "prevout": {
        "scriptpubkey": "5120cf7493258ca569d48a6f5d7d53e6fb1fec953a7d73dfed6593a2f3dd0c68d899",
        "scriptpubkey_asm": "OP_PUSHNUM_1 OP_PUSHBYTES_32 cf7493258ca569d48a6f5d7d53e6fb1fec953a7d73dfed6593a2f3dd0c68d899",
        "scriptpubkey_type": "v1_p2tr",
        "scriptpubkey_address": "bc1pea6fxfvv545afzn0t4748ehmrlkf2wnaw0076evn5tea6rrgmzvs96v7fg",
        "value": 546
      },
      "scriptsig": "",
      "scriptsig_asm": "",
      "witness": [
        "e3bf60b1eee44306678d37299c2a417e2d9e1f5f1a0b8f3767953ed655330a18c6757bdedbcb0988b546ab996e2d9fee6cfb72565ed8f038ab37c41d321fa25983"
      ],
      "is_coinbase": false,
      "sequence": 4294967295
    },
    {
      "txid": "998af9b47ddfdd559e1cc0b6fa1d712a4f1b268834aa6a5844aa3c8f09dddd82",
      "vout": 1,
      "prevout": {
        "scriptpubkey": "51209fdc4b6224c5e418a5245c71da97641c97ef6ab6662db48ea55af1c7155529a9",
        "scriptpubkey_asm": "OP_PUSHNUM_1 OP_PUSHBYTES_32 9fdc4b6224c5e418a5245c71da97641c97ef6ab6662db48ea55af1c7155529a9",
        "scriptpubkey_type": "v1_p2tr",
        "scriptpubkey_address": "bc1pnlwykc3ychjp3ffyt3ca49myrjt7764kvckmfr49ttcuw9249x5s8wgm0p",
        "value": 546
      },
      "scriptsig": "",
      "scriptsig_asm": "",
      "witness": [
        "f6f4fd033ac5e7b9e73068bd15fe58e6a8f16dfa9ce3d33e4b9fb86c4dd21e0edcf4244074ece800b03bb5ad01edd4012c3dd2bc60712ba0d243df1c1536f41a83"
      ],
      "is_coinbase": false,
      "sequence": 4294967295
    },
    {
      "txid": "ec19588ecd38f4d8027a47597a321356e050f6f728989646910561a45927cd67",
      "vout": 1,
      "prevout": {
        "scriptpubkey": "512091fadc1b06782790ef76cdba845019974f6d803b787e225f61652d6fb1968f5f",
        "scriptpubkey_asm": "OP_PUSHNUM_1 OP_PUSHBYTES_32 91fadc1b06782790ef76cdba845019974f6d803b787e225f61652d6fb1968f5f",
        "scriptpubkey_type": "v1_p2tr",
        "scriptpubkey_address": "bc1pj8adcxcx0qnepmmkekagg5qeja8kmqpm0plzyhmpv5kklvvk3a0ss6z0g3",
        "value": 546
      },
      "scriptsig": "",
      "scriptsig_asm": "",
      "witness": [
        "af5f7a2305df5b4444c914870f752d11bdeb98342bb247e470c1a6f0c347260ad361561f608139727aa207acbe611e35ce9772ff3c8f2d0f89ab385c919c584d83"
      ],
      "is_coinbase": false,
      "sequence": 4294967295
    },
    {
      "txid": "52c84abb35d2f2693592e357bfcca68908287f728db7b8e5aa18a7b0302c92c4",
      "vout": 1,
      "prevout": {
        "scriptpubkey": "51200731361c2a16ecc0b212d650887eb1062627bb2a3aef6ce4161201946659cb57",
        "scriptpubkey_asm": "OP_PUSHNUM_1 OP_PUSHBYTES_32 0731361c2a16ecc0b212d650887eb1062627bb2a3aef6ce4161201946659cb57",
        "scriptpubkey_type": "v1_p2tr",
        "scriptpubkey_address": "bc1pqucnv8p2zmkvpvsj6eggsl43qcnz0we28thkeeqkzgqegejeedtsry02nv",
        "value": 546
      },
      "scriptsig": "",
      "scriptsig_asm": "",
      "witness": [
        "77633d3e185b8ef4d39a0236fe23bac7ab9faecb44dbd68494f65aa0f708573556e983996767848e6c0d853c3c35fa5156a322bd761f2580de23eb5a2848dec683"
      ],
      "is_coinbase": false,
      "sequence": 4294967295
    },
    {
      "txid": "06ef85f41877519b8da384490081f59f35d17afba35183f41114a5c2d9fa7b6c",
      "vout": 1,
      "prevout": {
        "scriptpubkey": "5120b5a7157474b11e6abfff34dde6e5db408437d1465e45158183246f129fad3284",
        "scriptpubkey_asm": "OP_PUSHNUM_1 OP_PUSHBYTES_32 b5a7157474b11e6abfff34dde6e5db408437d1465e45158183246f129fad3284",
        "scriptpubkey_type": "v1_p2tr",
        "scriptpubkey_address": "bc1pkkn32ar5ky0x40llxnw7dewmgzzr052xtez3tqvry3h398adx2zqzxllct",
        "value": 546
      },
      "scriptsig": "",
      "scriptsig_asm": "",
      "witness": [
        "0fc527f27da7b00407d809fb0c81cd11dea0b858b432d8940a42b21241e15994fb459e3d4f88e22a6e24498d4f1ae0d86a8d356d962c99fc6a80a8568d28003183"
      ],
      "is_coinbase": false,
      "sequence": 4294967295
    },
    {
      "txid": "c7c589af9d8874c047da3ce2ae755476f14fc6983041639c5444e766ecd20a8f",
      "vout": 1,
      "prevout": {
        "scriptpubkey": "51200731361c2a16ecc0b212d650887eb1062627bb2a3aef6ce4161201946659cb57",
        "scriptpubkey_asm": "OP_PUSHNUM_1 OP_PUSHBYTES_32 0731361c2a16ecc0b212d650887eb1062627bb2a3aef6ce4161201946659cb57",
        "scriptpubkey_type": "v1_p2tr",
        "scriptpubkey_address": "bc1pqucnv8p2zmkvpvsj6eggsl43qcnz0we28thkeeqkzgqegejeedtsry02nv",
        "value": 546
      },
      "scriptsig": "",
      "scriptsig_asm": "",
      "witness": [
        "717c9b3294ddb7d208d13ef1e19da3263f3ac0535b60de73f57123b0e685dda8b6ba2b901c01652b14b52eab04b770828241756f38d384ed680ef6f12a78eedf83"
      ],
      "is_coinbase": false,
      "sequence": 4294967295
    },
    {
      "txid": "13d4dfc58b5c547d6117500840a14740b729710ee80cc3bd94dcbb4735ecee4c",
      "vout": 18,
      "prevout": {
        "scriptpubkey": "5120e0e276889f967ae49f8145be790b8e9369782c9f4087761ba7d5598b4ada7748",
        "scriptpubkey_asm": "OP_PUSHNUM_1 OP_PUSHBYTES_32 e0e276889f967ae49f8145be790b8e9369782c9f4087761ba7d5598b4ada7748",
        "scriptpubkey_type": "v1_p2tr",
        "scriptpubkey_address": "bc1pur38dzyljeawf8upgkl8jzuwjd5hstylgzrhvxa864vckjk6wayq84lcem",
        "value": 34993280
      },
      "scriptsig": "",
      "scriptsig_asm": "",
      "witness": [
        "739bf891442db348d74e33b8eac289eadedb13804611623708298a75e1169c50f84d75cbb8089bc04cacb47f02dc1a70541c520d2f3fd30fd7c71335f83ba812"
      ],
      "is_coinbase": false,
      "sequence": 4294967295
    }
  ],
  "vout": [
    {
      "scriptpubkey": "5120e0e276889f967ae49f8145be790b8e9369782c9f4087761ba7d5598b4ada7748",
      "scriptpubkey_asm": "OP_PUSHNUM_1 OP_PUSHBYTES_32 e0e276889f967ae49f8145be790b8e9369782c9f4087761ba7d5598b4ada7748",
      "scriptpubkey_type": "v1_p2tr",
      "scriptpubkey_address": "bc1pur38dzyljeawf8upgkl8jzuwjd5hstylgzrhvxa864vckjk6wayq84lcem",
      "value": 6000
    },
    {
      "scriptpubkey": "5120e0e276889f967ae49f8145be790b8e9369782c9f4087761ba7d5598b4ada7748",
      "scriptpubkey_asm": "OP_PUSHNUM_1 OP_PUSHBYTES_32 e0e276889f967ae49f8145be790b8e9369782c9f4087761ba7d5598b4ada7748",
      "scriptpubkey_type": "v1_p2tr",
      "scriptpubkey_address": "bc1pur38dzyljeawf8upgkl8jzuwjd5hstylgzrhvxa864vckjk6wayq84lcem",
      "value": 546
    },
    {
      "scriptpubkey": "5120e0e276889f967ae49f8145be790b8e9369782c9f4087761ba7d5598b4ada7748",
      "scriptpubkey_asm": "OP_PUSHNUM_1 OP_PUSHBYTES_32 e0e276889f967ae49f8145be790b8e9369782c9f4087761ba7d5598b4ada7748",
      "scriptpubkey_type": "v1_p2tr",
      "scriptpubkey_address": "bc1pur38dzyljeawf8upgkl8jzuwjd5hstylgzrhvxa864vckjk6wayq84lcem",
      "value": 546
    },
    {
      "scriptpubkey": "5120e0e276889f967ae49f8145be790b8e9369782c9f4087761ba7d5598b4ada7748",
      "scriptpubkey_asm": "OP_PUSHNUM_1 OP_PUSHBYTES_32 e0e276889f967ae49f8145be790b8e9369782c9f4087761ba7d5598b4ada7748",
      "scriptpubkey_type": "v1_p2tr",
      "scriptpubkey_address": "bc1pur38dzyljeawf8upgkl8jzuwjd5hstylgzrhvxa864vckjk6wayq84lcem",
      "value": 546
    },
    {
      "scriptpubkey": "5120e0e276889f967ae49f8145be790b8e9369782c9f4087761ba7d5598b4ada7748",
      "scriptpubkey_asm": "OP_PUSHNUM_1 OP_PUSHBYTES_32 e0e276889f967ae49f8145be790b8e9369782c9f4087761ba7d5598b4ada7748",
      "scriptpubkey_type": "v1_p2tr",
      "scriptpubkey_address": "bc1pur38dzyljeawf8upgkl8jzuwjd5hstylgzrhvxa864vckjk6wayq84lcem",
      "value": 546
    },
    {
      "scriptpubkey": "5120e0e276889f967ae49f8145be790b8e9369782c9f4087761ba7d5598b4ada7748",
      "scriptpubkey_asm": "OP_PUSHNUM_1 OP_PUSHBYTES_32 e0e276889f967ae49f8145be790b8e9369782c9f4087761ba7d5598b4ada7748",
      "scriptpubkey_type": "v1_p2tr",
      "scriptpubkey_address": "bc1pur38dzyljeawf8upgkl8jzuwjd5hstylgzrhvxa864vckjk6wayq84lcem",
      "value": 546
    },
    {
      "scriptpubkey": "5120e0e276889f967ae49f8145be790b8e9369782c9f4087761ba7d5598b4ada7748",
      "scriptpubkey_asm": "OP_PUSHNUM_1 OP_PUSHBYTES_32 e0e276889f967ae49f8145be790b8e9369782c9f4087761ba7d5598b4ada7748",
      "scriptpubkey_type": "v1_p2tr",
      "scriptpubkey_address": "bc1pur38dzyljeawf8upgkl8jzuwjd5hstylgzrhvxa864vckjk6wayq84lcem",
      "value": 546
    },
    {
      "scriptpubkey": "5120e0e276889f967ae49f8145be790b8e9369782c9f4087761ba7d5598b4ada7748",
      "scriptpubkey_asm": "OP_PUSHNUM_1 OP_PUSHBYTES_32 e0e276889f967ae49f8145be790b8e9369782c9f4087761ba7d5598b4ada7748",
      "scriptpubkey_type": "v1_p2tr",
      "scriptpubkey_address": "bc1pur38dzyljeawf8upgkl8jzuwjd5hstylgzrhvxa864vckjk6wayq84lcem",
      "value": 546
    },
    {
      "scriptpubkey": "5120e0e276889f967ae49f8145be790b8e9369782c9f4087761ba7d5598b4ada7748",
      "scriptpubkey_asm": "OP_PUSHNUM_1 OP_PUSHBYTES_32 e0e276889f967ae49f8145be790b8e9369782c9f4087761ba7d5598b4ada7748",
      "scriptpubkey_type": "v1_p2tr",
      "scriptpubkey_address": "bc1pur38dzyljeawf8upgkl8jzuwjd5hstylgzrhvxa864vckjk6wayq84lcem",
      "value": 546
    },
    {
      "scriptpubkey": "5120e0e276889f967ae49f8145be790b8e9369782c9f4087761ba7d5598b4ada7748",
      "scriptpubkey_asm": "OP_PUSHNUM_1 OP_PUSHBYTES_32 e0e276889f967ae49f8145be790b8e9369782c9f4087761ba7d5598b4ada7748",
      "scriptpubkey_type": "v1_p2tr",
      "scriptpubkey_address": "bc1pur38dzyljeawf8upgkl8jzuwjd5hstylgzrhvxa864vckjk6wayq84lcem",
      "value": 546
    },
    {
      "scriptpubkey": "0014fac7286aca1e5611308c1658fc20f84945a2a7e1",
      "scriptpubkey_asm": "OP_0 OP_PUSHBYTES_20 fac7286aca1e5611308c1658fc20f84945a2a7e1",
      "scriptpubkey_type": "v0_p2wpkh",
      "scriptpubkey_address": "bc1qltrjs6k2retpzvyvzev0cg8cf9z69flp8hk8pg",
      "value": 386606
    },
    {
      "scriptpubkey": "0014d2dac3509c4f0a4a9ee55fa8caf872d0cfcdada0",
      "scriptpubkey_asm": "OP_0 OP_PUSHBYTES_20 d2dac3509c4f0a4a9ee55fa8caf872d0cfcdada0",
      "scriptpubkey_type": "v0_p2wpkh",
      "scriptpubkey_address": "bc1q6tdvx5yufu9y48h9t75v47rj6r8umtdqfzd6c9",
      "value": 394566
    },
    {
      "scriptpubkey": "512099e78c29852471e64c1b18109d404ecbffbda8475fba5c0b836b6fd2b127ff1c",
      "scriptpubkey_asm": "OP_PUSHNUM_1 OP_PUSHBYTES_32 99e78c29852471e64c1b18109d404ecbffbda8475fba5c0b836b6fd2b127ff1c",
      "scriptpubkey_type": "v1_p2tr",
      "scriptpubkey_address": "bc1pn8ncc2v9y3c7vnqmrqgf6szwe0lmm2z8t7a9czurddha9vf8luwqdz7lqv",
      "value": 547796
    },
    {
      "scriptpubkey": "a91444cea8dcf1d9a4e293719e16eacda6a98cd93d0a87",
      "scriptpubkey_asm": "OP_HASH160 OP_PUSHBYTES_20 44cea8dcf1d9a4e293719e16eacda6a98cd93d0a OP_EQUAL",
      "scriptpubkey_type": "p2sh",
      "scriptpubkey_address": "37xqSYswjFK6ogVSHeNvZCeSttxCT6Yyz4",
      "value": 537846
    },
    {
      "scriptpubkey": "51209fdc4b6224c5e418a5245c71da97641c97ef6ab6662db48ea55af1c7155529a9",
      "scriptpubkey_asm": "OP_PUSHNUM_1 OP_PUSHBYTES_32 9fdc4b6224c5e418a5245c71da97641c97ef6ab6662db48ea55af1c7155529a9",
      "scriptpubkey_type": "v1_p2tr",
      "scriptpubkey_address": "bc1pnlwykc3ychjp3ffyt3ca49myrjt7764kvckmfr49ttcuw9249x5s8wgm0p",
      "value": 585606
    },
    {
      "scriptpubkey": "a914b09182b4f234d1ac50b4734124efc1f777b3308f87",
      "scriptpubkey_asm": "OP_HASH160 OP_PUSHBYTES_20 b09182b4f234d1ac50b4734124efc1f777b3308f OP_EQUAL",
      "scriptpubkey_type": "p2sh",
      "scriptpubkey_address": "3HndAZJhCfxxtLzj5vMLwfq8A3JyCFRK9c",
      "value": 594462
    },
    {
      "scriptpubkey": "51200731361c2a16ecc0b212d650887eb1062627bb2a3aef6ce4161201946659cb57",
      "scriptpubkey_asm": "OP_PUSHNUM_1 OP_PUSHBYTES_32 0731361c2a16ecc0b212d650887eb1062627bb2a3aef6ce4161201946659cb57",
      "scriptpubkey_type": "v1_p2tr",
      "scriptpubkey_address": "bc1pqucnv8p2zmkvpvsj6eggsl43qcnz0we28thkeeqkzgqegejeedtsry02nv",
      "value": 637346
    },
    {
      "scriptpubkey": "5120b5a7157474b11e6abfff34dde6e5db408437d1465e45158183246f129fad3284",
      "scriptpubkey_asm": "OP_PUSHNUM_1 OP_PUSHBYTES_32 b5a7157474b11e6abfff34dde6e5db408437d1465e45158183246f129fad3284",
      "scriptpubkey_type": "v1_p2tr",
      "scriptpubkey_address": "bc1pkkn32ar5ky0x40llxnw7dewmgzzr052xtez3tqvry3h398adx2zqzxllct",
      "value": 597546
    },
    {
      "scriptpubkey": "51200731361c2a16ecc0b212d650887eb1062627bb2a3aef6ce4161201946659cb57",
      "scriptpubkey_asm": "OP_PUSHNUM_1 OP_PUSHBYTES_32 0731361c2a16ecc0b212d650887eb1062627bb2a3aef6ce4161201946659cb57",
      "scriptpubkey_type": "v1_p2tr",
      "scriptpubkey_address": "bc1pqucnv8p2zmkvpvsj6eggsl43qcnz0we28thkeeqkzgqegejeedtsry02nv",
      "value": 687096
    },
    {
      "scriptpubkey": "a914ea6b832a05c6ca578baa3836f3f25553d41068a587",
      "scriptpubkey_asm": "OP_HASH160 OP_PUSHBYTES_20 ea6b832a05c6ca578baa3836f3f25553d41068a5 OP_EQUAL",
      "scriptpubkey_type": "p2sh",
      "scriptpubkey_address": "3P4WqXDbSLRhzo2H6MT6YFbvBKBDPLbVtQ",
      "value": 124722
    },
    {
      "scriptpubkey": "5120e0e276889f967ae49f8145be790b8e9369782c9f4087761ba7d5598b4ada7748",
      "scriptpubkey_asm": "OP_PUSHNUM_1 OP_PUSHBYTES_32 e0e276889f967ae49f8145be790b8e9369782c9f4087761ba7d5598b4ada7748",
      "scriptpubkey_type": "v1_p2tr",
      "scriptpubkey_address": "bc1pur38dzyljeawf8upgkl8jzuwjd5hstylgzrhvxa864vckjk6wayq84lcem",
      "value": 600
    },
    {
      "scriptpubkey": "5120e0e276889f967ae49f8145be790b8e9369782c9f4087761ba7d5598b4ada7748",
      "scriptpubkey_asm": "OP_PUSHNUM_1 OP_PUSHBYTES_32 e0e276889f967ae49f8145be790b8e9369782c9f4087761ba7d5598b4ada7748",
      "scriptpubkey_type": "v1_p2tr",
      "scriptpubkey_address": "bc1pur38dzyljeawf8upgkl8jzuwjd5hstylgzrhvxa864vckjk6wayq84lcem",
      "value": 600
    },
    {
      "scriptpubkey": "5120e0e276889f967ae49f8145be790b8e9369782c9f4087761ba7d5598b4ada7748",
      "scriptpubkey_asm": "OP_PUSHNUM_1 OP_PUSHBYTES_32 e0e276889f967ae49f8145be790b8e9369782c9f4087761ba7d5598b4ada7748",
      "scriptpubkey_type": "v1_p2tr",
      "scriptpubkey_address": "bc1pur38dzyljeawf8upgkl8jzuwjd5hstylgzrhvxa864vckjk6wayq84lcem",
      "value": 600
    },
    {
      "scriptpubkey": "5120e0e276889f967ae49f8145be790b8e9369782c9f4087761ba7d5598b4ada7748",
      "scriptpubkey_asm": "OP_PUSHNUM_1 OP_PUSHBYTES_32 e0e276889f967ae49f8145be790b8e9369782c9f4087761ba7d5598b4ada7748",
      "scriptpubkey_type": "v1_p2tr",
      "scriptpubkey_address": "bc1pur38dzyljeawf8upgkl8jzuwjd5hstylgzrhvxa864vckjk6wayq84lcem",
      "value": 600
    },
    {
      "scriptpubkey": "5120e0e276889f967ae49f8145be790b8e9369782c9f4087761ba7d5598b4ada7748",
      "scriptpubkey_asm": "OP_PUSHNUM_1 OP_PUSHBYTES_32 e0e276889f967ae49f8145be790b8e9369782c9f4087761ba7d5598b4ada7748",
      "scriptpubkey_type": "v1_p2tr",
      "scriptpubkey_address": "bc1pur38dzyljeawf8upgkl8jzuwjd5hstylgzrhvxa864vckjk6wayq84lcem",
      "value": 600
    },
    {
      "scriptpubkey": "5120e0e276889f967ae49f8145be790b8e9369782c9f4087761ba7d5598b4ada7748",
      "scriptpubkey_asm": "OP_PUSHNUM_1 OP_PUSHBYTES_32 e0e276889f967ae49f8145be790b8e9369782c9f4087761ba7d5598b4ada7748",
      "scriptpubkey_type": "v1_p2tr",
      "scriptpubkey_address": "bc1pur38dzyljeawf8upgkl8jzuwjd5hstylgzrhvxa864vckjk6wayq84lcem",
      "value": 600
    },
    {
      "scriptpubkey": "5120e0e276889f967ae49f8145be790b8e9369782c9f4087761ba7d5598b4ada7748",
      "scriptpubkey_asm": "OP_PUSHNUM_1 OP_PUSHBYTES_32 e0e276889f967ae49f8145be790b8e9369782c9f4087761ba7d5598b4ada7748",
      "scriptpubkey_type": "v1_p2tr",
      "scriptpubkey_address": "bc1pur38dzyljeawf8upgkl8jzuwjd5hstylgzrhvxa864vckjk6wayq84lcem",
      "value": 600
    },
    {
      "scriptpubkey": "5120e0e276889f967ae49f8145be790b8e9369782c9f4087761ba7d5598b4ada7748",
      "scriptpubkey_asm": "OP_PUSHNUM_1 OP_PUSHBYTES_32 e0e276889f967ae49f8145be790b8e9369782c9f4087761ba7d5598b4ada7748",
      "scriptpubkey_type": "v1_p2tr",
      "scriptpubkey_address": "bc1pur38dzyljeawf8upgkl8jzuwjd5hstylgzrhvxa864vckjk6wayq84lcem",
      "value": 600
    },
    {
      "scriptpubkey": "5120e0e276889f967ae49f8145be790b8e9369782c9f4087761ba7d5598b4ada7748",
      "scriptpubkey_asm": "OP_PUSHNUM_1 OP_PUSHBYTES_32 e0e276889f967ae49f8145be790b8e9369782c9f4087761ba7d5598b4ada7748",
      "scriptpubkey_type": "v1_p2tr",
      "scriptpubkey_address": "bc1pur38dzyljeawf8upgkl8jzuwjd5hstylgzrhvxa864vckjk6wayq84lcem",
      "value": 600
    },
    {
      "scriptpubkey": "5120e0e276889f967ae49f8145be790b8e9369782c9f4087761ba7d5598b4ada7748",
      "scriptpubkey_asm": "OP_PUSHNUM_1 OP_PUSHBYTES_32 e0e276889f967ae49f8145be790b8e9369782c9f4087761ba7d5598b4ada7748",
      "scriptpubkey_type": "v1_p2tr",
      "scriptpubkey_address": "bc1pur38dzyljeawf8upgkl8jzuwjd5hstylgzrhvxa864vckjk6wayq84lcem",
      "value": 600
    },
    {
      "scriptpubkey": "5120e0e276889f967ae49f8145be790b8e9369782c9f4087761ba7d5598b4ada7748",
      "scriptpubkey_asm": "OP_PUSHNUM_1 OP_PUSHBYTES_32 e0e276889f967ae49f8145be790b8e9369782c9f4087761ba7d5598b4ada7748",
      "scriptpubkey_type": "v1_p2tr",
      "scriptpubkey_address": "bc1pur38dzyljeawf8upgkl8jzuwjd5hstylgzrhvxa864vckjk6wayq84lcem",
      "value": 29849354
    }
  ],
  "size": 3518,
  "weight": 9836,
  "fee": 44334,
  "status": {
    "confirmed": true,
    "block_height": 834638,
    "block_hash": "000000000000000000025f742c626208ac87e0b7d15054abb4a19ca2d735a54e",
    "block_time": 1710405325
  },
  "hex": "0200000000011407374cf6d7579cdf5669a851d414549588e068a375a578fc2feeb7e0cafed5977f00000000ffffffff07374cf6d7579cdf5669a851d414549588e068a375a578fc2feeb7e0cafed5976400000000ffffffff07374cf6d7579cdf5669a851d414549588e068a375a578fc2feeb7e0cafed5976a00000000ffffffff07374cf6d7579cdf5669a851d414549588e068a375a578fc2feeb7e0cafed5977a00000000ffffffff07374cf6d7579cdf5669a851d414549588e068a375a578fc2feeb7e0cafed5978500000000ffffffff07374cf6d7579cdf5669a851d414549588e068a375a578fc2feeb7e0cafed5978300000000ffffffff4ceeec3547bbdc94bdc30ce80e7129b74047a140085017617d545c8bc5dfd4130e00000000ffffffff07374cf6d7579cdf5669a851d414549588e068a375a578fc2feeb7e0cafed5976900000000ffffffff07374cf6d7579cdf5669a851d414549588e068a375a578fc2feeb7e0cafed5979500000000ffffffff07374cf6d7579cdf5669a851d414549588e068a375a578fc2feeb7e0cafed5977b00000000ffffffff990666dce54df55e6a46b23ce8f6cc517930ae71306cc4bdc279d3da6191e4710100000000ffffffffb5f3830f89ce8ede71a8a0d098b076d21a8800e80fb7338f770bb3af54c157e10100000000ffffffff8dbb832e7939c55ba2add875ebbb382fb001ab3369271a6f804abd5381f9a87c0100000000ffffffffcb78a163ef7458eeb4644a8e9fd054db9e2cf0c3353c56898f5f162c0db06e390100000000ffffffff82dddd098f3caa44586aaa3488261b4f2a711dfab6c01c9e55dddf7db4f98a990100000000ffffffff67cd2759a461059146969828f7f650e05613327a59477a02d8f438cd8e5819ec0100000000ffffffffc4922c30b0a718aae5b8b78d727f280889a6ccbf57e3923569f2d235bb4ac8520100000000ffffffff6c7bfad9c2a51411f48351a3fb7ad1359ff581004984a38d9b517718f485ef060100000000ffffffff8f0ad2ec66e744549c63413098c64ff1765475aee23cda47c074889daf89c5c70100000000ffffffff4ceeec3547bbdc94bdc30ce80e7129b74047a140085017617d545c8bc5dfd4131200000000ffffffff1f7017000000000000225120e0e276889f967ae49f8145be790b8e9369782c9f4087761ba7d5598b4ada77482202000000000000225120e0e276889f967ae49f8145be790b8e9369782c9f4087761ba7d5598b4ada77482202000000000000225120e0e276889f967ae49f8145be790b8e9369782c9f4087761ba7d5598b4ada77482202000000000000225120e0e276889f967ae49f8145be790b8e9369782c9f4087761ba7d5598b4ada77482202000000000000225120e0e276889f967ae49f8145be790b8e9369782c9f4087761ba7d5598b4ada77482202000000000000225120e0e276889f967ae49f8145be790b8e9369782c9f4087761ba7d5598b4ada77482202000000000000225120e0e276889f967ae49f8145be790b8e9369782c9f4087761ba7d5598b4ada77482202000000000000225120e0e276889f967ae49f8145be790b8e9369782c9f4087761ba7d5598b4ada77482202000000000000225120e0e276889f967ae49f8145be790b8e9369782c9f4087761ba7d5598b4ada77482202000000000000225120e0e276889f967ae49f8145be790b8e9369782c9f4087761ba7d5598b4ada77482ee6050000000000160014fac7286aca1e5611308c1658fc20f84945a2a7e14605060000000000160014d2dac3509c4f0a4a9ee55fa8caf872d0cfcdada0d45b08000000000022512099e78c29852471e64c1b18109d404ecbffbda8475fba5c0b836b6fd2b127ff1cf63408000000000017a91444cea8dcf1d9a4e293719e16eacda6a98cd93d0a8786ef0800000000002251209fdc4b6224c5e418a5245c71da97641c97ef6ab6662db48ea55af1c7155529a91e1209000000000017a914b09182b4f234d1ac50b4734124efc1f777b3308f87a2b90900000000002251200731361c2a16ecc0b212d650887eb1062627bb2a3aef6ce4161201946659cb572a1e090000000000225120b5a7157474b11e6abfff34dde6e5db408437d1465e45158183246f129fad3284f87b0a00000000002251200731361c2a16ecc0b212d650887eb1062627bb2a3aef6ce4161201946659cb5732e701000000000017a914ea6b832a05c6ca578baa3836f3f25553d41068a5875802000000000000225120e0e276889f967ae49f8145be790b8e9369782c9f4087761ba7d5598b4ada77485802000000000000225120e0e276889f967ae49f8145be790b8e9369782c9f4087761ba7d5598b4ada77485802000000000000225120e0e276889f967ae49f8145be790b8e9369782c9f4087761ba7d5598b4ada77485802000000000000225120e0e276889f967ae49f8145be790b8e9369782c9f4087761ba7d5598b4ada77485802000000000000225120e0e276889f967ae49f8145be790b8e9369782c9f4087761ba7d5598b4ada77485802000000000000225120e0e276889f967ae49f8145be790b8e9369782c9f4087761ba7d5598b4ada77485802000000000000225120e0e276889f967ae49f8145be790b8e9369782c9f4087761ba7d5598b4ada77485802000000000000225120e0e276889f967ae49f8145be790b8e9369782c9f4087761ba7d5598b4ada77485802000000000000225120e0e276889f967ae49f8145be790b8e9369782c9f4087761ba7d5598b4ada77485802000000000000225120e0e276889f967ae49f8145be790b8e9369782c9f4087761ba7d5598b4ada77480a77c70100000000225120e0e276889f967ae49f8145be790b8e9369782c9f4087761ba7d5598b4ada774801403183db4769a3ab21a963932ada197c689bb902a3a70eda43609fb5169a56de211328d62b383dad89f9967013d6577d69cbb9a3a9adb5eb87a211ec13425205270140183a2e9e7ae0451f19805ae20c4131a3b0d0e1f78a1913fc3e1470f0b9ef44c8e18b30352b2d3a3011a65a5095808b1699d4149a791654272031ab6e6d1ca4ef01403fc3e87ca83dce7418d0fa90ab9c7da2480ad1922ba304ee237914cc30cab388279b60b1bddd966c46eece413cfb33bf8eabd013bd606dd595c60eb99ac2f85f01404cfb91f6c4d9bd306291f08a16d2db84bb0aea79bb7314c7ebec1b152fb7051104ddef06fc2578b20b0966dfb14e0b4839fe2485eb9c011252fba1b86bf3d97f01404b26831f0966d08e41243b04e7f1e1bf1ae89615cbc8b9a59d3e8ac100ac1ebd6e37b41d7f4ef922e60d5eeb0a968d945d80137620d89d561f84cd5a4aeab2b601403487a0ec164c206c24102cf00b3a2b2391ac90d7a43c82dfafb3eec554629c179a8570caaad7fe7fab5c28bee2115c7259c352ff7aaee6dd04464a61e245be6f014006eb181681fed0aeba6af3cddd4457c60c8ba441965c69042e49d2a708d7aad250d43e66ca89d60f08dcade4d22eb0e1f10155564de56ac159b3915c841fd9b4014087b20522ea7a40d75b706ef7831599ae2aa919a4dd2337d9b07e763e1175b7b555d46562744f90bb4f0e485efce2d36acc8a3b0ce349f1c9795a14c7693b727a0140a45d28cf4c1dc00a0fd1d865a9d02ba63922394cb55df09448c1480081b11caffaa9100e4ca7897ddbdfbf434fc97ca4aa556f1011296952d50cc90fa289881e0140fd55d49f8b0d95a9430ecf9030754123389abf7b99d102c513dada953849c289d02828f8383a755fff28c179b27c038a8bcb20b5ffca8455ae8df33953c5e0fb024730440220304827f676c501eb0b3a040d28730a75fadabed791aa50c3685517ef7cde9373022050f8c1f94a6ed62da03088371c4c4db3567ac9d8e16591f870c20255c5387dae83210238c4bd33fd8bfaa9d61ee6ebe79017238bb6d6ed1d6acc573adfb3f59a6589e402483045022100a397ae991fb77c62c5654d1753fec742cefc03cd0c0a854630306a1a740ddee302203b67c767ecbc9f4de301297ca6f53ddf0278cc972d4b54af34ffc6206fb8bf08832102ed0acc3bed2d1ce3dc6ca9a27e0a9338b1576d10cf154e9e3976eb20ce57793201410f03fead2004629e2ad1ea6e6a436aeae675319bbe34d6eecf9fda1f926688697d32d1042848a68e478f104fdef8463e5a578f4e6fee119d1e095bf480a6674b830141e3bf60b1eee44306678d37299c2a417e2d9e1f5f1a0b8f3767953ed655330a18c6757bdedbcb0988b546ab996e2d9fee6cfb72565ed8f038ab37c41d321fa259830141f6f4fd033ac5e7b9e73068bd15fe58e6a8f16dfa9ce3d33e4b9fb86c4dd21e0edcf4244074ece800b03bb5ad01edd4012c3dd2bc60712ba0d243df1c1536f41a830141af5f7a2305df5b4444c914870f752d11bdeb98342bb247e470c1a6f0c347260ad361561f608139727aa207acbe611e35ce9772ff3c8f2d0f89ab385c919c584d83014177633d3e185b8ef4d39a0236fe23bac7ab9faecb44dbd68494f65aa0f708573556e983996767848e6c0d853c3c35fa5156a322bd761f2580de23eb5a2848dec68301410fc527f27da7b00407d809fb0c81cd11dea0b858b432d8940a42b21241e15994fb459e3d4f88e22a6e24498d4f1ae0d86a8d356d962c99fc6a80a8568d280031830141717c9b3294ddb7d208d13ef1e19da3263f3ac0535b60de73f57123b0e685dda8b6ba2b901c01652b14b52eab04b770828241756f38d384ed680ef6f12a78eedf830140739bf891442db348d74e33b8eac289eadedb13804611623708298a75e1169c50f84d75cbb8089bc04cacb47f02dc1a70541c520d2f3fd30fd7c71335f83ba81200000000"
}