{
  "txid": "61a6ba7e8760fbbc770c799794e7489910da75e8d569f52cb8bcfa3910e107d0",
  "version": 2,
  "locktime": 0,
  "vin": [
    {
      "txid": "b9f357d83cb3c7e1a11f861540f2ef8f0eb87871f723f91f9a708db0db1bcabf",
      "vout": 8,
      "prevout": {
        "scriptpubkey": "5120daf25a9baf647e803f6e6b96cef53464e1335e52ce1bcb0a937a3c769a276dca",
        "scriptpubkey_asm": "OP_PUSHNUM_1 OP_PUSHBYTES_32 daf25a9baf647e803f6e6b96cef53464e1335e52ce1bcb0a937a3c769a276dca",
        "scriptpubkey_type": "v1_p2tr",
        "scriptpubkey_address": "bc1pmte94xa0v3lgq0mwdwtvaaf5vnsnxhjjecdukz5n0g78dx38dh9q4247fc",
        "value": 2862
      },
      "scriptsig": "",
      "scriptsig_asm": "",
      "witness": [
        "4763582a469c6639aa28339e7db86252d0147e8ac518cbdba4be2539fd523a4d4b94df5aa79844345880051e14b421ac73070333956eda23732da9c60ad56456",
        "203a5d61303e1b5688c0e3bdc9606af3cd4ea871ccc8d8f505b3e92272b5e135cbac0063036f726401011e6170706c69636174696f6e2f6a736f6e3b636861727365743d7574662d38004cd37b2270223a22706f772d3230222c226f70223a226d696e74222c227469636b223a2250455045222c22616d74223a2231303030222c22736f6c7574696f6e223a22504550453a62633170646c6a6d747a783365646e716e7572366332786c6c3277726472787a636e72373270333874636a6b736476306b726c67643268737a3279767a6c3a303030303030303030303030303030303030303139393431613561653132383937363539383134343239323533333030353762306461393666336465613163353a3530313739393137383138227d68",
        "c196123be632ec23e42a1daadb49c59b3ad8ca39108d2d31b6eff3b52b525d1622"
      ],
      "is_coinbase": false,
      "sequence": 4294967295
    }
  ],
  "vout": [
    {
      "scriptpubkey": "51206fe5b588d1cb6609f07ac28dffa9c368cc2c4c7e506275e2568358fb0fe86aaf",
      "scriptpubkey_asm": "OP_PUSHNUM_1 OP_PUSHBYTES_32 6fe5b588d1cb6609f07ac28dffa9c368cc2c4c7e506275e2568358fb0fe86aaf",
      "scriptpubkey_type": "v1_p2tr",
      "scriptpubkey_address": "bc1pdljmtzx3ednqnur6c2xll2wrdrxzcnr72p38tcjksdv0krlgd2hsz2yvzl",
      "value": 546
    }
  ],
  "size": 487,
  "weight": 769,
  "fee": 2316,
  "status": {
    "confirmed": true,
    "block_height": 834460,
    "block_hash": "00000000000000000000484a79b643b2524bbce82e5d8a442013fa5b8905ed98",
    "block_time": 1710307468
  },
  "hex": "02000000000101bfca1bdbb08d709a1ff923f77178b80e8feff24015861fa1e1c7b33cd857f3b90800000000ffffffff0122020000000000002251206fe5b588d1cb6609f07ac28dffa9c368cc2c4c7e506275e2568358fb0fe86aaf03404763582a469c6639aa28339e7db86252d0147e8ac518cbdba4be2539fd523a4d4b94df5aa79844345880051e14b421ac73070333956eda23732da9c60ad56456fd2001203a5d61303e1b5688c0e3bdc9606af3cd4ea871ccc8d8f505b3e92272b5e135cbac0063036f726401011e6170706c69636174696f6e2f6a736f6e3b636861727365743d7574662d38004cd37b2270223a22706f772d3230222c226f70223a226d696e74222c227469636b223a2250455045222c22616d74223a2231303030222c22736f6c7574696f6e223a22504550453a62633170646c6a6d747a783365646e716e7572366332786c6c3277726472787a636e72373270333874636a6b736476306b726c67643268737a3279767a6c3a303030303030303030303030303030303030303139393431613561653132383937363539383134343239323533333030353762306461393666336465613163353a3530313739393137383138227d6821c196123be632ec23e42a1daadb49c59b3ad8ca39108d2d31b6eff3b52b525d162200000000"
}