{
  "txid": "61a73732df9777893a609f874bd1eda318f740312a60e49cc39abce30a996d82",
  "version": 2,
  "locktime": 0,
  "vin": [
    {
      "txid": "acc9b0f97b417ffe180a7b9b9b0897bdd9cb740df736e18deb53c4edccbe27d0",
      "vout": 2,
      "prevout": {
        "scriptpubkey": "51205789bbc2c5968130da086121aa8289c01816b72095d40913f8790fd480e95747",
        "scriptpubkey_asm": "OP_PUSHNUM_1 OP_PUSHBYTES_32 5789bbc2c5968130da086121aa8289c01816b72095d40913f8790fd480e95747",
        "scriptpubkey_type": "v1_p2tr",
        "scriptpubkey_address": "bc1p27ymhsk9j6qnpksgvys64q5fcqvpddeqjh2qjylc0y8afq8f2arsucwvyk",
        "value": 79151
      },
      "scriptsig": "",
      "scriptsig_asm": "",
      "witness": [
        "a40c78410831f9437c5dc80625e8ab8e6c61597b2841bd74221711bc8cb4b6eda44b37dae9da2a51a6c2a98aed3fdea55516c492381b82f3e70b229b5bab14e5"
      ],
      "is_coinbase": false,
      "sequence": 4294967295
    },
    {
      "txid": "92822a518d156659fafe70e076e3b83598fd169599a0e298ed152fb5fb7d8548",
      "vout": 2,
      "prevout": {
        "scriptpubkey": "51205789bbc2c5968130da086121aa8289c01816b72095d40913f8790fd480e95747",
        "scriptpubkey_asm": "OP_PUSHNUM_1 OP_PUSHBYTES_32 5789bbc2c5968130da086121aa8289c01816b72095d40913f8790fd480e95747",
        "scriptpubkey_type": "v1_p2tr",
        "scriptpubkey_address": "bc1p27ymhsk9j6qnpksgvys64q5fcqvpddeqjh2qjylc0y8afq8f2arsucwvyk",
        "value": 79151
      },
      "scriptsig": "",
      "scriptsig_asm": "",
      "witness": [
        "a2ff0cf1062f6da8e6518762e924f7ef46d44346a2aec033e1fe1a93bc170a4cfb3025de090dc52373838deb7725f3a8939dd9ff61c1e413919f2029cd00b301"
      ],
      "is_coinbase": false,
      "sequence": 4294967295
    }
  ],
  "vout": [
    {
      "scriptpubkey": "5120ab721dc0c697ea4c1d2ec48793441be3b35f59a501b2ae68e43fd3bcad6d8201",
      "scriptpubkey_asm": "OP_PUSHNUM_1 OP_PUSHBYTES_32 ab721dc0c697ea4c1d2ec48793441be3b35f59a501b2ae68e43fd3bcad6d8201",
      "scriptpubkey_type": "v1_p2tr",
      "scriptpubkey_address": "bc1p4depmsxxjl4yc8fwcjrex3qmuwe47kd9qxe2u68y8lfmettdsgqs586vvh",
      "value": 143000
    },
    {
      "scriptpubkey": "51205789bbc2c5968130da086121aa8289c01816b72095d40913f8790fd480e95747",
      "scriptpubkey_asm": "OP_PUSHNUM_1 OP_PUSHBYTES_32 5789bbc2c5968130da086121aa8289c01816b72095d40913f8790fd480e95747",
      "scriptpubkey_type": "v1_p2tr",
      "scriptpubkey_address": "bc1p27ymhsk9j6qnpksgvys64q5fcqvpddeqjh2qjylc0y8afq8f2arsucwvyk",
      "value": 12552
    }
  ],
  "size": 312,
  "weight": 846,
  "fee": 2750,
  "status": {
    "confirmed": true,
    "block_height": 834460,
    "block_hash": "00000000000000000000484a79b643b2524bbce82e5d8a442013fa5b8905ed98",
    "block_time": 1710307468
  },
  "hex": "02000000000102d027beccedc453eb8de136f70d74cbd9bd97089b9b7b0a18fe7f417bf9b0c9ac0200000000ffffffff48857dfbb52f15ed98e2a0999516fd9835b8e376e070fefa5966158d512a82920200000000ffffffff02982e020000000000225120ab721dc0c697ea4c1d2ec48793441be3b35f59a501b2ae68e43fd3bcad6d820108310000000000002251205789bbc2c5968130da086121aa8289c01816b72095d40913f8790fd480e957470140a40c78410831f9437c5dc80625e8ab8e6c61597b2841bd74221711bc8cb4b6eda44b37dae9da2a51a6c2a98aed3fdea55516c492381b82f3e70b229b5bab14e50140a2ff0cf1062f6da8e6518762e924f7ef46d44346a2aec033e1fe1a93bc170a4cfb3025de090dc52373838deb7725f3a8939dd9ff61c1e413919f2029cd00b30100000000"
}