{
  "txid": "61ac4a854c3f42511a623b93c460545229637798ec259ff4aa4e4cf339234282",
  "version": 2,
  "locktime": 0,
  "vin": [
    {
      "txid": "b9f357d83cb3c7e1a11f861540f2ef8f0eb87871f723f91f9a708db0db1bcabf",
      "vout": 20,
      "prevout": {
        "scriptpubkey": "51202e1b7c4e27f711cae305f781147a1d3fe1b459cbeaa0b13802ca7a19a02c2aab",
        "scriptpubkey_asm": "OP_PUSHNUM_1 OP_PUSHBYTES_32 2e1b7c4e27f711cae305f781147a1d3fe1b459cbeaa0b13802ca7a19a02c2aab",
        "scriptpubkey_type": "v1_p2tr",
        "scriptpubkey_address": "bc1p9cdhcn387ugu4cc977q3g7sa8lsmgkwta2stzwqzefapngpv924sexd656",
        "value": 2862
      },
      "scriptsig": "",
      "scriptsig_asm": "",
      "witness": [
        "5d99a08c28017a8eed9be7aca7e38cfaef58e3c5513e9f2a96ced3a232ada81e91256fb0f42c68dfc34e78fb31a3229d1bdcc511c4340bd2429e3de090e78e59",
        "20af1f12ccd55d2911d2fe24a193431be3ccb4bb6acafcd15e53cbea1923aa9b8cac0063036f726401011e6170706c69636174696f6e2f6a736f6e3b636861727365743d7574662d38004cd37b2270223a22706f772d3230222c226f70223a226d696e74222c227469636b223a2250455045222c22616d74223a2231303030222c22736f6c7574696f6e223a22504550453a62633170646c6a6d747a783365646e716e7572366332786c6c3277726472787a636e72373270333874636a6b736476306b726c67643268737a3279767a6c3a303030303030303030303030303030303030303139393431613561653132383937363539383134343239323533333030353762306461393666336465613163353a3139353932333631363437227d68",
        "c196123be632ec23e42a1daadb49c59b3ad8ca39108d2d31b6eff3b52b525d1622"
      ],
      "is_coinbase": false,
      "sequence": 4294967295
    }
  ],
  "vout": [
    {
      "scriptpubkey": "51206fe5b588d1cb6609f07ac28dffa9c368cc2c4c7e506275e2568358fb0fe86aaf",
      "scriptpubkey_asm": "OP_PUSHNUM_1 OP_PUSHBYTES_32 6fe5b588d1cb6609f07ac28dffa9c368cc2c4c7e506275e2568358fb0fe86aaf",
      "scriptpubkey_type": "v1_p2tr",
      "scriptpubkey_address": "bc1pdljmtzx3ednqnur6c2xll2wrdrxzcnr72p38tcjksdv0krlgd2hsz2yvzl",
      "value": 546
    }
  ],
  "size": 487,
  "weight": 769,
  "fee": 2316,
  "status": {
    "confirmed": true,
    "block_height": 834460,
    "block_hash": "00000000000000000000484a79b643b2524bbce82e5d8a442013fa5b8905ed98",
    "block_time": 1710307468
  },
  "hex": "02000000000101bfca1bdbb08d709a1ff923f77178b80e8feff24015861fa1e1c7b33cd857f3b91400000000ffffffff0122020000000000002251206fe5b588d1cb6609f07ac28dffa9c368cc2c4c7e506275e2568358fb0fe86aaf03405d99a08c28017a8eed9be7aca7e38cfaef58e3c5513e9f2a96ced3a232ada81e91256fb0f42c68dfc34e78fb31a3229d1bdcc511c4340bd2429e3de090e78e59fd200120af1f12ccd55d2911d2fe24a193431be3ccb4bb6acafcd15e53cbea1923aa9b8cac0063036f726401011e6170706c69636174696f6e2f6a736f6e3b636861727365743d7574662d38004cd37b2270223a22706f772d3230222c226f70223a226d696e74222c227469636b223a2250455045222c22616d74223a2231303030222c22736f6c7574696f6e223a22504550453a62633170646c6a6d747a783365646e716e7572366332786c6c3277726472787a636e72373270333874636a6b736476306b726c67643268737a3279767a6c3a303030303030303030303030303030303030303139393431613561653132383937363539383134343239323533333030353762306461393666336465613163353a3139353932333631363437227d6821c196123be632ec23e42a1daadb49c59b3ad8ca39108d2d31b6eff3b52b525d162200000000"
}