{
  "txid": "61b708d7322033b5847791aaad03324de04d662f34bcc1f969e2ddddbe9bbe9b",
  "version": 1,
  "locktime": 0,
  "vin": [
    {
      "txid": "c74aec0edb4149d1a3dc0840fba5391fd7e6ebe1cb87ec5b517cbad1cd75cc11",
      "vout": 0,
      "prevout": {
        "scriptpubkey": "00145541b51355200b203a084006927f147600d1ab73",
        "scriptpubkey_asm": "OP_0 OP_PUSHBYTES_20 5541b51355200b203a084006927f147600d1ab73",
        "scriptpubkey_type": "v0_p2wpkh",
        "scriptpubkey_address": "bc1q24qm2y64yq9jqwsggqrfylc5wcqdr2mn6cmdkf",
        "value": 611041
      },
      "scriptsig": "",
      "scriptsig_asm": "",
      "witness": [
        "3045022100a75ef548b0a51b0bc8a398927793bfd4c5ecb56432f52baa449248baa7e58a7c022029b2a735800ee1b4bf200ae28749f5001b481d2678e3769ff0415ab3f7ed1e3901",
        "0339526a2a19232961694714bf8cc99890e325b336fac5f794375ffec1372369e7"
      ],
      "is_coinbase": false,
      "sequence": 4294967293
    }
  ],
  "vout": [
    {
      "scriptpubkey": "0014aba601b0130506d0d93ef5a52a970b8f9508c053",
      "scriptpubkey_asm": "OP_0 OP_PUSHBYTES_20 aba601b0130506d0d93ef5a52a970b8f9508c053",
      "scriptpubkey_type": "v0_p2wpkh",
      "scriptpubkey_address": "bc1q4wnqrvqnq5rdpkf77kjj49ct372s3sznxalnda",
      "value": 609290
    }
  ],
  "size": 192,
  "weight": 438,
  "fee": 1751,
  "status": {
    "confirmed": true,
    "block_height": 834638,
    "block_hash": "000000000000000000025f742c626208ac87e0b7d15054abb4a19ca2d735a54e",
    "block_time": 1710405325
  },
  "hex": "0100000000010111cc75cdd1ba7c515bec87cbe1ebe6d71f39a5fb4008dca3d14941db0eec4ac70000000000fdffffff010a4c090000000000160014aba601b0130506d0d93ef5a52a970b8f9508c05302483045022100a75ef548b0a51b0bc8a398927793bfd4c5ecb56432f52baa449248baa7e58a7c022029b2a735800ee1b4bf200ae28749f5001b481d2678e3769ff0415ab3f7ed1e3901210339526a2a19232961694714bf8cc99890e325b336fac5f794375ffec1372369e700000000"
}