{
  "txid": "61b7e3389045d323b3c9b03bfff11f90e17e4a642ca3b44c889d91ee264df9ad",
  "version": 1,
  "locktime": 0,
  "vin": [
    {
      "txid": "349c634fb45ca7663961929fbbd93d76b29e4ed399aa9cf45e5ef4b173b2300a",
      "vout": 35,
      "prevout": {
        "scriptpubkey": "00141bab61d567d50674847773512c908cbcc33184e7",
        "scriptpubkey_asm": "OP_0 OP_PUSHBYTES_20 1bab61d567d50674847773512c908cbcc33184e7",
        "scriptpubkey_type": "v0_p2wpkh",
        "scriptpubkey_address": "bc1qrw4kr4t865r8fprhwdgjeyyvhnpnrp888eqtqs",
        "value": 165483
      },
      "scriptsig": "",
      "scriptsig_asm": "",
      "witness": [
        "3045022100d32826ef9a8ee2f03d0bc883b076f8d7e47b1b71f06c45ef01c78530e916c9a102207117dd5414c37f3400b75a71f6d82471d1e02c1c5bdd8307540051c05a3a7bff01",
        "03ba17c157e1d3cbbedf0dcba4e1443ff1cb08a59d5a217f0afe35b2c6d0a35ad9"
      ],
      "is_coinbase": false,
      "sequence": 4294967295
    }
  ],
  "vout": [
    {
      "scriptpubkey": "0014d22cd6662a5099ab9fe95e5d183b975590d74923",
      "scriptpubkey_asm": "OP_0 OP_PUSHBYTES_20 d22cd6662a5099ab9fe95e5d183b975590d74923",
      "scriptpubkey_type": "v0_p2wpkh",
      "scriptpubkey_address": "bc1q6gkdve322zv6h8lftew3swuh2kgdwjfrrulfzq",
      "value": 158390
    },
    {
      "scriptpubkey": "00141bab61d567d50674847773512c908cbcc33184e7",
      "scriptpubkey_asm": "OP_0 OP_PUSHBYTES_20 1bab61d567d50674847773512c908cbcc33184e7",
      "scriptpubkey_type": "v0_p2wpkh",
      "scriptpubkey_address": "bc1qrw4kr4t865r8fprhwdgjeyyvhnpnrp888eqtqs",
      "value": 3286
    }
  ],
  "size": 223,
  "weight": 562,
  "fee": 3807,
  "status": {
    "confirmed": true,
    "block_height": 834638,
    "block_hash": "000000000000000000025f742c626208ac87e0b7d15054abb4a19ca2d735a54e",
    "block_time": 1710405325
  },
  "hex": "010000000001010a30b273b1f45e5ef49caa99d34e9eb2763dd9bb9f92613966a75cb44f639c342300000000ffffffff02b66a020000000000160014d22cd6662a5099ab9fe95e5d183b975590d74923d60c0000000000001600141bab61d567d50674847773512c908cbcc33184e702483045022100d32826ef9a8ee2f03d0bc883b076f8d7e47b1b71f06c45ef01c78530e916c9a102207117dd5414c37f3400b75a71f6d82471d1e02c1c5bdd8307540051c05a3a7bff012103ba17c157e1d3cbbedf0dcba4e1443ff1cb08a59d5a217f0afe35b2c6d0a35ad900000000"
}