{
  "txid": "61dd0e0f83b51ad52d26776b3ff5b60c362f5d69df6300da52f711240cc9c323",
  "version": 2,
  "locktime": 0,
  "vin": [
    {
      "txid": "2ec94f116f46ac31b75644a9f2a146f370442c25342b256759bd732999dc565d",
      "vout": 1,
      "prevout": {
        "scriptpubkey": "0014b605d901cbce72046ab1199166e4c4f76190a493",
        "scriptpubkey_asm": "OP_0 OP_PUSHBYTES_20 b605d901cbce72046ab1199166e4c4f76190a493",
        "scriptpubkey_type": "v0_p2wpkh",
        "scriptpubkey_address": "bc1qkczajqwteeeqg643rxgkdexy7asepfynccjchp",
        "value": 158286994
      },
      "scriptsig": "",
      "scriptsig_asm": "",
      "witness": [
        "3045022100cb6f0249a82ccea4ad211b2a4300cb65ea57ccb7462c5760e8f86b228a67576c02205b6d9d6152582d71341418d332b9015c9b0fb84b695e1ce595624c84fd2f965b01",
        "0326a9755d79bd35439dcc957ae53d029c527fb65ce5f0165efae5e6870edfe684"
      ],
      "is_coinbase": false,
      "sequence": 4294967295
    }
  ],
  "vout": [
    {
      "scriptpubkey": "a91467c2669ce24ffd20f45279c1358966738a2bb02387",
      "scriptpubkey_asm": "OP_HASH160 OP_PUSHBYTES_20 67c2669ce24ffd20f45279c1358966738a2bb023 OP_EQUAL",
      "scriptpubkey_type": "p2sh",
      "scriptpubkey_address": "3B9eQWU1rFyCPifzbyF3QAPChB1EmDpCrz",
      "value": 793283
    },
    {
      "scriptpubkey": "00149a5d53d3ba39e71d40dec439a92ad66792cec371",
      "scriptpubkey_asm": "OP_0 OP_PUSHBYTES_20 9a5d53d3ba39e71d40dec439a92ad66792cec371",
      "scriptpubkey_type": "v0_p2wpkh",
      "scriptpubkey_address": "bc1qnfw485a688n36sx7csu6j2kkv7fvasm34m5h53",
      "value": 157491599
    }
  ],
  "size": 224,
  "weight": 566,
  "fee": 2112,
  "status": {
    "confirmed": true,
    "block_height": 834638,
    "block_hash": "000000000000000000025f742c626208ac87e0b7d15054abb4a19ca2d735a54e",
    "block_time": 1710405325
  },
  "hex": "020000000001015d56dc992973bd5967252b34252c4470f346a1f2a94456b731ac466f114fc92e0100000000ffffffff02c31a0c000000000017a91467c2669ce24ffd20f45279c1358966738a2bb023878f216309000000001600149a5d53d3ba39e71d40dec439a92ad66792cec37102483045022100cb6f0249a82ccea4ad211b2a4300cb65ea57ccb7462c5760e8f86b228a67576c02205b6d9d6152582d71341418d332b9015c9b0fb84b695e1ce595624c84fd2f965b01210326a9755d79bd35439dcc957ae53d029c527fb65ce5f0165efae5e6870edfe68400000000"
}