{
  "txid": "61ead387aeeea489be56ba2f699bc7064962b8a0239639a247f9a3f22a0804b6",
  "version": 2,
  "locktime": 834637,
  "vin": [
    {
      "txid": "1ae4ad68b3aab8c25e3c7cb4bc8a88bbf2012bf2bb54e82ce02c861446ff6ec6",
      "vout": 3,
      "prevout": {
        "scriptpubkey": "0014f6dc467de1111415c6497c7fc9fcccb9005b865b",
        "scriptpubkey_asm": "OP_0 OP_PUSHBYTES_20 f6dc467de1111415c6497c7fc9fcccb9005b865b",
        "scriptpubkey_type": "v0_p2wpkh",
        "scriptpubkey_address": "bc1q7mwyvl0pzy2pt3jf03lunlxvhyq9hpjm9x07k4",
        "value": 584851864
      },
      "scriptsig": "",
      "scriptsig_asm": "",
      "witness": [
        "30440220715f7e8db9fcdf861516a4d79aa8f84e49f16af74898cf7056c7ae9c1bd68ff902201ec8a3573b9fc8d2e0b91a36a2857bb819b1ec22f1979621af1fcc51b0d572b601",
        "0276cda3f13dece4572942fee7b724eaa9c42d579232a4a119ada21feac7eb17a9"
      ],
      "is_coinbase": false,
      "sequence": 4294967294
    }
  ],
  "vout": [
    {
      "scriptpubkey": "76a91461bfaf0c2d8fe6912730b396c80c40906270a32488ac",
      "scriptpubkey_asm": "OP_DUP OP_HASH160 OP_PUSHBYTES_20 61bfaf0c2d8fe6912730b396c80c40906270a324 OP_EQUALVERIFY OP_CHECKSIG",
      "scriptpubkey_type": "p2pkh",
      "scriptpubkey_address": "19urB2k4jpdTcS5k36Sroqa6mkwKzVWAA1",
      "value": 120462
    },
    {
      "scriptpubkey": "a9143c0ae31421943edaf78784416b4963e1966d59a787",
      "scriptpubkey_asm": "OP_HASH160 OP_PUSHBYTES_20 3c0ae31421943edaf78784416b4963e1966d59a7 OP_EQUAL",
      "scriptpubkey_type": "p2sh",
      "scriptpubkey_address": "37AVWVoWiAaDNgzhin8V8qM2WmtGuMroxe",
      "value": 584658000
    },
    {
      "scriptpubkey": "76a914afdb0377df3b4b51b2037537bd7a3ac5bdd19ee988ac",
      "scriptpubkey_asm": "OP_DUP OP_HASH160 OP_PUSHBYTES_20 afdb0377df3b4b51b2037537bd7a3ac5bdd19ee9 OP_EQUALVERIFY OP_CHECKSIG",
      "scriptpubkey_type": "p2pkh",
      "scriptpubkey_address": "1H2qcu7Em8TsAEDN41BVjaCcxEpzQbm8yF",
      "value": 70860
    }
  ],
  "size": 260,
  "weight": 713,
  "fee": 2542,
  "status": {
    "confirmed": true,
    "block_height": 834638,
    "block_hash": "000000000000000000025f742c626208ac87e0b7d15054abb4a19ca2d735a54e",
    "block_time": 1710405325
  },
  "hex": "02000000000101c66eff4614862ce02ce854bbf22b01f2bb888abcb47c3c5ec2b8aab368ade41a0300000000feffffff038ed60100000000001976a91461bfaf0c2d8fe6912730b396c80c40906270a32488ac502cd9220000000017a9143c0ae31421943edaf78784416b4963e1966d59a787cc140100000000001976a914afdb0377df3b4b51b2037537bd7a3ac5bdd19ee988ac024730440220715f7e8db9fcdf861516a4d79aa8f84e49f16af74898cf7056c7ae9c1bd68ff902201ec8a3573b9fc8d2e0b91a36a2857bb819b1ec22f1979621af1fcc51b0d572b601210276cda3f13dece4572942fee7b724eaa9c42d579232a4a119ada21feac7eb17a94dbc0c00"
}