{
  "txid": "6201e48a9feed9a81a8d7d444a05dacf5d9b5486d3ff7fa9691a1432b85a06b1",
  "version": 1,
  "locktime": 0,
  "vin": [
    {
      "txid": "c9f0141c3c485bee4acbaf468e21616472950c50bcc86c4e731541f40921e567",
      "vout": 1,
      "prevout": {
        "scriptpubkey": "00142728c9552170552f780ba326a5dda054ffe461b8",
        "scriptpubkey_asm": "OP_0 OP_PUSHBYTES_20 2728c9552170552f780ba326a5dda054ffe461b8",
        "scriptpubkey_type": "v0_p2wpkh",
        "scriptpubkey_address": "bc1qyu5vj4fpwp2j77qt5vn2thdq2nl7gcdc0cvqh5",
        "value": 1175829
      },
      "scriptsig": "",
      "scriptsig_asm": "",
      "witness": [
        "304402201140657b53a599d35a4964b09c8f4349f768489daed4483a1d788f76c34f391502202d2309debbebf71e281f2ef676dd8819c48550a75fff1b596324c0de7f6aed3301",
        "02c687a2a8cb3be05ffbf0a475fda11d0652944dfa6f2c5428453b6f3bae300114"
      ],
      "is_coinbase": false,
      "sequence": 4294967295
    }
  ],
  "vout": [
    {
      "scriptpubkey": "00144996b6ecea3e351898d3f87a1b3d7b74b4d10297",
      "scriptpubkey_asm": "OP_0 OP_PUSHBYTES_20 4996b6ecea3e351898d3f87a1b3d7b74b4d10297",
      "scriptpubkey_type": "v0_p2wpkh",
      "scriptpubkey_address": "bc1qfxttdm828c633xxnlpapk0tmwj6dzq5hp0a69m",
      "value": 630065
    },
    {
      "scriptpubkey": "00142728c9552170552f780ba326a5dda054ffe461b8",
      "scriptpubkey_asm": "OP_0 OP_PUSHBYTES_20 2728c9552170552f780ba326a5dda054ffe461b8",
      "scriptpubkey_type": "v0_p2wpkh",
      "scriptpubkey_address": "bc1qyu5vj4fpwp2j77qt5vn2thdq2nl7gcdc0cvqh5",
      "value": 541957
    }
  ],
  "size": 222,
  "weight": 561,
  "fee": 3807,
  "status": {
    "confirmed": true,
    "block_height": 834638,
    "block_hash": "000000000000000000025f742c626208ac87e0b7d15054abb4a19ca2d735a54e",
    "block_time": 1710405325
  },
  "hex": "0100000000010167e52109f44115734e6cc8bc500c95726461218e46afcb4aee5b483c1c14f0c90100000000ffffffff02319d0900000000001600144996b6ecea3e351898d3f87a1b3d7b74b4d1029705450800000000001600142728c9552170552f780ba326a5dda054ffe461b80247304402201140657b53a599d35a4964b09c8f4349f768489daed4483a1d788f76c34f391502202d2309debbebf71e281f2ef676dd8819c48550a75fff1b596324c0de7f6aed33012102c687a2a8cb3be05ffbf0a475fda11d0652944dfa6f2c5428453b6f3bae30011400000000"
}