{
  "txid": "620cbe4ef4208fef238358325d26f8402f4ce0258bf8e8aeffa59dd1a97d7739",
  "version": 1,
  "locktime": 0,
  "vin": [
    {
      "txid": "6e3591997e165ec7d5bcff87ab35d5df2fb09ec6c5f902524564ad16d81fd1a7",
      "vout": 1,
      "prevout": {
        "scriptpubkey": "001471e59152d89b93c4cb0b76b95cbbacce80ed1cbb",
        "scriptpubkey_asm": "OP_0 OP_PUSHBYTES_20 71e59152d89b93c4cb0b76b95cbbacce80ed1cbb",
        "scriptpubkey_type": "v0_p2wpkh",
        "scriptpubkey_address": "bc1qw8jez5kcnwfufjctw6u4ewave6qw689m8y9j9r",
        "value": 416278
      },
      "scriptsig": "",
      "scriptsig_asm": "",
      "witness": [
        "3045022100eccd775244ca4041ad91fa5cdb5702eb3469252e4e7684bef93f76f8582827c20220583bb20d702558fb4be7bfd6f1001d62f887700ffcfea12d091fe8f02705db6801",
        "028f8611752b04ead04caebc0661e19b3573dd01427d30d578277e7c37050dd730"
      ],
      "is_coinbase": false,
      "sequence": 4294967295
    }
  ],
  "vout": [
    {
      "scriptpubkey": "76a914f6d390481c7d5f09dba8e8a8817abfc2c9eeac1588ac",
      "scriptpubkey_asm": "OP_DUP OP_HASH160 OP_PUSHBYTES_20 f6d390481c7d5f09dba8e8a8817abfc2c9eeac15 OP_EQUALVERIFY OP_CHECKSIG",
      "scriptpubkey_type": "p2pkh",
      "scriptpubkey_address": "1PW6ftSf6U4uXzr1BUBU4UC74YwiA8JwLf",
      "value": 414590
    }
  ],
  "size": 195,
  "weight": 450,
  "fee": 1688,
  "status": {
    "confirmed": true,
    "block_height": 834638,
    "block_hash": "000000000000000000025f742c626208ac87e0b7d15054abb4a19ca2d735a54e",
    "block_time": 1710405325
  },
  "hex": "01000000000101a7d11fd816ad64455202f9c5c69eb02fdfd535ab87ffbcd5c75e167e9991356e0100000000ffffffff017e530600000000001976a914f6d390481c7d5f09dba8e8a8817abfc2c9eeac1588ac02483045022100eccd775244ca4041ad91fa5cdb5702eb3469252e4e7684bef93f76f8582827c20220583bb20d702558fb4be7bfd6f1001d62f887700ffcfea12d091fe8f02705db680121028f8611752b04ead04caebc0661e19b3573dd01427d30d578277e7c37050dd73000000000"
}