{
  "txid": "621e415b6cb6e207cecde6c8125e9f209cede18e40aa241da392ae315d40db51",
  "version": 1,
  "locktime": 0,
  "vin": [
    {
      "txid": "aa73a3f95c1f1e3c35bd686a3bfa85906f4746e3031bbb63786e3195130865af",
      "vout": 27,
      "prevout": {
        "scriptpubkey": "00148afc975375cda2ae990b88bb624f39cf0c78b052",
        "scriptpubkey_asm": "OP_0 OP_PUSHBYTES_20 8afc975375cda2ae990b88bb624f39cf0c78b052",
        "scriptpubkey_type": "v0_p2wpkh",
        "scriptpubkey_address": "bc1q3t7fw5m4ek32axgt3zakyneeeux83vzjfc95dx",
        "value": 487666138
      },
      "scriptsig": "",
      "scriptsig_asm": "",
      "witness": [
        "3045022100cc4b9da3cb7325db5a91dad4e7062e0e65491d5c53289a4f7ecd7264518b655002204885507624e9386aadc00f069ef9271b071fb55712e9b2a70c53190f5fda8d1101",
        "03880878b885b5f2e6d8feb894dd48815922ebefb7320205c91c1f6575c1c1647c"
      ],
      "is_coinbase": false,
      "sequence": 4294967295
    }
  ],
  "vout": [
    {
      "scriptpubkey": "001446fcbba3750343c7aa576da6da7c698cd5fd09ff",
      "scriptpubkey_asm": "OP_0 OP_PUSHBYTES_20 46fcbba3750343c7aa576da6da7c698cd5fd09ff",
      "scriptpubkey_type": "v0_p2wpkh",
      "scriptpubkey_address": "bc1qgm7thgm4qdpu02jhdknd5lrf3n2l6z0ln6kh42",
      "value": 35000
    },
    {
      "scriptpubkey": "0014f689f144455a1392cb68d112ce821a30cd3643b0",
      "scriptpubkey_asm": "OP_0 OP_PUSHBYTES_20 f689f144455a1392cb68d112ce821a30cd3643b0",
      "scriptpubkey_type": "v0_p2wpkh",
      "scriptpubkey_address": "bc1q76ylz3z9tgfe9jmg6yfvaqs6xrxnvsaszfxera",
      "value": 32000
    },
    {
      "scriptpubkey": "0014c80eb4a98ae8480971b21e90dad13367e29581a3",
      "scriptpubkey_asm": "OP_0 OP_PUSHBYTES_20 c80eb4a98ae8480971b21e90dad13367e29581a3",
      "scriptpubkey_type": "v0_p2wpkh",
      "scriptpubkey_address": "bc1qeq8tf2v2apyqjudjr6gd45fnvl3ftqdrvkqzm3",
      "value": 211000
    },
    {
      "scriptpubkey": "a91479ef782a880e722ff74d22fd23a2687d4ebb11fb87",
      "scriptpubkey_asm": "OP_HASH160 OP_PUSHBYTES_20 79ef782a880e722ff74d22fd23a2687d4ebb11fb OP_EQUAL",
      "scriptpubkey_type": "p2sh",
      "scriptpubkey_address": "3CokZP3AWz5u7FqKge4KAE2ZVomCNb4Bxj",
      "value": 199000
    },
    {
      "scriptpubkey": "00144d77242cea1e7a7b7fb61596a6f321aac0a1e01e",
      "scriptpubkey_asm": "OP_0 OP_PUSHBYTES_20 4d77242cea1e7a7b7fb61596a6f321aac0a1e01e",
      "scriptpubkey_type": "v0_p2wpkh",
      "scriptpubkey_address": "bc1qf4mjgt82rea8klakzkt2duep4tq2rcq7wd93se",
      "value": 77000
    },
    {
      "scriptpubkey": "0014742697d8d88ea78c7aa2eb4744dc40e3135ddea3",
      "scriptpubkey_asm": "OP_0 OP_PUSHBYTES_20 742697d8d88ea78c7aa2eb4744dc40e3135ddea3",
      "scriptpubkey_type": "v0_p2wpkh",
      "scriptpubkey_address": "bc1qwsnf0kxc36ncc74zadr5fhzquvf4mh4rcap06y",
      "value": 722000
    },
    {
      "scriptpubkey": "0014d67d1adbd70660a89add84057b9bdc6c194583e2",
      "scriptpubkey_asm": "OP_0 OP_PUSHBYTES_20 d67d1adbd70660a89add84057b9bdc6c194583e2",
      "scriptpubkey_type": "v0_p2wpkh",
      "scriptpubkey_address": "bc1q6e734k7hqes23xkasszhhx7udsv5tqlznjsu46",
      "value": 875000
    },
    {
      "scriptpubkey": "0014f68a05e6ab22c87fca09be233e5b826b1a5422d5",
      "scriptpubkey_asm": "OP_0 OP_PUSHBYTES_20 f68a05e6ab22c87fca09be233e5b826b1a5422d5",
      "scriptpubkey_type": "v0_p2wpkh",
      "scriptpubkey_address": "bc1q769qte4tyty8ljsfhc3nukuzdvd9ggk4j46fc7",
      "value": 693000
    },
    {
      "scriptpubkey": "00146fb572a495a925098a5b03238a8bcecaf3147284",
      "scriptpubkey_asm": "OP_0 OP_PUSHBYTES_20 6fb572a495a925098a5b03238a8bcecaf3147284",
      "scriptpubkey_type": "v0_p2wpkh",
      "scriptpubkey_address": "bc1qd76h9fy44yjsnzjmqv3c4z7wete3gu5ylpdqc5",
      "value": 169000
    },
    {
      "scriptpubkey": "76a9142cefd3e573bdc981ae601459721006a7f783ab8088ac",
      "scriptpubkey_asm": "OP_DUP OP_HASH160 OP_PUSHBYTES_20 2cefd3e573bdc981ae601459721006a7f783ab80 OP_EQUALVERIFY OP_CHECKSIG",
      "scriptpubkey_type": "p2pkh",
      "scriptpubkey_address": "156c2xqMPQszajH6DarCrtQ3DbZUtCdVob",
      "value": 613000
    },
    {
      "scriptpubkey": "001420b60eab7b9b6c605edcb5d3716e000c669b4aa7",
      "scriptpubkey_asm": "OP_0 OP_PUSHBYTES_20 20b60eab7b9b6c605edcb5d3716e000c669b4aa7",
      "scriptpubkey_type": "v0_p2wpkh",
      "scriptpubkey_address": "bc1qyzmqa2mmndkxqhkukhfhzmsqp3nfkj48vf9p4q",
      "value": 147000
    },
    {
      "scriptpubkey": "0014c162d511acdbe9fcf347e67856f34f78e6183022",
      "scriptpubkey_asm": "OP_0 OP_PUSHBYTES_20 c162d511acdbe9fcf347e67856f34f78e6183022",
      "scriptpubkey_type": "v0_p2wpkh",
      "scriptpubkey_address": "bc1qc93d2ydvm05leu68ueu9du600rnpsvpzqt7hug",
      "value": 78000
    },
    {
      "scriptpubkey": "0014734d9b6310af02a83f623e2c3b468fb53b310650",
      "scriptpubkey_asm": "OP_0 OP_PUSHBYTES_20 734d9b6310af02a83f623e2c3b468fb53b310650",
      "scriptpubkey_type": "v0_p2wpkh",
      "scriptpubkey_address": "bc1qwdxekccs4up2s0mz8ckrk350k5anzpjswjjwk0",
      "value": 142000
    },
    {
      "scriptpubkey": "0014a85883ac15c7c0ef122984812e2db9b8d85c6cef",
      "scriptpubkey_asm": "OP_0 OP_PUSHBYTES_20 a85883ac15c7c0ef122984812e2db9b8d85c6cef",
      "scriptpubkey_type": "v0_p2wpkh",
      "scriptpubkey_address": "bc1q4pvg8tq4clqw7y3fsjqjutdehrv9cm80f54zcq",
      "value": 711000
    },
    {
      "scriptpubkey": "001407a56dfdbae0dd17c1b284f749ffc4bcff808445",
      "scriptpubkey_asm": "OP_0 OP_PUSHBYTES_20 07a56dfdbae0dd17c1b284f749ffc4bcff808445",
      "scriptpubkey_type": "v0_p2wpkh",
      "scriptpubkey_address": "bc1qq7jkmld6urw30sdjsnm5nl7yhnlcppz9yjxu7e",
      "value": 954000
    },
    {
      "scriptpubkey": "a914b9188609eaeae2ed8a946b5203fb0e87b90ee8d487",
      "scriptpubkey_asm": "OP_HASH160 OP_PUSHBYTES_20 b9188609eaeae2ed8a946b5203fb0e87b90ee8d4 OP_EQUAL",
      "scriptpubkey_type": "p2sh",
      "scriptpubkey_address": "3JZiJxhkMEKp8obUZcBfHfeA6Md64QwtEi",
      "value": 33000
    },
    {
      "scriptpubkey": "76a914a31d789ea036f58a74aa6c6a5835e8c876bce1b888ac",
      "scriptpubkey_asm": "OP_DUP OP_HASH160 OP_PUSHBYTES_20 a31d789ea036f58a74aa6c6a5835e8c876bce1b8 OP_EQUALVERIFY OP_CHECKSIG",
      "scriptpubkey_type": "p2pkh",
      "scriptpubkey_address": "1FsUSxkQYLYNhzSBq3GcEvUXs3ce3pAeMq",
      "value": 131000
    },
    {
      "scriptpubkey": "00146f57bcc6c4f24ae82b95d86006a12f6745c08a4c",
      "scriptpubkey_asm": "OP_0 OP_PUSHBYTES_20 6f57bcc6c4f24ae82b95d86006a12f6745c08a4c",
      "scriptpubkey_type": "v0_p2wpkh",
      "scriptpubkey_address": "bc1qdatme3ky7f9ws2u4mpsqdgf0vazupzjv86927d",
      "value": 15000
    },
    {
      "scriptpubkey": "76a914415d6d1ccf2d8d8e4af28afea58323ff9490fc2c88ac",
      "scriptpubkey_asm": "OP_DUP OP_HASH160 OP_PUSHBYTES_20 415d6d1ccf2d8d8e4af28afea58323ff9490fc2c OP_EQUALVERIFY OP_CHECKSIG",
      "scriptpubkey_type": "p2pkh",
      "scriptpubkey_address": "16xcqqXLGL5GrpNgiKZuyATrMuuaRPELCB",
      "value": 455000
    },
    {
      "scriptpubkey": "0014d4986a6a782bd8f5426e04514363a7cc95917fa4",
      "scriptpubkey_asm": "OP_0 OP_PUSHBYTES_20 d4986a6a782bd8f5426e04514363a7cc95917fa4",
      "scriptpubkey_type": "v0_p2wpkh",
      "scriptpubkey_address": "bc1q6jvx56nc90v02snwq3g5xca8ej2ezlayh0850g",
      "value": 569000
    },
    {
      "scriptpubkey": "0020d3ba8764e3dd840defdf614d0ac4254f39f59f2356d950796f525c92d38958f3",
      "scriptpubkey_asm": "OP_0 OP_PUSHBYTES_32 d3ba8764e3dd840defdf614d0ac4254f39f59f2356d950796f525c92d38958f3",
      "scriptpubkey_type": "v0_p2wsh",
      "scriptpubkey_address": "bc1q6wagwe8rmkzqmm7lv9xs43p9fuult8er2mv4q7t02fwf95uftreszw3qg7",
      "value": 155000
    },
    {
      "scriptpubkey": "76a9140ea8f401f4938f6ab5652721a02a60c370c4e8a088ac",
      "scriptpubkey_asm": "OP_DUP OP_HASH160 OP_PUSHBYTES_20 0ea8f401f4938f6ab5652721a02a60c370c4e8a0 OP_EQUALVERIFY OP_CHECKSIG",
      "scriptpubkey_type": "p2pkh",
      "scriptpubkey_address": "12LWrktHMhD1jdbvBwZgtJxkzpjwULPfYk",
      "value": 1365000
    },
    {
      "scriptpubkey": "0014892f7def092261d54799618a325289cfabf85de4",
      "scriptpubkey_asm": "OP_0 OP_PUSHBYTES_20 892f7def092261d54799618a325289cfabf85de4",
      "scriptpubkey_type": "v0_p2wpkh",
      "scriptpubkey_address": "bc1q3yhhmmcfyfsa23uevx9ry55fe74lsh0yq7wnkg",
      "value": 432000
    },
    {
      "scriptpubkey": "00143d7c1f25a5950d49ae8688fa392490344e0305f0",
      "scriptpubkey_asm": "OP_0 OP_PUSHBYTES_20 3d7c1f25a5950d49ae8688fa392490344e0305f0",
      "scriptpubkey_type": "v0_p2wpkh",
      "scriptpubkey_address": "bc1q847p7fd9j5x5nt5x3rarjfysx38qxp0s99m7p6",
      "value": 136000
    },
    {
      "scriptpubkey": "76a914d428963e6ed14bf3db24efd61c4298e5700924c288ac",
      "scriptpubkey_asm": "OP_DUP OP_HASH160 OP_PUSHBYTES_20 d428963e6ed14bf3db24efd61c4298e5700924c2 OP_EQUALVERIFY OP_CHECKSIG",
      "scriptpubkey_type": "p2pkh",
      "scriptpubkey_address": "1LLnshHgig7ggVjVRCBs9EEy4tkYouptRP",
      "value": 3172000
    },
    {
      "scriptpubkey": "00140df3cdfc17253c9bc9b5bc40c2393cb691838b68",
      "scriptpubkey_asm": "OP_0 OP_PUSHBYTES_20 0df3cdfc17253c9bc9b5bc40c2393cb691838b68",
      "scriptpubkey_type": "v0_p2wpkh",
      "scriptpubkey_address": "bc1qpheumlqhy57fhjd4h3qvywfuk6gc8zmgph9jra",
      "value": 32000
    },
    {
      "scriptpubkey": "001477c032cb60b5434f09cf6f3ad83c674547e8249c",
      "scriptpubkey_asm": "OP_0 OP_PUSHBYTES_20 77c032cb60b5434f09cf6f3ad83c674547e8249c",
      "scriptpubkey_type": "v0_p2wpkh",
      "scriptpubkey_address": "bc1qwlqr9jmqk4p57zw0duads0r8g4r7sfyum67x4p",
      "value": 76000
    },
    {
      "scriptpubkey": "00145d3cd9fab9c5c851c893fd9eba72f2f0052419d9",
      "scriptpubkey_asm": "OP_0 OP_PUSHBYTES_20 5d3cd9fab9c5c851c893fd9eba72f2f0052419d9",
      "scriptpubkey_type": "v0_p2wpkh",
      "scriptpubkey_address": "bc1qt57dn74echy9rjynlk0t5uhj7qzjgxwezga8gg",
      "value": 58000
    },
    {
      "scriptpubkey": "0014b36c291ce35e1a36077d36cf69f1368fede4fbc4",
      "scriptpubkey_asm": "OP_0 OP_PUSHBYTES_20 b36c291ce35e1a36077d36cf69f1368fede4fbc4",
      "scriptpubkey_type": "v0_p2wpkh",
      "scriptpubkey_address": "bc1qkdkzj88rtcdrvpmaxm8knufk3lk7f77yqw306k",
      "value": 242000
    },
    {
      "scriptpubkey": "76a91402413356b544c3d982d545bc233fd25e1668cf0c88ac",
      "scriptpubkey_asm": "OP_DUP OP_HASH160 OP_PUSHBYTES_20 02413356b544c3d982d545bc233fd25e1668cf0c OP_EQUALVERIFY OP_CHECKSIG",
      "scriptpubkey_type": "p2pkh",
      "scriptpubkey_address": "1CvTbcPN1fZ3ievQCvuu2sN4adKj6CRHS",
      "value": 277000
    },
    {
      "scriptpubkey": "0014862173e0244bbbc14d526f84aaa22b38103f34e5",
      "scriptpubkey_asm": "OP_0 OP_PUSHBYTES_20 862173e0244bbbc14d526f84aaa22b38103f34e5",
      "scriptpubkey_type": "v0_p2wpkh",
      "scriptpubkey_address": "bc1qscsh8cpyfwauzn2jd7z24g3t8qgr7d89qfmypr",
      "value": 460000
    },
    {
      "scriptpubkey": "0014422a1c500ba1150f42c65ac7b2ddb161792a2999",
      "scriptpubkey_asm": "OP_0 OP_PUSHBYTES_20 422a1c500ba1150f42c65ac7b2ddb161792a2999",
      "scriptpubkey_type": "v0_p2wpkh",
      "scriptpubkey_address": "bc1qgg4pc5qt5y2s7skxttrm9hd3v9uj52vehewuz9",
      "value": 379000
    },
    {
      "scriptpubkey": "00147a6aaa29837941c42ceaa64cde3813d3cc635ef9",
      "scriptpubkey_asm": "OP_0 OP_PUSHBYTES_20 7a6aaa29837941c42ceaa64cde3813d3cc635ef9",
      "scriptpubkey_type": "v0_p2wpkh",
      "scriptpubkey_address": "bc1q0f4252vr09qugt825exduwqn60xxxhhehat0wf",
      "value": 167000
    },
    {
      "scriptpubkey": "a9149066c0e41aedf6bbf0057072db6b12c3b1048d0987",
      "scriptpubkey_asm": "OP_HASH160 OP_PUSHBYTES_20 9066c0e41aedf6bbf0057072db6b12c3b1048d09 OP_EQUAL",
      "scriptpubkey_type": "p2sh",
      "scriptpubkey_address": "3ErYKc1Ddcz9SRiFeX1jmdFb3KMDEWtk92",
      "value": 42000
    },
    {
      "scriptpubkey": "001438282257b342cdb6650dca7cd1b4fd4f9445e18d",
      "scriptpubkey_asm": "OP_0 OP_PUSHBYTES_20 38282257b342cdb6650dca7cd1b4fd4f9445e18d",
      "scriptpubkey_type": "v0_p2wpkh",
      "scriptpubkey_address": "bc1q8q5zy4angtxmvegdef7drd8af72ytcvdhq29ag",
      "value": 141000
    },
    {
      "scriptpubkey": "0014af52b4ff919bf815c527aee1d6924e175dde0624",
      "scriptpubkey_asm": "OP_0 OP_PUSHBYTES_20 af52b4ff919bf815c527aee1d6924e175dde0624",
      "scriptpubkey_type": "v0_p2wpkh",
      "scriptpubkey_address": "bc1q4aftflu3n0upt3f84msadyjwzawaup3yq8n7m8",
      "value": 1248000
    },
    {
      "scriptpubkey": "76a914e22faf610e3f7b13bfb45aad5970b95d42fdab9d88ac",
      "scriptpubkey_asm": "OP_DUP OP_HASH160 OP_PUSHBYTES_20 e22faf610e3f7b13bfb45aad5970b95d42fdab9d OP_EQUALVERIFY OP_CHECKSIG",
      "scriptpubkey_type": "p2pkh",
      "scriptpubkey_address": "1Mcxqa717s6x2cAbux4aGuayHoCML7qbNg",
      "value": 32000
    },
    {
      "scriptpubkey": "00148afc975375cda2ae990b88bb624f39cf0c78b052",
      "scriptpubkey_asm": "OP_0 OP_PUSHBYTES_20 8afc975375cda2ae990b88bb624f39cf0c78b052",
      "scriptpubkey_type": "v0_p2wpkh",
      "scriptpubkey_address": "bc1q3t7fw5m4ek32axgt3zakyneeeux83vzjfc95dx",
      "value": 472369416
    }
  ],
  "size": 1375,
  "weight": 5170,
  "fee": 21722,
  "status": {
    "confirmed": true,
    "block_height": 834638,
    "block_hash": "000000000000000000025f742c626208ac87e0b7d15054abb4a19ca2d735a54e",
    "block_time": 1710405325
  },
  "hex": "01000000000101af65081395316e7863bb1b03e346476f9085fa3b6a68bd353c1e1f5cf9a373aa1b00000000ffffffff26b88800000000000016001446fcbba3750343c7aa576da6da7c698cd5fd09ff007d000000000000160014f689f144455a1392cb68d112ce821a30cd3643b03838030000000000160014c80eb4a98ae8480971b21e90dad13367e29581a3580903000000000017a91479ef782a880e722ff74d22fd23a2687d4ebb11fb87c82c0100000000001600144d77242cea1e7a7b7fb61596a6f321aac0a1e01e50040b0000000000160014742697d8d88ea78c7aa2eb4744dc40e3135ddea3f8590d0000000000160014d67d1adbd70660a89add84057b9bdc6c194583e208930a0000000000160014f68a05e6ab22c87fca09be233e5b826b1a5422d528940200000000001600146fb572a495a925098a5b03238a8bcecaf3147284885a0900000000001976a9142cefd3e573bdc981ae601459721006a7f783ab8088ac383e02000000000016001420b60eab7b9b6c605edcb5d3716e000c669b4aa7b030010000000000160014c162d511acdbe9fcf347e67856f34f78e6183022b02a020000000000160014734d9b6310af02a83f623e2c3b468fb53b31065058d90a0000000000160014a85883ac15c7c0ef122984812e2db9b8d85c6cef908e0e000000000016001407a56dfdbae0dd17c1b284f749ffc4bcff808445e88000000000000017a914b9188609eaeae2ed8a946b5203fb0e87b90ee8d487b8ff0100000000001976a914a31d789ea036f58a74aa6c6a5835e8c876bce1b888ac983a0000000000001600146f57bcc6c4f24ae82b95d86006a12f6745c08a4c58f10600000000001976a914415d6d1ccf2d8d8e4af28afea58323ff9490fc2c88aca8ae080000000000160014d4986a6a782bd8f5426e04514363a7cc95917fa4785d020000000000220020d3ba8764e3dd840defdf614d0ac4254f39f59f2356d950796f525c92d38958f308d41400000000001976a9140ea8f401f4938f6ab5652721a02a60c370c4e8a088ac8097060000000000160014892f7def092261d54799618a325289cfabf85de440130200000000001600143d7c1f25a5950d49ae8688fa392490344e0305f0a0663000000000001976a914d428963e6ed14bf3db24efd61c4298e5700924c288ac007d0000000000001600140df3cdfc17253c9bc9b5bc40c2393cb691838b68e02801000000000016001477c032cb60b5434f09cf6f3ad83c674547e8249c90e20000000000001600145d3cd9fab9c5c851c893fd9eba72f2f0052419d950b1030000000000160014b36c291ce35e1a36077d36cf69f1368fede4fbc4083a0400000000001976a91402413356b544c3d982d545bc233fd25e1668cf0c88ace004070000000000160014862173e0244bbbc14d526f84aaa22b38103f34e578c8050000000000160014422a1c500ba1150f42c65ac7b2ddb161792a2999588c0200000000001600147a6aaa29837941c42ceaa64cde3813d3cc635ef910a400000000000017a9149066c0e41aedf6bbf0057072db6b12c3b1048d0987c82602000000000016001438282257b342cdb6650dca7cd1b4fd4f9445e18d000b130000000000160014af52b4ff919bf815c527aee1d6924e175dde0624007d0000000000001976a914e22faf610e3f7b13bfb45aad5970b95d42fdab9d88ac08c9271c000000001600148afc975375cda2ae990b88bb624f39cf0c78b05202483045022100cc4b9da3cb7325db5a91dad4e7062e0e65491d5c53289a4f7ecd7264518b655002204885507624e9386aadc00f069ef9271b071fb55712e9b2a70c53190f5fda8d11012103880878b885b5f2e6d8feb894dd48815922ebefb7320205c91c1f6575c1c1647c00000000"
}