{
  "txid": "6226705afed99320bace07ccf602f07993f30829760258eb15e6431078031907",
  "version": 2,
  "locktime": 0,
  "vin": [
    {
      "txid": "acc3ba00869acb582a3f2904ce3a11dd3779350ce234063fc7d0959246213364",
      "vout": 239,
      "prevout": {
        "scriptpubkey": "5120316e069f521ef96cae7fd2350548f6f09816af5ee52380d27f42bb4544a4abf0",
        "scriptpubkey_asm": "OP_PUSHNUM_1 OP_PUSHBYTES_32 316e069f521ef96cae7fd2350548f6f09816af5ee52380d27f42bb4544a4abf0",
        "scriptpubkey_type": "v1_p2tr",
        "scriptpubkey_address": "bc1px9hqd86jrmuketnl6g6s2j8k7zvpdt67u53cp5nlg2a5239y40cqruc4xe",
        "value": 1806
      },
      "scriptsig": "",
      "scriptsig_asm": "",
      "witness": [
        "4d180c9a3bf1d7333a9b10a8285a7846e5ea1480d05ed76c95795114a808efe306362a594c2ccbb11569fbccb4c93e2153608a4f7d08eb1ae9f70b1a6d086562",
        "20c5683e572e003b29a12a1443255e8a69fba266561f08e0d11f0cf11f358d4541ac0063036f726401010a746578742f706c61696e00357b2270223a226272632d3230222c226f70223a226d696e74222c227469636b223a22646f6765222c22616d74223a2234323030227d68",
        "c1c5683e572e003b29a12a1443255e8a69fba266561f08e0d11f0cf11f358d4541"
      ],
      "is_coinbase": false,
      "sequence": 4261412863
    }
  ],
  "vout": [
    {
      "scriptpubkey": "00147a665de7a370f4c9b372ab1fae587500a5bcbdb4",
      "scriptpubkey_asm": "OP_0 OP_PUSHBYTES_20 7a665de7a370f4c9b372ab1fae587500a5bcbdb4",
      "scriptpubkey_type": "v0_p2wpkh",
      "scriptpubkey_address": "bc1q0fn9mearwr6vnvmj4v06ukr4qzjme0d565dzcx",
      "value": 294
    }
  ],
  "size": 294,
  "weight": 540,
  "fee": 1512,
  "status": {
    "confirmed": true,
    "block_height": 834460,
    "block_hash": "00000000000000000000484a79b643b2524bbce82e5d8a442013fa5b8905ed98",
    "block_time": 1710307468
  },
  "hex": "02000000000101643321469295d0c73f0634e20c357937dd113ace04293f2a58cb9a8600bac3acef00000000fffffffd0126010000000000001600147a665de7a370f4c9b372ab1fae587500a5bcbdb403404d180c9a3bf1d7333a9b10a8285a7846e5ea1480d05ed76c95795114a808efe306362a594c2ccbb11569fbccb4c93e2153608a4f7d08eb1ae9f70b1a6d0865626d20c5683e572e003b29a12a1443255e8a69fba266561f08e0d11f0cf11f358d4541ac0063036f726401010a746578742f706c61696e00357b2270223a226272632d3230222c226f70223a226d696e74222c227469636b223a22646f6765222c22616d74223a2234323030227d6821c1c5683e572e003b29a12a1443255e8a69fba266561f08e0d11f0cf11f358d454100000000"
}