{
  "txid": "623beca6a69c5fba9d31d49200b9495e2890b57075009c0342f4bfaf5f3a47a4",
  "version": 2,
  "locktime": 0,
  "vin": [
    {
      "txid": "7808a697404c151b3325c63b957636349cfca5c002c8191de96325e331be3c1a",
      "vout": 0,
      "prevout": {
        "scriptpubkey": "a914922e04300b3ebebd3f1e429019b520eb2190b8e287",
        "scriptpubkey_asm": "OP_HASH160 OP_PUSHBYTES_20 922e04300b3ebebd3f1e429019b520eb2190b8e2 OP_EQUAL",
        "scriptpubkey_type": "p2sh",
        "scriptpubkey_address": "3F1whpisKVTnZ9gcz7L2YcthgAoRSuPs4W",
        "value": 98797
      },
      "scriptsig": "160014628ca8bc1f3f150d7a7cbb04b978d52b66cf90b7",
      "scriptsig_asm": "OP_PUSHBYTES_22 0014628ca8bc1f3f150d7a7cbb04b978d52b66cf90b7",
      "witness": [
        "3045022100efb0ed224240690e03f23242100b32129875e06d5540afe1a095f34eb00be9bf0220691fe56b89e0ab21d6b8abc2366cc6706554bf911ad4e3e1574616fb9a46b82e01",
        "02c775370e817868d3f1c43136c9359dbc9e13c393202c6895822c49c7ecc08333"
      ],
      "is_coinbase": false,
      "sequence": 4294967295,
      "inner_redeemscript_asm": "OP_0 OP_PUSHBYTES_20 628ca8bc1f3f150d7a7cbb04b978d52b66cf90b7"
    }
  ],
  "vout": [
    {
      "scriptpubkey": "51207937e30d92619282d898f2157385de9fb1500a0b3cd906b97835208f322d49cd",
      "scriptpubkey_asm": "OP_PUSHNUM_1 OP_PUSHBYTES_32 7937e30d92619282d898f2157385de9fb1500a0b3cd906b97835208f322d49cd",
      "scriptpubkey_type": "v1_p2tr",
      "scriptpubkey_address": "bc1p0ym7xrvjvxfg9kyc7g2h8pw7n7c4qzst8nvsdwtcx5sg7v3df8xs0nt3vf",
      "value": 39846
    },
    {
      "scriptpubkey": "0014d741113f27cd236d8dcdd57fe0cc20f81331659d",
      "scriptpubkey_asm": "OP_0 OP_PUSHBYTES_20 d741113f27cd236d8dcdd57fe0cc20f81331659d",
      "scriptpubkey_type": "v0_p2wpkh",
      "scriptpubkey_address": "bc1q6aq3z0e8e53kmrwd64l7pnpqlqfnzevayq0hjj",
      "value": 49217
    },
    {
      "scriptpubkey": "a914922e04300b3ebebd3f1e429019b520eb2190b8e287",
      "scriptpubkey_asm": "OP_HASH160 OP_PUSHBYTES_20 922e04300b3ebebd3f1e429019b520eb2190b8e2 OP_EQUAL",
      "scriptpubkey_type": "p2sh",
      "scriptpubkey_address": "3F1whpisKVTnZ9gcz7L2YcthgAoRSuPs4W",
      "value": 5782
    }
  ],
  "size": 290,
  "weight": 830,
  "fee": 3952,
  "status": {
    "confirmed": true,
    "block_height": 834638,
    "block_hash": "000000000000000000025f742c626208ac87e0b7d15054abb4a19ca2d735a54e",
    "block_time": 1710405325
  },
  "hex": "020000000001011a3cbe31e32563e91d19c802c0a5fc9c343676953bc625331b154c4097a608780000000017160014628ca8bc1f3f150d7a7cbb04b978d52b66cf90b7ffffffff03a69b0000000000002251207937e30d92619282d898f2157385de9fb1500a0b3cd906b97835208f322d49cd41c0000000000000160014d741113f27cd236d8dcdd57fe0cc20f81331659d961600000000000017a914922e04300b3ebebd3f1e429019b520eb2190b8e28702483045022100efb0ed224240690e03f23242100b32129875e06d5540afe1a095f34eb00be9bf0220691fe56b89e0ab21d6b8abc2366cc6706554bf911ad4e3e1574616fb9a46b82e012102c775370e817868d3f1c43136c9359dbc9e13c393202c6895822c49c7ecc0833300000000"
}