{
  "txid": "623d128c689a3fb4ad54a8354feed630c7c053eb76a11a5a0280d7d9e65d9c4d",
  "version": 2,
  "locktime": 0,
  "vin": [
    {
      "txid": "b4f861c839d254b3378f3ccb5d8dc8f9caaff02afe2cd6f5eb10344ca885f525",
      "vout": 1,
      "prevout": {
        "scriptpubkey": "76a91495e3a864fb90acf50e5b37cb25cb4ae59a71fd7f88ac",
        "scriptpubkey_asm": "OP_DUP OP_HASH160 OP_PUSHBYTES_20 95e3a864fb90acf50e5b37cb25cb4ae59a71fd7f OP_EQUALVERIFY OP_CHECKSIG",
        "scriptpubkey_type": "p2pkh",
        "scriptpubkey_address": "1EfYQXMYmuFt8EHAQyqohMDTNxm9X1NnJk",
        "value": 23523339
      },
      "scriptsig": "473044022061839c02109cebd364da75c410b4cb5a86bb9892d6970d9e7141ce2b9ad56149022063ca4fe5ef7626e72509ffff52fddfa4c2ffc7bbcfca4ce65f96c283c976463c01210204f090935e1903a7d87e759399280a988b0efeb47d09b159c59855e9a5e51f1a",
      "scriptsig_asm": "OP_PUSHBYTES_71 3044022061839c02109cebd364da75c410b4cb5a86bb9892d6970d9e7141ce2b9ad56149022063ca4fe5ef7626e72509ffff52fddfa4c2ffc7bbcfca4ce65f96c283c976463c01 OP_PUSHBYTES_33 0204f090935e1903a7d87e759399280a988b0efeb47d09b159c59855e9a5e51f1a",
      "is_coinbase": false,
      "sequence": 4294967295
    }
  ],
  "vout": [
    {
      "scriptpubkey": "0014df2c33bef2849dce145fe2281b5a23c18c48741d",
      "scriptpubkey_asm": "OP_0 OP_PUSHBYTES_20 df2c33bef2849dce145fe2281b5a23c18c48741d",
      "scriptpubkey_type": "v0_p2wpkh",
      "scriptpubkey_address": "bc1qmukr80hjsjwuu9zlug5pkk3rcxxysaqaftdls9",
      "value": 100000
    },
    {
      "scriptpubkey": "0014fc260049088190263aeb053bada6c664db25168d",
      "scriptpubkey_asm": "OP_0 OP_PUSHBYTES_20 fc260049088190263aeb053bada6c664db25168d",
      "scriptpubkey_type": "v0_p2wpkh",
      "scriptpubkey_address": "bc1qlsnqqjggsxgzvwhtq5a6mfkxvndj295dclz638",
      "value": 527673
    },
    {
      "scriptpubkey": "a914b30018e7ec9c4ef60e3f4cc152130c272851481d87",
      "scriptpubkey_asm": "OP_HASH160 OP_PUSHBYTES_20 b30018e7ec9c4ef60e3f4cc152130c272851481d OP_EQUAL",
      "scriptpubkey_type": "p2sh",
      "scriptpubkey_address": "3J1Uze95XiSweGGQxfxkF4rqDEWgPhjXxR",
      "value": 2946768
    },
    {
      "scriptpubkey": "76a914277e7e47cc38f7c2472f4141c01f358d0341f73188ac",
      "scriptpubkey_asm": "OP_DUP OP_HASH160 OP_PUSHBYTES_20 277e7e47cc38f7c2472f4141c01f358d0341f731 OP_EQUALVERIFY OP_CHECKSIG",
      "scriptpubkey_type": "p2pkh",
      "scriptpubkey_address": "14bptPYq9fGtz3ong7wHPS5hmR9DHhB2dF",
      "value": 19942859
    }
  ],
  "size": 285,
  "weight": 1140,
  "fee": 6039,
  "status": {
    "confirmed": true,
    "block_height": 834638,
    "block_hash": "000000000000000000025f742c626208ac87e0b7d15054abb4a19ca2d735a54e",
    "block_time": 1710405325
  },
  "hex": "020000000125f585a84c3410ebf5d62cfe2af0afcaf9c88d5dcb3c8f37b354d239c861f8b4010000006a473044022061839c02109cebd364da75c410b4cb5a86bb9892d6970d9e7141ce2b9ad56149022063ca4fe5ef7626e72509ffff52fddfa4c2ffc7bbcfca4ce65f96c283c976463c01210204f090935e1903a7d87e759399280a988b0efeb47d09b159c59855e9a5e51f1affffffff04a086010000000000160014df2c33bef2849dce145fe2281b5a23c18c48741d390d080000000000160014fc260049088190263aeb053bada6c664db25168dd0f62c000000000017a914b30018e7ec9c4ef60e3f4cc152130c272851481d87cb4d3001000000001976a914277e7e47cc38f7c2472f4141c01f358d0341f73188ac00000000"
}