{
  "txid": "624317485b0dea29daaec6fd6bb7fda31cc6ea00e3efb5efed4aff14d0068a4c",
  "version": 2,
  "locktime": 0,
  "vin": [
    {
      "txid": "bda488d30080da3a35dece515a08462552e64926a079016d118dbb9eee9aec74",
      "vout": 1,
      "prevout": {
        "scriptpubkey": "0014f60834ef165253c571b11ce9fa74e46692fc5ec1",
        "scriptpubkey_asm": "OP_0 OP_PUSHBYTES_20 f60834ef165253c571b11ce9fa74e46692fc5ec1",
        "scriptpubkey_type": "v0_p2wpkh",
        "scriptpubkey_address": "bc1q7cyrfmck2ffu2ud3rn5l5a8yv6f0chkp0zpemf",
        "value": 758269075
      },
      "scriptsig": "",
      "scriptsig_asm": "",
      "witness": [
        "3045022100fbf726347f53c45e1835e8437a6707ffd21d760e0c5974f4598aefbbd2f0b366022030c353143e9fc2bcc985b6a1f6a6794fb2b8a8d1e2265bab314541f1aa72724101",
        "026e5628506ecd33242e5ceb5fdafe4d3066b5c0f159b3c05a621ef65f177ea286"
      ],
      "is_coinbase": false,
      "sequence": 4294967293
    }
  ],
  "vout": [
    {
      "scriptpubkey": "001421cd6c698e9b5b7440167f1db95be4803a5db0a3",
      "scriptpubkey_asm": "OP_0 OP_PUSHBYTES_20 21cd6c698e9b5b7440167f1db95be4803a5db0a3",
      "scriptpubkey_type": "v0_p2wpkh",
      "scriptpubkey_address": "bc1qy8xkc6vwnddhgsqk0uwmjklysqa9mv9r2hk25t",
      "value": 1561320
    },
    {
      "scriptpubkey": "0014f60834ef165253c571b11ce9fa74e46692fc5ec1",
      "scriptpubkey_asm": "OP_0 OP_PUSHBYTES_20 f60834ef165253c571b11ce9fa74e46692fc5ec1",
      "scriptpubkey_type": "v0_p2wpkh",
      "scriptpubkey_address": "bc1q7cyrfmck2ffu2ud3rn5l5a8yv6f0chkp0zpemf",
      "value": 756704875
    }
  ],
  "size": 223,
  "weight": 562,
  "fee": 2880,
  "status": {
    "confirmed": true,
    "block_height": 834464,
    "block_hash": "0000000000000000000177a0869a911a2b65c9bdcd5a8bcb02b68f305bee848e",
    "block_time": 1710308296
  },
  "hex": "0200000000010174ec9aee9ebb8d116d0179a02649e6522546085a51cede353ada8000d388a4bd0100000000fdffffff02e8d217000000000016001421cd6c698e9b5b7440167f1db95be4803a5db0a36b661a2d00000000160014f60834ef165253c571b11ce9fa74e46692fc5ec102483045022100fbf726347f53c45e1835e8437a6707ffd21d760e0c5974f4598aefbbd2f0b366022030c353143e9fc2bcc985b6a1f6a6794fb2b8a8d1e2265bab314541f1aa7272410121026e5628506ecd33242e5ceb5fdafe4d3066b5c0f159b3c05a621ef65f177ea28600000000"
}