{
  "txid": "62446c242dfe108964b2347b1ac672f95dc6533d5a18a8588b3eb85c12988ecc",
  "version": 2,
  "locktime": 0,
  "vin": [
    {
      "txid": "c2151d35cc52cda5650f18e7b0a72987f063ca94d8b749c8fc82cc884007853f",
      "vout": 0,
      "prevout": {
        "scriptpubkey": "0014a254da759284926c67611e35588faaeb8b45d24f",
        "scriptpubkey_asm": "OP_0 OP_PUSHBYTES_20 a254da759284926c67611e35588faaeb8b45d24f",
        "scriptpubkey_type": "v0_p2wpkh",
        "scriptpubkey_address": "bc1q5f2d5avjsjfxcemprc643ra2aw95t5j0556vtr",
        "value": 4281041
      },
      "scriptsig": "",
      "scriptsig_asm": "",
      "witness": [
        "304402207f2956467d9fc90bc5ef0fe55e8e9bb82e8b8888da7071a9601ef31bb840dba302202c58483eaf77e9f2a9493f89b420bddf9d60f31420935d0e5dddbc0e3a25fceb01",
        "03cc4a157e25cb6733aad0a6d7b66bf3e768cfd7e3291e14971da77e92ef0d16ff"
      ],
      "is_coinbase": false,
      "sequence": 4294967293
    }
  ],
  "vout": [
    {
      "scriptpubkey": "0014a254da759284926c67611e35588faaeb8b45d24f",
      "scriptpubkey_asm": "OP_0 OP_PUSHBYTES_20 a254da759284926c67611e35588faaeb8b45d24f",
      "scriptpubkey_type": "v0_p2wpkh",
      "scriptpubkey_address": "bc1q5f2d5avjsjfxcemprc643ra2aw95t5j0556vtr",
      "value": 4278225
    }
  ],
  "size": 191,
  "weight": 437,
  "fee": 2816,
  "status": {
    "confirmed": true,
    "block_height": 834638,
    "block_hash": "000000000000000000025f742c626208ac87e0b7d15054abb4a19ca2d735a54e",
    "block_time": 1710405325
  },
  "hex": "020000000001013f85074088cc82fcc849b7d894ca63f08729a7b0e7180f65a5cd52cc351d15c20000000000fdffffff01d147410000000000160014a254da759284926c67611e35588faaeb8b45d24f0247304402207f2956467d9fc90bc5ef0fe55e8e9bb82e8b8888da7071a9601ef31bb840dba302202c58483eaf77e9f2a9493f89b420bddf9d60f31420935d0e5dddbc0e3a25fceb012103cc4a157e25cb6733aad0a6d7b66bf3e768cfd7e3291e14971da77e92ef0d16ff00000000"
}