{
  "txid": "62491dd0196237a61927cb70a00e4a920dacbf38ddc00065dade6ea0fd275384",
  "version": 2,
  "locktime": 0,
  "vin": [
    {
      "txid": "7a6acb95e1f26abdc94991f977565a61a3c925edaeb51fdc6069d9b74fae726d",
      "vout": 0,
      "prevout": {
        "scriptpubkey": "76a914ad8e74e5574464295e69237809992736cba5921988ac",
        "scriptpubkey_asm": "OP_DUP OP_HASH160 OP_PUSHBYTES_20 ad8e74e5574464295e69237809992736cba59219 OP_EQUALVERIFY OP_CHECKSIG",
        "scriptpubkey_type": "p2pkh",
        "scriptpubkey_address": "1GpgZFJ5LCYXfzArxSy24KxdRtCbpuwyXX",
        "value": 11837
      },
      "scriptsig": "483045022100ea5991beb89f3c7ffba6380a60d29399685457b824a93923ed33e79722a26652022060be897c0dc8ffe8901af96841f475ec3add97e2deedc6774711f2ecad9a4f75012102370f19e9925f690d02cf6362eaf1673015c7471b84eeec4f6423bcdfc20aba72",
      "scriptsig_asm": "OP_PUSHBYTES_72 3045022100ea5991beb89f3c7ffba6380a60d29399685457b824a93923ed33e79722a26652022060be897c0dc8ffe8901af96841f475ec3add97e2deedc6774711f2ecad9a4f7501 OP_PUSHBYTES_33 02370f19e9925f690d02cf6362eaf1673015c7471b84eeec4f6423bcdfc20aba72",
      "is_coinbase": false,
      "sequence": 4294967295
    }
  ],
  "vout": [
    {
      "scriptpubkey": "00145d58d9cc4137c91f772d6e2ed3eced881fdb34bd",
      "scriptpubkey_asm": "OP_0 OP_PUSHBYTES_20 5d58d9cc4137c91f772d6e2ed3eced881fdb34bd",
      "scriptpubkey_type": "v0_p2wpkh",
      "scriptpubkey_address": "bc1qt4vdnnzpxly37aeddchd8m8d3q0akd9avztepp",
      "value": 9778
    }
  ],
  "size": 189,
  "weight": 756,
  "fee": 2059,
  "status": {
    "confirmed": true,
    "block_height": 834464,
    "block_hash": "0000000000000000000177a0869a911a2b65c9bdcd5a8bcb02b68f305bee848e",
    "block_time": 1710308296
  },
  "hex": "02000000016d72ae4fb7d96960dc1fb5aeed25c9a3615a5677f99149c9bd6af2e195cb6a7a000000006b483045022100ea5991beb89f3c7ffba6380a60d29399685457b824a93923ed33e79722a26652022060be897c0dc8ffe8901af96841f475ec3add97e2deedc6774711f2ecad9a4f75012102370f19e9925f690d02cf6362eaf1673015c7471b84eeec4f6423bcdfc20aba72ffffffff0132260000000000001600145d58d9cc4137c91f772d6e2ed3eced881fdb34bd00000000"
}