{
  "txid": "625656df09de81b47d05a764145bdd6aee1623139b5c3c22bc4af0a61b50c1ce",
  "version": 2,
  "locktime": 0,
  "vin": [
    {
      "txid": "6367b1c718a780a3d786b9b63f0244bc3c2d519b42dab7c31b1b138c9146d668",
      "vout": 12,
      "prevout": {
        "scriptpubkey": "512015026a9fd41b300a07335011016c8129ee17c869d549f3de12016b778f3e0e97",
        "scriptpubkey_asm": "OP_PUSHNUM_1 OP_PUSHBYTES_32 15026a9fd41b300a07335011016c8129ee17c869d549f3de12016b778f3e0e97",
        "scriptpubkey_type": "v1_p2tr",
        "scriptpubkey_address": "bc1pz5px4875rvcq5pen2qgszmyp98hp0jrf64yl8hsjq94h0re7p6tsufcrat",
        "value": 1075000
      },
      "scriptsig": "",
      "scriptsig_asm": "",
      "witness": [
        "a26d24dad93c3b0baeb376020023412b41ea5fd78c41d99887cd667a827bff886e2e39fdbe21d31eadadb69e29a748a3c762bb3dbf3d35653560a10a972c8128"
      ],
      "is_coinbase": false,
      "sequence": 4294967293
    }
  ],
  "vout": [
    {
      "scriptpubkey": "00145f35a124069683ddeb2f1726e9a1173f9340c87e",
      "scriptpubkey_asm": "OP_0 OP_PUSHBYTES_20 5f35a124069683ddeb2f1726e9a1173f9340c87e",
      "scriptpubkey_type": "v0_p2wpkh",
      "scriptpubkey_address": "bc1qtu66zfqxj6pam6e0zunwnggh87f5pjr7vdr5cd",
      "value": 1000000
    },
    {
      "scriptpubkey": "0014fb7a185fc47428a9992c09f70c6add47a5c19223",
      "scriptpubkey_asm": "OP_0 OP_PUSHBYTES_20 fb7a185fc47428a9992c09f70c6add47a5c19223",
      "scriptpubkey_type": "v0_p2wpkh",
      "scriptpubkey_address": "bc1qldapsh7yws52nxfvp8msc6kag7jury3rxrw4dm",
      "value": 30000
    },
    {
      "scriptpubkey": "512015026a9fd41b300a07335011016c8129ee17c869d549f3de12016b778f3e0e97",
      "scriptpubkey_asm": "OP_PUSHNUM_1 OP_PUSHBYTES_32 15026a9fd41b300a07335011016c8129ee17c869d549f3de12016b778f3e0e97",
      "scriptpubkey_type": "v1_p2tr",
      "scriptpubkey_address": "bc1pz5px4875rvcq5pen2qgszmyp98hp0jrf64yl8hsjq94h0re7p6tsufcrat",
      "value": 40653
    }
  ],
  "size": 224,
  "weight": 692,
  "fee": 4347,
  "status": {
    "confirmed": true,
    "block_height": 834638,
    "block_hash": "000000000000000000025f742c626208ac87e0b7d15054abb4a19ca2d735a54e",
    "block_time": 1710405325
  },
  "hex": "0200000000010168d646918c131b1bc3b7da429b512d3cbc44023fb6b986d7a380a718c7b167630c00000000fdffffff0340420f00000000001600145f35a124069683ddeb2f1726e9a1173f9340c87e3075000000000000160014fb7a185fc47428a9992c09f70c6add47a5c19223cd9e00000000000022512015026a9fd41b300a07335011016c8129ee17c869d549f3de12016b778f3e0e970140a26d24dad93c3b0baeb376020023412b41ea5fd78c41d99887cd667a827bff886e2e39fdbe21d31eadadb69e29a748a3c762bb3dbf3d35653560a10a972c812800000000"
}