{
  "txid": "62602d5306f7404e2d7203ad3d64a0da646e79cbeb6a09f0038eeee65949d60a",
  "version": 1,
  "locktime": 0,
  "vin": [
    {
      "txid": "4a8d13514388cc80ccdf7695349632abaf2ebbf5ffce4839955ffbad15fa50b9",
      "vout": 1,
      "prevout": {
        "scriptpubkey": "76a9141e7c72c338f790b929422397218d8785a4aeda6188ac",
        "scriptpubkey_asm": "OP_DUP OP_HASH160 OP_PUSHBYTES_20 1e7c72c338f790b929422397218d8785a4aeda61 OP_EQUALVERIFY OP_CHECKSIG",
        "scriptpubkey_type": "p2pkh",
        "scriptpubkey_address": "13nCMaHDNRGM29UfMMkhUQjHkVYY1ZyrpU",
        "value": 74210731
      },
      "scriptsig": "4830450221009cec3d1952a6cdf0a2db2a5faeaa79a9b540a09d929ea49a9917ce7ed8eeb24a0220747e3c5405c7d7b690206565d13273ac3bce4489ae39b35943298e962f3595ff0121031e9a636ef528970636cc811384ffde2a2c6d131a67d02e8e082b0c09c1669f54",
      "scriptsig_asm": "OP_PUSHBYTES_72 30450221009cec3d1952a6cdf0a2db2a5faeaa79a9b540a09d929ea49a9917ce7ed8eeb24a0220747e3c5405c7d7b690206565d13273ac3bce4489ae39b35943298e962f3595ff01 OP_PUSHBYTES_33 031e9a636ef528970636cc811384ffde2a2c6d131a67d02e8e082b0c09c1669f54",
      "is_coinbase": false,
      "sequence": 1
    }
  ],
  "vout": [
    {
      "scriptpubkey": "76a914dcc2f01fac4817a9ea1e3c51a6e5bb5dff39665988ac",
      "scriptpubkey_asm": "OP_DUP OP_HASH160 OP_PUSHBYTES_20 dcc2f01fac4817a9ea1e3c51a6e5bb5dff396659 OP_EQUALVERIFY OP_CHECKSIG",
      "scriptpubkey_type": "p2pkh",
      "scriptpubkey_address": "1M8HBjQqNNqmYTqfinQ7Nb1CVeU55dQcVs",
      "value": 2263176
    },
    {
      "scriptpubkey": "76a9141e7c72c338f790b929422397218d8785a4aeda6188ac",
      "scriptpubkey_asm": "OP_DUP OP_HASH160 OP_PUSHBYTES_20 1e7c72c338f790b929422397218d8785a4aeda61 OP_EQUALVERIFY OP_CHECKSIG",
      "scriptpubkey_type": "p2pkh",
      "scriptpubkey_address": "13nCMaHDNRGM29UfMMkhUQjHkVYY1ZyrpU",
      "value": 71942809
    }
  ],
  "size": 226,
  "weight": 904,
  "fee": 4746,
  "status": {
    "confirmed": true,
    "block_height": 834638,
    "block_hash": "000000000000000000025f742c626208ac87e0b7d15054abb4a19ca2d735a54e",
    "block_time": 1710405325
  },
  "hex": "0100000001b950fa15adfb5f953948cefff5bb2eafab3296349576dfcc80cc884351138d4a010000006b4830450221009cec3d1952a6cdf0a2db2a5faeaa79a9b540a09d929ea49a9917ce7ed8eeb24a0220747e3c5405c7d7b690206565d13273ac3bce4489ae39b35943298e962f3595ff0121031e9a636ef528970636cc811384ffde2a2c6d131a67d02e8e082b0c09c1669f54010000000288882200000000001976a914dcc2f01fac4817a9ea1e3c51a6e5bb5dff39665988ac99c24904000000001976a9141e7c72c338f790b929422397218d8785a4aeda6188ac00000000"
}