{
  "txid": "626a3586c13085feb31c4ef0d19049f34e79f34e811aa66691642f40d98c7a1a",
  "version": 2,
  "locktime": 0,
  "vin": [
    {
      "txid": "9ef131b5ddde658f237aa22522b1fdf2335f6f1d1c51c0bfebef944ef4fdc4b6",
      "vout": 0,
      "prevout": {
        "scriptpubkey": "51204b3def6b7bdf9758a317f5eafc03b3a744cc6bb7dad731af7edbfbb555c2be75",
        "scriptpubkey_asm": "OP_PUSHNUM_1 OP_PUSHBYTES_32 4b3def6b7bdf9758a317f5eafc03b3a744cc6bb7dad731af7edbfbb555c2be75",
        "scriptpubkey_type": "v1_p2tr",
        "scriptpubkey_address": "bc1pfv7776mmm7t43gch7h40cqan5azvc6ahmttnrtm7m0am24wzhe6smdt3m6",
        "value": 546
      },
      "scriptsig": "",
      "scriptsig_asm": "",
      "witness": [
        "62198c48864e39199bdc1c24b47a13ec48331477fd6c0f4fb79c119638050ecad4588ededbe2093d64c2b18c3190cbd68d6e6c3eb8c1054ffe217e0e72f17d08"
      ],
      "is_coinbase": false,
      "sequence": 4294967293
    },
    {
      "txid": "5970eb6afd382a8ef569a52369c5f7044b0dd1d85114ffe8fd1ba8833b80dfa2",
      "vout": 1,
      "prevout": {
        "scriptpubkey": "51208185cbba05d5c743c01815ff1c5a4bb35ae3a967c75455419619db3060479cd6",
        "scriptpubkey_asm": "OP_PUSHNUM_1 OP_PUSHBYTES_32 8185cbba05d5c743c01815ff1c5a4bb35ae3a967c75455419619db3060479cd6",
        "scriptpubkey_type": "v1_p2tr",
        "scriptpubkey_address": "bc1psxzuhws96hr58sqczhl3ckjtkddw82t8ca292svkr8dnqcz8nntq82mp5d",
        "value": 10296
      },
      "scriptsig": "",
      "scriptsig_asm": "",
      "witness": [
        "732213ada27cee5e2b16c7f1ba5785b33f0683d5fa034ca89d0b51d67d4e67e83820cfda2dd2cdc863760e5e2d86bf2d105c568a811ffcfeee75371d4daf5d64"
      ],
      "is_coinbase": false,
      "sequence": 4294967293
    }
  ],
  "vout": [
    {
      "scriptpubkey": "51203863ee247d81f74f5e191d80e32144df0dbdace9be51ab88a63080ac18e61773",
      "scriptpubkey_asm": "OP_PUSHNUM_1 OP_PUSHBYTES_32 3863ee247d81f74f5e191d80e32144df0dbdace9be51ab88a63080ac18e61773",
      "scriptpubkey_type": "v1_p2tr",
      "scriptpubkey_address": "bc1p8p37ufras8m57hserkqwxg2ymuxmmt8fheg6hz9xxzq2cx8xzaesp4p6c2",
      "value": 546
    },
    {
      "scriptpubkey": "5120faf709fcadd81e5cfb60fdcdc33133e49d66154b9358381d15565f1b95aaf9b4",
      "scriptpubkey_asm": "OP_PUSHNUM_1 OP_PUSHBYTES_32 faf709fcadd81e5cfb60fdcdc33133e49d66154b9358381d15565f1b95aaf9b4",
      "scriptpubkey_type": "v1_p2tr",
      "scriptpubkey_address": "bc1pltmsnl9dmq09e7mqlhxuxvfnujwkv92tjdvrs8g42e03h9d2lx6q03zvr3",
      "value": 6692
    }
  ],
  "size": 312,
  "weight": 846,
  "fee": 3604,
  "status": {
    "confirmed": true,
    "block_height": 834552,
    "block_hash": "00000000000000000001dd0468a70c94f619251d286585cff57aeb4bd9ede330",
    "block_time": 1710355598
  },
  "hex": "02000000000102b6c4fdf44e94efebbfc0511c1d6f5f33f2fdb12225a27a238f65deddb531f19e0000000000fdffffffa2df803b83a81bfde8ff1451d8d10d4b04f7c56923a569f58e2a38fd6aeb70590100000000fdffffff0222020000000000002251203863ee247d81f74f5e191d80e32144df0dbdace9be51ab88a63080ac18e61773241a000000000000225120faf709fcadd81e5cfb60fdcdc33133e49d66154b9358381d15565f1b95aaf9b4014062198c48864e39199bdc1c24b47a13ec48331477fd6c0f4fb79c119638050ecad4588ededbe2093d64c2b18c3190cbd68d6e6c3eb8c1054ffe217e0e72f17d080140732213ada27cee5e2b16c7f1ba5785b33f0683d5fa034ca89d0b51d67d4e67e83820cfda2dd2cdc863760e5e2d86bf2d105c568a811ffcfeee75371d4daf5d6400000000"
}