{
  "txid": "627320e8ddd3f373041722d98af6732ff47cbe0ba9e65c0994128f4f2885d45a",
  "version": 1,
  "locktime": 0,
  "vin": [
    {
      "txid": "43d3763e4e6a73d106609dea1a417946e43ae0fcde788731be3047c4c5beda08",
      "vout": 1,
      "prevout": {
        "scriptpubkey": "0014c611acc3049caec31f204bb9bd30d8689788a13f",
        "scriptpubkey_asm": "OP_0 OP_PUSHBYTES_20 c611acc3049caec31f204bb9bd30d8689788a13f",
        "scriptpubkey_type": "v0_p2wpkh",
        "scriptpubkey_address": "bc1qccg6escynjhvx8eqfwum6vxcdztc3gfl3350qn",
        "value": 2462462
      },
      "scriptsig": "",
      "scriptsig_asm": "",
      "witness": [
        "3045022100cb9043ff12abdbe340da10e78b9cfd3ba828a5c92edd7d9fbd8b10cc57b63eb702203835ee7d7f061bd08f371ede04fce84022f4c980078f561445af246a811a5b8901",
        "03159b3f9e9b899f4e651e1e73f8fe2f943fdd535bb6fa2081a93e5cabce32a4e9"
      ],
      "is_coinbase": false,
      "sequence": 4294967295
    }
  ],
  "vout": [
    {
      "scriptpubkey": "a91419ec1ea57fbcd038f409360c51557d2f1f5f223e87",
      "scriptpubkey_asm": "OP_HASH160 OP_PUSHBYTES_20 19ec1ea57fbcd038f409360c51557d2f1f5f223e OP_EQUAL",
      "scriptpubkey_type": "p2sh",
      "scriptpubkey_address": "3445gDzPydwJUMwRCQYVnx1cDd3ja2xmx3",
      "value": 769500
    },
    {
      "scriptpubkey": "0014e46c144bf9286d1a6b38a71079dcb0878b66ca2d",
      "scriptpubkey_asm": "OP_0 OP_PUSHBYTES_20 e46c144bf9286d1a6b38a71079dcb0878b66ca2d",
      "scriptpubkey_type": "v0_p2wpkh",
      "scriptpubkey_address": "bc1qu3kpgjle9pk356ec5ug8nh9ss79kdj3d8d8879",
      "value": 1689302
    }
  ],
  "size": 224,
  "weight": 566,
  "fee": 3660,
  "status": {
    "confirmed": true,
    "block_height": 834638,
    "block_hash": "000000000000000000025f742c626208ac87e0b7d15054abb4a19ca2d735a54e",
    "block_time": 1710405325
  },
  "hex": "0100000000010108dabec5c44730be318778defce03ae44679411aea9d6006d1736a4e3e76d3430100000000ffffffff02dcbd0b000000000017a91419ec1ea57fbcd038f409360c51557d2f1f5f223e87d6c6190000000000160014e46c144bf9286d1a6b38a71079dcb0878b66ca2d02483045022100cb9043ff12abdbe340da10e78b9cfd3ba828a5c92edd7d9fbd8b10cc57b63eb702203835ee7d7f061bd08f371ede04fce84022f4c980078f561445af246a811a5b89012103159b3f9e9b899f4e651e1e73f8fe2f943fdd535bb6fa2081a93e5cabce32a4e900000000"
}