{
  "txid": "62794f160c85497efb4fc594bb01d711dd4872d14382afb9edb362bd4d7b163a",
  "version": 2,
  "locktime": 0,
  "vin": [
    {
      "txid": "c10e48caeee8756d57fbce0e4f26c1d08bb9f0d4a35c2d26269682da8df04dac",
      "vout": 40,
      "prevout": {
        "scriptpubkey": "5120dbc5d9c4540aada68b0e150b529c9dbed2ee0d27710e91c1ed0f914006064efd",
        "scriptpubkey_asm": "OP_PUSHNUM_1 OP_PUSHBYTES_32 dbc5d9c4540aada68b0e150b529c9dbed2ee0d27710e91c1ed0f914006064efd",
        "scriptpubkey_type": "v1_p2tr",
        "scriptpubkey_address": "bc1pm0zan3z5p2k6dzcwz59498yahmfwurf8wy8frs0dp7g5qpsxfm7sy42s56",
        "value": 3634
      },
      "scriptsig": "",
      "scriptsig_asm": "",
      "witness": [
        "5f80fc7eca97ccd68a3b95b281cfc7592afcf4802e0bd1f3d402755adf8ea76914e61f27787dafc25f23df79d43252971229df5a7de43fbe6a498929c376b307",
        "209277ff96a7ba33729069bd739d766dab77b1d3e300d17deb7270ceedacc0dad4ac0063036f726401011e6170706c69636174696f6e2f6a736f6e3b636861727365743d7574662d38004cd37b2270223a22706f772d3230222c226f70223a226d696e74222c227469636b223a2250455045222c22616d74223a2231303030222c22736f6c7574696f6e223a22504550453a6263317071336e67663775716e73667434706d37357236397371616c6c30637068747278677773757a6d657864356c337039333566366d713666337664383a303030303030303030303030303030303030303139393431613561653132383937363539383134343239323533333030353762306461393666336465613163353a3434303437333031343937227d68",
        "c0406c0f2a67700582b42f36a71eb03478d57ba1acdc179ee1ec758acb282de3fd"
      ],
      "is_coinbase": false,
      "sequence": 4294967295
    }
  ],
  "vout": [
    {
      "scriptpubkey": "5120046684fb809c12ba877ea0f45803bffbf01bac6643a1c16f266d3f1096344eb6",
      "scriptpubkey_asm": "OP_PUSHNUM_1 OP_PUSHBYTES_32 046684fb809c12ba877ea0f45803bffbf01bac6643a1c16f266d3f1096344eb6",
      "scriptpubkey_type": "v1_p2tr",
      "scriptpubkey_address": "bc1pq3ngf7uqnsft4pm75r69sqall0cphtrxgwsuzmexd5l3p935f6mq6f3vd8",
      "value": 546
    }
  ],
  "size": 487,
  "weight": 769,
  "fee": 3088,
  "status": {
    "confirmed": true,
    "block_height": 834460,
    "block_hash": "00000000000000000000484a79b643b2524bbce82e5d8a442013fa5b8905ed98",
    "block_time": 1710307468
  },
  "hex": "02000000000101ac4df08dda829626262d5ca3d4f0b98bd0c1264f0ecefb576d75e8eeca480ec12800000000ffffffff012202000000000000225120046684fb809c12ba877ea0f45803bffbf01bac6643a1c16f266d3f1096344eb603405f80fc7eca97ccd68a3b95b281cfc7592afcf4802e0bd1f3d402755adf8ea76914e61f27787dafc25f23df79d43252971229df5a7de43fbe6a498929c376b307fd2001209277ff96a7ba33729069bd739d766dab77b1d3e300d17deb7270ceedacc0dad4ac0063036f726401011e6170706c69636174696f6e2f6a736f6e3b636861727365743d7574662d38004cd37b2270223a22706f772d3230222c226f70223a226d696e74222c227469636b223a2250455045222c22616d74223a2231303030222c22736f6c7574696f6e223a22504550453a6263317071336e67663775716e73667434706d37357236397371616c6c30637068747278677773757a6d657864356c337039333566366d713666337664383a303030303030303030303030303030303030303139393431613561653132383937363539383134343239323533333030353762306461393666336465613163353a3434303437333031343937227d6821c0406c0f2a67700582b42f36a71eb03478d57ba1acdc179ee1ec758acb282de3fd00000000"
}