{
  "txid": "627a256c14b4d4841e67e79a2cc48d9f16934e77c304da17c52c230e7421153f",
  "version": 1,
  "locktime": 0,
  "vin": [
    {
      "txid": "245da9e5adfbcdec7efbf2b4ea8c839beee9a43a37be12f5a08aff8a1312f031",
      "vout": 0,
      "prevout": {
        "scriptpubkey": "00147f7b4b46675539ea201f559ddaeb19efc11238da",
        "scriptpubkey_asm": "OP_0 OP_PUSHBYTES_20 7f7b4b46675539ea201f559ddaeb19efc11238da",
        "scriptpubkey_type": "v0_p2wpkh",
        "scriptpubkey_address": "bc1q0aa5k3n825u75gql2kwa46cealq3ywx6nxxfv5",
        "value": 1515100
      },
      "scriptsig": "",
      "scriptsig_asm": "",
      "witness": [
        "3045022100c3aac58f6bc36b36c9f1f7936f750ad8c8ac3cbb40687de13d0848193e6605ce02205a597b5585eebbf1f637b03c13dc25f5e44c152c93fb23885c8c174e46a0ee5201",
        "02f45aab54557f6bd132921cfbef90d7c53af68bdbd634a4635f9385a6e21cafb9"
      ],
      "is_coinbase": false,
      "sequence": 4294967295
    }
  ],
  "vout": [
    {
      "scriptpubkey": "00143464fdbdb38c88f6fd33ab16144601de7740ac26",
      "scriptpubkey_asm": "OP_0 OP_PUSHBYTES_20 3464fdbdb38c88f6fd33ab16144601de7740ac26",
      "scriptpubkey_type": "v0_p2wpkh",
      "scriptpubkey_address": "bc1qx3j0m0dn3jy0dlfn4vtpg3spmem5ptpx2yd365",
      "value": 1360718
    },
    {
      "scriptpubkey": "00147f7b4b46675539ea201f559ddaeb19efc11238da",
      "scriptpubkey_asm": "OP_0 OP_PUSHBYTES_20 7f7b4b46675539ea201f559ddaeb19efc11238da",
      "scriptpubkey_type": "v0_p2wpkh",
      "scriptpubkey_address": "bc1q0aa5k3n825u75gql2kwa46cealq3ywx6nxxfv5",
      "value": 150575
    }
  ],
  "size": 223,
  "weight": 562,
  "fee": 3807,
  "status": {
    "confirmed": true,
    "block_height": 834638,
    "block_hash": "000000000000000000025f742c626208ac87e0b7d15054abb4a19ca2d735a54e",
    "block_time": 1710405325
  },
  "hex": "0100000000010131f012138aff8aa0f512be373aa4e9ee9b838ceab4f2fb7eeccdfbade5a95d240000000000ffffffff024ec31400000000001600143464fdbdb38c88f6fd33ab16144601de7740ac262f4c0200000000001600147f7b4b46675539ea201f559ddaeb19efc11238da02483045022100c3aac58f6bc36b36c9f1f7936f750ad8c8ac3cbb40687de13d0848193e6605ce02205a597b5585eebbf1f637b03c13dc25f5e44c152c93fb23885c8c174e46a0ee52012102f45aab54557f6bd132921cfbef90d7c53af68bdbd634a4635f9385a6e21cafb900000000"
}