{
  "txid": "628eb42962587fb549c1e94206cca16a08e1e2555a608902117f8e18fbdd6bbd",
  "version": 1,
  "locktime": 0,
  "vin": [
    {
      "txid": "52b00a7a1d7555d057e7edcdcfe8c6513d7b1932c2e3deb4cb29c81604fb6ad7",
      "vout": 44,
      "prevout": {
        "scriptpubkey": "0014905aed266200fe1f0ddca99aed784320d12d51be",
        "scriptpubkey_asm": "OP_0 OP_PUSHBYTES_20 905aed266200fe1f0ddca99aed784320d12d51be",
        "scriptpubkey_type": "v0_p2wpkh",
        "scriptpubkey_address": "bc1qjpdw6fnzqrlp7rwu4xdw67zryrgj65d7srrf39",
        "value": 914041
      },
      "scriptsig": "",
      "scriptsig_asm": "",
      "witness": [
        "3044022011ab7f0f69d737beabc40e03595649a2d9fbb2f3923ac14d40af59d8a1a1d9aa02203208371546cb474316292e02f3d4add1350464a180364aa9789d68f30121141501",
        "036f8bd259459fac3e18804ae4c8fb9e8a20621d38d14a8c23470d870adcb5fedc"
      ],
      "is_coinbase": false,
      "sequence": 0
    }
  ],
  "vout": [
    {
      "scriptpubkey": "a9147a15c7cf73a6229e6979173f69850f6d1f09091187",
      "scriptpubkey_asm": "OP_HASH160 OP_PUSHBYTES_20 7a15c7cf73a6229e6979173f69850f6d1f090911 OP_EQUAL",
      "scriptpubkey_type": "p2sh",
      "scriptpubkey_address": "3CpYTHPXedC5cc8BJDzJch9RWxXvnBTSnj",
      "value": 886179
    },
    {
      "scriptpubkey": "0014905aed266200fe1f0ddca99aed784320d12d51be",
      "scriptpubkey_asm": "OP_0 OP_PUSHBYTES_20 905aed266200fe1f0ddca99aed784320d12d51be",
      "scriptpubkey_type": "v0_p2wpkh",
      "scriptpubkey_address": "bc1qjpdw6fnzqrlp7rwu4xdw67zryrgj65d7srrf39",
      "value": 24028
    }
  ],
  "size": 223,
  "weight": 565,
  "fee": 3834,
  "status": {
    "confirmed": true,
    "block_height": 834638,
    "block_hash": "000000000000000000025f742c626208ac87e0b7d15054abb4a19ca2d735a54e",
    "block_time": 1710405325
  },
  "hex": "01000000000101d76afb0416c829cbb4dee3c232197b3d51c6e8cfcdede757d055751d7a0ab0522c000000000000000002a3850d000000000017a9147a15c7cf73a6229e6979173f69850f6d1f09091187dc5d000000000000160014905aed266200fe1f0ddca99aed784320d12d51be02473044022011ab7f0f69d737beabc40e03595649a2d9fbb2f3923ac14d40af59d8a1a1d9aa02203208371546cb474316292e02f3d4add1350464a180364aa9789d68f3012114150121036f8bd259459fac3e18804ae4c8fb9e8a20621d38d14a8c23470d870adcb5fedc00000000"
}