{
  "txid": "629373c0c1efe99c386f93f5b24fcdbaa85afe494978a4270a56d0c32a8ba742",
  "version": 2,
  "locktime": 0,
  "vin": [
    {
      "txid": "707812f887f3178de6586577221e410bfc66e65f8ddc00c73c6cca0799900001",
      "vout": 0,
      "prevout": {
        "scriptpubkey": "5120b2d0f9fd9a8ade3e1cabb5df2f327e5c111ea0e92a77e56fe2387b8b59195dc5",
        "scriptpubkey_asm": "OP_PUSHNUM_1 OP_PUSHBYTES_32 b2d0f9fd9a8ade3e1cabb5df2f327e5c111ea0e92a77e56fe2387b8b59195dc5",
        "scriptpubkey_type": "v1_p2tr",
        "scriptpubkey_address": "bc1pktg0nlv63t0ru89tkh0j7vn7tsg3ag8f9fm72mlz8packkgethzs7s2ya0",
        "value": 600
      },
      "scriptsig": "",
      "scriptsig_asm": "",
      "witness": [
        "d01f47a53698346fb2be964e1c2300c444bff71a97c350ec004ff62c3332a2727c3521577f4fbe76ff32caf119e416ad5bb17f35541d0e844c1f39cc67e171fc"
      ],
      "is_coinbase": false,
      "sequence": 4294967295
    },
    {
      "txid": "707812f887f3178de6586577221e410bfc66e65f8ddc00c73c6cca0799900001",
      "vout": 1,
      "prevout": {
        "scriptpubkey": "5120b2d0f9fd9a8ade3e1cabb5df2f327e5c111ea0e92a77e56fe2387b8b59195dc5",
        "scriptpubkey_asm": "OP_PUSHNUM_1 OP_PUSHBYTES_32 b2d0f9fd9a8ade3e1cabb5df2f327e5c111ea0e92a77e56fe2387b8b59195dc5",
        "scriptpubkey_type": "v1_p2tr",
        "scriptpubkey_address": "bc1pktg0nlv63t0ru89tkh0j7vn7tsg3ag8f9fm72mlz8packkgethzs7s2ya0",
        "value": 600
      },
      "scriptsig": "",
      "scriptsig_asm": "",
      "witness": [
        "26460b14bb52936ec043af5a642458031ae7032cf663617e661577184f566bf3ff0c75896edb762cefb6ca933f4f0ff214f6d43dae9ac030c0736b2e5d32e854"
      ],
      "is_coinbase": false,
      "sequence": 4294967295
    },
    {
      "txid": "5dbc7c73d17444fc4a0faf38876c49c974fbb814aeab80ec082a1b193affc35a",
      "vout": 0,
      "prevout": {
        "scriptpubkey": "5120452528aa8fed2a62d87aaa018a31cef03d02a6439a96a7d004d719ba8013b7f4",
        "scriptpubkey_asm": "OP_PUSHNUM_1 OP_PUSHBYTES_32 452528aa8fed2a62d87aaa018a31cef03d02a6439a96a7d004d719ba8013b7f4",
        "scriptpubkey_type": "v1_p2tr",
        "scriptpubkey_address": "bc1pg5jj3250a54x9kr64gqc5vww7q7s9fjrn2t205qy6uvm4qqnkl6qv3mmv0",
        "value": 546
      },
      "scriptsig": "",
      "scriptsig_asm": "",
      "witness": [
        "41adf84fd4164c4927a48bad55c792cf8a68dad070901a41ad270409ffab42eab3464a1a5f37e74057052b45d9e89c120d3cfe823dd432e497de5ec4d124386183"
      ],
      "is_coinbase": false,
      "sequence": 4294967295
    },
    {
      "txid": "707812f887f3178de6586577221e410bfc66e65f8ddc00c73c6cca0799900001",
      "vout": 2,
      "prevout": {
        "scriptpubkey": "5120b2d0f9fd9a8ade3e1cabb5df2f327e5c111ea0e92a77e56fe2387b8b59195dc5",
        "scriptpubkey_asm": "OP_PUSHNUM_1 OP_PUSHBYTES_32 b2d0f9fd9a8ade3e1cabb5df2f327e5c111ea0e92a77e56fe2387b8b59195dc5",
        "scriptpubkey_type": "v1_p2tr",
        "scriptpubkey_address": "bc1pktg0nlv63t0ru89tkh0j7vn7tsg3ag8f9fm72mlz8packkgethzs7s2ya0",
        "value": 195846
      },
      "scriptsig": "",
      "scriptsig_asm": "",
      "witness": [
        "58a0e86716187d43c25b5976eb8bc4892e78ed65212a90c6ee257daf2836d287eb336cc4784589131bf0d7f9eb1695b7ba83e7de67743f354ffebf460def0e23"
      ],
      "is_coinbase": false,
      "sequence": 4294967295
    }
  ],
  "vout": [
    {
      "scriptpubkey": "5120b2d0f9fd9a8ade3e1cabb5df2f327e5c111ea0e92a77e56fe2387b8b59195dc5",
      "scriptpubkey_asm": "OP_PUSHNUM_1 OP_PUSHBYTES_32 b2d0f9fd9a8ade3e1cabb5df2f327e5c111ea0e92a77e56fe2387b8b59195dc5",
      "scriptpubkey_type": "v1_p2tr",
      "scriptpubkey_address": "bc1pktg0nlv63t0ru89tkh0j7vn7tsg3ag8f9fm72mlz8packkgethzs7s2ya0",
      "value": 1200
    },
    {
      "scriptpubkey": "5120b2d0f9fd9a8ade3e1cabb5df2f327e5c111ea0e92a77e56fe2387b8b59195dc5",
      "scriptpubkey_asm": "OP_PUSHNUM_1 OP_PUSHBYTES_32 b2d0f9fd9a8ade3e1cabb5df2f327e5c111ea0e92a77e56fe2387b8b59195dc5",
      "scriptpubkey_type": "v1_p2tr",
      "scriptpubkey_address": "bc1pktg0nlv63t0ru89tkh0j7vn7tsg3ag8f9fm72mlz8packkgethzs7s2ya0",
      "value": 546
    },
    {
      "scriptpubkey": "5120452528aa8fed2a62d87aaa018a31cef03d02a6439a96a7d004d719ba8013b7f4",
      "scriptpubkey_asm": "OP_PUSHNUM_1 OP_PUSHBYTES_32 452528aa8fed2a62d87aaa018a31cef03d02a6439a96a7d004d719ba8013b7f4",
      "scriptpubkey_type": "v1_p2tr",
      "scriptpubkey_address": "bc1pg5jj3250a54x9kr64gqc5vww7q7s9fjrn2t205qy6uvm4qqnkl6qv3mmv0",
      "value": 168000
    },
    {
      "scriptpubkey": "5120b2d0f9fd9a8ade3e1cabb5df2f327e5c111ea0e92a77e56fe2387b8b59195dc5",
      "scriptpubkey_asm": "OP_PUSHNUM_1 OP_PUSHBYTES_32 b2d0f9fd9a8ade3e1cabb5df2f327e5c111ea0e92a77e56fe2387b8b59195dc5",
      "scriptpubkey_type": "v1_p2tr",
      "scriptpubkey_address": "bc1pktg0nlv63t0ru89tkh0j7vn7tsg3ag8f9fm72mlz8packkgethzs7s2ya0",
      "value": 600
    },
    {
      "scriptpubkey": "5120b2d0f9fd9a8ade3e1cabb5df2f327e5c111ea0e92a77e56fe2387b8b59195dc5",
      "scriptpubkey_asm": "OP_PUSHNUM_1 OP_PUSHBYTES_32 b2d0f9fd9a8ade3e1cabb5df2f327e5c111ea0e92a77e56fe2387b8b59195dc5",
      "scriptpubkey_type": "v1_p2tr",
      "scriptpubkey_address": "bc1pktg0nlv63t0ru89tkh0j7vn7tsg3ag8f9fm72mlz8packkgethzs7s2ya0",
      "value": 600
    },
    {
      "scriptpubkey": "5120b2d0f9fd9a8ade3e1cabb5df2f327e5c111ea0e92a77e56fe2387b8b59195dc5",
      "scriptpubkey_asm": "OP_PUSHNUM_1 OP_PUSHBYTES_32 b2d0f9fd9a8ade3e1cabb5df2f327e5c111ea0e92a77e56fe2387b8b59195dc5",
      "scriptpubkey_type": "v1_p2tr",
      "scriptpubkey_address": "bc1pktg0nlv63t0ru89tkh0j7vn7tsg3ag8f9fm72mlz8packkgethzs7s2ya0",
      "value": 18163
    }
  ],
  "size": 699,
  "weight": 1995,
  "fee": 8483,
  "status": {
    "confirmed": true,
    "block_height": 834638,
    "block_hash": "000000000000000000025f742c626208ac87e0b7d15054abb4a19ca2d735a54e",
    "block_time": 1710405325
  },
  "hex": "020000000001040100909907ca6c3cc700dc8d5fe666fc0b411e22776558e68d17f387f81278700000000000ffffffff0100909907ca6c3cc700dc8d5fe666fc0b411e22776558e68d17f387f81278700100000000ffffffff5ac3ff3a191b2a08ec80abae14b8fb74c9496c8738af0f4afc4474d1737cbc5d0000000000ffffffff0100909907ca6c3cc700dc8d5fe666fc0b411e22776558e68d17f387f81278700200000000ffffffff06b004000000000000225120b2d0f9fd9a8ade3e1cabb5df2f327e5c111ea0e92a77e56fe2387b8b59195dc52202000000000000225120b2d0f9fd9a8ade3e1cabb5df2f327e5c111ea0e92a77e56fe2387b8b59195dc54090020000000000225120452528aa8fed2a62d87aaa018a31cef03d02a6439a96a7d004d719ba8013b7f45802000000000000225120b2d0f9fd9a8ade3e1cabb5df2f327e5c111ea0e92a77e56fe2387b8b59195dc55802000000000000225120b2d0f9fd9a8ade3e1cabb5df2f327e5c111ea0e92a77e56fe2387b8b59195dc5f346000000000000225120b2d0f9fd9a8ade3e1cabb5df2f327e5c111ea0e92a77e56fe2387b8b59195dc50140d01f47a53698346fb2be964e1c2300c444bff71a97c350ec004ff62c3332a2727c3521577f4fbe76ff32caf119e416ad5bb17f35541d0e844c1f39cc67e171fc014026460b14bb52936ec043af5a642458031ae7032cf663617e661577184f566bf3ff0c75896edb762cefb6ca933f4f0ff214f6d43dae9ac030c0736b2e5d32e854014141adf84fd4164c4927a48bad55c792cf8a68dad070901a41ad270409ffab42eab3464a1a5f37e74057052b45d9e89c120d3cfe823dd432e497de5ec4d124386183014058a0e86716187d43c25b5976eb8bc4892e78ed65212a90c6ee257daf2836d287eb336cc4784589131bf0d7f9eb1695b7ba83e7de67743f354ffebf460def0e2300000000"
}