{
  "txid": "62ab794fb25654909874a66791d1191eab6c2014f1c6d59e48363455a84d91f4",
  "version": 2,
  "locktime": 0,
  "vin": [
    {
      "txid": "e65d23c3351ed02f69455d85cda9aad4436eadbeca78d086f3a1502b56c71b9e",
      "vout": 6,
      "prevout": {
        "scriptpubkey": "00149663fd266655f23c34d89df8f071834bd7a77697",
        "scriptpubkey_asm": "OP_0 OP_PUSHBYTES_20 9663fd266655f23c34d89df8f071834bd7a77697",
        "scriptpubkey_type": "v0_p2wpkh",
        "scriptpubkey_address": "bc1qje3l6fnx2hercdxcnhu0quvrf0t6wa5hmndg7p",
        "value": 51978
      },
      "scriptsig": "",
      "scriptsig_asm": "",
      "witness": [
        "30440220038e0704ca391b564e092597d46e03d24c2a3976c3adb52b4ea8b57e689685050220047a930fa7f4be8bef0b10b1c8b47a2d50b3210c24f2b86f125ac4fa0c987d5601",
        "03128b0b190a9f05991d6ea2606fb8e310ca511b56b4f225e89a337dd2169e823b"
      ],
      "is_coinbase": false,
      "sequence": 4294967295
    },
    {
      "txid": "afcfb4f24d29e1c414a8530cb1660faa236d87a480b83d3ef6ea0c4766e3befc",
      "vout": 24,
      "prevout": {
        "scriptpubkey": "001462da7f2131961fbcc149dae3a3bfa986fbbe4a7d",
        "scriptpubkey_asm": "OP_0 OP_PUSHBYTES_20 62da7f2131961fbcc149dae3a3bfa986fbbe4a7d",
        "scriptpubkey_type": "v0_p2wpkh",
        "scriptpubkey_address": "bc1qvtd87gf3jc0mes2fmt3680afsmamujna8x35mx",
        "value": 57268
      },
      "scriptsig": "",
      "scriptsig_asm": "",
      "witness": [
        "3044022078f7d0f76807bd0af586b1b0729c0775477265d50aa16a4ce2a41410aceff18c0220778632949e5e6d0a9bf2465e479220f83de70cdc679e6f6704d5d381bc834dd401",
        "029815b24827446cefa75542ea624d38a082652f6d5088f984ee7fa61dda3d0a99"
      ],
      "is_coinbase": false,
      "sequence": 4294967295
    },
    {
      "txid": "b9cee9d133dd04ccdd746b55f57a8ee11a3bb1c5dcd87d23bfd0feccec036f41",
      "vout": 16,
      "prevout": {
        "scriptpubkey": "0014d9ef94434839c7fe9be420be40dc34aad5e8d02a",
        "scriptpubkey_asm": "OP_0 OP_PUSHBYTES_20 d9ef94434839c7fe9be420be40dc34aad5e8d02a",
        "scriptpubkey_type": "v0_p2wpkh",
        "scriptpubkey_address": "bc1qm8hegs6g88rlaxlyyzlyphp54t2735p22trusq",
        "value": 57141
      },
      "scriptsig": "",
      "scriptsig_asm": "",
      "witness": [
        "30450221008a7b5374d666de1a3f88060afed2977630f97caad504ebc843ffcbf4678d16c7022075e423412bb57ce67e5dadd7399d877be72ae79da6769514600deac2836a6cd101",
        "03aaeb83a5e53749c60f996c6b12402befdb6bc483ff985952d9e99d035e5f4c44"
      ],
      "is_coinbase": false,
      "sequence": 4294967295
    },
    {
      "txid": "5c78f34ee542bd7ed3e80391c7a798355b3fced04846ad202083e1a393e7d2b9",
      "vout": 21,
      "prevout": {
        "scriptpubkey": "00146df3beeaca70b06bb2ddf2431c014a0d9b70ae4d",
        "scriptpubkey_asm": "OP_0 OP_PUSHBYTES_20 6df3beeaca70b06bb2ddf2431c014a0d9b70ae4d",
        "scriptpubkey_type": "v0_p2wpkh",
        "scriptpubkey_address": "bc1qdhema6k2wzcxhvka7fp3cq22pkdhptjd5kqz2t",
        "value": 53467
      },
      "scriptsig": "",
      "scriptsig_asm": "",
      "witness": [
        "3045022100c32227e173f6e3b7d8fcabf9068e09f72ca4549c5caa7e51ea07fb4a0df8267c02205d475bae8d6adb2219ed576cce414aa4cd80e1836a2d9a4bf4fb8f2c25d9c3c401",
        "0249ef2875d69a39e1ab5c974ac543d89bc37e245c9e2ebf30efda28bc051fedb9"
      ],
      "is_coinbase": false,
      "sequence": 4294967295
    },
    {
      "txid": "e2f2b181ecc7f0dd9913eefe22be1c5c811971c025b8be1962b65f7a31b52093",
      "vout": 58,
      "prevout": {
        "scriptpubkey": "00140beef2e140460759990362ed55a707d1be9b24d2",
        "scriptpubkey_asm": "OP_0 OP_PUSHBYTES_20 0beef2e140460759990362ed55a707d1be9b24d2",
        "scriptpubkey_type": "v0_p2wpkh",
        "scriptpubkey_address": "bc1qp0h09c2qgcr4nxgrvtk4tfc86xlfkfxjpdulga",
        "value": 70487
      },
      "scriptsig": "",
      "scriptsig_asm": "",
      "witness": [
        "3045022100f1cb4bcf76295e049936e016cc4dabc0a6ca0388d7c1ede58433eb9fcad7284f022042b998f9eabe2b6908eabb216e6a34021967f459bab222612d0e8828d41227c501",
        "037074f8dcd3a466e2e026ff0e213b31d79949124c0b136d43f9cfbc4f1b05d984"
      ],
      "is_coinbase": false,
      "sequence": 4294967295
    },
    {
      "txid": "6af7a47dee0b2970aae8c65c006050c49df10a3222c234fdfcc9105aaf9e6372",
      "vout": 14,
      "prevout": {
        "scriptpubkey": "0014087f8ff8bc3ae24d4bab40aeac9f49f5adfce510",
        "scriptpubkey_asm": "OP_0 OP_PUSHBYTES_20 087f8ff8bc3ae24d4bab40aeac9f49f5adfce510",
        "scriptpubkey_type": "v0_p2wpkh",
        "scriptpubkey_address": "bc1qpplcl79u8t3y6jatgzh2e86f7kkleegstu6je4",
        "value": 54598
      },
      "scriptsig": "",
      "scriptsig_asm": "",
      "witness": [
        "3045022100a6d7728848f7168a90ed5dbcc81b611d680c9c92b0599ace7be73e84524c2e7202202aef821e92c4b8b981f61ec6391d46705df0366c1e0c8940165b295f07309f6801",
        "02f8e3ce22a41f13ff3d52f4a5e8d250eb28e0d26ee9c5ff8505f7b37b62ab0819"
      ],
      "is_coinbase": false,
      "sequence": 4294967295
    },
    {
      "txid": "1a4791880202c5aece37ed8fdc5e8fec53e95d821d847c630a31d44fff1dcfb5",
      "vout": 25,
      "prevout": {
        "scriptpubkey": "001496acb8995e3eb7fe52ad26063285f582f708d36f",
        "scriptpubkey_asm": "OP_0 OP_PUSHBYTES_20 96acb8995e3eb7fe52ad26063285f582f708d36f",
        "scriptpubkey_type": "v0_p2wpkh",
        "scriptpubkey_address": "bc1qj6kt3x2786mlu54dycrr9p04stms35m0avawtg",
        "value": 55185
      },
      "scriptsig": "",
      "scriptsig_asm": "",
      "witness": [
        "304402201d4d9fa93f1f12bc8e2f1d3cde800ac7ec910bc13b103e38f94bfa7aa1661d17022052629098a589fb7c035d6259cf6e6277005c0654b6fd1d502fc0449766094da501",
        "035f90ea5263e7ccd01e4ceeaf22a6587e423ecaa9990f1f17e1397f19c142652d"
      ],
      "is_coinbase": false,
      "sequence": 4294967295
    },
    {
      "txid": "9d88d39566ca2d06fe1c49d155ebb86a0c63820c256ca0c3b42dc6520b40a4bb",
      "vout": 42,
      "prevout": {
        "scriptpubkey": "00146b77ca63b1239282e35295ce37ee5306da491bf3",
        "scriptpubkey_asm": "OP_0 OP_PUSHBYTES_20 6b77ca63b1239282e35295ce37ee5306da491bf3",
        "scriptpubkey_type": "v0_p2wpkh",
        "scriptpubkey_address": "bc1qddmu5ca3ywfg9c6jjh8r0mjnqmdyjxlna5m5d6",
        "value": 72388
      },
      "scriptsig": "",
      "scriptsig_asm": "",
      "witness": [
        "304502210096e12bfc2f02cbe51c2bea540cc407f790ac98c9abd2085e261d2c823a01e8660220511f08075b18951822e2948234059970bfbc3aa1f8a7a80ba88615e1ea799c2d01",
        "024179362207753367b0cee3efd9591120c0aaacb752e4c1142ee94c50edc6e42b"
      ],
      "is_coinbase": false,
      "sequence": 4294967295
    },
    {
      "txid": "e347a727835b96eba3523923c76d6398be9d6af2c75471fc1d688a55e997cd7d",
      "vout": 47,
      "prevout": {
        "scriptpubkey": "0014f1899a13f7505a77ee836507ca4292b088da619b",
        "scriptpubkey_asm": "OP_0 OP_PUSHBYTES_20 f1899a13f7505a77ee836507ca4292b088da619b",
        "scriptpubkey_type": "v0_p2wpkh",
        "scriptpubkey_address": "bc1q7xye5ylh2pd80m5rv5ru5s5jkzyd5cvmhecqjm",
        "value": 65284
      },
      "scriptsig": "",
      "scriptsig_asm": "",
      "witness": [
        "30450221009690ded0c0a9f257dadebe85cb8cbed5ad854a576778c0880c4c59347e3156a102201b715b2a5d6bbb83a038d09d3a8c16a676a1318d0e202220b5558ac29d749fbc01",
        "0271e05746f7f8ee6018d2f2fdbf0b425af10669fa66860462a161bfeb2623a56a"
      ],
      "is_coinbase": false,
      "sequence": 4294967295
    },
    {
      "txid": "c00e41a54d626ddaff0100faae4a22cae0435170e1af1ae891d183f82d0d4f05",
      "vout": 12,
      "prevout": {
        "scriptpubkey": "0014d12c260a83613d81ac935d1b5dd82defa9621f65",
        "scriptpubkey_asm": "OP_0 OP_PUSHBYTES_20 d12c260a83613d81ac935d1b5dd82defa9621f65",
        "scriptpubkey_type": "v0_p2wpkh",
        "scriptpubkey_address": "bc1q6ykzvz5rvy7crtynt5d4mkpda75ky8m953dmuq",
        "value": 52364
      },
      "scriptsig": "",
      "scriptsig_asm": "",
      "witness": [
        "3045022100e839aba6cd9aa50c55bac76558786ead82234b2ac10980994e3ed1c6fd6c964b022052c7131684c93c8e0b6e28018be9755f1d5549c60f580aee40a13f231154f86f01",
        "021109f3ce70261b5c8e152707016e3d71233817f548ac4cb3535802a747797a64"
      ],
      "is_coinbase": false,
      "sequence": 4294967295
    },
    {
      "txid": "f9cb43c5b00ad5d48279bb680d3de4d10b80401f8ca6636c075a0045d1714729",
      "vout": 64,
      "prevout": {
        "scriptpubkey": "00141d70d0ad356cc344d4a899f965751ef39bc88ff3",
        "scriptpubkey_asm": "OP_0 OP_PUSHBYTES_20 1d70d0ad356cc344d4a899f965751ef39bc88ff3",
        "scriptpubkey_type": "v0_p2wpkh",
        "scriptpubkey_address": "bc1qr4cdptf4dnp5f49gn8uk2ag77wdu3rlne96wxp",
        "value": 90864
      },
      "scriptsig": "",
      "scriptsig_asm": "",
      "witness": [
        "30440220693aed6fa3aa21ffac6a4c24cda8a6e2a4b58785d4d18287f6bb24cf88a3cab102202187a2f408addf4aa9bebca1e54ebcf32eb1bd13189463b4c1f991556d9bebf201",
        "035e0b8189c6353e3fa2f439dcfa0202fbd9e241664eae0fa129511f432db864e5"
      ],
      "is_coinbase": false,
      "sequence": 4294967295
    },
    {
      "txid": "1147d44cb1b1f76c6c0c08e35d3eec8ad53c4163736ebf3f0fe7bce9053d3999",
      "vout": 46,
      "prevout": {
        "scriptpubkey": "0014f8e3e4592125b8a08f4ceec081e34b731aaa7e96",
        "scriptpubkey_asm": "OP_0 OP_PUSHBYTES_20 f8e3e4592125b8a08f4ceec081e34b731aaa7e96",
        "scriptpubkey_type": "v0_p2wpkh",
        "scriptpubkey_address": "bc1qlr37gkfpyku2pr6vamqgrc6twvd25l5kw0tnlt",
        "value": 75060
      },
      "scriptsig": "",
      "scriptsig_asm": "",
      "witness": [
        "30440220111fdc568861126b40794bda645e8836334612dcdf1ebd81f4713fbc83e61e7402202e33ac12461d3c513025ef783c80a2c730f59a3eaf39d651962885fb893db72201",
        "03a84961b452e57f0ed44966303cc6bdc719352dfe77f29c1a8e35eb6991659d81"
      ],
      "is_coinbase": false,
      "sequence": 4294967295
    },
    {
      "txid": "0b07ae4bc733122f63749323b0ec970ddfa99cbc2231912cde33fe1824488e2a",
      "vout": 51,
      "prevout": {
        "scriptpubkey": "001417709dc645742457f1ae11b6917c2ec878044985",
        "scriptpubkey_asm": "OP_0 OP_PUSHBYTES_20 17709dc645742457f1ae11b6917c2ec878044985",
        "scriptpubkey_type": "v0_p2wpkh",
        "scriptpubkey_address": "bc1qzacfm3j9wsj90udwzxmfzlpwepuqgjv9rfvzwh",
        "value": 75878
      },
      "scriptsig": "",
      "scriptsig_asm": "",
      "witness": [
        "304402205c1a23751cb5bc5ebf4944d3b412a935e819c2837c92207f6d471c3ee2866ea402201961a5638114c9d2da95f6050741a107e3345069d089763e588851837906eb4501",
        "02de4c857cc88246be4276487084367aaf8cd7201be2346f141224a4a2e012ab31"
      ],
      "is_coinbase": false,
      "sequence": 4294967295
    },
    {
      "txid": "50b6c92a6b82a25f6949391f7862d307d8ccdbb151ed44cfedeff15c2befcbbd",
      "vout": 53,
      "prevout": {
        "scriptpubkey": "0014f5950705e84af58ef6a7c49bad25ce677549fa20",
        "scriptpubkey_asm": "OP_0 OP_PUSHBYTES_20 f5950705e84af58ef6a7c49bad25ce677549fa20",
        "scriptpubkey_type": "v0_p2wpkh",
        "scriptpubkey_address": "bc1q7k2swp0gft6caa48cjd66fwwva65n73qfzs2na",
        "value": 85615
      },
      "scriptsig": "",
      "scriptsig_asm": "",
      "witness": [
        "3044022041e70ea59cae228d8ae339f89a5602790c363b942e07fa985bfb28f15b285f6102206ad1a6bd7ac04c12e0e512dd2cadeffa41edab948820688ff55e5ecd5b0adc5201",
        "023b872b03d443eb2e236fa3d97f1f1ed5bc99ed74ce5806ad1494767f80c81597"
      ],
      "is_coinbase": false,
      "sequence": 4294967295
    },
    {
      "txid": "1f77167bde50c20c8f351c4b692f761bd7fc5ec5dfaaf628fb58ab5c861fb450",
      "vout": 55,
      "prevout": {
        "scriptpubkey": "001427928f96d7979b993731b2949d4173dd8bdb4de6",
        "scriptpubkey_asm": "OP_0 OP_PUSHBYTES_20 27928f96d7979b993731b2949d4173dd8bdb4de6",
        "scriptpubkey_type": "v0_p2wpkh",
        "scriptpubkey_address": "bc1qy7fgl9khj7dejde3k22f6stnmk9akn0x7777tt",
        "value": 72862
      },
      "scriptsig": "",
      "scriptsig_asm": "",
      "witness": [
        "3045022100a901f6ac76e3ddede591ec38796e7493090e68a817d38a6f660603cf6388e61b02201340e29b31623e14bc5fb517b9c1bf907561253f5412352f36fd963dd980dbd801",
        "03da933511d5a4a63d66928c12709fb0ad16ee9380aa4186df077730713d7f5bcc"
      ],
      "is_coinbase": false,
      "sequence": 4294967295
    },
    {
      "txid": "a5156d2dc0517ee3befa9027da18ef8cff52ca94a9a8209813c8a8e1e755291b",
      "vout": 9,
      "prevout": {
        "scriptpubkey": "00146a5ef4c76f3997178e8f3a088f76adc824f64d78",
        "scriptpubkey_asm": "OP_0 OP_PUSHBYTES_20 6a5ef4c76f3997178e8f3a088f76adc824f64d78",
        "scriptpubkey_type": "v0_p2wpkh",
        "scriptpubkey_address": "bc1qdf00f3m08xt30r508gyg7a4deqj0vntcd496nn",
        "value": 50913
      },
      "scriptsig": "",
      "scriptsig_asm": "",
      "witness": [
        "304502210085bc046c0e497aa7f98f93131a9fb92fae917254aa8a6530cc6d81ab989d0ee602205bf20bc6a15c5dc7acc8a03bf109fb8398a5f27441d3e6c5d6aa8d373a82eca801",
        "02d0b555dcdaf50414fa7f55935259bcc85d2c7f807627f5c88ab5e10052fe0a1b"
      ],
      "is_coinbase": false,
      "sequence": 4294967295
    },
    {
      "txid": "ea3e5b6622f0a38e442b448dba8c283066f82fbc339b0b0cd2890d928edba51c",
      "vout": 18,
      "prevout": {
        "scriptpubkey": "0014d85a30735428bc567b543fed71de1b73585dbaba",
        "scriptpubkey_asm": "OP_0 OP_PUSHBYTES_20 d85a30735428bc567b543fed71de1b73585dbaba",
        "scriptpubkey_type": "v0_p2wpkh",
        "scriptpubkey_address": "bc1qmpdrqu659z79v7658lkhrhsmwdv9mw46yxxp02",
        "value": 53617
      },
      "scriptsig": "",
      "scriptsig_asm": "",
      "witness": [
        "3045022100827b86ef2c1894dec9fc79085c9edbf94a6d9258938ef9d6b70e5a657aca65d602202a5ad1539c98b34ac9edff7a9201b4dc8f9559cd4b9488a152fd70cac8375cd701",
        "03df27cb92df750f012064bcca5e670f7c30b828f6674d08546baf02419e81b3ee"
      ],
      "is_coinbase": false,
      "sequence": 4294967295
    }
  ],
  "vout": [
    {
      "scriptpubkey": "0014358897ce4d4cbdc75db49312bd25964ed05ce1ac",
      "scriptpubkey_asm": "OP_0 OP_PUSHBYTES_20 358897ce4d4cbdc75db49312bd25964ed05ce1ac",
      "scriptpubkey_type": "v0_p2wpkh",
      "scriptpubkey_address": "bc1qxkyf0njdfj7uwhd5jvft6fvkfmg9ecdvx82mxs",
      "value": 1000000
    },
    {
      "scriptpubkey": "001484b8fcacc7b9decb5217c714f58793206ef357df",
      "scriptpubkey_asm": "OP_0 OP_PUSHBYTES_20 84b8fcacc7b9decb5217c714f58793206ef357df",
      "scriptpubkey_type": "v0_p2wpkh",
      "scriptpubkey_address": "bc1qsju0etx8h80vk5shcu20tpunyph0x47lha9hax",
      "value": 77974
    }
  ],
  "size": 2600,
  "weight": 4907,
  "fee": 16995,
  "status": {
    "confirmed": true,
    "block_height": 834460,
    "block_hash": "00000000000000000000484a79b643b2524bbce82e5d8a442013fa5b8905ed98",
    "block_time": 1710307468
  },
  "hex": "020000000001119e1bc7562b50a1f386d078cabead6e43d4aaa9cd855d45692fd01e35c3235de60600000000fffffffffcbee366470ceaf63e3db880a4876d23aa0f66b10c53a814c4e1294df2b4cfaf1800000000ffffffff416f03ecccfed0bf237dd8dcc5b13b1ae18e7af5556b74ddcc04dd33d1e9ceb91000000000ffffffffb9d2e793a3e1832020ad4648d0ce3f5b3598a7c79103e8d37ebd42e54ef3785c1500000000ffffffff9320b5317a5fb66219beb825c07119815c1cbe22feee1399ddf0c7ec81b1f2e23a00000000ffffffff72639eaf5a10c9fcfd34c222320af19dc45060005cc6e8aa70290bee7da4f76a0e00000000ffffffffb5cf1dff4fd4310a637c841d825de953ec8f5edc8fed37ceaec502028891471a1900000000ffffffffbba4400b52c62db4c3a06c250c82630c6ab8eb55d1491cfe062dca6695d3889d2a00000000ffffffff7dcd97e9558a681dfc7154c7f26a9dbe98636dc7233952a3eb965b8327a747e32f00000000ffffffff054f0d2df883d191e81aafe1705143e0ca224aaefa0001ffda6d624da5410ec00c00000000ffffffff294771d145005a076c63a68c1f40800bd1e43d0d68bb7982d4d50ab0c543cbf94000000000ffffffff99393d05e9bce70f3fbf6e7363413cd58aec3e5de3080c6c6cf7b1b14cd447112e00000000ffffffff2a8e482418fe33de2c913122bc9ca9df0d97ecb0239374632f1233c74bae070b3300000000ffffffffbdcbef2b5cf1efedcf44ed51b1dbccd807d362781f3949695fa2826b2ac9b6503500000000ffffffff50b41f865cab58fb28f6aadfc55efcd71b762f694b1c358f0cc250de7b16771f3700000000ffffffff1b2955e7e1a8c8139820a8a994ca52ff8cef18da2790fabee37e51c02d6d15a50900000000ffffffff1ca5db8e920d89d20c0b9b33bc2ff86630288cba8d442b448ea3f022665b3eea1200000000ffffffff0240420f0000000000160014358897ce4d4cbdc75db49312bd25964ed05ce1ac963001000000000016001484b8fcacc7b9decb5217c714f58793206ef357df024730440220038e0704ca391b564e092597d46e03d24c2a3976c3adb52b4ea8b57e689685050220047a930fa7f4be8bef0b10b1c8b47a2d50b3210c24f2b86f125ac4fa0c987d56012103128b0b190a9f05991d6ea2606fb8e310ca511b56b4f225e89a337dd2169e823b02473044022078f7d0f76807bd0af586b1b0729c0775477265d50aa16a4ce2a41410aceff18c0220778632949e5e6d0a9bf2465e479220f83de70cdc679e6f6704d5d381bc834dd40121029815b24827446cefa75542ea624d38a082652f6d5088f984ee7fa61dda3d0a99024830450221008a7b5374d666de1a3f88060afed2977630f97caad504ebc843ffcbf4678d16c7022075e423412bb57ce67e5dadd7399d877be72ae79da6769514600deac2836a6cd1012103aaeb83a5e53749c60f996c6b12402befdb6bc483ff985952d9e99d035e5f4c4402483045022100c32227e173f6e3b7d8fcabf9068e09f72ca4549c5caa7e51ea07fb4a0df8267c02205d475bae8d6adb2219ed576cce414aa4cd80e1836a2d9a4bf4fb8f2c25d9c3c401210249ef2875d69a39e1ab5c974ac543d89bc37e245c9e2ebf30efda28bc051fedb902483045022100f1cb4bcf76295e049936e016cc4dabc0a6ca0388d7c1ede58433eb9fcad7284f022042b998f9eabe2b6908eabb216e6a34021967f459bab222612d0e8828d41227c50121037074f8dcd3a466e2e026ff0e213b31d79949124c0b136d43f9cfbc4f1b05d98402483045022100a6d7728848f7168a90ed5dbcc81b611d680c9c92b0599ace7be73e84524c2e7202202aef821e92c4b8b981f61ec6391d46705df0366c1e0c8940165b295f07309f68012102f8e3ce22a41f13ff3d52f4a5e8d250eb28e0d26ee9c5ff8505f7b37b62ab08190247304402201d4d9fa93f1f12bc8e2f1d3cde800ac7ec910bc13b103e38f94bfa7aa1661d17022052629098a589fb7c035d6259cf6e6277005c0654b6fd1d502fc0449766094da50121035f90ea5263e7ccd01e4ceeaf22a6587e423ecaa9990f1f17e1397f19c142652d0248304502210096e12bfc2f02cbe51c2bea540cc407f790ac98c9abd2085e261d2c823a01e8660220511f08075b18951822e2948234059970bfbc3aa1f8a7a80ba88615e1ea799c2d0121024179362207753367b0cee3efd9591120c0aaacb752e4c1142ee94c50edc6e42b024830450221009690ded0c0a9f257dadebe85cb8cbed5ad854a576778c0880c4c59347e3156a102201b715b2a5d6bbb83a038d09d3a8c16a676a1318d0e202220b5558ac29d749fbc01210271e05746f7f8ee6018d2f2fdbf0b425af10669fa66860462a161bfeb2623a56a02483045022100e839aba6cd9aa50c55bac76558786ead82234b2ac10980994e3ed1c6fd6c964b022052c7131684c93c8e0b6e28018be9755f1d5549c60f580aee40a13f231154f86f0121021109f3ce70261b5c8e152707016e3d71233817f548ac4cb3535802a747797a64024730440220693aed6fa3aa21ffac6a4c24cda8a6e2a4b58785d4d18287f6bb24cf88a3cab102202187a2f408addf4aa9bebca1e54ebcf32eb1bd13189463b4c1f991556d9bebf20121035e0b8189c6353e3fa2f439dcfa0202fbd9e241664eae0fa129511f432db864e5024730440220111fdc568861126b40794bda645e8836334612dcdf1ebd81f4713fbc83e61e7402202e33ac12461d3c513025ef783c80a2c730f59a3eaf39d651962885fb893db722012103a84961b452e57f0ed44966303cc6bdc719352dfe77f29c1a8e35eb6991659d810247304402205c1a23751cb5bc5ebf4944d3b412a935e819c2837c92207f6d471c3ee2866ea402201961a5638114c9d2da95f6050741a107e3345069d089763e588851837906eb45012102de4c857cc88246be4276487084367aaf8cd7201be2346f141224a4a2e012ab3102473044022041e70ea59cae228d8ae339f89a5602790c363b942e07fa985bfb28f15b285f6102206ad1a6bd7ac04c12e0e512dd2cadeffa41edab948820688ff55e5ecd5b0adc520121023b872b03d443eb2e236fa3d97f1f1ed5bc99ed74ce5806ad1494767f80c8159702483045022100a901f6ac76e3ddede591ec38796e7493090e68a817d38a6f660603cf6388e61b02201340e29b31623e14bc5fb517b9c1bf907561253f5412352f36fd963dd980dbd8012103da933511d5a4a63d66928c12709fb0ad16ee9380aa4186df077730713d7f5bcc0248304502210085bc046c0e497aa7f98f93131a9fb92fae917254aa8a6530cc6d81ab989d0ee602205bf20bc6a15c5dc7acc8a03bf109fb8398a5f27441d3e6c5d6aa8d373a82eca8012102d0b555dcdaf50414fa7f55935259bcc85d2c7f807627f5c88ab5e10052fe0a1b02483045022100827b86ef2c1894dec9fc79085c9edbf94a6d9258938ef9d6b70e5a657aca65d602202a5ad1539c98b34ac9edff7a9201b4dc8f9559cd4b9488a152fd70cac8375cd7012103df27cb92df750f012064bcca5e670f7c30b828f6674d08546baf02419e81b3ee00000000"
}