{
  "txid": "62b0886f5b55903ac9e43628c22039ac7f38d6a3f7ee5d5457e73ab903ae27b2",
  "version": 2,
  "locktime": 0,
  "vin": [
    {
      "txid": "f292af7a55e82a8eb47233239ca4eaad78c82f823516257e71ad3cb8a12256e6",
      "vout": 1,
      "prevout": {
        "scriptpubkey": "0014497197dca73ac1193eeb17a224e9e216140b63de",
        "scriptpubkey_asm": "OP_0 OP_PUSHBYTES_20 497197dca73ac1193eeb17a224e9e216140b63de",
        "scriptpubkey_type": "v0_p2wpkh",
        "scriptpubkey_address": "bc1qf9ce0h988tq3j0htz73zf60zzc2qkc7789ldva",
        "value": 170429
      },
      "scriptsig": "",
      "scriptsig_asm": "",
      "witness": [
        "30440220559dfa3cef3d0ad7633f322c619d07571228d1992d6f52e52f29bb26017fe16b02203b133b51f45b97e7966214e4d03e4abd2f91d00ce0cd8a523b38888e86fbcd4001",
        "02d37a8ec34aaa37ff7cf54fe4a30d81d76344c44a14c9d8a5debec202b042c4ac"
      ],
      "is_coinbase": false,
      "sequence": 4294967295
    }
  ],
  "vout": [
    {
      "scriptpubkey": "6a2a3f0756f9274f3fb06332288b3844564b66d0fb02a8483ff58e825bf679aa2b44feac3c965959cd60984f",
      "scriptpubkey_asm": "OP_RETURN OP_PUSHBYTES_42 3f0756f9274f3fb06332288b3844564b66d0fb02a8483ff58e825bf679aa2b44feac3c965959cd60984f",
      "scriptpubkey_type": "op_return",
      "value": 0
    },
    {
      "scriptpubkey": "0014497197dca73ac1193eeb17a224e9e216140b63de",
      "scriptpubkey_asm": "OP_0 OP_PUSHBYTES_20 497197dca73ac1193eeb17a224e9e216140b63de",
      "scriptpubkey_type": "v0_p2wpkh",
      "scriptpubkey_address": "bc1qf9ce0h988tq3j0htz73zf60zzc2qkc7789ldva",
      "value": 168077
    }
  ],
  "size": 244,
  "weight": 649,
  "fee": 2352,
  "status": {
    "confirmed": true,
    "block_height": 834460,
    "block_hash": "00000000000000000000484a79b643b2524bbce82e5d8a442013fa5b8905ed98",
    "block_time": 1710307468
  },
  "hex": "02000000000101e65622a1b83cad717e251635822fc878adeaa49c233372b48e2ae8557aaf92f20100000000ffffffff0200000000000000002c6a2a3f0756f9274f3fb06332288b3844564b66d0fb02a8483ff58e825bf679aa2b44feac3c965959cd60984f8d90020000000000160014497197dca73ac1193eeb17a224e9e216140b63de024730440220559dfa3cef3d0ad7633f322c619d07571228d1992d6f52e52f29bb26017fe16b02203b133b51f45b97e7966214e4d03e4abd2f91d00ce0cd8a523b38888e86fbcd40012102d37a8ec34aaa37ff7cf54fe4a30d81d76344c44a14c9d8a5debec202b042c4ac00000000"
}