{
  "txid": "62baa93a61368d738ff19510d6bdefb483d22db1abea00b8a144a86a538c9043",
  "version": 1,
  "locktime": 0,
  "vin": [
    {
      "txid": "d50c5933c8d2e11199ef1d942254a869c07deae62d6c40581549443151cf0cce",
      "vout": 1,
      "prevout": {
        "scriptpubkey": "0014659772e544d67c038e7b2e0b1e4a870d43623ffe",
        "scriptpubkey_asm": "OP_0 OP_PUSHBYTES_20 659772e544d67c038e7b2e0b1e4a870d43623ffe",
        "scriptpubkey_type": "v0_p2wpkh",
        "scriptpubkey_address": "bc1qvkth9e2y6e7q8rnm9c93uj58p4pky0l7qwlwk4",
        "value": 1666920
      },
      "scriptsig": "",
      "scriptsig_asm": "",
      "witness": [
        "3044022037fe5348f360d276a06b22e7b056c0bb8d98492235c4eb654372e1c347f852f6022039dd5253a6828704ad25f89de205a97c9b58a053e11cd94f8e6d2db22a0f68b801",
        "02591c2aa0428754b2eb28c9c0cbca26241ecd569309ae8b2a478a647fd04b5b5c"
      ],
      "is_coinbase": false,
      "sequence": 4294967295
    }
  ],
  "vout": [
    {
      "scriptpubkey": "76a914c2e58410f8dc4723c39289afea0273138aca6e0888ac",
      "scriptpubkey_asm": "OP_DUP OP_HASH160 OP_PUSHBYTES_20 c2e58410f8dc4723c39289afea0273138aca6e08 OP_EQUALVERIFY OP_CHECKSIG",
      "scriptpubkey_type": "p2pkh",
      "scriptpubkey_address": "1JmX3FytYq8ChtjBiPGsZnR5uUNXpzL7HG",
      "value": 272400
    },
    {
      "scriptpubkey": "00148c41a0cd70d8ece51646aa67fe710e2c3f666875",
      "scriptpubkey_asm": "OP_0 OP_PUSHBYTES_20 8c41a0cd70d8ece51646aa67fe710e2c3f666875",
      "scriptpubkey_type": "v0_p2wpkh",
      "scriptpubkey_address": "bc1q33q6pntsmrkw29jx4fnluugw9slkv6r4d2gv9f",
      "value": 1390808
    }
  ],
  "size": 225,
  "weight": 573,
  "fee": 3712,
  "status": {
    "confirmed": true,
    "block_height": 834638,
    "block_hash": "000000000000000000025f742c626208ac87e0b7d15054abb4a19ca2d735a54e",
    "block_time": 1710405325
  },
  "hex": "01000000000101ce0ccf513144491558406c2de6ea7dc069a85422941def9911e1d2c833590cd50100000000ffffffff0210280400000000001976a914c2e58410f8dc4723c39289afea0273138aca6e0888acd8381500000000001600148c41a0cd70d8ece51646aa67fe710e2c3f66687502473044022037fe5348f360d276a06b22e7b056c0bb8d98492235c4eb654372e1c347f852f6022039dd5253a6828704ad25f89de205a97c9b58a053e11cd94f8e6d2db22a0f68b8012102591c2aa0428754b2eb28c9c0cbca26241ecd569309ae8b2a478a647fd04b5b5c00000000"
}