{
  "txid": "62d154bda74b04bbb2936983b0d0841c0e2417ce136609d10f1b9ad36233ae02",
  "version": 2,
  "locktime": 0,
  "vin": [
    {
      "txid": "659b82bf51c32df260f3e3563d90fcbcb0098209af4d18020ca9e1a619ccc8c8",
      "vout": 20,
      "prevout": {
        "scriptpubkey": "51206f78e905a48abac5c080978d1e9b5d024864b722166e0ac073bd4b97d4cddf69",
        "scriptpubkey_asm": "OP_PUSHNUM_1 OP_PUSHBYTES_32 6f78e905a48abac5c080978d1e9b5d024864b722166e0ac073bd4b97d4cddf69",
        "scriptpubkey_type": "v1_p2tr",
        "scriptpubkey_address": "bc1pdauwjpdy32avtsyqj7x3ax6aqfyxfdezzehq4srnh49e04xdma5sg9yydj",
        "value": 1931
      },
      "scriptsig": "",
      "scriptsig_asm": "",
      "witness": [
        "bafaca04c6ba6f1820247fc7d690270cfbc793aabd215cb83822604df89ff959e97a318524a7f0a80454ef154ea686eb47cfe3c8ff1488872f1bc365909ea3de",
        "20526e475b16dbc7bf43e611a0780371dd03f6601e737f40ddcc6832ac8966d5a4ac0063036f726401010a746578742f706c61696e00367b2270223a226272632d3230222c226f70223a226d696e74222c227469636b223a2261616161222c22616d74223a223130303030227d68",
        "c0526e475b16dbc7bf43e611a0780371dd03f6601e737f40ddcc6832ac8966d5a4"
      ],
      "is_coinbase": false,
      "sequence": 4261412863
    }
  ],
  "vout": [
    {
      "scriptpubkey": "0014be9f0c070a9b1bd40f5fcb06fba89738d936ceb6",
      "scriptpubkey_asm": "OP_0 OP_PUSHBYTES_20 be9f0c070a9b1bd40f5fcb06fba89738d936ceb6",
      "scriptpubkey_type": "v0_p2wpkh",
      "scriptpubkey_address": "bc1qh60scpc2nvdagr6levr0h2yh8rvndn4k4v5s9g",
      "value": 294
    }
  ],
  "size": 295,
  "weight": 541,
  "fee": 1637,
  "status": {
    "confirmed": true,
    "block_height": 834460,
    "block_hash": "00000000000000000000484a79b643b2524bbce82e5d8a442013fa5b8905ed98",
    "block_time": 1710307468
  },
  "hex": "02000000000101c8c8cc19a6e1a90c02184daf098209b0bcfc903d56e3f360f22dc351bf829b651400000000fffffffd012601000000000000160014be9f0c070a9b1bd40f5fcb06fba89738d936ceb60340bafaca04c6ba6f1820247fc7d690270cfbc793aabd215cb83822604df89ff959e97a318524a7f0a80454ef154ea686eb47cfe3c8ff1488872f1bc365909ea3de6e20526e475b16dbc7bf43e611a0780371dd03f6601e737f40ddcc6832ac8966d5a4ac0063036f726401010a746578742f706c61696e00367b2270223a226272632d3230222c226f70223a226d696e74222c227469636b223a2261616161222c22616d74223a223130303030227d6821c0526e475b16dbc7bf43e611a0780371dd03f6601e737f40ddcc6832ac8966d5a400000000"
}