{
  "txid": "62de6453795c5938bc18cf6e5a19c547af1f69303a7b02bd747ea30b44319f6d",
  "version": 1,
  "locktime": 0,
  "vin": [
    {
      "txid": "76189824bee81d9616da50257d9dbcc8267edb91cbc23351fe5124dc724c0e12",
      "vout": 3,
      "prevout": {
        "scriptpubkey": "0014c19e2fd894b77eb198fe2177bb30ac744e8ac472",
        "scriptpubkey_asm": "OP_0 OP_PUSHBYTES_20 c19e2fd894b77eb198fe2177bb30ac744e8ac472",
        "scriptpubkey_type": "v0_p2wpkh",
        "scriptpubkey_address": "bc1qcx0zlky5kaltrx87y9mmkv9vw38g43rjwl3l79",
        "value": 384406
      },
      "scriptsig": "",
      "scriptsig_asm": "",
      "witness": [
        "3045022100933ab111469746a693a60efa7d6284a11812c65bb29841dad84466b0fdd4fd2d02203fd4c478c2d08cc8e42b9c59caa73d3611a30bc8c121706cccd068f2a3178d8c01",
        "02bf84c095cc8a1559bd8a91310cf417ef3639e3eb3fd19c816d5506c76c164752"
      ],
      "is_coinbase": false,
      "sequence": 4294967295
    }
  ],
  "vout": [
    {
      "scriptpubkey": "00147c8b2cc5401a34e76e85d864e8d2a347ab610e58",
      "scriptpubkey_asm": "OP_0 OP_PUSHBYTES_20 7c8b2cc5401a34e76e85d864e8d2a347ab610e58",
      "scriptpubkey_type": "v0_p2wpkh",
      "scriptpubkey_address": "bc1q0j9je32qrg6wwm59mpjw354rg74kzrjc44508t",
      "value": 382406
    }
  ],
  "size": 192,
  "weight": 438,
  "fee": 2000,
  "status": {
    "confirmed": true,
    "block_height": 834638,
    "block_hash": "000000000000000000025f742c626208ac87e0b7d15054abb4a19ca2d735a54e",
    "block_time": 1710405325
  },
  "hex": "01000000000101120e4c72dc2451fe5133c2cb91db7e26c8bc9d7d2550da16961de8be249818760300000000ffffffff01c6d50500000000001600147c8b2cc5401a34e76e85d864e8d2a347ab610e5802483045022100933ab111469746a693a60efa7d6284a11812c65bb29841dad84466b0fdd4fd2d02203fd4c478c2d08cc8e42b9c59caa73d3611a30bc8c121706cccd068f2a3178d8c012102bf84c095cc8a1559bd8a91310cf417ef3639e3eb3fd19c816d5506c76c16475200000000"
}