{
  "txid": "62f6ef8e35629e538f5febdeecddae88b1dd5f165ebd5303d4ae43781d912dd3",
  "version": 2,
  "locktime": 834637,
  "vin": [
    {
      "txid": "5f449a97ec55279b39d390825e2af2c0804328ffc4b6fdaf7a5e0f8ad99c1d90",
      "vout": 1,
      "prevout": {
        "scriptpubkey": "001457bf598bbed3c30d6cb32bc7de67d13653504428",
        "scriptpubkey_asm": "OP_0 OP_PUSHBYTES_20 57bf598bbed3c30d6cb32bc7de67d13653504428",
        "scriptpubkey_type": "v0_p2wpkh",
        "scriptpubkey_address": "bc1q27l4nza760ps6m9n90raue73xef4q3pg2dgmqe",
        "value": 79776
      },
      "scriptsig": "",
      "scriptsig_asm": "",
      "witness": [
        "3045022100a7a7c687179a49a4fc6e1bb833e83d26328efeda1ededbd89df2ce867ed4dc52022069892c4c42edc679b7ee654f7eb9d4916251ead24808ca1a93555c5e70d6c56101",
        "02b334c7b34c85defefb0515024697fdddbe9f1daf0cc14f181e896573bdcb6add"
      ],
      "is_coinbase": false,
      "sequence": 4294967293
    },
    {
      "txid": "d7b465a552099756adab3d82d57c56e8b01a13a4d67c0642fc0a197249911db1",
      "vout": 0,
      "prevout": {
        "scriptpubkey": "001457bf598bbed3c30d6cb32bc7de67d13653504428",
        "scriptpubkey_asm": "OP_0 OP_PUSHBYTES_20 57bf598bbed3c30d6cb32bc7de67d13653504428",
        "scriptpubkey_type": "v0_p2wpkh",
        "scriptpubkey_address": "bc1q27l4nza760ps6m9n90raue73xef4q3pg2dgmqe",
        "value": 148951
      },
      "scriptsig": "",
      "scriptsig_asm": "",
      "witness": [
        "304402204e861bd9c2d3f3e75126413511f30fde7e41bedcb33fdab27c7f2b8591bc2b4b02204c93dd0e2d06a583213000b5184e33b47c71c65978cc54740c6e86c0985338d701",
        "02b334c7b34c85defefb0515024697fdddbe9f1daf0cc14f181e896573bdcb6add"
      ],
      "is_coinbase": false,
      "sequence": 4294967293
    }
  ],
  "vout": [
    {
      "scriptpubkey": "0014ccbdca1f478363e90786b34f60a9cdff1169f665",
      "scriptpubkey_asm": "OP_0 OP_PUSHBYTES_20 ccbdca1f478363e90786b34f60a9cdff1169f665",
      "scriptpubkey_type": "v0_p2wpkh",
      "scriptpubkey_address": "bc1qej7u5868sd37jpuxkd8kp2wdlugknan9pwx0dz",
      "value": 38838
    },
    {
      "scriptpubkey": "001457bf598bbed3c30d6cb32bc7de67d13653504428",
      "scriptpubkey_asm": "OP_0 OP_PUSHBYTES_20 57bf598bbed3c30d6cb32bc7de67d13653504428",
      "scriptpubkey_type": "v0_p2wpkh",
      "scriptpubkey_address": "bc1q27l4nza760ps6m9n90raue73xef4q3pg2dgmqe",
      "value": 186566
    }
  ],
  "size": 371,
  "weight": 833,
  "fee": 3323,
  "status": {
    "confirmed": true,
    "block_height": 834638,
    "block_hash": "000000000000000000025f742c626208ac87e0b7d15054abb4a19ca2d735a54e",
    "block_time": 1710405325
  },
  "hex": "02000000000102901d9cd98a0f5e7aaffdb6c4ff284380c0f22a5e8290d3399b2755ec979a445f0100000000fdffffffb11d914972190afc42067cd6a4131ab0e8567cd5823dabad56970952a565b4d70000000000fdffffff02b697000000000000160014ccbdca1f478363e90786b34f60a9cdff1169f665c6d802000000000016001457bf598bbed3c30d6cb32bc7de67d1365350442802483045022100a7a7c687179a49a4fc6e1bb833e83d26328efeda1ededbd89df2ce867ed4dc52022069892c4c42edc679b7ee654f7eb9d4916251ead24808ca1a93555c5e70d6c561012102b334c7b34c85defefb0515024697fdddbe9f1daf0cc14f181e896573bdcb6add0247304402204e861bd9c2d3f3e75126413511f30fde7e41bedcb33fdab27c7f2b8591bc2b4b02204c93dd0e2d06a583213000b5184e33b47c71c65978cc54740c6e86c0985338d7012102b334c7b34c85defefb0515024697fdddbe9f1daf0cc14f181e896573bdcb6add4dbc0c00"
}