{
  "txid": "62fd468573822af8cc7e7ee67e0bd158b9314a7d7d15a504de8a47da9423a1f2",
  "version": 2,
  "locktime": 0,
  "vin": [
    {
      "txid": "8eb7b932ce6b38b249e124958b7fceb30b66d1ae91a35fe8bfb2031868c56c77",
      "vout": 1,
      "prevout": {
        "scriptpubkey": "0014402ed8effca4b3f83131a62bc20abad1bf28f28e",
        "scriptpubkey_asm": "OP_0 OP_PUSHBYTES_20 402ed8effca4b3f83131a62bc20abad1bf28f28e",
        "scriptpubkey_type": "v0_p2wpkh",
        "scriptpubkey_address": "bc1qgqhd3mlu5jelsvf35c4uyz466xlj3u5wxsc8h5",
        "value": 1616027
      },
      "scriptsig": "",
      "scriptsig_asm": "",
      "witness": [
        "3044022064e4078626378dd761be2a5b1078be3728c37f97757f0eb5a44ef9b7cd9297460220386753da9fd64954edd05e490b76019550c8b92935af86a871abbd46414ea08901",
        "02728e289e18d742035ae5289a9ed64f2d3aca088dcaed4b8ef37215a541a29a74"
      ],
      "is_coinbase": false,
      "sequence": 2147483648
    }
  ],
  "vout": [
    {
      "scriptpubkey": "a914a1c11f54f30b896b3edaa4908d2bc0e26371f14f87",
      "scriptpubkey_asm": "OP_HASH160 OP_PUSHBYTES_20 a1c11f54f30b896b3edaa4908d2bc0e26371f14f OP_EQUAL",
      "scriptpubkey_type": "p2sh",
      "scriptpubkey_address": "3GSJ4onAi3cXVGTuWF9utmM7VVYDjbNNxP",
      "value": 20803
    },
    {
      "scriptpubkey": "0014835bfe172e381dbb735c8c785eac2c5d2b788943",
      "scriptpubkey_asm": "OP_0 OP_PUSHBYTES_20 835bfe172e381dbb735c8c785eac2c5d2b788943",
      "scriptpubkey_type": "v0_p2wpkh",
      "scriptpubkey_address": "bc1qsddlu9ew8qwmku6u33u9atpvt54h3z2rrffxva",
      "value": 1592304
    }
  ],
  "size": 223,
  "weight": 565,
  "fee": 2920,
  "status": {
    "confirmed": true,
    "block_height": 834638,
    "block_hash": "000000000000000000025f742c626208ac87e0b7d15054abb4a19ca2d735a54e",
    "block_time": 1710405325
  },
  "hex": "02000000000101776cc5681803b2bfe85fa391aed1660bb3ce7f8b9524e149b2386bce32b9b78e01000000000000008002435100000000000017a914a1c11f54f30b896b3edaa4908d2bc0e26371f14f87f04b180000000000160014835bfe172e381dbb735c8c785eac2c5d2b78894302473044022064e4078626378dd761be2a5b1078be3728c37f97757f0eb5a44ef9b7cd9297460220386753da9fd64954edd05e490b76019550c8b92935af86a871abbd46414ea089012102728e289e18d742035ae5289a9ed64f2d3aca088dcaed4b8ef37215a541a29a7400000000"
}