{
  "txid": "62fe449d1d5f8e12178d10b53ee448060096bd5f3d8d26c71705eb7913d68176",
  "version": 2,
  "locktime": 834637,
  "vin": [
    {
      "txid": "03448d155851713bc2e7e7ce0646c7405963db2309996d1769788558ddc69520",
      "vout": 0,
      "prevout": {
        "scriptpubkey": "00146ecb98acad2a313639d6bcbc914e4cec4b3206ac",
        "scriptpubkey_asm": "OP_0 OP_PUSHBYTES_20 6ecb98acad2a313639d6bcbc914e4cec4b3206ac",
        "scriptpubkey_type": "v0_p2wpkh",
        "scriptpubkey_address": "bc1qdm9e3t9d9gcnvwwkhj7fznjva39nyp4vfsxn7d",
        "value": 10300
      },
      "scriptsig": "",
      "scriptsig_asm": "",
      "witness": [
        "304402205d3adc01f8d97fb30b10d38cc58fee8b4f5348ceb834b120fa7f15dceb476c69022069b14525456c1afd92dff9d1a439b27ae18b8489008bbf901af12b10b957a4b401",
        "03efcc5d5624b56eed91240442604096bf92a51ddcdd800eb111ee561fced0ff6b"
      ],
      "is_coinbase": false,
      "sequence": 4294967293
    },
    {
      "txid": "7bc4305c3d9068b2cba006de1952a4b462b6ef2cc48e55c57db569c79778c5e2",
      "vout": 0,
      "prevout": {
        "scriptpubkey": "0014895adf6f0fab6dccbc2e9ac255a2bfb46e2e54c1",
        "scriptpubkey_asm": "OP_0 OP_PUSHBYTES_20 895adf6f0fab6dccbc2e9ac255a2bfb46e2e54c1",
        "scriptpubkey_type": "v0_p2wpkh",
        "scriptpubkey_address": "bc1q39dd7mc04dkue0pwntp9tg4lk3hzu4xp3u73kh",
        "value": 11400
      },
      "scriptsig": "",
      "scriptsig_asm": "",
      "witness": [
        "3044022006032040527ca99cc4ae870b44bcd72aeb2bdcffc9d0ff2c1cfe4f0824106c1a0220037c2d08f826acf8242973d2555acf8954a02e102e25d3ccff768703ca2e899101",
        "03989bb282ccca38524f6ad12de5e2a1ec3fbc5340e861be6c4bc3ad40632808ae"
      ],
      "is_coinbase": false,
      "sequence": 4294967293
    },
    {
      "txid": "e248bc99243430c58b9aa4ebdb5bc10e548e88a8578e681bd6fd05649a150ebf",
      "vout": 41,
      "prevout": {
        "scriptpubkey": "0014895adf6f0fab6dccbc2e9ac255a2bfb46e2e54c1",
        "scriptpubkey_asm": "OP_0 OP_PUSHBYTES_20 895adf6f0fab6dccbc2e9ac255a2bfb46e2e54c1",
        "scriptpubkey_type": "v0_p2wpkh",
        "scriptpubkey_address": "bc1q39dd7mc04dkue0pwntp9tg4lk3hzu4xp3u73kh",
        "value": 589298
      },
      "scriptsig": "",
      "scriptsig_asm": "",
      "witness": [
        "304402201abead9df076f83e9f868e27ce80bed6634fd950cde1d4b195cb7559c1da7c9c02204e93e13557696a9cd0e7b362d827da4b347479d2881c9eaa69c12b5a43828e7301",
        "03989bb282ccca38524f6ad12de5e2a1ec3fbc5340e861be6c4bc3ad40632808ae"
      ],
      "is_coinbase": false,
      "sequence": 4294967293
    }
  ],
  "vout": [
    {
      "scriptpubkey": "00146ecb98acad2a313639d6bcbc914e4cec4b3206ac",
      "scriptpubkey_asm": "OP_0 OP_PUSHBYTES_20 6ecb98acad2a313639d6bcbc914e4cec4b3206ac",
      "scriptpubkey_type": "v0_p2wpkh",
      "scriptpubkey_address": "bc1qdm9e3t9d9gcnvwwkhj7fznjva39nyp4vfsxn7d",
      "value": 6400
    },
    {
      "scriptpubkey": "a914ca0e15b6ffe02b0ddaf625d476a2de166341526e87",
      "scriptpubkey_asm": "OP_HASH160 OP_PUSHBYTES_20 ca0e15b6ffe02b0ddaf625d476a2de166341526e OP_EQUAL",
      "scriptpubkey_type": "p2sh",
      "scriptpubkey_address": "3L7PHvZFxVCLR7n1nBF1nBqFRYC3F4ivcW",
      "value": 597000
    }
  ],
  "size": 519,
  "weight": 1107,
  "fee": 7598,
  "status": {
    "confirmed": true,
    "block_height": 834638,
    "block_hash": "000000000000000000025f742c626208ac87e0b7d15054abb4a19ca2d735a54e",
    "block_time": 1710405325
  },
  "hex": "020000000001032095c6dd58857869176d990923db635940c74606cee7e7c23b715158158d44030000000000fdffffffe2c57897c769b57dc5558ec42cefb662b4a45219de06a0cbb268903d5c30c47b0000000000fdffffffbf0e159a6405fdd61b688e57a8888e540ec15bdbeba49a8bc530342499bc48e22900000000fdffffff0200190000000000001600146ecb98acad2a313639d6bcbc914e4cec4b3206ac081c09000000000017a914ca0e15b6ffe02b0ddaf625d476a2de166341526e870247304402205d3adc01f8d97fb30b10d38cc58fee8b4f5348ceb834b120fa7f15dceb476c69022069b14525456c1afd92dff9d1a439b27ae18b8489008bbf901af12b10b957a4b4012103efcc5d5624b56eed91240442604096bf92a51ddcdd800eb111ee561fced0ff6b02473044022006032040527ca99cc4ae870b44bcd72aeb2bdcffc9d0ff2c1cfe4f0824106c1a0220037c2d08f826acf8242973d2555acf8954a02e102e25d3ccff768703ca2e8991012103989bb282ccca38524f6ad12de5e2a1ec3fbc5340e861be6c4bc3ad40632808ae0247304402201abead9df076f83e9f868e27ce80bed6634fd950cde1d4b195cb7559c1da7c9c02204e93e13557696a9cd0e7b362d827da4b347479d2881c9eaa69c12b5a43828e73012103989bb282ccca38524f6ad12de5e2a1ec3fbc5340e861be6c4bc3ad40632808ae4dbc0c00"
}