{
  "txid": "630eec291e2f1c8503652dbf174d8dfc44e714c1bf8651ff39f74dded66568f1",
  "version": 1,
  "locktime": 0,
  "vin": [
    {
      "txid": "3e48d7d87f854463fba8eb470f8be257b3d57eb56fdec13dca4564da0dcb98eb",
      "vout": 1,
      "prevout": {
        "scriptpubkey": "001423d45d2ef4e1b6387273c3b18ed63c669345a3df",
        "scriptpubkey_asm": "OP_0 OP_PUSHBYTES_20 23d45d2ef4e1b6387273c3b18ed63c669345a3df",
        "scriptpubkey_type": "v0_p2wpkh",
        "scriptpubkey_address": "bc1qy0296th5uxmrsunncwcca43uv6f5tg7lkvtdzc",
        "value": 246026
      },
      "scriptsig": "",
      "scriptsig_asm": "",
      "witness": [
        "30440220420be57ebac8f8dcd9cf4512714e52727d81c97750c3d1b505e30d6f5532f93b022008a83f174d29c5c24d37726cd8b7ee85bff8044137d8601a7986f2c5728de30601",
        "02f51d31ffdbf603124f5091739df5b5ab3a4a381f11828eab9aac3b13a5d8f01b"
      ],
      "is_coinbase": false,
      "sequence": 4294967295
    }
  ],
  "vout": [
    {
      "scriptpubkey": "76a914db153a207e450803650b8ce96d3237933c4b6c9c88ac",
      "scriptpubkey_asm": "OP_DUP OP_HASH160 OP_PUSHBYTES_20 db153a207e450803650b8ce96d3237933c4b6c9c OP_EQUALVERIFY OP_CHECKSIG",
      "scriptpubkey_type": "p2pkh",
      "scriptpubkey_address": "1LyQQtn9F4gUqZm4WQwGsTDhVZi9fxL7aj",
      "value": 136362
    },
    {
      "scriptpubkey": "001423d45d2ef4e1b6387273c3b18ed63c669345a3df",
      "scriptpubkey_asm": "OP_0 OP_PUSHBYTES_20 23d45d2ef4e1b6387273c3b18ed63c669345a3df",
      "scriptpubkey_type": "v0_p2wpkh",
      "scriptpubkey_address": "bc1qy0296th5uxmrsunncwcca43uv6f5tg7lkvtdzc",
      "value": 105776
    }
  ],
  "size": 225,
  "weight": 573,
  "fee": 3888,
  "status": {
    "confirmed": true,
    "block_height": 834638,
    "block_hash": "000000000000000000025f742c626208ac87e0b7d15054abb4a19ca2d735a54e",
    "block_time": 1710405325
  },
  "hex": "01000000000101eb98cb0dda6445ca3dc1de6fb57ed5b357e28b0f47eba8fb6344857fd8d7483e0100000000ffffffff02aa140200000000001976a914db153a207e450803650b8ce96d3237933c4b6c9c88ac309d01000000000016001423d45d2ef4e1b6387273c3b18ed63c669345a3df024730440220420be57ebac8f8dcd9cf4512714e52727d81c97750c3d1b505e30d6f5532f93b022008a83f174d29c5c24d37726cd8b7ee85bff8044137d8601a7986f2c5728de306012102f51d31ffdbf603124f5091739df5b5ab3a4a381f11828eab9aac3b13a5d8f01b00000000"
}