{
  "txid": "63100fb102b1c720155ab64c96583316f4efe2c38b19ee7df75ced9004f4d1fc",
  "version": 1,
  "locktime": 0,
  "vin": [
    {
      "txid": "f64ef5bdff9e96d464fbdbf47118279403acc9196efdab17d2d0297b96f6db98",
      "vout": 3,
      "prevout": {
        "scriptpubkey": "76a914d355aafb13bab80c9510de92d402ad494410df0788ac",
        "scriptpubkey_asm": "OP_DUP OP_HASH160 OP_PUSHBYTES_20 d355aafb13bab80c9510de92d402ad494410df07 OP_EQUALVERIFY OP_CHECKSIG",
        "scriptpubkey_type": "p2pkh",
        "scriptpubkey_address": "1LGSCnaVjcsDmt4MMtPv4DmZCjC9JesmJ1",
        "value": 265960000
      },
      "scriptsig": "473044022015ad4ebf7c335fb52a951a5e0780fc41b61997d0952d03777336f35fc659524c02207866c938f9c45d291b209fc29f235f71d6cb7b86e3f678388fbc8a9505d45f910121033bfb4909bbaf9c1ac1de5d70902b1e302b2158a0ef006af2bb27969037b8ce1d",
      "scriptsig_asm": "OP_PUSHBYTES_71 3044022015ad4ebf7c335fb52a951a5e0780fc41b61997d0952d03777336f35fc659524c02207866c938f9c45d291b209fc29f235f71d6cb7b86e3f678388fbc8a9505d45f9101 OP_PUSHBYTES_33 033bfb4909bbaf9c1ac1de5d70902b1e302b2158a0ef006af2bb27969037b8ce1d",
      "is_coinbase": false,
      "sequence": 4294967295
    }
  ],
  "vout": [
    {
      "scriptpubkey": "76a91475bd664961ea2c8fc8914d80764d25d5f8eb171788ac",
      "scriptpubkey_asm": "OP_DUP OP_HASH160 OP_PUSHBYTES_20 75bd664961ea2c8fc8914d80764d25d5f8eb1717 OP_EQUALVERIFY OP_CHECKSIG",
      "scriptpubkey_type": "p2pkh",
      "scriptpubkey_address": "1BjYxA4862vyUi5noYMFigcSkSwt1xyuSb",
      "value": 264950000
    },
    {
      "scriptpubkey": "76a91495aebf50d103672b9135062abf3e4a331808f3ec88ac",
      "scriptpubkey_asm": "OP_DUP OP_HASH160 OP_PUSHBYTES_20 95aebf50d103672b9135062abf3e4a331808f3ec OP_EQUALVERIFY OP_CHECKSIG",
      "scriptpubkey_type": "p2pkh",
      "scriptpubkey_address": "1EeT2EuuKXU6WsaUDjy39rr1cThE59C5du",
      "value": 1006610
    }
  ],
  "size": 225,
  "weight": 900,
  "fee": 3390,
  "status": {
    "confirmed": true,
    "block_height": 834638,
    "block_hash": "000000000000000000025f742c626208ac87e0b7d15054abb4a19ca2d735a54e",
    "block_time": 1710405325
  },
  "hex": "010000000198dbf6967b29d0d217abfd6e19c9ac0394271871f4dbfb64d4969effbdf54ef6030000006a473044022015ad4ebf7c335fb52a951a5e0780fc41b61997d0952d03777336f35fc659524c02207866c938f9c45d291b209fc29f235f71d6cb7b86e3f678388fbc8a9505d45f910121033bfb4909bbaf9c1ac1de5d70902b1e302b2158a0ef006af2bb27969037b8ce1dffffffff02f0d0ca0f000000001976a91475bd664961ea2c8fc8914d80764d25d5f8eb171788ac125c0f00000000001976a91495aebf50d103672b9135062abf3e4a331808f3ec88ac00000000"
}