{
  "txid": "6313c4ea814c91ec72c3e2930dd9370726a5fa41615f8f12aebd34897dcdd4a6",
  "version": 1,
  "locktime": 0,
  "vin": [
    {
      "txid": "abc2adfc68e90a1517d4e86deaa463e3ad4e9980f81a7344a09f2b3260bd2570",
      "vout": 39,
      "prevout": {
        "scriptpubkey": "0014883103d41a94daeee4b9fcf2470e9428ac45a0e4",
        "scriptpubkey_asm": "OP_0 OP_PUSHBYTES_20 883103d41a94daeee4b9fcf2470e9428ac45a0e4",
        "scriptpubkey_type": "v0_p2wpkh",
        "scriptpubkey_address": "bc1q3qcs84q6jndwae9elneywr559zkytg8yvfygfm",
        "value": 342455
      },
      "scriptsig": "",
      "scriptsig_asm": "",
      "witness": [
        "3045022100a33ea74f15fd6ec72d8f81ba536415d58125c1c6051d6c16af0393534b3154f1022050fb9933b5de2bd07ca2b49bfc809e1215311883b54162f38d692e341914ddb601",
        "029b598f50c37ab707a5992e88c9a543fa3e9baf38ebbb11f6971901af3dad502d"
      ],
      "is_coinbase": false,
      "sequence": 4294967295
    }
  ],
  "vout": [
    {
      "scriptpubkey": "0014ab182424e371909eb50dd9439d86b87d6ffc99dc",
      "scriptpubkey_asm": "OP_0 OP_PUSHBYTES_20 ab182424e371909eb50dd9439d86b87d6ffc99dc",
      "scriptpubkey_type": "v0_p2wpkh",
      "scriptpubkey_address": "bc1q4vvzgf8rwxgfadgdm9pemp4c04hlexwu2q4dvl",
      "value": 339485
    }
  ],
  "size": 192,
  "weight": 438,
  "fee": 2970,
  "status": {
    "confirmed": true,
    "block_height": 834638,
    "block_hash": "000000000000000000025f742c626208ac87e0b7d15054abb4a19ca2d735a54e",
    "block_time": 1710405325
  },
  "hex": "010000000001017025bd60322b9fa044731af880994eade363a4ea6de8d417150ae968fcadc2ab2700000000ffffffff011d2e050000000000160014ab182424e371909eb50dd9439d86b87d6ffc99dc02483045022100a33ea74f15fd6ec72d8f81ba536415d58125c1c6051d6c16af0393534b3154f1022050fb9933b5de2bd07ca2b49bfc809e1215311883b54162f38d692e341914ddb60121029b598f50c37ab707a5992e88c9a543fa3e9baf38ebbb11f6971901af3dad502d00000000"
}