{
  "txid": "63149376075288c10506ed42d239b5909279efab2a6cf6378049f5586e7d0360",
  "version": 2,
  "locktime": 0,
  "vin": [
    {
      "txid": "ceb234dcb4d61b5914e2bd55ef2adc543dc3e91f5d39f5ddd3fab76588ffd1e9",
      "vout": 1,
      "prevout": {
        "scriptpubkey": "0014adf715cb79cf912f92ae1b6ce2cff51626854f6f",
        "scriptpubkey_asm": "OP_0 OP_PUSHBYTES_20 adf715cb79cf912f92ae1b6ce2cff51626854f6f",
        "scriptpubkey_type": "v0_p2wpkh",
        "scriptpubkey_address": "bc1q4hm3tjmee7gjly4wrdkw9nl4zcng2nm056pxrf",
        "value": 41390
      },
      "scriptsig": "",
      "scriptsig_asm": "",
      "witness": [
        "30440220183767e990fe082547631d533b90aa1f43ad24297e2fab93b3c43d065a3deabe022022940df1adaee651a12b32e89439da874d6ea54320fe4ee60957cfc202994c7401",
        "02a4105bac12fe7488436f439edae93968d90c6f3b067f061a953baa184bdde23f"
      ],
      "is_coinbase": false,
      "sequence": 4294967295
    }
  ],
  "vout": [
    {
      "scriptpubkey": "6a2a717d0ae07b1ae07ff40c0a1f6708866779aed4db3f71bcb06303d2018581d3007f8f3b22750c4e8c60b4",
      "scriptpubkey_asm": "OP_RETURN OP_PUSHBYTES_42 717d0ae07b1ae07ff40c0a1f6708866779aed4db3f71bcb06303d2018581d3007f8f3b22750c4e8c60b4",
      "scriptpubkey_type": "op_return",
      "value": 0
    },
    {
      "scriptpubkey": "0014adf715cb79cf912f92ae1b6ce2cff51626854f6f",
      "scriptpubkey_asm": "OP_0 OP_PUSHBYTES_20 adf715cb79cf912f92ae1b6ce2cff51626854f6f",
      "scriptpubkey_type": "v0_p2wpkh",
      "scriptpubkey_address": "bc1q4hm3tjmee7gjly4wrdkw9nl4zcng2nm056pxrf",
      "value": 39632
    }
  ],
  "size": 244,
  "weight": 649,
  "fee": 1758,
  "status": {
    "confirmed": true,
    "block_height": 834464,
    "block_hash": "0000000000000000000177a0869a911a2b65c9bdcd5a8bcb02b68f305bee848e",
    "block_time": 1710308296
  },
  "hex": "02000000000101e9d1ff8865b7fad3ddf5395d1fe9c33d54dc2aef55bde214591bd6b4dc34b2ce0100000000ffffffff0200000000000000002c6a2a717d0ae07b1ae07ff40c0a1f6708866779aed4db3f71bcb06303d2018581d3007f8f3b22750c4e8c60b4d09a000000000000160014adf715cb79cf912f92ae1b6ce2cff51626854f6f024730440220183767e990fe082547631d533b90aa1f43ad24297e2fab93b3c43d065a3deabe022022940df1adaee651a12b32e89439da874d6ea54320fe4ee60957cfc202994c74012102a4105bac12fe7488436f439edae93968d90c6f3b067f061a953baa184bdde23f00000000"
}