{
  "txid": "6327f69509bb03c4e065cf7776ecc6ab025aad72e34a6c3ea96dfe66e0250028",
  "version": 2,
  "locktime": 0,
  "vin": [
    {
      "txid": "e835c4d922fbed17c48b3bb466ba1ffc020ede84c1303bdb67ca1f883dd615bb",
      "vout": 11,
      "prevout": {
        "scriptpubkey": "5120b76701ebe3e1c45b8c757f324859622d8e33a148cf493f3161a1d6f1d676e6e4",
        "scriptpubkey_asm": "OP_PUSHNUM_1 OP_PUSHBYTES_32 b76701ebe3e1c45b8c757f324859622d8e33a148cf493f3161a1d6f1d676e6e4",
        "scriptpubkey_type": "v1_p2tr",
        "scriptpubkey_address": "bc1pkansr6lru8z9hrr40ueysktz9k8r8g2geayn7vtp58t0r4nkumjq9y6xdw",
        "value": 3248
      },
      "scriptsig": "",
      "scriptsig_asm": "",
      "witness": [
        "4fbd4708143984c971e91bd942e93a4519ce30c30c7f2abc068348ff09b38efde5013d0fc8ad3d904588f4b0f6af389e95d96bb0d6a56ee7298faffbd12e2c18",
        "20c2ae823c97291b288ae097d5f7039c201d409c81787fd3257cb8618631757e84ac0063036f726401011e6170706c69636174696f6e2f6a736f6e3b636861727365743d7574662d38004cd37b2270223a22706f772d3230222c226f70223a226d696e74222c227469636b223a2250455045222c22616d74223a2231303030222c22736f6c7574696f6e223a22504550453a626331703378336875706e76383064666366666c34333367327a3776713378706c63673364666d79716365336d6c6d6e78397767753872717265763032653a303030303030303030303030303030303030303139393431613561653132383937363539383134343239323533333030353762306461393666336465613163353a3237363338353831373234227d68",
        "c0bf69a78b1b6433fca38fda21525e43a6c565682ca08e513a8f66feb668723930"
      ],
      "is_coinbase": false,
      "sequence": 4294967295
    }
  ],
  "vout": [
    {
      "scriptpubkey": "512089a37e066c3bda9c253fac62850bcc044c1fe1116a76406331dff73315c8e1c6",
      "scriptpubkey_asm": "OP_PUSHNUM_1 OP_PUSHBYTES_32 89a37e066c3bda9c253fac62850bcc044c1fe1116a76406331dff73315c8e1c6",
      "scriptpubkey_type": "v1_p2tr",
      "scriptpubkey_address": "bc1p3x3hupnv80dfcffl433g2z7vq3xplcg3dfmyqce3mlmnx9wgu8rqrev02e",
      "value": 546
    }
  ],
  "size": 487,
  "weight": 769,
  "fee": 2702,
  "status": {
    "confirmed": true,
    "block_height": 834460,
    "block_hash": "00000000000000000000484a79b643b2524bbce82e5d8a442013fa5b8905ed98",
    "block_time": 1710307468
  },
  "hex": "02000000000101bb15d63d881fca67db3b30c184de0e02fc1fba66b43b8bc417edfb22d9c435e80b00000000ffffffff01220200000000000022512089a37e066c3bda9c253fac62850bcc044c1fe1116a76406331dff73315c8e1c603404fbd4708143984c971e91bd942e93a4519ce30c30c7f2abc068348ff09b38efde5013d0fc8ad3d904588f4b0f6af389e95d96bb0d6a56ee7298faffbd12e2c18fd200120c2ae823c97291b288ae097d5f7039c201d409c81787fd3257cb8618631757e84ac0063036f726401011e6170706c69636174696f6e2f6a736f6e3b636861727365743d7574662d38004cd37b2270223a22706f772d3230222c226f70223a226d696e74222c227469636b223a2250455045222c22616d74223a2231303030222c22736f6c7574696f6e223a22504550453a626331703378336875706e76383064666366666c34333367327a3776713378706c63673364666d79716365336d6c6d6e78397767753872717265763032653a303030303030303030303030303030303030303139393431613561653132383937363539383134343239323533333030353762306461393666336465613163353a3237363338353831373234227d6821c0bf69a78b1b6433fca38fda21525e43a6c565682ca08e513a8f66feb66872393000000000"
}