{
  "txid": "63377566ff48bcd51e5ecbc8cf0d61fbed98d4ca4d14928e46bfff0054eb1fa7",
  "version": 1,
  "locktime": 0,
  "vin": [
    {
      "txid": "b90c582f4030f83144dc7dca84bd87ab8bb4995828c3acb8cb81cb91f0204689",
      "vout": 1,
      "prevout": {
        "scriptpubkey": "512053a881b604ccbcb88d4b6c93a8ce5e003f98f7e0cb0910ac41cfc8f2dbe19279",
        "scriptpubkey_asm": "OP_PUSHNUM_1 OP_PUSHBYTES_32 53a881b604ccbcb88d4b6c93a8ce5e003f98f7e0cb0910ac41cfc8f2dbe19279",
        "scriptpubkey_type": "v1_p2tr",
        "scriptpubkey_address": "bc1p2w5grdsyej7t3r2tdjf63nj7qqle3alqevy3ptzpely09klpjfus0yptst",
        "value": 4082
      },
      "scriptsig": "",
      "scriptsig_asm": "",
      "witness": [
        "38c3944adf1feea6b8a5ee49935f7fc37d397782b54783e5cdc9905bf6b588261493cd12fd78f823a2f0c8b5c1fd0e497d9f226d97f628638fade7ad91b2ab71",
        "205d0e7b267c46cecd77c7304635bbe6c942dd21039c382ad7613719db9671cf40ac0063036f726401010a746578742f706c61696e00397b2270223a226272632d3230222c226f70223a227472616e73666572222c227469636b223a2279796464222c22616d74223a2231303030227d68",
        "c05d0e7b267c46cecd77c7304635bbe6c942dd21039c382ad7613719db9671cf40"
      ],
      "is_coinbase": false,
      "sequence": 4294967285
    }
  ],
  "vout": [
    {
      "scriptpubkey": "00142d33763b267efd40fd909109a05fa87dc9f657ad",
      "scriptpubkey_asm": "OP_0 OP_PUSHBYTES_20 2d33763b267efd40fd909109a05fa87dc9f657ad",
      "scriptpubkey_type": "v0_p2wpkh",
      "scriptpubkey_address": "bc1q95ehvwex0m75plvsjyy6qhag0hylv4adj2qj4u",
      "value": 546
    }
  ],
  "size": 298,
  "weight": 544,
  "fee": 3536,
  "status": {
    "confirmed": true,
    "block_height": 834638,
    "block_hash": "000000000000000000025f742c626208ac87e0b7d15054abb4a19ca2d735a54e",
    "block_time": 1710405325
  },
  "hex": "01000000000101894620f091cb81cbb8acc3285899b48bab87bd84ca7ddc4431f830402f580cb90100000000f5ffffff0122020000000000001600142d33763b267efd40fd909109a05fa87dc9f657ad034038c3944adf1feea6b8a5ee49935f7fc37d397782b54783e5cdc9905bf6b588261493cd12fd78f823a2f0c8b5c1fd0e497d9f226d97f628638fade7ad91b2ab7171205d0e7b267c46cecd77c7304635bbe6c942dd21039c382ad7613719db9671cf40ac0063036f726401010a746578742f706c61696e00397b2270223a226272632d3230222c226f70223a227472616e73666572222c227469636b223a2279796464222c22616d74223a2231303030227d6821c05d0e7b267c46cecd77c7304635bbe6c942dd21039c382ad7613719db9671cf4000000000"
}