{
  "txid": "6350ef6541697b2e097886431cec8c2613dbc28b2536301edf7c734ab26bbe8a",
  "version": 2,
  "locktime": 0,
  "vin": [
    {
      "txid": "3d8e7aa26d66429a7356edc56960ba83757b6bd3e0ed616435573025ea042fd2",
      "vout": 1,
      "prevout": {
        "scriptpubkey": "5120018e047b13fe2ab1e29d295af127aecf17a4645230d59a7e8b35e37d494d1557",
        "scriptpubkey_asm": "OP_PUSHNUM_1 OP_PUSHBYTES_32 018e047b13fe2ab1e29d295af127aecf17a4645230d59a7e8b35e37d494d1557",
        "scriptpubkey_type": "v1_p2tr",
        "scriptpubkey_address": "bc1pqx8qg7cnlc4trc5a99d0zfaweut6gezjxr2e5l5txh3h6j2dz4tsutjzjr",
        "value": 118695
      },
      "scriptsig": "",
      "scriptsig_asm": "",
      "witness": [
        "db2c966a803222aa1525d5eb2af3f0f443c9f650256896df2007057e71437a88b29938b89fc99ce4aa5abda1cd27a1b0e4bd00c12b02a3ba6087666a531cdc2e"
      ],
      "is_coinbase": false,
      "sequence": 4294967295
    },
    {
      "txid": "b871e05b562f9d45b56b83b5979d22e0ee40a6f194ee48e04391d5ce5ade6bf9",
      "vout": 1,
      "prevout": {
        "scriptpubkey": "5120018e047b13fe2ab1e29d295af127aecf17a4645230d59a7e8b35e37d494d1557",
        "scriptpubkey_asm": "OP_PUSHNUM_1 OP_PUSHBYTES_32 018e047b13fe2ab1e29d295af127aecf17a4645230d59a7e8b35e37d494d1557",
        "scriptpubkey_type": "v1_p2tr",
        "scriptpubkey_address": "bc1pqx8qg7cnlc4trc5a99d0zfaweut6gezjxr2e5l5txh3h6j2dz4tsutjzjr",
        "value": 50699
      },
      "scriptsig": "",
      "scriptsig_asm": "",
      "witness": [
        "42477f3e551439bc007551cc0e3b48c0ad3552a86261098b27a2705ba275501e7d62c86d98c1911c2ca6d0db0592647009dc22f51ef82a15a6d35a511ffdaaa7"
      ],
      "is_coinbase": false,
      "sequence": 4294967295
    }
  ],
  "vout": [
    {
      "scriptpubkey": "51207bae108c6d1e564cbdc1fd5c51e4270c35f34e809567a28d9bb9f2b3df292a1c",
      "scriptpubkey_asm": "OP_PUSHNUM_1 OP_PUSHBYTES_32 7bae108c6d1e564cbdc1fd5c51e4270c35f34e809567a28d9bb9f2b3df292a1c",
      "scriptpubkey_type": "v1_p2tr",
      "scriptpubkey_address": "bc1p0whpprrdretye0wpl4w9rep8ps6lxn5qj4n69rvmh8et8hef9gwqp84xhd",
      "value": 136080
    },
    {
      "scriptpubkey": "5120018e047b13fe2ab1e29d295af127aecf17a4645230d59a7e8b35e37d494d1557",
      "scriptpubkey_asm": "OP_PUSHNUM_1 OP_PUSHBYTES_32 018e047b13fe2ab1e29d295af127aecf17a4645230d59a7e8b35e37d494d1557",
      "scriptpubkey_type": "v1_p2tr",
      "scriptpubkey_address": "bc1pqx8qg7cnlc4trc5a99d0zfaweut6gezjxr2e5l5txh3h6j2dz4tsutjzjr",
      "value": 29710
    }
  ],
  "size": 312,
  "weight": 846,
  "fee": 3604,
  "status": {
    "confirmed": true,
    "block_height": 834638,
    "block_hash": "000000000000000000025f742c626208ac87e0b7d15054abb4a19ca2d735a54e",
    "block_time": 1710405325
  },
  "hex": "02000000000102d22f04ea253057356461ede0d36b7b7583ba6069c5ed56739a42666da27a8e3d0100000000fffffffff96bde5aced59143e048ee94f1a640eee0229d97b5836bb5459d2f565be071b80100000000ffffffff0290130200000000002251207bae108c6d1e564cbdc1fd5c51e4270c35f34e809567a28d9bb9f2b3df292a1c0e74000000000000225120018e047b13fe2ab1e29d295af127aecf17a4645230d59a7e8b35e37d494d15570140db2c966a803222aa1525d5eb2af3f0f443c9f650256896df2007057e71437a88b29938b89fc99ce4aa5abda1cd27a1b0e4bd00c12b02a3ba6087666a531cdc2e014042477f3e551439bc007551cc0e3b48c0ad3552a86261098b27a2705ba275501e7d62c86d98c1911c2ca6d0db0592647009dc22f51ef82a15a6d35a511ffdaaa700000000"
}