{
  "txid": "6356aa747802299c61f0674fb2deea7674303669df3fd051ca2e2cd36ef977cd",
  "version": 2,
  "locktime": 0,
  "vin": [
    {
      "txid": "ff53c657d23a582ae56ce1e7f085080e35e4150fb42bdf242c0a235c2e02a771",
      "vout": 1,
      "prevout": {
        "scriptpubkey": "0014e7d55aceb43b746ede2fb33e127db54549083433",
        "scriptpubkey_asm": "OP_0 OP_PUSHBYTES_20 e7d55aceb43b746ede2fb33e127db54549083433",
        "scriptpubkey_type": "v0_p2wpkh",
        "scriptpubkey_address": "bc1qul244n458d6xah30kvlpyld4g4yssdpnpy0e95",
        "value": 531975
      },
      "scriptsig": "",
      "scriptsig_asm": "",
      "witness": [
        "3045022100ca2d6d1ec8681f89c46e6066ff3a7d28ec31c3f698cbf3f70e063e96feee23bf022055b89e74d55ca93868eadb9c747cea7436c923ac8bea511dad916ab65157a0c601",
        "029318f6a429c2c2a179ace4ec96e31c85ff027dd881b432108cfef82f431b2fa2"
      ],
      "is_coinbase": false,
      "sequence": 4294967293
    }
  ],
  "vout": [
    {
      "scriptpubkey": "5120f1a37382ec13312f1999249f0bed61a6f13626b67a9dbc59f3691a34848f503f",
      "scriptpubkey_asm": "OP_PUSHNUM_1 OP_PUSHBYTES_32 f1a37382ec13312f1999249f0bed61a6f13626b67a9dbc59f3691a34848f503f",
      "scriptpubkey_type": "v1_p2tr",
      "scriptpubkey_address": "bc1p7x3h8qhvzvcj7xveyj0shmtp5mcnvf4k02wmck0ndydrfpy02qls8czgga",
      "value": 7521
    },
    {
      "scriptpubkey": "0014e7d55aceb43b746ede2fb33e127db54549083433",
      "scriptpubkey_asm": "OP_0 OP_PUSHBYTES_20 e7d55aceb43b746ede2fb33e127db54549083433",
      "scriptpubkey_type": "v0_p2wpkh",
      "scriptpubkey_address": "bc1qul244n458d6xah30kvlpyld4g4yssdpnpy0e95",
      "value": 517569
    }
  ],
  "size": 235,
  "weight": 610,
  "fee": 6885,
  "status": {
    "confirmed": true,
    "block_height": 834638,
    "block_hash": "000000000000000000025f742c626208ac87e0b7d15054abb4a19ca2d735a54e",
    "block_time": 1710405325
  },
  "hex": "0200000000010171a7022e5c230a2c24df2bb40f15e4350e0885f0e7e16ce52a583ad257c653ff0100000000fdffffff02611d000000000000225120f1a37382ec13312f1999249f0bed61a6f13626b67a9dbc59f3691a34848f503fc1e5070000000000160014e7d55aceb43b746ede2fb33e127db5454908343302483045022100ca2d6d1ec8681f89c46e6066ff3a7d28ec31c3f698cbf3f70e063e96feee23bf022055b89e74d55ca93868eadb9c747cea7436c923ac8bea511dad916ab65157a0c60121029318f6a429c2c2a179ace4ec96e31c85ff027dd881b432108cfef82f431b2fa200000000"
}