{
  "txid": "635b5ff06b705b4af8296be77cb8273e6ca8dc756747aed4ba41b6a2a1fa4681",
  "version": 1,
  "locktime": 834458,
  "vin": [
    {
      "txid": "7dd048c8334072f1fcdd955d017d47a5be0d73ff7192f6952256d86f01a754f2",
      "vout": 0,
      "prevout": {
        "scriptpubkey": "00141b68a7d93caafc85790f8a1d6f3bade871cb5f33",
        "scriptpubkey_asm": "OP_0 OP_PUSHBYTES_20 1b68a7d93caafc85790f8a1d6f3bade871cb5f33",
        "scriptpubkey_type": "v0_p2wpkh",
        "scriptpubkey_address": "bc1qrd520kfu4t7g27g03gwk7wadapcukhenst2w68",
        "value": 16000000
      },
      "scriptsig": "",
      "scriptsig_asm": "",
      "witness": [
        "30440220160b097179ce6d8a3f54c7b249f8c53ce07d922c199e521da523f0627255e64302201ac8fad87f636c329bc20d87f575d919fc60921f97706ab4fee7811d34f396c901",
        "02d8232329423ef6f1f74ac10d8aaf14cff60f68a4d681ea5897a608fcb51d3654"
      ],
      "is_coinbase": false,
      "sequence": 4294967293
    }
  ],
  "vout": [
    {
      "scriptpubkey": "001471957107420975c1112b4d1d4d635f16797cde02",
      "scriptpubkey_asm": "OP_0 OP_PUSHBYTES_20 71957107420975c1112b4d1d4d635f16797cde02",
      "scriptpubkey_type": "v0_p2wpkh",
      "scriptpubkey_address": "bc1qwx2hzp6zp96uzyftf5w56c6lzeuhehszml8ztg",
      "value": 15000000
    },
    {
      "scriptpubkey": "0014c48e9b45f98d940bf924088c3c38f53d02370ee1",
      "scriptpubkey_asm": "OP_0 OP_PUSHBYTES_20 c48e9b45f98d940bf924088c3c38f53d02370ee1",
      "scriptpubkey_type": "v0_p2wpkh",
      "scriptpubkey_address": "bc1qcj8fk30e3k2qh7fypzxrcw8485prwrhpc0wat3",
      "value": 996166
    }
  ],
  "size": 222,
  "weight": 561,
  "fee": 3834,
  "status": {
    "confirmed": true,
    "block_height": 834460,
    "block_hash": "00000000000000000000484a79b643b2524bbce82e5d8a442013fa5b8905ed98",
    "block_time": 1710307468
  },
  "hex": "01000000000101f254a7016fd8562295f69271ff730dbea5477d015d95ddfcf1724033c848d07d0000000000fdffffff02c0e1e4000000000016001471957107420975c1112b4d1d4d635f16797cde0246330f0000000000160014c48e9b45f98d940bf924088c3c38f53d02370ee1024730440220160b097179ce6d8a3f54c7b249f8c53ce07d922c199e521da523f0627255e64302201ac8fad87f636c329bc20d87f575d919fc60921f97706ab4fee7811d34f396c9012102d8232329423ef6f1f74ac10d8aaf14cff60f68a4d681ea5897a608fcb51d36549abb0c00"
}