{
  "txid": "637021c3dce8526150cb60ba3eba354a4a9fea778d4623cb407b67a1f95f5236",
  "version": 2,
  "locktime": 0,
  "vin": [
    {
      "txid": "f494ef44ea35ba0fb8bc270b62f1e5d4b3b48a67b6690076d4572dcf8485a472",
      "vout": 0,
      "prevout": {
        "scriptpubkey": "512094134363aab01098790de062561ac99c152981f8d3dc7ac5f179e9f91938080e",
        "scriptpubkey_asm": "OP_PUSHNUM_1 OP_PUSHBYTES_32 94134363aab01098790de062561ac99c152981f8d3dc7ac5f179e9f91938080e",
        "scriptpubkey_type": "v1_p2tr",
        "scriptpubkey_address": "bc1pjsf5xca2kqgfs7gdup39vxkfns2jnq0c60w84303085ljxfcpq8qh0rw55",
        "value": 546
      },
      "scriptsig": "",
      "scriptsig_asm": "",
      "witness": [
        "2467d0542b9f186e18100925425bad9ee104eda8cc2900f31f56b514b0c033b181fc307a990389c56d7e2787fe1e2be36819ce4465ab8eb4bd46e0e154038652"
      ],
      "is_coinbase": false,
      "sequence": 4294967293
    },
    {
      "txid": "12ce18548bb62eca22ccd9b6cbc9434d095f34221c4bf0a016ca3065a788a2e0",
      "vout": 1,
      "prevout": {
        "scriptpubkey": "512094134363aab01098790de062561ac99c152981f8d3dc7ac5f179e9f91938080e",
        "scriptpubkey_asm": "OP_PUSHNUM_1 OP_PUSHBYTES_32 94134363aab01098790de062561ac99c152981f8d3dc7ac5f179e9f91938080e",
        "scriptpubkey_type": "v1_p2tr",
        "scriptpubkey_address": "bc1pjsf5xca2kqgfs7gdup39vxkfns2jnq0c60w84303085ljxfcpq8qh0rw55",
        "value": 62688
      },
      "scriptsig": "",
      "scriptsig_asm": "",
      "witness": [
        "5a96139f0aa6bcc6ed6fcda1aaf93a5a881456c07d16e323b4e5fcfa0e39f55c2784a6fac7ac78cfb93a2cb6821e228dc3331c75299ccb3a715bbeaf55d20e8c"
      ],
      "is_coinbase": false,
      "sequence": 4294967293
    }
  ],
  "vout": [
    {
      "scriptpubkey": "0014c6e54fdb9bc93049c69f362241c5568a45cc9fc4",
      "scriptpubkey_asm": "OP_0 OP_PUSHBYTES_20 c6e54fdb9bc93049c69f362241c5568a45cc9fc4",
      "scriptpubkey_type": "v0_p2wpkh",
      "scriptpubkey_address": "bc1qcmj5lkumeycyn35lxc3yr32k3fzue87yrjrna6",
      "value": 546
    },
    {
      "scriptpubkey": "0014fb7a185fc47428a9992c09f70c6add47a5c19223",
      "scriptpubkey_asm": "OP_0 OP_PUSHBYTES_20 fb7a185fc47428a9992c09f70c6add47a5c19223",
      "scriptpubkey_type": "v0_p2wpkh",
      "scriptpubkey_address": "bc1qldapsh7yws52nxfvp8msc6kag7jury3rxrw4dm",
      "value": 30000
    },
    {
      "scriptpubkey": "512094134363aab01098790de062561ac99c152981f8d3dc7ac5f179e9f91938080e",
      "scriptpubkey_asm": "OP_PUSHNUM_1 OP_PUSHBYTES_32 94134363aab01098790de062561ac99c152981f8d3dc7ac5f179e9f91938080e",
      "scriptpubkey_type": "v1_p2tr",
      "scriptpubkey_address": "bc1pjsf5xca2kqgfs7gdup39vxkfns2jnq0c60w84303085ljxfcpq8qh0rw55",
      "value": 27007
    }
  ],
  "size": 331,
  "weight": 922,
  "fee": 5681,
  "status": {
    "confirmed": true,
    "block_height": 834638,
    "block_hash": "000000000000000000025f742c626208ac87e0b7d15054abb4a19ca2d735a54e",
    "block_time": 1710405325
  },
  "hex": "0200000000010272a48584cf2d57d4760069b6678ab4b3d4e5f1620b27bcb80fba35ea44ef94f40000000000fdffffffe0a288a76530ca16a0f04b1c22345f094d43c9cbb6d9cc22ca2eb68b5418ce120100000000fdffffff032202000000000000160014c6e54fdb9bc93049c69f362241c5568a45cc9fc43075000000000000160014fb7a185fc47428a9992c09f70c6add47a5c192237f6900000000000022512094134363aab01098790de062561ac99c152981f8d3dc7ac5f179e9f91938080e01402467d0542b9f186e18100925425bad9ee104eda8cc2900f31f56b514b0c033b181fc307a990389c56d7e2787fe1e2be36819ce4465ab8eb4bd46e0e15403865201405a96139f0aa6bcc6ed6fcda1aaf93a5a881456c07d16e323b4e5fcfa0e39f55c2784a6fac7ac78cfb93a2cb6821e228dc3331c75299ccb3a715bbeaf55d20e8c00000000"
}