{
  "txid": "63723dc36175912e3ae8048e55ae523acaa5ace21a5d3528c30e41ceeb00a1e8",
  "version": 2,
  "locktime": 0,
  "vin": [
    {
      "txid": "d2973df38487663e45deab6e4e4810839250e6b6e6d9a3abbe041b5ef18e8c6d",
      "vout": 36,
      "prevout": {
        "scriptpubkey": "a914bf65b30c74d12c06000328883ad26102c05c287487",
        "scriptpubkey_asm": "OP_HASH160 OP_PUSHBYTES_20 bf65b30c74d12c06000328883ad26102c05c2874 OP_EQUAL",
        "scriptpubkey_type": "p2sh",
        "scriptpubkey_address": "3K92pP7s7RiAViqnyVuBbrp5ndrtEPmGbX",
        "value": 1047500
      },
      "scriptsig": "1600149a895238be70c9bdac7530d8ce08b62f9a269ba0",
      "scriptsig_asm": "OP_PUSHBYTES_22 00149a895238be70c9bdac7530d8ce08b62f9a269ba0",
      "witness": [
        "304402202780fc18c76053c9fed0ac133dce576e81623d856b83a034b62ffac58b098c96022031a83d787a3c0915f7ffa9f0a059c90e9c5c52479d91252ba84610a8a24b2f1c01",
        "0276876d5a27de54344ce208339a14a751a3b2f4aeae6223c4f2f16c3d76825cfd"
      ],
      "is_coinbase": false,
      "sequence": 4294967293,
      "inner_redeemscript_asm": "OP_0 OP_PUSHBYTES_20 9a895238be70c9bdac7530d8ce08b62f9a269ba0"
    }
  ],
  "vout": [
    {
      "scriptpubkey": "a91477b7e4608740f14760cbdaf17bbda32ffd2300b987",
      "scriptpubkey_asm": "OP_HASH160 OP_PUSHBYTES_20 77b7e4608740f14760cbdaf17bbda32ffd2300b9 OP_EQUAL",
      "scriptpubkey_type": "p2sh",
      "scriptpubkey_address": "3Cc2dRECSyu48oi4rU7EZ2WyArJ8eMPh1v",
      "value": 1046035
    }
  ],
  "size": 215,
  "weight": 533,
  "fee": 1465,
  "status": {
    "confirmed": true,
    "block_height": 834464,
    "block_hash": "0000000000000000000177a0869a911a2b65c9bdcd5a8bcb02b68f305bee848e",
    "block_time": 1710308296
  },
  "hex": "020000000001016d8c8ef15e1b04beaba3d9e6b6e650928310484e6eabde453e668784f33d97d224000000171600149a895238be70c9bdac7530d8ce08b62f9a269ba0fdffffff0113f60f000000000017a91477b7e4608740f14760cbdaf17bbda32ffd2300b9870247304402202780fc18c76053c9fed0ac133dce576e81623d856b83a034b62ffac58b098c96022031a83d787a3c0915f7ffa9f0a059c90e9c5c52479d91252ba84610a8a24b2f1c01210276876d5a27de54344ce208339a14a751a3b2f4aeae6223c4f2f16c3d76825cfd00000000"
}