{
  "txid": "637c4ce02275c033abd0a61743145b6ab1ec2b8bf0aab010e7bad09cb952bb86",
  "version": 2,
  "locktime": 0,
  "vin": [
    {
      "txid": "2a89c76772b7e5ab334d808f87b84121ec68dc747310b84d1d55c9f0b1aff1d7",
      "vout": 0,
      "prevout": {
        "scriptpubkey": "a9147e0d23bddb87d4b3a58f41dfcfd26a32b45c0bb987",
        "scriptpubkey_asm": "OP_HASH160 OP_PUSHBYTES_20 7e0d23bddb87d4b3a58f41dfcfd26a32b45c0bb9 OP_EQUAL",
        "scriptpubkey_type": "p2sh",
        "scriptpubkey_address": "3DBWofs97aGyGZGWDogkw6h5ic8NtSSBAu",
        "value": 983827
      },
      "scriptsig": "16001491868a096a187624338bba4afa0b4bb68d48d964",
      "scriptsig_asm": "OP_PUSHBYTES_22 001491868a096a187624338bba4afa0b4bb68d48d964",
      "witness": [
        "3045022100e15a400097dc92d9a06d79aab3f459a18fe929eba8f6b76583399afeb6439146022045d66df17e84fe63c2d95feff4776f8fb3e3166ca98cbad1df0d63c3786c3c3901",
        "03c8c303ea2bdd2f157b9f1057194cd10d8d1983d80b899befaf9130d1766022fd"
      ],
      "is_coinbase": false,
      "sequence": 4294967295,
      "inner_redeemscript_asm": "OP_0 OP_PUSHBYTES_20 91868a096a187624338bba4afa0b4bb68d48d964"
    }
  ],
  "vout": [
    {
      "scriptpubkey": "a914cbb57cc555bd4cc0d5a476877d5e729a6ee98f8b87",
      "scriptpubkey_asm": "OP_HASH160 OP_PUSHBYTES_20 cbb57cc555bd4cc0d5a476877d5e729a6ee98f8b OP_EQUAL",
      "scriptpubkey_type": "p2sh",
      "scriptpubkey_address": "3LG8WT3zamcEFNaKpxr26ydGEhBtFZ1L6e",
      "value": 979543
    }
  ],
  "size": 216,
  "weight": 534,
  "fee": 4284,
  "status": {
    "confirmed": true,
    "block_height": 834638,
    "block_hash": "000000000000000000025f742c626208ac87e0b7d15054abb4a19ca2d735a54e",
    "block_time": 1710405325
  },
  "hex": "02000000000101d7f1afb1f0c9551d4db8107374dc68ec2141b8878f804d33abe5b77267c7892a000000001716001491868a096a187624338bba4afa0b4bb68d48d964ffffffff0157f20e000000000017a914cbb57cc555bd4cc0d5a476877d5e729a6ee98f8b8702483045022100e15a400097dc92d9a06d79aab3f459a18fe929eba8f6b76583399afeb6439146022045d66df17e84fe63c2d95feff4776f8fb3e3166ca98cbad1df0d63c3786c3c39012103c8c303ea2bdd2f157b9f1057194cd10d8d1983d80b899befaf9130d1766022fd00000000"
}