{
  "txid": "6386093518a0739037918c0d6f1ffbdb539aa7b8561ae2910c718113cf77a256",
  "version": 1,
  "locktime": 0,
  "vin": [
    {
      "txid": "7a10f35b65b0c02880ebad202501f9a71e2c465fda462f109bbdf02779c4523b",
      "vout": 1,
      "prevout": {
        "scriptpubkey": "001490c27a9c9cb61345baa4a3d27275445445ce24d0",
        "scriptpubkey_asm": "OP_0 OP_PUSHBYTES_20 90c27a9c9cb61345baa4a3d27275445445ce24d0",
        "scriptpubkey_type": "v0_p2wpkh",
        "scriptpubkey_address": "bc1qjrp848yukcf5tw4y50f8ya2y23zuufxsp2swtm",
        "value": 3089673
      },
      "scriptsig": "",
      "scriptsig_asm": "",
      "witness": [
        "304402202bb3ea918f046ec44b56a0dd080b27163c3b4af47de532adc6e612dd03d64e11022029791609303331586ee23d35d1fe191520d027cb9e2bfd22e9d1888f6e143ac101",
        "02957b0f8dd0d5fe64887ab48ef20352cea97bdcad1cda9d4858b1b74a2ca3bb62"
      ],
      "is_coinbase": false,
      "sequence": 4294967295
    }
  ],
  "vout": [
    {
      "scriptpubkey": "76a9142552fb17ea2b43482027bc19c010d31d457bf1a688ac",
      "scriptpubkey_asm": "OP_DUP OP_HASH160 OP_PUSHBYTES_20 2552fb17ea2b43482027bc19c010d31d457bf1a6 OP_EQUALVERIFY OP_CHECKSIG",
      "scriptpubkey_type": "p2pkh",
      "scriptpubkey_address": "14QMQi1mnyPc87Vyk1x8SCd9BzockTRUkG",
      "value": 49046
    },
    {
      "scriptpubkey": "00148d27781da22fd7c34bc079a16040d5e5765dd6f4",
      "scriptpubkey_asm": "OP_0 OP_PUSHBYTES_20 8d27781da22fd7c34bc079a16040d5e5765dd6f4",
      "scriptpubkey_type": "v0_p2wpkh",
      "scriptpubkey_address": "bc1q35nhs8dz9ltuxj7q0xskqsx4u4m9m4h5tc27fn",
      "value": 3038597
    }
  ],
  "size": 225,
  "weight": 573,
  "fee": 2030,
  "status": {
    "confirmed": true,
    "block_height": 834638,
    "block_hash": "000000000000000000025f742c626208ac87e0b7d15054abb4a19ca2d735a54e",
    "block_time": 1710405325
  },
  "hex": "010000000001013b52c47927f0bd9b102f46da5f462c1ea7f9012520adeb8028c0b0655bf3107a0100000000ffffffff0296bf0000000000001976a9142552fb17ea2b43482027bc19c010d31d457bf1a688ac855d2e00000000001600148d27781da22fd7c34bc079a16040d5e5765dd6f40247304402202bb3ea918f046ec44b56a0dd080b27163c3b4af47de532adc6e612dd03d64e11022029791609303331586ee23d35d1fe191520d027cb9e2bfd22e9d1888f6e143ac1012102957b0f8dd0d5fe64887ab48ef20352cea97bdcad1cda9d4858b1b74a2ca3bb6200000000"
}