{
  "txid": "639ffa11da36ffcc3e9d896ef3d663eff48ba4c6d82d8fae2c67c6a4f9b001de",
  "version": 2,
  "locktime": 0,
  "vin": [
    {
      "txid": "b9243b26ef813b2d31ad8eed0f0d20eb28eeeed7ce270aad01c1f00fca1d3932",
      "vout": 0,
      "prevout": {
        "scriptpubkey": "51202949e192300b730137a7eea51edbaedc43a134fb2f00bb0d2433eddd31260ad1",
        "scriptpubkey_asm": "OP_PUSHNUM_1 OP_PUSHBYTES_32 2949e192300b730137a7eea51edbaedc43a134fb2f00bb0d2433eddd31260ad1",
        "scriptpubkey_type": "v1_p2tr",
        "scriptpubkey_address": "bc1p99y7ry3spdeszda8a6j3akawm3p6zd8m9uqtkrfyx0ka6vfxptgsk2gs3c",
        "value": 2661
      },
      "scriptsig": "",
      "scriptsig_asm": "",
      "witness": [
        "44fb3b8c11d1f423bd449843726f424d3ba39ef3c43e30e70accb2ff7cce076bef18701dc5827fd10b2b89677c2d927139e7b195d7ea866c8cd18e381326edfa",
        "20d8a2eaebf5bd8efb3a6da8239cb1c012a998b2699bfda459e561399f6e9dd587ac0063036f7264010118746578742f706c61696e3b636861727365743d7574662d38003a7b2270223a226272632d3230222c226f70223a227472616e73666572222c227469636b223a224b492424222c22616d74223a223130303030227d68",
        "c1d8a2eaebf5bd8efb3a6da8239cb1c012a998b2699bfda459e561399f6e9dd587"
      ],
      "is_coinbase": false,
      "sequence": 4294967293
    }
  ],
  "vout": [
    {
      "scriptpubkey": "a91495c8854748705e16d2d495efa40cebe161888eb187",
      "scriptpubkey_asm": "OP_HASH160 OP_PUSHBYTES_20 95c8854748705e16d2d495efa40cebe161888eb1 OP_EQUAL",
      "scriptpubkey_type": "p2sh",
      "scriptpubkey_address": "3FLzpYU4DaNnpeyw9PuzgLPJb5QnR5nGZj",
      "value": 546
    }
  ],
  "size": 314,
  "weight": 563,
  "fee": 2115,
  "status": {
    "confirmed": true,
    "block_height": 834460,
    "block_hash": "00000000000000000000484a79b643b2524bbce82e5d8a442013fa5b8905ed98",
    "block_time": 1710307468
  },
  "hex": "0200000000010132391dca0ff0c101ad0a27ced7eeee28eb200d0fed8ead312d3b81ef263b24b90000000000fdffffff01220200000000000017a91495c8854748705e16d2d495efa40cebe161888eb187034044fb3b8c11d1f423bd449843726f424d3ba39ef3c43e30e70accb2ff7cce076bef18701dc5827fd10b2b89677c2d927139e7b195d7ea866c8cd18e381326edfa8020d8a2eaebf5bd8efb3a6da8239cb1c012a998b2699bfda459e561399f6e9dd587ac0063036f7264010118746578742f706c61696e3b636861727365743d7574662d38003a7b2270223a226272632d3230222c226f70223a227472616e73666572222c227469636b223a224b492424222c22616d74223a223130303030227d6821c1d8a2eaebf5bd8efb3a6da8239cb1c012a998b2699bfda459e561399f6e9dd58700000000"
}