{
  "txid": "63b0ed06b2d3a6eb78e176591abc3548a027a0e7f261d1398516925f5944807d",
  "version": 1,
  "locktime": 0,
  "vin": [
    {
      "txid": "038b6fa59828b508d6fcd961b84d654ba726da58938a68208b73606383fc81a6",
      "vout": 1,
      "prevout": {
        "scriptpubkey": "0014da4823c7e25be3780ef9b34994c96c57ddd17c45",
        "scriptpubkey_asm": "OP_0 OP_PUSHBYTES_20 da4823c7e25be3780ef9b34994c96c57ddd17c45",
        "scriptpubkey_type": "v0_p2wpkh",
        "scriptpubkey_address": "bc1qmfyz83lzt03hsrhekdyefjtv2lwazlz9kth5mr",
        "value": 23376
      },
      "scriptsig": "",
      "scriptsig_asm": "",
      "witness": [
        "3045022100b35b4e31515edccc54bd35003a75c6a33935a106f3d7e3fb31061a11e472680902204b664457b8e8cf498a09ab4dd4137a6110ecf7295a2638f69f402f4ef288f05e01",
        "024ae7aff72daf02c44b8af157397718ac9777f77288fc23f464c473ac33ecafea"
      ],
      "is_coinbase": false,
      "sequence": 4294967295
    }
  ],
  "vout": [
    {
      "scriptpubkey": "001463869c56d67670e5742c24eaa666704adb9fe439",
      "scriptpubkey_asm": "OP_0 OP_PUSHBYTES_20 63869c56d67670e5742c24eaa666704adb9fe439",
      "scriptpubkey_type": "v0_p2wpkh",
      "scriptpubkey_address": "bc1qvwrfc4kkwecw2apvyn42vensftdelepee8gafm",
      "value": 16351
    },
    {
      "scriptpubkey": "0014da4823c7e25be3780ef9b34994c96c57ddd17c45",
      "scriptpubkey_asm": "OP_0 OP_PUSHBYTES_20 da4823c7e25be3780ef9b34994c96c57ddd17c45",
      "scriptpubkey_type": "v0_p2wpkh",
      "scriptpubkey_address": "bc1qmfyz83lzt03hsrhekdyefjtv2lwazlz9kth5mr",
      "value": 3218
    }
  ],
  "size": 223,
  "weight": 562,
  "fee": 3807,
  "status": {
    "confirmed": true,
    "block_height": 834638,
    "block_hash": "000000000000000000025f742c626208ac87e0b7d15054abb4a19ca2d735a54e",
    "block_time": 1710405325
  },
  "hex": "01000000000101a681fc836360738b20688a9358da26a74b654db861d9fcd608b52898a56f8b030100000000ffffffff02df3f00000000000016001463869c56d67670e5742c24eaa666704adb9fe439920c000000000000160014da4823c7e25be3780ef9b34994c96c57ddd17c4502483045022100b35b4e31515edccc54bd35003a75c6a33935a106f3d7e3fb31061a11e472680902204b664457b8e8cf498a09ab4dd4137a6110ecf7295a2638f69f402f4ef288f05e0121024ae7aff72daf02c44b8af157397718ac9777f77288fc23f464c473ac33ecafea00000000"
}