{
  "txid": "63b6af2f0253db0765575ae7a46c76e329a5553b36f5bf1d42737041181d8f10",
  "version": 2,
  "locktime": 0,
  "vin": [
    {
      "txid": "c1f8823cc07e4d4a042d22f59e2fff9a5992d9ee9314d1f3df91ad6a0f5d2a7f",
      "vout": 0,
      "prevout": {
        "scriptpubkey": "0014fb39b6de6a328708b8c7c8be02f7d4401bca1113",
        "scriptpubkey_asm": "OP_0 OP_PUSHBYTES_20 fb39b6de6a328708b8c7c8be02f7d4401bca1113",
        "scriptpubkey_type": "v0_p2wpkh",
        "scriptpubkey_address": "bc1qlvumdhn2x2rs3wx8ezlq9a75gqdu5ygnxr4ykp",
        "value": 10000000
      },
      "scriptsig": "",
      "scriptsig_asm": "",
      "witness": [
        "3045022100e1f780ae61aec8fa0cb9510b766c078618f008aa1a4aa53b6f5174d1047ea46202206cfc1b43d18c57dc2731e1f22a4eb2ea9837f6ee01ac511b71c43c3c7ffcb63b01",
        "027f86dab33d32740a22a6ed5a82e3295137a912140ff6f851ccbe41512de7242f"
      ],
      "is_coinbase": false,
      "sequence": 4294967295
    },
    {
      "txid": "bf8408fcc5cc2fa667d4ac1eab7882ac76d27d7e0be80d4bdf9bd51c331b0f5a",
      "vout": 1,
      "prevout": {
        "scriptpubkey": "001495566dbc1cc3be86d8c364ed97807b13c577c9f3",
        "scriptpubkey_asm": "OP_0 OP_PUSHBYTES_20 95566dbc1cc3be86d8c364ed97807b13c577c9f3",
        "scriptpubkey_type": "v0_p2wpkh",
        "scriptpubkey_address": "bc1qj4txm0qucwlgdkxrvnke0qrmz0zh0j0ndmektg",
        "value": 4892199
      },
      "scriptsig": "",
      "scriptsig_asm": "",
      "witness": [
        "304402201b78b98dc2d32effe5d0df3013d6e4de19c797e7c495df6c269fa7ba5589de96022040cec1697f490a1cf20250ccce5ee17ef7d38dc9e30bcb449e0e81dcdc8d616301",
        "0392860061a3daed6049548ad044fab3887a67b0862d30bc67d89f396ea0cac7e1"
      ],
      "is_coinbase": false,
      "sequence": 4294967295
    }
  ],
  "vout": [
    {
      "scriptpubkey": "0014debaa4d5845e49b0f481e8995f38e97f73e4e617",
      "scriptpubkey_asm": "OP_0 OP_PUSHBYTES_20 debaa4d5845e49b0f481e8995f38e97f73e4e617",
      "scriptpubkey_type": "v0_p2wpkh",
      "scriptpubkey_address": "bc1qm6a2f4vyteympaypazv47w8f0ae7fesht57v4m",
      "value": 12745846
    },
    {
      "scriptpubkey": "0014a11c9f059f85d1aadaf4ad431b013ee51f97e18a",
      "scriptpubkey_asm": "OP_0 OP_PUSHBYTES_20 a11c9f059f85d1aadaf4ad431b013ee51f97e18a",
      "scriptpubkey_type": "v0_p2wpkh",
      "scriptpubkey_address": "bc1q5ywf7pvlshg64kh544p3kqf7u50e0cv2z46lyv",
      "value": 2142627
    }
  ],
  "size": 371,
  "weight": 833,
  "fee": 3726,
  "status": {
    "confirmed": true,
    "block_height": 834638,
    "block_hash": "000000000000000000025f742c626208ac87e0b7d15054abb4a19ca2d735a54e",
    "block_time": 1710405325
  },
  "hex": "020000000001027f2a5d0f6aad91dff3d11493eed992599aff2f9ef5222d044a4d7ec03c82f8c10000000000ffffffff5a0f1b331cd59bdf4b0de80b7e7dd276ac8278ab1eacd467a62fccc5fc0884bf0100000000ffffffff02767cc20000000000160014debaa4d5845e49b0f481e8995f38e97f73e4e617a3b1200000000000160014a11c9f059f85d1aadaf4ad431b013ee51f97e18a02483045022100e1f780ae61aec8fa0cb9510b766c078618f008aa1a4aa53b6f5174d1047ea46202206cfc1b43d18c57dc2731e1f22a4eb2ea9837f6ee01ac511b71c43c3c7ffcb63b0121027f86dab33d32740a22a6ed5a82e3295137a912140ff6f851ccbe41512de7242f0247304402201b78b98dc2d32effe5d0df3013d6e4de19c797e7c495df6c269fa7ba5589de96022040cec1697f490a1cf20250ccce5ee17ef7d38dc9e30bcb449e0e81dcdc8d616301210392860061a3daed6049548ad044fab3887a67b0862d30bc67d89f396ea0cac7e100000000"
}