{
  "txid": "63ca106b2c0225549304c2c69186e2750c78d1a0daca533560ea04e7220ee275",
  "version": 1,
  "locktime": 0,
  "vin": [
    {
      "txid": "5fad129bc6283e3aefbf94223baae3843dd4764e846a5d9d8016cfaf4b162cf2",
      "vout": 0,
      "prevout": {
        "scriptpubkey": "5120199a38e9837f2baa054f51f6e2f59ad832e45b192da71112b7356d8128fc974d",
        "scriptpubkey_asm": "OP_PUSHNUM_1 OP_PUSHBYTES_32 199a38e9837f2baa054f51f6e2f59ad832e45b192da71112b7356d8128fc974d",
        "scriptpubkey_type": "v1_p2tr",
        "scriptpubkey_address": "bc1prxdr36vr0u465p2028mw9av6mqewgkce9kn3zy4hx4kcz28ujaxsuyhwlf",
        "value": 2710
      },
      "scriptsig": "",
      "scriptsig_asm": "",
      "witness": [
        "f6db374e11192c23671c13159cc21078cf6c6bf272ab378a7ceb7607e7d8b75ffd3be3098d9ae6de9daef5851face8aa0c1ea5a4d17d5a0207ef37f5d9499a2f83",
        "20be11f1d0580232188e877ef283eb5a1efd4e9e5290a2633605d666f59ad3fff2ac00630461746f6d03646d742ca16461726773a36b6d696e745f7469636b657263627463656e6f6e63651a003f0f696474696d651a65f10e2368",
        "c0be11f1d0580232188e877ef283eb5a1efd4e9e5290a2633605d666f59ad3fff2"
      ],
      "is_coinbase": false,
      "sequence": 4294967293
    }
  ],
  "vout": [
    {
      "scriptpubkey": "51209d6dbbf9bad17d0135e06ea56ec304df985f9f9bc809fa52ae6789a0947e0300",
      "scriptpubkey_asm": "OP_PUSHNUM_1 OP_PUSHBYTES_32 9d6dbbf9bad17d0135e06ea56ec304df985f9f9bc809fa52ae6789a0947e0300",
      "scriptpubkey_type": "v1_p2tr",
      "scriptpubkey_address": "bc1pn4kmh7d6697szd0qd6jkascym7v9l8umeqyl554wv7y6p9r7qvqquzkndh",
      "value": 1000
    }
  ],
  "size": 289,
  "weight": 571,
  "fee": 1710,
  "status": {
    "confirmed": true,
    "block_height": 834460,
    "block_hash": "00000000000000000000484a79b643b2524bbce82e5d8a442013fa5b8905ed98",
    "block_time": 1710307468
  },
  "hex": "01000000000101f22c164bafcf16809d5d6a844e76d43d84e3aa3b2294bfef3a3e28c69b12ad5f0000000000fdffffff01e8030000000000002251209d6dbbf9bad17d0135e06ea56ec304df985f9f9bc809fa52ae6789a0947e03000341f6db374e11192c23671c13159cc21078cf6c6bf272ab378a7ceb7607e7d8b75ffd3be3098d9ae6de9daef5851face8aa0c1ea5a4d17d5a0207ef37f5d9499a2f835b20be11f1d0580232188e877ef283eb5a1efd4e9e5290a2633605d666f59ad3fff2ac00630461746f6d03646d742ca16461726773a36b6d696e745f7469636b657263627463656e6f6e63651a003f0f696474696d651a65f10e236821c0be11f1d0580232188e877ef283eb5a1efd4e9e5290a2633605d666f59ad3fff200000000"
}