{
  "txid": "63dc2cfe61115832959586019584aabbd7050eb934a9630dc579d0c6b44663a7",
  "version": 2,
  "locktime": 0,
  "vin": [
    {
      "txid": "4cd6b1524532174128c7556bbaaa5030db9335f63a4d85bfeb5aaf27256ca890",
      "vout": 42,
      "prevout": {
        "scriptpubkey": "0014cd5a4d4a3cf25d378da072b30bd47f667b4a1b18",
        "scriptpubkey_asm": "OP_0 OP_PUSHBYTES_20 cd5a4d4a3cf25d378da072b30bd47f667b4a1b18",
        "scriptpubkey_type": "v0_p2wpkh",
        "scriptpubkey_address": "bc1qe4dy6j3u7fwn0rdqw2esh4rlvea55xcc3aulkf",
        "value": 59493782
      },
      "scriptsig": "",
      "scriptsig_asm": "",
      "witness": [
        "304402207323418dfb5009e6c63ffc36b41ae8f1def0252610aec14594619340049d6d0302202ea6aee1c092cc7251001276678240decf3063512962aca385dd7d3ee69df5f701",
        "029f1bb4eaa49cc22b97c382bb4d40165b40e852eaaad626b2b1028e8f94030b9a"
      ],
      "is_coinbase": false,
      "sequence": 4294967293
    }
  ],
  "vout": [
    {
      "scriptpubkey": "00142a325d1b715d73be7c2256212c9c78609015e2e9",
      "scriptpubkey_asm": "OP_0 OP_PUSHBYTES_20 2a325d1b715d73be7c2256212c9c78609015e2e9",
      "scriptpubkey_type": "v0_p2wpkh",
      "scriptpubkey_address": "bc1q9ge96xm3t4emulpz2csje8rcvzgptchfypwmdh",
      "value": 59488588
    }
  ],
  "size": 191,
  "weight": 437,
  "fee": 5194,
  "status": {
    "confirmed": true,
    "block_height": 834638,
    "block_hash": "000000000000000000025f742c626208ac87e0b7d15054abb4a19ca2d735a54e",
    "block_time": 1710405325
  },
  "hex": "0200000000010190a86c2527af5aebbf854d3af63593db3050aaba6b55c7284117324552b1d64c2a00000000fdffffff014cb98b03000000001600142a325d1b715d73be7c2256212c9c78609015e2e90247304402207323418dfb5009e6c63ffc36b41ae8f1def0252610aec14594619340049d6d0302202ea6aee1c092cc7251001276678240decf3063512962aca385dd7d3ee69df5f70121029f1bb4eaa49cc22b97c382bb4d40165b40e852eaaad626b2b1028e8f94030b9a00000000"
}