{
  "txid": "63ea086abb5c4fc1ce57eab83104666136b29f41c7b454d12fe6eadaa365371a",
  "version": 1,
  "locktime": 0,
  "vin": [
    {
      "txid": "076bdebe717e65725aa0253229c99b87cf7061bf2baf9c448551761b58b07203",
      "vout": 0,
      "prevout": {
        "scriptpubkey": "00207250d91085a77a4568fa4cfd5bebb59f0b9cb3530f8154cd4fab6d28abd548fe",
        "scriptpubkey_asm": "OP_0 OP_PUSHBYTES_32 7250d91085a77a4568fa4cfd5bebb59f0b9cb3530f8154cd4fab6d28abd548fe",
        "scriptpubkey_type": "v0_p2wsh",
        "scriptpubkey_address": "bc1qwfgdjyy95aay2686fn74h6a4nu9eev6np7q4fn204dkj3274frlqrskvx0",
        "value": 172899379
      },
      "scriptsig": "",
      "scriptsig_asm": "",
      "witness": [
        "",
        "30440220386657723e51c7ba6045dfe24c067a5fe9b4e635b8219797258a1e63fd8d641902200c20fd5f214a228baa8d8af979c31250cf80ed8e8c6fa8fff46c4206eedd462301",
        "304402206acb93c1b6361780e01ef5948c7313bed1d7131e7ff71984855218d3c0a02cf302206d6f6403a919309b339f2148a6917be504bdca5f158485e654563ccee356ea6501",
        "5221030fac04165b606dea3b8f81ada5eb66ca181d5215c873fcf46623ea7cf8e98b1b2102b7836a2a9d3ff095415383cb23a5f4f1badd75e44adb17537962eafe3ded3b602102f8cb472df1ae03cfa6b65b013add7862c7d3ac3684a8a92a44192faace228aee53ae"
      ],
      "is_coinbase": false,
      "sequence": 4294967295,
      "inner_witnessscript_asm": "OP_PUSHNUM_2 OP_PUSHBYTES_33 030fac04165b606dea3b8f81ada5eb66ca181d5215c873fcf46623ea7cf8e98b1b OP_PUSHBYTES_33 02b7836a2a9d3ff095415383cb23a5f4f1badd75e44adb17537962eafe3ded3b60 OP_PUSHBYTES_33 02f8cb472df1ae03cfa6b65b013add7862c7d3ac3684a8a92a44192faace228aee OP_PUSHNUM_3 OP_CHECKMULTISIG"
    }
  ],
  "vout": [
    {
      "scriptpubkey": "a9146f92b32dac23e83b073a7df0ec78327725d3dfff87",
      "scriptpubkey_asm": "OP_HASH160 OP_PUSHBYTES_20 6f92b32dac23e83b073a7df0ec78327725d3dfff OP_EQUAL",
      "scriptpubkey_type": "p2sh",
      "scriptpubkey_address": "3Brxfj3ipso4i2zw9DpcibDiX9vJRHERaQ",
      "value": 1097466
    },
    {
      "scriptpubkey": "00207250d91085a77a4568fa4cfd5bebb59f0b9cb3530f8154cd4fab6d28abd548fe",
      "scriptpubkey_asm": "OP_0 OP_PUSHBYTES_32 7250d91085a77a4568fa4cfd5bebb59f0b9cb3530f8154cd4fab6d28abd548fe",
      "scriptpubkey_type": "v0_p2wsh",
      "scriptpubkey_address": "bc1qwfgdjyy95aay2686fn74h6a4nu9eev6np7q4fn204dkj3274frlqrskvx0",
      "value": 171798133
    }
  ],
  "size": 380,
  "weight": 758,
  "fee": 3780,
  "status": {
    "confirmed": true,
    "block_height": 834638,
    "block_hash": "000000000000000000025f742c626208ac87e0b7d15054abb4a19ca2d735a54e",
    "block_time": 1710405325
  },
  "hex": "010000000001010372b0581b765185449caf2bbf6170cf879bc9293225a05a72657e71bede6b070000000000ffffffff02fabe10000000000017a9146f92b32dac23e83b073a7df0ec78327725d3dfff87756e3d0a000000002200207250d91085a77a4568fa4cfd5bebb59f0b9cb3530f8154cd4fab6d28abd548fe04004730440220386657723e51c7ba6045dfe24c067a5fe9b4e635b8219797258a1e63fd8d641902200c20fd5f214a228baa8d8af979c31250cf80ed8e8c6fa8fff46c4206eedd46230147304402206acb93c1b6361780e01ef5948c7313bed1d7131e7ff71984855218d3c0a02cf302206d6f6403a919309b339f2148a6917be504bdca5f158485e654563ccee356ea6501695221030fac04165b606dea3b8f81ada5eb66ca181d5215c873fcf46623ea7cf8e98b1b2102b7836a2a9d3ff095415383cb23a5f4f1badd75e44adb17537962eafe3ded3b602102f8cb472df1ae03cfa6b65b013add7862c7d3ac3684a8a92a44192faace228aee53ae00000000"
}