{
  "txid": "63f00f8933813c6cb57ea9dbcb81aef79aae10e4d20807bf55f4f5ce649a406d",
  "version": 1,
  "locktime": 0,
  "vin": [
    {
      "txid": "43f7f246579256330b98e5ee3dcdf6556c7b757d1cc676be43669f50584e052b",
      "vout": 126,
      "prevout": {
        "scriptpubkey": "0014d241df55bdf6108834bbbaa955c3daffa4739ae6",
        "scriptpubkey_asm": "OP_0 OP_PUSHBYTES_20 d241df55bdf6108834bbbaa955c3daffa4739ae6",
        "scriptpubkey_type": "v0_p2wpkh",
        "scriptpubkey_address": "bc1q6fqa74da7cggsd9mh254ts76l7j88xhxpjk6wl",
        "value": 9443
      },
      "scriptsig": "",
      "scriptsig_asm": "",
      "witness": [
        "30440220593b51d7a38204983dec8c7b9d5b59e7524aa1aad5c801f115d5f4a6689d4841022056cdfa1ec250774976bde60e4e615607b67893a6d9d28e2b89613e7ac5716ece01",
        "02b3b43ccfb948b166e892546b9e46af023e85f0c0d54b5811a79bd25de8093bd9"
      ],
      "is_coinbase": false,
      "sequence": 4294967293
    },
    {
      "txid": "f2b5ce224b76838a4e9ae94118685fa3ded4313925057c5b102aaf7e83634d24",
      "vout": 0,
      "prevout": {
        "scriptpubkey": "0014013f7d038d64710e2d07098673f3cf8ff069320a",
        "scriptpubkey_asm": "OP_0 OP_PUSHBYTES_20 013f7d038d64710e2d07098673f3cf8ff069320a",
        "scriptpubkey_type": "v0_p2wpkh",
        "scriptpubkey_address": "bc1qqylh6qudv3csutg8pxr88u703lcxjvs26pq5a6",
        "value": 9738
      },
      "scriptsig": "",
      "scriptsig_asm": "",
      "witness": [
        "3044022031773c69785b113612572666347741db2b3bf69566fb32b14fb50d9abe370a1a02200713d119d2d701b0e4006fa0574ef7b60736704593aff768649c41bb9b50d0d801",
        "021fd064f65e15241dff7d2ed9f8b34f04eb0acac6c3ab75481ba5dad2569822d1"
      ],
      "is_coinbase": false,
      "sequence": 4294967293
    },
    {
      "txid": "f59fd611761bbee52bbc772ef882ec662976989fffcd60ab683dad70453c0ecb",
      "vout": 58,
      "prevout": {
        "scriptpubkey": "0014b5b83e1e2d74f342af1edd62a0a9efb3f9c0bc3a",
        "scriptpubkey_asm": "OP_0 OP_PUSHBYTES_20 b5b83e1e2d74f342af1edd62a0a9efb3f9c0bc3a",
        "scriptpubkey_type": "v0_p2wpkh",
        "scriptpubkey_address": "bc1qkkuru83dwne59tc7m432p200k0uup0p6973zsn",
        "value": 87412
      },
      "scriptsig": "",
      "scriptsig_asm": "",
      "witness": [
        "304402206e4fb444eef0bdb37f9c4bf4855857d19939b6f651637dfc278aedd3ade5bcc302206fb00d52a9449e2ba1eb147d0ad973bf0760dfd0f6e9b4d01be5a8fcdd4f6ef101",
        "03691bb0497624c7d2259069371bf0e06f8ea2f027a11b95e5c114d44f36c74256"
      ],
      "is_coinbase": false,
      "sequence": 4294967293
    },
    {
      "txid": "7aae8c55cdea1429ec83c08af37093f7116d7c9b0655ebd62bbaa1eb5fee5f32",
      "vout": 83,
      "prevout": {
        "scriptpubkey": "0014b5b83e1e2d74f342af1edd62a0a9efb3f9c0bc3a",
        "scriptpubkey_asm": "OP_0 OP_PUSHBYTES_20 b5b83e1e2d74f342af1edd62a0a9efb3f9c0bc3a",
        "scriptpubkey_type": "v0_p2wpkh",
        "scriptpubkey_address": "bc1qkkuru83dwne59tc7m432p200k0uup0p6973zsn",
        "value": 11582
      },
      "scriptsig": "",
      "scriptsig_asm": "",
      "witness": [
        "30440220792352c6b96706872dd5489c67b75bc57eb8750c0c8875ba255d1850c5831fe80220374cf44b1061571c741a0f772fe5cad77fc3b5ccbd82521411fc47ac6d5759e601",
        "03691bb0497624c7d2259069371bf0e06f8ea2f027a11b95e5c114d44f36c74256"
      ],
      "is_coinbase": false,
      "sequence": 4294967293
    }
  ],
  "vout": [
    {
      "scriptpubkey": "001427bae53222ee93774c08da3f52b3d78b80d9e180",
      "scriptpubkey_asm": "OP_0 OP_PUSHBYTES_20 27bae53222ee93774c08da3f52b3d78b80d9e180",
      "scriptpubkey_type": "v0_p2wpkh",
      "scriptpubkey_address": "bc1qy7aw2v3za6fhwnqgmgl49v7h3wqdncvqy0e8m9",
      "value": 110662
    },
    {
      "scriptpubkey": "00149c7cde4ebf30a7a6694a2b360403d77ab6ef137a",
      "scriptpubkey_asm": "OP_0 OP_PUSHBYTES_20 9c7cde4ebf30a7a6694a2b360403d77ab6ef137a",
      "scriptpubkey_type": "v0_p2wpkh",
      "scriptpubkey_address": "bc1qn37dun4lxzn6v6229vmqgq7h02mw7ym69yeca5",
      "value": 2338
    }
  ],
  "size": 666,
  "weight": 1374,
  "fee": 5175,
  "status": {
    "confirmed": true,
    "block_height": 834638,
    "block_hash": "000000000000000000025f742c626208ac87e0b7d15054abb4a19ca2d735a54e",
    "block_time": 1710405325
  },
  "hex": "010000000001042b054e58509f6643be76c61c7d757b6c55f6cd3deee5980b3356925746f2f7437e00000000fdffffff244d63837eaf2a105b7c05253931d4dea35f681841e99a4e8a83764b22ceb5f20000000000fdffffffcb0e3c4570ad3d68ab60cdff9f98762966ec82f82e77bc2be5be1b7611d69ff53a00000000fdffffff325fee5feba1ba2bd6eb55069b7c6d11f79370f38ac083ec2914eacd558cae7a5300000000fdffffff0246b001000000000016001427bae53222ee93774c08da3f52b3d78b80d9e18022090000000000001600149c7cde4ebf30a7a6694a2b360403d77ab6ef137a024730440220593b51d7a38204983dec8c7b9d5b59e7524aa1aad5c801f115d5f4a6689d4841022056cdfa1ec250774976bde60e4e615607b67893a6d9d28e2b89613e7ac5716ece012102b3b43ccfb948b166e892546b9e46af023e85f0c0d54b5811a79bd25de8093bd902473044022031773c69785b113612572666347741db2b3bf69566fb32b14fb50d9abe370a1a02200713d119d2d701b0e4006fa0574ef7b60736704593aff768649c41bb9b50d0d80121021fd064f65e15241dff7d2ed9f8b34f04eb0acac6c3ab75481ba5dad2569822d10247304402206e4fb444eef0bdb37f9c4bf4855857d19939b6f651637dfc278aedd3ade5bcc302206fb00d52a9449e2ba1eb147d0ad973bf0760dfd0f6e9b4d01be5a8fcdd4f6ef1012103691bb0497624c7d2259069371bf0e06f8ea2f027a11b95e5c114d44f36c74256024730440220792352c6b96706872dd5489c67b75bc57eb8750c0c8875ba255d1850c5831fe80220374cf44b1061571c741a0f772fe5cad77fc3b5ccbd82521411fc47ac6d5759e6012103691bb0497624c7d2259069371bf0e06f8ea2f027a11b95e5c114d44f36c7425600000000"
}