{
  "txid": "6408aa26ce074c80a744472a2d45f92a5dd9bb698d09894c166ba3119979e9ff",
  "version": 1,
  "locktime": 0,
  "vin": [
    {
      "txid": "fdf9250c6a6944985b1b8fcb0ff7dffd3acf5529328471348a30a3925cae2e24",
      "vout": 0,
      "prevout": {
        "scriptpubkey": "0014b29c0f864a311d46bfd677d1030ad7530b5a18a1",
        "scriptpubkey_asm": "OP_0 OP_PUSHBYTES_20 b29c0f864a311d46bfd677d1030ad7530b5a18a1",
        "scriptpubkey_type": "v0_p2wpkh",
        "scriptpubkey_address": "bc1qk2wqlpj2xyw5d07kwlgsxzkh2v945x9p9mzsjk",
        "value": 201979
      },
      "scriptsig": "",
      "scriptsig_asm": "",
      "witness": [
        "3045022100e10213837b03c2a87d6035ac84d2bae147e62a82fb7b02f40889d7ac9839a40c0220287ab9b60a997fa70fdc9a20559ce01a92296f926ecfc9630b7e749f9c10e6ef01",
        "02eef4ffc90181bab4e92fe82430a7dd01aedab7c7bafd6d60a7c87e0ac2248a7c"
      ],
      "is_coinbase": false,
      "sequence": 4294967295
    },
    {
      "txid": "0b25cb5f35c1e7fb2afeb974d62caeffd2db451dce0a3dc1ffccad69cd01eab1",
      "vout": 0,
      "prevout": {
        "scriptpubkey": "00147da83469422701dc6ef4da809e0ed4bd162c993b",
        "scriptpubkey_asm": "OP_0 OP_PUSHBYTES_20 7da83469422701dc6ef4da809e0ed4bd162c993b",
        "scriptpubkey_type": "v0_p2wpkh",
        "scriptpubkey_address": "bc1q0k5rg62zyuqacmh5m2qfurk5h5tzexfm22dq3z",
        "value": 195415
      },
      "scriptsig": "",
      "scriptsig_asm": "",
      "witness": [
        "3045022100e145da8a5d14bca41725e6de9b6d1c8dffbf9e15a31127c1973270d4a81f91fe02200f4fa8fc9dc9802786a1d03dadd3e23b0b15cb91b30223f38de3d22e5783867701",
        "02b2cf651cd333e6905565cb0b37de28c74adadcdabd71b9674f240f9ccf295dec"
      ],
      "is_coinbase": false,
      "sequence": 4294967295
    },
    {
      "txid": "556bebe6ed1612e2efa6936119a96de57b241d6d918d9888e9a92cea1259442b",
      "vout": 2,
      "prevout": {
        "scriptpubkey": "00147be0b085a84d1c49552c74d99b1af027ba13ddd5",
        "scriptpubkey_asm": "OP_0 OP_PUSHBYTES_20 7be0b085a84d1c49552c74d99b1af027ba13ddd5",
        "scriptpubkey_type": "v0_p2wpkh",
        "scriptpubkey_address": "bc1q00stppdgf5wyj4fvwnvekxhsy7ap8hw4cslaxq",
        "value": 98280
      },
      "scriptsig": "",
      "scriptsig_asm": "",
      "witness": [
        "3045022100de3855fbd757a95b8e0f9312f8587b8bb48b8e55998379be311568f53e8e1cce022076d0c1368c79885a0b1d499feabfeaacc9fa75098aabdc93371681584d0d61fa01",
        "03ed88e1cb14a0a6edf49ba698aed7f4b5a14a245b7cf43b99b5ae69d58d072f0d"
      ],
      "is_coinbase": false,
      "sequence": 4294967295
    },
    {
      "txid": "f949a38ac2ef82e2fb7830fe263aad2f94b5fabefc1e98dc756754aaabdbef43",
      "vout": 2,
      "prevout": {
        "scriptpubkey": "0014f4e69c3dbbc550cbea3240fc97528999cef50c0c",
        "scriptpubkey_asm": "OP_0 OP_PUSHBYTES_20 f4e69c3dbbc550cbea3240fc97528999cef50c0c",
        "scriptpubkey_type": "v0_p2wpkh",
        "scriptpubkey_address": "bc1q7nnfc0dmc4gvh63jgr7fw55fn8802rqvxhknyq",
        "value": 186808
      },
      "scriptsig": "",
      "scriptsig_asm": "",
      "witness": [
        "30450221009f1461a7b4fc9fa2022352347aae8832e96fd8dcc190a402fa798da82d06040b022050d549f657a38b2492cecaf0db64c1305fbb220604bc2799362e2b471994558101",
        "0353e83083c6d361165ca2a34e4883d6d952a533d2b85e8b5f8ce5a38982ec9687"
      ],
      "is_coinbase": false,
      "sequence": 4294967295
    }
  ],
  "vout": [
    {
      "scriptpubkey": "76a9146d151b5cb1851ca210ae77ea8de2e3101a4f277488ac",
      "scriptpubkey_asm": "OP_DUP OP_HASH160 OP_PUSHBYTES_20 6d151b5cb1851ca210ae77ea8de2e3101a4f2774 OP_EQUALVERIFY OP_CHECKSIG",
      "scriptpubkey_type": "p2pkh",
      "scriptpubkey_address": "1AwmwSc6Nm13ekB29K6e8AcMnY2APxDeLC",
      "value": 554681
    },
    {
      "scriptpubkey": "0014408b24e92d2430bd3d15d7129c9c4eccabb7ddec",
      "scriptpubkey_asm": "OP_0 OP_PUSHBYTES_20 408b24e92d2430bd3d15d7129c9c4eccabb7ddec",
      "scriptpubkey_type": "v0_p2wpkh",
      "scriptpubkey_address": "bc1qgz9jf6fdysct60g46uffe8zwej4m0h0v58wnvl",
      "value": 120606
    }
  ],
  "size": 673,
  "weight": 1390,
  "fee": 7195,
  "status": {
    "confirmed": true,
    "block_height": 834638,
    "block_hash": "000000000000000000025f742c626208ac87e0b7d15054abb4a19ca2d735a54e",
    "block_time": 1710405325
  },
  "hex": "01000000000104242eae5c92a3308a347184322955cf3afddff70fcb8f1b5b9844696a0c25f9fd0000000000ffffffffb1ea01cd69adccffc13d0ace1d45dbd2ffae2cd674b9fe2afbe7c1355fcb250b0000000000ffffffff2b445912ea2ca9e988988d916d1d247be56da9196193a6efe21216ede6eb6b550200000000ffffffff43efdbabaa546775dc981efcbefab5942fad3a26fe3078fbe282efc28aa349f90200000000ffffffff02b9760800000000001976a9146d151b5cb1851ca210ae77ea8de2e3101a4f277488ac1ed7010000000000160014408b24e92d2430bd3d15d7129c9c4eccabb7ddec02483045022100e10213837b03c2a87d6035ac84d2bae147e62a82fb7b02f40889d7ac9839a40c0220287ab9b60a997fa70fdc9a20559ce01a92296f926ecfc9630b7e749f9c10e6ef012102eef4ffc90181bab4e92fe82430a7dd01aedab7c7bafd6d60a7c87e0ac2248a7c02483045022100e145da8a5d14bca41725e6de9b6d1c8dffbf9e15a31127c1973270d4a81f91fe02200f4fa8fc9dc9802786a1d03dadd3e23b0b15cb91b30223f38de3d22e57838677012102b2cf651cd333e6905565cb0b37de28c74adadcdabd71b9674f240f9ccf295dec02483045022100de3855fbd757a95b8e0f9312f8587b8bb48b8e55998379be311568f53e8e1cce022076d0c1368c79885a0b1d499feabfeaacc9fa75098aabdc93371681584d0d61fa012103ed88e1cb14a0a6edf49ba698aed7f4b5a14a245b7cf43b99b5ae69d58d072f0d024830450221009f1461a7b4fc9fa2022352347aae8832e96fd8dcc190a402fa798da82d06040b022050d549f657a38b2492cecaf0db64c1305fbb220604bc2799362e2b471994558101210353e83083c6d361165ca2a34e4883d6d952a533d2b85e8b5f8ce5a38982ec968700000000"
}