{
  "txid": "6412354bbeed31a54a7e0fab8924726edb2f79eb4e134c7a9631aa8230e31e3e",
  "version": 1,
  "locktime": 0,
  "vin": [
    {
      "txid": "d1df596a3bed6953936a859d48ff95fbd1823d03cdafd4f5190b8119ef70e81d",
      "vout": 1,
      "prevout": {
        "scriptpubkey": "0014b6098bdaa77bf6a00f6cfc88868645d72efe6f2c",
        "scriptpubkey_asm": "OP_0 OP_PUSHBYTES_20 b6098bdaa77bf6a00f6cfc88868645d72efe6f2c",
        "scriptpubkey_type": "v0_p2wpkh",
        "scriptpubkey_address": "bc1qkcychk4800m2qrmvljygdpj96uh0umevq5as6j",
        "value": 24738351
      },
      "scriptsig": "",
      "scriptsig_asm": "",
      "witness": [
        "3045022100d209f343c53c35c79cb40ef5b2eacfb998a59d7c3ad74514e267d13048e931c90220012d3803f1bd7d2a899f01dec305fd5c71c20f0ff84ba02d34cd3c0dcf0414a601",
        "037d28479b7f9ce6cd944466427e5269ae6544ab55bce342dfd96ac200bd694cbb"
      ],
      "is_coinbase": false,
      "sequence": 4294967295
    }
  ],
  "vout": [
    {
      "scriptpubkey": "a914b1cf6f039317cd67a573449815edccd6bc22ca5587",
      "scriptpubkey_asm": "OP_HASH160 OP_PUSHBYTES_20 b1cf6f039317cd67a573449815edccd6bc22ca55 OP_EQUAL",
      "scriptpubkey_type": "p2sh",
      "scriptpubkey_address": "3HuC2EtbsuoQs5x2ccUKJWU5uUy6ua5o6A",
      "value": 64098
    },
    {
      "scriptpubkey": "a914f0579bc9f507f1166f76fd4b0da8a5594ac364e987",
      "scriptpubkey_asm": "OP_HASH160 OP_PUSHBYTES_20 f0579bc9f507f1166f76fd4b0da8a5594ac364e9 OP_EQUAL",
      "scriptpubkey_type": "p2sh",
      "scriptpubkey_address": "3Pbq3jQCDwYBsML39G6BZyHXfutSMheZpQ",
      "value": 504371
    },
    {
      "scriptpubkey": "0014b2bc7adf4c5bc97b3202c329e48c14051906aad2",
      "scriptpubkey_asm": "OP_0 OP_PUSHBYTES_20 b2bc7adf4c5bc97b3202c329e48c14051906aad2",
      "scriptpubkey_type": "v0_p2wpkh",
      "scriptpubkey_address": "bc1qk2784h6vt0yhkvszcv57frq5q5vsd2kj5fre8e",
      "value": 27263
    },
    {
      "scriptpubkey": "00146124adacb1ea5008f042339f643b8f497a3401fa",
      "scriptpubkey_asm": "OP_0 OP_PUSHBYTES_20 6124adacb1ea5008f042339f643b8f497a3401fa",
      "scriptpubkey_type": "v0_p2wpkh",
      "scriptpubkey_address": "bc1qvyj2mt93afgq3uzzxw0kgwu0f9argq06urx3hp",
      "value": 175000
    },
    {
      "scriptpubkey": "0014a4d492fddd0375be1ad3b34c6d476c4308fe623e",
      "scriptpubkey_asm": "OP_0 OP_PUSHBYTES_20 a4d492fddd0375be1ad3b34c6d476c4308fe623e",
      "scriptpubkey_type": "v0_p2wpkh",
      "scriptpubkey_address": "bc1q5n2f9lwaqd6muxknkdxx63mvgvy0uc37tvw82u",
      "value": 1376336
    },
    {
      "scriptpubkey": "0014d99dc7ec2d70f1047c657193bf9b849daf65dba3",
      "scriptpubkey_asm": "OP_0 OP_PUSHBYTES_20 d99dc7ec2d70f1047c657193bf9b849daf65dba3",
      "scriptpubkey_type": "v0_p2wpkh",
      "scriptpubkey_address": "bc1qmxwu0mpdwrcsglr9wxfmlxuynkhktkar9djufg",
      "value": 13631
    },
    {
      "scriptpubkey": "00148d990e049aed5cca2e078f179b5ebc50783b3d0e",
      "scriptpubkey_asm": "OP_0 OP_PUSHBYTES_20 8d990e049aed5cca2e078f179b5ebc50783b3d0e",
      "scriptpubkey_type": "v0_p2wpkh",
      "scriptpubkey_address": "bc1q3kvsupy6a4wv5ts83utekh4u2purk0gwealn2f",
      "value": 735276
    },
    {
      "scriptpubkey": "002082861a92c29253188e02d01f02f53ffa4c6b7ea9a75ff035b02ad217bc9c4091",
      "scriptpubkey_asm": "OP_0 OP_PUSHBYTES_32 82861a92c29253188e02d01f02f53ffa4c6b7ea9a75ff035b02ad217bc9c4091",
      "scriptpubkey_type": "v0_p2wsh",
      "scriptpubkey_address": "bc1qs2rp4ykzjff33rsz6q0s9afllfxxkl4f5a0lqdds9tfp00yugzgssajm04",
      "value": 125990
    },
    {
      "scriptpubkey": "0014c76e5e30491657cd0607f2e1be00adeebfc08ee4",
      "scriptpubkey_asm": "OP_0 OP_PUSHBYTES_20 c76e5e30491657cd0607f2e1be00adeebfc08ee4",
      "scriptpubkey_type": "v0_p2wpkh",
      "scriptpubkey_address": "bc1qcah9uvzfzetu6ps87tsmuq9da6luprhyl4vlyc",
      "value": 10000000
    },
    {
      "scriptpubkey": "00146b05fdb2680205a4e0c4675203eb13e5074ea1c3",
      "scriptpubkey_asm": "OP_0 OP_PUSHBYTES_20 6b05fdb2680205a4e0c4675203eb13e5074ea1c3",
      "scriptpubkey_type": "v0_p2wpkh",
      "scriptpubkey_address": "bc1qdvzlmvngqgz6fcxyvafq86cnu5r5agwrpjtgv7",
      "value": 128120
    },
    {
      "scriptpubkey": "0014038556cb89789f49169721e9dbb662d6fc90a17f",
      "scriptpubkey_asm": "OP_0 OP_PUSHBYTES_20 038556cb89789f49169721e9dbb662d6fc90a17f",
      "scriptpubkey_type": "v0_p2wpkh",
      "scriptpubkey_address": "bc1qqwz4djuf0z05j95hy85ahdnz6m7fpgtlxmc4xx",
      "value": 7205169
    },
    {
      "scriptpubkey": "0014cc23b94917672b556a062fae09af2bc9e9b9dc84",
      "scriptpubkey_asm": "OP_0 OP_PUSHBYTES_20 cc23b94917672b556a062fae09af2bc9e9b9dc84",
      "scriptpubkey_type": "v0_p2wpkh",
      "scriptpubkey_address": "bc1qes3mjjghvu4426sx97hqntete85mnhyykpn9xu",
      "value": 1172833
    },
    {
      "scriptpubkey": "001431eaeb8c9fbe28942e4aee05fecb126b1ebe408d",
      "scriptpubkey_asm": "OP_0 OP_PUSHBYTES_20 31eaeb8c9fbe28942e4aee05fecb126b1ebe408d",
      "scriptpubkey_type": "v0_p2wpkh",
      "scriptpubkey_address": "bc1qx84whrylhc5fgtj2aczlajcjdv0tusyd822ptg",
      "value": 95408
    },
    {
      "scriptpubkey": "a914f6674ae9109556224720f4cd1ffd31ab92b9134d87",
      "scriptpubkey_asm": "OP_HASH160 OP_PUSHBYTES_20 f6674ae9109556224720f4cd1ffd31ab92b9134d OP_EQUAL",
      "scriptpubkey_type": "p2sh",
      "scriptpubkey_address": "3Q9stdYyEbrrjZ5rgr4rcEKCHwX3Z69V3S",
      "value": 52820
    },
    {
      "scriptpubkey": "0014380e7c0299b933473ef1a672a010120c80ae7ba3",
      "scriptpubkey_asm": "OP_0 OP_PUSHBYTES_20 380e7c0299b933473ef1a672a010120c80ae7ba3",
      "scriptpubkey_type": "v0_p2wpkh",
      "scriptpubkey_address": "bc1q8q88cq5ehye5w0h35ee2qyqjpjq2u7ar45xult",
      "value": 2948425
    },
    {
      "scriptpubkey": "a914cb5fe46ef74c42891083c1415c665feb03c2f84687",
      "scriptpubkey_asm": "OP_HASH160 OP_PUSHBYTES_20 cb5fe46ef74c42891083c1415c665feb03c2f846 OP_EQUAL",
      "scriptpubkey_type": "p2sh",
      "scriptpubkey_address": "3LEMyCaQjhQVLFuSzHByJWgJboGYPm75As",
      "value": 97658
    }
  ],
  "size": 673,
  "weight": 2362,
  "fee": 15953,
  "status": {
    "confirmed": true,
    "block_height": 834638,
    "block_hash": "000000000000000000025f742c626208ac87e0b7d15054abb4a19ca2d735a54e",
    "block_time": 1710405325
  },
  "hex": "010000000001011de870ef19810b19f5d4afcd033d82d1fb95ff489d856a935369ed3b6a59dfd10100000000ffffffff1062fa00000000000017a914b1cf6f039317cd67a573449815edccd6bc22ca558733b207000000000017a914f0579bc9f507f1166f76fd4b0da8a5594ac364e9877f6a000000000000160014b2bc7adf4c5bc97b3202c329e48c14051906aad298ab0200000000001600146124adacb1ea5008f042339f643b8f497a3401fa5000150000000000160014a4d492fddd0375be1ad3b34c6d476c4308fe623e3f35000000000000160014d99dc7ec2d70f1047c657193bf9b849daf65dba32c380b00000000001600148d990e049aed5cca2e078f179b5ebc50783b3d0e26ec01000000000022002082861a92c29253188e02d01f02f53ffa4c6b7ea9a75ff035b02ad217bc9c40918096980000000000160014c76e5e30491657cd0607f2e1be00adeebfc08ee478f40100000000001600146b05fdb2680205a4e0c4675203eb13e5074ea1c331f16d0000000000160014038556cb89789f49169721e9dbb662d6fc90a17f61e5110000000000160014cc23b94917672b556a062fae09af2bc9e9b9dc84b07401000000000016001431eaeb8c9fbe28942e4aee05fecb126b1ebe408d54ce00000000000017a914f6674ae9109556224720f4cd1ffd31ab92b9134d8749fd2c0000000000160014380e7c0299b933473ef1a672a010120c80ae7ba37a7d01000000000017a914cb5fe46ef74c42891083c1415c665feb03c2f8468702483045022100d209f343c53c35c79cb40ef5b2eacfb998a59d7c3ad74514e267d13048e931c90220012d3803f1bd7d2a899f01dec305fd5c71c20f0ff84ba02d34cd3c0dcf0414a60121037d28479b7f9ce6cd944466427e5269ae6544ab55bce342dfd96ac200bd694cbb00000000"
}