{
  "txid": "641b5ce7a7989b175c0bbae12d446a66bf955fe43c159a882fc041af9c88b8d0",
  "version": 1,
  "locktime": 0,
  "vin": [
    {
      "txid": "ba2eaef492b66d3c90ff6256a87bd6d77a104ab0e57f2f550b9bb052deb2cfd7",
      "vout": 0,
      "prevout": {
        "scriptpubkey": "001444a43968cf3bbfa4c983d52fc23a8385879018c0",
        "scriptpubkey_asm": "OP_0 OP_PUSHBYTES_20 44a43968cf3bbfa4c983d52fc23a8385879018c0",
        "scriptpubkey_type": "v0_p2wpkh",
        "scriptpubkey_address": "bc1qgjjrj6x08wl6fjvr65huyw5rskreqxxqkwp938",
        "value": 3742186
      },
      "scriptsig": "",
      "scriptsig_asm": "",
      "witness": [
        "304402206b9498d1552e6e91b6a1995186918651813cca1f78050a1e7b9c7d2730bd629c02200cc02c7c1c4d563ef4de37819456b4a28939d5c64a6065f54fbb6666fabe11c801",
        "0206f8ec2c79c13a13ebf67f9e9f4f288a66f873e3081578fe0d38194ea9ed7805"
      ],
      "is_coinbase": false,
      "sequence": 4294967295
    }
  ],
  "vout": [
    {
      "scriptpubkey": "76a91464b7752f00a75adaf7368b83a6e3418a2b66d60488ac",
      "scriptpubkey_asm": "OP_DUP OP_HASH160 OP_PUSHBYTES_20 64b7752f00a75adaf7368b83a6e3418a2b66d604 OP_EQUALVERIFY OP_CHECKSIG",
      "scriptpubkey_type": "p2pkh",
      "scriptpubkey_address": "1ABYM3x8jyDwMAMv3Rdc9bpfaVtMCtR8Ng",
      "value": 1906055
    },
    {
      "scriptpubkey": "001444a43968cf3bbfa4c983d52fc23a8385879018c0",
      "scriptpubkey_asm": "OP_0 OP_PUSHBYTES_20 44a43968cf3bbfa4c983d52fc23a8385879018c0",
      "scriptpubkey_type": "v0_p2wpkh",
      "scriptpubkey_address": "bc1qgjjrj6x08wl6fjvr65huyw5rskreqxxqkwp938",
      "value": 1832243
    }
  ],
  "size": 225,
  "weight": 573,
  "fee": 3888,
  "status": {
    "confirmed": true,
    "block_height": 834638,
    "block_hash": "000000000000000000025f742c626208ac87e0b7d15054abb4a19ca2d735a54e",
    "block_time": 1710405325
  },
  "hex": "01000000000101d7cfb2de52b09b0b552f7fe5b04a107ad7d67ba85662ff903c6db692f4ae2eba0000000000ffffffff0287151d00000000001976a91464b7752f00a75adaf7368b83a6e3418a2b66d60488ac33f51b000000000016001444a43968cf3bbfa4c983d52fc23a8385879018c00247304402206b9498d1552e6e91b6a1995186918651813cca1f78050a1e7b9c7d2730bd629c02200cc02c7c1c4d563ef4de37819456b4a28939d5c64a6065f54fbb6666fabe11c801210206f8ec2c79c13a13ebf67f9e9f4f288a66f873e3081578fe0d38194ea9ed780500000000"
}