{
  "txid": "6426a9f053bb1c2305f3af532a587297bee5d7a985462664853928f0b4c9806a",
  "version": 2,
  "locktime": 0,
  "vin": [
    {
      "txid": "a045e9c89c9bc0c87af121a8752b1626364e7fc244a238ab60f0eda0b1fe9103",
      "vout": 2,
      "prevout": {
        "scriptpubkey": "0014501ff4c6bc2ec99f1a89ddf8df448cfce265fb34",
        "scriptpubkey_asm": "OP_0 OP_PUSHBYTES_20 501ff4c6bc2ec99f1a89ddf8df448cfce265fb34",
        "scriptpubkey_type": "v0_p2wpkh",
        "scriptpubkey_address": "bc1q2q0lf34u9mye7x5fmhud73yvln3xt7e5lucq0p",
        "value": 2387501
      },
      "scriptsig": "",
      "scriptsig_asm": "",
      "witness": [
        "3045022100ba2f5e95013c59dfa5d072db9546a749c6894a1266ad1a65fcb72fab0c008cb802206201f823bcd11a563aec5a1d3ada92714d797705209da900f9875d2398bd2d1101",
        "0250b5b50ea8e5e49171c3b7f9919f93033edbe70418083c813e3d2c3003dc04e0"
      ],
      "is_coinbase": false,
      "sequence": 4294967293
    }
  ],
  "vout": [
    {
      "scriptpubkey": "0014b11286fb7c878964b7c0b3bb607a80827c35efa5",
      "scriptpubkey_asm": "OP_0 OP_PUSHBYTES_20 b11286fb7c878964b7c0b3bb607a80827c35efa5",
      "scriptpubkey_type": "v0_p2wpkh",
      "scriptpubkey_address": "bc1qkyfgd7mus7ykfd7qkwakq75qsf7rtma9zwtgwj",
      "value": 1688183
    },
    {
      "scriptpubkey": "0014501ff4c6bc2ec99f1a89ddf8df448cfce265fb34",
      "scriptpubkey_asm": "OP_0 OP_PUSHBYTES_20 501ff4c6bc2ec99f1a89ddf8df448cfce265fb34",
      "scriptpubkey_type": "v0_p2wpkh",
      "scriptpubkey_address": "bc1q2q0lf34u9mye7x5fmhud73yvln3xt7e5lucq0p",
      "value": 697229
    }
  ],
  "size": 223,
  "weight": 562,
  "fee": 2089,
  "status": {
    "confirmed": true,
    "block_height": 834638,
    "block_hash": "000000000000000000025f742c626208ac87e0b7d15054abb4a19ca2d735a54e",
    "block_time": 1710405325
  },
  "hex": "020000000001010391feb1a0edf060ab38a244c27f4e3626162b75a821f17ac8c09b9cc8e945a00200000000fdffffff0277c2190000000000160014b11286fb7c878964b7c0b3bb607a80827c35efa58da30a0000000000160014501ff4c6bc2ec99f1a89ddf8df448cfce265fb3402483045022100ba2f5e95013c59dfa5d072db9546a749c6894a1266ad1a65fcb72fab0c008cb802206201f823bcd11a563aec5a1d3ada92714d797705209da900f9875d2398bd2d1101210250b5b50ea8e5e49171c3b7f9919f93033edbe70418083c813e3d2c3003dc04e000000000"
}