{
  "txid": "643afb687180376401a40486938c76ccb8d8a56b26f309d8d15e0d405f35f6ee",
  "version": 2,
  "locktime": 0,
  "vin": [
    {
      "txid": "093f8245cdc85a79e6fcfb6ecf53a9789ee58bdb6761e246f8251a82b6a557c1",
      "vout": 0,
      "prevout": {
        "scriptpubkey": "512079808e7618610bc02c534a0d6df391c74d23dfce79422c3c5118ed834b920c8a",
        "scriptpubkey_asm": "OP_PUSHNUM_1 OP_PUSHBYTES_32 79808e7618610bc02c534a0d6df391c74d23dfce79422c3c5118ed834b920c8a",
        "scriptpubkey_type": "v1_p2tr",
        "scriptpubkey_address": "bc1p0xqguascvy9uqtznfgxkmuu3caxj8h7w09pzc0z3rrkcxjujpj9q8kfpln",
        "value": 29939
      },
      "scriptsig": "",
      "scriptsig_asm": "",
      "witness": [
        "143a5f67986aa86491f929eca1743a61b05748eafa85e1c95167dd5063c95b17c252fd7ab834bd0c2db3b74b8ff7d96f4f14ed40a2e01eb302e45f90bbf970d9",
        "20f2d00e1cce0b839d2e197679cac7a15152ec244338032c7767f72c1332d49a65ac0063036f7264010109696d6167652f706e67004d080289504e470d0a1a0a0000000d4948445200000118000001180806000000878ee98c000005f249444154789ceddcb1ab96551cc0f1f70d851c0405076b0897160dc50aa1a0a0dbe21d5c1a6c0f1a9a8226c12548c1ffa0a1b549da1c6e932d359b82ced2100e41828386c5db1fa05c1eb9e7ebf3bed7cf673e9ce7bcf7c29733fc38cbd5e5c56a0110786dee0300fb97c000198101320203640406c8080c901118202330404660808cc000198101320203640406c8080c901118202330404660808cc000198101320203640406c8080c901118202330404660808cc000198101320203640406c8080c901118202330404660808cc000198101320203640406c8080c901118202330404660808cc000198101320203640406c8080c90111820233040466080cc81b90fb0e99657e73ec1ee9e1e3f38f71176f5de671f4d5a77e1cb3727adbbf2d38f7b390e83b9c100198101320203640406c8080c901118202330404660808cc00099e5ead0a1d5dc87e0c52d1f3f1ebadf5c13bfdfee7c3e69dd8d1ffe1cfadddb476f0edd8fe7738301320203640406c8080c901118202330404660808cc00019810132cbd56a659277032d97cba1fbcd35c93bfa4ddea9a64e069bf8dd1b3718202330404660808cc000198101320203640406c8080c90111820e34dde0db55fdee4fd7df97496ef4ef5fe17739f60b3b9c100198101320203640406c8080c90114d080218202330404660808cc00099038b6fc64e84be6a9657e73ec1eee69ad085c5c20d0608090c901118202330404660808cc000198101320203640406c82c579717dee47d8e9fbf9ffb04ec47e7bf9afb042f971b0c901118202330404660808cc000198101320203640406c8080c901118202330404660808cc000198101320203640406c8080c90111820233040c69bbc7bb47dfdc8dc47d868774e9c9ae5bba7efdf9db46ee7e2c3f620fb9c1b0c901118202330404660808cc000198101320203640406c8080c903930f70136dd9963afcf7d84cd3671a276eac4efd4095d5e0e3718202330404660808cc000198101320203640406c8080c90111820b3f66ff22eaf8edd6ff5749e9fbbf5e4bf49eb7e393c6db87aaedfb13cb81cbadff9b78f0cdd6f346ff2ee8d1b0c901118202330404660808cc000198101320203640406c8080c9059fb37793f79f4efa475532760471b3dd93a97d1bf63eaff6df1eeb1a1df1dedd2cde343f7db397b72e87eb78fde1cbadf686e30404660808cc000198101320203640406c8080c9011182023304066ed2779bffbe0c3690bdf393769d9a58fdfd8c3699ef5ebc4ef8e76e6eb4f87ee37fc774cfcbf5d19fb55d68c1b0c901118202330404660808cc000198101320203640406c8080c9059fb49dea96e1cfe63ee23ec6afcf9a6bdedba7debdea475370eefe52ccfbaf0e8adb11bee1353ff1f936d8d4d0802dd6e343718202330404660808cc000198101320203640406c8080c90111820b3f693bcafde84ee34c32742079bfc77f9a73d07f3728301320203640406c8080c901118202330404660808cc000198101326b3fc90b8bc56271e7c4a9a1fb9dbe7f77d2ba6b5b0f867ef755e30603640406c8080c901118202330404660808cc000198101320203640406c8080c901118202330404660808cc000198101320203640406c8080c90f1262f1b61ea1bbaac173718202330404660808cc000198101320203640406c8080c90111820b3f693bcd7b61ecc7d845d6d5f3f32f711606db9c100198101320203640406c8080c901118202330404660808cc00099e5eaf26235f7217673e6efada1fb6ddfba37743ff6e6f65f4fe63ec246dbb9f870ee23ecca0d06c8080c901118202330404660808cc000198101320203640406c8acfd9bbcb09fdc39716af08ebf0dde6f2c3718202330404660808cc000198101320203640406c8080c90111820b3f693bcded0e5454c9d943d7dff6e7c12160b3718202430404660808cc000198101320203640406c8080c90111820b3f693bc3cdfced993b37c77aec9ead16fd9ce35f13b7c82f8dcd8ed46738301320203640406c8080c901118202330404660808cc00019810132267937d4d489daa913bfebfef6f1d409586ff2ae173718202330404660808cc000198101320203640406c8080c90111820f33fb5133b987b14f1a8b70000000049454e44ae426082680063036f726401011e6170706c69636174696f6e2f6a736f6e3b636861727365743d7574662d38004d62017b2270223a22766f7264222c2276223a312c227479223a22696e7363222c22636f6c223a2232343930616533353961306139323966616465616339303633646434366361613433653231363339333763363539646262616366333565343431656238643863222c22696964223a224d7574616e7420784d6f6e6b6573222c227075626c223a2231455337623370636a527a4667796969714c7278484b546e43686535364c4a485937222c226e6f6e6365223a393635352c226d696e746572223a226263317032746836686366356a783238396b6d72376e63703837656d336533766736703979616536787478616e76387a7135613268737a73757132303268222c22736967223a22484e6d414f30426173566161354c556e35494d6f745549717254327155704d4531634f7865634f6a66612f505634454f67694f2f4d7a42636d2b556e32646f54423538476164417756612b2f7a524d434751546675576f3d227d68",
        "c0f2d00e1cce0b839d2e197679cac7a15152ec244338032c7767f72c1332d49a65675a92934efa5e4869b2432a3e00abfc6819367af43949c2edc693b32d23ac05"
      ],
      "is_coinbase": false,
      "sequence": 4294967293
    }
  ],
  "vout": [
    {
      "scriptpubkey": "512052efabe134919472db63f4f013fb3b8e62c468252773a32cdd9b0e2053aabc05",
      "scriptpubkey_asm": "OP_PUSHNUM_1 OP_PUSHBYTES_32 52efabe134919472db63f4f013fb3b8e62c468252773a32cdd9b0e2053aabc05",
      "scriptpubkey_type": "v1_p2tr",
      "scriptpubkey_address": "bc1p2th6hcf5jx289kmr7ncp87em3e3vg6p9yae6xtxanv8zq5a2hszsuq202h",
      "value": 1000
    },
    {
      "scriptpubkey": "5120f4d3a74cb882d6df5a942aae15d724bad39222e79b62335fa7cdf54bc030f415",
      "scriptpubkey_asm": "OP_PUSHNUM_1 OP_PUSHBYTES_32 f4d3a74cb882d6df5a942aae15d724bad39222e79b62335fa7cdf54bc030f415",
      "scriptpubkey_type": "v1_p2tr",
      "scriptpubkey_address": "bc1p7nf6wn9csttd7k5592hpt4eyhtfeygh8nd3rxha8eh65hsps7s2s00yhus",
      "value": 17713
    },
    {
      "scriptpubkey": "51200705a5767db892e98125775049b1a13dd9ecdc8aea0df413cabbee683e871012",
      "scriptpubkey_asm": "OP_PUSHNUM_1 OP_PUSHBYTES_32 0705a5767db892e98125775049b1a13dd9ecdc8aea0df413cabbee683e871012",
      "scriptpubkey_type": "v1_p2tr",
      "scriptpubkey_address": "bc1pquz62anahzfwnqf9wagynvdp8hv7ehy2agxlgy72h0hxs058zqfqk8ksyq",
      "value": 3251
    }
  ],
  "size": 2358,
  "weight": 2898,
  "fee": 7975,
  "status": {
    "confirmed": true,
    "block_height": 834464,
    "block_hash": "0000000000000000000177a0869a911a2b65c9bdcd5a8bcb02b68f305bee848e",
    "block_time": 1710308296
  },
  "hex": "02000000000101c157a5b6821a25f846e26167db8be59e78a953cf6efbfce6795ac8cd45823f090000000000fdffffff03e80300000000000022512052efabe134919472db63f4f013fb3b8e62c468252773a32cdd9b0e2053aabc053145000000000000225120f4d3a74cb882d6df5a942aae15d724bad39222e79b62335fa7cdf54bc030f415b30c0000000000002251200705a5767db892e98125775049b1a13dd9ecdc8aea0df413cabbee683e8710120340143a5f67986aa86491f929eca1743a61b05748eafa85e1c95167dd5063c95b17c252fd7ab834bd0c2db3b74b8ff7d96f4f14ed40a2e01eb302e45f90bbf970d9fdf90720f2d00e1cce0b839d2e197679cac7a15152ec244338032c7767f72c1332d49a65ac0063036f7264010109696d6167652f706e67004d080289504e470d0a1a0a0000000d4948445200000118000001180806000000878ee98c000005f249444154789ceddcb1ab96551cc0f1f70d851c0405076b0897160dc50aa1a0a0dbe21d5c1a6c0f1a9a8226c12548c1ffa0a1b549da1c6e932d359b82ced2100e41828386c5db1fa05c1eb9e7ebf3bed7cf673e9ce7bcf7c29733fc38cbd5e5c56a0110786dee0300fb97c000198101320203640406c8080c901118202330404660808cc000198101320203640406c8080c901118202330404660808cc000198101320203640406c8080c901118202330404660808cc000198101320203640406c8080c901118202330404660808cc000198101320203640406c8080c901118202330404660808cc000198101320203640406c8080c90111820233040466080cc81b90fb0e99657e73ec1ee9e1e3f38f71176f5de671f4d5a77e1cb3727adbbf2d38f7b390e83b9c100198101320203640406c8080c901118202330404660808cc00099e5ead0a1d5dc87e0c52d1f3f1ebadf5c13bfdfee7c3e69dd8d1ffe1cfadddb476f0edd8fe7738301320203640406c8080c901118202330404660808cc00019810132cbd56a659277032d97cba1fbcd35c93bfa4ddea9a64e069bf8dd1b3718202330404660808cc000198101320203640406c8080c90111820e34dde0db55fdee4fd7df97496ef4ef5fe17739f60b3b9c100198101320203640406c8080c90114d080218202330404660808cc00099038b6fc64e84be6a9657e73ec1eee69ad085c5c20d0608090c901118202330404660808cc000198101320203640406c82c579717dee47d8e9fbf9ffb04ec47e7bf9afb042f971b0c901118202330404660808cc000198101320203640406c8080c901118202330404660808cc000198101320203640406c8080c90111820233040c69bbc7bb47dfdc8dc47d868774e9c9ae5bba7efdf9db46ee7e2c3f620fb9c1b0c901118202330404660808cc000198101320203640406c8080c903930f70136dd9963afcf7d84cd3671a276eac4efd4095d5e0e3718202330404660808cc000198101320203640406c8080c90111820b3f66ff22eaf8edd6ff5749e9fbbf5e4bf49eb7e393c6db87aaedfb13cb81cbadff9b78f0cdd6f346ff2ee8d1b0c901118202330404660808cc000198101320203640406c8080c9059fb37793f79f4efa475532760471b3dd93a97d1bf63eaff6df1eeb1a1df1dedd2cde343f7db397b72e87eb78fde1cbadf686e30404660808cc000198101320203640406c8080c9011182023304066ed2779bffbe0c3690bdf393769d9a58fdfd8c3699ef5ebc4ef8e76e6eb4f87ee37fc774cfcbf5d19fb55d68c1b0c901118202330404660808cc000198101320203640406c8080c9059fb49dea96e1cfe63ee23ec6afcf9a6bdedba7debdea475370eefe52ccfbaf0e8adb11bee1353ff1f936d8d4d0802dd6e343718202330404660808cc000198101320203640406c8080c90111820b3f693bcafde84ee34c32742079bfc77f9a73d07f3728301320203640406c8080c901118202330404660808cc000198101326b3fc90b8bc56271e7c4a9a1fb9dbe7f77d2ba6b5b0f867ef755e30603640406c8080c901118202330404660808cc000198101320203640406c8080c901118202330404660808cc000198101320203640406c8080c90f1262f1b61ea1bbaac173718202330404660808cc000198101320203640406c8080c90111820b3f693bcd7b61ecc7d845d6d5f3f32f711606db9c100198101320203640406c8080c901118202330404660808cc00099e5eaf26235f7217673e6efada1fb6ddfba37743ff6e6f65f4fe63ec246dbb9f870ee23ecca0d06c8080c901118202330404660808cc000198101320203640406c8acfd9bbcb09fdc39716af08ebf0dde6f2c3718202330404660808cc000198101320203640406c8080c90111820b3f693bcded0e5454c9d943d7dff6e7c12160b3718202430404660808cc000198101320203640406c8080c90111820b3f693bc3cdfced993b37c77aec9ead16fd9ce35f13b7c82f8dcd8ed46738301320203640406c8080c901118202330404660808cc00019810132267937d4d489daa913bfebfef6f1d409586ff2ae173718202330404660808cc000198101320203640406c8080c90111820f33fb5133b987b14f1a8b70000000049454e44ae426082680063036f726401011e6170706c69636174696f6e2f6a736f6e3b636861727365743d7574662d38004d62017b2270223a22766f7264222c2276223a312c227479223a22696e7363222c22636f6c223a2232343930616533353961306139323966616465616339303633646434366361613433653231363339333763363539646262616366333565343431656238643863222c22696964223a224d7574616e7420784d6f6e6b6573222c227075626c223a2231455337623370636a527a4667796969714c7278484b546e43686535364c4a485937222c226e6f6e6365223a393635352c226d696e746572223a226263317032746836686366356a783238396b6d72376e63703837656d336533766736703979616536787478616e76387a7135613268737a73757132303268222c22736967223a22484e6d414f30426173566161354c556e35494d6f745549717254327155704d4531634f7865634f6a66612f505634454f67694f2f4d7a42636d2b556e32646f54423538476164417756612b2f7a524d434751546675576f3d227d6841c0f2d00e1cce0b839d2e197679cac7a15152ec244338032c7767f72c1332d49a65675a92934efa5e4869b2432a3e00abfc6819367af43949c2edc693b32d23ac0500000000"
}