{
  "txid": "643ba8316d68fbbe50280da31fdb5d4724e19d7545f80e5fe6a74f6727eade61",
  "version": 2,
  "locktime": 0,
  "vin": [
    {
      "txid": "b13bb5512a4904c28a6b7957b88edf574e8cb23551fc1dcfe22d6b239df42cf4",
      "vout": 39,
      "prevout": {
        "scriptpubkey": "5120ba2407957f03afc0b8b3df887590a83bb21683b018b8e1978cb1d357cac48406",
        "scriptpubkey_asm": "OP_PUSHNUM_1 OP_PUSHBYTES_32 ba2407957f03afc0b8b3df887590a83bb21683b018b8e1978cb1d357cac48406",
        "scriptpubkey_type": "v1_p2tr",
        "scriptpubkey_address": "bc1phgjq09tlqwhupw9nm7y8ty9g8wepdqasrzuwr9uvk8f40jkyssrqzpsx8g",
        "value": 2575
      },
      "scriptsig": "",
      "scriptsig_asm": "",
      "witness": [
        "5903c7fcc34ae867bba6e071cbc578d21bc3d6f96b709ee4c1b117776ddcc7af43643f9dd2cde0c7528b48efb483c5fd543e4c4fe99fd92bff7b3ecff4f0c4b5",
        "203f9fb4f6313d4c92b2dbb707deca61db984de273df9d45e0eac9f515c6b0d8bdac0063036f726401010a746578742f706c61696e00367b2270223a226272632d3230222c226f70223a226d696e74222c227469636b223a2261616161222c22616d74223a223130303030227d68",
        "c03f9fb4f6313d4c92b2dbb707deca61db984de273df9d45e0eac9f515c6b0d8bd"
      ],
      "is_coinbase": false,
      "sequence": 4261412863
    }
  ],
  "vout": [
    {
      "scriptpubkey": "0014ce0b5aa0dac72397a8aa5a85d90a2cfb46f0f630",
      "scriptpubkey_asm": "OP_0 OP_PUSHBYTES_20 ce0b5aa0dac72397a8aa5a85d90a2cfb46f0f630",
      "scriptpubkey_type": "v0_p2wpkh",
      "scriptpubkey_address": "bc1qec944gx6cu3e0292t2zajz3vldr0pa3sh356d9",
      "value": 546
    }
  ],
  "size": 295,
  "weight": 541,
  "fee": 2029,
  "status": {
    "confirmed": true,
    "block_height": 834464,
    "block_hash": "0000000000000000000177a0869a911a2b65c9bdcd5a8bcb02b68f305bee848e",
    "block_time": 1710308296
  },
  "hex": "02000000000101f42cf49d236b2de2cf1dfc5135b28c4e57df8eb857796b8ac204492a51b53bb12700000000fffffffd012202000000000000160014ce0b5aa0dac72397a8aa5a85d90a2cfb46f0f63003405903c7fcc34ae867bba6e071cbc578d21bc3d6f96b709ee4c1b117776ddcc7af43643f9dd2cde0c7528b48efb483c5fd543e4c4fe99fd92bff7b3ecff4f0c4b56e203f9fb4f6313d4c92b2dbb707deca61db984de273df9d45e0eac9f515c6b0d8bdac0063036f726401010a746578742f706c61696e00367b2270223a226272632d3230222c226f70223a226d696e74222c227469636b223a2261616161222c22616d74223a223130303030227d6821c03f9fb4f6313d4c92b2dbb707deca61db984de273df9d45e0eac9f515c6b0d8bd00000000"
}