{
  "txid": "645a8611f80c7494449a8644b831563becdd4dc27a5c451d2428cb0fa79eeee0",
  "version": 2,
  "locktime": 0,
  "vin": [
    {
      "txid": "a03bfb984416f838f56c61eb127c75114db893a01a8580be2b890f90e43f71b4",
      "vout": 1,
      "prevout": {
        "scriptpubkey": "0014d67a0568fc0bf4c8aad5b6e5ec4766ddc470adf4",
        "scriptpubkey_asm": "OP_0 OP_PUSHBYTES_20 d67a0568fc0bf4c8aad5b6e5ec4766ddc470adf4",
        "scriptpubkey_type": "v0_p2wpkh",
        "scriptpubkey_address": "bc1q6eaq268up06v32k4kmj7c3mxmhz8pt05ekaq9n",
        "value": 205875410
      },
      "scriptsig": "",
      "scriptsig_asm": "",
      "witness": [
        "30450221008b6a35e4f2d707c2f75cd2bafe7d818fddbe8e19da946abe01f596fbad0dcf3e02202cb346d4b32a786395fa5938dbfef02640938c4563250ede2b1e624f8bac834701",
        "038a679c4a2eaa2f824fc4d618b9d558af55167a741c401f38918c4f18d15eb16d"
      ],
      "is_coinbase": false,
      "sequence": 4294967295
    },
    {
      "txid": "dc453953ea0d46a9e102de8341a474ad66a0825882314bef9945207438110248",
      "vout": 2,
      "prevout": {
        "scriptpubkey": "0014d67a0568fc0bf4c8aad5b6e5ec4766ddc470adf4",
        "scriptpubkey_asm": "OP_0 OP_PUSHBYTES_20 d67a0568fc0bf4c8aad5b6e5ec4766ddc470adf4",
        "scriptpubkey_type": "v0_p2wpkh",
        "scriptpubkey_address": "bc1q6eaq268up06v32k4kmj7c3mxmhz8pt05ekaq9n",
        "value": 82780
      },
      "scriptsig": "",
      "scriptsig_asm": "",
      "witness": [
        "304402205f089e1798edaaf1a7900e1337f712d37672616da9e548dd8f4fc99e635e2b82022079ec01dd713493d0e0c0908719a3572a736ad7cc3f31a6bae9d5368ddba6c33a01",
        "038a679c4a2eaa2f824fc4d618b9d558af55167a741c401f38918c4f18d15eb16d"
      ],
      "is_coinbase": false,
      "sequence": 4294967295
    }
  ],
  "vout": [
    {
      "scriptpubkey": "0014bf7efea88e5b680597c24e15bdc9d9f99df85d12",
      "scriptpubkey_asm": "OP_0 OP_PUSHBYTES_20 bf7efea88e5b680597c24e15bdc9d9f99df85d12",
      "scriptpubkey_type": "v0_p2wpkh",
      "scriptpubkey_address": "bc1qhal0a2ywtd5qt97zfc2mmjwelxwlshgj85lpc6",
      "value": 205900000
    },
    {
      "scriptpubkey": "6a092b3a4254432f425443",
      "scriptpubkey_asm": "OP_RETURN OP_PUSHBYTES_9 2b3a4254432f425443",
      "scriptpubkey_type": "op_return",
      "value": 0
    },
    {
      "scriptpubkey": "0014d67a0568fc0bf4c8aad5b6e5ec4766ddc470adf4",
      "scriptpubkey_asm": "OP_0 OP_PUSHBYTES_20 d67a0568fc0bf4c8aad5b6e5ec4766ddc470adf4",
      "scriptpubkey_type": "v0_p2wpkh",
      "scriptpubkey_address": "bc1q6eaq268up06v32k4kmj7c3mxmhz8pt05ekaq9n",
      "value": 50704
    }
  ],
  "size": 391,
  "weight": 913,
  "fee": 7486,
  "status": {
    "confirmed": true,
    "block_height": 834638,
    "block_hash": "000000000000000000025f742c626208ac87e0b7d15054abb4a19ca2d735a54e",
    "block_time": 1710405325
  },
  "hex": "02000000000102b4713fe4900f892bbe80851aa093b84d11757c12eb616cf538f8164498fb3ba00100000000ffffffff4802113874204599ef4b31825882a066ad74a44183de02e1a9460dea533945dc0200000000ffffffff03e0c8450c00000000160014bf7efea88e5b680597c24e15bdc9d9f99df85d1200000000000000000b6a092b3a4254432f42544310c6000000000000160014d67a0568fc0bf4c8aad5b6e5ec4766ddc470adf4024830450221008b6a35e4f2d707c2f75cd2bafe7d818fddbe8e19da946abe01f596fbad0dcf3e02202cb346d4b32a786395fa5938dbfef02640938c4563250ede2b1e624f8bac83470121038a679c4a2eaa2f824fc4d618b9d558af55167a741c401f38918c4f18d15eb16d0247304402205f089e1798edaaf1a7900e1337f712d37672616da9e548dd8f4fc99e635e2b82022079ec01dd713493d0e0c0908719a3572a736ad7cc3f31a6bae9d5368ddba6c33a0121038a679c4a2eaa2f824fc4d618b9d558af55167a741c401f38918c4f18d15eb16d00000000"
}