{
  "txid": "645def9858a5f318b1a0c6b2dfe362e03ead69aec62d92dec7c4f64a1e0bdf58",
  "version": 2,
  "locktime": 0,
  "vin": [
    {
      "txid": "074c369b90b5cff01b0f3ade6b0d9c05e5c772c63688b4eea6dce0936ab92424",
      "vout": 0,
      "prevout": {
        "scriptpubkey": "76a9144aa402d9a3f2672ed63b331f10c2e8a1e792471888ac",
        "scriptpubkey_asm": "OP_DUP OP_HASH160 OP_PUSHBYTES_20 4aa402d9a3f2672ed63b331f10c2e8a1e7924718 OP_EQUALVERIFY OP_CHECKSIG",
        "scriptpubkey_type": "p2pkh",
        "scriptpubkey_address": "17ofUtYrxsMguDCMqhSiGiayX67Lo1duXY",
        "value": 12440000
      },
      "scriptsig": "4730440220039e3fcf40bbf2f76bdfbb4cd8c246a56ae9dd1c67b2b3083956cec66cdd45bb022028460ccd6ddedf05c3bedefab461b40b0ffd4e838ef8cce76123367c72222ba7012102ee49e6140ad805113a820631f8fb7eb6282d2ce0feea14f2588bee5eefaff10c",
      "scriptsig_asm": "OP_PUSHBYTES_71 30440220039e3fcf40bbf2f76bdfbb4cd8c246a56ae9dd1c67b2b3083956cec66cdd45bb022028460ccd6ddedf05c3bedefab461b40b0ffd4e838ef8cce76123367c72222ba701 OP_PUSHBYTES_33 02ee49e6140ad805113a820631f8fb7eb6282d2ce0feea14f2588bee5eefaff10c",
      "is_coinbase": false,
      "sequence": 4294967295
    }
  ],
  "vout": [
    {
      "scriptpubkey": "001406b9e086c2fcf603db9a06f7d3be97091806723c",
      "scriptpubkey_asm": "OP_0 OP_PUSHBYTES_20 06b9e086c2fcf603db9a06f7d3be97091806723c",
      "scriptpubkey_type": "v0_p2wpkh",
      "scriptpubkey_address": "bc1qq6u7ppkzlnmq8ku6qmma805hpyvqvu3uz7wzwr",
      "value": 4157263
    },
    {
      "scriptpubkey": "00146acc34afa48f5f2e94d399bc7612483fcadd4547",
      "scriptpubkey_asm": "OP_0 OP_PUSHBYTES_20 6acc34afa48f5f2e94d399bc7612483fcadd4547",
      "scriptpubkey_type": "v0_p2wpkh",
      "scriptpubkey_address": "bc1qdtxrftay3a0ja9xnnx78vyjg8l9d6328eq7s57",
      "value": 8277017
    }
  ],
  "size": 219,
  "weight": 876,
  "fee": 5720,
  "status": {
    "confirmed": true,
    "block_height": 834638,
    "block_hash": "000000000000000000025f742c626208ac87e0b7d15054abb4a19ca2d735a54e",
    "block_time": 1710405325
  },
  "hex": "02000000012424b96a93e0dca6eeb48836c672c7e5059c0d6bde3a0f1bf0cfb5909b364c07000000006a4730440220039e3fcf40bbf2f76bdfbb4cd8c246a56ae9dd1c67b2b3083956cec66cdd45bb022028460ccd6ddedf05c3bedefab461b40b0ffd4e838ef8cce76123367c72222ba7012102ee49e6140ad805113a820631f8fb7eb6282d2ce0feea14f2588bee5eefaff10cffffffff024f6f3f000000000016001406b9e086c2fcf603db9a06f7d3be97091806723c194c7e00000000001600146acc34afa48f5f2e94d399bc7612483fcadd454700000000"
}