{
  "txid": "6473b797f5b28987987577a4b46acb49f5d154c6ee402ed9114f7db3bf939377",
  "version": 1,
  "locktime": 0,
  "vin": [
    {
      "txid": "c1a46710b7a46e288fe4320da8203285b3bc86bcc2611c0066c916272b324a05",
      "vout": 0,
      "prevout": {
        "scriptpubkey": "0014d2296af8e0f94581e10ec856e674d8a4d00b599a",
        "scriptpubkey_asm": "OP_0 OP_PUSHBYTES_20 d2296af8e0f94581e10ec856e674d8a4d00b599a",
        "scriptpubkey_type": "v0_p2wpkh",
        "scriptpubkey_address": "bc1q6g5k478ql9zcrcgweptwvaxc5ngqkkv6k6xxla",
        "value": 2892452
      },
      "scriptsig": "",
      "scriptsig_asm": "",
      "witness": [
        "3045022100c98e5220f04b7e933f2dbd3f37abc2a3fc02a5a345d39d7b1fb7fd67061ad9c80220666f2c94d0f8d61dd873bcd4a486ba126dcd355db55adf35136c3ff487a735a601",
        "03ae23da75e7943adc303d5c8bd07b1afdc608bdba1a6099ec1b7cf826858758a4"
      ],
      "is_coinbase": false,
      "sequence": 4294967295
    }
  ],
  "vout": [
    {
      "scriptpubkey": "0014c2247d5e6f0930f6f07eff1c32e1f9f50f65e858",
      "scriptpubkey_asm": "OP_0 OP_PUSHBYTES_20 c2247d5e6f0930f6f07eff1c32e1f9f50f65e858",
      "scriptpubkey_type": "v0_p2wpkh",
      "scriptpubkey_address": "bc1qcgj86hn0pyc0dur7luwr9c0e758kt6zcq725m4",
      "value": 1007872
    },
    {
      "scriptpubkey": "0014f39a7e345520cb2d961dc47c03a5b9d47cfce0e6",
      "scriptpubkey_asm": "OP_0 OP_PUSHBYTES_20 f39a7e345520cb2d961dc47c03a5b9d47cfce0e6",
      "scriptpubkey_type": "v0_p2wpkh",
      "scriptpubkey_address": "bc1q7wd8udz4yr9jm9sac37q8fde6370ec8xaqlv2m",
      "value": 1880940
    }
  ],
  "size": 223,
  "weight": 562,
  "fee": 3640,
  "status": {
    "confirmed": true,
    "block_height": 834638,
    "block_hash": "000000000000000000025f742c626208ac87e0b7d15054abb4a19ca2d735a54e",
    "block_time": 1710405325
  },
  "hex": "01000000000101054a322b2716c966001c61c2bc86bcb3853220a80d32e48f286ea4b71067a4c10000000000ffffffff0200610f0000000000160014c2247d5e6f0930f6f07eff1c32e1f9f50f65e8586cb31c0000000000160014f39a7e345520cb2d961dc47c03a5b9d47cfce0e602483045022100c98e5220f04b7e933f2dbd3f37abc2a3fc02a5a345d39d7b1fb7fd67061ad9c80220666f2c94d0f8d61dd873bcd4a486ba126dcd355db55adf35136c3ff487a735a6012103ae23da75e7943adc303d5c8bd07b1afdc608bdba1a6099ec1b7cf826858758a400000000"
}