{
  "txid": "647d82a668e9c2bbef88a7395bc0f28932b1d6e488093110219b948716191dcb",
  "version": 1,
  "locktime": 0,
  "vin": [
    {
      "txid": "ab200d090e2486a4de7c4067d0eabe1afee24f64640b312bf57daa473fcaa815",
      "vout": 1,
      "prevout": {
        "scriptpubkey": "0014be34efdbf12a2cc7bf837defbac5e45a2185760c",
        "scriptpubkey_asm": "OP_0 OP_PUSHBYTES_20 be34efdbf12a2cc7bf837defbac5e45a2185760c",
        "scriptpubkey_type": "v0_p2wpkh",
        "scriptpubkey_address": "bc1qhc6wlkl39gkv00ur0hhm430ytgsc2asve7jmxp",
        "value": 199345
      },
      "scriptsig": "",
      "scriptsig_asm": "",
      "witness": [
        "304502210088de08fc022ebd44cb0a0789828f5533313831626d1df68ebf43e0aab8b28148022027fe146178cea5a90ab4f7681d424b89122fe56ce13828a4ea6b94b15f54b1cc01",
        "0318637417cd45a1403a02ec339bc9fcee583e4c2591c38bed89083c8110d38e4d"
      ],
      "is_coinbase": false,
      "sequence": 4294967295
    },
    {
      "txid": "cde417fe78c85c391153ba64b811682f1882e71d1762bd0113820d571789d30d",
      "vout": 55,
      "prevout": {
        "scriptpubkey": "0014e2a09b213259c8f0dd3ed847d5cd9054f128849b",
        "scriptpubkey_asm": "OP_0 OP_PUSHBYTES_20 e2a09b213259c8f0dd3ed847d5cd9054f128849b",
        "scriptpubkey_type": "v0_p2wpkh",
        "scriptpubkey_address": "bc1qu2sfkgfjt8y0phf7mpratnvs2ncj3pymgkd49a",
        "value": 326821
      },
      "scriptsig": "",
      "scriptsig_asm": "",
      "witness": [
        "304402200ce7897b7fa8a98f72f01039f38ca8d5ddedcc169d97fc82d825569fa9da8c2a02203dc854812a287afb24ef11a579d0c72fa1b08986dbe8c99286971d30fbcb292e01",
        "02ed4aeed1abf4443b0be5bf2ea635ae2f384f7ed96f0ef9de32f9d629cff24297"
      ],
      "is_coinbase": false,
      "sequence": 4294967295
    }
  ],
  "vout": [
    {
      "scriptpubkey": "76a914eff3cac1cc8efc319f4e91995ae54881aee0d44788ac",
      "scriptpubkey_asm": "OP_DUP OP_HASH160 OP_PUSHBYTES_20 eff3cac1cc8efc319f4e91995ae54881aee0d447 OP_EQUALVERIFY OP_CHECKSIG",
      "scriptpubkey_type": "p2pkh",
      "scriptpubkey_address": "1NskYpD9MeW49jF3dTVjzaK7fCkJCaho6S",
      "value": 272400
    },
    {
      "scriptpubkey": "0014727cb27231b5477925541308ac8527747e9f1ce6",
      "scriptpubkey_asm": "OP_0 OP_PUSHBYTES_20 727cb27231b5477925541308ac8527747e9f1ce6",
      "scriptpubkey_type": "v0_p2wpkh",
      "scriptpubkey_address": "bc1qwf7tyu33k4rhjf25zvy2epf8w3lf788x4f9njt",
      "value": 250607
    }
  ],
  "size": 374,
  "weight": 845,
  "fee": 3159,
  "status": {
    "confirmed": true,
    "block_height": 834638,
    "block_hash": "000000000000000000025f742c626208ac87e0b7d15054abb4a19ca2d735a54e",
    "block_time": 1710405325
  },
  "hex": "0100000000010215a8ca3f47aa7df52b310b64644fe2fe1abeead067407cdea486240e090d20ab0100000000ffffffff0dd38917570d821301bd62171de782182f6811b864ba5311395cc878fe17e4cd3700000000ffffffff0210280400000000001976a914eff3cac1cc8efc319f4e91995ae54881aee0d44788acefd2030000000000160014727cb27231b5477925541308ac8527747e9f1ce60248304502210088de08fc022ebd44cb0a0789828f5533313831626d1df68ebf43e0aab8b28148022027fe146178cea5a90ab4f7681d424b89122fe56ce13828a4ea6b94b15f54b1cc01210318637417cd45a1403a02ec339bc9fcee583e4c2591c38bed89083c8110d38e4d0247304402200ce7897b7fa8a98f72f01039f38ca8d5ddedcc169d97fc82d825569fa9da8c2a02203dc854812a287afb24ef11a579d0c72fa1b08986dbe8c99286971d30fbcb292e012102ed4aeed1abf4443b0be5bf2ea635ae2f384f7ed96f0ef9de32f9d629cff2429700000000"
}