{
  "txid": "64890f48f2b15cbb8d7eaf7b0d8766763396dd40c825ce9621466f163f62cd68",
  "version": 2,
  "locktime": 834550,
  "vin": [
    {
      "txid": "528d537cbaf791fde43d02725b8e9783668586e6fc0cd7d777f62a1e11d52448",
      "vout": 0,
      "prevout": {
        "scriptpubkey": "001439a9599f5c856bdcb3f2f94acb4c92f65d01b6a9",
        "scriptpubkey_asm": "OP_0 OP_PUSHBYTES_20 39a9599f5c856bdcb3f2f94acb4c92f65d01b6a9",
        "scriptpubkey_type": "v0_p2wpkh",
        "scriptpubkey_address": "bc1q8x54n86us44aevljl99vknyj7ewsrd4fcdrkwq",
        "value": 1292345
      },
      "scriptsig": "",
      "scriptsig_asm": "",
      "witness": [
        "304402205075035982ab6ed6c1eab08185ed8bbd7ac1526bab019dae442f1b0221108dbd02205ec79cf164018fc66aa7f00bf35d1b13d222db4c24b2e3f489806b4eeda51c9d01",
        "037f8200acd2fbd8a73265005ef562a90a9c21a110e180cf9845ca84b49fa414c6"
      ],
      "is_coinbase": false,
      "sequence": 4294967293
    },
    {
      "txid": "acf8539e200cdbd2b240e9b63dbdd0b5aefe452d00c61b834ea55c5c8a6ed524",
      "vout": 0,
      "prevout": {
        "scriptpubkey": "001459a768370eebe0bcfbe1658446f2d32f946bf5ea",
        "scriptpubkey_asm": "OP_0 OP_PUSHBYTES_20 59a768370eebe0bcfbe1658446f2d32f946bf5ea",
        "scriptpubkey_type": "v0_p2wpkh",
        "scriptpubkey_address": "bc1qtxnksdcwa0ste7lpvkzydukn972xha02qvqlth",
        "value": 189200
      },
      "scriptsig": "",
      "scriptsig_asm": "",
      "witness": [
        "304402201a2357900bf8de69c8b3a0a29a88f33b65b1d9b896efd2898204942afede1fb902203ea0ba071ef1ed9c7cab793f15f0d9d563712d6cc900b1a43e8b8d2e79a2fbc101",
        "033e24bf2a1ffb02ac66980f10d2a7642cb2aa657ab0efe5be626fe08d15262540"
      ],
      "is_coinbase": false,
      "sequence": 4294967293
    },
    {
      "txid": "bbf7a19c9d8422d3f0d16acbf4437961caaa93acd3aee59b54534b1b2a8a2701",
      "vout": 1,
      "prevout": {
        "scriptpubkey": "00146c52ca91011307ebb26c3aa2bfc4415d00dfecb5",
        "scriptpubkey_asm": "OP_0 OP_PUSHBYTES_20 6c52ca91011307ebb26c3aa2bfc4415d00dfecb5",
        "scriptpubkey_type": "v0_p2wpkh",
        "scriptpubkey_address": "bc1qd3fv4ygpzvr7hvnv823tl3zpt5qdlm94t06mfp",
        "value": 64034
      },
      "scriptsig": "",
      "scriptsig_asm": "",
      "witness": [
        "304402205fc19c8d235be8b1814454cf3b17ce9d66599edb7ec0510e10c552f1e86804ea02202c7a3640cda64ccdb8d2257a4e2111f236a8fc02c51a89a05e44693a5f1720d901",
        "036ee6ef494d7e963f32133ba53888b971ce2a4c6622f21f0be8d0487106dbe829"
      ],
      "is_coinbase": false,
      "sequence": 4294967293
    },
    {
      "txid": "e467c92b15e07402f35abd898decafac635b2acd1c78594db1c4dda587f95b91",
      "vout": 0,
      "prevout": {
        "scriptpubkey": "001410ebc80025d5e58deb359ffd6cb292d73abc3af6",
        "scriptpubkey_asm": "OP_0 OP_PUSHBYTES_20 10ebc80025d5e58deb359ffd6cb292d73abc3af6",
        "scriptpubkey_type": "v0_p2wpkh",
        "scriptpubkey_address": "bc1qzr4usqp96hjcm6e4nl7kev5j6uatcwhk4jkfx9",
        "value": 270700
      },
      "scriptsig": "",
      "scriptsig_asm": "",
      "witness": [
        "304402205fbe83f98b6e233122b5464de9d39bb3058031e76d7cec3e5945a52c18dd1fa6022020e67f6311d176cfe0f8cdce59dfd8b1d04c95a3f042735d5c3b63480421b8f501",
        "023bdbca8a51820db1f55c63aacd9fa904a9e123954088130aa1cb4d1c8b334937"
      ],
      "is_coinbase": false,
      "sequence": 4294967293
    },
    {
      "txid": "e694c722f1d051f0daa6c1e143b81a282376ae2f66ea92ea31b07f4983cd4029",
      "vout": 1,
      "prevout": {
        "scriptpubkey": "0014afb4ba66ea60127f72859b0d3db8180dc73c5206",
        "scriptpubkey_asm": "OP_0 OP_PUSHBYTES_20 afb4ba66ea60127f72859b0d3db8180dc73c5206",
        "scriptpubkey_type": "v0_p2wpkh",
        "scriptpubkey_address": "bc1q476t5eh2vqf87u59nvxnmwqcphrnc5sxd6d9cx",
        "value": 467600
      },
      "scriptsig": "",
      "scriptsig_asm": "",
      "witness": [
        "3044022025abe102327971f0dd8a1ac545a11f7433c2a886a5f915a619496787d6425dea022025afab98afaa3c206dc7560b027ead77419ac11b0e2e8cc382b020928d86dffe01",
        "032e37382ea5db399df1e8810688cff067a67e319b2747f8a09ed59d9b22f2abc0"
      ],
      "is_coinbase": false,
      "sequence": 4294967293
    }
  ],
  "vout": [
    {
      "scriptpubkey": "a914782920f6ad17de96d0e55408318be13b5d15f5f087",
      "scriptpubkey_asm": "OP_HASH160 OP_PUSHBYTES_20 782920f6ad17de96d0e55408318be13b5d15f5f0 OP_EQUAL",
      "scriptpubkey_type": "p2sh",
      "scriptpubkey_address": "3CeNHEshCPixAajqYm9ru4Dn11fsGWgrVR",
      "value": 2268367
    }
  ],
  "size": 784,
  "weight": 1525,
  "fee": 15512,
  "status": {
    "confirmed": true,
    "block_height": 834552,
    "block_hash": "00000000000000000001dd0468a70c94f619251d286585cff57aeb4bd9ede330",
    "block_time": 1710355598
  },
  "hex": "020000000001054824d5111e2af677d7d70cfce686856683978e5b72023de4fd91f7ba7c538d520000000000fdffffff24d56e8a5c5ca54e831bc6002d45feaeb5d0bd3db6e940b2d2db0c209e53f8ac0000000000fdffffff01278a2a1b4b53549be5aed3ac93aaca617943f4cb6ad1f0d322849d9ca1f7bb0100000000fdffffff915bf987a5ddc4b14d59781ccd2a5b63acafec8d89bd5af30274e0152bc967e40000000000fdffffff2940cd83497fb031ea92ea662fae7623281ab843e1c1a6daf051d0f122c794e60100000000fdffffff01cf9c22000000000017a914782920f6ad17de96d0e55408318be13b5d15f5f0870247304402205075035982ab6ed6c1eab08185ed8bbd7ac1526bab019dae442f1b0221108dbd02205ec79cf164018fc66aa7f00bf35d1b13d222db4c24b2e3f489806b4eeda51c9d0121037f8200acd2fbd8a73265005ef562a90a9c21a110e180cf9845ca84b49fa414c60247304402201a2357900bf8de69c8b3a0a29a88f33b65b1d9b896efd2898204942afede1fb902203ea0ba071ef1ed9c7cab793f15f0d9d563712d6cc900b1a43e8b8d2e79a2fbc10121033e24bf2a1ffb02ac66980f10d2a7642cb2aa657ab0efe5be626fe08d152625400247304402205fc19c8d235be8b1814454cf3b17ce9d66599edb7ec0510e10c552f1e86804ea02202c7a3640cda64ccdb8d2257a4e2111f236a8fc02c51a89a05e44693a5f1720d90121036ee6ef494d7e963f32133ba53888b971ce2a4c6622f21f0be8d0487106dbe8290247304402205fbe83f98b6e233122b5464de9d39bb3058031e76d7cec3e5945a52c18dd1fa6022020e67f6311d176cfe0f8cdce59dfd8b1d04c95a3f042735d5c3b63480421b8f50121023bdbca8a51820db1f55c63aacd9fa904a9e123954088130aa1cb4d1c8b33493702473044022025abe102327971f0dd8a1ac545a11f7433c2a886a5f915a619496787d6425dea022025afab98afaa3c206dc7560b027ead77419ac11b0e2e8cc382b020928d86dffe0121032e37382ea5db399df1e8810688cff067a67e319b2747f8a09ed59d9b22f2abc0f6bb0c00"
}