{
  "txid": "6494cdb062c4a1bc3e74760f9fd389c69c9cd0dcba246c0c58ab37688671edbd",
  "version": 2,
  "locktime": 834637,
  "vin": [
    {
      "txid": "4bc8a6bbd9f01b7c20fb59adc81352ff087ff7dbc52efb3cc55f188edebf47d8",
      "vout": 1,
      "prevout": {
        "scriptpubkey": "00145017ec1e0f2e6fd64561aa072931bcd261797559",
        "scriptpubkey_asm": "OP_0 OP_PUSHBYTES_20 5017ec1e0f2e6fd64561aa072931bcd261797559",
        "scriptpubkey_type": "v0_p2wpkh",
        "scriptpubkey_address": "bc1q2qt7c8s09ehav3tp4grjjvdu6fshja2e49rqzq",
        "value": 259893968
      },
      "scriptsig": "",
      "scriptsig_asm": "",
      "witness": [
        "304402206cb268614ab72910e5a975893e7cd2cb84aa58ac4f318cf84547dd3a9562761a0220455f61baeb45533265180d07a6dab52a4034ec0ffb5d7cb85757c562936509ea01",
        "030b512819670cf864aa7605c7bfb32e37002db4f30c9d03a8b8aa1976049105aa"
      ],
      "is_coinbase": false,
      "sequence": 4294967294
    }
  ],
  "vout": [
    {
      "scriptpubkey": "0014b9c1c402d4a435ba726f52e31c71e254af33ee0e",
      "scriptpubkey_asm": "OP_0 OP_PUSHBYTES_20 b9c1c402d4a435ba726f52e31c71e254af33ee0e",
      "scriptpubkey_type": "v0_p2wpkh",
      "scriptpubkey_address": "bc1qh8qugqk55s6m5un02t33cu0z2jhn8msw8rv8mr",
      "value": 257963288
    },
    {
      "scriptpubkey": "a914348fed75d9648cad589e072b1098cb674873c69087",
      "scriptpubkey_asm": "OP_HASH160 OP_PUSHBYTES_20 348fed75d9648cad589e072b1098cb674873c690 OP_EQUAL",
      "scriptpubkey_type": "p2sh",
      "scriptpubkey_address": "36UwUnLVs27P4FmsAFvT26tt1zwwa1FRvQ",
      "value": 1927200
    }
  ],
  "size": 223,
  "weight": 565,
  "fee": 3480,
  "status": {
    "confirmed": true,
    "block_height": 834638,
    "block_hash": "000000000000000000025f742c626208ac87e0b7d15054abb4a19ca2d735a54e",
    "block_time": 1710405325
  },
  "hex": "02000000000101d847bfde8e185fc53cfb2ec5dbf77f08ff5213c8ad59fb207c1bf0d9bba6c84b0100000000feffffff021835600f00000000160014b9c1c402d4a435ba726f52e31c71e254af33ee0e20681d000000000017a914348fed75d9648cad589e072b1098cb674873c690870247304402206cb268614ab72910e5a975893e7cd2cb84aa58ac4f318cf84547dd3a9562761a0220455f61baeb45533265180d07a6dab52a4034ec0ffb5d7cb85757c562936509ea0121030b512819670cf864aa7605c7bfb32e37002db4f30c9d03a8b8aa1976049105aa4dbc0c00"
}