{
  "txid": "6495d86d2995256fd14b84d9e4f003892adc6a99a16739a6fc555621933d4214",
  "version": 2,
  "locktime": 834637,
  "vin": [
    {
      "txid": "00c4a55f63c44d2e8916cf786988cb22b7cc5630ef25cd571c8d094acd0f5d97",
      "vout": 0,
      "prevout": {
        "scriptpubkey": "001406abaca6bdd619098b7e26ae499d3ec055fac14c",
        "scriptpubkey_asm": "OP_0 OP_PUSHBYTES_20 06abaca6bdd619098b7e26ae499d3ec055fac14c",
        "scriptpubkey_type": "v0_p2wpkh",
        "scriptpubkey_address": "bc1qq646ef4a6cvsnzm7y6hyn8f7cp2l4s2v6hfud5",
        "value": 778318088
      },
      "scriptsig": "",
      "scriptsig_asm": "",
      "witness": [
        "304402200bd80b0ef647aa5e8a4039ae1a099d4a87917b29568892ab2e12b69ba95e572902204a534d10d251fee5debe30ca0adbdb341d26097e6ee5fd1d6c0a2f33201899aa01",
        "038240c13b7d83a736a285f12101fc117634579cf58acac3f5076575bf82385390"
      ],
      "is_coinbase": false,
      "sequence": 4294967294
    }
  ],
  "vout": [
    {
      "scriptpubkey": "a9148ae688d6a71f4b591a9a383b0eadcc718afd6d9487",
      "scriptpubkey_asm": "OP_HASH160 OP_PUSHBYTES_20 8ae688d6a71f4b591a9a383b0eadcc718afd6d94 OP_EQUAL",
      "scriptpubkey_type": "p2sh",
      "scriptpubkey_address": "3EMTLqSW7eCSL6ehZJBM5rjLVqfs3qF9yt",
      "value": 412800
    },
    {
      "scriptpubkey": "0014fdd67f0000b2cb5dcc7ed8b42c877d2aca56372c",
      "scriptpubkey_asm": "OP_0 OP_PUSHBYTES_20 fdd67f0000b2cb5dcc7ed8b42c877d2aca56372c",
      "scriptpubkey_type": "v0_p2wpkh",
      "scriptpubkey_address": "bc1qlht87qqqkt94mnr7mz6zepma9t99vdevqudqg9",
      "value": 777901808
    }
  ],
  "size": 223,
  "weight": 565,
  "fee": 3480,
  "status": {
    "confirmed": true,
    "block_height": 834638,
    "block_hash": "000000000000000000025f742c626208ac87e0b7d15054abb4a19ca2d735a54e",
    "block_time": 1710405325
  },
  "hex": "02000000000101975d0fcd4a098d1c57cd25ef3056ccb722cb886978cf16892e4dc4635fa5c4000000000000feffffff02804c06000000000017a9148ae688d6a71f4b591a9a383b0eadcc718afd6d9487f0d65d2e00000000160014fdd67f0000b2cb5dcc7ed8b42c877d2aca56372c0247304402200bd80b0ef647aa5e8a4039ae1a099d4a87917b29568892ab2e12b69ba95e572902204a534d10d251fee5debe30ca0adbdb341d26097e6ee5fd1d6c0a2f33201899aa0121038240c13b7d83a736a285f12101fc117634579cf58acac3f5076575bf823853904dbc0c00"
}