{
  "txid": "64964edc9baf9425b08b211ff7ddcaf6453e39ce17877bf9cd8c6bf9463e53ad",
  "version": 1,
  "locktime": 0,
  "vin": [
    {
      "txid": "c088b8326706c7d783b2359cf6cbd54e14ce7daa3905ed92602b96aa190f2bf2",
      "vout": 3,
      "prevout": {
        "scriptpubkey": "00144b2f09ac1a8756fb6ad6386c777d1998c0b699d7",
        "scriptpubkey_asm": "OP_0 OP_PUSHBYTES_20 4b2f09ac1a8756fb6ad6386c777d1998c0b699d7",
        "scriptpubkey_type": "v0_p2wpkh",
        "scriptpubkey_address": "bc1qfvhsntq6sat0k6kk8pk8wlgenrqtdxwhaeg42h",
        "value": 18420
      },
      "scriptsig": "",
      "scriptsig_asm": "",
      "witness": [
        "304402204aafed328c26a56e873f65d9060a8eb74c8a50df81f7073b4cf3de18e1c64c8c0220424a0c904a957075e3677b42391c904d718a65b4c303c0986360aa9a3bb63b7901",
        "03b65ff9bbe40da69d17980cbb690de517820bd5f39fd832b866fda65d6d756478"
      ],
      "is_coinbase": false,
      "sequence": 4294967295
    },
    {
      "txid": "3629be2204f5f0b6acd3f65a2afe85d4d2d19d9b9d7874ab8300a441da628667",
      "vout": 1,
      "prevout": {
        "scriptpubkey": "00144b2f09ac1a8756fb6ad6386c777d1998c0b699d7",
        "scriptpubkey_asm": "OP_0 OP_PUSHBYTES_20 4b2f09ac1a8756fb6ad6386c777d1998c0b699d7",
        "scriptpubkey_type": "v0_p2wpkh",
        "scriptpubkey_address": "bc1qfvhsntq6sat0k6kk8pk8wlgenrqtdxwhaeg42h",
        "value": 47853836
      },
      "scriptsig": "",
      "scriptsig_asm": "",
      "witness": [
        "304402204516fef603ac5716571dd0525c16a83b1e24e32e11b58d2a2639b4be214e12440220181c9f3b6e0e5dcdf4d7a219420003bbca47ed6e524d8ce08c6d930662688eac01",
        "03b65ff9bbe40da69d17980cbb690de517820bd5f39fd832b866fda65d6d756478"
      ],
      "is_coinbase": false,
      "sequence": 4294967295
    }
  ],
  "vout": [
    {
      "scriptpubkey": "a9146fb68b7d9e9c9773920df3cc27be485a3b4667d787",
      "scriptpubkey_asm": "OP_HASH160 OP_PUSHBYTES_20 6fb68b7d9e9c9773920df3cc27be485a3b4667d7 OP_EQUAL",
      "scriptpubkey_type": "p2sh",
      "scriptpubkey_address": "3BshcH5DxqebEbb911V9v9H1e4Z8fY9ZCQ",
      "value": 855166
    },
    {
      "scriptpubkey": "a914587b6a7cf50a5040c60fe1608da6dcfe4743aa2c87",
      "scriptpubkey_asm": "OP_HASH160 OP_PUSHBYTES_20 587b6a7cf50a5040c60fe1608da6dcfe4743aa2c OP_EQUAL",
      "scriptpubkey_type": "p2sh",
      "scriptpubkey_address": "39ksEWvSPyrGhVVv8UFXtLLUc4F9Xgbkpp",
      "value": 8670576
    },
    {
      "scriptpubkey": "51208a475f216d4bbfaaa746d6964160b1307749c048497f44e4e89bfb2c2b41210c",
      "scriptpubkey_asm": "OP_PUSHNUM_1 OP_PUSHBYTES_32 8a475f216d4bbfaaa746d6964160b1307749c048497f44e4e89bfb2c2b41210c",
      "scriptpubkey_type": "v1_p2tr",
      "scriptpubkey_address": "bc1p3fr47gtdfwl64f6x66tyzc93xpm5nszgf9l5fe8gn0ajc26pyyxq5fp50d",
      "value": 4413463
    },
    {
      "scriptpubkey": "a914587b6a7cf50a5040c60fe1608da6dcfe4743aa2c87",
      "scriptpubkey_asm": "OP_HASH160 OP_PUSHBYTES_20 587b6a7cf50a5040c60fe1608da6dcfe4743aa2c OP_EQUAL",
      "scriptpubkey_type": "p2sh",
      "scriptpubkey_address": "39ksEWvSPyrGhVVv8UFXtLLUc4F9Xgbkpp",
      "value": 9393274
    },
    {
      "scriptpubkey": "00144b2f09ac1a8756fb6ad6386c777d1998c0b699d7",
      "scriptpubkey_asm": "OP_0 OP_PUSHBYTES_20 4b2f09ac1a8756fb6ad6386c777d1998c0b699d7",
      "scriptpubkey_type": "v0_p2wpkh",
      "scriptpubkey_address": "bc1qfvhsntq6sat0k6kk8pk8wlgenrqtdxwhaeg42h",
      "value": 24535212
    }
  ],
  "size": 478,
  "weight": 1264,
  "fee": 4565,
  "status": {
    "confirmed": true,
    "block_height": 834638,
    "block_hash": "000000000000000000025f742c626208ac87e0b7d15054abb4a19ca2d735a54e",
    "block_time": 1710405325
  },
  "hex": "01000000000102f22b0f19aa962b6092ed0539aa7dce144ed5cbf69c35b283d7c7066732b888c00300000000ffffffff678662da41a40083ab74789d9b9dd1d2d485fe2a5af6d3acb6f0f50422be29360100000000ffffffff057e0c0d000000000017a9146fb68b7d9e9c9773920df3cc27be485a3b4667d787704d84000000000017a914587b6a7cf50a5040c60fe1608da6dcfe4743aa2c8717584300000000002251208a475f216d4bbfaaa746d6964160b1307749c048497f44e4e89bfb2c2b41210c7a548f000000000017a914587b6a7cf50a5040c60fe1608da6dcfe4743aa2c87ac607601000000001600144b2f09ac1a8756fb6ad6386c777d1998c0b699d70247304402204aafed328c26a56e873f65d9060a8eb74c8a50df81f7073b4cf3de18e1c64c8c0220424a0c904a957075e3677b42391c904d718a65b4c303c0986360aa9a3bb63b79012103b65ff9bbe40da69d17980cbb690de517820bd5f39fd832b866fda65d6d7564780247304402204516fef603ac5716571dd0525c16a83b1e24e32e11b58d2a2639b4be214e12440220181c9f3b6e0e5dcdf4d7a219420003bbca47ed6e524d8ce08c6d930662688eac012103b65ff9bbe40da69d17980cbb690de517820bd5f39fd832b866fda65d6d75647800000000"
}