{
  "txid": "6499ff42493740187b1098a7ce2f732c150fb65918542c3c2e3989f074f72d33",
  "version": 2,
  "locktime": 0,
  "vin": [
    {
      "txid": "5f9f90881fcc22c74b8246fc70d21109724d35443bf2f7f2cdf6c97746a84229",
      "vout": 4,
      "prevout": {
        "scriptpubkey": "0014fbfc06310dab095d72620a24e9b80bc2a93d5267",
        "scriptpubkey_asm": "OP_0 OP_PUSHBYTES_20 fbfc06310dab095d72620a24e9b80bc2a93d5267",
        "scriptpubkey_type": "v0_p2wpkh",
        "scriptpubkey_address": "bc1ql07qvvgd4vy46unzpgjwnwqtc25n65n8x3s6gz",
        "value": 156440
      },
      "scriptsig": "",
      "scriptsig_asm": "",
      "witness": [
        "304402206c65d851c810f0db29958b01e07df6c1129f20646d4701762457b0f34a8c52e90220345f9ab29179d9f536b257494624bfc4610a45ee41b1e54260a2be19fb563d2a01",
        "026eb426706a58499521059df7da6c3bfd094b3d5d12115df8b885b26c6c763385"
      ],
      "is_coinbase": false,
      "sequence": 4294967293
    }
  ],
  "vout": [
    {
      "scriptpubkey": "a9146363fec76b16af38c9ba144dc2d899468ac7383b87",
      "scriptpubkey_asm": "OP_HASH160 OP_PUSHBYTES_20 6363fec76b16af38c9ba144dc2d899468ac7383b OP_EQUAL",
      "scriptpubkey_type": "p2sh",
      "scriptpubkey_address": "3AkYcKppGj5PYNGMULWTAMbphTV4dAokuY",
      "value": 152999
    }
  ],
  "size": 192,
  "weight": 441,
  "fee": 3441,
  "status": {
    "confirmed": true,
    "block_height": 834552,
    "block_hash": "00000000000000000001dd0468a70c94f619251d286585cff57aeb4bd9ede330",
    "block_time": 1710355598
  },
  "hex": "020000000001012942a84677c9f6cdf2f7f23b44354d720911d270fc46824bc722cc1f88909f5f0400000000fdffffff01a75502000000000017a9146363fec76b16af38c9ba144dc2d899468ac7383b870247304402206c65d851c810f0db29958b01e07df6c1129f20646d4701762457b0f34a8c52e90220345f9ab29179d9f536b257494624bfc4610a45ee41b1e54260a2be19fb563d2a0121026eb426706a58499521059df7da6c3bfd094b3d5d12115df8b885b26c6c76338500000000"
}