{
  "txid": "64ae5823b7b1c003fcba38db5f20f801f59aa0baf4e4802c7a84edccf1251036",
  "version": 2,
  "locktime": 834637,
  "vin": [
    {
      "txid": "f2584170829e025e4682e9225cd63ae8b81674dd234f0dfed03f709f0dbad9b8",
      "vout": 1,
      "prevout": {
        "scriptpubkey": "0014bbf9bdbe391e855696ba5389af973502402dc8f3",
        "scriptpubkey_asm": "OP_0 OP_PUSHBYTES_20 bbf9bdbe391e855696ba5389af973502402dc8f3",
        "scriptpubkey_type": "v0_p2wpkh",
        "scriptpubkey_address": "bc1qh0umm03er6z4d9462wy6l9e4qfqzmj8nyc5m9z",
        "value": 157175541
      },
      "scriptsig": "",
      "scriptsig_asm": "",
      "witness": [
        "304402207cbcb49e7754de26f89a7086f069c2a07d8a1605f018d476f1072d3cdc236bf1022069ebc1045c15fa61c247d0a697f900e8540df2b3b7418b60d37c9236019be45c01",
        "02af5a1c979e5577b05b23de3b04eeaef99682c7704ff8e7194774eebf15162c0a"
      ],
      "is_coinbase": false,
      "sequence": 4294967293
    }
  ],
  "vout": [
    {
      "scriptpubkey": "0014e1a666027fed6af9584d2fd4029821b69927ff93",
      "scriptpubkey_asm": "OP_0 OP_PUSHBYTES_20 e1a666027fed6af9584d2fd4029821b69927ff93",
      "scriptpubkey_type": "v0_p2wpkh",
      "scriptpubkey_address": "bc1quxnxvqnla440jkzd9l2q9xppk6vj0lun4nrxty",
      "value": 242109
    },
    {
      "scriptpubkey": "0014bbf9bdbe391e855696ba5389af973502402dc8f3",
      "scriptpubkey_asm": "OP_0 OP_PUSHBYTES_20 bbf9bdbe391e855696ba5389af973502402dc8f3",
      "scriptpubkey_type": "v0_p2wpkh",
      "scriptpubkey_address": "bc1qh0umm03er6z4d9462wy6l9e4qfqzmj8nyc5m9z",
      "value": 156929625
    }
  ],
  "size": 222,
  "weight": 561,
  "fee": 3807,
  "status": {
    "confirmed": true,
    "block_height": 834638,
    "block_hash": "000000000000000000025f742c626208ac87e0b7d15054abb4a19ca2d735a54e",
    "block_time": 1710405325
  },
  "hex": "02000000000101b8d9ba0d9f703fd0fe0d4f23dd7416b8e83ad65c22e982465e029e82704158f20100000000fdffffff02bdb1030000000000160014e1a666027fed6af9584d2fd4029821b69927ff93598e5a0900000000160014bbf9bdbe391e855696ba5389af973502402dc8f30247304402207cbcb49e7754de26f89a7086f069c2a07d8a1605f018d476f1072d3cdc236bf1022069ebc1045c15fa61c247d0a697f900e8540df2b3b7418b60d37c9236019be45c012102af5a1c979e5577b05b23de3b04eeaef99682c7704ff8e7194774eebf15162c0a4dbc0c00"
}