{
  "txid": "64b0cc9f781ce022975807938574ebcf9e45d07074b1c93e3b29e1261c5ab6f7",
  "version": 1,
  "locktime": 0,
  "vin": [
    {
      "txid": "46c087f26811eacc3fe05f462064df22a35d36be5b0ad088243feed48e21ebab",
      "vout": 40,
      "prevout": {
        "scriptpubkey": "00149e886f298c8ad9b6f7faa262279bb01e8fda05da",
        "scriptpubkey_asm": "OP_0 OP_PUSHBYTES_20 9e886f298c8ad9b6f7faa262279bb01e8fda05da",
        "scriptpubkey_type": "v0_p2wpkh",
        "scriptpubkey_address": "bc1qn6yx72vv3tvmdal65f3z0xasr68a5pw65jyntp",
        "value": 136403
      },
      "scriptsig": "",
      "scriptsig_asm": "",
      "witness": [
        "304402201e327cb0e9950c8c799312a367899d4d0e53f5cc025941226137fb36064c79ca02206c80171f77ae48021f45b74745574cffc7643735bf698df6c06f41246c5884ee01",
        "02247b9470ec972aea972d0bb83636224f379b48a9ea6a1f0f420f0e65634079f8"
      ],
      "is_coinbase": false,
      "sequence": 4294967295
    }
  ],
  "vout": [
    {
      "scriptpubkey": "00141cdbc513032dd688bb9a29dadc265eaa81f9357c",
      "scriptpubkey_asm": "OP_0 OP_PUSHBYTES_20 1cdbc513032dd688bb9a29dadc265eaa81f9357c",
      "scriptpubkey_type": "v0_p2wpkh",
      "scriptpubkey_address": "bc1qrndu2ycr9htg3wu698ddcfj742qljdtuq2lc8a",
      "value": 133433
    }
  ],
  "size": 191,
  "weight": 437,
  "fee": 2970,
  "status": {
    "confirmed": true,
    "block_height": 834638,
    "block_hash": "000000000000000000025f742c626208ac87e0b7d15054abb4a19ca2d735a54e",
    "block_time": 1710405325
  },
  "hex": "01000000000101abeb218ed4ee3f2488d00a5bbe365da322df6420465fe03fccea1168f287c0462800000000ffffffff0139090200000000001600141cdbc513032dd688bb9a29dadc265eaa81f9357c0247304402201e327cb0e9950c8c799312a367899d4d0e53f5cc025941226137fb36064c79ca02206c80171f77ae48021f45b74745574cffc7643735bf698df6c06f41246c5884ee012102247b9470ec972aea972d0bb83636224f379b48a9ea6a1f0f420f0e65634079f800000000"
}