{
  "txid": "64c26cb8cbbf62885ddd6b25ffcf1681ac7ae33734d6972c9724a4a6079596ed",
  "version": 2,
  "locktime": 834637,
  "vin": [
    {
      "txid": "05aadee34a129b58b75d14c6d88892aba5e53cba750745065345185845fd8c8f",
      "vout": 6,
      "prevout": {
        "scriptpubkey": "0014b57d212ddfd8c4e459442474f0aaef59418a3701",
        "scriptpubkey_asm": "OP_0 OP_PUSHBYTES_20 b57d212ddfd8c4e459442474f0aaef59418a3701",
        "scriptpubkey_type": "v0_p2wpkh",
        "scriptpubkey_address": "bc1qk47jztwlmrzwgk2yy360p2h0t9qc5dcpdl6dpf",
        "value": 12854828
      },
      "scriptsig": "",
      "scriptsig_asm": "",
      "witness": [
        "3044022004802c89b0454cead4e22d2d0cd29d4fe9915650fa61ee0940434ed96224f76d02207673209ecae22babc04e80bc27008afddb1f19e3818bbaa929c81ca99c5a87c001",
        "027672acbc12bf7c164cd8bac2fe8539bf14d468ef51e75261b66bca998ad0be3e"
      ],
      "is_coinbase": false,
      "sequence": 4294967293
    }
  ],
  "vout": [
    {
      "scriptpubkey": "001452b0361f3bd2f77412f6ee93a0b29a6c3a624973",
      "scriptpubkey_asm": "OP_0 OP_PUSHBYTES_20 52b0361f3bd2f77412f6ee93a0b29a6c3a624973",
      "scriptpubkey_type": "v0_p2wpkh",
      "scriptpubkey_address": "bc1q22crv8em6tmhgyhka6f6pv56dsaxyjtnrc8gp2",
      "value": 18053
    },
    {
      "scriptpubkey": "76a9147c016a55798d966d6d861ed908cbdb8dc3d6ecd288ac",
      "scriptpubkey_asm": "OP_DUP OP_HASH160 OP_PUSHBYTES_20 7c016a55798d966d6d861ed908cbdb8dc3d6ecd2 OP_EQUALVERIFY OP_CHECKSIG",
      "scriptpubkey_type": "p2pkh",
      "scriptpubkey_address": "1CJgV8SrxU5WeRtkhExWGG8heubwRsQXeZ",
      "value": 40975
    },
    {
      "scriptpubkey": "0014d1098e323f23e0043c912b016a60318fc0f42fd2",
      "scriptpubkey_asm": "OP_0 OP_PUSHBYTES_20 d1098e323f23e0043c912b016a60318fc0f42fd2",
      "scriptpubkey_type": "v0_p2wpkh",
      "scriptpubkey_address": "bc1q6yycuv3ly0sqg0y39vqk5cp33lq0gt7j57w879",
      "value": 47363
    },
    {
      "scriptpubkey": "0014817b92b8ad7c11ad436790c69afa1be44db5457b",
      "scriptpubkey_asm": "OP_0 OP_PUSHBYTES_20 817b92b8ad7c11ad436790c69afa1be44db5457b",
      "scriptpubkey_type": "v0_p2wpkh",
      "scriptpubkey_address": "bc1qs9ae9w9d0sg66sm8jrrf47smu3xm23tm8xenlp",
      "value": 83362
    },
    {
      "scriptpubkey": "0014462c55103e94aaa7194fa35329eb9d74e7191487",
      "scriptpubkey_asm": "OP_0 OP_PUSHBYTES_20 462c55103e94aaa7194fa35329eb9d74e7191487",
      "scriptpubkey_type": "v0_p2wpkh",
      "scriptpubkey_address": "bc1qgck92yp7jj42wx205dfjn6uawnn3j9y82hj82v",
      "value": 36388
    },
    {
      "scriptpubkey": "00148eecf16b280ab9e76a631c71a0ae2b57ceaefa54",
      "scriptpubkey_asm": "OP_0 OP_PUSHBYTES_20 8eecf16b280ab9e76a631c71a0ae2b57ceaefa54",
      "scriptpubkey_type": "v0_p2wpkh",
      "scriptpubkey_address": "bc1q3mk0z6egp2u7w6nrr3c6pt3t2l82a7j5m3q9l5",
      "value": 12526748
    },
    {
      "scriptpubkey": "001426db34630b444a505c863aa18867cc9673d2eed3",
      "scriptpubkey_asm": "OP_0 OP_PUSHBYTES_20 26db34630b444a505c863aa18867cc9673d2eed3",
      "scriptpubkey_type": "v0_p2wpkh",
      "scriptpubkey_address": "bc1qymdngcctg399qhyx82scse7vjeea9mkn05rk8e",
      "value": 51589
    },
    {
      "scriptpubkey": "001492e17425cae3fc7f09f0ffaf8da166b7cbe0d12d",
      "scriptpubkey_asm": "OP_0 OP_PUSHBYTES_20 92e17425cae3fc7f09f0ffaf8da166b7cbe0d12d",
      "scriptpubkey_type": "v0_p2wpkh",
      "scriptpubkey_address": "bc1qjtshgfw2u0787z0sl7hcmgtxkl97p5fddknufx",
      "value": 38800
    }
  ],
  "size": 411,
  "weight": 1317,
  "fee": 11550,
  "status": {
    "confirmed": true,
    "block_height": 834638,
    "block_hash": "000000000000000000025f742c626208ac87e0b7d15054abb4a19ca2d735a54e",
    "block_time": 1710405325
  },
  "hex": "020000000001018f8cfd455818455306450775ba3ce5a5ab9288d8c6145db7589b124ae3deaa050600000000fdffffff08854600000000000016001452b0361f3bd2f77412f6ee93a0b29a6c3a6249730fa00000000000001976a9147c016a55798d966d6d861ed908cbdb8dc3d6ecd288ac03b9000000000000160014d1098e323f23e0043c912b016a60318fc0f42fd2a245010000000000160014817b92b8ad7c11ad436790c69afa1be44db5457b248e000000000000160014462c55103e94aaa7194fa35329eb9d74e71914879c24bf00000000001600148eecf16b280ab9e76a631c71a0ae2b57ceaefa5485c900000000000016001426db34630b444a505c863aa18867cc9673d2eed3909700000000000016001492e17425cae3fc7f09f0ffaf8da166b7cbe0d12d02473044022004802c89b0454cead4e22d2d0cd29d4fe9915650fa61ee0940434ed96224f76d02207673209ecae22babc04e80bc27008afddb1f19e3818bbaa929c81ca99c5a87c00121027672acbc12bf7c164cd8bac2fe8539bf14d468ef51e75261b66bca998ad0be3e4dbc0c00"
}