{
  "txid": "64c8923e3688c047aa6ddf17b96a79100024d2a6bb159585cbba90b1684045d6",
  "version": 1,
  "locktime": 0,
  "vin": [
    {
      "txid": "0e89809e3cd2472ab4cc21e8f55d2344476b8f946e719feb6422657a37953d4d",
      "vout": 6,
      "prevout": {
        "scriptpubkey": "0014015d3fafef4dc89fb0c220d1572913b184a421a2",
        "scriptpubkey_asm": "OP_0 OP_PUSHBYTES_20 015d3fafef4dc89fb0c220d1572913b184a421a2",
        "scriptpubkey_type": "v0_p2wpkh",
        "scriptpubkey_address": "bc1qq9wnltl0fhyflvxzyrg4w2gnkxz2ggdzfmjgwg",
        "value": 357765
      },
      "scriptsig": "",
      "scriptsig_asm": "",
      "witness": [
        "30440220753c754981cb4ef44b2d19bfb207c3a3b00a9ed2624c2809d878f9f6c0f938a9022000e3d9e12ecbfbea53b78ce8000a01b59e6db186884d52a5c7ec73234fa255b901",
        "034698cf32ec27bb010a753d212fa568c56e7bbaa9c724c2d19e663f83277dface"
      ],
      "is_coinbase": false,
      "sequence": 4294967295
    }
  ],
  "vout": [
    {
      "scriptpubkey": "76a914a66c7a4b1add43208001ce10cccaf0bbb7af92d488ac",
      "scriptpubkey_asm": "OP_DUP OP_HASH160 OP_PUSHBYTES_20 a66c7a4b1add43208001ce10cccaf0bbb7af92d4 OP_EQUALVERIFY OP_CHECKSIG",
      "scriptpubkey_type": "p2pkh",
      "scriptpubkey_address": "1GAy81R8QSnLqSFvir5cJm7BdwDmZnYi58",
      "value": 354714
    }
  ],
  "size": 194,
  "weight": 449,
  "fee": 3051,
  "status": {
    "confirmed": true,
    "block_height": 834638,
    "block_hash": "000000000000000000025f742c626208ac87e0b7d15054abb4a19ca2d735a54e",
    "block_time": 1710405325
  },
  "hex": "010000000001014d3d95377a652264eb9f716e948f6b4744235df5e821ccb42a47d23c9e80890e0600000000ffffffff019a690500000000001976a914a66c7a4b1add43208001ce10cccaf0bbb7af92d488ac024730440220753c754981cb4ef44b2d19bfb207c3a3b00a9ed2624c2809d878f9f6c0f938a9022000e3d9e12ecbfbea53b78ce8000a01b59e6db186884d52a5c7ec73234fa255b90121034698cf32ec27bb010a753d212fa568c56e7bbaa9c724c2d19e663f83277dface00000000"
}