{
  "txid": "64cd6ea7c4b938ab5cf922be0a0186f4e4a8625bd638fd181a18beada1a39c74",
  "version": 1,
  "locktime": 0,
  "vin": [
    {
      "txid": "3e6152bbfa467d185f9ee7f497c9171acc046738b3dfc5c813c68990497ee4b1",
      "vout": 6,
      "prevout": {
        "scriptpubkey": "0014116de70d7f91e33a4fb3575dc65bac23c29ab14b",
        "scriptpubkey_asm": "OP_0 OP_PUSHBYTES_20 116de70d7f91e33a4fb3575dc65bac23c29ab14b",
        "scriptpubkey_type": "v0_p2wpkh",
        "scriptpubkey_address": "bc1qz9k7wrtlj83n5nan2awuvkavy0pf4v2t4hk7d9",
        "value": 155376458
      },
      "scriptsig": "",
      "scriptsig_asm": "",
      "witness": [
        "304402200ec7dff95dc57ee903f592c99229b219198be8c452948b1f50e7ccd585df6b7202207f3fe0d39c2fb6dec64343455825b0309c7e2b0339d27dfe99dbf418af06e29201",
        "022b91c4f309edee0a7d9b8d5793dda0c219bd9ad864ba8b7bb839ddb8570e72e9"
      ],
      "is_coinbase": false,
      "sequence": 4294967295
    }
  ],
  "vout": [
    {
      "scriptpubkey": "0014878612360a2c87a03c3d36b61417c187566ca137",
      "scriptpubkey_asm": "OP_0 OP_PUSHBYTES_20 878612360a2c87a03c3d36b61417c187566ca137",
      "scriptpubkey_type": "v0_p2wpkh",
      "scriptpubkey_address": "bc1qs7rpyds29jr6q0pax6mpg97psatxegfhcz9uq4",
      "value": 155373488
    }
  ],
  "size": 191,
  "weight": 437,
  "fee": 2970,
  "status": {
    "confirmed": true,
    "block_height": 834552,
    "block_hash": "00000000000000000001dd0468a70c94f619251d286585cff57aeb4bd9ede330",
    "block_time": 1710355598
  },
  "hex": "01000000000101b1e47e499089c613c8c5dfb3386704cc1a17c997f4e79e5f187d46fabb52613e0600000000ffffffff01b0cf420900000000160014878612360a2c87a03c3d36b61417c187566ca1370247304402200ec7dff95dc57ee903f592c99229b219198be8c452948b1f50e7ccd585df6b7202207f3fe0d39c2fb6dec64343455825b0309c7e2b0339d27dfe99dbf418af06e2920121022b91c4f309edee0a7d9b8d5793dda0c219bd9ad864ba8b7bb839ddb8570e72e900000000"
}