{
  "txid": "64d1dcf47eeaf30b8878c1482b6ea5b7614168b95aef7459ce29ab2e667cf392",
  "version": 2,
  "locktime": 0,
  "vin": [
    {
      "txid": "14e2167695fd53b97ae50c0a70e65ac4ef7ad1480621c0c13d9d798945a5d5dc",
      "vout": 16,
      "prevout": {
        "scriptpubkey": "5120b893749f71735ea0fd3d05ff680b56d58a633a74f2a876836b517c7ef7dfce62",
        "scriptpubkey_asm": "OP_PUSHNUM_1 OP_PUSHBYTES_32 b893749f71735ea0fd3d05ff680b56d58a633a74f2a876836b517c7ef7dfce62",
        "scriptpubkey_type": "v1_p2tr",
        "scriptpubkey_address": "bc1phzfhf8m3wd02plfaqhlksz6k6k9xxwn57258dqmt2978aa7lee3qf75z48",
        "value": 2862
      },
      "scriptsig": "",
      "scriptsig_asm": "",
      "witness": [
        "137aaf824bf6e51c89e844df6e9ba726d5e79c3f4f1fdc7ee1346922cdee97c60aa2de82f0d830d2ea81e9339cfed968d83981ec553b9626843ff7c0e326f33a",
        "207c35a2dda164c8bc0a8e3cdf9713ba1035aebbc49da1edeccd329be22aeae55cac0063036f726401011e6170706c69636174696f6e2f6a736f6e3b636861727365743d7574662d38004cd37b2270223a22706f772d3230222c226f70223a226d696e74222c227469636b223a2250455045222c22616d74223a2231303030222c22736f6c7574696f6e223a22504550453a62633170673935386e6b7a747678347271756e78676d747a6c35666e70666b633330776a323770777367396e6c706a786b796e64793671737376386c6b303a303030303030303030303030303030303030303139393431613561653132383937363539383134343239323533333030353762306461393666336465613163353a3537383436363132333334227d68",
        "c0631b34e489e80d4fba35164e5ad52a60d66865df7d7db84d2adbf53ec13ca2a1"
      ],
      "is_coinbase": false,
      "sequence": 4294967295
    }
  ],
  "vout": [
    {
      "scriptpubkey": "5120416879d84b61aa30726646d62fd1330a6d88bdd25782e820b3f8646b126d2681",
      "scriptpubkey_asm": "OP_PUSHNUM_1 OP_PUSHBYTES_32 416879d84b61aa30726646d62fd1330a6d88bdd25782e820b3f8646b126d2681",
      "scriptpubkey_type": "v1_p2tr",
      "scriptpubkey_address": "bc1pg958nkztvx4rqunxgmtzl5fnpfkc30wj27pwsg9nlpjxkyndy6qssv8lk0",
      "value": 546
    }
  ],
  "size": 487,
  "weight": 769,
  "fee": 2316,
  "status": {
    "confirmed": true,
    "block_height": 834460,
    "block_hash": "00000000000000000000484a79b643b2524bbce82e5d8a442013fa5b8905ed98",
    "block_time": 1710307468
  },
  "hex": "02000000000101dcd5a54589799d3dc1c0210648d17aefc45ae6700a0ce57ab953fd957616e2141000000000ffffffff012202000000000000225120416879d84b61aa30726646d62fd1330a6d88bdd25782e820b3f8646b126d26810340137aaf824bf6e51c89e844df6e9ba726d5e79c3f4f1fdc7ee1346922cdee97c60aa2de82f0d830d2ea81e9339cfed968d83981ec553b9626843ff7c0e326f33afd2001207c35a2dda164c8bc0a8e3cdf9713ba1035aebbc49da1edeccd329be22aeae55cac0063036f726401011e6170706c69636174696f6e2f6a736f6e3b636861727365743d7574662d38004cd37b2270223a22706f772d3230222c226f70223a226d696e74222c227469636b223a2250455045222c22616d74223a2231303030222c22736f6c7574696f6e223a22504550453a62633170673935386e6b7a747678347271756e78676d747a6c35666e70666b633330776a323770777367396e6c706a786b796e64793671737376386c6b303a303030303030303030303030303030303030303139393431613561653132383937363539383134343239323533333030353762306461393666336465613163353a3537383436363132333334227d6821c0631b34e489e80d4fba35164e5ad52a60d66865df7d7db84d2adbf53ec13ca2a100000000"
}