{
  "txid": "64eb8c24f9364529b7f62990757840bb418ec5abaf78afa90542003a4a22da80",
  "version": 2,
  "locktime": 0,
  "vin": [
    {
      "txid": "4036090f12670f02410fec2f433f147e384d910729b0c95dd48fdb505ffd026f",
      "vout": 6,
      "prevout": {
        "scriptpubkey": "00148f399d1e6f8addcb49628caf82d218bdab2d75be",
        "scriptpubkey_asm": "OP_0 OP_PUSHBYTES_20 8f399d1e6f8addcb49628caf82d218bdab2d75be",
        "scriptpubkey_type": "v0_p2wpkh",
        "scriptpubkey_address": "bc1q3uue68n03twukjtz3jhc95schk4j6ad7z3k4cs",
        "value": 600
      },
      "scriptsig": "",
      "scriptsig_asm": "",
      "witness": [
        "3045022100e4a5d5e67dbc147df07a7272c034b3ab003be8235e2ef28db483f436a9f1d0c1022033987c47c6dda303e2f4e3ec65ae674ca663088b0f02e4ee43150dd04dee5c1f01",
        "02491b42196504bf9501a5bc43eb5d91b6217976da889954cfcdaff13882f9bd35"
      ],
      "is_coinbase": false,
      "sequence": 4294967295
    },
    {
      "txid": "9a63fe4cc1dd5809c5e7f7b883dec8693f02fd7cc52e2f3a2b97589358b7924a",
      "vout": 5,
      "prevout": {
        "scriptpubkey": "00148f399d1e6f8addcb49628caf82d218bdab2d75be",
        "scriptpubkey_asm": "OP_0 OP_PUSHBYTES_20 8f399d1e6f8addcb49628caf82d218bdab2d75be",
        "scriptpubkey_type": "v0_p2wpkh",
        "scriptpubkey_address": "bc1q3uue68n03twukjtz3jhc95schk4j6ad7z3k4cs",
        "value": 600
      },
      "scriptsig": "",
      "scriptsig_asm": "",
      "witness": [
        "3044022033419fc942af35d2bf4c4402682c2732db56c84e7d63cbd516782513d329a9ba0220450a5398d7a92e26ac8f20c1f5504343cc1c92b79b8f41d7fde442a8505582e101",
        "02491b42196504bf9501a5bc43eb5d91b6217976da889954cfcdaff13882f9bd35"
      ],
      "is_coinbase": false,
      "sequence": 4294967295
    },
    {
      "txid": "d27ad7278b2311d6b6fa2982e9564935f80a41482742fd68592e3ed908c8a19f",
      "vout": 0,
      "prevout": {
        "scriptpubkey": "5120f8d7bc78bdc5f29f7b218c1e0147b73a244c053af9d8d7ed22bc7de015bf7929",
        "scriptpubkey_asm": "OP_PUSHNUM_1 OP_PUSHBYTES_32 f8d7bc78bdc5f29f7b218c1e0147b73a244c053af9d8d7ed22bc7de015bf7929",
        "scriptpubkey_type": "v1_p2tr",
        "scriptpubkey_address": "bc1plrtmc79achef77ep3s0qz3ah8gjycpf6l8vd0mfzh377q9dl0y5ses6u3m",
        "value": 550
      },
      "scriptsig": "",
      "scriptsig_asm": "",
      "witness": [
        "82d2ac2fc519d49ae892fce22c41cf8a72430db4a5b081dc7ce5090f9da81da4c997ef3c26c6d0058438d8fcb9c0a5b3087a373a4a2f87e42de5581f3b9c158583"
      ],
      "is_coinbase": false,
      "sequence": 4294967295
    },
    {
      "txid": "eae6d3e0250a0da246e790c6acde6a2e508960211664a635786c58efc0ec0640",
      "vout": 0,
      "prevout": {
        "scriptpubkey": "00148f399d1e6f8addcb49628caf82d218bdab2d75be",
        "scriptpubkey_asm": "OP_0 OP_PUSHBYTES_20 8f399d1e6f8addcb49628caf82d218bdab2d75be",
        "scriptpubkey_type": "v0_p2wpkh",
        "scriptpubkey_address": "bc1q3uue68n03twukjtz3jhc95schk4j6ad7z3k4cs",
        "value": 560000
      },
      "scriptsig": "",
      "scriptsig_asm": "",
      "witness": [
        "30450221009b0b9b9b267bd098ad88e9ddbc3a981d9d37468c733438ba5dec5b2cd0cd8fa302204a14a6b4ca5a4b40db1a1fc5a890cde1e20b06301dd3d2c9d0f1ef70edb8039b01",
        "02491b42196504bf9501a5bc43eb5d91b6217976da889954cfcdaff13882f9bd35"
      ],
      "is_coinbase": false,
      "sequence": 4294967295
    },
    {
      "txid": "4036090f12670f02410fec2f433f147e384d910729b0c95dd48fdb505ffd026f",
      "vout": 9,
      "prevout": {
        "scriptpubkey": "00148f399d1e6f8addcb49628caf82d218bdab2d75be",
        "scriptpubkey_asm": "OP_0 OP_PUSHBYTES_20 8f399d1e6f8addcb49628caf82d218bdab2d75be",
        "scriptpubkey_type": "v0_p2wpkh",
        "scriptpubkey_address": "bc1q3uue68n03twukjtz3jhc95schk4j6ad7z3k4cs",
        "value": 314725
      },
      "scriptsig": "",
      "scriptsig_asm": "",
      "witness": [
        "3045022100a2075ba79dc2ff3e356b8dbfaa43a7f115e088a40583a7e4741ede2d8ec62e3802205fe3c7e59905f32890a5fb2bd04de4483982d0d176e5d0a9b5349a54fbd3111601",
        "02491b42196504bf9501a5bc43eb5d91b6217976da889954cfcdaff13882f9bd35"
      ],
      "is_coinbase": false,
      "sequence": 4294967295
    }
  ],
  "vout": [
    {
      "scriptpubkey": "00148f399d1e6f8addcb49628caf82d218bdab2d75be",
      "scriptpubkey_asm": "OP_0 OP_PUSHBYTES_20 8f399d1e6f8addcb49628caf82d218bdab2d75be",
      "scriptpubkey_type": "v0_p2wpkh",
      "scriptpubkey_address": "bc1q3uue68n03twukjtz3jhc95schk4j6ad7z3k4cs",
      "value": 1200
    },
    {
      "scriptpubkey": "00148f399d1e6f8addcb49628caf82d218bdab2d75be",
      "scriptpubkey_asm": "OP_0 OP_PUSHBYTES_20 8f399d1e6f8addcb49628caf82d218bdab2d75be",
      "scriptpubkey_type": "v0_p2wpkh",
      "scriptpubkey_address": "bc1q3uue68n03twukjtz3jhc95schk4j6ad7z3k4cs",
      "value": 550
    },
    {
      "scriptpubkey": "5120f8d7bc78bdc5f29f7b218c1e0147b73a244c053af9d8d7ed22bc7de015bf7929",
      "scriptpubkey_asm": "OP_PUSHNUM_1 OP_PUSHBYTES_32 f8d7bc78bdc5f29f7b218c1e0147b73a244c053af9d8d7ed22bc7de015bf7929",
      "scriptpubkey_type": "v1_p2tr",
      "scriptpubkey_address": "bc1plrtmc79achef77ep3s0qz3ah8gjycpf6l8vd0mfzh377q9dl0y5ses6u3m",
      "value": 746691
    },
    {
      "scriptpubkey": "a914ea6b832a05c6ca578baa3836f3f25553d41068a587",
      "scriptpubkey_asm": "OP_HASH160 OP_PUSHBYTES_20 ea6b832a05c6ca578baa3836f3f25553d41068a5 OP_EQUAL",
      "scriptpubkey_type": "p2sh",
      "scriptpubkey_address": "3P4WqXDbSLRhzo2H6MT6YFbvBKBDPLbVtQ",
      "value": 18747
    },
    {
      "scriptpubkey": "00148f399d1e6f8addcb49628caf82d218bdab2d75be",
      "scriptpubkey_asm": "OP_0 OP_PUSHBYTES_20 8f399d1e6f8addcb49628caf82d218bdab2d75be",
      "scriptpubkey_type": "v0_p2wpkh",
      "scriptpubkey_address": "bc1q3uue68n03twukjtz3jhc95schk4j6ad7z3k4cs",
      "value": 600
    },
    {
      "scriptpubkey": "00148f399d1e6f8addcb49628caf82d218bdab2d75be",
      "scriptpubkey_asm": "OP_0 OP_PUSHBYTES_20 8f399d1e6f8addcb49628caf82d218bdab2d75be",
      "scriptpubkey_type": "v0_p2wpkh",
      "scriptpubkey_address": "bc1q3uue68n03twukjtz3jhc95schk4j6ad7z3k4cs",
      "value": 600
    },
    {
      "scriptpubkey": "00148f399d1e6f8addcb49628caf82d218bdab2d75be",
      "scriptpubkey_asm": "OP_0 OP_PUSHBYTES_20 8f399d1e6f8addcb49628caf82d218bdab2d75be",
      "scriptpubkey_type": "v0_p2wpkh",
      "scriptpubkey_address": "bc1q3uue68n03twukjtz3jhc95schk4j6ad7z3k4cs",
      "value": 97219
    }
  ],
  "size": 945,
  "weight": 2280,
  "fee": 10868,
  "status": {
    "confirmed": true,
    "block_height": 834638,
    "block_hash": "000000000000000000025f742c626208ac87e0b7d15054abb4a19ca2d735a54e",
    "block_time": 1710405325
  },
  "hex": "020000000001056f02fd5f50db8fd45dc9b02907914d387e143f432fec0f41020f67120f0936400600000000ffffffff4a92b7589358972b3a2f2ec57cfd023f69c8de83b8f7e7c50958ddc14cfe639a0500000000ffffffff9fa1c808d93e2e5968fd422748410af8354956e98229fab6d611238b27d77ad20000000000ffffffff4006ecc0ef586c7835a66416216089502e6adeacc690e746a20d0a25e0d3e6ea0000000000ffffffff6f02fd5f50db8fd45dc9b02907914d387e143f432fec0f41020f67120f0936400900000000ffffffff07b0040000000000001600148f399d1e6f8addcb49628caf82d218bdab2d75be26020000000000001600148f399d1e6f8addcb49628caf82d218bdab2d75bec3640b0000000000225120f8d7bc78bdc5f29f7b218c1e0147b73a244c053af9d8d7ed22bc7de015bf79293b4900000000000017a914ea6b832a05c6ca578baa3836f3f25553d41068a58758020000000000001600148f399d1e6f8addcb49628caf82d218bdab2d75be58020000000000001600148f399d1e6f8addcb49628caf82d218bdab2d75bec37b0100000000001600148f399d1e6f8addcb49628caf82d218bdab2d75be02483045022100e4a5d5e67dbc147df07a7272c034b3ab003be8235e2ef28db483f436a9f1d0c1022033987c47c6dda303e2f4e3ec65ae674ca663088b0f02e4ee43150dd04dee5c1f012102491b42196504bf9501a5bc43eb5d91b6217976da889954cfcdaff13882f9bd3502473044022033419fc942af35d2bf4c4402682c2732db56c84e7d63cbd516782513d329a9ba0220450a5398d7a92e26ac8f20c1f5504343cc1c92b79b8f41d7fde442a8505582e1012102491b42196504bf9501a5bc43eb5d91b6217976da889954cfcdaff13882f9bd35014182d2ac2fc519d49ae892fce22c41cf8a72430db4a5b081dc7ce5090f9da81da4c997ef3c26c6d0058438d8fcb9c0a5b3087a373a4a2f87e42de5581f3b9c158583024830450221009b0b9b9b267bd098ad88e9ddbc3a981d9d37468c733438ba5dec5b2cd0cd8fa302204a14a6b4ca5a4b40db1a1fc5a890cde1e20b06301dd3d2c9d0f1ef70edb8039b012102491b42196504bf9501a5bc43eb5d91b6217976da889954cfcdaff13882f9bd3502483045022100a2075ba79dc2ff3e356b8dbfaa43a7f115e088a40583a7e4741ede2d8ec62e3802205fe3c7e59905f32890a5fb2bd04de4483982d0d176e5d0a9b5349a54fbd31116012102491b42196504bf9501a5bc43eb5d91b6217976da889954cfcdaff13882f9bd3500000000"
}