{
  "txid": "64ec9965580e4a7b0b3af2efba9f424fcf65d3139bc32b633b6f1a5abd744433",
  "version": 2,
  "locktime": 0,
  "vin": [
    {
      "txid": "acc3ba00869acb582a3f2904ce3a11dd3779350ce234063fc7d0959246213364",
      "vout": 73,
      "prevout": {
        "scriptpubkey": "51203f5b1e593107745067552d768e66613de54c839666b9524b16a70678ffd91305",
        "scriptpubkey_asm": "OP_PUSHNUM_1 OP_PUSHBYTES_32 3f5b1e593107745067552d768e66613de54c839666b9524b16a70678ffd91305",
        "scriptpubkey_type": "v1_p2tr",
        "scriptpubkey_address": "bc1p8ad3ukf3qa69qe6494mguenp8hj5equkv6u4yjck5ur83l7ezvzsllnxhz",
        "value": 1806
      },
      "scriptsig": "",
      "scriptsig_asm": "",
      "witness": [
        "b7f43c5138e5f7878989cc7e5a8b9a1dd9d144c5335f07e193d4d2724fb9993033ac30d7af53113c22e8641f507a7faab92883403adb04b0f7083a35e854ae7d",
        "208c6e09bd0d8aa6013cbf2d0eba6f7f9b30544218ab8a30255d03186b00a1ea29ac0063036f726401010a746578742f706c61696e00357b2270223a226272632d3230222c226f70223a226d696e74222c227469636b223a22646f6765222c22616d74223a2234323030227d68",
        "c08c6e09bd0d8aa6013cbf2d0eba6f7f9b30544218ab8a30255d03186b00a1ea29"
      ],
      "is_coinbase": false,
      "sequence": 4261412863
    }
  ],
  "vout": [
    {
      "scriptpubkey": "00147a665de7a370f4c9b372ab1fae587500a5bcbdb4",
      "scriptpubkey_asm": "OP_0 OP_PUSHBYTES_20 7a665de7a370f4c9b372ab1fae587500a5bcbdb4",
      "scriptpubkey_type": "v0_p2wpkh",
      "scriptpubkey_address": "bc1q0fn9mearwr6vnvmj4v06ukr4qzjme0d565dzcx",
      "value": 294
    }
  ],
  "size": 294,
  "weight": 540,
  "fee": 1512,
  "status": {
    "confirmed": true,
    "block_height": 834460,
    "block_hash": "00000000000000000000484a79b643b2524bbce82e5d8a442013fa5b8905ed98",
    "block_time": 1710307468
  },
  "hex": "02000000000101643321469295d0c73f0634e20c357937dd113ace04293f2a58cb9a8600bac3ac4900000000fffffffd0126010000000000001600147a665de7a370f4c9b372ab1fae587500a5bcbdb40340b7f43c5138e5f7878989cc7e5a8b9a1dd9d144c5335f07e193d4d2724fb9993033ac30d7af53113c22e8641f507a7faab92883403adb04b0f7083a35e854ae7d6d208c6e09bd0d8aa6013cbf2d0eba6f7f9b30544218ab8a30255d03186b00a1ea29ac0063036f726401010a746578742f706c61696e00357b2270223a226272632d3230222c226f70223a226d696e74222c227469636b223a22646f6765222c22616d74223a2234323030227d6821c08c6e09bd0d8aa6013cbf2d0eba6f7f9b30544218ab8a30255d03186b00a1ea2900000000"
}