{
  "txid": "64f175931b26812b1af8c29c20724b2e2af3d0c151c453b601c2274d43cecaf6",
  "version": 1,
  "locktime": 0,
  "vin": [
    {
      "txid": "9bf3988f4636b8b2b4dea9180c80bb94622d86d45f080047a1c66408b0504e72",
      "vout": 1,
      "prevout": {
        "scriptpubkey": "00148757f0de584305f594d78226f6ce5c85248720f1",
        "scriptpubkey_asm": "OP_0 OP_PUSHBYTES_20 8757f0de584305f594d78226f6ce5c85248720f1",
        "scriptpubkey_type": "v0_p2wpkh",
        "scriptpubkey_address": "bc1qsatlphjcgvzlt9xhsgn0dnjus5jgwg83dr05c6",
        "value": 100600180
      },
      "scriptsig": "",
      "scriptsig_asm": "",
      "witness": [
        "3044022050666d250e3e3bdabdfe8a6b85ef8e87c66ee22e0b483e140bfa55c17f7054bf02201f14b2415555001d0467346999f02a1be5a35fe6382176b36317cb05560aa7f401",
        "03ff7fa6a3eb9721f090474fe1096b71e344fb396d081e827c549e96d8aa650c88"
      ],
      "is_coinbase": false,
      "sequence": 4294967295
    }
  ],
  "vout": [
    {
      "scriptpubkey": "0014647f9328d79c28975ae178057c99b9ac7c138276",
      "scriptpubkey_asm": "OP_0 OP_PUSHBYTES_20 647f9328d79c28975ae178057c99b9ac7c138276",
      "scriptpubkey_type": "v0_p2wpkh",
      "scriptpubkey_address": "bc1qv3lex2xhns5fwkhp0qzhexde437p8qnk4d3c54",
      "value": 83719
    },
    {
      "scriptpubkey": "001483135dd0c2aa7892b450e00411834e67f877f62b",
      "scriptpubkey_asm": "OP_0 OP_PUSHBYTES_20 83135dd0c2aa7892b450e00411834e67f877f62b",
      "scriptpubkey_type": "v0_p2wpkh",
      "scriptpubkey_address": "bc1qsvf4m5xz4fuf9dzsuqzprq6wvlu80a3t2zd5z7",
      "value": 634062
    },
    {
      "scriptpubkey": "76a914406ea10ddb09128eef4af8540d6431f722c18ab388ac",
      "scriptpubkey_asm": "OP_DUP OP_HASH160 OP_PUSHBYTES_20 406ea10ddb09128eef4af8540d6431f722c18ab3 OP_EQUALVERIFY OP_CHECKSIG",
      "scriptpubkey_type": "p2pkh",
      "scriptpubkey_address": "16sgmvXy5vAZJrEnriyg4aVAsLSLZCe3wh",
      "value": 142914
    },
    {
      "scriptpubkey": "a91430176a0685f415b7887ff32f63e3ddf18e3b787787",
      "scriptpubkey_asm": "OP_HASH160 OP_PUSHBYTES_20 30176a0685f415b7887ff32f63e3ddf18e3b7877 OP_EQUAL",
      "scriptpubkey_type": "p2sh",
      "scriptpubkey_address": "365JQbXaQzvobhV1eCAmk3v2frway6o9KV",
      "value": 1184175
    },
    {
      "scriptpubkey": "00148757f0de584305f594d78226f6ce5c85248720f1",
      "scriptpubkey_asm": "OP_0 OP_PUSHBYTES_20 8757f0de584305f594d78226f6ce5c85248720f1",
      "scriptpubkey_type": "v0_p2wpkh",
      "scriptpubkey_address": "bc1qsatlphjcgvzlt9xhsgn0dnjus5jgwg83dr05c6",
      "value": 98550455
    }
  ],
  "size": 319,
  "weight": 949,
  "fee": 4855,
  "status": {
    "confirmed": true,
    "block_height": 834638,
    "block_hash": "000000000000000000025f742c626208ac87e0b7d15054abb4a19ca2d735a54e",
    "block_time": 1710405325
  },
  "hex": "01000000000101724e50b00864c6a14700085fd4862d6294bb800c18a9deb4b2b836468f98f39b0100000000ffffffff050747010000000000160014647f9328d79c28975ae178057c99b9ac7c138276ceac09000000000016001483135dd0c2aa7892b450e00411834e67f877f62b422e0200000000001976a914406ea10ddb09128eef4af8540d6431f722c18ab388acaf1112000000000017a91430176a0685f415b7887ff32f63e3ddf18e3b787787b7c2df05000000001600148757f0de584305f594d78226f6ce5c85248720f102473044022050666d250e3e3bdabdfe8a6b85ef8e87c66ee22e0b483e140bfa55c17f7054bf02201f14b2415555001d0467346999f02a1be5a35fe6382176b36317cb05560aa7f4012103ff7fa6a3eb9721f090474fe1096b71e344fb396d081e827c549e96d8aa650c8800000000"
}