{
  "txid": "64ffbf80f80d993e26580470f2304e49933baaaa1e482f9ccda78e2e993e5e62",
  "version": 1,
  "locktime": 0,
  "vin": [
    {
      "txid": "542e5ca327a68b17f5ada9b37b224ee9c224c473c14edcf858762976b060c35b",
      "vout": 1,
      "prevout": {
        "scriptpubkey": "0014cf8757cc8c83ff4a390b9b5da652ba71bf3add23",
        "scriptpubkey_asm": "OP_0 OP_PUSHBYTES_20 cf8757cc8c83ff4a390b9b5da652ba71bf3add23",
        "scriptpubkey_type": "v0_p2wpkh",
        "scriptpubkey_address": "bc1qe7r40nyvs0l55wgtndw6v546wxln4hfr52mzzg",
        "value": 19544
      },
      "scriptsig": "",
      "scriptsig_asm": "",
      "witness": [
        "3044022015304f422857dbd01ec06d9868737e6ee8643ab9329262576a07946a6000daf0022037f7786e402b695cf78b0a4771888ec464cce96bfa622715617960e4c870ad4201",
        "033bfce6acaa3f96e50806f97a9885f0161ad359a8cf40079f4ef8f8ce2e533cf6"
      ],
      "is_coinbase": false,
      "sequence": 4294967295
    },
    {
      "txid": "0d504a94fd7619d06f7f9d1646a85a97ec05098b83821e37a2396bdefade2a5c",
      "vout": 553,
      "prevout": {
        "scriptpubkey": "0014cf8757cc8c83ff4a390b9b5da652ba71bf3add23",
        "scriptpubkey_asm": "OP_0 OP_PUSHBYTES_20 cf8757cc8c83ff4a390b9b5da652ba71bf3add23",
        "scriptpubkey_type": "v0_p2wpkh",
        "scriptpubkey_address": "bc1qe7r40nyvs0l55wgtndw6v546wxln4hfr52mzzg",
        "value": 117098
      },
      "scriptsig": "",
      "scriptsig_asm": "",
      "witness": [
        "304402203a55bbe474c5f45f77688a60d587a093eeeaaff79309cb23a94d839488e44cb10220718990a333844726a9cc142b64e492a5b92fbe40d198dbda1bb8004ea057aed201",
        "033bfce6acaa3f96e50806f97a9885f0161ad359a8cf40079f4ef8f8ce2e533cf6"
      ],
      "is_coinbase": false,
      "sequence": 4294967295
    },
    {
      "txid": "3280d88a0b6f4818ba6815a27a746081a0c349e83515ed63fc4ab8e40428df11",
      "vout": 621,
      "prevout": {
        "scriptpubkey": "0014cf8757cc8c83ff4a390b9b5da652ba71bf3add23",
        "scriptpubkey_asm": "OP_0 OP_PUSHBYTES_20 cf8757cc8c83ff4a390b9b5da652ba71bf3add23",
        "scriptpubkey_type": "v0_p2wpkh",
        "scriptpubkey_address": "bc1qe7r40nyvs0l55wgtndw6v546wxln4hfr52mzzg",
        "value": 121077
      },
      "scriptsig": "",
      "scriptsig_asm": "",
      "witness": [
        "30450221008f225099016aabdc56d2f33b5b6327715df4bc3aaabab1b484c609835d149867022066b3a0dbe1b84846f265af32876010acfe7e2d88c6327877ffa0d689f382b2a901",
        "033bfce6acaa3f96e50806f97a9885f0161ad359a8cf40079f4ef8f8ce2e533cf6"
      ],
      "is_coinbase": false,
      "sequence": 4294967295
    }
  ],
  "vout": [
    {
      "scriptpubkey": "a91450655ad02d0e145314feb4c43f0eeb975a5ebdbc87",
      "scriptpubkey_asm": "OP_HASH160 OP_PUSHBYTES_20 50655ad02d0e145314feb4c43f0eeb975a5ebdbc OP_EQUAL",
      "scriptpubkey_type": "p2sh",
      "scriptpubkey_address": "3927Q98HUS1HNHzLquL1P78xhbW7ZkU479",
      "value": 250000
    },
    {
      "scriptpubkey": "0014cf8757cc8c83ff4a390b9b5da652ba71bf3add23",
      "scriptpubkey_asm": "OP_0 OP_PUSHBYTES_20 cf8757cc8c83ff4a390b9b5da652ba71bf3add23",
      "scriptpubkey_type": "v0_p2wpkh",
      "scriptpubkey_address": "bc1qe7r40nyvs0l55wgtndw6v546wxln4hfr52mzzg",
      "value": 3549
    }
  ],
  "size": 520,
  "weight": 1108,
  "fee": 4170,
  "status": {
    "confirmed": true,
    "block_height": 834460,
    "block_hash": "00000000000000000000484a79b643b2524bbce82e5d8a442013fa5b8905ed98",
    "block_time": 1710307468
  },
  "hex": "010000000001035bc360b076297658f8dc4ec173c424c2e94e227bb3a9adf5178ba627a35c2e540100000000ffffffff5c2adefade6b39a2371e82838b0905ec975aa846169d7f6fd01976fd944a500d2902000000ffffffff11df2804e4b84afc63ed1535e849c3a08160747aa21568ba18486f0b8ad880326d02000000ffffffff0290d003000000000017a91450655ad02d0e145314feb4c43f0eeb975a5ebdbc87dd0d000000000000160014cf8757cc8c83ff4a390b9b5da652ba71bf3add2302473044022015304f422857dbd01ec06d9868737e6ee8643ab9329262576a07946a6000daf0022037f7786e402b695cf78b0a4771888ec464cce96bfa622715617960e4c870ad420121033bfce6acaa3f96e50806f97a9885f0161ad359a8cf40079f4ef8f8ce2e533cf60247304402203a55bbe474c5f45f77688a60d587a093eeeaaff79309cb23a94d839488e44cb10220718990a333844726a9cc142b64e492a5b92fbe40d198dbda1bb8004ea057aed20121033bfce6acaa3f96e50806f97a9885f0161ad359a8cf40079f4ef8f8ce2e533cf6024830450221008f225099016aabdc56d2f33b5b6327715df4bc3aaabab1b484c609835d149867022066b3a0dbe1b84846f265af32876010acfe7e2d88c6327877ffa0d689f382b2a90121033bfce6acaa3f96e50806f97a9885f0161ad359a8cf40079f4ef8f8ce2e533cf600000000"
}