{
  "txid": "65057a08d2fe86abeb4f708358307e242197ac864c0502bff550d2b8724869de",
  "version": 2,
  "locktime": 0,
  "vin": [
    {
      "txid": "fbdbf68d5327591d840f03c79e521d9374e7e4dd5912518cb2d300865b0625e6",
      "vout": 0,
      "prevout": {
        "scriptpubkey": "5120f35b486799059b58a5c0cbd90fab5eaff57ae7c6044f3a4155e240ac0a5c3d76",
        "scriptpubkey_asm": "OP_PUSHNUM_1 OP_PUSHBYTES_32 f35b486799059b58a5c0cbd90fab5eaff57ae7c6044f3a4155e240ac0a5c3d76",
        "scriptpubkey_type": "v1_p2tr",
        "scriptpubkey_address": "bc1p7dd5seueqkd43fwqe0vsl2674l6h4e7xq38n5s24ufq2czju84mq2yep6y",
        "value": 20000
      },
      "scriptsig": "",
      "scriptsig_asm": "",
      "witness": [
        "cbdf46989458d659e8961ab79d90069a96db43f04f787422f93e7de10d923dd733d04af2180e3a9a1c20bdd6bac40fa08c8e7b56660bab8bc20087c5d6194b7101"
      ],
      "is_coinbase": false,
      "sequence": 4294967295
    }
  ],
  "vout": [
    {
      "scriptpubkey": "00143919d928e617770c9b365142cb95d85743baba29",
      "scriptpubkey_asm": "OP_0 OP_PUSHBYTES_20 3919d928e617770c9b365142cb95d85743baba29",
      "scriptpubkey_type": "v0_p2wpkh",
      "scriptpubkey_address": "bc1q8yvaj28xzamsexek29pvh9wc2apm4w3fu7zfkh",
      "value": 18792
    }
  ],
  "size": 151,
  "weight": 397,
  "fee": 1208,
  "status": {
    "confirmed": true,
    "block_height": 834552,
    "block_hash": "00000000000000000001dd0468a70c94f619251d286585cff57aeb4bd9ede330",
    "block_time": 1710355598
  },
  "hex": "02000000000101e625065b8600d3b28c511259dde4e774931d529ec7030f841d5927538df6dbfb0000000000ffffffff0168490000000000001600143919d928e617770c9b365142cb95d85743baba290141cbdf46989458d659e8961ab79d90069a96db43f04f787422f93e7de10d923dd733d04af2180e3a9a1c20bdd6bac40fa08c8e7b56660bab8bc20087c5d6194b710100000000"
}