{
  "txid": "651024c2f5b403fd90d78d9d39a5706738d775bfbfdcd3e87b8fe8c45076c8f5",
  "version": 1,
  "locktime": 0,
  "vin": [
    {
      "txid": "23218965e32a06b2a79056028d516bc4493d422d38ba62afae83c3710e6c89b8",
      "vout": 1,
      "prevout": {
        "scriptpubkey": "00146c1d7d208eae535d83aaaa84b82ae90bf62e8a8c",
        "scriptpubkey_asm": "OP_0 OP_PUSHBYTES_20 6c1d7d208eae535d83aaaa84b82ae90bf62e8a8c",
        "scriptpubkey_type": "v0_p2wpkh",
        "scriptpubkey_address": "bc1qdswh6gyw4ef4mqa242zts2hfp0mzaz5vkh6ypu",
        "value": 928002
      },
      "scriptsig": "",
      "scriptsig_asm": "",
      "witness": [
        "3045022100a2384fef09bf1b00fa1eafc32dd49f005d7e9155d068684d36ed1e25e712d19f0220254bed33144066f800560434d6eb1adc7acbe262fc0482fc0a10b07258121c1a01",
        "03f9773711c1ae5ec90e46dfbcfa76720d37858c9ac30b4d136fdc257544643ee9"
      ],
      "is_coinbase": false,
      "sequence": 4294967295
    },
    {
      "txid": "909a3d2a038935c52090b2568a9436b6b39e5570966736c3eee4d007b210b175",
      "vout": 2,
      "prevout": {
        "scriptpubkey": "00149441e753c23018c17080be4e35532373b9738f6e",
        "scriptpubkey_asm": "OP_0 OP_PUSHBYTES_20 9441e753c23018c17080be4e35532373b9738f6e",
        "scriptpubkey_type": "v0_p2wpkh",
        "scriptpubkey_address": "bc1qj3q7w57zxqvvzuyqhe8r25erwwuh8rmws9zjjj",
        "value": 35676
      },
      "scriptsig": "",
      "scriptsig_asm": "",
      "witness": [
        "3045022100d71df3de0c51b44b2be62f4896b9f4c841b580dcaec878bed4ebae60d413be650220614fcf3c8c9cc21f673dd277accb209b91b09aadcb6a06c5a435eb7960a511fe01",
        "03b8a0b4e05ce717ed2ab0cfb7c53e24933a6e8dde33ad28e6b398703988ad5a22"
      ],
      "is_coinbase": false,
      "sequence": 4294967295
    }
  ],
  "vout": [
    {
      "scriptpubkey": "a91417772264f4c454d21cfb37ae074cda4ab23ce0d587",
      "scriptpubkey_asm": "OP_HASH160 OP_PUSHBYTES_20 17772264f4c454d21cfb37ae074cda4ab23ce0d5 OP_EQUAL",
      "scriptpubkey_type": "p2sh",
      "scriptpubkey_address": "33q6BZC1bKp3xZ458Q82KokZjvHG1MrSvp",
      "value": 961709
    }
  ],
  "size": 342,
  "weight": 714,
  "fee": 1969,
  "status": {
    "confirmed": true,
    "block_height": 834464,
    "block_hash": "0000000000000000000177a0869a911a2b65c9bdcd5a8bcb02b68f305bee848e",
    "block_time": 1710308296
  },
  "hex": "01000000000102b8896c0e71c383aeaf62ba382d423d49c46b518d025690a7b2062ae3658921230100000000ffffffff75b110b207d0e4eec336679670559eb3b636948a56b29020c53589032a3d9a900200000000ffffffff01adac0e000000000017a91417772264f4c454d21cfb37ae074cda4ab23ce0d58702483045022100a2384fef09bf1b00fa1eafc32dd49f005d7e9155d068684d36ed1e25e712d19f0220254bed33144066f800560434d6eb1adc7acbe262fc0482fc0a10b07258121c1a012103f9773711c1ae5ec90e46dfbcfa76720d37858c9ac30b4d136fdc257544643ee902483045022100d71df3de0c51b44b2be62f4896b9f4c841b580dcaec878bed4ebae60d413be650220614fcf3c8c9cc21f673dd277accb209b91b09aadcb6a06c5a435eb7960a511fe012103b8a0b4e05ce717ed2ab0cfb7c53e24933a6e8dde33ad28e6b398703988ad5a2200000000"
}