{
  "txid": "65109c0b4e4e843d8b0e27b429a78d1277ac999af71ef7c31952e45b0f747b2d",
  "version": 1,
  "locktime": 0,
  "vin": [
    {
      "txid": "c323bbf13017ebd87835b145bb20ae5f3d6fcedd4f162eb2a0c727c55dffa581",
      "vout": 0,
      "prevout": {
        "scriptpubkey": "0020301d148e711f34487cee73e6f3553a9e2204796a854948b652cf8649a6608415",
        "scriptpubkey_asm": "OP_0 OP_PUSHBYTES_32 301d148e711f34487cee73e6f3553a9e2204796a854948b652cf8649a6608415",
        "scriptpubkey_type": "v0_p2wsh",
        "scriptpubkey_address": "bc1qxqw3frn3ru6ysl8ww0n0x4f6nc3qg7t2s4y53djje7rynfnqss2sxn7nk0",
        "value": 112200
      },
      "scriptsig": "",
      "scriptsig_asm": "",
      "witness": [
        "",
        "304402205e0c6909c7e0ead7811f1fac492db43a1e609cc25bd9ef76201f720a8f841330022033f0c7c50c661b66f2574b6a31bd78b6ce4a4c215103f86b67b482be331bd15201",
        "3045022100eefb6fb5d38b61801002f1d0aa107e0dc69e533a315b0173fa07011e11dede49022055a2d7f6c9a31cc065b9fa415dc0008dec62116c21cde1d79e7e8f185fb1eb5a01",
        "5221022527bf73c7944932ab821d037bdf1214c68fedbe0fea1dc7c78e9661ea2ba12221033397e0d352df2408777e592e8ce1126450c73ff11fe332198225120ca551749a52ae"
      ],
      "is_coinbase": false,
      "sequence": 4294967295,
      "inner_witnessscript_asm": "OP_PUSHNUM_2 OP_PUSHBYTES_33 022527bf73c7944932ab821d037bdf1214c68fedbe0fea1dc7c78e9661ea2ba122 OP_PUSHBYTES_33 033397e0d352df2408777e592e8ce1126450c73ff11fe332198225120ca551749a OP_PUSHNUM_2 OP_CHECKMULTISIG"
    }
  ],
  "vout": [
    {
      "scriptpubkey": "0014e59a18913fa752674d3c80639b1fef97e8574820",
      "scriptpubkey_asm": "OP_0 OP_PUSHBYTES_20 e59a18913fa752674d3c80639b1fef97e8574820",
      "scriptpubkey_type": "v0_p2wpkh",
      "scriptpubkey_address": "bc1qukdp3yfl5afxwnfusp3ek8l0jl59wjpqhnwshy",
      "value": 109177
    }
  ],
  "size": 303,
  "weight": 549,
  "fee": 3023,
  "status": {
    "confirmed": true,
    "block_height": 834638,
    "block_hash": "000000000000000000025f742c626208ac87e0b7d15054abb4a19ca2d735a54e",
    "block_time": 1710405325
  },
  "hex": "0100000000010181a5ff5dc527c7a0b22e164fddce6f3d5fae20bb45b13578d8eb1730f1bb23c30000000000ffffffff0179aa010000000000160014e59a18913fa752674d3c80639b1fef97e8574820040047304402205e0c6909c7e0ead7811f1fac492db43a1e609cc25bd9ef76201f720a8f841330022033f0c7c50c661b66f2574b6a31bd78b6ce4a4c215103f86b67b482be331bd15201483045022100eefb6fb5d38b61801002f1d0aa107e0dc69e533a315b0173fa07011e11dede49022055a2d7f6c9a31cc065b9fa415dc0008dec62116c21cde1d79e7e8f185fb1eb5a01475221022527bf73c7944932ab821d037bdf1214c68fedbe0fea1dc7c78e9661ea2ba12221033397e0d352df2408777e592e8ce1126450c73ff11fe332198225120ca551749a52ae00000000"
}