{
  "txid": "651115ddd2f7493147ce19f013a632eab30c5dd40ecb31e886663b2470f0ee5c",
  "version": 2,
  "locktime": 0,
  "vin": [
    {
      "txid": "a0358a77ed6b05eec6b337f5b71e11d1f7bbac5b40898260794b6cc224310d91",
      "vout": 3,
      "prevout": {
        "scriptpubkey": "51202d071a3b480cd9b47db94593e4592074b81d5edaec2e007722cfb1058d63912e",
        "scriptpubkey_asm": "OP_PUSHNUM_1 OP_PUSHBYTES_32 2d071a3b480cd9b47db94593e4592074b81d5edaec2e007722cfb1058d63912e",
        "scriptpubkey_type": "v1_p2tr",
        "scriptpubkey_address": "bc1p95r35w6gpnvmgldegkf7gkfqwjup6hk6ashqqaeze7cstrtrjyhqnjkr68",
        "value": 368213
      },
      "scriptsig": "",
      "scriptsig_asm": "",
      "witness": [
        "9441fa89b25e9eab356d76f40230366c7d1dcdff3c37bf47c14be675c84068b722a45b02a378424989189f741d2be5bb44b6db1ed465f6681e15e1a0b0e4f42d"
      ],
      "is_coinbase": false,
      "sequence": 4294967295
    },
    {
      "txid": "6238618808f387361f208be88be640626074abab38e60da21bf1ebaccde21533",
      "vout": 0,
      "prevout": {
        "scriptpubkey": "5120a1244074a2149fefdc0e72e3768d7825168597a8cdd1ece1f7e8af6933e943cf",
        "scriptpubkey_asm": "OP_PUSHNUM_1 OP_PUSHBYTES_32 a1244074a2149fefdc0e72e3768d7825168597a8cdd1ece1f7e8af6933e943cf",
        "scriptpubkey_type": "v1_p2tr",
        "scriptpubkey_address": "bc1p5yjyqa9zzj07lhqwwt3hdrtcy5tgt9agehg7ec0hazhkjvlfg08sln0ar5",
        "value": 100000
      },
      "scriptsig": "",
      "scriptsig_asm": "",
      "witness": [
        "9737a693aa2b59c066f1c66992668fb651d13576d97f67bb6c75b9421177e5d3ca7a52f7bc88b7da88c65dbadac8c9cd573960d5c938b2f083cf5224962c022983"
      ],
      "is_coinbase": false,
      "sequence": 4294967295
    }
  ],
  "vout": [
    {
      "scriptpubkey": "51202d071a3b480cd9b47db94593e4592074b81d5edaec2e007722cfb1058d63912e",
      "scriptpubkey_asm": "OP_PUSHNUM_1 OP_PUSHBYTES_32 2d071a3b480cd9b47db94593e4592074b81d5edaec2e007722cfb1058d63912e",
      "scriptpubkey_type": "v1_p2tr",
      "scriptpubkey_address": "bc1p95r35w6gpnvmgldegkf7gkfqwjup6hk6ashqqaeze7cstrtrjyhqnjkr68",
      "value": 100000
    },
    {
      "scriptpubkey": "76a91438fc9d6ea93d98406949edd8c7f2c2582fbbf2e888ac",
      "scriptpubkey_asm": "OP_DUP OP_HASH160 OP_PUSHBYTES_20 38fc9d6ea93d98406949edd8c7f2c2582fbbf2e8 OP_EQUALVERIFY OP_CHECKSIG",
      "scriptpubkey_type": "p2pkh",
      "scriptpubkey_address": "16CKTjpgfGXvZAXGyzQwuCv8PUJTGqxmmF",
      "value": 101000
    },
    {
      "scriptpubkey": "0014e5cb2de82fd4c136218c67a310fde879344c1bef",
      "scriptpubkey_asm": "OP_0 OP_PUSHBYTES_20 e5cb2de82fd4c136218c67a310fde879344c1bef",
      "scriptpubkey_type": "v0_p2wpkh",
      "scriptpubkey_address": "bc1quh9jm6p06nqnvgvvv733pl0g0y6ycxl0aas2t4",
      "value": 2020
    },
    {
      "scriptpubkey": "51202d071a3b480cd9b47db94593e4592074b81d5edaec2e007722cfb1058d63912e",
      "scriptpubkey_asm": "OP_PUSHNUM_1 OP_PUSHBYTES_32 2d071a3b480cd9b47db94593e4592074b81d5edaec2e007722cfb1058d63912e",
      "scriptpubkey_type": "v1_p2tr",
      "scriptpubkey_address": "bc1p95r35w6gpnvmgldegkf7gkfqwjup6hk6ashqqaeze7cstrtrjyhqnjkr68",
      "value": 260678
    }
  ],
  "size": 378,
  "weight": 1107,
  "fee": 4515,
  "status": {
    "confirmed": true,
    "block_height": 834460,
    "block_hash": "00000000000000000000484a79b643b2524bbce82e5d8a442013fa5b8905ed98",
    "block_time": 1710307468
  },
  "hex": "02000000000102910d3124c26c4b79608289405bacbbf7d1111eb7f537b3c6ee056bed778a35a00300000000ffffffff3315e2cdacebf11ba20de638abab74606240e68be88b201f3687f308886138620000000000ffffffff04a0860100000000002251202d071a3b480cd9b47db94593e4592074b81d5edaec2e007722cfb1058d63912e888a0100000000001976a91438fc9d6ea93d98406949edd8c7f2c2582fbbf2e888ace407000000000000160014e5cb2de82fd4c136218c67a310fde879344c1bef46fa0300000000002251202d071a3b480cd9b47db94593e4592074b81d5edaec2e007722cfb1058d63912e01409441fa89b25e9eab356d76f40230366c7d1dcdff3c37bf47c14be675c84068b722a45b02a378424989189f741d2be5bb44b6db1ed465f6681e15e1a0b0e4f42d01419737a693aa2b59c066f1c66992668fb651d13576d97f67bb6c75b9421177e5d3ca7a52f7bc88b7da88c65dbadac8c9cd573960d5c938b2f083cf5224962c02298300000000"
}