{
  "txid": "651d3d15cd67c720584b591285ee8c59090a0ebd63ecddb25df96deb56c4beb8",
  "version": 2,
  "locktime": 0,
  "vin": [
    {
      "txid": "cca4a14009f79795f7292cadd43f38c8eb1ecf1172808bf9cb02295d18ac7f5b",
      "vout": 0,
      "prevout": {
        "scriptpubkey": "76a914cb313417d554f863bc866d04096aa34a9835df4388ac",
        "scriptpubkey_asm": "OP_DUP OP_HASH160 OP_PUSHBYTES_20 cb313417d554f863bc866d04096aa34a9835df43 OP_EQUALVERIFY OP_CHECKSIG",
        "scriptpubkey_type": "p2pkh",
        "scriptpubkey_address": "1KXP7fGuo6DzPyu6rU7fwSzTcdupASr66o",
        "value": 796383
      },
      "scriptsig": "47304402202e8bd20d37f0b557506cc22d912cb7f5f5d55df61821a776ad95b0f45510e12e02207f3deb866a946c240124005df69bcbda980a536afdb6cd995e6e13c4f925d29001210345dcc1f6bb549b1538809fd93ac9b5eb441f207a22015dc4d3c5379a0cec98b4",
      "scriptsig_asm": "OP_PUSHBYTES_71 304402202e8bd20d37f0b557506cc22d912cb7f5f5d55df61821a776ad95b0f45510e12e02207f3deb866a946c240124005df69bcbda980a536afdb6cd995e6e13c4f925d29001 OP_PUSHBYTES_33 0345dcc1f6bb549b1538809fd93ac9b5eb441f207a22015dc4d3c5379a0cec98b4",
      "is_coinbase": false,
      "sequence": 4294967295
    }
  ],
  "vout": [
    {
      "scriptpubkey": "00144bfc5263dedb4a3974f326ec3d3792e3dd2e7554",
      "scriptpubkey_asm": "OP_0 OP_PUSHBYTES_20 4bfc5263dedb4a3974f326ec3d3792e3dd2e7554",
      "scriptpubkey_type": "v0_p2wpkh",
      "scriptpubkey_address": "bc1qf079yc77md9rja8nymkr6duju0wjua253w5mxy",
      "value": 163317
    },
    {
      "scriptpubkey": "76a91443476cdb086f7493124a00ee51c4f09626e2cbcc88ac",
      "scriptpubkey_asm": "OP_DUP OP_HASH160 OP_PUSHBYTES_20 43476cdb086f7493124a00ee51c4f09626e2cbcc OP_EQUALVERIFY OP_CHECKSIG",
      "scriptpubkey_type": "p2pkh",
      "scriptpubkey_address": "178jqZhPSrK8TGrBNBnV1TjbKdtYBsKC97",
      "value": 625525
    }
  ],
  "size": 222,
  "weight": 888,
  "fee": 7541,
  "status": {
    "confirmed": true,
    "block_height": 834638,
    "block_hash": "000000000000000000025f742c626208ac87e0b7d15054abb4a19ca2d735a54e",
    "block_time": 1710405325
  },
  "hex": "02000000015b7fac185d2902cbf98b807211cf1eebc8383fd4ad2c29f79597f70940a1a4cc000000006a47304402202e8bd20d37f0b557506cc22d912cb7f5f5d55df61821a776ad95b0f45510e12e02207f3deb866a946c240124005df69bcbda980a536afdb6cd995e6e13c4f925d29001210345dcc1f6bb549b1538809fd93ac9b5eb441f207a22015dc4d3c5379a0cec98b4ffffffff02f57d0200000000001600144bfc5263dedb4a3974f326ec3d3792e3dd2e7554758b0900000000001976a91443476cdb086f7493124a00ee51c4f09626e2cbcc88ac00000000"
}