{
  "txid": "652517493b4632b68a5e95f926106265d5629b763d7700b04a039c0fe7c4f001",
  "version": 1,
  "locktime": 0,
  "vin": [
    {
      "txid": "6511da4961e2c944a3f40fd14b1085d61407705dda4eb14543385906a9e29966",
      "vout": 11,
      "prevout": {
        "scriptpubkey": "0014e0212b546024dd51e774507121758f816313192c",
        "scriptpubkey_asm": "OP_0 OP_PUSHBYTES_20 e0212b546024dd51e774507121758f816313192c",
        "scriptpubkey_type": "v0_p2wpkh",
        "scriptpubkey_address": "bc1quqsjk4rqynw4rem52pcjzav0s933xxfvw2q8hh",
        "value": 197000
      },
      "scriptsig": "",
      "scriptsig_asm": "",
      "witness": [
        "3044022023598e7cafb166b26584081b8e5e1665a4b6b8d5d5793e880e16c6a40fa4d3cd02201bad9b22e635e5058f2bc59ea9a2ae2c521025e58b8fa50dcc6bf14bcb78586b01",
        "031cc16f0d985235be154dc1b6979e7ef89a0db58665eb25c9786cf15c330ceb25"
      ],
      "is_coinbase": false,
      "sequence": 4294967295
    }
  ],
  "vout": [
    {
      "scriptpubkey": "76a914953c97285a28fd13c55e352bc0baf7668333fc0d88ac",
      "scriptpubkey_asm": "OP_DUP OP_HASH160 OP_PUSHBYTES_20 953c97285a28fd13c55e352bc0baf7668333fc0d OP_EQUALVERIFY OP_CHECKSIG",
      "scriptpubkey_type": "p2pkh",
      "scriptpubkey_address": "1Ec6GUwJuynv1rjs8geRcR4reRYKcsjGKV",
      "value": 193949
    }
  ],
  "size": 194,
  "weight": 449,
  "fee": 3051,
  "status": {
    "confirmed": true,
    "block_height": 834638,
    "block_hash": "000000000000000000025f742c626208ac87e0b7d15054abb4a19ca2d735a54e",
    "block_time": 1710405325
  },
  "hex": "010000000001016699e2a90659384345b14eda5d700714d685104bd10ff4a344c9e26149da11650b00000000ffffffff019df50200000000001976a914953c97285a28fd13c55e352bc0baf7668333fc0d88ac02473044022023598e7cafb166b26584081b8e5e1665a4b6b8d5d5793e880e16c6a40fa4d3cd02201bad9b22e635e5058f2bc59ea9a2ae2c521025e58b8fa50dcc6bf14bcb78586b0121031cc16f0d985235be154dc1b6979e7ef89a0db58665eb25c9786cf15c330ceb2500000000"
}