{
  "txid": "652dc85226a255c97233f1f5e3ca922b9436e304d326c1eff0d83a3f0e6a865b",
  "version": 2,
  "locktime": 0,
  "vin": [
    {
      "txid": "d03c0d4d5455fa517edf1f31f81c1355273b0dfc834e000179404411034b6656",
      "vout": 6,
      "prevout": {
        "scriptpubkey": "0014b7c541c8da2dc9a8409d633095768be48052ffaf",
        "scriptpubkey_asm": "OP_0 OP_PUSHBYTES_20 b7c541c8da2dc9a8409d633095768be48052ffaf",
        "scriptpubkey_type": "v0_p2wpkh",
        "scriptpubkey_address": "bc1qklz5rjx69hy6ssyavvcf2a5tujq99la0lpmamv",
        "value": 147000
      },
      "scriptsig": "",
      "scriptsig_asm": "",
      "witness": [
        "304502210089c8fb4f5cdad0e8ba1d9963e21a227663321f1075d4552b4a3168803e128b5502203dbeec49239ad0cc729d857f6e69388da7499904f6ba8458274d3963542de87c01",
        "02cb2cc80e248d04a6430b1ebd1ae0d2c9821b659c0cb518230209eef52cb26565"
      ],
      "is_coinbase": false,
      "sequence": 4294967295
    }
  ],
  "vout": [
    {
      "scriptpubkey": "a91408c4b575299ee575b63bdc1d5d2b2a07d3a27fec87",
      "scriptpubkey_asm": "OP_HASH160 OP_PUSHBYTES_20 08c4b575299ee575b63bdc1d5d2b2a07d3a27fec OP_EQUAL",
      "scriptpubkey_type": "p2sh",
      "scriptpubkey_address": "32VNyeTvSQKX6ixEjC7RXsT46b3AN8e7qQ",
      "value": 145102
    }
  ],
  "size": 193,
  "weight": 442,
  "fee": 1898,
  "status": {
    "confirmed": true,
    "block_height": 834638,
    "block_hash": "000000000000000000025f742c626208ac87e0b7d15054abb4a19ca2d735a54e",
    "block_time": 1710405325
  },
  "hex": "0200000000010156664b031144407901004e83fc0d3b2755131cf8311fdf7e51fa55544d0d3cd00600000000ffffffff01ce3602000000000017a91408c4b575299ee575b63bdc1d5d2b2a07d3a27fec870248304502210089c8fb4f5cdad0e8ba1d9963e21a227663321f1075d4552b4a3168803e128b5502203dbeec49239ad0cc729d857f6e69388da7499904f6ba8458274d3963542de87c012102cb2cc80e248d04a6430b1ebd1ae0d2c9821b659c0cb518230209eef52cb2656500000000"
}