{
  "txid": "65502666bae303206d40cb1b8bf2500b6698a8d4a66289b791468f4f49703b7c",
  "version": 1,
  "locktime": 0,
  "vin": [
    {
      "txid": "f615c0412f959c0b3813cbd232bbb1c1a8ad656c37fb60b601f633a6d2d76942",
      "vout": 20,
      "prevout": {
        "scriptpubkey": "0014df4bf9f3621073202be59ae590f55f42879a21a0",
        "scriptpubkey_asm": "OP_0 OP_PUSHBYTES_20 df4bf9f3621073202be59ae590f55f42879a21a0",
        "scriptpubkey_type": "v0_p2wpkh",
        "scriptpubkey_address": "bc1qma9lnumzzpejq2l9ntjepa2lg2re5gdqn3nf0c",
        "value": 175902
      },
      "scriptsig": "",
      "scriptsig_asm": "",
      "witness": [
        "3045022100a2a839100b7ca7dc97ca8234de56caabc5d30bf5ce561aa61ac1925d9ed09ed60220625b88cc6ddc0715c178fb57fd1ffb65ee905de7670595f2dea9c5feeb6b40d401",
        "03cbf0481cd6ca805552d024e051f1f73086a2abebecdec8bc793d5ef87ec1a2f6"
      ],
      "is_coinbase": false,
      "sequence": 4294967295
    }
  ],
  "vout": [
    {
      "scriptpubkey": "a914626b93cce10ebd0d4d876487f602272c01e39e2387",
      "scriptpubkey_asm": "OP_HASH160 OP_PUSHBYTES_20 626b93cce10ebd0d4d876487f602272c01e39e23 OP_EQUAL",
      "scriptpubkey_type": "p2sh",
      "scriptpubkey_address": "3AfR1wwfaaftqLfv2pAa9ebEXG43uZ9cdn",
      "value": 172905
    }
  ],
  "size": 193,
  "weight": 442,
  "fee": 2997,
  "status": {
    "confirmed": true,
    "block_height": 834638,
    "block_hash": "000000000000000000025f742c626208ac87e0b7d15054abb4a19ca2d735a54e",
    "block_time": 1710405325
  },
  "hex": "010000000001014269d7d2a633f601b660fb376c65ada8c1b1bb32d2cb13380b9c952f41c015f61400000000ffffffff0169a302000000000017a914626b93cce10ebd0d4d876487f602272c01e39e238702483045022100a2a839100b7ca7dc97ca8234de56caabc5d30bf5ce561aa61ac1925d9ed09ed60220625b88cc6ddc0715c178fb57fd1ffb65ee905de7670595f2dea9c5feeb6b40d4012103cbf0481cd6ca805552d024e051f1f73086a2abebecdec8bc793d5ef87ec1a2f600000000"
}