{
  "txid": "6557fc38109fa831ac80bec5b951ca7a13db709979884be923c6e88df20f4cba",
  "version": 2,
  "locktime": 0,
  "vin": [
    {
      "txid": "98993d2e0badf514de99670939ff61214ab72a73de5c5ba014596505db55425a",
      "vout": 0,
      "prevout": {
        "scriptpubkey": "a9145e65caa0869cdfc6f75b4aeec8fdd54e9e85b27c87",
        "scriptpubkey_asm": "OP_HASH160 OP_PUSHBYTES_20 5e65caa0869cdfc6f75b4aeec8fdd54e9e85b27c OP_EQUAL",
        "scriptpubkey_type": "p2sh",
        "scriptpubkey_address": "3AJ9PB3mWTV3nYg4itxjuaxWRvJFtTxrJw",
        "value": 24900000
      },
      "scriptsig": "1600145c9be33db5c87e2d6d2dc94704895776adf93c60",
      "scriptsig_asm": "OP_PUSHBYTES_22 00145c9be33db5c87e2d6d2dc94704895776adf93c60",
      "witness": [
        "304402205e2010878d9ac41ea602062509c36143f6f1597404c4b177099bcb6d910efd2b022022b5b4bebd5544763c384b59ec4b3ac76c002cc2ddfcfb37a300ee8a74c896f101",
        "03166fc2b5c8efdb27410c7c04e9f77f9a3c6b1c5ba8837dfb2a745b46bf9c5793"
      ],
      "is_coinbase": false,
      "sequence": 4294967295,
      "inner_redeemscript_asm": "OP_0 OP_PUSHBYTES_20 5c9be33db5c87e2d6d2dc94704895776adf93c60"
    }
  ],
  "vout": [
    {
      "scriptpubkey": "a9145e65caa0869cdfc6f75b4aeec8fdd54e9e85b27c87",
      "scriptpubkey_asm": "OP_HASH160 OP_PUSHBYTES_20 5e65caa0869cdfc6f75b4aeec8fdd54e9e85b27c OP_EQUAL",
      "scriptpubkey_type": "p2sh",
      "scriptpubkey_address": "3AJ9PB3mWTV3nYg4itxjuaxWRvJFtTxrJw",
      "value": 600
    },
    {
      "scriptpubkey": "a9145e65caa0869cdfc6f75b4aeec8fdd54e9e85b27c87",
      "scriptpubkey_asm": "OP_HASH160 OP_PUSHBYTES_20 5e65caa0869cdfc6f75b4aeec8fdd54e9e85b27c OP_EQUAL",
      "scriptpubkey_type": "p2sh",
      "scriptpubkey_address": "3AJ9PB3mWTV3nYg4itxjuaxWRvJFtTxrJw",
      "value": 600
    },
    {
      "scriptpubkey": "a9145e65caa0869cdfc6f75b4aeec8fdd54e9e85b27c87",
      "scriptpubkey_asm": "OP_HASH160 OP_PUSHBYTES_20 5e65caa0869cdfc6f75b4aeec8fdd54e9e85b27c OP_EQUAL",
      "scriptpubkey_type": "p2sh",
      "scriptpubkey_address": "3AJ9PB3mWTV3nYg4itxjuaxWRvJFtTxrJw",
      "value": 600
    },
    {
      "scriptpubkey": "a9145e65caa0869cdfc6f75b4aeec8fdd54e9e85b27c87",
      "scriptpubkey_asm": "OP_HASH160 OP_PUSHBYTES_20 5e65caa0869cdfc6f75b4aeec8fdd54e9e85b27c OP_EQUAL",
      "scriptpubkey_type": "p2sh",
      "scriptpubkey_address": "3AJ9PB3mWTV3nYg4itxjuaxWRvJFtTxrJw",
      "value": 600
    },
    {
      "scriptpubkey": "a9145e65caa0869cdfc6f75b4aeec8fdd54e9e85b27c87",
      "scriptpubkey_asm": "OP_HASH160 OP_PUSHBYTES_20 5e65caa0869cdfc6f75b4aeec8fdd54e9e85b27c OP_EQUAL",
      "scriptpubkey_type": "p2sh",
      "scriptpubkey_address": "3AJ9PB3mWTV3nYg4itxjuaxWRvJFtTxrJw",
      "value": 600
    },
    {
      "scriptpubkey": "a9145e65caa0869cdfc6f75b4aeec8fdd54e9e85b27c87",
      "scriptpubkey_asm": "OP_HASH160 OP_PUSHBYTES_20 5e65caa0869cdfc6f75b4aeec8fdd54e9e85b27c OP_EQUAL",
      "scriptpubkey_type": "p2sh",
      "scriptpubkey_address": "3AJ9PB3mWTV3nYg4itxjuaxWRvJFtTxrJw",
      "value": 600
    },
    {
      "scriptpubkey": "a9145e65caa0869cdfc6f75b4aeec8fdd54e9e85b27c87",
      "scriptpubkey_asm": "OP_HASH160 OP_PUSHBYTES_20 5e65caa0869cdfc6f75b4aeec8fdd54e9e85b27c OP_EQUAL",
      "scriptpubkey_type": "p2sh",
      "scriptpubkey_address": "3AJ9PB3mWTV3nYg4itxjuaxWRvJFtTxrJw",
      "value": 600
    },
    {
      "scriptpubkey": "a9145e65caa0869cdfc6f75b4aeec8fdd54e9e85b27c87",
      "scriptpubkey_asm": "OP_HASH160 OP_PUSHBYTES_20 5e65caa0869cdfc6f75b4aeec8fdd54e9e85b27c OP_EQUAL",
      "scriptpubkey_type": "p2sh",
      "scriptpubkey_address": "3AJ9PB3mWTV3nYg4itxjuaxWRvJFtTxrJw",
      "value": 600
    },
    {
      "scriptpubkey": "a9145e65caa0869cdfc6f75b4aeec8fdd54e9e85b27c87",
      "scriptpubkey_asm": "OP_HASH160 OP_PUSHBYTES_20 5e65caa0869cdfc6f75b4aeec8fdd54e9e85b27c OP_EQUAL",
      "scriptpubkey_type": "p2sh",
      "scriptpubkey_address": "3AJ9PB3mWTV3nYg4itxjuaxWRvJFtTxrJw",
      "value": 600
    },
    {
      "scriptpubkey": "a9145e65caa0869cdfc6f75b4aeec8fdd54e9e85b27c87",
      "scriptpubkey_asm": "OP_HASH160 OP_PUSHBYTES_20 5e65caa0869cdfc6f75b4aeec8fdd54e9e85b27c OP_EQUAL",
      "scriptpubkey_type": "p2sh",
      "scriptpubkey_address": "3AJ9PB3mWTV3nYg4itxjuaxWRvJFtTxrJw",
      "value": 600
    },
    {
      "scriptpubkey": "a9145e65caa0869cdfc6f75b4aeec8fdd54e9e85b27c87",
      "scriptpubkey_asm": "OP_HASH160 OP_PUSHBYTES_20 5e65caa0869cdfc6f75b4aeec8fdd54e9e85b27c OP_EQUAL",
      "scriptpubkey_type": "p2sh",
      "scriptpubkey_address": "3AJ9PB3mWTV3nYg4itxjuaxWRvJFtTxrJw",
      "value": 24886736
    }
  ],
  "size": 535,
  "weight": 1813,
  "fee": 7264,
  "status": {
    "confirmed": true,
    "block_height": 834638,
    "block_hash": "000000000000000000025f742c626208ac87e0b7d15054abb4a19ca2d735a54e",
    "block_time": 1710405325
  },
  "hex": "020000000001015a4255db05655914a05b5cde732ab74a2161ff39096799de14f5ad0b2e3d999800000000171600145c9be33db5c87e2d6d2dc94704895776adf93c60ffffffff0b580200000000000017a9145e65caa0869cdfc6f75b4aeec8fdd54e9e85b27c87580200000000000017a9145e65caa0869cdfc6f75b4aeec8fdd54e9e85b27c87580200000000000017a9145e65caa0869cdfc6f75b4aeec8fdd54e9e85b27c87580200000000000017a9145e65caa0869cdfc6f75b4aeec8fdd54e9e85b27c87580200000000000017a9145e65caa0869cdfc6f75b4aeec8fdd54e9e85b27c87580200000000000017a9145e65caa0869cdfc6f75b4aeec8fdd54e9e85b27c87580200000000000017a9145e65caa0869cdfc6f75b4aeec8fdd54e9e85b27c87580200000000000017a9145e65caa0869cdfc6f75b4aeec8fdd54e9e85b27c87580200000000000017a9145e65caa0869cdfc6f75b4aeec8fdd54e9e85b27c87580200000000000017a9145e65caa0869cdfc6f75b4aeec8fdd54e9e85b27c87d0bd7b010000000017a9145e65caa0869cdfc6f75b4aeec8fdd54e9e85b27c870247304402205e2010878d9ac41ea602062509c36143f6f1597404c4b177099bcb6d910efd2b022022b5b4bebd5544763c384b59ec4b3ac76c002cc2ddfcfb37a300ee8a74c896f1012103166fc2b5c8efdb27410c7c04e9f77f9a3c6b1c5ba8837dfb2a745b46bf9c579300000000"
}