{
  "txid": "655edd87e978182f97c9db2386d48aa284c08c17833255e1716eb0229ee953e7",
  "version": 1,
  "locktime": 0,
  "vin": [
    {
      "txid": "1b13c1ba1500de584df2bbdccb8641d456faf0d91c7dc3fe95bbab831fae3cc8",
      "vout": 0,
      "prevout": {
        "scriptpubkey": "512070f12aa8aa4ff59c1ad7c09139602f2bd7a2d73fc9a263390753ef88bd633bc1",
        "scriptpubkey_asm": "OP_PUSHNUM_1 OP_PUSHBYTES_32 70f12aa8aa4ff59c1ad7c09139602f2bd7a2d73fc9a263390753ef88bd633bc1",
        "scriptpubkey_type": "v1_p2tr",
        "scriptpubkey_address": "bc1pwrcj4292fl6ecxkhczgnjcp090t694elex3xxwg820hc30tr80qs33sex0",
        "value": 2366
      },
      "scriptsig": "",
      "scriptsig_asm": "",
      "witness": [
        "fe020754e20b1c1d04b44536242ccd015b19353db44874924eaa6a1e8fdbb64ae8be6da98d3ecce4b7eeb7be9d182071a499bc1756e9f109e3d9710e7c33a8a1",
        "20af267899e1401ccffc9749e7d7d4793baf361cffe551d644de7b77b5ed8ee907ac0063036f726401010a746578742f706c61696e00467b2270223a22746170222c226f70223a22746f6b656e2d7472616e73666572222c227469636b223a22444d542d424954222c22616d74223a223530303030303030303030227d68",
        "c1af267899e1401ccffc9749e7d7d4793baf361cffe551d644de7b77b5ed8ee907"
      ],
      "is_coinbase": false,
      "sequence": 4294967293
    }
  ],
  "vout": [
    {
      "scriptpubkey": "00142dc00bd89757e216724a12f5c1e22d4aabaa3154",
      "scriptpubkey_asm": "OP_0 OP_PUSHBYTES_20 2dc00bd89757e216724a12f5c1e22d4aabaa3154",
      "scriptpubkey_type": "v0_p2wpkh",
      "scriptpubkey_address": "bc1q9hqqhkyh2l3pvuj2zt6urc3df2465v257var2j",
      "value": 546
    }
  ],
  "size": 311,
  "weight": 557,
  "fee": 1820,
  "status": {
    "confirmed": true,
    "block_height": 834460,
    "block_hash": "00000000000000000000484a79b643b2524bbce82e5d8a442013fa5b8905ed98",
    "block_time": 1710307468
  },
  "hex": "01000000000101c83cae1f83abbb95fec37d1cd9f0fa56d44186cbdcbbf24d58de0015bac1131b0000000000fdffffff0122020000000000001600142dc00bd89757e216724a12f5c1e22d4aabaa31540340fe020754e20b1c1d04b44536242ccd015b19353db44874924eaa6a1e8fdbb64ae8be6da98d3ecce4b7eeb7be9d182071a499bc1756e9f109e3d9710e7c33a8a17e20af267899e1401ccffc9749e7d7d4793baf361cffe551d644de7b77b5ed8ee907ac0063036f726401010a746578742f706c61696e00467b2270223a22746170222c226f70223a22746f6b656e2d7472616e73666572222c227469636b223a22444d542d424954222c22616d74223a223530303030303030303030227d6821c1af267899e1401ccffc9749e7d7d4793baf361cffe551d644de7b77b5ed8ee90700000000"
}