{
  "txid": "656e9d8f71e4bce077aeb33889cb6bad99a99e8296d97e81ea18cc2c7cf7cd00",
  "version": 2,
  "locktime": 0,
  "vin": [
    {
      "txid": "955fb2eaaf3a88c88e260c4d1bc71967f62ff3080f5b338f6d87860878462b66",
      "vout": 7,
      "prevout": {
        "scriptpubkey": "51201bbfede4c86285d4a535b9dc6256b5bc97026284b3348069b65d28ed626db5fa",
        "scriptpubkey_asm": "OP_PUSHNUM_1 OP_PUSHBYTES_32 1bbfede4c86285d4a535b9dc6256b5bc97026284b3348069b65d28ed626db5fa",
        "scriptpubkey_type": "v1_p2tr",
        "scriptpubkey_address": "bc1prwl7mexgv2zafff4h8wxy444hjtsyc5ykv6gq6dkt55w6cndkhaqle9jc6",
        "value": 2753
      },
      "scriptsig": "",
      "scriptsig_asm": "",
      "witness": [
        "428733862aac8defd41f8859cd3a32e15af3f7c28e0d66c7476e96b17670cd79d0b5fdad0c6fc1dc7670a0d35496cd0f18a24973916cebb9bddd9a4bde61415c",
        "2074c9aad624feedb723bd70fc697ae30c1935c547d9b21f66ff95e51c9a2a6772ac0063036f726401010a746578742f706c61696e004c8f7b2270223a2022746170222c20226f70223a2022646d742d6d696e74222c2022646570223a2022333962373532343338626533613435326464623731376230613635346233313662316164343661383139656234343831383933626337313331663738396539616930222c20227469636b223a20226e61746f776c73222c2022626c6b223a2022373035383135227d68",
        "c174c9aad624feedb723bd70fc697ae30c1935c547d9b21f66ff95e51c9a2a6772"
      ],
      "is_coinbase": false,
      "sequence": 4294967293
    }
  ],
  "vout": [
    {
      "scriptpubkey": "5120875b27e2ebaa1189ad1777eb124b8f0cd3dfe933d9a47622ffca147caaca54b5",
      "scriptpubkey_asm": "OP_PUSHNUM_1 OP_PUSHBYTES_32 875b27e2ebaa1189ad1777eb124b8f0cd3dfe933d9a47622ffca147caaca54b5",
      "scriptpubkey_type": "v1_p2tr",
      "scriptpubkey_address": "bc1psadj0cht4ggcntghwl43yju0pnfal6fnmxj8vghleg28e2k22j6s05x69l",
      "value": 546
    }
  ],
  "size": 397,
  "weight": 679,
  "fee": 2207,
  "status": {
    "confirmed": true,
    "block_height": 834460,
    "block_hash": "00000000000000000000484a79b643b2524bbce82e5d8a442013fa5b8905ed98",
    "block_time": 1710307468
  },
  "hex": "02000000000101662b46780886876d8f335b0f08f32ff66719c71b4d0c268ec8883aafeab25f950700000000fdffffff012202000000000000225120875b27e2ebaa1189ad1777eb124b8f0cd3dfe933d9a47622ffca147caaca54b50340428733862aac8defd41f8859cd3a32e15af3f7c28e0d66c7476e96b17670cd79d0b5fdad0c6fc1dc7670a0d35496cd0f18a24973916cebb9bddd9a4bde61415cc82074c9aad624feedb723bd70fc697ae30c1935c547d9b21f66ff95e51c9a2a6772ac0063036f726401010a746578742f706c61696e004c8f7b2270223a2022746170222c20226f70223a2022646d742d6d696e74222c2022646570223a2022333962373532343338626533613435326464623731376230613635346233313662316164343661383139656234343831383933626337313331663738396539616930222c20227469636b223a20226e61746f776c73222c2022626c6b223a2022373035383135227d6821c174c9aad624feedb723bd70fc697ae30c1935c547d9b21f66ff95e51c9a2a677200000000"
}