{
  "txid": "656ff194ec9dc387b3989d1914b50d212c731ca0c752062772c55aa101b72fcd",
  "version": 2,
  "locktime": 0,
  "vin": [
    {
      "txid": "bee025bdf6ae31fc5a7d1b27146634423f9865b7291153b971185a8f425cf8f3",
      "vout": 0,
      "prevout": {
        "scriptpubkey": "0014a12e1aeb72333a7f4f1d7ac28ff622fbb0df7d3e",
        "scriptpubkey_asm": "OP_0 OP_PUSHBYTES_20 a12e1aeb72333a7f4f1d7ac28ff622fbb0df7d3e",
        "scriptpubkey_type": "v0_p2wpkh",
        "scriptpubkey_address": "bc1q5yhp46mjxva87nca0tpgla3zlwcd7lf7hhwwd7",
        "value": 173397
      },
      "scriptsig": "",
      "scriptsig_asm": "",
      "witness": [
        "3045022100e438eccaa5b9fb280e0603d48f32052292995708b757f373bafa063fc48f7a9102201be5154834c93e2c174df19733baec38c110094a8b2fad2322b61c3418bddae601",
        "03263804be5beec48032b3e1a4f790fa53d87007ba056ea97c76d4b9fdb43c976e"
      ],
      "is_coinbase": false,
      "sequence": 4294967295
    }
  ],
  "vout": [
    {
      "scriptpubkey": "a9147d27c41c157c53b864041f6d4288d43e68a699c187",
      "scriptpubkey_asm": "OP_HASH160 OP_PUSHBYTES_20 7d27c41c157c53b864041f6d4288d43e68a699c1 OP_EQUAL",
      "scriptpubkey_type": "p2sh",
      "scriptpubkey_address": "3D6n2WuQHtYKWof35A3uL8E8wxA7rksSCg",
      "value": 117720
    },
    {
      "scriptpubkey": "0014a12e1aeb72333a7f4f1d7ac28ff622fbb0df7d3e",
      "scriptpubkey_asm": "OP_0 OP_PUSHBYTES_20 a12e1aeb72333a7f4f1d7ac28ff622fbb0df7d3e",
      "scriptpubkey_type": "v0_p2wpkh",
      "scriptpubkey_address": "bc1q5yhp46mjxva87nca0tpgla3zlwcd7lf7hhwwd7",
      "value": 53738
    }
  ],
  "size": 224,
  "weight": 566,
  "fee": 1939,
  "status": {
    "confirmed": true,
    "block_height": 834460,
    "block_hash": "00000000000000000000484a79b643b2524bbce82e5d8a442013fa5b8905ed98",
    "block_time": 1710307468
  },
  "hex": "02000000000101f3f85c428f5a1871b9531129b765983f42346614271b7d5afc31aef6bd25e0be0000000000ffffffff02d8cb01000000000017a9147d27c41c157c53b864041f6d4288d43e68a699c187ead1000000000000160014a12e1aeb72333a7f4f1d7ac28ff622fbb0df7d3e02483045022100e438eccaa5b9fb280e0603d48f32052292995708b757f373bafa063fc48f7a9102201be5154834c93e2c174df19733baec38c110094a8b2fad2322b61c3418bddae6012103263804be5beec48032b3e1a4f790fa53d87007ba056ea97c76d4b9fdb43c976e00000000"
}