{
  "txid": "65775d2f215148ed213fcc5587d35e09a9561563e7de65a08867e7da49245229",
  "version": 1,
  "locktime": 0,
  "vin": [
    {
      "txid": "b95631a7c26134b4945724c2b3710d05b2da752a1d4e7e8d7cd041386523d03f",
      "vout": 1,
      "prevout": {
        "scriptpubkey": "0014ee5950ff53143923eaefd0b1833244dc482905c5",
        "scriptpubkey_asm": "OP_0 OP_PUSHBYTES_20 ee5950ff53143923eaefd0b1833244dc482905c5",
        "scriptpubkey_type": "v0_p2wpkh",
        "scriptpubkey_address": "bc1qaev4pl6nzsuj86h06zccxvjym3yzjpw9nfv4h6",
        "value": 3935474
      },
      "scriptsig": "",
      "scriptsig_asm": "",
      "witness": [
        "304402203f037b45bc8b4fef586634a624b90f1001729dbfeff14430090f0e9f0d0a09820220171763ce225a2fe951357ec564ad19e9bc18b01ea9764d2485c5d43a215d5fa701",
        "03959c98b779166364d9d7ba5764630e2d9f9e69d57fb2ceea1f7754f138254b50"
      ],
      "is_coinbase": false,
      "sequence": 4294967295
    }
  ],
  "vout": [
    {
      "scriptpubkey": "00142628397637079b1a6fb699af9e93a4c484feca41",
      "scriptpubkey_asm": "OP_0 OP_PUSHBYTES_20 2628397637079b1a6fb699af9e93a4c484feca41",
      "scriptpubkey_type": "v0_p2wpkh",
      "scriptpubkey_address": "bc1qyc5rja3hq7d35maknxheayaycjz0ajjpzzhcgj",
      "value": 271800
    },
    {
      "scriptpubkey": "00148bfafde581a0258fa894b40ebefd3174031fe2e3",
      "scriptpubkey_asm": "OP_0 OP_PUSHBYTES_20 8bfafde581a0258fa894b40ebefd3174031fe2e3",
      "scriptpubkey_type": "v0_p2wpkh",
      "scriptpubkey_address": "bc1q30a0mevp5qjcl2y5ks8talf3wsp3lchrpxxyyx",
      "value": 3660879
    }
  ],
  "size": 222,
  "weight": 561,
  "fee": 2795,
  "status": {
    "confirmed": true,
    "block_height": 834638,
    "block_hash": "000000000000000000025f742c626208ac87e0b7d15054abb4a19ca2d735a54e",
    "block_time": 1710405325
  },
  "hex": "010000000001013fd023653841d07c8d7e4e1d2a75dab2050d71b3c2245794b43461c2a73156b90100000000ffffffff02b8250400000000001600142628397637079b1a6fb699af9e93a4c484feca414fdc3700000000001600148bfafde581a0258fa894b40ebefd3174031fe2e30247304402203f037b45bc8b4fef586634a624b90f1001729dbfeff14430090f0e9f0d0a09820220171763ce225a2fe951357ec564ad19e9bc18b01ea9764d2485c5d43a215d5fa7012103959c98b779166364d9d7ba5764630e2d9f9e69d57fb2ceea1f7754f138254b5000000000"
}