{
  "txid": "6587f7eb466f15a4ac51648375403c79d5b3a7948283273c12ffa30f16d40510",
  "version": 2,
  "locktime": 0,
  "vin": [
    {
      "txid": "641f7f12e63796372eee673e700dc87c4ddf45326a640e0747a85c5259e77345",
      "vout": 9,
      "prevout": {
        "scriptpubkey": "5120c154daa05c981662c892b75614c6892e3b0300fbf670b6077c54c86d134b33d7",
        "scriptpubkey_asm": "OP_PUSHNUM_1 OP_PUSHBYTES_32 c154daa05c981662c892b75614c6892e3b0300fbf670b6077c54c86d134b33d7",
        "scriptpubkey_type": "v1_p2tr",
        "scriptpubkey_address": "bc1pc92d4gzunqtx9jyjkatpf35f9casxq8m7ectvpmu2nyx6y6tx0tszqp7q6",
        "value": 109382
      },
      "scriptsig": "",
      "scriptsig_asm": "",
      "witness": [
        "7275c57c56052761dd0d83288819ee2628e561685f3de0493bef0783b5d70e09deb9f00adfc26067990bf59ddf273a7f379a7cb939f0643b0787ea9783188531"
      ],
      "is_coinbase": false,
      "sequence": 4294967293
    }
  ],
  "vout": [
    {
      "scriptpubkey": "51203d1ca9b0f5de2b6026071e3fb23ddf63dd630f93f6e17cc66f37f5315b15f212",
      "scriptpubkey_asm": "OP_PUSHNUM_1 OP_PUSHBYTES_32 3d1ca9b0f5de2b6026071e3fb23ddf63dd630f93f6e17cc66f37f5315b15f212",
      "scriptpubkey_type": "v1_p2tr",
      "scriptpubkey_address": "bc1p85w2nv84mc4kqfs8rclmy0wlv0wkxrun7mshe3n0xl6nzkc47gfq8cx34n",
      "value": 18360
    },
    {
      "scriptpubkey": "a9140231a59aa5b81c9a379b6e218da09a5baee2813e87",
      "scriptpubkey_asm": "OP_HASH160 OP_PUSHBYTES_20 0231a59aa5b81c9a379b6e218da09a5baee2813e OP_EQUAL",
      "scriptpubkey_type": "p2sh",
      "scriptpubkey_address": "31tckTH5yZuSN35FEhP9ufeJLtfMLPYjMZ",
      "value": 70200
    },
    {
      "scriptpubkey": "a914bac6519736144c7704e729b7ca98e047b8424ef487",
      "scriptpubkey_asm": "OP_HASH160 OP_PUSHBYTES_20 bac6519736144c7704e729b7ca98e047b8424ef4 OP_EQUAL",
      "scriptpubkey_type": "p2sh",
      "scriptpubkey_address": "3JibBeerFCN5NgxkUk5mjdMwwBYL3H6Kof",
      "value": 18197
    }
  ],
  "size": 226,
  "weight": 700,
  "fee": 2625,
  "status": {
    "confirmed": true,
    "block_height": 834460,
    "block_hash": "00000000000000000000484a79b643b2524bbce82e5d8a442013fa5b8905ed98",
    "block_time": 1710307468
  },
  "hex": "020000000001014573e759525ca847070e646a3245df4d7cc80d703e67ee2e379637e6127f1f640900000000fdffffff03b8470000000000002251203d1ca9b0f5de2b6026071e3fb23ddf63dd630f93f6e17cc66f37f5315b15f212381201000000000017a9140231a59aa5b81c9a379b6e218da09a5baee2813e87154700000000000017a914bac6519736144c7704e729b7ca98e047b8424ef48701407275c57c56052761dd0d83288819ee2628e561685f3de0493bef0783b5d70e09deb9f00adfc26067990bf59ddf273a7f379a7cb939f0643b0787ea978318853100000000"
}