{
  "txid": "658d15c61ff66366f8ffff306748a259dcb491a28c2900b1aee4f7c6227ad3c1",
  "version": 2,
  "locktime": 0,
  "vin": [
    {
      "txid": "b5719ef18ab55ae4305fe0063247d3405767d074be0918a9170cdebc6fd574dd",
      "vout": 0,
      "prevout": {
        "scriptpubkey": "512021ed88125cc41ddcd0ee7160bbe9cd9f75b8c847af0c9184126a1570be97ed13",
        "scriptpubkey_asm": "OP_PUSHNUM_1 OP_PUSHBYTES_32 21ed88125cc41ddcd0ee7160bbe9cd9f75b8c847af0c9184126a1570be97ed13",
        "scriptpubkey_type": "v1_p2tr",
        "scriptpubkey_address": "bc1py8kcsyjucswae58ww9sth6wdna6m3jz84uxfrpqjdg2hp05ha5fs25xhru",
        "value": 600
      },
      "scriptsig": "",
      "scriptsig_asm": "",
      "witness": [
        "a75563b917b072fc6a8f5825304ea08a98a8413edd4c11c1bc6c44c3c7fcf314b540100c6befcb5ef371bc8936f07077597cb1140c9abac5b42a6ddc46429bd101"
      ],
      "is_coinbase": false,
      "sequence": 4294967295
    },
    {
      "txid": "b5719ef18ab55ae4305fe0063247d3405767d074be0918a9170cdebc6fd574dd",
      "vout": 1,
      "prevout": {
        "scriptpubkey": "512021ed88125cc41ddcd0ee7160bbe9cd9f75b8c847af0c9184126a1570be97ed13",
        "scriptpubkey_asm": "OP_PUSHNUM_1 OP_PUSHBYTES_32 21ed88125cc41ddcd0ee7160bbe9cd9f75b8c847af0c9184126a1570be97ed13",
        "scriptpubkey_type": "v1_p2tr",
        "scriptpubkey_address": "bc1py8kcsyjucswae58ww9sth6wdna6m3jz84uxfrpqjdg2hp05ha5fs25xhru",
        "value": 600
      },
      "scriptsig": "",
      "scriptsig_asm": "",
      "witness": [
        "1a6726a27ec43baeb346628a13a8acffd4412f82d1db86f99d51e3482997aac3bda3da383658456798b8247f721f26401dc5fd923ac982f19df2a4672607f14e01"
      ],
      "is_coinbase": false,
      "sequence": 4294967295
    },
    {
      "txid": "cedb984ae7e3d2425549d81eaa24fd1503837d44fab36a95df121493947d5238",
      "vout": 2,
      "prevout": {
        "scriptpubkey": "5120e72ef158230987f0c084c5c2d02f9f2679c12c9f061e4dc91330dc8faee216ac",
        "scriptpubkey_asm": "OP_PUSHNUM_1 OP_PUSHBYTES_32 e72ef158230987f0c084c5c2d02f9f2679c12c9f061e4dc91330dc8faee216ac",
        "scriptpubkey_type": "v1_p2tr",
        "scriptpubkey_address": "bc1puuh0zkprpxrlpsyychpdqtulyeuuztylqc0ymjgnxrwglthzz6kqvtrwz6",
        "value": 546
      },
      "scriptsig": "",
      "scriptsig_asm": "",
      "witness": [
        "100cb0a65029826aced0eb6af76cdc09c71022a748f175fb320ce95f61a82b8e1f26a3d249badbf24f4c00320e5184ae021b7f04c8204b7cf7d890de84d30a8683"
      ],
      "is_coinbase": false,
      "sequence": 4294967295
    },
    {
      "txid": "b5719ef18ab55ae4305fe0063247d3405767d074be0918a9170cdebc6fd574dd",
      "vout": 2,
      "prevout": {
        "scriptpubkey": "512021ed88125cc41ddcd0ee7160bbe9cd9f75b8c847af0c9184126a1570be97ed13",
        "scriptpubkey_asm": "OP_PUSHNUM_1 OP_PUSHBYTES_32 21ed88125cc41ddcd0ee7160bbe9cd9f75b8c847af0c9184126a1570be97ed13",
        "scriptpubkey_type": "v1_p2tr",
        "scriptpubkey_address": "bc1py8kcsyjucswae58ww9sth6wdna6m3jz84uxfrpqjdg2hp05ha5fs25xhru",
        "value": 775845
      },
      "scriptsig": "",
      "scriptsig_asm": "",
      "witness": [
        "0b3995965ab66032e69fcf0b3ac74b4bfb5681afaff5bacc3ac7bd33aaa3b46300fff9b11e1346c3177e0f97c73f055b77329b62ee785305296a5194a9d8212c01"
      ],
      "is_coinbase": false,
      "sequence": 4294967295
    }
  ],
  "vout": [
    {
      "scriptpubkey": "512021ed88125cc41ddcd0ee7160bbe9cd9f75b8c847af0c9184126a1570be97ed13",
      "scriptpubkey_asm": "OP_PUSHNUM_1 OP_PUSHBYTES_32 21ed88125cc41ddcd0ee7160bbe9cd9f75b8c847af0c9184126a1570be97ed13",
      "scriptpubkey_type": "v1_p2tr",
      "scriptpubkey_address": "bc1py8kcsyjucswae58ww9sth6wdna6m3jz84uxfrpqjdg2hp05ha5fs25xhru",
      "value": 1200
    },
    {
      "scriptpubkey": "512021ed88125cc41ddcd0ee7160bbe9cd9f75b8c847af0c9184126a1570be97ed13",
      "scriptpubkey_asm": "OP_PUSHNUM_1 OP_PUSHBYTES_32 21ed88125cc41ddcd0ee7160bbe9cd9f75b8c847af0c9184126a1570be97ed13",
      "scriptpubkey_type": "v1_p2tr",
      "scriptpubkey_address": "bc1py8kcsyjucswae58ww9sth6wdna6m3jz84uxfrpqjdg2hp05ha5fs25xhru",
      "value": 546
    },
    {
      "scriptpubkey": "5120e72ef158230987f0c084c5c2d02f9f2679c12c9f061e4dc91330dc8faee216ac",
      "scriptpubkey_asm": "OP_PUSHNUM_1 OP_PUSHBYTES_32 e72ef158230987f0c084c5c2d02f9f2679c12c9f061e4dc91330dc8faee216ac",
      "scriptpubkey_type": "v1_p2tr",
      "scriptpubkey_address": "bc1puuh0zkprpxrlpsyychpdqtulyeuuztylqc0ymjgnxrwglthzz6kqvtrwz6",
      "value": 372000
    },
    {
      "scriptpubkey": "512021ed88125cc41ddcd0ee7160bbe9cd9f75b8c847af0c9184126a1570be97ed13",
      "scriptpubkey_asm": "OP_PUSHNUM_1 OP_PUSHBYTES_32 21ed88125cc41ddcd0ee7160bbe9cd9f75b8c847af0c9184126a1570be97ed13",
      "scriptpubkey_type": "v1_p2tr",
      "scriptpubkey_address": "bc1py8kcsyjucswae58ww9sth6wdna6m3jz84uxfrpqjdg2hp05ha5fs25xhru",
      "value": 600
    },
    {
      "scriptpubkey": "512021ed88125cc41ddcd0ee7160bbe9cd9f75b8c847af0c9184126a1570be97ed13",
      "scriptpubkey_asm": "OP_PUSHNUM_1 OP_PUSHBYTES_32 21ed88125cc41ddcd0ee7160bbe9cd9f75b8c847af0c9184126a1570be97ed13",
      "scriptpubkey_type": "v1_p2tr",
      "scriptpubkey_address": "bc1py8kcsyjucswae58ww9sth6wdna6m3jz84uxfrpqjdg2hp05ha5fs25xhru",
      "value": 600
    },
    {
      "scriptpubkey": "512021ed88125cc41ddcd0ee7160bbe9cd9f75b8c847af0c9184126a1570be97ed13",
      "scriptpubkey_asm": "OP_PUSHNUM_1 OP_PUSHBYTES_32 21ed88125cc41ddcd0ee7160bbe9cd9f75b8c847af0c9184126a1570be97ed13",
      "scriptpubkey_type": "v1_p2tr",
      "scriptpubkey_address": "bc1py8kcsyjucswae58ww9sth6wdna6m3jz84uxfrpqjdg2hp05ha5fs25xhru",
      "value": 395865
    }
  ],
  "size": 702,
  "weight": 1998,
  "fee": 6780,
  "status": {
    "confirmed": true,
    "block_height": 834460,
    "block_hash": "00000000000000000000484a79b643b2524bbce82e5d8a442013fa5b8905ed98",
    "block_time": 1710307468
  },
  "hex": "02000000000104dd74d56fbcde0c17a91809be74d0675740d3473206e05f30e45ab58af19e71b50000000000ffffffffdd74d56fbcde0c17a91809be74d0675740d3473206e05f30e45ab58af19e71b50100000000ffffffff38527d94931412df956ab3fa447d830315fd24aa1ed8495542d2e3e74a98dbce0200000000ffffffffdd74d56fbcde0c17a91809be74d0675740d3473206e05f30e45ab58af19e71b50200000000ffffffff06b00400000000000022512021ed88125cc41ddcd0ee7160bbe9cd9f75b8c847af0c9184126a1570be97ed13220200000000000022512021ed88125cc41ddcd0ee7160bbe9cd9f75b8c847af0c9184126a1570be97ed1320ad050000000000225120e72ef158230987f0c084c5c2d02f9f2679c12c9f061e4dc91330dc8faee216ac580200000000000022512021ed88125cc41ddcd0ee7160bbe9cd9f75b8c847af0c9184126a1570be97ed13580200000000000022512021ed88125cc41ddcd0ee7160bbe9cd9f75b8c847af0c9184126a1570be97ed13590a06000000000022512021ed88125cc41ddcd0ee7160bbe9cd9f75b8c847af0c9184126a1570be97ed130141a75563b917b072fc6a8f5825304ea08a98a8413edd4c11c1bc6c44c3c7fcf314b540100c6befcb5ef371bc8936f07077597cb1140c9abac5b42a6ddc46429bd10101411a6726a27ec43baeb346628a13a8acffd4412f82d1db86f99d51e3482997aac3bda3da383658456798b8247f721f26401dc5fd923ac982f19df2a4672607f14e010141100cb0a65029826aced0eb6af76cdc09c71022a748f175fb320ce95f61a82b8e1f26a3d249badbf24f4c00320e5184ae021b7f04c8204b7cf7d890de84d30a868301410b3995965ab66032e69fcf0b3ac74b4bfb5681afaff5bacc3ac7bd33aaa3b46300fff9b11e1346c3177e0f97c73f055b77329b62ee785305296a5194a9d8212c0100000000"
}