{
  "txid": "658f5832cb37d4ecf4a99ed412cc51cfda06a6a20f75acf5c8042f34471e42aa",
  "version": 2,
  "locktime": 834631,
  "vin": [
    {
      "txid": "8228168e8177d0b67b5ab70ed28854ad2b38cfbfc78732649ef035da717b9464",
      "vout": 0,
      "prevout": {
        "scriptpubkey": "001470146447eb41c865c54018d238bef52ca312d6e2",
        "scriptpubkey_asm": "OP_0 OP_PUSHBYTES_20 70146447eb41c865c54018d238bef52ca312d6e2",
        "scriptpubkey_type": "v0_p2wpkh",
        "scriptpubkey_address": "bc1qwq2xg3ltg8yxt32qrrfr30h49j3394hz658yza",
        "value": 153607
      },
      "scriptsig": "",
      "scriptsig_asm": "",
      "witness": [
        "30440220092a75b374c293eb25f3991793c598827981f933609a5dec67154884f9b3e1bd02203f2c364cf99538e14780874b8d44bb3816f59d563231d1fa78c5dc134bf83a3401",
        "0256f3380fdc1947499ad37a6510ff8b79a0297da6893aca45603cdd50323789e1"
      ],
      "is_coinbase": false,
      "sequence": 4294967293
    }
  ],
  "vout": [
    {
      "scriptpubkey": "0014292aba2699cbcdc48bab7ee316418bc818fb5dc8",
      "scriptpubkey_asm": "OP_0 OP_PUSHBYTES_20 292aba2699cbcdc48bab7ee316418bc818fb5dc8",
      "scriptpubkey_type": "v0_p2wpkh",
      "scriptpubkey_address": "bc1q9y4t5f5ee0xufzat0m33vsvteqv0khwgnw23qr",
      "value": 149152
    }
  ],
  "size": 191,
  "weight": 437,
  "fee": 4455,
  "status": {
    "confirmed": true,
    "block_height": 834638,
    "block_hash": "000000000000000000025f742c626208ac87e0b7d15054abb4a19ca2d735a54e",
    "block_time": 1710405325
  },
  "hex": "0200000000010164947b71da35f09e643287c7bfcf382bad5488d20eb75a7bb6d077818e1628820000000000fdffffff01a046020000000000160014292aba2699cbcdc48bab7ee316418bc818fb5dc8024730440220092a75b374c293eb25f3991793c598827981f933609a5dec67154884f9b3e1bd02203f2c364cf99538e14780874b8d44bb3816f59d563231d1fa78c5dc134bf83a3401210256f3380fdc1947499ad37a6510ff8b79a0297da6893aca45603cdd50323789e147bc0c00"
}