{
  "txid": "659b82bf51c32df260f3e3563d90fcbcb0098209af4d18020ca9e1a619ccc8c8",
  "version": 2,
  "locktime": 0,
  "vin": [
    {
      "txid": "e94fe8611b35caa09bc22bd45a9c11b60639ae91098d58df3c4fe637846f94c9",
      "vout": 0,
      "prevout": {
        "scriptpubkey": "51204bc2436bbaaeba72d5fbe885c8a441e53a4903584811728f1f4efe85afc3a8a9",
        "scriptpubkey_asm": "OP_PUSHNUM_1 OP_PUSHBYTES_32 4bc2436bbaaeba72d5fbe885c8a441e53a4903584811728f1f4efe85afc3a8a9",
        "scriptpubkey_type": "v1_p2tr",
        "scriptpubkey_address": "bc1pf0pyx6a646a8940mazzu3fzpu5ayjq6cfqgh9rclfmlgtt7r4z5san0j3m",
        "value": 255700
      },
      "scriptsig": "",
      "scriptsig_asm": "",
      "witness": [
        "d64ecd67825877ca38b1d99113e3727429cd60e106dbf494e9707af7bf32ce4643141cac7b723d4cdf0a587b229763fbbf1ec0c144b6d2287d9b9cf5c13697e2"
      ],
      "is_coinbase": false,
      "sequence": 0
    }
  ],
  "vout": [
    {
      "scriptpubkey": "5120b7f2e834352a83fc1a9dd32ffe1b247439da25c2088dd302e464707e94468c16",
      "scriptpubkey_asm": "OP_PUSHNUM_1 OP_PUSHBYTES_32 b7f2e834352a83fc1a9dd32ffe1b247439da25c2088dd302e464707e94468c16",
      "scriptpubkey_type": "v1_p2tr",
      "scriptpubkey_address": "bc1pklewsdp492plcx5a6vhluxeywsua5fwzpzxaxqhyv3c8a9zx3stqx2nh3a",
      "value": 1931
    },
    {
      "scriptpubkey": "5120d8b6fc04645c0b3d47e6875ff562627a62ca0814cbbe9451190cb9a8146176e6",
      "scriptpubkey_asm": "OP_PUSHNUM_1 OP_PUSHBYTES_32 d8b6fc04645c0b3d47e6875ff562627a62ca0814cbbe9451190cb9a8146176e6",
      "scriptpubkey_type": "v1_p2tr",
      "scriptpubkey_address": "bc1pmzm0cpryts9n63lxsa0l2cnz0f3v5zq5ewlfg5gepju6s9rpwmnqegy0cu",
      "value": 1931
    },
    {
      "scriptpubkey": "51201b3da80ea6a0c056050b63d0df75c65410b18c81d5c3095f808ba4267f634bf6",
      "scriptpubkey_asm": "OP_PUSHNUM_1 OP_PUSHBYTES_32 1b3da80ea6a0c056050b63d0df75c65410b18c81d5c3095f808ba4267f634bf6",
      "scriptpubkey_type": "v1_p2tr",
      "scriptpubkey_address": "bc1prv76sr4x5rq9vpgtv0gd7awx2sgtrryp6hpsjhuq3wjzvlmrf0mqth29jl",
      "value": 1931
    },
    {
      "scriptpubkey": "5120fb2ad7ee4eee5c7e2938c9b90d53bb430df3ed55765844a8e2e30e3b3f5e57b5",
      "scriptpubkey_asm": "OP_PUSHNUM_1 OP_PUSHBYTES_32 fb2ad7ee4eee5c7e2938c9b90d53bb430df3ed55765844a8e2e30e3b3f5e57b5",
      "scriptpubkey_type": "v1_p2tr",
      "scriptpubkey_address": "bc1plv4d0mjwaew8u2fcexus65amgvxl8m24wevyf28zuv8rk067276svw5cp4",
      "value": 1931
    },
    {
      "scriptpubkey": "5120c827896a5bcdba954834c6169284ed8df239862e94e411fb46bfe7a4842168c7",
      "scriptpubkey_asm": "OP_PUSHNUM_1 OP_PUSHBYTES_32 c827896a5bcdba954834c6169284ed8df239862e94e411fb46bfe7a4842168c7",
      "scriptpubkey_type": "v1_p2tr",
      "scriptpubkey_address": "bc1peqncj6jmekaf2jp5cctf9p8d3hernp3wjnjpr76xhln6fpppdrrsnzus7s",
      "value": 1931
    },
    {
      "scriptpubkey": "51209310eb3a7a4a520e8d5e4aadc78f8195610ca392a9cbfdc9a3b83c124161c768",
      "scriptpubkey_asm": "OP_PUSHNUM_1 OP_PUSHBYTES_32 9310eb3a7a4a520e8d5e4aadc78f8195610ca392a9cbfdc9a3b83c124161c768",
      "scriptpubkey_type": "v1_p2tr",
      "scriptpubkey_address": "bc1pjvgwkwn6fffqar27f2ku0rupj4sseguj489lmjdrhq7pystpca5qqrtn52",
      "value": 1931
    },
    {
      "scriptpubkey": "51201ffe06daa50dce12dc79f71886ed164c96038caf11b8c07e22c012c8e7066442",
      "scriptpubkey_asm": "OP_PUSHNUM_1 OP_PUSHBYTES_32 1ffe06daa50dce12dc79f71886ed164c96038caf11b8c07e22c012c8e7066442",
      "scriptpubkey_type": "v1_p2tr",
      "scriptpubkey_address": "bc1prllqdk49ph8p9hre7uvgdmgkfjtq8r90zxuvql3zcqfv3ecxv3pq9rm5zh",
      "value": 1931
    },
    {
      "scriptpubkey": "5120ec83083d0c48c865dde7afbad79f06c921e6c237f9c3336d4e69d210ded21e20",
      "scriptpubkey_asm": "OP_PUSHNUM_1 OP_PUSHBYTES_32 ec83083d0c48c865dde7afbad79f06c921e6c237f9c3336d4e69d210ded21e20",
      "scriptpubkey_type": "v1_p2tr",
      "scriptpubkey_address": "bc1pajpss0gvfryxth0847ad08cxeys7ds3hl8pnxm2wd8fpphkjrcsqkct52n",
      "value": 1931
    },
    {
      "scriptpubkey": "5120f54b047b6ce79c1970a5d291c8dd10c712860c43b4e251a60b56f5d5cb9cf157",
      "scriptpubkey_asm": "OP_PUSHNUM_1 OP_PUSHBYTES_32 f54b047b6ce79c1970a5d291c8dd10c712860c43b4e251a60b56f5d5cb9cf157",
      "scriptpubkey_type": "v1_p2tr",
      "scriptpubkey_address": "bc1p749sg7mvu7wpju9962gu3hgscufgvrzrkn39rfst2m6atjuu79tsmsrzn9",
      "value": 1931
    },
    {
      "scriptpubkey": "5120d0f2c6164dbe3ccabfa026c066d0d88547e93192c4ee48c3ad0cc51d67bae9dc",
      "scriptpubkey_asm": "OP_PUSHNUM_1 OP_PUSHBYTES_32 d0f2c6164dbe3ccabfa026c066d0d88547e93192c4ee48c3ad0cc51d67bae9dc",
      "scriptpubkey_type": "v1_p2tr",
      "scriptpubkey_address": "bc1p6revv9jdhc7v40aqymqxd5xcs4r7jvvjcnhy3sadpnz36ea6a8wqysam2m",
      "value": 1931
    },
    {
      "scriptpubkey": "512094c49397b8d68ca711db93b975be2ca4e7796bada816de62642abe69c72605ca",
      "scriptpubkey_asm": "OP_PUSHNUM_1 OP_PUSHBYTES_32 94c49397b8d68ca711db93b975be2ca4e7796bada816de62642abe69c72605ca",
      "scriptpubkey_type": "v1_p2tr",
      "scriptpubkey_address": "bc1pjnzf89ac66x2wywmjwuht03v5nnhj6ad4qtducny92lxn3exqh9qadlat0",
      "value": 1931
    },
    {
      "scriptpubkey": "5120dbedbd331181a2220cf5234fe0f8c43b487bae7a4511a92e3df591b89003de44",
      "scriptpubkey_asm": "OP_PUSHNUM_1 OP_PUSHBYTES_32 dbedbd331181a2220cf5234fe0f8c43b487bae7a4511a92e3df591b89003de44",
      "scriptpubkey_type": "v1_p2tr",
      "scriptpubkey_address": "bc1pm0km6vc3sx3zyr84yd87p7xy8dy8htn6g5g6jt3a7kgm3yqrmezqp6eedn",
      "value": 1931
    },
    {
      "scriptpubkey": "5120120f3b4b8232c96f35a0e98468c8853f8477fdc3f939eb818a9f20298c450a94",
      "scriptpubkey_asm": "OP_PUSHNUM_1 OP_PUSHBYTES_32 120f3b4b8232c96f35a0e98468c8853f8477fdc3f939eb818a9f20298c450a94",
      "scriptpubkey_type": "v1_p2tr",
      "scriptpubkey_address": "bc1pzg8nkjuzxtyk7ddqaxzx3jy987z80lwrlyu7hqv2nusznrz9p22qxdxlhh",
      "value": 1931
    },
    {
      "scriptpubkey": "51203f3f49d71211d31f18799edb5dc41acbbe27c1a93a50684cbdd9da6c4b199b35",
      "scriptpubkey_asm": "OP_PUSHNUM_1 OP_PUSHBYTES_32 3f3f49d71211d31f18799edb5dc41acbbe27c1a93a50684cbdd9da6c4b199b35",
      "scriptpubkey_type": "v1_p2tr",
      "scriptpubkey_address": "bc1p8ul5n4cjz8f37xrenmd4m3q6ewlz0sdf8fgxsn9am8dxcjcenv6sekqudx",
      "value": 1931
    },
    {
      "scriptpubkey": "512068c7e19d453d4e758f06953f3fa2d752bbdf541804d80ca2b19b4f1144c26741",
      "scriptpubkey_asm": "OP_PUSHNUM_1 OP_PUSHBYTES_32 68c7e19d453d4e758f06953f3fa2d752bbdf541804d80ca2b19b4f1144c26741",
      "scriptpubkey_type": "v1_p2tr",
      "scriptpubkey_address": "bc1pdrr7r8298488trcxj5lnlgkh22aa74qcqnvqeg43nd83z3xzvaqsh8jcay",
      "value": 1931
    },
    {
      "scriptpubkey": "51207b8fdfa7750886cd937198f3449be4b378fa719559df8362ad8b82fdc60a4a3e",
      "scriptpubkey_asm": "OP_PUSHNUM_1 OP_PUSHBYTES_32 7b8fdfa7750886cd937198f3449be4b378fa719559df8362ad8b82fdc60a4a3e",
      "scriptpubkey_type": "v1_p2tr",
      "scriptpubkey_address": "bc1p0w8alfm4pzrvmym3nre5fxlykdu05uv4t80cxc4d3wp0m3s2fglqhwncj9",
      "value": 1931
    },
    {
      "scriptpubkey": "5120c3ffeabf23d7abb716ff50dcef959685c0b79683b780ede1d7f3f53746470684",
      "scriptpubkey_asm": "OP_PUSHNUM_1 OP_PUSHBYTES_32 c3ffeabf23d7abb716ff50dcef959685c0b79683b780ede1d7f3f53746470684",
      "scriptpubkey_type": "v1_p2tr",
      "scriptpubkey_address": "bc1pc0l740er674mw9hl2rwwl9vkshqt095rk7qwmcwh706nw3j8q6zql7eptr",
      "value": 1931
    },
    {
      "scriptpubkey": "5120c1a49f3f6194721a543c17a57236a445c727deeb0e4c2977fd8757b59a2687db",
      "scriptpubkey_asm": "OP_PUSHNUM_1 OP_PUSHBYTES_32 c1a49f3f6194721a543c17a57236a445c727deeb0e4c2977fd8757b59a2687db",
      "scriptpubkey_type": "v1_p2tr",
      "scriptpubkey_address": "bc1pcxjf70mpj3ep54puz7jhyd4yghrj0hhtpexzjalasatmtx3xslds0cgp9z",
      "value": 1931
    },
    {
      "scriptpubkey": "512000dcd51d628c61cf9d296801214f36a5d9f9b5e8ad2f973533f26ea209d49564",
      "scriptpubkey_asm": "OP_PUSHNUM_1 OP_PUSHBYTES_32 00dcd51d628c61cf9d296801214f36a5d9f9b5e8ad2f973533f26ea209d49564",
      "scriptpubkey_type": "v1_p2tr",
      "scriptpubkey_address": "bc1pqrwd28tz33sul8ffdqqjznek5hvlnd0g45hewdfn7fh2yzw5j4jqtr647g",
      "value": 1931
    },
    {
      "scriptpubkey": "51200946db238a88d476b0f629e71ce5c6d51656c2e8aae4eb3aeef068ea60c43c96",
      "scriptpubkey_asm": "OP_PUSHNUM_1 OP_PUSHBYTES_32 0946db238a88d476b0f629e71ce5c6d51656c2e8aae4eb3aeef068ea60c43c96",
      "scriptpubkey_type": "v1_p2tr",
      "scriptpubkey_address": "bc1pp9rdkgu23r28dv8k98n3eewx65t9dshg4tjwkwhw7p5w5cxy8jtqv8w30x",
      "value": 1931
    },
    {
      "scriptpubkey": "51206f78e905a48abac5c080978d1e9b5d024864b722166e0ac073bd4b97d4cddf69",
      "scriptpubkey_asm": "OP_PUSHNUM_1 OP_PUSHBYTES_32 6f78e905a48abac5c080978d1e9b5d024864b722166e0ac073bd4b97d4cddf69",
      "scriptpubkey_type": "v1_p2tr",
      "scriptpubkey_address": "bc1pdauwjpdy32avtsyqj7x3ax6aqfyxfdezzehq4srnh49e04xdma5sg9yydj",
      "value": 1931
    },
    {
      "scriptpubkey": "512033b10c8a8206d16d95d5d2d398f344d430e0961683e7b1be096a58829e0de20e",
      "scriptpubkey_asm": "OP_PUSHNUM_1 OP_PUSHBYTES_32 33b10c8a8206d16d95d5d2d398f344d430e0961683e7b1be096a58829e0de20e",
      "scriptpubkey_type": "v1_p2tr",
      "scriptpubkey_address": "bc1pxwcsez5zqmgkm9w46tfe3u6y6scwp9sks0nmr0sfdfvg98sdug8qk9c36c",
      "value": 1931
    },
    {
      "scriptpubkey": "512013a7f6146563e36f2085b711e1b5202c6ba7269ca865c060d7090f56f2acd4e2",
      "scriptpubkey_asm": "OP_PUSHNUM_1 OP_PUSHBYTES_32 13a7f6146563e36f2085b711e1b5202c6ba7269ca865c060d7090f56f2acd4e2",
      "scriptpubkey_type": "v1_p2tr",
      "scriptpubkey_address": "bc1pzwnlv9r9v03k7gy9kug7rdfq9346wf5u4pjuqcxhpy84du4v6n3qamz8cn",
      "value": 1931
    },
    {
      "scriptpubkey": "51201edfd72d9d25b38adeab304f8c57251a0db8e14f158c78eb3644f3818e095eaa",
      "scriptpubkey_asm": "OP_PUSHNUM_1 OP_PUSHBYTES_32 1edfd72d9d25b38adeab304f8c57251a0db8e14f158c78eb3644f3818e095eaa",
      "scriptpubkey_type": "v1_p2tr",
      "scriptpubkey_address": "bc1prm0awtvaykec4h4txp8cc4e9rgxm3c20zkx836ekgnecrrsft64qp0uc4u",
      "value": 1931
    },
    {
      "scriptpubkey": "512089e206dfb834e87a9e28084baa24cbd5c851671bc1551fb19b229e5e69a7d774",
      "scriptpubkey_asm": "OP_PUSHNUM_1 OP_PUSHBYTES_32 89e206dfb834e87a9e28084baa24cbd5c851671bc1551fb19b229e5e69a7d774",
      "scriptpubkey_type": "v1_p2tr",
      "scriptpubkey_address": "bc1p383qdhacxn58483gpp965fxt6hy9zecmc923lvvmy209u6d86a6qqgw898",
      "value": 1931
    },
    {
      "scriptpubkey": "5120bd66ab86dd493aec2dad2a0ba2fea3247ce6892855a54f6443b27ab7500948a0",
      "scriptpubkey_asm": "OP_PUSHNUM_1 OP_PUSHBYTES_32 bd66ab86dd493aec2dad2a0ba2fea3247ce6892855a54f6443b27ab7500948a0",
      "scriptpubkey_type": "v1_p2tr",
      "scriptpubkey_address": "bc1ph4n2hpkafyawctdd9g969l4ry37wdzfg2kj57ezrkfatw5qffzsquvy0g5",
      "value": 1931
    },
    {
      "scriptpubkey": "51203b10270208383c9a1c20ebe8b472fb45e0eb26aa7bae0ba6bc9b48cf4edef9ff",
      "scriptpubkey_asm": "OP_PUSHNUM_1 OP_PUSHBYTES_32 3b10270208383c9a1c20ebe8b472fb45e0eb26aa7bae0ba6bc9b48cf4edef9ff",
      "scriptpubkey_type": "v1_p2tr",
      "scriptpubkey_address": "bc1p8vgzwqsg8q7f58pqa05tguhmghswkf420whqhf4undyv7nk7l8lscnwl8m",
      "value": 1931
    },
    {
      "scriptpubkey": "51205871eb1df51042a43ec909688afb3daacd5ea796c1518fe313d7d9804c069d73",
      "scriptpubkey_asm": "OP_PUSHNUM_1 OP_PUSHBYTES_32 5871eb1df51042a43ec909688afb3daacd5ea796c1518fe313d7d9804c069d73",
      "scriptpubkey_type": "v1_p2tr",
      "scriptpubkey_address": "bc1ptpc7k804zpp2g0kfp95g47ea4tx4afukc9gclccn6lvcqnqxn4esjlpr9t",
      "value": 1931
    },
    {
      "scriptpubkey": "5120ceaaae2140451e79eec76ce720c2ad6f2c255cd54be0885fc3378b01ec0622dd",
      "scriptpubkey_asm": "OP_PUSHNUM_1 OP_PUSHBYTES_32 ceaaae2140451e79eec76ce720c2ad6f2c255cd54be0885fc3378b01ec0622dd",
      "scriptpubkey_type": "v1_p2tr",
      "scriptpubkey_address": "bc1pe642ug2qg508nmk8dnnjps4ddukz2hx4f0sgsh7rx79srmqxytws0utgrf",
      "value": 1931
    },
    {
      "scriptpubkey": "512062d85ec87e9eadbd1d8e0df3dc2f02b0fd5b6618a2b3e89e2dc08b672d54cd9c",
      "scriptpubkey_asm": "OP_PUSHNUM_1 OP_PUSHBYTES_32 62d85ec87e9eadbd1d8e0df3dc2f02b0fd5b6618a2b3e89e2dc08b672d54cd9c",
      "scriptpubkey_type": "v1_p2tr",
      "scriptpubkey_address": "bc1pvtv9ajr7n6km68vwpheactczkr74kesc52e7383dcz9kwt25ekwqtauzcu",
      "value": 1931
    },
    {
      "scriptpubkey": "5120a6855ff8dbe5d6da4e47c50e45d4cd56f6341eb6022cb14dd7d5d0b67f8b76c8",
      "scriptpubkey_asm": "OP_PUSHNUM_1 OP_PUSHBYTES_32 a6855ff8dbe5d6da4e47c50e45d4cd56f6341eb6022cb14dd7d5d0b67f8b76c8",
      "scriptpubkey_type": "v1_p2tr",
      "scriptpubkey_address": "bc1p56z4l7xmuhtd5nj8c58yt4xd2mmrg84kqgktznwh6hgtvlutwmyqcgmwdq",
      "value": 1931
    },
    {
      "scriptpubkey": "5120f5eed1698d9107b68b530b1965cf7ca03291756d944575981cdca6db7954f22c",
      "scriptpubkey_asm": "OP_PUSHNUM_1 OP_PUSHBYTES_32 f5eed1698d9107b68b530b1965cf7ca03291756d944575981cdca6db7954f22c",
      "scriptpubkey_type": "v1_p2tr",
      "scriptpubkey_address": "bc1p7hhdz6vdjyrmdz6npvvktnmu5qefzatdj3zhtxqumjndk7257gkqyaypvg",
      "value": 1931
    },
    {
      "scriptpubkey": "5120ee5a86a8664d3666a98cdd151a999dcc28cced6ee31163211f4f16ada309657c",
      "scriptpubkey_asm": "OP_PUSHNUM_1 OP_PUSHBYTES_32 ee5a86a8664d3666a98cdd151a999dcc28cced6ee31163211f4f16ada309657c",
      "scriptpubkey_type": "v1_p2tr",
      "scriptpubkey_address": "bc1paedgd2rxf5mxd2vvm5234xvaes5vemtwuvgkxgglfut2mgcfv47qnegy8f",
      "value": 1931
    },
    {
      "scriptpubkey": "5120baeabeea3c740c9fe4aea6123ffeb58e4f4ddc5f931707fdd8e7c68e2d018324",
      "scriptpubkey_asm": "OP_PUSHNUM_1 OP_PUSHBYTES_32 baeabeea3c740c9fe4aea6123ffeb58e4f4ddc5f931707fdd8e7c68e2d018324",
      "scriptpubkey_type": "v1_p2tr",
      "scriptpubkey_address": "bc1pht4ta63uwsxfle9w5cfrll443e85mhzljvts0lwculrgutgpsvjqnwqq7t",
      "value": 1931
    },
    {
      "scriptpubkey": "5120054f291d5edbb38e610551d0d9be5c99eefb71a711ccbff2ead33a5c2fae6cc4",
      "scriptpubkey_asm": "OP_PUSHNUM_1 OP_PUSHBYTES_32 054f291d5edbb38e610551d0d9be5c99eefb71a711ccbff2ead33a5c2fae6cc4",
      "scriptpubkey_type": "v1_p2tr",
      "scriptpubkey_address": "bc1pq48jj827mwecucg928gdn0jun8h0kud8z8xtluh26va9ctawdnzqtqfqfe",
      "value": 1931
    },
    {
      "scriptpubkey": "51204d9b41d1063266cc4d1a29ecb0679cfe49c195d053b5372b7f8f09a979b6f7d1",
      "scriptpubkey_asm": "OP_PUSHNUM_1 OP_PUSHBYTES_32 4d9b41d1063266cc4d1a29ecb0679cfe49c195d053b5372b7f8f09a979b6f7d1",
      "scriptpubkey_type": "v1_p2tr",
      "scriptpubkey_address": "bc1pfkd5r5gxxfnvcng698ktqeuuleyur9ws2w6nw2ml3uy6j7dk7lgs39nwql",
      "value": 1931
    },
    {
      "scriptpubkey": "51203843fc6cea9abc25662b31b3ba1694cf1be3be8d650e305a443eabc06adde70f",
      "scriptpubkey_asm": "OP_PUSHNUM_1 OP_PUSHBYTES_32 3843fc6cea9abc25662b31b3ba1694cf1be3be8d650e305a443eabc06adde70f",
      "scriptpubkey_type": "v1_p2tr",
      "scriptpubkey_address": "bc1p8pplcm82n27z2e3txxem5955eud7805dv58rqkjy864uq6kauu8s89jsyp",
      "value": 1931
    },
    {
      "scriptpubkey": "5120889395063ff8cfe8d9b5eb2b49f0684fe1d6c30ace26e60d53989808577e02ea",
      "scriptpubkey_asm": "OP_PUSHNUM_1 OP_PUSHBYTES_32 889395063ff8cfe8d9b5eb2b49f0684fe1d6c30ace26e60d53989808577e02ea",
      "scriptpubkey_type": "v1_p2tr",
      "scriptpubkey_address": "bc1p3zfe2p3llr873kd4av45nurgflsadsc2ecnwvr2nnzvqs4m7qt4q8hq963",
      "value": 1931
    },
    {
      "scriptpubkey": "5120bfef4131b521ea07af7ca77830a12f14271ae9f54a5128e5cf0599338488ca6c",
      "scriptpubkey_asm": "OP_PUSHNUM_1 OP_PUSHBYTES_32 bfef4131b521ea07af7ca77830a12f14271ae9f54a5128e5cf0599338488ca6c",
      "scriptpubkey_type": "v1_p2tr",
      "scriptpubkey_address": "bc1phlh5zvd4y84q0tmu5aurpgf0zsn34604ffgj3ew0qkvn8pygefkqyhhrf2",
      "value": 1931
    },
    {
      "scriptpubkey": "51200caa4cee4943014c80bf96377a7a860cf8f5692bdc435a27a2c08138866a3f23",
      "scriptpubkey_asm": "OP_PUSHNUM_1 OP_PUSHBYTES_32 0caa4cee4943014c80bf96377a7a860cf8f5692bdc435a27a2c08138866a3f23",
      "scriptpubkey_type": "v1_p2tr",
      "scriptpubkey_address": "bc1ppj4yemjfgvq5eq9ljcmh575xpnu026ftm3p45fazczqn3pn28u3sywg869",
      "value": 1931
    },
    {
      "scriptpubkey": "5120d865b73ce5adae1ad506b3f7e8fd3358e8cb4b9c3478e3d4c97350ca8d7c8aa4",
      "scriptpubkey_asm": "OP_PUSHNUM_1 OP_PUSHBYTES_32 d865b73ce5adae1ad506b3f7e8fd3358e8cb4b9c3478e3d4c97350ca8d7c8aa4",
      "scriptpubkey_type": "v1_p2tr",
      "scriptpubkey_address": "bc1pmpjmw0894khp44gxk0m73lfntr5vkjuux3uw84xfwdgv4rtu32jqh023y5",
      "value": 1931
    },
    {
      "scriptpubkey": "51202edab17be4b298af5f2f34b8bb5a3a1c1d7bd87bb3d3dc93bd36215cf7e59b43",
      "scriptpubkey_asm": "OP_PUSHNUM_1 OP_PUSHBYTES_32 2edab17be4b298af5f2f34b8bb5a3a1c1d7bd87bb3d3dc93bd36215cf7e59b43",
      "scriptpubkey_type": "v1_p2tr",
      "scriptpubkey_address": "bc1p9mdtz7lyk2v27he0xjutkk36rswhhkrmk0faeyaaxcs4eal9ndpswtmn3j",
      "value": 1931
    },
    {
      "scriptpubkey": "51205a2020a858aab5ca64c852ce022aa31acca05fafe3fb4e3d416117795e1a0f15",
      "scriptpubkey_asm": "OP_PUSHNUM_1 OP_PUSHBYTES_32 5a2020a858aab5ca64c852ce022aa31acca05fafe3fb4e3d416117795e1a0f15",
      "scriptpubkey_type": "v1_p2tr",
      "scriptpubkey_address": "bc1ptgszp2zc426u5exg2t8qy24rrtx2qha0u0a5u02pvythjhs6pu2s700pra",
      "value": 1931
    },
    {
      "scriptpubkey": "51208ae1d5798306ad078aebfba3f6c1919ce4f4479499d15390c03cedb8bb5d8ac2",
      "scriptpubkey_asm": "OP_PUSHNUM_1 OP_PUSHBYTES_32 8ae1d5798306ad078aebfba3f6c1919ce4f4479499d15390c03cedb8bb5d8ac2",
      "scriptpubkey_type": "v1_p2tr",
      "scriptpubkey_address": "bc1p3tsa27vrq6ks0zhtlw3ldsv3nnj0g3u5n8g48yxq8nkm3w6a3tpqe60m6y",
      "value": 1931
    },
    {
      "scriptpubkey": "51203ee0a200aa47594b2b6c551cdedc9ce69a88228a9c23c7616120cc7e1e2f674f",
      "scriptpubkey_asm": "OP_PUSHNUM_1 OP_PUSHBYTES_32 3ee0a200aa47594b2b6c551cdedc9ce69a88228a9c23c7616120cc7e1e2f674f",
      "scriptpubkey_type": "v1_p2tr",
      "scriptpubkey_address": "bc1p8ms2yq92gav5k2mv25wdahyuu6dgsg52ns3uwctpyrx8u830va8spzxmc3",
      "value": 1931
    },
    {
      "scriptpubkey": "5120b6723d41c8baab30093514b0855c1c1eb4c19d9361562f4ca29954c3d61b2b70",
      "scriptpubkey_asm": "OP_PUSHNUM_1 OP_PUSHBYTES_32 b6723d41c8baab30093514b0855c1c1eb4c19d9361562f4ca29954c3d61b2b70",
      "scriptpubkey_type": "v1_p2tr",
      "scriptpubkey_address": "bc1pkeer6swgh24nqzf4zjcg2hqur66vr8vnv9tz7n9zn92v84sm9dcqjn26f0",
      "value": 1931
    },
    {
      "scriptpubkey": "512053b4ebb7f5e1ecef0c82e081494d9fa964acbece492627e5da6ff3ce4f63261f",
      "scriptpubkey_asm": "OP_PUSHNUM_1 OP_PUSHBYTES_32 53b4ebb7f5e1ecef0c82e081494d9fa964acbece492627e5da6ff3ce4f63261f",
      "scriptpubkey_type": "v1_p2tr",
      "scriptpubkey_address": "bc1p2w6whdl4u8kw7ryzuzq5jnvl49j2e0kwfynz0ew6dleuunmryc0sw5935p",
      "value": 1931
    },
    {
      "scriptpubkey": "5120ec63b85afac6ca8574783b54d1e86eab0708e94600e17abd4037d4c9f2e880ca",
      "scriptpubkey_asm": "OP_PUSHNUM_1 OP_PUSHBYTES_32 ec63b85afac6ca8574783b54d1e86eab0708e94600e17abd4037d4c9f2e880ca",
      "scriptpubkey_type": "v1_p2tr",
      "scriptpubkey_address": "bc1pa33mskh6cm9g2arc8d2dr6rw4vrs362xqrsh402qxl2vnuhgsr9qm3ulzc",
      "value": 1931
    },
    {
      "scriptpubkey": "5120af9e689eb2fd548ca21d8c80556b401e418a4535cf68b3dcc4107e01fe1a8930",
      "scriptpubkey_asm": "OP_PUSHNUM_1 OP_PUSHBYTES_32 af9e689eb2fd548ca21d8c80556b401e418a4535cf68b3dcc4107e01fe1a8930",
      "scriptpubkey_type": "v1_p2tr",
      "scriptpubkey_address": "bc1p470x384jl42gegsa3jq9266qreqc53f4ea5t8hxyzplqrls63ycq4wy4g0",
      "value": 1931
    },
    {
      "scriptpubkey": "51209dca5a1594ed9188769d437c7b7c7db1da9af35f4486d5f22057939862b22063",
      "scriptpubkey_asm": "OP_PUSHNUM_1 OP_PUSHBYTES_32 9dca5a1594ed9188769d437c7b7c7db1da9af35f4486d5f22057939862b22063",
      "scriptpubkey_type": "v1_p2tr",
      "scriptpubkey_address": "bc1pnh9959v5akgcsa5agd78klrak8df4u6lgjrdtu3q27fesc4jyp3suf6082",
      "value": 1931
    },
    {
      "scriptpubkey": "51204b4c9fc0a077ebe0c02c0026665061fd1ee33923cb0f80eabb0fabef3972fd83",
      "scriptpubkey_asm": "OP_PUSHNUM_1 OP_PUSHBYTES_32 4b4c9fc0a077ebe0c02c0026665061fd1ee33923cb0f80eabb0fabef3972fd83",
      "scriptpubkey_type": "v1_p2tr",
      "scriptpubkey_address": "bc1pfdxfls9qwl47pspvqqnxv5rpl50wxwfrev8cp64mp7477wtjlkpszn8zad",
      "value": 1931
    },
    {
      "scriptpubkey": "51202e81f0649b47e7d77ef36f97344f9d11603ff23c955f63debc66142dd569af3a",
      "scriptpubkey_asm": "OP_PUSHNUM_1 OP_PUSHBYTES_32 2e81f0649b47e7d77ef36f97344f9d11603ff23c955f63debc66142dd569af3a",
      "scriptpubkey_type": "v1_p2tr",
      "scriptpubkey_address": "bc1p96qlqeymglnawlhnd7tngnuaz9srlu3uj40k8h4uvc2zm4tf4uaq2wzmgt",
      "value": 1931
    },
    {
      "scriptpubkey": "5120f9987efdb04a390a6ebd39bbab3f020d1254b7166586ad10ae9a611b3c7a0963",
      "scriptpubkey_asm": "OP_PUSHNUM_1 OP_PUSHBYTES_32 f9987efdb04a390a6ebd39bbab3f020d1254b7166586ad10ae9a611b3c7a0963",
      "scriptpubkey_type": "v1_p2tr",
      "scriptpubkey_address": "bc1plxv8aldsfgus5m4a8xa6k0czp5f9fdckvkr26y9wnfs3k0r6p93sxudpkh",
      "value": 1931
    },
    {
      "scriptpubkey": "5120e7b7bffdfe463716aed4c725fd7e66cba2a2da34c5f34f8be4f75c4fc3dde0dd",
      "scriptpubkey_asm": "OP_PUSHNUM_1 OP_PUSHBYTES_32 e7b7bffdfe463716aed4c725fd7e66cba2a2da34c5f34f8be4f75c4fc3dde0dd",
      "scriptpubkey_type": "v1_p2tr",
      "scriptpubkey_address": "bc1pu7mmll07gcm3dtk5cujl6lnxew329k35che5lzly7awyls7aurwsm88k73",
      "value": 1931
    },
    {
      "scriptpubkey": "5120abb94b0aca7b642ab5d8ea41f2ff8fc09da60ec6afdda3adc6f0a4236b465a91",
      "scriptpubkey_asm": "OP_PUSHNUM_1 OP_PUSHBYTES_32 abb94b0aca7b642ab5d8ea41f2ff8fc09da60ec6afdda3adc6f0a4236b465a91",
      "scriptpubkey_type": "v1_p2tr",
      "scriptpubkey_address": "bc1p4wu5kzk20djz4dwcafql9lu0czw6vrkx4lw68twx7zjzx66xt2gsxya7jz",
      "value": 1931
    },
    {
      "scriptpubkey": "5120af73983631f9fd54c4106d386385db0a9ee7d1325bbcfc5f2db7b9f7eeae0709",
      "scriptpubkey_asm": "OP_PUSHNUM_1 OP_PUSHBYTES_32 af73983631f9fd54c4106d386385db0a9ee7d1325bbcfc5f2db7b9f7eeae0709",
      "scriptpubkey_type": "v1_p2tr",
      "scriptpubkey_address": "bc1p4aeesd33l874f3qsd5ux8pwmp20w05fjtw70chedk7ul0m4wquysx2te6p",
      "value": 1931
    },
    {
      "scriptpubkey": "512029891943870eddccf41ee0c146e0b57c291368bc71c1b00fe0eb22039b1e41d8",
      "scriptpubkey_asm": "OP_PUSHNUM_1 OP_PUSHBYTES_32 29891943870eddccf41ee0c146e0b57c291368bc71c1b00fe0eb22039b1e41d8",
      "scriptpubkey_type": "v1_p2tr",
      "scriptpubkey_address": "bc1p9xy3jsu8pmwueaq7urq5dc940s53x69uw8qmqrlqav3q8xc7g8vqgfhr0f",
      "value": 1931
    },
    {
      "scriptpubkey": "5120e7311f789dd939d16a149d507ed8b03d2e2e7f8cd1c7c0a5e2e6edb7067e7f55",
      "scriptpubkey_asm": "OP_PUSHNUM_1 OP_PUSHBYTES_32 e7311f789dd939d16a149d507ed8b03d2e2e7f8cd1c7c0a5e2e6edb7067e7f55",
      "scriptpubkey_type": "v1_p2tr",
      "scriptpubkey_address": "bc1puuc377yamyuaz6s5n4g8ak9s85hzuluv68rupf0zumkmwpn70a2safg32h",
      "value": 1931
    },
    {
      "scriptpubkey": "512031225847b24e86f8eada40d6d2e124964fc147fcba170b79ba70fd2501757fc3",
      "scriptpubkey_asm": "OP_PUSHNUM_1 OP_PUSHBYTES_32 31225847b24e86f8eada40d6d2e124964fc147fcba170b79ba70fd2501757fc3",
      "scriptpubkey_type": "v1_p2tr",
      "scriptpubkey_address": "bc1pxy39s3ajf6r036k6grtd9cfyje8uz3luhgtsk7d6wr7j2qt40lps0y0q5c",
      "value": 1931
    },
    {
      "scriptpubkey": "5120f57ca2f1fb8941e03f3640dd240f11922a36b64788d7fbb33fc5e359dfae9c8d",
      "scriptpubkey_asm": "OP_PUSHNUM_1 OP_PUSHBYTES_32 f57ca2f1fb8941e03f3640dd240f11922a36b64788d7fbb33fc5e359dfae9c8d",
      "scriptpubkey_type": "v1_p2tr",
      "scriptpubkey_address": "bc1p74729u0m39q7q0ekgrwjgrc3jg4rddj83rtlhvelch34nhawnjxssng4nw",
      "value": 1931
    },
    {
      "scriptpubkey": "5120206ade30adfd58efa30809487e9d19f4f1175c790f55c1482a7fe378a9909891",
      "scriptpubkey_asm": "OP_PUSHNUM_1 OP_PUSHBYTES_32 206ade30adfd58efa30809487e9d19f4f1175c790f55c1482a7fe378a9909891",
      "scriptpubkey_type": "v1_p2tr",
      "scriptpubkey_address": "bc1pyp4duv9dl4vwlgcgp9y8a8ge7nc3whrepa2uzjp20l3h32vsnzgshqg4fv",
      "value": 1931
    },
    {
      "scriptpubkey": "512097a3325d482f8d53da318a3a1fb053faf4db16ba0dd1e679d3c9e51ebf13c49f",
      "scriptpubkey_asm": "OP_PUSHNUM_1 OP_PUSHBYTES_32 97a3325d482f8d53da318a3a1fb053faf4db16ba0dd1e679d3c9e51ebf13c49f",
      "scriptpubkey_type": "v1_p2tr",
      "scriptpubkey_address": "bc1pj73nyh2g97x48k333gaplvznlt6dk946phg7v7wne8j3a0cncj0shs2rf9",
      "value": 1931
    },
    {
      "scriptpubkey": "5120b7eb853e18646f891980c3011e8fc2c15cb1f976e57978c5670f0c8fbb521ee9",
      "scriptpubkey_asm": "OP_PUSHNUM_1 OP_PUSHBYTES_32 b7eb853e18646f891980c3011e8fc2c15cb1f976e57978c5670f0c8fbb521ee9",
      "scriptpubkey_type": "v1_p2tr",
      "scriptpubkey_address": "bc1pkl4c20scv3hcjxvqcvq3ar7zc9wtr7tku4uh33t8puxglw6jrm5scqsh3l",
      "value": 1931
    },
    {
      "scriptpubkey": "5120f503fdc655ce3f8f665dbcb0d9beb03d00161ca3d45368e38bf65d32578e2400",
      "scriptpubkey_asm": "OP_PUSHNUM_1 OP_PUSHBYTES_32 f503fdc655ce3f8f665dbcb0d9beb03d00161ca3d45368e38bf65d32578e2400",
      "scriptpubkey_type": "v1_p2tr",
      "scriptpubkey_address": "bc1p75plm3j4eclc7ejahjcdn04s85qpv89r63fk3cut7ewny4uwysqqww88xy",
      "value": 1931
    },
    {
      "scriptpubkey": "51200be28a33e6b3fb4dd0fda88914308d64241898d711553fd0d108dd937977f45f",
      "scriptpubkey_asm": "OP_PUSHNUM_1 OP_PUSHBYTES_32 0be28a33e6b3fb4dd0fda88914308d64241898d711553fd0d108dd937977f45f",
      "scriptpubkey_type": "v1_p2tr",
      "scriptpubkey_address": "bc1pp03g5vlxk0a5m58a4zy3gvydvsjp3xxhz92nl5x3prwex7th730scgljat",
      "value": 1931
    },
    {
      "scriptpubkey": "512046fab01b5af4135ad9d73f5924272290e47b886b52d01365df9faf3c03a52ff3",
      "scriptpubkey_asm": "OP_PUSHNUM_1 OP_PUSHBYTES_32 46fab01b5af4135ad9d73f5924272290e47b886b52d01365df9faf3c03a52ff3",
      "scriptpubkey_type": "v1_p2tr",
      "scriptpubkey_address": "bc1pgmatqx667sf44kwh8avjgfezjrj8hzrt2tgpxewln7hncqa99lesyfsn87",
      "value": 1931
    },
    {
      "scriptpubkey": "51204838f736a1c9b3b19ee8fe337554adfdf27338a642e5e556861d39ce678f44f5",
      "scriptpubkey_asm": "OP_PUSHNUM_1 OP_PUSHBYTES_32 4838f736a1c9b3b19ee8fe337554adfdf27338a642e5e556861d39ce678f44f5",
      "scriptpubkey_type": "v1_p2tr",
      "scriptpubkey_address": "bc1pfqu0wd4pexemr8hglceh249dlhe8xw9xgtj7245xr5uuueu0gn6slt6fnv",
      "value": 1931
    },
    {
      "scriptpubkey": "51209d93ca68a3db6091e1a5adc85b064031d0c780a5171c6f3339bab3b76bc4843c",
      "scriptpubkey_asm": "OP_PUSHNUM_1 OP_PUSHBYTES_32 9d93ca68a3db6091e1a5adc85b064031d0c780a5171c6f3339bab3b76bc4843c",
      "scriptpubkey_type": "v1_p2tr",
      "scriptpubkey_address": "bc1pnkfu569rmdsfrcd94hy9kpjqx8gv0q99zuwx7veeh2emw67yss7qg8ujvs",
      "value": 1931
    },
    {
      "scriptpubkey": "51208b95de8ab53524a02f72efcb5e675e95ba19e812b116394d413ecfac92503c7a",
      "scriptpubkey_asm": "OP_PUSHNUM_1 OP_PUSHBYTES_32 8b95de8ab53524a02f72efcb5e675e95ba19e812b116394d413ecfac92503c7a",
      "scriptpubkey_type": "v1_p2tr",
      "scriptpubkey_address": "bc1p3w2aaz44x5j2qtmjal94ue67jkapn6qjkytrjn2p8m86eyjs83aqmyfn9y",
      "value": 1931
    },
    {
      "scriptpubkey": "51203cb9fb471882efd1e1988735ddc5ff93856ada156d64e96784785264341b616e",
      "scriptpubkey_asm": "OP_PUSHNUM_1 OP_PUSHBYTES_32 3cb9fb471882efd1e1988735ddc5ff93856ada156d64e96784785264341b616e",
      "scriptpubkey_type": "v1_p2tr",
      "scriptpubkey_address": "bc1p8julk3ccstharcvcsu6am30ljwzk4ks4d4jwjeuy0pfxgdqmv9hqs5kmld",
      "value": 1931
    },
    {
      "scriptpubkey": "5120ccd20cefef25c9f69065310861600e4317dd7a2539c90ae52f862e6f58042f5c",
      "scriptpubkey_asm": "OP_PUSHNUM_1 OP_PUSHBYTES_32 ccd20cefef25c9f69065310861600e4317dd7a2539c90ae52f862e6f58042f5c",
      "scriptpubkey_type": "v1_p2tr",
      "scriptpubkey_address": "bc1penfqeml0yhyldyr9xyyxzcqwgvta673988ys4ef0schx7kqy9awqapkytp",
      "value": 1931
    },
    {
      "scriptpubkey": "512080b3ba47e2378959d4938898cf689b80f79627fe2540fdc5b595c7d53bf3c0c7",
      "scriptpubkey_asm": "OP_PUSHNUM_1 OP_PUSHBYTES_32 80b3ba47e2378959d4938898cf689b80f79627fe2540fdc5b595c7d53bf3c0c7",
      "scriptpubkey_type": "v1_p2tr",
      "scriptpubkey_address": "bc1pszem53lzx7y4n4yn3zvv76ymsrmevfl7y4q0m3d4jhra2wlncrrsujtgl2",
      "value": 1931
    },
    {
      "scriptpubkey": "51206ce9e3f404adf26347f4795d8142430f057d4758bfd057fbbd51526809871a62",
      "scriptpubkey_asm": "OP_PUSHNUM_1 OP_PUSHBYTES_32 6ce9e3f404adf26347f4795d8142430f057d4758bfd057fbbd51526809871a62",
      "scriptpubkey_type": "v1_p2tr",
      "scriptpubkey_address": "bc1pdn578aqy4hexx3l509wczsjrpuzh636chlg907aa29fxszv8rf3qf3sctf",
      "value": 1931
    },
    {
      "scriptpubkey": "51203eab5f0dfae2afad6ef00aafaf2626b4a35e0d2a1c8624a5f0daec1e7ecc321e",
      "scriptpubkey_asm": "OP_PUSHNUM_1 OP_PUSHBYTES_32 3eab5f0dfae2afad6ef00aafaf2626b4a35e0d2a1c8624a5f0daec1e7ecc321e",
      "scriptpubkey_type": "v1_p2tr",
      "scriptpubkey_address": "bc1p86447r06u2h66mhsp2h67f3xkj34urf2rjrzff0smtkpulkvxg0qr58df4",
      "value": 1931
    },
    {
      "scriptpubkey": "512099d6d4f13d9f705310a07f4ae0d1b610a3c95dc9d908645bed147eb5f44df508",
      "scriptpubkey_asm": "OP_PUSHNUM_1 OP_PUSHBYTES_32 99d6d4f13d9f705310a07f4ae0d1b610a3c95dc9d908645bed147eb5f44df508",
      "scriptpubkey_type": "v1_p2tr",
      "scriptpubkey_address": "bc1pn8tdfufanac9xy9q0a9wp5dkzz3ujhwfmyyxgkldz3lttazd75yquyht8q",
      "value": 1931
    },
    {
      "scriptpubkey": "5120b13ec20cf7ffcb62e8604d0376b2a3f88ce56475c087c944a7035e618a734cda",
      "scriptpubkey_asm": "OP_PUSHNUM_1 OP_PUSHBYTES_32 b13ec20cf7ffcb62e8604d0376b2a3f88ce56475c087c944a7035e618a734cda",
      "scriptpubkey_type": "v1_p2tr",
      "scriptpubkey_address": "bc1pkylvyr8hll9k96rqf5phdv4rlzxw2er4czruj398qd0xrznnfndq6dd4h2",
      "value": 1931
    },
    {
      "scriptpubkey": "5120a789dd5c7894a14fb0acfc24c4f0b04c54b6e5d53acc4d7f7bebba0a6f640344",
      "scriptpubkey_asm": "OP_PUSHNUM_1 OP_PUSHBYTES_32 a789dd5c7894a14fb0acfc24c4f0b04c54b6e5d53acc4d7f7bebba0a6f640344",
      "scriptpubkey_type": "v1_p2tr",
      "scriptpubkey_address": "bc1p57ya6hrcjjs5lv9vlsjvfu9sf32tdew48txy6lmmawaq5mmyqdzqlqnp9k",
      "value": 1931
    },
    {
      "scriptpubkey": "5120c6760a3db81e96d0a9f94a5ad51f602c8a8b33fc6a3ecde962067a04423ba044",
      "scriptpubkey_asm": "OP_PUSHNUM_1 OP_PUSHBYTES_32 c6760a3db81e96d0a9f94a5ad51f602c8a8b33fc6a3ecde962067a04423ba044",
      "scriptpubkey_type": "v1_p2tr",
      "scriptpubkey_address": "bc1pcemq50dcr6tdp20effdd28mq9j9gkvludglvm6tzqeaqgs3m5pzqgwglzx",
      "value": 1931
    },
    {
      "scriptpubkey": "5120e06c07890c4338bd19bee277685a160474af2e23e366a5f5fd8a92cf34698ac3",
      "scriptpubkey_asm": "OP_PUSHNUM_1 OP_PUSHBYTES_32 e06c07890c4338bd19bee277685a160474af2e23e366a5f5fd8a92cf34698ac3",
      "scriptpubkey_type": "v1_p2tr",
      "scriptpubkey_address": "bc1pupkq0zgvgvut6xd7ufmkskskq3627t3rudn2ta0a32fv7drf3tps82zn0s",
      "value": 1931
    },
    {
      "scriptpubkey": "5120e7b6c1ddfbedd4cba5625a9f52366f0fafc0b899d4e63fdf49fbdffcc3bfafdc",
      "scriptpubkey_asm": "OP_PUSHNUM_1 OP_PUSHBYTES_32 e7b6c1ddfbedd4cba5625a9f52366f0fafc0b899d4e63fdf49fbdffcc3bfafdc",
      "scriptpubkey_type": "v1_p2tr",
      "scriptpubkey_address": "bc1pu7mvrh0mah2vhftzt204ydn0p7hupwye6nnrlh6fl00lesal4lwqdm55tc",
      "value": 1931
    },
    {
      "scriptpubkey": "5120e4a6c21ed6b76b51e008f0ba2e3ca53086d625f2735a8cd7080377a220ec0e9e",
      "scriptpubkey_asm": "OP_PUSHNUM_1 OP_PUSHBYTES_32 e4a6c21ed6b76b51e008f0ba2e3ca53086d625f2735a8cd7080377a220ec0e9e",
      "scriptpubkey_type": "v1_p2tr",
      "scriptpubkey_address": "bc1pujnvy8kkka44rcqg7zazu099xzrdvf0jwddge4cgqdm6yg8vp60qmy8x9f",
      "value": 1931
    },
    {
      "scriptpubkey": "5120e7d0b2239376d31b340133efa754b09fa7c8bd4863e564cf939db45d4745a19e",
      "scriptpubkey_asm": "OP_PUSHNUM_1 OP_PUSHBYTES_32 e7d0b2239376d31b340133efa754b09fa7c8bd4863e564cf939db45d4745a19e",
      "scriptpubkey_type": "v1_p2tr",
      "scriptpubkey_address": "bc1pulgtygunwmf3kdqpx0h6w49sn7nu302gv0jkfnunnk6963695x0q4fadmc",
      "value": 1931
    },
    {
      "scriptpubkey": "5120def758f7f4e834b61b4045217e451cb0ed94a54d067ca9eef53dba7c89de901e",
      "scriptpubkey_asm": "OP_PUSHNUM_1 OP_PUSHBYTES_32 def758f7f4e834b61b4045217e451cb0ed94a54d067ca9eef53dba7c89de901e",
      "scriptpubkey_type": "v1_p2tr",
      "scriptpubkey_address": "bc1pmmm43al5aq6tvx6qg5shu3gukrkeff2dqe72nmh48ka8ezw7jq0q38dszz",
      "value": 1931
    },
    {
      "scriptpubkey": "5120e07b02ec6bd6872b9be85716aa9ec735367a1befcf83a478f2558bc6c6b669cc",
      "scriptpubkey_asm": "OP_PUSHNUM_1 OP_PUSHBYTES_32 e07b02ec6bd6872b9be85716aa9ec735367a1befcf83a478f2558bc6c6b669cc",
      "scriptpubkey_type": "v1_p2tr",
      "scriptpubkey_address": "bc1pupas9mrt66rjhxlg2ut248k8x5m85xl0e7p6g78j2k9ud34kd8xquljvkr",
      "value": 1931
    },
    {
      "scriptpubkey": "51202af09971182996032feffbf8972c0893de1c8baed1c8a210a3f4dc3eaa3d42cc",
      "scriptpubkey_asm": "OP_PUSHNUM_1 OP_PUSHBYTES_32 2af09971182996032feffbf8972c0893de1c8baed1c8a210a3f4dc3eaa3d42cc",
      "scriptpubkey_type": "v1_p2tr",
      "scriptpubkey_address": "bc1p9tcfjugc9xtqxtl0l0ufwtqgj00pezaw68y2yy9r7nwra23agtxqptttw3",
      "value": 1931
    },
    {
      "scriptpubkey": "51201646b4b281ee7bc0347dbbfbb81d577d46239b4f62e4a6a7913d5ad7c5c1e282",
      "scriptpubkey_asm": "OP_PUSHNUM_1 OP_PUSHBYTES_32 1646b4b281ee7bc0347dbbfbb81d577d46239b4f62e4a6a7913d5ad7c5c1e282",
      "scriptpubkey_type": "v1_p2tr",
      "scriptpubkey_address": "bc1pzertfv5paeauqdrah0ams82h04rz8x60vtj2dfu384dd03wpu2pq4p2e78",
      "value": 1931
    },
    {
      "scriptpubkey": "5120b3d97e2be9e4423d1d68f60e40e7fd69e0646f939a9fb5a8cd39e41189672bfa",
      "scriptpubkey_asm": "OP_PUSHNUM_1 OP_PUSHBYTES_32 b3d97e2be9e4423d1d68f60e40e7fd69e0646f939a9fb5a8cd39e41189672bfa",
      "scriptpubkey_type": "v1_p2tr",
      "scriptpubkey_address": "bc1pk0vhu2lfu3pr68tg7c8ypelad8sxgmunn20mt2xd88jprzt890aqjqujfq",
      "value": 1931
    },
    {
      "scriptpubkey": "5120017dec311560d990a01353f564d22d9304f52944412dd07a846db65f9386dca0",
      "scriptpubkey_asm": "OP_PUSHNUM_1 OP_PUSHBYTES_32 017dec311560d990a01353f564d22d9304f52944412dd07a846db65f9386dca0",
      "scriptpubkey_type": "v1_p2tr",
      "scriptpubkey_address": "bc1pq977cvg4vrvepgqn206kf53djvz0222ygykaq75ydkm9lyuxmjsqk93s0p",
      "value": 1931
    },
    {
      "scriptpubkey": "5120a3343e136975ca5c64dccc5b2bf73940daab6765e2371b05b05b4277e4fb342d",
      "scriptpubkey_asm": "OP_PUSHNUM_1 OP_PUSHBYTES_32 a3343e136975ca5c64dccc5b2bf73940daab6765e2371b05b05b4277e4fb342d",
      "scriptpubkey_type": "v1_p2tr",
      "scriptpubkey_address": "bc1p5v6ruymfwh99cexue3djhaeegrd2kem9ugm3kpdstdp80e8mxskszaztga",
      "value": 1931
    },
    {
      "scriptpubkey": "51208babfe85e279daac9ef631547cc229b10ec227cc19494d8e2d54ba9cee9e2242",
      "scriptpubkey_asm": "OP_PUSHNUM_1 OP_PUSHBYTES_32 8babfe85e279daac9ef631547cc229b10ec227cc19494d8e2d54ba9cee9e2242",
      "scriptpubkey_type": "v1_p2tr",
      "scriptpubkey_address": "bc1p3w4lap0z08d2e8hkx928es3fky8vyf7vr9y5mr3d2jafem57yfpq5pxmew",
      "value": 1931
    },
    {
      "scriptpubkey": "5120fa62a98e4137e282f96bb0af5b84a54615735e3b2275ec2d5a120158eae535b2",
      "scriptpubkey_asm": "OP_PUSHNUM_1 OP_PUSHBYTES_32 fa62a98e4137e282f96bb0af5b84a54615735e3b2275ec2d5a120158eae535b2",
      "scriptpubkey_type": "v1_p2tr",
      "scriptpubkey_address": "bc1plf32nrjpxl3g97ttkzh4hp99gc2hxh3myf67ct26zgq436h9xkeqp9urfz",
      "value": 1931
    },
    {
      "scriptpubkey": "5120a4303e0c6d2ae070e46242c5d4fd709a4129483110afca861c7baf5b09003f5a",
      "scriptpubkey_asm": "OP_PUSHNUM_1 OP_PUSHBYTES_32 a4303e0c6d2ae070e46242c5d4fd709a4129483110afca861c7baf5b09003f5a",
      "scriptpubkey_type": "v1_p2tr",
      "scriptpubkey_address": "bc1p5scrurrd9ts8perzgtzafltsnfqjjjp3zzhu4psu0wh4kzgq8adqy9xj5l",
      "value": 1931
    },
    {
      "scriptpubkey": "5120b7825338f2df17856f8993ee510dfc1c8a7cb73875ed43ca1521c83569ea0442",
      "scriptpubkey_asm": "OP_PUSHNUM_1 OP_PUSHBYTES_32 b7825338f2df17856f8993ee510dfc1c8a7cb73875ed43ca1521c83569ea0442",
      "scriptpubkey_type": "v1_p2tr",
      "scriptpubkey_address": "bc1pk7p9xw8jmutc2mufj0h9zr0urj98edecwhk58js4y8yr2602q3pqh0g2pd",
      "value": 1931
    },
    {
      "scriptpubkey": "512054895162ea230653b755b3a1f03d14b1a5ab46245845f9ccb92a3425ff14f401",
      "scriptpubkey_asm": "OP_PUSHNUM_1 OP_PUSHBYTES_32 54895162ea230653b755b3a1f03d14b1a5ab46245845f9ccb92a3425ff14f401",
      "scriptpubkey_type": "v1_p2tr",
      "scriptpubkey_address": "bc1p2jy4zch2yvr98d64kwslq0g5kxj6k33ytpzlnn9e9g6ztlc57sqsal3w6a",
      "value": 1931
    },
    {
      "scriptpubkey": "51207d5b8b17c817046ccc9bc3916f41eb995b86687d5d17a376fe4ba3df899705b4",
      "scriptpubkey_asm": "OP_PUSHNUM_1 OP_PUSHBYTES_32 7d5b8b17c817046ccc9bc3916f41eb995b86687d5d17a376fe4ba3df899705b4",
      "scriptpubkey_type": "v1_p2tr",
      "scriptpubkey_address": "bc1p04dck97gzuzxenymcwgk7s0tn9dcv6rat5t6xah7fw3alzvhqk6qknzzeu",
      "value": 1931
    },
    {
      "scriptpubkey": "51203455331d5dca7523f65a3522fa920d24548fffc4222e69286a746f73b97e45ce",
      "scriptpubkey_asm": "OP_PUSHNUM_1 OP_PUSHBYTES_32 3455331d5dca7523f65a3522fa920d24548fffc4222e69286a746f73b97e45ce",
      "scriptpubkey_type": "v1_p2tr",
      "scriptpubkey_address": "bc1px32nx82aef6j8aj6x5304ysdy32gll7yyghxj2r2w3hh8wt7gh8q7tc4jq",
      "value": 1931
    },
    {
      "scriptpubkey": "51201c2d360c4d24a233e72e97074b27c2d37d93bce0ff6ef62a8612d0e5ba41ff17",
      "scriptpubkey_asm": "OP_PUSHNUM_1 OP_PUSHBYTES_32 1c2d360c4d24a233e72e97074b27c2d37d93bce0ff6ef62a8612d0e5ba41ff17",
      "scriptpubkey_type": "v1_p2tr",
      "scriptpubkey_address": "bc1prsknvrzdyj3r8eewjur5kf7z6d7e808qlah0v25xztgwtwjplutsrp04zz",
      "value": 1931
    },
    {
      "scriptpubkey": "51208b8b7147770ca786df777681cb31078f8196a708cbfc691eb2aeda7ebc3260a8",
      "scriptpubkey_asm": "OP_PUSHNUM_1 OP_PUSHBYTES_32 8b8b7147770ca786df777681cb31078f8196a708cbfc691eb2aeda7ebc3260a8",
      "scriptpubkey_type": "v1_p2tr",
      "scriptpubkey_address": "bc1p3w9hz3mhpjncdhmhw6qukvg837qedfcge07xj84j4md8a0pjvz5qaffaws",
      "value": 1931
    },
    {
      "scriptpubkey": "51204b0461cab75ed8166527f5275109242f76ad650788c1a587085644a36b2ac71e",
      "scriptpubkey_asm": "OP_PUSHNUM_1 OP_PUSHBYTES_32 4b0461cab75ed8166527f5275109242f76ad650788c1a587085644a36b2ac71e",
      "scriptpubkey_type": "v1_p2tr",
      "scriptpubkey_address": "bc1pfvzxrj4htmvpvef875n4zzfy9am26eg83rq6tpcg2ez2x6e2cu0q5vvelq",
      "value": 1931
    },
    {
      "scriptpubkey": "51203801512ae97da9fd592d08f759cfc903c53ec49d2b112a064253108d751972dc",
      "scriptpubkey_asm": "OP_PUSHNUM_1 OP_PUSHBYTES_32 3801512ae97da9fd592d08f759cfc903c53ec49d2b112a064253108d751972dc",
      "scriptpubkey_type": "v1_p2tr",
      "scriptpubkey_address": "bc1p8qq4z2hf0k5l6kfdprm4nn7fq0zna3ya9vgj5pjz2vgg6agewtwqljsgzd",
      "value": 1931
    },
    {
      "scriptpubkey": "00141de72fabad809343fbc8fb13c44a0ecbd5f9f33d",
      "scriptpubkey_asm": "OP_0 OP_PUSHBYTES_20 1de72fabad809343fbc8fb13c44a0ecbd5f9f33d",
      "scriptpubkey_type": "v0_p2wpkh",
      "scriptpubkey_address": "bc1qrhnjl2adszf5877glvfugjswe02lnueaaepe20",
      "value": 9000
    }
  ],
  "size": 4450,
  "weight": 17596,
  "fee": 53600,
  "status": {
    "confirmed": true,
    "block_height": 834460,
    "block_hash": "00000000000000000000484a79b643b2524bbce82e5d8a442013fa5b8905ed98",
    "block_time": 1710307468
  },
  "hex": "02000000000101c9946f8437e64f3cdf588d0991ae3906b6119c5ad42bc29ba0ca351b61e84fe9000000000000000000658b07000000000000225120b7f2e834352a83fc1a9dd32ffe1b247439da25c2088dd302e464707e94468c168b07000000000000225120d8b6fc04645c0b3d47e6875ff562627a62ca0814cbbe9451190cb9a8146176e68b070000000000002251201b3da80ea6a0c056050b63d0df75c65410b18c81d5c3095f808ba4267f634bf68b07000000000000225120fb2ad7ee4eee5c7e2938c9b90d53bb430df3ed55765844a8e2e30e3b3f5e57b58b07000000000000225120c827896a5bcdba954834c6169284ed8df239862e94e411fb46bfe7a4842168c78b070000000000002251209310eb3a7a4a520e8d5e4aadc78f8195610ca392a9cbfdc9a3b83c124161c7688b070000000000002251201ffe06daa50dce12dc79f71886ed164c96038caf11b8c07e22c012c8e70664428b07000000000000225120ec83083d0c48c865dde7afbad79f06c921e6c237f9c3336d4e69d210ded21e208b07000000000000225120f54b047b6ce79c1970a5d291c8dd10c712860c43b4e251a60b56f5d5cb9cf1578b07000000000000225120d0f2c6164dbe3ccabfa026c066d0d88547e93192c4ee48c3ad0cc51d67bae9dc8b0700000000000022512094c49397b8d68ca711db93b975be2ca4e7796bada816de62642abe69c72605ca8b07000000000000225120dbedbd331181a2220cf5234fe0f8c43b487bae7a4511a92e3df591b89003de448b07000000000000225120120f3b4b8232c96f35a0e98468c8853f8477fdc3f939eb818a9f20298c450a948b070000000000002251203f3f49d71211d31f18799edb5dc41acbbe27c1a93a50684cbdd9da6c4b199b358b0700000000000022512068c7e19d453d4e758f06953f3fa2d752bbdf541804d80ca2b19b4f1144c267418b070000000000002251207b8fdfa7750886cd937198f3449be4b378fa719559df8362ad8b82fdc60a4a3e8b07000000000000225120c3ffeabf23d7abb716ff50dcef959685c0b79683b780ede1d7f3f537464706848b07000000000000225120c1a49f3f6194721a543c17a57236a445c727deeb0e4c2977fd8757b59a2687db8b0700000000000022512000dcd51d628c61cf9d296801214f36a5d9f9b5e8ad2f973533f26ea209d495648b070000000000002251200946db238a88d476b0f629e71ce5c6d51656c2e8aae4eb3aeef068ea60c43c968b070000000000002251206f78e905a48abac5c080978d1e9b5d024864b722166e0ac073bd4b97d4cddf698b0700000000000022512033b10c8a8206d16d95d5d2d398f344d430e0961683e7b1be096a58829e0de20e8b0700000000000022512013a7f6146563e36f2085b711e1b5202c6ba7269ca865c060d7090f56f2acd4e28b070000000000002251201edfd72d9d25b38adeab304f8c57251a0db8e14f158c78eb3644f3818e095eaa8b0700000000000022512089e206dfb834e87a9e28084baa24cbd5c851671bc1551fb19b229e5e69a7d7748b07000000000000225120bd66ab86dd493aec2dad2a0ba2fea3247ce6892855a54f6443b27ab7500948a08b070000000000002251203b10270208383c9a1c20ebe8b472fb45e0eb26aa7bae0ba6bc9b48cf4edef9ff8b070000000000002251205871eb1df51042a43ec909688afb3daacd5ea796c1518fe313d7d9804c069d738b07000000000000225120ceaaae2140451e79eec76ce720c2ad6f2c255cd54be0885fc3378b01ec0622dd8b0700000000000022512062d85ec87e9eadbd1d8e0df3dc2f02b0fd5b6618a2b3e89e2dc08b672d54cd9c8b07000000000000225120a6855ff8dbe5d6da4e47c50e45d4cd56f6341eb6022cb14dd7d5d0b67f8b76c88b07000000000000225120f5eed1698d9107b68b530b1965cf7ca03291756d944575981cdca6db7954f22c8b07000000000000225120ee5a86a8664d3666a98cdd151a999dcc28cced6ee31163211f4f16ada309657c8b07000000000000225120baeabeea3c740c9fe4aea6123ffeb58e4f4ddc5f931707fdd8e7c68e2d0183248b07000000000000225120054f291d5edbb38e610551d0d9be5c99eefb71a711ccbff2ead33a5c2fae6cc48b070000000000002251204d9b41d1063266cc4d1a29ecb0679cfe49c195d053b5372b7f8f09a979b6f7d18b070000000000002251203843fc6cea9abc25662b31b3ba1694cf1be3be8d650e305a443eabc06adde70f8b07000000000000225120889395063ff8cfe8d9b5eb2b49f0684fe1d6c30ace26e60d53989808577e02ea8b07000000000000225120bfef4131b521ea07af7ca77830a12f14271ae9f54a5128e5cf0599338488ca6c8b070000000000002251200caa4cee4943014c80bf96377a7a860cf8f5692bdc435a27a2c08138866a3f238b07000000000000225120d865b73ce5adae1ad506b3f7e8fd3358e8cb4b9c3478e3d4c97350ca8d7c8aa48b070000000000002251202edab17be4b298af5f2f34b8bb5a3a1c1d7bd87bb3d3dc93bd36215cf7e59b438b070000000000002251205a2020a858aab5ca64c852ce022aa31acca05fafe3fb4e3d416117795e1a0f158b070000000000002251208ae1d5798306ad078aebfba3f6c1919ce4f4479499d15390c03cedb8bb5d8ac28b070000000000002251203ee0a200aa47594b2b6c551cdedc9ce69a88228a9c23c7616120cc7e1e2f674f8b07000000000000225120b6723d41c8baab30093514b0855c1c1eb4c19d9361562f4ca29954c3d61b2b708b0700000000000022512053b4ebb7f5e1ecef0c82e081494d9fa964acbece492627e5da6ff3ce4f63261f8b07000000000000225120ec63b85afac6ca8574783b54d1e86eab0708e94600e17abd4037d4c9f2e880ca8b07000000000000225120af9e689eb2fd548ca21d8c80556b401e418a4535cf68b3dcc4107e01fe1a89308b070000000000002251209dca5a1594ed9188769d437c7b7c7db1da9af35f4486d5f22057939862b220638b070000000000002251204b4c9fc0a077ebe0c02c0026665061fd1ee33923cb0f80eabb0fabef3972fd838b070000000000002251202e81f0649b47e7d77ef36f97344f9d11603ff23c955f63debc66142dd569af3a8b07000000000000225120f9987efdb04a390a6ebd39bbab3f020d1254b7166586ad10ae9a611b3c7a09638b07000000000000225120e7b7bffdfe463716aed4c725fd7e66cba2a2da34c5f34f8be4f75c4fc3dde0dd8b07000000000000225120abb94b0aca7b642ab5d8ea41f2ff8fc09da60ec6afdda3adc6f0a4236b465a918b07000000000000225120af73983631f9fd54c4106d386385db0a9ee7d1325bbcfc5f2db7b9f7eeae07098b0700000000000022512029891943870eddccf41ee0c146e0b57c291368bc71c1b00fe0eb22039b1e41d88b07000000000000225120e7311f789dd939d16a149d507ed8b03d2e2e7f8cd1c7c0a5e2e6edb7067e7f558b0700000000000022512031225847b24e86f8eada40d6d2e124964fc147fcba170b79ba70fd2501757fc38b07000000000000225120f57ca2f1fb8941e03f3640dd240f11922a36b64788d7fbb33fc5e359dfae9c8d8b07000000000000225120206ade30adfd58efa30809487e9d19f4f1175c790f55c1482a7fe378a99098918b0700000000000022512097a3325d482f8d53da318a3a1fb053faf4db16ba0dd1e679d3c9e51ebf13c49f8b07000000000000225120b7eb853e18646f891980c3011e8fc2c15cb1f976e57978c5670f0c8fbb521ee98b07000000000000225120f503fdc655ce3f8f665dbcb0d9beb03d00161ca3d45368e38bf65d32578e24008b070000000000002251200be28a33e6b3fb4dd0fda88914308d64241898d711553fd0d108dd937977f45f8b0700000000000022512046fab01b5af4135ad9d73f5924272290e47b886b52d01365df9faf3c03a52ff38b070000000000002251204838f736a1c9b3b19ee8fe337554adfdf27338a642e5e556861d39ce678f44f58b070000000000002251209d93ca68a3db6091e1a5adc85b064031d0c780a5171c6f3339bab3b76bc4843c8b070000000000002251208b95de8ab53524a02f72efcb5e675e95ba19e812b116394d413ecfac92503c7a8b070000000000002251203cb9fb471882efd1e1988735ddc5ff93856ada156d64e96784785264341b616e8b07000000000000225120ccd20cefef25c9f69065310861600e4317dd7a2539c90ae52f862e6f58042f5c8b0700000000000022512080b3ba47e2378959d4938898cf689b80f79627fe2540fdc5b595c7d53bf3c0c78b070000000000002251206ce9e3f404adf26347f4795d8142430f057d4758bfd057fbbd51526809871a628b070000000000002251203eab5f0dfae2afad6ef00aafaf2626b4a35e0d2a1c8624a5f0daec1e7ecc321e8b0700000000000022512099d6d4f13d9f705310a07f4ae0d1b610a3c95dc9d908645bed147eb5f44df5088b07000000000000225120b13ec20cf7ffcb62e8604d0376b2a3f88ce56475c087c944a7035e618a734cda8b07000000000000225120a789dd5c7894a14fb0acfc24c4f0b04c54b6e5d53acc4d7f7bebba0a6f6403448b07000000000000225120c6760a3db81e96d0a9f94a5ad51f602c8a8b33fc6a3ecde962067a04423ba0448b07000000000000225120e06c07890c4338bd19bee277685a160474af2e23e366a5f5fd8a92cf34698ac38b07000000000000225120e7b6c1ddfbedd4cba5625a9f52366f0fafc0b899d4e63fdf49fbdffcc3bfafdc8b07000000000000225120e4a6c21ed6b76b51e008f0ba2e3ca53086d625f2735a8cd7080377a220ec0e9e8b07000000000000225120e7d0b2239376d31b340133efa754b09fa7c8bd4863e564cf939db45d4745a19e8b07000000000000225120def758f7f4e834b61b4045217e451cb0ed94a54d067ca9eef53dba7c89de901e8b07000000000000225120e07b02ec6bd6872b9be85716aa9ec735367a1befcf83a478f2558bc6c6b669cc8b070000000000002251202af09971182996032feffbf8972c0893de1c8baed1c8a210a3f4dc3eaa3d42cc8b070000000000002251201646b4b281ee7bc0347dbbfbb81d577d46239b4f62e4a6a7913d5ad7c5c1e2828b07000000000000225120b3d97e2be9e4423d1d68f60e40e7fd69e0646f939a9fb5a8cd39e41189672bfa8b07000000000000225120017dec311560d990a01353f564d22d9304f52944412dd07a846db65f9386dca08b07000000000000225120a3343e136975ca5c64dccc5b2bf73940daab6765e2371b05b05b4277e4fb342d8b070000000000002251208babfe85e279daac9ef631547cc229b10ec227cc19494d8e2d54ba9cee9e22428b07000000000000225120fa62a98e4137e282f96bb0af5b84a54615735e3b2275ec2d5a120158eae535b28b07000000000000225120a4303e0c6d2ae070e46242c5d4fd709a4129483110afca861c7baf5b09003f5a8b07000000000000225120b7825338f2df17856f8993ee510dfc1c8a7cb73875ed43ca1521c83569ea04428b0700000000000022512054895162ea230653b755b3a1f03d14b1a5ab46245845f9ccb92a3425ff14f4018b070000000000002251207d5b8b17c817046ccc9bc3916f41eb995b86687d5d17a376fe4ba3df899705b48b070000000000002251203455331d5dca7523f65a3522fa920d24548fffc4222e69286a746f73b97e45ce8b070000000000002251201c2d360c4d24a233e72e97074b27c2d37d93bce0ff6ef62a8612d0e5ba41ff178b070000000000002251208b8b7147770ca786df777681cb31078f8196a708cbfc691eb2aeda7ebc3260a88b070000000000002251204b0461cab75ed8166527f5275109242f76ad650788c1a587085644a36b2ac71e8b070000000000002251203801512ae97da9fd592d08f759cfc903c53ec49d2b112a064253108d751972dc28230000000000001600141de72fabad809343fbc8fb13c44a0ecbd5f9f33d0140d64ecd67825877ca38b1d99113e3727429cd60e106dbf494e9707af7bf32ce4643141cac7b723d4cdf0a587b229763fbbf1ec0c144b6d2287d9b9cf5c13697e200000000"
}