{
  "txid": "659e8a2945cc719ee137172c3dc0f57d5d9c1e67161ec6fa7ddc5c2115935ecc",
  "version": 2,
  "locktime": 834458,
  "vin": [
    {
      "txid": "1c9cbd5efc9fa469351a832c7ef9974ea1c4f67d11a4233644f1bf690fa404fe",
      "vout": 1,
      "prevout": {
        "scriptpubkey": "a91463f666b3d7f11c992830515469914e9f1c1eef4487",
        "scriptpubkey_asm": "OP_HASH160 OP_PUSHBYTES_20 63f666b3d7f11c992830515469914e9f1c1eef44 OP_EQUAL",
        "scriptpubkey_type": "p2sh",
        "scriptpubkey_address": "3AoZznj9Yqjq3BXhTy5t5tYZBX1j1KXjzG",
        "value": 560606177
      },
      "scriptsig": "160014e90d6ac56c76ae7f14a7af20f388db2970870e68",
      "scriptsig_asm": "OP_PUSHBYTES_22 0014e90d6ac56c76ae7f14a7af20f388db2970870e68",
      "witness": [
        "3044022023d267ae85a2734506c1374553e975aa68252f76ac0dbb92fd614632d4a266b1022015dc42b9a17c0d46a0c90f3989932921dbb2d5816489f88cc31a6f780a32d9d001",
        "024646488f08387bf0a4a8110e7a429d0f89ad4ddde1688750fcd6f6145d9a2792"
      ],
      "is_coinbase": false,
      "sequence": 4294967293,
      "inner_redeemscript_asm": "OP_0 OP_PUSHBYTES_20 e90d6ac56c76ae7f14a7af20f388db2970870e68"
    }
  ],
  "vout": [
    {
      "scriptpubkey": "00143e557a4d0ae21c9af563401d6a6da6419838f2ce",
      "scriptpubkey_asm": "OP_0 OP_PUSHBYTES_20 3e557a4d0ae21c9af563401d6a6da6419838f2ce",
      "scriptpubkey_type": "v0_p2wpkh",
      "scriptpubkey_address": "bc1q8e2h5ng2ugwf4atrgqwk5mdxgxvr3ukwnhkfgy",
      "value": 3707176
    },
    {
      "scriptpubkey": "001484640bc7e5efa2e28618db3c62d5ad66cabde587",
      "scriptpubkey_asm": "OP_0 OP_PUSHBYTES_20 84640bc7e5efa2e28618db3c62d5ad66cabde587",
      "scriptpubkey_type": "v0_p2wpkh",
      "scriptpubkey_address": "bc1qs3jqh3l9a73w9pscmv7x94ddvm9tmev8hs0r74",
      "value": 556897033
    }
  ],
  "size": 245,
  "weight": 653,
  "fee": 1968,
  "status": {
    "confirmed": true,
    "block_height": 834460,
    "block_hash": "00000000000000000000484a79b643b2524bbce82e5d8a442013fa5b8905ed98",
    "block_time": 1710307468
  },
  "hex": "02000000000101fe04a40f69bff1443623a4117df6c4a14e97f97e2c831a3569a49ffc5ebd9c1c0100000017160014e90d6ac56c76ae7f14a7af20f388db2970870e68fdffffff0228913800000000001600143e557a4d0ae21c9af563401d6a6da6419838f2ce099331210000000016001484640bc7e5efa2e28618db3c62d5ad66cabde58702473044022023d267ae85a2734506c1374553e975aa68252f76ac0dbb92fd614632d4a266b1022015dc42b9a17c0d46a0c90f3989932921dbb2d5816489f88cc31a6f780a32d9d00121024646488f08387bf0a4a8110e7a429d0f89ad4ddde1688750fcd6f6145d9a27929abb0c00"
}