{
  "txid": "65a4eff69fbf97128816534c40cbd3e4bc4eb1559d9cb314dad354a55661c03f",
  "version": 2,
  "locktime": 0,
  "vin": [
    {
      "txid": "ebc34e83434a2db9d1249ad864ae1d1df8af7facdcb786525b93ad5b077a8613",
      "vout": 1,
      "prevout": {
        "scriptpubkey": "51200d93e5e7233c54d49e9e880e2d2986f7836c95bb0de0920465f31ce30ea31192",
        "scriptpubkey_asm": "OP_PUSHNUM_1 OP_PUSHBYTES_32 0d93e5e7233c54d49e9e880e2d2986f7836c95bb0de0920465f31ce30ea31192",
        "scriptpubkey_type": "v1_p2tr",
        "scriptpubkey_address": "bc1ppkf7teer832df8573q8z62vx77pke9dmphsfypr97vwwxr4rzxfqf0mh73",
        "value": 953370
      },
      "scriptsig": "",
      "scriptsig_asm": "",
      "witness": [
        "72bbfc1b951cbdba98c1c0fde99fca1f122ebfc897cd174ad1d01fc399686c7d123a824822000aff54652ef38768f3677a587998378fa8876417787f9d6d06a5"
      ],
      "is_coinbase": false,
      "sequence": 4294967295
    }
  ],
  "vout": [
    {
      "scriptpubkey": "5120a5d2ff64e7ea628feda65c5746b2b98c3ab8df872c311f26402fcdd88f2bb73f",
      "scriptpubkey_asm": "OP_PUSHNUM_1 OP_PUSHBYTES_32 a5d2ff64e7ea628feda65c5746b2b98c3ab8df872c311f26402fcdd88f2bb73f",
      "scriptpubkey_type": "v1_p2tr",
      "scriptpubkey_address": "bc1p5hf07e88af3glmdxt3t5dv4e3sat3hu89sc37fjq9lxa3retkulsljjxxp",
      "value": 5000
    },
    {
      "scriptpubkey": "51200d93e5e7233c54d49e9e880e2d2986f7836c95bb0de0920465f31ce30ea31192",
      "scriptpubkey_asm": "OP_PUSHNUM_1 OP_PUSHBYTES_32 0d93e5e7233c54d49e9e880e2d2986f7836c95bb0de0920465f31ce30ea31192",
      "scriptpubkey_type": "v1_p2tr",
      "scriptpubkey_address": "bc1ppkf7teer832df8573q8z62vx77pke9dmphsfypr97vwwxr4rzxfqf0mh73",
      "value": 945906
    }
  ],
  "size": 205,
  "weight": 616,
  "fee": 2464,
  "status": {
    "confirmed": true,
    "block_height": 834638,
    "block_hash": "000000000000000000025f742c626208ac87e0b7d15054abb4a19ca2d735a54e",
    "block_time": 1710405325
  },
  "hex": "0200000000010113867a075bad935b5286b7dcac7faff81d1dae64d89a24d1b92d4a43834ec3eb0100000000ffffffff028813000000000000225120a5d2ff64e7ea628feda65c5746b2b98c3ab8df872c311f26402fcdd88f2bb73ff26e0e00000000002251200d93e5e7233c54d49e9e880e2d2986f7836c95bb0de0920465f31ce30ea31192014072bbfc1b951cbdba98c1c0fde99fca1f122ebfc897cd174ad1d01fc399686c7d123a824822000aff54652ef38768f3677a587998378fa8876417787f9d6d06a500000000"
}