{
  "txid": "65b5e059cb6c52928755339aaad973ef282749bc8b0962980d0dee54256da4de",
  "version": 2,
  "locktime": 0,
  "vin": [
    {
      "txid": "e31fc17a259c41d46f62582f1925475edc8a5a669d17021d0b23f1ed19ab44fb",
      "vout": 57,
      "prevout": {
        "scriptpubkey": "0014654ac4df7b2e26fb1487350983304a59fe097a95",
        "scriptpubkey_asm": "OP_0 OP_PUSHBYTES_20 654ac4df7b2e26fb1487350983304a59fe097a95",
        "scriptpubkey_type": "v0_p2wpkh",
        "scriptpubkey_address": "bc1qv49vfhmm9cn0k9y8x5ycxvz2t8lqj754v5kfth",
        "value": 335189
      },
      "scriptsig": "",
      "scriptsig_asm": "",
      "witness": [
        "304402200bd84d9d8a91e6d78994b5cbcd44af7894901bdfb03d12724b0dd2c88d7f54f302206d99a77832708f5f3874b57dee2352cd4efc23b6b494c20c5a04eab1412e352701",
        "025ff6229910766426f2b075376f68819fdc3b1552d4f57e82462abf1bd801b35c"
      ],
      "is_coinbase": false,
      "sequence": 4294967295
    },
    {
      "txid": "e31fc17a259c41d46f62582f1925475edc8a5a669d17021d0b23f1ed19ab44fb",
      "vout": 94,
      "prevout": {
        "scriptpubkey": "0014c1aa07fb171bb6a4c0b2e584dd98da5d3ef9ac8e",
        "scriptpubkey_asm": "OP_0 OP_PUSHBYTES_20 c1aa07fb171bb6a4c0b2e584dd98da5d3ef9ac8e",
        "scriptpubkey_type": "v0_p2wpkh",
        "scriptpubkey_address": "bc1qcx4q07chrwm2fs9jukzdmxx6t5l0ntywjkfn40",
        "value": 67869503
      },
      "scriptsig": "",
      "scriptsig_asm": "",
      "witness": [
        "304402207d7f2a7c45830c3785c96a8ed3cd0db93176750ae13fc22d98fccff96bc2c3e2022015de70b7348b509eba740a7083e0057583a475c943e407408870cbbe69c1c46e01",
        "02ee3482495c0765b45b9ba7490bff14b7dd0fdde444f66949d2e77571f1c5603a"
      ],
      "is_coinbase": false,
      "sequence": 4294967295
    }
  ],
  "vout": [
    {
      "scriptpubkey": "0014f965861656fb5dc691f75fcd10c6c63c6eef620c",
      "scriptpubkey_asm": "OP_0 OP_PUSHBYTES_20 f965861656fb5dc691f75fcd10c6c63c6eef620c",
      "scriptpubkey_type": "v0_p2wpkh",
      "scriptpubkey_address": "bc1ql9jcv9jkldwudy0htlx3p3kx83hw7csv4m4007",
      "value": 272222
    },
    {
      "scriptpubkey": "a914626575fe75dfffdd14db07e8e38e25f9cf8aeacd87",
      "scriptpubkey_asm": "OP_HASH160 OP_PUSHBYTES_20 626575fe75dfffdd14db07e8e38e25f9cf8aeacd OP_EQUAL",
      "scriptpubkey_type": "p2sh",
      "scriptpubkey_address": "3AfHgyGnyMF4wE8p7eKtFjkDrdGqN5PYFV",
      "value": 61198
    },
    {
      "scriptpubkey": "001402cf650cda629d28c4c589133f38b84917d3054b",
      "scriptpubkey_asm": "OP_0 OP_PUSHBYTES_20 02cf650cda629d28c4c589133f38b84917d3054b",
      "scriptpubkey_type": "v0_p2wpkh",
      "scriptpubkey_address": "bc1qqt8k2rx6v2wj33x93yfn7w9cfytaxp2t25n3l8",
      "value": 2651442
    },
    {
      "scriptpubkey": "a9149775438cf1316bc505fc5c3de2b75549f31e5e7a87",
      "scriptpubkey_asm": "OP_HASH160 OP_PUSHBYTES_20 9775438cf1316bc505fc5c3de2b75549f31e5e7a OP_EQUAL",
      "scriptpubkey_type": "p2sh",
      "scriptpubkey_address": "3FVrS9TWVKve3JCjkqYuBdTqJzCm1raXYY",
      "value": 28082
    },
    {
      "scriptpubkey": "0014f5b75842027bac6cdc52b526f3e2ad9347ef9f29",
      "scriptpubkey_asm": "OP_0 OP_PUSHBYTES_20 f5b75842027bac6cdc52b526f3e2ad9347ef9f29",
      "scriptpubkey_type": "v0_p2wpkh",
      "scriptpubkey_address": "bc1q7km4sssz0wkxehzjk5n08c4djdr7l8ef4aytv0",
      "value": 27192
    },
    {
      "scriptpubkey": "00149bc17fe97ec667e3cbd102021d80ec9856287de8",
      "scriptpubkey_asm": "OP_0 OP_PUSHBYTES_20 9bc17fe97ec667e3cbd102021d80ec9856287de8",
      "scriptpubkey_type": "v0_p2wpkh",
      "scriptpubkey_address": "bc1qn0qhl6t7cen78j73qgppmq8vnptzsl0gutmc7k",
      "value": 26754
    },
    {
      "scriptpubkey": "00146ad8bb7d83a20de35bf96078ddfac69b31e5e4c4",
      "scriptpubkey_asm": "OP_0 OP_PUSHBYTES_20 6ad8bb7d83a20de35bf96078ddfac69b31e5e4c4",
      "scriptpubkey_type": "v0_p2wpkh",
      "scriptpubkey_address": "bc1qdtvtklvr5gx7xklevpudm7kxnvc7texyytw0hn",
      "value": 61149
    },
    {
      "scriptpubkey": "76a914abf8d21cb1764f8203795d0139dd88368e2197fd88ac",
      "scriptpubkey_asm": "OP_DUP OP_HASH160 OP_PUSHBYTES_20 abf8d21cb1764f8203795d0139dd88368e2197fd OP_EQUALVERIFY OP_CHECKSIG",
      "scriptpubkey_type": "p2pkh",
      "scriptpubkey_address": "1GgJdAy164u3L9EDMxYwWcHqbg6zQJHHfF",
      "value": 81583
    },
    {
      "scriptpubkey": "00141bfe407968bf3e812158436f447aa819986dacb1",
      "scriptpubkey_asm": "OP_0 OP_PUSHBYTES_20 1bfe407968bf3e812158436f447aa819986dacb1",
      "scriptpubkey_type": "v0_p2wpkh",
      "scriptpubkey_address": "bc1qr0lyq7tghulgzg2cgdh5g74grxvxmt938pg56w",
      "value": 8214
    },
    {
      "scriptpubkey": "a9147d2bd5990f54dac10623a5488178783034cbe17187",
      "scriptpubkey_asm": "OP_HASH160 OP_PUSHBYTES_20 7d2bd5990f54dac10623a5488178783034cbe171 OP_EQUAL",
      "scriptpubkey_type": "p2sh",
      "scriptpubkey_address": "3D6ruBqrUHkHQCVQjHzLccHVtUFNjf3FWc",
      "value": 1358268
    },
    {
      "scriptpubkey": "0014f44315ca28f733e0061cf5efe198af4c58bb88ff",
      "scriptpubkey_asm": "OP_0 OP_PUSHBYTES_20 f44315ca28f733e0061cf5efe198af4c58bb88ff",
      "scriptpubkey_type": "v0_p2wpkh",
      "scriptpubkey_address": "bc1q73p3tj3g7ue7qpsu7hh7rx90f3vthz8lcqcksz",
      "value": 28167
    },
    {
      "scriptpubkey": "0014af6489801ba11ba70091ce35b79073c8129d8fbe",
      "scriptpubkey_asm": "OP_0 OP_PUSHBYTES_20 af6489801ba11ba70091ce35b79073c8129d8fbe",
      "scriptpubkey_type": "v0_p2wpkh",
      "scriptpubkey_address": "bc1q4ajgnqqm5yd6wqy3ec6m0yrneqffmra7lv6pzu",
      "value": 67988
    },
    {
      "scriptpubkey": "0014974f9ffbda144321370090088a8fc3c78c61e479",
      "scriptpubkey_asm": "OP_0 OP_PUSHBYTES_20 974f9ffbda144321370090088a8fc3c78c61e479",
      "scriptpubkey_type": "v0_p2wpkh",
      "scriptpubkey_address": "bc1qja8el776z3pjzdcqjqyg4r7rc7xxrereq74jzz",
      "value": 67985
    },
    {
      "scriptpubkey": "a91425c520af98736377c96ddc7f039db83e2bb1e9cb87",
      "scriptpubkey_asm": "OP_HASH160 OP_PUSHBYTES_20 25c520af98736377c96ddc7f039db83e2bb1e9cb OP_EQUAL",
      "scriptpubkey_type": "p2sh",
      "scriptpubkey_address": "358j5K6P6av43V5R5DAfFPMFzWmg41q4gg",
      "value": 62548
    },
    {
      "scriptpubkey": "a9147e7b25b06207ff77c0e24070e6ff73ea8f3c716d87",
      "scriptpubkey_asm": "OP_HASH160 OP_PUSHBYTES_20 7e7b25b06207ff77c0e24070e6ff73ea8f3c716d OP_EQUAL",
      "scriptpubkey_type": "p2sh",
      "scriptpubkey_address": "3DDnb8h5Ts6a1GjuL1cFgzGGaUzn38pNZ1",
      "value": 29817
    },
    {
      "scriptpubkey": "0014f93c494fbfeb7e36ba61e6f5b19eeeb78d20b7c5",
      "scriptpubkey_asm": "OP_0 OP_PUSHBYTES_20 f93c494fbfeb7e36ba61e6f5b19eeeb78d20b7c5",
      "scriptpubkey_type": "v0_p2wpkh",
      "scriptpubkey_address": "bc1qly7yjnaladlrdwnpum6mr8hwk7xjpd79nt3352",
      "value": 167381
    },
    {
      "scriptpubkey": "0014c7f9d0304a029319eb79405ee49e95ed1aff4d66",
      "scriptpubkey_asm": "OP_0 OP_PUSHBYTES_20 c7f9d0304a029319eb79405ee49e95ed1aff4d66",
      "scriptpubkey_type": "v0_p2wpkh",
      "scriptpubkey_address": "bc1qcluaqvz2q2f3n6megp0wf854a5d07ntxka84ww",
      "value": 13877
    },
    {
      "scriptpubkey": "0014f275d465093518ad33b14c8ac75a9b17b91a7c7c",
      "scriptpubkey_asm": "OP_0 OP_PUSHBYTES_20 f275d465093518ad33b14c8ac75a9b17b91a7c7c",
      "scriptpubkey_type": "v0_p2wpkh",
      "scriptpubkey_address": "bc1q7f6agegfx5v26va3fj9vwk5mz7u35lru3rg8k8",
      "value": 61145
    },
    {
      "scriptpubkey": "a914f68c2e39dcb4762c87bd370f5bdf4b86dfd08cba87",
      "scriptpubkey_asm": "OP_HASH160 OP_PUSHBYTES_20 f68c2e39dcb4762c87bd370f5bdf4b86dfd08cba OP_EQUAL",
      "scriptpubkey_type": "p2sh",
      "scriptpubkey_address": "3QAe5ehcf2Zkwk8ccw8S1FvkdBpTv8cHzt",
      "value": 61149
    },
    {
      "scriptpubkey": "76a9148b006a85d0619c7a6e4463a0afef33787187fddf88ac",
      "scriptpubkey_asm": "OP_DUP OP_HASH160 OP_PUSHBYTES_20 8b006a85d0619c7a6e4463a0afef33787187fddf OP_EQUALVERIFY OP_CHECKSIG",
      "scriptpubkey_type": "p2pkh",
      "scriptpubkey_address": "1DfyRaQD7QViLZojvx53kvT6QXBkeJtJn6",
      "value": 34682
    },
    {
      "scriptpubkey": "a91415e80657b37a7f13d068a451b1d88a9c466da92c87",
      "scriptpubkey_asm": "OP_HASH160 OP_PUSHBYTES_20 15e80657b37a7f13d068a451b1d88a9c466da92c OP_EQUAL",
      "scriptpubkey_type": "p2sh",
      "scriptpubkey_address": "33gr4wFkThVCHoscQwMCTLJUQhYQPDMWCT",
      "value": 34684
    },
    {
      "scriptpubkey": "0014273aa13396543c7590499dd07ea8040f206c1515",
      "scriptpubkey_asm": "OP_0 OP_PUSHBYTES_20 273aa13396543c7590499dd07ea8040f206c1515",
      "scriptpubkey_type": "v0_p2wpkh",
      "scriptpubkey_address": "bc1qyua2zvuk2s78tyzfnhg8a2qypusxc9g4xn0rgn",
      "value": 28082
    },
    {
      "scriptpubkey": "0014d323ac49c38a54f292abdc2317a7f45bafe1b682",
      "scriptpubkey_asm": "OP_0 OP_PUSHBYTES_20 d323ac49c38a54f292abdc2317a7f45bafe1b682",
      "scriptpubkey_type": "v0_p2wpkh",
      "scriptpubkey_address": "bc1q6v36cjwr3f209y4tms330fl5twh7rd5zaysk8q",
      "value": 22129
    },
    {
      "scriptpubkey": "a9143c2d5461e28b3125b6981d82a5109e5a4335e2e387",
      "scriptpubkey_asm": "OP_HASH160 OP_PUSHBYTES_20 3c2d5461e28b3125b6981d82a5109e5a4335e2e3 OP_EQUAL",
      "scriptpubkey_type": "p2sh",
      "scriptpubkey_address": "37BCmcNdcK5hTEFaQkE7bA6wQBp4p3aCbj",
      "value": 17676
    },
    {
      "scriptpubkey": "0014737dafa1bfd8300746d8814ea08e83b4d8e75983",
      "scriptpubkey_asm": "OP_0 OP_PUSHBYTES_20 737dafa1bfd8300746d8814ea08e83b4d8e75983",
      "scriptpubkey_type": "v0_p2wpkh",
      "scriptpubkey_address": "bc1qwd76lgdlmqcqw3kcs982pr5rknvwwkvr0dd0af",
      "value": 127813
    },
    {
      "scriptpubkey": "001427d016b3cdb598a0a9e07e2012ca5708cc082437",
      "scriptpubkey_asm": "OP_0 OP_PUSHBYTES_20 27d016b3cdb598a0a9e07e2012ca5708cc082437",
      "scriptpubkey_type": "v0_p2wpkh",
      "scriptpubkey_address": "bc1qylgpdv7dkkv2p20q0csp9jjhprxqsfphrvs5r8",
      "value": 18828
    },
    {
      "scriptpubkey": "0014ec0cc0995c86c39b22f5a0a47a4f32b8a0e7d823",
      "scriptpubkey_asm": "OP_0 OP_PUSHBYTES_20 ec0cc0995c86c39b22f5a0a47a4f32b8a0e7d823",
      "scriptpubkey_type": "v0_p2wpkh",
      "scriptpubkey_address": "bc1qasxvpx2usmpekgh45zj85nejhzsw0kprg87zlp",
      "value": 74367
    },
    {
      "scriptpubkey": "0014d3660dcf82bbd780dc1c193fafd6329307bece26",
      "scriptpubkey_asm": "OP_0 OP_PUSHBYTES_20 d3660dcf82bbd780dc1c193fafd6329307bece26",
      "scriptpubkey_type": "v0_p2wpkh",
      "scriptpubkey_address": "bc1q6dnqmnuzh0tcphquryl6l43jjvrman3xrvte2a",
      "value": 260181
    },
    {
      "scriptpubkey": "a9145c809bd138225f8dc0485febcb1d9a94ec254bec87",
      "scriptpubkey_asm": "OP_HASH160 OP_PUSHBYTES_20 5c809bd138225f8dc0485febcb1d9a94ec254bec OP_EQUAL",
      "scriptpubkey_type": "p2sh",
      "scriptpubkey_address": "3A88A5Wd7y8NtkL5N4FqHTgmTFmWg4WouE",
      "value": 33434
    },
    {
      "scriptpubkey": "0014db125054d256b4885a5fb3b65648a7a7692491d9",
      "scriptpubkey_asm": "OP_0 OP_PUSHBYTES_20 db125054d256b4885a5fb3b65648a7a7692491d9",
      "scriptpubkey_type": "v0_p2wpkh",
      "scriptpubkey_address": "bc1qmvf9q4xj266gskjlkwm9vj985a5jfywewmqfw8",
      "value": 14812
    },
    {
      "scriptpubkey": "a914cc3abd169c2d51461b355b014afa5d94f56c3d7087",
      "scriptpubkey_asm": "OP_HASH160 OP_PUSHBYTES_20 cc3abd169c2d51461b355b014afa5d94f56c3d70 OP_EQUAL",
      "scriptpubkey_type": "p2sh",
      "scriptpubkey_address": "3LJt8ueK9SYFjmJmshQHRoHcbBFmAAAEoF",
      "value": 74418
    },
    {
      "scriptpubkey": "0014c426a20530bb92e89bf9946a923e54ee87014241",
      "scriptpubkey_asm": "OP_0 OP_PUSHBYTES_20 c426a20530bb92e89bf9946a923e54ee87014241",
      "scriptpubkey_type": "v0_p2wpkh",
      "scriptpubkey_address": "bc1qcsn2ypfshwfw3xlej34fy0j5a6rszsjpq9v4wv",
      "value": 195169
    },
    {
      "scriptpubkey": "001424c5a1fb5ebec1f5456a3a593cc3f55fcbd1376e",
      "scriptpubkey_asm": "OP_0 OP_PUSHBYTES_20 24c5a1fb5ebec1f5456a3a593cc3f55fcbd1376e",
      "scriptpubkey_type": "v0_p2wpkh",
      "scriptpubkey_address": "bc1qynz6r767hmql23t28fvnesl4tl9azdmwasm6lp",
      "value": 460254
    },
    {
      "scriptpubkey": "76a914a89e09e852e037fb3f4899c520e262032e5793b388ac",
      "scriptpubkey_asm": "OP_DUP OP_HASH160 OP_PUSHBYTES_20 a89e09e852e037fb3f4899c520e262032e5793b3 OP_EQUALVERIFY OP_CHECKSIG",
      "scriptpubkey_type": "p2pkh",
      "scriptpubkey_address": "1GNZqx3MmpHZDD24iohCRQUTvaKJozrqrD",
      "value": 8249
    },
    {
      "scriptpubkey": "76a914269da4044a565e6fa7107bcd7d15c256bfa937d388ac",
      "scriptpubkey_asm": "OP_DUP OP_HASH160 OP_PUSHBYTES_20 269da4044a565e6fa7107bcd7d15c256bfa937d3 OP_EQUALVERIFY OP_CHECKSIG",
      "scriptpubkey_type": "p2pkh",
      "scriptpubkey_address": "14XBXMh79TFVbc4qVnJwdDUbZwXZs8UAET",
      "value": 271996
    },
    {
      "scriptpubkey": "00147f457ab3b6349afbd3b55e91e6fc372980a8b0f6",
      "scriptpubkey_asm": "OP_0 OP_PUSHBYTES_20 7f457ab3b6349afbd3b55e91e6fc372980a8b0f6",
      "scriptpubkey_type": "v0_p2wpkh",
      "scriptpubkey_address": "bc1q0azh4vakxjd0h5a4t6g7dlph9xq23v8k7yzmz2",
      "value": 127267
    },
    {
      "scriptpubkey": "a9141514506b0d1bacf2460d4b7bc414b273a3de672587",
      "scriptpubkey_asm": "OP_HASH160 OP_PUSHBYTES_20 1514506b0d1bacf2460d4b7bc414b273a3de6725 OP_EQUAL",
      "scriptpubkey_type": "p2sh",
      "scriptpubkey_address": "33cUT2HPhVXMEnVvokrHiDTKrm6gp6hHEE",
      "value": 14867
    },
    {
      "scriptpubkey": "0014164e4e21994ae8b8d3d44b15f5b0b8c8f3f56f62",
      "scriptpubkey_asm": "OP_0 OP_PUSHBYTES_20 164e4e21994ae8b8d3d44b15f5b0b8c8f3f56f62",
      "scriptpubkey_type": "v0_p2wpkh",
      "scriptpubkey_address": "bc1qze8yugveft5t3575fv2ltv9cerel2mmz62fhgt",
      "value": 294092
    },
    {
      "scriptpubkey": "a914cc5efe0bc1fd7b622f05ac11380d71c840f870c787",
      "scriptpubkey_asm": "OP_HASH160 OP_PUSHBYTES_20 cc5efe0bc1fd7b622f05ac11380d71c840f870c7 OP_EQUAL",
      "scriptpubkey_type": "p2sh",
      "scriptpubkey_address": "3LKdZrymuxPk1Kz725pay8mS6afvs9Cumf",
      "value": 55016
    },
    {
      "scriptpubkey": "001447054592d77ab30bf359859b70ef656a664c10af",
      "scriptpubkey_asm": "OP_0 OP_PUSHBYTES_20 47054592d77ab30bf359859b70ef656a664c10af",
      "scriptpubkey_type": "v0_p2wpkh",
      "scriptpubkey_address": "bc1qguz5tykh02eshu6eskdhpmm9dfnycy904zkpl6",
      "value": 127258
    },
    {
      "scriptpubkey": "0014c58e8dfbb441095715a1c7f29e7083cdb7fc6388",
      "scriptpubkey_asm": "OP_0 OP_PUSHBYTES_20 c58e8dfbb441095715a1c7f29e7083cdb7fc6388",
      "scriptpubkey_type": "v0_p2wpkh",
      "scriptpubkey_address": "bc1qck8gm7a5gyy4w9dpclefuuyrekmlccugdsv26v",
      "value": 27192
    },
    {
      "scriptpubkey": "76a91400dd94e297b59376531775b8fd4bd929fa6158ff88ac",
      "scriptpubkey_asm": "OP_DUP OP_HASH160 OP_PUSHBYTES_20 00dd94e297b59376531775b8fd4bd929fa6158ff OP_EQUALVERIFY OP_CHECKSIG",
      "scriptpubkey_type": "p2pkh",
      "scriptpubkey_address": "115aSkynbuzGdTM8znXGwXYe57dQN8vB6y",
      "value": 258346
    },
    {
      "scriptpubkey": "00143c4507c7b9f27e3709c254c887284ad5f56c426d",
      "scriptpubkey_asm": "OP_0 OP_PUSHBYTES_20 3c4507c7b9f27e3709c254c887284ad5f56c426d",
      "scriptpubkey_type": "v0_p2wpkh",
      "scriptpubkey_address": "bc1q83zs03ae7flrwzwz2nygw2z26h6kcsndtjdgsf",
      "value": 93690
    },
    {
      "scriptpubkey": "0014c849df277f5df40244e85dbca689ad1d42d86bc3",
      "scriptpubkey_asm": "OP_0 OP_PUSHBYTES_20 c849df277f5df40244e85dbca689ad1d42d86bc3",
      "scriptpubkey_type": "v0_p2wpkh",
      "scriptpubkey_address": "bc1qepya7fmlth6qy38gtk72dzddr4pds67r5z45es",
      "value": 152288
    },
    {
      "scriptpubkey": "00142e1bf744d3adf6433f412ac4150ee9b9bfb76ca4",
      "scriptpubkey_asm": "OP_0 OP_PUSHBYTES_20 2e1bf744d3adf6433f412ac4150ee9b9bfb76ca4",
      "scriptpubkey_type": "v0_p2wpkh",
      "scriptpubkey_address": "bc1q9cdlw3xn4hmyx06p9tzp2rhfhxlmwm9yg4ezgu",
      "value": 127266
    },
    {
      "scriptpubkey": "0014e3680f66476c822a066b4d522dab31abc65fbaff",
      "scriptpubkey_asm": "OP_0 OP_PUSHBYTES_20 e3680f66476c822a066b4d522dab31abc65fbaff",
      "scriptpubkey_type": "v0_p2wpkh",
      "scriptpubkey_address": "bc1qud5q7ej8djpz5pntf4fzm2e340r9lwhlyrlwnv",
      "value": 27191
    },
    {
      "scriptpubkey": "00145fe96873ce9cc5ebf8ddb9b4238305f3aebb0334",
      "scriptpubkey_asm": "OP_0 OP_PUSHBYTES_20 5fe96873ce9cc5ebf8ddb9b4238305f3aebb0334",
      "scriptpubkey_type": "v0_p2wpkh",
      "scriptpubkey_address": "bc1qtl5ksu7wnnz7h7xahx6z8qc97whtkqe5zpzgpy",
      "value": 154153
    },
    {
      "scriptpubkey": "76a914048b08f486e143c30dd12b6ab12e4f9c31f7011188ac",
      "scriptpubkey_asm": "OP_DUP OP_HASH160 OP_PUSHBYTES_20 048b08f486e143c30dd12b6ab12e4f9c31f70111 OP_EQUALVERIFY OP_CHECKSIG",
      "scriptpubkey_type": "p2pkh",
      "scriptpubkey_address": "1R2G64F8hjdnMYhPnJNzQAF6WABh1V2h2",
      "value": 21496
    },
    {
      "scriptpubkey": "0014566a5953d4cdaa654e0f1a86fda5eeb2941020c2",
      "scriptpubkey_asm": "OP_0 OP_PUSHBYTES_20 566a5953d4cdaa654e0f1a86fda5eeb2941020c2",
      "scriptpubkey_type": "v0_p2wpkh",
      "scriptpubkey_address": "bc1q2e49j575ek4x2ns0r2r0mf0wk22pqgxzw7e0xg",
      "value": 29407
    },
    {
      "scriptpubkey": "00143376fb6f923c0f14c16d91b668eb6e0c10dc31e4",
      "scriptpubkey_asm": "OP_0 OP_PUSHBYTES_20 3376fb6f923c0f14c16d91b668eb6e0c10dc31e4",
      "scriptpubkey_type": "v0_p2wpkh",
      "scriptpubkey_address": "bc1qxdm0kmuj8s83fstdjxmx36mwpsgdcv0yt4md85",
      "value": 61149
    },
    {
      "scriptpubkey": "a91454ca29f382bca257ec01a7a8fbcffe58fc076c0a87",
      "scriptpubkey_asm": "OP_HASH160 OP_PUSHBYTES_20 54ca29f382bca257ec01a7a8fbcffe58fc076c0a OP_EQUAL",
      "scriptpubkey_type": "p2sh",
      "scriptpubkey_address": "39RLsFRrUhgbFLyBZuoZeS3JYpQogyaJFV",
      "value": 74366
    },
    {
      "scriptpubkey": "00147c31133cc3b8ada2ac3ae6c2e4cfcd4b49729c0c",
      "scriptpubkey_asm": "OP_0 OP_PUSHBYTES_20 7c31133cc3b8ada2ac3ae6c2e4cfcd4b49729c0c",
      "scriptpubkey_type": "v0_p2wpkh",
      "scriptpubkey_address": "bc1q0sc3x0xrhzk69tp6umpwfn7dfdyh98qv2kvtr2",
      "value": 27871
    },
    {
      "scriptpubkey": "0014024bb1f50b1e3da89d798a1050ad3d002f32cb28",
      "scriptpubkey_asm": "OP_0 OP_PUSHBYTES_20 024bb1f50b1e3da89d798a1050ad3d002f32cb28",
      "scriptpubkey_type": "v0_p2wpkh",
      "scriptpubkey_address": "bc1qqf9mragtrc7638te3gg9ptfaqqhn9jeggl98n4",
      "value": 169971
    },
    {
      "scriptpubkey": "001477086ee3f991f75e1ee31c66dd9536b2c3b4467b",
      "scriptpubkey_asm": "OP_0 OP_PUSHBYTES_20 77086ee3f991f75e1ee31c66dd9536b2c3b4467b",
      "scriptpubkey_type": "v0_p2wpkh",
      "scriptpubkey_address": "bc1qwuyxaclej8m4u8hrr3ndm9fkktpmg3nmq5jl88",
      "value": 20397
    },
    {
      "scriptpubkey": "a914c04572cbd93b757b76529022df9ff479711e853887",
      "scriptpubkey_asm": "OP_HASH160 OP_PUSHBYTES_20 c04572cbd93b757b76529022df9ff479711e8538 OP_EQUAL",
      "scriptpubkey_type": "p2sh",
      "scriptpubkey_address": "3KDerjetWstxkFChNXCSMogS7VHnPLL1Tf",
      "value": 393757
    },
    {
      "scriptpubkey": "76a9143102d1c2d650fee3d4bc0d63bd7acadd3a17329d88ac",
      "scriptpubkey_asm": "OP_DUP OP_HASH160 OP_PUSHBYTES_20 3102d1c2d650fee3d4bc0d63bd7acadd3a17329d OP_EQUALVERIFY OP_CHECKSIG",
      "scriptpubkey_type": "p2pkh",
      "scriptpubkey_address": "15U9VJ2eeZGjYezTHHuhphLpKgcHfzVygW",
      "value": 23113
    },
    {
      "scriptpubkey": "76a91482d59d36c77758645249211a97696c268796e77b88ac",
      "scriptpubkey_asm": "OP_DUP OP_HASH160 OP_PUSHBYTES_20 82d59d36c77758645249211a97696c268796e77b OP_EQUALVERIFY OP_CHECKSIG",
      "scriptpubkey_type": "p2pkh",
      "scriptpubkey_address": "1Cvnk7CzPT2HAyJizjcz7tbVbTuYA4GWxD",
      "value": 233677
    },
    {
      "scriptpubkey": "76a914b43296859145310545f3442a06905efbdb7fec4b88ac",
      "scriptpubkey_asm": "OP_DUP OP_HASH160 OP_PUSHBYTES_20 b43296859145310545f3442a06905efbdb7fec4b OP_EQUALVERIFY OP_CHECKSIG",
      "scriptpubkey_type": "p2pkh",
      "scriptpubkey_address": "1HRoESjQLubE2PpkMU7iTQuEfXQ87SWQ5X",
      "value": 1351436
    },
    {
      "scriptpubkey": "0014f3737feff4833dada37842cc54aac7ba7953ed1d",
      "scriptpubkey_asm": "OP_0 OP_PUSHBYTES_20 f3737feff4833dada37842cc54aac7ba7953ed1d",
      "scriptpubkey_type": "v0_p2wpkh",
      "scriptpubkey_address": "bc1q7dehlml5sv76mgmcgtx9f2k8hfu48mgaex2w3z",
      "value": 23464
    },
    {
      "scriptpubkey": "76a914c8f8e8d9a2e643ce3af99bcff9c8da15d5008ea188ac",
      "scriptpubkey_asm": "OP_DUP OP_HASH160 OP_PUSHBYTES_20 c8f8e8d9a2e643ce3af99bcff9c8da15d5008ea1 OP_EQUALVERIFY OP_CHECKSIG",
      "scriptpubkey_type": "p2pkh",
      "scriptpubkey_address": "1KKeKuZfUbc8E9wkCwQLPFrqooKttR9ZyQ",
      "value": 2719253
    },
    {
      "scriptpubkey": "0014e507b3d925d9280370d564b558c8cc63c20788ed",
      "scriptpubkey_asm": "OP_0 OP_PUSHBYTES_20 e507b3d925d9280370d564b558c8cc63c20788ed",
      "scriptpubkey_type": "v0_p2wpkh",
      "scriptpubkey_address": "bc1qu5rm8kf9my5qxux4vj643jxvv0pq0z8dvr6fym",
      "value": 104781
    },
    {
      "scriptpubkey": "00141253f6853788ad7018c018076e5f0612e8a17f46",
      "scriptpubkey_asm": "OP_0 OP_PUSHBYTES_20 1253f6853788ad7018c018076e5f0612e8a17f46",
      "scriptpubkey_type": "v0_p2wpkh",
      "scriptpubkey_address": "bc1qzffldpfh3zkhqxxqrqrkuhcxzt52zl6x5r6p8v",
      "value": 27260
    },
    {
      "scriptpubkey": "00149bba421686c4d0d9ff3e56348e7131fc00100d6a",
      "scriptpubkey_asm": "OP_0 OP_PUSHBYTES_20 9bba421686c4d0d9ff3e56348e7131fc00100d6a",
      "scriptpubkey_type": "v0_p2wpkh",
      "scriptpubkey_address": "bc1qnwayy95xcngdnle72c6guuf3lsqpqrt2qkaf08",
      "value": 46590
    },
    {
      "scriptpubkey": "a9146be738b02505c71973ca54ff73270494cb3b1f2e87",
      "scriptpubkey_asm": "OP_HASH160 OP_PUSHBYTES_20 6be738b02505c71973ca54ff73270494cb3b1f2e OP_EQUAL",
      "scriptpubkey_type": "p2sh",
      "scriptpubkey_address": "3BXZDcj1LGTTAUAqqf4sFRapzoTBcWngRv",
      "value": 27195
    },
    {
      "scriptpubkey": "0014812e0de63b36d931a04801e773c49ad2d0cc90c4",
      "scriptpubkey_asm": "OP_0 OP_PUSHBYTES_20 812e0de63b36d931a04801e773c49ad2d0cc90c4",
      "scriptpubkey_type": "v0_p2wpkh",
      "scriptpubkey_address": "bc1qsyhqme3mxmvnrgzgq8nh83y66tgveyxy4ff3tz",
      "value": 41209
    },
    {
      "scriptpubkey": "0014eee04b5e9d2050b6d6e6beb61c7fe55f97988128",
      "scriptpubkey_asm": "OP_0 OP_PUSHBYTES_20 eee04b5e9d2050b6d6e6beb61c7fe55f97988128",
      "scriptpubkey_type": "v0_p2wpkh",
      "scriptpubkey_address": "bc1qamsykh5aypgtd4hxh6mpcll9t7te3qfgtmzglh",
      "value": 61152
    },
    {
      "scriptpubkey": "a91461a5764cd272faab7b06c77e1aa4d5ce55bd19f787",
      "scriptpubkey_asm": "OP_HASH160 OP_PUSHBYTES_20 61a5764cd272faab7b06c77e1aa4d5ce55bd19f7 OP_EQUAL",
      "scriptpubkey_type": "p2sh",
      "scriptpubkey_address": "3AbKgfFHMaVne8D4qrFmdPxa7hCxYnkA7a",
      "value": 100839
    },
    {
      "scriptpubkey": "0014ef5daa8ee0b322553d8f262d7abe0c27cdd6cea9",
      "scriptpubkey_asm": "OP_0 OP_PUSHBYTES_20 ef5daa8ee0b322553d8f262d7abe0c27cdd6cea9",
      "scriptpubkey_type": "v0_p2wpkh",
      "scriptpubkey_address": "bc1qaaw64rhqkv3920v0yckh40svylxadn4fc92ays",
      "value": 67987
    },
    {
      "scriptpubkey": "a914cd77eab7a6478c23858d7917c0138f5c6faa741487",
      "scriptpubkey_asm": "OP_HASH160 OP_PUSHBYTES_20 cd77eab7a6478c23858d7917c0138f5c6faa7414 OP_EQUAL",
      "scriptpubkey_type": "p2sh",
      "scriptpubkey_address": "3LRS6qc498o7YUN6UUB62VgJhTuwvSvnNx",
      "value": 41297
    },
    {
      "scriptpubkey": "76a914bff49f06946d5e7456c09fc56e5c937264e481b288ac",
      "scriptpubkey_asm": "OP_DUP OP_HASH160 OP_PUSHBYTES_20 bff49f06946d5e7456c09fc56e5c937264e481b2 OP_EQUALVERIFY OP_CHECKSIG",
      "scriptpubkey_type": "p2pkh",
      "scriptpubkey_address": "1JVy7DerdJRbPggeo2wPz31UDKxKLQGoqb",
      "value": 135978
    },
    {
      "scriptpubkey": "a9147f2cc3f78c9b882474f579002dbf7f525f13532887",
      "scriptpubkey_asm": "OP_HASH160 OP_PUSHBYTES_20 7f2cc3f78c9b882474f579002dbf7f525f135328 OP_EQUAL",
      "scriptpubkey_type": "p2sh",
      "scriptpubkey_address": "3DHTNGTpmSj4xd8DDTeoYbEvU2PuCmYL4u",
      "value": 67987
    },
    {
      "scriptpubkey": "a914a55f8ed31638c9c847fbd39bba834f7ed379232c87",
      "scriptpubkey_asm": "OP_HASH160 OP_PUSHBYTES_20 a55f8ed31638c9c847fbd39bba834f7ed379232c OP_EQUAL",
      "scriptpubkey_type": "p2sh",
      "scriptpubkey_address": "3GmRtg98oknXURhhymNx1TkrzBkEwae3Rs",
      "value": 21469
    },
    {
      "scriptpubkey": "76a91415065c59f8458abdde3763227f448a33744b07d488ac",
      "scriptpubkey_asm": "OP_DUP OP_HASH160 OP_PUSHBYTES_20 15065c59f8458abdde3763227f448a33744b07d4 OP_EQUALVERIFY OP_CHECKSIG",
      "scriptpubkey_type": "p2pkh",
      "scriptpubkey_address": "12vAoytuLeaAXVTYSZaUScKRiJ933NhxRo",
      "value": 21467
    },
    {
      "scriptpubkey": "00149abd7e73cb8837aa81469c5576b4f8ad9a64e03e",
      "scriptpubkey_asm": "OP_0 OP_PUSHBYTES_20 9abd7e73cb8837aa81469c5576b4f8ad9a64e03e",
      "scriptpubkey_type": "v0_p2wpkh",
      "scriptpubkey_address": "bc1qn27huu7t3qm64q2xn32hdd8c4kdxfcp783gqkj",
      "value": 127263
    },
    {
      "scriptpubkey": "76a9141376970aa081b3e62af9f177bc4de591d465c3e588ac",
      "scriptpubkey_asm": "OP_DUP OP_HASH160 OP_PUSHBYTES_20 1376970aa081b3e62af9f177bc4de591d465c3e5 OP_EQUALVERIFY OP_CHECKSIG",
      "scriptpubkey_type": "p2pkh",
      "scriptpubkey_address": "12muuRXSQMhFqp5ahkvjxRmyCLV3P18CSA",
      "value": 152290
    },
    {
      "scriptpubkey": "a914ea05aec323197446fc5c2cafc974c4b097831a1787",
      "scriptpubkey_asm": "OP_HASH160 OP_PUSHBYTES_20 ea05aec323197446fc5c2cafc974c4b097831a17 OP_EQUAL",
      "scriptpubkey_type": "p2sh",
      "scriptpubkey_address": "3P2QrGeRZjwtQXAffpRQskZghSPk1UYqTQ",
      "value": 13597
    },
    {
      "scriptpubkey": "0014286b39b34cd5cc16a1faa009b75d73bc2d683977",
      "scriptpubkey_asm": "OP_0 OP_PUSHBYTES_20 286b39b34cd5cc16a1faa009b75d73bc2d683977",
      "scriptpubkey_type": "v0_p2wpkh",
      "scriptpubkey_address": "bc1q9p4nnv6v6hxpdg065qymwhtnhskkswthtgdfd8",
      "value": 78863
    },
    {
      "scriptpubkey": "a9140894a37aa736db8d96ca1b8717748b685ab254e287",
      "scriptpubkey_asm": "OP_HASH160 OP_PUSHBYTES_20 0894a37aa736db8d96ca1b8717748b685ab254e2 OP_EQUAL",
      "scriptpubkey_type": "p2sh",
      "scriptpubkey_address": "32UPPfjn5aTYvKt5Vht2VtZWmwywuhoyqz",
      "value": 61188
    },
    {
      "scriptpubkey": "a914f6d2808a1d9c90d5dcff862b3fdda5166c35341087",
      "scriptpubkey_asm": "OP_HASH160 OP_PUSHBYTES_20 f6d2808a1d9c90d5dcff862b3fdda5166c353410 OP_EQUAL",
      "scriptpubkey_type": "p2sh",
      "scriptpubkey_address": "3QC6KgDG1rL2NjmtVo9Y2HLaZcCrPwEDgH",
      "value": 67982
    },
    {
      "scriptpubkey": "a91431e717c5d7072eeb9c224fa23d85ebe6915013e987",
      "scriptpubkey_asm": "OP_HASH160 OP_PUSHBYTES_20 31e717c5d7072eeb9c224fa23d85ebe6915013e9 OP_EQUAL",
      "scriptpubkey_type": "p2sh",
      "scriptpubkey_address": "36EssZG62cPoQupW8u4QrDX6Sb7zMkBcG4",
      "value": 74362
    },
    {
      "scriptpubkey": "76a914cd5fe1be9aee2e03380d7b56970de697564ae7a788ac",
      "scriptpubkey_asm": "OP_DUP OP_HASH160 OP_PUSHBYTES_20 cd5fe1be9aee2e03380d7b56970de697564ae7a7 OP_EQUALVERIFY OP_CHECKSIG",
      "scriptpubkey_type": "p2pkh",
      "scriptpubkey_address": "1KivPK1ZMiehjwKTSKycpt6ZcUJQtz5LpR",
      "value": 54387
    },
    {
      "scriptpubkey": "00140b356c3a3cfe6a9360d3847b1b703a5819ca2c57",
      "scriptpubkey_asm": "OP_0 OP_PUSHBYTES_20 0b356c3a3cfe6a9360d3847b1b703a5819ca2c57",
      "scriptpubkey_type": "v0_p2wpkh",
      "scriptpubkey_address": "bc1qpv6kcw3ule4fxcxns3a3kup6tqvu5tzhp3cxaz",
      "value": 147493
    },
    {
      "scriptpubkey": "76a91421f181105282ac648ff885ceaa00b9098317d7de88ac",
      "scriptpubkey_asm": "OP_DUP OP_HASH160 OP_PUSHBYTES_20 21f181105282ac648ff885ceaa00b9098317d7de OP_EQUALVERIFY OP_CHECKSIG",
      "scriptpubkey_type": "p2pkh",
      "scriptpubkey_address": "146UcLLBUDndmuesMDM2arfGt5fS9htxUt",
      "value": 127266
    },
    {
      "scriptpubkey": "a9149699ea35757b95bfa890348ddb94e3fd188e441487",
      "scriptpubkey_asm": "OP_HASH160 OP_PUSHBYTES_20 9699ea35757b95bfa890348ddb94e3fd188e4414 OP_EQUAL",
      "scriptpubkey_type": "p2sh",
      "scriptpubkey_address": "3FRKfWd4hPKrWazNjBH69zLY2fw8T5hq9Y",
      "value": 13596
    },
    {
      "scriptpubkey": "a914c7f7665033ee02b1c103b4f2c8bac0d014fef78187",
      "scriptpubkey_asm": "OP_HASH160 OP_PUSHBYTES_20 c7f7665033ee02b1c103b4f2c8bac0d014fef781 OP_EQUAL",
      "scriptpubkey_type": "p2sh",
      "scriptpubkey_address": "3KvLmM8ME7eEzDEx9gtqXWU2BCBiiuroY7",
      "value": 21382
    },
    {
      "scriptpubkey": "0014c94b1583a1143dc106b76da7d679024d57f25953",
      "scriptpubkey_asm": "OP_0 OP_PUSHBYTES_20 c94b1583a1143dc106b76da7d679024d57f25953",
      "scriptpubkey_type": "v0_p2wpkh",
      "scriptpubkey_address": "bc1qe993tqapzs7uzp4hdknav7gzf4tlyk2ntwv6z9",
      "value": 22792
    },
    {
      "scriptpubkey": "0020021fc63a7491629ea38b0b30ee32d88242e997dd9c6210e10bd31231a2c4397f",
      "scriptpubkey_asm": "OP_0 OP_PUSHBYTES_32 021fc63a7491629ea38b0b30ee32d88242e997dd9c6210e10bd31231a2c4397f",
      "scriptpubkey_type": "v0_p2wsh",
      "scriptpubkey_address": "bc1qqg0uvwn5j93fagutpvcwuvkcsfpwn97an33ppcgt6vfrrgky89lst5dlru",
      "value": 9587
    },
    {
      "scriptpubkey": "0014d8303653cbacb2ffc79dab07d3d88ce3f09ad71f",
      "scriptpubkey_asm": "OP_0 OP_PUSHBYTES_20 d8303653cbacb2ffc79dab07d3d88ce3f09ad71f",
      "scriptpubkey_type": "v0_p2wpkh",
      "scriptpubkey_address": "bc1qmqcrv57t4je0l3ua4vra8kyvu0cf44cl0r5q5v",
      "value": 87587
    },
    {
      "scriptpubkey": "0014e722bfab33af144e169b7b98cf49503fb1b54506",
      "scriptpubkey_asm": "OP_0 OP_PUSHBYTES_20 e722bfab33af144e169b7b98cf49503fb1b54506",
      "scriptpubkey_type": "v0_p2wpkh",
      "scriptpubkey_address": "bc1quu3tl2en4u2yu95m0wvv7j2s87cm23gxte5x86",
      "value": 260162
    },
    {
      "scriptpubkey": "001461e1d7b20c7f14a2d2601928c0b116d9b06517f8",
      "scriptpubkey_asm": "OP_0 OP_PUSHBYTES_20 61e1d7b20c7f14a2d2601928c0b116d9b06517f8",
      "scriptpubkey_type": "v0_p2wpkh",
      "scriptpubkey_address": "bc1qv8sa0vsv0u2295nqry5vpvgkmxcx29lcnkzd29",
      "value": 52002633
    },
    {
      "scriptpubkey": "00146d5c03bb46032252bd95106be6edf3834be20348",
      "scriptpubkey_asm": "OP_0 OP_PUSHBYTES_20 6d5c03bb46032252bd95106be6edf3834be20348",
      "scriptpubkey_type": "v0_p2wpkh",
      "scriptpubkey_address": "bc1qd4wq8w6xqv3990v4zp47dm0nsd97yq6gvjjtfa",
      "value": 268137
    },
    {
      "scriptpubkey": "0014b742a98e1ef9c61d68fd00326b493ac6f02514a2",
      "scriptpubkey_asm": "OP_0 OP_PUSHBYTES_20 b742a98e1ef9c61d68fd00326b493ac6f02514a2",
      "scriptpubkey_type": "v0_p2wpkh",
      "scriptpubkey_address": "bc1qkap2nrs7l8rp668aqqexkjf6cmcz299zglu0kn",
      "value": 68011
    },
    {
      "scriptpubkey": "00146883a95324480dba25dfdd8a72d90a119eb5ffa3",
      "scriptpubkey_asm": "OP_0 OP_PUSHBYTES_20 6883a95324480dba25dfdd8a72d90a119eb5ffa3",
      "scriptpubkey_type": "v0_p2wpkh",
      "scriptpubkey_address": "bc1qdzp6j5eyfqxm5fwlmk989kg2zx0ttlarx360j8",
      "value": 13525
    },
    {
      "scriptpubkey": "a91466ebb5ca2ceb79f9e1af96c4ba3c4b7a1ec50e8f87",
      "scriptpubkey_asm": "OP_HASH160 OP_PUSHBYTES_20 66ebb5ca2ceb79f9e1af96c4ba3c4b7a1ec50e8f OP_EQUAL",
      "scriptpubkey_type": "p2sh",
      "scriptpubkey_address": "3B5DDY4rhXMqDg4hG2wbUpvPzG93XGHErN",
      "value": 127266
    },
    {
      "scriptpubkey": "a9148510a7b63ed286e79c984807933ded6356d860ec87",
      "scriptpubkey_asm": "OP_HASH160 OP_PUSHBYTES_20 8510a7b63ed286e79c984807933ded6356d860ec OP_EQUAL",
      "scriptpubkey_type": "p2sh",
      "scriptpubkey_address": "3DpbkGwBZdnCtnRfBq1jYDZFRYHGBAPKKK",
      "value": 40787
    },
    {
      "scriptpubkey": "002044ad172e3080294ec8f68295e285cd157b6c123a7057a2e5796b7e252d5d0a91",
      "scriptpubkey_asm": "OP_0 OP_PUSHBYTES_32 44ad172e3080294ec8f68295e285cd157b6c123a7057a2e5796b7e252d5d0a91",
      "scriptpubkey_type": "v0_p2wsh",
      "scriptpubkey_address": "bc1qgjk3wt3ssq55aj8ks2279pwdz4akcy36wpt69eteddlz2t2ap2gs47w3yx",
      "value": 133425
    }
  ],
  "size": 3380,
  "weight": 12872,
  "fee": 44982,
  "status": {
    "confirmed": true,
    "block_height": 834638,
    "block_hash": "000000000000000000025f742c626208ac87e0b7d15054abb4a19ca2d735a54e",
    "block_time": 1710405325
  },
  "hex": "02000000000102fb44ab19edf1230b1d02179d665a8adc5e4725192f58626fd4419c257ac11fe33900000000fffffffffb44ab19edf1230b1d02179d665a8adc5e4725192f58626fd4419c257ac11fe35e00000000ffffffff605e27040000000000160014f965861656fb5dc691f75fcd10c6c63c6eef620c0eef00000000000017a914626575fe75dfffdd14db07e8e38e25f9cf8aeacd87327528000000000016001402cf650cda629d28c4c589133f38b84917d3054bb26d00000000000017a9149775438cf1316bc505fc5c3de2b75549f31e5e7a87386a000000000000160014f5b75842027bac6cdc52b526f3e2ad9347ef9f2982680000000000001600149bc17fe97ec667e3cbd102021d80ec9856287de8ddee0000000000001600146ad8bb7d83a20de35bf96078ddfac69b31e5e4c4af3e0100000000001976a914abf8d21cb1764f8203795d0139dd88368e2197fd88ac16200000000000001600141bfe407968bf3e812158436f447aa819986dacb1bcb914000000000017a9147d2bd5990f54dac10623a5488178783034cbe17187076e000000000000160014f44315ca28f733e0061cf5efe198af4c58bb88ff9409010000000000160014af6489801ba11ba70091ce35b79073c8129d8fbe9109010000000000160014974f9ffbda144321370090088a8fc3c78c61e47954f400000000000017a91425c520af98736377c96ddc7f039db83e2bb1e9cb87797400000000000017a9147e7b25b06207ff77c0e24070e6ff73ea8f3c716d87d58d020000000000160014f93c494fbfeb7e36ba61e6f5b19eeeb78d20b7c53536000000000000160014c7f9d0304a029319eb79405ee49e95ed1aff4d66d9ee000000000000160014f275d465093518ad33b14c8ac75a9b17b91a7c7cddee00000000000017a914f68c2e39dcb4762c87bd370f5bdf4b86dfd08cba877a870000000000001976a9148b006a85d0619c7a6e4463a0afef33787187fddf88ac7c8700000000000017a91415e80657b37a7f13d068a451b1d88a9c466da92c87b26d000000000000160014273aa13396543c7590499dd07ea8040f206c15157156000000000000160014d323ac49c38a54f292abdc2317a7f45bafe1b6820c4500000000000017a9143c2d5461e28b3125b6981d82a5109e5a4335e2e38745f3010000000000160014737dafa1bfd8300746d8814ea08e83b4d8e759838c4900000000000016001427d016b3cdb598a0a9e07e2012ca5708cc0824377f22010000000000160014ec0cc0995c86c39b22f5a0a47a4f32b8a0e7d82355f8030000000000160014d3660dcf82bbd780dc1c193fafd6329307bece269a8200000000000017a9145c809bd138225f8dc0485febcb1d9a94ec254bec87dc39000000000000160014db125054d256b4885a5fb3b65648a7a7692491d9b22201000000000017a914cc3abd169c2d51461b355b014afa5d94f56c3d708761fa020000000000160014c426a20530bb92e89bf9946a923e54ee87014241de0507000000000016001424c5a1fb5ebec1f5456a3a593cc3f55fcbd1376e39200000000000001976a914a89e09e852e037fb3f4899c520e262032e5793b388ac7c260400000000001976a914269da4044a565e6fa7107bcd7d15c256bfa937d388ac23f10100000000001600147f457ab3b6349afbd3b55e91e6fc372980a8b0f6133a00000000000017a9141514506b0d1bacf2460d4b7bc414b273a3de672587cc7c040000000000160014164e4e21994ae8b8d3d44b15f5b0b8c8f3f56f62e8d600000000000017a914cc5efe0bc1fd7b622f05ac11380d71c840f870c7871af101000000000016001447054592d77ab30bf359859b70ef656a664c10af386a000000000000160014c58e8dfbb441095715a1c7f29e7083cdb7fc63882af10300000000001976a91400dd94e297b59376531775b8fd4bd929fa6158ff88acfa6d0100000000001600143c4507c7b9f27e3709c254c887284ad5f56c426de052020000000000160014c849df277f5df40244e85dbca689ad1d42d86bc322f10100000000001600142e1bf744d3adf6433f412ac4150ee9b9bfb76ca4376a000000000000160014e3680f66476c822a066b4d522dab31abc65fbaff295a0200000000001600145fe96873ce9cc5ebf8ddb9b4238305f3aebb0334f8530000000000001976a914048b08f486e143c30dd12b6ab12e4f9c31f7011188acdf72000000000000160014566a5953d4cdaa654e0f1a86fda5eeb2941020c2ddee0000000000001600143376fb6f923c0f14c16d91b668eb6e0c10dc31e47e2201000000000017a91454ca29f382bca257ec01a7a8fbcffe58fc076c0a87df6c0000000000001600147c31133cc3b8ada2ac3ae6c2e4cfcd4b49729c0cf397020000000000160014024bb1f50b1e3da89d798a1050ad3d002f32cb28ad4f00000000000016001477086ee3f991f75e1ee31c66dd9536b2c3b4467b1d0206000000000017a914c04572cbd93b757b76529022df9ff479711e853887495a0000000000001976a9143102d1c2d650fee3d4bc0d63bd7acadd3a17329d88accd900300000000001976a91482d59d36c77758645249211a97696c268796e77b88ac0c9f1400000000001976a914b43296859145310545f3442a06905efbdb7fec4b88aca85b000000000000160014f3737feff4833dada37842cc54aac7ba7953ed1d157e2900000000001976a914c8f8e8d9a2e643ce3af99bcff9c8da15d5008ea188ac4d99010000000000160014e507b3d925d9280370d564b558c8cc63c20788ed7c6a0000000000001600141253f6853788ad7018c018076e5f0612e8a17f46feb50000000000001600149bba421686c4d0d9ff3e56348e7131fc00100d6a3b6a00000000000017a9146be738b02505c71973ca54ff73270494cb3b1f2e87f9a0000000000000160014812e0de63b36d931a04801e773c49ad2d0cc90c4e0ee000000000000160014eee04b5e9d2050b6d6e6beb61c7fe55f97988128e78901000000000017a91461a5764cd272faab7b06c77e1aa4d5ce55bd19f7879309010000000000160014ef5daa8ee0b322553d8f262d7abe0c27cdd6cea951a100000000000017a914cd77eab7a6478c23858d7917c0138f5c6faa7414872a130200000000001976a914bff49f06946d5e7456c09fc56e5c937264e481b288ac930901000000000017a9147f2cc3f78c9b882474f579002dbf7f525f13532887dd5300000000000017a914a55f8ed31638c9c847fbd39bba834f7ed379232c87db530000000000001976a91415065c59f8458abdde3763227f448a33744b07d488ac1ff10100000000001600149abd7e73cb8837aa81469c5576b4f8ad9a64e03ee2520200000000001976a9141376970aa081b3e62af9f177bc4de591d465c3e588ac1d3500000000000017a914ea05aec323197446fc5c2cafc974c4b097831a17870f34010000000000160014286b39b34cd5cc16a1faa009b75d73bc2d68397704ef00000000000017a9140894a37aa736db8d96ca1b8717748b685ab254e2878e0901000000000017a914f6d2808a1d9c90d5dcff862b3fdda5166c353410877a2201000000000017a91431e717c5d7072eeb9c224fa23d85ebe6915013e98773d40000000000001976a914cd5fe1be9aee2e03380d7b56970de697564ae7a788ac25400200000000001600140b356c3a3cfe6a9360d3847b1b703a5819ca2c5722f10100000000001976a91421f181105282ac648ff885ceaa00b9098317d7de88ac1c3500000000000017a9149699ea35757b95bfa890348ddb94e3fd188e441487865300000000000017a914c7f7665033ee02b1c103b4f2c8bac0d014fef781870859000000000000160014c94b1583a1143dc106b76da7d679024d57f259537325000000000000220020021fc63a7491629ea38b0b30ee32d88242e997dd9c6210e10bd31231a2c4397f2356010000000000160014d8303653cbacb2ffc79dab07d3d88ce3f09ad71f42f8030000000000160014e722bfab33af144e169b7b98cf49503fb1b54506497f19030000000016001461e1d7b20c7f14a2d2601928c0b116d9b06517f869170400000000001600146d5c03bb46032252bd95106be6edf3834be20348ab09010000000000160014b742a98e1ef9c61d68fd00326b493ac6f02514a2d5340000000000001600146883a95324480dba25dfdd8a72d90a119eb5ffa322f101000000000017a91466ebb5ca2ceb79f9e1af96c4ba3c4b7a1ec50e8f87539f00000000000017a9148510a7b63ed286e79c984807933ded6356d860ec87310902000000000022002044ad172e3080294ec8f68295e285cd157b6c123a7057a2e5796b7e252d5d0a910247304402200bd84d9d8a91e6d78994b5cbcd44af7894901bdfb03d12724b0dd2c88d7f54f302206d99a77832708f5f3874b57dee2352cd4efc23b6b494c20c5a04eab1412e35270121025ff6229910766426f2b075376f68819fdc3b1552d4f57e82462abf1bd801b35c0247304402207d7f2a7c45830c3785c96a8ed3cd0db93176750ae13fc22d98fccff96bc2c3e2022015de70b7348b509eba740a7083e0057583a475c943e407408870cbbe69c1c46e012102ee3482495c0765b45b9ba7490bff14b7dd0fdde444f66949d2e77571f1c5603a00000000"
}