{
  "txid": "65b6aaaae223dd472d64cba5f68996c7fde4f69c4c28b91dc65d9c5cbcc6649f",
  "version": 2,
  "locktime": 0,
  "vin": [
    {
      "txid": "05d142ecf270a2e2e3f3d59a19b94a19537ee2c333b3df6addef8a1b2e298077",
      "vout": 6,
      "prevout": {
        "scriptpubkey": "0014d42747e1debee7da83ade3f45e02f71c528beb91",
        "scriptpubkey_asm": "OP_0 OP_PUSHBYTES_20 d42747e1debee7da83ade3f45e02f71c528beb91",
        "scriptpubkey_type": "v0_p2wpkh",
        "scriptpubkey_address": "bc1q6sn50cw7hmna4qadu069uqhhr3fgh6u3qgt9zq",
        "value": 176172
      },
      "scriptsig": "",
      "scriptsig_asm": "",
      "witness": [
        "3044022030dd59847d5e710f820bda6df18a7dc7ee8abd80223cb6b793129f3ac68ac254022036dd8818b0dd899f48f1235f9923cf6eae83fd8e5b6597f83c90d2ec6ce2be9001",
        "02c39add4b3fd907b5b1a713f4a869eb73b59799b5518e11c97cef8c5c1469e417"
      ],
      "is_coinbase": false,
      "sequence": 4294967293
    }
  ],
  "vout": [
    {
      "scriptpubkey": "00146bd601c6407cc760fea4000fe2dbf06c52ef5c5f",
      "scriptpubkey_asm": "OP_0 OP_PUSHBYTES_20 6bd601c6407cc760fea4000fe2dbf06c52ef5c5f",
      "scriptpubkey_type": "v0_p2wpkh",
      "scriptpubkey_address": "bc1qd0tqr3jq0nrkpl4yqq879klsd3fw7hzl0ahje2",
      "value": 28690
    },
    {
      "scriptpubkey": "0014fc13399a4fac2648a3d5dbff1a76d834fe854765",
      "scriptpubkey_asm": "OP_0 OP_PUSHBYTES_20 fc13399a4fac2648a3d5dbff1a76d834fe854765",
      "scriptpubkey_type": "v0_p2wpkh",
      "scriptpubkey_address": "bc1qlsfnnxj04sny3g74m0l35akcxnlg23m98ms9l6",
      "value": 145952
    }
  ],
  "size": 222,
  "weight": 561,
  "fee": 1530,
  "status": {
    "confirmed": true,
    "block_height": 834464,
    "block_hash": "0000000000000000000177a0869a911a2b65c9bdcd5a8bcb02b68f305bee848e",
    "block_time": 1710308296
  },
  "hex": "020000000001017780292e1b8aefdd6adfb333c3e27e53194ab9199ad5f3e3e2a270f2ec42d1050600000000fdffffff0212700000000000001600146bd601c6407cc760fea4000fe2dbf06c52ef5c5f203a020000000000160014fc13399a4fac2648a3d5dbff1a76d834fe85476502473044022030dd59847d5e710f820bda6df18a7dc7ee8abd80223cb6b793129f3ac68ac254022036dd8818b0dd899f48f1235f9923cf6eae83fd8e5b6597f83c90d2ec6ce2be90012102c39add4b3fd907b5b1a713f4a869eb73b59799b5518e11c97cef8c5c1469e41700000000"
}