{
  "txid": "65b8d22960e35b4a7282d4d36fb546c16da9504447d91edd2f2d198b3a00a6c9",
  "version": 2,
  "locktime": 834637,
  "vin": [
    {
      "txid": "cf5defde2692c92c514841b231404db099ab1278e1a3b6bca120917f6a99c323",
      "vout": 1,
      "prevout": {
        "scriptpubkey": "0014b2ce20bcc78a1bc727fd7d2a55511bd9a3814fba",
        "scriptpubkey_asm": "OP_0 OP_PUSHBYTES_20 b2ce20bcc78a1bc727fd7d2a55511bd9a3814fba",
        "scriptpubkey_type": "v0_p2wpkh",
        "scriptpubkey_address": "bc1qkt8zp0x83gduwfla054925gmmx3czna68r9e3w",
        "value": 538897625
      },
      "scriptsig": "",
      "scriptsig_asm": "",
      "witness": [
        "30440220220e749fc927abaa1eedc4d0b46ba45d13bf5d465eb5a88d88f292a4bacd603d02206e7967057783139b8d169c89c6d80d23e77100991a585e8017b159aab2b0e51401",
        "02522095889ce9d4a6b8467f1c8cb4e66db3ada484a26af846d50016086fc7b0c5"
      ],
      "is_coinbase": false,
      "sequence": 4294967294
    }
  ],
  "vout": [
    {
      "scriptpubkey": "001440ec2844548730126d2f099e81b1c5b086df5db3",
      "scriptpubkey_asm": "OP_0 OP_PUSHBYTES_20 40ec2844548730126d2f099e81b1c5b086df5db3",
      "scriptpubkey_type": "v0_p2wpkh",
      "scriptpubkey_address": "bc1qgrkzs3z5sucpymf0px0grvw9kzrd7hdnu5v2zd",
      "value": 532816319
    },
    {
      "scriptpubkey": "001424b9a55b2b812a9b7f10eac44324c3b2086d8d41",
      "scriptpubkey_asm": "OP_0 OP_PUSHBYTES_20 24b9a55b2b812a9b7f10eac44324c3b2086d8d41",
      "scriptpubkey_type": "v0_p2wpkh",
      "scriptpubkey_address": "bc1qyju62ketsy4fklcsatzyxfxrkgyxmr2p2ecdgn",
      "value": 6077500
    }
  ],
  "size": 222,
  "weight": 561,
  "fee": 3806,
  "status": {
    "confirmed": true,
    "block_height": 834638,
    "block_hash": "000000000000000000025f742c626208ac87e0b7d15054abb4a19ca2d735a54e",
    "block_time": 1710405325
  },
  "hex": "0200000000010123c3996a7f9120a1bcb6a3e17812ab99b04d4031b24148512cc99226deef5dcf0100000000feffffff02bf21c21f0000000016001440ec2844548730126d2f099e81b1c5b086df5db33cbc5c000000000016001424b9a55b2b812a9b7f10eac44324c3b2086d8d41024730440220220e749fc927abaa1eedc4d0b46ba45d13bf5d465eb5a88d88f292a4bacd603d02206e7967057783139b8d169c89c6d80d23e77100991a585e8017b159aab2b0e514012102522095889ce9d4a6b8467f1c8cb4e66db3ada484a26af846d50016086fc7b0c54dbc0c00"
}