{
  "txid": "65c18d1223a4bb411c77ce269850f1ed098737f4327fa196a2755e6c00ab6de5",
  "version": 2,
  "locktime": 834637,
  "vin": [
    {
      "txid": "e80c9380199ad2690d4001c557e6267ec1faaa5a5d7b250e85a4250017477e1f",
      "vout": 0,
      "prevout": {
        "scriptpubkey": "00142f165244263a5b44396cb7965f26c453a6acecc7",
        "scriptpubkey_asm": "OP_0 OP_PUSHBYTES_20 2f165244263a5b44396cb7965f26c453a6acecc7",
        "scriptpubkey_type": "v0_p2wpkh",
        "scriptpubkey_address": "bc1q9ut9y3px8fd5gwtvk7t97fky2wn2emx8rdrs8p",
        "value": 46594
      },
      "scriptsig": "",
      "scriptsig_asm": "",
      "witness": [
        "3044022063ff7c540a8e15fd7d11d4f045620ef7f50a546fdedc49671e1e24b5a04180f402200a37796bfef4d60669eac9e9535b2167a2fd4522821632b4a0bb1c0fb3b9054701",
        "03a1a19fd69fb0879305306e3ec9421782ef19d435e1c0192465b4b0fdefb9425b"
      ],
      "is_coinbase": false,
      "sequence": 4294967293
    },
    {
      "txid": "7714b15a3a0eb2c2ae42c6c3b3de0b65721c13026d464c203347a9da41b7034c",
      "vout": 1,
      "prevout": {
        "scriptpubkey": "0014e852c936baf348313e37cf7aaa8516f544e3b637",
        "scriptpubkey_asm": "OP_0 OP_PUSHBYTES_20 e852c936baf348313e37cf7aaa8516f544e3b637",
        "scriptpubkey_type": "v0_p2wpkh",
        "scriptpubkey_address": "bc1qapfvjd467dyrz03heaa24pgk74zw8d3hhcuvjp",
        "value": 17232
      },
      "scriptsig": "",
      "scriptsig_asm": "",
      "witness": [
        "3044022003a19be84c69fa05dbcec4b885333a3784a65cd6bdbb00ea557b563738760ead0220033817326ca77548dec11576b2611aa277adea083784762b010b7c6c24cffd5401",
        "022561507b47015cba7e244ed8c159503ac1ed14f464cfcb491d9c0b548ee38940"
      ],
      "is_coinbase": false,
      "sequence": 4294967293
    }
  ],
  "vout": [
    {
      "scriptpubkey": "001410e652a1274c4eb1dc1f5cf9272458eaec432639",
      "scriptpubkey_asm": "OP_0 OP_PUSHBYTES_20 10e652a1274c4eb1dc1f5cf9272458eaec432639",
      "scriptpubkey_type": "v0_p2wpkh",
      "scriptpubkey_address": "bc1qzrn99gf8f38trhqltnujwfzcatkyxf3e4n2amk",
      "value": 61236
    }
  ],
  "size": 339,
  "weight": 708,
  "fee": 2590,
  "status": {
    "confirmed": true,
    "block_height": 834638,
    "block_hash": "000000000000000000025f742c626208ac87e0b7d15054abb4a19ca2d735a54e",
    "block_time": 1710405325
  },
  "hex": "020000000001021f7e47170025a4850e257b5d5aaafac17e26e657c501400d69d29a1980930ce80000000000fdffffff4c03b741daa94733204c466d02131c72650bdeb3c3c642aec2b20e3a5ab114770100000000fdffffff0134ef00000000000016001410e652a1274c4eb1dc1f5cf9272458eaec43263902473044022063ff7c540a8e15fd7d11d4f045620ef7f50a546fdedc49671e1e24b5a04180f402200a37796bfef4d60669eac9e9535b2167a2fd4522821632b4a0bb1c0fb3b90547012103a1a19fd69fb0879305306e3ec9421782ef19d435e1c0192465b4b0fdefb9425b02473044022003a19be84c69fa05dbcec4b885333a3784a65cd6bdbb00ea557b563738760ead0220033817326ca77548dec11576b2611aa277adea083784762b010b7c6c24cffd540121022561507b47015cba7e244ed8c159503ac1ed14f464cfcb491d9c0b548ee389404dbc0c00"
}