{
  "txid": "65d04046c2e30fb9748d3fe663210ae2291c63d7424ae311fefe2dd94f182c2a",
  "version": 1,
  "locktime": 0,
  "vin": [
    {
      "txid": "9cea74f2834c80e3e9a4cd13cfaed3cf4b9e39fc5e1d222784dda6aeb9fa35e4",
      "vout": 5,
      "prevout": {
        "scriptpubkey": "00148d80fecc4c36bdc5ef58ea5dae8fd7989964ef79",
        "scriptpubkey_asm": "OP_0 OP_PUSHBYTES_20 8d80fecc4c36bdc5ef58ea5dae8fd7989964ef79",
        "scriptpubkey_type": "v0_p2wpkh",
        "scriptpubkey_address": "bc1q3kq0anzvx67utm6cafw6ar7hnzvkfmmeqrnunx",
        "value": 27393
      },
      "scriptsig": "",
      "scriptsig_asm": "",
      "witness": [
        "30440220531de46c024a8e40dbb7d3f8e18cab9091e5e90e2b461e293b9431e5426ac4c202204be3291f88f51b40697be26241860aecbdc8354f01b37acb93422a8eca08aee701",
        "0390df0d1b67b1dc5613e1e8ebc5cefddd534e8e2f0fc73ed988c1bb6f929a3cd4"
      ],
      "is_coinbase": false,
      "sequence": 4294967295
    }
  ],
  "vout": [
    {
      "scriptpubkey": "0014db71541760c7eb2deffd2b438706970eea489387",
      "scriptpubkey_asm": "OP_0 OP_PUSHBYTES_20 db71541760c7eb2deffd2b438706970eea489387",
      "scriptpubkey_type": "v0_p2wpkh",
      "scriptpubkey_address": "bc1qmdc4g9mqcl4jmmla9dpcwp5hpm4y3yu8vmyfvh",
      "value": 24546
    }
  ],
  "size": 191,
  "weight": 437,
  "fee": 2847,
  "status": {
    "confirmed": true,
    "block_height": 834638,
    "block_hash": "000000000000000000025f742c626208ac87e0b7d15054abb4a19ca2d735a54e",
    "block_time": 1710405325
  },
  "hex": "01000000000101e435fab9aea6dd8427221d5efc399e4bcfd3aecf13cda4e9e3804c83f274ea9c0500000000ffffffff01e25f000000000000160014db71541760c7eb2deffd2b438706970eea489387024730440220531de46c024a8e40dbb7d3f8e18cab9091e5e90e2b461e293b9431e5426ac4c202204be3291f88f51b40697be26241860aecbdc8354f01b37acb93422a8eca08aee701210390df0d1b67b1dc5613e1e8ebc5cefddd534e8e2f0fc73ed988c1bb6f929a3cd400000000"
}