{
  "txid": "65d1b1b964611d0978f80fc588ce80fff0f97155e2ee5f785c0c16f6379e0987",
  "version": 1,
  "locktime": 0,
  "vin": [
    {
      "txid": "66862b0f2083c839acc4debb2b075e4f8193bcacee8752ef5220334eade4ff02",
      "vout": 1,
      "prevout": {
        "scriptpubkey": "001403aa0ee328f83ebd7508112039e920bac84f83ef",
        "scriptpubkey_asm": "OP_0 OP_PUSHBYTES_20 03aa0ee328f83ebd7508112039e920bac84f83ef",
        "scriptpubkey_type": "v0_p2wpkh",
        "scriptpubkey_address": "bc1qqw4qaceglqlt6aggzysrn6fqhtyylql0065hyv",
        "value": 115812
      },
      "scriptsig": "",
      "scriptsig_asm": "",
      "witness": [
        "3045022100feebe5a8517a037617cc1bb3296fb87506906a074a6af9b9e3f0e6ff31f2436302200491073759754c640e5921c4a7901f64440762e16029e657fbc8bd72e251884401",
        "036593e0a1f5696657af941d00cfb0cf6926b583af9e4f6057f4726e079c6af646"
      ],
      "is_coinbase": false,
      "sequence": 4294967295
    },
    {
      "txid": "24197915bc0e261e362b8f48c372e14584abe99d356a1e247e5d20a12d1388be",
      "vout": 2125,
      "prevout": {
        "scriptpubkey": "001403aa0ee328f83ebd7508112039e920bac84f83ef",
        "scriptpubkey_asm": "OP_0 OP_PUSHBYTES_20 03aa0ee328f83ebd7508112039e920bac84f83ef",
        "scriptpubkey_type": "v0_p2wpkh",
        "scriptpubkey_address": "bc1qqw4qaceglqlt6aggzysrn6fqhtyylql0065hyv",
        "value": 178276
      },
      "scriptsig": "",
      "scriptsig_asm": "",
      "witness": [
        "3045022100dea588daec0875a665d7b220e1a27f15c1dfe6bd8af0cb34da4417e75fd710f802204a0fc4775411e4bd5820927d8c1da5edf958662339bd83b9bf3d37f7f7e946a001",
        "036593e0a1f5696657af941d00cfb0cf6926b583af9e4f6057f4726e079c6af646"
      ],
      "is_coinbase": false,
      "sequence": 4294967295
    },
    {
      "txid": "fd5c67de3666db578d2380de30a9254cd69e901cb9ee8b4651c44d0b4edb95dd",
      "vout": 2262,
      "prevout": {
        "scriptpubkey": "001403aa0ee328f83ebd7508112039e920bac84f83ef",
        "scriptpubkey_asm": "OP_0 OP_PUSHBYTES_20 03aa0ee328f83ebd7508112039e920bac84f83ef",
        "scriptpubkey_type": "v0_p2wpkh",
        "scriptpubkey_address": "bc1qqw4qaceglqlt6aggzysrn6fqhtyylql0065hyv",
        "value": 179876
      },
      "scriptsig": "",
      "scriptsig_asm": "",
      "witness": [
        "30450221009068955d2dba1a339b92d9f3602aa38605c5e8330a18de48d725cf502dbcbd320220094e873814c5e0788f069a6241c2e55fa2a13a53834b5048b072b428c766fbc201",
        "036593e0a1f5696657af941d00cfb0cf6926b583af9e4f6057f4726e079c6af646"
      ],
      "is_coinbase": false,
      "sequence": 4294967295
    },
    {
      "txid": "db024952e5329b7082eb7c4a344fa18d5166bbcb75a49558d57734c526d6f685",
      "vout": 1,
      "prevout": {
        "scriptpubkey": "001403aa0ee328f83ebd7508112039e920bac84f83ef",
        "scriptpubkey_asm": "OP_0 OP_PUSHBYTES_20 03aa0ee328f83ebd7508112039e920bac84f83ef",
        "scriptpubkey_type": "v0_p2wpkh",
        "scriptpubkey_address": "bc1qqw4qaceglqlt6aggzysrn6fqhtyylql0065hyv",
        "value": 206620
      },
      "scriptsig": "",
      "scriptsig_asm": "",
      "witness": [
        "304502210080341a30dd6dd39334bb5e5ee5c6c7041045c942825b264e7bda6079f35a3e5f0220776b7f8931466078349da2a25dc1cab06c4528c9ef0c593633e3b223a1af3f2d01",
        "036593e0a1f5696657af941d00cfb0cf6926b583af9e4f6057f4726e079c6af646"
      ],
      "is_coinbase": false,
      "sequence": 4294967295
    },
    {
      "txid": "bf0d5513d6aa0e29f2f8b24ce83e3143bcb8ce08246acec203b63e61bf6f63df",
      "vout": 2238,
      "prevout": {
        "scriptpubkey": "001403aa0ee328f83ebd7508112039e920bac84f83ef",
        "scriptpubkey_asm": "OP_0 OP_PUSHBYTES_20 03aa0ee328f83ebd7508112039e920bac84f83ef",
        "scriptpubkey_type": "v0_p2wpkh",
        "scriptpubkey_address": "bc1qqw4qaceglqlt6aggzysrn6fqhtyylql0065hyv",
        "value": 251690
      },
      "scriptsig": "",
      "scriptsig_asm": "",
      "witness": [
        "3044022030004c2fddfac511651aa692f0bea42dbd4b4a0ebf7e44a3cfba98bfd55eaab9022028686b2dffb43bb459c361768f720270acd4b02f4425561e9293de05dfcf398a01",
        "036593e0a1f5696657af941d00cfb0cf6926b583af9e4f6057f4726e079c6af646"
      ],
      "is_coinbase": false,
      "sequence": 4294967295
    },
    {
      "txid": "9d0cb71e0340049dab450f438df523c68a6569c5cb7c3899dddbab1b6dc2c24b",
      "vout": 2329,
      "prevout": {
        "scriptpubkey": "001403aa0ee328f83ebd7508112039e920bac84f83ef",
        "scriptpubkey_asm": "OP_0 OP_PUSHBYTES_20 03aa0ee328f83ebd7508112039e920bac84f83ef",
        "scriptpubkey_type": "v0_p2wpkh",
        "scriptpubkey_address": "bc1qqw4qaceglqlt6aggzysrn6fqhtyylql0065hyv",
        "value": 272996
      },
      "scriptsig": "",
      "scriptsig_asm": "",
      "witness": [
        "304502210082f8d597d9bd72eb25927b58a333d3ad2fb2e0f73b825f7baf87ac808fb8d63c0220210f110d8f3be1f23edc33e9cd90b3fdea446c29189675d4cab4d91a503c174601",
        "036593e0a1f5696657af941d00cfb0cf6926b583af9e4f6057f4726e079c6af646"
      ],
      "is_coinbase": false,
      "sequence": 4294967295
    }
  ],
  "vout": [
    {
      "scriptpubkey": "76a9148c83a84b8d3e40dbdaf9713811484b2a204e7f9888ac",
      "scriptpubkey_asm": "OP_DUP OP_HASH160 OP_PUSHBYTES_20 8c83a84b8d3e40dbdaf9713811484b2a204e7f98 OP_EQUALVERIFY OP_CHECKSIG",
      "scriptpubkey_type": "p2pkh",
      "scriptpubkey_address": "1DoyKaEVnN6Q3D2NNrwrxqbnDSGY6SAyZx",
      "value": 1100000
    },
    {
      "scriptpubkey": "001403aa0ee328f83ebd7508112039e920bac84f83ef",
      "scriptpubkey_asm": "OP_0 OP_PUSHBYTES_20 03aa0ee328f83ebd7508112039e920bac84f83ef",
      "scriptpubkey_type": "v0_p2wpkh",
      "scriptpubkey_address": "bc1qqw4qaceglqlt6aggzysrn6fqhtyylql0065hyv",
      "value": 92202
    }
  ],
  "size": 970,
  "weight": 1933,
  "fee": 13068,
  "status": {
    "confirmed": true,
    "block_height": 834638,
    "block_hash": "000000000000000000025f742c626208ac87e0b7d15054abb4a19ca2d735a54e",
    "block_time": 1710405325
  },
  "hex": "0100000000010602ffe4ad4e332052ef5287eeacbc93814f5e072bbbdec4ac39c883200f2b86660100000000ffffffffbe88132da1205d7e241e6a359de9ab8445e172c3488f2b361e260ebc157919244d08000000ffffffffdd95db4e0b4dc451468beeb91c909ed64c25a930de80238d57db6636de675cfdd608000000ffffffff85f6d626c53477d55895a475cbbb66518da14f344a7ceb82709b32e5524902db0100000000ffffffffdf636fbf613eb603c2ce6a2408ceb8bc43313ee84cb2f8f2290eaad613550dbfbe08000000ffffffff4bc2c26d1babdbdd99387ccbc569658ac623f58d430f45ab9d0440031eb70c9d1909000000ffffffff02e0c81000000000001976a9148c83a84b8d3e40dbdaf9713811484b2a204e7f9888ac2a6801000000000016001403aa0ee328f83ebd7508112039e920bac84f83ef02483045022100feebe5a8517a037617cc1bb3296fb87506906a074a6af9b9e3f0e6ff31f2436302200491073759754c640e5921c4a7901f64440762e16029e657fbc8bd72e25188440121036593e0a1f5696657af941d00cfb0cf6926b583af9e4f6057f4726e079c6af64602483045022100dea588daec0875a665d7b220e1a27f15c1dfe6bd8af0cb34da4417e75fd710f802204a0fc4775411e4bd5820927d8c1da5edf958662339bd83b9bf3d37f7f7e946a00121036593e0a1f5696657af941d00cfb0cf6926b583af9e4f6057f4726e079c6af646024830450221009068955d2dba1a339b92d9f3602aa38605c5e8330a18de48d725cf502dbcbd320220094e873814c5e0788f069a6241c2e55fa2a13a53834b5048b072b428c766fbc20121036593e0a1f5696657af941d00cfb0cf6926b583af9e4f6057f4726e079c6af6460248304502210080341a30dd6dd39334bb5e5ee5c6c7041045c942825b264e7bda6079f35a3e5f0220776b7f8931466078349da2a25dc1cab06c4528c9ef0c593633e3b223a1af3f2d0121036593e0a1f5696657af941d00cfb0cf6926b583af9e4f6057f4726e079c6af64602473044022030004c2fddfac511651aa692f0bea42dbd4b4a0ebf7e44a3cfba98bfd55eaab9022028686b2dffb43bb459c361768f720270acd4b02f4425561e9293de05dfcf398a0121036593e0a1f5696657af941d00cfb0cf6926b583af9e4f6057f4726e079c6af6460248304502210082f8d597d9bd72eb25927b58a333d3ad2fb2e0f73b825f7baf87ac808fb8d63c0220210f110d8f3be1f23edc33e9cd90b3fdea446c29189675d4cab4d91a503c17460121036593e0a1f5696657af941d00cfb0cf6926b583af9e4f6057f4726e079c6af64600000000"
}