{
  "txid": "65d249fa9930b31c192034e7f039e51c17e0a5ce9470adad12eb2b1dbef5a080",
  "version": 2,
  "locktime": 0,
  "vin": [
    {
      "txid": "80c7d686f0889d499ddcdeb83c651559060073be5076368b727515e8a6fd4e7e",
      "vout": 5,
      "prevout": {
        "scriptpubkey": "5120be951788baf076e486e6ebe0f82a1b7f77bf92114a50453d94fe02d9746e2b1e",
        "scriptpubkey_asm": "OP_PUSHNUM_1 OP_PUSHBYTES_32 be951788baf076e486e6ebe0f82a1b7f77bf92114a50453d94fe02d9746e2b1e",
        "scriptpubkey_type": "v1_p2tr",
        "scriptpubkey_address": "bc1ph6230z967pmwfphxa0s0s2sm0ammlys3ffgy20v5lcpdjarw9v0q8ssywx",
        "value": 4169
      },
      "scriptsig": "",
      "scriptsig_asm": "",
      "witness": [
        "85a4647af2acd021a9e5adcb8f9b922056099ae4494cb127df769ea8f4e51e673d5b72f7a0c98df54fc7928918dbb529f8967230e7e96ca7a2f9317849cf140b"
      ],
      "is_coinbase": false,
      "sequence": 4294967293
    },
    {
      "txid": "d2ee4570d8ad704b6cea8d0b2d7a1cf74e622c2f582278e237ebab9a0e658675",
      "vout": 0,
      "prevout": {
        "scriptpubkey": "5120be951788baf076e486e6ebe0f82a1b7f77bf92114a50453d94fe02d9746e2b1e",
        "scriptpubkey_asm": "OP_PUSHNUM_1 OP_PUSHBYTES_32 be951788baf076e486e6ebe0f82a1b7f77bf92114a50453d94fe02d9746e2b1e",
        "scriptpubkey_type": "v1_p2tr",
        "scriptpubkey_address": "bc1ph6230z967pmwfphxa0s0s2sm0ammlys3ffgy20v5lcpdjarw9v0q8ssywx",
        "value": 1200
      },
      "scriptsig": "",
      "scriptsig_asm": "",
      "witness": [
        "a0ea64ec212772abfcaaf02b1c5650c5de5e26b2a45ff469cac7b3ef72acf78c77d2848202f13229c6d6652e496f85dc64e4755c3b359c9450a1832e4c4b4c79"
      ],
      "is_coinbase": false,
      "sequence": 4294967293
    },
    {
      "txid": "20f395caaf7f35142f3b257a7a8b62e2ac3c5ca8a6ea3829c8e698fb5dace1b1",
      "vout": 0,
      "prevout": {
        "scriptpubkey": "5120be951788baf076e486e6ebe0f82a1b7f77bf92114a50453d94fe02d9746e2b1e",
        "scriptpubkey_asm": "OP_PUSHNUM_1 OP_PUSHBYTES_32 be951788baf076e486e6ebe0f82a1b7f77bf92114a50453d94fe02d9746e2b1e",
        "scriptpubkey_type": "v1_p2tr",
        "scriptpubkey_address": "bc1ph6230z967pmwfphxa0s0s2sm0ammlys3ffgy20v5lcpdjarw9v0q8ssywx",
        "value": 1200
      },
      "scriptsig": "",
      "scriptsig_asm": "",
      "witness": [
        "a948e272202a95025ac1bc125e4ace8aba5c985fbe304f3b1b6f33a3e8d32ea0979dd53391c3d7e2b58409bc325bf3436732ad7c5bcffa9cf07ffde77a955021"
      ],
      "is_coinbase": false,
      "sequence": 4294967293
    },
    {
      "txid": "0bcfa922462f40db09a3695fd79d285614fd235c56f8dc04015b72159857cbdf",
      "vout": 0,
      "prevout": {
        "scriptpubkey": "5120be951788baf076e486e6ebe0f82a1b7f77bf92114a50453d94fe02d9746e2b1e",
        "scriptpubkey_asm": "OP_PUSHNUM_1 OP_PUSHBYTES_32 be951788baf076e486e6ebe0f82a1b7f77bf92114a50453d94fe02d9746e2b1e",
        "scriptpubkey_type": "v1_p2tr",
        "scriptpubkey_address": "bc1ph6230z967pmwfphxa0s0s2sm0ammlys3ffgy20v5lcpdjarw9v0q8ssywx",
        "value": 1200
      },
      "scriptsig": "",
      "scriptsig_asm": "",
      "witness": [
        "39e5bf49fd5f00cdd814b432a7746dd2f685e16bb8a16d7aae98202b996838f5733fbbb51d41801667ae4048949e28aced02025761a1d2e940548d233267458e"
      ],
      "is_coinbase": false,
      "sequence": 4294967293
    },
    {
      "txid": "d1a4cc69fe604eb62a65f686f1260548a9b33ee13e4dec667dcbb724b976ce88",
      "vout": 0,
      "prevout": {
        "scriptpubkey": "5120be951788baf076e486e6ebe0f82a1b7f77bf92114a50453d94fe02d9746e2b1e",
        "scriptpubkey_asm": "OP_PUSHNUM_1 OP_PUSHBYTES_32 be951788baf076e486e6ebe0f82a1b7f77bf92114a50453d94fe02d9746e2b1e",
        "scriptpubkey_type": "v1_p2tr",
        "scriptpubkey_address": "bc1ph6230z967pmwfphxa0s0s2sm0ammlys3ffgy20v5lcpdjarw9v0q8ssywx",
        "value": 1200
      },
      "scriptsig": "",
      "scriptsig_asm": "",
      "witness": [
        "2e46f221f5f124c433039a86a35940bf754e92e85a28675edf1f57033e9055e218500829d60fcaeca42ed88a9851af02433e0c96f39c15daab6e6c50bfc771e4"
      ],
      "is_coinbase": false,
      "sequence": 4294967293
    }
  ],
  "vout": [
    {
      "scriptpubkey": "5120dea2b15282ed13334cae86a6919409c17d37182b0fab11d7bef7c0a97bac3979",
      "scriptpubkey_asm": "OP_PUSHNUM_1 OP_PUSHBYTES_32 dea2b15282ed13334cae86a6919409c17d37182b0fab11d7bef7c0a97bac3979",
      "scriptpubkey_type": "v1_p2tr",
      "scriptpubkey_address": "bc1pm63tz55za5fnxn9ws6nfr9qfc97nwxptp743r4a77lq2j7av89us6kx8ex",
      "value": 3130
    }
  ],
  "size": 590,
  "weight": 1364,
  "fee": 5839,
  "status": {
    "confirmed": true,
    "block_height": 834638,
    "block_hash": "000000000000000000025f742c626208ac87e0b7d15054abb4a19ca2d735a54e",
    "block_time": 1710405325
  },
  "hex": "020000000001057e4efda6e81575728b367650be7300065915653cb8dedc9d499d88f086d6c7800500000000fdffffff7586650e9aabeb37e27822582f2c624ef71c7a2d0b8dea6c4b70add87045eed20000000000fdffffffb1e1ac5dfb98e6c82938eaa6a85c3cace2628b7a7a253b2f14357fafca95f3200000000000fdffffffdfcb579815725b0104dcf8565c23fd1456289dd75f69a309db402f4622a9cf0b0000000000fdffffff88ce76b924b7cb7d66ec4d3ee13eb3a9480526f186f6652ab64e60fe69cca4d10000000000fdffffff013a0c000000000000225120dea2b15282ed13334cae86a6919409c17d37182b0fab11d7bef7c0a97bac3979014085a4647af2acd021a9e5adcb8f9b922056099ae4494cb127df769ea8f4e51e673d5b72f7a0c98df54fc7928918dbb529f8967230e7e96ca7a2f9317849cf140b0140a0ea64ec212772abfcaaf02b1c5650c5de5e26b2a45ff469cac7b3ef72acf78c77d2848202f13229c6d6652e496f85dc64e4755c3b359c9450a1832e4c4b4c790140a948e272202a95025ac1bc125e4ace8aba5c985fbe304f3b1b6f33a3e8d32ea0979dd53391c3d7e2b58409bc325bf3436732ad7c5bcffa9cf07ffde77a955021014039e5bf49fd5f00cdd814b432a7746dd2f685e16bb8a16d7aae98202b996838f5733fbbb51d41801667ae4048949e28aced02025761a1d2e940548d233267458e01402e46f221f5f124c433039a86a35940bf754e92e85a28675edf1f57033e9055e218500829d60fcaeca42ed88a9851af02433e0c96f39c15daab6e6c50bfc771e400000000"
}