{
  "txid": "65e2138c619783e9887eb8693da7c354792785fa7cb7f80a30c7a427eb01ab2e",
  "version": 1,
  "locktime": 0,
  "vin": [
    {
      "txid": "a4e470039a535c7e9ad3ec7581f922a00d5db980e76c6a13152cd4408a727e8b",
      "vout": 0,
      "prevout": {
        "scriptpubkey": "76a914b36f1e5797e6f4b72ac657a779d33caf57df54e388ac",
        "scriptpubkey_asm": "OP_DUP OP_HASH160 OP_PUSHBYTES_20 b36f1e5797e6f4b72ac657a779d33caf57df54e3 OP_EQUALVERIFY OP_CHECKSIG",
        "scriptpubkey_type": "p2pkh",
        "scriptpubkey_address": "1HMm4zJoKFgRkuVBcHFvzJPZX4ZpBLDocz",
        "value": 15800499
      },
      "scriptsig": "47304402206462db34bdcc8aa121851a9cb514608f2fe87eb6b78d7c4825476e2fb7c0699a02207671306a2761a5f41ad8e561ee596400d123d1af1774ab11147c8f7091d5ea56012102673f25f650e8e0b9fe84d6c0c42dd33745c7e0aea8b994f5c5a832b9cee43d43",
      "scriptsig_asm": "OP_PUSHBYTES_71 304402206462db34bdcc8aa121851a9cb514608f2fe87eb6b78d7c4825476e2fb7c0699a02207671306a2761a5f41ad8e561ee596400d123d1af1774ab11147c8f7091d5ea5601 OP_PUSHBYTES_33 02673f25f650e8e0b9fe84d6c0c42dd33745c7e0aea8b994f5c5a832b9cee43d43",
      "is_coinbase": false,
      "sequence": 4294967295
    },
    {
      "txid": "e05eddf064c0803d766cdfdbbbf0a5b86cba6eb0ddfe2e4285ab0ad9349a4526",
      "vout": 0,
      "prevout": {
        "scriptpubkey": "76a914bf68b55d99fc16c440b35865031300796765479688ac",
        "scriptpubkey_asm": "OP_DUP OP_HASH160 OP_PUSHBYTES_20 bf68b55d99fc16c440b358650313007967654796 OP_EQUALVERIFY OP_CHECKSIG",
        "scriptpubkey_type": "p2pkh",
        "scriptpubkey_address": "1JT5VuqLRHMj6tZrrCj62iLXbTaPTQsBmv",
        "value": 13905575
      },
      "scriptsig": "4830450221009f27138c68c613736ee0212b8fd49486716af1af4961b16a976f82ccdd0d92b602205ee32fac3ff135ea36cae272e4dd00cab58cb70fd46a74e0fa1c0d7d1663abd401210327dd41cf95482fd5c929ce87b8ddf6498e05dac0b5d537ef6a3e50f242a7fd09",
      "scriptsig_asm": "OP_PUSHBYTES_72 30450221009f27138c68c613736ee0212b8fd49486716af1af4961b16a976f82ccdd0d92b602205ee32fac3ff135ea36cae272e4dd00cab58cb70fd46a74e0fa1c0d7d1663abd401 OP_PUSHBYTES_33 0327dd41cf95482fd5c929ce87b8ddf6498e05dac0b5d537ef6a3e50f242a7fd09",
      "is_coinbase": false,
      "sequence": 4294967295
    }
  ],
  "vout": [
    {
      "scriptpubkey": "76a9143936d2b7bbc6ca1ec1098e53152b8b2d851bda9a88ac",
      "scriptpubkey_asm": "OP_DUP OP_HASH160 OP_PUSHBYTES_20 3936d2b7bbc6ca1ec1098e53152b8b2d851bda9a OP_EQUALVERIFY OP_CHECKSIG",
      "scriptpubkey_type": "p2pkh",
      "scriptpubkey_address": "16DXC7T8fsgdJ4bjZCjm4iZQ7b3xuNC4Ff",
      "value": 27265345
    },
    {
      "scriptpubkey": "76a9149bf4c85942b1f0230c05c1712868b0cf1e2e26a688ac",
      "scriptpubkey_asm": "OP_DUP OP_HASH160 OP_PUSHBYTES_20 9bf4c85942b1f0230c05c1712868b0cf1e2e26a6 OP_EQUALVERIFY OP_CHECKSIG",
      "scriptpubkey_type": "p2pkh",
      "scriptpubkey_address": "1FDcyXcQ64D5MNNpPwJg1x4RzV8rV6AfeD",
      "value": 2434745
    }
  ],
  "size": 373,
  "weight": 1492,
  "fee": 5984,
  "status": {
    "confirmed": true,
    "block_height": 834638,
    "block_hash": "000000000000000000025f742c626208ac87e0b7d15054abb4a19ca2d735a54e",
    "block_time": 1710405325
  },
  "hex": "01000000028b7e728a40d42c15136a6ce780b95d0da022f98175ecd39a7e5c539a0370e4a4000000006a47304402206462db34bdcc8aa121851a9cb514608f2fe87eb6b78d7c4825476e2fb7c0699a02207671306a2761a5f41ad8e561ee596400d123d1af1774ab11147c8f7091d5ea56012102673f25f650e8e0b9fe84d6c0c42dd33745c7e0aea8b994f5c5a832b9cee43d43ffffffff26459a34d90aab85422efeddb06eba6cb8a5f0bbdbdf6c763d80c064f0dd5ee0000000006b4830450221009f27138c68c613736ee0212b8fd49486716af1af4961b16a976f82ccdd0d92b602205ee32fac3ff135ea36cae272e4dd00cab58cb70fd46a74e0fa1c0d7d1663abd401210327dd41cf95482fd5c929ce87b8ddf6498e05dac0b5d537ef6a3e50f242a7fd09ffffffff024109a001000000001976a9143936d2b7bbc6ca1ec1098e53152b8b2d851bda9a88acb9262500000000001976a9149bf4c85942b1f0230c05c1712868b0cf1e2e26a688ac00000000"
}