{
  "txid": "660670fb9f573123490dc84c058230712e4cefac3f1d2423814e57ab3e4c2f51",
  "version": 2,
  "locktime": 0,
  "vin": [
    {
      "txid": "9d2a3d36db09be26110ba8085024cf6a801cd29c6766b965c4a338a52c33326f",
      "vout": 1,
      "prevout": {
        "scriptpubkey": "00140ce92c6c1249a327be5ab2c481cd486fd348d712",
        "scriptpubkey_asm": "OP_0 OP_PUSHBYTES_20 0ce92c6c1249a327be5ab2c481cd486fd348d712",
        "scriptpubkey_type": "v0_p2wpkh",
        "scriptpubkey_address": "bc1qpn5jcmqjfx3j00j6ktzgrn2gdlf534cjcgtwdq",
        "value": 8378365799
      },
      "scriptsig": "",
      "scriptsig_asm": "",
      "witness": [
        "3045022100e22b178ee4ebbc6048e8e6f3c7f38901fa653c0c0692d9ac4bd5d4329f125d4302200a111a960659eef83d50e0460e3e559757ce63788d3223045d5d3ad7cf23fc3e01",
        "033ea9a1153dc7048b658e7bdcbcea50910716f81a5d4cd73786a558edbbefa045"
      ],
      "is_coinbase": false,
      "sequence": 4294967293
    }
  ],
  "vout": [
    {
      "scriptpubkey": "a914acdbb69efbedd7cf265bb243947d9b6c6d4c1e1a87",
      "scriptpubkey_asm": "OP_HASH160 OP_PUSHBYTES_20 acdbb69efbedd7cf265bb243947d9b6c6d4c1e1a OP_EQUAL",
      "scriptpubkey_type": "p2sh",
      "scriptpubkey_address": "3HT1MVQzBbphZzESS5e36E68XqycDu8xEr",
      "value": 3501702466
    },
    {
      "scriptpubkey": "51207135a6f049bf5e6cf24d290942b9d01492e468ea8db0554d6f0fc09924d41c91",
      "scriptpubkey_asm": "OP_PUSHNUM_1 OP_PUSHBYTES_32 7135a6f049bf5e6cf24d290942b9d01492e468ea8db0554d6f0fc09924d41c91",
      "scriptpubkey_type": "v1_p2tr",
      "scriptpubkey_address": "bc1pwy66duzfha0xeujd9yy59wwszjfwg6823kc92nt0plqfjfx5rjgsc8su3u",
      "value": 546
    },
    {
      "scriptpubkey": "a914acdbb69efbedd7cf265bb243947d9b6c6d4c1e1a87",
      "scriptpubkey_asm": "OP_HASH160 OP_PUSHBYTES_20 acdbb69efbedd7cf265bb243947d9b6c6d4c1e1a OP_EQUAL",
      "scriptpubkey_type": "p2sh",
      "scriptpubkey_address": "3HT1MVQzBbphZzESS5e36E68XqycDu8xEr",
      "value": 2653331841
    },
    {
      "scriptpubkey": "51207135a6f049bf5e6cf24d290942b9d01492e468ea8db0554d6f0fc09924d41c91",
      "scriptpubkey_asm": "OP_PUSHNUM_1 OP_PUSHBYTES_32 7135a6f049bf5e6cf24d290942b9d01492e468ea8db0554d6f0fc09924d41c91",
      "scriptpubkey_type": "v1_p2tr",
      "scriptpubkey_address": "bc1pwy66duzfha0xeujd9yy59wwszjfwg6823kc92nt0plqfjfx5rjgsc8su3u",
      "value": 546
    },
    {
      "scriptpubkey": "a914acdbb69efbedd7cf265bb243947d9b6c6d4c1e1a87",
      "scriptpubkey_asm": "OP_HASH160 OP_PUSHBYTES_20 acdbb69efbedd7cf265bb243947d9b6c6d4c1e1a OP_EQUAL",
      "scriptpubkey_type": "p2sh",
      "scriptpubkey_address": "3HT1MVQzBbphZzESS5e36E68XqycDu8xEr",
      "value": 2223326422
    }
  ],
  "size": 343,
  "weight": 1042,
  "fee": 3978,
  "status": {
    "confirmed": true,
    "block_height": 834638,
    "block_hash": "000000000000000000025f742c626208ac87e0b7d15054abb4a19ca2d735a54e",
    "block_time": 1710405325
  },
  "hex": "020000000001016f32332ca538a3c465b966679cd21c806acf245008a80b1126be09db363d2a9d0100000000fdffffff0542bdb7d00000000017a914acdbb69efbedd7cf265bb243947d9b6c6d4c1e1a8722020000000000002251207135a6f049bf5e6cf24d290942b9d01492e468ea8db0554d6f0fc09924d41c9181a1269e0000000017a914acdbb69efbedd7cf265bb243947d9b6c6d4c1e1a8722020000000000002251207135a6f049bf5e6cf24d290942b9d01492e468ea8db0554d6f0fc09924d41c91d64485840000000017a914acdbb69efbedd7cf265bb243947d9b6c6d4c1e1a8702483045022100e22b178ee4ebbc6048e8e6f3c7f38901fa653c0c0692d9ac4bd5d4329f125d4302200a111a960659eef83d50e0460e3e559757ce63788d3223045d5d3ad7cf23fc3e0121033ea9a1153dc7048b658e7bdcbcea50910716f81a5d4cd73786a558edbbefa04500000000"
}