{
  "txid": "661e79c007bdf06e444f33fa862214fd22e12e6959f5096c9a9aa4ebcc1dc4ea",
  "version": 2,
  "locktime": 0,
  "vin": [
    {
      "txid": "99d2a505cda1df132f0ad4711dfc646a37a8216d75523e9a9c14e83957bf196f",
      "vout": 6,
      "prevout": {
        "scriptpubkey": "5120b28d111acf6b6483216fe94afe8e651450b8b555fd6e25d7f9ff1d32ff026288",
        "scriptpubkey_asm": "OP_PUSHNUM_1 OP_PUSHBYTES_32 b28d111acf6b6483216fe94afe8e651450b8b555fd6e25d7f9ff1d32ff026288",
        "scriptpubkey_type": "v1_p2tr",
        "scriptpubkey_address": "bc1pk2x3zxk0ddjgxgt0a990arn9z3gt3d24l4hzt4leluwn9lczv2yqvcstjh",
        "value": 15741
      },
      "scriptsig": "",
      "scriptsig_asm": "",
      "witness": [
        "1bf3a8dacfc6d6103c9c6aa3f9a15224c640c5ffb0785ba3c80473513ea10f133205f9d2120690d490cd096c305ae3a9fb7251e39c8838d07113264322836f92"
      ],
      "is_coinbase": false,
      "sequence": 2147483649
    },
    {
      "txid": "94cb6d32ea28660870e03ee069400d33c4e6b0a2d7202561ba49d5e5819244cf",
      "vout": 1,
      "prevout": {
        "scriptpubkey": "5120b28d111acf6b6483216fe94afe8e651450b8b555fd6e25d7f9ff1d32ff026288",
        "scriptpubkey_asm": "OP_PUSHNUM_1 OP_PUSHBYTES_32 b28d111acf6b6483216fe94afe8e651450b8b555fd6e25d7f9ff1d32ff026288",
        "scriptpubkey_type": "v1_p2tr",
        "scriptpubkey_address": "bc1pk2x3zxk0ddjgxgt0a990arn9z3gt3d24l4hzt4leluwn9lczv2yqvcstjh",
        "value": 6233
      },
      "scriptsig": "",
      "scriptsig_asm": "",
      "witness": [
        "e49a8ca855cd4d2d2d21fb321779318b00bf42d30f92f741aeefeba17130746628a8c93aef4b2f7ed366ed05894eeffaf39114f82fbb6b03b93e937926654d8c"
      ],
      "is_coinbase": false,
      "sequence": 2147483649
    },
    {
      "txid": "9d6e64900fccfa865e15b9c33da2f694858acbfae42ab5d84b2fcf4606bb2fa9",
      "vout": 0,
      "prevout": {
        "scriptpubkey": "5120b28d111acf6b6483216fe94afe8e651450b8b555fd6e25d7f9ff1d32ff026288",
        "scriptpubkey_asm": "OP_PUSHNUM_1 OP_PUSHBYTES_32 b28d111acf6b6483216fe94afe8e651450b8b555fd6e25d7f9ff1d32ff026288",
        "scriptpubkey_type": "v1_p2tr",
        "scriptpubkey_address": "bc1pk2x3zxk0ddjgxgt0a990arn9z3gt3d24l4hzt4leluwn9lczv2yqvcstjh",
        "value": 1200
      },
      "scriptsig": "",
      "scriptsig_asm": "",
      "witness": [
        "691339d84df733986cfd43a86fbe38867136423904df40162fd7ca6173ca11ab40fd8f7e47ddb646fe211f87daaa5438a4959990c59b94936764704c4e0888e2"
      ],
      "is_coinbase": false,
      "sequence": 2147483649
    },
    {
      "txid": "99d2a505cda1df132f0ad4711dfc646a37a8216d75523e9a9c14e83957bf196f",
      "vout": 0,
      "prevout": {
        "scriptpubkey": "5120b28d111acf6b6483216fe94afe8e651450b8b555fd6e25d7f9ff1d32ff026288",
        "scriptpubkey_asm": "OP_PUSHNUM_1 OP_PUSHBYTES_32 b28d111acf6b6483216fe94afe8e651450b8b555fd6e25d7f9ff1d32ff026288",
        "scriptpubkey_type": "v1_p2tr",
        "scriptpubkey_address": "bc1pk2x3zxk0ddjgxgt0a990arn9z3gt3d24l4hzt4leluwn9lczv2yqvcstjh",
        "value": 1200
      },
      "scriptsig": "",
      "scriptsig_asm": "",
      "witness": [
        "e6ef961bafe57525dbd13cda2dc1af7181f14370be2dd7d06a06bb48a9777a6efe1ccb7ed89422c54bcfc79b321313dec6f46ab53065ee8e171adc730ebb00f0"
      ],
      "is_coinbase": false,
      "sequence": 2147483649
    },
    {
      "txid": "5bef5402d02edc2ef34275a9096c05e2559039907aeed2db8dce1562aa958085",
      "vout": 0,
      "prevout": {
        "scriptpubkey": "5120b28d111acf6b6483216fe94afe8e651450b8b555fd6e25d7f9ff1d32ff026288",
        "scriptpubkey_asm": "OP_PUSHNUM_1 OP_PUSHBYTES_32 b28d111acf6b6483216fe94afe8e651450b8b555fd6e25d7f9ff1d32ff026288",
        "scriptpubkey_type": "v1_p2tr",
        "scriptpubkey_address": "bc1pk2x3zxk0ddjgxgt0a990arn9z3gt3d24l4hzt4leluwn9lczv2yqvcstjh",
        "value": 1200
      },
      "scriptsig": "",
      "scriptsig_asm": "",
      "witness": [
        "76b040d5a8e0407a05e6b98f1adf38f4fe934f208e92cbcf3cf34e1ba69a3abfaa645af001c2636929f3c60bf7e81d49af7a1777318afd1b8065e601cd17beae"
      ],
      "is_coinbase": false,
      "sequence": 2147483649
    },
    {
      "txid": "b8fc6c5e8cbb55a8239287f9054daf253a5c39c997521812cb985e5bec9db6cd",
      "vout": 0,
      "prevout": {
        "scriptpubkey": "5120b28d111acf6b6483216fe94afe8e651450b8b555fd6e25d7f9ff1d32ff026288",
        "scriptpubkey_asm": "OP_PUSHNUM_1 OP_PUSHBYTES_32 b28d111acf6b6483216fe94afe8e651450b8b555fd6e25d7f9ff1d32ff026288",
        "scriptpubkey_type": "v1_p2tr",
        "scriptpubkey_address": "bc1pk2x3zxk0ddjgxgt0a990arn9z3gt3d24l4hzt4leluwn9lczv2yqvcstjh",
        "value": 1200
      },
      "scriptsig": "",
      "scriptsig_asm": "",
      "witness": [
        "80db1e0bdc6a1636a12ef9d930b0ef2af72902c29eb356f936a8fca1e8b2b2b100da355b226cdb5bf3c00ae11d6928c2cb63f19c2a0435771fa566b837233b43"
      ],
      "is_coinbase": false,
      "sequence": 2147483649
    },
    {
      "txid": "e3f96d06c43b1d2a0e93d75e49723cbcb73722e65daa271ba529d1727b9dbb91",
      "vout": 0,
      "prevout": {
        "scriptpubkey": "5120b28d111acf6b6483216fe94afe8e651450b8b555fd6e25d7f9ff1d32ff026288",
        "scriptpubkey_asm": "OP_PUSHNUM_1 OP_PUSHBYTES_32 b28d111acf6b6483216fe94afe8e651450b8b555fd6e25d7f9ff1d32ff026288",
        "scriptpubkey_type": "v1_p2tr",
        "scriptpubkey_address": "bc1pk2x3zxk0ddjgxgt0a990arn9z3gt3d24l4hzt4leluwn9lczv2yqvcstjh",
        "value": 1200
      },
      "scriptsig": "",
      "scriptsig_asm": "",
      "witness": [
        "347477d64f6118d3af272cfd9031d63baad355191530cfec3e955a0208405351391414583e91dd8e975fa94fe18faf9451224f9791109ef59a06f509bee746c0"
      ],
      "is_coinbase": false,
      "sequence": 2147483649
    }
  ],
  "vout": [
    {
      "scriptpubkey": "5120066f72a55bd6a4397eeca7244d8248053538d4d3a011310cefdc20c1ac5d8ab1",
      "scriptpubkey_asm": "OP_PUSHNUM_1 OP_PUSHBYTES_32 066f72a55bd6a4397eeca7244d8248053538d4d3a011310cefdc20c1ac5d8ab1",
      "scriptpubkey_type": "v1_p2tr",
      "scriptpubkey_address": "bc1pqehh9f2m66jrjlhv5ujymqjgq56n34xn5qgnzr80mssvrtza32cs874hch",
      "value": 22502
    }
  ],
  "size": 804,
  "weight": 1824,
  "fee": 5472,
  "status": {
    "confirmed": true,
    "block_height": 834460,
    "block_hash": "00000000000000000000484a79b643b2524bbce82e5d8a442013fa5b8905ed98",
    "block_time": 1710307468
  },
  "hex": "020000000001076f19bf5739e8149c9a3e52756d21a8376a64fc1d71d40a2f13dfa1cd05a5d299060000000001000080cf449281e5d549ba612520d7a2b0e6c4330d4069e03ee070086628ea326dcb94010000000001000080a92fbb0646cf2f4bd8b52ae4facb8a8594f6a23dc3b9155e86facc0f90646e9d0000000000010000806f19bf5739e8149c9a3e52756d21a8376a64fc1d71d40a2f13dfa1cd05a5d299000000000001000080858095aa6215ce8ddbd2ee7a90399055e2056c09a97542f32edc2ed00254ef5b000000000001000080cdb69dec5b5e98cb12185297c9395c3a25af4d05f9879223a855bb8c5e6cfcb800000000000100008091bb9d7b72d129a51b27aa5de62237b7bc3c72495ed7930e2a1d3bc4066df9e300000000000100008001e657000000000000225120066f72a55bd6a4397eeca7244d8248053538d4d3a011310cefdc20c1ac5d8ab101401bf3a8dacfc6d6103c9c6aa3f9a15224c640c5ffb0785ba3c80473513ea10f133205f9d2120690d490cd096c305ae3a9fb7251e39c8838d07113264322836f920140e49a8ca855cd4d2d2d21fb321779318b00bf42d30f92f741aeefeba17130746628a8c93aef4b2f7ed366ed05894eeffaf39114f82fbb6b03b93e937926654d8c0140691339d84df733986cfd43a86fbe38867136423904df40162fd7ca6173ca11ab40fd8f7e47ddb646fe211f87daaa5438a4959990c59b94936764704c4e0888e20140e6ef961bafe57525dbd13cda2dc1af7181f14370be2dd7d06a06bb48a9777a6efe1ccb7ed89422c54bcfc79b321313dec6f46ab53065ee8e171adc730ebb00f0014076b040d5a8e0407a05e6b98f1adf38f4fe934f208e92cbcf3cf34e1ba69a3abfaa645af001c2636929f3c60bf7e81d49af7a1777318afd1b8065e601cd17beae014080db1e0bdc6a1636a12ef9d930b0ef2af72902c29eb356f936a8fca1e8b2b2b100da355b226cdb5bf3c00ae11d6928c2cb63f19c2a0435771fa566b837233b430140347477d64f6118d3af272cfd9031d63baad355191530cfec3e955a0208405351391414583e91dd8e975fa94fe18faf9451224f9791109ef59a06f509bee746c000000000"
}