{
  "txid": "66222e5924f15dcd202f8f1323ee76fc088ef3073351f7d72bb8e24dd4df90a1",
  "version": 2,
  "locktime": 834462,
  "vin": [
    {
      "txid": "1e5b2959e5d6c38a0ef7ada7fd5d17f0a7cbf5fbdec6abd8d3a080b3760e2bfd",
      "vout": 137,
      "prevout": {
        "scriptpubkey": "00145e628a4c26a6b28bdd82175f1f89e5c64f2f12cb",
        "scriptpubkey_asm": "OP_0 OP_PUSHBYTES_20 5e628a4c26a6b28bdd82175f1f89e5c64f2f12cb",
        "scriptpubkey_type": "v0_p2wpkh",
        "scriptpubkey_address": "bc1qte3g5npx56eghhvzza03lz09ce8j7ykt656m2y",
        "value": 82051
      },
      "scriptsig": "",
      "scriptsig_asm": "",
      "witness": [
        "304402205954c8907a351f4f409cef9402a1b4313ba16557b8026c58d8f7e907f337e6f102200ab8b82a80ec0bd847892cb68e7e57aed11539c58548016cd8bd66d4f0656f6601",
        "0282e47a414b6454578d59736a4f205eb4cc18f2ba4411ff42bb1ef2eb1d60fdc9"
      ],
      "is_coinbase": false,
      "sequence": 4294967294
    }
  ],
  "vout": [
    {
      "scriptpubkey": "0014436fa905986dfb0166e847c609aaddf514cf8436",
      "scriptpubkey_asm": "OP_0 OP_PUSHBYTES_20 436fa905986dfb0166e847c609aaddf514cf8436",
      "scriptpubkey_type": "v0_p2wpkh",
      "scriptpubkey_address": "bc1qgdh6jpvcdhaszehgglrqn2ka752vlppk7764p7",
      "value": 79002
    }
  ],
  "size": 191,
  "weight": 437,
  "fee": 3049,
  "status": {
    "confirmed": true,
    "block_height": 834464,
    "block_hash": "0000000000000000000177a0869a911a2b65c9bdcd5a8bcb02b68f305bee848e",
    "block_time": 1710308296
  },
  "hex": "02000000000101fd2b0e76b380a0d3d8abc6defbf5cba7f0175dfda7adf70e8ac3d6e559295b1e8900000000feffffff019a34010000000000160014436fa905986dfb0166e847c609aaddf514cf84360247304402205954c8907a351f4f409cef9402a1b4313ba16557b8026c58d8f7e907f337e6f102200ab8b82a80ec0bd847892cb68e7e57aed11539c58548016cd8bd66d4f0656f6601210282e47a414b6454578d59736a4f205eb4cc18f2ba4411ff42bb1ef2eb1d60fdc99ebb0c00"
}