{
  "txid": "66299b177b6709e2ff572d06abb742105a9d8d7cc1fe1a01b4374e4f14120ea7",
  "version": 1,
  "locktime": 0,
  "vin": [
    {
      "txid": "1991f75be885dd24b0d6f66213b92cd567c810bfa609b9cbe339862a036fb083",
      "vout": 0,
      "prevout": {
        "scriptpubkey": "0014b95411141c6d09a857b0ecaa91926535c0892960",
        "scriptpubkey_asm": "OP_0 OP_PUSHBYTES_20 b95411141c6d09a857b0ecaa91926535c0892960",
        "scriptpubkey_type": "v0_p2wpkh",
        "scriptpubkey_address": "bc1qh92pz9qud5y6s4asaj4fryn9xhqgj2tqa7pzdn",
        "value": 383433
      },
      "scriptsig": "",
      "scriptsig_asm": "",
      "witness": [
        "3045022100f2dabccd35b45ee5731b0b816305e0b13a9726008ab958d961964bc0462ae97102206fa83deecbc7adfd1fee53ac097f0717dd6aa964a64ac9d77ceb3059a6e31e0c01",
        "030a6787af200afc8d777b69f972dd14083a1af08d6edce5fdc1575c50acc6043e"
      ],
      "is_coinbase": false,
      "sequence": 4294967295
    }
  ],
  "vout": [
    {
      "scriptpubkey": "76a914f3658a2a3379f49a3dfa0581648df024364367ee88ac",
      "scriptpubkey_asm": "OP_DUP OP_HASH160 OP_PUSHBYTES_20 f3658a2a3379f49a3dfa0581648df024364367ee OP_EQUALVERIFY OP_CHECKSIG",
      "scriptpubkey_type": "p2pkh",
      "scriptpubkey_address": "1PBxqibvqY94e6t8zBxH46i8N5J4ivaveR",
      "value": 380382
    }
  ],
  "size": 195,
  "weight": 450,
  "fee": 3051,
  "status": {
    "confirmed": true,
    "block_height": 834638,
    "block_hash": "000000000000000000025f742c626208ac87e0b7d15054abb4a19ca2d735a54e",
    "block_time": 1710405325
  },
  "hex": "0100000000010183b06f032a8639e3cbb909a6bf10c867d52cb91362f6d6b024dd85e85bf791190000000000ffffffff01decd0500000000001976a914f3658a2a3379f49a3dfa0581648df024364367ee88ac02483045022100f2dabccd35b45ee5731b0b816305e0b13a9726008ab958d961964bc0462ae97102206fa83deecbc7adfd1fee53ac097f0717dd6aa964a64ac9d77ceb3059a6e31e0c0121030a6787af200afc8d777b69f972dd14083a1af08d6edce5fdc1575c50acc6043e00000000"
}