{
  "txid": "6644192bedca2dcb2c4b193a91b91edf32193b4e7e524cf42676cadbff6aa8bd",
  "version": 1,
  "locktime": 0,
  "vin": [
    {
      "txid": "ec2a41ab379c4599da095662ef0b3145e1d38c81226aa2fecb1757a6d6a24a4d",
      "vout": 18,
      "prevout": {
        "scriptpubkey": "0014b036abb64817b1559847befd2aa69097bc4fea8d",
        "scriptpubkey_asm": "OP_0 OP_PUSHBYTES_20 b036abb64817b1559847befd2aa69097bc4fea8d",
        "scriptpubkey_type": "v0_p2wpkh",
        "scriptpubkey_address": "bc1qkqm2hdjgz7c4txz8hm7j4f5sj77yl65dtvazlf",
        "value": 663235
      },
      "scriptsig": "",
      "scriptsig_asm": "",
      "witness": [
        "3045022100d2981108d20f99039c9406e72c0c179424ca45eb5a499fbf08d703d1ff688a1102205ae7877535fafb94cea4f65ea66342930155f7fff4afefbb7a7767dd2f41f1d901",
        "03f10956918d3e2fa9b929625ce4416eff9242d0750104f1931547d9ff419c0c11"
      ],
      "is_coinbase": false,
      "sequence": 4294967295
    }
  ],
  "vout": [
    {
      "scriptpubkey": "76a914dba78f5511aa9ee0994d1399ce78db124a4920d988ac",
      "scriptpubkey_asm": "OP_DUP OP_HASH160 OP_PUSHBYTES_20 dba78f5511aa9ee0994d1399ce78db124a4920d9 OP_EQUALVERIFY OP_CHECKSIG",
      "scriptpubkey_type": "p2pkh",
      "scriptpubkey_address": "1M2RiH2J4iZSjkELtokk12hxDrM9hGacdi",
      "value": 660184
    }
  ],
  "size": 195,
  "weight": 450,
  "fee": 3051,
  "status": {
    "confirmed": true,
    "block_height": 834638,
    "block_hash": "000000000000000000025f742c626208ac87e0b7d15054abb4a19ca2d735a54e",
    "block_time": 1710405325
  },
  "hex": "010000000001014d4aa2d6a65717cbfea26a22818cd3e145310bef625609da99459c37ab412aec1200000000ffffffff01d8120a00000000001976a914dba78f5511aa9ee0994d1399ce78db124a4920d988ac02483045022100d2981108d20f99039c9406e72c0c179424ca45eb5a499fbf08d703d1ff688a1102205ae7877535fafb94cea4f65ea66342930155f7fff4afefbb7a7767dd2f41f1d9012103f10956918d3e2fa9b929625ce4416eff9242d0750104f1931547d9ff419c0c1100000000"
}