{
  "txid": "6646bc7333822ffa55fea388ce4cf1372645333f63231fa99fd87ffc370bfcc2",
  "version": 2,
  "locktime": 834202,
  "vin": [
    {
      "txid": "a229de6e16d4f35a016a9035f1c82b4c54be6c7caac3bd9e3e0eef0ab7cf2c03",
      "vout": 0,
      "prevout": {
        "scriptpubkey": "00148e2f4a56de4e63d5b3eaea85e04d3da2eec60178",
        "scriptpubkey_asm": "OP_0 OP_PUSHBYTES_20 8e2f4a56de4e63d5b3eaea85e04d3da2eec60178",
        "scriptpubkey_type": "v0_p2wpkh",
        "scriptpubkey_address": "bc1q3ch554k7fe3atvl2a2z7qnfa5thvvqtch37hjf",
        "value": 138742
      },
      "scriptsig": "",
      "scriptsig_asm": "",
      "witness": [
        "3044022079c80eca8456a6cf98ec76d031d3c819a7d815196e4fe02331c5771525d1c6a10220244c2deccc68aa38bf5c6ff025c12f08f8aee63e187ec870984da11327fb780001",
        "020e297ff1d574919d10b3e2321ca9ec161fd3a520326ad63cde38b7756a28715c"
      ],
      "is_coinbase": false,
      "sequence": 4294967293
    }
  ],
  "vout": [
    {
      "scriptpubkey": "00147a16f8461b91cfdd31a6c5df386b21effda83655",
      "scriptpubkey_asm": "OP_0 OP_PUSHBYTES_20 7a16f8461b91cfdd31a6c5df386b21effda83655",
      "scriptpubkey_type": "v0_p2wpkh",
      "scriptpubkey_address": "bc1q0gt0s3smj88a6vdxch0ns6epal76sdj44ggwt4",
      "value": 42089
    },
    {
      "scriptpubkey": "0014c92cb7cbc6666f0fcb15ab883a9eaf66a68b97db",
      "scriptpubkey_asm": "OP_0 OP_PUSHBYTES_20 c92cb7cbc6666f0fcb15ab883a9eaf66a68b97db",
      "scriptpubkey_type": "v0_p2wpkh",
      "scriptpubkey_address": "bc1qeykt0j7xvehsljc44wyr4840v6ngh97mn4j9sq",
      "value": 95102
    }
  ],
  "size": 222,
  "weight": 561,
  "fee": 1551,
  "status": {
    "confirmed": true,
    "block_height": 834464,
    "block_hash": "0000000000000000000177a0869a911a2b65c9bdcd5a8bcb02b68f305bee848e",
    "block_time": 1710308296
  },
  "hex": "02000000000101032ccfb70aef0e3e9ebdc3aa7c6cbe544c2bc8f135906a015af3d4166ede29a20000000000fdffffff0269a40000000000001600147a16f8461b91cfdd31a6c5df386b21effda836557e73010000000000160014c92cb7cbc6666f0fcb15ab883a9eaf66a68b97db02473044022079c80eca8456a6cf98ec76d031d3c819a7d815196e4fe02331c5771525d1c6a10220244c2deccc68aa38bf5c6ff025c12f08f8aee63e187ec870984da11327fb78000121020e297ff1d574919d10b3e2321ca9ec161fd3a520326ad63cde38b7756a28715c9aba0c00"
}