{
  "txid": "66503e5b733c8bd76efcc3bc7843e0a4e8eddcf53b82a252021c11262544badd",
  "version": 2,
  "locktime": 0,
  "vin": [
    {
      "txid": "ce2337d5d62924e21e7a6f496f076fd3db8ec9ef2ff5f0710890d01985cbf6b8",
      "vout": 1,
      "prevout": {
        "scriptpubkey": "0014602aa037085a6a2ee5e0993a4a5de211245a640a",
        "scriptpubkey_asm": "OP_0 OP_PUSHBYTES_20 602aa037085a6a2ee5e0993a4a5de211245a640a",
        "scriptpubkey_type": "v0_p2wpkh",
        "scriptpubkey_address": "bc1qvq42qdcgtf4zae0qnyay5h0zzyj95eq2jhssle",
        "value": 107616
      },
      "scriptsig": "",
      "scriptsig_asm": "",
      "witness": [
        "304402203156995f145e13002d362ccac2c59c255a96632b4ac15fdb9aee82f56f0db8e402206ad1bf3d3dff04d734ed6b4df4866147499881c7d16f269f5f2e57f7fa51552701",
        "02096bf109cbf08e5c39aed2ad7f2eb86af4ea2b478cd0d2b1d7a49a586053f7ad"
      ],
      "is_coinbase": false,
      "sequence": 4294967295
    }
  ],
  "vout": [
    {
      "scriptpubkey": "76a914fb16172f866ccb2f822f05dadc3de7c4d94edf9188ac",
      "scriptpubkey_asm": "OP_DUP OP_HASH160 OP_PUSHBYTES_20 fb16172f866ccb2f822f05dadc3de7c4d94edf91 OP_EQUALVERIFY OP_CHECKSIG",
      "scriptpubkey_type": "p2pkh",
      "scriptpubkey_address": "1Ptd52goQ1PtEzn29m7R4cx4c52MkyrMoo",
      "value": 19530
    },
    {
      "scriptpubkey": "0014024f5a72052643474b9fb08b0d71e584d8b5043d",
      "scriptpubkey_asm": "OP_0 OP_PUSHBYTES_20 024f5a72052643474b9fb08b0d71e584d8b5043d",
      "scriptpubkey_type": "v0_p2wpkh",
      "scriptpubkey_address": "bc1qqf845us9yep5wjulkz9s6u09snvt2ppakk2xvf",
      "value": 86521
    }
  ],
  "size": 225,
  "weight": 573,
  "fee": 1565,
  "status": {
    "confirmed": true,
    "block_height": 834464,
    "block_hash": "0000000000000000000177a0869a911a2b65c9bdcd5a8bcb02b68f305bee848e",
    "block_time": 1710308296
  },
  "hex": "02000000000101b8f6cb8519d0900871f0f52fefc98edbd36f076f496f7a1ee22429d6d53723ce0100000000ffffffff024a4c0000000000001976a914fb16172f866ccb2f822f05dadc3de7c4d94edf9188acf951010000000000160014024f5a72052643474b9fb08b0d71e584d8b5043d0247304402203156995f145e13002d362ccac2c59c255a96632b4ac15fdb9aee82f56f0db8e402206ad1bf3d3dff04d734ed6b4df4866147499881c7d16f269f5f2e57f7fa515527012102096bf109cbf08e5c39aed2ad7f2eb86af4ea2b478cd0d2b1d7a49a586053f7ad00000000"
}