{
  "txid": "6651596e9d5122ba68661c3566750ced7fb018776b84b595b65daac168f14780",
  "version": 2,
  "locktime": 1710300751,
  "vin": [
    {
      "txid": "ed82b953433bafe2c3278a750f6318fc491dd06a2a1808438fedc26c97caa2fd",
      "vout": 0,
      "prevout": {
        "scriptpubkey": "5120d81c7f164a833f8e6363b9ff130f04cce1c14449fa5c0f764e6d1ff9c161f3c0",
        "scriptpubkey_asm": "OP_PUSHNUM_1 OP_PUSHBYTES_32 d81c7f164a833f8e6363b9ff130f04cce1c14449fa5c0f764e6d1ff9c161f3c0",
        "scriptpubkey_type": "v1_p2tr",
        "scriptpubkey_address": "bc1pmqw879j2svlcucmrh8l3xrcyensuz3zflfwq7ajwd50lnstp70qqvljytm",
        "value": 546
      },
      "scriptsig": "",
      "scriptsig_asm": "",
      "witness": [
        "f041addd049f739b16da2cad9acb87af4a3e90353a2bedd139e5ff41ad172d3c5443920d19ebee8540dd304a6556b3aea54929f282c0d848086cba1fedbe2e15",
        "044f1ef165b175202f96b7c3ca43eca6f97f6775068c2c51d066256458e72e8b3a1b46bb185333a1ac",
        "c193674766caa3db9c0f63c4b74f302510c509d6d0ffac9d67214d8f03cb2ed27a69eb16c3b9177324c9542e7ab5cd7409c9f416a42fd9f2755aa7a6b81a535873"
      ],
      "is_coinbase": false,
      "sequence": 1
    },
    {
      "txid": "d23b4a206566c5482a9ff315750a3f967a587fa5fb4fe71737d2c489628eec02",
      "vout": 2,
      "prevout": {
        "scriptpubkey": "a914bb83402192b13cf0b8212a526960a80ef57d95d987",
        "scriptpubkey_asm": "OP_HASH160 OP_PUSHBYTES_20 bb83402192b13cf0b8212a526960a80ef57d95d9 OP_EQUAL",
        "scriptpubkey_type": "p2sh",
        "scriptpubkey_address": "3JnVWrvNffvnjVCrnq3HrvTrmQWxQyYbEJ",
        "value": 857634
      },
      "scriptsig": "160014e37a943cf2ca933026724f8900540063148d88c4",
      "scriptsig_asm": "OP_PUSHBYTES_22 0014e37a943cf2ca933026724f8900540063148d88c4",
      "witness": [
        "3045022100e3e5a4546459d3848c8a8edfc10246533a8d476c2bd02669a14b20851f00fcde022030d9bf9939548a1cf4b739e6525265397ba13a6273ebbfb41932b5855949ea4301",
        "022c37e736409c046d394d7f540e412f74788c8a2fb9efbf2529e75cea5e32a835"
      ],
      "is_coinbase": false,
      "sequence": 4294967295,
      "inner_redeemscript_asm": "OP_0 OP_PUSHBYTES_20 e37a943cf2ca933026724f8900540063148d88c4"
    }
  ],
  "vout": [
    {
      "scriptpubkey": "5120c081bc9f77c19a9a92dca2be582e69ffeb53d7bfd43ad0512795cc4f74ca6b2c",
      "scriptpubkey_asm": "OP_PUSHNUM_1 OP_PUSHBYTES_32 c081bc9f77c19a9a92dca2be582e69ffeb53d7bfd43ad0512795cc4f74ca6b2c",
      "scriptpubkey_type": "v1_p2tr",
      "scriptpubkey_address": "bc1pczqme8mhcxdf4yku52l9stnfll4484al6sadq5f8jhxy7ax2dvkqk2vdwv",
      "value": 546
    },
    {
      "scriptpubkey": "a914bb83402192b13cf0b8212a526960a80ef57d95d987",
      "scriptpubkey_asm": "OP_HASH160 OP_PUSHBYTES_20 bb83402192b13cf0b8212a526960a80ef57d95d9 OP_EQUAL",
      "scriptpubkey_type": "p2sh",
      "scriptpubkey_address": "3JnVWrvNffvnjVCrnq3HrvTrmQWxQyYbEJ",
      "value": 853574
    }
  ],
  "size": 474,
  "weight": 1044,
  "fee": 4060,
  "status": {
    "confirmed": true,
    "block_height": 834464,
    "block_hash": "0000000000000000000177a0869a911a2b65c9bdcd5a8bcb02b68f305bee848e",
    "block_time": 1710308296
  },
  "hex": "02000000000102fda2ca976cc2ed8f4308182a6ad01d49fc18630f758a27c3e2af3b4353b982ed00000000000100000002ec8e6289c4d23717e74ffba57f587a963f0a7515f39f2a48c56665204a3bd20200000017160014e37a943cf2ca933026724f8900540063148d88c4ffffffff022202000000000000225120c081bc9f77c19a9a92dca2be582e69ffeb53d7bfd43ad0512795cc4f74ca6b2c46060d000000000017a914bb83402192b13cf0b8212a526960a80ef57d95d9870340f041addd049f739b16da2cad9acb87af4a3e90353a2bedd139e5ff41ad172d3c5443920d19ebee8540dd304a6556b3aea54929f282c0d848086cba1fedbe2e1529044f1ef165b175202f96b7c3ca43eca6f97f6775068c2c51d066256458e72e8b3a1b46bb185333a1ac41c193674766caa3db9c0f63c4b74f302510c509d6d0ffac9d67214d8f03cb2ed27a69eb16c3b9177324c9542e7ab5cd7409c9f416a42fd9f2755aa7a6b81a53587302483045022100e3e5a4546459d3848c8a8edfc10246533a8d476c2bd02669a14b20851f00fcde022030d9bf9939548a1cf4b739e6525265397ba13a6273ebbfb41932b5855949ea430121022c37e736409c046d394d7f540e412f74788c8a2fb9efbf2529e75cea5e32a8354f1ef165"
}