{
  "txid": "665e056217d513cae06838de78523e7dbb07fbfcc5e4554ecf153d9a41e7b8cf",
  "version": 2,
  "locktime": 0,
  "vin": [
    {
      "txid": "581de6f3e3bb6283d49fe8f38185a02c7a15a079584435d41fde22e8fd7b4e4e",
      "vout": 0,
      "prevout": {
        "scriptpubkey": "5120f7aeac1a110d01567acdc965d69f9816e86c18128905ce978c5fcaf0a6643da5",
        "scriptpubkey_asm": "OP_PUSHNUM_1 OP_PUSHBYTES_32 f7aeac1a110d01567acdc965d69f9816e86c18128905ce978c5fcaf0a6643da5",
        "scriptpubkey_type": "v1_p2tr",
        "scriptpubkey_address": "bc1p77h2cxs3p5q4v7kde9jad8uczm5xcxqj3yzua9uvtl90pfny8kjs7qsvc5",
        "value": 7301
      },
      "scriptsig": "",
      "scriptsig_asm": "",
      "witness": [
        "5b15449acd810fe2e60913ed36cc8bb670f456e5b64914ff22b57b1c6838bf8169226fc01d19b7aed024d711ea059ace28821b7fc0cfec69fa81c4d98f99f9b4"
      ],
      "is_coinbase": false,
      "sequence": 4294967295
    },
    {
      "txid": "3100ad6bc4958fe8dbf3d52eef0bbb03c513f496c391e77142d7e70611cee2b6",
      "vout": 0,
      "prevout": {
        "scriptpubkey": "5120f7aeac1a110d01567acdc965d69f9816e86c18128905ce978c5fcaf0a6643da5",
        "scriptpubkey_asm": "OP_PUSHNUM_1 OP_PUSHBYTES_32 f7aeac1a110d01567acdc965d69f9816e86c18128905ce978c5fcaf0a6643da5",
        "scriptpubkey_type": "v1_p2tr",
        "scriptpubkey_address": "bc1p77h2cxs3p5q4v7kde9jad8uczm5xcxqj3yzua9uvtl90pfny8kjs7qsvc5",
        "value": 5578
      },
      "scriptsig": "",
      "scriptsig_asm": "",
      "witness": [
        "79465ea9f6693232896168e59978c04fd321447a136e3047ab4a1778ebdb783bd44b8e109e261366cdd1d43b41e8f96620ef32af51fc488ad6e35fbd462863e8"
      ],
      "is_coinbase": false,
      "sequence": 4294967295
    },
    {
      "txid": "e36805ec35b1001d3c0af8b2db35473d258d94b1b06939c515e4b16f251455aa",
      "vout": 0,
      "prevout": {
        "scriptpubkey": "5120f7aeac1a110d01567acdc965d69f9816e86c18128905ce978c5fcaf0a6643da5",
        "scriptpubkey_asm": "OP_PUSHNUM_1 OP_PUSHBYTES_32 f7aeac1a110d01567acdc965d69f9816e86c18128905ce978c5fcaf0a6643da5",
        "scriptpubkey_type": "v1_p2tr",
        "scriptpubkey_address": "bc1p77h2cxs3p5q4v7kde9jad8uczm5xcxqj3yzua9uvtl90pfny8kjs7qsvc5",
        "value": 4561
      },
      "scriptsig": "",
      "scriptsig_asm": "",
      "witness": [
        "8f5b88a022cc5a45c27a06355d10195f8d495e147fb24dc27f6edde9f7ff0343753877b453832a6e1bed955b40acf3afbffd7bf6889e8a92228e9b53565cc2e1"
      ],
      "is_coinbase": false,
      "sequence": 4294967295
    },
    {
      "txid": "a214213588e8c839d0062b1abd26605d065a6c4a4c47dbb51b6ec9fd580affde",
      "vout": 14,
      "prevout": {
        "scriptpubkey": "5120f7aeac1a110d01567acdc965d69f9816e86c18128905ce978c5fcaf0a6643da5",
        "scriptpubkey_asm": "OP_PUSHNUM_1 OP_PUSHBYTES_32 f7aeac1a110d01567acdc965d69f9816e86c18128905ce978c5fcaf0a6643da5",
        "scriptpubkey_type": "v1_p2tr",
        "scriptpubkey_address": "bc1p77h2cxs3p5q4v7kde9jad8uczm5xcxqj3yzua9uvtl90pfny8kjs7qsvc5",
        "value": 4315
      },
      "scriptsig": "",
      "scriptsig_asm": "",
      "witness": [
        "ed744d74cd73f8e5468dcc1cc66b7de05527eb087698e5554ededeedf6a789448dbead65215b56abc7749e294b2d1d6c5212836fa851f61d78f00fd977af6622"
      ],
      "is_coinbase": false,
      "sequence": 4294967295
    },
    {
      "txid": "095278b4205aab7bede9eb4852dac8a9ab705e0f2b18c412d3fab1821ed96e77",
      "vout": 0,
      "prevout": {
        "scriptpubkey": "5120f7aeac1a110d01567acdc965d69f9816e86c18128905ce978c5fcaf0a6643da5",
        "scriptpubkey_asm": "OP_PUSHNUM_1 OP_PUSHBYTES_32 f7aeac1a110d01567acdc965d69f9816e86c18128905ce978c5fcaf0a6643da5",
        "scriptpubkey_type": "v1_p2tr",
        "scriptpubkey_address": "bc1p77h2cxs3p5q4v7kde9jad8uczm5xcxqj3yzua9uvtl90pfny8kjs7qsvc5",
        "value": 4117
      },
      "scriptsig": "",
      "scriptsig_asm": "",
      "witness": [
        "4f4836dfd0c02512cd4d5614d6081d517dab7719d4819350a600d28cd6255b92a16cd6cead245e5ddd1968c0f6b29307468da0c5ba34c647d13776fc4b314ad9"
      ],
      "is_coinbase": false,
      "sequence": 4294967295
    },
    {
      "txid": "a214213588e8c839d0062b1abd26605d065a6c4a4c47dbb51b6ec9fd580affde",
      "vout": 0,
      "prevout": {
        "scriptpubkey": "5120f7aeac1a110d01567acdc965d69f9816e86c18128905ce978c5fcaf0a6643da5",
        "scriptpubkey_asm": "OP_PUSHNUM_1 OP_PUSHBYTES_32 f7aeac1a110d01567acdc965d69f9816e86c18128905ce978c5fcaf0a6643da5",
        "scriptpubkey_type": "v1_p2tr",
        "scriptpubkey_address": "bc1p77h2cxs3p5q4v7kde9jad8uczm5xcxqj3yzua9uvtl90pfny8kjs7qsvc5",
        "value": 3000
      },
      "scriptsig": "",
      "scriptsig_asm": "",
      "witness": [
        "09151c9141513f03ef34503864021bb74434ee6a2a6d61802c9ef88755e1a8938433b2591372d07e4cf9414c08263ef02550f428d2ccb17ec703f4768aec4d98"
      ],
      "is_coinbase": false,
      "sequence": 4294967295
    },
    {
      "txid": "e46ec1d1eb454c9dc5c6bf93a4cc72957658104561c91a80aac31185d2ee7880",
      "vout": 0,
      "prevout": {
        "scriptpubkey": "5120f7aeac1a110d01567acdc965d69f9816e86c18128905ce978c5fcaf0a6643da5",
        "scriptpubkey_asm": "OP_PUSHNUM_1 OP_PUSHBYTES_32 f7aeac1a110d01567acdc965d69f9816e86c18128905ce978c5fcaf0a6643da5",
        "scriptpubkey_type": "v1_p2tr",
        "scriptpubkey_address": "bc1p77h2cxs3p5q4v7kde9jad8uczm5xcxqj3yzua9uvtl90pfny8kjs7qsvc5",
        "value": 895
      },
      "scriptsig": "",
      "scriptsig_asm": "",
      "witness": [
        "f7c52843198d8eec32b2899885bc440ff43ffbff7ef2107f1cbec16a7526f949d3d351ed4f30eba7e4a73e23a228033a31be0aec148733d217fed7ccdd99c9d4"
      ],
      "is_coinbase": false,
      "sequence": 4294967295
    },
    {
      "txid": "a214213588e8c839d0062b1abd26605d065a6c4a4c47dbb51b6ec9fd580affde",
      "vout": 13,
      "prevout": {
        "scriptpubkey": "5120f7aeac1a110d01567acdc965d69f9816e86c18128905ce978c5fcaf0a6643da5",
        "scriptpubkey_asm": "OP_PUSHNUM_1 OP_PUSHBYTES_32 f7aeac1a110d01567acdc965d69f9816e86c18128905ce978c5fcaf0a6643da5",
        "scriptpubkey_type": "v1_p2tr",
        "scriptpubkey_address": "bc1p77h2cxs3p5q4v7kde9jad8uczm5xcxqj3yzua9uvtl90pfny8kjs7qsvc5",
        "value": 600
      },
      "scriptsig": "",
      "scriptsig_asm": "",
      "witness": [
        "c71f83e36b10b38f3c66c298848b73746f7c2e5bd4446394dfbafe3887ba60c343d0657a0c93ded33aa8cd56fdef8fe7126a93620bc59a55577f2052ecd973a7"
      ],
      "is_coinbase": false,
      "sequence": 4294967295
    },
    {
      "txid": "a214213588e8c839d0062b1abd26605d065a6c4a4c47dbb51b6ec9fd580affde",
      "vout": 12,
      "prevout": {
        "scriptpubkey": "5120f7aeac1a110d01567acdc965d69f9816e86c18128905ce978c5fcaf0a6643da5",
        "scriptpubkey_asm": "OP_PUSHNUM_1 OP_PUSHBYTES_32 f7aeac1a110d01567acdc965d69f9816e86c18128905ce978c5fcaf0a6643da5",
        "scriptpubkey_type": "v1_p2tr",
        "scriptpubkey_address": "bc1p77h2cxs3p5q4v7kde9jad8uczm5xcxqj3yzua9uvtl90pfny8kjs7qsvc5",
        "value": 600
      },
      "scriptsig": "",
      "scriptsig_asm": "",
      "witness": [
        "d70283d1de5700b78fa24a57cc912ccafd1631c0c82526b0516c8558aa46b0573676de5fe3b9414709e8315319a280f3ee1b20d8d3baf2df521f22852a605918"
      ],
      "is_coinbase": false,
      "sequence": 4294967295
    },
    {
      "txid": "a214213588e8c839d0062b1abd26605d065a6c4a4c47dbb51b6ec9fd580affde",
      "vout": 11,
      "prevout": {
        "scriptpubkey": "5120f7aeac1a110d01567acdc965d69f9816e86c18128905ce978c5fcaf0a6643da5",
        "scriptpubkey_asm": "OP_PUSHNUM_1 OP_PUSHBYTES_32 f7aeac1a110d01567acdc965d69f9816e86c18128905ce978c5fcaf0a6643da5",
        "scriptpubkey_type": "v1_p2tr",
        "scriptpubkey_address": "bc1p77h2cxs3p5q4v7kde9jad8uczm5xcxqj3yzua9uvtl90pfny8kjs7qsvc5",
        "value": 600
      },
      "scriptsig": "",
      "scriptsig_asm": "",
      "witness": [
        "cde46393d53352908e4063dabb069c9a02c9ae795008dfea268163ee3030ce33be043bc4d71ecd0fd7902dbc00fa8462c2632569765dfe19227fe4d1a8330bbd"
      ],
      "is_coinbase": false,
      "sequence": 4294967295
    },
    {
      "txid": "a214213588e8c839d0062b1abd26605d065a6c4a4c47dbb51b6ec9fd580affde",
      "vout": 10,
      "prevout": {
        "scriptpubkey": "5120f7aeac1a110d01567acdc965d69f9816e86c18128905ce978c5fcaf0a6643da5",
        "scriptpubkey_asm": "OP_PUSHNUM_1 OP_PUSHBYTES_32 f7aeac1a110d01567acdc965d69f9816e86c18128905ce978c5fcaf0a6643da5",
        "scriptpubkey_type": "v1_p2tr",
        "scriptpubkey_address": "bc1p77h2cxs3p5q4v7kde9jad8uczm5xcxqj3yzua9uvtl90pfny8kjs7qsvc5",
        "value": 600
      },
      "scriptsig": "",
      "scriptsig_asm": "",
      "witness": [
        "431ac5f45d18edb4524ab70c9b18529c70a274c3b0d060d3bbca6be17e9680209f796218463e110fa35de85de69461130c967f86df3aa062b7f2592b622e043b"
      ],
      "is_coinbase": false,
      "sequence": 4294967295
    },
    {
      "txid": "a214213588e8c839d0062b1abd26605d065a6c4a4c47dbb51b6ec9fd580affde",
      "vout": 9,
      "prevout": {
        "scriptpubkey": "5120f7aeac1a110d01567acdc965d69f9816e86c18128905ce978c5fcaf0a6643da5",
        "scriptpubkey_asm": "OP_PUSHNUM_1 OP_PUSHBYTES_32 f7aeac1a110d01567acdc965d69f9816e86c18128905ce978c5fcaf0a6643da5",
        "scriptpubkey_type": "v1_p2tr",
        "scriptpubkey_address": "bc1p77h2cxs3p5q4v7kde9jad8uczm5xcxqj3yzua9uvtl90pfny8kjs7qsvc5",
        "value": 600
      },
      "scriptsig": "",
      "scriptsig_asm": "",
      "witness": [
        "17a432bb36b201672c8cd6bf27fe6e4a65277a356d87d015ae1291c8eda548da8012a3b28dae434c88f5f727ce0190d93cb816a641eba5e1170cae6a1f4a49c1"
      ],
      "is_coinbase": false,
      "sequence": 4294967295
    }
  ],
  "vout": [
    {
      "scriptpubkey": "51203656f8c3d8cb6477df3c48d7b98dfe5e7e4b6ed3d33c5a6816699e25ab2b8bfd",
      "scriptpubkey_asm": "OP_PUSHNUM_1 OP_PUSHBYTES_32 3656f8c3d8cb6477df3c48d7b98dfe5e7e4b6ed3d33c5a6816699e25ab2b8bfd",
      "scriptpubkey_type": "v1_p2tr",
      "scriptpubkey_address": "bc1pxet03s7cedj80heufrtmnr07telykmkn6v7956qkdx0zt2et307svrw0ds",
      "value": 23095
    }
  ],
  "size": 1339,
  "weight": 2974,
  "fee": 9672,
  "status": {
    "confirmed": true,
    "block_height": 834464,
    "block_hash": "0000000000000000000177a0869a911a2b65c9bdcd5a8bcb02b68f305bee848e",
    "block_time": 1710308296
  },
  "hex": "0200000000010c4e4e7bfde822de1fd435445879a0157a2ca08581f3e89fd48362bbe3f3e61d580000000000ffffffffb6e2ce1106e7d74271e791c396f413c503bb0bef2ed5f3dbe88f95c46bad00310000000000ffffffffaa5514256fb1e415c53969b0b1948d253d4735dbb2f80a3c1d00b135ec0568e30000000000ffffffffdeff0a58fdc96e1bb5db474c4a6c5a065d6026bd1a2b06d039c8e888352114a20e00000000ffffffff776ed91e82b1fad312c4182b0f5e70aba9c8da5248ebe9ed7bab5a20b47852090000000000ffffffffdeff0a58fdc96e1bb5db474c4a6c5a065d6026bd1a2b06d039c8e888352114a20000000000ffffffff8078eed28511c3aa801ac961451058769572cca493bfc6c59d4c45ebd1c16ee40000000000ffffffffdeff0a58fdc96e1bb5db474c4a6c5a065d6026bd1a2b06d039c8e888352114a20d00000000ffffffffdeff0a58fdc96e1bb5db474c4a6c5a065d6026bd1a2b06d039c8e888352114a20c00000000ffffffffdeff0a58fdc96e1bb5db474c4a6c5a065d6026bd1a2b06d039c8e888352114a20b00000000ffffffffdeff0a58fdc96e1bb5db474c4a6c5a065d6026bd1a2b06d039c8e888352114a20a00000000ffffffffdeff0a58fdc96e1bb5db474c4a6c5a065d6026bd1a2b06d039c8e888352114a20900000000ffffffff01375a0000000000002251203656f8c3d8cb6477df3c48d7b98dfe5e7e4b6ed3d33c5a6816699e25ab2b8bfd01405b15449acd810fe2e60913ed36cc8bb670f456e5b64914ff22b57b1c6838bf8169226fc01d19b7aed024d711ea059ace28821b7fc0cfec69fa81c4d98f99f9b4014079465ea9f6693232896168e59978c04fd321447a136e3047ab4a1778ebdb783bd44b8e109e261366cdd1d43b41e8f96620ef32af51fc488ad6e35fbd462863e801408f5b88a022cc5a45c27a06355d10195f8d495e147fb24dc27f6edde9f7ff0343753877b453832a6e1bed955b40acf3afbffd7bf6889e8a92228e9b53565cc2e10140ed744d74cd73f8e5468dcc1cc66b7de05527eb087698e5554ededeedf6a789448dbead65215b56abc7749e294b2d1d6c5212836fa851f61d78f00fd977af662201404f4836dfd0c02512cd4d5614d6081d517dab7719d4819350a600d28cd6255b92a16cd6cead245e5ddd1968c0f6b29307468da0c5ba34c647d13776fc4b314ad9014009151c9141513f03ef34503864021bb74434ee6a2a6d61802c9ef88755e1a8938433b2591372d07e4cf9414c08263ef02550f428d2ccb17ec703f4768aec4d980140f7c52843198d8eec32b2899885bc440ff43ffbff7ef2107f1cbec16a7526f949d3d351ed4f30eba7e4a73e23a228033a31be0aec148733d217fed7ccdd99c9d40140c71f83e36b10b38f3c66c298848b73746f7c2e5bd4446394dfbafe3887ba60c343d0657a0c93ded33aa8cd56fdef8fe7126a93620bc59a55577f2052ecd973a70140d70283d1de5700b78fa24a57cc912ccafd1631c0c82526b0516c8558aa46b0573676de5fe3b9414709e8315319a280f3ee1b20d8d3baf2df521f22852a6059180140cde46393d53352908e4063dabb069c9a02c9ae795008dfea268163ee3030ce33be043bc4d71ecd0fd7902dbc00fa8462c2632569765dfe19227fe4d1a8330bbd0140431ac5f45d18edb4524ab70c9b18529c70a274c3b0d060d3bbca6be17e9680209f796218463e110fa35de85de69461130c967f86df3aa062b7f2592b622e043b014017a432bb36b201672c8cd6bf27fe6e4a65277a356d87d015ae1291c8eda548da8012a3b28dae434c88f5f727ce0190d93cb816a641eba5e1170cae6a1f4a49c100000000"
}