{
  "txid": "665e701e426304253cb6c6c0e18a892857b2889daf06067ebbdbf6ecc367cf48",
  "version": 2,
  "locktime": 0,
  "vin": [
    {
      "txid": "c1682e92bd98095d3f2a879c437e78848515c9e00a740c39ca30a19f8d38e7fc",
      "vout": 3,
      "prevout": {
        "scriptpubkey": "5120dabe7c832be852c05adca6e5b009f656b110f52fdb9b5e1b69ddec254d101c65",
        "scriptpubkey_asm": "OP_PUSHNUM_1 OP_PUSHBYTES_32 dabe7c832be852c05adca6e5b009f656b110f52fdb9b5e1b69ddec254d101c65",
        "scriptpubkey_type": "v1_p2tr",
        "scriptpubkey_address": "bc1pm2l8eqetapfvqkku5mjmqz0k26c3paf0mwd4uxmfmhkz2ngsr3jsykvgjl",
        "value": 2982338
      },
      "scriptsig": "",
      "scriptsig_asm": "",
      "witness": [
        "17a2c2f6edd766c30461d1d185e2096c9c683ff91ad1a3d4bd19d44d42f37f4ec7d2497c3e6acdd7f92785c578c0bcbf0bdfd3420956102acdb30d4875683f21"
      ],
      "is_coinbase": false,
      "sequence": 4294967295
    },
    {
      "txid": "4f7c26e58bba2d13625abfa4706988555dc0bc762c8c7f36f2663b3a976e4cce",
      "vout": 3,
      "prevout": {
        "scriptpubkey": "5120dabe7c832be852c05adca6e5b009f656b110f52fdb9b5e1b69ddec254d101c65",
        "scriptpubkey_asm": "OP_PUSHNUM_1 OP_PUSHBYTES_32 dabe7c832be852c05adca6e5b009f656b110f52fdb9b5e1b69ddec254d101c65",
        "scriptpubkey_type": "v1_p2tr",
        "scriptpubkey_address": "bc1pm2l8eqetapfvqkku5mjmqz0k26c3paf0mwd4uxmfmhkz2ngsr3jsykvgjl",
        "value": 3500738
      },
      "scriptsig": "",
      "scriptsig_asm": "",
      "witness": [
        "c217472059b4f84dba7d4e1cfe8a3a57186e9d6103b220429d92f36c2e3c0bd511093d3f0e45f3bfd67c5ca9f75638b98f2dfedf6cd9bcd3365442017c389406"
      ],
      "is_coinbase": false,
      "sequence": 4294967295
    },
    {
      "txid": "ab3c7bc4db79a2780633360be5553e2a1d611919193446b9df5fd45de6b6d68f",
      "vout": 3,
      "prevout": {
        "scriptpubkey": "5120dabe7c832be852c05adca6e5b009f656b110f52fdb9b5e1b69ddec254d101c65",
        "scriptpubkey_asm": "OP_PUSHNUM_1 OP_PUSHBYTES_32 dabe7c832be852c05adca6e5b009f656b110f52fdb9b5e1b69ddec254d101c65",
        "scriptpubkey_type": "v1_p2tr",
        "scriptpubkey_address": "bc1pm2l8eqetapfvqkku5mjmqz0k26c3paf0mwd4uxmfmhkz2ngsr3jsykvgjl",
        "value": 3527928
      },
      "scriptsig": "",
      "scriptsig_asm": "",
      "witness": [
        "086f44cd726bdad7671d681aa837b9d591c6885679823095eccb764c2c75c5af3618b49ff0e94a90062b2c5bae55047939593a2b01ea6cfdbb5a08a34576f591"
      ],
      "is_coinbase": false,
      "sequence": 4294967295
    },
    {
      "txid": "e4bdd8b797438ba225ab17d445ef998b0611566fee44787a92279c50f287dc9f",
      "vout": 3,
      "prevout": {
        "scriptpubkey": "5120dabe7c832be852c05adca6e5b009f656b110f52fdb9b5e1b69ddec254d101c65",
        "scriptpubkey_asm": "OP_PUSHNUM_1 OP_PUSHBYTES_32 dabe7c832be852c05adca6e5b009f656b110f52fdb9b5e1b69ddec254d101c65",
        "scriptpubkey_type": "v1_p2tr",
        "scriptpubkey_address": "bc1pm2l8eqetapfvqkku5mjmqz0k26c3paf0mwd4uxmfmhkz2ngsr3jsykvgjl",
        "value": 3802243
      },
      "scriptsig": "",
      "scriptsig_asm": "",
      "witness": [
        "98cb60f9919e15c21173afd14e147384fec3cd86da8732266a74b9cc37ffc81b151771ea3aad00ac0027f7e45912697833b9c49eb95c692222000990cb188af4"
      ],
      "is_coinbase": false,
      "sequence": 4294967295
    }
  ],
  "vout": [
    {
      "scriptpubkey": "5120dabe7c832be852c05adca6e5b009f656b110f52fdb9b5e1b69ddec254d101c65",
      "scriptpubkey_asm": "OP_PUSHNUM_1 OP_PUSHBYTES_32 dabe7c832be852c05adca6e5b009f656b110f52fdb9b5e1b69ddec254d101c65",
      "scriptpubkey_type": "v1_p2tr",
      "scriptpubkey_address": "bc1pm2l8eqetapfvqkku5mjmqz0k26c3paf0mwd4uxmfmhkz2ngsr3jsykvgjl",
      "value": 1754822
    },
    {
      "scriptpubkey": "0014bf161f71a107f46c4cfbe3e01f2fa6797019f6b6",
      "scriptpubkey_asm": "OP_0 OP_PUSHBYTES_20 bf161f71a107f46c4cfbe3e01f2fa6797019f6b6",
      "scriptpubkey_type": "v0_p2wpkh",
      "scriptpubkey_address": "bc1qhutp7udpql6xcn8mu0sp7tax09cpna4kwk7pss",
      "value": 12052629
    }
  ],
  "size": 514,
  "weight": 1258,
  "fee": 5796,
  "status": {
    "confirmed": true,
    "block_height": 834638,
    "block_hash": "000000000000000000025f742c626208ac87e0b7d15054abb4a19ca2d735a54e",
    "block_time": 1710405325
  },
  "hex": "02000000000104fce7388d9fa130ca390c740ae0c9158584787e439c872a3f5d0998bd922e68c10300000000ffffffffce4c6e973a3b66f2367f8c2c76bcc05d55886970a4bf5a62132dba8be5267c4f0300000000ffffffff8fd6b6e65dd45fdfb94634191919611d2a3e55e50b36330678a279dbc47b3cab0300000000ffffffff9fdc87f2509c27927a7844ee6f5611068b99ef45d417ab25a28b4397b7d8bde40300000000ffffffff02c6c61a0000000000225120dabe7c832be852c05adca6e5b009f656b110f52fdb9b5e1b69ddec254d101c6595e8b70000000000160014bf161f71a107f46c4cfbe3e01f2fa6797019f6b6014017a2c2f6edd766c30461d1d185e2096c9c683ff91ad1a3d4bd19d44d42f37f4ec7d2497c3e6acdd7f92785c578c0bcbf0bdfd3420956102acdb30d4875683f210140c217472059b4f84dba7d4e1cfe8a3a57186e9d6103b220429d92f36c2e3c0bd511093d3f0e45f3bfd67c5ca9f75638b98f2dfedf6cd9bcd3365442017c3894060140086f44cd726bdad7671d681aa837b9d591c6885679823095eccb764c2c75c5af3618b49ff0e94a90062b2c5bae55047939593a2b01ea6cfdbb5a08a34576f591014098cb60f9919e15c21173afd14e147384fec3cd86da8732266a74b9cc37ffc81b151771ea3aad00ac0027f7e45912697833b9c49eb95c692222000990cb188af400000000"
}