{
  "txid": "6669b64ddef2594a23dadaa795325938fc48c57a016cfe2a2422fd3e68ef35be",
  "version": 2,
  "locktime": 0,
  "vin": [
    {
      "txid": "2258f7b9dd7953663b50d9983dafc001c939fc66e34388ceac90d1e4a8d3f583",
      "vout": 0,
      "prevout": {
        "scriptpubkey": "0014fc6c7bb5d2d05dc4fcc46c0c1b82654df11f35b7",
        "scriptpubkey_asm": "OP_0 OP_PUSHBYTES_20 fc6c7bb5d2d05dc4fcc46c0c1b82654df11f35b7",
        "scriptpubkey_type": "v0_p2wpkh",
        "scriptpubkey_address": "bc1ql3k8hdwj6pwuflxydsxphqn9fhc37ddhy806ha",
        "value": 63955
      },
      "scriptsig": "",
      "scriptsig_asm": "",
      "witness": [
        "304402203c2d6cfd7d29663c955ca872e1bd3ed64d1b0253c76454a998d3d4ff6081b67102203760f3b914562de290cf652aebdd7d167ee4599dea629159070d68582feb2e5901",
        "034fc28aee26b4708dfd286f710f0bcff9e3a82fb803c2853166ae6a7ad7082655"
      ],
      "is_coinbase": false,
      "sequence": 4294967295
    }
  ],
  "vout": [
    {
      "scriptpubkey": "001424dc0e3c483732146d6d0224ae67ae3a6fe5c467",
      "scriptpubkey_asm": "OP_0 OP_PUSHBYTES_20 24dc0e3c483732146d6d0224ae67ae3a6fe5c467",
      "scriptpubkey_type": "v0_p2wpkh",
      "scriptpubkey_address": "bc1qynwqu0zgxuepgmtdqgj2ueaw8fh7t3r8w2g3g7",
      "value": 61905
    }
  ],
  "size": 191,
  "weight": 437,
  "fee": 2050,
  "status": {
    "confirmed": true,
    "block_height": 834638,
    "block_hash": "000000000000000000025f742c626208ac87e0b7d15054abb4a19ca2d735a54e",
    "block_time": 1710405325
  },
  "hex": "0200000000010183f5d3a8e4d190acce8843e366fc39c901c0af3d98d9503b665379ddb9f758220000000000ffffffff01d1f100000000000016001424dc0e3c483732146d6d0224ae67ae3a6fe5c4670247304402203c2d6cfd7d29663c955ca872e1bd3ed64d1b0253c76454a998d3d4ff6081b67102203760f3b914562de290cf652aebdd7d167ee4599dea629159070d68582feb2e590121034fc28aee26b4708dfd286f710f0bcff9e3a82fb803c2853166ae6a7ad708265500000000"
}