{
  "txid": "666c16c0eff69e3afa7e467da80ac401f0167655991c87a4f2ea6cd243fab893",
  "version": 2,
  "locktime": 0,
  "vin": [
    {
      "txid": "51d0000c5c9fd31de7dbc6d4c9383d4bf35d1f358adbeacdc0521387b9725eb1",
      "vout": 5,
      "prevout": {
        "scriptpubkey": "a9140da704bec727c7f5dba080359ec7fa8d88d72da887",
        "scriptpubkey_asm": "OP_HASH160 OP_PUSHBYTES_20 0da704bec727c7f5dba080359ec7fa8d88d72da8 OP_EQUAL",
        "scriptpubkey_type": "p2sh",
        "scriptpubkey_address": "32wCngudjxr7c7P8NDPBDmJSLgUkyLsHxR",
        "value": 22566
      },
      "scriptsig": "160014500d9daabb8952c9e43cd9dbade5c222ad9a26ad",
      "scriptsig_asm": "OP_PUSHBYTES_22 0014500d9daabb8952c9e43cd9dbade5c222ad9a26ad",
      "witness": [
        "304402205e0880c23eb43e9cb09d75f784039fa1ab252db0d85fe6637792b2b035e62f1b0220672c99c4b2c6fdf19597f9d00442c915c793b84bc5f3588411d3ad17b962129801",
        "0230c355115552ebae11e6b47eb5f0e1d2a31e7fa637ffa2ef3902bb5f2888feef"
      ],
      "is_coinbase": false,
      "sequence": 4294967293,
      "inner_redeemscript_asm": "OP_0 OP_PUSHBYTES_20 500d9daabb8952c9e43cd9dbade5c222ad9a26ad"
    }
  ],
  "vout": [
    {
      "scriptpubkey": "51203887174ead846b0cc4a5a6aaf76f193f94f9041cc6a6b4c8c9fa160b09435eba",
      "scriptpubkey_asm": "OP_PUSHNUM_1 OP_PUSHBYTES_32 3887174ead846b0cc4a5a6aaf76f193f94f9041cc6a6b4c8c9fa160b09435eba",
      "scriptpubkey_type": "v1_p2tr",
      "scriptpubkey_address": "bc1p8zr3wn4ds34se3995640wmce8720jpquc6ntfjxflgtqkz2rt6aq6jpptn",
      "value": 2366
    },
    {
      "scriptpubkey": "51203887174ead846b0cc4a5a6aaf76f193f94f9041cc6a6b4c8c9fa160b09435eba",
      "scriptpubkey_asm": "OP_PUSHNUM_1 OP_PUSHBYTES_32 3887174ead846b0cc4a5a6aaf76f193f94f9041cc6a6b4c8c9fa160b09435eba",
      "scriptpubkey_type": "v1_p2tr",
      "scriptpubkey_address": "bc1p8zr3wn4ds34se3995640wmce8720jpquc6ntfjxflgtqkz2rt6aq6jpptn",
      "value": 2366
    },
    {
      "scriptpubkey": "51203887174ead846b0cc4a5a6aaf76f193f94f9041cc6a6b4c8c9fa160b09435eba",
      "scriptpubkey_asm": "OP_PUSHNUM_1 OP_PUSHBYTES_32 3887174ead846b0cc4a5a6aaf76f193f94f9041cc6a6b4c8c9fa160b09435eba",
      "scriptpubkey_type": "v1_p2tr",
      "scriptpubkey_address": "bc1p8zr3wn4ds34se3995640wmce8720jpquc6ntfjxflgtqkz2rt6aq6jpptn",
      "value": 2366
    },
    {
      "scriptpubkey": "51203887174ead846b0cc4a5a6aaf76f193f94f9041cc6a6b4c8c9fa160b09435eba",
      "scriptpubkey_asm": "OP_PUSHNUM_1 OP_PUSHBYTES_32 3887174ead846b0cc4a5a6aaf76f193f94f9041cc6a6b4c8c9fa160b09435eba",
      "scriptpubkey_type": "v1_p2tr",
      "scriptpubkey_address": "bc1p8zr3wn4ds34se3995640wmce8720jpquc6ntfjxflgtqkz2rt6aq6jpptn",
      "value": 2366
    },
    {
      "scriptpubkey": "51203887174ead846b0cc4a5a6aaf76f193f94f9041cc6a6b4c8c9fa160b09435eba",
      "scriptpubkey_asm": "OP_PUSHNUM_1 OP_PUSHBYTES_32 3887174ead846b0cc4a5a6aaf76f193f94f9041cc6a6b4c8c9fa160b09435eba",
      "scriptpubkey_type": "v1_p2tr",
      "scriptpubkey_address": "bc1p8zr3wn4ds34se3995640wmce8720jpquc6ntfjxflgtqkz2rt6aq6jpptn",
      "value": 2366
    },
    {
      "scriptpubkey": "51203887174ead846b0cc4a5a6aaf76f193f94f9041cc6a6b4c8c9fa160b09435eba",
      "scriptpubkey_asm": "OP_PUSHNUM_1 OP_PUSHBYTES_32 3887174ead846b0cc4a5a6aaf76f193f94f9041cc6a6b4c8c9fa160b09435eba",
      "scriptpubkey_type": "v1_p2tr",
      "scriptpubkey_address": "bc1p8zr3wn4ds34se3995640wmce8720jpquc6ntfjxflgtqkz2rt6aq6jpptn",
      "value": 2366
    },
    {
      "scriptpubkey": "51203887174ead846b0cc4a5a6aaf76f193f94f9041cc6a6b4c8c9fa160b09435eba",
      "scriptpubkey_asm": "OP_PUSHNUM_1 OP_PUSHBYTES_32 3887174ead846b0cc4a5a6aaf76f193f94f9041cc6a6b4c8c9fa160b09435eba",
      "scriptpubkey_type": "v1_p2tr",
      "scriptpubkey_address": "bc1p8zr3wn4ds34se3995640wmce8720jpquc6ntfjxflgtqkz2rt6aq6jpptn",
      "value": 2366
    }
  ],
  "size": 484,
  "weight": 1609,
  "fee": 6004,
  "status": {
    "confirmed": true,
    "block_height": 834638,
    "block_hash": "000000000000000000025f742c626208ac87e0b7d15054abb4a19ca2d735a54e",
    "block_time": 1710405325
  },
  "hex": "02000000000101b15e72b9871352c0cdeadb8a351f5df34b3d38c9d4c6dbe71dd39f5c0c00d0510500000017160014500d9daabb8952c9e43cd9dbade5c222ad9a26adfdffffff073e090000000000002251203887174ead846b0cc4a5a6aaf76f193f94f9041cc6a6b4c8c9fa160b09435eba3e090000000000002251203887174ead846b0cc4a5a6aaf76f193f94f9041cc6a6b4c8c9fa160b09435eba3e090000000000002251203887174ead846b0cc4a5a6aaf76f193f94f9041cc6a6b4c8c9fa160b09435eba3e090000000000002251203887174ead846b0cc4a5a6aaf76f193f94f9041cc6a6b4c8c9fa160b09435eba3e090000000000002251203887174ead846b0cc4a5a6aaf76f193f94f9041cc6a6b4c8c9fa160b09435eba3e090000000000002251203887174ead846b0cc4a5a6aaf76f193f94f9041cc6a6b4c8c9fa160b09435eba3e090000000000002251203887174ead846b0cc4a5a6aaf76f193f94f9041cc6a6b4c8c9fa160b09435eba0247304402205e0880c23eb43e9cb09d75f784039fa1ab252db0d85fe6637792b2b035e62f1b0220672c99c4b2c6fdf19597f9d00442c915c793b84bc5f3588411d3ad17b962129801210230c355115552ebae11e6b47eb5f0e1d2a31e7fa637ffa2ef3902bb5f2888feef00000000"
}