{
  "txid": "666f67427e0255853044f0afcca07310c91853d7df33832c6a786a8493f72165",
  "version": 2,
  "locktime": 0,
  "vin": [
    {
      "txid": "a63e411174e97bec0298225160116a762dc3b8154c4e472d06650a11b3154671",
      "vout": 1,
      "prevout": {
        "scriptpubkey": "5120c5dfce5660df53f11aaabe82e0c165c5677f2f43cd7274e39bbacd74212c196a",
        "scriptpubkey_asm": "OP_PUSHNUM_1 OP_PUSHBYTES_32 c5dfce5660df53f11aaabe82e0c165c5677f2f43cd7274e39bbacd74212c196a",
        "scriptpubkey_type": "v1_p2tr",
        "scriptpubkey_address": "bc1pch0uu4nqmaflzx42h6pwpst9c4nh7t6re4e8fcumhtxhggfvr94qnyfpew",
        "value": 242472
      },
      "scriptsig": "",
      "scriptsig_asm": "",
      "witness": [
        "df7036ac98b2547829e6bb5e0aa7b4c8ab2d7e0ba22c65294e550bf050b518258965b8af07aab8a942399e5bc0449f573efbe97aac8f3db4212fc1d1de739969"
      ],
      "is_coinbase": false,
      "sequence": 4294967293
    }
  ],
  "vout": [
    {
      "scriptpubkey": "51203d015ef02f4c779e48fb9ef17a9ea7cc8b0f5f88d4048c718d6738d8f07d9aa2",
      "scriptpubkey_asm": "OP_PUSHNUM_1 OP_PUSHBYTES_32 3d015ef02f4c779e48fb9ef17a9ea7cc8b0f5f88d4048c718d6738d8f07d9aa2",
      "scriptpubkey_type": "v1_p2tr",
      "scriptpubkey_address": "bc1p85q4aup0f3meuj8mnmch4848ej9s7hug6szgcuvdvuud3uran23qnc3lda",
      "value": 2826
    },
    {
      "scriptpubkey": "5120c5dfce5660df53f11aaabe82e0c165c5677f2f43cd7274e39bbacd74212c196a",
      "scriptpubkey_asm": "OP_PUSHNUM_1 OP_PUSHBYTES_32 c5dfce5660df53f11aaabe82e0c165c5677f2f43cd7274e39bbacd74212c196a",
      "scriptpubkey_type": "v1_p2tr",
      "scriptpubkey_address": "bc1pch0uu4nqmaflzx42h6pwpst9c4nh7t6re4e8fcumhtxhggfvr94qnyfpew",
      "value": 237336
    }
  ],
  "size": 205,
  "weight": 616,
  "fee": 2310,
  "status": {
    "confirmed": true,
    "block_height": 834638,
    "block_hash": "000000000000000000025f742c626208ac87e0b7d15054abb4a19ca2d735a54e",
    "block_time": 1710405325
  },
  "hex": "02000000000101714615b3110a65062d474e4c15b8c32d766a116051229802ec7be97411413ea60100000000fdffffff020a0b0000000000002251203d015ef02f4c779e48fb9ef17a9ea7cc8b0f5f88d4048c718d6738d8f07d9aa2189f030000000000225120c5dfce5660df53f11aaabe82e0c165c5677f2f43cd7274e39bbacd74212c196a0140df7036ac98b2547829e6bb5e0aa7b4c8ab2d7e0ba22c65294e550bf050b518258965b8af07aab8a942399e5bc0449f573efbe97aac8f3db4212fc1d1de73996900000000"
}