{
  "txid": "6671528f5ebdaaa75afba0ae30f0a19d11b101420a5b1c45b719fa79b94451b1",
  "version": 1,
  "locktime": 0,
  "vin": [
    {
      "txid": "888888857c80b35948c3b032f5c163fe592aa5a9da2c1975c7b06b2c4292fb36",
      "vout": 0,
      "prevout": {
        "scriptpubkey": "5120e4c5d9be59abc520d6984a9cd760dafa82f1357604cf52eca52c6cb6ca2bf3a0",
        "scriptpubkey_asm": "OP_PUSHNUM_1 OP_PUSHBYTES_32 e4c5d9be59abc520d6984a9cd760dafa82f1357604cf52eca52c6cb6ca2bf3a0",
        "scriptpubkey_type": "v1_p2tr",
        "scriptpubkey_address": "bc1punzan0je40zjp45cf2wdwcx6l2p0zdtkqn849m9993ktdj3t7wsqhh7yz2",
        "value": 11616
      },
      "scriptsig": "",
      "scriptsig_asm": "",
      "witness": [
        "34832a349ee65248eac4e56d0afbc1f8a66ca7f4160b9fc553487c8c3e9d38ced463dd9203d10aaca2398296227eca2d3be40f5e3ea212316074aa1f8b2f2332",
        "20d077181dfdb4fc5396e1ab4aacc89bf381409cddb3219dba5b3526a06af6ef9bac00630461746f6d03646d743ea16461726773a46474696d651a65dc554b656e6f6e63650068626974776f726b6367383838383838386b6d696e745f7469636b657268696e66696e69747968",
        "c0d077181dfdb4fc5396e1ab4aacc89bf381409cddb3219dba5b3526a06af6ef9b"
      ],
      "is_coinbase": false,
      "sequence": 4294967295
    }
  ],
  "vout": [
    {
      "scriptpubkey": "512025f35105929f9bf5d8b4361e931d6ae52420af89765bd9d2033017792c93d634",
      "scriptpubkey_asm": "OP_PUSHNUM_1 OP_PUSHBYTES_32 25f35105929f9bf5d8b4361e931d6ae52420af89765bd9d2033017792c93d634",
      "scriptpubkey_type": "v1_p2tr",
      "scriptpubkey_address": "bc1pyhe4zpvjn7dltk95xc0fx8t2u5jzptufwedan5srxqthjtyn6c6qnr7yht",
      "value": 9999
    }
  ],
  "size": 306,
  "weight": 588,
  "fee": 1617,
  "status": {
    "confirmed": true,
    "block_height": 834464,
    "block_hash": "0000000000000000000177a0869a911a2b65c9bdcd5a8bcb02b68f305bee848e",
    "block_time": 1710308296
  },
  "hex": "0100000000010136fb92422c6bb0c775192cdaa9a52a59fe63c1f532b0c34859b3807c858888880000000000ffffffff010f2700000000000022512025f35105929f9bf5d8b4361e931d6ae52420af89765bd9d2033017792c93d634034034832a349ee65248eac4e56d0afbc1f8a66ca7f4160b9fc553487c8c3e9d38ced463dd9203d10aaca2398296227eca2d3be40f5e3ea212316074aa1f8b2f23326d20d077181dfdb4fc5396e1ab4aacc89bf381409cddb3219dba5b3526a06af6ef9bac00630461746f6d03646d743ea16461726773a46474696d651a65dc554b656e6f6e63650068626974776f726b6367383838383838386b6d696e745f7469636b657268696e66696e6974796821c0d077181dfdb4fc5396e1ab4aacc89bf381409cddb3219dba5b3526a06af6ef9b00000000"
}