{
  "txid": "66785ce5a8d57ad364d8caebea4d44777f6f6d98c9c1deb473f09cdef9048d63",
  "version": 1,
  "locktime": 0,
  "vin": [
    {
      "txid": "649ae59b34b07831b47612fff6693407750725bf7eda8baf8df2b13ea60ca7e0",
      "vout": 0,
      "prevout": {
        "scriptpubkey": "76a9140277d339b6473fd265a4d25dbbc4478f0ab40e9488ac",
        "scriptpubkey_asm": "OP_DUP OP_HASH160 OP_PUSHBYTES_20 0277d339b6473fd265a4d25dbbc4478f0ab40e94 OP_EQUALVERIFY OP_CHECKSIG",
        "scriptpubkey_type": "p2pkh",
        "scriptpubkey_address": "1E3tyhPKNTFKifukgib1bYBQJ4BmuhPNQ",
        "value": 11600000
      },
      "scriptsig": "473044022012b7ee17d1e804fc05dded50c0d563dee086b381f353316fa8fef7288ae0abcb022024763ef17729ffd52f83c78e6a8b9e34f1d4a2b4eb0f0fe5278abf91647f5be2012103f972feec704a80dde2b3af3f2d9090c5def0500aa959eea81a29ebb692425972",
      "scriptsig_asm": "OP_PUSHBYTES_71 3044022012b7ee17d1e804fc05dded50c0d563dee086b381f353316fa8fef7288ae0abcb022024763ef17729ffd52f83c78e6a8b9e34f1d4a2b4eb0f0fe5278abf91647f5be201 OP_PUSHBYTES_33 03f972feec704a80dde2b3af3f2d9090c5def0500aa959eea81a29ebb692425972",
      "is_coinbase": false,
      "sequence": 4294967295
    }
  ],
  "vout": [
    {
      "scriptpubkey": "0014d0947ebedfcfee0b676b084ba05014dc2574c3fd",
      "scriptpubkey_asm": "OP_0 OP_PUSHBYTES_20 d0947ebedfcfee0b676b084ba05014dc2574c3fd",
      "scriptpubkey_type": "v0_p2wpkh",
      "scriptpubkey_address": "bc1q6z28a0klelhqkemtpp96q5q5msjhfslas02d2h",
      "value": 10900000
    },
    {
      "scriptpubkey": "76a9140277d339b6473fd265a4d25dbbc4478f0ab40e9488ac",
      "scriptpubkey_asm": "OP_DUP OP_HASH160 OP_PUSHBYTES_20 0277d339b6473fd265a4d25dbbc4478f0ab40e94 OP_EQUALVERIFY OP_CHECKSIG",
      "scriptpubkey_type": "p2pkh",
      "scriptpubkey_address": "1E3tyhPKNTFKifukgib1bYBQJ4BmuhPNQ",
      "value": 695706
    }
  ],
  "size": 222,
  "weight": 888,
  "fee": 4294,
  "status": {
    "confirmed": true,
    "block_height": 834638,
    "block_hash": "000000000000000000025f742c626208ac87e0b7d15054abb4a19ca2d735a54e",
    "block_time": 1710405325
  },
  "hex": "0100000001e0a70ca63eb1f28daf8bda7ebf250775073469f6ff1276b43178b0349be59a64000000006a473044022012b7ee17d1e804fc05dded50c0d563dee086b381f353316fa8fef7288ae0abcb022024763ef17729ffd52f83c78e6a8b9e34f1d4a2b4eb0f0fe5278abf91647f5be2012103f972feec704a80dde2b3af3f2d9090c5def0500aa959eea81a29ebb692425972ffffffff022052a60000000000160014d0947ebedfcfee0b676b084ba05014dc2574c3fd9a9d0a00000000001976a9140277d339b6473fd265a4d25dbbc4478f0ab40e9488ac00000000"
}