{
  "txid": "66863331db14a4a50e967c65de7e1c55fa0d710e11234836e34646952cba0d03",
  "version": 2,
  "locktime": 0,
  "vin": [
    {
      "txid": "acc3ba00869acb582a3f2904ce3a11dd3779350ce234063fc7d0959246213364",
      "vout": 24,
      "prevout": {
        "scriptpubkey": "5120fa3d5f96e52bc661c906480034ffcc2f5a9ec17a5f031df0ea0a4d4d7d1953a0",
        "scriptpubkey_asm": "OP_PUSHNUM_1 OP_PUSHBYTES_32 fa3d5f96e52bc661c906480034ffcc2f5a9ec17a5f031df0ea0a4d4d7d1953a0",
        "scriptpubkey_type": "v1_p2tr",
        "scriptpubkey_address": "bc1plg74l9h990rxrjgxfqqrfl7v9adfast6tup3mu82pfx56lge2wsqwf8q8c",
        "value": 1806
      },
      "scriptsig": "",
      "scriptsig_asm": "",
      "witness": [
        "705ccf704beeedc7d03a3aecf75ecc76e3b12de5dce96512491f07686af30c9f0e04fb625adbf01c7d0e1073f1b0e951914ae3f22d969b78e89740b74754a35f",
        "2012f666b1459ef9161e85090beff31d9d6eddb8f755ca7614520964bd719e20abac0063036f726401010a746578742f706c61696e00357b2270223a226272632d3230222c226f70223a226d696e74222c227469636b223a22646f6765222c22616d74223a2234323030227d68",
        "c012f666b1459ef9161e85090beff31d9d6eddb8f755ca7614520964bd719e20ab"
      ],
      "is_coinbase": false,
      "sequence": 4261412863
    }
  ],
  "vout": [
    {
      "scriptpubkey": "00147a665de7a370f4c9b372ab1fae587500a5bcbdb4",
      "scriptpubkey_asm": "OP_0 OP_PUSHBYTES_20 7a665de7a370f4c9b372ab1fae587500a5bcbdb4",
      "scriptpubkey_type": "v0_p2wpkh",
      "scriptpubkey_address": "bc1q0fn9mearwr6vnvmj4v06ukr4qzjme0d565dzcx",
      "value": 294
    }
  ],
  "size": 294,
  "weight": 540,
  "fee": 1512,
  "status": {
    "confirmed": true,
    "block_height": 834460,
    "block_hash": "00000000000000000000484a79b643b2524bbce82e5d8a442013fa5b8905ed98",
    "block_time": 1710307468
  },
  "hex": "02000000000101643321469295d0c73f0634e20c357937dd113ace04293f2a58cb9a8600bac3ac1800000000fffffffd0126010000000000001600147a665de7a370f4c9b372ab1fae587500a5bcbdb40340705ccf704beeedc7d03a3aecf75ecc76e3b12de5dce96512491f07686af30c9f0e04fb625adbf01c7d0e1073f1b0e951914ae3f22d969b78e89740b74754a35f6d2012f666b1459ef9161e85090beff31d9d6eddb8f755ca7614520964bd719e20abac0063036f726401010a746578742f706c61696e00357b2270223a226272632d3230222c226f70223a226d696e74222c227469636b223a22646f6765222c22616d74223a2234323030227d6821c012f666b1459ef9161e85090beff31d9d6eddb8f755ca7614520964bd719e20ab00000000"
}