{
  "txid": "668f0640f48b01464fd93c70dce16c707524f5d92f8b46538066281179ed96d7",
  "version": 2,
  "locktime": 0,
  "vin": [
    {
      "txid": "07afe9b35d6c6c4f25750e7b4b1dd4c337db8d30e1563c8325147ac1256f3c87",
      "vout": 0,
      "prevout": {
        "scriptpubkey": "5120b3c8adb10e0483fd078b9852c84d96308ae703e8b28d69cff9925ebdfaf0ad71",
        "scriptpubkey_asm": "OP_PUSHNUM_1 OP_PUSHBYTES_32 b3c8adb10e0483fd078b9852c84d96308ae703e8b28d69cff9925ebdfaf0ad71",
        "scriptpubkey_type": "v1_p2tr",
        "scriptpubkey_address": "bc1pk0y2mvgwqjpl6putnpfvsnvkxz9wwqlgk2xknnlejf0tm7hs44cs2tyuzj",
        "value": 30000
      },
      "scriptsig": "",
      "scriptsig_asm": "",
      "witness": [
        "df276db262570e11fc46827d75f3230fac1d7c41e2b07af524d4fad53e404a3ee847326488b983163366d24f19310475f4c2265502d8fc24955f8615a6108b1d"
      ],
      "is_coinbase": false,
      "sequence": 4294967295
    },
    {
      "txid": "608024e2fe345709dcdb83d320997bd41b60ca4a7bb1cfff44b44105a6ca3899",
      "vout": 0,
      "prevout": {
        "scriptpubkey": "5120b3c8adb10e0483fd078b9852c84d96308ae703e8b28d69cff9925ebdfaf0ad71",
        "scriptpubkey_asm": "OP_PUSHNUM_1 OP_PUSHBYTES_32 b3c8adb10e0483fd078b9852c84d96308ae703e8b28d69cff9925ebdfaf0ad71",
        "scriptpubkey_type": "v1_p2tr",
        "scriptpubkey_address": "bc1pk0y2mvgwqjpl6putnpfvsnvkxz9wwqlgk2xknnlejf0tm7hs44cs2tyuzj",
        "value": 30000
      },
      "scriptsig": "",
      "scriptsig_asm": "",
      "witness": [
        "f3f49fe603ca9908345d157bec9cb1cb75794b1c9aa5cf1f9702af22ccf47d3f621f4d4ccf0887806a9a984a13ad4e35d169cdde0c752acec42c350d1f2f4ef9"
      ],
      "is_coinbase": false,
      "sequence": 4294967295
    }
  ],
  "vout": [
    {
      "scriptpubkey": "5120e5e345a55b7ddca4e49b8f0ff7003918a992c8c4eff66c06183c75fa83c439f0",
      "scriptpubkey_asm": "OP_PUSHNUM_1 OP_PUSHBYTES_32 e5e345a55b7ddca4e49b8f0ff7003918a992c8c4eff66c06183c75fa83c439f0",
      "scriptpubkey_type": "v1_p2tr",
      "scriptpubkey_address": "bc1puh35tf2m0hw2feym3u8lwqperz5e9jxyalmxcpsc836l4q7y88cql3n0w9",
      "value": 57803
    }
  ],
  "size": 269,
  "weight": 674,
  "fee": 2197,
  "status": {
    "confirmed": true,
    "block_height": 834460,
    "block_hash": "00000000000000000000484a79b643b2524bbce82e5d8a442013fa5b8905ed98",
    "block_time": 1710307468
  },
  "hex": "02000000000102873c6f25c17a1425833c56e1308ddb37c3d41d4b7b0e75254f6c6c5db3e9af070000000000ffffffff9938caa60541b444ffcfb17b4aca601bd47b9920d383dbdc095734fee22480600000000000ffffffff01cbe1000000000000225120e5e345a55b7ddca4e49b8f0ff7003918a992c8c4eff66c06183c75fa83c439f00140df276db262570e11fc46827d75f3230fac1d7c41e2b07af524d4fad53e404a3ee847326488b983163366d24f19310475f4c2265502d8fc24955f8615a6108b1d0140f3f49fe603ca9908345d157bec9cb1cb75794b1c9aa5cf1f9702af22ccf47d3f621f4d4ccf0887806a9a984a13ad4e35d169cdde0c752acec42c350d1f2f4ef900000000"
}