{
  "txid": "669c6e4d43616789ffc61e804a66028f04e5d029b0c6475decc7d4f6aa309e8f",
  "version": 2,
  "locktime": 0,
  "vin": [
    {
      "txid": "48ccce009fb061b96deff1afdc8ba7970cebb4ead27bacdf3638417b65b6c797",
      "vout": 0,
      "prevout": {
        "scriptpubkey": "51201d5ea5e46d8d7299f36e7ca8e49e5850f0a16f2415f11435549cd529039466ef",
        "scriptpubkey_asm": "OP_PUSHNUM_1 OP_PUSHBYTES_32 1d5ea5e46d8d7299f36e7ca8e49e5850f0a16f2415f11435549cd529039466ef",
        "scriptpubkey_type": "v1_p2tr",
        "scriptpubkey_address": "bc1pr402terd34efnumw0j5wf8jc2rc2zmeyzhc3gd25nn2jjqu5vmhs3p50zc",
        "value": 546
      },
      "scriptsig": "",
      "scriptsig_asm": "",
      "witness": [
        "191ef721d89166d925b66cf5a0a60fbd6c2a31795c55b086459a31ba42b75102428e1705a46e4a0442f49b12ebbc912a2fac6844a25d5565faa7eb185261b50b"
      ],
      "is_coinbase": false,
      "sequence": 2147483649
    },
    {
      "txid": "ed61ad32a07b6a87b16f0003e863854d99898323650dfbed246052647d5088b6",
      "vout": 1,
      "prevout": {
        "scriptpubkey": "51201d5ea5e46d8d7299f36e7ca8e49e5850f0a16f2415f11435549cd529039466ef",
        "scriptpubkey_asm": "OP_PUSHNUM_1 OP_PUSHBYTES_32 1d5ea5e46d8d7299f36e7ca8e49e5850f0a16f2415f11435549cd529039466ef",
        "scriptpubkey_type": "v1_p2tr",
        "scriptpubkey_address": "bc1pr402terd34efnumw0j5wf8jc2rc2zmeyzhc3gd25nn2jjqu5vmhs3p50zc",
        "value": 270084
      },
      "scriptsig": "",
      "scriptsig_asm": "",
      "witness": [
        "5647d1a88cbfc0f0a736fa14caf5cd175835f64379d55e91330e1394357ad7b757a7d57c9f014b478037a802f88efc4e5ba3bea428fe002934878f140f8853a6"
      ],
      "is_coinbase": false,
      "sequence": 2147483649
    }
  ],
  "vout": [
    {
      "scriptpubkey": "51202db3e25473d51c8f58535f9cd934073b7ad972235ac10d82671d61434bb762ad",
      "scriptpubkey_asm": "OP_PUSHNUM_1 OP_PUSHBYTES_32 2db3e25473d51c8f58535f9cd934073b7ad972235ac10d82671d61434bb762ad",
      "scriptpubkey_type": "v1_p2tr",
      "scriptpubkey_address": "bc1p9ke7y4rn65wg7kznt7wdjdq88dadju3rttqsmqn8r4s5xjahv2ksnyeh9x",
      "value": 546
    },
    {
      "scriptpubkey": "51201d5ea5e46d8d7299f36e7ca8e49e5850f0a16f2415f11435549cd529039466ef",
      "scriptpubkey_asm": "OP_PUSHNUM_1 OP_PUSHBYTES_32 1d5ea5e46d8d7299f36e7ca8e49e5850f0a16f2415f11435549cd529039466ef",
      "scriptpubkey_type": "v1_p2tr",
      "scriptpubkey_address": "bc1pr402terd34efnumw0j5wf8jc2rc2zmeyzhc3gd25nn2jjqu5vmhs3p50zc",
      "value": 266919
    }
  ],
  "size": 312,
  "weight": 846,
  "fee": 3165,
  "status": {
    "confirmed": true,
    "block_height": 834460,
    "block_hash": "00000000000000000000484a79b643b2524bbce82e5d8a442013fa5b8905ed98",
    "block_time": 1710307468
  },
  "hex": "0200000000010297c7b6657b413836dfac7bd2eab4eb0c97a78bdcaff1ef6db961b09f00cecc48000000000001000080b688507d64526024edfb0d65238389994d8563e803006fb1876a7ba032ad61ed0100000000010000800222020000000000002251202db3e25473d51c8f58535f9cd934073b7ad972235ac10d82671d61434bb762ada7120400000000002251201d5ea5e46d8d7299f36e7ca8e49e5850f0a16f2415f11435549cd529039466ef0140191ef721d89166d925b66cf5a0a60fbd6c2a31795c55b086459a31ba42b75102428e1705a46e4a0442f49b12ebbc912a2fac6844a25d5565faa7eb185261b50b01405647d1a88cbfc0f0a736fa14caf5cd175835f64379d55e91330e1394357ad7b757a7d57c9f014b478037a802f88efc4e5ba3bea428fe002934878f140f8853a600000000"
}