{
  "txid": "669c6446b835ed2abb8be6ec42ad85d4009f155eee771d04337d9be216cc0450",
  "version": 2,
  "locktime": 0,
  "vin": [
    {
      "txid": "0ee0368e41b0dc4ff90128b70301a0febca45cbdc7c63f30ddb27c46ef57b3c0",
      "vout": 9,
      "prevout": {
        "scriptpubkey": "512020e04d2dccf6f60c3404bd7aa8beb834fe5e90335157aa416786237bb497f690",
        "scriptpubkey_asm": "OP_PUSHNUM_1 OP_PUSHBYTES_32 20e04d2dccf6f60c3404bd7aa8beb834fe5e90335157aa416786237bb497f690",
        "scriptpubkey_type": "v1_p2tr",
        "scriptpubkey_address": "bc1pyrsy6twv7mmqcdqyh4a2304cxnl9aypn29t65st8sc3hhdyh76gqxafves",
        "value": 546
      },
      "scriptsig": "",
      "scriptsig_asm": "",
      "witness": [
        "eeb57e62101bb35384596236a287908d804daf06e7f6e56430fabe9b05b949673e3c1b5760a037597f6e0591de07fe344a59a7e0dcf4d2f3901c7c81704480a8"
      ],
      "is_coinbase": false,
      "sequence": 4294967293
    },
    {
      "txid": "1852f2a4592d2453acfd207031012ecb5953f219f0c3adaa717912657e75e077",
      "vout": 1,
      "prevout": {
        "scriptpubkey": "a914b26484d2e745a3d62b81e7323e656184b31db20d87",
        "scriptpubkey_asm": "OP_HASH160 OP_PUSHBYTES_20 b26484d2e745a3d62b81e7323e656184b31db20d OP_EQUAL",
        "scriptpubkey_type": "p2sh",
        "scriptpubkey_address": "3HxGcruRxdLE7iQGQGVgo5NkQ8nPQp4d2u",
        "value": 799619
      },
      "scriptsig": "1600148f98073442e4c9f7e986d3b1e68030511f43a610",
      "scriptsig_asm": "OP_PUSHBYTES_22 00148f98073442e4c9f7e986d3b1e68030511f43a610",
      "witness": [
        "3045022100da5b92314418b8c0a3153f9e790842016efcb22c28a4950eddecc56ec804e66202206044bd05fca9d3b0f3e367d4d38a65de368857649eb93817d1a486bed330aaaf01",
        "02c1b3be76b7a5aa790b3c368e9612f9d111bb6bda47cfffa8e67f13d4e1971088"
      ],
      "is_coinbase": false,
      "sequence": 4294967293,
      "inner_redeemscript_asm": "OP_0 OP_PUSHBYTES_20 8f98073442e4c9f7e986d3b1e68030511f43a610"
    }
  ],
  "vout": [
    {
      "scriptpubkey": "5120a220b0084e9e67a2cceb2e6fba2d0cbbfdac3ac8d73a327d6a287321cf3becd9",
      "scriptpubkey_asm": "OP_PUSHNUM_1 OP_PUSHBYTES_32 a220b0084e9e67a2cceb2e6fba2d0cbbfdac3ac8d73a327d6a287321cf3becd9",
      "scriptpubkey_type": "v1_p2tr",
      "scriptpubkey_address": "bc1p5gstqzzwnen69n8t9ehm5tgvh076cwkg6uarylt29pejrnemanvswn9wf3",
      "value": 546
    },
    {
      "scriptpubkey": "a914b26484d2e745a3d62b81e7323e656184b31db20d87",
      "scriptpubkey_asm": "OP_HASH160 OP_PUSHBYTES_20 b26484d2e745a3d62b81e7323e656184b31db20d OP_EQUAL",
      "scriptpubkey_type": "p2sh",
      "scriptpubkey_address": "3HxGcruRxdLE7iQGQGVgo5NkQ8nPQp4d2u",
      "value": 791579
    }
  ],
  "size": 366,
  "weight": 936,
  "fee": 8040,
  "status": {
    "confirmed": true,
    "block_height": 834638,
    "block_hash": "000000000000000000025f742c626208ac87e0b7d15054abb4a19ca2d735a54e",
    "block_time": 1710405325
  },
  "hex": "02000000000102c0b357ef467cb2dd303fc6c7bd5ca4bcfea00103b72801f94fdcb0418e36e00e0900000000fdffffff77e0757e65127971aaadc3f019f25359cb2e01317020fdac53242d59a4f2521801000000171600148f98073442e4c9f7e986d3b1e68030511f43a610fdffffff022202000000000000225120a220b0084e9e67a2cceb2e6fba2d0cbbfdac3ac8d73a327d6a287321cf3becd91b140c000000000017a914b26484d2e745a3d62b81e7323e656184b31db20d870140eeb57e62101bb35384596236a287908d804daf06e7f6e56430fabe9b05b949673e3c1b5760a037597f6e0591de07fe344a59a7e0dcf4d2f3901c7c81704480a802483045022100da5b92314418b8c0a3153f9e790842016efcb22c28a4950eddecc56ec804e66202206044bd05fca9d3b0f3e367d4d38a65de368857649eb93817d1a486bed330aaaf012102c1b3be76b7a5aa790b3c368e9612f9d111bb6bda47cfffa8e67f13d4e197108800000000"
}