{
  "txid": "669dd76665f83308de7a353197244811848a6fcd3cc1f07dd44103617491af66",
  "version": 2,
  "locktime": 0,
  "vin": [
    {
      "txid": "4421f46f22ad0b33f628743866e7de3f3fc8f0484fae1365d066e7f4f392a5be",
      "vout": 1,
      "prevout": {
        "scriptpubkey": "51201a21c1638fcd414d4a5a775bc225ed2e6623ce41c3557a62c416271cb12c6a54",
        "scriptpubkey_asm": "OP_PUSHNUM_1 OP_PUSHBYTES_32 1a21c1638fcd414d4a5a775bc225ed2e6623ce41c3557a62c416271cb12c6a54",
        "scriptpubkey_type": "v1_p2tr",
        "scriptpubkey_address": "bc1prgsuzcu0e4q56jj6waduyf0d9enz8njpcd2h5ckyzcn3evfvdf2qhaen9q",
        "value": 128545
      },
      "scriptsig": "",
      "scriptsig_asm": "",
      "witness": [
        "121b8c2c29632465768c91491fb2f46b4da7ff6946464a286dbc32ab480ac6f04b485e14bbb357b6db3177ce117e8c2ed92c1828c1efcd7ea790bd39b542e089"
      ],
      "is_coinbase": false,
      "sequence": 2147483649
    },
    {
      "txid": "9133b88ad5975b144e921ab81731d588ef75d62fd7f4493dfe8507a625950ff4",
      "vout": 2,
      "prevout": {
        "scriptpubkey": "51201a21c1638fcd414d4a5a775bc225ed2e6623ce41c3557a62c416271cb12c6a54",
        "scriptpubkey_asm": "OP_PUSHNUM_1 OP_PUSHBYTES_32 1a21c1638fcd414d4a5a775bc225ed2e6623ce41c3557a62c416271cb12c6a54",
        "scriptpubkey_type": "v1_p2tr",
        "scriptpubkey_address": "bc1prgsuzcu0e4q56jj6waduyf0d9enz8njpcd2h5ckyzcn3evfvdf2qhaen9q",
        "value": 117105
      },
      "scriptsig": "",
      "scriptsig_asm": "",
      "witness": [
        "2efae4e9d84529118861aed5bfcc952c3ef602a7d3c5c8a6334439e4f94e00636933b8aa3b83d3d75bbccd86797d4428be17377a50cd9b80cc5e1846341a7963"
      ],
      "is_coinbase": false,
      "sequence": 2147483649
    },
    {
      "txid": "f9df0a98d7d7b1a8fdd7566fdfac178597fdb3ed8615b9108eec7e84bb0f30c3",
      "vout": 2,
      "prevout": {
        "scriptpubkey": "51201a21c1638fcd414d4a5a775bc225ed2e6623ce41c3557a62c416271cb12c6a54",
        "scriptpubkey_asm": "OP_PUSHNUM_1 OP_PUSHBYTES_32 1a21c1638fcd414d4a5a775bc225ed2e6623ce41c3557a62c416271cb12c6a54",
        "scriptpubkey_type": "v1_p2tr",
        "scriptpubkey_address": "bc1prgsuzcu0e4q56jj6waduyf0d9enz8njpcd2h5ckyzcn3evfvdf2qhaen9q",
        "value": 113600
      },
      "scriptsig": "",
      "scriptsig_asm": "",
      "witness": [
        "1ff81b5e5355b1281f0e554df4d5cf4db34553062939eb67710532efe54e7f4b0d33b34bf19995d96ec99e0d13b3e3a482a15abb3a2cbc645a58353cefce2016"
      ],
      "is_coinbase": false,
      "sequence": 2147483649
    }
  ],
  "vout": [
    {
      "scriptpubkey": "a914d058a6f4724a0917bb2637e7031d20bf69ccd76c87",
      "scriptpubkey_asm": "OP_HASH160 OP_PUSHBYTES_20 d058a6f4724a0917bb2637e7031d20bf69ccd76c OP_EQUAL",
      "scriptpubkey_type": "p2sh",
      "scriptpubkey_address": "3Lgeg73gXoUqhoHf4upG3HnQByRfofeMQ5",
      "value": 280000
    },
    {
      "scriptpubkey": "51201a21c1638fcd414d4a5a775bc225ed2e6623ce41c3557a62c416271cb12c6a54",
      "scriptpubkey_asm": "OP_PUSHNUM_1 OP_PUSHBYTES_32 1a21c1638fcd414d4a5a775bc225ed2e6623ce41c3557a62c416271cb12c6a54",
      "scriptpubkey_type": "v1_p2tr",
      "scriptpubkey_address": "bc1prgsuzcu0e4q56jj6waduyf0d9enz8njpcd2h5ckyzcn3evfvdf2qhaen9q",
      "value": 75122
    }
  ],
  "size": 408,
  "weight": 1032,
  "fee": 4128,
  "status": {
    "confirmed": true,
    "block_height": 834638,
    "block_hash": "000000000000000000025f742c626208ac87e0b7d15054abb4a19ca2d735a54e",
    "block_time": 1710405325
  },
  "hex": "02000000000103bea592f3f4e766d06513ae4f48f0c83f3fdee766387428f6330bad226ff42144010000000001000080f40f9525a60785fe3d49f4d72fd675ef88d53117b81a924e145b97d58ab83391020000000001000080c3300fbb847eec8e10b91586edb3fd978517acdf6f56d7fda8b1d7d7980adff902000000000100008002c04504000000000017a914d058a6f4724a0917bb2637e7031d20bf69ccd76c8772250100000000002251201a21c1638fcd414d4a5a775bc225ed2e6623ce41c3557a62c416271cb12c6a540140121b8c2c29632465768c91491fb2f46b4da7ff6946464a286dbc32ab480ac6f04b485e14bbb357b6db3177ce117e8c2ed92c1828c1efcd7ea790bd39b542e08901402efae4e9d84529118861aed5bfcc952c3ef602a7d3c5c8a6334439e4f94e00636933b8aa3b83d3d75bbccd86797d4428be17377a50cd9b80cc5e1846341a796301401ff81b5e5355b1281f0e554df4d5cf4db34553062939eb67710532efe54e7f4b0d33b34bf19995d96ec99e0d13b3e3a482a15abb3a2cbc645a58353cefce201600000000"
}