{
  "txid": "66a9a530fec3883cd464158c51418e8ce0ddb8332f17733515c877ac896583f6",
  "version": 2,
  "locktime": 834212,
  "vin": [
    {
      "txid": "132bf8c3315b724bf7c69fdddc84347ef1f712cb3f0dd12a2f0346b6ae9098a5",
      "vout": 0,
      "prevout": {
        "scriptpubkey": "0014c3a993bf8eaf08003cbdeddcd3265374cd9be151",
        "scriptpubkey_asm": "OP_0 OP_PUSHBYTES_20 c3a993bf8eaf08003cbdeddcd3265374cd9be151",
        "scriptpubkey_type": "v0_p2wpkh",
        "scriptpubkey_address": "bc1qcw5e80uw4uyqq09aahwdxfjnwnxehc23khvlc2",
        "value": 38344
      },
      "scriptsig": "",
      "scriptsig_asm": "",
      "witness": [
        "3044022055505337bf1a02391a2e91c9b3e20cece47ced3c37320094cb548b160294e043022055430a06dd34c21a5b49b02c55d3639939517feafe09ac4f4560c4c9f54d222401",
        "025c623fadd43a92033612113e34a011c353dd4c15f6698daf4d87218dc87ea787"
      ],
      "is_coinbase": false,
      "sequence": 4294967293
    }
  ],
  "vout": [
    {
      "scriptpubkey": "00148bf84f917a784394bace4abe3af1d2ecccaed05d",
      "scriptpubkey_asm": "OP_0 OP_PUSHBYTES_20 8bf84f917a784394bace4abe3af1d2ecccaed05d",
      "scriptpubkey_type": "v0_p2wpkh",
      "scriptpubkey_address": "bc1q30uylyt60ppefwkwf2lr4uwjanx2a5zakcqqgj",
      "value": 14526
    },
    {
      "scriptpubkey": "001417a35a14bc8948001f8925b6ad5f728c5c8c9e07",
      "scriptpubkey_asm": "OP_0 OP_PUSHBYTES_20 17a35a14bc8948001f8925b6ad5f728c5c8c9e07",
      "scriptpubkey_type": "v0_p2wpkh",
      "scriptpubkey_address": "bc1qz734599u39yqq8ufykm26hmj33wge8s8sqrksq",
      "value": 22267
    }
  ],
  "size": 222,
  "weight": 561,
  "fee": 1551,
  "status": {
    "confirmed": true,
    "block_height": 834464,
    "block_hash": "0000000000000000000177a0869a911a2b65c9bdcd5a8bcb02b68f305bee848e",
    "block_time": 1710308296
  },
  "hex": "02000000000101a59890aeb646032f2ad10d3fcb12f7f17e3484dcdd9fc6f74b725b31c3f82b130000000000fdffffff02be380000000000001600148bf84f917a784394bace4abe3af1d2ecccaed05dfb5600000000000016001417a35a14bc8948001f8925b6ad5f728c5c8c9e0702473044022055505337bf1a02391a2e91c9b3e20cece47ced3c37320094cb548b160294e043022055430a06dd34c21a5b49b02c55d3639939517feafe09ac4f4560c4c9f54d22240121025c623fadd43a92033612113e34a011c353dd4c15f6698daf4d87218dc87ea787a4ba0c00"
}