{
  "txid": "66c1dbcbe1ea61c2b450aa97adb7fe84547085b89b2503a04b0c14f8ce0af95f",
  "version": 1,
  "locktime": 834637,
  "vin": [
    {
      "txid": "00b00b2f2c6a8d5f5c5124309c2b5663dbdade708c3be206722c0eba5eb4ce2e",
      "vout": 0,
      "prevout": {
        "scriptpubkey": "a91405fd8d8bc9cb8d9514e64172a02f78fd5a856f0687",
        "scriptpubkey_asm": "OP_HASH160 OP_PUSHBYTES_20 05fd8d8bc9cb8d9514e64172a02f78fd5a856f06 OP_EQUAL",
        "scriptpubkey_type": "p2sh",
        "scriptpubkey_address": "32Eh3fiCqWHHNTALhrGwfYqux6dKM1Kpjh",
        "value": 2218550
      },
      "scriptsig": "220020ce9794e608e8ba2187f2c7eb13df3d04c8969eb7c32f4d734a23d4c69fdc7a30",
      "scriptsig_asm": "OP_PUSHBYTES_34 0020ce9794e608e8ba2187f2c7eb13df3d04c8969eb7c32f4d734a23d4c69fdc7a30",
      "witness": [
        "",
        "3045022100923ae406aa25f77b115f7d6c17920ca9c698d8e78dcbc57dadd0e33a9655d8b902205bb07bc7a1307f6714f65818fb5fce283d3d67df7100920554f38c0dbf0c8dc401",
        "304402205e34309a3a1a01df56eb8dfbe211db7652502aadf3ab6833dd10e84c4d5940ea02200a9cd14e2f32ca09c135d7b0ed604cdc01ff988f0854524eb2b2881da1aa84e601",
        "522103e6f715594e6c0cd05057ce5b64cded31e2e83dd4827db397654e2e0cfdea87142103f65d3f1c359a2c3cf284b94ab1faafa828db16227a390525c9309e089992645821039f46078310386eb9b4c0050f7b56b72593fb99d5b561f3cdedc6957cbd83844953ae"
      ],
      "is_coinbase": false,
      "sequence": 4294967293,
      "inner_redeemscript_asm": "OP_0 OP_PUSHBYTES_32 ce9794e608e8ba2187f2c7eb13df3d04c8969eb7c32f4d734a23d4c69fdc7a30",
      "inner_witnessscript_asm": "OP_PUSHNUM_2 OP_PUSHBYTES_33 03e6f715594e6c0cd05057ce5b64cded31e2e83dd4827db397654e2e0cfdea8714 OP_PUSHBYTES_33 03f65d3f1c359a2c3cf284b94ab1faafa828db16227a390525c9309e0899926458 OP_PUSHBYTES_33 039f46078310386eb9b4c0050f7b56b72593fb99d5b561f3cdedc6957cbd838449 OP_PUSHNUM_3 OP_CHECKMULTISIG"
    },
    {
      "txid": "082b5fe4ae5b163dc3e29ac7d85c07bc86b7c7bbad1a16390ee022fdc6a75b50",
      "vout": 0,
      "prevout": {
        "scriptpubkey": "a914895f2c77a1cb63177aee99650590102b51a99f7987",
        "scriptpubkey_asm": "OP_HASH160 OP_PUSHBYTES_20 895f2c77a1cb63177aee99650590102b51a99f79 OP_EQUAL",
        "scriptpubkey_type": "p2sh",
        "scriptpubkey_address": "3EDNWcHTeHAtiTetCGrjFMXbB5UZjpj7YV",
        "value": 384980000
      },
      "scriptsig": "22002073e7309a7c9b5e91cc9c543061e6d94fb015a958342d1892e30055ce9008f6d0",
      "scriptsig_asm": "OP_PUSHBYTES_34 002073e7309a7c9b5e91cc9c543061e6d94fb015a958342d1892e30055ce9008f6d0",
      "witness": [
        "",
        "3044022044b17f347aae287d08702f058c37c68c27fa8ab23ab771649650dbef115ced3c02200c3b0b3a3ea66f90131180178591a042b0b082d540a915a5ed7c3c339049567901",
        "304402205b3861c573a1f30da44528d0bf24554365cd5425e55f33bd6db8f4d913d34fc3022001f8e74909af0d81d60b86cd47598b30d44359aa3782df8bda161e221c50e71701",
        "5221034952eaab58f01aa1a378b9a6a9fd7698e7b2735ef973aa79e16e41452e8c8fd52102ef13d678ef3d1798493ba4b41f81577409929e30dcd9e0b5f2de9752d5cd64552103cf39b9149c162ae9364990ebf28732752a2e1afe59bdde3631c849084cd4e49f53ae"
      ],
      "is_coinbase": false,
      "sequence": 4294967293,
      "inner_redeemscript_asm": "OP_0 OP_PUSHBYTES_32 73e7309a7c9b5e91cc9c543061e6d94fb015a958342d1892e30055ce9008f6d0",
      "inner_witnessscript_asm": "OP_PUSHNUM_2 OP_PUSHBYTES_33 034952eaab58f01aa1a378b9a6a9fd7698e7b2735ef973aa79e16e41452e8c8fd5 OP_PUSHBYTES_33 02ef13d678ef3d1798493ba4b41f81577409929e30dcd9e0b5f2de9752d5cd6455 OP_PUSHBYTES_33 03cf39b9149c162ae9364990ebf28732752a2e1afe59bdde3631c849084cd4e49f OP_PUSHNUM_3 OP_CHECKMULTISIG"
    },
    {
      "txid": "09dfbfa421a93fbdb28a21a957c05b300fa5a6f2f9269335ef28f32740c354fb",
      "vout": 101,
      "prevout": {
        "scriptpubkey": "a91450d0dbd1486a532e6fda52579d04ed7caac0599087",
        "scriptpubkey_asm": "OP_HASH160 OP_PUSHBYTES_20 50d0dbd1486a532e6fda52579d04ed7caac05990 OP_EQUAL",
        "scriptpubkey_type": "p2sh",
        "scriptpubkey_address": "394LBeLA1aTcq7NJdTwUjyoonUvuvQiU8m",
        "value": 3777645
      },
      "scriptsig": "2200201a4b2f5a7b42ca414bb5de2eba2e624d31c8f4d73e541a8f949479c4fc12e290",
      "scriptsig_asm": "OP_PUSHBYTES_34 00201a4b2f5a7b42ca414bb5de2eba2e624d31c8f4d73e541a8f949479c4fc12e290",
      "witness": [
        "",
        "304402201b1564f164c668075c9736856d7937b84a6d2eb9985bee8928f4b1774dbf68d7022035f97d1102655e8fb36ce239689391ff60ad90b3b21caef5fd6c8f39e136adfe01",
        "3044022049043d19fdf4b72918af68e909113ced0be48b43b53687b078d2e2cddb00e0a802204969bd52b432559375f4e25928ace781ab7ddc952d203bdf9e0b6db9d2a1b3c901",
        "522102db8112a624b6f615095665a1656597c389c400c2f1d6c7f2c6925b1f0285c5de210359d0d8e0267aad3592ff3767e95d45a65a6ec6e731ed02f68e3436bc65e7985721020907f677c199b972cc8d9b69ce142e236e467fe83504f1d892619788707f148b53ae"
      ],
      "is_coinbase": false,
      "sequence": 4294967293,
      "inner_redeemscript_asm": "OP_0 OP_PUSHBYTES_32 1a4b2f5a7b42ca414bb5de2eba2e624d31c8f4d73e541a8f949479c4fc12e290",
      "inner_witnessscript_asm": "OP_PUSHNUM_2 OP_PUSHBYTES_33 02db8112a624b6f615095665a1656597c389c400c2f1d6c7f2c6925b1f0285c5de OP_PUSHBYTES_33 0359d0d8e0267aad3592ff3767e95d45a65a6ec6e731ed02f68e3436bc65e79857 OP_PUSHBYTES_33 020907f677c199b972cc8d9b69ce142e236e467fe83504f1d892619788707f148b OP_PUSHNUM_3 OP_CHECKMULTISIG"
    },
    {
      "txid": "7f7094d300973f64df17ed72a235a83cfcf88cec40d689665a4b318472537cd3",
      "vout": 0,
      "prevout": {
        "scriptpubkey": "a9140266b35255a53fe960672059bf7f43258a2cf2ac87",
        "scriptpubkey_asm": "OP_HASH160 OP_PUSHBYTES_20 0266b35255a53fe960672059bf7f43258a2cf2ac OP_EQUAL",
        "scriptpubkey_type": "p2sh",
        "scriptpubkey_address": "31uiJgUtbajSXCgUoYgGrZrqyiJcoa1UKT",
        "value": 3098597
      },
      "scriptsig": "220020218bbc1dc929c0172f75b7800b245dd48949889f77d3afd756a96ceca4bed8f2",
      "scriptsig_asm": "OP_PUSHBYTES_34 0020218bbc1dc929c0172f75b7800b245dd48949889f77d3afd756a96ceca4bed8f2",
      "witness": [
        "",
        "3044022062ed9c5e3470f2136d92bfbb007354b72a1d7e8b48bd7033a2bfc98295672d2302206902de225c1e10f997289892c9eaec011250427bcc076614624a50d30f98b85f01",
        "304402204257830b0e935e53f692e332337d506193d0945e4243680609116822ff529cf2022063c0b08c4dedf5d7aaec080eda0e1aae790cbb36ea7406c98de77108cb88858501",
        "5221030dc0bafd28fa43f1dc28aa80377a1bf2790f82aa569e7157f1df82829db3eb14210267f976f321fe060497dc02a4dd47b329720eea872b0deda808bffff4fc5e305b21037dc65185b3209d568a5bab09256698bdda89933ff340cb464248c1604753a84f53ae"
      ],
      "is_coinbase": false,
      "sequence": 4294967293,
      "inner_redeemscript_asm": "OP_0 OP_PUSHBYTES_32 218bbc1dc929c0172f75b7800b245dd48949889f77d3afd756a96ceca4bed8f2",
      "inner_witnessscript_asm": "OP_PUSHNUM_2 OP_PUSHBYTES_33 030dc0bafd28fa43f1dc28aa80377a1bf2790f82aa569e7157f1df82829db3eb14 OP_PUSHBYTES_33 0267f976f321fe060497dc02a4dd47b329720eea872b0deda808bffff4fc5e305b OP_PUSHBYTES_33 037dc65185b3209d568a5bab09256698bdda89933ff340cb464248c1604753a84f OP_PUSHNUM_3 OP_CHECKMULTISIG"
    },
    {
      "txid": "82185e3de2b18a62854d5913ef0d355104079cb1bf068dc0d32dd9e0d9ceadef",
      "vout": 0,
      "prevout": {
        "scriptpubkey": "002083db8b67ab1a1df4129eed26643e8d54afdcebec385bc06f7064b55b17569669",
        "scriptpubkey_asm": "OP_0 OP_PUSHBYTES_32 83db8b67ab1a1df4129eed26643e8d54afdcebec385bc06f7064b55b17569669",
        "scriptpubkey_type": "v0_p2wsh",
        "scriptpubkey_address": "bc1qs0dckeatrgwlgy57a5nxg05d2jhae6lv8pduqmmsvj64k96kje5syu4axz",
        "value": 3271986
      },
      "scriptsig": "",
      "scriptsig_asm": "",
      "witness": [
        "",
        "304402201fc5b785f5e1fea110d5388b6b41aedf969b02e6b9aeede642815cfdc84ad14f02203a795670ed5158238eb1098973c1b815117a333b22705d19ca8fc7fe5195cd5001",
        "30440220552b36f4b39ac196383dacbb1738b806bf6702a9ad228505b555cdaddaf0b3590220561a86e838054a869c7f9d07ed09fb795ea9674465e181f1900a3f31510e894401",
        "522103e0c80da7acf038ff8164e2464c8f288c270e4604ddec6fb5671936dd8362b0be2102580ef7825d662cbc3a09149a7fb7ee375a9e4dc08fc413e215ec723d8a6622922102f632109701ba4dcf44b9e26b487b39cd075cde400b60cb5021aaa68af541025953ae"
      ],
      "is_coinbase": false,
      "sequence": 4294967293,
      "inner_witnessscript_asm": "OP_PUSHNUM_2 OP_PUSHBYTES_33 03e0c80da7acf038ff8164e2464c8f288c270e4604ddec6fb5671936dd8362b0be OP_PUSHBYTES_33 02580ef7825d662cbc3a09149a7fb7ee375a9e4dc08fc413e215ec723d8a662292 OP_PUSHBYTES_33 02f632109701ba4dcf44b9e26b487b39cd075cde400b60cb5021aaa68af5410259 OP_PUSHNUM_3 OP_CHECKMULTISIG"
    },
    {
      "txid": "a68319803f5e53922bdb5da9b8ea446fe27caf09c92502bdac53504ba6d2850e",
      "vout": 6,
      "prevout": {
        "scriptpubkey": "0020677166874dbda1f42c0ebc6fd685b9b4607f7ce24db888446727705b6d8c7b4e",
        "scriptpubkey_asm": "OP_0 OP_PUSHBYTES_32 677166874dbda1f42c0ebc6fd685b9b4607f7ce24db888446727705b6d8c7b4e",
        "scriptpubkey_type": "v0_p2wsh",
        "scriptpubkey_address": "bc1qvackdp6dhkslgtqwh3hadpdek3s87l8zfkugs3r8yac9kmvv0d8qzyj2ld",
        "value": 92372079
      },
      "scriptsig": "",
      "scriptsig_asm": "",
      "witness": [
        "",
        "3045022100ce27e69aa38e4a4663abf98672da8ebde7250c9b9f7fad701770366a2d46ebde02206b909a61e38017fb49602b1df604a58414dbb508e684f02689df71698ee5a34801",
        "304402202e1d3c60fe1d0c5ed433488fbc07fd0c8dac0b13af4ef17c2a6593a38a714e5602203677b02bd49afd280ec38a63d7a69b0ecd622f887c80db5bda4e451dbc6eb88d01",
        "522102e6594b0bab657a0b50c41bea606b882190b1532edc00d93d69f478bbd227400f21027dc1a853e0a7612f4ca0bbefe857490a6c07f992fed9d505e61f1b6fbbd750fa21033226990cd59f548080e674b98ad7b8b799c236159ba47e3779f479f6eae4779f53ae"
      ],
      "is_coinbase": false,
      "sequence": 4294967293,
      "inner_witnessscript_asm": "OP_PUSHNUM_2 OP_PUSHBYTES_33 02e6594b0bab657a0b50c41bea606b882190b1532edc00d93d69f478bbd227400f OP_PUSHBYTES_33 027dc1a853e0a7612f4ca0bbefe857490a6c07f992fed9d505e61f1b6fbbd750fa OP_PUSHBYTES_33 033226990cd59f548080e674b98ad7b8b799c236159ba47e3779f479f6eae4779f OP_PUSHNUM_3 OP_CHECKMULTISIG"
    },
    {
      "txid": "a68319803f5e53922bdb5da9b8ea446fe27caf09c92502bdac53504ba6d2850e",
      "vout": 7,
      "prevout": {
        "scriptpubkey": "0020ec72ec8a6a6e2ccfb8738c18b15b21ded8734addfff8da15b3f06517296922b1",
        "scriptpubkey_asm": "OP_0 OP_PUSHBYTES_32 ec72ec8a6a6e2ccfb8738c18b15b21ded8734addfff8da15b3f06517296922b1",
        "scriptpubkey_type": "v0_p2wsh",
        "scriptpubkey_address": "bc1qa3ewezn2dckvlwrn3svtzkepmmv8xjkallud59dn7pj3w2tfy2cst4ltr0",
        "value": 96990481
      },
      "scriptsig": "",
      "scriptsig_asm": "",
      "witness": [
        "",
        "3044022027f04fb75e7324d11017b3a5540c2fa2b80fa61718466950167470b3a09e602e02202b3efd41c9a6398eef7fd36c88050cf0dacfaf52d2b6e5686f4b48bd7a76353301",
        "3044022023aa2a1b9a626975a904892fc2760d624150db6e62f5bec0a61a03b260823e7b02207beef793f80bed2c040ae18bc2c917363c906f78d955045359c09d411444171401",
        "522102e6f8ff83692180f20fc849f886bc63b423bd14b9a7fd8cf4ac8eed3e9325a2d0210354de80ad030f401d169f633708aa0a0954f58c73c2cb95dbaf07e579d4dcfb4c2102d208f260e6a9337aba4326f4f181f73bf4b92fa74cc680c6d2ece9fe2b623c1153ae"
      ],
      "is_coinbase": false,
      "sequence": 4294967293,
      "inner_witnessscript_asm": "OP_PUSHNUM_2 OP_PUSHBYTES_33 02e6f8ff83692180f20fc849f886bc63b423bd14b9a7fd8cf4ac8eed3e9325a2d0 OP_PUSHBYTES_33 0354de80ad030f401d169f633708aa0a0954f58c73c2cb95dbaf07e579d4dcfb4c OP_PUSHBYTES_33 02d208f260e6a9337aba4326f4f181f73bf4b92fa74cc680c6d2ece9fe2b623c11 OP_PUSHNUM_3 OP_CHECKMULTISIG"
    },
    {
      "txid": "b538895bd3b3e46b40402e4df4be030d3e80be2a6b20638913a2995523028943",
      "vout": 0,
      "prevout": {
        "scriptpubkey": "a91437f7d26f22248767d26eaf7329bc4272d5b5219f87",
        "scriptpubkey_asm": "OP_HASH160 OP_PUSHBYTES_20 37f7d26f22248767d26eaf7329bc4272d5b5219f OP_EQUAL",
        "scriptpubkey_type": "p2sh",
        "scriptpubkey_address": "36nwy4ypEZt9onkdD93tPrfwpikJhUuRsK",
        "value": 4431156
      },
      "scriptsig": "220020b09b4f562077d9ff8e0b63f4a04e311c2e49cd7d017768c8d5a1e84f848f829e",
      "scriptsig_asm": "OP_PUSHBYTES_34 0020b09b4f562077d9ff8e0b63f4a04e311c2e49cd7d017768c8d5a1e84f848f829e",
      "witness": [
        "",
        "3045022100d6669fdb7181f59f4456c23a84dbccf1acdc7ca7d293af31c69ad347dad0103d0220062f14dc36da7fffc8b0c4ba426876ddefa993ce54637bd0e0e6043a7533c9ca01",
        "30440220775a1823ae01550f5ee4ec61b219bd54affd980dc0cace8374f6bee03166ce82022021b8e38798889037f9e1aea2a729ac1d03ddd9d8509062b6b1ca7e466906cb1e01",
        "522103d9db746769793c97d5e15fdfdbb8f48f5440f76c52d4d374e514cfbb520dc3f42102be7b846357e8c514d1c0d76b43f1b2f7ff74404513931b6aceae494823728f6321028ccb4b2b018bae2116e48bb89b72482ccef1614c761dbd0aa5c03ee38e1dc83053ae"
      ],
      "is_coinbase": false,
      "sequence": 4294967293,
      "inner_redeemscript_asm": "OP_0 OP_PUSHBYTES_32 b09b4f562077d9ff8e0b63f4a04e311c2e49cd7d017768c8d5a1e84f848f829e",
      "inner_witnessscript_asm": "OP_PUSHNUM_2 OP_PUSHBYTES_33 03d9db746769793c97d5e15fdfdbb8f48f5440f76c52d4d374e514cfbb520dc3f4 OP_PUSHBYTES_33 02be7b846357e8c514d1c0d76b43f1b2f7ff74404513931b6aceae494823728f63 OP_PUSHBYTES_33 028ccb4b2b018bae2116e48bb89b72482ccef1614c761dbd0aa5c03ee38e1dc830 OP_PUSHNUM_3 OP_CHECKMULTISIG"
    },
    {
      "txid": "c479263eeba76076bbaf79b4f3547079219641642f717210836ab20984c23798",
      "vout": 2,
      "prevout": {
        "scriptpubkey": "002004730e4d452b35cc7dfd381cb0e52054b6b4c1319857710b75941fd925f9d913",
        "scriptpubkey_asm": "OP_0 OP_PUSHBYTES_32 04730e4d452b35cc7dfd381cb0e52054b6b4c1319857710b75941fd925f9d913",
        "scriptpubkey_type": "v0_p2wsh",
        "scriptpubkey_address": "bc1qq3esun299v6ucl0a8qwtpefq2jmtfsf3npthzzm4js0ajf0emyfsp8cqhh",
        "value": 48310690
      },
      "scriptsig": "",
      "scriptsig_asm": "",
      "witness": [
        "",
        "3045022100f3d56b974732efb58fd709936a9dc8baa0fffc5344327f21c08c1f5ef015b53002205586a2e9d59e424be4bbd24582bb765376a9d375df420281ad0d55604bac790201",
        "30440220686e572babe8a067a2af2ed09727b18009c53fde5da32f540b4e39927ba4fb3f02204dc4e4c8b1c498f5f18ecbc115df71e20a712b48f8f17a4579459a7b2541d10901",
        "52210389190791fc72101e90d562b27bcb7b87e732cf0e9b6ed5bca67bb4937e1cc1be2103b865a94bfaaf028330e0288428cd3a902f7a2f05e0388585e776703b9a6911822102252c8ddcba8e422d39fd9cab4e92a393ef28a32bae918b6574398067cbb2c76b53ae"
      ],
      "is_coinbase": false,
      "sequence": 4294967293,
      "inner_witnessscript_asm": "OP_PUSHNUM_2 OP_PUSHBYTES_33 0389190791fc72101e90d562b27bcb7b87e732cf0e9b6ed5bca67bb4937e1cc1be OP_PUSHBYTES_33 03b865a94bfaaf028330e0288428cd3a902f7a2f05e0388585e776703b9a691182 OP_PUSHBYTES_33 02252c8ddcba8e422d39fd9cab4e92a393ef28a32bae918b6574398067cbb2c76b OP_PUSHNUM_3 OP_CHECKMULTISIG"
    },
    {
      "txid": "d6dce5ca7804445b0fe765d9f90d5ff0004288c3c74d4d86af584c6f88359201",
      "vout": 1,
      "prevout": {
        "scriptpubkey": "a914bbdc90d5ea71009f1ee0cb6d46a3a2ab03f65c5387",
        "scriptpubkey_asm": "OP_HASH160 OP_PUSHBYTES_20 bbdc90d5ea71009f1ee0cb6d46a3a2ab03f65c53 OP_EQUAL",
        "scriptpubkey_type": "p2sh",
        "scriptpubkey_address": "3JpLWbQUCcbtWqAgSZ7HfQRX1Y46a7wpcV",
        "value": 2731380
      },
      "scriptsig": "2200209d045489fdf88c60301dd0dfb74fec736e11f9c4c18d7243f9ce596e0b6afed9",
      "scriptsig_asm": "OP_PUSHBYTES_34 00209d045489fdf88c60301dd0dfb74fec736e11f9c4c18d7243f9ce596e0b6afed9",
      "witness": [
        "",
        "3045022100c79390e90d22f948e80002472439d61b486c9ec59aea49db8f6506684324636702200d9f0eeeca5dae1bae8f1d1dfb71f43a05a55cf1d4dc5ab05149108d5f5b83ba01",
        "3044022026b8f72296fb083585cfa9db25e522cd77db1187e0be78b7942eef3c8d4eeb7602207a6c5ea858ac4587226ab65e7fdf17105b28c10fa8cba129c42ef9bb968997b101",
        "522102ced85acf6edd6b925beb14237f9389601b01a22c15ee0a4790816a8974c100da2102a7044ded184c8e49c2ecb0eb27c9d3ded26ed2c37ba7a98fb9d37b2cd20c2432210389a53a2721611129e5db13861f80be7a07c1533cf2dabda193c1967ca6bbfb0a53ae"
      ],
      "is_coinbase": false,
      "sequence": 4294967293,
      "inner_redeemscript_asm": "OP_0 OP_PUSHBYTES_32 9d045489fdf88c60301dd0dfb74fec736e11f9c4c18d7243f9ce596e0b6afed9",
      "inner_witnessscript_asm": "OP_PUSHNUM_2 OP_PUSHBYTES_33 02ced85acf6edd6b925beb14237f9389601b01a22c15ee0a4790816a8974c100da OP_PUSHBYTES_33 02a7044ded184c8e49c2ecb0eb27c9d3ded26ed2c37ba7a98fb9d37b2cd20c2432 OP_PUSHBYTES_33 0389a53a2721611129e5db13861f80be7a07c1533cf2dabda193c1967ca6bbfb0a OP_PUSHNUM_3 OP_CHECKMULTISIG"
    }
  ],
  "vout": [
    {
      "scriptpubkey": "00200a41ab62f7aebbdd8cb631a112795cb753c2963ef313ef3c42f30d14fc0b0374",
      "scriptpubkey_asm": "OP_0 OP_PUSHBYTES_32 0a41ab62f7aebbdd8cb631a112795cb753c2963ef313ef3c42f30d14fc0b0374",
      "scriptpubkey_type": "v0_p2wsh",
      "scriptpubkey_address": "bc1qpfq6kchh46aamr9kxxs3y72ukafu99377vf770zz7vx3flqtqd6quxjcf2",
      "value": 91265607
    },
    {
      "scriptpubkey": "76a9141cd1bdb5c70297f9fee658b7e4ae282ec37cf34188ac",
      "scriptpubkey_asm": "OP_DUP OP_HASH160 OP_PUSHBYTES_20 1cd1bdb5c70297f9fee658b7e4ae282ec37cf341 OP_EQUALVERIFY OP_CHECKSIG",
      "scriptpubkey_type": "p2pkh",
      "scriptpubkey_address": "13dPBSF89hGupcKrAN4GHwaKDtgKkKDytn",
      "value": 550890000
    }
  ],
  "size": 3234,
  "weight": 5355,
  "fee": 26957,
  "status": {
    "confirmed": true,
    "block_height": 834638,
    "block_hash": "000000000000000000025f742c626208ac87e0b7d15054abb4a19ca2d735a54e",
    "block_time": 1710405325
  },
  "hex": "0100000000010a2eceb45eba0e2c7206e23b8c70dedadb63562b9c3024515c5f8d6a2c2f0bb0000000000023220020ce9794e608e8ba2187f2c7eb13df3d04c8969eb7c32f4d734a23d4c69fdc7a30fdffffff505ba7c6fd22e00e39161aadbbc7b786bc075cd8c79ae2c33d165baee45f2b08000000002322002073e7309a7c9b5e91cc9c543061e6d94fb015a958342d1892e30055ce9008f6d0fdfffffffb54c34027f328ef359326f9f2a6a50f305bc057a9218ab2bd3fa921a4bfdf0965000000232200201a4b2f5a7b42ca414bb5de2eba2e624d31c8f4d73e541a8f949479c4fc12e290fdffffffd37c537284314b5a6689d640ec8cf8fc3ca835a272ed17df643f9700d394707f0000000023220020218bbc1dc929c0172f75b7800b245dd48949889f77d3afd756a96ceca4bed8f2fdffffffefadced9e0d92dd3c08d06bfb19c070451350def13594d85628ab1e23d5e18820000000000fdffffff0e85d2a64b5053acbd0225c909af7ce26f44eab8a95ddb2b92535e3f801983a60600000000fdffffff0e85d2a64b5053acbd0225c909af7ce26f44eab8a95ddb2b92535e3f801983a60700000000fdffffff438902235599a2138963206b2abe803e0d03bef44d2e40406be4b3d35b8938b50000000023220020b09b4f562077d9ff8e0b63f4a04e311c2e49cd7d017768c8d5a1e84f848f829efdffffff9837c28409b26a831072712f64419621797054f3b479afbb7660a7eb3e2679c40200000000fdffffff019235886f4c58af864d4dc7c3884200f05f0df9d965e70f5b440478cae5dcd601000000232200209d045489fdf88c60301dd0dfb74fec736e11f9c4c18d7243f9ce596e0b6afed9fdffffff02479a7005000000002200200a41ab62f7aebbdd8cb631a112795cb753c2963ef313ef3c42f30d14fc0b037410ead520000000001976a9141cd1bdb5c70297f9fee658b7e4ae282ec37cf34188ac0400483045022100923ae406aa25f77b115f7d6c17920ca9c698d8e78dcbc57dadd0e33a9655d8b902205bb07bc7a1307f6714f65818fb5fce283d3d67df7100920554f38c0dbf0c8dc40147304402205e34309a3a1a01df56eb8dfbe211db7652502aadf3ab6833dd10e84c4d5940ea02200a9cd14e2f32ca09c135d7b0ed604cdc01ff988f0854524eb2b2881da1aa84e60169522103e6f715594e6c0cd05057ce5b64cded31e2e83dd4827db397654e2e0cfdea87142103f65d3f1c359a2c3cf284b94ab1faafa828db16227a390525c9309e089992645821039f46078310386eb9b4c0050f7b56b72593fb99d5b561f3cdedc6957cbd83844953ae0400473044022044b17f347aae287d08702f058c37c68c27fa8ab23ab771649650dbef115ced3c02200c3b0b3a3ea66f90131180178591a042b0b082d540a915a5ed7c3c33904956790147304402205b3861c573a1f30da44528d0bf24554365cd5425e55f33bd6db8f4d913d34fc3022001f8e74909af0d81d60b86cd47598b30d44359aa3782df8bda161e221c50e71701695221034952eaab58f01aa1a378b9a6a9fd7698e7b2735ef973aa79e16e41452e8c8fd52102ef13d678ef3d1798493ba4b41f81577409929e30dcd9e0b5f2de9752d5cd64552103cf39b9149c162ae9364990ebf28732752a2e1afe59bdde3631c849084cd4e49f53ae040047304402201b1564f164c668075c9736856d7937b84a6d2eb9985bee8928f4b1774dbf68d7022035f97d1102655e8fb36ce239689391ff60ad90b3b21caef5fd6c8f39e136adfe01473044022049043d19fdf4b72918af68e909113ced0be48b43b53687b078d2e2cddb00e0a802204969bd52b432559375f4e25928ace781ab7ddc952d203bdf9e0b6db9d2a1b3c90169522102db8112a624b6f615095665a1656597c389c400c2f1d6c7f2c6925b1f0285c5de210359d0d8e0267aad3592ff3767e95d45a65a6ec6e731ed02f68e3436bc65e7985721020907f677c199b972cc8d9b69ce142e236e467fe83504f1d892619788707f148b53ae0400473044022062ed9c5e3470f2136d92bfbb007354b72a1d7e8b48bd7033a2bfc98295672d2302206902de225c1e10f997289892c9eaec011250427bcc076614624a50d30f98b85f0147304402204257830b0e935e53f692e332337d506193d0945e4243680609116822ff529cf2022063c0b08c4dedf5d7aaec080eda0e1aae790cbb36ea7406c98de77108cb88858501695221030dc0bafd28fa43f1dc28aa80377a1bf2790f82aa569e7157f1df82829db3eb14210267f976f321fe060497dc02a4dd47b329720eea872b0deda808bffff4fc5e305b21037dc65185b3209d568a5bab09256698bdda89933ff340cb464248c1604753a84f53ae040047304402201fc5b785f5e1fea110d5388b6b41aedf969b02e6b9aeede642815cfdc84ad14f02203a795670ed5158238eb1098973c1b815117a333b22705d19ca8fc7fe5195cd50014730440220552b36f4b39ac196383dacbb1738b806bf6702a9ad228505b555cdaddaf0b3590220561a86e838054a869c7f9d07ed09fb795ea9674465e181f1900a3f31510e89440169522103e0c80da7acf038ff8164e2464c8f288c270e4604ddec6fb5671936dd8362b0be2102580ef7825d662cbc3a09149a7fb7ee375a9e4dc08fc413e215ec723d8a6622922102f632109701ba4dcf44b9e26b487b39cd075cde400b60cb5021aaa68af541025953ae0400483045022100ce27e69aa38e4a4663abf98672da8ebde7250c9b9f7fad701770366a2d46ebde02206b909a61e38017fb49602b1df604a58414dbb508e684f02689df71698ee5a3480147304402202e1d3c60fe1d0c5ed433488fbc07fd0c8dac0b13af4ef17c2a6593a38a714e5602203677b02bd49afd280ec38a63d7a69b0ecd622f887c80db5bda4e451dbc6eb88d0169522102e6594b0bab657a0b50c41bea606b882190b1532edc00d93d69f478bbd227400f21027dc1a853e0a7612f4ca0bbefe857490a6c07f992fed9d505e61f1b6fbbd750fa21033226990cd59f548080e674b98ad7b8b799c236159ba47e3779f479f6eae4779f53ae0400473044022027f04fb75e7324d11017b3a5540c2fa2b80fa61718466950167470b3a09e602e02202b3efd41c9a6398eef7fd36c88050cf0dacfaf52d2b6e5686f4b48bd7a76353301473044022023aa2a1b9a626975a904892fc2760d624150db6e62f5bec0a61a03b260823e7b02207beef793f80bed2c040ae18bc2c917363c906f78d955045359c09d41144417140169522102e6f8ff83692180f20fc849f886bc63b423bd14b9a7fd8cf4ac8eed3e9325a2d0210354de80ad030f401d169f633708aa0a0954f58c73c2cb95dbaf07e579d4dcfb4c2102d208f260e6a9337aba4326f4f181f73bf4b92fa74cc680c6d2ece9fe2b623c1153ae0400483045022100d6669fdb7181f59f4456c23a84dbccf1acdc7ca7d293af31c69ad347dad0103d0220062f14dc36da7fffc8b0c4ba426876ddefa993ce54637bd0e0e6043a7533c9ca014730440220775a1823ae01550f5ee4ec61b219bd54affd980dc0cace8374f6bee03166ce82022021b8e38798889037f9e1aea2a729ac1d03ddd9d8509062b6b1ca7e466906cb1e0169522103d9db746769793c97d5e15fdfdbb8f48f5440f76c52d4d374e514cfbb520dc3f42102be7b846357e8c514d1c0d76b43f1b2f7ff74404513931b6aceae494823728f6321028ccb4b2b018bae2116e48bb89b72482ccef1614c761dbd0aa5c03ee38e1dc83053ae0400483045022100f3d56b974732efb58fd709936a9dc8baa0fffc5344327f21c08c1f5ef015b53002205586a2e9d59e424be4bbd24582bb765376a9d375df420281ad0d55604bac7902014730440220686e572babe8a067a2af2ed09727b18009c53fde5da32f540b4e39927ba4fb3f02204dc4e4c8b1c498f5f18ecbc115df71e20a712b48f8f17a4579459a7b2541d109016952210389190791fc72101e90d562b27bcb7b87e732cf0e9b6ed5bca67bb4937e1cc1be2103b865a94bfaaf028330e0288428cd3a902f7a2f05e0388585e776703b9a6911822102252c8ddcba8e422d39fd9cab4e92a393ef28a32bae918b6574398067cbb2c76b53ae0400483045022100c79390e90d22f948e80002472439d61b486c9ec59aea49db8f6506684324636702200d9f0eeeca5dae1bae8f1d1dfb71f43a05a55cf1d4dc5ab05149108d5f5b83ba01473044022026b8f72296fb083585cfa9db25e522cd77db1187e0be78b7942eef3c8d4eeb7602207a6c5ea858ac4587226ab65e7fdf17105b28c10fa8cba129c42ef9bb968997b10169522102ced85acf6edd6b925beb14237f9389601b01a22c15ee0a4790816a8974c100da2102a7044ded184c8e49c2ecb0eb27c9d3ded26ed2c37ba7a98fb9d37b2cd20c2432210389a53a2721611129e5db13861f80be7a07c1533cf2dabda193c1967ca6bbfb0a53ae4dbc0c00"
}