{
  "txid": "66d3624fe63ba68c0387083a7e10ada01433d7b3ecb6c2d430c31ffb09d23064",
  "version": 2,
  "locktime": 0,
  "vin": [
    {
      "txid": "e835c4d922fbed17c48b3bb466ba1ffc020ede84c1303bdb67ca1f883dd615bb",
      "vout": 5,
      "prevout": {
        "scriptpubkey": "5120fa51192a4be5575fb27917daac2797fa9ec3a919aa4dc6d58d802c4436530c16",
        "scriptpubkey_asm": "OP_PUSHNUM_1 OP_PUSHBYTES_32 fa51192a4be5575fb27917daac2797fa9ec3a919aa4dc6d58d802c4436530c16",
        "scriptpubkey_type": "v1_p2tr",
        "scriptpubkey_address": "bc1plfg3j2jtu4t4lvnezld2cfuhl20v82ge4fxud4vdsqkygdjnpstqcdrrav",
        "value": 3248
      },
      "scriptsig": "",
      "scriptsig_asm": "",
      "witness": [
        "5d4cf968e49376a8f18583731b55d377a63b4163b4ee0a3c5d8f4c4a2100ac13cf3b1d70e0a5e6214e140a0aa918f89afd8c0e21509fecc023abf872a6588c2a",
        "2058fe2af1bef9aff30350f1147e66ccb3f5c10575771b92a679150f0c9dad4159ac0063036f726401011e6170706c69636174696f6e2f6a736f6e3b636861727365743d7574662d38004cd37b2270223a22706f772d3230222c226f70223a226d696e74222c227469636b223a2250455045222c22616d74223a2231303030222c22736f6c7574696f6e223a22504550453a626331703378336875706e76383064666366666c34333367327a3776713378706c63673364666d79716365336d6c6d6e78397767753872717265763032653a303030303030303030303030303030303030303139393431613561653132383937363539383134343239323533333030353762306461393666336465613163353a3435323030303331313539227d68",
        "c1bf69a78b1b6433fca38fda21525e43a6c565682ca08e513a8f66feb668723930"
      ],
      "is_coinbase": false,
      "sequence": 4294967295
    }
  ],
  "vout": [
    {
      "scriptpubkey": "512089a37e066c3bda9c253fac62850bcc044c1fe1116a76406331dff73315c8e1c6",
      "scriptpubkey_asm": "OP_PUSHNUM_1 OP_PUSHBYTES_32 89a37e066c3bda9c253fac62850bcc044c1fe1116a76406331dff73315c8e1c6",
      "scriptpubkey_type": "v1_p2tr",
      "scriptpubkey_address": "bc1p3x3hupnv80dfcffl433g2z7vq3xplcg3dfmyqce3mlmnx9wgu8rqrev02e",
      "value": 546
    }
  ],
  "size": 487,
  "weight": 769,
  "fee": 2702,
  "status": {
    "confirmed": true,
    "block_height": 834460,
    "block_hash": "00000000000000000000484a79b643b2524bbce82e5d8a442013fa5b8905ed98",
    "block_time": 1710307468
  },
  "hex": "02000000000101bb15d63d881fca67db3b30c184de0e02fc1fba66b43b8bc417edfb22d9c435e80500000000ffffffff01220200000000000022512089a37e066c3bda9c253fac62850bcc044c1fe1116a76406331dff73315c8e1c603405d4cf968e49376a8f18583731b55d377a63b4163b4ee0a3c5d8f4c4a2100ac13cf3b1d70e0a5e6214e140a0aa918f89afd8c0e21509fecc023abf872a6588c2afd20012058fe2af1bef9aff30350f1147e66ccb3f5c10575771b92a679150f0c9dad4159ac0063036f726401011e6170706c69636174696f6e2f6a736f6e3b636861727365743d7574662d38004cd37b2270223a22706f772d3230222c226f70223a226d696e74222c227469636b223a2250455045222c22616d74223a2231303030222c22736f6c7574696f6e223a22504550453a626331703378336875706e76383064666366666c34333367327a3776713378706c63673364666d79716365336d6c6d6e78397767753872717265763032653a303030303030303030303030303030303030303139393431613561653132383937363539383134343239323533333030353762306461393666336465613163353a3435323030303331313539227d6821c1bf69a78b1b6433fca38fda21525e43a6c565682ca08e513a8f66feb66872393000000000"
}