{
  "txid": "66e623f3dbd35672fe01ba210386c3f06f2b7ee5976567cb2a26206b14226bd6",
  "version": 2,
  "locktime": 0,
  "vin": [
    {
      "txid": "7d0060e4c98cb562b358daca31f837c090e239742f6dd7fa04afeefd6ac3257e",
      "vout": 0,
      "prevout": {
        "scriptpubkey": "51201cd0eb62a85658afa5d793d9b5fb5fd42fcabb6b69bc3836bdd14903d6ea6b8b",
        "scriptpubkey_asm": "OP_PUSHNUM_1 OP_PUSHBYTES_32 1cd0eb62a85658afa5d793d9b5fb5fd42fcabb6b69bc3836bdd14903d6ea6b8b",
        "scriptpubkey_type": "v1_p2tr",
        "scriptpubkey_address": "bc1prngwkc4g2ev2lfwhj0vmt76l6shu4wmtdx7rsd4a69ys84h2dw9sp2wf95",
        "value": 3130
      },
      "scriptsig": "",
      "scriptsig_asm": "",
      "witness": [
        "6a3f2beae925bb4390e868f16ce4f2ea56cbd8fe2e116cf008b378ed9bf8ae8cd1b8982a61ca023030f9cc2f10c92ec5d3de38ab5b9f3137a501b0bc59b05eab",
        "205c9e63731cda6159c33e6535dd50fe0becb84a62c4ed32d25e55231b955372ffac0063036f7264010118746578742f706c61696e3b636861727365743d7574662d3800397b2270223a226272632d3230222c226f70223a227472616e73666572222c227469636b223a22736c6f72222c22616d74223a2231303030227d68",
        "c15c9e63731cda6159c33e6535dd50fe0becb84a62c4ed32d25e55231b955372ff"
      ],
      "is_coinbase": false,
      "sequence": 4294967293
    }
  ],
  "vout": [
    {
      "scriptpubkey": "51200157d5aaac128332b4f8e03f1ffd313317d6f6c85f9b722d0689815fdeb207d4",
      "scriptpubkey_asm": "OP_PUSHNUM_1 OP_PUSHBYTES_32 0157d5aaac128332b4f8e03f1ffd313317d6f6c85f9b722d0689815fdeb207d4",
      "scriptpubkey_type": "v1_p2tr",
      "scriptpubkey_address": "bc1pq9tat24vz2pn9d8cuql3llf3xvtadakgt7dhytgx3xq4lh4jql2qth3a7e",
      "value": 546
    }
  ],
  "size": 324,
  "weight": 606,
  "fee": 2584,
  "status": {
    "confirmed": true,
    "block_height": 834638,
    "block_hash": "000000000000000000025f742c626208ac87e0b7d15054abb4a19ca2d735a54e",
    "block_time": 1710405325
  },
  "hex": "020000000001017e25c36afdeeaf04fad76d2f7439e290c037f831cada58b362b58cc9e460007d0000000000fdffffff0122020000000000002251200157d5aaac128332b4f8e03f1ffd313317d6f6c85f9b722d0689815fdeb207d403406a3f2beae925bb4390e868f16ce4f2ea56cbd8fe2e116cf008b378ed9bf8ae8cd1b8982a61ca023030f9cc2f10c92ec5d3de38ab5b9f3137a501b0bc59b05eab7f205c9e63731cda6159c33e6535dd50fe0becb84a62c4ed32d25e55231b955372ffac0063036f7264010118746578742f706c61696e3b636861727365743d7574662d3800397b2270223a226272632d3230222c226f70223a227472616e73666572222c227469636b223a22736c6f72222c22616d74223a2231303030227d6821c15c9e63731cda6159c33e6535dd50fe0becb84a62c4ed32d25e55231b955372ff00000000"
}