{
  "txid": "66e70629313e8cb8a8cfb8a7f25943b01bbcd404a5c123e8efbf985768e733a7",
  "version": 2,
  "locktime": 833670,
  "vin": [
    {
      "txid": "76b6ec6a2b4b9fd4b63f5defddd36a21cf27057ea5313cc5ff81d10efd159572",
      "vout": 0,
      "prevout": {
        "scriptpubkey": "0014f7ebea346bc62e0d03fe72c042c717472998d159",
        "scriptpubkey_asm": "OP_0 OP_PUSHBYTES_20 f7ebea346bc62e0d03fe72c042c717472998d159",
        "scriptpubkey_type": "v0_p2wpkh",
        "scriptpubkey_address": "bc1q7l475drtcchq6ql7wtqy93chgu5e352e97ans8",
        "value": 45762
      },
      "scriptsig": "",
      "scriptsig_asm": "",
      "witness": [
        "30440220693f5cd7a827cfe7a4175104a0920055173a94a6447ea8f75b6394b7f5b5416a02206a34d020ebd7d85bde54793341a1c8a24c01d107efa1d87f993673be8062d86601",
        "03ce51567679c5a6de7291062c97a488242a23d8129085346affe7b6127962b221"
      ],
      "is_coinbase": false,
      "sequence": 4294967294
    }
  ],
  "vout": [
    {
      "scriptpubkey": "0014b4f44eb9e43c9d80ac19ace5c8f864b9016f35f6",
      "scriptpubkey_asm": "OP_0 OP_PUSHBYTES_20 b4f44eb9e43c9d80ac19ace5c8f864b9016f35f6",
      "scriptpubkey_type": "v0_p2wpkh",
      "scriptpubkey_address": "bc1qkn6yaw0y8jwcptqe4nju37ryhyqk7d0kyj4t9p",
      "value": 44571
    }
  ],
  "size": 191,
  "weight": 437,
  "fee": 1191,
  "status": {
    "confirmed": true,
    "block_height": 834464,
    "block_hash": "0000000000000000000177a0869a911a2b65c9bdcd5a8bcb02b68f305bee848e",
    "block_time": 1710308296
  },
  "hex": "02000000000101729515fd0ed181ffc53c31a57e0527cf216ad3ddef5d3fb6d49f4b2b6aecb6760000000000feffffff011bae000000000000160014b4f44eb9e43c9d80ac19ace5c8f864b9016f35f6024730440220693f5cd7a827cfe7a4175104a0920055173a94a6447ea8f75b6394b7f5b5416a02206a34d020ebd7d85bde54793341a1c8a24c01d107efa1d87f993673be8062d866012103ce51567679c5a6de7291062c97a488242a23d8129085346affe7b6127962b22186b80c00"
}