{
  "txid": "66ec6b2bc37c2129740c2e611ed61ff144919ff89b34b976166b1fd9bf1f92a9",
  "version": 2,
  "locktime": 0,
  "vin": [
    {
      "txid": "4ee77778659dcfe8d7a4e15882fc6193f4f3d5f6607624e256337b44c2280af5",
      "vout": 14,
      "prevout": {
        "scriptpubkey": "5120487c7503e04c5d9eca307e3a686e8370b069ff2a31be839afaf14e61809ebb84",
        "scriptpubkey_asm": "OP_PUSHNUM_1 OP_PUSHBYTES_32 487c7503e04c5d9eca307e3a686e8370b069ff2a31be839afaf14e61809ebb84",
        "scriptpubkey_type": "v1_p2tr",
        "scriptpubkey_address": "bc1pfp782qlqf3weaj3s0caxsm5rwzcxnle2xxlg8xh6798xrqy7hwzq9tw9y3",
        "value": 2075
      },
      "scriptsig": "",
      "scriptsig_asm": "",
      "witness": [
        "5302649bd3a32a3856498f7c6ec734ab3e70abae1ac347981fba9366435077f22b00b90944f83936b9ff2d0bd16902e5d7b8bbc87927b7e6db0d3d12cbe42482",
        "2073e3c87357ca6472649679749b43403a3eef3361ff3c042ee067bf41af3aa764ac0063036f7264010118746578742f706c61696e3b636861727365743d7574662d3800357b2270223a224252432d313030222c226f70223a226d696e74222c227469636b223a22696e73222c22616d74223a2231303030227d68",
        "c0c50eac15d7d7889f5ad84f80015e8a209129aeea937c37fa4b8bc0f9be289730"
      ],
      "is_coinbase": false,
      "sequence": 4294967295
    }
  ],
  "vout": [
    {
      "scriptpubkey": "00143e2325412b554cacdd163a93a42204c4707f8851",
      "scriptpubkey_asm": "OP_0 OP_PUSHBYTES_20 3e2325412b554cacdd163a93a42204c4707f8851",
      "scriptpubkey_type": "v0_p2wpkh",
      "scriptpubkey_address": "bc1q8c3j2sft24x2ehgk82f6ggsyc3c8lzz3yw9wsu",
      "value": 546
    }
  ],
  "size": 308,
  "weight": 554,
  "fee": 1529,
  "status": {
    "confirmed": true,
    "block_height": 834464,
    "block_hash": "0000000000000000000177a0869a911a2b65c9bdcd5a8bcb02b68f305bee848e",
    "block_time": 1710308296
  },
  "hex": "02000000000101f50a28c2447b3356e2247660f6d5f3f49361fc8258e1a4d7e8cf9d657877e74e0e00000000ffffffff0122020000000000001600143e2325412b554cacdd163a93a42204c4707f885103405302649bd3a32a3856498f7c6ec734ab3e70abae1ac347981fba9366435077f22b00b90944f83936b9ff2d0bd16902e5d7b8bbc87927b7e6db0d3d12cbe424827b2073e3c87357ca6472649679749b43403a3eef3361ff3c042ee067bf41af3aa764ac0063036f7264010118746578742f706c61696e3b636861727365743d7574662d3800357b2270223a224252432d313030222c226f70223a226d696e74222c227469636b223a22696e73222c22616d74223a2231303030227d6821c0c50eac15d7d7889f5ad84f80015e8a209129aeea937c37fa4b8bc0f9be28973000000000"
}