{
  "txid": "6706f283f4399f659e2072b95062708e0e45928d250d36ec8dc74da3e505d7c7",
  "version": 2,
  "locktime": 0,
  "vin": [
    {
      "txid": "d7b514da6c388be0b2c256fd2778f8680ab792ffb500d43b0ea6efcaf6889a69",
      "vout": 0,
      "prevout": {
        "scriptpubkey": "51204e30828b3718afff591188bcb20b7bd16ae0498e8af63568344ef79f32f9ab16",
        "scriptpubkey_asm": "OP_PUSHNUM_1 OP_PUSHBYTES_32 4e30828b3718afff591188bcb20b7bd16ae0498e8af63568344ef79f32f9ab16",
        "scriptpubkey_type": "v1_p2tr",
        "scriptpubkey_address": "bc1pfccg9zehrzhl7kg33z7tyzmm694wqjvw3tmr26p5fmme7vhe4vtqtqluaw",
        "value": 46945
      },
      "scriptsig": "",
      "scriptsig_asm": "",
      "witness": [
        "7f07675320016d4793ef5a0e72c4892a8f7026bcf0a54f7a8e1da71f5dad30f8837b36661a5adf9b654fe24d0d853719c1f54bf77097c850e6329e3fc5c5aff0",
        "20f2d00e1cce0b839d2e197679cac7a15152ec244338032c7767f72c1332d49a65ac0063036f7264010109696d6167652f706e67004d080289504e470d0a1a0a0000000d4948445200000020000000200806000000737a7af4000002594944415458c363601805030c18a96550b697dd7f187beab6438ce87c9a3a0064d9b79fbfb0ca71b1b33180e4e6ef3d81d52e16722cd4951603fbeef2d35760435fbdfb0016e7e1e662f8f2f51b8a5a747ebca3d9ff6fdf7f30ac3e7109ac97099725efdebdfb0fc2d8e438d95851f81f3985187e09cb30bce31002b3d131480e04fe0301ba594cb82c1712126204617c0e4106dfbf7d0363b003b9b8108e05b241e220cb198180858d8361d5f18bf8d300cc01308bd1d920da4c51fabf282fc2222e2e4e7014bc7afd16af434584051916ec3bc900720cde4488cb726476a885deff6fdfbe134c3362a2c270876db9780b6e394e0738a948812d290efacdd0bb0e12dfe86c10708ef6202ad1baa7bf6460616506b3f71edece48712ec0052ca36ec0d9c79769605563a86dfafffcd5d38c781321a5962303ef9c3770df53ad1c40079a3ec7c0f4f52d561896b3010ba25fd0420ac446f63d450e78a1dec170f1870e98bd624d0e54740a86ba5f4825e42f2ca525860314659581099070ca66da90cc207e1ec20edc6f8a11ef20df8380e3264b066e6e6e86af5fbf32ecf73bce80b720921095fc4f4a28802c06e1f58ea731e4b64e1101d36f9ebc41a1f186c08bd7cf192121401c80590c0b016ce0e3a38f0c0cea501a5b48a20bdc7f7c97911a21004c8a8b826fefbfa3d054cd05f842e0cfefbfe0ecf766e667865d0b0e614d801439a0e98232c3a47b4244e57d98e5204751cd0153223f018b622bbc6a40f91ed901d80a24aa16c5c8710ff1ed2f786e808993d424d39311fbcfc50c5172e2e14b30c3425efc3f321f973a5c6a896a908c8251300a461400007c5d19c327ef01820000000049454e44ae426082680063036f726401011e6170706c69636174696f6e2f6a736f6e3b636861727365743d7574662d38004d5c017b2270223a22766f7264222c2276223a312c227479223a22696e7363222c22636f6c223a2239376335383839396131316637303165373539656134666463643735623131343330343031313434653965623835336461623063646163346361336466353537222c22696964223a22426c6f636b42656573222c227075626c223a2231455337623370636a527a4667796969714c7278484b546e43686535364c4a485937222c226e6f6e6365223a3131312c226d696e746572223a226263317078327239746e35796673347a3661676861773479656434796a746e367475726572336a3674716e61766637783679343275636373717a67366b6c222c22736967223a22472f52423038474e2b304a6d674868476f634d4533787570777534787248333552746b7449654a6e71665447557345702f452b7530344c517537734c5967667962487156676b4a4431613251637551322f2f4e555633673d227d68",
        "c1f2d00e1cce0b839d2e197679cac7a15152ec244338032c7767f72c1332d49a65675a92934efa5e4869b2432a3e00abfc6819367af43949c2edc693b32d23ac05"
      ],
      "is_coinbase": false,
      "sequence": 4294967293
    }
  ],
  "vout": [
    {
      "scriptpubkey": "5120328655ce844c2a2d7517ebaa4cb6a492e7a5f0791c65a5827d627c6d12aae631",
      "scriptpubkey_asm": "OP_PUSHNUM_1 OP_PUSHBYTES_32 328655ce844c2a2d7517ebaa4cb6a492e7a5f0791c65a5827d627c6d12aae631",
      "scriptpubkey_type": "v1_p2tr",
      "scriptpubkey_address": "bc1px2r9tn5yfs4z6aghaw4yed4yjtn6turer3j6tqnavf7x6y42uccsqzg6kl",
      "value": 1000
    },
    {
      "scriptpubkey": "a91436ef2050189c78f7cf99dea805ed1afc0b49d24787",
      "scriptpubkey_asm": "OP_HASH160 OP_PUSHBYTES_20 36ef2050189c78f7cf99dea805ed1afc0b49d247 OP_EQUAL",
      "scriptpubkey_type": "p2sh",
      "scriptpubkey_address": "36hUsgcXCY2fBJSGrRjUHxgPbg3yaDoFJd",
      "value": 37731
    },
    {
      "scriptpubkey": "51200705a5767db892e98125775049b1a13dd9ecdc8aea0df413cabbee683e871012",
      "scriptpubkey_asm": "OP_PUSHNUM_1 OP_PUSHBYTES_32 0705a5767db892e98125775049b1a13dd9ecdc8aea0df413cabbee683e871012",
      "scriptpubkey_type": "v1_p2tr",
      "scriptpubkey_address": "bc1pquz62anahzfwnqf9wagynvdp8hv7ehy2agxlgy72h0hxs058zqfqk8ksyq",
      "value": 2923
    }
  ],
  "size": 1415,
  "weight": 1922,
  "fee": 5291,
  "status": {
    "confirmed": true,
    "block_height": 834464,
    "block_hash": "0000000000000000000177a0869a911a2b65c9bdcd5a8bcb02b68f305bee848e",
    "block_time": 1710308296
  },
  "hex": "02000000000101699a88f6caefa60e3bd400b5ff92b70a68f87827fd56c2b2e08b386cda14b5d70000000000fdffffff03e803000000000000225120328655ce844c2a2d7517ebaa4cb6a492e7a5f0791c65a5827d627c6d12aae631639300000000000017a91436ef2050189c78f7cf99dea805ed1afc0b49d247876b0b0000000000002251200705a5767db892e98125775049b1a13dd9ecdc8aea0df413cabbee683e87101203407f07675320016d4793ef5a0e72c4892a8f7026bcf0a54f7a8e1da71f5dad30f8837b36661a5adf9b654fe24d0d853719c1f54bf77097c850e6329e3fc5c5aff0fd550420f2d00e1cce0b839d2e197679cac7a15152ec244338032c7767f72c1332d49a65ac0063036f7264010109696d6167652f706e67004d080289504e470d0a1a0a0000000d4948445200000020000000200806000000737a7af4000002594944415458c363601805030c18a96550b697dd7f187beab6438ce87c9a3a0064d9b79fbfb0ca71b1b33180e4e6ef3d81d52e16722cd4951603fbeef2d35760435fbdfb0016e7e1e662f8f2f51b8a5a747ebca3d9ff6fdf7f30ac3e7109ac97099725efdebdfb0fc2d8e438d95851f81f3985187e09cb30bce31002b3d131480e04fe0301ba594cb82c1712126204617c0e4106dfbf7d0363b003b9b8108e05b241e220cb198180858d8361d5f18bf8d300cc01308bd1d920da4c51fabf282fc2222e2e4e7014bc7afd16af434584051916ec3bc900720cde4488cb726476a885deff6fdfbe134c3362a2c270876db9780b6e394e0738a948812d290efacdd0bb0e12dfe86c10708ef6202ad1baa7bf6460616506b3f71edece48712ec0052ca36ec0d9c79769605563a86dfafffcd5d38c781321a5962303ef9c3770df53ad1c40079a3ec7c0f4f52d561896b3010ba25fd0420ac446f63d450e78a1dec170f1870e98bd624d0e54740a86ba5f4825e42f2ca525860314659581099070ca66da90cc207e1ec20edc6f8a11ef20df8380e3264b066e6e6e86af5fbf32ecf73bce80b720921095fc4f4a28802c06e1f58ea731e4b64e1101d36f9ebc41a1f186c08bd7cf192121401c80590c0b016ce0e3a38f0c0cea501a5b48a20bdc7f7c97911a21004c8a8b826fefbfa3d054cd05f842e0cfefbfe0ecf766e667865d0b0e614d801439a0e98232c3a47b4244e57d98e5204751cd0153223f018b622bbc6a40f91ed901d80a24aa16c5c8710ff1ed2f786e808993d424d39311fbcfc50c5172e2e14b30c3425efc3f321f973a5c6a896a908c8251300a461400007c5d19c327ef01820000000049454e44ae426082680063036f726401011e6170706c69636174696f6e2f6a736f6e3b636861727365743d7574662d38004d5c017b2270223a22766f7264222c2276223a312c227479223a22696e7363222c22636f6c223a2239376335383839396131316637303165373539656134666463643735623131343330343031313434653965623835336461623063646163346361336466353537222c22696964223a22426c6f636b42656573222c227075626c223a2231455337623370636a527a4667796969714c7278484b546e43686535364c4a485937222c226e6f6e6365223a3131312c226d696e746572223a226263317078327239746e35796673347a3661676861773479656434796a746e367475726572336a3674716e61766637783679343275636373717a67366b6c222c22736967223a22472f52423038474e2b304a6d674868476f634d4533787570777534787248333552746b7449654a6e71665447557345702f452b7530344c517537734c5967667962487156676b4a4431613251637551322f2f4e555633673d227d6841c1f2d00e1cce0b839d2e197679cac7a15152ec244338032c7767f72c1332d49a65675a92934efa5e4869b2432a3e00abfc6819367af43949c2edc693b32d23ac0500000000"
}