{
  "txid": "671a182b83120722530b56d525e0d8bb04d28396dd252cd2d0bfb43f0bbaf077",
  "version": 1,
  "locktime": 0,
  "vin": [
    {
      "txid": "88888888cb6c503507cb58a0e286bdd09b16656775ded0d465a0e46b502c3eef",
      "vout": 0,
      "prevout": {
        "scriptpubkey": "512068cfbf269d624face689a2fd8633d198f90663d4a68408866979add802cd831f",
        "scriptpubkey_asm": "OP_PUSHNUM_1 OP_PUSHBYTES_32 68cfbf269d624face689a2fd8633d198f90663d4a68408866979add802cd831f",
        "scriptpubkey_type": "v1_p2tr",
        "scriptpubkey_address": "bc1pdr8m7f5avf86ee5f5t7cvv73nrusvc7556zq3pnf0xkasqkdsv0sxntnme",
        "value": 11627
      },
      "scriptsig": "",
      "scriptsig_asm": "",
      "witness": [
        "840b89047c1f29e422c6e6f4dae41471fe2641ad98b504505d685cc08ee1ed558715d04a5833137815925b1b9fac7e8381a5cb5bbaba87b2e3b642686e16a34383",
        "20930d4ffacedaeeda983fbe6875a3f39bad4c323e8346d8dda5652f8cfd9db2eaac00630461746f6d03646d7442a16461726773a468626974776f726b6367383838383838386b6d696e745f7469636b657268696e66696e697479656e6f6e63651a0051cd106474696d651a65dc535c68",
        "c0930d4ffacedaeeda983fbe6875a3f39bad4c323e8346d8dda5652f8cfd9db2ea"
      ],
      "is_coinbase": false,
      "sequence": 4294967293
    }
  ],
  "vout": [
    {
      "scriptpubkey": "5120bf94882e5d0c036449dc3f1782adc8fe707e6d03ea0ecdd97e048b8da94a44b1",
      "scriptpubkey_asm": "OP_PUSHNUM_1 OP_PUSHBYTES_32 bf94882e5d0c036449dc3f1782adc8fe707e6d03ea0ecdd97e048b8da94a44b1",
      "scriptpubkey_type": "v1_p2tr",
      "scriptpubkey_address": "bc1ph72gstjapspkgjwu8utc9twglec8umgrag8vmkt7qj9cm222gjcsurlt3p",
      "value": 9999
    }
  ],
  "size": 311,
  "weight": 593,
  "fee": 1628,
  "status": {
    "confirmed": true,
    "block_height": 834464,
    "block_hash": "0000000000000000000177a0869a911a2b65c9bdcd5a8bcb02b68f305bee848e",
    "block_time": 1710308296
  },
  "hex": "01000000000101ef3e2c506be4a065d4d0de756765169bd0bd86e2a058cb0735506ccb888888880000000000fdffffff010f27000000000000225120bf94882e5d0c036449dc3f1782adc8fe707e6d03ea0ecdd97e048b8da94a44b10341840b89047c1f29e422c6e6f4dae41471fe2641ad98b504505d685cc08ee1ed558715d04a5833137815925b1b9fac7e8381a5cb5bbaba87b2e3b642686e16a343837120930d4ffacedaeeda983fbe6875a3f39bad4c323e8346d8dda5652f8cfd9db2eaac00630461746f6d03646d7442a16461726773a468626974776f726b6367383838383838386b6d696e745f7469636b657268696e66696e697479656e6f6e63651a0051cd106474696d651a65dc535c6821c0930d4ffacedaeeda983fbe6875a3f39bad4c323e8346d8dda5652f8cfd9db2ea00000000"
}