{
  "txid": "673081e3bf2aa46e0ec23880efe3202adbbd3ed65c9f814d4a17467720d5e436",
  "version": 2,
  "locktime": 0,
  "vin": [
    {
      "txid": "3dc3bdbbea0185d72a1f258d6e6a37ab8016b348f114f566c83008c7780beeef",
      "vout": 1,
      "prevout": {
        "scriptpubkey": "0014ab181fa757b50b42cb2a09be6c4972ed834a6b09",
        "scriptpubkey_asm": "OP_0 OP_PUSHBYTES_20 ab181fa757b50b42cb2a09be6c4972ed834a6b09",
        "scriptpubkey_type": "v0_p2wpkh",
        "scriptpubkey_address": "bc1q4vvplf6hk5959je2pxlxcjtjakp556cf0zaszu",
        "value": 299992412
      },
      "scriptsig": "",
      "scriptsig_asm": "",
      "witness": [
        "3045022100e3fe45b19a947f6051fc625d080b68dfed4c65d86719fe869edd2348632f7f950220010e9491c91b0a6d811e23ec956880ae3121782a23bcb2c4b80d883378db845e01",
        "029d0b3aa3ea0b236ee2ce3f4c640ae1ec3dad98e4bf54f01f28c30381e01fb39e"
      ],
      "is_coinbase": false,
      "sequence": 0
    }
  ],
  "vout": [
    {
      "scriptpubkey": "00143fa06870355056242a717bee4c7e856e9d868ca5",
      "scriptpubkey_asm": "OP_0 OP_PUSHBYTES_20 3fa06870355056242a717bee4c7e856e9d868ca5",
      "scriptpubkey_type": "v0_p2wpkh",
      "scriptpubkey_address": "bc1q87sxsup42ptzg2n300hycl59d6wcdr9997fr2m",
      "value": 100000000
    },
    {
      "scriptpubkey": "0014d132baf8e73e9ca5e84ab75698b098336aff48b7",
      "scriptpubkey_asm": "OP_0 OP_PUSHBYTES_20 d132baf8e73e9ca5e84ab75698b098336aff48b7",
      "scriptpubkey_type": "v0_p2wpkh",
      "scriptpubkey_address": "bc1q6yet478886w2t6z2katf3vycxd407j9he6yn6p",
      "value": 199988645
    }
  ],
  "size": 223,
  "weight": 562,
  "fee": 3767,
  "status": {
    "confirmed": true,
    "block_height": 834638,
    "block_hash": "000000000000000000025f742c626208ac87e0b7d15054abb4a19ca2d735a54e",
    "block_time": 1710405325
  },
  "hex": "02000000000101efee0b78c70830c866f514f148b31680ab376a6e8d251f2ad78501eabbbdc33d0100000000000000000200e1f505000000001600143fa06870355056242a717bee4c7e856e9d868ca5a595eb0b00000000160014d132baf8e73e9ca5e84ab75698b098336aff48b702483045022100e3fe45b19a947f6051fc625d080b68dfed4c65d86719fe869edd2348632f7f950220010e9491c91b0a6d811e23ec956880ae3121782a23bcb2c4b80d883378db845e0121029d0b3aa3ea0b236ee2ce3f4c640ae1ec3dad98e4bf54f01f28c30381e01fb39e00000000"
}