{
  "txid": "67449617504c170776382bf31a30d07fe7088735470e904e23de352e861022d0",
  "version": 2,
  "locktime": 0,
  "vin": [
    {
      "txid": "acc3ba00869acb582a3f2904ce3a11dd3779350ce234063fc7d0959246213364",
      "vout": 115,
      "prevout": {
        "scriptpubkey": "5120a5017d240f9d9e747f6ad85f5ee5ac5381ccb956d5de3107b014c181201a4454",
        "scriptpubkey_asm": "OP_PUSHNUM_1 OP_PUSHBYTES_32 a5017d240f9d9e747f6ad85f5ee5ac5381ccb956d5de3107b014c181201a4454",
        "scriptpubkey_type": "v1_p2tr",
        "scriptpubkey_address": "bc1p55qh6fq0nk08glm2mp04aedv2wquew2k6h0rzpasznqczgq6g32qgcktae",
        "value": 1806
      },
      "scriptsig": "",
      "scriptsig_asm": "",
      "witness": [
        "50cdea81b679ba10d3a68124b89009ee601fc153ecbf37e91dbe05c24906cfbf3b3aa8b9830f161c7023e3ee9229128df30cd9616c433ed60a129ec5e6868ec9",
        "2063f2eed69372f4c6bfcd5284950d943857c2dcde0c9f13470254884aed0ff6d4ac0063036f726401010a746578742f706c61696e00357b2270223a226272632d3230222c226f70223a226d696e74222c227469636b223a22646f6765222c22616d74223a2234323030227d68",
        "c063f2eed69372f4c6bfcd5284950d943857c2dcde0c9f13470254884aed0ff6d4"
      ],
      "is_coinbase": false,
      "sequence": 4261412863
    }
  ],
  "vout": [
    {
      "scriptpubkey": "00147a665de7a370f4c9b372ab1fae587500a5bcbdb4",
      "scriptpubkey_asm": "OP_0 OP_PUSHBYTES_20 7a665de7a370f4c9b372ab1fae587500a5bcbdb4",
      "scriptpubkey_type": "v0_p2wpkh",
      "scriptpubkey_address": "bc1q0fn9mearwr6vnvmj4v06ukr4qzjme0d565dzcx",
      "value": 294
    }
  ],
  "size": 294,
  "weight": 540,
  "fee": 1512,
  "status": {
    "confirmed": true,
    "block_height": 834460,
    "block_hash": "00000000000000000000484a79b643b2524bbce82e5d8a442013fa5b8905ed98",
    "block_time": 1710307468
  },
  "hex": "02000000000101643321469295d0c73f0634e20c357937dd113ace04293f2a58cb9a8600bac3ac7300000000fffffffd0126010000000000001600147a665de7a370f4c9b372ab1fae587500a5bcbdb4034050cdea81b679ba10d3a68124b89009ee601fc153ecbf37e91dbe05c24906cfbf3b3aa8b9830f161c7023e3ee9229128df30cd9616c433ed60a129ec5e6868ec96d2063f2eed69372f4c6bfcd5284950d943857c2dcde0c9f13470254884aed0ff6d4ac0063036f726401010a746578742f706c61696e00357b2270223a226272632d3230222c226f70223a226d696e74222c227469636b223a22646f6765222c22616d74223a2234323030227d6821c063f2eed69372f4c6bfcd5284950d943857c2dcde0c9f13470254884aed0ff6d400000000"
}