{
  "txid": "67542bd9593de095f47c9ce1a81614bf972b50de08b190b9f65f32c2433a16cc",
  "version": 1,
  "locktime": 0,
  "vin": [
    {
      "txid": "3859b8c2730121b0c104826755e5d8be17a45f0df54068a946b6fd2767a0a4ff",
      "vout": 0,
      "prevout": {
        "scriptpubkey": "51203677fdee5f351406dcab4c99b9005e4552f4fbf7452d5cad09b200c4e80f9fba",
        "scriptpubkey_asm": "OP_PUSHNUM_1 OP_PUSHBYTES_32 3677fdee5f351406dcab4c99b9005e4552f4fbf7452d5cad09b200c4e80f9fba",
        "scriptpubkey_type": "v1_p2tr",
        "scriptpubkey_address": "bc1pxemlmmjlx52qdh9tfjvmjqz7g4f0f7lhg5k4etgfkgqvf6q0n7aqd4c6wq",
        "value": 2576
      },
      "scriptsig": "",
      "scriptsig_asm": "",
      "witness": [
        "c25e11c4273b979176ba0cb1bf7f0cbd517da76ddec953e21aa1b3258f88777025d4c1ce5345105135b9dc0607b86679395a3bf5a8a85716258e611116ea7818",
        "2079f9d72d9b9b1dcb10f7ce421deb098c111f9504f4c35d2f77d14ee0d7bea71eac0063036f7264010118746578742f706c61696e3b636861727365743d7574662d38003a7b2270223a226272632d3230222c226f70223a227472616e73666572222c227469636b223a224d574343222c22616d74223a223237313932227d68",
        "c179f9d72d9b9b1dcb10f7ce421deb098c111f9504f4c35d2f77d14ee0d7bea71e"
      ],
      "is_coinbase": false,
      "sequence": 4294967293
    }
  ],
  "vout": [
    {
      "scriptpubkey": "0014303339128bc1e7928aebac5f28757088066d5977",
      "scriptpubkey_asm": "OP_0 OP_PUSHBYTES_20 303339128bc1e7928aebac5f28757088066d5977",
      "scriptpubkey_type": "v0_p2wpkh",
      "scriptpubkey_address": "bc1qxqenjy5tc8ne9zht430jsats3qrx6kthmqu50d",
      "value": 546
    }
  ],
  "size": 313,
  "weight": 559,
  "fee": 2030,
  "status": {
    "confirmed": true,
    "block_height": 834460,
    "block_hash": "00000000000000000000484a79b643b2524bbce82e5d8a442013fa5b8905ed98",
    "block_time": 1710307468
  },
  "hex": "01000000000101ffa4a06727fdb646a96840f50d5fa417bed8e555678204c1b0210173c2b859380000000000fdffffff012202000000000000160014303339128bc1e7928aebac5f28757088066d59770340c25e11c4273b979176ba0cb1bf7f0cbd517da76ddec953e21aa1b3258f88777025d4c1ce5345105135b9dc0607b86679395a3bf5a8a85716258e611116ea7818802079f9d72d9b9b1dcb10f7ce421deb098c111f9504f4c35d2f77d14ee0d7bea71eac0063036f7264010118746578742f706c61696e3b636861727365743d7574662d38003a7b2270223a226272632d3230222c226f70223a227472616e73666572222c227469636b223a224d574343222c22616d74223a223237313932227d6821c179f9d72d9b9b1dcb10f7ce421deb098c111f9504f4c35d2f77d14ee0d7bea71e00000000"
}