{
  "txid": "67599d7ef119a94ca9d8e04874a7d9dddcfe22abbdec174535471b685c1d1170",
  "version": 2,
  "locktime": 0,
  "vin": [
    {
      "txid": "8749f80ffdcb60630f9c8ee5da26565e0978af401c4447f93242d3918e45e83c",
      "vout": 0,
      "prevout": {
        "scriptpubkey": "512093fed4b0bf505c2ab3afda21699f20570cdff8d3a5c9b5aeb00b56ddb24f0e99",
        "scriptpubkey_asm": "OP_PUSHNUM_1 OP_PUSHBYTES_32 93fed4b0bf505c2ab3afda21699f20570cdff8d3a5c9b5aeb00b56ddb24f0e99",
        "scriptpubkey_type": "v1_p2tr",
        "scriptpubkey_address": "bc1pj0ldfv9l2pwz4va0mgskn8eq2uxdl7xn5hymtt4spdtdmvj0p6vsn50xrl",
        "value": 4000
      },
      "scriptsig": "",
      "scriptsig_asm": "",
      "witness": [
        "487fb8161ba43248dd1512e2aaa37b99256b757bd58c98c8b17d37eb2192a12220dc291fe7daeee742b2bffad8dedc9399ea5d52edf331ce0115d65fd51f83a6",
        "20847b07f25cd3ce02ca149d89d60e705948feb0f60c2a55c9cb77afa465b18e85ac0063036f7264010118746578742f706c61696e3b636861727365743d7574662d38003a7b2270223a226272632d3230222c226f70223a227472616e73666572222c227469636b223a2263686174222c22616d74223a223438303030227d68",
        "c0461279fc770427a77368c2d242ac85f473cbb005ac52e67e646affb08937d19c"
      ],
      "is_coinbase": false,
      "sequence": 4294967293
    }
  ],
  "vout": [
    {
      "scriptpubkey": "5120ea0bedb1eadaeb7b5e310d7befdadfb5b592cec03cfa82aa27d8e3d35d0246dd",
      "scriptpubkey_asm": "OP_PUSHNUM_1 OP_PUSHBYTES_32 ea0bedb1eadaeb7b5e310d7befdadfb5b592cec03cfa82aa27d8e3d35d0246dd",
      "scriptpubkey_type": "v1_p2tr",
      "scriptpubkey_address": "bc1pag97mv02mt4hkh33p4a7lkklkk6e9nkq8nag9238mr3axhgzgmwsmkd2yh",
      "value": 330
    },
    {
      "scriptpubkey": "001417be750e01bfed6be28c2307a61287af9008fbcd",
      "scriptpubkey_asm": "OP_0 OP_PUSHBYTES_20 17be750e01bfed6be28c2307a61287af9008fbcd",
      "scriptpubkey_type": "v0_p2wpkh",
      "scriptpubkey_address": "bc1qz7l82rsphlkkhc5vyvr6vy5847gq377ddakr7l",
      "value": 1474
    }
  ],
  "size": 356,
  "weight": 731,
  "fee": 2196,
  "status": {
    "confirmed": true,
    "block_height": 834460,
    "block_hash": "00000000000000000000484a79b643b2524bbce82e5d8a442013fa5b8905ed98",
    "block_time": 1710307468
  },
  "hex": "020000000001013ce8458e91d34232f947441c40af78095e5626dae58e9c0f6360cbfd0ff849870000000000fdffffff024a01000000000000225120ea0bedb1eadaeb7b5e310d7befdadfb5b592cec03cfa82aa27d8e3d35d0246ddc20500000000000016001417be750e01bfed6be28c2307a61287af9008fbcd0340487fb8161ba43248dd1512e2aaa37b99256b757bd58c98c8b17d37eb2192a12220dc291fe7daeee742b2bffad8dedc9399ea5d52edf331ce0115d65fd51f83a68020847b07f25cd3ce02ca149d89d60e705948feb0f60c2a55c9cb77afa465b18e85ac0063036f7264010118746578742f706c61696e3b636861727365743d7574662d38003a7b2270223a226272632d3230222c226f70223a227472616e73666572222c227469636b223a2263686174222c22616d74223a223438303030227d6821c0461279fc770427a77368c2d242ac85f473cbb005ac52e67e646affb08937d19c00000000"
}