{
  "txid": "678dea2e05228d154939e13b984724083402c665d9060908134482fcb3b9bcbd",
  "version": 2,
  "locktime": 0,
  "vin": [
    {
      "txid": "acc3ba00869acb582a3f2904ce3a11dd3779350ce234063fc7d0959246213364",
      "vout": 58,
      "prevout": {
        "scriptpubkey": "5120296ff5dcd4d47e0eb2883105b1cf2fafc133baabcef622c064b3b36a4e9a6de5",
        "scriptpubkey_asm": "OP_PUSHNUM_1 OP_PUSHBYTES_32 296ff5dcd4d47e0eb2883105b1cf2fafc133baabcef622c064b3b36a4e9a6de5",
        "scriptpubkey_type": "v1_p2tr",
        "scriptpubkey_address": "bc1p99hlthx563lqav5gxyzmrne04lqn8w4temmz9srykwek5n56dhjs9vj578",
        "value": 1806
      },
      "scriptsig": "",
      "scriptsig_asm": "",
      "witness": [
        "c9fe98399965167dd19d24f94af88f86b5b31c64ff375c9e493736d636f5e15f378407379b142be693385ac2176958c9c139e021f01c8fd8e27b8da0d67ab31c",
        "208d2e32bca3eb7de93ca0316e882123fa124a1a5b127a4c7faf3196f09b8df4bcac0063036f726401010a746578742f706c61696e00357b2270223a226272632d3230222c226f70223a226d696e74222c227469636b223a22646f6765222c22616d74223a2234323030227d68",
        "c18d2e32bca3eb7de93ca0316e882123fa124a1a5b127a4c7faf3196f09b8df4bc"
      ],
      "is_coinbase": false,
      "sequence": 4261412863
    }
  ],
  "vout": [
    {
      "scriptpubkey": "00147a665de7a370f4c9b372ab1fae587500a5bcbdb4",
      "scriptpubkey_asm": "OP_0 OP_PUSHBYTES_20 7a665de7a370f4c9b372ab1fae587500a5bcbdb4",
      "scriptpubkey_type": "v0_p2wpkh",
      "scriptpubkey_address": "bc1q0fn9mearwr6vnvmj4v06ukr4qzjme0d565dzcx",
      "value": 294
    }
  ],
  "size": 294,
  "weight": 540,
  "fee": 1512,
  "status": {
    "confirmed": true,
    "block_height": 834460,
    "block_hash": "00000000000000000000484a79b643b2524bbce82e5d8a442013fa5b8905ed98",
    "block_time": 1710307468
  },
  "hex": "02000000000101643321469295d0c73f0634e20c357937dd113ace04293f2a58cb9a8600bac3ac3a00000000fffffffd0126010000000000001600147a665de7a370f4c9b372ab1fae587500a5bcbdb40340c9fe98399965167dd19d24f94af88f86b5b31c64ff375c9e493736d636f5e15f378407379b142be693385ac2176958c9c139e021f01c8fd8e27b8da0d67ab31c6d208d2e32bca3eb7de93ca0316e882123fa124a1a5b127a4c7faf3196f09b8df4bcac0063036f726401010a746578742f706c61696e00357b2270223a226272632d3230222c226f70223a226d696e74222c227469636b223a22646f6765222c22616d74223a2234323030227d6821c18d2e32bca3eb7de93ca0316e882123fa124a1a5b127a4c7faf3196f09b8df4bc00000000"
}