{
  "txid": "67a54aa6bdbe711d12100192fcb22dbfd0df60852736485537dc2dbc4d53f43d",
  "version": 2,
  "locktime": 0,
  "vin": [
    {
      "txid": "5b7c5d3b9e7c7bd105c7b2751894da4087d706576bf9062bcb2440ca22f7085a",
      "vout": 1,
      "prevout": {
        "scriptpubkey": "51205a12908350fc1d0b9dd9d89337d01396f23dcf75e83b06fbc23cde83c3a1e18b",
        "scriptpubkey_asm": "OP_PUSHNUM_1 OP_PUSHBYTES_32 5a12908350fc1d0b9dd9d89337d01396f23dcf75e83b06fbc23cde83c3a1e18b",
        "scriptpubkey_type": "v1_p2tr",
        "scriptpubkey_address": "bc1ptgffpq6slswsh8wemzfn05qnjmermnm4aqasd77z8n0g8sapux9sy79jzl",
        "value": 2589
      },
      "scriptsig": "",
      "scriptsig_asm": "",
      "witness": [
        "47c826cfe7df85c0b570fc81375e8bca75752280dab009331c95b8133166b5608b8e1622d2d0c57f9072fce84577973168f2d804f1d867a3667aeea0cd783c4b"
      ],
      "is_coinbase": false,
      "sequence": 4294967293
    },
    {
      "txid": "90cf62bdd67eaf93fa7c462228d39343ecc2b179dd8ba0aa08fc7f22377f8fcf",
      "vout": 1,
      "prevout": {
        "scriptpubkey": "512036648f902e4d8fd0516bc4cbc6056b1e1ac10078139a909bef2f60c36a542673",
        "scriptpubkey_asm": "OP_PUSHNUM_1 OP_PUSHBYTES_32 36648f902e4d8fd0516bc4cbc6056b1e1ac10078139a909bef2f60c36a542673",
        "scriptpubkey_type": "v1_p2tr",
        "scriptpubkey_address": "bc1pxejglypwfk8aq5ttcn9uvpttrcdvzqrczwdfpxl09asvx6j5yeesvdqe9r",
        "value": 16882
      },
      "scriptsig": "",
      "scriptsig_asm": "",
      "witness": [
        "f33cf8242a78cf0d89aa48e19f639ad2397ee371b48d652a43adfa263c3b44e59fe7cbc0b29dede2de1fc826488793cc75bb61692c01d8d6051bdce4e9b4cb2f"
      ],
      "is_coinbase": false,
      "sequence": 4294967293
    }
  ],
  "vout": [
    {
      "scriptpubkey": "51200e5a41bf1f6c91ca52a5346dbcc78fc92881d295a12cf865f87c1cc54b501c1e",
      "scriptpubkey_asm": "OP_PUSHNUM_1 OP_PUSHBYTES_32 0e5a41bf1f6c91ca52a5346dbcc78fc92881d295a12cf865f87c1cc54b501c1e",
      "scriptpubkey_type": "v1_p2tr",
      "scriptpubkey_address": "bc1ppedyr0cldjgu5549x3kme3u0ey5gr5545yk0se0c0swv2j6srs0q47re4t",
      "value": 2930
    },
    {
      "scriptpubkey": "51201ce2857b3a487d628d1c257703def3657f1846357105a1c88f46af11bba917fe",
      "scriptpubkey_asm": "OP_PUSHNUM_1 OP_PUSHBYTES_32 1ce2857b3a487d628d1c257703def3657f1846357105a1c88f46af11bba917fe",
      "scriptpubkey_type": "v1_p2tr",
      "scriptpubkey_address": "bc1prn3g27e6fp7k9rguy4ms8hhnv4l3s334wyz6rjy0g6h3rwafzllq80s2ha",
      "value": 13149
    }
  ],
  "size": 312,
  "weight": 846,
  "fee": 3392,
  "status": {
    "confirmed": true,
    "block_height": 834460,
    "block_hash": "00000000000000000000484a79b643b2524bbce82e5d8a442013fa5b8905ed98",
    "block_time": 1710307468
  },
  "hex": "020000000001025a08f722ca4024cb2b06f96b5706d78740da941875b2c705d17b7c9e3b5d7c5b0100000000fdffffffcf8f7f37227ffc08aaa08bdd79b1c2ec4393d32822467cfa93af7ed6bd62cf900100000000fdffffff02720b0000000000002251200e5a41bf1f6c91ca52a5346dbcc78fc92881d295a12cf865f87c1cc54b501c1e5d330000000000002251201ce2857b3a487d628d1c257703def3657f1846357105a1c88f46af11bba917fe014047c826cfe7df85c0b570fc81375e8bca75752280dab009331c95b8133166b5608b8e1622d2d0c57f9072fce84577973168f2d804f1d867a3667aeea0cd783c4b0140f33cf8242a78cf0d89aa48e19f639ad2397ee371b48d652a43adfa263c3b44e59fe7cbc0b29dede2de1fc826488793cc75bb61692c01d8d6051bdce4e9b4cb2f00000000"
}