{
  "txid": "67abac191dd421c0b0d763c3436f1f4ab2a4f04c5ee12418ab28c4a608f8b7ed",
  "version": 1,
  "locktime": 0,
  "vin": [
    {
      "txid": "014a788bc0f3110718ba93da59d8d487cf23f967a8f0d0f350deb2d3836298e2",
      "vout": 1,
      "prevout": {
        "scriptpubkey": "0014a94057da75bd6e8fc1a30eec48361c298fd81525",
        "scriptpubkey_asm": "OP_0 OP_PUSHBYTES_20 a94057da75bd6e8fc1a30eec48361c298fd81525",
        "scriptpubkey_type": "v0_p2wpkh",
        "scriptpubkey_address": "bc1q49q90kn4h4hglsdrpmkysdsu9x8as9f99qp8x3",
        "value": 717881
      },
      "scriptsig": "",
      "scriptsig_asm": "",
      "witness": [
        "3045022100eadd67099ff5493379af78198fcf8a6007a4ed449cb34da9a0799c8a1fd747f802205af31165da401755ca53361d63f80e174e2cdc1b7a45933d231c4c7f531755ad01",
        "02422cb3b9e1ded6aba8e564a0e0c49d55781321115b07318d2cfd480b042b0b5a"
      ],
      "is_coinbase": false,
      "sequence": 4294967295
    }
  ],
  "vout": [
    {
      "scriptpubkey": "a91494052f9fd066a970fca95a70ea907158f0003d3287",
      "scriptpubkey_asm": "OP_HASH160 OP_PUSHBYTES_20 94052f9fd066a970fca95a70ea907158f0003d32 OP_EQUAL",
      "scriptpubkey_type": "p2sh",
      "scriptpubkey_address": "3FBg9GQkiC5UBqVb5zmv5k3VC3HgUWQ4bS",
      "value": 110171
    },
    {
      "scriptpubkey": "0014a94057da75bd6e8fc1a30eec48361c298fd81525",
      "scriptpubkey_asm": "OP_0 OP_PUSHBYTES_20 a94057da75bd6e8fc1a30eec48361c298fd81525",
      "scriptpubkey_type": "v0_p2wpkh",
      "scriptpubkey_address": "bc1q49q90kn4h4hglsdrpmkysdsu9x8as9f99qp8x3",
      "value": 603876
    }
  ],
  "size": 224,
  "weight": 566,
  "fee": 3834,
  "status": {
    "confirmed": true,
    "block_height": 834638,
    "block_hash": "000000000000000000025f742c626208ac87e0b7d15054abb4a19ca2d735a54e",
    "block_time": 1710405325
  },
  "hex": "01000000000101e2986283d3b2de50f3d0f0a867f923cf87d4d859da93ba180711f3c08b784a010100000000ffffffff025bae01000000000017a91494052f9fd066a970fca95a70ea907158f0003d3287e436090000000000160014a94057da75bd6e8fc1a30eec48361c298fd8152502483045022100eadd67099ff5493379af78198fcf8a6007a4ed449cb34da9a0799c8a1fd747f802205af31165da401755ca53361d63f80e174e2cdc1b7a45933d231c4c7f531755ad012102422cb3b9e1ded6aba8e564a0e0c49d55781321115b07318d2cfd480b042b0b5a00000000"
}