{
  "txid": "67b03fff7be275b03f09e082e771c876821e61bb22155f86342b54e723ff8bca",
  "version": 1,
  "locktime": 0,
  "vin": [
    {
      "txid": "15c559eee562e08fe1aacf1735962af6d2a10170b4820e315c6d908961f46513",
      "vout": 92,
      "prevout": {
        "scriptpubkey": "001474f431c361d5dc47ed756450fb7b1d8eb6d29d8a",
        "scriptpubkey_asm": "OP_0 OP_PUSHBYTES_20 74f431c361d5dc47ed756450fb7b1d8eb6d29d8a",
        "scriptpubkey_type": "v0_p2wpkh",
        "scriptpubkey_address": "bc1qwn6rrsmp6hwy0mt4v3g0k7ca36md98v2x8tlpe",
        "value": 49106
      },
      "scriptsig": "",
      "scriptsig_asm": "",
      "witness": [
        "3045022100d36668234be15df3ba82ae07bd825c6137c98283f7e921f180d972162be25a7502206559c7ce7aa6d0c7130b7e57c6fffd8d331a42814d92cf19eafedec5123fc0e701",
        "028ea8d80c80c0e86c25175af20c84a78af3c0a2cba0c4ca86c19333ba2bfc30ef"
      ],
      "is_coinbase": false,
      "sequence": 4294967295
    },
    {
      "txid": "2ab70c88da7b09f7c4c0ce12204e5c97bb9347d9876edcdaa639ee7d1028ee87",
      "vout": 1,
      "prevout": {
        "scriptpubkey": "001474f431c361d5dc47ed756450fb7b1d8eb6d29d8a",
        "scriptpubkey_asm": "OP_0 OP_PUSHBYTES_20 74f431c361d5dc47ed756450fb7b1d8eb6d29d8a",
        "scriptpubkey_type": "v0_p2wpkh",
        "scriptpubkey_address": "bc1qwn6rrsmp6hwy0mt4v3g0k7ca36md98v2x8tlpe",
        "value": 52049
      },
      "scriptsig": "",
      "scriptsig_asm": "",
      "witness": [
        "30450221009a54fd434bb788fc95523a8535a142b6b07920034aae45b8fd4e0ee5a44f431a022044b806863a437e7a7ffba74326c89f50632d54b3aca2b9fb483d7c79e9ae7aa301",
        "028ea8d80c80c0e86c25175af20c84a78af3c0a2cba0c4ca86c19333ba2bfc30ef"
      ],
      "is_coinbase": false,
      "sequence": 4294967295
    },
    {
      "txid": "83155cd325abdab00f6f309e9bf97a3deaaab8e5f91ba0a8ab4ba2846ff43bee",
      "vout": 25,
      "prevout": {
        "scriptpubkey": "001474f431c361d5dc47ed756450fb7b1d8eb6d29d8a",
        "scriptpubkey_asm": "OP_0 OP_PUSHBYTES_20 74f431c361d5dc47ed756450fb7b1d8eb6d29d8a",
        "scriptpubkey_type": "v0_p2wpkh",
        "scriptpubkey_address": "bc1qwn6rrsmp6hwy0mt4v3g0k7ca36md98v2x8tlpe",
        "value": 52336
      },
      "scriptsig": "",
      "scriptsig_asm": "",
      "witness": [
        "3045022100d544e2ee2c9202a4cf7c314dca70f9fb744004514005a7891d9d449a9f3c4668022021d3a4d47c64e776098abc507e0dacf179c8fa1875b99fdee94fac3f72a6a06a01",
        "028ea8d80c80c0e86c25175af20c84a78af3c0a2cba0c4ca86c19333ba2bfc30ef"
      ],
      "is_coinbase": false,
      "sequence": 4294967295
    },
    {
      "txid": "559917dd6f56a175f4e1bddf6628b251aaec2d2bdd1130903019ace100a1e6f7",
      "vout": 1,
      "prevout": {
        "scriptpubkey": "001474f431c361d5dc47ed756450fb7b1d8eb6d29d8a",
        "scriptpubkey_asm": "OP_0 OP_PUSHBYTES_20 74f431c361d5dc47ed756450fb7b1d8eb6d29d8a",
        "scriptpubkey_type": "v0_p2wpkh",
        "scriptpubkey_address": "bc1qwn6rrsmp6hwy0mt4v3g0k7ca36md98v2x8tlpe",
        "value": 53030
      },
      "scriptsig": "",
      "scriptsig_asm": "",
      "witness": [
        "3045022100add1566ab69964e1d096b2363e9b47440b9a63d773d308e5715752f720e1310c022007cf301e968deae6dad558e5d2eba30b9c5aad11f193cbaeb48d5ad0dda1e63101",
        "028ea8d80c80c0e86c25175af20c84a78af3c0a2cba0c4ca86c19333ba2bfc30ef"
      ],
      "is_coinbase": false,
      "sequence": 4294967295
    },
    {
      "txid": "b26afae48d98d114ba50499061062edebeb7c01274f0f3472ca146be6cc5e8f1",
      "vout": 92,
      "prevout": {
        "scriptpubkey": "001474f431c361d5dc47ed756450fb7b1d8eb6d29d8a",
        "scriptpubkey_asm": "OP_0 OP_PUSHBYTES_20 74f431c361d5dc47ed756450fb7b1d8eb6d29d8a",
        "scriptpubkey_type": "v0_p2wpkh",
        "scriptpubkey_address": "bc1qwn6rrsmp6hwy0mt4v3g0k7ca36md98v2x8tlpe",
        "value": 55577
      },
      "scriptsig": "",
      "scriptsig_asm": "",
      "witness": [
        "304402200f2af3b692cc77d439720cfa8d27220c0b1328c91633adc1e6db948239312e8a0220254e64d9be4f4be6f1928f5c78fd15274157ed328ffe3e74fc9618987451012801",
        "028ea8d80c80c0e86c25175af20c84a78af3c0a2cba0c4ca86c19333ba2bfc30ef"
      ],
      "is_coinbase": false,
      "sequence": 4294967295
    },
    {
      "txid": "2270b208b1dc14802eac1b85fb9182713ed732a1492e3da812fc6768a383a17a",
      "vout": 1,
      "prevout": {
        "scriptpubkey": "001474f431c361d5dc47ed756450fb7b1d8eb6d29d8a",
        "scriptpubkey_asm": "OP_0 OP_PUSHBYTES_20 74f431c361d5dc47ed756450fb7b1d8eb6d29d8a",
        "scriptpubkey_type": "v0_p2wpkh",
        "scriptpubkey_address": "bc1qwn6rrsmp6hwy0mt4v3g0k7ca36md98v2x8tlpe",
        "value": 56213
      },
      "scriptsig": "",
      "scriptsig_asm": "",
      "witness": [
        "304402202abc2384f81a51e8e14ba9a07e61d9ebbfb7ade18edfd7db7a3ee519d1e6d2b8022013f48459d59dd0b03d6ef4e7a6975af6894980d8932a0d140b7b509b00a3976301",
        "028ea8d80c80c0e86c25175af20c84a78af3c0a2cba0c4ca86c19333ba2bfc30ef"
      ],
      "is_coinbase": false,
      "sequence": 4294967295
    },
    {
      "txid": "10ef5a511824b572a4cc24978bfced6bd815ca0f168775d44af6152c9d6b80a6",
      "vout": 112,
      "prevout": {
        "scriptpubkey": "001474f431c361d5dc47ed756450fb7b1d8eb6d29d8a",
        "scriptpubkey_asm": "OP_0 OP_PUSHBYTES_20 74f431c361d5dc47ed756450fb7b1d8eb6d29d8a",
        "scriptpubkey_type": "v0_p2wpkh",
        "scriptpubkey_address": "bc1qwn6rrsmp6hwy0mt4v3g0k7ca36md98v2x8tlpe",
        "value": 56255
      },
      "scriptsig": "",
      "scriptsig_asm": "",
      "witness": [
        "3044022068bc3c2f128caa1db4fa295fdcf1799cdfddec2c13e95d9b78a4109c5a59148b02203006832998ff5a7c99ae2ca4c2bf089b4d0921a86b3ad9b5145ee12d87c51f0801",
        "028ea8d80c80c0e86c25175af20c84a78af3c0a2cba0c4ca86c19333ba2bfc30ef"
      ],
      "is_coinbase": false,
      "sequence": 4294967295
    },
    {
      "txid": "3ec02cc0110f0831bcfb4686dae8fbcc904250c130a8f7a0580c62eaaef4f9a4",
      "vout": 1,
      "prevout": {
        "scriptpubkey": "001474f431c361d5dc47ed756450fb7b1d8eb6d29d8a",
        "scriptpubkey_asm": "OP_0 OP_PUSHBYTES_20 74f431c361d5dc47ed756450fb7b1d8eb6d29d8a",
        "scriptpubkey_type": "v0_p2wpkh",
        "scriptpubkey_address": "bc1qwn6rrsmp6hwy0mt4v3g0k7ca36md98v2x8tlpe",
        "value": 56281
      },
      "scriptsig": "",
      "scriptsig_asm": "",
      "witness": [
        "304502210099432876c47bd621d258a4c0734bb3f996589e81d236c5338d088bd19552c92d02205c571e3e542410e6fbe140fa35ff421c3a856588be1733e91f9bafc75d1fedef01",
        "028ea8d80c80c0e86c25175af20c84a78af3c0a2cba0c4ca86c19333ba2bfc30ef"
      ],
      "is_coinbase": false,
      "sequence": 4294967295
    }
  ],
  "vout": [
    {
      "scriptpubkey": "00148f83065c29c0ccbc3da3b9ad50826fa38f810bf1",
      "scriptpubkey_asm": "OP_0 OP_PUSHBYTES_20 8f83065c29c0ccbc3da3b9ad50826fa38f810bf1",
      "scriptpubkey_type": "v0_p2wpkh",
      "scriptpubkey_address": "bc1q37psvhpfcrxtc0drhxk4pqn05w8czzl3z6s54x",
      "value": 388018
    },
    {
      "scriptpubkey": "001474f431c361d5dc47ed756450fb7b1d8eb6d29d8a",
      "scriptpubkey_asm": "OP_0 OP_PUSHBYTES_20 74f431c361d5dc47ed756450fb7b1d8eb6d29d8a",
      "scriptpubkey_type": "v0_p2wpkh",
      "scriptpubkey_address": "bc1qwn6rrsmp6hwy0mt4v3g0k7ca36md98v2x8tlpe",
      "value": 26170
    }
  ],
  "size": 1263,
  "weight": 2463,
  "fee": 16659,
  "status": {
    "confirmed": true,
    "block_height": 834638,
    "block_hash": "000000000000000000025f742c626208ac87e0b7d15054abb4a19ca2d735a54e",
    "block_time": 1710405325
  },
  "hex": "010000000001081365f46189906d5c310e82b47001a1d2f62a963517cfaae18fe062e5ee59c5155c00000000ffffffff87ee28107dee39a6dadc6e87d94793bb975c4e2012cec0c4f7097bda880cb72a0100000000ffffffffee3bf46f84a24baba8a01bf9e5b8aaea3d7af99b9e306f0fb0daab25d35c15831900000000fffffffff7e6a100e1ac1930903011dd2b2decaa51b22866dfbde1f475a1566fdd1799550100000000fffffffff1e8c56cbe46a12c47f3f07412c0b7bede2e0661904950ba14d1988de4fa6ab25c00000000ffffffff7aa183a36867fc12a83d2e49a132d73e718291fb851bac2e8014dcb108b270220100000000ffffffffa6806b9d2c15f64ad47587160fca15d86bedfc8b9724cca472b52418515aef107000000000ffffffffa4f9f4aeea620c58a0f7a830c1504290ccfbe8da8646fbbc31080f11c02cc03e0100000000ffffffff02b2eb0500000000001600148f83065c29c0ccbc3da3b9ad50826fa38f810bf13a6600000000000016001474f431c361d5dc47ed756450fb7b1d8eb6d29d8a02483045022100d36668234be15df3ba82ae07bd825c6137c98283f7e921f180d972162be25a7502206559c7ce7aa6d0c7130b7e57c6fffd8d331a42814d92cf19eafedec5123fc0e70121028ea8d80c80c0e86c25175af20c84a78af3c0a2cba0c4ca86c19333ba2bfc30ef024830450221009a54fd434bb788fc95523a8535a142b6b07920034aae45b8fd4e0ee5a44f431a022044b806863a437e7a7ffba74326c89f50632d54b3aca2b9fb483d7c79e9ae7aa30121028ea8d80c80c0e86c25175af20c84a78af3c0a2cba0c4ca86c19333ba2bfc30ef02483045022100d544e2ee2c9202a4cf7c314dca70f9fb744004514005a7891d9d449a9f3c4668022021d3a4d47c64e776098abc507e0dacf179c8fa1875b99fdee94fac3f72a6a06a0121028ea8d80c80c0e86c25175af20c84a78af3c0a2cba0c4ca86c19333ba2bfc30ef02483045022100add1566ab69964e1d096b2363e9b47440b9a63d773d308e5715752f720e1310c022007cf301e968deae6dad558e5d2eba30b9c5aad11f193cbaeb48d5ad0dda1e6310121028ea8d80c80c0e86c25175af20c84a78af3c0a2cba0c4ca86c19333ba2bfc30ef0247304402200f2af3b692cc77d439720cfa8d27220c0b1328c91633adc1e6db948239312e8a0220254e64d9be4f4be6f1928f5c78fd15274157ed328ffe3e74fc961898745101280121028ea8d80c80c0e86c25175af20c84a78af3c0a2cba0c4ca86c19333ba2bfc30ef0247304402202abc2384f81a51e8e14ba9a07e61d9ebbfb7ade18edfd7db7a3ee519d1e6d2b8022013f48459d59dd0b03d6ef4e7a6975af6894980d8932a0d140b7b509b00a397630121028ea8d80c80c0e86c25175af20c84a78af3c0a2cba0c4ca86c19333ba2bfc30ef02473044022068bc3c2f128caa1db4fa295fdcf1799cdfddec2c13e95d9b78a4109c5a59148b02203006832998ff5a7c99ae2ca4c2bf089b4d0921a86b3ad9b5145ee12d87c51f080121028ea8d80c80c0e86c25175af20c84a78af3c0a2cba0c4ca86c19333ba2bfc30ef0248304502210099432876c47bd621d258a4c0734bb3f996589e81d236c5338d088bd19552c92d02205c571e3e542410e6fbe140fa35ff421c3a856588be1733e91f9bafc75d1fedef0121028ea8d80c80c0e86c25175af20c84a78af3c0a2cba0c4ca86c19333ba2bfc30ef00000000"
}