{
  "txid": "67b5315dd933ddc61ed5995088bfd7e2cb856ef815ca5fb034b37ea45875ae68",
  "version": 1,
  "locktime": 0,
  "vin": [
    {
      "txid": "257e8fc62315e0eb9ed42630a90027863a25ecf39c21a1f9e83fcdebe9a947bb",
      "vout": 1,
      "prevout": {
        "scriptpubkey": "0014f58a73685bed941e45cd7131e7000fc94a6aa5ea",
        "scriptpubkey_asm": "OP_0 OP_PUSHBYTES_20 f58a73685bed941e45cd7131e7000fc94a6aa5ea",
        "scriptpubkey_type": "v0_p2wpkh",
        "scriptpubkey_address": "bc1q7k98x6zmak2pu3wdwyc7wqq0e99x4f02v6pcp3",
        "value": 219657047
      },
      "scriptsig": "",
      "scriptsig_asm": "",
      "witness": [
        "3045022100eafeaa3ccea5d7d3598b6a6744d004f78f37b54b76379a3b75811722dbbd32b70220767c8a750b3322cf4f3e29385917f636489e7bc33564b63c6ca982ebdcdad24801",
        "033b96d3813c700295bec605293c3ccad49bc1da17ee2daf0991bce6cac10e98d1"
      ],
      "is_coinbase": false,
      "sequence": 4294967295
    }
  ],
  "vout": [
    {
      "scriptpubkey": "0014d00bf1e225c581a02e46b2b3521c76cf055b313e",
      "scriptpubkey_asm": "OP_0 OP_PUSHBYTES_20 d00bf1e225c581a02e46b2b3521c76cf055b313e",
      "scriptpubkey_type": "v0_p2wpkh",
      "scriptpubkey_address": "bc1q6q9lrc39ckq6qtjxk2e4y8rkeuz4kvf77fpqr3",
      "value": 3429216
    },
    {
      "scriptpubkey": "001484a71ca9d94119d0cc4382bdc1e5dcc2d5fe7e21",
      "scriptpubkey_asm": "OP_0 OP_PUSHBYTES_20 84a71ca9d94119d0cc4382bdc1e5dcc2d5fe7e21",
      "scriptpubkey_type": "v0_p2wpkh",
      "scriptpubkey_address": "bc1qsjn3e2wegyvapnzrs27urewuct2lul3phz48ze",
      "value": 216224165
    }
  ],
  "size": 223,
  "weight": 562,
  "fee": 3666,
  "status": {
    "confirmed": true,
    "block_height": 834638,
    "block_hash": "000000000000000000025f742c626208ac87e0b7d15054abb4a19ca2d735a54e",
    "block_time": 1710405325
  },
  "hex": "01000000000101bb47a9e9ebcd3fe8f9a1219cf3ec253a862700a93026d49eebe01523c68f7e250100000000ffffffff026053340000000000160014d00bf1e225c581a02e46b2b3521c76cf055b313ea551e30c0000000016001484a71ca9d94119d0cc4382bdc1e5dcc2d5fe7e2102483045022100eafeaa3ccea5d7d3598b6a6744d004f78f37b54b76379a3b75811722dbbd32b70220767c8a750b3322cf4f3e29385917f636489e7bc33564b63c6ca982ebdcdad2480121033b96d3813c700295bec605293c3ccad49bc1da17ee2daf0991bce6cac10e98d100000000"
}