{
  "txid": "67b831d200d7a0ffb9f2ac6d0dd16a064e0b8c0b75b1d0cf0ac120542c6734b6",
  "version": 2,
  "locktime": 0,
  "vin": [
    {
      "txid": "00a5771547a2cd6484564e723af50b5131498db14567dc1498051042f777728d",
      "vout": 0,
      "prevout": {
        "scriptpubkey": "0014dbce0060819a2f6bc81244dc1f7d657738d0e0ce",
        "scriptpubkey_asm": "OP_0 OP_PUSHBYTES_20 dbce0060819a2f6bc81244dc1f7d657738d0e0ce",
        "scriptpubkey_type": "v0_p2wpkh",
        "scriptpubkey_address": "bc1qm08qqcypnghkhjqjgnwp7lt9wuudpcxwneggwe",
        "value": 2706322
      },
      "scriptsig": "",
      "scriptsig_asm": "",
      "witness": [
        "3044022041bff99bd5c29e568a0e5074bc16d293da1e5574d885989ab8db8ee1bcdee2cd0220407cf16c4ddaee261a57d6c7a931f4ff5a3cb8822724a0ba8bb846eee9faffed01",
        "03210fd0358e14e5c75db317066cc66be2efe447947abfa87c7653b261b98a15e7"
      ],
      "is_coinbase": false,
      "sequence": 4294967293
    }
  ],
  "vout": [
    {
      "scriptpubkey": "a91467d2b4a32d529dd82a53a992337ed58de5e3d45387",
      "scriptpubkey_asm": "OP_HASH160 OP_PUSHBYTES_20 67d2b4a32d529dd82a53a992337ed58de5e3d453 OP_EQUAL",
      "scriptpubkey_type": "p2sh",
      "scriptpubkey_address": "3B9ywPHcs2pmhnuF9JUPdYz4vKoiHYAXHp",
      "value": 2702881
    }
  ],
  "size": 192,
  "weight": 441,
  "fee": 3441,
  "status": {
    "confirmed": true,
    "block_height": 834638,
    "block_hash": "000000000000000000025f742c626208ac87e0b7d15054abb4a19ca2d735a54e",
    "block_time": 1710405325
  },
  "hex": "020000000001018d7277f74210059814dc6745b18d4931510bf53a724e568464cda2471577a5000000000000fdffffff01213e29000000000017a91467d2b4a32d529dd82a53a992337ed58de5e3d4538702473044022041bff99bd5c29e568a0e5074bc16d293da1e5574d885989ab8db8ee1bcdee2cd0220407cf16c4ddaee261a57d6c7a931f4ff5a3cb8822724a0ba8bb846eee9faffed012103210fd0358e14e5c75db317066cc66be2efe447947abfa87c7653b261b98a15e700000000"
}