{
  "txid": "67d250ac876136ca23990b87f37ccee6390ff7ddc73cfb8dea8133b0d4d9783f",
  "version": 1,
  "locktime": 0,
  "vin": [
    {
      "txid": "4cc381657e717d429260b2784775febb8bfddc037afe2149dfd50d2a2eb262d4",
      "vout": 3135,
      "prevout": {
        "scriptpubkey": "001461612ca5b47ac7ee7f04075139c97d9e6357affa",
        "scriptpubkey_asm": "OP_0 OP_PUSHBYTES_20 61612ca5b47ac7ee7f04075139c97d9e6357affa",
        "scriptpubkey_type": "v0_p2wpkh",
        "scriptpubkey_address": "bc1qv9sjefd50tr7ulcyqagnnjtane340tl6dfu8x6",
        "value": 512205
      },
      "scriptsig": "",
      "scriptsig_asm": "",
      "witness": [
        "30440220167d22425d58f063360e3a716dce9407db6aed85f6246884918f7389b0e02cf702204c79bd317b61bbded2ecc27a2906121f5ec7e2074ee6838817b61b282b2c7a4f01",
        "026328410440b9f3aa3d8d92ac58a75e28e84e706f2f317aefdab5b647f9abd4b2"
      ],
      "is_coinbase": false,
      "sequence": 4294967295
    }
  ],
  "vout": [
    {
      "scriptpubkey": "00144fc291295f49da28ed9974f0dbf331ec0f1d9a66",
      "scriptpubkey_asm": "OP_0 OP_PUSHBYTES_20 4fc291295f49da28ed9974f0dbf331ec0f1d9a66",
      "scriptpubkey_type": "v0_p2wpkh",
      "scriptpubkey_address": "bc1qflpfz22lf8dz3mvewncdhue3as83mxnxz7nzjg",
      "value": 511006
    }
  ],
  "size": 191,
  "weight": 437,
  "fee": 1199,
  "status": {
    "confirmed": true,
    "block_height": 834464,
    "block_hash": "0000000000000000000177a0869a911a2b65c9bdcd5a8bcb02b68f305bee848e",
    "block_time": 1710308296
  },
  "hex": "01000000000101d462b22e2a0dd5df4921fe7a03dcfd8bbbfe754778b26092427d717e6581c34c3f0c000000ffffffff011ecc0700000000001600144fc291295f49da28ed9974f0dbf331ec0f1d9a66024730440220167d22425d58f063360e3a716dce9407db6aed85f6246884918f7389b0e02cf702204c79bd317b61bbded2ecc27a2906121f5ec7e2074ee6838817b61b282b2c7a4f0121026328410440b9f3aa3d8d92ac58a75e28e84e706f2f317aefdab5b647f9abd4b200000000"
}