{
  "txid": "67d917f49aeb5d9985b9f7bbb376185e9f208e3062b77cc9a2545ed27f779b75",
  "version": 2,
  "locktime": 834637,
  "vin": [
    {
      "txid": "fe099cac7fd6ab27a1e440dcf7aa7993a1feb497e10a6e466aed655b7b774abb",
      "vout": 0,
      "prevout": {
        "scriptpubkey": "0014cb357020de70923dc8aa42999e21902147a94b34",
        "scriptpubkey_asm": "OP_0 OP_PUSHBYTES_20 cb357020de70923dc8aa42999e21902147a94b34",
        "scriptpubkey_type": "v0_p2wpkh",
        "scriptpubkey_address": "bc1qev6hqgx7wzfrmj92g2veugvsy9r6jje5gz93cx",
        "value": 197800
      },
      "scriptsig": "",
      "scriptsig_asm": "",
      "witness": [
        "3044022038b1f7df3648e276130ae4e70b751f5f47511883659749ff4305abd18f69ed78022049e641266d23b4f0954af41a03bef3b5983c6a57ac9ce37c8dc6408b5731e84901",
        "034f40626732e41c9ebcd79ddfb4f078fcfc26a11e8da4b9d82021a57ec906c88b"
      ],
      "is_coinbase": false,
      "sequence": 4294967293
    }
  ],
  "vout": [
    {
      "scriptpubkey": "001415eb7456d510c1aaea6746d284edbf9df7134fc3",
      "scriptpubkey_asm": "OP_0 OP_PUSHBYTES_20 15eb7456d510c1aaea6746d284edbf9df7134fc3",
      "scriptpubkey_type": "v0_p2wpkh",
      "scriptpubkey_address": "bc1qzh4hg4k4zrq646n8gmfgfmdlnhm3xn7rph9uvy",
      "value": 81270
    },
    {
      "scriptpubkey": "0014520da30cb0ecacf469398268a8002d791cd62357",
      "scriptpubkey_asm": "OP_0 OP_PUSHBYTES_20 520da30cb0ecacf469398268a8002d791cd62357",
      "scriptpubkey_type": "v0_p2wpkh",
      "scriptpubkey_address": "bc1q2gx6xr9sajk0g6fesf52sqpd0ywdvg6hhy79mx",
      "value": 112864
    }
  ],
  "size": 222,
  "weight": 561,
  "fee": 3666,
  "status": {
    "confirmed": true,
    "block_height": 834638,
    "block_hash": "000000000000000000025f742c626208ac87e0b7d15054abb4a19ca2d735a54e",
    "block_time": 1710405325
  },
  "hex": "02000000000101bb4a777b5b65ed6a466e0ae197b4fea19379aaf7dc40e4a127abd67fac9c09fe0000000000fdffffff02763d01000000000016001415eb7456d510c1aaea6746d284edbf9df7134fc3e0b8010000000000160014520da30cb0ecacf469398268a8002d791cd6235702473044022038b1f7df3648e276130ae4e70b751f5f47511883659749ff4305abd18f69ed78022049e641266d23b4f0954af41a03bef3b5983c6a57ac9ce37c8dc6408b5731e8490121034f40626732e41c9ebcd79ddfb4f078fcfc26a11e8da4b9d82021a57ec906c88b4dbc0c00"
}