{
  "txid": "67da0901fd922529922e711ac8572488e7a9a66a11a9b933e13ec75fd4abbc30",
  "version": 2,
  "locktime": 0,
  "vin": [
    {
      "txid": "d9b39620dad472f714ef9df4a21605b2324ee90684c967104438dd2bfef83859",
      "vout": 25,
      "prevout": {
        "scriptpubkey": "5120bd40bfe1f930e693f26842af15a239da9dae649413117cc379a5542de3f8bfe1",
        "scriptpubkey_asm": "OP_PUSHNUM_1 OP_PUSHBYTES_32 bd40bfe1f930e693f26842af15a239da9dae649413117cc379a5542de3f8bfe1",
        "scriptpubkey_type": "v1_p2tr",
        "scriptpubkey_address": "bc1ph4qtlc0exrnf8ungg2h3tg3em2w6uey5zvghesme542zmclchlsskadyls",
        "value": 2611913
      },
      "scriptsig": "",
      "scriptsig_asm": "",
      "witness": [
        "229f49479f31679a52c1879455391d66f0b5ef6da774840313a2b49cec9055a444fd47cdee5ad7bead50bec23414a222e3ac6e2bfc717e7552a371f26c611591",
        "20246ed34fe13b0d17be27a5feca46c97fa96993a99de526c54bc4ee9c3ef26384ac",
        "c1246ed34fe13b0d17be27a5feca46c97fa96993a99de526c54bc4ee9c3ef26384"
      ],
      "is_coinbase": false,
      "sequence": 4294967293
    }
  ],
  "vout": [
    {
      "scriptpubkey": "5120d5e04d46064d81bae68437bd4e570b15b7c3e9fe683966f429ab7e30d2f83785",
      "scriptpubkey_asm": "OP_PUSHNUM_1 OP_PUSHBYTES_32 d5e04d46064d81bae68437bd4e570b15b7c3e9fe683966f429ab7e30d2f83785",
      "scriptpubkey_type": "v1_p2tr",
      "scriptpubkey_address": "bc1p6hsy63sxfkqm4e5yx775u4ctzkmu8607dqukdapf4dlrp5hcx7zssa9xha",
      "value": 1847
    },
    {
      "scriptpubkey": "5120d5e04d46064d81bae68437bd4e570b15b7c3e9fe683966f429ab7e30d2f83785",
      "scriptpubkey_asm": "OP_PUSHNUM_1 OP_PUSHBYTES_32 d5e04d46064d81bae68437bd4e570b15b7c3e9fe683966f429ab7e30d2f83785",
      "scriptpubkey_type": "v1_p2tr",
      "scriptpubkey_address": "bc1p6hsy63sxfkqm4e5yx775u4ctzkmu8607dqukdapf4dlrp5hcx7zssa9xha",
      "value": 1847
    },
    {
      "scriptpubkey": "5120d5e04d46064d81bae68437bd4e570b15b7c3e9fe683966f429ab7e30d2f83785",
      "scriptpubkey_asm": "OP_PUSHNUM_1 OP_PUSHBYTES_32 d5e04d46064d81bae68437bd4e570b15b7c3e9fe683966f429ab7e30d2f83785",
      "scriptpubkey_type": "v1_p2tr",
      "scriptpubkey_address": "bc1p6hsy63sxfkqm4e5yx775u4ctzkmu8607dqukdapf4dlrp5hcx7zssa9xha",
      "value": 1847
    },
    {
      "scriptpubkey": "5120d5e04d46064d81bae68437bd4e570b15b7c3e9fe683966f429ab7e30d2f83785",
      "scriptpubkey_asm": "OP_PUSHNUM_1 OP_PUSHBYTES_32 d5e04d46064d81bae68437bd4e570b15b7c3e9fe683966f429ab7e30d2f83785",
      "scriptpubkey_type": "v1_p2tr",
      "scriptpubkey_address": "bc1p6hsy63sxfkqm4e5yx775u4ctzkmu8607dqukdapf4dlrp5hcx7zssa9xha",
      "value": 1847
    },
    {
      "scriptpubkey": "5120d5e04d46064d81bae68437bd4e570b15b7c3e9fe683966f429ab7e30d2f83785",
      "scriptpubkey_asm": "OP_PUSHNUM_1 OP_PUSHBYTES_32 d5e04d46064d81bae68437bd4e570b15b7c3e9fe683966f429ab7e30d2f83785",
      "scriptpubkey_type": "v1_p2tr",
      "scriptpubkey_address": "bc1p6hsy63sxfkqm4e5yx775u4ctzkmu8607dqukdapf4dlrp5hcx7zssa9xha",
      "value": 1847
    },
    {
      "scriptpubkey": "5120d5e04d46064d81bae68437bd4e570b15b7c3e9fe683966f429ab7e30d2f83785",
      "scriptpubkey_asm": "OP_PUSHNUM_1 OP_PUSHBYTES_32 d5e04d46064d81bae68437bd4e570b15b7c3e9fe683966f429ab7e30d2f83785",
      "scriptpubkey_type": "v1_p2tr",
      "scriptpubkey_address": "bc1p6hsy63sxfkqm4e5yx775u4ctzkmu8607dqukdapf4dlrp5hcx7zssa9xha",
      "value": 1847
    },
    {
      "scriptpubkey": "5120d5e04d46064d81bae68437bd4e570b15b7c3e9fe683966f429ab7e30d2f83785",
      "scriptpubkey_asm": "OP_PUSHNUM_1 OP_PUSHBYTES_32 d5e04d46064d81bae68437bd4e570b15b7c3e9fe683966f429ab7e30d2f83785",
      "scriptpubkey_type": "v1_p2tr",
      "scriptpubkey_address": "bc1p6hsy63sxfkqm4e5yx775u4ctzkmu8607dqukdapf4dlrp5hcx7zssa9xha",
      "value": 1847
    },
    {
      "scriptpubkey": "5120d5e04d46064d81bae68437bd4e570b15b7c3e9fe683966f429ab7e30d2f83785",
      "scriptpubkey_asm": "OP_PUSHNUM_1 OP_PUSHBYTES_32 d5e04d46064d81bae68437bd4e570b15b7c3e9fe683966f429ab7e30d2f83785",
      "scriptpubkey_type": "v1_p2tr",
      "scriptpubkey_address": "bc1p6hsy63sxfkqm4e5yx775u4ctzkmu8607dqukdapf4dlrp5hcx7zssa9xha",
      "value": 1847
    },
    {
      "scriptpubkey": "5120d5e04d46064d81bae68437bd4e570b15b7c3e9fe683966f429ab7e30d2f83785",
      "scriptpubkey_asm": "OP_PUSHNUM_1 OP_PUSHBYTES_32 d5e04d46064d81bae68437bd4e570b15b7c3e9fe683966f429ab7e30d2f83785",
      "scriptpubkey_type": "v1_p2tr",
      "scriptpubkey_address": "bc1p6hsy63sxfkqm4e5yx775u4ctzkmu8607dqukdapf4dlrp5hcx7zssa9xha",
      "value": 1847
    },
    {
      "scriptpubkey": "5120d5e04d46064d81bae68437bd4e570b15b7c3e9fe683966f429ab7e30d2f83785",
      "scriptpubkey_asm": "OP_PUSHNUM_1 OP_PUSHBYTES_32 d5e04d46064d81bae68437bd4e570b15b7c3e9fe683966f429ab7e30d2f83785",
      "scriptpubkey_type": "v1_p2tr",
      "scriptpubkey_address": "bc1p6hsy63sxfkqm4e5yx775u4ctzkmu8607dqukdapf4dlrp5hcx7zssa9xha",
      "value": 1847
    },
    {
      "scriptpubkey": "5120d5e04d46064d81bae68437bd4e570b15b7c3e9fe683966f429ab7e30d2f83785",
      "scriptpubkey_asm": "OP_PUSHNUM_1 OP_PUSHBYTES_32 d5e04d46064d81bae68437bd4e570b15b7c3e9fe683966f429ab7e30d2f83785",
      "scriptpubkey_type": "v1_p2tr",
      "scriptpubkey_address": "bc1p6hsy63sxfkqm4e5yx775u4ctzkmu8607dqukdapf4dlrp5hcx7zssa9xha",
      "value": 1847
    },
    {
      "scriptpubkey": "5120d5e04d46064d81bae68437bd4e570b15b7c3e9fe683966f429ab7e30d2f83785",
      "scriptpubkey_asm": "OP_PUSHNUM_1 OP_PUSHBYTES_32 d5e04d46064d81bae68437bd4e570b15b7c3e9fe683966f429ab7e30d2f83785",
      "scriptpubkey_type": "v1_p2tr",
      "scriptpubkey_address": "bc1p6hsy63sxfkqm4e5yx775u4ctzkmu8607dqukdapf4dlrp5hcx7zssa9xha",
      "value": 1847
    },
    {
      "scriptpubkey": "5120d5e04d46064d81bae68437bd4e570b15b7c3e9fe683966f429ab7e30d2f83785",
      "scriptpubkey_asm": "OP_PUSHNUM_1 OP_PUSHBYTES_32 d5e04d46064d81bae68437bd4e570b15b7c3e9fe683966f429ab7e30d2f83785",
      "scriptpubkey_type": "v1_p2tr",
      "scriptpubkey_address": "bc1p6hsy63sxfkqm4e5yx775u4ctzkmu8607dqukdapf4dlrp5hcx7zssa9xha",
      "value": 1847
    },
    {
      "scriptpubkey": "5120d5e04d46064d81bae68437bd4e570b15b7c3e9fe683966f429ab7e30d2f83785",
      "scriptpubkey_asm": "OP_PUSHNUM_1 OP_PUSHBYTES_32 d5e04d46064d81bae68437bd4e570b15b7c3e9fe683966f429ab7e30d2f83785",
      "scriptpubkey_type": "v1_p2tr",
      "scriptpubkey_address": "bc1p6hsy63sxfkqm4e5yx775u4ctzkmu8607dqukdapf4dlrp5hcx7zssa9xha",
      "value": 1847
    },
    {
      "scriptpubkey": "5120d5e04d46064d81bae68437bd4e570b15b7c3e9fe683966f429ab7e30d2f83785",
      "scriptpubkey_asm": "OP_PUSHNUM_1 OP_PUSHBYTES_32 d5e04d46064d81bae68437bd4e570b15b7c3e9fe683966f429ab7e30d2f83785",
      "scriptpubkey_type": "v1_p2tr",
      "scriptpubkey_address": "bc1p6hsy63sxfkqm4e5yx775u4ctzkmu8607dqukdapf4dlrp5hcx7zssa9xha",
      "value": 1847
    },
    {
      "scriptpubkey": "5120d5e04d46064d81bae68437bd4e570b15b7c3e9fe683966f429ab7e30d2f83785",
      "scriptpubkey_asm": "OP_PUSHNUM_1 OP_PUSHBYTES_32 d5e04d46064d81bae68437bd4e570b15b7c3e9fe683966f429ab7e30d2f83785",
      "scriptpubkey_type": "v1_p2tr",
      "scriptpubkey_address": "bc1p6hsy63sxfkqm4e5yx775u4ctzkmu8607dqukdapf4dlrp5hcx7zssa9xha",
      "value": 1847
    },
    {
      "scriptpubkey": "5120d5e04d46064d81bae68437bd4e570b15b7c3e9fe683966f429ab7e30d2f83785",
      "scriptpubkey_asm": "OP_PUSHNUM_1 OP_PUSHBYTES_32 d5e04d46064d81bae68437bd4e570b15b7c3e9fe683966f429ab7e30d2f83785",
      "scriptpubkey_type": "v1_p2tr",
      "scriptpubkey_address": "bc1p6hsy63sxfkqm4e5yx775u4ctzkmu8607dqukdapf4dlrp5hcx7zssa9xha",
      "value": 1847
    },
    {
      "scriptpubkey": "5120d5e04d46064d81bae68437bd4e570b15b7c3e9fe683966f429ab7e30d2f83785",
      "scriptpubkey_asm": "OP_PUSHNUM_1 OP_PUSHBYTES_32 d5e04d46064d81bae68437bd4e570b15b7c3e9fe683966f429ab7e30d2f83785",
      "scriptpubkey_type": "v1_p2tr",
      "scriptpubkey_address": "bc1p6hsy63sxfkqm4e5yx775u4ctzkmu8607dqukdapf4dlrp5hcx7zssa9xha",
      "value": 1847
    },
    {
      "scriptpubkey": "5120d5e04d46064d81bae68437bd4e570b15b7c3e9fe683966f429ab7e30d2f83785",
      "scriptpubkey_asm": "OP_PUSHNUM_1 OP_PUSHBYTES_32 d5e04d46064d81bae68437bd4e570b15b7c3e9fe683966f429ab7e30d2f83785",
      "scriptpubkey_type": "v1_p2tr",
      "scriptpubkey_address": "bc1p6hsy63sxfkqm4e5yx775u4ctzkmu8607dqukdapf4dlrp5hcx7zssa9xha",
      "value": 1847
    },
    {
      "scriptpubkey": "5120d5e04d46064d81bae68437bd4e570b15b7c3e9fe683966f429ab7e30d2f83785",
      "scriptpubkey_asm": "OP_PUSHNUM_1 OP_PUSHBYTES_32 d5e04d46064d81bae68437bd4e570b15b7c3e9fe683966f429ab7e30d2f83785",
      "scriptpubkey_type": "v1_p2tr",
      "scriptpubkey_address": "bc1p6hsy63sxfkqm4e5yx775u4ctzkmu8607dqukdapf4dlrp5hcx7zssa9xha",
      "value": 1847
    },
    {
      "scriptpubkey": "5120d5e04d46064d81bae68437bd4e570b15b7c3e9fe683966f429ab7e30d2f83785",
      "scriptpubkey_asm": "OP_PUSHNUM_1 OP_PUSHBYTES_32 d5e04d46064d81bae68437bd4e570b15b7c3e9fe683966f429ab7e30d2f83785",
      "scriptpubkey_type": "v1_p2tr",
      "scriptpubkey_address": "bc1p6hsy63sxfkqm4e5yx775u4ctzkmu8607dqukdapf4dlrp5hcx7zssa9xha",
      "value": 1847
    },
    {
      "scriptpubkey": "5120d5e04d46064d81bae68437bd4e570b15b7c3e9fe683966f429ab7e30d2f83785",
      "scriptpubkey_asm": "OP_PUSHNUM_1 OP_PUSHBYTES_32 d5e04d46064d81bae68437bd4e570b15b7c3e9fe683966f429ab7e30d2f83785",
      "scriptpubkey_type": "v1_p2tr",
      "scriptpubkey_address": "bc1p6hsy63sxfkqm4e5yx775u4ctzkmu8607dqukdapf4dlrp5hcx7zssa9xha",
      "value": 1847
    },
    {
      "scriptpubkey": "5120d5e04d46064d81bae68437bd4e570b15b7c3e9fe683966f429ab7e30d2f83785",
      "scriptpubkey_asm": "OP_PUSHNUM_1 OP_PUSHBYTES_32 d5e04d46064d81bae68437bd4e570b15b7c3e9fe683966f429ab7e30d2f83785",
      "scriptpubkey_type": "v1_p2tr",
      "scriptpubkey_address": "bc1p6hsy63sxfkqm4e5yx775u4ctzkmu8607dqukdapf4dlrp5hcx7zssa9xha",
      "value": 1847
    },
    {
      "scriptpubkey": "5120d5e04d46064d81bae68437bd4e570b15b7c3e9fe683966f429ab7e30d2f83785",
      "scriptpubkey_asm": "OP_PUSHNUM_1 OP_PUSHBYTES_32 d5e04d46064d81bae68437bd4e570b15b7c3e9fe683966f429ab7e30d2f83785",
      "scriptpubkey_type": "v1_p2tr",
      "scriptpubkey_address": "bc1p6hsy63sxfkqm4e5yx775u4ctzkmu8607dqukdapf4dlrp5hcx7zssa9xha",
      "value": 1847
    },
    {
      "scriptpubkey": "5120d5e04d46064d81bae68437bd4e570b15b7c3e9fe683966f429ab7e30d2f83785",
      "scriptpubkey_asm": "OP_PUSHNUM_1 OP_PUSHBYTES_32 d5e04d46064d81bae68437bd4e570b15b7c3e9fe683966f429ab7e30d2f83785",
      "scriptpubkey_type": "v1_p2tr",
      "scriptpubkey_address": "bc1p6hsy63sxfkqm4e5yx775u4ctzkmu8607dqukdapf4dlrp5hcx7zssa9xha",
      "value": 1847
    },
    {
      "scriptpubkey": "5120bd40bfe1f930e693f26842af15a239da9dae649413117cc379a5542de3f8bfe1",
      "scriptpubkey_asm": "OP_PUSHNUM_1 OP_PUSHBYTES_32 bd40bfe1f930e693f26842af15a239da9dae649413117cc379a5542de3f8bfe1",
      "scriptpubkey_type": "v1_p2tr",
      "scriptpubkey_address": "bc1ph4qtlc0exrnf8ungg2h3tg3em2w6uey5zvghesme542zmclchlsskadyls",
      "value": 2551900
    }
  ],
  "size": 1306,
  "weight": 4813,
  "fee": 13838,
  "status": {
    "confirmed": true,
    "block_height": 834464,
    "block_hash": "0000000000000000000177a0869a911a2b65c9bdcd5a8bcb02b68f305bee848e",
    "block_time": 1710308296
  },
  "hex": "020000000001015938f8fe2bdd38441067c98406e94e32b20516a2f49def14f772d4da2096b3d91900000000fdffffff1a3707000000000000225120d5e04d46064d81bae68437bd4e570b15b7c3e9fe683966f429ab7e30d2f837853707000000000000225120d5e04d46064d81bae68437bd4e570b15b7c3e9fe683966f429ab7e30d2f837853707000000000000225120d5e04d46064d81bae68437bd4e570b15b7c3e9fe683966f429ab7e30d2f837853707000000000000225120d5e04d46064d81bae68437bd4e570b15b7c3e9fe683966f429ab7e30d2f837853707000000000000225120d5e04d46064d81bae68437bd4e570b15b7c3e9fe683966f429ab7e30d2f837853707000000000000225120d5e04d46064d81bae68437bd4e570b15b7c3e9fe683966f429ab7e30d2f837853707000000000000225120d5e04d46064d81bae68437bd4e570b15b7c3e9fe683966f429ab7e30d2f837853707000000000000225120d5e04d46064d81bae68437bd4e570b15b7c3e9fe683966f429ab7e30d2f837853707000000000000225120d5e04d46064d81bae68437bd4e570b15b7c3e9fe683966f429ab7e30d2f837853707000000000000225120d5e04d46064d81bae68437bd4e570b15b7c3e9fe683966f429ab7e30d2f837853707000000000000225120d5e04d46064d81bae68437bd4e570b15b7c3e9fe683966f429ab7e30d2f837853707000000000000225120d5e04d46064d81bae68437bd4e570b15b7c3e9fe683966f429ab7e30d2f837853707000000000000225120d5e04d46064d81bae68437bd4e570b15b7c3e9fe683966f429ab7e30d2f837853707000000000000225120d5e04d46064d81bae68437bd4e570b15b7c3e9fe683966f429ab7e30d2f837853707000000000000225120d5e04d46064d81bae68437bd4e570b15b7c3e9fe683966f429ab7e30d2f837853707000000000000225120d5e04d46064d81bae68437bd4e570b15b7c3e9fe683966f429ab7e30d2f837853707000000000000225120d5e04d46064d81bae68437bd4e570b15b7c3e9fe683966f429ab7e30d2f837853707000000000000225120d5e04d46064d81bae68437bd4e570b15b7c3e9fe683966f429ab7e30d2f837853707000000000000225120d5e04d46064d81bae68437bd4e570b15b7c3e9fe683966f429ab7e30d2f837853707000000000000225120d5e04d46064d81bae68437bd4e570b15b7c3e9fe683966f429ab7e30d2f837853707000000000000225120d5e04d46064d81bae68437bd4e570b15b7c3e9fe683966f429ab7e30d2f837853707000000000000225120d5e04d46064d81bae68437bd4e570b15b7c3e9fe683966f429ab7e30d2f837853707000000000000225120d5e04d46064d81bae68437bd4e570b15b7c3e9fe683966f429ab7e30d2f837853707000000000000225120d5e04d46064d81bae68437bd4e570b15b7c3e9fe683966f429ab7e30d2f837853707000000000000225120d5e04d46064d81bae68437bd4e570b15b7c3e9fe683966f429ab7e30d2f837855cf0260000000000225120bd40bfe1f930e693f26842af15a239da9dae649413117cc379a5542de3f8bfe10340229f49479f31679a52c1879455391d66f0b5ef6da774840313a2b49cec9055a444fd47cdee5ad7bead50bec23414a222e3ac6e2bfc717e7552a371f26c6115912220246ed34fe13b0d17be27a5feca46c97fa96993a99de526c54bc4ee9c3ef26384ac21c1246ed34fe13b0d17be27a5feca46c97fa96993a99de526c54bc4ee9c3ef2638400000000"
}