{
  "txid": "67ecc9ed60bfbbb52b6b40f19975e6780537df358201f59099a63c9776854ca9",
  "version": 2,
  "locktime": 0,
  "vin": [
    {
      "txid": "82a1a0bfcec00e0a96cf48efac51903a9033dbf8d65d0e8326f22032526f42d8",
      "vout": 4,
      "prevout": {
        "scriptpubkey": "512055e2711e14dd304d892d5a8560ed865e136f33aad7e99867bdb338731ad2bfe3",
        "scriptpubkey_asm": "OP_PUSHNUM_1 OP_PUSHBYTES_32 55e2711e14dd304d892d5a8560ed865e136f33aad7e99867bdb338731ad2bfe3",
        "scriptpubkey_type": "v1_p2tr",
        "scriptpubkey_address": "bc1p2h38z8s5m5cymzfdt2zkpmvxtcfk7va26l5eseaakvu8xxkjhl3s8c2lp7",
        "value": 600
      },
      "scriptsig": "",
      "scriptsig_asm": "",
      "witness": [
        "8704e27e37cdc67c028511d575d7e2513825e2c23ee712d5c43781594d1cea5c54415c59aa38fb8725bdccbbf78d74d2e9b35dd351851784ae6a1f39e682b873"
      ],
      "is_coinbase": false,
      "sequence": 2147483649
    },
    {
      "txid": "82a1a0bfcec00e0a96cf48efac51903a9033dbf8d65d0e8326f22032526f42d8",
      "vout": 3,
      "prevout": {
        "scriptpubkey": "512055e2711e14dd304d892d5a8560ed865e136f33aad7e99867bdb338731ad2bfe3",
        "scriptpubkey_asm": "OP_PUSHNUM_1 OP_PUSHBYTES_32 55e2711e14dd304d892d5a8560ed865e136f33aad7e99867bdb338731ad2bfe3",
        "scriptpubkey_type": "v1_p2tr",
        "scriptpubkey_address": "bc1p2h38z8s5m5cymzfdt2zkpmvxtcfk7va26l5eseaakvu8xxkjhl3s8c2lp7",
        "value": 600
      },
      "scriptsig": "",
      "scriptsig_asm": "",
      "witness": [
        "20025f1e4f15e296f7662e850b6e12f86a8a185d23add76b0b0dd93667ae9c6df5b2952ebba8c3b35579e6b2529ecd672dfbeb2d187952526fbbadc555a618b4"
      ],
      "is_coinbase": false,
      "sequence": 2147483649
    },
    {
      "txid": "ea92fab821be7ccc50d551aa0ae7ef0a561f65609cd616fd2da0b6c456ad1506",
      "vout": 0,
      "prevout": {
        "scriptpubkey": "a914df6783319520f48bb3f5e163f3ce386e93dfe0e987",
        "scriptpubkey_asm": "OP_HASH160 OP_PUSHBYTES_20 df6783319520f48bb3f5e163f3ce386e93dfe0e9 OP_EQUAL",
        "scriptpubkey_type": "p2sh",
        "scriptpubkey_address": "3N4GcVenzhGnyQhNb233GaPitTw4M9S6bp",
        "value": 546
      },
      "scriptsig": "1600141d6bfdf8f0064f973276eba54d112c857baac3cd",
      "scriptsig_asm": "OP_PUSHBYTES_22 00141d6bfdf8f0064f973276eba54d112c857baac3cd",
      "witness": [
        "3045022100cca9932e106eec8116d8fa3c40becf2ccbb2329cc1b2b29d1f8cd2772a17b5ea02206d2750c0d86982bb1288168b57a74765a6a6bee6a0b352e9d01dc680e2b2790d83",
        "02628237ecd8d1b4a7acd498b040ce777aefe67d68e658708919f4efb60788964f"
      ],
      "is_coinbase": false,
      "sequence": 4294967295,
      "inner_redeemscript_asm": "OP_0 OP_PUSHBYTES_20 1d6bfdf8f0064f973276eba54d112c857baac3cd"
    },
    {
      "txid": "82a1a0bfcec00e0a96cf48efac51903a9033dbf8d65d0e8326f22032526f42d8",
      "vout": 5,
      "prevout": {
        "scriptpubkey": "512055e2711e14dd304d892d5a8560ed865e136f33aad7e99867bdb338731ad2bfe3",
        "scriptpubkey_asm": "OP_PUSHNUM_1 OP_PUSHBYTES_32 55e2711e14dd304d892d5a8560ed865e136f33aad7e99867bdb338731ad2bfe3",
        "scriptpubkey_type": "v1_p2tr",
        "scriptpubkey_address": "bc1p2h38z8s5m5cymzfdt2zkpmvxtcfk7va26l5eseaakvu8xxkjhl3s8c2lp7",
        "value": 235486
      },
      "scriptsig": "",
      "scriptsig_asm": "",
      "witness": [
        "2b7ed1e3cd3182b50addb77ef0956e54ade6c01abee4c94deb9fa418a9543e28185a08a3713968166ea2b22a9de7f0ea6d59b539cbf972c8115043246cc52daf"
      ],
      "is_coinbase": false,
      "sequence": 2147483649
    }
  ],
  "vout": [
    {
      "scriptpubkey": "512055e2711e14dd304d892d5a8560ed865e136f33aad7e99867bdb338731ad2bfe3",
      "scriptpubkey_asm": "OP_PUSHNUM_1 OP_PUSHBYTES_32 55e2711e14dd304d892d5a8560ed865e136f33aad7e99867bdb338731ad2bfe3",
      "scriptpubkey_type": "v1_p2tr",
      "scriptpubkey_address": "bc1p2h38z8s5m5cymzfdt2zkpmvxtcfk7va26l5eseaakvu8xxkjhl3s8c2lp7",
      "value": 1200
    },
    {
      "scriptpubkey": "512055e2711e14dd304d892d5a8560ed865e136f33aad7e99867bdb338731ad2bfe3",
      "scriptpubkey_asm": "OP_PUSHNUM_1 OP_PUSHBYTES_32 55e2711e14dd304d892d5a8560ed865e136f33aad7e99867bdb338731ad2bfe3",
      "scriptpubkey_type": "v1_p2tr",
      "scriptpubkey_address": "bc1p2h38z8s5m5cymzfdt2zkpmvxtcfk7va26l5eseaakvu8xxkjhl3s8c2lp7",
      "value": 546
    },
    {
      "scriptpubkey": "a914df6783319520f48bb3f5e163f3ce386e93dfe0e987",
      "scriptpubkey_asm": "OP_HASH160 OP_PUSHBYTES_20 df6783319520f48bb3f5e163f3ce386e93dfe0e9 OP_EQUAL",
      "scriptpubkey_type": "p2sh",
      "scriptpubkey_address": "3N4GcVenzhGnyQhNb233GaPitTw4M9S6bp",
      "value": 186500
    },
    {
      "scriptpubkey": "512055e2711e14dd304d892d5a8560ed865e136f33aad7e99867bdb338731ad2bfe3",
      "scriptpubkey_asm": "OP_PUSHNUM_1 OP_PUSHBYTES_32 55e2711e14dd304d892d5a8560ed865e136f33aad7e99867bdb338731ad2bfe3",
      "scriptpubkey_type": "v1_p2tr",
      "scriptpubkey_address": "bc1p2h38z8s5m5cymzfdt2zkpmvxtcfk7va26l5eseaakvu8xxkjhl3s8c2lp7",
      "value": 600
    },
    {
      "scriptpubkey": "512055e2711e14dd304d892d5a8560ed865e136f33aad7e99867bdb338731ad2bfe3",
      "scriptpubkey_asm": "OP_PUSHNUM_1 OP_PUSHBYTES_32 55e2711e14dd304d892d5a8560ed865e136f33aad7e99867bdb338731ad2bfe3",
      "scriptpubkey_type": "v1_p2tr",
      "scriptpubkey_address": "bc1p2h38z8s5m5cymzfdt2zkpmvxtcfk7va26l5eseaakvu8xxkjhl3s8c2lp7",
      "value": 600
    },
    {
      "scriptpubkey": "512055e2711e14dd304d892d5a8560ed865e136f33aad7e99867bdb338731ad2bfe3",
      "scriptpubkey_asm": "OP_PUSHNUM_1 OP_PUSHBYTES_32 55e2711e14dd304d892d5a8560ed865e136f33aad7e99867bdb338731ad2bfe3",
      "scriptpubkey_type": "v1_p2tr",
      "scriptpubkey_address": "bc1p2h38z8s5m5cymzfdt2zkpmvxtcfk7va26l5eseaakvu8xxkjhl3s8c2lp7",
      "value": 42055
    }
  ],
  "size": 752,
  "weight": 2084,
  "fee": 5731,
  "status": {
    "confirmed": true,
    "block_height": 834464,
    "block_hash": "0000000000000000000177a0869a911a2b65c9bdcd5a8bcb02b68f305bee848e",
    "block_time": 1710308296
  },
  "hex": "02000000000104d8426f523220f226830e5dd6f8db33903a9051acef48cf960a0ec0cebfa0a182040000000001000080d8426f523220f226830e5dd6f8db33903a9051acef48cf960a0ec0cebfa0a1820300000000010000800615ad56c4b6a02dfd16d69c60651f560aefe70aaa51d550cc7cbe21b8fa92ea00000000171600141d6bfdf8f0064f973276eba54d112c857baac3cdffffffffd8426f523220f226830e5dd6f8db33903a9051acef48cf960a0ec0cebfa0a18205000000000100008006b00400000000000022512055e2711e14dd304d892d5a8560ed865e136f33aad7e99867bdb338731ad2bfe3220200000000000022512055e2711e14dd304d892d5a8560ed865e136f33aad7e99867bdb338731ad2bfe384d802000000000017a914df6783319520f48bb3f5e163f3ce386e93dfe0e987580200000000000022512055e2711e14dd304d892d5a8560ed865e136f33aad7e99867bdb338731ad2bfe3580200000000000022512055e2711e14dd304d892d5a8560ed865e136f33aad7e99867bdb338731ad2bfe347a400000000000022512055e2711e14dd304d892d5a8560ed865e136f33aad7e99867bdb338731ad2bfe301408704e27e37cdc67c028511d575d7e2513825e2c23ee712d5c43781594d1cea5c54415c59aa38fb8725bdccbbf78d74d2e9b35dd351851784ae6a1f39e682b873014020025f1e4f15e296f7662e850b6e12f86a8a185d23add76b0b0dd93667ae9c6df5b2952ebba8c3b35579e6b2529ecd672dfbeb2d187952526fbbadc555a618b402483045022100cca9932e106eec8116d8fa3c40becf2ccbb2329cc1b2b29d1f8cd2772a17b5ea02206d2750c0d86982bb1288168b57a74765a6a6bee6a0b352e9d01dc680e2b2790d832102628237ecd8d1b4a7acd498b040ce777aefe67d68e658708919f4efb60788964f01402b7ed1e3cd3182b50addb77ef0956e54ade6c01abee4c94deb9fa418a9543e28185a08a3713968166ea2b22a9de7f0ea6d59b539cbf972c8115043246cc52daf00000000"
}