{
  "txid": "67eeef4cdc88e0fc4591ff511ccd001a0bfc13f039a49b5f4e2e5729da7205f2",
  "version": 1,
  "locktime": 0,
  "vin": [
    {
      "txid": "bfb2f2b1dac059657ca3adfe9a6ec689b0db813849e6a7fe2c58b42f8ea60396",
      "vout": 0,
      "prevout": {
        "scriptpubkey": "0014daaae0d3de9d8fdee31661e61aea828b59be7864",
        "scriptpubkey_asm": "OP_0 OP_PUSHBYTES_20 daaae0d3de9d8fdee31661e61aea828b59be7864",
        "scriptpubkey_type": "v0_p2wpkh",
        "scriptpubkey_address": "bc1qm24wp577nk8aacckv8np465z3dvmu7ry45el6y",
        "value": 2192
      },
      "scriptsig": "",
      "scriptsig_asm": "",
      "witness": [
        "3045022100a7f7e4440de9a37fd245438a37b92485ad98613451012313e391776e24954a2902203b8a94f22fefcedaea92ad258771703d730c3fd4c92be64cd5ac35b6872c443c01",
        "02fad3348b7c7d73e85a7cfe53af42b535b750419efc55c36c807f38dd0ba06edc"
      ],
      "is_coinbase": false,
      "sequence": 4294967295
    },
    {
      "txid": "9c8d02b6956b9c78ecb6090a8160faaa48e7aecfd0026fcdf533721d861436a3",
      "vout": 0,
      "prevout": {
        "scriptpubkey": "0014daaae0d3de9d8fdee31661e61aea828b59be7864",
        "scriptpubkey_asm": "OP_0 OP_PUSHBYTES_20 daaae0d3de9d8fdee31661e61aea828b59be7864",
        "scriptpubkey_type": "v0_p2wpkh",
        "scriptpubkey_address": "bc1qm24wp577nk8aacckv8np465z3dvmu7ry45el6y",
        "value": 2740
      },
      "scriptsig": "",
      "scriptsig_asm": "",
      "witness": [
        "3044022040b9a119c470695c7d10be1b42ab00117ddeacb4aa9b8f41a8250a47313cf97002207bfac63d4f39c2ec1ea9a66d3ded12c06618de64cae9ac77dc4436c0a96b6bf401",
        "02fad3348b7c7d73e85a7cfe53af42b535b750419efc55c36c807f38dd0ba06edc"
      ],
      "is_coinbase": false,
      "sequence": 4294967295
    },
    {
      "txid": "a9440b2c6e68b5253acbbc27b7f08af036e450f10ac2872f066bc98410bb8b14",
      "vout": 0,
      "prevout": {
        "scriptpubkey": "0014daaae0d3de9d8fdee31661e61aea828b59be7864",
        "scriptpubkey_asm": "OP_0 OP_PUSHBYTES_20 daaae0d3de9d8fdee31661e61aea828b59be7864",
        "scriptpubkey_type": "v0_p2wpkh",
        "scriptpubkey_address": "bc1qm24wp577nk8aacckv8np465z3dvmu7ry45el6y",
        "value": 2740
      },
      "scriptsig": "",
      "scriptsig_asm": "",
      "witness": [
        "3044022058608e6d94355990b97a4bcb65f7909a30defda805e43bded6c81458964a577402200eeeb83cbeba213c0b166876694053e3cbdc868241815b76805b27797e48ee2501",
        "02fad3348b7c7d73e85a7cfe53af42b535b750419efc55c36c807f38dd0ba06edc"
      ],
      "is_coinbase": false,
      "sequence": 4294967295
    },
    {
      "txid": "56e0e75cfc7d37f8f0cd1edf315bd83d7d6962886904dc21b6054726bfc82c8f",
      "vout": 0,
      "prevout": {
        "scriptpubkey": "0014daaae0d3de9d8fdee31661e61aea828b59be7864",
        "scriptpubkey_asm": "OP_0 OP_PUSHBYTES_20 daaae0d3de9d8fdee31661e61aea828b59be7864",
        "scriptpubkey_type": "v0_p2wpkh",
        "scriptpubkey_address": "bc1qm24wp577nk8aacckv8np465z3dvmu7ry45el6y",
        "value": 5000
      },
      "scriptsig": "",
      "scriptsig_asm": "",
      "witness": [
        "304402203383bc0122ec5a36448dde76e1f4b1f7199c3ef174da3f56a14b88dab07c7d5502207957610cb8231e8b4bb239157f977877acf5a576725a4da32d0e9757d3252d7001",
        "02fad3348b7c7d73e85a7cfe53af42b535b750419efc55c36c807f38dd0ba06edc"
      ],
      "is_coinbase": false,
      "sequence": 4294967295
    },
    {
      "txid": "120950a17c93e2b70f9d33e8223039c508626353fb2e8b57e49a1241ffc85481",
      "vout": 0,
      "prevout": {
        "scriptpubkey": "0014daaae0d3de9d8fdee31661e61aea828b59be7864",
        "scriptpubkey_asm": "OP_0 OP_PUSHBYTES_20 daaae0d3de9d8fdee31661e61aea828b59be7864",
        "scriptpubkey_type": "v0_p2wpkh",
        "scriptpubkey_address": "bc1qm24wp577nk8aacckv8np465z3dvmu7ry45el6y",
        "value": 10000
      },
      "scriptsig": "",
      "scriptsig_asm": "",
      "witness": [
        "30450221009911022ff0ee7c22ae27d6f03775cf1690fbc1cf4e470d7c36fc8b19ff21cd0202205ea1e6afa93248b36baf326de1f9a7f9eb2adb3bc6f23c042513f3fc9b9525d501",
        "02fad3348b7c7d73e85a7cfe53af42b535b750419efc55c36c807f38dd0ba06edc"
      ],
      "is_coinbase": false,
      "sequence": 4294967295
    },
    {
      "txid": "1642a132abb99cd2dbdb03f6c66f819f94e7d42c3ed6e0b86451ef3182e66c51",
      "vout": 0,
      "prevout": {
        "scriptpubkey": "0014daaae0d3de9d8fdee31661e61aea828b59be7864",
        "scriptpubkey_asm": "OP_0 OP_PUSHBYTES_20 daaae0d3de9d8fdee31661e61aea828b59be7864",
        "scriptpubkey_type": "v0_p2wpkh",
        "scriptpubkey_address": "bc1qm24wp577nk8aacckv8np465z3dvmu7ry45el6y",
        "value": 10000
      },
      "scriptsig": "",
      "scriptsig_asm": "",
      "witness": [
        "3045022100d0977820603cd2904f6ae051c8dd0c56ecb2c6c06b2ff461ee3ec40643b5398102201ffa69b493b198e9302ed2ceeabc1bd176821ef07c7bcaa6e1c78127ca24446101",
        "02fad3348b7c7d73e85a7cfe53af42b535b750419efc55c36c807f38dd0ba06edc"
      ],
      "is_coinbase": false,
      "sequence": 4294967295
    },
    {
      "txid": "bc02cdc8088e1ad917d2b34c5840754bc3188964be658a4af282d28ddfeaa8f4",
      "vout": 0,
      "prevout": {
        "scriptpubkey": "0014daaae0d3de9d8fdee31661e61aea828b59be7864",
        "scriptpubkey_asm": "OP_0 OP_PUSHBYTES_20 daaae0d3de9d8fdee31661e61aea828b59be7864",
        "scriptpubkey_type": "v0_p2wpkh",
        "scriptpubkey_address": "bc1qm24wp577nk8aacckv8np465z3dvmu7ry45el6y",
        "value": 20000
      },
      "scriptsig": "",
      "scriptsig_asm": "",
      "witness": [
        "30440220646f873bf788050492d3f124c0dece358333ed911e6eefdb0401160bd78a235b022064ea01f0526da468e17c5a30e214941838cd40d497867e3b7cd450cf76e6bf6b01",
        "02fad3348b7c7d73e85a7cfe53af42b535b750419efc55c36c807f38dd0ba06edc"
      ],
      "is_coinbase": false,
      "sequence": 4294967295
    },
    {
      "txid": "b5bd5bf7d11dc094a48dd0b09e917929be6431948040934177e767fcc10dc479",
      "vout": 0,
      "prevout": {
        "scriptpubkey": "0014daaae0d3de9d8fdee31661e61aea828b59be7864",
        "scriptpubkey_asm": "OP_0 OP_PUSHBYTES_20 daaae0d3de9d8fdee31661e61aea828b59be7864",
        "scriptpubkey_type": "v0_p2wpkh",
        "scriptpubkey_address": "bc1qm24wp577nk8aacckv8np465z3dvmu7ry45el6y",
        "value": 22000
      },
      "scriptsig": "",
      "scriptsig_asm": "",
      "witness": [
        "3045022100cc0f20fd1c1e673fc13e7f36a6cd2b6b1a035d7baca6c3459c6370929e13918702206082cfddbe8240690607d2daff8a04bd5937d3235d0374f06d7f0bbd898ab54e01",
        "02fad3348b7c7d73e85a7cfe53af42b535b750419efc55c36c807f38dd0ba06edc"
      ],
      "is_coinbase": false,
      "sequence": 4294967295
    },
    {
      "txid": "292b5a852f46f56f64955d6cd5a3e6b65d67196c3fbbf60ae4c00c293ea1c414",
      "vout": 0,
      "prevout": {
        "scriptpubkey": "0014daaae0d3de9d8fdee31661e61aea828b59be7864",
        "scriptpubkey_asm": "OP_0 OP_PUSHBYTES_20 daaae0d3de9d8fdee31661e61aea828b59be7864",
        "scriptpubkey_type": "v0_p2wpkh",
        "scriptpubkey_address": "bc1qm24wp577nk8aacckv8np465z3dvmu7ry45el6y",
        "value": 40000
      },
      "scriptsig": "",
      "scriptsig_asm": "",
      "witness": [
        "304402201f5a81d4ae374b6b6f7dd190ee4606c5c08258f1dfc4bfef5ba10f6ce2a6b1b50220782b9215532d9144645d1bcbf446b87204e3c05f4db6952884ff4fd5a54a927801",
        "02fad3348b7c7d73e85a7cfe53af42b535b750419efc55c36c807f38dd0ba06edc"
      ],
      "is_coinbase": false,
      "sequence": 4294967295
    },
    {
      "txid": "d4ffd1d0ed76bc194e2a7b06bf08e31b48ed946d4047429ab80106d5ec499217",
      "vout": 0,
      "prevout": {
        "scriptpubkey": "0014daaae0d3de9d8fdee31661e61aea828b59be7864",
        "scriptpubkey_asm": "OP_0 OP_PUSHBYTES_20 daaae0d3de9d8fdee31661e61aea828b59be7864",
        "scriptpubkey_type": "v0_p2wpkh",
        "scriptpubkey_address": "bc1qm24wp577nk8aacckv8np465z3dvmu7ry45el6y",
        "value": 54000
      },
      "scriptsig": "",
      "scriptsig_asm": "",
      "witness": [
        "30440220780ae844835eadaa3c94970a586c4d6baee332bce1a595f443bcfb6029d22f4a02202d79b14ed6b800e1672a92fd7d755f015b0a093cc43e9bca31f0ca312386230301",
        "02fad3348b7c7d73e85a7cfe53af42b535b750419efc55c36c807f38dd0ba06edc"
      ],
      "is_coinbase": false,
      "sequence": 4294967295
    },
    {
      "txid": "afef2e9c01a2f29b64fa10798638682675b2db110268db30a3cd8b4dc20c53fa",
      "vout": 0,
      "prevout": {
        "scriptpubkey": "0014daaae0d3de9d8fdee31661e61aea828b59be7864",
        "scriptpubkey_asm": "OP_0 OP_PUSHBYTES_20 daaae0d3de9d8fdee31661e61aea828b59be7864",
        "scriptpubkey_type": "v0_p2wpkh",
        "scriptpubkey_address": "bc1qm24wp577nk8aacckv8np465z3dvmu7ry45el6y",
        "value": 139000
      },
      "scriptsig": "",
      "scriptsig_asm": "",
      "witness": [
        "3045022100d9e6732ef25c049dc57c96791540b8984bda8335a8ad542afcfb280358977e5c02206dd4cb5dce5f3084563af03442b5eb777a11b332292e4af311e96ae1d85a6f8f01",
        "02fad3348b7c7d73e85a7cfe53af42b535b750419efc55c36c807f38dd0ba06edc"
      ],
      "is_coinbase": false,
      "sequence": 4294967295
    },
    {
      "txid": "a5e7291d15596b431422896964bc63efbca8de6104958eea932c7400f3982254",
      "vout": 0,
      "prevout": {
        "scriptpubkey": "0014daaae0d3de9d8fdee31661e61aea828b59be7864",
        "scriptpubkey_asm": "OP_0 OP_PUSHBYTES_20 daaae0d3de9d8fdee31661e61aea828b59be7864",
        "scriptpubkey_type": "v0_p2wpkh",
        "scriptpubkey_address": "bc1qm24wp577nk8aacckv8np465z3dvmu7ry45el6y",
        "value": 200000
      },
      "scriptsig": "",
      "scriptsig_asm": "",
      "witness": [
        "3045022100f7544b40022d62e5b4d3c4be905ebb6eb8185ccf18edf72538d9387bcb64ccb802206b04d5ff2c74713d78929f706c136c1f5aac816ce4cd9e6ee74b595da56bbf9501",
        "02fad3348b7c7d73e85a7cfe53af42b535b750419efc55c36c807f38dd0ba06edc"
      ],
      "is_coinbase": false,
      "sequence": 4294967295
    },
    {
      "txid": "bfb2f2b1dac059657ca3adfe9a6ec689b0db813849e6a7fe2c58b42f8ea60396",
      "vout": 2,
      "prevout": {
        "scriptpubkey": "0014daaae0d3de9d8fdee31661e61aea828b59be7864",
        "scriptpubkey_asm": "OP_0 OP_PUSHBYTES_20 daaae0d3de9d8fdee31661e61aea828b59be7864",
        "scriptpubkey_type": "v0_p2wpkh",
        "scriptpubkey_address": "bc1qm24wp577nk8aacckv8np465z3dvmu7ry45el6y",
        "value": 47251091
      },
      "scriptsig": "",
      "scriptsig_asm": "",
      "witness": [
        "3044022034f40e99b38a8f6504a942bb88ef6cbb67ad57f2bc648f57346d456db797c9dc022053e84abf3975f762631f782db5e90d204718737f77a3debb21bcb3c50683544e01",
        "02fad3348b7c7d73e85a7cfe53af42b535b750419efc55c36c807f38dd0ba06edc"
      ],
      "is_coinbase": false,
      "sequence": 4294967295
    }
  ],
  "vout": [
    {
      "scriptpubkey": "0014daaae0d3de9d8fdee31661e61aea828b59be7864",
      "scriptpubkey_asm": "OP_0 OP_PUSHBYTES_20 daaae0d3de9d8fdee31661e61aea828b59be7864",
      "scriptpubkey_type": "v0_p2wpkh",
      "scriptpubkey_address": "bc1qm24wp577nk8aacckv8np465z3dvmu7ry45el6y",
      "value": 2193
    },
    {
      "scriptpubkey": "00147e4b59a1f68db2b9ed80c9eecfde2703613a17aa",
      "scriptpubkey_asm": "OP_0 OP_PUSHBYTES_20 7e4b59a1f68db2b9ed80c9eecfde2703613a17aa",
      "scriptpubkey_type": "v0_p2wpkh",
      "scriptpubkey_address": "bc1q0e94ng0k3ketnmvqe8hvlh38qdsn59a2ptafkn",
      "value": 43777068
    },
    {
      "scriptpubkey": "0014daaae0d3de9d8fdee31661e61aea828b59be7864",
      "scriptpubkey_asm": "OP_0 OP_PUSHBYTES_20 daaae0d3de9d8fdee31661e61aea828b59be7864",
      "scriptpubkey_type": "v0_p2wpkh",
      "scriptpubkey_address": "bc1qm24wp577nk8aacckv8np465z3dvmu7ry45el6y",
      "value": 3952853
    }
  ],
  "size": 2035,
  "weight": 3943,
  "fee": 26649,
  "status": {
    "confirmed": true,
    "block_height": 834638,
    "block_hash": "000000000000000000025f742c626208ac87e0b7d15054abb4a19ca2d735a54e",
    "block_time": 1710405325
  },
  "hex": "0100000000010d9603a68e2fb4582cfea7e6493881dbb089c66e9afeada37c6559c0dab1f2b2bf0000000000ffffffffa33614861d7233f5cd6f02d0cfaee748aafa60810a09b6ec789c6b95b6028d9c0000000000ffffffff148bbb1084c96b062f87c20af150e436f08af0b727bccb3a25b5686e2c0b44a90000000000ffffffff8f2cc8bf264705b621dc04698862697d3dd85b31df1ecdf0f8377dfc5ce7e0560000000000ffffffff8154c8ff41129ae4578b2efb53636208c5393022e8339d0fb7e2937ca15009120000000000ffffffff516ce68231ef5164b8e0d63e2cd4e7949f816fc6f603dbdbd29cb9ab32a142160000000000fffffffff4a8eadf8dd282f24a8a65be648918c34b7540584cb3d217d91a8e08c8cd02bc0000000000ffffffff79c40dc1fc67e77741934080943164be2979919eb0d08da494c01dd1f75bbdb50000000000ffffffff14c4a13e290cc0e40af6bb3f6c19675db6e6a3d56c5d95646ff5462f855a2b290000000000ffffffff179249ecd50601b89a4247406d94ed481be308bf067b2a4e19bc76edd0d1ffd40000000000fffffffffa530cc24d8bcda330db680211dbb275266838867910fa649bf2a2019c2eefaf0000000000ffffffff542298f300742c93ea8e950461dea8bcef63bc6469892214436b59151d29e7a50000000000ffffffff9603a68e2fb4582cfea7e6493881dbb089c66e9afeada37c6559c0dab1f2b2bf0200000000ffffffff039108000000000000160014daaae0d3de9d8fdee31661e61aea828b59be78642cfc9b02000000001600147e4b59a1f68db2b9ed80c9eecfde2703613a17aad5503c0000000000160014daaae0d3de9d8fdee31661e61aea828b59be786402483045022100a7f7e4440de9a37fd245438a37b92485ad98613451012313e391776e24954a2902203b8a94f22fefcedaea92ad258771703d730c3fd4c92be64cd5ac35b6872c443c012102fad3348b7c7d73e85a7cfe53af42b535b750419efc55c36c807f38dd0ba06edc02473044022040b9a119c470695c7d10be1b42ab00117ddeacb4aa9b8f41a8250a47313cf97002207bfac63d4f39c2ec1ea9a66d3ded12c06618de64cae9ac77dc4436c0a96b6bf4012102fad3348b7c7d73e85a7cfe53af42b535b750419efc55c36c807f38dd0ba06edc02473044022058608e6d94355990b97a4bcb65f7909a30defda805e43bded6c81458964a577402200eeeb83cbeba213c0b166876694053e3cbdc868241815b76805b27797e48ee25012102fad3348b7c7d73e85a7cfe53af42b535b750419efc55c36c807f38dd0ba06edc0247304402203383bc0122ec5a36448dde76e1f4b1f7199c3ef174da3f56a14b88dab07c7d5502207957610cb8231e8b4bb239157f977877acf5a576725a4da32d0e9757d3252d70012102fad3348b7c7d73e85a7cfe53af42b535b750419efc55c36c807f38dd0ba06edc024830450221009911022ff0ee7c22ae27d6f03775cf1690fbc1cf4e470d7c36fc8b19ff21cd0202205ea1e6afa93248b36baf326de1f9a7f9eb2adb3bc6f23c042513f3fc9b9525d5012102fad3348b7c7d73e85a7cfe53af42b535b750419efc55c36c807f38dd0ba06edc02483045022100d0977820603cd2904f6ae051c8dd0c56ecb2c6c06b2ff461ee3ec40643b5398102201ffa69b493b198e9302ed2ceeabc1bd176821ef07c7bcaa6e1c78127ca244461012102fad3348b7c7d73e85a7cfe53af42b535b750419efc55c36c807f38dd0ba06edc024730440220646f873bf788050492d3f124c0dece358333ed911e6eefdb0401160bd78a235b022064ea01f0526da468e17c5a30e214941838cd40d497867e3b7cd450cf76e6bf6b012102fad3348b7c7d73e85a7cfe53af42b535b750419efc55c36c807f38dd0ba06edc02483045022100cc0f20fd1c1e673fc13e7f36a6cd2b6b1a035d7baca6c3459c6370929e13918702206082cfddbe8240690607d2daff8a04bd5937d3235d0374f06d7f0bbd898ab54e012102fad3348b7c7d73e85a7cfe53af42b535b750419efc55c36c807f38dd0ba06edc0247304402201f5a81d4ae374b6b6f7dd190ee4606c5c08258f1dfc4bfef5ba10f6ce2a6b1b50220782b9215532d9144645d1bcbf446b87204e3c05f4db6952884ff4fd5a54a9278012102fad3348b7c7d73e85a7cfe53af42b535b750419efc55c36c807f38dd0ba06edc024730440220780ae844835eadaa3c94970a586c4d6baee332bce1a595f443bcfb6029d22f4a02202d79b14ed6b800e1672a92fd7d755f015b0a093cc43e9bca31f0ca3123862303012102fad3348b7c7d73e85a7cfe53af42b535b750419efc55c36c807f38dd0ba06edc02483045022100d9e6732ef25c049dc57c96791540b8984bda8335a8ad542afcfb280358977e5c02206dd4cb5dce5f3084563af03442b5eb777a11b332292e4af311e96ae1d85a6f8f012102fad3348b7c7d73e85a7cfe53af42b535b750419efc55c36c807f38dd0ba06edc02483045022100f7544b40022d62e5b4d3c4be905ebb6eb8185ccf18edf72538d9387bcb64ccb802206b04d5ff2c74713d78929f706c136c1f5aac816ce4cd9e6ee74b595da56bbf95012102fad3348b7c7d73e85a7cfe53af42b535b750419efc55c36c807f38dd0ba06edc02473044022034f40e99b38a8f6504a942bb88ef6cbb67ad57f2bc648f57346d456db797c9dc022053e84abf3975f762631f782db5e90d204718737f77a3debb21bcb3c50683544e012102fad3348b7c7d73e85a7cfe53af42b535b750419efc55c36c807f38dd0ba06edc00000000"
}