{
  "txid": "67f75a12b2c2b1cb3f667d22f93253005f739b82e08508c4b7d9f25ea4eeea8b",
  "version": 1,
  "locktime": 0,
  "vin": [
    {
      "txid": "ad7cdfd933ea34ce51d25f9b58c77ccf8028f97b7fccbe855b68375cee45a04e",
      "vout": 0,
      "prevout": {
        "scriptpubkey": "76a91400a40acd35db62ec1ac17dc8cbe5ba3dd86aa5bd88ac",
        "scriptpubkey_asm": "OP_DUP OP_HASH160 OP_PUSHBYTES_20 00a40acd35db62ec1ac17dc8cbe5ba3dd86aa5bd OP_EQUALVERIFY OP_CHECKSIG",
        "scriptpubkey_type": "p2pkh",
        "scriptpubkey_address": "114PWrPFE8kMyrXW3jYFMZM83f7RC2Y7zb",
        "value": 185606341
      },
      "scriptsig": "483045022100df0789fb136432d59bbd96da48cb60c1a43a789cf746f4f67fa52a2e98412bd20220030dfded63bcda9b55018fed2b0f456e1ba9e15d7ea733768a04240e5ae151c401210397c3940595cb6d810ea8b7cbae05147859e1f5643fcde9d1eb885422b4a9c483",
      "scriptsig_asm": "OP_PUSHBYTES_72 3045022100df0789fb136432d59bbd96da48cb60c1a43a789cf746f4f67fa52a2e98412bd20220030dfded63bcda9b55018fed2b0f456e1ba9e15d7ea733768a04240e5ae151c401 OP_PUSHBYTES_33 0397c3940595cb6d810ea8b7cbae05147859e1f5643fcde9d1eb885422b4a9c483",
      "is_coinbase": false,
      "sequence": 4294967295
    }
  ],
  "vout": [
    {
      "scriptpubkey": "76a91400a40acd35db62ec1ac17dc8cbe5ba3dd86aa5bd88ac",
      "scriptpubkey_asm": "OP_DUP OP_HASH160 OP_PUSHBYTES_20 00a40acd35db62ec1ac17dc8cbe5ba3dd86aa5bd OP_EQUALVERIFY OP_CHECKSIG",
      "scriptpubkey_type": "p2pkh",
      "scriptpubkey_address": "114PWrPFE8kMyrXW3jYFMZM83f7RC2Y7zb",
      "value": 185449265
    },
    {
      "scriptpubkey": "a914dd97018562eba05d21a80c7936c8a96adc8a47cf87",
      "scriptpubkey_asm": "OP_HASH160 OP_PUSHBYTES_20 dd97018562eba05d21a80c7936c8a96adc8a47cf OP_EQUAL",
      "scriptpubkey_type": "p2sh",
      "scriptpubkey_address": "3MtgA1pqA476mwYA1RKMhVVVShjSMJZ8Yn",
      "value": 151700
    }
  ],
  "size": 224,
  "weight": 896,
  "fee": 5376,
  "status": {
    "confirmed": true,
    "block_height": 834638,
    "block_hash": "000000000000000000025f742c626208ac87e0b7d15054abb4a19ca2d735a54e",
    "block_time": 1710405325
  },
  "hex": "01000000014ea045ee5c37685b85becc7f7bf92880cf7cc7589b5fd251ce34ea33d9df7cad000000006b483045022100df0789fb136432d59bbd96da48cb60c1a43a789cf746f4f67fa52a2e98412bd20220030dfded63bcda9b55018fed2b0f456e1ba9e15d7ea733768a04240e5ae151c401210397c3940595cb6d810ea8b7cbae05147859e1f5643fcde9d1eb885422b4a9c483ffffffff0231bb0d0b000000001976a91400a40acd35db62ec1ac17dc8cbe5ba3dd86aa5bd88ac945002000000000017a914dd97018562eba05d21a80c7936c8a96adc8a47cf8700000000"
}