{
  "txid": "6802224d6bc1c75b4229406e599a07ae4eb6d51edb699b184982b5eb4d381bb9",
  "version": 2,
  "locktime": 0,
  "vin": [
    {
      "txid": "e80f7770bf7e9172a2746b6db7878e71317fcdf4247487c741e22e22e90813b3",
      "vout": 1,
      "prevout": {
        "scriptpubkey": "5120775bf789769b1afe9054f1c643314dc9f01dc1c9106a1c1b9584a658f430f98e",
        "scriptpubkey_asm": "OP_PUSHNUM_1 OP_PUSHBYTES_32 775bf789769b1afe9054f1c643314dc9f01dc1c9106a1c1b9584a658f430f98e",
        "scriptpubkey_type": "v1_p2tr",
        "scriptpubkey_address": "bc1pwadl0ztknvd0ayz578ryxv2de8cpmswfzp4pcxu4sjn93apslx8q8vfrf0",
        "value": 1610183
      },
      "scriptsig": "",
      "scriptsig_asm": "",
      "witness": [
        "f3b7e966c194b0a3ce76d5a63c9ebd0b41a678392caf59035efc9714fcb9ec61fc077f20ec2aef467643a1f7ac0f0dc8dd3ad6cfad95195dfabb6c8d14c14336"
      ],
      "is_coinbase": false,
      "sequence": 4294967295
    },
    {
      "txid": "b8a30fad7b625d07bcaeaa3a302488fd11b13f12eb2fd3aeee2956ec41176d31",
      "vout": 2,
      "prevout": {
        "scriptpubkey": "5120775bf789769b1afe9054f1c643314dc9f01dc1c9106a1c1b9584a658f430f98e",
        "scriptpubkey_asm": "OP_PUSHNUM_1 OP_PUSHBYTES_32 775bf789769b1afe9054f1c643314dc9f01dc1c9106a1c1b9584a658f430f98e",
        "scriptpubkey_type": "v1_p2tr",
        "scriptpubkey_address": "bc1pwadl0ztknvd0ayz578ryxv2de8cpmswfzp4pcxu4sjn93apslx8q8vfrf0",
        "value": 50000
      },
      "scriptsig": "",
      "scriptsig_asm": "",
      "witness": [
        "29f73061621faf800f1f7ed188d6c7b2b82403aed27a7c5e047d039318e88b6168b6548c005000a9d852178173308a9edacfc00108571dea033553798ef3eee7"
      ],
      "is_coinbase": false,
      "sequence": 4294967295
    }
  ],
  "vout": [
    {
      "scriptpubkey": "76a914d334967b3e4d0cc2545f7d0fb71000b5ca61a4fc88ac",
      "scriptpubkey_asm": "OP_DUP OP_HASH160 OP_PUSHBYTES_20 d334967b3e4d0cc2545f7d0fb71000b5ca61a4fc OP_EQUALVERIFY OP_CHECKSIG",
      "scriptpubkey_type": "p2pkh",
      "scriptpubkey_address": "1LFkaLq4VePKTNdySsgqgitaT1CNaHUgKC",
      "value": 1657463
    }
  ],
  "size": 260,
  "weight": 638,
  "fee": 2720,
  "status": {
    "confirmed": true,
    "block_height": 834638,
    "block_hash": "000000000000000000025f742c626208ac87e0b7d15054abb4a19ca2d735a54e",
    "block_time": 1710405325
  },
  "hex": "02000000000102b31308e9222ee241c7877424f4cd7f31718e87b76d6b74a272917ebf70770fe80100000000ffffffff316d1741ec5629eeaed32feb123fb111fd8824303aaaaebc075d627bad0fa3b80200000000ffffffff01774a1900000000001976a914d334967b3e4d0cc2545f7d0fb71000b5ca61a4fc88ac0140f3b7e966c194b0a3ce76d5a63c9ebd0b41a678392caf59035efc9714fcb9ec61fc077f20ec2aef467643a1f7ac0f0dc8dd3ad6cfad95195dfabb6c8d14c14336014029f73061621faf800f1f7ed188d6c7b2b82403aed27a7c5e047d039318e88b6168b6548c005000a9d852178173308a9edacfc00108571dea033553798ef3eee700000000"
}