{
  "txid": "6826447d8e5b6bd451e5db6eda17f23ed74c7e75a75ab793fccfbc1913b677d1",
  "version": 2,
  "locktime": 834421,
  "vin": [
    {
      "txid": "d8fdfbf2ae3bfa03a5e310fe4a1536ac484feb9540999aaf10ae0f8fb2a5bf2a",
      "vout": 88,
      "prevout": {
        "scriptpubkey": "001448b2cf6ab34a93d8827cfc960a65e112692e891f",
        "scriptpubkey_asm": "OP_0 OP_PUSHBYTES_20 48b2cf6ab34a93d8827cfc960a65e112692e891f",
        "scriptpubkey_type": "v0_p2wpkh",
        "scriptpubkey_address": "bc1qfzev764nf2fa3qnuljtq5e0pzf5jazglnu6qwg",
        "value": 349879
      },
      "scriptsig": "",
      "scriptsig_asm": "",
      "witness": [
        "304402201a858a0b21c5ceeb7654292a030a81ff767e84932c2d6c3dcbcdd6f1c62d131e022040ff4d151e523f5cd3d1427cdd32a18987127f510f1cb4bdd446e7cd27b93d8001",
        "03036c30688005f90f61e87d939c77a80a579a4a8888be463e770ec487a6222b3f"
      ],
      "is_coinbase": false,
      "sequence": 4294967293
    },
    {
      "txid": "0cef1582c2af9ca4f5eb32d727754998e61a5449005a01b982211dd80066e673",
      "vout": 16,
      "prevout": {
        "scriptpubkey": "0014231f3288a0f02858e45dfa0356058c7855122bdd",
        "scriptpubkey_asm": "OP_0 OP_PUSHBYTES_20 231f3288a0f02858e45dfa0356058c7855122bdd",
        "scriptpubkey_type": "v0_p2wpkh",
        "scriptpubkey_address": "bc1qyv0n9z9q7q593ezalgp4vpvv0p23y27ayegp7s",
        "value": 341467
      },
      "scriptsig": "",
      "scriptsig_asm": "",
      "witness": [
        "304402204cf858fdd7aa1db3b7deb8a39ec8a750ab29d6111c9ca28210798cf0f9353a8b022071afa858bb2dec0ed4d07321c1435bca5780914b89e489c8a86134fb9b9adfed01",
        "025341d25cbaef938e732dbcbfbc3c9189be1f7c7d1f5800eac48bf1772902a2fa"
      ],
      "is_coinbase": false,
      "sequence": 4294967293
    },
    {
      "txid": "511cc8e2416eeb5c0ab028b0d1a47c3a0d7a3e6cbe0106b6d837bbd22b223382",
      "vout": 94,
      "prevout": {
        "scriptpubkey": "00142e307787892b5dd8ac67e790c55731672344048a",
        "scriptpubkey_asm": "OP_0 OP_PUSHBYTES_20 2e307787892b5dd8ac67e790c55731672344048a",
        "scriptpubkey_type": "v0_p2wpkh",
        "scriptpubkey_address": "bc1q9cc80puf9dwa3tr8u7gv24e3vu35gpy22gka9j",
        "value": 135000
      },
      "scriptsig": "",
      "scriptsig_asm": "",
      "witness": [
        "304402200265b131bc871a8d403de9e5be40ebdfa51f5e170ed1df973e0d812acab686b2022058956a3b54125a46bb8279bc412b0108e098f981af3ce17de5b1a99f122ca51e01",
        "03e395fc8c4b8f7abc95df6a32bc841181c85d5ec0584490610cc934dbb4f96181"
      ],
      "is_coinbase": false,
      "sequence": 4294967293
    },
    {
      "txid": "cf2b943528df1e3086d30de03419d3de93fd68ceb429a297fcd4ea3ef6206cef",
      "vout": 23,
      "prevout": {
        "scriptpubkey": "00145db9a2ac66c3133ac8c85aa3f4a516d420dda883",
        "scriptpubkey_asm": "OP_0 OP_PUSHBYTES_20 5db9a2ac66c3133ac8c85aa3f4a516d420dda883",
        "scriptpubkey_type": "v0_p2wpkh",
        "scriptpubkey_address": "bc1qtku69trxcvfn4jxgt23lffgk6ssdm2yrjqqfjf",
        "value": 1010282
      },
      "scriptsig": "",
      "scriptsig_asm": "",
      "witness": [
        "304402200dc18b422054dbc5085bb4fbe8ccbd9ec7d489e92ab5136ce682107dd27e7b150220644d8888e404817a980ffc22721c3638cd94cd432013fff7db44404dae667ec001",
        "03ce93b1b65c11d9a8dbd44bcc6f8026f261e7895efccf51d931b2e9c1debcc6db"
      ],
      "is_coinbase": false,
      "sequence": 4294967293
    },
    {
      "txid": "1e19fbafa184b45d891e790b564392f205ab4c44702216beb5ebf6b1b0b9c0e2",
      "vout": 42,
      "prevout": {
        "scriptpubkey": "00146f55f2e04798e8ac3137ac8e89d5c79578df072d",
        "scriptpubkey_asm": "OP_0 OP_PUSHBYTES_20 6f55f2e04798e8ac3137ac8e89d5c79578df072d",
        "scriptpubkey_type": "v0_p2wpkh",
        "scriptpubkey_address": "bc1qda2l9cz8nr52cvfh4j8gn4w8j4ud7ped47jepv",
        "value": 345649
      },
      "scriptsig": "",
      "scriptsig_asm": "",
      "witness": [
        "30440220256c50d058662bba96294162eafa9c12c5a5a28bd2d3dc3996b9a3de7763926e022010dce5765b8961a7ed4c7363f462c1217c9c90523241cf49ca45abab118bd69001",
        "03d6194f919cfaccb1238f2961fcd691f187809f3f6f81fa1a730220ed0573f072"
      ],
      "is_coinbase": false,
      "sequence": 4294967293
    }
  ],
  "vout": [
    {
      "scriptpubkey": "00142c1b0769955ab5a852b27b94164218417f3af6b3",
      "scriptpubkey_asm": "OP_0 OP_PUSHBYTES_20 2c1b0769955ab5a852b27b94164218417f3af6b3",
      "scriptpubkey_type": "v0_p2wpkh",
      "scriptpubkey_address": "bc1q9sdsw6v4t266s54j0w2pvsscg9ln4a4nsl22lp",
      "value": 1177313
    },
    {
      "scriptpubkey": "0014c2fe48fc4ceb54c3cb5017a1fb48d97933760303",
      "scriptpubkey_asm": "OP_0 OP_PUSHBYTES_20 c2fe48fc4ceb54c3cb5017a1fb48d97933760303",
      "scriptpubkey_type": "v0_p2wpkh",
      "scriptpubkey_address": "bc1qctly3lzvad2v8j6sz7slkjxe0yehvqcrkr4ya5",
      "value": 1000008
    }
  ],
  "size": 814,
  "weight": 1645,
  "fee": 4956,
  "status": {
    "confirmed": true,
    "block_height": 834460,
    "block_hash": "00000000000000000000484a79b643b2524bbce82e5d8a442013fa5b8905ed98",
    "block_time": 1710307468
  },
  "hex": "020000000001052abfa5b28f0fae10af9a994095eb4f48ac36154afe10e3a503fa3baef2fbfdd85800000000fdffffff73e66600d81d2182b9015a0049541ae698497527d732ebf5a49cafc28215ef0c1000000000fdffffff8233222bd2bb37d8b60601be6c3e7a0d3a7ca4d1b028b00a5ceb6e41e2c81c515e00000000fdffffffef6c20f63eead4fc97a229b4ce68fd93ded31934e00dd386301edf2835942bcf1700000000fdffffffe2c0b9b0b1f6ebb5be162270444cab05f29243560b791e895db484a1affb191e2a00000000fdffffff02e1f61100000000001600142c1b0769955ab5a852b27b94164218417f3af6b348420f0000000000160014c2fe48fc4ceb54c3cb5017a1fb48d979337603030247304402201a858a0b21c5ceeb7654292a030a81ff767e84932c2d6c3dcbcdd6f1c62d131e022040ff4d151e523f5cd3d1427cdd32a18987127f510f1cb4bdd446e7cd27b93d80012103036c30688005f90f61e87d939c77a80a579a4a8888be463e770ec487a6222b3f0247304402204cf858fdd7aa1db3b7deb8a39ec8a750ab29d6111c9ca28210798cf0f9353a8b022071afa858bb2dec0ed4d07321c1435bca5780914b89e489c8a86134fb9b9adfed0121025341d25cbaef938e732dbcbfbc3c9189be1f7c7d1f5800eac48bf1772902a2fa0247304402200265b131bc871a8d403de9e5be40ebdfa51f5e170ed1df973e0d812acab686b2022058956a3b54125a46bb8279bc412b0108e098f981af3ce17de5b1a99f122ca51e012103e395fc8c4b8f7abc95df6a32bc841181c85d5ec0584490610cc934dbb4f961810247304402200dc18b422054dbc5085bb4fbe8ccbd9ec7d489e92ab5136ce682107dd27e7b150220644d8888e404817a980ffc22721c3638cd94cd432013fff7db44404dae667ec0012103ce93b1b65c11d9a8dbd44bcc6f8026f261e7895efccf51d931b2e9c1debcc6db024730440220256c50d058662bba96294162eafa9c12c5a5a28bd2d3dc3996b9a3de7763926e022010dce5765b8961a7ed4c7363f462c1217c9c90523241cf49ca45abab118bd690012103d6194f919cfaccb1238f2961fcd691f187809f3f6f81fa1a730220ed0573f07275bb0c00"
}