{
  "txid": "682bae293ba9e865e42186455b07c1f9000480cf4f83e9a0639c4327bd557446",
  "version": 1,
  "locktime": 0,
  "vin": [
    {
      "txid": "1a86f63c08bf053cc02d0bc8b3e8e8fb68fc3d25498d2b097774c70831a1fd6f",
      "vout": 3,
      "prevout": {
        "scriptpubkey": "0014176bbe7ad1f02aa813f5627af8c3a52339c80cb2",
        "scriptpubkey_asm": "OP_0 OP_PUSHBYTES_20 176bbe7ad1f02aa813f5627af8c3a52339c80cb2",
        "scriptpubkey_type": "v0_p2wpkh",
        "scriptpubkey_address": "bc1qza4mu7k37q42syl4vfa03sa9yvuusr9jqjtag2",
        "value": 568458
      },
      "scriptsig": "",
      "scriptsig_asm": "",
      "witness": [
        "3045022100bf2780c42fec31258d39258a07f8b785f7d349fb3669effd21f334371f063e7702202af446f30eaeb247468f4cb38a6736cd517bd2145ded435171120ac1fe08cedb01",
        "0237452828ed4a08abc4f9b21695bb232e7e056d5c0924c33e1d44dfdd8fdd06ae"
      ],
      "is_coinbase": false,
      "sequence": 4294967293
    }
  ],
  "vout": [
    {
      "scriptpubkey": "512065aade5b77c67f7b63076da62d9250ad1b7b066b7f002d0bcf1c46e48d377c46",
      "scriptpubkey_asm": "OP_PUSHNUM_1 OP_PUSHBYTES_32 65aade5b77c67f7b63076da62d9250ad1b7b066b7f002d0bcf1c46e48d377c46",
      "scriptpubkey_type": "v1_p2tr",
      "scriptpubkey_address": "bc1pvk4dukmhcelhkcc8dknzmyjs45dhkpnt0uqz6z70r3rwfrfh03rq5n9wdw",
      "value": 2866
    },
    {
      "scriptpubkey": "0014176bbe7ad1f02aa813f5627af8c3a52339c80cb2",
      "scriptpubkey_asm": "OP_0 OP_PUSHBYTES_20 176bbe7ad1f02aa813f5627af8c3a52339c80cb2",
      "scriptpubkey_type": "v0_p2wpkh",
      "scriptpubkey_address": "bc1qza4mu7k37q42syl4vfa03sa9yvuusr9jqjtag2",
      "value": 563112
    }
  ],
  "size": 235,
  "weight": 610,
  "fee": 2480,
  "status": {
    "confirmed": true,
    "block_height": 834638,
    "block_hash": "000000000000000000025f742c626208ac87e0b7d15054abb4a19ca2d735a54e",
    "block_time": 1710405325
  },
  "hex": "010000000001016ffda13108c77477092b8d49253dfc68fbe8e8b3c80b2dc03c05bf083cf6861a0300000000fdffffff02320b00000000000022512065aade5b77c67f7b63076da62d9250ad1b7b066b7f002d0bcf1c46e48d377c46a897080000000000160014176bbe7ad1f02aa813f5627af8c3a52339c80cb202483045022100bf2780c42fec31258d39258a07f8b785f7d349fb3669effd21f334371f063e7702202af446f30eaeb247468f4cb38a6736cd517bd2145ded435171120ac1fe08cedb01210237452828ed4a08abc4f9b21695bb232e7e056d5c0924c33e1d44dfdd8fdd06ae00000000"
}