{
  "txid": "684729bc71675324826e7cdeacd85c75b98c447dd2dcd2903a8d6c3c9d793ef8",
  "version": 2,
  "locktime": 0,
  "vin": [
    {
      "txid": "945ba8d4ae757dce36cd5e5b9cb282a5396c6e6972016ea5d78f63b2e8fe9e52",
      "vout": 23,
      "prevout": {
        "scriptpubkey": "51205401a1dd71111bf782e5f594ab9d61f72e657c0ffa20f61918aa0adf5c5a1027",
        "scriptpubkey_asm": "OP_PUSHNUM_1 OP_PUSHBYTES_32 5401a1dd71111bf782e5f594ab9d61f72e657c0ffa20f61918aa0adf5c5a1027",
        "scriptpubkey_type": "v1_p2tr",
        "scriptpubkey_address": "bc1p2sq6rht3zydl0qh97k22h8tp7uhx2lq0lgs0vxgc4g9d7hz6zqns7wy495",
        "value": 2862
      },
      "scriptsig": "",
      "scriptsig_asm": "",
      "witness": [
        "152c485b8e1006a5f8b874159b484fc488f6587ae6ab146e9d90ad909c1b3c2c8c87fb7a2dd85512d3997bfab458f419a348e45f51f375bf8708b77e83fd20bd",
        "208a63cb636ba150176fa4cd5bf97145b5a423f880d72abd652dfff14f11809329ac0063036f726401011e6170706c69636174696f6e2f6a736f6e3b636861727365743d7574662d38004cd37b2270223a22706f772d3230222c226f70223a226d696e74222c227469636b223a2250455045222c22616d74223a2231303030222c22736f6c7574696f6e223a22504550453a62633170367a67656779647861737432786571616535763930396434396a323636786e707a6178776634386336786b736871703766797a717734733761663a303030303030303030303030303030303030303139393431613561653132383937363539383134343239323533333030353762306461393666336465613163353a3330323837353034323432227d68",
        "c15067337a99a00666fd957e65b5c212a7b30f6b410af3fccba2d4635da920c85e"
      ],
      "is_coinbase": false,
      "sequence": 4294967295
    }
  ],
  "vout": [
    {
      "scriptpubkey": "5120d0919411a6ec16a3641dcd185795b52c95ad1a61174ce4d4f8d1ad0b803e4904",
      "scriptpubkey_asm": "OP_PUSHNUM_1 OP_PUSHBYTES_32 d0919411a6ec16a3641dcd185795b52c95ad1a61174ce4d4f8d1ad0b803e4904",
      "scriptpubkey_type": "v1_p2tr",
      "scriptpubkey_address": "bc1p6zgegydxast2xeqae5v909d49j266xnpzaxwf48c6xkshqp7fyzqw4s7af",
      "value": 546
    }
  ],
  "size": 487,
  "weight": 769,
  "fee": 2316,
  "status": {
    "confirmed": true,
    "block_height": 834460,
    "block_hash": "00000000000000000000484a79b643b2524bbce82e5d8a442013fa5b8905ed98",
    "block_time": 1710307468
  },
  "hex": "02000000000101529efee8b2638fd7a56e0172696e6c39a582b29c5b5ecd36ce7d75aed4a85b941700000000ffffffff012202000000000000225120d0919411a6ec16a3641dcd185795b52c95ad1a61174ce4d4f8d1ad0b803e49040340152c485b8e1006a5f8b874159b484fc488f6587ae6ab146e9d90ad909c1b3c2c8c87fb7a2dd85512d3997bfab458f419a348e45f51f375bf8708b77e83fd20bdfd2001208a63cb636ba150176fa4cd5bf97145b5a423f880d72abd652dfff14f11809329ac0063036f726401011e6170706c69636174696f6e2f6a736f6e3b636861727365743d7574662d38004cd37b2270223a22706f772d3230222c226f70223a226d696e74222c227469636b223a2250455045222c22616d74223a2231303030222c22736f6c7574696f6e223a22504550453a62633170367a67656779647861737432786571616535763930396434396a323636786e707a6178776634386336786b736871703766797a717734733761663a303030303030303030303030303030303030303139393431613561653132383937363539383134343239323533333030353762306461393666336465613163353a3330323837353034323432227d6821c15067337a99a00666fd957e65b5c212a7b30f6b410af3fccba2d4635da920c85e00000000"
}