{
  "txid": "685bd9a78f0e4c931d5c2bc64811713395af006a61bbb70f682e6760d2ad1e2d",
  "version": 2,
  "locktime": 0,
  "vin": [
    {
      "txid": "7c755b074166fcd10b676937c28f6aac595c20ec82e0e77e9ac8f2d6825a1f6a",
      "vout": 0,
      "prevout": {
        "scriptpubkey": "00149d27fa3fdaa50e01c0a89ce7ce5e9c966de15725",
        "scriptpubkey_asm": "OP_0 OP_PUSHBYTES_20 9d27fa3fdaa50e01c0a89ce7ce5e9c966de15725",
        "scriptpubkey_type": "v0_p2wpkh",
        "scriptpubkey_address": "bc1qn5nl5076558qrs9gnnnuuh5ujek7z4e9xvdrrf",
        "value": 156043
      },
      "scriptsig": "",
      "scriptsig_asm": "",
      "witness": [
        "3044022063827250dddcba2def5d576e4da121786a9538a022edd4b0d01dc1d584c2bb2b0220194c62005077d344e2cf0286b8d28e6272c2a909bc4b768617359479a38e68dd01",
        "02529184423be07e3a55e18f8d32a9cd902a78750043885ac96637024f1e805d32"
      ],
      "is_coinbase": false,
      "sequence": 4294967293
    }
  ],
  "vout": [
    {
      "scriptpubkey": "a914359104750293d8d4c43232d16fa8363de9c4139f87",
      "scriptpubkey_asm": "OP_HASH160 OP_PUSHBYTES_20 359104750293d8d4c43232d16fa8363de9c4139f OP_EQUAL",
      "scriptpubkey_type": "p2sh",
      "scriptpubkey_address": "36aFThPFeic73AbnnAWEZXC4iTC9TNfUT1",
      "value": 14324
    },
    {
      "scriptpubkey": "0014be68efca556ee1aafb032485db2b8cb3295dad19",
      "scriptpubkey_asm": "OP_0 OP_PUSHBYTES_20 be68efca556ee1aafb032485db2b8cb3295dad19",
      "scriptpubkey_type": "v0_p2wpkh",
      "scriptpubkey_address": "bc1qhe5wljj4dms647cryjzak2uvkv54mtgehes4fe",
      "value": 139148
    }
  ],
  "size": 223,
  "weight": 565,
  "fee": 2571,
  "status": {
    "confirmed": true,
    "block_height": 834638,
    "block_hash": "000000000000000000025f742c626208ac87e0b7d15054abb4a19ca2d735a54e",
    "block_time": 1710405325
  },
  "hex": "020000000001016a1f5a82d6f2c89a7ee7e082ec205c59ac6a8fc23769670bd1fc6641075b757c0000000000fdffffff02f43700000000000017a914359104750293d8d4c43232d16fa8363de9c4139f878c1f020000000000160014be68efca556ee1aafb032485db2b8cb3295dad1902473044022063827250dddcba2def5d576e4da121786a9538a022edd4b0d01dc1d584c2bb2b0220194c62005077d344e2cf0286b8d28e6272c2a909bc4b768617359479a38e68dd012102529184423be07e3a55e18f8d32a9cd902a78750043885ac96637024f1e805d3200000000"
}