{
  "txid": "6863d02cfa5ec2a3ea945f2c5d6dc3bf99e96e9f75ad5e2766409487214d49a9",
  "version": 2,
  "locktime": 0,
  "vin": [
    {
      "txid": "2ee7e9bc2f0f43192f5d2dcb9ba2f7bf417e46f7a86aea7e61bf494a2116911f",
      "vout": 9,
      "prevout": {
        "scriptpubkey": "512033451c3259af94b0e166d3afc0f21917be9f620fb8ed32fc9e41c6109268f9d8",
        "scriptpubkey_asm": "OP_PUSHNUM_1 OP_PUSHBYTES_32 33451c3259af94b0e166d3afc0f21917be9f620fb8ed32fc9e41c6109268f9d8",
        "scriptpubkey_type": "v1_p2tr",
        "scriptpubkey_address": "bc1pxdz3cvje472tpctx6whupusez7lf7cs0hrkn9ly7g8rppyngl8vqjsf7ln",
        "value": 2862
      },
      "scriptsig": "",
      "scriptsig_asm": "",
      "witness": [
        "6612991e491da997e20303b6e1c3c0d46ff21777122eaa3fb505bc3365471ae2320a0f63950f8f19c5b679125398d61cf1737ce2473d086a7f21d4ae26ba0272",
        "2062ed04fa33b48b70abfea2cdf82277e25df3928c9792a9e391c3aa148732fa5aac0063036f726401011e6170706c69636174696f6e2f6a736f6e3b636861727365743d7574662d38004cd37b2270223a22706f772d3230222c226f70223a226d696e74222c227469636b223a2250455045222c22616d74223a2231303030222c22736f6c7574696f6e223a22504550453a6263317032643677617a36736d6332646c33337861686b7364747a70793379397164713670677072776d3535376d303063646135303976733972333779633a303030303030303030303030303030303030303139393431613561653132383937363539383134343239323533333030353762306461393666336465613163353a3531393931353936383438227d68",
        "c1c302becc0a7fa5f96ff01f380e695b2faa1e460e5e66e108f6410cf3df3f4a28"
      ],
      "is_coinbase": false,
      "sequence": 4294967295
    }
  ],
  "vout": [
    {
      "scriptpubkey": "51205374ee8b50de14dfc626eded06ac41244850341a0a02376e94f6defc37b47959",
      "scriptpubkey_asm": "OP_PUSHNUM_1 OP_PUSHBYTES_32 5374ee8b50de14dfc626eded06ac41244850341a0a02376e94f6defc37b47959",
      "scriptpubkey_type": "v1_p2tr",
      "scriptpubkey_address": "bc1p2d6waz6smc2dl33xahksdtzpy3y9qdq6pgprwm557m00cda509vs9r37yc",
      "value": 546
    }
  ],
  "size": 487,
  "weight": 769,
  "fee": 2316,
  "status": {
    "confirmed": true,
    "block_height": 834460,
    "block_hash": "00000000000000000000484a79b643b2524bbce82e5d8a442013fa5b8905ed98",
    "block_time": 1710307468
  },
  "hex": "020000000001011f9116214a49bf617eea6aa8f7467e41bff7a29bcb2d5d2f19430f2fbce9e72e0900000000ffffffff0122020000000000002251205374ee8b50de14dfc626eded06ac41244850341a0a02376e94f6defc37b4795903406612991e491da997e20303b6e1c3c0d46ff21777122eaa3fb505bc3365471ae2320a0f63950f8f19c5b679125398d61cf1737ce2473d086a7f21d4ae26ba0272fd20012062ed04fa33b48b70abfea2cdf82277e25df3928c9792a9e391c3aa148732fa5aac0063036f726401011e6170706c69636174696f6e2f6a736f6e3b636861727365743d7574662d38004cd37b2270223a22706f772d3230222c226f70223a226d696e74222c227469636b223a2250455045222c22616d74223a2231303030222c22736f6c7574696f6e223a22504550453a6263317032643677617a36736d6332646c33337861686b7364747a70793379397164713670677072776d3535376d303063646135303976733972333779633a303030303030303030303030303030303030303139393431613561653132383937363539383134343239323533333030353762306461393666336465613163353a3531393931353936383438227d6821c1c302becc0a7fa5f96ff01f380e695b2faa1e460e5e66e108f6410cf3df3f4a2800000000"
}