{
  "txid": "6877adc9bc65cda33c6316331377218e7ae3411d69ffabce97645eddbdbfcda5",
  "version": 2,
  "locktime": 0,
  "vin": [
    {
      "txid": "acc3ba00869acb582a3f2904ce3a11dd3779350ce234063fc7d0959246213364",
      "vout": 86,
      "prevout": {
        "scriptpubkey": "5120db1f9200f00b587328ead6c7781235b83d5411b5588cffe18373bd180e314011",
        "scriptpubkey_asm": "OP_PUSHNUM_1 OP_PUSHBYTES_32 db1f9200f00b587328ead6c7781235b83d5411b5588cffe18373bd180e314011",
        "scriptpubkey_type": "v1_p2tr",
        "scriptpubkey_address": "bc1pmv0eyq8spdv8x2826mrhsy34hq74gyd4tzx0lcvrww73sr33gqgs2sf2ac",
        "value": 1806
      },
      "scriptsig": "",
      "scriptsig_asm": "",
      "witness": [
        "7cca3c6bf41c29ad3a17dfa5123a53efec01166969a0991bdaacf1488b758b158106108600c58d93ff1a56f8e6dca6a20faaf438e7ac02fc804cb4c845145003",
        "20a5e7da2a7a205e78c4990d6f20fa3d938ee31da68ce6f1339172621e41a32671ac0063036f726401010a746578742f706c61696e00357b2270223a226272632d3230222c226f70223a226d696e74222c227469636b223a22646f6765222c22616d74223a2234323030227d68",
        "c1a5e7da2a7a205e78c4990d6f20fa3d938ee31da68ce6f1339172621e41a32671"
      ],
      "is_coinbase": false,
      "sequence": 4261412863
    }
  ],
  "vout": [
    {
      "scriptpubkey": "00147a665de7a370f4c9b372ab1fae587500a5bcbdb4",
      "scriptpubkey_asm": "OP_0 OP_PUSHBYTES_20 7a665de7a370f4c9b372ab1fae587500a5bcbdb4",
      "scriptpubkey_type": "v0_p2wpkh",
      "scriptpubkey_address": "bc1q0fn9mearwr6vnvmj4v06ukr4qzjme0d565dzcx",
      "value": 294
    }
  ],
  "size": 294,
  "weight": 540,
  "fee": 1512,
  "status": {
    "confirmed": true,
    "block_height": 834460,
    "block_hash": "00000000000000000000484a79b643b2524bbce82e5d8a442013fa5b8905ed98",
    "block_time": 1710307468
  },
  "hex": "02000000000101643321469295d0c73f0634e20c357937dd113ace04293f2a58cb9a8600bac3ac5600000000fffffffd0126010000000000001600147a665de7a370f4c9b372ab1fae587500a5bcbdb403407cca3c6bf41c29ad3a17dfa5123a53efec01166969a0991bdaacf1488b758b158106108600c58d93ff1a56f8e6dca6a20faaf438e7ac02fc804cb4c8451450036d20a5e7da2a7a205e78c4990d6f20fa3d938ee31da68ce6f1339172621e41a32671ac0063036f726401010a746578742f706c61696e00357b2270223a226272632d3230222c226f70223a226d696e74222c227469636b223a22646f6765222c22616d74223a2234323030227d6821c1a5e7da2a7a205e78c4990d6f20fa3d938ee31da68ce6f1339172621e41a3267100000000"
}