{
  "txid": "68890c9b9dc3efedb81b3d2c5d4a66c8adfc0348bc567c724a3a27d34505af72",
  "version": 1,
  "locktime": 0,
  "vin": [
    {
      "txid": "6cab123ff967af0e90bb50d67d12a22ec23ab3f6f1b2e1fdf1bae43281f0a2ce",
      "vout": 1,
      "prevout": {
        "scriptpubkey": "0014596a3586b1335f873113cbf11eab43e18e8973e7",
        "scriptpubkey_asm": "OP_0 OP_PUSHBYTES_20 596a3586b1335f873113cbf11eab43e18e8973e7",
        "scriptpubkey_type": "v0_p2wpkh",
        "scriptpubkey_address": "bc1qt94rtp43xd0cwvgne0c3a26rux8gjul8nsp43g",
        "value": 964748
      },
      "scriptsig": "",
      "scriptsig_asm": "",
      "witness": [
        "3044022027fe7107add8c60833e0ec2e4adfa45b56af1ea5b1571ab4c1453483f39b1a510220738a1a0ec75d800a220c400aea4443ae6a4e114a7d70af46cae37fe53c35dedd01",
        "038ed8a5617ddbd8e375500f788187985de5a6eddbe0611045e8c72ee3b5ee4d2a"
      ],
      "is_coinbase": false,
      "sequence": 4294967293
    }
  ],
  "vout": [
    {
      "scriptpubkey": "0014d914c204e9fc70b6f4d5e6c4666b5cf63633476b",
      "scriptpubkey_asm": "OP_0 OP_PUSHBYTES_20 d914c204e9fc70b6f4d5e6c4666b5cf63633476b",
      "scriptpubkey_type": "v0_p2wpkh",
      "scriptpubkey_address": "bc1qmy2vyp8fl3ctdax4umzxv66u7cmrx3mt3x4e3c",
      "value": 948754
    },
    {
      "scriptpubkey": "0014b1288a9f9944f7f7087f2a93bf84bbbf5eb21eb0",
      "scriptpubkey_asm": "OP_0 OP_PUSHBYTES_20 b1288a9f9944f7f7087f2a93bf84bbbf5eb21eb0",
      "scriptpubkey_type": "v0_p2wpkh",
      "scriptpubkey_address": "bc1qky5g48uegnmlwzrl92fmlp9mha0ty84s8al406",
      "value": 14302
    }
  ],
  "size": 222,
  "weight": 561,
  "fee": 1692,
  "status": {
    "confirmed": true,
    "block_height": 834460,
    "block_hash": "00000000000000000000484a79b643b2524bbce82e5d8a442013fa5b8905ed98",
    "block_time": 1710307468
  },
  "hex": "01000000000101cea2f08132e4baf1fde1b2f1f6b33ac22ea2127dd650bb900eaf67f93f12ab6c0100000000fdffffff02127a0e0000000000160014d914c204e9fc70b6f4d5e6c4666b5cf63633476bde37000000000000160014b1288a9f9944f7f7087f2a93bf84bbbf5eb21eb002473044022027fe7107add8c60833e0ec2e4adfa45b56af1ea5b1571ab4c1453483f39b1a510220738a1a0ec75d800a220c400aea4443ae6a4e114a7d70af46cae37fe53c35dedd0121038ed8a5617ddbd8e375500f788187985de5a6eddbe0611045e8c72ee3b5ee4d2a00000000"
}