{
  "txid": "688eb5ab8f254ceb31b6823c6fb4bba84c24a342c7d373d8c34853b3440ba1a1",
  "version": 2,
  "locktime": 0,
  "vin": [
    {
      "txid": "1c5e957e437ca1eb36f94518aa6c09eed727d83ba5889d8ebbf3aa2a4846156c",
      "vout": 1,
      "prevout": {
        "scriptpubkey": "0014e7280d6c9f0d65a0f180d33785b1ff37bdd4963c",
        "scriptpubkey_asm": "OP_0 OP_PUSHBYTES_20 e7280d6c9f0d65a0f180d33785b1ff37bdd4963c",
        "scriptpubkey_type": "v0_p2wpkh",
        "scriptpubkey_address": "bc1quu5q6mylp4j6puvq6vmctv0lx77af93uuw6qef",
        "value": 386175
      },
      "scriptsig": "",
      "scriptsig_asm": "",
      "witness": [
        "3045022100f28034dcfb07e2f5d603182c079d20bd5b7720e4b833a683d2418cb7e50f3bab022064d46666f0762838dafb66351f646fd805a55c66567a42135c161fea946cdcd101",
        "03f8f02b66e7d162890550b80114e0036d2b84894643c1ed9ef50c8345b585f51f"
      ],
      "is_coinbase": false,
      "sequence": 4294967295
    },
    {
      "txid": "fa83667380871b0c7c00da6689ea8eb35471cf511ca6750e314c01e67643e9e9",
      "vout": 0,
      "prevout": {
        "scriptpubkey": "0014e7280d6c9f0d65a0f180d33785b1ff37bdd4963c",
        "scriptpubkey_asm": "OP_0 OP_PUSHBYTES_20 e7280d6c9f0d65a0f180d33785b1ff37bdd4963c",
        "scriptpubkey_type": "v0_p2wpkh",
        "scriptpubkey_address": "bc1quu5q6mylp4j6puvq6vmctv0lx77af93uuw6qef",
        "value": 200915
      },
      "scriptsig": "",
      "scriptsig_asm": "",
      "witness": [
        "3045022100b2e4a1f8356f388ca96e961271f8349bde0b9d9e433147f514b05397d554e077022001647aaf3c42a2a1ad400aaac7f06332c94fa99199025f2e66c477ff76899a0b01",
        "03f8f02b66e7d162890550b80114e0036d2b84894643c1ed9ef50c8345b585f51f"
      ],
      "is_coinbase": false,
      "sequence": 4294967295
    },
    {
      "txid": "9889a2e0a27379ff404d553aea03ec4b54ea06720841fbc2f9456dd647f415f3",
      "vout": 0,
      "prevout": {
        "scriptpubkey": "0014e7280d6c9f0d65a0f180d33785b1ff37bdd4963c",
        "scriptpubkey_asm": "OP_0 OP_PUSHBYTES_20 e7280d6c9f0d65a0f180d33785b1ff37bdd4963c",
        "scriptpubkey_type": "v0_p2wpkh",
        "scriptpubkey_address": "bc1quu5q6mylp4j6puvq6vmctv0lx77af93uuw6qef",
        "value": 547
      },
      "scriptsig": "",
      "scriptsig_asm": "",
      "witness": [
        "30440220794cc84f0d72f9681681076535658f3f43a8af808b7f28693057938613e739d302205a73b2a40b04afd2459d34553d76ac3a75592982149ce2cca48fbf845312ccdf01",
        "03f8f02b66e7d162890550b80114e0036d2b84894643c1ed9ef50c8345b585f51f"
      ],
      "is_coinbase": false,
      "sequence": 4294967295
    },
    {
      "txid": "fa83667380871b0c7c00da6689ea8eb35471cf511ca6750e314c01e67643e9e9",
      "vout": 1,
      "prevout": {
        "scriptpubkey": "0014e7280d6c9f0d65a0f180d33785b1ff37bdd4963c",
        "scriptpubkey_asm": "OP_0 OP_PUSHBYTES_20 e7280d6c9f0d65a0f180d33785b1ff37bdd4963c",
        "scriptpubkey_type": "v0_p2wpkh",
        "scriptpubkey_address": "bc1quu5q6mylp4j6puvq6vmctv0lx77af93uuw6qef",
        "value": 547
      },
      "scriptsig": "",
      "scriptsig_asm": "",
      "witness": [
        "3045022100df07e5a59ef611fa93a44e759d3f9dbfbe369ba5c55fcafae67cf36215f17acc0220631cc4ae2ad7b1bfe4623626154924b2c3d576c9383c18e1fba99de9089ea8d101",
        "03f8f02b66e7d162890550b80114e0036d2b84894643c1ed9ef50c8345b585f51f"
      ],
      "is_coinbase": false,
      "sequence": 4294967295
    }
  ],
  "vout": [
    {
      "scriptpubkey": "a9148a7f018eb20405da268994605c21579a64b0f20787",
      "scriptpubkey_asm": "OP_HASH160 OP_PUSHBYTES_20 8a7f018eb20405da268994605c21579a64b0f207 OP_EQUAL",
      "scriptpubkey_type": "p2sh",
      "scriptpubkey_address": "3EKKKZ542SykE8CWh7yrxrwuWRBySEpkQr",
      "value": 584089
    }
  ],
  "size": 639,
  "weight": 1257,
  "fee": 4095,
  "status": {
    "confirmed": true,
    "block_height": 834460,
    "block_hash": "00000000000000000000484a79b643b2524bbce82e5d8a442013fa5b8905ed98",
    "block_time": 1710307468
  },
  "hex": "020000000001046c1546482aaaf3bb8e9d88a53bd827d7ee096caa1845f936eba17c437e955e1c0100000000ffffffffe9e94376e6014c310e75a61c51cf7154b38eea8966da007c0c1b8780736683fa0000000000fffffffff315f447d66d45f9c2fb41087206ea544bec03ea3a554d40ff7973a2e0a289980000000000ffffffffe9e94376e6014c310e75a61c51cf7154b38eea8966da007c0c1b8780736683fa0100000000ffffffff0199e908000000000017a9148a7f018eb20405da268994605c21579a64b0f2078702483045022100f28034dcfb07e2f5d603182c079d20bd5b7720e4b833a683d2418cb7e50f3bab022064d46666f0762838dafb66351f646fd805a55c66567a42135c161fea946cdcd1012103f8f02b66e7d162890550b80114e0036d2b84894643c1ed9ef50c8345b585f51f02483045022100b2e4a1f8356f388ca96e961271f8349bde0b9d9e433147f514b05397d554e077022001647aaf3c42a2a1ad400aaac7f06332c94fa99199025f2e66c477ff76899a0b012103f8f02b66e7d162890550b80114e0036d2b84894643c1ed9ef50c8345b585f51f024730440220794cc84f0d72f9681681076535658f3f43a8af808b7f28693057938613e739d302205a73b2a40b04afd2459d34553d76ac3a75592982149ce2cca48fbf845312ccdf012103f8f02b66e7d162890550b80114e0036d2b84894643c1ed9ef50c8345b585f51f02483045022100df07e5a59ef611fa93a44e759d3f9dbfbe369ba5c55fcafae67cf36215f17acc0220631cc4ae2ad7b1bfe4623626154924b2c3d576c9383c18e1fba99de9089ea8d1012103f8f02b66e7d162890550b80114e0036d2b84894643c1ed9ef50c8345b585f51f00000000"
}