{
  "txid": "688e593004643e7a4a8718086a97780d972eaa681dc5284b0c4709e4dbaa89ac",
  "version": 2,
  "locktime": 0,
  "vin": [
    {
      "txid": "acc3ba00869acb582a3f2904ce3a11dd3779350ce234063fc7d0959246213364",
      "vout": 76,
      "prevout": {
        "scriptpubkey": "5120fc4c6d063c58a7d2f4c9c0c23470896477058a55f4b1eb8a7f6c172be99ad885",
        "scriptpubkey_asm": "OP_PUSHNUM_1 OP_PUSHBYTES_32 fc4c6d063c58a7d2f4c9c0c23470896477058a55f4b1eb8a7f6c172be99ad885",
        "scriptpubkey_type": "v1_p2tr",
        "scriptpubkey_address": "bc1pl3xx6p3utzna9axfcrprguyfv3mstzj47jc7hznldstjh6v6mzzsequn63",
        "value": 1806
      },
      "scriptsig": "",
      "scriptsig_asm": "",
      "witness": [
        "ad319cad80881275eaa4c6b3d7b9006d25f96ce93b5a7e46de043eca69834856cce653f2af59f0c8d26cb48a83c3cbbd99867c06b8bf304c6cdcb98a9bb9e8a7",
        "20c2cdcccd6cae59b079d603e0455a72827f8bfbc50584b97549f4366d3d275022ac0063036f726401010a746578742f706c61696e00357b2270223a226272632d3230222c226f70223a226d696e74222c227469636b223a22646f6765222c22616d74223a2234323030227d68",
        "c0c2cdcccd6cae59b079d603e0455a72827f8bfbc50584b97549f4366d3d275022"
      ],
      "is_coinbase": false,
      "sequence": 4261412863
    }
  ],
  "vout": [
    {
      "scriptpubkey": "00147a665de7a370f4c9b372ab1fae587500a5bcbdb4",
      "scriptpubkey_asm": "OP_0 OP_PUSHBYTES_20 7a665de7a370f4c9b372ab1fae587500a5bcbdb4",
      "scriptpubkey_type": "v0_p2wpkh",
      "scriptpubkey_address": "bc1q0fn9mearwr6vnvmj4v06ukr4qzjme0d565dzcx",
      "value": 294
    }
  ],
  "size": 294,
  "weight": 540,
  "fee": 1512,
  "status": {
    "confirmed": true,
    "block_height": 834460,
    "block_hash": "00000000000000000000484a79b643b2524bbce82e5d8a442013fa5b8905ed98",
    "block_time": 1710307468
  },
  "hex": "02000000000101643321469295d0c73f0634e20c357937dd113ace04293f2a58cb9a8600bac3ac4c00000000fffffffd0126010000000000001600147a665de7a370f4c9b372ab1fae587500a5bcbdb40340ad319cad80881275eaa4c6b3d7b9006d25f96ce93b5a7e46de043eca69834856cce653f2af59f0c8d26cb48a83c3cbbd99867c06b8bf304c6cdcb98a9bb9e8a76d20c2cdcccd6cae59b079d603e0455a72827f8bfbc50584b97549f4366d3d275022ac0063036f726401010a746578742f706c61696e00357b2270223a226272632d3230222c226f70223a226d696e74222c227469636b223a22646f6765222c22616d74223a2234323030227d6821c0c2cdcccd6cae59b079d603e0455a72827f8bfbc50584b97549f4366d3d27502200000000"
}