{
  "txid": "68bb0c532ce0a655023a8fd4dd061ff26daa53008ce716557c83ec76859a6f1f",
  "version": 1,
  "locktime": 0,
  "vin": [
    {
      "txid": "04dd6074e9880acbd250a2269d3f4008bc375e5e3f20ac882df602f08dc3b112",
      "vout": 0,
      "prevout": {
        "scriptpubkey": "76a9142f8760313adc2835139bbcdba0ab3678fbc05e2888ac",
        "scriptpubkey_asm": "OP_DUP OP_HASH160 OP_PUSHBYTES_20 2f8760313adc2835139bbcdba0ab3678fbc05e28 OP_EQUALVERIFY OP_CHECKSIG",
        "scriptpubkey_type": "p2pkh",
        "scriptpubkey_address": "15LJw67Sdcp33dZbYkmStnADnHoBmXG4ka",
        "value": 116812
      },
      "scriptsig": "483045022100cb14c51ee07cb25860386ce90394c247ff47be6a636a14ed0944288df3c2ae5e02204a2bb7060308eb96d3e102c809ed689c483b56f4ddc1d0a2f4b1523ee1e3aaee0121033a6d9cc4a6208e0bbe7528442002ed76dd3e4f30eddc13f7970318541b14b5b9",
      "scriptsig_asm": "OP_PUSHBYTES_72 3045022100cb14c51ee07cb25860386ce90394c247ff47be6a636a14ed0944288df3c2ae5e02204a2bb7060308eb96d3e102c809ed689c483b56f4ddc1d0a2f4b1523ee1e3aaee01 OP_PUSHBYTES_33 033a6d9cc4a6208e0bbe7528442002ed76dd3e4f30eddc13f7970318541b14b5b9",
      "is_coinbase": false,
      "sequence": 4294967295
    }
  ],
  "vout": [
    {
      "scriptpubkey": "76a914670bcd919c042a5eafd11792cf34f6816d4c1ec988ac",
      "scriptpubkey_asm": "OP_DUP OP_HASH160 OP_PUSHBYTES_20 670bcd919c042a5eafd11792cf34f6816d4c1ec9 OP_EQUALVERIFY OP_CHECKSIG",
      "scriptpubkey_type": "p2pkh",
      "scriptpubkey_address": "1APrjr3UfDEhkoQCJBVD4d9mcTw4b7Eehf",
      "value": 114750
    }
  ],
  "size": 192,
  "weight": 768,
  "fee": 2062,
  "status": {
    "confirmed": true,
    "block_height": 834464,
    "block_hash": "0000000000000000000177a0869a911a2b65c9bdcd5a8bcb02b68f305bee848e",
    "block_time": 1710308296
  },
  "hex": "010000000112b1c38df002f62d88ac203f5e5e37bc08403f9d26a250d2cb0a88e97460dd04000000006b483045022100cb14c51ee07cb25860386ce90394c247ff47be6a636a14ed0944288df3c2ae5e02204a2bb7060308eb96d3e102c809ed689c483b56f4ddc1d0a2f4b1523ee1e3aaee0121033a6d9cc4a6208e0bbe7528442002ed76dd3e4f30eddc13f7970318541b14b5b9ffffffff013ec00100000000001976a914670bcd919c042a5eafd11792cf34f6816d4c1ec988ac00000000"
}