{
  "txid": "68c7dbf8ce6a1dc995d91a9849bf61541d9eea392eb426f758368145e8b84c3c",
  "version": 2,
  "locktime": 0,
  "vin": [
    {
      "txid": "3e30527e6999ac26cdc19d03e89804653f1b9223c96a5298885b17e396f9725f",
      "vout": 0,
      "prevout": {
        "scriptpubkey": "512086f1295be330ffcc3da2cd6beb4d4b1bb47b4f657ab8b7da0744ccf9ec989fd6",
        "scriptpubkey_asm": "OP_PUSHNUM_1 OP_PUSHBYTES_32 86f1295be330ffcc3da2cd6beb4d4b1bb47b4f657ab8b7da0744ccf9ec989fd6",
        "scriptpubkey_type": "v1_p2tr",
        "scriptpubkey_address": "bc1psmcjjklrxrluc0dze447kn2trw68knm902ut0ks8gnx0nmycnltqzu8k0f",
        "value": 2978
      },
      "scriptsig": "",
      "scriptsig_asm": "",
      "witness": [
        "84736d1276c8f79a774c5d6f56ec0a7376542727618dcb7461811247e1c711ce6533d12729c5d212b5fd60249210dfb7096feddc6cd0d01a1f2080bc36b0a7b4",
        "20cf92e12b6c1a989089b9eb8dbc576e60b02c6fcfee27a26b1b3b236c4a97ad45ac0063036f7264010118746578742f706c61696e3b636861727365743d7574662d3800397b2270223a226272632d3230222c226f70223a227472616e73666572222c227469636b223a22736c6f72222c22616d74223a2231353030227d68",
        "c0cf92e12b6c1a989089b9eb8dbc576e60b02c6fcfee27a26b1b3b236c4a97ad45"
      ],
      "is_coinbase": false,
      "sequence": 4294967293
    }
  ],
  "vout": [
    {
      "scriptpubkey": "51209faa5843b315c1c455535f95d394aa8d1861256e42de7dce2b6f288a8769383f",
      "scriptpubkey_asm": "OP_PUSHNUM_1 OP_PUSHBYTES_32 9faa5843b315c1c455535f95d394aa8d1861256e42de7dce2b6f288a8769383f",
      "scriptpubkey_type": "v1_p2tr",
      "scriptpubkey_address": "bc1pn749ssanzhqug42nt72a899235vxzftwgt08mn3tdu5g4pmf8qlsh7r5qg",
      "value": 546
    }
  ],
  "size": 324,
  "weight": 606,
  "fee": 2432,
  "status": {
    "confirmed": true,
    "block_height": 834638,
    "block_hash": "000000000000000000025f742c626208ac87e0b7d15054abb4a19ca2d735a54e",
    "block_time": 1710405325
  },
  "hex": "020000000001015f72f996e3175b8898526ac923921b3f650498e8039dc1cd26ac99697e52303e0000000000fdffffff0122020000000000002251209faa5843b315c1c455535f95d394aa8d1861256e42de7dce2b6f288a8769383f034084736d1276c8f79a774c5d6f56ec0a7376542727618dcb7461811247e1c711ce6533d12729c5d212b5fd60249210dfb7096feddc6cd0d01a1f2080bc36b0a7b47f20cf92e12b6c1a989089b9eb8dbc576e60b02c6fcfee27a26b1b3b236c4a97ad45ac0063036f7264010118746578742f706c61696e3b636861727365743d7574662d3800397b2270223a226272632d3230222c226f70223a227472616e73666572222c227469636b223a22736c6f72222c22616d74223a2231353030227d6821c0cf92e12b6c1a989089b9eb8dbc576e60b02c6fcfee27a26b1b3b236c4a97ad4500000000"
}