{
  "txid": "6924ec2db97b47b9e82aac059c5941180d64800ebab62bed1d7852b80c102d35",
  "version": 1,
  "locktime": 0,
  "vin": [
    {
      "txid": "89697dd4c05a07241d9616e1bf8a534d80323cb8f0f5506fdf9980705c91a3b0",
      "vout": 1,
      "prevout": {
        "scriptpubkey": "a9142a3fe0d35b3a2ee1a3cb38dd732cd3e1ac484fa587",
        "scriptpubkey_asm": "OP_HASH160 OP_PUSHBYTES_20 2a3fe0d35b3a2ee1a3cb38dd732cd3e1ac484fa5 OP_EQUAL",
        "scriptpubkey_type": "p2sh",
        "scriptpubkey_address": "35YQpwL4QGsr9oGueDGhhV7MuNrcU1oBHF",
        "value": 10844
      },
      "scriptsig": "16001425b6e5f856ec32e9a6d8eb9e9445f33b2e6567e9",
      "scriptsig_asm": "OP_PUSHBYTES_22 001425b6e5f856ec32e9a6d8eb9e9445f33b2e6567e9",
      "witness": [
        "304402203f43374216c20fa64b499c5b1da8ea295642a1bccad50b87500c61acd4b63dac02207eab971e9d7a609c282de07f990107bdaa56772cf3f47811559cf2dc54e5c27201",
        "032d913cb626ba372fdd28354c63d7886a481db5c51c2cb989298d879c3da40da9"
      ],
      "is_coinbase": false,
      "sequence": 4294967293,
      "inner_redeemscript_asm": "OP_0 OP_PUSHBYTES_20 25b6e5f856ec32e9a6d8eb9e9445f33b2e6567e9"
    },
    {
      "txid": "b5bc59e9c5772c62f84222c28d1b6046dbc4122566b0bc43cef2ad54df88990f",
      "vout": 5,
      "prevout": {
        "scriptpubkey": "a9142a3fe0d35b3a2ee1a3cb38dd732cd3e1ac484fa587",
        "scriptpubkey_asm": "OP_HASH160 OP_PUSHBYTES_20 2a3fe0d35b3a2ee1a3cb38dd732cd3e1ac484fa5 OP_EQUAL",
        "scriptpubkey_type": "p2sh",
        "scriptpubkey_address": "35YQpwL4QGsr9oGueDGhhV7MuNrcU1oBHF",
        "value": 831
      },
      "scriptsig": "16001425b6e5f856ec32e9a6d8eb9e9445f33b2e6567e9",
      "scriptsig_asm": "OP_PUSHBYTES_22 001425b6e5f856ec32e9a6d8eb9e9445f33b2e6567e9",
      "witness": [
        "3045022100cbbbb8a3f3a4405ec787d3caa76bb35afdd0e4a0077af8d4a356161f8dc1aae102204f92e951a94124d4d610bc75984aa353923aa4cad21a9aeab7e39a15ea7b659701",
        "032d913cb626ba372fdd28354c63d7886a481db5c51c2cb989298d879c3da40da9"
      ],
      "is_coinbase": false,
      "sequence": 4294967293,
      "inner_redeemscript_asm": "OP_0 OP_PUSHBYTES_20 25b6e5f856ec32e9a6d8eb9e9445f33b2e6567e9"
    },
    {
      "txid": "3ec6577a971d51b778efa806a2e5bee2fc38c61536f335b31be1f0bbcf9ebfe4",
      "vout": 66,
      "prevout": {
        "scriptpubkey": "a9142a3fe0d35b3a2ee1a3cb38dd732cd3e1ac484fa587",
        "scriptpubkey_asm": "OP_HASH160 OP_PUSHBYTES_20 2a3fe0d35b3a2ee1a3cb38dd732cd3e1ac484fa5 OP_EQUAL",
        "scriptpubkey_type": "p2sh",
        "scriptpubkey_address": "35YQpwL4QGsr9oGueDGhhV7MuNrcU1oBHF",
        "value": 903
      },
      "scriptsig": "16001425b6e5f856ec32e9a6d8eb9e9445f33b2e6567e9",
      "scriptsig_asm": "OP_PUSHBYTES_22 001425b6e5f856ec32e9a6d8eb9e9445f33b2e6567e9",
      "witness": [
        "3045022100f94d19a2f44a72c36a2ee0bf269c55170294bb5da82556156a36a63cffe6a5ea022052a027b814ef885827b0389c419475f3487317e60f2766cd42b6608495e6ff4001",
        "032d913cb626ba372fdd28354c63d7886a481db5c51c2cb989298d879c3da40da9"
      ],
      "is_coinbase": false,
      "sequence": 4294967293,
      "inner_redeemscript_asm": "OP_0 OP_PUSHBYTES_20 25b6e5f856ec32e9a6d8eb9e9445f33b2e6567e9"
    },
    {
      "txid": "89ca9fdf30b7dbcf72e2cb8faaaa77b140cff950d0e8d2e05cb8e8c7ea108e9d",
      "vout": 63,
      "prevout": {
        "scriptpubkey": "a9142a3fe0d35b3a2ee1a3cb38dd732cd3e1ac484fa587",
        "scriptpubkey_asm": "OP_HASH160 OP_PUSHBYTES_20 2a3fe0d35b3a2ee1a3cb38dd732cd3e1ac484fa5 OP_EQUAL",
        "scriptpubkey_type": "p2sh",
        "scriptpubkey_address": "35YQpwL4QGsr9oGueDGhhV7MuNrcU1oBHF",
        "value": 785
      },
      "scriptsig": "16001425b6e5f856ec32e9a6d8eb9e9445f33b2e6567e9",
      "scriptsig_asm": "OP_PUSHBYTES_22 001425b6e5f856ec32e9a6d8eb9e9445f33b2e6567e9",
      "witness": [
        "30450221009fabbc40580c2ce6e4d78bbf24531471f0deecd491fcd5cbb7c211469b7b953e02203f9ffb57acb4a55d8227882c1886ab09ba0bf1637fed2e71c513b40af30077c801",
        "032d913cb626ba372fdd28354c63d7886a481db5c51c2cb989298d879c3da40da9"
      ],
      "is_coinbase": false,
      "sequence": 4294967293,
      "inner_redeemscript_asm": "OP_0 OP_PUSHBYTES_20 25b6e5f856ec32e9a6d8eb9e9445f33b2e6567e9"
    },
    {
      "txid": "b4ef35c0adb47db6690a239edff7e79410f682d7824ec995175f7d1a0efff5c6",
      "vout": 82,
      "prevout": {
        "scriptpubkey": "a9142a3fe0d35b3a2ee1a3cb38dd732cd3e1ac484fa587",
        "scriptpubkey_asm": "OP_HASH160 OP_PUSHBYTES_20 2a3fe0d35b3a2ee1a3cb38dd732cd3e1ac484fa5 OP_EQUAL",
        "scriptpubkey_type": "p2sh",
        "scriptpubkey_address": "35YQpwL4QGsr9oGueDGhhV7MuNrcU1oBHF",
        "value": 805
      },
      "scriptsig": "16001425b6e5f856ec32e9a6d8eb9e9445f33b2e6567e9",
      "scriptsig_asm": "OP_PUSHBYTES_22 001425b6e5f856ec32e9a6d8eb9e9445f33b2e6567e9",
      "witness": [
        "3045022100bb7a04139d0b5792a07dec02b9958b31456c6d9588b1b9280da3ec56ac4c76d802205e687503d3995cde1af594af5e697bcfc5c2409d716010e10732a7c1317f161e01",
        "032d913cb626ba372fdd28354c63d7886a481db5c51c2cb989298d879c3da40da9"
      ],
      "is_coinbase": false,
      "sequence": 4294967293,
      "inner_redeemscript_asm": "OP_0 OP_PUSHBYTES_20 25b6e5f856ec32e9a6d8eb9e9445f33b2e6567e9"
    },
    {
      "txid": "5446733a0c42853a57baac0464f6f1f1ef2878d8c9af98fb97d3ccd20a201e4c",
      "vout": 41,
      "prevout": {
        "scriptpubkey": "a9142a3fe0d35b3a2ee1a3cb38dd732cd3e1ac484fa587",
        "scriptpubkey_asm": "OP_HASH160 OP_PUSHBYTES_20 2a3fe0d35b3a2ee1a3cb38dd732cd3e1ac484fa5 OP_EQUAL",
        "scriptpubkey_type": "p2sh",
        "scriptpubkey_address": "35YQpwL4QGsr9oGueDGhhV7MuNrcU1oBHF",
        "value": 790
      },
      "scriptsig": "16001425b6e5f856ec32e9a6d8eb9e9445f33b2e6567e9",
      "scriptsig_asm": "OP_PUSHBYTES_22 001425b6e5f856ec32e9a6d8eb9e9445f33b2e6567e9",
      "witness": [
        "3045022100e186840aa63ddecd53bc851b1b03ebb11140545b43dbccf5abb5349585fc07900220022d80c559453ff7d618103672f0bc29a95b8b928f523160d8b6144871791c8301",
        "032d913cb626ba372fdd28354c63d7886a481db5c51c2cb989298d879c3da40da9"
      ],
      "is_coinbase": false,
      "sequence": 4294967293,
      "inner_redeemscript_asm": "OP_0 OP_PUSHBYTES_20 25b6e5f856ec32e9a6d8eb9e9445f33b2e6567e9"
    },
    {
      "txid": "1c4d8ca34c6cd8182eebe01255e79af6962f8a9d71efaaafaf5f27c6f0f9fcd8",
      "vout": 26,
      "prevout": {
        "scriptpubkey": "a9142a3fe0d35b3a2ee1a3cb38dd732cd3e1ac484fa587",
        "scriptpubkey_asm": "OP_HASH160 OP_PUSHBYTES_20 2a3fe0d35b3a2ee1a3cb38dd732cd3e1ac484fa5 OP_EQUAL",
        "scriptpubkey_type": "p2sh",
        "scriptpubkey_address": "35YQpwL4QGsr9oGueDGhhV7MuNrcU1oBHF",
        "value": 773
      },
      "scriptsig": "16001425b6e5f856ec32e9a6d8eb9e9445f33b2e6567e9",
      "scriptsig_asm": "OP_PUSHBYTES_22 001425b6e5f856ec32e9a6d8eb9e9445f33b2e6567e9",
      "witness": [
        "3044022077ea9b2fe824c0f726ced40dcb0b85369776ced3812b682beffb93da05df1d6e022028cc7fd9c843e4d708400fdcb9d988467d370e3a7ae70df1216bfd7f850ef77501",
        "032d913cb626ba372fdd28354c63d7886a481db5c51c2cb989298d879c3da40da9"
      ],
      "is_coinbase": false,
      "sequence": 4294967293,
      "inner_redeemscript_asm": "OP_0 OP_PUSHBYTES_20 25b6e5f856ec32e9a6d8eb9e9445f33b2e6567e9"
    },
    {
      "txid": "091b67bc6082a30543b2d63af3b6f4999237bccd592989b77e1181b25d92536d",
      "vout": 0,
      "prevout": {
        "scriptpubkey": "a9142a3fe0d35b3a2ee1a3cb38dd732cd3e1ac484fa587",
        "scriptpubkey_asm": "OP_HASH160 OP_PUSHBYTES_20 2a3fe0d35b3a2ee1a3cb38dd732cd3e1ac484fa5 OP_EQUAL",
        "scriptpubkey_type": "p2sh",
        "scriptpubkey_address": "35YQpwL4QGsr9oGueDGhhV7MuNrcU1oBHF",
        "value": 48309
      },
      "scriptsig": "16001425b6e5f856ec32e9a6d8eb9e9445f33b2e6567e9",
      "scriptsig_asm": "OP_PUSHBYTES_22 001425b6e5f856ec32e9a6d8eb9e9445f33b2e6567e9",
      "witness": [
        "3044022053898c98298fd4ce665393c5ec3ac8b8548c7033ebd5949620afa24e3dbf561502201954f88f927d0b76f7fc1f6dc4eacad67c5f5690038cb491baf6dfb3dea94ae301",
        "032d913cb626ba372fdd28354c63d7886a481db5c51c2cb989298d879c3da40da9"
      ],
      "is_coinbase": false,
      "sequence": 4294967293,
      "inner_redeemscript_asm": "OP_0 OP_PUSHBYTES_20 25b6e5f856ec32e9a6d8eb9e9445f33b2e6567e9"
    },
    {
      "txid": "19e05e98b13855cd42eb19f67731b24fc28d793a4a36a9f92dde1b962eeaa757",
      "vout": 0,
      "prevout": {
        "scriptpubkey": "a9142a3fe0d35b3a2ee1a3cb38dd732cd3e1ac484fa587",
        "scriptpubkey_asm": "OP_HASH160 OP_PUSHBYTES_20 2a3fe0d35b3a2ee1a3cb38dd732cd3e1ac484fa5 OP_EQUAL",
        "scriptpubkey_type": "p2sh",
        "scriptpubkey_address": "35YQpwL4QGsr9oGueDGhhV7MuNrcU1oBHF",
        "value": 36000
      },
      "scriptsig": "16001425b6e5f856ec32e9a6d8eb9e9445f33b2e6567e9",
      "scriptsig_asm": "OP_PUSHBYTES_22 001425b6e5f856ec32e9a6d8eb9e9445f33b2e6567e9",
      "witness": [
        "304402202e15fd425fe1667231afe0c4c2c6f1a4dd531a571194d8b8c971f806d35e898e022015a180006ef644cac26560713b5610bfc0da54d20adcd31ea627f2fd6cff5ba801",
        "032d913cb626ba372fdd28354c63d7886a481db5c51c2cb989298d879c3da40da9"
      ],
      "is_coinbase": false,
      "sequence": 4294967293,
      "inner_redeemscript_asm": "OP_0 OP_PUSHBYTES_20 25b6e5f856ec32e9a6d8eb9e9445f33b2e6567e9"
    }
  ],
  "vout": [
    {
      "scriptpubkey": "a91444644ae1f03cf0baa67e41352da97f120c0f421287",
      "scriptpubkey_asm": "OP_HASH160 OP_PUSHBYTES_20 44644ae1f03cf0baa67e41352da97f120c0f4212 OP_EQUAL",
      "scriptpubkey_type": "p2sh",
      "scriptpubkey_address": "37ve22vadQvu3PtpkKgNGvppwnJ8yoBjNH",
      "value": 84000
    },
    {
      "scriptpubkey": "a9142a3fe0d35b3a2ee1a3cb38dd732cd3e1ac484fa587",
      "scriptpubkey_asm": "OP_HASH160 OP_PUSHBYTES_20 2a3fe0d35b3a2ee1a3cb38dd732cd3e1ac484fa5 OP_EQUAL",
      "scriptpubkey_type": "p2sh",
      "scriptpubkey_address": "35YQpwL4QGsr9oGueDGhhV7MuNrcU1oBHF",
      "value": 2840
    }
  ],
  "size": 1620,
  "weight": 3570,
  "fee": 13200,
  "status": {
    "confirmed": true,
    "block_height": 834464,
    "block_hash": "0000000000000000000177a0869a911a2b65c9bdcd5a8bcb02b68f305bee848e",
    "block_time": 1710308296
  },
  "hex": "01000000000109b0a3915c708099df6f50f5f0b83c32804d538abfe116961d24075ac0d47d6989010000001716001425b6e5f856ec32e9a6d8eb9e9445f33b2e6567e9fdffffff0f9988df54adf2ce43bcb0662512c4db46601b8dc22242f8622c77c5e959bcb5050000001716001425b6e5f856ec32e9a6d8eb9e9445f33b2e6567e9fdffffffe4bf9ecfbbf0e11bb335f33615c638fce2bee5a206a8ef78b7511d977a57c63e420000001716001425b6e5f856ec32e9a6d8eb9e9445f33b2e6567e9fdffffff9d8e10eac7e8b85ce0d2e8d050f9cf40b177aaaa8fcbe272cfdbb730df9fca893f0000001716001425b6e5f856ec32e9a6d8eb9e9445f33b2e6567e9fdffffffc6f5ff0e1a7d5f1795c94e82d782f61094e7f7df9e230a69b67db4adc035efb4520000001716001425b6e5f856ec32e9a6d8eb9e9445f33b2e6567e9fdffffff4c1e200ad2ccd397fb98afc9d87828eff1f1f66404acba573a85420c3a734654290000001716001425b6e5f856ec32e9a6d8eb9e9445f33b2e6567e9fdffffffd8fcf9f0c6275fafafaaef719d8a2f96f69ae75512e0eb2e18d86c4ca38c4d1c1a0000001716001425b6e5f856ec32e9a6d8eb9e9445f33b2e6567e9fdffffff6d53925db281117eb7892959cdbc379299f4b6f33ad6b24305a38260bc671b09000000001716001425b6e5f856ec32e9a6d8eb9e9445f33b2e6567e9fdffffff57a7ea2e961bde2df9a9364a3a798dc24fb23177f619eb42cd5538b1985ee019000000001716001425b6e5f856ec32e9a6d8eb9e9445f33b2e6567e9fdffffff02204801000000000017a91444644ae1f03cf0baa67e41352da97f120c0f421287180b00000000000017a9142a3fe0d35b3a2ee1a3cb38dd732cd3e1ac484fa5870247304402203f43374216c20fa64b499c5b1da8ea295642a1bccad50b87500c61acd4b63dac02207eab971e9d7a609c282de07f990107bdaa56772cf3f47811559cf2dc54e5c2720121032d913cb626ba372fdd28354c63d7886a481db5c51c2cb989298d879c3da40da902483045022100cbbbb8a3f3a4405ec787d3caa76bb35afdd0e4a0077af8d4a356161f8dc1aae102204f92e951a94124d4d610bc75984aa353923aa4cad21a9aeab7e39a15ea7b65970121032d913cb626ba372fdd28354c63d7886a481db5c51c2cb989298d879c3da40da902483045022100f94d19a2f44a72c36a2ee0bf269c55170294bb5da82556156a36a63cffe6a5ea022052a027b814ef885827b0389c419475f3487317e60f2766cd42b6608495e6ff400121032d913cb626ba372fdd28354c63d7886a481db5c51c2cb989298d879c3da40da9024830450221009fabbc40580c2ce6e4d78bbf24531471f0deecd491fcd5cbb7c211469b7b953e02203f9ffb57acb4a55d8227882c1886ab09ba0bf1637fed2e71c513b40af30077c80121032d913cb626ba372fdd28354c63d7886a481db5c51c2cb989298d879c3da40da902483045022100bb7a04139d0b5792a07dec02b9958b31456c6d9588b1b9280da3ec56ac4c76d802205e687503d3995cde1af594af5e697bcfc5c2409d716010e10732a7c1317f161e0121032d913cb626ba372fdd28354c63d7886a481db5c51c2cb989298d879c3da40da902483045022100e186840aa63ddecd53bc851b1b03ebb11140545b43dbccf5abb5349585fc07900220022d80c559453ff7d618103672f0bc29a95b8b928f523160d8b6144871791c830121032d913cb626ba372fdd28354c63d7886a481db5c51c2cb989298d879c3da40da902473044022077ea9b2fe824c0f726ced40dcb0b85369776ced3812b682beffb93da05df1d6e022028cc7fd9c843e4d708400fdcb9d988467d370e3a7ae70df1216bfd7f850ef7750121032d913cb626ba372fdd28354c63d7886a481db5c51c2cb989298d879c3da40da902473044022053898c98298fd4ce665393c5ec3ac8b8548c7033ebd5949620afa24e3dbf561502201954f88f927d0b76f7fc1f6dc4eacad67c5f5690038cb491baf6dfb3dea94ae30121032d913cb626ba372fdd28354c63d7886a481db5c51c2cb989298d879c3da40da90247304402202e15fd425fe1667231afe0c4c2c6f1a4dd531a571194d8b8c971f806d35e898e022015a180006ef644cac26560713b5610bfc0da54d20adcd31ea627f2fd6cff5ba80121032d913cb626ba372fdd28354c63d7886a481db5c51c2cb989298d879c3da40da900000000"
}