{
  "txid": "693d2d94c81610cc0811148dc54c9261ba75a5bde19a33339caf987d2106d1d2",
  "version": 1,
  "locktime": 0,
  "vin": [
    {
      "txid": "f7f7c8608cd9ab7bcee8f6045a709e78b63148888a941a301cb78e67fb6f4133",
      "vout": 1,
      "prevout": {
        "scriptpubkey": "00149819d98ebab76341ca4363eb7547b78027de83cb",
        "scriptpubkey_asm": "OP_0 OP_PUSHBYTES_20 9819d98ebab76341ca4363eb7547b78027de83cb",
        "scriptpubkey_type": "v0_p2wpkh",
        "scriptpubkey_address": "bc1qnqvanr46ka35rjjrv04h23ahsqnaaq7t8sqa7h",
        "value": 35599
      },
      "scriptsig": "",
      "scriptsig_asm": "",
      "witness": [
        "30440220659417824d0207821bebb237df10e88a43603c18d6bcbfc861b848a7a35555bc022049e0edae6ff45469bc89d69a84891b59a766ad67ec490e5f80b2e7a48beb83d401",
        "02c5c46a83ad79f5abb74bfb07a900777af27037e3b95f23409e1c8d187b26df39"
      ],
      "is_coinbase": false,
      "sequence": 4294967295
    },
    {
      "txid": "45464c9c97bbe5142aede91d335c4a0210fcd6e73c78d051b0dd2a632a1db439",
      "vout": 1,
      "prevout": {
        "scriptpubkey": "00149819d98ebab76341ca4363eb7547b78027de83cb",
        "scriptpubkey_asm": "OP_0 OP_PUSHBYTES_20 9819d98ebab76341ca4363eb7547b78027de83cb",
        "scriptpubkey_type": "v0_p2wpkh",
        "scriptpubkey_address": "bc1qnqvanr46ka35rjjrv04h23ahsqnaaq7t8sqa7h",
        "value": 61825
      },
      "scriptsig": "",
      "scriptsig_asm": "",
      "witness": [
        "3045022100cf3fd3b6955cdd925bf30cc41bc262bf3bdf5a2aaeb7e400c578931e37ca060d022015b0b3052e3c82688ebacb6ba56400a834a8b01edbfacd6486894b81490a625801",
        "02c5c46a83ad79f5abb74bfb07a900777af27037e3b95f23409e1c8d187b26df39"
      ],
      "is_coinbase": false,
      "sequence": 4294967295
    }
  ],
  "vout": [
    {
      "scriptpubkey": "76a914877057f9b0224182979c9bef5d2c825dc4b8862188ac",
      "scriptpubkey_asm": "OP_DUP OP_HASH160 OP_PUSHBYTES_20 877057f9b0224182979c9bef5d2c825dc4b88621 OP_EQUALVERIFY OP_CHECKSIG",
      "scriptpubkey_type": "p2pkh",
      "scriptpubkey_address": "1DM8ofvGxCBUtxrKxzf7jLSK1UXLT8qwkv",
      "value": 74803
    },
    {
      "scriptpubkey": "00149819d98ebab76341ca4363eb7547b78027de83cb",
      "scriptpubkey_asm": "OP_0 OP_PUSHBYTES_20 9819d98ebab76341ca4363eb7547b78027de83cb",
      "scriptpubkey_type": "v0_p2wpkh",
      "scriptpubkey_address": "bc1qnqvanr46ka35rjjrv04h23ahsqnaaq7t8sqa7h",
      "value": 16897
    }
  ],
  "size": 374,
  "weight": 845,
  "fee": 5724,
  "status": {
    "confirmed": true,
    "block_height": 834638,
    "block_hash": "000000000000000000025f742c626208ac87e0b7d15054abb4a19ca2d735a54e",
    "block_time": 1710405325
  },
  "hex": "0100000000010233416ffb678eb71c301a948a884831b6789e705a04f6e8ce7babd98c60c8f7f70100000000ffffffff39b41d2a632addb051d0783ce7d6fc10024a5c331de9ed2a14e5bb979c4c46450100000000ffffffff0233240100000000001976a914877057f9b0224182979c9bef5d2c825dc4b8862188ac01420000000000001600149819d98ebab76341ca4363eb7547b78027de83cb024730440220659417824d0207821bebb237df10e88a43603c18d6bcbfc861b848a7a35555bc022049e0edae6ff45469bc89d69a84891b59a766ad67ec490e5f80b2e7a48beb83d4012102c5c46a83ad79f5abb74bfb07a900777af27037e3b95f23409e1c8d187b26df3902483045022100cf3fd3b6955cdd925bf30cc41bc262bf3bdf5a2aaeb7e400c578931e37ca060d022015b0b3052e3c82688ebacb6ba56400a834a8b01edbfacd6486894b81490a6258012102c5c46a83ad79f5abb74bfb07a900777af27037e3b95f23409e1c8d187b26df3900000000"
}