{
  "txid": "6941caa3f62f5462668fce06fbea53b2e078072da2e6fe832fc9fd17ac97d399",
  "version": 2,
  "locktime": 0,
  "vin": [
    {
      "txid": "fcf52e7934bbcb02e31c4627aa6e7cc4447ec021ef16bdbd5df19047434f148a",
      "vout": 1,
      "prevout": {
        "scriptpubkey": "001441fb10650c18ee48497ef3be36a0dfda7ed4a222",
        "scriptpubkey_asm": "OP_0 OP_PUSHBYTES_20 41fb10650c18ee48497ef3be36a0dfda7ed4a222",
        "scriptpubkey_type": "v0_p2wpkh",
        "scriptpubkey_address": "bc1qg8a3qegvrrhysjt77wlrdgxlmfldfg3zpntqcx",
        "value": 1937030
      },
      "scriptsig": "",
      "scriptsig_asm": "",
      "witness": [
        "30440220603dbe2d4d8613d4e92ca9e7d561c675b1cef432579daddf4005e842723c1ef7022035010782cca44df7b4dc150ff5d3fec68b1dfd9a93f382453de2f5c697842eea01",
        "031d430adc44627386bb00e71a7587fa5dcf64b2f415cb9570144fd882fec25fba"
      ],
      "is_coinbase": false,
      "sequence": 4294967294
    }
  ],
  "vout": [
    {
      "scriptpubkey": "0014f64652e7cabbaae4cb36c6004a10ead31b7329a5",
      "scriptpubkey_asm": "OP_0 OP_PUSHBYTES_20 f64652e7cabbaae4cb36c6004a10ead31b7329a5",
      "scriptpubkey_type": "v0_p2wpkh",
      "scriptpubkey_address": "bc1q7er99e72hw4wfjekccqy5y826vdhx2d90jrn0k",
      "value": 403973
    },
    {
      "scriptpubkey": "0014a2ab49010d139e703eb42b1e8e154abdaf8e2855",
      "scriptpubkey_asm": "OP_0 OP_PUSHBYTES_20 a2ab49010d139e703eb42b1e8e154abdaf8e2855",
      "scriptpubkey_type": "v0_p2wpkh",
      "scriptpubkey_address": "bc1q5245jqgdzw08q0459v0gu922hkhcu2z42gevvr",
      "value": 1530660
    }
  ],
  "size": 222,
  "weight": 561,
  "fee": 2397,
  "status": {
    "confirmed": true,
    "block_height": 834638,
    "block_hash": "000000000000000000025f742c626208ac87e0b7d15054abb4a19ca2d735a54e",
    "block_time": 1710405325
  },
  "hex": "020000000001018a144f434790f15dbdbd16ef21c07e44c47c6eaa27461ce302cbbb34792ef5fc0100000000feffffff02052a060000000000160014f64652e7cabbaae4cb36c6004a10ead31b7329a5245b170000000000160014a2ab49010d139e703eb42b1e8e154abdaf8e2855024730440220603dbe2d4d8613d4e92ca9e7d561c675b1cef432579daddf4005e842723c1ef7022035010782cca44df7b4dc150ff5d3fec68b1dfd9a93f382453de2f5c697842eea0121031d430adc44627386bb00e71a7587fa5dcf64b2f415cb9570144fd882fec25fba00000000"
}