{
  "txid": "69481cf47cf64685ccc68100279fdc8c99281cd262db350d41dae9285a500aeb",
  "version": 2,
  "locktime": 0,
  "vin": [
    {
      "txid": "1623186c4e9529dcda74ab131bb64b98e8b7df5c9fd48920eb37fa1447098f96",
      "vout": 0,
      "prevout": {
        "scriptpubkey": "0014f3920631b8e959bdb1d28728d298ca9e5011d119",
        "scriptpubkey_asm": "OP_0 OP_PUSHBYTES_20 f3920631b8e959bdb1d28728d298ca9e5011d119",
        "scriptpubkey_type": "v0_p2wpkh",
        "scriptpubkey_address": "bc1q7wfqvvdca9vmmvwjsu5d9xx2negpr5ger2k966",
        "value": 20000000
      },
      "scriptsig": "",
      "scriptsig_asm": "",
      "witness": [
        "304402200766e754932a74cfc3fceef6d25ec5364ff12cb2ed504bb29ce2da17f1b0d58202200de9aa3e854d5f3161963e9d973175d6a65f698ffd723e5b37a7f6514ba55ac601",
        "027966a1ad540411714d5813092c4d39f91fe73d8602cc18daf59d14636ee30736"
      ],
      "is_coinbase": false,
      "sequence": 4294967295
    }
  ],
  "vout": [
    {
      "scriptpubkey": "76a91446b660c453db24e6ebed8bb179299619f758dd7188ac",
      "scriptpubkey_asm": "OP_DUP OP_HASH160 OP_PUSHBYTES_20 46b660c453db24e6ebed8bb179299619f758dd71 OP_EQUALVERIFY OP_CHECKSIG",
      "scriptpubkey_type": "p2pkh",
      "scriptpubkey_address": "17StnGroPUsNXBq4AVJQ1fqGftoFZh3zva",
      "value": 19995889
    }
  ],
  "size": 194,
  "weight": 449,
  "fee": 4111,
  "status": {
    "confirmed": true,
    "block_height": 834460,
    "block_hash": "00000000000000000000484a79b643b2524bbce82e5d8a442013fa5b8905ed98",
    "block_time": 1710307468
  },
  "hex": "02000000000101968f094714fa37eb2089d49f5cdfb7e8984bb61b13ab74dadc29954e6c1823160000000000ffffffff01f11c3101000000001976a91446b660c453db24e6ebed8bb179299619f758dd7188ac0247304402200766e754932a74cfc3fceef6d25ec5364ff12cb2ed504bb29ce2da17f1b0d58202200de9aa3e854d5f3161963e9d973175d6a65f698ffd723e5b37a7f6514ba55ac60121027966a1ad540411714d5813092c4d39f91fe73d8602cc18daf59d14636ee3073600000000"
}