{
  "txid": "6953f23701a306b0893a2d0761544407759511c80e057c113b2dd260046c7e91",
  "version": 1,
  "locktime": 0,
  "vin": [
    {
      "txid": "de758afe233853f2b9e8985488faaeca0c1d189bba310e404359013d2db25fd5",
      "vout": 1,
      "prevout": {
        "scriptpubkey": "00148fb0cc9a573dea01c5e8c727fe248dac6a749faa",
        "scriptpubkey_asm": "OP_0 OP_PUSHBYTES_20 8fb0cc9a573dea01c5e8c727fe248dac6a749faa",
        "scriptpubkey_type": "v0_p2wpkh",
        "scriptpubkey_address": "bc1q37cvexjh8h4qr30gcunlufyd4348f8a2llsgrv",
        "value": 69089032
      },
      "scriptsig": "",
      "scriptsig_asm": "",
      "witness": [
        "3045022100ffe694eb6aaf92877520c74c92d3ce356cdea7267cce396888c6bd5899eee31202203423597cc57dd2c0b0c026040b3a5debd23c82823f8b9fd58e27edd0b1b7549701",
        "025e2220725baca945fdace5fc51f88a2c3056518852f902a4b184d068ed97dd12"
      ],
      "is_coinbase": false,
      "sequence": 4294967295
    }
  ],
  "vout": [
    {
      "scriptpubkey": "a9144a7efbd57be4157ae9218de3019fe2f45f58bd6e87",
      "scriptpubkey_asm": "OP_HASH160 OP_PUSHBYTES_20 4a7efbd57be4157ae9218de3019fe2f45f58bd6e OP_EQUAL",
      "scriptpubkey_type": "p2sh",
      "scriptpubkey_address": "38Uv3iu3EauUHZE5Dqvz9DJ6cudjH4RWAP",
      "value": 408900
    },
    {
      "scriptpubkey": "0014f17a827889d95615e832d53d93502943c213ee94",
      "scriptpubkey_asm": "OP_0 OP_PUSHBYTES_20 f17a827889d95615e832d53d93502943c213ee94",
      "scriptpubkey_type": "v0_p2wpkh",
      "scriptpubkey_address": "bc1q79agy7yfm9tpt6pj657ex5pfg0pp8m55y2g8p3",
      "value": 68676472
    }
  ],
  "size": 224,
  "weight": 566,
  "fee": 3660,
  "status": {
    "confirmed": true,
    "block_height": 834638,
    "block_hash": "000000000000000000025f742c626208ac87e0b7d15054abb4a19ca2d735a54e",
    "block_time": 1710405325
  },
  "hex": "01000000000101d55fb22d3d015943400e31ba9b181d0ccaaefa885498e8b9f2533823fe8a75de0100000000ffffffff02443d06000000000017a9144a7efbd57be4157ae9218de3019fe2f45f58bd6e8778eb170400000000160014f17a827889d95615e832d53d93502943c213ee9402483045022100ffe694eb6aaf92877520c74c92d3ce356cdea7267cce396888c6bd5899eee31202203423597cc57dd2c0b0c026040b3a5debd23c82823f8b9fd58e27edd0b1b754970121025e2220725baca945fdace5fc51f88a2c3056518852f902a4b184d068ed97dd1200000000"
}