{
  "txid": "695ee155ab71adde88b72d58cbbfa6f83bdf2cb79a151f248abea26dca04e88d",
  "version": 2,
  "locktime": 0,
  "vin": [
    {
      "txid": "4e3e235645095375b07ddb912745f1a674a51d9d7d83db61c7d07cec47ebee81",
      "vout": 0,
      "prevout": {
        "scriptpubkey": "51201f1c94c9d0ba1c045b3de9d5667b4c2937dff859ac0904ea268b55fa65256200",
        "scriptpubkey_asm": "OP_PUSHNUM_1 OP_PUSHBYTES_32 1f1c94c9d0ba1c045b3de9d5667b4c2937dff859ac0904ea268b55fa65256200",
        "scriptpubkey_type": "v1_p2tr",
        "scriptpubkey_address": "bc1pruwffjwshgwqgkeaa82kv76v9ymal7ze4sysf63x3d2l5ef9vgqqqmsw22",
        "value": 8046
      },
      "scriptsig": "",
      "scriptsig_asm": "",
      "witness": [
        "1b78d2159f5815bdd0e34f86fc2989072d054b349742f59b36a5765636c7f88fffe501682a51bf4bc443fea6a20ea45446f477275897b0c3f0839ed72b4e20a0",
        "202984bf1575724d51dbb6121da95381d9193028762eb8521a49e21ae5c998c723ac0063036f72640101106170706c69636174696f6e2f6a736f6e00387b2270223a226272632d3230222c226f70223a227472616e73666572222c227469636b223a22314f6e38222c22616d74223a22313830227d68",
        "c12984bf1575724d51dbb6121da95381d9193028762eb8521a49e21ae5c998c723"
      ],
      "is_coinbase": false,
      "sequence": 4294967293
    }
  ],
  "vout": [
    {
      "scriptpubkey": "51204b3def6b7bdf9758a317f5eafc03b3a744cc6bb7dad731af7edbfbb555c2be75",
      "scriptpubkey_asm": "OP_PUSHNUM_1 OP_PUSHBYTES_32 4b3def6b7bdf9758a317f5eafc03b3a744cc6bb7dad731af7edbfbb555c2be75",
      "scriptpubkey_type": "v1_p2tr",
      "scriptpubkey_address": "bc1pfv7776mmm7t43gch7h40cqan5azvc6ahmttnrtm7m0am24wzhe6smdt3m6",
      "value": 546
    }
  ],
  "size": 315,
  "weight": 597,
  "fee": 7500,
  "status": {
    "confirmed": true,
    "block_height": 834460,
    "block_hash": "00000000000000000000484a79b643b2524bbce82e5d8a442013fa5b8905ed98",
    "block_time": 1710307468
  },
  "hex": "0200000000010181eeeb47ec7cd0c761db837d9d1da574a6f1452791db7db07553094556233e4e0000000000fdffffff0122020000000000002251204b3def6b7bdf9758a317f5eafc03b3a744cc6bb7dad731af7edbfbb555c2be7503401b78d2159f5815bdd0e34f86fc2989072d054b349742f59b36a5765636c7f88fffe501682a51bf4bc443fea6a20ea45446f477275897b0c3f0839ed72b4e20a076202984bf1575724d51dbb6121da95381d9193028762eb8521a49e21ae5c998c723ac0063036f72640101106170706c69636174696f6e2f6a736f6e00387b2270223a226272632d3230222c226f70223a227472616e73666572222c227469636b223a22314f6e38222c22616d74223a22313830227d6821c12984bf1575724d51dbb6121da95381d9193028762eb8521a49e21ae5c998c72300000000"
}