{
  "txid": "696bcce1ade2f87a0690541f4e4e49a81300b98fa2b5505959c9b15223af8248",
  "version": 2,
  "locktime": 0,
  "vin": [
    {
      "txid": "d18ed70056c00a6cd5de0ccb10b1ae8f7dd5250f9d0f22c727aba826d03302c8",
      "vout": 22,
      "prevout": {
        "scriptpubkey": "512080ba857dad2b5ef149a9e19237cc2fa6052855cf3cfb1dd7b9ff3c7e701f1bcd",
        "scriptpubkey_asm": "OP_PUSHNUM_1 OP_PUSHBYTES_32 80ba857dad2b5ef149a9e19237cc2fa6052855cf3cfb1dd7b9ff3c7e701f1bcd",
        "scriptpubkey_type": "v1_p2tr",
        "scriptpubkey_address": "bc1pszag2ldd9d00zjdfuxfr0np05czjs4w08na3m4aelu78uuqlr0xsjaztmw",
        "value": 3010
      },
      "scriptsig": "",
      "scriptsig_asm": "",
      "witness": [
        "310fb7b2bbc78657ac1b03c2bce50c5c9766cd26a187624174e604dba92caf8a7a0850e494155e686e37d0f791e1df966cd0833df716d0a6d92296c2293cecad",
        "207a7e20cacbfa518193a69e9c3d71310739a814890c7d3f13c0696402d4b54b71ac0063036f726401011e6170706c69636174696f6e2f6a736f6e3b636861727365743d7574662d38004cbf7b2270223a22706f772d3230222c226f70223a226d696e74222c227469636b223a2250455045222c22616d74223a2231303030222c22736f6c7574696f6e223a22504550453a6263317168337833756334707a796478716436757776376e3732676874787a33753937306564663078613a303030303030303030303030303030303030303139393431613561653132383937363539383134343239323533333030353762306461393666336465613163353a3138363733303830353235227d68",
        "c0e5c6b8d70510d88b341fcdd9a2aa08913e89d9e736480c530fde3fe13419cdab"
      ],
      "is_coinbase": false,
      "sequence": 4294967295
    }
  ],
  "vout": [
    {
      "scriptpubkey": "0014bc4d1e62a1111a60375c733d3f291759851e17cf",
      "scriptpubkey_asm": "OP_0 OP_PUSHBYTES_20 bc4d1e62a1111a60375c733d3f291759851e17cf",
      "scriptpubkey_type": "v0_p2wpkh",
      "scriptpubkey_address": "bc1qh3x3uc4pzydxqd6uwv7n72ghtxz3u970edf0xa",
      "value": 546
    }
  ],
  "size": 455,
  "weight": 701,
  "fee": 2464,
  "status": {
    "confirmed": true,
    "block_height": 834460,
    "block_hash": "00000000000000000000484a79b643b2524bbce82e5d8a442013fa5b8905ed98",
    "block_time": 1710307468
  },
  "hex": "02000000000101c80233d026a8ab27c7220f9d0f25d57d8faeb110cb0cded56c0ac05600d78ed11600000000ffffffff012202000000000000160014bc4d1e62a1111a60375c733d3f291759851e17cf0340310fb7b2bbc78657ac1b03c2bce50c5c9766cd26a187624174e604dba92caf8a7a0850e494155e686e37d0f791e1df966cd0833df716d0a6d92296c2293cecadfd0c01207a7e20cacbfa518193a69e9c3d71310739a814890c7d3f13c0696402d4b54b71ac0063036f726401011e6170706c69636174696f6e2f6a736f6e3b636861727365743d7574662d38004cbf7b2270223a22706f772d3230222c226f70223a226d696e74222c227469636b223a2250455045222c22616d74223a2231303030222c22736f6c7574696f6e223a22504550453a6263317168337833756334707a796478716436757776376e3732676874787a33753937306564663078613a303030303030303030303030303030303030303139393431613561653132383937363539383134343239323533333030353762306461393666336465613163353a3138363733303830353235227d6821c0e5c6b8d70510d88b341fcdd9a2aa08913e89d9e736480c530fde3fe13419cdab00000000"
}