{
  "txid": "6971c69a58cc8338153bde717afc31bc6b1451edc3795ad2efa40428a00d665c",
  "version": 2,
  "locktime": 0,
  "vin": [
    {
      "txid": "8486ecb4df0880316dd6e82b3971b4df187aff23765bc3a47f8d78bb53aa273c",
      "vout": 116,
      "prevout": {
        "scriptpubkey": "512023cd85a3954e42ca1032097fbc15aa222617fd71674ae705afc498aa10bfa1ab",
        "scriptpubkey_asm": "OP_PUSHNUM_1 OP_PUSHBYTES_32 23cd85a3954e42ca1032097fbc15aa222617fd71674ae705afc498aa10bfa1ab",
        "scriptpubkey_type": "v1_p2tr",
        "scriptpubkey_address": "bc1py0xctgu4fepv5ypjp9lmc9d2ygnp0lt3va9wwpd0cjv25y9l5x4smj8fht",
        "value": 2575
      },
      "scriptsig": "",
      "scriptsig_asm": "",
      "witness": [
        "f98c2ff788700b105d9ce1e44ed35f6a0238b86eefdcd4987b52eabad019542bef11f2a1df1992b720edb03ed77cc5212104e2e2a8858c70fc711b50adad499d",
        "20780e98969f03f350ea22fa00c49d2c2cb7eb2f44b6965069c81f866794f63298ac0063036f726401010a746578742f706c61696e00367b2270223a226272632d3230222c226f70223a226d696e74222c227469636b223a2261616161222c22616d74223a223130303030227d68",
        "c1780e98969f03f350ea22fa00c49d2c2cb7eb2f44b6965069c81f866794f63298"
      ],
      "is_coinbase": false,
      "sequence": 4261412863
    }
  ],
  "vout": [
    {
      "scriptpubkey": "0014ddd7ef12ea6f78edcc1e8e7afa12c01ab59f3339",
      "scriptpubkey_asm": "OP_0 OP_PUSHBYTES_20 ddd7ef12ea6f78edcc1e8e7afa12c01ab59f3339",
      "scriptpubkey_type": "v0_p2wpkh",
      "scriptpubkey_address": "bc1qmht77yh2dauwmnq73ea05ykqr26e7veea8spz6",
      "value": 546
    }
  ],
  "size": 295,
  "weight": 541,
  "fee": 2029,
  "status": {
    "confirmed": true,
    "block_height": 834460,
    "block_hash": "00000000000000000000484a79b643b2524bbce82e5d8a442013fa5b8905ed98",
    "block_time": 1710307468
  },
  "hex": "020000000001013c27aa53bb788d7fa4c35b7623ff7a18dfb471392be8d66d318008dfb4ec86847400000000fffffffd012202000000000000160014ddd7ef12ea6f78edcc1e8e7afa12c01ab59f33390340f98c2ff788700b105d9ce1e44ed35f6a0238b86eefdcd4987b52eabad019542bef11f2a1df1992b720edb03ed77cc5212104e2e2a8858c70fc711b50adad499d6e20780e98969f03f350ea22fa00c49d2c2cb7eb2f44b6965069c81f866794f63298ac0063036f726401010a746578742f706c61696e00367b2270223a226272632d3230222c226f70223a226d696e74222c227469636b223a2261616161222c22616d74223a223130303030227d6821c1780e98969f03f350ea22fa00c49d2c2cb7eb2f44b6965069c81f866794f6329800000000"
}