{
  "txid": "69714ee42a6485f35f49ba5370cd8db1b4b760884b9d461c5e0c19244ea6492e",
  "version": 2,
  "locktime": 0,
  "vin": [
    {
      "txid": "0edf1334aa7fbc857f0c4107b2951df209d4836f2a9323cbd081beb8fc768ed9",
      "vout": 3,
      "prevout": {
        "scriptpubkey": "51209af3ca181a9f294056fdf812b7c298916ba651384b0bf5aa30f109b9f813f560",
        "scriptpubkey_asm": "OP_PUSHNUM_1 OP_PUSHBYTES_32 9af3ca181a9f294056fdf812b7c298916ba651384b0bf5aa30f109b9f813f560",
        "scriptpubkey_type": "v1_p2tr",
        "scriptpubkey_address": "bc1pnteu5xq6nu55q4halqft0s5cj946v5fcfv9lt23s7yymn7qn74sqankg25",
        "value": 637948
      },
      "scriptsig": "",
      "scriptsig_asm": "",
      "witness": [
        "37c2458a6aa62e356bfee3f95a7d54548359c0bb9c1c13ff3fb975e081da6371327052a79b5a029ad9dca8f9d46cd38777cd585059c987d20f96324c7984948d"
      ],
      "is_coinbase": false,
      "sequence": 4294967295
    }
  ],
  "vout": [
    {
      "scriptpubkey": "001448dfa704897f78fdfbc2b9534055dd9b219ef5a8",
      "scriptpubkey_asm": "OP_0 OP_PUSHBYTES_20 48dfa704897f78fdfbc2b9534055dd9b219ef5a8",
      "scriptpubkey_type": "v0_p2wpkh",
      "scriptpubkey_address": "bc1qfr06wpyf0au0m77zh9f5q4wanvseaadgq9qhf9",
      "value": 12292
    },
    {
      "scriptpubkey": "51209af3ca181a9f294056fdf812b7c298916ba651384b0bf5aa30f109b9f813f560",
      "scriptpubkey_asm": "OP_PUSHNUM_1 OP_PUSHBYTES_32 9af3ca181a9f294056fdf812b7c298916ba651384b0bf5aa30f109b9f813f560",
      "scriptpubkey_type": "v1_p2tr",
      "scriptpubkey_address": "bc1pnteu5xq6nu55q4halqft0s5cj946v5fcfv9lt23s7yymn7qn74sqankg25",
      "value": 623668
    }
  ],
  "size": 193,
  "weight": 568,
  "fee": 1988,
  "status": {
    "confirmed": true,
    "block_height": 834552,
    "block_hash": "00000000000000000001dd0468a70c94f619251d286585cff57aeb4bd9ede330",
    "block_time": 1710355598
  },
  "hex": "02000000000101d98e76fcb8be81d0cb23932a6f83d409f21d95b207410c7f85bc7faa3413df0e0300000000ffffffff02043000000000000016001448dfa704897f78fdfbc2b9534055dd9b219ef5a834840900000000002251209af3ca181a9f294056fdf812b7c298916ba651384b0bf5aa30f109b9f813f560014037c2458a6aa62e356bfee3f95a7d54548359c0bb9c1c13ff3fb975e081da6371327052a79b5a029ad9dca8f9d46cd38777cd585059c987d20f96324c7984948d00000000"
}