{
  "txid": "69745335c4ba3b4c8b52f2dd68f4a1297cbd787e0e76f1993aca6e5003384a56",
  "version": 2,
  "locktime": 0,
  "vin": [
    {
      "txid": "5c3864e3e852ec96346d84fbc3195b536ef1db1891f28d4b48dba69c282b1a0d",
      "vout": 8,
      "prevout": {
        "scriptpubkey": "5120e922ce7a9ae0b9c4f1bcf6eab53abca99d77b4b736f504aaeb247f436bbee99f",
        "scriptpubkey_asm": "OP_PUSHNUM_1 OP_PUSHBYTES_32 e922ce7a9ae0b9c4f1bcf6eab53abca99d77b4b736f504aaeb247f436bbee99f",
        "scriptpubkey_type": "v1_p2tr",
        "scriptpubkey_address": "bc1pay3vu756uzuufudu7m4t2w4u4xwh0d9hxm6sf2hty3l5x6a7ax0ssz6g55",
        "value": 3055
      },
      "scriptsig": "",
      "scriptsig_asm": "",
      "witness": [
        "7ca2e9d2835656ac5cbde22b5dbb44eca6e647af419a45f86f16f042c7c2d5cd82e2224b487f0488bba15363a3cb4c7bdc757eb1df8ce2d703a98cddebc3d6b7",
        "20aaf0b5c5d8ecc10404f7e2c8ac33ad2b49b5c207c006394d11e963df97a32a0aac0063036f726401011e6170706c69636174696f6e2f6a736f6e3b636861727365743d7574662d38004cd37b2270223a22706f772d3230222c226f70223a226d696e74222c227469636b223a2250455045222c22616d74223a2231303030222c22736f6c7574696f6e223a22504550453a626331703237796d68736b396a36716e706b7367767973363471356663717670646465716a6832716a796c6330793861667138663261727375637776796b3a303030303030303030303030303030303030303139393431613561653132383937363539383134343239323533333030353762306461393666336465613163353a3534363239383730373134227d68",
        "c129e6ca6c8c5ab61eaab81da0d3884f0ac7596b050aac6663ac46dee308a1dbc8"
      ],
      "is_coinbase": false,
      "sequence": 4294967295
    }
  ],
  "vout": [
    {
      "scriptpubkey": "51205789bbc2c5968130da086121aa8289c01816b72095d40913f8790fd480e95747",
      "scriptpubkey_asm": "OP_PUSHNUM_1 OP_PUSHBYTES_32 5789bbc2c5968130da086121aa8289c01816b72095d40913f8790fd480e95747",
      "scriptpubkey_type": "v1_p2tr",
      "scriptpubkey_address": "bc1p27ymhsk9j6qnpksgvys64q5fcqvpddeqjh2qjylc0y8afq8f2arsucwvyk",
      "value": 546
    }
  ],
  "size": 487,
  "weight": 769,
  "fee": 2509,
  "status": {
    "confirmed": true,
    "block_height": 834460,
    "block_hash": "00000000000000000000484a79b643b2524bbce82e5d8a442013fa5b8905ed98",
    "block_time": 1710307468
  },
  "hex": "020000000001010d1a2b289ca6db484b8df29118dbf16e535b19c3fb846d3496ec52e8e364385c0800000000ffffffff0122020000000000002251205789bbc2c5968130da086121aa8289c01816b72095d40913f8790fd480e9574703407ca2e9d2835656ac5cbde22b5dbb44eca6e647af419a45f86f16f042c7c2d5cd82e2224b487f0488bba15363a3cb4c7bdc757eb1df8ce2d703a98cddebc3d6b7fd200120aaf0b5c5d8ecc10404f7e2c8ac33ad2b49b5c207c006394d11e963df97a32a0aac0063036f726401011e6170706c69636174696f6e2f6a736f6e3b636861727365743d7574662d38004cd37b2270223a22706f772d3230222c226f70223a226d696e74222c227469636b223a2250455045222c22616d74223a2231303030222c22736f6c7574696f6e223a22504550453a626331703237796d68736b396a36716e706b7367767973363471356663717670646465716a6832716a796c6330793861667138663261727375637776796b3a303030303030303030303030303030303030303139393431613561653132383937363539383134343239323533333030353762306461393666336465613163353a3534363239383730373134227d6821c129e6ca6c8c5ab61eaab81da0d3884f0ac7596b050aac6663ac46dee308a1dbc800000000"
}