{
  "txid": "6977bf58e30728ee7e728c5d6e1a54f77e961ecdb7f7878d9c6cb66ae3cd8185",
  "version": 2,
  "locktime": 834637,
  "vin": [
    {
      "txid": "e23a98c1fbe4efcc7c17a7276e00ca3a585b98ffc7610619e140b00f9f8e3ad2",
      "vout": 1,
      "prevout": {
        "scriptpubkey": "00145e64ac2a8330967cceb488e894e20052fed9f095",
        "scriptpubkey_asm": "OP_0 OP_PUSHBYTES_20 5e64ac2a8330967cceb488e894e20052fed9f095",
        "scriptpubkey_type": "v0_p2wpkh",
        "scriptpubkey_address": "bc1qtej2c25rxzt8en453r5ffcsq2tldnuy4xzrjl5",
        "value": 6857478
      },
      "scriptsig": "",
      "scriptsig_asm": "",
      "witness": [
        "30440220283f1a919158d678156e984d8b7f15a3831fed4d8a80597939b1fd8b5e1efc83022079a9ec13b2939ead98e813ef87d0996c9aa7004df990851664b924c83ee7283901",
        "03770a23cd7b026138f8825bd2cb54f1ebb75623b4d366334504996e28011a761d"
      ],
      "is_coinbase": false,
      "sequence": 4294967294
    },
    {
      "txid": "569bd0033a30662ca98f4b63567ce8ca8441467a2719e7859fb02d73ae615d85",
      "vout": 182,
      "prevout": {
        "scriptpubkey": "0014a5ad1e68b858da14680bb92b8d307809b07dcd1a",
        "scriptpubkey_asm": "OP_0 OP_PUSHBYTES_20 a5ad1e68b858da14680bb92b8d307809b07dcd1a",
        "scriptpubkey_type": "v0_p2wpkh",
        "scriptpubkey_address": "bc1q5kk3u69ctrdpg6qthy4c6vrcpxc8mng6gwq3ze",
        "value": 597130
      },
      "scriptsig": "",
      "scriptsig_asm": "",
      "witness": [
        "30440220366eb5c75bea4ebeaab14db3f7359e62edbcbf95c89b745be711a138b7b0280502203f476ace7610f9eccbb60e6d16d3bfaac170d4007856b6f56b8633f758d943ff01",
        "0298846575924c36a7efc2ffd353914d331e09845215c9f004e80bb1489f73043c"
      ],
      "is_coinbase": false,
      "sequence": 4294967294
    }
  ],
  "vout": [
    {
      "scriptpubkey": "76a9148b94bf7c670cdf7beed8d7a83fdc15e888a0b91588ac",
      "scriptpubkey_asm": "OP_DUP OP_HASH160 OP_PUSHBYTES_20 8b94bf7c670cdf7beed8d7a83fdc15e888a0b915 OP_EQUALVERIFY OP_CHECKSIG",
      "scriptpubkey_type": "p2pkh",
      "scriptpubkey_address": "1Dj37revFd64G39G1NiQWVYYZ4zL8fjazs",
      "value": 7448151
    }
  ],
  "size": 342,
  "weight": 720,
  "fee": 6457,
  "status": {
    "confirmed": true,
    "block_height": 834638,
    "block_hash": "000000000000000000025f742c626208ac87e0b7d15054abb4a19ca2d735a54e",
    "block_time": 1710405325
  },
  "hex": "02000000000102d23a8e9f0fb040e1190661c7ff985b583aca006e27a7177cccefe4fbc1983ae20100000000feffffff855d61ae732db09f85e719277a464184cae87c56634b8fa92c66303a03d09b56b600000000feffffff0157a67100000000001976a9148b94bf7c670cdf7beed8d7a83fdc15e888a0b91588ac024730440220283f1a919158d678156e984d8b7f15a3831fed4d8a80597939b1fd8b5e1efc83022079a9ec13b2939ead98e813ef87d0996c9aa7004df990851664b924c83ee72839012103770a23cd7b026138f8825bd2cb54f1ebb75623b4d366334504996e28011a761d024730440220366eb5c75bea4ebeaab14db3f7359e62edbcbf95c89b745be711a138b7b0280502203f476ace7610f9eccbb60e6d16d3bfaac170d4007856b6f56b8633f758d943ff01210298846575924c36a7efc2ffd353914d331e09845215c9f004e80bb1489f73043c4dbc0c00"
}