{
  "txid": "698ba5a7447a63aae6d9fe00a3124cb15b38da7b1467ab2930436f70b1c102b5",
  "version": 2,
  "locktime": 0,
  "vin": [
    {
      "txid": "1e1f227c5e7c50a4329447f22c7230db6f316ba3e890b7dd26d6b99baffab6d7",
      "vout": 1,
      "prevout": {
        "scriptpubkey": "0014004de04f6d89bb018680a90c26b0c33dee8e9755",
        "scriptpubkey_asm": "OP_0 OP_PUSHBYTES_20 004de04f6d89bb018680a90c26b0c33dee8e9755",
        "scriptpubkey_type": "v0_p2wpkh",
        "scriptpubkey_address": "bc1qqpx7qnmd3xasrp5q4yxzdvxr8hhga964yu4h0w",
        "value": 308472
      },
      "scriptsig": "",
      "scriptsig_asm": "",
      "witness": [
        "3045022100d4694d123ded616c2d1323abee770af5d432d124a9fdec7dafd7965d53c666d202206c9b5c758f6effbaf343fd84fafb66d8db86d9cff814d24f9092cbb595991b2101",
        "025f06ce312b4e74e1199e123a784c8e0fc210aca83567f958c3864494d1b5e79f"
      ],
      "is_coinbase": false,
      "sequence": 4294967295
    },
    {
      "txid": "510ab5a440bdba3ad390b2504dd41bd97ab7d68370926a823cf5d0e2ed5312cf",
      "vout": 0,
      "prevout": {
        "scriptpubkey": "00143b06192c826c49891d3565bce037d0dc1e1e9244",
        "scriptpubkey_asm": "OP_0 OP_PUSHBYTES_20 3b06192c826c49891d3565bce037d0dc1e1e9244",
        "scriptpubkey_type": "v0_p2wpkh",
        "scriptpubkey_address": "bc1q8vrpjtyzd3ycj8f4vk7wqd7sms0payjy9j94k4",
        "value": 19051
      },
      "scriptsig": "",
      "scriptsig_asm": "",
      "witness": [
        "3044022068ecd289b161dc9cb1d59fa162a76be72f5e3b2adf04dd5b940581470a560270022047af03cdd4af3902b66a0ef9147355a74082a2064743293475d69df850f33bc001",
        "03ead069867b0101021fca6872d61303e61875972eefdb4978e3761ca19a4bd0b2"
      ],
      "is_coinbase": false,
      "sequence": 4294967295
    }
  ],
  "vout": [
    {
      "scriptpubkey": "00140709e29165d51dfd0e65d26b76c022b67453519f",
      "scriptpubkey_asm": "OP_0 OP_PUSHBYTES_20 0709e29165d51dfd0e65d26b76c022b67453519f",
      "scriptpubkey_type": "v0_p2wpkh",
      "scriptpubkey_address": "bc1qquy79yt965wl6rn96f4hdspzke69x5vlfrhat6",
      "value": 324819
    }
  ],
  "size": 340,
  "weight": 709,
  "fee": 2704,
  "status": {
    "confirmed": true,
    "block_height": 834638,
    "block_hash": "000000000000000000025f742c626208ac87e0b7d15054abb4a19ca2d735a54e",
    "block_time": 1710405325
  },
  "hex": "02000000000102d7b6faaf9bb9d626ddb790e8a36b316fdb30722cf2479432a4507c5e7c221f1e0100000000ffffffffcf1253ede2d0f53c826a927083d6b77ad91bd44d50b290d33ababd40a4b50a510000000000ffffffff01d3f40400000000001600140709e29165d51dfd0e65d26b76c022b67453519f02483045022100d4694d123ded616c2d1323abee770af5d432d124a9fdec7dafd7965d53c666d202206c9b5c758f6effbaf343fd84fafb66d8db86d9cff814d24f9092cbb595991b210121025f06ce312b4e74e1199e123a784c8e0fc210aca83567f958c3864494d1b5e79f02473044022068ecd289b161dc9cb1d59fa162a76be72f5e3b2adf04dd5b940581470a560270022047af03cdd4af3902b66a0ef9147355a74082a2064743293475d69df850f33bc0012103ead069867b0101021fca6872d61303e61875972eefdb4978e3761ca19a4bd0b200000000"
}