{
  "txid": "6998f17a59cd28354f6822549a49bd4ffd884b0164165a38a796b167edbfbaaf",
  "version": 1,
  "locktime": 0,
  "vin": [
    {
      "txid": "4e4b14c044f82356e5255cf403e06d94180546af8606e5bd1af4738d3f0ab7c3",
      "vout": 1,
      "prevout": {
        "scriptpubkey": "001448721845d8d8ad552aecdd259053f9fcc1f10a72",
        "scriptpubkey_asm": "OP_0 OP_PUSHBYTES_20 48721845d8d8ad552aecdd259053f9fcc1f10a72",
        "scriptpubkey_type": "v0_p2wpkh",
        "scriptpubkey_address": "bc1qfpeps3wcmzk422hvm5jeq5lelnqlzznjwyfy69",
        "value": 5232287700
      },
      "scriptsig": "",
      "scriptsig_asm": "",
      "witness": [
        "304502210094c888bebae9b151cfa826c91719a985c6d8db69205eab650bc826efcd64f3ec02200fdbaf29827ba3904277bade35d7ced1af7a7274f7ea448f28123f3e780ac56701",
        "02dc8683704adb6dbea6d1e0bb392ab45b57dcc9c5f919b7d59389fdd9fb096f25"
      ],
      "is_coinbase": false,
      "sequence": 4294967295
    }
  ],
  "vout": [
    {
      "scriptpubkey": "76a914d8a8e8df6c6d21401ebd068e37fd02ce5ec87b4488ac",
      "scriptpubkey_asm": "OP_DUP OP_HASH160 OP_PUSHBYTES_20 d8a8e8df6c6d21401ebd068e37fd02ce5ec87b44 OP_EQUALVERIFY OP_CHECKSIG",
      "scriptpubkey_type": "p2pkh",
      "scriptpubkey_address": "1LkbJV5yPrpopRsfUZb8K1wvLGQwrQqRhF",
      "value": 122796
    },
    {
      "scriptpubkey": "001448721845d8d8ad552aecdd259053f9fcc1f10a72",
      "scriptpubkey_asm": "OP_0 OP_PUSHBYTES_20 48721845d8d8ad552aecdd259053f9fcc1f10a72",
      "scriptpubkey_type": "v0_p2wpkh",
      "scriptpubkey_address": "bc1qfpeps3wcmzk422hvm5jeq5lelnqlzznjwyfy69",
      "value": 5232162830
    }
  ],
  "size": 226,
  "weight": 574,
  "fee": 2074,
  "status": {
    "confirmed": true,
    "block_height": 834638,
    "block_hash": "000000000000000000025f742c626208ac87e0b7d15054abb4a19ca2d735a54e",
    "block_time": 1710405325
  },
  "hex": "01000000000101c3b70a3f8d73f41abde50686af460518946de003f45c25e55623f844c0144b4e0100000000ffffffff02acdf0100000000001976a914d8a8e8df6c6d21401ebd068e37fd02ce5ec87b4488ac0e78dc370100000016001448721845d8d8ad552aecdd259053f9fcc1f10a720248304502210094c888bebae9b151cfa826c91719a985c6d8db69205eab650bc826efcd64f3ec02200fdbaf29827ba3904277bade35d7ced1af7a7274f7ea448f28123f3e780ac567012102dc8683704adb6dbea6d1e0bb392ab45b57dcc9c5f919b7d59389fdd9fb096f2500000000"
}