{
  "txid": "69b09ca51c68e52231510f5358aba50a705e73e99a4aed455ad4f1906c4f17dc",
  "version": 2,
  "locktime": 0,
  "vin": [
    {
      "txid": "0c6cae1a637038e2b93b5e9e0d785cfad16d8bdea4070850c7f48efc7255877f",
      "vout": 1,
      "prevout": {
        "scriptpubkey": "a914d86bcd8c487ad519e95c6557e7463d579cce14a287",
        "scriptpubkey_asm": "OP_HASH160 OP_PUSHBYTES_20 d86bcd8c487ad519e95c6557e7463d579cce14a2 OP_EQUAL",
        "scriptpubkey_type": "p2sh",
        "scriptpubkey_address": "3MRM2FtJBPLF1YXVGfPM3eeVtfu6DFsGbb",
        "value": 2662470
      },
      "scriptsig": "1600146b4d1d18e38d14fec0419fa3dfa3c93c7b0f3c78",
      "scriptsig_asm": "OP_PUSHBYTES_22 00146b4d1d18e38d14fec0419fa3dfa3c93c7b0f3c78",
      "witness": [
        "304402201cf0a9fc350f1181a8b0ee9a8c369886ac8342da2129becf4a5816957d1a02d902206c7fbb7e16e1c630c4baf4fbd5b7ea0eebbd863fd705bab17713c39e2cdf43fb01",
        "02f4f2a864f77a4a4e6230f08476b9144d7676de25c61d7795c98073e20d09e652"
      ],
      "is_coinbase": false,
      "sequence": 4294967295,
      "inner_redeemscript_asm": "OP_0 OP_PUSHBYTES_20 6b4d1d18e38d14fec0419fa3dfa3c93c7b0f3c78"
    }
  ],
  "vout": [
    {
      "scriptpubkey": "5120f23a4414b6f430a8fa41baf014ecbfff578ef0d034a58ef6c65b1e8b19d3e2c8",
      "scriptpubkey_asm": "OP_PUSHNUM_1 OP_PUSHBYTES_32 f23a4414b6f430a8fa41baf014ecbfff578ef0d034a58ef6c65b1e8b19d3e2c8",
      "scriptpubkey_type": "v1_p2tr",
      "scriptpubkey_address": "bc1p7gayg99k7sc237jphtcpfm9llatcauxsxjjcaakxtv0gkxwnutyql86gvv",
      "value": 179000
    },
    {
      "scriptpubkey": "a914d86bcd8c487ad519e95c6557e7463d579cce14a287",
      "scriptpubkey_asm": "OP_HASH160 OP_PUSHBYTES_20 d86bcd8c487ad519e95c6557e7463d579cce14a2 OP_EQUAL",
      "scriptpubkey_type": "p2sh",
      "scriptpubkey_address": "3MRM2FtJBPLF1YXVGfPM3eeVtfu6DFsGbb",
      "value": 2481169
    }
  ],
  "size": 258,
  "weight": 705,
  "fee": 2301,
  "status": {
    "confirmed": true,
    "block_height": 834460,
    "block_hash": "00000000000000000000484a79b643b2524bbce82e5d8a442013fa5b8905ed98",
    "block_time": 1710307468
  },
  "hex": "020000000001017f875572fc8ef4c7500807a4de8b6dd1fa5c780d9e5e3bb9e23870631aae6c0c01000000171600146b4d1d18e38d14fec0419fa3dfa3c93c7b0f3c78ffffffff0238bb020000000000225120f23a4414b6f430a8fa41baf014ecbfff578ef0d034a58ef6c65b1e8b19d3e2c811dc25000000000017a914d86bcd8c487ad519e95c6557e7463d579cce14a2870247304402201cf0a9fc350f1181a8b0ee9a8c369886ac8342da2129becf4a5816957d1a02d902206c7fbb7e16e1c630c4baf4fbd5b7ea0eebbd863fd705bab17713c39e2cdf43fb012102f4f2a864f77a4a4e6230f08476b9144d7676de25c61d7795c98073e20d09e65200000000"
}