{
  "txid": "69c001ce6b95e03c09ccb66016c70d8113439d1c0cf5b1d478591146ca454255",
  "version": 2,
  "locktime": 0,
  "vin": [
    {
      "txid": "6fd2ce6b7c4040b52535a22d19ef2cc0ae21ddadce8c80b50fb1fac3ef58115b",
      "vout": 1,
      "prevout": {
        "scriptpubkey": "5120b745858975d80a8e1f2499610b82b8e9308ef8aef661771b3e9e06459a3a0a0b",
        "scriptpubkey_asm": "OP_PUSHNUM_1 OP_PUSHBYTES_32 b745858975d80a8e1f2499610b82b8e9308ef8aef661771b3e9e06459a3a0a0b",
        "scriptpubkey_type": "v1_p2tr",
        "scriptpubkey_address": "bc1pkazctzt4mq9gu8eyn9sshq4caycga79w7eshwxe7ncrytx36pg9ss6rsud",
        "value": 1135216
      },
      "scriptsig": "",
      "scriptsig_asm": "",
      "witness": [
        "b3207cebdb76ae445701df85b136823793a6c907e324bbdfcfcb8b2801a8fe909861e1e3b5c5659a4167364f305e053d4bb8457a9b0dc90f553ea21073d69e66"
      ],
      "is_coinbase": false,
      "sequence": 4294967293
    }
  ],
  "vout": [
    {
      "scriptpubkey": "51203713538c1ccf687e9c3d6c364322f3f8c2e0747fd3576961c4626b277cd96189",
      "scriptpubkey_asm": "OP_PUSHNUM_1 OP_PUSHBYTES_32 3713538c1ccf687e9c3d6c364322f3f8c2e0747fd3576961c4626b277cd96189",
      "scriptpubkey_type": "v1_p2tr",
      "scriptpubkey_address": "bc1pxuf48rquea58a8padsmyxghnlrpwqarl6dtkjcwyvf4jwlxevxys5ekqfh",
      "value": 5000
    },
    {
      "scriptpubkey": "5120b745858975d80a8e1f2499610b82b8e9308ef8aef661771b3e9e06459a3a0a0b",
      "scriptpubkey_asm": "OP_PUSHNUM_1 OP_PUSHBYTES_32 b745858975d80a8e1f2499610b82b8e9308ef8aef661771b3e9e06459a3a0a0b",
      "scriptpubkey_type": "v1_p2tr",
      "scriptpubkey_address": "bc1pkazctzt4mq9gu8eyn9sshq4caycga79w7eshwxe7ncrytx36pg9ss6rsud",
      "value": 1127444
    }
  ],
  "size": 205,
  "weight": 616,
  "fee": 2772,
  "status": {
    "confirmed": true,
    "block_height": 834638,
    "block_hash": "000000000000000000025f742c626208ac87e0b7d15054abb4a19ca2d735a54e",
    "block_time": 1710405325
  },
  "hex": "020000000001015b1158efc3fab10fb5808cceaddd21aec02cef192da23525b540407c6bced26f0100000000fdffffff0288130000000000002251203713538c1ccf687e9c3d6c364322f3f8c2e0747fd3576961c4626b277cd961891434110000000000225120b745858975d80a8e1f2499610b82b8e9308ef8aef661771b3e9e06459a3a0a0b0140b3207cebdb76ae445701df85b136823793a6c907e324bbdfcfcb8b2801a8fe909861e1e3b5c5659a4167364f305e053d4bb8457a9b0dc90f553ea21073d69e6600000000"
}