{
  "txid": "6a00d75b34368c65711afd5a979bbc669577ac49f8885156d1f07e2c6bfa116b",
  "version": 1,
  "locktime": 0,
  "vin": [
    {
      "txid": "fa6f51c7c4099f56dac66579112d4dcd25896030f96fda0b18a99095271a8250",
      "vout": 1,
      "prevout": {
        "scriptpubkey": "00141c2e4950e70d2d930a905d3cd9ce4f83e8a2e44e",
        "scriptpubkey_asm": "OP_0 OP_PUSHBYTES_20 1c2e4950e70d2d930a905d3cd9ce4f83e8a2e44e",
        "scriptpubkey_type": "v0_p2wpkh",
        "scriptpubkey_address": "bc1qrshyj588p5kexz5st57dnnj0s0529ezwg5m69c",
        "value": 256672
      },
      "scriptsig": "",
      "scriptsig_asm": "",
      "witness": [
        "3045022100c1460365fac92b04546ee5b5ee607213367db447aedef9f68b910d8c000bd68702205a606ee5b9b7a8a987aaa2c08566282bddd02e323ceb37f41dd1077930c43e7301",
        "036d3b188e165d3e13aa690b68a9c7e62872d8620bc1271ad0fb74276e563ce196"
      ],
      "is_coinbase": false,
      "sequence": 4294967295
    }
  ],
  "vout": [
    {
      "scriptpubkey": "a914d6f212280ed64957cd4e2a974dafd85c2137ca0c87",
      "scriptpubkey_asm": "OP_HASH160 OP_PUSHBYTES_20 d6f212280ed64957cd4e2a974dafd85c2137ca0c OP_EQUAL",
      "scriptpubkey_type": "p2sh",
      "scriptpubkey_address": "3MHYWygcLXbf53X4mNskrr1cF3kaPqkzX9",
      "value": 68157
    },
    {
      "scriptpubkey": "00141c2e4950e70d2d930a905d3cd9ce4f83e8a2e44e",
      "scriptpubkey_asm": "OP_0 OP_PUSHBYTES_20 1c2e4950e70d2d930a905d3cd9ce4f83e8a2e44e",
      "scriptpubkey_type": "v0_p2wpkh",
      "scriptpubkey_address": "bc1qrshyj588p5kexz5st57dnnj0s0529ezwg5m69c",
      "value": 184681
    }
  ],
  "size": 224,
  "weight": 566,
  "fee": 3834,
  "status": {
    "confirmed": true,
    "block_height": 834638,
    "block_hash": "000000000000000000025f742c626208ac87e0b7d15054abb4a19ca2d735a54e",
    "block_time": 1710405325
  },
  "hex": "0100000000010150821a279590a9180bda6ff930608925cd4d2d117965c6da569f09c4c7516ffa0100000000ffffffff023d0a01000000000017a914d6f212280ed64957cd4e2a974dafd85c2137ca0c8769d10200000000001600141c2e4950e70d2d930a905d3cd9ce4f83e8a2e44e02483045022100c1460365fac92b04546ee5b5ee607213367db447aedef9f68b910d8c000bd68702205a606ee5b9b7a8a987aaa2c08566282bddd02e323ceb37f41dd1077930c43e730121036d3b188e165d3e13aa690b68a9c7e62872d8620bc1271ad0fb74276e563ce19600000000"
}