{
  "txid": "6a008faab6f4ab963ab6871750e94cca4577fcd5b72c3206075192a0490f0fca",
  "version": 1,
  "locktime": 0,
  "vin": [
    {
      "txid": "641d67498c6ea167fece4d952c910022cac162f0faec080470c5609b685f7ec9",
      "vout": 0,
      "prevout": {
        "scriptpubkey": "5120008db8fe3871168046ce05f1807a59ad96ad8fd4efba7cbc1a7eb2970ee9c7f8",
        "scriptpubkey_asm": "OP_PUSHNUM_1 OP_PUSHBYTES_32 008db8fe3871168046ce05f1807a59ad96ad8fd4efba7cbc1a7eb2970ee9c7f8",
        "scriptpubkey_type": "v1_p2tr",
        "scriptpubkey_address": "bc1pqzxm3l3cwytgq3kwqhccq7je4kt2mr75a7a8e0q606efwrhfcluq2uvg7d",
        "value": 2568
      },
      "scriptsig": "",
      "scriptsig_asm": "",
      "witness": [
        "bd152a167867b047b966924d21eabfc664e8a1d23997ff850eed593648c322a87ee46fd76180c15fd36a3e4b4c9ceb948e563df89b649bd7e9d7dee2abf6457883",
        "20be11f1d0580232188e877ef283eb5a1efd4e9e5290a2633605d666f59ad3fff2ac00630461746f6d03646d742ca16461726773a36b6d696e745f7469636b657263627463656e6f6e63651a008b1e6d6474696d651a65ef271e68",
        "c0be11f1d0580232188e877ef283eb5a1efd4e9e5290a2633605d666f59ad3fff2"
      ],
      "is_coinbase": false,
      "sequence": 4294967293
    }
  ],
  "vout": [
    {
      "scriptpubkey": "51209d6dbbf9bad17d0135e06ea56ec304df985f9f9bc809fa52ae6789a0947e0300",
      "scriptpubkey_asm": "OP_PUSHNUM_1 OP_PUSHBYTES_32 9d6dbbf9bad17d0135e06ea56ec304df985f9f9bc809fa52ae6789a0947e0300",
      "scriptpubkey_type": "v1_p2tr",
      "scriptpubkey_address": "bc1pn4kmh7d6697szd0qd6jkascym7v9l8umeqyl554wv7y6p9r7qvqquzkndh",
      "value": 1000
    }
  ],
  "size": 289,
  "weight": 571,
  "fee": 1568,
  "status": {
    "confirmed": true,
    "block_height": 834464,
    "block_hash": "0000000000000000000177a0869a911a2b65c9bdcd5a8bcb02b68f305bee848e",
    "block_time": 1710308296
  },
  "hex": "01000000000101c97e5f689b60c5700408ecfaf062c1ca2200912c954dcefe67a16e8c49671d640000000000fdffffff01e8030000000000002251209d6dbbf9bad17d0135e06ea56ec304df985f9f9bc809fa52ae6789a0947e03000341bd152a167867b047b966924d21eabfc664e8a1d23997ff850eed593648c322a87ee46fd76180c15fd36a3e4b4c9ceb948e563df89b649bd7e9d7dee2abf64578835b20be11f1d0580232188e877ef283eb5a1efd4e9e5290a2633605d666f59ad3fff2ac00630461746f6d03646d742ca16461726773a36b6d696e745f7469636b657263627463656e6f6e63651a008b1e6d6474696d651a65ef271e6821c0be11f1d0580232188e877ef283eb5a1efd4e9e5290a2633605d666f59ad3fff200000000"
}