{
  "txid": "6a0bfdbf8a5e7884754dcfc0d668963eff411bec6eb79a7ad5552d2b0a00984d",
  "version": 2,
  "locktime": 0,
  "vin": [
    {
      "txid": "d5cb97a2f801da40feed82e5980cc0c354657cced0267758f316e57f6385e777",
      "vout": 1,
      "prevout": {
        "scriptpubkey": "001452c2fdbe82989f646100fc68928dafe8b9cb0c18",
        "scriptpubkey_asm": "OP_0 OP_PUSHBYTES_20 52c2fdbe82989f646100fc68928dafe8b9cb0c18",
        "scriptpubkey_type": "v0_p2wpkh",
        "scriptpubkey_address": "bc1q2tp0m05znz0kgcgql35f9rd0azuukrqcmfrck5",
        "value": 369087
      },
      "scriptsig": "",
      "scriptsig_asm": "",
      "witness": [
        "304402207aaba00e82eedcfc312238561cdacee11938952cc666705bd40b72f18bb2d65202206c51db000b937460f21fe90f87c0f998c7b6e2a369f1dc77890cbfad3ef79c3301",
        "03e37cde6e2967123042d27c5dccc8feb707dcf5efd5f8d947050a80b76f21a62c"
      ],
      "is_coinbase": false,
      "sequence": 4294967295
    },
    {
      "txid": "f7901b4cee6d3f2ddb0a33b934459b342a51af418eec7f75018b0917b8dc4989",
      "vout": 2,
      "prevout": {
        "scriptpubkey": "001452c2fdbe82989f646100fc68928dafe8b9cb0c18",
        "scriptpubkey_asm": "OP_0 OP_PUSHBYTES_20 52c2fdbe82989f646100fc68928dafe8b9cb0c18",
        "scriptpubkey_type": "v0_p2wpkh",
        "scriptpubkey_address": "bc1q2tp0m05znz0kgcgql35f9rd0azuukrqcmfrck5",
        "value": 262254
      },
      "scriptsig": "",
      "scriptsig_asm": "",
      "witness": [
        "304402202b62a0cbb74d9d436a37a174552911ec50503c040205332dc10acbae10d69649022021f0bccbf4fd2026f2f388e77d4f1401aaff05dd65dcc03f2e09505c9b52155b01",
        "03e37cde6e2967123042d27c5dccc8feb707dcf5efd5f8d947050a80b76f21a62c"
      ],
      "is_coinbase": false,
      "sequence": 4294967295
    },
    {
      "txid": "ce0f27cf203fd3e95e8d94c29a2345f2eeefe602fdd27e8a7a5e1f7b6cf53703",
      "vout": 0,
      "prevout": {
        "scriptpubkey": "001452c2fdbe82989f646100fc68928dafe8b9cb0c18",
        "scriptpubkey_asm": "OP_0 OP_PUSHBYTES_20 52c2fdbe82989f646100fc68928dafe8b9cb0c18",
        "scriptpubkey_type": "v0_p2wpkh",
        "scriptpubkey_address": "bc1q2tp0m05znz0kgcgql35f9rd0azuukrqcmfrck5",
        "value": 547
      },
      "scriptsig": "",
      "scriptsig_asm": "",
      "witness": [
        "3045022100b1353bef1515f347a1787f148f99e9122eadc9c6cc0f12a4da18ecf26f4333d60220393b8e8d4d1673a3d8b1d17abe50fd99d12532a1a3d91f36a805c4e45ee4050901",
        "03e37cde6e2967123042d27c5dccc8feb707dcf5efd5f8d947050a80b76f21a62c"
      ],
      "is_coinbase": false,
      "sequence": 4294967295
    },
    {
      "txid": "f7901b4cee6d3f2ddb0a33b934459b342a51af418eec7f75018b0917b8dc4989",
      "vout": 0,
      "prevout": {
        "scriptpubkey": "001452c2fdbe82989f646100fc68928dafe8b9cb0c18",
        "scriptpubkey_asm": "OP_0 OP_PUSHBYTES_20 52c2fdbe82989f646100fc68928dafe8b9cb0c18",
        "scriptpubkey_type": "v0_p2wpkh",
        "scriptpubkey_address": "bc1q2tp0m05znz0kgcgql35f9rd0azuukrqcmfrck5",
        "value": 547
      },
      "scriptsig": "",
      "scriptsig_asm": "",
      "witness": [
        "3045022100e43be75224c1b692eb9a5ccf585623ac1a354cd8cfdd02454a886539df5e55f702202c1a52c2a38f5fa59c775050019532fc6c69f13ae1536182db14a3ceb6bb2e2701",
        "03e37cde6e2967123042d27c5dccc8feb707dcf5efd5f8d947050a80b76f21a62c"
      ],
      "is_coinbase": false,
      "sequence": 4294967295
    }
  ],
  "vout": [
    {
      "scriptpubkey": "a9148a7f018eb20405da268994605c21579a64b0f20787",
      "scriptpubkey_asm": "OP_HASH160 OP_PUSHBYTES_20 8a7f018eb20405da268994605c21579a64b0f207 OP_EQUAL",
      "scriptpubkey_type": "p2sh",
      "scriptpubkey_address": "3EKKKZ542SykE8CWh7yrxrwuWRBySEpkQr",
      "value": 628340
    }
  ],
  "size": 638,
  "weight": 1256,
  "fee": 4095,
  "status": {
    "confirmed": true,
    "block_height": 834460,
    "block_hash": "00000000000000000000484a79b643b2524bbce82e5d8a442013fa5b8905ed98",
    "block_time": 1710307468
  },
  "hex": "0200000000010477e785637fe516f3587726d0ce7c6554c3c00c98e582edfe40da01f8a297cbd50100000000ffffffff8949dcb817098b01757fec8e41af512a349b4534b9330adb2d3f6dee4c1b90f70200000000ffffffff0337f56c7b1f5e7a8a7ed2fd02e6efeef245239ac2948d5ee9d33f20cf270fce0000000000ffffffff8949dcb817098b01757fec8e41af512a349b4534b9330adb2d3f6dee4c1b90f70000000000ffffffff01749609000000000017a9148a7f018eb20405da268994605c21579a64b0f207870247304402207aaba00e82eedcfc312238561cdacee11938952cc666705bd40b72f18bb2d65202206c51db000b937460f21fe90f87c0f998c7b6e2a369f1dc77890cbfad3ef79c33012103e37cde6e2967123042d27c5dccc8feb707dcf5efd5f8d947050a80b76f21a62c0247304402202b62a0cbb74d9d436a37a174552911ec50503c040205332dc10acbae10d69649022021f0bccbf4fd2026f2f388e77d4f1401aaff05dd65dcc03f2e09505c9b52155b012103e37cde6e2967123042d27c5dccc8feb707dcf5efd5f8d947050a80b76f21a62c02483045022100b1353bef1515f347a1787f148f99e9122eadc9c6cc0f12a4da18ecf26f4333d60220393b8e8d4d1673a3d8b1d17abe50fd99d12532a1a3d91f36a805c4e45ee40509012103e37cde6e2967123042d27c5dccc8feb707dcf5efd5f8d947050a80b76f21a62c02483045022100e43be75224c1b692eb9a5ccf585623ac1a354cd8cfdd02454a886539df5e55f702202c1a52c2a38f5fa59c775050019532fc6c69f13ae1536182db14a3ceb6bb2e27012103e37cde6e2967123042d27c5dccc8feb707dcf5efd5f8d947050a80b76f21a62c00000000"
}