{
  "txid": "6a1778bc880fee5e38b9ffd5dbe2c23d60f516855b97ebafec02a1185a06f9f9",
  "version": 1,
  "locktime": 0,
  "vin": [
    {
      "txid": "6ed118b524840a5bb251e22f78354736d0886593319a9b1beed6731f4edc72f6",
      "vout": 3,
      "prevout": {
        "scriptpubkey": "0014e49cc9c0f9b52b8c510eff1561fd62027d20acbe",
        "scriptpubkey_asm": "OP_0 OP_PUSHBYTES_20 e49cc9c0f9b52b8c510eff1561fd62027d20acbe",
        "scriptpubkey_type": "v0_p2wpkh",
        "scriptpubkey_address": "bc1qujwvns8ek54cc5gwlu2krltzqf7jpt974766vk",
        "value": 8043847
      },
      "scriptsig": "",
      "scriptsig_asm": "",
      "witness": [
        "3045022100e7936f12d699e17f00f1460c7dbde12d5f0b799906d02a3bcf74d8fb64a9a14c022003c100124af66ec53a00dfd5db1eddd92521f8493468a57d8a869bc4515f199a01",
        "02051a32004bdc529b849567dc5104bbd7935a90413ab63a4d554f6de08104ea85"
      ],
      "is_coinbase": false,
      "sequence": 4294967295
    }
  ],
  "vout": [
    {
      "scriptpubkey": "0014adf84e96ba5f855e85739b243143d656ae41ca22",
      "scriptpubkey_asm": "OP_0 OP_PUSHBYTES_20 adf84e96ba5f855e85739b243143d656ae41ca22",
      "scriptpubkey_type": "v0_p2wpkh",
      "scriptpubkey_address": "bc1q4huya946t7z4aptnnvjrzs7k26hyrj3zflh0lf",
      "value": 8040877
    }
  ],
  "size": 192,
  "weight": 438,
  "fee": 2970,
  "status": {
    "confirmed": true,
    "block_height": 834638,
    "block_hash": "000000000000000000025f742c626208ac87e0b7d15054abb4a19ca2d735a54e",
    "block_time": 1710405325
  },
  "hex": "01000000000101f672dc4e1f73d6ee1b9b9a31936588d0364735782fe251b25b0a8424b518d16e0300000000ffffffff01adb17a0000000000160014adf84e96ba5f855e85739b243143d656ae41ca2202483045022100e7936f12d699e17f00f1460c7dbde12d5f0b799906d02a3bcf74d8fb64a9a14c022003c100124af66ec53a00dfd5db1eddd92521f8493468a57d8a869bc4515f199a012102051a32004bdc529b849567dc5104bbd7935a90413ab63a4d554f6de08104ea8500000000"
}