{
  "txid": "6a2b09e2a9a9265f13ddf3d9e9fb25ad0f9e34ff788443213a8eac5a293b974e",
  "version": 2,
  "locktime": 834637,
  "vin": [
    {
      "txid": "fcde6aeb0b836ed32f3900dfa9ec47f461ee5a55f3df758ce95314b0e29e187a",
      "vout": 0,
      "prevout": {
        "scriptpubkey": "a914cb4725ecfe311d9b44e1c6831ee5839e4dbe035f87",
        "scriptpubkey_asm": "OP_HASH160 OP_PUSHBYTES_20 cb4725ecfe311d9b44e1c6831ee5839e4dbe035f OP_EQUAL",
        "scriptpubkey_type": "p2sh",
        "scriptpubkey_address": "3LDrKwnBBFetY5cq8Qx7cqgJHgynFNg9Eb",
        "value": 1495224
      },
      "scriptsig": "160014e3cb77d4ddb25c4966769b43002eaaaa7ea9f40a",
      "scriptsig_asm": "OP_PUSHBYTES_22 0014e3cb77d4ddb25c4966769b43002eaaaa7ea9f40a",
      "witness": [
        "3044022066b13d4d5e8fbf4bfef00169dff812dcc4c3255e7d7e4db51b4dc044e6de9164022050ecf73067eb5c3021145cb089ab723b37e8465699662c313cfe046f1db0c77d01",
        "03229921385906ea0b7f8119a9565672c999343f37074af65a5761b38dfa1c6411"
      ],
      "is_coinbase": false,
      "sequence": 4294967294,
      "inner_redeemscript_asm": "OP_0 OP_PUSHBYTES_20 e3cb77d4ddb25c4966769b43002eaaaa7ea9f40a"
    },
    {
      "txid": "ac7720ae6650e84455b701040c6552789b4b796c3bf5489b4edfc53d563ef704",
      "vout": 1,
      "prevout": {
        "scriptpubkey": "a9149b2539a25ff6597e80f45c2e5aacdfcfacf3d3d687",
        "scriptpubkey_asm": "OP_HASH160 OP_PUSHBYTES_20 9b2539a25ff6597e80f45c2e5aacdfcfacf3d3d6 OP_EQUAL",
        "scriptpubkey_type": "p2sh",
        "scriptpubkey_address": "3FqMFj1YLyn83P3VB3qAZGWBxS2LfRhS8Y",
        "value": 310230
      },
      "scriptsig": "160014f563bfa1e2f6c0bac6edd30bd2da2e8270daf44a",
      "scriptsig_asm": "OP_PUSHBYTES_22 0014f563bfa1e2f6c0bac6edd30bd2da2e8270daf44a",
      "witness": [
        "30440220210ea7410a1f671633a3431d729b51cc4f535188bf37fd36c7a0a78c9298420402202558963b274a30d211e7e7cfbd67b0d86d8e63c795b8706887ec39ea52932fc001",
        "0315e4f32bae9010d678440d69c66f92d92286882e868e05493143b6dcb7234658"
      ],
      "is_coinbase": false,
      "sequence": 4294967294,
      "inner_redeemscript_asm": "OP_0 OP_PUSHBYTES_20 f563bfa1e2f6c0bac6edd30bd2da2e8270daf44a"
    },
    {
      "txid": "f74ab57517d6dcf0b486f242d42ec70e67212eb7e563a9c6d707c3a10b472103",
      "vout": 3,
      "prevout": {
        "scriptpubkey": "a914760765a3a7084d1d17a36758f066dfe31e4a58ca87",
        "scriptpubkey_asm": "OP_HASH160 OP_PUSHBYTES_20 760765a3a7084d1d17a36758f066dfe31e4a58ca OP_EQUAL",
        "scriptpubkey_type": "p2sh",
        "scriptpubkey_address": "3CT6X8jzTxVHKXeC5QvgNo2Foz23aDFURZ",
        "value": 408651
      },
      "scriptsig": "160014bc0bfa53af433e14d4c414ecfe63f2fbbd801512",
      "scriptsig_asm": "OP_PUSHBYTES_22 0014bc0bfa53af433e14d4c414ecfe63f2fbbd801512",
      "witness": [
        "304402202e07a01f944cc33dacce520204876a1ab7c10249550fd21fed1205324e4db10e02204af769e2757bc76475bc98242223f0636a49ed5458fdcd1ebceb9a0cc28b9f2a01",
        "02701cadb1f851292085896d13128a2d2df9bb98a9d4cd0a7e27b47d51960ded3f"
      ],
      "is_coinbase": false,
      "sequence": 4294967294,
      "inner_redeemscript_asm": "OP_0 OP_PUSHBYTES_20 bc0bfa53af433e14d4c414ecfe63f2fbbd801512"
    },
    {
      "txid": "490378d26ece61b9b7186c093dae15db058140922150ad8f8e95c09a42c6f92e",
      "vout": 0,
      "prevout": {
        "scriptpubkey": "a914d4766f731d225cf6c17ff2bff7636458df7721d687",
        "scriptpubkey_asm": "OP_HASH160 OP_PUSHBYTES_20 d4766f731d225cf6c17ff2bff7636458df7721d6 OP_EQUAL",
        "scriptpubkey_type": "p2sh",
        "scriptpubkey_address": "3M4R4F7kWdis5bW1wH1AqQjk3BWL1ZYfYB",
        "value": 325720
      },
      "scriptsig": "1600147fd5239299102ee3929d8b1c36c256995344dedf",
      "scriptsig_asm": "OP_PUSHBYTES_22 00147fd5239299102ee3929d8b1c36c256995344dedf",
      "witness": [
        "304402204dea407224e2f5accd9e46b741552ee5248dda1dfdc98a85cd6bdfccbb8749110220493cc7c549612a790526c1e9d867b8e83db8a5f20a6ad5ccfa1eb9ef5d47cecc01",
        "02495d7383d05f9e9173044eaf2c0599c93c213ed0e692ecc15d3f12193e0bfa90"
      ],
      "is_coinbase": false,
      "sequence": 4294967294,
      "inner_redeemscript_asm": "OP_0 OP_PUSHBYTES_20 7fd5239299102ee3929d8b1c36c256995344dedf"
    },
    {
      "txid": "4e6f5b5f1a6e55d3e6f325151686647615fd56efa4f9a7a236bba1f3f99cf4d4",
      "vout": 3,
      "prevout": {
        "scriptpubkey": "a91420abcc2f937b3137f7ce9f9ab00f662d5bda3d7e87",
        "scriptpubkey_asm": "OP_HASH160 OP_PUSHBYTES_20 20abcc2f937b3137f7ce9f9ab00f662d5bda3d7e OP_EQUAL",
        "scriptpubkey_type": "p2sh",
        "scriptpubkey_address": "34fmMPWXtXKRn9Sj45zCy3PPBiw9ZLD2Fk",
        "value": 296520
      },
      "scriptsig": "16001478ad662750110f556e4a610811a96d424e194e01",
      "scriptsig_asm": "OP_PUSHBYTES_22 001478ad662750110f556e4a610811a96d424e194e01",
      "witness": [
        "30440220326ada313dbcc502f13b98197119ac4c4902a116f6ea42b0bde45307f5a63ca40220576872b624202587ba03fd1d1ea4a98f5dabced245d6c67ab7111d0137c9231f01",
        "02946e17ce89d0308b45c75fd7dd830652fcf0411c59481e2ca0c3039faa287828"
      ],
      "is_coinbase": false,
      "sequence": 4294967294,
      "inner_redeemscript_asm": "OP_0 OP_PUSHBYTES_20 78ad662750110f556e4a610811a96d424e194e01"
    },
    {
      "txid": "ee6cd08719a1285ad65a21f12b3530b500742beb54685bf06774b4a443b9e2c8",
      "vout": 7,
      "prevout": {
        "scriptpubkey": "a914f8b6b52daa0225d8554f0ce72b16ab4bd09e955a87",
        "scriptpubkey_asm": "OP_HASH160 OP_PUSHBYTES_20 f8b6b52daa0225d8554f0ce72b16ab4bd09e955a OP_EQUAL",
        "scriptpubkey_type": "p2sh",
        "scriptpubkey_address": "3QN6NsbgYbNwoKEtiBLnhzueMmDQ7YjZSy",
        "value": 47513
      },
      "scriptsig": "160014dd63b0e04f2bbe2d02170417e2e6ad95cad87031",
      "scriptsig_asm": "OP_PUSHBYTES_22 0014dd63b0e04f2bbe2d02170417e2e6ad95cad87031",
      "witness": [
        "3044022026cb3394b6251c20a6b8fdaedc2e2db1a210656e53e41516fbb11f9796e5bae5022036ed6a5cadfc5745a05d9424e1c284668a66055b0778c63a228f9611aed2807401",
        "0267696d6d6b41d54a47786563a506f1ac3e70f4f7788b3ccfb62f26a78e252ae8"
      ],
      "is_coinbase": false,
      "sequence": 4294967294,
      "inner_redeemscript_asm": "OP_0 OP_PUSHBYTES_20 dd63b0e04f2bbe2d02170417e2e6ad95cad87031"
    }
  ],
  "vout": [
    {
      "scriptpubkey": "a9148f23bfa9ac22176cff98a74ae8d20d4faefab3b587",
      "scriptpubkey_asm": "OP_HASH160 OP_PUSHBYTES_20 8f23bfa9ac22176cff98a74ae8d20d4faefab3b5 OP_EQUAL",
      "scriptpubkey_type": "p2sh",
      "scriptpubkey_address": "3EjsNqXh2Zr3AcVaqDoom1urUFzcmdZPpU",
      "value": 2867711
    }
  ],
  "size": 1070,
  "weight": 2348,
  "fee": 16147,
  "status": {
    "confirmed": true,
    "block_height": 834638,
    "block_hash": "000000000000000000025f742c626208ac87e0b7d15054abb4a19ca2d735a54e",
    "block_time": 1710405325
  },
  "hex": "020000000001067a189ee2b01453e98c75dff3555aee61f447eca9df00392fd36e830beb6adefc0000000017160014e3cb77d4ddb25c4966769b43002eaaaa7ea9f40afeffffff04f73e563dc5df4e9b48f53b6c794b9b7852650c0401b75544e85066ae2077ac0100000017160014f563bfa1e2f6c0bac6edd30bd2da2e8270daf44afeffffff0321470ba1c307d7c6a963e5b72e21670ec72ed442f286b4f0dcd61775b54af70300000017160014bc0bfa53af433e14d4c414ecfe63f2fbbd801512feffffff2ef9c6429ac0958e8fad502192408105db15ae3d096c18b7b961ce6ed278034900000000171600147fd5239299102ee3929d8b1c36c256995344dedffeffffffd4f49cf9f3a1bb36a2a7f9a4ef56fd15766486161525f3e6d3556e1a5f5b6f4e030000001716001478ad662750110f556e4a610811a96d424e194e01feffffffc8e2b943a4b47467f05b6854eb2b7400b530352bf1215ad65a28a11987d06cee0700000017160014dd63b0e04f2bbe2d02170417e2e6ad95cad87031feffffff01ffc12b000000000017a9148f23bfa9ac22176cff98a74ae8d20d4faefab3b58702473044022066b13d4d5e8fbf4bfef00169dff812dcc4c3255e7d7e4db51b4dc044e6de9164022050ecf73067eb5c3021145cb089ab723b37e8465699662c313cfe046f1db0c77d012103229921385906ea0b7f8119a9565672c999343f37074af65a5761b38dfa1c6411024730440220210ea7410a1f671633a3431d729b51cc4f535188bf37fd36c7a0a78c9298420402202558963b274a30d211e7e7cfbd67b0d86d8e63c795b8706887ec39ea52932fc001210315e4f32bae9010d678440d69c66f92d92286882e868e05493143b6dcb72346580247304402202e07a01f944cc33dacce520204876a1ab7c10249550fd21fed1205324e4db10e02204af769e2757bc76475bc98242223f0636a49ed5458fdcd1ebceb9a0cc28b9f2a012102701cadb1f851292085896d13128a2d2df9bb98a9d4cd0a7e27b47d51960ded3f0247304402204dea407224e2f5accd9e46b741552ee5248dda1dfdc98a85cd6bdfccbb8749110220493cc7c549612a790526c1e9d867b8e83db8a5f20a6ad5ccfa1eb9ef5d47cecc012102495d7383d05f9e9173044eaf2c0599c93c213ed0e692ecc15d3f12193e0bfa90024730440220326ada313dbcc502f13b98197119ac4c4902a116f6ea42b0bde45307f5a63ca40220576872b624202587ba03fd1d1ea4a98f5dabced245d6c67ab7111d0137c9231f012102946e17ce89d0308b45c75fd7dd830652fcf0411c59481e2ca0c3039faa28782802473044022026cb3394b6251c20a6b8fdaedc2e2db1a210656e53e41516fbb11f9796e5bae5022036ed6a5cadfc5745a05d9424e1c284668a66055b0778c63a228f9611aed2807401210267696d6d6b41d54a47786563a506f1ac3e70f4f7788b3ccfb62f26a78e252ae84dbc0c00"
}