{
  "txid": "6a3aa44c335c90912fe8e00ca4c856342bedb5dc63433554db6afa989a0102c5",
  "version": 2,
  "locktime": 0,
  "vin": [
    {
      "txid": "0cf9326bb9e3fb1530d88b5041239d8d6be7b8a717388ede9c85233796aed160",
      "vout": 0,
      "prevout": {
        "scriptpubkey": "51203337dc3c82b60706ef8ab635e41ef711481b6a6303be1723a4c5c093a44e4eb2",
        "scriptpubkey_asm": "OP_PUSHNUM_1 OP_PUSHBYTES_32 3337dc3c82b60706ef8ab635e41ef711481b6a6303be1723a4c5c093a44e4eb2",
        "scriptpubkey_type": "v1_p2tr",
        "scriptpubkey_address": "bc1pxvmac0yzkcrsdmu2kc67g8hhz9ypk6nrqwlpwgaychqf8fzwf6eqg7d45l",
        "value": 4000
      },
      "scriptsig": "",
      "scriptsig_asm": "",
      "witness": [
        "8c4cb730b9965fdcddc071b48c1e2d7862471999f73e4254161a69e555edb35850c6dc2b9b969c35715aed89ec67da283fd952d1c849ef90586fbaebc63c4ce6",
        "2072a613b7305923648b6be6d0cff01a5ce98a24b4f618144e54c9c64a2cc99c1bac0063036f7264010118746578742f706c61696e3b636861727365743d7574662d3800387b2270223a226272632d3230222c226f70223a227472616e73666572222c227469636b223a22316f6e38222c22616d74223a22313030227d68",
        "c0d15fdf1d00d78974c0d83791cc49801286f09c1f5c9b37421fce7bde607337f9"
      ],
      "is_coinbase": false,
      "sequence": 4294967293
    }
  ],
  "vout": [
    {
      "scriptpubkey": "51203863ee247d81f74f5e191d80e32144df0dbdace9be51ab88a63080ac18e61773",
      "scriptpubkey_asm": "OP_PUSHNUM_1 OP_PUSHBYTES_32 3863ee247d81f74f5e191d80e32144df0dbdace9be51ab88a63080ac18e61773",
      "scriptpubkey_type": "v1_p2tr",
      "scriptpubkey_address": "bc1p8p37ufras8m57hserkqwxg2ymuxmmt8fheg6hz9xxzq2cx8xzaesp4p6c2",
      "value": 546
    },
    {
      "scriptpubkey": "001454989f133257a46ddb9bebf311f23e697842a055",
      "scriptpubkey_asm": "OP_0 OP_PUSHBYTES_20 54989f133257a46ddb9bebf311f23e697842a055",
      "scriptpubkey_type": "v0_p2wpkh",
      "scriptpubkey_address": "bc1q2jvf7yej27jxmkuma0e3ru37d9uy9gz4m66cq9",
      "value": 1258
    }
  ],
  "size": 354,
  "weight": 729,
  "fee": 2196,
  "status": {
    "confirmed": true,
    "block_height": 834460,
    "block_hash": "00000000000000000000484a79b643b2524bbce82e5d8a442013fa5b8905ed98",
    "block_time": 1710307468
  },
  "hex": "0200000000010160d1ae963723859cde8e3817a7b8e76b8d9d2341508bd83015fbe3b96b32f90c0000000000fdffffff0222020000000000002251203863ee247d81f74f5e191d80e32144df0dbdace9be51ab88a63080ac18e61773ea0400000000000016001454989f133257a46ddb9bebf311f23e697842a05503408c4cb730b9965fdcddc071b48c1e2d7862471999f73e4254161a69e555edb35850c6dc2b9b969c35715aed89ec67da283fd952d1c849ef90586fbaebc63c4ce67e2072a613b7305923648b6be6d0cff01a5ce98a24b4f618144e54c9c64a2cc99c1bac0063036f7264010118746578742f706c61696e3b636861727365743d7574662d3800387b2270223a226272632d3230222c226f70223a227472616e73666572222c227469636b223a22316f6e38222c22616d74223a22313030227d6821c0d15fdf1d00d78974c0d83791cc49801286f09c1f5c9b37421fce7bde607337f900000000"
}