{
  "txid": "6a435c38ee831717289e529b29802cecf3bd72107ad3ec42a39932a619d955ea",
  "version": 2,
  "locktime": 0,
  "vin": [
    {
      "txid": "54994fd0bc246bc355ecfdb4d510e1050260eb532edefabfef7541f8dd66ec12",
      "vout": 2,
      "prevout": {
        "scriptpubkey": "51209386182e6620cce8d4a1c786bdf9fc466fa683fbddafae9e7c10bab95cb39349",
        "scriptpubkey_asm": "OP_PUSHNUM_1 OP_PUSHBYTES_32 9386182e6620cce8d4a1c786bdf9fc466fa683fbddafae9e7c10bab95cb39349",
        "scriptpubkey_type": "v1_p2tr",
        "scriptpubkey_address": "bc1pjwrpstnxyrxw349pc7rtm70ugeh6dqlmmkh6a8nuzzatjh9njdyss3nhpl",
        "value": 1075000
      },
      "scriptsig": "",
      "scriptsig_asm": "",
      "witness": [
        "fe72e79b067d83387a8a806c67768ea98037ecdd407fb385e0ed6d36dc9d4414c6858c983407d21a353695c4736ab87a10a070696b88bcf0070cb3d1fc64820b"
      ],
      "is_coinbase": false,
      "sequence": 4294967293
    }
  ],
  "vout": [
    {
      "scriptpubkey": "00145f35a124069683ddeb2f1726e9a1173f9340c87e",
      "scriptpubkey_asm": "OP_0 OP_PUSHBYTES_20 5f35a124069683ddeb2f1726e9a1173f9340c87e",
      "scriptpubkey_type": "v0_p2wpkh",
      "scriptpubkey_address": "bc1qtu66zfqxj6pam6e0zunwnggh87f5pjr7vdr5cd",
      "value": 1000000
    },
    {
      "scriptpubkey": "0014fb7a185fc47428a9992c09f70c6add47a5c19223",
      "scriptpubkey_asm": "OP_0 OP_PUSHBYTES_20 fb7a185fc47428a9992c09f70c6add47a5c19223",
      "scriptpubkey_type": "v0_p2wpkh",
      "scriptpubkey_address": "bc1qldapsh7yws52nxfvp8msc6kag7jury3rxrw4dm",
      "value": 30000
    },
    {
      "scriptpubkey": "51209386182e6620cce8d4a1c786bdf9fc466fa683fbddafae9e7c10bab95cb39349",
      "scriptpubkey_asm": "OP_PUSHNUM_1 OP_PUSHBYTES_32 9386182e6620cce8d4a1c786bdf9fc466fa683fbddafae9e7c10bab95cb39349",
      "scriptpubkey_type": "v1_p2tr",
      "scriptpubkey_address": "bc1pjwrpstnxyrxw349pc7rtm70ugeh6dqlmmkh6a8nuzzatjh9njdyss3nhpl",
      "value": 41031
    }
  ],
  "size": 224,
  "weight": 692,
  "fee": 3969,
  "status": {
    "confirmed": true,
    "block_height": 834638,
    "block_hash": "000000000000000000025f742c626208ac87e0b7d15054abb4a19ca2d735a54e",
    "block_time": 1710405325
  },
  "hex": "0200000000010112ec66ddf84175efbffade2e53eb600205e110d5b4fdec55c36b24bcd04f99540200000000fdffffff0340420f00000000001600145f35a124069683ddeb2f1726e9a1173f9340c87e3075000000000000160014fb7a185fc47428a9992c09f70c6add47a5c1922347a00000000000002251209386182e6620cce8d4a1c786bdf9fc466fa683fbddafae9e7c10bab95cb393490140fe72e79b067d83387a8a806c67768ea98037ecdd407fb385e0ed6d36dc9d4414c6858c983407d21a353695c4736ab87a10a070696b88bcf0070cb3d1fc64820b00000000"
}