{
  "txid": "6a4dc9e10cf26b35569340a2cdca7fc1401b020dfa47e32fa2ec6cb384302b11",
  "version": 2,
  "locktime": 0,
  "vin": [
    {
      "txid": "e60d01f1eeee2dbec06ec3a8d448424ca93ea4dcefc453871fc404580cc03558",
      "vout": 4,
      "prevout": {
        "scriptpubkey": "512003b3831ab0dc35d6af58914671aaf2d775c09e4bdc32882a27e418f01e34d9b4",
        "scriptpubkey_asm": "OP_PUSHNUM_1 OP_PUSHBYTES_32 03b3831ab0dc35d6af58914671aaf2d775c09e4bdc32882a27e418f01e34d9b4",
        "scriptpubkey_type": "v1_p2tr",
        "scriptpubkey_address": "bc1pqwecxx4sms6adt6cj9r8r2hj6a6up8jtmsegs238usv0q835mx6qn58xae",
        "value": 2646
      },
      "scriptsig": "",
      "scriptsig_asm": "",
      "witness": [
        "de62ac544666607e7bb064f250ab95b002c3779c40a2d448efb504261f741d119accd96f8ecfa2dd78f8b95352cb029d4c1fb052d163262d60250a72d94dd026",
        "205b56fbecb35668227923b0596b1e25f38ff255ef1c1698331f26652f4144132dac0063036f726401011e6170706c69636174696f6e2f6a736f6e3b636861727365743d7574662d38004cb77b2270223a22706f772d3230222c226f70223a226d696e74222c227469636b223a2250455045222c22616d74223a2231303030222c22736f6c7574696f6e223a22504550453a3351345a614567486177466561585773437a6d775a743766465543593771377759703a303030303030303030303030303030303030303139393431613561653132383937363539383134343239323533333030353762306461393666336465613163353a3234373534373138363638227d68",
        "c08db7ab6533b96c0773861c29df1705bf8b1dfa6577ecaa232ec7cdccd60ed417"
      ],
      "is_coinbase": false,
      "sequence": 4294967295
    }
  ],
  "vout": [
    {
      "scriptpubkey": "a914f565ec243898a586d6342e6d91e39b804127827787",
      "scriptpubkey_asm": "OP_HASH160 OP_PUSHBYTES_20 f565ec243898a586d6342e6d91e39b8041278277 OP_EQUAL",
      "scriptpubkey_type": "p2sh",
      "scriptpubkey_address": "3Q4ZaEgHawFeaXWsCzmwZt7fFUCY7q7wYp",
      "value": 546
    }
  ],
  "size": 448,
  "weight": 697,
  "fee": 2100,
  "status": {
    "confirmed": true,
    "block_height": 834460,
    "block_hash": "00000000000000000000484a79b643b2524bbce82e5d8a442013fa5b8905ed98",
    "block_time": 1710307468
  },
  "hex": "020000000001015835c00c5804c41f8753c4efdca43ea94c4248d4a8c36ec0be2deeeef1010de60400000000ffffffff01220200000000000017a914f565ec243898a586d6342e6d91e39b8041278277870340de62ac544666607e7bb064f250ab95b002c3779c40a2d448efb504261f741d119accd96f8ecfa2dd78f8b95352cb029d4c1fb052d163262d60250a72d94dd026fd0401205b56fbecb35668227923b0596b1e25f38ff255ef1c1698331f26652f4144132dac0063036f726401011e6170706c69636174696f6e2f6a736f6e3b636861727365743d7574662d38004cb77b2270223a22706f772d3230222c226f70223a226d696e74222c227469636b223a2250455045222c22616d74223a2231303030222c22736f6c7574696f6e223a22504550453a3351345a614567486177466561585773437a6d775a743766465543593771377759703a303030303030303030303030303030303030303139393431613561653132383937363539383134343239323533333030353762306461393666336465613163353a3234373534373138363638227d6821c08db7ab6533b96c0773861c29df1705bf8b1dfa6577ecaa232ec7cdccd60ed41700000000"
}