{
  "txid": "6a53100cfeed1647a6b5c3534fa199c67c52b71606382b50d4f386525a77dc88",
  "version": 1,
  "locktime": 0,
  "vin": [
    {
      "txid": "edb310d4efbd7a41e6bab81ecfc097baaf483989f3c917785875c3f5c8d298d4",
      "vout": 1,
      "prevout": {
        "scriptpubkey": "00146c34ce018dfbe3ebb157df09f5e7e2d1597ae8da",
        "scriptpubkey_asm": "OP_0 OP_PUSHBYTES_20 6c34ce018dfbe3ebb157df09f5e7e2d1597ae8da",
        "scriptpubkey_type": "v0_p2wpkh",
        "scriptpubkey_address": "bc1qds6vuqvdl037hv2hmuyltelz69vh46x6xj7m4v",
        "value": 229199
      },
      "scriptsig": "",
      "scriptsig_asm": "",
      "witness": [
        "3045022100d36441d5200fe050c51256361d16d9ec2f338f4643b3c281c2b34ac8d972bd4602203afc2fb8733e134b5d892fb5eea4bbca8a6e8fb724d3adcffb6c1f547910858501",
        "0288feca036fa74a71a00717b027954919616df8a53ef3a9669a87fadf840356f0"
      ],
      "is_coinbase": false,
      "sequence": 4294967295
    },
    {
      "txid": "eb00ae5745f988bc32af67086f24f6b971ebd7afaa29b044589b1f6bad196838",
      "vout": 19,
      "prevout": {
        "scriptpubkey": "00149cff5dd4f90610d68693ca26fd077474079eb739",
        "scriptpubkey_asm": "OP_0 OP_PUSHBYTES_20 9cff5dd4f90610d68693ca26fd077474079eb739",
        "scriptpubkey_type": "v0_p2wpkh",
        "scriptpubkey_address": "bc1qnnl4m48eqcgddp5negn06pm5wsreadee4ptp8x",
        "value": 1541555
      },
      "scriptsig": "",
      "scriptsig_asm": "",
      "witness": [
        "304402205b6cea9ab5058d6273cd79b576aee3d1543e0c7fa96dc11a2034df96df9f613d022020136386bbca4c698ec24425a0542dbb72e5b85c6abddbc748f9922954ebc02501",
        "02cf769589586a3d78ff66b0bd4dff684830520c591702ad6641cb21bbc26c1dc5"
      ],
      "is_coinbase": false,
      "sequence": 4294967295
    }
  ],
  "vout": [
    {
      "scriptpubkey": "76a914022eaa40e8247b66f2abdec18c03d082cccce87788ac",
      "scriptpubkey_asm": "OP_DUP OP_HASH160 OP_PUSHBYTES_20 022eaa40e8247b66f2abdec18c03d082cccce877 OP_EQUALVERIFY OP_CHECKSIG",
      "scriptpubkey_type": "p2pkh",
      "scriptpubkey_address": "1CYFjFGNGjcmjS8fqnf2Ex4jYAkmcgVTj",
      "value": 1640005
    },
    {
      "scriptpubkey": "0014ab8b078b318b7feecd5a1c455067b9732fb53b49",
      "scriptpubkey_asm": "OP_0 OP_PUSHBYTES_20 ab8b078b318b7feecd5a1c455067b9732fb53b49",
      "scriptpubkey_type": "v0_p2wpkh",
      "scriptpubkey_address": "bc1q4w9s0ze33dl7an26r3z4qeaewvhm2w6fn2uc0z",
      "value": 125275
    }
  ],
  "size": 374,
  "weight": 845,
  "fee": 5474,
  "status": {
    "confirmed": true,
    "block_height": 834638,
    "block_hash": "000000000000000000025f742c626208ac87e0b7d15054abb4a19ca2d735a54e",
    "block_time": 1710405325
  },
  "hex": "01000000000102d498d2c8f5c375587817c9f3893948afba97c0cf1eb8bae6417abdefd410b3ed0100000000ffffffff386819ad6b1f9b5844b029aaafd7eb71b9f6246f0867af32bc88f94557ae00eb1300000000ffffffff0245061900000000001976a914022eaa40e8247b66f2abdec18c03d082cccce87788ac5be9010000000000160014ab8b078b318b7feecd5a1c455067b9732fb53b4902483045022100d36441d5200fe050c51256361d16d9ec2f338f4643b3c281c2b34ac8d972bd4602203afc2fb8733e134b5d892fb5eea4bbca8a6e8fb724d3adcffb6c1f547910858501210288feca036fa74a71a00717b027954919616df8a53ef3a9669a87fadf840356f00247304402205b6cea9ab5058d6273cd79b576aee3d1543e0c7fa96dc11a2034df96df9f613d022020136386bbca4c698ec24425a0542dbb72e5b85c6abddbc748f9922954ebc025012102cf769589586a3d78ff66b0bd4dff684830520c591702ad6641cb21bbc26c1dc500000000"
}