{
  "txid": "6a5c4d0ab45a1aca80589f36a7238af0b0e2719f384bdbd75779b88b747ad04a",
  "version": 2,
  "locktime": 0,
  "vin": [
    {
      "txid": "6af7bb1474452e6fdb5048a4012f8488f989ba8ab8be627c0ef810982b6a015a",
      "vout": 0,
      "prevout": {
        "scriptpubkey": "00144d8b85fb2e55b77ea59e5da3fd7856a554724172",
        "scriptpubkey_asm": "OP_0 OP_PUSHBYTES_20 4d8b85fb2e55b77ea59e5da3fd7856a554724172",
        "scriptpubkey_type": "v0_p2wpkh",
        "scriptpubkey_address": "bc1qfk9ct7ew2kmhafv7tk3l67zk5428ystj6v44ln",
        "value": 84000
      },
      "scriptsig": "",
      "scriptsig_asm": "",
      "witness": [
        "3045022100af6d17ac202d364143e4942ce61c8157f20d6e3824bf8c7bdf4c915e148eddc602205a5429f412bb4406656f815368cd86e98bbe22cb1bfccded4ae33326aca97d8c01",
        "023e68b0a420fca40855edd64de19716b7d102ebb5a8fd0b4baf28229e1e76d739"
      ],
      "is_coinbase": false,
      "sequence": 4294967293
    }
  ],
  "vout": [
    {
      "scriptpubkey": "76a914aa2f877940815f33e424e91009a8956391381c4e88ac",
      "scriptpubkey_asm": "OP_DUP OP_HASH160 OP_PUSHBYTES_20 aa2f877940815f33e424e91009a8956391381c4e OP_EQUALVERIFY OP_CHECKSIG",
      "scriptpubkey_type": "p2pkh",
      "scriptpubkey_address": "1GWrozrTBbpzN8FjmbKX5jLgwECbqKqY24",
      "value": 82780
    }
  ],
  "size": 195,
  "weight": 450,
  "fee": 1220,
  "status": {
    "confirmed": true,
    "block_height": 834464,
    "block_hash": "0000000000000000000177a0869a911a2b65c9bdcd5a8bcb02b68f305bee848e",
    "block_time": 1710308296
  },
  "hex": "020000000001015a016a2b9810f80e7c62beb88aba89f988842f01a44850db6f2e457414bbf76a0000000000fdffffff015c430100000000001976a914aa2f877940815f33e424e91009a8956391381c4e88ac02483045022100af6d17ac202d364143e4942ce61c8157f20d6e3824bf8c7bdf4c915e148eddc602205a5429f412bb4406656f815368cd86e98bbe22cb1bfccded4ae33326aca97d8c0121023e68b0a420fca40855edd64de19716b7d102ebb5a8fd0b4baf28229e1e76d73900000000"
}