{
  "txid": "6a99330b7970acd9c2a19683ff733421003ca4fd9f629d4482463be1beca3277",
  "version": 1,
  "locktime": 0,
  "vin": [
    {
      "txid": "1dd6d7febf9ef3943f1f4607115a03ef7e1e0dbd43f353807a184fd1873d6754",
      "vout": 1,
      "prevout": {
        "scriptpubkey": "76a91404e0f5fb41a06dcc31b4bd6f1944f55a6481190f88ac",
        "scriptpubkey_asm": "OP_DUP OP_HASH160 OP_PUSHBYTES_20 04e0f5fb41a06dcc31b4bd6f1944f55a6481190f OP_EQUALVERIFY OP_CHECKSIG",
        "scriptpubkey_type": "p2pkh",
        "scriptpubkey_address": "1SoCKh4FWcH6CKufA8cbckmcTJHWoT7KT",
        "value": 191092
      },
      "scriptsig": "4730440220123a4873c56428535dd9d31e9dc519a28216418a3c12dc1a4c3ad0687bf18cb202204a9f392c3f656deb46bcc4aebdd98de5c70e96c6fbbb6416c7af54e6b60d3bef01410455b9cbe844e4faa38952e14a99f5ce44110f357fcf9b57f25f0d7350718f640333711dbb0353459b52c68d5b58aca5cd328aa09906ab494375a93111f2032cb6",
      "scriptsig_asm": "OP_PUSHBYTES_71 30440220123a4873c56428535dd9d31e9dc519a28216418a3c12dc1a4c3ad0687bf18cb202204a9f392c3f656deb46bcc4aebdd98de5c70e96c6fbbb6416c7af54e6b60d3bef01 OP_PUSHBYTES_65 0455b9cbe844e4faa38952e14a99f5ce44110f357fcf9b57f25f0d7350718f640333711dbb0353459b52c68d5b58aca5cd328aa09906ab494375a93111f2032cb6",
      "is_coinbase": false,
      "sequence": 4294967295
    }
  ],
  "vout": [
    {
      "scriptpubkey": "6a1fc1a4cd12c16ac0dea72df3eec3210d7718f47f39e0609e806784ae83d0b070",
      "scriptpubkey_asm": "OP_RETURN OP_PUSHBYTES_31 c1a4cd12c16ac0dea72df3eec3210d7718f47f39e0609e806784ae83d0b070",
      "scriptpubkey_type": "op_return",
      "value": 0
    },
    {
      "scriptpubkey": "76a91404e0f5fb41a06dcc31b4bd6f1944f55a6481190f88ac",
      "scriptpubkey_asm": "OP_DUP OP_HASH160 OP_PUSHBYTES_20 04e0f5fb41a06dcc31b4bd6f1944f55a6481190f OP_EQUALVERIFY OP_CHECKSIG",
      "scriptpubkey_type": "p2pkh",
      "scriptpubkey_address": "1SoCKh4FWcH6CKufA8cbckmcTJHWoT7KT",
      "value": 184192
    }
  ],
  "size": 265,
  "weight": 1060,
  "fee": 6900,
  "status": {
    "confirmed": true,
    "block_height": 834638,
    "block_hash": "000000000000000000025f742c626208ac87e0b7d15054abb4a19ca2d735a54e",
    "block_time": 1710405325
  },
  "hex": "010000000154673d87d14f187a8053f343bd0d1e7eef035a1107461f3f94f39ebffed7d61d010000008a4730440220123a4873c56428535dd9d31e9dc519a28216418a3c12dc1a4c3ad0687bf18cb202204a9f392c3f656deb46bcc4aebdd98de5c70e96c6fbbb6416c7af54e6b60d3bef01410455b9cbe844e4faa38952e14a99f5ce44110f357fcf9b57f25f0d7350718f640333711dbb0353459b52c68d5b58aca5cd328aa09906ab494375a93111f2032cb6ffffffff020000000000000000216a1fc1a4cd12c16ac0dea72df3eec3210d7718f47f39e0609e806784ae83d0b07080cf0200000000001976a91404e0f5fb41a06dcc31b4bd6f1944f55a6481190f88ac00000000"
}