{
  "txid": "6aa4281efb3ce06a9a3a508178d936d58dd1153b96d4a3b1167a866149090cd6",
  "version": 1,
  "locktime": 0,
  "vin": [
    {
      "txid": "a800bf55d4f73775bd333bec64d0ec9cc15a2bf4a8ea2152ebcded3c970db0da",
      "vout": 0,
      "prevout": {
        "scriptpubkey": "a914ab79e0135de249e2d63b0c7ebce998190eeafc8e87",
        "scriptpubkey_asm": "OP_HASH160 OP_PUSHBYTES_20 ab79e0135de249e2d63b0c7ebce998190eeafc8e OP_EQUAL",
        "scriptpubkey_type": "p2sh",
        "scriptpubkey_address": "3HKhUPciE2GeQGUud8rw2ekzjAhqpirVSV",
        "value": 1330000
      },
      "scriptsig": "160014dbcad37ec32a86335fa7107a652a65afba0d57e1",
      "scriptsig_asm": "OP_PUSHBYTES_22 0014dbcad37ec32a86335fa7107a652a65afba0d57e1",
      "witness": [
        "3045022100c7acfff930b6f2f4f05f978f423f28506ea10ea37a21774e502ded998d5f8b06022078b1b12ff96bb7193d2f5384045d2b1d7b61c76d9ae8f6622f1933baac33dc8f01",
        "0311930276125b0a259954fce08bd5d72e83955079c1677aa5c7e14c29b2e2d178"
      ],
      "is_coinbase": false,
      "sequence": 4294967293,
      "inner_redeemscript_asm": "OP_0 OP_PUSHBYTES_20 dbcad37ec32a86335fa7107a652a65afba0d57e1"
    },
    {
      "txid": "b930889c78638832ecc23338a3cc2fd52e6c915b93111b02a9124ba961c685fe",
      "vout": 0,
      "prevout": {
        "scriptpubkey": "a914ab79e0135de249e2d63b0c7ebce998190eeafc8e87",
        "scriptpubkey_asm": "OP_HASH160 OP_PUSHBYTES_20 ab79e0135de249e2d63b0c7ebce998190eeafc8e OP_EQUAL",
        "scriptpubkey_type": "p2sh",
        "scriptpubkey_address": "3HKhUPciE2GeQGUud8rw2ekzjAhqpirVSV",
        "value": 5279642
      },
      "scriptsig": "160014dbcad37ec32a86335fa7107a652a65afba0d57e1",
      "scriptsig_asm": "OP_PUSHBYTES_22 0014dbcad37ec32a86335fa7107a652a65afba0d57e1",
      "witness": [
        "3044022054262038f362c79009c7b226126f87c8f6da87c1c710da12823ae84d4ade3b6702207e0e4ce3e928d383f4f6bdf524e1bc3d0ad3f5bb84524a0ea00ae8634bddc91601",
        "0311930276125b0a259954fce08bd5d72e83955079c1677aa5c7e14c29b2e2d178"
      ],
      "is_coinbase": false,
      "sequence": 4294967293,
      "inner_redeemscript_asm": "OP_0 OP_PUSHBYTES_20 dbcad37ec32a86335fa7107a652a65afba0d57e1"
    },
    {
      "txid": "d1bf5532349c2ffcfc5777bddb5769f58024d5d857d5ccce3ee40e1438c804ae",
      "vout": 1,
      "prevout": {
        "scriptpubkey": "a914029cdfd0e0089a51ff20b05a61bc28feb9f3440687",
        "scriptpubkey_asm": "OP_HASH160 OP_PUSHBYTES_20 029cdfd0e0089a51ff20b05a61bc28feb9f34406 OP_EQUAL",
        "scriptpubkey_type": "p2sh",
        "scriptpubkey_address": "31vqCk5XJuX39BPd2mAz8VUKT3PFCHFFqb",
        "value": 2779471
      },
      "scriptsig": "160014e7f6057f279d7020fe02dc914364e9e4d3db1af1",
      "scriptsig_asm": "OP_PUSHBYTES_22 0014e7f6057f279d7020fe02dc914364e9e4d3db1af1",
      "witness": [
        "304402206cb942a138228cf5d1ea23870d47e07504e62aa2c181b34996de642c86a83a3802204088670268f2c17431c493d0d057931eaa042e7e9abca387b60261f656e501de01",
        "03941c94fcb59378824c29ce038d0516cd5f93a2eab30b48c4f1e4ada0ef63a252"
      ],
      "is_coinbase": false,
      "sequence": 4294967293,
      "inner_redeemscript_asm": "OP_0 OP_PUSHBYTES_20 e7f6057f279d7020fe02dc914364e9e4d3db1af1"
    },
    {
      "txid": "ef4cd58f4d19b2d54644c58a11e78471e19a6b7ec3c2ffcffe0b4bbc8fc0aa07",
      "vout": 1,
      "prevout": {
        "scriptpubkey": "a914e1459e256f71a78cc4cb9cf5de71cabd13334e8587",
        "scriptpubkey_asm": "OP_HASH160 OP_PUSHBYTES_20 e1459e256f71a78cc4cb9cf5de71cabd13334e85 OP_EQUAL",
        "scriptpubkey_type": "p2sh",
        "scriptpubkey_address": "3NE9MqE2PkYRmjDTXPuHXXnRbxikucu3mB",
        "value": 14228177
      },
      "scriptsig": "16001431a4ba6df6ccf2d7143d51ef2d0c69a7fc404039",
      "scriptsig_asm": "OP_PUSHBYTES_22 001431a4ba6df6ccf2d7143d51ef2d0c69a7fc404039",
      "witness": [
        "3044022040afc7d6edbc94e1217fd7a96846e5d1f17ba99df057dc9dcb3f442e8171185002204e8ea745d124acba8961e13f73df10aee726c0aad6f281c5f24d1a0d7112d87301",
        "024f2912ff3de7816bb4e6ecb7b9fa999fb36e9e2972992184b06f15128e7a8e04"
      ],
      "is_coinbase": false,
      "sequence": 4294967293,
      "inner_redeemscript_asm": "OP_0 OP_PUSHBYTES_20 31a4ba6df6ccf2d7143d51ef2d0c69a7fc404039"
    },
    {
      "txid": "f447b088584eee7368b8e686dfc869e642961b12b0608f58e5d14ac3db2fca4e",
      "vout": 0,
      "prevout": {
        "scriptpubkey": "a9147d8a126b7027f25abe69315b388355a725daec8987",
        "scriptpubkey_asm": "OP_HASH160 OP_PUSHBYTES_20 7d8a126b7027f25abe69315b388355a725daec89 OP_EQUAL",
        "scriptpubkey_type": "p2sh",
        "scriptpubkey_address": "3D8onvtdHqUsghNDTbPBLvVtrimPuybzxZ",
        "value": 16135670
      },
      "scriptsig": "1600147e4e06913a03bc33fb1dd3655f6f0ac9df6eb2b9",
      "scriptsig_asm": "OP_PUSHBYTES_22 00147e4e06913a03bc33fb1dd3655f6f0ac9df6eb2b9",
      "witness": [
        "3045022100a1e046ad7699ffebd881f5a0ccc82451775845b69d21c5e8aacf794426fbaa7f0220126b432fbb186a7841fe83f66aa89c2383ffe38917dbb98a9dd334d799262bf401",
        "023c1a2f41f6a436f7e1a195a8e44b942e125fe05d6ee25539acb65221f33fccc7"
      ],
      "is_coinbase": false,
      "sequence": 4294967293,
      "inner_redeemscript_asm": "OP_0 OP_PUSHBYTES_20 7e4e06913a03bc33fb1dd3655f6f0ac9df6eb2b9"
    },
    {
      "txid": "fd5369557a19c976fdf4ca4409448462d07c93a4417d820b99d084cbdc329bb9",
      "vout": 0,
      "prevout": {
        "scriptpubkey": "a9140ea70211281f6740f644609b88b01406f84e26d587",
        "scriptpubkey_asm": "OP_HASH160 OP_PUSHBYTES_20 0ea70211281f6740f644609b88b01406f84e26d5 OP_EQUAL",
        "scriptpubkey_type": "p2sh",
        "scriptpubkey_address": "332VT9sgCb5a9997KJJaxV8owXcuDWHFcu",
        "value": 7545964
      },
      "scriptsig": "160014b73b7d066d0e30a2aded02af8622d5a478bbca80",
      "scriptsig_asm": "OP_PUSHBYTES_22 0014b73b7d066d0e30a2aded02af8622d5a478bbca80",
      "witness": [
        "304402204b291925d8de4be4983865270376387faca0c3159a0b1b8b023bae6301c7ec12022019dc462f150fed4b8e80ee43912a44fa3333f5a369eb7bd08b0aec8738fb665e01",
        "02137c07f1a2629f64bedae663abf5f16487f0170f5cc15a491c59f01e36681c50"
      ],
      "is_coinbase": false,
      "sequence": 4294967293,
      "inner_redeemscript_asm": "OP_0 OP_PUSHBYTES_20 b73b7d066d0e30a2aded02af8622d5a478bbca80"
    }
  ],
  "vout": [
    {
      "scriptpubkey": "a914a70fc5fb477ac7ea348c17d66536680024972d5987",
      "scriptpubkey_asm": "OP_HASH160 OP_PUSHBYTES_20 a70fc5fb477ac7ea348c17d66536680024972d59 OP_EQUAL",
      "scriptpubkey_type": "p2sh",
      "scriptpubkey_address": "3GvMfXpApYkC4Rb8N2uBLTcRUsQ2HAUGsk",
      "value": 7091477
    },
    {
      "scriptpubkey": "0014f31f589379e01cd3fb3f0e5ae0e8517b7eedc2f1",
      "scriptpubkey_asm": "OP_0 OP_PUSHBYTES_20 f31f589379e01cd3fb3f0e5ae0e8517b7eedc2f1",
      "scriptpubkey_type": "v0_p2wpkh",
      "scriptpubkey_address": "bc1q7v043ymeuqwd87elpedwp6z30dlwmsh340f3dh",
      "value": 40200000
    }
  ],
  "size": 1103,
  "weight": 2474,
  "fee": 7447,
  "status": {
    "confirmed": true,
    "block_height": 834464,
    "block_hash": "0000000000000000000177a0869a911a2b65c9bdcd5a8bcb02b68f305bee848e",
    "block_time": 1710308296
  },
  "hex": "01000000000106dab00d973cedcdeb5221eaa8f42b5ac19cecd064ec3b33bd7537f7d455bf00a80000000017160014dbcad37ec32a86335fa7107a652a65afba0d57e1fdfffffffe85c661a94b12a9021b11935b916c2ed52fcca33833c2ec328863789c8830b90000000017160014dbcad37ec32a86335fa7107a652a65afba0d57e1fdffffffae04c838140ee43ececcd557d8d52480f56957dbbd7757fcfc2f9c343255bfd10100000017160014e7f6057f279d7020fe02dc914364e9e4d3db1af1fdffffff07aac08fbc4b0bfecfffc2c37e6b9ae17184e7118ac54446d5b2194d8fd54cef010000001716001431a4ba6df6ccf2d7143d51ef2d0c69a7fc404039fdffffff4eca2fdbc34ad1e5588f60b0121b9642e669c8df86e6b86873ee4e5888b047f400000000171600147e4e06913a03bc33fb1dd3655f6f0ac9df6eb2b9fdffffffb99b32dccb84d0990b827d41a4937cd06284440944caf4fd76c9197a556953fd0000000017160014b73b7d066d0e30a2aded02af8622d5a478bbca80fdffffff0215356c000000000017a914a70fc5fb477ac7ea348c17d66536680024972d59874067650200000000160014f31f589379e01cd3fb3f0e5ae0e8517b7eedc2f102483045022100c7acfff930b6f2f4f05f978f423f28506ea10ea37a21774e502ded998d5f8b06022078b1b12ff96bb7193d2f5384045d2b1d7b61c76d9ae8f6622f1933baac33dc8f01210311930276125b0a259954fce08bd5d72e83955079c1677aa5c7e14c29b2e2d17802473044022054262038f362c79009c7b226126f87c8f6da87c1c710da12823ae84d4ade3b6702207e0e4ce3e928d383f4f6bdf524e1bc3d0ad3f5bb84524a0ea00ae8634bddc91601210311930276125b0a259954fce08bd5d72e83955079c1677aa5c7e14c29b2e2d1780247304402206cb942a138228cf5d1ea23870d47e07504e62aa2c181b34996de642c86a83a3802204088670268f2c17431c493d0d057931eaa042e7e9abca387b60261f656e501de012103941c94fcb59378824c29ce038d0516cd5f93a2eab30b48c4f1e4ada0ef63a25202473044022040afc7d6edbc94e1217fd7a96846e5d1f17ba99df057dc9dcb3f442e8171185002204e8ea745d124acba8961e13f73df10aee726c0aad6f281c5f24d1a0d7112d8730121024f2912ff3de7816bb4e6ecb7b9fa999fb36e9e2972992184b06f15128e7a8e0402483045022100a1e046ad7699ffebd881f5a0ccc82451775845b69d21c5e8aacf794426fbaa7f0220126b432fbb186a7841fe83f66aa89c2383ffe38917dbb98a9dd334d799262bf40121023c1a2f41f6a436f7e1a195a8e44b942e125fe05d6ee25539acb65221f33fccc70247304402204b291925d8de4be4983865270376387faca0c3159a0b1b8b023bae6301c7ec12022019dc462f150fed4b8e80ee43912a44fa3333f5a369eb7bd08b0aec8738fb665e012102137c07f1a2629f64bedae663abf5f16487f0170f5cc15a491c59f01e36681c5000000000"
}