{
  "txid": "6ac634e681e2db6f603e45e1296da486d7e98f4ba8f0b4ef3a6e7680b79bbb57",
  "version": 2,
  "locktime": 0,
  "vin": [
    {
      "txid": "05d40d8dd9d6a2916d649f0ef04dcf5b5896615687e8acb9c398ce04236775e9",
      "vout": 2,
      "prevout": {
        "scriptpubkey": "51202f68f2ccd33827acf831d7b0c19e2b168fafba55385bf981ca3db70924cec60d",
        "scriptpubkey_asm": "OP_PUSHNUM_1 OP_PUSHBYTES_32 2f68f2ccd33827acf831d7b0c19e2b168fafba55385bf981ca3db70924cec60d",
        "scriptpubkey_type": "v1_p2tr",
        "scriptpubkey_address": "bc1p9a509nxn8qn6e7p367cvr83tz686lwj48pdlnqw28kmsjfxwccxsp7ngwn",
        "value": 15501
      },
      "scriptsig": "",
      "scriptsig_asm": "",
      "witness": [
        "85c334bf099e1f6a35953951886f66c42185c53863911705a999fafc883ba29b4b0f1b18b5de9584215fb67892efdaa44a37383b7229b61489d16ccbb0210b3c"
      ],
      "is_coinbase": false,
      "sequence": 2147483649
    },
    {
      "txid": "adadbbaced6c69967f682550c1d71d4eb2612e7cb215319e7fcb0e3d52a506b0",
      "vout": 1,
      "prevout": {
        "scriptpubkey": "51202f68f2ccd33827acf831d7b0c19e2b168fafba55385bf981ca3db70924cec60d",
        "scriptpubkey_asm": "OP_PUSHNUM_1 OP_PUSHBYTES_32 2f68f2ccd33827acf831d7b0c19e2b168fafba55385bf981ca3db70924cec60d",
        "scriptpubkey_type": "v1_p2tr",
        "scriptpubkey_address": "bc1p9a509nxn8qn6e7p367cvr83tz686lwj48pdlnqw28kmsjfxwccxsp7ngwn",
        "value": 14214
      },
      "scriptsig": "",
      "scriptsig_asm": "",
      "witness": [
        "531f36721e756a02c3366d77232cdb331eb53b3415f72d170fe5e75983d420253af58796d8eee0ee29e231130a6a3551015b982239a667d14051a31746ebcd58"
      ],
      "is_coinbase": false,
      "sequence": 2147483649
    },
    {
      "txid": "0a664d6041411c5442d000b599ec245eccb68d87b5cc5ece1e2a620d4731e2a9",
      "vout": 1,
      "prevout": {
        "scriptpubkey": "51202f68f2ccd33827acf831d7b0c19e2b168fafba55385bf981ca3db70924cec60d",
        "scriptpubkey_asm": "OP_PUSHNUM_1 OP_PUSHBYTES_32 2f68f2ccd33827acf831d7b0c19e2b168fafba55385bf981ca3db70924cec60d",
        "scriptpubkey_type": "v1_p2tr",
        "scriptpubkey_address": "bc1p9a509nxn8qn6e7p367cvr83tz686lwj48pdlnqw28kmsjfxwccxsp7ngwn",
        "value": 1458
      },
      "scriptsig": "",
      "scriptsig_asm": "",
      "witness": [
        "18d0f6c8857d9d9044f2af01861179fb09825fcf0bcb7c0c7ac216470103f50aa67b0513f757b80762c90335b2608ee092938008aaa51f72e5791dd8cbef7c98"
      ],
      "is_coinbase": false,
      "sequence": 2147483649
    },
    {
      "txid": "eb49ca20c72a306c5956f86b4ae553f2e8808ff0dbf44262c2172eec57088ec2",
      "vout": 1,
      "prevout": {
        "scriptpubkey": "51202f68f2ccd33827acf831d7b0c19e2b168fafba55385bf981ca3db70924cec60d",
        "scriptpubkey_asm": "OP_PUSHNUM_1 OP_PUSHBYTES_32 2f68f2ccd33827acf831d7b0c19e2b168fafba55385bf981ca3db70924cec60d",
        "scriptpubkey_type": "v1_p2tr",
        "scriptpubkey_address": "bc1p9a509nxn8qn6e7p367cvr83tz686lwj48pdlnqw28kmsjfxwccxsp7ngwn",
        "value": 1052
      },
      "scriptsig": "",
      "scriptsig_asm": "",
      "witness": [
        "2675d739ee811970bc167dcbed13acd9d0a79e878a8888d1f052941b26c6e67bb926cc85493aa4c6e9eafa3adb1387117101c735cbb1b351438f20bbd5531d45"
      ],
      "is_coinbase": false,
      "sequence": 2147483649
    }
  ],
  "vout": [
    {
      "scriptpubkey": "5120e64bd843ae80797420377112cba7e3df4b7fb34f1f6dfb6d409ffeccc3e2d485",
      "scriptpubkey_asm": "OP_PUSHNUM_1 OP_PUSHBYTES_32 e64bd843ae80797420377112cba7e3df4b7fb34f1f6dfb6d409ffeccc3e2d485",
      "scriptpubkey_type": "v1_p2tr",
      "scriptpubkey_address": "bc1pue9assawspuhggphwyfvhflrma9hlv60raklkm2qnllveslz6jzs9f5jpj",
      "value": 27697
    }
  ],
  "size": 483,
  "weight": 1134,
  "fee": 4528,
  "status": {
    "confirmed": true,
    "block_height": 834464,
    "block_hash": "0000000000000000000177a0869a911a2b65c9bdcd5a8bcb02b68f305bee848e",
    "block_time": 1710308296
  },
  "hex": "02000000000104e975672304ce98c3b9ace887566196585bcf4df00e9f646d91a2d6d98d0dd405020000000001000080b006a5523d0ecb7f9e3115b27c2e61b24e1dd7c15025687f96696cedacbbadad010000000001000080a9e231470d622a1ece5eccb5878db6cc5e24ec99b500d042541c4141604d660a010000000001000080c28e0857ec2e17c26242f4dbf08f80e8f253e54a6bf856596c302ac720ca49eb01000000000100008001316c000000000000225120e64bd843ae80797420377112cba7e3df4b7fb34f1f6dfb6d409ffeccc3e2d485014085c334bf099e1f6a35953951886f66c42185c53863911705a999fafc883ba29b4b0f1b18b5de9584215fb67892efdaa44a37383b7229b61489d16ccbb0210b3c0140531f36721e756a02c3366d77232cdb331eb53b3415f72d170fe5e75983d420253af58796d8eee0ee29e231130a6a3551015b982239a667d14051a31746ebcd58014018d0f6c8857d9d9044f2af01861179fb09825fcf0bcb7c0c7ac216470103f50aa67b0513f757b80762c90335b2608ee092938008aaa51f72e5791dd8cbef7c9801402675d739ee811970bc167dcbed13acd9d0a79e878a8888d1f052941b26c6e67bb926cc85493aa4c6e9eafa3adb1387117101c735cbb1b351438f20bbd5531d4500000000"
}