{
  "txid": "6ad2432e7390f323434708677009a5a9f160f01d1483c1d84d310256cd623be7",
  "version": 2,
  "locktime": 0,
  "vin": [
    {
      "txid": "3f69fae8ca9bdd774ca5294e86509449f431bb44e2206cae9f7f495b7952d9e2",
      "vout": 14,
      "prevout": {
        "scriptpubkey": "51203ec3059f4c5b9918537283ee898d3c2b71c7db2f72e170554b1b8882149f2684",
        "scriptpubkey_asm": "OP_PUSHNUM_1 OP_PUSHBYTES_32 3ec3059f4c5b9918537283ee898d3c2b71c7db2f72e170554b1b8882149f2684",
        "scriptpubkey_type": "v1_p2tr",
        "scriptpubkey_address": "bc1p8mpst86vtwv3s5mjs0hgnrfu9dcu0ke0wtshq42trwygy9yly6zqj76ghv",
        "value": 2982
      },
      "scriptsig": "",
      "scriptsig_asm": "",
      "witness": [
        "9585aceef6ae6aa7e63c38c82d494c8f416596789fd65319d2dc52a7d9734eab62afb7ad690c8a46fe575b3b35e454bcbbec45ce15978af68cc9826196d10b0a",
        "208eff8ae362bac904310ae06137c2aeb774372f19f82de21ac32617155a60f9a5ac0063036f726401011e6170706c69636174696f6e2f6a736f6e3b636861727365743d7574662d38004cb67b2270223a22706f772d3230222c226f70223a226d696e74222c227469636b223a2250455045222c22616d74223a2231303030222c22736f6c7574696f6e223a22504550453a334d524d3246744a42504c46315958564766504d33656556746675364446734762623a303030303030303030303030303030303030303139393431613561653132383937363539383134343239323533333030353762306461393666336465613163353a35323834303934303232227d68",
        "c16b70a06f37e9fa1ff7e7bec8bd1210228b25051d0c17b5264cdd8c73b544f454"
      ],
      "is_coinbase": false,
      "sequence": 4294967295
    }
  ],
  "vout": [
    {
      "scriptpubkey": "a914d86bcd8c487ad519e95c6557e7463d579cce14a287",
      "scriptpubkey_asm": "OP_HASH160 OP_PUSHBYTES_20 d86bcd8c487ad519e95c6557e7463d579cce14a2 OP_EQUAL",
      "scriptpubkey_type": "p2sh",
      "scriptpubkey_address": "3MRM2FtJBPLF1YXVGfPM3eeVtfu6DFsGbb",
      "value": 546
    }
  ],
  "size": 447,
  "weight": 696,
  "fee": 2436,
  "status": {
    "confirmed": true,
    "block_height": 834460,
    "block_hash": "00000000000000000000484a79b643b2524bbce82e5d8a442013fa5b8905ed98",
    "block_time": 1710307468
  },
  "hex": "02000000000101e2d952795b497f9fae6c20e244bb31f4499450864e29a54c77dd9bcae8fa693f0e00000000ffffffff01220200000000000017a914d86bcd8c487ad519e95c6557e7463d579cce14a28703409585aceef6ae6aa7e63c38c82d494c8f416596789fd65319d2dc52a7d9734eab62afb7ad690c8a46fe575b3b35e454bcbbec45ce15978af68cc9826196d10b0afd0301208eff8ae362bac904310ae06137c2aeb774372f19f82de21ac32617155a60f9a5ac0063036f726401011e6170706c69636174696f6e2f6a736f6e3b636861727365743d7574662d38004cb67b2270223a22706f772d3230222c226f70223a226d696e74222c227469636b223a2250455045222c22616d74223a2231303030222c22736f6c7574696f6e223a22504550453a334d524d3246744a42504c46315958564766504d33656556746675364446734762623a303030303030303030303030303030303030303139393431613561653132383937363539383134343239323533333030353762306461393666336465613163353a35323834303934303232227d6821c16b70a06f37e9fa1ff7e7bec8bd1210228b25051d0c17b5264cdd8c73b544f45400000000"
}