{
  "txid": "6adeed92841ff92692ec0aea23818ecb1d4e037b2ab4326877067b2c797cc809",
  "version": 1,
  "locktime": 0,
  "vin": [
    {
      "txid": "686520359efb29ac96d9703614a265bf13d5af537ad657f244047897ea379344",
      "vout": 0,
      "prevout": {
        "scriptpubkey": "001490852beff9a0b82820d33026d262d521827679b5",
        "scriptpubkey_asm": "OP_0 OP_PUSHBYTES_20 90852beff9a0b82820d33026d262d521827679b5",
        "scriptpubkey_type": "v0_p2wpkh",
        "scriptpubkey_address": "bc1qjzzjhmle5zuzsgxnxqndyck4yxp8v7d4lwrwgg",
        "value": 26581730
      },
      "scriptsig": "",
      "scriptsig_asm": "",
      "witness": [
        "3045022100afd8dac664096d2786d1cd209958aacf45506a2cb35ec47bc4ad22970731757102207e0119ce9edb73e8c1052796c1a804b5999a17959786192508801ed5884964db01",
        "03e0f943287b2f7cafb1ef8f8df0f09c617df728c45b68da218d46a151bd5872e6"
      ],
      "is_coinbase": false,
      "sequence": 4294967295
    }
  ],
  "vout": [
    {
      "scriptpubkey": "0014363feb377ace8326d9411a18514e9b5ab455f856",
      "scriptpubkey_asm": "OP_0 OP_PUSHBYTES_20 363feb377ace8326d9411a18514e9b5ab455f856",
      "scriptpubkey_type": "v0_p2wpkh",
      "scriptpubkey_address": "bc1qxcl7kdm6e6pjdk2prgv9zn5mt269t7zkdtm6e0",
      "value": 24938974
    },
    {
      "scriptpubkey": "001490852beff9a0b82820d33026d262d521827679b5",
      "scriptpubkey_asm": "OP_0 OP_PUSHBYTES_20 90852beff9a0b82820d33026d262d521827679b5",
      "scriptpubkey_type": "v0_p2wpkh",
      "scriptpubkey_address": "bc1qjzzjhmle5zuzsgxnxqndyck4yxp8v7d4lwrwgg",
      "value": 1638949
    }
  ],
  "size": 223,
  "weight": 562,
  "fee": 3807,
  "status": {
    "confirmed": true,
    "block_height": 834638,
    "block_hash": "000000000000000000025f742c626208ac87e0b7d15054abb4a19ca2d735a54e",
    "block_time": 1710405325
  },
  "hex": "01000000000101449337ea97780444f257d67a53afd513bf65a2143670d996ac29fb9e352065680000000000ffffffff02de897c0100000000160014363feb377ace8326d9411a18514e9b5ab455f856250219000000000016001490852beff9a0b82820d33026d262d521827679b502483045022100afd8dac664096d2786d1cd209958aacf45506a2cb35ec47bc4ad22970731757102207e0119ce9edb73e8c1052796c1a804b5999a17959786192508801ed5884964db012103e0f943287b2f7cafb1ef8f8df0f09c617df728c45b68da218d46a151bd5872e600000000"
}