{
  "txid": "6af574d4a3f3a76f0480e4351c2ef40cf6d3803e149b29007138697f1f52701d",
  "version": 2,
  "locktime": 0,
  "vin": [
    {
      "txid": "93d202d6cf1f243b9283785b26a482a7cb0e96bda95f8a8ab6dcd03edcb1f249",
      "vout": 189,
      "prevout": {
        "scriptpubkey": "512030c5dd9aa6b8d6e88441e4836010349351bd699339765ab090a9d263592f6be7",
        "scriptpubkey_asm": "OP_PUSHNUM_1 OP_PUSHBYTES_32 30c5dd9aa6b8d6e88441e4836010349351bd699339765ab090a9d263592f6be7",
        "scriptpubkey_type": "v1_p2tr",
        "scriptpubkey_address": "bc1pxrzamx4xhrtw3pzpujpkqyp5jdgm66vn89m94vys48fxxkf0d0nsym0jdf",
        "value": 2236
      },
      "scriptsig": "",
      "scriptsig_asm": "",
      "witness": [
        "675e21c2baddd622abe83b166497d27794c8c5ad37b62b14c59a83fdf2b65c6ddbd503839702a2bd48a9e22c95a7370aa3bc8a1c92bbbcacd1be9066e5561b99",
        "207c96342cc3747cfab723255bbe32bc5dbbbfb98ddd0502b9d9f51fb87235c16eac0063036f726401010a746578742f706c61696e010713636272632d32303a6d696e743a666973683d3100347b2270223a226272632d3230222c227469636b223a2248554855222c226f70223a226d696e74222c22616d74223a22313030227d68",
        "c17c96342cc3747cfab723255bbe32bc5dbbbfb98ddd0502b9d9f51fb87235c16e"
      ],
      "is_coinbase": false,
      "sequence": 4294967293
    }
  ],
  "vout": [
    {
      "scriptpubkey": "5120642c2892c4dbb3946fceab627fd5121cebc698667117378acc5a9e325b815b99",
      "scriptpubkey_asm": "OP_PUSHNUM_1 OP_PUSHBYTES_32 642c2892c4dbb3946fceab627fd5121cebc698667117378acc5a9e325b815b99",
      "scriptpubkey_type": "v1_p2tr",
      "scriptpubkey_address": "bc1pvskz3ykymweegm7w4d38l4gjrn4udxrxwytn0zkvt20rykuptwvsy447v0",
      "value": 546
    }
  ],
  "size": 327,
  "weight": 609,
  "fee": 1690,
  "status": {
    "confirmed": true,
    "block_height": 834460,
    "block_hash": "00000000000000000000484a79b643b2524bbce82e5d8a442013fa5b8905ed98",
    "block_time": 1710307468
  },
  "hex": "0200000000010149f2b1dc3ed0dcb68a8a5fa9bd960ecba782a4265b7883923b241fcfd602d293bd00000000fdffffff012202000000000000225120642c2892c4dbb3946fceab627fd5121cebc698667117378acc5a9e325b815b990340675e21c2baddd622abe83b166497d27794c8c5ad37b62b14c59a83fdf2b65c6ddbd503839702a2bd48a9e22c95a7370aa3bc8a1c92bbbcacd1be9066e5561b9982207c96342cc3747cfab723255bbe32bc5dbbbfb98ddd0502b9d9f51fb87235c16eac0063036f726401010a746578742f706c61696e010713636272632d32303a6d696e743a666973683d3100347b2270223a226272632d3230222c227469636b223a2248554855222c226f70223a226d696e74222c22616d74223a22313030227d6821c17c96342cc3747cfab723255bbe32bc5dbbbfb98ddd0502b9d9f51fb87235c16e00000000"
}