{
  "txid": "6afdb674c5acc1dfaa30c879d9138ab16ca644337221c4f0d7bb0bfc6d8816d0",
  "version": 2,
  "locktime": 0,
  "vin": [
    {
      "txid": "d2652916d178c6169f742c529f852280c7b5a215e81d95dd4571f5fb0e09eb03",
      "vout": 0,
      "prevout": {
        "scriptpubkey": "5120ce1039e86ac13577cd4326765ba3200b544396098351b2e80f43249242f1df4b",
        "scriptpubkey_asm": "OP_PUSHNUM_1 OP_PUSHBYTES_32 ce1039e86ac13577cd4326765ba3200b544396098351b2e80f43249242f1df4b",
        "scriptpubkey_type": "v1_p2tr",
        "scriptpubkey_address": "bc1pecgrn6r2cy6h0n2ryem9hgeqpd2y89sfsdgm96q0gvjfysh3ma9s5qk0xg",
        "value": 546
      },
      "scriptsig": "",
      "scriptsig_asm": "",
      "witness": [
        "18987258a650c9f6bab80d68c0d7f2310829f44082a57f8edd59b5fdf8375330edaca86afd2bfef554d88ecb153e3833c2c57b63530abc7053caf130cdac668b"
      ],
      "is_coinbase": false,
      "sequence": 4294967295
    },
    {
      "txid": "e73e684b9e57949d011a71a6c7ca8f700a6fa94fbd9576090aa8d85284aeb4bb",
      "vout": 1,
      "prevout": {
        "scriptpubkey": "5120ce1039e86ac13577cd4326765ba3200b544396098351b2e80f43249242f1df4b",
        "scriptpubkey_asm": "OP_PUSHNUM_1 OP_PUSHBYTES_32 ce1039e86ac13577cd4326765ba3200b544396098351b2e80f43249242f1df4b",
        "scriptpubkey_type": "v1_p2tr",
        "scriptpubkey_address": "bc1pecgrn6r2cy6h0n2ryem9hgeqpd2y89sfsdgm96q0gvjfysh3ma9s5qk0xg",
        "value": 51455
      },
      "scriptsig": "",
      "scriptsig_asm": "",
      "witness": [
        "f9ca02f387e72a75de4c14b96fdbc5787ffe233532351e49cd5e070c9f113fd8209a295917960f036321251beab46435d85ae636452fcdb7fdbba747f9996be8"
      ],
      "is_coinbase": false,
      "sequence": 4294967295
    }
  ],
  "vout": [
    {
      "scriptpubkey": "51206fa881922cabdb4e70e23bbe4e280b3ef4b1daf79c903ebe21ce92402f2bbf6e",
      "scriptpubkey_asm": "OP_PUSHNUM_1 OP_PUSHBYTES_32 6fa881922cabdb4e70e23bbe4e280b3ef4b1daf79c903ebe21ce92402f2bbf6e",
      "scriptpubkey_type": "v1_p2tr",
      "scriptpubkey_address": "bc1pd75gry3v40d5uu8z8wlyu2qt8m6trkhhnjgra03pe6fyqtethahqq9u93f",
      "value": 546
    },
    {
      "scriptpubkey": "5120ce1039e86ac13577cd4326765ba3200b544396098351b2e80f43249242f1df4b",
      "scriptpubkey_asm": "OP_PUSHNUM_1 OP_PUSHBYTES_32 ce1039e86ac13577cd4326765ba3200b544396098351b2e80f43249242f1df4b",
      "scriptpubkey_type": "v1_p2tr",
      "scriptpubkey_address": "bc1pecgrn6r2cy6h0n2ryem9hgeqpd2y89sfsdgm96q0gvjfysh3ma9s5qk0xg",
      "value": 48275
    }
  ],
  "size": 312,
  "weight": 846,
  "fee": 3180,
  "status": {
    "confirmed": true,
    "block_height": 834460,
    "block_hash": "00000000000000000000484a79b643b2524bbce82e5d8a442013fa5b8905ed98",
    "block_time": 1710307468
  },
  "hex": "0200000000010203eb090efbf57145dd951de815a2b5c78022859f522c749f16c678d1162965d20000000000ffffffffbbb4ae8452d8a80a097695bd4fa96f0a708fcac7a6711a019d94579e4b683ee70100000000ffffffff0222020000000000002251206fa881922cabdb4e70e23bbe4e280b3ef4b1daf79c903ebe21ce92402f2bbf6e93bc000000000000225120ce1039e86ac13577cd4326765ba3200b544396098351b2e80f43249242f1df4b014018987258a650c9f6bab80d68c0d7f2310829f44082a57f8edd59b5fdf8375330edaca86afd2bfef554d88ecb153e3833c2c57b63530abc7053caf130cdac668b0140f9ca02f387e72a75de4c14b96fdbc5787ffe233532351e49cd5e070c9f113fd8209a295917960f036321251beab46435d85ae636452fcdb7fdbba747f9996be800000000"
}