{
  "txid": "6afe06780c35eeab03640edba7366bd5f60cbf9987f01cb74eaffd3531386ade",
  "version": 2,
  "locktime": 0,
  "vin": [
    {
      "txid": "8486ecb4df0880316dd6e82b3971b4df187aff23765bc3a47f8d78bb53aa273c",
      "vout": 29,
      "prevout": {
        "scriptpubkey": "5120109409f7c2a76fcb571b9591675e5083af8b64c9e7c037a1db38e330eb4fd3c0",
        "scriptpubkey_asm": "OP_PUSHNUM_1 OP_PUSHBYTES_32 109409f7c2a76fcb571b9591675e5083af8b64c9e7c037a1db38e330eb4fd3c0",
        "scriptpubkey_type": "v1_p2tr",
        "scriptpubkey_address": "bc1pzz2qna7z5ahuk4cmjkgkwhjsswhckexfulqr0gwm8r3np66060qqmtvwe2",
        "value": 2575
      },
      "scriptsig": "",
      "scriptsig_asm": "",
      "witness": [
        "eb6b5f1c5858768a9b32a662d27c41f8b03ced6a69a1997dbb1b5fbe67ef985d44942b4699749658d9e36dc58a9c7b3da2ad31654b38e458111a2ac2a58484b4",
        "20cbe312b7f6cc556646e3622fdcca2336cd3d9a3ec82072619115b3087510fba7ac0063036f726401010a746578742f706c61696e00367b2270223a226272632d3230222c226f70223a226d696e74222c227469636b223a2261616161222c22616d74223a223130303030227d68",
        "c1cbe312b7f6cc556646e3622fdcca2336cd3d9a3ec82072619115b3087510fba7"
      ],
      "is_coinbase": false,
      "sequence": 4261412863
    }
  ],
  "vout": [
    {
      "scriptpubkey": "0014ddd7ef12ea6f78edcc1e8e7afa12c01ab59f3339",
      "scriptpubkey_asm": "OP_0 OP_PUSHBYTES_20 ddd7ef12ea6f78edcc1e8e7afa12c01ab59f3339",
      "scriptpubkey_type": "v0_p2wpkh",
      "scriptpubkey_address": "bc1qmht77yh2dauwmnq73ea05ykqr26e7veea8spz6",
      "value": 546
    }
  ],
  "size": 295,
  "weight": 541,
  "fee": 2029,
  "status": {
    "confirmed": true,
    "block_height": 834460,
    "block_hash": "00000000000000000000484a79b643b2524bbce82e5d8a442013fa5b8905ed98",
    "block_time": 1710307468
  },
  "hex": "020000000001013c27aa53bb788d7fa4c35b7623ff7a18dfb471392be8d66d318008dfb4ec86841d00000000fffffffd012202000000000000160014ddd7ef12ea6f78edcc1e8e7afa12c01ab59f33390340eb6b5f1c5858768a9b32a662d27c41f8b03ced6a69a1997dbb1b5fbe67ef985d44942b4699749658d9e36dc58a9c7b3da2ad31654b38e458111a2ac2a58484b46e20cbe312b7f6cc556646e3622fdcca2336cd3d9a3ec82072619115b3087510fba7ac0063036f726401010a746578742f706c61696e00367b2270223a226272632d3230222c226f70223a226d696e74222c227469636b223a2261616161222c22616d74223a223130303030227d6821c1cbe312b7f6cc556646e3622fdcca2336cd3d9a3ec82072619115b3087510fba700000000"
}