{
  "txid": "6b1a7204b857bb6070bb8f65d70494af8b5f99275205a876011b9ec202d57cae",
  "version": 2,
  "locktime": 0,
  "vin": [
    {
      "txid": "81451a68c51915e081daaa810961855cc4af6ae2ebe9601750e995cff2d8975b",
      "vout": 0,
      "prevout": {
        "scriptpubkey": "512001d3168c3b673575602d689fff66e99680586d3f76e959851a408c9ca1bc3f23",
        "scriptpubkey_asm": "OP_PUSHNUM_1 OP_PUSHBYTES_32 01d3168c3b673575602d689fff66e99680586d3f76e959851a408c9ca1bc3f23",
        "scriptpubkey_type": "v1_p2tr",
        "scriptpubkey_address": "bc1pq8f3drpmvu6h2cpddz0l7ehfj6q9smflwm54npg6gzxfegdu8u3s7lq2j9",
        "value": 5000
      },
      "scriptsig": "",
      "scriptsig_asm": "",
      "witness": [
        "cd71d9abc84e07c30a7edd940694c7aa617c614e90970af0aa2526ad013a2002734e96a6955a746a7c816984c64124895e662cb9cb8766a1af746669a9a9a90c01"
      ],
      "is_coinbase": false,
      "sequence": 4294967295
    }
  ],
  "vout": [
    {
      "scriptpubkey": "00141e4fea09fc018148e6f52beea6ae7898af88ff80",
      "scriptpubkey_asm": "OP_0 OP_PUSHBYTES_20 1e4fea09fc018148e6f52beea6ae7898af88ff80",
      "scriptpubkey_type": "v0_p2wpkh",
      "scriptpubkey_address": "bc1qre875z0uqxq53eh490h2dtncnzhc3luqwx2t73",
      "value": 3792
    }
  ],
  "size": 151,
  "weight": 397,
  "fee": 1208,
  "status": {
    "confirmed": true,
    "block_height": 834552,
    "block_hash": "00000000000000000001dd0468a70c94f619251d286585cff57aeb4bd9ede330",
    "block_time": 1710355598
  },
  "hex": "020000000001015b97d8f2cf95e9501760e9ebe26aafc45c85610981aada81e01519c5681a45810000000000ffffffff01d00e0000000000001600141e4fea09fc018148e6f52beea6ae7898af88ff800141cd71d9abc84e07c30a7edd940694c7aa617c614e90970af0aa2526ad013a2002734e96a6955a746a7c816984c64124895e662cb9cb8766a1af746669a9a9a90c0100000000"
}