{
  "txid": "6b1ef950cc199b43cd6cebf32aadd664da90d5808c797eeb947de621e1857aa7",
  "version": 1,
  "locktime": 0,
  "vin": [
    {
      "txid": "888888841c90b3eb6f264ce18f6a805756146b4bb09dbd81f822100c0c77cda9",
      "vout": 0,
      "prevout": {
        "scriptpubkey": "5120d7b6b56cb3ad867bb4d3ced69de3c546fae5387282c764c643e5d96514487652",
        "scriptpubkey_asm": "OP_PUSHNUM_1 OP_PUSHBYTES_32 d7b6b56cb3ad867bb4d3ced69de3c546fae5387282c764c643e5d96514487652",
        "scriptpubkey_type": "v1_p2tr",
        "scriptpubkey_address": "bc1p67mt2m9n4kr8hdxnemtfmc79gmaw2wrjstrkf3jruhvk29zgwefque2mf9",
        "value": 11627
      },
      "scriptsig": "",
      "scriptsig_asm": "",
      "witness": [
        "2ab7015cbd8fe532901705c7d928961032edc91e85c9cdfb9acc1e5cb3398f1869ee6e56655e52186c07c30b838ea6442190b6ad1d1b30b5b4d1e95d9fdba1c883",
        "20930d4ffacedaeeda983fbe6875a3f39bad4c323e8346d8dda5652f8cfd9db2eaac00630461746f6d03646d7442a16461726773a468626974776f726b6367383838383838386b6d696e745f7469636b657268696e66696e697479656e6f6e63651a006f9ba46474696d651a65dc4a7968",
        "c1930d4ffacedaeeda983fbe6875a3f39bad4c323e8346d8dda5652f8cfd9db2ea"
      ],
      "is_coinbase": false,
      "sequence": 4294967293
    }
  ],
  "vout": [
    {
      "scriptpubkey": "5120bf94882e5d0c036449dc3f1782adc8fe707e6d03ea0ecdd97e048b8da94a44b1",
      "scriptpubkey_asm": "OP_PUSHNUM_1 OP_PUSHBYTES_32 bf94882e5d0c036449dc3f1782adc8fe707e6d03ea0ecdd97e048b8da94a44b1",
      "scriptpubkey_type": "v1_p2tr",
      "scriptpubkey_address": "bc1ph72gstjapspkgjwu8utc9twglec8umgrag8vmkt7qj9cm222gjcsurlt3p",
      "value": 9999
    }
  ],
  "size": 311,
  "weight": 593,
  "fee": 1628,
  "status": {
    "confirmed": true,
    "block_height": 834464,
    "block_hash": "0000000000000000000177a0869a911a2b65c9bdcd5a8bcb02b68f305bee848e",
    "block_time": 1710308296
  },
  "hex": "01000000000101a9cd770c0c1022f881bd9db04b6b145657806a8fe14c266febb3901c848888880000000000fdffffff010f27000000000000225120bf94882e5d0c036449dc3f1782adc8fe707e6d03ea0ecdd97e048b8da94a44b103412ab7015cbd8fe532901705c7d928961032edc91e85c9cdfb9acc1e5cb3398f1869ee6e56655e52186c07c30b838ea6442190b6ad1d1b30b5b4d1e95d9fdba1c8837120930d4ffacedaeeda983fbe6875a3f39bad4c323e8346d8dda5652f8cfd9db2eaac00630461746f6d03646d7442a16461726773a468626974776f726b6367383838383838386b6d696e745f7469636b657268696e66696e697479656e6f6e63651a006f9ba46474696d651a65dc4a796821c1930d4ffacedaeeda983fbe6875a3f39bad4c323e8346d8dda5652f8cfd9db2ea00000000"
}