{
  "txid": "6b29489dbc4c55bb5a777578d7e3e97ec2e8d7fb2be0bf53ccf31f8013a661f6",
  "version": 2,
  "locktime": 0,
  "vin": [
    {
      "txid": "50a83f8d4f3356e66108eb59a2b50942a2a3c5f0daf0a1b25c3ed92d79102a36",
      "vout": 1,
      "prevout": {
        "scriptpubkey": "5120101178276a6d8399eaf725034f6dfe8033980d06b89d5d4d97851c0b119887dd",
        "scriptpubkey_asm": "OP_PUSHNUM_1 OP_PUSHBYTES_32 101178276a6d8399eaf725034f6dfe8033980d06b89d5d4d97851c0b119887dd",
        "scriptpubkey_type": "v1_p2tr",
        "scriptpubkey_address": "bc1pzqghsfm2dkpen6hhy5p57m07sqeesrgxhzw46nvhs5wqkyvcslwsvr45fe",
        "value": 97011
      },
      "scriptsig": "",
      "scriptsig_asm": "",
      "witness": [
        "122eae61f657985aec3becb2f1b1c3bf6caf1482a725d9c38d2beb069c2c0f4e4c84755da3fff673ea6a49db9191e83f4a8c1fae98613059d16bc832d5e22b73"
      ],
      "is_coinbase": false,
      "sequence": 2147483649
    }
  ],
  "vout": [
    {
      "scriptpubkey": "a9141660a65ccc3777d4b7aad547c09627f8bbb7042d87",
      "scriptpubkey_asm": "OP_HASH160 OP_PUSHBYTES_20 1660a65ccc3777d4b7aad547c09627f8bbb7042d OP_EQUAL",
      "scriptpubkey_type": "p2sh",
      "scriptpubkey_address": "33jLa7YJhUCwM8itRoMK7wpA4pbg7ysfdw",
      "value": 95511
    }
  ],
  "size": 151,
  "weight": 400,
  "fee": 1500,
  "status": {
    "confirmed": true,
    "block_height": 834638,
    "block_hash": "000000000000000000025f742c626208ac87e0b7d15054abb4a19ca2d735a54e",
    "block_time": 1710405325
  },
  "hex": "02000000000101362a10792dd93e5cb2a1f0daf0c5a3a24209b5a259eb0861e656334f8d3fa85001000000000100008001177501000000000017a9141660a65ccc3777d4b7aad547c09627f8bbb7042d870140122eae61f657985aec3becb2f1b1c3bf6caf1482a725d9c38d2beb069c2c0f4e4c84755da3fff673ea6a49db9191e83f4a8c1fae98613059d16bc832d5e22b7300000000"
}