{
  "txid": "6b2eebb9f84d177d772ee64949d990481d17fdf3d9654248c9c543efb75ba4d6",
  "version": 2,
  "locktime": 0,
  "vin": [
    {
      "txid": "8486ecb4df0880316dd6e82b3971b4df187aff23765bc3a47f8d78bb53aa273c",
      "vout": 51,
      "prevout": {
        "scriptpubkey": "512022120c1ce80b14bce8db252f65929a3f78494727ab5e09a35ec99e21678a38ba",
        "scriptpubkey_asm": "OP_PUSHNUM_1 OP_PUSHBYTES_32 22120c1ce80b14bce8db252f65929a3f78494727ab5e09a35ec99e21678a38ba",
        "scriptpubkey_type": "v1_p2tr",
        "scriptpubkey_address": "bc1pygfqc88gpv2te6xmy5hkty568auyj3e84d0qng67ex0zzeu28zaqkh9hdc",
        "value": 2575
      },
      "scriptsig": "",
      "scriptsig_asm": "",
      "witness": [
        "a3b818da725dd5201c97f2b358caf7b93d1b80b12a86721a81160add312595a77ef4bb5c8b8d8c875d48cae939c00f6792fceb682702a8e262edbbba578ddc65",
        "20468057b572cdc20299420125867b3ed652fe83774593b9b15aab6818f80c81bdac0063036f726401010a746578742f706c61696e00367b2270223a226272632d3230222c226f70223a226d696e74222c227469636b223a2261616161222c22616d74223a223130303030227d68",
        "c1468057b572cdc20299420125867b3ed652fe83774593b9b15aab6818f80c81bd"
      ],
      "is_coinbase": false,
      "sequence": 4261412863
    }
  ],
  "vout": [
    {
      "scriptpubkey": "0014ddd7ef12ea6f78edcc1e8e7afa12c01ab59f3339",
      "scriptpubkey_asm": "OP_0 OP_PUSHBYTES_20 ddd7ef12ea6f78edcc1e8e7afa12c01ab59f3339",
      "scriptpubkey_type": "v0_p2wpkh",
      "scriptpubkey_address": "bc1qmht77yh2dauwmnq73ea05ykqr26e7veea8spz6",
      "value": 546
    }
  ],
  "size": 295,
  "weight": 541,
  "fee": 2029,
  "status": {
    "confirmed": true,
    "block_height": 834460,
    "block_hash": "00000000000000000000484a79b643b2524bbce82e5d8a442013fa5b8905ed98",
    "block_time": 1710307468
  },
  "hex": "020000000001013c27aa53bb788d7fa4c35b7623ff7a18dfb471392be8d66d318008dfb4ec86843300000000fffffffd012202000000000000160014ddd7ef12ea6f78edcc1e8e7afa12c01ab59f33390340a3b818da725dd5201c97f2b358caf7b93d1b80b12a86721a81160add312595a77ef4bb5c8b8d8c875d48cae939c00f6792fceb682702a8e262edbbba578ddc656e20468057b572cdc20299420125867b3ed652fe83774593b9b15aab6818f80c81bdac0063036f726401010a746578742f706c61696e00367b2270223a226272632d3230222c226f70223a226d696e74222c227469636b223a2261616161222c22616d74223a223130303030227d6821c1468057b572cdc20299420125867b3ed652fe83774593b9b15aab6818f80c81bd00000000"
}