{
  "txid": "6b3c735b23898912c4df1fc5d4bdfb50f08519205bab10fea62fdabde57750fd",
  "version": 2,
  "locktime": 0,
  "vin": [
    {
      "txid": "c1663fc47afde7bbb1d83e6bc0a45340fdc5a9ebdec523fef4b51e392ed21f58",
      "vout": 18,
      "prevout": {
        "scriptpubkey": "512020bfd871b86ad5f3706861178fe054529c0638b57f503cf9c9155b9a582a41d0",
        "scriptpubkey_asm": "OP_PUSHNUM_1 OP_PUSHBYTES_32 20bfd871b86ad5f3706861178fe054529c0638b57f503cf9c9155b9a582a41d0",
        "scriptpubkey_type": "v1_p2tr",
        "scriptpubkey_address": "bc1pyzlasudcdt2lxurgvytclcz522wqvw940agre7wfz4de5kp2g8gqtpjnwe",
        "value": 2207
      },
      "scriptsig": "",
      "scriptsig_asm": "",
      "witness": [
        "de3b239a0093000882a9378b99c1987d1045e5b86d0d3e0e537d26ba2a7b873f442ebbe2e2e1edf4abaa984fa94bc215816953147897c59c9ba445b5e1706e77",
        "20d566108bf6e006da94f6f34fed21262817fb731bae722a315d02a014ec4c8a0fac0063036f7264010118746578742f706c61696e3b636861727365743d7574662d3800357b2270223a226272632d3230222c226f70223a226d696e74222c227469636b223a22646f6765222c22616d74223a2234323030227d68",
        "c179e7bed0f3caf3813f5bc798799f48026ddc2f656deda6db0c9486dd4ef951ea"
      ],
      "is_coinbase": false,
      "sequence": 4294967295
    }
  ],
  "vout": [
    {
      "scriptpubkey": "5120d5104f8c67a3c8dcf41733f38c1be1855ad29ee4847592a882747f48f31e49bd",
      "scriptpubkey_asm": "OP_PUSHNUM_1 OP_PUSHBYTES_32 d5104f8c67a3c8dcf41733f38c1be1855ad29ee4847592a882747f48f31e49bd",
      "scriptpubkey_type": "v1_p2tr",
      "scriptpubkey_address": "bc1p65gylrr850ydeaqhx0eccxlps4dd98hys36e92yzw3l53uc7fx7spxq2f0",
      "value": 546
    }
  ],
  "size": 320,
  "weight": 602,
  "fee": 1661,
  "status": {
    "confirmed": true,
    "block_height": 834464,
    "block_hash": "0000000000000000000177a0869a911a2b65c9bdcd5a8bcb02b68f305bee848e",
    "block_time": 1710308296
  },
  "hex": "02000000000101581fd22e391eb5f4fe23c5deeba9c5fd4053a4c06b3ed8b1bbe7fd7ac43f66c11200000000ffffffff012202000000000000225120d5104f8c67a3c8dcf41733f38c1be1855ad29ee4847592a882747f48f31e49bd0340de3b239a0093000882a9378b99c1987d1045e5b86d0d3e0e537d26ba2a7b873f442ebbe2e2e1edf4abaa984fa94bc215816953147897c59c9ba445b5e1706e777b20d566108bf6e006da94f6f34fed21262817fb731bae722a315d02a014ec4c8a0fac0063036f7264010118746578742f706c61696e3b636861727365743d7574662d3800357b2270223a226272632d3230222c226f70223a226d696e74222c227469636b223a22646f6765222c22616d74223a2234323030227d6821c179e7bed0f3caf3813f5bc798799f48026ddc2f656deda6db0c9486dd4ef951ea00000000"
}