{
  "txid": "6b4095b2acac170547138b28c988d0477b0e6d94d2e5335921d28aca26e9986c",
  "version": 2,
  "locktime": 0,
  "vin": [
    {
      "txid": "6a296f79bd8094c8a96052ad8519d73acc82364951c5bfff509619ea3e026975",
      "vout": 2,
      "prevout": {
        "scriptpubkey": "51202b16617d2bb1bd95630838117c2c3f555bbe91ee7d546da0e6ebbb26be0a23c0",
        "scriptpubkey_asm": "OP_PUSHNUM_1 OP_PUSHBYTES_32 2b16617d2bb1bd95630838117c2c3f555bbe91ee7d546da0e6ebbb26be0a23c0",
        "scriptpubkey_type": "v1_p2tr",
        "scriptpubkey_address": "bc1p9vtxzlftkx7e2ccg8qghctpl24dmay0w042xmg8xawajd0s2y0qq7tnk30",
        "value": 22468
      },
      "scriptsig": "",
      "scriptsig_asm": "",
      "witness": [
        "b9f36f96d854b727d61e6cc004580e674ced0089e0c4b5fbaf6d8252b5158c47d776acecff346c221d29e56a292c1611baedf6a8a2f34a9cff1460775f5cceef"
      ],
      "is_coinbase": false,
      "sequence": 4294967295
    },
    {
      "txid": "a4d679c46e19a3b473f3d70a7365ca8adb4668868e641485d1447a76277fe526",
      "vout": 82,
      "prevout": {
        "scriptpubkey": "51202b16617d2bb1bd95630838117c2c3f555bbe91ee7d546da0e6ebbb26be0a23c0",
        "scriptpubkey_asm": "OP_PUSHNUM_1 OP_PUSHBYTES_32 2b16617d2bb1bd95630838117c2c3f555bbe91ee7d546da0e6ebbb26be0a23c0",
        "scriptpubkey_type": "v1_p2tr",
        "scriptpubkey_address": "bc1p9vtxzlftkx7e2ccg8qghctpl24dmay0w042xmg8xawajd0s2y0qq7tnk30",
        "value": 718
      },
      "scriptsig": "",
      "scriptsig_asm": "",
      "witness": [
        "0ec726d876753b3f60a268a28ac31964d790c00a4d7e648581f705a7d710936c87a321111d90d87f2cde71d492c1d45b88eafa11d9fd2b0cf60e594f6afa7c38"
      ],
      "is_coinbase": false,
      "sequence": 4294967295
    },
    {
      "txid": "6a296f79bd8094c8a96052ad8519d73acc82364951c5bfff509619ea3e026975",
      "vout": 1,
      "prevout": {
        "scriptpubkey": "51202b16617d2bb1bd95630838117c2c3f555bbe91ee7d546da0e6ebbb26be0a23c0",
        "scriptpubkey_asm": "OP_PUSHNUM_1 OP_PUSHBYTES_32 2b16617d2bb1bd95630838117c2c3f555bbe91ee7d546da0e6ebbb26be0a23c0",
        "scriptpubkey_type": "v1_p2tr",
        "scriptpubkey_address": "bc1p9vtxzlftkx7e2ccg8qghctpl24dmay0w042xmg8xawajd0s2y0qq7tnk30",
        "value": 600
      },
      "scriptsig": "",
      "scriptsig_asm": "",
      "witness": [
        "9347d9676785e92b443289f1fcfcc60dae0c3a59d4569c4bb0f577b0113d292be192f63fbb2aa67fbcc256bf061e1d1e0b6732f087733756a84fa79cff4d6c02"
      ],
      "is_coinbase": false,
      "sequence": 4294967295
    },
    {
      "txid": "6a296f79bd8094c8a96052ad8519d73acc82364951c5bfff509619ea3e026975",
      "vout": 0,
      "prevout": {
        "scriptpubkey": "51202b16617d2bb1bd95630838117c2c3f555bbe91ee7d546da0e6ebbb26be0a23c0",
        "scriptpubkey_asm": "OP_PUSHNUM_1 OP_PUSHBYTES_32 2b16617d2bb1bd95630838117c2c3f555bbe91ee7d546da0e6ebbb26be0a23c0",
        "scriptpubkey_type": "v1_p2tr",
        "scriptpubkey_address": "bc1p9vtxzlftkx7e2ccg8qghctpl24dmay0w042xmg8xawajd0s2y0qq7tnk30",
        "value": 600
      },
      "scriptsig": "",
      "scriptsig_asm": "",
      "witness": [
        "91f1d7093980c5453a51ef996933994f7a6a9095c3f3be9653f956fa267d5a5c403a2a458584f838c10523378478a746fca387782cec9c61a8f0bda8a4c954fd"
      ],
      "is_coinbase": false,
      "sequence": 4294967295
    }
  ],
  "vout": [
    {
      "scriptpubkey": "76a914d334967b3e4d0cc2545f7d0fb71000b5ca61a4fc88ac",
      "scriptpubkey_asm": "OP_DUP OP_HASH160 OP_PUSHBYTES_20 d334967b3e4d0cc2545f7d0fb71000b5ca61a4fc OP_EQUALVERIFY OP_CHECKSIG",
      "scriptpubkey_type": "p2pkh",
      "scriptpubkey_address": "1LFkaLq4VePKTNdySsgqgitaT1CNaHUgKC",
      "value": 19711
    }
  ],
  "size": 474,
  "weight": 1098,
  "fee": 4675,
  "status": {
    "confirmed": true,
    "block_height": 834638,
    "block_hash": "000000000000000000025f742c626208ac87e0b7d15054abb4a19ca2d735a54e",
    "block_time": 1710405325
  },
  "hex": "020000000001047569023eea199650ffbfc551493682cc3ad71985ad5260a9c89480bd796f296a0200000000ffffffff26e57f27767a44d18514648e866846db8aca65730ad7f373b4a3196ec479d6a45200000000ffffffff7569023eea199650ffbfc551493682cc3ad71985ad5260a9c89480bd796f296a0100000000ffffffff7569023eea199650ffbfc551493682cc3ad71985ad5260a9c89480bd796f296a0000000000ffffffff01ff4c0000000000001976a914d334967b3e4d0cc2545f7d0fb71000b5ca61a4fc88ac0140b9f36f96d854b727d61e6cc004580e674ced0089e0c4b5fbaf6d8252b5158c47d776acecff346c221d29e56a292c1611baedf6a8a2f34a9cff1460775f5cceef01400ec726d876753b3f60a268a28ac31964d790c00a4d7e648581f705a7d710936c87a321111d90d87f2cde71d492c1d45b88eafa11d9fd2b0cf60e594f6afa7c3801409347d9676785e92b443289f1fcfcc60dae0c3a59d4569c4bb0f577b0113d292be192f63fbb2aa67fbcc256bf061e1d1e0b6732f087733756a84fa79cff4d6c02014091f1d7093980c5453a51ef996933994f7a6a9095c3f3be9653f956fa267d5a5c403a2a458584f838c10523378478a746fca387782cec9c61a8f0bda8a4c954fd00000000"
}