{
  "txid": "6b4c3f34600bfc6109540d73963b8d7b26f9f22b03521a2326e59e2f10e60a70",
  "version": 2,
  "locktime": 0,
  "vin": [
    {
      "txid": "178a918b4611c38a77a310ebfa8ba4eb1139b971748030fefa5e3fc838ff774e",
      "vout": 100,
      "prevout": {
        "scriptpubkey": "a91409796b0e3fa8767f790c7593597aeddd270c987587",
        "scriptpubkey_asm": "OP_HASH160 OP_PUSHBYTES_20 09796b0e3fa8767f790c7593597aeddd270c9875 OP_EQUAL",
        "scriptpubkey_type": "p2sh",
        "scriptpubkey_address": "32Z7TZ4uGLzkYAEG13vQM3c1bErYAdRghB",
        "value": 1510592
      },
      "scriptsig": "1600145787402da6fb407e4b1dfb7d80eeb9b33250ae6f",
      "scriptsig_asm": "OP_PUSHBYTES_22 00145787402da6fb407e4b1dfb7d80eeb9b33250ae6f",
      "witness": [
        "304402207da988afb6f71b53d268320792aa7c88e9fab665b959833476d71c17bb2ce9400220647b439b2442e55d023faa5e4d20d13568c90c69dd3d9b613b3e91b948e6551101",
        "03fb31c28e05208d8879a978ec4b17ad8c9ca1e0579404efc5c64123dfcaf5b195"
      ],
      "is_coinbase": false,
      "sequence": 4294967295,
      "inner_redeemscript_asm": "OP_0 OP_PUSHBYTES_20 5787402da6fb407e4b1dfb7d80eeb9b33250ae6f"
    },
    {
      "txid": "0f99c589bb9bc47ee9f49b8b530fcf3543a47e01c7ee119bded162ee4e09e59f",
      "vout": 83,
      "prevout": {
        "scriptpubkey": "a91409796b0e3fa8767f790c7593597aeddd270c987587",
        "scriptpubkey_asm": "OP_HASH160 OP_PUSHBYTES_20 09796b0e3fa8767f790c7593597aeddd270c9875 OP_EQUAL",
        "scriptpubkey_type": "p2sh",
        "scriptpubkey_address": "32Z7TZ4uGLzkYAEG13vQM3c1bErYAdRghB",
        "value": 1372744
      },
      "scriptsig": "1600145787402da6fb407e4b1dfb7d80eeb9b33250ae6f",
      "scriptsig_asm": "OP_PUSHBYTES_22 00145787402da6fb407e4b1dfb7d80eeb9b33250ae6f",
      "witness": [
        "304502210095d3652417e25b7d19615f00333ada2945f804f70a807108563ea4e8aec5a068022047250f54c76fbf723df2068f4e994e5045415a3026e4bf52af1a016621e9967d01",
        "03fb31c28e05208d8879a978ec4b17ad8c9ca1e0579404efc5c64123dfcaf5b195"
      ],
      "is_coinbase": false,
      "sequence": 4294967295,
      "inner_redeemscript_asm": "OP_0 OP_PUSHBYTES_20 5787402da6fb407e4b1dfb7d80eeb9b33250ae6f"
    },
    {
      "txid": "e296dd1ac887751996ad6edf4610a409fa523639aa0d26c02ce9e8af09a4a1b7",
      "vout": 13,
      "prevout": {
        "scriptpubkey": "a91409796b0e3fa8767f790c7593597aeddd270c987587",
        "scriptpubkey_asm": "OP_HASH160 OP_PUSHBYTES_20 09796b0e3fa8767f790c7593597aeddd270c9875 OP_EQUAL",
        "scriptpubkey_type": "p2sh",
        "scriptpubkey_address": "32Z7TZ4uGLzkYAEG13vQM3c1bErYAdRghB",
        "value": 1355149
      },
      "scriptsig": "1600145787402da6fb407e4b1dfb7d80eeb9b33250ae6f",
      "scriptsig_asm": "OP_PUSHBYTES_22 00145787402da6fb407e4b1dfb7d80eeb9b33250ae6f",
      "witness": [
        "3045022100c547d4c0decd78724a2336c92dbd7834343e632467e51feb76033d4b249fd5a702200e7fcea18017c478e2c328a1c7595ece66a72ea5b84b42beadf8b4ab783c199501",
        "03fb31c28e05208d8879a978ec4b17ad8c9ca1e0579404efc5c64123dfcaf5b195"
      ],
      "is_coinbase": false,
      "sequence": 4294967295,
      "inner_redeemscript_asm": "OP_0 OP_PUSHBYTES_20 5787402da6fb407e4b1dfb7d80eeb9b33250ae6f"
    },
    {
      "txid": "4aff90a93aabd0f8b0516a541fb798ab61e8139e968893079351ff7ddb6a33fc",
      "vout": 0,
      "prevout": {
        "scriptpubkey": "a91409796b0e3fa8767f790c7593597aeddd270c987587",
        "scriptpubkey_asm": "OP_HASH160 OP_PUSHBYTES_20 09796b0e3fa8767f790c7593597aeddd270c9875 OP_EQUAL",
        "scriptpubkey_type": "p2sh",
        "scriptpubkey_address": "32Z7TZ4uGLzkYAEG13vQM3c1bErYAdRghB",
        "value": 1345334
      },
      "scriptsig": "1600145787402da6fb407e4b1dfb7d80eeb9b33250ae6f",
      "scriptsig_asm": "OP_PUSHBYTES_22 00145787402da6fb407e4b1dfb7d80eeb9b33250ae6f",
      "witness": [
        "304402202b903f070df5f4df0eebc19de47e434183823eb863fa018e921dcfe4afe7686302203388ee1b71453cfa70f8cdfa369cfc3c4034479e7233067a6b519d26d1996ab701",
        "03fb31c28e05208d8879a978ec4b17ad8c9ca1e0579404efc5c64123dfcaf5b195"
      ],
      "is_coinbase": false,
      "sequence": 4294967295,
      "inner_redeemscript_asm": "OP_0 OP_PUSHBYTES_20 5787402da6fb407e4b1dfb7d80eeb9b33250ae6f"
    },
    {
      "txid": "fd5ecb931d039c949a4b854045a3dd9e84ba3ff583c812e98a16a6e6198e6432",
      "vout": 12,
      "prevout": {
        "scriptpubkey": "a91409796b0e3fa8767f790c7593597aeddd270c987587",
        "scriptpubkey_asm": "OP_HASH160 OP_PUSHBYTES_20 09796b0e3fa8767f790c7593597aeddd270c9875 OP_EQUAL",
        "scriptpubkey_type": "p2sh",
        "scriptpubkey_address": "32Z7TZ4uGLzkYAEG13vQM3c1bErYAdRghB",
        "value": 966789
      },
      "scriptsig": "1600145787402da6fb407e4b1dfb7d80eeb9b33250ae6f",
      "scriptsig_asm": "OP_PUSHBYTES_22 00145787402da6fb407e4b1dfb7d80eeb9b33250ae6f",
      "witness": [
        "3044022041758b64e7dd0615c8e4f5c2adc2b78ea89ee5bc6a159f07462c30764e77c9d002203fcc310e294243135eefbafe6b17ea2cf035e367a9318058f67d485103717a1401",
        "03fb31c28e05208d8879a978ec4b17ad8c9ca1e0579404efc5c64123dfcaf5b195"
      ],
      "is_coinbase": false,
      "sequence": 4294967295,
      "inner_redeemscript_asm": "OP_0 OP_PUSHBYTES_20 5787402da6fb407e4b1dfb7d80eeb9b33250ae6f"
    },
    {
      "txid": "5dc6b67a49c62b4d5488c0f2f5725d469abce59abd214a55c375d0b63c9ef6e3",
      "vout": 167,
      "prevout": {
        "scriptpubkey": "a91409796b0e3fa8767f790c7593597aeddd270c987587",
        "scriptpubkey_asm": "OP_HASH160 OP_PUSHBYTES_20 09796b0e3fa8767f790c7593597aeddd270c9875 OP_EQUAL",
        "scriptpubkey_type": "p2sh",
        "scriptpubkey_address": "32Z7TZ4uGLzkYAEG13vQM3c1bErYAdRghB",
        "value": 803650
      },
      "scriptsig": "1600145787402da6fb407e4b1dfb7d80eeb9b33250ae6f",
      "scriptsig_asm": "OP_PUSHBYTES_22 00145787402da6fb407e4b1dfb7d80eeb9b33250ae6f",
      "witness": [
        "304402203dd56c55b2e41abc109ad546ca866f3bb31421656122dc7ca3aa3d76f734c1a002200314546042c6b2cee58fbc3acbcf06038fd0b53b229d1b4263aa4aa81912a37301",
        "03fb31c28e05208d8879a978ec4b17ad8c9ca1e0579404efc5c64123dfcaf5b195"
      ],
      "is_coinbase": false,
      "sequence": 4294967295,
      "inner_redeemscript_asm": "OP_0 OP_PUSHBYTES_20 5787402da6fb407e4b1dfb7d80eeb9b33250ae6f"
    },
    {
      "txid": "477aa11b3040c8d0c5087a6a1327c92272c04a85284a9eb8a3d65ea616283652",
      "vout": 93,
      "prevout": {
        "scriptpubkey": "a91409796b0e3fa8767f790c7593597aeddd270c987587",
        "scriptpubkey_asm": "OP_HASH160 OP_PUSHBYTES_20 09796b0e3fa8767f790c7593597aeddd270c9875 OP_EQUAL",
        "scriptpubkey_type": "p2sh",
        "scriptpubkey_address": "32Z7TZ4uGLzkYAEG13vQM3c1bErYAdRghB",
        "value": 778972
      },
      "scriptsig": "1600145787402da6fb407e4b1dfb7d80eeb9b33250ae6f",
      "scriptsig_asm": "OP_PUSHBYTES_22 00145787402da6fb407e4b1dfb7d80eeb9b33250ae6f",
      "witness": [
        "304402202133d943fb07b8819f8d88aa6082b3cc1297b125b0433c06cfc1897ac173f46a0220705555ff19646a4537bbd2a34eed3b02b96012bfc01eb605a249b0098e3fec1901",
        "03fb31c28e05208d8879a978ec4b17ad8c9ca1e0579404efc5c64123dfcaf5b195"
      ],
      "is_coinbase": false,
      "sequence": 4294967295,
      "inner_redeemscript_asm": "OP_0 OP_PUSHBYTES_20 5787402da6fb407e4b1dfb7d80eeb9b33250ae6f"
    },
    {
      "txid": "7e481861e1ef5bbc6d3ba700278a07c7093de33659204776cbb9a7f831845e35",
      "vout": 105,
      "prevout": {
        "scriptpubkey": "a91409796b0e3fa8767f790c7593597aeddd270c987587",
        "scriptpubkey_asm": "OP_HASH160 OP_PUSHBYTES_20 09796b0e3fa8767f790c7593597aeddd270c9875 OP_EQUAL",
        "scriptpubkey_type": "p2sh",
        "scriptpubkey_address": "32Z7TZ4uGLzkYAEG13vQM3c1bErYAdRghB",
        "value": 721777
      },
      "scriptsig": "1600145787402da6fb407e4b1dfb7d80eeb9b33250ae6f",
      "scriptsig_asm": "OP_PUSHBYTES_22 00145787402da6fb407e4b1dfb7d80eeb9b33250ae6f",
      "witness": [
        "3045022100e8bb610293ed9c5212c89ef25358b9ec645ac52ee7631ea9b7de6c6a20db9c010220622b5284a4e8e66350220a5938c77a9f8f284bab57cec9a096b0c50448875d2401",
        "03fb31c28e05208d8879a978ec4b17ad8c9ca1e0579404efc5c64123dfcaf5b195"
      ],
      "is_coinbase": false,
      "sequence": 4294967295,
      "inner_redeemscript_asm": "OP_0 OP_PUSHBYTES_20 5787402da6fb407e4b1dfb7d80eeb9b33250ae6f"
    },
    {
      "txid": "18dcd0ccaa27d9050ed1009f9e9ec3116fc3de8047289ce566014e7cdb0ec1c3",
      "vout": 38,
      "prevout": {
        "scriptpubkey": "a91409796b0e3fa8767f790c7593597aeddd270c987587",
        "scriptpubkey_asm": "OP_HASH160 OP_PUSHBYTES_20 09796b0e3fa8767f790c7593597aeddd270c9875 OP_EQUAL",
        "scriptpubkey_type": "p2sh",
        "scriptpubkey_address": "32Z7TZ4uGLzkYAEG13vQM3c1bErYAdRghB",
        "value": 435438
      },
      "scriptsig": "1600145787402da6fb407e4b1dfb7d80eeb9b33250ae6f",
      "scriptsig_asm": "OP_PUSHBYTES_22 00145787402da6fb407e4b1dfb7d80eeb9b33250ae6f",
      "witness": [
        "30440220694d1731778efb6082244fde3bd2155eb6f6d9f0f47af61293e96a1efa26dd24022066abe443be99524c6b6790f21ebc54de41989d61e3329170dfe245b7b4427dc101",
        "03fb31c28e05208d8879a978ec4b17ad8c9ca1e0579404efc5c64123dfcaf5b195"
      ],
      "is_coinbase": false,
      "sequence": 4294967295,
      "inner_redeemscript_asm": "OP_0 OP_PUSHBYTES_20 5787402da6fb407e4b1dfb7d80eeb9b33250ae6f"
    },
    {
      "txid": "93ab149a5d3232c121704bd952e0fc8a770e57629b2586d575c6684afd19ecc8",
      "vout": 1,
      "prevout": {
        "scriptpubkey": "a9143fe3aa39c6063fe22a55cab8640cc1a324ac7fb887",
        "scriptpubkey_asm": "OP_HASH160 OP_PUSHBYTES_20 3fe3aa39c6063fe22a55cab8640cc1a324ac7fb8 OP_EQUAL",
        "scriptpubkey_type": "p2sh",
        "scriptpubkey_address": "37WqE4pdRi3FPKyLLxfUfGrmAS3DaMtFBH",
        "value": 355352
      },
      "scriptsig": "160014b9938d42521f1e2061e3355c46c0f2cb01383c54",
      "scriptsig_asm": "OP_PUSHBYTES_22 0014b9938d42521f1e2061e3355c46c0f2cb01383c54",
      "witness": [
        "30450221009f04487b996d708ad2db41f0777c3b810c942a53b4ea50e1eb586d24f3c3c62d022064df9c40709807d7b92338b6224c3e6155018c117aefef24b4094c291738346a01",
        "03d7d333ac47ed5d49a63ddf8cb58c258a5d135692e0d23b914e73565b112bb7d1"
      ],
      "is_coinbase": false,
      "sequence": 4294967295,
      "inner_redeemscript_asm": "OP_0 OP_PUSHBYTES_20 b9938d42521f1e2061e3355c46c0f2cb01383c54"
    },
    {
      "txid": "d5693b5ae4b565d8f0e65eebc5fc55bfaccbe8907e9dcda6a4a763ae4bb423fd",
      "vout": 68,
      "prevout": {
        "scriptpubkey": "a91409796b0e3fa8767f790c7593597aeddd270c987587",
        "scriptpubkey_asm": "OP_HASH160 OP_PUSHBYTES_20 09796b0e3fa8767f790c7593597aeddd270c9875 OP_EQUAL",
        "scriptpubkey_type": "p2sh",
        "scriptpubkey_address": "32Z7TZ4uGLzkYAEG13vQM3c1bErYAdRghB",
        "value": 261231
      },
      "scriptsig": "1600145787402da6fb407e4b1dfb7d80eeb9b33250ae6f",
      "scriptsig_asm": "OP_PUSHBYTES_22 00145787402da6fb407e4b1dfb7d80eeb9b33250ae6f",
      "witness": [
        "3044022027272b2e8ca57a96a8b9d84e3e371b24bfd36f84fc7e95969c701d20783e106e0220437017254c5eb0aa3ceaac3899f1c743c3bff7e8acb575691400eb9ea4336b0c01",
        "03fb31c28e05208d8879a978ec4b17ad8c9ca1e0579404efc5c64123dfcaf5b195"
      ],
      "is_coinbase": false,
      "sequence": 4294967295,
      "inner_redeemscript_asm": "OP_0 OP_PUSHBYTES_20 5787402da6fb407e4b1dfb7d80eeb9b33250ae6f"
    },
    {
      "txid": "bd3c241108eb7ccb4c84ac0ce0173473eef9cf77aa305575e0218dfbf04b56b3",
      "vout": 77,
      "prevout": {
        "scriptpubkey": "a91409796b0e3fa8767f790c7593597aeddd270c987587",
        "scriptpubkey_asm": "OP_HASH160 OP_PUSHBYTES_20 09796b0e3fa8767f790c7593597aeddd270c9875 OP_EQUAL",
        "scriptpubkey_type": "p2sh",
        "scriptpubkey_address": "32Z7TZ4uGLzkYAEG13vQM3c1bErYAdRghB",
        "value": 242527
      },
      "scriptsig": "1600145787402da6fb407e4b1dfb7d80eeb9b33250ae6f",
      "scriptsig_asm": "OP_PUSHBYTES_22 00145787402da6fb407e4b1dfb7d80eeb9b33250ae6f",
      "witness": [
        "3045022100b52bd5728f0b2367b8308a2d5bfc3435df6b27ca75a52d5bf46ad679d26ed56f022069ad31ab72272e002fd2e29bf1b12ff7b0ca3dff0c20a33b2a9d58ffe0aa10ce01",
        "03fb31c28e05208d8879a978ec4b17ad8c9ca1e0579404efc5c64123dfcaf5b195"
      ],
      "is_coinbase": false,
      "sequence": 4294967295,
      "inner_redeemscript_asm": "OP_0 OP_PUSHBYTES_20 5787402da6fb407e4b1dfb7d80eeb9b33250ae6f"
    }
  ],
  "vout": [
    {
      "scriptpubkey": "76a9148b0eb9071e18cde806e5b554b60fda11ccb9908188ac",
      "scriptpubkey_asm": "OP_DUP OP_HASH160 OP_PUSHBYTES_20 8b0eb9071e18cde806e5b554b60fda11ccb99081 OP_EQUALVERIFY OP_CHECKSIG",
      "scriptpubkey_type": "p2pkh",
      "scriptpubkey_address": "1DgGZcxtww3m5Y16VRPjG3m1jWHwVWT7hD",
      "value": 10000000
    },
    {
      "scriptpubkey": "a9143b3a181adbf7f9eb1db5e2cffe88d71462b810ec87",
      "scriptpubkey_asm": "OP_HASH160 OP_PUSHBYTES_20 3b3a181adbf7f9eb1db5e2cffe88d71462b810ec OP_EQUAL",
      "scriptpubkey_type": "p2sh",
      "scriptpubkey_address": "376BPKD2pSVAwQSint9PB7gGucv5jVgA4W",
      "value": 129529
    }
  ],
  "size": 2135,
  "weight": 4667,
  "fee": 20026,
  "status": {
    "confirmed": true,
    "block_height": 834638,
    "block_hash": "000000000000000000025f742c626208ac87e0b7d15054abb4a19ca2d735a54e",
    "block_time": 1710405325
  },
  "hex": "0200000000010c4e77ff38c83f5efafe30807471b93911eba48bfaeb10a3778ac311468b918a1764000000171600145787402da6fb407e4b1dfb7d80eeb9b33250ae6fffffffff9fe5094eee62d1de9b11eec7017ea44335cf0f538b9bf4e97ec49bbb89c5990f53000000171600145787402da6fb407e4b1dfb7d80eeb9b33250ae6fffffffffb7a1a409afe8e92cc0260daa393652fa09a41046df6ead96197587c81add96e20d000000171600145787402da6fb407e4b1dfb7d80eeb9b33250ae6ffffffffffc336adb7dff5193079388969e13e861ab98b71f546a51b0f8d0ab3aa990ff4a00000000171600145787402da6fb407e4b1dfb7d80eeb9b33250ae6fffffffff32648e19e6a6168ae912c883f53fba849edda34540854b9a949c031d93cb5efd0c000000171600145787402da6fb407e4b1dfb7d80eeb9b33250ae6fffffffffe3f69e3cb6d075c3554a21bd9ae5bc9a465d72f5f2c088544d2bc6497ab6c65da7000000171600145787402da6fb407e4b1dfb7d80eeb9b33250ae6fffffffff52362816a65ed6a3b89e4a28854ac07222c927136a7a08c5d0c840301ba17a475d000000171600145787402da6fb407e4b1dfb7d80eeb9b33250ae6fffffffff355e8431f8a7b9cb7647205936e33d09c7078a2700a73b6dbc5befe16118487e69000000171600145787402da6fb407e4b1dfb7d80eeb9b33250ae6fffffffffc3c10edb7c4e0166e59c284780dec36f11c39e9e9f00d10e05d927aaccd0dc1826000000171600145787402da6fb407e4b1dfb7d80eeb9b33250ae6fffffffffc8ec19fd4a68c675d586259b62570e778afce052d94b7021c132325d9a14ab930100000017160014b9938d42521f1e2061e3355c46c0f2cb01383c54fffffffffd23b44bae63a7a4a6cd9d7e90e8cbacbf55fcc5eb5ee6f0d865b5e45a3b69d544000000171600145787402da6fb407e4b1dfb7d80eeb9b33250ae6fffffffffb3564bf0fb8d21e0755530aa77cff9ee733417e00cac844ccb7ceb0811243cbd4d000000171600145787402da6fb407e4b1dfb7d80eeb9b33250ae6fffffffff0280969800000000001976a9148b0eb9071e18cde806e5b554b60fda11ccb9908188acf9f901000000000017a9143b3a181adbf7f9eb1db5e2cffe88d71462b810ec870247304402207da988afb6f71b53d268320792aa7c88e9fab665b959833476d71c17bb2ce9400220647b439b2442e55d023faa5e4d20d13568c90c69dd3d9b613b3e91b948e65511012103fb31c28e05208d8879a978ec4b17ad8c9ca1e0579404efc5c64123dfcaf5b1950248304502210095d3652417e25b7d19615f00333ada2945f804f70a807108563ea4e8aec5a068022047250f54c76fbf723df2068f4e994e5045415a3026e4bf52af1a016621e9967d012103fb31c28e05208d8879a978ec4b17ad8c9ca1e0579404efc5c64123dfcaf5b19502483045022100c547d4c0decd78724a2336c92dbd7834343e632467e51feb76033d4b249fd5a702200e7fcea18017c478e2c328a1c7595ece66a72ea5b84b42beadf8b4ab783c1995012103fb31c28e05208d8879a978ec4b17ad8c9ca1e0579404efc5c64123dfcaf5b1950247304402202b903f070df5f4df0eebc19de47e434183823eb863fa018e921dcfe4afe7686302203388ee1b71453cfa70f8cdfa369cfc3c4034479e7233067a6b519d26d1996ab7012103fb31c28e05208d8879a978ec4b17ad8c9ca1e0579404efc5c64123dfcaf5b19502473044022041758b64e7dd0615c8e4f5c2adc2b78ea89ee5bc6a159f07462c30764e77c9d002203fcc310e294243135eefbafe6b17ea2cf035e367a9318058f67d485103717a14012103fb31c28e05208d8879a978ec4b17ad8c9ca1e0579404efc5c64123dfcaf5b1950247304402203dd56c55b2e41abc109ad546ca866f3bb31421656122dc7ca3aa3d76f734c1a002200314546042c6b2cee58fbc3acbcf06038fd0b53b229d1b4263aa4aa81912a373012103fb31c28e05208d8879a978ec4b17ad8c9ca1e0579404efc5c64123dfcaf5b1950247304402202133d943fb07b8819f8d88aa6082b3cc1297b125b0433c06cfc1897ac173f46a0220705555ff19646a4537bbd2a34eed3b02b96012bfc01eb605a249b0098e3fec19012103fb31c28e05208d8879a978ec4b17ad8c9ca1e0579404efc5c64123dfcaf5b19502483045022100e8bb610293ed9c5212c89ef25358b9ec645ac52ee7631ea9b7de6c6a20db9c010220622b5284a4e8e66350220a5938c77a9f8f284bab57cec9a096b0c50448875d24012103fb31c28e05208d8879a978ec4b17ad8c9ca1e0579404efc5c64123dfcaf5b195024730440220694d1731778efb6082244fde3bd2155eb6f6d9f0f47af61293e96a1efa26dd24022066abe443be99524c6b6790f21ebc54de41989d61e3329170dfe245b7b4427dc1012103fb31c28e05208d8879a978ec4b17ad8c9ca1e0579404efc5c64123dfcaf5b195024830450221009f04487b996d708ad2db41f0777c3b810c942a53b4ea50e1eb586d24f3c3c62d022064df9c40709807d7b92338b6224c3e6155018c117aefef24b4094c291738346a012103d7d333ac47ed5d49a63ddf8cb58c258a5d135692e0d23b914e73565b112bb7d102473044022027272b2e8ca57a96a8b9d84e3e371b24bfd36f84fc7e95969c701d20783e106e0220437017254c5eb0aa3ceaac3899f1c743c3bff7e8acb575691400eb9ea4336b0c012103fb31c28e05208d8879a978ec4b17ad8c9ca1e0579404efc5c64123dfcaf5b19502483045022100b52bd5728f0b2367b8308a2d5bfc3435df6b27ca75a52d5bf46ad679d26ed56f022069ad31ab72272e002fd2e29bf1b12ff7b0ca3dff0c20a33b2a9d58ffe0aa10ce012103fb31c28e05208d8879a978ec4b17ad8c9ca1e0579404efc5c64123dfcaf5b19500000000"
}