{
  "txid": "6b6f00940c2048e1087a6e3954929f5bae1be3e74af0e4d67c16c7645a588105",
  "version": 2,
  "locktime": 0,
  "vin": [
    {
      "txid": "fa3bbf77edc1d3f540bb7de57f127ce53ed3e48d43fe87130699559c5fe86525",
      "vout": 0,
      "prevout": {
        "scriptpubkey": "0014fac2d87d6abb37ae5e95eb82e2bfe53c20c213f7",
        "scriptpubkey_asm": "OP_0 OP_PUSHBYTES_20 fac2d87d6abb37ae5e95eb82e2bfe53c20c213f7",
        "scriptpubkey_type": "v0_p2wpkh",
        "scriptpubkey_address": "bc1qltpdslt2hvm6uh54awpw90l98ssvyylhn3ltnv",
        "value": 31267
      },
      "scriptsig": "",
      "scriptsig_asm": "",
      "witness": [
        "304502210088c0859700a44de0ad217bceee33083f8b734a0e149aae1e2dbbefae13d688d302200ca6e7f7101ce45f7aca73663cc666e3dd607b81aa6abb03aa793fa2a29bcc6301",
        "02cd0ad547171555bfe34194a91c1e8c44406f44f28ca2eb34a8c3443581bbf959"
      ],
      "is_coinbase": false,
      "sequence": 4294967293
    }
  ],
  "vout": [
    {
      "scriptpubkey": "001492cfaf60860c72b4b079acab3f9d7cc00d74e476",
      "scriptpubkey_asm": "OP_0 OP_PUSHBYTES_20 92cfaf60860c72b4b079acab3f9d7cc00d74e476",
      "scriptpubkey_type": "v0_p2wpkh",
      "scriptpubkey_address": "bc1qjt867cyxp3etfvre4j4nl8tucqxhferkjnel5s",
      "value": 29089
    }
  ],
  "size": 192,
  "weight": 438,
  "fee": 2178,
  "status": {
    "confirmed": true,
    "block_height": 834638,
    "block_hash": "000000000000000000025f742c626208ac87e0b7d15054abb4a19ca2d735a54e",
    "block_time": 1710405325
  },
  "hex": "020000000001012565e85f9c5599061387fe438de4d33ee57c127fe57dbb40f5d3c1ed77bf3bfa0000000000fdffffff01a17100000000000016001492cfaf60860c72b4b079acab3f9d7cc00d74e4760248304502210088c0859700a44de0ad217bceee33083f8b734a0e149aae1e2dbbefae13d688d302200ca6e7f7101ce45f7aca73663cc666e3dd607b81aa6abb03aa793fa2a29bcc63012102cd0ad547171555bfe34194a91c1e8c44406f44f28ca2eb34a8c3443581bbf95900000000"
}