{
  "txid": "6b72c32e64104eccc67e3071708798f73f8cc05b336840fa3f4cbc7395d8202e",
  "version": 2,
  "locktime": 0,
  "vin": [
    {
      "txid": "dc5a7273438e7ce937c464241b3d15bf7760a536675394c873b1c9fc35b27097",
      "vout": 1,
      "prevout": {
        "scriptpubkey": "51207a5d9e63c1881daa6c1e41c92f477d0eba9587e0ff6ecb36ab3a6ba508a2d14b",
        "scriptpubkey_asm": "OP_PUSHNUM_1 OP_PUSHBYTES_32 7a5d9e63c1881daa6c1e41c92f477d0eba9587e0ff6ecb36ab3a6ba508a2d14b",
        "scriptpubkey_type": "v1_p2tr",
        "scriptpubkey_address": "bc1p0fweuc7p3qw65mq7g8yj73map6aftplqlahvkd4t8f462z9z699s0v92qk",
        "value": 29862
      },
      "scriptsig": "",
      "scriptsig_asm": "",
      "witness": [
        "e3b51fd9932e15fd18274828dec6e34a29697343e1f6ed81f66c0d5abfa65229889404d9b125f61adc1a816086591597b2bf136d5c08abfb548a244abfb66866"
      ],
      "is_coinbase": false,
      "sequence": 4294967293
    }
  ],
  "vout": [
    {
      "scriptpubkey": "512052032e5bfed4fab711cf61e898d5f63a0d91d64c4314a0b11377d720b2afa00a",
      "scriptpubkey_asm": "OP_PUSHNUM_1 OP_PUSHBYTES_32 52032e5bfed4fab711cf61e898d5f63a0d91d64c4314a0b11377d720b2afa00a",
      "scriptpubkey_type": "v1_p2tr",
      "scriptpubkey_address": "bc1p2gpjukl76natwyw0v85f340k8gxer4jvgv22pvgnwltjpv405q9qsl8l60",
      "value": 2826
    },
    {
      "scriptpubkey": "51207a5d9e63c1881daa6c1e41c92f477d0eba9587e0ff6ecb36ab3a6ba508a2d14b",
      "scriptpubkey_asm": "OP_PUSHNUM_1 OP_PUSHBYTES_32 7a5d9e63c1881daa6c1e41c92f477d0eba9587e0ff6ecb36ab3a6ba508a2d14b",
      "scriptpubkey_type": "v1_p2tr",
      "scriptpubkey_address": "bc1p0fweuc7p3qw65mq7g8yj73map6aftplqlahvkd4t8f462z9z699s0v92qk",
      "value": 24726
    }
  ],
  "size": 205,
  "weight": 616,
  "fee": 2310,
  "status": {
    "confirmed": true,
    "block_height": 834460,
    "block_hash": "00000000000000000000484a79b643b2524bbce82e5d8a442013fa5b8905ed98",
    "block_time": 1710307468
  },
  "hex": "020000000001019770b235fcc9b173c894536736a56077bf153d1b2464c437e97c8e4373725adc0100000000fdffffff020a0b00000000000022512052032e5bfed4fab711cf61e898d5f63a0d91d64c4314a0b11377d720b2afa00a96600000000000002251207a5d9e63c1881daa6c1e41c92f477d0eba9587e0ff6ecb36ab3a6ba508a2d14b0140e3b51fd9932e15fd18274828dec6e34a29697343e1f6ed81f66c0d5abfa65229889404d9b125f61adc1a816086591597b2bf136d5c08abfb548a244abfb6686600000000"
}