{
  "txid": "6b9beb2916c456bdba6c4d260197ca497838e40c83551e87215793214e9e9461",
  "version": 2,
  "locktime": 834637,
  "vin": [
    {
      "txid": "d0daa3225b3e5e0afec5e6f284d0c9feed331ca689020cf0bb58ab4f99816b94",
      "vout": 1,
      "prevout": {
        "scriptpubkey": "0014dcf50e11a9f9e20463af3ebf6b046503e786c8ac",
        "scriptpubkey_asm": "OP_0 OP_PUSHBYTES_20 dcf50e11a9f9e20463af3ebf6b046503e786c8ac",
        "scriptpubkey_type": "v0_p2wpkh",
        "scriptpubkey_address": "bc1qmn6suydfl83qgca086lkkpr9q0ncdj9vpfx0e8",
        "value": 444135
      },
      "scriptsig": "",
      "scriptsig_asm": "",
      "witness": [
        "304402201aae95b6e2c37ca6edf8df44f615fa3684837ec1b750bad4ff77b18f5f460575022062674e0d6504c14a336686db27b3c54845518cddbd84792460e822904848ea5201",
        "0281c773717d06a98f0d1139989fec588b8d098bc61bb8bcac44093ae91effec69"
      ],
      "is_coinbase": false,
      "sequence": 4294967293
    }
  ],
  "vout": [
    {
      "scriptpubkey": "0014c69af3a9b91dd341c824c8b4fe972e03756cb908",
      "scriptpubkey_asm": "OP_0 OP_PUSHBYTES_20 c69af3a9b91dd341c824c8b4fe972e03756cb908",
      "scriptpubkey_type": "v0_p2wpkh",
      "scriptpubkey_address": "bc1qc6d082derhf5rjpyez60a9ewqd6kewggwz8978",
      "value": 47602
    },
    {
      "scriptpubkey": "00144c7a985f348bb246ed549a3e595b6785627afb27",
      "scriptpubkey_asm": "OP_0 OP_PUSHBYTES_20 4c7a985f348bb246ed549a3e595b6785627afb27",
      "scriptpubkey_type": "v0_p2wpkh",
      "scriptpubkey_address": "bc1qf3afshe53weydm25ngl9jkm8s43847e8l4pa86",
      "value": 392726
    }
  ],
  "size": 222,
  "weight": 561,
  "fee": 3807,
  "status": {
    "confirmed": true,
    "block_height": 834638,
    "block_hash": "000000000000000000025f742c626208ac87e0b7d15054abb4a19ca2d735a54e",
    "block_time": 1710405325
  },
  "hex": "02000000000101946b81994fab58bbf00c0289a61c33edfec9d084f2e6c5fe0a5e3e5b22a3dad00100000000fdffffff02f2b9000000000000160014c69af3a9b91dd341c824c8b4fe972e03756cb90816fe0500000000001600144c7a985f348bb246ed549a3e595b6785627afb270247304402201aae95b6e2c37ca6edf8df44f615fa3684837ec1b750bad4ff77b18f5f460575022062674e0d6504c14a336686db27b3c54845518cddbd84792460e822904848ea5201210281c773717d06a98f0d1139989fec588b8d098bc61bb8bcac44093ae91effec694dbc0c00"
}