{
  "txid": "6b9b271efd11b12134f99bba51a52ac9e31924ac848e99806d86da9a5caf867e",
  "version": 2,
  "locktime": 0,
  "vin": [
    {
      "txid": "83b1303fd891f1954cd87c1d288a2a6bca51045bdda40133839448bcf0a9a8be",
      "vout": 1,
      "prevout": {
        "scriptpubkey": "5120534c19991ca727a1547938fc560e5f01fb6bcd7f127c2d94b6fa62b94ac97bcf",
        "scriptpubkey_asm": "OP_PUSHNUM_1 OP_PUSHBYTES_32 534c19991ca727a1547938fc560e5f01fb6bcd7f127c2d94b6fa62b94ac97bcf",
        "scriptpubkey_type": "v1_p2tr",
        "scriptpubkey_address": "bc1p2dxpnxgu5un6z4re8r79vrjlq8akhntlzf7zm99klf3tjjkf008s8cufv3",
        "value": 2862
      },
      "scriptsig": "",
      "scriptsig_asm": "",
      "witness": [
        "6dde2a22b84c651bea08411ddc875d91675dd152da330c63f69243bc6d35dbbdf63846de77c68a5f316f16f7516a1fb825abc0d88a201e6aff829c04d2a1389d",
        "20dc730a2e52b7ee3a146d3c7fc48e1a107c5cbb2b70e54d7891342d43e1deb302ac0063036f726401011e6170706c69636174696f6e2f6a736f6e3b636861727365743d7574662d38004cd37b2270223a22706f772d3230222c226f70223a226d696e74222c227469636b223a2250455045222c22616d74223a2231303030222c22736f6c7574696f6e223a22504550453a62633170687834336d6b6632633236366e63707a6c7a7067307636616b6a73713470386379736379327a706d746e38326e367a616c7667713972663737363a303030303030303030303030303030303030303139393431613561653132383937363539383134343239323533333030353762306461393666336465613163353a3239393137363434303539227d68",
        "c043aa8de0991fd4b61b82f8195f6c835bc5de941a82824922fffa09f24edd0022"
      ],
      "is_coinbase": false,
      "sequence": 4294967295
    }
  ],
  "vout": [
    {
      "scriptpubkey": "5120b9ab1dd92ac2b5a9e022f88287b35db4a00a84f8243045083b5ccea9e85dfb10",
      "scriptpubkey_asm": "OP_PUSHNUM_1 OP_PUSHBYTES_32 b9ab1dd92ac2b5a9e022f88287b35db4a00a84f8243045083b5ccea9e85dfb10",
      "scriptpubkey_type": "v1_p2tr",
      "scriptpubkey_address": "bc1phx43mkf2c266ncpzlzpg0v6akjsq4p8cyscy2zpmtn82n6zalvgq9rf776",
      "value": 546
    }
  ],
  "size": 487,
  "weight": 769,
  "fee": 2316,
  "status": {
    "confirmed": true,
    "block_height": 834460,
    "block_hash": "00000000000000000000484a79b643b2524bbce82e5d8a442013fa5b8905ed98",
    "block_time": 1710307468
  },
  "hex": "02000000000101bea8a9f0bc4894833301a4dd5b0451ca6b2a8a281d7cd84c95f191d83f30b1830100000000ffffffff012202000000000000225120b9ab1dd92ac2b5a9e022f88287b35db4a00a84f8243045083b5ccea9e85dfb1003406dde2a22b84c651bea08411ddc875d91675dd152da330c63f69243bc6d35dbbdf63846de77c68a5f316f16f7516a1fb825abc0d88a201e6aff829c04d2a1389dfd200120dc730a2e52b7ee3a146d3c7fc48e1a107c5cbb2b70e54d7891342d43e1deb302ac0063036f726401011e6170706c69636174696f6e2f6a736f6e3b636861727365743d7574662d38004cd37b2270223a22706f772d3230222c226f70223a226d696e74222c227469636b223a2250455045222c22616d74223a2231303030222c22736f6c7574696f6e223a22504550453a62633170687834336d6b6632633236366e63707a6c7a7067307636616b6a73713470386379736379327a706d746e38326e367a616c7667713972663737363a303030303030303030303030303030303030303139393431613561653132383937363539383134343239323533333030353762306461393666336465613163353a3239393137363434303539227d6821c043aa8de0991fd4b61b82f8195f6c835bc5de941a82824922fffa09f24edd002200000000"
}