{
  "txid": "6baa0db9f0f401f20c8b7be7769241f4009715af3891dcf2309de8496e17bc5f",
  "version": 2,
  "locktime": 0,
  "vin": [
    {
      "txid": "443a21ff54b785c56a093718ac9c0a83cab0129a680b98c16411361730a40ecb",
      "vout": 4,
      "prevout": {
        "scriptpubkey": "51204dcc1eba93d272124539617834391a952a5d2d4f9348a76e6e754b0d66f253de",
        "scriptpubkey_asm": "OP_PUSHNUM_1 OP_PUSHBYTES_32 4dcc1eba93d272124539617834391a952a5d2d4f9348a76e6e754b0d66f253de",
        "scriptpubkey_type": "v1_p2tr",
        "scriptpubkey_address": "bc1pfhxpaw5n6fepy3fev9urgwg6j5496t20jdy2wmnww49s6ehj200qzmwv0v",
        "value": 600
      },
      "scriptsig": "",
      "scriptsig_asm": "",
      "witness": [
        "bbc8b2d426baffa36387df7983df89db4bee531170e35696a829a390150d71191f573991fd301be016879a945c16a32a2f0cd4b6b5573a53e9c61a1397d61484"
      ],
      "is_coinbase": false,
      "sequence": 4294967295
    },
    {
      "txid": "443a21ff54b785c56a093718ac9c0a83cab0129a680b98c16411361730a40ecb",
      "vout": 3,
      "prevout": {
        "scriptpubkey": "51204dcc1eba93d272124539617834391a952a5d2d4f9348a76e6e754b0d66f253de",
        "scriptpubkey_asm": "OP_PUSHNUM_1 OP_PUSHBYTES_32 4dcc1eba93d272124539617834391a952a5d2d4f9348a76e6e754b0d66f253de",
        "scriptpubkey_type": "v1_p2tr",
        "scriptpubkey_address": "bc1pfhxpaw5n6fepy3fev9urgwg6j5496t20jdy2wmnww49s6ehj200qzmwv0v",
        "value": 600
      },
      "scriptsig": "",
      "scriptsig_asm": "",
      "witness": [
        "7eccf318796390a10ffe04e8db4935d062826ae2669f2183177ea98cb114eaf615b3e4ed6e1058d90b1b0b30891d01c40703c218e297a07cec5ece60a0b52bc5"
      ],
      "is_coinbase": false,
      "sequence": 4294967295
    },
    {
      "txid": "8bd8590724f4a5312056a362364bb8ab6d185695fee160b8016d0eae587f8b43",
      "vout": 0,
      "prevout": {
        "scriptpubkey": "a9143b9fa437dca54880603365e11a0ec2694513b4d187",
        "scriptpubkey_asm": "OP_HASH160 OP_PUSHBYTES_20 3b9fa437dca54880603365e11a0ec2694513b4d1 OP_EQUAL",
        "scriptpubkey_type": "p2sh",
        "scriptpubkey_address": "378H2wpnFsAzzkA14fcR4ZA4y8hskSSzSj",
        "value": 546
      },
      "scriptsig": "16001466eee4d3a310ebf31d4d44763094ff96ea985f15",
      "scriptsig_asm": "OP_PUSHBYTES_22 001466eee4d3a310ebf31d4d44763094ff96ea985f15",
      "witness": [
        "30440220697bcfad40490764c319a406b959fbce5948abbaab4bf269341d39d505e5233202207af13c0e9d68340ba13b51b99fdc6278422d6d49dddbce25afdc0dc65c5f8c3383",
        "029533a6ab97d61d494468ac8fd611eec9a07719dd6e8f1662ccf9f320496c9638"
      ],
      "is_coinbase": false,
      "sequence": 4294967295,
      "inner_redeemscript_asm": "OP_0 OP_PUSHBYTES_20 66eee4d3a310ebf31d4d44763094ff96ea985f15"
    },
    {
      "txid": "7256cfe9877a72c26aa177dba62db8a096c4ca6aa990ba423ffb53be8d2fc53f",
      "vout": 1,
      "prevout": {
        "scriptpubkey": "51204dcc1eba93d272124539617834391a952a5d2d4f9348a76e6e754b0d66f253de",
        "scriptpubkey_asm": "OP_PUSHNUM_1 OP_PUSHBYTES_32 4dcc1eba93d272124539617834391a952a5d2d4f9348a76e6e754b0d66f253de",
        "scriptpubkey_type": "v1_p2tr",
        "scriptpubkey_address": "bc1pfhxpaw5n6fepy3fev9urgwg6j5496t20jdy2wmnww49s6ehj200qzmwv0v",
        "value": 762512
      },
      "scriptsig": "",
      "scriptsig_asm": "",
      "witness": [
        "f96239347ee97c77c7b3440caafc8406f6b580ae41522f351c2546db528dfb17393404217906124a35b54b11ce6f96ccba6c7dd775e98c7c4ccd129032d62d1d"
      ],
      "is_coinbase": false,
      "sequence": 4294967295
    }
  ],
  "vout": [
    {
      "scriptpubkey": "51204dcc1eba93d272124539617834391a952a5d2d4f9348a76e6e754b0d66f253de",
      "scriptpubkey_asm": "OP_PUSHNUM_1 OP_PUSHBYTES_32 4dcc1eba93d272124539617834391a952a5d2d4f9348a76e6e754b0d66f253de",
      "scriptpubkey_type": "v1_p2tr",
      "scriptpubkey_address": "bc1pfhxpaw5n6fepy3fev9urgwg6j5496t20jdy2wmnww49s6ehj200qzmwv0v",
      "value": 1200
    },
    {
      "scriptpubkey": "51204dcc1eba93d272124539617834391a952a5d2d4f9348a76e6e754b0d66f253de",
      "scriptpubkey_asm": "OP_PUSHNUM_1 OP_PUSHBYTES_32 4dcc1eba93d272124539617834391a952a5d2d4f9348a76e6e754b0d66f253de",
      "scriptpubkey_type": "v1_p2tr",
      "scriptpubkey_address": "bc1pfhxpaw5n6fepy3fev9urgwg6j5496t20jdy2wmnww49s6ehj200qzmwv0v",
      "value": 546
    },
    {
      "scriptpubkey": "a9143b9fa437dca54880603365e11a0ec2694513b4d187",
      "scriptpubkey_asm": "OP_HASH160 OP_PUSHBYTES_20 3b9fa437dca54880603365e11a0ec2694513b4d1 OP_EQUAL",
      "scriptpubkey_type": "p2sh",
      "scriptpubkey_address": "378H2wpnFsAzzkA14fcR4ZA4y8hskSSzSj",
      "value": 750000
    },
    {
      "scriptpubkey": "51204dcc1eba93d272124539617834391a952a5d2d4f9348a76e6e754b0d66f253de",
      "scriptpubkey_asm": "OP_PUSHNUM_1 OP_PUSHBYTES_32 4dcc1eba93d272124539617834391a952a5d2d4f9348a76e6e754b0d66f253de",
      "scriptpubkey_type": "v1_p2tr",
      "scriptpubkey_address": "bc1pfhxpaw5n6fepy3fev9urgwg6j5496t20jdy2wmnww49s6ehj200qzmwv0v",
      "value": 600
    },
    {
      "scriptpubkey": "51204dcc1eba93d272124539617834391a952a5d2d4f9348a76e6e754b0d66f253de",
      "scriptpubkey_asm": "OP_PUSHNUM_1 OP_PUSHBYTES_32 4dcc1eba93d272124539617834391a952a5d2d4f9348a76e6e754b0d66f253de",
      "scriptpubkey_type": "v1_p2tr",
      "scriptpubkey_address": "bc1pfhxpaw5n6fepy3fev9urgwg6j5496t20jdy2wmnww49s6ehj200qzmwv0v",
      "value": 600
    },
    {
      "scriptpubkey": "51204dcc1eba93d272124539617834391a952a5d2d4f9348a76e6e754b0d66f253de",
      "scriptpubkey_asm": "OP_PUSHNUM_1 OP_PUSHBYTES_32 4dcc1eba93d272124539617834391a952a5d2d4f9348a76e6e754b0d66f253de",
      "scriptpubkey_type": "v1_p2tr",
      "scriptpubkey_address": "bc1pfhxpaw5n6fepy3fev9urgwg6j5496t20jdy2wmnww49s6ehj200qzmwv0v",
      "value": 4539
    }
  ],
  "size": 751,
  "weight": 2083,
  "fee": 6773,
  "status": {
    "confirmed": true,
    "block_height": 834460,
    "block_hash": "00000000000000000000484a79b643b2524bbce82e5d8a442013fa5b8905ed98",
    "block_time": 1710307468
  },
  "hex": "02000000000104cb0ea43017361164c1980b689a12b0ca830a9cac1837096ac585b754ff213a440400000000ffffffffcb0ea43017361164c1980b689a12b0ca830a9cac1837096ac585b754ff213a440300000000ffffffff438b7f58ae0e6d01b860e1fe9556186dabb84b3662a3562031a5f4240759d88b000000001716001466eee4d3a310ebf31d4d44763094ff96ea985f15ffffffff3fc52f8dbe53fb3f42ba90a96acac496a0b82da6db77a16ac2727a87e9cf56720100000000ffffffff06b0040000000000002251204dcc1eba93d272124539617834391a952a5d2d4f9348a76e6e754b0d66f253de22020000000000002251204dcc1eba93d272124539617834391a952a5d2d4f9348a76e6e754b0d66f253deb0710b000000000017a9143b9fa437dca54880603365e11a0ec2694513b4d18758020000000000002251204dcc1eba93d272124539617834391a952a5d2d4f9348a76e6e754b0d66f253de58020000000000002251204dcc1eba93d272124539617834391a952a5d2d4f9348a76e6e754b0d66f253debb110000000000002251204dcc1eba93d272124539617834391a952a5d2d4f9348a76e6e754b0d66f253de0140bbc8b2d426baffa36387df7983df89db4bee531170e35696a829a390150d71191f573991fd301be016879a945c16a32a2f0cd4b6b5573a53e9c61a1397d6148401407eccf318796390a10ffe04e8db4935d062826ae2669f2183177ea98cb114eaf615b3e4ed6e1058d90b1b0b30891d01c40703c218e297a07cec5ece60a0b52bc5024730440220697bcfad40490764c319a406b959fbce5948abbaab4bf269341d39d505e5233202207af13c0e9d68340ba13b51b99fdc6278422d6d49dddbce25afdc0dc65c5f8c338321029533a6ab97d61d494468ac8fd611eec9a07719dd6e8f1662ccf9f320496c96380140f96239347ee97c77c7b3440caafc8406f6b580ae41522f351c2546db528dfb17393404217906124a35b54b11ce6f96ccba6c7dd775e98c7c4ccd129032d62d1d00000000"
}