{
  "txid": "6badc744d4a19ce3e492d3b5d8b644c754a6110debdc45d4c5da8f336c8540eb",
  "version": 1,
  "locktime": 0,
  "vin": [
    {
      "txid": "ad9f351b3f8ca05d8d19a3e2bd70d0abd870d6582a4264026af816775388755d",
      "vout": 1,
      "prevout": {
        "scriptpubkey": "0014c3cf61c4a4c40147e657c7006c607b09b76c4ef0",
        "scriptpubkey_asm": "OP_0 OP_PUSHBYTES_20 c3cf61c4a4c40147e657c7006c607b09b76c4ef0",
        "scriptpubkey_type": "v0_p2wpkh",
        "scriptpubkey_address": "bc1qc08kr39ycsq50ejhcuqxccrmpxmkcnhs4la2xd",
        "value": 4858131
      },
      "scriptsig": "",
      "scriptsig_asm": "",
      "witness": [
        "3045022100974eedea959bf625db480403591f5e7f499023d24353ddd023ad3b5a2927e42e022005fc3f61b2c505d6898b240bb4637ffab9b9dcbb6c8685fe12ba52624d3e4f3501",
        "024683c034f6bb4792dced051127eb2f5f80d9587410aa7e9caf84a3475246e772"
      ],
      "is_coinbase": false,
      "sequence": 4294967295
    }
  ],
  "vout": [
    {
      "scriptpubkey": "0014c64b0c7eb89050281cf3ebf702fe343087815c13",
      "scriptpubkey_asm": "OP_0 OP_PUSHBYTES_20 c64b0c7eb89050281cf3ebf702fe343087815c13",
      "scriptpubkey_type": "v0_p2wpkh",
      "scriptpubkey_address": "bc1qce9scl4cjpgzs88na0ms9l35xzrczhqn7l0fxx",
      "value": 136300
    },
    {
      "scriptpubkey": "00143a079d994c7d5b595b0fac5a1117f6cd76aacf79",
      "scriptpubkey_asm": "OP_0 OP_PUSHBYTES_20 3a079d994c7d5b595b0fac5a1117f6cd76aacf79",
      "scriptpubkey_type": "v0_p2wpkh",
      "scriptpubkey_address": "bc1q8gremx2v04d4jkc043dpz9lke4m24nmeaj6jfg",
      "value": 4719734
    }
  ],
  "size": 223,
  "weight": 562,
  "fee": 2097,
  "status": {
    "confirmed": true,
    "block_height": 834638,
    "block_hash": "000000000000000000025f742c626208ac87e0b7d15054abb4a19ca2d735a54e",
    "block_time": 1710405325
  },
  "hex": "010000000001015d7588537716f86a0264422a58d670d8abd070bde2a3198d5da08c3f1b359fad0100000000ffffffff026c14020000000000160014c64b0c7eb89050281cf3ebf702fe343087815c1376044800000000001600143a079d994c7d5b595b0fac5a1117f6cd76aacf7902483045022100974eedea959bf625db480403591f5e7f499023d24353ddd023ad3b5a2927e42e022005fc3f61b2c505d6898b240bb4637ffab9b9dcbb6c8685fe12ba52624d3e4f350121024683c034f6bb4792dced051127eb2f5f80d9587410aa7e9caf84a3475246e77200000000"
}