{
  "txid": "6bc4a0f5bc77e1ebb244b53445b219d3bad378683bc645000bc8a760e5c93550",
  "version": 1,
  "locktime": 0,
  "vin": [
    {
      "txid": "ef739f31026b10391c8ca582c1869fa8f6c28f3c942d7e74967406bb45aff017",
      "vout": 26,
      "prevout": {
        "scriptpubkey": "0014168e97840c0582f443b4759cc04423f4ff4681be",
        "scriptpubkey_asm": "OP_0 OP_PUSHBYTES_20 168e97840c0582f443b4759cc04423f4ff4681be",
        "scriptpubkey_type": "v0_p2wpkh",
        "scriptpubkey_address": "bc1qz68f0pqvqkp0gsa5wkwvq3pr7nl5dqd7gxtr4x",
        "value": 2643073
      },
      "scriptsig": "",
      "scriptsig_asm": "",
      "witness": [
        "304402200f6015f3f609fb9ca60a2fc7c7baa01a422190b866722901c173c8c23cbf6e6202206e144ef103ef3ae59eda56d2617db500f445255a6e0d3248e7f595e4196515cb01",
        "03a8aa4d74ee7605586ed42f5b47009e9e291dd83c92c4b040a18e89d2d54a57d1"
      ],
      "is_coinbase": false,
      "sequence": 4294967295
    },
    {
      "txid": "55e2146b3586851f22cfede66c0d1fadb9745415e7424df6b91f05c40be2acb7",
      "vout": 1,
      "prevout": {
        "scriptpubkey": "0014168e97840c0582f443b4759cc04423f4ff4681be",
        "scriptpubkey_asm": "OP_0 OP_PUSHBYTES_20 168e97840c0582f443b4759cc04423f4ff4681be",
        "scriptpubkey_type": "v0_p2wpkh",
        "scriptpubkey_address": "bc1qz68f0pqvqkp0gsa5wkwvq3pr7nl5dqd7gxtr4x",
        "value": 48140
      },
      "scriptsig": "",
      "scriptsig_asm": "",
      "witness": [
        "3045022100f6a2d8e5fe46e0e70e4824742a6a783962706efda4c0b24d4319d706bfb46f57022011bbdd67fdd50359685ecd5076c3574cb1ececd6054588a08d76ebf8f9f3d85c01",
        "03a8aa4d74ee7605586ed42f5b47009e9e291dd83c92c4b040a18e89d2d54a57d1"
      ],
      "is_coinbase": false,
      "sequence": 4294967295
    }
  ],
  "vout": [
    {
      "scriptpubkey": "76a914a22bae86dfebe4b80655ff53dfd2bb8d1281fe3988ac",
      "scriptpubkey_asm": "OP_DUP OP_HASH160 OP_PUSHBYTES_20 a22bae86dfebe4b80655ff53dfd2bb8d1281fe39 OP_EQUALVERIFY OP_CHECKSIG",
      "scriptpubkey_type": "p2pkh",
      "scriptpubkey_address": "1FnUo8yGMixXjHe5AqRxTx4FhSnw34epwv",
      "value": 2686326
    }
  ],
  "size": 343,
  "weight": 721,
  "fee": 4887,
  "status": {
    "confirmed": true,
    "block_height": 834638,
    "block_hash": "000000000000000000025f742c626208ac87e0b7d15054abb4a19ca2d735a54e",
    "block_time": 1710405325
  },
  "hex": "0100000000010217f0af45bb067496747e2d943c8fc2f6a89f86c182a58c1c39106b02319f73ef1a00000000ffffffffb7ace20bc4051fb9f64d42e7155474b9ad1f0d6ce6edcf221f8586356b14e2550100000000ffffffff0176fd2800000000001976a914a22bae86dfebe4b80655ff53dfd2bb8d1281fe3988ac0247304402200f6015f3f609fb9ca60a2fc7c7baa01a422190b866722901c173c8c23cbf6e6202206e144ef103ef3ae59eda56d2617db500f445255a6e0d3248e7f595e4196515cb012103a8aa4d74ee7605586ed42f5b47009e9e291dd83c92c4b040a18e89d2d54a57d102483045022100f6a2d8e5fe46e0e70e4824742a6a783962706efda4c0b24d4319d706bfb46f57022011bbdd67fdd50359685ecd5076c3574cb1ececd6054588a08d76ebf8f9f3d85c012103a8aa4d74ee7605586ed42f5b47009e9e291dd83c92c4b040a18e89d2d54a57d100000000"
}