{
  "txid": "6bc81b12c8a0d5705d88064c8f7cac1b9e9194230b759e372190278b8e887f6a",
  "version": 2,
  "locktime": 0,
  "vin": [
    {
      "txid": "faba2d8503b1de51ac1535a75b39bd626a2bff5e6e53974e034876ac89e914a4",
      "vout": 1,
      "prevout": {
        "scriptpubkey": "0014497197dca73ac1193eeb17a224e9e216140b63de",
        "scriptpubkey_asm": "OP_0 OP_PUSHBYTES_20 497197dca73ac1193eeb17a224e9e216140b63de",
        "scriptpubkey_type": "v0_p2wpkh",
        "scriptpubkey_address": "bc1qf9ce0h988tq3j0htz73zf60zzc2qkc7789ldva",
        "value": 178661
      },
      "scriptsig": "",
      "scriptsig_asm": "",
      "witness": [
        "3045022100af2be46915a69bb327f78ccc18e1c8378bf9da7bef4e4528cb86111cef31169a02206f7f7f3184766e77c79fd9ea15f9c4f2fcdbcffe8358b9130ef75735f36f637601",
        "02d37a8ec34aaa37ff7cf54fe4a30d81d76344c44a14c9d8a5debec202b042c4ac"
      ],
      "is_coinbase": false,
      "sequence": 4294967295
    }
  ],
  "vout": [
    {
      "scriptpubkey": "6a2a1afa7a75a7f3c9239a13733e9e6aab518410ae07167a0493e2dddc86f58cf6972bcb8bef10e9b098b2cf",
      "scriptpubkey_asm": "OP_RETURN OP_PUSHBYTES_42 1afa7a75a7f3c9239a13733e9e6aab518410ae07167a0493e2dddc86f58cf6972bcb8bef10e9b098b2cf",
      "scriptpubkey_type": "op_return",
      "value": 0
    },
    {
      "scriptpubkey": "0014497197dca73ac1193eeb17a224e9e216140b63de",
      "scriptpubkey_asm": "OP_0 OP_PUSHBYTES_20 497197dca73ac1193eeb17a224e9e216140b63de",
      "scriptpubkey_type": "v0_p2wpkh",
      "scriptpubkey_address": "bc1qf9ce0h988tq3j0htz73zf60zzc2qkc7789ldva",
      "value": 176750
    }
  ],
  "size": 245,
  "weight": 650,
  "fee": 1911,
  "status": {
    "confirmed": true,
    "block_height": 834460,
    "block_hash": "00000000000000000000484a79b643b2524bbce82e5d8a442013fa5b8905ed98",
    "block_time": 1710307468
  },
  "hex": "02000000000101a414e989ac7648034e97536e5eff2b6a62bd395ba73515ac51deb103852dbafa0100000000ffffffff0200000000000000002c6a2a1afa7a75a7f3c9239a13733e9e6aab518410ae07167a0493e2dddc86f58cf6972bcb8bef10e9b098b2cf6eb2020000000000160014497197dca73ac1193eeb17a224e9e216140b63de02483045022100af2be46915a69bb327f78ccc18e1c8378bf9da7bef4e4528cb86111cef31169a02206f7f7f3184766e77c79fd9ea15f9c4f2fcdbcffe8358b9130ef75735f36f6376012102d37a8ec34aaa37ff7cf54fe4a30d81d76344c44a14c9d8a5debec202b042c4ac00000000"
}