{
  "txid": "6bcb51e4a8c45b1a599ffd146f7ca52c54578be305dad1ff96efe4503433fdf0",
  "version": 2,
  "locktime": 0,
  "vin": [
    {
      "txid": "982e62c6dde39e0a4099913c11d2fcd66307f739b80833ad874e68ca57db5b71",
      "vout": 6,
      "prevout": {
        "scriptpubkey": "0014c406d1cba283763844b2f0f77cff1bc7d81ad928",
        "scriptpubkey_asm": "OP_0 OP_PUSHBYTES_20 c406d1cba283763844b2f0f77cff1bc7d81ad928",
        "scriptpubkey_type": "v0_p2wpkh",
        "scriptpubkey_address": "bc1qcsrdrjazsdmrs39j7rmhelcmclvp4kfgt8kdfx",
        "value": 1233745
      },
      "scriptsig": "",
      "scriptsig_asm": "",
      "witness": [
        "30440220458f03e345ae5100da4abafd5be1d207c67af6083358bfd5e8ff55b20e49b0ab02207dce34578c8ade499ae9f6b6a3b9838fbba4e87054ffb491cd644e25e1819dcf01",
        "035c72f8445b363999dc53ad7d72508e4b21feed88d4a7346b3f62475b3c5c3acb"
      ],
      "is_coinbase": false,
      "sequence": 4294967295
    }
  ],
  "vout": [
    {
      "scriptpubkey": "0014c374b2c195bdaf403e830096383acc0fe6d1d5cc",
      "scriptpubkey_asm": "OP_0 OP_PUSHBYTES_20 c374b2c195bdaf403e830096383acc0fe6d1d5cc",
      "scriptpubkey_type": "v0_p2wpkh",
      "scriptpubkey_address": "bc1qcd6t9sv4hkh5q05rqztrswkvplndr4wvh2cjh0",
      "value": 140156
    },
    {
      "scriptpubkey": "0014744043072422d5917d7f27ab770ba9e63f22bc12",
      "scriptpubkey_asm": "OP_0 OP_PUSHBYTES_20 744043072422d5917d7f27ab770ba9e63f22bc12",
      "scriptpubkey_type": "v0_p2wpkh",
      "scriptpubkey_address": "bc1qw3qyxpeyyt2ezltly74hwzafuclj90qjhe8fvg",
      "value": 1089955
    }
  ],
  "size": 222,
  "weight": 561,
  "fee": 3634,
  "status": {
    "confirmed": true,
    "block_height": 834638,
    "block_hash": "000000000000000000025f742c626208ac87e0b7d15054abb4a19ca2d735a54e",
    "block_time": 1710405325
  },
  "hex": "02000000000101715bdb57ca684e87ad3308b839f70763d6fcd2113c9199400a9ee3ddc6622e980600000000ffffffff027c23020000000000160014c374b2c195bdaf403e830096383acc0fe6d1d5cca3a1100000000000160014744043072422d5917d7f27ab770ba9e63f22bc12024730440220458f03e345ae5100da4abafd5be1d207c67af6083358bfd5e8ff55b20e49b0ab02207dce34578c8ade499ae9f6b6a3b9838fbba4e87054ffb491cd644e25e1819dcf0121035c72f8445b363999dc53ad7d72508e4b21feed88d4a7346b3f62475b3c5c3acb00000000"
}