{
  "txid": "6bd4c3ef4b5ce7c5ff1dc141734c72c0892ec7002d9b94ed745c8fc071dffbf9",
  "version": 2,
  "locktime": 0,
  "vin": [
    {
      "txid": "b3f7fffd16a659b82bec620ff71da0c10b292012af81931c81a17d28805a616c",
      "vout": 302,
      "prevout": {
        "scriptpubkey": "001487d791a14eb6a43fee5fe185e5a48a77eae9f0d8",
        "scriptpubkey_asm": "OP_0 OP_PUSHBYTES_20 87d791a14eb6a43fee5fe185e5a48a77eae9f0d8",
        "scriptpubkey_type": "v0_p2wpkh",
        "scriptpubkey_address": "bc1qslterg2wk6jrlmjluxz7tfy2wl4wnuxcew7e3w",
        "value": 1043035
      },
      "scriptsig": "",
      "scriptsig_asm": "",
      "witness": [
        "3044022055b431112a02857f229d3c44af7aa34ccefad694c353050eaf60cd12af573ac40220090bc188bd22c2f55c4daa8bd96a10bdf7d1339a18d9a52cb312bc6048d7f8fd01",
        "02bf4ff91669557767ead6155d0f8ee0e6682cd1a817bb16c2323db29fadbe2ebc"
      ],
      "is_coinbase": false,
      "sequence": 4294967293
    },
    {
      "txid": "309d0ab02e153d2c5c24063e7d6a3226fb8dd688cc2d3f3bb959b277380e788a",
      "vout": 301,
      "prevout": {
        "scriptpubkey": "0014b4ddfc23305bade4a97b5c4d5a045034b7b9e1a6",
        "scriptpubkey_asm": "OP_0 OP_PUSHBYTES_20 b4ddfc23305bade4a97b5c4d5a045034b7b9e1a6",
        "scriptpubkey_type": "v0_p2wpkh",
        "scriptpubkey_address": "bc1qknwlcgestwk7f2tmt3x45pzsxjmmncdx5jchp0",
        "value": 1014167
      },
      "scriptsig": "",
      "scriptsig_asm": "",
      "witness": [
        "3045022100c76993b35010a534f6eb952788222241cf83f668ffcafc0680e182eb06d6139502207ba802463fbc62a87a21d4e671f6eff038513dd340182d514d092fcb7e18a05f01",
        "022aa11e59dbb0108a1a8d8a73aa8150c01dbf1d124d27b21c0407d7736317a029"
      ],
      "is_coinbase": false,
      "sequence": 4294967293
    },
    {
      "txid": "5ed68e8ff9d21a0cd6314a79810f91afb9ecb4e010098c4e6ed7e45dce168500",
      "vout": 274,
      "prevout": {
        "scriptpubkey": "0014c08251b7f37213098bda1a904b63b9a13b734dda",
        "scriptpubkey_asm": "OP_0 OP_PUSHBYTES_20 c08251b7f37213098bda1a904b63b9a13b734dda",
        "scriptpubkey_type": "v0_p2wpkh",
        "scriptpubkey_address": "bc1qczp9rdlnwgfsnz76r2gykcae5yahxnw6lfnjtz",
        "value": 755547
      },
      "scriptsig": "",
      "scriptsig_asm": "",
      "witness": [
        "3045022100c12788d9e4fad6d77ce2a090230730783ca76d539a90f817f9b94ed886d9e702022013aba2038e67279ea5deca89fab12af38d6358d65ef4c4e9ae53ec4e272173d501",
        "02148b562d3ab94ab7cafb9f334c675c7cafc805d3987cc74197761050232020e3"
      ],
      "is_coinbase": false,
      "sequence": 4294967293
    },
    {
      "txid": "3b8e8127d14fd7eab5e1ec43e9b39062afb7487576168116c23c17e4b99924bf",
      "vout": 261,
      "prevout": {
        "scriptpubkey": "0014729cfeb1f4526652e01730461b65aa33c07e2683",
        "scriptpubkey_asm": "OP_0 OP_PUSHBYTES_20 729cfeb1f4526652e01730461b65aa33c07e2683",
        "scriptpubkey_type": "v0_p2wpkh",
        "scriptpubkey_address": "bc1qw2w0av052fn99cqhxprpked2x0q8uf5rz0p2l5",
        "value": 737217
      },
      "scriptsig": "",
      "scriptsig_asm": "",
      "witness": [
        "304402200df290125445ef65c5d9e10fc3c65cf92cda1bc0bbce7ab707337fbc33adf5a902204a8c3866ca74a1200a58c45efb26b1045097165d9a4f857b7f7795ac6760438201",
        "0397e32e966906af508085babe83de083b15e02437ee68b60ab5a09eab10839050"
      ],
      "is_coinbase": false,
      "sequence": 4294967293
    },
    {
      "txid": "e24f15c6eb0027b7f9c021ca5e69cce5dfb7fd50240aaba9ac1d98e72a30146c",
      "vout": 200,
      "prevout": {
        "scriptpubkey": "0014676bbda9037ca613938958b121466a1da4d666ef",
        "scriptpubkey_asm": "OP_0 OP_PUSHBYTES_20 676bbda9037ca613938958b121466a1da4d666ef",
        "scriptpubkey_type": "v0_p2wpkh",
        "scriptpubkey_address": "bc1qva4mm2gr0jnp8yuftzcjz3n2rkjdveh0pq9lrq",
        "value": 730164
      },
      "scriptsig": "",
      "scriptsig_asm": "",
      "witness": [
        "3045022100a29866ef139ffdef9428466f2ae276f8b2047014480286e805769cd0c836196c022055f17c255e871abdcfe2b9ca9257e0af40613156a650903343d27bcd0d3759df01",
        "03197fef25a8a862b3036e2f6dbc66b3ad8903c7108365dca0041cc86ad850a0a6"
      ],
      "is_coinbase": false,
      "sequence": 4294967293
    }
  ],
  "vout": [
    {
      "scriptpubkey": "001495109513c974112f4605be4d6cb97c500fa5bec0",
      "scriptpubkey_asm": "OP_0 OP_PUSHBYTES_20 95109513c974112f4605be4d6cb97c500fa5bec0",
      "scriptpubkey_type": "v0_p2wpkh",
      "scriptpubkey_address": "bc1qj5gf2y7fwsgj73s9hexkewtu2q86t0kqtpgjaf",
      "value": 4000000
    },
    {
      "scriptpubkey": "0014d0f1e4b11cfd17c429f69acaa2b5269c29d9004a",
      "scriptpubkey_asm": "OP_0 OP_PUSHBYTES_20 d0f1e4b11cfd17c429f69acaa2b5269c29d9004a",
      "scriptpubkey_type": "v0_p2wpkh",
      "scriptpubkey_address": "bc1q6rc7fvgul5tug20knt929dfxns5ajqz2uzll2h",
      "value": 258862
    }
  ],
  "size": 817,
  "weight": 1648,
  "fee": 21268,
  "status": {
    "confirmed": true,
    "block_height": 834638,
    "block_hash": "000000000000000000025f742c626208ac87e0b7d15054abb4a19ca2d735a54e",
    "block_time": 1710405325
  },
  "hex": "020000000001056c615a80287da1811c9381af1220290bc1a01df70f62ec2bb859a616fdfff7b32e01000000fdffffff8a780e3877b259b93b3f2dcc88d68dfb26326a7d3e06245c2c3d152eb00a9d302d01000000fdffffff008516ce5de4d76e4e8c0910e0b4ecb9af910f81794a31d60c1ad2f98f8ed65e1201000000fdffffffbf2499b9e4173cc2168116767548b7af6290b3e943ece1b5ead74fd127818e3b0501000000fdffffff6c14302ae7981daca9ab0a2450fdb7dfe5cc695eca21c0f9b72700ebc6154fe2c800000000fdffffff0200093d000000000016001495109513c974112f4605be4d6cb97c500fa5bec02ef3030000000000160014d0f1e4b11cfd17c429f69acaa2b5269c29d9004a02473044022055b431112a02857f229d3c44af7aa34ccefad694c353050eaf60cd12af573ac40220090bc188bd22c2f55c4daa8bd96a10bdf7d1339a18d9a52cb312bc6048d7f8fd012102bf4ff91669557767ead6155d0f8ee0e6682cd1a817bb16c2323db29fadbe2ebc02483045022100c76993b35010a534f6eb952788222241cf83f668ffcafc0680e182eb06d6139502207ba802463fbc62a87a21d4e671f6eff038513dd340182d514d092fcb7e18a05f0121022aa11e59dbb0108a1a8d8a73aa8150c01dbf1d124d27b21c0407d7736317a02902483045022100c12788d9e4fad6d77ce2a090230730783ca76d539a90f817f9b94ed886d9e702022013aba2038e67279ea5deca89fab12af38d6358d65ef4c4e9ae53ec4e272173d5012102148b562d3ab94ab7cafb9f334c675c7cafc805d3987cc74197761050232020e30247304402200df290125445ef65c5d9e10fc3c65cf92cda1bc0bbce7ab707337fbc33adf5a902204a8c3866ca74a1200a58c45efb26b1045097165d9a4f857b7f7795ac6760438201210397e32e966906af508085babe83de083b15e02437ee68b60ab5a09eab1083905002483045022100a29866ef139ffdef9428466f2ae276f8b2047014480286e805769cd0c836196c022055f17c255e871abdcfe2b9ca9257e0af40613156a650903343d27bcd0d3759df012103197fef25a8a862b3036e2f6dbc66b3ad8903c7108365dca0041cc86ad850a0a600000000"
}