{
  "txid": "6bd4278c6a22a03127387fbe11a27dc7e926d506e72bddd67c9128db5ae79d23",
  "version": 2,
  "locktime": 0,
  "vin": [
    {
      "txid": "c10e48caeee8756d57fbce0e4f26c1d08bb9f0d4a35c2d26269682da8df04dac",
      "vout": 31,
      "prevout": {
        "scriptpubkey": "51206f4545475a92cb51ba970bf78adc84129c0bec5f4fadd4fdd6e73ecd5df56fd9",
        "scriptpubkey_asm": "OP_PUSHNUM_1 OP_PUSHBYTES_32 6f4545475a92cb51ba970bf78adc84129c0bec5f4fadd4fdd6e73ecd5df56fd9",
        "scriptpubkey_type": "v1_p2tr",
        "scriptpubkey_address": "bc1pdaz52366jt94rw5hp0mc4hyyz2wqhmzlf7kaflwkuulv6h04dlvs30d7ku",
        "value": 3634
      },
      "scriptsig": "",
      "scriptsig_asm": "",
      "witness": [
        "55706747d511f8aac21d36daa1cfe59851c446727259e1ffb80c250dd46aec764a051f6af0f2f4d9701625b4bc09b01dd535c19e5c9ac40e0dbf14ca3f6e2018",
        "20485b4eae59c9121366e7e78b5a5f054675d2bf1a72460bfe6830de18469cbe2dac0063036f726401011e6170706c69636174696f6e2f6a736f6e3b636861727365743d7574662d38004cd37b2270223a22706f772d3230222c226f70223a226d696e74222c227469636b223a2250455045222c22616d74223a2231303030222c22736f6c7574696f6e223a22504550453a6263317071336e67663775716e73667434706d37357236397371616c6c30637068747278677773757a6d657864356c337039333566366d713666337664383a303030303030303030303030303030303030303139393431613561653132383937363539383134343239323533333030353762306461393666336465613163353a3433393338353638363938227d68",
        "c0406c0f2a67700582b42f36a71eb03478d57ba1acdc179ee1ec758acb282de3fd"
      ],
      "is_coinbase": false,
      "sequence": 4294967295
    }
  ],
  "vout": [
    {
      "scriptpubkey": "5120046684fb809c12ba877ea0f45803bffbf01bac6643a1c16f266d3f1096344eb6",
      "scriptpubkey_asm": "OP_PUSHNUM_1 OP_PUSHBYTES_32 046684fb809c12ba877ea0f45803bffbf01bac6643a1c16f266d3f1096344eb6",
      "scriptpubkey_type": "v1_p2tr",
      "scriptpubkey_address": "bc1pq3ngf7uqnsft4pm75r69sqall0cphtrxgwsuzmexd5l3p935f6mq6f3vd8",
      "value": 546
    }
  ],
  "size": 487,
  "weight": 769,
  "fee": 3088,
  "status": {
    "confirmed": true,
    "block_height": 834460,
    "block_hash": "00000000000000000000484a79b643b2524bbce82e5d8a442013fa5b8905ed98",
    "block_time": 1710307468
  },
  "hex": "02000000000101ac4df08dda829626262d5ca3d4f0b98bd0c1264f0ecefb576d75e8eeca480ec11f00000000ffffffff012202000000000000225120046684fb809c12ba877ea0f45803bffbf01bac6643a1c16f266d3f1096344eb6034055706747d511f8aac21d36daa1cfe59851c446727259e1ffb80c250dd46aec764a051f6af0f2f4d9701625b4bc09b01dd535c19e5c9ac40e0dbf14ca3f6e2018fd200120485b4eae59c9121366e7e78b5a5f054675d2bf1a72460bfe6830de18469cbe2dac0063036f726401011e6170706c69636174696f6e2f6a736f6e3b636861727365743d7574662d38004cd37b2270223a22706f772d3230222c226f70223a226d696e74222c227469636b223a2250455045222c22616d74223a2231303030222c22736f6c7574696f6e223a22504550453a6263317071336e67663775716e73667434706d37357236397371616c6c30637068747278677773757a6d657864356c337039333566366d713666337664383a303030303030303030303030303030303030303139393431613561653132383937363539383134343239323533333030353762306461393666336465613163353a3433393338353638363938227d6821c0406c0f2a67700582b42f36a71eb03478d57ba1acdc179ee1ec758acb282de3fd00000000"
}