{
  "txid": "6bdd2c7f1ec7f16fd39aa259e3290c27b7528d6f267d82a928b8dcc5d5d2932a",
  "version": 2,
  "locktime": 0,
  "vin": [
    {
      "txid": "694d314147e8edde3db2d006d729a7a1c1dc6b90cbc340e87b9a3a8dbc84d921",
      "vout": 4,
      "prevout": {
        "scriptpubkey": "512077158de4b4ef527643be31bf894a45d59e6e63656f3419e8bf90acc2d32e20ac",
        "scriptpubkey_asm": "OP_PUSHNUM_1 OP_PUSHBYTES_32 77158de4b4ef527643be31bf894a45d59e6e63656f3419e8bf90acc2d32e20ac",
        "scriptpubkey_type": "v1_p2tr",
        "scriptpubkey_address": "bc1pwu2cme95aaf8vsa7xxlcjjj96k0xucm9du6pn69ljzkv95ewyzkqtr3j09",
        "value": 2622
      },
      "scriptsig": "",
      "scriptsig_asm": "",
      "witness": [
        "0a679e69edd65b129de002ad43e181c3fa8af3b291fa658a2ae5b8d76cdae3cf9a9bac153e445000de26263fac51f24926edede3e89fbcfc2c96d3188cd506f5",
        "20448146e5ba34c2a0d83439ec9941681b419f92449343eafa4b5926f725730ce7ac0063036f7264010118746578742f706c61696e3b636861727365743d7574662d38004c867b2270223a22746170222c226f70223a22646d742d6d696e74222c22646570223a22333962373532343338626533613435326464623731376230613635346233313662316164343661383139656234343831383933626337313331663738396539616930222c227469636b223a226e61746f776c73222c22626c6b223a22343939333838227d68",
        "c0448146e5ba34c2a0d83439ec9941681b419f92449343eafa4b5926f725730ce77380fc0d4c4887adffea497e2ec5e80dab029b6d3c2fda097be05e14c7ac589e"
      ],
      "is_coinbase": false,
      "sequence": 4294967293
    }
  ],
  "vout": [
    {
      "scriptpubkey": "512037e4213c25d1f0edc728c8544be681358c276a9fd1b5186bcc8fea63a24916d1",
      "scriptpubkey_asm": "OP_PUSHNUM_1 OP_PUSHBYTES_32 37e4213c25d1f0edc728c8544be681358c276a9fd1b5186bcc8fea63a24916d1",
      "scriptpubkey_type": "v1_p2tr",
      "scriptpubkey_address": "bc1pxljzz0p968cwm3egep2yhe5pxkxzw65l6x63s67v3l4x8gjfzmgscm6gkq",
      "value": 546
    }
  ],
  "size": 434,
  "weight": 716,
  "fee": 2076,
  "status": {
    "confirmed": true,
    "block_height": 834460,
    "block_hash": "00000000000000000000484a79b643b2524bbce82e5d8a442013fa5b8905ed98",
    "block_time": 1710307468
  },
  "hex": "0200000000010121d984bc8d3a9a7be840c3cb906bdcc1a1a729d706d0b23ddeede84741314d690400000000fdffffff01220200000000000022512037e4213c25d1f0edc728c8544be681358c276a9fd1b5186bcc8fea63a24916d103400a679e69edd65b129de002ad43e181c3fa8af3b291fa658a2ae5b8d76cdae3cf9a9bac153e445000de26263fac51f24926edede3e89fbcfc2c96d3188cd506f5cd20448146e5ba34c2a0d83439ec9941681b419f92449343eafa4b5926f725730ce7ac0063036f7264010118746578742f706c61696e3b636861727365743d7574662d38004c867b2270223a22746170222c226f70223a22646d742d6d696e74222c22646570223a22333962373532343338626533613435326464623731376230613635346233313662316164343661383139656234343831383933626337313331663738396539616930222c227469636b223a226e61746f776c73222c22626c6b223a22343939333838227d6841c0448146e5ba34c2a0d83439ec9941681b419f92449343eafa4b5926f725730ce77380fc0d4c4887adffea497e2ec5e80dab029b6d3c2fda097be05e14c7ac589e00000000"
}