{
  "txid": "6be90bf1e61600d90e8eabaf79ede8c079c751b4c63601fa53d4c937253bd722",
  "version": 2,
  "locktime": 0,
  "vin": [
    {
      "txid": "4d5e8b65f2bd561206acd12614c68a183fa9cc0794289f78b16213511737b029",
      "vout": 1,
      "prevout": {
        "scriptpubkey": "002071bdd61bab05c5cf680fce74d2d85a6a55bb5fd950e29600dbc3f25fd36875ca",
        "scriptpubkey_asm": "OP_0 OP_PUSHBYTES_32 71bdd61bab05c5cf680fce74d2d85a6a55bb5fd950e29600dbc3f25fd36875ca",
        "scriptpubkey_type": "v0_p2wsh",
        "scriptpubkey_address": "bc1qwx7avxatqhzu76q0ee6d9kz6df2mkh7e2r3fvqxmc0e9l5mgwh9qp7qf68",
        "value": 10000000
      },
      "scriptsig": "",
      "scriptsig_asm": "",
      "witness": [
        "",
        "30450221008f3e326c6ca6ec121ce86893143bf10479aad442fda4a1b071f63757472d32ea02205c2cb431d162a093c8dbdb892142b601bb9c050e6195492b69642a4f4adc985701",
        "3045022100bf65b43490b19a5bd2c7be3d1ad2593615857ce604b52973e8b8e262f72e3712022006b402602781ff629a40f5ab7e179508cb877e664ae76d95c3862d7ca54808be01",
        "52210330f9a4ae2a3f26b0d2522989abafda0f572bfda16d9b4eb00ecc5c5826e635f12103ac338bb10f62abd7ae5c3cf4b1870460d155511173d36ce675886bf5a75498e352ae"
      ],
      "is_coinbase": false,
      "sequence": 4294967295,
      "inner_witnessscript_asm": "OP_PUSHNUM_2 OP_PUSHBYTES_33 0330f9a4ae2a3f26b0d2522989abafda0f572bfda16d9b4eb00ecc5c5826e635f1 OP_PUSHBYTES_33 03ac338bb10f62abd7ae5c3cf4b1870460d155511173d36ce675886bf5a75498e3 OP_PUSHNUM_2 OP_CHECKMULTISIG"
    }
  ],
  "vout": [
    {
      "scriptpubkey": "51203181ad825914d5835ba76598970ddec21bf579a8e0c32d5a6ee715cfeaf286fe",
      "scriptpubkey_asm": "OP_PUSHNUM_1 OP_PUSHBYTES_32 3181ad825914d5835ba76598970ddec21bf579a8e0c32d5a6ee715cfeaf286fe",
      "scriptpubkey_type": "v1_p2tr",
      "scriptpubkey_address": "bc1pxxq6mqjezn2cxka8vkvfwrw7cgdl27dgurpj6knwuu2ul6hjsmlq5jutqa",
      "value": 924734
    },
    {
      "scriptpubkey": "512099497567235dfea8576a3321b8229df1b26ed3fdd1cbd47b331fe0c8266ca65c",
      "scriptpubkey_asm": "OP_PUSHNUM_1 OP_PUSHBYTES_32 99497567235dfea8576a3321b8229df1b26ed3fdd1cbd47b331fe0c8266ca65c",
      "scriptpubkey_type": "v1_p2tr",
      "scriptpubkey_address": "bc1pn9yh2eerthl2s4m2xvsmsg5a7xexa5la689ag7enrlsvsfnv5ewqfn5plz",
      "value": 9073164
    }
  ],
  "size": 359,
  "weight": 770,
  "fee": 2102,
  "status": {
    "confirmed": true,
    "block_height": 834464,
    "block_hash": "0000000000000000000177a0869a911a2b65c9bdcd5a8bcb02b68f305bee848e",
    "block_time": 1710308296
  },
  "hex": "0200000000010129b03717511362b1789f289407cca93f188ac61426d1ac061256bdf2658b5e4d0100000000ffffffff023e1c0e00000000002251203181ad825914d5835ba76598970ddec21bf579a8e0c32d5a6ee715cfeaf286fe0c728a000000000022512099497567235dfea8576a3321b8229df1b26ed3fdd1cbd47b331fe0c8266ca65c04004830450221008f3e326c6ca6ec121ce86893143bf10479aad442fda4a1b071f63757472d32ea02205c2cb431d162a093c8dbdb892142b601bb9c050e6195492b69642a4f4adc985701483045022100bf65b43490b19a5bd2c7be3d1ad2593615857ce604b52973e8b8e262f72e3712022006b402602781ff629a40f5ab7e179508cb877e664ae76d95c3862d7ca54808be014752210330f9a4ae2a3f26b0d2522989abafda0f572bfda16d9b4eb00ecc5c5826e635f12103ac338bb10f62abd7ae5c3cf4b1870460d155511173d36ce675886bf5a75498e352ae00000000"
}