{
  "txid": "6bfc92ab1ae8323b9d3e8b7527264a9222a03364ca2595c0007c95c5754ebf83",
  "version": 2,
  "locktime": 0,
  "vin": [
    {
      "txid": "6f3d8dcad1dab9137d2c07c279efcd029811ba68fcff578189987ac872db9368",
      "vout": 22,
      "prevout": {
        "scriptpubkey": "001409c9e2eefe359e042986e990210b41f42079fafc",
        "scriptpubkey_asm": "OP_0 OP_PUSHBYTES_20 09c9e2eefe359e042986e990210b41f42079fafc",
        "scriptpubkey_type": "v0_p2wpkh",
        "scriptpubkey_address": "bc1qp8y79mh7xk0qg2vxaxgzzz6p7ss8n7hul623mm",
        "value": 536675
      },
      "scriptsig": "",
      "scriptsig_asm": "",
      "witness": [
        "3045022100a05fd3032f7afb7bce0e1cee3921c86b24c237d33faf9b0d0469cb6c0fce3c4c02206a9b0b934b0a4d07c64b1f2bab4fc9d137d837c326d86fdc4708989e3c694b0801",
        "022b6bd2e243263c3f32bbc951c8743ad268f60fc276bc871325f6349607bb2344"
      ],
      "is_coinbase": false,
      "sequence": 4294967295
    }
  ],
  "vout": [
    {
      "scriptpubkey": "00146da5e483ce1754c35439e40466c4ab685cf230b8",
      "scriptpubkey_asm": "OP_0 OP_PUSHBYTES_20 6da5e483ce1754c35439e40466c4ab685cf230b8",
      "scriptpubkey_type": "v0_p2wpkh",
      "scriptpubkey_address": "bc1qdkj7fq7wza2vx4peuszxd39tdpw0yv9czvmcqr",
      "value": 534805
    }
  ],
  "size": 192,
  "weight": 438,
  "fee": 1870,
  "status": {
    "confirmed": true,
    "block_height": 834464,
    "block_hash": "0000000000000000000177a0869a911a2b65c9bdcd5a8bcb02b68f305bee848e",
    "block_time": 1710308296
  },
  "hex": "020000000001016893db72c87a98898157fffc68ba119802cdef79c2072c7d13b9dad1ca8d3d6f1600000000ffffffff0115290800000000001600146da5e483ce1754c35439e40466c4ab685cf230b802483045022100a05fd3032f7afb7bce0e1cee3921c86b24c237d33faf9b0d0469cb6c0fce3c4c02206a9b0b934b0a4d07c64b1f2bab4fc9d137d837c326d86fdc4708989e3c694b080121022b6bd2e243263c3f32bbc951c8743ad268f60fc276bc871325f6349607bb234400000000"
}