{
  "txid": "6c0283d6cdb921712848299169e1907742429908dca0c4a10a9303e930c63675",
  "version": 2,
  "locktime": 0,
  "vin": [
    {
      "txid": "8e3a97745b758681bfb940dba95d63a759cb63d10c55ffdb98843ac014fbc260",
      "vout": 1,
      "prevout": {
        "scriptpubkey": "00148a069db7b1f455fbcbacac4e059992cdddb182f8",
        "scriptpubkey_asm": "OP_0 OP_PUSHBYTES_20 8a069db7b1f455fbcbacac4e059992cdddb182f8",
        "scriptpubkey_type": "v0_p2wpkh",
        "scriptpubkey_address": "bc1q3grfmda3732lhjav438qtxvjehwmrqhcyv33eq",
        "value": 175532
      },
      "scriptsig": "",
      "scriptsig_asm": "",
      "witness": [
        "3045022100d7c9b03a241289e281229a74764e5b73c5b8bfb1de21723b7bbb0d70e9d61515022052be65ce857d31f19f3174e2ffa6c8f393495df28195f73d37fa3361b89eb41901",
        "0284f096b1a67da35b7ce2adee599bf9dc0fb4f1e2e59776dec2f45ce40acc9672"
      ],
      "is_coinbase": false,
      "sequence": 4294967295
    }
  ],
  "vout": [
    {
      "scriptpubkey": "0014a58074726cebfd10469b69f27758b8f40b6ea623",
      "scriptpubkey_asm": "OP_0 OP_PUSHBYTES_20 a58074726cebfd10469b69f27758b8f40b6ea623",
      "scriptpubkey_type": "v0_p2wpkh",
      "scriptpubkey_address": "bc1q5kq8gunva073q35md8e8wk9c7s9kaf3r0r5wuv",
      "value": 12000
    },
    {
      "scriptpubkey": "001497853033ab8335113de454e209ae42f9e5389d89",
      "scriptpubkey_asm": "OP_0 OP_PUSHBYTES_20 97853033ab8335113de454e209ae42f9e5389d89",
      "scriptpubkey_type": "v0_p2wpkh",
      "scriptpubkey_address": "bc1qj7znqvatsv63z00y2n3qntjzl8jn38vfdhcxh2",
      "value": 162009
    }
  ],
  "size": 223,
  "weight": 562,
  "fee": 1523,
  "status": {
    "confirmed": true,
    "block_height": 834464,
    "block_hash": "0000000000000000000177a0869a911a2b65c9bdcd5a8bcb02b68f305bee848e",
    "block_time": 1710308296
  },
  "hex": "0200000000010160c2fb14c03a8498dbff550cd163cb59a7635da9db40b9bf8186755b74973a8e0100000000ffffffff02e02e000000000000160014a58074726cebfd10469b69f27758b8f40b6ea623d97802000000000016001497853033ab8335113de454e209ae42f9e5389d8902483045022100d7c9b03a241289e281229a74764e5b73c5b8bfb1de21723b7bbb0d70e9d61515022052be65ce857d31f19f3174e2ffa6c8f393495df28195f73d37fa3361b89eb41901210284f096b1a67da35b7ce2adee599bf9dc0fb4f1e2e59776dec2f45ce40acc967200000000"
}