{
  "txid": "6c087f23ff7c23c5f350a9fb283a4bb89fb4453520519c9350a3fd142285fa44",
  "version": 2,
  "locktime": 0,
  "vin": [
    {
      "txid": "1f75051e09a411977eea54c7cdcb8fe2fd950fd8bb6f49d1560e96ea8dee515d",
      "vout": 12,
      "prevout": {
        "scriptpubkey": "51200b528b5938bcb6f9fa4805754585bd0371e147de39bb659a10236d27d0bb402c",
        "scriptpubkey_asm": "OP_PUSHNUM_1 OP_PUSHBYTES_32 0b528b5938bcb6f9fa4805754585bd0371e147de39bb659a10236d27d0bb402c",
        "scriptpubkey_type": "v1_p2tr",
        "scriptpubkey_address": "bc1ppdfgkkfchjm0n7jgq465tpdaqdc7z3778xaktxssydkj059mgqkqdqlpvc",
        "value": 600
      },
      "scriptsig": "",
      "scriptsig_asm": "",
      "witness": [
        "c2e7bd5607e616618b7c60cb4deb240b62ac0f25ef799935ef31ea2f5e4dd4121937b6ab018ceae17cc74b307512adc1e75af86f70ec42c6e613c7ed0568f17801"
      ],
      "is_coinbase": false,
      "sequence": 4294967295
    },
    {
      "txid": "1f75051e09a411977eea54c7cdcb8fe2fd950fd8bb6f49d1560e96ea8dee515d",
      "vout": 13,
      "prevout": {
        "scriptpubkey": "51200b528b5938bcb6f9fa4805754585bd0371e147de39bb659a10236d27d0bb402c",
        "scriptpubkey_asm": "OP_PUSHNUM_1 OP_PUSHBYTES_32 0b528b5938bcb6f9fa4805754585bd0371e147de39bb659a10236d27d0bb402c",
        "scriptpubkey_type": "v1_p2tr",
        "scriptpubkey_address": "bc1ppdfgkkfchjm0n7jgq465tpdaqdc7z3778xaktxssydkj059mgqkqdqlpvc",
        "value": 600
      },
      "scriptsig": "",
      "scriptsig_asm": "",
      "witness": [
        "1255b9222ce17f7ecda31bce0bd15600d1c81ea1db6022d286bdc7a23aabfcf58106cc358292c94105a58c4a9f6f5d6bd8a82b4e5e40d56634b5255775dd7a0601"
      ],
      "is_coinbase": false,
      "sequence": 4294967295
    },
    {
      "txid": "1f75051e09a411977eea54c7cdcb8fe2fd950fd8bb6f49d1560e96ea8dee515d",
      "vout": 16,
      "prevout": {
        "scriptpubkey": "51200b528b5938bcb6f9fa4805754585bd0371e147de39bb659a10236d27d0bb402c",
        "scriptpubkey_asm": "OP_PUSHNUM_1 OP_PUSHBYTES_32 0b528b5938bcb6f9fa4805754585bd0371e147de39bb659a10236d27d0bb402c",
        "scriptpubkey_type": "v1_p2tr",
        "scriptpubkey_address": "bc1ppdfgkkfchjm0n7jgq465tpdaqdc7z3778xaktxssydkj059mgqkqdqlpvc",
        "value": 600
      },
      "scriptsig": "",
      "scriptsig_asm": "",
      "witness": [
        "7ca008ac5853644c13b2199177418f1ef0d483b74e991d6a5ff8c68c3ff24af80f1df8f38dc83692ced2bb89fa784ddc8d0ec289881ee07dda48ae5124cc3bfd01"
      ],
      "is_coinbase": false,
      "sequence": 4294967295
    },
    {
      "txid": "21a6d5cb864404b19303394b47d3a4b30a109969cec24c4fbc311c40743c6c6b",
      "vout": 0,
      "prevout": {
        "scriptpubkey": "51200b528b5938bcb6f9fa4805754585bd0371e147de39bb659a10236d27d0bb402c",
        "scriptpubkey_asm": "OP_PUSHNUM_1 OP_PUSHBYTES_32 0b528b5938bcb6f9fa4805754585bd0371e147de39bb659a10236d27d0bb402c",
        "scriptpubkey_type": "v1_p2tr",
        "scriptpubkey_address": "bc1ppdfgkkfchjm0n7jgq465tpdaqdc7z3778xaktxssydkj059mgqkqdqlpvc",
        "value": 600
      },
      "scriptsig": "",
      "scriptsig_asm": "",
      "witness": [
        "8961927ed623a4dc337d5868b780a0252b2fae5b55b0f1467172a2d6fdb3fb8c6dd87c9270be633984dcb493099db8a1ecaf1f8c41255a44448610fde157c46101"
      ],
      "is_coinbase": false,
      "sequence": 4294967295
    },
    {
      "txid": "1f75051e09a411977eea54c7cdcb8fe2fd950fd8bb6f49d1560e96ea8dee515d",
      "vout": 11,
      "prevout": {
        "scriptpubkey": "51200b528b5938bcb6f9fa4805754585bd0371e147de39bb659a10236d27d0bb402c",
        "scriptpubkey_asm": "OP_PUSHNUM_1 OP_PUSHBYTES_32 0b528b5938bcb6f9fa4805754585bd0371e147de39bb659a10236d27d0bb402c",
        "scriptpubkey_type": "v1_p2tr",
        "scriptpubkey_address": "bc1ppdfgkkfchjm0n7jgq465tpdaqdc7z3778xaktxssydkj059mgqkqdqlpvc",
        "value": 600
      },
      "scriptsig": "",
      "scriptsig_asm": "",
      "witness": [
        "a7dfa32c7192fd211c899979a84014d58e740a776fbb7faceb1b5f087f918224f818e2e295d25f4528bb284284a4ad71bd82ef8982f57c4c0a8c1aa63d44f2ca01"
      ],
      "is_coinbase": false,
      "sequence": 4294967295
    },
    {
      "txid": "1f75051e09a411977eea54c7cdcb8fe2fd950fd8bb6f49d1560e96ea8dee515d",
      "vout": 14,
      "prevout": {
        "scriptpubkey": "51200b528b5938bcb6f9fa4805754585bd0371e147de39bb659a10236d27d0bb402c",
        "scriptpubkey_asm": "OP_PUSHNUM_1 OP_PUSHBYTES_32 0b528b5938bcb6f9fa4805754585bd0371e147de39bb659a10236d27d0bb402c",
        "scriptpubkey_type": "v1_p2tr",
        "scriptpubkey_address": "bc1ppdfgkkfchjm0n7jgq465tpdaqdc7z3778xaktxssydkj059mgqkqdqlpvc",
        "value": 600
      },
      "scriptsig": "",
      "scriptsig_asm": "",
      "witness": [
        "d59c5f08fad8fb0dcc05e40fc56d00a7a83e86ad4549a2616da4a2f36a0b94b72c163b9e3fbdd69e2c2cfbc0a8db16ee796c3de82eb87b2100b5c8ee9742023d01"
      ],
      "is_coinbase": false,
      "sequence": 4294967295
    },
    {
      "txid": "1f75051e09a411977eea54c7cdcb8fe2fd950fd8bb6f49d1560e96ea8dee515d",
      "vout": 15,
      "prevout": {
        "scriptpubkey": "51200b528b5938bcb6f9fa4805754585bd0371e147de39bb659a10236d27d0bb402c",
        "scriptpubkey_asm": "OP_PUSHNUM_1 OP_PUSHBYTES_32 0b528b5938bcb6f9fa4805754585bd0371e147de39bb659a10236d27d0bb402c",
        "scriptpubkey_type": "v1_p2tr",
        "scriptpubkey_address": "bc1ppdfgkkfchjm0n7jgq465tpdaqdc7z3778xaktxssydkj059mgqkqdqlpvc",
        "value": 600
      },
      "scriptsig": "",
      "scriptsig_asm": "",
      "witness": [
        "e43241926af9592094c06ebd21b27e7ff120457f30b82260895f8b0133c32426cfcad663185fa6f236d04c97cfd081938f7388df19bccd691e5aa56d7261516101"
      ],
      "is_coinbase": false,
      "sequence": 4294967295
    },
    {
      "txid": "f70ca483970d7b2f001435617ec530eb70452e96f9852933080cb354905169bb",
      "vout": 0,
      "prevout": {
        "scriptpubkey": "5120f1b72e3ad8a15fc1f175b37dd401a75cba935799898c575d4c76c6b550947d73",
        "scriptpubkey_asm": "OP_PUSHNUM_1 OP_PUSHBYTES_32 f1b72e3ad8a15fc1f175b37dd401a75cba935799898c575d4c76c6b550947d73",
        "scriptpubkey_type": "v1_p2tr",
        "scriptpubkey_address": "bc1p7xmjuwkc590urut4kd7agqd8tjafx4ue3xx9wh2vwmrt25y504esuqpkqr",
        "value": 546
      },
      "scriptsig": "",
      "scriptsig_asm": "",
      "witness": [
        "6841997fef4d0fe4414a6d28979cf6dd628dbf01ed68322fe589f9fd8cb7dbfb1ed4f6043c5725086fa609639d13ac79419149c041a5f06944bae46c24826d6283"
      ],
      "is_coinbase": false,
      "sequence": 4294967295
    },
    {
      "txid": "3e94340df811064ad466b28fe5f113ca61df7d7e5e304c0f7475ee94634797c3",
      "vout": 0,
      "prevout": {
        "scriptpubkey": "512080f25fd9ab08bc39aed8006949634fda4de021fe89340faf91808ef2b96118df",
        "scriptpubkey_asm": "OP_PUSHNUM_1 OP_PUSHBYTES_32 80f25fd9ab08bc39aed8006949634fda4de021fe89340faf91808ef2b96118df",
        "scriptpubkey_type": "v1_p2tr",
        "scriptpubkey_address": "bc1psre9lkdtpz7rntkcqp55jc60mfx7qg073y6qltu3sz809wtprr0sq0wqq6",
        "value": 546
      },
      "scriptsig": "",
      "scriptsig_asm": "",
      "witness": [
        "1ebce2af4511e5b402bebca397b9da2ee717eaf790b32df8a243225dabb3c810ddc519d592369816066fcb165b959ab26462950a7e415aede9059c642bc86bec83"
      ],
      "is_coinbase": false,
      "sequence": 4294967295
    },
    {
      "txid": "20d992652bc1b636eab2027a07185bae55839af25cc8979d23f22cf561d00cef",
      "vout": 0,
      "prevout": {
        "scriptpubkey": "512034ed8bf614c04e8779cac8843def9efd462a5d08e22d598e56aa8339d7abeeed",
        "scriptpubkey_asm": "OP_PUSHNUM_1 OP_PUSHBYTES_32 34ed8bf614c04e8779cac8843def9efd462a5d08e22d598e56aa8339d7abeeed",
        "scriptpubkey_type": "v1_p2tr",
        "scriptpubkey_address": "bc1pxnkchas5cp8gw7w2ezzrmmu7l4rz5hggugk4nrjk42pnn4atamksh7htdt",
        "value": 546
      },
      "scriptsig": "",
      "scriptsig_asm": "",
      "witness": [
        "ccfbf387d16980b202b9144c784551a8ba886e06387e51e85cbb0f89ea29a9281fdc0e19d6edc6cb7589e5af2132f6e5f1f173cdec08015611fc0d18dfc9b55d83"
      ],
      "is_coinbase": false,
      "sequence": 4294967295
    },
    {
      "txid": "e932055cb6460b0f3b89b7c8b2e3f6c1ab40720fe667f59660db07f34cb8d6d2",
      "vout": 0,
      "prevout": {
        "scriptpubkey": "5120f8a8e764d87b560cda44e7111bacd427c8d2c6d7c91f724aea648c0f69eab3aa",
        "scriptpubkey_asm": "OP_PUSHNUM_1 OP_PUSHBYTES_32 f8a8e764d87b560cda44e7111bacd427c8d2c6d7c91f724aea648c0f69eab3aa",
        "scriptpubkey_type": "v1_p2tr",
        "scriptpubkey_address": "bc1plz5wwexc0dtqekjyuug3htx5ylyd93khey0hyjh2vjxq7602kw4qt6pmlv",
        "value": 546
      },
      "scriptsig": "",
      "scriptsig_asm": "",
      "witness": [
        "97937898ea2d9079fbe053f9378bf68be7318457747cced4a268fcd51cf1f07b9a8b16fc0aa74f3787d3254637a92b62c43159db77f2ec88eeca3a1f17e8c06e83"
      ],
      "is_coinbase": false,
      "sequence": 4294967295
    },
    {
      "txid": "b8fd3746f0302160aa3b4d96e89f55a2e10394d0dafc191eda1782f91b533f51",
      "vout": 0,
      "prevout": {
        "scriptpubkey": "512080f25fd9ab08bc39aed8006949634fda4de021fe89340faf91808ef2b96118df",
        "scriptpubkey_asm": "OP_PUSHNUM_1 OP_PUSHBYTES_32 80f25fd9ab08bc39aed8006949634fda4de021fe89340faf91808ef2b96118df",
        "scriptpubkey_type": "v1_p2tr",
        "scriptpubkey_address": "bc1psre9lkdtpz7rntkcqp55jc60mfx7qg073y6qltu3sz809wtprr0sq0wqq6",
        "value": 546
      },
      "scriptsig": "",
      "scriptsig_asm": "",
      "witness": [
        "4ddddd2829d8d3c4f227922045376f70a065b1ea25985ee088d25e0144d339239985b7ad0eb9cdbdee229574045d7646a06d6728257b28ca612588dff1e5555c83"
      ],
      "is_coinbase": false,
      "sequence": 4294967295
    },
    {
      "txid": "541c568ad9256cf5ec2312cc43a6bbd6dbcdd4a03885b1969dbe038e8cf21508",
      "vout": 0,
      "prevout": {
        "scriptpubkey": "512060ce915d0a82ca6c4276c6b5f7defac5dfcdb3aa8a2ccf6f2457868ba1b43bf7",
        "scriptpubkey_asm": "OP_PUSHNUM_1 OP_PUSHBYTES_32 60ce915d0a82ca6c4276c6b5f7defac5dfcdb3aa8a2ccf6f2457868ba1b43bf7",
        "scriptpubkey_type": "v1_p2tr",
        "scriptpubkey_address": "bc1pvr8fzhg2st9xcsnkc66l0hh6ch0umva23gkv7mey27rghgd580mss23huw",
        "value": 546
      },
      "scriptsig": "",
      "scriptsig_asm": "",
      "witness": [
        "e10febe3eaecee36161bebe7973b6bb4ae7200de83b7fb7c7335c21503c1ff938c796e62f7ce842500b18302f3427c6a71ac5ac3385dd405382846314a79423583"
      ],
      "is_coinbase": false,
      "sequence": 4294967295
    },
    {
      "txid": "21a6d5cb864404b19303394b47d3a4b30a109969cec24c4fbc311c40743c6c6b",
      "vout": 1,
      "prevout": {
        "scriptpubkey": "51200b528b5938bcb6f9fa4805754585bd0371e147de39bb659a10236d27d0bb402c",
        "scriptpubkey_asm": "OP_PUSHNUM_1 OP_PUSHBYTES_32 0b528b5938bcb6f9fa4805754585bd0371e147de39bb659a10236d27d0bb402c",
        "scriptpubkey_type": "v1_p2tr",
        "scriptpubkey_address": "bc1ppdfgkkfchjm0n7jgq465tpdaqdc7z3778xaktxssydkj059mgqkqdqlpvc",
        "value": 25775589
      },
      "scriptsig": "",
      "scriptsig_asm": "",
      "witness": [
        "9eececa86f4f69e15f8dad9711cbb32e9c252ee58f65c46a9c4e39269247a73bd55af5ac8ef9438c8ae64941efd1fad5db7546f533b137f0a5d135997f37ac4a01"
      ],
      "is_coinbase": false,
      "sequence": 4294967295
    }
  ],
  "vout": [
    {
      "scriptpubkey": "51200b528b5938bcb6f9fa4805754585bd0371e147de39bb659a10236d27d0bb402c",
      "scriptpubkey_asm": "OP_PUSHNUM_1 OP_PUSHBYTES_32 0b528b5938bcb6f9fa4805754585bd0371e147de39bb659a10236d27d0bb402c",
      "scriptpubkey_type": "v1_p2tr",
      "scriptpubkey_address": "bc1ppdfgkkfchjm0n7jgq465tpdaqdc7z3778xaktxssydkj059mgqkqdqlpvc",
      "value": 4200
    },
    {
      "scriptpubkey": "51200b528b5938bcb6f9fa4805754585bd0371e147de39bb659a10236d27d0bb402c",
      "scriptpubkey_asm": "OP_PUSHNUM_1 OP_PUSHBYTES_32 0b528b5938bcb6f9fa4805754585bd0371e147de39bb659a10236d27d0bb402c",
      "scriptpubkey_type": "v1_p2tr",
      "scriptpubkey_address": "bc1ppdfgkkfchjm0n7jgq465tpdaqdc7z3778xaktxssydkj059mgqkqdqlpvc",
      "value": 546
    },
    {
      "scriptpubkey": "51200b528b5938bcb6f9fa4805754585bd0371e147de39bb659a10236d27d0bb402c",
      "scriptpubkey_asm": "OP_PUSHNUM_1 OP_PUSHBYTES_32 0b528b5938bcb6f9fa4805754585bd0371e147de39bb659a10236d27d0bb402c",
      "scriptpubkey_type": "v1_p2tr",
      "scriptpubkey_address": "bc1ppdfgkkfchjm0n7jgq465tpdaqdc7z3778xaktxssydkj059mgqkqdqlpvc",
      "value": 546
    },
    {
      "scriptpubkey": "51200b528b5938bcb6f9fa4805754585bd0371e147de39bb659a10236d27d0bb402c",
      "scriptpubkey_asm": "OP_PUSHNUM_1 OP_PUSHBYTES_32 0b528b5938bcb6f9fa4805754585bd0371e147de39bb659a10236d27d0bb402c",
      "scriptpubkey_type": "v1_p2tr",
      "scriptpubkey_address": "bc1ppdfgkkfchjm0n7jgq465tpdaqdc7z3778xaktxssydkj059mgqkqdqlpvc",
      "value": 546
    },
    {
      "scriptpubkey": "51200b528b5938bcb6f9fa4805754585bd0371e147de39bb659a10236d27d0bb402c",
      "scriptpubkey_asm": "OP_PUSHNUM_1 OP_PUSHBYTES_32 0b528b5938bcb6f9fa4805754585bd0371e147de39bb659a10236d27d0bb402c",
      "scriptpubkey_type": "v1_p2tr",
      "scriptpubkey_address": "bc1ppdfgkkfchjm0n7jgq465tpdaqdc7z3778xaktxssydkj059mgqkqdqlpvc",
      "value": 546
    },
    {
      "scriptpubkey": "51200b528b5938bcb6f9fa4805754585bd0371e147de39bb659a10236d27d0bb402c",
      "scriptpubkey_asm": "OP_PUSHNUM_1 OP_PUSHBYTES_32 0b528b5938bcb6f9fa4805754585bd0371e147de39bb659a10236d27d0bb402c",
      "scriptpubkey_type": "v1_p2tr",
      "scriptpubkey_address": "bc1ppdfgkkfchjm0n7jgq465tpdaqdc7z3778xaktxssydkj059mgqkqdqlpvc",
      "value": 546
    },
    {
      "scriptpubkey": "51200b528b5938bcb6f9fa4805754585bd0371e147de39bb659a10236d27d0bb402c",
      "scriptpubkey_asm": "OP_PUSHNUM_1 OP_PUSHBYTES_32 0b528b5938bcb6f9fa4805754585bd0371e147de39bb659a10236d27d0bb402c",
      "scriptpubkey_type": "v1_p2tr",
      "scriptpubkey_address": "bc1ppdfgkkfchjm0n7jgq465tpdaqdc7z3778xaktxssydkj059mgqkqdqlpvc",
      "value": 546
    },
    {
      "scriptpubkey": "5120f1b72e3ad8a15fc1f175b37dd401a75cba935799898c575d4c76c6b550947d73",
      "scriptpubkey_asm": "OP_PUSHNUM_1 OP_PUSHBYTES_32 f1b72e3ad8a15fc1f175b37dd401a75cba935799898c575d4c76c6b550947d73",
      "scriptpubkey_type": "v1_p2tr",
      "scriptpubkey_address": "bc1p7xmjuwkc590urut4kd7agqd8tjafx4ue3xx9wh2vwmrt25y504esuqpkqr",
      "value": 1750000
    },
    {
      "scriptpubkey": "512080f25fd9ab08bc39aed8006949634fda4de021fe89340faf91808ef2b96118df",
      "scriptpubkey_asm": "OP_PUSHNUM_1 OP_PUSHBYTES_32 80f25fd9ab08bc39aed8006949634fda4de021fe89340faf91808ef2b96118df",
      "scriptpubkey_type": "v1_p2tr",
      "scriptpubkey_address": "bc1psre9lkdtpz7rntkcqp55jc60mfx7qg073y6qltu3sz809wtprr0sq0wqq6",
      "value": 3742200
    },
    {
      "scriptpubkey": "512034ed8bf614c04e8779cac8843def9efd462a5d08e22d598e56aa8339d7abeeed",
      "scriptpubkey_asm": "OP_PUSHNUM_1 OP_PUSHBYTES_32 34ed8bf614c04e8779cac8843def9efd462a5d08e22d598e56aa8339d7abeeed",
      "scriptpubkey_type": "v1_p2tr",
      "scriptpubkey_address": "bc1pxnkchas5cp8gw7w2ezzrmmu7l4rz5hggugk4nrjk42pnn4atamksh7htdt",
      "value": 1936800
    },
    {
      "scriptpubkey": "5120f8a8e764d87b560cda44e7111bacd427c8d2c6d7c91f724aea648c0f69eab3aa",
      "scriptpubkey_asm": "OP_PUSHNUM_1 OP_PUSHBYTES_32 f8a8e764d87b560cda44e7111bacd427c8d2c6d7c91f724aea648c0f69eab3aa",
      "scriptpubkey_type": "v1_p2tr",
      "scriptpubkey_address": "bc1plz5wwexc0dtqekjyuug3htx5ylyd93khey0hyjh2vjxq7602kw4qt6pmlv",
      "value": 90000
    },
    {
      "scriptpubkey": "512080f25fd9ab08bc39aed8006949634fda4de021fe89340faf91808ef2b96118df",
      "scriptpubkey_asm": "OP_PUSHNUM_1 OP_PUSHBYTES_32 80f25fd9ab08bc39aed8006949634fda4de021fe89340faf91808ef2b96118df",
      "scriptpubkey_type": "v1_p2tr",
      "scriptpubkey_address": "bc1psre9lkdtpz7rntkcqp55jc60mfx7qg073y6qltu3sz809wtprr0sq0wqq6",
      "value": 270270
    },
    {
      "scriptpubkey": "512060ce915d0a82ca6c4276c6b5f7defac5dfcdb3aa8a2ccf6f2457868ba1b43bf7",
      "scriptpubkey_asm": "OP_PUSHNUM_1 OP_PUSHBYTES_32 60ce915d0a82ca6c4276c6b5f7defac5dfcdb3aa8a2ccf6f2457868ba1b43bf7",
      "scriptpubkey_type": "v1_p2tr",
      "scriptpubkey_address": "bc1pvr8fzhg2st9xcsnkc66l0hh6ch0umva23gkv7mey27rghgd580mss23huw",
      "value": 1040000
    },
    {
      "scriptpubkey": "51200b528b5938bcb6f9fa4805754585bd0371e147de39bb659a10236d27d0bb402c",
      "scriptpubkey_asm": "OP_PUSHNUM_1 OP_PUSHBYTES_32 0b528b5938bcb6f9fa4805754585bd0371e147de39bb659a10236d27d0bb402c",
      "scriptpubkey_type": "v1_p2tr",
      "scriptpubkey_address": "bc1ppdfgkkfchjm0n7jgq465tpdaqdc7z3778xaktxssydkj059mgqkqdqlpvc",
      "value": 600
    },
    {
      "scriptpubkey": "51200b528b5938bcb6f9fa4805754585bd0371e147de39bb659a10236d27d0bb402c",
      "scriptpubkey_asm": "OP_PUSHNUM_1 OP_PUSHBYTES_32 0b528b5938bcb6f9fa4805754585bd0371e147de39bb659a10236d27d0bb402c",
      "scriptpubkey_type": "v1_p2tr",
      "scriptpubkey_address": "bc1ppdfgkkfchjm0n7jgq465tpdaqdc7z3778xaktxssydkj059mgqkqdqlpvc",
      "value": 600
    },
    {
      "scriptpubkey": "51200b528b5938bcb6f9fa4805754585bd0371e147de39bb659a10236d27d0bb402c",
      "scriptpubkey_asm": "OP_PUSHNUM_1 OP_PUSHBYTES_32 0b528b5938bcb6f9fa4805754585bd0371e147de39bb659a10236d27d0bb402c",
      "scriptpubkey_type": "v1_p2tr",
      "scriptpubkey_address": "bc1ppdfgkkfchjm0n7jgq465tpdaqdc7z3778xaktxssydkj059mgqkqdqlpvc",
      "value": 600
    },
    {
      "scriptpubkey": "51200b528b5938bcb6f9fa4805754585bd0371e147de39bb659a10236d27d0bb402c",
      "scriptpubkey_asm": "OP_PUSHNUM_1 OP_PUSHBYTES_32 0b528b5938bcb6f9fa4805754585bd0371e147de39bb659a10236d27d0bb402c",
      "scriptpubkey_type": "v1_p2tr",
      "scriptpubkey_address": "bc1ppdfgkkfchjm0n7jgq465tpdaqdc7z3778xaktxssydkj059mgqkqdqlpvc",
      "value": 600
    },
    {
      "scriptpubkey": "51200b528b5938bcb6f9fa4805754585bd0371e147de39bb659a10236d27d0bb402c",
      "scriptpubkey_asm": "OP_PUSHNUM_1 OP_PUSHBYTES_32 0b528b5938bcb6f9fa4805754585bd0371e147de39bb659a10236d27d0bb402c",
      "scriptpubkey_type": "v1_p2tr",
      "scriptpubkey_address": "bc1ppdfgkkfchjm0n7jgq465tpdaqdc7z3778xaktxssydkj059mgqkqdqlpvc",
      "value": 600
    },
    {
      "scriptpubkey": "51200b528b5938bcb6f9fa4805754585bd0371e147de39bb659a10236d27d0bb402c",
      "scriptpubkey_asm": "OP_PUSHNUM_1 OP_PUSHBYTES_32 0b528b5938bcb6f9fa4805754585bd0371e147de39bb659a10236d27d0bb402c",
      "scriptpubkey_type": "v1_p2tr",
      "scriptpubkey_address": "bc1ppdfgkkfchjm0n7jgq465tpdaqdc7z3778xaktxssydkj059mgqkqdqlpvc",
      "value": 600
    },
    {
      "scriptpubkey": "51200b528b5938bcb6f9fa4805754585bd0371e147de39bb659a10236d27d0bb402c",
      "scriptpubkey_asm": "OP_PUSHNUM_1 OP_PUSHBYTES_32 0b528b5938bcb6f9fa4805754585bd0371e147de39bb659a10236d27d0bb402c",
      "scriptpubkey_type": "v1_p2tr",
      "scriptpubkey_address": "bc1ppdfgkkfchjm0n7jgq465tpdaqdc7z3778xaktxssydkj059mgqkqdqlpvc",
      "value": 600
    },
    {
      "scriptpubkey": "51200b528b5938bcb6f9fa4805754585bd0371e147de39bb659a10236d27d0bb402c",
      "scriptpubkey_asm": "OP_PUSHNUM_1 OP_PUSHBYTES_32 0b528b5938bcb6f9fa4805754585bd0371e147de39bb659a10236d27d0bb402c",
      "scriptpubkey_type": "v1_p2tr",
      "scriptpubkey_address": "bc1ppdfgkkfchjm0n7jgq465tpdaqdc7z3778xaktxssydkj059mgqkqdqlpvc",
      "value": 16912311
    }
  ],
  "size": 2427,
  "weight": 6888,
  "fee": 29808,
  "status": {
    "confirmed": true,
    "block_height": 834638,
    "block_hash": "000000000000000000025f742c626208ac87e0b7d15054abb4a19ca2d735a54e",
    "block_time": 1710405325
  },
  "hex": "0200000000010e5d51ee8dea960e56d1496fbbd80f95fde28fcbcdc754ea7e9711a4091e05751f0c00000000ffffffff5d51ee8dea960e56d1496fbbd80f95fde28fcbcdc754ea7e9711a4091e05751f0d00000000ffffffff5d51ee8dea960e56d1496fbbd80f95fde28fcbcdc754ea7e9711a4091e05751f1000000000ffffffff6b6c3c74401c31bc4f4cc2ce6999100ab3a4d3474b390393b1044486cbd5a6210000000000ffffffff5d51ee8dea960e56d1496fbbd80f95fde28fcbcdc754ea7e9711a4091e05751f0b00000000ffffffff5d51ee8dea960e56d1496fbbd80f95fde28fcbcdc754ea7e9711a4091e05751f0e00000000ffffffff5d51ee8dea960e56d1496fbbd80f95fde28fcbcdc754ea7e9711a4091e05751f0f00000000ffffffffbb69519054b30c08332985f9962e4570eb30c57e613514002f7b0d9783a40cf70000000000ffffffffc397476394ee75740f4c305e7e7ddf61ca13f1e58fb266d44a0611f80d34943e0000000000ffffffffef0cd061f52cf2239d97c85cf29a8355ae5b18077a02b2ea36b6c12b6592d9200000000000ffffffffd2d6b84cf307db6096f567e60f7240abc1f6e3b2c8b7893b0f0b46b65c0532e90000000000ffffffff513f531bf98217da1e19fcdad09403e1a2559fe8964d3baa602130f04637fdb80000000000ffffffff0815f28c8e03be9d96b18538a0d4cddbd6bba643cc1223ecf56c25d98a561c540000000000ffffffff6b6c3c74401c31bc4f4cc2ce6999100ab3a4d3474b390393b1044486cbd5a6210100000000ffffffff1568100000000000002251200b528b5938bcb6f9fa4805754585bd0371e147de39bb659a10236d27d0bb402c22020000000000002251200b528b5938bcb6f9fa4805754585bd0371e147de39bb659a10236d27d0bb402c22020000000000002251200b528b5938bcb6f9fa4805754585bd0371e147de39bb659a10236d27d0bb402c22020000000000002251200b528b5938bcb6f9fa4805754585bd0371e147de39bb659a10236d27d0bb402c22020000000000002251200b528b5938bcb6f9fa4805754585bd0371e147de39bb659a10236d27d0bb402c22020000000000002251200b528b5938bcb6f9fa4805754585bd0371e147de39bb659a10236d27d0bb402c22020000000000002251200b528b5938bcb6f9fa4805754585bd0371e147de39bb659a10236d27d0bb402cf0b31a0000000000225120f1b72e3ad8a15fc1f175b37dd401a75cba935799898c575d4c76c6b550947d73f81939000000000022512080f25fd9ab08bc39aed8006949634fda4de021fe89340faf91808ef2b96118dfa08d1d000000000022512034ed8bf614c04e8779cac8843def9efd462a5d08e22d598e56aa8339d7abeeed905f010000000000225120f8a8e764d87b560cda44e7111bacd427c8d2c6d7c91f724aea648c0f69eab3aabe1f04000000000022512080f25fd9ab08bc39aed8006949634fda4de021fe89340faf91808ef2b96118df80de0f000000000022512060ce915d0a82ca6c4276c6b5f7defac5dfcdb3aa8a2ccf6f2457868ba1b43bf758020000000000002251200b528b5938bcb6f9fa4805754585bd0371e147de39bb659a10236d27d0bb402c58020000000000002251200b528b5938bcb6f9fa4805754585bd0371e147de39bb659a10236d27d0bb402c58020000000000002251200b528b5938bcb6f9fa4805754585bd0371e147de39bb659a10236d27d0bb402c58020000000000002251200b528b5938bcb6f9fa4805754585bd0371e147de39bb659a10236d27d0bb402c58020000000000002251200b528b5938bcb6f9fa4805754585bd0371e147de39bb659a10236d27d0bb402c58020000000000002251200b528b5938bcb6f9fa4805754585bd0371e147de39bb659a10236d27d0bb402c58020000000000002251200b528b5938bcb6f9fa4805754585bd0371e147de39bb659a10236d27d0bb402cb70f0201000000002251200b528b5938bcb6f9fa4805754585bd0371e147de39bb659a10236d27d0bb402c0141c2e7bd5607e616618b7c60cb4deb240b62ac0f25ef799935ef31ea2f5e4dd4121937b6ab018ceae17cc74b307512adc1e75af86f70ec42c6e613c7ed0568f1780101411255b9222ce17f7ecda31bce0bd15600d1c81ea1db6022d286bdc7a23aabfcf58106cc358292c94105a58c4a9f6f5d6bd8a82b4e5e40d56634b5255775dd7a060101417ca008ac5853644c13b2199177418f1ef0d483b74e991d6a5ff8c68c3ff24af80f1df8f38dc83692ced2bb89fa784ddc8d0ec289881ee07dda48ae5124cc3bfd0101418961927ed623a4dc337d5868b780a0252b2fae5b55b0f1467172a2d6fdb3fb8c6dd87c9270be633984dcb493099db8a1ecaf1f8c41255a44448610fde157c461010141a7dfa32c7192fd211c899979a84014d58e740a776fbb7faceb1b5f087f918224f818e2e295d25f4528bb284284a4ad71bd82ef8982f57c4c0a8c1aa63d44f2ca010141d59c5f08fad8fb0dcc05e40fc56d00a7a83e86ad4549a2616da4a2f36a0b94b72c163b9e3fbdd69e2c2cfbc0a8db16ee796c3de82eb87b2100b5c8ee9742023d010141e43241926af9592094c06ebd21b27e7ff120457f30b82260895f8b0133c32426cfcad663185fa6f236d04c97cfd081938f7388df19bccd691e5aa56d726151610101416841997fef4d0fe4414a6d28979cf6dd628dbf01ed68322fe589f9fd8cb7dbfb1ed4f6043c5725086fa609639d13ac79419149c041a5f06944bae46c24826d628301411ebce2af4511e5b402bebca397b9da2ee717eaf790b32df8a243225dabb3c810ddc519d592369816066fcb165b959ab26462950a7e415aede9059c642bc86bec830141ccfbf387d16980b202b9144c784551a8ba886e06387e51e85cbb0f89ea29a9281fdc0e19d6edc6cb7589e5af2132f6e5f1f173cdec08015611fc0d18dfc9b55d83014197937898ea2d9079fbe053f9378bf68be7318457747cced4a268fcd51cf1f07b9a8b16fc0aa74f3787d3254637a92b62c43159db77f2ec88eeca3a1f17e8c06e8301414ddddd2829d8d3c4f227922045376f70a065b1ea25985ee088d25e0144d339239985b7ad0eb9cdbdee229574045d7646a06d6728257b28ca612588dff1e5555c830141e10febe3eaecee36161bebe7973b6bb4ae7200de83b7fb7c7335c21503c1ff938c796e62f7ce842500b18302f3427c6a71ac5ac3385dd405382846314a7942358301419eececa86f4f69e15f8dad9711cbb32e9c252ee58f65c46a9c4e39269247a73bd55af5ac8ef9438c8ae64941efd1fad5db7546f533b137f0a5d135997f37ac4a0100000000"
}