{
  "txid": "6c0a84a394234a3f4d575a43a7ace87c8cbf11320c5afb3b275f40c2399dfe9b",
  "version": 2,
  "locktime": 0,
  "vin": [
    {
      "txid": "83b1303fd891f1954cd87c1d288a2a6bca51045bdda40133839448bcf0a9a8be",
      "vout": 18,
      "prevout": {
        "scriptpubkey": "51208cb27b371d3bf0f1ef8549dd0d63a1dda017ee79ba976567ad0f4f3d3063416a",
        "scriptpubkey_asm": "OP_PUSHNUM_1 OP_PUSHBYTES_32 8cb27b371d3bf0f1ef8549dd0d63a1dda017ee79ba976567ad0f4f3d3063416a",
        "scriptpubkey_type": "v1_p2tr",
        "scriptpubkey_address": "bc1p3je8kdca80c0rmu9f8ws6capmksp0mneh2tk2eadpa8n6vrrg94q6w4wcx",
        "value": 2862
      },
      "scriptsig": "",
      "scriptsig_asm": "",
      "witness": [
        "0133d02acea39fd523286c378502cb832f92d10aa18489b93f3db29b44cbf1fc7a3711b3d4e2f5d2be8529b489d89705c17d0f9ea04636283e8c4bb2ab917049",
        "20d6cc621ef246ee3cd71f524059c49c2dd57cfd1ecfa45bd8fd2268ec1c374d83ac0063036f726401011e6170706c69636174696f6e2f6a736f6e3b636861727365743d7574662d38004cd37b2270223a22706f772d3230222c226f70223a226d696e74222c227469636b223a2250455045222c22616d74223a2231303030222c22736f6c7574696f6e223a22504550453a62633170687834336d6b6632633236366e63707a6c7a7067307636616b6a73713470386379736379327a706d746e38326e367a616c7667713972663737363a303030303030303030303030303030303030303139393431613561653132383937363539383134343239323533333030353762306461393666336465613163353a3538313537333034353336227d68",
        "c143aa8de0991fd4b61b82f8195f6c835bc5de941a82824922fffa09f24edd0022"
      ],
      "is_coinbase": false,
      "sequence": 4294967295
    }
  ],
  "vout": [
    {
      "scriptpubkey": "5120b9ab1dd92ac2b5a9e022f88287b35db4a00a84f8243045083b5ccea9e85dfb10",
      "scriptpubkey_asm": "OP_PUSHNUM_1 OP_PUSHBYTES_32 b9ab1dd92ac2b5a9e022f88287b35db4a00a84f8243045083b5ccea9e85dfb10",
      "scriptpubkey_type": "v1_p2tr",
      "scriptpubkey_address": "bc1phx43mkf2c266ncpzlzpg0v6akjsq4p8cyscy2zpmtn82n6zalvgq9rf776",
      "value": 546
    }
  ],
  "size": 487,
  "weight": 769,
  "fee": 2316,
  "status": {
    "confirmed": true,
    "block_height": 834460,
    "block_hash": "00000000000000000000484a79b643b2524bbce82e5d8a442013fa5b8905ed98",
    "block_time": 1710307468
  },
  "hex": "02000000000101bea8a9f0bc4894833301a4dd5b0451ca6b2a8a281d7cd84c95f191d83f30b1831200000000ffffffff012202000000000000225120b9ab1dd92ac2b5a9e022f88287b35db4a00a84f8243045083b5ccea9e85dfb1003400133d02acea39fd523286c378502cb832f92d10aa18489b93f3db29b44cbf1fc7a3711b3d4e2f5d2be8529b489d89705c17d0f9ea04636283e8c4bb2ab917049fd200120d6cc621ef246ee3cd71f524059c49c2dd57cfd1ecfa45bd8fd2268ec1c374d83ac0063036f726401011e6170706c69636174696f6e2f6a736f6e3b636861727365743d7574662d38004cd37b2270223a22706f772d3230222c226f70223a226d696e74222c227469636b223a2250455045222c22616d74223a2231303030222c22736f6c7574696f6e223a22504550453a62633170687834336d6b6632633236366e63707a6c7a7067307636616b6a73713470386379736379327a706d746e38326e367a616c7667713972663737363a303030303030303030303030303030303030303139393431613561653132383937363539383134343239323533333030353762306461393666336465613163353a3538313537333034353336227d6821c143aa8de0991fd4b61b82f8195f6c835bc5de941a82824922fffa09f24edd002200000000"
}