{
  "txid": "6c12f7eafa37dbb95b63b16d3488a39d82b67fffde93d233b7dd99f7064d7fe4",
  "version": 2,
  "locktime": 0,
  "vin": [
    {
      "txid": "073a89df7ee6417d4e1dc0577884ea15eabd27437b28eae5ddfea4941d32ef9b",
      "vout": 3,
      "prevout": {
        "scriptpubkey": "76a914e3c1e37d86d8a6743607c19fa0e32e530eaab67c88ac",
        "scriptpubkey_asm": "OP_DUP OP_HASH160 OP_PUSHBYTES_20 e3c1e37d86d8a6743607c19fa0e32e530eaab67c OP_EQUALVERIFY OP_CHECKSIG",
        "scriptpubkey_type": "p2pkh",
        "scriptpubkey_address": "1MmGfAWd9ZtjibM6VcwbDh4gZh5LWpj5Cs",
        "value": 41589
      },
      "scriptsig": "473044022061eea47a34ad9f95fe065695fcdcecde194807689f61fa547ea09b8225157e8902205423dcee4ee13dc8153575f3f0e2e755efeca4f02b34d90274bcd4251b10c478012102b0f6a7a084ce4326886fef3f2674aca4738019d5ae79ed03092175e8def5b06a",
      "scriptsig_asm": "OP_PUSHBYTES_71 3044022061eea47a34ad9f95fe065695fcdcecde194807689f61fa547ea09b8225157e8902205423dcee4ee13dc8153575f3f0e2e755efeca4f02b34d90274bcd4251b10c47801 OP_PUSHBYTES_33 02b0f6a7a084ce4326886fef3f2674aca4738019d5ae79ed03092175e8def5b06a",
      "is_coinbase": false,
      "sequence": 4294967295
    }
  ],
  "vout": [
    {
      "scriptpubkey": "6a22dd25f1c0464a0eaeeb6c4558b61d889d879f4a3caf7952a52175f9604f8796e15044",
      "scriptpubkey_asm": "OP_RETURN OP_PUSHBYTES_34 dd25f1c0464a0eaeeb6c4558b61d889d879f4a3caf7952a52175f9604f8796e15044",
      "scriptpubkey_type": "op_return",
      "value": 0
    },
    {
      "scriptpubkey": "0020004a7b2270223a227372632d373231222c226f70223a226d696e74222c226322",
      "scriptpubkey_asm": "OP_0 OP_PUSHBYTES_32 004a7b2270223a227372632d373231222c226f70223a226d696e74222c226322",
      "scriptpubkey_type": "v0_p2wsh",
      "scriptpubkey_address": "bc1qqp98kgnsygazyumjvvknwv33ygkzymmsygazymtfde6zytpzvv3qmmh7l8",
      "value": 330
    },
    {
      "scriptpubkey": "00203a224131323234343331343736303438333633313333222c227473223a5b302c",
      "scriptpubkey_asm": "OP_0 OP_PUSHBYTES_32 3a224131323234343331343736303438333633313333222c227473223a5b302c",
      "scriptpubkey_type": "v0_p2wsh",
      "scriptpubkey_address": "bc1q8g3yzvfjxg6rgve3xsmnvvp58qenvve3xvejytpzw3ejywjmxqkqyy2nar",
      "value": 330
    },
    {
      "scriptpubkey": "0020302c392c31332c372c365d7d0000000000000000000000000000000000000000",
      "scriptpubkey_asm": "OP_0 OP_PUSHBYTES_32 302c392c31332c372c365d7d0000000000000000000000000000000000000000",
      "scriptpubkey_type": "v0_p2wsh",
      "scriptpubkey_address": "bc1qxqkrjtp3xvkrwtpkt47sqqqqqqqqqqqqqqqqqqqqqqqqqqqqqqqq5lx49f",
      "value": 330
    },
    {
      "scriptpubkey": "0014419854753506f2b3e771860f36eb919d89cc890f",
      "scriptpubkey_asm": "OP_0 OP_PUSHBYTES_20 419854753506f2b3e771860f36eb919d89cc890f",
      "scriptpubkey_type": "v0_p2wpkh",
      "scriptpubkey_address": "bc1qgxv9gaf4qmet8em3sc8nd6u3nkyuezg0cg9p36",
      "value": 22220
    },
    {
      "scriptpubkey": "76a914e3c1e37d86d8a6743607c19fa0e32e530eaab67c88ac",
      "scriptpubkey_asm": "OP_DUP OP_HASH160 OP_PUSHBYTES_20 e3c1e37d86d8a6743607c19fa0e32e530eaab67c OP_EQUALVERIFY OP_CHECKSIG",
      "scriptpubkey_type": "p2pkh",
      "scriptpubkey_address": "1MmGfAWd9ZtjibM6VcwbDh4gZh5LWpj5Cs",
      "value": 13627
    }
  ],
  "size": 396,
  "weight": 1584,
  "fee": 4752,
  "status": {
    "confirmed": true,
    "block_height": 834460,
    "block_hash": "00000000000000000000484a79b643b2524bbce82e5d8a442013fa5b8905ed98",
    "block_time": 1710307468
  },
  "hex": "02000000019bef321d94a4fedde5ea287b4327bdea15ea847857c01d4e7d41e67edf893a07030000006a473044022061eea47a34ad9f95fe065695fcdcecde194807689f61fa547ea09b8225157e8902205423dcee4ee13dc8153575f3f0e2e755efeca4f02b34d90274bcd4251b10c478012102b0f6a7a084ce4326886fef3f2674aca4738019d5ae79ed03092175e8def5b06affffffff060000000000000000246a22dd25f1c0464a0eaeeb6c4558b61d889d879f4a3caf7952a52175f9604f8796e150444a01000000000000220020004a7b2270223a227372632d373231222c226f70223a226d696e74222c2263224a010000000000002200203a224131323234343331343736303438333633313333222c227473223a5b302c4a01000000000000220020302c392c31332c372c365d7d0000000000000000000000000000000000000000cc56000000000000160014419854753506f2b3e771860f36eb919d89cc890f3b350000000000001976a914e3c1e37d86d8a6743607c19fa0e32e530eaab67c88ac00000000"
}