{
  "txid": "6c136af58a090cf460cfd495f6d46e1572a75fa0f7f5f7191e6b974f1edb6023",
  "version": 2,
  "locktime": 0,
  "vin": [
    {
      "txid": "fecf8057816ea8f4d660fe29c4a0986a41abadf247189d8fa9bd7f8eb1648cd8",
      "vout": 0,
      "prevout": {
        "scriptpubkey": "5120c5e34f55efde6cd0385309b6cb78a66065db5f80510119bb8fca9f5e90edf26b",
        "scriptpubkey_asm": "OP_PUSHNUM_1 OP_PUSHBYTES_32 c5e34f55efde6cd0385309b6cb78a66065db5f80510119bb8fca9f5e90edf26b",
        "scriptpubkey_type": "v1_p2tr",
        "scriptpubkey_address": "bc1pch357400mekdqwznpxmvk79xvpjakhuq2yq3nwu0e204ay8d7f4sq3na7q",
        "value": 546
      },
      "scriptsig": "",
      "scriptsig_asm": "",
      "witness": [
        "5ba0fdce691b5067cc96767dcf63d5fb81ca06e2cacdf16688c80aa6d8a02228a46b05cb06b2c83a61fcd411049bb0b265ec661f4f721c15ec5ebfcca2c56dd8"
      ],
      "is_coinbase": false,
      "sequence": 4294967293
    },
    {
      "txid": "4933c3c4e81e6caef2a67f394cd58704f77ab3d707183b147733195cc2426977",
      "vout": 0,
      "prevout": {
        "scriptpubkey": "5120c5e34f55efde6cd0385309b6cb78a66065db5f80510119bb8fca9f5e90edf26b",
        "scriptpubkey_asm": "OP_PUSHNUM_1 OP_PUSHBYTES_32 c5e34f55efde6cd0385309b6cb78a66065db5f80510119bb8fca9f5e90edf26b",
        "scriptpubkey_type": "v1_p2tr",
        "scriptpubkey_address": "bc1pch357400mekdqwznpxmvk79xvpjakhuq2yq3nwu0e204ay8d7f4sq3na7q",
        "value": 50000
      },
      "scriptsig": "",
      "scriptsig_asm": "",
      "witness": [
        "8e51a867e26d9fde5e19d1f85734722ec55ac0c23bde1c86bfa55dd5b0c7f17d0e991197246c3a471b4cffdc1fcb78233f8a7ba769a626ddca22dc7851500a83"
      ],
      "is_coinbase": false,
      "sequence": 4294967293
    }
  ],
  "vout": [
    {
      "scriptpubkey": "0014aa130be402f7fea7350974aeafd2f71d6845e2b9",
      "scriptpubkey_asm": "OP_0 OP_PUSHBYTES_20 aa130be402f7fea7350974aeafd2f71d6845e2b9",
      "scriptpubkey_type": "v0_p2wpkh",
      "scriptpubkey_address": "bc1q4gfsheqz7ll2wdgfwjh2l5hhr45ytc4ekgxaex",
      "value": 546
    },
    {
      "scriptpubkey": "0014fb7a185fc47428a9992c09f70c6add47a5c19223",
      "scriptpubkey_asm": "OP_0 OP_PUSHBYTES_20 fb7a185fc47428a9992c09f70c6add47a5c19223",
      "scriptpubkey_type": "v0_p2wpkh",
      "scriptpubkey_address": "bc1qldapsh7yws52nxfvp8msc6kag7jury3rxrw4dm",
      "value": 30000
    },
    {
      "scriptpubkey": "5120c5e34f55efde6cd0385309b6cb78a66065db5f80510119bb8fca9f5e90edf26b",
      "scriptpubkey_asm": "OP_PUSHNUM_1 OP_PUSHBYTES_32 c5e34f55efde6cd0385309b6cb78a66065db5f80510119bb8fca9f5e90edf26b",
      "scriptpubkey_type": "v1_p2tr",
      "scriptpubkey_address": "bc1pch357400mekdqwznpxmvk79xvpjakhuq2yq3nwu0e204ay8d7f4sq3na7q",
      "value": 14813
    }
  ],
  "size": 331,
  "weight": 922,
  "fee": 5187,
  "status": {
    "confirmed": true,
    "block_height": 834638,
    "block_hash": "000000000000000000025f742c626208ac87e0b7d15054abb4a19ca2d735a54e",
    "block_time": 1710405325
  },
  "hex": "02000000000102d88c64b18e7fbda98f9d1847f2adab416a98a0c429fe60d6f4a86e815780cffe0000000000fdffffff776942c25c193377143b1807d7b37af70487d54c397fa6f2ae6c1ee8c4c333490000000000fdffffff032202000000000000160014aa130be402f7fea7350974aeafd2f71d6845e2b93075000000000000160014fb7a185fc47428a9992c09f70c6add47a5c19223dd39000000000000225120c5e34f55efde6cd0385309b6cb78a66065db5f80510119bb8fca9f5e90edf26b01405ba0fdce691b5067cc96767dcf63d5fb81ca06e2cacdf16688c80aa6d8a02228a46b05cb06b2c83a61fcd411049bb0b265ec661f4f721c15ec5ebfcca2c56dd801408e51a867e26d9fde5e19d1f85734722ec55ac0c23bde1c86bfa55dd5b0c7f17d0e991197246c3a471b4cffdc1fcb78233f8a7ba769a626ddca22dc7851500a8300000000"
}