{
  "txid": "6c1cbf22ee54a5561da18b7602a2f48581bcf231f23b674a73c4b705f3d4d6bf",
  "version": 2,
  "locktime": 834637,
  "vin": [
    {
      "txid": "6b919f3b48257198205833812a1af0be7bfebb50983ef9ca87c6ce8b1b3ec324",
      "vout": 1,
      "prevout": {
        "scriptpubkey": "0014c4b7ffe8fce268515c130b059109a035adf2b239",
        "scriptpubkey_asm": "OP_0 OP_PUSHBYTES_20 c4b7ffe8fce268515c130b059109a035adf2b239",
        "scriptpubkey_type": "v0_p2wpkh",
        "scriptpubkey_address": "bc1qcjmll68uuf59zhqnpvzezzdqxkkl9v3e2acf72",
        "value": 217443200
      },
      "scriptsig": "",
      "scriptsig_asm": "",
      "witness": [
        "30440220797df92b4750eba8fc69143fa32078fdfc204197d727055ec744bd623034cdde022079f5281ff6ec79fa1d346216b018d1bbac15869b7f4acbbe53b8ee9cedec7d4701",
        "02e0f1af701e5a047a79dd8444efafb055e45c0ec153b58bf0e1468c8da2d6b593"
      ],
      "is_coinbase": false,
      "sequence": 4294967293
    }
  ],
  "vout": [
    {
      "scriptpubkey": "001475891531974874e58aa342d9cf80c6b6f2d2e0ef",
      "scriptpubkey_asm": "OP_0 OP_PUSHBYTES_20 75891531974874e58aa342d9cf80c6b6f2d2e0ef",
      "scriptpubkey_type": "v0_p2wpkh",
      "scriptpubkey_address": "bc1qwky32vvhfp6wtz4rgtvulqxxkmed9c80vgtteu",
      "value": 10000000
    },
    {
      "scriptpubkey": "00142fd5c896b0a58a125965bab2d0f8e70f6a4c8ea0",
      "scriptpubkey_asm": "OP_0 OP_PUSHBYTES_20 2fd5c896b0a58a125965bab2d0f8e70f6a4c8ea0",
      "scriptpubkey_type": "v0_p2wpkh",
      "scriptpubkey_address": "bc1q9l2u394s5k9pykt9h2edp788pa4yer4qk6qzyd",
      "value": 207439300
    }
  ],
  "size": 222,
  "weight": 561,
  "fee": 3900,
  "status": {
    "confirmed": true,
    "block_height": 834638,
    "block_hash": "000000000000000000025f742c626208ac87e0b7d15054abb4a19ca2d735a54e",
    "block_time": 1710405325
  },
  "hex": "0200000000010124c33e1b8bcec687caf93e9850bbfe7bbef01a2a81335820987125483b9f916b0100000000fdffffff02809698000000000016001475891531974874e58aa342d9cf80c6b6f2d2e0efc4455d0c000000001600142fd5c896b0a58a125965bab2d0f8e70f6a4c8ea0024730440220797df92b4750eba8fc69143fa32078fdfc204197d727055ec744bd623034cdde022079f5281ff6ec79fa1d346216b018d1bbac15869b7f4acbbe53b8ee9cedec7d47012102e0f1af701e5a047a79dd8444efafb055e45c0ec153b58bf0e1468c8da2d6b5934dbc0c00"
}