{
  "txid": "6c1fc4b2ab8d7599c9f7e055bfcda026555cd2c791ee66c7d44b5b2b0647d4f4",
  "version": 2,
  "locktime": 0,
  "vin": [
    {
      "txid": "3f69fae8ca9bdd774ca5294e86509449f431bb44e2206cae9f7f495b7952d9e2",
      "vout": 16,
      "prevout": {
        "scriptpubkey": "51208787f718684601021508446d409b4633bc127497f09ae4284f1ded40e691c8a2",
        "scriptpubkey_asm": "OP_PUSHNUM_1 OP_PUSHBYTES_32 8787f718684601021508446d409b4633bc127497f09ae4284f1ded40e691c8a2",
        "scriptpubkey_type": "v1_p2tr",
        "scriptpubkey_address": "bc1ps7rlwxrggcqsy9ggg3k5px6xxw7pyayh7zdwg2z0rhk5pe53ez3qls908p",
        "value": 2996
      },
      "scriptsig": "",
      "scriptsig_asm": "",
      "witness": [
        "3316684e9fedc30f4224a68ac79a10bd9ba67133a08e10ecb59cf3d84878ca16fa4402c93e6325399d4d516a5be6fcba34f4b6d04307e9a4e3b0f715b307cdc6",
        "203b7e43e9415c2ec801b18c72983be05a8fce9dd9a5877359945266bf10dc1477ac0063036f726401011e6170706c69636174696f6e2f6a736f6e3b636861727365743d7574662d38004cb77b2270223a22706f772d3230222c226f70223a226d696e74222c227469636b223a2250455045222c22616d74223a2231303030222c22736f6c7574696f6e223a22504550453a334d524d3246744a42504c46315958564766504d33656556746675364446734762623a303030303030303030303030303030303030303139393431613561653132383937363539383134343239323533333030353762306461393666336465613163353a3132333538373837303438227d68",
        "c06b70a06f37e9fa1ff7e7bec8bd1210228b25051d0c17b5264cdd8c73b544f454"
      ],
      "is_coinbase": false,
      "sequence": 4294967295
    }
  ],
  "vout": [
    {
      "scriptpubkey": "a914d86bcd8c487ad519e95c6557e7463d579cce14a287",
      "scriptpubkey_asm": "OP_HASH160 OP_PUSHBYTES_20 d86bcd8c487ad519e95c6557e7463d579cce14a2 OP_EQUAL",
      "scriptpubkey_type": "p2sh",
      "scriptpubkey_address": "3MRM2FtJBPLF1YXVGfPM3eeVtfu6DFsGbb",
      "value": 546
    }
  ],
  "size": 448,
  "weight": 697,
  "fee": 2450,
  "status": {
    "confirmed": true,
    "block_height": 834460,
    "block_hash": "00000000000000000000484a79b643b2524bbce82e5d8a442013fa5b8905ed98",
    "block_time": 1710307468
  },
  "hex": "02000000000101e2d952795b497f9fae6c20e244bb31f4499450864e29a54c77dd9bcae8fa693f1000000000ffffffff01220200000000000017a914d86bcd8c487ad519e95c6557e7463d579cce14a28703403316684e9fedc30f4224a68ac79a10bd9ba67133a08e10ecb59cf3d84878ca16fa4402c93e6325399d4d516a5be6fcba34f4b6d04307e9a4e3b0f715b307cdc6fd0401203b7e43e9415c2ec801b18c72983be05a8fce9dd9a5877359945266bf10dc1477ac0063036f726401011e6170706c69636174696f6e2f6a736f6e3b636861727365743d7574662d38004cb77b2270223a22706f772d3230222c226f70223a226d696e74222c227469636b223a2250455045222c22616d74223a2231303030222c22736f6c7574696f6e223a22504550453a334d524d3246744a42504c46315958564766504d33656556746675364446734762623a303030303030303030303030303030303030303139393431613561653132383937363539383134343239323533333030353762306461393666336465613163353a3132333538373837303438227d6821c06b70a06f37e9fa1ff7e7bec8bd1210228b25051d0c17b5264cdd8c73b544f45400000000"
}