{
  "txid": "6c2fc137b5fff360331204389bdb691feff31f962f7f9f224da766a44a53b1fe",
  "version": 2,
  "locktime": 0,
  "vin": [
    {
      "txid": "3ff83d74b4c278392ea5abac698e479dbff11e2af5bcfed8cbdea96012783bfd",
      "vout": 0,
      "prevout": {
        "scriptpubkey": "5120f87f210825324943fb630a48ada785b20bac88722763f8503efaea59a124cbc3",
        "scriptpubkey_asm": "OP_PUSHNUM_1 OP_PUSHBYTES_32 f87f210825324943fb630a48ada785b20bac88722763f8503efaea59a124cbc3",
        "scriptpubkey_type": "v1_p2tr",
        "scriptpubkey_address": "bc1plpljzzp9xfy587mrpfy2mfu9kg96ezrjya3ls5p7lt49ngfye0psz2l6k8",
        "value": 546
      },
      "scriptsig": "",
      "scriptsig_asm": "",
      "witness": [
        "e6cc883c697ca970f9e4f8dde8ef7e2cf915ffd2108192777ebdd4d9c3bfcf92becb4bdba1c639ab0b3376aab075cba84997e92d2a1d12998ae8c1be6c7c5ca1"
      ],
      "is_coinbase": false,
      "sequence": 2147483649
    },
    {
      "txid": "120305b2b8579c5317bf4e3666834eb47423faf16aa4b8171a122f48028e9a21",
      "vout": 1,
      "prevout": {
        "scriptpubkey": "5120f87f210825324943fb630a48ada785b20bac88722763f8503efaea59a124cbc3",
        "scriptpubkey_asm": "OP_PUSHNUM_1 OP_PUSHBYTES_32 f87f210825324943fb630a48ada785b20bac88722763f8503efaea59a124cbc3",
        "scriptpubkey_type": "v1_p2tr",
        "scriptpubkey_address": "bc1plpljzzp9xfy587mrpfy2mfu9kg96ezrjya3ls5p7lt49ngfye0psz2l6k8",
        "value": 38921
      },
      "scriptsig": "",
      "scriptsig_asm": "",
      "witness": [
        "e20bd1a5e7939b14001291ccc20dd3b763abb67cf39c8369f408a4167d4551dd97576281ab69242163be303015292974aedf976c28e977920c22854fb930bba3"
      ],
      "is_coinbase": false,
      "sequence": 2147483649
    }
  ],
  "vout": [
    {
      "scriptpubkey": "5120aff26b4787e900d4777ef628339bd2fee4c34bbbec0d4f3678e449593a74429f",
      "scriptpubkey_asm": "OP_PUSHNUM_1 OP_PUSHBYTES_32 aff26b4787e900d4777ef628339bd2fee4c34bbbec0d4f3678e449593a74429f",
      "scriptpubkey_type": "v1_p2tr",
      "scriptpubkey_address": "bc1p4lexk3u8ayqdgam77c5r8x7jlmjvxjamasx57dncu3y4jwn5g20swe5sa5",
      "value": 546
    },
    {
      "scriptpubkey": "5120f87f210825324943fb630a48ada785b20bac88722763f8503efaea59a124cbc3",
      "scriptpubkey_asm": "OP_PUSHNUM_1 OP_PUSHBYTES_32 f87f210825324943fb630a48ada785b20bac88722763f8503efaea59a124cbc3",
      "scriptpubkey_type": "v1_p2tr",
      "scriptpubkey_address": "bc1plpljzzp9xfy587mrpfy2mfu9kg96ezrjya3ls5p7lt49ngfye0psz2l6k8",
      "value": 35756
    }
  ],
  "size": 312,
  "weight": 846,
  "fee": 3165,
  "status": {
    "confirmed": true,
    "block_height": 834460,
    "block_hash": "00000000000000000000484a79b643b2524bbce82e5d8a442013fa5b8905ed98",
    "block_time": 1710307468
  },
  "hex": "02000000000102fd3b781260a9decbd8febcf52a1ef1bf9d478e69acaba52e3978c2b4743df83f000000000001000080219a8e02482f121a17b8a46af1fa2374b44e8366364ebf17539c57b8b2050312010000000001000080022202000000000000225120aff26b4787e900d4777ef628339bd2fee4c34bbbec0d4f3678e449593a74429fac8b000000000000225120f87f210825324943fb630a48ada785b20bac88722763f8503efaea59a124cbc30140e6cc883c697ca970f9e4f8dde8ef7e2cf915ffd2108192777ebdd4d9c3bfcf92becb4bdba1c639ab0b3376aab075cba84997e92d2a1d12998ae8c1be6c7c5ca10140e20bd1a5e7939b14001291ccc20dd3b763abb67cf39c8369f408a4167d4551dd97576281ab69242163be303015292974aedf976c28e977920c22854fb930bba300000000"
}