{
  "txid": "6c4358ef84bd789ae8ab0cdaab2125df4e0d9508b732a36e4ab64bcf645a30be",
  "version": 2,
  "locktime": 0,
  "vin": [
    {
      "txid": "3f69fae8ca9bdd774ca5294e86509449f431bb44e2206cae9f7f495b7952d9e2",
      "vout": 7,
      "prevout": {
        "scriptpubkey": "5120f7d4779a11472a020a017e4c0df6166545b550f385fadc074106e6590f53a71b",
        "scriptpubkey_asm": "OP_PUSHNUM_1 OP_PUSHBYTES_32 f7d4779a11472a020a017e4c0df6166545b550f385fadc074106e6590f53a71b",
        "scriptpubkey_type": "v1_p2tr",
        "scriptpubkey_address": "bc1p7l280xs3gu4qyzsp0exqmaskv4zm258nshadcp6pqmn9jr6n5udsj4d3l4",
        "value": 2996
      },
      "scriptsig": "",
      "scriptsig_asm": "",
      "witness": [
        "31aae264371e8a50e4d8de0a173f06ec0e8e13e29599d40c5c519e2d98ac93b483f31e5c136599916dc3ca6e88ba649aa9fc4a146afe1528e3bfefae6443bb4b",
        "20de710ae1ea92cd192c7af909150ab17fe03a904e4750cdf9aef0949882ec8572ac0063036f726401011e6170706c69636174696f6e2f6a736f6e3b636861727365743d7574662d38004cb77b2270223a22706f772d3230222c226f70223a226d696e74222c227469636b223a2250455045222c22616d74223a2231303030222c22736f6c7574696f6e223a22504550453a334d524d3246744a42504c46315958564766504d33656556746675364446734762623a303030303030303030303030303030303030303139393431613561653132383937363539383134343239323533333030353762306461393666336465613163353a3236343931363730363237227d68",
        "c16b70a06f37e9fa1ff7e7bec8bd1210228b25051d0c17b5264cdd8c73b544f454"
      ],
      "is_coinbase": false,
      "sequence": 4294967295
    }
  ],
  "vout": [
    {
      "scriptpubkey": "a914d86bcd8c487ad519e95c6557e7463d579cce14a287",
      "scriptpubkey_asm": "OP_HASH160 OP_PUSHBYTES_20 d86bcd8c487ad519e95c6557e7463d579cce14a2 OP_EQUAL",
      "scriptpubkey_type": "p2sh",
      "scriptpubkey_address": "3MRM2FtJBPLF1YXVGfPM3eeVtfu6DFsGbb",
      "value": 546
    }
  ],
  "size": 448,
  "weight": 697,
  "fee": 2450,
  "status": {
    "confirmed": true,
    "block_height": 834460,
    "block_hash": "00000000000000000000484a79b643b2524bbce82e5d8a442013fa5b8905ed98",
    "block_time": 1710307468
  },
  "hex": "02000000000101e2d952795b497f9fae6c20e244bb31f4499450864e29a54c77dd9bcae8fa693f0700000000ffffffff01220200000000000017a914d86bcd8c487ad519e95c6557e7463d579cce14a287034031aae264371e8a50e4d8de0a173f06ec0e8e13e29599d40c5c519e2d98ac93b483f31e5c136599916dc3ca6e88ba649aa9fc4a146afe1528e3bfefae6443bb4bfd040120de710ae1ea92cd192c7af909150ab17fe03a904e4750cdf9aef0949882ec8572ac0063036f726401011e6170706c69636174696f6e2f6a736f6e3b636861727365743d7574662d38004cb77b2270223a22706f772d3230222c226f70223a226d696e74222c227469636b223a2250455045222c22616d74223a2231303030222c22736f6c7574696f6e223a22504550453a334d524d3246744a42504c46315958564766504d33656556746675364446734762623a303030303030303030303030303030303030303139393431613561653132383937363539383134343239323533333030353762306461393666336465613163353a3236343931363730363237227d6821c16b70a06f37e9fa1ff7e7bec8bd1210228b25051d0c17b5264cdd8c73b544f45400000000"
}