{
  "txid": "6c4a91c36084f2c3953b23fddbc8e19b70f681da1b956447a2e8aa57acd29137",
  "version": 2,
  "locktime": 0,
  "vin": [
    {
      "txid": "2e31eedf33ec7d2acb8a6d2bfda0c4bfe7607f16a239ea9483170714f77932f3",
      "vout": 4,
      "prevout": {
        "scriptpubkey": "00145f6e77d1abd8b16d872cee24dcc2f079136217af",
        "scriptpubkey_asm": "OP_0 OP_PUSHBYTES_20 5f6e77d1abd8b16d872cee24dcc2f079136217af",
        "scriptpubkey_type": "v0_p2wpkh",
        "scriptpubkey_address": "bc1qtah805dtmzckmpevacjdeshs0yfky9a0g3tvp6",
        "value": 34904
      },
      "scriptsig": "",
      "scriptsig_asm": "",
      "witness": [
        "30450221008f4ee367facc22b6a1c8a1b36fc7361bba517c84ff17ba1157025903e39ec09c02200c7f39f4b345936fc7967924b9a404153455a8527ebe8c7e1badaf4c9e758c8f01",
        "0384ef607754fe0a96387009a08c86708e345d1ddc54854c09f522509d9bacec1c"
      ],
      "is_coinbase": false,
      "sequence": 4294967295
    }
  ],
  "vout": [
    {
      "scriptpubkey": "00145f6e77d1abd8b16d872cee24dcc2f079136217af",
      "scriptpubkey_asm": "OP_0 OP_PUSHBYTES_20 5f6e77d1abd8b16d872cee24dcc2f079136217af",
      "scriptpubkey_type": "v0_p2wpkh",
      "scriptpubkey_address": "bc1qtah805dtmzckmpevacjdeshs0yfky9a0g3tvp6",
      "value": 600
    },
    {
      "scriptpubkey": "00145f6e77d1abd8b16d872cee24dcc2f079136217af",
      "scriptpubkey_asm": "OP_0 OP_PUSHBYTES_20 5f6e77d1abd8b16d872cee24dcc2f079136217af",
      "scriptpubkey_type": "v0_p2wpkh",
      "scriptpubkey_address": "bc1qtah805dtmzckmpevacjdeshs0yfky9a0g3tvp6",
      "value": 600
    },
    {
      "scriptpubkey": "00145f6e77d1abd8b16d872cee24dcc2f079136217af",
      "scriptpubkey_asm": "OP_0 OP_PUSHBYTES_20 5f6e77d1abd8b16d872cee24dcc2f079136217af",
      "scriptpubkey_type": "v0_p2wpkh",
      "scriptpubkey_address": "bc1qtah805dtmzckmpevacjdeshs0yfky9a0g3tvp6",
      "value": 600
    },
    {
      "scriptpubkey": "00145f6e77d1abd8b16d872cee24dcc2f079136217af",
      "scriptpubkey_asm": "OP_0 OP_PUSHBYTES_20 5f6e77d1abd8b16d872cee24dcc2f079136217af",
      "scriptpubkey_type": "v0_p2wpkh",
      "scriptpubkey_address": "bc1qtah805dtmzckmpevacjdeshs0yfky9a0g3tvp6",
      "value": 600
    },
    {
      "scriptpubkey": "00145f6e77d1abd8b16d872cee24dcc2f079136217af",
      "scriptpubkey_asm": "OP_0 OP_PUSHBYTES_20 5f6e77d1abd8b16d872cee24dcc2f079136217af",
      "scriptpubkey_type": "v0_p2wpkh",
      "scriptpubkey_address": "bc1qtah805dtmzckmpevacjdeshs0yfky9a0g3tvp6",
      "value": 28994
    }
  ],
  "size": 316,
  "weight": 934,
  "fee": 3510,
  "status": {
    "confirmed": true,
    "block_height": 834638,
    "block_hash": "000000000000000000025f742c626208ac87e0b7d15054abb4a19ca2d735a54e",
    "block_time": 1710405325
  },
  "hex": "02000000000101f33279f71407178394ea39a2167f60e7bfc4a0fd2b6d8acb2a7dec33dfee312e0400000000ffffffff0558020000000000001600145f6e77d1abd8b16d872cee24dcc2f079136217af58020000000000001600145f6e77d1abd8b16d872cee24dcc2f079136217af58020000000000001600145f6e77d1abd8b16d872cee24dcc2f079136217af58020000000000001600145f6e77d1abd8b16d872cee24dcc2f079136217af42710000000000001600145f6e77d1abd8b16d872cee24dcc2f079136217af024830450221008f4ee367facc22b6a1c8a1b36fc7361bba517c84ff17ba1157025903e39ec09c02200c7f39f4b345936fc7967924b9a404153455a8527ebe8c7e1badaf4c9e758c8f01210384ef607754fe0a96387009a08c86708e345d1ddc54854c09f522509d9bacec1c00000000"
}