{
  "txid": "6c4c29a4d9b71a3d86b93a449d92ae04f37cc4f68edefe704e5c99742439df8f",
  "version": 1,
  "locktime": 0,
  "vin": [
    {
      "txid": "7fb916d36dfdccd4a1fd19addd4f08f1fb13367eeaf37ca5a18fd69999ca19aa",
      "vout": 1,
      "prevout": {
        "scriptpubkey": "76a9140ac949a7d603e9c4b75721b19e7584056f94675a88ac",
        "scriptpubkey_asm": "OP_DUP OP_HASH160 OP_PUSHBYTES_20 0ac949a7d603e9c4b75721b19e7584056f94675a OP_EQUALVERIFY OP_CHECKSIG",
        "scriptpubkey_type": "p2pkh",
        "scriptpubkey_address": "1z2tdn4Cewu5FzzWexEJPagZ2sVkWUDoJ",
        "value": 577592
      },
      "scriptsig": "473044022024d321683ea7fb0d40f1d229da623095915fbb1fcc92ce7bd3ac2c0d9ecfe995022017a56dba9fa80d7222f8317fb466e0910db2f282844644dcfed3b198aeb11d3401210361aec595313e0a7ede985cb3f809ceb3fb8923126b4d92f8b84db5ae1f32821f",
      "scriptsig_asm": "OP_PUSHBYTES_71 3044022024d321683ea7fb0d40f1d229da623095915fbb1fcc92ce7bd3ac2c0d9ecfe995022017a56dba9fa80d7222f8317fb466e0910db2f282844644dcfed3b198aeb11d3401 OP_PUSHBYTES_33 0361aec595313e0a7ede985cb3f809ceb3fb8923126b4d92f8b84db5ae1f32821f",
      "is_coinbase": false,
      "sequence": 4294967295
    }
  ],
  "vout": [
    {
      "scriptpubkey": "a914d401d847b5772874d157b315339a66947800496987",
      "scriptpubkey_asm": "OP_HASH160 OP_PUSHBYTES_20 d401d847b5772874d157b315339a669478004969 OP_EQUAL",
      "scriptpubkey_type": "p2sh",
      "scriptpubkey_address": "3M21PPo5W6Gnk6cZq3nrvDmN6WYxTUVmjv",
      "value": 273519
    },
    {
      "scriptpubkey": "76a91427bee293b8bae98b9c9264501b76c031db0c62b188ac",
      "scriptpubkey_asm": "OP_DUP OP_HASH160 OP_PUSHBYTES_20 27bee293b8bae98b9c9264501b76c031db0c62b1 OP_EQUALVERIFY OP_CHECKSIG",
      "scriptpubkey_type": "p2pkh",
      "scriptpubkey_address": "14dA2Qgc9GWHQ24sy5BXCnnfcWjEqYpSMo",
      "value": 296457
    }
  ],
  "size": 223,
  "weight": 892,
  "fee": 7616,
  "status": {
    "confirmed": true,
    "block_height": 834638,
    "block_hash": "000000000000000000025f742c626208ac87e0b7d15054abb4a19ca2d735a54e",
    "block_time": 1710405325
  },
  "hex": "0100000001aa19ca9999d68fa1a57cf3ea7e3613fbf1084fddad19fda1d4ccfd6dd316b97f010000006a473044022024d321683ea7fb0d40f1d229da623095915fbb1fcc92ce7bd3ac2c0d9ecfe995022017a56dba9fa80d7222f8317fb466e0910db2f282844644dcfed3b198aeb11d3401210361aec595313e0a7ede985cb3f809ceb3fb8923126b4d92f8b84db5ae1f32821fffffffff026f2c04000000000017a914d401d847b5772874d157b315339a6694780049698709860400000000001976a91427bee293b8bae98b9c9264501b76c031db0c62b188ac00000000"
}