{
  "txid": "6c5ccb215cada17f9c38a5b55b7bdbaf2b2cecafb51b788e90bdb7acd2427483",
  "version": 2,
  "locktime": 0,
  "vin": [
    {
      "txid": "cff18b4559633437c6b86c4dda97cfb257bbb38034c432a508417c66c18b6b72",
      "vout": 33,
      "prevout": {
        "scriptpubkey": "512025a39e2312c491fe6d3357436f2a5a41bab1574c3fe9560f6f7cda5b50e67b70",
        "scriptpubkey_asm": "OP_PUSHNUM_1 OP_PUSHBYTES_32 25a39e2312c491fe6d3357436f2a5a41bab1574c3fe9560f6f7cda5b50e67b70",
        "scriptpubkey_type": "v1_p2tr",
        "scriptpubkey_address": "bc1pyk3eugcjcjglumfn2apk72j6gxatz46v8l54vrm00nd9k58x0dcql3pdca",
        "value": 3618
      },
      "scriptsig": "",
      "scriptsig_asm": "",
      "witness": [
        "3230eb27f1718dac515457e838189fbefb424182b22a91bb38e2c107b31b400837ef386df04817013a966a077f1bc6551a8c4365d0b4bf141cdddee529567a27",
        "20d19f7d57311463834a94c21fb7999adddc9bbe2498a58408a2a730a2ea8bfe18ac0063036f726401011e6170706c69636174696f6e2f6a736f6e3b636861727365743d7574662d38004cd27b2270223a22706f772d3230222c226f70223a226d696e74222c227469636b223a2250455045222c22616d74223a2231303030222c22736f6c7574696f6e223a22504550453a6263317077687170676e37766634707478386574387339353863796b6a6338306130393377387733716d6d6737726c39717177616c6a37733339766c36733a303030303030303030303030303030303030303139393431613561653132383937363539383134343239323533333030353762306461393666336465613163353a31373331363032353436227d68",
        "c0260555bf4608a4bfce181158d7f81c023e0988279add2c55cd9091c8ce8f4140"
      ],
      "is_coinbase": false,
      "sequence": 4294967295
    }
  ],
  "vout": [
    {
      "scriptpubkey": "512075c0144fcc4d42b31f2b3c0b43e096960efebcb171dd106f68f0fe5001ddfcbd",
      "scriptpubkey_asm": "OP_PUSHNUM_1 OP_PUSHBYTES_32 75c0144fcc4d42b31f2b3c0b43e096960efebcb171dd106f68f0fe5001ddfcbd",
      "scriptpubkey_type": "v1_p2tr",
      "scriptpubkey_address": "bc1pwhqpgn7vf4ptx8et8s958cykjc80a093w8w3qmmg7rl9qqwalj7s39vl6s",
      "value": 546
    }
  ],
  "size": 486,
  "weight": 768,
  "fee": 3072,
  "status": {
    "confirmed": true,
    "block_height": 834460,
    "block_hash": "00000000000000000000484a79b643b2524bbce82e5d8a442013fa5b8905ed98",
    "block_time": 1710307468
  },
  "hex": "02000000000101726b8bc1667c4108a532c43480b3bb57b2cf97da4d6cb8c637346359458bf1cf2100000000ffffffff01220200000000000022512075c0144fcc4d42b31f2b3c0b43e096960efebcb171dd106f68f0fe5001ddfcbd03403230eb27f1718dac515457e838189fbefb424182b22a91bb38e2c107b31b400837ef386df04817013a966a077f1bc6551a8c4365d0b4bf141cdddee529567a27fd1f0120d19f7d57311463834a94c21fb7999adddc9bbe2498a58408a2a730a2ea8bfe18ac0063036f726401011e6170706c69636174696f6e2f6a736f6e3b636861727365743d7574662d38004cd27b2270223a22706f772d3230222c226f70223a226d696e74222c227469636b223a2250455045222c22616d74223a2231303030222c22736f6c7574696f6e223a22504550453a6263317077687170676e37766634707478386574387339353863796b6a6338306130393377387733716d6d6737726c39717177616c6a37733339766c36733a303030303030303030303030303030303030303139393431613561653132383937363539383134343239323533333030353762306461393666336465613163353a31373331363032353436227d6821c0260555bf4608a4bfce181158d7f81c023e0988279add2c55cd9091c8ce8f414000000000"
}