{
  "txid": "6c6e704aad88ad3eeb78332fafe378d8feb7174549eb23e2ec2232406e71b447",
  "version": 2,
  "locktime": 0,
  "vin": [
    {
      "txid": "888c376c9b582c8a135964a70a5c13b8863d4d16f7f8e3001a204f6d5399cf49",
      "vout": 0,
      "prevout": {
        "scriptpubkey": "76a914199b9009164155f1d066cd6f504f004c5df5069688ac",
        "scriptpubkey_asm": "OP_DUP OP_HASH160 OP_PUSHBYTES_20 199b9009164155f1d066cd6f504f004c5df50696 OP_EQUALVERIFY OP_CHECKSIG",
        "scriptpubkey_type": "p2pkh",
        "scriptpubkey_address": "13LQFUgvC5fWgwRaCrznqgwKjEdqvhFHcd",
        "value": 1201376
      },
      "scriptsig": "4730440220621634f567b231ea68eca1355382a6c5c2297b76e965172d496597db7860680a022001d3b0d89632be28c1fb84519a054e112923a0dc06c768483969dc612d5e1615012102254b0e59b92762591ad8247454a3ba7f2d7d06e3bb4d83cb4d5b6758612424c1",
      "scriptsig_asm": "OP_PUSHBYTES_71 30440220621634f567b231ea68eca1355382a6c5c2297b76e965172d496597db7860680a022001d3b0d89632be28c1fb84519a054e112923a0dc06c768483969dc612d5e161501 OP_PUSHBYTES_33 02254b0e59b92762591ad8247454a3ba7f2d7d06e3bb4d83cb4d5b6758612424c1",
      "is_coinbase": false,
      "sequence": 4294967295
    }
  ],
  "vout": [
    {
      "scriptpubkey": "76a914dd78c0090e54454ae20b5424f2aa51dbcb242c5b88ac",
      "scriptpubkey_asm": "OP_DUP OP_HASH160 OP_PUSHBYTES_20 dd78c0090e54454ae20b5424f2aa51dbcb242c5b OP_EQUALVERIFY OP_CHECKSIG",
      "scriptpubkey_type": "p2pkh",
      "scriptpubkey_address": "1MC2zG9hojCuRMYrwti68QDsu2q3jR3X4y",
      "value": 1197794
    }
  ],
  "size": 191,
  "weight": 764,
  "fee": 3582,
  "status": {
    "confirmed": true,
    "block_height": 834552,
    "block_hash": "00000000000000000001dd0468a70c94f619251d286585cff57aeb4bd9ede330",
    "block_time": 1710355598
  },
  "hex": "020000000149cf99536d4f201a00e3f8f7164d3d86b8135c0aa76459138a2c589b6c378c88000000006a4730440220621634f567b231ea68eca1355382a6c5c2297b76e965172d496597db7860680a022001d3b0d89632be28c1fb84519a054e112923a0dc06c768483969dc612d5e1615012102254b0e59b92762591ad8247454a3ba7f2d7d06e3bb4d83cb4d5b6758612424c1ffffffff01e2461200000000001976a914dd78c0090e54454ae20b5424f2aa51dbcb242c5b88ac00000000"
}