{
  "txid": "6c82dfa980ef40dbfb69ea169f040cc084beef3a159214e2bc667b4b868b2d5f",
  "version": 2,
  "locktime": 0,
  "vin": [
    {
      "txid": "c8fe90c3b3dbcfb7a7d40925a8f55021a394d1d17007fb753659fd6689f01b9b",
      "vout": 0,
      "prevout": {
        "scriptpubkey": "5120a6eee652731b84d592ae521b4eb8f39b8988301fc522dd02357baa565b9575a9",
        "scriptpubkey_asm": "OP_PUSHNUM_1 OP_PUSHBYTES_32 a6eee652731b84d592ae521b4eb8f39b8988301fc522dd02357baa565b9575a9",
        "scriptpubkey_type": "v1_p2tr",
        "scriptpubkey_address": "bc1p5mhwv5nnrwzdty4w2gd5aw8nnwycsvqlc53d6q340w49vku4wk5sf3vjvy",
        "value": 100000
      },
      "scriptsig": "",
      "scriptsig_asm": "",
      "witness": [
        "696ca36fa56aa62cbe76b512f2ada2a8f084d39ef8819845aa685f3fefccc2f1fe9b313d275f6c9783932e2fbcbc2dcb0ffe527e88af443f3f1226796351da51"
      ],
      "is_coinbase": false,
      "sequence": 4294967295
    }
  ],
  "vout": [
    {
      "scriptpubkey": "5120a6eee652731b84d592ae521b4eb8f39b8988301fc522dd02357baa565b9575a9",
      "scriptpubkey_asm": "OP_PUSHNUM_1 OP_PUSHBYTES_32 a6eee652731b84d592ae521b4eb8f39b8988301fc522dd02357baa565b9575a9",
      "scriptpubkey_type": "v1_p2tr",
      "scriptpubkey_address": "bc1p5mhwv5nnrwzdty4w2gd5aw8nnwycsvqlc53d6q340w49vku4wk5sf3vjvy",
      "value": 1000
    },
    {
      "scriptpubkey": "5120a6eee652731b84d592ae521b4eb8f39b8988301fc522dd02357baa565b9575a9",
      "scriptpubkey_asm": "OP_PUSHNUM_1 OP_PUSHBYTES_32 a6eee652731b84d592ae521b4eb8f39b8988301fc522dd02357baa565b9575a9",
      "scriptpubkey_type": "v1_p2tr",
      "scriptpubkey_address": "bc1p5mhwv5nnrwzdty4w2gd5aw8nnwycsvqlc53d6q340w49vku4wk5sf3vjvy",
      "value": 91300
    }
  ],
  "size": 205,
  "weight": 616,
  "fee": 7700,
  "status": {
    "confirmed": true,
    "block_height": 834638,
    "block_hash": "000000000000000000025f742c626208ac87e0b7d15054abb4a19ca2d735a54e",
    "block_time": 1710405325
  },
  "hex": "020000000001019b1bf08966fd593675fb0770d1d194a32150f5a82509d4a7b7cfdbb3c390fec80000000000ffffffff02e803000000000000225120a6eee652731b84d592ae521b4eb8f39b8988301fc522dd02357baa565b9575a9a464010000000000225120a6eee652731b84d592ae521b4eb8f39b8988301fc522dd02357baa565b9575a90140696ca36fa56aa62cbe76b512f2ada2a8f084d39ef8819845aa685f3fefccc2f1fe9b313d275f6c9783932e2fbcbc2dcb0ffe527e88af443f3f1226796351da5100000000"
}