{
  "txid": "6c964e0afc359e9c0e71fc0805e9ab587b6b3db8773aebf1b42be95a5f9c277d",
  "version": 1,
  "locktime": 0,
  "vin": [
    {
      "txid": "0a7a060125b2d0e08320f406949d747fcdd18b7d74be0f19bedb263ccb4dcfb5",
      "vout": 0,
      "prevout": {
        "scriptpubkey": "00143cfe58475b757bac23b1534ef667ea2f6982a7e3",
        "scriptpubkey_asm": "OP_0 OP_PUSHBYTES_20 3cfe58475b757bac23b1534ef667ea2f6982a7e3",
        "scriptpubkey_type": "v0_p2wpkh",
        "scriptpubkey_address": "bc1q8nl9s36mw4a6cga32d80vel29a5c9flrx225tw",
        "value": 173400
      },
      "scriptsig": "",
      "scriptsig_asm": "",
      "witness": [
        "304402200e085a8cedd360426de175e0d2f83b8b85ecbddcd60ac0721e1458a6d1c78b510220392ef360faa63c5f1eefa443026bff2b890a6c296fcee216256f836d76b3098901",
        "031e13c885fb1447b8009200d37ac1fee5538d420a3e974ec29ffd43c99ac19abe"
      ],
      "is_coinbase": false,
      "sequence": 4294967295
    }
  ],
  "vout": [
    {
      "scriptpubkey": "76a9144a3e52e5668a356677b9463d8b29183b465b510b88ac",
      "scriptpubkey_asm": "OP_DUP OP_HASH160 OP_PUSHBYTES_20 4a3e52e5668a356677b9463d8b29183b465b510b OP_EQUALVERIFY OP_CHECKSIG",
      "scriptpubkey_type": "p2pkh",
      "scriptpubkey_address": "17mZfXjY1T4E4pgMSUNnMyJwahg9LGVbuL",
      "value": 69481
    },
    {
      "scriptpubkey": "0014a58899f93805581c31731d9d7f9a4466f1a87ee3",
      "scriptpubkey_asm": "OP_0 OP_PUSHBYTES_20 a58899f93805581c31731d9d7f9a4466f1a87ee3",
      "scriptpubkey_type": "v0_p2wpkh",
      "scriptpubkey_address": "bc1q5kyfn7fcq4vpcvtnrkwhlxjyvmc6slhrepmuca",
      "value": 101615
    }
  ],
  "size": 225,
  "weight": 573,
  "fee": 2304,
  "status": {
    "confirmed": true,
    "block_height": 834638,
    "block_hash": "000000000000000000025f742c626208ac87e0b7d15054abb4a19ca2d735a54e",
    "block_time": 1710405325
  },
  "hex": "01000000000101b5cf4dcb3c26dbbe190fbe747d8bd1cd7f749d9406f42083e0d0b22501067a0a0000000000ffffffff02690f0100000000001976a9144a3e52e5668a356677b9463d8b29183b465b510b88acef8c010000000000160014a58899f93805581c31731d9d7f9a4466f1a87ee30247304402200e085a8cedd360426de175e0d2f83b8b85ecbddcd60ac0721e1458a6d1c78b510220392ef360faa63c5f1eefa443026bff2b890a6c296fcee216256f836d76b309890121031e13c885fb1447b8009200d37ac1fee5538d420a3e974ec29ffd43c99ac19abe00000000"
}