{
  "txid": "6ccbdb2d47dfeb2b644d180ce58c9f450ac4fab5ffe007daca501b859b4b51b6",
  "version": 1,
  "locktime": 0,
  "vin": [
    {
      "txid": "9841f1b994ca1e432284b8a9164fc526c91ac422c07ef737fd3e0619ff57e3b8",
      "vout": 1,
      "prevout": {
        "scriptpubkey": "00145180c08c06852b2e2faa2ceb9f1a92c7cd17bf23",
        "scriptpubkey_asm": "OP_0 OP_PUSHBYTES_20 5180c08c06852b2e2faa2ceb9f1a92c7cd17bf23",
        "scriptpubkey_type": "v0_p2wpkh",
        "scriptpubkey_address": "bc1q2xqvprqxs54juta29n4e7x5jclx300er0syjuk",
        "value": 14390383
      },
      "scriptsig": "",
      "scriptsig_asm": "",
      "witness": [
        "304402203cd6c38d8812033a9b4ea2768bb77b39e366dd1e22fa3a8cbdb5b8b1b5a05e26022003d444a5aff840c691a92be4c2dc67e082345870a4d767c1d40e1a2134ee300601",
        "02507f535deb221d8fe5a23763d9d907f1a7a082eed622b9546854446d0ef3d594"
      ],
      "is_coinbase": false,
      "sequence": 4294967295
    }
  ],
  "vout": [
    {
      "scriptpubkey": "a9140c3e176d4d29903483e86393ba55686b5955166587",
      "scriptpubkey_asm": "OP_HASH160 OP_PUSHBYTES_20 0c3e176d4d29903483e86393ba55686b59551665 OP_EQUAL",
      "scriptpubkey_type": "p2sh",
      "scriptpubkey_address": "32okR3FPAVYzYQnsoicie6a9rdFZkQMWGn",
      "value": 4776481
    },
    {
      "scriptpubkey": "00145180c08c06852b2e2faa2ceb9f1a92c7cd17bf23",
      "scriptpubkey_asm": "OP_0 OP_PUSHBYTES_20 5180c08c06852b2e2faa2ceb9f1a92c7cd17bf23",
      "scriptpubkey_type": "v0_p2wpkh",
      "scriptpubkey_address": "bc1q2xqvprqxs54juta29n4e7x5jclx300er0syjuk",
      "value": 9610068
    }
  ],
  "size": 223,
  "weight": 565,
  "fee": 3834,
  "status": {
    "confirmed": true,
    "block_height": 834638,
    "block_hash": "000000000000000000025f742c626208ac87e0b7d15054abb4a19ca2d735a54e",
    "block_time": 1710405325
  },
  "hex": "01000000000101b8e357ff19063efd37f77ec022c41ac926c54f16a9b88422431eca94b9f141980100000000ffffffff0221e248000000000017a9140c3e176d4d29903483e86393ba55686b595516658754a39200000000001600145180c08c06852b2e2faa2ceb9f1a92c7cd17bf230247304402203cd6c38d8812033a9b4ea2768bb77b39e366dd1e22fa3a8cbdb5b8b1b5a05e26022003d444a5aff840c691a92be4c2dc67e082345870a4d767c1d40e1a2134ee3006012102507f535deb221d8fe5a23763d9d907f1a7a082eed622b9546854446d0ef3d59400000000"
}