{
  "txid": "6cd65a624cbf1049aa14ee271e4f1495dae5ac3b48ecbab4dbc741d93e59d0af",
  "version": 2,
  "locktime": 0,
  "vin": [
    {
      "txid": "abdcbb8bcefa0f088373ceda41a70fe1aeaa3823b969e1169e2a29269068d8dc",
      "vout": 9,
      "prevout": {
        "scriptpubkey": "5120d28da2bbb43b1376ddcf71955a605c913354cde76f861008f870071911641396",
        "scriptpubkey_asm": "OP_PUSHNUM_1 OP_PUSHBYTES_32 d28da2bbb43b1376ddcf71955a605c913354cde76f861008f870071911641396",
        "scriptpubkey_type": "v1_p2tr",
        "scriptpubkey_address": "bc1p62x69wa58vfhdhw0wx245czujye4fn08d7rpqz8cwqr3jytyzwtqtg2ar6",
        "value": 2522
      },
      "scriptsig": "",
      "scriptsig_asm": "",
      "witness": [
        "e53f696315f0317f76cd0a634d2fe94e5be4513b792a2eb074fd3568885e735ca8149d4cecbb8335f9e0867f495900f789668c057a742adc287edaa635e93bcc",
        "202c3d1bebfc498d3a03ab729ca0c33b518809b4c1559a9eff95094ef891c9378aac0063036f7264010118746578742f706c61696e3b636861727365743d7574662d3800387b2270223a226272632d3230222c226f70223a227472616e73666572222c227469636b223a226f726e6a222c22616d74223a22313030227d68",
        "c025dced391475af84759664675c16f5ed581b243a944241d7ee258c8cfb80c9db"
      ],
      "is_coinbase": false,
      "sequence": 4294967295
    }
  ],
  "vout": [
    {
      "scriptpubkey": "512060e7b9d91ee3091b65165528563dba11a47299520ea2fc67070ec6ac303fc05d",
      "scriptpubkey_asm": "OP_PUSHNUM_1 OP_PUSHBYTES_32 60e7b9d91ee3091b65165528563dba11a47299520ea2fc67070ec6ac303fc05d",
      "scriptpubkey_type": "v1_p2tr",
      "scriptpubkey_address": "bc1pvrnmnkg7uvy3kegk2559v0d6zxj89x2jp630cec8pmr2cvplcpwsn3pn79",
      "value": 546
    }
  ],
  "size": 323,
  "weight": 605,
  "fee": 1976,
  "status": {
    "confirmed": true,
    "block_height": 834460,
    "block_hash": "00000000000000000000484a79b643b2524bbce82e5d8a442013fa5b8905ed98",
    "block_time": 1710307468
  },
  "hex": "02000000000101dcd8689026292a9e16e169b92338aaaee10fa741dace7383080fface8bbbdcab0900000000ffffffff01220200000000000022512060e7b9d91ee3091b65165528563dba11a47299520ea2fc67070ec6ac303fc05d0340e53f696315f0317f76cd0a634d2fe94e5be4513b792a2eb074fd3568885e735ca8149d4cecbb8335f9e0867f495900f789668c057a742adc287edaa635e93bcc7e202c3d1bebfc498d3a03ab729ca0c33b518809b4c1559a9eff95094ef891c9378aac0063036f7264010118746578742f706c61696e3b636861727365743d7574662d3800387b2270223a226272632d3230222c226f70223a227472616e73666572222c227469636b223a226f726e6a222c22616d74223a22313030227d6821c025dced391475af84759664675c16f5ed581b243a944241d7ee258c8cfb80c9db00000000"
}