{
  "txid": "6ce03f19092ded9a1832c68ce71e95bf15dc2c731975b91735e6576beeaf6d78",
  "version": 2,
  "locktime": 0,
  "vin": [
    {
      "txid": "5418ede380e8770f763c7353d855d268873258897afe5fb729efc8129d41928c",
      "vout": 1,
      "prevout": {
        "scriptpubkey": "a914a3fc332779fb1a75d21da87b8cb6bc4fd383156987",
        "scriptpubkey_asm": "OP_HASH160 OP_PUSHBYTES_20 a3fc332779fb1a75d21da87b8cb6bc4fd3831569 OP_EQUAL",
        "scriptpubkey_type": "p2sh",
        "scriptpubkey_address": "3Ge6BxoQ1FM4mP9LBddjGRLzWDuYWUArPu",
        "value": 817205
      },
      "scriptsig": "1600149739ce7cc7adb754d8bb6822bd791c348919af04",
      "scriptsig_asm": "OP_PUSHBYTES_22 00149739ce7cc7adb754d8bb6822bd791c348919af04",
      "witness": [
        "3044022022eea84de474fa0fccd80b0963dcb7e512cdec5ddf77f27b805e2fe52419cc9702202674d426113f80799f9e51c0f240b112534acb31c1430265228d48f42464027c01",
        "020dae73cd67ca6318de16e3f51e1713519d4e0ceee0544b11cb25932486f7d5b3"
      ],
      "is_coinbase": false,
      "sequence": 4294967295,
      "inner_redeemscript_asm": "OP_0 OP_PUSHBYTES_20 9739ce7cc7adb754d8bb6822bd791c348919af04"
    }
  ],
  "vout": [
    {
      "scriptpubkey": "5120dab797acf1516bee69a3d5ac03233fa0c2fc298f160e8f9953f1785c4d4e2849",
      "scriptpubkey_asm": "OP_PUSHNUM_1 OP_PUSHBYTES_32 dab797acf1516bee69a3d5ac03233fa0c2fc298f160e8f9953f1785c4d4e2849",
      "scriptpubkey_type": "v1_p2tr",
      "scriptpubkey_address": "bc1pm2me0t832947u6dr6kkqxgel5rp0c2v0zc8glx2n79u9cn2w9pysrf9rus",
      "value": 6000
    },
    {
      "scriptpubkey": "a914a3fc332779fb1a75d21da87b8cb6bc4fd383156987",
      "scriptpubkey_asm": "OP_HASH160 OP_PUSHBYTES_20 a3fc332779fb1a75d21da87b8cb6bc4fd3831569 OP_EQUAL",
      "scriptpubkey_type": "p2sh",
      "scriptpubkey_address": "3Ge6BxoQ1FM4mP9LBddjGRLzWDuYWUArPu",
      "value": 807983
    }
  ],
  "size": 258,
  "weight": 705,
  "fee": 3222,
  "status": {
    "confirmed": true,
    "block_height": 834460,
    "block_hash": "00000000000000000000484a79b643b2524bbce82e5d8a442013fa5b8905ed98",
    "block_time": 1710307468
  },
  "hex": "020000000001018c92419d12c8ef29b75ffe7a8958328768d255d853733c760f77e880e3ed185401000000171600149739ce7cc7adb754d8bb6822bd791c348919af04ffffffff027017000000000000225120dab797acf1516bee69a3d5ac03233fa0c2fc298f160e8f9953f1785c4d4e28492f540c000000000017a914a3fc332779fb1a75d21da87b8cb6bc4fd38315698702473044022022eea84de474fa0fccd80b0963dcb7e512cdec5ddf77f27b805e2fe52419cc9702202674d426113f80799f9e51c0f240b112534acb31c1430265228d48f42464027c0121020dae73cd67ca6318de16e3f51e1713519d4e0ceee0544b11cb25932486f7d5b300000000"
}