{
  "txid": "6cf710f89856dfa735b21fba7beb95be18ff73a71f11064c48f16b8e4e69d07b",
  "version": 2,
  "locktime": 0,
  "vin": [
    {
      "txid": "b9f357d83cb3c7e1a11f861540f2ef8f0eb87871f723f91f9a708db0db1bcabf",
      "vout": 21,
      "prevout": {
        "scriptpubkey": "5120e58dc3c0fced614b649add5edb76c81cf43016998c9b970728ba733b8c632426",
        "scriptpubkey_asm": "OP_PUSHNUM_1 OP_PUSHBYTES_32 e58dc3c0fced614b649add5edb76c81cf43016998c9b970728ba733b8c632426",
        "scriptpubkey_type": "v1_p2tr",
        "scriptpubkey_address": "bc1pukxu8s8ua4s5key6m40dkakgrn6rq95e3jdewpeghfenhrrrysnq7pedm3",
        "value": 2862
      },
      "scriptsig": "",
      "scriptsig_asm": "",
      "witness": [
        "64e95a68e06e1c152cd11f39f57a65762609c12767322b60164841e7e4bca66eb1aad175ef7e48bc9afedfd3170dec3515189483c8382f00ee4d36d5053e2681",
        "2076a718ca634721f0aa561e761e6266701f8b641e83bb56f1863ba22b72db309eac0063036f726401011e6170706c69636174696f6e2f6a736f6e3b636861727365743d7574662d38004cd37b2270223a22706f772d3230222c226f70223a226d696e74222c227469636b223a2250455045222c22616d74223a2231303030222c22736f6c7574696f6e223a22504550453a62633170646c6a6d747a783365646e716e7572366332786c6c3277726472787a636e72373270333874636a6b736476306b726c67643268737a3279767a6c3a303030303030303030303030303030303030303139393431613561653132383937363539383134343239323533333030353762306461393666336465613163353a3239333439373930333136227d68",
        "c096123be632ec23e42a1daadb49c59b3ad8ca39108d2d31b6eff3b52b525d1622"
      ],
      "is_coinbase": false,
      "sequence": 4294967295
    }
  ],
  "vout": [
    {
      "scriptpubkey": "51206fe5b588d1cb6609f07ac28dffa9c368cc2c4c7e506275e2568358fb0fe86aaf",
      "scriptpubkey_asm": "OP_PUSHNUM_1 OP_PUSHBYTES_32 6fe5b588d1cb6609f07ac28dffa9c368cc2c4c7e506275e2568358fb0fe86aaf",
      "scriptpubkey_type": "v1_p2tr",
      "scriptpubkey_address": "bc1pdljmtzx3ednqnur6c2xll2wrdrxzcnr72p38tcjksdv0krlgd2hsz2yvzl",
      "value": 546
    }
  ],
  "size": 487,
  "weight": 769,
  "fee": 2316,
  "status": {
    "confirmed": true,
    "block_height": 834460,
    "block_hash": "00000000000000000000484a79b643b2524bbce82e5d8a442013fa5b8905ed98",
    "block_time": 1710307468
  },
  "hex": "02000000000101bfca1bdbb08d709a1ff923f77178b80e8feff24015861fa1e1c7b33cd857f3b91500000000ffffffff0122020000000000002251206fe5b588d1cb6609f07ac28dffa9c368cc2c4c7e506275e2568358fb0fe86aaf034064e95a68e06e1c152cd11f39f57a65762609c12767322b60164841e7e4bca66eb1aad175ef7e48bc9afedfd3170dec3515189483c8382f00ee4d36d5053e2681fd20012076a718ca634721f0aa561e761e6266701f8b641e83bb56f1863ba22b72db309eac0063036f726401011e6170706c69636174696f6e2f6a736f6e3b636861727365743d7574662d38004cd37b2270223a22706f772d3230222c226f70223a226d696e74222c227469636b223a2250455045222c22616d74223a2231303030222c22736f6c7574696f6e223a22504550453a62633170646c6a6d747a783365646e716e7572366332786c6c3277726472787a636e72373270333874636a6b736476306b726c67643268737a3279767a6c3a303030303030303030303030303030303030303139393431613561653132383937363539383134343239323533333030353762306461393666336465613163353a3239333439373930333136227d6821c096123be632ec23e42a1daadb49c59b3ad8ca39108d2d31b6eff3b52b525d162200000000"
}