{
  "txid": "6d1642a12cffc513a6c1354f841e7476430d45cdc238b554411ebf5068baadb2",
  "version": 2,
  "locktime": 0,
  "vin": [
    {
      "txid": "ea6bb549043d21355063e0d02903ac1dc4d8a2f5eac6decc412335fa76455a19",
      "vout": 56,
      "prevout": {
        "scriptpubkey": "00146e6d84f0510c76b9c7e6ba854f71d837b7142626",
        "scriptpubkey_asm": "OP_0 OP_PUSHBYTES_20 6e6d84f0510c76b9c7e6ba854f71d837b7142626",
        "scriptpubkey_type": "v0_p2wpkh",
        "scriptpubkey_address": "bc1qdekcfuz3p3mtn3lxh2z57uwcx7m3gf3x4yhne7",
        "value": 76000
      },
      "scriptsig": "",
      "scriptsig_asm": "",
      "witness": [
        "3045022100cf7895051db7de512241b523e671a4cab131b9c3e6fc01919d459645cfc92f06022060ee76e427e53b9b01cecdac38ba12f9da1b4280ea6fa32135f72583b1d3b7f601",
        "037988d735a859d9fede02a46c0ee44e9473d211d621640cc8a190e3be6831f67e"
      ],
      "is_coinbase": false,
      "sequence": 4294967295
    }
  ],
  "vout": [
    {
      "scriptpubkey": "0014275eac3eb1810552cd7bd7c85ea799efa5d3ac65",
      "scriptpubkey_asm": "OP_0 OP_PUSHBYTES_20 275eac3eb1810552cd7bd7c85ea799efa5d3ac65",
      "scriptpubkey_type": "v0_p2wpkh",
      "scriptpubkey_address": "bc1qya02c043syz49ntm6ly9afuea7ja8tr9rrhgfy",
      "value": 68327
    }
  ],
  "size": 192,
  "weight": 438,
  "fee": 7673,
  "status": {
    "confirmed": true,
    "block_height": 834552,
    "block_hash": "00000000000000000001dd0468a70c94f619251d286585cff57aeb4bd9ede330",
    "block_time": 1710355598
  },
  "hex": "02000000000101195a4576fa352341ccdec6eaf5a2d8c41dac0329d0e0635035213d0449b56bea3800000000ffffffff01e70a010000000000160014275eac3eb1810552cd7bd7c85ea799efa5d3ac6502483045022100cf7895051db7de512241b523e671a4cab131b9c3e6fc01919d459645cfc92f06022060ee76e427e53b9b01cecdac38ba12f9da1b4280ea6fa32135f72583b1d3b7f60121037988d735a859d9fede02a46c0ee44e9473d211d621640cc8a190e3be6831f67e00000000"
}