{
  "txid": "6d1ad541cd0380342d831d46825b650b88c40b001256afc9b0837e6a87c19e3f",
  "version": 2,
  "locktime": 0,
  "vin": [
    {
      "txid": "8486ecb4df0880316dd6e82b3971b4df187aff23765bc3a47f8d78bb53aa273c",
      "vout": 55,
      "prevout": {
        "scriptpubkey": "512030ca6c395b1a8a3d97c2bcbc2a971f82e6167e02675a5f04610e21cb20124014",
        "scriptpubkey_asm": "OP_PUSHNUM_1 OP_PUSHBYTES_32 30ca6c395b1a8a3d97c2bcbc2a971f82e6167e02675a5f04610e21cb20124014",
        "scriptpubkey_type": "v1_p2tr",
        "scriptpubkey_address": "bc1pxr9xcw2mr29rm97zhj7z49clstnpvlszvad97prppcsukgqjgq2qyxrhyx",
        "value": 2575
      },
      "scriptsig": "",
      "scriptsig_asm": "",
      "witness": [
        "33b2ec5397d9f61ede730f1dd7d8f3faf773e43ce0465f4411f3d1573ff94eeafce4cde13e18a773c5d36fd5169bde5632d6537537366005815e7d5f9c1a1015",
        "20b80636bf3c4f2c86fde3f665c55b0a91ee875d03e5972863f5f24450b692a80fac0063036f726401010a746578742f706c61696e00367b2270223a226272632d3230222c226f70223a226d696e74222c227469636b223a2261616161222c22616d74223a223130303030227d68",
        "c0b80636bf3c4f2c86fde3f665c55b0a91ee875d03e5972863f5f24450b692a80f"
      ],
      "is_coinbase": false,
      "sequence": 4261412863
    }
  ],
  "vout": [
    {
      "scriptpubkey": "0014ddd7ef12ea6f78edcc1e8e7afa12c01ab59f3339",
      "scriptpubkey_asm": "OP_0 OP_PUSHBYTES_20 ddd7ef12ea6f78edcc1e8e7afa12c01ab59f3339",
      "scriptpubkey_type": "v0_p2wpkh",
      "scriptpubkey_address": "bc1qmht77yh2dauwmnq73ea05ykqr26e7veea8spz6",
      "value": 546
    }
  ],
  "size": 295,
  "weight": 541,
  "fee": 2029,
  "status": {
    "confirmed": true,
    "block_height": 834460,
    "block_hash": "00000000000000000000484a79b643b2524bbce82e5d8a442013fa5b8905ed98",
    "block_time": 1710307468
  },
  "hex": "020000000001013c27aa53bb788d7fa4c35b7623ff7a18dfb471392be8d66d318008dfb4ec86843700000000fffffffd012202000000000000160014ddd7ef12ea6f78edcc1e8e7afa12c01ab59f3339034033b2ec5397d9f61ede730f1dd7d8f3faf773e43ce0465f4411f3d1573ff94eeafce4cde13e18a773c5d36fd5169bde5632d6537537366005815e7d5f9c1a10156e20b80636bf3c4f2c86fde3f665c55b0a91ee875d03e5972863f5f24450b692a80fac0063036f726401010a746578742f706c61696e00367b2270223a226272632d3230222c226f70223a226d696e74222c227469636b223a2261616161222c22616d74223a223130303030227d6821c0b80636bf3c4f2c86fde3f665c55b0a91ee875d03e5972863f5f24450b692a80f00000000"
}