{
  "txid": "6d20e7c653c63cce9f26ff5c0b53a94da8cd427448a623d3d5302c830c49f165",
  "version": 2,
  "locktime": 0,
  "vin": [
    {
      "txid": "7d5f7676e7877e2cf7f185c8b3a69f56fe2839046392bb82ef0808e22aa74ca7",
      "vout": 0,
      "prevout": {
        "scriptpubkey": "51207863a1c57eb02f77f62a8c23ca3675d5071fd0909f4c2d2146241f23daf96f1a",
        "scriptpubkey_asm": "OP_PUSHNUM_1 OP_PUSHBYTES_32 7863a1c57eb02f77f62a8c23ca3675d5071fd0909f4c2d2146241f23daf96f1a",
        "scriptpubkey_type": "v1_p2tr",
        "scriptpubkey_address": "bc1p0p36r3t7kqhh0a323s3u5dn465r3l5ysnaxz6g2xys0j8khedudqqxfesk",
        "value": 333
      },
      "scriptsig": "",
      "scriptsig_asm": "",
      "witness": [
        "487d222b12c2416c062dc7ce49e4c85d7869c08bd93363eaac885d90ad7610b5e0b664bea324ffa5e3baa0b9094536d1199314db6638fa94409cda9cf1728e73"
      ],
      "is_coinbase": false,
      "sequence": 4294967295
    },
    {
      "txid": "b4166fbe5d331f53dfc044ac9446384a9ba4e05c7faf372e741bc14f0e7aafb4",
      "vout": 3,
      "prevout": {
        "scriptpubkey": "51207863a1c57eb02f77f62a8c23ca3675d5071fd0909f4c2d2146241f23daf96f1a",
        "scriptpubkey_asm": "OP_PUSHNUM_1 OP_PUSHBYTES_32 7863a1c57eb02f77f62a8c23ca3675d5071fd0909f4c2d2146241f23daf96f1a",
        "scriptpubkey_type": "v1_p2tr",
        "scriptpubkey_address": "bc1p0p36r3t7kqhh0a323s3u5dn465r3l5ysnaxz6g2xys0j8khedudqqxfesk",
        "value": 96966
      },
      "scriptsig": "",
      "scriptsig_asm": "",
      "witness": [
        "1ed5dbbb2af90d037d46122db07a9a30be16da3f8e8da89fe06150e8f30463d3c98b5ec1300770e176a8dc6cf1f58f9bebd203eabd8245cb692601a6fabb1e1f"
      ],
      "is_coinbase": false,
      "sequence": 4294967295
    }
  ],
  "vout": [
    {
      "scriptpubkey": "5120502ea3a82d99a070ba95276cec7c5b858538ac30d2310a5e0264ec0ba6e71821",
      "scriptpubkey_asm": "OP_PUSHNUM_1 OP_PUSHBYTES_32 502ea3a82d99a070ba95276cec7c5b858538ac30d2310a5e0264ec0ba6e71821",
      "scriptpubkey_type": "v1_p2tr",
      "scriptpubkey_address": "bc1p2qh282pdnxs8pw54yakwclzmskzn3tps6gcs5hszvnkqhfh8rqssun8xmq",
      "value": 333
    },
    {
      "scriptpubkey": "51207863a1c57eb02f77f62a8c23ca3675d5071fd0909f4c2d2146241f23daf96f1a",
      "scriptpubkey_asm": "OP_PUSHNUM_1 OP_PUSHBYTES_32 7863a1c57eb02f77f62a8c23ca3675d5071fd0909f4c2d2146241f23daf96f1a",
      "scriptpubkey_type": "v1_p2tr",
      "scriptpubkey_address": "bc1p0p36r3t7kqhh0a323s3u5dn465r3l5ysnaxz6g2xys0j8khedudqqxfesk",
      "value": 94422
    }
  ],
  "size": 312,
  "weight": 846,
  "fee": 2544,
  "status": {
    "confirmed": true,
    "block_height": 834460,
    "block_hash": "00000000000000000000484a79b643b2524bbce82e5d8a442013fa5b8905ed98",
    "block_time": 1710307468
  },
  "hex": "02000000000102a74ca72ae20808ef82bb9263043928fe569fa6b3c885f1f72c7e87e776765f7d0000000000ffffffffb4af7a0e4fc11b742e37af7f5ce0a49b4a384694ac44c0df531f335dbe6f16b40300000000ffffffff024d01000000000000225120502ea3a82d99a070ba95276cec7c5b858538ac30d2310a5e0264ec0ba6e71821d6700100000000002251207863a1c57eb02f77f62a8c23ca3675d5071fd0909f4c2d2146241f23daf96f1a0140487d222b12c2416c062dc7ce49e4c85d7869c08bd93363eaac885d90ad7610b5e0b664bea324ffa5e3baa0b9094536d1199314db6638fa94409cda9cf1728e7301401ed5dbbb2af90d037d46122db07a9a30be16da3f8e8da89fe06150e8f30463d3c98b5ec1300770e176a8dc6cf1f58f9bebd203eabd8245cb692601a6fabb1e1f00000000"
}