{
  "txid": "6d2236797dae3bb87387f08296d6a604ddfe2bda7e4337e1a29b7784d9a5baa0",
  "version": 1,
  "locktime": 0,
  "vin": [
    {
      "txid": "6e22249bcef58503c445fabc5cdbc992e505f5c964544d4090d1f4d4f1ab920f",
      "vout": 0,
      "prevout": {
        "scriptpubkey": "0014a1e68db4f9e2525fa42aa768abffddc035d34d8d",
        "scriptpubkey_asm": "OP_0 OP_PUSHBYTES_20 a1e68db4f9e2525fa42aa768abffddc035d34d8d",
        "scriptpubkey_type": "v0_p2wpkh",
        "scriptpubkey_address": "bc1q58ngmd8euff9lfp25a52hl7acq6axnvd2ca5s4",
        "value": 484783
      },
      "scriptsig": "",
      "scriptsig_asm": "",
      "witness": [
        "3044022007897e28d943f57b81cd83c918a6ab71e5d13553e40c319bec65ea9fec96b29f02203ebaa80d7b7fb97626564c165c0c60fd7540f204a40d2d7608e6eb6b373dcf2e01",
        "03eb75bef0a085bcfcfbb6198032e9c23774779829e66b30613eed9f5986929365"
      ],
      "is_coinbase": false,
      "sequence": 4294967295
    },
    {
      "txid": "1f9e37a6c3b837aec644ff2bf554b9c1b4f4f1f0064e8f491dbcde03952c377d",
      "vout": 0,
      "prevout": {
        "scriptpubkey": "0014a893dbadbc38c6641f3ec39353bef1a29cac7a48",
        "scriptpubkey_asm": "OP_0 OP_PUSHBYTES_20 a893dbadbc38c6641f3ec39353bef1a29cac7a48",
        "scriptpubkey_type": "v0_p2wpkh",
        "scriptpubkey_address": "bc1q4zfahtdu8rrxg8e7cwf480h352w2c7jgcdadzm",
        "value": 281906
      },
      "scriptsig": "",
      "scriptsig_asm": "",
      "witness": [
        "304402203d6b6edc5e660bead3f983e9f8620838723d248f897e30da2e433217a33b4dab02200e5e79b5d8627dbc5dc65679f0975803ba373bb57d357dd1d642b2eb8408ca4801",
        "033f937a0c1c97c1393fef81677e22c62188998350bbd271c53e5dd1c16a1b2fe7"
      ],
      "is_coinbase": false,
      "sequence": 4294967295
    },
    {
      "txid": "c024ba7e72d3094f3fffa2e3fbd82261b79a5366cbae5c9096d2981a544cd3ec",
      "vout": 0,
      "prevout": {
        "scriptpubkey": "00147e88f8bed6ca9d1e64079001a923a4ec40ca8e8b",
        "scriptpubkey_asm": "OP_0 OP_PUSHBYTES_20 7e88f8bed6ca9d1e64079001a923a4ec40ca8e8b",
        "scriptpubkey_type": "v0_p2wpkh",
        "scriptpubkey_address": "bc1q06y030kke2w3ueq8jqq6jgaya3qv4r5tkpp5m5",
        "value": 421999
      },
      "scriptsig": "",
      "scriptsig_asm": "",
      "witness": [
        "3044022024b6d34f814ec61b84c05fd5d9f77ceec32a4e6afed129ca28ca9549e94e249f02202f5f30575b2c6b5def6013eb62f5037678d91ebcb79a27db71d45f4a846764c701",
        "029e3ae41385c91d0e0ccb72498126a224d040c25c682b5410f62f06c16233fa0b"
      ],
      "is_coinbase": false,
      "sequence": 4294967295
    },
    {
      "txid": "0271dd1a161f394de6e4cdf5b0c53fb9bcb254c5e7d0458069849ef069d7ab82",
      "vout": 0,
      "prevout": {
        "scriptpubkey": "00141329bc37f82453658fb7f0a982233523c080446a",
        "scriptpubkey_asm": "OP_0 OP_PUSHBYTES_20 1329bc37f82453658fb7f0a982233523c080446a",
        "scriptpubkey_type": "v0_p2wpkh",
        "scriptpubkey_address": "bc1qzv5mcdlcy3fktrah7z5cyge4y0qgq3r23ccteu",
        "value": 317205
      },
      "scriptsig": "",
      "scriptsig_asm": "",
      "witness": [
        "30440220299112b753a4508c9642ac8eb9871efd1e724082b70098086f1ed34564f3cf81022046b8230a64a06bcb1b33038b7fab2779f10fd00c146248852dcec86a591adcfa01",
        "02c96b5653b00466aa7c365818ba6cd8881f07098dda9c6a19df1c0dd314970fe5"
      ],
      "is_coinbase": false,
      "sequence": 4294967295
    }
  ],
  "vout": [
    {
      "scriptpubkey": "76a914090fc00060bad27367b13de75f23e495e328efcb88ac",
      "scriptpubkey_asm": "OP_DUP OP_HASH160 OP_PUSHBYTES_20 090fc00060bad27367b13de75f23e495e328efcb OP_EQUALVERIFY OP_CHECKSIG",
      "scriptpubkey_type": "p2pkh",
      "scriptpubkey_address": "1pux4FaqKA28eKesPWM97iBrdfTvAJKyd",
      "value": 1501093
    }
  ],
  "size": 638,
  "weight": 1262,
  "fee": 4800,
  "status": {
    "confirmed": true,
    "block_height": 834638,
    "block_hash": "000000000000000000025f742c626208ac87e0b7d15054abb4a19ca2d735a54e",
    "block_time": 1710405325
  },
  "hex": "010000000001040f92abf1d4f4d190404d5464c9f505e592c9db5cbcfa45c40385f5ce9b24226e0000000000ffffffff7d372c9503debc1d498f4e06f0f1f4b4c1b954f52bff44c6ae37b8c3a6379e1f0000000000ffffffffecd34c541a98d296905caecb66539ab76122d8fbe3a2ff3f4f09d3727eba24c00000000000ffffffff82abd769f09e84698045d0e7c554b2bcb93fc5b0f5cde4e64d391f161add71020000000000ffffffff01a5e71600000000001976a914090fc00060bad27367b13de75f23e495e328efcb88ac02473044022007897e28d943f57b81cd83c918a6ab71e5d13553e40c319bec65ea9fec96b29f02203ebaa80d7b7fb97626564c165c0c60fd7540f204a40d2d7608e6eb6b373dcf2e012103eb75bef0a085bcfcfbb6198032e9c23774779829e66b30613eed9f59869293650247304402203d6b6edc5e660bead3f983e9f8620838723d248f897e30da2e433217a33b4dab02200e5e79b5d8627dbc5dc65679f0975803ba373bb57d357dd1d642b2eb8408ca480121033f937a0c1c97c1393fef81677e22c62188998350bbd271c53e5dd1c16a1b2fe702473044022024b6d34f814ec61b84c05fd5d9f77ceec32a4e6afed129ca28ca9549e94e249f02202f5f30575b2c6b5def6013eb62f5037678d91ebcb79a27db71d45f4a846764c70121029e3ae41385c91d0e0ccb72498126a224d040c25c682b5410f62f06c16233fa0b024730440220299112b753a4508c9642ac8eb9871efd1e724082b70098086f1ed34564f3cf81022046b8230a64a06bcb1b33038b7fab2779f10fd00c146248852dcec86a591adcfa012102c96b5653b00466aa7c365818ba6cd8881f07098dda9c6a19df1c0dd314970fe500000000"
}