{
  "txid": "6d23245752c483c1818b54975d7edfb6eb2fc2fab6a077738830d6fb8e64e1fd",
  "version": 2,
  "locktime": 0,
  "vin": [
    {
      "txid": "d35f294e0bcbfdceef8fff8ea90c478e7baf19a0fe961995f7567f5d569eb53d",
      "vout": 21,
      "prevout": {
        "scriptpubkey": "00149031343e5c67e069aa40cc98c4ef72763b7183bf",
        "scriptpubkey_asm": "OP_0 OP_PUSHBYTES_20 9031343e5c67e069aa40cc98c4ef72763b7183bf",
        "scriptpubkey_type": "v0_p2wpkh",
        "scriptpubkey_address": "bc1qjqcng0juvlsxn2jqejvvfmmjwcahrqal56snne",
        "value": 345914
      },
      "scriptsig": "",
      "scriptsig_asm": "",
      "witness": [
        "30440220580347ecc2c8384c677e7fc052b72e01a0f26c0105b3d041ce4e88aec50edce402206b70957234e6faa582d464693f2aea36fac3423914a8b769688a7ca38728b40c01",
        "038f6a1738849b662a59dfde5a78c0de290287f510fe7fb2f1fa79261070ff0259"
      ],
      "is_coinbase": false,
      "sequence": 4294967295
    }
  ],
  "vout": [
    {
      "scriptpubkey": "00149031343e5c67e069aa40cc98c4ef72763b7183bf",
      "scriptpubkey_asm": "OP_0 OP_PUSHBYTES_20 9031343e5c67e069aa40cc98c4ef72763b7183bf",
      "scriptpubkey_type": "v0_p2wpkh",
      "scriptpubkey_address": "bc1qjqcng0juvlsxn2jqejvvfmmjwcahrqal56snne",
      "value": 315138
    },
    {
      "scriptpubkey": "512103691642e512652e456cc7803e29f9b9328ec31aecd98a074e77f63b9f2c55794d2103768ecede78f7d1856ecf55bea5b25fbaf12eeddade5d6b0c93b4c1b7cc8c180d2102020202020202020202020202020202020202020202020202020202020202020253ae",
      "scriptpubkey_asm": "OP_PUSHNUM_1 OP_PUSHBYTES_33 03691642e512652e456cc7803e29f9b9328ec31aecd98a074e77f63b9f2c55794d OP_PUSHBYTES_33 03768ecede78f7d1856ecf55bea5b25fbaf12eeddade5d6b0c93b4c1b7cc8c180d OP_PUSHBYTES_33 020202020202020202020202020202020202020202020202020202020202020202 OP_PUSHNUM_3 OP_CHECKMULTISIG",
      "scriptpubkey_type": "unknown",
      "value": 787
    },
    {
      "scriptpubkey": "5121022f8c5debb41741403c304961121888441c40f7493d73ef9d10ac43e6e009c56a2103b959164cebd1f0ba2a99932a99e8b999ddd33df603c153adee4ce5588adbbf9e2102020202020202020202020202020202020202020202020202020202020202020253ae",
      "scriptpubkey_asm": "OP_PUSHNUM_1 OP_PUSHBYTES_33 022f8c5debb41741403c304961121888441c40f7493d73ef9d10ac43e6e009c56a OP_PUSHBYTES_33 03b959164cebd1f0ba2a99932a99e8b999ddd33df603c153adee4ce5588adbbf9e OP_PUSHBYTES_33 020202020202020202020202020202020202020202020202020202020202020202 OP_PUSHNUM_3 OP_CHECKMULTISIG",
      "scriptpubkey_type": "unknown",
      "value": 787
    },
    {
      "scriptpubkey": "0014419854753506f2b3e771860f36eb919d89cc890f",
      "scriptpubkey_asm": "OP_0 OP_PUSHBYTES_20 419854753506f2b3e771860f36eb919d89cc890f",
      "scriptpubkey_type": "v0_p2wpkh",
      "scriptpubkey_address": "bc1qgxv9gaf4qmet8em3sc8nd6u3nkyuezg0cg9p36",
      "value": 12220
    },
    {
      "scriptpubkey": "76a91405a9aded780d8bf0de5e74f3d4768d8b25ffb86d88ac",
      "scriptpubkey_asm": "OP_DUP OP_HASH160 OP_PUSHBYTES_20 05a9aded780d8bf0de5e74f3d4768d8b25ffb86d OP_EQUALVERIFY OP_CHECKSIG",
      "scriptpubkey_type": "p2pkh",
      "scriptpubkey_address": "1WweVUK8kLmSNt6yKKqwVxch3Z7Lw5HAY",
      "value": 2222
    }
  ],
  "size": 484,
  "weight": 1609,
  "fee": 14760,
  "status": {
    "confirmed": true,
    "block_height": 834638,
    "block_hash": "000000000000000000025f742c626208ac87e0b7d15054abb4a19ca2d735a54e",
    "block_time": 1710405325
  },
  "hex": "020000000001013db59e565d7f56f7951996fea019af7b8e470ca98eff8fefcefdcb0b4e295fd31500000000ffffffff0502cf0400000000001600149031343e5c67e069aa40cc98c4ef72763b7183bf130300000000000069512103691642e512652e456cc7803e29f9b9328ec31aecd98a074e77f63b9f2c55794d2103768ecede78f7d1856ecf55bea5b25fbaf12eeddade5d6b0c93b4c1b7cc8c180d2102020202020202020202020202020202020202020202020202020202020202020253ae1303000000000000695121022f8c5debb41741403c304961121888441c40f7493d73ef9d10ac43e6e009c56a2103b959164cebd1f0ba2a99932a99e8b999ddd33df603c153adee4ce5588adbbf9e2102020202020202020202020202020202020202020202020202020202020202020253aebc2f000000000000160014419854753506f2b3e771860f36eb919d89cc890fae080000000000001976a91405a9aded780d8bf0de5e74f3d4768d8b25ffb86d88ac024730440220580347ecc2c8384c677e7fc052b72e01a0f26c0105b3d041ce4e88aec50edce402206b70957234e6faa582d464693f2aea36fac3423914a8b769688a7ca38728b40c0121038f6a1738849b662a59dfde5a78c0de290287f510fe7fb2f1fa79261070ff025900000000"
}