{
  "txid": "6d28b966b27d9e93e6239a9765d980d1be5d56d7443a4bae10e132fe8e66b7f8",
  "version": 1,
  "locktime": 0,
  "vin": [
    {
      "txid": "794808c6f9baa20e69294e2fbab45d2331d9f6accdc95d95cb74f47a3c007c98",
      "vout": 0,
      "prevout": {
        "scriptpubkey": "5120e56b812f350332d10964c0df7ace5af5b3f78e0b45377ee23b0f0e598c713023",
        "scriptpubkey_asm": "OP_PUSHNUM_1 OP_PUSHBYTES_32 e56b812f350332d10964c0df7ace5af5b3f78e0b45377ee23b0f0e598c713023",
        "scriptpubkey_type": "v1_p2tr",
        "scriptpubkey_address": "bc1pu44czte4qvedzztycr0h4nj67kel0rstg5mhac3mpu89nrr3xq3sq9a0qu",
        "value": 2609
      },
      "scriptsig": "",
      "scriptsig_asm": "",
      "witness": [
        "dda925cbcea5bc62132201864402e08262c8edd015e2cbdb4b0119d8215d23579d0fce04926a7c9ad14f693fcaed52542804ffc70f662d644ada3e86957b80af83",
        "20be11f1d0580232188e877ef283eb5a1efd4e9e5290a2633605d666f59ad3fff2ac00630461746f6d03646d743ba16461726773a468626974776f726b6364373934386b6d696e745f7469636b6572647578746f656e6f6e63651a002d17136474696d651a65e329c568",
        "c0be11f1d0580232188e877ef283eb5a1efd4e9e5290a2633605d666f59ad3fff2"
      ],
      "is_coinbase": false,
      "sequence": 4294967293
    }
  ],
  "vout": [
    {
      "scriptpubkey": "51200162fc5baf76bc8d7e2d011c4758250c2685afb5bade114a5cad7dd300abdf67",
      "scriptpubkey_asm": "OP_PUSHNUM_1 OP_PUSHBYTES_32 0162fc5baf76bc8d7e2d011c4758250c2685afb5bade114a5cad7dd300abdf67",
      "scriptpubkey_type": "v1_p2tr",
      "scriptpubkey_address": "bc1pq930cka0w67g6l3dqywywkp9psngtta4ht0pzjju447axq9tmansux5n6z",
      "value": 1000
    }
  ],
  "size": 304,
  "weight": 586,
  "fee": 1609,
  "status": {
    "confirmed": true,
    "block_height": 834464,
    "block_hash": "0000000000000000000177a0869a911a2b65c9bdcd5a8bcb02b68f305bee848e",
    "block_time": 1710308296
  },
  "hex": "01000000000101987c003c7af474cb955dc9cdacf6d931235db4ba2f4e29690ea2baf9c60848790000000000fdffffff01e8030000000000002251200162fc5baf76bc8d7e2d011c4758250c2685afb5bade114a5cad7dd300abdf670341dda925cbcea5bc62132201864402e08262c8edd015e2cbdb4b0119d8215d23579d0fce04926a7c9ad14f693fcaed52542804ffc70f662d644ada3e86957b80af836a20be11f1d0580232188e877ef283eb5a1efd4e9e5290a2633605d666f59ad3fff2ac00630461746f6d03646d743ba16461726773a468626974776f726b6364373934386b6d696e745f7469636b6572647578746f656e6f6e63651a002d17136474696d651a65e329c56821c0be11f1d0580232188e877ef283eb5a1efd4e9e5290a2633605d666f59ad3fff200000000"
}