{
  "txid": "6d2c47bcbb8bd25801d9f03ab7bb4a97c3c0b1818537e293ff226605eacf4fa4",
  "version": 2,
  "locktime": 0,
  "vin": [
    {
      "txid": "4ad816bc2e33d1d7660b411165f6dda104a629db9698571406326be09ad5f55d",
      "vout": 1,
      "prevout": {
        "scriptpubkey": "51200e8e4a53362177d0b9da464a0dc3491374a8ec927063f72381d279b1bac2a068",
        "scriptpubkey_asm": "OP_PUSHNUM_1 OP_PUSHBYTES_32 0e8e4a53362177d0b9da464a0dc3491374a8ec927063f72381d279b1bac2a068",
        "scriptpubkey_type": "v1_p2tr",
        "scriptpubkey_address": "bc1pp68y55eky9mapww6ge9qms6fzd623myjwp3lwgup6fumrwkz5p5qwyk0nd",
        "value": 193488
      },
      "scriptsig": "",
      "scriptsig_asm": "",
      "witness": [
        "8e09ff2b5c4d675e880826efa31a27025ab8aa02923344ea808755bec409f772d866b2fe5f43f9c649a5c4acafa4aa2645b48621e5d6d19d368e893b0bc8d045"
      ],
      "is_coinbase": false,
      "sequence": 2147483649
    },
    {
      "txid": "c684ec094a4aa9f63f4e9be3f1af2924c90df46793aa8d13c975e0e58d972edd",
      "vout": 6,
      "prevout": {
        "scriptpubkey": "51200e8e4a53362177d0b9da464a0dc3491374a8ec927063f72381d279b1bac2a068",
        "scriptpubkey_asm": "OP_PUSHNUM_1 OP_PUSHBYTES_32 0e8e4a53362177d0b9da464a0dc3491374a8ec927063f72381d279b1bac2a068",
        "scriptpubkey_type": "v1_p2tr",
        "scriptpubkey_address": "bc1pp68y55eky9mapww6ge9qms6fzd623myjwp3lwgup6fumrwkz5p5qwyk0nd",
        "value": 42151
      },
      "scriptsig": "",
      "scriptsig_asm": "",
      "witness": [
        "9be690d4c6840ca95a1d3fbd4d169da3ccab9c57b809064a443a73b4ab887c085267cd330d8598ca9c65c40ce46d2aaa42142d06edc8bece74d8573dd5a2c0a0"
      ],
      "is_coinbase": false,
      "sequence": 2147483649
    }
  ],
  "vout": [
    {
      "scriptpubkey": "a91489862da0c64ae916959b0fe75a5f607b5d37254c87",
      "scriptpubkey_asm": "OP_HASH160 OP_PUSHBYTES_20 89862da0c64ae916959b0fe75a5f607b5d37254c OP_EQUAL",
      "scriptpubkey_type": "p2sh",
      "scriptpubkey_address": "3EEBEh57MiwiFinyw7Knfpxn6XvmxExh5h",
      "value": 200000
    },
    {
      "scriptpubkey": "51200e8e4a53362177d0b9da464a0dc3491374a8ec927063f72381d279b1bac2a068",
      "scriptpubkey_asm": "OP_PUSHNUM_1 OP_PUSHBYTES_32 0e8e4a53362177d0b9da464a0dc3491374a8ec927063f72381d279b1bac2a068",
      "scriptpubkey_type": "v1_p2tr",
      "scriptpubkey_address": "bc1pp68y55eky9mapww6ge9qms6fzd623myjwp3lwgup6fumrwkz5p5qwyk0nd",
      "value": 32239
    }
  ],
  "size": 301,
  "weight": 802,
  "fee": 3400,
  "status": {
    "confirmed": true,
    "block_height": 834638,
    "block_hash": "000000000000000000025f742c626208ac87e0b7d15054abb4a19ca2d735a54e",
    "block_time": 1710405325
  },
  "hex": "020000000001025df5d59ae06b320614579896db29a604a1ddf66511410b66d7d1332ebc16d84a010000000001000080dd2e978de5e075c9138daa9367f40dc92429aff1e39b4e3ff6a94a4a09ec84c606000000000100008002400d03000000000017a91489862da0c64ae916959b0fe75a5f607b5d37254c87ef7d0000000000002251200e8e4a53362177d0b9da464a0dc3491374a8ec927063f72381d279b1bac2a06801408e09ff2b5c4d675e880826efa31a27025ab8aa02923344ea808755bec409f772d866b2fe5f43f9c649a5c4acafa4aa2645b48621e5d6d19d368e893b0bc8d04501409be690d4c6840ca95a1d3fbd4d169da3ccab9c57b809064a443a73b4ab887c085267cd330d8598ca9c65c40ce46d2aaa42142d06edc8bece74d8573dd5a2c0a000000000"
}