{
  "txid": "6d2e1a44eb44f5de1d4a9bf675a0242b508f7bfe39d033513eddd9b05af4ffd5",
  "version": 2,
  "locktime": 0,
  "vin": [
    {
      "txid": "c113ea84a8bbd605ef94492d67463889db5e22f8017141557b35b0f5790023be",
      "vout": 3,
      "prevout": {
        "scriptpubkey": "0014e27725ff317aa4f2011157028b93d04ae48fe2fe",
        "scriptpubkey_asm": "OP_0 OP_PUSHBYTES_20 e27725ff317aa4f2011157028b93d04ae48fe2fe",
        "scriptpubkey_type": "v0_p2wpkh",
        "scriptpubkey_address": "bc1qufmjtle302j0yqg32upghy7sftjglch7umur40",
        "value": 236078
      },
      "scriptsig": "",
      "scriptsig_asm": "",
      "witness": [
        "30440220571d661d8fd4288598273badc85c68d3db1a028a3fed71a8b83cb3e5cb2d85d30220182ed3ef68446c74e02b50bf15fb6476a1c12dbf06ce4faf740d40e11876f8d501",
        "02fb4fee8b08d2fb0fdc68e7452dbf082aa64adb92275eb73782bfdbec4f128d68"
      ],
      "is_coinbase": false,
      "sequence": 4294967295
    }
  ],
  "vout": [
    {
      "scriptpubkey": "00145efd30dc1221e98c5d1d30aa74f88debb6a82e8e",
      "scriptpubkey_asm": "OP_0 OP_PUSHBYTES_20 5efd30dc1221e98c5d1d30aa74f88debb6a82e8e",
      "scriptpubkey_type": "v0_p2wpkh",
      "scriptpubkey_address": "bc1qtm7nphqjy85cchgaxz48f7ydawm2st5wzd95ec",
      "value": 333
    },
    {
      "scriptpubkey": "51210282da278d51837a1aaf086d1fc64cf3875fd6bcc0e8118e2ec7431d1bec00cb8d210269d53649cfca1f20c77ddf2fd18e811d8646c245b138ae6936ad1128869535fd2102020202020202020202020202020202020202020202020202020202020202020253ae",
      "scriptpubkey_asm": "OP_PUSHNUM_1 OP_PUSHBYTES_33 0282da278d51837a1aaf086d1fc64cf3875fd6bcc0e8118e2ec7431d1bec00cb8d OP_PUSHBYTES_33 0269d53649cfca1f20c77ddf2fd18e811d8646c245b138ae6936ad1128869535fd OP_PUSHBYTES_33 020202020202020202020202020202020202020202020202020202020202020202 OP_PUSHNUM_3 OP_CHECKMULTISIG",
      "scriptpubkey_type": "unknown",
      "value": 801
    },
    {
      "scriptpubkey": "51210241640107533afe3c99790057fd86a76a8124d49c8535683a12d6e34d196bfbc22102fb67f44ca31de063347f175530f1e62e2225f1e9fd99969d4349af0fe532151c2102020202020202020202020202020202020202020202020202020202020202020253ae",
      "scriptpubkey_asm": "OP_PUSHNUM_1 OP_PUSHBYTES_33 0241640107533afe3c99790057fd86a76a8124d49c8535683a12d6e34d196bfbc2 OP_PUSHBYTES_33 02fb67f44ca31de063347f175530f1e62e2225f1e9fd99969d4349af0fe532151c OP_PUSHBYTES_33 020202020202020202020202020202020202020202020202020202020202020202 OP_PUSHNUM_3 OP_CHECKMULTISIG",
      "scriptpubkey_type": "unknown",
      "value": 801
    },
    {
      "scriptpubkey": "0014e27725ff317aa4f2011157028b93d04ae48fe2fe",
      "scriptpubkey_asm": "OP_0 OP_PUSHBYTES_20 e27725ff317aa4f2011157028b93d04ae48fe2fe",
      "scriptpubkey_type": "v0_p2wpkh",
      "scriptpubkey_address": "bc1qufmjtle302j0yqg32upghy7sftjglch7umur40",
      "value": 217929
    }
  ],
  "size": 450,
  "weight": 1473,
  "fee": 16214,
  "status": {
    "confirmed": true,
    "block_height": 834638,
    "block_hash": "000000000000000000025f742c626208ac87e0b7d15054abb4a19ca2d735a54e",
    "block_time": 1710405325
  },
  "hex": "02000000000101be230079f5b0357b55417101f8225edb893846672d4994ef05d6bba884ea13c10300000000ffffffff044d010000000000001600145efd30dc1221e98c5d1d30aa74f88debb6a82e8e21030000000000006951210282da278d51837a1aaf086d1fc64cf3875fd6bcc0e8118e2ec7431d1bec00cb8d210269d53649cfca1f20c77ddf2fd18e811d8646c245b138ae6936ad1128869535fd2102020202020202020202020202020202020202020202020202020202020202020253ae21030000000000006951210241640107533afe3c99790057fd86a76a8124d49c8535683a12d6e34d196bfbc22102fb67f44ca31de063347f175530f1e62e2225f1e9fd99969d4349af0fe532151c2102020202020202020202020202020202020202020202020202020202020202020253ae4953030000000000160014e27725ff317aa4f2011157028b93d04ae48fe2fe024730440220571d661d8fd4288598273badc85c68d3db1a028a3fed71a8b83cb3e5cb2d85d30220182ed3ef68446c74e02b50bf15fb6476a1c12dbf06ce4faf740d40e11876f8d5012102fb4fee8b08d2fb0fdc68e7452dbf082aa64adb92275eb73782bfdbec4f128d6800000000"
}