{
  "txid": "6d30507262e858d7416dd6378d8af77c1948f0b411bce1a268dcd34300f4ec9b",
  "version": 1,
  "locktime": 0,
  "vin": [
    {
      "txid": "12404ed8c8d7fea03da4eb7d48dd7e0e44fbb8238e26a4ce38f82a7908c08b81",
      "vout": 0,
      "prevout": {
        "scriptpubkey": "5120ea26a73b838480d27149e8cd77e48a3ef85e2fdf4ab6b27b1d8512adc61d37a9",
        "scriptpubkey_asm": "OP_PUSHNUM_1 OP_PUSHBYTES_32 ea26a73b838480d27149e8cd77e48a3ef85e2fdf4ab6b27b1d8512adc61d37a9",
        "scriptpubkey_type": "v1_p2tr",
        "scriptpubkey_address": "bc1pagn2wwursjqdyu2farxh0ey28mu9ut7lf2mty7cas5f2m3sax75sgnpdux",
        "value": 2889
      },
      "scriptsig": "",
      "scriptsig_asm": "",
      "witness": [
        "c8285decab34bf99fb44ecf3a7821694ff7b9157c08b21511e893ab105f20a22b19ee2f7a8d4511a48cc4645d732f52adea1c93c941dfe90bf70a7f4d34e9035",
        "20dfa7325ed77fab28d796d113dcead29a7490c58aaa244f71cf02d52f6b761081ac00630461746f6d03646d7437a16461726773a46474696d651a65ee4d31656e6f6e63650068626974776f726b6364313234306b6d696e745f7469636b657264766d707868",
        "c0dfa7325ed77fab28d796d113dcead29a7490c58aaa244f71cf02d52f6b761081"
      ],
      "is_coinbase": false,
      "sequence": 0
    }
  ],
  "vout": [
    {
      "scriptpubkey": "5120a1e3352d215c371d7181ba45cba88085be161f72f0fb432c6eb5c59fa438eb97",
      "scriptpubkey_asm": "OP_PUSHNUM_1 OP_PUSHBYTES_32 a1e3352d215c371d7181ba45cba88085be161f72f0fb432c6eb5c59fa438eb97",
      "scriptpubkey_type": "v1_p2tr",
      "scriptpubkey_address": "bc1p583n2tfptsm36uvphfzuh2yqsklpv8mj7ra5xtrwkhzelfpcawtswnzule",
      "value": 1000
    }
  ],
  "size": 299,
  "weight": 581,
  "fee": 1889,
  "status": {
    "confirmed": true,
    "block_height": 834464,
    "block_hash": "0000000000000000000177a0869a911a2b65c9bdcd5a8bcb02b68f305bee848e",
    "block_time": 1710308296
  },
  "hex": "01000000000101818bc008792af838cea4268e23b8fb440e7edd487deba43da0fed7c8d84e401200000000000000000001e803000000000000225120a1e3352d215c371d7181ba45cba88085be161f72f0fb432c6eb5c59fa438eb970340c8285decab34bf99fb44ecf3a7821694ff7b9157c08b21511e893ab105f20a22b19ee2f7a8d4511a48cc4645d732f52adea1c93c941dfe90bf70a7f4d34e90356620dfa7325ed77fab28d796d113dcead29a7490c58aaa244f71cf02d52f6b761081ac00630461746f6d03646d7437a16461726773a46474696d651a65ee4d31656e6f6e63650068626974776f726b6364313234306b6d696e745f7469636b657264766d70786821c0dfa7325ed77fab28d796d113dcead29a7490c58aaa244f71cf02d52f6b76108100000000"
}