{
  "txid": "6d4e4e71a78872cde6ab7565db7acbf89d79df8adaab44f070fad17e31bb813f",
  "version": 1,
  "locktime": 0,
  "vin": [
    {
      "txid": "3e6152bbfa467d185f9ee7f497c9171acc046738b3dfc5c813c68990497ee4b1",
      "vout": 3,
      "prevout": {
        "scriptpubkey": "001493d500bcd161e67026b70069f60343b99ac81ea1",
        "scriptpubkey_asm": "OP_0 OP_PUSHBYTES_20 93d500bcd161e67026b70069f60343b99ac81ea1",
        "scriptpubkey_type": "v0_p2wpkh",
        "scriptpubkey_address": "bc1qj02sp0x3v8n8qf4hqp5lvq6rhxdvs84p2fxwns",
        "value": 155376458
      },
      "scriptsig": "",
      "scriptsig_asm": "",
      "witness": [
        "304402200b398c75633a5900a9527d18b29607220f938f33d5f45475134628086b7058e202203a6229268bf5862d5c04894455513572f03df18d492378e84cec4f5406ef051701",
        "02ff2b20298fe4588b1a73b09aff02d7b21ecf857ecc18156fe87a013211654136"
      ],
      "is_coinbase": false,
      "sequence": 4294967295
    }
  ],
  "vout": [
    {
      "scriptpubkey": "0014a637222ff926c683140dd7057c08d257ab842e5c",
      "scriptpubkey_asm": "OP_0 OP_PUSHBYTES_20 a637222ff926c683140dd7057c08d257ab842e5c",
      "scriptpubkey_type": "v0_p2wpkh",
      "scriptpubkey_address": "bc1q5cmjytleymrgx9qd6uzhczxj274cgtjul4m7aw",
      "value": 155373488
    }
  ],
  "size": 191,
  "weight": 437,
  "fee": 2970,
  "status": {
    "confirmed": true,
    "block_height": 834552,
    "block_hash": "00000000000000000001dd0468a70c94f619251d286585cff57aeb4bd9ede330",
    "block_time": 1710355598
  },
  "hex": "01000000000101b1e47e499089c613c8c5dfb3386704cc1a17c997f4e79e5f187d46fabb52613e0300000000ffffffff01b0cf420900000000160014a637222ff926c683140dd7057c08d257ab842e5c0247304402200b398c75633a5900a9527d18b29607220f938f33d5f45475134628086b7058e202203a6229268bf5862d5c04894455513572f03df18d492378e84cec4f5406ef0517012102ff2b20298fe4588b1a73b09aff02d7b21ecf857ecc18156fe87a01321165413600000000"
}