{
  "txid": "6d52c8c6a45f5ad8984183d9296bddaffc4c2cecf02a3072030cc7aefa909e0f",
  "version": 2,
  "locktime": 0,
  "vin": [
    {
      "txid": "d585f8001b0a5801219a9d0a6712ba62014bd40d0f8300b2659b33151db1d6bd",
      "vout": 3,
      "prevout": {
        "scriptpubkey": "5120fc9a70a1fb5eb094313a0048c3f69af264317fe3edb06700c6153cce031b5037",
        "scriptpubkey_asm": "OP_PUSHNUM_1 OP_PUSHBYTES_32 fc9a70a1fb5eb094313a0048c3f69af264317fe3edb06700c6153cce031b5037",
        "scriptpubkey_type": "v1_p2tr",
        "scriptpubkey_address": "bc1pljd8pg0mt6cfgvf6qpyv8a567fjrzllrakcxwqxxz57vuqcm2qmse5u9qg",
        "value": 600
      },
      "scriptsig": "",
      "scriptsig_asm": "",
      "witness": [
        "cd9302ca4de8568fdb7d35372e63bc2f906dfa44db1ac8a5d57b6b7b4bb777bc6052d790b761756922934ea65014c289734ffaef6858899cddb63c67e457aca9"
      ],
      "is_coinbase": false,
      "sequence": 4294967295
    },
    {
      "txid": "d585f8001b0a5801219a9d0a6712ba62014bd40d0f8300b2659b33151db1d6bd",
      "vout": 4,
      "prevout": {
        "scriptpubkey": "5120fc9a70a1fb5eb094313a0048c3f69af264317fe3edb06700c6153cce031b5037",
        "scriptpubkey_asm": "OP_PUSHNUM_1 OP_PUSHBYTES_32 fc9a70a1fb5eb094313a0048c3f69af264317fe3edb06700c6153cce031b5037",
        "scriptpubkey_type": "v1_p2tr",
        "scriptpubkey_address": "bc1pljd8pg0mt6cfgvf6qpyv8a567fjrzllrakcxwqxxz57vuqcm2qmse5u9qg",
        "value": 600
      },
      "scriptsig": "",
      "scriptsig_asm": "",
      "witness": [
        "98abce3fa0b517104c8bc6ca11dc79b2c19a692c35389e399376ee0a5d365af077db62e9f494118cd928b66ad6d260d470090f6b230e64c6824ee1f6e4f7adfd"
      ],
      "is_coinbase": false,
      "sequence": 4294967295
    },
    {
      "txid": "ae27283326505716ab681a444669ddcee5252434a7d7d53b6bf1636b592aa7e0",
      "vout": 0,
      "prevout": {
        "scriptpubkey": "51203d6fc2fa9fd1d89ac93f151fb5514e39922ba4076781910b006639889fb6c967",
        "scriptpubkey_asm": "OP_PUSHNUM_1 OP_PUSHBYTES_32 3d6fc2fa9fd1d89ac93f151fb5514e39922ba4076781910b006639889fb6c967",
        "scriptpubkey_type": "v1_p2tr",
        "scriptpubkey_address": "bc1p84hu975l68vf4jflz50m252w8xfzhfq8v7qezzcqvcuc38ake9nsrtfnk7",
        "value": 546
      },
      "scriptsig": "",
      "scriptsig_asm": "",
      "witness": [
        "5c0134499769524a893409a4ea9b0245f38124d85289a296767dec371ddff5a5c5f500064c0ab8c9371b863030737f26f4d5e1a692ed52e93eb229ba43d82f9583"
      ],
      "is_coinbase": false,
      "sequence": 4294967295
    },
    {
      "txid": "38b9d961cb3dde65ea66dbe285767fc8ca5be7815c3a6ce1115899741593d616",
      "vout": 15,
      "prevout": {
        "scriptpubkey": "5120fc9a70a1fb5eb094313a0048c3f69af264317fe3edb06700c6153cce031b5037",
        "scriptpubkey_asm": "OP_PUSHNUM_1 OP_PUSHBYTES_32 fc9a70a1fb5eb094313a0048c3f69af264317fe3edb06700c6153cce031b5037",
        "scriptpubkey_type": "v1_p2tr",
        "scriptpubkey_address": "bc1pljd8pg0mt6cfgvf6qpyv8a567fjrzllrakcxwqxxz57vuqcm2qmse5u9qg",
        "value": 4323665
      },
      "scriptsig": "",
      "scriptsig_asm": "",
      "witness": [
        "18719f8cef86dffe318ae75628039dea69fc6cdb898f87112ff946245a16fb985d842553ff09bfbb5f34a3dfec5517b7506708f8b2c3540c5de0801c40d92ee3"
      ],
      "is_coinbase": false,
      "sequence": 4294967295
    }
  ],
  "vout": [
    {
      "scriptpubkey": "5120fc9a70a1fb5eb094313a0048c3f69af264317fe3edb06700c6153cce031b5037",
      "scriptpubkey_asm": "OP_PUSHNUM_1 OP_PUSHBYTES_32 fc9a70a1fb5eb094313a0048c3f69af264317fe3edb06700c6153cce031b5037",
      "scriptpubkey_type": "v1_p2tr",
      "scriptpubkey_address": "bc1pljd8pg0mt6cfgvf6qpyv8a567fjrzllrakcxwqxxz57vuqcm2qmse5u9qg",
      "value": 1200
    },
    {
      "scriptpubkey": "5120fc9a70a1fb5eb094313a0048c3f69af264317fe3edb06700c6153cce031b5037",
      "scriptpubkey_asm": "OP_PUSHNUM_1 OP_PUSHBYTES_32 fc9a70a1fb5eb094313a0048c3f69af264317fe3edb06700c6153cce031b5037",
      "scriptpubkey_type": "v1_p2tr",
      "scriptpubkey_address": "bc1pljd8pg0mt6cfgvf6qpyv8a567fjrzllrakcxwqxxz57vuqcm2qmse5u9qg",
      "value": 546
    },
    {
      "scriptpubkey": "51203d6fc2fa9fd1d89ac93f151fb5514e39922ba4076781910b006639889fb6c967",
      "scriptpubkey_asm": "OP_PUSHNUM_1 OP_PUSHBYTES_32 3d6fc2fa9fd1d89ac93f151fb5514e39922ba4076781910b006639889fb6c967",
      "scriptpubkey_type": "v1_p2tr",
      "scriptpubkey_address": "bc1p84hu975l68vf4jflz50m252w8xfzhfq8v7qezzcqvcuc38ake9nsrtfnk7",
      "value": 1950000
    },
    {
      "scriptpubkey": "5120fc9a70a1fb5eb094313a0048c3f69af264317fe3edb06700c6153cce031b5037",
      "scriptpubkey_asm": "OP_PUSHNUM_1 OP_PUSHBYTES_32 fc9a70a1fb5eb094313a0048c3f69af264317fe3edb06700c6153cce031b5037",
      "scriptpubkey_type": "v1_p2tr",
      "scriptpubkey_address": "bc1pljd8pg0mt6cfgvf6qpyv8a567fjrzllrakcxwqxxz57vuqcm2qmse5u9qg",
      "value": 600
    },
    {
      "scriptpubkey": "5120fc9a70a1fb5eb094313a0048c3f69af264317fe3edb06700c6153cce031b5037",
      "scriptpubkey_asm": "OP_PUSHNUM_1 OP_PUSHBYTES_32 fc9a70a1fb5eb094313a0048c3f69af264317fe3edb06700c6153cce031b5037",
      "scriptpubkey_type": "v1_p2tr",
      "scriptpubkey_address": "bc1pljd8pg0mt6cfgvf6qpyv8a567fjrzllrakcxwqxxz57vuqcm2qmse5u9qg",
      "value": 600
    },
    {
      "scriptpubkey": "5120fc9a70a1fb5eb094313a0048c3f69af264317fe3edb06700c6153cce031b5037",
      "scriptpubkey_asm": "OP_PUSHNUM_1 OP_PUSHBYTES_32 fc9a70a1fb5eb094313a0048c3f69af264317fe3edb06700c6153cce031b5037",
      "scriptpubkey_type": "v1_p2tr",
      "scriptpubkey_address": "bc1pljd8pg0mt6cfgvf6qpyv8a567fjrzllrakcxwqxxz57vuqcm2qmse5u9qg",
      "value": 2363982
    }
  ],
  "size": 699,
  "weight": 1995,
  "fee": 8483,
  "status": {
    "confirmed": true,
    "block_height": 834638,
    "block_hash": "000000000000000000025f742c626208ac87e0b7d15054abb4a19ca2d735a54e",
    "block_time": 1710405325
  },
  "hex": "02000000000104bdd6b11d15339b65b200830f0dd44b0162ba12670a9d9a2101580a1b00f885d50300000000ffffffffbdd6b11d15339b65b200830f0dd44b0162ba12670a9d9a2101580a1b00f885d50400000000ffffffffe0a72a596b63f16b3bd5d7a7342425e5cedd6946441a68ab16575026332827ae0000000000ffffffff16d6931574995811e16c3a5c81e75bcac87f7685e2db66ea65de3dcb61d9b9380f00000000ffffffff06b004000000000000225120fc9a70a1fb5eb094313a0048c3f69af264317fe3edb06700c6153cce031b50372202000000000000225120fc9a70a1fb5eb094313a0048c3f69af264317fe3edb06700c6153cce031b503730c11d00000000002251203d6fc2fa9fd1d89ac93f151fb5514e39922ba4076781910b006639889fb6c9675802000000000000225120fc9a70a1fb5eb094313a0048c3f69af264317fe3edb06700c6153cce031b50375802000000000000225120fc9a70a1fb5eb094313a0048c3f69af264317fe3edb06700c6153cce031b50374e12240000000000225120fc9a70a1fb5eb094313a0048c3f69af264317fe3edb06700c6153cce031b50370140cd9302ca4de8568fdb7d35372e63bc2f906dfa44db1ac8a5d57b6b7b4bb777bc6052d790b761756922934ea65014c289734ffaef6858899cddb63c67e457aca9014098abce3fa0b517104c8bc6ca11dc79b2c19a692c35389e399376ee0a5d365af077db62e9f494118cd928b66ad6d260d470090f6b230e64c6824ee1f6e4f7adfd01415c0134499769524a893409a4ea9b0245f38124d85289a296767dec371ddff5a5c5f500064c0ab8c9371b863030737f26f4d5e1a692ed52e93eb229ba43d82f9583014018719f8cef86dffe318ae75628039dea69fc6cdb898f87112ff946245a16fb985d842553ff09bfbb5f34a3dfec5517b7506708f8b2c3540c5de0801c40d92ee300000000"
}