{
  "txid": "6d557ac25a515f93e19b5fc3e23a6a39c2bdd9784f728f34429dadfeac1c5c11",
  "version": 2,
  "locktime": 0,
  "vin": [
    {
      "txid": "8486ecb4df0880316dd6e82b3971b4df187aff23765bc3a47f8d78bb53aa273c",
      "vout": 106,
      "prevout": {
        "scriptpubkey": "5120cda7a2613ff7373b26305354f9163e1e0edce8dca76fda36a737c5723e9a738c",
        "scriptpubkey_asm": "OP_PUSHNUM_1 OP_PUSHBYTES_32 cda7a2613ff7373b26305354f9163e1e0edce8dca76fda36a737c5723e9a738c",
        "scriptpubkey_type": "v1_p2tr",
        "scriptpubkey_address": "bc1pekn6ycfl7umnkf3s2d20j937rc8de6xu5aha5d48xlzhy056wwxqe0czvw",
        "value": 2575
      },
      "scriptsig": "",
      "scriptsig_asm": "",
      "witness": [
        "669a7c5e6cc88407ea48f9a47d689bf2ca59d1369bd7d30bad6c7aa4b2c8a3bb20704c5054d816bd9b91aef5ec31fdbad6d2949594558c45012bb75b894c0eb2",
        "20ae434ef2ed85e83591d0f7d9f93952f7b3db2150ddbb2d7d9d2eb8f3d046f5a9ac0063036f726401010a746578742f706c61696e00367b2270223a226272632d3230222c226f70223a226d696e74222c227469636b223a2261616161222c22616d74223a223130303030227d68",
        "c0ae434ef2ed85e83591d0f7d9f93952f7b3db2150ddbb2d7d9d2eb8f3d046f5a9"
      ],
      "is_coinbase": false,
      "sequence": 4261412863
    }
  ],
  "vout": [
    {
      "scriptpubkey": "0014ddd7ef12ea6f78edcc1e8e7afa12c01ab59f3339",
      "scriptpubkey_asm": "OP_0 OP_PUSHBYTES_20 ddd7ef12ea6f78edcc1e8e7afa12c01ab59f3339",
      "scriptpubkey_type": "v0_p2wpkh",
      "scriptpubkey_address": "bc1qmht77yh2dauwmnq73ea05ykqr26e7veea8spz6",
      "value": 546
    }
  ],
  "size": 295,
  "weight": 541,
  "fee": 2029,
  "status": {
    "confirmed": true,
    "block_height": 834460,
    "block_hash": "00000000000000000000484a79b643b2524bbce82e5d8a442013fa5b8905ed98",
    "block_time": 1710307468
  },
  "hex": "020000000001013c27aa53bb788d7fa4c35b7623ff7a18dfb471392be8d66d318008dfb4ec86846a00000000fffffffd012202000000000000160014ddd7ef12ea6f78edcc1e8e7afa12c01ab59f33390340669a7c5e6cc88407ea48f9a47d689bf2ca59d1369bd7d30bad6c7aa4b2c8a3bb20704c5054d816bd9b91aef5ec31fdbad6d2949594558c45012bb75b894c0eb26e20ae434ef2ed85e83591d0f7d9f93952f7b3db2150ddbb2d7d9d2eb8f3d046f5a9ac0063036f726401010a746578742f706c61696e00367b2270223a226272632d3230222c226f70223a226d696e74222c227469636b223a2261616161222c22616d74223a223130303030227d6821c0ae434ef2ed85e83591d0f7d9f93952f7b3db2150ddbb2d7d9d2eb8f3d046f5a900000000"
}