{
  "txid": "6d591ee06e1d68699f42802480d586fbd988ab6abd7b911cff06b307a0aa7e69",
  "version": 1,
  "locktime": 0,
  "vin": [
    {
      "txid": "279602c64c3357ca558454b927d74b578ff889c881dc2db6fddaaa3438672b90",
      "vout": 0,
      "prevout": {
        "scriptpubkey": "76a914bf040a30433591a93522c4ad4d497c0962be223c88ac",
        "scriptpubkey_asm": "OP_DUP OP_HASH160 OP_PUSHBYTES_20 bf040a30433591a93522c4ad4d497c0962be223c OP_EQUALVERIFY OP_CHECKSIG",
        "scriptpubkey_type": "p2pkh",
        "scriptpubkey_address": "1JQzuL8KEERAAbn8bzat55PU6HAnLuQwAn",
        "value": 39531079
      },
      "scriptsig": "483045022100becaeb78cfaced03aeed893ae7ec21aefd15d7c4f5c2aff938283b56a2bc908f022027379fd5476984bd287fdbb9369b2b06d6055f1830307122c5d92dc1c09a38150121025916f69e5dc6e18af6a9a6ba5ec37f6d51f015f4eeafdfa0f618509e8aae2d68",
      "scriptsig_asm": "OP_PUSHBYTES_72 3045022100becaeb78cfaced03aeed893ae7ec21aefd15d7c4f5c2aff938283b56a2bc908f022027379fd5476984bd287fdbb9369b2b06d6055f1830307122c5d92dc1c09a381501 OP_PUSHBYTES_33 025916f69e5dc6e18af6a9a6ba5ec37f6d51f015f4eeafdfa0f618509e8aae2d68",
      "is_coinbase": false,
      "sequence": 4294967295
    }
  ],
  "vout": [
    {
      "scriptpubkey": "a914f8d504cbb8da82ceca5e37b9415fae49f5cabeb787",
      "scriptpubkey_asm": "OP_HASH160 OP_PUSHBYTES_20 f8d504cbb8da82ceca5e37b9415fae49f5cabeb7 OP_EQUAL",
      "scriptpubkey_type": "p2sh",
      "scriptpubkey_address": "3QNigvF2mhYGvcpxBLPFpHNeW7eAVABHyi",
      "value": 39527200
    }
  ],
  "size": 190,
  "weight": 760,
  "fee": 3879,
  "status": {
    "confirmed": true,
    "block_height": 834638,
    "block_hash": "000000000000000000025f742c626208ac87e0b7d15054abb4a19ca2d735a54e",
    "block_time": 1710405325
  },
  "hex": "0100000001902b673834aadafdb62ddc81c889f88f574bd727b9548455ca57334cc6029627000000006b483045022100becaeb78cfaced03aeed893ae7ec21aefd15d7c4f5c2aff938283b56a2bc908f022027379fd5476984bd287fdbb9369b2b06d6055f1830307122c5d92dc1c09a38150121025916f69e5dc6e18af6a9a6ba5ec37f6d51f015f4eeafdfa0f618509e8aae2d68ffffffff0120235b020000000017a914f8d504cbb8da82ceca5e37b9415fae49f5cabeb78700000000"
}