{
  "txid": "6d6fa8fa6a2d20c046ffb2cbd5d046885f1e9d199b630a672f4a5a6b0ed0eadd",
  "version": 1,
  "locktime": 0,
  "vin": [
    {
      "txid": "b11712eaff451604a184e0d5d587c4527f907d7b29a9805f7a9052936bac83ab",
      "vout": 0,
      "prevout": {
        "scriptpubkey": "0014705bbc743a41341acfdb84059e6fd3bf503fe2ad",
        "scriptpubkey_asm": "OP_0 OP_PUSHBYTES_20 705bbc743a41341acfdb84059e6fd3bf503fe2ad",
        "scriptpubkey_type": "v0_p2wpkh",
        "scriptpubkey_address": "bc1qwpdmcap6gy6p4n7msszeum7nhagrlc4d249yvm",
        "value": 13637
      },
      "scriptsig": "",
      "scriptsig_asm": "",
      "witness": [
        "304402200360f8deda40793f1e2b87f78461ec045c7a25e72236d3ae34228860c7fae3ab02205591eb20f550a40ee221bea46aafdf328af2f947109e89a39fe49e7c5448df4e01",
        "0298d221d1fce99906b431ce5e2275f19372d73b5e36d813c5e367c84a56c8fdce"
      ],
      "is_coinbase": false,
      "sequence": 4294967295
    },
    {
      "txid": "0ca2dc58824c61ed858c4a889ecb9a89c822235b5249b850f6dd323b73c020b1",
      "vout": 46,
      "prevout": {
        "scriptpubkey": "0014ede6eb755689625accd38e31fe41ee2a1e3d51ef",
        "scriptpubkey_asm": "OP_0 OP_PUSHBYTES_20 ede6eb755689625accd38e31fe41ee2a1e3d51ef",
        "scriptpubkey_type": "v0_p2wpkh",
        "scriptpubkey_address": "bc1qahnwka2k39394nxn3cclus0w9g0r65009hdh46",
        "value": 264970
      },
      "scriptsig": "",
      "scriptsig_asm": "",
      "witness": [
        "3044022044c69330d390b565875ed3ecb9ef296568c5395cbe9ef3cab552c7ea3706c06b02205e75dc6606100de1778f471df64561af1c55f72bebf2f30bbae82ec8296a963f01",
        "02faa3bd09ef3b61621057249e021bf15e0856b0858912af150ddadb809afc3047"
      ],
      "is_coinbase": false,
      "sequence": 4294967295
    },
    {
      "txid": "0ca2dc58824c61ed858c4a889ecb9a89c822235b5249b850f6dd323b73c020b1",
      "vout": 41,
      "prevout": {
        "scriptpubkey": "0014da155fd444d1ae259691d031d54d61e01c3171a5",
        "scriptpubkey_asm": "OP_0 OP_PUSHBYTES_20 da155fd444d1ae259691d031d54d61e01c3171a5",
        "scriptpubkey_type": "v0_p2wpkh",
        "scriptpubkey_address": "bc1qmg24l4zy6xhzt9536qca2ntpuqwrzud9j66v5n",
        "value": 2554837
      },
      "scriptsig": "",
      "scriptsig_asm": "",
      "witness": [
        "3045022100950a66b3cefc2f06f7410ea4ab69ebc02af2c653be0995e1d1f8972518ad0594022025f7681aadbb387ffb8434aa855e0f47dcabadb4ee024edc6b07578f24f87bec01",
        "032b1621a80c8fb8d7d831d75f09289474ffc6097969fbc4b5a164673bf01ba80f"
      ],
      "is_coinbase": false,
      "sequence": 4294967295
    }
  ],
  "vout": [
    {
      "scriptpubkey": "001442faaad646812b1c36bad1e0e60a758582cd9c15",
      "scriptpubkey_asm": "OP_0 OP_PUSHBYTES_20 42faaad646812b1c36bad1e0e60a758582cd9c15",
      "scriptpubkey_type": "v0_p2wpkh",
      "scriptpubkey_address": "bc1qgta244jxsy43cd4668swvzn4skpvm8q46g80j6",
      "value": 850637
    },
    {
      "scriptpubkey": "001424c8881db1970b80f3650e43bb96a0b53cb4ebc1",
      "scriptpubkey_asm": "OP_0 OP_PUSHBYTES_20 24c8881db1970b80f3650e43bb96a0b53cb4ebc1",
      "scriptpubkey_type": "v0_p2wpkh",
      "scriptpubkey_address": "bc1qynygs8d3ju9cpum9pepmh94qk57tf67paka78g",
      "value": 1978153
    }
  ],
  "size": 519,
  "weight": 1104,
  "fee": 4654,
  "status": {
    "confirmed": true,
    "block_height": 834638,
    "block_hash": "000000000000000000025f742c626208ac87e0b7d15054abb4a19ca2d735a54e",
    "block_time": 1710405325
  },
  "hex": "01000000000103ab83ac6b9352907a5f80a9297b7d907f52c487d5d5e084a1041645ffea1217b10000000000ffffffffb120c0733b32ddf650b849525b2322c8899acb9e884a8c85ed614c8258dca20c2e00000000ffffffffb120c0733b32ddf650b849525b2322c8899acb9e884a8c85ed614c8258dca20c2900000000ffffffff02cdfa0c000000000016001442faaad646812b1c36bad1e0e60a758582cd9c15292f1e000000000016001424c8881db1970b80f3650e43bb96a0b53cb4ebc10247304402200360f8deda40793f1e2b87f78461ec045c7a25e72236d3ae34228860c7fae3ab02205591eb20f550a40ee221bea46aafdf328af2f947109e89a39fe49e7c5448df4e01210298d221d1fce99906b431ce5e2275f19372d73b5e36d813c5e367c84a56c8fdce02473044022044c69330d390b565875ed3ecb9ef296568c5395cbe9ef3cab552c7ea3706c06b02205e75dc6606100de1778f471df64561af1c55f72bebf2f30bbae82ec8296a963f012102faa3bd09ef3b61621057249e021bf15e0856b0858912af150ddadb809afc304702483045022100950a66b3cefc2f06f7410ea4ab69ebc02af2c653be0995e1d1f8972518ad0594022025f7681aadbb387ffb8434aa855e0f47dcabadb4ee024edc6b07578f24f87bec0121032b1621a80c8fb8d7d831d75f09289474ffc6097969fbc4b5a164673bf01ba80f00000000"
}