{
  "txid": "6d8cf273de3e109d8c173e4dd9cbda220d19bad02e334e709251d96e2006c16a",
  "version": 2,
  "locktime": 0,
  "vin": [
    {
      "txid": "b13bb5512a4904c28a6b7957b88edf574e8cb23551fc1dcfe22d6b239df42cf4",
      "vout": 80,
      "prevout": {
        "scriptpubkey": "51208b375d98422e81783554a97ddb06033ad836e54ec7b38946b8a1c712883f1a8c",
        "scriptpubkey_asm": "OP_PUSHNUM_1 OP_PUSHBYTES_32 8b375d98422e81783554a97ddb06033ad836e54ec7b38946b8a1c712883f1a8c",
        "scriptpubkey_type": "v1_p2tr",
        "scriptpubkey_address": "bc1p3vm4mxzz96qhsd25497akpsr8tvrde2wc7ecj34c58r39zplr2xqfq7298",
        "value": 2575
      },
      "scriptsig": "",
      "scriptsig_asm": "",
      "witness": [
        "999f214ad5638481fc3eefad1a9e358d1350fcf863184eae9051509b68502dfb01b3d58ec9e7bbf5e9291e2a79ea3081e4a8cd4c65dcdb1fcb010d9923ada78c",
        "20e6d84661ae0eb6ab225138f3ef5f4f2e1decc94fcafa8eb82e9440d4962f9426ac0063036f726401010a746578742f706c61696e00367b2270223a226272632d3230222c226f70223a226d696e74222c227469636b223a2261616161222c22616d74223a223130303030227d68",
        "c1e6d84661ae0eb6ab225138f3ef5f4f2e1decc94fcafa8eb82e9440d4962f9426"
      ],
      "is_coinbase": false,
      "sequence": 4261412863
    }
  ],
  "vout": [
    {
      "scriptpubkey": "0014ce0b5aa0dac72397a8aa5a85d90a2cfb46f0f630",
      "scriptpubkey_asm": "OP_0 OP_PUSHBYTES_20 ce0b5aa0dac72397a8aa5a85d90a2cfb46f0f630",
      "scriptpubkey_type": "v0_p2wpkh",
      "scriptpubkey_address": "bc1qec944gx6cu3e0292t2zajz3vldr0pa3sh356d9",
      "value": 546
    }
  ],
  "size": 295,
  "weight": 541,
  "fee": 2029,
  "status": {
    "confirmed": true,
    "block_height": 834464,
    "block_hash": "0000000000000000000177a0869a911a2b65c9bdcd5a8bcb02b68f305bee848e",
    "block_time": 1710308296
  },
  "hex": "02000000000101f42cf49d236b2de2cf1dfc5135b28c4e57df8eb857796b8ac204492a51b53bb15000000000fffffffd012202000000000000160014ce0b5aa0dac72397a8aa5a85d90a2cfb46f0f6300340999f214ad5638481fc3eefad1a9e358d1350fcf863184eae9051509b68502dfb01b3d58ec9e7bbf5e9291e2a79ea3081e4a8cd4c65dcdb1fcb010d9923ada78c6e20e6d84661ae0eb6ab225138f3ef5f4f2e1decc94fcafa8eb82e9440d4962f9426ac0063036f726401010a746578742f706c61696e00367b2270223a226272632d3230222c226f70223a226d696e74222c227469636b223a2261616161222c22616d74223a223130303030227d6821c1e6d84661ae0eb6ab225138f3ef5f4f2e1decc94fcafa8eb82e9440d4962f942600000000"
}