{
  "txid": "6d8f052e2b4e842617c8341c666d10e573f950d009d15610e3b4a297783c26fe",
  "version": 2,
  "locktime": 0,
  "vin": [
    {
      "txid": "16b7d4c6d0f8f124c07ed930f81b3a0fe773e59ed25174fb61490a93f68c6548",
      "vout": 0,
      "prevout": {
        "scriptpubkey": "001467aa40d22c953a70dfce2f58f07836d7b457ec11",
        "scriptpubkey_asm": "OP_0 OP_PUSHBYTES_20 67aa40d22c953a70dfce2f58f07836d7b457ec11",
        "scriptpubkey_type": "v0_p2wpkh",
        "scriptpubkey_address": "bc1qv74yp53vj5a8ph7w9av0q7pk67690mq3d2q897",
        "value": 421047
      },
      "scriptsig": "",
      "scriptsig_asm": "",
      "witness": [
        "3044022009232f9f24b042999edb1cd381684825c73deff9fb77334c926a175b360f36fd02203837fdabb1101c6cec6fe7c4b2e0695050b87422aed0d2debc1712bf0bf2b78601",
        "02b87a71c82a980649daa5e5c99879953afe3df21709004f1abc25890a1be72b16"
      ],
      "is_coinbase": false,
      "sequence": 4294967293
    }
  ],
  "vout": [
    {
      "scriptpubkey": "a914a561ea8185ddc957659e1f646eb0c31a29e6101587",
      "scriptpubkey_asm": "OP_HASH160 OP_PUSHBYTES_20 a561ea8185ddc957659e1f646eb0c31a29e61015 OP_EQUAL",
      "scriptpubkey_type": "p2sh",
      "scriptpubkey_address": "3GmUiXCKecdDeKXybv7MNU5MtA1wyMbDDQ",
      "value": 156137
    },
    {
      "scriptpubkey": "a91492a674a8cc8838e7b73705ac83b37dcda5441c9287",
      "scriptpubkey_asm": "OP_HASH160 OP_PUSHBYTES_20 92a674a8cc8838e7b73705ac83b37dcda5441c92 OP_EQUAL",
      "scriptpubkey_type": "p2sh",
      "scriptpubkey_address": "3F4Rz6WeESNYKeccKvnqWHNua2dtn2sC4f",
      "value": 261764
    }
  ],
  "size": 224,
  "weight": 569,
  "fee": 3146,
  "status": {
    "confirmed": true,
    "block_height": 834638,
    "block_hash": "000000000000000000025f742c626208ac87e0b7d15054abb4a19ca2d735a54e",
    "block_time": 1710405325
  },
  "hex": "0200000000010148658cf6930a4961fb7451d29ee573e70f3a1bf830d97ec024f1f8d0c6d4b7160000000000fdffffff02e96102000000000017a914a561ea8185ddc957659e1f646eb0c31a29e610158784fe03000000000017a91492a674a8cc8838e7b73705ac83b37dcda5441c928702473044022009232f9f24b042999edb1cd381684825c73deff9fb77334c926a175b360f36fd02203837fdabb1101c6cec6fe7c4b2e0695050b87422aed0d2debc1712bf0bf2b786012102b87a71c82a980649daa5e5c99879953afe3df21709004f1abc25890a1be72b1600000000"
}