{
  "txid": "6d9938d20e092e89c5c8b10d9cd9f1eae24a3b780babeb0492ff0f7fc63fdac9",
  "version": 2,
  "locktime": 0,
  "vin": [
    {
      "txid": "4ee77778659dcfe8d7a4e15882fc6193f4f3d5f6607624e256337b44c2280af5",
      "vout": 93,
      "prevout": {
        "scriptpubkey": "5120461cfd28cc6aa7fdb3efbf3732dd2585ac555922dd807b2411ee7b0a3680186f",
        "scriptpubkey_asm": "OP_PUSHNUM_1 OP_PUSHBYTES_32 461cfd28cc6aa7fdb3efbf3732dd2585ac555922dd807b2411ee7b0a3680186f",
        "scriptpubkey_type": "v1_p2tr",
        "scriptpubkey_address": "bc1pgcw062xvd2nlmvl0humn9hf9skk92kfzmkq8kfq3aeas5d5qrphsy2996r",
        "value": 2075
      },
      "scriptsig": "",
      "scriptsig_asm": "",
      "witness": [
        "5bac5f3e5fc7c0686d498a1a777b32dff7f213de607d4713e3530503f79315a66134354da6ad77edd9ed2085e1b77ed18e082229ef37ce147d27b3994abac47c",
        "20b41d067b7015798f730bd13dba32d07cf9261af06923ed590eab62caa81364c2ac0063036f7264010118746578742f706c61696e3b636861727365743d7574662d3800357b2270223a224252432d313030222c226f70223a226d696e74222c227469636b223a22696e73222c22616d74223a2231303030227d68",
        "c1c50eac15d7d7889f5ad84f80015e8a209129aeea937c37fa4b8bc0f9be289730"
      ],
      "is_coinbase": false,
      "sequence": 4294967295
    }
  ],
  "vout": [
    {
      "scriptpubkey": "00143e2325412b554cacdd163a93a42204c4707f8851",
      "scriptpubkey_asm": "OP_0 OP_PUSHBYTES_20 3e2325412b554cacdd163a93a42204c4707f8851",
      "scriptpubkey_type": "v0_p2wpkh",
      "scriptpubkey_address": "bc1q8c3j2sft24x2ehgk82f6ggsyc3c8lzz3yw9wsu",
      "value": 546
    }
  ],
  "size": 308,
  "weight": 554,
  "fee": 1529,
  "status": {
    "confirmed": true,
    "block_height": 834464,
    "block_hash": "0000000000000000000177a0869a911a2b65c9bdcd5a8bcb02b68f305bee848e",
    "block_time": 1710308296
  },
  "hex": "02000000000101f50a28c2447b3356e2247660f6d5f3f49361fc8258e1a4d7e8cf9d657877e74e5d00000000ffffffff0122020000000000001600143e2325412b554cacdd163a93a42204c4707f885103405bac5f3e5fc7c0686d498a1a777b32dff7f213de607d4713e3530503f79315a66134354da6ad77edd9ed2085e1b77ed18e082229ef37ce147d27b3994abac47c7b20b41d067b7015798f730bd13dba32d07cf9261af06923ed590eab62caa81364c2ac0063036f7264010118746578742f706c61696e3b636861727365743d7574662d3800357b2270223a224252432d313030222c226f70223a226d696e74222c227469636b223a22696e73222c22616d74223a2231303030227d6821c1c50eac15d7d7889f5ad84f80015e8a209129aeea937c37fa4b8bc0f9be28973000000000"
}