{
  "txid": "6d9acdd412dc2de67396ad4f1a04f1c529a0235bf1d09f95948d8dce712091d6",
  "version": 2,
  "locktime": 0,
  "vin": [
    {
      "txid": "2309188955a6b273de405a01b8e375b757b2c8f4cc93e224b956839007c8db86",
      "vout": 0,
      "prevout": {
        "scriptpubkey": "a9144cea227f9719fdeccbac9591a2ab2134a141ec9c87",
        "scriptpubkey_asm": "OP_HASH160 OP_PUSHBYTES_20 4cea227f9719fdeccbac9591a2ab2134a141ec9c OP_EQUAL",
        "scriptpubkey_type": "p2sh",
        "scriptpubkey_address": "38hhm6ErrhipcwWVhSfrp4YUFhLRmpMcYJ",
        "value": 2296000
      },
      "scriptsig": "160014a160f8dbf9a9f79452940082f30eaf34ae42a0b9",
      "scriptsig_asm": "OP_PUSHBYTES_22 0014a160f8dbf9a9f79452940082f30eaf34ae42a0b9",
      "witness": [
        "304502210081fd0d028ffa0882e1a94e11b66e612886da490fa48542ec996161aa26e95faf02201f1f368d90faeaf253e24a1a2b212e5d899aecd89788587ccb54a72dfc1d4a9601",
        "032676337c0daaf78dc133a1bc919cd1571bcfc1c06ebedef9044bea2cd71f2d32"
      ],
      "is_coinbase": false,
      "sequence": 4294967295,
      "inner_redeemscript_asm": "OP_0 OP_PUSHBYTES_20 a160f8dbf9a9f79452940082f30eaf34ae42a0b9"
    }
  ],
  "vout": [
    {
      "scriptpubkey": "76a914e3ab9a2b7dc0b79115df9e4719aef68c8d6479f788ac",
      "scriptpubkey_asm": "OP_DUP OP_HASH160 OP_PUSHBYTES_20 e3ab9a2b7dc0b79115df9e4719aef68c8d6479f7 OP_EQUALVERIFY OP_CHECKSIG",
      "scriptpubkey_type": "p2pkh",
      "scriptpubkey_address": "1MkoxgH7QLdSZTrMdL3xwfFsr7DdRqJhgS",
      "value": 2294115
    }
  ],
  "size": 218,
  "weight": 542,
  "fee": 1885,
  "status": {
    "confirmed": true,
    "block_height": 834460,
    "block_hash": "00000000000000000000484a79b643b2524bbce82e5d8a442013fa5b8905ed98",
    "block_time": 1710307468
  },
  "hex": "0200000000010186dbc807908356b924e293ccf4c8b257b775e3b8015a40de73b2a655891809230000000017160014a160f8dbf9a9f79452940082f30eaf34ae42a0b9ffffffff0163012300000000001976a914e3ab9a2b7dc0b79115df9e4719aef68c8d6479f788ac0248304502210081fd0d028ffa0882e1a94e11b66e612886da490fa48542ec996161aa26e95faf02201f1f368d90faeaf253e24a1a2b212e5d899aecd89788587ccb54a72dfc1d4a960121032676337c0daaf78dc133a1bc919cd1571bcfc1c06ebedef9044bea2cd71f2d3200000000"
}