{
  "txid": "6da0c04a0f446599a0c8979dcd6285eb7f9ccc0ea3f9fed5892a14371a31793b",
  "version": 1,
  "locktime": 0,
  "vin": [
    {
      "txid": "8888888554e7bbfcae0dccde98534d69b7017ff7f0d20e39c86d476ed9842df6",
      "vout": 0,
      "prevout": {
        "scriptpubkey": "51202ffc1dbc5788106b40b5c9a20ecb32e079acb9bbbbca3262ec3cef9e286d3b96",
        "scriptpubkey_asm": "OP_PUSHNUM_1 OP_PUSHBYTES_32 2ffc1dbc5788106b40b5c9a20ecb32e079acb9bbbbca3262ec3cef9e286d3b96",
        "scriptpubkey_type": "v1_p2tr",
        "scriptpubkey_address": "bc1p9l7pm0zh3qgxks94ex3qajejupu6ewdmh09rychv8nheu2rd8wtqeazp6h",
        "value": 11627
      },
      "scriptsig": "",
      "scriptsig_asm": "",
      "witness": [
        "fbd16002f3667bfcee7ad51c5c04ebaa26c84e26f3bd22385d015bfa492eda90c5bc6af58a6523b8dd1bb502f51bd5a6daf5f7f4f944deba00578e90d7270cd983",
        "20930d4ffacedaeeda983fbe6875a3f39bad4c323e8346d8dda5652f8cfd9db2eaac00630461746f6d03646d7442a16461726773a468626974776f726b6367383838383838386b6d696e745f7469636b657268696e66696e697479656e6f6e63651a003d92df6474696d651a65dc6f0368",
        "c0930d4ffacedaeeda983fbe6875a3f39bad4c323e8346d8dda5652f8cfd9db2ea"
      ],
      "is_coinbase": false,
      "sequence": 4294967293
    }
  ],
  "vout": [
    {
      "scriptpubkey": "5120bf94882e5d0c036449dc3f1782adc8fe707e6d03ea0ecdd97e048b8da94a44b1",
      "scriptpubkey_asm": "OP_PUSHNUM_1 OP_PUSHBYTES_32 bf94882e5d0c036449dc3f1782adc8fe707e6d03ea0ecdd97e048b8da94a44b1",
      "scriptpubkey_type": "v1_p2tr",
      "scriptpubkey_address": "bc1ph72gstjapspkgjwu8utc9twglec8umgrag8vmkt7qj9cm222gjcsurlt3p",
      "value": 9999
    }
  ],
  "size": 311,
  "weight": 593,
  "fee": 1628,
  "status": {
    "confirmed": true,
    "block_height": 834464,
    "block_hash": "0000000000000000000177a0869a911a2b65c9bdcd5a8bcb02b68f305bee848e",
    "block_time": 1710308296
  },
  "hex": "01000000000101f62d84d96e476dc8390ed2f0f77f01b7694d5398decc0daefcbbe754858888880000000000fdffffff010f27000000000000225120bf94882e5d0c036449dc3f1782adc8fe707e6d03ea0ecdd97e048b8da94a44b10341fbd16002f3667bfcee7ad51c5c04ebaa26c84e26f3bd22385d015bfa492eda90c5bc6af58a6523b8dd1bb502f51bd5a6daf5f7f4f944deba00578e90d7270cd9837120930d4ffacedaeeda983fbe6875a3f39bad4c323e8346d8dda5652f8cfd9db2eaac00630461746f6d03646d7442a16461726773a468626974776f726b6367383838383838386b6d696e745f7469636b657268696e66696e697479656e6f6e63651a003d92df6474696d651a65dc6f036821c0930d4ffacedaeeda983fbe6875a3f39bad4c323e8346d8dda5652f8cfd9db2ea00000000"
}