{
  "txid": "6da086fb73167e54767d266fe80d9860b10a80065e970dd85873395e013bfcda",
  "version": 2,
  "locktime": 0,
  "vin": [
    {
      "txid": "63ae3f28afd5d0a929109d69e6dd14c64a5f88e60465d97a08caa06060e15e8f",
      "vout": 36,
      "prevout": {
        "scriptpubkey": "512046052d795f6715ee701b86c5fd1fd8be3802ac47ef8dc52886aec9c78c0fe6ae",
        "scriptpubkey_asm": "OP_PUSHNUM_1 OP_PUSHBYTES_32 46052d795f6715ee701b86c5fd1fd8be3802ac47ef8dc52886aec9c78c0fe6ae",
        "scriptpubkey_type": "v1_p2tr",
        "scriptpubkey_address": "bc1pgczj672lvu27uuqmsmzl687chcuq9tz8a7xu22yx4myu0rq0u6hq4vkpr4",
        "value": 3055
      },
      "scriptsig": "",
      "scriptsig_asm": "",
      "witness": [
        "0c3450bdc4b6a2bc4612484c3a18c3695f63e298b3a6a0753ffdc0fd5cfb3072a7f5eb3bdcf8e1e9d6d5a173ed028d8f85c6f2d2b9607abef77bf9857f7d1366",
        "207268b41f03ea3174c34cbe0dead9577f0bbdf38008b191f99b523f9073480f8dac0063036f726401011e6170706c69636174696f6e2f6a736f6e3b636861727365743d7574662d38004cd37b2270223a22706f772d3230222c226f70223a226d696e74222c227469636b223a2250455045222c22616d74223a2231303030222c22736f6c7574696f6e223a22504550453a626331706a39356d676c663836377961396a32756368377a34647836793635746736373330676e7661796b706b6c77793335757667376a73773033676d713a303030303030303030303030303030303030303139393431613561653132383937363539383134343239323533333030353762306461393666336465613163353a3131353031313331313435227d68",
        "c1ffe2b6185dd514800047a24f9c3d628916daef0b23d9f98ab4cda2a0457a18d1"
      ],
      "is_coinbase": false,
      "sequence": 4294967295
    }
  ],
  "vout": [
    {
      "scriptpubkey": "51209169b47d27d789d2c95cc5fc2ab4da26a8b46bd17a26ce92c1b7dc48d38c47a5",
      "scriptpubkey_asm": "OP_PUSHNUM_1 OP_PUSHBYTES_32 9169b47d27d789d2c95cc5fc2ab4da26a8b46bd17a26ce92c1b7dc48d38c47a5",
      "scriptpubkey_type": "v1_p2tr",
      "scriptpubkey_address": "bc1pj95mglf867ya9j2uch7z4dx6y65tg6730gnvaykpklwy35uvg7jsw03gmq",
      "value": 546
    }
  ],
  "size": 487,
  "weight": 769,
  "fee": 2509,
  "status": {
    "confirmed": true,
    "block_height": 834460,
    "block_hash": "00000000000000000000484a79b643b2524bbce82e5d8a442013fa5b8905ed98",
    "block_time": 1710307468
  },
  "hex": "020000000001018f5ee16060a0ca087ad96504e6885f4ac614dde6699d1029a9d0d5af283fae632400000000ffffffff0122020000000000002251209169b47d27d789d2c95cc5fc2ab4da26a8b46bd17a26ce92c1b7dc48d38c47a503400c3450bdc4b6a2bc4612484c3a18c3695f63e298b3a6a0753ffdc0fd5cfb3072a7f5eb3bdcf8e1e9d6d5a173ed028d8f85c6f2d2b9607abef77bf9857f7d1366fd2001207268b41f03ea3174c34cbe0dead9577f0bbdf38008b191f99b523f9073480f8dac0063036f726401011e6170706c69636174696f6e2f6a736f6e3b636861727365743d7574662d38004cd37b2270223a22706f772d3230222c226f70223a226d696e74222c227469636b223a2250455045222c22616d74223a2231303030222c22736f6c7574696f6e223a22504550453a626331706a39356d676c663836377961396a32756368377a34647836793635746736373330676e7661796b706b6c77793335757667376a73773033676d713a303030303030303030303030303030303030303139393431613561653132383937363539383134343239323533333030353762306461393666336465613163353a3131353031313331313435227d6821c1ffe2b6185dd514800047a24f9c3d628916daef0b23d9f98ab4cda2a0457a18d100000000"
}