{
  "txid": "6da137a905515e9eed9f2b7536a89f73f229b7f5ac430ec0bc39c1efafa0a3b1",
  "version": 1,
  "locktime": 0,
  "vin": [
    {
      "txid": "3fdbbac0bd293fa19f7fdcf599270c69e32b56f3e1679e7e1e29335a284d7a2f",
      "vout": 0,
      "prevout": {
        "scriptpubkey": "00145df9e1185b554537af8430e743531ad7e6bf42ad",
        "scriptpubkey_asm": "OP_0 OP_PUSHBYTES_20 5df9e1185b554537af8430e743531ad7e6bf42ad",
        "scriptpubkey_type": "v0_p2wpkh",
        "scriptpubkey_address": "bc1qthu7zxzm24zn0tuyxrn5x5c66lnt7s4daejcnh",
        "value": 600
      },
      "scriptsig": "",
      "scriptsig_asm": "",
      "witness": [
        "30440220023dee8d0f49ab2e42b74841db9a8ef794c407bb8393c5cc73be68071915cde3022023f2d738748b9bb312149c27fa67762b86546a25915be1ba54cb95951ecb5d3701",
        "03789ab1682004cfe054ee6437f79fe03bb4608e9a42be67e560e61b44af3007fc"
      ],
      "is_coinbase": false,
      "sequence": 4294967293
    },
    {
      "txid": "3fdbbac0bd293fa19f7fdcf599270c69e32b56f3e1679e7e1e29335a284d7a2f",
      "vout": 1,
      "prevout": {
        "scriptpubkey": "00145df9e1185b554537af8430e743531ad7e6bf42ad",
        "scriptpubkey_asm": "OP_0 OP_PUSHBYTES_20 5df9e1185b554537af8430e743531ad7e6bf42ad",
        "scriptpubkey_type": "v0_p2wpkh",
        "scriptpubkey_address": "bc1qthu7zxzm24zn0tuyxrn5x5c66lnt7s4daejcnh",
        "value": 600
      },
      "scriptsig": "",
      "scriptsig_asm": "",
      "witness": [
        "3044022024dbfde73c832bb72e2251ea8b60d6c367be15c6da8a7e64db1a660247f531fe02203bcbe89f09329b856b2cbf1d688bbdd71056172734f2c7af4fbad3a4a33b3aad01",
        "03789ab1682004cfe054ee6437f79fe03bb4608e9a42be67e560e61b44af3007fc"
      ],
      "is_coinbase": false,
      "sequence": 4294967293
    },
    {
      "txid": "3df8cd285f2c8cd5eeb7429adf5071592e4194a0751896c3561080fe86e72f1b",
      "vout": 0,
      "prevout": {
        "scriptpubkey": "00145cace071a2636953612aa9fe0e549d45e1f18df9",
        "scriptpubkey_asm": "OP_0 OP_PUSHBYTES_20 5cace071a2636953612aa9fe0e549d45e1f18df9",
        "scriptpubkey_type": "v0_p2wpkh",
        "scriptpubkey_address": "bc1qtjkwqudzvd54xcf248lqu4yaghslrr0e9vvgxa",
        "value": 330
      },
      "scriptsig": "",
      "scriptsig_asm": "",
      "witness": [
        "3044022020d45ed80f68b7e7e100a70a060296a692b6c36747778c1f3a468e78d20a0b940220205aed4ad4e9ca8f2564a183ebca152919fa64d6dd0676ca5ae30e32fb7a6fa083",
        "03338c0332494fdebaa3988434ad9bf4b153d3ca6bc774ab93942ddf6c12495bf1"
      ],
      "is_coinbase": false,
      "sequence": 4294967293
    },
    {
      "txid": "faf0fa0178266c4c17bf66c4e8b8d1b1a4f0cebd54524582114d7d349e5e37e5",
      "vout": 1,
      "prevout": {
        "scriptpubkey": "00145df9e1185b554537af8430e743531ad7e6bf42ad",
        "scriptpubkey_asm": "OP_0 OP_PUSHBYTES_20 5df9e1185b554537af8430e743531ad7e6bf42ad",
        "scriptpubkey_type": "v0_p2wpkh",
        "scriptpubkey_address": "bc1qthu7zxzm24zn0tuyxrn5x5c66lnt7s4daejcnh",
        "value": 160631
      },
      "scriptsig": "",
      "scriptsig_asm": "",
      "witness": [
        "304402205e6091678a0b1fc9f4e799e19be4fc426dc7cdf2349744b6230efc4a7e4ed323022040e1b18e236417155c255487d41983ed272195beb74d2b976c314ac186f41f1501",
        "03789ab1682004cfe054ee6437f79fe03bb4608e9a42be67e560e61b44af3007fc"
      ],
      "is_coinbase": false,
      "sequence": 4294967293
    }
  ],
  "vout": [
    {
      "scriptpubkey": "00145df9e1185b554537af8430e743531ad7e6bf42ad",
      "scriptpubkey_asm": "OP_0 OP_PUSHBYTES_20 5df9e1185b554537af8430e743531ad7e6bf42ad",
      "scriptpubkey_type": "v0_p2wpkh",
      "scriptpubkey_address": "bc1qthu7zxzm24zn0tuyxrn5x5c66lnt7s4daejcnh",
      "value": 1200
    },
    {
      "scriptpubkey": "00145df9e1185b554537af8430e743531ad7e6bf42ad",
      "scriptpubkey_asm": "OP_0 OP_PUSHBYTES_20 5df9e1185b554537af8430e743531ad7e6bf42ad",
      "scriptpubkey_type": "v0_p2wpkh",
      "scriptpubkey_address": "bc1qthu7zxzm24zn0tuyxrn5x5c66lnt7s4daejcnh",
      "value": 330
    },
    {
      "scriptpubkey": "00145cace071a2636953612aa9fe0e549d45e1f18df9",
      "scriptpubkey_asm": "OP_0 OP_PUSHBYTES_20 5cace071a2636953612aa9fe0e549d45e1f18df9",
      "scriptpubkey_type": "v0_p2wpkh",
      "scriptpubkey_address": "bc1qtjkwqudzvd54xcf248lqu4yaghslrr0e9vvgxa",
      "value": 19460
    },
    {
      "scriptpubkey": "5120d11b52ebc5e8a1d3010b1d1494ea526494e651bfe81d7e9ba3b7779623f954ba",
      "scriptpubkey_asm": "OP_PUSHNUM_1 OP_PUSHBYTES_32 d11b52ebc5e8a1d3010b1d1494ea526494e651bfe81d7e9ba3b7779623f954ba",
      "scriptpubkey_type": "v1_p2tr",
      "scriptpubkey_address": "bc1p6yd49679azsaxqgtr52ff6jjvj2wv5dlaqwhaxarkamevgle2jaqs8vlnr",
      "value": 540
    },
    {
      "scriptpubkey": "00145df9e1185b554537af8430e743531ad7e6bf42ad",
      "scriptpubkey_asm": "OP_0 OP_PUSHBYTES_20 5df9e1185b554537af8430e743531ad7e6bf42ad",
      "scriptpubkey_type": "v0_p2wpkh",
      "scriptpubkey_address": "bc1qthu7zxzm24zn0tuyxrn5x5c66lnt7s4daejcnh",
      "value": 135802
    }
  ],
  "size": 771,
  "weight": 1794,
  "fee": 4829,
  "status": {
    "confirmed": true,
    "block_height": 834464,
    "block_hash": "0000000000000000000177a0869a911a2b65c9bdcd5a8bcb02b68f305bee848e",
    "block_time": 1710308296
  },
  "hex": "010000000001042f7a4d285a33291e7e9e67e1f3562be3690c2799f5dc7f9fa13f29bdc0badb3f0000000000fdffffff2f7a4d285a33291e7e9e67e1f3562be3690c2799f5dc7f9fa13f29bdc0badb3f0100000000fdffffff1b2fe786fe801056c3961875a094412e597150df9a42b7eed58c2c5f28cdf83d0000000000fdffffffe5375e9e347d4d1182455254bdcef0a4b1d1b8e8c466bf174c6c267801faf0fa0100000000fdffffff05b0040000000000001600145df9e1185b554537af8430e743531ad7e6bf42ad4a010000000000001600145df9e1185b554537af8430e743531ad7e6bf42ad044c0000000000001600145cace071a2636953612aa9fe0e549d45e1f18df91c02000000000000225120d11b52ebc5e8a1d3010b1d1494ea526494e651bfe81d7e9ba3b7779623f954ba7a120200000000001600145df9e1185b554537af8430e743531ad7e6bf42ad024730440220023dee8d0f49ab2e42b74841db9a8ef794c407bb8393c5cc73be68071915cde3022023f2d738748b9bb312149c27fa67762b86546a25915be1ba54cb95951ecb5d37012103789ab1682004cfe054ee6437f79fe03bb4608e9a42be67e560e61b44af3007fc02473044022024dbfde73c832bb72e2251ea8b60d6c367be15c6da8a7e64db1a660247f531fe02203bcbe89f09329b856b2cbf1d688bbdd71056172734f2c7af4fbad3a4a33b3aad012103789ab1682004cfe054ee6437f79fe03bb4608e9a42be67e560e61b44af3007fc02473044022020d45ed80f68b7e7e100a70a060296a692b6c36747778c1f3a468e78d20a0b940220205aed4ad4e9ca8f2564a183ebca152919fa64d6dd0676ca5ae30e32fb7a6fa0832103338c0332494fdebaa3988434ad9bf4b153d3ca6bc774ab93942ddf6c12495bf10247304402205e6091678a0b1fc9f4e799e19be4fc426dc7cdf2349744b6230efc4a7e4ed323022040e1b18e236417155c255487d41983ed272195beb74d2b976c314ac186f41f15012103789ab1682004cfe054ee6437f79fe03bb4608e9a42be67e560e61b44af3007fc00000000"
}