{
  "txid": "6dcdd3ea6074fdb9e7f33b965e693c53fb6b48d88f573b085475374d43b30746",
  "version": 2,
  "locktime": 834637,
  "vin": [
    {
      "txid": "5b6919fb85290d25299b64ecce0bd507644e4b6d96afa5173c8bb110a637394e",
      "vout": 1,
      "prevout": {
        "scriptpubkey": "0014feed5fb365bf190782ac2f90d95c0154d8f18a1d",
        "scriptpubkey_asm": "OP_0 OP_PUSHBYTES_20 feed5fb365bf190782ac2f90d95c0154d8f18a1d",
        "scriptpubkey_type": "v0_p2wpkh",
        "scriptpubkey_address": "bc1qlmk4lvm9huvs0q4v97gdjhqp2nv0rzsatqqmzf",
        "value": 1461172
      },
      "scriptsig": "",
      "scriptsig_asm": "",
      "witness": [
        "304402206d23130baea17c3ecbe91aa36a34cb9ce54aa7ea0508642121d263b6f1dca1da0220305be73dd852e6ca9b735536499676f597b1cfca45e5370e4e9a14f603b8e17401",
        "02157abeeec9c6694061d632d6c7a4f49b15d01743b00eb9f5eb15bdcee4f7d582"
      ],
      "is_coinbase": false,
      "sequence": 4294967293
    }
  ],
  "vout": [
    {
      "scriptpubkey": "0014a37fd87774dfe9435ef20e433408082dfd5e6326",
      "scriptpubkey_asm": "OP_0 OP_PUSHBYTES_20 a37fd87774dfe9435ef20e433408082dfd5e6326",
      "scriptpubkey_type": "v0_p2wpkh",
      "scriptpubkey_address": "bc1q5dlasam5ml55xhhjpepngzqg9h74ucexcnxjxu",
      "value": 504448
    },
    {
      "scriptpubkey": "0014d9e3e30d0d18f6750d955ec6072a6e6b4148a4cf",
      "scriptpubkey_asm": "OP_0 OP_PUSHBYTES_20 d9e3e30d0d18f6750d955ec6072a6e6b4148a4cf",
      "scriptpubkey_type": "v0_p2wpkh",
      "scriptpubkey_address": "bc1qm837xrgdrrm82rv4tmrqw2nwddq53fx00qrlve",
      "value": 954327
    }
  ],
  "size": 222,
  "weight": 561,
  "fee": 2397,
  "status": {
    "confirmed": true,
    "block_height": 834638,
    "block_hash": "000000000000000000025f742c626208ac87e0b7d15054abb4a19ca2d735a54e",
    "block_time": 1710405325
  },
  "hex": "020000000001014e3937a610b18b3c17a5af966d4b4e6407d50bceec649b29250d2985fb19695b0100000000fdffffff0280b2070000000000160014a37fd87774dfe9435ef20e433408082dfd5e6326d78f0e0000000000160014d9e3e30d0d18f6750d955ec6072a6e6b4148a4cf0247304402206d23130baea17c3ecbe91aa36a34cb9ce54aa7ea0508642121d263b6f1dca1da0220305be73dd852e6ca9b735536499676f597b1cfca45e5370e4e9a14f603b8e174012102157abeeec9c6694061d632d6c7a4f49b15d01743b00eb9f5eb15bdcee4f7d5824dbc0c00"
}