{
  "txid": "6de8b59377f776db437cb004cfb451f7a3b34803153d67876065fe0d8fac0079",
  "version": 2,
  "locktime": 0,
  "vin": [
    {
      "txid": "5cc1876c4f14dba952cc477ec14be7d015ac0ced5c6edd2950cd705e0f9cd046",
      "vout": 35,
      "prevout": {
        "scriptpubkey": "00148b79a3007eba9bdcef60fa081545ae58eb4d5abb",
        "scriptpubkey_asm": "OP_0 OP_PUSHBYTES_20 8b79a3007eba9bdcef60fa081545ae58eb4d5abb",
        "scriptpubkey_type": "v0_p2wpkh",
        "scriptpubkey_address": "bc1q3du6xqr7h2daemmqlgyp23dwtr456k4mjcp0h4",
        "value": 29000
      },
      "scriptsig": "",
      "scriptsig_asm": "",
      "witness": [
        "30440220717bed7a36d9c490db863cc283d971a6fbd858b759735ae2398de6ef2fdfc402022059db218b322cea506c4974f94b8784921e3a981fb0d15b507061c86667e848a201",
        "0313bfdb557e1e0ce196f89b012966295ff1b73c9d1299b6f7015bfbd5851edf6a"
      ],
      "is_coinbase": false,
      "sequence": 4294967295
    }
  ],
  "vout": [
    {
      "scriptpubkey": "a91491cf56da9a91183fe8a66b3be0e635d89a673fb287",
      "scriptpubkey_asm": "OP_HASH160 OP_PUSHBYTES_20 91cf56da9a91183fe8a66b3be0e635d89a673fb2 OP_EQUAL",
      "scriptpubkey_type": "p2sh",
      "scriptpubkey_address": "3EyzHYXgM42HUSJ85VgSgFJhGyC8rrMw5r",
      "value": 25058
    }
  ],
  "size": 192,
  "weight": 441,
  "fee": 3942,
  "status": {
    "confirmed": true,
    "block_height": 834638,
    "block_hash": "000000000000000000025f742c626208ac87e0b7d15054abb4a19ca2d735a54e",
    "block_time": 1710405325
  },
  "hex": "0200000000010146d09c0f5e70cd5029dd6e5ced0cac15d0e74bc17e47cc52a9db144f6c87c15c2300000000ffffffff01e26100000000000017a91491cf56da9a91183fe8a66b3be0e635d89a673fb287024730440220717bed7a36d9c490db863cc283d971a6fbd858b759735ae2398de6ef2fdfc402022059db218b322cea506c4974f94b8784921e3a981fb0d15b507061c86667e848a201210313bfdb557e1e0ce196f89b012966295ff1b73c9d1299b6f7015bfbd5851edf6a00000000"
}