{
  "txid": "6df0d989547117ba1bd109a3e35329ffa085bb7f1f7b5663dfde4cf70a10317e",
  "version": 2,
  "locktime": 834637,
  "vin": [
    {
      "txid": "cd6141a292ae56c6897a65ca19a4083275c50c3beab2f8cfac2a1bfea1f00623",
      "vout": 0,
      "prevout": {
        "scriptpubkey": "00146ccea9afa4ddb99515159879c83b0aa34f622c13",
        "scriptpubkey_asm": "OP_0 OP_PUSHBYTES_20 6ccea9afa4ddb99515159879c83b0aa34f622c13",
        "scriptpubkey_type": "v0_p2wpkh",
        "scriptpubkey_address": "bc1qdn82ntaymkue29g4npuuswc25d8kytqncrszgu",
        "value": 6569728
      },
      "scriptsig": "",
      "scriptsig_asm": "",
      "witness": [
        "3044022041b67ec5d4daef62b1ce092614da65145b1f03a6b023295cbe98bdb8333903df022034f4de71323cfeaeb022f1421329e84796a671ec174919f127d7ed4adc67fb8101",
        "03eef498f817c60cc4078581b464b1c20a63ab89d452f7635f5a0dd9e2ac704c72"
      ],
      "is_coinbase": false,
      "sequence": 4294967294
    },
    {
      "txid": "008eb622c1526f7e9b8ed4e4adb73a5fed8699ce9af1e6b9e0004f28fe530b8c",
      "vout": 1,
      "prevout": {
        "scriptpubkey": "0014a3ffdf4e89f070d9c8dc27e99a7b18aa2c3e9a05",
        "scriptpubkey_asm": "OP_0 OP_PUSHBYTES_20 a3ffdf4e89f070d9c8dc27e99a7b18aa2c3e9a05",
        "scriptpubkey_type": "v0_p2wpkh",
        "scriptpubkey_address": "bc1q50la7n5f7pcdnjxuyl5e57cc4gkraxs9upqutz",
        "value": 1029928
      },
      "scriptsig": "",
      "scriptsig_asm": "",
      "witness": [
        "3044022049f6ec70bd10ef2f6e5a3133dc5c4cffacfa8d1c4275f3d6632b4bc8d7341bb7022076d5e96c6ee41fde5036f44d7e3a114369da300f98a6c39cb375d5e1e2320a1a01",
        "03ba4351914e8a9dc0a159c076eefeca880fd3f429b6af9fca238e5575069c79a9"
      ],
      "is_coinbase": false,
      "sequence": 4294967294
    }
  ],
  "vout": [
    {
      "scriptpubkey": "00148ee39de435ab98752b70821f3e171c4d81ba41cf",
      "scriptpubkey_asm": "OP_0 OP_PUSHBYTES_20 8ee39de435ab98752b70821f3e171c4d81ba41cf",
      "scriptpubkey_type": "v0_p2wpkh",
      "scriptpubkey_address": "bc1q3m3emep44wv822mssg0nu9cufkqm5sw0qmtysm",
      "value": 6287944
    },
    {
      "scriptpubkey": "0014ca0ee1feba51b069e381ef62050dcbde28b33398",
      "scriptpubkey_asm": "OP_0 OP_PUSHBYTES_20 ca0ee1feba51b069e381ef62050dcbde28b33398",
      "scriptpubkey_type": "v0_p2wpkh",
      "scriptpubkey_address": "bc1qeg8wrl462xcxncupaa3q2rwtmc5txvuc5fsp0j",
      "value": 1306098
    }
  ],
  "size": 370,
  "weight": 832,
  "fee": 5614,
  "status": {
    "confirmed": true,
    "block_height": 834638,
    "block_hash": "000000000000000000025f742c626208ac87e0b7d15054abb4a19ca2d735a54e",
    "block_time": 1710405325
  },
  "hex": "020000000001022306f0a1fe1b2aaccff8b2ea3b0cc5753208a419ca657a89c656ae92a24161cd0000000000feffffff8c0b53fe284f00e0b9e6f19ace9986ed5f3ab7ade4d48e9b7e6f52c122b68e000100000000feffffff0248f25f00000000001600148ee39de435ab98752b70821f3e171c4d81ba41cff2ed130000000000160014ca0ee1feba51b069e381ef62050dcbde28b3339802473044022041b67ec5d4daef62b1ce092614da65145b1f03a6b023295cbe98bdb8333903df022034f4de71323cfeaeb022f1421329e84796a671ec174919f127d7ed4adc67fb81012103eef498f817c60cc4078581b464b1c20a63ab89d452f7635f5a0dd9e2ac704c7202473044022049f6ec70bd10ef2f6e5a3133dc5c4cffacfa8d1c4275f3d6632b4bc8d7341bb7022076d5e96c6ee41fde5036f44d7e3a114369da300f98a6c39cb375d5e1e2320a1a012103ba4351914e8a9dc0a159c076eefeca880fd3f429b6af9fca238e5575069c79a94dbc0c00"
}