{
  "txid": "6e0383989db72c5cec4b437f7fc7f6af859e41aee26af64cffda212e76585a44",
  "version": 2,
  "locktime": 0,
  "vin": [
    {
      "txid": "febf3c02a6d6478185bcd552e5cc3f1b32fbce741f977edf12a5b8256f4ceb76",
      "vout": 4,
      "prevout": {
        "scriptpubkey": "512094a450c6665f3392da67986c1dcf999b52b3ad874268db4c2f8d93aa967e086d",
        "scriptpubkey_asm": "OP_PUSHNUM_1 OP_PUSHBYTES_32 94a450c6665f3392da67986c1dcf999b52b3ad874268db4c2f8d93aa967e086d",
        "scriptpubkey_type": "v1_p2tr",
        "scriptpubkey_address": "bc1pjjj9p3nxtuee9kn8npkpmnuendft8tv8gf5dknp03kf649n7ppkshlks6k",
        "value": 106000
      },
      "scriptsig": "",
      "scriptsig_asm": "",
      "witness": [
        "582b5b836b16613c2a42cd1ee8f0e8f7b84d104a93bcd35011b4b2de2aa9b344b97ee64140f70982c7e822a60ee78f1c01d5e42e130ef19df03241b31263974a"
      ],
      "is_coinbase": false,
      "sequence": 4294967295
    }
  ],
  "vout": [
    {
      "scriptpubkey": "512094a450c6665f3392da67986c1dcf999b52b3ad874268db4c2f8d93aa967e086d",
      "scriptpubkey_asm": "OP_PUSHNUM_1 OP_PUSHBYTES_32 94a450c6665f3392da67986c1dcf999b52b3ad874268db4c2f8d93aa967e086d",
      "scriptpubkey_type": "v1_p2tr",
      "scriptpubkey_address": "bc1pjjj9p3nxtuee9kn8npkpmnuendft8tv8gf5dknp03kf649n7ppkshlks6k",
      "value": 600
    },
    {
      "scriptpubkey": "512094a450c6665f3392da67986c1dcf999b52b3ad874268db4c2f8d93aa967e086d",
      "scriptpubkey_asm": "OP_PUSHNUM_1 OP_PUSHBYTES_32 94a450c6665f3392da67986c1dcf999b52b3ad874268db4c2f8d93aa967e086d",
      "scriptpubkey_type": "v1_p2tr",
      "scriptpubkey_address": "bc1pjjj9p3nxtuee9kn8npkpmnuendft8tv8gf5dknp03kf649n7ppkshlks6k",
      "value": 600
    },
    {
      "scriptpubkey": "512094a450c6665f3392da67986c1dcf999b52b3ad874268db4c2f8d93aa967e086d",
      "scriptpubkey_asm": "OP_PUSHNUM_1 OP_PUSHBYTES_32 94a450c6665f3392da67986c1dcf999b52b3ad874268db4c2f8d93aa967e086d",
      "scriptpubkey_type": "v1_p2tr",
      "scriptpubkey_address": "bc1pjjj9p3nxtuee9kn8npkpmnuendft8tv8gf5dknp03kf649n7ppkshlks6k",
      "value": 101845
    }
  ],
  "size": 248,
  "weight": 788,
  "fee": 2955,
  "status": {
    "confirmed": true,
    "block_height": 834638,
    "block_hash": "000000000000000000025f742c626208ac87e0b7d15054abb4a19ca2d735a54e",
    "block_time": 1710405325
  },
  "hex": "0200000000010176eb4c6f25b8a512df7e971f74cefb321b3fcce552d5bc858147d6a6023cbffe0400000000ffffffff03580200000000000022512094a450c6665f3392da67986c1dcf999b52b3ad874268db4c2f8d93aa967e086d580200000000000022512094a450c6665f3392da67986c1dcf999b52b3ad874268db4c2f8d93aa967e086dd58d01000000000022512094a450c6665f3392da67986c1dcf999b52b3ad874268db4c2f8d93aa967e086d0140582b5b836b16613c2a42cd1ee8f0e8f7b84d104a93bcd35011b4b2de2aa9b344b97ee64140f70982c7e822a60ee78f1c01d5e42e130ef19df03241b31263974a00000000"
}