{
  "txid": "6e062b4af3358e0e83298bdc7a884251c9d12e3d2a4e646a7e6a9eb126d382b8",
  "version": 2,
  "locktime": 0,
  "vin": [
    {
      "txid": "f010d4fc0e93f272944abd9c36f9faaffbf6cbc57362e23b4706bc76f11ca040",
      "vout": 23,
      "prevout": {
        "scriptpubkey": "a914db2c787176a8119df843ae823cc648ed7cdf361b87",
        "scriptpubkey_asm": "OP_HASH160 OP_PUSHBYTES_20 db2c787176a8119df843ae823cc648ed7cdf361b OP_EQUAL",
        "scriptpubkey_type": "p2sh",
        "scriptpubkey_address": "3MfuBRBpcaAJDgSMw8u6d49RFh5CZQ8Lrh",
        "value": 600
      },
      "scriptsig": "1600144512b0bb66de3d31e6aa135ad634a9425913a496",
      "scriptsig_asm": "OP_PUSHBYTES_22 00144512b0bb66de3d31e6aa135ad634a9425913a496",
      "witness": [
        "3044022074deb019d931c8e9b5e575d9e9c20f6ef647cb4de9b79ebdecb859814725bfdd02200c5b7bec976c1a8723301082369205913ca433629ab3c33480bb0cc1128e710901",
        "03a820f7acbb973816c916ea4b68935b2769f0c6e4875f0658503b2c92671712ca"
      ],
      "is_coinbase": false,
      "sequence": 4294967295,
      "inner_redeemscript_asm": "OP_0 OP_PUSHBYTES_20 4512b0bb66de3d31e6aa135ad634a9425913a496"
    },
    {
      "txid": "f010d4fc0e93f272944abd9c36f9faaffbf6cbc57362e23b4706bc76f11ca040",
      "vout": 27,
      "prevout": {
        "scriptpubkey": "a914db2c787176a8119df843ae823cc648ed7cdf361b87",
        "scriptpubkey_asm": "OP_HASH160 OP_PUSHBYTES_20 db2c787176a8119df843ae823cc648ed7cdf361b OP_EQUAL",
        "scriptpubkey_type": "p2sh",
        "scriptpubkey_address": "3MfuBRBpcaAJDgSMw8u6d49RFh5CZQ8Lrh",
        "value": 600
      },
      "scriptsig": "1600144512b0bb66de3d31e6aa135ad634a9425913a496",
      "scriptsig_asm": "OP_PUSHBYTES_22 00144512b0bb66de3d31e6aa135ad634a9425913a496",
      "witness": [
        "304402205828e78e241b8d809e95f0f24638081ed36d91b398a9d9c1385f1f6194d97a1902203551f179957768ab51a079d29a7698c56953217ed56ca479e375381d36a4190f01",
        "03a820f7acbb973816c916ea4b68935b2769f0c6e4875f0658503b2c92671712ca"
      ],
      "is_coinbase": false,
      "sequence": 4294967295,
      "inner_redeemscript_asm": "OP_0 OP_PUSHBYTES_20 4512b0bb66de3d31e6aa135ad634a9425913a496"
    },
    {
      "txid": "f010d4fc0e93f272944abd9c36f9faaffbf6cbc57362e23b4706bc76f11ca040",
      "vout": 31,
      "prevout": {
        "scriptpubkey": "a914db2c787176a8119df843ae823cc648ed7cdf361b87",
        "scriptpubkey_asm": "OP_HASH160 OP_PUSHBYTES_20 db2c787176a8119df843ae823cc648ed7cdf361b OP_EQUAL",
        "scriptpubkey_type": "p2sh",
        "scriptpubkey_address": "3MfuBRBpcaAJDgSMw8u6d49RFh5CZQ8Lrh",
        "value": 600
      },
      "scriptsig": "1600144512b0bb66de3d31e6aa135ad634a9425913a496",
      "scriptsig_asm": "OP_PUSHBYTES_22 00144512b0bb66de3d31e6aa135ad634a9425913a496",
      "witness": [
        "304402205cd4bb03da0b24800814a7ec016f5dbd7252da5c7dbb2c1d9bb820288006de7e02203851471337baa17e7b7131699f4fc17c29d3b0b4fae4bd3581a68e875c2ab95d01",
        "03a820f7acbb973816c916ea4b68935b2769f0c6e4875f0658503b2c92671712ca"
      ],
      "is_coinbase": false,
      "sequence": 4294967295,
      "inner_redeemscript_asm": "OP_0 OP_PUSHBYTES_20 4512b0bb66de3d31e6aa135ad634a9425913a496"
    },
    {
      "txid": "f010d4fc0e93f272944abd9c36f9faaffbf6cbc57362e23b4706bc76f11ca040",
      "vout": 29,
      "prevout": {
        "scriptpubkey": "a914db2c787176a8119df843ae823cc648ed7cdf361b87",
        "scriptpubkey_asm": "OP_HASH160 OP_PUSHBYTES_20 db2c787176a8119df843ae823cc648ed7cdf361b OP_EQUAL",
        "scriptpubkey_type": "p2sh",
        "scriptpubkey_address": "3MfuBRBpcaAJDgSMw8u6d49RFh5CZQ8Lrh",
        "value": 600
      },
      "scriptsig": "1600144512b0bb66de3d31e6aa135ad634a9425913a496",
      "scriptsig_asm": "OP_PUSHBYTES_22 00144512b0bb66de3d31e6aa135ad634a9425913a496",
      "witness": [
        "3043022039cb40d82941c93f40b8114527ea42604e60f054118257d429268cd77b8b4155021f500ca593b88074b901794b37a652755d6602eb7af64f101a2be0fa8b22d4e501",
        "03a820f7acbb973816c916ea4b68935b2769f0c6e4875f0658503b2c92671712ca"
      ],
      "is_coinbase": false,
      "sequence": 4294967295,
      "inner_redeemscript_asm": "OP_0 OP_PUSHBYTES_20 4512b0bb66de3d31e6aa135ad634a9425913a496"
    },
    {
      "txid": "f010d4fc0e93f272944abd9c36f9faaffbf6cbc57362e23b4706bc76f11ca040",
      "vout": 30,
      "prevout": {
        "scriptpubkey": "a914db2c787176a8119df843ae823cc648ed7cdf361b87",
        "scriptpubkey_asm": "OP_HASH160 OP_PUSHBYTES_20 db2c787176a8119df843ae823cc648ed7cdf361b OP_EQUAL",
        "scriptpubkey_type": "p2sh",
        "scriptpubkey_address": "3MfuBRBpcaAJDgSMw8u6d49RFh5CZQ8Lrh",
        "value": 600
      },
      "scriptsig": "1600144512b0bb66de3d31e6aa135ad634a9425913a496",
      "scriptsig_asm": "OP_PUSHBYTES_22 00144512b0bb66de3d31e6aa135ad634a9425913a496",
      "witness": [
        "3044022063f2c946abf64204315df882414722a03f776cc7b60ccf9303f859450036fa57022027ae530c8c24c28ce1c60c264108fc67fde3abfb77d3f89202c38f789db0603101",
        "03a820f7acbb973816c916ea4b68935b2769f0c6e4875f0658503b2c92671712ca"
      ],
      "is_coinbase": false,
      "sequence": 4294967295,
      "inner_redeemscript_asm": "OP_0 OP_PUSHBYTES_20 4512b0bb66de3d31e6aa135ad634a9425913a496"
    },
    {
      "txid": "f010d4fc0e93f272944abd9c36f9faaffbf6cbc57362e23b4706bc76f11ca040",
      "vout": 24,
      "prevout": {
        "scriptpubkey": "a914db2c787176a8119df843ae823cc648ed7cdf361b87",
        "scriptpubkey_asm": "OP_HASH160 OP_PUSHBYTES_20 db2c787176a8119df843ae823cc648ed7cdf361b OP_EQUAL",
        "scriptpubkey_type": "p2sh",
        "scriptpubkey_address": "3MfuBRBpcaAJDgSMw8u6d49RFh5CZQ8Lrh",
        "value": 600
      },
      "scriptsig": "1600144512b0bb66de3d31e6aa135ad634a9425913a496",
      "scriptsig_asm": "OP_PUSHBYTES_22 00144512b0bb66de3d31e6aa135ad634a9425913a496",
      "witness": [
        "30440220110bdde8ec39d65b15653a9f15a37c7d12dc458d18136b7b3db2afcacb12648a022013353c384d380ce29151d97c0e839f0d4edee64e1a735aaa138e1db00f8007f301",
        "03a820f7acbb973816c916ea4b68935b2769f0c6e4875f0658503b2c92671712ca"
      ],
      "is_coinbase": false,
      "sequence": 4294967295,
      "inner_redeemscript_asm": "OP_0 OP_PUSHBYTES_20 4512b0bb66de3d31e6aa135ad634a9425913a496"
    },
    {
      "txid": "f010d4fc0e93f272944abd9c36f9faaffbf6cbc57362e23b4706bc76f11ca040",
      "vout": 28,
      "prevout": {
        "scriptpubkey": "a914db2c787176a8119df843ae823cc648ed7cdf361b87",
        "scriptpubkey_asm": "OP_HASH160 OP_PUSHBYTES_20 db2c787176a8119df843ae823cc648ed7cdf361b OP_EQUAL",
        "scriptpubkey_type": "p2sh",
        "scriptpubkey_address": "3MfuBRBpcaAJDgSMw8u6d49RFh5CZQ8Lrh",
        "value": 600
      },
      "scriptsig": "1600144512b0bb66de3d31e6aa135ad634a9425913a496",
      "scriptsig_asm": "OP_PUSHBYTES_22 00144512b0bb66de3d31e6aa135ad634a9425913a496",
      "witness": [
        "304502210094a72b50f119cef70bda8cd7925820cdf6cd1cbe517c6290add44a315e65c65c0220750c99b19e8c931a9023dc5e31758e1f1f7cc8a1d815e390b78601bc486b60c501",
        "03a820f7acbb973816c916ea4b68935b2769f0c6e4875f0658503b2c92671712ca"
      ],
      "is_coinbase": false,
      "sequence": 4294967295,
      "inner_redeemscript_asm": "OP_0 OP_PUSHBYTES_20 4512b0bb66de3d31e6aa135ad634a9425913a496"
    },
    {
      "txid": "f010d4fc0e93f272944abd9c36f9faaffbf6cbc57362e23b4706bc76f11ca040",
      "vout": 25,
      "prevout": {
        "scriptpubkey": "a914db2c787176a8119df843ae823cc648ed7cdf361b87",
        "scriptpubkey_asm": "OP_HASH160 OP_PUSHBYTES_20 db2c787176a8119df843ae823cc648ed7cdf361b OP_EQUAL",
        "scriptpubkey_type": "p2sh",
        "scriptpubkey_address": "3MfuBRBpcaAJDgSMw8u6d49RFh5CZQ8Lrh",
        "value": 600
      },
      "scriptsig": "1600144512b0bb66de3d31e6aa135ad634a9425913a496",
      "scriptsig_asm": "OP_PUSHBYTES_22 00144512b0bb66de3d31e6aa135ad634a9425913a496",
      "witness": [
        "3044022026b024cd16487c1848788deb16f6b452cdf7753bf5f6e34a89c8906fd0f76583022062123beaaf9c90d9a62cf6cf374e09d87a8ea4ba2a6541893af5eff690d95e9001",
        "03a820f7acbb973816c916ea4b68935b2769f0c6e4875f0658503b2c92671712ca"
      ],
      "is_coinbase": false,
      "sequence": 4294967295,
      "inner_redeemscript_asm": "OP_0 OP_PUSHBYTES_20 4512b0bb66de3d31e6aa135ad634a9425913a496"
    },
    {
      "txid": "f010d4fc0e93f272944abd9c36f9faaffbf6cbc57362e23b4706bc76f11ca040",
      "vout": 32,
      "prevout": {
        "scriptpubkey": "a914db2c787176a8119df843ae823cc648ed7cdf361b87",
        "scriptpubkey_asm": "OP_HASH160 OP_PUSHBYTES_20 db2c787176a8119df843ae823cc648ed7cdf361b OP_EQUAL",
        "scriptpubkey_type": "p2sh",
        "scriptpubkey_address": "3MfuBRBpcaAJDgSMw8u6d49RFh5CZQ8Lrh",
        "value": 600
      },
      "scriptsig": "1600144512b0bb66de3d31e6aa135ad634a9425913a496",
      "scriptsig_asm": "OP_PUSHBYTES_22 00144512b0bb66de3d31e6aa135ad634a9425913a496",
      "witness": [
        "30450221008d09b767d1404a7c1300e96e5e2a5ea9d69a0c27d1bcd7e2bbe9537f81c5398e0220687110d04cc75858ac1633698ec7096ea9cd951f78b8d4764466e115b7fd78c801",
        "03a820f7acbb973816c916ea4b68935b2769f0c6e4875f0658503b2c92671712ca"
      ],
      "is_coinbase": false,
      "sequence": 4294967295,
      "inner_redeemscript_asm": "OP_0 OP_PUSHBYTES_20 4512b0bb66de3d31e6aa135ad634a9425913a496"
    },
    {
      "txid": "42bd5a38f88fd369cb844ed4340ada091ab35421c8871571ab0867275bc61edc",
      "vout": 20,
      "prevout": {
        "scriptpubkey": "51206fe7a8c7c0f006badd7005649676a0b10599236b7fe4611a626c094c498285fe",
        "scriptpubkey_asm": "OP_PUSHNUM_1 OP_PUSHBYTES_32 6fe7a8c7c0f006badd7005649676a0b10599236b7fe4611a626c094c498285fe",
        "scriptpubkey_type": "v1_p2tr",
        "scriptpubkey_address": "bc1pdln6337q7qrt4htsq4jfva4qkyzejgmt0ljxzxnzdsy5cjvzshlq07tmt5",
        "value": 330
      },
      "scriptsig": "",
      "scriptsig_asm": "",
      "witness": [
        "e1a83fb3fe449551549e9b070037750cfecf92b9926a355cec8c9a7e7969dbc23e04ece09f6f151c05bdba10e2c418a541533b48fd4399400b97490021eef8e583"
      ],
      "is_coinbase": false,
      "sequence": 4294967295
    },
    {
      "txid": "42bd5a38f88fd369cb844ed4340ada091ab35421c8871571ab0867275bc61edc",
      "vout": 8,
      "prevout": {
        "scriptpubkey": "51206fe7a8c7c0f006badd7005649676a0b10599236b7fe4611a626c094c498285fe",
        "scriptpubkey_asm": "OP_PUSHNUM_1 OP_PUSHBYTES_32 6fe7a8c7c0f006badd7005649676a0b10599236b7fe4611a626c094c498285fe",
        "scriptpubkey_type": "v1_p2tr",
        "scriptpubkey_address": "bc1pdln6337q7qrt4htsq4jfva4qkyzejgmt0ljxzxnzdsy5cjvzshlq07tmt5",
        "value": 330
      },
      "scriptsig": "",
      "scriptsig_asm": "",
      "witness": [
        "38ed70aa9eb3631e7b8c2a199deecaecaaa403e8eff1b62f54260f04be2eadc0627d174ae7673c6d2f17ca7686068719d700664f341a20ae907c9f45ac556b3483"
      ],
      "is_coinbase": false,
      "sequence": 4294967295
    },
    {
      "txid": "42bd5a38f88fd369cb844ed4340ada091ab35421c8871571ab0867275bc61edc",
      "vout": 9,
      "prevout": {
        "scriptpubkey": "51206fe7a8c7c0f006badd7005649676a0b10599236b7fe4611a626c094c498285fe",
        "scriptpubkey_asm": "OP_PUSHNUM_1 OP_PUSHBYTES_32 6fe7a8c7c0f006badd7005649676a0b10599236b7fe4611a626c094c498285fe",
        "scriptpubkey_type": "v1_p2tr",
        "scriptpubkey_address": "bc1pdln6337q7qrt4htsq4jfva4qkyzejgmt0ljxzxnzdsy5cjvzshlq07tmt5",
        "value": 330
      },
      "scriptsig": "",
      "scriptsig_asm": "",
      "witness": [
        "d99a707909a5c85d0b9b8ff6eaeaf308c42a7e4b8021dc0c4677f317869c9c7365c8c503faa4cd8469463ef395317b48f0b2f30c143a5a07895689c6dbcf7acf83"
      ],
      "is_coinbase": false,
      "sequence": 4294967295
    },
    {
      "txid": "421424e2f97d02763270643e9c2dabdbac28b130620ade06c5d1f94140862377",
      "vout": 1,
      "prevout": {
        "scriptpubkey": "51203a22915d6bd0f609222ab90b98c83daa4afc5a8de614ace2805d82ad2363ae79",
        "scriptpubkey_asm": "OP_PUSHNUM_1 OP_PUSHBYTES_32 3a22915d6bd0f609222ab90b98c83daa4afc5a8de614ace2805d82ad2363ae79",
        "scriptpubkey_type": "v1_p2tr",
        "scriptpubkey_address": "bc1p8g3fzhtt6rmqjg32hy9e3jpa4f90ck5duc22ec5qtkp26gmr4eusvj7x0u",
        "value": 546
      },
      "scriptsig": "",
      "scriptsig_asm": "",
      "witness": [
        "b60bd8303114b4996a9a5b25cf743724169d65c725b176e298a173814c4f48a0fff403a75cbd94ff1bebc6e6fc551cadfee6847af91c62851822132faa92ab6583"
      ],
      "is_coinbase": false,
      "sequence": 4294967295
    },
    {
      "txid": "f6ef8f75ce3df752dfb5ef52e0aecb1fd6de87794eef24473eb846d2df4efb3d",
      "vout": 1,
      "prevout": {
        "scriptpubkey": "5120041df532846fd94811bfe9dccf54204bbdcc3c663bbd371948b551f8d2ed4a1e",
        "scriptpubkey_asm": "OP_PUSHNUM_1 OP_PUSHBYTES_32 041df532846fd94811bfe9dccf54204bbdcc3c663bbd371948b551f8d2ed4a1e",
        "scriptpubkey_type": "v1_p2tr",
        "scriptpubkey_address": "bc1pqswl2v5ydlv5sydla8wv74pqfw7uc0rx8w7nwx2gk4gl35hdfg0qna08zx",
        "value": 546
      },
      "scriptsig": "",
      "scriptsig_asm": "",
      "witness": [
        "277612615793b08b0f18c6631bdd2509f3ed32637255cd89d42bf2f44ca2ef0e8aebfd0c0b6ef50d5d06b6e5e2727a99bdc2a943b995105d0cc99671fd23abf583"
      ],
      "is_coinbase": false,
      "sequence": 4294967295
    },
    {
      "txid": "e274837c38fc98986de35aa68054ce6ca7e00b10539ec220e6c0693092f3774e",
      "vout": 1,
      "prevout": {
        "scriptpubkey": "5120ede069147069de47efc24408b54649864463108ddeed6d541be8c1f3470c6bf3",
        "scriptpubkey_asm": "OP_PUSHNUM_1 OP_PUSHBYTES_32 ede069147069de47efc24408b54649864463108ddeed6d541be8c1f3470c6bf3",
        "scriptpubkey_type": "v1_p2tr",
        "scriptpubkey_address": "bc1pahsxj9rsd80y0m7zgsyt23jfsezxxyydmmkk64qmarqlx3cvd0es7curqh",
        "value": 546
      },
      "scriptsig": "",
      "scriptsig_asm": "",
      "witness": [
        "79264742f2eac73d5f09924563a5ee6879d20f621fc38a513316ea8883111a47da7d94387916908550fa10deae0a1884f5971cc140377277b26a4b0fc568820183"
      ],
      "is_coinbase": false,
      "sequence": 4294967295
    },
    {
      "txid": "e274837c38fc98986de35aa68054ce6ca7e00b10539ec220e6c0693092f3774e",
      "vout": 2,
      "prevout": {
        "scriptpubkey": "5120ede069147069de47efc24408b54649864463108ddeed6d541be8c1f3470c6bf3",
        "scriptpubkey_asm": "OP_PUSHNUM_1 OP_PUSHBYTES_32 ede069147069de47efc24408b54649864463108ddeed6d541be8c1f3470c6bf3",
        "scriptpubkey_type": "v1_p2tr",
        "scriptpubkey_address": "bc1pahsxj9rsd80y0m7zgsyt23jfsezxxyydmmkk64qmarqlx3cvd0es7curqh",
        "value": 546
      },
      "scriptsig": "",
      "scriptsig_asm": "",
      "witness": [
        "057cebf93c88c9b17a9044612dc2a6c64ce460e284ad17a1347707af10a0810b2d5d7ed195f71d590a9c3fdc046a0f74e96685f28c7acf9825b59486283dc9a683"
      ],
      "is_coinbase": false,
      "sequence": 4294967295
    },
    {
      "txid": "e274837c38fc98986de35aa68054ce6ca7e00b10539ec220e6c0693092f3774e",
      "vout": 3,
      "prevout": {
        "scriptpubkey": "5120ede069147069de47efc24408b54649864463108ddeed6d541be8c1f3470c6bf3",
        "scriptpubkey_asm": "OP_PUSHNUM_1 OP_PUSHBYTES_32 ede069147069de47efc24408b54649864463108ddeed6d541be8c1f3470c6bf3",
        "scriptpubkey_type": "v1_p2tr",
        "scriptpubkey_address": "bc1pahsxj9rsd80y0m7zgsyt23jfsezxxyydmmkk64qmarqlx3cvd0es7curqh",
        "value": 546
      },
      "scriptsig": "",
      "scriptsig_asm": "",
      "witness": [
        "1d4bbc4a3042a24b0e3e8b7e2e93a91a87c58350c1ecfd56ddd23d7898b31aa523c00f8d6734a35925309a6cdde1e66af1cf02dbbbc0105eb9e9c6d6c4c22a8683"
      ],
      "is_coinbase": false,
      "sequence": 4294967295
    },
    {
      "txid": "f010d4fc0e93f272944abd9c36f9faaffbf6cbc57362e23b4706bc76f11ca040",
      "vout": 33,
      "prevout": {
        "scriptpubkey": "a914db2c787176a8119df843ae823cc648ed7cdf361b87",
        "scriptpubkey_asm": "OP_HASH160 OP_PUSHBYTES_20 db2c787176a8119df843ae823cc648ed7cdf361b OP_EQUAL",
        "scriptpubkey_type": "p2sh",
        "scriptpubkey_address": "3MfuBRBpcaAJDgSMw8u6d49RFh5CZQ8Lrh",
        "value": 385465
      },
      "scriptsig": "1600144512b0bb66de3d31e6aa135ad634a9425913a496",
      "scriptsig_asm": "OP_PUSHBYTES_22 00144512b0bb66de3d31e6aa135ad634a9425913a496",
      "witness": [
        "3045022100aadcd8f11b1c7350c4aab1ecf2cebf8a08d5fc256b00aeb9bc04e27f6e31f8cc022079e0616d27835c278fac9f7af8f95af868004be4c05c5abcc465f7f6f18b43ed01",
        "03a820f7acbb973816c916ea4b68935b2769f0c6e4875f0658503b2c92671712ca"
      ],
      "is_coinbase": false,
      "sequence": 4294967295,
      "inner_redeemscript_asm": "OP_0 OP_PUSHBYTES_20 4512b0bb66de3d31e6aa135ad634a9425913a496"
    }
  ],
  "vout": [
    {
      "scriptpubkey": "a914db2c787176a8119df843ae823cc648ed7cdf361b87",
      "scriptpubkey_asm": "OP_HASH160 OP_PUSHBYTES_20 db2c787176a8119df843ae823cc648ed7cdf361b OP_EQUAL",
      "scriptpubkey_type": "p2sh",
      "scriptpubkey_address": "3MfuBRBpcaAJDgSMw8u6d49RFh5CZQ8Lrh",
      "value": 5400
    },
    {
      "scriptpubkey": "51207aed500a4fe0479389bafd66acb3c9bbfc9a258afecc63435191d7b0ba274c5f",
      "scriptpubkey_asm": "OP_PUSHNUM_1 OP_PUSHBYTES_32 7aed500a4fe0479389bafd66acb3c9bbfc9a258afecc63435191d7b0ba274c5f",
      "scriptpubkey_type": "v1_p2tr",
      "scriptpubkey_address": "bc1p0tk4qzj0upre8zd6l4n2ev7fh07f5fv2lmxxxs63j8tmpw38f30s74wvxh",
      "value": 330
    },
    {
      "scriptpubkey": "51207aed500a4fe0479389bafd66acb3c9bbfc9a258afecc63435191d7b0ba274c5f",
      "scriptpubkey_asm": "OP_PUSHNUM_1 OP_PUSHBYTES_32 7aed500a4fe0479389bafd66acb3c9bbfc9a258afecc63435191d7b0ba274c5f",
      "scriptpubkey_type": "v1_p2tr",
      "scriptpubkey_address": "bc1p0tk4qzj0upre8zd6l4n2ev7fh07f5fv2lmxxxs63j8tmpw38f30s74wvxh",
      "value": 330
    },
    {
      "scriptpubkey": "51207aed500a4fe0479389bafd66acb3c9bbfc9a258afecc63435191d7b0ba274c5f",
      "scriptpubkey_asm": "OP_PUSHNUM_1 OP_PUSHBYTES_32 7aed500a4fe0479389bafd66acb3c9bbfc9a258afecc63435191d7b0ba274c5f",
      "scriptpubkey_type": "v1_p2tr",
      "scriptpubkey_address": "bc1p0tk4qzj0upre8zd6l4n2ev7fh07f5fv2lmxxxs63j8tmpw38f30s74wvxh",
      "value": 330
    },
    {
      "scriptpubkey": "51207aed500a4fe0479389bafd66acb3c9bbfc9a258afecc63435191d7b0ba274c5f",
      "scriptpubkey_asm": "OP_PUSHNUM_1 OP_PUSHBYTES_32 7aed500a4fe0479389bafd66acb3c9bbfc9a258afecc63435191d7b0ba274c5f",
      "scriptpubkey_type": "v1_p2tr",
      "scriptpubkey_address": "bc1p0tk4qzj0upre8zd6l4n2ev7fh07f5fv2lmxxxs63j8tmpw38f30s74wvxh",
      "value": 546
    },
    {
      "scriptpubkey": "51207aed500a4fe0479389bafd66acb3c9bbfc9a258afecc63435191d7b0ba274c5f",
      "scriptpubkey_asm": "OP_PUSHNUM_1 OP_PUSHBYTES_32 7aed500a4fe0479389bafd66acb3c9bbfc9a258afecc63435191d7b0ba274c5f",
      "scriptpubkey_type": "v1_p2tr",
      "scriptpubkey_address": "bc1p0tk4qzj0upre8zd6l4n2ev7fh07f5fv2lmxxxs63j8tmpw38f30s74wvxh",
      "value": 546
    },
    {
      "scriptpubkey": "51207aed500a4fe0479389bafd66acb3c9bbfc9a258afecc63435191d7b0ba274c5f",
      "scriptpubkey_asm": "OP_PUSHNUM_1 OP_PUSHBYTES_32 7aed500a4fe0479389bafd66acb3c9bbfc9a258afecc63435191d7b0ba274c5f",
      "scriptpubkey_type": "v1_p2tr",
      "scriptpubkey_address": "bc1p0tk4qzj0upre8zd6l4n2ev7fh07f5fv2lmxxxs63j8tmpw38f30s74wvxh",
      "value": 546
    },
    {
      "scriptpubkey": "51207aed500a4fe0479389bafd66acb3c9bbfc9a258afecc63435191d7b0ba274c5f",
      "scriptpubkey_asm": "OP_PUSHNUM_1 OP_PUSHBYTES_32 7aed500a4fe0479389bafd66acb3c9bbfc9a258afecc63435191d7b0ba274c5f",
      "scriptpubkey_type": "v1_p2tr",
      "scriptpubkey_address": "bc1p0tk4qzj0upre8zd6l4n2ev7fh07f5fv2lmxxxs63j8tmpw38f30s74wvxh",
      "value": 546
    },
    {
      "scriptpubkey": "51207aed500a4fe0479389bafd66acb3c9bbfc9a258afecc63435191d7b0ba274c5f",
      "scriptpubkey_asm": "OP_PUSHNUM_1 OP_PUSHBYTES_32 7aed500a4fe0479389bafd66acb3c9bbfc9a258afecc63435191d7b0ba274c5f",
      "scriptpubkey_type": "v1_p2tr",
      "scriptpubkey_address": "bc1p0tk4qzj0upre8zd6l4n2ev7fh07f5fv2lmxxxs63j8tmpw38f30s74wvxh",
      "value": 546
    },
    {
      "scriptpubkey": "51206fe7a8c7c0f006badd7005649676a0b10599236b7fe4611a626c094c498285fe",
      "scriptpubkey_asm": "OP_PUSHNUM_1 OP_PUSHBYTES_32 6fe7a8c7c0f006badd7005649676a0b10599236b7fe4611a626c094c498285fe",
      "scriptpubkey_type": "v1_p2tr",
      "scriptpubkey_address": "bc1pdln6337q7qrt4htsq4jfva4qkyzejgmt0ljxzxnzdsy5cjvzshlq07tmt5",
      "value": 19733
    },
    {
      "scriptpubkey": "51206fe7a8c7c0f006badd7005649676a0b10599236b7fe4611a626c094c498285fe",
      "scriptpubkey_asm": "OP_PUSHNUM_1 OP_PUSHBYTES_32 6fe7a8c7c0f006badd7005649676a0b10599236b7fe4611a626c094c498285fe",
      "scriptpubkey_type": "v1_p2tr",
      "scriptpubkey_address": "bc1pdln6337q7qrt4htsq4jfva4qkyzejgmt0ljxzxnzdsy5cjvzshlq07tmt5",
      "value": 19733
    },
    {
      "scriptpubkey": "51206fe7a8c7c0f006badd7005649676a0b10599236b7fe4611a626c094c498285fe",
      "scriptpubkey_asm": "OP_PUSHNUM_1 OP_PUSHBYTES_32 6fe7a8c7c0f006badd7005649676a0b10599236b7fe4611a626c094c498285fe",
      "scriptpubkey_type": "v1_p2tr",
      "scriptpubkey_address": "bc1pdln6337q7qrt4htsq4jfva4qkyzejgmt0ljxzxnzdsy5cjvzshlq07tmt5",
      "value": 19733
    },
    {
      "scriptpubkey": "001490d94123efc6d967521864dc4be4e98bf249f192",
      "scriptpubkey_asm": "OP_0 OP_PUSHBYTES_20 90d94123efc6d967521864dc4be4e98bf249f192",
      "scriptpubkey_type": "v0_p2wpkh",
      "scriptpubkey_address": "bc1qjrv5zgl0cmvkw5scvnwyhe8f30eynuvjxzdke3",
      "value": 19949
    },
    {
      "scriptpubkey": "a9148eb9f11f1a28120eba96fcf1cd05fc5204825dd887",
      "scriptpubkey_asm": "OP_HASH160 OP_PUSHBYTES_20 8eb9f11f1a28120eba96fcf1cd05fc5204825dd8 OP_EQUAL",
      "scriptpubkey_type": "p2sh",
      "scriptpubkey_address": "3EhgdFa94i65UuD8aEnSKAtxBNQFCyuEMo",
      "value": 20446
    },
    {
      "scriptpubkey": "5120ede069147069de47efc24408b54649864463108ddeed6d541be8c1f3470c6bf3",
      "scriptpubkey_asm": "OP_PUSHNUM_1 OP_PUSHBYTES_32 ede069147069de47efc24408b54649864463108ddeed6d541be8c1f3470c6bf3",
      "scriptpubkey_type": "v1_p2tr",
      "scriptpubkey_address": "bc1pahsxj9rsd80y0m7zgsyt23jfsezxxyydmmkk64qmarqlx3cvd0es7curqh",
      "value": 20446
    },
    {
      "scriptpubkey": "5120ede069147069de47efc24408b54649864463108ddeed6d541be8c1f3470c6bf3",
      "scriptpubkey_asm": "OP_PUSHNUM_1 OP_PUSHBYTES_32 ede069147069de47efc24408b54649864463108ddeed6d541be8c1f3470c6bf3",
      "scriptpubkey_type": "v1_p2tr",
      "scriptpubkey_address": "bc1pahsxj9rsd80y0m7zgsyt23jfsezxxyydmmkk64qmarqlx3cvd0es7curqh",
      "value": 20446
    },
    {
      "scriptpubkey": "5120ede069147069de47efc24408b54649864463108ddeed6d541be8c1f3470c6bf3",
      "scriptpubkey_asm": "OP_PUSHNUM_1 OP_PUSHBYTES_32 ede069147069de47efc24408b54649864463108ddeed6d541be8c1f3470c6bf3",
      "scriptpubkey_type": "v1_p2tr",
      "scriptpubkey_address": "bc1pahsxj9rsd80y0m7zgsyt23jfsezxxyydmmkk64qmarqlx3cvd0es7curqh",
      "value": 20446
    },
    {
      "scriptpubkey": "a914ea6b832a05c6ca578baa3836f3f25553d41068a587",
      "scriptpubkey_asm": "OP_HASH160 OP_PUSHBYTES_20 ea6b832a05c6ca578baa3836f3f25553d41068a5 OP_EQUAL",
      "scriptpubkey_type": "p2sh",
      "scriptpubkey_address": "3P4WqXDbSLRhzo2H6MT6YFbvBKBDPLbVtQ",
      "value": 3948
    },
    {
      "scriptpubkey": "a914db2c787176a8119df843ae823cc648ed7cdf361b87",
      "scriptpubkey_asm": "OP_HASH160 OP_PUSHBYTES_20 db2c787176a8119df843ae823cc648ed7cdf361b OP_EQUAL",
      "scriptpubkey_type": "p2sh",
      "scriptpubkey_address": "3MfuBRBpcaAJDgSMw8u6d49RFh5CZQ8Lrh",
      "value": 600
    },
    {
      "scriptpubkey": "a914db2c787176a8119df843ae823cc648ed7cdf361b87",
      "scriptpubkey_asm": "OP_HASH160 OP_PUSHBYTES_20 db2c787176a8119df843ae823cc648ed7cdf361b OP_EQUAL",
      "scriptpubkey_type": "p2sh",
      "scriptpubkey_address": "3MfuBRBpcaAJDgSMw8u6d49RFh5CZQ8Lrh",
      "value": 600
    },
    {
      "scriptpubkey": "a914db2c787176a8119df843ae823cc648ed7cdf361b87",
      "scriptpubkey_asm": "OP_HASH160 OP_PUSHBYTES_20 db2c787176a8119df843ae823cc648ed7cdf361b OP_EQUAL",
      "scriptpubkey_type": "p2sh",
      "scriptpubkey_address": "3MfuBRBpcaAJDgSMw8u6d49RFh5CZQ8Lrh",
      "value": 600
    },
    {
      "scriptpubkey": "a914db2c787176a8119df843ae823cc648ed7cdf361b87",
      "scriptpubkey_asm": "OP_HASH160 OP_PUSHBYTES_20 db2c787176a8119df843ae823cc648ed7cdf361b OP_EQUAL",
      "scriptpubkey_type": "p2sh",
      "scriptpubkey_address": "3MfuBRBpcaAJDgSMw8u6d49RFh5CZQ8Lrh",
      "value": 600
    },
    {
      "scriptpubkey": "a914db2c787176a8119df843ae823cc648ed7cdf361b87",
      "scriptpubkey_asm": "OP_HASH160 OP_PUSHBYTES_20 db2c787176a8119df843ae823cc648ed7cdf361b OP_EQUAL",
      "scriptpubkey_type": "p2sh",
      "scriptpubkey_address": "3MfuBRBpcaAJDgSMw8u6d49RFh5CZQ8Lrh",
      "value": 600
    },
    {
      "scriptpubkey": "a914db2c787176a8119df843ae823cc648ed7cdf361b87",
      "scriptpubkey_asm": "OP_HASH160 OP_PUSHBYTES_20 db2c787176a8119df843ae823cc648ed7cdf361b OP_EQUAL",
      "scriptpubkey_type": "p2sh",
      "scriptpubkey_address": "3MfuBRBpcaAJDgSMw8u6d49RFh5CZQ8Lrh",
      "value": 600
    },
    {
      "scriptpubkey": "a914db2c787176a8119df843ae823cc648ed7cdf361b87",
      "scriptpubkey_asm": "OP_HASH160 OP_PUSHBYTES_20 db2c787176a8119df843ae823cc648ed7cdf361b OP_EQUAL",
      "scriptpubkey_type": "p2sh",
      "scriptpubkey_address": "3MfuBRBpcaAJDgSMw8u6d49RFh5CZQ8Lrh",
      "value": 600
    },
    {
      "scriptpubkey": "a914db2c787176a8119df843ae823cc648ed7cdf361b87",
      "scriptpubkey_asm": "OP_HASH160 OP_PUSHBYTES_20 db2c787176a8119df843ae823cc648ed7cdf361b OP_EQUAL",
      "scriptpubkey_type": "p2sh",
      "scriptpubkey_address": "3MfuBRBpcaAJDgSMw8u6d49RFh5CZQ8Lrh",
      "value": 600
    },
    {
      "scriptpubkey": "a914db2c787176a8119df843ae823cc648ed7cdf361b87",
      "scriptpubkey_asm": "OP_HASH160 OP_PUSHBYTES_20 db2c787176a8119df843ae823cc648ed7cdf361b OP_EQUAL",
      "scriptpubkey_type": "p2sh",
      "scriptpubkey_address": "3MfuBRBpcaAJDgSMw8u6d49RFh5CZQ8Lrh",
      "value": 600
    },
    {
      "scriptpubkey": "a914db2c787176a8119df843ae823cc648ed7cdf361b87",
      "scriptpubkey_asm": "OP_HASH160 OP_PUSHBYTES_20 db2c787176a8119df843ae823cc648ed7cdf361b OP_EQUAL",
      "scriptpubkey_type": "p2sh",
      "scriptpubkey_address": "3MfuBRBpcaAJDgSMw8u6d49RFh5CZQ8Lrh",
      "value": 171409
    }
  ],
  "size": 3637,
  "weight": 9718,
  "fee": 43776,
  "status": {
    "confirmed": true,
    "block_height": 834638,
    "block_hash": "000000000000000000025f742c626208ac87e0b7d15054abb4a19ca2d735a54e",
    "block_time": 1710405325
  },
  "hex": "0200000000011240a01cf176bc06473be26273c5cbf6fbaffaf9369cbd4a9472f2930efcd410f017000000171600144512b0bb66de3d31e6aa135ad634a9425913a496ffffffff40a01cf176bc06473be26273c5cbf6fbaffaf9369cbd4a9472f2930efcd410f01b000000171600144512b0bb66de3d31e6aa135ad634a9425913a496ffffffff40a01cf176bc06473be26273c5cbf6fbaffaf9369cbd4a9472f2930efcd410f01f000000171600144512b0bb66de3d31e6aa135ad634a9425913a496ffffffff40a01cf176bc06473be26273c5cbf6fbaffaf9369cbd4a9472f2930efcd410f01d000000171600144512b0bb66de3d31e6aa135ad634a9425913a496ffffffff40a01cf176bc06473be26273c5cbf6fbaffaf9369cbd4a9472f2930efcd410f01e000000171600144512b0bb66de3d31e6aa135ad634a9425913a496ffffffff40a01cf176bc06473be26273c5cbf6fbaffaf9369cbd4a9472f2930efcd410f018000000171600144512b0bb66de3d31e6aa135ad634a9425913a496ffffffff40a01cf176bc06473be26273c5cbf6fbaffaf9369cbd4a9472f2930efcd410f01c000000171600144512b0bb66de3d31e6aa135ad634a9425913a496ffffffff40a01cf176bc06473be26273c5cbf6fbaffaf9369cbd4a9472f2930efcd410f019000000171600144512b0bb66de3d31e6aa135ad634a9425913a496ffffffff40a01cf176bc06473be26273c5cbf6fbaffaf9369cbd4a9472f2930efcd410f020000000171600144512b0bb66de3d31e6aa135ad634a9425913a496ffffffffdc1ec65b276708ab711587c82154b31a09da0a34d44e84cb69d38ff8385abd421400000000ffffffffdc1ec65b276708ab711587c82154b31a09da0a34d44e84cb69d38ff8385abd420800000000ffffffffdc1ec65b276708ab711587c82154b31a09da0a34d44e84cb69d38ff8385abd420900000000ffffffff7723864041f9d1c506de0a6230b128acdbab2d9c3e64703276027df9e22414420100000000ffffffff3dfb4edfd246b83e4724ef4e7987ded61fcbaee052efb5df52f73dce758feff60100000000ffffffff4e77f3923069c0e620c29e53100be0a76cce5480a65ae36d9898fc387c8374e20100000000ffffffff4e77f3923069c0e620c29e53100be0a76cce5480a65ae36d9898fc387c8374e20200000000ffffffff4e77f3923069c0e620c29e53100be0a76cce5480a65ae36d9898fc387c8374e20300000000ffffffff40a01cf176bc06473be26273c5cbf6fbaffaf9369cbd4a9472f2930efcd410f021000000171600144512b0bb66de3d31e6aa135ad634a9425913a496ffffffff1c181500000000000017a914db2c787176a8119df843ae823cc648ed7cdf361b874a010000000000002251207aed500a4fe0479389bafd66acb3c9bbfc9a258afecc63435191d7b0ba274c5f4a010000000000002251207aed500a4fe0479389bafd66acb3c9bbfc9a258afecc63435191d7b0ba274c5f4a010000000000002251207aed500a4fe0479389bafd66acb3c9bbfc9a258afecc63435191d7b0ba274c5f22020000000000002251207aed500a4fe0479389bafd66acb3c9bbfc9a258afecc63435191d7b0ba274c5f22020000000000002251207aed500a4fe0479389bafd66acb3c9bbfc9a258afecc63435191d7b0ba274c5f22020000000000002251207aed500a4fe0479389bafd66acb3c9bbfc9a258afecc63435191d7b0ba274c5f22020000000000002251207aed500a4fe0479389bafd66acb3c9bbfc9a258afecc63435191d7b0ba274c5f22020000000000002251207aed500a4fe0479389bafd66acb3c9bbfc9a258afecc63435191d7b0ba274c5f154d0000000000002251206fe7a8c7c0f006badd7005649676a0b10599236b7fe4611a626c094c498285fe154d0000000000002251206fe7a8c7c0f006badd7005649676a0b10599236b7fe4611a626c094c498285fe154d0000000000002251206fe7a8c7c0f006badd7005649676a0b10599236b7fe4611a626c094c498285feed4d00000000000016001490d94123efc6d967521864dc4be4e98bf249f192de4f00000000000017a9148eb9f11f1a28120eba96fcf1cd05fc5204825dd887de4f000000000000225120ede069147069de47efc24408b54649864463108ddeed6d541be8c1f3470c6bf3de4f000000000000225120ede069147069de47efc24408b54649864463108ddeed6d541be8c1f3470c6bf3de4f000000000000225120ede069147069de47efc24408b54649864463108ddeed6d541be8c1f3470c6bf36c0f00000000000017a914ea6b832a05c6ca578baa3836f3f25553d41068a587580200000000000017a914db2c787176a8119df843ae823cc648ed7cdf361b87580200000000000017a914db2c787176a8119df843ae823cc648ed7cdf361b87580200000000000017a914db2c787176a8119df843ae823cc648ed7cdf361b87580200000000000017a914db2c787176a8119df843ae823cc648ed7cdf361b87580200000000000017a914db2c787176a8119df843ae823cc648ed7cdf361b87580200000000000017a914db2c787176a8119df843ae823cc648ed7cdf361b87580200000000000017a914db2c787176a8119df843ae823cc648ed7cdf361b87580200000000000017a914db2c787176a8119df843ae823cc648ed7cdf361b87580200000000000017a914db2c787176a8119df843ae823cc648ed7cdf361b87919d02000000000017a914db2c787176a8119df843ae823cc648ed7cdf361b8702473044022074deb019d931c8e9b5e575d9e9c20f6ef647cb4de9b79ebdecb859814725bfdd02200c5b7bec976c1a8723301082369205913ca433629ab3c33480bb0cc1128e7109012103a820f7acbb973816c916ea4b68935b2769f0c6e4875f0658503b2c92671712ca0247304402205828e78e241b8d809e95f0f24638081ed36d91b398a9d9c1385f1f6194d97a1902203551f179957768ab51a079d29a7698c56953217ed56ca479e375381d36a4190f012103a820f7acbb973816c916ea4b68935b2769f0c6e4875f0658503b2c92671712ca0247304402205cd4bb03da0b24800814a7ec016f5dbd7252da5c7dbb2c1d9bb820288006de7e02203851471337baa17e7b7131699f4fc17c29d3b0b4fae4bd3581a68e875c2ab95d012103a820f7acbb973816c916ea4b68935b2769f0c6e4875f0658503b2c92671712ca02463043022039cb40d82941c93f40b8114527ea42604e60f054118257d429268cd77b8b4155021f500ca593b88074b901794b37a652755d6602eb7af64f101a2be0fa8b22d4e5012103a820f7acbb973816c916ea4b68935b2769f0c6e4875f0658503b2c92671712ca02473044022063f2c946abf64204315df882414722a03f776cc7b60ccf9303f859450036fa57022027ae530c8c24c28ce1c60c264108fc67fde3abfb77d3f89202c38f789db06031012103a820f7acbb973816c916ea4b68935b2769f0c6e4875f0658503b2c92671712ca024730440220110bdde8ec39d65b15653a9f15a37c7d12dc458d18136b7b3db2afcacb12648a022013353c384d380ce29151d97c0e839f0d4edee64e1a735aaa138e1db00f8007f3012103a820f7acbb973816c916ea4b68935b2769f0c6e4875f0658503b2c92671712ca0248304502210094a72b50f119cef70bda8cd7925820cdf6cd1cbe517c6290add44a315e65c65c0220750c99b19e8c931a9023dc5e31758e1f1f7cc8a1d815e390b78601bc486b60c5012103a820f7acbb973816c916ea4b68935b2769f0c6e4875f0658503b2c92671712ca02473044022026b024cd16487c1848788deb16f6b452cdf7753bf5f6e34a89c8906fd0f76583022062123beaaf9c90d9a62cf6cf374e09d87a8ea4ba2a6541893af5eff690d95e90012103a820f7acbb973816c916ea4b68935b2769f0c6e4875f0658503b2c92671712ca024830450221008d09b767d1404a7c1300e96e5e2a5ea9d69a0c27d1bcd7e2bbe9537f81c5398e0220687110d04cc75858ac1633698ec7096ea9cd951f78b8d4764466e115b7fd78c8012103a820f7acbb973816c916ea4b68935b2769f0c6e4875f0658503b2c92671712ca0141e1a83fb3fe449551549e9b070037750cfecf92b9926a355cec8c9a7e7969dbc23e04ece09f6f151c05bdba10e2c418a541533b48fd4399400b97490021eef8e583014138ed70aa9eb3631e7b8c2a199deecaecaaa403e8eff1b62f54260f04be2eadc0627d174ae7673c6d2f17ca7686068719d700664f341a20ae907c9f45ac556b34830141d99a707909a5c85d0b9b8ff6eaeaf308c42a7e4b8021dc0c4677f317869c9c7365c8c503faa4cd8469463ef395317b48f0b2f30c143a5a07895689c6dbcf7acf830141b60bd8303114b4996a9a5b25cf743724169d65c725b176e298a173814c4f48a0fff403a75cbd94ff1bebc6e6fc551cadfee6847af91c62851822132faa92ab65830141277612615793b08b0f18c6631bdd2509f3ed32637255cd89d42bf2f44ca2ef0e8aebfd0c0b6ef50d5d06b6e5e2727a99bdc2a943b995105d0cc99671fd23abf583014179264742f2eac73d5f09924563a5ee6879d20f621fc38a513316ea8883111a47da7d94387916908550fa10deae0a1884f5971cc140377277b26a4b0fc5688201830141057cebf93c88c9b17a9044612dc2a6c64ce460e284ad17a1347707af10a0810b2d5d7ed195f71d590a9c3fdc046a0f74e96685f28c7acf9825b59486283dc9a68301411d4bbc4a3042a24b0e3e8b7e2e93a91a87c58350c1ecfd56ddd23d7898b31aa523c00f8d6734a35925309a6cdde1e66af1cf02dbbbc0105eb9e9c6d6c4c22a868302483045022100aadcd8f11b1c7350c4aab1ecf2cebf8a08d5fc256b00aeb9bc04e27f6e31f8cc022079e0616d27835c278fac9f7af8f95af868004be4c05c5abcc465f7f6f18b43ed012103a820f7acbb973816c916ea4b68935b2769f0c6e4875f0658503b2c92671712ca00000000"
}