{
  "txid": "6e0ae197a30f26e0de708f95e52ebb957de42ace5c08ab62092454c58e066f51",
  "version": 1,
  "locktime": 0,
  "vin": [
    {
      "txid": "4b02e873ec5d8aeff31589bef604caa0d71aa0175dbc30cda5932353fbb8768d",
      "vout": 10,
      "prevout": {
        "scriptpubkey": "76a9148b23a13fe2a5ce4aed0eb4bdbc3ebc92c796c67b88ac",
        "scriptpubkey_asm": "OP_DUP OP_HASH160 OP_PUSHBYTES_20 8b23a13fe2a5ce4aed0eb4bdbc3ebc92c796c67b OP_EQUALVERIFY OP_CHECKSIG",
        "scriptpubkey_type": "p2pkh",
        "scriptpubkey_address": "1DghcGmtchZdaYa5yFCxstj3pE9iuVZSVL",
        "value": 1029600
      },
      "scriptsig": "47304402201a7aab3cf2624f6bd678bdd89af906d758f30cacb539bf3b77755651dc9dd65f0220796a65369bc644e9f44ec81f7f3c8b7bde458c282dcec2b6975020d59f87d6c0012103007e5de2df149420524bb79a50cf51f8bed6a99cfcd0e14a12f547a93a93138c",
      "scriptsig_asm": "OP_PUSHBYTES_71 304402201a7aab3cf2624f6bd678bdd89af906d758f30cacb539bf3b77755651dc9dd65f0220796a65369bc644e9f44ec81f7f3c8b7bde458c282dcec2b6975020d59f87d6c001 OP_PUSHBYTES_33 03007e5de2df149420524bb79a50cf51f8bed6a99cfcd0e14a12f547a93a93138c",
      "is_coinbase": false,
      "sequence": 2147483648
    }
  ],
  "vout": [
    {
      "scriptpubkey": "00144c2958b24aa437ddf376ff3cddb90d4b91b89734",
      "scriptpubkey_asm": "OP_0 OP_PUSHBYTES_20 4c2958b24aa437ddf376ff3cddb90d4b91b89734",
      "scriptpubkey_type": "v0_p2wpkh",
      "scriptpubkey_address": "bc1qfs543vj25smamumklu7dmwgdfwgm39e57xy4rw",
      "value": 740000
    },
    {
      "scriptpubkey": "76a91456c0bc2f50bc150d4ea122e66db7c48b01b9722988ac",
      "scriptpubkey_asm": "OP_DUP OP_HASH160 OP_PUSHBYTES_20 56c0bc2f50bc150d4ea122e66db7c48b01b97229 OP_EQUALVERIFY OP_CHECKSIG",
      "scriptpubkey_type": "p2pkh",
      "scriptpubkey_address": "18uhzy546Qz7CxRNkHohg4W9VSkfTkbSvY",
      "value": 248830
    }
  ],
  "size": 222,
  "weight": 888,
  "fee": 40770,
  "status": {
    "confirmed": true,
    "block_height": 834460,
    "block_hash": "00000000000000000000484a79b643b2524bbce82e5d8a442013fa5b8905ed98",
    "block_time": 1710307468
  },
  "hex": "01000000018d76b8fb532393a5cd30bc5d17a01ad7a0ca04f6be8915f3ef8a5dec73e8024b0a0000006a47304402201a7aab3cf2624f6bd678bdd89af906d758f30cacb539bf3b77755651dc9dd65f0220796a65369bc644e9f44ec81f7f3c8b7bde458c282dcec2b6975020d59f87d6c0012103007e5de2df149420524bb79a50cf51f8bed6a99cfcd0e14a12f547a93a93138c0000008002a04a0b00000000001600144c2958b24aa437ddf376ff3cddb90d4b91b89734fecb0300000000001976a91456c0bc2f50bc150d4ea122e66db7c48b01b9722988ac00000000"
}