{
  "txid": "6e0aa90945fbbfde4c43bfef3caadfda10cffcccf715e1158a15c6761857f938",
  "version": 1,
  "locktime": 0,
  "vin": [
    {
      "txid": "d99b40e7ad1950104605f17655ee220202f4ff50989856f025b5084f1830bd7b",
      "vout": 1,
      "prevout": {
        "scriptpubkey": "0014bd43e1429fee3198a2448e6aa78be8a55a68efb9",
        "scriptpubkey_asm": "OP_0 OP_PUSHBYTES_20 bd43e1429fee3198a2448e6aa78be8a55a68efb9",
        "scriptpubkey_type": "v0_p2wpkh",
        "scriptpubkey_address": "bc1qh4p7zs5lacce3gjy3e420zlg54dx3maemve747",
        "value": 14703
      },
      "scriptsig": "",
      "scriptsig_asm": "",
      "witness": [
        "304402203a7d90c7c0358f0a8dddb3fafa4feded3b1ef9388a8e30b5fa496b33af66b164022018e0b06be135248ac215b52b6ad4d055950e117166b626255265cfd8953b341f01",
        "029bc3d9616e4b62981fe627fa5cdfceefb9186fb7eb14b2aba1d58eb3264a6db0"
      ],
      "is_coinbase": false,
      "sequence": 4294967295
    },
    {
      "txid": "ece215fd0c9da52991e8d7be76efa45f675406cdc9b6c4923eafbee0ad4ef22d",
      "vout": 1,
      "prevout": {
        "scriptpubkey": "0014bd43e1429fee3198a2448e6aa78be8a55a68efb9",
        "scriptpubkey_asm": "OP_0 OP_PUSHBYTES_20 bd43e1429fee3198a2448e6aa78be8a55a68efb9",
        "scriptpubkey_type": "v0_p2wpkh",
        "scriptpubkey_address": "bc1qh4p7zs5lacce3gjy3e420zlg54dx3maemve747",
        "value": 3371
      },
      "scriptsig": "",
      "scriptsig_asm": "",
      "witness": [
        "304402205e8078f02419ec80bf560f5e38919f20a910ab365110f923411ebc5c90c157bd0220418333841eb73fb4747139e3a608d0fe0b09d721a3967e4f6dafd55ec034b62b01",
        "029bc3d9616e4b62981fe627fa5cdfceefb9186fb7eb14b2aba1d58eb3264a6db0"
      ],
      "is_coinbase": false,
      "sequence": 4294967295
    }
  ],
  "vout": [
    {
      "scriptpubkey": "51206761c0ab4168651aa4a9f915302fa474b29276f60b788201927d0b27bc565cc2",
      "scriptpubkey_asm": "OP_PUSHNUM_1 OP_PUSHBYTES_32 6761c0ab4168651aa4a9f915302fa474b29276f60b788201927d0b27bc565cc2",
      "scriptpubkey_type": "v1_p2tr",
      "scriptpubkey_address": "bc1pvasup26pdpj34f9fly2nqtaywjefyahkpdugyqvj059j00zktnpqqfrdf0",
      "value": 12944
    }
  ],
  "size": 351,
  "weight": 756,
  "fee": 5130,
  "status": {
    "confirmed": true,
    "block_height": 834638,
    "block_hash": "000000000000000000025f742c626208ac87e0b7d15054abb4a19ca2d735a54e",
    "block_time": 1710405325
  },
  "hex": "010000000001027bbd30184f08b525f056989850fff4020222ee5576f10546105019ade7409bd90100000000ffffffff2df24eade0beaf3e92c4b6c9cd0654675fa4ef76bed7e89129a59d0cfd15e2ec0100000000ffffffff0190320000000000002251206761c0ab4168651aa4a9f915302fa474b29276f60b788201927d0b27bc565cc20247304402203a7d90c7c0358f0a8dddb3fafa4feded3b1ef9388a8e30b5fa496b33af66b164022018e0b06be135248ac215b52b6ad4d055950e117166b626255265cfd8953b341f0121029bc3d9616e4b62981fe627fa5cdfceefb9186fb7eb14b2aba1d58eb3264a6db00247304402205e8078f02419ec80bf560f5e38919f20a910ab365110f923411ebc5c90c157bd0220418333841eb73fb4747139e3a608d0fe0b09d721a3967e4f6dafd55ec034b62b0121029bc3d9616e4b62981fe627fa5cdfceefb9186fb7eb14b2aba1d58eb3264a6db000000000"
}