{
  "txid": "6e14f95cbc3724c4970901139a1323e2ab33d995aab43d3589e0e04ffe095b50",
  "version": 1,
  "locktime": 0,
  "vin": [
    {
      "txid": "124061da6fcf428941aa7efc78e6ccbfcbab66fc5d6a05104d28e13337a92b3e",
      "vout": 0,
      "prevout": {
        "scriptpubkey": "51208fd422652691331505f0f34fde363ee681ef124efc899bf82cbd4fba91a405c0",
        "scriptpubkey_asm": "OP_PUSHNUM_1 OP_PUSHBYTES_32 8fd422652691331505f0f34fde363ee681ef124efc899bf82cbd4fba91a405c0",
        "scriptpubkey_type": "v1_p2tr",
        "scriptpubkey_address": "bc1p3l2zyefxjye32p0s7d8aud37u6q77yjwljyeh7pvh48m4ydyqhqqqhzk0c",
        "value": 2463
      },
      "scriptsig": "",
      "scriptsig_asm": "",
      "witness": [
        "31f4002b27241a23f53a2c89b387699977f43f1ec82fd424131331020d448bf0621bd2583b710b6834ae272ed67fc37ccd43d8bc520b33be35e6eb2f090c53a683",
        "20be11f1d0580232188e877ef283eb5a1efd4e9e5290a2633605d666f59ad3fff2ac00630461746f6d03646d743ba16461726773a468626974776f726b6364313234306b6d696e745f7469636b657264766d7078656e6f6e63651a0016ef826474696d651a65eb4b8e68",
        "c1be11f1d0580232188e877ef283eb5a1efd4e9e5290a2633605d666f59ad3fff2"
      ],
      "is_coinbase": false,
      "sequence": 4294967293
    }
  ],
  "vout": [
    {
      "scriptpubkey": "0014027bc455b49578636e080eabed6048b02ab3985f",
      "scriptpubkey_asm": "OP_0 OP_PUSHBYTES_20 027bc455b49578636e080eabed6048b02ab3985f",
      "scriptpubkey_type": "v0_p2wpkh",
      "scriptpubkey_address": "bc1qqfaug4d5j4uxxmsgp6476czgkq4t8xzl6u3zjv",
      "value": 1000
    }
  ],
  "size": 292,
  "weight": 538,
  "fee": 1463,
  "status": {
    "confirmed": true,
    "block_height": 834464,
    "block_hash": "0000000000000000000177a0869a911a2b65c9bdcd5a8bcb02b68f305bee848e",
    "block_time": 1710308296
  },
  "hex": "010000000001013e2ba93733e1284d10056a5dfc66abcbbfcce678fc7eaa418942cf6fda6140120000000000fdffffff01e803000000000000160014027bc455b49578636e080eabed6048b02ab3985f034131f4002b27241a23f53a2c89b387699977f43f1ec82fd424131331020d448bf0621bd2583b710b6834ae272ed67fc37ccd43d8bc520b33be35e6eb2f090c53a6836a20be11f1d0580232188e877ef283eb5a1efd4e9e5290a2633605d666f59ad3fff2ac00630461746f6d03646d743ba16461726773a468626974776f726b6364313234306b6d696e745f7469636b657264766d7078656e6f6e63651a0016ef826474696d651a65eb4b8e6821c1be11f1d0580232188e877ef283eb5a1efd4e9e5290a2633605d666f59ad3fff200000000"
}