{
  "txid": "6e3591997e165ec7d5bcff87ab35d5df2fb09ec6c5f902524564ad16d81fd1a7",
  "version": 1,
  "locktime": 0,
  "vin": [
    {
      "txid": "38a8a12400d638e4d4967b150dd709bbfff714a2ebd4df64350beda76bac1221",
      "vout": 1,
      "prevout": {
        "scriptpubkey": "0014b917b60c141e3fc5dfc92b9ee92e07314a68a973",
        "scriptpubkey_asm": "OP_0 OP_PUSHBYTES_20 b917b60c141e3fc5dfc92b9ee92e07314a68a973",
        "scriptpubkey_type": "v0_p2wpkh",
        "scriptpubkey_address": "bc1qhytmvrq5rcluth7f9w0wjts8x99x32tnc93ce0",
        "value": 4347
      },
      "scriptsig": "",
      "scriptsig_asm": "",
      "witness": [
        "3044022041b1b30f6c1c039aa8b0d475b6877661d17ab0632310151ad113e8f24e7e202602205dcf03ecb82f5960b1dbe08e8a529173f957cf05fae3dfa57a4b33913825f4e601",
        "022ba7988c695286a7bd1e044b1b361ad863342c392bd8713fa1e49798949e1f5f"
      ],
      "is_coinbase": false,
      "sequence": 4294967295
    },
    {
      "txid": "fe157e42ea26b11ec799a446809f28617f50457337b6954d0c0e3fbff0b0f1e0",
      "vout": 1,
      "prevout": {
        "scriptpubkey": "00145253406a02a1191c9830d5807d9347896a3e0f2f",
        "scriptpubkey_asm": "OP_0 OP_PUSHBYTES_20 5253406a02a1191c9830d5807d9347896a3e0f2f",
        "scriptpubkey_type": "v0_p2wpkh",
        "scriptpubkey_address": "bc1q2ff5q6sz5yv3exps6kq8my68394rure0jezpg5",
        "value": 619240
      },
      "scriptsig": "",
      "scriptsig_asm": "",
      "witness": [
        "3045022100f495e439c7f1936a967d1b5552cadc631d94aacbe640551f54c5f3d9c93e3981022049bfb3f667c4fad0710d51d4ed032b1b46898e0d0a0635b3c8e592d8a2cc21d501",
        "03cef41f0af1365cf9bb6d7cee4759d64588b1ea27d4ceaa4bfe4feccfe8ae2c1f"
      ],
      "is_coinbase": false,
      "sequence": 4294967295
    }
  ],
  "vout": [
    {
      "scriptpubkey": "76a9140e2c95d80095fd5986d46949aee45d18daf1e98488ac",
      "scriptpubkey_asm": "OP_DUP OP_HASH160 OP_PUSHBYTES_20 0e2c95d80095fd5986d46949aee45d18daf1e984 OP_EQUALVERIFY OP_CHECKSIG",
      "scriptpubkey_type": "p2pkh",
      "scriptpubkey_address": "12HwsXemLJpyATfciVD8DTDKTr6dBHx9gm",
      "value": 204150
    },
    {
      "scriptpubkey": "001471e59152d89b93c4cb0b76b95cbbacce80ed1cbb",
      "scriptpubkey_asm": "OP_0 OP_PUSHBYTES_20 71e59152d89b93c4cb0b76b95cbbacce80ed1cbb",
      "scriptpubkey_type": "v0_p2wpkh",
      "scriptpubkey_address": "bc1qw8jez5kcnwfufjctw6u4ewave6qw689m8y9j9r",
      "value": 416278
    }
  ],
  "size": 374,
  "weight": 845,
  "fee": 3159,
  "status": {
    "confirmed": true,
    "block_height": 834638,
    "block_hash": "000000000000000000025f742c626208ac87e0b7d15054abb4a19ca2d735a54e",
    "block_time": 1710405325
  },
  "hex": "010000000001022112ac6ba7ed0b3564dfd4eba214f7ffbb09d70d157b96d4e438d60024a1a8380100000000ffffffffe0f1b0f0bf3f0e0c4d95b6377345507f61289f8046a499c71eb126ea427e15fe0100000000ffffffff02761d0300000000001976a9140e2c95d80095fd5986d46949aee45d18daf1e98488ac165a06000000000016001471e59152d89b93c4cb0b76b95cbbacce80ed1cbb02473044022041b1b30f6c1c039aa8b0d475b6877661d17ab0632310151ad113e8f24e7e202602205dcf03ecb82f5960b1dbe08e8a529173f957cf05fae3dfa57a4b33913825f4e60121022ba7988c695286a7bd1e044b1b361ad863342c392bd8713fa1e49798949e1f5f02483045022100f495e439c7f1936a967d1b5552cadc631d94aacbe640551f54c5f3d9c93e3981022049bfb3f667c4fad0710d51d4ed032b1b46898e0d0a0635b3c8e592d8a2cc21d5012103cef41f0af1365cf9bb6d7cee4759d64588b1ea27d4ceaa4bfe4feccfe8ae2c1f00000000"
}