{
  "txid": "6e353056bb6be829297e16a4ef37cb805eccef2f87415cf8c8e83c8ef6d9111e",
  "version": 2,
  "locktime": 0,
  "vin": [
    {
      "txid": "acc3ba00869acb582a3f2904ce3a11dd3779350ce234063fc7d0959246213364",
      "vout": 25,
      "prevout": {
        "scriptpubkey": "5120866248d9e4d44b88069d2cf97f4b76e8f84eea145776b7cdcfa7b018f2334525",
        "scriptpubkey_asm": "OP_PUSHNUM_1 OP_PUSHBYTES_32 866248d9e4d44b88069d2cf97f4b76e8f84eea145776b7cdcfa7b018f2334525",
        "scriptpubkey_type": "v1_p2tr",
        "scriptpubkey_address": "bc1pse3y3k0y639csp5a9nuh7jmkaruya6s52amt0nw057cp3u3ng5js0dvnzc",
        "value": 1806
      },
      "scriptsig": "",
      "scriptsig_asm": "",
      "witness": [
        "390fe77936676605cfe8455531393076d7c6bab5d06c229e49c71493f07197c39eebba64791f4e17c03e6197c8370cf71d80fe894e19e82253ccc1534bf69afd",
        "20c1ef35077edd35f2a03292d3fd8d485c56428fe12b0d0507f6e1ad0efc9f468fac0063036f726401010a746578742f706c61696e00357b2270223a226272632d3230222c226f70223a226d696e74222c227469636b223a22646f6765222c22616d74223a2234323030227d68",
        "c1c1ef35077edd35f2a03292d3fd8d485c56428fe12b0d0507f6e1ad0efc9f468f"
      ],
      "is_coinbase": false,
      "sequence": 4261412863
    }
  ],
  "vout": [
    {
      "scriptpubkey": "00147a665de7a370f4c9b372ab1fae587500a5bcbdb4",
      "scriptpubkey_asm": "OP_0 OP_PUSHBYTES_20 7a665de7a370f4c9b372ab1fae587500a5bcbdb4",
      "scriptpubkey_type": "v0_p2wpkh",
      "scriptpubkey_address": "bc1q0fn9mearwr6vnvmj4v06ukr4qzjme0d565dzcx",
      "value": 294
    }
  ],
  "size": 294,
  "weight": 540,
  "fee": 1512,
  "status": {
    "confirmed": true,
    "block_height": 834460,
    "block_hash": "00000000000000000000484a79b643b2524bbce82e5d8a442013fa5b8905ed98",
    "block_time": 1710307468
  },
  "hex": "02000000000101643321469295d0c73f0634e20c357937dd113ace04293f2a58cb9a8600bac3ac1900000000fffffffd0126010000000000001600147a665de7a370f4c9b372ab1fae587500a5bcbdb40340390fe77936676605cfe8455531393076d7c6bab5d06c229e49c71493f07197c39eebba64791f4e17c03e6197c8370cf71d80fe894e19e82253ccc1534bf69afd6d20c1ef35077edd35f2a03292d3fd8d485c56428fe12b0d0507f6e1ad0efc9f468fac0063036f726401010a746578742f706c61696e00357b2270223a226272632d3230222c226f70223a226d696e74222c227469636b223a22646f6765222c22616d74223a2234323030227d6821c1c1ef35077edd35f2a03292d3fd8d485c56428fe12b0d0507f6e1ad0efc9f468f00000000"
}