{
  "txid": "6e40aa095f8ec9fc52a94398042cbfd9f1a1075a39b616b223ea6dba287dbb67",
  "version": 2,
  "locktime": 0,
  "vin": [
    {
      "txid": "acc3ba00869acb582a3f2904ce3a11dd3779350ce234063fc7d0959246213364",
      "vout": 50,
      "prevout": {
        "scriptpubkey": "512085a01944f62f3d8786678e5913cf00464f35848e359c5b1440edfb8d9886b1bd",
        "scriptpubkey_asm": "OP_PUSHNUM_1 OP_PUSHBYTES_32 85a01944f62f3d8786678e5913cf00464f35848e359c5b1440edfb8d9886b1bd",
        "scriptpubkey_type": "v1_p2tr",
        "scriptpubkey_address": "bc1pskspj38k9u7c0pn83ev38ncqge8ntpywxkw9k9zqahacmxyxkx7se4gp96",
        "value": 1806
      },
      "scriptsig": "",
      "scriptsig_asm": "",
      "witness": [
        "c103bda473f8194bb4861c9c832088ec0e6e7f3e3530785f453a7fb0b88c44cf04105f23fc281e8353d3f596c2ea8dc94aca59dbc5759b36ee70b574de0713cb",
        "20fc70c7ee1d209abc6ec19084f0ff0e116aafe360cd2384f1d6db17d35e5f9981ac0063036f726401010a746578742f706c61696e00357b2270223a226272632d3230222c226f70223a226d696e74222c227469636b223a22646f6765222c22616d74223a2234323030227d68",
        "c1fc70c7ee1d209abc6ec19084f0ff0e116aafe360cd2384f1d6db17d35e5f9981"
      ],
      "is_coinbase": false,
      "sequence": 4261412863
    }
  ],
  "vout": [
    {
      "scriptpubkey": "00147a665de7a370f4c9b372ab1fae587500a5bcbdb4",
      "scriptpubkey_asm": "OP_0 OP_PUSHBYTES_20 7a665de7a370f4c9b372ab1fae587500a5bcbdb4",
      "scriptpubkey_type": "v0_p2wpkh",
      "scriptpubkey_address": "bc1q0fn9mearwr6vnvmj4v06ukr4qzjme0d565dzcx",
      "value": 294
    }
  ],
  "size": 294,
  "weight": 540,
  "fee": 1512,
  "status": {
    "confirmed": true,
    "block_height": 834460,
    "block_hash": "00000000000000000000484a79b643b2524bbce82e5d8a442013fa5b8905ed98",
    "block_time": 1710307468
  },
  "hex": "02000000000101643321469295d0c73f0634e20c357937dd113ace04293f2a58cb9a8600bac3ac3200000000fffffffd0126010000000000001600147a665de7a370f4c9b372ab1fae587500a5bcbdb40340c103bda473f8194bb4861c9c832088ec0e6e7f3e3530785f453a7fb0b88c44cf04105f23fc281e8353d3f596c2ea8dc94aca59dbc5759b36ee70b574de0713cb6d20fc70c7ee1d209abc6ec19084f0ff0e116aafe360cd2384f1d6db17d35e5f9981ac0063036f726401010a746578742f706c61696e00357b2270223a226272632d3230222c226f70223a226d696e74222c227469636b223a22646f6765222c22616d74223a2234323030227d6821c1fc70c7ee1d209abc6ec19084f0ff0e116aafe360cd2384f1d6db17d35e5f998100000000"
}