{
  "txid": "6e4b5031cecf29745db54b4719a1a627046b28164edaf8571e722f62c649f111",
  "version": 2,
  "locktime": 0,
  "vin": [
    {
      "txid": "83b1303fd891f1954cd87c1d288a2a6bca51045bdda40133839448bcf0a9a8be",
      "vout": 22,
      "prevout": {
        "scriptpubkey": "512060f7773b835bec3c2dedf793ec587e136506dd9b2c5be83aded8b9d90807516d",
        "scriptpubkey_asm": "OP_PUSHNUM_1 OP_PUSHBYTES_32 60f7773b835bec3c2dedf793ec587e136506dd9b2c5be83aded8b9d90807516d",
        "scriptpubkey_type": "v1_p2tr",
        "scriptpubkey_address": "bc1pvrmhwwurt0krct0d77f7ckr7zdjsdhvm93d7swk7mzuajzq829kszgvhsy",
        "value": 2862
      },
      "scriptsig": "",
      "scriptsig_asm": "",
      "witness": [
        "c56bec5662886140d45dee47e60049cd1b59e09bd6b472db517d74aaf259f0d48213488d5668ce099f8ea0d159969439b0390a99c023f86c2ec7f30b3de31ba0",
        "20a3340bb6b971d80b55d69ace603f18006c2022a2c2717b8a58784fd4345e6959ac0063036f726401011e6170706c69636174696f6e2f6a736f6e3b636861727365743d7574662d38004cd37b2270223a22706f772d3230222c226f70223a226d696e74222c227469636b223a2250455045222c22616d74223a2231303030222c22736f6c7574696f6e223a22504550453a62633170687834336d6b6632633236366e63707a6c7a7067307636616b6a73713470386379736379327a706d746e38326e367a616c7667713972663737363a303030303030303030303030303030303030303139393431613561653132383937363539383134343239323533333030353762306461393666336465613163353a3330363134323237323132227d68",
        "c143aa8de0991fd4b61b82f8195f6c835bc5de941a82824922fffa09f24edd0022"
      ],
      "is_coinbase": false,
      "sequence": 4294967295
    }
  ],
  "vout": [
    {
      "scriptpubkey": "5120b9ab1dd92ac2b5a9e022f88287b35db4a00a84f8243045083b5ccea9e85dfb10",
      "scriptpubkey_asm": "OP_PUSHNUM_1 OP_PUSHBYTES_32 b9ab1dd92ac2b5a9e022f88287b35db4a00a84f8243045083b5ccea9e85dfb10",
      "scriptpubkey_type": "v1_p2tr",
      "scriptpubkey_address": "bc1phx43mkf2c266ncpzlzpg0v6akjsq4p8cyscy2zpmtn82n6zalvgq9rf776",
      "value": 546
    }
  ],
  "size": 487,
  "weight": 769,
  "fee": 2316,
  "status": {
    "confirmed": true,
    "block_height": 834460,
    "block_hash": "00000000000000000000484a79b643b2524bbce82e5d8a442013fa5b8905ed98",
    "block_time": 1710307468
  },
  "hex": "02000000000101bea8a9f0bc4894833301a4dd5b0451ca6b2a8a281d7cd84c95f191d83f30b1831600000000ffffffff012202000000000000225120b9ab1dd92ac2b5a9e022f88287b35db4a00a84f8243045083b5ccea9e85dfb100340c56bec5662886140d45dee47e60049cd1b59e09bd6b472db517d74aaf259f0d48213488d5668ce099f8ea0d159969439b0390a99c023f86c2ec7f30b3de31ba0fd200120a3340bb6b971d80b55d69ace603f18006c2022a2c2717b8a58784fd4345e6959ac0063036f726401011e6170706c69636174696f6e2f6a736f6e3b636861727365743d7574662d38004cd37b2270223a22706f772d3230222c226f70223a226d696e74222c227469636b223a2250455045222c22616d74223a2231303030222c22736f6c7574696f6e223a22504550453a62633170687834336d6b6632633236366e63707a6c7a7067307636616b6a73713470386379736379327a706d746e38326e367a616c7667713972663737363a303030303030303030303030303030303030303139393431613561653132383937363539383134343239323533333030353762306461393666336465613163353a3330363134323237323132227d6821c143aa8de0991fd4b61b82f8195f6c835bc5de941a82824922fffa09f24edd002200000000"
}