{
  "txid": "6e5d30a82bc791315d5aeef5de4f69411b80ea6268afcef94ef947b9be7a0c6b",
  "version": 2,
  "locktime": 0,
  "vin": [
    {
      "txid": "acc3ba00869acb582a3f2904ce3a11dd3779350ce234063fc7d0959246213364",
      "vout": 181,
      "prevout": {
        "scriptpubkey": "512054517964fdecea3c5d5a24cfdef0a271151d1da3b54ae6d58107142a25d14c07",
        "scriptpubkey_asm": "OP_PUSHNUM_1 OP_PUSHBYTES_32 54517964fdecea3c5d5a24cfdef0a271151d1da3b54ae6d58107142a25d14c07",
        "scriptpubkey_type": "v1_p2tr",
        "scriptpubkey_address": "bc1p23ghje8aan4rch26yn8aau9zwy2368drk49wd4vpqu2z5fw3fsrsz33ce2",
        "value": 1806
      },
      "scriptsig": "",
      "scriptsig_asm": "",
      "witness": [
        "a75845e416b3dc144d58163d2c69a9cb310f5e36c74de9930c26d9136eb5a2334d20a4c8a7f3820dcdc8b8f04e10a43a598da73300d3b654c37283a70f5b1876",
        "20b2e9bd95477c0b918d7c392a11f562339d6b66ed0863675dd41bd7ebc6a2c13dac0063036f726401010a746578742f706c61696e00357b2270223a226272632d3230222c226f70223a226d696e74222c227469636b223a22646f6765222c22616d74223a2234323030227d68",
        "c0b2e9bd95477c0b918d7c392a11f562339d6b66ed0863675dd41bd7ebc6a2c13d"
      ],
      "is_coinbase": false,
      "sequence": 4261412863
    }
  ],
  "vout": [
    {
      "scriptpubkey": "00147a665de7a370f4c9b372ab1fae587500a5bcbdb4",
      "scriptpubkey_asm": "OP_0 OP_PUSHBYTES_20 7a665de7a370f4c9b372ab1fae587500a5bcbdb4",
      "scriptpubkey_type": "v0_p2wpkh",
      "scriptpubkey_address": "bc1q0fn9mearwr6vnvmj4v06ukr4qzjme0d565dzcx",
      "value": 294
    }
  ],
  "size": 294,
  "weight": 540,
  "fee": 1512,
  "status": {
    "confirmed": true,
    "block_height": 834460,
    "block_hash": "00000000000000000000484a79b643b2524bbce82e5d8a442013fa5b8905ed98",
    "block_time": 1710307468
  },
  "hex": "02000000000101643321469295d0c73f0634e20c357937dd113ace04293f2a58cb9a8600bac3acb500000000fffffffd0126010000000000001600147a665de7a370f4c9b372ab1fae587500a5bcbdb40340a75845e416b3dc144d58163d2c69a9cb310f5e36c74de9930c26d9136eb5a2334d20a4c8a7f3820dcdc8b8f04e10a43a598da73300d3b654c37283a70f5b18766d20b2e9bd95477c0b918d7c392a11f562339d6b66ed0863675dd41bd7ebc6a2c13dac0063036f726401010a746578742f706c61696e00357b2270223a226272632d3230222c226f70223a226d696e74222c227469636b223a22646f6765222c22616d74223a2234323030227d6821c0b2e9bd95477c0b918d7c392a11f562339d6b66ed0863675dd41bd7ebc6a2c13d00000000"
}