{
  "txid": "6e67b932f5e1e40ca622ef87b1396616729b068d79e7ba9cf74ea11d293132f2",
  "version": 2,
  "locktime": 0,
  "vin": [
    {
      "txid": "acc3ba00869acb582a3f2904ce3a11dd3779350ce234063fc7d0959246213364",
      "vout": 37,
      "prevout": {
        "scriptpubkey": "5120a82fbc86593d07f395930f73ec345397aac968ee592412cac25823fef5929ae4",
        "scriptpubkey_asm": "OP_PUSHNUM_1 OP_PUSHBYTES_32 a82fbc86593d07f395930f73ec345397aac968ee592412cac25823fef5929ae4",
        "scriptpubkey_type": "v1_p2tr",
        "scriptpubkey_address": "bc1p4qhmepje85rl89vnpae7cdznj74vj68wtyjp9jkztq3laavjntjql3k8zq",
        "value": 1806
      },
      "scriptsig": "",
      "scriptsig_asm": "",
      "witness": [
        "9a52b69bafa1664c0a82768bfade4df5b1934b39db21b8680b3deea77920e23503d2f29f4e4338fcce6884b98f4bd5eae8b9f5d61dd18d40b869afe038481744",
        "20eb4a59c50c57e6e1bc6fb1ffb6e7c8e7ab5b8f2849d16fc138f7d9c3a3c34d0dac0063036f726401010a746578742f706c61696e00357b2270223a226272632d3230222c226f70223a226d696e74222c227469636b223a22646f6765222c22616d74223a2234323030227d68",
        "c0eb4a59c50c57e6e1bc6fb1ffb6e7c8e7ab5b8f2849d16fc138f7d9c3a3c34d0d"
      ],
      "is_coinbase": false,
      "sequence": 4261412863
    }
  ],
  "vout": [
    {
      "scriptpubkey": "00147a665de7a370f4c9b372ab1fae587500a5bcbdb4",
      "scriptpubkey_asm": "OP_0 OP_PUSHBYTES_20 7a665de7a370f4c9b372ab1fae587500a5bcbdb4",
      "scriptpubkey_type": "v0_p2wpkh",
      "scriptpubkey_address": "bc1q0fn9mearwr6vnvmj4v06ukr4qzjme0d565dzcx",
      "value": 294
    }
  ],
  "size": 294,
  "weight": 540,
  "fee": 1512,
  "status": {
    "confirmed": true,
    "block_height": 834460,
    "block_hash": "00000000000000000000484a79b643b2524bbce82e5d8a442013fa5b8905ed98",
    "block_time": 1710307468
  },
  "hex": "02000000000101643321469295d0c73f0634e20c357937dd113ace04293f2a58cb9a8600bac3ac2500000000fffffffd0126010000000000001600147a665de7a370f4c9b372ab1fae587500a5bcbdb403409a52b69bafa1664c0a82768bfade4df5b1934b39db21b8680b3deea77920e23503d2f29f4e4338fcce6884b98f4bd5eae8b9f5d61dd18d40b869afe0384817446d20eb4a59c50c57e6e1bc6fb1ffb6e7c8e7ab5b8f2849d16fc138f7d9c3a3c34d0dac0063036f726401010a746578742f706c61696e00357b2270223a226272632d3230222c226f70223a226d696e74222c227469636b223a22646f6765222c22616d74223a2234323030227d6821c0eb4a59c50c57e6e1bc6fb1ffb6e7c8e7ab5b8f2849d16fc138f7d9c3a3c34d0d00000000"
}