{
  "txid": "6e84008da1582804ff67c02031cdd97fd022fa91d62dcfc38569e32cd0687253",
  "version": 1,
  "locktime": 0,
  "vin": [
    {
      "txid": "3e6152bbfa467d185f9ee7f497c9171acc046738b3dfc5c813c68990497ee4b1",
      "vout": 7,
      "prevout": {
        "scriptpubkey": "00141b1d17734d294511758539596b9305a944f22441",
        "scriptpubkey_asm": "OP_0 OP_PUSHBYTES_20 1b1d17734d294511758539596b9305a944f22441",
        "scriptpubkey_type": "v0_p2wpkh",
        "scriptpubkey_address": "bc1qrvw3wu6d99z3zav989vkhyc949z0yfzp3ny2tr",
        "value": 155376458
      },
      "scriptsig": "",
      "scriptsig_asm": "",
      "witness": [
        "304402202c725dfddb9476721ba7b038417927ab82a1d6824b37be51a4e79aff39b577c3022038518d07669493a45a94abf6af73d87876d1c81379fa6b537495cc652b8edbd401",
        "03471cb5a8c3da753f722b0ff87da068198ef184356aca35bfd49b907b5aa707f7"
      ],
      "is_coinbase": false,
      "sequence": 4294967295
    }
  ],
  "vout": [
    {
      "scriptpubkey": "0014d5691375a1f3213691c221736f6538391a6a07c5",
      "scriptpubkey_asm": "OP_0 OP_PUSHBYTES_20 d5691375a1f3213691c221736f6538391a6a07c5",
      "scriptpubkey_type": "v0_p2wpkh",
      "scriptpubkey_address": "bc1q6453xadp7vsndywzy9ek7efc8ydx5p79a0m9e6",
      "value": 155373488
    }
  ],
  "size": 191,
  "weight": 437,
  "fee": 2970,
  "status": {
    "confirmed": true,
    "block_height": 834552,
    "block_hash": "00000000000000000001dd0468a70c94f619251d286585cff57aeb4bd9ede330",
    "block_time": 1710355598
  },
  "hex": "01000000000101b1e47e499089c613c8c5dfb3386704cc1a17c997f4e79e5f187d46fabb52613e0700000000ffffffff01b0cf420900000000160014d5691375a1f3213691c221736f6538391a6a07c50247304402202c725dfddb9476721ba7b038417927ab82a1d6824b37be51a4e79aff39b577c3022038518d07669493a45a94abf6af73d87876d1c81379fa6b537495cc652b8edbd4012103471cb5a8c3da753f722b0ff87da068198ef184356aca35bfd49b907b5aa707f700000000"
}