{
  "txid": "6e8cc4b84cab9df3ab3e1a1a0412b7f2e8a41cf7637961a2c33edbcfead9d894",
  "version": 1,
  "locktime": 0,
  "vin": [
    {
      "txid": "315f54c4c86b3390a6ba7ad8d664e16f4bbfff0f6f63271ce5e8700610512282",
      "vout": 0,
      "prevout": {
        "scriptpubkey": "5120c374d1378c06f44f1b5bba0b5891dcaeaf0672457bd4dd742581089f7c0ad704",
        "scriptpubkey_asm": "OP_PUSHNUM_1 OP_PUSHBYTES_32 c374d1378c06f44f1b5bba0b5891dcaeaf0672457bd4dd742581089f7c0ad704",
        "scriptpubkey_type": "v1_p2tr",
        "scriptpubkey_address": "bc1pcd6dzduvqm6y7x6mhg943ywu46hsvuj9002d6ap9syyf7lq26uzq67ncnh",
        "value": 269819
      },
      "scriptsig": "",
      "scriptsig_asm": "",
      "witness": [
        "6671604e3a723f8222754e46f7f69179bda238a9072eb6143cb6ee272f9e7aa2250d1a75e6752fdc8778b167227d09f04691d921bebdf17aaa3ff2eb129edf9501"
      ],
      "is_coinbase": false,
      "sequence": 4294967295
    },
    {
      "txid": "ed7d4a7648e1d39d23b86e2c5c33415e89b082f0ae07bf569274dc2a06b02e30",
      "vout": 0,
      "prevout": {
        "scriptpubkey": "512088c507958c4effe832d4a9948c98243de1146cf91607fbf2ccfabea007a7552a",
        "scriptpubkey_asm": "OP_PUSHNUM_1 OP_PUSHBYTES_32 88c507958c4effe832d4a9948c98243de1146cf91607fbf2ccfabea007a7552a",
        "scriptpubkey_type": "v1_p2tr",
        "scriptpubkey_address": "bc1p3rzs09vvfml7svk54x2gexpy8hs3gm8ezcrlhukvl2l2qpa8254qkc9t9e",
        "value": 16059
      },
      "scriptsig": "",
      "scriptsig_asm": "",
      "witness": [
        "5ae3b5835b6f8a28589bed294082f39a5e1c3dba4b41281483e04044ba6e2b3057e564a46aa6b25a202af134dd24ce2519c1aaad7c72c155265eda259ebb012801"
      ],
      "is_coinbase": false,
      "sequence": 4294967295
    }
  ],
  "vout": [
    {
      "scriptpubkey": "5120284c7e16ef5d06bd6d34c8e625876ac7b8fcff5cdf076da0e64cec639c8af8c9",
      "scriptpubkey_asm": "OP_PUSHNUM_1 OP_PUSHBYTES_32 284c7e16ef5d06bd6d34c8e625876ac7b8fcff5cdf076da0e64cec639c8af8c9",
      "scriptpubkey_type": "v1_p2tr",
      "scriptpubkey_address": "bc1p9px8u9h0t5rt6mf5ernztpm2c7u0el6umurkmg8xfnkx88y2lryspdzle9",
      "value": 14342
    },
    {
      "scriptpubkey": "00149738c155dfeab58c7dfa513f448a8f8e2796514e",
      "scriptpubkey_asm": "OP_0 OP_PUSHBYTES_20 9738c155dfeab58c7dfa513f448a8f8e2796514e",
      "scriptpubkey_type": "v0_p2wpkh",
      "scriptpubkey_address": "bc1qjuuvz4wla26ccl062yl5fz503cnev52w0pqp8p",
      "value": 268180
    }
  ],
  "size": 302,
  "weight": 800,
  "fee": 3356,
  "status": {
    "confirmed": true,
    "block_height": 834638,
    "block_hash": "000000000000000000025f742c626208ac87e0b7d15054abb4a19ca2d735a54e",
    "block_time": 1710405325
  },
  "hex": "01000000000102822251100670e8e51c27636f0fffbf4b6fe164d6d87abaa690336bc8c4545f310000000000ffffffff302eb0062adc749256bf07aef082b0895e41335c2c6eb8239dd3e148764a7ded0000000000ffffffff020638000000000000225120284c7e16ef5d06bd6d34c8e625876ac7b8fcff5cdf076da0e64cec639c8af8c994170400000000001600149738c155dfeab58c7dfa513f448a8f8e2796514e01416671604e3a723f8222754e46f7f69179bda238a9072eb6143cb6ee272f9e7aa2250d1a75e6752fdc8778b167227d09f04691d921bebdf17aaa3ff2eb129edf950101415ae3b5835b6f8a28589bed294082f39a5e1c3dba4b41281483e04044ba6e2b3057e564a46aa6b25a202af134dd24ce2519c1aaad7c72c155265eda259ebb01280100000000"
}