{
  "txid": "6ea95aa5a2134d9c6185aae6b51e92b4ff44e811cb95577307aa552eda00eea6",
  "version": 2,
  "locktime": 0,
  "vin": [
    {
      "txid": "26ca0a1968cf4bc9bb0c0283bab5e8555f3f8d2a537302f24b48db8615ece41d",
      "vout": 0,
      "prevout": {
        "scriptpubkey": "00141d57d482ca6f59ce4ba91fa7ecf8e27405ddcc7a",
        "scriptpubkey_asm": "OP_0 OP_PUSHBYTES_20 1d57d482ca6f59ce4ba91fa7ecf8e27405ddcc7a",
        "scriptpubkey_type": "v0_p2wpkh",
        "scriptpubkey_address": "bc1qr4tafqk2davuujafr7n7e78zwszamnr62etwkw",
        "value": 294
      },
      "scriptsig": "",
      "scriptsig_asm": "",
      "witness": [
        "30450221008e718c39e602d74f21a05d5f28501ae1d4935da15a5c9f6ddf18074ca94ff1fd02202801bccb44fe8b6c2b31fd8b29c7e7eb5f49f8087bd0002a6e627ef28438513001",
        "03d777e41c24a4910d3bdb2e5acf5ef9d37a6e590c73b3f3545a411e5a8387d630"
      ],
      "is_coinbase": false,
      "sequence": 4294967295
    },
    {
      "txid": "2a271beb48576c7348841af80e8e112bc91cc4c2e2dca1366d1220a50ff1fff6",
      "vout": 1,
      "prevout": {
        "scriptpubkey": "00141d57d482ca6f59ce4ba91fa7ecf8e27405ddcc7a",
        "scriptpubkey_asm": "OP_0 OP_PUSHBYTES_20 1d57d482ca6f59ce4ba91fa7ecf8e27405ddcc7a",
        "scriptpubkey_type": "v0_p2wpkh",
        "scriptpubkey_address": "bc1qr4tafqk2davuujafr7n7e78zwszamnr62etwkw",
        "value": 430722
      },
      "scriptsig": "",
      "scriptsig_asm": "",
      "witness": [
        "3045022100a9106b179f5296feaf4d0cb4792c19604a6471f24f6ab762f77c55e3bfb483a7022012d3c50cf7c09bd28c07a8c8f479d4026dacbee6040ff489047b06950b2e750f01",
        "03d777e41c24a4910d3bdb2e5acf5ef9d37a6e590c73b3f3545a411e5a8387d630"
      ],
      "is_coinbase": false,
      "sequence": 4294967295
    }
  ],
  "vout": [
    {
      "scriptpubkey": "a9148e74a4015737740f9ea6021ba96b237f7a86cf8487",
      "scriptpubkey_asm": "OP_HASH160 OP_PUSHBYTES_20 8e74a4015737740f9ea6021ba96b237f7a86cf84 OP_EQUAL",
      "scriptpubkey_type": "p2sh",
      "scriptpubkey_address": "3EgFc7nXWzqToKpnYmZWxE8QR1zBVeWhgD",
      "value": 546
    },
    {
      "scriptpubkey": "00141d57d482ca6f59ce4ba91fa7ecf8e27405ddcc7a",
      "scriptpubkey_asm": "OP_0 OP_PUSHBYTES_20 1d57d482ca6f59ce4ba91fa7ecf8e27405ddcc7a",
      "scriptpubkey_type": "v0_p2wpkh",
      "scriptpubkey_address": "bc1qr4tafqk2davuujafr7n7e78zwszamnr62etwkw",
      "value": 426900
    }
  ],
  "size": 373,
  "weight": 838,
  "fee": 3570,
  "status": {
    "confirmed": true,
    "block_height": 834460,
    "block_hash": "00000000000000000000484a79b643b2524bbce82e5d8a442013fa5b8905ed98",
    "block_time": 1710307468
  },
  "hex": "020000000001021de4ec1586db484bf20273532a8d3f5f55e8b5ba83020cbbc94bcf68190aca260000000000fffffffff6fff10fa520126d36a1dce2c2c41cc92b118e0ef81a8448736c5748eb1b272a0100000000ffffffff02220200000000000017a9148e74a4015737740f9ea6021ba96b237f7a86cf848794830600000000001600141d57d482ca6f59ce4ba91fa7ecf8e27405ddcc7a024830450221008e718c39e602d74f21a05d5f28501ae1d4935da15a5c9f6ddf18074ca94ff1fd02202801bccb44fe8b6c2b31fd8b29c7e7eb5f49f8087bd0002a6e627ef284385130012103d777e41c24a4910d3bdb2e5acf5ef9d37a6e590c73b3f3545a411e5a8387d63002483045022100a9106b179f5296feaf4d0cb4792c19604a6471f24f6ab762f77c55e3bfb483a7022012d3c50cf7c09bd28c07a8c8f479d4026dacbee6040ff489047b06950b2e750f012103d777e41c24a4910d3bdb2e5acf5ef9d37a6e590c73b3f3545a411e5a8387d63000000000"
}