{
  "txid": "6eb72d5d1558dd1c754f718441ab50e79f3d87e2728a45bd1856e20662c8999c",
  "version": 2,
  "locktime": 0,
  "vin": [
    {
      "txid": "c10e48caeee8756d57fbce0e4f26c1d08bb9f0d4a35c2d26269682da8df04dac",
      "vout": 58,
      "prevout": {
        "scriptpubkey": "512079a9a7a27c09c2eb529fb820bc12be5a1989c5ff6da6f77038e3a7768f8d6c33",
        "scriptpubkey_asm": "OP_PUSHNUM_1 OP_PUSHBYTES_32 79a9a7a27c09c2eb529fb820bc12be5a1989c5ff6da6f77038e3a7768f8d6c33",
        "scriptpubkey_type": "v1_p2tr",
        "scriptpubkey_address": "bc1p0x560gnup8pwk55lhqstcy47tgvcn30ldkn0wupcuwnhdruddsesqp7s8z",
        "value": 3618
      },
      "scriptsig": "",
      "scriptsig_asm": "",
      "witness": [
        "a25d1f74e95938bbf835b24fd9fec29834123adf63ec4be9504e15c1e7c602d0b2c4ca09c269a580c51c0b6c2e46aa309f0fd68b1a9fdccf92d32b69901a295a",
        "200f636f65abc705bd46f1a127e170ce1c1829665c4e850d2139e299c8ea6c2b93ac0063036f726401011e6170706c69636174696f6e2f6a736f6e3b636861727365743d7574662d38004cd27b2270223a22706f772d3230222c226f70223a226d696e74222c227469636b223a2250455045222c22616d74223a2231303030222c22736f6c7574696f6e223a22504550453a6263317071336e67663775716e73667434706d37357236397371616c6c30637068747278677773757a6d657864356c337039333566366d713666337664383a303030303030303030303030303030303030303139393431613561653132383937363539383134343239323533333030353762306461393666336465613163353a39393130373236343930227d68",
        "c0406c0f2a67700582b42f36a71eb03478d57ba1acdc179ee1ec758acb282de3fd"
      ],
      "is_coinbase": false,
      "sequence": 4294967295
    }
  ],
  "vout": [
    {
      "scriptpubkey": "5120046684fb809c12ba877ea0f45803bffbf01bac6643a1c16f266d3f1096344eb6",
      "scriptpubkey_asm": "OP_PUSHNUM_1 OP_PUSHBYTES_32 046684fb809c12ba877ea0f45803bffbf01bac6643a1c16f266d3f1096344eb6",
      "scriptpubkey_type": "v1_p2tr",
      "scriptpubkey_address": "bc1pq3ngf7uqnsft4pm75r69sqall0cphtrxgwsuzmexd5l3p935f6mq6f3vd8",
      "value": 546
    }
  ],
  "size": 486,
  "weight": 768,
  "fee": 3072,
  "status": {
    "confirmed": true,
    "block_height": 834460,
    "block_hash": "00000000000000000000484a79b643b2524bbce82e5d8a442013fa5b8905ed98",
    "block_time": 1710307468
  },
  "hex": "02000000000101ac4df08dda829626262d5ca3d4f0b98bd0c1264f0ecefb576d75e8eeca480ec13a00000000ffffffff012202000000000000225120046684fb809c12ba877ea0f45803bffbf01bac6643a1c16f266d3f1096344eb60340a25d1f74e95938bbf835b24fd9fec29834123adf63ec4be9504e15c1e7c602d0b2c4ca09c269a580c51c0b6c2e46aa309f0fd68b1a9fdccf92d32b69901a295afd1f01200f636f65abc705bd46f1a127e170ce1c1829665c4e850d2139e299c8ea6c2b93ac0063036f726401011e6170706c69636174696f6e2f6a736f6e3b636861727365743d7574662d38004cd27b2270223a22706f772d3230222c226f70223a226d696e74222c227469636b223a2250455045222c22616d74223a2231303030222c22736f6c7574696f6e223a22504550453a6263317071336e67663775716e73667434706d37357236397371616c6c30637068747278677773757a6d657864356c337039333566366d713666337664383a303030303030303030303030303030303030303139393431613561653132383937363539383134343239323533333030353762306461393666336465613163353a39393130373236343930227d6821c0406c0f2a67700582b42f36a71eb03478d57ba1acdc179ee1ec758acb282de3fd00000000"
}