{
  "txid": "6ed26ec48723fa93c261054c395595d6079f55b1137a5670ede801f14c37f4ca",
  "version": 2,
  "locktime": 0,
  "vin": [
    {
      "txid": "2b3c76c2bc44af03a8693bd2a1cb374892fd73baaea5d6fecb2824225821d59b",
      "vout": 1,
      "prevout": {
        "scriptpubkey": "00149c38191f20275ea9ececd2f762c450ff159508f8",
        "scriptpubkey_asm": "OP_0 OP_PUSHBYTES_20 9c38191f20275ea9ececd2f762c450ff159508f8",
        "scriptpubkey_type": "v0_p2wpkh",
        "scriptpubkey_address": "bc1qnsupj8eqya02nm8v6tmk93zslu2e2z8chlmcej",
        "value": 180594748
      },
      "scriptsig": "",
      "scriptsig_asm": "",
      "witness": [
        "3045022100a465d931599e453f6a811eae38d29e00d64fb1eac2ed01c42ea16c4cea729cda0220724e4b6939258f8cac035347278b880eec921ad976f8c8fab9cc7fcbb1364eae01",
        "0244587bb17c3d845ae477a2fb2511ef7233e7b3e8f3ec6f83bd154be74c39bf66"
      ],
      "is_coinbase": false,
      "sequence": 4294967295
    }
  ],
  "vout": [
    {
      "scriptpubkey": "76a914d59a3f5541e86f5c0deac2db11beec6faa93df9388ac",
      "scriptpubkey_asm": "OP_DUP OP_HASH160 OP_PUSHBYTES_20 d59a3f5541e86f5c0deac2db11beec6faa93df93 OP_EQUALVERIFY OP_CHECKSIG",
      "scriptpubkey_type": "p2pkh",
      "scriptpubkey_address": "1LURiA6JUBKcJNWqXZ9tuxtarcthqQ3LVm",
      "value": 3678940
    },
    {
      "scriptpubkey": "00149c38191f20275ea9ececd2f762c450ff159508f8",
      "scriptpubkey_asm": "OP_0 OP_PUSHBYTES_20 9c38191f20275ea9ececd2f762c450ff159508f8",
      "scriptpubkey_type": "v0_p2wpkh",
      "scriptpubkey_address": "bc1qnsupj8eqya02nm8v6tmk93zslu2e2z8chlmcej",
      "value": 176911152
    }
  ],
  "size": 226,
  "weight": 574,
  "fee": 4656,
  "status": {
    "confirmed": true,
    "block_height": 834638,
    "block_hash": "000000000000000000025f742c626208ac87e0b7d15054abb4a19ca2d735a54e",
    "block_time": 1710405325
  },
  "hex": "020000000001019bd52158222428cbfed6a5aeba73fd924837cba1d23b69a803af44bcc2763c2b0100000000ffffffff02dc223800000000001976a914d59a3f5541e86f5c0deac2db11beec6faa93df9388ac30738b0a000000001600149c38191f20275ea9ececd2f762c450ff159508f802483045022100a465d931599e453f6a811eae38d29e00d64fb1eac2ed01c42ea16c4cea729cda0220724e4b6939258f8cac035347278b880eec921ad976f8c8fab9cc7fcbb1364eae01210244587bb17c3d845ae477a2fb2511ef7233e7b3e8f3ec6f83bd154be74c39bf6600000000"
}