{
  "txid": "6ed40e63e886d5f8409c468f1dcd94a60ea266f813270e1ef5c6fd9f950e32dd",
  "version": 1,
  "locktime": 0,
  "vin": [
    {
      "txid": "d1dfd73e38375b08bf56da61e42975ce23b0fd0cc78aeaa12c98b9dc3d22e713",
      "vout": 0,
      "prevout": {
        "scriptpubkey": "512050c13741486063cff79f10d718b59fd079ac4c5216fff8523cc7db178ca00130",
        "scriptpubkey_asm": "OP_PUSHNUM_1 OP_PUSHBYTES_32 50c13741486063cff79f10d718b59fd079ac4c5216fff8523cc7db178ca00130",
        "scriptpubkey_type": "v1_p2tr",
        "scriptpubkey_address": "bc1p2rqnws2gvp3ulaulzrt33dvl6pu6cnzjzmlls53ucld30r9qqycqcvs9l8",
        "value": 3346
      },
      "scriptsig": "",
      "scriptsig_asm": "",
      "witness": [
        "5002e50cd1bfbbd83cd355411cb4b7cae515b6fb90b7e9a6943f48317ebbae2196335842f65c2278ef8abf561aa2cc0b894d18d12e462be8aaf4c96791e27b18",
        "20ae575f53945eafba707509cb477871273c4060d16829ceef994fbe10f8d1b515ac0063036f7264010118746578742f706c61696e3b636861727365743d7574662d3800427b2270223a226272632d3230222c226f70223a227472616e73666572222c227469636b223a2274726163222c22616d74223a22393938382e3633373133383338227d68",
        "c0ae575f53945eafba707509cb477871273c4060d16829ceef994fbe10f8d1b515"
      ],
      "is_coinbase": false,
      "sequence": 4294967285
    }
  ],
  "vout": [
    {
      "scriptpubkey": "a9143ed825c7fd56073769a1875d698636242ce8c8bc87",
      "scriptpubkey_asm": "OP_HASH160 OP_PUSHBYTES_20 3ed825c7fd56073769a1875d698636242ce8c8bc OP_EQUAL",
      "scriptpubkey_type": "p2sh",
      "scriptpubkey_address": "37RJkdkzPXCMYSTq74berJYj9FmNn7wFP5",
      "value": 546
    }
  ],
  "size": 322,
  "weight": 571,
  "fee": 2800,
  "status": {
    "confirmed": true,
    "block_height": 834460,
    "block_hash": "00000000000000000000484a79b643b2524bbce82e5d8a442013fa5b8905ed98",
    "block_time": 1710307468
  },
  "hex": "0100000000010113e7223ddcb9982ca1ea8ac70cfdb023ce7529e461da56bf085b37383ed7dfd10000000000f5ffffff01220200000000000017a9143ed825c7fd56073769a1875d698636242ce8c8bc8703405002e50cd1bfbbd83cd355411cb4b7cae515b6fb90b7e9a6943f48317ebbae2196335842f65c2278ef8abf561aa2cc0b894d18d12e462be8aaf4c96791e27b188820ae575f53945eafba707509cb477871273c4060d16829ceef994fbe10f8d1b515ac0063036f7264010118746578742f706c61696e3b636861727365743d7574662d3800427b2270223a226272632d3230222c226f70223a227472616e73666572222c227469636b223a2274726163222c22616d74223a22393938382e3633373133383338227d6821c0ae575f53945eafba707509cb477871273c4060d16829ceef994fbe10f8d1b51500000000"
}