{
  "txid": "6edb45a2a50fe1efee2cad6d4e6e9832ca0915cc9c119f39af5355fb8413b289",
  "version": 1,
  "locktime": 0,
  "vin": [
    {
      "txid": "adb319fc384134bcdc1b296ef46f4aa38e6d15a65fe18b2fef49c0a3b5af29a0",
      "vout": 13,
      "prevout": {
        "scriptpubkey": "00140dfb18968747b20c1f143af866eb4d6ef4217062",
        "scriptpubkey_asm": "OP_0 OP_PUSHBYTES_20 0dfb18968747b20c1f143af866eb4d6ef4217062",
        "scriptpubkey_type": "v0_p2wpkh",
        "scriptpubkey_address": "bc1qpha33958g7eqc8c58tuxd66ddm6zzurz9feg0p",
        "value": 595399
      },
      "scriptsig": "",
      "scriptsig_asm": "",
      "witness": [
        "3044022034cc27b26ab3b7d63b51828caff77e22cefa358d137247780466ce6f9d43a5ec02202f54bf800515d76648f6bd6bceb2e2e0d2a2a8c9d3d438ad484b4ba406b585ba01",
        "02e7171025079de77cd8e589a39a130527528fcc08677c21351109c738ced9dd7e"
      ],
      "is_coinbase": false,
      "sequence": 0
    },
    {
      "txid": "8c5ac620cde8b86d4f4efa54d853725eaba322073df1dd8dee5fb21d76fce61d",
      "vout": 0,
      "prevout": {
        "scriptpubkey": "0014c52a5b0981dc908c155095267f6fb74442ccc751",
        "scriptpubkey_asm": "OP_0 OP_PUSHBYTES_20 c52a5b0981dc908c155095267f6fb74442ccc751",
        "scriptpubkey_type": "v0_p2wpkh",
        "scriptpubkey_address": "bc1qc549kzvpmjggc92sj5n87mahg3pve3638xshp0",
        "value": 499925
      },
      "scriptsig": "",
      "scriptsig_asm": "",
      "witness": [
        "304402206716a9a23f81d6c0f4479303fce1030d83f8ea9e03276b69e93b17bcccad3f7f022034fae17da01490a09e6be03b5265e97460cad27474a0d8556ea88e76202dab4a01",
        "0328b55b4ca52bd4f41662a0b4ddba128cbc7690b4d2df48d0f909d40136dfddc2"
      ],
      "is_coinbase": false,
      "sequence": 0
    },
    {
      "txid": "ef38464754303395ca3b47ca010033b945ad7afdaabb640dac27dc0315ed2dcf",
      "vout": 0,
      "prevout": {
        "scriptpubkey": "0014881161f86a1433cdcc1274f4e285ac7343cb7b6a",
        "scriptpubkey_asm": "OP_0 OP_PUSHBYTES_20 881161f86a1433cdcc1274f4e285ac7343cb7b6a",
        "scriptpubkey_type": "v0_p2wpkh",
        "scriptpubkey_address": "bc1q3qgkr7r2zseumnqjwn6w9pdvwdpuk7m237f7dm",
        "value": 1599404
      },
      "scriptsig": "",
      "scriptsig_asm": "",
      "witness": [
        "3045022100ca53ba6e831db9135f84e3b51ac4221ce1ce449c51c8a112cd9f06df42752464022006770f431c56942f2c01c654effc9fa1ff8c84a9d8546684862fd8d18d86bd0001",
        "033d45b87ab66bc68e9d3d6387d2317a23901cb10d78e43908630b8cb179cad983"
      ],
      "is_coinbase": false,
      "sequence": 0
    }
  ],
  "vout": [
    {
      "scriptpubkey": "76a914c0275cf46f04231bff30751c129e3cfd4084c96f88ac",
      "scriptpubkey_asm": "OP_DUP OP_HASH160 OP_PUSHBYTES_20 c0275cf46f04231bff30751c129e3cfd4084c96f OP_EQUALVERIFY OP_CHECKSIG",
      "scriptpubkey_type": "p2pkh",
      "scriptpubkey_address": "1JX1tq25cZcQXzL45DtqhiFmaBWAAdoheU",
      "value": 2690246
    }
  ],
  "size": 491,
  "weight": 992,
  "fee": 4482,
  "status": {
    "confirmed": true,
    "block_height": 834638,
    "block_hash": "000000000000000000025f742c626208ac87e0b7d15054abb4a19ca2d735a54e",
    "block_time": 1710405325
  },
  "hex": "01000000000103a029afb5a3c049ef2f8be15fa6156d8ea34a6ff46e291bdcbc344138fc19b3ad0d00000000000000001de6fc761db25fee8dddf13d0722a3ab5e7253d854fa4e4f6db8e8cd20c65a8c000000000000000000cf2ded1503dc27ac0d64bbaafd7aad45b9330001ca473bca95333054474638ef00000000000000000001c60c2900000000001976a914c0275cf46f04231bff30751c129e3cfd4084c96f88ac02473044022034cc27b26ab3b7d63b51828caff77e22cefa358d137247780466ce6f9d43a5ec02202f54bf800515d76648f6bd6bceb2e2e0d2a2a8c9d3d438ad484b4ba406b585ba012102e7171025079de77cd8e589a39a130527528fcc08677c21351109c738ced9dd7e0247304402206716a9a23f81d6c0f4479303fce1030d83f8ea9e03276b69e93b17bcccad3f7f022034fae17da01490a09e6be03b5265e97460cad27474a0d8556ea88e76202dab4a01210328b55b4ca52bd4f41662a0b4ddba128cbc7690b4d2df48d0f909d40136dfddc202483045022100ca53ba6e831db9135f84e3b51ac4221ce1ce449c51c8a112cd9f06df42752464022006770f431c56942f2c01c654effc9fa1ff8c84a9d8546684862fd8d18d86bd000121033d45b87ab66bc68e9d3d6387d2317a23901cb10d78e43908630b8cb179cad98300000000"
}