{
  "txid": "6ee23c818d67787c3e7c8ef85853b5a993dbd85c30a55e7778cb872c4ecbe5da",
  "version": 2,
  "locktime": 834637,
  "vin": [
    {
      "txid": "32fb14a5a33e69c9743dcdb7758fe961d22b1949acc22584253a4b8c3f19e99d",
      "vout": 1,
      "prevout": {
        "scriptpubkey": "00144877dc2f3a94318c0109555aa9218938f771d9d9",
        "scriptpubkey_asm": "OP_0 OP_PUSHBYTES_20 4877dc2f3a94318c0109555aa9218938f771d9d9",
        "scriptpubkey_type": "v0_p2wpkh",
        "scriptpubkey_address": "bc1qfpmacte6jscccqgf24d2jgvf8rmhrkweruh2u7",
        "value": 250458252
      },
      "scriptsig": "",
      "scriptsig_asm": "",
      "witness": [
        "304402205ebdc00d7df07daa8d0e3fc2ed2b44d50c6d7a00f97a4c9aef3564b76f90b3d202201b1df135caafcc6197a218c38b1972d9421fa80eda430c80ce2ad6ca701b7df501",
        "02a2155c2c12e415b8e8182f2b614cee227facb7dc5ef39a8124b1f6282e3fb13f"
      ],
      "is_coinbase": false,
      "sequence": 4294967294
    }
  ],
  "vout": [
    {
      "scriptpubkey": "a914151f17e3981ebcc08fccdfa615bab2e3af40433b87",
      "scriptpubkey_asm": "OP_HASH160 OP_PUSHBYTES_20 151f17e3981ebcc08fccdfa615bab2e3af40433b OP_EQUAL",
      "scriptpubkey_type": "p2sh",
      "scriptpubkey_address": "33chMyRnYzVMqZmZDuLz57NipHJaspahes",
      "value": 1100600
    },
    {
      "scriptpubkey": "001471210479f08f0765c7ad130a517cafff28b3ef63",
      "scriptpubkey_asm": "OP_0 OP_PUSHBYTES_20 71210479f08f0765c7ad130a517cafff28b3ef63",
      "scriptpubkey_type": "v0_p2wpkh",
      "scriptpubkey_address": "bc1qwyssg70s3urkt3adzv99zl90lu5t8mmr6zsgqz",
      "value": 249354172
    }
  ],
  "size": 223,
  "weight": 565,
  "fee": 3480,
  "status": {
    "confirmed": true,
    "block_height": 834638,
    "block_hash": "000000000000000000025f742c626208ac87e0b7d15054abb4a19ca2d735a54e",
    "block_time": 1710405325
  },
  "hex": "020000000001019de9193f8c4b3a258425c2ac49192bd261e98f75b7cd3d74c9693ea3a514fb320100000000feffffff0238cb10000000000017a914151f17e3981ebcc08fccdfa615bab2e3af40433b87bcd7dc0e0000000016001471210479f08f0765c7ad130a517cafff28b3ef630247304402205ebdc00d7df07daa8d0e3fc2ed2b44d50c6d7a00f97a4c9aef3564b76f90b3d202201b1df135caafcc6197a218c38b1972d9421fa80eda430c80ce2ad6ca701b7df5012102a2155c2c12e415b8e8182f2b614cee227facb7dc5ef39a8124b1f6282e3fb13f4dbc0c00"
}