{
  "txid": "6ee3df8af2c0f3641ac5b73f89660e8048678621b77efd0e36f849e610e3d543",
  "version": 1,
  "locktime": 0,
  "vin": [
    {
      "txid": "5ef041e72c1bba6f53feed443b5ebf1416a18da8610a0e923ad9e95156ab27e2",
      "vout": 10,
      "prevout": {
        "scriptpubkey": "0014f233ff78f2ed7e42ee16bb34dba875d8194e68b1",
        "scriptpubkey_asm": "OP_0 OP_PUSHBYTES_20 f233ff78f2ed7e42ee16bb34dba875d8194e68b1",
        "scriptpubkey_type": "v0_p2wpkh",
        "scriptpubkey_address": "bc1q7gel778ja4ly9mskhv6dh2r4mqv5u693kprcll",
        "value": 797730
      },
      "scriptsig": "",
      "scriptsig_asm": "",
      "witness": [
        "3045022100bec341a16c9336ebfbe6dec2db5536de0a7100d725840a9a825e5b01adba1949022034f5c0a83088bdb5fede59f6d5632f49c58b18c292c4123aeee841bebd88888401",
        "023765460ae012be80b197dfa95f71fab4fb2336ab2cf9f51d7995788bd971f8ef"
      ],
      "is_coinbase": false,
      "sequence": 4294967295
    },
    {
      "txid": "6feace14b2ff06698f99a9659cb423e018c5b80f4144f7e90406693deb5c9e41",
      "vout": 172,
      "prevout": {
        "scriptpubkey": "0014f233ff78f2ed7e42ee16bb34dba875d8194e68b1",
        "scriptpubkey_asm": "OP_0 OP_PUSHBYTES_20 f233ff78f2ed7e42ee16bb34dba875d8194e68b1",
        "scriptpubkey_type": "v0_p2wpkh",
        "scriptpubkey_address": "bc1q7gel778ja4ly9mskhv6dh2r4mqv5u693kprcll",
        "value": 144401
      },
      "scriptsig": "",
      "scriptsig_asm": "",
      "witness": [
        "30440220267ae2b8b5bcc1f05fa96b982bc836b8fc5f2c2a72e1abaa75501ffc0c8c0fb10220413c733e91d83dfbf24cbb5535657366ea63283015e06ccb984d20729aebdd8201",
        "023765460ae012be80b197dfa95f71fab4fb2336ab2cf9f51d7995788bd971f8ef"
      ],
      "is_coinbase": false,
      "sequence": 4294967295
    }
  ],
  "vout": [
    {
      "scriptpubkey": "76a914b55f85b28f924a17ce7a1400ade053d827d4f3d188ac",
      "scriptpubkey_asm": "OP_DUP OP_HASH160 OP_PUSHBYTES_20 b55f85b28f924a17ce7a1400ade053d827d4f3d1 OP_EQUALVERIFY OP_CHECKSIG",
      "scriptpubkey_type": "p2pkh",
      "scriptpubkey_address": "1HY1jizXn8v8vacCXgCxphzy2wayMHBuk4",
      "value": 937244
    }
  ],
  "size": 343,
  "weight": 721,
  "fee": 4887,
  "status": {
    "confirmed": true,
    "block_height": 834638,
    "block_hash": "000000000000000000025f742c626208ac87e0b7d15054abb4a19ca2d735a54e",
    "block_time": 1710405325
  },
  "hex": "01000000000102e227ab5651e9d93a920e0a61a88da11614bf5e3b44edfe536fba1b2ce741f05e0a00000000ffffffff419e5ceb3d690604e9f744410fb8c518e023b49c65a9998f6906ffb214ceea6fac00000000ffffffff011c4d0e00000000001976a914b55f85b28f924a17ce7a1400ade053d827d4f3d188ac02483045022100bec341a16c9336ebfbe6dec2db5536de0a7100d725840a9a825e5b01adba1949022034f5c0a83088bdb5fede59f6d5632f49c58b18c292c4123aeee841bebd8888840121023765460ae012be80b197dfa95f71fab4fb2336ab2cf9f51d7995788bd971f8ef024730440220267ae2b8b5bcc1f05fa96b982bc836b8fc5f2c2a72e1abaa75501ffc0c8c0fb10220413c733e91d83dfbf24cbb5535657366ea63283015e06ccb984d20729aebdd820121023765460ae012be80b197dfa95f71fab4fb2336ab2cf9f51d7995788bd971f8ef00000000"
}