{
  "txid": "6eeaae0dc92bc2fe4c7488b8314af1be68fddcfcb70947e54c9875186837de64",
  "version": 2,
  "locktime": 0,
  "vin": [
    {
      "txid": "7dce5a5d897797f0ec484c91d3f74ca84f743e5dfa6593a45282ddc2c130ea2e",
      "vout": 1,
      "prevout": {
        "scriptpubkey": "a914c843e01661310e200ab7060cf3346fa457ce832b87",
        "scriptpubkey_asm": "OP_HASH160 OP_PUSHBYTES_20 c843e01661310e200ab7060cf3346fa457ce832b OP_EQUAL",
        "scriptpubkey_type": "p2sh",
        "scriptpubkey_address": "3KwvNyHWgy8yVHF5J9zGcjwXBUNBPQWf6K",
        "value": 49762
      },
      "scriptsig": "1600140ddd15ffe0c862d6ea02c52e81d745d85105ff22",
      "scriptsig_asm": "OP_PUSHBYTES_22 00140ddd15ffe0c862d6ea02c52e81d745d85105ff22",
      "witness": [
        "304402204697d436062c53941eebf6ede05434b6458e48a04806ea2b3a6075452064da4102200188ac0e48ee75e19754f65e129b90cd902776574ce97f4e747ad0abb765f1cb01",
        "03c889ce2dcb6eae41bc85febfbe2f9d109859b56543dc572a550cc4d779e5c7b0"
      ],
      "is_coinbase": false,
      "sequence": 4294967295,
      "inner_redeemscript_asm": "OP_0 OP_PUSHBYTES_20 0ddd15ffe0c862d6ea02c52e81d745d85105ff22"
    }
  ],
  "vout": [
    {
      "scriptpubkey": "a9142afaba3a94f83924e86858c6f10a4e5a693f388987",
      "scriptpubkey_asm": "OP_HASH160 OP_PUSHBYTES_20 2afaba3a94f83924e86858c6f10a4e5a693f3889 OP_EQUAL",
      "scriptpubkey_type": "p2sh",
      "scriptpubkey_address": "35cGfT35M6X5XuavhHEMXSyVWddvVXbK2Y",
      "value": 1500
    },
    {
      "scriptpubkey": "a91436128c2b703327cd253017c1faa056f835e1001187",
      "scriptpubkey_asm": "OP_HASH160 OP_PUSHBYTES_20 36128c2b703327cd253017c1faa056f835e10011 OP_EQUAL",
      "scriptpubkey_type": "p2sh",
      "scriptpubkey_address": "36cvdcDxU8Zbb3T8Z71XDphYGp7dJHd4YT",
      "value": 46954
    }
  ],
  "size": 247,
  "weight": 661,
  "fee": 1308,
  "status": {
    "confirmed": true,
    "block_height": 834464,
    "block_hash": "0000000000000000000177a0869a911a2b65c9bdcd5a8bcb02b68f305bee848e",
    "block_time": 1710308296
  },
  "hex": "020000000001012eea30c1c2dd8252a49365fa5d3e744fa84cf7d3914c48ecf09777895d5ace7d01000000171600140ddd15ffe0c862d6ea02c52e81d745d85105ff22ffffffff02dc0500000000000017a9142afaba3a94f83924e86858c6f10a4e5a693f3889876ab700000000000017a91436128c2b703327cd253017c1faa056f835e10011870247304402204697d436062c53941eebf6ede05434b6458e48a04806ea2b3a6075452064da4102200188ac0e48ee75e19754f65e129b90cd902776574ce97f4e747ad0abb765f1cb012103c889ce2dcb6eae41bc85febfbe2f9d109859b56543dc572a550cc4d779e5c7b000000000"
}