{
  "txid": "6eef97c80d9e975c678a26044da564a51e5850b88630fbafb73204a5f7e34449",
  "version": 1,
  "locktime": 0,
  "vin": [
    {
      "txid": "83615fc9189a0d706b76402c2a9c613e0fcce93f5547d288c3b48eb9bd9bcb00",
      "vout": 1,
      "prevout": {
        "scriptpubkey": "001431ec6712277851efc557b163cee9d57e2b431fbb",
        "scriptpubkey_asm": "OP_0 OP_PUSHBYTES_20 31ec6712277851efc557b163cee9d57e2b431fbb",
        "scriptpubkey_type": "v0_p2wpkh",
        "scriptpubkey_address": "bc1qx8kxwy380pg7l32hk93ua6w40c45x8amcxdnvq",
        "value": 1702369
      },
      "scriptsig": "",
      "scriptsig_asm": "",
      "witness": [
        "3044022012b95c4869c6690972c1186c03cf76961687b235a6ac598eaa11c66c48c152840220321cbcbbf1adae1267952250952847020ea053f83e5b45c2d43485cc44c8ca3501",
        "02721818fb033dcf6d6631081b9fb69f4e3a0ff08780b86957bd9c4797480e656d"
      ],
      "is_coinbase": false,
      "sequence": 4294967295
    },
    {
      "txid": "1c20265314471bb443403476506a410ed87b165c822bf16bb1fd56f5e24e8501",
      "vout": 6,
      "prevout": {
        "scriptpubkey": "0014d730555683b27497a3458d8a9a37d0475224db5e",
        "scriptpubkey_asm": "OP_0 OP_PUSHBYTES_20 d730555683b27497a3458d8a9a37d0475224db5e",
        "scriptpubkey_type": "v0_p2wpkh",
        "scriptpubkey_address": "bc1q6uc9245rkf6f0g693k9f5d7sgafzfk67d2s9nx",
        "value": 1751739
      },
      "scriptsig": "",
      "scriptsig_asm": "",
      "witness": [
        "3045022100e4f1766f95e2508e645293637fdcb1d78ba251aa4bb9ae12492e2939348ebc2e02203f57c6c0035033e2df76d93cfed4a42e6368ec37268cd0234bd4aa5234ef128001",
        "02f013753686ef8ea4155459dea781cbd3a35325aeb94379b1b496b86a69f8cbca"
      ],
      "is_coinbase": false,
      "sequence": 4294967295
    }
  ],
  "vout": [
    {
      "scriptpubkey": "0014e330dd3ef616efba92257472d6e9488340c7c8f7",
      "scriptpubkey_asm": "OP_0 OP_PUSHBYTES_20 e330dd3ef616efba92257472d6e9488340c7c8f7",
      "scriptpubkey_type": "v0_p2wpkh",
      "scriptpubkey_address": "bc1quvcd60hkzmhm4y39w3edd62gsdqv0j8hej39gg",
      "value": 1771900
    },
    {
      "scriptpubkey": "0014d921ca435cb8b1bd44f9d660619a35fe327427a8",
      "scriptpubkey_asm": "OP_0 OP_PUSHBYTES_20 d921ca435cb8b1bd44f9d660619a35fe327427a8",
      "scriptpubkey_type": "v0_p2wpkh",
      "scriptpubkey_address": "bc1qmysu5s6uhzcm638e6esxrx34lce8gfag85grf0",
      "value": 1676812
    }
  ],
  "size": 371,
  "weight": 833,
  "fee": 5396,
  "status": {
    "confirmed": true,
    "block_height": 834638,
    "block_hash": "000000000000000000025f742c626208ac87e0b7d15054abb4a19ca2d735a54e",
    "block_time": 1710405325
  },
  "hex": "0100000000010200cb9bbdb98eb4c388d247553fe9cc0f3e619c2a2c40766b700d9a18c95f61830100000000ffffffff01854ee2f556fdb16bf12b825c167bd80e416a5076344043b41b47145326201c0600000000ffffffff027c091b0000000000160014e330dd3ef616efba92257472d6e9488340c7c8f70c96190000000000160014d921ca435cb8b1bd44f9d660619a35fe327427a802473044022012b95c4869c6690972c1186c03cf76961687b235a6ac598eaa11c66c48c152840220321cbcbbf1adae1267952250952847020ea053f83e5b45c2d43485cc44c8ca35012102721818fb033dcf6d6631081b9fb69f4e3a0ff08780b86957bd9c4797480e656d02483045022100e4f1766f95e2508e645293637fdcb1d78ba251aa4bb9ae12492e2939348ebc2e02203f57c6c0035033e2df76d93cfed4a42e6368ec37268cd0234bd4aa5234ef1280012102f013753686ef8ea4155459dea781cbd3a35325aeb94379b1b496b86a69f8cbca00000000"
}