{
  "txid": "6effa7057a3dba4e4f155d077b2b7814839df7768609a009c0f1a94c7ba4edf7",
  "version": 1,
  "locktime": 0,
  "vin": [
    {
      "txid": "d03c0d4d5455fa517edf1f31f81c1355273b0dfc834e000179404411034b6656",
      "vout": 4,
      "prevout": {
        "scriptpubkey": "76a914326fa07096091959bbccdcf4d46e94d53d91714288ac",
        "scriptpubkey_asm": "OP_DUP OP_HASH160 OP_PUSHBYTES_20 326fa07096091959bbccdcf4d46e94d53d917142 OP_EQUALVERIFY OP_CHECKSIG",
        "scriptpubkey_type": "p2pkh",
        "scriptpubkey_address": "15bgWZ1SGyffnziXTWP7dgZLF63iyf5PLb",
        "value": 34000
      },
      "scriptsig": "47304402205b8794702aaf7058644df5ea77c7c20457e2406140eab2dd40374229dc8564c40220308df5185edfd4bc3ffea78d76893770d7b8a85c3894f2402c7c4f47e401759f012102c0ecfef0dc311d54f80337c58f199ffd8cfa023d4d5c6740b460656a6f2e42d1",
      "scriptsig_asm": "OP_PUSHBYTES_71 304402205b8794702aaf7058644df5ea77c7c20457e2406140eab2dd40374229dc8564c40220308df5185edfd4bc3ffea78d76893770d7b8a85c3894f2402c7c4f47e401759f01 OP_PUSHBYTES_33 02c0ecfef0dc311d54f80337c58f199ffd8cfa023d4d5c6740b460656a6f2e42d1",
      "is_coinbase": false,
      "sequence": 4294967295
    },
    {
      "txid": "0952e862ed62273e932514e9d7b10eafda75293f417a3034c81704b14b8b7c80",
      "vout": 24,
      "prevout": {
        "scriptpubkey": "76a914326fa07096091959bbccdcf4d46e94d53d91714288ac",
        "scriptpubkey_asm": "OP_DUP OP_HASH160 OP_PUSHBYTES_20 326fa07096091959bbccdcf4d46e94d53d917142 OP_EQUALVERIFY OP_CHECKSIG",
        "scriptpubkey_type": "p2pkh",
        "scriptpubkey_address": "15bgWZ1SGyffnziXTWP7dgZLF63iyf5PLb",
        "value": 130000
      },
      "scriptsig": "473044022052b72b721afef574ee270630480d564192418eccd7f1224009fbf59fe2111b9b02202682e2bba4a6669da49589ee470ef6b307908dd0b4a73d8751053eeaaad88ac3012102c0ecfef0dc311d54f80337c58f199ffd8cfa023d4d5c6740b460656a6f2e42d1",
      "scriptsig_asm": "OP_PUSHBYTES_71 3044022052b72b721afef574ee270630480d564192418eccd7f1224009fbf59fe2111b9b02202682e2bba4a6669da49589ee470ef6b307908dd0b4a73d8751053eeaaad88ac301 OP_PUSHBYTES_33 02c0ecfef0dc311d54f80337c58f199ffd8cfa023d4d5c6740b460656a6f2e42d1",
      "is_coinbase": false,
      "sequence": 4294967295
    },
    {
      "txid": "0952e862ed62273e932514e9d7b10eafda75293f417a3034c81704b14b8b7c80",
      "vout": 11,
      "prevout": {
        "scriptpubkey": "76a914326fa07096091959bbccdcf4d46e94d53d91714288ac",
        "scriptpubkey_asm": "OP_DUP OP_HASH160 OP_PUSHBYTES_20 326fa07096091959bbccdcf4d46e94d53d917142 OP_EQUALVERIFY OP_CHECKSIG",
        "scriptpubkey_type": "p2pkh",
        "scriptpubkey_address": "15bgWZ1SGyffnziXTWP7dgZLF63iyf5PLb",
        "value": 191000
      },
      "scriptsig": "47304402200e848e056492fd26943b20de107cccca65211051d3b8c8b180f7433c7b2317c60220437a336e709ab69c6b3ba01f5a6ea95c88e76e070dddd8217c3362e6edfad2c6012102c0ecfef0dc311d54f80337c58f199ffd8cfa023d4d5c6740b460656a6f2e42d1",
      "scriptsig_asm": "OP_PUSHBYTES_71 304402200e848e056492fd26943b20de107cccca65211051d3b8c8b180f7433c7b2317c60220437a336e709ab69c6b3ba01f5a6ea95c88e76e070dddd8217c3362e6edfad2c601 OP_PUSHBYTES_33 02c0ecfef0dc311d54f80337c58f199ffd8cfa023d4d5c6740b460656a6f2e42d1",
      "is_coinbase": false,
      "sequence": 4294967295
    }
  ],
  "vout": [
    {
      "scriptpubkey": "76a914e4edab40a1d4e740379abf75e37fe83b7a51fc9288ac",
      "scriptpubkey_asm": "OP_DUP OP_HASH160 OP_PUSHBYTES_20 e4edab40a1d4e740379abf75e37fe83b7a51fc92 OP_EQUALVERIFY OP_CHECKSIG",
      "scriptpubkey_type": "p2pkh",
      "scriptpubkey_address": "1MsTnGRFC7bRnYncQKXdo5XLquNXRWKZ21",
      "value": 339872
    }
  ],
  "size": 485,
  "weight": 1940,
  "fee": 15128,
  "status": {
    "confirmed": true,
    "block_height": 834638,
    "block_hash": "000000000000000000025f742c626208ac87e0b7d15054abb4a19ca2d735a54e",
    "block_time": 1710405325
  },
  "hex": "010000000356664b031144407901004e83fc0d3b2755131cf8311fdf7e51fa55544d0d3cd0040000006a47304402205b8794702aaf7058644df5ea77c7c20457e2406140eab2dd40374229dc8564c40220308df5185edfd4bc3ffea78d76893770d7b8a85c3894f2402c7c4f47e401759f012102c0ecfef0dc311d54f80337c58f199ffd8cfa023d4d5c6740b460656a6f2e42d1ffffffff807c8b4bb10417c834307a413f2975daaf0eb1d7e91425933e2762ed62e85209180000006a473044022052b72b721afef574ee270630480d564192418eccd7f1224009fbf59fe2111b9b02202682e2bba4a6669da49589ee470ef6b307908dd0b4a73d8751053eeaaad88ac3012102c0ecfef0dc311d54f80337c58f199ffd8cfa023d4d5c6740b460656a6f2e42d1ffffffff807c8b4bb10417c834307a413f2975daaf0eb1d7e91425933e2762ed62e852090b0000006a47304402200e848e056492fd26943b20de107cccca65211051d3b8c8b180f7433c7b2317c60220437a336e709ab69c6b3ba01f5a6ea95c88e76e070dddd8217c3362e6edfad2c6012102c0ecfef0dc311d54f80337c58f199ffd8cfa023d4d5c6740b460656a6f2e42d1ffffffff01a02f0500000000001976a914e4edab40a1d4e740379abf75e37fe83b7a51fc9288ac00000000"
}