{
  "txid": "6effc705a2ffd27c2d7142654daad0865ab21a83602faf10c74131c140231b06",
  "version": 2,
  "locktime": 834458,
  "vin": [
    {
      "txid": "a78442ee7715f457e664323e392b3abf1cee94c5d73310a33568a1d2ed84acd3",
      "vout": 0,
      "prevout": {
        "scriptpubkey": "51200dadca3e349191db3cbc3c5ebf70ce1de769e859423e111c32cf957872a780a9",
        "scriptpubkey_asm": "OP_PUSHNUM_1 OP_PUSHBYTES_32 0dadca3e349191db3cbc3c5ebf70ce1de769e859423e111c32cf957872a780a9",
        "scriptpubkey_type": "v1_p2tr",
        "scriptpubkey_address": "bc1ppkku5035jxgak09u830t7uxwrhnkn6zegglpz8pje72hsu48sz5sds9z9p",
        "value": 100275
      },
      "scriptsig": "",
      "scriptsig_asm": "",
      "witness": [
        "dd438a9bfbfa7170ccdc450e242a4888d0dbee3073ddc41f61a96b29ea4ef784995cc8349f0f30dd31b518b9eb6eb0b7d5ef721d6c936a304dd7b7fe6c76959a"
      ],
      "is_coinbase": false,
      "sequence": 0
    },
    {
      "txid": "e2563626b27300394f8b40475ff592649a0b61e88dc2dd4a3b70fa7b2d5ef1f4",
      "vout": 0,
      "prevout": {
        "scriptpubkey": "5120e58ce0118624a4595917060af9a536806f554a39140f8c0edeeae3f20b1e735e",
        "scriptpubkey_asm": "OP_PUSHNUM_1 OP_PUSHBYTES_32 e58ce0118624a4595917060af9a536806f554a39140f8c0edeeae3f20b1e735e",
        "scriptpubkey_type": "v1_p2tr",
        "scriptpubkey_address": "bc1pukxwqyvxyjj9jkghqc90nffksph42j3ezs8ccrk7at3lyzc7wd0q58yec0",
        "value": 350044
      },
      "scriptsig": "",
      "scriptsig_asm": "",
      "witness": [
        "cf1b544e6ed5bb8e4c60e34c4e5c34c389331fed98192ed99de8b967a4439f96b440bc9f69f3fd7cd3386623ce7240f6d9c63227cd177abcf86f27a032829f9b"
      ],
      "is_coinbase": false,
      "sequence": 0
    },
    {
      "txid": "7b10871dbcf1619be95c68264c76065136ffa96bd8ffd9e7067b8543738f6f6e",
      "vout": 0,
      "prevout": {
        "scriptpubkey": "5120b409e09fd8d9cbdf214e5d7ab3ef71fe82f9ea35429ec22d4cece975a8c48639",
        "scriptpubkey_asm": "OP_PUSHNUM_1 OP_PUSHBYTES_32 b409e09fd8d9cbdf214e5d7ab3ef71fe82f9ea35429ec22d4cece975a8c48639",
        "scriptpubkey_type": "v1_p2tr",
        "scriptpubkey_address": "bc1pksy7p87cm89a7g2wt4at8mm3l6p0n634g20vyt2van5ht2xyscus4r47lc",
        "value": 75366
      },
      "scriptsig": "",
      "scriptsig_asm": "",
      "witness": [
        "cb459f2b31d91d5f67bae5a8d7a4af6e80d0034bf4656a8dfbb3b3d32ac28c256c73611d89d1dfa416eaa2822ffc17a630ae25cec05ae63011377e640fe7ccfa"
      ],
      "is_coinbase": false,
      "sequence": 0
    },
    {
      "txid": "1f3fb9409eee79ebdce005f9834d66c1bffaa1d4415e700f563b92d3c65e5089",
      "vout": 0,
      "prevout": {
        "scriptpubkey": "51205e96fd360ddc3d9c629a141caf86419ab02e5cbe544385f1fbe097eda8138f22",
        "scriptpubkey_asm": "OP_PUSHNUM_1 OP_PUSHBYTES_32 5e96fd360ddc3d9c629a141caf86419ab02e5cbe544385f1fbe097eda8138f22",
        "scriptpubkey_type": "v1_p2tr",
        "scriptpubkey_address": "bc1pt6t06dsdms7ecc56zsw2lpjpn2czuh9723pctu0muzt7m2qn3u3qs2v5cc",
        "value": 258288
      },
      "scriptsig": "",
      "scriptsig_asm": "",
      "witness": [
        "413158e839840101beb9fb4098e564ba6c6503e8c891c9bb4d24593ce9f046234c1d9a2fcb2317e0e3dfe7efe98e4dc72f24b98fe7749fbf5b40bed7ba0851c5"
      ],
      "is_coinbase": false,
      "sequence": 0
    },
    {
      "txid": "1d65900975f4bdda7b018726a74470b9ecea03d412867ffddbec03e5688938a4",
      "vout": 0,
      "prevout": {
        "scriptpubkey": "5120968a4b7f128cb49b67f861b634a4e4727d89cfdc2ac76b4fcbbaa58d3d8a5307",
        "scriptpubkey_asm": "OP_PUSHNUM_1 OP_PUSHBYTES_32 968a4b7f128cb49b67f861b634a4e4727d89cfdc2ac76b4fcbbaa58d3d8a5307",
        "scriptpubkey_type": "v1_p2tr",
        "scriptpubkey_address": "bc1pj69yklcj3j6fkelcvxmrff8ywf7cnn7u9trkkn7th2jc60v22vrscsjgg0",
        "value": 47360
      },
      "scriptsig": "",
      "scriptsig_asm": "",
      "witness": [
        "467b84e6621c62c631df654cd008d1fe1c96b619fdb32f30f0bfac544d442448d4ea7f617e75f42f267a8b349d03dfb230cc9badd5a51f25106330a626eabd53"
      ],
      "is_coinbase": false,
      "sequence": 0
    },
    {
      "txid": "9e0c7a0e5948a3ac250d7673a82f834b44b6535755d0ce489f7e1f354b6ff848",
      "vout": 0,
      "prevout": {
        "scriptpubkey": "5120476dea5505735534b0f5317b579f4794a76b57771d672a1a84f079c05bba4e43",
        "scriptpubkey_asm": "OP_PUSHNUM_1 OP_PUSHBYTES_32 476dea5505735534b0f5317b579f4794a76b57771d672a1a84f079c05bba4e43",
        "scriptpubkey_type": "v1_p2tr",
        "scriptpubkey_address": "bc1pgak754g9wd2nfv84x9a40868jjnkk4mhr4nj5x5y7puuqka6fepsyuerza",
        "value": 10000
      },
      "scriptsig": "",
      "scriptsig_asm": "",
      "witness": [
        "3a3f8f850db17d317ce64a9f1f5a89df478941fb0196f69fb3733baec3567b5a3c8f0ae462eade0cc88218954da9656eca82a92b464087cd9f00b54fced090f7"
      ],
      "is_coinbase": false,
      "sequence": 0
    },
    {
      "txid": "8e4a61bc976fc8a701339cd4652f947a94bab2edd6d76cf8df46a27b25b2461d",
      "vout": 0,
      "prevout": {
        "scriptpubkey": "5120097beeeb42b9b9c128b6b344f6096030cb2d91b1139ae55b9f27d1f06621cb76",
        "scriptpubkey_asm": "OP_PUSHNUM_1 OP_PUSHBYTES_32 097beeeb42b9b9c128b6b344f6096030cb2d91b1139ae55b9f27d1f06621cb76",
        "scriptpubkey_type": "v1_p2tr",
        "scriptpubkey_address": "bc1pp9a7a66zhxuuz29kkdz0vztqxr9jmyd3zwdw2kulylglqe3pedmqsdz80j",
        "value": 20000
      },
      "scriptsig": "",
      "scriptsig_asm": "",
      "witness": [
        "6cf963b0d50e29908f1c480608f7bb1f139a942e04d26bd5634044f736a886751c37035bce3d1c23a86956df923d626048b1e337d3dedfe4b43d5725cd6e36f1"
      ],
      "is_coinbase": false,
      "sequence": 0
    },
    {
      "txid": "ead0d495c7d14a8b75137bb559d54e176a037a1098e0bc3be92866257b5dbaaa",
      "vout": 0,
      "prevout": {
        "scriptpubkey": "5120e7ace2e83e4d6c5b0b03288d57dd3430d5e2bb09b4d46f5f4153c97d95fd5584",
        "scriptpubkey_asm": "OP_PUSHNUM_1 OP_PUSHBYTES_32 e7ace2e83e4d6c5b0b03288d57dd3430d5e2bb09b4d46f5f4153c97d95fd5584",
        "scriptpubkey_type": "v1_p2tr",
        "scriptpubkey_address": "bc1pu7kw96p7f4k9kzcr9zx40hf5xr279wcfkn2x7h6p20yhm90a2kzq6xpyaq",
        "value": 20000
      },
      "scriptsig": "",
      "scriptsig_asm": "",
      "witness": [
        "7a3f7c8a925f17e17f0c8ba90ba9a3e5ea43f75f3886f1e30de175df624ce04b3429895dfaca80346cf1feb73ec1a74711a1a472761cc78842bf25791354c5e1"
      ],
      "is_coinbase": false,
      "sequence": 0
    },
    {
      "txid": "ec5ba7ed70613bc6a4342a0c2fb6e26b7dfeb83e04d6ae1c29d77e22141fd3f5",
      "vout": 0,
      "prevout": {
        "scriptpubkey": "5120fcf1f782c98420940c22e945e2d1d3f3a1f70cec7dab60096a2d2f5359eb0c93",
        "scriptpubkey_asm": "OP_PUSHNUM_1 OP_PUSHBYTES_32 fcf1f782c98420940c22e945e2d1d3f3a1f70cec7dab60096a2d2f5359eb0c93",
        "scriptpubkey_type": "v1_p2tr",
        "scriptpubkey_address": "bc1plncl0qkfsssfgrpza9z795wn7wslwr8v0k4kqzt295h4xk0tpjfsy69kj2",
        "value": 10000
      },
      "scriptsig": "",
      "scriptsig_asm": "",
      "witness": [
        "9833ace9e22878ba8a68d773b782f078429e8e7ebfa086105f9045280091c4431382688293727d279335392f38f59de2742355002d386c64752f8adde449cd96"
      ],
      "is_coinbase": false,
      "sequence": 0
    },
    {
      "txid": "64884ff1fb29e712f6ebecd1063b29547b2753de98fe28269259120e3f4cf1c8",
      "vout": 0,
      "prevout": {
        "scriptpubkey": "512069dd4ac7c1243e7372fd00f6fdf944cf11d1d6c6735ed461cb2fd6bd64e790c6",
        "scriptpubkey_asm": "OP_PUSHNUM_1 OP_PUSHBYTES_32 69dd4ac7c1243e7372fd00f6fdf944cf11d1d6c6735ed461cb2fd6bd64e790c6",
        "scriptpubkey_type": "v1_p2tr",
        "scriptpubkey_address": "bc1pd8w5437pysl8xuhaqrm0m72yeugar4kxwd0dgcwt9ltt6e88jrrqzknmfl",
        "value": 10000
      },
      "scriptsig": "",
      "scriptsig_asm": "",
      "witness": [
        "fd530524c268f9b24b9cbe045d6c8f5d261d0fa2f7e7625a21437f53019afd2ce894b5d957873d026a1a406c71ead6d3d65607240d2a1fa32d7b2308b87b1391"
      ],
      "is_coinbase": false,
      "sequence": 0
    }
  ],
  "vout": [
    {
      "scriptpubkey": "5120c6e04d34648c459eb52cc18aff54d3ec8b34f56882a3fc4a20c4d394b47fb53f",
      "scriptpubkey_asm": "OP_PUSHNUM_1 OP_PUSHBYTES_32 c6e04d34648c459eb52cc18aff54d3ec8b34f56882a3fc4a20c4d394b47fb53f",
      "scriptpubkey_type": "v1_p2tr",
      "scriptpubkey_address": "bc1pcmsy6dry33zeadfvcx9074xnaj9nfatgs23lcj3qcnfefdrlk5ls0u400q",
      "value": 20000
    },
    {
      "scriptpubkey": "76a91404aabc9a879f1b8e5a32ba047dfa5dd2f2095b3788ac",
      "scriptpubkey_asm": "OP_DUP OP_HASH160 OP_PUSHBYTES_20 04aabc9a879f1b8e5a32ba047dfa5dd2f2095b37 OP_EQUALVERIFY OP_CHECKSIG",
      "scriptpubkey_type": "p2pkh",
      "scriptpubkey_address": "1RgEmHQi8TcLxL6QnkNLqf3xkDQ4JCtVv",
      "value": 873353
    }
  ],
  "size": 1159,
  "weight": 2650,
  "fee": 7980,
  "status": {
    "confirmed": true,
    "block_height": 834460,
    "block_hash": "00000000000000000000484a79b643b2524bbce82e5d8a442013fa5b8905ed98",
    "block_time": 1710307468
  },
  "hex": "0200000000010ad3ac84edd2a16835a31033d7c594ee1cbf3a2b393e3264e657f41577ee4284a7000000000000000000f4f15e2d7bfa703b4addc28de8610b9a6492f55f47408b4f390073b2263656e20000000000000000006e6f8f7343857b06e7d9ffd86ba9ff365106764c26685ce99b61f1bc1d87107b00000000000000000089505ec6d3923b560f705e41d4a1fabfc1664d83f905e0dceb79ee9e40b93f1f000000000000000000a4388968e503ecdbfd7f8612d403eaecb97044a72687017bdabdf4750990651d00000000000000000048f86f4b351f7e9f48ced0555753b6444b832fa873760d25aca348590e7a0c9e0000000000000000001d46b2257ba246dff86cd7d6edb2ba947a942f65d49c3301a7c86f97bc614a8e000000000000000000aaba5d7b256628e93bbce098107a036a174ed559b57b13758b4ad1c795d4d0ea000000000000000000f5d31f14227ed7291caed6043eb8fe7d6be2b62f0c2a34a4c63b6170eda75bec000000000000000000c8f14c3f0e1259922628fe98de53277b54293b06d1ecebf612e729fbf14f886400000000000000000002204e000000000000225120c6e04d34648c459eb52cc18aff54d3ec8b34f56882a3fc4a20c4d394b47fb53f89530d00000000001976a91404aabc9a879f1b8e5a32ba047dfa5dd2f2095b3788ac0140dd438a9bfbfa7170ccdc450e242a4888d0dbee3073ddc41f61a96b29ea4ef784995cc8349f0f30dd31b518b9eb6eb0b7d5ef721d6c936a304dd7b7fe6c76959a0140cf1b544e6ed5bb8e4c60e34c4e5c34c389331fed98192ed99de8b967a4439f96b440bc9f69f3fd7cd3386623ce7240f6d9c63227cd177abcf86f27a032829f9b0140cb459f2b31d91d5f67bae5a8d7a4af6e80d0034bf4656a8dfbb3b3d32ac28c256c73611d89d1dfa416eaa2822ffc17a630ae25cec05ae63011377e640fe7ccfa0140413158e839840101beb9fb4098e564ba6c6503e8c891c9bb4d24593ce9f046234c1d9a2fcb2317e0e3dfe7efe98e4dc72f24b98fe7749fbf5b40bed7ba0851c50140467b84e6621c62c631df654cd008d1fe1c96b619fdb32f30f0bfac544d442448d4ea7f617e75f42f267a8b349d03dfb230cc9badd5a51f25106330a626eabd5301403a3f8f850db17d317ce64a9f1f5a89df478941fb0196f69fb3733baec3567b5a3c8f0ae462eade0cc88218954da9656eca82a92b464087cd9f00b54fced090f701406cf963b0d50e29908f1c480608f7bb1f139a942e04d26bd5634044f736a886751c37035bce3d1c23a86956df923d626048b1e337d3dedfe4b43d5725cd6e36f101407a3f7c8a925f17e17f0c8ba90ba9a3e5ea43f75f3886f1e30de175df624ce04b3429895dfaca80346cf1feb73ec1a74711a1a472761cc78842bf25791354c5e101409833ace9e22878ba8a68d773b782f078429e8e7ebfa086105f9045280091c4431382688293727d279335392f38f59de2742355002d386c64752f8adde449cd960140fd530524c268f9b24b9cbe045d6c8f5d261d0fa2f7e7625a21437f53019afd2ce894b5d957873d026a1a406c71ead6d3d65607240d2a1fa32d7b2308b87b13919abb0c00"
}