{
  "txid": "6f01dbfedc8ca4c172ec4e3ac7658d6a195dfd6472067ceb2f7846471b7415b8",
  "version": 1,
  "locktime": 0,
  "vin": [
    {
      "txid": "53244b576705cae2186f19fc55dc7dcd5a97cbac3d7b8677e0e442132ead3590",
      "vout": 1,
      "prevout": {
        "scriptpubkey": "76a9141fe2de41946c80a5d3c56ac886997cc471b9ab8188ac",
        "scriptpubkey_asm": "OP_DUP OP_HASH160 OP_PUSHBYTES_20 1fe2de41946c80a5d3c56ac886997cc471b9ab81 OP_EQUALVERIFY OP_CHECKSIG",
        "scriptpubkey_type": "p2pkh",
        "scriptpubkey_address": "13ubj2SSDWnCP234Bx1rix8qSk9LhQort3",
        "value": 165339
      },
      "scriptsig": "483045022100d0af0a693a76f81c77d9d7072ec868c3c1c2b1ad827876e61cb94a62df741c130220267c61f6f77234e2d7fbc125b585f5a7f56c2d630c92ab11150be395f90d7d3e012102aee96f8d3e0abaf0759a434c7e5a0c9dd1ea89c99bec10605b27779414da80d9",
      "scriptsig_asm": "OP_PUSHBYTES_72 3045022100d0af0a693a76f81c77d9d7072ec868c3c1c2b1ad827876e61cb94a62df741c130220267c61f6f77234e2d7fbc125b585f5a7f56c2d630c92ab11150be395f90d7d3e01 OP_PUSHBYTES_33 02aee96f8d3e0abaf0759a434c7e5a0c9dd1ea89c99bec10605b27779414da80d9",
      "is_coinbase": false,
      "sequence": 4294967295
    }
  ],
  "vout": [
    {
      "scriptpubkey": "6a215fba659d30faafece9f78c5ab6decd42b7e87de493df201b460c327cfe9841e548",
      "scriptpubkey_asm": "OP_RETURN OP_PUSHBYTES_33 5fba659d30faafece9f78c5ab6decd42b7e87de493df201b460c327cfe9841e548",
      "scriptpubkey_type": "op_return",
      "value": 0
    },
    {
      "scriptpubkey": "0014419854753506f2b3e771860f36eb919d89cc890f",
      "scriptpubkey_asm": "OP_0 OP_PUSHBYTES_20 419854753506f2b3e771860f36eb919d89cc890f",
      "scriptpubkey_type": "v0_p2wpkh",
      "scriptpubkey_address": "bc1qgxv9gaf4qmet8em3sc8nd6u3nkyuezg0cg9p36",
      "value": 1111
    },
    {
      "scriptpubkey": "76a9141fe2de41946c80a5d3c56ac886997cc471b9ab8188ac",
      "scriptpubkey_asm": "OP_DUP OP_HASH160 OP_PUSHBYTES_20 1fe2de41946c80a5d3c56ac886997cc471b9ab81 OP_EQUALVERIFY OP_CHECKSIG",
      "scriptpubkey_type": "p2pkh",
      "scriptpubkey_address": "13ubj2SSDWnCP234Bx1rix8qSk9LhQort3",
      "value": 160356
    }
  ],
  "size": 267,
  "weight": 1068,
  "fee": 3872,
  "status": {
    "confirmed": true,
    "block_height": 834460,
    "block_hash": "00000000000000000000484a79b643b2524bbce82e5d8a442013fa5b8905ed98",
    "block_time": 1710307468
  },
  "hex": "01000000019035ad2e1342e4e077867b3daccb975acd7ddc55fc196f18e2ca0567574b2453010000006b483045022100d0af0a693a76f81c77d9d7072ec868c3c1c2b1ad827876e61cb94a62df741c130220267c61f6f77234e2d7fbc125b585f5a7f56c2d630c92ab11150be395f90d7d3e012102aee96f8d3e0abaf0759a434c7e5a0c9dd1ea89c99bec10605b27779414da80d9ffffffff030000000000000000236a215fba659d30faafece9f78c5ab6decd42b7e87de493df201b460c327cfe9841e5485704000000000000160014419854753506f2b3e771860f36eb919d89cc890f64720200000000001976a9141fe2de41946c80a5d3c56ac886997cc471b9ab8188ac00000000"
}