{
  "txid": "6f044006e0f8e505e0ade1518a4d48b29b60f5c3cd19e9d36ad0e27a9a7278a4",
  "version": 2,
  "locktime": 0,
  "vin": [
    {
      "txid": "b48aaa66a775118a0212ee8730e8ad2926507acfe8798f7cdcabf2d932a34cb5",
      "vout": 51,
      "prevout": {
        "scriptpubkey": "0014b87b1d5d92c7d8b3b81f2f3ce37581358f2bbd59",
        "scriptpubkey_asm": "OP_0 OP_PUSHBYTES_20 b87b1d5d92c7d8b3b81f2f3ce37581358f2bbd59",
        "scriptpubkey_type": "v0_p2wpkh",
        "scriptpubkey_address": "bc1qhpa36hvjclvt8wql9u7wxavpxk8jh02e8qur9f",
        "value": 27286
      },
      "scriptsig": "",
      "scriptsig_asm": "",
      "witness": [
        "304402203c69482fabf282a24741a016770f7afcecf80c820b62c5f1fcb8072e5cd609d502203098a6b02b0eb58f5051aa1cce784543524458655216cd43c8f288a46a3cdeb801",
        "02cd83b06d13f4bc7f0da00bcfc6cf88cfe368416ff64e95af073a9ffb37f6c529"
      ],
      "is_coinbase": false,
      "sequence": 4294967293
    },
    {
      "txid": "321967ac412a994fc4cf0b165c9c9d84f4b74e0087ea39b0ab731e88fee68eee",
      "vout": 84,
      "prevout": {
        "scriptpubkey": "0014fbf3ec7236ca8ea4333c91add402ad53ab748ddd",
        "scriptpubkey_asm": "OP_0 OP_PUSHBYTES_20 fbf3ec7236ca8ea4333c91add402ad53ab748ddd",
        "scriptpubkey_type": "v0_p2wpkh",
        "scriptpubkey_address": "bc1ql0e7cu3ke282gveujxkagq4d2w4hfrwaufk4v8",
        "value": 6857
      },
      "scriptsig": "",
      "scriptsig_asm": "",
      "witness": [
        "304402206fa671f06138abc09f2b71ebd8434364973a92b2ad4f0075e085c7b4a6624dac02207656d26b8f077e3f2f208d7171218b15bdf01074ae7072e878207de0dfc7372c01",
        "0234aac94774c1cc20e43aaf1a28ba14c617d3ae8571d644ea424a1f31f59c1345"
      ],
      "is_coinbase": false,
      "sequence": 4294967293
    }
  ],
  "vout": [
    {
      "scriptpubkey": "00142f417fcf71d4f879df68cb9b19e7c7a3c078e51e",
      "scriptpubkey_asm": "OP_0 OP_PUSHBYTES_20 2f417fcf71d4f879df68cb9b19e7c7a3c078e51e",
      "scriptpubkey_type": "v0_p2wpkh",
      "scriptpubkey_address": "bc1q9aqhlnm36nu8nhmgewd3ne7850q83eg727pdmz",
      "value": 27280
    }
  ],
  "size": 339,
  "weight": 708,
  "fee": 6863,
  "status": {
    "confirmed": true,
    "block_height": 834638,
    "block_hash": "000000000000000000025f742c626208ac87e0b7d15054abb4a19ca2d735a54e",
    "block_time": 1710405325
  },
  "hex": "02000000000102b54ca332d9f2abdc7c8f79e8cf7a502629ade83087ee12028a1175a766aa8ab43300000000fdffffffee8ee6fe881e73abb039ea87004eb7f4849d9c5c160bcfc44f992a41ac6719325400000000fdffffff01906a0000000000001600142f417fcf71d4f879df68cb9b19e7c7a3c078e51e0247304402203c69482fabf282a24741a016770f7afcecf80c820b62c5f1fcb8072e5cd609d502203098a6b02b0eb58f5051aa1cce784543524458655216cd43c8f288a46a3cdeb8012102cd83b06d13f4bc7f0da00bcfc6cf88cfe368416ff64e95af073a9ffb37f6c5290247304402206fa671f06138abc09f2b71ebd8434364973a92b2ad4f0075e085c7b4a6624dac02207656d26b8f077e3f2f208d7171218b15bdf01074ae7072e878207de0dfc7372c01210234aac94774c1cc20e43aaf1a28ba14c617d3ae8571d644ea424a1f31f59c134500000000"
}