{
  "txid": "6f080d9992ec6c76ebe5f624853f64cc3c616d0b10fe20fdb6780c8fe47192ba",
  "version": 1,
  "locktime": 0,
  "vin": [
    {
      "txid": "10a55cd1424c767f3abecb14b085343bf15c1bbde2ef24fd8546ef6dd11d81f9",
      "vout": 1,
      "prevout": {
        "scriptpubkey": "0014f4c7416adc767130e848190c85c636f7919ccea0",
        "scriptpubkey_asm": "OP_0 OP_PUSHBYTES_20 f4c7416adc767130e848190c85c636f7919ccea0",
        "scriptpubkey_type": "v0_p2wpkh",
        "scriptpubkey_address": "bc1q7nr5z6kuwecnp6zgryxgt33k77geen4q5lcsvl",
        "value": 393075
      },
      "scriptsig": "",
      "scriptsig_asm": "",
      "witness": [
        "30440220383b0daf09b722df8c2542598b3bf360ff65f3d7e85e862f9ecce4873c583f93022055682620beb84b180f52bfdbf0e746f3996c6860671d08820c0460753671764001",
        "03ec526a71a09b2b0d4414801ca96386b73f17d33ec5498cd00a4a29b227ac6ca4"
      ],
      "is_coinbase": false,
      "sequence": 4294967295
    }
  ],
  "vout": [
    {
      "scriptpubkey": "0014cce24d307cfd948613a08acff0d1f39eef809eff",
      "scriptpubkey_asm": "OP_0 OP_PUSHBYTES_20 cce24d307cfd948613a08acff0d1f39eef809eff",
      "scriptpubkey_type": "v0_p2wpkh",
      "scriptpubkey_address": "bc1qen3y6vrulk2gvyaq3t8lp50nnmhcp8hlqg5jcn",
      "value": 61200
    },
    {
      "scriptpubkey": "0014451e019af7493a453ec9cccd243b533bfb58144e",
      "scriptpubkey_asm": "OP_0 OP_PUSHBYTES_20 451e019af7493a453ec9cccd243b533bfb58144e",
      "scriptpubkey_type": "v0_p2wpkh",
      "scriptpubkey_address": "bc1qg50qrxhhfyay20kfenxjgw6n80a4s9zwrncgf9",
      "value": 328241
    }
  ],
  "size": 222,
  "weight": 561,
  "fee": 3634,
  "status": {
    "confirmed": true,
    "block_height": 834638,
    "block_hash": "000000000000000000025f742c626208ac87e0b7d15054abb4a19ca2d735a54e",
    "block_time": 1710405325
  },
  "hex": "01000000000101f9811dd16def4685fd24efe2bd1b5cf13b3485b014cbbe3a7f764c42d15ca5100100000000ffffffff0210ef000000000000160014cce24d307cfd948613a08acff0d1f39eef809eff3102050000000000160014451e019af7493a453ec9cccd243b533bfb58144e024730440220383b0daf09b722df8c2542598b3bf360ff65f3d7e85e862f9ecce4873c583f93022055682620beb84b180f52bfdbf0e746f3996c6860671d08820c04607536717640012103ec526a71a09b2b0d4414801ca96386b73f17d33ec5498cd00a4a29b227ac6ca400000000"
}