{
  "txid": "6f27338a30abe4dd888d4df232014612ba94900e9795715a2eb989e1216a9af5",
  "version": 1,
  "locktime": 0,
  "vin": [
    {
      "txid": "648de097962c12eddb9ed21038b95b536130ff0c7c48d0d045047614199141f6",
      "vout": 15,
      "prevout": {
        "scriptpubkey": "76a914b37730494e222b70640a34b48135de7be3839b6788ac",
        "scriptpubkey_asm": "OP_DUP OP_HASH160 OP_PUSHBYTES_20 b37730494e222b70640a34b48135de7be3839b67 OP_EQUALVERIFY OP_CHECKSIG",
        "scriptpubkey_type": "p2pkh",
        "scriptpubkey_address": "1HMvji4rtinWQhYmsmfQ7NSWgiE2ZX1yUC",
        "value": 2090000000
      },
      "scriptsig": "483045022100da93b35d7f2b31509d2c510f46228174bcc1658724a28772dba1a6b36006ef3a02201994962802981c07b64405d5d87c2dd20561509fc4dbc037777adf3a564a2e65012103bd9758ec2cd5ad89bff2d2f2595462028b43869e4fb3bfd68298639c4d06cd15",
      "scriptsig_asm": "OP_PUSHBYTES_72 3045022100da93b35d7f2b31509d2c510f46228174bcc1658724a28772dba1a6b36006ef3a02201994962802981c07b64405d5d87c2dd20561509fc4dbc037777adf3a564a2e6501 OP_PUSHBYTES_33 03bd9758ec2cd5ad89bff2d2f2595462028b43869e4fb3bfd68298639c4d06cd15",
      "is_coinbase": false,
      "sequence": 4294967295
    }
  ],
  "vout": [
    {
      "scriptpubkey": "00149ee8a0e559ad1d92f0aa1bd077fdc9420a4f3c06",
      "scriptpubkey_asm": "OP_0 OP_PUSHBYTES_20 9ee8a0e559ad1d92f0aa1bd077fdc9420a4f3c06",
      "scriptpubkey_type": "v0_p2wpkh",
      "scriptpubkey_address": "bc1qnm52pe2e45we9u92r0g80lwfgg9y70qxq87sux",
      "value": 1000000000
    },
    {
      "scriptpubkey": "0014b37730494e222b70640a34b48135de7be3839b67",
      "scriptpubkey_asm": "OP_0 OP_PUSHBYTES_20 b37730494e222b70640a34b48135de7be3839b67",
      "scriptpubkey_type": "v0_p2wpkh",
      "scriptpubkey_address": "bc1qkdmnqj2wyg4hqeq2xj6gzdw7003c8xm8tf0h8d",
      "value": 1089996270
    }
  ],
  "size": 220,
  "weight": 880,
  "fee": 3730,
  "status": {
    "confirmed": true,
    "block_height": 834638,
    "block_hash": "000000000000000000025f742c626208ac87e0b7d15054abb4a19ca2d735a54e",
    "block_time": 1710405325
  },
  "hex": "0100000001f641911914760445d0d0487c0cff3061535bb93810d29edbed122c9697e08d640f0000006b483045022100da93b35d7f2b31509d2c510f46228174bcc1658724a28772dba1a6b36006ef3a02201994962802981c07b64405d5d87c2dd20561509fc4dbc037777adf3a564a2e65012103bd9758ec2cd5ad89bff2d2f2595462028b43869e4fb3bfd68298639c4d06cd15ffffffff0200ca9a3b000000001600149ee8a0e559ad1d92f0aa1bd077fdc9420a4f3c06ee05f84000000000160014b37730494e222b70640a34b48135de7be3839b6700000000"
}