{
  "txid": "6f366de696e5e005b051af2478e2fd2b69a5c628b1cb284bbb7f0b3f09fc5764",
  "version": 1,
  "locktime": 0,
  "vin": [
    {
      "txid": "3f52983695fef0043b2a4b70757f36b22697c87c9a9cc923e1661930179d18b4",
      "vout": 1,
      "prevout": {
        "scriptpubkey": "76a914a520c86a08366941cd90d22e11ac1c7eefa2db3788ac",
        "scriptpubkey_asm": "OP_DUP OP_HASH160 OP_PUSHBYTES_20 a520c86a08366941cd90d22e11ac1c7eefa2db37 OP_EQUALVERIFY OP_CHECKSIG",
        "scriptpubkey_type": "p2pkh",
        "scriptpubkey_address": "1G47mSr3oANXMafVrR8UC4pzV7FEAzo3r9",
        "value": 249622738
      },
      "scriptsig": "483045022100c03c4553cd6372823d1783848e2adc04a4ab6eff3fe3814ad2abfbe6c649611702203a8fb830a195a7e6c47eacc494f0d9847825394908faa84503373f2c96208524012103f3f44c9e80e2cedc1a2909631a3adea8866ee32187f74d0912387359b0ff36a2",
      "scriptsig_asm": "OP_PUSHBYTES_72 3045022100c03c4553cd6372823d1783848e2adc04a4ab6eff3fe3814ad2abfbe6c649611702203a8fb830a195a7e6c47eacc494f0d9847825394908faa84503373f2c9620852401 OP_PUSHBYTES_33 03f3f44c9e80e2cedc1a2909631a3adea8866ee32187f74d0912387359b0ff36a2",
      "is_coinbase": false,
      "sequence": 0
    }
  ],
  "vout": [
    {
      "scriptpubkey": "76a914e61093aa24663f18c15f8ed34f57fbedfca60a2588ac",
      "scriptpubkey_asm": "OP_DUP OP_HASH160 OP_PUSHBYTES_20 e61093aa24663f18c15f8ed34f57fbedfca60a25 OP_EQUALVERIFY OP_CHECKSIG",
      "scriptpubkey_type": "p2pkh",
      "scriptpubkey_address": "1MyUGu6qurmLz3fgAdHGjqJtZyADhtR8Mp",
      "value": 1532538
    },
    {
      "scriptpubkey": "00205bee8929af4729630491ccc4aa31d80a59d8e3e15889342c73a9d20c7cb5180a",
      "scriptpubkey_asm": "OP_0 OP_PUSHBYTES_32 5bee8929af4729630491ccc4aa31d80a59d8e3e15889342c73a9d20c7cb5180a",
      "scriptpubkey_type": "v0_p2wsh",
      "scriptpubkey_address": "bc1qt0hgj2d0gu5kxpy3enz25vwcpfva3clptzyngtrn48fqcl94rq9qzk4x6y",
      "value": 411500
    },
    {
      "scriptpubkey": "a91413c6f18c5a211cd9721f481abd10939adde40d6587",
      "scriptpubkey_asm": "OP_HASH160 OP_PUSHBYTES_20 13c6f18c5a211cd9721f481abd10939adde40d65 OP_EQUAL",
      "scriptpubkey_type": "p2sh",
      "scriptpubkey_address": "33Vb62cMUCynZoGdJid16tG6dLo1yJEctn",
      "value": 2553500
    },
    {
      "scriptpubkey": "76a914a520c86a08366941cd90d22e11ac1c7eefa2db3788ac",
      "scriptpubkey_asm": "OP_DUP OP_HASH160 OP_PUSHBYTES_20 a520c86a08366941cd90d22e11ac1c7eefa2db37 OP_EQUALVERIFY OP_CHECKSIG",
      "scriptpubkey_type": "p2pkh",
      "scriptpubkey_address": "1G47mSr3oANXMafVrR8UC4pzV7FEAzo3r9",
      "value": 245117035
    }
  ],
  "size": 301,
  "weight": 1204,
  "fee": 8165,
  "status": {
    "confirmed": true,
    "block_height": 834552,
    "block_hash": "00000000000000000001dd0468a70c94f619251d286585cff57aeb4bd9ede330",
    "block_time": 1710355598
  },
  "hex": "0100000001b4189d17301966e123c99c9a7cc89726b2367f75704b2a3b04f0fe953698523f010000006b483045022100c03c4553cd6372823d1783848e2adc04a4ab6eff3fe3814ad2abfbe6c649611702203a8fb830a195a7e6c47eacc494f0d9847825394908faa84503373f2c96208524012103f3f44c9e80e2cedc1a2909631a3adea8866ee32187f74d0912387359b0ff36a200000000047a621700000000001976a914e61093aa24663f18c15f8ed34f57fbedfca60a2588ac6c470600000000002200205bee8929af4729630491ccc4aa31d80a59d8e3e15889342c73a9d20c7cb5180a9cf626000000000017a91413c6f18c5a211cd9721f481abd10939adde40d65876b309c0e000000001976a914a520c86a08366941cd90d22e11ac1c7eefa2db3788ac00000000"
}