{
  "txid": "6f46cda8672a7d660e2f8cec69ea0c344a2e80e9b1dc1520753dd5b248f5e561",
  "version": 1,
  "locktime": 0,
  "vin": [
    {
      "txid": "ce8839e538757b96830eae35c8e8a063170910af5e7181649c185dcaa1a61851",
      "vout": 87,
      "prevout": {
        "scriptpubkey": "001497df7c1d512830a520ccc9bed8851c365305ca01",
        "scriptpubkey_asm": "OP_0 OP_PUSHBYTES_20 97df7c1d512830a520ccc9bed8851c365305ca01",
        "scriptpubkey_type": "v0_p2wpkh",
        "scriptpubkey_address": "bc1qjl0hc8239qc22gxvexld3pguxefstjsp22cqsy",
        "value": 502823
      },
      "scriptsig": "",
      "scriptsig_asm": "",
      "witness": [
        "3044022002ad38920485f53acd0f9533de335da33d7c827cfb933a78c92785d10efcd52502200b815719677dc4def92154686d61c1aca7435df37526b153881f0d34472c74a401",
        "021eaf27d3a46b9ba8de42056ff9bb499b12cc6ef2a1f3b28c1b09f4471208dbf3"
      ],
      "is_coinbase": false,
      "sequence": 4294967295
    }
  ],
  "vout": [
    {
      "scriptpubkey": "76a9143eedda9442a848784574d313d4a182c17453cb4488ac",
      "scriptpubkey_asm": "OP_DUP OP_HASH160 OP_PUSHBYTES_20 3eedda9442a848784574d313d4a182c17453cb44 OP_EQUALVERIFY OP_CHECKSIG",
      "scriptpubkey_type": "p2pkh",
      "scriptpubkey_address": "16jjqGV3jDM6DmZgcsJuNK3LU2itcsjVWs",
      "value": 498960
    }
  ],
  "size": 194,
  "weight": 449,
  "fee": 3863,
  "status": {
    "confirmed": true,
    "block_height": 834464,
    "block_hash": "0000000000000000000177a0869a911a2b65c9bdcd5a8bcb02b68f305bee848e",
    "block_time": 1710308296
  },
  "hex": "010000000001015118a6a1ca5d189c6481715eaf10091763a0e8c835ae0e83967b7538e53988ce5700000000ffffffff01109d0700000000001976a9143eedda9442a848784574d313d4a182c17453cb4488ac02473044022002ad38920485f53acd0f9533de335da33d7c827cfb933a78c92785d10efcd52502200b815719677dc4def92154686d61c1aca7435df37526b153881f0d34472c74a40121021eaf27d3a46b9ba8de42056ff9bb499b12cc6ef2a1f3b28c1b09f4471208dbf300000000"
}