{
  "txid": "6f4da6f46fe3eacd86f19b981cdab577dc969cc9cd695c3cb9be7539d7604133",
  "version": 1,
  "locktime": 0,
  "vin": [
    {
      "txid": "1f7703ef66024cf5d6f185bfc49bece84f8e910e6a871ac2085582497127454c",
      "vout": 0,
      "prevout": {
        "scriptpubkey": "76a914556b2c898d1c669db420ef445f422a4d8165802388ac",
        "scriptpubkey_asm": "OP_DUP OP_HASH160 OP_PUSHBYTES_20 556b2c898d1c669db420ef445f422a4d81658023 OP_EQUALVERIFY OP_CHECKSIG",
        "scriptpubkey_type": "p2pkh",
        "scriptpubkey_address": "18neptGEDvvv35BjSW7v7p11eXJCcYqm9U",
        "value": 293842
      },
      "scriptsig": "47304402207de16dbc94a87bebecdfb59855c7e46f36820cfeaf0b5c797674b65a5b4aef41022002a1348da6de96ce965eca0922c94551bd81f456d1996fc2676a75393ea051c90121033aa1bb07124943a86051ce28f141f607a41151cb41ca23602797882f817eb423",
      "scriptsig_asm": "OP_PUSHBYTES_71 304402207de16dbc94a87bebecdfb59855c7e46f36820cfeaf0b5c797674b65a5b4aef41022002a1348da6de96ce965eca0922c94551bd81f456d1996fc2676a75393ea051c901 OP_PUSHBYTES_33 033aa1bb07124943a86051ce28f141f607a41151cb41ca23602797882f817eb423",
      "is_coinbase": false,
      "sequence": 4294967295
    }
  ],
  "vout": [
    {
      "scriptpubkey": "76a91471c570957839128067106b049a2d5b47ad84c7e788ac",
      "scriptpubkey_asm": "OP_DUP OP_HASH160 OP_PUSHBYTES_20 71c570957839128067106b049a2d5b47ad84c7e7 OP_EQUALVERIFY OP_CHECKSIG",
      "scriptpubkey_type": "p2pkh",
      "scriptpubkey_address": "1BNZt2w2TVtKQQToEgtF12pZayVi5nnFhG",
      "value": 287694
    },
    {
      "scriptpubkey": "76a91494d6d256e3b290d92eac13de9c0819f1f97e94be88ac",
      "scriptpubkey_asm": "OP_DUP OP_HASH160 OP_PUSHBYTES_20 94d6d256e3b290d92eac13de9c0819f1f97e94be OP_EQUALVERIFY OP_CHECKSIG",
      "scriptpubkey_type": "p2pkh",
      "scriptpubkey_address": "1EZzMTgTS9s8UGjwPhwB9YwwU9CPfx14aM",
      "value": 682
    }
  ],
  "size": 225,
  "weight": 900,
  "fee": 5466,
  "status": {
    "confirmed": true,
    "block_height": 834638,
    "block_hash": "000000000000000000025f742c626208ac87e0b7d15054abb4a19ca2d735a54e",
    "block_time": 1710405325
  },
  "hex": "01000000014c45277149825508c21a876a0e918e4fe8ec9bc4bf85f1d6f54c0266ef03771f000000006a47304402207de16dbc94a87bebecdfb59855c7e46f36820cfeaf0b5c797674b65a5b4aef41022002a1348da6de96ce965eca0922c94551bd81f456d1996fc2676a75393ea051c90121033aa1bb07124943a86051ce28f141f607a41151cb41ca23602797882f817eb423ffffffff02ce630400000000001976a91471c570957839128067106b049a2d5b47ad84c7e788acaa020000000000001976a91494d6d256e3b290d92eac13de9c0819f1f97e94be88ac00000000"
}