{
  "txid": "6f50621749d7e3f0e39a4e12609ca276372582a0ddf26ad20a9db154b4a11b88",
  "version": 1,
  "locktime": 0,
  "vin": [
    {
      "txid": "75b2d9015af6bf99c126fa11551a2ab3485d856ae893df0022d32cff437eec8c",
      "vout": 0,
      "prevout": {
        "scriptpubkey": "5120bb5e02eace79c83d76c803094266e13d99631083f5fea1d0e527c878039486de",
        "scriptpubkey_asm": "OP_PUSHNUM_1 OP_PUSHBYTES_32 bb5e02eace79c83d76c803094266e13d99631083f5fea1d0e527c878039486de",
        "scriptpubkey_type": "v1_p2tr",
        "scriptpubkey_address": "bc1phd0q96kw08yr6akgqvy5yehp8kvkxyyr7hl2r589yly8squ5sm0q5vlr3u",
        "value": 2568
      },
      "scriptsig": "",
      "scriptsig_asm": "",
      "witness": [
        "9f61ec69081e2169bedf299e1e0e8ea0975a5aba7580dd68d51b2f02d2c9ed55d0e1d85fd4f73237f974f8f9861679d4e189d79e9957515a1bfabd43bed2d31783",
        "20be11f1d0580232188e877ef283eb5a1efd4e9e5290a2633605d666f59ad3fff2ac00630461746f6d03646d742ca16461726773a36b6d696e745f7469636b657263627463656e6f6e63651a0026f4ec6474696d651a65ef264b68",
        "c0be11f1d0580232188e877ef283eb5a1efd4e9e5290a2633605d666f59ad3fff2"
      ],
      "is_coinbase": false,
      "sequence": 4294967293
    }
  ],
  "vout": [
    {
      "scriptpubkey": "51209d6dbbf9bad17d0135e06ea56ec304df985f9f9bc809fa52ae6789a0947e0300",
      "scriptpubkey_asm": "OP_PUSHNUM_1 OP_PUSHBYTES_32 9d6dbbf9bad17d0135e06ea56ec304df985f9f9bc809fa52ae6789a0947e0300",
      "scriptpubkey_type": "v1_p2tr",
      "scriptpubkey_address": "bc1pn4kmh7d6697szd0qd6jkascym7v9l8umeqyl554wv7y6p9r7qvqquzkndh",
      "value": 1000
    }
  ],
  "size": 289,
  "weight": 571,
  "fee": 1568,
  "status": {
    "confirmed": true,
    "block_height": 834464,
    "block_hash": "0000000000000000000177a0869a911a2b65c9bdcd5a8bcb02b68f305bee848e",
    "block_time": 1710308296
  },
  "hex": "010000000001018cec7e43ff2cd32200df93e86a855d48b32a1a5511fa26c199bff65a01d9b2750000000000fdffffff01e8030000000000002251209d6dbbf9bad17d0135e06ea56ec304df985f9f9bc809fa52ae6789a0947e030003419f61ec69081e2169bedf299e1e0e8ea0975a5aba7580dd68d51b2f02d2c9ed55d0e1d85fd4f73237f974f8f9861679d4e189d79e9957515a1bfabd43bed2d317835b20be11f1d0580232188e877ef283eb5a1efd4e9e5290a2633605d666f59ad3fff2ac00630461746f6d03646d742ca16461726773a36b6d696e745f7469636b657263627463656e6f6e63651a0026f4ec6474696d651a65ef264b6821c0be11f1d0580232188e877ef283eb5a1efd4e9e5290a2633605d666f59ad3fff200000000"
}