{
  "txid": "6f56f6feed657cb9dd7fc7a59ddca27c4aab79dd869f46f266e892072454ebfb",
  "version": 2,
  "locktime": 0,
  "vin": [
    {
      "txid": "4ee77778659dcfe8d7a4e15882fc6193f4f3d5f6607624e256337b44c2280af5",
      "vout": 15,
      "prevout": {
        "scriptpubkey": "5120268dd57730a1f7f35e3108b43164b34303acc69d1bd4d1fcae97695384b52633",
        "scriptpubkey_asm": "OP_PUSHNUM_1 OP_PUSHBYTES_32 268dd57730a1f7f35e3108b43164b34303acc69d1bd4d1fcae97695384b52633",
        "scriptpubkey_type": "v1_p2tr",
        "scriptpubkey_address": "bc1py6xa2aes58mlxh33pz6rze9ngvp6e35ar02drl9wja548p94yces36402g",
        "value": 2075
      },
      "scriptsig": "",
      "scriptsig_asm": "",
      "witness": [
        "65e02388c58a1ca9a148508fc9bcc9340be0bf12a214b26ce8deb0214728a7e41b4616723381e870f7825f0e62b9bac86818d9e199cf0b8d8c1523e486d392ae",
        "20c07666868e09121a254cc48175a4900bea0a3e0c8cee995be8b41e01d702edcfac0063036f7264010118746578742f706c61696e3b636861727365743d7574662d3800357b2270223a224252432d313030222c226f70223a226d696e74222c227469636b223a22696e73222c22616d74223a2231303030227d68",
        "c0c50eac15d7d7889f5ad84f80015e8a209129aeea937c37fa4b8bc0f9be289730"
      ],
      "is_coinbase": false,
      "sequence": 4294967295
    }
  ],
  "vout": [
    {
      "scriptpubkey": "00143e2325412b554cacdd163a93a42204c4707f8851",
      "scriptpubkey_asm": "OP_0 OP_PUSHBYTES_20 3e2325412b554cacdd163a93a42204c4707f8851",
      "scriptpubkey_type": "v0_p2wpkh",
      "scriptpubkey_address": "bc1q8c3j2sft24x2ehgk82f6ggsyc3c8lzz3yw9wsu",
      "value": 546
    }
  ],
  "size": 308,
  "weight": 554,
  "fee": 1529,
  "status": {
    "confirmed": true,
    "block_height": 834464,
    "block_hash": "0000000000000000000177a0869a911a2b65c9bdcd5a8bcb02b68f305bee848e",
    "block_time": 1710308296
  },
  "hex": "02000000000101f50a28c2447b3356e2247660f6d5f3f49361fc8258e1a4d7e8cf9d657877e74e0f00000000ffffffff0122020000000000001600143e2325412b554cacdd163a93a42204c4707f8851034065e02388c58a1ca9a148508fc9bcc9340be0bf12a214b26ce8deb0214728a7e41b4616723381e870f7825f0e62b9bac86818d9e199cf0b8d8c1523e486d392ae7b20c07666868e09121a254cc48175a4900bea0a3e0c8cee995be8b41e01d702edcfac0063036f7264010118746578742f706c61696e3b636861727365743d7574662d3800357b2270223a224252432d313030222c226f70223a226d696e74222c227469636b223a22696e73222c22616d74223a2231303030227d6821c0c50eac15d7d7889f5ad84f80015e8a209129aeea937c37fa4b8bc0f9be28973000000000"
}