{
  "txid": "6f6a6634a3cfd3997dd95a84135e06dff9514976461a3bb09c18851684d88a3a",
  "version": 2,
  "locktime": 0,
  "vin": [
    {
      "txid": "acc3ba00869acb582a3f2904ce3a11dd3779350ce234063fc7d0959246213364",
      "vout": 62,
      "prevout": {
        "scriptpubkey": "51207efb4325faabfadef95f4071875e7c6dc0782a6463057fa26b85885567a29f4d",
        "scriptpubkey_asm": "OP_PUSHNUM_1 OP_PUSHBYTES_32 7efb4325faabfadef95f4071875e7c6dc0782a6463057fa26b85885567a29f4d",
        "scriptpubkey_type": "v1_p2tr",
        "scriptpubkey_address": "bc1p0ma5xf0640ada72lgpccwhnudhq8s2nyvvzhlgntsky92eaznaxsy9exz2",
        "value": 1806
      },
      "scriptsig": "",
      "scriptsig_asm": "",
      "witness": [
        "406c91457950ed57bb3ad55ec1552d260a071a2a6a22188e548ae720185b9904016160b5bca661c60423fbcfeca348d9c6ae7c7e04c89e0f4f8ce605dc9724fd",
        "20efe06fb988c22ea1ac13cc02b0f7b97d51fbdaf8647f871f9b44aa4ca7d1738dac0063036f726401010a746578742f706c61696e00357b2270223a226272632d3230222c226f70223a226d696e74222c227469636b223a22646f6765222c22616d74223a2234323030227d68",
        "c1efe06fb988c22ea1ac13cc02b0f7b97d51fbdaf8647f871f9b44aa4ca7d1738d"
      ],
      "is_coinbase": false,
      "sequence": 4261412863
    }
  ],
  "vout": [
    {
      "scriptpubkey": "00147a665de7a370f4c9b372ab1fae587500a5bcbdb4",
      "scriptpubkey_asm": "OP_0 OP_PUSHBYTES_20 7a665de7a370f4c9b372ab1fae587500a5bcbdb4",
      "scriptpubkey_type": "v0_p2wpkh",
      "scriptpubkey_address": "bc1q0fn9mearwr6vnvmj4v06ukr4qzjme0d565dzcx",
      "value": 294
    }
  ],
  "size": 294,
  "weight": 540,
  "fee": 1512,
  "status": {
    "confirmed": true,
    "block_height": 834460,
    "block_hash": "00000000000000000000484a79b643b2524bbce82e5d8a442013fa5b8905ed98",
    "block_time": 1710307468
  },
  "hex": "02000000000101643321469295d0c73f0634e20c357937dd113ace04293f2a58cb9a8600bac3ac3e00000000fffffffd0126010000000000001600147a665de7a370f4c9b372ab1fae587500a5bcbdb40340406c91457950ed57bb3ad55ec1552d260a071a2a6a22188e548ae720185b9904016160b5bca661c60423fbcfeca348d9c6ae7c7e04c89e0f4f8ce605dc9724fd6d20efe06fb988c22ea1ac13cc02b0f7b97d51fbdaf8647f871f9b44aa4ca7d1738dac0063036f726401010a746578742f706c61696e00357b2270223a226272632d3230222c226f70223a226d696e74222c227469636b223a22646f6765222c22616d74223a2234323030227d6821c1efe06fb988c22ea1ac13cc02b0f7b97d51fbdaf8647f871f9b44aa4ca7d1738d00000000"
}