{
  "txid": "6f6cb09b7f48eb6d579af6156c71e51e662a5af97f7bb7a5eb9ce1c9047c4c5f",
  "version": 2,
  "locktime": 0,
  "vin": [
    {
      "txid": "b4fe98ae86f16d18af91471216242eef865f807c8ecf9591ee2d17d25b0c3621",
      "vout": 1,
      "prevout": {
        "scriptpubkey": "001404b1bd8ea9159c5e973d5859cd8234b458d41cc7",
        "scriptpubkey_asm": "OP_0 OP_PUSHBYTES_20 04b1bd8ea9159c5e973d5859cd8234b458d41cc7",
        "scriptpubkey_type": "v0_p2wpkh",
        "scriptpubkey_address": "bc1qqjcmmr4fzkw9a9eatpvumq35k3vdg8x86wdgdy",
        "value": 22252458
      },
      "scriptsig": "",
      "scriptsig_asm": "",
      "witness": [
        "304402200a1bc2cca2a8da2b72b3d6bd9b068f48acbd75e115cb8a692cbac2d4bce8ed5b022021e17eac25791a8e2ae4b4e94ea6b491e33f32b5c51edbc522431fdb7683fc1e01",
        "03db8e2137d839e7ef65ea76cf84bf89a733cbf7cd05103b80c11cfea263b878a3"
      ],
      "is_coinbase": false,
      "sequence": 4294967295
    }
  ],
  "vout": [
    {
      "scriptpubkey": "0014eda9d6c07c911e02dcff21894c7551b9731b8751",
      "scriptpubkey_asm": "OP_0 OP_PUSHBYTES_20 eda9d6c07c911e02dcff21894c7551b9731b8751",
      "scriptpubkey_type": "v0_p2wpkh",
      "scriptpubkey_address": "bc1qak5adsrujy0q9h8lyxy5ca23h9e3hp635d8ndr",
      "value": 54977
    },
    {
      "scriptpubkey": "001404b1bd8ea9159c5e973d5859cd8234b458d41cc7",
      "scriptpubkey_asm": "OP_0 OP_PUSHBYTES_20 04b1bd8ea9159c5e973d5859cd8234b458d41cc7",
      "scriptpubkey_type": "v0_p2wpkh",
      "scriptpubkey_address": "bc1qqjcmmr4fzkw9a9eatpvumq35k3vdg8x86wdgdy",
      "value": 22195831
    }
  ],
  "size": 222,
  "weight": 561,
  "fee": 1650,
  "status": {
    "confirmed": true,
    "block_height": 834638,
    "block_hash": "000000000000000000025f742c626208ac87e0b7d15054abb4a19ca2d735a54e",
    "block_time": 1710405325
  },
  "hex": "0200000000010121360c5bd2172dee9195cf8e7c805f86ef2e2416124791af186df186ae98feb40100000000ffffffff02c1d6000000000000160014eda9d6c07c911e02dcff21894c7551b9731b875177ae52010000000016001404b1bd8ea9159c5e973d5859cd8234b458d41cc70247304402200a1bc2cca2a8da2b72b3d6bd9b068f48acbd75e115cb8a692cbac2d4bce8ed5b022021e17eac25791a8e2ae4b4e94ea6b491e33f32b5c51edbc522431fdb7683fc1e012103db8e2137d839e7ef65ea76cf84bf89a733cbf7cd05103b80c11cfea263b878a300000000"
}