{
  "txid": "6f6ef4b81707e397dd1a032c3c3537b3bdaaf83f3d9e1360e3e4d8b273103b13",
  "version": 2,
  "locktime": 0,
  "vin": [
    {
      "txid": "d18ed70056c00a6cd5de0ccb10b1ae8f7dd5250f9d0f22c727aba826d03302c8",
      "vout": 5,
      "prevout": {
        "scriptpubkey": "5120063c985fb0ac420eb1ad168f036b413fa4df7ff138528743365cf9e81c6485cd",
        "scriptpubkey_asm": "OP_PUSHNUM_1 OP_PUSHBYTES_32 063c985fb0ac420eb1ad168f036b413fa4df7ff138528743365cf9e81c6485cd",
        "scriptpubkey_type": "v1_p2tr",
        "scriptpubkey_address": "bc1pqc7fshas43pqavddz68sx66p87jd7ll38pfgwsektnu7s8ryshxszk4qw9",
        "value": 3010
      },
      "scriptsig": "",
      "scriptsig_asm": "",
      "witness": [
        "02c1377cc3ff247b0ec46217eb06d421d1dc2849c4322d86bf02ff54594a76623919ec8e9364e2476777e96fe9094643bf0d3ee849f82dc58382a97732223577",
        "208c360a666f32edbd6987539f0c1bbd6bc3f60f97d6bedab72b90ec384a9295aaac0063036f726401011e6170706c69636174696f6e2f6a736f6e3b636861727365743d7574662d38004cbf7b2270223a22706f772d3230222c226f70223a226d696e74222c227469636b223a2250455045222c22616d74223a2231303030222c22736f6c7574696f6e223a22504550453a6263317168337833756334707a796478716436757776376e3732676874787a33753937306564663078613a303030303030303030303030303030303030303139393431613561653132383937363539383134343239323533333030353762306461393666336465613163353a3335353233383531313039227d68",
        "c1e5c6b8d70510d88b341fcdd9a2aa08913e89d9e736480c530fde3fe13419cdab"
      ],
      "is_coinbase": false,
      "sequence": 4294967295
    }
  ],
  "vout": [
    {
      "scriptpubkey": "0014bc4d1e62a1111a60375c733d3f291759851e17cf",
      "scriptpubkey_asm": "OP_0 OP_PUSHBYTES_20 bc4d1e62a1111a60375c733d3f291759851e17cf",
      "scriptpubkey_type": "v0_p2wpkh",
      "scriptpubkey_address": "bc1qh3x3uc4pzydxqd6uwv7n72ghtxz3u970edf0xa",
      "value": 546
    }
  ],
  "size": 455,
  "weight": 701,
  "fee": 2464,
  "status": {
    "confirmed": true,
    "block_height": 834460,
    "block_hash": "00000000000000000000484a79b643b2524bbce82e5d8a442013fa5b8905ed98",
    "block_time": 1710307468
  },
  "hex": "02000000000101c80233d026a8ab27c7220f9d0f25d57d8faeb110cb0cded56c0ac05600d78ed10500000000ffffffff012202000000000000160014bc4d1e62a1111a60375c733d3f291759851e17cf034002c1377cc3ff247b0ec46217eb06d421d1dc2849c4322d86bf02ff54594a76623919ec8e9364e2476777e96fe9094643bf0d3ee849f82dc58382a97732223577fd0c01208c360a666f32edbd6987539f0c1bbd6bc3f60f97d6bedab72b90ec384a9295aaac0063036f726401011e6170706c69636174696f6e2f6a736f6e3b636861727365743d7574662d38004cbf7b2270223a22706f772d3230222c226f70223a226d696e74222c227469636b223a2250455045222c22616d74223a2231303030222c22736f6c7574696f6e223a22504550453a6263317168337833756334707a796478716436757776376e3732676874787a33753937306564663078613a303030303030303030303030303030303030303139393431613561653132383937363539383134343239323533333030353762306461393666336465613163353a3335353233383531313039227d6821c1e5c6b8d70510d88b341fcdd9a2aa08913e89d9e736480c530fde3fe13419cdab00000000"
}