{
  "txid": "6f7d353fb1c3af2694b54e268e9207ea59d1b699f56fc38fb0b4f410c1b6f36b",
  "version": 1,
  "locktime": 0,
  "vin": [
    {
      "txid": "cd899605bfb2b9065b28d68d2f6797f4528ee0d5ccd060c0b0b04e7d086ec778",
      "vout": 1,
      "prevout": {
        "scriptpubkey": "76a914f749ad946d9541c02233f7d299c9d8f50ccd048a88ac",
        "scriptpubkey_asm": "OP_DUP OP_HASH160 OP_PUSHBYTES_20 f749ad946d9541c02233f7d299c9d8f50ccd048a OP_EQUALVERIFY OP_CHECKSIG",
        "scriptpubkey_type": "p2pkh",
        "scriptpubkey_address": "1PYYAd76ZoAG6o7LHDE2FvutTpreV25sso",
        "value": 610164
      },
      "scriptsig": "473044022003a33542fd81c291b0f0088659e1b6354bf5322bad1de10206c3a5359c39a2c20220019db5dbad3a218981e0e7ed9e6222662172fff23df8ae820c5999a34a4038170121027328066f8c4ab6547e6210302b580ae0175f95d05e75416672e00ea094fceb1a",
      "scriptsig_asm": "OP_PUSHBYTES_71 3044022003a33542fd81c291b0f0088659e1b6354bf5322bad1de10206c3a5359c39a2c20220019db5dbad3a218981e0e7ed9e6222662172fff23df8ae820c5999a34a40381701 OP_PUSHBYTES_33 027328066f8c4ab6547e6210302b580ae0175f95d05e75416672e00ea094fceb1a",
      "is_coinbase": false,
      "sequence": 4294967295
    }
  ],
  "vout": [
    {
      "scriptpubkey": "00143c853c639df49f9e39eeac9021e94ce318845837",
      "scriptpubkey_asm": "OP_0 OP_PUSHBYTES_20 3c853c639df49f9e39eeac9021e94ce318845837",
      "scriptpubkey_type": "v0_p2wpkh",
      "scriptpubkey_address": "bc1q8jznccua7j0euw0w4jgzr62vuvvggkphdawtn5",
      "value": 381755
    },
    {
      "scriptpubkey": "76a9146012eb3f170e34c880d4d8f2e191e51940d23ad688ac",
      "scriptpubkey_asm": "OP_DUP OP_HASH160 OP_PUSHBYTES_20 6012eb3f170e34c880d4d8f2e191e51940d23ad6 OP_EQUALVERIFY OP_CHECKSIG",
      "scriptpubkey_type": "p2pkh",
      "scriptpubkey_address": "19kzXviUHUMLqbc3GgTN8jSC8iSoaYnGDw",
      "value": 221273
    }
  ],
  "size": 222,
  "weight": 888,
  "fee": 7136,
  "status": {
    "confirmed": true,
    "block_height": 834638,
    "block_hash": "000000000000000000025f742c626208ac87e0b7d15054abb4a19ca2d735a54e",
    "block_time": 1710405325
  },
  "hex": "010000000178c76e087d4eb0b0c060d0ccd5e08e52f497672f8dd6285b06b9b2bf059689cd010000006a473044022003a33542fd81c291b0f0088659e1b6354bf5322bad1de10206c3a5359c39a2c20220019db5dbad3a218981e0e7ed9e6222662172fff23df8ae820c5999a34a4038170121027328066f8c4ab6547e6210302b580ae0175f95d05e75416672e00ea094fceb1affffffff023bd30500000000001600143c853c639df49f9e39eeac9021e94ce31884583759600300000000001976a9146012eb3f170e34c880d4d8f2e191e51940d23ad688ac00000000"
}