{
  "txid": "6f818bbce13e7a6c7ed786484ef58840ac1b7461922905e7a1ce67f4fdf83c07",
  "version": 2,
  "locktime": 0,
  "vin": [
    {
      "txid": "8ab49ea79a80bdb74e62e3eb0762541e673224eb9a186eb3cf11f74900f1eda1",
      "vout": 1,
      "prevout": {
        "scriptpubkey": "0014cbb5ee720dfcc87ccb8dd51e23c87099d6ce576d",
        "scriptpubkey_asm": "OP_0 OP_PUSHBYTES_20 cbb5ee720dfcc87ccb8dd51e23c87099d6ce576d",
        "scriptpubkey_type": "v0_p2wpkh",
        "scriptpubkey_address": "bc1qew67uusdlny8ejud650z8jrsn8tvu4mdvukn03",
        "value": 148099
      },
      "scriptsig": "",
      "scriptsig_asm": "",
      "witness": [
        "3044022058819cf130a773a61bd905e86f344ab17abe0b84b22652e288b7bf2930c0f932022051ca85796bff1c4ee7fe5c50e1d02dbdcde1bb69d9fa799ee5a4c229a771041201",
        "0296f27754148e9140fc30924a31d8bd872e4cd99adfe11611a5c731d6e7cffd0c"
      ],
      "is_coinbase": false,
      "sequence": 4294967295
    }
  ],
  "vout": [
    {
      "scriptpubkey": "a91438d554f27e262169738bf4abf08fee3b4fe4f31487",
      "scriptpubkey_asm": "OP_HASH160 OP_PUSHBYTES_20 38d554f27e262169738bf4abf08fee3b4fe4f314 OP_EQUAL",
      "scriptpubkey_type": "p2sh",
      "scriptpubkey_address": "36sXKqkUKVEDEkAjwSVpBgtgPq8iTUJCQS",
      "value": 47494
    },
    {
      "scriptpubkey": "0014371061f5f3c80950439ad4d0582c9226006e2241",
      "scriptpubkey_asm": "OP_0 OP_PUSHBYTES_20 371061f5f3c80950439ad4d0582c9226006e2241",
      "scriptpubkey_type": "v0_p2wpkh",
      "scriptpubkey_address": "bc1qxugxra0neqy4qsu66ng9styjycqxugjp5sveq9",
      "value": 98493
    }
  ],
  "size": 223,
  "weight": 565,
  "fee": 2112,
  "status": {
    "confirmed": true,
    "block_height": 834638,
    "block_hash": "000000000000000000025f742c626208ac87e0b7d15054abb4a19ca2d735a54e",
    "block_time": 1710405325
  },
  "hex": "02000000000101a1edf10049f711cfb36e189aeb2432671e546207ebe3624eb7bd809aa79eb48a0100000000ffffffff0286b900000000000017a91438d554f27e262169738bf4abf08fee3b4fe4f31487bd80010000000000160014371061f5f3c80950439ad4d0582c9226006e224102473044022058819cf130a773a61bd905e86f344ab17abe0b84b22652e288b7bf2930c0f932022051ca85796bff1c4ee7fe5c50e1d02dbdcde1bb69d9fa799ee5a4c229a771041201210296f27754148e9140fc30924a31d8bd872e4cd99adfe11611a5c731d6e7cffd0c00000000"
}