{
  "txid": "6f9554affddc3ae995ac0821a500494c00ff3dd07a076483cbede6b39b71f5da",
  "version": 1,
  "locktime": 0,
  "vin": [
    {
      "txid": "bfdf3bcb289fba0e1409b760e2508b90bf9b39d17be197bf740d605894b25e80",
      "vout": 1,
      "prevout": {
        "scriptpubkey": "0014a513391e5470cc1cdd538f7dac6c6a68eecf8d31",
        "scriptpubkey_asm": "OP_0 OP_PUSHBYTES_20 a513391e5470cc1cdd538f7dac6c6a68eecf8d31",
        "scriptpubkey_type": "v0_p2wpkh",
        "scriptpubkey_address": "bc1q55fnj8j5wrxpeh2n3a76cmr2drhvlrf3htuwx2",
        "value": 195785054
      },
      "scriptsig": "",
      "scriptsig_asm": "",
      "witness": [
        "3044022062ccb05ead265f9dba8162ae44104f1dacfdbfe52321a4a83de856d5388ca9c702202a49364666d86ca3036d3656b0e88e2ef3091b1f6b8affd83bd5c9c33a8713b401",
        "03f9bb41a40bc05eb4e0eb9394a729a13b5caa6dc3071374e43ce4d038d450bf8a"
      ],
      "is_coinbase": false,
      "sequence": 4294967293
    }
  ],
  "vout": [
    {
      "scriptpubkey": "0014db8c197239eeb1b8e74c79d6363b4309ed83eb73",
      "scriptpubkey_asm": "OP_0 OP_PUSHBYTES_20 db8c197239eeb1b8e74c79d6363b4309ed83eb73",
      "scriptpubkey_type": "v0_p2wpkh",
      "scriptpubkey_address": "bc1qmwxpju3ea6cm3e6v08trvw6rp8kc86mng0xnek",
      "value": 22507018
    },
    {
      "scriptpubkey": "0014a513391e5470cc1cdd538f7dac6c6a68eecf8d31",
      "scriptpubkey_asm": "OP_0 OP_PUSHBYTES_20 a513391e5470cc1cdd538f7dac6c6a68eecf8d31",
      "scriptpubkey_type": "v0_p2wpkh",
      "scriptpubkey_address": "bc1q55fnj8j5wrxpeh2n3a76cmr2drhvlrf3htuwx2",
      "value": 173274229
    }
  ],
  "size": 222,
  "weight": 561,
  "fee": 3807,
  "status": {
    "confirmed": true,
    "block_height": 834638,
    "block_hash": "000000000000000000025f742c626208ac87e0b7d15054abb4a19ca2d735a54e",
    "block_time": 1710405325
  },
  "hex": "01000000000101805eb29458600d74bf97e17bd1399bbf908b50e260b709140eba9f28cb3bdfbf0100000000fdffffff020a6e570100000000160014db8c197239eeb1b8e74c79d6363b4309ed83eb7375f4530a00000000160014a513391e5470cc1cdd538f7dac6c6a68eecf8d3102473044022062ccb05ead265f9dba8162ae44104f1dacfdbfe52321a4a83de856d5388ca9c702202a49364666d86ca3036d3656b0e88e2ef3091b1f6b8affd83bd5c9c33a8713b4012103f9bb41a40bc05eb4e0eb9394a729a13b5caa6dc3071374e43ce4d038d450bf8a00000000"
}