{
  "txid": "6f9558627aa174d26b5c33d38cd7972fd1fcd7050313bce8503aa9ab62e8ba95",
  "version": 2,
  "locktime": 834637,
  "vin": [
    {
      "txid": "e27d1189d0d90cc8cfb3720f1465695df6d7a5ce9b79502ce0778c1fb98c7e02",
      "vout": 1,
      "prevout": {
        "scriptpubkey": "001448088e7bc7ae3d6c54a7f17bf2dbbb3606b0d930",
        "scriptpubkey_asm": "OP_0 OP_PUSHBYTES_20 48088e7bc7ae3d6c54a7f17bf2dbbb3606b0d930",
        "scriptpubkey_type": "v0_p2wpkh",
        "scriptpubkey_address": "bc1qfqygu7784c7kc49879al9kamxcrtpkfs6uzwrc",
        "value": 154290436
      },
      "scriptsig": "",
      "scriptsig_asm": "",
      "witness": [
        "304402200444d0e2a99d531bc83fd36b6c9f2fcdebef9acb569b4fc8c4067ae5433ed21702202094df2e52b868d625e19009e2b7fa6628ea303759e6196bb3ed419241aefd4801",
        "035ac78b5a6fadd2a2b09555f129f298148809e696e91993472874151abfff6e7c"
      ],
      "is_coinbase": false,
      "sequence": 4294967293
    }
  ],
  "vout": [
    {
      "scriptpubkey": "76a914ae3d75cb73a6bd595da15556aac6217c7dac152b88ac",
      "scriptpubkey_asm": "OP_DUP OP_HASH160 OP_PUSHBYTES_20 ae3d75cb73a6bd595da15556aac6217c7dac152b OP_EQUALVERIFY OP_CHECKSIG",
      "scriptpubkey_type": "p2pkh",
      "scriptpubkey_address": "1GtJChordMBG4w89RhrAETrYWVF5tixZcg",
      "value": 1587817
    },
    {
      "scriptpubkey": "00149aafdf6be7da645bdefe869b2a75a627c082bf54",
      "scriptpubkey_asm": "OP_0 OP_PUSHBYTES_20 9aafdf6be7da645bdefe869b2a75a627c082bf54",
      "scriptpubkey_type": "v0_p2wpkh",
      "scriptpubkey_address": "bc1qn2ha76l8mfj9hhh7s6dj5adxylqg90658ymnsh",
      "value": 152698731
    }
  ],
  "size": 225,
  "weight": 573,
  "fee": 3888,
  "status": {
    "confirmed": true,
    "block_height": 834638,
    "block_hash": "000000000000000000025f742c626208ac87e0b7d15054abb4a19ca2d735a54e",
    "block_time": 1710405325
  },
  "hex": "02000000000101027e8cb91f8c77e02c50799bcea5d7f65d6965140f72b3cfc80cd9d089117de20100000000fdffffff02693a1800000000001976a914ae3d75cb73a6bd595da15556aac6217c7dac152b88ac6bff1909000000001600149aafdf6be7da645bdefe869b2a75a627c082bf540247304402200444d0e2a99d531bc83fd36b6c9f2fcdebef9acb569b4fc8c4067ae5433ed21702202094df2e52b868d625e19009e2b7fa6628ea303759e6196bb3ed419241aefd480121035ac78b5a6fadd2a2b09555f129f298148809e696e91993472874151abfff6e7c4dbc0c00"
}