{
  "txid": "6fb240772c16a89207e7514eb3dabe0167f9f137756346a5d8977aa497ad2039",
  "version": 2,
  "locktime": 832903,
  "vin": [
    {
      "txid": "4e6055d2eb11d7fe39a92fe538e93a4b3766c21c54094dc952597352b68b8a4a",
      "vout": 2902,
      "prevout": {
        "scriptpubkey": "00141beb4419075fb03aa2acab244ecb387b4202243d",
        "scriptpubkey_asm": "OP_0 OP_PUSHBYTES_20 1beb4419075fb03aa2acab244ecb387b4202243d",
        "scriptpubkey_type": "v0_p2wpkh",
        "scriptpubkey_address": "bc1qr045gxg8t7cr4g4v4vjyajec0dpqyfparxs60q",
        "value": 555168
      },
      "scriptsig": "",
      "scriptsig_asm": "",
      "witness": [
        "304402204fcfbe16aeea746d67406068c770f2b7ab6a7d2b26bd1d875009424539d43cbe0220259e86767b740ac77921db456d100fe8ab62b033b0b51dcf507198e7be6789e401",
        "02a31a2b236eb21e7df8fd3e80ec9cdaf78dd588db95e8df6ee6d49284f7bc27fd"
      ],
      "is_coinbase": false,
      "sequence": 4294967293
    },
    {
      "txid": "8d0dd19c6965cf29c8c5554a0ce2660bcb118d68969edcfdbe28bc3ffda56413",
      "vout": 3300,
      "prevout": {
        "scriptpubkey": "00141beb4419075fb03aa2acab244ecb387b4202243d",
        "scriptpubkey_asm": "OP_0 OP_PUSHBYTES_20 1beb4419075fb03aa2acab244ecb387b4202243d",
        "scriptpubkey_type": "v0_p2wpkh",
        "scriptpubkey_address": "bc1qr045gxg8t7cr4g4v4vjyajec0dpqyfparxs60q",
        "value": 511168
      },
      "scriptsig": "",
      "scriptsig_asm": "",
      "witness": [
        "304402204e89d935d40978e54297f7bea2a3e45b2f515c45418ace7615fe8ecbe060f95102206cda7760644384544cd4fe7a29c2321301186f81b424f88fce76a4896dc4a19701",
        "02a31a2b236eb21e7df8fd3e80ec9cdaf78dd588db95e8df6ee6d49284f7bc27fd"
      ],
      "is_coinbase": false,
      "sequence": 4294967293
    },
    {
      "txid": "ccd50f3ad51e8cb08a858badcd992cb10087a8ec3247285a88fe18bcebbb1acc",
      "vout": 1847,
      "prevout": {
        "scriptpubkey": "00141beb4419075fb03aa2acab244ecb387b4202243d",
        "scriptpubkey_asm": "OP_0 OP_PUSHBYTES_20 1beb4419075fb03aa2acab244ecb387b4202243d",
        "scriptpubkey_type": "v0_p2wpkh",
        "scriptpubkey_address": "bc1qr045gxg8t7cr4g4v4vjyajec0dpqyfparxs60q",
        "value": 555764
      },
      "scriptsig": "",
      "scriptsig_asm": "",
      "witness": [
        "304402200c40b84a9acf0cbe50cd4bb44630b9aa147f43bc49549f44227032f8b94f81ac02200440c8f5a47447e22e061443a4c751d964256d6c74218a396c2b1cb470fc155b01",
        "02a31a2b236eb21e7df8fd3e80ec9cdaf78dd588db95e8df6ee6d49284f7bc27fd"
      ],
      "is_coinbase": false,
      "sequence": 4294967293
    },
    {
      "txid": "2da2fd05f27af982866bdf270e722d87a0740e112816097f06066d1da5cf66b0",
      "vout": 2489,
      "prevout": {
        "scriptpubkey": "00141beb4419075fb03aa2acab244ecb387b4202243d",
        "scriptpubkey_asm": "OP_0 OP_PUSHBYTES_20 1beb4419075fb03aa2acab244ecb387b4202243d",
        "scriptpubkey_type": "v0_p2wpkh",
        "scriptpubkey_address": "bc1qr045gxg8t7cr4g4v4vjyajec0dpqyfparxs60q",
        "value": 557785
      },
      "scriptsig": "",
      "scriptsig_asm": "",
      "witness": [
        "304402205b9d2b38d361a46647640070cc21b0fb076b4f2bf76940bc6e5aba9d1daf85240220243345092f4031d98d08c29107a37a7a8fee3bfa21139fa59d7d7469a5f1facf01",
        "02a31a2b236eb21e7df8fd3e80ec9cdaf78dd588db95e8df6ee6d49284f7bc27fd"
      ],
      "is_coinbase": false,
      "sequence": 4294967293
    },
    {
      "txid": "dd4fb08357a4ecd37e49637edd37c5b195ed918e300813d5b92eefe78befae45",
      "vout": 2742,
      "prevout": {
        "scriptpubkey": "00141beb4419075fb03aa2acab244ecb387b4202243d",
        "scriptpubkey_asm": "OP_0 OP_PUSHBYTES_20 1beb4419075fb03aa2acab244ecb387b4202243d",
        "scriptpubkey_type": "v0_p2wpkh",
        "scriptpubkey_address": "bc1qr045gxg8t7cr4g4v4vjyajec0dpqyfparxs60q",
        "value": 565212
      },
      "scriptsig": "",
      "scriptsig_asm": "",
      "witness": [
        "304402204a3f8dc721d9f2273d848a1c34fa05c0442a52f9c419224102ffc2b157448861022047aea7b5f1a10891cd83543562d1fccd4709b27298a3155d4caa28da765af38201",
        "02a31a2b236eb21e7df8fd3e80ec9cdaf78dd588db95e8df6ee6d49284f7bc27fd"
      ],
      "is_coinbase": false,
      "sequence": 4294967293
    },
    {
      "txid": "66d927183f53650d99fdf849fa75686ba1628a4010e24447229a2148542c2e53",
      "vout": 1979,
      "prevout": {
        "scriptpubkey": "00141beb4419075fb03aa2acab244ecb387b4202243d",
        "scriptpubkey_asm": "OP_0 OP_PUSHBYTES_20 1beb4419075fb03aa2acab244ecb387b4202243d",
        "scriptpubkey_type": "v0_p2wpkh",
        "scriptpubkey_address": "bc1qr045gxg8t7cr4g4v4vjyajec0dpqyfparxs60q",
        "value": 581282
      },
      "scriptsig": "",
      "scriptsig_asm": "",
      "witness": [
        "3044022041936fc8f23d8c6a2eb0318bd8c2954a0d4e4af70fbea3b475a82363ef2f3acd022052e2153c388d557e38856de1cd75e2a21a30cc15d42567e7882f0c942c7cdab501",
        "02a31a2b236eb21e7df8fd3e80ec9cdaf78dd588db95e8df6ee6d49284f7bc27fd"
      ],
      "is_coinbase": false,
      "sequence": 4294967293
    },
    {
      "txid": "f74d3e4df9695f92310cb434aa3dacf55817f8d1281608679633320d480731dc",
      "vout": 3513,
      "prevout": {
        "scriptpubkey": "00141beb4419075fb03aa2acab244ecb387b4202243d",
        "scriptpubkey_asm": "OP_0 OP_PUSHBYTES_20 1beb4419075fb03aa2acab244ecb387b4202243d",
        "scriptpubkey_type": "v0_p2wpkh",
        "scriptpubkey_address": "bc1qr045gxg8t7cr4g4v4vjyajec0dpqyfparxs60q",
        "value": 526299
      },
      "scriptsig": "",
      "scriptsig_asm": "",
      "witness": [
        "3044022016e7bbfae9a18030f7cf1bb22ca8def376862432d973225fb19f92e638dba54102202f938f616ae896162cd767441e96543cdac5c76233825a1b495ee6d35d16b77a01",
        "02a31a2b236eb21e7df8fd3e80ec9cdaf78dd588db95e8df6ee6d49284f7bc27fd"
      ],
      "is_coinbase": false,
      "sequence": 4294967293
    },
    {
      "txid": "cf4b54201f6dd88d366ce86310d88f0fdb72da2e2e92d1e49ce5329e00687d46",
      "vout": 2777,
      "prevout": {
        "scriptpubkey": "00141beb4419075fb03aa2acab244ecb387b4202243d",
        "scriptpubkey_asm": "OP_0 OP_PUSHBYTES_20 1beb4419075fb03aa2acab244ecb387b4202243d",
        "scriptpubkey_type": "v0_p2wpkh",
        "scriptpubkey_address": "bc1qr045gxg8t7cr4g4v4vjyajec0dpqyfparxs60q",
        "value": 562833
      },
      "scriptsig": "",
      "scriptsig_asm": "",
      "witness": [
        "304402203bd483f67b4400e529bce4d06e9a3aa0be13311c6224ef230525ebf77e787a9b02202381cc14c3af27609d2bfbd319b677af9e887ab2c9527f6c8bf9674e5b4aaac801",
        "02a31a2b236eb21e7df8fd3e80ec9cdaf78dd588db95e8df6ee6d49284f7bc27fd"
      ],
      "is_coinbase": false,
      "sequence": 4294967293
    },
    {
      "txid": "14ec0398f4bbe6ec4814e8abea21ac7194711ea12342a0484a333404d420a043",
      "vout": 2697,
      "prevout": {
        "scriptpubkey": "00141beb4419075fb03aa2acab244ecb387b4202243d",
        "scriptpubkey_asm": "OP_0 OP_PUSHBYTES_20 1beb4419075fb03aa2acab244ecb387b4202243d",
        "scriptpubkey_type": "v0_p2wpkh",
        "scriptpubkey_address": "bc1qr045gxg8t7cr4g4v4vjyajec0dpqyfparxs60q",
        "value": 528074
      },
      "scriptsig": "",
      "scriptsig_asm": "",
      "witness": [
        "3044022050eb702e04801d5f5934572cf8fd3756e59111b74a1cfaa3ceffa077b62e2131022013a803d72b5657bfd349b5eaa567fd298e39cc77c3bf8344d54f3068259e3a3201",
        "02a31a2b236eb21e7df8fd3e80ec9cdaf78dd588db95e8df6ee6d49284f7bc27fd"
      ],
      "is_coinbase": false,
      "sequence": 4294967293
    },
    {
      "txid": "cfe0f6299de6562cfe4df27ad4b05cd81c0bd54ced6c3641b31a3f32e274fe14",
      "vout": 2605,
      "prevout": {
        "scriptpubkey": "00141beb4419075fb03aa2acab244ecb387b4202243d",
        "scriptpubkey_asm": "OP_0 OP_PUSHBYTES_20 1beb4419075fb03aa2acab244ecb387b4202243d",
        "scriptpubkey_type": "v0_p2wpkh",
        "scriptpubkey_address": "bc1qr045gxg8t7cr4g4v4vjyajec0dpqyfparxs60q",
        "value": 573271
      },
      "scriptsig": "",
      "scriptsig_asm": "",
      "witness": [
        "3044022001178332c81e600dd1a7eabe2ceeb74406dd87c202328d099a2ce6e5e0fbaa6102205f62a9a22d3b622cfe439b1464f1ac5696e1de66c7530cb666b375a803244fdd01",
        "02a31a2b236eb21e7df8fd3e80ec9cdaf78dd588db95e8df6ee6d49284f7bc27fd"
      ],
      "is_coinbase": false,
      "sequence": 4294967293
    },
    {
      "txid": "cd574274c51fb360a712e3c77760d47f2e44724d6818e82aefe38daf3ddb1456",
      "vout": 2279,
      "prevout": {
        "scriptpubkey": "00141beb4419075fb03aa2acab244ecb387b4202243d",
        "scriptpubkey_asm": "OP_0 OP_PUSHBYTES_20 1beb4419075fb03aa2acab244ecb387b4202243d",
        "scriptpubkey_type": "v0_p2wpkh",
        "scriptpubkey_address": "bc1qr045gxg8t7cr4g4v4vjyajec0dpqyfparxs60q",
        "value": 588819
      },
      "scriptsig": "",
      "scriptsig_asm": "",
      "witness": [
        "304402203d8ec1f485570607968978b33b120aaf277fa866ce9c9c76c01b1eaf782a41ca02203a6d49f4a1d6526706292cbe1685b826791e664b8cadca064cce0ebfb4b51f6b01",
        "02a31a2b236eb21e7df8fd3e80ec9cdaf78dd588db95e8df6ee6d49284f7bc27fd"
      ],
      "is_coinbase": false,
      "sequence": 4294967293
    },
    {
      "txid": "6af178a9918940c7643a7f8c5468bbec207e8fce38674a6da34729ea96c5cb1a",
      "vout": 2375,
      "prevout": {
        "scriptpubkey": "00141beb4419075fb03aa2acab244ecb387b4202243d",
        "scriptpubkey_asm": "OP_0 OP_PUSHBYTES_20 1beb4419075fb03aa2acab244ecb387b4202243d",
        "scriptpubkey_type": "v0_p2wpkh",
        "scriptpubkey_address": "bc1qr045gxg8t7cr4g4v4vjyajec0dpqyfparxs60q",
        "value": 601396
      },
      "scriptsig": "",
      "scriptsig_asm": "",
      "witness": [
        "30440220299699bb0b7a4e34844e84642bbe7a0926bef33a4e42172dc2aaf43a92ccd18902200c98c2c5a4fc71b19f5f3a25a9944c9c2615fa60db99d7cdc330eee51fe9f34701",
        "02a31a2b236eb21e7df8fd3e80ec9cdaf78dd588db95e8df6ee6d49284f7bc27fd"
      ],
      "is_coinbase": false,
      "sequence": 4294967293
    },
    {
      "txid": "19e0e06b57411f1e4794f687cdd6bc1cb62c68506a7fb578383e754b7e98098d",
      "vout": 2073,
      "prevout": {
        "scriptpubkey": "00141beb4419075fb03aa2acab244ecb387b4202243d",
        "scriptpubkey_asm": "OP_0 OP_PUSHBYTES_20 1beb4419075fb03aa2acab244ecb387b4202243d",
        "scriptpubkey_type": "v0_p2wpkh",
        "scriptpubkey_address": "bc1qr045gxg8t7cr4g4v4vjyajec0dpqyfparxs60q",
        "value": 591089
      },
      "scriptsig": "",
      "scriptsig_asm": "",
      "witness": [
        "30440220490feb914e95e15dcd66ab1314c2fd3d210ac44eea6c0edbe35f2daf0dfb4689022034a3d1f13690fb3d46fa732aa969f929085829357790746aa7d7fb35202fc1d401",
        "02a31a2b236eb21e7df8fd3e80ec9cdaf78dd588db95e8df6ee6d49284f7bc27fd"
      ],
      "is_coinbase": false,
      "sequence": 4294967293
    },
    {
      "txid": "908128f4bd6b71e40f7b8f3df2cc6f8fa342bc6448b9a69c3a92934db43fd331",
      "vout": 2129,
      "prevout": {
        "scriptpubkey": "00141beb4419075fb03aa2acab244ecb387b4202243d",
        "scriptpubkey_asm": "OP_0 OP_PUSHBYTES_20 1beb4419075fb03aa2acab244ecb387b4202243d",
        "scriptpubkey_type": "v0_p2wpkh",
        "scriptpubkey_address": "bc1qr045gxg8t7cr4g4v4vjyajec0dpqyfparxs60q",
        "value": 588009
      },
      "scriptsig": "",
      "scriptsig_asm": "",
      "witness": [
        "3044022033607eadc16092a0315ee1a7f66dc65fc3dc7ca4b1471c2b44c84dba01b75ed502202ee8750dc357071a19bbbda1e92c757ef11ff15da84dde9ae0c035840e84d76301",
        "02a31a2b236eb21e7df8fd3e80ec9cdaf78dd588db95e8df6ee6d49284f7bc27fd"
      ],
      "is_coinbase": false,
      "sequence": 4294967293
    },
    {
      "txid": "15d928ccfd74dbeadbdd5a03b68b6feabf0f88a3ac8a910d97df81534ad740ea",
      "vout": 2279,
      "prevout": {
        "scriptpubkey": "00141beb4419075fb03aa2acab244ecb387b4202243d",
        "scriptpubkey_asm": "OP_0 OP_PUSHBYTES_20 1beb4419075fb03aa2acab244ecb387b4202243d",
        "scriptpubkey_type": "v0_p2wpkh",
        "scriptpubkey_address": "bc1qr045gxg8t7cr4g4v4vjyajec0dpqyfparxs60q",
        "value": 573795
      },
      "scriptsig": "",
      "scriptsig_asm": "",
      "witness": [
        "304402202a447c1c3a7d7b6b0568016df8e9026854456ec539e27c9def70f200ddf4b97902202a3c0689de283135ff77d535608326af9be80b4424716a07c69fbd0f20f5c29801",
        "02a31a2b236eb21e7df8fd3e80ec9cdaf78dd588db95e8df6ee6d49284f7bc27fd"
      ],
      "is_coinbase": false,
      "sequence": 4294967293
    },
    {
      "txid": "d0b9322aaf90c7fb3ebd314f8c15137c55dac23a8e3bff49a517f6add97fe658",
      "vout": 2177,
      "prevout": {
        "scriptpubkey": "00141beb4419075fb03aa2acab244ecb387b4202243d",
        "scriptpubkey_asm": "OP_0 OP_PUSHBYTES_20 1beb4419075fb03aa2acab244ecb387b4202243d",
        "scriptpubkey_type": "v0_p2wpkh",
        "scriptpubkey_address": "bc1qr045gxg8t7cr4g4v4vjyajec0dpqyfparxs60q",
        "value": 598510
      },
      "scriptsig": "",
      "scriptsig_asm": "",
      "witness": [
        "3044022013227a2661423141ecaaa2fd8ad091afdfe2b14514a7831771c2003c365ca92d02205f225e647784cd670d0ece643bbc6280420ce3ee6b9b411ddc1a15bf0c554d3f01",
        "02a31a2b236eb21e7df8fd3e80ec9cdaf78dd588db95e8df6ee6d49284f7bc27fd"
      ],
      "is_coinbase": false,
      "sequence": 4294967293
    },
    {
      "txid": "129df02cd414410948bb37cda36d46da04af980f232cbd48c1c24eb6c759b13e",
      "vout": 2129,
      "prevout": {
        "scriptpubkey": "00141beb4419075fb03aa2acab244ecb387b4202243d",
        "scriptpubkey_asm": "OP_0 OP_PUSHBYTES_20 1beb4419075fb03aa2acab244ecb387b4202243d",
        "scriptpubkey_type": "v0_p2wpkh",
        "scriptpubkey_address": "bc1qr045gxg8t7cr4g4v4vjyajec0dpqyfparxs60q",
        "value": 584315
      },
      "scriptsig": "",
      "scriptsig_asm": "",
      "witness": [
        "304402200cba61c8fff3fb861c89f67c9793ebd8bb2555bf2403648e1c8d698014b37f8d0220269979de2964b1c1ed87db5f6ea36f928dedfe3f5830eabd12b88b7a03e5138901",
        "02a31a2b236eb21e7df8fd3e80ec9cdaf78dd588db95e8df6ee6d49284f7bc27fd"
      ],
      "is_coinbase": false,
      "sequence": 4294967293
    },
    {
      "txid": "7b04ecb81d5a52a96c8ea390fc3371886308bbbcf0fbcd73f7f59746f3a2015e",
      "vout": 2397,
      "prevout": {
        "scriptpubkey": "00141beb4419075fb03aa2acab244ecb387b4202243d",
        "scriptpubkey_asm": "OP_0 OP_PUSHBYTES_20 1beb4419075fb03aa2acab244ecb387b4202243d",
        "scriptpubkey_type": "v0_p2wpkh",
        "scriptpubkey_address": "bc1qr045gxg8t7cr4g4v4vjyajec0dpqyfparxs60q",
        "value": 561684
      },
      "scriptsig": "",
      "scriptsig_asm": "",
      "witness": [
        "304402201b6afc0687eaac52dc77f508a53651b965ad0bff60964ccda522c238b876301602201b031609aaa02889ab8784ab21bc155c6a2da4b442b6a656e9a29c5e5b21536101",
        "02a31a2b236eb21e7df8fd3e80ec9cdaf78dd588db95e8df6ee6d49284f7bc27fd"
      ],
      "is_coinbase": false,
      "sequence": 4294967293
    },
    {
      "txid": "8099c273d430667697a6b9dce8a098ecd293b125ce816a3a87294c15c9c4fd87",
      "vout": 2218,
      "prevout": {
        "scriptpubkey": "00141beb4419075fb03aa2acab244ecb387b4202243d",
        "scriptpubkey_asm": "OP_0 OP_PUSHBYTES_20 1beb4419075fb03aa2acab244ecb387b4202243d",
        "scriptpubkey_type": "v0_p2wpkh",
        "scriptpubkey_address": "bc1qr045gxg8t7cr4g4v4vjyajec0dpqyfparxs60q",
        "value": 530350
      },
      "scriptsig": "",
      "scriptsig_asm": "",
      "witness": [
        "304402202a236f5127c3fa6e1e30eb4134dd0b014490a83d7102370d7b4dbb0b4c095d9f02202813ccf6098a8981350150b4d23e6bcb4aac35b74cc594b0c3af84e51d6e406c01",
        "02a31a2b236eb21e7df8fd3e80ec9cdaf78dd588db95e8df6ee6d49284f7bc27fd"
      ],
      "is_coinbase": false,
      "sequence": 4294967293
    }
  ],
  "vout": [
    {
      "scriptpubkey": "0014d04eaea494f2ffe1f3e78262b0364b5a9d8ec65e",
      "scriptpubkey_asm": "OP_0 OP_PUSHBYTES_20 d04eaea494f2ffe1f3e78262b0364b5a9d8ec65e",
      "scriptpubkey_type": "v0_p2wpkh",
      "scriptpubkey_address": "bc1q6p82afy57tl7rul8sf3tqdjtt2wca3j7qhmt08",
      "value": 10720463
    }
  ],
  "size": 2855,
  "weight": 5315,
  "fee": 14360,
  "status": {
    "confirmed": true,
    "block_height": 834464,
    "block_hash": "0000000000000000000177a0869a911a2b65c9bdcd5a8bcb02b68f305bee848e",
    "block_time": 1710308296
  },
  "hex": "020000000001134a8a8bb652735952c94d09541cc266374b3ae938e52fa939fed711ebd255604e560b000000fdffffff1364a5fd3fbc28befddc9e96688d11cb0b66e20c4a55c5c829cf65699cd10d8de40c000000fdffffffcc1abbebbc18fe885a284732eca88700b12c99cdad8b858ab08c1ed53a0fd5cc3707000000fdffffffb066cfa51d6d06067f091628110e74a0872d720e27df6b8682f97af205fda22db909000000fdffffff45aeef8be7ef2eb9d51308308e91ed95b1c537dd7e63497ed3eca45783b04fddb60a000000fdffffff532e2c5448219a224744e210408a62a16b6875fa49f8fd990d65533f1827d966bb07000000fdffffffdc3107480d32339667081628d1f81758f5ac3daa34b40c31925f69f94d3e4df7b90d000000fdffffff467d68009e32e59ce4d1922e2eda72db0f8fd81063e86c368dd86d1f20544bcfd90a000000fdffffff43a020d40434334a48a04223a11e719471ac21eaabe81448ece6bbf49803ec14890a000000fdffffff14fe74e2323f1ab341366ced4cd50b1cd85cb0d47af24dfe2c56e69d29f6e0cf2d0a000000fdffffff5614db3daf8de3ef2ae818684d72442e7fd46077c7e312a760b31fc5744257cde708000000fdffffff1acbc596ea2947a36d4a6738ce8f7e20ecbb68548c7f3a64c7408991a978f16a4709000000fdffffff8d09987e4b753e3878b57f6a50682cb61cbcd6cd87f694471e1f41576be0e0191908000000fdffffff31d33fb44d93923a9ca6b94864bc42a38f6fccf23d8f7b0fe4716bbdf42881905108000000fdffffffea40d74a5381df970d918aaca3880fbfea6f8bb6035adddbeadb74fdcc28d915e708000000fdffffff58e67fd9adf617a549ff3b8e3ac2da557c13158c4f31bd3efbc790af2a32b9d08108000000fdffffff3eb159c7b64ec2c148bd2c230f98af04da466da3cd37bb48094114d42cf09d125108000000fdffffff5e01a2f34697f5f773cdfbf0bcbb0863887133fc90a38e6ca9525a1db8ec047b5d09000000fdffffff87fdc4c9154c29873a6a81ce25b193d2ec98a0e8dcb9a697766630d473c29980aa08000000fdffffff01cf94a30000000000160014d04eaea494f2ffe1f3e78262b0364b5a9d8ec65e0247304402204fcfbe16aeea746d67406068c770f2b7ab6a7d2b26bd1d875009424539d43cbe0220259e86767b740ac77921db456d100fe8ab62b033b0b51dcf507198e7be6789e4012102a31a2b236eb21e7df8fd3e80ec9cdaf78dd588db95e8df6ee6d49284f7bc27fd0247304402204e89d935d40978e54297f7bea2a3e45b2f515c45418ace7615fe8ecbe060f95102206cda7760644384544cd4fe7a29c2321301186f81b424f88fce76a4896dc4a197012102a31a2b236eb21e7df8fd3e80ec9cdaf78dd588db95e8df6ee6d49284f7bc27fd0247304402200c40b84a9acf0cbe50cd4bb44630b9aa147f43bc49549f44227032f8b94f81ac02200440c8f5a47447e22e061443a4c751d964256d6c74218a396c2b1cb470fc155b012102a31a2b236eb21e7df8fd3e80ec9cdaf78dd588db95e8df6ee6d49284f7bc27fd0247304402205b9d2b38d361a46647640070cc21b0fb076b4f2bf76940bc6e5aba9d1daf85240220243345092f4031d98d08c29107a37a7a8fee3bfa21139fa59d7d7469a5f1facf012102a31a2b236eb21e7df8fd3e80ec9cdaf78dd588db95e8df6ee6d49284f7bc27fd0247304402204a3f8dc721d9f2273d848a1c34fa05c0442a52f9c419224102ffc2b157448861022047aea7b5f1a10891cd83543562d1fccd4709b27298a3155d4caa28da765af382012102a31a2b236eb21e7df8fd3e80ec9cdaf78dd588db95e8df6ee6d49284f7bc27fd02473044022041936fc8f23d8c6a2eb0318bd8c2954a0d4e4af70fbea3b475a82363ef2f3acd022052e2153c388d557e38856de1cd75e2a21a30cc15d42567e7882f0c942c7cdab5012102a31a2b236eb21e7df8fd3e80ec9cdaf78dd588db95e8df6ee6d49284f7bc27fd02473044022016e7bbfae9a18030f7cf1bb22ca8def376862432d973225fb19f92e638dba54102202f938f616ae896162cd767441e96543cdac5c76233825a1b495ee6d35d16b77a012102a31a2b236eb21e7df8fd3e80ec9cdaf78dd588db95e8df6ee6d49284f7bc27fd0247304402203bd483f67b4400e529bce4d06e9a3aa0be13311c6224ef230525ebf77e787a9b02202381cc14c3af27609d2bfbd319b677af9e887ab2c9527f6c8bf9674e5b4aaac8012102a31a2b236eb21e7df8fd3e80ec9cdaf78dd588db95e8df6ee6d49284f7bc27fd02473044022050eb702e04801d5f5934572cf8fd3756e59111b74a1cfaa3ceffa077b62e2131022013a803d72b5657bfd349b5eaa567fd298e39cc77c3bf8344d54f3068259e3a32012102a31a2b236eb21e7df8fd3e80ec9cdaf78dd588db95e8df6ee6d49284f7bc27fd02473044022001178332c81e600dd1a7eabe2ceeb74406dd87c202328d099a2ce6e5e0fbaa6102205f62a9a22d3b622cfe439b1464f1ac5696e1de66c7530cb666b375a803244fdd012102a31a2b236eb21e7df8fd3e80ec9cdaf78dd588db95e8df6ee6d49284f7bc27fd0247304402203d8ec1f485570607968978b33b120aaf277fa866ce9c9c76c01b1eaf782a41ca02203a6d49f4a1d6526706292cbe1685b826791e664b8cadca064cce0ebfb4b51f6b012102a31a2b236eb21e7df8fd3e80ec9cdaf78dd588db95e8df6ee6d49284f7bc27fd024730440220299699bb0b7a4e34844e84642bbe7a0926bef33a4e42172dc2aaf43a92ccd18902200c98c2c5a4fc71b19f5f3a25a9944c9c2615fa60db99d7cdc330eee51fe9f347012102a31a2b236eb21e7df8fd3e80ec9cdaf78dd588db95e8df6ee6d49284f7bc27fd024730440220490feb914e95e15dcd66ab1314c2fd3d210ac44eea6c0edbe35f2daf0dfb4689022034a3d1f13690fb3d46fa732aa969f929085829357790746aa7d7fb35202fc1d4012102a31a2b236eb21e7df8fd3e80ec9cdaf78dd588db95e8df6ee6d49284f7bc27fd02473044022033607eadc16092a0315ee1a7f66dc65fc3dc7ca4b1471c2b44c84dba01b75ed502202ee8750dc357071a19bbbda1e92c757ef11ff15da84dde9ae0c035840e84d763012102a31a2b236eb21e7df8fd3e80ec9cdaf78dd588db95e8df6ee6d49284f7bc27fd0247304402202a447c1c3a7d7b6b0568016df8e9026854456ec539e27c9def70f200ddf4b97902202a3c0689de283135ff77d535608326af9be80b4424716a07c69fbd0f20f5c298012102a31a2b236eb21e7df8fd3e80ec9cdaf78dd588db95e8df6ee6d49284f7bc27fd02473044022013227a2661423141ecaaa2fd8ad091afdfe2b14514a7831771c2003c365ca92d02205f225e647784cd670d0ece643bbc6280420ce3ee6b9b411ddc1a15bf0c554d3f012102a31a2b236eb21e7df8fd3e80ec9cdaf78dd588db95e8df6ee6d49284f7bc27fd0247304402200cba61c8fff3fb861c89f67c9793ebd8bb2555bf2403648e1c8d698014b37f8d0220269979de2964b1c1ed87db5f6ea36f928dedfe3f5830eabd12b88b7a03e51389012102a31a2b236eb21e7df8fd3e80ec9cdaf78dd588db95e8df6ee6d49284f7bc27fd0247304402201b6afc0687eaac52dc77f508a53651b965ad0bff60964ccda522c238b876301602201b031609aaa02889ab8784ab21bc155c6a2da4b442b6a656e9a29c5e5b215361012102a31a2b236eb21e7df8fd3e80ec9cdaf78dd588db95e8df6ee6d49284f7bc27fd0247304402202a236f5127c3fa6e1e30eb4134dd0b014490a83d7102370d7b4dbb0b4c095d9f02202813ccf6098a8981350150b4d23e6bcb4aac35b74cc594b0c3af84e51d6e406c012102a31a2b236eb21e7df8fd3e80ec9cdaf78dd588db95e8df6ee6d49284f7bc27fd87b50c00"
}