{
  "txid": "6fcbc078248328122ca478b3aadef8f3bbdc16396142db6565ae0bad707b2cf1",
  "version": 2,
  "locktime": 0,
  "vin": [
    {
      "txid": "b13bb5512a4904c28a6b7957b88edf574e8cb23551fc1dcfe22d6b239df42cf4",
      "vout": 28,
      "prevout": {
        "scriptpubkey": "5120c7405ae6eb408ff1affe7a254241e997908e56825e81bfa0296b38e3da060601",
        "scriptpubkey_asm": "OP_PUSHNUM_1 OP_PUSHBYTES_32 c7405ae6eb408ff1affe7a254241e997908e56825e81bfa0296b38e3da060601",
        "scriptpubkey_type": "v1_p2tr",
        "scriptpubkey_address": "bc1pcaq94ehtgz8lrtl70gj5ys0fj7ggu45zt6qmlgpfdvuw8ksxqcqsantptp",
        "value": 2575
      },
      "scriptsig": "",
      "scriptsig_asm": "",
      "witness": [
        "6f51fa264f8918ddd830c644103327da3207001223adbe4272dde80d7db7e87fbca949407b80a0492068b2d3a36c30d51206a765d9cf5ea510348acd0754ae86",
        "20ffb4d9c61f09c1fd6ec522e15e5838833fb0fcea7f00c4bdcb89b48210601c10ac0063036f726401010a746578742f706c61696e00367b2270223a226272632d3230222c226f70223a226d696e74222c227469636b223a2261616161222c22616d74223a223130303030227d68",
        "c1ffb4d9c61f09c1fd6ec522e15e5838833fb0fcea7f00c4bdcb89b48210601c10"
      ],
      "is_coinbase": false,
      "sequence": 4261412863
    }
  ],
  "vout": [
    {
      "scriptpubkey": "0014ce0b5aa0dac72397a8aa5a85d90a2cfb46f0f630",
      "scriptpubkey_asm": "OP_0 OP_PUSHBYTES_20 ce0b5aa0dac72397a8aa5a85d90a2cfb46f0f630",
      "scriptpubkey_type": "v0_p2wpkh",
      "scriptpubkey_address": "bc1qec944gx6cu3e0292t2zajz3vldr0pa3sh356d9",
      "value": 546
    }
  ],
  "size": 295,
  "weight": 541,
  "fee": 2029,
  "status": {
    "confirmed": true,
    "block_height": 834464,
    "block_hash": "0000000000000000000177a0869a911a2b65c9bdcd5a8bcb02b68f305bee848e",
    "block_time": 1710308296
  },
  "hex": "02000000000101f42cf49d236b2de2cf1dfc5135b28c4e57df8eb857796b8ac204492a51b53bb11c00000000fffffffd012202000000000000160014ce0b5aa0dac72397a8aa5a85d90a2cfb46f0f63003406f51fa264f8918ddd830c644103327da3207001223adbe4272dde80d7db7e87fbca949407b80a0492068b2d3a36c30d51206a765d9cf5ea510348acd0754ae866e20ffb4d9c61f09c1fd6ec522e15e5838833fb0fcea7f00c4bdcb89b48210601c10ac0063036f726401010a746578742f706c61696e00367b2270223a226272632d3230222c226f70223a226d696e74222c227469636b223a2261616161222c22616d74223a223130303030227d6821c1ffb4d9c61f09c1fd6ec522e15e5838833fb0fcea7f00c4bdcb89b48210601c1000000000"
}