{
  "txid": "6fd1af0ad43bbcf728184c6bcb6a48f1eedc2bae0066a9bc42fa9cddb1de028d",
  "version": 2,
  "locktime": 0,
  "vin": [
    {
      "txid": "426f08fbaaacdc4b13cb6f428c89487358ea4dac9ed7948a96cfaa3f67ad9d67",
      "vout": 37,
      "prevout": {
        "scriptpubkey": "512003ec4c1cab353a0bc213ddd12cd52efcf5e75ec7d8eecdcf9b7ce52149960007",
        "scriptpubkey_asm": "OP_PUSHNUM_1 OP_PUSHBYTES_32 03ec4c1cab353a0bc213ddd12cd52efcf5e75ec7d8eecdcf9b7ce52149960007",
        "scriptpubkey_type": "v1_p2tr",
        "scriptpubkey_address": "bc1pq0kyc89tx5aqhssnmhgje4fwln67whk8mrhvmnum0njjzjvkqqrsy0a0m8",
        "value": 4578
      },
      "scriptsig": "",
      "scriptsig_asm": "",
      "witness": [
        "8a3e9230fae55103b27554d9a3b37e848eebd936eac79cf9521619fa69968bf703a727a4ef5e305198084102fcb147f60cfd99615a20c5d9175e04679bad7ec3",
        "20b8cfcd4a752b4033a7c7388fd4249cae25f38dc9255e3b8ea8e1d5ad726f46ffac0063036f726401011e6170706c69636174696f6e2f6a736f6e3b636861727365743d7574662d38004cd27b2270223a22706f772d3230222c226f70223a226d696e74222c227469636b223a2250455045222c22616d74223a2231303030222c22736f6c7574696f6e223a22504550453a62633170636a65387233733875656e746d64767a6e34777337786d3836367879707535756139357371796877756835616d61677565367a73707a733637713a303030303030303030303030303030303030303139393431613561653132383937363539383134343239323533333030353762306461393666336465613163353a38323339313733363335227d68",
        "c0039ed2fd528e891a28907036b81ec900320c2b9f26f0b27e7e5cfd0fc9102a4d"
      ],
      "is_coinbase": false,
      "sequence": 4294967295
    }
  ],
  "vout": [
    {
      "scriptpubkey": "5120c4b271c607e666bdb5829d5d0f1b67d68c40f29ce9690012eee5e9ddf51cce85",
      "scriptpubkey_asm": "OP_PUSHNUM_1 OP_PUSHBYTES_32 c4b271c607e666bdb5829d5d0f1b67d68c40f29ce9690012eee5e9ddf51cce85",
      "scriptpubkey_type": "v1_p2tr",
      "scriptpubkey_address": "bc1pcje8r3s8uentmdvzn4ws7xm866xypu5ua95sqyhwuh5amague6zspzs67q",
      "value": 546
    }
  ],
  "size": 486,
  "weight": 768,
  "fee": 4032,
  "status": {
    "confirmed": true,
    "block_height": 834460,
    "block_hash": "00000000000000000000484a79b643b2524bbce82e5d8a442013fa5b8905ed98",
    "block_time": 1710307468
  },
  "hex": "02000000000101679dad673faacf968a94d79eac4dea587348898c426fcb134bdcacaafb086f422500000000ffffffff012202000000000000225120c4b271c607e666bdb5829d5d0f1b67d68c40f29ce9690012eee5e9ddf51cce8503408a3e9230fae55103b27554d9a3b37e848eebd936eac79cf9521619fa69968bf703a727a4ef5e305198084102fcb147f60cfd99615a20c5d9175e04679bad7ec3fd1f0120b8cfcd4a752b4033a7c7388fd4249cae25f38dc9255e3b8ea8e1d5ad726f46ffac0063036f726401011e6170706c69636174696f6e2f6a736f6e3b636861727365743d7574662d38004cd27b2270223a22706f772d3230222c226f70223a226d696e74222c227469636b223a2250455045222c22616d74223a2231303030222c22736f6c7574696f6e223a22504550453a62633170636a65387233733875656e746d64767a6e34777337786d3836367879707535756139357371796877756835616d61677565367a73707a733637713a303030303030303030303030303030303030303139393431613561653132383937363539383134343239323533333030353762306461393666336465613163353a38323339313733363335227d6821c0039ed2fd528e891a28907036b81ec900320c2b9f26f0b27e7e5cfd0fc9102a4d00000000"
}