{
  "txid": "6fd2ce6b7c4040b52535a22d19ef2cc0ae21ddadce8c80b50fb1fac3ef58115b",
  "version": 2,
  "locktime": 0,
  "vin": [
    {
      "txid": "1f8abcfeb56ae49d6d893de20e722e6aab7fc5dd9208e8a52792af13685dc02a",
      "vout": 1,
      "prevout": {
        "scriptpubkey": "5120b745858975d80a8e1f2499610b82b8e9308ef8aef661771b3e9e06459a3a0a0b",
        "scriptpubkey_asm": "OP_PUSHNUM_1 OP_PUSHBYTES_32 b745858975d80a8e1f2499610b82b8e9308ef8aef661771b3e9e06459a3a0a0b",
        "scriptpubkey_type": "v1_p2tr",
        "scriptpubkey_address": "bc1pkazctzt4mq9gu8eyn9sshq4caycga79w7eshwxe7ncrytx36pg9ss6rsud",
        "value": 1142834
      },
      "scriptsig": "",
      "scriptsig_asm": "",
      "witness": [
        "34440416bed98b8038b0a1c1b58b02321e208444e2386c061589fba66aa4b5a56a03002ab6209655d2b57e7135cdfd4af22840da51dc402147bd8776a59798d1"
      ],
      "is_coinbase": false,
      "sequence": 4294967293
    }
  ],
  "vout": [
    {
      "scriptpubkey": "512005a12184b600a88c27b19d3180f23d7735367dfdd4ca7909bf2b8c28017258e1",
      "scriptpubkey_asm": "OP_PUSHNUM_1 OP_PUSHBYTES_32 05a12184b600a88c27b19d3180f23d7735367dfdd4ca7909bf2b8c28017258e1",
      "scriptpubkey_type": "v1_p2tr",
      "scriptpubkey_address": "bc1pqksjrp9kqz5gcfa3n5ccpu3awu6nvl0a6n98jzdl9wxzsqtjtrss9n9xkq",
      "value": 5000
    },
    {
      "scriptpubkey": "5120b745858975d80a8e1f2499610b82b8e9308ef8aef661771b3e9e06459a3a0a0b",
      "scriptpubkey_asm": "OP_PUSHNUM_1 OP_PUSHBYTES_32 b745858975d80a8e1f2499610b82b8e9308ef8aef661771b3e9e06459a3a0a0b",
      "scriptpubkey_type": "v1_p2tr",
      "scriptpubkey_address": "bc1pkazctzt4mq9gu8eyn9sshq4caycga79w7eshwxe7ncrytx36pg9ss6rsud",
      "value": 1135216
    }
  ],
  "size": 205,
  "weight": 616,
  "fee": 2618,
  "status": {
    "confirmed": true,
    "block_height": 834638,
    "block_hash": "000000000000000000025f742c626208ac87e0b7d15054abb4a19ca2d735a54e",
    "block_time": 1710405325
  },
  "hex": "020000000001012ac05d6813af9227a5e80892ddc57fab6a2e720ee23d896d9de46ab5febc8a1f0100000000fdffffff02881300000000000022512005a12184b600a88c27b19d3180f23d7735367dfdd4ca7909bf2b8c28017258e17052110000000000225120b745858975d80a8e1f2499610b82b8e9308ef8aef661771b3e9e06459a3a0a0b014034440416bed98b8038b0a1c1b58b02321e208444e2386c061589fba66aa4b5a56a03002ab6209655d2b57e7135cdfd4af22840da51dc402147bd8776a59798d100000000"
}