{
  "txid": "6fdd1ebe2fde94875747641fd73e5d120675f45f8656a4768d76d8071108b799",
  "version": 2,
  "locktime": 0,
  "vin": [
    {
      "txid": "7e11488a5f80208eb1a2a75fa082a028a2318d857354a6378f1fac62d6901754",
      "vout": 1,
      "prevout": {
        "scriptpubkey": "5120a1b67b0df1be190cc9dfe5fcc3a0c790ff042fb81cc849f2a80b311b0673b001",
        "scriptpubkey_asm": "OP_PUSHNUM_1 OP_PUSHBYTES_32 a1b67b0df1be190cc9dfe5fcc3a0c790ff042fb81cc849f2a80b311b0673b001",
        "scriptpubkey_type": "v1_p2tr",
        "scriptpubkey_address": "bc1p5xm8kr03hcvsejwluh7v8gx8jrlsgtacrnyynu4gpvc3kpnnkqqsml4cdf",
        "value": 118059
      },
      "scriptsig": "",
      "scriptsig_asm": "",
      "witness": [
        "c890e15a466192e445e5c4b935c4c7a44741d81e5b99b51fd33b5facd9d5e233151c976fb336ab9b2deb44d232d599ae582612865be51cfac125796d4077ed48"
      ],
      "is_coinbase": false,
      "sequence": 4294967295
    }
  ],
  "vout": [
    {
      "scriptpubkey": "51206d96cc79e9332d0363331ac1ae5fb5340cac8fd53cd7e833b3a236ac524c40f9",
      "scriptpubkey_asm": "OP_PUSHNUM_1 OP_PUSHBYTES_32 6d96cc79e9332d0363331ac1ae5fb5340cac8fd53cd7e833b3a236ac524c40f9",
      "scriptpubkey_type": "v1_p2tr",
      "scriptpubkey_address": "bc1pdktvc70fxvksxcenrtq6uha4xsx2er748nt7svan5gm2c5jvgrus78kcaq",
      "value": 4000
    },
    {
      "scriptpubkey": "5120a1b67b0df1be190cc9dfe5fcc3a0c790ff042fb81cc849f2a80b311b0673b001",
      "scriptpubkey_asm": "OP_PUSHNUM_1 OP_PUSHBYTES_32 a1b67b0df1be190cc9dfe5fcc3a0c790ff042fb81cc849f2a80b311b0673b001",
      "scriptpubkey_type": "v1_p2tr",
      "scriptpubkey_address": "bc1p5xm8kr03hcvsejwluh7v8gx8jrlsgtacrnyynu4gpvc3kpnnkqqsml4cdf",
      "value": 111903
    }
  ],
  "size": 205,
  "weight": 616,
  "fee": 2156,
  "status": {
    "confirmed": true,
    "block_height": 834464,
    "block_hash": "0000000000000000000177a0869a911a2b65c9bdcd5a8bcb02b68f305bee848e",
    "block_time": 1710308296
  },
  "hex": "02000000000101541790d662ac1f8f37a65473858d31a228a082a05fa7a2b18e20805f8a48117e0100000000ffffffff02a00f0000000000002251206d96cc79e9332d0363331ac1ae5fb5340cac8fd53cd7e833b3a236ac524c40f91fb5010000000000225120a1b67b0df1be190cc9dfe5fcc3a0c790ff042fb81cc849f2a80b311b0673b0010140c890e15a466192e445e5c4b935c4c7a44741d81e5b99b51fd33b5facd9d5e233151c976fb336ab9b2deb44d232d599ae582612865be51cfac125796d4077ed4800000000"
}