{
  "txid": "6feecd025d23b7c4b558a14d7a04f18babbec2b24fe612d9b04dd2c9b8f45446",
  "version": 2,
  "locktime": 0,
  "vin": [
    {
      "txid": "30a8e60a20d93cffa29e658f715adca3a1e15b397878e1e9fbd97b3baff73cff",
      "vout": 1,
      "prevout": {
        "scriptpubkey": "0014b229432a544604698b17bc59c244992268b6168e",
        "scriptpubkey_asm": "OP_0 OP_PUSHBYTES_20 b229432a544604698b17bc59c244992268b6168e",
        "scriptpubkey_type": "v0_p2wpkh",
        "scriptpubkey_address": "bc1qkg55x2j5gczxnzchh3vuy3yeyf5tv95wzjxm9g",
        "value": 1808765
      },
      "scriptsig": "",
      "scriptsig_asm": "",
      "witness": [
        "3045022100c759d0cc6e05bc35f4d94be62f6c4a43a4796c53dea7a3450efcb18e7d0e615b02203c2665ddc564bef8ec4838420086ee5be7472ad746886124d4dd8ab6d86907ec01",
        "024097a4c72886c28c5d27ae486509141450904b98e3030a3ee4508aec31e3a5ad"
      ],
      "is_coinbase": false,
      "sequence": 4294967295
    }
  ],
  "vout": [
    {
      "scriptpubkey": "001458ae5f3c1fd82809e00f21805fd4ebd0238bb766",
      "scriptpubkey_asm": "OP_0 OP_PUSHBYTES_20 58ae5f3c1fd82809e00f21805fd4ebd0238bb766",
      "scriptpubkey_type": "v0_p2wpkh",
      "scriptpubkey_address": "bc1qtzh970qlmq5qncq0yxq9l48t6q3chdmxpyl59q",
      "value": 1961
    },
    {
      "scriptpubkey": "a914ff710deadd4f5832abfde5e3b1ad6f850e22075087",
      "scriptpubkey_asm": "OP_HASH160 OP_PUSHBYTES_20 ff710deadd4f5832abfde5e3b1ad6f850e220750 OP_EQUAL",
      "scriptpubkey_type": "p2sh",
      "scriptpubkey_address": "3QyffceoHSPQDbXtBnGyAJLZXJTeASm4WJ",
      "value": 1803144
    }
  ],
  "size": 224,
  "weight": 566,
  "fee": 3660,
  "status": {
    "confirmed": true,
    "block_height": 834638,
    "block_hash": "000000000000000000025f742c626208ac87e0b7d15054abb4a19ca2d735a54e",
    "block_time": 1710405325
  },
  "hex": "02000000000101ff3cf7af3b7bd9fbe9e17878395be1a1a3dc5a718f659ea2ff3cd9200ae6a8300100000000ffffffff02a90700000000000016001458ae5f3c1fd82809e00f21805fd4ebd0238bb76688831b000000000017a914ff710deadd4f5832abfde5e3b1ad6f850e2207508702483045022100c759d0cc6e05bc35f4d94be62f6c4a43a4796c53dea7a3450efcb18e7d0e615b02203c2665ddc564bef8ec4838420086ee5be7472ad746886124d4dd8ab6d86907ec0121024097a4c72886c28c5d27ae486509141450904b98e3030a3ee4508aec31e3a5ad00000000"
}