{
  "txid": "6ffd58c67b58ca264e778fda96dac9eedf2c0ae7dc23f185d036f8ccb8e3624d",
  "version": 2,
  "locktime": 834458,
  "vin": [
    {
      "txid": "35640318bcc58dcbbb85461b48af611aeeb8518231f2d980b997cd528fe60d4f",
      "vout": 0,
      "prevout": {
        "scriptpubkey": "00140c40023c1abd119ee34043031db190cf96c03ff9",
        "scriptpubkey_asm": "OP_0 OP_PUSHBYTES_20 0c40023c1abd119ee34043031db190cf96c03ff9",
        "scriptpubkey_type": "v0_p2wpkh",
        "scriptpubkey_address": "bc1qp3qqy0q6h5geac6qgvp3mvvse7tvq0leu7cvrq",
        "value": 2085322
      },
      "scriptsig": "",
      "scriptsig_asm": "",
      "witness": [
        "304402207470f8a05c558d51441e58452f826aed6a69e803d6c6002d9f6fe0f8a81128e5022000d1895a4793cf385595100134505534f83aed95d2f8b2f10a6857176be05e1001",
        "028833e4e25335e4a7b8890b14edb9bb1e1495bdafee1f1dc01d32490ba404008c"
      ],
      "is_coinbase": false,
      "sequence": 4294967293
    }
  ],
  "vout": [
    {
      "scriptpubkey": "a914fcfe386ed3331e3a407ffeafb44e29f1eb9b6af287",
      "scriptpubkey_asm": "OP_HASH160 OP_PUSHBYTES_20 fcfe386ed3331e3a407ffeafb44e29f1eb9b6af2 OP_EQUAL",
      "scriptpubkey_type": "p2sh",
      "scriptpubkey_address": "3QkikRwtewvQwjJJ29t3ymmfmDRE64cswx",
      "value": 51000
    },
    {
      "scriptpubkey": "00142bdeb4f8dfa1807640211b0529905c1d1e8b1867",
      "scriptpubkey_asm": "OP_0 OP_PUSHBYTES_20 2bdeb4f8dfa1807640211b0529905c1d1e8b1867",
      "scriptpubkey_type": "v0_p2wpkh",
      "scriptpubkey_address": "bc1q900tf7xl5xq8vspprvzjnyzur50gkxr8jlcsl0",
      "value": 2032265
    }
  ],
  "size": 223,
  "weight": 565,
  "fee": 2057,
  "status": {
    "confirmed": true,
    "block_height": 834460,
    "block_hash": "00000000000000000000484a79b643b2524bbce82e5d8a442013fa5b8905ed98",
    "block_time": 1710307468
  },
  "hex": "020000000001014f0de68f52cd97b980d9f2318251b8ee1a61af481b4685bbcb8dc5bc180364350000000000fdffffff0238c700000000000017a914fcfe386ed3331e3a407ffeafb44e29f1eb9b6af28789021f00000000001600142bdeb4f8dfa1807640211b0529905c1d1e8b18670247304402207470f8a05c558d51441e58452f826aed6a69e803d6c6002d9f6fe0f8a81128e5022000d1895a4793cf385595100134505534f83aed95d2f8b2f10a6857176be05e100121028833e4e25335e4a7b8890b14edb9bb1e1495bdafee1f1dc01d32490ba404008c9abb0c00"
}