{
  "txid": "700017d5f5fb86ace5f72d4411c59c8ae37f70366434857ffe84e524a31b014d",
  "version": 2,
  "locktime": 0,
  "vin": [
    {
      "txid": "5c3864e3e852ec96346d84fbc3195b536ef1db1891f28d4b48dba69c282b1a0d",
      "vout": 7,
      "prevout": {
        "scriptpubkey": "512008b3417c6dd51f74c17cd53a8b45f1392779139358218b0494c763f2869fa56b",
        "scriptpubkey_asm": "OP_PUSHNUM_1 OP_PUSHBYTES_32 08b3417c6dd51f74c17cd53a8b45f1392779139358218b0494c763f2869fa56b",
        "scriptpubkey_type": "v1_p2tr",
        "scriptpubkey_address": "bc1ppze5zlrd650hfstu65agk3038ynhjyuntqsckpy5ca3l9p5l544szqk27t",
        "value": 3055
      },
      "scriptsig": "",
      "scriptsig_asm": "",
      "witness": [
        "fd58e7b54aef38007373c13f9d780f6cb1c24317b62e628f86335b3ac3468b52b62e1177ca759cfeb70420b95d75670f180739deaf6f55838ff047e349de3213",
        "20a8a0203e4caed3f26d4823440f972117d9b715418bbbf78864ed11d65cfc99ebac0063036f726401011e6170706c69636174696f6e2f6a736f6e3b636861727365743d7574662d38004cd37b2270223a22706f772d3230222c226f70223a226d696e74222c227469636b223a2250455045222c22616d74223a2231303030222c22736f6c7574696f6e223a22504550453a626331703237796d68736b396a36716e706b7367767973363471356663717670646465716a6832716a796c6330793861667138663261727375637776796b3a303030303030303030303030303030303030303139393431613561653132383937363539383134343239323533333030353762306461393666336465613163353a3333313735393237363930227d68",
        "c029e6ca6c8c5ab61eaab81da0d3884f0ac7596b050aac6663ac46dee308a1dbc8"
      ],
      "is_coinbase": false,
      "sequence": 4294967295
    }
  ],
  "vout": [
    {
      "scriptpubkey": "51205789bbc2c5968130da086121aa8289c01816b72095d40913f8790fd480e95747",
      "scriptpubkey_asm": "OP_PUSHNUM_1 OP_PUSHBYTES_32 5789bbc2c5968130da086121aa8289c01816b72095d40913f8790fd480e95747",
      "scriptpubkey_type": "v1_p2tr",
      "scriptpubkey_address": "bc1p27ymhsk9j6qnpksgvys64q5fcqvpddeqjh2qjylc0y8afq8f2arsucwvyk",
      "value": 546
    }
  ],
  "size": 487,
  "weight": 769,
  "fee": 2509,
  "status": {
    "confirmed": true,
    "block_height": 834460,
    "block_hash": "00000000000000000000484a79b643b2524bbce82e5d8a442013fa5b8905ed98",
    "block_time": 1710307468
  },
  "hex": "020000000001010d1a2b289ca6db484b8df29118dbf16e535b19c3fb846d3496ec52e8e364385c0700000000ffffffff0122020000000000002251205789bbc2c5968130da086121aa8289c01816b72095d40913f8790fd480e957470340fd58e7b54aef38007373c13f9d780f6cb1c24317b62e628f86335b3ac3468b52b62e1177ca759cfeb70420b95d75670f180739deaf6f55838ff047e349de3213fd200120a8a0203e4caed3f26d4823440f972117d9b715418bbbf78864ed11d65cfc99ebac0063036f726401011e6170706c69636174696f6e2f6a736f6e3b636861727365743d7574662d38004cd37b2270223a22706f772d3230222c226f70223a226d696e74222c227469636b223a2250455045222c22616d74223a2231303030222c22736f6c7574696f6e223a22504550453a626331703237796d68736b396a36716e706b7367767973363471356663717670646465716a6832716a796c6330793861667138663261727375637776796b3a303030303030303030303030303030303030303139393431613561653132383937363539383134343239323533333030353762306461393666336465613163353a3333313735393237363930227d6821c029e6ca6c8c5ab61eaab81da0d3884f0ac7596b050aac6663ac46dee308a1dbc800000000"
}