{
  "txid": "7005eb763cea301c86e5c5b87995c16dff71fe9989aabee51a48340a365febb8",
  "version": 2,
  "locktime": 0,
  "vin": [
    {
      "txid": "4381174c8af1e29c3e08cbe9c9d98a2c7f191a852c8b70f7a707aebb80f73584",
      "vout": 0,
      "prevout": {
        "scriptpubkey": "5120fc68311899c19f20c6e1b6d86c4e9e3efa8f4b2f200315dfc531c3933fcd172d",
        "scriptpubkey_asm": "OP_PUSHNUM_1 OP_PUSHBYTES_32 fc68311899c19f20c6e1b6d86c4e9e3efa8f4b2f200315dfc531c3933fcd172d",
        "scriptpubkey_type": "v1_p2tr",
        "scriptpubkey_address": "bc1pl35rzxyecx0jp3hpkmvxcn578mag7je0yqp3th79x8pex07dzuks294nr9",
        "value": 21627
      },
      "scriptsig": "",
      "scriptsig_asm": "",
      "witness": [
        "f5baef0000ddb381f3b75e8b974afcf8d721893a591fdea1f8649574e05270fdac5a2ae28defe2512f02321ce00afc3199fc414cb39ca1034acfd8cf09d6bc9b",
        "20f2d00e1cce0b839d2e197679cac7a15152ec244338032c7767f72c1332d49a65ac0063036f726401010a696d6167652f77656270004d08025249464688080000574542505650384c7b0800002fffc03f00afe138b26dd33ae7d93666c6f8a5f3b27f01e01b3b0d46b56d2bb9b83ba33f6411c15a50894c842102ccdde1b28d6c5bc97bb843e684560719ad51a646ae91dcf90f104dc764380623222c0bdc54151a25526b56be58d20767adc7743be6d3effb0040242010090020fc7f20000820b47d64ec7e266cf2edd987d17bcc607d1dfbad1621bc0e15260516839effefb3c28d28462c31921883b0c458220466fdb92c48ada968a816433d698acfde54b6b661b0686d5b1c595512b765ce9c5d6d1f71c039d2ce38d4fd5f1cf0ff3f841067bf2fa2ff13e0fffeff9f4fc6e2f5c3558bd26b1695bffee17ac55fc862768cd0a7581e90582fa60d459844f1a8a199988e55349545a126a6ba58d644e5084112cd62f152411485b26815472e5a45b11144f13a60cbfb68152f042a51816a7170625bc8a1098c1e7251ed51251ac5a18b7aa6b08a4671d860049230ac1287277624dac4c18b36b08a3671e8d058b4890314db8355bc26b15d23c27e985a26ae5ef3bf258a7ff523feea46e9f5a269bc52bc76343f2fe64f8315cfebad5c7a061c1c768f75c7809de308b167ac1d4781ec16c789648fd8e0b93d6f7c9291d78fbda1e5dba1fc84d30b4519fb42f53383fa299e5910cac88e50fb1c4ccfec4709d0276a836d1c0688d80b2a83f540001090170d40893da03258c771e155034a3c4d080287789dc240a1c4ae04eb1fc604259e00060525fe0286414127d0067ee5e019004382e73ee0faa1f0346028b013af378617b38d36a1dcb73000c43b1ba909c6e7f3cc1c0f861c5f6fb4f92a605385aae7c2f2d120082f16c89139323439667cbd85179a6c4ab4dd81702edc42b5a7dc0c04cc4003c5e1418e64c0b79548c81030a7f5ac9b0855bf96f0b402e6fc41d416e4d9bcdec8f052e5cea02ee070330200f22de156ae809e00996cf81a76774a660460161f6b069031bce32c2020831d2533809e6004202119806fbf317835030524b3b2a9390d3354d0ddf161a874ef09640c5216e7622e7b98b9ac838a045e2a6ce22e404696589c3b324b75f85f4bffea0f244f24f99fb7dfd99e6880c3cd4a150c2ab2431018cef2a3a1171cb759db0b7602680d92d0702fa8f5fd6c221c0d1673632f00b67ea105488e2a0b2a34f00260eb19ce68ceb603e0639defadc52b197034a01400ccc20c14a4050d7d87757ca5008e0664820636d4d0b647808a2ae0686241688127929e05801908651dc912ad7de70bd401380f92cfdcecfd89a1ca24ef414d7f1a3c14d02f7f8625d2206f84b6845f05cc00d18c3fc7c3e49b9bcb6df8b314d108a8d1f4ac7c7344de4b8dd2a3cd86d5fc89e6be0032b40370a4b9397faedfa702f668b67db3823fdd1272ac903dc06cfd86cc9ff7f74209590740c06c3187194098c31ce630670330d73cbdefd55f0028914d0802ac9386399bcc08f311b7b3fbae1aab75f0e4beb754bd1fd0b5579bf66c3ea709241f8462bf5e6d4a7fb29ffffc0fd86df93b0a013de22baacf88569b3057ec084dfdf97ef6f34734d9947da2b1c5cadebd6bf45f0565007a4073d55aecd927effe8c8f340bb9d54a0fc59a8a55dc2fbc4b7ef4b9cc2d2437b5050ec463b05f9f8b3ce060f46f8b6c126a04a8c21c50c12b57c3bef9bc4b4d68269c033007007398435d565c4807a0b01af7ea7bf8bc4b272ca48ed5daa5fd9226690576e8b3cf49145d15b20fb45f14801dc9de7ceacbae38010bd929d69a24ab7007a020fb5276c209c0421af078acb8a40e9255b8e3811d1a92fd7106ec0e6b2ea99b60871ddd732ad890477adeaa39abfd91dfa121bbe2b40576e58e1a4beaa6b4b496f7875445f6c399602169401ee5ff5bd5c44da9d3ed32ec2ab213ce3081d5575f1fe24eebff81e442d24d8a55f0d0ef0ab207ce34c1425a906ce7854cee5bdd259db2aebc96f787e50e058fe78c0bb421db780180adfe924e59d70a76287830673f0158481af1cb7a2f04b0d55fd229ef846b797f98ef3292c77135132ca90dc93a2f00b0d55fd229efc4a5bd02b02b7890cdd54d50256bf3edd6ea2272e255f0a8820e2cac84042069722fa42a36ba64dd9475f2b5bcd701761c6c2139554206206970f825eba6acd34a1ed5f7432d1954024a6cee8e3a4bde4d366b797f34b8e3384b7e422d240049364d080272470b4bde4d79a71e0d6440926d34b9149177eab5bc3f9af2ad2fe509a8860c40923d588a283afd5ade1f2dee60deb7be4827a01a9001981e6b29a2ec2ccf61690e3980d9c32c65949de55ade1f2deee03116e5043400e480246d6e11a2ec8cdbdac1a26f79d1b702e40064d276963284cebeb43f1adcc1734109a5b485a50ca9b35f8bbbd1264dd6b26f79b14123007280246fb794217635d7e28e87e5a6c4be1e62391a9003a0a80db1abbb0a1e969b7a15fa837102d0104a402b90bbda8d9107588c5b035000500d72d7e05a672b0740e3cf072865cda0744dd6d9ca21cd31e31b5e3a0288f204096bd7ac08aaad18cae7074063ed9a5ec53bda60635b770054736dafda5db6e58338c395beddcd8e472acbdc6155dca10bcae636921debe26aba23b765833aa16f8b23b3e66f2425e48e6eb01646e19615913b1e9b152ec8cd84641d36c671599be0a1383a6b9dad12dbe070dd485ab0071c94b59c5973b4a00d1be3e0f046aee44db6292f4fbe0a5962b905ca2d787aabd1aa082819fe73f8d6f4278a782357452876814324be2541d8058ed38d3400aec74afe44ae16b7fc75a2eaf68b024580ca5f0066a8e1d5a201734c787d68423328fcf06125694509edfc113822d637112f0c80d6d81ec607755666c8846adfeaf800263795a9bf100074ccac24ed7cc363049b356be41baf318d03a0115bf8030e11002b52e53be346285bf0871d4c7023a00afdd1cddc7056f03d3498e04674828defe510e144a651c1049e861bd589a4c2f753e386865e82ae8adcc04e49e749b8a19dfa070c0e4e016383eb87bfc0e206d7f7dffdd98ffbb5c3ffdecfffd98f3f41f76b9f3be826be5e34bc48acdd2b3f106cf2cab0e94bc2231fcc1f1600680063036f726401011e6170706c69636174696f6e2f6a736f6e3b636861727365743d7574662d38004d61017b2270223a22766f7264222c2276223a312c227479223a22696e7363222c22636f6c223a2232383133313430306463623037343737623066393836323162353866346338653931393164613830326137363865633032353436613739656637616334326532222c22696964223a22466c697070656420507570706574222c227075626c223a2231455337623370636a527a4667796969714c7278484b546e43686535364c4a485937222c226e6f6e6365223a3939332c226d696e746572223a2262633170766736617a61786332723466616e7a66766e66377771747a6e767a68636e7770746c3868307a376c6d777838663568337465667133757870686a222c22736967223a22484d4c37555335723852796b6571786b4d654245546e31354b32446e554b612b4a5442324e4a62707a6936664a5a7474646e4d37396963745368374c724f78525035584869386f714152667a76433946557a2f5732664d3d227d68",
        "c0f2d00e1cce0b839d2e197679cac7a15152ec244338032c7767f72c1332d49a65675a92934efa5e4869b2432a3e00abfc6819367af43949c2edc693b32d23ac05"
      ],
      "is_coinbase": false,
      "sequence": 4294967293
    }
  ],
  "vout": [
    {
      "scriptpubkey": "51206235d174d850ea9ecc4964d3e701629b057c4dc15fcf778bdfdb8c74d2f15e52",
      "scriptpubkey_asm": "OP_PUSHNUM_1 OP_PUSHBYTES_32 6235d174d850ea9ecc4964d3e701629b057c4dc15fcf778bdfdb8c74d2f15e52",
      "scriptpubkey_type": "v1_p2tr",
      "scriptpubkey_address": "bc1pvg6azaxc2r4fanzfvnf7wqtznvzhcnwptl8h0z7lmwx8f5h3tefq3uxphj",
      "value": 1000
    },
    {
      "scriptpubkey": "51208a716e52070ca810b1e3cd2bedc8983da5b927c06f362db1296fb09a8da7c15c",
      "scriptpubkey_asm": "OP_PUSHNUM_1 OP_PUSHBYTES_32 8a716e52070ca810b1e3cd2bedc8983da5b927c06f362db1296fb09a8da7c15c",
      "scriptpubkey_type": "v1_p2tr",
      "scriptpubkey_address": "bc1p3fcku5s8pj5ppv0re547mjyc8kjmjf7qdumzmvffd7cf4rd8c9wqzdj4xz",
      "value": 7712
    },
    {
      "scriptpubkey": "51200705a5767db892e98125775049b1a13dd9ecdc8aea0df413cabbee683e871012",
      "scriptpubkey_asm": "OP_PUSHNUM_1 OP_PUSHBYTES_32 0705a5767db892e98125775049b1a13dd9ecdc8aea0df413cabbee683e871012",
      "scriptpubkey_type": "v1_p2tr",
      "scriptpubkey_address": "bc1pquz62anahzfwnqf9wagynvdp8hv7ehy2agxlgy72h0hxs058zqfqk8ksyq",
      "value": 3246
    }
  ],
  "size": 2975,
  "weight": 3515,
  "fee": 9669,
  "status": {
    "confirmed": true,
    "block_height": 834464,
    "block_hash": "0000000000000000000177a0869a911a2b65c9bdcd5a8bcb02b68f305bee848e",
    "block_time": 1710308296
  },
  "hex": "020000000001018435f780bbae07a7f7708b2c851a197f2c8ad9c9e9cb083e9ce2f18a4c1781430000000000fdffffff03e8030000000000002251206235d174d850ea9ecc4964d3e701629b057c4dc15fcf778bdfdb8c74d2f15e52201e0000000000002251208a716e52070ca810b1e3cd2bedc8983da5b927c06f362db1296fb09a8da7c15cae0c0000000000002251200705a5767db892e98125775049b1a13dd9ecdc8aea0df413cabbee683e8710120340f5baef0000ddb381f3b75e8b974afcf8d721893a591fdea1f8649574e05270fdac5a2ae28defe2512f02321ce00afc3199fc414cb39ca1034acfd8cf09d6bc9bfd620a20f2d00e1cce0b839d2e197679cac7a15152ec244338032c7767f72c1332d49a65ac0063036f726401010a696d6167652f77656270004d08025249464688080000574542505650384c7b0800002fffc03f00afe138b26dd33ae7d93666c6f8a5f3b27f01e01b3b0d46b56d2bb9b83ba33f6411c15a50894c842102ccdde1b28d6c5bc97bb843e684560719ad51a646ae91dcf90f104dc764380623222c0bdc54151a25526b56be58d20767adc7743be6d3effb0040242010090020fc7f20000820b47d64ec7e266cf2edd987d17bcc607d1dfbad1621bc0e15260516839effefb3c28d28462c31921883b0c458220466fdb92c48ada968a816433d698acfde54b6b661b0686d5b1c595512b765ce9c5d6d1f71c039d2ce38d4fd5f1cf0ff3f841067bf2fa2ff13e0fffeff9f4fc6e2f5c3558bd26b1695bffee17ac55fc862768cd0a7581e90582fa60d459844f1a8a199988e55349545a126a6ba58d644e5084112cd62f152411485b26815472e5a45b11144f13a60cbfb68152f042a51816a7170625bc8a1098c1e7251ed51251ac5a18b7aa6b08a4671d860049230ac1287277624dac4c18b36b08a3671e8d058b4890314db8355bc26b15d23c27e985a26ae5ef3bf258a7ff523feea46e9f5a269bc52bc76343f2fe64f8315cfebad5c7a061c1c768f75c7809de308b167ac1d4781ec16c789648fd8e0b93d6f7c9291d78fbda1e5dba1fc84d30b4519fb42f53383fa299e5910cac88e50fb1c4ccfec4709d0276a836d1c0688d80b2a83f540001090170d40893da03258c771e155034a3c4d080287789dc240a1c4ae04eb1fc604259e00060525fe0286414127d0067ee5e019004382e73ee0faa1f0346028b013af378617b38d36a1dcb73000c43b1ba909c6e7f3cc1c0f861c5f6fb4f92a605385aae7c2f2d120082f16c89139323439667cbd85179a6c4ab4dd81702edc42b5a7dc0c04cc4003c5e1418e64c0b79548c81030a7f5ac9b0855bf96f0b402e6fc41d416e4d9bcdec8f052e5cea02ee070330200f22de156ae809e00996cf81a76774a660460161f6b069031bce32c2020831d2533809e6004202119806fbf317835030524b3b2a9390d3354d0ddf161a874ef09640c5216e7622e7b98b9ac838a045e2a6ce22e404696589c3b324b75f85f4bffea0f244f24f99fb7dfd99e6880c3cd4a150c2ab2431018cef2a3a1171cb759db0b7602680d92d0702fa8f5fd6c221c0d1673632f00b67ea105488e2a0b2a34f00260eb19ce68ceb603e0639defadc52b197034a01400ccc20c14a4050d7d87757ca5008e0664820636d4d0b647808a2ae0686241688127929e05801908651dc912ad7de70bd401380f92cfdcecfd89a1ca24ef414d7f1a3c14d02f7f8625d2206f84b6845f05cc00d18c3fc7c3e49b9bcb6df8b314d108a8d1f4ac7c7344de4b8dd2a3cd86d5fc89e6be0032b40370a4b9397faedfa702f668b67db3823fdd1272ac903dc06cfd86cc9ff7f74209590740c06c3187194098c31ce630670330d73cbdefd55f0028914d0802ac9386399bcc08f311b7b3fbae1aab75f0e4beb754bd1fd0b5579bf66c3ea709241f8462bf5e6d4a7fb29ffffc0fd86df93b0a013de22baacf88569b3057ec084dfdf97ef6f34734d9947da2b1c5cadebd6bf45f0565007a4073d55aecd927effe8c8f340bb9d54a0fc59a8a55dc2fbc4b7ef4b9cc2d2437b5050ec463b05f9f8b3ce060f46f8b6c126a04a8c21c50c12b57c3bef9bc4b4d68269c033007007398435d565c4807a0b01af7ea7bf8bc4b272ca48ed5daa5fd9226690576e8b3cf49145d15b20fb45f14801dc9de7ceacbae38010bd929d69a24ab7007a020fb5276c209c0421af078acb8a40e9255b8e3811d1a92fd7106ec0e6b2ea99b60871ddd732ad890477adeaa39abfd91dfa121bbe2b40576e58e1a4beaa6b4b496f7875445f6c399602169401ee5ff5bd5c44da9d3ed32ec2ab213ce3081d5575f1fe24eebff81e442d24d8a55f0d0ef0ab207ce34c1425a906ce7854cee5bdd259db2aebc96f787e50e058fe78c0bb421db780180adfe924e59d70a76287830673f0158481af1cb7a2f04b0d55fd229ef846b797f98ef3292c77135132ca90dc93a2f00b0d55fd229efc4a5bd02b02b7890cdd54d50256bf3edd6ea2272e255f0a8820e2cac84042069722fa42a36ba64dd9475f2b5bcd701761c6c2139554206206970f825eba6acd34a1ed5f7432d1954024a6cee8e3a4bde4d366b797f34b8e3384b7e422d240049364d080272470b4bde4d79a71e0d6440926d34b9149177eab5bc3f9af2ad2fe509a8860c40923d588a283afd5ade1f2dee60deb7be4827a01a9001981e6b29a2ec2ccf61690e3980d9c32c65949de55ade1f2deee03116e5043400e480246d6e11a2ec8cdbdac1a26f79d1b702e40064d276963284cebeb43f1adcc1734109a5b485a50ca9b35f8bbbd1264dd6b26f79b14123007280246fb794217635d7e28e87e5a6c4be1e62391a9003a0a80db1abbb0a1e969b7a15fa837102d0104a402b90bbda8d9107588c5b035000500d72d7e05a672b0740e3cf072865cda0744dd6d9ca21cd31e31b5e3a0288f204096bd7ac08aaad18cae7074063ed9a5ec53bda60635b770054736dafda5db6e58338c395beddcd8e472acbdc6155dca10bcae636921debe26aba23b765833aa16f8b23b3e66f2425e48e6eb01646e19615913b1e9b152ec8cd84641d36c671599be0a1383a6b9dad12dbe070dd485ab0071c94b59c5973b4a00d1be3e0f046aee44db6292f4fbe0a5962b905ca2d787aabd1aa082819fe73f8d6f4278a782357452876814324be2541d8058ed38d3400aec74afe44ae16b7fc75a2eaf68b024580ca5f0066a8e1d5a201734c787d68423328fcf06125694509edfc113822d637112f0c80d6d81ec607755666c8846adfeaf800263795a9bf100074ccac24ed7cc363049b356be41baf318d03a0115bf8030e11002b52e53be346285bf0871d4c7023a00afdd1cddc7056f03d3498e04674828defe510e144a651c1049e861bd589a4c2f753e386865e82ae8adcc04e49e749b8a19dfa070c0e4e016383eb87bfc0e206d7f7dffdd98ffbb5c3ffdecfffd98f3f41f76b9f3be826be5e34bc48acdd2b3f106cf2cab0e94bc2231fcc1f1600680063036f726401011e6170706c69636174696f6e2f6a736f6e3b636861727365743d7574662d38004d61017b2270223a22766f7264222c2276223a312c227479223a22696e7363222c22636f6c223a2232383133313430306463623037343737623066393836323162353866346338653931393164613830326137363865633032353436613739656637616334326532222c22696964223a22466c697070656420507570706574222c227075626c223a2231455337623370636a527a4667796969714c7278484b546e43686535364c4a485937222c226e6f6e6365223a3939332c226d696e746572223a2262633170766736617a61786332723466616e7a66766e66377771747a6e767a68636e7770746c3868307a376c6d777838663568337465667133757870686a222c22736967223a22484d4c37555335723852796b6571786b4d654245546e31354b32446e554b612b4a5442324e4a62707a6936664a5a7474646e4d37396963745368374c724f78525035584869386f714152667a76433946557a2f5732664d3d227d6841c0f2d00e1cce0b839d2e197679cac7a15152ec244338032c7767f72c1332d49a65675a92934efa5e4869b2432a3e00abfc6819367af43949c2edc693b32d23ac0500000000"
}