{
  "txid": "7013f8d0e29348302913b39e5375264300ec218a60f3edade5fec9c958e2595a",
  "version": 2,
  "locktime": 0,
  "vin": [
    {
      "txid": "85d4b6c7435c220065763f792500437166ac69d2e172b0e3bf1e03c15ecdecb7",
      "vout": 1,
      "prevout": {
        "scriptpubkey": "0014610eeff66a735a94f5c1fdf25aea579873100d06",
        "scriptpubkey_asm": "OP_0 OP_PUSHBYTES_20 610eeff66a735a94f5c1fdf25aea579873100d06",
        "scriptpubkey_type": "v0_p2wpkh",
        "scriptpubkey_address": "bc1qvy8wlan2wddffawplhe946jhnpe3qrgxr66zgj",
        "value": 9973826
      },
      "scriptsig": "",
      "scriptsig_asm": "",
      "witness": [
        "3044022065ea5ab49849e0b6edcce3e00e7e0f35f12a4a3c55683afcf2374edc723e5a4e02207ecd339888ab475cf491992a7f79010b351ab03d42207dfe36582586259024c201",
        "024688696189c9dc07d1005c0305c0fae15bc59dd78459ad174b81a8d0fe4f37dc"
      ],
      "is_coinbase": false,
      "sequence": 0
    },
    {
      "txid": "9e460dcf8737ab486dfba4e1732960e12c3357af7e33ccc5cbf68ec1591b4baa",
      "vout": 1,
      "prevout": {
        "scriptpubkey": "00140ff2108e4d113ebf1784f99a808575ccf3492b6f",
        "scriptpubkey_asm": "OP_0 OP_PUSHBYTES_20 0ff2108e4d113ebf1784f99a808575ccf3492b6f",
        "scriptpubkey_type": "v0_p2wpkh",
        "scriptpubkey_address": "bc1qplepprjdzylt79uylxdgppt4ene5j2m0k5pttu",
        "value": 9997210
      },
      "scriptsig": "",
      "scriptsig_asm": "",
      "witness": [
        "3045022100ac09e9fede70f3b5bcbaed1144581216eb168c17da0db90693b30afc4efa816102207dbd5e193c193f3710bcff6e2d1d9c2a8f1147317e233257f6decaddbe65da5d01",
        "02ee546075ac17ad9742bef6430a848ea6963e5cf2c7ba73c404469a1aec0bd120"
      ],
      "is_coinbase": false,
      "sequence": 0
    }
  ],
  "vout": [
    {
      "scriptpubkey": "00140e38bacc055a543621879b69a878154e9e95db61",
      "scriptpubkey_asm": "OP_0 OP_PUSHBYTES_20 0e38bacc055a543621879b69a878154e9e95db61",
      "scriptpubkey_type": "v0_p2wpkh",
      "scriptpubkey_address": "bc1qpcut4nq9tf2rvgv8nd56s7q4f60ftkmpmyhqud",
      "value": 10000000
    },
    {
      "scriptpubkey": "00142d1811c3531815da6beca1820a4913faec347b38",
      "scriptpubkey_asm": "OP_0 OP_PUSHBYTES_20 2d1811c3531815da6beca1820a4913faec347b38",
      "scriptpubkey_type": "v0_p2wpkh",
      "scriptpubkey_address": "bc1q95vprs6nrq2a56lv5xpq5jgnltkrg7ech0ecrw",
      "value": 9967310
    }
  ],
  "size": 371,
  "weight": 833,
  "fee": 3726,
  "status": {
    "confirmed": true,
    "block_height": 834638,
    "block_hash": "000000000000000000025f742c626208ac87e0b7d15054abb4a19ca2d735a54e",
    "block_time": 1710405325
  },
  "hex": "02000000000102b7eccd5ec1031ebfe3b072e1d269ac6671430025793f766500225c43c7b6d485010000000000000000aa4b1b59c18ef6cbc5cc337eaf57332ce1602973e1a4fb6d48ab3787cf0d469e0100000000000000000280969800000000001600140e38bacc055a543621879b69a878154e9e95db61ce169800000000001600142d1811c3531815da6beca1820a4913faec347b3802473044022065ea5ab49849e0b6edcce3e00e7e0f35f12a4a3c55683afcf2374edc723e5a4e02207ecd339888ab475cf491992a7f79010b351ab03d42207dfe36582586259024c20121024688696189c9dc07d1005c0305c0fae15bc59dd78459ad174b81a8d0fe4f37dc02483045022100ac09e9fede70f3b5bcbaed1144581216eb168c17da0db90693b30afc4efa816102207dbd5e193c193f3710bcff6e2d1d9c2a8f1147317e233257f6decaddbe65da5d012102ee546075ac17ad9742bef6430a848ea6963e5cf2c7ba73c404469a1aec0bd12000000000"
}