{
  "txid": "701cca74fa1dae963b0949dc583e4970bad2f27f5618a09e700b763f822819bc",
  "version": 2,
  "locktime": 0,
  "vin": [
    {
      "txid": "d94ad5140b9a3e55f577bb8ff7896373da81ff2cf7135e3a9956415cf7cdbee9",
      "vout": 1,
      "prevout": {
        "scriptpubkey": "0014f60834ef165253c571b11ce9fa74e46692fc5ec1",
        "scriptpubkey_asm": "OP_0 OP_PUSHBYTES_20 f60834ef165253c571b11ce9fa74e46692fc5ec1",
        "scriptpubkey_type": "v0_p2wpkh",
        "scriptpubkey_address": "bc1q7cyrfmck2ffu2ud3rn5l5a8yv6f0chkp0zpemf",
        "value": 742051951
      },
      "scriptsig": "",
      "scriptsig_asm": "",
      "witness": [
        "304402206f8ad61989e11d2819fd740889c49fdaa0e72765bf2875bc4c6d3cf505bcadf4022028b2b2686ef3a5e931486191199a29b873de6c85a4c51d8845e852db776e4bb801",
        "026e5628506ecd33242e5ceb5fdafe4d3066b5c0f159b3c05a621ef65f177ea286"
      ],
      "is_coinbase": false,
      "sequence": 4294967293
    }
  ],
  "vout": [
    {
      "scriptpubkey": "001409c8f7bb45f6850fc2a51618286c44dff4fa7a32",
      "scriptpubkey_asm": "OP_0 OP_PUSHBYTES_20 09c8f7bb45f6850fc2a51618286c44dff4fa7a32",
      "scriptpubkey_type": "v0_p2wpkh",
      "scriptpubkey_address": "bc1qp8y00w6976zsls49zcvzsmzyml60573jhd6nnz",
      "value": 100000
    },
    {
      "scriptpubkey": "0014f60834ef165253c571b11ce9fa74e46692fc5ec1",
      "scriptpubkey_asm": "OP_0 OP_PUSHBYTES_20 f60834ef165253c571b11ce9fa74e46692fc5ec1",
      "scriptpubkey_type": "v0_p2wpkh",
      "scriptpubkey_address": "bc1q7cyrfmck2ffu2ud3rn5l5a8yv6f0chkp0zpemf",
      "value": 741947343
    }
  ],
  "size": 222,
  "weight": 561,
  "fee": 4608,
  "status": {
    "confirmed": true,
    "block_height": 834638,
    "block_hash": "000000000000000000025f742c626208ac87e0b7d15054abb4a19ca2d735a54e",
    "block_time": 1710405325
  },
  "hex": "02000000000101e9becdf75c4156993a5e13f72cff81da736389f78fbb77f5553e9a0b14d54ad90100000000fdffffff02a08601000000000016001409c8f7bb45f6850fc2a51618286c44dff4fa7a32cf37392c00000000160014f60834ef165253c571b11ce9fa74e46692fc5ec10247304402206f8ad61989e11d2819fd740889c49fdaa0e72765bf2875bc4c6d3cf505bcadf4022028b2b2686ef3a5e931486191199a29b873de6c85a4c51d8845e852db776e4bb80121026e5628506ecd33242e5ceb5fdafe4d3066b5c0f159b3c05a621ef65f177ea28600000000"
}