{
  "txid": "70367ddcf0dc8453cdf3e94ee436a6bcbb85460d1281ecc1da3e41276c139082",
  "version": 1,
  "locktime": 0,
  "vin": [
    {
      "txid": "0e4c5505179396c6d6e8d120f9bd035f91310bd9f22352a41d470283190e1f96",
      "vout": 1,
      "prevout": {
        "scriptpubkey": "76a91422cfad50c4a1e1757ac36ea760c308d1fda0bd4188ac",
        "scriptpubkey_asm": "OP_DUP OP_HASH160 OP_PUSHBYTES_20 22cfad50c4a1e1757ac36ea760c308d1fda0bd41 OP_EQUALVERIFY OP_CHECKSIG",
        "scriptpubkey_type": "p2pkh",
        "scriptpubkey_address": "14B4mB6iYysiE9YgbuwckaDKQG5M6qmRkn",
        "value": 1021594
      },
      "scriptsig": "47304402203de7b9106a6fa47e5cd844b8ba7a29ecc0486fed2f5c055a0de16cc2b82e71c2022002b1b04b4d13f5e033ef5bf1c39b44f2ad35b2c1fd96124e73598f23dbf17ffe01210296dc89c4ca1db2176343cf19a8a8d0d503ec31db76cf7e53afda252f9e0ff7b7",
      "scriptsig_asm": "OP_PUSHBYTES_71 304402203de7b9106a6fa47e5cd844b8ba7a29ecc0486fed2f5c055a0de16cc2b82e71c2022002b1b04b4d13f5e033ef5bf1c39b44f2ad35b2c1fd96124e73598f23dbf17ffe01 OP_PUSHBYTES_33 0296dc89c4ca1db2176343cf19a8a8d0d503ec31db76cf7e53afda252f9e0ff7b7",
      "is_coinbase": false,
      "sequence": 4294967295
    }
  ],
  "vout": [
    {
      "scriptpubkey": "76a914bb31b359892d984f15ae57dd5d0ee35752a15c0c88ac",
      "scriptpubkey_asm": "OP_DUP OP_HASH160 OP_PUSHBYTES_20 bb31b359892d984f15ae57dd5d0ee35752a15c0c OP_EQUALVERIFY OP_CHECKSIG",
      "scriptpubkey_type": "p2pkh",
      "scriptpubkey_address": "1J4nu8WYMoQyQntSR5QMcXj5H7gtvZ67Dr",
      "value": 299678
    },
    {
      "scriptpubkey": "76a91407eceebc7ca5044edaf7b25a8c432a41b16cf88f88ac",
      "scriptpubkey_asm": "OP_DUP OP_HASH160 OP_PUSHBYTES_20 07eceebc7ca5044edaf7b25a8c432a41b16cf88f OP_EQUALVERIFY OP_CHECKSIG",
      "scriptpubkey_type": "p2pkh",
      "scriptpubkey_address": "1iuZhwmRyCggwc7u4ZD1DbLUbQ96Ex8to",
      "value": 714910
    }
  ],
  "size": 225,
  "weight": 900,
  "fee": 7006,
  "status": {
    "confirmed": true,
    "block_height": 834638,
    "block_hash": "000000000000000000025f742c626208ac87e0b7d15054abb4a19ca2d735a54e",
    "block_time": 1710405325
  },
  "hex": "0100000001961f0e198302471da45223f2d90b31915f03bdf920d1e8d6c696931705554c0e010000006a47304402203de7b9106a6fa47e5cd844b8ba7a29ecc0486fed2f5c055a0de16cc2b82e71c2022002b1b04b4d13f5e033ef5bf1c39b44f2ad35b2c1fd96124e73598f23dbf17ffe01210296dc89c4ca1db2176343cf19a8a8d0d503ec31db76cf7e53afda252f9e0ff7b7ffffffff029e920400000000001976a914bb31b359892d984f15ae57dd5d0ee35752a15c0c88ac9ee80a00000000001976a91407eceebc7ca5044edaf7b25a8c432a41b16cf88f88ac00000000"
}