{
  "txid": "703df70ca47c3ef54ce613eed28d9f303113f0a0878708eb264892dfd863d1c3",
  "version": 2,
  "locktime": 834637,
  "vin": [
    {
      "txid": "ba5f6616fd494c52ca091bbebb68e257ebfa7400812108d3f3413845d5f2bff1",
      "vout": 3,
      "prevout": {
        "scriptpubkey": "0014b35c90c3694ab02de0581e49a668a65b284cbef0",
        "scriptpubkey_asm": "OP_0 OP_PUSHBYTES_20 b35c90c3694ab02de0581e49a668a65b284cbef0",
        "scriptpubkey_type": "v0_p2wpkh",
        "scriptpubkey_address": "bc1qkdwfpsmff2czmczcrey6v69xtv5ye0hs06tjuc",
        "value": 2561054
      },
      "scriptsig": "",
      "scriptsig_asm": "",
      "witness": [
        "304402204a59b3198704214d8ae16cc2326642f0b75e24c4e963480693737a5e861310f00220280f52ada312195bd208c7ca40a48170b4db6adde05c710df8a0ec33e47aa0df01",
        "02d7ad06507019e78170e7c0fc2875f1c734bb155d2634b19140660d648c711831"
      ],
      "is_coinbase": false,
      "sequence": 4294967293
    }
  ],
  "vout": [
    {
      "scriptpubkey": "001471604e10f5d319d6cdaa1ff88515e5fde56f4e2f",
      "scriptpubkey_asm": "OP_0 OP_PUSHBYTES_20 71604e10f5d319d6cdaa1ff88515e5fde56f4e2f",
      "scriptpubkey_type": "v0_p2wpkh",
      "scriptpubkey_address": "bc1qw9syuy846vvadnd2rlug2909lhjk7n30kn4kkr",
      "value": 2558304
    }
  ],
  "size": 191,
  "weight": 437,
  "fee": 2750,
  "status": {
    "confirmed": true,
    "block_height": 834638,
    "block_hash": "000000000000000000025f742c626208ac87e0b7d15054abb4a19ca2d735a54e",
    "block_time": 1710405325
  },
  "hex": "02000000000101f1bff2d5453841f3d30821810074faeb57e268bbbe1b09ca524c49fd16665fba0300000000fdffffff01600927000000000016001471604e10f5d319d6cdaa1ff88515e5fde56f4e2f0247304402204a59b3198704214d8ae16cc2326642f0b75e24c4e963480693737a5e861310f00220280f52ada312195bd208c7ca40a48170b4db6adde05c710df8a0ec33e47aa0df012102d7ad06507019e78170e7c0fc2875f1c734bb155d2634b19140660d648c7118314dbc0c00"
}