{
  "txid": "70434916738ea44ca15798387f0ac552d2b1a0736e0846ba19d883c7601ebf55",
  "version": 2,
  "locktime": 0,
  "vin": [
    {
      "txid": "6c12742ef85156a87d00ce995dc0e8b7dab7fe79f24b8448823b5b14b386468f",
      "vout": 2,
      "prevout": {
        "scriptpubkey": "0014f60834ef165253c571b11ce9fa74e46692fc5ec1",
        "scriptpubkey_asm": "OP_0 OP_PUSHBYTES_20 f60834ef165253c571b11ce9fa74e46692fc5ec1",
        "scriptpubkey_type": "v0_p2wpkh",
        "scriptpubkey_address": "bc1q7cyrfmck2ffu2ud3rn5l5a8yv6f0chkp0zpemf",
        "value": 728355767
      },
      "scriptsig": "",
      "scriptsig_asm": "",
      "witness": [
        "304502210095a5220b99118b2cba2eda472ab0bef4a03b58bfc21a26afcf79fd9f0764b77e02200e56c45f3757d8c669efad71cc8d97d7128ef9c67a4cd6fc6644859c657a7e8a01",
        "026e5628506ecd33242e5ceb5fdafe4d3066b5c0f159b3c05a621ef65f177ea286"
      ],
      "is_coinbase": false,
      "sequence": 4294967293
    }
  ],
  "vout": [
    {
      "scriptpubkey": "00142784e1808c9b72a947f87c8b66d7666b0194f908",
      "scriptpubkey_asm": "OP_0 OP_PUSHBYTES_20 2784e1808c9b72a947f87c8b66d7666b0194f908",
      "scriptpubkey_type": "v0_p2wpkh",
      "scriptpubkey_address": "bc1qy7zwrqyvnde2j3lc0j9kd4mxdvqef7gg8x0k0c",
      "value": 60110
    },
    {
      "scriptpubkey": "0014f60834ef165253c571b11ce9fa74e46692fc5ec1",
      "scriptpubkey_asm": "OP_0 OP_PUSHBYTES_20 f60834ef165253c571b11ce9fa74e46692fc5ec1",
      "scriptpubkey_type": "v0_p2wpkh",
      "scriptpubkey_address": "bc1q7cyrfmck2ffu2ud3rn5l5a8yv6f0chkp0zpemf",
      "value": 728291337
    }
  ],
  "size": 223,
  "weight": 562,
  "fee": 4320,
  "status": {
    "confirmed": true,
    "block_height": 834638,
    "block_hash": "000000000000000000025f742c626208ac87e0b7d15054abb4a19ca2d735a54e",
    "block_time": 1710405325
  },
  "hex": "020000000001018f4686b3145b3b8248844bf279feb7dab7e8c05d99ce007da85651f82e74126c0200000000fdffffff02ceea0000000000001600142784e1808c9b72a947f87c8b66d7666b0194f90809d8682b00000000160014f60834ef165253c571b11ce9fa74e46692fc5ec10248304502210095a5220b99118b2cba2eda472ab0bef4a03b58bfc21a26afcf79fd9f0764b77e02200e56c45f3757d8c669efad71cc8d97d7128ef9c67a4cd6fc6644859c657a7e8a0121026e5628506ecd33242e5ceb5fdafe4d3066b5c0f159b3c05a621ef65f177ea28600000000"
}