{
  "txid": "7046f234639d52b16a8162be089659e1e64b77038537307c09dfdd2e5de2b2b9",
  "version": 1,
  "locktime": 0,
  "vin": [
    {
      "txid": "f91133fe24815ddafb0d22456493441b724829e05e8d658b146757d967f51995",
      "vout": 1,
      "prevout": {
        "scriptpubkey": "76a914373386a1117268c396bc017cfcbee8944f69bdcf88ac",
        "scriptpubkey_asm": "OP_DUP OP_HASH160 OP_PUSHBYTES_20 373386a1117268c396bc017cfcbee8944f69bdcf OP_EQUALVERIFY OP_CHECKSIG",
        "scriptpubkey_type": "p2pkh",
        "scriptpubkey_address": "162stdhBg9Hrttc1FRu3hE7hHc6CBM3ctr",
        "value": 2290466
      },
      "scriptsig": "483045022100b445e5f33ffee9f780437d521e72fae793b38a64ee86a2d89f0b752b8901407502207d97bf6fbc50b4158808caa699ff5010fafdbd8334b56c329f9e9d000a110889012102b18b91880cbd11afbc1dde72005711d2cc472c8810d989602606e636b6c4610a",
      "scriptsig_asm": "OP_PUSHBYTES_72 3045022100b445e5f33ffee9f780437d521e72fae793b38a64ee86a2d89f0b752b8901407502207d97bf6fbc50b4158808caa699ff5010fafdbd8334b56c329f9e9d000a11088901 OP_PUSHBYTES_33 02b18b91880cbd11afbc1dde72005711d2cc472c8810d989602606e636b6c4610a",
      "is_coinbase": false,
      "sequence": 4294967295
    }
  ],
  "vout": [
    {
      "scriptpubkey": "a914d8996c8580b7634052d0d4769b6b90b8df19507e87",
      "scriptpubkey_asm": "OP_HASH160 OP_PUSHBYTES_20 d8996c8580b7634052d0d4769b6b90b8df19507e OP_EQUAL",
      "scriptpubkey_type": "p2sh",
      "scriptpubkey_address": "3MSHg4Q9GehgVHGyK7gJua1rrbkx81Z4B4",
      "value": 30550
    },
    {
      "scriptpubkey": "76a914373386a1117268c396bc017cfcbee8944f69bdcf88ac",
      "scriptpubkey_asm": "OP_DUP OP_HASH160 OP_PUSHBYTES_20 373386a1117268c396bc017cfcbee8944f69bdcf OP_EQUALVERIFY OP_CHECKSIG",
      "scriptpubkey_type": "p2pkh",
      "scriptpubkey_address": "162stdhBg9Hrttc1FRu3hE7hHc6CBM3ctr",
      "value": 2255622
    }
  ],
  "size": 224,
  "weight": 896,
  "fee": 4294,
  "status": {
    "confirmed": true,
    "block_height": 834638,
    "block_hash": "000000000000000000025f742c626208ac87e0b7d15054abb4a19ca2d735a54e",
    "block_time": 1710405325
  },
  "hex": "01000000019519f567d95767148b658d5ee02948721b44936445220dfbda5d8124fe3311f9010000006b483045022100b445e5f33ffee9f780437d521e72fae793b38a64ee86a2d89f0b752b8901407502207d97bf6fbc50b4158808caa699ff5010fafdbd8334b56c329f9e9d000a110889012102b18b91880cbd11afbc1dde72005711d2cc472c8810d989602606e636b6c4610affffffff02567700000000000017a914d8996c8580b7634052d0d4769b6b90b8df19507e87066b2200000000001976a914373386a1117268c396bc017cfcbee8944f69bdcf88ac00000000"
}