{
  "txid": "704d2fa42e01e568826c73dcd922f0ea3e3f5c26fd2e406bdb84b5ef23bcc8dc",
  "version": 1,
  "locktime": 0,
  "vin": [
    {
      "txid": "1ee89ed98f4eb69e7d8a3b119dde2b1ab5cec9efc08180e30b703aaf935b7eff",
      "vout": 0,
      "prevout": {
        "scriptpubkey": "a914801433bd07f7815c022590e650d2b5dcd446188f87",
        "scriptpubkey_asm": "OP_HASH160 OP_PUSHBYTES_20 801433bd07f7815c022590e650d2b5dcd446188f OP_EQUAL",
        "scriptpubkey_type": "p2sh",
        "scriptpubkey_address": "3DNEcmJyg6VPHR7TdFFmyD2LZoDNnLbtjH",
        "value": 29487
      },
      "scriptsig": "22002088f1113338f508ef10d34df6e92de68210947f8e65a967da2ff1418207e1c3e3",
      "scriptsig_asm": "OP_PUSHBYTES_34 002088f1113338f508ef10d34df6e92de68210947f8e65a967da2ff1418207e1c3e3",
      "witness": [
        "",
        "304402204560f43175abd3a471bacfa58f0acb6f713097f16c2afed2459841b407874b53022055ca039e15055cce7d5a661395a9c1a054e99228eeff41a80165a954d1ae91ee01",
        "304402202cb77cad6898ab2da68282c8c16e0f1be91e2d2664c96769aa1b553bc6f55c4c02203c31cce2a40e4bf3c055f9f7fbeb54fc217f9d6853580272ef637e3d994cd3ae01",
        "5221036b59711184e6a5f10f3692b0a213965e7756f116d2687f5af735f75c670d8dc521033f67b4653f6f60081c649081c5626c1d4bf03f6b9f092a713558d29cdbf649872102fd985948136c8e1395ffff58e3aec4e2b8e8296f9d89eec77f0025149e7308aa53ae"
      ],
      "is_coinbase": false,
      "sequence": 4294967293,
      "inner_redeemscript_asm": "OP_0 OP_PUSHBYTES_32 88f1113338f508ef10d34df6e92de68210947f8e65a967da2ff1418207e1c3e3",
      "inner_witnessscript_asm": "OP_PUSHNUM_2 OP_PUSHBYTES_33 036b59711184e6a5f10f3692b0a213965e7756f116d2687f5af735f75c670d8dc5 OP_PUSHBYTES_33 033f67b4653f6f60081c649081c5626c1d4bf03f6b9f092a713558d29cdbf64987 OP_PUSHBYTES_33 02fd985948136c8e1395ffff58e3aec4e2b8e8296f9d89eec77f0025149e7308aa OP_PUSHNUM_3 OP_CHECKMULTISIG"
    },
    {
      "txid": "ba131f276fd8f979fdd0600ccbd9efbea8b0dbe1b0fef6a69f4a43579507c115",
      "vout": 1,
      "prevout": {
        "scriptpubkey": "a914801433bd07f7815c022590e650d2b5dcd446188f87",
        "scriptpubkey_asm": "OP_HASH160 OP_PUSHBYTES_20 801433bd07f7815c022590e650d2b5dcd446188f OP_EQUAL",
        "scriptpubkey_type": "p2sh",
        "scriptpubkey_address": "3DNEcmJyg6VPHR7TdFFmyD2LZoDNnLbtjH",
        "value": 6966126
      },
      "scriptsig": "22002088f1113338f508ef10d34df6e92de68210947f8e65a967da2ff1418207e1c3e3",
      "scriptsig_asm": "OP_PUSHBYTES_34 002088f1113338f508ef10d34df6e92de68210947f8e65a967da2ff1418207e1c3e3",
      "witness": [
        "",
        "3045022100f2a7f884e86f864ce629502224ed193808593227c996b41099231f2106282c0402204b958b99b111865ce84565fa243c2c2411b727a6526770aaca3858416287e5cb01",
        "304402203e01e751ebfc34bce750fd5b4133e3f6669d103c7dfb75d9f72fb0007f68f34b0220258ce78124021c4ce2189977781b8c49502a6c1d79c2f1b79861d434113569f901",
        "5221036b59711184e6a5f10f3692b0a213965e7756f116d2687f5af735f75c670d8dc521033f67b4653f6f60081c649081c5626c1d4bf03f6b9f092a713558d29cdbf649872102fd985948136c8e1395ffff58e3aec4e2b8e8296f9d89eec77f0025149e7308aa53ae"
      ],
      "is_coinbase": false,
      "sequence": 4294967293,
      "inner_redeemscript_asm": "OP_0 OP_PUSHBYTES_32 88f1113338f508ef10d34df6e92de68210947f8e65a967da2ff1418207e1c3e3",
      "inner_witnessscript_asm": "OP_PUSHNUM_2 OP_PUSHBYTES_33 036b59711184e6a5f10f3692b0a213965e7756f116d2687f5af735f75c670d8dc5 OP_PUSHBYTES_33 033f67b4653f6f60081c649081c5626c1d4bf03f6b9f092a713558d29cdbf64987 OP_PUSHBYTES_33 02fd985948136c8e1395ffff58e3aec4e2b8e8296f9d89eec77f0025149e7308aa OP_PUSHNUM_3 OP_CHECKMULTISIG"
    }
  ],
  "vout": [
    {
      "scriptpubkey": "a914801433bd07f7815c022590e650d2b5dcd446188f87",
      "scriptpubkey_asm": "OP_HASH160 OP_PUSHBYTES_20 801433bd07f7815c022590e650d2b5dcd446188f OP_EQUAL",
      "scriptpubkey_type": "p2sh",
      "scriptpubkey_address": "3DNEcmJyg6VPHR7TdFFmyD2LZoDNnLbtjH",
      "value": 7759
    },
    {
      "scriptpubkey": "76a91452086cc8a5e28b2eec744109ef42baa645bbc90d88ac",
      "scriptpubkey_asm": "OP_DUP OP_HASH160 OP_PUSHBYTES_20 52086cc8a5e28b2eec744109ef42baa645bbc90d OP_EQUALVERIFY OP_CHECKSIG",
      "scriptpubkey_type": "p2pkh",
      "scriptpubkey_address": "18UkW764x1FJLjV7GkPMXkix4sshkBaqc9",
      "value": 6980000
    }
  ],
  "size": 735,
  "weight": 1419,
  "fee": 7854,
  "status": {
    "confirmed": true,
    "block_height": 834638,
    "block_hash": "000000000000000000025f742c626208ac87e0b7d15054abb4a19ca2d735a54e",
    "block_time": 1710405325
  },
  "hex": "01000000000102ff7e5b93af3a700be38081c0efc9ceb51a2bde9d113b8a7d9eb64e8fd99ee81e000000002322002088f1113338f508ef10d34df6e92de68210947f8e65a967da2ff1418207e1c3e3fdffffff15c1079557434a9fa6f6feb0e1dbb0a8beefd9cb0c60d0fd79f9d86f271f13ba010000002322002088f1113338f508ef10d34df6e92de68210947f8e65a967da2ff1418207e1c3e3fdffffff024f1e00000000000017a914801433bd07f7815c022590e650d2b5dcd446188f87a0816a00000000001976a91452086cc8a5e28b2eec744109ef42baa645bbc90d88ac040047304402204560f43175abd3a471bacfa58f0acb6f713097f16c2afed2459841b407874b53022055ca039e15055cce7d5a661395a9c1a054e99228eeff41a80165a954d1ae91ee0147304402202cb77cad6898ab2da68282c8c16e0f1be91e2d2664c96769aa1b553bc6f55c4c02203c31cce2a40e4bf3c055f9f7fbeb54fc217f9d6853580272ef637e3d994cd3ae01695221036b59711184e6a5f10f3692b0a213965e7756f116d2687f5af735f75c670d8dc521033f67b4653f6f60081c649081c5626c1d4bf03f6b9f092a713558d29cdbf649872102fd985948136c8e1395ffff58e3aec4e2b8e8296f9d89eec77f0025149e7308aa53ae0400483045022100f2a7f884e86f864ce629502224ed193808593227c996b41099231f2106282c0402204b958b99b111865ce84565fa243c2c2411b727a6526770aaca3858416287e5cb0147304402203e01e751ebfc34bce750fd5b4133e3f6669d103c7dfb75d9f72fb0007f68f34b0220258ce78124021c4ce2189977781b8c49502a6c1d79c2f1b79861d434113569f901695221036b59711184e6a5f10f3692b0a213965e7756f116d2687f5af735f75c670d8dc521033f67b4653f6f60081c649081c5626c1d4bf03f6b9f092a713558d29cdbf649872102fd985948136c8e1395ffff58e3aec4e2b8e8296f9d89eec77f0025149e7308aa53ae00000000"
}