{
  "txid": "7054852442e64431b1764b50666194bc04ad70e4a80f29e086b61c5b79e1160f",
  "version": 2,
  "locktime": 834637,
  "vin": [
    {
      "txid": "f74f06dd877c776a93b14c325337f439279b23ecb982581b0ce6c7c7a294daad",
      "vout": 0,
      "prevout": {
        "scriptpubkey": "001484ed8efa1bc6e6f1d048708af35cfac9151118a7",
        "scriptpubkey_asm": "OP_0 OP_PUSHBYTES_20 84ed8efa1bc6e6f1d048708af35cfac9151118a7",
        "scriptpubkey_type": "v0_p2wpkh",
        "scriptpubkey_address": "bc1qsnkca7smcmn0r5zgwz90xh86ey23zx98jzec7y",
        "value": 1031240296
      },
      "scriptsig": "",
      "scriptsig_asm": "",
      "witness": [
        "304402207e1dbeea64cee568dced4d3581d1d5e1569e000ac05214c8328022f86d24adcd022026db665359e4030f3260cf7393e2c7a6db7bb1460afcdb2a5ea832cda5eb4a5501",
        "027247b9925340767503c3175a580ba8efe4930c4ec6f3c91d297ca2bfedb26d44"
      ],
      "is_coinbase": false,
      "sequence": 4294967294
    }
  ],
  "vout": [
    {
      "scriptpubkey": "0014522e40fc9f80bb2eb84b8a96d9c2d60bc540b522",
      "scriptpubkey_asm": "OP_0 OP_PUSHBYTES_20 522e40fc9f80bb2eb84b8a96d9c2d60bc540b522",
      "scriptpubkey_type": "v0_p2wpkh",
      "scriptpubkey_address": "bc1q2ghyplylszajawzt32tdnskkp0z5pdfzkgr43m",
      "value": 677586
    },
    {
      "scriptpubkey": "0014ae84e6ad9765c55bdd35c93a98416e948be6fcce",
      "scriptpubkey_asm": "OP_0 OP_PUSHBYTES_20 ae84e6ad9765c55bdd35c93a98416e948be6fcce",
      "scriptpubkey_type": "v0_p2wpkh",
      "scriptpubkey_address": "bc1q46zwdtvhvhz4hhf4eyafsstwjj97dlxwsv9c52",
      "value": 1030558904
    }
  ],
  "size": 222,
  "weight": 561,
  "fee": 3806,
  "status": {
    "confirmed": true,
    "block_height": 834638,
    "block_hash": "000000000000000000025f742c626208ac87e0b7d15054abb4a19ca2d735a54e",
    "block_time": 1710405325
  },
  "hex": "02000000000101adda94a2c7c7e60c1b5882b9ec239b2739f43753324cb1936a777c87dd064ff70000000000feffffff02d2560a0000000000160014522e40fc9f80bb2eb84b8a96d9c2d60bc540b522b8146d3d00000000160014ae84e6ad9765c55bdd35c93a98416e948be6fcce0247304402207e1dbeea64cee568dced4d3581d1d5e1569e000ac05214c8328022f86d24adcd022026db665359e4030f3260cf7393e2c7a6db7bb1460afcdb2a5ea832cda5eb4a550121027247b9925340767503c3175a580ba8efe4930c4ec6f3c91d297ca2bfedb26d444dbc0c00"
}