{
  "txid": "706a96519fb104c3f86b25f0f121d2e25a2c1b449dda83d91dfa32bbe6b58262",
  "version": 2,
  "locktime": 0,
  "vin": [
    {
      "txid": "33198a5cbe2a53fc30099ab53009144888cef479020e7acbc065183b03c26d7b",
      "vout": 21,
      "prevout": {
        "scriptpubkey": "5120c563282adf405a9025e8754411ca159e6e820b4be9a0632d96fb14fd22aafb65",
        "scriptpubkey_asm": "OP_PUSHNUM_1 OP_PUSHBYTES_32 c563282adf405a9025e8754411ca159e6e820b4be9a0632d96fb14fd22aafb65",
        "scriptpubkey_type": "v1_p2tr",
        "scriptpubkey_address": "bc1pc43js2klgpdfqf0gw4zprjs4nehgyz6taxsxxtvklv206g42ldjsvaw964",
        "value": 2658
      },
      "scriptsig": "",
      "scriptsig_asm": "",
      "witness": [
        "dd683fa87ace94d2397633d280959814b5cc36a610e093621df7c35ad2e89f91c5a3e3e65de41b02bb046286b7824d637d98e8d2405af99e4b84084c0eabef60",
        "20520cc7cd3d2006faf02ad6a6f1b689d3cc33b0121a61d89ef96a3b5426b8a290ac0063036f726401011e6170706c69636174696f6e2f6a736f6e3b636861727365743d7574662d38004cbf7b2270223a22706f772d3230222c226f70223a226d696e74222c227469636b223a2250455045222c22616d74223a2231303030222c22736f6c7574696f6e223a22504550453a626331717832636c7935673578376b356a6b7376396d61346332753661646c7a78657470616e387071733a303030303030303030303030303030303030303139393431613561653132383937363539383134343239323533333030353762306461393666336465613163353a3134343430373836323732227d68",
        "c0da2c9a1920efdfbecd176e4adbb0ca1150e62509fd8a3a19d8331b0c89a8a97b"
      ],
      "is_coinbase": false,
      "sequence": 4294967295
    }
  ],
  "vout": [
    {
      "scriptpubkey": "001432b1f2511437ad495a0c2efb5c2b9aeb7e236561",
      "scriptpubkey_asm": "OP_0 OP_PUSHBYTES_20 32b1f2511437ad495a0c2efb5c2b9aeb7e236561",
      "scriptpubkey_type": "v0_p2wpkh",
      "scriptpubkey_address": "bc1qx2cly5g5x7k5jksv9ma4c2u6adlzxetpan8pqs",
      "value": 546
    }
  ],
  "size": 455,
  "weight": 701,
  "fee": 2112,
  "status": {
    "confirmed": true,
    "block_height": 834460,
    "block_hash": "00000000000000000000484a79b643b2524bbce82e5d8a442013fa5b8905ed98",
    "block_time": 1710307468
  },
  "hex": "020000000001017b6dc2033b1865c0cb7a0e0279f4ce8848140930b59a0930fc532abe5c8a19331500000000ffffffff01220200000000000016001432b1f2511437ad495a0c2efb5c2b9aeb7e2365610340dd683fa87ace94d2397633d280959814b5cc36a610e093621df7c35ad2e89f91c5a3e3e65de41b02bb046286b7824d637d98e8d2405af99e4b84084c0eabef60fd0c0120520cc7cd3d2006faf02ad6a6f1b689d3cc33b0121a61d89ef96a3b5426b8a290ac0063036f726401011e6170706c69636174696f6e2f6a736f6e3b636861727365743d7574662d38004cbf7b2270223a22706f772d3230222c226f70223a226d696e74222c227469636b223a2250455045222c22616d74223a2231303030222c22736f6c7574696f6e223a22504550453a626331717832636c7935673578376b356a6b7376396d61346332753661646c7a78657470616e387071733a303030303030303030303030303030303030303139393431613561653132383937363539383134343239323533333030353762306461393666336465613163353a3134343430373836323732227d6821c0da2c9a1920efdfbecd176e4adbb0ca1150e62509fd8a3a19d8331b0c89a8a97b00000000"
}