{
  "txid": "706adbefcb66e6a8526c41966c40964ca94a99d01a944367252a65b92a7e48ac",
  "version": 2,
  "locktime": 834458,
  "vin": [
    {
      "txid": "d5bbc54bbd17c75e255a254b4c64bd855ed4193c194b27875ba36f4ea734daad",
      "vout": 0,
      "prevout": {
        "scriptpubkey": "0014c2d73611434d23500f8502df4308dd7dbc27f13f",
        "scriptpubkey_asm": "OP_0 OP_PUSHBYTES_20 c2d73611434d23500f8502df4308dd7dbc27f13f",
        "scriptpubkey_type": "v0_p2wpkh",
        "scriptpubkey_address": "bc1qcttnvy2rf534qru9qt05xzxa0k7z0uflw4auwf",
        "value": 659
      },
      "scriptsig": "",
      "scriptsig_asm": "",
      "witness": [
        "30440220104a510ad7d24f3865d8d501ceaa74ca5c76efbffa00bd2ef74b31306bc13adb022014f143dae274a55db453aef69add771c2d91fb678df455229ab8545d1836017d01",
        "02ed65620597c1000b04222115df6a61a71b5eda7170ea89063f0789f64ebe6340"
      ],
      "is_coinbase": false,
      "sequence": 4294967293
    },
    {
      "txid": "d5bbc54bbd17c75e255a254b4c64bd855ed4193c194b27875ba36f4ea734daad",
      "vout": 2,
      "prevout": {
        "scriptpubkey": "0014c2d73611434d23500f8502df4308dd7dbc27f13f",
        "scriptpubkey_asm": "OP_0 OP_PUSHBYTES_20 c2d73611434d23500f8502df4308dd7dbc27f13f",
        "scriptpubkey_type": "v0_p2wpkh",
        "scriptpubkey_address": "bc1qcttnvy2rf534qru9qt05xzxa0k7z0uflw4auwf",
        "value": 675695
      },
      "scriptsig": "",
      "scriptsig_asm": "",
      "witness": [
        "304402203381ed55303453dca3b4220f3edd1eb90b7b9177401bc02de0926e856831ffad02205755fb343a2b0f4ca148339a535536a41fc44e5e97727678113a017540c1fc2001",
        "02ed65620597c1000b04222115df6a61a71b5eda7170ea89063f0789f64ebe6340"
      ],
      "is_coinbase": false,
      "sequence": 4294967293
    }
  ],
  "vout": [
    {
      "scriptpubkey": "0014c2d73611434d23500f8502df4308dd7dbc27f13f",
      "scriptpubkey_asm": "OP_0 OP_PUSHBYTES_20 c2d73611434d23500f8502df4308dd7dbc27f13f",
      "scriptpubkey_type": "v0_p2wpkh",
      "scriptpubkey_address": "bc1qcttnvy2rf534qru9qt05xzxa0k7z0uflw4auwf",
      "value": 658
    },
    {
      "scriptpubkey": "001443a3ed26835ecd2065c3499224452c026553540f",
      "scriptpubkey_asm": "OP_0 OP_PUSHBYTES_20 43a3ed26835ecd2065c3499224452c026553540f",
      "scriptpubkey_type": "v0_p2wpkh",
      "scriptpubkey_address": "bc1qgw376f5rtmxjqewrfxfzg3fvqfj4x4q0m9yw6f",
      "value": 546
    },
    {
      "scriptpubkey": "0014c2d73611434d23500f8502df4308dd7dbc27f13f",
      "scriptpubkey_asm": "OP_0 OP_PUSHBYTES_20 c2d73611434d23500f8502df4308dd7dbc27f13f",
      "scriptpubkey_type": "v0_p2wpkh",
      "scriptpubkey_address": "bc1qcttnvy2rf534qru9qt05xzxa0k7z0uflw4auwf",
      "value": 671970
    }
  ],
  "size": 401,
  "weight": 956,
  "fee": 3180,
  "status": {
    "confirmed": true,
    "block_height": 834460,
    "block_hash": "00000000000000000000484a79b643b2524bbce82e5d8a442013fa5b8905ed98",
    "block_time": 1710307468
  },
  "hex": "02000000000102adda34a74e6fa35b87274b193c19d45e85bd644c4b255a255ec717bd4bc5bbd50000000000fdffffffadda34a74e6fa35b87274b193c19d45e85bd644c4b255a255ec717bd4bc5bbd50200000000fdffffff039202000000000000160014c2d73611434d23500f8502df4308dd7dbc27f13f220200000000000016001443a3ed26835ecd2065c3499224452c026553540fe2400a0000000000160014c2d73611434d23500f8502df4308dd7dbc27f13f024730440220104a510ad7d24f3865d8d501ceaa74ca5c76efbffa00bd2ef74b31306bc13adb022014f143dae274a55db453aef69add771c2d91fb678df455229ab8545d1836017d012102ed65620597c1000b04222115df6a61a71b5eda7170ea89063f0789f64ebe63400247304402203381ed55303453dca3b4220f3edd1eb90b7b9177401bc02de0926e856831ffad02205755fb343a2b0f4ca148339a535536a41fc44e5e97727678113a017540c1fc20012102ed65620597c1000b04222115df6a61a71b5eda7170ea89063f0789f64ebe63409abb0c00"
}