{
  "txid": "70744b835941646b11baee6a2eee6fc8d7679081647860804f51166eb9081942",
  "version": 2,
  "locktime": 0,
  "vin": [
    {
      "txid": "324d208835576f2c7a724aaae6602a3662e0d4ac60e471bc5036ab025497cc10",
      "vout": 0,
      "prevout": {
        "scriptpubkey": "0014b4d459a560581a723444183cbd1253d04ca21fcf",
        "scriptpubkey_asm": "OP_0 OP_PUSHBYTES_20 b4d459a560581a723444183cbd1253d04ca21fcf",
        "scriptpubkey_type": "v0_p2wpkh",
        "scriptpubkey_address": "bc1qkn29nftqtqd8ydzyrq7t6yjn6px2y870pr5hun",
        "value": 91176
      },
      "scriptsig": "",
      "scriptsig_asm": "",
      "witness": [
        "3045022100e16a5899d6620195da8c5f6ff62b30862653682b95956b28c5281ed2e92f0f99022039f481469b4e7fe6559bcb199a66c5c89ec3e8a162c8a75c705168660d1bbaf301",
        "0341d7ef69390bffa5263f38f87803fc5082a29e9101e42cb552c1a676f640e9f9"
      ],
      "is_coinbase": false,
      "sequence": 4294967293
    },
    {
      "txid": "73f4d5f5b00c0aaea3bb35294964aaaac79d52552fd7a78eaded2e739ccc8409",
      "vout": 1,
      "prevout": {
        "scriptpubkey": "0014e1be9db688419d368695d143eb1ced27d6576752",
        "scriptpubkey_asm": "OP_0 OP_PUSHBYTES_20 e1be9db688419d368695d143eb1ced27d6576752",
        "scriptpubkey_type": "v0_p2wpkh",
        "scriptpubkey_address": "bc1quxlfmd5ggxwndp5469p7k88dylt9we6juhrvhm",
        "value": 8367240
      },
      "scriptsig": "",
      "scriptsig_asm": "",
      "witness": [
        "3044022072afd286f137331e28164b68913e32864925af8dcd86ea81b78ec12e602a2d0b02200e674892a787304eec6088aaec46c92b0713df9792d86dde2414ca57042fbb9801",
        "024a25efeb2cde1730a34f04e4b817b9b4cef9a6b3946e73845ee819dd53f00995"
      ],
      "is_coinbase": false,
      "sequence": 4294967293
    }
  ],
  "vout": [
    {
      "scriptpubkey": "0014b4d459a560581a723444183cbd1253d04ca21fcf",
      "scriptpubkey_asm": "OP_0 OP_PUSHBYTES_20 b4d459a560581a723444183cbd1253d04ca21fcf",
      "scriptpubkey_type": "v0_p2wpkh",
      "scriptpubkey_address": "bc1qkn29nftqtqd8ydzyrq7t6yjn6px2y870pr5hun",
      "value": 7867471
    },
    {
      "scriptpubkey": "001412b447986a6361570d291c0db70d8c453e5635ad",
      "scriptpubkey_asm": "OP_0 OP_PUSHBYTES_20 12b447986a6361570d291c0db70d8c453e5635ad",
      "scriptpubkey_type": "v0_p2wpkh",
      "scriptpubkey_address": "bc1qz26y0xr2vds4wrffrsxmwrvvg5l9vddds4n86l",
      "value": 587000
    }
  ],
  "size": 371,
  "weight": 833,
  "fee": 3945,
  "status": {
    "confirmed": true,
    "block_height": 834638,
    "block_hash": "000000000000000000025f742c626208ac87e0b7d15054abb4a19ca2d735a54e",
    "block_time": 1710405325
  },
  "hex": "0200000000010210cc975402ab3650bc71e460acd4e062362a60e6aa4a727a2c6f573588204d320000000000fdffffff0984cc9c732eedad8ea7d72f55529dc7aaaa64492935bba3ae0a0cb0f5d5f4730100000000fdffffff024f0c780000000000160014b4d459a560581a723444183cbd1253d04ca21fcff8f408000000000016001412b447986a6361570d291c0db70d8c453e5635ad02483045022100e16a5899d6620195da8c5f6ff62b30862653682b95956b28c5281ed2e92f0f99022039f481469b4e7fe6559bcb199a66c5c89ec3e8a162c8a75c705168660d1bbaf301210341d7ef69390bffa5263f38f87803fc5082a29e9101e42cb552c1a676f640e9f902473044022072afd286f137331e28164b68913e32864925af8dcd86ea81b78ec12e602a2d0b02200e674892a787304eec6088aaec46c92b0713df9792d86dde2414ca57042fbb980121024a25efeb2cde1730a34f04e4b817b9b4cef9a6b3946e73845ee819dd53f0099500000000"
}