{
  "txid": "7076234d01acdfac2dbda44b6fa5f7b3d4625482e6e72481d9c90ed08e9b84d7",
  "version": 2,
  "locktime": 0,
  "vin": [
    {
      "txid": "4ee77778659dcfe8d7a4e15882fc6193f4f3d5f6607624e256337b44c2280af5",
      "vout": 39,
      "prevout": {
        "scriptpubkey": "51208d9747be4934542563addf188ce6c293d97bc22507673bc87f3fd95ebe36828c",
        "scriptpubkey_asm": "OP_PUSHNUM_1 OP_PUSHBYTES_32 8d9747be4934542563addf188ce6c293d97bc22507673bc87f3fd95ebe36828c",
        "scriptpubkey_type": "v1_p2tr",
        "scriptpubkey_address": "bc1p3kt500jfx32z2cadmuvgeekzj0vhhs39qannhjrl8lv4a03ks2xqlp86nj",
        "value": 2075
      },
      "scriptsig": "",
      "scriptsig_asm": "",
      "witness": [
        "6d138f667a574f83aa6b9417798a74b33e52503f73815aff5efc5b97bebec0a94d340a8b869d387860daa83b108b06a44c42fda8efb65c61793cd2e312746324",
        "204f7c264b708e2449ef9309f5518fff0048359ec7e3012260499b311726054f3eac0063036f7264010118746578742f706c61696e3b636861727365743d7574662d3800357b2270223a224252432d313030222c226f70223a226d696e74222c227469636b223a22696e73222c22616d74223a2231303030227d68",
        "c0c50eac15d7d7889f5ad84f80015e8a209129aeea937c37fa4b8bc0f9be289730"
      ],
      "is_coinbase": false,
      "sequence": 4294967295
    }
  ],
  "vout": [
    {
      "scriptpubkey": "00143e2325412b554cacdd163a93a42204c4707f8851",
      "scriptpubkey_asm": "OP_0 OP_PUSHBYTES_20 3e2325412b554cacdd163a93a42204c4707f8851",
      "scriptpubkey_type": "v0_p2wpkh",
      "scriptpubkey_address": "bc1q8c3j2sft24x2ehgk82f6ggsyc3c8lzz3yw9wsu",
      "value": 546
    }
  ],
  "size": 308,
  "weight": 554,
  "fee": 1529,
  "status": {
    "confirmed": true,
    "block_height": 834464,
    "block_hash": "0000000000000000000177a0869a911a2b65c9bdcd5a8bcb02b68f305bee848e",
    "block_time": 1710308296
  },
  "hex": "02000000000101f50a28c2447b3356e2247660f6d5f3f49361fc8258e1a4d7e8cf9d657877e74e2700000000ffffffff0122020000000000001600143e2325412b554cacdd163a93a42204c4707f885103406d138f667a574f83aa6b9417798a74b33e52503f73815aff5efc5b97bebec0a94d340a8b869d387860daa83b108b06a44c42fda8efb65c61793cd2e3127463247b204f7c264b708e2449ef9309f5518fff0048359ec7e3012260499b311726054f3eac0063036f7264010118746578742f706c61696e3b636861727365743d7574662d3800357b2270223a224252432d313030222c226f70223a226d696e74222c227469636b223a22696e73222c22616d74223a2231303030227d6821c0c50eac15d7d7889f5ad84f80015e8a209129aeea937c37fa4b8bc0f9be28973000000000"
}