{
  "txid": "7077c693d8b4af463781a7b7df92ecb3ae8ac9d1cf016244327d1c75e4d60123",
  "version": 2,
  "locktime": 0,
  "vin": [
    {
      "txid": "22a5dc0e8257f0e25997eed630f8b7ac96cc7531984abe0c64cc8c46657b6ae3",
      "vout": 70,
      "prevout": {
        "scriptpubkey": "00146b9e84a4c79ee144ca005f6e9af0f5180ac63b2b",
        "scriptpubkey_asm": "OP_0 OP_PUSHBYTES_20 6b9e84a4c79ee144ca005f6e9af0f5180ac63b2b",
        "scriptpubkey_type": "v0_p2wpkh",
        "scriptpubkey_address": "bc1qdw0gffx8nms5fjsqtahf4u84rq9vvwetqa48pr",
        "value": 1357439
      },
      "scriptsig": "",
      "scriptsig_asm": "",
      "witness": [
        "304402205854f46e0b883503374572863b4188e8464b4982691db5b7338a6678317748b502202cb15a53be49c319de59c543bd46e5ca9e08655e51535188be3fef77a41076ca01",
        "02fb0f145f08e5a385a716a7f04edbe932280844a2f2b519afeec4dfa27d3a3033"
      ],
      "is_coinbase": false,
      "sequence": 4294967295
    }
  ],
  "vout": [
    {
      "scriptpubkey": "0014ab23c681a60cd21f9bd2efb584edbdc6f1440de4",
      "scriptpubkey_asm": "OP_0 OP_PUSHBYTES_20 ab23c681a60cd21f9bd2efb584edbdc6f1440de4",
      "scriptpubkey_type": "v0_p2wpkh",
      "scriptpubkey_address": "bc1q4v3udqdxpnfplx7ja76cfmdacmc5gr0yj4dytq",
      "value": 1355645
    }
  ],
  "size": 191,
  "weight": 437,
  "fee": 1794,
  "status": {
    "confirmed": true,
    "block_height": 834638,
    "block_hash": "000000000000000000025f742c626208ac87e0b7d15054abb4a19ca2d735a54e",
    "block_time": 1710405325
  },
  "hex": "02000000000101e36a7b65468ccc640cbe4a983175cc96acb7f830d6ee9759e2f057820edca5224600000000ffffffff017daf140000000000160014ab23c681a60cd21f9bd2efb584edbdc6f1440de40247304402205854f46e0b883503374572863b4188e8464b4982691db5b7338a6678317748b502202cb15a53be49c319de59c543bd46e5ca9e08655e51535188be3fef77a41076ca012102fb0f145f08e5a385a716a7f04edbe932280844a2f2b519afeec4dfa27d3a303300000000"
}