{
  "txid": "707812f887f3178de6586577221e410bfc66e65f8ddc00c73c6cca0799900001",
  "version": 2,
  "locktime": 0,
  "vin": [
    {
      "txid": "ce0b6761271469d6168ee89d60c8bd85dcc4cdaa0bbf1f1be026255bc64ed06d",
      "vout": 3,
      "prevout": {
        "scriptpubkey": "5120b2d0f9fd9a8ade3e1cabb5df2f327e5c111ea0e92a77e56fe2387b8b59195dc5",
        "scriptpubkey_asm": "OP_PUSHNUM_1 OP_PUSHBYTES_32 b2d0f9fd9a8ade3e1cabb5df2f327e5c111ea0e92a77e56fe2387b8b59195dc5",
        "scriptpubkey_type": "v1_p2tr",
        "scriptpubkey_address": "bc1pktg0nlv63t0ru89tkh0j7vn7tsg3ag8f9fm72mlz8packkgethzs7s2ya0",
        "value": 154431
      },
      "scriptsig": "",
      "scriptsig_asm": "",
      "witness": [
        "4c3962a7cd91210cd30f6215d98d3ac243685b7be6edd6d601f277f5c7e94b957e20d0ba5e52ed73d6a0cda19c92c53d49398b4f3fc47bcc72d366c5c9f6cfa4"
      ],
      "is_coinbase": false,
      "sequence": 4294967295
    },
    {
      "txid": "feb8d046b57107c77cd12332aeb71b27113ce258854a60971b63d784f263804a",
      "vout": 17,
      "prevout": {
        "scriptpubkey": "5120b2d0f9fd9a8ade3e1cabb5df2f327e5c111ea0e92a77e56fe2387b8b59195dc5",
        "scriptpubkey_asm": "OP_PUSHNUM_1 OP_PUSHBYTES_32 b2d0f9fd9a8ade3e1cabb5df2f327e5c111ea0e92a77e56fe2387b8b59195dc5",
        "scriptpubkey_type": "v1_p2tr",
        "scriptpubkey_address": "bc1pktg0nlv63t0ru89tkh0j7vn7tsg3ag8f9fm72mlz8packkgethzs7s2ya0",
        "value": 46933
      },
      "scriptsig": "",
      "scriptsig_asm": "",
      "witness": [
        "f33cd103c637664584c3198cfecb591a8cdb12a432aeb254af15ee24ff22c18c1a092e94c6aca02e417793c746aa8af62d596c4575c4929f42cf33c00ca54cab"
      ],
      "is_coinbase": false,
      "sequence": 4294967295
    }
  ],
  "vout": [
    {
      "scriptpubkey": "5120b2d0f9fd9a8ade3e1cabb5df2f327e5c111ea0e92a77e56fe2387b8b59195dc5",
      "scriptpubkey_asm": "OP_PUSHNUM_1 OP_PUSHBYTES_32 b2d0f9fd9a8ade3e1cabb5df2f327e5c111ea0e92a77e56fe2387b8b59195dc5",
      "scriptpubkey_type": "v1_p2tr",
      "scriptpubkey_address": "bc1pktg0nlv63t0ru89tkh0j7vn7tsg3ag8f9fm72mlz8packkgethzs7s2ya0",
      "value": 600
    },
    {
      "scriptpubkey": "5120b2d0f9fd9a8ade3e1cabb5df2f327e5c111ea0e92a77e56fe2387b8b59195dc5",
      "scriptpubkey_asm": "OP_PUSHNUM_1 OP_PUSHBYTES_32 b2d0f9fd9a8ade3e1cabb5df2f327e5c111ea0e92a77e56fe2387b8b59195dc5",
      "scriptpubkey_type": "v1_p2tr",
      "scriptpubkey_address": "bc1pktg0nlv63t0ru89tkh0j7vn7tsg3ag8f9fm72mlz8packkgethzs7s2ya0",
      "value": 600
    },
    {
      "scriptpubkey": "5120b2d0f9fd9a8ade3e1cabb5df2f327e5c111ea0e92a77e56fe2387b8b59195dc5",
      "scriptpubkey_asm": "OP_PUSHNUM_1 OP_PUSHBYTES_32 b2d0f9fd9a8ade3e1cabb5df2f327e5c111ea0e92a77e56fe2387b8b59195dc5",
      "scriptpubkey_type": "v1_p2tr",
      "scriptpubkey_address": "bc1pktg0nlv63t0ru89tkh0j7vn7tsg3ag8f9fm72mlz8packkgethzs7s2ya0",
      "value": 195846
    }
  ],
  "size": 355,
  "weight": 1018,
  "fee": 4318,
  "status": {
    "confirmed": true,
    "block_height": 834638,
    "block_hash": "000000000000000000025f742c626208ac87e0b7d15054abb4a19ca2d735a54e",
    "block_time": 1710405325
  },
  "hex": "020000000001026dd04ec65b2526e01b1fbf0baacdc4dc85bdc8609de88e16d669142761670bce0300000000ffffffff4a8063f284d7631b97604a8558e23c11271bb7ae3223d17cc70771b546d0b8fe1100000000ffffffff035802000000000000225120b2d0f9fd9a8ade3e1cabb5df2f327e5c111ea0e92a77e56fe2387b8b59195dc55802000000000000225120b2d0f9fd9a8ade3e1cabb5df2f327e5c111ea0e92a77e56fe2387b8b59195dc506fd020000000000225120b2d0f9fd9a8ade3e1cabb5df2f327e5c111ea0e92a77e56fe2387b8b59195dc501404c3962a7cd91210cd30f6215d98d3ac243685b7be6edd6d601f277f5c7e94b957e20d0ba5e52ed73d6a0cda19c92c53d49398b4f3fc47bcc72d366c5c9f6cfa40140f33cd103c637664584c3198cfecb591a8cdb12a432aeb254af15ee24ff22c18c1a092e94c6aca02e417793c746aa8af62d596c4575c4929f42cf33c00ca54cab00000000"
}