{
  "txid": "709156584c9b6aa7a0190f1871079e5a9fb38dcb31964bc6daedba75eb7e24a2",
  "version": 1,
  "locktime": 0,
  "vin": [
    {
      "txid": "d80e512646a44c876f0ba1b6526be491f50872230313c664df5b6517ff12b4c6",
      "vout": 0,
      "prevout": {
        "scriptpubkey": "00144b6ebb11ad7faf6f1e282c227955e47eef4b9f09",
        "scriptpubkey_asm": "OP_0 OP_PUSHBYTES_20 4b6ebb11ad7faf6f1e282c227955e47eef4b9f09",
        "scriptpubkey_type": "v0_p2wpkh",
        "scriptpubkey_address": "bc1qfdhtkydd07hk783g9s38j40y0mh5h8cfhlymwn",
        "value": 2818030
      },
      "scriptsig": "",
      "scriptsig_asm": "",
      "witness": [
        "304402205612efa3c74c89d00025d65c0e781ee304c43482b92fa3c0ee2b7bdc8fcf07d70220733b18f8e1a9df18b64730b1b57d03796add1d2bfd6a19f4f4774781af4c2a4b01",
        "037a7f59b3be46a28bb30c745b8c987179a9213cdcb83854f4b58f08dbcf4e3263"
      ],
      "is_coinbase": false,
      "sequence": 4294967295
    }
  ],
  "vout": [
    {
      "scriptpubkey": "001429d71ddb3c2fd8f2d39f01f8ac400bd3fff71177",
      "scriptpubkey_asm": "OP_0 OP_PUSHBYTES_20 29d71ddb3c2fd8f2d39f01f8ac400bd3fff71177",
      "scriptpubkey_type": "v0_p2wpkh",
      "scriptpubkey_address": "bc1q98t3mkeu9lv095ulq8u2csqt60llwythplwe94",
      "value": 1363698
    },
    {
      "scriptpubkey": "00144b6ebb11ad7faf6f1e282c227955e47eef4b9f09",
      "scriptpubkey_asm": "OP_0 OP_PUSHBYTES_20 4b6ebb11ad7faf6f1e282c227955e47eef4b9f09",
      "scriptpubkey_type": "v0_p2wpkh",
      "scriptpubkey_address": "bc1qfdhtkydd07hk783g9s38j40y0mh5h8cfhlymwn",
      "value": 1450525
    }
  ],
  "size": 222,
  "weight": 561,
  "fee": 3807,
  "status": {
    "confirmed": true,
    "block_height": 834638,
    "block_hash": "000000000000000000025f742c626208ac87e0b7d15054abb4a19ca2d735a54e",
    "block_time": 1710405325
  },
  "hex": "01000000000101c6b412ff17655bdf64c61303237208f591e46b52b6a10b6f874ca44626510ed80000000000ffffffff02f2ce14000000000016001429d71ddb3c2fd8f2d39f01f8ac400bd3fff711771d221600000000001600144b6ebb11ad7faf6f1e282c227955e47eef4b9f090247304402205612efa3c74c89d00025d65c0e781ee304c43482b92fa3c0ee2b7bdc8fcf07d70220733b18f8e1a9df18b64730b1b57d03796add1d2bfd6a19f4f4774781af4c2a4b0121037a7f59b3be46a28bb30c745b8c987179a9213cdcb83854f4b58f08dbcf4e326300000000"
}