{
  "txid": "7094760e2202e4bc377392a270a28098dd488d05b174e5560ea014583b6a9f75",
  "version": 1,
  "locktime": 0,
  "vin": [
    {
      "txid": "38b9d961cb3dde65ea66dbe285767fc8ca5be7815c3a6ce1115899741593d616",
      "vout": 20,
      "prevout": {
        "scriptpubkey": "0020e5c7c00d174631d2d1e365d6347b016fb87b6a0c08902d8e443989cb771fa7ec",
        "scriptpubkey_asm": "OP_0 OP_PUSHBYTES_32 e5c7c00d174631d2d1e365d6347b016fb87b6a0c08902d8e443989cb771fa7ec",
        "scriptpubkey_type": "v0_p2wsh",
        "scriptpubkey_address": "bc1quhruqrghgcca950rvhtrg7cpd7u8k6svpzgzmrjy8xyukacl5lkq0r8l2d",
        "value": 230657518
      },
      "scriptsig": "",
      "scriptsig_asm": "",
      "witness": [
        "",
        "3045022100a584bfe822249b8c81aeefc399ad7345294aa99d89475c80b00ad3fa81611f54022037231f7c07841d934a4db81e7eac847ccf25c3df72af51726994f8c5bda4dcb801",
        "3045022100d71730de7c79759cb1095b9a57434e7eed8cfe4c2083285380650640997f039c0220684a523e9ba48e64f9dd56f71fe74cd9ba972f76c7224abddc5fe6c69e9200d101",
        "5221026064e5b88c4fff7dba7dc0300db8dbfc1faff14f9ddbaacbcaa4f70124de0e93210331870350912385ca9a9d537e9cf9d80c6c9558e31d654f82f3164fdc5955e9642103c7b133a0f463a501d8c58c8eb8c7b6e9e4ddfb7d4a7bf6365a4732201569bc8353ae"
      ],
      "is_coinbase": false,
      "sequence": 4294967295,
      "inner_witnessscript_asm": "OP_PUSHNUM_2 OP_PUSHBYTES_33 026064e5b88c4fff7dba7dc0300db8dbfc1faff14f9ddbaacbcaa4f70124de0e93 OP_PUSHBYTES_33 0331870350912385ca9a9d537e9cf9d80c6c9558e31d654f82f3164fdc5955e964 OP_PUSHBYTES_33 03c7b133a0f463a501d8c58c8eb8c7b6e9e4ddfb7d4a7bf6365a4732201569bc83 OP_PUSHNUM_3 OP_CHECKMULTISIG"
    },
    {
      "txid": "1291a7e2310b650b14f0834319f13dcc91b6bb0b8d25f0d2b207fab20f71d9f4",
      "vout": 0,
      "prevout": {
        "scriptpubkey": "a9140bd62838ba78045bbb82b7da7e4612a89cb32bda87",
        "scriptpubkey_asm": "OP_HASH160 OP_PUSHBYTES_20 0bd62838ba78045bbb82b7da7e4612a89cb32bda OP_EQUAL",
        "scriptpubkey_type": "p2sh",
        "scriptpubkey_address": "32mbuYvJFSk1miv8ZYidK3TGBLkaMHMh47",
        "value": 100000000
      },
      "scriptsig": "00483045022100d5ccae170e4e0451333453403403ea607ddf88db0404747e2192acfbcd8b00f9022049432845a71719371addb41a339cc9962c53d8004021384b69b72d0b1d0dcbc50147304402200f015b9810ac6544de14ba65a683924411bde78a40b4d9784db7b07ac7d5b89102200fd4a4638b70b57f4a0ee38fc650b97f07a04da6d93972b86f4b0d9b776c1dbb014c69522102e82116aa3ab81ffb96f743965fe07494e10b3e2f742fbcbf309d9ea0e3a4ecde21020ec3274658e799430c1e16cd4a4028e794967ad6bf64349a3d263c1b5bf255c021033f4b8a389a4949a790754b261c986164161d62ca69e6a42b25b54c983358e70553ae",
      "scriptsig_asm": "OP_0 OP_PUSHBYTES_72 3045022100d5ccae170e4e0451333453403403ea607ddf88db0404747e2192acfbcd8b00f9022049432845a71719371addb41a339cc9962c53d8004021384b69b72d0b1d0dcbc501 OP_PUSHBYTES_71 304402200f015b9810ac6544de14ba65a683924411bde78a40b4d9784db7b07ac7d5b89102200fd4a4638b70b57f4a0ee38fc650b97f07a04da6d93972b86f4b0d9b776c1dbb01 OP_PUSHDATA1 522102e82116aa3ab81ffb96f743965fe07494e10b3e2f742fbcbf309d9ea0e3a4ecde21020ec3274658e799430c1e16cd4a4028e794967ad6bf64349a3d263c1b5bf255c021033f4b8a389a4949a790754b261c986164161d62ca69e6a42b25b54c983358e70553ae",
      "is_coinbase": false,
      "sequence": 4294967295,
      "inner_redeemscript_asm": "OP_PUSHNUM_2 OP_PUSHBYTES_33 02e82116aa3ab81ffb96f743965fe07494e10b3e2f742fbcbf309d9ea0e3a4ecde OP_PUSHBYTES_33 020ec3274658e799430c1e16cd4a4028e794967ad6bf64349a3d263c1b5bf255c0 OP_PUSHBYTES_33 033f4b8a389a4949a790754b261c986164161d62ca69e6a42b25b54c983358e705 OP_PUSHNUM_3 OP_CHECKMULTISIG"
    },
    {
      "txid": "367c7995201cb1ac5c45babeeb183f7ce59b193c462f12d07ec31487c91b9e65",
      "vout": 10,
      "prevout": {
        "scriptpubkey": "a914589942e767fe34503eee121f6a563e68c9f1d78b87",
        "scriptpubkey_asm": "OP_HASH160 OP_PUSHBYTES_20 589942e767fe34503eee121f6a563e68c9f1d78b OP_EQUAL",
        "scriptpubkey_type": "p2sh",
        "scriptpubkey_address": "39mUzD7Z7FCmpfQR4AiTo3RbkYc3s6JSgH",
        "value": 100000000
      },
      "scriptsig": "00483045022100ca90931d31aea40b8f555af35d72091792b87e1ccd8673c5a8a884c7482d348f0220156236a844e326538c0d51344a194e75868df958ae050f37ca57627cd447a8e601483045022100b3a946535f646564d2041d89b036d02bdfdcf33d2e959b753eeb664ede79b50402200c9895da6fcadcc0b9e794f6763f78851cd6fbc41ae362a8122432cf0c4946c9014c69522103e1a75621e50c2e7f13ed5b422ffd61e75c1abec316e99127672642cde5854b9521031b857dcc7ee1ede1ce1e55628d75f9ef8c17bc05a79789c9e7d85741055d6bc82102c9841d721d47044d2b36f976e99beb6efc622412a17cf69fcf66738701b83bcc53ae",
      "scriptsig_asm": "OP_0 OP_PUSHBYTES_72 3045022100ca90931d31aea40b8f555af35d72091792b87e1ccd8673c5a8a884c7482d348f0220156236a844e326538c0d51344a194e75868df958ae050f37ca57627cd447a8e601 OP_PUSHBYTES_72 3045022100b3a946535f646564d2041d89b036d02bdfdcf33d2e959b753eeb664ede79b50402200c9895da6fcadcc0b9e794f6763f78851cd6fbc41ae362a8122432cf0c4946c901 OP_PUSHDATA1 522103e1a75621e50c2e7f13ed5b422ffd61e75c1abec316e99127672642cde5854b9521031b857dcc7ee1ede1ce1e55628d75f9ef8c17bc05a79789c9e7d85741055d6bc82102c9841d721d47044d2b36f976e99beb6efc622412a17cf69fcf66738701b83bcc53ae",
      "is_coinbase": false,
      "sequence": 4294967295,
      "inner_redeemscript_asm": "OP_PUSHNUM_2 OP_PUSHBYTES_33 03e1a75621e50c2e7f13ed5b422ffd61e75c1abec316e99127672642cde5854b95 OP_PUSHBYTES_33 031b857dcc7ee1ede1ce1e55628d75f9ef8c17bc05a79789c9e7d85741055d6bc8 OP_PUSHBYTES_33 02c9841d721d47044d2b36f976e99beb6efc622412a17cf69fcf66738701b83bcc OP_PUSHNUM_3 OP_CHECKMULTISIG"
    },
    {
      "txid": "f46a9e2887afccebd6d4f38a3758452ef0bdec9b410151d67d947ed61dd5cf5c",
      "vout": 0,
      "prevout": {
        "scriptpubkey": "a914e7f9dc5bb29b0e5247ea69721a22a8bbb1fbf1b187",
        "scriptpubkey_asm": "OP_HASH160 OP_PUSHBYTES_20 e7f9dc5bb29b0e5247ea69721a22a8bbb1fbf1b1 OP_EQUAL",
        "scriptpubkey_type": "p2sh",
        "scriptpubkey_address": "3NqbLVEHUFeecgdPixZw8qxpnU4QQKFebn",
        "value": 109919514
      },
      "scriptsig": "00483045022100d536fd5d256a0f50debac536f554bc469b4106b1c743ad841ed0d6f11461b89a02200507a0482f88eae218b314f61b564d07f0db89efa3ca60e73ccbf7892cfb310e014830450221008c99a7ed9755ec270c700dfa7d48d45d0a916e95d40cc473db05070242bd9380022076d277f04f996e0aa6371402e6cbd434cf9daef031e5a97cd3595a956031a95e014c69522102f872085d71ad02072adc30a5025fd3acea57c8d8f71bf010a4681a8897966c7621020d62af7456d0a63c5b12bc37c3c1dcb8c7e49b4cfc3c375efd56db148affd401210287b8de796b2b2f45cfb18eb4930d0c880e83b71bcf90e2105bbe76c394d1edf453ae",
      "scriptsig_asm": "OP_0 OP_PUSHBYTES_72 3045022100d536fd5d256a0f50debac536f554bc469b4106b1c743ad841ed0d6f11461b89a02200507a0482f88eae218b314f61b564d07f0db89efa3ca60e73ccbf7892cfb310e01 OP_PUSHBYTES_72 30450221008c99a7ed9755ec270c700dfa7d48d45d0a916e95d40cc473db05070242bd9380022076d277f04f996e0aa6371402e6cbd434cf9daef031e5a97cd3595a956031a95e01 OP_PUSHDATA1 522102f872085d71ad02072adc30a5025fd3acea57c8d8f71bf010a4681a8897966c7621020d62af7456d0a63c5b12bc37c3c1dcb8c7e49b4cfc3c375efd56db148affd401210287b8de796b2b2f45cfb18eb4930d0c880e83b71bcf90e2105bbe76c394d1edf453ae",
      "is_coinbase": false,
      "sequence": 4294967295,
      "inner_redeemscript_asm": "OP_PUSHNUM_2 OP_PUSHBYTES_33 02f872085d71ad02072adc30a5025fd3acea57c8d8f71bf010a4681a8897966c76 OP_PUSHBYTES_33 020d62af7456d0a63c5b12bc37c3c1dcb8c7e49b4cfc3c375efd56db148affd401 OP_PUSHBYTES_33 0287b8de796b2b2f45cfb18eb4930d0c880e83b71bcf90e2105bbe76c394d1edf4 OP_PUSHNUM_3 OP_CHECKMULTISIG"
    },
    {
      "txid": "a12e987e0d68b7696ef12121017ee7e5850ff8d8645791f55d5d13a650ebc180",
      "vout": 0,
      "prevout": {
        "scriptpubkey": "a91420ff027e6133967f1a4985a91e7e8be44fcb0dde87",
        "scriptpubkey_asm": "OP_HASH160 OP_PUSHBYTES_20 20ff027e6133967f1a4985a91e7e8be44fcb0dde OP_EQUAL",
        "scriptpubkey_type": "p2sh",
        "scriptpubkey_address": "34hV34zta7gUmjY8ggg9FubGRyJ3Sd6g6J",
        "value": 149808100
      },
      "scriptsig": "00473044022015f76f47d1934558b744b8b480fe7b487da68533f152b686a33ff1e3c57219d902205f1e2a1e5039df11246f976ae7c42babee5f0fcb06f3844c4c27ee56c752956201473044022074a2d94dc2c6fb8286032b7b594d91f84b8acea4e474f4f8fbb49786d042006b02207bbba110d923443e54b03dab724a24df6e20598e624735a02d0dc93b09cfac38014c69522103586982e43c0c4d9b31515bbd964e8c9253cb8e5e0433b4f84d3109772ae7ca7821034ffb2cf76a0b08ff2b0a2b8b63d5f9521dbb337fd37f012ae5fd3352856770cf2102bbc8996f560e4b054b74f8f516c05acc78f7fb1db5198e6b03da46d9e3c5603b53ae",
      "scriptsig_asm": "OP_0 OP_PUSHBYTES_71 3044022015f76f47d1934558b744b8b480fe7b487da68533f152b686a33ff1e3c57219d902205f1e2a1e5039df11246f976ae7c42babee5f0fcb06f3844c4c27ee56c752956201 OP_PUSHBYTES_71 3044022074a2d94dc2c6fb8286032b7b594d91f84b8acea4e474f4f8fbb49786d042006b02207bbba110d923443e54b03dab724a24df6e20598e624735a02d0dc93b09cfac3801 OP_PUSHDATA1 522103586982e43c0c4d9b31515bbd964e8c9253cb8e5e0433b4f84d3109772ae7ca7821034ffb2cf76a0b08ff2b0a2b8b63d5f9521dbb337fd37f012ae5fd3352856770cf2102bbc8996f560e4b054b74f8f516c05acc78f7fb1db5198e6b03da46d9e3c5603b53ae",
      "is_coinbase": false,
      "sequence": 4294967295,
      "inner_redeemscript_asm": "OP_PUSHNUM_2 OP_PUSHBYTES_33 03586982e43c0c4d9b31515bbd964e8c9253cb8e5e0433b4f84d3109772ae7ca78 OP_PUSHBYTES_33 034ffb2cf76a0b08ff2b0a2b8b63d5f9521dbb337fd37f012ae5fd3352856770cf OP_PUSHBYTES_33 02bbc8996f560e4b054b74f8f516c05acc78f7fb1db5198e6b03da46d9e3c5603b OP_PUSHNUM_3 OP_CHECKMULTISIG"
    },
    {
      "txid": "d38e96a5c68cde395a93b0b6fc69122f0e8fc1b7306bf6d0a931c3b736c878b4",
      "vout": 0,
      "prevout": {
        "scriptpubkey": "a914572e5edaa3751b37712618e09e9856bdcf5b7be087",
        "scriptpubkey_asm": "OP_HASH160 OP_PUSHBYTES_20 572e5edaa3751b37712618e09e9856bdcf5b7be0 OP_EQUAL",
        "scriptpubkey_type": "p2sh",
        "scriptpubkey_address": "39dzG7XxXX7ghTn7PiVjKLhxcmimVpCKoL",
        "value": 234106382
      },
      "scriptsig": "00483045022100a16c61f514233681e0bd540af372f1f0e4a5820ddaf54bd74cca6f90f04e9ad1022049ea4b0c95cda951bb8a39274fcf400599aa808e27ed7dca413b1b93db9cf2cc0147304402203bcbab5974df74349f42ad086ac7715592e2803410add9eb805c62cb27c368de022016ba90585948bcd1eb407ace59531163a5197a876640e8fbda52c0d0411e0af6014c695221031a810f26e2b36d249bb96e8e22f434871175a7275b0c6db2a1c63a288c4049d1210240de2bf5c1b68f598cad2599aeca7029bedea778861e801dd0515d83b292d3df21022aea1002972bad4ab0c75a24ecb3f00f7eb3cab1007eb1d7165351aeede11e9b53ae",
      "scriptsig_asm": "OP_0 OP_PUSHBYTES_72 3045022100a16c61f514233681e0bd540af372f1f0e4a5820ddaf54bd74cca6f90f04e9ad1022049ea4b0c95cda951bb8a39274fcf400599aa808e27ed7dca413b1b93db9cf2cc01 OP_PUSHBYTES_71 304402203bcbab5974df74349f42ad086ac7715592e2803410add9eb805c62cb27c368de022016ba90585948bcd1eb407ace59531163a5197a876640e8fbda52c0d0411e0af601 OP_PUSHDATA1 5221031a810f26e2b36d249bb96e8e22f434871175a7275b0c6db2a1c63a288c4049d1210240de2bf5c1b68f598cad2599aeca7029bedea778861e801dd0515d83b292d3df21022aea1002972bad4ab0c75a24ecb3f00f7eb3cab1007eb1d7165351aeede11e9b53ae",
      "is_coinbase": false,
      "sequence": 4294967295,
      "inner_redeemscript_asm": "OP_PUSHNUM_2 OP_PUSHBYTES_33 031a810f26e2b36d249bb96e8e22f434871175a7275b0c6db2a1c63a288c4049d1 OP_PUSHBYTES_33 0240de2bf5c1b68f598cad2599aeca7029bedea778861e801dd0515d83b292d3df OP_PUSHBYTES_33 022aea1002972bad4ab0c75a24ecb3f00f7eb3cab1007eb1d7165351aeede11e9b OP_PUSHNUM_3 OP_CHECKMULTISIG"
    },
    {
      "txid": "c5721015f124a143bdb2f5af411c0af570ff97754b965e671a717844ad444944",
      "vout": 1,
      "prevout": {
        "scriptpubkey": "a914f38cac1f4a551ac5e842c1c0cdd0889e388dfb8987",
        "scriptpubkey_asm": "OP_HASH160 OP_PUSHBYTES_20 f38cac1f4a551ac5e842c1c0cdd0889e388dfb89 OP_EQUAL",
        "scriptpubkey_type": "p2sh",
        "scriptpubkey_address": "3PtneFAFTRu3mB4sXtsvJh7ide9zSyHmLi",
        "value": 400000000
      },
      "scriptsig": "00483045022100f1a5a678fbd189e5d44c424080314ea4bb616d08ba54498e31881c2ca507119102207054e31b0f8d0067458ac590378c44e0a9007df24347f965206d9facec23008c0147304402201d87ca60ee90e9b8afdb3dda721229b1e85495aef3d7f19c23851ba2a551b9930220360e9de8b19c3b83bf8732bbb377bbdc37eddc831a67648d53141bc3d54113ea014c69522103b3c6fc6db162c045b9218765f91f43af4ffdfbdb9d8f9bdb94081be362b07e842102192cc41066e52fa7e0ac32a6cfbc015f2ea55e50cfae92a56e5f76344d04f4e42103fc37f6289923f49e5a3a9789b035b2dead4006647ec462b3b8d8d1bfaca9887c53ae",
      "scriptsig_asm": "OP_0 OP_PUSHBYTES_72 3045022100f1a5a678fbd189e5d44c424080314ea4bb616d08ba54498e31881c2ca507119102207054e31b0f8d0067458ac590378c44e0a9007df24347f965206d9facec23008c01 OP_PUSHBYTES_71 304402201d87ca60ee90e9b8afdb3dda721229b1e85495aef3d7f19c23851ba2a551b9930220360e9de8b19c3b83bf8732bbb377bbdc37eddc831a67648d53141bc3d54113ea01 OP_PUSHDATA1 522103b3c6fc6db162c045b9218765f91f43af4ffdfbdb9d8f9bdb94081be362b07e842102192cc41066e52fa7e0ac32a6cfbc015f2ea55e50cfae92a56e5f76344d04f4e42103fc37f6289923f49e5a3a9789b035b2dead4006647ec462b3b8d8d1bfaca9887c53ae",
      "is_coinbase": false,
      "sequence": 4294967295,
      "inner_redeemscript_asm": "OP_PUSHNUM_2 OP_PUSHBYTES_33 03b3c6fc6db162c045b9218765f91f43af4ffdfbdb9d8f9bdb94081be362b07e84 OP_PUSHBYTES_33 02192cc41066e52fa7e0ac32a6cfbc015f2ea55e50cfae92a56e5f76344d04f4e4 OP_PUSHBYTES_33 03fc37f6289923f49e5a3a9789b035b2dead4006647ec462b3b8d8d1bfaca9887c OP_PUSHNUM_3 OP_CHECKMULTISIG"
    },
    {
      "txid": "e5da11b17f018646ba7a680e9b64ad03f28f89e38969801b260e92ab0b15a410",
      "vout": 0,
      "prevout": {
        "scriptpubkey": "a914f38cac1f4a551ac5e842c1c0cdd0889e388dfb8987",
        "scriptpubkey_asm": "OP_HASH160 OP_PUSHBYTES_20 f38cac1f4a551ac5e842c1c0cdd0889e388dfb89 OP_EQUAL",
        "scriptpubkey_type": "p2sh",
        "scriptpubkey_address": "3PtneFAFTRu3mB4sXtsvJh7ide9zSyHmLi",
        "value": 484056783
      },
      "scriptsig": "0047304402206bc2ad0e6fc1acb02267299589a8a7dd8c6baf4a11e708b14d01fd33667cd061022043778efbb79d6b5523553ba7bbc847172bed4e25bbb7c26d70513e0cfbc76f740147304402207831e39a6d061fcf574930724a15d9fb60fec584305162c84719b68f67740ff902207db2978100c58e924eddb13c8855e35d48a82ea590aa073217bfc17deb9a8060014c69522103b3c6fc6db162c045b9218765f91f43af4ffdfbdb9d8f9bdb94081be362b07e842102192cc41066e52fa7e0ac32a6cfbc015f2ea55e50cfae92a56e5f76344d04f4e42103fc37f6289923f49e5a3a9789b035b2dead4006647ec462b3b8d8d1bfaca9887c53ae",
      "scriptsig_asm": "OP_0 OP_PUSHBYTES_71 304402206bc2ad0e6fc1acb02267299589a8a7dd8c6baf4a11e708b14d01fd33667cd061022043778efbb79d6b5523553ba7bbc847172bed4e25bbb7c26d70513e0cfbc76f7401 OP_PUSHBYTES_71 304402207831e39a6d061fcf574930724a15d9fb60fec584305162c84719b68f67740ff902207db2978100c58e924eddb13c8855e35d48a82ea590aa073217bfc17deb9a806001 OP_PUSHDATA1 522103b3c6fc6db162c045b9218765f91f43af4ffdfbdb9d8f9bdb94081be362b07e842102192cc41066e52fa7e0ac32a6cfbc015f2ea55e50cfae92a56e5f76344d04f4e42103fc37f6289923f49e5a3a9789b035b2dead4006647ec462b3b8d8d1bfaca9887c53ae",
      "is_coinbase": false,
      "sequence": 4294967295,
      "inner_redeemscript_asm": "OP_PUSHNUM_2 OP_PUSHBYTES_33 03b3c6fc6db162c045b9218765f91f43af4ffdfbdb9d8f9bdb94081be362b07e84 OP_PUSHBYTES_33 02192cc41066e52fa7e0ac32a6cfbc015f2ea55e50cfae92a56e5f76344d04f4e4 OP_PUSHBYTES_33 03fc37f6289923f49e5a3a9789b035b2dead4006647ec462b3b8d8d1bfaca9887c OP_PUSHNUM_3 OP_CHECKMULTISIG"
    }
  ],
  "vout": [
    {
      "scriptpubkey": "a914a48b8788e9dad1d9fa97858a4eec895603ed40b987",
      "scriptpubkey_asm": "OP_HASH160 OP_PUSHBYTES_20 a48b8788e9dad1d9fa97858a4eec895603ed40b9 OP_EQUAL",
      "scriptpubkey_type": "p2sh",
      "scriptpubkey_address": "3Gh3tgL4u8DXGAzyNVikyhPvp3MwZXXUgx",
      "value": 2290000
    },
    {
      "scriptpubkey": "76a9146b7eff04a3eb846b5b6a2009e10a083aa46e3b8388ac",
      "scriptpubkey_asm": "OP_DUP OP_HASH160 OP_PUSHBYTES_20 6b7eff04a3eb846b5b6a2009e10a083aa46e3b83 OP_EQUALVERIFY OP_CHECKSIG",
      "scriptpubkey_type": "p2pkh",
      "scriptpubkey_address": "1AoPSNhLj5zGoaVahwY2pmgZqV7PnuSjMk",
      "value": 1148353
    },
    {
      "scriptpubkey": "001443b6317fbc170256f21d163c2b4d5e00850c46ad",
      "scriptpubkey_asm": "OP_0 OP_PUSHBYTES_20 43b6317fbc170256f21d163c2b4d5e00850c46ad",
      "scriptpubkey_type": "v0_p2wpkh",
      "scriptpubkey_address": "bc1qgwmrzlauzup9dusazc7zkn27qzzsc34d2khgl5",
      "value": 140945
    },
    {
      "scriptpubkey": "a9148ad52b286dd85e1756dc8bedb1f62ae56e25099287",
      "scriptpubkey_asm": "OP_HASH160 OP_PUSHBYTES_20 8ad52b286dd85e1756dc8bedb1f62ae56e250992 OP_EQUAL",
      "scriptpubkey_type": "p2sh",
      "scriptpubkey_address": "3EM6YEFkm9sxGdQqxzQd8pE9hpbC5XNnF8",
      "value": 108561
    },
    {
      "scriptpubkey": "a91461e398eb977b3d1d2003498b1703565f1420f96f87",
      "scriptpubkey_asm": "OP_HASH160 OP_PUSHBYTES_20 61e398eb977b3d1d2003498b1703565f1420f96f OP_EQUAL",
      "scriptpubkey_type": "p2sh",
      "scriptpubkey_address": "3Acc7th8qeoWNqjUfpur7PDoajbnQdrJNt",
      "value": 185456
    },
    {
      "scriptpubkey": "a914749dfe5ebf3f9a69d6d88ce3d267d64d7676538387",
      "scriptpubkey_asm": "OP_HASH160 OP_PUSHBYTES_20 749dfe5ebf3f9a69d6d88ce3d267d64d76765383 OP_EQUAL",
      "scriptpubkey_type": "p2sh",
      "scriptpubkey_address": "3CKdaPMKst1vweoeyfJ4pw89vywGWWaEBU",
      "value": 3537412
    },
    {
      "scriptpubkey": "76a9141e540a3cec6fef45c15f6b28908991e1a05f4bf288ac",
      "scriptpubkey_asm": "OP_DUP OP_HASH160 OP_PUSHBYTES_20 1e540a3cec6fef45c15f6b28908991e1a05f4bf2 OP_EQUALVERIFY OP_CHECKSIG",
      "scriptpubkey_type": "p2pkh",
      "scriptpubkey_address": "13mMwxSm2q1GoQ52eghbSwTzjeJ6Srnj5V",
      "value": 2000000
    },
    {
      "scriptpubkey": "a91480f4ea00aa32bdb9cb0b1ccfe103d196d309524087",
      "scriptpubkey_asm": "OP_HASH160 OP_PUSHBYTES_20 80f4ea00aa32bdb9cb0b1ccfe103d196d3095240 OP_EQUAL",
      "scriptpubkey_type": "p2sh",
      "scriptpubkey_address": "3DSsp2UCD5G1A65WSfFnWBdA533345vH5X",
      "value": 314520
    },
    {
      "scriptpubkey": "0014c8165331294f7b4611399acdb171b46ead63280e",
      "scriptpubkey_asm": "OP_0 OP_PUSHBYTES_20 c8165331294f7b4611399acdb171b46ead63280e",
      "scriptpubkey_type": "v0_p2wpkh",
      "scriptpubkey_address": "bc1qeqt9xvfffaa5vyfentxmzud5d6kkx2qwpy49we",
      "value": 2038805
    },
    {
      "scriptpubkey": "512013b767cf806f61704253a66a90470173be1162bf068db24bd78cde91adfa3d6a",
      "scriptpubkey_asm": "OP_PUSHNUM_1 OP_PUSHBYTES_32 13b767cf806f61704253a66a90470173be1162bf068db24bd78cde91adfa3d6a",
      "scriptpubkey_type": "v1_p2tr",
      "scriptpubkey_address": "bc1pzwmk0nuqdashqsjn5e4fq3cpwwlpzc4lq6xmyj7h3n0frt06844q03xpa3",
      "value": 13620086
    },
    {
      "scriptpubkey": "00141ca007941944b703f568c1f26154ce4ecc1cb3d0",
      "scriptpubkey_asm": "OP_0 OP_PUSHBYTES_20 1ca007941944b703f568c1f26154ce4ecc1cb3d0",
      "scriptpubkey_type": "v0_p2wpkh",
      "scriptpubkey_address": "bc1qrjsq09qegjms8atgc8exz4xwfmxpev7sl9v4j4",
      "value": 108639
    },
    {
      "scriptpubkey": "a91446cfff68cae521c90513c340d67eb858dbcf008387",
      "scriptpubkey_asm": "OP_HASH160 OP_PUSHBYTES_20 46cfff68cae521c90513c340d67eb858dbcf0083 OP_EQUAL",
      "scriptpubkey_type": "p2sh",
      "scriptpubkey_address": "389SPuSTQkGky3bZQM9GKDjYEA9yUkNsce",
      "value": 150276000
    },
    {
      "scriptpubkey": "76a914f8a0ede05f842111d2322a712acd79ad4e7ee36588ac",
      "scriptpubkey_asm": "OP_DUP OP_HASH160 OP_PUSHBYTES_20 f8a0ede05f842111d2322a712acd79ad4e7ee365 OP_EQUALVERIFY OP_CHECKSIG",
      "scriptpubkey_type": "p2pkh",
      "scriptpubkey_address": "1PfdN8c7VdgzvwD2sSVte6werG9F5mbvqf",
      "value": 50000000
    },
    {
      "scriptpubkey": "a914b6b635967dc323ddf07e5abaa6d1cdebbff5c58c87",
      "scriptpubkey_asm": "OP_HASH160 OP_PUSHBYTES_20 b6b635967dc323ddf07e5abaa6d1cdebbff5c58c OP_EQUAL",
      "scriptpubkey_type": "p2sh",
      "scriptpubkey_address": "3JM7BamBcn5kMtdEHWR2WxEQo7MmA6tQDd",
      "value": 100000
    },
    {
      "scriptpubkey": "76a9141951917aeccdccfc0b087d7a2d207461cb81833088ac",
      "scriptpubkey_asm": "OP_DUP OP_HASH160 OP_PUSHBYTES_20 1951917aeccdccfc0b087d7a2d207461cb818330 OP_EQUALVERIFY OP_CHECKSIG",
      "scriptpubkey_type": "p2pkh",
      "scriptpubkey_address": "13JscG3SfkkKVSjsXs3Hsv5H48BoJmN3Qs",
      "value": 119514
    },
    {
      "scriptpubkey": "0020e5c7c00d174631d2d1e365d6347b016fb87b6a0c08902d8e443989cb771fa7ec",
      "scriptpubkey_asm": "OP_0 OP_PUSHBYTES_32 e5c7c00d174631d2d1e365d6347b016fb87b6a0c08902d8e443989cb771fa7ec",
      "scriptpubkey_type": "v0_p2wsh",
      "scriptpubkey_address": "bc1quhruqrghgcca950rvhtrg7cpd7u8k6svpzgzmrjy8xyukacl5lkq0r8l2d",
      "value": 1582485006
    }
  ],
  "size": 2921,
  "weight": 10895,
  "fee": 75000,
  "status": {
    "confirmed": true,
    "block_height": 834638,
    "block_hash": "000000000000000000025f742c626208ac87e0b7d15054abb4a19ca2d735a54e",
    "block_time": 1710405325
  },
  "hex": "0100000000010816d6931574995811e16c3a5c81e75bcac87f7685e2db66ea65de3dcb61d9b9381400000000fffffffff4d9710fb2fa07b2d2f0258d0bbbb691cc3df1194383f0140b650b31e2a7911200000000fdfd0000483045022100d5ccae170e4e0451333453403403ea607ddf88db0404747e2192acfbcd8b00f9022049432845a71719371addb41a339cc9962c53d8004021384b69b72d0b1d0dcbc50147304402200f015b9810ac6544de14ba65a683924411bde78a40b4d9784db7b07ac7d5b89102200fd4a4638b70b57f4a0ee38fc650b97f07a04da6d93972b86f4b0d9b776c1dbb014c69522102e82116aa3ab81ffb96f743965fe07494e10b3e2f742fbcbf309d9ea0e3a4ecde21020ec3274658e799430c1e16cd4a4028e794967ad6bf64349a3d263c1b5bf255c021033f4b8a389a4949a790754b261c986164161d62ca69e6a42b25b54c983358e70553aeffffffff659e1bc98714c37ed0122f463c199be57c3f18ebbeba455cacb11c2095797c360a000000fdfe0000483045022100ca90931d31aea40b8f555af35d72091792b87e1ccd8673c5a8a884c7482d348f0220156236a844e326538c0d51344a194e75868df958ae050f37ca57627cd447a8e601483045022100b3a946535f646564d2041d89b036d02bdfdcf33d2e959b753eeb664ede79b50402200c9895da6fcadcc0b9e794f6763f78851cd6fbc41ae362a8122432cf0c4946c9014c69522103e1a75621e50c2e7f13ed5b422ffd61e75c1abec316e99127672642cde5854b9521031b857dcc7ee1ede1ce1e55628d75f9ef8c17bc05a79789c9e7d85741055d6bc82102c9841d721d47044d2b36f976e99beb6efc622412a17cf69fcf66738701b83bcc53aeffffffff5ccfd51dd67e947dd65101419becbdf02e4558378af3d4d6ebccaf87289e6af400000000fdfe0000483045022100d536fd5d256a0f50debac536f554bc469b4106b1c743ad841ed0d6f11461b89a02200507a0482f88eae218b314f61b564d07f0db89efa3ca60e73ccbf7892cfb310e014830450221008c99a7ed9755ec270c700dfa7d48d45d0a916e95d40cc473db05070242bd9380022076d277f04f996e0aa6371402e6cbd434cf9daef031e5a97cd3595a956031a95e014c69522102f872085d71ad02072adc30a5025fd3acea57c8d8f71bf010a4681a8897966c7621020d62af7456d0a63c5b12bc37c3c1dcb8c7e49b4cfc3c375efd56db148affd401210287b8de796b2b2f45cfb18eb4930d0c880e83b71bcf90e2105bbe76c394d1edf453aeffffffff80c1eb50a6135d5df5915764d8f80f85e5e77e012121f16e69b7680d7e982ea100000000fc00473044022015f76f47d1934558b744b8b480fe7b487da68533f152b686a33ff1e3c57219d902205f1e2a1e5039df11246f976ae7c42babee5f0fcb06f3844c4c27ee56c752956201473044022074a2d94dc2c6fb8286032b7b594d91f84b8acea4e474f4f8fbb49786d042006b02207bbba110d923443e54b03dab724a24df6e20598e624735a02d0dc93b09cfac38014c69522103586982e43c0c4d9b31515bbd964e8c9253cb8e5e0433b4f84d3109772ae7ca7821034ffb2cf76a0b08ff2b0a2b8b63d5f9521dbb337fd37f012ae5fd3352856770cf2102bbc8996f560e4b054b74f8f516c05acc78f7fb1db5198e6b03da46d9e3c5603b53aeffffffffb478c836b7c331a9d0f66b30b7c18f0e2f1269fcb6b0935a39de8cc6a5968ed300000000fdfd0000483045022100a16c61f514233681e0bd540af372f1f0e4a5820ddaf54bd74cca6f90f04e9ad1022049ea4b0c95cda951bb8a39274fcf400599aa808e27ed7dca413b1b93db9cf2cc0147304402203bcbab5974df74349f42ad086ac7715592e2803410add9eb805c62cb27c368de022016ba90585948bcd1eb407ace59531163a5197a876640e8fbda52c0d0411e0af6014c695221031a810f26e2b36d249bb96e8e22f434871175a7275b0c6db2a1c63a288c4049d1210240de2bf5c1b68f598cad2599aeca7029bedea778861e801dd0515d83b292d3df21022aea1002972bad4ab0c75a24ecb3f00f7eb3cab1007eb1d7165351aeede11e9b53aeffffffff444944ad4478711a675e964b7597ff70f50a1c41aff5b2bd43a124f1151072c501000000fdfd0000483045022100f1a5a678fbd189e5d44c424080314ea4bb616d08ba54498e31881c2ca507119102207054e31b0f8d0067458ac590378c44e0a9007df24347f965206d9facec23008c0147304402201d87ca60ee90e9b8afdb3dda721229b1e85495aef3d7f19c23851ba2a551b9930220360e9de8b19c3b83bf8732bbb377bbdc37eddc831a67648d53141bc3d54113ea014c69522103b3c6fc6db162c045b9218765f91f43af4ffdfbdb9d8f9bdb94081be362b07e842102192cc41066e52fa7e0ac32a6cfbc015f2ea55e50cfae92a56e5f76344d04f4e42103fc37f6289923f49e5a3a9789b035b2dead4006647ec462b3b8d8d1bfaca9887c53aeffffffff10a4150bab920e261b806989e3898ff203ad649b0e687aba4686017fb111dae500000000fc0047304402206bc2ad0e6fc1acb02267299589a8a7dd8c6baf4a11e708b14d01fd33667cd061022043778efbb79d6b5523553ba7bbc847172bed4e25bbb7c26d70513e0cfbc76f740147304402207831e39a6d061fcf574930724a15d9fb60fec584305162c84719b68f67740ff902207db2978100c58e924eddb13c8855e35d48a82ea590aa073217bfc17deb9a8060014c69522103b3c6fc6db162c045b9218765f91f43af4ffdfbdb9d8f9bdb94081be362b07e842102192cc41066e52fa7e0ac32a6cfbc015f2ea55e50cfae92a56e5f76344d04f4e42103fc37f6289923f49e5a3a9789b035b2dead4006647ec462b3b8d8d1bfaca9887c53aeffffffff1050f122000000000017a914a48b8788e9dad1d9fa97858a4eec895603ed40b987c1851100000000001976a9146b7eff04a3eb846b5b6a2009e10a083aa46e3b8388ac912602000000000016001443b6317fbc170256f21d163c2b4d5e00850c46ad11a801000000000017a9148ad52b286dd85e1756dc8bedb1f62ae56e2509928770d402000000000017a91461e398eb977b3d1d2003498b1703565f1420f96f8704fa35000000000017a914749dfe5ebf3f9a69d6d88ce3d267d64d767653838780841e00000000001976a9141e540a3cec6fef45c15f6b28908991e1a05f4bf288ac98cc04000000000017a91480f4ea00aa32bdb9cb0b1ccfe103d196d309524087151c1f0000000000160014c8165331294f7b4611399acdb171b46ead63280e76d3cf000000000022512013b767cf806f61704253a66a90470173be1162bf068db24bd78cde91adfa3d6a5fa80100000000001600141ca007941944b703f568c1f26154ce4ecc1cb3d0a007f5080000000017a91446cfff68cae521c90513c340d67eb858dbcf00838780f0fa02000000001976a914f8a0ede05f842111d2322a712acd79ad4e7ee36588aca08601000000000017a914b6b635967dc323ddf07e5abaa6d1cdebbff5c58c87dad20100000000001976a9141951917aeccdccfc0b087d7a2d207461cb81833088ac0ece525e00000000220020e5c7c00d174631d2d1e365d6347b016fb87b6a0c08902d8e443989cb771fa7ec0400483045022100a584bfe822249b8c81aeefc399ad7345294aa99d89475c80b00ad3fa81611f54022037231f7c07841d934a4db81e7eac847ccf25c3df72af51726994f8c5bda4dcb801483045022100d71730de7c79759cb1095b9a57434e7eed8cfe4c2083285380650640997f039c0220684a523e9ba48e64f9dd56f71fe74cd9ba972f76c7224abddc5fe6c69e9200d101695221026064e5b88c4fff7dba7dc0300db8dbfc1faff14f9ddbaacbcaa4f70124de0e93210331870350912385ca9a9d537e9cf9d80c6c9558e31d654f82f3164fdc5955e9642103c7b133a0f463a501d8c58c8eb8c7b6e9e4ddfb7d4a7bf6365a4732201569bc8353ae0000000000000000000000"
}