{
  "txid": "709948ccee295a472105e289dc342bb69862941bc983d78918a8a426fda65d14",
  "version": 1,
  "locktime": 0,
  "vin": [
    {
      "txid": "e00cbf000271fc4caf72dcf825c4be5546d1aa4de1178b69c7f927fccf4e8250",
      "vout": 1,
      "prevout": {
        "scriptpubkey": "76a9149c4840e964f5f68efed66bac1d6f9a788f81cb4a88ac",
        "scriptpubkey_asm": "OP_DUP OP_HASH160 OP_PUSHBYTES_20 9c4840e964f5f68efed66bac1d6f9a788f81cb4a OP_EQUALVERIFY OP_CHECKSIG",
        "scriptpubkey_type": "p2pkh",
        "scriptpubkey_address": "1FFLyC5WmvYdhThvgEbTq9UGdNuCHcMpHp",
        "value": 5888936
      },
      "scriptsig": "483045022100803d01cca045f355da128f1b9bf31229e9edad618611b845e838c5069a31578a02205cbe1b28d651f6aab2d9bf2e6fd110502aba01c8b6620defb677478eb2fc9d36012103c078438af0f117970e9eb7359493e63f28c0af8edf6caf45ed8b04339a0d88f3",
      "scriptsig_asm": "OP_PUSHBYTES_72 3045022100803d01cca045f355da128f1b9bf31229e9edad618611b845e838c5069a31578a02205cbe1b28d651f6aab2d9bf2e6fd110502aba01c8b6620defb677478eb2fc9d3601 OP_PUSHBYTES_33 03c078438af0f117970e9eb7359493e63f28c0af8edf6caf45ed8b04339a0d88f3",
      "is_coinbase": false,
      "sequence": 4294967295
    }
  ],
  "vout": [
    {
      "scriptpubkey": "76a914c6c53c46300acae4e4613a26630b42316648e5ad88ac",
      "scriptpubkey_asm": "OP_DUP OP_HASH160 OP_PUSHBYTES_20 c6c53c46300acae4e4613a26630b42316648e5ad OP_EQUALVERIFY OP_CHECKSIG",
      "scriptpubkey_type": "p2pkh",
      "scriptpubkey_address": "1K8159CsVaG58GoysaguYuowshjhzEuhRG",
      "value": 5885480
    }
  ],
  "size": 192,
  "weight": 768,
  "fee": 3456,
  "status": {
    "confirmed": true,
    "block_height": 834638,
    "block_hash": "000000000000000000025f742c626208ac87e0b7d15054abb4a19ca2d735a54e",
    "block_time": 1710405325
  },
  "hex": "010000000150824ecffc27f9c7698b17e14daad14655bec425f8dc72af4cfc710200bf0ce0010000006b483045022100803d01cca045f355da128f1b9bf31229e9edad618611b845e838c5069a31578a02205cbe1b28d651f6aab2d9bf2e6fd110502aba01c8b6620defb677478eb2fc9d36012103c078438af0f117970e9eb7359493e63f28c0af8edf6caf45ed8b04339a0d88f3ffffffff0128ce5900000000001976a914c6c53c46300acae4e4613a26630b42316648e5ad88ac00000000"
}