{
  "txid": "70a6e9ff6774eab796046213deaa9c54cf81773533a613bd3bcff0fdb4ed2d4b",
  "version": 2,
  "locktime": 0,
  "vin": [
    {
      "txid": "c10a00c78a678ee38cf9a38060533d7a732ce4f31565f1b211800e7e58aa0f76",
      "vout": 0,
      "prevout": {
        "scriptpubkey": "5120f63b76c95dd52d52f40d9a21c88ee07cbf16114c9b0bf6a607c872454a9d47f3",
        "scriptpubkey_asm": "OP_PUSHNUM_1 OP_PUSHBYTES_32 f63b76c95dd52d52f40d9a21c88ee07cbf16114c9b0bf6a607c872454a9d47f3",
        "scriptpubkey_type": "v1_p2tr",
        "scriptpubkey_address": "bc1p7cahdj2a65k49aqdngsu3rhq0jl3vy2vnv9ldfs8epey2j5agles6x8kk2",
        "value": 2548
      },
      "scriptsig": "",
      "scriptsig_asm": "",
      "witness": [
        "02f3b02f65dd33171ad40485594697b10c4d9c62a870ee6c52ce68728379ac14d83be11d89d76153e09264b7d2ae5c42ce129e62bf00f5f9addfba962cf6e350",
        "202e4126d3910164d9decc8fc40dbea4cc8ac3bf1632c81d40fc81b0a6fc425cfdac0063036f7264010118746578742f706c61696e3b636861727365743d7574662d3800417b2270223a226272632d3230222c226f70223a227472616e73666572222c227469636b223a22f09d9b91222c22616d74223a22323030303030303030303030227d68",
        "c02e4126d3910164d9decc8fc40dbea4cc8ac3bf1632c81d40fc81b0a6fc425cfd"
      ],
      "is_coinbase": false,
      "sequence": 4294967293
    }
  ],
  "vout": [
    {
      "scriptpubkey": "512094fa28296ff1e514f75fb73b0b0380606d56145b94aad602931e4e6e986ff4b0",
      "scriptpubkey_asm": "OP_PUSHNUM_1 OP_PUSHBYTES_32 94fa28296ff1e514f75fb73b0b0380606d56145b94aad602931e4e6e986ff4b0",
      "scriptpubkey_type": "v1_p2tr",
      "scriptpubkey_address": "bc1pjnazs2t078j3fa6lkuaskquqvpk4v9zmjj4dvq5nre8xaxr07jcqkd999q",
      "value": 546
    }
  ],
  "size": 332,
  "weight": 614,
  "fee": 2002,
  "status": {
    "confirmed": true,
    "block_height": 834460,
    "block_hash": "00000000000000000000484a79b643b2524bbce82e5d8a442013fa5b8905ed98",
    "block_time": 1710307468
  },
  "hex": "02000000000101760faa587e0e8011b2f16515f3e42c737a3d536080a3f98ce38e678ac7000ac10000000000fdffffff01220200000000000022512094fa28296ff1e514f75fb73b0b0380606d56145b94aad602931e4e6e986ff4b0034002f3b02f65dd33171ad40485594697b10c4d9c62a870ee6c52ce68728379ac14d83be11d89d76153e09264b7d2ae5c42ce129e62bf00f5f9addfba962cf6e35087202e4126d3910164d9decc8fc40dbea4cc8ac3bf1632c81d40fc81b0a6fc425cfdac0063036f7264010118746578742f706c61696e3b636861727365743d7574662d3800417b2270223a226272632d3230222c226f70223a227472616e73666572222c227469636b223a22f09d9b91222c22616d74223a22323030303030303030303030227d6821c02e4126d3910164d9decc8fc40dbea4cc8ac3bf1632c81d40fc81b0a6fc425cfd00000000"
}