{
  "txid": "70ac8a1459a2c23b25dd2171186750c54db098b8d6d214f3a1cb9c91f7a4545f",
  "version": 1,
  "locktime": 0,
  "vin": [
    {
      "txid": "25462143118be2d35f53e14f1e4295ba98495b8cee3a9082948d2c61a4e81311",
      "vout": 2392,
      "prevout": {
        "scriptpubkey": "00148d8f5573240a5d2d6692065d344f7066ed88e0a4",
        "scriptpubkey_asm": "OP_0 OP_PUSHBYTES_20 8d8f5573240a5d2d6692065d344f7066ed88e0a4",
        "scriptpubkey_type": "v0_p2wpkh",
        "scriptpubkey_address": "bc1q3k842ueypfwj6e5jqewngnmsvmkc3c9yflwvwy",
        "value": 109914
      },
      "scriptsig": "",
      "scriptsig_asm": "",
      "witness": [
        "304402200c3d051db300304e3f045a3278c48b1764d146b818aee52070dca9e6b75c0f2d0220322fb98d87f3ca7263705b527c43dc54e4849ca1f6e7a19cfe52086c820be73a01",
        "0312d49d14507f8cd3628d2cd387cdac056154b8b8016a43d1d4061f22d1dd0ae7"
      ],
      "is_coinbase": false,
      "sequence": 4294967295
    },
    {
      "txid": "7cfa2afa9f3e7f4b22855e2fcba80bd84de0f4d2b673f9811b2c36701bef692d",
      "vout": 2383,
      "prevout": {
        "scriptpubkey": "00148d8f5573240a5d2d6692065d344f7066ed88e0a4",
        "scriptpubkey_asm": "OP_0 OP_PUSHBYTES_20 8d8f5573240a5d2d6692065d344f7066ed88e0a4",
        "scriptpubkey_type": "v0_p2wpkh",
        "scriptpubkey_address": "bc1q3k842ueypfwj6e5jqewngnmsvmkc3c9yflwvwy",
        "value": 110351
      },
      "scriptsig": "",
      "scriptsig_asm": "",
      "witness": [
        "3045022100ac6181e23aa383bdd913709651c1fa14b3c1989777286a4b31f3d2ca2c6588f20220536449df01e37486b2eb5fb1dbf305673fb0b196c1aa4fdd9c771c89df93c74a01",
        "0312d49d14507f8cd3628d2cd387cdac056154b8b8016a43d1d4061f22d1dd0ae7"
      ],
      "is_coinbase": false,
      "sequence": 4294967295
    },
    {
      "txid": "8f875b9e21655ad4abc2a93a530eb60d1496fe8aa807ed1a0f2d86578ddbaf7f",
      "vout": 2390,
      "prevout": {
        "scriptpubkey": "00148d8f5573240a5d2d6692065d344f7066ed88e0a4",
        "scriptpubkey_asm": "OP_0 OP_PUSHBYTES_20 8d8f5573240a5d2d6692065d344f7066ed88e0a4",
        "scriptpubkey_type": "v0_p2wpkh",
        "scriptpubkey_address": "bc1q3k842ueypfwj6e5jqewngnmsvmkc3c9yflwvwy",
        "value": 110636
      },
      "scriptsig": "",
      "scriptsig_asm": "",
      "witness": [
        "3044022040dbf6b6fe2619d777ddfa5180b3b152386d83a5ea9c9d1db7dfa38734a1e09d02200c017c8c487d6d3a312f528cd08861d002ed053d704fa774fc6dcb6b19374baa01",
        "0312d49d14507f8cd3628d2cd387cdac056154b8b8016a43d1d4061f22d1dd0ae7"
      ],
      "is_coinbase": false,
      "sequence": 4294967295
    },
    {
      "txid": "9670d14d83ca7ec9bb0c98cff9692622ffff45e74a5ac3f39928a64c5ad26585",
      "vout": 1939,
      "prevout": {
        "scriptpubkey": "00148d8f5573240a5d2d6692065d344f7066ed88e0a4",
        "scriptpubkey_asm": "OP_0 OP_PUSHBYTES_20 8d8f5573240a5d2d6692065d344f7066ed88e0a4",
        "scriptpubkey_type": "v0_p2wpkh",
        "scriptpubkey_address": "bc1q3k842ueypfwj6e5jqewngnmsvmkc3c9yflwvwy",
        "value": 111939
      },
      "scriptsig": "",
      "scriptsig_asm": "",
      "witness": [
        "3045022100a19677ade96d9818628a4fe20c1cd059e0de9ff86329004b35ee930633141f9202203036a9d0cd44a6e5c219a2e7fa7cb93f20febdead78d82d1f4017584b5f22dc201",
        "0312d49d14507f8cd3628d2cd387cdac056154b8b8016a43d1d4061f22d1dd0ae7"
      ],
      "is_coinbase": false,
      "sequence": 4294967295
    },
    {
      "txid": "45b55c490537939a45f52a6561e45350eb2e1d0698b2e24e08c905066879c386",
      "vout": 2379,
      "prevout": {
        "scriptpubkey": "00148d8f5573240a5d2d6692065d344f7066ed88e0a4",
        "scriptpubkey_asm": "OP_0 OP_PUSHBYTES_20 8d8f5573240a5d2d6692065d344f7066ed88e0a4",
        "scriptpubkey_type": "v0_p2wpkh",
        "scriptpubkey_address": "bc1q3k842ueypfwj6e5jqewngnmsvmkc3c9yflwvwy",
        "value": 111841
      },
      "scriptsig": "",
      "scriptsig_asm": "",
      "witness": [
        "3045022100bdbf70a178e8ddddd7f1948ac2975a22e2bc3c67ad27140d36ca979d7c95420b0220790e34d5cf825358c34d263c50f3179f3d4f3bf735f9c3becd6d4d0e20741a2001",
        "0312d49d14507f8cd3628d2cd387cdac056154b8b8016a43d1d4061f22d1dd0ae7"
      ],
      "is_coinbase": false,
      "sequence": 4294967295
    },
    {
      "txid": "379b50007df4c43c5bfaf26c755f30106181a832e59d69d33ad14e60ff7b557d",
      "vout": 2389,
      "prevout": {
        "scriptpubkey": "00148d8f5573240a5d2d6692065d344f7066ed88e0a4",
        "scriptpubkey_asm": "OP_0 OP_PUSHBYTES_20 8d8f5573240a5d2d6692065d344f7066ed88e0a4",
        "scriptpubkey_type": "v0_p2wpkh",
        "scriptpubkey_address": "bc1q3k842ueypfwj6e5jqewngnmsvmkc3c9yflwvwy",
        "value": 113700
      },
      "scriptsig": "",
      "scriptsig_asm": "",
      "witness": [
        "3045022100986d1892a363edb0fa77717b97391fe1af51370e06ca5ad15adaaf19fe23c8cd022042323e5bc93c046c279fb99a2b5fc5f58d437597928c7e5a1148bad976a4bb3c01",
        "0312d49d14507f8cd3628d2cd387cdac056154b8b8016a43d1d4061f22d1dd0ae7"
      ],
      "is_coinbase": false,
      "sequence": 4294967295
    },
    {
      "txid": "a1e788206462b82dc691a8050980ad2a15f67405de3283e94bdcccbba2599125",
      "vout": 2385,
      "prevout": {
        "scriptpubkey": "00148d8f5573240a5d2d6692065d344f7066ed88e0a4",
        "scriptpubkey_asm": "OP_0 OP_PUSHBYTES_20 8d8f5573240a5d2d6692065d344f7066ed88e0a4",
        "scriptpubkey_type": "v0_p2wpkh",
        "scriptpubkey_address": "bc1q3k842ueypfwj6e5jqewngnmsvmkc3c9yflwvwy",
        "value": 114652
      },
      "scriptsig": "",
      "scriptsig_asm": "",
      "witness": [
        "3045022100eb5e55bdb23445ebd767963b19047c6651ba3a563bb176d8e80265d473798df9022028506ce385e03a1eacd961a7958f7922a64ee50db4974bae9d4f032a228dfb7f01",
        "0312d49d14507f8cd3628d2cd387cdac056154b8b8016a43d1d4061f22d1dd0ae7"
      ],
      "is_coinbase": false,
      "sequence": 4294967295
    }
  ],
  "vout": [
    {
      "scriptpubkey": "76a9147b8768e0f9f3c7c2066e89068fd381aa7102229b88ac",
      "scriptpubkey_asm": "OP_DUP OP_HASH160 OP_PUSHBYTES_20 7b8768e0f9f3c7c2066e89068fd381aa7102229b OP_EQUALVERIFY OP_CHECKSIG",
      "scriptpubkey_type": "p2pkh",
      "scriptpubkey_address": "1CGAL2SbA6qpQVw3sc3DqcC6iLQEciifgk",
      "value": 768966
    }
  ],
  "size": 1087,
  "weight": 2080,
  "fee": 14067,
  "status": {
    "confirmed": true,
    "block_height": 834464,
    "block_hash": "0000000000000000000177a0869a911a2b65c9bdcd5a8bcb02b68f305bee848e",
    "block_time": 1710308296
  },
  "hex": "010000000001071113e8a4612c8d9482903aee8c5b4998ba95421e4fe1535fd3e28b11432146255809000000ffffffff2d69ef1b70362c1b81f973b6d2f4e04dd80ba8cb2f5e85224b7f3e9ffa2afa7c4f09000000ffffffff7fafdb8d57862d0f1aed07a88afe96140db60e533aa9c2abd45a65219e5b878f5609000000ffffffff8565d25a4ca62899f3c35a4ae745ffff222669f9cf980cbbc97eca834dd170969307000000ffffffff86c379680605c9084ee2b298061d2eeb5053e461652af5459a933705495cb5454b09000000ffffffff7d557bff604ed13ad3699de532a8816110305f756cf2fa5b3cc4f47d00509b375509000000ffffffff259159a2bbccdc4be98332de0574f6152aad800905a891c62db862642088e7a15109000000ffffffff01c6bb0b00000000001976a9147b8768e0f9f3c7c2066e89068fd381aa7102229b88ac0247304402200c3d051db300304e3f045a3278c48b1764d146b818aee52070dca9e6b75c0f2d0220322fb98d87f3ca7263705b527c43dc54e4849ca1f6e7a19cfe52086c820be73a01210312d49d14507f8cd3628d2cd387cdac056154b8b8016a43d1d4061f22d1dd0ae702483045022100ac6181e23aa383bdd913709651c1fa14b3c1989777286a4b31f3d2ca2c6588f20220536449df01e37486b2eb5fb1dbf305673fb0b196c1aa4fdd9c771c89df93c74a01210312d49d14507f8cd3628d2cd387cdac056154b8b8016a43d1d4061f22d1dd0ae702473044022040dbf6b6fe2619d777ddfa5180b3b152386d83a5ea9c9d1db7dfa38734a1e09d02200c017c8c487d6d3a312f528cd08861d002ed053d704fa774fc6dcb6b19374baa01210312d49d14507f8cd3628d2cd387cdac056154b8b8016a43d1d4061f22d1dd0ae702483045022100a19677ade96d9818628a4fe20c1cd059e0de9ff86329004b35ee930633141f9202203036a9d0cd44a6e5c219a2e7fa7cb93f20febdead78d82d1f4017584b5f22dc201210312d49d14507f8cd3628d2cd387cdac056154b8b8016a43d1d4061f22d1dd0ae702483045022100bdbf70a178e8ddddd7f1948ac2975a22e2bc3c67ad27140d36ca979d7c95420b0220790e34d5cf825358c34d263c50f3179f3d4f3bf735f9c3becd6d4d0e20741a2001210312d49d14507f8cd3628d2cd387cdac056154b8b8016a43d1d4061f22d1dd0ae702483045022100986d1892a363edb0fa77717b97391fe1af51370e06ca5ad15adaaf19fe23c8cd022042323e5bc93c046c279fb99a2b5fc5f58d437597928c7e5a1148bad976a4bb3c01210312d49d14507f8cd3628d2cd387cdac056154b8b8016a43d1d4061f22d1dd0ae702483045022100eb5e55bdb23445ebd767963b19047c6651ba3a563bb176d8e80265d473798df9022028506ce385e03a1eacd961a7958f7922a64ee50db4974bae9d4f032a228dfb7f01210312d49d14507f8cd3628d2cd387cdac056154b8b8016a43d1d4061f22d1dd0ae700000000"
}