{
  "txid": "70bae46b64c9e7a79ae27da721b58938b729475c5da25203a0f89861faca0326",
  "version": 2,
  "locktime": 0,
  "vin": [
    {
      "txid": "0eddf93f24b2d392cda3aed855586f759c118678ab0fdf1339c1a2f0871fef42",
      "vout": 1,
      "prevout": {
        "scriptpubkey": "5120cd3434958207f9f49b04c685594b5b119981e15e849a9c4bfc7f14923ea4b4e0",
        "scriptpubkey_asm": "OP_PUSHNUM_1 OP_PUSHBYTES_32 cd3434958207f9f49b04c685594b5b119981e15e849a9c4bfc7f14923ea4b4e0",
        "scriptpubkey_type": "v1_p2tr",
        "scriptpubkey_address": "bc1pe56rf9vzqlulfxcyc6z4jj6mzxvcrc27sjdfcjlu0u2fy04yknsqvqpm2l",
        "value": 2834
      },
      "scriptsig": "",
      "scriptsig_asm": "",
      "witness": [
        "852ac7bff98eb80e18df68349daaf2e0ae09aef2108854e064d4faa87ce9143ba94155787364a5ae7034ab9a76de7e1c554c9938cb51ddca2835aed48838bbb9",
        "202fea6e3a96dd1ad51c56ff8e0a25c47f60f009ea893728835e82ce716d683dc1ac0063036f726401011e6170706c69636174696f6e2f6a736f6e3b636861727365743d7574662d38004cbf7b2270223a22706f772d3230222c226f70223a226d696e74222c227469636b223a2250455045222c22616d74223a2231303030222c22736f6c7574696f6e223a22504550453a6263317172713238376168727578703271783033726774706379666a327261786e306175667a646a717a3a303030303030303030303030303030303030303139393431613561653132383937363539383134343239323533333030353762306461393666336465613163353a3434393631323332333738227d68",
        "c1f26df831a413724db8123fd1cb518d6560252685500a3c204e36c4bb2a2cc255"
      ],
      "is_coinbase": false,
      "sequence": 4294967295
    }
  ],
  "vout": [
    {
      "scriptpubkey": "001418147f76e3e182a019f11a161c113250fa69bfbc",
      "scriptpubkey_asm": "OP_0 OP_PUSHBYTES_20 18147f76e3e182a019f11a161c113250fa69bfbc",
      "scriptpubkey_type": "v0_p2wpkh",
      "scriptpubkey_address": "bc1qrq287ahruxp2qx03rgtpcyfj2raxn0aufzdjqz",
      "value": 546
    }
  ],
  "size": 455,
  "weight": 701,
  "fee": 2288,
  "status": {
    "confirmed": true,
    "block_height": 834460,
    "block_hash": "00000000000000000000484a79b643b2524bbce82e5d8a442013fa5b8905ed98",
    "block_time": 1710307468
  },
  "hex": "0200000000010142ef1f87f0a2c13913df0fab7886119c756f5855d8aea3cd92d3b2243ff9dd0e0100000000ffffffff01220200000000000016001418147f76e3e182a019f11a161c113250fa69bfbc0340852ac7bff98eb80e18df68349daaf2e0ae09aef2108854e064d4faa87ce9143ba94155787364a5ae7034ab9a76de7e1c554c9938cb51ddca2835aed48838bbb9fd0c01202fea6e3a96dd1ad51c56ff8e0a25c47f60f009ea893728835e82ce716d683dc1ac0063036f726401011e6170706c69636174696f6e2f6a736f6e3b636861727365743d7574662d38004cbf7b2270223a22706f772d3230222c226f70223a226d696e74222c227469636b223a2250455045222c22616d74223a2231303030222c22736f6c7574696f6e223a22504550453a6263317172713238376168727578703271783033726774706379666a327261786e306175667a646a717a3a303030303030303030303030303030303030303139393431613561653132383937363539383134343239323533333030353762306461393666336465613163353a3434393631323332333738227d6821c1f26df831a413724db8123fd1cb518d6560252685500a3c204e36c4bb2a2cc25500000000"
}