{
  "txid": "70bae10ed4dc6bb9d92a72fd075214d6766eb750fc87d327031390818d489084",
  "version": 2,
  "locktime": 0,
  "vin": [
    {
      "txid": "90da1a605f4aa97ccbc0cc4cd688f6cc306921c40980f81307d2fae8795558f7",
      "vout": 1,
      "prevout": {
        "scriptpubkey": "a91438d682211c0f9a69aa864614827ee1d4ac64812187",
        "scriptpubkey_asm": "OP_HASH160 OP_PUSHBYTES_20 38d682211c0f9a69aa864614827ee1d4ac648121 OP_EQUAL",
        "scriptpubkey_type": "p2sh",
        "scriptpubkey_address": "36sYjaukJKDbk85THLEz8fx8477YQfxjMS",
        "value": 1449439
      },
      "scriptsig": "1600141465d4242b8fd6569a3c2d49977567b2b54b1f8c",
      "scriptsig_asm": "OP_PUSHBYTES_22 00141465d4242b8fd6569a3c2d49977567b2b54b1f8c",
      "witness": [
        "30440220340501a6b7677e5fae1856fc96558baf40f9db31f2a88c102f48921bd100cb3402205486b6d2408da763f6d9aac5318a30f2659d3d8850eafd54759a21f967b96e8201",
        "0224bb5daf32bf4d9c0da0b64a3e757c25f5dac5e402fa78b7ee4a366f08a4db21"
      ],
      "is_coinbase": false,
      "sequence": 4294967295,
      "inner_redeemscript_asm": "OP_0 OP_PUSHBYTES_20 1465d4242b8fd6569a3c2d49977567b2b54b1f8c"
    }
  ],
  "vout": [
    {
      "scriptpubkey": "a91438d682211c0f9a69aa864614827ee1d4ac64812187",
      "scriptpubkey_asm": "OP_HASH160 OP_PUSHBYTES_20 38d682211c0f9a69aa864614827ee1d4ac648121 OP_EQUAL",
      "scriptpubkey_type": "p2sh",
      "scriptpubkey_address": "36sYjaukJKDbk85THLEz8fx8477YQfxjMS",
      "value": 600
    },
    {
      "scriptpubkey": "a91438d682211c0f9a69aa864614827ee1d4ac64812187",
      "scriptpubkey_asm": "OP_HASH160 OP_PUSHBYTES_20 38d682211c0f9a69aa864614827ee1d4ac648121 OP_EQUAL",
      "scriptpubkey_type": "p2sh",
      "scriptpubkey_address": "36sYjaukJKDbk85THLEz8fx8477YQfxjMS",
      "value": 600
    },
    {
      "scriptpubkey": "a91438d682211c0f9a69aa864614827ee1d4ac64812187",
      "scriptpubkey_asm": "OP_HASH160 OP_PUSHBYTES_20 38d682211c0f9a69aa864614827ee1d4ac648121 OP_EQUAL",
      "scriptpubkey_type": "p2sh",
      "scriptpubkey_address": "36sYjaukJKDbk85THLEz8fx8477YQfxjMS",
      "value": 600
    },
    {
      "scriptpubkey": "a91438d682211c0f9a69aa864614827ee1d4ac64812187",
      "scriptpubkey_asm": "OP_HASH160 OP_PUSHBYTES_20 38d682211c0f9a69aa864614827ee1d4ac648121 OP_EQUAL",
      "scriptpubkey_type": "p2sh",
      "scriptpubkey_address": "36sYjaukJKDbk85THLEz8fx8477YQfxjMS",
      "value": 600
    },
    {
      "scriptpubkey": "a91438d682211c0f9a69aa864614827ee1d4ac64812187",
      "scriptpubkey_asm": "OP_HASH160 OP_PUSHBYTES_20 38d682211c0f9a69aa864614827ee1d4ac648121 OP_EQUAL",
      "scriptpubkey_type": "p2sh",
      "scriptpubkey_address": "36sYjaukJKDbk85THLEz8fx8477YQfxjMS",
      "value": 600
    },
    {
      "scriptpubkey": "a91438d682211c0f9a69aa864614827ee1d4ac64812187",
      "scriptpubkey_asm": "OP_HASH160 OP_PUSHBYTES_20 38d682211c0f9a69aa864614827ee1d4ac648121 OP_EQUAL",
      "scriptpubkey_type": "p2sh",
      "scriptpubkey_address": "36sYjaukJKDbk85THLEz8fx8477YQfxjMS",
      "value": 600
    },
    {
      "scriptpubkey": "a91438d682211c0f9a69aa864614827ee1d4ac64812187",
      "scriptpubkey_asm": "OP_HASH160 OP_PUSHBYTES_20 38d682211c0f9a69aa864614827ee1d4ac648121 OP_EQUAL",
      "scriptpubkey_type": "p2sh",
      "scriptpubkey_address": "36sYjaukJKDbk85THLEz8fx8477YQfxjMS",
      "value": 600
    },
    {
      "scriptpubkey": "a91438d682211c0f9a69aa864614827ee1d4ac64812187",
      "scriptpubkey_asm": "OP_HASH160 OP_PUSHBYTES_20 38d682211c0f9a69aa864614827ee1d4ac648121 OP_EQUAL",
      "scriptpubkey_type": "p2sh",
      "scriptpubkey_address": "36sYjaukJKDbk85THLEz8fx8477YQfxjMS",
      "value": 600
    },
    {
      "scriptpubkey": "a91438d682211c0f9a69aa864614827ee1d4ac64812187",
      "scriptpubkey_asm": "OP_HASH160 OP_PUSHBYTES_20 38d682211c0f9a69aa864614827ee1d4ac648121 OP_EQUAL",
      "scriptpubkey_type": "p2sh",
      "scriptpubkey_address": "36sYjaukJKDbk85THLEz8fx8477YQfxjMS",
      "value": 600
    },
    {
      "scriptpubkey": "a91438d682211c0f9a69aa864614827ee1d4ac64812187",
      "scriptpubkey_asm": "OP_HASH160 OP_PUSHBYTES_20 38d682211c0f9a69aa864614827ee1d4ac648121 OP_EQUAL",
      "scriptpubkey_type": "p2sh",
      "scriptpubkey_address": "36sYjaukJKDbk85THLEz8fx8477YQfxjMS",
      "value": 600
    },
    {
      "scriptpubkey": "a91438d682211c0f9a69aa864614827ee1d4ac64812187",
      "scriptpubkey_asm": "OP_HASH160 OP_PUSHBYTES_20 38d682211c0f9a69aa864614827ee1d4ac648121 OP_EQUAL",
      "scriptpubkey_type": "p2sh",
      "scriptpubkey_address": "36sYjaukJKDbk85THLEz8fx8477YQfxjMS",
      "value": 1435721
    }
  ],
  "size": 535,
  "weight": 1813,
  "fee": 7718,
  "status": {
    "confirmed": true,
    "block_height": 834552,
    "block_hash": "00000000000000000001dd0468a70c94f619251d286585cff57aeb4bd9ede330",
    "block_time": 1710355598
  },
  "hex": "02000000000101f7585579e8fad20713f88009c4216930ccf688d64cccc0cb7ca94a5f601ada9001000000171600141465d4242b8fd6569a3c2d49977567b2b54b1f8cffffffff0b580200000000000017a91438d682211c0f9a69aa864614827ee1d4ac64812187580200000000000017a91438d682211c0f9a69aa864614827ee1d4ac64812187580200000000000017a91438d682211c0f9a69aa864614827ee1d4ac64812187580200000000000017a91438d682211c0f9a69aa864614827ee1d4ac64812187580200000000000017a91438d682211c0f9a69aa864614827ee1d4ac64812187580200000000000017a91438d682211c0f9a69aa864614827ee1d4ac64812187580200000000000017a91438d682211c0f9a69aa864614827ee1d4ac64812187580200000000000017a91438d682211c0f9a69aa864614827ee1d4ac64812187580200000000000017a91438d682211c0f9a69aa864614827ee1d4ac64812187580200000000000017a91438d682211c0f9a69aa864614827ee1d4ac6481218749e815000000000017a91438d682211c0f9a69aa864614827ee1d4ac64812187024730440220340501a6b7677e5fae1856fc96558baf40f9db31f2a88c102f48921bd100cb3402205486b6d2408da763f6d9aac5318a30f2659d3d8850eafd54759a21f967b96e8201210224bb5daf32bf4d9c0da0b64a3e757c25f5dac5e402fa78b7ee4a366f08a4db2100000000"
}