{
  "txid": "70e5d8c79a75430bc68c228f2345cfcd8e882871cf54c42243028066f9b415b0",
  "version": 2,
  "locktime": 0,
  "vin": [
    {
      "txid": "4ee77778659dcfe8d7a4e15882fc6193f4f3d5f6607624e256337b44c2280af5",
      "vout": 36,
      "prevout": {
        "scriptpubkey": "51204b278064310c871015470753aebfbdf645f420f4e97228ff3f6910864d483717",
        "scriptpubkey_asm": "OP_PUSHNUM_1 OP_PUSHBYTES_32 4b278064310c871015470753aebfbdf645f420f4e97228ff3f6910864d483717",
        "scriptpubkey_type": "v1_p2tr",
        "scriptpubkey_address": "bc1pfvncqep3pjr3q928qaf6a0aa7ezlgg85a9ez3leldyggvn2gxutsffauja",
        "value": 2075
      },
      "scriptsig": "",
      "scriptsig_asm": "",
      "witness": [
        "382e516840f05057c171576f202ffd37739c6af861cc176796b5a5737ae2cfb762a4ed8fabbe628ec553431ed436a68af9679675894f9eab6d58be485d928e20",
        "20350839705ad4cbf71e62ad9d1f7d628acf688aa990ca285941b868e3d9ad87b2ac0063036f7264010118746578742f706c61696e3b636861727365743d7574662d3800357b2270223a224252432d313030222c226f70223a226d696e74222c227469636b223a22696e73222c22616d74223a2231303030227d68",
        "c1c50eac15d7d7889f5ad84f80015e8a209129aeea937c37fa4b8bc0f9be289730"
      ],
      "is_coinbase": false,
      "sequence": 4294967295
    }
  ],
  "vout": [
    {
      "scriptpubkey": "00143e2325412b554cacdd163a93a42204c4707f8851",
      "scriptpubkey_asm": "OP_0 OP_PUSHBYTES_20 3e2325412b554cacdd163a93a42204c4707f8851",
      "scriptpubkey_type": "v0_p2wpkh",
      "scriptpubkey_address": "bc1q8c3j2sft24x2ehgk82f6ggsyc3c8lzz3yw9wsu",
      "value": 546
    }
  ],
  "size": 308,
  "weight": 554,
  "fee": 1529,
  "status": {
    "confirmed": true,
    "block_height": 834464,
    "block_hash": "0000000000000000000177a0869a911a2b65c9bdcd5a8bcb02b68f305bee848e",
    "block_time": 1710308296
  },
  "hex": "02000000000101f50a28c2447b3356e2247660f6d5f3f49361fc8258e1a4d7e8cf9d657877e74e2400000000ffffffff0122020000000000001600143e2325412b554cacdd163a93a42204c4707f88510340382e516840f05057c171576f202ffd37739c6af861cc176796b5a5737ae2cfb762a4ed8fabbe628ec553431ed436a68af9679675894f9eab6d58be485d928e207b20350839705ad4cbf71e62ad9d1f7d628acf688aa990ca285941b868e3d9ad87b2ac0063036f7264010118746578742f706c61696e3b636861727365743d7574662d3800357b2270223a224252432d313030222c226f70223a226d696e74222c227469636b223a22696e73222c22616d74223a2231303030227d6821c1c50eac15d7d7889f5ad84f80015e8a209129aeea937c37fa4b8bc0f9be28973000000000"
}