{
  "txid": "70f716da7a64617f58126090a3cbd619c851f059728b159b5a4bde0e0e93bcd8",
  "version": 1,
  "locktime": 0,
  "vin": [
    {
      "txid": "96c624aa59a2e9f6a53b1055afb077871ea92a3496b0afe1bf548c2e4f90c9f2",
      "vout": 1,
      "prevout": {
        "scriptpubkey": "00142f6091b0efed8ed46849415ae19aa7a1f3dc5c9e",
        "scriptpubkey_asm": "OP_0 OP_PUSHBYTES_20 2f6091b0efed8ed46849415ae19aa7a1f3dc5c9e",
        "scriptpubkey_type": "v0_p2wpkh",
        "scriptpubkey_address": "bc1q9asfrv80ak8dg6zfg9dwrx4858eachy7ufgllv",
        "value": 201492453
      },
      "scriptsig": "",
      "scriptsig_asm": "",
      "witness": [
        "3045022100fbab640f3e66eda3bd60b4bdc5ed33108556439d4a50d9717f5a33e35f7c2fa8022023c67f25f2f9ef4ca2b427d7e4951c95e990e1f8f3dd0ea4f41b562af5d93c0001",
        "03d8c34e772381350735bd25996f0e8080f2374f5fabd52b0ff1f8ed79da946830"
      ],
      "is_coinbase": false,
      "sequence": 4294967295
    }
  ],
  "vout": [
    {
      "scriptpubkey": "0014b17cfe4bb68b8f825c0f5990b9bb28bc10d809e0",
      "scriptpubkey_asm": "OP_0 OP_PUSHBYTES_20 b17cfe4bb68b8f825c0f5990b9bb28bc10d809e0",
      "scriptpubkey_type": "v0_p2wpkh",
      "scriptpubkey_address": "bc1qk970ujak3w8cyhq0txgtnweghsgdsz0q9rmf58",
      "value": 201489483
    }
  ],
  "size": 192,
  "weight": 438,
  "fee": 2970,
  "status": {
    "confirmed": true,
    "block_height": 834638,
    "block_hash": "000000000000000000025f742c626208ac87e0b7d15054abb4a19ca2d735a54e",
    "block_time": 1710405325
  },
  "hex": "01000000000101f2c9904f2e8c54bfe1afb096342aa91e8777b0af55103ba5f6e9a259aa24c6960100000000ffffffff014b7c020c00000000160014b17cfe4bb68b8f825c0f5990b9bb28bc10d809e002483045022100fbab640f3e66eda3bd60b4bdc5ed33108556439d4a50d9717f5a33e35f7c2fa8022023c67f25f2f9ef4ca2b427d7e4951c95e990e1f8f3dd0ea4f41b562af5d93c00012103d8c34e772381350735bd25996f0e8080f2374f5fabd52b0ff1f8ed79da94683000000000"
}