{
  "txid": "710cde0f9f0fcf5a61f94b0c89f95adbc85365594530abd4bd9fb7ac88bce722",
  "version": 2,
  "locktime": 834637,
  "vin": [
    {
      "txid": "66a40bed675966337dcd60b8f611d8aa01ab49f321d97651436c19499938cc8b",
      "vout": 0,
      "prevout": {
        "scriptpubkey": "00148bf548527a12d64a737b1b62692ff08d17248acf",
        "scriptpubkey_asm": "OP_0 OP_PUSHBYTES_20 8bf548527a12d64a737b1b62692ff08d17248acf",
        "scriptpubkey_type": "v0_p2wpkh",
        "scriptpubkey_address": "bc1q3065s5n6ztty5ummrd3xjtls35tjfzk09mlsrd",
        "value": 218534
      },
      "scriptsig": "",
      "scriptsig_asm": "",
      "witness": [
        "304402207f2fddb0776fe59ba544520430ec5c38e14e486d4d08aa514815c12ac1b24eec0220113d67f1c78801983be98085bac2cb78ac49c40876ba2dd384b57ef651fed52a01",
        "03c34bd9ca550b0d82e8419731d938efdd0b105e5467e8139d11a8c89e1f8d65e4"
      ],
      "is_coinbase": false,
      "sequence": 4294967293
    }
  ],
  "vout": [
    {
      "scriptpubkey": "001458aa0a768119a2cd27684981dd6c8476b54d5b9d",
      "scriptpubkey_asm": "OP_0 OP_PUSHBYTES_20 58aa0a768119a2cd27684981dd6c8476b54d5b9d",
      "scriptpubkey_type": "v0_p2wpkh",
      "scriptpubkey_address": "bc1qtz4q5a5prx3v6fmgfxqa6myyw6656kuamhhud6",
      "value": 101796
    },
    {
      "scriptpubkey": "0014f2c7899949d141975eb86d41bc545ef3dca6ccc6",
      "scriptpubkey_asm": "OP_0 OP_PUSHBYTES_20 f2c7899949d141975eb86d41bc545ef3dca6ccc6",
      "scriptpubkey_type": "v0_p2wpkh",
      "scriptpubkey_address": "bc1q7trcnx2f69qewh4cd4qmc4z770w2dnxxknjtw6",
      "value": 112931
    }
  ],
  "size": 222,
  "weight": 561,
  "fee": 3807,
  "status": {
    "confirmed": true,
    "block_height": 834638,
    "block_hash": "000000000000000000025f742c626208ac87e0b7d15054abb4a19ca2d735a54e",
    "block_time": 1710405325
  },
  "hex": "020000000001018bcc389949196c435176d921f349ab01aad811f6b860cd7d33665967ed0ba4660000000000fdffffff02a48d01000000000016001458aa0a768119a2cd27684981dd6c8476b54d5b9d23b9010000000000160014f2c7899949d141975eb86d41bc545ef3dca6ccc60247304402207f2fddb0776fe59ba544520430ec5c38e14e486d4d08aa514815c12ac1b24eec0220113d67f1c78801983be98085bac2cb78ac49c40876ba2dd384b57ef651fed52a012103c34bd9ca550b0d82e8419731d938efdd0b105e5467e8139d11a8c89e1f8d65e44dbc0c00"
}