{
  "txid": "7123f421af775ccee5a3f15c56295e957e948f0bf0e96f5103ee2b184c26924c",
  "version": 2,
  "locktime": 0,
  "vin": [
    {
      "txid": "ca49732a8789b812361e997512b66bc3787f1e3ff39f5f0d8b845e09438043f6",
      "vout": 20,
      "prevout": {
        "scriptpubkey": "512020912362f07db53d957eba29f9b63d4877407e1f86ae6aaf0c954c824e4cf974",
        "scriptpubkey_asm": "OP_PUSHNUM_1 OP_PUSHBYTES_32 20912362f07db53d957eba29f9b63d4877407e1f86ae6aaf0c954c824e4cf974",
        "scriptpubkey_type": "v1_p2tr",
        "scriptpubkey_address": "bc1pyzgjxchs0k6nm9t7hg5lnd3afpm5qlsls6hx4tcvj4xgynjvl96q75kjlz",
        "value": 2066
      },
      "scriptsig": "",
      "scriptsig_asm": "",
      "witness": [
        "c5cb25efe45f94ed6ded7c15b635fe36c6a264a9e30253175aceb47f4dfc80aa3ba329241b2231dc38c800314a2e9e10c6aed45991e4d1832f0fba17f2512c5e",
        "20601af52c7ef756934ca9c51b67a44c4c5bc9aeb920c0d96ea88384b95761926fac0063036f726401010a746578742f706c61696e00367b2270223a226272632d3230222c226f70223a226d696e74222c227469636b223a2261616161222c22616d74223a223130303030227d68",
        "c1601af52c7ef756934ca9c51b67a44c4c5bc9aeb920c0d96ea88384b95761926f"
      ],
      "is_coinbase": false,
      "sequence": 4261412863
    }
  ],
  "vout": [
    {
      "scriptpubkey": "0014b12a255b419b46c01324705abea5fd2949f55051",
      "scriptpubkey_asm": "OP_0 OP_PUSHBYTES_20 b12a255b419b46c01324705abea5fd2949f55051",
      "scriptpubkey_type": "v0_p2wpkh",
      "scriptpubkey_address": "bc1qky4z2k6pndrvqyeywpdtaf0a99yl25z3zp84r6",
      "value": 294
    }
  ],
  "size": 295,
  "weight": 541,
  "fee": 1772,
  "status": {
    "confirmed": true,
    "block_height": 834460,
    "block_hash": "00000000000000000000484a79b643b2524bbce82e5d8a442013fa5b8905ed98",
    "block_time": 1710307468
  },
  "hex": "02000000000101f6438043095e848b0d5f9ff33f1e7f78c36bb61275991e3612b889872a7349ca1400000000fffffffd012601000000000000160014b12a255b419b46c01324705abea5fd2949f550510340c5cb25efe45f94ed6ded7c15b635fe36c6a264a9e30253175aceb47f4dfc80aa3ba329241b2231dc38c800314a2e9e10c6aed45991e4d1832f0fba17f2512c5e6e20601af52c7ef756934ca9c51b67a44c4c5bc9aeb920c0d96ea88384b95761926fac0063036f726401010a746578742f706c61696e00367b2270223a226272632d3230222c226f70223a226d696e74222c227469636b223a2261616161222c22616d74223a223130303030227d6821c1601af52c7ef756934ca9c51b67a44c4c5bc9aeb920c0d96ea88384b95761926f00000000"
}