{
  "txid": "712afc0cf65e12be4da48dcfabd800d34d13704b5dad99256ba184dddb70583e",
  "version": 1,
  "locktime": 0,
  "vin": [
    {
      "txid": "f8298e9012c3562dc8b99bcbc1469c8aa9a20b3d0f3adcbd8675076fa996cee3",
      "vout": 1,
      "prevout": {
        "scriptpubkey": "00141180a0c2ce2b2e7dffac9e1a5c2df1c01615f22e",
        "scriptpubkey_asm": "OP_0 OP_PUSHBYTES_20 1180a0c2ce2b2e7dffac9e1a5c2df1c01615f22e",
        "scriptpubkey_type": "v0_p2wpkh",
        "scriptpubkey_address": "bc1qzxq2pskw9vh8mlavncd9ct03cqtptu3wg05qeu",
        "value": 4676609
      },
      "scriptsig": "",
      "scriptsig_asm": "",
      "witness": [
        "3045022100fddf638deb93c16cbcc2be96cd2a5c51bdc6b30ca6d7d3b9970e4f593abf557702206b6d82a486e5fb311d631ff2d4c1feb76be728b47f7af2a7a5f76e25f0d9395c01",
        "037e2786516c7a598e293639b1b7e865540fea0efbac1389107d419ac0f4f6a6a1"
      ],
      "is_coinbase": false,
      "sequence": 4294967295
    }
  ],
  "vout": [
    {
      "scriptpubkey": "a9141f73a0fc7838e28a53a1fb117204f48e469fdc0487",
      "scriptpubkey_asm": "OP_HASH160 OP_PUSHBYTES_20 1f73a0fc7838e28a53a1fb117204f48e469fdc04 OP_EQUAL",
      "scriptpubkey_type": "p2sh",
      "scriptpubkey_address": "34ZKPXM1aDufiE6yb8rjpHNSmvMPHa9sQg",
      "value": 4673612
    }
  ],
  "size": 193,
  "weight": 442,
  "fee": 2997,
  "status": {
    "confirmed": true,
    "block_height": 834638,
    "block_hash": "000000000000000000025f742c626208ac87e0b7d15054abb4a19ca2d735a54e",
    "block_time": 1710405325
  },
  "hex": "01000000000101e3ce96a96f077586bddc3a0f3d0ba2a98a9c46c1cb9bb9c82d56c312908e29f80100000000ffffffff014c5047000000000017a9141f73a0fc7838e28a53a1fb117204f48e469fdc048702483045022100fddf638deb93c16cbcc2be96cd2a5c51bdc6b30ca6d7d3b9970e4f593abf557702206b6d82a486e5fb311d631ff2d4c1feb76be728b47f7af2a7a5f76e25f0d9395c0121037e2786516c7a598e293639b1b7e865540fea0efbac1389107d419ac0f4f6a6a100000000"
}