{
  "txid": "7131f061afd41ce959f7de6370dc52e42bc39174f6e1a9c138153efb8b380d43",
  "version": 2,
  "locktime": 0,
  "vin": [
    {
      "txid": "970322cb730ab10e15d33bc9348b9426432fffdf2d662bd7c82594c61d1520cf",
      "vout": 15,
      "prevout": {
        "scriptpubkey": "001474dc863677606ff48d4495d75646f8286bfffe28",
        "scriptpubkey_asm": "OP_0 OP_PUSHBYTES_20 74dc863677606ff48d4495d75646f8286bfffe28",
        "scriptpubkey_type": "v0_p2wpkh",
        "scriptpubkey_address": "bc1qwnwgvdnhvphlfr2yjht4v3hc9p4lll3g8t927h",
        "value": 795000
      },
      "scriptsig": "",
      "scriptsig_asm": "",
      "witness": [
        "30440220167256ae9b7b4538a184f3fe2d5cb6ba8e26a50826f07c91a3344eda54ce40aa02205e35dd6c3915cb378ff9bcb357985a565d0538ce55bd2fbd0aae8638d39de93101",
        "0363d5560d682b56d59d3af6999de2cd37264175d421cab6baffc61cd1c8656200"
      ],
      "is_coinbase": false,
      "sequence": 4294967295
    }
  ],
  "vout": [
    {
      "scriptpubkey": "001474dc863677606ff48d4495d75646f8286bfffe28",
      "scriptpubkey_asm": "OP_0 OP_PUSHBYTES_20 74dc863677606ff48d4495d75646f8286bfffe28",
      "scriptpubkey_type": "v0_p2wpkh",
      "scriptpubkey_address": "bc1qwnwgvdnhvphlfr2yjht4v3hc9p4lll3g8t927h",
      "value": 600
    },
    {
      "scriptpubkey": "001474dc863677606ff48d4495d75646f8286bfffe28",
      "scriptpubkey_asm": "OP_0 OP_PUSHBYTES_20 74dc863677606ff48d4495d75646f8286bfffe28",
      "scriptpubkey_type": "v0_p2wpkh",
      "scriptpubkey_address": "bc1qwnwgvdnhvphlfr2yjht4v3hc9p4lll3g8t927h",
      "value": 600
    },
    {
      "scriptpubkey": "001474dc863677606ff48d4495d75646f8286bfffe28",
      "scriptpubkey_asm": "OP_0 OP_PUSHBYTES_20 74dc863677606ff48d4495d75646f8286bfffe28",
      "scriptpubkey_type": "v0_p2wpkh",
      "scriptpubkey_address": "bc1qwnwgvdnhvphlfr2yjht4v3hc9p4lll3g8t927h",
      "value": 600
    },
    {
      "scriptpubkey": "001474dc863677606ff48d4495d75646f8286bfffe28",
      "scriptpubkey_asm": "OP_0 OP_PUSHBYTES_20 74dc863677606ff48d4495d75646f8286bfffe28",
      "scriptpubkey_type": "v0_p2wpkh",
      "scriptpubkey_address": "bc1qwnwgvdnhvphlfr2yjht4v3hc9p4lll3g8t927h",
      "value": 600
    },
    {
      "scriptpubkey": "001474dc863677606ff48d4495d75646f8286bfffe28",
      "scriptpubkey_asm": "OP_0 OP_PUSHBYTES_20 74dc863677606ff48d4495d75646f8286bfffe28",
      "scriptpubkey_type": "v0_p2wpkh",
      "scriptpubkey_address": "bc1qwnwgvdnhvphlfr2yjht4v3hc9p4lll3g8t927h",
      "value": 600
    },
    {
      "scriptpubkey": "001474dc863677606ff48d4495d75646f8286bfffe28",
      "scriptpubkey_asm": "OP_0 OP_PUSHBYTES_20 74dc863677606ff48d4495d75646f8286bfffe28",
      "scriptpubkey_type": "v0_p2wpkh",
      "scriptpubkey_address": "bc1qwnwgvdnhvphlfr2yjht4v3hc9p4lll3g8t927h",
      "value": 600
    },
    {
      "scriptpubkey": "001474dc863677606ff48d4495d75646f8286bfffe28",
      "scriptpubkey_asm": "OP_0 OP_PUSHBYTES_20 74dc863677606ff48d4495d75646f8286bfffe28",
      "scriptpubkey_type": "v0_p2wpkh",
      "scriptpubkey_address": "bc1qwnwgvdnhvphlfr2yjht4v3hc9p4lll3g8t927h",
      "value": 600
    },
    {
      "scriptpubkey": "001474dc863677606ff48d4495d75646f8286bfffe28",
      "scriptpubkey_asm": "OP_0 OP_PUSHBYTES_20 74dc863677606ff48d4495d75646f8286bfffe28",
      "scriptpubkey_type": "v0_p2wpkh",
      "scriptpubkey_address": "bc1qwnwgvdnhvphlfr2yjht4v3hc9p4lll3g8t927h",
      "value": 600
    },
    {
      "scriptpubkey": "001474dc863677606ff48d4495d75646f8286bfffe28",
      "scriptpubkey_asm": "OP_0 OP_PUSHBYTES_20 74dc863677606ff48d4495d75646f8286bfffe28",
      "scriptpubkey_type": "v0_p2wpkh",
      "scriptpubkey_address": "bc1qwnwgvdnhvphlfr2yjht4v3hc9p4lll3g8t927h",
      "value": 600
    },
    {
      "scriptpubkey": "001474dc863677606ff48d4495d75646f8286bfffe28",
      "scriptpubkey_asm": "OP_0 OP_PUSHBYTES_20 74dc863677606ff48d4495d75646f8286bfffe28",
      "scriptpubkey_type": "v0_p2wpkh",
      "scriptpubkey_address": "bc1qwnwgvdnhvphlfr2yjht4v3hc9p4lll3g8t927h",
      "value": 600
    },
    {
      "scriptpubkey": "001474dc863677606ff48d4495d75646f8286bfffe28",
      "scriptpubkey_asm": "OP_0 OP_PUSHBYTES_20 74dc863677606ff48d4495d75646f8286bfffe28",
      "scriptpubkey_type": "v0_p2wpkh",
      "scriptpubkey_address": "bc1qwnwgvdnhvphlfr2yjht4v3hc9p4lll3g8t927h",
      "value": 781860
    }
  ],
  "size": 501,
  "weight": 1677,
  "fee": 7140,
  "status": {
    "confirmed": true,
    "block_height": 834638,
    "block_hash": "000000000000000000025f742c626208ac87e0b7d15054abb4a19ca2d735a54e",
    "block_time": 1710405325
  },
  "hex": "02000000000101cf20151dc69425c8d72b662ddfff2f4326948b34c93bd3150eb10a73cb2203970f00000000ffffffff0b580200000000000016001474dc863677606ff48d4495d75646f8286bfffe28580200000000000016001474dc863677606ff48d4495d75646f8286bfffe28580200000000000016001474dc863677606ff48d4495d75646f8286bfffe28580200000000000016001474dc863677606ff48d4495d75646f8286bfffe28580200000000000016001474dc863677606ff48d4495d75646f8286bfffe28580200000000000016001474dc863677606ff48d4495d75646f8286bfffe28580200000000000016001474dc863677606ff48d4495d75646f8286bfffe28580200000000000016001474dc863677606ff48d4495d75646f8286bfffe28580200000000000016001474dc863677606ff48d4495d75646f8286bfffe28580200000000000016001474dc863677606ff48d4495d75646f8286bfffe2824ee0b000000000016001474dc863677606ff48d4495d75646f8286bfffe28024730440220167256ae9b7b4538a184f3fe2d5cb6ba8e26a50826f07c91a3344eda54ce40aa02205e35dd6c3915cb378ff9bcb357985a565d0538ce55bd2fbd0aae8638d39de93101210363d5560d682b56d59d3af6999de2cd37264175d421cab6baffc61cd1c865620000000000"
}