{
  "txid": "713402a6359166b60f3be43795f9311852b6d94ed4230f96f44e690e13794eff",
  "version": 2,
  "locktime": 0,
  "vin": [
    {
      "txid": "095368973bb0352cef3854176ede6ad10e3f5cda8d00b1ed7225253c42fb1194",
      "vout": 0,
      "prevout": {
        "scriptpubkey": "00142e15df74fa7020fef67e00d1a7968368f7d7e2ae",
        "scriptpubkey_asm": "OP_0 OP_PUSHBYTES_20 2e15df74fa7020fef67e00d1a7968368f7d7e2ae",
        "scriptpubkey_type": "v0_p2wpkh",
        "scriptpubkey_address": "bc1q9c2a7a86wqs0aan7qrg6095rdrma0c4wktm534",
        "value": 7881985
      },
      "scriptsig": "",
      "scriptsig_asm": "",
      "witness": [
        "3045022100e77802fc64ba4ae5819b8ca95d3b8541a235b1ba92292a0f3fa350ea9f1bbd130220324cd43485adf5c801c35772e8387e95cb2a7aea2e512b18b93b8a9a252de12c01",
        "02a1c0336ec1e2485b059d665e34bb1fc049a116e9109a47d039cfaff652d8cc92"
      ],
      "is_coinbase": false,
      "sequence": 4294967293
    },
    {
      "txid": "cb6763ca906960f00365bc0761e690513f47ec764ba7c5192a1aa12df9c75caf",
      "vout": 15,
      "prevout": {
        "scriptpubkey": "0014141b7217cd3cfed992c0d22f2daa5bfda7a2bca6",
        "scriptpubkey_asm": "OP_0 OP_PUSHBYTES_20 141b7217cd3cfed992c0d22f2daa5bfda7a2bca6",
        "scriptpubkey_type": "v0_p2wpkh",
        "scriptpubkey_address": "bc1qzsdhy97d8nldnykq6ghjm2jmlkn6909xkjk9nd",
        "value": 1998080
      },
      "scriptsig": "",
      "scriptsig_asm": "",
      "witness": [
        "3045022100ad964d6cf555504eba1ad03b315f9aeab284285e94c85dc5d3375d6afe429f4902204215d1cee6248159500fe838a9ee451cd745418763db730c25a007ed793a411301",
        "020516e6d5657b35e935d89096985e396d2817c3bcd926cd722bac6decd6fe7a7b"
      ],
      "is_coinbase": false,
      "sequence": 4294967293
    }
  ],
  "vout": [
    {
      "scriptpubkey": "a9142a2e20290d85ed663ae3e060e143eb973dad716e87",
      "scriptpubkey_asm": "OP_HASH160 OP_PUSHBYTES_20 2a2e20290d85ed663ae3e060e143eb973dad716e OP_EQUAL",
      "scriptpubkey_type": "p2sh",
      "scriptpubkey_address": "35Y3ZTwf4Bf6FfQwSzd13B48NnXfqgD9yZ",
      "value": 9874485
    }
  ],
  "size": 342,
  "weight": 714,
  "fee": 5580,
  "status": {
    "confirmed": true,
    "block_height": 834638,
    "block_hash": "000000000000000000025f742c626208ac87e0b7d15054abb4a19ca2d735a54e",
    "block_time": 1710405325
  },
  "hex": "020000000001029411fb423c252572edb1008dda5c3f0ed16ade6e175438ef2c35b03b976853090000000000fdffffffaf5cc7f92da11a2a19c5a74b76ec473f5190e66107bc6503f0606990ca6367cb0f00000000fdffffff0135ac96000000000017a9142a2e20290d85ed663ae3e060e143eb973dad716e8702483045022100e77802fc64ba4ae5819b8ca95d3b8541a235b1ba92292a0f3fa350ea9f1bbd130220324cd43485adf5c801c35772e8387e95cb2a7aea2e512b18b93b8a9a252de12c012102a1c0336ec1e2485b059d665e34bb1fc049a116e9109a47d039cfaff652d8cc9202483045022100ad964d6cf555504eba1ad03b315f9aeab284285e94c85dc5d3375d6afe429f4902204215d1cee6248159500fe838a9ee451cd745418763db730c25a007ed793a41130121020516e6d5657b35e935d89096985e396d2817c3bcd926cd722bac6decd6fe7a7b00000000"
}