{
  "txid": "7151e75250239fdfd37246f6eb9f20399aa6869430309b1bfc622256420840e2",
  "version": 2,
  "locktime": 0,
  "vin": [
    {
      "txid": "8ecd0e72a2635db88210e864319cbdc01703efa59ea4cb44ab77a5b096980b80",
      "vout": 4,
      "prevout": {
        "scriptpubkey": "0014b7c97e794134e223320361ddbd5ff4b7f8bc888e",
        "scriptpubkey_asm": "OP_0 OP_PUSHBYTES_20 b7c97e794134e223320361ddbd5ff4b7f8bc888e",
        "scriptpubkey_type": "v0_p2wpkh",
        "scriptpubkey_address": "bc1qklyhu72pxn3zxvsrv8wm6hl5klutezywcujmma",
        "value": 1496167
      },
      "scriptsig": "",
      "scriptsig_asm": "",
      "witness": [
        "304402200b5179e1ee2bfd4b0fd6ce2e778e9e1a76ee6f1786cfce1cd3f8763bf00da7c302201da239df04e9dcb029dc343b111e4208a23dfc2da4bccdbc250a6c89c1d80dc701",
        "02b33ab0a64462696e39065c18c6fcfc15f3c08b4b8f16d16d181846652bcaa0d2"
      ],
      "is_coinbase": false,
      "sequence": 4294967295
    }
  ],
  "vout": [
    {
      "scriptpubkey": "0014b7c97e794134e223320361ddbd5ff4b7f8bc888e",
      "scriptpubkey_asm": "OP_0 OP_PUSHBYTES_20 b7c97e794134e223320361ddbd5ff4b7f8bc888e",
      "scriptpubkey_type": "v0_p2wpkh",
      "scriptpubkey_address": "bc1qklyhu72pxn3zxvsrv8wm6hl5klutezywcujmma",
      "value": 808
    },
    {
      "scriptpubkey": "51210315f5132be3305af67ca4c4a89908744a8b1e35bf996e4e3699c8647780515bc821034f0d7d4708b9b88186cdc3b9c3b298e4dffa2cb031d3d1aa0bc566776fa418a32102020202020202020202020202020202020202020202020202020202020202020253ae",
      "scriptpubkey_asm": "OP_PUSHNUM_1 OP_PUSHBYTES_33 0315f5132be3305af67ca4c4a89908744a8b1e35bf996e4e3699c8647780515bc8 OP_PUSHBYTES_33 034f0d7d4708b9b88186cdc3b9c3b298e4dffa2cb031d3d1aa0bc566776fa418a3 OP_PUSHBYTES_33 020202020202020202020202020202020202020202020202020202020202020202 OP_PUSHNUM_3 OP_CHECKMULTISIG",
      "scriptpubkey_type": "unknown",
      "value": 809
    },
    {
      "scriptpubkey": "512103fc4f986147d39f0c9f2d848a4fa27516d46538efb2dabbae4022c0eadef07bde2103f18aefc2bf984856f9fbfa91fd1622a53137c0d240e4504d7f546dccbbb425892102020202020202020202020202020202020202020202020202020202020202020253ae",
      "scriptpubkey_asm": "OP_PUSHNUM_1 OP_PUSHBYTES_33 03fc4f986147d39f0c9f2d848a4fa27516d46538efb2dabbae4022c0eadef07bde OP_PUSHBYTES_33 03f18aefc2bf984856f9fbfa91fd1622a53137c0d240e4504d7f546dccbbb42589 OP_PUSHBYTES_33 020202020202020202020202020202020202020202020202020202020202020202 OP_PUSHNUM_3 OP_CHECKMULTISIG",
      "scriptpubkey_type": "unknown",
      "value": 809
    },
    {
      "scriptpubkey": "001420123e4942db45c3c5971b141304c3ff6f5c06c7",
      "scriptpubkey_asm": "OP_0 OP_PUSHBYTES_20 20123e4942db45c3c5971b141304c3ff6f5c06c7",
      "scriptpubkey_type": "v0_p2wpkh",
      "scriptpubkey_address": "bc1qyqfruj2zmdzu83vhrv2pxpxrlah4cpk88c9zvd",
      "value": 12000
    },
    {
      "scriptpubkey": "0014b7c97e794134e223320361ddbd5ff4b7f8bc888e",
      "scriptpubkey_asm": "OP_0 OP_PUSHBYTES_20 b7c97e794134e223320361ddbd5ff4b7f8bc888e",
      "scriptpubkey_type": "v0_p2wpkh",
      "scriptpubkey_address": "bc1qklyhu72pxn3zxvsrv8wm6hl5klutezywcujmma",
      "value": 1468573
    }
  ],
  "size": 481,
  "weight": 1597,
  "fee": 13168,
  "status": {
    "confirmed": true,
    "block_height": 834638,
    "block_hash": "000000000000000000025f742c626208ac87e0b7d15054abb4a19ca2d735a54e",
    "block_time": 1710405325
  },
  "hex": "02000000000101800b9896b0a577ab44cba49ea5ef0317c0bd9c3164e81082b85d63a2720ecd8e0400000000ffffffff052803000000000000160014b7c97e794134e223320361ddbd5ff4b7f8bc888e29030000000000006951210315f5132be3305af67ca4c4a89908744a8b1e35bf996e4e3699c8647780515bc821034f0d7d4708b9b88186cdc3b9c3b298e4dffa2cb031d3d1aa0bc566776fa418a32102020202020202020202020202020202020202020202020202020202020202020253ae290300000000000069512103fc4f986147d39f0c9f2d848a4fa27516d46538efb2dabbae4022c0eadef07bde2103f18aefc2bf984856f9fbfa91fd1622a53137c0d240e4504d7f546dccbbb425892102020202020202020202020202020202020202020202020202020202020202020253aee02e00000000000016001420123e4942db45c3c5971b141304c3ff6f5c06c79d68160000000000160014b7c97e794134e223320361ddbd5ff4b7f8bc888e0247304402200b5179e1ee2bfd4b0fd6ce2e778e9e1a76ee6f1786cfce1cd3f8763bf00da7c302201da239df04e9dcb029dc343b111e4208a23dfc2da4bccdbc250a6c89c1d80dc7012102b33ab0a64462696e39065c18c6fcfc15f3c08b4b8f16d16d181846652bcaa0d200000000"
}