{
  "txid": "71531db280f61dab2c5d70bd100850b5b348a2fbaae8d488cec04339d1262b45",
  "version": 1,
  "locktime": 0,
  "vin": [
    {
      "txid": "37db7e66c68c3a4082fdde598d74303979d712f4945095b52e22a43f449443be",
      "vout": 1,
      "prevout": {
        "scriptpubkey": "76a914dbb24c13359a00641dd45d22144d16aaca9fcd5d88ac",
        "scriptpubkey_asm": "OP_DUP OP_HASH160 OP_PUSHBYTES_20 dbb24c13359a00641dd45d22144d16aaca9fcd5d OP_EQUALVERIFY OP_CHECKSIG",
        "scriptpubkey_type": "p2pkh",
        "scriptpubkey_address": "1M2eaKHcfmYcjQU8vjyvVrGqMThQcTpccr",
        "value": 1651324
      },
      "scriptsig": "4830450221008fea4a65b4a5b7d2d21754d2ce6e388810f65b174586b0072ed58cb518ff4eff02206072aa1291c31292e5096c1fa851e9f9ade9553651a6f618bc6d699fac963fa20121028fbc44398b12a2c08522b1981923068bd49feb21654f82e62835b08c0caa54c2",
      "scriptsig_asm": "OP_PUSHBYTES_72 30450221008fea4a65b4a5b7d2d21754d2ce6e388810f65b174586b0072ed58cb518ff4eff02206072aa1291c31292e5096c1fa851e9f9ade9553651a6f618bc6d699fac963fa201 OP_PUSHBYTES_33 028fbc44398b12a2c08522b1981923068bd49feb21654f82e62835b08c0caa54c2",
      "is_coinbase": false,
      "sequence": 4294967295
    }
  ],
  "vout": [
    {
      "scriptpubkey": "76a914d877c2c942bd7d1a58b580abed1853794cc4f67588ac",
      "scriptpubkey_asm": "OP_DUP OP_HASH160 OP_PUSHBYTES_20 d877c2c942bd7d1a58b580abed1853794cc4f675 OP_EQUALVERIFY OP_CHECKSIG",
      "scriptpubkey_type": "p2pkh",
      "scriptpubkey_address": "1LjaRZurPxGQcQd2cVwKMkfe5nhKx3u65r",
      "value": 817331
    },
    {
      "scriptpubkey": "76a914a0acf93d043a619373bd05ad896e42cf02adcc5b88ac",
      "scriptpubkey_asm": "OP_DUP OP_HASH160 OP_PUSHBYTES_20 a0acf93d043a619373bd05ad896e42cf02adcc5b OP_EQUALVERIFY OP_CHECKSIG",
      "scriptpubkey_type": "p2pkh",
      "scriptpubkey_address": "1FeaL7Hgst4pja7XMeHS5sDfw2seQSXs3b",
      "value": 829473
    }
  ],
  "size": 226,
  "weight": 904,
  "fee": 4520,
  "status": {
    "confirmed": true,
    "block_height": 834638,
    "block_hash": "000000000000000000025f742c626208ac87e0b7d15054abb4a19ca2d735a54e",
    "block_time": 1710405325
  },
  "hex": "0100000001be4394443fa4222eb5955094f412d7793930748d59defd82403a8cc6667edb37010000006b4830450221008fea4a65b4a5b7d2d21754d2ce6e388810f65b174586b0072ed58cb518ff4eff02206072aa1291c31292e5096c1fa851e9f9ade9553651a6f618bc6d699fac963fa20121028fbc44398b12a2c08522b1981923068bd49feb21654f82e62835b08c0caa54c2ffffffff02b3780c00000000001976a914d877c2c942bd7d1a58b580abed1853794cc4f67588ac21a80c00000000001976a914a0acf93d043a619373bd05ad896e42cf02adcc5b88ac00000000"
}