{
  "txid": "71546fd13ff601b02410bb2f3992319cab75c810270f222131ffa3fc12cd2774",
  "version": 2,
  "locktime": 834380,
  "vin": [
    {
      "txid": "50a2144789b9f16ac9bb09ba5bc8a6b43af4c374dfa2ce4375a60261af8593d3",
      "vout": 307,
      "prevout": {
        "scriptpubkey": "a9145a54ef1f4e9af20af59b6aeb3f2fe1958ea3624787",
        "scriptpubkey_asm": "OP_HASH160 OP_PUSHBYTES_20 5a54ef1f4e9af20af59b6aeb3f2fe1958ea36247 OP_EQUAL",
        "scriptpubkey_type": "p2sh",
        "scriptpubkey_address": "39veV8ZiuYZD5AwSURSeCfbx6gR81SZoqg",
        "value": 106509
      },
      "scriptsig": "16001429862d65368280039b5454830c4bb728e3e87412",
      "scriptsig_asm": "OP_PUSHBYTES_22 001429862d65368280039b5454830c4bb728e3e87412",
      "witness": [
        "3044022077ce9c529d374be2f190cf6d7d9058a9201791da1acd5eb63fff9485273adb0f022034ea3e37d3f6e35d1811b32d32bf260852f48311a769373e7dc88f8f7410a8bd01",
        "020fe76f048548d485701497d7045a7157ce42232b50ed12e7f56f265b901b784f"
      ],
      "is_coinbase": false,
      "sequence": 4294967293,
      "inner_redeemscript_asm": "OP_0 OP_PUSHBYTES_20 29862d65368280039b5454830c4bb728e3e87412"
    },
    {
      "txid": "50a2144789b9f16ac9bb09ba5bc8a6b43af4c374dfa2ce4375a60261af8593d3",
      "vout": 634,
      "prevout": {
        "scriptpubkey": "a914d9b6f5d04e5ab229b2e695c84d86b631dfb11e5487",
        "scriptpubkey_asm": "OP_HASH160 OP_PUSHBYTES_20 d9b6f5d04e5ab229b2e695c84d86b631dfb11e54 OP_EQUAL",
        "scriptpubkey_type": "p2sh",
        "scriptpubkey_address": "3MYBjUAcCzxqQCi3Spyw3xWqg61yud782N",
        "value": 101740
      },
      "scriptsig": "160014b55c725c6889312d25ab48afb0e2d612a784bc22",
      "scriptsig_asm": "OP_PUSHBYTES_22 0014b55c725c6889312d25ab48afb0e2d612a784bc22",
      "witness": [
        "304402205555a8e708d3dcd251473f7a074a675fa5f5b6995515b86603fb1f121226bc570220473a1fe00a23dfccc9a70598e4b862ef8ff7e0c0527b394b84a09d4b30c943c401",
        "02ead3b3728174abfd2cb82fc0ba55168a4ec6f3b9de3e9ee0125663ca9a4211ff"
      ],
      "is_coinbase": false,
      "sequence": 4294967293,
      "inner_redeemscript_asm": "OP_0 OP_PUSHBYTES_20 b55c725c6889312d25ab48afb0e2d612a784bc22"
    },
    {
      "txid": "0d504a94fd7619d06f7f9d1646a85a97ec05098b83821e37a2396bdefade2a5c",
      "vout": 1114,
      "prevout": {
        "scriptpubkey": "a914e60dcd65e8662d3b9a90a5fd5c32fde52e9cba1787",
        "scriptpubkey_asm": "OP_HASH160 OP_PUSHBYTES_20 e60dcd65e8662d3b9a90a5fd5c32fde52e9cba17 OP_EQUAL",
        "scriptpubkey_type": "p2sh",
        "scriptpubkey_address": "3NfRsfh1yqiHLeFPjmefX4SybysPmuJqEQ",
        "value": 1146227
      },
      "scriptsig": "160014b186547c915373a053cc581a3c2cc84b61c7ce56",
      "scriptsig_asm": "OP_PUSHBYTES_22 0014b186547c915373a053cc581a3c2cc84b61c7ce56",
      "witness": [
        "3044022071e0bb615da33cb5bbadae1a68de38b906f28430c8d74762b8a3688eec93436f022069baa5661e5df9b96f0e72034439bea099c81b842aff35ee5167c72b307cbc9201",
        "03a8bd87afdcb66bdfe47baea5e90d3a9a25c235d8547dc35fa061c76a9c4e9e81"
      ],
      "is_coinbase": false,
      "sequence": 4294967293,
      "inner_redeemscript_asm": "OP_0 OP_PUSHBYTES_20 b186547c915373a053cc581a3c2cc84b61c7ce56"
    },
    {
      "txid": "50a2144789b9f16ac9bb09ba5bc8a6b43af4c374dfa2ce4375a60261af8593d3",
      "vout": 1407,
      "prevout": {
        "scriptpubkey": "a914dd3b1288925cdd2221bb5de1ec42ed8bdc3f6d5a87",
        "scriptpubkey_asm": "OP_HASH160 OP_PUSHBYTES_20 dd3b1288925cdd2221bb5de1ec42ed8bdc3f6d5a OP_EQUAL",
        "scriptpubkey_type": "p2sh",
        "scriptpubkey_address": "3Mrn2MrRMuFTZi48RRtjA4GFpP8cEUCdZ9",
        "value": 115162
      },
      "scriptsig": "160014533f7f2fccfe396d2454f77791799a959956c80d",
      "scriptsig_asm": "OP_PUSHBYTES_22 0014533f7f2fccfe396d2454f77791799a959956c80d",
      "witness": [
        "304402201285a5e4dfc2e10c4a07b6992a969e2aaacd2e29077d0f0eb4416fa282e61cb10220292c64e72fada56bbbfad5dc1e0214b46afe2efff7149e8b230d0736050636e301",
        "0393d091708d2ff3e4d33c4441e4df6b76239ef6659b82eb2a938339a00b7405d4"
      ],
      "is_coinbase": false,
      "sequence": 4294967293,
      "inner_redeemscript_asm": "OP_0 OP_PUSHBYTES_20 533f7f2fccfe396d2454f77791799a959956c80d"
    }
  ],
  "vout": [
    {
      "scriptpubkey": "001447bcdaae1a735c4218bc4339546fef5a7f5a2e6e",
      "scriptpubkey_asm": "OP_0 OP_PUSHBYTES_20 47bcdaae1a735c4218bc4339546fef5a7f5a2e6e",
      "scriptpubkey_type": "v0_p2wpkh",
      "scriptpubkey_address": "bc1qg77d4ts6wdwyyx9ugvu4gml0tfl45tnw2crhfz",
      "value": 1464778
    }
  ],
  "size": 727,
  "weight": 1618,
  "fee": 4860,
  "status": {
    "confirmed": true,
    "block_height": 834460,
    "block_hash": "00000000000000000000484a79b643b2524bbce82e5d8a442013fa5b8905ed98",
    "block_time": 1710307468
  },
  "hex": "02000000000104d39385af6102a67543cea2df74c3f43ab4a6c85bba09bbc96af1b9894714a250330100001716001429862d65368280039b5454830c4bb728e3e87412fdffffffd39385af6102a67543cea2df74c3f43ab4a6c85bba09bbc96af1b9894714a2507a02000017160014b55c725c6889312d25ab48afb0e2d612a784bc22fdffffff5c2adefade6b39a2371e82838b0905ec975aa846169d7f6fd01976fd944a500d5a04000017160014b186547c915373a053cc581a3c2cc84b61c7ce56fdffffffd39385af6102a67543cea2df74c3f43ab4a6c85bba09bbc96af1b9894714a2507f05000017160014533f7f2fccfe396d2454f77791799a959956c80dfdffffff01ca5916000000000016001447bcdaae1a735c4218bc4339546fef5a7f5a2e6e02473044022077ce9c529d374be2f190cf6d7d9058a9201791da1acd5eb63fff9485273adb0f022034ea3e37d3f6e35d1811b32d32bf260852f48311a769373e7dc88f8f7410a8bd0121020fe76f048548d485701497d7045a7157ce42232b50ed12e7f56f265b901b784f0247304402205555a8e708d3dcd251473f7a074a675fa5f5b6995515b86603fb1f121226bc570220473a1fe00a23dfccc9a70598e4b862ef8ff7e0c0527b394b84a09d4b30c943c4012102ead3b3728174abfd2cb82fc0ba55168a4ec6f3b9de3e9ee0125663ca9a4211ff02473044022071e0bb615da33cb5bbadae1a68de38b906f28430c8d74762b8a3688eec93436f022069baa5661e5df9b96f0e72034439bea099c81b842aff35ee5167c72b307cbc92012103a8bd87afdcb66bdfe47baea5e90d3a9a25c235d8547dc35fa061c76a9c4e9e810247304402201285a5e4dfc2e10c4a07b6992a969e2aaacd2e29077d0f0eb4416fa282e61cb10220292c64e72fada56bbbfad5dc1e0214b46afe2efff7149e8b230d0736050636e301210393d091708d2ff3e4d33c4441e4df6b76239ef6659b82eb2a938339a00b7405d44cbb0c00"
}