{
  "txid": "7159a9bf0648673cf7102305f5318d3d6788df18c41d81950c97d0449f06f204",
  "version": 2,
  "locktime": 0,
  "vin": [
    {
      "txid": "816f56296ff7e2b3531510167da60e590487f2561e7d5e1c07a1453120210f03",
      "vout": 0,
      "prevout": {
        "scriptpubkey": "5120f1768c246d76ff8a45c86e479459158c70d9b33887ba83b7b633606f1b0bb536",
        "scriptpubkey_asm": "OP_PUSHNUM_1 OP_PUSHBYTES_32 f1768c246d76ff8a45c86e479459158c70d9b33887ba83b7b633606f1b0bb536",
        "scriptpubkey_type": "v1_p2tr",
        "scriptpubkey_address": "bc1p79mgcfrdwmlc53wgderegkg433cdnvecs7ag8dakxdsx7xctk5mqnszxzv",
        "value": 600
      },
      "scriptsig": "",
      "scriptsig_asm": "",
      "witness": [
        "e27c9fad5bfd006bd335e748b15503f3b6248104f5aedd65c59ff5a02361e6f246e67d42e5aacd1484b7f2e30a1ba5c60e0620b720350a0649ef4f61b84fef10"
      ],
      "is_coinbase": false,
      "sequence": 4294967295
    },
    {
      "txid": "816f56296ff7e2b3531510167da60e590487f2561e7d5e1c07a1453120210f03",
      "vout": 1,
      "prevout": {
        "scriptpubkey": "5120f1768c246d76ff8a45c86e479459158c70d9b33887ba83b7b633606f1b0bb536",
        "scriptpubkey_asm": "OP_PUSHNUM_1 OP_PUSHBYTES_32 f1768c246d76ff8a45c86e479459158c70d9b33887ba83b7b633606f1b0bb536",
        "scriptpubkey_type": "v1_p2tr",
        "scriptpubkey_address": "bc1p79mgcfrdwmlc53wgderegkg433cdnvecs7ag8dakxdsx7xctk5mqnszxzv",
        "value": 600
      },
      "scriptsig": "",
      "scriptsig_asm": "",
      "witness": [
        "b57d176b37e728ff249d383b0d6c2e1dfedbb7cff7f1d50f907eb8eac1c47adc7cc12124d485ec7de5a5e3f536fcddc7884ac43fe6b11cb42da32fdd2b45dc30"
      ],
      "is_coinbase": false,
      "sequence": 4294967295
    },
    {
      "txid": "816f56296ff7e2b3531510167da60e590487f2561e7d5e1c07a1453120210f03",
      "vout": 2,
      "prevout": {
        "scriptpubkey": "5120f1768c246d76ff8a45c86e479459158c70d9b33887ba83b7b633606f1b0bb536",
        "scriptpubkey_asm": "OP_PUSHNUM_1 OP_PUSHBYTES_32 f1768c246d76ff8a45c86e479459158c70d9b33887ba83b7b633606f1b0bb536",
        "scriptpubkey_type": "v1_p2tr",
        "scriptpubkey_address": "bc1p79mgcfrdwmlc53wgderegkg433cdnvecs7ag8dakxdsx7xctk5mqnszxzv",
        "value": 600
      },
      "scriptsig": "",
      "scriptsig_asm": "",
      "witness": [
        "71f0bd5bff88b2c0830fb4cbf213bc3e84151e85f600b32e56abf01d6a199b072fcc900ff4c2a5738ad97514124779d18c53f104d49c87659bc41f017b7406bc"
      ],
      "is_coinbase": false,
      "sequence": 4294967295
    },
    {
      "txid": "816f56296ff7e2b3531510167da60e590487f2561e7d5e1c07a1453120210f03",
      "vout": 3,
      "prevout": {
        "scriptpubkey": "5120f1768c246d76ff8a45c86e479459158c70d9b33887ba83b7b633606f1b0bb536",
        "scriptpubkey_asm": "OP_PUSHNUM_1 OP_PUSHBYTES_32 f1768c246d76ff8a45c86e479459158c70d9b33887ba83b7b633606f1b0bb536",
        "scriptpubkey_type": "v1_p2tr",
        "scriptpubkey_address": "bc1p79mgcfrdwmlc53wgderegkg433cdnvecs7ag8dakxdsx7xctk5mqnszxzv",
        "value": 600
      },
      "scriptsig": "",
      "scriptsig_asm": "",
      "witness": [
        "cfaae6787413dc5b585c9bc8e26c075d1bdf76082d9b651173519261a6e94a47e08390200393a34812a009ec9c6ad88ea981d2b5244f084af1f2aadd380e564c"
      ],
      "is_coinbase": false,
      "sequence": 4294967295
    },
    {
      "txid": "816f56296ff7e2b3531510167da60e590487f2561e7d5e1c07a1453120210f03",
      "vout": 4,
      "prevout": {
        "scriptpubkey": "5120f1768c246d76ff8a45c86e479459158c70d9b33887ba83b7b633606f1b0bb536",
        "scriptpubkey_asm": "OP_PUSHNUM_1 OP_PUSHBYTES_32 f1768c246d76ff8a45c86e479459158c70d9b33887ba83b7b633606f1b0bb536",
        "scriptpubkey_type": "v1_p2tr",
        "scriptpubkey_address": "bc1p79mgcfrdwmlc53wgderegkg433cdnvecs7ag8dakxdsx7xctk5mqnszxzv",
        "value": 600
      },
      "scriptsig": "",
      "scriptsig_asm": "",
      "witness": [
        "0c6a630c35451b7ffbc650f13e39fe3df87d759e22fb230e911e7d9273823719affe6ce3abf368c2b8f7294975af987b1731e78540846b89aa17df900297fd78"
      ],
      "is_coinbase": false,
      "sequence": 4294967295
    },
    {
      "txid": "816f56296ff7e2b3531510167da60e590487f2561e7d5e1c07a1453120210f03",
      "vout": 5,
      "prevout": {
        "scriptpubkey": "5120f1768c246d76ff8a45c86e479459158c70d9b33887ba83b7b633606f1b0bb536",
        "scriptpubkey_asm": "OP_PUSHNUM_1 OP_PUSHBYTES_32 f1768c246d76ff8a45c86e479459158c70d9b33887ba83b7b633606f1b0bb536",
        "scriptpubkey_type": "v1_p2tr",
        "scriptpubkey_address": "bc1p79mgcfrdwmlc53wgderegkg433cdnvecs7ag8dakxdsx7xctk5mqnszxzv",
        "value": 600
      },
      "scriptsig": "",
      "scriptsig_asm": "",
      "witness": [
        "41c7dfc07350bcb3fa8069a2727b817ebffdfb7104136f9dc4fb2c2cae91b9bffdedfffdee7957160a3ab9e5e97ed8e5f0c038f3ecb0d485bfea7b5ad95c17cc"
      ],
      "is_coinbase": false,
      "sequence": 4294967295
    },
    {
      "txid": "7098dfec308a2f8fa6eedd0a23d2ab5940dc131e73a3adff5aeabf68d3eb6078",
      "vout": 0,
      "prevout": {
        "scriptpubkey": "5120401ee2974c5f3cc27ea26206071a2982b10db6b93c8b6f41fc3a3c7b4297560d",
        "scriptpubkey_asm": "OP_PUSHNUM_1 OP_PUSHBYTES_32 401ee2974c5f3cc27ea26206071a2982b10db6b93c8b6f41fc3a3c7b4297560d",
        "scriptpubkey_type": "v1_p2tr",
        "scriptpubkey_address": "bc1pgq0w996vtu7vyl4zvgrqwx3fs2csmd4e8j9k7s0u8g78ks5h2cxsrgh3uv",
        "value": 546
      },
      "scriptsig": "",
      "scriptsig_asm": "",
      "witness": [
        "f88f4a38036af18dc3e6cf972ddf544e68fbfa9d2697546b657bc8dcca0f75271f3db8e1c8924fd2bf253e191a32a15e53c2026bd22348b3e89e3a28a221288883"
      ],
      "is_coinbase": false,
      "sequence": 4294967295
    },
    {
      "txid": "6ce6dd6b43f7d1fba41961e9492466f8fcb39907f5ac9be876c4bde3d26ce54e",
      "vout": 0,
      "prevout": {
        "scriptpubkey": "5120401ee2974c5f3cc27ea26206071a2982b10db6b93c8b6f41fc3a3c7b4297560d",
        "scriptpubkey_asm": "OP_PUSHNUM_1 OP_PUSHBYTES_32 401ee2974c5f3cc27ea26206071a2982b10db6b93c8b6f41fc3a3c7b4297560d",
        "scriptpubkey_type": "v1_p2tr",
        "scriptpubkey_address": "bc1pgq0w996vtu7vyl4zvgrqwx3fs2csmd4e8j9k7s0u8g78ks5h2cxsrgh3uv",
        "value": 546
      },
      "scriptsig": "",
      "scriptsig_asm": "",
      "witness": [
        "337bd7c520eb4687d54d00b763b7903e278d9286188b8ae8de12f4ab4a540afc00c096af2374ea0f81a7b862ddc7de091fc3fdd635b843aa50469bf822fa89a383"
      ],
      "is_coinbase": false,
      "sequence": 4294967295
    },
    {
      "txid": "68f6eacfed8ba4232be5bd413d05800ed9b1fc3bc36c616a4922b6b3f279ed33",
      "vout": 0,
      "prevout": {
        "scriptpubkey": "5120401ee2974c5f3cc27ea26206071a2982b10db6b93c8b6f41fc3a3c7b4297560d",
        "scriptpubkey_asm": "OP_PUSHNUM_1 OP_PUSHBYTES_32 401ee2974c5f3cc27ea26206071a2982b10db6b93c8b6f41fc3a3c7b4297560d",
        "scriptpubkey_type": "v1_p2tr",
        "scriptpubkey_address": "bc1pgq0w996vtu7vyl4zvgrqwx3fs2csmd4e8j9k7s0u8g78ks5h2cxsrgh3uv",
        "value": 546
      },
      "scriptsig": "",
      "scriptsig_asm": "",
      "witness": [
        "3e77354fb6a3d03652ca1e3a9e4b51158c9aeffabb74315b39a12a07f2668825b889cee3fe27fd6d95982f5dadf38db86d1e070e2696a310065484d81aa0394c83"
      ],
      "is_coinbase": false,
      "sequence": 4294967295
    },
    {
      "txid": "50cef5a42046b7c66b941158355f85295d9b72fb6788da3616606876ae24dd61",
      "vout": 0,
      "prevout": {
        "scriptpubkey": "5120401ee2974c5f3cc27ea26206071a2982b10db6b93c8b6f41fc3a3c7b4297560d",
        "scriptpubkey_asm": "OP_PUSHNUM_1 OP_PUSHBYTES_32 401ee2974c5f3cc27ea26206071a2982b10db6b93c8b6f41fc3a3c7b4297560d",
        "scriptpubkey_type": "v1_p2tr",
        "scriptpubkey_address": "bc1pgq0w996vtu7vyl4zvgrqwx3fs2csmd4e8j9k7s0u8g78ks5h2cxsrgh3uv",
        "value": 546
      },
      "scriptsig": "",
      "scriptsig_asm": "",
      "witness": [
        "2f9a78ea805926a4b7885f1cce7911de0d3a9d6c6eba8ce094e93a10eeb844311fa8619321d1133be3bcd193217a8c835baad394cb56c04873db316d21b7857883"
      ],
      "is_coinbase": false,
      "sequence": 4294967295
    },
    {
      "txid": "39cff83abb5b4092c8087b5bae4bd27d890d46685bb54621a3c8aa8680f74728",
      "vout": 0,
      "prevout": {
        "scriptpubkey": "5120401ee2974c5f3cc27ea26206071a2982b10db6b93c8b6f41fc3a3c7b4297560d",
        "scriptpubkey_asm": "OP_PUSHNUM_1 OP_PUSHBYTES_32 401ee2974c5f3cc27ea26206071a2982b10db6b93c8b6f41fc3a3c7b4297560d",
        "scriptpubkey_type": "v1_p2tr",
        "scriptpubkey_address": "bc1pgq0w996vtu7vyl4zvgrqwx3fs2csmd4e8j9k7s0u8g78ks5h2cxsrgh3uv",
        "value": 546
      },
      "scriptsig": "",
      "scriptsig_asm": "",
      "witness": [
        "83b71286dbf8fb5f3d33f52dc4b3a31e32348e4f0d051f3cc2e55628f337530e115cfb2687e03bfbce2ee8f165cae4c8046b5700c20a46cf71e5a8ef07a366eb83"
      ],
      "is_coinbase": false,
      "sequence": 4294967295
    },
    {
      "txid": "816f56296ff7e2b3531510167da60e590487f2561e7d5e1c07a1453120210f03",
      "vout": 6,
      "prevout": {
        "scriptpubkey": "5120f1768c246d76ff8a45c86e479459158c70d9b33887ba83b7b633606f1b0bb536",
        "scriptpubkey_asm": "OP_PUSHNUM_1 OP_PUSHBYTES_32 f1768c246d76ff8a45c86e479459158c70d9b33887ba83b7b633606f1b0bb536",
        "scriptpubkey_type": "v1_p2tr",
        "scriptpubkey_address": "bc1p79mgcfrdwmlc53wgderegkg433cdnvecs7ag8dakxdsx7xctk5mqnszxzv",
        "value": 247951
      },
      "scriptsig": "",
      "scriptsig_asm": "",
      "witness": [
        "c45ca22e39846be71f94cdd2e57800bbc4de3440db4d3b5bccaecf0ad13e2bc4681345bf1ccf2e5395c4850bb44b9ff337aaf9ef21d5c58668ca182da1cdac0e"
      ],
      "is_coinbase": false,
      "sequence": 4294967295
    }
  ],
  "vout": [
    {
      "scriptpubkey": "5120f1768c246d76ff8a45c86e479459158c70d9b33887ba83b7b633606f1b0bb536",
      "scriptpubkey_asm": "OP_PUSHNUM_1 OP_PUSHBYTES_32 f1768c246d76ff8a45c86e479459158c70d9b33887ba83b7b633606f1b0bb536",
      "scriptpubkey_type": "v1_p2tr",
      "scriptpubkey_address": "bc1p79mgcfrdwmlc53wgderegkg433cdnvecs7ag8dakxdsx7xctk5mqnszxzv",
      "value": 3600
    },
    {
      "scriptpubkey": "5120f1768c246d76ff8a45c86e479459158c70d9b33887ba83b7b633606f1b0bb536",
      "scriptpubkey_asm": "OP_PUSHNUM_1 OP_PUSHBYTES_32 f1768c246d76ff8a45c86e479459158c70d9b33887ba83b7b633606f1b0bb536",
      "scriptpubkey_type": "v1_p2tr",
      "scriptpubkey_address": "bc1p79mgcfrdwmlc53wgderegkg433cdnvecs7ag8dakxdsx7xctk5mqnszxzv",
      "value": 546
    },
    {
      "scriptpubkey": "5120f1768c246d76ff8a45c86e479459158c70d9b33887ba83b7b633606f1b0bb536",
      "scriptpubkey_asm": "OP_PUSHNUM_1 OP_PUSHBYTES_32 f1768c246d76ff8a45c86e479459158c70d9b33887ba83b7b633606f1b0bb536",
      "scriptpubkey_type": "v1_p2tr",
      "scriptpubkey_address": "bc1p79mgcfrdwmlc53wgderegkg433cdnvecs7ag8dakxdsx7xctk5mqnszxzv",
      "value": 546
    },
    {
      "scriptpubkey": "5120f1768c246d76ff8a45c86e479459158c70d9b33887ba83b7b633606f1b0bb536",
      "scriptpubkey_asm": "OP_PUSHNUM_1 OP_PUSHBYTES_32 f1768c246d76ff8a45c86e479459158c70d9b33887ba83b7b633606f1b0bb536",
      "scriptpubkey_type": "v1_p2tr",
      "scriptpubkey_address": "bc1p79mgcfrdwmlc53wgderegkg433cdnvecs7ag8dakxdsx7xctk5mqnszxzv",
      "value": 546
    },
    {
      "scriptpubkey": "5120f1768c246d76ff8a45c86e479459158c70d9b33887ba83b7b633606f1b0bb536",
      "scriptpubkey_asm": "OP_PUSHNUM_1 OP_PUSHBYTES_32 f1768c246d76ff8a45c86e479459158c70d9b33887ba83b7b633606f1b0bb536",
      "scriptpubkey_type": "v1_p2tr",
      "scriptpubkey_address": "bc1p79mgcfrdwmlc53wgderegkg433cdnvecs7ag8dakxdsx7xctk5mqnszxzv",
      "value": 546
    },
    {
      "scriptpubkey": "5120f1768c246d76ff8a45c86e479459158c70d9b33887ba83b7b633606f1b0bb536",
      "scriptpubkey_asm": "OP_PUSHNUM_1 OP_PUSHBYTES_32 f1768c246d76ff8a45c86e479459158c70d9b33887ba83b7b633606f1b0bb536",
      "scriptpubkey_type": "v1_p2tr",
      "scriptpubkey_address": "bc1p79mgcfrdwmlc53wgderegkg433cdnvecs7ag8dakxdsx7xctk5mqnszxzv",
      "value": 546
    },
    {
      "scriptpubkey": "5120401ee2974c5f3cc27ea26206071a2982b10db6b93c8b6f41fc3a3c7b4297560d",
      "scriptpubkey_asm": "OP_PUSHNUM_1 OP_PUSHBYTES_32 401ee2974c5f3cc27ea26206071a2982b10db6b93c8b6f41fc3a3c7b4297560d",
      "scriptpubkey_type": "v1_p2tr",
      "scriptpubkey_address": "bc1pgq0w996vtu7vyl4zvgrqwx3fs2csmd4e8j9k7s0u8g78ks5h2cxsrgh3uv",
      "value": 24546
    },
    {
      "scriptpubkey": "5120401ee2974c5f3cc27ea26206071a2982b10db6b93c8b6f41fc3a3c7b4297560d",
      "scriptpubkey_asm": "OP_PUSHNUM_1 OP_PUSHBYTES_32 401ee2974c5f3cc27ea26206071a2982b10db6b93c8b6f41fc3a3c7b4297560d",
      "scriptpubkey_type": "v1_p2tr",
      "scriptpubkey_address": "bc1pgq0w996vtu7vyl4zvgrqwx3fs2csmd4e8j9k7s0u8g78ks5h2cxsrgh3uv",
      "value": 24546
    },
    {
      "scriptpubkey": "5120401ee2974c5f3cc27ea26206071a2982b10db6b93c8b6f41fc3a3c7b4297560d",
      "scriptpubkey_asm": "OP_PUSHNUM_1 OP_PUSHBYTES_32 401ee2974c5f3cc27ea26206071a2982b10db6b93c8b6f41fc3a3c7b4297560d",
      "scriptpubkey_type": "v1_p2tr",
      "scriptpubkey_address": "bc1pgq0w996vtu7vyl4zvgrqwx3fs2csmd4e8j9k7s0u8g78ks5h2cxsrgh3uv",
      "value": 24546
    },
    {
      "scriptpubkey": "5120401ee2974c5f3cc27ea26206071a2982b10db6b93c8b6f41fc3a3c7b4297560d",
      "scriptpubkey_asm": "OP_PUSHNUM_1 OP_PUSHBYTES_32 401ee2974c5f3cc27ea26206071a2982b10db6b93c8b6f41fc3a3c7b4297560d",
      "scriptpubkey_type": "v1_p2tr",
      "scriptpubkey_address": "bc1pgq0w996vtu7vyl4zvgrqwx3fs2csmd4e8j9k7s0u8g78ks5h2cxsrgh3uv",
      "value": 24546
    },
    {
      "scriptpubkey": "5120401ee2974c5f3cc27ea26206071a2982b10db6b93c8b6f41fc3a3c7b4297560d",
      "scriptpubkey_asm": "OP_PUSHNUM_1 OP_PUSHBYTES_32 401ee2974c5f3cc27ea26206071a2982b10db6b93c8b6f41fc3a3c7b4297560d",
      "scriptpubkey_type": "v1_p2tr",
      "scriptpubkey_address": "bc1pgq0w996vtu7vyl4zvgrqwx3fs2csmd4e8j9k7s0u8g78ks5h2cxsrgh3uv",
      "value": 24546
    },
    {
      "scriptpubkey": "51209b57783ff38333b575f35634ba9795d28dddbe75b0e5fd582974df3b4f0fc37c",
      "scriptpubkey_asm": "OP_PUSHNUM_1 OP_PUSHBYTES_32 9b57783ff38333b575f35634ba9795d28dddbe75b0e5fd582974df3b4f0fc37c",
      "scriptpubkey_type": "v1_p2tr",
      "scriptpubkey_address": "bc1pndths0lnsvem2a0n2c6t49u462xam0n4krjl6kpfwn0nknc0cd7qmnxhf8",
      "value": 1200
    },
    {
      "scriptpubkey": "5120f1768c246d76ff8a45c86e479459158c70d9b33887ba83b7b633606f1b0bb536",
      "scriptpubkey_asm": "OP_PUSHNUM_1 OP_PUSHBYTES_32 f1768c246d76ff8a45c86e479459158c70d9b33887ba83b7b633606f1b0bb536",
      "scriptpubkey_type": "v1_p2tr",
      "scriptpubkey_address": "bc1p79mgcfrdwmlc53wgderegkg433cdnvecs7ag8dakxdsx7xctk5mqnszxzv",
      "value": 600
    },
    {
      "scriptpubkey": "5120f1768c246d76ff8a45c86e479459158c70d9b33887ba83b7b633606f1b0bb536",
      "scriptpubkey_asm": "OP_PUSHNUM_1 OP_PUSHBYTES_32 f1768c246d76ff8a45c86e479459158c70d9b33887ba83b7b633606f1b0bb536",
      "scriptpubkey_type": "v1_p2tr",
      "scriptpubkey_address": "bc1p79mgcfrdwmlc53wgderegkg433cdnvecs7ag8dakxdsx7xctk5mqnszxzv",
      "value": 600
    },
    {
      "scriptpubkey": "5120f1768c246d76ff8a45c86e479459158c70d9b33887ba83b7b633606f1b0bb536",
      "scriptpubkey_asm": "OP_PUSHNUM_1 OP_PUSHBYTES_32 f1768c246d76ff8a45c86e479459158c70d9b33887ba83b7b633606f1b0bb536",
      "scriptpubkey_type": "v1_p2tr",
      "scriptpubkey_address": "bc1p79mgcfrdwmlc53wgderegkg433cdnvecs7ag8dakxdsx7xctk5mqnszxzv",
      "value": 600
    },
    {
      "scriptpubkey": "5120f1768c246d76ff8a45c86e479459158c70d9b33887ba83b7b633606f1b0bb536",
      "scriptpubkey_asm": "OP_PUSHNUM_1 OP_PUSHBYTES_32 f1768c246d76ff8a45c86e479459158c70d9b33887ba83b7b633606f1b0bb536",
      "scriptpubkey_type": "v1_p2tr",
      "scriptpubkey_address": "bc1p79mgcfrdwmlc53wgderegkg433cdnvecs7ag8dakxdsx7xctk5mqnszxzv",
      "value": 600
    },
    {
      "scriptpubkey": "5120f1768c246d76ff8a45c86e479459158c70d9b33887ba83b7b633606f1b0bb536",
      "scriptpubkey_asm": "OP_PUSHNUM_1 OP_PUSHBYTES_32 f1768c246d76ff8a45c86e479459158c70d9b33887ba83b7b633606f1b0bb536",
      "scriptpubkey_type": "v1_p2tr",
      "scriptpubkey_address": "bc1p79mgcfrdwmlc53wgderegkg433cdnvecs7ag8dakxdsx7xctk5mqnszxzv",
      "value": 600
    },
    {
      "scriptpubkey": "5120f1768c246d76ff8a45c86e479459158c70d9b33887ba83b7b633606f1b0bb536",
      "scriptpubkey_asm": "OP_PUSHNUM_1 OP_PUSHBYTES_32 f1768c246d76ff8a45c86e479459158c70d9b33887ba83b7b633606f1b0bb536",
      "scriptpubkey_type": "v1_p2tr",
      "scriptpubkey_address": "bc1p79mgcfrdwmlc53wgderegkg433cdnvecs7ag8dakxdsx7xctk5mqnszxzv",
      "value": 600
    },
    {
      "scriptpubkey": "5120f1768c246d76ff8a45c86e479459158c70d9b33887ba83b7b633606f1b0bb536",
      "scriptpubkey_asm": "OP_PUSHNUM_1 OP_PUSHBYTES_32 f1768c246d76ff8a45c86e479459158c70d9b33887ba83b7b633606f1b0bb536",
      "scriptpubkey_type": "v1_p2tr",
      "scriptpubkey_address": "bc1p79mgcfrdwmlc53wgderegkg433cdnvecs7ag8dakxdsx7xctk5mqnszxzv",
      "value": 97381
    }
  ],
  "size": 2118,
  "weight": 6075,
  "fee": 23040,
  "status": {
    "confirmed": true,
    "block_height": 834460,
    "block_hash": "00000000000000000000484a79b643b2524bbce82e5d8a442013fa5b8905ed98",
    "block_time": 1710307468
  },
  "hex": "0200000000010c030f21203145a1071c5e7d1e56f28704590ea67d16101553b3e2f76f29566f810000000000ffffffff030f21203145a1071c5e7d1e56f28704590ea67d16101553b3e2f76f29566f810100000000ffffffff030f21203145a1071c5e7d1e56f28704590ea67d16101553b3e2f76f29566f810200000000ffffffff030f21203145a1071c5e7d1e56f28704590ea67d16101553b3e2f76f29566f810300000000ffffffff030f21203145a1071c5e7d1e56f28704590ea67d16101553b3e2f76f29566f810400000000ffffffff030f21203145a1071c5e7d1e56f28704590ea67d16101553b3e2f76f29566f810500000000ffffffff7860ebd368bfea5affada3731e13dc4059abd2230addeea68f2f8a30ecdf98700000000000ffffffff4ee56cd2e3bdc476e89bacf50799b3fcf8662449e96119a4fbd1f7436bdde66c0000000000ffffffff33ed79f2b3b622496a616cc33bfcb1d90e80053d41bde52b23a48bedcfeaf6680000000000ffffffff61dd24ae7668601636da8867fb729b5d29855f355811946bc6b74620a4f5ce500000000000ffffffff2847f78086aac8a32146b55b68460d897dd24bae5b7b08c892405bbb3af8cf390000000000ffffffff030f21203145a1071c5e7d1e56f28704590ea67d16101553b3e2f76f29566f810600000000ffffffff13100e000000000000225120f1768c246d76ff8a45c86e479459158c70d9b33887ba83b7b633606f1b0bb5362202000000000000225120f1768c246d76ff8a45c86e479459158c70d9b33887ba83b7b633606f1b0bb5362202000000000000225120f1768c246d76ff8a45c86e479459158c70d9b33887ba83b7b633606f1b0bb5362202000000000000225120f1768c246d76ff8a45c86e479459158c70d9b33887ba83b7b633606f1b0bb5362202000000000000225120f1768c246d76ff8a45c86e479459158c70d9b33887ba83b7b633606f1b0bb5362202000000000000225120f1768c246d76ff8a45c86e479459158c70d9b33887ba83b7b633606f1b0bb536e25f000000000000225120401ee2974c5f3cc27ea26206071a2982b10db6b93c8b6f41fc3a3c7b4297560de25f000000000000225120401ee2974c5f3cc27ea26206071a2982b10db6b93c8b6f41fc3a3c7b4297560de25f000000000000225120401ee2974c5f3cc27ea26206071a2982b10db6b93c8b6f41fc3a3c7b4297560de25f000000000000225120401ee2974c5f3cc27ea26206071a2982b10db6b93c8b6f41fc3a3c7b4297560de25f000000000000225120401ee2974c5f3cc27ea26206071a2982b10db6b93c8b6f41fc3a3c7b4297560db0040000000000002251209b57783ff38333b575f35634ba9795d28dddbe75b0e5fd582974df3b4f0fc37c5802000000000000225120f1768c246d76ff8a45c86e479459158c70d9b33887ba83b7b633606f1b0bb5365802000000000000225120f1768c246d76ff8a45c86e479459158c70d9b33887ba83b7b633606f1b0bb5365802000000000000225120f1768c246d76ff8a45c86e479459158c70d9b33887ba83b7b633606f1b0bb5365802000000000000225120f1768c246d76ff8a45c86e479459158c70d9b33887ba83b7b633606f1b0bb5365802000000000000225120f1768c246d76ff8a45c86e479459158c70d9b33887ba83b7b633606f1b0bb5365802000000000000225120f1768c246d76ff8a45c86e479459158c70d9b33887ba83b7b633606f1b0bb536657c010000000000225120f1768c246d76ff8a45c86e479459158c70d9b33887ba83b7b633606f1b0bb5360140e27c9fad5bfd006bd335e748b15503f3b6248104f5aedd65c59ff5a02361e6f246e67d42e5aacd1484b7f2e30a1ba5c60e0620b720350a0649ef4f61b84fef100140b57d176b37e728ff249d383b0d6c2e1dfedbb7cff7f1d50f907eb8eac1c47adc7cc12124d485ec7de5a5e3f536fcddc7884ac43fe6b11cb42da32fdd2b45dc30014071f0bd5bff88b2c0830fb4cbf213bc3e84151e85f600b32e56abf01d6a199b072fcc900ff4c2a5738ad97514124779d18c53f104d49c87659bc41f017b7406bc0140cfaae6787413dc5b585c9bc8e26c075d1bdf76082d9b651173519261a6e94a47e08390200393a34812a009ec9c6ad88ea981d2b5244f084af1f2aadd380e564c01400c6a630c35451b7ffbc650f13e39fe3df87d759e22fb230e911e7d9273823719affe6ce3abf368c2b8f7294975af987b1731e78540846b89aa17df900297fd78014041c7dfc07350bcb3fa8069a2727b817ebffdfb7104136f9dc4fb2c2cae91b9bffdedfffdee7957160a3ab9e5e97ed8e5f0c038f3ecb0d485bfea7b5ad95c17cc0141f88f4a38036af18dc3e6cf972ddf544e68fbfa9d2697546b657bc8dcca0f75271f3db8e1c8924fd2bf253e191a32a15e53c2026bd22348b3e89e3a28a2212888830141337bd7c520eb4687d54d00b763b7903e278d9286188b8ae8de12f4ab4a540afc00c096af2374ea0f81a7b862ddc7de091fc3fdd635b843aa50469bf822fa89a38301413e77354fb6a3d03652ca1e3a9e4b51158c9aeffabb74315b39a12a07f2668825b889cee3fe27fd6d95982f5dadf38db86d1e070e2696a310065484d81aa0394c8301412f9a78ea805926a4b7885f1cce7911de0d3a9d6c6eba8ce094e93a10eeb844311fa8619321d1133be3bcd193217a8c835baad394cb56c04873db316d21b7857883014183b71286dbf8fb5f3d33f52dc4b3a31e32348e4f0d051f3cc2e55628f337530e115cfb2687e03bfbce2ee8f165cae4c8046b5700c20a46cf71e5a8ef07a366eb830140c45ca22e39846be71f94cdd2e57800bbc4de3440db4d3b5bccaecf0ad13e2bc4681345bf1ccf2e5395c4850bb44b9ff337aaf9ef21d5c58668ca182da1cdac0e00000000"
}