{
  "txid": "716eafabafcb12efac2e273a98d150686bed49a733ad8ea635a1961165199ceb",
  "version": 2,
  "locktime": 834324,
  "vin": [
    {
      "txid": "0fc4aa083f457e12c060ddf637b0367bdb83a06bc4527dc46c911e16817e88a9",
      "vout": 7,
      "prevout": {
        "scriptpubkey": "0014ce9048681c5b06ff391b37e8371d8953095623ef",
        "scriptpubkey_asm": "OP_0 OP_PUSHBYTES_20 ce9048681c5b06ff391b37e8371d8953095623ef",
        "scriptpubkey_type": "v0_p2wpkh",
        "scriptpubkey_address": "bc1qe6gys6qutvr07wgmxl5rw8vf2vy4vgl0sschvs",
        "value": 49000
      },
      "scriptsig": "",
      "scriptsig_asm": "",
      "witness": [
        "304402200e06e60dd01d6b740d2823209bbe79c77b015fda040163f085a4100ac0362730022016bf5609439e4e0b487c15b5cd84fb2a5e984dde357bdc7698474372922a91fc01",
        "0364a2cdd8c78360e8ce48a401e61658bb46cdff93bc230a677c75631157ae2933"
      ],
      "is_coinbase": false,
      "sequence": 4294967293
    }
  ],
  "vout": [
    {
      "scriptpubkey": "001466eb1a9b39571207ceab5e92775d3f6d54c5445d",
      "scriptpubkey_asm": "OP_0 OP_PUSHBYTES_20 66eb1a9b39571207ceab5e92775d3f6d54c5445d",
      "scriptpubkey_type": "v0_p2wpkh",
      "scriptpubkey_address": "bc1qvm434xee2ufq0n4tt6f8whfld42v23zapdtx85",
      "value": 47790
    }
  ],
  "size": 191,
  "weight": 437,
  "fee": 1210,
  "status": {
    "confirmed": true,
    "block_height": 834464,
    "block_hash": "0000000000000000000177a0869a911a2b65c9bdcd5a8bcb02b68f305bee848e",
    "block_time": 1710308296
  },
  "hex": "02000000000101a9887e81161e916cc47d52c46ba083db7b36b037f6dd60c0127e453f08aac40f0700000000fdffffff01aeba00000000000016001466eb1a9b39571207ceab5e92775d3f6d54c5445d0247304402200e06e60dd01d6b740d2823209bbe79c77b015fda040163f085a4100ac0362730022016bf5609439e4e0b487c15b5cd84fb2a5e984dde357bdc7698474372922a91fc01210364a2cdd8c78360e8ce48a401e61658bb46cdff93bc230a677c75631157ae293314bb0c00"
}