{
  "txid": "717b106c2921561a6911337ba203d76114ef9853a00cb096f6b7333493b469a2",
  "version": 2,
  "locktime": 0,
  "vin": [
    {
      "txid": "1697a87491ba67723203510393978ad6f83d937c1619a9574690f776524cff4f",
      "vout": 1,
      "prevout": {
        "scriptpubkey": "0014fadc8893ea33ded45d350e4a871bfd4ec9ec095e",
        "scriptpubkey_asm": "OP_0 OP_PUSHBYTES_20 fadc8893ea33ded45d350e4a871bfd4ec9ec095e",
        "scriptpubkey_type": "v0_p2wpkh",
        "scriptpubkey_address": "bc1qltwg3yl2x00dghf4pe9gwxlafmy7cz27p2putc",
        "value": 13273
      },
      "scriptsig": "",
      "scriptsig_asm": "",
      "witness": [
        "304402200af35ea6abdf451b7226c88380f66f5cdd39e3487bd9d70236fd0025e28b9be902202f6f31c11831049f618b49e12d2af513253a2b709a87974a99e024237a0b13e101",
        "023c4f3cf9fa6edb7d7f3bd46a9bcd94b3e77ae0d9d10eb67648c1da6133d1c201"
      ],
      "is_coinbase": false,
      "sequence": 4294967295
    }
  ],
  "vout": [
    {
      "scriptpubkey": "00144eb54e8f75db7eb95a83b9c4ed55728364d548ca",
      "scriptpubkey_asm": "OP_0 OP_PUSHBYTES_20 4eb54e8f75db7eb95a83b9c4ed55728364d548ca",
      "scriptpubkey_type": "v0_p2wpkh",
      "scriptpubkey_address": "bc1qf665arm4mdltjk5rh8zw64tjsdjd2jx2f49z2w",
      "value": 6975
    }
  ],
  "size": 191,
  "weight": 437,
  "fee": 6298,
  "status": {
    "confirmed": true,
    "block_height": 834638,
    "block_hash": "000000000000000000025f742c626208ac87e0b7d15054abb4a19ca2d735a54e",
    "block_time": 1710405325
  },
  "hex": "020000000001014fff4c5276f7904657a919167c933df8d68a9793035103327267ba9174a897160100000000ffffffff013f1b0000000000001600144eb54e8f75db7eb95a83b9c4ed55728364d548ca0247304402200af35ea6abdf451b7226c88380f66f5cdd39e3487bd9d70236fd0025e28b9be902202f6f31c11831049f618b49e12d2af513253a2b709a87974a99e024237a0b13e10121023c4f3cf9fa6edb7d7f3bd46a9bcd94b3e77ae0d9d10eb67648c1da6133d1c20100000000"
}