{
  "txid": "717c0ebc88fea82a10b3d918d8f3f6d0b159f25a9b55b46674149f966069897a",
  "version": 2,
  "locktime": 0,
  "vin": [
    {
      "txid": "1371512961e741fe4f4eb0b5481a2685d60d280ff9743e5135029692f6d939cf",
      "vout": 0,
      "prevout": {
        "scriptpubkey": "51202889d6b6c00220404ec2ebb95d069c16c9f13109afae0d143688c7d2173c7434",
        "scriptpubkey_asm": "OP_PUSHNUM_1 OP_PUSHBYTES_32 2889d6b6c00220404ec2ebb95d069c16c9f13109afae0d143688c7d2173c7434",
        "scriptpubkey_type": "v1_p2tr",
        "scriptpubkey_address": "bc1p9zyaddkqqgsyqnkzawu46p5uzmylzvgf47hq69pk3rray9euws6qjnwc3p",
        "value": 600
      },
      "scriptsig": "",
      "scriptsig_asm": "",
      "witness": [
        "ca1e13a121abd4bacbf9163e82c97fef7361fabaa718c4e2c969760ad4e01062bbf128cc8308f211c22b0111e8edf58da938747b84cbd24590ff5c5fb29f74f0"
      ],
      "is_coinbase": false,
      "sequence": 4294967295
    },
    {
      "txid": "1371512961e741fe4f4eb0b5481a2685d60d280ff9743e5135029692f6d939cf",
      "vout": 1,
      "prevout": {
        "scriptpubkey": "51202889d6b6c00220404ec2ebb95d069c16c9f13109afae0d143688c7d2173c7434",
        "scriptpubkey_asm": "OP_PUSHNUM_1 OP_PUSHBYTES_32 2889d6b6c00220404ec2ebb95d069c16c9f13109afae0d143688c7d2173c7434",
        "scriptpubkey_type": "v1_p2tr",
        "scriptpubkey_address": "bc1p9zyaddkqqgsyqnkzawu46p5uzmylzvgf47hq69pk3rray9euws6qjnwc3p",
        "value": 600
      },
      "scriptsig": "",
      "scriptsig_asm": "",
      "witness": [
        "d04f4933844618c6c9ecc2f1523c869ec3394407c6092bc314cb690226ac31bc8662083aee5de955aa1052a807efff8663feb9f4662f9d6e50297c40cf4a8e2f"
      ],
      "is_coinbase": false,
      "sequence": 4294967295
    },
    {
      "txid": "a7540a7efb3b0e558404d983bf0a2826c948591aac87fe9065a8762e39619336",
      "vout": 1,
      "prevout": {
        "scriptpubkey": "51205ab01ebdc094480b1575ceda57ea30b048a813910deb9c8b7c5bd4f7205a5df2",
        "scriptpubkey_asm": "OP_PUSHNUM_1 OP_PUSHBYTES_32 5ab01ebdc094480b1575ceda57ea30b048a813910deb9c8b7c5bd4f7205a5df2",
        "scriptpubkey_type": "v1_p2tr",
        "scriptpubkey_address": "bc1pt2cpa0wqj3yqk9t4emd9063skpy2syu3ph4eezmut020wgz6theqtc78qu",
        "value": 546
      },
      "scriptsig": "",
      "scriptsig_asm": "",
      "witness": [
        "39af1ee7178547d004d6de42b1f9d181c0b190ed36c841ba6b117df342076c5da76641fb976f3ed4cf492cdcfc73e8b8a8e4b9cfc04c2a2c586b45c67be7a02f83"
      ],
      "is_coinbase": false,
      "sequence": 4294967295
    },
    {
      "txid": "1371512961e741fe4f4eb0b5481a2685d60d280ff9743e5135029692f6d939cf",
      "vout": 2,
      "prevout": {
        "scriptpubkey": "51202889d6b6c00220404ec2ebb95d069c16c9f13109afae0d143688c7d2173c7434",
        "scriptpubkey_asm": "OP_PUSHNUM_1 OP_PUSHBYTES_32 2889d6b6c00220404ec2ebb95d069c16c9f13109afae0d143688c7d2173c7434",
        "scriptpubkey_type": "v1_p2tr",
        "scriptpubkey_address": "bc1p9zyaddkqqgsyqnkzawu46p5uzmylzvgf47hq69pk3rray9euws6qjnwc3p",
        "value": 370200
      },
      "scriptsig": "",
      "scriptsig_asm": "",
      "witness": [
        "ec173a85879c37222dc1aa4c106c0b0ed641f5eba5a340b6a2037de036f15c427ff04b7fc530044db5b961dd1ac0bb349d4305daf8e47740bfcf4cc1608f7680"
      ],
      "is_coinbase": false,
      "sequence": 4294967295
    }
  ],
  "vout": [
    {
      "scriptpubkey": "51202889d6b6c00220404ec2ebb95d069c16c9f13109afae0d143688c7d2173c7434",
      "scriptpubkey_asm": "OP_PUSHNUM_1 OP_PUSHBYTES_32 2889d6b6c00220404ec2ebb95d069c16c9f13109afae0d143688c7d2173c7434",
      "scriptpubkey_type": "v1_p2tr",
      "scriptpubkey_address": "bc1p9zyaddkqqgsyqnkzawu46p5uzmylzvgf47hq69pk3rray9euws6qjnwc3p",
      "value": 1200
    },
    {
      "scriptpubkey": "51202889d6b6c00220404ec2ebb95d069c16c9f13109afae0d143688c7d2173c7434",
      "scriptpubkey_asm": "OP_PUSHNUM_1 OP_PUSHBYTES_32 2889d6b6c00220404ec2ebb95d069c16c9f13109afae0d143688c7d2173c7434",
      "scriptpubkey_type": "v1_p2tr",
      "scriptpubkey_address": "bc1p9zyaddkqqgsyqnkzawu46p5uzmylzvgf47hq69pk3rray9euws6qjnwc3p",
      "value": 546
    },
    {
      "scriptpubkey": "51205ab01ebdc094480b1575ceda57ea30b048a813910deb9c8b7c5bd4f7205a5df2",
      "scriptpubkey_asm": "OP_PUSHNUM_1 OP_PUSHBYTES_32 5ab01ebdc094480b1575ceda57ea30b048a813910deb9c8b7c5bd4f7205a5df2",
      "scriptpubkey_type": "v1_p2tr",
      "scriptpubkey_address": "bc1pt2cpa0wqj3yqk9t4emd9063skpy2syu3ph4eezmut020wgz6theqtc78qu",
      "value": 220546
    },
    {
      "scriptpubkey": "51209b57783ff38333b575f35634ba9795d28dddbe75b0e5fd582974df3b4f0fc37c",
      "scriptpubkey_asm": "OP_PUSHNUM_1 OP_PUSHBYTES_32 9b57783ff38333b575f35634ba9795d28dddbe75b0e5fd582974df3b4f0fc37c",
      "scriptpubkey_type": "v1_p2tr",
      "scriptpubkey_address": "bc1pndths0lnsvem2a0n2c6t49u462xam0n4krjl6kpfwn0nknc0cd7qmnxhf8",
      "value": 2200
    },
    {
      "scriptpubkey": "51202889d6b6c00220404ec2ebb95d069c16c9f13109afae0d143688c7d2173c7434",
      "scriptpubkey_asm": "OP_PUSHNUM_1 OP_PUSHBYTES_32 2889d6b6c00220404ec2ebb95d069c16c9f13109afae0d143688c7d2173c7434",
      "scriptpubkey_type": "v1_p2tr",
      "scriptpubkey_address": "bc1p9zyaddkqqgsyqnkzawu46p5uzmylzvgf47hq69pk3rray9euws6qjnwc3p",
      "value": 600
    },
    {
      "scriptpubkey": "51202889d6b6c00220404ec2ebb95d069c16c9f13109afae0d143688c7d2173c7434",
      "scriptpubkey_asm": "OP_PUSHNUM_1 OP_PUSHBYTES_32 2889d6b6c00220404ec2ebb95d069c16c9f13109afae0d143688c7d2173c7434",
      "scriptpubkey_type": "v1_p2tr",
      "scriptpubkey_address": "bc1p9zyaddkqqgsyqnkzawu46p5uzmylzvgf47hq69pk3rray9euws6qjnwc3p",
      "value": 600
    },
    {
      "scriptpubkey": "51202889d6b6c00220404ec2ebb95d069c16c9f13109afae0d143688c7d2173c7434",
      "scriptpubkey_asm": "OP_PUSHNUM_1 OP_PUSHBYTES_32 2889d6b6c00220404ec2ebb95d069c16c9f13109afae0d143688c7d2173c7434",
      "scriptpubkey_type": "v1_p2tr",
      "scriptpubkey_address": "bc1p9zyaddkqqgsyqnkzawu46p5uzmylzvgf47hq69pk3rray9euws6qjnwc3p",
      "value": 137854
    }
  ],
  "size": 742,
  "weight": 2167,
  "fee": 8400,
  "status": {
    "confirmed": true,
    "block_height": 834638,
    "block_hash": "000000000000000000025f742c626208ac87e0b7d15054abb4a19ca2d735a54e",
    "block_time": 1710405325
  },
  "hex": "02000000000104cf39d9f692960235513e74f90f280dd685261a48b5b04e4ffe41e761295171130000000000ffffffffcf39d9f692960235513e74f90f280dd685261a48b5b04e4ffe41e761295171130100000000ffffffff369361392e76a86590fe87ac1a5948c926280abf83d90484550e3bfb7e0a54a70100000000ffffffffcf39d9f692960235513e74f90f280dd685261a48b5b04e4ffe41e761295171130200000000ffffffff07b0040000000000002251202889d6b6c00220404ec2ebb95d069c16c9f13109afae0d143688c7d2173c743422020000000000002251202889d6b6c00220404ec2ebb95d069c16c9f13109afae0d143688c7d2173c7434825d0300000000002251205ab01ebdc094480b1575ceda57ea30b048a813910deb9c8b7c5bd4f7205a5df298080000000000002251209b57783ff38333b575f35634ba9795d28dddbe75b0e5fd582974df3b4f0fc37c58020000000000002251202889d6b6c00220404ec2ebb95d069c16c9f13109afae0d143688c7d2173c743458020000000000002251202889d6b6c00220404ec2ebb95d069c16c9f13109afae0d143688c7d2173c74347e1a0200000000002251202889d6b6c00220404ec2ebb95d069c16c9f13109afae0d143688c7d2173c74340140ca1e13a121abd4bacbf9163e82c97fef7361fabaa718c4e2c969760ad4e01062bbf128cc8308f211c22b0111e8edf58da938747b84cbd24590ff5c5fb29f74f00140d04f4933844618c6c9ecc2f1523c869ec3394407c6092bc314cb690226ac31bc8662083aee5de955aa1052a807efff8663feb9f4662f9d6e50297c40cf4a8e2f014139af1ee7178547d004d6de42b1f9d181c0b190ed36c841ba6b117df342076c5da76641fb976f3ed4cf492cdcfc73e8b8a8e4b9cfc04c2a2c586b45c67be7a02f830140ec173a85879c37222dc1aa4c106c0b0ed641f5eba5a340b6a2037de036f15c427ff04b7fc530044db5b961dd1ac0bb349d4305daf8e47740bfcf4cc1608f768000000000"
}