{
  "txid": "71a01b24d3c704e1df5b2e30ae8733d3b03c94d40377ddb4b43e51119dfe64a9",
  "version": 2,
  "locktime": 0,
  "vin": [
    {
      "txid": "7b9a6e70b8dc917ca704e795850952e496c9bf9459b0ad79ad5af6935d78a556",
      "vout": 0,
      "prevout": {
        "scriptpubkey": "0014d3a7b04b54dfd87779df024fc9e0829bb2143494",
        "scriptpubkey_asm": "OP_0 OP_PUSHBYTES_20 d3a7b04b54dfd87779df024fc9e0829bb2143494",
        "scriptpubkey_type": "v0_p2wpkh",
        "scriptpubkey_address": "bc1q6wnmqj65mlv8w7wlqf8uncyznwepgdy5nacuwy",
        "value": 1352734
      },
      "scriptsig": "",
      "scriptsig_asm": "",
      "witness": [
        "3045022100ca6100cf2157ed5d2adf190c773ecb2a78030ab035688ecf2f0d44c0f583d5a0022060c3823f15382f994a6a6d8dfede23c521c6cf4eaa6d40adf87821c42fd5397d81",
        "02a6f2700578b6ecc1a5ed9852e0be22fd6473bf28bf39d5edf44f24f7a5a0b17b"
      ],
      "is_coinbase": false,
      "sequence": 4294967290
    }
  ],
  "vout": [
    {
      "scriptpubkey": "0014a5c96fec1e452cdb7e930ba5aefbb62723138e10",
      "scriptpubkey_asm": "OP_0 OP_PUSHBYTES_20 a5c96fec1e452cdb7e930ba5aefbb62723138e10",
      "scriptpubkey_type": "v0_p2wpkh",
      "scriptpubkey_address": "bc1q5hyklmq7g5kdkl5npwj6a7akyu338rsshk3es2",
      "value": 456353
    },
    {
      "scriptpubkey": "0014ed1901ce0775a7df842d1a5a139c14838c05f19b",
      "scriptpubkey_asm": "OP_0 OP_PUSHBYTES_20 ed1901ce0775a7df842d1a5a139c14838c05f19b",
      "scriptpubkey_type": "v0_p2wpkh",
      "scriptpubkey_address": "bc1qa5vsrns8wknalppdrfdp88q5swxqtuvm4n9d9h",
      "value": 894389
    }
  ],
  "size": 223,
  "weight": 562,
  "fee": 1992,
  "status": {
    "confirmed": true,
    "block_height": 834460,
    "block_hash": "00000000000000000000484a79b643b2524bbce82e5d8a442013fa5b8905ed98",
    "block_time": 1710307468
  },
  "hex": "0200000000010156a5785d93f65aad79adb05994bfc996e452098595e704a77c91dcb8706e9a7b0000000000faffffff02a1f6060000000000160014a5c96fec1e452cdb7e930ba5aefbb62723138e10b5a50d0000000000160014ed1901ce0775a7df842d1a5a139c14838c05f19b02483045022100ca6100cf2157ed5d2adf190c773ecb2a78030ab035688ecf2f0d44c0f583d5a0022060c3823f15382f994a6a6d8dfede23c521c6cf4eaa6d40adf87821c42fd5397d812102a6f2700578b6ecc1a5ed9852e0be22fd6473bf28bf39d5edf44f24f7a5a0b17b00000000"
}