{
  "txid": "71af4d6665d594e5892fedea2be709001cb1998ab8363c81c0ab01638690f8ec",
  "version": 1,
  "locktime": 0,
  "vin": [
    {
      "txid": "a0400c07849009781b3df90d6b9c8165979fbcd24e4db51189f0daa900d66a84",
      "vout": 14,
      "prevout": {
        "scriptpubkey": "76a914030939efb2a42776b286b57ac3f06ab03cfad9c788ac",
        "scriptpubkey_asm": "OP_DUP OP_HASH160 OP_PUSHBYTES_20 030939efb2a42776b286b57ac3f06ab03cfad9c7 OP_EQUALVERIFY OP_CHECKSIG",
        "scriptpubkey_type": "p2pkh",
        "scriptpubkey_address": "1H45dbiRMNJ8t9b7v3dPCuTVUEjF3dduo",
        "value": 24910
      },
      "scriptsig": "483045022100c9de8e5b1189682701e1061e0e13bed1e1039a1532ae148a20fb1387ab50e8920220136a6d917e4c94962a29a56d5ddb4d5c95075c3b3140b18e005d8645857bcfa5012102f57a9172be3bff00980168be0c67c28914a2a091b61fcf0b582237a36c0fe127",
      "scriptsig_asm": "OP_PUSHBYTES_72 3045022100c9de8e5b1189682701e1061e0e13bed1e1039a1532ae148a20fb1387ab50e8920220136a6d917e4c94962a29a56d5ddb4d5c95075c3b3140b18e005d8645857bcfa501 OP_PUSHBYTES_33 02f57a9172be3bff00980168be0c67c28914a2a091b61fcf0b582237a36c0fe127",
      "is_coinbase": false,
      "sequence": 4294967295
    }
  ],
  "vout": [
    {
      "scriptpubkey": "a91483245263f668f48beb2164af716519cc659239f987",
      "scriptpubkey_asm": "OP_HASH160 OP_PUSHBYTES_20 83245263f668f48beb2164af716519cc659239f9 OP_EQUAL",
      "scriptpubkey_type": "p2sh",
      "scriptpubkey_address": "3DeRxMnB58nHy62yufyw9vdV4j4iBUX1hY",
      "value": 22820
    }
  ],
  "size": 190,
  "weight": 760,
  "fee": 2090,
  "status": {
    "confirmed": true,
    "block_height": 834464,
    "block_hash": "0000000000000000000177a0869a911a2b65c9bdcd5a8bcb02b68f305bee848e",
    "block_time": 1710308296
  },
  "hex": "0100000001846ad600a9daf08911b54d4ed2bc9f9765819c6b0df93d1b78099084070c40a00e0000006b483045022100c9de8e5b1189682701e1061e0e13bed1e1039a1532ae148a20fb1387ab50e8920220136a6d917e4c94962a29a56d5ddb4d5c95075c3b3140b18e005d8645857bcfa5012102f57a9172be3bff00980168be0c67c28914a2a091b61fcf0b582237a36c0fe127ffffffff01245900000000000017a91483245263f668f48beb2164af716519cc659239f98700000000"
}