{
  "txid": "71bd2d163bde2a4dfa155a3f2ffbaa4586650c0f18123d511897e98f5035d397",
  "version": 2,
  "locktime": 0,
  "vin": [
    {
      "txid": "b45a122155c7c16fc7c8db01d5e821aa20ce972b3b5406d0d6611388d205f9e3",
      "vout": 40,
      "prevout": {
        "scriptpubkey": "0014c2c1c5296dc86dc27a159d75c4566de692d91d74",
        "scriptpubkey_asm": "OP_0 OP_PUSHBYTES_20 c2c1c5296dc86dc27a159d75c4566de692d91d74",
        "scriptpubkey_type": "v0_p2wpkh",
        "scriptpubkey_address": "bc1qctqu22tdepkuy7s4n46ug4ndu6fdj8t56jhkvl",
        "value": 347520
      },
      "scriptsig": "",
      "scriptsig_asm": "",
      "witness": [
        "3045022100f1a04e7b48a29db1556de9094e8a48fcf81222a2e2c9b5b2c6f607804aa87f8f02206db72fb38ed0fd8086c8366b0eab43f7094ef8c9217042537ca0d5b1756d7d6e01",
        "0379529164109ea9283c8da6611d203e208462a3c4b97331c988f1480cec78e2c6"
      ],
      "is_coinbase": false,
      "sequence": 4294967293
    }
  ],
  "vout": [
    {
      "scriptpubkey": "001415018ffca420d38ba08d29c30e61daef5d2ea212",
      "scriptpubkey_asm": "OP_0 OP_PUSHBYTES_20 15018ffca420d38ba08d29c30e61daef5d2ea212",
      "scriptpubkey_type": "v0_p2wpkh",
      "scriptpubkey_address": "bc1qz5qcll9yyrfchgyd98psucw6aawjagsj2eea7w",
      "value": 119275
    },
    {
      "scriptpubkey": "00141c70c804e9b34af2447b2410bbfa59d62fe7bf43",
      "scriptpubkey_asm": "OP_0 OP_PUSHBYTES_20 1c70c804e9b34af2447b2410bbfa59d62fe7bf43",
      "scriptpubkey_type": "v0_p2wpkh",
      "scriptpubkey_address": "bc1qr3cvsp8fkd90y3rmysgth7je6ch7006rayzzeq",
      "value": 223781
    }
  ],
  "size": 223,
  "weight": 562,
  "fee": 4464,
  "status": {
    "confirmed": true,
    "block_height": 834638,
    "block_hash": "000000000000000000025f742c626208ac87e0b7d15054abb4a19ca2d735a54e",
    "block_time": 1710405325
  },
  "hex": "02000000000101e3f905d2881361d6d006543b2b97ce20aa21e8d501dbc8c76fc1c75521125ab42800000000fdffffff02ebd101000000000016001415018ffca420d38ba08d29c30e61daef5d2ea212256a0300000000001600141c70c804e9b34af2447b2410bbfa59d62fe7bf4302483045022100f1a04e7b48a29db1556de9094e8a48fcf81222a2e2c9b5b2c6f607804aa87f8f02206db72fb38ed0fd8086c8366b0eab43f7094ef8c9217042537ca0d5b1756d7d6e01210379529164109ea9283c8da6611d203e208462a3c4b97331c988f1480cec78e2c600000000"
}