{
  "txid": "71c4918d4b8f216b7bdba9036edb693507441ae36b06d1cef89227e20449b027",
  "version": 1,
  "locktime": 0,
  "vin": [
    {
      "txid": "b1005be198d92b3f362e51a117d8840a5105365c85990aa082dff4423ef275d7",
      "vout": 0,
      "prevout": {
        "scriptpubkey": "51208d2ef50b1dbbe660bb8e1948b13c21a8db37ffd8dd3b9670f9525a58d8bfee10",
        "scriptpubkey_asm": "OP_PUSHNUM_1 OP_PUSHBYTES_32 8d2ef50b1dbbe660bb8e1948b13c21a8db37ffd8dd3b9670f9525a58d8bfee10",
        "scriptpubkey_type": "v1_p2tr",
        "scriptpubkey_address": "bc1p35h02zcah0nxpwuwr9ytz0pp4rdn0l7cm5aevu8e2fd93k9lacgqu5zphd",
        "value": 10000
      },
      "scriptsig": "",
      "scriptsig_asm": "",
      "witness": [
        "c41236cc5a4fe3a9aa18139164bbfc85a26568282499ff628c2665ffd30bb827f9ddf0616b9918d35b78feddbbfe244726eb1b0b7730f8ef8c78568c2074033e"
      ],
      "is_coinbase": false,
      "sequence": 4294967293
    }
  ],
  "vout": [
    {
      "scriptpubkey": "5120da6e1f4d108c16d0ae0c1e5d5013328f1cef54dc77aefccc38a3f2e132404ab7",
      "scriptpubkey_asm": "OP_PUSHNUM_1 OP_PUSHBYTES_32 da6e1f4d108c16d0ae0c1e5d5013328f1cef54dc77aefccc38a3f2e132404ab7",
      "scriptpubkey_type": "v1_p2tr",
      "scriptpubkey_address": "bc1pmfhp7ngs3stdptsvrew4qyej3uww74xuw7h0enpc50ewzvjqf2msqwdcks",
      "value": 546
    },
    {
      "scriptpubkey": "512073bb4d8ea83f1774fa1d1af961c7728bad3d50d2243670f86700d249de31219c",
      "scriptpubkey_asm": "OP_PUSHNUM_1 OP_PUSHBYTES_32 73bb4d8ea83f1774fa1d1af961c7728bad3d50d2243670f86700d249de31219c",
      "scriptpubkey_type": "v1_p2tr",
      "scriptpubkey_address": "bc1pwwa5mr4g8uthf7sartukr3mj3wkn65xjysm8p7r8qrfynh33yxwqvzwwax",
      "value": 6836
    }
  ],
  "size": 205,
  "weight": 616,
  "fee": 2618,
  "status": {
    "confirmed": true,
    "block_height": 834638,
    "block_hash": "000000000000000000025f742c626208ac87e0b7d15054abb4a19ca2d735a54e",
    "block_time": 1710405325
  },
  "hex": "01000000000101d775f23e42f4df82a00a99855c3605510a84d817a1512e363f2bd998e15b00b10000000000fdffffff022202000000000000225120da6e1f4d108c16d0ae0c1e5d5013328f1cef54dc77aefccc38a3f2e132404ab7b41a00000000000022512073bb4d8ea83f1774fa1d1af961c7728bad3d50d2243670f86700d249de31219c0140c41236cc5a4fe3a9aa18139164bbfc85a26568282499ff628c2665ffd30bb827f9ddf0616b9918d35b78feddbbfe244726eb1b0b7730f8ef8c78568c2074033e00000000"
}