{
  "txid": "71cceb56ecde070538cb20f4a49590690c7f48d9ada1335aa91572ab34708338",
  "version": 2,
  "locktime": 834463,
  "vin": [
    {
      "txid": "9607201695db794ef38e21719f3b46d836c1a96f991c646382ad106df76add94",
      "vout": 0,
      "prevout": {
        "scriptpubkey": "0014e4fdb2976283d8845ee580f617476a94c9e619d7",
        "scriptpubkey_asm": "OP_0 OP_PUSHBYTES_20 e4fdb2976283d8845ee580f617476a94c9e619d7",
        "scriptpubkey_type": "v0_p2wpkh",
        "scriptpubkey_address": "bc1qun7m99mzs0vgghh9srmpw3m2jny7vxwh9n3htf",
        "value": 3170744
      },
      "scriptsig": "",
      "scriptsig_asm": "",
      "witness": [
        "304402205e218dc7b4cdb2760c14dbc1b903d9fb3825e51ba66ea1be82d3de045194903502207e85c5213088661acdb58bcb16e1f84abf6ab59072a7dea2e49c44683fb2256e01",
        "034a552575b46e759108e90afa084800763f354e8fa01775d27d09cba9c0acf078"
      ],
      "is_coinbase": false,
      "sequence": 4294967294
    }
  ],
  "vout": [
    {
      "scriptpubkey": "51206f7a3809bfc99c88fe8bd72ab0c86500da1cc503028a1eb2139cf41ef242163d",
      "scriptpubkey_asm": "OP_PUSHNUM_1 OP_PUSHBYTES_32 6f7a3809bfc99c88fe8bd72ab0c86500da1cc503028a1eb2139cf41ef242163d",
      "scriptpubkey_type": "v1_p2tr",
      "scriptpubkey_address": "bc1pdaarszdlexwg3l5t6u4tpjr9qrdpe3grq29pavsnnn6paujzzc7sjqurt7",
      "value": 396000
    },
    {
      "scriptpubkey": "0014d0b5dfdf20757a0c7fad08dc188bb6714a300009",
      "scriptpubkey_asm": "OP_0 OP_PUSHBYTES_20 d0b5dfdf20757a0c7fad08dc188bb6714a300009",
      "scriptpubkey_type": "v0_p2wpkh",
      "scriptpubkey_address": "bc1q6z6alheqw4aqcladprwp3zakw99rqqqfj3vw6t",
      "value": 2770614
    }
  ],
  "size": 234,
  "weight": 609,
  "fee": 4130,
  "status": {
    "confirmed": true,
    "block_height": 834464,
    "block_hash": "0000000000000000000177a0869a911a2b65c9bdcd5a8bcb02b68f305bee848e",
    "block_time": 1710308296
  },
  "hex": "0200000000010194dd6af76d10ad8263641c996fa9c136d8463b9f71218ef34e79db95162007960000000000feffffff02e00a0600000000002251206f7a3809bfc99c88fe8bd72ab0c86500da1cc503028a1eb2139cf41ef242163db6462a0000000000160014d0b5dfdf20757a0c7fad08dc188bb6714a3000090247304402205e218dc7b4cdb2760c14dbc1b903d9fb3825e51ba66ea1be82d3de045194903502207e85c5213088661acdb58bcb16e1f84abf6ab59072a7dea2e49c44683fb2256e0121034a552575b46e759108e90afa084800763f354e8fa01775d27d09cba9c0acf0789fbb0c00"
}