{
  "txid": "71eb0097b55369771caa4aa4e2920c457378d7f70c61893163e4bb2447bd8ef3",
  "version": 1,
  "locktime": 0,
  "vin": [
    {
      "txid": "f1dd55557469fd9ac335004229c14dfa4ccc8b6db20797b94f08905cdce3a859",
      "vout": 12,
      "prevout": {
        "scriptpubkey": "76a914a3aa51d8873f276aa215131527eef00cfbc372a188ac",
        "scriptpubkey_asm": "OP_DUP OP_HASH160 OP_PUSHBYTES_20 a3aa51d8873f276aa215131527eef00cfbc372a1 OP_EQUALVERIFY OP_CHECKSIG",
        "scriptpubkey_type": "p2pkh",
        "scriptpubkey_address": "1FvPBHnAacJft4DKmWbXNofrtEeqredHPx",
        "value": 164700238
      },
      "scriptsig": "473044022060335613b780be8d32d23dbf5f9337e5612cd7c24a23430687d96bec7f545163022042cb31c23f0406c536328589c07a82e178c28b318191008d975d80367dcfa810012102f0b244b6f49f967e1c4709a6332b82a6d531da36d57f9b32234de09c6cb599f4",
      "scriptsig_asm": "OP_PUSHBYTES_71 3044022060335613b780be8d32d23dbf5f9337e5612cd7c24a23430687d96bec7f545163022042cb31c23f0406c536328589c07a82e178c28b318191008d975d80367dcfa81001 OP_PUSHBYTES_33 02f0b244b6f49f967e1c4709a6332b82a6d531da36d57f9b32234de09c6cb599f4",
      "is_coinbase": false,
      "sequence": 4294967295
    },
    {
      "txid": "63a976882335968f7ee3de40db787805eea85d83d018698d72e2233a11b88746",
      "vout": 25,
      "prevout": {
        "scriptpubkey": "76a914a3aa51d8873f276aa215131527eef00cfbc372a188ac",
        "scriptpubkey_asm": "OP_DUP OP_HASH160 OP_PUSHBYTES_20 a3aa51d8873f276aa215131527eef00cfbc372a1 OP_EQUALVERIFY OP_CHECKSIG",
        "scriptpubkey_type": "p2pkh",
        "scriptpubkey_address": "1FvPBHnAacJft4DKmWbXNofrtEeqredHPx",
        "value": 209980000
      },
      "scriptsig": "48304502210096d8b3b53f93ae819668fefecbbab8c1b5f1ba9654397fa126890c52cdae4bf2022021415c4d698c098c36220c11c1e7a3f208879488eed67d094b15f8f89b3fbe76012102f0b244b6f49f967e1c4709a6332b82a6d531da36d57f9b32234de09c6cb599f4",
      "scriptsig_asm": "OP_PUSHBYTES_72 304502210096d8b3b53f93ae819668fefecbbab8c1b5f1ba9654397fa126890c52cdae4bf2022021415c4d698c098c36220c11c1e7a3f208879488eed67d094b15f8f89b3fbe7601 OP_PUSHBYTES_33 02f0b244b6f49f967e1c4709a6332b82a6d531da36d57f9b32234de09c6cb599f4",
      "is_coinbase": false,
      "sequence": 4294967295
    },
    {
      "txid": "1ddae77e15cdeb0eb24af3eb70eb0e4e69ef93f16ed26869b716569b6adf1b8c",
      "vout": 1,
      "prevout": {
        "scriptpubkey": "0014a3aa51d8873f276aa215131527eef00cfbc372a1",
        "scriptpubkey_asm": "OP_0 OP_PUSHBYTES_20 a3aa51d8873f276aa215131527eef00cfbc372a1",
        "scriptpubkey_type": "v0_p2wpkh",
        "scriptpubkey_address": "bc1q5w49rky88unk4gs4zv2j0mhspnauxu4pjg3kc0",
        "value": 6067020105
      },
      "scriptsig": "",
      "scriptsig_asm": "",
      "witness": [
        "3045022100d84358647d30b78fc986723a748f84ac041bd01d3bcd47b59ca1eb6e3bf7d51e02207ed88df6f2ee3e1d87a9b2adbd5d0ddd80ddeeb10e20be1db49afde10186097201",
        "02f0b244b6f49f967e1c4709a6332b82a6d531da36d57f9b32234de09c6cb599f4"
      ],
      "is_coinbase": false,
      "sequence": 4294967295
    }
  ],
  "vout": [
    {
      "scriptpubkey": "0014a2d7eb5e6ba4977bb56b90e1fb0edf73eedf214f",
      "scriptpubkey_asm": "OP_0 OP_PUSHBYTES_20 a2d7eb5e6ba4977bb56b90e1fb0edf73eedf214f",
      "scriptpubkey_type": "v0_p2wpkh",
      "scriptpubkey_address": "bc1q5tt7khnt5jthhdttjrslkrklw0hd7g207l7tlv",
      "value": 500000000
    },
    {
      "scriptpubkey": "0014a3aa51d8873f276aa215131527eef00cfbc372a1",
      "scriptpubkey_asm": "OP_0 OP_PUSHBYTES_20 a3aa51d8873f276aa215131527eef00cfbc372a1",
      "scriptpubkey_type": "v0_p2wpkh",
      "scriptpubkey_address": "bc1q5w49rky88unk4gs4zv2j0mhspnauxu4pjg3kc0",
      "value": 5941692405
    }
  ],
  "size": 520,
  "weight": 1744,
  "fee": 7938,
  "status": {
    "confirmed": true,
    "block_height": 834638,
    "block_hash": "000000000000000000025f742c626208ac87e0b7d15054abb4a19ca2d735a54e",
    "block_time": 1710405325
  },
  "hex": "0100000000010359a8e3dc5c90084fb99707b26d8bcc4cfa4dc129420035c39afd69745555ddf10c0000006a473044022060335613b780be8d32d23dbf5f9337e5612cd7c24a23430687d96bec7f545163022042cb31c23f0406c536328589c07a82e178c28b318191008d975d80367dcfa810012102f0b244b6f49f967e1c4709a6332b82a6d531da36d57f9b32234de09c6cb599f4ffffffff4687b8113a23e2728d6918d0835da8ee057878db40dee37e8f9635238876a963190000006b48304502210096d8b3b53f93ae819668fefecbbab8c1b5f1ba9654397fa126890c52cdae4bf2022021415c4d698c098c36220c11c1e7a3f208879488eed67d094b15f8f89b3fbe76012102f0b244b6f49f967e1c4709a6332b82a6d531da36d57f9b32234de09c6cb599f4ffffffff8c1bdf6a9b5616b76968d26ef193ef694e0eeb70ebf34ab20eebcd157ee7da1d0100000000ffffffff020065cd1d00000000160014a2d7eb5e6ba4977bb56b90e1fb0edf73eedf214ff507276201000000160014a3aa51d8873f276aa215131527eef00cfbc372a1000002483045022100d84358647d30b78fc986723a748f84ac041bd01d3bcd47b59ca1eb6e3bf7d51e02207ed88df6f2ee3e1d87a9b2adbd5d0ddd80ddeeb10e20be1db49afde101860972012102f0b244b6f49f967e1c4709a6332b82a6d531da36d57f9b32234de09c6cb599f400000000"
}