{
  "txid": "71f0f8938aa0805e168a744e482bc5ba215a4718ee07f0e37d6c4dca84fe5a44",
  "version": 1,
  "locktime": 0,
  "vin": [
    {
      "txid": "0e0c8196a3775eda48692e9375c57025ed05fafbd639018f8d6829ca3c480ea1",
      "vout": 60,
      "prevout": {
        "scriptpubkey": "00145ebc787666d4bc321c4f9d2f42c8a5567869046f",
        "scriptpubkey_asm": "OP_0 OP_PUSHBYTES_20 5ebc787666d4bc321c4f9d2f42c8a5567869046f",
        "scriptpubkey_type": "v0_p2wpkh",
        "scriptpubkey_address": "bc1qt678sanx6j7ry8z0n5h59j992euxjpr0qd9hwz",
        "value": 68339
      },
      "scriptsig": "",
      "scriptsig_asm": "",
      "witness": [
        "304402202a2f8298c3b2bbd78e29961190df4fa28932161c1a293bd4fa3c08e27aae2b720220549fd8bd809ccd7f59f37b2ff8f0ce5d4f3f15f0c17da2598a8f013046a506d301",
        "03f0b98a59ce323c81490d055d5de1dfcb07b3d1ddfa737b22022b91fbc3cd3610"
      ],
      "is_coinbase": false,
      "sequence": 4294967295
    }
  ],
  "vout": [
    {
      "scriptpubkey": "76a91432b1e75c86c77d43f07146aebe512d4c0b2e03f388ac",
      "scriptpubkey_asm": "OP_DUP OP_HASH160 OP_PUSHBYTES_20 32b1e75c86c77d43f07146aebe512d4c0b2e03f3 OP_EQUALVERIFY OP_CHECKSIG",
      "scriptpubkey_type": "p2pkh",
      "scriptpubkey_address": "15d3uZYkR6DGHZxAnMCyiics5JSugjvBiB",
      "value": 65288
    }
  ],
  "size": 194,
  "weight": 449,
  "fee": 3051,
  "status": {
    "confirmed": true,
    "block_height": 834638,
    "block_hash": "000000000000000000025f742c626208ac87e0b7d15054abb4a19ca2d735a54e",
    "block_time": 1710405325
  },
  "hex": "01000000000101a10e483cca29688d8f0139d6fbfa05ed2570c575932e6948da5e77a396810c0e3c00000000ffffffff0108ff0000000000001976a91432b1e75c86c77d43f07146aebe512d4c0b2e03f388ac0247304402202a2f8298c3b2bbd78e29961190df4fa28932161c1a293bd4fa3c08e27aae2b720220549fd8bd809ccd7f59f37b2ff8f0ce5d4f3f15f0c17da2598a8f013046a506d3012103f0b98a59ce323c81490d055d5de1dfcb07b3d1ddfa737b22022b91fbc3cd361000000000"
}