{
  "txid": "72056e5941ca613511c0cfc3081336c241e7e8a172003d4d668a6a2b4c3e6de4",
  "version": 2,
  "locktime": 0,
  "vin": [
    {
      "txid": "b13bb5512a4904c28a6b7957b88edf574e8cb23551fc1dcfe22d6b239df42cf4",
      "vout": 72,
      "prevout": {
        "scriptpubkey": "5120e07033bb36107732d80f4be2e0707aceeb8175fd4457620c6793f2140711790b",
        "scriptpubkey_asm": "OP_PUSHNUM_1 OP_PUSHBYTES_32 e07033bb36107732d80f4be2e0707aceeb8175fd4457620c6793f2140711790b",
        "scriptpubkey_type": "v1_p2tr",
        "scriptpubkey_address": "bc1pupcr8wekzpmn9kq0f03wqur6em4cza0ag3tkyrr8j0epgpc30y9s7tmt83",
        "value": 2575
      },
      "scriptsig": "",
      "scriptsig_asm": "",
      "witness": [
        "aaeede419cd10d3568c4c6802bfb7f6c4d3142c5b056b47d98097d8db2f72139864533a658b3e63a37f20ca97fd2571c025e388d8e5dce2ec3738fb61a785a1e",
        "2067681b6cc0b6ff3c7930c02e1e09bb10bb430946d28ff0e060f7120a5d51536bac0063036f726401010a746578742f706c61696e00367b2270223a226272632d3230222c226f70223a226d696e74222c227469636b223a2261616161222c22616d74223a223130303030227d68",
        "c167681b6cc0b6ff3c7930c02e1e09bb10bb430946d28ff0e060f7120a5d51536b"
      ],
      "is_coinbase": false,
      "sequence": 4261412863
    }
  ],
  "vout": [
    {
      "scriptpubkey": "0014ce0b5aa0dac72397a8aa5a85d90a2cfb46f0f630",
      "scriptpubkey_asm": "OP_0 OP_PUSHBYTES_20 ce0b5aa0dac72397a8aa5a85d90a2cfb46f0f630",
      "scriptpubkey_type": "v0_p2wpkh",
      "scriptpubkey_address": "bc1qec944gx6cu3e0292t2zajz3vldr0pa3sh356d9",
      "value": 546
    }
  ],
  "size": 295,
  "weight": 541,
  "fee": 2029,
  "status": {
    "confirmed": true,
    "block_height": 834464,
    "block_hash": "0000000000000000000177a0869a911a2b65c9bdcd5a8bcb02b68f305bee848e",
    "block_time": 1710308296
  },
  "hex": "02000000000101f42cf49d236b2de2cf1dfc5135b28c4e57df8eb857796b8ac204492a51b53bb14800000000fffffffd012202000000000000160014ce0b5aa0dac72397a8aa5a85d90a2cfb46f0f6300340aaeede419cd10d3568c4c6802bfb7f6c4d3142c5b056b47d98097d8db2f72139864533a658b3e63a37f20ca97fd2571c025e388d8e5dce2ec3738fb61a785a1e6e2067681b6cc0b6ff3c7930c02e1e09bb10bb430946d28ff0e060f7120a5d51536bac0063036f726401010a746578742f706c61696e00367b2270223a226272632d3230222c226f70223a226d696e74222c227469636b223a2261616161222c22616d74223a223130303030227d6821c167681b6cc0b6ff3c7930c02e1e09bb10bb430946d28ff0e060f7120a5d51536b00000000"
}