{
  "txid": "720d7a60dc73b27fa50203fb5a8bf9c2439499439327da2ba21b198611e50cda",
  "version": 1,
  "locktime": 0,
  "vin": [
    {
      "txid": "ce046ff2ee99566ef0bfb01ac786ce97901d3fc9fa86ae919a39376011fad7de",
      "vout": 1,
      "prevout": {
        "scriptpubkey": "00149b1659ebc1e98f5423a62a50fd7d48075197851b",
        "scriptpubkey_asm": "OP_0 OP_PUSHBYTES_20 9b1659ebc1e98f5423a62a50fd7d48075197851b",
        "scriptpubkey_type": "v0_p2wpkh",
        "scriptpubkey_address": "bc1qnvt9n67pax84ggax9fg06l2gqage0pgmns4da0",
        "value": 266818
      },
      "scriptsig": "",
      "scriptsig_asm": "",
      "witness": [
        "30450221008e543ec01d6b82779a3203fc2e4bd7b928410c830b3c5789a179702c4cb0bdc902205d421d945f70629454ef8070d1796f5bce261f94dd2bbea69e243ee775c7d3f701",
        "0347c80e1f2630bdf936d8758e2604d13caa023fd0d926a0a9989ba6e62963704c"
      ],
      "is_coinbase": false,
      "sequence": 4294967295
    }
  ],
  "vout": [
    {
      "scriptpubkey": "001452e91d9607e1e7b89b247db1d9478ae2b0f47c5a",
      "scriptpubkey_asm": "OP_0 OP_PUSHBYTES_20 52e91d9607e1e7b89b247db1d9478ae2b0f47c5a",
      "scriptpubkey_type": "v0_p2wpkh",
      "scriptpubkey_address": "bc1q2t53m9s8u8nm3xey0kcaj3u2u2c0glz6nmgp42",
      "value": 136300
    },
    {
      "scriptpubkey": "00149b1659ebc1e98f5423a62a50fd7d48075197851b",
      "scriptpubkey_asm": "OP_0 OP_PUSHBYTES_20 9b1659ebc1e98f5423a62a50fd7d48075197851b",
      "scriptpubkey_type": "v0_p2wpkh",
      "scriptpubkey_address": "bc1qnvt9n67pax84ggax9fg06l2gqage0pgmns4da0",
      "value": 126711
    }
  ],
  "size": 223,
  "weight": 562,
  "fee": 3807,
  "status": {
    "confirmed": true,
    "block_height": 834638,
    "block_hash": "000000000000000000025f742c626208ac87e0b7d15054abb4a19ca2d735a54e",
    "block_time": 1710405325
  },
  "hex": "01000000000101ded7fa116037399a91ae86fac93f1d9097ce86c71ab0bff06e5699eef26f04ce0100000000ffffffff026c1402000000000016001452e91d9607e1e7b89b247db1d9478ae2b0f47c5af7ee0100000000001600149b1659ebc1e98f5423a62a50fd7d48075197851b024830450221008e543ec01d6b82779a3203fc2e4bd7b928410c830b3c5789a179702c4cb0bdc902205d421d945f70629454ef8070d1796f5bce261f94dd2bbea69e243ee775c7d3f701210347c80e1f2630bdf936d8758e2604d13caa023fd0d926a0a9989ba6e62963704c00000000"
}