{
  "txid": "72232b27f144f59f2a99174c12a678b833c9630c338992c94b987b2c8b8cb019",
  "version": 2,
  "locktime": 0,
  "vin": [
    {
      "txid": "0fbfd137a64949ea2564fdc4dd3fcdedcf5fd35566495cf6a3d88b4e56a0b992",
      "vout": 1,
      "prevout": {
        "scriptpubkey": "5120dba28cb92bcaccbdacca2800d0da7400c9f5a55f846ef9b0235559c4981548fe",
        "scriptpubkey_asm": "OP_PUSHNUM_1 OP_PUSHBYTES_32 dba28cb92bcaccbdacca2800d0da7400c9f5a55f846ef9b0235559c4981548fe",
        "scriptpubkey_type": "v1_p2tr",
        "scriptpubkey_address": "bc1pmw3gewftetxtmtx29qqdpkn5qryltf2ls3h0nvpr24vufxq4frlqnfy7qj",
        "value": 2929722
      },
      "scriptsig": "",
      "scriptsig_asm": "",
      "witness": [
        "7c4106d4be37250f6abd65c067ab3df9d38f5c692fc57ba8f45d881001f969ac4110c2c9383f8f7e0c89ab9809de29a9adbcea3e6d3cbbf248ed679496a747db"
      ],
      "is_coinbase": false,
      "sequence": 4294967295
    }
  ],
  "vout": [
    {
      "scriptpubkey": "51200d896d45c8b1e9512b48e93d5b0b1a6204baaaec6e509eb54abd767ed785a1da",
      "scriptpubkey_asm": "OP_PUSHNUM_1 OP_PUSHBYTES_32 0d896d45c8b1e9512b48e93d5b0b1a6204baaaec6e509eb54abd767ed785a1da",
      "scriptpubkey_type": "v1_p2tr",
      "scriptpubkey_address": "bc1ppkyk63wgk854z26gay74kzc6vgzt42hvdegfad22h4m8a4u958dqgxk7nr",
      "value": 5000
    },
    {
      "scriptpubkey": "5120dba28cb92bcaccbdacca2800d0da7400c9f5a55f846ef9b0235559c4981548fe",
      "scriptpubkey_asm": "OP_PUSHNUM_1 OP_PUSHBYTES_32 dba28cb92bcaccbdacca2800d0da7400c9f5a55f846ef9b0235559c4981548fe",
      "scriptpubkey_type": "v1_p2tr",
      "scriptpubkey_address": "bc1pmw3gewftetxtmtx29qqdpkn5qryltf2ls3h0nvpr24vufxq4frlqnfy7qj",
      "value": 2921950
    }
  ],
  "size": 205,
  "weight": 616,
  "fee": 2772,
  "status": {
    "confirmed": true,
    "block_height": 834638,
    "block_hash": "000000000000000000025f742c626208ac87e0b7d15054abb4a19ca2d735a54e",
    "block_time": 1710405325
  },
  "hex": "0200000000010192b9a0564e8bd8a3f65c496655d35fcfedcd3fddc4fd6425ea4949a637d1bf0f0100000000ffffffff0288130000000000002251200d896d45c8b1e9512b48e93d5b0b1a6204baaaec6e509eb54abd767ed785a1dade952c0000000000225120dba28cb92bcaccbdacca2800d0da7400c9f5a55f846ef9b0235559c4981548fe01407c4106d4be37250f6abd65c067ab3df9d38f5c692fc57ba8f45d881001f969ac4110c2c9383f8f7e0c89ab9809de29a9adbcea3e6d3cbbf248ed679496a747db00000000"
}