{
  "txid": "7257f999dc5911efe68be8340bb7bbbcb7517594c48c824770897b57931465c5",
  "version": 2,
  "locktime": 0,
  "vin": [
    {
      "txid": "813d314db7a0aea5794c466502ae563f33ddd58fb74a62b8f7303197443d2890",
      "vout": 6,
      "prevout": {
        "scriptpubkey": "5120f8ea817befe330fce3c55f66a41706d5456b2d953b1e1e14099e8c6203ba6217",
        "scriptpubkey_asm": "OP_PUSHNUM_1 OP_PUSHBYTES_32 f8ea817befe330fce3c55f66a41706d5456b2d953b1e1e14099e8c6203ba6217",
        "scriptpubkey_type": "v1_p2tr",
        "scriptpubkey_address": "bc1plr4gz7l0uvc0ec79tan2g9cx64zkktv48v0pu9qfn6xxyqa6vgtsajg8ex",
        "value": 600
      },
      "scriptsig": "",
      "scriptsig_asm": "",
      "witness": [
        "bf67c292e7aa467b2ca9072d1d9e0e125b09996d0ff6bcc661ed4f0fd99b732b81aa962b7b12152c832e0323ae5fea891a7bacd9f24d4adeb60aa7c292fb13a1"
      ],
      "is_coinbase": false,
      "sequence": 2147483649
    },
    {
      "txid": "cb9a61f1c180f2c6740d0eb32e1082d7bd7520b4deeebc16aad2887431f3c916",
      "vout": 4,
      "prevout": {
        "scriptpubkey": "5120f8ea817befe330fce3c55f66a41706d5456b2d953b1e1e14099e8c6203ba6217",
        "scriptpubkey_asm": "OP_PUSHNUM_1 OP_PUSHBYTES_32 f8ea817befe330fce3c55f66a41706d5456b2d953b1e1e14099e8c6203ba6217",
        "scriptpubkey_type": "v1_p2tr",
        "scriptpubkey_address": "bc1plr4gz7l0uvc0ec79tan2g9cx64zkktv48v0pu9qfn6xxyqa6vgtsajg8ex",
        "value": 600
      },
      "scriptsig": "",
      "scriptsig_asm": "",
      "witness": [
        "52626e463b43bef9ce1b5c0b3ae1a7d14136419014ada64bd7d1a44b890a636f80912adc0a5da318b8fd1c75c6c5b914643150546bbab5a7d887cbbc84ede146"
      ],
      "is_coinbase": false,
      "sequence": 2147483649
    },
    {
      "txid": "cdabdb6eec5280a3784f539fbe06c154b2409528a047aa525e116468e8924cd2",
      "vout": 0,
      "prevout": {
        "scriptpubkey": "512053b5638ff06f030a4c97f83ad1ad1f94ccc5031b3f33fe8e06554e8b3d32a5b8",
        "scriptpubkey_asm": "OP_PUSHNUM_1 OP_PUSHBYTES_32 53b5638ff06f030a4c97f83ad1ad1f94ccc5031b3f33fe8e06554e8b3d32a5b8",
        "scriptpubkey_type": "v1_p2tr",
        "scriptpubkey_address": "bc1p2w6k8rlsdups5nyhlqadrtgljnxv2qcm8uelarsx248gk0fj5kuqfmssyu",
        "value": 546
      },
      "scriptsig": "",
      "scriptsig_asm": "",
      "witness": [
        "9b06c18dcbcd38c6c91bdc65352a49012428f3913d11bd440c444a4ebb6b576f89ae64060d8a354b8992b190d236ba768c78ceea7001a3360b9858e9dcfd1f3283"
      ],
      "is_coinbase": false,
      "sequence": 4294967295
    },
    {
      "txid": "b5aa212aadfec90a6d6fb348649792e4b6ef03f5ee7ee6d9ce0109f808fca548",
      "vout": 1,
      "prevout": {
        "scriptpubkey": "5120f8ea817befe330fce3c55f66a41706d5456b2d953b1e1e14099e8c6203ba6217",
        "scriptpubkey_asm": "OP_PUSHNUM_1 OP_PUSHBYTES_32 f8ea817befe330fce3c55f66a41706d5456b2d953b1e1e14099e8c6203ba6217",
        "scriptpubkey_type": "v1_p2tr",
        "scriptpubkey_address": "bc1plr4gz7l0uvc0ec79tan2g9cx64zkktv48v0pu9qfn6xxyqa6vgtsajg8ex",
        "value": 313355
      },
      "scriptsig": "",
      "scriptsig_asm": "",
      "witness": [
        "857aaddb717817108866c7e3257908601e7b59a7a25dc95a6a960aff9057ad0a36a3b43353cc13c33af899e850184a1fdfe2b878a40c1120c1a7dadcd396f868"
      ],
      "is_coinbase": false,
      "sequence": 2147483649
    },
    {
      "txid": "e88bd37e8378cc68725d70e47a2edfa14b7678ef9d57f6cf68724288a98342c4",
      "vout": 1,
      "prevout": {
        "scriptpubkey": "5120f8ea817befe330fce3c55f66a41706d5456b2d953b1e1e14099e8c6203ba6217",
        "scriptpubkey_asm": "OP_PUSHNUM_1 OP_PUSHBYTES_32 f8ea817befe330fce3c55f66a41706d5456b2d953b1e1e14099e8c6203ba6217",
        "scriptpubkey_type": "v1_p2tr",
        "scriptpubkey_address": "bc1plr4gz7l0uvc0ec79tan2g9cx64zkktv48v0pu9qfn6xxyqa6vgtsajg8ex",
        "value": 186532
      },
      "scriptsig": "",
      "scriptsig_asm": "",
      "witness": [
        "0a97717f8cd91c7e9f06579a4e4aaa896fd21e043a2666052291962abc87a7c3521089122773a3fc81612c4076bc7764a9e5a3419b5f3f795bc282fdc49df2ef"
      ],
      "is_coinbase": false,
      "sequence": 2147483649
    }
  ],
  "vout": [
    {
      "scriptpubkey": "5120f8ea817befe330fce3c55f66a41706d5456b2d953b1e1e14099e8c6203ba6217",
      "scriptpubkey_asm": "OP_PUSHNUM_1 OP_PUSHBYTES_32 f8ea817befe330fce3c55f66a41706d5456b2d953b1e1e14099e8c6203ba6217",
      "scriptpubkey_type": "v1_p2tr",
      "scriptpubkey_address": "bc1plr4gz7l0uvc0ec79tan2g9cx64zkktv48v0pu9qfn6xxyqa6vgtsajg8ex",
      "value": 1200
    },
    {
      "scriptpubkey": "5120f8ea817befe330fce3c55f66a41706d5456b2d953b1e1e14099e8c6203ba6217",
      "scriptpubkey_asm": "OP_PUSHNUM_1 OP_PUSHBYTES_32 f8ea817befe330fce3c55f66a41706d5456b2d953b1e1e14099e8c6203ba6217",
      "scriptpubkey_type": "v1_p2tr",
      "scriptpubkey_address": "bc1plr4gz7l0uvc0ec79tan2g9cx64zkktv48v0pu9qfn6xxyqa6vgtsajg8ex",
      "value": 546
    },
    {
      "scriptpubkey": "512053b5638ff06f030a4c97f83ad1ad1f94ccc5031b3f33fe8e06554e8b3d32a5b8",
      "scriptpubkey_asm": "OP_PUSHNUM_1 OP_PUSHBYTES_32 53b5638ff06f030a4c97f83ad1ad1f94ccc5031b3f33fe8e06554e8b3d32a5b8",
      "scriptpubkey_type": "v1_p2tr",
      "scriptpubkey_address": "bc1p2w6k8rlsdups5nyhlqadrtgljnxv2qcm8uelarsx248gk0fj5kuqfmssyu",
      "value": 400000
    },
    {
      "scriptpubkey": "5120f8ea817befe330fce3c55f66a41706d5456b2d953b1e1e14099e8c6203ba6217",
      "scriptpubkey_asm": "OP_PUSHNUM_1 OP_PUSHBYTES_32 f8ea817befe330fce3c55f66a41706d5456b2d953b1e1e14099e8c6203ba6217",
      "scriptpubkey_type": "v1_p2tr",
      "scriptpubkey_address": "bc1plr4gz7l0uvc0ec79tan2g9cx64zkktv48v0pu9qfn6xxyqa6vgtsajg8ex",
      "value": 600
    },
    {
      "scriptpubkey": "5120f8ea817befe330fce3c55f66a41706d5456b2d953b1e1e14099e8c6203ba6217",
      "scriptpubkey_asm": "OP_PUSHNUM_1 OP_PUSHBYTES_32 f8ea817befe330fce3c55f66a41706d5456b2d953b1e1e14099e8c6203ba6217",
      "scriptpubkey_type": "v1_p2tr",
      "scriptpubkey_address": "bc1plr4gz7l0uvc0ec79tan2g9cx64zkktv48v0pu9qfn6xxyqa6vgtsajg8ex",
      "value": 600
    },
    {
      "scriptpubkey": "5120f8ea817befe330fce3c55f66a41706d5456b2d953b1e1e14099e8c6203ba6217",
      "scriptpubkey_asm": "OP_PUSHNUM_1 OP_PUSHBYTES_32 f8ea817befe330fce3c55f66a41706d5456b2d953b1e1e14099e8c6203ba6217",
      "scriptpubkey_type": "v1_p2tr",
      "scriptpubkey_address": "bc1plr4gz7l0uvc0ec79tan2g9cx64zkktv48v0pu9qfn6xxyqa6vgtsajg8ex",
      "value": 89775
    }
  ],
  "size": 806,
  "weight": 2225,
  "fee": 8912,
  "status": {
    "confirmed": true,
    "block_height": 834460,
    "block_hash": "00000000000000000000484a79b643b2524bbce82e5d8a442013fa5b8905ed98",
    "block_time": 1710307468
  },
  "hex": "0200000000010590283d44973130f7b8624ab78fd5dd333f56ae0265464c79a5aea0b74d313d8106000000000100008016c9f3317488d2aa16bceedeb42075bdd782102eb30e0d74c6f280c1f1619acb040000000001000080d24c92e86864115e52aa47a0289540b254c106be9f534f78a38052ec6edbabcd0000000000ffffffff48a5fc08f80901ced9e67eeef503efb6e492976448b36f6d0ac9fead2a21aab5010000000001000080c44283a988427268cff6579def78764ba1df2e7ae4705d7268cc78837ed38be801000000000100008006b004000000000000225120f8ea817befe330fce3c55f66a41706d5456b2d953b1e1e14099e8c6203ba62172202000000000000225120f8ea817befe330fce3c55f66a41706d5456b2d953b1e1e14099e8c6203ba6217801a06000000000022512053b5638ff06f030a4c97f83ad1ad1f94ccc5031b3f33fe8e06554e8b3d32a5b85802000000000000225120f8ea817befe330fce3c55f66a41706d5456b2d953b1e1e14099e8c6203ba62175802000000000000225120f8ea817befe330fce3c55f66a41706d5456b2d953b1e1e14099e8c6203ba6217af5e010000000000225120f8ea817befe330fce3c55f66a41706d5456b2d953b1e1e14099e8c6203ba62170140bf67c292e7aa467b2ca9072d1d9e0e125b09996d0ff6bcc661ed4f0fd99b732b81aa962b7b12152c832e0323ae5fea891a7bacd9f24d4adeb60aa7c292fb13a1014052626e463b43bef9ce1b5c0b3ae1a7d14136419014ada64bd7d1a44b890a636f80912adc0a5da318b8fd1c75c6c5b914643150546bbab5a7d887cbbc84ede14601419b06c18dcbcd38c6c91bdc65352a49012428f3913d11bd440c444a4ebb6b576f89ae64060d8a354b8992b190d236ba768c78ceea7001a3360b9858e9dcfd1f32830140857aaddb717817108866c7e3257908601e7b59a7a25dc95a6a960aff9057ad0a36a3b43353cc13c33af899e850184a1fdfe2b878a40c1120c1a7dadcd396f86801400a97717f8cd91c7e9f06579a4e4aaa896fd21e043a2666052291962abc87a7c3521089122773a3fc81612c4076bc7764a9e5a3419b5f3f795bc282fdc49df2ef00000000"
}