{
  "txid": "726cd5b0caab67800357d8c4483ed2b2a4d9d4e908d1771af827835d9faa77bf",
  "version": 2,
  "locktime": 0,
  "vin": [
    {
      "txid": "8486ecb4df0880316dd6e82b3971b4df187aff23765bc3a47f8d78bb53aa273c",
      "vout": 128,
      "prevout": {
        "scriptpubkey": "5120dbc62b61a7107d4afcbfbe3e555e3a118f5dd1ff4e47c34ce19747b9aa0fa299",
        "scriptpubkey_asm": "OP_PUSHNUM_1 OP_PUSHBYTES_32 dbc62b61a7107d4afcbfbe3e555e3a118f5dd1ff4e47c34ce19747b9aa0fa299",
        "scriptpubkey_type": "v1_p2tr",
        "scriptpubkey_address": "bc1pm0rzkcd8zp754l9lhcl92h36zx84m50lferuxn8pjarmn2s052vsgkhgnm",
        "value": 2575
      },
      "scriptsig": "",
      "scriptsig_asm": "",
      "witness": [
        "dc021afdcbdb65da3987c73881657756f703c899fe4d363d40b0a5747fe1139181dec9b4c0224438120dcc386623730d360cde9452bc633c569ae3992b5683ce",
        "20ae72eea43084cf741d630c449ec4fddc32a4122a5d1965e10a98509cd4a589abac0063036f726401010a746578742f706c61696e00367b2270223a226272632d3230222c226f70223a226d696e74222c227469636b223a2261616161222c22616d74223a223130303030227d68",
        "c0ae72eea43084cf741d630c449ec4fddc32a4122a5d1965e10a98509cd4a589ab"
      ],
      "is_coinbase": false,
      "sequence": 4261412863
    }
  ],
  "vout": [
    {
      "scriptpubkey": "0014ddd7ef12ea6f78edcc1e8e7afa12c01ab59f3339",
      "scriptpubkey_asm": "OP_0 OP_PUSHBYTES_20 ddd7ef12ea6f78edcc1e8e7afa12c01ab59f3339",
      "scriptpubkey_type": "v0_p2wpkh",
      "scriptpubkey_address": "bc1qmht77yh2dauwmnq73ea05ykqr26e7veea8spz6",
      "value": 546
    }
  ],
  "size": 295,
  "weight": 541,
  "fee": 2029,
  "status": {
    "confirmed": true,
    "block_height": 834460,
    "block_hash": "00000000000000000000484a79b643b2524bbce82e5d8a442013fa5b8905ed98",
    "block_time": 1710307468
  },
  "hex": "020000000001013c27aa53bb788d7fa4c35b7623ff7a18dfb471392be8d66d318008dfb4ec86848000000000fffffffd012202000000000000160014ddd7ef12ea6f78edcc1e8e7afa12c01ab59f33390340dc021afdcbdb65da3987c73881657756f703c899fe4d363d40b0a5747fe1139181dec9b4c0224438120dcc386623730d360cde9452bc633c569ae3992b5683ce6e20ae72eea43084cf741d630c449ec4fddc32a4122a5d1965e10a98509cd4a589abac0063036f726401010a746578742f706c61696e00367b2270223a226272632d3230222c226f70223a226d696e74222c227469636b223a2261616161222c22616d74223a223130303030227d6821c0ae72eea43084cf741d630c449ec4fddc32a4122a5d1965e10a98509cd4a589ab00000000"
}