{
  "txid": "7279c5de00eb47d353a6bed0059710941a1917d8983195eebcaf5c0605c81bce",
  "version": 2,
  "locktime": 0,
  "vin": [
    {
      "txid": "75f1197666925af9a7c211df943dcfcd6b7523280358307f1f8b982ccf9817d7",
      "vout": 5,
      "prevout": {
        "scriptpubkey": "a914ff4be61729e66620ceeaf1b86a18eebb4d779e4c87",
        "scriptpubkey_asm": "OP_HASH160 OP_PUSHBYTES_20 ff4be61729e66620ceeaf1b86a18eebb4d779e4c OP_EQUAL",
        "scriptpubkey_type": "p2sh",
        "scriptpubkey_address": "3QxuA11UT9Gb1oprpT7mvpFFDPvtiXHwGF",
        "value": 600
      },
      "scriptsig": "1600144e6a9e0925810a4dd3d646569acc899dce9f4aef",
      "scriptsig_asm": "OP_PUSHBYTES_22 00144e6a9e0925810a4dd3d646569acc899dce9f4aef",
      "witness": [
        "3045022100da779b27c0ee95c23c6cbb4a8c5685e574b7ab95708e75b2ab1ad63a2bf471c60220294dde1d6b74e9ca3cec1add0d3a036f954e36a1683fe309d86dc443e4aaebcc01",
        "02b31a833deceb6f991b389c95cbd1963cacecc7b05e9dded621beecfd0d0a220f"
      ],
      "is_coinbase": false,
      "sequence": 4294967295,
      "inner_redeemscript_asm": "OP_0 OP_PUSHBYTES_20 4e6a9e0925810a4dd3d646569acc899dce9f4aef"
    },
    {
      "txid": "75f1197666925af9a7c211df943dcfcd6b7523280358307f1f8b982ccf9817d7",
      "vout": 4,
      "prevout": {
        "scriptpubkey": "a914ff4be61729e66620ceeaf1b86a18eebb4d779e4c87",
        "scriptpubkey_asm": "OP_HASH160 OP_PUSHBYTES_20 ff4be61729e66620ceeaf1b86a18eebb4d779e4c OP_EQUAL",
        "scriptpubkey_type": "p2sh",
        "scriptpubkey_address": "3QxuA11UT9Gb1oprpT7mvpFFDPvtiXHwGF",
        "value": 600
      },
      "scriptsig": "1600144e6a9e0925810a4dd3d646569acc899dce9f4aef",
      "scriptsig_asm": "OP_PUSHBYTES_22 00144e6a9e0925810a4dd3d646569acc899dce9f4aef",
      "witness": [
        "304402207fc85394a51c3872ae0747d629965b5212622278d809cfed0833290046bedb3f0220582821a8fae9d43bf1844cc83d3588a667172b96830a6b1ea38c1fccc37e73c101",
        "02b31a833deceb6f991b389c95cbd1963cacecc7b05e9dded621beecfd0d0a220f"
      ],
      "is_coinbase": false,
      "sequence": 4294967295,
      "inner_redeemscript_asm": "OP_0 OP_PUSHBYTES_20 4e6a9e0925810a4dd3d646569acc899dce9f4aef"
    },
    {
      "txid": "7b54833b076b3e9daf721196feb8e048668025d968ae91b98b4e8726d82797b6",
      "vout": 0,
      "prevout": {
        "scriptpubkey": "512033bf276534b05e89024eba695b32ae5b8d2a540923966d9934f9fb7e3aa01819",
        "scriptpubkey_asm": "OP_PUSHNUM_1 OP_PUSHBYTES_32 33bf276534b05e89024eba695b32ae5b8d2a540923966d9934f9fb7e3aa01819",
        "scriptpubkey_type": "v1_p2tr",
        "scriptpubkey_address": "bc1pxwljwef5kp0gjqjwhf54kv4wtwxj54qfywtxmxf5l8ahuw4qrqvsfdxsu7",
        "value": 546
      },
      "scriptsig": "",
      "scriptsig_asm": "",
      "witness": [
        "08097f49270a03e815c76abbb198b5fa33967523e52733bd7fa47a7cb731ea0f09ca7bfed3f0e1ddb31fb6baa0024a4eddbbfb0a88c13707bfc1563be4f0bdaf83"
      ],
      "is_coinbase": false,
      "sequence": 4294967295
    },
    {
      "txid": "28af88e84bfcf36da0780da3c5a1e534a8f245e8b962a02510a0bb3c34264ae4",
      "vout": 6,
      "prevout": {
        "scriptpubkey": "a914ff4be61729e66620ceeaf1b86a18eebb4d779e4c87",
        "scriptpubkey_asm": "OP_HASH160 OP_PUSHBYTES_20 ff4be61729e66620ceeaf1b86a18eebb4d779e4c OP_EQUAL",
        "scriptpubkey_type": "p2sh",
        "scriptpubkey_address": "3QxuA11UT9Gb1oprpT7mvpFFDPvtiXHwGF",
        "value": 177708
      },
      "scriptsig": "1600144e6a9e0925810a4dd3d646569acc899dce9f4aef",
      "scriptsig_asm": "OP_PUSHBYTES_22 00144e6a9e0925810a4dd3d646569acc899dce9f4aef",
      "witness": [
        "3045022100cf56c1b48cfb0f2f891888e4610b515f694b500d3495e70a1df641debeed5ea702200fa5de2507f8b66f6ef2e4ed950038be4b62c155cf7da935b26cc67f00a8954801",
        "02b31a833deceb6f991b389c95cbd1963cacecc7b05e9dded621beecfd0d0a220f"
      ],
      "is_coinbase": false,
      "sequence": 4294967295,
      "inner_redeemscript_asm": "OP_0 OP_PUSHBYTES_20 4e6a9e0925810a4dd3d646569acc899dce9f4aef"
    },
    {
      "txid": "75f1197666925af9a7c211df943dcfcd6b7523280358307f1f8b982ccf9817d7",
      "vout": 6,
      "prevout": {
        "scriptpubkey": "a914ff4be61729e66620ceeaf1b86a18eebb4d779e4c87",
        "scriptpubkey_asm": "OP_HASH160 OP_PUSHBYTES_20 ff4be61729e66620ceeaf1b86a18eebb4d779e4c OP_EQUAL",
        "scriptpubkey_type": "p2sh",
        "scriptpubkey_address": "3QxuA11UT9Gb1oprpT7mvpFFDPvtiXHwGF",
        "value": 109591
      },
      "scriptsig": "1600144e6a9e0925810a4dd3d646569acc899dce9f4aef",
      "scriptsig_asm": "OP_PUSHBYTES_22 00144e6a9e0925810a4dd3d646569acc899dce9f4aef",
      "witness": [
        "3044022049f9518f4ce29d41461bef9105fc14a0059ec4bca8f04284ab56665ca5003a0e022054c8743a18ca967c0e9cd1d87d9a21184e010938261f274f156415f50ce3627901",
        "02b31a833deceb6f991b389c95cbd1963cacecc7b05e9dded621beecfd0d0a220f"
      ],
      "is_coinbase": false,
      "sequence": 4294967295,
      "inner_redeemscript_asm": "OP_0 OP_PUSHBYTES_20 4e6a9e0925810a4dd3d646569acc899dce9f4aef"
    }
  ],
  "vout": [
    {
      "scriptpubkey": "a914ff4be61729e66620ceeaf1b86a18eebb4d779e4c87",
      "scriptpubkey_asm": "OP_HASH160 OP_PUSHBYTES_20 ff4be61729e66620ceeaf1b86a18eebb4d779e4c OP_EQUAL",
      "scriptpubkey_type": "p2sh",
      "scriptpubkey_address": "3QxuA11UT9Gb1oprpT7mvpFFDPvtiXHwGF",
      "value": 1200
    },
    {
      "scriptpubkey": "5120eadb4ea78372bcff1da99b09e9106af519f70a86e3603b75faf8a12445ca8cab",
      "scriptpubkey_asm": "OP_PUSHNUM_1 OP_PUSHBYTES_32 eadb4ea78372bcff1da99b09e9106af519f70a86e3603b75faf8a12445ca8cab",
      "scriptpubkey_type": "v1_p2tr",
      "scriptpubkey_address": "bc1patd5afurw27078dfnvy7jyr275vlwz5xudsrka06lzsjg3w23j4str73lu",
      "value": 546
    },
    {
      "scriptpubkey": "512033bf276534b05e89024eba695b32ae5b8d2a540923966d9934f9fb7e3aa01819",
      "scriptpubkey_asm": "OP_PUSHNUM_1 OP_PUSHBYTES_32 33bf276534b05e89024eba695b32ae5b8d2a540923966d9934f9fb7e3aa01819",
      "scriptpubkey_type": "v1_p2tr",
      "scriptpubkey_address": "bc1pxwljwef5kp0gjqjwhf54kv4wtwxj54qfywtxmxf5l8ahuw4qrqvsfdxsu7",
      "value": 258700
    },
    {
      "scriptpubkey": "5120080ed232d2aff2f63d956576db394f477df7f0a9bb4ee5b75ec36f1d1b43c5d7",
      "scriptpubkey_asm": "OP_PUSHNUM_1 OP_PUSHBYTES_32 080ed232d2aff2f63d956576db394f477df7f0a9bb4ee5b75ec36f1d1b43c5d7",
      "scriptpubkey_type": "v1_p2tr",
      "scriptpubkey_address": "bc1ppq8dyvkj4le0v0v4v4mdkw20ga7l0u9fhd8wtd67cdh36x6rchtsudyat9",
      "value": 6500
    },
    {
      "scriptpubkey": "a914ff4be61729e66620ceeaf1b86a18eebb4d779e4c87",
      "scriptpubkey_asm": "OP_HASH160 OP_PUSHBYTES_20 ff4be61729e66620ceeaf1b86a18eebb4d779e4c OP_EQUAL",
      "scriptpubkey_type": "p2sh",
      "scriptpubkey_address": "3QxuA11UT9Gb1oprpT7mvpFFDPvtiXHwGF",
      "value": 15225
    }
  ],
  "size": 999,
  "weight": 2499,
  "fee": 6874,
  "status": {
    "confirmed": true,
    "block_height": 834464,
    "block_hash": "0000000000000000000177a0869a911a2b65c9bdcd5a8bcb02b68f305bee848e",
    "block_time": 1710308296
  },
  "hex": "02000000000105d71798cf2c988b1f7f3058032823756bcdcf3d94df11c2a7f95a92667619f17505000000171600144e6a9e0925810a4dd3d646569acc899dce9f4aefffffffffd71798cf2c988b1f7f3058032823756bcdcf3d94df11c2a7f95a92667619f17504000000171600144e6a9e0925810a4dd3d646569acc899dce9f4aefffffffffb69727d826874e8bb991ae68d925806648e0b8fe961172af9d3e6b073b83547b0000000000ffffffffe44a26343cbba01025a062b9e845f2a834e5a1c5a30d78a06df3fc4be888af2806000000171600144e6a9e0925810a4dd3d646569acc899dce9f4aefffffffffd71798cf2c988b1f7f3058032823756bcdcf3d94df11c2a7f95a92667619f17506000000171600144e6a9e0925810a4dd3d646569acc899dce9f4aefffffffff05b00400000000000017a914ff4be61729e66620ceeaf1b86a18eebb4d779e4c872202000000000000225120eadb4ea78372bcff1da99b09e9106af519f70a86e3603b75faf8a12445ca8cab8cf203000000000022512033bf276534b05e89024eba695b32ae5b8d2a540923966d9934f9fb7e3aa018196419000000000000225120080ed232d2aff2f63d956576db394f477df7f0a9bb4ee5b75ec36f1d1b43c5d7793b00000000000017a914ff4be61729e66620ceeaf1b86a18eebb4d779e4c8702483045022100da779b27c0ee95c23c6cbb4a8c5685e574b7ab95708e75b2ab1ad63a2bf471c60220294dde1d6b74e9ca3cec1add0d3a036f954e36a1683fe309d86dc443e4aaebcc012102b31a833deceb6f991b389c95cbd1963cacecc7b05e9dded621beecfd0d0a220f0247304402207fc85394a51c3872ae0747d629965b5212622278d809cfed0833290046bedb3f0220582821a8fae9d43bf1844cc83d3588a667172b96830a6b1ea38c1fccc37e73c1012102b31a833deceb6f991b389c95cbd1963cacecc7b05e9dded621beecfd0d0a220f014108097f49270a03e815c76abbb198b5fa33967523e52733bd7fa47a7cb731ea0f09ca7bfed3f0e1ddb31fb6baa0024a4eddbbfb0a88c13707bfc1563be4f0bdaf8302483045022100cf56c1b48cfb0f2f891888e4610b515f694b500d3495e70a1df641debeed5ea702200fa5de2507f8b66f6ef2e4ed950038be4b62c155cf7da935b26cc67f00a89548012102b31a833deceb6f991b389c95cbd1963cacecc7b05e9dded621beecfd0d0a220f02473044022049f9518f4ce29d41461bef9105fc14a0059ec4bca8f04284ab56665ca5003a0e022054c8743a18ca967c0e9cd1d87d9a21184e010938261f274f156415f50ce36279012102b31a833deceb6f991b389c95cbd1963cacecc7b05e9dded621beecfd0d0a220f00000000"
}