{
  "txid": "728266ed49fe28f07275f15188b6115ea60236c0e9e968b03f545c2aa7cfa6bf",
  "version": 1,
  "locktime": 0,
  "vin": [
    {
      "txid": "424967e8a71592834174c9e37d2c180b94a529e5b0997b1c77461cb6a34f5c9b",
      "vout": 20,
      "prevout": {
        "scriptpubkey": "0014a98723f4217cd842999d95daa1af82a5b0c9034e",
        "scriptpubkey_asm": "OP_0 OP_PUSHBYTES_20 a98723f4217cd842999d95daa1af82a5b0c9034e",
        "scriptpubkey_type": "v0_p2wpkh",
        "scriptpubkey_address": "bc1q4xrj8app0nvy9xvajhd2rtuz5kcvjq6wztk3km",
        "value": 279999000
      },
      "scriptsig": "",
      "scriptsig_asm": "",
      "witness": [
        "3045022100f157fa72516929435a698cab03e565dd33ee0e739f417d48c9ff5d2d5ad177620220640dac26f3572c9e57922c446f209aabf7e09b8bdd25afdc4db1d332adcc5fd001",
        "02989512859baabac20b84295b52c32c9ecb5509a34393de2bd5f3ef27fe6f563d"
      ],
      "is_coinbase": false,
      "sequence": 0
    }
  ],
  "vout": [
    {
      "scriptpubkey": "a914e56f4b25822ffcf5dc98edd30ca21d467ca8a66187",
      "scriptpubkey_asm": "OP_HASH160 OP_PUSHBYTES_20 e56f4b25822ffcf5dc98edd30ca21d467ca8a661 OP_EQUAL",
      "scriptpubkey_type": "p2sh",
      "scriptpubkey_address": "3Nc9zHQgnjPnsXjr1W9Ds3hEhyRoyw77bf",
      "value": 79980000
    },
    {
      "scriptpubkey": "00146fd02277124060b3c82ffa2795b4e97af83eb276",
      "scriptpubkey_asm": "OP_0 OP_PUSHBYTES_20 6fd02277124060b3c82ffa2795b4e97af83eb276",
      "scriptpubkey_type": "v0_p2wpkh",
      "scriptpubkey_address": "bc1qdlgzyacjgpst8jp0lgnetd8f0turavnky5qx73",
      "value": 200016453
    }
  ],
  "size": 224,
  "weight": 566,
  "fee": 2547,
  "status": {
    "confirmed": true,
    "block_height": 834638,
    "block_hash": "000000000000000000025f742c626208ac87e0b7d15054abb4a19ca2d735a54e",
    "block_time": 1710405325
  },
  "hex": "010000000001019b5c4fa3b61c46771c7b99b0e529a5940b182c7de3c97441839215a7e867494214000000000000000002e065c4040000000017a914e56f4b25822ffcf5dc98edd30ca21d467ca8a661874502ec0b000000001600146fd02277124060b3c82ffa2795b4e97af83eb27602483045022100f157fa72516929435a698cab03e565dd33ee0e739f417d48c9ff5d2d5ad177620220640dac26f3572c9e57922c446f209aabf7e09b8bdd25afdc4db1d332adcc5fd0012102989512859baabac20b84295b52c32c9ecb5509a34393de2bd5f3ef27fe6f563d00000000"
}