{
  "txid": "7284053e63d6ecdd6a1fd7652dfde9879db49e373a9100e5f0e809fc321973a0",
  "version": 2,
  "locktime": 834561,
  "vin": [
    {
      "txid": "ec896ca308c84d27080087cbdc24f9934382f8856f24ee8998a1836ac69264bf",
      "vout": 8,
      "prevout": {
        "scriptpubkey": "00142bc63df199f6542b8aefe950dfd78fb51cb722be",
        "scriptpubkey_asm": "OP_0 OP_PUSHBYTES_20 2bc63df199f6542b8aefe950dfd78fb51cb722be",
        "scriptpubkey_type": "v0_p2wpkh",
        "scriptpubkey_address": "bc1q90rrmuve7e2zhzh0a9gdl4u0k5wtwg47438trf",
        "value": 173023
      },
      "scriptsig": "",
      "scriptsig_asm": "",
      "witness": [
        "3044022078933179ebbd4ea123201d2aa4f44323e1533574c24c78024ba258522b1b4f1f02203b884a1d87259b274a2e23b4ca25509c4a7b0c5f37b4134935bbab31bdf64ac501",
        "0337fa6b4978d73606da524ea759434fe0e44b41cd48a69f961a68b65fff733ac1"
      ],
      "is_coinbase": false,
      "sequence": 4294967293
    }
  ],
  "vout": [
    {
      "scriptpubkey": "00145fc35767946987b7390c202fb8ca4d0e272a007f",
      "scriptpubkey_asm": "OP_0 OP_PUSHBYTES_20 5fc35767946987b7390c202fb8ca4d0e272a007f",
      "scriptpubkey_type": "v0_p2wpkh",
      "scriptpubkey_address": "bc1qtlp4weu5dxrmwwgvyqhm3jjdpcnj5qrl2s7utn",
      "value": 168568
    }
  ],
  "size": 191,
  "weight": 437,
  "fee": 4455,
  "status": {
    "confirmed": true,
    "block_height": 834638,
    "block_hash": "000000000000000000025f742c626208ac87e0b7d15054abb4a19ca2d735a54e",
    "block_time": 1710405325
  },
  "hex": "02000000000101bf6492c66a83a19889ee246f85f8824393f924dccb870008274dc808a36c89ec0800000000fdffffff0178920200000000001600145fc35767946987b7390c202fb8ca4d0e272a007f02473044022078933179ebbd4ea123201d2aa4f44323e1533574c24c78024ba258522b1b4f1f02203b884a1d87259b274a2e23b4ca25509c4a7b0c5f37b4134935bbab31bdf64ac501210337fa6b4978d73606da524ea759434fe0e44b41cd48a69f961a68b65fff733ac101bc0c00"
}