{
  "txid": "729e77471e3a745d5bc1b956b26f7c2e678823154997325d97d4d76ca1deea04",
  "version": 2,
  "locktime": 0,
  "vin": [
    {
      "txid": "9c10b007d2133e013cafef64d1faa7fec4afc4908ff78aa73222c05d55f4b3b4",
      "vout": 23,
      "prevout": {
        "scriptpubkey": "51201691bcf58afd9a878d563bc8d3c54696cd9059103972c88fd341e1d6cd553cd2",
        "scriptpubkey_asm": "OP_PUSHNUM_1 OP_PUSHBYTES_32 1691bcf58afd9a878d563bc8d3c54696cd9059103972c88fd341e1d6cd553cd2",
        "scriptpubkey_type": "v1_p2tr",
        "scriptpubkey_address": "bc1pz6gmeav2lkdg0r2k80yd832xjmxeqkgs89ev3r7ng8sadn248nfqcm46qf",
        "value": 3248
      },
      "scriptsig": "",
      "scriptsig_asm": "",
      "witness": [
        "27e1df8e1d49b99fe4b17fe2354b7643fcf82b05c3b54c8e5b8ebe836bd47956038ff48d1c9947f75672443ec43a24debbe6cd894f5d883ad1bb4e6ad3e3c561",
        "20efc05b18d23b9788675fdfb06cbcb9332206dc8af1ac6f52070e0d8ecc14a66cac0063036f726401011e6170706c69636174696f6e2f6a736f6e3b636861727365743d7574662d38004cd37b2270223a22706f772d3230222c226f70223a226d696e74222c227469636b223a2250455045222c22616d74223a2231303030222c22736f6c7574696f6e223a22504550453a62633170636a65387233733875656e746d64767a6e34777337786d3836367879707535756139357371796877756835616d61677565367a73707a733637713a303030303030303030303030303030303030303139393431613561653132383937363539383134343239323533333030353762306461393666336465613163353a3132303036333130373338227d68",
        "c13e1a296467c00ef4aae3d2c5b2725c238a71cd400892ce19de6d969e3f5bb91e"
      ],
      "is_coinbase": false,
      "sequence": 4294967295
    }
  ],
  "vout": [
    {
      "scriptpubkey": "5120c4b271c607e666bdb5829d5d0f1b67d68c40f29ce9690012eee5e9ddf51cce85",
      "scriptpubkey_asm": "OP_PUSHNUM_1 OP_PUSHBYTES_32 c4b271c607e666bdb5829d5d0f1b67d68c40f29ce9690012eee5e9ddf51cce85",
      "scriptpubkey_type": "v1_p2tr",
      "scriptpubkey_address": "bc1pcje8r3s8uentmdvzn4ws7xm866xypu5ua95sqyhwuh5amague6zspzs67q",
      "value": 546
    }
  ],
  "size": 487,
  "weight": 769,
  "fee": 2702,
  "status": {
    "confirmed": true,
    "block_height": 834460,
    "block_hash": "00000000000000000000484a79b643b2524bbce82e5d8a442013fa5b8905ed98",
    "block_time": 1710307468
  },
  "hex": "02000000000101b4b3f4555dc02232a78af78f90c4afc4fea7fad164efaf3c013e13d207b0109c1700000000ffffffff012202000000000000225120c4b271c607e666bdb5829d5d0f1b67d68c40f29ce9690012eee5e9ddf51cce85034027e1df8e1d49b99fe4b17fe2354b7643fcf82b05c3b54c8e5b8ebe836bd47956038ff48d1c9947f75672443ec43a24debbe6cd894f5d883ad1bb4e6ad3e3c561fd200120efc05b18d23b9788675fdfb06cbcb9332206dc8af1ac6f52070e0d8ecc14a66cac0063036f726401011e6170706c69636174696f6e2f6a736f6e3b636861727365743d7574662d38004cd37b2270223a22706f772d3230222c226f70223a226d696e74222c227469636b223a2250455045222c22616d74223a2231303030222c22736f6c7574696f6e223a22504550453a62633170636a65387233733875656e746d64767a6e34777337786d3836367879707535756139357371796877756835616d61677565367a73707a733637713a303030303030303030303030303030303030303139393431613561653132383937363539383134343239323533333030353762306461393666336465613163353a3132303036333130373338227d6821c13e1a296467c00ef4aae3d2c5b2725c238a71cd400892ce19de6d969e3f5bb91e00000000"
}