{
  "txid": "72c36e036e34dbfbbaaef1ec1a6ee029fe2384b491a030474a14a0241872d7b3",
  "version": 2,
  "locktime": 0,
  "vin": [
    {
      "txid": "96cd7e92a6d6ff3011a2147c17562cd2de5c98e619e2b08865ac8df3b7d4180d",
      "vout": 0,
      "prevout": {
        "scriptpubkey": "51205f62cad8d00aa5a595a88a6859bb4d7e05a98057243ef4ff273cc2300fe312ea",
        "scriptpubkey_asm": "OP_PUSHNUM_1 OP_PUSHBYTES_32 5f62cad8d00aa5a595a88a6859bb4d7e05a98057243ef4ff273cc2300fe312ea",
        "scriptpubkey_type": "v1_p2tr",
        "scriptpubkey_address": "bc1pta3v4kxsp2j6t9dg3f59nw6d0cz6nqzhysl0fle88nprqrlrzt4qkhfk6j",
        "value": 3010
      },
      "scriptsig": "",
      "scriptsig_asm": "",
      "witness": [
        "e248af28cedbeae63782a95e6c4ef7d0124434343b1cc7d4c4f95e832d1dbf30ddb71959787b4258be2b7a7c961eb5b8b728eda656570209eb6d248ff0f024b9",
        "2038824552bb5af0c90cc7babce5c7e1fd1f25de8a1e7f7a741f84aff90283cebaac0063036f7264010118746578742f706c61696e3b636861727365743d7574662d3800417b2270223a226272632d3230222c226f70223a227472616e73666572222c227469636b223a22f09d9b91222c22616d74223a22313030303030303030303030227d68",
        "c138824552bb5af0c90cc7babce5c7e1fd1f25de8a1e7f7a741f84aff90283ceba"
      ],
      "is_coinbase": false,
      "sequence": 4294967293
    }
  ],
  "vout": [
    {
      "scriptpubkey": "51200e4b17dc1c9efab7c8baa7340c80963885f90d64805bb22ffcf67c5c83b304dc",
      "scriptpubkey_asm": "OP_PUSHNUM_1 OP_PUSHBYTES_32 0e4b17dc1c9efab7c8baa7340c80963885f90d64805bb22ffcf67c5c83b304dc",
      "scriptpubkey_type": "v1_p2tr",
      "scriptpubkey_address": "bc1ppe930hqunmat0j965u6qeqyk8zzljrtyspdmytlu7e79eqanqnwq2ap98h",
      "value": 546
    }
  ],
  "size": 332,
  "weight": 614,
  "fee": 2464,
  "status": {
    "confirmed": true,
    "block_height": 834460,
    "block_hash": "00000000000000000000484a79b643b2524bbce82e5d8a442013fa5b8905ed98",
    "block_time": 1710307468
  },
  "hex": "020000000001010d18d4b7f38dac6588b0e219e6985cded22c56177c14a21130ffd6a6927ecd960000000000fdffffff0122020000000000002251200e4b17dc1c9efab7c8baa7340c80963885f90d64805bb22ffcf67c5c83b304dc0340e248af28cedbeae63782a95e6c4ef7d0124434343b1cc7d4c4f95e832d1dbf30ddb71959787b4258be2b7a7c961eb5b8b728eda656570209eb6d248ff0f024b9872038824552bb5af0c90cc7babce5c7e1fd1f25de8a1e7f7a741f84aff90283cebaac0063036f7264010118746578742f706c61696e3b636861727365743d7574662d3800417b2270223a226272632d3230222c226f70223a227472616e73666572222c227469636b223a22f09d9b91222c22616d74223a22313030303030303030303030227d6821c138824552bb5af0c90cc7babce5c7e1fd1f25de8a1e7f7a741f84aff90283ceba00000000"
}