{
  "txid": "72c7581cd76871414a4f95ec5ac5ed96c0e82a780738d894ec36d055a1bb406e",
  "version": 2,
  "locktime": 0,
  "vin": [
    {
      "txid": "acc3ba00869acb582a3f2904ce3a11dd3779350ce234063fc7d0959246213364",
      "vout": 147,
      "prevout": {
        "scriptpubkey": "5120714448ba786a2d44650724e0fda0de9f7f775e7cdeaddb3f0394aac8805ecb59",
        "scriptpubkey_asm": "OP_PUSHNUM_1 OP_PUSHBYTES_32 714448ba786a2d44650724e0fda0de9f7f775e7cdeaddb3f0394aac8805ecb59",
        "scriptpubkey_type": "v1_p2tr",
        "scriptpubkey_address": "bc1pw9zy3wncdgk5geg8yns0mgx7nalhwhnum6kak0crjj4v3qz7edvsszwurh",
        "value": 1806
      },
      "scriptsig": "",
      "scriptsig_asm": "",
      "witness": [
        "fe0d7d54a45790b173d0c7eadbc0419cf5732709feab31ff7b49be4fcf03538fb9eeba9ae1ff9ef46f1fbef593446fbe47b3d8a24ff5ee307fee9a2e41ea05a5",
        "2013c71d5ed44685f11963736700a79894ee88e5805a9aeaa5e57843ea54208d5cac0063036f726401010a746578742f706c61696e00357b2270223a226272632d3230222c226f70223a226d696e74222c227469636b223a22646f6765222c22616d74223a2234323030227d68",
        "c113c71d5ed44685f11963736700a79894ee88e5805a9aeaa5e57843ea54208d5c"
      ],
      "is_coinbase": false,
      "sequence": 4261412863
    }
  ],
  "vout": [
    {
      "scriptpubkey": "00147a665de7a370f4c9b372ab1fae587500a5bcbdb4",
      "scriptpubkey_asm": "OP_0 OP_PUSHBYTES_20 7a665de7a370f4c9b372ab1fae587500a5bcbdb4",
      "scriptpubkey_type": "v0_p2wpkh",
      "scriptpubkey_address": "bc1q0fn9mearwr6vnvmj4v06ukr4qzjme0d565dzcx",
      "value": 294
    }
  ],
  "size": 294,
  "weight": 540,
  "fee": 1512,
  "status": {
    "confirmed": true,
    "block_height": 834460,
    "block_hash": "00000000000000000000484a79b643b2524bbce82e5d8a442013fa5b8905ed98",
    "block_time": 1710307468
  },
  "hex": "02000000000101643321469295d0c73f0634e20c357937dd113ace04293f2a58cb9a8600bac3ac9300000000fffffffd0126010000000000001600147a665de7a370f4c9b372ab1fae587500a5bcbdb40340fe0d7d54a45790b173d0c7eadbc0419cf5732709feab31ff7b49be4fcf03538fb9eeba9ae1ff9ef46f1fbef593446fbe47b3d8a24ff5ee307fee9a2e41ea05a56d2013c71d5ed44685f11963736700a79894ee88e5805a9aeaa5e57843ea54208d5cac0063036f726401010a746578742f706c61696e00357b2270223a226272632d3230222c226f70223a226d696e74222c227469636b223a22646f6765222c22616d74223a2234323030227d6821c113c71d5ed44685f11963736700a79894ee88e5805a9aeaa5e57843ea54208d5c00000000"
}