{
  "txid": "72cc00ce506867a2515a279fc5dbfd97dd3654261ba7723d36997e5637cf8d8f",
  "version": 1,
  "locktime": 0,
  "vin": [
    {
      "txid": "ae454d46d3e6fa59cc20189ab98e138412d66db8456ec943bf11a5dc02c92fb0",
      "vout": 1,
      "prevout": {
        "scriptpubkey": "00144a4638e96178cddb7374023b03112bdd70a97ec7",
        "scriptpubkey_asm": "OP_0 OP_PUSHBYTES_20 4a4638e96178cddb7374023b03112bdd70a97ec7",
        "scriptpubkey_type": "v0_p2wpkh",
        "scriptpubkey_address": "bc1qffrr36tp0rxakum5qgasxyftm4c2jlk8gmxcf4",
        "value": 601224
      },
      "scriptsig": "",
      "scriptsig_asm": "",
      "witness": [
        "3045022100d518894e7c150763cb16d2f20aedc0cc6971cdc097b32247dc4da260e49c863702207ab3c8c6c260bc799a0a8e804674af3b18f41caa903f6112d81c58ca297f7e8401",
        "0219c8c6cc80eb478f3272c75dac8e2a3ad46a9165f24b30abc7e70ddb1a43f384"
      ],
      "is_coinbase": false,
      "sequence": 4294967295
    }
  ],
  "vout": [
    {
      "scriptpubkey": "76a91411d17567a84698c87061616071fca4b9abe5f79488ac",
      "scriptpubkey_asm": "OP_DUP OP_HASH160 OP_PUSHBYTES_20 11d17567a84698c87061616071fca4b9abe5f794 OP_EQUALVERIFY OP_CHECKSIG",
      "scriptpubkey_type": "p2pkh",
      "scriptpubkey_address": "12dDQhe6dEvQNXJx6sQzdZmKpSBGBTkbSH",
      "value": 324427
    },
    {
      "scriptpubkey": "00144a4638e96178cddb7374023b03112bdd70a97ec7",
      "scriptpubkey_asm": "OP_0 OP_PUSHBYTES_20 4a4638e96178cddb7374023b03112bdd70a97ec7",
      "scriptpubkey_type": "v0_p2wpkh",
      "scriptpubkey_address": "bc1qffrr36tp0rxakum5qgasxyftm4c2jlk8gmxcf4",
      "value": 272909
    }
  ],
  "size": 226,
  "weight": 574,
  "fee": 3888,
  "status": {
    "confirmed": true,
    "block_height": 834638,
    "block_hash": "000000000000000000025f742c626208ac87e0b7d15054abb4a19ca2d735a54e",
    "block_time": 1710405325
  },
  "hex": "01000000000101b02fc902dca511bf43c96e45b86dd61284138eb99a1820cc59fae6d3464d45ae0100000000ffffffff024bf30400000000001976a91411d17567a84698c87061616071fca4b9abe5f79488ac0d2a0400000000001600144a4638e96178cddb7374023b03112bdd70a97ec702483045022100d518894e7c150763cb16d2f20aedc0cc6971cdc097b32247dc4da260e49c863702207ab3c8c6c260bc799a0a8e804674af3b18f41caa903f6112d81c58ca297f7e8401210219c8c6cc80eb478f3272c75dac8e2a3ad46a9165f24b30abc7e70ddb1a43f38400000000"
}