{
  "txid": "72f895e5fed463a0ffa07b85141b7ca5c7394ee00de6b09c841ea01c39983dc2",
  "version": 2,
  "locktime": 0,
  "vin": [
    {
      "txid": "945ba8d4ae757dce36cd5e5b9cb282a5396c6e6972016ea5d78f63b2e8fe9e52",
      "vout": 1,
      "prevout": {
        "scriptpubkey": "5120f3078ea9876f2f075dd1ea5f4e3cadd4b7ee6626d7c0c6a30c4112251114e7fd",
        "scriptpubkey_asm": "OP_PUSHNUM_1 OP_PUSHBYTES_32 f3078ea9876f2f075dd1ea5f4e3cadd4b7ee6626d7c0c6a30c4112251114e7fd",
        "scriptpubkey_type": "v1_p2tr",
        "scriptpubkey_address": "bc1p7vrca2v8duhswhw3af05u09d6jm7ue3x6lqvdgcvgyfz2yg5ul7s8hf2ta",
        "value": 2862
      },
      "scriptsig": "",
      "scriptsig_asm": "",
      "witness": [
        "8f9f146ac2f17fab2f50edbd02dcd0c7582fe03e1d27fb27a633a27e19714d35f2991b50ecee739e7ae100016c1d35c7635ce75fdc648dbb9c888a1fc4ce337d",
        "204cb65e280c19c1d51ed7b85e0cb7f97ddf38cba0c1bb6c13152f49e501da2c3fac0063036f726401011e6170706c69636174696f6e2f6a736f6e3b636861727365743d7574662d38004cd37b2270223a22706f772d3230222c226f70223a226d696e74222c227469636b223a2250455045222c22616d74223a2231303030222c22736f6c7574696f6e223a22504550453a62633170367a67656779647861737432786571616535763930396434396a323636786e707a6178776634386336786b736871703766797a717734733761663a303030303030303030303030303030303030303139393431613561653132383937363539383134343239323533333030353762306461393666336465613163353a3631353333313333393233227d68",
        "c05067337a99a00666fd957e65b5c212a7b30f6b410af3fccba2d4635da920c85e"
      ],
      "is_coinbase": false,
      "sequence": 4294967295
    }
  ],
  "vout": [
    {
      "scriptpubkey": "5120d0919411a6ec16a3641dcd185795b52c95ad1a61174ce4d4f8d1ad0b803e4904",
      "scriptpubkey_asm": "OP_PUSHNUM_1 OP_PUSHBYTES_32 d0919411a6ec16a3641dcd185795b52c95ad1a61174ce4d4f8d1ad0b803e4904",
      "scriptpubkey_type": "v1_p2tr",
      "scriptpubkey_address": "bc1p6zgegydxast2xeqae5v909d49j266xnpzaxwf48c6xkshqp7fyzqw4s7af",
      "value": 546
    }
  ],
  "size": 487,
  "weight": 769,
  "fee": 2316,
  "status": {
    "confirmed": true,
    "block_height": 834460,
    "block_hash": "00000000000000000000484a79b643b2524bbce82e5d8a442013fa5b8905ed98",
    "block_time": 1710307468
  },
  "hex": "02000000000101529efee8b2638fd7a56e0172696e6c39a582b29c5b5ecd36ce7d75aed4a85b940100000000ffffffff012202000000000000225120d0919411a6ec16a3641dcd185795b52c95ad1a61174ce4d4f8d1ad0b803e490403408f9f146ac2f17fab2f50edbd02dcd0c7582fe03e1d27fb27a633a27e19714d35f2991b50ecee739e7ae100016c1d35c7635ce75fdc648dbb9c888a1fc4ce337dfd2001204cb65e280c19c1d51ed7b85e0cb7f97ddf38cba0c1bb6c13152f49e501da2c3fac0063036f726401011e6170706c69636174696f6e2f6a736f6e3b636861727365743d7574662d38004cd37b2270223a22706f772d3230222c226f70223a226d696e74222c227469636b223a2250455045222c22616d74223a2231303030222c22736f6c7574696f6e223a22504550453a62633170367a67656779647861737432786571616535763930396434396a323636786e707a6178776634386336786b736871703766797a717734733761663a303030303030303030303030303030303030303139393431613561653132383937363539383134343239323533333030353762306461393666336465613163353a3631353333313333393233227d6821c05067337a99a00666fd957e65b5c212a7b30f6b410af3fccba2d4635da920c85e00000000"
}