{
  "txid": "72fdc391efa4f4d94c7125c3578dce48024050832eba3dbeb6bf143f9a494ce4",
  "version": 2,
  "locktime": 0,
  "vin": [
    {
      "txid": "64138b97fc47aba90cae58dbdfd04cc3cdade510795314a07f44c5d5a7592235",
      "vout": 1,
      "prevout": {
        "scriptpubkey": "51208b6c43afdb2bea6adee78b269b99f04919a57fa5c294ebf41a676d9f12181509",
        "scriptpubkey_asm": "OP_PUSHNUM_1 OP_PUSHBYTES_32 8b6c43afdb2bea6adee78b269b99f04919a57fa5c294ebf41a676d9f12181509",
        "scriptpubkey_type": "v1_p2tr",
        "scriptpubkey_address": "bc1p3dky8t7m904x4hh83vnfhx0sfyv62la9c22whaq6vake7yscz5ysmvdx7e",
        "value": 2242
      },
      "scriptsig": "",
      "scriptsig_asm": "",
      "witness": [
        "32904c1da0392e9933488ad135a26125d6900b0d0f448a0ebc519adbc88baf49775dade974cbbd6c146829bbafec06d958e6fa1f50883ab9daa6a47e6e73d34f"
      ],
      "is_coinbase": false,
      "sequence": 4294967293
    },
    {
      "txid": "98293f5dab73e3159e5fad7e940325401f2417bc5cd111034b57235e79d36177",
      "vout": 1,
      "prevout": {
        "scriptpubkey": "5120d339844694b8e7e740b87c4fc87f97b8bf10aa199f5d6039b911097faa8223a7",
        "scriptpubkey_asm": "OP_PUSHNUM_1 OP_PUSHBYTES_32 d339844694b8e7e740b87c4fc87f97b8bf10aa199f5d6039b911097faa8223a7",
        "scriptpubkey_type": "v1_p2tr",
        "scriptpubkey_address": "bc1p6vucg355hrn7ws9c038usluhhzl3p2senawkqwdezyyhl25zywnsf9hpf2",
        "value": 13808
      },
      "scriptsig": "",
      "scriptsig_asm": "",
      "witness": [
        "b83a2c834c291abd78f0aae763a61b9b98edf3fbf2b40ca0381269840fb6434ac4582ea311215e6006aaa126333f76908c48ebd5e315e4eab2c271ff33236ead"
      ],
      "is_coinbase": false,
      "sequence": 4294967293
    }
  ],
  "vout": [
    {
      "scriptpubkey": "51203bce29096bc6b13e25819990bb9c37843012d0234373ec740e02f54ced873532",
      "scriptpubkey_asm": "OP_PUSHNUM_1 OP_PUSHBYTES_32 3bce29096bc6b13e25819990bb9c37843012d0234373ec740e02f54ced873532",
      "scriptpubkey_type": "v1_p2tr",
      "scriptpubkey_address": "bc1p808zjzttc6cnufvpnxgth8phsscp95prgde7caqwqt65emv8x5eqj847l8",
      "value": 2702
    },
    {
      "scriptpubkey": "512084e05a0a4aff32104c853e2aecce7da2b1863ef676e5a575789ce1267aec9ec7",
      "scriptpubkey_asm": "OP_PUSHNUM_1 OP_PUSHBYTES_32 84e05a0a4aff32104c853e2aecce7da2b1863ef676e5a575789ce1267aec9ec7",
      "scriptpubkey_type": "v1_p2tr",
      "scriptpubkey_address": "bc1psns95zj2luepqny98c4wenna52ccv0hkwmj62atcnnsjv7hvnmrscd5hyu",
      "value": 10380
    }
  ],
  "size": 312,
  "weight": 846,
  "fee": 2968,
  "status": {
    "confirmed": true,
    "block_height": 834460,
    "block_hash": "00000000000000000000484a79b643b2524bbce82e5d8a442013fa5b8905ed98",
    "block_time": 1710307468
  },
  "hex": "02000000000102352259a7d5c5447fa014537910e5adcdc34cd0dfdb58ae0ca9ab47fc978b13640100000000fdffffff7761d3795e23574b0311d15cbc17241f402503947ead5f9e15e373ab5d3f29980100000000fdffffff028e0a0000000000002251203bce29096bc6b13e25819990bb9c37843012d0234373ec740e02f54ced8735328c2800000000000022512084e05a0a4aff32104c853e2aecce7da2b1863ef676e5a575789ce1267aec9ec7014032904c1da0392e9933488ad135a26125d6900b0d0f448a0ebc519adbc88baf49775dade974cbbd6c146829bbafec06d958e6fa1f50883ab9daa6a47e6e73d34f0140b83a2c834c291abd78f0aae763a61b9b98edf3fbf2b40ca0381269840fb6434ac4582ea311215e6006aaa126333f76908c48ebd5e315e4eab2c271ff33236ead00000000"
}