{
  "txid": "72ff75266a6eae6461130f0487b8bfe2dcf471dee61cc6bc1d4c60ce9759587a",
  "version": 1,
  "locktime": 0,
  "vin": [
    {
      "txid": "d5aa472effbe73c1f4a80854f0a2718f1b7fd3ff4ed428ae22f05a09ea8172cf",
      "vout": 0,
      "prevout": {
        "scriptpubkey": "76a91462e2740e51f36a0f4cefd904be0de62bfc0f303088ac",
        "scriptpubkey_asm": "OP_DUP OP_HASH160 OP_PUSHBYTES_20 62e2740e51f36a0f4cefd904be0de62bfc0f3030 OP_EQUALVERIFY OP_CHECKSIG",
        "scriptpubkey_type": "p2pkh",
        "scriptpubkey_address": "1A1rW474xtfESe7ucnHFYL7VazEu7PEpqW",
        "value": 230000000
      },
      "scriptsig": "4730440220393e5cb98db8b3dd1c1040282bec03f86f2379ae28e0c7c91907ce9180afebf902205efdd0fadee7299d7cc5592d12a4293dc89be430c3e27255b4b766254ccd8e7e0121030ef047b94c3512141de5b27dd4a2837df4a5b1237ea46c2b2795bc96c8c713cf",
      "scriptsig_asm": "OP_PUSHBYTES_71 30440220393e5cb98db8b3dd1c1040282bec03f86f2379ae28e0c7c91907ce9180afebf902205efdd0fadee7299d7cc5592d12a4293dc89be430c3e27255b4b766254ccd8e7e01 OP_PUSHBYTES_33 030ef047b94c3512141de5b27dd4a2837df4a5b1237ea46c2b2795bc96c8c713cf",
      "is_coinbase": false,
      "sequence": 4294967293
    },
    {
      "txid": "e96eeccaf365366b12528285cd23cc7040bf8af4b4b4c3296c5ac00365bee6ae",
      "vout": 0,
      "prevout": {
        "scriptpubkey": "76a914b8096cb7b6308d28156841f32639d2298e2751c988ac",
        "scriptpubkey_asm": "OP_DUP OP_HASH160 OP_PUSHBYTES_20 b8096cb7b6308d28156841f32639d2298e2751c9 OP_EQUALVERIFY OP_CHECKSIG",
        "scriptpubkey_type": "p2pkh",
        "scriptpubkey_address": "1Hn6d8psV7tzfVeXADJLkn3ydwznzPa8HA",
        "value": 6726045
      },
      "scriptsig": "47304402203dee4ebb6123ac611843109f2a013cc014af6f91339806465660798a358a84340220476eee9c04ae8230dc993ddecb0e44addc856047aea05cc6017f692bcbcd917a0121023c4e9f273ef5fc49fbef5b3cb1c4f27d8eb8fac6fb34379a286bb5ac761a5eea",
      "scriptsig_asm": "OP_PUSHBYTES_71 304402203dee4ebb6123ac611843109f2a013cc014af6f91339806465660798a358a84340220476eee9c04ae8230dc993ddecb0e44addc856047aea05cc6017f692bcbcd917a01 OP_PUSHBYTES_33 023c4e9f273ef5fc49fbef5b3cb1c4f27d8eb8fac6fb34379a286bb5ac761a5eea",
      "is_coinbase": false,
      "sequence": 4294967293
    },
    {
      "txid": "e96eeccaf365366b12528285cd23cc7040bf8af4b4b4c3296c5ac00365bee6ae",
      "vout": 1,
      "prevout": {
        "scriptpubkey": "76a914e3d4352c1f55a83efa01462776e5f1b1ae1b76fb88ac",
        "scriptpubkey_asm": "OP_DUP OP_HASH160 OP_PUSHBYTES_20 e3d4352c1f55a83efa01462776e5f1b1ae1b76fb OP_EQUALVERIFY OP_CHECKSIG",
        "scriptpubkey_type": "p2pkh",
        "scriptpubkey_address": "1MmebzjCKkP8e48MWdD2UrvWhPKhZBLgDC",
        "value": 1323953
      },
      "scriptsig": "483045022100fe5b7df77964e1cca99bddf93e52290916e77081190d542514a3e2660009b606022040a65acc245821c49cd089cf43da3d241a705af100eac18af462b7146785592801210249677b63fe918785eb902e8e09e3f037f8b90ad1ce38db2081a3b2d1ef94ac5e",
      "scriptsig_asm": "OP_PUSHBYTES_72 3045022100fe5b7df77964e1cca99bddf93e52290916e77081190d542514a3e2660009b606022040a65acc245821c49cd089cf43da3d241a705af100eac18af462b7146785592801 OP_PUSHBYTES_33 0249677b63fe918785eb902e8e09e3f037f8b90ad1ce38db2081a3b2d1ef94ac5e",
      "is_coinbase": false,
      "sequence": 4294967293
    }
  ],
  "vout": [
    {
      "scriptpubkey": "76a914a3c9e07fa597ef20aee92e4c48a3f35dc63139e488ac",
      "scriptpubkey_asm": "OP_DUP OP_HASH160 OP_PUSHBYTES_20 a3c9e07fa597ef20aee92e4c48a3f35dc63139e4 OP_EQUALVERIFY OP_CHECKSIG",
      "scriptpubkey_type": "p2pkh",
      "scriptpubkey_address": "1Fw2yvdKnVtL7oGRevFbLMeyUbwpHYRwvG",
      "value": 1530575
    },
    {
      "scriptpubkey": "76a914e10a098073c934f8e48432ff3deecd6afaa6fda188ac",
      "scriptpubkey_asm": "OP_DUP OP_HASH160 OP_PUSHBYTES_20 e10a098073c934f8e48432ff3deecd6afaa6fda1 OP_EQUALVERIFY OP_CHECKSIG",
      "scriptpubkey_type": "p2pkh",
      "scriptpubkey_address": "1MWu4Z4zFsgBKeXhjP57Ceiwyhv7LPBkTv",
      "value": 1597947
    },
    {
      "scriptpubkey": "76a9144e09c34a90c708d5c4ab4c542db37867f1878df588ac",
      "scriptpubkey_asm": "OP_DUP OP_HASH160 OP_PUSHBYTES_20 4e09c34a90c708d5c4ab4c542db37867f1878df5 OP_EQUALVERIFY OP_CHECKSIG",
      "scriptpubkey_type": "p2pkh",
      "scriptpubkey_address": "187dQJHFyVTuEiaKeDius9Bx5dkQ62CTwT",
      "value": 234904147
    }
  ],
  "size": 554,
  "weight": 2216,
  "fee": 17329,
  "status": {
    "confirmed": true,
    "block_height": 834552,
    "block_hash": "00000000000000000001dd0468a70c94f619251d286585cff57aeb4bd9ede330",
    "block_time": 1710355598
  },
  "hex": "0100000003cf7281ea095af022ae28d44effd37f1b8f71a2f05408a8f4c173beff2e47aad5000000006a4730440220393e5cb98db8b3dd1c1040282bec03f86f2379ae28e0c7c91907ce9180afebf902205efdd0fadee7299d7cc5592d12a4293dc89be430c3e27255b4b766254ccd8e7e0121030ef047b94c3512141de5b27dd4a2837df4a5b1237ea46c2b2795bc96c8c713cffdffffffaee6be6503c05a6c29c3b4b4f48abf4070cc23cd858252126b3665f3caec6ee9000000006a47304402203dee4ebb6123ac611843109f2a013cc014af6f91339806465660798a358a84340220476eee9c04ae8230dc993ddecb0e44addc856047aea05cc6017f692bcbcd917a0121023c4e9f273ef5fc49fbef5b3cb1c4f27d8eb8fac6fb34379a286bb5ac761a5eeafdffffffaee6be6503c05a6c29c3b4b4f48abf4070cc23cd858252126b3665f3caec6ee9010000006b483045022100fe5b7df77964e1cca99bddf93e52290916e77081190d542514a3e2660009b606022040a65acc245821c49cd089cf43da3d241a705af100eac18af462b7146785592801210249677b63fe918785eb902e8e09e3f037f8b90ad1ce38db2081a3b2d1ef94ac5efdffffff03cf5a1700000000001976a914a3c9e07fa597ef20aee92e4c48a3f35dc63139e488acfb611800000000001976a914e10a098073c934f8e48432ff3deecd6afaa6fda188ac535a000e000000001976a9144e09c34a90c708d5c4ab4c542db37867f1878df588ac00000000"
}