{
  "txid": "7301b0fac4a23e626c411a47d76955d58a4e7833c21794cc264579724ec63289",
  "version": 2,
  "locktime": 0,
  "vin": [
    {
      "txid": "e4b505f4260f3ba4792e0264294487205e1da130d4d01293ae740e25f376b2c5",
      "vout": 0,
      "prevout": {
        "scriptpubkey": "a9142c21151d54bd219dcc4c52e1cb38672dab8e36cc87",
        "scriptpubkey_asm": "OP_HASH160 OP_PUSHBYTES_20 2c21151d54bd219dcc4c52e1cb38672dab8e36cc OP_EQUAL",
        "scriptpubkey_type": "p2sh",
        "scriptpubkey_address": "35iMHbUZeTssxBodiHwEEkb32jpBfVueEL",
        "value": 698459932
      },
      "scriptsig": "1600147c846a806f4d9e516c9fb2fe364f28eac4e3c3fc",
      "scriptsig_asm": "OP_PUSHBYTES_22 00147c846a806f4d9e516c9fb2fe364f28eac4e3c3fc",
      "witness": [
        "30440220372be5c3892ab467620bade5da2302796174358bba4a6dd075157df26f1a2af002205ad56c6a436359e969d33380780d331e70fd0405c52ee024bc89870f3a00038e01",
        "03789a9d83798d4cbf688f9969a94084ee1655059e137b43492ee94dc4538790ab"
      ],
      "is_coinbase": false,
      "sequence": 4294967295,
      "inner_redeemscript_asm": "OP_0 OP_PUSHBYTES_20 7c846a806f4d9e516c9fb2fe364f28eac4e3c3fc"
    }
  ],
  "vout": [
    {
      "scriptpubkey": "a9142c21151d54bd219dcc4c52e1cb38672dab8e36cc87",
      "scriptpubkey_asm": "OP_HASH160 OP_PUSHBYTES_20 2c21151d54bd219dcc4c52e1cb38672dab8e36cc OP_EQUAL",
      "scriptpubkey_type": "p2sh",
      "scriptpubkey_address": "35iMHbUZeTssxBodiHwEEkb32jpBfVueEL",
      "value": 228457289
    },
    {
      "scriptpubkey": "a9140c416f8c582d3ede163c0cbb23d010c2a01c54a587",
      "scriptpubkey_asm": "OP_HASH160 OP_PUSHBYTES_20 0c416f8c582d3ede163c0cbb23d010c2a01c54a5 OP_EQUAL",
      "scriptpubkey_type": "p2sh",
      "scriptpubkey_address": "32opRQAtr6gMT5ygguBYq2hxFFg2hhpSkB",
      "value": 470000000
    }
  ],
  "size": 247,
  "weight": 661,
  "fee": 2643,
  "status": {
    "confirmed": true,
    "block_height": 834638,
    "block_hash": "000000000000000000025f742c626208ac87e0b7d15054abb4a19ca2d735a54e",
    "block_time": 1710405325
  },
  "hex": "02000000000101c5b276f3250e74ae9312d0d430a11d5e2087442964022e79a43b0f26f405b5e400000000171600147c846a806f4d9e516c9fb2fe364f28eac4e3c3fcffffffff0249fb9d0d0000000017a9142c21151d54bd219dcc4c52e1cb38672dab8e36cc8780a1031c0000000017a9140c416f8c582d3ede163c0cbb23d010c2a01c54a587024730440220372be5c3892ab467620bade5da2302796174358bba4a6dd075157df26f1a2af002205ad56c6a436359e969d33380780d331e70fd0405c52ee024bc89870f3a00038e012103789a9d83798d4cbf688f9969a94084ee1655059e137b43492ee94dc4538790ab00000000"
}