{
  "txid": "73216ba3a01c98b22dd99872cd38185c41e9433d4e71d8d092302c7c2f11e742",
  "version": 2,
  "locktime": 0,
  "vin": [
    {
      "txid": "2e6d4ba096115c590e783c64b66aa386fa27e73ddca26ae43e0db4ac2791005e",
      "vout": 2,
      "prevout": {
        "scriptpubkey": "51201ba0a21247e93c8dfb137d9c28b6765c17cea7ee89e752f6f27947f889bab7d6",
        "scriptpubkey_asm": "OP_PUSHNUM_1 OP_PUSHBYTES_32 1ba0a21247e93c8dfb137d9c28b6765c17cea7ee89e752f6f27947f889bab7d6",
        "scriptpubkey_type": "v1_p2tr",
        "scriptpubkey_address": "bc1prws2yyj8ay7gm7cn0kwz3dnktstuaflw38n49ahj09rl3zd6kltqf79qtf",
        "value": 1343052
      },
      "scriptsig": "",
      "scriptsig_asm": "",
      "witness": [
        "197a000001efc600056300f2be84fa059a0a70b2d63159107e9f1394351d55b95fd7fe2273f5fccf73fe87ca50a124ee2e54a7728d18d78de864b5117cba309b"
      ],
      "is_coinbase": false,
      "sequence": 4294967293
    }
  ],
  "vout": [
    {
      "scriptpubkey": "0014419a04f8f1f34d939ad766168c54a5b3af433bdd",
      "scriptpubkey_asm": "OP_0 OP_PUSHBYTES_20 419a04f8f1f34d939ad766168c54a5b3af433bdd",
      "scriptpubkey_type": "v0_p2wpkh",
      "scriptpubkey_address": "bc1qgxdqf7837dxe8xkhvctgc499kwh5xw7ap3uwhs",
      "value": 7000
    },
    {
      "scriptpubkey": "0014fb7a185fc47428a9992c09f70c6add47a5c19223",
      "scriptpubkey_asm": "OP_0 OP_PUSHBYTES_20 fb7a185fc47428a9992c09f70c6add47a5c19223",
      "scriptpubkey_type": "v0_p2wpkh",
      "scriptpubkey_address": "bc1qldapsh7yws52nxfvp8msc6kag7jury3rxrw4dm",
      "value": 30000
    },
    {
      "scriptpubkey": "51201ba0a21247e93c8dfb137d9c28b6765c17cea7ee89e752f6f27947f889bab7d6",
      "scriptpubkey_asm": "OP_PUSHNUM_1 OP_PUSHBYTES_32 1ba0a21247e93c8dfb137d9c28b6765c17cea7ee89e752f6f27947f889bab7d6",
      "scriptpubkey_type": "v1_p2tr",
      "scriptpubkey_address": "bc1prws2yyj8ay7gm7cn0kwz3dnktstuaflw38n49ahj09rl3zd6kltqf79qtf",
      "value": 1302073
    }
  ],
  "size": 224,
  "weight": 692,
  "fee": 3979,
  "status": {
    "confirmed": true,
    "block_height": 834638,
    "block_hash": "000000000000000000025f742c626208ac87e0b7d15054abb4a19ca2d735a54e",
    "block_time": 1710405325
  },
  "hex": "020000000001015e009127acb40d3ee46aa2dc3de727fa86a36ab6643c780e595c1196a04b6d2e0200000000fdffffff03581b000000000000160014419a04f8f1f34d939ad766168c54a5b3af433bdd3075000000000000160014fb7a185fc47428a9992c09f70c6add47a5c1922339de1300000000002251201ba0a21247e93c8dfb137d9c28b6765c17cea7ee89e752f6f27947f889bab7d60140197a000001efc600056300f2be84fa059a0a70b2d63159107e9f1394351d55b95fd7fe2273f5fccf73fe87ca50a124ee2e54a7728d18d78de864b5117cba309b00000000"
}