{
  "txid": "732409643c0f16d2989d82f2e9fa128e3c47cf5767510ae0076da2de9257d529",
  "version": 1,
  "locktime": 0,
  "vin": [
    {
      "txid": "f3faaf45e521865ae412d037935c82793f2d3c0cba2fed726e76b9f3fbcac0e6",
      "vout": 1,
      "prevout": {
        "scriptpubkey": "0014cbea16a2dd06c77709a36f85c1a738fe273462fa",
        "scriptpubkey_asm": "OP_0 OP_PUSHBYTES_20 cbea16a2dd06c77709a36f85c1a738fe273462fa",
        "scriptpubkey_type": "v0_p2wpkh",
        "scriptpubkey_address": "bc1qe04pdgkaqmrhwzdrd7zurfeclcnngch6986vtw",
        "value": 102335
      },
      "scriptsig": "",
      "scriptsig_asm": "",
      "witness": [
        "3045022100af6fd5d95d7e1438585eea3c65a2deef4d108449197fd51df55970f5ca7c66fe02207eb01e8e243c5b7351a0f2417623b0483a1fce39dfe5d954d6fd75af2f31b9d901",
        "02cca10146f999a983b0c615df718c58c1b747a51c426966f6d8e39a61f0235ff4"
      ],
      "is_coinbase": false,
      "sequence": 4294967295
    }
  ],
  "vout": [
    {
      "scriptpubkey": "001457f085b5db688d2c77a67694a0d56789a0cbb9a7",
      "scriptpubkey_asm": "OP_0 OP_PUSHBYTES_20 57f085b5db688d2c77a67694a0d56789a0cbb9a7",
      "scriptpubkey_type": "v0_p2wpkh",
      "scriptpubkey_address": "bc1q2lcgtdwmdzxjcaaxw622p4t83xsvhwd8zmcelj",
      "value": 56037
    },
    {
      "scriptpubkey": "0014f45688fef3b24d1465696d15cf98687b148152b4",
      "scriptpubkey_asm": "OP_0 OP_PUSHBYTES_20 f45688fef3b24d1465696d15cf98687b148152b4",
      "scriptpubkey_type": "v0_p2wpkh",
      "scriptpubkey_address": "bc1q73tg3lhnkfx3getfd52ulxrg0v2gz5458czu78",
      "value": 44000
    }
  ],
  "size": 223,
  "weight": 562,
  "fee": 2298,
  "status": {
    "confirmed": true,
    "block_height": 834638,
    "block_hash": "000000000000000000025f742c626208ac87e0b7d15054abb4a19ca2d735a54e",
    "block_time": 1710405325
  },
  "hex": "01000000000101e6c0cafbf3b9766e72ed2fba0c3c2d3f79825c9337d012e45a8621e545affaf30100000000ffffffff02e5da00000000000016001457f085b5db688d2c77a67694a0d56789a0cbb9a7e0ab000000000000160014f45688fef3b24d1465696d15cf98687b148152b402483045022100af6fd5d95d7e1438585eea3c65a2deef4d108449197fd51df55970f5ca7c66fe02207eb01e8e243c5b7351a0f2417623b0483a1fce39dfe5d954d6fd75af2f31b9d9012102cca10146f999a983b0c615df718c58c1b747a51c426966f6d8e39a61f0235ff400000000"
}