{
  "txid": "732c0d3d30aadd3d73e7ec56023cafe20d98dc46aa6beded8cef1a1d5a5c12fc",
  "version": 1,
  "locktime": 0,
  "vin": [
    {
      "txid": "9c2dc564f3b6f171c291c1416fae146d0afe173c72fdd9c6502389190dab11a2",
      "vout": 0,
      "prevout": {
        "scriptpubkey": "a914ccc2a8076032ebaadfa3fcee9c2bbc0a0f3a73af87",
        "scriptpubkey_asm": "OP_HASH160 OP_PUSHBYTES_20 ccc2a8076032ebaadfa3fcee9c2bbc0a0f3a73af OP_EQUAL",
        "scriptpubkey_type": "p2sh",
        "scriptpubkey_address": "3LMgxdycydXm8mYnePDwAzeefqEAF4j7UX",
        "value": 88892270
      },
      "scriptsig": "160014b2b3b09632239cf0f035d2fc6955b962794c335e",
      "scriptsig_asm": "OP_PUSHBYTES_22 0014b2b3b09632239cf0f035d2fc6955b962794c335e",
      "witness": [
        "3045022100e791c97fbfdd79190e8f9d064d290e82f8e3830479c2c6afbfc04564e8c15d4f022035a6ceadd761207178923d2e47a8f8803c46de73f131e8eb633542fc04a8248201",
        "032d81bcd29fbf0463d47b43489f0673d84442a13fbcfd58146436966c74a450dc"
      ],
      "is_coinbase": false,
      "sequence": 4294967295,
      "inner_redeemscript_asm": "OP_0 OP_PUSHBYTES_20 b2b3b09632239cf0f035d2fc6955b962794c335e"
    }
  ],
  "vout": [
    {
      "scriptpubkey": "00143444ca86fd750981481ce832ff0ec4b5155533ec",
      "scriptpubkey_asm": "OP_0 OP_PUSHBYTES_20 3444ca86fd750981481ce832ff0ec4b5155533ec",
      "scriptpubkey_type": "v0_p2wpkh",
      "scriptpubkey_address": "bc1qx3zv4phaw5yczjquaqe07rkyk5242vlvhflem4",
      "value": 560676
    },
    {
      "scriptpubkey": "76a9144d6dae3c44c2eb0ff0926ed5666cc200cc2b743688ac",
      "scriptpubkey_asm": "OP_DUP OP_HASH160 OP_PUSHBYTES_20 4d6dae3c44c2eb0ff0926ed5666cc200cc2b7436 OP_EQUALVERIFY OP_CHECKSIG",
      "scriptpubkey_type": "p2pkh",
      "scriptpubkey_address": "184QRWmA3LDsRZy6FoACuqw4pUF8p2V5Ex",
      "value": 1448220
    },
    {
      "scriptpubkey": "76a9149312f35e5075bac50c228e6cdc4df7e48d902f9488ac",
      "scriptpubkey_asm": "OP_DUP OP_HASH160 OP_PUSHBYTES_20 9312f35e5075bac50c228e6cdc4df7e48d902f94 OP_EQUALVERIFY OP_CHECKSIG",
      "scriptpubkey_type": "p2pkh",
      "scriptpubkey_address": "1EQf2v1EsTeZLFowJ3vAVZvTre7aPTRe5s",
      "value": 135870
    },
    {
      "scriptpubkey": "76a914ed303d4666c216f9f84db03870fe7222e441c3c188ac",
      "scriptpubkey_asm": "OP_DUP OP_HASH160 OP_PUSHBYTES_20 ed303d4666c216f9f84db03870fe7222e441c3c1 OP_EQUALVERIFY OP_CHECKSIG",
      "scriptpubkey_type": "p2pkh",
      "scriptpubkey_address": "1Nd8wCCDQTdUQRJzrB3Wp4bMaX7JtxVT1T",
      "value": 258400
    },
    {
      "scriptpubkey": "a914eb957e42c4698bd0b8ebe3c75d390eb2f115414987",
      "scriptpubkey_asm": "OP_HASH160 OP_PUSHBYTES_20 eb957e42c4698bd0b8ebe3c75d390eb2f1154149 OP_EQUAL",
      "scriptpubkey_type": "p2sh",
      "scriptpubkey_address": "3PAfobQNYNKKfD8sJvZ4rFiLrwhxosbWpV",
      "value": 438390
    },
    {
      "scriptpubkey": "0014f1bb4fd0d8d4e3c171238e889228e257919a9b45",
      "scriptpubkey_asm": "OP_0 OP_PUSHBYTES_20 f1bb4fd0d8d4e3c171238e889228e257919a9b45",
      "scriptpubkey_type": "v0_p2wpkh",
      "scriptpubkey_address": "bc1q7xa5l5xc6n3uzufr36yfy28z27ge4x693p7xr4",
      "value": 7582811
    },
    {
      "scriptpubkey": "0014d11de3294e34119840c8901e71512763f489e97c",
      "scriptpubkey_asm": "OP_0 OP_PUSHBYTES_20 d11de3294e34119840c8901e71512763f489e97c",
      "scriptpubkey_type": "v0_p2wpkh",
      "scriptpubkey_address": "bc1q6yw7x22wxsgessxgjq08z5f8v06gn6tumdjm2t",
      "value": 135989
    },
    {
      "scriptpubkey": "a9146a014bf767df07479671d6819c4028fb3bb3031d87",
      "scriptpubkey_asm": "OP_HASH160 OP_PUSHBYTES_20 6a014bf767df07479671d6819c4028fb3bb3031d OP_EQUAL",
      "scriptpubkey_type": "p2sh",
      "scriptpubkey_address": "3BMX6ydHmFcV9DEkrbZkXtkXJjngCcftg7",
      "value": 44601
    },
    {
      "scriptpubkey": "76a9148ba38dd15e8bc75d25c4aaf20801edb02df9267588ac",
      "scriptpubkey_asm": "OP_DUP OP_HASH160 OP_PUSHBYTES_20 8ba38dd15e8bc75d25c4aaf20801edb02df92675 OP_EQUALVERIFY OP_CHECKSIG",
      "scriptpubkey_type": "p2pkh",
      "scriptpubkey_address": "1DjLrbStQ3sgCrAVrfKzGS3UBcRLgNE6ed",
      "value": 55620
    },
    {
      "scriptpubkey": "a914116ad75b01713ac240d09a35ebab7a3e3e94299687",
      "scriptpubkey_asm": "OP_HASH160 OP_PUSHBYTES_20 116ad75b01713ac240d09a35ebab7a3e3e942996 OP_EQUAL",
      "scriptpubkey_type": "p2sh",
      "scriptpubkey_address": "33H7QGFoq3C6W5mW5R5QhACPVqxy2QfCCh",
      "value": 75600000
    },
    {
      "scriptpubkey": "0014a83cc92568c31cd10a47d105878a8577fd615e22",
      "scriptpubkey_asm": "OP_0 OP_PUSHBYTES_20 a83cc92568c31cd10a47d105878a8577fd615e22",
      "scriptpubkey_type": "v0_p2wpkh",
      "scriptpubkey_address": "bc1q4q7vjftgcvwdzzj86yzc0z59wl7kzh3z9eer8w",
      "value": 352172
    },
    {
      "scriptpubkey": "0014a647fc5dc60f674a570bb9aa85c27eb697041f5f",
      "scriptpubkey_asm": "OP_0 OP_PUSHBYTES_20 a647fc5dc60f674a570bb9aa85c27eb697041f5f",
      "scriptpubkey_type": "v0_p2wpkh",
      "scriptpubkey_address": "bc1q5erlchwxpan554cthx4gtsn7k6tsg86lavvjm3",
      "value": 122157
    },
    {
      "scriptpubkey": "0014c383853acfd3b144d069941e846dd31c2d3106dd",
      "scriptpubkey_asm": "OP_0 OP_PUSHBYTES_20 c383853acfd3b144d069941e846dd31c2d3106dd",
      "scriptpubkey_type": "v0_p2wpkh",
      "scriptpubkey_address": "bc1qcwpc2wk06wc5f5rfjs0ggmwnrsknzpka9e5659",
      "value": 82420
    },
    {
      "scriptpubkey": "a91428af47fa63d48548ec1ec97b21d45fcb3f0465d087",
      "scriptpubkey_asm": "OP_HASH160 OP_PUSHBYTES_20 28af47fa63d48548ec1ec97b21d45fcb3f0465d0 OP_EQUAL",
      "scriptpubkey_type": "p2sh",
      "scriptpubkey_address": "35Q8vxy955csQ8uSkD8Ro21ukUGWMAyQgS",
      "value": 39402
    },
    {
      "scriptpubkey": "0014ee4191adf56fbe62e3c7bdac94a8a49bf4cd1945",
      "scriptpubkey_asm": "OP_0 OP_PUSHBYTES_20 ee4191adf56fbe62e3c7bdac94a8a49bf4cd1945",
      "scriptpubkey_type": "v0_p2wpkh",
      "scriptpubkey_address": "bc1qaeqert04d7lx9c78hkkff29yn06v6x29an6h5d",
      "value": 638658
    },
    {
      "scriptpubkey": "a914e652263a5152813e7edbb8bfb88c04801cf2bfcc87",
      "scriptpubkey_asm": "OP_HASH160 OP_PUSHBYTES_20 e652263a5152813e7edbb8bfb88c04801cf2bfcc OP_EQUAL",
      "scriptpubkey_type": "p2sh",
      "scriptpubkey_address": "3NgqkVxXJF4cLKc4KoPL3DT5sYKx2ujSwS",
      "value": 244000
    },
    {
      "scriptpubkey": "a9148f74ff9565fa2cd8e58b53ea9167e6b45226c42f87",
      "scriptpubkey_asm": "OP_HASH160 OP_PUSHBYTES_20 8f74ff9565fa2cd8e58b53ea9167e6b45226c42f OP_EQUAL",
      "scriptpubkey_type": "p2sh",
      "scriptpubkey_address": "3EmYiAXKM5JToBAKMQws3vBcha4UjEwjji",
      "value": 1074799
    },
    {
      "scriptpubkey": "00146784a3ada78c50d8f3f1ba211232b95f907c5dd8",
      "scriptpubkey_asm": "OP_0 OP_PUSHBYTES_20 6784a3ada78c50d8f3f1ba211232b95f907c5dd8",
      "scriptpubkey_type": "v0_p2wpkh",
      "scriptpubkey_address": "bc1qv7z28td833gd3ul3hgs3yv4et7g8chwc5v0j02",
      "value": 59783
    }
  ],
  "size": 760,
  "weight": 2710,
  "fee": 18302,
  "status": {
    "confirmed": true,
    "block_height": 834638,
    "block_hash": "000000000000000000025f742c626208ac87e0b7d15054abb4a19ca2d735a54e",
    "block_time": 1710405325
  },
  "hex": "01000000000101a211ab0d19892350c6d9fd723c17fe0a6d14ae6f41c191c271f1b6f364c52d9c0000000017160014b2b3b09632239cf0f035d2fc6955b962794c335effffffff12248e0800000000001600143444ca86fd750981481ce832ff0ec4b5155533ec1c191600000000001976a9144d6dae3c44c2eb0ff0926ed5666cc200cc2b743688acbe120200000000001976a9149312f35e5075bac50c228e6cdc4df7e48d902f9488ac60f10300000000001976a914ed303d4666c216f9f84db03870fe7222e441c3c188ac76b006000000000017a914eb957e42c4698bd0b8ebe3c75d390eb2f1154149875bb4730000000000160014f1bb4fd0d8d4e3c171238e889228e257919a9b453513020000000000160014d11de3294e34119840c8901e71512763f489e97c39ae00000000000017a9146a014bf767df07479671d6819c4028fb3bb3031d8744d90000000000001976a9148ba38dd15e8bc75d25c4aaf20801edb02df9267588ac809081040000000017a914116ad75b01713ac240d09a35ebab7a3e3e94299687ac5f050000000000160014a83cc92568c31cd10a47d105878a8577fd615e222ddd010000000000160014a647fc5dc60f674a570bb9aa85c27eb697041f5ff441010000000000160014c383853acfd3b144d069941e846dd31c2d3106ddea9900000000000017a91428af47fa63d48548ec1ec97b21d45fcb3f0465d087c2be090000000000160014ee4191adf56fbe62e3c7bdac94a8a49bf4cd194520b903000000000017a914e652263a5152813e7edbb8bfb88c04801cf2bfcc876f6610000000000017a9148f74ff9565fa2cd8e58b53ea9167e6b45226c42f8787e90000000000001600146784a3ada78c50d8f3f1ba211232b95f907c5dd802483045022100e791c97fbfdd79190e8f9d064d290e82f8e3830479c2c6afbfc04564e8c15d4f022035a6ceadd761207178923d2e47a8f8803c46de73f131e8eb633542fc04a824820121032d81bcd29fbf0463d47b43489f0673d84442a13fbcfd58146436966c74a450dc00000000"
}