{
  "txid": "733132833664924471599ddeaf84aeab175f30ecc02c4b84413e09513f8ce8e7",
  "version": 2,
  "locktime": 0,
  "vin": [
    {
      "txid": "fc89c552e4e86f10809e576924197bd058d495fc7316897ae99f3c6d34dcd493",
      "vout": 2,
      "prevout": {
        "scriptpubkey": "5120ff6e5a9da23d828a70f13c0e8e9ca2edaae646e1008579b1829472330e910a6e",
        "scriptpubkey_asm": "OP_PUSHNUM_1 OP_PUSHBYTES_32 ff6e5a9da23d828a70f13c0e8e9ca2edaae646e1008579b1829472330e910a6e",
        "scriptpubkey_type": "v1_p2tr",
        "scriptpubkey_address": "bc1plah948dz8kpg5u838s8ga89zak4wv3hpqzzhnvvzj3erxr53pfhqh5ljzw",
        "value": 2658
      },
      "scriptsig": "",
      "scriptsig_asm": "",
      "witness": [
        "ae866cfe2c1a13c9d51c2b247f13ebc5b2213e6d73b94abaa7e4f0ac494bf6db817f59318819e4d3595965bdaed9090f7be75237b68c28aba2dd9f9f83be921c",
        "20c15fa12b012efc4bf9cd184074ca0b74ea8231c8d9f0dfc563f1ce56f1145c40ac0063036f726401011e6170706c69636174696f6e2f6a736f6e3b636861727365743d7574662d38004cbf7b2270223a22706f772d3230222c226f70223a226d696e74222c227469636b223a2250455045222c22616d74223a2231303030222c22736f6c7574696f6e223a22504550453a6263317171633839726a7563797a776c77786d7761646c7763797139353668726e726b6a6833637361723a303030303030303030303030303030303030303139393431613561653132383937363539383134343239323533333030353762306461393666336465613163353a3539333335353839323330227d68",
        "c1def3a919f167a22fa6dfb9fa98ee16800d5a99e15fd4f4bd107d87271701c38a"
      ],
      "is_coinbase": false,
      "sequence": 4294967295
    }
  ],
  "vout": [
    {
      "scriptpubkey": "0014060e51cb98209df71b6eeb7eec1005a6ae398ed2",
      "scriptpubkey_asm": "OP_0 OP_PUSHBYTES_20 060e51cb98209df71b6eeb7eec1005a6ae398ed2",
      "scriptpubkey_type": "v0_p2wpkh",
      "scriptpubkey_address": "bc1qqc89rjucyzwlwxmwadlwcyq956hrnrkjh3csar",
      "value": 546
    }
  ],
  "size": 455,
  "weight": 701,
  "fee": 2112,
  "status": {
    "confirmed": true,
    "block_height": 834460,
    "block_hash": "00000000000000000000484a79b643b2524bbce82e5d8a442013fa5b8905ed98",
    "block_time": 1710307468
  },
  "hex": "0200000000010193d4dc346d3c9fe97a891673fc95d458d07b192469579e80106fe8e452c589fc0200000000ffffffff012202000000000000160014060e51cb98209df71b6eeb7eec1005a6ae398ed20340ae866cfe2c1a13c9d51c2b247f13ebc5b2213e6d73b94abaa7e4f0ac494bf6db817f59318819e4d3595965bdaed9090f7be75237b68c28aba2dd9f9f83be921cfd0c0120c15fa12b012efc4bf9cd184074ca0b74ea8231c8d9f0dfc563f1ce56f1145c40ac0063036f726401011e6170706c69636174696f6e2f6a736f6e3b636861727365743d7574662d38004cbf7b2270223a22706f772d3230222c226f70223a226d696e74222c227469636b223a2250455045222c22616d74223a2231303030222c22736f6c7574696f6e223a22504550453a6263317171633839726a7563797a776c77786d7761646c7763797139353668726e726b6a6833637361723a303030303030303030303030303030303030303139393431613561653132383937363539383134343239323533333030353762306461393666336465613163353a3539333335353839323330227d6821c1def3a919f167a22fa6dfb9fa98ee16800d5a99e15fd4f4bd107d87271701c38a00000000"
}