{
  "txid": "73352156347236ecbc2135509934bb7da79777cde9a6edf50bd3d741226dd875",
  "version": 2,
  "locktime": 0,
  "vin": [
    {
      "txid": "5c3864e3e852ec96346d84fbc3195b536ef1db1891f28d4b48dba69c282b1a0d",
      "vout": 10,
      "prevout": {
        "scriptpubkey": "5120374dc0613d91be15e598213ba42eb4f929252a93fdb298fd2c2c44669cafc6b2",
        "scriptpubkey_asm": "OP_PUSHNUM_1 OP_PUSHBYTES_32 374dc0613d91be15e598213ba42eb4f929252a93fdb298fd2c2c44669cafc6b2",
        "scriptpubkey_type": "v1_p2tr",
        "scriptpubkey_address": "bc1pxaxuqcfajxlptevcyya6gt45ly5j225nlkef3lfv93zxd890c6eq4k8n5u",
        "value": 3055
      },
      "scriptsig": "",
      "scriptsig_asm": "",
      "witness": [
        "d6e4017f6f44d1942f44a91505add509b88dae7ea43ab7867ed7f8c68392ca72a536fd05fe8835302d965d8c5f3ba43d5690168209d44ea4ca70de82975b691a",
        "20f3c6617e801b5658afc9c88d299bdee069b819656de496a8c3cf6a71c0a48cf8ac0063036f726401011e6170706c69636174696f6e2f6a736f6e3b636861727365743d7574662d38004cd37b2270223a22706f772d3230222c226f70223a226d696e74222c227469636b223a2250455045222c22616d74223a2231303030222c22736f6c7574696f6e223a22504550453a626331703237796d68736b396a36716e706b7367767973363471356663717670646465716a6832716a796c6330793861667138663261727375637776796b3a303030303030303030303030303030303030303139393431613561653132383937363539383134343239323533333030353762306461393666336465613163353a3531353034383931343237227d68",
        "c129e6ca6c8c5ab61eaab81da0d3884f0ac7596b050aac6663ac46dee308a1dbc8"
      ],
      "is_coinbase": false,
      "sequence": 4294967295
    }
  ],
  "vout": [
    {
      "scriptpubkey": "51205789bbc2c5968130da086121aa8289c01816b72095d40913f8790fd480e95747",
      "scriptpubkey_asm": "OP_PUSHNUM_1 OP_PUSHBYTES_32 5789bbc2c5968130da086121aa8289c01816b72095d40913f8790fd480e95747",
      "scriptpubkey_type": "v1_p2tr",
      "scriptpubkey_address": "bc1p27ymhsk9j6qnpksgvys64q5fcqvpddeqjh2qjylc0y8afq8f2arsucwvyk",
      "value": 546
    }
  ],
  "size": 487,
  "weight": 769,
  "fee": 2509,
  "status": {
    "confirmed": true,
    "block_height": 834460,
    "block_hash": "00000000000000000000484a79b643b2524bbce82e5d8a442013fa5b8905ed98",
    "block_time": 1710307468
  },
  "hex": "020000000001010d1a2b289ca6db484b8df29118dbf16e535b19c3fb846d3496ec52e8e364385c0a00000000ffffffff0122020000000000002251205789bbc2c5968130da086121aa8289c01816b72095d40913f8790fd480e957470340d6e4017f6f44d1942f44a91505add509b88dae7ea43ab7867ed7f8c68392ca72a536fd05fe8835302d965d8c5f3ba43d5690168209d44ea4ca70de82975b691afd200120f3c6617e801b5658afc9c88d299bdee069b819656de496a8c3cf6a71c0a48cf8ac0063036f726401011e6170706c69636174696f6e2f6a736f6e3b636861727365743d7574662d38004cd37b2270223a22706f772d3230222c226f70223a226d696e74222c227469636b223a2250455045222c22616d74223a2231303030222c22736f6c7574696f6e223a22504550453a626331703237796d68736b396a36716e706b7367767973363471356663717670646465716a6832716a796c6330793861667138663261727375637776796b3a303030303030303030303030303030303030303139393431613561653132383937363539383134343239323533333030353762306461393666336465613163353a3531353034383931343237227d6821c129e6ca6c8c5ab61eaab81da0d3884f0ac7596b050aac6663ac46dee308a1dbc800000000"
}