{
  "txid": "7336c1e3443fdf8a25c3b821ac378b0d2659bc49da81e9fe129142fe7a20782a",
  "version": 2,
  "locktime": 0,
  "vin": [
    {
      "txid": "0c541088f563814b4e18364511922cb8217f478b75a0b338a9e571407598b4d3",
      "vout": 0,
      "prevout": {
        "scriptpubkey": "51205001b6e94cd44e18016925787644ee654d356c52dc4f0aa6743303b5a93ba763",
        "scriptpubkey_asm": "OP_PUSHNUM_1 OP_PUSHBYTES_32 5001b6e94cd44e18016925787644ee654d356c52dc4f0aa6743303b5a93ba763",
        "scriptpubkey_type": "v1_p2tr",
        "scriptpubkey_address": "bc1p2qqmd62v638psqtfy4u8v38wv4xn2mzjm38s4fn5xvpmt2fm5a3sprg5jj",
        "value": 546
      },
      "scriptsig": "",
      "scriptsig_asm": "",
      "witness": [
        "7da8917436f3b92e9ffb8aa3da7809ca3c4808386b1b46bd200fd7b1ba8457c978c6c26d023ba1e56b33fd373cd4cfeb7c1ad755610e635998c45bb14f67f731"
      ],
      "is_coinbase": false,
      "sequence": 4294967293
    },
    {
      "txid": "12ce18548bb62eca22ccd9b6cbc9434d095f34221c4bf0a016ca3065a788a2e0",
      "vout": 0,
      "prevout": {
        "scriptpubkey": "51205001b6e94cd44e18016925787644ee654d356c52dc4f0aa6743303b5a93ba763",
        "scriptpubkey_asm": "OP_PUSHNUM_1 OP_PUSHBYTES_32 5001b6e94cd44e18016925787644ee654d356c52dc4f0aa6743303b5a93ba763",
        "scriptpubkey_type": "v1_p2tr",
        "scriptpubkey_address": "bc1p2qqmd62v638psqtfy4u8v38wv4xn2mzjm38s4fn5xvpmt2fm5a3sprg5jj",
        "value": 42000
      },
      "scriptsig": "",
      "scriptsig_asm": "",
      "witness": [
        "c5ebb6774478dad789111f2023fa8e856ce64f24276ef3eccd9214c08bae9ddd1f8388f618610370520c87c8023551867e6a11a1e49c8d3c2fa4adf725776c4e"
      ],
      "is_coinbase": false,
      "sequence": 4294967293
    }
  ],
  "vout": [
    {
      "scriptpubkey": "0014c6e54fdb9bc93049c69f362241c5568a45cc9fc4",
      "scriptpubkey_asm": "OP_0 OP_PUSHBYTES_20 c6e54fdb9bc93049c69f362241c5568a45cc9fc4",
      "scriptpubkey_type": "v0_p2wpkh",
      "scriptpubkey_address": "bc1qcmj5lkumeycyn35lxc3yr32k3fzue87yrjrna6",
      "value": 546
    },
    {
      "scriptpubkey": "0014fb7a185fc47428a9992c09f70c6add47a5c19223",
      "scriptpubkey_asm": "OP_0 OP_PUSHBYTES_20 fb7a185fc47428a9992c09f70c6add47a5c19223",
      "scriptpubkey_type": "v0_p2wpkh",
      "scriptpubkey_address": "bc1qldapsh7yws52nxfvp8msc6kag7jury3rxrw4dm",
      "value": 30000
    },
    {
      "scriptpubkey": "51205001b6e94cd44e18016925787644ee654d356c52dc4f0aa6743303b5a93ba763",
      "scriptpubkey_asm": "OP_PUSHNUM_1 OP_PUSHBYTES_32 5001b6e94cd44e18016925787644ee654d356c52dc4f0aa6743303b5a93ba763",
      "scriptpubkey_type": "v1_p2tr",
      "scriptpubkey_address": "bc1p2qqmd62v638psqtfy4u8v38wv4xn2mzjm38s4fn5xvpmt2fm5a3sprg5jj",
      "value": 6319
    }
  ],
  "size": 331,
  "weight": 922,
  "fee": 5681,
  "status": {
    "confirmed": true,
    "block_height": 834638,
    "block_hash": "000000000000000000025f742c626208ac87e0b7d15054abb4a19ca2d735a54e",
    "block_time": 1710405325
  },
  "hex": "02000000000102d3b498754071e5a938b3a0758b477f21b82c92114536184e4b8163f58810540c0000000000fdffffffe0a288a76530ca16a0f04b1c22345f094d43c9cbb6d9cc22ca2eb68b5418ce120000000000fdffffff032202000000000000160014c6e54fdb9bc93049c69f362241c5568a45cc9fc43075000000000000160014fb7a185fc47428a9992c09f70c6add47a5c19223af180000000000002251205001b6e94cd44e18016925787644ee654d356c52dc4f0aa6743303b5a93ba76301407da8917436f3b92e9ffb8aa3da7809ca3c4808386b1b46bd200fd7b1ba8457c978c6c26d023ba1e56b33fd373cd4cfeb7c1ad755610e635998c45bb14f67f7310140c5ebb6774478dad789111f2023fa8e856ce64f24276ef3eccd9214c08bae9ddd1f8388f618610370520c87c8023551867e6a11a1e49c8d3c2fa4adf725776c4e00000000"
}