{
  "txid": "7376b336ba1482435630c579289f1fedbbf286c6d352a099e8418e401ba07679",
  "version": 2,
  "locktime": 0,
  "vin": [
    {
      "txid": "4af3633ef16d68871786fb0578703758da7da3c3ecaaf3f17b225d09b47e7ca7",
      "vout": 1,
      "prevout": {
        "scriptpubkey": "00145fee28bdc9792eaba5fa154401bace06e83d45dd",
        "scriptpubkey_asm": "OP_0 OP_PUSHBYTES_20 5fee28bdc9792eaba5fa154401bace06e83d45dd",
        "scriptpubkey_type": "v0_p2wpkh",
        "scriptpubkey_address": "bc1qtlhz30wf0yh2hf06z4zqrwkwqm5r63wax5dfku",
        "value": 27276
      },
      "scriptsig": "",
      "scriptsig_asm": "",
      "witness": [
        "3045022100bfa68130b28bfe659ea7dba6f11b2b3936fd1de79e6e5bd5b7f383ae97a192f402204562ac921dce64e1a653a8414eecf6333f38fc9314a191008bb18838335d6a0901",
        "030ccf743214e0cac471bbb7d424bd6e3db6f79cafd03127706df65a06cf2bcf76"
      ],
      "is_coinbase": false,
      "sequence": 4294967295
    }
  ],
  "vout": [
    {
      "scriptpubkey": "6a2ad7d34508e5d1311aff7ef2923d1ae2eb21be081b66357dbb04e5e7f676c8f34e8e0148601023e707ea42",
      "scriptpubkey_asm": "OP_RETURN OP_PUSHBYTES_42 d7d34508e5d1311aff7ef2923d1ae2eb21be081b66357dbb04e5e7f676c8f34e8e0148601023e707ea42",
      "scriptpubkey_type": "op_return",
      "value": 0
    },
    {
      "scriptpubkey": "00145fee28bdc9792eaba5fa154401bace06e83d45dd",
      "scriptpubkey_asm": "OP_0 OP_PUSHBYTES_20 5fee28bdc9792eaba5fa154401bace06e83d45dd",
      "scriptpubkey_type": "v0_p2wpkh",
      "scriptpubkey_address": "bc1qtlhz30wf0yh2hf06z4zqrwkwqm5r63wax5dfku",
      "value": 25418
    }
  ],
  "size": 245,
  "weight": 650,
  "fee": 1858,
  "status": {
    "confirmed": true,
    "block_height": 834464,
    "block_hash": "0000000000000000000177a0869a911a2b65c9bdcd5a8bcb02b68f305bee848e",
    "block_time": 1710308296
  },
  "hex": "02000000000101a77c7eb4095d227bf1f3aaecc3a37dda5837707805fb861787686df13e63f34a0100000000ffffffff0200000000000000002c6a2ad7d34508e5d1311aff7ef2923d1ae2eb21be081b66357dbb04e5e7f676c8f34e8e0148601023e707ea424a630000000000001600145fee28bdc9792eaba5fa154401bace06e83d45dd02483045022100bfa68130b28bfe659ea7dba6f11b2b3936fd1de79e6e5bd5b7f383ae97a192f402204562ac921dce64e1a653a8414eecf6333f38fc9314a191008bb18838335d6a090121030ccf743214e0cac471bbb7d424bd6e3db6f79cafd03127706df65a06cf2bcf7600000000"
}