{
  "txid": "737740050c6f24667b75f8039c3436ff0e553f733cd4564a1d561b4d3b217ef9",
  "version": 2,
  "locktime": 0,
  "vin": [
    {
      "txid": "acc3ba00869acb582a3f2904ce3a11dd3779350ce234063fc7d0959246213364",
      "vout": 238,
      "prevout": {
        "scriptpubkey": "5120386a6fc3dbc7e0adbd9124b682b10f6d891ce574358d28ea5c6fdad88c95b750",
        "scriptpubkey_asm": "OP_PUSHNUM_1 OP_PUSHBYTES_32 386a6fc3dbc7e0adbd9124b682b10f6d891ce574358d28ea5c6fdad88c95b750",
        "scriptpubkey_type": "v1_p2tr",
        "scriptpubkey_address": "bc1p8p4xls7mcls2m0v3yjmg9vg0dky3eet5xkxj36judldd3ry4kagqsm9m9f",
        "value": 1806
      },
      "scriptsig": "",
      "scriptsig_asm": "",
      "witness": [
        "54f3fd1033ba926fc0c63e4a9bbd35957b6c70393f1f954b0aad41be5ab48e55ba891257481aa8f43bb1e240a1c00984fd913ecf54cff518c549fb009735d58e",
        "204f1d90136f645eb0751e7ad6e41a36ec091b8721f3cff222fc542a5467f76346ac0063036f726401010a746578742f706c61696e00357b2270223a226272632d3230222c226f70223a226d696e74222c227469636b223a22646f6765222c22616d74223a2234323030227d68",
        "c04f1d90136f645eb0751e7ad6e41a36ec091b8721f3cff222fc542a5467f76346"
      ],
      "is_coinbase": false,
      "sequence": 4261412863
    }
  ],
  "vout": [
    {
      "scriptpubkey": "00147a665de7a370f4c9b372ab1fae587500a5bcbdb4",
      "scriptpubkey_asm": "OP_0 OP_PUSHBYTES_20 7a665de7a370f4c9b372ab1fae587500a5bcbdb4",
      "scriptpubkey_type": "v0_p2wpkh",
      "scriptpubkey_address": "bc1q0fn9mearwr6vnvmj4v06ukr4qzjme0d565dzcx",
      "value": 294
    }
  ],
  "size": 294,
  "weight": 540,
  "fee": 1512,
  "status": {
    "confirmed": true,
    "block_height": 834460,
    "block_hash": "00000000000000000000484a79b643b2524bbce82e5d8a442013fa5b8905ed98",
    "block_time": 1710307468
  },
  "hex": "02000000000101643321469295d0c73f0634e20c357937dd113ace04293f2a58cb9a8600bac3acee00000000fffffffd0126010000000000001600147a665de7a370f4c9b372ab1fae587500a5bcbdb4034054f3fd1033ba926fc0c63e4a9bbd35957b6c70393f1f954b0aad41be5ab48e55ba891257481aa8f43bb1e240a1c00984fd913ecf54cff518c549fb009735d58e6d204f1d90136f645eb0751e7ad6e41a36ec091b8721f3cff222fc542a5467f76346ac0063036f726401010a746578742f706c61696e00357b2270223a226272632d3230222c226f70223a226d696e74222c227469636b223a22646f6765222c22616d74223a2234323030227d6821c04f1d90136f645eb0751e7ad6e41a36ec091b8721f3cff222fc542a5467f7634600000000"
}