{
  "txid": "738841d2e2e86dd471d7f8dc50757825643dc546bc1180f8a7c37daf96a01763",
  "version": 2,
  "locktime": 0,
  "vin": [
    {
      "txid": "e16163368d8190e8d25d63f304fb340a14c789b2a84fc9aa7e58af8e60a62785",
      "vout": 7,
      "prevout": {
        "scriptpubkey": "0014c52ba950d08286f401a585f3bda3e583bdf0829b",
        "scriptpubkey_asm": "OP_0 OP_PUSHBYTES_20 c52ba950d08286f401a585f3bda3e583bdf0829b",
        "scriptpubkey_type": "v0_p2wpkh",
        "scriptpubkey_address": "bc1qc546j5xss2r0gqd9shemmgl9sw7lpq5mactfr2",
        "value": 873079
      },
      "scriptsig": "",
      "scriptsig_asm": "",
      "witness": [
        "30440220795e885d81b8557bb1965600fef14b34c8767f1a605b53effb2c12bb2b72ba670220534463fb4992e8ead037bb5f7c9399f76080ff8747927b124dc7dc36539de61801",
        "032c78c9a2e528431bccc80867c5cc145904b3a48b425b190fde14e7c083233634"
      ],
      "is_coinbase": false,
      "sequence": 4294967293
    }
  ],
  "vout": [
    {
      "scriptpubkey": "a914f1d409cbd905e386f6f6a7e9268840dc60fb000b87",
      "scriptpubkey_asm": "OP_HASH160 OP_PUSHBYTES_20 f1d409cbd905e386f6f6a7e9268840dc60fb000b OP_EQUAL",
      "scriptpubkey_type": "p2sh",
      "scriptpubkey_address": "3PjgnTAa9VzTfKDB7KbVEkrzXCDYQagmfq",
      "value": 869638
    }
  ],
  "size": 192,
  "weight": 441,
  "fee": 3441,
  "status": {
    "confirmed": true,
    "block_height": 834638,
    "block_hash": "000000000000000000025f742c626208ac87e0b7d15054abb4a19ca2d735a54e",
    "block_time": 1710405325
  },
  "hex": "020000000001018527a6608eaf587eaac94fa8b289c7140a34fb04f3635dd2e890818d366361e10700000000fdffffff0106450d000000000017a914f1d409cbd905e386f6f6a7e9268840dc60fb000b87024730440220795e885d81b8557bb1965600fef14b34c8767f1a605b53effb2c12bb2b72ba670220534463fb4992e8ead037bb5f7c9399f76080ff8747927b124dc7dc36539de6180121032c78c9a2e528431bccc80867c5cc145904b3a48b425b190fde14e7c08323363400000000"
}