{
  "txid": "7392268b291489de1b32569f4180960fae7099549e605b087f5cd64e026f2ee0",
  "version": 2,
  "locktime": 0,
  "vin": [
    {
      "txid": "694023fd7286ed20c70a01fa6997f228985d2ddb1fef1805e6c0df2c8905dbbb",
      "vout": 1,
      "prevout": {
        "scriptpubkey": "0014e1f8b491ef3ad5929c05ed5232c0a2385dfc7b1f",
        "scriptpubkey_asm": "OP_0 OP_PUSHBYTES_20 e1f8b491ef3ad5929c05ed5232c0a2385dfc7b1f",
        "scriptpubkey_type": "v0_p2wpkh",
        "scriptpubkey_address": "bc1qu8utfy008t2e98q9a4fr9s9z8pwlc7cl0uwwvf",
        "value": 60127
      },
      "scriptsig": "",
      "scriptsig_asm": "",
      "witness": [
        "304402207ee9b7ecdcb2689a6df9a0533fa1b35bb0536aeff5cc834727736e55863009c4022048d212f1c59142e474534b270ea6ab4b424a5e2308e3d64fb0cd11417e37175d01",
        "03ab97a5b1bac8d3e85feef3013bd8bd61bb06bc0cb71f1a9f748302fd12b056cc"
      ],
      "is_coinbase": false,
      "sequence": 4294967295
    }
  ],
  "vout": [
    {
      "scriptpubkey": "0014cac7a974c9cb06ca3855d46427eff97abe84e4f1",
      "scriptpubkey_asm": "OP_0 OP_PUSHBYTES_20 cac7a974c9cb06ca3855d46427eff97abe84e4f1",
      "scriptpubkey_type": "v0_p2wpkh",
      "scriptpubkey_address": "bc1qetr6jaxfevrv5wz463jz0mle02lgfe83zge0gf",
      "value": 19911
    },
    {
      "scriptpubkey": "0014e1f8b491ef3ad5929c05ed5232c0a2385dfc7b1f",
      "scriptpubkey_asm": "OP_0 OP_PUSHBYTES_20 e1f8b491ef3ad5929c05ed5232c0a2385dfc7b1f",
      "scriptpubkey_type": "v0_p2wpkh",
      "scriptpubkey_address": "bc1qu8utfy008t2e98q9a4fr9s9z8pwlc7cl0uwwvf",
      "value": 37966
    }
  ],
  "size": 222,
  "weight": 561,
  "fee": 2250,
  "status": {
    "confirmed": true,
    "block_height": 834552,
    "block_hash": "00000000000000000001dd0468a70c94f619251d286585cff57aeb4bd9ede330",
    "block_time": 1710355598
  },
  "hex": "02000000000101bbdb05892cdfc0e60518ef1fdb2d5d9828f29769fa010ac720ed8672fd2340690100000000ffffffff02c74d000000000000160014cac7a974c9cb06ca3855d46427eff97abe84e4f14e94000000000000160014e1f8b491ef3ad5929c05ed5232c0a2385dfc7b1f0247304402207ee9b7ecdcb2689a6df9a0533fa1b35bb0536aeff5cc834727736e55863009c4022048d212f1c59142e474534b270ea6ab4b424a5e2308e3d64fb0cd11417e37175d012103ab97a5b1bac8d3e85feef3013bd8bd61bb06bc0cb71f1a9f748302fd12b056cc00000000"
}