{
  "txid": "73a53b0b15aba77f314eee518590c837559a0393b52a09389124f1e0fa6b2e5f",
  "version": 1,
  "locktime": 0,
  "vin": [
    {
      "txid": "ee365b59ea771a2c600fa4bdd7f0d5c7ebc69e04aff28ce0627c9a9f97e62b79",
      "vout": 0,
      "prevout": {
        "scriptpubkey": "5120a48692c5f84eec862cde73377067cf60a080674218a0780de8f7f8924eb81e6b",
        "scriptpubkey_asm": "OP_PUSHNUM_1 OP_PUSHBYTES_32 a48692c5f84eec862cde73377067cf60a080674218a0780de8f7f8924eb81e6b",
        "scriptpubkey_type": "v1_p2tr",
        "scriptpubkey_address": "bc1p5jrf930cfmkgvtx7wvmhqe70vzsgqe6zrzs8sr0g7lufyn4cre4suqdprc",
        "value": 2568
      },
      "scriptsig": "",
      "scriptsig_asm": "",
      "witness": [
        "1a7ff1e713c20cccdfdde54317d3ba53f9e33092c6e879c7247a3fcc52619509f64c1929fb6ba88ba1d236eb2d4d540c50c28b845a9803e0a2dd681fa10d154883",
        "20be11f1d0580232188e877ef283eb5a1efd4e9e5290a2633605d666f59ad3fff2ac00630461746f6d03646d742ca16461726773a36b6d696e745f7469636b657263627463656e6f6e63651a0061bc266474696d651a65ef26d068",
        "c1be11f1d0580232188e877ef283eb5a1efd4e9e5290a2633605d666f59ad3fff2"
      ],
      "is_coinbase": false,
      "sequence": 4294967293
    }
  ],
  "vout": [
    {
      "scriptpubkey": "51209d6dbbf9bad17d0135e06ea56ec304df985f9f9bc809fa52ae6789a0947e0300",
      "scriptpubkey_asm": "OP_PUSHNUM_1 OP_PUSHBYTES_32 9d6dbbf9bad17d0135e06ea56ec304df985f9f9bc809fa52ae6789a0947e0300",
      "scriptpubkey_type": "v1_p2tr",
      "scriptpubkey_address": "bc1pn4kmh7d6697szd0qd6jkascym7v9l8umeqyl554wv7y6p9r7qvqquzkndh",
      "value": 1000
    }
  ],
  "size": 289,
  "weight": 571,
  "fee": 1568,
  "status": {
    "confirmed": true,
    "block_height": 834464,
    "block_hash": "0000000000000000000177a0869a911a2b65c9bdcd5a8bcb02b68f305bee848e",
    "block_time": 1710308296
  },
  "hex": "01000000000101792be6979f9a7c62e08cf2af049ec6ebc7d5f0d7bda40f602c1a77ea595b36ee0000000000fdffffff01e8030000000000002251209d6dbbf9bad17d0135e06ea56ec304df985f9f9bc809fa52ae6789a0947e030003411a7ff1e713c20cccdfdde54317d3ba53f9e33092c6e879c7247a3fcc52619509f64c1929fb6ba88ba1d236eb2d4d540c50c28b845a9803e0a2dd681fa10d1548835b20be11f1d0580232188e877ef283eb5a1efd4e9e5290a2633605d666f59ad3fff2ac00630461746f6d03646d742ca16461726773a36b6d696e745f7469636b657263627463656e6f6e63651a0061bc266474696d651a65ef26d06821c1be11f1d0580232188e877ef283eb5a1efd4e9e5290a2633605d666f59ad3fff200000000"
}