{
  "txid": "73f3b8544acb210f385835c189e63d9c71f9c79623341aa12320f23a88c40013",
  "version": 1,
  "locktime": 0,
  "vin": [
    {
      "txid": "68f582d30526515b57b01fb7da018846d5f5770e0ceb0afa5e74901a2911236f",
      "vout": 160,
      "prevout": {
        "scriptpubkey": "0014691f806db2264b8fd239307df84da93f5c47ebd3",
        "scriptpubkey_asm": "OP_0 OP_PUSHBYTES_20 691f806db2264b8fd239307df84da93f5c47ebd3",
        "scriptpubkey_type": "v0_p2wpkh",
        "scriptpubkey_address": "bc1qdy0cqmdjye9cl53exp7lsndf8awy067n96eq36",
        "value": 89937
      },
      "scriptsig": "",
      "scriptsig_asm": "",
      "witness": [
        "3044022042a4537f18937bc51bd5568afc14df8a6eb3ac87893c2132793f52a7e47551f702201afa92a5cc8c48e2a4d76e48e860ead68df2a802b971e276d5fd59982b33942501",
        "023ce0015e651557dc488a7926605afbf0ed2ed8aac06ca03bae1d38952ccab987"
      ],
      "is_coinbase": false,
      "sequence": 4294967295
    }
  ],
  "vout": [
    {
      "scriptpubkey": "0014538237d757b9ba664f1907acce8de7b2c4422861",
      "scriptpubkey_asm": "OP_0 OP_PUSHBYTES_20 538237d757b9ba664f1907acce8de7b2c4422861",
      "scriptpubkey_type": "v0_p2wpkh",
      "scriptpubkey_address": "bc1q2wpr046hhxaxvnceq7kvar08ktzyy2rp80pu9g",
      "value": 6032
    },
    {
      "scriptpubkey": "a914d0d1747b37f1da5092573fc1127932087b16288187",
      "scriptpubkey_asm": "OP_HASH160 OP_PUSHBYTES_20 d0d1747b37f1da5092573fc1127932087b162881 OP_EQUAL",
      "scriptpubkey_type": "p2sh",
      "scriptpubkey_address": "3Lj9PdgvdYpWfcnknnAkRparGUA8p4UAs4",
      "value": 82365
    }
  ],
  "size": 223,
  "weight": 565,
  "fee": 1540,
  "status": {
    "confirmed": true,
    "block_height": 834464,
    "block_hash": "0000000000000000000177a0869a911a2b65c9bdcd5a8bcb02b68f305bee848e",
    "block_time": 1710308296
  },
  "hex": "010000000001016f2311291a90745efa0aeb0c0e77f5d5468801dab71fb0575b512605d382f568a000000000ffffffff029017000000000000160014538237d757b9ba664f1907acce8de7b2c4422861bd4101000000000017a914d0d1747b37f1da5092573fc1127932087b1628818702473044022042a4537f18937bc51bd5568afc14df8a6eb3ac87893c2132793f52a7e47551f702201afa92a5cc8c48e2a4d76e48e860ead68df2a802b971e276d5fd59982b3394250121023ce0015e651557dc488a7926605afbf0ed2ed8aac06ca03bae1d38952ccab98700000000"
}