{
  "txid": "73f4557fe7b4a9304d2ff22c7cfcb18cadb318c4e045add1cda991b7740ff1db",
  "version": 2,
  "locktime": 834458,
  "vin": [
    {
      "txid": "aef3b87f693b6d8141b8574b4f0ffef8b7b0579e804fc2f674beac7d92858393",
      "vout": 1,
      "prevout": {
        "scriptpubkey": "5120b04ffea4d4f5ed75605da76a7091527a863bb9e9507324d72858bb48546d8cb0",
        "scriptpubkey_asm": "OP_PUSHNUM_1 OP_PUSHBYTES_32 b04ffea4d4f5ed75605da76a7091527a863bb9e9507324d72858bb48546d8cb0",
        "scriptpubkey_type": "v1_p2tr",
        "scriptpubkey_address": "bc1pkp8lafx57hkh2cza5a48py2j02rrhw0f2pejf4egtza5s4rd3jcqlwy69a",
        "value": 48116685
      },
      "scriptsig": "",
      "scriptsig_asm": "",
      "witness": [
        "7e99f7a23912d1f4b7f92b0af2017306f744f00ff0bfb9b691872faefcb9e5554c4ad7ca289431bf4bf98fea6ec3e2389917bbf58f2275f2c0321e28b721b3f1"
      ],
      "is_coinbase": false,
      "sequence": 4294967293
    }
  ],
  "vout": [
    {
      "scriptpubkey": "0020f21269ba4febd82f7c4c61a06cc65dee89f372c69f5def59db00da86eaf577d8",
      "scriptpubkey_asm": "OP_0 OP_PUSHBYTES_32 f21269ba4febd82f7c4c61a06cc65dee89f372c69f5def59db00da86eaf577d8",
      "scriptpubkey_type": "v0_p2wsh",
      "scriptpubkey_address": "bc1q7gfxnwj0a0vz7lzvvxsxe3jaa6ylxukxnaw77kwmqrdgd6h4wlvq3kfyg2",
      "value": 885975
    },
    {
      "scriptpubkey": "51200a125ddc2783a6f03633612d1ba9c14bcfba8a581871fe91c1979b917756009a",
      "scriptpubkey_asm": "OP_PUSHNUM_1 OP_PUSHBYTES_32 0a125ddc2783a6f03633612d1ba9c14bcfba8a581871fe91c1979b917756009a",
      "scriptpubkey_type": "v1_p2tr",
      "scriptpubkey_address": "bc1ppgf9mhp8swn0qd3nvyk3h2wpf08m4zjcrpclaywpj7deza6kqzdqx0htng",
      "value": 47228739
    }
  ],
  "size": 205,
  "weight": 616,
  "fee": 1971,
  "status": {
    "confirmed": true,
    "block_height": 834460,
    "block_hash": "00000000000000000000484a79b643b2524bbce82e5d8a442013fa5b8905ed98",
    "block_time": 1710307468
  },
  "hex": "02000000000101938385927dacbe74f6c24f809e57b0b7f8fe0f4f4b57b841816d3b697fb8f3ae0100000000fdffffff02d7840d0000000000220020f21269ba4febd82f7c4c61a06cc65dee89f372c69f5def59db00da86eaf577d843a7d002000000002251200a125ddc2783a6f03633612d1ba9c14bcfba8a581871fe91c1979b917756009a01407e99f7a23912d1f4b7f92b0af2017306f744f00ff0bfb9b691872faefcb9e5554c4ad7ca289431bf4bf98fea6ec3e2389917bbf58f2275f2c0321e28b721b3f19abb0c00"
}