{
  "txid": "73fbe719bf90ec5abdb9282f2bcc2d3898ca69e76bc52efafc9ec15c6ecf7e6f",
  "version": 2,
  "locktime": 0,
  "vin": [
    {
      "txid": "0038a26b793010195101d3af243b3e060599d700ac5225aa0cf6f7b9b6f4bd61",
      "vout": 1,
      "prevout": {
        "scriptpubkey": "51206497edc811be053e59a16a9096feab7f91754c1d92e7b1e755063d23c3ac7370",
        "scriptpubkey_asm": "OP_PUSHNUM_1 OP_PUSHBYTES_32 6497edc811be053e59a16a9096feab7f91754c1d92e7b1e755063d23c3ac7370",
        "scriptpubkey_type": "v1_p2tr",
        "scriptpubkey_address": "bc1pvjt7mjq3hcznukdpd2gfdl4t07gh2nqajtnmre64qc7j8savwdcq7gqhzh",
        "value": 572111
      },
      "scriptsig": "",
      "scriptsig_asm": "",
      "witness": [
        "c6e83bee361f1f71c4f764d459f6167481e17789a0f6a824f64bfd60f421523b532b8af679856a2fc726560bf709be0c48a1f274c2c786b4135829bca01ff900"
      ],
      "is_coinbase": false,
      "sequence": 4294967295
    }
  ],
  "vout": [
    {
      "scriptpubkey": "5120d7a479c06398a533a3cb361be3685a572b72b409556774f8c644827beb30cfb9",
      "scriptpubkey_asm": "OP_PUSHNUM_1 OP_PUSHBYTES_32 d7a479c06398a533a3cb361be3685a572b72b409556774f8c644827beb30cfb9",
      "scriptpubkey_type": "v1_p2tr",
      "scriptpubkey_address": "bc1p67j8nsrrnzjn8g7txcd7x6z62u4h9dqf24nhf7xxgjp8h6ese7ush9zc2p",
      "value": 78575
    },
    {
      "scriptpubkey": "51206497edc811be053e59a16a9096feab7f91754c1d92e7b1e755063d23c3ac7370",
      "scriptpubkey_asm": "OP_PUSHNUM_1 OP_PUSHBYTES_32 6497edc811be053e59a16a9096feab7f91754c1d92e7b1e755063d23c3ac7370",
      "scriptpubkey_type": "v1_p2tr",
      "scriptpubkey_address": "bc1pvjt7mjq3hcznukdpd2gfdl4t07gh2nqajtnmre64qc7j8savwdcq7gqhzh",
      "value": 491226
    }
  ],
  "size": 205,
  "weight": 616,
  "fee": 2310,
  "status": {
    "confirmed": true,
    "block_height": 834638,
    "block_hash": "000000000000000000025f742c626208ac87e0b7d15054abb4a19ca2d735a54e",
    "block_time": 1710405325
  },
  "hex": "0200000000010161bdf4b6b9f7f60caa2552ac00d79905063e3b24afd30151191030796ba238000100000000ffffffff02ef32010000000000225120d7a479c06398a533a3cb361be3685a572b72b409556774f8c644827beb30cfb9da7e0700000000002251206497edc811be053e59a16a9096feab7f91754c1d92e7b1e755063d23c3ac73700140c6e83bee361f1f71c4f764d459f6167481e17789a0f6a824f64bfd60f421523b532b8af679856a2fc726560bf709be0c48a1f274c2c786b4135829bca01ff90000000000"
}