{
  "txid": "74244e57c8cdd4652ef2a6213fe61d446fd9c92679d9da7be442604a168ebbac",
  "version": 2,
  "locktime": 0,
  "vin": [
    {
      "txid": "74418a72361082cf33214423cbb5e00b95ec905fa8e49bf07e1414c2110e1f33",
      "vout": 1,
      "prevout": {
        "scriptpubkey": "0014f60834ef165253c571b11ce9fa74e46692fc5ec1",
        "scriptpubkey_asm": "OP_0 OP_PUSHBYTES_20 f60834ef165253c571b11ce9fa74e46692fc5ec1",
        "scriptpubkey_type": "v0_p2wpkh",
        "scriptpubkey_address": "bc1q7cyrfmck2ffu2ud3rn5l5a8yv6f0chkp0zpemf",
        "value": 936220590
      },
      "scriptsig": "",
      "scriptsig_asm": "",
      "witness": [
        "304402200337bd93f4309a892e7fc04c645405d093937eb1ccd53f971d00497690f98b3002202ec3d29c7ff7db7ad3723293344e7cc237ad5e47b1f1ed8c32f71bd8098f9f5b01",
        "026e5628506ecd33242e5ceb5fdafe4d3066b5c0f159b3c05a621ef65f177ea286"
      ],
      "is_coinbase": false,
      "sequence": 4294967293
    }
  ],
  "vout": [
    {
      "scriptpubkey": "0014b5effa18cfacf93e1eb79bddd6398b2a3e25d401",
      "scriptpubkey_asm": "OP_0 OP_PUSHBYTES_20 b5effa18cfacf93e1eb79bddd6398b2a3e25d401",
      "scriptpubkey_type": "v0_p2wpkh",
      "scriptpubkey_address": "bc1qkhhl5xx04nunu84hn0wavwvt9glzt4qpj4fy9p",
      "value": 437587
    },
    {
      "scriptpubkey": "a914cd574391ac6f3fc6cfcbe2710379151be766f2c887",
      "scriptpubkey_asm": "OP_HASH160 OP_PUSHBYTES_20 cd574391ac6f3fc6cfcbe2710379151be766f2c8 OP_EQUAL",
      "scriptpubkey_type": "p2sh",
      "scriptpubkey_address": "3LQkz5F12DZsaK6AToVmFBo1DCC522HqC6",
      "value": 1618288
    },
    {
      "scriptpubkey": "00146ff7135a9359deb1b19d70fb3829219f0b8dbf08",
      "scriptpubkey_asm": "OP_0 OP_PUSHBYTES_20 6ff7135a9359deb1b19d70fb3829219f0b8dbf08",
      "scriptpubkey_type": "v0_p2wpkh",
      "scriptpubkey_address": "bc1qdlm3xk5nt80trvvawrans2fpnu9cm0cgaywetd",
      "value": 2240000
    },
    {
      "scriptpubkey": "0014f60834ef165253c571b11ce9fa74e46692fc5ec1",
      "scriptpubkey_asm": "OP_0 OP_PUSHBYTES_20 f60834ef165253c571b11ce9fa74e46692fc5ec1",
      "scriptpubkey_type": "v0_p2wpkh",
      "scriptpubkey_address": "bc1q7cyrfmck2ffu2ud3rn5l5a8yv6f0chkp0zpemf",
      "value": 931918505
    }
  ],
  "size": 285,
  "weight": 813,
  "fee": 6210,
  "status": {
    "confirmed": true,
    "block_height": 834638,
    "block_hash": "000000000000000000025f742c626208ac87e0b7d15054abb4a19ca2d735a54e",
    "block_time": 1710405325
  },
  "hex": "02000000000101331f0e11c214147ef09be4a85f90ec950be0b5cb23442133cf821036728a41740100000000fdffffff0453ad060000000000160014b5effa18cfacf93e1eb79bddd6398b2a3e25d40170b118000000000017a914cd574391ac6f3fc6cfcbe2710379151be766f2c887002e2200000000001600146ff7135a9359deb1b19d70fb3829219f0b8dbf08a9f28b3700000000160014f60834ef165253c571b11ce9fa74e46692fc5ec10247304402200337bd93f4309a892e7fc04c645405d093937eb1ccd53f971d00497690f98b3002202ec3d29c7ff7db7ad3723293344e7cc237ad5e47b1f1ed8c32f71bd8098f9f5b0121026e5628506ecd33242e5ceb5fdafe4d3066b5c0f159b3c05a621ef65f177ea28600000000"
}