{
  "txid": "742f3f5e30054e9898e56d9b26750f05b5a2cfd7744e9d99057088df26e4f584",
  "version": 2,
  "locktime": 0,
  "vin": [
    {
      "txid": "a9f2a02ffc8d23835fee5bd5e2ae4c95221b2f151e77726b10a9593c0d1be828",
      "vout": 1,
      "prevout": {
        "scriptpubkey": "0014c0a27324f7aa7e5bba4f7cfda6d162b3f681c32b",
        "scriptpubkey_asm": "OP_0 OP_PUSHBYTES_20 c0a27324f7aa7e5bba4f7cfda6d162b3f681c32b",
        "scriptpubkey_type": "v0_p2wpkh",
        "scriptpubkey_address": "bc1qcz38xf8h4fl9hwj00n76d5tzk0mgrsetukjc3c",
        "value": 12460065
      },
      "scriptsig": "",
      "scriptsig_asm": "",
      "witness": [
        "3045022100cc13d9b55fa695ea23070d428ea79ab2f0d2e7e3f8452a1abf96f08ac6dcbf6f02205e5f139e17889fe2fe676b5726e43146be1e3f7f771ee098d62be308cb7b8a1201",
        "02cc2b9e0c998406059cac6666396e07bf96095dec5727d0001339901d7a367531"
      ],
      "is_coinbase": false,
      "sequence": 0
    },
    {
      "txid": "2d0d68e7fdeb0ae81f5221dec5b1fc673ecc29fefa53f5042d19c2a114df39c8",
      "vout": 0,
      "prevout": {
        "scriptpubkey": "00146aa89ba9e0aea234e7e2606c531e6456edb11ae1",
        "scriptpubkey_asm": "OP_0 OP_PUSHBYTES_20 6aa89ba9e0aea234e7e2606c531e6456edb11ae1",
        "scriptpubkey_type": "v0_p2wpkh",
        "scriptpubkey_address": "bc1qd25fh20q463rfelzvpk9x8ny2mkmzxhpxqy79h",
        "value": 598139
      },
      "scriptsig": "",
      "scriptsig_asm": "",
      "witness": [
        "3045022100846f4c4bbc8bfc9cbbdd8331525afa7372160a9d3033aa2f542e606ad57af90902203a995157555830e897be9534a1eb26d839d1f7f51bdf995c5adfc2035f49ddd501",
        "03169e3ecb918a2942702ecae5bebb59af10f363eae8e9d0d18a1a9ff0c934f90d"
      ],
      "is_coinbase": false,
      "sequence": 0
    },
    {
      "txid": "a3e1c172168ea38c008b8120dc850dbb002f741d4c2df5f6141fe17b0b9b1b52",
      "vout": 0,
      "prevout": {
        "scriptpubkey": "00146aa89ba9e0aea234e7e2606c531e6456edb11ae1",
        "scriptpubkey_asm": "OP_0 OP_PUSHBYTES_20 6aa89ba9e0aea234e7e2606c531e6456edb11ae1",
        "scriptpubkey_type": "v0_p2wpkh",
        "scriptpubkey_address": "bc1qd25fh20q463rfelzvpk9x8ny2mkmzxhpxqy79h",
        "value": 10000
      },
      "scriptsig": "",
      "scriptsig_asm": "",
      "witness": [
        "3045022100af4deaca952121857b6ee9be935058d774888eb6ba150b6ebdf4fb86f09d608402200eeb65991a9d521de3305084c427d790f5daf24cc8b6039ea554957654328a2601",
        "03169e3ecb918a2942702ecae5bebb59af10f363eae8e9d0d18a1a9ff0c934f90d"
      ],
      "is_coinbase": false,
      "sequence": 0
    },
    {
      "txid": "05da6a3c28ea16bcdc27bc2183e55090944ba1ab833f0d3f363069f6c6a6b2ec",
      "vout": 1,
      "prevout": {
        "scriptpubkey": "00147760fb244cf0892ee0a990108c2413c1b54dbbb5",
        "scriptpubkey_asm": "OP_0 OP_PUSHBYTES_20 7760fb244cf0892ee0a990108c2413c1b54dbbb5",
        "scriptpubkey_type": "v0_p2wpkh",
        "scriptpubkey_address": "bc1qwas0kfzv7zyjac9fjqggcfqncx65mwa48ts7l5",
        "value": 56038
      },
      "scriptsig": "",
      "scriptsig_asm": "",
      "witness": [
        "3045022100cd207805aedaf237fb910cd0771c6740c3f93b122e5e4669ff84b20c1c9cfc7402200a2f4ed07b5ce93962951b2838a637a092a258b92c26381e5123b8b70acd1b2c01",
        "038273c4fccf015968168c8f93ea3aaf41e5c559efd9d43a25fbf34c7bd3a599f8"
      ],
      "is_coinbase": false,
      "sequence": 0
    }
  ],
  "vout": [
    {
      "scriptpubkey": "a914d296091b3f1459cbaaf662f461df0482913813ea87",
      "scriptpubkey_asm": "OP_HASH160 OP_PUSHBYTES_20 d296091b3f1459cbaaf662f461df0482913813ea OP_EQUAL",
      "scriptpubkey_type": "p2sh",
      "scriptpubkey_address": "3LtVZUwBe2WGQ88MWFLU5Zc3JTiByw12ZK",
      "value": 13118572
    }
  ],
  "size": 640,
  "weight": 1258,
  "fee": 5670,
  "status": {
    "confirmed": true,
    "block_height": 834638,
    "block_hash": "000000000000000000025f742c626208ac87e0b7d15054abb4a19ca2d735a54e",
    "block_time": 1710405325
  },
  "hex": "0200000000010428e81b0d3c59a9106b72771e152f1b22954caee2d55bee5f83238dfc2fa0f2a9010000000000000000c839df14a1c2192d04f553fafe29cc3e67fcb1c5de21521fe80aebfde7680d2d000000000000000000521b9b0b7be11f14f6f52d4c1d742f00bb0d85dc20818b008ca38e1672c1e1a3000000000000000000ecb2a6c6f66930363f0d3f83aba14b949050e58321bc27dcbc16ea283c6ada05010000000000000000016c2cc8000000000017a914d296091b3f1459cbaaf662f461df0482913813ea8702483045022100cc13d9b55fa695ea23070d428ea79ab2f0d2e7e3f8452a1abf96f08ac6dcbf6f02205e5f139e17889fe2fe676b5726e43146be1e3f7f771ee098d62be308cb7b8a12012102cc2b9e0c998406059cac6666396e07bf96095dec5727d0001339901d7a36753102483045022100846f4c4bbc8bfc9cbbdd8331525afa7372160a9d3033aa2f542e606ad57af90902203a995157555830e897be9534a1eb26d839d1f7f51bdf995c5adfc2035f49ddd5012103169e3ecb918a2942702ecae5bebb59af10f363eae8e9d0d18a1a9ff0c934f90d02483045022100af4deaca952121857b6ee9be935058d774888eb6ba150b6ebdf4fb86f09d608402200eeb65991a9d521de3305084c427d790f5daf24cc8b6039ea554957654328a26012103169e3ecb918a2942702ecae5bebb59af10f363eae8e9d0d18a1a9ff0c934f90d02483045022100cd207805aedaf237fb910cd0771c6740c3f93b122e5e4669ff84b20c1c9cfc7402200a2f4ed07b5ce93962951b2838a637a092a258b92c26381e5123b8b70acd1b2c0121038273c4fccf015968168c8f93ea3aaf41e5c559efd9d43a25fbf34c7bd3a599f800000000"
}