{
  "txid": "7452570f63ee32f760fffc766d2594a6421bc3ca12c021fef9a18f01360c9de0",
  "version": 2,
  "locktime": 0,
  "vin": [
    {
      "txid": "e55f034c664e69dd74629fae18eba0daa29ccff1ead0bb59ebb26d7b4dd1728f",
      "vout": 0,
      "prevout": {
        "scriptpubkey": "512071bfd2136b30571d13782b99d8c8267cb0216b65170327dc812b7bc509f2cb8b",
        "scriptpubkey_asm": "OP_PUSHNUM_1 OP_PUSHBYTES_32 71bfd2136b30571d13782b99d8c8267cb0216b65170327dc812b7bc509f2cb8b",
        "scriptpubkey_type": "v1_p2tr",
        "scriptpubkey_address": "bc1pwxlayymtxpt36ymc9wva3jpx0jczz6m9zupj0hyp9dau2z0jew9s8mgf2e",
        "value": 2826
      },
      "scriptsig": "",
      "scriptsig_asm": "",
      "witness": [
        "9a5e21f1f560eacf80242a75149f19e768efdd70c182e3c0730116e263907a7e822311e9a37f6ab22ae8e4418b731440fea3f6213a0ff6fcace94f46053c1d46",
        "20e06cb028946ee73d4cb463b3580bdccfd2b0c4633c66718f1bc924aff232692cac0063036f7264010118746578742f706c61696e3b636861727365743d7574662d38003a7b2270223a226272632d3230222c226f70223a227472616e73666572222c227469636b223a2242455446222c22616d74223a223235303030227d68",
        "c0e06cb028946ee73d4cb463b3580bdccfd2b0c4633c66718f1bc924aff232692c"
      ],
      "is_coinbase": false,
      "sequence": 4294967293
    }
  ],
  "vout": [
    {
      "scriptpubkey": "5120e4f3c877a70d95c3b03266b206bf3680a745863c30263f1ab0ac6ea5cf8e1a69",
      "scriptpubkey_asm": "OP_PUSHNUM_1 OP_PUSHBYTES_32 e4f3c877a70d95c3b03266b206bf3680a745863c30263f1ab0ac6ea5cf8e1a69",
      "scriptpubkey_type": "v1_p2tr",
      "scriptpubkey_address": "bc1puneusaa8pk2u8vpjv6eqd0ekszn5tp3uxqnr7x4s43h2tnuwrf5slpflfs",
      "value": 546
    }
  ],
  "size": 325,
  "weight": 607,
  "fee": 2280,
  "status": {
    "confirmed": true,
    "block_height": 834460,
    "block_hash": "00000000000000000000484a79b643b2524bbce82e5d8a442013fa5b8905ed98",
    "block_time": 1710307468
  },
  "hex": "020000000001018f72d14d7b6db2eb59bbd0eaf1cf9ca2daa0eb18ae9f6274dd694e664c035fe50000000000fdffffff012202000000000000225120e4f3c877a70d95c3b03266b206bf3680a745863c30263f1ab0ac6ea5cf8e1a6903409a5e21f1f560eacf80242a75149f19e768efdd70c182e3c0730116e263907a7e822311e9a37f6ab22ae8e4418b731440fea3f6213a0ff6fcace94f46053c1d468020e06cb028946ee73d4cb463b3580bdccfd2b0c4633c66718f1bc924aff232692cac0063036f7264010118746578742f706c61696e3b636861727365743d7574662d38003a7b2270223a226272632d3230222c226f70223a227472616e73666572222c227469636b223a2242455446222c22616d74223a223235303030227d6821c0e06cb028946ee73d4cb463b3580bdccfd2b0c4633c66718f1bc924aff232692c00000000"
}