{
  "txid": "746765793a4cd8fc2e8d65c699c5da82dc6ebbbd2412e8e39075169dc5a8d7ad",
  "version": 1,
  "locktime": 0,
  "vin": [
    {
      "txid": "5788cfa49289849329921828b9c97704283b86c3b349699eed2c7251fd660df4",
      "vout": 22,
      "prevout": {
        "scriptpubkey": "0014f7389ed1e011bde0c616d67869a3a92ad868fbcd",
        "scriptpubkey_asm": "OP_0 OP_PUSHBYTES_20 f7389ed1e011bde0c616d67869a3a92ad868fbcd",
        "scriptpubkey_type": "v0_p2wpkh",
        "scriptpubkey_address": "bc1q7uufa50qzx77p3sk6euxngaf9tvx377dxpav9u",
        "value": 2109190
      },
      "scriptsig": "",
      "scriptsig_asm": "",
      "witness": [
        "3045022100f890d0d02b72804c5f0eb2ef58fbefc799a5d68656fd1f94ba12816bb32b082b0220089cd14c014410501d3a8b8a6edb97e1f5a304fc5fdca8f6883939c6eb93275501",
        "038217544f4a87ec8c972321f56ec397849292f53e43e98f6ce01a6cba863730cf"
      ],
      "is_coinbase": false,
      "sequence": 4294967295
    },
    {
      "txid": "ad36ebf1186540dafc63f25af2e2fb3a47b960669712b6b93ec760d8f5f3c45a",
      "vout": 16,
      "prevout": {
        "scriptpubkey": "0014f7389ed1e011bde0c616d67869a3a92ad868fbcd",
        "scriptpubkey_asm": "OP_0 OP_PUSHBYTES_20 f7389ed1e011bde0c616d67869a3a92ad868fbcd",
        "scriptpubkey_type": "v0_p2wpkh",
        "scriptpubkey_address": "bc1q7uufa50qzx77p3sk6euxngaf9tvx377dxpav9u",
        "value": 2115000
      },
      "scriptsig": "",
      "scriptsig_asm": "",
      "witness": [
        "30440220067ba8f442c366e7350fc49a9e1e03d4983fc21a66fca07cc79acab79eefffbc02207d33fe4a3895e13156bf8d1a46cbcfa4968a0267f44a4345e1484928463f3c8201",
        "038217544f4a87ec8c972321f56ec397849292f53e43e98f6ce01a6cba863730cf"
      ],
      "is_coinbase": false,
      "sequence": 4294967295
    },
    {
      "txid": "13f6d1f113cd54f5f0e660f0af71ca684b29206fbaa8d51ddcbab85264759941",
      "vout": 0,
      "prevout": {
        "scriptpubkey": "0014f7389ed1e011bde0c616d67869a3a92ad868fbcd",
        "scriptpubkey_asm": "OP_0 OP_PUSHBYTES_20 f7389ed1e011bde0c616d67869a3a92ad868fbcd",
        "scriptpubkey_type": "v0_p2wpkh",
        "scriptpubkey_address": "bc1q7uufa50qzx77p3sk6euxngaf9tvx377dxpav9u",
        "value": 2236203
      },
      "scriptsig": "",
      "scriptsig_asm": "",
      "witness": [
        "3045022100e37ff714f790f3cce0006728456a50963647d955857fcc652e11bd63449e928c02202e4cc4a9d8bad97c1f11c892568899586cae48c6de9135cfe925a3e708fcdde101",
        "038217544f4a87ec8c972321f56ec397849292f53e43e98f6ce01a6cba863730cf"
      ],
      "is_coinbase": false,
      "sequence": 4294967295
    },
    {
      "txid": "170ee063430c6f0bfc2501f5848eee096712008e986ba70f438943159c25bbc4",
      "vout": 0,
      "prevout": {
        "scriptpubkey": "0014f7389ed1e011bde0c616d67869a3a92ad868fbcd",
        "scriptpubkey_asm": "OP_0 OP_PUSHBYTES_20 f7389ed1e011bde0c616d67869a3a92ad868fbcd",
        "scriptpubkey_type": "v0_p2wpkh",
        "scriptpubkey_address": "bc1q7uufa50qzx77p3sk6euxngaf9tvx377dxpav9u",
        "value": 2530170
      },
      "scriptsig": "",
      "scriptsig_asm": "",
      "witness": [
        "3045022100e73edd0bd5cc86282b4926684b5e8f14dace0e777fa7f8c17d141cc02cdee1db0220629cbe52ce8237da0e08af02d31e7bf365a2340d6dd98f315faaeaa19b3da70201",
        "038217544f4a87ec8c972321f56ec397849292f53e43e98f6ce01a6cba863730cf"
      ],
      "is_coinbase": false,
      "sequence": 4294967295
    }
  ],
  "vout": [
    {
      "scriptpubkey": "76a914c85fca5cfaa44bc43e52616ec11b42c08fb611e188ac",
      "scriptpubkey_asm": "OP_DUP OP_HASH160 OP_PUSHBYTES_20 c85fca5cfaa44bc43e52616ec11b42c08fb611e1 OP_EQUALVERIFY OP_CHECKSIG",
      "scriptpubkey_type": "p2pkh",
      "scriptpubkey_address": "1KGUu1KB3Mo9UtzwPEfTmddYAhjJwMe1SX",
      "value": 8301735
    },
    {
      "scriptpubkey": "0014f7389ed1e011bde0c616d67869a3a92ad868fbcd",
      "scriptpubkey_asm": "OP_0 OP_PUSHBYTES_20 f7389ed1e011bde0c616d67869a3a92ad868fbcd",
      "scriptpubkey_type": "v0_p2wpkh",
      "scriptpubkey_address": "bc1q7uufa50qzx77p3sk6euxngaf9tvx377dxpav9u",
      "value": 679432
    }
  ],
  "size": 672,
  "weight": 1389,
  "fee": 9396,
  "status": {
    "confirmed": true,
    "block_height": 834638,
    "block_hash": "000000000000000000025f742c626208ac87e0b7d15054abb4a19ca2d735a54e",
    "block_time": 1710405325
  },
  "hex": "01000000000104f40d66fd51722ced9e6949b3c3863b280477c9b92818922993848992a4cf88571600000000ffffffff5ac4f3f5d860c73eb9b612976660b9473afbe2f25af263fcda406518f1eb36ad1000000000ffffffff4199756452b8badc1dd5a8ba6f20294b68ca71aff060e6f0f554cd13f1d1f6130000000000ffffffffc4bb259c154389430fa76b988e00126709ee8e84f50125fc0b6f0c4363e00e170000000000ffffffff02a7ac7e00000000001976a914c85fca5cfaa44bc43e52616ec11b42c08fb611e188ac085e0a0000000000160014f7389ed1e011bde0c616d67869a3a92ad868fbcd02483045022100f890d0d02b72804c5f0eb2ef58fbefc799a5d68656fd1f94ba12816bb32b082b0220089cd14c014410501d3a8b8a6edb97e1f5a304fc5fdca8f6883939c6eb9327550121038217544f4a87ec8c972321f56ec397849292f53e43e98f6ce01a6cba863730cf024730440220067ba8f442c366e7350fc49a9e1e03d4983fc21a66fca07cc79acab79eefffbc02207d33fe4a3895e13156bf8d1a46cbcfa4968a0267f44a4345e1484928463f3c820121038217544f4a87ec8c972321f56ec397849292f53e43e98f6ce01a6cba863730cf02483045022100e37ff714f790f3cce0006728456a50963647d955857fcc652e11bd63449e928c02202e4cc4a9d8bad97c1f11c892568899586cae48c6de9135cfe925a3e708fcdde10121038217544f4a87ec8c972321f56ec397849292f53e43e98f6ce01a6cba863730cf02483045022100e73edd0bd5cc86282b4926684b5e8f14dace0e777fa7f8c17d141cc02cdee1db0220629cbe52ce8237da0e08af02d31e7bf365a2340d6dd98f315faaeaa19b3da7020121038217544f4a87ec8c972321f56ec397849292f53e43e98f6ce01a6cba863730cf00000000"
}