{
  "txid": "74865996cbcb20636136fc6f947a868b6060331df3db541bae3b0085d191b830",
  "version": 2,
  "locktime": 0,
  "vin": [
    {
      "txid": "09830c9a1b0779420f9eddcaa0c9a03303ea47612716e1d2bdcf9982915f3dca",
      "vout": 0,
      "prevout": {
        "scriptpubkey": "512023fad87ec8d9d2dec9d3bbcf2f0f2fd19d0fa7cffd40b7a372c844f29ad4d768",
        "scriptpubkey_asm": "OP_PUSHNUM_1 OP_PUSHBYTES_32 23fad87ec8d9d2dec9d3bbcf2f0f2fd19d0fa7cffd40b7a372c844f29ad4d768",
        "scriptpubkey_type": "v1_p2tr",
        "scriptpubkey_address": "bc1py0adslkgm8fdajwnh08j7re06xwslf70l4qt0gmjepz09xk56a5qpsvzdl",
        "value": 11213
      },
      "scriptsig": "",
      "scriptsig_asm": "",
      "witness": [
        "3a007422478c77e4f15082be466a9f61319a5ca574bba78cbe589ee2a51c1b9b855c6dbefaf85174f0edc3c45a42cb0628e08ee0a43e3e6b4e9fcc7831ed61ed",
        "20ea15db39a9c1f523df6ff18b296619e9d9fe8193dacfd26ed54585d19a3463cfac0063036f7264010118746578742f706c61696e3b636861727365743d7574662d38010200000a3530313133352e627463680063036f7264010118746578742f706c61696e3b636861727365743d7574662d380102022202000a3530323133352e627463680063036f7264010118746578742f706c61696e3b636861727365743d7574662d380102024404000a3530333133352e627463680063036f7264010118746578742f706c61696e3b636861727365743d7574662d380102026606000a3530343133352e627463680063036f7264010118746578742f706c61696e3b636861727365743d7574662d380102028808000a3530353133352e627463680063036f7264010118746578742f706c61696e3b636861727365743d7574662d38010202aa0a000a3530363133352e627463680063036f7264010118746578742f706c61696e3b636861727365743d7574662d38010202cc0c000a3530373133352e627463680063036f7264010118746578742f706c61696e3b636861727365743d7574662d38010202ee0e000a3530343133362e627463680063036f7264010118746578742f706c61696e3b636861727365743d7574662d380102021011000a3530343133372e627463680063036f7264010118746578742f706c61696e3b636861727365743d7574662d380102023213000a3530343133382e62746368",
        "c1ea15db39a9c1f523df6ff18b296619e9d9fe8193dacfd26ed54585d19a3463cf"
      ],
      "is_coinbase": false,
      "sequence": 4294967293
    }
  ],
  "vout": [
    {
      "scriptpubkey": "0014c3f5c589008eac835310188e53b6396593575da3",
      "scriptpubkey_asm": "OP_0 OP_PUSHBYTES_20 c3f5c589008eac835310188e53b6396593575da3",
      "scriptpubkey_type": "v0_p2wpkh",
      "scriptpubkey_address": "bc1qc06utzgq36kgx5csrz898d3evkf4whdrdddmv6",
      "value": 546
    },
    {
      "scriptpubkey": "0014c3f5c589008eac835310188e53b6396593575da3",
      "scriptpubkey_asm": "OP_0 OP_PUSHBYTES_20 c3f5c589008eac835310188e53b6396593575da3",
      "scriptpubkey_type": "v0_p2wpkh",
      "scriptpubkey_address": "bc1qc06utzgq36kgx5csrz898d3evkf4whdrdddmv6",
      "value": 546
    },
    {
      "scriptpubkey": "0014c3f5c589008eac835310188e53b6396593575da3",
      "scriptpubkey_asm": "OP_0 OP_PUSHBYTES_20 c3f5c589008eac835310188e53b6396593575da3",
      "scriptpubkey_type": "v0_p2wpkh",
      "scriptpubkey_address": "bc1qc06utzgq36kgx5csrz898d3evkf4whdrdddmv6",
      "value": 546
    },
    {
      "scriptpubkey": "0014c3f5c589008eac835310188e53b6396593575da3",
      "scriptpubkey_asm": "OP_0 OP_PUSHBYTES_20 c3f5c589008eac835310188e53b6396593575da3",
      "scriptpubkey_type": "v0_p2wpkh",
      "scriptpubkey_address": "bc1qc06utzgq36kgx5csrz898d3evkf4whdrdddmv6",
      "value": 546
    },
    {
      "scriptpubkey": "0014c3f5c589008eac835310188e53b6396593575da3",
      "scriptpubkey_asm": "OP_0 OP_PUSHBYTES_20 c3f5c589008eac835310188e53b6396593575da3",
      "scriptpubkey_type": "v0_p2wpkh",
      "scriptpubkey_address": "bc1qc06utzgq36kgx5csrz898d3evkf4whdrdddmv6",
      "value": 546
    },
    {
      "scriptpubkey": "0014c3f5c589008eac835310188e53b6396593575da3",
      "scriptpubkey_asm": "OP_0 OP_PUSHBYTES_20 c3f5c589008eac835310188e53b6396593575da3",
      "scriptpubkey_type": "v0_p2wpkh",
      "scriptpubkey_address": "bc1qc06utzgq36kgx5csrz898d3evkf4whdrdddmv6",
      "value": 546
    },
    {
      "scriptpubkey": "0014c3f5c589008eac835310188e53b6396593575da3",
      "scriptpubkey_asm": "OP_0 OP_PUSHBYTES_20 c3f5c589008eac835310188e53b6396593575da3",
      "scriptpubkey_type": "v0_p2wpkh",
      "scriptpubkey_address": "bc1qc06utzgq36kgx5csrz898d3evkf4whdrdddmv6",
      "value": 546
    },
    {
      "scriptpubkey": "0014c3f5c589008eac835310188e53b6396593575da3",
      "scriptpubkey_asm": "OP_0 OP_PUSHBYTES_20 c3f5c589008eac835310188e53b6396593575da3",
      "scriptpubkey_type": "v0_p2wpkh",
      "scriptpubkey_address": "bc1qc06utzgq36kgx5csrz898d3evkf4whdrdddmv6",
      "value": 546
    },
    {
      "scriptpubkey": "0014c3f5c589008eac835310188e53b6396593575da3",
      "scriptpubkey_asm": "OP_0 OP_PUSHBYTES_20 c3f5c589008eac835310188e53b6396593575da3",
      "scriptpubkey_type": "v0_p2wpkh",
      "scriptpubkey_address": "bc1qc06utzgq36kgx5csrz898d3evkf4whdrdddmv6",
      "value": 546
    },
    {
      "scriptpubkey": "0014c3f5c589008eac835310188e53b6396593575da3",
      "scriptpubkey_asm": "OP_0 OP_PUSHBYTES_20 c3f5c589008eac835310188e53b6396593575da3",
      "scriptpubkey_type": "v0_p2wpkh",
      "scriptpubkey_address": "bc1qc06utzgq36kgx5csrz898d3evkf4whdrdddmv6",
      "value": 546
    }
  ],
  "size": 1008,
  "weight": 2091,
  "fee": 5753,
  "status": {
    "confirmed": true,
    "block_height": 834464,
    "block_hash": "0000000000000000000177a0869a911a2b65c9bdcd5a8bcb02b68f305bee848e",
    "block_time": 1710308296
  },
  "hex": "02000000000101ca3d5f918299cfbdd2e116276147ea0333a0c9a0cadd9e0f4279071b9a0c83090000000000fdffffff0a2202000000000000160014c3f5c589008eac835310188e53b6396593575da32202000000000000160014c3f5c589008eac835310188e53b6396593575da32202000000000000160014c3f5c589008eac835310188e53b6396593575da32202000000000000160014c3f5c589008eac835310188e53b6396593575da32202000000000000160014c3f5c589008eac835310188e53b6396593575da32202000000000000160014c3f5c589008eac835310188e53b6396593575da32202000000000000160014c3f5c589008eac835310188e53b6396593575da32202000000000000160014c3f5c589008eac835310188e53b6396593575da32202000000000000160014c3f5c589008eac835310188e53b6396593575da32202000000000000160014c3f5c589008eac835310188e53b6396593575da303403a007422478c77e4f15082be466a9f61319a5ca574bba78cbe589ee2a51c1b9b855c6dbefaf85174f0edc3c45a42cb0628e08ee0a43e3e6b4e9fcc7831ed61edfd1e0220ea15db39a9c1f523df6ff18b296619e9d9fe8193dacfd26ed54585d19a3463cfac0063036f7264010118746578742f706c61696e3b636861727365743d7574662d38010200000a3530313133352e627463680063036f7264010118746578742f706c61696e3b636861727365743d7574662d380102022202000a3530323133352e627463680063036f7264010118746578742f706c61696e3b636861727365743d7574662d380102024404000a3530333133352e627463680063036f7264010118746578742f706c61696e3b636861727365743d7574662d380102026606000a3530343133352e627463680063036f7264010118746578742f706c61696e3b636861727365743d7574662d380102028808000a3530353133352e627463680063036f7264010118746578742f706c61696e3b636861727365743d7574662d38010202aa0a000a3530363133352e627463680063036f7264010118746578742f706c61696e3b636861727365743d7574662d38010202cc0c000a3530373133352e627463680063036f7264010118746578742f706c61696e3b636861727365743d7574662d38010202ee0e000a3530343133362e627463680063036f7264010118746578742f706c61696e3b636861727365743d7574662d380102021011000a3530343133372e627463680063036f7264010118746578742f706c61696e3b636861727365743d7574662d380102023213000a3530343133382e6274636821c1ea15db39a9c1f523df6ff18b296619e9d9fe8193dacfd26ed54585d19a3463cf00000000"
}