{
  "txid": "748d8d69757b70d87904b1744e8885b38f48729547cfcdacce5a649533ddf281",
  "version": 2,
  "locktime": 0,
  "vin": [
    {
      "txid": "33198a5cbe2a53fc30099ab53009144888cef479020e7acbc065183b03c26d7b",
      "vout": 15,
      "prevout": {
        "scriptpubkey": "5120c654595aacbdde271351e2b687c8f2e74d31e3dc4d6f76f7e1efc942106f1a86",
        "scriptpubkey_asm": "OP_PUSHNUM_1 OP_PUSHBYTES_32 c654595aacbdde271351e2b687c8f2e74d31e3dc4d6f76f7e1efc942106f1a86",
        "scriptpubkey_type": "v1_p2tr",
        "scriptpubkey_address": "bc1pce29jk4vhh0zwy63u2mg0j8juaxnrc7uf4hhdalpaly5yyr0r2rqrqv20a",
        "value": 2658
      },
      "scriptsig": "",
      "scriptsig_asm": "",
      "witness": [
        "5f5bb466331e6543806febb10416693f4f753fc39275c7c30f813ae1293db814b3e02d14c1f7b5f4d6b175a42e46ab3daa1cfd297cb19db166da6bf40d1122b8",
        "2078a33d9def2c96ec80f5d2374667e8e5371bc58a1e44d53d712f4db058ff35feac0063036f726401011e6170706c69636174696f6e2f6a736f6e3b636861727365743d7574662d38004cbf7b2270223a22706f772d3230222c226f70223a226d696e74222c227469636b223a2250455045222c22616d74223a2231303030222c22736f6c7574696f6e223a22504550453a626331717832636c7935673578376b356a6b7376396d61346332753661646c7a78657470616e387071733a303030303030303030303030303030303030303139393431613561653132383937363539383134343239323533333030353762306461393666336465613163353a3136373934393034343135227d68",
        "c1da2c9a1920efdfbecd176e4adbb0ca1150e62509fd8a3a19d8331b0c89a8a97b"
      ],
      "is_coinbase": false,
      "sequence": 4294967295
    }
  ],
  "vout": [
    {
      "scriptpubkey": "001432b1f2511437ad495a0c2efb5c2b9aeb7e236561",
      "scriptpubkey_asm": "OP_0 OP_PUSHBYTES_20 32b1f2511437ad495a0c2efb5c2b9aeb7e236561",
      "scriptpubkey_type": "v0_p2wpkh",
      "scriptpubkey_address": "bc1qx2cly5g5x7k5jksv9ma4c2u6adlzxetpan8pqs",
      "value": 546
    }
  ],
  "size": 455,
  "weight": 701,
  "fee": 2112,
  "status": {
    "confirmed": true,
    "block_height": 834460,
    "block_hash": "00000000000000000000484a79b643b2524bbce82e5d8a442013fa5b8905ed98",
    "block_time": 1710307468
  },
  "hex": "020000000001017b6dc2033b1865c0cb7a0e0279f4ce8848140930b59a0930fc532abe5c8a19330f00000000ffffffff01220200000000000016001432b1f2511437ad495a0c2efb5c2b9aeb7e23656103405f5bb466331e6543806febb10416693f4f753fc39275c7c30f813ae1293db814b3e02d14c1f7b5f4d6b175a42e46ab3daa1cfd297cb19db166da6bf40d1122b8fd0c012078a33d9def2c96ec80f5d2374667e8e5371bc58a1e44d53d712f4db058ff35feac0063036f726401011e6170706c69636174696f6e2f6a736f6e3b636861727365743d7574662d38004cbf7b2270223a22706f772d3230222c226f70223a226d696e74222c227469636b223a2250455045222c22616d74223a2231303030222c22736f6c7574696f6e223a22504550453a626331717832636c7935673578376b356a6b7376396d61346332753661646c7a78657470616e387071733a303030303030303030303030303030303030303139393431613561653132383937363539383134343239323533333030353762306461393666336465613163353a3136373934393034343135227d6821c1da2c9a1920efdfbecd176e4adbb0ca1150e62509fd8a3a19d8331b0c89a8a97b00000000"
}