{
  "txid": "749721101012951998888e444d7424a8231cae2ea75bbf5784c95bdfd12810f2",
  "version": 2,
  "locktime": 0,
  "vin": [
    {
      "txid": "fde72ccf63b4320bbd96a4b3fd958bdfe5ee5209bef80e95685e78050a889b08",
      "vout": 21,
      "prevout": {
        "scriptpubkey": "512068a6b4092dd7f4ead75ed8a772d41b824919ceb000896346e57f5feeda935672",
        "scriptpubkey_asm": "OP_PUSHNUM_1 OP_PUSHBYTES_32 68a6b4092dd7f4ead75ed8a772d41b824919ceb000896346e57f5feeda935672",
        "scriptpubkey_type": "v1_p2tr",
        "scriptpubkey_address": "bc1pdzntgzfd6l6w4467mznh94qmsfy3nn4sqzykx3h90a07ak5n2eeq7pae58",
        "value": 1711
      },
      "scriptsig": "",
      "scriptsig_asm": "",
      "witness": [
        "02",
        "750063036f726401010a746578742f706c61696e00367b2270223a226272632d3230222c226f70223a226d696e74222c227469636b223a2261616161222c22616d74223a223130303030227d6851",
        "c1782891272861d4104f524ac31855e20aa1bdb507ac4a6619c030768496b90e84"
      ],
      "is_coinbase": false,
      "sequence": 4294967295
    }
  ],
  "vout": [
    {
      "scriptpubkey": "0014a40897ac0756778584e7dbe457cca54abc6daf4c",
      "scriptpubkey_asm": "OP_0 OP_PUSHBYTES_20 a40897ac0756778584e7dbe457cca54abc6daf4c",
      "scriptpubkey_type": "v0_p2wpkh",
      "scriptpubkey_address": "bc1q5syf0tq82emctp88m0j90n99f27xmt6v2f79lx",
      "value": 294
    }
  ],
  "size": 200,
  "weight": 446,
  "fee": 1417,
  "status": {
    "confirmed": true,
    "block_height": 834460,
    "block_hash": "00000000000000000000484a79b643b2524bbce82e5d8a442013fa5b8905ed98",
    "block_time": 1710307468
  },
  "hex": "02000000000101089b880a05785e68950ef8be0952eee5df8b95fdb3a496bd0b32b463cf2ce7fd1500000000ffffffff012601000000000000160014a40897ac0756778584e7dbe457cca54abc6daf4c0301024e750063036f726401010a746578742f706c61696e00367b2270223a226272632d3230222c226f70223a226d696e74222c227469636b223a2261616161222c22616d74223a223130303030227d685121c1782891272861d4104f524ac31855e20aa1bdb507ac4a6619c030768496b90e8400000000"
}