{
  "txid": "74a04f6734ad88b61468eaecbba86e10fc5132c461dec26a15daac9b6e3ca191",
  "version": 1,
  "locktime": 0,
  "vin": [
    {
      "txid": "6473b797f5b28987987577a4b46acb49f5d154c6ee402ed9114f7db3bf939377",
      "vout": 0,
      "prevout": {
        "scriptpubkey": "0014c2247d5e6f0930f6f07eff1c32e1f9f50f65e858",
        "scriptpubkey_asm": "OP_0 OP_PUSHBYTES_20 c2247d5e6f0930f6f07eff1c32e1f9f50f65e858",
        "scriptpubkey_type": "v0_p2wpkh",
        "scriptpubkey_address": "bc1qcgj86hn0pyc0dur7luwr9c0e758kt6zcq725m4",
        "value": 1007872
      },
      "scriptsig": "",
      "scriptsig_asm": "",
      "witness": [
        "304402207e7f174abdc782cc2f2436e3414625493af2ead91aeed51d68c179b4d09066eb02201b1ccc39ebf1729b882379ad0ec838626506b529b7b94490aa1e6250fff9f5b401",
        "03ff73c3ad77d69ab5006422bb4e43630003856fcef6219da8f721d7730a1be8d4"
      ],
      "is_coinbase": false,
      "sequence": 4294967295
    }
  ],
  "vout": [
    {
      "scriptpubkey": "0014c2247d5e6f0930f6f07eff1c32e1f9f50f65e858",
      "scriptpubkey_asm": "OP_0 OP_PUSHBYTES_20 c2247d5e6f0930f6f07eff1c32e1f9f50f65e858",
      "scriptpubkey_type": "v0_p2wpkh",
      "scriptpubkey_address": "bc1qcgj86hn0pyc0dur7luwr9c0e758kt6zcq725m4",
      "value": 50132
    },
    {
      "scriptpubkey": "a914b0071a795ef5bbeb00e3838e3c872b49d9d01f3787",
      "scriptpubkey_asm": "OP_HASH160 OP_PUSHBYTES_20 b0071a795ef5bbeb00e3838e3c872b49d9d01f37 OP_EQUAL",
      "scriptpubkey_type": "p2sh",
      "scriptpubkey_address": "3HjmMrpcYDSwMAX1pDky4syFidgx46jvzp",
      "value": 954100
    }
  ],
  "size": 223,
  "weight": 565,
  "fee": 3640,
  "status": {
    "confirmed": true,
    "block_height": 834638,
    "block_hash": "000000000000000000025f742c626208ac87e0b7d15054abb4a19ca2d735a54e",
    "block_time": 1710405325
  },
  "hex": "01000000000101779393bfb37d4f11d92e40eec654d1f549cb6ab4a47775988789b2f597b773640000000000ffffffff02d4c3000000000000160014c2247d5e6f0930f6f07eff1c32e1f9f50f65e858f48e0e000000000017a914b0071a795ef5bbeb00e3838e3c872b49d9d01f37870247304402207e7f174abdc782cc2f2436e3414625493af2ead91aeed51d68c179b4d09066eb02201b1ccc39ebf1729b882379ad0ec838626506b529b7b94490aa1e6250fff9f5b4012103ff73c3ad77d69ab5006422bb4e43630003856fcef6219da8f721d7730a1be8d400000000"
}