{
  "txid": "74a2d23794c84fa5c0fe24b2ac6d9ba6836edc6862d454076134f04d47226ae6",
  "version": 2,
  "locktime": 834637,
  "vin": [
    {
      "txid": "eeba0bc4b12d6cecbb4854f89eb3822477e72690682267f85aa2afd34f13dccc",
      "vout": 1,
      "prevout": {
        "scriptpubkey": "0014db6abea3b7055b2ead40396653ddcde913997aa6",
        "scriptpubkey_asm": "OP_0 OP_PUSHBYTES_20 db6abea3b7055b2ead40396653ddcde913997aa6",
        "scriptpubkey_type": "v0_p2wpkh",
        "scriptpubkey_address": "bc1qmd4tagahq4djat2q89n98hwdayfej74x4r04ha",
        "value": 268993040
      },
      "scriptsig": "",
      "scriptsig_asm": "",
      "witness": [
        "304402202cd71f2c851b576a9de25b5059bdd7025bf100f35d176f21c9595be42d0eb3930220320bbd83818bd91e81348ae0cfdee5717fde7026f9fafa3daf15aac86b818cf401",
        "02819ce370e0da3f4039f8ab2ba978b9b602ebeb8f34a81a8c2afd49e92c462c41"
      ],
      "is_coinbase": false,
      "sequence": 4294967294
    }
  ],
  "vout": [
    {
      "scriptpubkey": "0014fc00a7bb3e0d6f513461b8980e15d41a4fd287b4",
      "scriptpubkey_asm": "OP_0 OP_PUSHBYTES_20 fc00a7bb3e0d6f513461b8980e15d41a4fd287b4",
      "scriptpubkey_type": "v0_p2wpkh",
      "scriptpubkey_address": "bc1qlsq20we7p4h4zdrphzvqu9w5rf8a9pa5a06dng",
      "value": 267888384
    },
    {
      "scriptpubkey": "00147d883e5bf387807b12176d5c1d1270054ca3520c",
      "scriptpubkey_asm": "OP_0 OP_PUSHBYTES_20 7d883e5bf387807b12176d5c1d1270054ca3520c",
      "scriptpubkey_type": "v0_p2wpkh",
      "scriptpubkey_address": "bc1q0kyruklns7q8kyshd4wp6ynsq4x2x5svunfcqt",
      "value": 1101200
    }
  ],
  "size": 222,
  "weight": 561,
  "fee": 3456,
  "status": {
    "confirmed": true,
    "block_height": 834638,
    "block_hash": "000000000000000000025f742c626208ac87e0b7d15054abb4a19ca2d735a54e",
    "block_time": 1710405325
  },
  "hex": "02000000000101ccdc134fd3afa25af86722689026e7772482b39ef85448bbec6c2db1c40bbaee0100000000feffffff0200a7f70f00000000160014fc00a7bb3e0d6f513461b8980e15d41a4fd287b490cd1000000000001600147d883e5bf387807b12176d5c1d1270054ca3520c0247304402202cd71f2c851b576a9de25b5059bdd7025bf100f35d176f21c9595be42d0eb3930220320bbd83818bd91e81348ae0cfdee5717fde7026f9fafa3daf15aac86b818cf4012102819ce370e0da3f4039f8ab2ba978b9b602ebeb8f34a81a8c2afd49e92c462c414dbc0c00"
}