{
  "txid": "74a38ffbb3138c92f5a2797cbfa829b78e94e8f426b8f79d4a46802e39dc56dc",
  "version": 2,
  "locktime": 834637,
  "vin": [
    {
      "txid": "7ec6e8cfe8a94eda2f487ce25d4138b6f58d60eba329ab9a45d357de897fee58",
      "vout": 1,
      "prevout": {
        "scriptpubkey": "0014733ecddfb1c32e4068025c85cd814dd4529bac44",
        "scriptpubkey_asm": "OP_0 OP_PUSHBYTES_20 733ecddfb1c32e4068025c85cd814dd4529bac44",
        "scriptpubkey_type": "v0_p2wpkh",
        "scriptpubkey_address": "bc1qwvlvmha3cvhyq6qztjzumq2d63ffhtzyxxu6q8",
        "value": 88097000
      },
      "scriptsig": "",
      "scriptsig_asm": "",
      "witness": [
        "3044022009b7a9a3404ec605637026b7928fa05e79f3408f14c1f76e20576d19b7e3918c02200dcfeb370cb7ee88e3b4f41fc7aa154bb6a94abfc4506484da8dcaf47b8f61d601",
        "03689b490b2551051b7ed466cb4634aa73a41998cf107ce1cf125b784ba2d613dd"
      ],
      "is_coinbase": false,
      "sequence": 4294967293
    },
    {
      "txid": "0e0439e1ab43f8357df03cbe59a067976f24a327db9a4330dfb4e3ddf726a44a",
      "vout": 0,
      "prevout": {
        "scriptpubkey": "0014733ecddfb1c32e4068025c85cd814dd4529bac44",
        "scriptpubkey_asm": "OP_0 OP_PUSHBYTES_20 733ecddfb1c32e4068025c85cd814dd4529bac44",
        "scriptpubkey_type": "v0_p2wpkh",
        "scriptpubkey_address": "bc1qwvlvmha3cvhyq6qztjzumq2d63ffhtzyxxu6q8",
        "value": 772572305
      },
      "scriptsig": "",
      "scriptsig_asm": "",
      "witness": [
        "304402203d218a0e3de99ebd6346104a58da524bb61dde6ce483d5de2863566f8c150afb02205abb74c5a0344dd46c795e73d41cb9d799047807b5bc2b9d9455638888150f4d01",
        "03689b490b2551051b7ed466cb4634aa73a41998cf107ce1cf125b784ba2d613dd"
      ],
      "is_coinbase": false,
      "sequence": 4294967293
    },
    {
      "txid": "7ec6e8cfe8a94eda2f487ce25d4138b6f58d60eba329ab9a45d357de897fee58",
      "vout": 0,
      "prevout": {
        "scriptpubkey": "0014733ecddfb1c32e4068025c85cd814dd4529bac44",
        "scriptpubkey_asm": "OP_0 OP_PUSHBYTES_20 733ecddfb1c32e4068025c85cd814dd4529bac44",
        "scriptpubkey_type": "v0_p2wpkh",
        "scriptpubkey_address": "bc1qwvlvmha3cvhyq6qztjzumq2d63ffhtzyxxu6q8",
        "value": 89244100
      },
      "scriptsig": "",
      "scriptsig_asm": "",
      "witness": [
        "304402205e0ce4f7296f7e8f53d74ccea02608483b48a6f911514b3a6cfc70bd79095013022022bb7633b11bcd4435ac0424c4942b1b4b4913814fbd45a6de75cbd631405cf601",
        "03689b490b2551051b7ed466cb4634aa73a41998cf107ce1cf125b784ba2d613dd"
      ],
      "is_coinbase": false,
      "sequence": 4294967293
    }
  ],
  "vout": [
    {
      "scriptpubkey": "a9143427320542deb866df4cb2b54b09f872981fe1f287",
      "scriptpubkey_asm": "OP_HASH160 OP_PUSHBYTES_20 3427320542deb866df4cb2b54b09f872981fe1f2 OP_EQUAL",
      "scriptpubkey_type": "p2sh",
      "scriptpubkey_address": "36Sn1rywJ6V6xGU3BMZMsfg624jy4AXp3J",
      "value": 949907000
    },
    {
      "scriptpubkey": "a914772adeea0653e4bff37955e4ddaacd3cc131669f87",
      "scriptpubkey_asm": "OP_HASH160 OP_PUSHBYTES_20 772adeea0653e4bff37955e4ddaacd3cc131669f OP_EQUAL",
      "scriptpubkey_type": "p2sh",
      "scriptpubkey_address": "3CZ7h5q8dyZiTBFcRxdht6BwdqHxrJNdWs",
      "value": 1980
    }
  ],
  "size": 520,
  "weight": 1111,
  "fee": 4425,
  "status": {
    "confirmed": true,
    "block_height": 834638,
    "block_hash": "000000000000000000025f742c626208ac87e0b7d15054abb4a19ca2d735a54e",
    "block_time": 1710405325
  },
  "hex": "0200000000010358ee7f89de57d3459aab29a3eb608df5b638415de27c482fda4ea9e8cfe8c67e0100000000fdffffff4aa426f7dde3b4df30439adb27a3246f9767a059be3cf07d35f843abe139040e0000000000fdffffff58ee7f89de57d3459aab29a3eb608df5b638415de27c482fda4ea9e8cfe8c67e0000000000fdffffff02386e9e380000000017a9143427320542deb866df4cb2b54b09f872981fe1f287bc0700000000000017a914772adeea0653e4bff37955e4ddaacd3cc131669f8702473044022009b7a9a3404ec605637026b7928fa05e79f3408f14c1f76e20576d19b7e3918c02200dcfeb370cb7ee88e3b4f41fc7aa154bb6a94abfc4506484da8dcaf47b8f61d6012103689b490b2551051b7ed466cb4634aa73a41998cf107ce1cf125b784ba2d613dd0247304402203d218a0e3de99ebd6346104a58da524bb61dde6ce483d5de2863566f8c150afb02205abb74c5a0344dd46c795e73d41cb9d799047807b5bc2b9d9455638888150f4d012103689b490b2551051b7ed466cb4634aa73a41998cf107ce1cf125b784ba2d613dd0247304402205e0ce4f7296f7e8f53d74ccea02608483b48a6f911514b3a6cfc70bd79095013022022bb7633b11bcd4435ac0424c4942b1b4b4913814fbd45a6de75cbd631405cf6012103689b490b2551051b7ed466cb4634aa73a41998cf107ce1cf125b784ba2d613dd4dbc0c00"
}