{
  "txid": "74ae453fad0f8309bf9bda41c2684728c7535f0767ec393fff595bffba3a1ec5",
  "version": 1,
  "locktime": 0,
  "vin": [
    {
      "txid": "a624b911787bb09324415c66d57d15b1800b56d115c0fedb261486feb03bac4c",
      "vout": 1,
      "prevout": {
        "scriptpubkey": "00141464d3c3f7ee46bfb97e1e6c97cc07a12b8ec310",
        "scriptpubkey_asm": "OP_0 OP_PUSHBYTES_20 1464d3c3f7ee46bfb97e1e6c97cc07a12b8ec310",
        "scriptpubkey_type": "v0_p2wpkh",
        "scriptpubkey_address": "bc1qz3jd8slhaertlwt7rekf0nq85y4cascsg6v5f3",
        "value": 105258
      },
      "scriptsig": "",
      "scriptsig_asm": "",
      "witness": [
        "304402201fd35f427ce4c34b974303af47c01b579a00cad2b78c0fb3ac1c1f336813db4302200da1a543500b1de561d939849c8ae238c1a02c09f7aea4d3f4eb702c22014bb201",
        "02fdac0676b08f60d2ef66daa2d12ec4baedd254563be8610064cd2414c8fa9410"
      ],
      "is_coinbase": false,
      "sequence": 0
    }
  ],
  "vout": [
    {
      "scriptpubkey": "76a91482eadefa79468348adfff139efaada8a64b1f67388ac",
      "scriptpubkey_asm": "OP_DUP OP_HASH160 OP_PUSHBYTES_20 82eadefa79468348adfff139efaada8a64b1f673 OP_EQUALVERIFY OP_CHECKSIG",
      "scriptpubkey_type": "p2pkh",
      "scriptpubkey_address": "1CwED4aqbA5o6Nnp6VsQ6o1WDW4X4TQHdG",
      "value": 96000
    },
    {
      "scriptpubkey": "00141464d3c3f7ee46bfb97e1e6c97cc07a12b8ec310",
      "scriptpubkey_asm": "OP_0 OP_PUSHBYTES_20 1464d3c3f7ee46bfb97e1e6c97cc07a12b8ec310",
      "scriptpubkey_type": "v0_p2wpkh",
      "scriptpubkey_address": "bc1qz3jd8slhaertlwt7rekf0nq85y4cascsg6v5f3",
      "value": 5370
    }
  ],
  "size": 225,
  "weight": 573,
  "fee": 3888,
  "status": {
    "confirmed": true,
    "block_height": 834638,
    "block_hash": "000000000000000000025f742c626208ac87e0b7d15054abb4a19ca2d735a54e",
    "block_time": 1710405325
  },
  "hex": "010000000001014cac3bb0fe861426dbfec015d1560b80b1157dd5665c412493b07b7811b924a60100000000000000000200770100000000001976a91482eadefa79468348adfff139efaada8a64b1f67388acfa140000000000001600141464d3c3f7ee46bfb97e1e6c97cc07a12b8ec3100247304402201fd35f427ce4c34b974303af47c01b579a00cad2b78c0fb3ac1c1f336813db4302200da1a543500b1de561d939849c8ae238c1a02c09f7aea4d3f4eb702c22014bb2012102fdac0676b08f60d2ef66daa2d12ec4baedd254563be8610064cd2414c8fa941000000000"
}