{
  "txid": "74b27e804d6ad45f26a459ef633748f5458ee795685d9522b4e5cea893b773ef",
  "version": 2,
  "locktime": 0,
  "vin": [
    {
      "txid": "b13bb5512a4904c28a6b7957b88edf574e8cb23551fc1dcfe22d6b239df42cf4",
      "vout": 70,
      "prevout": {
        "scriptpubkey": "5120f0f9fb549988c593113f90d62f0f885aca8c0f44bf91595abd4d3a23cd2fedc7",
        "scriptpubkey_asm": "OP_PUSHNUM_1 OP_PUSHBYTES_32 f0f9fb549988c593113f90d62f0f885aca8c0f44bf91595abd4d3a23cd2fedc7",
        "scriptpubkey_type": "v1_p2tr",
        "scriptpubkey_address": "bc1p7rulk4ye3rzexyfljrtz7rugtt9gcr6yh7g4jk4af5az8nf0ahrsavahvq",
        "value": 2575
      },
      "scriptsig": "",
      "scriptsig_asm": "",
      "witness": [
        "d1ad4c229aa0bba708f8a62a6c4cc94e43e5b26a15fd48fe0c3ac6c05f97a12df687ef9fab4e07c3744bfa6b461e7e70bb9f615169aa162f37a42b73aac90340",
        "20b6e72b699f5f3fb77295194890d947c73d762348e2a2f574f21af1cf59b8f3a5ac0063036f726401010a746578742f706c61696e00367b2270223a226272632d3230222c226f70223a226d696e74222c227469636b223a2261616161222c22616d74223a223130303030227d68",
        "c1b6e72b699f5f3fb77295194890d947c73d762348e2a2f574f21af1cf59b8f3a5"
      ],
      "is_coinbase": false,
      "sequence": 4261412863
    }
  ],
  "vout": [
    {
      "scriptpubkey": "0014ce0b5aa0dac72397a8aa5a85d90a2cfb46f0f630",
      "scriptpubkey_asm": "OP_0 OP_PUSHBYTES_20 ce0b5aa0dac72397a8aa5a85d90a2cfb46f0f630",
      "scriptpubkey_type": "v0_p2wpkh",
      "scriptpubkey_address": "bc1qec944gx6cu3e0292t2zajz3vldr0pa3sh356d9",
      "value": 546
    }
  ],
  "size": 295,
  "weight": 541,
  "fee": 2029,
  "status": {
    "confirmed": true,
    "block_height": 834464,
    "block_hash": "0000000000000000000177a0869a911a2b65c9bdcd5a8bcb02b68f305bee848e",
    "block_time": 1710308296
  },
  "hex": "02000000000101f42cf49d236b2de2cf1dfc5135b28c4e57df8eb857796b8ac204492a51b53bb14600000000fffffffd012202000000000000160014ce0b5aa0dac72397a8aa5a85d90a2cfb46f0f6300340d1ad4c229aa0bba708f8a62a6c4cc94e43e5b26a15fd48fe0c3ac6c05f97a12df687ef9fab4e07c3744bfa6b461e7e70bb9f615169aa162f37a42b73aac903406e20b6e72b699f5f3fb77295194890d947c73d762348e2a2f574f21af1cf59b8f3a5ac0063036f726401010a746578742f706c61696e00367b2270223a226272632d3230222c226f70223a226d696e74222c227469636b223a2261616161222c22616d74223a223130303030227d6821c1b6e72b699f5f3fb77295194890d947c73d762348e2a2f574f21af1cf59b8f3a500000000"
}