{
  "txid": "74b87c61314c7b135af9cabf5144088ef35aba29dc97478cd2837d99d2d1c661",
  "version": 1,
  "locktime": 0,
  "vin": [
    {
      "txid": "c8ac22d87f777323c1162dca9f6a9ab102effda7410bde51f25818e28d1889db",
      "vout": 0,
      "prevout": {
        "scriptpubkey": "51201eaaf691534e56cf659198954659f659a1d1d373d3d68cc16a14d018cd5887b8",
        "scriptpubkey_asm": "OP_PUSHNUM_1 OP_PUSHBYTES_32 1eaaf691534e56cf659198954659f659a1d1d373d3d68cc16a14d018cd5887b8",
        "scriptpubkey_type": "v1_p2tr",
        "scriptpubkey_address": "bc1pr640dy2nfetv7ev3nz25vk0ktxsar5mn60tgest2zngp3n2cs7uqjd75wy",
        "value": 229133
      },
      "scriptsig": "",
      "scriptsig_asm": "",
      "witness": [
        "dc071b022b7f828cb8ae32ed0796a7b067a324780d332c32424add13e89dc7db95d08cdd0a2afb810117786760c332d4d7f1fd024d504cae880ddbcd6aeb461e01"
      ],
      "is_coinbase": false,
      "sequence": 4294967295
    },
    {
      "txid": "0e334e21ec225bbbd71b6bd7ca3a30be6761262429923f6dbcc054e67a4ee37b",
      "vout": 0,
      "prevout": {
        "scriptpubkey": "51203383f7153637c433cb1d90af0b37cd1fb4cdbab6f7a1c7e6b8f766be12b53d8c",
        "scriptpubkey_asm": "OP_PUSHNUM_1 OP_PUSHBYTES_32 3383f7153637c433cb1d90af0b37cd1fb4cdbab6f7a1c7e6b8f766be12b53d8c",
        "scriptpubkey_type": "v1_p2tr",
        "scriptpubkey_address": "bc1pxwplw9fkxlzr8jcajzhskd7dr76vmw4k77su0e4c7antuy448kxq4eupm2",
        "value": 261003
      },
      "scriptsig": "",
      "scriptsig_asm": "",
      "witness": [
        "606ad488993ae19f53cc57b1ed0d9fcc3232318a797c7150386ce7b480cd1ea6d6b8adfb9d8305fc9fb6e6aeada4d8ab79ec4c83148be532031596e67931718601"
      ],
      "is_coinbase": false,
      "sequence": 4294967295
    }
  ],
  "vout": [
    {
      "scriptpubkey": "5120b34ffd1ab8062b2d72da35a085cb29ab212cc8569ca319e52a3a577ada6904ed",
      "scriptpubkey_asm": "OP_PUSHNUM_1 OP_PUSHBYTES_32 b34ffd1ab8062b2d72da35a085cb29ab212cc8569ca319e52a3a577ada6904ed",
      "scriptpubkey_type": "v1_p2tr",
      "scriptpubkey_address": "bc1pkd8l6x4cqc4j6uk6xksgtjef4vsjejzknj33nef28fth4knfqnks25g86q",
      "value": 7586
    },
    {
      "scriptpubkey": "0020d75a45c116a90028c93af64c528b0b9ad79fe9f38d41eef224ead68218fd2212",
      "scriptpubkey_asm": "OP_0 OP_PUSHBYTES_32 d75a45c116a90028c93af64c528b0b9ad79fe9f38d41eef224ead68218fd2212",
      "scriptpubkey_type": "v0_p2wsh",
      "scriptpubkey_address": "bc1q6adytsgk4yqz3jf67ex99zctnttel60n34q7au3yattgyx8aygfqfpszuj",
      "value": 480240
    }
  ],
  "size": 314,
  "weight": 848,
  "fee": 2310,
  "status": {
    "confirmed": true,
    "block_height": 834464,
    "block_hash": "0000000000000000000177a0869a911a2b65c9bdcd5a8bcb02b68f305bee848e",
    "block_time": 1710308296
  },
  "hex": "01000000000102db89188de21858f251de0b41a7fdef02b19a6a9fca2d16c12373777fd822acc80000000000ffffffff7be34e7ae654c0bc6d3f922924266167be303acad76b1bd7bb5b22ec214e330e0000000000ffffffff02a21d000000000000225120b34ffd1ab8062b2d72da35a085cb29ab212cc8569ca319e52a3a577ada6904edf053070000000000220020d75a45c116a90028c93af64c528b0b9ad79fe9f38d41eef224ead68218fd22120141dc071b022b7f828cb8ae32ed0796a7b067a324780d332c32424add13e89dc7db95d08cdd0a2afb810117786760c332d4d7f1fd024d504cae880ddbcd6aeb461e010141606ad488993ae19f53cc57b1ed0d9fcc3232318a797c7150386ce7b480cd1ea6d6b8adfb9d8305fc9fb6e6aeada4d8ab79ec4c83148be532031596e6793171860100000000"
}