{
  "txid": "74c8060014daa6a8fe0ac7161cc5dc798537a80880e87feb91db18c6b737351f",
  "version": 2,
  "locktime": 834559,
  "vin": [
    {
      "txid": "21f34a2def79a8e78bbf8613030bfec26a6ecf73fe93eacff58e55d32d8d3b63",
      "vout": 1,
      "prevout": {
        "scriptpubkey": "0014a3c8e52731875acbb05894bc7957f5dcad864906",
        "scriptpubkey_asm": "OP_0 OP_PUSHBYTES_20 a3c8e52731875acbb05894bc7957f5dcad864906",
        "scriptpubkey_type": "v0_p2wpkh",
        "scriptpubkey_address": "bc1q50yw2fe3sadvhvzcjj78j4l4mjkcvjgxu5eny4",
        "value": 6185738
      },
      "scriptsig": "",
      "scriptsig_asm": "",
      "witness": [
        "304402200364bc94940553824dd3aaeb4cd8cdb718ade0f1077470f7e5fc29e8e51e4d27022045b75ab24ad791b67f2f9e3893b520ed815bb2e85893074bc0cb9e2cb54a001901",
        "02d82beef16819ef916171cc7030d4ddbbf74f67888b5a7119f1a7461470d2e388"
      ],
      "is_coinbase": false,
      "sequence": 4294967294
    }
  ],
  "vout": [
    {
      "scriptpubkey": "0014471f11d3d4450a02fbb7e7100c66c8e4df84dc4c",
      "scriptpubkey_asm": "OP_0 OP_PUSHBYTES_20 471f11d3d4450a02fbb7e7100c66c8e4df84dc4c",
      "scriptpubkey_type": "v0_p2wpkh",
      "scriptpubkey_address": "bc1qgu03r575g59q97ahuugqcekgun0cfhzvh3z3xk",
      "value": 4851932
    },
    {
      "scriptpubkey": "00141bbbf78bde5e0c893ebf6a45852475a28f3c6985",
      "scriptpubkey_asm": "OP_0 OP_PUSHBYTES_20 1bbbf78bde5e0c893ebf6a45852475a28f3c6985",
      "scriptpubkey_type": "v0_p2wpkh",
      "scriptpubkey_address": "bc1qrwal0z77tcxgj04ldfzc2fr4528nc6v9l6gqdz",
      "value": 1330000
    }
  ],
  "size": 222,
  "weight": 561,
  "fee": 3806,
  "status": {
    "confirmed": true,
    "block_height": 834638,
    "block_hash": "000000000000000000025f742c626208ac87e0b7d15054abb4a19ca2d735a54e",
    "block_time": 1710405325
  },
  "hex": "02000000000101633b8d2dd3558ef5cfea93fe73cf6e6ac2fe0b031386bf8be7a879ef2d4af3210100000000feffffff02dc084a0000000000160014471f11d3d4450a02fbb7e7100c66c8e4df84dc4c504b1400000000001600141bbbf78bde5e0c893ebf6a45852475a28f3c69850247304402200364bc94940553824dd3aaeb4cd8cdb718ade0f1077470f7e5fc29e8e51e4d27022045b75ab24ad791b67f2f9e3893b520ed815bb2e85893074bc0cb9e2cb54a0019012102d82beef16819ef916171cc7030d4ddbbf74f67888b5a7119f1a7461470d2e388ffbb0c00"
}