{
  "txid": "74d8f51bc4cc8267a93fc2739b558227545edb077fe8f4da19a357259cc57945",
  "version": 2,
  "locktime": 0,
  "vin": [
    {
      "txid": "acc3ba00869acb582a3f2904ce3a11dd3779350ce234063fc7d0959246213364",
      "vout": 104,
      "prevout": {
        "scriptpubkey": "512007355f57e36248f7a4aa3f1c5cf4261db8768cfc78f6b3fccc3e60031387e898",
        "scriptpubkey_asm": "OP_PUSHNUM_1 OP_PUSHBYTES_32 07355f57e36248f7a4aa3f1c5cf4261db8768cfc78f6b3fccc3e60031387e898",
        "scriptpubkey_type": "v1_p2tr",
        "scriptpubkey_address": "bc1pqu6474lrvfy00f928uw9eapxrku8dr8u0rmt8lxv8esqxyu8azvqjq5k2f",
        "value": 1806
      },
      "scriptsig": "",
      "scriptsig_asm": "",
      "witness": [
        "dddd680de9021ae17a7fc8b12cb96ccb29fd68430008ee5d35bd6522e8cf42bb67dcdd4d4478cf0de94cdd48282093c575b193fff6a8aad87ec43e1d5bd78d61",
        "20304e1ef41506838be69b41c8c584adbdbaa5d4c1d188053d5a026dc6072a3d35ac0063036f726401010a746578742f706c61696e00357b2270223a226272632d3230222c226f70223a226d696e74222c227469636b223a22646f6765222c22616d74223a2234323030227d68",
        "c1304e1ef41506838be69b41c8c584adbdbaa5d4c1d188053d5a026dc6072a3d35"
      ],
      "is_coinbase": false,
      "sequence": 4261412863
    }
  ],
  "vout": [
    {
      "scriptpubkey": "00147a665de7a370f4c9b372ab1fae587500a5bcbdb4",
      "scriptpubkey_asm": "OP_0 OP_PUSHBYTES_20 7a665de7a370f4c9b372ab1fae587500a5bcbdb4",
      "scriptpubkey_type": "v0_p2wpkh",
      "scriptpubkey_address": "bc1q0fn9mearwr6vnvmj4v06ukr4qzjme0d565dzcx",
      "value": 294
    }
  ],
  "size": 294,
  "weight": 540,
  "fee": 1512,
  "status": {
    "confirmed": true,
    "block_height": 834460,
    "block_hash": "00000000000000000000484a79b643b2524bbce82e5d8a442013fa5b8905ed98",
    "block_time": 1710307468
  },
  "hex": "02000000000101643321469295d0c73f0634e20c357937dd113ace04293f2a58cb9a8600bac3ac6800000000fffffffd0126010000000000001600147a665de7a370f4c9b372ab1fae587500a5bcbdb40340dddd680de9021ae17a7fc8b12cb96ccb29fd68430008ee5d35bd6522e8cf42bb67dcdd4d4478cf0de94cdd48282093c575b193fff6a8aad87ec43e1d5bd78d616d20304e1ef41506838be69b41c8c584adbdbaa5d4c1d188053d5a026dc6072a3d35ac0063036f726401010a746578742f706c61696e00357b2270223a226272632d3230222c226f70223a226d696e74222c227469636b223a22646f6765222c22616d74223a2234323030227d6821c1304e1ef41506838be69b41c8c584adbdbaa5d4c1d188053d5a026dc6072a3d3500000000"
}