{
  "txid": "74e9f6a5b336e4270aac4396cc3d38202050b84d65d580f0aa4255400814aa3a",
  "version": 2,
  "locktime": 834550,
  "vin": [
    {
      "txid": "a188c5b93f9061b49f12e80cb73015fa0c7b503966651e48cd852e10d4bada95",
      "vout": 0,
      "prevout": {
        "scriptpubkey": "00141aaf7b26e7510e46bf21175c41ee59bf6339f2f6",
        "scriptpubkey_asm": "OP_0 OP_PUSHBYTES_20 1aaf7b26e7510e46bf21175c41ee59bf6339f2f6",
        "scriptpubkey_type": "v0_p2wpkh",
        "scriptpubkey_address": "bc1qr2hhkfh82y8yd0epzawyrmjeha3nnuhkktd8cg",
        "value": 68254
      },
      "scriptsig": "",
      "scriptsig_asm": "",
      "witness": [
        "30440220358e1e529b5a07e7eb5db97aa93bc0330ae64c19bed5d4a6220a68d240eddac20220282f7b23127f858aa374df7a6f064871bef77e75efff4b9ec8811c1ad08eb9fb01",
        "036a3832a31a3b7baffc1fa49a3522745b0b330cd1832dc7d72832c783a7fb1234"
      ],
      "is_coinbase": false,
      "sequence": 4294967294
    }
  ],
  "vout": [
    {
      "scriptpubkey": "00144daa50d0037902b156078e1cf16984cdbfb64ffd",
      "scriptpubkey_asm": "OP_0 OP_PUSHBYTES_20 4daa50d0037902b156078e1cf16984cdbfb64ffd",
      "scriptpubkey_type": "v0_p2wpkh",
      "scriptpubkey_address": "bc1qfk49p5qr0yptz4s83cw0z6vyeklmvnla8zzj7s",
      "value": 45394
    },
    {
      "scriptpubkey": "a914e55460ad9529286175a50fe7fbc6d7a594923d6d87",
      "scriptpubkey_asm": "OP_HASH160 OP_PUSHBYTES_20 e55460ad9529286175a50fe7fbc6d7a594923d6d OP_EQUAL",
      "scriptpubkey_type": "p2sh",
      "scriptpubkey_address": "3Nbbk8mUkoUPk3RwNEaZsg16Ff38v8PLQD",
      "value": 20600
    }
  ],
  "size": 223,
  "weight": 565,
  "fee": 2260,
  "status": {
    "confirmed": true,
    "block_height": 834638,
    "block_hash": "000000000000000000025f742c626208ac87e0b7d15054abb4a19ca2d735a54e",
    "block_time": 1710405325
  },
  "hex": "0200000000010195dabad4102e85cd481e656639507b0cfa1530b70ce8129fb461903fb9c588a10000000000feffffff0252b10000000000001600144daa50d0037902b156078e1cf16984cdbfb64ffd785000000000000017a914e55460ad9529286175a50fe7fbc6d7a594923d6d87024730440220358e1e529b5a07e7eb5db97aa93bc0330ae64c19bed5d4a6220a68d240eddac20220282f7b23127f858aa374df7a6f064871bef77e75efff4b9ec8811c1ad08eb9fb0121036a3832a31a3b7baffc1fa49a3522745b0b330cd1832dc7d72832c783a7fb1234f6bb0c00"
}