{
  "txid": "74ec1b83b132c107394cf70c4741a664345fc778dc56e689c63d8c29b91779ca",
  "version": 1,
  "locktime": 0,
  "vin": [
    {
      "txid": "ef2d0278e949be76b2f22fe3ddb0930d28383d47161a4fbed48d39801578e7a5",
      "vout": 0,
      "prevout": {
        "scriptpubkey": "5120c41a7fd2cd7cd6777ce3a49f9cceb35f3d1ecca22c7e3c9ce3dd9d42d092116c",
        "scriptpubkey_asm": "OP_PUSHNUM_1 OP_PUSHBYTES_32 c41a7fd2cd7cd6777ce3a49f9cceb35f3d1ecca22c7e3c9ce3dd9d42d092116c",
        "scriptpubkey_type": "v1_p2tr",
        "scriptpubkey_address": "bc1pcsd8l5kd0nt8wl8r5j0een4ntu73an9z93lre88rmkw595yjz9kqn8lzew",
        "value": 94005
      },
      "scriptsig": "",
      "scriptsig_asm": "",
      "witness": [
        "ec519c96155251fdbaeb150b51eec22269ed64f7fe66f3a26fa1cea9f7def5686d766ebc37e33ab6da8cd76bee44f0558dc50e8de201d60bff85cddb0e9945dc01"
      ],
      "is_coinbase": false,
      "sequence": 4294967295
    },
    {
      "txid": "2d5bcddad57732e80e029902da9b0a074d62075bf97076e5b7852fe98f0eea09",
      "vout": 0,
      "prevout": {
        "scriptpubkey": "512020f867a3010e2c4e357a913cd1a1cb92f1411f0eee645d7e7b5f038ad2334258",
        "scriptpubkey_asm": "OP_PUSHNUM_1 OP_PUSHBYTES_32 20f867a3010e2c4e357a913cd1a1cb92f1411f0eee645d7e7b5f038ad2334258",
        "scriptpubkey_type": "v1_p2tr",
        "scriptpubkey_address": "bc1pyrux0gcppckyudt6jy7drgwtjtc5z8cwaej96lnmtupc453ngfvqmv675z",
        "value": 5322
      },
      "scriptsig": "",
      "scriptsig_asm": "",
      "witness": [
        "411daa7b582989e36e41e2f1f48a04854edc6a84f0a8086f35f4a4e990d8abe2b7930719615dff4f91bdbbcb705859b56c3f3adeeb694e28b155581348b6471001"
      ],
      "is_coinbase": false,
      "sequence": 4294967295
    },
    {
      "txid": "a14a3313d76e2dd3b090d1bd1c503fa5ea78351b6a15ee092e35b30fa164bb55",
      "vout": 0,
      "prevout": {
        "scriptpubkey": "512056949fcb1877b0e8b7cb743fa45def791a0e24332ab87d088649032e643a6f63",
        "scriptpubkey_asm": "OP_PUSHNUM_1 OP_PUSHBYTES_32 56949fcb1877b0e8b7cb743fa45def791a0e24332ab87d088649032e643a6f63",
        "scriptpubkey_type": "v1_p2tr",
        "scriptpubkey_address": "bc1p262fljccw7cw3d7twsl6gh000ydqufpn92u86zyxfypjuep6da3syz7y9z",
        "value": 3880
      },
      "scriptsig": "",
      "scriptsig_asm": "",
      "witness": [
        "f2f60bd153cf9eaedb374297baf807355baa284d2210f498e59df68a08c5145d1a7a836ee493eebb870fff925afa91ff34064a109db36cdc98178a4230eb66a901"
      ],
      "is_coinbase": false,
      "sequence": 4294967295
    }
  ],
  "vout": [
    {
      "scriptpubkey": "00149c9264b291a4f73f3bc8f9f1906ee63758f6f3b6",
      "scriptpubkey_asm": "OP_0 OP_PUSHBYTES_20 9c9264b291a4f73f3bc8f9f1906ee63758f6f3b6",
      "scriptpubkey_type": "v0_p2wpkh",
      "scriptpubkey_address": "bc1qnjfxfv535nmn7w7gl8ceqmhxxav0duak428fh9",
      "value": 100871
    }
  ],
  "size": 367,
  "weight": 859,
  "fee": 2336,
  "status": {
    "confirmed": true,
    "block_height": 834464,
    "block_hash": "0000000000000000000177a0869a911a2b65c9bdcd5a8bcb02b68f305bee848e",
    "block_time": 1710308296
  },
  "hex": "01000000000103a5e7781580398dd4be4f1a16473d38280d93b0dde32ff2b276be49e978022def0000000000ffffffff09ea0e8fe92f85b7e57670f95b07624d070a9bda0299020ee83277d5dacd5b2d0000000000ffffffff55bb64a10fb3352e09ee156a1b3578eaa53f501cbdd190b0d32d6ed713334aa10000000000ffffffff01078a0100000000001600149c9264b291a4f73f3bc8f9f1906ee63758f6f3b60141ec519c96155251fdbaeb150b51eec22269ed64f7fe66f3a26fa1cea9f7def5686d766ebc37e33ab6da8cd76bee44f0558dc50e8de201d60bff85cddb0e9945dc010141411daa7b582989e36e41e2f1f48a04854edc6a84f0a8086f35f4a4e990d8abe2b7930719615dff4f91bdbbcb705859b56c3f3adeeb694e28b155581348b64710010141f2f60bd153cf9eaedb374297baf807355baa284d2210f498e59df68a08c5145d1a7a836ee493eebb870fff925afa91ff34064a109db36cdc98178a4230eb66a90100000000"
}