{
  "txid": "75014b0b913c56ddcccac98821d223a6e259d5284e05ce7c19cbf4ac7913f84a",
  "version": 2,
  "locktime": 0,
  "vin": [
    {
      "txid": "6c2a268a1f2b9b9b8564f21ce7d7d8f70612528fce84809166bc5e8e8dbae616",
      "vout": 1,
      "prevout": {
        "scriptpubkey": "00147c8ee29c04b2a9c16cc3d6d70d336bd075d06d2d",
        "scriptpubkey_asm": "OP_0 OP_PUSHBYTES_20 7c8ee29c04b2a9c16cc3d6d70d336bd075d06d2d",
        "scriptpubkey_type": "v0_p2wpkh",
        "scriptpubkey_address": "bc1q0j8w98qyk25uzmxr6mts6vmt6p6aqmfdw682k7",
        "value": 8670200
      },
      "scriptsig": "",
      "scriptsig_asm": "",
      "witness": [
        "3044022054e2099cac2fdc8e3594891bb62c42b74545ca1f2040f6e708de492723bb6d5902205aee8ba5ad263d4b197d558d81b3439539749101196428a2dc1fe8d6ed23280701",
        "03afcdcd32223ecf457b6a5222f8c0f47b1dfdba1052547ad10d29d7e7d2272ec4"
      ],
      "is_coinbase": false,
      "sequence": 4294967295
    }
  ],
  "vout": [
    {
      "scriptpubkey": "0014e8a800533aa0d89ff53abec94dc62003a4c23f1d",
      "scriptpubkey_asm": "OP_0 OP_PUSHBYTES_20 e8a800533aa0d89ff53abec94dc62003a4c23f1d",
      "scriptpubkey_type": "v0_p2wpkh",
      "scriptpubkey_address": "bc1qaz5qq5e65rvflaf6hmy5m33qqwjvy0ca4aexld",
      "value": 2000000
    },
    {
      "scriptpubkey": "0014f18a1a4d88901da9987757243d183ae84b26e8a2",
      "scriptpubkey_asm": "OP_0 OP_PUSHBYTES_20 f18a1a4d88901da9987757243d183ae84b26e8a2",
      "scriptpubkey_type": "v0_p2wpkh",
      "scriptpubkey_address": "bc1q7x9p5nvgjqw6nxrh2ujr6xp6ap9jd69zn4h5nf",
      "value": 6667689
    }
  ],
  "size": 222,
  "weight": 561,
  "fee": 2511,
  "status": {
    "confirmed": true,
    "block_height": 834638,
    "block_hash": "000000000000000000025f742c626208ac87e0b7d15054abb4a19ca2d735a54e",
    "block_time": 1710405325
  },
  "hex": "0200000000010116e6ba8d8e5ebc66918084ce8f521206f7d8d7e71cf264859b9b2b1f8a262a6c0100000000ffffffff0280841e0000000000160014e8a800533aa0d89ff53abec94dc62003a4c23f1da9bd650000000000160014f18a1a4d88901da9987757243d183ae84b26e8a202473044022054e2099cac2fdc8e3594891bb62c42b74545ca1f2040f6e708de492723bb6d5902205aee8ba5ad263d4b197d558d81b3439539749101196428a2dc1fe8d6ed232807012103afcdcd32223ecf457b6a5222f8c0f47b1dfdba1052547ad10d29d7e7d2272ec400000000"
}