{
  "txid": "75030761cb3f55f39727acc17ca9eaad7ccb1f30fe8aac0299d8f24995f38bb7",
  "version": 1,
  "locktime": 0,
  "vin": [
    {
      "txid": "2ad878071bfbf87c7132c0934a71351635f48dd8a165048dda144471faff5fe2",
      "vout": 1,
      "prevout": {
        "scriptpubkey": "76a914b9c457c7848ccb1be09e0e32659229a68d4deb1788ac",
        "scriptpubkey_asm": "OP_DUP OP_HASH160 OP_PUSHBYTES_20 b9c457c7848ccb1be09e0e32659229a68d4deb17 OP_EQUALVERIFY OP_CHECKSIG",
        "scriptpubkey_type": "p2pkh",
        "scriptpubkey_address": "1HwFDdduGgvU6ES36X7L3RiA4epQA8KrQX",
        "value": 86839866
      },
      "scriptsig": "4830450221009e524fd9c3bb3959fd6e024f3a70e678a2a330721196d13f0fed8745403c94ff02201d4ed4ad647c140e1217ef29a46e4393f954a5739d8e17837f9f09f5e281b594012103c3ce451e8b53088d6e905987eb2e195776ab9d80fc03fedb30776d3135e8aa52",
      "scriptsig_asm": "OP_PUSHBYTES_72 30450221009e524fd9c3bb3959fd6e024f3a70e678a2a330721196d13f0fed8745403c94ff02201d4ed4ad647c140e1217ef29a46e4393f954a5739d8e17837f9f09f5e281b59401 OP_PUSHBYTES_33 03c3ce451e8b53088d6e905987eb2e195776ab9d80fc03fedb30776d3135e8aa52",
      "is_coinbase": false,
      "sequence": 4294967295
    }
  ],
  "vout": [
    {
      "scriptpubkey": "a9141f1c0b93256a879168732e2bd1bb340f0e87d7e887",
      "scriptpubkey_asm": "OP_HASH160 OP_PUSHBYTES_20 1f1c0b93256a879168732e2bd1bb340f0e87d7e8 OP_EQUAL",
      "scriptpubkey_type": "p2sh",
      "scriptpubkey_address": "34XWU77Gd2cmdow5kouy25HaDiKPUb8WMB",
      "value": 861000
    },
    {
      "scriptpubkey": "76a914b9c457c7848ccb1be09e0e32659229a68d4deb1788ac",
      "scriptpubkey_asm": "OP_DUP OP_HASH160 OP_PUSHBYTES_20 b9c457c7848ccb1be09e0e32659229a68d4deb17 OP_EQUALVERIFY OP_CHECKSIG",
      "scriptpubkey_type": "p2pkh",
      "scriptpubkey_address": "1HwFDdduGgvU6ES36X7L3RiA4epQA8KrQX",
      "value": 85975941
    }
  ],
  "size": 224,
  "weight": 896,
  "fee": 2925,
  "status": {
    "confirmed": true,
    "block_height": 834460,
    "block_hash": "00000000000000000000484a79b643b2524bbce82e5d8a442013fa5b8905ed98",
    "block_time": 1710307468
  },
  "hex": "0100000001e25ffffa714414da8d0465a1d88df4351635714a93c032717cf8fb1b0778d82a010000006b4830450221009e524fd9c3bb3959fd6e024f3a70e678a2a330721196d13f0fed8745403c94ff02201d4ed4ad647c140e1217ef29a46e4393f954a5739d8e17837f9f09f5e281b594012103c3ce451e8b53088d6e905987eb2e195776ab9d80fc03fedb30776d3135e8aa52ffffffff0248230d000000000017a9141f1c0b93256a879168732e2bd1bb340f0e87d7e88785e31f05000000001976a914b9c457c7848ccb1be09e0e32659229a68d4deb1788ac00000000"
}