{
  "txid": "750a27adc83d719ce863303f4c8d7f74a4ea83c95fa092ed4c2faf26a56f858c",
  "version": 2,
  "locktime": 0,
  "vin": [
    {
      "txid": "5676b21586b3da13f1f03642a5d4d6eb502792bd1c44563bf6cd59b2737e7553",
      "vout": 5,
      "prevout": {
        "scriptpubkey": "0014a3e48390b6747e786d49df6573c1c1ece9b57282",
        "scriptpubkey_asm": "OP_0 OP_PUSHBYTES_20 a3e48390b6747e786d49df6573c1c1ece9b57282",
        "scriptpubkey_type": "v0_p2wpkh",
        "scriptpubkey_address": "bc1q50jg8y9kw3l8sm2fmajh8swpan5m2u5zl2g0wu",
        "value": 1242799
      },
      "scriptsig": "",
      "scriptsig_asm": "",
      "witness": [
        "3045022100920ee880211a1f604681a21685e2e5947a3e5c11f3151f665ec7ba7bf8f52fc602207481e71ddcde036fd7c0f067695c19e8399be18ef304ee6585d5dd95f8d5190401",
        "03cb042a288094bb0074079cc331d8db8fedde6ce853263ee2f43de7daf85d975d"
      ],
      "is_coinbase": false,
      "sequence": 4294967295
    },
    {
      "txid": "d1549cab0b64841e74b6500e14919bc84c3c1d833acdc0deb33e5e70e951b2f2",
      "vout": 2,
      "prevout": {
        "scriptpubkey": "0014a3e48390b6747e786d49df6573c1c1ece9b57282",
        "scriptpubkey_asm": "OP_0 OP_PUSHBYTES_20 a3e48390b6747e786d49df6573c1c1ece9b57282",
        "scriptpubkey_type": "v0_p2wpkh",
        "scriptpubkey_address": "bc1q50jg8y9kw3l8sm2fmajh8swpan5m2u5zl2g0wu",
        "value": 953619
      },
      "scriptsig": "",
      "scriptsig_asm": "",
      "witness": [
        "304502210092947c6fc4d1526c03759b116c350f5f7ec803527a2840923dc6501f79f5f18f022012a31325a048211f26483d88767a9160a450edba62455bbbfe8263cb2af2073c01",
        "03cb042a288094bb0074079cc331d8db8fedde6ce853263ee2f43de7daf85d975d"
      ],
      "is_coinbase": false,
      "sequence": 4294967295
    }
  ],
  "vout": [
    {
      "scriptpubkey": "00147b61634e51cb6b0769f30b3a2f1921bfcad94744",
      "scriptpubkey_asm": "OP_0 OP_PUSHBYTES_20 7b61634e51cb6b0769f30b3a2f1921bfcad94744",
      "scriptpubkey_type": "v0_p2wpkh",
      "scriptpubkey_address": "bc1q0dskxnj3ed4sw60npvaz7xfphl9dj36ypexavp",
      "value": 2193425
    }
  ],
  "size": 341,
  "weight": 710,
  "fee": 2993,
  "status": {
    "confirmed": true,
    "block_height": 834638,
    "block_hash": "000000000000000000025f742c626208ac87e0b7d15054abb4a19ca2d735a54e",
    "block_time": 1710405325
  },
  "hex": "0200000000010253757e73b259cdf63b56441cbd922750ebd6d4a54236f0f113dab38615b276560500000000fffffffff2b251e9705e3eb3dec0cd3a831d3c4cc89b91140e50b6741e84640bab9c54d10200000000ffffffff0111782100000000001600147b61634e51cb6b0769f30b3a2f1921bfcad9474402483045022100920ee880211a1f604681a21685e2e5947a3e5c11f3151f665ec7ba7bf8f52fc602207481e71ddcde036fd7c0f067695c19e8399be18ef304ee6585d5dd95f8d51904012103cb042a288094bb0074079cc331d8db8fedde6ce853263ee2f43de7daf85d975d0248304502210092947c6fc4d1526c03759b116c350f5f7ec803527a2840923dc6501f79f5f18f022012a31325a048211f26483d88767a9160a450edba62455bbbfe8263cb2af2073c012103cb042a288094bb0074079cc331d8db8fedde6ce853263ee2f43de7daf85d975d00000000"
}