{
  "txid": "751ad692b11556c12583effe3a744ae8e3a65f21b5f3c4bc24f4b4e4dd497196",
  "version": 2,
  "locktime": 0,
  "vin": [
    {
      "txid": "a06853d87a898fd5b7c5a5106319412d8101912c6e751fa2ef9691c7e185f73a",
      "vout": 1,
      "prevout": {
        "scriptpubkey": "00145d796138990cd6486cfc8cfd1e9cc96c6952dc9e",
        "scriptpubkey_asm": "OP_0 OP_PUSHBYTES_20 5d796138990cd6486cfc8cfd1e9cc96c6952dc9e",
        "scriptpubkey_type": "v0_p2wpkh",
        "scriptpubkey_address": "bc1qt4ukzwyepntysm8u3n73a8xfd3549hy72sz280",
        "value": 4047201
      },
      "scriptsig": "",
      "scriptsig_asm": "",
      "witness": [
        "3044022063a8652fc067c595bff4a183c0903b77cc92f894b7edf2aba43bfd171fe92c5f0220771ff7d1b32bdfba305041fbfb1cafcb48a4550e97f0fe73021ccbd8cad5093801",
        "03fa9bb6ea53f812ba8434e5528b9741e329758e1d8d077002f94f2c33aa0d64de"
      ],
      "is_coinbase": false,
      "sequence": 4294967293
    }
  ],
  "vout": [
    {
      "scriptpubkey": "00146d196b820e96610117be6142feb017d53fa90b00",
      "scriptpubkey_asm": "OP_0 OP_PUSHBYTES_20 6d196b820e96610117be6142feb017d53fa90b00",
      "scriptpubkey_type": "v0_p2wpkh",
      "scriptpubkey_address": "bc1qd5vkhqswjessz9a7v9p0avqh65l6jzcqrgt8t9",
      "value": 37000
    },
    {
      "scriptpubkey": "a9145f49e23f1cd70ddad59124ef4cff9d042e8eab1c87",
      "scriptpubkey_asm": "OP_HASH160 OP_PUSHBYTES_20 5f49e23f1cd70ddad59124ef4cff9d042e8eab1c OP_EQUAL",
      "scriptpubkey_type": "p2sh",
      "scriptpubkey_address": "3ANrdJVQUypHvh1Uqf5iMkqDsNNze9WEkY",
      "value": 35800
    },
    {
      "scriptpubkey": "0014071ec4bb560ebe7c484491f5552ac214eee17eec",
      "scriptpubkey_asm": "OP_0 OP_PUSHBYTES_20 071ec4bb560ebe7c484491f5552ac214eee17eec",
      "scriptpubkey_type": "v0_p2wpkh",
      "scriptpubkey_address": "bc1qqu0vfw6kp6l8cjzyj86422kzznhwzlhvtmwxfv",
      "value": 3971116
    }
  ],
  "size": 254,
  "weight": 689,
  "fee": 3285,
  "status": {
    "confirmed": true,
    "block_height": 834638,
    "block_hash": "000000000000000000025f742c626208ac87e0b7d15054abb4a19ca2d735a54e",
    "block_time": 1710405325
  },
  "hex": "020000000001013af785e1c79196efa21f756e2c9101812d41196310a5c5b7d58f897ad85368a00100000000fdffffff0388900000000000001600146d196b820e96610117be6142feb017d53fa90b00d88b00000000000017a9145f49e23f1cd70ddad59124ef4cff9d042e8eab1c872c983c0000000000160014071ec4bb560ebe7c484491f5552ac214eee17eec02473044022063a8652fc067c595bff4a183c0903b77cc92f894b7edf2aba43bfd171fe92c5f0220771ff7d1b32bdfba305041fbfb1cafcb48a4550e97f0fe73021ccbd8cad50938012103fa9bb6ea53f812ba8434e5528b9741e329758e1d8d077002f94f2c33aa0d64de00000000"
}