{
  "txid": "751e91e498359559ef7d1d455ce1fcce86ff14f4f9b2be44ce290485c070cc57",
  "version": 2,
  "locktime": 834458,
  "vin": [
    {
      "txid": "31e14b2ba0166cc306e3de334e387fd67b3bfe035de0d03199df892b77531058",
      "vout": 21,
      "prevout": {
        "scriptpubkey": "001479704557556127a77e91c64b9a0c90eceb72e119",
        "scriptpubkey_asm": "OP_0 OP_PUSHBYTES_20 79704557556127a77e91c64b9a0c90eceb72e119",
        "scriptpubkey_type": "v0_p2wpkh",
        "scriptpubkey_address": "bc1q09cy2464vyn6wl53ce9e5rysan4h9cge5j0wet",
        "value": 346726
      },
      "scriptsig": "",
      "scriptsig_asm": "",
      "witness": [
        "304402206ef12345ae68c6b589c0e3a51dd153cca66215cc127bbdbf4a94e966c68be1650220503d729170a51e164c8b05341c60384899198d7a77fdc27af1be4354039dc3f901",
        "0248bcaacabe68a700694d95b9dc2b02cdc39a158fa57fcd00722128422f2b76e8"
      ],
      "is_coinbase": false,
      "sequence": 4294967293
    },
    {
      "txid": "f0b98d260e82e06625549e82f3681705c142370ecd1a5ef2a51b40a02d8f874b",
      "vout": 3,
      "prevout": {
        "scriptpubkey": "00144d13795b0328661b8c92fe64a641a393f1a96451",
        "scriptpubkey_asm": "OP_0 OP_PUSHBYTES_20 4d13795b0328661b8c92fe64a641a393f1a96451",
        "scriptpubkey_type": "v0_p2wpkh",
        "scriptpubkey_address": "bc1qf5fhjkcr9pnphryjlej2vsdrj0c6jez3dsn9gm",
        "value": 415806
      },
      "scriptsig": "",
      "scriptsig_asm": "",
      "witness": [
        "30440220225a48da5217320b9d53a2052f712fe3f80fe0d913defada46d691c02ea01e7b02207f02917ba80aa811edf242500be352fc39b303d3cebbd78d76826bcb5c9de1fa01",
        "030783d7981165f9f532790cea6545269e8f7af1b51447af774571d25146ad0dda"
      ],
      "is_coinbase": false,
      "sequence": 4294967293
    },
    {
      "txid": "0b73e5b6dac15f3f86904b7de03b5f187736679fcb8dad008ea8d99ef2f7baca",
      "vout": 0,
      "prevout": {
        "scriptpubkey": "0014e25cc6bfa2c792628abe20fe8695b7af21f0917c",
        "scriptpubkey_asm": "OP_0 OP_PUSHBYTES_20 e25cc6bfa2c792628abe20fe8695b7af21f0917c",
        "scriptpubkey_type": "v0_p2wpkh",
        "scriptpubkey_address": "bc1qufwvd0azc7fx9z47yrlgd9dh4uslpytutlq98a",
        "value": 1001907
      },
      "scriptsig": "",
      "scriptsig_asm": "",
      "witness": [
        "304402205795d6357caac6bead7b9ebdba81bcdfe15001e8ad0c8ee9d645840bea1d5643022058ddb8f1077daa10657741f705421df397ba042f3eb02f69bd615e3e7b5bb2a601",
        "02927cf4ca39e98788e918757fcfbf914137d8375897b9d4cdd03c78c7328e9317"
      ],
      "is_coinbase": false,
      "sequence": 4294967293
    },
    {
      "txid": "8084ae1e5eb02c2c4dbf2291cf3f513ecf816f3f1f1ba2da687d28ce402a2bc1",
      "vout": 84,
      "prevout": {
        "scriptpubkey": "001405329112c632c46f50d3b763adf4dccc083be343",
        "scriptpubkey_asm": "OP_0 OP_PUSHBYTES_20 05329112c632c46f50d3b763adf4dccc083be343",
        "scriptpubkey_type": "v0_p2wpkh",
        "scriptpubkey_address": "bc1qq5efzykxxtzx75xnka36maxuesyrhc6rgwg89p",
        "value": 44898
      },
      "scriptsig": "",
      "scriptsig_asm": "",
      "witness": [
        "304402205dfd3bdb4ac027578e27d4607067bd055dfcc8e8fec4551b1ce6f86b34d7f9a102200235974850c740768eff77d340b6b7efa33ba050782ead607ff3900782c48d5301",
        "03bad85bf8c1693afec012d1512244bb1dac4a4c63e1ed870b7399a34e63d9d280"
      ],
      "is_coinbase": false,
      "sequence": 4294967293
    }
  ],
  "vout": [
    {
      "scriptpubkey": "a9147efaa0debbee041decf41b7773b04c24ab89a5a387",
      "scriptpubkey_asm": "OP_HASH160 OP_PUSHBYTES_20 7efaa0debbee041decf41b7773b04c24ab89a5a3 OP_EQUAL",
      "scriptpubkey_type": "p2sh",
      "scriptpubkey_address": "3DGRJgSWKzjiCmXek9WLfEAjJugoxouecv",
      "value": 1803982
    }
  ],
  "size": 636,
  "weight": 1254,
  "fee": 5355,
  "status": {
    "confirmed": true,
    "block_height": 834460,
    "block_hash": "00000000000000000000484a79b643b2524bbce82e5d8a442013fa5b8905ed98",
    "block_time": 1710307468
  },
  "hex": "02000000000104581053772b89df9931d0e05d03fe3b7bd67f384e33dee306c36c16a02b4be1311500000000fdffffff4b878f2da0401ba5f25e1acd0e3742c1051768f3829e542566e0820e268db9f00300000000fdffffffcabaf7f29ed9a88e00ad8dcb9f673677185f3be07d4b90863f5fc1dab6e5730b0000000000fdffffffc12b2a40ce287d68daa21b1f3f6f81cf3e513fcf9122bf4d2c2cb05e1eae84805400000000fdffffff01ce861b000000000017a9147efaa0debbee041decf41b7773b04c24ab89a5a3870247304402206ef12345ae68c6b589c0e3a51dd153cca66215cc127bbdbf4a94e966c68be1650220503d729170a51e164c8b05341c60384899198d7a77fdc27af1be4354039dc3f901210248bcaacabe68a700694d95b9dc2b02cdc39a158fa57fcd00722128422f2b76e8024730440220225a48da5217320b9d53a2052f712fe3f80fe0d913defada46d691c02ea01e7b02207f02917ba80aa811edf242500be352fc39b303d3cebbd78d76826bcb5c9de1fa0121030783d7981165f9f532790cea6545269e8f7af1b51447af774571d25146ad0dda0247304402205795d6357caac6bead7b9ebdba81bcdfe15001e8ad0c8ee9d645840bea1d5643022058ddb8f1077daa10657741f705421df397ba042f3eb02f69bd615e3e7b5bb2a6012102927cf4ca39e98788e918757fcfbf914137d8375897b9d4cdd03c78c7328e93170247304402205dfd3bdb4ac027578e27d4607067bd055dfcc8e8fec4551b1ce6f86b34d7f9a102200235974850c740768eff77d340b6b7efa33ba050782ead607ff3900782c48d53012103bad85bf8c1693afec012d1512244bb1dac4a4c63e1ed870b7399a34e63d9d2809abb0c00"
}