{
  "txid": "7527d19d8d8ad24648d2bc964647f978fff63a54cc08c60ad76d5c3bf0e700aa",
  "version": 2,
  "locktime": 0,
  "vin": [
    {
      "txid": "7e5ce9d40b92f6c4ebaeb210e6e0c3ee892db45d6327fc498c4c5d3d52baea9a",
      "vout": 1,
      "prevout": {
        "scriptpubkey": "5120dfcb0cd069b7dec2bf86f906930002d7ea4837001b600bfa99f8c112a58d035c",
        "scriptpubkey_asm": "OP_PUSHNUM_1 OP_PUSHBYTES_32 dfcb0cd069b7dec2bf86f906930002d7ea4837001b600bfa99f8c112a58d035c",
        "scriptpubkey_type": "v1_p2tr",
        "scriptpubkey_address": "bc1pml9se5rfkl0v90uxlyrfxqqz6l4ysdcqrdsqh75elrq39fvdqdwq9wrvsn",
        "value": 628714
      },
      "scriptsig": "",
      "scriptsig_asm": "",
      "witness": [
        "fbb5e408ee10b58a5f90ef8e178d18593d1b6a8f10c043fa569f00eed4401c3cc063d4e15c17fb87e1104fc291b045028278b13de4eafb63e8f639fc872fa199"
      ],
      "is_coinbase": false,
      "sequence": 4294967295
    }
  ],
  "vout": [
    {
      "scriptpubkey": "5120fcdaf0f9b92fb6c2412156c2aaa9e8cf7fa53e47d1570a1e1d1a74a975d086aa",
      "scriptpubkey_asm": "OP_PUSHNUM_1 OP_PUSHBYTES_32 fcdaf0f9b92fb6c2412156c2aaa9e8cf7fa53e47d1570a1e1d1a74a975d086aa",
      "scriptpubkey_type": "v1_p2tr",
      "scriptpubkey_address": "bc1plnd0p7de97mvysfp2mp2420geal620j869ts58sarf62jawss64qggjr3h",
      "value": 154000
    },
    {
      "scriptpubkey": "5120dfcb0cd069b7dec2bf86f906930002d7ea4837001b600bfa99f8c112a58d035c",
      "scriptpubkey_asm": "OP_PUSHNUM_1 OP_PUSHBYTES_32 dfcb0cd069b7dec2bf86f906930002d7ea4837001b600bfa99f8c112a58d035c",
      "scriptpubkey_type": "v1_p2tr",
      "scriptpubkey_address": "bc1pml9se5rfkl0v90uxlyrfxqqz6l4ysdcqrdsqh75elrq39fvdqdwq9wrvsn",
      "value": 472866
    }
  ],
  "size": 205,
  "weight": 616,
  "fee": 1848,
  "status": {
    "confirmed": true,
    "block_height": 834460,
    "block_hash": "00000000000000000000484a79b643b2524bbce82e5d8a442013fa5b8905ed98",
    "block_time": 1710307468
  },
  "hex": "020000000001019aeaba523d5d4c8c49fc27635db42d89eec3e0e610b2aeebc4f6920bd4e95c7e0100000000ffffffff029059020000000000225120fcdaf0f9b92fb6c2412156c2aaa9e8cf7fa53e47d1570a1e1d1a74a975d086aa2237070000000000225120dfcb0cd069b7dec2bf86f906930002d7ea4837001b600bfa99f8c112a58d035c0140fbb5e408ee10b58a5f90ef8e178d18593d1b6a8f10c043fa569f00eed4401c3cc063d4e15c17fb87e1104fc291b045028278b13de4eafb63e8f639fc872fa19900000000"
}