{
  "txid": "75300adb34e13214f0ef195fcec89295d26eab98b457091ca12d0ceb8aa00d32",
  "version": 2,
  "locktime": 0,
  "vin": [
    {
      "txid": "285da4ef58c11e227f16f3a4f8968b5ee60b7ba86175cf34684fdf75ff999bd6",
      "vout": 68,
      "prevout": {
        "scriptpubkey": "0014b8e9b0f834f5e5134c4b133b6ea0a21e7542ac01",
        "scriptpubkey_asm": "OP_0 OP_PUSHBYTES_20 b8e9b0f834f5e5134c4b133b6ea0a21e7542ac01",
        "scriptpubkey_type": "v0_p2wpkh",
        "scriptpubkey_address": "bc1qhr5mp7p57hj3xnztzvakag9zre659tqpe9ea42",
        "value": 10198158
      },
      "scriptsig": "",
      "scriptsig_asm": "",
      "witness": [
        "3044022004a340b1c0f57e087b08364239f1d5c2f080e684ba3ddc3ee552d3599b1c47df02203808af53fb96fa9cb747276d1ef54672d5be908f1d36d72453ccdabd91bcfbdc01",
        "021d0718c8e36750612fe1bd545d8f22ef93bb8e798c04b8b6af26f89c40ca8fe6"
      ],
      "is_coinbase": false,
      "sequence": 4294967295
    }
  ],
  "vout": [
    {
      "scriptpubkey": "00145b0a404c3094e96a5fe2f20d942e52e7e0e3245d",
      "scriptpubkey_asm": "OP_0 OP_PUSHBYTES_20 5b0a404c3094e96a5fe2f20d942e52e7e0e3245d",
      "scriptpubkey_type": "v0_p2wpkh",
      "scriptpubkey_address": "bc1qtv9yqnpsjn5k5hlz7gxegtjjulswxfzach3qqs",
      "value": 1000000
    },
    {
      "scriptpubkey": "0014b8e9b0f834f5e5134c4b133b6ea0a21e7542ac01",
      "scriptpubkey_asm": "OP_0 OP_PUSHBYTES_20 b8e9b0f834f5e5134c4b133b6ea0a21e7542ac01",
      "scriptpubkey_type": "v0_p2wpkh",
      "scriptpubkey_address": "bc1qhr5mp7p57hj3xnztzvakag9zre659tqpe9ea42",
      "value": 9195426
    }
  ],
  "size": 222,
  "weight": 561,
  "fee": 2732,
  "status": {
    "confirmed": true,
    "block_height": 834638,
    "block_hash": "000000000000000000025f742c626208ac87e0b7d15054abb4a19ca2d735a54e",
    "block_time": 1710405325
  },
  "hex": "02000000000101d69b99ff75df4f6834cf7561a87b0be65e8b96f8a4f3167f221ec158efa45d284400000000ffffffff0240420f00000000001600145b0a404c3094e96a5fe2f20d942e52e7e0e3245da24f8c0000000000160014b8e9b0f834f5e5134c4b133b6ea0a21e7542ac0102473044022004a340b1c0f57e087b08364239f1d5c2f080e684ba3ddc3ee552d3599b1c47df02203808af53fb96fa9cb747276d1ef54672d5be908f1d36d72453ccdabd91bcfbdc0121021d0718c8e36750612fe1bd545d8f22ef93bb8e798c04b8b6af26f89c40ca8fe600000000"
}