{
  "txid": "754febca41c166f339f3e4cdae3aab4bfbd1485311debcbbdd17e3fece2bdc3a",
  "version": 2,
  "locktime": 834458,
  "vin": [
    {
      "txid": "3cbc93f008447e545c559c5ed1cebffec298c287b4c650492c6eb81331592170",
      "vout": 8,
      "prevout": {
        "scriptpubkey": "0014127df277286f2c5d7213fe0d50dff2bcf2dae982",
        "scriptpubkey_asm": "OP_0 OP_PUSHBYTES_20 127df277286f2c5d7213fe0d50dff2bcf2dae982",
        "scriptpubkey_type": "v0_p2wpkh",
        "scriptpubkey_address": "bc1qzf7lyaegduk96usnlcx4phljhned46vzl9fvhv",
        "value": 300000000
      },
      "scriptsig": "",
      "scriptsig_asm": "",
      "witness": [
        "3045022100af0834ba69d5deddb2474fdb46a8e7d992f26c71e190fea15a989fbc0ab40a640220203c9742507546131845ba81197292e3fb85e3a33d3614e1a19896b3a74761b801",
        "0308e19e2a9177f2302b48792fb90144a5c91994734813083d3a42df9fa4774d46"
      ],
      "is_coinbase": false,
      "sequence": 4294967293
    }
  ],
  "vout": [
    {
      "scriptpubkey": "0014fbf9415f922f65abd962f42dde0e381c3c1455ca",
      "scriptpubkey_asm": "OP_0 OP_PUSHBYTES_20 fbf9415f922f65abd962f42dde0e381c3c1455ca",
      "scriptpubkey_type": "v0_p2wpkh",
      "scriptpubkey_address": "bc1ql0u5zhuj9aj6hktz7skaur3crs7pg4w2tkcwuv",
      "value": 99997432
    },
    {
      "scriptpubkey": "0014461e91e182413bcd4ff736bec0a8d592474978a7",
      "scriptpubkey_asm": "OP_0 OP_PUSHBYTES_20 461e91e182413bcd4ff736bec0a8d592474978a7",
      "scriptpubkey_type": "v0_p2wpkh",
      "scriptpubkey_address": "bc1qgc0frcvzgyau6nlhx6lvp2x4jfr5j7985qg984",
      "value": 100000000
    },
    {
      "scriptpubkey": "00141364c6bd5610abaa0b328174cec13db619b630d8",
      "scriptpubkey_asm": "OP_0 OP_PUSHBYTES_20 1364c6bd5610abaa0b328174cec13db619b630d8",
      "scriptpubkey_type": "v0_p2wpkh",
      "scriptpubkey_address": "bc1qzdjvd02kzz465zejs96vasfakcvmvvxck9u7d8",
      "value": 100000000
    }
  ],
  "size": 254,
  "weight": 686,
  "fee": 2568,
  "status": {
    "confirmed": true,
    "block_height": 834460,
    "block_hash": "00000000000000000000484a79b643b2524bbce82e5d8a442013fa5b8905ed98",
    "block_time": 1710307468
  },
  "hex": "020000000001017021593113b86e2c4950c6b487c298c2febfced15e9c555c547e4408f093bc3c0800000000fdffffff03f8d6f50500000000160014fbf9415f922f65abd962f42dde0e381c3c1455ca00e1f50500000000160014461e91e182413bcd4ff736bec0a8d592474978a700e1f505000000001600141364c6bd5610abaa0b328174cec13db619b630d802483045022100af0834ba69d5deddb2474fdb46a8e7d992f26c71e190fea15a989fbc0ab40a640220203c9742507546131845ba81197292e3fb85e3a33d3614e1a19896b3a74761b801210308e19e2a9177f2302b48792fb90144a5c91994734813083d3a42df9fa4774d469abb0c00"
}