{
  "txid": "755a87bb8f7582daf7b0c95b1dc403d00e8a758319409f0e68345ee2030b9df9",
  "version": 1,
  "locktime": 0,
  "vin": [
    {
      "txid": "d970b236b945d035ba44830fbc38fa979f43c99b2f8b0c1ba7d6770b92669ee2",
      "vout": 152,
      "prevout": {
        "scriptpubkey": "76a914c461e7538b9c58f1019cbb98fd15d34ee06a508288ac",
        "scriptpubkey_asm": "OP_DUP OP_HASH160 OP_PUSHBYTES_20 c461e7538b9c58f1019cbb98fd15d34ee06a5082 OP_EQUALVERIFY OP_CHECKSIG",
        "scriptpubkey_type": "p2pkh",
        "scriptpubkey_address": "1JuNj4Zfaa24zTDMizMf4QAYGLvNMtsExe",
        "value": 415430
      },
      "scriptsig": "483045022100cd995bc1cc75c6030f3468465bf033b198510db4129007fb77b003c24a6326db022005ee839f4e5d4868c30f1c91be5f5794822f7e607b2baba3100f4b586154511d01210399e2dbd2daae2d41cf2049590da19085fe470b12ed8cb020cf485ed3786c71fc",
      "scriptsig_asm": "OP_PUSHBYTES_72 3045022100cd995bc1cc75c6030f3468465bf033b198510db4129007fb77b003c24a6326db022005ee839f4e5d4868c30f1c91be5f5794822f7e607b2baba3100f4b586154511d01 OP_PUSHBYTES_33 0399e2dbd2daae2d41cf2049590da19085fe470b12ed8cb020cf485ed3786c71fc",
      "is_coinbase": false,
      "sequence": 4294967295
    }
  ],
  "vout": [
    {
      "scriptpubkey": "76a914f6ff8e73ea13a11a6d580a528a78214b44a946d488ac",
      "scriptpubkey_asm": "OP_DUP OP_HASH160 OP_PUSHBYTES_20 f6ff8e73ea13a11a6d580a528a78214b44a946d4 OP_EQUALVERIFY OP_CHECKSIG",
      "scriptpubkey_type": "p2pkh",
      "scriptpubkey_address": "1PX1NZiodzNhoP2MnRWhxbwMCEm6LmPL1G",
      "value": 281580
    },
    {
      "scriptpubkey": "76a914c461e7538b9c58f1019cbb98fd15d34ee06a508288ac",
      "scriptpubkey_asm": "OP_DUP OP_HASH160 OP_PUSHBYTES_20 c461e7538b9c58f1019cbb98fd15d34ee06a5082 OP_EQUALVERIFY OP_CHECKSIG",
      "scriptpubkey_type": "p2pkh",
      "scriptpubkey_address": "1JuNj4Zfaa24zTDMizMf4QAYGLvNMtsExe",
      "value": 131364
    }
  ],
  "size": 226,
  "weight": 904,
  "fee": 2486,
  "status": {
    "confirmed": true,
    "block_height": 834464,
    "block_hash": "0000000000000000000177a0869a911a2b65c9bdcd5a8bcb02b68f305bee848e",
    "block_time": 1710308296
  },
  "hex": "0100000001e29e66920b77d6a71b0c8b2f9bc9439f97fa38bc0f8344ba35d045b936b270d9980000006b483045022100cd995bc1cc75c6030f3468465bf033b198510db4129007fb77b003c24a6326db022005ee839f4e5d4868c30f1c91be5f5794822f7e607b2baba3100f4b586154511d01210399e2dbd2daae2d41cf2049590da19085fe470b12ed8cb020cf485ed3786c71fcffffffff02ec4b0400000000001976a914f6ff8e73ea13a11a6d580a528a78214b44a946d488ac24010200000000001976a914c461e7538b9c58f1019cbb98fd15d34ee06a508288ac00000000"
}