{
  "txid": "7563c40550811f0c61f1a4d3efc4d6bbaba8336b0c32866bcbde4356187972e9",
  "version": 1,
  "locktime": 0,
  "vin": [
    {
      "txid": "c0a52f4251fa5db7d9f515b3c180d6d56c8780e57b0664a9b765f9e47bc37dc4",
      "vout": 20,
      "prevout": {
        "scriptpubkey": "00147ea4015f66bf126848db47e1e69b2565e3912200",
        "scriptpubkey_asm": "OP_0 OP_PUSHBYTES_20 7ea4015f66bf126848db47e1e69b2565e3912200",
        "scriptpubkey_type": "v0_p2wpkh",
        "scriptpubkey_address": "bc1q06jqzhmxhufxsjxmgls7dxe9vh3ezgsq3kny2r",
        "value": 1063811
      },
      "scriptsig": "",
      "scriptsig_asm": "",
      "witness": [
        "3044022005f1e8fdbcf8c4b9d96c7873650b4ec7e915a5dd197e2a6864762ef5b47cbf5a02206f0491e82ce3947e0bd07007528848bd0670a6ec8030f279e4f583775f650e7f01",
        "02ca9cc3a3433a840b5614a0d3e696e445ab9aebae450e4d536160e6e037e7b0ef"
      ],
      "is_coinbase": false,
      "sequence": 4294967295
    }
  ],
  "vout": [
    {
      "scriptpubkey": "76a91414ce8440e87fba376d93ba673e2a8877515ebc3b88ac",
      "scriptpubkey_asm": "OP_DUP OP_HASH160 OP_PUSHBYTES_20 14ce8440e87fba376d93ba673e2a8877515ebc3b OP_EQUALVERIFY OP_CHECKSIG",
      "scriptpubkey_type": "p2pkh",
      "scriptpubkey_address": "12u1us2oDuz1BZhxpwCp2nHN2emKdBGzGK",
      "value": 1062579
    }
  ],
  "size": 194,
  "weight": 449,
  "fee": 1232,
  "status": {
    "confirmed": true,
    "block_height": 834464,
    "block_hash": "0000000000000000000177a0869a911a2b65c9bdcd5a8bcb02b68f305bee848e",
    "block_time": 1710308296
  },
  "hex": "01000000000101c47dc37be4f965b7a964067be580876cd5d680c1b315f5d9b75dfa51422fa5c01400000000ffffffff01b3361000000000001976a91414ce8440e87fba376d93ba673e2a8877515ebc3b88ac02473044022005f1e8fdbcf8c4b9d96c7873650b4ec7e915a5dd197e2a6864762ef5b47cbf5a02206f0491e82ce3947e0bd07007528848bd0670a6ec8030f279e4f583775f650e7f012102ca9cc3a3433a840b5614a0d3e696e445ab9aebae450e4d536160e6e037e7b0ef00000000"
}