{
  "txid": "75633ad93688b75d05e60de48956a0385f67b8d0a276b16a121783b7284aa832",
  "version": 1,
  "locktime": 0,
  "vin": [
    {
      "txid": "3f9b265d27a14bfe7b7ab3cfd2b627d08cefef3500cce64a917d2ef56d68cb22",
      "vout": 0,
      "prevout": {
        "scriptpubkey": "001488b890c12097264ad9786686fb6b9195d2e777c0",
        "scriptpubkey_asm": "OP_0 OP_PUSHBYTES_20 88b890c12097264ad9786686fb6b9195d2e777c0",
        "scriptpubkey_type": "v0_p2wpkh",
        "scriptpubkey_address": "bc1q3zufpsfqjuny4ktcv6r0k6u3jhfwwa7qvykncl",
        "value": 38499
      },
      "scriptsig": "",
      "scriptsig_asm": "",
      "witness": [
        "3045022100db7d60473cedf394099813a934859807fb94b4e348e0e186216a8dae3f01f479022003214259def4359722254abe47ffaf482088a51be831c3ed74340f5a8abc332801",
        "034351e400bce718e336a44db9d8b6a888c0daa1d40d5dcaadb0f49c935403d2af"
      ],
      "is_coinbase": false,
      "sequence": 4294967295
    },
    {
      "txid": "be25ce7702d7e9ced5997f126a34413e381264cc4290476a968cfd9343d17933",
      "vout": 0,
      "prevout": {
        "scriptpubkey": "001495a27d8e9641bc2c95cf05e0b104e49377b0d54b",
        "scriptpubkey_asm": "OP_0 OP_PUSHBYTES_20 95a27d8e9641bc2c95cf05e0b104e49377b0d54b",
        "scriptpubkey_type": "v0_p2wpkh",
        "scriptpubkey_address": "bc1qjk38mr5kgx7ze9w0qhstzp8yjdmmp42tzzuz8t",
        "value": 2830
      },
      "scriptsig": "",
      "scriptsig_asm": "",
      "witness": [
        "304402207a41eeb05b2afe99008865021fbf31d1ede9b1bf3ce37f6abb986ddcd036582f02204eb53955a2da21751feeec2db4f4ae42f4bde23e4f2717b6d73e8957f7a39a7801",
        "0353a912d5b6f92e715ec0019074ad83629e44f61a28da1cc4624888070b90d0d8"
      ],
      "is_coinbase": false,
      "sequence": 4294967295
    }
  ],
  "vout": [
    {
      "scriptpubkey": "51209899635de3ff26e498b712170cf71de883cf62af0fdcc72b3b146c4e197f4867",
      "scriptpubkey_asm": "OP_PUSHNUM_1 OP_PUSHBYTES_32 9899635de3ff26e498b712170cf71de883cf62af0fdcc72b3b146c4e197f4867",
      "scriptpubkey_type": "v1_p2tr",
      "scriptpubkey_address": "bc1pnzvkxh0rlunwfx9hzgtseacaazpu7c40plwvw2emz3kyuxtlfpnsp4k3p5",
      "value": 37789
    }
  ],
  "size": 352,
  "weight": 757,
  "fee": 3540,
  "status": {
    "confirmed": true,
    "block_height": 834638,
    "block_hash": "000000000000000000025f742c626208ac87e0b7d15054abb4a19ca2d735a54e",
    "block_time": 1710405325
  },
  "hex": "0100000000010222cb686df52e7d914ae6cc0035efef8cd027b6d2cfb37a7bfe4ba1275d269b3f0000000000ffffffff3379d14393fd8c966a479042cc6412383e41346a127f99d5cee9d70277ce25be0000000000ffffffff019d930000000000002251209899635de3ff26e498b712170cf71de883cf62af0fdcc72b3b146c4e197f486702483045022100db7d60473cedf394099813a934859807fb94b4e348e0e186216a8dae3f01f479022003214259def4359722254abe47ffaf482088a51be831c3ed74340f5a8abc33280121034351e400bce718e336a44db9d8b6a888c0daa1d40d5dcaadb0f49c935403d2af0247304402207a41eeb05b2afe99008865021fbf31d1ede9b1bf3ce37f6abb986ddcd036582f02204eb53955a2da21751feeec2db4f4ae42f4bde23e4f2717b6d73e8957f7a39a7801210353a912d5b6f92e715ec0019074ad83629e44f61a28da1cc4624888070b90d0d800000000"
}