{
  "txid": "756375dbe21d8c2410e5b1a82c9be3a2d0199b18d943ab82451d979727718864",
  "version": 2,
  "locktime": 0,
  "vin": [
    {
      "txid": "febf3c02a6d6478185bcd552e5cc3f1b32fbce741f977edf12a5b8256f4ceb76",
      "vout": 7,
      "prevout": {
        "scriptpubkey": "51206528be980201428d6bb92bc2d3e4a3f58b81dcb16dd39d40cfa9158de4f7bc94",
        "scriptpubkey_asm": "OP_PUSHNUM_1 OP_PUSHBYTES_32 6528be980201428d6bb92bc2d3e4a3f58b81dcb16dd39d40cfa9158de4f7bc94",
        "scriptpubkey_type": "v1_p2tr",
        "scriptpubkey_address": "bc1pv55taxqzq9pg66ae90pd8e9r7k9crh93dhfe6sx04y2cme8hhj2q08el72",
        "value": 106000
      },
      "scriptsig": "",
      "scriptsig_asm": "",
      "witness": [
        "5ae50b68b3313da2cff5fa502ed6a8dab00fd403af95788185384231f8a7c6923a8f5f8c5f5bafa7ac0682b498d2d72f25df2bfa991624ba1f25b145ba708aef"
      ],
      "is_coinbase": false,
      "sequence": 4294967295
    }
  ],
  "vout": [
    {
      "scriptpubkey": "51206528be980201428d6bb92bc2d3e4a3f58b81dcb16dd39d40cfa9158de4f7bc94",
      "scriptpubkey_asm": "OP_PUSHNUM_1 OP_PUSHBYTES_32 6528be980201428d6bb92bc2d3e4a3f58b81dcb16dd39d40cfa9158de4f7bc94",
      "scriptpubkey_type": "v1_p2tr",
      "scriptpubkey_address": "bc1pv55taxqzq9pg66ae90pd8e9r7k9crh93dhfe6sx04y2cme8hhj2q08el72",
      "value": 600
    },
    {
      "scriptpubkey": "51206528be980201428d6bb92bc2d3e4a3f58b81dcb16dd39d40cfa9158de4f7bc94",
      "scriptpubkey_asm": "OP_PUSHNUM_1 OP_PUSHBYTES_32 6528be980201428d6bb92bc2d3e4a3f58b81dcb16dd39d40cfa9158de4f7bc94",
      "scriptpubkey_type": "v1_p2tr",
      "scriptpubkey_address": "bc1pv55taxqzq9pg66ae90pd8e9r7k9crh93dhfe6sx04y2cme8hhj2q08el72",
      "value": 600
    },
    {
      "scriptpubkey": "51206528be980201428d6bb92bc2d3e4a3f58b81dcb16dd39d40cfa9158de4f7bc94",
      "scriptpubkey_asm": "OP_PUSHNUM_1 OP_PUSHBYTES_32 6528be980201428d6bb92bc2d3e4a3f58b81dcb16dd39d40cfa9158de4f7bc94",
      "scriptpubkey_type": "v1_p2tr",
      "scriptpubkey_address": "bc1pv55taxqzq9pg66ae90pd8e9r7k9crh93dhfe6sx04y2cme8hhj2q08el72",
      "value": 101845
    }
  ],
  "size": 248,
  "weight": 788,
  "fee": 2955,
  "status": {
    "confirmed": true,
    "block_height": 834638,
    "block_hash": "000000000000000000025f742c626208ac87e0b7d15054abb4a19ca2d735a54e",
    "block_time": 1710405325
  },
  "hex": "0200000000010176eb4c6f25b8a512df7e971f74cefb321b3fcce552d5bc858147d6a6023cbffe0700000000ffffffff0358020000000000002251206528be980201428d6bb92bc2d3e4a3f58b81dcb16dd39d40cfa9158de4f7bc9458020000000000002251206528be980201428d6bb92bc2d3e4a3f58b81dcb16dd39d40cfa9158de4f7bc94d58d0100000000002251206528be980201428d6bb92bc2d3e4a3f58b81dcb16dd39d40cfa9158de4f7bc9401405ae50b68b3313da2cff5fa502ed6a8dab00fd403af95788185384231f8a7c6923a8f5f8c5f5bafa7ac0682b498d2d72f25df2bfa991624ba1f25b145ba708aef00000000"
}