{
  "txid": "7570b1cb7977ffc8d1f247a0b045afb925b552fd52a1cc3692987ed5b2a739ad",
  "version": 2,
  "locktime": 0,
  "vin": [
    {
      "txid": "8486ecb4df0880316dd6e82b3971b4df187aff23765bc3a47f8d78bb53aa273c",
      "vout": 40,
      "prevout": {
        "scriptpubkey": "512071c4d925683bdbc71bd03e10c2450f48bfd82e5c3728c14616df52cd0c672968",
        "scriptpubkey_asm": "OP_PUSHNUM_1 OP_PUSHBYTES_32 71c4d925683bdbc71bd03e10c2450f48bfd82e5c3728c14616df52cd0c672968",
        "scriptpubkey_type": "v1_p2tr",
        "scriptpubkey_address": "bc1pw8zdjftg80duwx7s8cgvy3g0fzlastjuxu5vz3skmafv6rr8995qfq6fsm",
        "value": 2575
      },
      "scriptsig": "",
      "scriptsig_asm": "",
      "witness": [
        "aa991a5ae2be0ec314decc6fed7253fe606bea978b0e73d844e3de9fb5015100b3421683b81208a8da86452b91befc503bda1eeb8e0a170b89205b360852cce1",
        "2004287bbdf445bda543b0343495956958fcd671b7d7686050554d766329ddfcecac0063036f726401010a746578742f706c61696e00367b2270223a226272632d3230222c226f70223a226d696e74222c227469636b223a2261616161222c22616d74223a223130303030227d68",
        "c004287bbdf445bda543b0343495956958fcd671b7d7686050554d766329ddfcec"
      ],
      "is_coinbase": false,
      "sequence": 4261412863
    }
  ],
  "vout": [
    {
      "scriptpubkey": "0014ddd7ef12ea6f78edcc1e8e7afa12c01ab59f3339",
      "scriptpubkey_asm": "OP_0 OP_PUSHBYTES_20 ddd7ef12ea6f78edcc1e8e7afa12c01ab59f3339",
      "scriptpubkey_type": "v0_p2wpkh",
      "scriptpubkey_address": "bc1qmht77yh2dauwmnq73ea05ykqr26e7veea8spz6",
      "value": 546
    }
  ],
  "size": 295,
  "weight": 541,
  "fee": 2029,
  "status": {
    "confirmed": true,
    "block_height": 834460,
    "block_hash": "00000000000000000000484a79b643b2524bbce82e5d8a442013fa5b8905ed98",
    "block_time": 1710307468
  },
  "hex": "020000000001013c27aa53bb788d7fa4c35b7623ff7a18dfb471392be8d66d318008dfb4ec86842800000000fffffffd012202000000000000160014ddd7ef12ea6f78edcc1e8e7afa12c01ab59f33390340aa991a5ae2be0ec314decc6fed7253fe606bea978b0e73d844e3de9fb5015100b3421683b81208a8da86452b91befc503bda1eeb8e0a170b89205b360852cce16e2004287bbdf445bda543b0343495956958fcd671b7d7686050554d766329ddfcecac0063036f726401010a746578742f706c61696e00367b2270223a226272632d3230222c226f70223a226d696e74222c227469636b223a2261616161222c22616d74223a223130303030227d6821c004287bbdf445bda543b0343495956958fcd671b7d7686050554d766329ddfcec00000000"
}