{
  "txid": "75894976e962181a200c54977d41d71c5975c10de57834b38accbeff3be77663",
  "version": 2,
  "locktime": 834361,
  "vin": [
    {
      "txid": "a3adbead210a6d2fa560f441354f09c71f695e792604b59127ad3af53b2a12bf",
      "vout": 0,
      "prevout": {
        "scriptpubkey": "0014bbc929d578282030410cfaf2136be62fea7b7a77",
        "scriptpubkey_asm": "OP_0 OP_PUSHBYTES_20 bbc929d578282030410cfaf2136be62fea7b7a77",
        "scriptpubkey_type": "v0_p2wpkh",
        "scriptpubkey_address": "bc1qh0yjn4tc9qsrqsgvltepx6lx9l48k7nhccjsje",
        "value": 9890
      },
      "scriptsig": "",
      "scriptsig_asm": "",
      "witness": [
        "30440220525682f3e1124b58ef07edd25eca6dca95321e77b7cdf1848f92ee61d2ccedcb022031a9a7a4ff73fbb706f5ab0a9264a781b0be2b51817b7f7502be6971447657a201",
        "020063bfaa615d5b1a5a69f6d3fd2ff1559863270ccf623986fd348aa1cd912d48"
      ],
      "is_coinbase": false,
      "sequence": 4294967293
    }
  ],
  "vout": [
    {
      "scriptpubkey": "001491c36e7fdd50f0d333d2a837f7ed64f208de3535",
      "scriptpubkey_asm": "OP_0 OP_PUSHBYTES_20 91c36e7fdd50f0d333d2a837f7ed64f208de3535",
      "scriptpubkey_type": "v0_p2wpkh",
      "scriptpubkey_address": "bc1qj8pkul7a2rcdxv7j4qml0mty7gydudf45wcr6l",
      "value": 6172
    }
  ],
  "size": 191,
  "weight": 437,
  "fee": 3718,
  "status": {
    "confirmed": true,
    "block_height": 834464,
    "block_hash": "0000000000000000000177a0869a911a2b65c9bdcd5a8bcb02b68f305bee848e",
    "block_time": 1710308296
  },
  "hex": "02000000000101bf122a3bf53aad2791b50426795e691fc7094f3541f460a52f6d0a21adbeada30000000000fdffffff011c1800000000000016001491c36e7fdd50f0d333d2a837f7ed64f208de3535024730440220525682f3e1124b58ef07edd25eca6dca95321e77b7cdf1848f92ee61d2ccedcb022031a9a7a4ff73fbb706f5ab0a9264a781b0be2b51817b7f7502be6971447657a20121020063bfaa615d5b1a5a69f6d3fd2ff1559863270ccf623986fd348aa1cd912d4839bb0c00"
}