{
  "txid": "7591aaee8947dba90c28c8376cb83227fe948cbd5c944e4e2c0dc76aa1e92864",
  "version": 2,
  "locktime": 0,
  "vin": [
    {
      "txid": "83b1303fd891f1954cd87c1d288a2a6bca51045bdda40133839448bcf0a9a8be",
      "vout": 16,
      "prevout": {
        "scriptpubkey": "512072da502345e6e05e788d7d8c09c9d7e7796d423560dff91f546f854caa82925b",
        "scriptpubkey_asm": "OP_PUSHNUM_1 OP_PUSHBYTES_32 72da502345e6e05e788d7d8c09c9d7e7796d423560dff91f546f854caa82925b",
        "scriptpubkey_type": "v1_p2tr",
        "scriptpubkey_address": "bc1pwtd9qg69ums9u7yd0kxqnjwhuauk6s34vr0lj865d7z5e25zjfdsh92s0m",
        "value": 2862
      },
      "scriptsig": "",
      "scriptsig_asm": "",
      "witness": [
        "e5abc06d2bf4e5b1965eb5dc9813e3cb21576258ecf69dea7638c01fb06e70038aeb6ea7dc5f307283beb99c34d12c5760d6df72c8d9a3ab3f3ab6295c0efd4d",
        "20bf811dd8a3467b79135b3162cb916b7ea0aaa5edbf792e6fc6ee88fa8bf18770ac0063036f726401011e6170706c69636174696f6e2f6a736f6e3b636861727365743d7574662d38004cd37b2270223a22706f772d3230222c226f70223a226d696e74222c227469636b223a2250455045222c22616d74223a2231303030222c22736f6c7574696f6e223a22504550453a62633170687834336d6b6632633236366e63707a6c7a7067307636616b6a73713470386379736379327a706d746e38326e367a616c7667713972663737363a303030303030303030303030303030303030303139393431613561653132383937363539383134343239323533333030353762306461393666336465613163353a3635373236393432333134227d68",
        "c043aa8de0991fd4b61b82f8195f6c835bc5de941a82824922fffa09f24edd0022"
      ],
      "is_coinbase": false,
      "sequence": 4294967295
    }
  ],
  "vout": [
    {
      "scriptpubkey": "5120b9ab1dd92ac2b5a9e022f88287b35db4a00a84f8243045083b5ccea9e85dfb10",
      "scriptpubkey_asm": "OP_PUSHNUM_1 OP_PUSHBYTES_32 b9ab1dd92ac2b5a9e022f88287b35db4a00a84f8243045083b5ccea9e85dfb10",
      "scriptpubkey_type": "v1_p2tr",
      "scriptpubkey_address": "bc1phx43mkf2c266ncpzlzpg0v6akjsq4p8cyscy2zpmtn82n6zalvgq9rf776",
      "value": 546
    }
  ],
  "size": 487,
  "weight": 769,
  "fee": 2316,
  "status": {
    "confirmed": true,
    "block_height": 834460,
    "block_hash": "00000000000000000000484a79b643b2524bbce82e5d8a442013fa5b8905ed98",
    "block_time": 1710307468
  },
  "hex": "02000000000101bea8a9f0bc4894833301a4dd5b0451ca6b2a8a281d7cd84c95f191d83f30b1831000000000ffffffff012202000000000000225120b9ab1dd92ac2b5a9e022f88287b35db4a00a84f8243045083b5ccea9e85dfb100340e5abc06d2bf4e5b1965eb5dc9813e3cb21576258ecf69dea7638c01fb06e70038aeb6ea7dc5f307283beb99c34d12c5760d6df72c8d9a3ab3f3ab6295c0efd4dfd200120bf811dd8a3467b79135b3162cb916b7ea0aaa5edbf792e6fc6ee88fa8bf18770ac0063036f726401011e6170706c69636174696f6e2f6a736f6e3b636861727365743d7574662d38004cd37b2270223a22706f772d3230222c226f70223a226d696e74222c227469636b223a2250455045222c22616d74223a2231303030222c22736f6c7574696f6e223a22504550453a62633170687834336d6b6632633236366e63707a6c7a7067307636616b6a73713470386379736379327a706d746e38326e367a616c7667713972663737363a303030303030303030303030303030303030303139393431613561653132383937363539383134343239323533333030353762306461393666336465613163353a3635373236393432333134227d6821c043aa8de0991fd4b61b82f8195f6c835bc5de941a82824922fffa09f24edd002200000000"
}