{
  "txid": "75987063b20d93da9c44ceedf236ed9f203a03dfb8b30192501d75ceede38093",
  "version": 1,
  "locktime": 0,
  "vin": [
    {
      "txid": "f6c544a07ffe0575f5210c9e88160a9fcd802d966053cdb406c1eaab6d67b178",
      "vout": 1,
      "prevout": {
        "scriptpubkey": "00146a66632cabb6bf2b3d912f54562821cadcda3585",
        "scriptpubkey_asm": "OP_0 OP_PUSHBYTES_20 6a66632cabb6bf2b3d912f54562821cadcda3585",
        "scriptpubkey_type": "v0_p2wpkh",
        "scriptpubkey_address": "bc1qdfnxxt9tk6ljk0v39a29v2ppetwd5dv9t8preg",
        "value": 1475516
      },
      "scriptsig": "",
      "scriptsig_asm": "",
      "witness": [
        "3045022100909ca5bb37dca18b2d7b6b38a8abbb3def0392c1169ec9ab80ecb3967a43ea6c0220775bb92743d726a93660fc3ab9ca3baf6d88d451e339e5804316be731bd9921b01",
        "039b9447c31c0e7688153df3ace66499e84165c4e668ad3f42568db9ff4c303255"
      ],
      "is_coinbase": false,
      "sequence": 4294967295
    }
  ],
  "vout": [
    {
      "scriptpubkey": "a9147ecd21123536162841eea401d67a717c6fac99fe87",
      "scriptpubkey_asm": "OP_HASH160 OP_PUSHBYTES_20 7ecd21123536162841eea401d67a717c6fac99fe OP_EQUAL",
      "scriptpubkey_type": "p2sh",
      "scriptpubkey_address": "3DFUoLftJ9B6X6exsN1FHzLtapddpq7M5q",
      "value": 122760
    },
    {
      "scriptpubkey": "0014d6dce789a1a4731a208f0efdf2e10ff91e3a6ca4",
      "scriptpubkey_asm": "OP_0 OP_PUSHBYTES_20 d6dce789a1a4731a208f0efdf2e10ff91e3a6ca4",
      "scriptpubkey_type": "v0_p2wpkh",
      "scriptpubkey_address": "bc1q6mww0zdp53e35gy0pm7l9cg0ly0r5m9yenmlqh",
      "value": 1350656
    }
  ],
  "size": 224,
  "weight": 566,
  "fee": 2100,
  "status": {
    "confirmed": true,
    "block_height": 834638,
    "block_hash": "000000000000000000025f742c626208ac87e0b7d15054abb4a19ca2d735a54e",
    "block_time": 1710405325
  },
  "hex": "0100000000010178b1676dabeac106b4cd5360962d80cd9f0a16889e0c21f57505fe7fa044c5f60100000000ffffffff0288df01000000000017a9147ecd21123536162841eea401d67a717c6fac99fe87009c140000000000160014d6dce789a1a4731a208f0efdf2e10ff91e3a6ca402483045022100909ca5bb37dca18b2d7b6b38a8abbb3def0392c1169ec9ab80ecb3967a43ea6c0220775bb92743d726a93660fc3ab9ca3baf6d88d451e339e5804316be731bd9921b0121039b9447c31c0e7688153df3ace66499e84165c4e668ad3f42568db9ff4c30325500000000"
}