{
  "txid": "75a11f02b812c7ce5125af5b946dc07c3a322fdd4b2cfb0456a04dd2e6255d55",
  "version": 2,
  "locktime": 0,
  "vin": [
    {
      "txid": "2fd607bdfd8a6fdbc82365dd8eb4151cf4bb336f7046254e6c518952020e521e",
      "vout": 7,
      "prevout": {
        "scriptpubkey": "a914848b3e383bee08f74cf694374271a148066181bf87",
        "scriptpubkey_asm": "OP_HASH160 OP_PUSHBYTES_20 848b3e383bee08f74cf694374271a148066181bf OP_EQUAL",
        "scriptpubkey_type": "p2sh",
        "scriptpubkey_address": "3DmqveBDf6oPcRVbxxqGQr4uXdm7KJ6gCV",
        "value": 48929
      },
      "scriptsig": "160014ea6220d8a7391318c14d7eb4d115efddabbb6965",
      "scriptsig_asm": "OP_PUSHBYTES_22 0014ea6220d8a7391318c14d7eb4d115efddabbb6965",
      "witness": [
        "3045022100dde5a7360ad6e425371b7c3c484791cc390be2f63695aa3c931d781bb6d176de02203f689a15d4cbc7d0593ff8dbd9bc3b0a8f86fa686ca1bc658d6182753d25e9e101",
        "0264eb9e15cd8f3c0d8e7d99f710dc30861784f105d5bf50eaaf62a0807a19dc76"
      ],
      "is_coinbase": false,
      "sequence": 4294967295,
      "inner_redeemscript_asm": "OP_0 OP_PUSHBYTES_20 ea6220d8a7391318c14d7eb4d115efddabbb6965"
    }
  ],
  "vout": [
    {
      "scriptpubkey": "76a914abf148c716497230f3aa4008a9608ecf4c43a88f88ac",
      "scriptpubkey_asm": "OP_DUP OP_HASH160 OP_PUSHBYTES_20 abf148c716497230f3aa4008a9608ecf4c43a88f OP_EQUALVERIFY OP_CHECKSIG",
      "scriptpubkey_type": "p2pkh",
      "scriptpubkey_address": "1Gg9bXhKE8ZthhxXHfpa2upajFUbX1oB4j",
      "value": 47450
    }
  ],
  "size": 218,
  "weight": 542,
  "fee": 1479,
  "status": {
    "confirmed": true,
    "block_height": 834464,
    "block_hash": "0000000000000000000177a0869a911a2b65c9bdcd5a8bcb02b68f305bee848e",
    "block_time": 1710308296
  },
  "hex": "020000000001011e520e025289516c4e2546706f33bbf41c15b48edd6523c8db6f8afdbd07d62f0700000017160014ea6220d8a7391318c14d7eb4d115efddabbb6965ffffffff015ab90000000000001976a914abf148c716497230f3aa4008a9608ecf4c43a88f88ac02483045022100dde5a7360ad6e425371b7c3c484791cc390be2f63695aa3c931d781bb6d176de02203f689a15d4cbc7d0593ff8dbd9bc3b0a8f86fa686ca1bc658d6182753d25e9e101210264eb9e15cd8f3c0d8e7d99f710dc30861784f105d5bf50eaaf62a0807a19dc7600000000"
}