{
  "txid": "75a7d001d4431f4322ccbeaff6887a352912a745fb6fe62b444c9b3b73e88c83",
  "version": 2,
  "locktime": 0,
  "vin": [
    {
      "txid": "8e9d0c3be05b1f965acd28a04c15c71154e5e5c40b8965f6dc9f52f680f883e6",
      "vout": 0,
      "prevout": {
        "scriptpubkey": "0014b5d3638f4b119d9b3521ac275a723d5d7d78dc97",
        "scriptpubkey_asm": "OP_0 OP_PUSHBYTES_20 b5d3638f4b119d9b3521ac275a723d5d7d78dc97",
        "scriptpubkey_type": "v0_p2wpkh",
        "scriptpubkey_address": "bc1qkhfk8r6tzxwekdfp4sn45u3at47h3hyhe7thqc",
        "value": 2994881
      },
      "scriptsig": "",
      "scriptsig_asm": "",
      "witness": [
        "304402202714959ba06a72d144bf46da1b9baa4ad6f12a2e245cccdb6bcdc4e87700082502202d2ca91fcb54bf78a4a17ce3facaee924be50179c0f954ce1c924feaed945ba601",
        "02191282a78997acf740c87ab215931cc8ff76dc148c19338dc84f41f1aec4e5b0"
      ],
      "is_coinbase": false,
      "sequence": 4294967295
    }
  ],
  "vout": [
    {
      "scriptpubkey": "a91481bfcd61ed5f39e82a5df8140be7232fd107e61c87",
      "scriptpubkey_asm": "OP_HASH160 OP_PUSHBYTES_20 81bfcd61ed5f39e82a5df8140be7232fd107e61c OP_EQUAL",
      "scriptpubkey_type": "p2sh",
      "scriptpubkey_address": "3DX4rwoHrMoNaFYrr5NLJUGLtJzxqR1HNp",
      "value": 500000
    },
    {
      "scriptpubkey": "0014a9ff3ff5b20a4f34680284b535ee4b189646efe8",
      "scriptpubkey_asm": "OP_0 OP_PUSHBYTES_20 a9ff3ff5b20a4f34680284b535ee4b189646efe8",
      "scriptpubkey_type": "v0_p2wpkh",
      "scriptpubkey_address": "bc1q48lnladjpf8ng6qzsj6ntmjtrztydmlgm068d9",
      "value": 2490473
    }
  ],
  "size": 223,
  "weight": 565,
  "fee": 4408,
  "status": {
    "confirmed": true,
    "block_height": 834638,
    "block_hash": "000000000000000000025f742c626208ac87e0b7d15054abb4a19ca2d735a54e",
    "block_time": 1710405325
  },
  "hex": "02000000000101e683f880f6529fdcf665890bc4e5e55411c7154ca028cd5a961f5be03b0c9d8e0000000000ffffffff0220a107000000000017a91481bfcd61ed5f39e82a5df8140be7232fd107e61c876900260000000000160014a9ff3ff5b20a4f34680284b535ee4b189646efe80247304402202714959ba06a72d144bf46da1b9baa4ad6f12a2e245cccdb6bcdc4e87700082502202d2ca91fcb54bf78a4a17ce3facaee924be50179c0f954ce1c924feaed945ba6012102191282a78997acf740c87ab215931cc8ff76dc148c19338dc84f41f1aec4e5b000000000"
}