{
  "txid": "75aca1b2311cb72a7975828f0036fcf06c23cdf0d1f159be20ad98fa68815cda",
  "version": 2,
  "locktime": 834637,
  "vin": [
    {
      "txid": "302ec1dc197069a1b6770a687fa1f9b5cacf7a5235f0ddea500df87b87ef1242",
      "vout": 1,
      "prevout": {
        "scriptpubkey": "001428aa0036e447fe6a0b544e2ff40083879f9e58e1",
        "scriptpubkey_asm": "OP_0 OP_PUSHBYTES_20 28aa0036e447fe6a0b544e2ff40083879f9e58e1",
        "scriptpubkey_type": "v0_p2wpkh",
        "scriptpubkey_address": "bc1q9z4qqdhygllx5z65fchlgqyrs70euk8pvpaxnj",
        "value": 962932
      },
      "scriptsig": "",
      "scriptsig_asm": "",
      "witness": [
        "304402207ca3e1c30029cb36908e40e6496eed5c5eeb0756cc332736bfc7a08ac5ccd3a9022000c6016e59bf62e096fe43286d352ea9ac80478e9a69b223899ea03b3fba439f01",
        "02d8f3a2343b8568baa4268ce58ba37035fd887c295fbe652a16c06907839d2e6d"
      ],
      "is_coinbase": false,
      "sequence": 4294967293
    }
  ],
  "vout": [
    {
      "scriptpubkey": "00143cb3f7d4a6d2f2d1f0f892ab08fae70c1fcb0ea8",
      "scriptpubkey_asm": "OP_0 OP_PUSHBYTES_20 3cb3f7d4a6d2f2d1f0f892ab08fae70c1fcb0ea8",
      "scriptpubkey_type": "v0_p2wpkh",
      "scriptpubkey_address": "bc1q8jel049x6tedru8cj24s37h8ps0ukr4gkp9986",
      "value": 46728
    },
    {
      "scriptpubkey": "0014e47fcea618b69d7f6a45ab291eb05a61f0b7eb28",
      "scriptpubkey_asm": "OP_0 OP_PUSHBYTES_20 e47fcea618b69d7f6a45ab291eb05a61f0b7eb28",
      "scriptpubkey_type": "v0_p2wpkh",
      "scriptpubkey_address": "bc1qu3luafsck6wh76j94v53avz6v8ct06egtr08y6",
      "value": 132442
    },
    {
      "scriptpubkey": "00142f6fbdace140096daa997a51f6389f8329c44c87",
      "scriptpubkey_asm": "OP_0 OP_PUSHBYTES_20 2f6fbdace140096daa997a51f6389f8329c44c87",
      "scriptpubkey_type": "v0_p2wpkh",
      "scriptpubkey_address": "bc1q9ahmmt8pgqykm25e0fglvwylsv5ugny8plfumh",
      "value": 780838
    }
  ],
  "size": 253,
  "weight": 685,
  "fee": 2924,
  "status": {
    "confirmed": true,
    "block_height": 834638,
    "block_hash": "000000000000000000025f742c626208ac87e0b7d15054abb4a19ca2d735a54e",
    "block_time": 1710405325
  },
  "hex": "020000000001014212ef877bf80d50eaddf035527acfcab5f9a17f680a77b6a1697019dcc12e300100000000fdffffff0388b60000000000001600143cb3f7d4a6d2f2d1f0f892ab08fae70c1fcb0ea85a05020000000000160014e47fcea618b69d7f6a45ab291eb05a61f0b7eb2826ea0b00000000001600142f6fbdace140096daa997a51f6389f8329c44c870247304402207ca3e1c30029cb36908e40e6496eed5c5eeb0756cc332736bfc7a08ac5ccd3a9022000c6016e59bf62e096fe43286d352ea9ac80478e9a69b223899ea03b3fba439f012102d8f3a2343b8568baa4268ce58ba37035fd887c295fbe652a16c06907839d2e6d4dbc0c00"
}