{
  "txid": "75b0addb10ce5128ca2540b10a4b5490cf4781d9d7284cdddc4ed1c94dde861e",
  "version": 2,
  "locktime": 0,
  "vin": [
    {
      "txid": "16c5b98bf9af5af76761df5c3dd3f8ddb418c7b2c6ae9a295742fcb7f078a599",
      "vout": 1,
      "prevout": {
        "scriptpubkey": "a914c2546baf14c70acb270db2daa33d50bde297663887",
        "scriptpubkey_asm": "OP_HASH160 OP_PUSHBYTES_20 c2546baf14c70acb270db2daa33d50bde2976638 OP_EQUAL",
        "scriptpubkey_type": "p2sh",
        "scriptpubkey_address": "3KQY9Qc18k4n7D6gzctg4HiGRqvuBfV9oq",
        "value": 7088963
      },
      "scriptsig": "16001424cd3ca6dec4bd98e1c19b26343ce2ecdd16df2b",
      "scriptsig_asm": "OP_PUSHBYTES_22 001424cd3ca6dec4bd98e1c19b26343ce2ecdd16df2b",
      "witness": [
        "3045022100e04cc7cd86a4a7bce39a7c27d92621931f05be9f909e3096fe104c9ed746941002204d2db9dc5e41a0714ca29d17a61126a24a7bd2d9b44af36e465ffa11673915ca01",
        "0276dfbcf46fac6c7a98ddceac29619f11bdad67f61b337e61c5430216b399ff2a"
      ],
      "is_coinbase": false,
      "sequence": 0,
      "inner_redeemscript_asm": "OP_0 OP_PUSHBYTES_20 24cd3ca6dec4bd98e1c19b26343ce2ecdd16df2b"
    }
  ],
  "vout": [
    {
      "scriptpubkey": "0014c4b7cf8319f00e4447586341f5389adf84f64b3a",
      "scriptpubkey_asm": "OP_0 OP_PUSHBYTES_20 c4b7cf8319f00e4447586341f5389adf84f64b3a",
      "scriptpubkey_type": "v0_p2wpkh",
      "scriptpubkey_address": "bc1qcjmulqce7q8yg36cvdql2wy6m7z0vje6dgwqxe",
      "value": 1152471
    },
    {
      "scriptpubkey": "a9146ca4236338d2d243c05f0b169d7c103d2dc110f087",
      "scriptpubkey_asm": "OP_HASH160 OP_PUSHBYTES_20 6ca4236338d2d243c05f0b169d7c103d2dc110f0 OP_EQUAL",
      "scriptpubkey_type": "p2sh",
      "scriptpubkey_address": "3BbTXnXduL4gyuRdJpdB2mcfSBWR2TUMMr",
      "value": 5933585
    }
  ],
  "size": 247,
  "weight": 658,
  "fee": 2907,
  "status": {
    "confirmed": true,
    "block_height": 834638,
    "block_hash": "000000000000000000025f742c626208ac87e0b7d15054abb4a19ca2d735a54e",
    "block_time": 1710405325
  },
  "hex": "0200000000010199a578f0b7fc4257299aaec6b2c718b4ddf8d33d5cdf6167f75aaff98bb9c516010000001716001424cd3ca6dec4bd98e1c19b26343ce2ecdd16df2b0000000002d795110000000000160014c4b7cf8319f00e4447586341f5389adf84f64b3a118a5a000000000017a9146ca4236338d2d243c05f0b169d7c103d2dc110f08702483045022100e04cc7cd86a4a7bce39a7c27d92621931f05be9f909e3096fe104c9ed746941002204d2db9dc5e41a0714ca29d17a61126a24a7bd2d9b44af36e465ffa11673915ca01210276dfbcf46fac6c7a98ddceac29619f11bdad67f61b337e61c5430216b399ff2a00000000"
}