{
  "txid": "75d81280564d4e691410457a46379f6d1219c41cf7862cf9019d6d9889caa6d8",
  "version": 1,
  "locktime": 0,
  "vin": [
    {
      "txid": "61b2bb9ddfbf713b465c8c09017efe5ab537ad704a8aa6fa65951039db59cefc",
      "vout": 1,
      "prevout": {
        "scriptpubkey": "0014b117eb6e49e04b8c85142ee72891a31ca7874082",
        "scriptpubkey_asm": "OP_0 OP_PUSHBYTES_20 b117eb6e49e04b8c85142ee72891a31ca7874082",
        "scriptpubkey_type": "v0_p2wpkh",
        "scriptpubkey_address": "bc1qkyt7kmjfup9cepg59mnj3ydrrjncwsyzl3hysj",
        "value": 2596199
      },
      "scriptsig": "",
      "scriptsig_asm": "",
      "witness": [
        "3045022100db3df7da82c2c2d5ebe22175e6b542b2e3cadbb9a2d10c5f3bb1d1dae1288e20022004c3a4b6b931468b38bfc647267157aa5e0bf751298169b5adcd0cc1ebf4d41001",
        "033142071afafd61a6bba70634069ca141ca4a742d27f70756cdf85f1b1c6c7f39"
      ],
      "is_coinbase": false,
      "sequence": 4294967295
    },
    {
      "txid": "6077e697815d1f0726b4701729834206c2f7e17234a04b6e2c75258bf7b18f33",
      "vout": 1,
      "prevout": {
        "scriptpubkey": "0014b117eb6e49e04b8c85142ee72891a31ca7874082",
        "scriptpubkey_asm": "OP_0 OP_PUSHBYTES_20 b117eb6e49e04b8c85142ee72891a31ca7874082",
        "scriptpubkey_type": "v0_p2wpkh",
        "scriptpubkey_address": "bc1qkyt7kmjfup9cepg59mnj3ydrrjncwsyzl3hysj",
        "value": 99997274
      },
      "scriptsig": "",
      "scriptsig_asm": "",
      "witness": [
        "304402202f6de6cccbfe805a299d7f6d79c8c4c0a30196bbec6c2bd5e74ec259514861cd02207d922dcdd90dc5a6221fa06bac3830e439976bdcbbf53f463b2a943bc91eb18801",
        "033142071afafd61a6bba70634069ca141ca4a742d27f70756cdf85f1b1c6c7f39"
      ],
      "is_coinbase": false,
      "sequence": 4294967295
    }
  ],
  "vout": [
    {
      "scriptpubkey": "a91486e721b04e7bc860ee2f73b9f6d52b5442f041d987",
      "scriptpubkey_asm": "OP_HASH160 OP_PUSHBYTES_20 86e721b04e7bc860ee2f73b9f6d52b5442f041d9 OP_EQUAL",
      "scriptpubkey_type": "p2sh",
      "scriptpubkey_address": "3DzKMZ5YZd1d23MZ7vH33iRrxaAaR6Yawe",
      "value": 23218857
    },
    {
      "scriptpubkey": "0014b117eb6e49e04b8c85142ee72891a31ca7874082",
      "scriptpubkey_asm": "OP_0 OP_PUSHBYTES_20 b117eb6e49e04b8c85142ee72891a31ca7874082",
      "scriptpubkey_type": "v0_p2wpkh",
      "scriptpubkey_address": "bc1qkyt7kmjfup9cepg59mnj3ydrrjncwsyzl3hysj",
      "value": 79371340
    }
  ],
  "size": 372,
  "weight": 837,
  "fee": 3276,
  "status": {
    "confirmed": true,
    "block_height": 834638,
    "block_hash": "000000000000000000025f742c626208ac87e0b7d15054abb4a19ca2d735a54e",
    "block_time": 1710405325
  },
  "hex": "01000000000102fcce59db39109565faa68a4a70ad37b55afe7e01098c5c463b71bfdf9dbbb2610100000000ffffffff338fb1f78b25752c6e4ba03472e1f7c2064283291770b426071f5d8197e677600100000000ffffffff02a94a62010000000017a91486e721b04e7bc860ee2f73b9f6d52b5442f041d9874c1cbb0400000000160014b117eb6e49e04b8c85142ee72891a31ca787408202483045022100db3df7da82c2c2d5ebe22175e6b542b2e3cadbb9a2d10c5f3bb1d1dae1288e20022004c3a4b6b931468b38bfc647267157aa5e0bf751298169b5adcd0cc1ebf4d4100121033142071afafd61a6bba70634069ca141ca4a742d27f70756cdf85f1b1c6c7f390247304402202f6de6cccbfe805a299d7f6d79c8c4c0a30196bbec6c2bd5e74ec259514861cd02207d922dcdd90dc5a6221fa06bac3830e439976bdcbbf53f463b2a943bc91eb1880121033142071afafd61a6bba70634069ca141ca4a742d27f70756cdf85f1b1c6c7f3900000000"
}