{
  "txid": "75eb18c4d8bf7f6076a490672c83bb3d588ddff257e76d44aa58c5d3507aea65",
  "version": 2,
  "locktime": 0,
  "vin": [
    {
      "txid": "d876e87acc413203c999db930024566b868fea8d543410edfbfcdaf0a4752ec2",
      "vout": 0,
      "prevout": {
        "scriptpubkey": "5120ad922af8d513b4814656bf9d30f391082890dd4c795ff28c66efb8a8030e174b",
        "scriptpubkey_asm": "OP_PUSHNUM_1 OP_PUSHBYTES_32 ad922af8d513b4814656bf9d30f391082890dd4c795ff28c66efb8a8030e174b",
        "scriptpubkey_type": "v1_p2tr",
        "scriptpubkey_address": "bc1p4kfz47x4zw6gz3jkh7wnpuu3pq5fph2v090l9rrxa7u2sqcwza9sa4xrtn",
        "value": 2826
      },
      "scriptsig": "",
      "scriptsig_asm": "",
      "witness": [
        "005bdf7e3a6c7bd2356cb76d4498ce83c423fe367891fcc74142c721566f68a3b58b1b63730c020dbeca708a0b19ef4955dcede47294ac3122cdbd22085e87bf",
        "20ed18791945c193443e32266c852c957636b251dc4d4bead63cf18ee338ff7305ac0063036f7264010118746578742f706c61696e3b636861727365743d7574662d3800397b2270223a226272632d3230222c226f70223a227472616e73666572222c227469636b223a2249424954222c22616d74223a2236303030227d68",
        "c1ed18791945c193443e32266c852c957636b251dc4d4bead63cf18ee338ff7305"
      ],
      "is_coinbase": false,
      "sequence": 4294967293
    }
  ],
  "vout": [
    {
      "scriptpubkey": "51203ed9068d59f07b52ecbb9989a1d99580b17bb15d22059a3afd078ff6d50f2535",
      "scriptpubkey_asm": "OP_PUSHNUM_1 OP_PUSHBYTES_32 3ed9068d59f07b52ecbb9989a1d99580b17bb15d22059a3afd078ff6d50f2535",
      "scriptpubkey_type": "v1_p2tr",
      "scriptpubkey_address": "bc1p8mvsdr2e7pa49m9mnxy6rkv4szchhv2aygze5whaq78ld4g0y56svhzyk3",
      "value": 546
    }
  ],
  "size": 324,
  "weight": 606,
  "fee": 2280,
  "status": {
    "confirmed": true,
    "block_height": 834638,
    "block_hash": "000000000000000000025f742c626208ac87e0b7d15054abb4a19ca2d735a54e",
    "block_time": 1710405325
  },
  "hex": "02000000000101c22e75a4f0dafcfbed1034548dea8f866b56240093db99c9033241cc7ae876d80000000000fdffffff0122020000000000002251203ed9068d59f07b52ecbb9989a1d99580b17bb15d22059a3afd078ff6d50f25350340005bdf7e3a6c7bd2356cb76d4498ce83c423fe367891fcc74142c721566f68a3b58b1b63730c020dbeca708a0b19ef4955dcede47294ac3122cdbd22085e87bf7f20ed18791945c193443e32266c852c957636b251dc4d4bead63cf18ee338ff7305ac0063036f7264010118746578742f706c61696e3b636861727365743d7574662d3800397b2270223a226272632d3230222c226f70223a227472616e73666572222c227469636b223a2249424954222c22616d74223a2236303030227d6821c1ed18791945c193443e32266c852c957636b251dc4d4bead63cf18ee338ff730500000000"
}