{
  "txid": "75eda7b124ec8e8c105fa9336a8574ff3eb53e38877ecfd9aed38669b800d07b",
  "version": 2,
  "locktime": 0,
  "vin": [
    {
      "txid": "8486ecb4df0880316dd6e82b3971b4df187aff23765bc3a47f8d78bb53aa273c",
      "vout": 113,
      "prevout": {
        "scriptpubkey": "51207b509e32af1a95e507478f7fd9071b288b7c59e76f87ad7a2e6dbf41f94164e5",
        "scriptpubkey_asm": "OP_PUSHNUM_1 OP_PUSHBYTES_32 7b509e32af1a95e507478f7fd9071b288b7c59e76f87ad7a2e6dbf41f94164e5",
        "scriptpubkey_type": "v1_p2tr",
        "scriptpubkey_address": "bc1p0dgfuv40r2272p683alajpcm9z9hck08d7r6673wdkl5r72pvnjsmugakr",
        "value": 2575
      },
      "scriptsig": "",
      "scriptsig_asm": "",
      "witness": [
        "e78fcecaa359713f45e6cfaefc0383985b2bdc47351e098cc45bf4681933eac18b0f2bd98aa82fd9cd15515d102e19103b2ee7d701d0d0d31688f9cd9e3a0213",
        "204ec09d74e7ec526cf6800196e9394de807e37ba1719429906cc6a5d892eb9da1ac0063036f726401010a746578742f706c61696e00367b2270223a226272632d3230222c226f70223a226d696e74222c227469636b223a2261616161222c22616d74223a223130303030227d68",
        "c04ec09d74e7ec526cf6800196e9394de807e37ba1719429906cc6a5d892eb9da1"
      ],
      "is_coinbase": false,
      "sequence": 4261412863
    }
  ],
  "vout": [
    {
      "scriptpubkey": "0014ddd7ef12ea6f78edcc1e8e7afa12c01ab59f3339",
      "scriptpubkey_asm": "OP_0 OP_PUSHBYTES_20 ddd7ef12ea6f78edcc1e8e7afa12c01ab59f3339",
      "scriptpubkey_type": "v0_p2wpkh",
      "scriptpubkey_address": "bc1qmht77yh2dauwmnq73ea05ykqr26e7veea8spz6",
      "value": 546
    }
  ],
  "size": 295,
  "weight": 541,
  "fee": 2029,
  "status": {
    "confirmed": true,
    "block_height": 834460,
    "block_hash": "00000000000000000000484a79b643b2524bbce82e5d8a442013fa5b8905ed98",
    "block_time": 1710307468
  },
  "hex": "020000000001013c27aa53bb788d7fa4c35b7623ff7a18dfb471392be8d66d318008dfb4ec86847100000000fffffffd012202000000000000160014ddd7ef12ea6f78edcc1e8e7afa12c01ab59f33390340e78fcecaa359713f45e6cfaefc0383985b2bdc47351e098cc45bf4681933eac18b0f2bd98aa82fd9cd15515d102e19103b2ee7d701d0d0d31688f9cd9e3a02136e204ec09d74e7ec526cf6800196e9394de807e37ba1719429906cc6a5d892eb9da1ac0063036f726401010a746578742f706c61696e00367b2270223a226272632d3230222c226f70223a226d696e74222c227469636b223a2261616161222c22616d74223a223130303030227d6821c04ec09d74e7ec526cf6800196e9394de807e37ba1719429906cc6a5d892eb9da100000000"
}