{
  "txid": "75f4b684c9352ec37ced2d8a52800fa6dc53475baf7821e15fec54c245e120b4",
  "version": 2,
  "locktime": 0,
  "vin": [
    {
      "txid": "acc3ba00869acb582a3f2904ce3a11dd3779350ce234063fc7d0959246213364",
      "vout": 277,
      "prevout": {
        "scriptpubkey": "51202d412cf1177bea3e472bde1a646b21eee4441be75b0836144eb928d1c73ec61f",
        "scriptpubkey_asm": "OP_PUSHNUM_1 OP_PUSHBYTES_32 2d412cf1177bea3e472bde1a646b21eee4441be75b0836144eb928d1c73ec61f",
        "scriptpubkey_type": "v1_p2tr",
        "scriptpubkey_address": "bc1p94qjeugh004ru3etmcdxg6epamjygxl8tvyrv9zwhy5dr3e7cc0s9ldq2s",
        "value": 1806
      },
      "scriptsig": "",
      "scriptsig_asm": "",
      "witness": [
        "5a3c9306bfd61aab2a18b5ddc51d378921803b806aace066cfd82f4993ccb5313c1043684f2f07e6332f9c6308969ff54d1919ddbf4e34f262aefd8425632195",
        "20870f374032baa45cf5bbeda329ae0dffaefefde000fb6542a14c1840f1939e28ac0063036f726401010a746578742f706c61696e00357b2270223a226272632d3230222c226f70223a226d696e74222c227469636b223a22646f6765222c22616d74223a2234323030227d68",
        "c1870f374032baa45cf5bbeda329ae0dffaefefde000fb6542a14c1840f1939e28"
      ],
      "is_coinbase": false,
      "sequence": 4261412863
    }
  ],
  "vout": [
    {
      "scriptpubkey": "00147a665de7a370f4c9b372ab1fae587500a5bcbdb4",
      "scriptpubkey_asm": "OP_0 OP_PUSHBYTES_20 7a665de7a370f4c9b372ab1fae587500a5bcbdb4",
      "scriptpubkey_type": "v0_p2wpkh",
      "scriptpubkey_address": "bc1q0fn9mearwr6vnvmj4v06ukr4qzjme0d565dzcx",
      "value": 294
    }
  ],
  "size": 294,
  "weight": 540,
  "fee": 1512,
  "status": {
    "confirmed": true,
    "block_height": 834460,
    "block_hash": "00000000000000000000484a79b643b2524bbce82e5d8a442013fa5b8905ed98",
    "block_time": 1710307468
  },
  "hex": "02000000000101643321469295d0c73f0634e20c357937dd113ace04293f2a58cb9a8600bac3ac1501000000fffffffd0126010000000000001600147a665de7a370f4c9b372ab1fae587500a5bcbdb403405a3c9306bfd61aab2a18b5ddc51d378921803b806aace066cfd82f4993ccb5313c1043684f2f07e6332f9c6308969ff54d1919ddbf4e34f262aefd84256321956d20870f374032baa45cf5bbeda329ae0dffaefefde000fb6542a14c1840f1939e28ac0063036f726401010a746578742f706c61696e00357b2270223a226272632d3230222c226f70223a226d696e74222c227469636b223a22646f6765222c22616d74223a2234323030227d6821c1870f374032baa45cf5bbeda329ae0dffaefefde000fb6542a14c1840f1939e2800000000"
}