{
  "txid": "75fd2874bcd618dba9c3156936c48adc4c5c1c82a029a04386b55f50eef33922",
  "version": 1,
  "locktime": 834458,
  "vin": [
    {
      "txid": "225c178b2d50d7158b02a33e83281b6a0a9f7d6cb035c3bcd3bfd0c347d5144d",
      "vout": 3,
      "prevout": {
        "scriptpubkey": "0020a0b40c92a9c98e93d3eb742705bca356013cf0d8d041d49dcfec0357dcaf2a34",
        "scriptpubkey_asm": "OP_0 OP_PUSHBYTES_32 a0b40c92a9c98e93d3eb742705bca356013cf0d8d041d49dcfec0357dcaf2a34",
        "scriptpubkey_type": "v0_p2wsh",
        "scriptpubkey_address": "bc1q5z6qey4fex8f85ltwsnst09r2cqneuxc6pqaf8w0asp40h909g6qhk8at6",
        "value": 1247948
      },
      "scriptsig": "",
      "scriptsig_asm": "",
      "witness": [
        "",
        "304502210094a2c39797e4132709a434118c92a50fab808f42193bd71846cc5d278b908cbb022069b4dce8d3c082c255817b02a13a027f3f065b398749c87328147e387a9579fa01",
        "3044022056b23144a954ce3b0f768fbd69dce63856db341e9c9a518f4159023d6d3a5ed5022019e258fca985054430c8a296268307fcf88568d3ad7fe82643ca3a15af0ce9bf01",
        "5221023d5106394cfac126b1c0d6d553e709feaebd15acd0e1083862e686ca7d09c929210221294a8e74374834305a9e459af721b1e3916bb630e192d7f0122654acba5c5e2103ce220db613cefd7a00eff593f4276e4f3b33994458cb3b1fca94014d186eb83253ae"
      ],
      "is_coinbase": false,
      "sequence": 4294967295,
      "inner_witnessscript_asm": "OP_PUSHNUM_2 OP_PUSHBYTES_33 023d5106394cfac126b1c0d6d553e709feaebd15acd0e1083862e686ca7d09c929 OP_PUSHBYTES_33 0221294a8e74374834305a9e459af721b1e3916bb630e192d7f0122654acba5c5e OP_PUSHBYTES_33 03ce220db613cefd7a00eff593f4276e4f3b33994458cb3b1fca94014d186eb832 OP_PUSHNUM_3 OP_CHECKMULTISIG"
    },
    {
      "txid": "3684461bff1f8e9d9001f12fa1812a7c21669673cda0132c77e14852568d7968",
      "vout": 0,
      "prevout": {
        "scriptpubkey": "a914da1cd1e746dbfa5bd942d76b17d882868e041bf687",
        "scriptpubkey_asm": "OP_HASH160 OP_PUSHBYTES_20 da1cd1e746dbfa5bd942d76b17d882868e041bf6 OP_EQUAL",
        "scriptpubkey_type": "p2sh",
        "scriptpubkey_address": "3MaHkokyU3X6bVtCe41F5vtuqNQPdrodLa",
        "value": 726102
      },
      "scriptsig": "220020072d594ae9ae12e6b23b912953ff38a97951feb25cb93960a45ba93088e4c28c",
      "scriptsig_asm": "OP_PUSHBYTES_34 0020072d594ae9ae12e6b23b912953ff38a97951feb25cb93960a45ba93088e4c28c",
      "witness": [
        "",
        "3045022100c170a90d91f9f0b1dad78c79c9c9719e82f2289721b45590451ca03573cfcf5902200d84a9128399de9ceda5b6aa805fabe3a56821b5b455c043f15d0e1c43dd2f6901",
        "304402207431014fa3a6fd6343702a786a329bc888b0feadbaa60033a1ee9f38714c3308022060b68445b2c9535543f646cdb498dbdc12954bd73451005ac5df004ed34bfd5701",
        "522103468438b501a8d3c0c4ec536fbd2cde29e6116455961d8bac904a53a7ec6bb7232103dee9666c567e25762b0df235d6ae8c88321e910300f9bb2b9d24e1e8fd872468210333b36f8c25886672db07d6ffc09b61b52eef26951b0c275d495b25b57b0ba86a53ae"
      ],
      "is_coinbase": false,
      "sequence": 4294967295,
      "inner_redeemscript_asm": "OP_0 OP_PUSHBYTES_32 072d594ae9ae12e6b23b912953ff38a97951feb25cb93960a45ba93088e4c28c",
      "inner_witnessscript_asm": "OP_PUSHNUM_2 OP_PUSHBYTES_33 03468438b501a8d3c0c4ec536fbd2cde29e6116455961d8bac904a53a7ec6bb723 OP_PUSHBYTES_33 03dee9666c567e25762b0df235d6ae8c88321e910300f9bb2b9d24e1e8fd872468 OP_PUSHBYTES_33 0333b36f8c25886672db07d6ffc09b61b52eef26951b0c275d495b25b57b0ba86a OP_PUSHNUM_3 OP_CHECKMULTISIG"
    },
    {
      "txid": "4ad5302a4683f8809e331278f90aeace4121707ca6ba5719f06f768f174aaffe",
      "vout": 167,
      "prevout": {
        "scriptpubkey": "a914e95dc52b0f14c6fc456cb94b71770136475be60887",
        "scriptpubkey_asm": "OP_HASH160 OP_PUSHBYTES_20 e95dc52b0f14c6fc456cb94b71770136475be608 OP_EQUAL",
        "scriptpubkey_type": "p2sh",
        "scriptpubkey_address": "3NxwhWNHQuSZCrmUdCDFXMtsXwp8qHyqwF",
        "value": 728120
      },
      "scriptsig": "220020efe71ca59d048bffd4aaa94a18a4b598c4ff93f61de0854229055f78bcfe7e37",
      "scriptsig_asm": "OP_PUSHBYTES_34 0020efe71ca59d048bffd4aaa94a18a4b598c4ff93f61de0854229055f78bcfe7e37",
      "witness": [
        "",
        "3044022013dc216f06f1bc5e50065a5c60d1fe388465f272bada4b017de811a8bebdb83e0220461244b45ada957605905b928be608dba726c3ad3838d30ab6256af473ace27001",
        "3044022048252be9991a0c9a2653d70a2ce9d3a54f937c362e283f11cecf6c53b3e9b95d02205494922c5f68495d3ddbaca84a0375bd0bb643f85da4eb1dcb2cad0cd5490fa401",
        "5221021c9d845eeca4ffaab797de5a1f468c00a3775ef8b2a7b61ed23cd0a45da623ad2103b4af9bcd6ed87d19e099dfb5b3a122662afe524f7cd3c00b5714bbe9405262b021036f7e8f49f8fd90f9d61a61210a21b7a4cab6315506855c25ccd4719645a33acc53ae"
      ],
      "is_coinbase": false,
      "sequence": 4294967295,
      "inner_redeemscript_asm": "OP_0 OP_PUSHBYTES_32 efe71ca59d048bffd4aaa94a18a4b598c4ff93f61de0854229055f78bcfe7e37",
      "inner_witnessscript_asm": "OP_PUSHNUM_2 OP_PUSHBYTES_33 021c9d845eeca4ffaab797de5a1f468c00a3775ef8b2a7b61ed23cd0a45da623ad OP_PUSHBYTES_33 03b4af9bcd6ed87d19e099dfb5b3a122662afe524f7cd3c00b5714bbe9405262b0 OP_PUSHBYTES_33 036f7e8f49f8fd90f9d61a61210a21b7a4cab6315506855c25ccd4719645a33acc OP_PUSHNUM_3 OP_CHECKMULTISIG"
    },
    {
      "txid": "66e91646d18e0d4e53f9c517d29142a600233a8060d0325ef76ef6337d200b0b",
      "vout": 1,
      "prevout": {
        "scriptpubkey": "a914245e50a064421e914288d8d5893fc34c38d6a42c87",
        "scriptpubkey_asm": "OP_HASH160 OP_PUSHBYTES_20 245e50a064421e914288d8d5893fc34c38d6a42c OP_EQUAL",
        "scriptpubkey_type": "p2sh",
        "scriptpubkey_address": "351KEZquATjKDytN9wuPhmFwkPWAgPvreW",
        "value": 724000
      },
      "scriptsig": "220020c68b07eb4f5ab2d1a99e373bb262a9d4449085484ae54e5abf4d6425dd3de6fc",
      "scriptsig_asm": "OP_PUSHBYTES_34 0020c68b07eb4f5ab2d1a99e373bb262a9d4449085484ae54e5abf4d6425dd3de6fc",
      "witness": [
        "",
        "30450221008e49d6311e4b69fc4d5f8cf3097d8db144c81b72710159cd468c89a7a20377d4022019b9b04488964065fbf42ebc9e6d48cf558d5617dca3bf109c6e3b963af82ea601",
        "3044022062264d8057826915feecace2ca98a0b721895c6697ce5a7683f69ece9a72063c02206676aa7174d2e6c0672a906371eb169ec8c536c0d4f99a68a1c5489f1600459e01",
        "5221039ee356f99d82b10900e57a118158cfab862c17c842c860262f9e9b134bcfbdaf21036464ad906b8f1e5b01f171fbc7d0f80f54c5d0695207dcac72b1be1042e098582103cc4fafa71cc0a20f881d4b3c4262b95fc1f2c1a8eab3122d30d6c5f8514d3a4653ae"
      ],
      "is_coinbase": false,
      "sequence": 4294967295,
      "inner_redeemscript_asm": "OP_0 OP_PUSHBYTES_32 c68b07eb4f5ab2d1a99e373bb262a9d4449085484ae54e5abf4d6425dd3de6fc",
      "inner_witnessscript_asm": "OP_PUSHNUM_2 OP_PUSHBYTES_33 039ee356f99d82b10900e57a118158cfab862c17c842c860262f9e9b134bcfbdaf OP_PUSHBYTES_33 036464ad906b8f1e5b01f171fbc7d0f80f54c5d0695207dcac72b1be1042e09858 OP_PUSHBYTES_33 03cc4fafa71cc0a20f881d4b3c4262b95fc1f2c1a8eab3122d30d6c5f8514d3a46 OP_PUSHNUM_3 OP_CHECKMULTISIG"
    },
    {
      "txid": "8ed02e9d20cd04cc3e48a448cf712b789293cc9328785cb5be68cd5131fff20e",
      "vout": 0,
      "prevout": {
        "scriptpubkey": "a914aa2111ff505359266dc323a9b6ebf532d99374fc87",
        "scriptpubkey_asm": "OP_HASH160 OP_PUSHBYTES_20 aa2111ff505359266dc323a9b6ebf532d99374fc OP_EQUAL",
        "scriptpubkey_type": "p2sh",
        "scriptpubkey_address": "3HCaQvJSEtXQboX8TKDw85H5ZYzFPRoU5G",
        "value": 719600
      },
      "scriptsig": "220020977b69c9c91250dea5ec0facde306215d56b9bfeb94af02555069abd6f260fc5",
      "scriptsig_asm": "OP_PUSHBYTES_34 0020977b69c9c91250dea5ec0facde306215d56b9bfeb94af02555069abd6f260fc5",
      "witness": [
        "",
        "3045022100a52291b2f276bb0e28674c0a098f0c78311a9a75fb7a0191d047e1d118305c7d02202f1cc2906be36949145674e8ff45bd9353a5fc79dca4bcf87e04c239747d01b401",
        "3044022018ef08669b0273c9f898e5a78a47985830da9e49babc1dcca71eb40ce514aaab02205a9c635cf12af93396c251917d5384c066034cbf8a546a3eaf8f8e1d4f6d83da01",
        "52210288709c449cb9fc2cb0bbc5db37159eb20aa4f499fb1aae263c3ffb680df085482102c56ef630ebf48028a846b9e7c2f602aedba1477b4762406934f33e62842da26a2102208d3f7bd2a9076433f29e3165e5bc79ff0c9494ba0f455f31ff9bc66f825d6453ae"
      ],
      "is_coinbase": false,
      "sequence": 4294967295,
      "inner_redeemscript_asm": "OP_0 OP_PUSHBYTES_32 977b69c9c91250dea5ec0facde306215d56b9bfeb94af02555069abd6f260fc5",
      "inner_witnessscript_asm": "OP_PUSHNUM_2 OP_PUSHBYTES_33 0288709c449cb9fc2cb0bbc5db37159eb20aa4f499fb1aae263c3ffb680df08548 OP_PUSHBYTES_33 02c56ef630ebf48028a846b9e7c2f602aedba1477b4762406934f33e62842da26a OP_PUSHBYTES_33 02208d3f7bd2a9076433f29e3165e5bc79ff0c9494ba0f455f31ff9bc66f825d64 OP_PUSHNUM_3 OP_CHECKMULTISIG"
    },
    {
      "txid": "99341ffb35569adb8c0d7dffa0680455060ebc223dd9d5437e48bdc521364ddb",
      "vout": 84,
      "prevout": {
        "scriptpubkey": "a91408e63dcb53d987a1f0be650c83a935826d569bf187",
        "scriptpubkey_asm": "OP_HASH160 OP_PUSHBYTES_20 08e63dcb53d987a1f0be650c83a935826d569bf1 OP_EQUAL",
        "scriptpubkey_type": "p2sh",
        "scriptpubkey_address": "32W59XhqMn5QKGNPD86Eo3oxXcEhkyvCee",
        "value": 720247
      },
      "scriptsig": "22002026c2397ab89c2471b31a641b00772bea8b3d7d34d89453dd3b114f96af6851b3",
      "scriptsig_asm": "OP_PUSHBYTES_34 002026c2397ab89c2471b31a641b00772bea8b3d7d34d89453dd3b114f96af6851b3",
      "witness": [
        "",
        "3045022100b3b64f98fea6c4dec1ab302f90858ad35abce1d24e80e592be17ea14bcbea0090220193867a2c14cb30093fa0af65f194e49c5c947071696171a1b435cbfff66c66e01",
        "304402201557c743332d5215c18427418655b11e0e4e5b49958471917dc2fed889ba3406022060de14bc4be327372d0acdcc5cff9ff90bcf3d83f41b984fee4693235a59417901",
        "522103a0c36c77d9122a500f4f6b20e4d761241f162050f7a778857e96d68f01c7cf68210200d48938da51aa3a1613c3ac58dd8daaee483d3cb93c50be860f3d568b3eb6162103680ec2b0465e5c44ee62994fc50cc3b5e94c4631e42918bc12a22ae4efc11c9353ae"
      ],
      "is_coinbase": false,
      "sequence": 4294967295,
      "inner_redeemscript_asm": "OP_0 OP_PUSHBYTES_32 26c2397ab89c2471b31a641b00772bea8b3d7d34d89453dd3b114f96af6851b3",
      "inner_witnessscript_asm": "OP_PUSHNUM_2 OP_PUSHBYTES_33 03a0c36c77d9122a500f4f6b20e4d761241f162050f7a778857e96d68f01c7cf68 OP_PUSHBYTES_33 0200d48938da51aa3a1613c3ac58dd8daaee483d3cb93c50be860f3d568b3eb616 OP_PUSHBYTES_33 03680ec2b0465e5c44ee62994fc50cc3b5e94c4631e42918bc12a22ae4efc11c93 OP_PUSHNUM_3 OP_CHECKMULTISIG"
    },
    {
      "txid": "bc5863ec915ad6801007dca90334018a3a1e8ccc51ee93f1a6cb78cf4e14b10e",
      "vout": 74,
      "prevout": {
        "scriptpubkey": "a914be7c22b814d2f4e36d1777020ec1c5370ae9031887",
        "scriptpubkey_asm": "OP_HASH160 OP_PUSHBYTES_20 be7c22b814d2f4e36d1777020ec1c5370ae90318 OP_EQUAL",
        "scriptpubkey_type": "p2sh",
        "scriptpubkey_address": "3K4D25vbQUdvtHux9WvdsTvafBb5GQTWLE",
        "value": 1247739
      },
      "scriptsig": "2200202db5a5b222890f2c40f6d7b1387f7cc6b4455e8110f3f8d638ecc373088bdf44",
      "scriptsig_asm": "OP_PUSHBYTES_34 00202db5a5b222890f2c40f6d7b1387f7cc6b4455e8110f3f8d638ecc373088bdf44",
      "witness": [
        "",
        "304402201346eb5a1f66f789c2d315307098926fb05ec2969db2a8a0c2f7efee0a95a8920220309fdf847cb373a152d44bd5a909eef59114f6f0296d239c97b74d481d9a735b01",
        "30440220301809e4be934c01f7cd8ef12b08de6d54bd3a9af367c304451e40c0602d53910220605c4096990e3f2c170786c5e7b5202054f6b6fcfb04092301799f53e6fd1e6401",
        "522103ed4d5fb91c2f62a5a09c19ddf7174a99000b337ccd074b4764483aca8297e5562102bc9dbf9cb2582d178567d7668d7072363f9cf8b942a3e8ff9a8f4795e89180d821034be0675d839ed808064ce3511d05942ac1eceaf0880948f60b1e72135e87901653ae"
      ],
      "is_coinbase": false,
      "sequence": 4294967295,
      "inner_redeemscript_asm": "OP_0 OP_PUSHBYTES_32 2db5a5b222890f2c40f6d7b1387f7cc6b4455e8110f3f8d638ecc373088bdf44",
      "inner_witnessscript_asm": "OP_PUSHNUM_2 OP_PUSHBYTES_33 03ed4d5fb91c2f62a5a09c19ddf7174a99000b337ccd074b4764483aca8297e556 OP_PUSHBYTES_33 02bc9dbf9cb2582d178567d7668d7072363f9cf8b942a3e8ff9a8f4795e89180d8 OP_PUSHBYTES_33 034be0675d839ed808064ce3511d05942ac1eceaf0880948f60b1e72135e879016 OP_PUSHNUM_3 OP_CHECKMULTISIG"
    },
    {
      "txid": "bd9d84285f4a4602a32450f6655c6416d0afd9b81dda021434a3dd148229ac2f",
      "vout": 0,
      "prevout": {
        "scriptpubkey": "a91472da4f0a2c58b140f2d1e3169012341e552db32b87",
        "scriptpubkey_asm": "OP_HASH160 OP_PUSHBYTES_20 72da4f0a2c58b140f2d1e3169012341e552db32b OP_EQUAL",
        "scriptpubkey_type": "p2sh",
        "scriptpubkey_address": "3CAJUmdGq1p9f1FsoMnpUA4DTEM5LodFbU",
        "value": 730000
      },
      "scriptsig": "2200209ee2620a96ccd448456922a6d939d489e9c7b9311993d60780582769460481bf",
      "scriptsig_asm": "OP_PUSHBYTES_34 00209ee2620a96ccd448456922a6d939d489e9c7b9311993d60780582769460481bf",
      "witness": [
        "",
        "304402206285ca4cea04a083fe831b4816ee975249abb4f254864ed1776240eb465e8d1902204d3ff3c6664e4a35c95ab621e568b099e2e33e262390f324c9a2ac3497b7029801",
        "304402201e8054f2a8ff81d90c92de585167e02d051e0bb12de6c3eeaa448303094ad5500220467533cfbfc6dff8e9dd4928dbe5f145f08b4020e9fadec242e2fdc588e2942701",
        "522103c0cac06c98c97b03df55d0039ad8efa2597c28060ef9b1d2bd6bbdc5c4fdf5c42103c405fd4ada627c05f9f242de91983895119a6b721e80ad5251f20e482a1c910e2103f562a14cae17bcad8fc24d1d08fa904805bb7212fa1be69d0ea4fce0620a81d353ae"
      ],
      "is_coinbase": false,
      "sequence": 4294967295,
      "inner_redeemscript_asm": "OP_0 OP_PUSHBYTES_32 9ee2620a96ccd448456922a6d939d489e9c7b9311993d60780582769460481bf",
      "inner_witnessscript_asm": "OP_PUSHNUM_2 OP_PUSHBYTES_33 03c0cac06c98c97b03df55d0039ad8efa2597c28060ef9b1d2bd6bbdc5c4fdf5c4 OP_PUSHBYTES_33 03c405fd4ada627c05f9f242de91983895119a6b721e80ad5251f20e482a1c910e OP_PUSHBYTES_33 03f562a14cae17bcad8fc24d1d08fa904805bb7212fa1be69d0ea4fce0620a81d3 OP_PUSHNUM_3 OP_CHECKMULTISIG"
    },
    {
      "txid": "e33b942e1aee4f88e35f296f884ca9d72dca5b123beeb1295b0ca310d9e60ff5",
      "vout": 20,
      "prevout": {
        "scriptpubkey": "a9148adc6cac639be0997dff71e0c14c064159b4d8e987",
        "scriptpubkey_asm": "OP_HASH160 OP_PUSHBYTES_20 8adc6cac639be0997dff71e0c14c064159b4d8e9 OP_EQUAL",
        "scriptpubkey_type": "p2sh",
        "scriptpubkey_address": "3EMFENxr4M1WXnTuswzEFPmupRBooZqK7y",
        "value": 1247295
      },
      "scriptsig": "220020cad1ac7e77199bcdd6dcee89384043d35421654817d2e3da6d890b3c1bd96da2",
      "scriptsig_asm": "OP_PUSHBYTES_34 0020cad1ac7e77199bcdd6dcee89384043d35421654817d2e3da6d890b3c1bd96da2",
      "witness": [
        "",
        "304402204e29c630d022f54f6c9b83f0bc604dc910c2f1d4c1a4b025ec3e460276850ead02207a306edff9fc7d7b4278f447614bdb06ae9b641b9aba85f2184de7a9272fb58101",
        "30440220597c829595b17b3705535f4832006c0766abb7dc5439454b405208aa6fe7173202202f8395f3810359f1273d3a1e6dff81ed6d07ac5763014b8819afbd4146e1559701",
        "5221032744bb95e5bc8722c0d0b56c5dffedbbdb385945540215997041aacbf719257d2103e894319264c8a1b1c84d11325b129f97c3895855ff9d20d3c6fe1fd3ebe0515f210232d637f70ab565254c10d5d731ad7295ce2e57b238581dba385f833ffa40c15053ae"
      ],
      "is_coinbase": false,
      "sequence": 4294967295,
      "inner_redeemscript_asm": "OP_0 OP_PUSHBYTES_32 cad1ac7e77199bcdd6dcee89384043d35421654817d2e3da6d890b3c1bd96da2",
      "inner_witnessscript_asm": "OP_PUSHNUM_2 OP_PUSHBYTES_33 032744bb95e5bc8722c0d0b56c5dffedbbdb385945540215997041aacbf719257d OP_PUSHBYTES_33 03e894319264c8a1b1c84d11325b129f97c3895855ff9d20d3c6fe1fd3ebe0515f OP_PUSHBYTES_33 0232d637f70ab565254c10d5d731ad7295ce2e57b238581dba385f833ffa40c150 OP_PUSHNUM_3 OP_CHECKMULTISIG"
    },
    {
      "txid": "e490e21b07f112521312eab46fd4c719bbd05d8d30bd764c905cb0715257f477",
      "vout": 0,
      "prevout": {
        "scriptpubkey": "a91457480e02cf3f84cdec981d04c3c9964dbd05defa87",
        "scriptpubkey_asm": "OP_HASH160 OP_PUSHBYTES_20 57480e02cf3f84cdec981d04c3c9964dbd05defa OP_EQUAL",
        "scriptpubkey_type": "p2sh",
        "scriptpubkey_address": "39eX2gbL7SxPvRnhoGPi59kDE2mpcwyRZb",
        "value": 1247491
      },
      "scriptsig": "22002028a5370047b7f8474f716f1dad91613ed7f05a47a46e7b0359d70a994b10267b",
      "scriptsig_asm": "OP_PUSHBYTES_34 002028a5370047b7f8474f716f1dad91613ed7f05a47a46e7b0359d70a994b10267b",
      "witness": [
        "",
        "30450221009e56a334ec2dc160c227de15b56450868a1196561f572a52da1768c685f52987022038891857673a46f081a30d45d449a9af2e08ba9db669624ff57ecba108941e8e01",
        "3044022078586802c3b2bddbe0309de8a53c50f653fb8b347966707c552adc540e82ea610220374d6a2f23947a8ae3336da732ca8e5427d5e939d85fc954638de2136f16bb6a01",
        "52210296d0b1352e1e3114bdb0a9da0f0eb01882fdd19896a588632cd7ef074af0e18c2103a6c881c8356ab0e23ac34f3e94b3c7d32b2e2fa35353207aafc2dd533434c4bb2102db54f40719f985cdcdff1236d0cdff7f6a30ac9257ee08e6ef14289f9931bfc753ae"
      ],
      "is_coinbase": false,
      "sequence": 4294967295,
      "inner_redeemscript_asm": "OP_0 OP_PUSHBYTES_32 28a5370047b7f8474f716f1dad91613ed7f05a47a46e7b0359d70a994b10267b",
      "inner_witnessscript_asm": "OP_PUSHNUM_2 OP_PUSHBYTES_33 0296d0b1352e1e3114bdb0a9da0f0eb01882fdd19896a588632cd7ef074af0e18c OP_PUSHBYTES_33 03a6c881c8356ab0e23ac34f3e94b3c7d32b2e2fa35353207aafc2dd533434c4bb OP_PUSHBYTES_33 02db54f40719f985cdcdff1236d0cdff7f6a30ac9257ee08e6ef14289f9931bfc7 OP_PUSHNUM_3 OP_CHECKMULTISIG"
    }
  ],
  "vout": [
    {
      "scriptpubkey": "00144132a7c09e4fa72a90646d2232c735ba6ea0e926",
      "scriptpubkey_asm": "OP_0 OP_PUSHBYTES_20 4132a7c09e4fa72a90646d2232c735ba6ea0e926",
      "scriptpubkey_type": "v0_p2wpkh",
      "scriptpubkey_address": "bc1qgye20sy7f7nj4yryd53r93e4hfh2p6fxr9sdlm",
      "value": 22875
    },
    {
      "scriptpubkey": "0014f3353be331bffb7f5124c8cc6f448bb11bf877ea",
      "scriptpubkey_asm": "OP_0 OP_PUSHBYTES_20 f3353be331bffb7f5124c8cc6f448bb11bf877ea",
      "scriptpubkey_type": "v0_p2wpkh",
      "scriptpubkey_address": "bc1q7v6nhce3hlah75fyerxx73ytkydlsal2475eaj",
      "value": 27715
    },
    {
      "scriptpubkey": "0020816fa03f78363869c7f6f2c5e07425458645bf2661da64ac6a933083c9779069",
      "scriptpubkey_asm": "OP_0 OP_PUSHBYTES_32 816fa03f78363869c7f6f2c5e07425458645bf2661da64ac6a933083c9779069",
      "scriptpubkey_type": "v0_p2wsh",
      "scriptpubkey_address": "bc1qs9h6q0mcxcuxn3lk7tz7qap9gkryt0exv8dxftr2jvcg8jthjp5sthsrnd",
      "value": 1120105
    },
    {
      "scriptpubkey": "a9148618597238986d1ad82d50a1829881d57b34c1ff87",
      "scriptpubkey_asm": "OP_HASH160 OP_PUSHBYTES_20 8618597238986d1ad82d50a1829881d57b34c1ff OP_EQUAL",
      "scriptpubkey_type": "p2sh",
      "scriptpubkey_address": "3Dv3e5JMYFQmhCVKaGDygYPiiVutVAuAhR",
      "value": 8149691
    }
  ],
  "size": 3400,
  "weight": 6016,
  "fee": 18156,
  "status": {
    "confirmed": true,
    "block_height": 834460,
    "block_hash": "00000000000000000000484a79b643b2524bbce82e5d8a442013fa5b8905ed98",
    "block_time": 1710307468
  },
  "hex": "0100000000010a4d14d547c3d0bfd3bcc335b06c7d9f0a6a1b28833ea3028b15d7502d8b175c220300000000ffffffff68798d565248e1772c13a0cd739666217c2a81a12ff101909d8e1fff1b4684360000000023220020072d594ae9ae12e6b23b912953ff38a97951feb25cb93960a45ba93088e4c28cfffffffffeaf4a178f766ff01957baa67c702141ceea0af97812339e80f883462a30d54aa700000023220020efe71ca59d048bffd4aaa94a18a4b598c4ff93f61de0854229055f78bcfe7e37ffffffff0b0b207d33f66ef75e32d060803a2300a64291d217c5f9534e0d8ed14616e9660100000023220020c68b07eb4f5ab2d1a99e373bb262a9d4449085484ae54e5abf4d6425dd3de6fcffffffff0ef2ff3151cd68beb55c782893cc9392782b71cf48a4483ecc04cd209d2ed08e0000000023220020977b69c9c91250dea5ec0facde306215d56b9bfeb94af02555069abd6f260fc5ffffffffdb4d3621c5bd487e43d5d93d22bc0e06550468a0ff7d0d8cdb9a5635fb1f3499540000002322002026c2397ab89c2471b31a641b00772bea8b3d7d34d89453dd3b114f96af6851b3ffffffff0eb1144ecf78cba6f193ee51cc8c1e3a8a013403a9dc071080d65a91ec6358bc4a000000232200202db5a5b222890f2c40f6d7b1387f7cc6b4455e8110f3f8d638ecc373088bdf44ffffffff2fac298214dda3341402da1db8d9afd016645c65f65024a302464a5f28849dbd00000000232200209ee2620a96ccd448456922a6d939d489e9c7b9311993d60780582769460481bffffffffff50fe6d910a30c5b29b1ee3b125bca2dd7a94c886f295fe3884fee1a2e943be31400000023220020cad1ac7e77199bcdd6dcee89384043d35421654817d2e3da6d890b3c1bd96da2ffffffff77f4575271b05c904c76bd308d5dd0bb19c7d46fb4ea12135212f1071be290e4000000002322002028a5370047b7f8474f716f1dad91613ed7f05a47a46e7b0359d70a994b10267bffffffff045b590000000000001600144132a7c09e4fa72a90646d2232c735ba6ea0e926436c000000000000160014f3353be331bffb7f5124c8cc6f448bb11bf877ea6917110000000000220020816fa03f78363869c7f6f2c5e07425458645bf2661da64ac6a933083c9779069bb5a7c000000000017a9148618597238986d1ad82d50a1829881d57b34c1ff87040048304502210094a2c39797e4132709a434118c92a50fab808f42193bd71846cc5d278b908cbb022069b4dce8d3c082c255817b02a13a027f3f065b398749c87328147e387a9579fa01473044022056b23144a954ce3b0f768fbd69dce63856db341e9c9a518f4159023d6d3a5ed5022019e258fca985054430c8a296268307fcf88568d3ad7fe82643ca3a15af0ce9bf01695221023d5106394cfac126b1c0d6d553e709feaebd15acd0e1083862e686ca7d09c929210221294a8e74374834305a9e459af721b1e3916bb630e192d7f0122654acba5c5e2103ce220db613cefd7a00eff593f4276e4f3b33994458cb3b1fca94014d186eb83253ae0400483045022100c170a90d91f9f0b1dad78c79c9c9719e82f2289721b45590451ca03573cfcf5902200d84a9128399de9ceda5b6aa805fabe3a56821b5b455c043f15d0e1c43dd2f690147304402207431014fa3a6fd6343702a786a329bc888b0feadbaa60033a1ee9f38714c3308022060b68445b2c9535543f646cdb498dbdc12954bd73451005ac5df004ed34bfd570169522103468438b501a8d3c0c4ec536fbd2cde29e6116455961d8bac904a53a7ec6bb7232103dee9666c567e25762b0df235d6ae8c88321e910300f9bb2b9d24e1e8fd872468210333b36f8c25886672db07d6ffc09b61b52eef26951b0c275d495b25b57b0ba86a53ae0400473044022013dc216f06f1bc5e50065a5c60d1fe388465f272bada4b017de811a8bebdb83e0220461244b45ada957605905b928be608dba726c3ad3838d30ab6256af473ace27001473044022048252be9991a0c9a2653d70a2ce9d3a54f937c362e283f11cecf6c53b3e9b95d02205494922c5f68495d3ddbaca84a0375bd0bb643f85da4eb1dcb2cad0cd5490fa401695221021c9d845eeca4ffaab797de5a1f468c00a3775ef8b2a7b61ed23cd0a45da623ad2103b4af9bcd6ed87d19e099dfb5b3a122662afe524f7cd3c00b5714bbe9405262b021036f7e8f49f8fd90f9d61a61210a21b7a4cab6315506855c25ccd4719645a33acc53ae04004830450221008e49d6311e4b69fc4d5f8cf3097d8db144c81b72710159cd468c89a7a20377d4022019b9b04488964065fbf42ebc9e6d48cf558d5617dca3bf109c6e3b963af82ea601473044022062264d8057826915feecace2ca98a0b721895c6697ce5a7683f69ece9a72063c02206676aa7174d2e6c0672a906371eb169ec8c536c0d4f99a68a1c5489f1600459e01695221039ee356f99d82b10900e57a118158cfab862c17c842c860262f9e9b134bcfbdaf21036464ad906b8f1e5b01f171fbc7d0f80f54c5d0695207dcac72b1be1042e098582103cc4fafa71cc0a20f881d4b3c4262b95fc1f2c1a8eab3122d30d6c5f8514d3a4653ae0400483045022100a52291b2f276bb0e28674c0a098f0c78311a9a75fb7a0191d047e1d118305c7d02202f1cc2906be36949145674e8ff45bd9353a5fc79dca4bcf87e04c239747d01b401473044022018ef08669b0273c9f898e5a78a47985830da9e49babc1dcca71eb40ce514aaab02205a9c635cf12af93396c251917d5384c066034cbf8a546a3eaf8f8e1d4f6d83da016952210288709c449cb9fc2cb0bbc5db37159eb20aa4f499fb1aae263c3ffb680df085482102c56ef630ebf48028a846b9e7c2f602aedba1477b4762406934f33e62842da26a2102208d3f7bd2a9076433f29e3165e5bc79ff0c9494ba0f455f31ff9bc66f825d6453ae0400483045022100b3b64f98fea6c4dec1ab302f90858ad35abce1d24e80e592be17ea14bcbea0090220193867a2c14cb30093fa0af65f194e49c5c947071696171a1b435cbfff66c66e0147304402201557c743332d5215c18427418655b11e0e4e5b49958471917dc2fed889ba3406022060de14bc4be327372d0acdcc5cff9ff90bcf3d83f41b984fee4693235a5941790169522103a0c36c77d9122a500f4f6b20e4d761241f162050f7a778857e96d68f01c7cf68210200d48938da51aa3a1613c3ac58dd8daaee483d3cb93c50be860f3d568b3eb6162103680ec2b0465e5c44ee62994fc50cc3b5e94c4631e42918bc12a22ae4efc11c9353ae040047304402201346eb5a1f66f789c2d315307098926fb05ec2969db2a8a0c2f7efee0a95a8920220309fdf847cb373a152d44bd5a909eef59114f6f0296d239c97b74d481d9a735b014730440220301809e4be934c01f7cd8ef12b08de6d54bd3a9af367c304451e40c0602d53910220605c4096990e3f2c170786c5e7b5202054f6b6fcfb04092301799f53e6fd1e640169522103ed4d5fb91c2f62a5a09c19ddf7174a99000b337ccd074b4764483aca8297e5562102bc9dbf9cb2582d178567d7668d7072363f9cf8b942a3e8ff9a8f4795e89180d821034be0675d839ed808064ce3511d05942ac1eceaf0880948f60b1e72135e87901653ae040047304402206285ca4cea04a083fe831b4816ee975249abb4f254864ed1776240eb465e8d1902204d3ff3c6664e4a35c95ab621e568b099e2e33e262390f324c9a2ac3497b702980147304402201e8054f2a8ff81d90c92de585167e02d051e0bb12de6c3eeaa448303094ad5500220467533cfbfc6dff8e9dd4928dbe5f145f08b4020e9fadec242e2fdc588e294270169522103c0cac06c98c97b03df55d0039ad8efa2597c28060ef9b1d2bd6bbdc5c4fdf5c42103c405fd4ada627c05f9f242de91983895119a6b721e80ad5251f20e482a1c910e2103f562a14cae17bcad8fc24d1d08fa904805bb7212fa1be69d0ea4fce0620a81d353ae040047304402204e29c630d022f54f6c9b83f0bc604dc910c2f1d4c1a4b025ec3e460276850ead02207a306edff9fc7d7b4278f447614bdb06ae9b641b9aba85f2184de7a9272fb581014730440220597c829595b17b3705535f4832006c0766abb7dc5439454b405208aa6fe7173202202f8395f3810359f1273d3a1e6dff81ed6d07ac5763014b8819afbd4146e1559701695221032744bb95e5bc8722c0d0b56c5dffedbbdb385945540215997041aacbf719257d2103e894319264c8a1b1c84d11325b129f97c3895855ff9d20d3c6fe1fd3ebe0515f210232d637f70ab565254c10d5d731ad7295ce2e57b238581dba385f833ffa40c15053ae04004830450221009e56a334ec2dc160c227de15b56450868a1196561f572a52da1768c685f52987022038891857673a46f081a30d45d449a9af2e08ba9db669624ff57ecba108941e8e01473044022078586802c3b2bddbe0309de8a53c50f653fb8b347966707c552adc540e82ea610220374d6a2f23947a8ae3336da732ca8e5427d5e939d85fc954638de2136f16bb6a016952210296d0b1352e1e3114bdb0a9da0f0eb01882fdd19896a588632cd7ef074af0e18c2103a6c881c8356ab0e23ac34f3e94b3c7d32b2e2fa35353207aafc2dd533434c4bb2102db54f40719f985cdcdff1236d0cdff7f6a30ac9257ee08e6ef14289f9931bfc753ae9abb0c00"
}