{
  "txid": "761020e1d5f93fcfe8cbaaf540cf0a5eaf5d7bc5d02d74690069ef43409803ae",
  "version": 2,
  "locktime": 0,
  "vin": [
    {
      "txid": "acc3ba00869acb582a3f2904ce3a11dd3779350ce234063fc7d0959246213364",
      "vout": 287,
      "prevout": {
        "scriptpubkey": "5120ebb4c5e40bb9fcbd1d99eb573240625434a6d9b8b56cc8edf662106de4d5eb14",
        "scriptpubkey_asm": "OP_PUSHNUM_1 OP_PUSHBYTES_32 ebb4c5e40bb9fcbd1d99eb573240625434a6d9b8b56cc8edf662106de4d5eb14",
        "scriptpubkey_type": "v1_p2tr",
        "scriptpubkey_address": "bc1paw6vteqth87t68veadtnysrz2s62dkdck4kv3m0kvggxmex4av2qqrelq9",
        "value": 1806
      },
      "scriptsig": "",
      "scriptsig_asm": "",
      "witness": [
        "a6288f0f8f514493833b1f2356856ccc195c1bef4fe12bcc269324993a8d777f50ec676b59554e7f19b10983dbd432600dab0aa1888b3dc1c3b35c7cf0e10350",
        "2095dce55063933437c85503dea179bf0d31fa494633b4e34dba30d97320b0b604ac0063036f726401010a746578742f706c61696e00357b2270223a226272632d3230222c226f70223a226d696e74222c227469636b223a22646f6765222c22616d74223a2234323030227d68",
        "c095dce55063933437c85503dea179bf0d31fa494633b4e34dba30d97320b0b604"
      ],
      "is_coinbase": false,
      "sequence": 4261412863
    }
  ],
  "vout": [
    {
      "scriptpubkey": "00147a665de7a370f4c9b372ab1fae587500a5bcbdb4",
      "scriptpubkey_asm": "OP_0 OP_PUSHBYTES_20 7a665de7a370f4c9b372ab1fae587500a5bcbdb4",
      "scriptpubkey_type": "v0_p2wpkh",
      "scriptpubkey_address": "bc1q0fn9mearwr6vnvmj4v06ukr4qzjme0d565dzcx",
      "value": 294
    }
  ],
  "size": 294,
  "weight": 540,
  "fee": 1512,
  "status": {
    "confirmed": true,
    "block_height": 834460,
    "block_hash": "00000000000000000000484a79b643b2524bbce82e5d8a442013fa5b8905ed98",
    "block_time": 1710307468
  },
  "hex": "02000000000101643321469295d0c73f0634e20c357937dd113ace04293f2a58cb9a8600bac3ac1f01000000fffffffd0126010000000000001600147a665de7a370f4c9b372ab1fae587500a5bcbdb40340a6288f0f8f514493833b1f2356856ccc195c1bef4fe12bcc269324993a8d777f50ec676b59554e7f19b10983dbd432600dab0aa1888b3dc1c3b35c7cf0e103506d2095dce55063933437c85503dea179bf0d31fa494633b4e34dba30d97320b0b604ac0063036f726401010a746578742f706c61696e00357b2270223a226272632d3230222c226f70223a226d696e74222c227469636b223a22646f6765222c22616d74223a2234323030227d6821c095dce55063933437c85503dea179bf0d31fa494633b4e34dba30d97320b0b60400000000"
}