{
  "txid": "76189824bee81d9616da50257d9dbcc8267edb91cbc23351fe5124dc724c0e12",
  "version": 1,
  "locktime": 0,
  "vin": [
    {
      "txid": "833a016d3f141782871ad3739e7d7c804a3b95fa4cdc8f8e3577f4b2e11436eb",
      "vout": 6,
      "prevout": {
        "scriptpubkey": "0014b257caed5ead4577d4a177fd116f69813f16116d",
        "scriptpubkey_asm": "OP_0 OP_PUSHBYTES_20 b257caed5ead4577d4a177fd116f69813f16116d",
        "scriptpubkey_type": "v0_p2wpkh",
        "scriptpubkey_address": "bc1qkftu4m2744zh049pwl73zmmfsyl3vytdmzcrkn",
        "value": 40472784
      },
      "scriptsig": "",
      "scriptsig_asm": "",
      "witness": [
        "3045022100f9e7aaf8d2017028303fe6752b8504866a91f6b680ae821837a1bab5e758697c022018a6979af7cc23a09cd7a67bd6c24d12d002287f69781354ccc030093a01fe3801",
        "02b18332bfe7ac0a089cf4e17bf0af47ecba1fc7cb5daa2ec0370d25267feb4b0a"
      ],
      "is_coinbase": false,
      "sequence": 4294967295
    }
  ],
  "vout": [
    {
      "scriptpubkey": "0014802d37b3dafe284ac282302b813cd89ed192cb53",
      "scriptpubkey_asm": "OP_0 OP_PUSHBYTES_20 802d37b3dafe284ac282302b813cd89ed192cb53",
      "scriptpubkey_type": "v0_p2wpkh",
      "scriptpubkey_address": "bc1qsqkn0v76lc5y4s5zxq4cz0xcnmge9j6nz8jxyk",
      "value": 1358907
    },
    {
      "scriptpubkey": "0014a943f703f28c4b1c778c3c36756bd9228a23f812",
      "scriptpubkey_asm": "OP_0 OP_PUSHBYTES_20 a943f703f28c4b1c778c3c36756bd9228a23f812",
      "scriptpubkey_type": "v0_p2wpkh",
      "scriptpubkey_address": "bc1q49plwqlj3393cauv8sm8267ey29z87qjay5fs9",
      "value": 135987
    },
    {
      "scriptpubkey": "76a91414ce2c79be1c4e818b17766d68557847a970ca3588ac",
      "scriptpubkey_asm": "OP_DUP OP_HASH160 OP_PUSHBYTES_20 14ce2c79be1c4e818b17766d68557847a970ca35 OP_EQUALVERIFY OP_CHECKSIG",
      "scriptpubkey_type": "p2pkh",
      "scriptpubkey_address": "12u1W3F9vnpcdXQznNjnyqyk2ZALD9jPhv",
      "value": 854769
    },
    {
      "scriptpubkey": "0014c19e2fd894b77eb198fe2177bb30ac744e8ac472",
      "scriptpubkey_asm": "OP_0 OP_PUSHBYTES_20 c19e2fd894b77eb198fe2177bb30ac744e8ac472",
      "scriptpubkey_type": "v0_p2wpkh",
      "scriptpubkey_address": "bc1qcx0zlky5kaltrx87y9mmkv9vw38g43rjwl3l79",
      "value": 384406
    },
    {
      "scriptpubkey": "00149e74fc0df58c5602cb7c48c6f2fbd8af59124dd2",
      "scriptpubkey_asm": "OP_0 OP_PUSHBYTES_20 9e74fc0df58c5602cb7c48c6f2fbd8af59124dd2",
      "scriptpubkey_type": "v0_p2wpkh",
      "scriptpubkey_address": "bc1qne60cr0433tq9jmufrr0977c4av3ynwj20tej5",
      "value": 7376647
    },
    {
      "scriptpubkey": "0014fc11b7119bfb8657944ace3b6f29fe9d7df13936",
      "scriptpubkey_asm": "OP_0 OP_PUSHBYTES_20 fc11b7119bfb8657944ace3b6f29fe9d7df13936",
      "scriptpubkey_type": "v0_p2wpkh",
      "scriptpubkey_address": "bc1qlsgmwyvmlwr909z2ecak7207n47lzwfkrvktpq",
      "value": 11171793
    },
    {
      "scriptpubkey": "001418d51baaeca8e8a46d12a8368bc13547c1a53460",
      "scriptpubkey_asm": "OP_0 OP_PUSHBYTES_20 18d51baaeca8e8a46d12a8368bc13547c1a53460",
      "scriptpubkey_type": "v0_p2wpkh",
      "scriptpubkey_address": "bc1qrr23h2hv4r52gmgj4qmghsf4glq62drqkq7zjs",
      "value": 15456
    },
    {
      "scriptpubkey": "00147b4b4369c4e81a99ca38ac5031f6828be7b2b282",
      "scriptpubkey_asm": "OP_0 OP_PUSHBYTES_20 7b4b4369c4e81a99ca38ac5031f6828be7b2b282",
      "scriptpubkey_type": "v0_p2wpkh",
      "scriptpubkey_address": "bc1q0d95x6wyaqdfnj3c43grra5z30nm9v5zcups8v",
      "value": 27196
    },
    {
      "scriptpubkey": "0014198d7b9b8aecc2965a3ad9d90d452bcf3f94029c",
      "scriptpubkey_asm": "OP_0 OP_PUSHBYTES_20 198d7b9b8aecc2965a3ad9d90d452bcf3f94029c",
      "scriptpubkey_type": "v0_p2wpkh",
      "scriptpubkey_address": "bc1qrxxhhxu2anpfvk36m8vs63fteulegq5ugt2nnt",
      "value": 39430
    },
    {
      "scriptpubkey": "0014a9399982570f9d76f7931ec5e1011555bc15198b",
      "scriptpubkey_asm": "OP_0 OP_PUSHBYTES_20 a9399982570f9d76f7931ec5e1011555bc15198b",
      "scriptpubkey_type": "v0_p2wpkh",
      "scriptpubkey_address": "bc1q4yuenqjhp7whdaunrmz7zqg42k7p2xvtw9vvnx",
      "value": 1683380
    },
    {
      "scriptpubkey": "0014a35bb424cd57ab865fca868f88178b135322752c",
      "scriptpubkey_asm": "OP_0 OP_PUSHBYTES_20 a35bb424cd57ab865fca868f88178b135322752c",
      "scriptpubkey_type": "v0_p2wpkh",
      "scriptpubkey_address": "bc1q5ddmgfxd274cvh72s68cs9utzdfjyafva3vssu",
      "value": 390631
    },
    {
      "scriptpubkey": "001426b8a46bb8cf6518ec6b7462969fdd272e020ae6",
      "scriptpubkey_asm": "OP_0 OP_PUSHBYTES_20 26b8a46bb8cf6518ec6b7462969fdd272e020ae6",
      "scriptpubkey_type": "v0_p2wpkh",
      "scriptpubkey_address": "bc1qy6u2g6aceaj33mrtw33fd87ayuhqyzhxemwtay",
      "value": 121220
    },
    {
      "scriptpubkey": "0014d7e07a7834b4a4d897cb246006c0a2f0f0f2b739",
      "scriptpubkey_asm": "OP_0 OP_PUSHBYTES_20 d7e07a7834b4a4d897cb246006c0a2f0f0f2b739",
      "scriptpubkey_type": "v0_p2wpkh",
      "scriptpubkey_address": "bc1q6ls857p5kjjd397ty3sqds9z7rc09deemrja4y",
      "value": 2096112
    },
    {
      "scriptpubkey": "0014b91b72ac445bceb1a8cb8e45dcd051c1136d5f27",
      "scriptpubkey_asm": "OP_0 OP_PUSHBYTES_20 b91b72ac445bceb1a8cb8e45dcd051c1136d5f27",
      "scriptpubkey_type": "v0_p2wpkh",
      "scriptpubkey_address": "bc1qhydh9tzyt08tr2xt3ezae5z3cyfk6he8uz3xsh",
      "value": 14261710
    },
    {
      "scriptpubkey": "a91475e18a8b8d83c9f1e644f7cf78c97007f2782bcc87",
      "scriptpubkey_asm": "OP_HASH160 OP_PUSHBYTES_20 75e18a8b8d83c9f1e644f7cf78c97007f2782bcc OP_EQUAL",
      "scriptpubkey_type": "p2sh",
      "scriptpubkey_address": "3CSKAs6xKdVVGGUNhHdRVn16NvLBrEQGjf",
      "value": 540347
    }
  ],
  "size": 630,
  "weight": 2190,
  "fee": 14793,
  "status": {
    "confirmed": true,
    "block_height": 834638,
    "block_hash": "000000000000000000025f742c626208ac87e0b7d15054abb4a19ca2d735a54e",
    "block_time": 1710405325
  },
  "hex": "01000000000101eb3614e1b2f477358e8fdc4cfa953b4a807c7d9e73d31a878217143f6d013a830600000000ffffffff0f3bbc140000000000160014802d37b3dafe284ac282302b813cd89ed192cb533313020000000000160014a943f703f28c4b1c778c3c36756bd9228a23f812f10a0d00000000001976a91414ce2c79be1c4e818b17766d68557847a970ca3588ac96dd050000000000160014c19e2fd894b77eb198fe2177bb30ac744e8ac472078f7000000000001600149e74fc0df58c5602cb7c48c6f2fbd8af59124dd2d177aa0000000000160014fc11b7119bfb8657944ace3b6f29fe9d7df13936603c00000000000016001418d51baaeca8e8a46d12a8368bc13547c1a534603c6a0000000000001600147b4b4369c4e81a99ca38ac5031f6828be7b2b282069a000000000000160014198d7b9b8aecc2965a3ad9d90d452bcf3f94029cb4af190000000000160014a9399982570f9d76f7931ec5e1011555bc15198be7f5050000000000160014a35bb424cd57ab865fca868f88178b135322752c84d901000000000016001426b8a46bb8cf6518ec6b7462969fdd272e020ae6f0fb1f0000000000160014d7e07a7834b4a4d897cb246006c0a2f0f0f2b739ce9dd90000000000160014b91b72ac445bceb1a8cb8e45dcd051c1136d5f27bb3e08000000000017a91475e18a8b8d83c9f1e644f7cf78c97007f2782bcc8702483045022100f9e7aaf8d2017028303fe6752b8504866a91f6b680ae821837a1bab5e758697c022018a6979af7cc23a09cd7a67bd6c24d12d002287f69781354ccc030093a01fe38012102b18332bfe7ac0a089cf4e17bf0af47ecba1fc7cb5daa2ec0370d25267feb4b0a00000000"
}