{
  "txid": "7618a3869f63171e9a5bd0faf2220385dedd10925e643bd5b59844cee442e169",
  "version": 1,
  "locktime": 0,
  "vin": [
    {
      "txid": "dcfdd63f3ca04d8bc2f71a98ebdbe742ee3e97359f4e1d2723b74b7bc9afb8d3",
      "vout": 1,
      "prevout": {
        "scriptpubkey": "0014a1ce5610ea39320e8a7395539f011197337407b9",
        "scriptpubkey_asm": "OP_0 OP_PUSHBYTES_20 a1ce5610ea39320e8a7395539f011197337407b9",
        "scriptpubkey_type": "v0_p2wpkh",
        "scriptpubkey_address": "bc1q5889vy828yeqaznnj4fe7qg3juehgpae68ac84",
        "value": 94038
      },
      "scriptsig": "",
      "scriptsig_asm": "",
      "witness": [
        "3044022074b5512faf5790b1f92ce6272dae3ce2c0ff04d37a8911842d985718aab3f2a902205e593645fc184b2b9ea3ed521073bef3a6dcf738fe588e8b6f644ca32d2c46dc01",
        "02e5efef74a6de0161d5013838902a09af447b846b1560b1b3a909534fb67f5780"
      ],
      "is_coinbase": false,
      "sequence": 4294967295
    }
  ],
  "vout": [
    {
      "scriptpubkey": "0014fe10a488d0f330e0417171b364da5457fe3d16f5",
      "scriptpubkey_asm": "OP_0 OP_PUSHBYTES_20 fe10a488d0f330e0417171b364da5457fe3d16f5",
      "scriptpubkey_type": "v0_p2wpkh",
      "scriptpubkey_address": "bc1qlcg2fzxs7vcwqst3wxekfkj52llr69h43zqsms",
      "value": 37400
    },
    {
      "scriptpubkey": "00147df5090574369ac0c244d990caaa506ee4972be0",
      "scriptpubkey_asm": "OP_0 OP_PUSHBYTES_20 7df5090574369ac0c244d990caaa506ee4972be0",
      "scriptpubkey_type": "v0_p2wpkh",
      "scriptpubkey_address": "bc1q0h6sjpt5x6dvpsjymxgv42jsdmjfw2lq99lqfw",
      "value": 55098
    }
  ],
  "size": 222,
  "weight": 561,
  "fee": 1540,
  "status": {
    "confirmed": true,
    "block_height": 834464,
    "block_hash": "0000000000000000000177a0869a911a2b65c9bdcd5a8bcb02b68f305bee848e",
    "block_time": 1710308296
  },
  "hex": "01000000000101d3b8afc97b4bb723271d4e9f35973eee42e7dbeb981af7c28b4da03c3fd6fddc0100000000ffffffff021892000000000000160014fe10a488d0f330e0417171b364da5457fe3d16f53ad70000000000001600147df5090574369ac0c244d990caaa506ee4972be002473044022074b5512faf5790b1f92ce6272dae3ce2c0ff04d37a8911842d985718aab3f2a902205e593645fc184b2b9ea3ed521073bef3a6dcf738fe588e8b6f644ca32d2c46dc012102e5efef74a6de0161d5013838902a09af447b846b1560b1b3a909534fb67f578000000000"
}