{
  "txid": "7622523495aaf2e35c50bedfb81e0f246c72d5d82452d3bbd8b70fa7bffec7da",
  "version": 2,
  "locktime": 834191,
  "vin": [
    {
      "txid": "086c05ab7741d05a5958c3e9e12594dd08cc8062fe75f51e3f0e8647e1035305",
      "vout": 1,
      "prevout": {
        "scriptpubkey": "001495a5829ce59461bb47b79f6b3b000e10ee0281ca",
        "scriptpubkey_asm": "OP_0 OP_PUSHBYTES_20 95a5829ce59461bb47b79f6b3b000e10ee0281ca",
        "scriptpubkey_type": "v0_p2wpkh",
        "scriptpubkey_address": "bc1qjkjc9889j3smk3ahna4nkqqwzrhq9qw2wzwsw3",
        "value": 12000
      },
      "scriptsig": "",
      "scriptsig_asm": "",
      "witness": [
        "3044022076d086c756ed2930d7b0992d0cb24f896f25ec580d542029e90b9b2136fd92b30220758b051fffb31f789e359f9d2b52b3891d1848e4bf00c685fe5efdc48da95c1101",
        "023e01465f8692f8a40cbd9bc3e26b5eb9bbdd7efb6c11e89fc295c7e134aaffa7"
      ],
      "is_coinbase": false,
      "sequence": 4294967293
    }
  ],
  "vout": [
    {
      "scriptpubkey": "0014ae464f33ec7f8b6fbde099dd2cb4de38095045d8",
      "scriptpubkey_asm": "OP_0 OP_PUSHBYTES_20 ae464f33ec7f8b6fbde099dd2cb4de38095045d8",
      "scriptpubkey_type": "v0_p2wpkh",
      "scriptpubkey_address": "bc1q4ery7vlv079kl00qn8wjedx78qy4q3wcz262l3",
      "value": 10790
    }
  ],
  "size": 191,
  "weight": 437,
  "fee": 1210,
  "status": {
    "confirmed": true,
    "block_height": 834464,
    "block_hash": "0000000000000000000177a0869a911a2b65c9bdcd5a8bcb02b68f305bee848e",
    "block_time": 1710308296
  },
  "hex": "02000000000101055303e147860e3f1ef575fe6280cc08dd9425e1e9c358595ad04177ab056c080100000000fdffffff01262a000000000000160014ae464f33ec7f8b6fbde099dd2cb4de38095045d802473044022076d086c756ed2930d7b0992d0cb24f896f25ec580d542029e90b9b2136fd92b30220758b051fffb31f789e359f9d2b52b3891d1848e4bf00c685fe5efdc48da95c110121023e01465f8692f8a40cbd9bc3e26b5eb9bbdd7efb6c11e89fc295c7e134aaffa78fba0c00"
}