{
  "txid": "7634aa031b3c851163bc7c70a8c82501f8359cfc2df08a9ae0635de3580d81e9",
  "version": 2,
  "locktime": 834458,
  "vin": [
    {
      "txid": "04ceb1d910c62e4f13548feaae81e192d0d44dfd51d4a7809f2ac0fd25596832",
      "vout": 1,
      "prevout": {
        "scriptpubkey": "00140161fc2f193d1cf652296e14b8cb4387c7f5bd91",
        "scriptpubkey_asm": "OP_0 OP_PUSHBYTES_20 0161fc2f193d1cf652296e14b8cb4387c7f5bd91",
        "scriptpubkey_type": "v0_p2wpkh",
        "scriptpubkey_address": "bc1qq9slctce85w0v53fdc2t3j6rslrlt0v3m700r9",
        "value": 6958300
      },
      "scriptsig": "",
      "scriptsig_asm": "",
      "witness": [
        "30440220609c496a311583b93b9a60401d9ead39f298d5f34eed99d5ab785543c08847a70220766ef08dd45b1065285542d33469d0ec2d5b8b10d254f4b59a01a803d6f68b4401",
        "0342f5a246fee7b67998e8740a5aac346e1d93960b6f9e9f7e06bbe4300a01d8d9"
      ],
      "is_coinbase": false,
      "sequence": 4294967293
    },
    {
      "txid": "131a6c5730e9a9fbee979e8c705da00e55b29ba3e88795ac1d067b17d57b82d5",
      "vout": 0,
      "prevout": {
        "scriptpubkey": "001485864d5e017a4b0352b3213bfe6afa07039af70a",
        "scriptpubkey_asm": "OP_0 OP_PUSHBYTES_20 85864d5e017a4b0352b3213bfe6afa07039af70a",
        "scriptpubkey_type": "v0_p2wpkh",
        "scriptpubkey_address": "bc1qskry6hsp0f9sx54nyyalu6h6qupe4ac20nhkxk",
        "value": 100000
      },
      "scriptsig": "",
      "scriptsig_asm": "",
      "witness": [
        "3044022074967e31b7b5185d3fcb185a38e2563b01d412ea0058a6f9c109622508154688022077e6d349c0cf67ab1ee0ca8749f4ec906073e4d8c9511f4b4d4f386d2099767801",
        "02066f158ee7b93b43a4b0f87a0a4c8616fd62c71e9fc98ce47fca086f70430ea5"
      ],
      "is_coinbase": false,
      "sequence": 4294967293
    },
    {
      "txid": "71acd444133006305a66f0f272d7c465104efd4c02072fc9516e6c5586bb5a9c",
      "vout": 28,
      "prevout": {
        "scriptpubkey": "0014ea35a8e33a97012836dcfa08d6ff5cfe05014b63",
        "scriptpubkey_asm": "OP_0 OP_PUSHBYTES_20 ea35a8e33a97012836dcfa08d6ff5cfe05014b63",
        "scriptpubkey_type": "v0_p2wpkh",
        "scriptpubkey_address": "bc1qag663ce6juqjsdkulgyddl6ulczszjmr5gwrtl",
        "value": 846931
      },
      "scriptsig": "",
      "scriptsig_asm": "",
      "witness": [
        "304402207112066e6499ad976ed6fea9d7bd8242fd9dcb4361b275753467cd4909e4650c0220272dee3e97b5bd4b3da2020577796ffd70c0574e2140ddd612e2f430bdb8b4bd01",
        "03c1be882c3523cd202cae9d08af631625354ef6ee7e465645cd94c8917421c4c0"
      ],
      "is_coinbase": false,
      "sequence": 4294967293
    },
    {
      "txid": "80254a4c237a1661afc1a5fc9c5e1d6b5c9b136cedf810ad03515e52b3bdc95f",
      "vout": 89,
      "prevout": {
        "scriptpubkey": "0014ea35a8e33a97012836dcfa08d6ff5cfe05014b63",
        "scriptpubkey_asm": "OP_0 OP_PUSHBYTES_20 ea35a8e33a97012836dcfa08d6ff5cfe05014b63",
        "scriptpubkey_type": "v0_p2wpkh",
        "scriptpubkey_address": "bc1qag663ce6juqjsdkulgyddl6ulczszjmr5gwrtl",
        "value": 1018687
      },
      "scriptsig": "",
      "scriptsig_asm": "",
      "witness": [
        "3044022060583c39fd22ec861a57ec7021db50cb0939c4945429cdb4e2f0380ff52fc2930220418bd7724e944234fd2c7c0b30d998d17e81bac1c226b8b0e4855bcbeb4ddd4e01",
        "03c1be882c3523cd202cae9d08af631625354ef6ee7e465645cd94c8917421c4c0"
      ],
      "is_coinbase": false,
      "sequence": 4294967293
    },
    {
      "txid": "8487da4744ae4963f20871ad2854afb0f51aafb4658e744b959eed163fe31cb7",
      "vout": 148,
      "prevout": {
        "scriptpubkey": "0014ea35a8e33a97012836dcfa08d6ff5cfe05014b63",
        "scriptpubkey_asm": "OP_0 OP_PUSHBYTES_20 ea35a8e33a97012836dcfa08d6ff5cfe05014b63",
        "scriptpubkey_type": "v0_p2wpkh",
        "scriptpubkey_address": "bc1qag663ce6juqjsdkulgyddl6ulczszjmr5gwrtl",
        "value": 1019903
      },
      "scriptsig": "",
      "scriptsig_asm": "",
      "witness": [
        "3044022028d716830c628200fbcd9a0af25b0fc3b1bae285c1b310ec47147be6df592ee10220681cc847d372882fd88459b65f0ad39b983ded56270c551b9d039d0602bf06cb01",
        "03c1be882c3523cd202cae9d08af631625354ef6ee7e465645cd94c8917421c4c0"
      ],
      "is_coinbase": false,
      "sequence": 4294967293
    },
    {
      "txid": "9c1ab51d3afe4a6b2d2ad02233aff9bb81ed399f13b7e1c95b19ebee71ff9fdc",
      "vout": 3,
      "prevout": {
        "scriptpubkey": "0014c09fed385383b5b5e9860ac8f68a772b869219db",
        "scriptpubkey_asm": "OP_0 OP_PUSHBYTES_20 c09fed385383b5b5e9860ac8f68a772b869219db",
        "scriptpubkey_type": "v0_p2wpkh",
        "scriptpubkey_address": "bc1qcz076wznsw6mt6vxpty0dznh9wrfyxwmcmmgv4",
        "value": 6975523
      },
      "scriptsig": "",
      "scriptsig_asm": "",
      "witness": [
        "3044022073765a56c2ba962657c4a8016f850e212ae3b1502ff8d74720327bc58c6468e202204578975eabff260da040d6b342318cf7180a526a09ce7ea9cd96439867634f3601",
        "025a36f76e84965a47a30c2c7e9fceb2afe806bc6e104ce043ece3e02cd0bb2309"
      ],
      "is_coinbase": false,
      "sequence": 4294967293
    },
    {
      "txid": "a911c4c851ddc81a1b55a0cf5bca18013a863884102cc18018df9074959778a8",
      "vout": 1,
      "prevout": {
        "scriptpubkey": "00143497d4bae51f0f6d84e99e06039059924ed024d1",
        "scriptpubkey_asm": "OP_0 OP_PUSHBYTES_20 3497d4bae51f0f6d84e99e06039059924ed024d1",
        "scriptpubkey_type": "v0_p2wpkh",
        "scriptpubkey_address": "bc1qxjtafwh9ru8kmp8fncrq8yzejf8dqfx308q5lk",
        "value": 2305900
      },
      "scriptsig": "",
      "scriptsig_asm": "",
      "witness": [
        "30440220588584dc978ac38e92a6e75adbcef2435ad98fee16032870e846dd94a02af991022059850ff9ad05e00b2416cbc7f7676d869fe9b1093790c944d23f4949bf9a6aaf01",
        "0284b6fdf2d6742ded9c4c48ffcd69914c06f901af9a349b7c55983f7df3a539f6"
      ],
      "is_coinbase": false,
      "sequence": 4294967293
    },
    {
      "txid": "c7874b24fb64ae3fbe69ec7b10783cf70c055b4d65838a98d4b33cf621b938ff",
      "vout": 78,
      "prevout": {
        "scriptpubkey": "0014ea35a8e33a97012836dcfa08d6ff5cfe05014b63",
        "scriptpubkey_asm": "OP_0 OP_PUSHBYTES_20 ea35a8e33a97012836dcfa08d6ff5cfe05014b63",
        "scriptpubkey_type": "v0_p2wpkh",
        "scriptpubkey_address": "bc1qag663ce6juqjsdkulgyddl6ulczszjmr5gwrtl",
        "value": 1009199
      },
      "scriptsig": "",
      "scriptsig_asm": "",
      "witness": [
        "304402206c30b7edfae0fcb55f0a4b57f46aaffc542f0bf654d3dbc6fab704fbc5ac4598022006dfe99d44867f11e6c9399859dac2d35eea699849219c56f43d7293c907856601",
        "03c1be882c3523cd202cae9d08af631625354ef6ee7e465645cd94c8917421c4c0"
      ],
      "is_coinbase": false,
      "sequence": 4294967293
    },
    {
      "txid": "d1b1e64584c7d631b68280e488cd02eca1b5d8f017899a86ca2769177276813b",
      "vout": 66,
      "prevout": {
        "scriptpubkey": "0014ea35a8e33a97012836dcfa08d6ff5cfe05014b63",
        "scriptpubkey_asm": "OP_0 OP_PUSHBYTES_20 ea35a8e33a97012836dcfa08d6ff5cfe05014b63",
        "scriptpubkey_type": "v0_p2wpkh",
        "scriptpubkey_address": "bc1qag663ce6juqjsdkulgyddl6ulczszjmr5gwrtl",
        "value": 1013589
      },
      "scriptsig": "",
      "scriptsig_asm": "",
      "witness": [
        "30440220121e6f171e61f4b61a8bb0604dafa1102f95a5d54d35f5b5c443b1ebbeafb2b202205f257cb0f5d3bde737335eb887b243fe120865bacdac6d41b7e235c3025e01b001",
        "03c1be882c3523cd202cae9d08af631625354ef6ee7e465645cd94c8917421c4c0"
      ],
      "is_coinbase": false,
      "sequence": 4294967293
    }
  ],
  "vout": [
    {
      "scriptpubkey": "a9147c72e6e6bad36fa02e5e6077c595aca3a820c88e87",
      "scriptpubkey_asm": "OP_HASH160 OP_PUSHBYTES_20 7c72e6e6bad36fa02e5e6077c595aca3a820c88e OP_EQUAL",
      "scriptpubkey_type": "p2sh",
      "scriptpubkey_address": "3D33Mrm3zQppbmD7bNzChp93woPqo2czpu",
      "value": 21239517
    }
  ],
  "size": 1376,
  "weight": 2609,
  "fee": 8515,
  "status": {
    "confirmed": true,
    "block_height": 834460,
    "block_hash": "00000000000000000000484a79b643b2524bbce82e5d8a442013fa5b8905ed98",
    "block_time": 1710307468
  },
  "hex": "0200000000010932685925fdc02a9f80a7d451fd4dd4d092e181aeea8f54134f2ec610d9b1ce040100000000fdffffffd5827bd5177b061dac9587e8a39bb2550ea05d708c9e97eefba9e930576c1a130000000000fdffffff9c5abb86556c6e51c92f07024cfd4e1065c4d772f2f0665a3006301344d4ac711c00000000fdffffff5fc9bdb3525e5103ad10f8ed6c139b5c6b1d5e9cfca5c1af61167a234c4a25805900000000fdffffffb71ce33f16ed9e954b748e65b4af1af5b0af5428ad7108f26349ae4447da87849400000000fdffffffdc9fff71eeeb195bc9e1b7139f39ed81bbf9af3322d02a2d6b4afe3a1db51a9c0300000000fdffffffa87897957490df1880c12c108438863a0118ca5bcfa0551b1ac8dd51c8c411a90100000000fdffffffff38b921f63cb3d4988a83654d5b050cf73c78107bec69be3fae64fb244b87c74e00000000fdffffff3b817672176927ca869a8917f0d8b5a1ec02cd88e48082b631d6c78445e6b1d14200000000fdffffff01dd1644010000000017a9147c72e6e6bad36fa02e5e6077c595aca3a820c88e87024730440220609c496a311583b93b9a60401d9ead39f298d5f34eed99d5ab785543c08847a70220766ef08dd45b1065285542d33469d0ec2d5b8b10d254f4b59a01a803d6f68b4401210342f5a246fee7b67998e8740a5aac346e1d93960b6f9e9f7e06bbe4300a01d8d902473044022074967e31b7b5185d3fcb185a38e2563b01d412ea0058a6f9c109622508154688022077e6d349c0cf67ab1ee0ca8749f4ec906073e4d8c9511f4b4d4f386d20997678012102066f158ee7b93b43a4b0f87a0a4c8616fd62c71e9fc98ce47fca086f70430ea50247304402207112066e6499ad976ed6fea9d7bd8242fd9dcb4361b275753467cd4909e4650c0220272dee3e97b5bd4b3da2020577796ffd70c0574e2140ddd612e2f430bdb8b4bd012103c1be882c3523cd202cae9d08af631625354ef6ee7e465645cd94c8917421c4c002473044022060583c39fd22ec861a57ec7021db50cb0939c4945429cdb4e2f0380ff52fc2930220418bd7724e944234fd2c7c0b30d998d17e81bac1c226b8b0e4855bcbeb4ddd4e012103c1be882c3523cd202cae9d08af631625354ef6ee7e465645cd94c8917421c4c002473044022028d716830c628200fbcd9a0af25b0fc3b1bae285c1b310ec47147be6df592ee10220681cc847d372882fd88459b65f0ad39b983ded56270c551b9d039d0602bf06cb012103c1be882c3523cd202cae9d08af631625354ef6ee7e465645cd94c8917421c4c002473044022073765a56c2ba962657c4a8016f850e212ae3b1502ff8d74720327bc58c6468e202204578975eabff260da040d6b342318cf7180a526a09ce7ea9cd96439867634f360121025a36f76e84965a47a30c2c7e9fceb2afe806bc6e104ce043ece3e02cd0bb2309024730440220588584dc978ac38e92a6e75adbcef2435ad98fee16032870e846dd94a02af991022059850ff9ad05e00b2416cbc7f7676d869fe9b1093790c944d23f4949bf9a6aaf01210284b6fdf2d6742ded9c4c48ffcd69914c06f901af9a349b7c55983f7df3a539f60247304402206c30b7edfae0fcb55f0a4b57f46aaffc542f0bf654d3dbc6fab704fbc5ac4598022006dfe99d44867f11e6c9399859dac2d35eea699849219c56f43d7293c9078566012103c1be882c3523cd202cae9d08af631625354ef6ee7e465645cd94c8917421c4c0024730440220121e6f171e61f4b61a8bb0604dafa1102f95a5d54d35f5b5c443b1ebbeafb2b202205f257cb0f5d3bde737335eb887b243fe120865bacdac6d41b7e235c3025e01b0012103c1be882c3523cd202cae9d08af631625354ef6ee7e465645cd94c8917421c4c09abb0c00"
}