{
  "txid": "765bba9b3f1c0475c296307849ecac8c2b82a6c84c1f8571d167845b453bf7cb",
  "version": 2,
  "locktime": 834424,
  "vin": [
    {
      "txid": "73a0ece79d2c912848acf5895ab3303e93f8a0df918c818e3b0bde5cacca30a2",
      "vout": 164,
      "prevout": {
        "scriptpubkey": "0020ddf5d1ff9e7bbb48d2575ded9718a6b009a9ffeb7c2dd55c9ce0ec668c6f9051",
        "scriptpubkey_asm": "OP_0 OP_PUSHBYTES_32 ddf5d1ff9e7bbb48d2575ded9718a6b009a9ffeb7c2dd55c9ce0ec668c6f9051",
        "scriptpubkey_type": "v0_p2wsh",
        "scriptpubkey_address": "bc1qmh6arlu70wa535jhthkewx9xkqy6nllt0ska2hyuurkxdrr0jpgsee28rl",
        "value": 35210
      },
      "scriptsig": "",
      "scriptsig_asm": "",
      "witness": [
        "",
        "3044022055a882df77f6b859ef16032d342ad9e124784f8dcc247ba793ae40a4287d148f022032a71b09474644ce7acf5713733f3c159cf13d3593418b6ef63645979c3ffdde01",
        "304402200cd679d85f2470eff296fea1cbcce68ec68d31b3c8321a22cdf4d4e6e5f0870b0220369ac7eeeef19f499557270ac9417f0bb8bed7e9a7942db22fdd134f5aea90ad01",
        "52210226a3a8b4a50a403fc31ba1e23cc3acbe1ea091b5c50a79977f67e692ca6220de21039f43d88fef152e3fdbf42ed398f65ed3dcaf5836df9b010e0ec68fcd8288978c2103c012cb4f2b05ed61367ee8f185b66573b40cb98d3a9b6e3f0cd9400acb21054d53ae"
      ],
      "is_coinbase": false,
      "sequence": 4294967293,
      "inner_witnessscript_asm": "OP_PUSHNUM_2 OP_PUSHBYTES_33 0226a3a8b4a50a403fc31ba1e23cc3acbe1ea091b5c50a79977f67e692ca6220de OP_PUSHBYTES_33 039f43d88fef152e3fdbf42ed398f65ed3dcaf5836df9b010e0ec68fcd8288978c OP_PUSHBYTES_33 03c012cb4f2b05ed61367ee8f185b66573b40cb98d3a9b6e3f0cd9400acb21054d OP_PUSHNUM_3 OP_CHECKMULTISIG"
    }
  ],
  "vout": [
    {
      "scriptpubkey": "0014e06b6148483f89ba22f1c93afe889f6e5b3a449b",
      "scriptpubkey_asm": "OP_0 OP_PUSHBYTES_20 e06b6148483f89ba22f1c93afe889f6e5b3a449b",
      "scriptpubkey_type": "v0_p2wpkh",
      "scriptpubkey_address": "bc1qup4kzjzg87ym5gh3eya0azyldedn53ymf89gnl",
      "value": 33604
    }
  ],
  "size": 336,
  "weight": 582,
  "fee": 1606,
  "status": {
    "confirmed": true,
    "block_height": 834464,
    "block_hash": "0000000000000000000177a0869a911a2b65c9bdcd5a8bcb02b68f305bee848e",
    "block_time": 1710308296
  },
  "hex": "02000000000101a230caac5cde0b3b8e818c91dfa0f8933e30b35a89f5ac4828912c9de7eca073a400000000fdffffff014483000000000000160014e06b6148483f89ba22f1c93afe889f6e5b3a449b0400473044022055a882df77f6b859ef16032d342ad9e124784f8dcc247ba793ae40a4287d148f022032a71b09474644ce7acf5713733f3c159cf13d3593418b6ef63645979c3ffdde0147304402200cd679d85f2470eff296fea1cbcce68ec68d31b3c8321a22cdf4d4e6e5f0870b0220369ac7eeeef19f499557270ac9417f0bb8bed7e9a7942db22fdd134f5aea90ad016952210226a3a8b4a50a403fc31ba1e23cc3acbe1ea091b5c50a79977f67e692ca6220de21039f43d88fef152e3fdbf42ed398f65ed3dcaf5836df9b010e0ec68fcd8288978c2103c012cb4f2b05ed61367ee8f185b66573b40cb98d3a9b6e3f0cd9400acb21054d53ae78bb0c00"
}