{
  "txid": "7664930facf6ef1b1c45356f31feeaaeca1254196fd8e6f242a18811afb5af21",
  "version": 1,
  "locktime": 0,
  "vin": [
    {
      "txid": "5fbc7dc6e5f045fe1ee120a758c151dd85dd41ab228568d460623fe0d1bd2f63",
      "vout": 5,
      "prevout": {
        "scriptpubkey": "00209c44880bb09d321235680947e9e42be87e7450a9360f7a11d5390e3791b15207",
        "scriptpubkey_asm": "OP_0 OP_PUSHBYTES_32 9c44880bb09d321235680947e9e42be87e7450a9360f7a11d5390e3791b15207",
        "scriptpubkey_type": "v0_p2wsh",
        "scriptpubkey_address": "bc1qn3zgszasn5epydtgp9r7neptapl8g59fxc8h5yw48y8r0yd32grskn8lps",
        "value": 6758928
      },
      "scriptsig": "",
      "scriptsig_asm": "",
      "witness": [
        "",
        "304502210097047ce0ea55126844ec6d328e51bfab3ab322f6e7dbd87003e4cc7d2ba718ed0220740cbf1aa00bbad030e721ff769f867e48b1801dd18cd2874e2ccb4fa393a80c01",
        "30440220123c447b7cf0103490b22285a7b51b486b3dce19d2ba2ddeebb3910586367aff022013e511b14b281daa08bd24a1d3caca4b50270d603fa8c48e0d724273e976330e01",
        "522103d8daf6e34ea42952e8e2eab00ae03882614815d87697cff47054b653c455f77a2103f50ae792340d31f8efd839868f4a8307822e25ade2f78410ee6036d0b04f9bea2103c1bb0a0b08b0da22df09fc894bf619855c3bc634060e147fd8026812bef0fb2f53ae"
      ],
      "is_coinbase": false,
      "sequence": 4294967295,
      "inner_witnessscript_asm": "OP_PUSHNUM_2 OP_PUSHBYTES_33 03d8daf6e34ea42952e8e2eab00ae03882614815d87697cff47054b653c455f77a OP_PUSHBYTES_33 03f50ae792340d31f8efd839868f4a8307822e25ade2f78410ee6036d0b04f9bea OP_PUSHBYTES_33 03c1bb0a0b08b0da22df09fc894bf619855c3bc634060e147fd8026812bef0fb2f OP_PUSHNUM_3 OP_CHECKMULTISIG"
    }
  ],
  "vout": [
    {
      "scriptpubkey": "00143982533d98c75fc0ceb73c0df6bdff341556ba50",
      "scriptpubkey_asm": "OP_0 OP_PUSHBYTES_20 3982533d98c75fc0ceb73c0df6bdff341556ba50",
      "scriptpubkey_type": "v0_p2wpkh",
      "scriptpubkey_address": "bc1q8xp9x0vcca0upn4h8sxld00lxs24dwjs3qmw6n",
      "value": 26023
    },
    {
      "scriptpubkey": "00141921115e75a1bebb9327862ae79d6b3f61644c05",
      "scriptpubkey_asm": "OP_0 OP_PUSHBYTES_20 1921115e75a1bebb9327862ae79d6b3f61644c05",
      "scriptpubkey_type": "v0_p2wpkh",
      "scriptpubkey_address": "bc1qrys3zhn45xlthye8sc4w08tt8askgnq9eup3g2",
      "value": 32747
    },
    {
      "scriptpubkey": "001436df255e1a88d73c13143098e7ed9aefebd25ccc",
      "scriptpubkey_asm": "OP_0 OP_PUSHBYTES_20 36df255e1a88d73c13143098e7ed9aefebd25ccc",
      "scriptpubkey_type": "v0_p2wpkh",
      "scriptpubkey_address": "bc1qxm0j2hs63rtncyc5xzvw0mv6al4ayhxvxnlcjv",
      "value": 33171
    },
    {
      "scriptpubkey": "0014420945d9438923eebfd0c2ded8ba6336680b276b",
      "scriptpubkey_asm": "OP_0 OP_PUSHBYTES_20 420945d9438923eebfd0c2ded8ba6336680b276b",
      "scriptpubkey_type": "v0_p2wpkh",
      "scriptpubkey_address": "bc1qggy5tk2r3y37a07sct0d3wnrxe5qkfmtt8cydj",
      "value": 37175
    },
    {
      "scriptpubkey": "00144c526053ea59ed2cb0050a281ac63e7365130ef2",
      "scriptpubkey_asm": "OP_0 OP_PUSHBYTES_20 4c526053ea59ed2cb0050a281ac63e7365130ef2",
      "scriptpubkey_type": "v0_p2wpkh",
      "scriptpubkey_address": "bc1qf3fxq5l2t8kjevq9pg5p4337wdj3xrhjjh9g2g",
      "value": 37882
    },
    {
      "scriptpubkey": "0020cdd4c38966813ab3912f4ef39eb9cedacc5da1fab62cd1e0824c9686de878e1c",
      "scriptpubkey_asm": "OP_0 OP_PUSHBYTES_32 cdd4c38966813ab3912f4ef39eb9cedacc5da1fab62cd1e0824c9686de878e1c",
      "scriptpubkey_type": "v0_p2wsh",
      "scriptpubkey_address": "bc1qeh2v8ztxsyat8yf0fmeeawwwmtx9mg06kckdrcyzfjtgdh583cwqek74j9",
      "value": 6579067
    }
  ],
  "size": 504,
  "weight": 1251,
  "fee": 12863,
  "status": {
    "confirmed": true,
    "block_height": 834638,
    "block_hash": "000000000000000000025f742c626208ac87e0b7d15054abb4a19ca2d735a54e",
    "block_time": 1710405325
  },
  "hex": "01000000000101632fbdd1e03f6260d4688522ab41dd85dd51c158a720e11efe45f0e5c67dbc5f0500000000ffffffff06a7650000000000001600143982533d98c75fc0ceb73c0df6bdff341556ba50eb7f0000000000001600141921115e75a1bebb9327862ae79d6b3f61644c05938100000000000016001436df255e1a88d73c13143098e7ed9aefebd25ccc3791000000000000160014420945d9438923eebfd0c2ded8ba6336680b276bfa930000000000001600144c526053ea59ed2cb0050a281ac63e7365130ef27b63640000000000220020cdd4c38966813ab3912f4ef39eb9cedacc5da1fab62cd1e0824c9686de878e1c040048304502210097047ce0ea55126844ec6d328e51bfab3ab322f6e7dbd87003e4cc7d2ba718ed0220740cbf1aa00bbad030e721ff769f867e48b1801dd18cd2874e2ccb4fa393a80c014730440220123c447b7cf0103490b22285a7b51b486b3dce19d2ba2ddeebb3910586367aff022013e511b14b281daa08bd24a1d3caca4b50270d603fa8c48e0d724273e976330e0169522103d8daf6e34ea42952e8e2eab00ae03882614815d87697cff47054b653c455f77a2103f50ae792340d31f8efd839868f4a8307822e25ade2f78410ee6036d0b04f9bea2103c1bb0a0b08b0da22df09fc894bf619855c3bc634060e147fd8026812bef0fb2f53ae00000000"
}