{
  "txid": "767b85b0f4eb55d9a6d1459a63dfbe482298357d737b9e295b18b22f05951948",
  "version": 2,
  "locktime": 0,
  "vin": [
    {
      "txid": "517a368c1b9ce645b04c7804b5d7158a8c4f7facc34745c6378612b6f64743b2",
      "vout": 1,
      "prevout": {
        "scriptpubkey": "512044676717c3d1ade859d2ca1ef30a4f8db891096a9789d4fac4547fb7acc374fa",
        "scriptpubkey_asm": "OP_PUSHNUM_1 OP_PUSHBYTES_32 44676717c3d1ade859d2ca1ef30a4f8db891096a9789d4fac4547fb7acc374fa",
        "scriptpubkey_type": "v1_p2tr",
        "scriptpubkey_address": "bc1pg3nkw97r6xk7skwjeg00xzj03kufzzt2j7yaf7ky23lm0txrwnaqk2dtur",
        "value": 1717199
      },
      "scriptsig": "",
      "scriptsig_asm": "",
      "witness": [
        "a42f314f1ca74ff3bda4ace5ac4ddf1a586434bce256c2b3ea9872bddbace3a5bb555c45777c5ac75207a439bcd84d87d671e7d63ef118cd45bd506e59569a20"
      ],
      "is_coinbase": false,
      "sequence": 4294967293
    }
  ],
  "vout": [
    {
      "scriptpubkey": "5120912427ce7dcceb7c0667ed947b2df25e6ffff94e77c0c3cbd9d9f477b5800cef",
      "scriptpubkey_asm": "OP_PUSHNUM_1 OP_PUSHBYTES_32 912427ce7dcceb7c0667ed947b2df25e6ffff94e77c0c3cbd9d9f477b5800cef",
      "scriptpubkey_type": "v1_p2tr",
      "scriptpubkey_address": "bc1pjyjz0nnaen4hcpn8ak28kt0jtehll72wwlqv8j7em8680dvqpnhskt2nny",
      "value": 2962
    },
    {
      "scriptpubkey": "512044676717c3d1ade859d2ca1ef30a4f8db891096a9789d4fac4547fb7acc374fa",
      "scriptpubkey_asm": "OP_PUSHNUM_1 OP_PUSHBYTES_32 44676717c3d1ade859d2ca1ef30a4f8db891096a9789d4fac4547fb7acc374fa",
      "scriptpubkey_type": "v1_p2tr",
      "scriptpubkey_address": "bc1pg3nkw97r6xk7skwjeg00xzj03kufzzt2j7yaf7ky23lm0txrwnaqk2dtur",
      "value": 1711773
    }
  ],
  "size": 205,
  "weight": 616,
  "fee": 2464,
  "status": {
    "confirmed": true,
    "block_height": 834638,
    "block_hash": "000000000000000000025f742c626208ac87e0b7d15054abb4a19ca2d735a54e",
    "block_time": 1710405325
  },
  "hex": "02000000000101b24347f6b6128637c64547c3ac7f4f8c8a15d7b504784cb045e69c1b8c367a510100000000fdffffff02920b000000000000225120912427ce7dcceb7c0667ed947b2df25e6ffff94e77c0c3cbd9d9f477b5800cef9d1e1a000000000022512044676717c3d1ade859d2ca1ef30a4f8db891096a9789d4fac4547fb7acc374fa0140a42f314f1ca74ff3bda4ace5ac4ddf1a586434bce256c2b3ea9872bddbace3a5bb555c45777c5ac75207a439bcd84d87d671e7d63ef118cd45bd506e59569a2000000000"
}