{
  "txid": "768168b8b056017599f1532bc86c9ac482699f7796f43d096ea329825ed91c5d",
  "version": 2,
  "locktime": 0,
  "vin": [
    {
      "txid": "6c0283d6cdb921712848299169e1907742429908dca0c4a10a9303e930c63675",
      "vout": 1,
      "prevout": {
        "scriptpubkey": "001497853033ab8335113de454e209ae42f9e5389d89",
        "scriptpubkey_asm": "OP_0 OP_PUSHBYTES_20 97853033ab8335113de454e209ae42f9e5389d89",
        "scriptpubkey_type": "v0_p2wpkh",
        "scriptpubkey_address": "bc1qj7znqvatsv63z00y2n3qntjzl8jn38vfdhcxh2",
        "value": 162009
      },
      "scriptsig": "",
      "scriptsig_asm": "",
      "witness": [
        "304402207be4a9a4f12ae5bd837220c4ace12311f9a9aa0b963122041cdad68891f925660220267b1449ed6dfd9b65d16e62cd942f4d5a96ab5e7aec2fbf00e3da822539c50101",
        "02576b0489f48ca7a72edc9d97ef0bd592a1b9b46313672109284929536ac3b30e"
      ],
      "is_coinbase": false,
      "sequence": 4294967295
    }
  ],
  "vout": [
    {
      "scriptpubkey": "a9142855ba5a60519f8abbf82f7da5304bdc9884e5fd87",
      "scriptpubkey_asm": "OP_HASH160 OP_PUSHBYTES_20 2855ba5a60519f8abbf82f7da5304bdc9884e5fd OP_EQUAL",
      "scriptpubkey_type": "p2sh",
      "scriptpubkey_address": "35NHehUvXyUizcCPU5FgCBX58YBLJ5iJ2S",
      "value": 72402
    },
    {
      "scriptpubkey": "00149c628aaca2a3bd3373ebfdc29b33ca816d23094e",
      "scriptpubkey_asm": "OP_0 OP_PUSHBYTES_20 9c628aaca2a3bd3373ebfdc29b33ca816d23094e",
      "scriptpubkey_type": "v0_p2wpkh",
      "scriptpubkey_address": "bc1qn33g4t9z5w7nxultlhpfkv72s9kjxz2wksp96r",
      "value": 88070
    }
  ],
  "size": 223,
  "weight": 565,
  "fee": 1537,
  "status": {
    "confirmed": true,
    "block_height": 834464,
    "block_hash": "0000000000000000000177a0869a911a2b65c9bdcd5a8bcb02b68f305bee848e",
    "block_time": 1710308296
  },
  "hex": "020000000001017536c630e903930aa1c4a0dc089942427790e169912948287121b9cdd683026c0100000000ffffffff02d21a01000000000017a9142855ba5a60519f8abbf82f7da5304bdc9884e5fd8706580100000000001600149c628aaca2a3bd3373ebfdc29b33ca816d23094e0247304402207be4a9a4f12ae5bd837220c4ace12311f9a9aa0b963122041cdad68891f925660220267b1449ed6dfd9b65d16e62cd942f4d5a96ab5e7aec2fbf00e3da822539c501012102576b0489f48ca7a72edc9d97ef0bd592a1b9b46313672109284929536ac3b30e00000000"
}