{
  "txid": "768c2cb98f4b4bcecaedf48cf9f53e88e8194cb8e05fb0743be5b95ae88aaa13",
  "version": 1,
  "locktime": 0,
  "vin": [
    {
      "txid": "510e3cbb988878ebe94f357c2d340d7e00ea0c421de63afb0de26eac23651eb1",
      "vout": 0,
      "prevout": {
        "scriptpubkey": "51202362cb0b01af3f0c515b05534e4cb15d444ccf1b8d4048c9c3106230242350fc",
        "scriptpubkey_asm": "OP_PUSHNUM_1 OP_PUSHBYTES_32 2362cb0b01af3f0c515b05534e4cb15d444ccf1b8d4048c9c3106230242350fc",
        "scriptpubkey_type": "v1_p2tr",
        "scriptpubkey_address": "bc1pyd3vkzcp4ulsc52mq4f5un93t4zyencm34qy3jwrzp3rqfpr2r7qtrv4h7",
        "value": 2254517
      },
      "scriptsig": "",
      "scriptsig_asm": "",
      "witness": [
        "9973f673af0d7a756d97667476afbe34abf7a38aa631a4c77449cdca2712e3e70c261130fb369db545ab5400f5915e82fb93bfc2fa9b858d16168a3c59bcfa8201"
      ],
      "is_coinbase": false,
      "sequence": 4294967295
    }
  ],
  "vout": [
    {
      "scriptpubkey": "512020737624345c392856559b1bf717adbc83cbd77c175b2ea109cf7aa2f25e8a62",
      "scriptpubkey_asm": "OP_PUSHNUM_1 OP_PUSHBYTES_32 20737624345c392856559b1bf717adbc83cbd77c175b2ea109cf7aa2f25e8a62",
      "scriptpubkey_type": "v1_p2tr",
      "scriptpubkey_address": "bc1pypehvfp5tsujs4j4nvdlw9adhjpuh4muzadjaggfeaa29uj73f3qvtpupa",
      "value": 2150791
    },
    {
      "scriptpubkey": "00207463de2b04c50283a94d461159910eff20c72bc19cf67dce8c21466a3b45d05e",
      "scriptpubkey_asm": "OP_0 OP_PUSHBYTES_32 7463de2b04c50283a94d461159910eff20c72bc19cf67dce8c21466a3b45d05e",
      "scriptpubkey_type": "v0_p2wsh",
      "scriptpubkey_address": "bc1qw33au2cyc5pg822dgcg4nygwlusvw27pnnm8mn5vy9rx5w696p0qu3mfvq",
      "value": 101496
    }
  ],
  "size": 206,
  "weight": 617,
  "fee": 2230,
  "status": {
    "confirmed": true,
    "block_height": 834552,
    "block_hash": "00000000000000000001dd0468a70c94f619251d286585cff57aeb4bd9ede330",
    "block_time": 1710355598
  },
  "hex": "01000000000101b11e6523ac6ee20dfb3ae61d420cea007e0d342d7c354fe9eb788898bb3c0e510000000000ffffffff0287d120000000000022512020737624345c392856559b1bf717adbc83cbd77c175b2ea109cf7aa2f25e8a62788c0100000000002200207463de2b04c50283a94d461159910eff20c72bc19cf67dce8c21466a3b45d05e01419973f673af0d7a756d97667476afbe34abf7a38aa631a4c77449cdca2712e3e70c261130fb369db545ab5400f5915e82fb93bfc2fa9b858d16168a3c59bcfa820100000000"
}