{
  "txid": "769381ab213bcbe6778f4a54e9fe7cb7f713ee9e79c7df9d413f89d1db0a45e4",
  "version": 2,
  "locktime": 0,
  "vin": [
    {
      "txid": "29e22c75bf51771b6857d4604618a1ed1a04fb2f43513e2ce244705fbbd4bf6f",
      "vout": 1,
      "prevout": {
        "scriptpubkey": "51205af96cf1534b404a274f6b9248afad6c2adca7b6f4e4f72d1075a2b0a05b5e74",
        "scriptpubkey_asm": "OP_PUSHNUM_1 OP_PUSHBYTES_32 5af96cf1534b404a274f6b9248afad6c2adca7b6f4e4f72d1075a2b0a05b5e74",
        "scriptpubkey_type": "v1_p2tr",
        "scriptpubkey_address": "bc1pttukeu2nfdqy5f60dwfy3tadds4defak7nj0wtgswk3tpgzmte6qeh0rvp",
        "value": 450808
      },
      "scriptsig": "",
      "scriptsig_asm": "",
      "witness": [
        "db4f22d9a01b978094e153485d8526723a9f281acddf8a477f5bfaa3268729ea82c1f6fc5ad13538ec319dfcf7f429014b2eeeeb6ab5df0207a2516e830ef7a8"
      ],
      "is_coinbase": false,
      "sequence": 4294967295
    }
  ],
  "vout": [
    {
      "scriptpubkey": "51202460686311ba80925106f1e06967949decb6ae1851f0ca44d3a947e907d88cbc",
      "scriptpubkey_asm": "OP_PUSHNUM_1 OP_PUSHBYTES_32 2460686311ba80925106f1e06967949decb6ae1851f0ca44d3a947e907d88cbc",
      "scriptpubkey_type": "v1_p2tr",
      "scriptpubkey_address": "bc1py3sxscc3h2qfy5gx78sxjeu5nhktdtsc28cv53xn49r7jp7c3j7qxjyfld",
      "value": 4000
    },
    {
      "scriptpubkey": "51205af96cf1534b404a274f6b9248afad6c2adca7b6f4e4f72d1075a2b0a05b5e74",
      "scriptpubkey_asm": "OP_PUSHNUM_1 OP_PUSHBYTES_32 5af96cf1534b404a274f6b9248afad6c2adca7b6f4e4f72d1075a2b0a05b5e74",
      "scriptpubkey_type": "v1_p2tr",
      "scriptpubkey_address": "bc1pttukeu2nfdqy5f60dwfy3tadds4defak7nj0wtgswk3tpgzmte6qeh0rvp",
      "value": 444806
    }
  ],
  "size": 205,
  "weight": 616,
  "fee": 2002,
  "status": {
    "confirmed": true,
    "block_height": 834460,
    "block_hash": "00000000000000000000484a79b643b2524bbce82e5d8a442013fa5b8905ed98",
    "block_time": 1710307468
  },
  "hex": "020000000001016fbfd4bb5f7044e22c3e51432ffb041aeda1184660d457681b7751bf752ce2290100000000ffffffff02a00f0000000000002251202460686311ba80925106f1e06967949decb6ae1851f0ca44d3a947e907d88cbc86c90600000000002251205af96cf1534b404a274f6b9248afad6c2adca7b6f4e4f72d1075a2b0a05b5e740140db4f22d9a01b978094e153485d8526723a9f281acddf8a477f5bfaa3268729ea82c1f6fc5ad13538ec319dfcf7f429014b2eeeeb6ab5df0207a2516e830ef7a800000000"
}