{
  "txid": "76b1733bb1f928f53c7dddd834a32c27d761d739086b5e00cdda57fbebf43b07",
  "version": 2,
  "locktime": 0,
  "vin": [
    {
      "txid": "4c97a89a80f0936118974063eb941604df7a48f1604c45283e3dcfa91254f5d5",
      "vout": 1,
      "prevout": {
        "scriptpubkey": "00144956aa902b923f5e8c442334164a2a9402c0863f",
        "scriptpubkey_asm": "OP_0 OP_PUSHBYTES_20 4956aa902b923f5e8c442334164a2a9402c0863f",
        "scriptpubkey_type": "v0_p2wpkh",
        "scriptpubkey_address": "bc1qf9t24yptjgl4arzyyv6pvj32jspvpp3l0vp3lg",
        "value": 1542383
      },
      "scriptsig": "",
      "scriptsig_asm": "",
      "witness": [
        "3045022100e0231a6cfe94639f876d2a6355348757b15c9a619dfebbde7904617cd424723702207e4a6f8a90dff31d5642e61d6fba17334183b7b4dae77f6e860f2b2c4d154fca01",
        "02c16a55db3a536ea5252903a7235ec82b6d60e4bfbbfc87871cda436773a6622c"
      ],
      "is_coinbase": false,
      "sequence": 4294967295
    }
  ],
  "vout": [
    {
      "scriptpubkey": "a914874787e3fcf1fd9f5f4626eb586d0a1c9badbd9287",
      "scriptpubkey_asm": "OP_HASH160 OP_PUSHBYTES_20 874787e3fcf1fd9f5f4626eb586d0a1c9badbd92 OP_EQUAL",
      "scriptpubkey_type": "p2sh",
      "scriptpubkey_address": "3E2JqVM5UoUiMdhZaCxBMm8MgpK3xEqx9E",
      "value": 139636
    },
    {
      "scriptpubkey": "0014369f0922edf79c176db94ca21e0f58bc0702f041",
      "scriptpubkey_asm": "OP_0 OP_PUSHBYTES_20 369f0922edf79c176db94ca21e0f58bc0702f041",
      "scriptpubkey_type": "v0_p2wpkh",
      "scriptpubkey_address": "bc1qx60sjghd77wpwmdefj3pur6chsrs9uzpapz6h3",
      "value": 1401210
    }
  ],
  "size": 224,
  "weight": 566,
  "fee": 1537,
  "status": {
    "confirmed": true,
    "block_height": 834464,
    "block_hash": "0000000000000000000177a0869a911a2b65c9bdcd5a8bcb02b68f305bee848e",
    "block_time": 1710308296
  },
  "hex": "02000000000101d5f55412a9cf3d3e28454c60f1487adf041694eb634097186193f0809aa8974c0100000000ffffffff02742102000000000017a914874787e3fcf1fd9f5f4626eb586d0a1c9badbd92877a61150000000000160014369f0922edf79c176db94ca21e0f58bc0702f04102483045022100e0231a6cfe94639f876d2a6355348757b15c9a619dfebbde7904617cd424723702207e4a6f8a90dff31d5642e61d6fba17334183b7b4dae77f6e860f2b2c4d154fca012102c16a55db3a536ea5252903a7235ec82b6d60e4bfbbfc87871cda436773a6622c00000000"
}