{
  "txid": "76c0a470e5da3a0fd36c84035351a096a3f554af09d3853c7120be340b6ecb19",
  "version": 2,
  "locktime": 0,
  "vin": [
    {
      "txid": "9d8017fffaf34cd8d422fba23cbcde6d5872a4f94663862ca8440eed18307241",
      "vout": 0,
      "prevout": {
        "scriptpubkey": "0014806096cff1fab4d9a0d0f2d7de453ffa3ad8e746",
        "scriptpubkey_asm": "OP_0 OP_PUSHBYTES_20 806096cff1fab4d9a0d0f2d7de453ffa3ad8e746",
        "scriptpubkey_type": "v0_p2wpkh",
        "scriptpubkey_address": "bc1qspsfdnl3l26dngxs7ttau3fllgad3e6x7864wl",
        "value": 300046
      },
      "scriptsig": "",
      "scriptsig_asm": "",
      "witness": [
        "30440220793b3745296fbdd122e87475ac383d6d56cf7033c7eaf7bd5bf06e10adb1bee7022069b9db5a50a6c64a40beda900f30bca89ecbc7d623942dc75bcffe818455ba3001",
        "03ec3126f66dc45c16eff11dc7fa7282452c033b6985d35fd80ac501ca1c30e47f"
      ],
      "is_coinbase": false,
      "sequence": 2147483648
    }
  ],
  "vout": [
    {
      "scriptpubkey": "00140ee2dc11078d7dbabc585b0a1044c4ab5054ea36",
      "scriptpubkey_asm": "OP_0 OP_PUSHBYTES_20 0ee2dc11078d7dbabc585b0a1044c4ab5054ea36",
      "scriptpubkey_type": "v0_p2wpkh",
      "scriptpubkey_address": "bc1qpm3dcyg8347m40zctv9pq3xy4dg9f63kc2e8mq",
      "value": 126667
    },
    {
      "scriptpubkey": "00144f4c594c05b13245081077c43c07ed64182fcaa6",
      "scriptpubkey_asm": "OP_0 OP_PUSHBYTES_20 4f4c594c05b13245081077c43c07ed64182fcaa6",
      "scriptpubkey_type": "v0_p2wpkh",
      "scriptpubkey_address": "bc1qfax9jnq9kyey2zqswlzrcpldvsvzlj4xvqtyls",
      "value": 171043
    }
  ],
  "size": 222,
  "weight": 561,
  "fee": 2336,
  "status": {
    "confirmed": true,
    "block_height": 834638,
    "block_hash": "000000000000000000025f742c626208ac87e0b7d15054abb4a19ca2d735a54e",
    "block_time": 1710405325
  },
  "hex": "0200000000010141723018ed0e44a82c866346f9a472586ddebc3ca2fb22d4d84cf3faff17809d00000000000000008002cbee0100000000001600140ee2dc11078d7dbabc585b0a1044c4ab5054ea36239c0200000000001600144f4c594c05b13245081077c43c07ed64182fcaa6024730440220793b3745296fbdd122e87475ac383d6d56cf7033c7eaf7bd5bf06e10adb1bee7022069b9db5a50a6c64a40beda900f30bca89ecbc7d623942dc75bcffe818455ba30012103ec3126f66dc45c16eff11dc7fa7282452c033b6985d35fd80ac501ca1c30e47f00000000"
}