{
  "txid": "76dc1a816583f375612b2c018f923b5d305f88ddeab7901f1861e65b934e7114",
  "version": 2,
  "locktime": 0,
  "vin": [
    {
      "txid": "5b1f6fe9d07519e133cb2dbd0ec92684ef4967ae348d96dad984907b28464920",
      "vout": 1,
      "prevout": {
        "scriptpubkey": "00141bf48d264bfdbb080f5a3bc3a4a2138e71ef474c",
        "scriptpubkey_asm": "OP_0 OP_PUSHBYTES_20 1bf48d264bfdbb080f5a3bc3a4a2138e71ef474c",
        "scriptpubkey_type": "v0_p2wpkh",
        "scriptpubkey_address": "bc1qr06g6fjtlkassr6680p6fgsn3ec7736vynu8jm",
        "value": 14477150
      },
      "scriptsig": "",
      "scriptsig_asm": "",
      "witness": [
        "3044022043f69e4c9d2dc740e4de74237136d5c786ff8c35e086d6aa94c6269fa791b15d022072f1665da62a361bfd879ea6da975efcb0bc8804838860a3348f02746321be7301",
        "02927bebdcc76685b9267fe9fc9ffaf28440b5768856529f5d8fe41feb16e6dbfa"
      ],
      "is_coinbase": false,
      "sequence": 4294967295
    }
  ],
  "vout": [
    {
      "scriptpubkey": "0014b53b2be3d91cfa941b47e132c78a1444856c6bde",
      "scriptpubkey_asm": "OP_0 OP_PUSHBYTES_20 b53b2be3d91cfa941b47e132c78a1444856c6bde",
      "scriptpubkey_type": "v0_p2wpkh",
      "scriptpubkey_address": "bc1qk5ajhc7ernafgx68uyev0zs5gjzkc6770c8mdd",
      "value": 415738
    },
    {
      "scriptpubkey": "00141bf48d264bfdbb080f5a3bc3a4a2138e71ef474c",
      "scriptpubkey_asm": "OP_0 OP_PUSHBYTES_20 1bf48d264bfdbb080f5a3bc3a4a2138e71ef474c",
      "scriptpubkey_type": "v0_p2wpkh",
      "scriptpubkey_address": "bc1qr06g6fjtlkassr6680p6fgsn3ec7736vynu8jm",
      "value": 14057538
    }
  ],
  "size": 222,
  "weight": 561,
  "fee": 3874,
  "status": {
    "confirmed": true,
    "block_height": 834638,
    "block_hash": "000000000000000000025f742c626208ac87e0b7d15054abb4a19ca2d735a54e",
    "block_time": 1710405325
  },
  "hex": "02000000000101204946287b9084d9da968d34ae6749ef8426c90ebd2dcb33e11975d0e96f1f5b0100000000ffffffff02fa57060000000000160014b53b2be3d91cfa941b47e132c78a1444856c6bde4280d600000000001600141bf48d264bfdbb080f5a3bc3a4a2138e71ef474c02473044022043f69e4c9d2dc740e4de74237136d5c786ff8c35e086d6aa94c6269fa791b15d022072f1665da62a361bfd879ea6da975efcb0bc8804838860a3348f02746321be73012102927bebdcc76685b9267fe9fc9ffaf28440b5768856529f5d8fe41feb16e6dbfa00000000"
}