{
  "txid": "76dee25f5c4f9ac52f626acf4faab85e89b29c167ef136a2b017b674366d9fbe",
  "version": 2,
  "locktime": 0,
  "vin": [
    {
      "txid": "a945a2df925272377b114ae4e2a8de4d90f04b14ce9acff753da3b10f63ab79a",
      "vout": 1,
      "prevout": {
        "scriptpubkey": "5120e7ddcf1cce238f708b9128b962480461d34e1e02efa4fd82e7c450c28ee2ac15",
        "scriptpubkey_asm": "OP_PUSHNUM_1 OP_PUSHBYTES_32 e7ddcf1cce238f708b9128b962480461d34e1e02efa4fd82e7c450c28ee2ac15",
        "scriptpubkey_type": "v1_p2tr",
        "scriptpubkey_address": "bc1pulwu78xwyw8hpzu39zukyjqyv8f5u8sza7j0mqh8c3gv9rhz4s2sy0u94w",
        "value": 1345450
      },
      "scriptsig": "",
      "scriptsig_asm": "",
      "witness": [
        "fac29e2e05dc2d836d2194692106a40d4b3b45c5c2caea87575ec4bc4f31f6d15f2a8d34295780e50d85e02b30e039b8076aa53721e43028187bec8860d0c473"
      ],
      "is_coinbase": false,
      "sequence": 4294967293
    }
  ],
  "vout": [
    {
      "scriptpubkey": "5120e89c048efa8c700af0369a12c3829e4a368e7c754467d4637e01858a96818dbf",
      "scriptpubkey_asm": "OP_PUSHNUM_1 OP_PUSHBYTES_32 e89c048efa8c700af0369a12c3829e4a368e7c754467d4637e01858a96818dbf",
      "scriptpubkey_type": "v1_p2tr",
      "scriptpubkey_address": "bc1pazwqfrh633cq4upkngfv8q57fgmgulr4g3nagcm7qxzc495p3klsum5fze",
      "value": 1974
    },
    {
      "scriptpubkey": "5120e89c048efa8c700af0369a12c3829e4a368e7c754467d4637e01858a96818dbf",
      "scriptpubkey_asm": "OP_PUSHNUM_1 OP_PUSHBYTES_32 e89c048efa8c700af0369a12c3829e4a368e7c754467d4637e01858a96818dbf",
      "scriptpubkey_type": "v1_p2tr",
      "scriptpubkey_address": "bc1pazwqfrh633cq4upkngfv8q57fgmgulr4g3nagcm7qxzc495p3klsum5fze",
      "value": 1974
    },
    {
      "scriptpubkey": "5120e7ddcf1cce238f708b9128b962480461d34e1e02efa4fd82e7c450c28ee2ac15",
      "scriptpubkey_asm": "OP_PUSHNUM_1 OP_PUSHBYTES_32 e7ddcf1cce238f708b9128b962480461d34e1e02efa4fd82e7c450c28ee2ac15",
      "scriptpubkey_type": "v1_p2tr",
      "scriptpubkey_address": "bc1pulwu78xwyw8hpzu39zukyjqyv8f5u8sza7j0mqh8c3gv9rhz4s2sy0u94w",
      "value": 1339138
    }
  ],
  "size": 248,
  "weight": 788,
  "fee": 2364,
  "status": {
    "confirmed": true,
    "block_height": 834460,
    "block_hash": "00000000000000000000484a79b643b2524bbce82e5d8a442013fa5b8905ed98",
    "block_time": 1710307468
  },
  "hex": "020000000001019ab73af6103bda53f7cf9ace144bf0904ddea8e2e44a117b37725292dfa245a90100000000fdffffff03b607000000000000225120e89c048efa8c700af0369a12c3829e4a368e7c754467d4637e01858a96818dbfb607000000000000225120e89c048efa8c700af0369a12c3829e4a368e7c754467d4637e01858a96818dbf026f140000000000225120e7ddcf1cce238f708b9128b962480461d34e1e02efa4fd82e7c450c28ee2ac150140fac29e2e05dc2d836d2194692106a40d4b3b45c5c2caea87575ec4bc4f31f6d15f2a8d34295780e50d85e02b30e039b8076aa53721e43028187bec8860d0c47300000000"
}