{
  "txid": "76e776e16c6fa3c026df105ef700edcdd249cd589aa45c601b79ef76ba786b5a",
  "version": 1,
  "locktime": 0,
  "vin": [
    {
      "txid": "b192aeb5f24073dca25663f73f45371a04a57ad505f46b066e9372f706e1507e",
      "vout": 1,
      "prevout": {
        "scriptpubkey": "00207250d91085a77a4568fa4cfd5bebb59f0b9cb3530f8154cd4fab6d28abd548fe",
        "scriptpubkey_asm": "OP_0 OP_PUSHBYTES_32 7250d91085a77a4568fa4cfd5bebb59f0b9cb3530f8154cd4fab6d28abd548fe",
        "scriptpubkey_type": "v0_p2wsh",
        "scriptpubkey_address": "bc1qwfgdjyy95aay2686fn74h6a4nu9eev6np7q4fn204dkj3274frlqrskvx0",
        "value": 42111071
      },
      "scriptsig": "",
      "scriptsig_asm": "",
      "witness": [
        "",
        "3045022100caa30e3fecfa72afa0a91f88947d6feab1318b0c55a29cb8394c70b34599df2a022018ed1b2e7e5054211052a1e4205333ca091c2472cda48335f3a79400bfdc23a201",
        "3044022054b49c582b1e6de5a7510cfe75af4ee9b964a779e99836b60f321e0fa6b670140220439cc54e127690a8a211b0e2f416e15b5993be515091425bc5b14ff32b942b3301",
        "5221030fac04165b606dea3b8f81ada5eb66ca181d5215c873fcf46623ea7cf8e98b1b2102b7836a2a9d3ff095415383cb23a5f4f1badd75e44adb17537962eafe3ded3b602102f8cb472df1ae03cfa6b65b013add7862c7d3ac3684a8a92a44192faace228aee53ae"
      ],
      "is_coinbase": false,
      "sequence": 4294967295,
      "inner_witnessscript_asm": "OP_PUSHNUM_2 OP_PUSHBYTES_33 030fac04165b606dea3b8f81ada5eb66ca181d5215c873fcf46623ea7cf8e98b1b OP_PUSHBYTES_33 02b7836a2a9d3ff095415383cb23a5f4f1badd75e44adb17537962eafe3ded3b60 OP_PUSHBYTES_33 02f8cb472df1ae03cfa6b65b013add7862c7d3ac3684a8a92a44192faace228aee OP_PUSHNUM_3 OP_CHECKMULTISIG"
    }
  ],
  "vout": [
    {
      "scriptpubkey": "00146165c34e97a4be3d6a00253743b6480aee21c851",
      "scriptpubkey_asm": "OP_0 OP_PUSHBYTES_20 6165c34e97a4be3d6a00253743b6480aee21c851",
      "scriptpubkey_type": "v0_p2wpkh",
      "scriptpubkey_address": "bc1qv9juxn5h5jlr66sqy5m58djgpthzrjz33ge7tz",
      "value": 67059
    },
    {
      "scriptpubkey": "00207250d91085a77a4568fa4cfd5bebb59f0b9cb3530f8154cd4fab6d28abd548fe",
      "scriptpubkey_asm": "OP_0 OP_PUSHBYTES_32 7250d91085a77a4568fa4cfd5bebb59f0b9cb3530f8154cd4fab6d28abd548fe",
      "scriptpubkey_type": "v0_p2wsh",
      "scriptpubkey_address": "bc1qwfgdjyy95aay2686fn74h6a4nu9eev6np7q4fn204dkj3274frlqrskvx0",
      "value": 42041380
    }
  ],
  "size": 380,
  "weight": 755,
  "fee": 2632,
  "status": {
    "confirmed": true,
    "block_height": 834552,
    "block_hash": "00000000000000000001dd0468a70c94f619251d286585cff57aeb4bd9ede330",
    "block_time": 1710355598
  },
  "hex": "010000000001017e50e106f772936e066bf405d57aa5041a37453ff76356a2dc7340f2b5ae92b10100000000ffffffff02f3050100000000001600146165c34e97a4be3d6a00253743b6480aee21c85124808102000000002200207250d91085a77a4568fa4cfd5bebb59f0b9cb3530f8154cd4fab6d28abd548fe0400483045022100caa30e3fecfa72afa0a91f88947d6feab1318b0c55a29cb8394c70b34599df2a022018ed1b2e7e5054211052a1e4205333ca091c2472cda48335f3a79400bfdc23a201473044022054b49c582b1e6de5a7510cfe75af4ee9b964a779e99836b60f321e0fa6b670140220439cc54e127690a8a211b0e2f416e15b5993be515091425bc5b14ff32b942b3301695221030fac04165b606dea3b8f81ada5eb66ca181d5215c873fcf46623ea7cf8e98b1b2102b7836a2a9d3ff095415383cb23a5f4f1badd75e44adb17537962eafe3ded3b602102f8cb472df1ae03cfa6b65b013add7862c7d3ac3684a8a92a44192faace228aee53ae00000000"
}