{
  "txid": "76ed01d9d0522d1eff45b9971419667f443beff4a5aa003c890938f1c11915a5",
  "version": 1,
  "locktime": 0,
  "vin": [
    {
      "txid": "501d7d02be0a0e7d61c4a88f4fc592f4741ef764f248fba354bd5fa7c3715943",
      "vout": 1,
      "prevout": {
        "scriptpubkey": "0014c6cf85105c021a23966e0d9733811d9b97ef8186",
        "scriptpubkey_asm": "OP_0 OP_PUSHBYTES_20 c6cf85105c021a23966e0d9733811d9b97ef8186",
        "scriptpubkey_type": "v0_p2wpkh",
        "scriptpubkey_address": "bc1qcm8c2yzuqgdz89nwpktn8qganwt7lqvxh039hk",
        "value": 4469339
      },
      "scriptsig": "",
      "scriptsig_asm": "",
      "witness": [
        "304402201ab26bcb06f9206cde14f9693b4473e26b6531ed0c3dee29a9e7ff82c58632310220093b7d8cc66a21e5cff880c06677fe32e6687becb7328d1f4833b25955fa409a01",
        "03b1a25499395776f6b16e23857780fe7538586d4d1ddb239f5f9c0371055774d2"
      ],
      "is_coinbase": false,
      "sequence": 4294967295
    }
  ],
  "vout": [
    {
      "scriptpubkey": "0014199625bbab9cded4e56e7c0e1521d414497e4539",
      "scriptpubkey_asm": "OP_0 OP_PUSHBYTES_20 199625bbab9cded4e56e7c0e1521d414497e4539",
      "scriptpubkey_type": "v0_p2wpkh",
      "scriptpubkey_address": "bc1qrxtztwatnn0dfetw0s8p2gw5z3yhu3fetrcu5r",
      "value": 4467696
    }
  ],
  "size": 191,
  "weight": 437,
  "fee": 1643,
  "status": {
    "confirmed": true,
    "block_height": 834638,
    "block_hash": "000000000000000000025f742c626208ac87e0b7d15054abb4a19ca2d735a54e",
    "block_time": 1710405325
  },
  "hex": "01000000000101435971c3a75fbd54a3fb48f264f71e74f492c54f8fa8c4617d0e0abe027d1d500100000000ffffffff01f02b440000000000160014199625bbab9cded4e56e7c0e1521d414497e45390247304402201ab26bcb06f9206cde14f9693b4473e26b6531ed0c3dee29a9e7ff82c58632310220093b7d8cc66a21e5cff880c06677fe32e6687becb7328d1f4833b25955fa409a012103b1a25499395776f6b16e23857780fe7538586d4d1ddb239f5f9c0371055774d200000000"
}