{
  "txid": "76fea291951f12f6d4ef5c3e99c10df53622959cf5406b70360d78fa0d194bf1",
  "version": 2,
  "locktime": 0,
  "vin": [
    {
      "txid": "c706bb05c917d7517d7d1510b52d7f34fb678e75bee6ac1c4de4987aa599f481",
      "vout": 1,
      "prevout": {
        "scriptpubkey": "00147f4cfd8aa62629b72e4c583bd69809aea8aab575",
        "scriptpubkey_asm": "OP_0 OP_PUSHBYTES_20 7f4cfd8aa62629b72e4c583bd69809aea8aab575",
        "scriptpubkey_type": "v0_p2wpkh",
        "scriptpubkey_address": "bc1q0ax0mz4xyc5mwtjvtqaadxqf46524dt4czmm97",
        "value": 1542776
      },
      "scriptsig": "",
      "scriptsig_asm": "",
      "witness": [
        "3044022016698bab19659d24af568bef53b84caa4c54cbb4ee9ab1123a9c53ff89e8311402206fd985c035f0b60947998d2d6a54af2be15cce419491bfc32fd550a974189eca01",
        "02d3e1b16d57979b7364b3050c499bf8cddfb86794436bf56e39d5b4da2a2c1fab"
      ],
      "is_coinbase": false,
      "sequence": 4294967295
    }
  ],
  "vout": [
    {
      "scriptpubkey": "00205344012d5d278c7ade5875d4787eda3634170dbab07feda342b427ea963d3d32",
      "scriptpubkey_asm": "OP_0 OP_PUSHBYTES_32 5344012d5d278c7ade5875d4787eda3634170dbab07feda342b427ea963d3d32",
      "scriptpubkey_type": "v0_p2wsh",
      "scriptpubkey_address": "bc1q2dzqzt2ay7x84hjcwh28slk6xc6pwrd6kpl7mg6zksn7493a85eqjenaf8",
      "value": 7040
    },
    {
      "scriptpubkey": "00143de2463d00f12bd83752e5acd5a0da433ce228a0",
      "scriptpubkey_asm": "OP_0 OP_PUSHBYTES_20 3de2463d00f12bd83752e5acd5a0da433ce228a0",
      "scriptpubkey_type": "v0_p2wpkh",
      "scriptpubkey_address": "bc1q8h3yv0gq7y4asd6jukkdtgx6gv7wy29qlcn4pg",
      "value": 1533523
    }
  ],
  "size": 234,
  "weight": 609,
  "fee": 2213,
  "status": {
    "confirmed": true,
    "block_height": 834638,
    "block_hash": "000000000000000000025f742c626208ac87e0b7d15054abb4a19ca2d735a54e",
    "block_time": 1710405325
  },
  "hex": "0200000000010181f499a57a98e44d1cace6be758e67fb347f2db510157d7d51d717c905bb06c70100000000ffffffff02801b0000000000002200205344012d5d278c7ade5875d4787eda3634170dbab07feda342b427ea963d3d3253661700000000001600143de2463d00f12bd83752e5acd5a0da433ce228a002473044022016698bab19659d24af568bef53b84caa4c54cbb4ee9ab1123a9c53ff89e8311402206fd985c035f0b60947998d2d6a54af2be15cce419491bfc32fd550a974189eca012102d3e1b16d57979b7364b3050c499bf8cddfb86794436bf56e39d5b4da2a2c1fab00000000"
}