{
  "txid": "77023fe69dbb31dae4bdbafde42f92d45a26370becdcd5701522928b6a73f5fe",
  "version": 2,
  "locktime": 0,
  "vin": [
    {
      "txid": "83c4f0ba29a5e685bdff3b32bfad0ad820e18da72f0bf0d491057b88bf08e995",
      "vout": 1,
      "prevout": {
        "scriptpubkey": "512057249446c21e2bf5ee7884e6b5c1560d86da15807a54e5d7edfe39b40acc0769",
        "scriptpubkey_asm": "OP_PUSHNUM_1 OP_PUSHBYTES_32 57249446c21e2bf5ee7884e6b5c1560d86da15807a54e5d7edfe39b40acc0769",
        "scriptpubkey_type": "v1_p2tr",
        "scriptpubkey_address": "bc1p2ujfg3kzrc4ltmncsnntts2kpkrd59vq0f2wt4ldlcumgzkvqa5sh5zkg0",
        "value": 30974
      },
      "scriptsig": "",
      "scriptsig_asm": "",
      "witness": [
        "07dcbd39eb802ad8f9118f4d603f8a6db2062d661b5685faeaa80e101367dd8de93398755b062dab8ebe45a38b04e4da31a9dda1b45f87c4ea7b8b196e5d599e"
      ],
      "is_coinbase": false,
      "sequence": 4294967293
    }
  ],
  "vout": [
    {
      "scriptpubkey": "51202e2f37ac5bce86f3374523f9ea4a9e248f172db50151b4499b542ec3d7fecb96",
      "scriptpubkey_asm": "OP_PUSHNUM_1 OP_PUSHBYTES_32 2e2f37ac5bce86f3374523f9ea4a9e248f172db50151b4499b542ec3d7fecb96",
      "scriptpubkey_type": "v1_p2tr",
      "scriptpubkey_address": "bc1p9chn0tzme6r0xd69y0u75j57yj83wtd4q9gmgjvm2shv84l7ewtq0rg929",
      "value": 3096
    },
    {
      "scriptpubkey": "51207f2016fc6b63acbdc81603e2c818b1d1657f969fdf8dc4f7644048b52c016535",
      "scriptpubkey_asm": "OP_PUSHNUM_1 OP_PUSHBYTES_32 7f2016fc6b63acbdc81603e2c818b1d1657f969fdf8dc4f7644048b52c016535",
      "scriptpubkey_type": "v1_p2tr",
      "scriptpubkey_address": "bc1p0uspdlrtvwktmjqkq03vsx9369jhl95lm7xufamygpyt2tqpv56slz5e25",
      "value": 25260
    }
  ],
  "size": 205,
  "weight": 616,
  "fee": 2618,
  "status": {
    "confirmed": true,
    "block_height": 834460,
    "block_hash": "00000000000000000000484a79b643b2524bbce82e5d8a442013fa5b8905ed98",
    "block_time": 1710307468
  },
  "hex": "0200000000010195e908bf887b0591d4f00b2fa78de120d80aadbf323bffbd85e6a529baf0c4830100000000fdffffff02180c0000000000002251202e2f37ac5bce86f3374523f9ea4a9e248f172db50151b4499b542ec3d7fecb96ac620000000000002251207f2016fc6b63acbdc81603e2c818b1d1657f969fdf8dc4f7644048b52c016535014007dcbd39eb802ad8f9118f4d603f8a6db2062d661b5685faeaa80e101367dd8de93398755b062dab8ebe45a38b04e4da31a9dda1b45f87c4ea7b8b196e5d599e00000000"
}