{
  "txid": "770839b3739921fddb892843075623048cf29125e09cc8962d1c8284f159d6bc",
  "version": 1,
  "locktime": 0,
  "vin": [
    {
      "txid": "ac53af41da7edad1e50d8ba92e8a56568893fee5d8da1ffe693aa1069640951d",
      "vout": 8,
      "prevout": {
        "scriptpubkey": "0014288938be0ccdf107d908897efb6e1d217515c6aa",
        "scriptpubkey_asm": "OP_0 OP_PUSHBYTES_20 288938be0ccdf107d908897efb6e1d217515c6aa",
        "scriptpubkey_type": "v0_p2wpkh",
        "scriptpubkey_address": "bc1q9zyn30svehcs0kgg39l0kmsay963t342mvrt4v",
        "value": 495862
      },
      "scriptsig": "",
      "scriptsig_asm": "",
      "witness": [
        "3044022027373ef120b895fe4ccbf226c65eaae3cf0620055e0f40daceae834084110cda02206b1c36e32159b10bc5f739986c69b4af70c36c565d546fc3bb226a3a1f3cdb0201",
        "036ae5423b1eb535d1074e6d93017870235b06e5726045e18e0699453d65e89402"
      ],
      "is_coinbase": false,
      "sequence": 4294967295
    }
  ],
  "vout": [
    {
      "scriptpubkey": "0014f8451ed2862f3efd9741debcc1acda2bf4e8c80c",
      "scriptpubkey_asm": "OP_0 OP_PUSHBYTES_20 f8451ed2862f3efd9741debcc1acda2bf4e8c80c",
      "scriptpubkey_type": "v0_p2wpkh",
      "scriptpubkey_address": "bc1qlpz3a55x9ul0m96pm67vrtx6906w3jqv46c0w6",
      "value": 38394
    },
    {
      "scriptpubkey": "00149722cd699e553deb7296ee573c0f7bd293ba7fce",
      "scriptpubkey_asm": "OP_0 OP_PUSHBYTES_20 9722cd699e553deb7296ee573c0f7bd293ba7fce",
      "scriptpubkey_type": "v0_p2wpkh",
      "scriptpubkey_address": "bc1qju3v66v72577ku5kaetncrmm62fm5l7wjraqur",
      "value": 455917
    }
  ],
  "size": 222,
  "weight": 561,
  "fee": 1551,
  "status": {
    "confirmed": true,
    "block_height": 834464,
    "block_hash": "0000000000000000000177a0869a911a2b65c9bdcd5a8bcb02b68f305bee848e",
    "block_time": 1710308296
  },
  "hex": "010000000001011d95409606a13a69fe1fdad8e5fe938856568a2ea98b0de5d1da7eda41af53ac0800000000ffffffff02fa95000000000000160014f8451ed2862f3efd9741debcc1acda2bf4e8c80cedf40600000000001600149722cd699e553deb7296ee573c0f7bd293ba7fce02473044022027373ef120b895fe4ccbf226c65eaae3cf0620055e0f40daceae834084110cda02206b1c36e32159b10bc5f739986c69b4af70c36c565d546fc3bb226a3a1f3cdb020121036ae5423b1eb535d1074e6d93017870235b06e5726045e18e0699453d65e8940200000000"
}