{
  "txid": "7710dc7e96e4ab0ace1d56ced45f568f3bfb46f735f2bd6e34d2f286640014f0",
  "version": 1,
  "locktime": 0,
  "vin": [
    {
      "txid": "99c4dec74c7b8e2d3cc8ce0274454283caaf067dc9fe7585771ee65f784f2aae",
      "vout": 0,
      "prevout": {
        "scriptpubkey": "001463fe2faceb25da8a420f7873f46b56f9d5efa9a4",
        "scriptpubkey_asm": "OP_0 OP_PUSHBYTES_20 63fe2faceb25da8a420f7873f46b56f9d5efa9a4",
        "scriptpubkey_type": "v0_p2wpkh",
        "scriptpubkey_address": "bc1qv0lzlt8tyhdg5ss00pelg66kl827l2dya44y9z",
        "value": 10949326
      },
      "scriptsig": "",
      "scriptsig_asm": "",
      "witness": [
        "304402207f0f2c9af1aee0f1f4eb62863fed4de45f4cc812463f48e11fc255191d22720302206e9d793bd991c2976fdcfa45ff260dbcccfb2d1b900158d1852aca4c7a7bf16c01",
        "02b1e07b8ba03f3e18490301a47ee1a30661beaab07a69bb639aaac8e206c0bc67"
      ],
      "is_coinbase": false,
      "sequence": 4294967295
    }
  ],
  "vout": [
    {
      "scriptpubkey": "76a9146ea6ded1257c801feac7f1e073a30cb670d48b0b88ac",
      "scriptpubkey_asm": "OP_DUP OP_HASH160 OP_PUSHBYTES_20 6ea6ded1257c801feac7f1e073a30cb670d48b0b OP_EQUALVERIFY OP_CHECKSIG",
      "scriptpubkey_type": "p2pkh",
      "scriptpubkey_address": "1B65ETbVb6HsQiZRvMMvZsnFWCeSEC9TtW",
      "value": 8277440
    },
    {
      "scriptpubkey": "001463fe2faceb25da8a420f7873f46b56f9d5efa9a4",
      "scriptpubkey_asm": "OP_0 OP_PUSHBYTES_20 63fe2faceb25da8a420f7873f46b56f9d5efa9a4",
      "scriptpubkey_type": "v0_p2wpkh",
      "scriptpubkey_address": "bc1qv0lzlt8tyhdg5ss00pelg66kl827l2dya44y9z",
      "value": 2667998
    }
  ],
  "size": 225,
  "weight": 573,
  "fee": 3888,
  "status": {
    "confirmed": true,
    "block_height": 834638,
    "block_hash": "000000000000000000025f742c626208ac87e0b7d15054abb4a19ca2d735a54e",
    "block_time": 1710405325
  },
  "hex": "01000000000101ae2a4f785fe61e778575fec97d06afca8342457402cec83c2d8e7b4cc7dec4990000000000ffffffff02c04d7e00000000001976a9146ea6ded1257c801feac7f1e073a30cb670d48b0b88acdeb528000000000016001463fe2faceb25da8a420f7873f46b56f9d5efa9a40247304402207f0f2c9af1aee0f1f4eb62863fed4de45f4cc812463f48e11fc255191d22720302206e9d793bd991c2976fdcfa45ff260dbcccfb2d1b900158d1852aca4c7a7bf16c012102b1e07b8ba03f3e18490301a47ee1a30661beaab07a69bb639aaac8e206c0bc6700000000"
}