{
  "txid": "77154f3f83739e811e7e30f017fe046a3b448a37a06563dfbd438583a6f92467",
  "version": 2,
  "locktime": 0,
  "vin": [
    {
      "txid": "e054c137725b7a5d163dade8f5cd68c0927a2e8b00d920927dab9a7ba934ce5f",
      "vout": 13,
      "prevout": {
        "scriptpubkey": "5120686b48995bb99fa3e1df56075084106686a486af91522dfaefe06602782e3008",
        "scriptpubkey_asm": "OP_PUSHNUM_1 OP_PUSHBYTES_32 686b48995bb99fa3e1df56075084106686a486af91522dfaefe06602782e3008",
        "scriptpubkey_type": "v1_p2tr",
        "scriptpubkey_address": "bc1pdp453x2mhx068cwl2cr4ppqsv6r2fp40j9fzm7h0upnqy7pwxqyqgg83pr",
        "value": 2658
      },
      "scriptsig": "",
      "scriptsig_asm": "",
      "witness": [
        "5f7df42ff83cb5f58c58675c49379e2a660dfc3f18251a8ca2f98ec02465fbcb68b4dc57b859bd3004470dbd4d19f6ccc54dddd38e39337b78d9936aeb034fa2",
        "201240167ccdb7e173f352d6c49491607e721e83455abfb292cabe53c24c5cef3bac0063036f726401011e6170706c69636174696f6e2f6a736f6e3b636861727365743d7574662d38004cbf7b2270223a22706f772d3230222c226f70223a226d696e74222c227469636b223a2250455045222c22616d74223a2231303030222c22736f6c7574696f6e223a22504550453a6263317139736a36303977756e7468646a636d7a746a796379766475616e653071716b78726e773932653a303030303030303030303030303030303030303139393431613561653132383937363539383134343239323533333030353762306461393666336465613163353a3536303638323932383739227d68",
        "c0a0e509a599b6542378e5ac7959d344a1bebc95ec9899fd4ccf1904beefe3f047"
      ],
      "is_coinbase": false,
      "sequence": 4294967295
    }
  ],
  "vout": [
    {
      "scriptpubkey": "00142c25a795dc9aeed963625c898231bcecf2f002c6",
      "scriptpubkey_asm": "OP_0 OP_PUSHBYTES_20 2c25a795dc9aeed963625c898231bcecf2f002c6",
      "scriptpubkey_type": "v0_p2wpkh",
      "scriptpubkey_address": "bc1q9sj609wunthdjcmztjycyvduane0qqkxrnw92e",
      "value": 546
    }
  ],
  "size": 455,
  "weight": 701,
  "fee": 2112,
  "status": {
    "confirmed": true,
    "block_height": 834460,
    "block_hash": "00000000000000000000484a79b643b2524bbce82e5d8a442013fa5b8905ed98",
    "block_time": 1710307468
  },
  "hex": "020000000001015fce34a97b9aab7d9220d9008b2e7a92c068cdf5e8ad3d165d7a5b7237c154e00d00000000ffffffff0122020000000000001600142c25a795dc9aeed963625c898231bcecf2f002c603405f7df42ff83cb5f58c58675c49379e2a660dfc3f18251a8ca2f98ec02465fbcb68b4dc57b859bd3004470dbd4d19f6ccc54dddd38e39337b78d9936aeb034fa2fd0c01201240167ccdb7e173f352d6c49491607e721e83455abfb292cabe53c24c5cef3bac0063036f726401011e6170706c69636174696f6e2f6a736f6e3b636861727365743d7574662d38004cbf7b2270223a22706f772d3230222c226f70223a226d696e74222c227469636b223a2250455045222c22616d74223a2231303030222c22736f6c7574696f6e223a22504550453a6263317139736a36303977756e7468646a636d7a746a796379766475616e653071716b78726e773932653a303030303030303030303030303030303030303139393431613561653132383937363539383134343239323533333030353762306461393666336465613163353a3536303638323932383739227d6821c0a0e509a599b6542378e5ac7959d344a1bebc95ec9899fd4ccf1904beefe3f04700000000"
}