{
  "txid": "771cb240d596dbb01aed1d775598a5755cea6c71453d7beaab937b6037ae17a7",
  "version": 2,
  "locktime": 0,
  "vin": [
    {
      "txid": "d40445ee9c5356adf68b364fdee8ff6fa7f8bba35809023f6c3f886db5f9c01b",
      "vout": 5,
      "prevout": {
        "scriptpubkey": "00145463cb9806566131aef45dc762bb9f1f8c5bb82a",
        "scriptpubkey_asm": "OP_0 OP_PUSHBYTES_20 5463cb9806566131aef45dc762bb9f1f8c5bb82a",
        "scriptpubkey_type": "v0_p2wpkh",
        "scriptpubkey_address": "bc1q233uhxqx2esnrth5thrk9wulr7x9hwp2va5du8",
        "value": 2951065
      },
      "scriptsig": "",
      "scriptsig_asm": "",
      "witness": [
        "3045022100a82a8de30d31a2c5ccba859b882da5b38fe355efae23faa1d35e326514bb7b8d022076f902fe4bbb708378fd8682ea966532793dc9537b0c60b574cac9bdcf6a1e0001",
        "037285862e5fb1fcb5ef0560c677a60488461a58338441c0b8d3e654d2f0c63371"
      ],
      "is_coinbase": false,
      "sequence": 4294967295
    }
  ],
  "vout": [
    {
      "scriptpubkey": "6a227c32ef0751a4f0049862c8ac284994891f09a56db4ad98ff7f0f43d9340055cb567d",
      "scriptpubkey_asm": "OP_RETURN OP_PUSHBYTES_34 7c32ef0751a4f0049862c8ac284994891f09a56db4ad98ff7f0f43d9340055cb567d",
      "scriptpubkey_type": "op_return",
      "value": 0
    },
    {
      "scriptpubkey": "002000517b2270223a227372632d373231222c226f70223a226d696e74222c226322",
      "scriptpubkey_asm": "OP_0 OP_PUSHBYTES_32 00517b2270223a227372632d373231222c226f70223a226d696e74222c226322",
      "scriptpubkey_type": "v0_p2wsh",
      "scriptpubkey_address": "bc1qqpghkgnsygazyumjvvknwv33ygkzymmsygazymtfde6zytpzvv3qtaqd38",
      "value": 330
    },
    {
      "scriptpubkey": "00203a2241393939393639363237373132343331383631222c227473223a5b31302c",
      "scriptpubkey_asm": "OP_0 OP_PUSHBYTES_32 3a2241393939393639363237373132343331383631222c227473223a5b31302c",
      "scriptpubkey_type": "v0_p2wsh",
      "scriptpubkey_address": "bc1q8g3yzwfe8yunvwfkxgmnwvfjxsenzwpkxy3zcgn5wv3r5ke3xqkq5vzheu",
      "value": 330
    },
    {
      "scriptpubkey": "0020332c332c322c322c332c352c312c312c315d7d00000000000000000000000000",
      "scriptpubkey_asm": "OP_0 OP_PUSHBYTES_32 332c332c322c322c332c352c312c312c315d7d00000000000000000000000000",
      "scriptpubkey_type": "v0_p2wsh",
      "scriptpubkey_address": "bc1qxvkrxtpj9sezcvevx5krztp39sc46lgqqqqqqqqqqqqqqqqqqqqqkaeedn",
      "value": 330
    },
    {
      "scriptpubkey": "0014419854753506f2b3e771860f36eb919d89cc890f",
      "scriptpubkey_asm": "OP_0 OP_PUSHBYTES_20 419854753506f2b3e771860f36eb919d89cc890f",
      "scriptpubkey_type": "v0_p2wpkh",
      "scriptpubkey_address": "bc1qgxv9gaf4qmet8em3sc8nd6u3nkyuezg0cg9p36",
      "value": 22220
    },
    {
      "scriptpubkey": "00145463cb9806566131aef45dc762bb9f1f8c5bb82a",
      "scriptpubkey_asm": "OP_0 OP_PUSHBYTES_20 5463cb9806566131aef45dc762bb9f1f8c5bb82a",
      "scriptpubkey_type": "v0_p2wpkh",
      "scriptpubkey_address": "bc1q233uhxqx2esnrth5thrk9wulr7x9hwp2va5du8",
      "value": 2923130
    }
  ],
  "size": 397,
  "weight": 1258,
  "fee": 4725,
  "status": {
    "confirmed": true,
    "block_height": 834638,
    "block_hash": "000000000000000000025f742c626208ac87e0b7d15054abb4a19ca2d735a54e",
    "block_time": 1710405325
  },
  "hex": "020000000001011bc0f9b56d883f6c3f020958a3bbf8a76fffe8de4f368bf6ad56539cee4504d40500000000ffffffff060000000000000000246a227c32ef0751a4f0049862c8ac284994891f09a56db4ad98ff7f0f43d9340055cb567d4a0100000000000022002000517b2270223a227372632d373231222c226f70223a226d696e74222c2263224a010000000000002200203a2241393939393639363237373132343331383631222c227473223a5b31302c4a01000000000000220020332c332c322c322c332c352c312c312c315d7d00000000000000000000000000cc56000000000000160014419854753506f2b3e771860f36eb919d89cc890f7a9a2c00000000001600145463cb9806566131aef45dc762bb9f1f8c5bb82a02483045022100a82a8de30d31a2c5ccba859b882da5b38fe355efae23faa1d35e326514bb7b8d022076f902fe4bbb708378fd8682ea966532793dc9537b0c60b574cac9bdcf6a1e000121037285862e5fb1fcb5ef0560c677a60488461a58338441c0b8d3e654d2f0c6337100000000"
}