{
  "txid": "7720c1db850568c67822c3c95d3121241c54c1ad6bc95a14427eb36a98d4f4dd",
  "version": 1,
  "locktime": 0,
  "vin": [
    {
      "txid": "103262a993968dec93ac789d229511566f4b8088ee69036045695c24520e35d3",
      "vout": 1,
      "prevout": {
        "scriptpubkey": "00140388055130c4467a1af01add4a63828ec921c679",
        "scriptpubkey_asm": "OP_0 OP_PUSHBYTES_20 0388055130c4467a1af01add4a63828ec921c679",
        "scriptpubkey_type": "v0_p2wpkh",
        "scriptpubkey_address": "bc1qqwyq25fsc3r85xhsrtw55cuz3myjr3neyhvtd9",
        "value": 8767
      },
      "scriptsig": "",
      "scriptsig_asm": "",
      "witness": [
        "30440220537eab0830ada18c8c7318eb7fea3b7bdf5eb941b104da017bb355f5e523359d02202935433e010a07c193f277b1f9ee7285e6d6a091cba88bf76ecfbb968b6c453c01",
        "03fac10d94c68b7a487443861cd3222d45401a0b5749dc2db61961ea31481929b0"
      ],
      "is_coinbase": false,
      "sequence": 4294967295
    },
    {
      "txid": "7b871c2b16fd8f76d344c33dadec09773fb6906b34fa5f7137230817b514daf1",
      "vout": 1,
      "prevout": {
        "scriptpubkey": "00140388055130c4467a1af01add4a63828ec921c679",
        "scriptpubkey_asm": "OP_0 OP_PUSHBYTES_20 0388055130c4467a1af01add4a63828ec921c679",
        "scriptpubkey_type": "v0_p2wpkh",
        "scriptpubkey_address": "bc1qqwyq25fsc3r85xhsrtw55cuz3myjr3neyhvtd9",
        "value": 9760
      },
      "scriptsig": "",
      "scriptsig_asm": "",
      "witness": [
        "304402204ae60721a2d0588b1ede324cf30bac8c758e230de45be9dd9a3dd7f1092f72dc022075fc39f4e97b4e8aae642388d9647304c0b926a1a9b0cbae38bde7982d75740e01",
        "03fac10d94c68b7a487443861cd3222d45401a0b5749dc2db61961ea31481929b0"
      ],
      "is_coinbase": false,
      "sequence": 4294967295
    },
    {
      "txid": "edf136e5bfd37e05bccd620ab407da0d559c185c69e009811778c2a1cd598c65",
      "vout": 171,
      "prevout": {
        "scriptpubkey": "00140388055130c4467a1af01add4a63828ec921c679",
        "scriptpubkey_asm": "OP_0 OP_PUSHBYTES_20 0388055130c4467a1af01add4a63828ec921c679",
        "scriptpubkey_type": "v0_p2wpkh",
        "scriptpubkey_address": "bc1qqwyq25fsc3r85xhsrtw55cuz3myjr3neyhvtd9",
        "value": 687229
      },
      "scriptsig": "",
      "scriptsig_asm": "",
      "witness": [
        "3044022043ebb1c58b6b8d66481a7649d51ffadfc8961a0289d4c3fad68d4544bbe273ad02206f35e1da8f878d93cde655d4b63fcd5f6fb4f014d63213ddec86eb4b1dc43fde01",
        "03fac10d94c68b7a487443861cd3222d45401a0b5749dc2db61961ea31481929b0"
      ],
      "is_coinbase": false,
      "sequence": 4294967295
    }
  ],
  "vout": [
    {
      "scriptpubkey": "a9148f384360c8a42ca6b240856527d33cb66d687de687",
      "scriptpubkey_asm": "OP_HASH160 OP_PUSHBYTES_20 8f384360c8a42ca6b240856527d33cb66d687de6 OP_EQUAL",
      "scriptpubkey_type": "p2sh",
      "scriptpubkey_address": "3EkHxDBbpUDeBK2i8VdqyFYVCxG1yXYgTg",
      "value": 695309
    },
    {
      "scriptpubkey": "00140388055130c4467a1af01add4a63828ec921c679",
      "scriptpubkey_asm": "OP_0 OP_PUSHBYTES_20 0388055130c4467a1af01add4a63828ec921c679",
      "scriptpubkey_type": "v0_p2wpkh",
      "scriptpubkey_address": "bc1qqwyq25fsc3r85xhsrtw55cuz3myjr3neyhvtd9",
      "value": 2941
    }
  ],
  "size": 519,
  "weight": 1107,
  "fee": 7506,
  "status": {
    "confirmed": true,
    "block_height": 834638,
    "block_hash": "000000000000000000025f742c626208ac87e0b7d15054abb4a19ca2d735a54e",
    "block_time": 1710405325
  },
  "hex": "01000000000103d3350e52245c6945600369ee88804b6f561195229d78ac93ec8d9693a96232100100000000fffffffff1da14b517082337715ffa346b90b63f7709ecad3dc344d3768ffd162b1c877b0100000000ffffffff658c59cda1c278178109e0695c189c550dda07b40a62cdbc057ed3bfe536f1edab00000000ffffffff020d9c0a000000000017a9148f384360c8a42ca6b240856527d33cb66d687de6877d0b0000000000001600140388055130c4467a1af01add4a63828ec921c679024730440220537eab0830ada18c8c7318eb7fea3b7bdf5eb941b104da017bb355f5e523359d02202935433e010a07c193f277b1f9ee7285e6d6a091cba88bf76ecfbb968b6c453c012103fac10d94c68b7a487443861cd3222d45401a0b5749dc2db61961ea31481929b00247304402204ae60721a2d0588b1ede324cf30bac8c758e230de45be9dd9a3dd7f1092f72dc022075fc39f4e97b4e8aae642388d9647304c0b926a1a9b0cbae38bde7982d75740e012103fac10d94c68b7a487443861cd3222d45401a0b5749dc2db61961ea31481929b002473044022043ebb1c58b6b8d66481a7649d51ffadfc8961a0289d4c3fad68d4544bbe273ad02206f35e1da8f878d93cde655d4b63fcd5f6fb4f014d63213ddec86eb4b1dc43fde012103fac10d94c68b7a487443861cd3222d45401a0b5749dc2db61961ea31481929b000000000"
}