{
  "txid": "772b3d57c5cca6c978150ab6309aae771bc322646272ae0a2d302c69a72c0fc8",
  "version": 2,
  "locktime": 0,
  "vin": [
    {
      "txid": "cff18b4559633437c6b86c4dda97cfb257bbb38034c432a508417c66c18b6b72",
      "vout": 28,
      "prevout": {
        "scriptpubkey": "5120b0fc0c45bfc3791ff40f53a45a72c576ad93256e29cd5755bd9d1d3e6e169e26",
        "scriptpubkey_asm": "OP_PUSHNUM_1 OP_PUSHBYTES_32 b0fc0c45bfc3791ff40f53a45a72c576ad93256e29cd5755bd9d1d3e6e169e26",
        "scriptpubkey_type": "v1_p2tr",
        "scriptpubkey_address": "bc1pkr7qc3dlcdu3laq02wj95uk9w6kexftw98x4w4dan5wnumskncnqnq255f",
        "value": 3634
      },
      "scriptsig": "",
      "scriptsig_asm": "",
      "witness": [
        "cd646611442f16d76ac6a7cb2f36e9fa67711cf8bab96fb9015554f98dc4391a8abfea1940149c25cccca7be078d9ebded6bbfc6c753b8d8daa0657f75c4c33f",
        "20217f1ae6686e0b9bf333c7be4b9d8b8f69bc9d98516b61367d98eb4f89f9b7d8ac0063036f726401011e6170706c69636174696f6e2f6a736f6e3b636861727365743d7574662d38004cd37b2270223a22706f772d3230222c226f70223a226d696e74222c227469636b223a2250455045222c22616d74223a2231303030222c22736f6c7574696f6e223a22504550453a6263317077687170676e37766634707478386574387339353863796b6a6338306130393377387733716d6d6737726c39717177616c6a37733339766c36733a303030303030303030303030303030303030303139393431613561653132383937363539383134343239323533333030353762306461393666336465613163353a3436363932313834333032227d68",
        "c1260555bf4608a4bfce181158d7f81c023e0988279add2c55cd9091c8ce8f4140"
      ],
      "is_coinbase": false,
      "sequence": 4294967295
    }
  ],
  "vout": [
    {
      "scriptpubkey": "512075c0144fcc4d42b31f2b3c0b43e096960efebcb171dd106f68f0fe5001ddfcbd",
      "scriptpubkey_asm": "OP_PUSHNUM_1 OP_PUSHBYTES_32 75c0144fcc4d42b31f2b3c0b43e096960efebcb171dd106f68f0fe5001ddfcbd",
      "scriptpubkey_type": "v1_p2tr",
      "scriptpubkey_address": "bc1pwhqpgn7vf4ptx8et8s958cykjc80a093w8w3qmmg7rl9qqwalj7s39vl6s",
      "value": 546
    }
  ],
  "size": 487,
  "weight": 769,
  "fee": 3088,
  "status": {
    "confirmed": true,
    "block_height": 834460,
    "block_hash": "00000000000000000000484a79b643b2524bbce82e5d8a442013fa5b8905ed98",
    "block_time": 1710307468
  },
  "hex": "02000000000101726b8bc1667c4108a532c43480b3bb57b2cf97da4d6cb8c637346359458bf1cf1c00000000ffffffff01220200000000000022512075c0144fcc4d42b31f2b3c0b43e096960efebcb171dd106f68f0fe5001ddfcbd0340cd646611442f16d76ac6a7cb2f36e9fa67711cf8bab96fb9015554f98dc4391a8abfea1940149c25cccca7be078d9ebded6bbfc6c753b8d8daa0657f75c4c33ffd200120217f1ae6686e0b9bf333c7be4b9d8b8f69bc9d98516b61367d98eb4f89f9b7d8ac0063036f726401011e6170706c69636174696f6e2f6a736f6e3b636861727365743d7574662d38004cd37b2270223a22706f772d3230222c226f70223a226d696e74222c227469636b223a2250455045222c22616d74223a2231303030222c22736f6c7574696f6e223a22504550453a6263317077687170676e37766634707478386574387339353863796b6a6338306130393377387733716d6d6737726c39717177616c6a37733339766c36733a303030303030303030303030303030303030303139393431613561653132383937363539383134343239323533333030353762306461393666336465613163353a3436363932313834333032227d6821c1260555bf4608a4bfce181158d7f81c023e0988279add2c55cd9091c8ce8f414000000000"
}