{
  "txid": "772d8ae411f280936af9a0c198af115bdd0f14bba063f539a83408930bc9e118",
  "version": 1,
  "locktime": 0,
  "vin": [
    {
      "txid": "d46dd08336579c65867f89382f3c581f92f5cbcc488871bceaead15847bc44a5",
      "vout": 1,
      "prevout": {
        "scriptpubkey": "a914ae7f848d30e97c07cf1a6f57e7eef07ed05b9f5e87",
        "scriptpubkey_asm": "OP_HASH160 OP_PUSHBYTES_20 ae7f848d30e97c07cf1a6f57e7eef07ed05b9f5e OP_EQUAL",
        "scriptpubkey_type": "p2sh",
        "scriptpubkey_address": "3HbgG1hcCWhDxpuu8ToGjKDXUhcWV2BCnb",
        "value": 1532579401
      },
      "scriptsig": "160014b4fe272f4c3420054d9aa6576443b6e09a089e77",
      "scriptsig_asm": "OP_PUSHBYTES_22 0014b4fe272f4c3420054d9aa6576443b6e09a089e77",
      "witness": [
        "3045022100bfc6185179ed3a1720043d2c9467000e0d4a2833b9af9bfc10ef1aa5776d351602203ed1427b40f9e87ef16137228c6e7b53169a0b1626379ab3de61471a7e3627d901",
        "020b8ae904a537fc50d0814db746a66a6a5213dde7b4124b719227954bccefcb08"
      ],
      "is_coinbase": false,
      "sequence": 0,
      "inner_redeemscript_asm": "OP_0 OP_PUSHBYTES_20 b4fe272f4c3420054d9aa6576443b6e09a089e77"
    }
  ],
  "vout": [
    {
      "scriptpubkey": "a914504846e2d450c38806aa09bf393ac9bf643ad7c087",
      "scriptpubkey_asm": "OP_HASH160 OP_PUSHBYTES_20 504846e2d450c38806aa09bf393ac9bf643ad7c0 OP_EQUAL",
      "scriptpubkey_type": "p2sh",
      "scriptpubkey_address": "391WZn2ZtXUHdbB9RBm7GTYwUgYiQf1aCu",
      "value": 50000000
    },
    {
      "scriptpubkey": "a914918fd58bd844874e8c66d4b8a0d2c97b4f4e7d4c87",
      "scriptpubkey_asm": "OP_HASH160 OP_PUSHBYTES_20 918fd58bd844874e8c66d4b8a0d2c97b4f4e7d4c OP_EQUAL",
      "scriptpubkey_type": "p2sh",
      "scriptpubkey_address": "3ExgD8cqWt8HfBwkNh5oPiJ6rwj5MBq6BV",
      "value": 1482574986
    }
  ],
  "size": 248,
  "weight": 662,
  "fee": 4415,
  "status": {
    "confirmed": true,
    "block_height": 834638,
    "block_hash": "000000000000000000025f742c626208ac87e0b7d15054abb4a19ca2d735a54e",
    "block_time": 1710405325
  },
  "hex": "01000000000101a544bc4758d1eaeabc718848cccbf5921f583c2f38897f86659c573683d06dd40100000017160014b4fe272f4c3420054d9aa6576443b6e09a089e77000000000280f0fa020000000017a914504846e2d450c38806aa09bf393ac9bf643ad7c0878a4c5e580000000017a914918fd58bd844874e8c66d4b8a0d2c97b4f4e7d4c8702483045022100bfc6185179ed3a1720043d2c9467000e0d4a2833b9af9bfc10ef1aa5776d351602203ed1427b40f9e87ef16137228c6e7b53169a0b1626379ab3de61471a7e3627d90121020b8ae904a537fc50d0814db746a66a6a5213dde7b4124b719227954bccefcb0800000000"
}