{
  "txid": "7732a0e3ca2c07ad4c0a823811ad5fe50d23e258bc876d905484809ce11af5da",
  "version": 2,
  "locktime": 0,
  "vin": [
    {
      "txid": "39fa958bf42b586fa78d4a40a93ad43279b0f98302af1a15428d243ac09751ff",
      "vout": 0,
      "prevout": {
        "scriptpubkey": "0014f6781fedb1e0b544ec3ed8eb4578fea46c494e23",
        "scriptpubkey_asm": "OP_0 OP_PUSHBYTES_20 f6781fedb1e0b544ec3ed8eb4578fea46c494e23",
        "scriptpubkey_type": "v0_p2wpkh",
        "scriptpubkey_address": "bc1q7euplmd3uz65fmp7mr45278753kyjn3r5vkek8",
        "value": 443183
      },
      "scriptsig": "",
      "scriptsig_asm": "",
      "witness": [
        "30440220288bbb68f5e887ea437b313a0dc8e76f032ef20f2763a4258fb83e441ba07ca5022037c822b6057b8ba20b71d5c593fd96986c85cdd1e3f520a2059d94283bf4688601",
        "02575adbe8b76bbb939fcb704d4d83eeca770548d577d412a7722e771a41df2a83"
      ],
      "is_coinbase": false,
      "sequence": 4294967295
    }
  ],
  "vout": [
    {
      "scriptpubkey": "a914b33882d259c1e340baac06eeb8862dd5278ce26287",
      "scriptpubkey_asm": "OP_HASH160 OP_PUSHBYTES_20 b33882d259c1e340baac06eeb8862dd5278ce262 OP_EQUAL",
      "scriptpubkey_type": "p2sh",
      "scriptpubkey_address": "3J2eaLSkJbYxtsLRUkV6DiZh1L8s7oXrUz",
      "value": 436315
    }
  ],
  "size": 192,
  "weight": 441,
  "fee": 6868,
  "status": {
    "confirmed": true,
    "block_height": 834638,
    "block_hash": "000000000000000000025f742c626208ac87e0b7d15054abb4a19ca2d735a54e",
    "block_time": 1710405325
  },
  "hex": "02000000000101ff5197c03a248d42151aaf0283f9b07932d43aa9404a8da76f582bf48b95fa390000000000ffffffff015ba806000000000017a914b33882d259c1e340baac06eeb8862dd5278ce26287024730440220288bbb68f5e887ea437b313a0dc8e76f032ef20f2763a4258fb83e441ba07ca5022037c822b6057b8ba20b71d5c593fd96986c85cdd1e3f520a2059d94283bf46886012102575adbe8b76bbb939fcb704d4d83eeca770548d577d412a7722e771a41df2a8300000000"
}