{
  "txid": "7736f8e70461c14f7c8889de01455aa40845e2985764053bc005dd3186f513f6",
  "version": 1,
  "locktime": 0,
  "vin": [
    {
      "txid": "7d455ff7ca926f3fcc6077005904b2c3e06356ccc7190c5bec2fe0a372ff550f",
      "vout": 0,
      "prevout": {
        "scriptpubkey": "a91494ecfb9bd7fff3d0fa96da3e0c0fdc03e915878e87",
        "scriptpubkey_asm": "OP_HASH160 OP_PUSHBYTES_20 94ecfb9bd7fff3d0fa96da3e0c0fdc03e915878e OP_EQUAL",
        "scriptpubkey_type": "p2sh",
        "scriptpubkey_address": "3FGTpnruMS3Lb9RqZpGN7g8FKouRkR9hHX",
        "value": 163906
      },
      "scriptsig": "160014cf8c6f38826e18dfecbb5d36aa52a12132456ebf",
      "scriptsig_asm": "OP_PUSHBYTES_22 0014cf8c6f38826e18dfecbb5d36aa52a12132456ebf",
      "witness": [
        "3045022100c6adea9f1ec007c65666d5d9ef8509a3d5e92ee10f2cfa8afade9bbe1323daf5022076228e1f177d5c567af58770662f451eacce90f0e56278501a3e3dad18fd237601",
        "02e265110ca7e75ddcde47b10a514ff2b5f3b575e05141811d4f9e0d0a812d58c3"
      ],
      "is_coinbase": false,
      "sequence": 4294967295,
      "inner_redeemscript_asm": "OP_0 OP_PUSHBYTES_20 cf8c6f38826e18dfecbb5d36aa52a12132456ebf"
    }
  ],
  "vout": [
    {
      "scriptpubkey": "a9148e2e48a28e966a95cb09a4b395a8c430510ae97487",
      "scriptpubkey_asm": "OP_HASH160 OP_PUSHBYTES_20 8e2e48a28e966a95cb09a4b395a8c430510ae974 OP_EQUAL",
      "scriptpubkey_type": "p2sh",
      "scriptpubkey_address": "3EeoKdhpaiw5EQ24Q42p6swZtRpFyCSoTN",
      "value": 52245
    },
    {
      "scriptpubkey": "a914107bfb682030e89e5d86ea66a7f6622a98259b3f87",
      "scriptpubkey_asm": "OP_HASH160 OP_PUSHBYTES_20 107bfb682030e89e5d86ea66a7f6622a98259b3f OP_EQUAL",
      "scriptpubkey_type": "p2sh",
      "scriptpubkey_address": "33CBG389DK6uWhtYQNUUFtvtriaoiQD9QZ",
      "value": 104771
    }
  ],
  "size": 248,
  "weight": 662,
  "fee": 6890,
  "status": {
    "confirmed": true,
    "block_height": 834638,
    "block_hash": "000000000000000000025f742c626208ac87e0b7d15054abb4a19ca2d735a54e",
    "block_time": 1710405325
  },
  "hex": "010000000001010f55ff72a3e02fec5b0c19c7cc5663e0c3b20459007760cc3f6f92caf75f457d0000000017160014cf8c6f38826e18dfecbb5d36aa52a12132456ebfffffffff0215cc00000000000017a9148e2e48a28e966a95cb09a4b395a8c430510ae97487439901000000000017a914107bfb682030e89e5d86ea66a7f6622a98259b3f8702483045022100c6adea9f1ec007c65666d5d9ef8509a3d5e92ee10f2cfa8afade9bbe1323daf5022076228e1f177d5c567af58770662f451eacce90f0e56278501a3e3dad18fd2376012102e265110ca7e75ddcde47b10a514ff2b5f3b575e05141811d4f9e0d0a812d58c300000000"
}