{
  "txid": "774c908f167d44cacb2540ee143858bcf8ae4c969d6adeb30fff0c256bc191b8",
  "version": 2,
  "locktime": 0,
  "vin": [
    {
      "txid": "83b1303fd891f1954cd87c1d288a2a6bca51045bdda40133839448bcf0a9a8be",
      "vout": 2,
      "prevout": {
        "scriptpubkey": "512022738f6cd5f6c623d4bac3d0c04a739b7ad2bf02750781eab22bea099dc87ee7",
        "scriptpubkey_asm": "OP_PUSHNUM_1 OP_PUSHBYTES_32 22738f6cd5f6c623d4bac3d0c04a739b7ad2bf02750781eab22bea099dc87ee7",
        "scriptpubkey_type": "v1_p2tr",
        "scriptpubkey_address": "bc1pyfec7mx47mrz8496c0gvqjnnndad90czw5rcr64j904qn8wg0mnstzppa8",
        "value": 2850
      },
      "scriptsig": "",
      "scriptsig_asm": "",
      "witness": [
        "d08886aaf11732e28d5f8b750ce160b2c737803f9ada88dca57f0a3ec0ae879aab7e837ded798c15a7a54a1b0143c71630d9ba4b86d775960be5520a4b83b970",
        "2009361f6314ffb35e59f9d2835c21187ae8f222f04e4bde76936b8a321aa38912ac0063036f726401011e6170706c69636174696f6e2f6a736f6e3b636861727365743d7574662d38004cd27b2270223a22706f772d3230222c226f70223a226d696e74222c227469636b223a2250455045222c22616d74223a2231303030222c22736f6c7574696f6e223a22504550453a62633170687834336d6b6632633236366e63707a6c7a7067307636616b6a73713470386379736379327a706d746e38326e367a616c7667713972663737363a303030303030303030303030303030303030303139393431613561653132383937363539383134343239323533333030353762306461393666336465613163353a37393833333931323738227d68",
        "c043aa8de0991fd4b61b82f8195f6c835bc5de941a82824922fffa09f24edd0022"
      ],
      "is_coinbase": false,
      "sequence": 4294967295
    }
  ],
  "vout": [
    {
      "scriptpubkey": "5120b9ab1dd92ac2b5a9e022f88287b35db4a00a84f8243045083b5ccea9e85dfb10",
      "scriptpubkey_asm": "OP_PUSHNUM_1 OP_PUSHBYTES_32 b9ab1dd92ac2b5a9e022f88287b35db4a00a84f8243045083b5ccea9e85dfb10",
      "scriptpubkey_type": "v1_p2tr",
      "scriptpubkey_address": "bc1phx43mkf2c266ncpzlzpg0v6akjsq4p8cyscy2zpmtn82n6zalvgq9rf776",
      "value": 546
    }
  ],
  "size": 486,
  "weight": 768,
  "fee": 2304,
  "status": {
    "confirmed": true,
    "block_height": 834460,
    "block_hash": "00000000000000000000484a79b643b2524bbce82e5d8a442013fa5b8905ed98",
    "block_time": 1710307468
  },
  "hex": "02000000000101bea8a9f0bc4894833301a4dd5b0451ca6b2a8a281d7cd84c95f191d83f30b1830200000000ffffffff012202000000000000225120b9ab1dd92ac2b5a9e022f88287b35db4a00a84f8243045083b5ccea9e85dfb100340d08886aaf11732e28d5f8b750ce160b2c737803f9ada88dca57f0a3ec0ae879aab7e837ded798c15a7a54a1b0143c71630d9ba4b86d775960be5520a4b83b970fd1f012009361f6314ffb35e59f9d2835c21187ae8f222f04e4bde76936b8a321aa38912ac0063036f726401011e6170706c69636174696f6e2f6a736f6e3b636861727365743d7574662d38004cd27b2270223a22706f772d3230222c226f70223a226d696e74222c227469636b223a2250455045222c22616d74223a2231303030222c22736f6c7574696f6e223a22504550453a62633170687834336d6b6632633236366e63707a6c7a7067307636616b6a73713470386379736379327a706d746e38326e367a616c7667713972663737363a303030303030303030303030303030303030303139393431613561653132383937363539383134343239323533333030353762306461393666336465613163353a37393833333931323738227d6821c043aa8de0991fd4b61b82f8195f6c835bc5de941a82824922fffa09f24edd002200000000"
}