{
  "txid": "7758863fceda314b0a792657d3ed3a71194d496caf394e72fa6436007b6c0dd9",
  "version": 1,
  "locktime": 0,
  "vin": [
    {
      "txid": "056f6a9a22be1e02a3177108cd94c524f306a1fc4f1c9d9468dc59de953b1754",
      "vout": 1,
      "prevout": {
        "scriptpubkey": "0014eceaaad29054f060965961b8783a32ecd5f821ac",
        "scriptpubkey_asm": "OP_0 OP_PUSHBYTES_20 eceaaad29054f060965961b8783a32ecd5f821ac",
        "scriptpubkey_type": "v0_p2wpkh",
        "scriptpubkey_address": "bc1qan42455s2ncxp9jevxu8sw3jan2lsgdvka668s",
        "value": 84808
      },
      "scriptsig": "",
      "scriptsig_asm": "",
      "witness": [
        "3044022025b0da1856e3d374acaa27d13ccffe1274e3b502e0ea6e6a975a8861e38878b702204bfebb388840777a8cb79c43b80ec3d2da4d40025841416c3b88fd7dddb4d63301",
        "0245905c229c236d55710fa37a933a4857050165d5a98a957dc81daec0f96cea61"
      ],
      "is_coinbase": false,
      "sequence": 4294967295
    }
  ],
  "vout": [
    {
      "scriptpubkey": "76a914aa1c778023f0d87bc5d5f5c7d2e097bffa4cd28088ac",
      "scriptpubkey_asm": "OP_DUP OP_HASH160 OP_PUSHBYTES_20 aa1c778023f0d87bc5d5f5c7d2e097bffa4cd280 OP_EQUALVERIFY OP_CHECKSIG",
      "scriptpubkey_type": "p2pkh",
      "scriptpubkey_address": "1GWTyX74Lxp8WUka8SUFfKntSj1d4wXCLu",
      "value": 42000
    },
    {
      "scriptpubkey": "0014eceaaad29054f060965961b8783a32ecd5f821ac",
      "scriptpubkey_asm": "OP_0 OP_PUSHBYTES_20 eceaaad29054f060965961b8783a32ecd5f821ac",
      "scriptpubkey_type": "v0_p2wpkh",
      "scriptpubkey_address": "bc1qan42455s2ncxp9jevxu8sw3jan2lsgdvka668s",
      "value": 38920
    }
  ],
  "size": 225,
  "weight": 573,
  "fee": 3888,
  "status": {
    "confirmed": true,
    "block_height": 834638,
    "block_hash": "000000000000000000025f742c626208ac87e0b7d15054abb4a19ca2d735a54e",
    "block_time": 1710405325
  },
  "hex": "0100000000010154173b95de59dc68949d1c4ffca106f324c594cd087117a3021ebe229a6a6f050100000000ffffffff0210a40000000000001976a914aa1c778023f0d87bc5d5f5c7d2e097bffa4cd28088ac0898000000000000160014eceaaad29054f060965961b8783a32ecd5f821ac02473044022025b0da1856e3d374acaa27d13ccffe1274e3b502e0ea6e6a975a8861e38878b702204bfebb388840777a8cb79c43b80ec3d2da4d40025841416c3b88fd7dddb4d63301210245905c229c236d55710fa37a933a4857050165d5a98a957dc81daec0f96cea6100000000"
}