{
  "txid": "7762396939fda1cffc72c273232794bb9e8fea91af248528c408ec39a1436be6",
  "version": 1,
  "locktime": 0,
  "vin": [
    {
      "txid": "00b95b96d6faa619db7a45d319fbdc410f8e0ee212f4530709186817396273bf",
      "vout": 0,
      "prevout": {
        "scriptpubkey": "001448d50b120ecfd09ea5b8c76a72b47628af032c74",
        "scriptpubkey_asm": "OP_0 OP_PUSHBYTES_20 48d50b120ecfd09ea5b8c76a72b47628af032c74",
        "scriptpubkey_type": "v0_p2wpkh",
        "scriptpubkey_address": "bc1qfr2skyswelgfafdcca489drk9zhsxtr5kvvqz6",
        "value": 61239
      },
      "scriptsig": "",
      "scriptsig_asm": "",
      "witness": [
        "3045022100f848edc0772a4c510495f6fa82057e866d99def67ad3666e6e1c5d4881a9a4000220740f004baa987cde933d2003d3070951eb950f2330575749212a38a51a3f99ed01",
        "028fa096d873f8f6fd90cd10bb4901aef5178cf2b196099d56df8ee0998363d6d1"
      ],
      "is_coinbase": false,
      "sequence": 4294967295
    }
  ],
  "vout": [
    {
      "scriptpubkey": "00147b354319f07b43451eaec6105da5b7cad77b299c",
      "scriptpubkey_asm": "OP_0 OP_PUSHBYTES_20 7b354319f07b43451eaec6105da5b7cad77b299c",
      "scriptpubkey_type": "v0_p2wpkh",
      "scriptpubkey_address": "bc1q0v65xx0s0dp5284wccg9mfdhetthk2vu0knatj",
      "value": 58269
    }
  ],
  "size": 192,
  "weight": 438,
  "fee": 2970,
  "status": {
    "confirmed": true,
    "block_height": 834638,
    "block_hash": "000000000000000000025f742c626208ac87e0b7d15054abb4a19ca2d735a54e",
    "block_time": 1710405325
  },
  "hex": "01000000000101bf736239176818090753f412e20e8e0f41dcfb19d3457adb19a6fad6965bb9000000000000ffffffff019de30000000000001600147b354319f07b43451eaec6105da5b7cad77b299c02483045022100f848edc0772a4c510495f6fa82057e866d99def67ad3666e6e1c5d4881a9a4000220740f004baa987cde933d2003d3070951eb950f2330575749212a38a51a3f99ed0121028fa096d873f8f6fd90cd10bb4901aef5178cf2b196099d56df8ee0998363d6d100000000"
}