{
  "txid": "776595c53a1a39c135c9078b917b4824b7c4627ffbd54aefc2102c5d27db5b30",
  "version": 2,
  "locktime": 834637,
  "vin": [
    {
      "txid": "82165279ff017d9ab50e7aba8aa5b6e7c40dce4c88d69dcaa7cecf50ab313606",
      "vout": 1,
      "prevout": {
        "scriptpubkey": "001481a1950406250cf0cba651a9cc6164462dbdeaf3",
        "scriptpubkey_asm": "OP_0 OP_PUSHBYTES_20 81a1950406250cf0cba651a9cc6164462dbdeaf3",
        "scriptpubkey_type": "v0_p2wpkh",
        "scriptpubkey_address": "bc1qsxse2pqxy5x0pjax2x5ucctygckmm6hnt685cz",
        "value": 231851164
      },
      "scriptsig": "",
      "scriptsig_asm": "",
      "witness": [
        "304402206eacf46214698c1e3618540d3776763c2af325d3694cd8966861637379d46d230220311e3cc5bf9a2eb37bfad49e8bbc7022c0b428259324f8a79502e3f8873dc00c01",
        "036b9dd999b28cdb8332e2e221b578491eb0fd6e985aad103ad1d7a969dac39662"
      ],
      "is_coinbase": false,
      "sequence": 4294967294
    }
  ],
  "vout": [
    {
      "scriptpubkey": "00147cf43f0affbd001cba12ab867c9cb45e98117133",
      "scriptpubkey_asm": "OP_0 OP_PUSHBYTES_20 7cf43f0affbd001cba12ab867c9cb45e98117133",
      "scriptpubkey_type": "v0_p2wpkh",
      "scriptpubkey_address": "bc1q0n6r7zhlh5qpewsj4wr8e895t6vpzufnjkgkd8",
      "value": 231159184
    },
    {
      "scriptpubkey": "a9146db4e16893149dae2114e0fbf1175a95c9b61e2c87",
      "scriptpubkey_asm": "OP_HASH160 OP_PUSHBYTES_20 6db4e16893149dae2114e0fbf1175a95c9b61e2c OP_EQUAL",
      "scriptpubkey_type": "p2sh",
      "scriptpubkey_address": "3Bh6GFWBny2VzsTGDuZs7XCXqTnE7NMwVr",
      "value": 688500
    }
  ],
  "size": 223,
  "weight": 565,
  "fee": 3480,
  "status": {
    "confirmed": true,
    "block_height": 834638,
    "block_hash": "000000000000000000025f742c626208ac87e0b7d15054abb4a19ca2d735a54e",
    "block_time": 1710405325
  },
  "hex": "02000000000101063631ab50cfcea7ca9dd6884cce0dc4e7b6a58aba7a0eb59a7d01ff795216820100000000feffffff029035c70d000000001600147cf43f0affbd001cba12ab867c9cb45e9811713374810a000000000017a9146db4e16893149dae2114e0fbf1175a95c9b61e2c870247304402206eacf46214698c1e3618540d3776763c2af325d3694cd8966861637379d46d230220311e3cc5bf9a2eb37bfad49e8bbc7022c0b428259324f8a79502e3f8873dc00c0121036b9dd999b28cdb8332e2e221b578491eb0fd6e985aad103ad1d7a969dac396624dbc0c00"
}