{
  "txid": "7778c8aad8abce70ceb03aea8b2964a9436c1aa04d0157e2324e579fe25175b6",
  "version": 1,
  "locktime": 0,
  "vin": [
    {
      "txid": "0b6cc8e7eb05ed487f0a4044f534f69006a7d65a4389a3599a168c78ba4e45ac",
      "vout": 22,
      "prevout": {
        "scriptpubkey": "00148733e951679ac2ce3f8f2a85f7b070af78f01d85",
        "scriptpubkey_asm": "OP_0 OP_PUSHBYTES_20 8733e951679ac2ce3f8f2a85f7b070af78f01d85",
        "scriptpubkey_type": "v0_p2wpkh",
        "scriptpubkey_address": "bc1qsue7j5t8ntpvu0u092zl0vrs4au0q8v9agculf",
        "value": 71000
      },
      "scriptsig": "",
      "scriptsig_asm": "",
      "witness": [
        "304402205d2e81a46c567a99e92fa5d308e8de5406139b784b9ecbdb641a5440fc88f2f202206045cc55e619b93c9df563c8b70479e5915e05d67f4e9598b73add74c035134401",
        "03c016e7ce03f71fcdeb49e5a63a9f054f4e593d554ca5463562280656e98e4dbd"
      ],
      "is_coinbase": false,
      "sequence": 4294967295
    }
  ],
  "vout": [
    {
      "scriptpubkey": "a914e8da92184dcf2e2c0e99f8c1bb6b18b3acc91b2c87",
      "scriptpubkey_asm": "OP_HASH160 OP_PUSHBYTES_20 e8da92184dcf2e2c0e99f8c1bb6b18b3acc91b2c OP_EQUAL",
      "scriptpubkey_type": "p2sh",
      "scriptpubkey_address": "3NvEXc5vYtWehmQK6ZGhe6mfAfGuTikdKu",
      "value": 68003
    }
  ],
  "size": 192,
  "weight": 441,
  "fee": 2997,
  "status": {
    "confirmed": true,
    "block_height": 834638,
    "block_hash": "000000000000000000025f742c626208ac87e0b7d15054abb4a19ca2d735a54e",
    "block_time": 1710405325
  },
  "hex": "01000000000101ac454eba788c169a59a389435ad6a70690f634f544400a7f48ed05ebe7c86c0b1600000000ffffffff01a30901000000000017a914e8da92184dcf2e2c0e99f8c1bb6b18b3acc91b2c870247304402205d2e81a46c567a99e92fa5d308e8de5406139b784b9ecbdb641a5440fc88f2f202206045cc55e619b93c9df563c8b70479e5915e05d67f4e9598b73add74c0351344012103c016e7ce03f71fcdeb49e5a63a9f054f4e593d554ca5463562280656e98e4dbd00000000"
}