{
  "txid": "777b13e1ec0a4e48b38cd2ee7428f772286f0034f2dec764ed8c4d1c29b006bc",
  "version": 2,
  "locktime": 0,
  "vin": [
    {
      "txid": "e978a143b84b115dd941d222c880f33d7268530019b9ff336abd2da93caad53a",
      "vout": 11,
      "prevout": {
        "scriptpubkey": "a91455ca026e38c9e4941987dad79c0f7323128c4ccf87",
        "scriptpubkey_asm": "OP_HASH160 OP_PUSHBYTES_20 55ca026e38c9e4941987dad79c0f7323128c4ccf OP_EQUAL",
        "scriptpubkey_type": "p2sh",
        "scriptpubkey_address": "39WdMiRkqmthkFedCUEaHxQtS275VHRAeJ",
        "value": 151736
      },
      "scriptsig": "160014ee40c88679e8afeca798802485b571003270ff1c",
      "scriptsig_asm": "OP_PUSHBYTES_22 0014ee40c88679e8afeca798802485b571003270ff1c",
      "witness": [
        "3044022024922155e143351653cfe8b68acd3c2de4a0a487113a1f98ad97dcf91032fd17022006b3aa4b036b37217f48e641927aaebf67b0e389828ce82d5b3f9c373764c94701",
        "020a71605f414799c824b8f913b576fe12dec8ad7ba8ff8176ffc93613946a3e23"
      ],
      "is_coinbase": false,
      "sequence": 4294967293,
      "inner_redeemscript_asm": "OP_0 OP_PUSHBYTES_20 ee40c88679e8afeca798802485b571003270ff1c"
    }
  ],
  "vout": [
    {
      "scriptpubkey": "0014d7706eb50460efa1232d2d8cf18cf7a03fb8a105",
      "scriptpubkey_asm": "OP_0 OP_PUSHBYTES_20 d7706eb50460efa1232d2d8cf18cf7a03fb8a105",
      "scriptpubkey_type": "v0_p2wpkh",
      "scriptpubkey_address": "bc1q6acxadgyvrh6zged9kx0rr8h5qlm3gg98hd8mf",
      "value": 149932
    }
  ],
  "size": 214,
  "weight": 529,
  "fee": 1804,
  "status": {
    "confirmed": true,
    "block_height": 834460,
    "block_hash": "00000000000000000000484a79b643b2524bbce82e5d8a442013fa5b8905ed98",
    "block_time": 1710307468
  },
  "hex": "020000000001013ad5aa3ca92dbd6a33ffb919005368723df380c822d241d95d114bb843a178e90b00000017160014ee40c88679e8afeca798802485b571003270ff1cfdffffff01ac49020000000000160014d7706eb50460efa1232d2d8cf18cf7a03fb8a10502473044022024922155e143351653cfe8b68acd3c2de4a0a487113a1f98ad97dcf91032fd17022006b3aa4b036b37217f48e641927aaebf67b0e389828ce82d5b3f9c373764c9470121020a71605f414799c824b8f913b576fe12dec8ad7ba8ff8176ffc93613946a3e2300000000"
}