{
  "txid": "7784205cdbc3bcc107e2e458c9944e0254dc2fd7d7467ef8613816363cd46df5",
  "version": 2,
  "locktime": 0,
  "vin": [
    {
      "txid": "7dd6d8feb2a9ec5ddb60ed408e3806e53a7237637a95a45bf4005bc8d9aa5152",
      "vout": 0,
      "prevout": {
        "scriptpubkey": "0014a01371746e7a37aa721d0c771b8874aba34e5d85",
        "scriptpubkey_asm": "OP_0 OP_PUSHBYTES_20 a01371746e7a37aa721d0c771b8874aba34e5d85",
        "scriptpubkey_type": "v0_p2wpkh",
        "scriptpubkey_address": "bc1q5qfhzarw0gm65usap3m3hzr54w35uhv9sdt4nl",
        "value": 33513
      },
      "scriptsig": "",
      "scriptsig_asm": "",
      "witness": [
        "30440220489c143a0cbcb323a1d76d1f5c5c58754a49340a3450bbcbb73222a587af5a1f0220362977097943d5affcf3f3bb3c3fb70eafa2d86f85ac2c5bf4a0e5ec34bf76d301",
        "036164c9b3dc0e18625462ecb22fa7c402de4b6f94a9d6b79db72d9bd6341ffebc"
      ],
      "is_coinbase": false,
      "sequence": 4294967295
    }
  ],
  "vout": [
    {
      "scriptpubkey": "76a914853cc44188b5c3cfd75a5be1f6add048755e5bc888ac",
      "scriptpubkey_asm": "OP_DUP OP_HASH160 OP_PUSHBYTES_20 853cc44188b5c3cfd75a5be1f6add048755e5bc8 OP_EQUALVERIFY OP_CHECKSIG",
      "scriptpubkey_type": "p2pkh",
      "scriptpubkey_address": "1D9VferEokd6xsg1rZivZx8xqsEqJAH4Ww",
      "value": 14518
    },
    {
      "scriptpubkey": "001481aedee9bc04c6551c25afc782c3474e18f84f22",
      "scriptpubkey_asm": "OP_0 OP_PUSHBYTES_20 81aedee9bc04c6551c25afc782c3474e18f84f22",
      "scriptpubkey_type": "v0_p2wpkh",
      "scriptpubkey_address": "bc1qsxhda6duqnr928p94lrc9s68fcv0snez74ra9j",
      "value": 17424
    }
  ],
  "size": 225,
  "weight": 573,
  "fee": 1571,
  "status": {
    "confirmed": true,
    "block_height": 834464,
    "block_hash": "0000000000000000000177a0869a911a2b65c9bdcd5a8bcb02b68f305bee848e",
    "block_time": 1710308296
  },
  "hex": "020000000001015251aad9c85b00f45ba4957a6337723ae506388e40ed60db5deca9b2fed8d67d0000000000ffffffff02b6380000000000001976a914853cc44188b5c3cfd75a5be1f6add048755e5bc888ac104400000000000016001481aedee9bc04c6551c25afc782c3474e18f84f22024730440220489c143a0cbcb323a1d76d1f5c5c58754a49340a3450bbcbb73222a587af5a1f0220362977097943d5affcf3f3bb3c3fb70eafa2d86f85ac2c5bf4a0e5ec34bf76d30121036164c9b3dc0e18625462ecb22fa7c402de4b6f94a9d6b79db72d9bd6341ffebc00000000"
}