{
  "txid": "778568f790486a29c250a45d601120f30a83302e596e402e991c2fd97f196e60",
  "version": 1,
  "locktime": 0,
  "vin": [
    {
      "txid": "3b8ee868718a24f78db5448a289760226717d0be46960a8231fcc8d2b4bd4eca",
      "vout": 1,
      "prevout": {
        "scriptpubkey": "00142350492e4659dabeef2bf6147a4d8034b7a1ed2e",
        "scriptpubkey_asm": "OP_0 OP_PUSHBYTES_20 2350492e4659dabeef2bf6147a4d8034b7a1ed2e",
        "scriptpubkey_type": "v0_p2wpkh",
        "scriptpubkey_address": "bc1qydgyjtjxt8dtamet7c285nvqxjm6rmfwvy59vm",
        "value": 2091865
      },
      "scriptsig": "",
      "scriptsig_asm": "",
      "witness": [
        "3045022100b6f3f89319fcbc0892b83adb477f07fccb2d3ba3088bf042ffbfd45c10ecaedd02207536cbb140adaf1d8e8a5db55a37f8d54e7aa8a564904eb053b1683a186c321601",
        "02da76c27d63b26d5c4b728ef582bcc34ced720194faf43303125547278af18bfe"
      ],
      "is_coinbase": false,
      "sequence": 4294967295
    }
  ],
  "vout": [
    {
      "scriptpubkey": "a91424557ade8c9180daff0c08112a20fb11a43a4fcf87",
      "scriptpubkey_asm": "OP_HASH160 OP_PUSHBYTES_20 24557ade8c9180daff0c08112a20fb11a43a4fcf OP_EQUAL",
      "scriptpubkey_type": "p2sh",
      "scriptpubkey_address": "3518ehdLyC12J1ijFn1dztjXMs6ERvPQMy",
      "value": 1200000
    },
    {
      "scriptpubkey": "00142350492e4659dabeef2bf6147a4d8034b7a1ed2e",
      "scriptpubkey_asm": "OP_0 OP_PUSHBYTES_20 2350492e4659dabeef2bf6147a4d8034b7a1ed2e",
      "scriptpubkey_type": "v0_p2wpkh",
      "scriptpubkey_address": "bc1qydgyjtjxt8dtamet7c285nvqxjm6rmfwvy59vm",
      "value": 888031
    }
  ],
  "size": 224,
  "weight": 566,
  "fee": 3834,
  "status": {
    "confirmed": true,
    "block_height": 834460,
    "block_hash": "00000000000000000000484a79b643b2524bbce82e5d8a442013fa5b8905ed98",
    "block_time": 1710307468
  },
  "hex": "01000000000101ca4ebdb4d2c8fc31820a9646bed01767226097288a44b58df7248a7168e88e3b0100000000ffffffff02804f12000000000017a91424557ade8c9180daff0c08112a20fb11a43a4fcf87df8c0d00000000001600142350492e4659dabeef2bf6147a4d8034b7a1ed2e02483045022100b6f3f89319fcbc0892b83adb477f07fccb2d3ba3088bf042ffbfd45c10ecaedd02207536cbb140adaf1d8e8a5db55a37f8d54e7aa8a564904eb053b1683a186c3216012102da76c27d63b26d5c4b728ef582bcc34ced720194faf43303125547278af18bfe00000000"
}