{
  "txid": "77976e2f56bac20592276c5c67bad29d9ea5a3edf540c8083ca7450ff60250a5",
  "version": 2,
  "locktime": 0,
  "vin": [
    {
      "txid": "046288ea8d462c9059f0b8119824ec59b1fafa568837742f6254cb9d593e57bb",
      "vout": 2,
      "prevout": {
        "scriptpubkey": "5120538cd2b76f6b0b212f0c1f6c3b2a077aca73eb6c2811000c54a45fddb87ddb3d",
        "scriptpubkey_asm": "OP_PUSHNUM_1 OP_PUSHBYTES_32 538cd2b76f6b0b212f0c1f6c3b2a077aca73eb6c2811000c54a45fddb87ddb3d",
        "scriptpubkey_type": "v1_p2tr",
        "scriptpubkey_address": "bc1p2wxd9dm0dv9jztcvrakrk2s80t9886mv9qgsqrz5530amwramv7sgjrdvx",
        "value": 546
      },
      "scriptsig": "",
      "scriptsig_asm": "",
      "witness": [
        "a14a4215c0b183d54b31ead1c440b1c8447d9ea8286a1ce118653bccdd53e762e544e8200677423698f63124e886e98937128a2d6df619998042aa7370a4dd8b"
      ],
      "is_coinbase": false,
      "sequence": 4294967295
    },
    {
      "txid": "046288ea8d462c9059f0b8119824ec59b1fafa568837742f6254cb9d593e57bb",
      "vout": 0,
      "prevout": {
        "scriptpubkey": "5120538cd2b76f6b0b212f0c1f6c3b2a077aca73eb6c2811000c54a45fddb87ddb3d",
        "scriptpubkey_asm": "OP_PUSHNUM_1 OP_PUSHBYTES_32 538cd2b76f6b0b212f0c1f6c3b2a077aca73eb6c2811000c54a45fddb87ddb3d",
        "scriptpubkey_type": "v1_p2tr",
        "scriptpubkey_address": "bc1p2wxd9dm0dv9jztcvrakrk2s80t9886mv9qgsqrz5530amwramv7sgjrdvx",
        "value": 45479
      },
      "scriptsig": "",
      "scriptsig_asm": "",
      "witness": [
        "3f8d8ff1cc4dfb4ade6573e942eeb538bf321a6e424319d309d0ef279d6e184ff0e999b87a9fe62dd88df1dff07fc3d1906014a224fb965b68c4783f21306efe"
      ],
      "is_coinbase": false,
      "sequence": 4294967295
    }
  ],
  "vout": [
    {
      "scriptpubkey": "5120538cd2b76f6b0b212f0c1f6c3b2a077aca73eb6c2811000c54a45fddb87ddb3d",
      "scriptpubkey_asm": "OP_PUSHNUM_1 OP_PUSHBYTES_32 538cd2b76f6b0b212f0c1f6c3b2a077aca73eb6c2811000c54a45fddb87ddb3d",
      "scriptpubkey_type": "v1_p2tr",
      "scriptpubkey_address": "bc1p2wxd9dm0dv9jztcvrakrk2s80t9886mv9qgsqrz5530amwramv7sgjrdvx",
      "value": 546
    },
    {
      "scriptpubkey": "6a1152554e45414c5048415f5354414b494e47096338323937303835320436303030",
      "scriptpubkey_asm": "OP_RETURN OP_PUSHBYTES_17 52554e45414c5048415f5354414b494e47 OP_PUSHBYTES_9 633832393730383532 OP_PUSHBYTES_4 36303030",
      "scriptpubkey_type": "op_return",
      "value": 0
    },
    {
      "scriptpubkey": "5120538cd2b76f6b0b212f0c1f6c3b2a077aca73eb6c2811000c54a45fddb87ddb3d",
      "scriptpubkey_asm": "OP_PUSHNUM_1 OP_PUSHBYTES_32 538cd2b76f6b0b212f0c1f6c3b2a077aca73eb6c2811000c54a45fddb87ddb3d",
      "scriptpubkey_type": "v1_p2tr",
      "scriptpubkey_address": "bc1p2wxd9dm0dv9jztcvrakrk2s80t9886mv9qgsqrz5530amwramv7sgjrdvx",
      "value": 42191
    }
  ],
  "size": 355,
  "weight": 1018,
  "fee": 3288,
  "status": {
    "confirmed": true,
    "block_height": 834460,
    "block_hash": "00000000000000000000484a79b643b2524bbce82e5d8a442013fa5b8905ed98",
    "block_time": 1710307468
  },
  "hex": "02000000000102bb573e599dcb54622f74378856fafab159ec249811b8f059902c468dea8862040200000000ffffffffbb573e599dcb54622f74378856fafab159ec249811b8f059902c468dea8862040000000000ffffffff032202000000000000225120538cd2b76f6b0b212f0c1f6c3b2a077aca73eb6c2811000c54a45fddb87ddb3d0000000000000000226a1152554e45414c5048415f5354414b494e47096338323937303835320436303030cfa4000000000000225120538cd2b76f6b0b212f0c1f6c3b2a077aca73eb6c2811000c54a45fddb87ddb3d0140a14a4215c0b183d54b31ead1c440b1c8447d9ea8286a1ce118653bccdd53e762e544e8200677423698f63124e886e98937128a2d6df619998042aa7370a4dd8b01403f8d8ff1cc4dfb4ade6573e942eeb538bf321a6e424319d309d0ef279d6e184ff0e999b87a9fe62dd88df1dff07fc3d1906014a224fb965b68c4783f21306efe00000000"
}