{
  "txid": "7797f3a58d73c3ab36bb88215437846dc662b64120f977fa544b72ea8d321030",
  "version": 2,
  "locktime": 0,
  "vin": [
    {
      "txid": "51365609680e4519c2538f57486dc6e70d5e2bf66c58f57521bc3504d1a35836",
      "vout": 166,
      "prevout": {
        "scriptpubkey": "0014f7cc91beca64c62b2911309ec9e2427f3e334458",
        "scriptpubkey_asm": "OP_0 OP_PUSHBYTES_20 f7cc91beca64c62b2911309ec9e2427f3e334458",
        "scriptpubkey_type": "v0_p2wpkh",
        "scriptpubkey_address": "bc1q7lxfr0k2vnrzk2g3xz0vncjz0ulrx3zcy5rupp",
        "value": 305285
      },
      "scriptsig": "",
      "scriptsig_asm": "",
      "witness": [
        "3045022100eb1204dd4a746f2fc414c719b1028ceba11fb2f5f0580624add4ba14d9720a4b02205b82d6259548a84863f36fa98feb7b222252d12e3e099becd44cc78bb304fbe501",
        "03f2166d843ba40dcd70fcb5b13918e0405bb083c228716aac7ca7c5fa08b1cbb3"
      ],
      "is_coinbase": false,
      "sequence": 4294967295
    },
    {
      "txid": "36d0055981da76630efce280f00350e2ef3322c8fc8ed882836528ce23e53df3",
      "vout": 111,
      "prevout": {
        "scriptpubkey": "0014f7cc91beca64c62b2911309ec9e2427f3e334458",
        "scriptpubkey_asm": "OP_0 OP_PUSHBYTES_20 f7cc91beca64c62b2911309ec9e2427f3e334458",
        "scriptpubkey_type": "v0_p2wpkh",
        "scriptpubkey_address": "bc1q7lxfr0k2vnrzk2g3xz0vncjz0ulrx3zcy5rupp",
        "value": 289047
      },
      "scriptsig": "",
      "scriptsig_asm": "",
      "witness": [
        "30440220655554a3c255d0f79b2e3403fb02ec89cf879b569f48efe764bac40c1c107e58022036e06275ba84174cbf976d03a9254a849a1bb6364a4a5fee3091c268462c80a001",
        "03f2166d843ba40dcd70fcb5b13918e0405bb083c228716aac7ca7c5fa08b1cbb3"
      ],
      "is_coinbase": false,
      "sequence": 4294967295
    },
    {
      "txid": "7538833bf685789f38166282748a3e274d97a8d50a22d6e98dc0e388ace4f4dc",
      "vout": 12,
      "prevout": {
        "scriptpubkey": "0014f7cc91beca64c62b2911309ec9e2427f3e334458",
        "scriptpubkey_asm": "OP_0 OP_PUSHBYTES_20 f7cc91beca64c62b2911309ec9e2427f3e334458",
        "scriptpubkey_type": "v0_p2wpkh",
        "scriptpubkey_address": "bc1q7lxfr0k2vnrzk2g3xz0vncjz0ulrx3zcy5rupp",
        "value": 170666
      },
      "scriptsig": "",
      "scriptsig_asm": "",
      "witness": [
        "3045022100845f355cacc7a3687124c1ddf4ae0440662b2932472bf83be0adfc572052547d0220063bebe2d6b8f9c19a5a9b8efa1074a8ef330c88f135298fa65392f4bd50d07801",
        "03f2166d843ba40dcd70fcb5b13918e0405bb083c228716aac7ca7c5fa08b1cbb3"
      ],
      "is_coinbase": false,
      "sequence": 4294967295
    }
  ],
  "vout": [
    {
      "scriptpubkey": "a9143ed685e40ee4854a67037b544e3d238cf1c513e687",
      "scriptpubkey_asm": "OP_HASH160 OP_PUSHBYTES_20 3ed685e40ee4854a67037b544e3d238cf1c513e6 OP_EQUAL",
      "scriptpubkey_type": "p2sh",
      "scriptpubkey_address": "37RGokt22QN97yC55rnZtuijkkFpEwhn6u",
      "value": 626647
    },
    {
      "scriptpubkey": "0014009f6cb417597ffae8d69f9c365c416d0e5088ca",
      "scriptpubkey_asm": "OP_0 OP_PUSHBYTES_20 009f6cb417597ffae8d69f9c365c416d0e5088ca",
      "scriptpubkey_type": "v0_p2wpkh",
      "scriptpubkey_address": "bc1qqz0kedqht9ll46xkn7wrvhzpd589pzx2jg6h79",
      "value": 131973
    }
  ],
  "size": 521,
  "weight": 1109,
  "fee": 6378,
  "status": {
    "confirmed": true,
    "block_height": 834638,
    "block_hash": "000000000000000000025f742c626208ac87e0b7d15054abb4a19ca2d735a54e",
    "block_time": 1710405325
  },
  "hex": "020000000001033658a3d10435bc2175f5586cf62b5e0de7c66d48578f53c219450e6809563651a600000000fffffffff33de523ce28658382d88efcc82233efe25003f080e2fc0e6376da815905d0366f00000000ffffffffdcf4e4ac88e3c08de9d6220ad5a8974d273e8a74826216389f7885f63b8338750c00000000ffffffff02d78f09000000000017a9143ed685e40ee4854a67037b544e3d238cf1c513e6878503020000000000160014009f6cb417597ffae8d69f9c365c416d0e5088ca02483045022100eb1204dd4a746f2fc414c719b1028ceba11fb2f5f0580624add4ba14d9720a4b02205b82d6259548a84863f36fa98feb7b222252d12e3e099becd44cc78bb304fbe5012103f2166d843ba40dcd70fcb5b13918e0405bb083c228716aac7ca7c5fa08b1cbb3024730440220655554a3c255d0f79b2e3403fb02ec89cf879b569f48efe764bac40c1c107e58022036e06275ba84174cbf976d03a9254a849a1bb6364a4a5fee3091c268462c80a0012103f2166d843ba40dcd70fcb5b13918e0405bb083c228716aac7ca7c5fa08b1cbb302483045022100845f355cacc7a3687124c1ddf4ae0440662b2932472bf83be0adfc572052547d0220063bebe2d6b8f9c19a5a9b8efa1074a8ef330c88f135298fa65392f4bd50d078012103f2166d843ba40dcd70fcb5b13918e0405bb083c228716aac7ca7c5fa08b1cbb300000000"
}