{
  "txid": "779a5345eea3680a5f485fd7f4afe55f8bf09a8f832f68088fc095e4dfa1a490",
  "version": 2,
  "locktime": 0,
  "vin": [
    {
      "txid": "a423d20f5866e4195a686496f4e1531f6bfe2437fa1e27b62f6c505463bbce3b",
      "vout": 0,
      "prevout": {
        "scriptpubkey": "00142fe8f327bd243317b72b8ec50c0c72524e50d0b2",
        "scriptpubkey_asm": "OP_0 OP_PUSHBYTES_20 2fe8f327bd243317b72b8ec50c0c72524e50d0b2",
        "scriptpubkey_type": "v0_p2wpkh",
        "scriptpubkey_address": "bc1q9l50xfaayse30det3mzscrrj2f89p59jszruud",
        "value": 24789
      },
      "scriptsig": "",
      "scriptsig_asm": "",
      "witness": [
        "30450221008a4d13b858ed9e3bf48670fdb8c241d543f73ae5305e66e44fa8249c3612c097022040557ecee420d5c7edb43a68ad6fb774d0ef95045751263d9612ee8dae4031c601",
        "039731222153a5bdde440edd07ef2958d710517681e7dc4210ad0475913b9458e3"
      ],
      "is_coinbase": false,
      "sequence": 4294967293
    },
    {
      "txid": "e4f8d9dfd877c0051c85c18bf4c0c74077247bf6dbc9c141da44135822eda54d",
      "vout": 20,
      "prevout": {
        "scriptpubkey": "00142fe8f327bd243317b72b8ec50c0c72524e50d0b2",
        "scriptpubkey_asm": "OP_0 OP_PUSHBYTES_20 2fe8f327bd243317b72b8ec50c0c72524e50d0b2",
        "scriptpubkey_type": "v0_p2wpkh",
        "scriptpubkey_address": "bc1q9l50xfaayse30det3mzscrrj2f89p59jszruud",
        "value": 293000
      },
      "scriptsig": "",
      "scriptsig_asm": "",
      "witness": [
        "3045022100a97a84297177e20ff0f052f2a7eaa622a8d20f0f3ae3a642ce87a0a0e795ab9102203edd91186cbd4e137175fac79b7b0ec53eb7d215bf2c64a75c290df5e579144401",
        "039731222153a5bdde440edd07ef2958d710517681e7dc4210ad0475913b9458e3"
      ],
      "is_coinbase": false,
      "sequence": 4294967293
    }
  ],
  "vout": [
    {
      "scriptpubkey": "00147f10361cffac9d766fb4963a154edcae836bd77b",
      "scriptpubkey_asm": "OP_0 OP_PUSHBYTES_20 7f10361cffac9d766fb4963a154edcae836bd77b",
      "scriptpubkey_type": "v0_p2wpkh",
      "scriptpubkey_address": "bc1q0ugrv88l4jwhvma5jcap2nku46pkh4mmx49xq3",
      "value": 314307
    }
  ],
  "size": 341,
  "weight": 710,
  "fee": 3482,
  "status": {
    "confirmed": true,
    "block_height": 834552,
    "block_hash": "00000000000000000001dd0468a70c94f619251d286585cff57aeb4bd9ede330",
    "block_time": 1710355598
  },
  "hex": "020000000001023bcebb6354506c2fb6271efa3724fe6b1f53e1f49664685a19e466580fd223a40000000000fdffffff4da5ed22581344da41c1c9dbf67b247740c7c0f48bc1851c05c077d8dfd9f8e41400000000fdffffff01c3cb0400000000001600147f10361cffac9d766fb4963a154edcae836bd77b024830450221008a4d13b858ed9e3bf48670fdb8c241d543f73ae5305e66e44fa8249c3612c097022040557ecee420d5c7edb43a68ad6fb774d0ef95045751263d9612ee8dae4031c60121039731222153a5bdde440edd07ef2958d710517681e7dc4210ad0475913b9458e302483045022100a97a84297177e20ff0f052f2a7eaa622a8d20f0f3ae3a642ce87a0a0e795ab9102203edd91186cbd4e137175fac79b7b0ec53eb7d215bf2c64a75c290df5e57914440121039731222153a5bdde440edd07ef2958d710517681e7dc4210ad0475913b9458e300000000"
}