{
  "txid": "779bd37f9c733e8c3db8360081dc5036ed7d45a2c768cf984a0ef3ede67c205f",
  "version": 2,
  "locktime": 0,
  "vin": [
    {
      "txid": "602953ed8dfe47193cfc341d5b4d59b2d58fe634912a6b8678909ccdabec3516",
      "vout": 14,
      "prevout": {
        "scriptpubkey": "0014c8ae7170a4d963476431ab7d0a2fbba20e7021ef",
        "scriptpubkey_asm": "OP_0 OP_PUSHBYTES_20 c8ae7170a4d963476431ab7d0a2fbba20e7021ef",
        "scriptpubkey_type": "v0_p2wpkh",
        "scriptpubkey_address": "bc1qezh8zu9ym935wep34d7s5tam5g88qg007wmv6j",
        "value": 157000
      },
      "scriptsig": "",
      "scriptsig_asm": "",
      "witness": [
        "3045022100990a913ba7503580b9301305a7cf8916f985c9cf6fb351d1e21a7d654eafb15902207aadb32c3cf4fe29c58481f933aeff5f670dc2ed8e9c0c4b3be19f67c272846401",
        "03f10d54cfc2630db6ecb76e2b9c1b9fd4255df69c1c84e553a274239a60cc2f68"
      ],
      "is_coinbase": false,
      "sequence": 4294967293
    }
  ],
  "vout": [
    {
      "scriptpubkey": "76a914a64b4c5e13484a02c26e63415f5b1da31db97d3288ac",
      "scriptpubkey_asm": "OP_DUP OP_HASH160 OP_PUSHBYTES_20 a64b4c5e13484a02c26e63415f5b1da31db97d32 OP_EQUALVERIFY OP_CHECKSIG",
      "scriptpubkey_type": "p2pkh",
      "scriptpubkey_address": "1GAHNfQaYYKmFUBeGVvwZhiwHsspsMqiYr",
      "value": 155780
    }
  ],
  "size": 195,
  "weight": 450,
  "fee": 1220,
  "status": {
    "confirmed": true,
    "block_height": 834464,
    "block_hash": "0000000000000000000177a0869a911a2b65c9bdcd5a8bcb02b68f305bee848e",
    "block_time": 1710308296
  },
  "hex": "020000000001011635ecabcd9c9078866b2a9134e68fd5b2594d5b1d34fc3c1947fe8ded5329600e00000000fdffffff0184600200000000001976a914a64b4c5e13484a02c26e63415f5b1da31db97d3288ac02483045022100990a913ba7503580b9301305a7cf8916f985c9cf6fb351d1e21a7d654eafb15902207aadb32c3cf4fe29c58481f933aeff5f670dc2ed8e9c0c4b3be19f67c2728464012103f10d54cfc2630db6ecb76e2b9c1b9fd4255df69c1c84e553a274239a60cc2f6800000000"
}