{
  "txid": "779c3da046d1366ec072b2094427e7f3a7809a16a5f3ceddc5acc2527931d2b9",
  "version": 2,
  "locktime": 0,
  "vin": [
    {
      "txid": "12848a1f84ad552475e874cce291926f292412de23b7537898e98c7370f2e86c",
      "vout": 12,
      "prevout": {
        "scriptpubkey": "5120e1e434476eb8198788f378ff861ff36de69516e59b9d539169d6150eb7404bc4",
        "scriptpubkey_asm": "OP_PUSHNUM_1 OP_PUSHBYTES_32 e1e434476eb8198788f378ff861ff36de69516e59b9d539169d6150eb7404bc4",
        "scriptpubkey_type": "v1_p2tr",
        "scriptpubkey_address": "bc1pu8jrg3mwhqvc0z8n0rlcv8lndhnf29h9nww48ytf6c2sad6qf0zqsq2ql3",
        "value": 2358
      },
      "scriptsig": "",
      "scriptsig_asm": "",
      "witness": [
        "288e9cc0c216ca14ff0f56d20a700e6fed3e877f58d404301ee07c30b55a5a1c4a927d0fcfb2b231ead421a1ddcc5dd152130749bb0684b2d94aa2b7f44623f9",
        "203cd9dcf57c28a8d1a9b474c2bc1d2deaca01ca09da711d8d265a31d98f3cc105ac0063036f7264010118746578742f706c61696e3b636861727365743d7574662d3800377b2270223a226272632d3230222c226f70223a226d696e74222c227469636b223a22424f424f222c22616d74223a22313030303030227d68",
        "c0507504f881a2548efcb0bd8b5287fd78c473d5bd35b181abdd5c5cd6d10de204"
      ],
      "is_coinbase": false,
      "sequence": 4294967295
    }
  ],
  "vout": [
    {
      "scriptpubkey": "512048d62e6aa4ce9b4b4d760b1dc0c3e46b46d84be76ae456792a664139e7aaa19c",
      "scriptpubkey_asm": "OP_PUSHNUM_1 OP_PUSHBYTES_32 48d62e6aa4ce9b4b4d760b1dc0c3e46b46d84be76ae456792a664139e7aaa19c",
      "scriptpubkey_type": "v1_p2tr",
      "scriptpubkey_address": "bc1pfrtzu64ye6d5kntkpvwupslyddrdsjl8dtj9v7f2veqnnea25xwqu8ycu4",
      "value": 546
    }
  ],
  "size": 322,
  "weight": 604,
  "fee": 1812,
  "status": {
    "confirmed": true,
    "block_height": 834460,
    "block_hash": "00000000000000000000484a79b643b2524bbce82e5d8a442013fa5b8905ed98",
    "block_time": 1710307468
  },
  "hex": "020000000001016ce8f270738ce9987853b723de1224296f9291e2cc74e8752455ad841f8a84120c00000000ffffffff01220200000000000022512048d62e6aa4ce9b4b4d760b1dc0c3e46b46d84be76ae456792a664139e7aaa19c0340288e9cc0c216ca14ff0f56d20a700e6fed3e877f58d404301ee07c30b55a5a1c4a927d0fcfb2b231ead421a1ddcc5dd152130749bb0684b2d94aa2b7f44623f97d203cd9dcf57c28a8d1a9b474c2bc1d2deaca01ca09da711d8d265a31d98f3cc105ac0063036f7264010118746578742f706c61696e3b636861727365743d7574662d3800377b2270223a226272632d3230222c226f70223a226d696e74222c227469636b223a22424f424f222c22616d74223a22313030303030227d6821c0507504f881a2548efcb0bd8b5287fd78c473d5bd35b181abdd5c5cd6d10de20400000000"
}