{
  "txid": "779dba5cbe7df2a30aa2c5fb6ea01e4d138ae5f0daaba524566bd3591b9503d7",
  "version": 1,
  "locktime": 0,
  "vin": [
    {
      "txid": "9ae464f19a053a5fd90c2c3e43c4c78cbfe12961f5f6677715acdf5b07f8e893",
      "vout": 1,
      "prevout": {
        "scriptpubkey": "001494a51b11ef3cda7f4986dce3f7f6225bde1f5adc",
        "scriptpubkey_asm": "OP_0 OP_PUSHBYTES_20 94a51b11ef3cda7f4986dce3f7f6225bde1f5adc",
        "scriptpubkey_type": "v0_p2wpkh",
        "scriptpubkey_address": "bc1qjjj3ky008nd87jvxmn3l0a3zt00p7kkuphs3z4",
        "value": 1695575
      },
      "scriptsig": "",
      "scriptsig_asm": "",
      "witness": [
        "3045022100ce6ee1f658bd88a71fc3671bbb3fc825844d47a5f9eec71391665d381f40cf5b02204de1a0e612cf2b02d5d19d3596a77cd0d37a31550c5330c3e191d32206cd610701",
        "030b5f0f9b31415d2b646333d0aabc7b60e7f8f22557ce20c3dc168bc2c0c40637"
      ],
      "is_coinbase": false,
      "sequence": 4294967295
    }
  ],
  "vout": [
    {
      "scriptpubkey": "001439b81e1180c94eb808677d75ef300c630b37fb85",
      "scriptpubkey_asm": "OP_0 OP_PUSHBYTES_20 39b81e1180c94eb808677d75ef300c630b37fb85",
      "scriptpubkey_type": "v0_p2wpkh",
      "scriptpubkey_address": "bc1q8xupuyvqe98tszr804677vqvvv9n07u96d5j0x",
      "value": 272012
    },
    {
      "scriptpubkey": "001494a51b11ef3cda7f4986dce3f7f6225bde1f5adc",
      "scriptpubkey_asm": "OP_0 OP_PUSHBYTES_20 94a51b11ef3cda7f4986dce3f7f6225bde1f5adc",
      "scriptpubkey_type": "v0_p2wpkh",
      "scriptpubkey_address": "bc1qjjj3ky008nd87jvxmn3l0a3zt00p7kkuphs3z4",
      "value": 1419756
    }
  ],
  "size": 223,
  "weight": 562,
  "fee": 3807,
  "status": {
    "confirmed": true,
    "block_height": 834638,
    "block_hash": "000000000000000000025f742c626208ac87e0b7d15054abb4a19ca2d735a54e",
    "block_time": 1710405325
  },
  "hex": "0100000000010193e8f8075bdfac157767f6f56129e1bf8cc7c4433e2c0cd95f3a059af164e49a0100000000ffffffff028c2604000000000016001439b81e1180c94eb808677d75ef300c630b37fb85eca915000000000016001494a51b11ef3cda7f4986dce3f7f6225bde1f5adc02483045022100ce6ee1f658bd88a71fc3671bbb3fc825844d47a5f9eec71391665d381f40cf5b02204de1a0e612cf2b02d5d19d3596a77cd0d37a31550c5330c3e191d32206cd61070121030b5f0f9b31415d2b646333d0aabc7b60e7f8f22557ce20c3dc168bc2c0c4063700000000"
}