{
  "txid": "77b639918e7ff45cef74e7ccddde43a1dd1ca35e2aafbba0f7c673dbd5e77359",
  "version": 2,
  "locktime": 0,
  "vin": [
    {
      "txid": "b5b6ce342e52ee2c9fcf7439e6b248e7f2b13a1a734999c8cb719f6a3ec43a84",
      "vout": 0,
      "prevout": {
        "scriptpubkey": "0014d049f02f9c957031ae43e802dee7e3254e93c7cb",
        "scriptpubkey_asm": "OP_0 OP_PUSHBYTES_20 d049f02f9c957031ae43e802dee7e3254e93c7cb",
        "scriptpubkey_type": "v0_p2wpkh",
        "scriptpubkey_address": "bc1q6pylqtuuj4crrtjraqpdaelry48f837temwz2w",
        "value": 540000
      },
      "scriptsig": "",
      "scriptsig_asm": "",
      "witness": [
        "30450221008b8a2ce8a7a29ff7aa82b6f3fcae32518ef0ebe74407f0f1136d0fdb5db7bed702203a6815798d4210232af285b0c4ec5c08f25584115f22ffa25a7bf28c5530a0a201",
        "03e3a23fd7158968c486f511c25f6b60c7bf806d5f59330fa939e8ad38ccc0c830"
      ],
      "is_coinbase": false,
      "sequence": 4294967295
    }
  ],
  "vout": [
    {
      "scriptpubkey": "0014419854753506f2b3e771860f36eb919d89cc890f",
      "scriptpubkey_asm": "OP_0 OP_PUSHBYTES_20 419854753506f2b3e771860f36eb919d89cc890f",
      "scriptpubkey_type": "v0_p2wpkh",
      "scriptpubkey_address": "bc1qgxv9gaf4qmet8em3sc8nd6u3nkyuezg0cg9p36",
      "value": 2222
    },
    {
      "scriptpubkey": "001446ae89e900a2392f5a20d2ea07ce3cbfa9da63ec",
      "scriptpubkey_asm": "OP_0 OP_PUSHBYTES_20 46ae89e900a2392f5a20d2ea07ce3cbfa9da63ec",
      "scriptpubkey_type": "v0_p2wpkh",
      "scriptpubkey_address": "bc1qg6hgn6gq5guj7k3q6t4q0n3uh75a5clvgmykaw",
      "value": 535945
    }
  ],
  "size": 223,
  "weight": 562,
  "fee": 1833,
  "status": {
    "confirmed": true,
    "block_height": 834552,
    "block_hash": "00000000000000000001dd0468a70c94f619251d286585cff57aeb4bd9ede330",
    "block_time": 1710355598
  },
  "hex": "02000000000101843ac43e6a9f71cbc89949731a3ab1f2e748b2e63974cf9f2cee522e34ceb6b50000000000ffffffff02ae08000000000000160014419854753506f2b3e771860f36eb919d89cc890f892d08000000000016001446ae89e900a2392f5a20d2ea07ce3cbfa9da63ec024830450221008b8a2ce8a7a29ff7aa82b6f3fcae32518ef0ebe74407f0f1136d0fdb5db7bed702203a6815798d4210232af285b0c4ec5c08f25584115f22ffa25a7bf28c5530a0a2012103e3a23fd7158968c486f511c25f6b60c7bf806d5f59330fa939e8ad38ccc0c83000000000"
}