{
  "txid": "77cd6f09047912f2dc69a457a0f040285006d4bacc695031969d5265074d8767",
  "version": 2,
  "locktime": 0,
  "vin": [
    {
      "txid": "1bcc4f9df596c67961bcb3f50a804333605463132c3e41e5ebd18cc70c33eb84",
      "vout": 1,
      "prevout": {
        "scriptpubkey": "a914b40fdb21342fbee2cd2cc0fa74aa5c0968e13ada87",
        "scriptpubkey_asm": "OP_HASH160 OP_PUSHBYTES_20 b40fdb21342fbee2cd2cc0fa74aa5c0968e13ada OP_EQUAL",
        "scriptpubkey_type": "p2sh",
        "scriptpubkey_address": "3J76YmN7g99Pdvbs2UbStbMbMFjvP9BDf6",
        "value": 93394
      },
      "scriptsig": "16001488620453e7c3ba4933d08590c02041eae8d14580",
      "scriptsig_asm": "OP_PUSHBYTES_22 001488620453e7c3ba4933d08590c02041eae8d14580",
      "witness": [
        "3044022029fc6d93bda6356a529bafa9465a4b7f0afa608bf0d1bea7201c563f7d49399702200788fd25487ee22d8199cf25919b2db88c437e5d45a499f100683f3c6f8331d401",
        "025160144359803d93df84ec3873557eabb8ecd3fab79a4b4bdc1f3b88f1fa0bbb"
      ],
      "is_coinbase": false,
      "sequence": 4294967293,
      "inner_redeemscript_asm": "OP_0 OP_PUSHBYTES_20 88620453e7c3ba4933d08590c02041eae8d14580"
    }
  ],
  "vout": [
    {
      "scriptpubkey": "00147cf336d4f0a0a0aa49273bc9ff50f24d7dc43e48",
      "scriptpubkey_asm": "OP_0 OP_PUSHBYTES_20 7cf336d4f0a0a0aa49273bc9ff50f24d7dc43e48",
      "scriptpubkey_type": "v0_p2wpkh",
      "scriptpubkey_address": "bc1q0nend48s5zs25jf880yl758jf47ug0jg5005z9",
      "value": 91278
    }
  ],
  "size": 214,
  "weight": 529,
  "fee": 2116,
  "status": {
    "confirmed": true,
    "block_height": 834638,
    "block_hash": "000000000000000000025f742c626208ac87e0b7d15054abb4a19ca2d735a54e",
    "block_time": 1710405325
  },
  "hex": "0200000000010184eb330cc78cd1ebe5413e2c136354603343800af5b3bc6179c696f59d4fcc1b010000001716001488620453e7c3ba4933d08590c02041eae8d14580fdffffff018e640100000000001600147cf336d4f0a0a0aa49273bc9ff50f24d7dc43e4802473044022029fc6d93bda6356a529bafa9465a4b7f0afa608bf0d1bea7201c563f7d49399702200788fd25487ee22d8199cf25919b2db88c437e5d45a499f100683f3c6f8331d40121025160144359803d93df84ec3873557eabb8ecd3fab79a4b4bdc1f3b88f1fa0bbb00000000"
}