{
  "txid": "77e325d836081143a5915a55b92897c44f220ab07fe72cffd46b0c07a2d1629a",
  "version": 2,
  "locktime": 0,
  "vin": [
    {
      "txid": "5e9108bf5b1fc107dc8bf73e340931d2098aa4284a99eb15c93ee32ef42737f1",
      "vout": 1,
      "prevout": {
        "scriptpubkey": "001472f38abaa78d1a750726981eac265f7c50018ef5",
        "scriptpubkey_asm": "OP_0 OP_PUSHBYTES_20 72f38abaa78d1a750726981eac265f7c50018ef5",
        "scriptpubkey_type": "v0_p2wpkh",
        "scriptpubkey_address": "bc1qwtec4w4835d82pexnq02cfjl03gqrrh48l5v7a",
        "value": 440670
      },
      "scriptsig": "",
      "scriptsig_asm": "",
      "witness": [
        "3044022021d7bc137c3d1edda23eb74e56328101a9189d3bb11e4ad6cfea6ac2ea48b64e02207e4b4ba68ed082130a7c8065d56cba9ced24158341ff1ba2a968369c0b0ced2401",
        "02eccdbe3ee0dd313d720714d1588dfbb76451b27205273cfc8014e92aab4c5816"
      ],
      "is_coinbase": false,
      "sequence": 4294967295
    }
  ],
  "vout": [
    {
      "scriptpubkey": "001472f38abaa78d1a750726981eac265f7c50018ef5",
      "scriptpubkey_asm": "OP_0 OP_PUSHBYTES_20 72f38abaa78d1a750726981eac265f7c50018ef5",
      "scriptpubkey_type": "v0_p2wpkh",
      "scriptpubkey_address": "bc1qwtec4w4835d82pexnq02cfjl03gqrrh48l5v7a",
      "value": 363510
    },
    {
      "scriptpubkey": "0020b3a78e1162b00343ef16ac8fed9bcbb98defbae4657e4af3ff044a1f934efc3f",
      "scriptpubkey_asm": "OP_0 OP_PUSHBYTES_32 b3a78e1162b00343ef16ac8fed9bcbb98defbae4657e4af3ff044a1f934efc3f",
      "scriptpubkey_type": "v0_p2wsh",
      "scriptpubkey_address": "bc1qkwncuytzkqp58mck4j87mx7thxx7lwhyv4ly4ullq39ply6wlslsemly0j",
      "value": 74910
    }
  ],
  "size": 234,
  "weight": 609,
  "fee": 2250,
  "status": {
    "confirmed": true,
    "block_height": 834638,
    "block_hash": "000000000000000000025f742c626208ac87e0b7d15054abb4a19ca2d735a54e",
    "block_time": 1710405325
  },
  "hex": "02000000000101f13727f42ee33ec915eb994a28a48a09d23109343ef78bdc07c11f5bbf08915e0100000000ffffffff02f68b05000000000016001472f38abaa78d1a750726981eac265f7c50018ef59e24010000000000220020b3a78e1162b00343ef16ac8fed9bcbb98defbae4657e4af3ff044a1f934efc3f02473044022021d7bc137c3d1edda23eb74e56328101a9189d3bb11e4ad6cfea6ac2ea48b64e02207e4b4ba68ed082130a7c8065d56cba9ced24158341ff1ba2a968369c0b0ced24012102eccdbe3ee0dd313d720714d1588dfbb76451b27205273cfc8014e92aab4c581600000000"
}