{
  "txid": "77e3f135a992585dabf6208d1664d40e725b5bb0e591ca4885df36ce43a63b6e",
  "version": 2,
  "locktime": 0,
  "vin": [
    {
      "txid": "14e2167695fd53b97ae50c0a70e65ac4ef7ad1480621c0c13d9d798945a5d5dc",
      "vout": 13,
      "prevout": {
        "scriptpubkey": "51207ffb17dc1738ba3604cd15e4741d355e202b1227b73ee9c4fb2fc92f8934bb56",
        "scriptpubkey_asm": "OP_PUSHNUM_1 OP_PUSHBYTES_32 7ffb17dc1738ba3604cd15e4741d355e202b1227b73ee9c4fb2fc92f8934bb56",
        "scriptpubkey_type": "v1_p2tr",
        "scriptpubkey_address": "bc1p0la30hqh8zarvpxdzhj8g8f4tcszky38kulwn38m9lyjlzf5hdtqadukhr",
        "value": 2850
      },
      "scriptsig": "",
      "scriptsig_asm": "",
      "witness": [
        "df6f175b8610c4bdd474939e19820c4205aaf030a47d9d987869e200f762a9b7152f808ff2c2670bc9052930f2731297e0b2290edc5b394c5a195bb3162588b9",
        "208d2c66d960fac23f8200ce579b5be995b7f300ea56432eb44a478b16dd1f3c6fac0063036f726401011e6170706c69636174696f6e2f6a736f6e3b636861727365743d7574662d38004cd27b2270223a22706f772d3230222c226f70223a226d696e74222c227469636b223a2250455045222c22616d74223a2231303030222c22736f6c7574696f6e223a22504550453a62633170673935386e6b7a747678347271756e78676d747a6c35666e70666b633330776a323770777367396e6c706a786b796e64793671737376386c6b303a303030303030303030303030303030303030303139393431613561653132383937363539383134343239323533333030353762306461393666336465613163353a37323037383235393431227d68",
        "c1631b34e489e80d4fba35164e5ad52a60d66865df7d7db84d2adbf53ec13ca2a1"
      ],
      "is_coinbase": false,
      "sequence": 4294967295
    }
  ],
  "vout": [
    {
      "scriptpubkey": "5120416879d84b61aa30726646d62fd1330a6d88bdd25782e820b3f8646b126d2681",
      "scriptpubkey_asm": "OP_PUSHNUM_1 OP_PUSHBYTES_32 416879d84b61aa30726646d62fd1330a6d88bdd25782e820b3f8646b126d2681",
      "scriptpubkey_type": "v1_p2tr",
      "scriptpubkey_address": "bc1pg958nkztvx4rqunxgmtzl5fnpfkc30wj27pwsg9nlpjxkyndy6qssv8lk0",
      "value": 546
    }
  ],
  "size": 486,
  "weight": 768,
  "fee": 2304,
  "status": {
    "confirmed": true,
    "block_height": 834460,
    "block_hash": "00000000000000000000484a79b643b2524bbce82e5d8a442013fa5b8905ed98",
    "block_time": 1710307468
  },
  "hex": "02000000000101dcd5a54589799d3dc1c0210648d17aefc45ae6700a0ce57ab953fd957616e2140d00000000ffffffff012202000000000000225120416879d84b61aa30726646d62fd1330a6d88bdd25782e820b3f8646b126d26810340df6f175b8610c4bdd474939e19820c4205aaf030a47d9d987869e200f762a9b7152f808ff2c2670bc9052930f2731297e0b2290edc5b394c5a195bb3162588b9fd1f01208d2c66d960fac23f8200ce579b5be995b7f300ea56432eb44a478b16dd1f3c6fac0063036f726401011e6170706c69636174696f6e2f6a736f6e3b636861727365743d7574662d38004cd27b2270223a22706f772d3230222c226f70223a226d696e74222c227469636b223a2250455045222c22616d74223a2231303030222c22736f6c7574696f6e223a22504550453a62633170673935386e6b7a747678347271756e78676d747a6c35666e70666b633330776a323770777367396e6c706a786b796e64793671737376386c6b303a303030303030303030303030303030303030303139393431613561653132383937363539383134343239323533333030353762306461393666336465613163353a37323037383235393431227d6821c1631b34e489e80d4fba35164e5ad52a60d66865df7d7db84d2adbf53ec13ca2a100000000"
}