{
  "txid": "77efdf30843c610afbc2d42dc00d5a6e90fd57b1463b60f25dbd7103efb8889a",
  "version": 2,
  "locktime": 0,
  "vin": [
    {
      "txid": "8486ecb4df0880316dd6e82b3971b4df187aff23765bc3a47f8d78bb53aa273c",
      "vout": 46,
      "prevout": {
        "scriptpubkey": "5120ca23447852c29d881f86e2dd21e0eb5b6a9e3a2d55d0749160d8f75d2c51dfb4",
        "scriptpubkey_asm": "OP_PUSHNUM_1 OP_PUSHBYTES_32 ca23447852c29d881f86e2dd21e0eb5b6a9e3a2d55d0749160d8f75d2c51dfb4",
        "scriptpubkey_type": "v1_p2tr",
        "scriptpubkey_address": "bc1peg35g7zjc2wcs8uxutwjrc8ttd4fuw3d2hg8fytqmrm46tz3m76qdurrf7",
        "value": 2575
      },
      "scriptsig": "",
      "scriptsig_asm": "",
      "witness": [
        "ad5fd7cf0a45573730fb32088fd7877b7da434cd02681dd4832ab96a05c9292a003e491c35ad0a225891fb7608a2b6031e5628054f608dabf5cf882924fd1c07",
        "20b40e8e75d5038777a73dd2d19333136ef7e802fe88cbd81b4eec581fa64f9d58ac0063036f726401010a746578742f706c61696e00367b2270223a226272632d3230222c226f70223a226d696e74222c227469636b223a2261616161222c22616d74223a223130303030227d68",
        "c0b40e8e75d5038777a73dd2d19333136ef7e802fe88cbd81b4eec581fa64f9d58"
      ],
      "is_coinbase": false,
      "sequence": 4261412863
    }
  ],
  "vout": [
    {
      "scriptpubkey": "0014ddd7ef12ea6f78edcc1e8e7afa12c01ab59f3339",
      "scriptpubkey_asm": "OP_0 OP_PUSHBYTES_20 ddd7ef12ea6f78edcc1e8e7afa12c01ab59f3339",
      "scriptpubkey_type": "v0_p2wpkh",
      "scriptpubkey_address": "bc1qmht77yh2dauwmnq73ea05ykqr26e7veea8spz6",
      "value": 546
    }
  ],
  "size": 295,
  "weight": 541,
  "fee": 2029,
  "status": {
    "confirmed": true,
    "block_height": 834460,
    "block_hash": "00000000000000000000484a79b643b2524bbce82e5d8a442013fa5b8905ed98",
    "block_time": 1710307468
  },
  "hex": "020000000001013c27aa53bb788d7fa4c35b7623ff7a18dfb471392be8d66d318008dfb4ec86842e00000000fffffffd012202000000000000160014ddd7ef12ea6f78edcc1e8e7afa12c01ab59f33390340ad5fd7cf0a45573730fb32088fd7877b7da434cd02681dd4832ab96a05c9292a003e491c35ad0a225891fb7608a2b6031e5628054f608dabf5cf882924fd1c076e20b40e8e75d5038777a73dd2d19333136ef7e802fe88cbd81b4eec581fa64f9d58ac0063036f726401010a746578742f706c61696e00367b2270223a226272632d3230222c226f70223a226d696e74222c227469636b223a2261616161222c22616d74223a223130303030227d6821c0b40e8e75d5038777a73dd2d19333136ef7e802fe88cbd81b4eec581fa64f9d5800000000"
}