{
  "txid": "77f3eaaafe0e39820d9a9f3e35060a4812b18da65332df255a090cb4c80ed140",
  "version": 2,
  "locktime": 0,
  "vin": [
    {
      "txid": "6acb8665318ce556f908d2d8c5bbc69e597a45b1958bcff97600d1e432391ae1",
      "vout": 1,
      "prevout": {
        "scriptpubkey": "76a914b4f6db37e251816da9eea2d1d90aeb056b7ac17388ac",
        "scriptpubkey_asm": "OP_DUP OP_HASH160 OP_PUSHBYTES_20 b4f6db37e251816da9eea2d1d90aeb056b7ac173 OP_EQUALVERIFY OP_CHECKSIG",
        "scriptpubkey_type": "p2pkh",
        "scriptpubkey_address": "1HVrMQdSXXKDDB2WK9JiGCnERwraH5vS6Y",
        "value": 71492
      },
      "scriptsig": "47304402202a896961d3fa1707b1e4b40a53fb5661cfa4d475fa8e40a0ba65619859c3eb6b0220155701f9369fa3c731f10c41a6dea9465aea9ddb8cf5a1d47d02beaedf2a65c40121037a85accab78bae6cc5de7a6ad90094c5f62f37d51c76504da6f25eea32d0fc6d",
      "scriptsig_asm": "OP_PUSHBYTES_71 304402202a896961d3fa1707b1e4b40a53fb5661cfa4d475fa8e40a0ba65619859c3eb6b0220155701f9369fa3c731f10c41a6dea9465aea9ddb8cf5a1d47d02beaedf2a65c401 OP_PUSHBYTES_33 037a85accab78bae6cc5de7a6ad90094c5f62f37d51c76504da6f25eea32d0fc6d",
      "is_coinbase": false,
      "sequence": 4294967295
    },
    {
      "txid": "ac9150a46633e8e03319b4207d597acfc97c87eec37a5c29d2fa570136fb9760",
      "vout": 1,
      "prevout": {
        "scriptpubkey": "76a91401e6cd55051b4d942ee291da239626dbe136f11e88ac",
        "scriptpubkey_asm": "OP_DUP OP_HASH160 OP_PUSHBYTES_20 01e6cd55051b4d942ee291da239626dbe136f11e OP_EQUALVERIFY OP_CHECKSIG",
        "scriptpubkey_type": "p2pkh",
        "scriptpubkey_address": "1B4Abt4VZHffkPHqztWT84Gxn3WndAcX3",
        "value": 91314
      },
      "scriptsig": "47304402206898c1daa2f1761ed0dae4ea34fbca89efa99a572d42dd764c278faaa43d55bb022069a3dcb0d82a542d38805b1e42952161e08e52b7bfb05cfbf50f6d9b2ff06a84012102b918af365436657afbdbf94f76bd49a727115ae0fb80bd3251e206671bea5233",
      "scriptsig_asm": "OP_PUSHBYTES_71 304402206898c1daa2f1761ed0dae4ea34fbca89efa99a572d42dd764c278faaa43d55bb022069a3dcb0d82a542d38805b1e42952161e08e52b7bfb05cfbf50f6d9b2ff06a8401 OP_PUSHBYTES_33 02b918af365436657afbdbf94f76bd49a727115ae0fb80bd3251e206671bea5233",
      "is_coinbase": false,
      "sequence": 4294967295
    },
    {
      "txid": "1b976d1c4ee9d3241848b576bdc051c9dc31fff0db234e2fb83bd9717e8009b1",
      "vout": 1,
      "prevout": {
        "scriptpubkey": "76a914b4f6db37e251816da9eea2d1d90aeb056b7ac17388ac",
        "scriptpubkey_asm": "OP_DUP OP_HASH160 OP_PUSHBYTES_20 b4f6db37e251816da9eea2d1d90aeb056b7ac173 OP_EQUALVERIFY OP_CHECKSIG",
        "scriptpubkey_type": "p2pkh",
        "scriptpubkey_address": "1HVrMQdSXXKDDB2WK9JiGCnERwraH5vS6Y",
        "value": 141307
      },
      "scriptsig": "483045022100c19c4bdd405e3501a5ddb1934d13c48a98175d7a012c0c065d139fc0e613e5be022075ee54e824f3dbb6f2ad5cd5222e02d6f4a6a3bb5948a5710ed523008aebaa130121037a85accab78bae6cc5de7a6ad90094c5f62f37d51c76504da6f25eea32d0fc6d",
      "scriptsig_asm": "OP_PUSHBYTES_72 3045022100c19c4bdd405e3501a5ddb1934d13c48a98175d7a012c0c065d139fc0e613e5be022075ee54e824f3dbb6f2ad5cd5222e02d6f4a6a3bb5948a5710ed523008aebaa1301 OP_PUSHBYTES_33 037a85accab78bae6cc5de7a6ad90094c5f62f37d51c76504da6f25eea32d0fc6d",
      "is_coinbase": false,
      "sequence": 4294967295
    }
  ],
  "vout": [
    {
      "scriptpubkey": "00141494076fd4b48d1a414629d622449a962a3f4d27",
      "scriptpubkey_asm": "OP_0 OP_PUSHBYTES_20 1494076fd4b48d1a414629d622449a962a3f4d27",
      "scriptpubkey_type": "v0_p2wpkh",
      "scriptpubkey_address": "bc1qzj2qwm75kjx35s2x98tzy3y6jc4r7nf8v7dtxa",
      "value": 285766
    }
  ],
  "size": 483,
  "weight": 1932,
  "fee": 18347,
  "status": {
    "confirmed": true,
    "block_height": 834638,
    "block_hash": "000000000000000000025f742c626208ac87e0b7d15054abb4a19ca2d735a54e",
    "block_time": 1710405325
  },
  "hex": "0200000003e11a3932e4d10076f9cf8b95b1457a599ec6bbc5d8d208f956e58c316586cb6a010000006a47304402202a896961d3fa1707b1e4b40a53fb5661cfa4d475fa8e40a0ba65619859c3eb6b0220155701f9369fa3c731f10c41a6dea9465aea9ddb8cf5a1d47d02beaedf2a65c40121037a85accab78bae6cc5de7a6ad90094c5f62f37d51c76504da6f25eea32d0fc6dffffffff6097fb360157fad2295c7ac3ee877cc9cf7a597d20b41933e0e83366a45091ac010000006a47304402206898c1daa2f1761ed0dae4ea34fbca89efa99a572d42dd764c278faaa43d55bb022069a3dcb0d82a542d38805b1e42952161e08e52b7bfb05cfbf50f6d9b2ff06a84012102b918af365436657afbdbf94f76bd49a727115ae0fb80bd3251e206671bea5233ffffffffb109807e71d93bb82f4e23dbf0ff31dcc951c0bd76b5481824d3e94e1c6d971b010000006b483045022100c19c4bdd405e3501a5ddb1934d13c48a98175d7a012c0c065d139fc0e613e5be022075ee54e824f3dbb6f2ad5cd5222e02d6f4a6a3bb5948a5710ed523008aebaa130121037a85accab78bae6cc5de7a6ad90094c5f62f37d51c76504da6f25eea32d0fc6dffffffff01465c0400000000001600141494076fd4b48d1a414629d622449a962a3f4d2700000000"
}