{
  "txid": "780cf7f4b8d0d3c00b079d56ae1e4124ce38589ade63704f808e18993deab4b5",
  "version": 2,
  "locktime": 0,
  "vin": [
    {
      "txid": "ad99fb091206398947a32e09a398d60726bc9d3f1ec5caad40e7ee519839043b",
      "vout": 1,
      "prevout": {
        "scriptpubkey": "001436945e1dbf81c9c0e537af333c4d8aeb6ad88177",
        "scriptpubkey_asm": "OP_0 OP_PUSHBYTES_20 36945e1dbf81c9c0e537af333c4d8aeb6ad88177",
        "scriptpubkey_type": "v0_p2wpkh",
        "scriptpubkey_address": "bc1qx629u8dls8yupefh4uencnv2ad4d3qth0xx4wz",
        "value": 440524
      },
      "scriptsig": "",
      "scriptsig_asm": "",
      "witness": [
        "3045022100d5c2ee329e07e3039f399a378bed27f34bec5750d5df3f0e8b32c8c0aa41b6ea0220259d6ee76dc44fc953ec39ebf75e2124b31b40fc5b2b02f683ca0af39d10959c01",
        "02b65e8dfb4bb0155b26df6645f615555dcce4fa1a4edff7ef7c9f6879c3c276a7"
      ],
      "is_coinbase": false,
      "sequence": 0
    },
    {
      "txid": "176735a82d1749473dba406515511f68cbf4469f6862527ca7367a367bf36ddc",
      "vout": 1,
      "prevout": {
        "scriptpubkey": "0014cd08f530d8ceadc512d66b7b66ee136abe3b0c0d",
        "scriptpubkey_asm": "OP_0 OP_PUSHBYTES_20 cd08f530d8ceadc512d66b7b66ee136abe3b0c0d",
        "scriptpubkey_type": "v0_p2wpkh",
        "scriptpubkey_address": "bc1qe5y02vxce6ku2ykkddakdmsnd2lrkrqdaaqnyy",
        "value": 13331703
      },
      "scriptsig": "",
      "scriptsig_asm": "",
      "witness": [
        "3044022032a77e5f3c78e791c9d8b69f7861249753c5ab9ae7e11f1218b7b9a5eee1134302206c14f8fe1b3c8e04107f40a1f49791fdf5618fcf9e8293b155eba2003a18798301",
        "02646d86a6045a904ddcf6efd116b296abbf6c1ddb34c60a66f2ddcdbf2cce1189"
      ],
      "is_coinbase": false,
      "sequence": 0
    }
  ],
  "vout": [
    {
      "scriptpubkey": "a914286cd7680a985724f943de7195ec62f653d0f2a087",
      "scriptpubkey_asm": "OP_HASH160 OP_PUSHBYTES_20 286cd7680a985724f943de7195ec62f653d0f2a0 OP_EQUAL",
      "scriptpubkey_type": "p2sh",
      "scriptpubkey_address": "35NmLenEoon3hXjDWJb98mkWmg4aVqMbrL",
      "value": 12248073
    },
    {
      "scriptpubkey": "0014ba4e2738ab556ac6ca5a93a94f83c13738394213",
      "scriptpubkey_asm": "OP_0 OP_PUSHBYTES_20 ba4e2738ab556ac6ca5a93a94f83c13738394213",
      "scriptpubkey_type": "v0_p2wpkh",
      "scriptpubkey_address": "bc1qhf8zww9t244vdjj6jw55lq7pxuurjssn83lf9f",
      "value": 1520392
    }
  ],
  "size": 372,
  "weight": 837,
  "fee": 3762,
  "status": {
    "confirmed": true,
    "block_height": 834638,
    "block_hash": "000000000000000000025f742c626208ac87e0b7d15054abb4a19ca2d735a54e",
    "block_time": 1710405325
  },
  "hex": "020000000001023b04399851eee740adcac51e3f9dbc2607d698a3092ea3478939061209fb99ad010000000000000000dc6df37b367a36a77c5262689f46f4cb681f51156540ba3d4749172da83567170100000000000000000209e4ba000000000017a914286cd7680a985724f943de7195ec62f653d0f2a0870833170000000000160014ba4e2738ab556ac6ca5a93a94f83c1373839421302483045022100d5c2ee329e07e3039f399a378bed27f34bec5750d5df3f0e8b32c8c0aa41b6ea0220259d6ee76dc44fc953ec39ebf75e2124b31b40fc5b2b02f683ca0af39d10959c012102b65e8dfb4bb0155b26df6645f615555dcce4fa1a4edff7ef7c9f6879c3c276a702473044022032a77e5f3c78e791c9d8b69f7861249753c5ab9ae7e11f1218b7b9a5eee1134302206c14f8fe1b3c8e04107f40a1f49791fdf5618fcf9e8293b155eba2003a187983012102646d86a6045a904ddcf6efd116b296abbf6c1ddb34c60a66f2ddcdbf2cce118900000000"
}