{
  "txid": "780d298936dd67f594bbb737af993fcc87384be16b0240a4f591aa02d87d660c",
  "version": 1,
  "locktime": 0,
  "vin": [
    {
      "txid": "9bf827b1001e47e14bf2ecb1504fed1a4973317129e1b4302df187c6b662feb7",
      "vout": 1,
      "prevout": {
        "scriptpubkey": "0014470b149f09fabca0c6ab4ebc9219dc8e7b7b3d87",
        "scriptpubkey_asm": "OP_0 OP_PUSHBYTES_20 470b149f09fabca0c6ab4ebc9219dc8e7b7b3d87",
        "scriptpubkey_type": "v0_p2wpkh",
        "scriptpubkey_address": "bc1qgu93f8cfl272p34tf67fyxwu3eahk0v85n370t",
        "value": 5387649
      },
      "scriptsig": "",
      "scriptsig_asm": "",
      "witness": [
        "304402203838f1898c25cd22088f2909bf930cf5090eeff1d36c3328880e4c10fbf311c202201b492c8eeafb2c9a71f7529f2b8abce0449405f1683b52c2605d67457f4e95b301",
        "02c03a95f60dd43012c0e3ee67e2adba4d70bf97e210b2514d0d15ae113f4eb757"
      ],
      "is_coinbase": false,
      "sequence": 4294967295
    }
  ],
  "vout": [
    {
      "scriptpubkey": "a9146e8fdfb32c3f4a1da4aa9ca42eb7547d34387cb887",
      "scriptpubkey_asm": "OP_HASH160 OP_PUSHBYTES_20 6e8fdfb32c3f4a1da4aa9ca42eb7547d34387cb8 OP_EQUAL",
      "scriptpubkey_type": "p2sh",
      "scriptpubkey_address": "3BmccB3FgGYJDaWa9Fc35bLBTCWLWyJAiq",
      "value": 1482997
    },
    {
      "scriptpubkey": "0014785a2de45be9deafc62138c63930e48d20b73e31",
      "scriptpubkey_asm": "OP_0 OP_PUSHBYTES_20 785a2de45be9deafc62138c63930e48d20b73e31",
      "scriptpubkey_type": "v0_p2wpkh",
      "scriptpubkey_address": "bc1q0pdzmezma802l33p8rrrjv8y35stw033v4xelh",
      "value": 3900831
    }
  ],
  "size": 223,
  "weight": 565,
  "fee": 3821,
  "status": {
    "confirmed": true,
    "block_height": 834638,
    "block_hash": "000000000000000000025f742c626208ac87e0b7d15054abb4a19ca2d735a54e",
    "block_time": 1710405325
  },
  "hex": "01000000000101b7fe62b6c687f12d30b4e129713173491aed4f50b1ecf24be1471e00b127f89b0100000000ffffffff02f5a016000000000017a9146e8fdfb32c3f4a1da4aa9ca42eb7547d34387cb8879f853b0000000000160014785a2de45be9deafc62138c63930e48d20b73e310247304402203838f1898c25cd22088f2909bf930cf5090eeff1d36c3328880e4c10fbf311c202201b492c8eeafb2c9a71f7529f2b8abce0449405f1683b52c2605d67457f4e95b3012102c03a95f60dd43012c0e3ee67e2adba4d70bf97e210b2514d0d15ae113f4eb75700000000"
}