{
  "txid": "782091cc73972341edfdd20da4bb9935148a790149022768397066167efd0e81",
  "version": 2,
  "locktime": 0,
  "vin": [
    {
      "txid": "15cfde10dd3addd46a739f1843b2a1c5925f18a0f1d8ff3d789425d2f515b0cb",
      "vout": 0,
      "prevout": {
        "scriptpubkey": "512055b28a5b11dbc016de90c919f47c7930cb465fdd421e3ece2f0820c55c2cd53d",
        "scriptpubkey_asm": "OP_PUSHNUM_1 OP_PUSHBYTES_32 55b28a5b11dbc016de90c919f47c7930cb465fdd421e3ece2f0820c55c2cd53d",
        "scriptpubkey_type": "v1_p2tr",
        "scriptpubkey_address": "bc1p2keg5kc3m0qpdh5seyvlglrexr95vh7agg0ran30pqsv2hpv657ssn8ccu",
        "value": 1500000
      },
      "scriptsig": "",
      "scriptsig_asm": "",
      "witness": [
        "3500a14c183fbaf4827bc82ade1c660f9397729eae2b3f8216686ce3fcf1c9e740becd01a83d3b305ba50aeb141a764401c81a5bb0c0d72da1ca35f509862a79"
      ],
      "is_coinbase": false,
      "sequence": 4294967295
    }
  ],
  "vout": [
    {
      "scriptpubkey": "a914ebe3273cf50fbcdf187adbbbc2ec350d97b1831f87",
      "scriptpubkey_asm": "OP_HASH160 OP_PUSHBYTES_20 ebe3273cf50fbcdf187adbbbc2ec350d97b1831f OP_EQUAL",
      "scriptpubkey_type": "p2sh",
      "scriptpubkey_address": "3PCGqWY7MgnypVbB9SSthvrgUy78aPoR3K",
      "value": 1100000
    },
    {
      "scriptpubkey": "512055b28a5b11dbc016de90c919f47c7930cb465fdd421e3ece2f0820c55c2cd53d",
      "scriptpubkey_asm": "OP_PUSHNUM_1 OP_PUSHBYTES_32 55b28a5b11dbc016de90c919f47c7930cb465fdd421e3ece2f0820c55c2cd53d",
      "scriptpubkey_type": "v1_p2tr",
      "scriptpubkey_address": "bc1p2keg5kc3m0qpdh5seyvlglrexr95vh7agg0ran30pqsv2hpv657ssn8ccu",
      "value": 398284
    }
  ],
  "size": 194,
  "weight": 572,
  "fee": 1716,
  "status": {
    "confirmed": true,
    "block_height": 834460,
    "block_hash": "00000000000000000000484a79b643b2524bbce82e5d8a442013fa5b8905ed98",
    "block_time": 1710307468
  },
  "hex": "02000000000101cbb015f5d22594783dffd8f1a0185f92c5a1b243189f736ad4dd3add10decf150000000000ffffffff02e0c810000000000017a914ebe3273cf50fbcdf187adbbbc2ec350d97b1831f87cc1306000000000022512055b28a5b11dbc016de90c919f47c7930cb465fdd421e3ece2f0820c55c2cd53d01403500a14c183fbaf4827bc82ade1c660f9397729eae2b3f8216686ce3fcf1c9e740becd01a83d3b305ba50aeb141a764401c81a5bb0c0d72da1ca35f509862a7900000000"
}