{
  "txid": "78213d2c3b55606c37144b41238f9c542f2570fa701d1645ba58d38b2e838fec",
  "version": 1,
  "locktime": 0,
  "vin": [
    {
      "txid": "888888fb314adc48336c55970bfa0be5d3ca570a8f36351f9b1a747452cce7c2",
      "vout": 0,
      "prevout": {
        "scriptpubkey": "512091be1d4a82c704f6c3616320a21900a0f2ada011444eb3fc20c8831d86c3258e",
        "scriptpubkey_asm": "OP_PUSHNUM_1 OP_PUSHBYTES_32 91be1d4a82c704f6c3616320a21900a0f2ada011444eb3fc20c8831d86c3258e",
        "scriptpubkey_type": "v1_p2tr",
        "scriptpubkey_address": "bc1pjxlp6j5zcuz0dsmpvvs2yxgq5re2mgq3g38t8lpqezp3mpkryk8qj6p9da",
        "value": 11622
      },
      "scriptsig": "",
      "scriptsig_asm": "",
      "witness": [
        "1d97fa2f9be9aaf707ff83fc95cef08efbeb66eaf957c1eb3a7f60cace091012db25322f08772a3c92f9ad63a01eca103f7dd8e483fb267713ccf376ca1016e9",
        "20dfa7325ed77fab28d796d113dcead29a7490c58aaa244f71cf02d52f6b761081ac00630461746f6d03646d7440a16461726773a46474696d651a65dc4b33656e6f6e63650068626974776f726b63693838383838382e31356b6d696e745f7469636b657268696e66696e69747968",
        "c1dfa7325ed77fab28d796d113dcead29a7490c58aaa244f71cf02d52f6b761081"
      ],
      "is_coinbase": false,
      "sequence": 0
    }
  ],
  "vout": [
    {
      "scriptpubkey": "51200d2714e7deae4b333de84acccd844ae45cf4c3fd597d7d3c632c9992e9c9d34e",
      "scriptpubkey_asm": "OP_PUSHNUM_1 OP_PUSHBYTES_32 0d2714e7deae4b333de84acccd844ae45cf4c3fd597d7d3c632c9992e9c9d34e",
      "scriptpubkey_type": "v1_p2tr",
      "scriptpubkey_address": "bc1pp5n3fe774e9nx00gftxvmpz2u3w0fslat97h60rr9jve96wf6d8qttg56w",
      "value": 9999
    }
  ],
  "size": 308,
  "weight": 590,
  "fee": 1623,
  "status": {
    "confirmed": true,
    "block_height": 834464,
    "block_hash": "0000000000000000000177a0869a911a2b65c9bdcd5a8bcb02b68f305bee848e",
    "block_time": 1710308296
  },
  "hex": "01000000000101c2e7cc5274741a9b1f35368f0a57cad3e50bfa0b97556c3348dc4a31fb888888000000000000000000010f270000000000002251200d2714e7deae4b333de84acccd844ae45cf4c3fd597d7d3c632c9992e9c9d34e03401d97fa2f9be9aaf707ff83fc95cef08efbeb66eaf957c1eb3a7f60cace091012db25322f08772a3c92f9ad63a01eca103f7dd8e483fb267713ccf376ca1016e96f20dfa7325ed77fab28d796d113dcead29a7490c58aaa244f71cf02d52f6b761081ac00630461746f6d03646d7440a16461726773a46474696d651a65dc4b33656e6f6e63650068626974776f726b63693838383838382e31356b6d696e745f7469636b657268696e66696e6974796821c1dfa7325ed77fab28d796d113dcead29a7490c58aaa244f71cf02d52f6b76108100000000"
}