{
  "txid": "7831f9e2a958e760f542cde5c8f3309881fc37b30ce7f18de49c83a28b2235f1",
  "version": 2,
  "locktime": 0,
  "vin": [
    {
      "txid": "0778eba582c0e47cae8ea48d3e0b0ee863c98c9b428551424f9423e4fc461718",
      "vout": 0,
      "prevout": {
        "scriptpubkey": "a914d930f8b93b2176ec40d6c91a0e57878e1281835687",
        "scriptpubkey_asm": "OP_HASH160 OP_PUSHBYTES_20 d930f8b93b2176ec40d6c91a0e57878e12818356 OP_EQUAL",
        "scriptpubkey_type": "p2sh",
        "scriptpubkey_address": "3MVRDmwpqL3cCBLLH7WE7tapdeAvziWbhZ",
        "value": 143643
      },
      "scriptsig": "1600144836f3af218d60d575746dd7c425c16a71c0b63a",
      "scriptsig_asm": "OP_PUSHBYTES_22 00144836f3af218d60d575746dd7c425c16a71c0b63a",
      "witness": [
        "304402206151ee1e61c761929cb50c4a079a596fbd2227c728f195b57242043c111fa55402202675c25310643f1b1081796951a61422ffe10762a5383c8d2cc4ec25c70eaea901",
        "0271fb0e89c4170d37ce8816655559a03fdf59db6e790ff882833427bc1edc3719"
      ],
      "is_coinbase": false,
      "sequence": 4294967293,
      "inner_redeemscript_asm": "OP_0 OP_PUSHBYTES_20 4836f3af218d60d575746dd7c425c16a71c0b63a"
    },
    {
      "txid": "08b7064071d259c3347c1a3122d1221315f69be83291e83b28f5f5c2a4afd7d7",
      "vout": 1,
      "prevout": {
        "scriptpubkey": "a914d5bbf21dcd8e974d4129796f144564f566f7441287",
        "scriptpubkey_asm": "OP_HASH160 OP_PUSHBYTES_20 d5bbf21dcd8e974d4129796f144564f566f74412 OP_EQUAL",
        "scriptpubkey_type": "p2sh",
        "scriptpubkey_address": "3MB9171iJHaz6jcvcTDAMeqHfab2Fj61c8",
        "value": 139189
      },
      "scriptsig": "1600143f27392bca74c2c88d5c88e8891ac93667304ee3",
      "scriptsig_asm": "OP_PUSHBYTES_22 00143f27392bca74c2c88d5c88e8891ac93667304ee3",
      "witness": [
        "3044022010725409246d51c70b0d25f32f7ce4225d557fb0470942bfcd0f55541fa1db510220370a58f68f58128238dcdfb3c806112a5d8b0f6bd937c8b786890e4c62d1b7ae01",
        "03cf58618543e397ed0b1d5960753e5dd197ce7512b3d3683d9dd8706abe1763ec"
      ],
      "is_coinbase": false,
      "sequence": 4294967293,
      "inner_redeemscript_asm": "OP_0 OP_PUSHBYTES_20 3f27392bca74c2c88d5c88e8891ac93667304ee3"
    },
    {
      "txid": "1e8fb2000a65f44ef8bf8a91aa069e1c375a237de82878a12f6b5a49e88cbf6e",
      "vout": 3,
      "prevout": {
        "scriptpubkey": "a914d930f8b93b2176ec40d6c91a0e57878e1281835687",
        "scriptpubkey_asm": "OP_HASH160 OP_PUSHBYTES_20 d930f8b93b2176ec40d6c91a0e57878e12818356 OP_EQUAL",
        "scriptpubkey_type": "p2sh",
        "scriptpubkey_address": "3MVRDmwpqL3cCBLLH7WE7tapdeAvziWbhZ",
        "value": 143759
      },
      "scriptsig": "1600144836f3af218d60d575746dd7c425c16a71c0b63a",
      "scriptsig_asm": "OP_PUSHBYTES_22 00144836f3af218d60d575746dd7c425c16a71c0b63a",
      "witness": [
        "3045022100ce9f15631c49427aff4a41576e9de74f7963128b3722672e054940ac86ef4642022064d4edcde78e64e8a5cf54a13e116aba7ffd80c17f8257b5026506e70e13dab701",
        "0271fb0e89c4170d37ce8816655559a03fdf59db6e790ff882833427bc1edc3719"
      ],
      "is_coinbase": false,
      "sequence": 4294967293,
      "inner_redeemscript_asm": "OP_0 OP_PUSHBYTES_20 4836f3af218d60d575746dd7c425c16a71c0b63a"
    },
    {
      "txid": "26074c3ba80af6f386717f4db70f651d40d160e197d9896ca502d834b595d9cc",
      "vout": 1,
      "prevout": {
        "scriptpubkey": "a914d930f8b93b2176ec40d6c91a0e57878e1281835687",
        "scriptpubkey_asm": "OP_HASH160 OP_PUSHBYTES_20 d930f8b93b2176ec40d6c91a0e57878e12818356 OP_EQUAL",
        "scriptpubkey_type": "p2sh",
        "scriptpubkey_address": "3MVRDmwpqL3cCBLLH7WE7tapdeAvziWbhZ",
        "value": 138069
      },
      "scriptsig": "1600144836f3af218d60d575746dd7c425c16a71c0b63a",
      "scriptsig_asm": "OP_PUSHBYTES_22 00144836f3af218d60d575746dd7c425c16a71c0b63a",
      "witness": [
        "30440220231a2acc9c64599a1e260cee6c94132be312527a2a7e0da204f74d8947e8ab4b02200f4e54439fcf836b1cf29044640becb2eb1f761eb8b1af078b1488e8509c053201",
        "0271fb0e89c4170d37ce8816655559a03fdf59db6e790ff882833427bc1edc3719"
      ],
      "is_coinbase": false,
      "sequence": 4294967293,
      "inner_redeemscript_asm": "OP_0 OP_PUSHBYTES_20 4836f3af218d60d575746dd7c425c16a71c0b63a"
    },
    {
      "txid": "52413eaed02a7e6332d15d0a90971add90554e9b2a06e3bd1047dce62f5285ae",
      "vout": 0,
      "prevout": {
        "scriptpubkey": "a914d930f8b93b2176ec40d6c91a0e57878e1281835687",
        "scriptpubkey_asm": "OP_HASH160 OP_PUSHBYTES_20 d930f8b93b2176ec40d6c91a0e57878e12818356 OP_EQUAL",
        "scriptpubkey_type": "p2sh",
        "scriptpubkey_address": "3MVRDmwpqL3cCBLLH7WE7tapdeAvziWbhZ",
        "value": 143775
      },
      "scriptsig": "1600144836f3af218d60d575746dd7c425c16a71c0b63a",
      "scriptsig_asm": "OP_PUSHBYTES_22 00144836f3af218d60d575746dd7c425c16a71c0b63a",
      "witness": [
        "3045022100ef1445ebe3f9e8b9be91ad3d7ff2f41538817265a81aff5a208640c8c57416be022032f2dba578c0ecdc782a6cdc092a321e8cd71310e9c769aa6d8683fcaa44d91401",
        "0271fb0e89c4170d37ce8816655559a03fdf59db6e790ff882833427bc1edc3719"
      ],
      "is_coinbase": false,
      "sequence": 4294967293,
      "inner_redeemscript_asm": "OP_0 OP_PUSHBYTES_20 4836f3af218d60d575746dd7c425c16a71c0b63a"
    },
    {
      "txid": "52a7e7dfc2643e645f30d4e061ebd04483a3d3622c5c824655274657ffd2917f",
      "vout": 41,
      "prevout": {
        "scriptpubkey": "a914d930f8b93b2176ec40d6c91a0e57878e1281835687",
        "scriptpubkey_asm": "OP_HASH160 OP_PUSHBYTES_20 d930f8b93b2176ec40d6c91a0e57878e12818356 OP_EQUAL",
        "scriptpubkey_type": "p2sh",
        "scriptpubkey_address": "3MVRDmwpqL3cCBLLH7WE7tapdeAvziWbhZ",
        "value": 140760
      },
      "scriptsig": "1600144836f3af218d60d575746dd7c425c16a71c0b63a",
      "scriptsig_asm": "OP_PUSHBYTES_22 00144836f3af218d60d575746dd7c425c16a71c0b63a",
      "witness": [
        "3044022040c93253dd820e58d0ea43daa0428d80669e8755a3b81ebd76d21577b445e3bf022011b9fca2c2ff1688f720b5ba874598e1ace73509b65f898587126aebd547308e01",
        "0271fb0e89c4170d37ce8816655559a03fdf59db6e790ff882833427bc1edc3719"
      ],
      "is_coinbase": false,
      "sequence": 4294967293,
      "inner_redeemscript_asm": "OP_0 OP_PUSHBYTES_20 4836f3af218d60d575746dd7c425c16a71c0b63a"
    },
    {
      "txid": "582e568dd79a77df0ca13de72f362f48dd24558060e619855b839b9e7547a6ba",
      "vout": 0,
      "prevout": {
        "scriptpubkey": "a914d930f8b93b2176ec40d6c91a0e57878e1281835687",
        "scriptpubkey_asm": "OP_HASH160 OP_PUSHBYTES_20 d930f8b93b2176ec40d6c91a0e57878e12818356 OP_EQUAL",
        "scriptpubkey_type": "p2sh",
        "scriptpubkey_address": "3MVRDmwpqL3cCBLLH7WE7tapdeAvziWbhZ",
        "value": 142766
      },
      "scriptsig": "1600144836f3af218d60d575746dd7c425c16a71c0b63a",
      "scriptsig_asm": "OP_PUSHBYTES_22 00144836f3af218d60d575746dd7c425c16a71c0b63a",
      "witness": [
        "3044022050924a6a7c5e6389e13d516d9c3ee4f21432967dd75e41caeae5d1c300d9ccc00220165b075a4d3ce29f5425323cc5792fbae8f7b6043ac275210f0e611df793b69301",
        "0271fb0e89c4170d37ce8816655559a03fdf59db6e790ff882833427bc1edc3719"
      ],
      "is_coinbase": false,
      "sequence": 4294967293,
      "inner_redeemscript_asm": "OP_0 OP_PUSHBYTES_20 4836f3af218d60d575746dd7c425c16a71c0b63a"
    },
    {
      "txid": "5bf302b377131757ea7900ab72cdc129d05dcd5158dc6ec4a99a89a82712961b",
      "vout": 0,
      "prevout": {
        "scriptpubkey": "a914d930f8b93b2176ec40d6c91a0e57878e1281835687",
        "scriptpubkey_asm": "OP_HASH160 OP_PUSHBYTES_20 d930f8b93b2176ec40d6c91a0e57878e12818356 OP_EQUAL",
        "scriptpubkey_type": "p2sh",
        "scriptpubkey_address": "3MVRDmwpqL3cCBLLH7WE7tapdeAvziWbhZ",
        "value": 138898
      },
      "scriptsig": "1600144836f3af218d60d575746dd7c425c16a71c0b63a",
      "scriptsig_asm": "OP_PUSHBYTES_22 00144836f3af218d60d575746dd7c425c16a71c0b63a",
      "witness": [
        "3045022100db610254d4f882da139346c6bd9b3eaef5647d465a4d358e356360725ee6d8d102207802675baffcc054781edb23843f5b1e4e212cb535116f7241858135c965fa6b01",
        "0271fb0e89c4170d37ce8816655559a03fdf59db6e790ff882833427bc1edc3719"
      ],
      "is_coinbase": false,
      "sequence": 4294967293,
      "inner_redeemscript_asm": "OP_0 OP_PUSHBYTES_20 4836f3af218d60d575746dd7c425c16a71c0b63a"
    },
    {
      "txid": "5d12a461e9bf576b5cc816064be4b468dfbaac309bc2c9cd2bdc0242e3a2bcd2",
      "vout": 0,
      "prevout": {
        "scriptpubkey": "0014e72c94c4c22c3427cc3c93fe8f5c84c7a16b0deb",
        "scriptpubkey_asm": "OP_0 OP_PUSHBYTES_20 e72c94c4c22c3427cc3c93fe8f5c84c7a16b0deb",
        "scriptpubkey_type": "v0_p2wpkh",
        "scriptpubkey_address": "bc1quukff3xz9s6z0npuj0lg7hyyc7skkr0tzxxn8x",
        "value": 143800
      },
      "scriptsig": "",
      "scriptsig_asm": "",
      "witness": [
        "304402205972c793175c7020361721e51e71cf8a8e6aa458ebaa448af20b3ff429d11798022071f3facd7ba8ffd3a7682cb1feed29b418a5d3826134ab51b46f6ca790faf2d001",
        "034cbab9fc3c757a1238df25e1043a6560505e104b6196a0d428d7ef6a7938575b"
      ],
      "is_coinbase": false,
      "sequence": 4294967293
    },
    {
      "txid": "6a2b8fc6d230f1d1f919d311ae67e25a6e1b0e246e33fcb0a346ea80a253ed13",
      "vout": 0,
      "prevout": {
        "scriptpubkey": "a914d930f8b93b2176ec40d6c91a0e57878e1281835687",
        "scriptpubkey_asm": "OP_HASH160 OP_PUSHBYTES_20 d930f8b93b2176ec40d6c91a0e57878e12818356 OP_EQUAL",
        "scriptpubkey_type": "p2sh",
        "scriptpubkey_address": "3MVRDmwpqL3cCBLLH7WE7tapdeAvziWbhZ",
        "value": 143250
      },
      "scriptsig": "1600144836f3af218d60d575746dd7c425c16a71c0b63a",
      "scriptsig_asm": "OP_PUSHBYTES_22 00144836f3af218d60d575746dd7c425c16a71c0b63a",
      "witness": [
        "304402206f33bdc4888f4c01efa07a99004f9ff05af8d9d024a74e7bc5e0b8f42e95129e022027b6219014ce5a324e3f9fe572c7dc55e9ef005b4b3df63f39882d3d9ea522ae01",
        "0271fb0e89c4170d37ce8816655559a03fdf59db6e790ff882833427bc1edc3719"
      ],
      "is_coinbase": false,
      "sequence": 4294967293,
      "inner_redeemscript_asm": "OP_0 OP_PUSHBYTES_20 4836f3af218d60d575746dd7c425c16a71c0b63a"
    },
    {
      "txid": "722b4fd4489b6c80467a853f519ed2323fb1bbba26dcd28843eb8d7dfe540c93",
      "vout": 0,
      "prevout": {
        "scriptpubkey": "a914d930f8b93b2176ec40d6c91a0e57878e1281835687",
        "scriptpubkey_asm": "OP_HASH160 OP_PUSHBYTES_20 d930f8b93b2176ec40d6c91a0e57878e12818356 OP_EQUAL",
        "scriptpubkey_type": "p2sh",
        "scriptpubkey_address": "3MVRDmwpqL3cCBLLH7WE7tapdeAvziWbhZ",
        "value": 141616
      },
      "scriptsig": "1600144836f3af218d60d575746dd7c425c16a71c0b63a",
      "scriptsig_asm": "OP_PUSHBYTES_22 00144836f3af218d60d575746dd7c425c16a71c0b63a",
      "witness": [
        "3044022055b638c3ce4bbba2014897b277cbd324f80762efa06909051672c7e001c4014302204e873ee62138cb25d34fe71d938f208626fd0d25dc7d34d70d0f33cd73c4405f01",
        "0271fb0e89c4170d37ce8816655559a03fdf59db6e790ff882833427bc1edc3719"
      ],
      "is_coinbase": false,
      "sequence": 4294967293,
      "inner_redeemscript_asm": "OP_0 OP_PUSHBYTES_20 4836f3af218d60d575746dd7c425c16a71c0b63a"
    },
    {
      "txid": "7b47525a94a4e3a31632a1bdf9c2c7faa3bed2fb9d90a2f929c843876cda14cb",
      "vout": 0,
      "prevout": {
        "scriptpubkey": "a914d930f8b93b2176ec40d6c91a0e57878e1281835687",
        "scriptpubkey_asm": "OP_HASH160 OP_PUSHBYTES_20 d930f8b93b2176ec40d6c91a0e57878e12818356 OP_EQUAL",
        "scriptpubkey_type": "p2sh",
        "scriptpubkey_address": "3MVRDmwpqL3cCBLLH7WE7tapdeAvziWbhZ",
        "value": 136733
      },
      "scriptsig": "1600144836f3af218d60d575746dd7c425c16a71c0b63a",
      "scriptsig_asm": "OP_PUSHBYTES_22 00144836f3af218d60d575746dd7c425c16a71c0b63a",
      "witness": [
        "304402207babc7e6518ededbfd2b56a65b1ed551110a5f0b0591ef663e6ac42033713acb022003ea9c5d2d2ef665654f6922c351bb7021795edce2d98e05f06fce63cf985d8101",
        "0271fb0e89c4170d37ce8816655559a03fdf59db6e790ff882833427bc1edc3719"
      ],
      "is_coinbase": false,
      "sequence": 4294967293,
      "inner_redeemscript_asm": "OP_0 OP_PUSHBYTES_20 4836f3af218d60d575746dd7c425c16a71c0b63a"
    },
    {
      "txid": "7e883e63e9b40d488a798ff78cddc98fda3ba3519f75e0e58d34b88bf22d2636",
      "vout": 18,
      "prevout": {
        "scriptpubkey": "a914d930f8b93b2176ec40d6c91a0e57878e1281835687",
        "scriptpubkey_asm": "OP_HASH160 OP_PUSHBYTES_20 d930f8b93b2176ec40d6c91a0e57878e12818356 OP_EQUAL",
        "scriptpubkey_type": "p2sh",
        "scriptpubkey_address": "3MVRDmwpqL3cCBLLH7WE7tapdeAvziWbhZ",
        "value": 140000
      },
      "scriptsig": "1600144836f3af218d60d575746dd7c425c16a71c0b63a",
      "scriptsig_asm": "OP_PUSHBYTES_22 00144836f3af218d60d575746dd7c425c16a71c0b63a",
      "witness": [
        "3045022100f07801d239a868963eb1d0f4831c8f799059881ce29566a9a93f2f8b1256060f0220050474597cbce4a9a1b6ddd9a617a9bdb7fcbbcd8062127c00e8f9cd86f7ff4701",
        "0271fb0e89c4170d37ce8816655559a03fdf59db6e790ff882833427bc1edc3719"
      ],
      "is_coinbase": false,
      "sequence": 4294967293,
      "inner_redeemscript_asm": "OP_0 OP_PUSHBYTES_20 4836f3af218d60d575746dd7c425c16a71c0b63a"
    },
    {
      "txid": "848931ac4ee8f8b11cc6a9c82775761acdc6a81b088f819542311e6c5b1eeb77",
      "vout": 49,
      "prevout": {
        "scriptpubkey": "a914d930f8b93b2176ec40d6c91a0e57878e1281835687",
        "scriptpubkey_asm": "OP_HASH160 OP_PUSHBYTES_20 d930f8b93b2176ec40d6c91a0e57878e12818356 OP_EQUAL",
        "scriptpubkey_type": "p2sh",
        "scriptpubkey_address": "3MVRDmwpqL3cCBLLH7WE7tapdeAvziWbhZ",
        "value": 138694
      },
      "scriptsig": "1600144836f3af218d60d575746dd7c425c16a71c0b63a",
      "scriptsig_asm": "OP_PUSHBYTES_22 00144836f3af218d60d575746dd7c425c16a71c0b63a",
      "witness": [
        "3045022100bc4290ea50da08560d4456f885e83c6ac34d0589266573a2ea9af743e6443d0d0220368342ac1d874dd64195cd2e20e9fe6f16277a1b4e689cd5acdac365ac76825a01",
        "0271fb0e89c4170d37ce8816655559a03fdf59db6e790ff882833427bc1edc3719"
      ],
      "is_coinbase": false,
      "sequence": 4294967293,
      "inner_redeemscript_asm": "OP_0 OP_PUSHBYTES_20 4836f3af218d60d575746dd7c425c16a71c0b63a"
    },
    {
      "txid": "891f3f0699aafd30226b990e5026bd95868955d1ec9f0cd05e9ee6f3094a03d7",
      "vout": 0,
      "prevout": {
        "scriptpubkey": "a914d930f8b93b2176ec40d6c91a0e57878e1281835687",
        "scriptpubkey_asm": "OP_HASH160 OP_PUSHBYTES_20 d930f8b93b2176ec40d6c91a0e57878e12818356 OP_EQUAL",
        "scriptpubkey_type": "p2sh",
        "scriptpubkey_address": "3MVRDmwpqL3cCBLLH7WE7tapdeAvziWbhZ",
        "value": 138420
      },
      "scriptsig": "1600144836f3af218d60d575746dd7c425c16a71c0b63a",
      "scriptsig_asm": "OP_PUSHBYTES_22 00144836f3af218d60d575746dd7c425c16a71c0b63a",
      "witness": [
        "3045022100f1d478764bd1cd9c583136ef2591235c97b94551bf30ac5cc997b51b4ec5e69e022034734bebf0f8e1ccd5daebe18f8d4310af0f559bf3ab155a4336e8d6e23a1c0e01",
        "0271fb0e89c4170d37ce8816655559a03fdf59db6e790ff882833427bc1edc3719"
      ],
      "is_coinbase": false,
      "sequence": 4294967293,
      "inner_redeemscript_asm": "OP_0 OP_PUSHBYTES_20 4836f3af218d60d575746dd7c425c16a71c0b63a"
    },
    {
      "txid": "89807695fec64c7150718fe96a418a7c8a4d425d4cc12bddf76578b57fe32371",
      "vout": 0,
      "prevout": {
        "scriptpubkey": "a914d930f8b93b2176ec40d6c91a0e57878e1281835687",
        "scriptpubkey_asm": "OP_HASH160 OP_PUSHBYTES_20 d930f8b93b2176ec40d6c91a0e57878e12818356 OP_EQUAL",
        "scriptpubkey_type": "p2sh",
        "scriptpubkey_address": "3MVRDmwpqL3cCBLLH7WE7tapdeAvziWbhZ",
        "value": 141602
      },
      "scriptsig": "1600144836f3af218d60d575746dd7c425c16a71c0b63a",
      "scriptsig_asm": "OP_PUSHBYTES_22 00144836f3af218d60d575746dd7c425c16a71c0b63a",
      "witness": [
        "3045022100d2eb183845f9942ea6a7cd7cd3ac9d67f5d936898f1330b5fb0facecd65591d802206bb2404c709b612498820891f17a8c4168565678a350ec5314dcf0fb2ccdb9da01",
        "0271fb0e89c4170d37ce8816655559a03fdf59db6e790ff882833427bc1edc3719"
      ],
      "is_coinbase": false,
      "sequence": 4294967293,
      "inner_redeemscript_asm": "OP_0 OP_PUSHBYTES_20 4836f3af218d60d575746dd7c425c16a71c0b63a"
    },
    {
      "txid": "8ef136f6acd2b671ec916ea8a582e48246af6c71d813bd23a8e41e45e50a20d7",
      "vout": 0,
      "prevout": {
        "scriptpubkey": "a914d930f8b93b2176ec40d6c91a0e57878e1281835687",
        "scriptpubkey_asm": "OP_HASH160 OP_PUSHBYTES_20 d930f8b93b2176ec40d6c91a0e57878e12818356 OP_EQUAL",
        "scriptpubkey_type": "p2sh",
        "scriptpubkey_address": "3MVRDmwpqL3cCBLLH7WE7tapdeAvziWbhZ",
        "value": 139301
      },
      "scriptsig": "1600144836f3af218d60d575746dd7c425c16a71c0b63a",
      "scriptsig_asm": "OP_PUSHBYTES_22 00144836f3af218d60d575746dd7c425c16a71c0b63a",
      "witness": [
        "30450221009f463c43956d24a08b25de33e8961b85c13b6fa64f34e45b567161dba19b92e602205ef8a68c7f7fc4f20a870f4f50d72cdcab6fc9a2898a8f301922227946229eb001",
        "0271fb0e89c4170d37ce8816655559a03fdf59db6e790ff882833427bc1edc3719"
      ],
      "is_coinbase": false,
      "sequence": 4294967293,
      "inner_redeemscript_asm": "OP_0 OP_PUSHBYTES_20 4836f3af218d60d575746dd7c425c16a71c0b63a"
    },
    {
      "txid": "91d596cd3a179649d77540085a385ff3586a6386ee3c60f6bb4cb7c113592715",
      "vout": 0,
      "prevout": {
        "scriptpubkey": "a914d930f8b93b2176ec40d6c91a0e57878e1281835687",
        "scriptpubkey_asm": "OP_HASH160 OP_PUSHBYTES_20 d930f8b93b2176ec40d6c91a0e57878e12818356 OP_EQUAL",
        "scriptpubkey_type": "p2sh",
        "scriptpubkey_address": "3MVRDmwpqL3cCBLLH7WE7tapdeAvziWbhZ",
        "value": 135954
      },
      "scriptsig": "1600144836f3af218d60d575746dd7c425c16a71c0b63a",
      "scriptsig_asm": "OP_PUSHBYTES_22 00144836f3af218d60d575746dd7c425c16a71c0b63a",
      "witness": [
        "3045022100cb5cfad764d71ae4eecd615d2dcea8e78c75b88c5f83d95bbe25c3f724bd60b902203850a7aff4601f4006d3b297420ec4c2b91fc209d79f89bce0adc510782974da01",
        "0271fb0e89c4170d37ce8816655559a03fdf59db6e790ff882833427bc1edc3719"
      ],
      "is_coinbase": false,
      "sequence": 4294967293,
      "inner_redeemscript_asm": "OP_0 OP_PUSHBYTES_20 4836f3af218d60d575746dd7c425c16a71c0b63a"
    },
    {
      "txid": "9e760968e0df39f53d33879d236edf96e43a85b36f75dfa9b13bc3c069b0fb6b",
      "vout": 0,
      "prevout": {
        "scriptpubkey": "a914d930f8b93b2176ec40d6c91a0e57878e1281835687",
        "scriptpubkey_asm": "OP_HASH160 OP_PUSHBYTES_20 d930f8b93b2176ec40d6c91a0e57878e12818356 OP_EQUAL",
        "scriptpubkey_type": "p2sh",
        "scriptpubkey_address": "3MVRDmwpqL3cCBLLH7WE7tapdeAvziWbhZ",
        "value": 142300
      },
      "scriptsig": "1600144836f3af218d60d575746dd7c425c16a71c0b63a",
      "scriptsig_asm": "OP_PUSHBYTES_22 00144836f3af218d60d575746dd7c425c16a71c0b63a",
      "witness": [
        "304402201fd1411f5fdb4965ed22e30e712cd11a686a046f61439d331a57218dd58c60d102203e2e33a4edf05426308959e8c37b7d4a6f1a043374c5d7b5d66488c12e174c1101",
        "0271fb0e89c4170d37ce8816655559a03fdf59db6e790ff882833427bc1edc3719"
      ],
      "is_coinbase": false,
      "sequence": 4294967293,
      "inner_redeemscript_asm": "OP_0 OP_PUSHBYTES_20 4836f3af218d60d575746dd7c425c16a71c0b63a"
    },
    {
      "txid": "a2edf3d8bb32e4efe18b49e8919844b7c5ce03c0cbe99ebcb25ae8d074ea49b6",
      "vout": 0,
      "prevout": {
        "scriptpubkey": "a914d930f8b93b2176ec40d6c91a0e57878e1281835687",
        "scriptpubkey_asm": "OP_HASH160 OP_PUSHBYTES_20 d930f8b93b2176ec40d6c91a0e57878e12818356 OP_EQUAL",
        "scriptpubkey_type": "p2sh",
        "scriptpubkey_address": "3MVRDmwpqL3cCBLLH7WE7tapdeAvziWbhZ",
        "value": 140685
      },
      "scriptsig": "1600144836f3af218d60d575746dd7c425c16a71c0b63a",
      "scriptsig_asm": "OP_PUSHBYTES_22 00144836f3af218d60d575746dd7c425c16a71c0b63a",
      "witness": [
        "304402207d9acc7a1cadfa33d0ec952993987e5a36fcf7b0e6d9ca82acee5844549966d002202606dfaefd05884be86235713b5d166d17cf2e27b0933b334c54877f75d14fb701",
        "0271fb0e89c4170d37ce8816655559a03fdf59db6e790ff882833427bc1edc3719"
      ],
      "is_coinbase": false,
      "sequence": 4294967293,
      "inner_redeemscript_asm": "OP_0 OP_PUSHBYTES_20 4836f3af218d60d575746dd7c425c16a71c0b63a"
    },
    {
      "txid": "bfc64bf89d3e06f7fdb0056189325120a7346a0429bb564d1e7d1c671b995fbb",
      "vout": 1,
      "prevout": {
        "scriptpubkey": "a914d930f8b93b2176ec40d6c91a0e57878e1281835687",
        "scriptpubkey_asm": "OP_HASH160 OP_PUSHBYTES_20 d930f8b93b2176ec40d6c91a0e57878e12818356 OP_EQUAL",
        "scriptpubkey_type": "p2sh",
        "scriptpubkey_address": "3MVRDmwpqL3cCBLLH7WE7tapdeAvziWbhZ",
        "value": 135882
      },
      "scriptsig": "1600144836f3af218d60d575746dd7c425c16a71c0b63a",
      "scriptsig_asm": "OP_PUSHBYTES_22 00144836f3af218d60d575746dd7c425c16a71c0b63a",
      "witness": [
        "3044022020dff814026321d3419c047648703880e91694963c9a2fbada540aa467bd2237022060eedb6b11844addce68b4365863c32a5aee6c0def1abb8cd7a32d07b9a8768901",
        "0271fb0e89c4170d37ce8816655559a03fdf59db6e790ff882833427bc1edc3719"
      ],
      "is_coinbase": false,
      "sequence": 4294967293,
      "inner_redeemscript_asm": "OP_0 OP_PUSHBYTES_20 4836f3af218d60d575746dd7c425c16a71c0b63a"
    },
    {
      "txid": "c2901b062275a9ac949223bb40658768b376874f761d7818d39edcd1a0e71cf7",
      "vout": 0,
      "prevout": {
        "scriptpubkey": "a914d930f8b93b2176ec40d6c91a0e57878e1281835687",
        "scriptpubkey_asm": "OP_HASH160 OP_PUSHBYTES_20 d930f8b93b2176ec40d6c91a0e57878e12818356 OP_EQUAL",
        "scriptpubkey_type": "p2sh",
        "scriptpubkey_address": "3MVRDmwpqL3cCBLLH7WE7tapdeAvziWbhZ",
        "value": 142291
      },
      "scriptsig": "1600144836f3af218d60d575746dd7c425c16a71c0b63a",
      "scriptsig_asm": "OP_PUSHBYTES_22 00144836f3af218d60d575746dd7c425c16a71c0b63a",
      "witness": [
        "3045022100a42ccd7b483248686592771483e0c70c06bcf063f6f8bbba5e989ff2d1ca46e202201559fc0cae140dc2132757f09d184f38918edddf7370b86de97bc8f640b11ea701",
        "0271fb0e89c4170d37ce8816655559a03fdf59db6e790ff882833427bc1edc3719"
      ],
      "is_coinbase": false,
      "sequence": 4294967293,
      "inner_redeemscript_asm": "OP_0 OP_PUSHBYTES_20 4836f3af218d60d575746dd7c425c16a71c0b63a"
    },
    {
      "txid": "c59ad89ffe6df825921f6793f447692829071a58f7983fbfd9335503b60c9d84",
      "vout": 0,
      "prevout": {
        "scriptpubkey": "a914d930f8b93b2176ec40d6c91a0e57878e1281835687",
        "scriptpubkey_asm": "OP_HASH160 OP_PUSHBYTES_20 d930f8b93b2176ec40d6c91a0e57878e12818356 OP_EQUAL",
        "scriptpubkey_type": "p2sh",
        "scriptpubkey_address": "3MVRDmwpqL3cCBLLH7WE7tapdeAvziWbhZ",
        "value": 139960
      },
      "scriptsig": "1600144836f3af218d60d575746dd7c425c16a71c0b63a",
      "scriptsig_asm": "OP_PUSHBYTES_22 00144836f3af218d60d575746dd7c425c16a71c0b63a",
      "witness": [
        "304402203ed20a8ff9f54cc4c29a181031a5f5502a7c70afe6079d46551ed0849e8e867f02207c67f877738988d130a352173edb9e0369362003d0703b51179d863654c7e18f01",
        "0271fb0e89c4170d37ce8816655559a03fdf59db6e790ff882833427bc1edc3719"
      ],
      "is_coinbase": false,
      "sequence": 4294967293,
      "inner_redeemscript_asm": "OP_0 OP_PUSHBYTES_20 4836f3af218d60d575746dd7c425c16a71c0b63a"
    },
    {
      "txid": "c6eee361ba9e2d592874d21bbb44fdbb2f26d45afb6fcbbcbee924ba6c7e77f8",
      "vout": 0,
      "prevout": {
        "scriptpubkey": "a914d930f8b93b2176ec40d6c91a0e57878e1281835687",
        "scriptpubkey_asm": "OP_HASH160 OP_PUSHBYTES_20 d930f8b93b2176ec40d6c91a0e57878e12818356 OP_EQUAL",
        "scriptpubkey_type": "p2sh",
        "scriptpubkey_address": "3MVRDmwpqL3cCBLLH7WE7tapdeAvziWbhZ",
        "value": 143474
      },
      "scriptsig": "1600144836f3af218d60d575746dd7c425c16a71c0b63a",
      "scriptsig_asm": "OP_PUSHBYTES_22 00144836f3af218d60d575746dd7c425c16a71c0b63a",
      "witness": [
        "304402207550f5193426afacbaee27e56519515c2c40d03cdbd9ce8f4a6b7dde895258030220358a6d738d9db0e156ad685952941dcf27bd845d5e6bed9be65aa6a6fd467ffb01",
        "0271fb0e89c4170d37ce8816655559a03fdf59db6e790ff882833427bc1edc3719"
      ],
      "is_coinbase": false,
      "sequence": 4294967293,
      "inner_redeemscript_asm": "OP_0 OP_PUSHBYTES_20 4836f3af218d60d575746dd7c425c16a71c0b63a"
    },
    {
      "txid": "c9ef8d843cff1f15fae6d005a8e5044c66903dd2e81e92da4e3a46cdbac0be85",
      "vout": 0,
      "prevout": {
        "scriptpubkey": "a914d930f8b93b2176ec40d6c91a0e57878e1281835687",
        "scriptpubkey_asm": "OP_HASH160 OP_PUSHBYTES_20 d930f8b93b2176ec40d6c91a0e57878e12818356 OP_EQUAL",
        "scriptpubkey_type": "p2sh",
        "scriptpubkey_address": "3MVRDmwpqL3cCBLLH7WE7tapdeAvziWbhZ",
        "value": 140553
      },
      "scriptsig": "1600144836f3af218d60d575746dd7c425c16a71c0b63a",
      "scriptsig_asm": "OP_PUSHBYTES_22 00144836f3af218d60d575746dd7c425c16a71c0b63a",
      "witness": [
        "3044022022d3a9760b9f38a104c4a7919911d1303bc08cd3b95fb1902793a01258450f6402207e0936878a8524754b2aeb40f09d3475717b99b3435c90f403009fe6194d64e501",
        "0271fb0e89c4170d37ce8816655559a03fdf59db6e790ff882833427bc1edc3719"
      ],
      "is_coinbase": false,
      "sequence": 4294967293,
      "inner_redeemscript_asm": "OP_0 OP_PUSHBYTES_20 4836f3af218d60d575746dd7c425c16a71c0b63a"
    },
    {
      "txid": "cd13b5167f10ac56d6bcbf31b5a621c2440abe61d3cb3a21c603edea5e54dab6",
      "vout": 0,
      "prevout": {
        "scriptpubkey": "a914d930f8b93b2176ec40d6c91a0e57878e1281835687",
        "scriptpubkey_asm": "OP_HASH160 OP_PUSHBYTES_20 d930f8b93b2176ec40d6c91a0e57878e12818356 OP_EQUAL",
        "scriptpubkey_type": "p2sh",
        "scriptpubkey_address": "3MVRDmwpqL3cCBLLH7WE7tapdeAvziWbhZ",
        "value": 140967
      },
      "scriptsig": "1600144836f3af218d60d575746dd7c425c16a71c0b63a",
      "scriptsig_asm": "OP_PUSHBYTES_22 00144836f3af218d60d575746dd7c425c16a71c0b63a",
      "witness": [
        "30440220542ffc135b9a36ab938dad9781d0957f2ac8152a293ef1dbe3a8a97043a829a902201b8d0c288ca8efb7e30bf64d780df98f7d0597525fc7b7590dba3bac2645109b01",
        "0271fb0e89c4170d37ce8816655559a03fdf59db6e790ff882833427bc1edc3719"
      ],
      "is_coinbase": false,
      "sequence": 4294967293,
      "inner_redeemscript_asm": "OP_0 OP_PUSHBYTES_20 4836f3af218d60d575746dd7c425c16a71c0b63a"
    },
    {
      "txid": "d10dc915f1534b0e0ce9d3d5495a11c60e7db2f4b7ad7254fddd05cc0bcc7960",
      "vout": 0,
      "prevout": {
        "scriptpubkey": "a914d930f8b93b2176ec40d6c91a0e57878e1281835687",
        "scriptpubkey_asm": "OP_HASH160 OP_PUSHBYTES_20 d930f8b93b2176ec40d6c91a0e57878e12818356 OP_EQUAL",
        "scriptpubkey_type": "p2sh",
        "scriptpubkey_address": "3MVRDmwpqL3cCBLLH7WE7tapdeAvziWbhZ",
        "value": 143750
      },
      "scriptsig": "1600144836f3af218d60d575746dd7c425c16a71c0b63a",
      "scriptsig_asm": "OP_PUSHBYTES_22 00144836f3af218d60d575746dd7c425c16a71c0b63a",
      "witness": [
        "30450221008603a2871649af2effbbb18138b6549fa6e7d6d39d1716d642f27bf0d6cbbbec0220519a1ad85cda9c2f9512672a569dc6c367ae7d2a8db7944c0cf1ac513652765a01",
        "0271fb0e89c4170d37ce8816655559a03fdf59db6e790ff882833427bc1edc3719"
      ],
      "is_coinbase": false,
      "sequence": 4294967293,
      "inner_redeemscript_asm": "OP_0 OP_PUSHBYTES_20 4836f3af218d60d575746dd7c425c16a71c0b63a"
    },
    {
      "txid": "da91988a0c33fb24296ec8571890581fa282701be0061ed32c9f37151e7798d2",
      "vout": 10,
      "prevout": {
        "scriptpubkey": "a914d930f8b93b2176ec40d6c91a0e57878e1281835687",
        "scriptpubkey_asm": "OP_HASH160 OP_PUSHBYTES_20 d930f8b93b2176ec40d6c91a0e57878e12818356 OP_EQUAL",
        "scriptpubkey_type": "p2sh",
        "scriptpubkey_address": "3MVRDmwpqL3cCBLLH7WE7tapdeAvziWbhZ",
        "value": 142655
      },
      "scriptsig": "1600144836f3af218d60d575746dd7c425c16a71c0b63a",
      "scriptsig_asm": "OP_PUSHBYTES_22 00144836f3af218d60d575746dd7c425c16a71c0b63a",
      "witness": [
        "304402207297f501275416f4a91d56c9d96be535c75de385ababfd0686da004e4bd944d002203df8ec4468e5ae1e384c373fd619af453fbbd45d912259823213caea6fb109bb01",
        "0271fb0e89c4170d37ce8816655559a03fdf59db6e790ff882833427bc1edc3719"
      ],
      "is_coinbase": false,
      "sequence": 4294967293,
      "inner_redeemscript_asm": "OP_0 OP_PUSHBYTES_20 4836f3af218d60d575746dd7c425c16a71c0b63a"
    },
    {
      "txid": "e600f70dc22838c9d3611bffb371b60fcb63665d00980f12250b40e1c0b29349",
      "vout": 0,
      "prevout": {
        "scriptpubkey": "a914d930f8b93b2176ec40d6c91a0e57878e1281835687",
        "scriptpubkey_asm": "OP_HASH160 OP_PUSHBYTES_20 d930f8b93b2176ec40d6c91a0e57878e12818356 OP_EQUAL",
        "scriptpubkey_type": "p2sh",
        "scriptpubkey_address": "3MVRDmwpqL3cCBLLH7WE7tapdeAvziWbhZ",
        "value": 137465
      },
      "scriptsig": "1600144836f3af218d60d575746dd7c425c16a71c0b63a",
      "scriptsig_asm": "OP_PUSHBYTES_22 00144836f3af218d60d575746dd7c425c16a71c0b63a",
      "witness": [
        "30440220052c947d71ae0615df5cda4e2819fb3527753e04654148caa43dcd529bad110e022071a28e04a5989dee897a40b143c4937ff48a7bc8c39bcd6af6055241b8b6b04e01",
        "0271fb0e89c4170d37ce8816655559a03fdf59db6e790ff882833427bc1edc3719"
      ],
      "is_coinbase": false,
      "sequence": 4294967293,
      "inner_redeemscript_asm": "OP_0 OP_PUSHBYTES_20 4836f3af218d60d575746dd7c425c16a71c0b63a"
    },
    {
      "txid": "fb8cc3d2052979a250d5adebf10e80bfecf1f8296aeea3e90cddce7bfb9704cb",
      "vout": 75,
      "prevout": {
        "scriptpubkey": "a914d930f8b93b2176ec40d6c91a0e57878e1281835687",
        "scriptpubkey_asm": "OP_HASH160 OP_PUSHBYTES_20 d930f8b93b2176ec40d6c91a0e57878e12818356 OP_EQUAL",
        "scriptpubkey_type": "p2sh",
        "scriptpubkey_address": "3MVRDmwpqL3cCBLLH7WE7tapdeAvziWbhZ",
        "value": 136198
      },
      "scriptsig": "1600144836f3af218d60d575746dd7c425c16a71c0b63a",
      "scriptsig_asm": "OP_PUSHBYTES_22 00144836f3af218d60d575746dd7c425c16a71c0b63a",
      "witness": [
        "3045022100d728ce618788c23581f0cc2b53dcdaf2f45193182ee668bed5c4259d31df4f86022061e0730eeed37d8afd236c9ad9afcb73200f211cda25422296b3fa96090f372801",
        "0271fb0e89c4170d37ce8816655559a03fdf59db6e790ff882833427bc1edc3719"
      ],
      "is_coinbase": false,
      "sequence": 4294967293,
      "inner_redeemscript_asm": "OP_0 OP_PUSHBYTES_20 4836f3af218d60d575746dd7c425c16a71c0b63a"
    }
  ],
  "vout": [
    {
      "scriptpubkey": "001453301d638c49c099a423f4b8f29e3c829caffe7f",
      "scriptpubkey_asm": "OP_0 OP_PUSHBYTES_20 53301d638c49c099a423f4b8f29e3c829caffe7f",
      "scriptpubkey_type": "v0_p2wpkh",
      "scriptpubkey_address": "bc1q2vcp6cuvf8qfnfpr7ju0983us2w2llnllwtspm",
      "value": 81175
    },
    {
      "scriptpubkey": "0014049246170be31015a9d264188f5f5a294e6f29f8",
      "scriptpubkey_asm": "OP_0 OP_PUSHBYTES_20 049246170be31015a9d264188f5f5a294e6f29f8",
      "scriptpubkey_type": "v0_p2wpkh",
      "scriptpubkey_address": "bc1qqjfyv9ctuvgpt2wjvsvg7h66998x720c09xnu8",
      "value": 4088356
    }
  ],
  "size": 5193,
  "weight": 11100,
  "fee": 46878,
  "status": {
    "confirmed": true,
    "block_height": 834638,
    "block_hash": "000000000000000000025f742c626208ac87e0b7d15054abb4a19ca2d735a54e",
    "block_time": 1710405325
  },
  "hex": "0200000000011e181746fce423944f425185429b8cc963e80e0b3e8da48eae7ce4c082a5eb780700000000171600144836f3af218d60d575746dd7c425c16a71c0b63afdffffffd7d7afa4c2f5f5283be89132e89bf6151322d122311a7c34c359d2714006b70801000000171600143f27392bca74c2c88d5c88e8891ac93667304ee3fdffffff6ebf8ce8495a6b2fa17828e87d235a371c9e06aa918abff84ef4650a00b28f1e03000000171600144836f3af218d60d575746dd7c425c16a71c0b63afdffffffccd995b534d802a56c89d997e160d1401d650fb74d7f7186f3f60aa83b4c072601000000171600144836f3af218d60d575746dd7c425c16a71c0b63afdffffffae85522fe6dc4710bde3062a9b4e5590dd1a97900a5dd132637e2ad0ae3e415200000000171600144836f3af218d60d575746dd7c425c16a71c0b63afdffffff7f91d2ff5746275546825c2c62d3a38344d0eb61e0d4305f643e64c2dfe7a75229000000171600144836f3af218d60d575746dd7c425c16a71c0b63afdffffffbaa647759e9b835b8519e660805524dd482f362fe73da10cdf779ad78d562e5800000000171600144836f3af218d60d575746dd7c425c16a71c0b63afdffffff1b961227a8899aa9c46edc5851cd5dd029c1cd72ab0079ea57171377b302f35b00000000171600144836f3af218d60d575746dd7c425c16a71c0b63afdffffffd2bca2e34202dc2bcdc9c29b30acbadf68b4e44b0616c85c6b57bfe961a4125d0000000000fdffffff13ed53a280ea46a3b0fc336e240e1b6e5ae267ae11d319f9d1f130d2c68f2b6a00000000171600144836f3af218d60d575746dd7c425c16a71c0b63afdffffff930c54fe7d8deb4388d2dc26babbb13f32d29e513f857a46806c9b48d44f2b7200000000171600144836f3af218d60d575746dd7c425c16a71c0b63afdffffffcb14da6c8743c829f9a2909dfbd2bea3fac7c2f9bda13216a3e3a4945a52477b00000000171600144836f3af218d60d575746dd7c425c16a71c0b63afdffffff36262df28bb8348de5e0759f51a33bda8fc9dd8cf78f798a480db4e9633e887e12000000171600144836f3af218d60d575746dd7c425c16a71c0b63afdffffff77eb1e5b6c1e314295818f081ba8c6cd1a767527c8a9c61cb1f8e84eac31898431000000171600144836f3af218d60d575746dd7c425c16a71c0b63afdffffffd7034a09f3e69e5ed00c9fecd155898695bd26500e996b2230fdaa99063f1f8900000000171600144836f3af218d60d575746dd7c425c16a71c0b63afdffffff7123e37fb57865f7dd2bc14c5d424d8a7c8a416ae98f7150714cc6fe9576808900000000171600144836f3af218d60d575746dd7c425c16a71c0b63afdffffffd7200ae5451ee4a823bd13d8716caf4682e482a5a86e91ec71b6d2acf636f18e00000000171600144836f3af218d60d575746dd7c425c16a71c0b63afdffffff15275913c1b74cbbf6603cee86636a58f35f385a084075d74996173acd96d59100000000171600144836f3af218d60d575746dd7c425c16a71c0b63afdffffff6bfbb069c0c33bb1a9df756fb3853ae496df6e239d87333df539dfe06809769e00000000171600144836f3af218d60d575746dd7c425c16a71c0b63afdffffffb649ea74d0e85ab2bc9ee9cbc003cec5b7449891e8498be1efe432bbd8f3eda200000000171600144836f3af218d60d575746dd7c425c16a71c0b63afdffffffbb5f991b671c7d1e4d56bb29046a34a7205132896105b0fdf7063e9df84bc6bf01000000171600144836f3af218d60d575746dd7c425c16a71c0b63afdfffffff71ce7a0d1dc9ed318781d764f8776b368876540bb239294aca97522061b90c200000000171600144836f3af218d60d575746dd7c425c16a71c0b63afdffffff849d0cb6035533d9bf3f98f7581a0729286947f493671f9225f86dfe9fd89ac500000000171600144836f3af218d60d575746dd7c425c16a71c0b63afdfffffff8777e6cba24e9bebccb6ffb5ad4262fbbfd44bb1bd27428592d9eba61e3eec600000000171600144836f3af218d60d575746dd7c425c16a71c0b63afdffffff85bec0bacd463a4eda921ee8d23d90664c04e5a805d0e6fa151fff3c848defc900000000171600144836f3af218d60d575746dd7c425c16a71c0b63afdffffffb6da545eeaed03c6213acbd361be0a44c221a6b531bfbcd656ac107f16b513cd00000000171600144836f3af218d60d575746dd7c425c16a71c0b63afdffffff6079cc0bcc05ddfd5472adb7f4b27d0ec6115a49d5d3e90c0e4b53f115c90dd100000000171600144836f3af218d60d575746dd7c425c16a71c0b63afdffffffd298771e15379f2cd31e06e01b7082a21f58901857c86e2924fb330c8a9891da0a000000171600144836f3af218d60d575746dd7c425c16a71c0b63afdffffff4993b2c0e1400b25120f98005d6663cb0fb671b3ff1b61d3c93828c20df700e600000000171600144836f3af218d60d575746dd7c425c16a71c0b63afdffffffcb0497fb7bcedd0ce9a3ee6a29f8f1ecbf800ef1ebadd550a2792905d2c38cfb4b000000171600144836f3af218d60d575746dd7c425c16a71c0b63afdffffff02173d01000000000016001453301d638c49c099a423f4b8f29e3c829caffe7f24623e0000000000160014049246170be31015a9d264188f5f5a294e6f29f80247304402206151ee1e61c761929cb50c4a079a596fbd2227c728f195b57242043c111fa55402202675c25310643f1b1081796951a61422ffe10762a5383c8d2cc4ec25c70eaea901210271fb0e89c4170d37ce8816655559a03fdf59db6e790ff882833427bc1edc371902473044022010725409246d51c70b0d25f32f7ce4225d557fb0470942bfcd0f55541fa1db510220370a58f68f58128238dcdfb3c806112a5d8b0f6bd937c8b786890e4c62d1b7ae012103cf58618543e397ed0b1d5960753e5dd197ce7512b3d3683d9dd8706abe1763ec02483045022100ce9f15631c49427aff4a41576e9de74f7963128b3722672e054940ac86ef4642022064d4edcde78e64e8a5cf54a13e116aba7ffd80c17f8257b5026506e70e13dab701210271fb0e89c4170d37ce8816655559a03fdf59db6e790ff882833427bc1edc3719024730440220231a2acc9c64599a1e260cee6c94132be312527a2a7e0da204f74d8947e8ab4b02200f4e54439fcf836b1cf29044640becb2eb1f761eb8b1af078b1488e8509c053201210271fb0e89c4170d37ce8816655559a03fdf59db6e790ff882833427bc1edc371902483045022100ef1445ebe3f9e8b9be91ad3d7ff2f41538817265a81aff5a208640c8c57416be022032f2dba578c0ecdc782a6cdc092a321e8cd71310e9c769aa6d8683fcaa44d91401210271fb0e89c4170d37ce8816655559a03fdf59db6e790ff882833427bc1edc371902473044022040c93253dd820e58d0ea43daa0428d80669e8755a3b81ebd76d21577b445e3bf022011b9fca2c2ff1688f720b5ba874598e1ace73509b65f898587126aebd547308e01210271fb0e89c4170d37ce8816655559a03fdf59db6e790ff882833427bc1edc371902473044022050924a6a7c5e6389e13d516d9c3ee4f21432967dd75e41caeae5d1c300d9ccc00220165b075a4d3ce29f5425323cc5792fbae8f7b6043ac275210f0e611df793b69301210271fb0e89c4170d37ce8816655559a03fdf59db6e790ff882833427bc1edc371902483045022100db610254d4f882da139346c6bd9b3eaef5647d465a4d358e356360725ee6d8d102207802675baffcc054781edb23843f5b1e4e212cb535116f7241858135c965fa6b01210271fb0e89c4170d37ce8816655559a03fdf59db6e790ff882833427bc1edc37190247304402205972c793175c7020361721e51e71cf8a8e6aa458ebaa448af20b3ff429d11798022071f3facd7ba8ffd3a7682cb1feed29b418a5d3826134ab51b46f6ca790faf2d00121034cbab9fc3c757a1238df25e1043a6560505e104b6196a0d428d7ef6a7938575b0247304402206f33bdc4888f4c01efa07a99004f9ff05af8d9d024a74e7bc5e0b8f42e95129e022027b6219014ce5a324e3f9fe572c7dc55e9ef005b4b3df63f39882d3d9ea522ae01210271fb0e89c4170d37ce8816655559a03fdf59db6e790ff882833427bc1edc371902473044022055b638c3ce4bbba2014897b277cbd324f80762efa06909051672c7e001c4014302204e873ee62138cb25d34fe71d938f208626fd0d25dc7d34d70d0f33cd73c4405f01210271fb0e89c4170d37ce8816655559a03fdf59db6e790ff882833427bc1edc37190247304402207babc7e6518ededbfd2b56a65b1ed551110a5f0b0591ef663e6ac42033713acb022003ea9c5d2d2ef665654f6922c351bb7021795edce2d98e05f06fce63cf985d8101210271fb0e89c4170d37ce8816655559a03fdf59db6e790ff882833427bc1edc371902483045022100f07801d239a868963eb1d0f4831c8f799059881ce29566a9a93f2f8b1256060f0220050474597cbce4a9a1b6ddd9a617a9bdb7fcbbcd8062127c00e8f9cd86f7ff4701210271fb0e89c4170d37ce8816655559a03fdf59db6e790ff882833427bc1edc371902483045022100bc4290ea50da08560d4456f885e83c6ac34d0589266573a2ea9af743e6443d0d0220368342ac1d874dd64195cd2e20e9fe6f16277a1b4e689cd5acdac365ac76825a01210271fb0e89c4170d37ce8816655559a03fdf59db6e790ff882833427bc1edc371902483045022100f1d478764bd1cd9c583136ef2591235c97b94551bf30ac5cc997b51b4ec5e69e022034734bebf0f8e1ccd5daebe18f8d4310af0f559bf3ab155a4336e8d6e23a1c0e01210271fb0e89c4170d37ce8816655559a03fdf59db6e790ff882833427bc1edc371902483045022100d2eb183845f9942ea6a7cd7cd3ac9d67f5d936898f1330b5fb0facecd65591d802206bb2404c709b612498820891f17a8c4168565678a350ec5314dcf0fb2ccdb9da01210271fb0e89c4170d37ce8816655559a03fdf59db6e790ff882833427bc1edc3719024830450221009f463c43956d24a08b25de33e8961b85c13b6fa64f34e45b567161dba19b92e602205ef8a68c7f7fc4f20a870f4f50d72cdcab6fc9a2898a8f301922227946229eb001210271fb0e89c4170d37ce8816655559a03fdf59db6e790ff882833427bc1edc371902483045022100cb5cfad764d71ae4eecd615d2dcea8e78c75b88c5f83d95bbe25c3f724bd60b902203850a7aff4601f4006d3b297420ec4c2b91fc209d79f89bce0adc510782974da01210271fb0e89c4170d37ce8816655559a03fdf59db6e790ff882833427bc1edc37190247304402201fd1411f5fdb4965ed22e30e712cd11a686a046f61439d331a57218dd58c60d102203e2e33a4edf05426308959e8c37b7d4a6f1a043374c5d7b5d66488c12e174c1101210271fb0e89c4170d37ce8816655559a03fdf59db6e790ff882833427bc1edc37190247304402207d9acc7a1cadfa33d0ec952993987e5a36fcf7b0e6d9ca82acee5844549966d002202606dfaefd05884be86235713b5d166d17cf2e27b0933b334c54877f75d14fb701210271fb0e89c4170d37ce8816655559a03fdf59db6e790ff882833427bc1edc371902473044022020dff814026321d3419c047648703880e91694963c9a2fbada540aa467bd2237022060eedb6b11844addce68b4365863c32a5aee6c0def1abb8cd7a32d07b9a8768901210271fb0e89c4170d37ce8816655559a03fdf59db6e790ff882833427bc1edc371902483045022100a42ccd7b483248686592771483e0c70c06bcf063f6f8bbba5e989ff2d1ca46e202201559fc0cae140dc2132757f09d184f38918edddf7370b86de97bc8f640b11ea701210271fb0e89c4170d37ce8816655559a03fdf59db6e790ff882833427bc1edc37190247304402203ed20a8ff9f54cc4c29a181031a5f5502a7c70afe6079d46551ed0849e8e867f02207c67f877738988d130a352173edb9e0369362003d0703b51179d863654c7e18f01210271fb0e89c4170d37ce8816655559a03fdf59db6e790ff882833427bc1edc37190247304402207550f5193426afacbaee27e56519515c2c40d03cdbd9ce8f4a6b7dde895258030220358a6d738d9db0e156ad685952941dcf27bd845d5e6bed9be65aa6a6fd467ffb01210271fb0e89c4170d37ce8816655559a03fdf59db6e790ff882833427bc1edc371902473044022022d3a9760b9f38a104c4a7919911d1303bc08cd3b95fb1902793a01258450f6402207e0936878a8524754b2aeb40f09d3475717b99b3435c90f403009fe6194d64e501210271fb0e89c4170d37ce8816655559a03fdf59db6e790ff882833427bc1edc3719024730440220542ffc135b9a36ab938dad9781d0957f2ac8152a293ef1dbe3a8a97043a829a902201b8d0c288ca8efb7e30bf64d780df98f7d0597525fc7b7590dba3bac2645109b01210271fb0e89c4170d37ce8816655559a03fdf59db6e790ff882833427bc1edc3719024830450221008603a2871649af2effbbb18138b6549fa6e7d6d39d1716d642f27bf0d6cbbbec0220519a1ad85cda9c2f9512672a569dc6c367ae7d2a8db7944c0cf1ac513652765a01210271fb0e89c4170d37ce8816655559a03fdf59db6e790ff882833427bc1edc37190247304402207297f501275416f4a91d56c9d96be535c75de385ababfd0686da004e4bd944d002203df8ec4468e5ae1e384c373fd619af453fbbd45d912259823213caea6fb109bb01210271fb0e89c4170d37ce8816655559a03fdf59db6e790ff882833427bc1edc3719024730440220052c947d71ae0615df5cda4e2819fb3527753e04654148caa43dcd529bad110e022071a28e04a5989dee897a40b143c4937ff48a7bc8c39bcd6af6055241b8b6b04e01210271fb0e89c4170d37ce8816655559a03fdf59db6e790ff882833427bc1edc371902483045022100d728ce618788c23581f0cc2b53dcdaf2f45193182ee668bed5c4259d31df4f86022061e0730eeed37d8afd236c9ad9afcb73200f211cda25422296b3fa96090f372801210271fb0e89c4170d37ce8816655559a03fdf59db6e790ff882833427bc1edc371900000000"
}