{
  "txid": "7833892b4befdaa9dc27ebae9a6febdc4cc377830a2c764e85dd59babbd0e1c0",
  "version": 2,
  "locktime": 0,
  "vin": [
    {
      "txid": "5e28e546a38381890b7ee83345bb60dbdf899710825d4f326e85fb88d5116819",
      "vout": 0,
      "prevout": {
        "scriptpubkey": "a9147748b179fe8e3da72772d1e8cc947007ccb938bb87",
        "scriptpubkey_asm": "OP_HASH160 OP_PUSHBYTES_20 7748b179fe8e3da72772d1e8cc947007ccb938bb OP_EQUAL",
        "scriptpubkey_type": "p2sh",
        "scriptpubkey_address": "3CZjRBsuWDJwVaAPwCFdzcLgzp7GZ37zdP",
        "value": 68412
      },
      "scriptsig": "1600144738e3455108dae833df18c068268dbd3c3d2841",
      "scriptsig_asm": "OP_PUSHBYTES_22 00144738e3455108dae833df18c068268dbd3c3d2841",
      "witness": [
        "304402200333da90c39c69dfdd3787d9cddd01d65988ac3b8a4845c9ba1d6a3db7341ad2022054e008004008a428f35eb159d31935824598f276dd9437d980895a42817168aa01",
        "0286dc2d3366b2d9e9aa0c0767a66101357606caba8244ca0ca8b3a27ee48f1bc0"
      ],
      "is_coinbase": false,
      "sequence": 4294967295,
      "inner_redeemscript_asm": "OP_0 OP_PUSHBYTES_20 4738e3455108dae833df18c068268dbd3c3d2841"
    }
  ],
  "vout": [
    {
      "scriptpubkey": "a914b1665d30a54777993b27a2c8378061541c3f9e6887",
      "scriptpubkey_asm": "OP_HASH160 OP_PUSHBYTES_20 b1665d30a54777993b27a2c8378061541c3f9e68 OP_EQUAL",
      "scriptpubkey_type": "p2sh",
      "scriptpubkey_address": "3Hs29sh1tqGYbhxyTwzDwmdP9HYwqCk8Wo",
      "value": 61822
    }
  ],
  "size": 215,
  "weight": 533,
  "fee": 6590,
  "status": {
    "confirmed": true,
    "block_height": 834638,
    "block_hash": "000000000000000000025f742c626208ac87e0b7d15054abb4a19ca2d735a54e",
    "block_time": 1710405325
  },
  "hex": "02000000000101196811d588fb856e324f5d82109789dfdb60bb4533e87e0b898183a346e5285e00000000171600144738e3455108dae833df18c068268dbd3c3d2841ffffffff017ef100000000000017a914b1665d30a54777993b27a2c8378061541c3f9e68870247304402200333da90c39c69dfdd3787d9cddd01d65988ac3b8a4845c9ba1d6a3db7341ad2022054e008004008a428f35eb159d31935824598f276dd9437d980895a42817168aa01210286dc2d3366b2d9e9aa0c0767a66101357606caba8244ca0ca8b3a27ee48f1bc000000000"
}