{
  "txid": "78469571cdd841e00fc1753378ed8af831e3f2f5f548a32d6438e6ad959a110e",
  "version": 1,
  "locktime": 0,
  "vin": [
    {
      "txid": "22f6101722b03a2023858beb109bf5dbbbc7caa5c7ffc1fce4956c0984b2ff7b",
      "vout": 1,
      "prevout": {
        "scriptpubkey": "0014e79ce57e08eac24992ef5edf5282137154e16fff",
        "scriptpubkey_asm": "OP_0 OP_PUSHBYTES_20 e79ce57e08eac24992ef5edf5282137154e16fff",
        "scriptpubkey_type": "v0_p2wpkh",
        "scriptpubkey_address": "bc1qu7ww2lsgatpynyh0tm049qsnw92wzmllcgxrhw",
        "value": 37258150
      },
      "scriptsig": "",
      "scriptsig_asm": "",
      "witness": [
        "3044022062f103670302ac8cdea4426fad566bbf1d7ed4e85a9cc715ec6f4cf60e6e99b802204a8cfbdfbcda09505f46a3b6b658c81fc5c9058123a8e817f03a423299a7290e01",
        "039de53099e2a851eecf328f810a8a54cc25625f5690a10b376013d4121e185b35"
      ],
      "is_coinbase": false,
      "sequence": 4294967295
    },
    {
      "txid": "437e759189c66a4f21e21f74cdfbde6a3c22dcce8880dd20249a64af55d05540",
      "vout": 2,
      "prevout": {
        "scriptpubkey": "001463754b004632f1488ecb6ac6e6ca0cdac6bed59e",
        "scriptpubkey_asm": "OP_0 OP_PUSHBYTES_20 63754b004632f1488ecb6ac6e6ca0cdac6bed59e",
        "scriptpubkey_type": "v0_p2wpkh",
        "scriptpubkey_address": "bc1qvd65kqzxxtc53rktdtrwdjsvmtrta4v79wqx0t",
        "value": 24870084
      },
      "scriptsig": "",
      "scriptsig_asm": "",
      "witness": [
        "304402207324da815a9728f43d71601945c817e181d0017f3896516db09507107c9ec4fb02203c0b7e1ac93dbc564eb40d0b91d8759a0e707b1ae0bf7ebd25a116774d9b7dee01",
        "0210f9118fc05566cada48d6c32e03cc48f52e32285a1207cb064f40e153e5cf32"
      ],
      "is_coinbase": false,
      "sequence": 4294967295
    },
    {
      "txid": "d0baec11f133c04cba87ed2bab60ab5eadaf1308dba5de07cd11378a7a3da803",
      "vout": 1,
      "prevout": {
        "scriptpubkey": "00141542c773e78d0a653e28e6cebb666efc907dcf93",
        "scriptpubkey_asm": "OP_0 OP_PUSHBYTES_20 1542c773e78d0a653e28e6cebb666efc907dcf93",
        "scriptpubkey_type": "v0_p2wpkh",
        "scriptpubkey_address": "bc1qz4pvwul8359x203gum8tkenwljg8mnunler256",
        "value": 35625520
      },
      "scriptsig": "",
      "scriptsig_asm": "",
      "witness": [
        "3045022100d67f613476fee10f70dac475369019043a31f745cf4e590aeb396efe46319c33022074bef926df62848910bb91007fb09d2a8c8cf14869aee1329d648135499e165d01",
        "02c25c2d4b0a3a9f7eeed25c051e5e5eb3c5d15a979bb158ed724a5222a2101997"
      ],
      "is_coinbase": false,
      "sequence": 4294967295
    },
    {
      "txid": "90f55ce6433de1c974e90fa64de3417533aaa91b238053eaa83866642c832c51",
      "vout": 0,
      "prevout": {
        "scriptpubkey": "00145865469ad5f869e8e3e17e6404e77d44cd679a77",
        "scriptpubkey_asm": "OP_0 OP_PUSHBYTES_20 5865469ad5f869e8e3e17e6404e77d44cd679a77",
        "scriptpubkey_type": "v0_p2wpkh",
        "scriptpubkey_address": "bc1qtpj5dxk4lp573clp0ejqfemagnxk0xnh76ve9h",
        "value": 28230524
      },
      "scriptsig": "",
      "scriptsig_asm": "",
      "witness": [
        "3045022100f836f4cfa8bd76336ffc43682359ad0175fad54511380667ecf13263fd059923022069264e0bd9802d8973450227132d0da3bf44dd33c568c4710dfa360d9926197e01",
        "022355873c2fe86a6eafdc2eb0ba7a4dda67abbacbd2dc197eeb5c5f0391441d70"
      ],
      "is_coinbase": false,
      "sequence": 4294967295
    }
  ],
  "vout": [
    {
      "scriptpubkey": "76a914cd1964fe0a553b9c6e21aebb3bc25154d8fd011688ac",
      "scriptpubkey_asm": "OP_DUP OP_HASH160 OP_PUSHBYTES_20 cd1964fe0a553b9c6e21aebb3bc25154d8fd0116 OP_EQUALVERIFY OP_CHECKSIG",
      "scriptpubkey_type": "p2pkh",
      "scriptpubkey_address": "1KhTwmSEgSqcZz32kHPYkdE5Y7F4o1Xhan",
      "value": 1598520
    },
    {
      "scriptpubkey": "001450927e45c3f3f013eb5799817d2fb4aa6a2ade0d",
      "scriptpubkey_asm": "OP_0 OP_PUSHBYTES_20 50927e45c3f3f013eb5799817d2fb4aa6a2ade0d",
      "scriptpubkey_type": "v0_p2wpkh",
      "scriptpubkey_address": "bc1q2zf8u3wr70cp866hnxqh6ta54f4z4hsdwn7ynn",
      "value": 974348
    },
    {
      "scriptpubkey": "0014c21cf489e2df4b41153f5357354704a6616bfead",
      "scriptpubkey_asm": "OP_0 OP_PUSHBYTES_20 c21cf489e2df4b41153f5357354704a6616bfead",
      "scriptpubkey_type": "v0_p2wpkh",
      "scriptpubkey_address": "bc1qcgw0fz0zma95z9fl2dtn23cy5eskhl4d86cfj2",
      "value": 8992772
    },
    {
      "scriptpubkey": "00148229c8cd5ee52d31e6647fbfa00de0b143b73d46",
      "scriptpubkey_asm": "OP_0 OP_PUSHBYTES_20 8229c8cd5ee52d31e6647fbfa00de0b143b73d46",
      "scriptpubkey_type": "v0_p2wpkh",
      "scriptpubkey_address": "bc1qsg5u3n27u5knreny07l6qr0qk9pmw02xajxzdk",
      "value": 988281
    },
    {
      "scriptpubkey": "00140b8ab76f7a751518301ba4bf49ab6df0bc6672eb",
      "scriptpubkey_asm": "OP_0 OP_PUSHBYTES_20 0b8ab76f7a751518301ba4bf49ab6df0bc6672eb",
      "scriptpubkey_type": "v0_p2wpkh",
      "scriptpubkey_address": "bc1qpw9twmm6w523svqm5jl5n2md7z7xvuhtwmja5m",
      "value": 4188650
    },
    {
      "scriptpubkey": "0014885b25ba3e94b4ef8c82dfc9d64d4b2e5eb0981d",
      "scriptpubkey_asm": "OP_0 OP_PUSHBYTES_20 885b25ba3e94b4ef8c82dfc9d64d4b2e5eb0981d",
      "scriptpubkey_type": "v0_p2wpkh",
      "scriptpubkey_address": "bc1q3pdjtw37jj6wlryzmlyavn2t9e0tpxqam7p87r",
      "value": 80631199
    },
    {
      "scriptpubkey": "00145decece093f691bc961351fb23299c5fa32b6e48",
      "scriptpubkey_asm": "OP_0 OP_PUSHBYTES_20 5decece093f691bc961351fb23299c5fa32b6e48",
      "scriptpubkey_type": "v0_p2wpkh",
      "scriptpubkey_address": "bc1qthkwecyn76gme9sn28ajx2vut73jkmjgtwwjda",
      "value": 318692
    },
    {
      "scriptpubkey": "00148ef99c81317243e595a6e7561cb56f27b283a1c7",
      "scriptpubkey_asm": "OP_0 OP_PUSHBYTES_20 8ef99c81317243e595a6e7561cb56f27b283a1c7",
      "scriptpubkey_type": "v0_p2wpkh",
      "scriptpubkey_address": "bc1q3mueeqf3wfp7t9dxuatpedt0y7eg8gw88asy0g",
      "value": 21872694
    },
    {
      "scriptpubkey": "0014e6e8cf6067245033edf10b577d9abb081ed247db",
      "scriptpubkey_asm": "OP_0 OP_PUSHBYTES_20 e6e8cf6067245033edf10b577d9abb081ed247db",
      "scriptpubkey_type": "v0_p2wpkh",
      "scriptpubkey_address": "bc1qum5v7cr8y3gr8m03pdthmx4mpq0dy37mrmwurs",
      "value": 219394
    },
    {
      "scriptpubkey": "a914841138e401d1a6b151c84a6799d3a49abecc2c9c87",
      "scriptpubkey_asm": "OP_HASH160 OP_PUSHBYTES_20 841138e401d1a6b151c84a6799d3a49abecc2c9c OP_EQUAL",
      "scriptpubkey_type": "p2sh",
      "scriptpubkey_address": "3DjKkVBwGopXMgNSE6pryhPBX5d3UKRMkn",
      "value": 4841084
    },
    {
      "scriptpubkey": "001476180f5a02a032a239755fd94b689dc5317201fa",
      "scriptpubkey_asm": "OP_0 OP_PUSHBYTES_20 76180f5a02a032a239755fd94b689dc5317201fa",
      "scriptpubkey_type": "v0_p2wpkh",
      "scriptpubkey_address": "bc1qwcvq7ksz5qe2ywt4tlv5k6yac5chyq06rh29aq",
      "value": 1348548
    }
  ],
  "size": 951,
  "weight": 2508,
  "fee": 10096,
  "status": {
    "confirmed": true,
    "block_height": 834638,
    "block_hash": "000000000000000000025f742c626208ac87e0b7d15054abb4a19ca2d735a54e",
    "block_time": 1710405325
  },
  "hex": "010000000001047bffb284096c95e4fcc1ffc7a5cac7bbdbf59b10eb8b8523203ab0221710f6220100000000ffffffff4055d055af649a2420dd8088cedc223c6adefbcd741fe2214f6ac68991757e430200000000ffffffff03a83d7a8a3711cd07dea5db0813afad5eab60ab2bed87ba4cc033f111ecbad00100000000ffffffff512c832c646638a8ea5380231ba9aa337541e34da60fe974c9e13d43e65cf5900000000000ffffffff0b38641800000000001976a914cd1964fe0a553b9c6e21aebb3bc25154d8fd011688ac0cde0e000000000016001450927e45c3f3f013eb5799817d2fb4aa6a2ade0d0438890000000000160014c21cf489e2df4b41153f5357354704a6616bfead79140f00000000001600148229c8cd5ee52d31e6647fbfa00de0b143b73d46eae93f00000000001600140b8ab76f7a751518301ba4bf49ab6df0bc6672eb9f55ce0400000000160014885b25ba3e94b4ef8c82dfc9d64d4b2e5eb0981de4dc0400000000001600145decece093f691bc961351fb23299c5fa32b6e4836c04d01000000001600148ef99c81317243e595a6e7561cb56f27b283a1c70259030000000000160014e6e8cf6067245033edf10b577d9abb081ed247db7cde49000000000017a914841138e401d1a6b151c84a6799d3a49abecc2c9c87c49314000000000016001476180f5a02a032a239755fd94b689dc5317201fa02473044022062f103670302ac8cdea4426fad566bbf1d7ed4e85a9cc715ec6f4cf60e6e99b802204a8cfbdfbcda09505f46a3b6b658c81fc5c9058123a8e817f03a423299a7290e0121039de53099e2a851eecf328f810a8a54cc25625f5690a10b376013d4121e185b350247304402207324da815a9728f43d71601945c817e181d0017f3896516db09507107c9ec4fb02203c0b7e1ac93dbc564eb40d0b91d8759a0e707b1ae0bf7ebd25a116774d9b7dee01210210f9118fc05566cada48d6c32e03cc48f52e32285a1207cb064f40e153e5cf3202483045022100d67f613476fee10f70dac475369019043a31f745cf4e590aeb396efe46319c33022074bef926df62848910bb91007fb09d2a8c8cf14869aee1329d648135499e165d012102c25c2d4b0a3a9f7eeed25c051e5e5eb3c5d15a979bb158ed724a5222a210199702483045022100f836f4cfa8bd76336ffc43682359ad0175fad54511380667ecf13263fd059923022069264e0bd9802d8973450227132d0da3bf44dd33c568c4710dfa360d9926197e0121022355873c2fe86a6eafdc2eb0ba7a4dda67abbacbd2dc197eeb5c5f0391441d7000000000"
}