{
  "txid": "7847cfb02e53702154f4350546d62a719ed04e95c777be03a7378cb9242785ad",
  "version": 2,
  "locktime": 0,
  "vin": [
    {
      "txid": "8486ecb4df0880316dd6e82b3971b4df187aff23765bc3a47f8d78bb53aa273c",
      "vout": 87,
      "prevout": {
        "scriptpubkey": "5120720f26f3bc7243574a170a8a0df5f8bda5b126059ec6b1c736c2cc25d0d7dda0",
        "scriptpubkey_asm": "OP_PUSHNUM_1 OP_PUSHBYTES_32 720f26f3bc7243574a170a8a0df5f8bda5b126059ec6b1c736c2cc25d0d7dda0",
        "scriptpubkey_type": "v1_p2tr",
        "scriptpubkey_address": "bc1pwg8jduauwfp4wjshp29qma0chkjmzfs9nmrtr3ekctxzt5xhmksqywrzxz",
        "value": 2575
      },
      "scriptsig": "",
      "scriptsig_asm": "",
      "witness": [
        "cd1dd68254e12ceba678bbd36ffd6758594e4bd8df660bf403dfd5bcf01e2e5303ca28f5082c1e450a984073764d78550d6927e8c4c286e984b1483f58d282fc",
        "20ec3b995432746cbab30f12d1754904c0533331d10db91d4a71c3c9548c435fc0ac0063036f726401010a746578742f706c61696e00367b2270223a226272632d3230222c226f70223a226d696e74222c227469636b223a2261616161222c22616d74223a223130303030227d68",
        "c0ec3b995432746cbab30f12d1754904c0533331d10db91d4a71c3c9548c435fc0"
      ],
      "is_coinbase": false,
      "sequence": 4261412863
    }
  ],
  "vout": [
    {
      "scriptpubkey": "0014ddd7ef12ea6f78edcc1e8e7afa12c01ab59f3339",
      "scriptpubkey_asm": "OP_0 OP_PUSHBYTES_20 ddd7ef12ea6f78edcc1e8e7afa12c01ab59f3339",
      "scriptpubkey_type": "v0_p2wpkh",
      "scriptpubkey_address": "bc1qmht77yh2dauwmnq73ea05ykqr26e7veea8spz6",
      "value": 546
    }
  ],
  "size": 295,
  "weight": 541,
  "fee": 2029,
  "status": {
    "confirmed": true,
    "block_height": 834460,
    "block_hash": "00000000000000000000484a79b643b2524bbce82e5d8a442013fa5b8905ed98",
    "block_time": 1710307468
  },
  "hex": "020000000001013c27aa53bb788d7fa4c35b7623ff7a18dfb471392be8d66d318008dfb4ec86845700000000fffffffd012202000000000000160014ddd7ef12ea6f78edcc1e8e7afa12c01ab59f33390340cd1dd68254e12ceba678bbd36ffd6758594e4bd8df660bf403dfd5bcf01e2e5303ca28f5082c1e450a984073764d78550d6927e8c4c286e984b1483f58d282fc6e20ec3b995432746cbab30f12d1754904c0533331d10db91d4a71c3c9548c435fc0ac0063036f726401010a746578742f706c61696e00367b2270223a226272632d3230222c226f70223a226d696e74222c227469636b223a2261616161222c22616d74223a223130303030227d6821c0ec3b995432746cbab30f12d1754904c0533331d10db91d4a71c3c9548c435fc000000000"
}