{
  "txid": "7849853cd88485833cb6c66a85a549fe315b5029a624c5b3f9408e73783403d3",
  "version": 1,
  "locktime": 0,
  "vin": [
    {
      "txid": "2ff13a8297d39af7deede9ce89f335bd29c85d068ba1c755bedde9ce8adbc2bf",
      "vout": 0,
      "prevout": {
        "scriptpubkey": "a914c33bef201e8e660b8fbe16a70eeceeb21132a0c387",
        "scriptpubkey_asm": "OP_HASH160 OP_PUSHBYTES_20 c33bef201e8e660b8fbe16a70eeceeb21132a0c3 OP_EQUAL",
        "scriptpubkey_type": "p2sh",
        "scriptpubkey_address": "3KVKVF6X7s2naxrScjceFQPf6UX19SKEee",
        "value": 258730570
      },
      "scriptsig": "1600146da31f289c82bd92a14e2a7b34af8c9212f64dbe",
      "scriptsig_asm": "OP_PUSHBYTES_22 00146da31f289c82bd92a14e2a7b34af8c9212f64dbe",
      "witness": [
        "3045022100ac9b61ce83030a9fe4fa1f2b8cb827a5720ae960251a529a6ce57e2c46ee7fd30220479ea8ac48d52aa0f404fa2a00cff4a7f9fb0a26e2244aabe82f99506d94e91701",
        "0304d1250ab4d0d722ae6aaa2cb1590bdc1924d623024c2762aad9075e71690d56"
      ],
      "is_coinbase": false,
      "sequence": 4294967295,
      "inner_redeemscript_asm": "OP_0 OP_PUSHBYTES_20 6da31f289c82bd92a14e2a7b34af8c9212f64dbe"
    }
  ],
  "vout": [
    {
      "scriptpubkey": "0014e60edf0b95da734ce4a920ec9195894b0c6fb6b7",
      "scriptpubkey_asm": "OP_0 OP_PUSHBYTES_20 e60edf0b95da734ce4a920ec9195894b0c6fb6b7",
      "scriptpubkey_type": "v0_p2wpkh",
      "scriptpubkey_address": "bc1quc8d7zu4mfe5ee9fyrkfr9vffvxxld4hnnwyh6",
      "value": 128088
    },
    {
      "scriptpubkey": "001427a0e45e875a3d6524f07b24c8456548cc0246b5",
      "scriptpubkey_asm": "OP_0 OP_PUSHBYTES_20 27a0e45e875a3d6524f07b24c8456548cc0246b5",
      "scriptpubkey_type": "v0_p2wpkh",
      "scriptpubkey_address": "bc1qy7swgh58tg7k2f8s0vjvs3t9frxqy344a8qe8p",
      "value": 218283
    },
    {
      "scriptpubkey": "00149d7616e9a68ec913f21d9730f815a16db2e2cc20",
      "scriptpubkey_asm": "OP_0 OP_PUSHBYTES_20 9d7616e9a68ec913f21d9730f815a16db2e2cc20",
      "scriptpubkey_type": "v0_p2wpkh",
      "scriptpubkey_address": "bc1qn4mpd6dx3my38usajuc0s9dpdkew9npqjme0qd",
      "value": 48979
    },
    {
      "scriptpubkey": "0014697b2ab5c80b9381aa9826caae923ab4b7373103",
      "scriptpubkey_asm": "OP_0 OP_PUSHBYTES_20 697b2ab5c80b9381aa9826caae923ab4b7373103",
      "scriptpubkey_type": "v0_p2wpkh",
      "scriptpubkey_address": "bc1qd9aj4dwgpwfcr25cym92ay36kjmnwvgr72shkn",
      "value": 41811
    },
    {
      "scriptpubkey": "76a91458e581bf3c8c6b5c6f601889eef029545d4ffa0788ac",
      "scriptpubkey_asm": "OP_DUP OP_HASH160 OP_PUSHBYTES_20 58e581bf3c8c6b5c6f601889eef029545d4ffa07 OP_EQUALVERIFY OP_CHECKSIG",
      "scriptpubkey_type": "p2pkh",
      "scriptpubkey_address": "1973QJ6feVv9BsdwWyLcQTnGCgBhtXvdad",
      "value": 694984
    },
    {
      "scriptpubkey": "00143e2308b0f091580e104cdb312a5b9147864dbceb",
      "scriptpubkey_asm": "OP_0 OP_PUSHBYTES_20 3e2308b0f091580e104cdb312a5b9147864dbceb",
      "scriptpubkey_type": "v0_p2wpkh",
      "scriptpubkey_address": "bc1q8c3s3v8sj9vquyzvmvcj5ku3g7rym08t0rdvcr",
      "value": 592533
    },
    {
      "scriptpubkey": "001425c1648f4b6e3a90d0533e15a8bb6b6b36d9ca2c",
      "scriptpubkey_asm": "OP_0 OP_PUSHBYTES_20 25c1648f4b6e3a90d0533e15a8bb6b6b36d9ca2c",
      "scriptpubkey_type": "v0_p2wpkh",
      "scriptpubkey_address": "bc1qyhqkfr6tdcafp5zn8c263wmtdvmdnj3v35kqef",
      "value": 447035
    },
    {
      "scriptpubkey": "76a9146901d5c73448a4adce5a565b5a40efd0f285c59688ac",
      "scriptpubkey_asm": "OP_DUP OP_HASH160 OP_PUSHBYTES_20 6901d5c73448a4adce5a565b5a40efd0f285c596 OP_EQUALVERIFY OP_CHECKSIG",
      "scriptpubkey_type": "p2pkh",
      "scriptpubkey_address": "1AaE9eRJ75no3MFszfKodbLno9Y8XUY3M6",
      "value": 740933
    },
    {
      "scriptpubkey": "a914cb399d4906ed24adafa149c369f357acc82495ea87",
      "scriptpubkey_asm": "OP_HASH160 OP_PUSHBYTES_20 cb399d4906ed24adafa149c369f357acc82495ea OP_EQUAL",
      "scriptpubkey_type": "p2sh",
      "scriptpubkey_address": "3LDa7by91qoQkr2eFNsxB3XLEk2uVPuRUA",
      "value": 255810532
    }
  ],
  "size": 470,
  "weight": 1550,
  "fee": 7392,
  "status": {
    "confirmed": true,
    "block_height": 834638,
    "block_hash": "000000000000000000025f742c626208ac87e0b7d15054abb4a19ca2d735a54e",
    "block_time": 1710405325
  },
  "hex": "01000000000101bfc2db8acee9ddbe55c7a18b065dc829bd35f389cee9eddef79ad397823af12f00000000171600146da31f289c82bd92a14e2a7b34af8c9212f64dbeffffffff0958f4010000000000160014e60edf0b95da734ce4a920ec9195894b0c6fb6b7ab5403000000000016001427a0e45e875a3d6524f07b24c8456548cc0246b553bf0000000000001600149d7616e9a68ec913f21d9730f815a16db2e2cc2053a3000000000000160014697b2ab5c80b9381aa9826caae923ab4b7373103c89a0a00000000001976a91458e581bf3c8c6b5c6f601889eef029545d4ffa0788ac950a0900000000001600143e2308b0f091580e104cdb312a5b9147864dbceb3bd206000000000016001425c1648f4b6e3a90d0533e15a8bb6b6b36d9ca2c454e0b00000000001976a9146901d5c73448a4adce5a565b5a40efd0f285c59688ace45b3f0f0000000017a914cb399d4906ed24adafa149c369f357acc82495ea8702483045022100ac9b61ce83030a9fe4fa1f2b8cb827a5720ae960251a529a6ce57e2c46ee7fd30220479ea8ac48d52aa0f404fa2a00cff4a7f9fb0a26e2244aabe82f99506d94e91701210304d1250ab4d0d722ae6aaa2cb1590bdc1924d623024c2762aad9075e71690d5600000000"
}