{
  "txid": "785c3227d20fa011d39358c23d68f292785d474ee4e06c379834c39dea455d96",
  "version": 2,
  "locktime": 0,
  "vin": [
    {
      "txid": "b13bb5512a4904c28a6b7957b88edf574e8cb23551fc1dcfe22d6b239df42cf4",
      "vout": 53,
      "prevout": {
        "scriptpubkey": "5120aba5dab35914a8d7a78a04f9e7e7943491948740879b396477b1801f43944a8b",
        "scriptpubkey_asm": "OP_PUSHNUM_1 OP_PUSHBYTES_32 aba5dab35914a8d7a78a04f9e7e7943491948740879b396477b1801f43944a8b",
        "scriptpubkey_type": "v1_p2tr",
        "scriptpubkey_address": "bc1p4wja4v6ezj5d0fu2qnu70eu5xjgefp6qs7dnjerhkxqp7su5f29s5nn7me",
        "value": 2575
      },
      "scriptsig": "",
      "scriptsig_asm": "",
      "witness": [
        "51eaa82ea354026504a7c5f7f6449219767a6b0c988734e7b43810a0aa59e7e72e2504a084d52b496581dac057f6a7b6341d5653848e45765a9fc6c12b28be58",
        "20b78b7f7d517c736b0cc0f34b053ccd01ff8046f6131228abbd909cf92bbac45eac0063036f726401010a746578742f706c61696e00367b2270223a226272632d3230222c226f70223a226d696e74222c227469636b223a2261616161222c22616d74223a223130303030227d68",
        "c1b78b7f7d517c736b0cc0f34b053ccd01ff8046f6131228abbd909cf92bbac45e"
      ],
      "is_coinbase": false,
      "sequence": 4261412863
    }
  ],
  "vout": [
    {
      "scriptpubkey": "0014ce0b5aa0dac72397a8aa5a85d90a2cfb46f0f630",
      "scriptpubkey_asm": "OP_0 OP_PUSHBYTES_20 ce0b5aa0dac72397a8aa5a85d90a2cfb46f0f630",
      "scriptpubkey_type": "v0_p2wpkh",
      "scriptpubkey_address": "bc1qec944gx6cu3e0292t2zajz3vldr0pa3sh356d9",
      "value": 546
    }
  ],
  "size": 295,
  "weight": 541,
  "fee": 2029,
  "status": {
    "confirmed": true,
    "block_height": 834464,
    "block_hash": "0000000000000000000177a0869a911a2b65c9bdcd5a8bcb02b68f305bee848e",
    "block_time": 1710308296
  },
  "hex": "02000000000101f42cf49d236b2de2cf1dfc5135b28c4e57df8eb857796b8ac204492a51b53bb13500000000fffffffd012202000000000000160014ce0b5aa0dac72397a8aa5a85d90a2cfb46f0f630034051eaa82ea354026504a7c5f7f6449219767a6b0c988734e7b43810a0aa59e7e72e2504a084d52b496581dac057f6a7b6341d5653848e45765a9fc6c12b28be586e20b78b7f7d517c736b0cc0f34b053ccd01ff8046f6131228abbd909cf92bbac45eac0063036f726401010a746578742f706c61696e00367b2270223a226272632d3230222c226f70223a226d696e74222c227469636b223a2261616161222c22616d74223a223130303030227d6821c1b78b7f7d517c736b0cc0f34b053ccd01ff8046f6131228abbd909cf92bbac45e00000000"
}