{
  "txid": "785ffb4252448b4a42cf915ac83c4c0cf0b71421e3c5bcfa81f0834a373a30c0",
  "version": 1,
  "locktime": 0,
  "vin": [
    {
      "txid": "6375af38dc645bfa16606c03a881383d70bd1ede0df511a0f9fab7b0273d30c0",
      "vout": 2,
      "prevout": {
        "scriptpubkey": "512007869b03d2e065e2322943bedf3b202aaba7f1381c25643164130a80533249bc",
        "scriptpubkey_asm": "OP_PUSHNUM_1 OP_PUSHBYTES_32 07869b03d2e065e2322943bedf3b202aaba7f1381c25643164130a80533249bc",
        "scriptpubkey_type": "v1_p2tr",
        "scriptpubkey_address": "bc1pq7rfkq7jupj7yv3fgwld7weq92460ufcrsjkgvtyzv9gq5ejfx7q5s3c40",
        "value": 2716
      },
      "scriptsig": "",
      "scriptsig_asm": "",
      "witness": [
        "217f50bc3b27b44cfc7f708008b3a184cb05a3e240db69f24b4ac97acd6429ebc2d35b83ee5526f4f06dd7ef9e8451725e9fef48061f1a7b3bd7f9a03c9fbc97",
        "20be8712cf43ccbf3249568d315a6a766c62b43c9cbb587ffcd152cc9368a5c2bfac0063036f72640101116d6f64656c2f676c74662d62696e617279004b2f636f6e74656e742f37633439306234383938343361346533636639613734613661356432646231386330346561376163353566383832316436353061396266643430656562663137693068",
        "c0be8712cf43ccbf3249568d315a6a766c62b43c9cbb587ffcd152cc9368a5c2bf"
      ],
      "is_coinbase": false,
      "sequence": 4294967293
    }
  ],
  "vout": [
    {
      "scriptpubkey": "5120f1768c246d76ff8a45c86e479459158c70d9b33887ba83b7b633606f1b0bb536",
      "scriptpubkey_asm": "OP_PUSHNUM_1 OP_PUSHBYTES_32 f1768c246d76ff8a45c86e479459158c70d9b33887ba83b7b633606f1b0bb536",
      "scriptpubkey_type": "v1_p2tr",
      "scriptpubkey_address": "bc1p79mgcfrdwmlc53wgderegkg433cdnvecs7ag8dakxdsx7xctk5mqnszxzv",
      "value": 546
    }
  ],
  "size": 335,
  "weight": 617,
  "fee": 2170,
  "status": {
    "confirmed": true,
    "block_height": 834460,
    "block_hash": "00000000000000000000484a79b643b2524bbce82e5d8a442013fa5b8905ed98",
    "block_time": 1710307468
  },
  "hex": "01000000000101c0303d27b0b7faf9a011f50dde1ebd703d3881a8036c6016fa5b64dc38af75630200000000fdffffff012202000000000000225120f1768c246d76ff8a45c86e479459158c70d9b33887ba83b7b633606f1b0bb5360340217f50bc3b27b44cfc7f708008b3a184cb05a3e240db69f24b4ac97acd6429ebc2d35b83ee5526f4f06dd7ef9e8451725e9fef48061f1a7b3bd7f9a03c9fbc978a20be8712cf43ccbf3249568d315a6a766c62b43c9cbb587ffcd152cc9368a5c2bfac0063036f72640101116d6f64656c2f676c74662d62696e617279004b2f636f6e74656e742f3763343930623438393834336134653363663961373461366135643264623138633034656137616335356638383231643635306139626664343065656266313769306821c0be8712cf43ccbf3249568d315a6a766c62b43c9cbb587ffcd152cc9368a5c2bf00000000"
}