{
  "txid": "78627a2cb86421527ed81f17b3dadb811c4b7752b6ae405fd3ea466fcce534f0",
  "version": 2,
  "locktime": 0,
  "vin": [
    {
      "txid": "f1738201872ff423afbcbd138a33b6a9b50892738062f4c3a513bc6050d34dba",
      "vout": 0,
      "prevout": {
        "scriptpubkey": "5120e06ea422177221b560234310513a76d35c421f2f549b616620a4349127890a1a",
        "scriptpubkey_asm": "OP_PUSHNUM_1 OP_PUSHBYTES_32 e06ea422177221b560234310513a76d35c421f2f549b616620a4349127890a1a",
        "scriptpubkey_type": "v1_p2tr",
        "scriptpubkey_address": "bc1puph2ggshwgsm2cprgvg9zwnk6dwyy8e02jdkze3q5s6fzfufpgdq97r9r7",
        "value": 546
      },
      "scriptsig": "",
      "scriptsig_asm": "",
      "witness": [
        "67544e67017e9d23b4d8105551a6943d42df6e19c7be7bb49312c0f20c098fbcc74f4248e3aa66963b70f97aa6d69e3382bfdffe9da154dd345ca4cba6fa9dec"
      ],
      "is_coinbase": false,
      "sequence": 2147483649
    },
    {
      "txid": "2f8a6c5b7fdf842eed2a47253f9512b05063594554ed6e785e283e2784a43d9a",
      "vout": 1,
      "prevout": {
        "scriptpubkey": "5120e06ea422177221b560234310513a76d35c421f2f549b616620a4349127890a1a",
        "scriptpubkey_asm": "OP_PUSHNUM_1 OP_PUSHBYTES_32 e06ea422177221b560234310513a76d35c421f2f549b616620a4349127890a1a",
        "scriptpubkey_type": "v1_p2tr",
        "scriptpubkey_address": "bc1puph2ggshwgsm2cprgvg9zwnk6dwyy8e02jdkze3q5s6fzfufpgdq97r9r7",
        "value": 66278
      },
      "scriptsig": "",
      "scriptsig_asm": "",
      "witness": [
        "86ed4d08cb1814564bd41fb8589cf587f5326734399dc3f6f3e13f4df2ecf65ad8c5c02e5ac4c3f4bff0b13c3bb274aaf1980eec061524ed7ff9c6cf89f55377"
      ],
      "is_coinbase": false,
      "sequence": 2147483649
    }
  ],
  "vout": [
    {
      "scriptpubkey": "76a914994bcbac96ca0cb4f68da05fdca6db6156165e4a88ac",
      "scriptpubkey_asm": "OP_DUP OP_HASH160 OP_PUSHBYTES_20 994bcbac96ca0cb4f68da05fdca6db6156165e4a OP_EQUALVERIFY OP_CHECKSIG",
      "scriptpubkey_type": "p2pkh",
      "scriptpubkey_address": "1EyZBiorSvrbhV2voGvnTqTQTVoG34Hjzt",
      "value": 546
    },
    {
      "scriptpubkey": "5120e06ea422177221b560234310513a76d35c421f2f549b616620a4349127890a1a",
      "scriptpubkey_asm": "OP_PUSHNUM_1 OP_PUSHBYTES_32 e06ea422177221b560234310513a76d35c421f2f549b616620a4349127890a1a",
      "scriptpubkey_type": "v1_p2tr",
      "scriptpubkey_address": "bc1puph2ggshwgsm2cprgvg9zwnk6dwyy8e02jdkze3q5s6fzfufpgdq97r9r7",
      "value": 63652
    }
  ],
  "size": 303,
  "weight": 810,
  "fee": 2626,
  "status": {
    "confirmed": true,
    "block_height": 834460,
    "block_hash": "00000000000000000000484a79b643b2524bbce82e5d8a442013fa5b8905ed98",
    "block_time": 1710307468
  },
  "hex": "02000000000102ba4dd35060bc13a5c3f46280739208b5a9b6338a13bdbcaf23f42f87018273f10000000000010000809a3da484273e285e786eed5445596350b012953f25472aed2e84df7f5b6c8a2f0100000000010000800222020000000000001976a914994bcbac96ca0cb4f68da05fdca6db6156165e4a88aca4f8000000000000225120e06ea422177221b560234310513a76d35c421f2f549b616620a4349127890a1a014067544e67017e9d23b4d8105551a6943d42df6e19c7be7bb49312c0f20c098fbcc74f4248e3aa66963b70f97aa6d69e3382bfdffe9da154dd345ca4cba6fa9dec014086ed4d08cb1814564bd41fb8589cf587f5326734399dc3f6f3e13f4df2ecf65ad8c5c02e5ac4c3f4bff0b13c3bb274aaf1980eec061524ed7ff9c6cf89f5537700000000"
}