{
  "txid": "7872988f8759f214d9f93e81b7b6b494247637a325a0d891625c3947cac82013",
  "version": 2,
  "locktime": 0,
  "vin": [
    {
      "txid": "f7ee1d9857f23adb6df9fd8217beb528bdc0691f0011cdc5da4b9c98e3415cb2",
      "vout": 2,
      "prevout": {
        "scriptpubkey": "512007c17f3e6e43960b79dd0743f30a21006d276658b58a1a780dffca6ad7a37fe1",
        "scriptpubkey_asm": "OP_PUSHNUM_1 OP_PUSHBYTES_32 07c17f3e6e43960b79dd0743f30a21006d276658b58a1a780dffca6ad7a37fe1",
        "scriptpubkey_type": "v1_p2tr",
        "scriptpubkey_address": "bc1pqlqh70nwgwtqk7waqaplxz3pqpkjwejckk9p57qdll9x44ar0lssdywvkf",
        "value": 2850
      },
      "scriptsig": "",
      "scriptsig_asm": "",
      "witness": [
        "87930b72d1a548990869d8a93215c6225bff534ec5879347a1a2942b221bede6f35c5db3249525f97809ef6ad7489c4ffb4f7f80ae93014e57221d40cdbac01e",
        "20b93d04a7b099ccf25fe25ae00b3d2a194f206655190b88cfcff631e4021f9454ac0063036f726401011e6170706c69636174696f6e2f6a736f6e3b636861727365743d7574662d38004cd27b2270223a22706f772d3230222c226f70223a226d696e74222c227469636b223a2250455045222c22616d74223a2231303030222c22736f6c7574696f6e223a22504550453a626331707136676b767964716164703375666734666865777770757771743730716b37396d6c6b6d37706b356a38657967363870796632716379703832633a303030303030303030303030303030303030303139393431613561653132383937363539383134343239323533333030353762306461393666336465613163353a35363338383236373832227d68",
        "c09c5626bdc3533ba8aa729d0f30d751dd071a8b8f6bd9e78daf679d343f12d20e"
      ],
      "is_coinbase": false,
      "sequence": 4294967295
    }
  ],
  "vout": [
    {
      "scriptpubkey": "512006916611a0eb431e25154df2e7078e02fcf05bc5dfedbf06d491f24468e12254",
      "scriptpubkey_asm": "OP_PUSHNUM_1 OP_PUSHBYTES_32 06916611a0eb431e25154df2e7078e02fcf05bc5dfedbf06d491f24468e12254",
      "scriptpubkey_type": "v1_p2tr",
      "scriptpubkey_address": "bc1pq6gkvydqadp3ufg4fhewwpuwqt70qk79mlkm7pk5j8eyg68pyf2qcyp82c",
      "value": 546
    }
  ],
  "size": 486,
  "weight": 768,
  "fee": 2304,
  "status": {
    "confirmed": true,
    "block_height": 834460,
    "block_hash": "00000000000000000000484a79b643b2524bbce82e5d8a442013fa5b8905ed98",
    "block_time": 1710307468
  },
  "hex": "02000000000101b25c41e3989c4bdac5cd11001f69c0bd28b5be1782fdf96ddb3af257981deef70200000000ffffffff01220200000000000022512006916611a0eb431e25154df2e7078e02fcf05bc5dfedbf06d491f24468e12254034087930b72d1a548990869d8a93215c6225bff534ec5879347a1a2942b221bede6f35c5db3249525f97809ef6ad7489c4ffb4f7f80ae93014e57221d40cdbac01efd1f0120b93d04a7b099ccf25fe25ae00b3d2a194f206655190b88cfcff631e4021f9454ac0063036f726401011e6170706c69636174696f6e2f6a736f6e3b636861727365743d7574662d38004cd27b2270223a22706f772d3230222c226f70223a226d696e74222c227469636b223a2250455045222c22616d74223a2231303030222c22736f6c7574696f6e223a22504550453a626331707136676b767964716164703375666734666865777770757771743730716b37396d6c6b6d37706b356a38657967363870796632716379703832633a303030303030303030303030303030303030303139393431613561653132383937363539383134343239323533333030353762306461393666336465613163353a35363338383236373832227d6821c09c5626bdc3533ba8aa729d0f30d751dd071a8b8f6bd9e78daf679d343f12d20e00000000"
}