{
  "txid": "7880cb6b0422fd2f2ba1b7e3ff59bb7a22dc393bcc36a4cd7e6f4e571ed718a1",
  "version": 2,
  "locktime": 0,
  "vin": [
    {
      "txid": "3935e88c7cb588d49a13c1da54a012cc6151d2fd4629332caa007d1be03c1440",
      "vout": 4,
      "prevout": {
        "scriptpubkey": "a914af7ee06c9023deb8ea93778370dfc4bce42193f787",
        "scriptpubkey_asm": "OP_HASH160 OP_PUSHBYTES_20 af7ee06c9023deb8ea93778370dfc4bce42193f7 OP_EQUAL",
        "scriptpubkey_type": "p2sh",
        "scriptpubkey_address": "3HgxAfABwmfREiHzQd1HGspPGULTXaaFiz",
        "value": 206338
      },
      "scriptsig": "1600140f270d603990c99c0e0705aa47bc5481ada4fe1e",
      "scriptsig_asm": "OP_PUSHBYTES_22 00140f270d603990c99c0e0705aa47bc5481ada4fe1e",
      "witness": [
        "3044022037bbf26d34e39e898559da9970c9e9213572efb017c8de68f6b46f8eb25905a90220501ee1dd423f5d02ea6fd35707803721bed6cbed83554d6524635f0dc9bd8ec201",
        "03df9cee6b3cc587dbe174bb56602972c0b34806d4c2c025f41acee2ff0e248d73"
      ],
      "is_coinbase": false,
      "sequence": 4294967293,
      "inner_redeemscript_asm": "OP_0 OP_PUSHBYTES_20 0f270d603990c99c0e0705aa47bc5481ada4fe1e"
    },
    {
      "txid": "08e2502ea7ecb35709c4d893481bab21017b8aef14c9afa6d2d768db1a2a08a8",
      "vout": 10,
      "prevout": {
        "scriptpubkey": "a914af7ee06c9023deb8ea93778370dfc4bce42193f787",
        "scriptpubkey_asm": "OP_HASH160 OP_PUSHBYTES_20 af7ee06c9023deb8ea93778370dfc4bce42193f7 OP_EQUAL",
        "scriptpubkey_type": "p2sh",
        "scriptpubkey_address": "3HgxAfABwmfREiHzQd1HGspPGULTXaaFiz",
        "value": 206338
      },
      "scriptsig": "1600140f270d603990c99c0e0705aa47bc5481ada4fe1e",
      "scriptsig_asm": "OP_PUSHBYTES_22 00140f270d603990c99c0e0705aa47bc5481ada4fe1e",
      "witness": [
        "304402205124f22b973b26e14d4e904e2e1fb179f7fa09d293c5f263d5d81528bfd034bd022046cd0aa523ecec9717a7ed990150951d0d8cca2ac6ee850a360179558d29ecbb01",
        "03df9cee6b3cc587dbe174bb56602972c0b34806d4c2c025f41acee2ff0e248d73"
      ],
      "is_coinbase": false,
      "sequence": 4294967293,
      "inner_redeemscript_asm": "OP_0 OP_PUSHBYTES_20 0f270d603990c99c0e0705aa47bc5481ada4fe1e"
    },
    {
      "txid": "0603d19d9473d8649959835af1a779b4d53f0cb7f79117f047794b4eb146c490",
      "vout": 2,
      "prevout": {
        "scriptpubkey": "a914af7ee06c9023deb8ea93778370dfc4bce42193f787",
        "scriptpubkey_asm": "OP_HASH160 OP_PUSHBYTES_20 af7ee06c9023deb8ea93778370dfc4bce42193f7 OP_EQUAL",
        "scriptpubkey_type": "p2sh",
        "scriptpubkey_address": "3HgxAfABwmfREiHzQd1HGspPGULTXaaFiz",
        "value": 206338
      },
      "scriptsig": "1600140f270d603990c99c0e0705aa47bc5481ada4fe1e",
      "scriptsig_asm": "OP_PUSHBYTES_22 00140f270d603990c99c0e0705aa47bc5481ada4fe1e",
      "witness": [
        "30450221009753920b07939624636605b1129d3b227c138cef3c9492ddc09becc8044f1cd60220455befb3c5f642c041e9f07b16a5091396af936c8a4c10b901aafe436147140d01",
        "03df9cee6b3cc587dbe174bb56602972c0b34806d4c2c025f41acee2ff0e248d73"
      ],
      "is_coinbase": false,
      "sequence": 4294967293,
      "inner_redeemscript_asm": "OP_0 OP_PUSHBYTES_20 0f270d603990c99c0e0705aa47bc5481ada4fe1e"
    },
    {
      "txid": "004b9b959dedb58cf0b4348e49ab6c8c90e179ae68d9fda8c4e6975e836d2474",
      "vout": 4,
      "prevout": {
        "scriptpubkey": "a914af7ee06c9023deb8ea93778370dfc4bce42193f787",
        "scriptpubkey_asm": "OP_HASH160 OP_PUSHBYTES_20 af7ee06c9023deb8ea93778370dfc4bce42193f7 OP_EQUAL",
        "scriptpubkey_type": "p2sh",
        "scriptpubkey_address": "3HgxAfABwmfREiHzQd1HGspPGULTXaaFiz",
        "value": 206338
      },
      "scriptsig": "1600140f270d603990c99c0e0705aa47bc5481ada4fe1e",
      "scriptsig_asm": "OP_PUSHBYTES_22 00140f270d603990c99c0e0705aa47bc5481ada4fe1e",
      "witness": [
        "304402200f85de14bac3104ea0c56b710f742681e712692695282aff4e9275cac2d989bf0220462e6135b1bd83ba62d001cb436827c3f82bb27184b8b4978545fd195d6ac82001",
        "03df9cee6b3cc587dbe174bb56602972c0b34806d4c2c025f41acee2ff0e248d73"
      ],
      "is_coinbase": false,
      "sequence": 4294967293,
      "inner_redeemscript_asm": "OP_0 OP_PUSHBYTES_20 0f270d603990c99c0e0705aa47bc5481ada4fe1e"
    },
    {
      "txid": "d3ae05d21db5bae397cd1fb47bfba1fcfc880a66713fd7f8ebcd442581f554ae",
      "vout": 1,
      "prevout": {
        "scriptpubkey": "a914af7ee06c9023deb8ea93778370dfc4bce42193f787",
        "scriptpubkey_asm": "OP_HASH160 OP_PUSHBYTES_20 af7ee06c9023deb8ea93778370dfc4bce42193f7 OP_EQUAL",
        "scriptpubkey_type": "p2sh",
        "scriptpubkey_address": "3HgxAfABwmfREiHzQd1HGspPGULTXaaFiz",
        "value": 151888
      },
      "scriptsig": "1600140f270d603990c99c0e0705aa47bc5481ada4fe1e",
      "scriptsig_asm": "OP_PUSHBYTES_22 00140f270d603990c99c0e0705aa47bc5481ada4fe1e",
      "witness": [
        "30440220101e425d1b39f6c5feb35486fd5ae3bf18c94f3f251897752e606059559a42bf02204e2b504428006d1ed133aa2faf071edb4db5133ea6bf491ea4cf11a65edd5c9c01",
        "03df9cee6b3cc587dbe174bb56602972c0b34806d4c2c025f41acee2ff0e248d73"
      ],
      "is_coinbase": false,
      "sequence": 4294967293,
      "inner_redeemscript_asm": "OP_0 OP_PUSHBYTES_20 0f270d603990c99c0e0705aa47bc5481ada4fe1e"
    },
    {
      "txid": "63211e23ee88400773b2b7f9655a24b4ba97895963ac096dcb0eb899073428d8",
      "vout": 1,
      "prevout": {
        "scriptpubkey": "a914af7ee06c9023deb8ea93778370dfc4bce42193f787",
        "scriptpubkey_asm": "OP_HASH160 OP_PUSHBYTES_20 af7ee06c9023deb8ea93778370dfc4bce42193f7 OP_EQUAL",
        "scriptpubkey_type": "p2sh",
        "scriptpubkey_address": "3HgxAfABwmfREiHzQd1HGspPGULTXaaFiz",
        "value": 108749
      },
      "scriptsig": "1600140f270d603990c99c0e0705aa47bc5481ada4fe1e",
      "scriptsig_asm": "OP_PUSHBYTES_22 00140f270d603990c99c0e0705aa47bc5481ada4fe1e",
      "witness": [
        "3044022077f230512a7ebcf772a449e78e6ea26f6ebede244470a129cf5c9c44d318f384022005fbd4a1c9cd7c302bfdc679a01f150be8e1c6d829521619b26383635de573cb01",
        "03df9cee6b3cc587dbe174bb56602972c0b34806d4c2c025f41acee2ff0e248d73"
      ],
      "is_coinbase": false,
      "sequence": 4294967293,
      "inner_redeemscript_asm": "OP_0 OP_PUSHBYTES_20 0f270d603990c99c0e0705aa47bc5481ada4fe1e"
    },
    {
      "txid": "cc746d20c7c16069ef2dcb446c82327ada78ca729e5b5847fc7f0245f5daaf6c",
      "vout": 2,
      "prevout": {
        "scriptpubkey": "a914af7ee06c9023deb8ea93778370dfc4bce42193f787",
        "scriptpubkey_asm": "OP_HASH160 OP_PUSHBYTES_20 af7ee06c9023deb8ea93778370dfc4bce42193f7 OP_EQUAL",
        "scriptpubkey_type": "p2sh",
        "scriptpubkey_address": "3HgxAfABwmfREiHzQd1HGspPGULTXaaFiz",
        "value": 65666
      },
      "scriptsig": "1600140f270d603990c99c0e0705aa47bc5481ada4fe1e",
      "scriptsig_asm": "OP_PUSHBYTES_22 00140f270d603990c99c0e0705aa47bc5481ada4fe1e",
      "witness": [
        "304402206e8547bc81f50ee1c78cb7f74a6e3b9103460166510810556c5baa4f6a53690b02202ef1ac7213e62e5a2e2ada7748f0bdd05cc7dd4bda2fcc5028dac00b4250f0a601",
        "03df9cee6b3cc587dbe174bb56602972c0b34806d4c2c025f41acee2ff0e248d73"
      ],
      "is_coinbase": false,
      "sequence": 4294967293,
      "inner_redeemscript_asm": "OP_0 OP_PUSHBYTES_20 0f270d603990c99c0e0705aa47bc5481ada4fe1e"
    },
    {
      "txid": "1154d78f0235fbb13dcf1287b736015a48ee7d1b376cf22bfb9483664c162811",
      "vout": 2,
      "prevout": {
        "scriptpubkey": "a914af7ee06c9023deb8ea93778370dfc4bce42193f787",
        "scriptpubkey_asm": "OP_HASH160 OP_PUSHBYTES_20 af7ee06c9023deb8ea93778370dfc4bce42193f7 OP_EQUAL",
        "scriptpubkey_type": "p2sh",
        "scriptpubkey_address": "3HgxAfABwmfREiHzQd1HGspPGULTXaaFiz",
        "value": 53961
      },
      "scriptsig": "1600140f270d603990c99c0e0705aa47bc5481ada4fe1e",
      "scriptsig_asm": "OP_PUSHBYTES_22 00140f270d603990c99c0e0705aa47bc5481ada4fe1e",
      "witness": [
        "3045022100ce02e04a1ab1a1282a8abddfd186d8d68697aa8149d65e70cc844d2ee43120fb02205463ae78bb8a796ea9857c391525aa75d8f645325ec985d775c85dec3d36070301",
        "03df9cee6b3cc587dbe174bb56602972c0b34806d4c2c025f41acee2ff0e248d73"
      ],
      "is_coinbase": false,
      "sequence": 4294967293,
      "inner_redeemscript_asm": "OP_0 OP_PUSHBYTES_20 0f270d603990c99c0e0705aa47bc5481ada4fe1e"
    },
    {
      "txid": "73234791cf0bfe35aa3c4a84370da8fefd4d4a08714462a7c4dc023a983a9503",
      "vout": 1,
      "prevout": {
        "scriptpubkey": "a914af7ee06c9023deb8ea93778370dfc4bce42193f787",
        "scriptpubkey_asm": "OP_HASH160 OP_PUSHBYTES_20 af7ee06c9023deb8ea93778370dfc4bce42193f7 OP_EQUAL",
        "scriptpubkey_type": "p2sh",
        "scriptpubkey_address": "3HgxAfABwmfREiHzQd1HGspPGULTXaaFiz",
        "value": 43425
      },
      "scriptsig": "1600140f270d603990c99c0e0705aa47bc5481ada4fe1e",
      "scriptsig_asm": "OP_PUSHBYTES_22 00140f270d603990c99c0e0705aa47bc5481ada4fe1e",
      "witness": [
        "3045022100ccb278d2222471079a7e66662f7354f206c1753484f03fe5129c14230142657f022010c6169730c70ecfea1a23c4cf675b4dc13a7adb2a971aeea8e9110ab7de1e9801",
        "03df9cee6b3cc587dbe174bb56602972c0b34806d4c2c025f41acee2ff0e248d73"
      ],
      "is_coinbase": false,
      "sequence": 4294967293,
      "inner_redeemscript_asm": "OP_0 OP_PUSHBYTES_20 0f270d603990c99c0e0705aa47bc5481ada4fe1e"
    },
    {
      "txid": "4b0de69d7a699acca4014f1ee7b33c2e0efc98a10f527dfc7de10a77ebb6c8c9",
      "vout": 6,
      "prevout": {
        "scriptpubkey": "a914af7ee06c9023deb8ea93778370dfc4bce42193f787",
        "scriptpubkey_asm": "OP_HASH160 OP_PUSHBYTES_20 af7ee06c9023deb8ea93778370dfc4bce42193f7 OP_EQUAL",
        "scriptpubkey_type": "p2sh",
        "scriptpubkey_address": "3HgxAfABwmfREiHzQd1HGspPGULTXaaFiz",
        "value": 35454
      },
      "scriptsig": "1600140f270d603990c99c0e0705aa47bc5481ada4fe1e",
      "scriptsig_asm": "OP_PUSHBYTES_22 00140f270d603990c99c0e0705aa47bc5481ada4fe1e",
      "witness": [
        "30440220479e32143e92f31206b9a307ea8fa951653a7e0006cb4c240fe83beb38dc863f0220109fe2201feac6be151db5b2db773b2d8695d807af70f440d741ac8a916d8b6d01",
        "03df9cee6b3cc587dbe174bb56602972c0b34806d4c2c025f41acee2ff0e248d73"
      ],
      "is_coinbase": false,
      "sequence": 4294967293,
      "inner_redeemscript_asm": "OP_0 OP_PUSHBYTES_20 0f270d603990c99c0e0705aa47bc5481ada4fe1e"
    },
    {
      "txid": "a726414709d7ba8e414283ae81f7bfecaf935760104d7ba87983d4bd1c6fdfa9",
      "vout": 1,
      "prevout": {
        "scriptpubkey": "a914af7ee06c9023deb8ea93778370dfc4bce42193f787",
        "scriptpubkey_asm": "OP_HASH160 OP_PUSHBYTES_20 af7ee06c9023deb8ea93778370dfc4bce42193f7 OP_EQUAL",
        "scriptpubkey_type": "p2sh",
        "scriptpubkey_address": "3HgxAfABwmfREiHzQd1HGspPGULTXaaFiz",
        "value": 5241
      },
      "scriptsig": "1600140f270d603990c99c0e0705aa47bc5481ada4fe1e",
      "scriptsig_asm": "OP_PUSHBYTES_22 00140f270d603990c99c0e0705aa47bc5481ada4fe1e",
      "witness": [
        "304402202671f20bdb214eadfb403bf84c06320f4bafe1616edb13956a10dff8df5403bd0220796e7c7acaa25c331b969fc4e11a5cb0d3db7bbb319fb5d655c16bb565e8159601",
        "03df9cee6b3cc587dbe174bb56602972c0b34806d4c2c025f41acee2ff0e248d73"
      ],
      "is_coinbase": false,
      "sequence": 4294967293,
      "inner_redeemscript_asm": "OP_0 OP_PUSHBYTES_20 0f270d603990c99c0e0705aa47bc5481ada4fe1e"
    },
    {
      "txid": "9ee1a3ba0b24d360e0985fdff25e0dd93358aff305ee12d3dc70c7d5122e8c95",
      "vout": 0,
      "prevout": {
        "scriptpubkey": "a914af7ee06c9023deb8ea93778370dfc4bce42193f787",
        "scriptpubkey_asm": "OP_HASH160 OP_PUSHBYTES_20 af7ee06c9023deb8ea93778370dfc4bce42193f7 OP_EQUAL",
        "scriptpubkey_type": "p2sh",
        "scriptpubkey_address": "3HgxAfABwmfREiHzQd1HGspPGULTXaaFiz",
        "value": 1200
      },
      "scriptsig": "1600140f270d603990c99c0e0705aa47bc5481ada4fe1e",
      "scriptsig_asm": "OP_PUSHBYTES_22 00140f270d603990c99c0e0705aa47bc5481ada4fe1e",
      "witness": [
        "304502210097795ec8a23c4a5c58cfdc65ed6b004ea65e279cdfe5511bc02a641c09c356a802201297534e39229b436c9620d547961270f4a2464195d39eaa261ccdf55a23efb101",
        "03df9cee6b3cc587dbe174bb56602972c0b34806d4c2c025f41acee2ff0e248d73"
      ],
      "is_coinbase": false,
      "sequence": 4294967293,
      "inner_redeemscript_asm": "OP_0 OP_PUSHBYTES_20 0f270d603990c99c0e0705aa47bc5481ada4fe1e"
    },
    {
      "txid": "5bf3ae02e55268ac8e82d3bb4dc03790a446d7fe9a1d6887d66363d7f31e09dc",
      "vout": 0,
      "prevout": {
        "scriptpubkey": "a914af7ee06c9023deb8ea93778370dfc4bce42193f787",
        "scriptpubkey_asm": "OP_HASH160 OP_PUSHBYTES_20 af7ee06c9023deb8ea93778370dfc4bce42193f7 OP_EQUAL",
        "scriptpubkey_type": "p2sh",
        "scriptpubkey_address": "3HgxAfABwmfREiHzQd1HGspPGULTXaaFiz",
        "value": 1200
      },
      "scriptsig": "1600140f270d603990c99c0e0705aa47bc5481ada4fe1e",
      "scriptsig_asm": "OP_PUSHBYTES_22 00140f270d603990c99c0e0705aa47bc5481ada4fe1e",
      "witness": [
        "304402206bcad31e5e6d49838358290e5874029f3230de9428b21de0301dbf3be32ae3cb02200f13b9fc67880bf54e9ada74c1ffba1d1089ad274e0b95ca9a3babb10dce4ba701",
        "03df9cee6b3cc587dbe174bb56602972c0b34806d4c2c025f41acee2ff0e248d73"
      ],
      "is_coinbase": false,
      "sequence": 4294967293,
      "inner_redeemscript_asm": "OP_0 OP_PUSHBYTES_20 0f270d603990c99c0e0705aa47bc5481ada4fe1e"
    },
    {
      "txid": "4b0de69d7a699acca4014f1ee7b33c2e0efc98a10f527dfc7de10a77ebb6c8c9",
      "vout": 0,
      "prevout": {
        "scriptpubkey": "a914af7ee06c9023deb8ea93778370dfc4bce42193f787",
        "scriptpubkey_asm": "OP_HASH160 OP_PUSHBYTES_20 af7ee06c9023deb8ea93778370dfc4bce42193f7 OP_EQUAL",
        "scriptpubkey_type": "p2sh",
        "scriptpubkey_address": "3HgxAfABwmfREiHzQd1HGspPGULTXaaFiz",
        "value": 1200
      },
      "scriptsig": "1600140f270d603990c99c0e0705aa47bc5481ada4fe1e",
      "scriptsig_asm": "OP_PUSHBYTES_22 00140f270d603990c99c0e0705aa47bc5481ada4fe1e",
      "witness": [
        "3045022100c0c83e407be3cbe0043db7aa5e36260040463aa6b677b1fba0b53cd03e1c841e02206b5a7a2882845bbfd01a9677524c6b090d88858ba824ae69f08aa5c2c948fc9e01",
        "03df9cee6b3cc587dbe174bb56602972c0b34806d4c2c025f41acee2ff0e248d73"
      ],
      "is_coinbase": false,
      "sequence": 4294967293,
      "inner_redeemscript_asm": "OP_0 OP_PUSHBYTES_20 0f270d603990c99c0e0705aa47bc5481ada4fe1e"
    },
    {
      "txid": "19404ec407f2d5a5157d893b9eced95351d1b13ffbff78000197bb778f01f902",
      "vout": 0,
      "prevout": {
        "scriptpubkey": "a914af7ee06c9023deb8ea93778370dfc4bce42193f787",
        "scriptpubkey_asm": "OP_HASH160 OP_PUSHBYTES_20 af7ee06c9023deb8ea93778370dfc4bce42193f7 OP_EQUAL",
        "scriptpubkey_type": "p2sh",
        "scriptpubkey_address": "3HgxAfABwmfREiHzQd1HGspPGULTXaaFiz",
        "value": 1200
      },
      "scriptsig": "1600140f270d603990c99c0e0705aa47bc5481ada4fe1e",
      "scriptsig_asm": "OP_PUSHBYTES_22 00140f270d603990c99c0e0705aa47bc5481ada4fe1e",
      "witness": [
        "30440220730e235ee7b305723d2dffee05106770e0710381420a347667ad2a7fa30280a10220549d311d08c9cde7ebbf5f93ae038216ce2934b3cef98f40ad842b64585e375a01",
        "03df9cee6b3cc587dbe174bb56602972c0b34806d4c2c025f41acee2ff0e248d73"
      ],
      "is_coinbase": false,
      "sequence": 4294967293,
      "inner_redeemscript_asm": "OP_0 OP_PUSHBYTES_20 0f270d603990c99c0e0705aa47bc5481ada4fe1e"
    },
    {
      "txid": "9ee1a3ba0b24d360e0985fdff25e0dd93358aff305ee12d3dc70c7d5122e8c95",
      "vout": 5,
      "prevout": {
        "scriptpubkey": "a914af7ee06c9023deb8ea93778370dfc4bce42193f787",
        "scriptpubkey_asm": "OP_HASH160 OP_PUSHBYTES_20 af7ee06c9023deb8ea93778370dfc4bce42193f7 OP_EQUAL",
        "scriptpubkey_type": "p2sh",
        "scriptpubkey_address": "3HgxAfABwmfREiHzQd1HGspPGULTXaaFiz",
        "value": 600
      },
      "scriptsig": "1600140f270d603990c99c0e0705aa47bc5481ada4fe1e",
      "scriptsig_asm": "OP_PUSHBYTES_22 00140f270d603990c99c0e0705aa47bc5481ada4fe1e",
      "witness": [
        "304502210089925bfbda81780d741f84d15f2e5f278358dce28592c05b110062c488fb7989022010ecc26113a2fda24dcc2ec49a2abfb120805cc4bde29312c088f376884af3f701",
        "03df9cee6b3cc587dbe174bb56602972c0b34806d4c2c025f41acee2ff0e248d73"
      ],
      "is_coinbase": false,
      "sequence": 4294967293,
      "inner_redeemscript_asm": "OP_0 OP_PUSHBYTES_20 0f270d603990c99c0e0705aa47bc5481ada4fe1e"
    },
    {
      "txid": "9ee1a3ba0b24d360e0985fdff25e0dd93358aff305ee12d3dc70c7d5122e8c95",
      "vout": 4,
      "prevout": {
        "scriptpubkey": "a914af7ee06c9023deb8ea93778370dfc4bce42193f787",
        "scriptpubkey_asm": "OP_HASH160 OP_PUSHBYTES_20 af7ee06c9023deb8ea93778370dfc4bce42193f7 OP_EQUAL",
        "scriptpubkey_type": "p2sh",
        "scriptpubkey_address": "3HgxAfABwmfREiHzQd1HGspPGULTXaaFiz",
        "value": 600
      },
      "scriptsig": "1600140f270d603990c99c0e0705aa47bc5481ada4fe1e",
      "scriptsig_asm": "OP_PUSHBYTES_22 00140f270d603990c99c0e0705aa47bc5481ada4fe1e",
      "witness": [
        "3045022100bd6ee19c2717a320fe454222e6ca54fad9e0c36dd6e6f1e1134da06f9b9a66290220496ec3221f2e625415f1564897ad2d194dd46c24cb0ef40974dad361d2ffc3d801",
        "03df9cee6b3cc587dbe174bb56602972c0b34806d4c2c025f41acee2ff0e248d73"
      ],
      "is_coinbase": false,
      "sequence": 4294967293,
      "inner_redeemscript_asm": "OP_0 OP_PUSHBYTES_20 0f270d603990c99c0e0705aa47bc5481ada4fe1e"
    },
    {
      "txid": "5bf3ae02e55268ac8e82d3bb4dc03790a446d7fe9a1d6887d66363d7f31e09dc",
      "vout": 5,
      "prevout": {
        "scriptpubkey": "a914af7ee06c9023deb8ea93778370dfc4bce42193f787",
        "scriptpubkey_asm": "OP_HASH160 OP_PUSHBYTES_20 af7ee06c9023deb8ea93778370dfc4bce42193f7 OP_EQUAL",
        "scriptpubkey_type": "p2sh",
        "scriptpubkey_address": "3HgxAfABwmfREiHzQd1HGspPGULTXaaFiz",
        "value": 600
      },
      "scriptsig": "1600140f270d603990c99c0e0705aa47bc5481ada4fe1e",
      "scriptsig_asm": "OP_PUSHBYTES_22 00140f270d603990c99c0e0705aa47bc5481ada4fe1e",
      "witness": [
        "3045022100a7b129914ea83ae8f6b25c1af445a8cbfed2d24b858dd5e9a56af4a2cc99e65c02205fd41afb4b79dc114f9d9dde1481d340af0abd6211d744025cd9e74ed30a95fb01",
        "03df9cee6b3cc587dbe174bb56602972c0b34806d4c2c025f41acee2ff0e248d73"
      ],
      "is_coinbase": false,
      "sequence": 4294967293,
      "inner_redeemscript_asm": "OP_0 OP_PUSHBYTES_20 0f270d603990c99c0e0705aa47bc5481ada4fe1e"
    },
    {
      "txid": "5bf3ae02e55268ac8e82d3bb4dc03790a446d7fe9a1d6887d66363d7f31e09dc",
      "vout": 4,
      "prevout": {
        "scriptpubkey": "a914af7ee06c9023deb8ea93778370dfc4bce42193f787",
        "scriptpubkey_asm": "OP_HASH160 OP_PUSHBYTES_20 af7ee06c9023deb8ea93778370dfc4bce42193f7 OP_EQUAL",
        "scriptpubkey_type": "p2sh",
        "scriptpubkey_address": "3HgxAfABwmfREiHzQd1HGspPGULTXaaFiz",
        "value": 600
      },
      "scriptsig": "1600140f270d603990c99c0e0705aa47bc5481ada4fe1e",
      "scriptsig_asm": "OP_PUSHBYTES_22 00140f270d603990c99c0e0705aa47bc5481ada4fe1e",
      "witness": [
        "304402201004d70ac661d29242d49c875db99688fa0fb8e1dd8a068e3d3b14c26f402d2b02206088252043073d4ad51aa38834857c1caf945160ca2ca5f8fb03b3f962c4ad2401",
        "03df9cee6b3cc587dbe174bb56602972c0b34806d4c2c025f41acee2ff0e248d73"
      ],
      "is_coinbase": false,
      "sequence": 4294967293,
      "inner_redeemscript_asm": "OP_0 OP_PUSHBYTES_20 0f270d603990c99c0e0705aa47bc5481ada4fe1e"
    },
    {
      "txid": "4b0de69d7a699acca4014f1ee7b33c2e0efc98a10f527dfc7de10a77ebb6c8c9",
      "vout": 5,
      "prevout": {
        "scriptpubkey": "a914af7ee06c9023deb8ea93778370dfc4bce42193f787",
        "scriptpubkey_asm": "OP_HASH160 OP_PUSHBYTES_20 af7ee06c9023deb8ea93778370dfc4bce42193f7 OP_EQUAL",
        "scriptpubkey_type": "p2sh",
        "scriptpubkey_address": "3HgxAfABwmfREiHzQd1HGspPGULTXaaFiz",
        "value": 600
      },
      "scriptsig": "1600140f270d603990c99c0e0705aa47bc5481ada4fe1e",
      "scriptsig_asm": "OP_PUSHBYTES_22 00140f270d603990c99c0e0705aa47bc5481ada4fe1e",
      "witness": [
        "304402207bc3f82b1f04f2aa08c53334e2d7c12ba88fc1d0f2869d3a8929a9fb4fbb213d02207906dcaa64a702378020858a4bc20307273f5354cc6803eef23621edca298e9501",
        "03df9cee6b3cc587dbe174bb56602972c0b34806d4c2c025f41acee2ff0e248d73"
      ],
      "is_coinbase": false,
      "sequence": 4294967293,
      "inner_redeemscript_asm": "OP_0 OP_PUSHBYTES_20 0f270d603990c99c0e0705aa47bc5481ada4fe1e"
    },
    {
      "txid": "4b0de69d7a699acca4014f1ee7b33c2e0efc98a10f527dfc7de10a77ebb6c8c9",
      "vout": 4,
      "prevout": {
        "scriptpubkey": "a914af7ee06c9023deb8ea93778370dfc4bce42193f787",
        "scriptpubkey_asm": "OP_HASH160 OP_PUSHBYTES_20 af7ee06c9023deb8ea93778370dfc4bce42193f7 OP_EQUAL",
        "scriptpubkey_type": "p2sh",
        "scriptpubkey_address": "3HgxAfABwmfREiHzQd1HGspPGULTXaaFiz",
        "value": 600
      },
      "scriptsig": "1600140f270d603990c99c0e0705aa47bc5481ada4fe1e",
      "scriptsig_asm": "OP_PUSHBYTES_22 00140f270d603990c99c0e0705aa47bc5481ada4fe1e",
      "witness": [
        "3045022100a03b12d85c9e9b2b7a4f0edeb5ad5fc884b208fdc0c99697fdd2ee1ef5c3149402201233c4bcb6505ec753dd8a7b2f54571b4f4d040179b15d010944cfa97515ab8501",
        "03df9cee6b3cc587dbe174bb56602972c0b34806d4c2c025f41acee2ff0e248d73"
      ],
      "is_coinbase": false,
      "sequence": 4294967293,
      "inner_redeemscript_asm": "OP_0 OP_PUSHBYTES_20 0f270d603990c99c0e0705aa47bc5481ada4fe1e"
    },
    {
      "txid": "419ad1c57164ea96cee3dcb9206e8c25ef5d9ab5b5c7866d4c1df96daaafc202",
      "vout": 8,
      "prevout": {
        "scriptpubkey": "a914af7ee06c9023deb8ea93778370dfc4bce42193f787",
        "scriptpubkey_asm": "OP_HASH160 OP_PUSHBYTES_20 af7ee06c9023deb8ea93778370dfc4bce42193f7 OP_EQUAL",
        "scriptpubkey_type": "p2sh",
        "scriptpubkey_address": "3HgxAfABwmfREiHzQd1HGspPGULTXaaFiz",
        "value": 600
      },
      "scriptsig": "1600140f270d603990c99c0e0705aa47bc5481ada4fe1e",
      "scriptsig_asm": "OP_PUSHBYTES_22 00140f270d603990c99c0e0705aa47bc5481ada4fe1e",
      "witness": [
        "3045022100ffb7c675a8df2b504e9b860d8b4710497da707c6f51152f4c680cff6acceafe40220648cf24c40c9cd0d1ff8da49f0ffe67f5fdcd43b82c360f018ec8a8a37c9b6fa01",
        "03df9cee6b3cc587dbe174bb56602972c0b34806d4c2c025f41acee2ff0e248d73"
      ],
      "is_coinbase": false,
      "sequence": 4294967293,
      "inner_redeemscript_asm": "OP_0 OP_PUSHBYTES_20 0f270d603990c99c0e0705aa47bc5481ada4fe1e"
    },
    {
      "txid": "419ad1c57164ea96cee3dcb9206e8c25ef5d9ab5b5c7866d4c1df96daaafc202",
      "vout": 7,
      "prevout": {
        "scriptpubkey": "a914af7ee06c9023deb8ea93778370dfc4bce42193f787",
        "scriptpubkey_asm": "OP_HASH160 OP_PUSHBYTES_20 af7ee06c9023deb8ea93778370dfc4bce42193f7 OP_EQUAL",
        "scriptpubkey_type": "p2sh",
        "scriptpubkey_address": "3HgxAfABwmfREiHzQd1HGspPGULTXaaFiz",
        "value": 600
      },
      "scriptsig": "1600140f270d603990c99c0e0705aa47bc5481ada4fe1e",
      "scriptsig_asm": "OP_PUSHBYTES_22 00140f270d603990c99c0e0705aa47bc5481ada4fe1e",
      "witness": [
        "304402205e0c7c59427cf02838dedd98027831ab34cb55ecb680c08b812f17ffa8476b3f022036dac1569f4339602be0de772dac26db90a7269a64192b210e9e325be890e6e701",
        "03df9cee6b3cc587dbe174bb56602972c0b34806d4c2c025f41acee2ff0e248d73"
      ],
      "is_coinbase": false,
      "sequence": 4294967293,
      "inner_redeemscript_asm": "OP_0 OP_PUSHBYTES_20 0f270d603990c99c0e0705aa47bc5481ada4fe1e"
    },
    {
      "txid": "419ad1c57164ea96cee3dcb9206e8c25ef5d9ab5b5c7866d4c1df96daaafc202",
      "vout": 3,
      "prevout": {
        "scriptpubkey": "a914af7ee06c9023deb8ea93778370dfc4bce42193f787",
        "scriptpubkey_asm": "OP_HASH160 OP_PUSHBYTES_20 af7ee06c9023deb8ea93778370dfc4bce42193f7 OP_EQUAL",
        "scriptpubkey_type": "p2sh",
        "scriptpubkey_address": "3HgxAfABwmfREiHzQd1HGspPGULTXaaFiz",
        "value": 600
      },
      "scriptsig": "1600140f270d603990c99c0e0705aa47bc5481ada4fe1e",
      "scriptsig_asm": "OP_PUSHBYTES_22 00140f270d603990c99c0e0705aa47bc5481ada4fe1e",
      "witness": [
        "3045022100f764732c0fbb55fb9d89fd6ae0cd5466e7eb0f588963ff5925fba113c98ee5e502204fc3edbd678390185e22bfef0f979d98e65fe4c9c0e5b5ca35e0e03cc5f391d801",
        "03df9cee6b3cc587dbe174bb56602972c0b34806d4c2c025f41acee2ff0e248d73"
      ],
      "is_coinbase": false,
      "sequence": 4294967293,
      "inner_redeemscript_asm": "OP_0 OP_PUSHBYTES_20 0f270d603990c99c0e0705aa47bc5481ada4fe1e"
    },
    {
      "txid": "419ad1c57164ea96cee3dcb9206e8c25ef5d9ab5b5c7866d4c1df96daaafc202",
      "vout": 2,
      "prevout": {
        "scriptpubkey": "a914af7ee06c9023deb8ea93778370dfc4bce42193f787",
        "scriptpubkey_asm": "OP_HASH160 OP_PUSHBYTES_20 af7ee06c9023deb8ea93778370dfc4bce42193f7 OP_EQUAL",
        "scriptpubkey_type": "p2sh",
        "scriptpubkey_address": "3HgxAfABwmfREiHzQd1HGspPGULTXaaFiz",
        "value": 600
      },
      "scriptsig": "1600140f270d603990c99c0e0705aa47bc5481ada4fe1e",
      "scriptsig_asm": "OP_PUSHBYTES_22 00140f270d603990c99c0e0705aa47bc5481ada4fe1e",
      "witness": [
        "3045022100ac8ac6abffb4daed6190b3cc26c3365701713acf48ec113f42bb54b54987541902203da4bbd06a0388ad2879864c3a2acd45da431c5161bb3f54f0b8e8168a749dfd01",
        "03df9cee6b3cc587dbe174bb56602972c0b34806d4c2c025f41acee2ff0e248d73"
      ],
      "is_coinbase": false,
      "sequence": 4294967293,
      "inner_redeemscript_asm": "OP_0 OP_PUSHBYTES_20 0f270d603990c99c0e0705aa47bc5481ada4fe1e"
    },
    {
      "txid": "762788d4209040b9ed9f22e29f219866304eb752df31a9619cdd1f25103f537a",
      "vout": 2,
      "prevout": {
        "scriptpubkey": "a914af7ee06c9023deb8ea93778370dfc4bce42193f787",
        "scriptpubkey_asm": "OP_HASH160 OP_PUSHBYTES_20 af7ee06c9023deb8ea93778370dfc4bce42193f7 OP_EQUAL",
        "scriptpubkey_type": "p2sh",
        "scriptpubkey_address": "3HgxAfABwmfREiHzQd1HGspPGULTXaaFiz",
        "value": 52246612
      },
      "scriptsig": "1600140f270d603990c99c0e0705aa47bc5481ada4fe1e",
      "scriptsig_asm": "OP_PUSHBYTES_22 00140f270d603990c99c0e0705aa47bc5481ada4fe1e",
      "witness": [
        "3045022100b8333ab4390f649569d88d1465b8984a0c1cbe271bbeef45f58279ff273e512b02205c7ae7bd0b48f325cfdfe5570aa2f813775af14742bf3c704cb4ddd74ad320cb01",
        "03df9cee6b3cc587dbe174bb56602972c0b34806d4c2c025f41acee2ff0e248d73"
      ],
      "is_coinbase": false,
      "sequence": 4294967293,
      "inner_redeemscript_asm": "OP_0 OP_PUSHBYTES_20 0f270d603990c99c0e0705aa47bc5481ada4fe1e"
    }
  ],
  "vout": [
    {
      "scriptpubkey": "0014410b7b7220c4a135f85eb02455cf4e2fb90981e3",
      "scriptpubkey_asm": "OP_0 OP_PUSHBYTES_20 410b7b7220c4a135f85eb02455cf4e2fb90981e3",
      "scriptpubkey_type": "v0_p2wpkh",
      "scriptpubkey_address": "bc1qgy9hku3qcjsnt7z7kqj9tn6w97usnq0r3xllkv",
      "value": 52300000
    },
    {
      "scriptpubkey": "a914af7ee06c9023deb8ea93778370dfc4bce42193f787",
      "scriptpubkey_asm": "OP_HASH160 OP_PUSHBYTES_20 af7ee06c9023deb8ea93778370dfc4bce42193f7 OP_EQUAL",
      "scriptpubkey_type": "p2sh",
      "scriptpubkey_address": "3HgxAfABwmfREiHzQd1HGspPGULTXaaFiz",
      "value": 1208172
    }
  ],
  "size": 4534,
  "weight": 9745,
  "fee": 38976,
  "status": {
    "confirmed": true,
    "block_height": 834638,
    "block_hash": "000000000000000000025f742c626208ac87e0b7d15054abb4a19ca2d735a54e",
    "block_time": 1710405325
  },
  "hex": "0200000000011a40143ce01b7d00aa2c332946fdd25161cc12a054dac1139ad488b57c8ce8353904000000171600140f270d603990c99c0e0705aa47bc5481ada4fe1efdffffffa8082a1adb68d7d2a6afc914ef8a7b0121ab1b4893d8c40957b3eca72e50e2080a000000171600140f270d603990c99c0e0705aa47bc5481ada4fe1efdffffff90c446b14e4b7947f01791f7b70c3fd5b479a7f15a83599964d873949dd1030602000000171600140f270d603990c99c0e0705aa47bc5481ada4fe1efdffffff74246d835e97e6c4a8fdd968ae79e1908c6cab498e34b4f08cb5ed9d959b4b0004000000171600140f270d603990c99c0e0705aa47bc5481ada4fe1efdffffffae54f5812544cdebf8d73f71660a88fcfca1fb7bb41fcd97e3bab51dd205aed301000000171600140f270d603990c99c0e0705aa47bc5481ada4fe1efdffffffd828340799b80ecb6d09ac63598997bab4245a65f9b7b273074088ee231e216301000000171600140f270d603990c99c0e0705aa47bc5481ada4fe1efdffffff6cafdaf545027ffc47585b9e72ca78da7a32826c44cb2def6960c1c7206d74cc02000000171600140f270d603990c99c0e0705aa47bc5481ada4fe1efdffffff1128164c668394fb2bf26c371b7dee485a0136b78712cf3db1fb35028fd7541102000000171600140f270d603990c99c0e0705aa47bc5481ada4fe1efdffffff03953a983a02dcc4a7624471084a4dfdfea80d37844a3caa35fe0bcf9147237301000000171600140f270d603990c99c0e0705aa47bc5481ada4fe1efdffffffc9c8b6eb770ae17dfc7d520fa198fc0e2e3cb3e71e4f01a4cc9a697a9de60d4b06000000171600140f270d603990c99c0e0705aa47bc5481ada4fe1efdffffffa9df6f1cbdd48379a87b4d10605793afecbff781ae8342418ebad709474126a701000000171600140f270d603990c99c0e0705aa47bc5481ada4fe1efdffffff958c2e12d5c770dcd312ee05f3af5833d90d5ef2df5f98e060d3240bbaa3e19e00000000171600140f270d603990c99c0e0705aa47bc5481ada4fe1efdffffffdc091ef3d76363d687681d9afed746a49037c04dbbd3828eac6852e502aef35b00000000171600140f270d603990c99c0e0705aa47bc5481ada4fe1efdffffffc9c8b6eb770ae17dfc7d520fa198fc0e2e3cb3e71e4f01a4cc9a697a9de60d4b00000000171600140f270d603990c99c0e0705aa47bc5481ada4fe1efdffffff02f9018f77bb97010078fffb3fb1d15153d9ce9e3b897d15a5d5f207c44e401900000000171600140f270d603990c99c0e0705aa47bc5481ada4fe1efdffffff958c2e12d5c770dcd312ee05f3af5833d90d5ef2df5f98e060d3240bbaa3e19e05000000171600140f270d603990c99c0e0705aa47bc5481ada4fe1efdffffff958c2e12d5c770dcd312ee05f3af5833d90d5ef2df5f98e060d3240bbaa3e19e04000000171600140f270d603990c99c0e0705aa47bc5481ada4fe1efdffffffdc091ef3d76363d687681d9afed746a49037c04dbbd3828eac6852e502aef35b05000000171600140f270d603990c99c0e0705aa47bc5481ada4fe1efdffffffdc091ef3d76363d687681d9afed746a49037c04dbbd3828eac6852e502aef35b04000000171600140f270d603990c99c0e0705aa47bc5481ada4fe1efdffffffc9c8b6eb770ae17dfc7d520fa198fc0e2e3cb3e71e4f01a4cc9a697a9de60d4b05000000171600140f270d603990c99c0e0705aa47bc5481ada4fe1efdffffffc9c8b6eb770ae17dfc7d520fa198fc0e2e3cb3e71e4f01a4cc9a697a9de60d4b04000000171600140f270d603990c99c0e0705aa47bc5481ada4fe1efdffffff02c2afaa6df91d4c6d86c7b5b59a5def258c6e20b9dce3ce96ea6471c5d19a4108000000171600140f270d603990c99c0e0705aa47bc5481ada4fe1efdffffff02c2afaa6df91d4c6d86c7b5b59a5def258c6e20b9dce3ce96ea6471c5d19a4107000000171600140f270d603990c99c0e0705aa47bc5481ada4fe1efdffffff02c2afaa6df91d4c6d86c7b5b59a5def258c6e20b9dce3ce96ea6471c5d19a4103000000171600140f270d603990c99c0e0705aa47bc5481ada4fe1efdffffff02c2afaa6df91d4c6d86c7b5b59a5def258c6e20b9dce3ce96ea6471c5d19a4102000000171600140f270d603990c99c0e0705aa47bc5481ada4fe1efdffffff7a533f10251fdd9c61a931df52b74e306698219fe2229fedb9409020d488277602000000171600140f270d603990c99c0e0705aa47bc5481ada4fe1efdffffff02e0081e0300000000160014410b7b7220c4a135f85eb02455cf4e2fb90981e36c6f12000000000017a914af7ee06c9023deb8ea93778370dfc4bce42193f78702473044022037bbf26d34e39e898559da9970c9e9213572efb017c8de68f6b46f8eb25905a90220501ee1dd423f5d02ea6fd35707803721bed6cbed83554d6524635f0dc9bd8ec2012103df9cee6b3cc587dbe174bb56602972c0b34806d4c2c025f41acee2ff0e248d730247304402205124f22b973b26e14d4e904e2e1fb179f7fa09d293c5f263d5d81528bfd034bd022046cd0aa523ecec9717a7ed990150951d0d8cca2ac6ee850a360179558d29ecbb012103df9cee6b3cc587dbe174bb56602972c0b34806d4c2c025f41acee2ff0e248d73024830450221009753920b07939624636605b1129d3b227c138cef3c9492ddc09becc8044f1cd60220455befb3c5f642c041e9f07b16a5091396af936c8a4c10b901aafe436147140d012103df9cee6b3cc587dbe174bb56602972c0b34806d4c2c025f41acee2ff0e248d730247304402200f85de14bac3104ea0c56b710f742681e712692695282aff4e9275cac2d989bf0220462e6135b1bd83ba62d001cb436827c3f82bb27184b8b4978545fd195d6ac820012103df9cee6b3cc587dbe174bb56602972c0b34806d4c2c025f41acee2ff0e248d73024730440220101e425d1b39f6c5feb35486fd5ae3bf18c94f3f251897752e606059559a42bf02204e2b504428006d1ed133aa2faf071edb4db5133ea6bf491ea4cf11a65edd5c9c012103df9cee6b3cc587dbe174bb56602972c0b34806d4c2c025f41acee2ff0e248d7302473044022077f230512a7ebcf772a449e78e6ea26f6ebede244470a129cf5c9c44d318f384022005fbd4a1c9cd7c302bfdc679a01f150be8e1c6d829521619b26383635de573cb012103df9cee6b3cc587dbe174bb56602972c0b34806d4c2c025f41acee2ff0e248d730247304402206e8547bc81f50ee1c78cb7f74a6e3b9103460166510810556c5baa4f6a53690b02202ef1ac7213e62e5a2e2ada7748f0bdd05cc7dd4bda2fcc5028dac00b4250f0a6012103df9cee6b3cc587dbe174bb56602972c0b34806d4c2c025f41acee2ff0e248d7302483045022100ce02e04a1ab1a1282a8abddfd186d8d68697aa8149d65e70cc844d2ee43120fb02205463ae78bb8a796ea9857c391525aa75d8f645325ec985d775c85dec3d360703012103df9cee6b3cc587dbe174bb56602972c0b34806d4c2c025f41acee2ff0e248d7302483045022100ccb278d2222471079a7e66662f7354f206c1753484f03fe5129c14230142657f022010c6169730c70ecfea1a23c4cf675b4dc13a7adb2a971aeea8e9110ab7de1e98012103df9cee6b3cc587dbe174bb56602972c0b34806d4c2c025f41acee2ff0e248d73024730440220479e32143e92f31206b9a307ea8fa951653a7e0006cb4c240fe83beb38dc863f0220109fe2201feac6be151db5b2db773b2d8695d807af70f440d741ac8a916d8b6d012103df9cee6b3cc587dbe174bb56602972c0b34806d4c2c025f41acee2ff0e248d730247304402202671f20bdb214eadfb403bf84c06320f4bafe1616edb13956a10dff8df5403bd0220796e7c7acaa25c331b969fc4e11a5cb0d3db7bbb319fb5d655c16bb565e81596012103df9cee6b3cc587dbe174bb56602972c0b34806d4c2c025f41acee2ff0e248d730248304502210097795ec8a23c4a5c58cfdc65ed6b004ea65e279cdfe5511bc02a641c09c356a802201297534e39229b436c9620d547961270f4a2464195d39eaa261ccdf55a23efb1012103df9cee6b3cc587dbe174bb56602972c0b34806d4c2c025f41acee2ff0e248d730247304402206bcad31e5e6d49838358290e5874029f3230de9428b21de0301dbf3be32ae3cb02200f13b9fc67880bf54e9ada74c1ffba1d1089ad274e0b95ca9a3babb10dce4ba7012103df9cee6b3cc587dbe174bb56602972c0b34806d4c2c025f41acee2ff0e248d7302483045022100c0c83e407be3cbe0043db7aa5e36260040463aa6b677b1fba0b53cd03e1c841e02206b5a7a2882845bbfd01a9677524c6b090d88858ba824ae69f08aa5c2c948fc9e012103df9cee6b3cc587dbe174bb56602972c0b34806d4c2c025f41acee2ff0e248d73024730440220730e235ee7b305723d2dffee05106770e0710381420a347667ad2a7fa30280a10220549d311d08c9cde7ebbf5f93ae038216ce2934b3cef98f40ad842b64585e375a012103df9cee6b3cc587dbe174bb56602972c0b34806d4c2c025f41acee2ff0e248d730248304502210089925bfbda81780d741f84d15f2e5f278358dce28592c05b110062c488fb7989022010ecc26113a2fda24dcc2ec49a2abfb120805cc4bde29312c088f376884af3f7012103df9cee6b3cc587dbe174bb56602972c0b34806d4c2c025f41acee2ff0e248d7302483045022100bd6ee19c2717a320fe454222e6ca54fad9e0c36dd6e6f1e1134da06f9b9a66290220496ec3221f2e625415f1564897ad2d194dd46c24cb0ef40974dad361d2ffc3d8012103df9cee6b3cc587dbe174bb56602972c0b34806d4c2c025f41acee2ff0e248d7302483045022100a7b129914ea83ae8f6b25c1af445a8cbfed2d24b858dd5e9a56af4a2cc99e65c02205fd41afb4b79dc114f9d9dde1481d340af0abd6211d744025cd9e74ed30a95fb012103df9cee6b3cc587dbe174bb56602972c0b34806d4c2c025f41acee2ff0e248d730247304402201004d70ac661d29242d49c875db99688fa0fb8e1dd8a068e3d3b14c26f402d2b02206088252043073d4ad51aa38834857c1caf945160ca2ca5f8fb03b3f962c4ad24012103df9cee6b3cc587dbe174bb56602972c0b34806d4c2c025f41acee2ff0e248d730247304402207bc3f82b1f04f2aa08c53334e2d7c12ba88fc1d0f2869d3a8929a9fb4fbb213d02207906dcaa64a702378020858a4bc20307273f5354cc6803eef23621edca298e95012103df9cee6b3cc587dbe174bb56602972c0b34806d4c2c025f41acee2ff0e248d7302483045022100a03b12d85c9e9b2b7a4f0edeb5ad5fc884b208fdc0c99697fdd2ee1ef5c3149402201233c4bcb6505ec753dd8a7b2f54571b4f4d040179b15d010944cfa97515ab85012103df9cee6b3cc587dbe174bb56602972c0b34806d4c2c025f41acee2ff0e248d7302483045022100ffb7c675a8df2b504e9b860d8b4710497da707c6f51152f4c680cff6acceafe40220648cf24c40c9cd0d1ff8da49f0ffe67f5fdcd43b82c360f018ec8a8a37c9b6fa012103df9cee6b3cc587dbe174bb56602972c0b34806d4c2c025f41acee2ff0e248d730247304402205e0c7c59427cf02838dedd98027831ab34cb55ecb680c08b812f17ffa8476b3f022036dac1569f4339602be0de772dac26db90a7269a64192b210e9e325be890e6e7012103df9cee6b3cc587dbe174bb56602972c0b34806d4c2c025f41acee2ff0e248d7302483045022100f764732c0fbb55fb9d89fd6ae0cd5466e7eb0f588963ff5925fba113c98ee5e502204fc3edbd678390185e22bfef0f979d98e65fe4c9c0e5b5ca35e0e03cc5f391d8012103df9cee6b3cc587dbe174bb56602972c0b34806d4c2c025f41acee2ff0e248d7302483045022100ac8ac6abffb4daed6190b3cc26c3365701713acf48ec113f42bb54b54987541902203da4bbd06a0388ad2879864c3a2acd45da431c5161bb3f54f0b8e8168a749dfd012103df9cee6b3cc587dbe174bb56602972c0b34806d4c2c025f41acee2ff0e248d7302483045022100b8333ab4390f649569d88d1465b8984a0c1cbe271bbeef45f58279ff273e512b02205c7ae7bd0b48f325cfdfe5570aa2f813775af14742bf3c704cb4ddd74ad320cb012103df9cee6b3cc587dbe174bb56602972c0b34806d4c2c025f41acee2ff0e248d7300000000"
}