{
  "txid": "7882a18362a3794d4d89e8a10d00e35fc539511e6babea172c9885dbae840aa9",
  "version": 2,
  "locktime": 834442,
  "vin": [
    {
      "txid": "cfe251d21429cfcce00f1986347923ad0a53142f8281e1df1340b25c3a4a4a77",
      "vout": 4,
      "prevout": {
        "scriptpubkey": "0014b55fc5f0a4383b6cc299fc557da4bbc398b0ea03",
        "scriptpubkey_asm": "OP_0 OP_PUSHBYTES_20 b55fc5f0a4383b6cc299fc557da4bbc398b0ea03",
        "scriptpubkey_type": "v0_p2wpkh",
        "scriptpubkey_address": "bc1qk40utu9y8qakes5el32hmf9mcwvtp6srm45cur",
        "value": 100000
      },
      "scriptsig": "",
      "scriptsig_asm": "",
      "witness": [
        "304402205a8b07e1357fa0e2d3362f8eaa1edbca55fa1f0533d56967e5f2696f746fa93002204323020e0654467ec486fa095d23cb826107ab2f1e1fd34404d028aeb5546b7a01",
        "036f6e727a53821352b6db22f46a05d39d33ed1c8b7c6892acb371eb7a8ed78e78"
      ],
      "is_coinbase": false,
      "sequence": 4294967293
    }
  ],
  "vout": [
    {
      "scriptpubkey": "0014cd33e0df3d4ad48194613f6d1831b5fb718da9a5",
      "scriptpubkey_asm": "OP_0 OP_PUSHBYTES_20 cd33e0df3d4ad48194613f6d1831b5fb718da9a5",
      "scriptpubkey_type": "v0_p2wpkh",
      "scriptpubkey_address": "bc1qe5e7pheaft2gr9rp8ak3svd4ldccm2d9f83f5n",
      "value": 98725
    }
  ],
  "size": 191,
  "weight": 437,
  "fee": 1275,
  "status": {
    "confirmed": true,
    "block_height": 834460,
    "block_hash": "00000000000000000000484a79b643b2524bbce82e5d8a442013fa5b8905ed98",
    "block_time": 1710307468
  },
  "hex": "02000000000101774a4a3a5cb24013dfe181822f14530aad23793486190fe0cccf2914d251e2cf0400000000fdffffff01a581010000000000160014cd33e0df3d4ad48194613f6d1831b5fb718da9a50247304402205a8b07e1357fa0e2d3362f8eaa1edbca55fa1f0533d56967e5f2696f746fa93002204323020e0654467ec486fa095d23cb826107ab2f1e1fd34404d028aeb5546b7a0121036f6e727a53821352b6db22f46a05d39d33ed1c8b7c6892acb371eb7a8ed78e788abb0c00"
}