{
  "txid": "788c72af07fe924d9a123ffccf649829baca970f0422258be1f631ec9dbaea10",
  "version": 2,
  "locktime": 0,
  "vin": [
    {
      "txid": "12848a1f84ad552475e874cce291926f292412de23b7537898e98c7370f2e86c",
      "vout": 5,
      "prevout": {
        "scriptpubkey": "512090337adde12a8fb0641db2a5a7006c77966988309b0f3a84253b8d147a12b465",
        "scriptpubkey_asm": "OP_PUSHNUM_1 OP_PUSHBYTES_32 90337adde12a8fb0641db2a5a7006c77966988309b0f3a84253b8d147a12b465",
        "scriptpubkey_type": "v1_p2tr",
        "scriptpubkey_address": "bc1pjqeh4h0p928mqeqak2j6wqrvw7txnzpsnv8n4pp98wx3g7sjk3jsqntjdy",
        "value": 2358
      },
      "scriptsig": "",
      "scriptsig_asm": "",
      "witness": [
        "1152ecd9d8622556520ffc247a52dd6434a6dd4e80d18e90e31c23d9975b768f56901f20913bfe63ce906782f3ea15171145681081908112d36fc3ba5a51e0f2",
        "20b5ad01249897c31e89904fbc05cf5dfedf77374c46cea11ac8f3868e7673e3d6ac0063036f7264010118746578742f706c61696e3b636861727365743d7574662d3800377b2270223a226272632d3230222c226f70223a226d696e74222c227469636b223a22424f424f222c22616d74223a22313030303030227d68",
        "c1507504f881a2548efcb0bd8b5287fd78c473d5bd35b181abdd5c5cd6d10de204"
      ],
      "is_coinbase": false,
      "sequence": 4294967295
    }
  ],
  "vout": [
    {
      "scriptpubkey": "512048d62e6aa4ce9b4b4d760b1dc0c3e46b46d84be76ae456792a664139e7aaa19c",
      "scriptpubkey_asm": "OP_PUSHNUM_1 OP_PUSHBYTES_32 48d62e6aa4ce9b4b4d760b1dc0c3e46b46d84be76ae456792a664139e7aaa19c",
      "scriptpubkey_type": "v1_p2tr",
      "scriptpubkey_address": "bc1pfrtzu64ye6d5kntkpvwupslyddrdsjl8dtj9v7f2veqnnea25xwqu8ycu4",
      "value": 546
    }
  ],
  "size": 322,
  "weight": 604,
  "fee": 1812,
  "status": {
    "confirmed": true,
    "block_height": 834460,
    "block_hash": "00000000000000000000484a79b643b2524bbce82e5d8a442013fa5b8905ed98",
    "block_time": 1710307468
  },
  "hex": "020000000001016ce8f270738ce9987853b723de1224296f9291e2cc74e8752455ad841f8a84120500000000ffffffff01220200000000000022512048d62e6aa4ce9b4b4d760b1dc0c3e46b46d84be76ae456792a664139e7aaa19c03401152ecd9d8622556520ffc247a52dd6434a6dd4e80d18e90e31c23d9975b768f56901f20913bfe63ce906782f3ea15171145681081908112d36fc3ba5a51e0f27d20b5ad01249897c31e89904fbc05cf5dfedf77374c46cea11ac8f3868e7673e3d6ac0063036f7264010118746578742f706c61696e3b636861727365743d7574662d3800377b2270223a226272632d3230222c226f70223a226d696e74222c227469636b223a22424f424f222c22616d74223a22313030303030227d6821c1507504f881a2548efcb0bd8b5287fd78c473d5bd35b181abdd5c5cd6d10de20400000000"
}