{
  "txid": "788f0d52e2e9bfc0db0a8ee972fb2b4ad3d89a49a994c78184138adcc6e5c492",
  "version": 1,
  "locktime": 0,
  "vin": [
    {
      "txid": "596f68a282628bbb7d241aa30c183b0c6d9008c7ae609af93a0d1cb81df414ff",
      "vout": 1,
      "prevout": {
        "scriptpubkey": "76a914b0a2fe061cd358c6899616a668cb722ba5a7a12688ac",
        "scriptpubkey_asm": "OP_DUP OP_HASH160 OP_PUSHBYTES_20 b0a2fe061cd358c6899616a668cb722ba5a7a126 OP_EQUALVERIFY OP_CHECKSIG",
        "scriptpubkey_type": "p2pkh",
        "scriptpubkey_address": "1H6yBfXuk5EMpBTTHTjYAvPWbHHNkGL8A6",
        "value": 1276211
      },
      "scriptsig": "473044022014db39251b6bccb7f5e6e588ea3c4191566a160d4b40fff943e76f5ee4540fee022068ee3ee97ea5158027a6b61ca2038d4496d6d1240cf7dc5c3c4c88e808d387bd01210309636534535374e942303876fcedb5b08dbd7c6eac7a5b9e0a2c5abed44ace95",
      "scriptsig_asm": "OP_PUSHBYTES_71 3044022014db39251b6bccb7f5e6e588ea3c4191566a160d4b40fff943e76f5ee4540fee022068ee3ee97ea5158027a6b61ca2038d4496d6d1240cf7dc5c3c4c88e808d387bd01 OP_PUSHBYTES_33 0309636534535374e942303876fcedb5b08dbd7c6eac7a5b9e0a2c5abed44ace95",
      "is_coinbase": false,
      "sequence": 4294967295
    }
  ],
  "vout": [
    {
      "scriptpubkey": "a9143c55ebad7598f5b78c9b829ad1bfcdf09fa375ad87",
      "scriptpubkey_asm": "OP_HASH160 OP_PUSHBYTES_20 3c55ebad7598f5b78c9b829ad1bfcdf09fa375ad OP_EQUAL",
      "scriptpubkey_type": "p2sh",
      "scriptpubkey_address": "37C3PvTtw3J6bikNZcE9QaNBh53xeYMK3F",
      "value": 693470
    },
    {
      "scriptpubkey": "76a914668a117bf2a59e031dd80c5f3fb56cca68a7e6fd88ac",
      "scriptpubkey_asm": "OP_DUP OP_HASH160 OP_PUSHBYTES_20 668a117bf2a59e031dd80c5f3fb56cca68a7e6fd OP_EQUALVERIFY OP_CHECKSIG",
      "scriptpubkey_type": "p2pkh",
      "scriptpubkey_address": "1AMBKimjmkDQo7pz8JutAe8P6PRUUp82Qm",
      "value": 577995
    }
  ],
  "size": 223,
  "weight": 892,
  "fee": 4746,
  "status": {
    "confirmed": true,
    "block_height": 834460,
    "block_hash": "00000000000000000000484a79b643b2524bbce82e5d8a442013fa5b8905ed98",
    "block_time": 1710307468
  },
  "hex": "0100000001ff14f41db81c0d3af99a60aec708906d0c3b180ca31a247dbb8b6282a2686f59010000006a473044022014db39251b6bccb7f5e6e588ea3c4191566a160d4b40fff943e76f5ee4540fee022068ee3ee97ea5158027a6b61ca2038d4496d6d1240cf7dc5c3c4c88e808d387bd01210309636534535374e942303876fcedb5b08dbd7c6eac7a5b9e0a2c5abed44ace95ffffffff02de940a000000000017a9143c55ebad7598f5b78c9b829ad1bfcdf09fa375ad87cbd10800000000001976a914668a117bf2a59e031dd80c5f3fb56cca68a7e6fd88ac00000000"
}