{
  "txid": "78916d8645652a97356502ebbec2c258ec461ce55eec41c78a9eb7a7da43db72",
  "version": 1,
  "locktime": 0,
  "vin": [
    {
      "txid": "e76fc7b7910c28fd8d9e354d8fe60fef8008e34ec617c2ca0ebd58b6c844ab3d",
      "vout": 1,
      "prevout": {
        "scriptpubkey": "76a914cdeebe7c625fd86eb27d8d50752e582874fb2cd188ac",
        "scriptpubkey_asm": "OP_DUP OP_HASH160 OP_PUSHBYTES_20 cdeebe7c625fd86eb27d8d50752e582874fb2cd1 OP_EQUALVERIFY OP_CHECKSIG",
        "scriptpubkey_type": "p2pkh",
        "scriptpubkey_address": "1KmsXZCNZEEWKZqkRgMDvoME14dMCidSPy",
        "value": 605161
      },
      "scriptsig": "483045022100f5c5a2812928197343b09a5f7f6c127f91948381859a454999a53bb3fd2a12bc022079daa75b050eefd7c514f9aa4c99dc911b405e8897f9aef71b58e82d3401a0c70121032fbf3de1b54cb9febd12f20c9fe1fabf6be91c8ecb6c1cc56d1c9e74ca0ff4fb",
      "scriptsig_asm": "OP_PUSHBYTES_72 3045022100f5c5a2812928197343b09a5f7f6c127f91948381859a454999a53bb3fd2a12bc022079daa75b050eefd7c514f9aa4c99dc911b405e8897f9aef71b58e82d3401a0c701 OP_PUSHBYTES_33 032fbf3de1b54cb9febd12f20c9fe1fabf6be91c8ecb6c1cc56d1c9e74ca0ff4fb",
      "is_coinbase": false,
      "sequence": 4294967295
    }
  ],
  "vout": [
    {
      "scriptpubkey": "a91410fecc2fed12058275ce283ee1e96d02b41b3f2987",
      "scriptpubkey_asm": "OP_HASH160 OP_PUSHBYTES_20 10fecc2fed12058275ce283ee1e96d02b41b3f29 OP_EQUAL",
      "scriptpubkey_type": "p2sh",
      "scriptpubkey_address": "33EsyG6Zm9St8YmoPLaNjrxT61hy4PGR9R",
      "value": 597751
    }
  ],
  "size": 190,
  "weight": 760,
  "fee": 7410,
  "status": {
    "confirmed": true,
    "block_height": 834638,
    "block_hash": "000000000000000000025f742c626208ac87e0b7d15054abb4a19ca2d735a54e",
    "block_time": 1710405325
  },
  "hex": "01000000013dab44c8b658bd0ecac217c64ee30880ef0fe68f4d359e8dfd280c91b7c76fe7010000006b483045022100f5c5a2812928197343b09a5f7f6c127f91948381859a454999a53bb3fd2a12bc022079daa75b050eefd7c514f9aa4c99dc911b405e8897f9aef71b58e82d3401a0c70121032fbf3de1b54cb9febd12f20c9fe1fabf6be91c8ecb6c1cc56d1c9e74ca0ff4fbffffffff01f71e09000000000017a91410fecc2fed12058275ce283ee1e96d02b41b3f298700000000"
}