{
  "txid": "78ab4c79b1f8740967aacab8693c53989cc66436726d4fe102722b07574a9101",
  "version": 2,
  "locktime": 0,
  "vin": [
    {
      "txid": "03fe6d61c1cc56cd1efc4fe18b4b7042b867fde17814ccd0f2619e7f86315b06",
      "vout": 3,
      "prevout": {
        "scriptpubkey": "002099d25753b976a620b49455792fbed9838c38857c49d58ab358fb001f1ec64ca8",
        "scriptpubkey_asm": "OP_0 OP_PUSHBYTES_32 99d25753b976a620b49455792fbed9838c38857c49d58ab358fb001f1ec64ca8",
        "scriptpubkey_type": "v0_p2wsh",
        "scriptpubkey_address": "bc1qn8f9w5aew6nzpdy524ujl0keswxr3ptuf82c4v6clvqp78kxfj5qflrm6p",
        "value": 93034
      },
      "scriptsig": "",
      "scriptsig_asm": "",
      "witness": [
        "3045022100e9005a06e35ee40cee9a244b3353257a63e8752d38c4afa299cbb68b76e2f7c102200749eeeea52eb8127b8737791b89a85fcb0baddc7c7b6138f80a10794dd2c27901",
        "21027af9b1c665a6eab096b4078bf7502e74b6a4c06261f65b9a168a07087cd0c545ad51b2"
      ],
      "is_coinbase": false,
      "sequence": 1,
      "inner_witnessscript_asm": "OP_PUSHBYTES_33 027af9b1c665a6eab096b4078bf7502e74b6a4c06261f65b9a168a07087cd0c545 OP_CHECKSIGVERIFY OP_PUSHNUM_1 OP_CSV"
    }
  ],
  "vout": [
    {
      "scriptpubkey": "0014c796c90b4b168f7af31fa298c406bd62bf592c7e",
      "scriptpubkey_asm": "OP_0 OP_PUSHBYTES_20 c796c90b4b168f7af31fa298c406bd62bf592c7e",
      "scriptpubkey_type": "v0_p2wpkh",
      "scriptpubkey_address": "bc1qc7tvjz6tz68h4ucl52vvgp4av2l4jtr7x2rdfx",
      "value": 91816
    }
  ],
  "size": 196,
  "weight": 442,
  "fee": 1218,
  "status": {
    "confirmed": true,
    "block_height": 834464,
    "block_hash": "0000000000000000000177a0869a911a2b65c9bdcd5a8bcb02b68f305bee848e",
    "block_time": 1710308296
  },
  "hex": "02000000000101065b31867f9e61f2d0cc1478e1fd67b842704b8be14ffc1ecd56ccc1616dfe0303000000000100000001a866010000000000160014c796c90b4b168f7af31fa298c406bd62bf592c7e02483045022100e9005a06e35ee40cee9a244b3353257a63e8752d38c4afa299cbb68b76e2f7c102200749eeeea52eb8127b8737791b89a85fcb0baddc7c7b6138f80a10794dd2c279012521027af9b1c665a6eab096b4078bf7502e74b6a4c06261f65b9a168a07087cd0c545ad51b200000000"
}