{
  "txid": "78b4d2e161768ac9d84a4a67f18a1fc759d49353f6c3ef0a39c49d7b91431fc7",
  "version": 1,
  "locktime": 0,
  "vin": [
    {
      "txid": "5a8453e7be387d77dee25d95092e1bcbeb2ca752446b72089e51e2a263779439",
      "vout": 1,
      "prevout": {
        "scriptpubkey": "0014303339128bc1e7928aebac5f28757088066d5977",
        "scriptpubkey_asm": "OP_0 OP_PUSHBYTES_20 303339128bc1e7928aebac5f28757088066d5977",
        "scriptpubkey_type": "v0_p2wpkh",
        "scriptpubkey_address": "bc1qxqenjy5tc8ne9zht430jsats3qrx6kthmqu50d",
        "value": 359971
      },
      "scriptsig": "",
      "scriptsig_asm": "",
      "witness": [
        "304502210086250dbf3b51b41141f5d8c13fa922de4db62d8fdc18a73d43ab812bd1b2eab402206fb7004bf5f47ddf9b584fb9a61cf6ddf92933ed1825a233ec212571a1fe236801",
        "0279f9d72d9b9b1dcb10f7ce421deb098c111f9504f4c35d2f77d14ee0d7bea71e"
      ],
      "is_coinbase": false,
      "sequence": 4294967293
    }
  ],
  "vout": [
    {
      "scriptpubkey": "51203945cd0464ef9bf552facaa2986f2aa60448cab5bd1f27336cd1154c514d69b4",
      "scriptpubkey_asm": "OP_PUSHNUM_1 OP_PUSHBYTES_32 3945cd0464ef9bf552facaa2986f2aa60448cab5bd1f27336cd1154c514d69b4",
      "scriptpubkey_type": "v1_p2tr",
      "scriptpubkey_address": "bc1p89zu6prya7dl25h6e23fsme25czy3j44h50jwvmv6y25c52ddx6qsas38l",
      "value": 2721
    },
    {
      "scriptpubkey": "0014303339128bc1e7928aebac5f28757088066d5977",
      "scriptpubkey_asm": "OP_0 OP_PUSHBYTES_20 303339128bc1e7928aebac5f28757088066d5977",
      "scriptpubkey_type": "v0_p2wpkh",
      "scriptpubkey_address": "bc1qxqenjy5tc8ne9zht430jsats3qrx6kthmqu50d",
      "value": 354925
    }
  ],
  "size": 235,
  "weight": 610,
  "fee": 2325,
  "status": {
    "confirmed": true,
    "block_height": 834460,
    "block_hash": "00000000000000000000484a79b643b2524bbce82e5d8a442013fa5b8905ed98",
    "block_time": 1710307468
  },
  "hex": "0100000000010139947763a2e2519e08726b4452a72cebcb1b2e09955de2de777d38bee753845a0100000000fdffffff02a10a0000000000002251203945cd0464ef9bf552facaa2986f2aa60448cab5bd1f27336cd1154c514d69b46d6a050000000000160014303339128bc1e7928aebac5f28757088066d59770248304502210086250dbf3b51b41141f5d8c13fa922de4db62d8fdc18a73d43ab812bd1b2eab402206fb7004bf5f47ddf9b584fb9a61cf6ddf92933ed1825a233ec212571a1fe236801210279f9d72d9b9b1dcb10f7ce421deb098c111f9504f4c35d2f77d14ee0d7bea71e00000000"
}