{
  "txid": "78dafa003619fa27907be33110929d7d41eba6d3c1e8d708c18198c7177ef2de",
  "version": 2,
  "locktime": 0,
  "vin": [
    {
      "txid": "acc3ba00869acb582a3f2904ce3a11dd3779350ce234063fc7d0959246213364",
      "vout": 292,
      "prevout": {
        "scriptpubkey": "5120972919d3a9444e789175312063ee5aa28a0fba3d6d25970f4a939cca02b34099",
        "scriptpubkey_asm": "OP_PUSHNUM_1 OP_PUSHBYTES_32 972919d3a9444e789175312063ee5aa28a0fba3d6d25970f4a939cca02b34099",
        "scriptpubkey_type": "v1_p2tr",
        "scriptpubkey_address": "bc1pju53n5afg3883yt4xysx8mj6529qlw3ad5jewr62jwwv5q4ngzvsytkleg",
        "value": 1806
      },
      "scriptsig": "",
      "scriptsig_asm": "",
      "witness": [
        "f27d725aeb97c165c46768c4a14fdaec6dca9268563b571798f95aafc81bf9a49fcf0773878d79a9a28c93bd422a017ea17900e3aa59e24e01e0faa6b16084f5",
        "2015e229aac26e45a656f13d84d16f667c8052f10c25ffc72757b5cc11f3c855d3ac0063036f726401010a746578742f706c61696e00357b2270223a226272632d3230222c226f70223a226d696e74222c227469636b223a22646f6765222c22616d74223a2234323030227d68",
        "c015e229aac26e45a656f13d84d16f667c8052f10c25ffc72757b5cc11f3c855d3"
      ],
      "is_coinbase": false,
      "sequence": 4261412863
    }
  ],
  "vout": [
    {
      "scriptpubkey": "00147a665de7a370f4c9b372ab1fae587500a5bcbdb4",
      "scriptpubkey_asm": "OP_0 OP_PUSHBYTES_20 7a665de7a370f4c9b372ab1fae587500a5bcbdb4",
      "scriptpubkey_type": "v0_p2wpkh",
      "scriptpubkey_address": "bc1q0fn9mearwr6vnvmj4v06ukr4qzjme0d565dzcx",
      "value": 294
    }
  ],
  "size": 294,
  "weight": 540,
  "fee": 1512,
  "status": {
    "confirmed": true,
    "block_height": 834460,
    "block_hash": "00000000000000000000484a79b643b2524bbce82e5d8a442013fa5b8905ed98",
    "block_time": 1710307468
  },
  "hex": "02000000000101643321469295d0c73f0634e20c357937dd113ace04293f2a58cb9a8600bac3ac2401000000fffffffd0126010000000000001600147a665de7a370f4c9b372ab1fae587500a5bcbdb40340f27d725aeb97c165c46768c4a14fdaec6dca9268563b571798f95aafc81bf9a49fcf0773878d79a9a28c93bd422a017ea17900e3aa59e24e01e0faa6b16084f56d2015e229aac26e45a656f13d84d16f667c8052f10c25ffc72757b5cc11f3c855d3ac0063036f726401010a746578742f706c61696e00357b2270223a226272632d3230222c226f70223a226d696e74222c227469636b223a22646f6765222c22616d74223a2234323030227d6821c015e229aac26e45a656f13d84d16f667c8052f10c25ffc72757b5cc11f3c855d300000000"
}