{
  "txid": "78dcba76bcdd404f4597c6be549455acb4b12597f0675427f4da3a48ac5d7af2",
  "version": 2,
  "locktime": 0,
  "vin": [
    {
      "txid": "cff18b4559633437c6b86c4dda97cfb257bbb38034c432a508417c66c18b6b72",
      "vout": 26,
      "prevout": {
        "scriptpubkey": "5120ae371fa2b815cea354d0070936b70177dfdb56679d3b1a65c9d568dd42fb56eb",
        "scriptpubkey_asm": "OP_PUSHNUM_1 OP_PUSHBYTES_32 ae371fa2b815cea354d0070936b70177dfdb56679d3b1a65c9d568dd42fb56eb",
        "scriptpubkey_type": "v1_p2tr",
        "scriptpubkey_address": "bc1p4cm3lg4czh82x4xsquynddcpwl0ak4n8n5a35ewf645d6shm2m4sk83hdq",
        "value": 3634
      },
      "scriptsig": "",
      "scriptsig_asm": "",
      "witness": [
        "cab0a6759bec790bb428a60eb9a28afb9da223643377e391d0d29719c0861145d91abc47a246c95394816caae9a4410c3139409ee0924b67671dc04968a68dec",
        "20b8a8515a8932fff0d7768a7467d78776c5de16057beaa486bdd45c328e7c970eac0063036f726401011e6170706c69636174696f6e2f6a736f6e3b636861727365743d7574662d38004cd37b2270223a22706f772d3230222c226f70223a226d696e74222c227469636b223a2250455045222c22616d74223a2231303030222c22736f6c7574696f6e223a22504550453a6263317077687170676e37766634707478386574387339353863796b6a6338306130393377387733716d6d6737726c39717177616c6a37733339766c36733a303030303030303030303030303030303030303139393431613561653132383937363539383134343239323533333030353762306461393666336465613163353a3437333236383037343336227d68",
        "c0260555bf4608a4bfce181158d7f81c023e0988279add2c55cd9091c8ce8f4140"
      ],
      "is_coinbase": false,
      "sequence": 4294967295
    }
  ],
  "vout": [
    {
      "scriptpubkey": "512075c0144fcc4d42b31f2b3c0b43e096960efebcb171dd106f68f0fe5001ddfcbd",
      "scriptpubkey_asm": "OP_PUSHNUM_1 OP_PUSHBYTES_32 75c0144fcc4d42b31f2b3c0b43e096960efebcb171dd106f68f0fe5001ddfcbd",
      "scriptpubkey_type": "v1_p2tr",
      "scriptpubkey_address": "bc1pwhqpgn7vf4ptx8et8s958cykjc80a093w8w3qmmg7rl9qqwalj7s39vl6s",
      "value": 546
    }
  ],
  "size": 487,
  "weight": 769,
  "fee": 3088,
  "status": {
    "confirmed": true,
    "block_height": 834460,
    "block_hash": "00000000000000000000484a79b643b2524bbce82e5d8a442013fa5b8905ed98",
    "block_time": 1710307468
  },
  "hex": "02000000000101726b8bc1667c4108a532c43480b3bb57b2cf97da4d6cb8c637346359458bf1cf1a00000000ffffffff01220200000000000022512075c0144fcc4d42b31f2b3c0b43e096960efebcb171dd106f68f0fe5001ddfcbd0340cab0a6759bec790bb428a60eb9a28afb9da223643377e391d0d29719c0861145d91abc47a246c95394816caae9a4410c3139409ee0924b67671dc04968a68decfd200120b8a8515a8932fff0d7768a7467d78776c5de16057beaa486bdd45c328e7c970eac0063036f726401011e6170706c69636174696f6e2f6a736f6e3b636861727365743d7574662d38004cd37b2270223a22706f772d3230222c226f70223a226d696e74222c227469636b223a2250455045222c22616d74223a2231303030222c22736f6c7574696f6e223a22504550453a6263317077687170676e37766634707478386574387339353863796b6a6338306130393377387733716d6d6737726c39717177616c6a37733339766c36733a303030303030303030303030303030303030303139393431613561653132383937363539383134343239323533333030353762306461393666336465613163353a3437333236383037343336227d6821c0260555bf4608a4bfce181158d7f81c023e0988279add2c55cd9091c8ce8f414000000000"
}