{
  "txid": "78e0c64fcacf9f33f0c72ebaf333b71a0c8dbe4bc6e956f8b58db190d33c387e",
  "version": 2,
  "locktime": 0,
  "vin": [
    {
      "txid": "e283b98fcbc9dac1d6281ee1d3c45af3610a16c852c77446611e9d06711c03e7",
      "vout": 1,
      "prevout": {
        "scriptpubkey": "00142dc00bd89757e216724a12f5c1e22d4aabaa3154",
        "scriptpubkey_asm": "OP_0 OP_PUSHBYTES_20 2dc00bd89757e216724a12f5c1e22d4aabaa3154",
        "scriptpubkey_type": "v0_p2wpkh",
        "scriptpubkey_address": "bc1q9hqqhkyh2l3pvuj2zt6urc3df2465v257var2j",
        "value": 72673
      },
      "scriptsig": "",
      "scriptsig_asm": "",
      "witness": [
        "304402206e98f537fac9b10e924417132f68137f0635507e7569f42efab4acdf3a94fbf502205759214d5fca8ffbcdd32619f25313f899049846bd8bfe173557ee272a14cba501",
        "021e9070c07d525e03427d7f58a1949639238b00f4ed1d72c5dd1208e414dfabe9"
      ],
      "is_coinbase": false,
      "sequence": 4294967295
    }
  ],
  "vout": [
    {
      "scriptpubkey": "5120ee293222c50688f30eedc49d472a3544e698da28d60cb578dc9cdf402dae7e43",
      "scriptpubkey_asm": "OP_PUSHNUM_1 OP_PUSHBYTES_32 ee293222c50688f30eedc49d472a3544e698da28d60cb578dc9cdf402dae7e43",
      "scriptpubkey_type": "v1_p2tr",
      "scriptpubkey_address": "bc1pac5nygk9q6y0xrhdcjw5w234gnnf3k3g6cxt27xunn05qtdw0epsdfmdrx",
      "value": 20035
    },
    {
      "scriptpubkey": "00142dc00bd89757e216724a12f5c1e22d4aabaa3154",
      "scriptpubkey_asm": "OP_0 OP_PUSHBYTES_20 2dc00bd89757e216724a12f5c1e22d4aabaa3154",
      "scriptpubkey_type": "v0_p2wpkh",
      "scriptpubkey_address": "bc1q9hqqhkyh2l3pvuj2zt6urc3df2465v257var2j",
      "value": 50793
    }
  ],
  "size": 234,
  "weight": 609,
  "fee": 1845,
  "status": {
    "confirmed": true,
    "block_height": 834460,
    "block_hash": "00000000000000000000484a79b643b2524bbce82e5d8a442013fa5b8905ed98",
    "block_time": 1710307468
  },
  "hex": "02000000000101e7031c71069d1e614674c752c8160a61f35ac4d3e11e28d6c1dac9cb8fb983e20100000000ffffffff02434e000000000000225120ee293222c50688f30eedc49d472a3544e698da28d60cb578dc9cdf402dae7e4369c60000000000001600142dc00bd89757e216724a12f5c1e22d4aabaa31540247304402206e98f537fac9b10e924417132f68137f0635507e7569f42efab4acdf3a94fbf502205759214d5fca8ffbcdd32619f25313f899049846bd8bfe173557ee272a14cba50121021e9070c07d525e03427d7f58a1949639238b00f4ed1d72c5dd1208e414dfabe900000000"
}