{
  "txid": "78e4ad6f958e8b33711eca19dae8c476396345442262e17d2df86b0394dc8e35",
  "version": 2,
  "locktime": 0,
  "vin": [
    {
      "txid": "1e7e9f8eb8cb5791b0939390be2f915d12327adcf792a39396a63d0fb0dacd09",
      "vout": 3,
      "prevout": {
        "scriptpubkey": "0014e27725ff317aa4f2011157028b93d04ae48fe2fe",
        "scriptpubkey_asm": "OP_0 OP_PUSHBYTES_20 e27725ff317aa4f2011157028b93d04ae48fe2fe",
        "scriptpubkey_type": "v0_p2wpkh",
        "scriptpubkey_address": "bc1qufmjtle302j0yqg32upghy7sftjglch7umur40",
        "value": 199780
      },
      "scriptsig": "",
      "scriptsig_asm": "",
      "witness": [
        "30440220734ac92d2ba96762ec8fd3c7d0a35c5a83eb240ffef6d005745ea054de235cda022027bce5e2dee787f9323c6c7f883c2b1191e3b110bd5f924bc00a1d9b0cc079f301",
        "02fb4fee8b08d2fb0fdc68e7452dbf082aa64adb92275eb73782bfdbec4f128d68"
      ],
      "is_coinbase": false,
      "sequence": 4294967295
    }
  ],
  "vout": [
    {
      "scriptpubkey": "00145efd30dc1221e98c5d1d30aa74f88debb6a82e8e",
      "scriptpubkey_asm": "OP_0 OP_PUSHBYTES_20 5efd30dc1221e98c5d1d30aa74f88debb6a82e8e",
      "scriptpubkey_type": "v0_p2wpkh",
      "scriptpubkey_address": "bc1qtm7nphqjy85cchgaxz48f7ydawm2st5wzd95ec",
      "value": 333
    },
    {
      "scriptpubkey": "512102cd672cfe6f66a7d9c6f77127cfb64727eaca0906a42fed0ae340862dab1f9c442103d54803b99316b0db10a54cd6c55c93effe0fa8677df00796adf323173102035f2102020202020202020202020202020202020202020202020202020202020202020253ae",
      "scriptpubkey_asm": "OP_PUSHNUM_1 OP_PUSHBYTES_33 02cd672cfe6f66a7d9c6f77127cfb64727eaca0906a42fed0ae340862dab1f9c44 OP_PUSHBYTES_33 03d54803b99316b0db10a54cd6c55c93effe0fa8677df00796adf323173102035f OP_PUSHBYTES_33 020202020202020202020202020202020202020202020202020202020202020202 OP_PUSHNUM_3 OP_CHECKMULTISIG",
      "scriptpubkey_type": "unknown",
      "value": 801
    },
    {
      "scriptpubkey": "512102a4849dd56e51abf12d29b581ec774cdfcbc3fc42a597fcbd63f965ef140d53292103be5102020d4bd5974245bf62449dcb31e1cbe54f2a5599a52040fc2e6b721fc82102020202020202020202020202020202020202020202020202020202020202020253ae",
      "scriptpubkey_asm": "OP_PUSHNUM_1 OP_PUSHBYTES_33 02a4849dd56e51abf12d29b581ec774cdfcbc3fc42a597fcbd63f965ef140d5329 OP_PUSHBYTES_33 03be5102020d4bd5974245bf62449dcb31e1cbe54f2a5599a52040fc2e6b721fc8 OP_PUSHBYTES_33 020202020202020202020202020202020202020202020202020202020202020202 OP_PUSHNUM_3 OP_CHECKMULTISIG",
      "scriptpubkey_type": "unknown",
      "value": 801
    },
    {
      "scriptpubkey": "0014e27725ff317aa4f2011157028b93d04ae48fe2fe",
      "scriptpubkey_asm": "OP_0 OP_PUSHBYTES_20 e27725ff317aa4f2011157028b93d04ae48fe2fe",
      "scriptpubkey_type": "v0_p2wpkh",
      "scriptpubkey_address": "bc1qufmjtle302j0yqg32upghy7sftjglch7umur40",
      "value": 181631
    }
  ],
  "size": 450,
  "weight": 1473,
  "fee": 16214,
  "status": {
    "confirmed": true,
    "block_height": 834638,
    "block_hash": "000000000000000000025f742c626208ac87e0b7d15054abb4a19ca2d735a54e",
    "block_time": 1710405325
  },
  "hex": "0200000000010109cddab00f3da69693a392f7dc7a32125d912fbe909393b09157cbb88e9f7e1e0300000000ffffffff044d010000000000001600145efd30dc1221e98c5d1d30aa74f88debb6a82e8e210300000000000069512102cd672cfe6f66a7d9c6f77127cfb64727eaca0906a42fed0ae340862dab1f9c442103d54803b99316b0db10a54cd6c55c93effe0fa8677df00796adf323173102035f2102020202020202020202020202020202020202020202020202020202020202020253ae210300000000000069512102a4849dd56e51abf12d29b581ec774cdfcbc3fc42a597fcbd63f965ef140d53292103be5102020d4bd5974245bf62449dcb31e1cbe54f2a5599a52040fc2e6b721fc82102020202020202020202020202020202020202020202020202020202020202020253ae7fc5020000000000160014e27725ff317aa4f2011157028b93d04ae48fe2fe024730440220734ac92d2ba96762ec8fd3c7d0a35c5a83eb240ffef6d005745ea054de235cda022027bce5e2dee787f9323c6c7f883c2b1191e3b110bd5f924bc00a1d9b0cc079f3012102fb4fee8b08d2fb0fdc68e7452dbf082aa64adb92275eb73782bfdbec4f128d6800000000"
}