{
  "txid": "7917ab0dc977e14098f07bdc236ae5ca5a3d91ca6b18a58fa203794b0dcc9b14",
  "version": 2,
  "locktime": 0,
  "vin": [
    {
      "txid": "acd37d32f47fcab2654968186b374459a0f473e0f3e3f3b3c91303e4fdd06391",
      "vout": 1,
      "prevout": {
        "scriptpubkey": "0014e52a1a4311cd7f0eb5a93f4382dc638c408205ae",
        "scriptpubkey_asm": "OP_0 OP_PUSHBYTES_20 e52a1a4311cd7f0eb5a93f4382dc638c408205ae",
        "scriptpubkey_type": "v0_p2wpkh",
        "scriptpubkey_address": "bc1qu54p5sc3e4lsaddf8apc9hrr33qgypdwrd8qya",
        "value": 339262
      },
      "scriptsig": "",
      "scriptsig_asm": "",
      "witness": [
        "3044022062061619e8d13755d55eb9177fc188a20ab40880451ac490d545836edb1b323c022040941ae87ea91b3a2a8e9952c8e910bc1c62e79ba37d2514347309b680cdc07e01",
        "03ede262e1917c8cf48f90ff07aac4fb649323b9fb17ffd7f2b9f52a81ddbb6281"
      ],
      "is_coinbase": false,
      "sequence": 4294967295
    }
  ],
  "vout": [
    {
      "scriptpubkey": "a914eba37afc3b83489c5f676d15cfbc84fb0545823587",
      "scriptpubkey_asm": "OP_HASH160 OP_PUSHBYTES_20 eba37afc3b83489c5f676d15cfbc84fb05458235 OP_EQUAL",
      "scriptpubkey_type": "p2sh",
      "scriptpubkey_address": "3PAxZSbBBhCrNj3T4GHPmxAWaBEzL6T17m",
      "value": 60000
    },
    {
      "scriptpubkey": "0014e52a1a4311cd7f0eb5a93f4382dc638c408205ae",
      "scriptpubkey_asm": "OP_0 OP_PUSHBYTES_20 e52a1a4311cd7f0eb5a93f4382dc638c408205ae",
      "scriptpubkey_type": "v0_p2wpkh",
      "scriptpubkey_address": "bc1qu54p5sc3e4lsaddf8apc9hrr33qgypdwrd8qya",
      "value": 277173
    }
  ],
  "size": 223,
  "weight": 565,
  "fee": 2089,
  "status": {
    "confirmed": true,
    "block_height": 834460,
    "block_hash": "00000000000000000000484a79b643b2524bbce82e5d8a442013fa5b8905ed98",
    "block_time": 1710307468
  },
  "hex": "020000000001019163d0fde40313c9b3f3e3f3e073f4a05944376b18684965b2ca7ff4327dd3ac0100000000ffffffff0260ea00000000000017a914eba37afc3b83489c5f676d15cfbc84fb0545823587b53a040000000000160014e52a1a4311cd7f0eb5a93f4382dc638c408205ae02473044022062061619e8d13755d55eb9177fc188a20ab40880451ac490d545836edb1b323c022040941ae87ea91b3a2a8e9952c8e910bc1c62e79ba37d2514347309b680cdc07e012103ede262e1917c8cf48f90ff07aac4fb649323b9fb17ffd7f2b9f52a81ddbb628100000000"
}