{
  "txid": "792257445f2f59fcb33e459e1c83d970601272deee376401ef21b21edbe5d4a0",
  "version": 1,
  "locktime": 0,
  "vin": [
    {
      "txid": "61c9985c654a31f24ed4c1d1c7a46ec48ffe1abe40bced8ad31ff2c52f45baff",
      "vout": 0,
      "prevout": {
        "scriptpubkey": "5120c7f0c3474f911faefcdd8ba592eaed75f968b24f317c21696ce9161d9d2670c8",
        "scriptpubkey_asm": "OP_PUSHNUM_1 OP_PUSHBYTES_32 c7f0c3474f911faefcdd8ba592eaed75f968b24f317c21696ce9161d9d2670c8",
        "scriptpubkey_type": "v1_p2tr",
        "scriptpubkey_address": "bc1pclcvx360jy06alxa3wje96hdwhuk3vj0x97zz6tvaytpm8fxwryqlartx5",
        "value": 2576
      },
      "scriptsig": "",
      "scriptsig_asm": "",
      "witness": [
        "7bdb99a047819cb874ec0a5a3aa7a9169d821a64e85c144024bdc7e650b8cb55aed78eccc267e3ec7fc4ae228c1444de757ec9b681543d25c1e81b8d891cd7d6",
        "2070af02ca1b2e94181a15d111ce7b124219ebebf2ee50adcba9c006670770f815ac0063036f7264010118746578742f706c61696e3b636861727365743d7574662d3800397b2270223a226272632d3230222c226f70223a227472616e73666572222c227469636b223a224d574343222c22616d74223a2234363839227d68",
        "c170af02ca1b2e94181a15d111ce7b124219ebebf2ee50adcba9c006670770f815"
      ],
      "is_coinbase": false,
      "sequence": 4294967293
    }
  ],
  "vout": [
    {
      "scriptpubkey": "0014bae01f7fc7ddc34757800a36e623859fea7c5ac5",
      "scriptpubkey_asm": "OP_0 OP_PUSHBYTES_20 bae01f7fc7ddc34757800a36e623859fea7c5ac5",
      "scriptpubkey_type": "v0_p2wpkh",
      "scriptpubkey_address": "bc1qhtsp7l78mhp5w4uqpgmwvgu9nl48ckk9jz0x2d",
      "value": 546
    }
  ],
  "size": 312,
  "weight": 558,
  "fee": 2030,
  "status": {
    "confirmed": true,
    "block_height": 834464,
    "block_hash": "0000000000000000000177a0869a911a2b65c9bdcd5a8bcb02b68f305bee848e",
    "block_time": 1710308296
  },
  "hex": "01000000000101ffba452fc5f21fd38aedbc40be1afe8fc46ea4c7d1c1d44ef2314a655c98c9610000000000fdffffff012202000000000000160014bae01f7fc7ddc34757800a36e623859fea7c5ac503407bdb99a047819cb874ec0a5a3aa7a9169d821a64e85c144024bdc7e650b8cb55aed78eccc267e3ec7fc4ae228c1444de757ec9b681543d25c1e81b8d891cd7d67f2070af02ca1b2e94181a15d111ce7b124219ebebf2ee50adcba9c006670770f815ac0063036f7264010118746578742f706c61696e3b636861727365743d7574662d3800397b2270223a226272632d3230222c226f70223a227472616e73666572222c227469636b223a224d574343222c22616d74223a2234363839227d6821c170af02ca1b2e94181a15d111ce7b124219ebebf2ee50adcba9c006670770f81500000000"
}