{
  "txid": "793734e5e7974cec5ea1753af5a9471b67edf56bfd97748c28ace6392238d0e1",
  "version": 2,
  "locktime": 0,
  "vin": [
    {
      "txid": "abc25f236304ee80045845887a46c3a954ed91b95cc8ad26aa8bb3b293cc96a7",
      "vout": 0,
      "prevout": {
        "scriptpubkey": "0014be5ef27d3163c4927cf8c1c5b4b199babb63317e",
        "scriptpubkey_asm": "OP_0 OP_PUSHBYTES_20 be5ef27d3163c4927cf8c1c5b4b199babb63317e",
        "scriptpubkey_type": "v0_p2wpkh",
        "scriptpubkey_address": "bc1qhe00ylf3v0zfyl8cc8zmfvveh2akxvt7pd4s44",
        "value": 10711
      },
      "scriptsig": "",
      "scriptsig_asm": "",
      "witness": [
        "30440220795308ec6e39651f4488a591fb5f0ccd72441324749db9296f0f16fa9799da2e02200c94665e0bcbb5163c3be0bf4d5353342f75b6301d804e94e072338b9254f40001",
        "0347699ffc2b87b9f03747f9c2f5c522fb2c3b868e4e7de9c1ca908c1ae97f65b0"
      ],
      "is_coinbase": false,
      "sequence": 4294967293
    }
  ],
  "vout": [
    {
      "scriptpubkey": "76a914e25dc7a22ce90af9e72164fee0e18bbbd39edc3588ac",
      "scriptpubkey_asm": "OP_DUP OP_HASH160 OP_PUSHBYTES_20 e25dc7a22ce90af9e72164fee0e18bbbd39edc35 OP_EQUALVERIFY OP_CHECKSIG",
      "scriptpubkey_type": "p2pkh",
      "scriptpubkey_address": "1Mdv4HoWC3wBUGbpPRcGMJee8ziVzs6Kim",
      "value": 8241
    }
  ],
  "size": 194,
  "weight": 449,
  "fee": 2470,
  "status": {
    "confirmed": true,
    "block_height": 834638,
    "block_hash": "000000000000000000025f742c626208ac87e0b7d15054abb4a19ca2d735a54e",
    "block_time": 1710405325
  },
  "hex": "02000000000101a796cc93b2b38baa26adc85cb991ed54a9c3467a8845580480ee0463235fc2ab0000000000fdffffff0131200000000000001976a914e25dc7a22ce90af9e72164fee0e18bbbd39edc3588ac024730440220795308ec6e39651f4488a591fb5f0ccd72441324749db9296f0f16fa9799da2e02200c94665e0bcbb5163c3be0bf4d5353342f75b6301d804e94e072338b9254f40001210347699ffc2b87b9f03747f9c2f5c522fb2c3b868e4e7de9c1ca908c1ae97f65b000000000"
}