{
  "txid": "793f40a4c8ec054b03613ab0ed6f25b8eddb37f5afb3265f60ee716a333cf9b3",
  "version": 1,
  "locktime": 0,
  "vin": [
    {
      "txid": "bc5187aa1f082a422231cb0d6529160aa1c1b9843bc81e394ba3c976b0c5c028",
      "vout": 1,
      "prevout": {
        "scriptpubkey": "76a9143ec3c6bd9527766c8416ee3d48175468245bd72e88ac",
        "scriptpubkey_asm": "OP_DUP OP_HASH160 OP_PUSHBYTES_20 3ec3c6bd9527766c8416ee3d48175468245bd72e OP_EQUALVERIFY OP_CHECKSIG",
        "scriptpubkey_type": "p2pkh",
        "scriptpubkey_address": "16isRfwYsUCsr6zSEsTGL7HTcS3zZj8ADX",
        "value": 150176
      },
      "scriptsig": "473044022003d7771b3b9c9386b8e4b79f442e6a416046c2530fef741fdc2c5dd14b1a17e002202100485cbba870518dc2f5d80f9aabf38dd85e13dbd5a7996411eceb66d00adc0121039a2a2301054b41d6c271e8f52d0600ff05eeddb7218df40cdd4da64c4ad08275",
      "scriptsig_asm": "OP_PUSHBYTES_71 3044022003d7771b3b9c9386b8e4b79f442e6a416046c2530fef741fdc2c5dd14b1a17e002202100485cbba870518dc2f5d80f9aabf38dd85e13dbd5a7996411eceb66d00adc01 OP_PUSHBYTES_33 039a2a2301054b41d6c271e8f52d0600ff05eeddb7218df40cdd4da64c4ad08275",
      "is_coinbase": false,
      "sequence": 4294967295
    },
    {
      "txid": "a6848b4eeb6ac49252406c37e8c6288385e9419e87fc9d64f36e7775a69c04c3",
      "vout": 3,
      "prevout": {
        "scriptpubkey": "76a9143ec3c6bd9527766c8416ee3d48175468245bd72e88ac",
        "scriptpubkey_asm": "OP_DUP OP_HASH160 OP_PUSHBYTES_20 3ec3c6bd9527766c8416ee3d48175468245bd72e OP_EQUALVERIFY OP_CHECKSIG",
        "scriptpubkey_type": "p2pkh",
        "scriptpubkey_address": "16isRfwYsUCsr6zSEsTGL7HTcS3zZj8ADX",
        "value": 142780
      },
      "scriptsig": "483045022100f09963cac9b10ee8baaacf7ed9509c3e868c029d3a767844fbf23cdcbd95b2bd02201e66a89cd53577e5fa598cef8fe76ac7dd6dbfa512448d242a2fa395b0ee1a320121039a2a2301054b41d6c271e8f52d0600ff05eeddb7218df40cdd4da64c4ad08275",
      "scriptsig_asm": "OP_PUSHBYTES_72 3045022100f09963cac9b10ee8baaacf7ed9509c3e868c029d3a767844fbf23cdcbd95b2bd02201e66a89cd53577e5fa598cef8fe76ac7dd6dbfa512448d242a2fa395b0ee1a3201 OP_PUSHBYTES_33 039a2a2301054b41d6c271e8f52d0600ff05eeddb7218df40cdd4da64c4ad08275",
      "is_coinbase": false,
      "sequence": 4294967295
    }
  ],
  "vout": [
    {
      "scriptpubkey": "a9147afe7925f49c05c2a95f325dc7b4c1e7626df08e87",
      "scriptpubkey_asm": "OP_HASH160 OP_PUSHBYTES_20 7afe7925f49c05c2a95f325dc7b4c1e7626df08e OP_EQUAL",
      "scriptpubkey_type": "p2sh",
      "scriptpubkey_address": "3CuMD4HTFxdXkNTpY9Y1zSfWQysNJobMJZ",
      "value": 139000
    },
    {
      "scriptpubkey": "76a9143ec3c6bd9527766c8416ee3d48175468245bd72e88ac",
      "scriptpubkey_asm": "OP_DUP OP_HASH160 OP_PUSHBYTES_20 3ec3c6bd9527766c8416ee3d48175468245bd72e OP_EQUALVERIFY OP_CHECKSIG",
      "scriptpubkey_type": "p2pkh",
      "scriptpubkey_address": "16isRfwYsUCsr6zSEsTGL7HTcS3zZj8ADX",
      "value": 139840
    },
    {
      "scriptpubkey": "a914ec8577fa035f60c29c10bf0f9f1c2938356fb05587",
      "scriptpubkey_asm": "OP_HASH160 OP_PUSHBYTES_20 ec8577fa035f60c29c10bf0f9f1c2938356fb055 OP_EQUAL",
      "scriptpubkey_type": "p2sh",
      "scriptpubkey_address": "3PFdHP2yBefVpsKxZMtTMMYBCveukBG46t",
      "value": 9412
    }
  ],
  "size": 403,
  "weight": 1612,
  "fee": 4704,
  "status": {
    "confirmed": true,
    "block_height": 834460,
    "block_hash": "00000000000000000000484a79b643b2524bbce82e5d8a442013fa5b8905ed98",
    "block_time": 1710307468
  },
  "hex": "010000000228c0c5b076c9a34b391ec83b84b9c1a10a1629650dcb3122422a081faa8751bc010000006a473044022003d7771b3b9c9386b8e4b79f442e6a416046c2530fef741fdc2c5dd14b1a17e002202100485cbba870518dc2f5d80f9aabf38dd85e13dbd5a7996411eceb66d00adc0121039a2a2301054b41d6c271e8f52d0600ff05eeddb7218df40cdd4da64c4ad08275ffffffffc3049ca675776ef3649dfc879e41e9858328c6e8376c405292c46aeb4e8b84a6030000006b483045022100f09963cac9b10ee8baaacf7ed9509c3e868c029d3a767844fbf23cdcbd95b2bd02201e66a89cd53577e5fa598cef8fe76ac7dd6dbfa512448d242a2fa395b0ee1a320121039a2a2301054b41d6c271e8f52d0600ff05eeddb7218df40cdd4da64c4ad08275ffffffff03f81e02000000000017a9147afe7925f49c05c2a95f325dc7b4c1e7626df08e8740220200000000001976a9143ec3c6bd9527766c8416ee3d48175468245bd72e88acc42400000000000017a914ec8577fa035f60c29c10bf0f9f1c2938356fb0558700000000"
}