{
  "txid": "79419d69422a01009157e3fb2449a8c10422e14a0fa1ceaf7bb6f9930354e2e6",
  "version": 2,
  "locktime": 0,
  "vin": [
    {
      "txid": "89ed49b703083dd2c866865e8bc0f626556708e73104c12e04b293850b5ae418",
      "vout": 0,
      "prevout": {
        "scriptpubkey": "51207297ccb59d2b74382cae2bd46312305e6b417c84a3c606236062534d1c6cce29",
        "scriptpubkey_asm": "OP_PUSHNUM_1 OP_PUSHBYTES_32 7297ccb59d2b74382cae2bd46312305e6b417c84a3c606236062534d1c6cce29",
        "scriptpubkey_type": "v1_p2tr",
        "scriptpubkey_address": "bc1pw2tuedva9d6rst9w902xxy3ste45zlyy50rqvgmqvff568rvec5s89c7tq",
        "value": 600
      },
      "scriptsig": "",
      "scriptsig_asm": "",
      "witness": [
        "2bfd931c434be51a1e2edd294a1c5a81c1bddcd851e70f0d25d5ee5520f10a3a2f91e9d932d3c28af77ed61d63aa7cef5eb2c9563baac73de9a23765e14c47be"
      ],
      "is_coinbase": false,
      "sequence": 4294967295
    },
    {
      "txid": "89ed49b703083dd2c866865e8bc0f626556708e73104c12e04b293850b5ae418",
      "vout": 1,
      "prevout": {
        "scriptpubkey": "51207297ccb59d2b74382cae2bd46312305e6b417c84a3c606236062534d1c6cce29",
        "scriptpubkey_asm": "OP_PUSHNUM_1 OP_PUSHBYTES_32 7297ccb59d2b74382cae2bd46312305e6b417c84a3c606236062534d1c6cce29",
        "scriptpubkey_type": "v1_p2tr",
        "scriptpubkey_address": "bc1pw2tuedva9d6rst9w902xxy3ste45zlyy50rqvgmqvff568rvec5s89c7tq",
        "value": 600
      },
      "scriptsig": "",
      "scriptsig_asm": "",
      "witness": [
        "02acc064d4e003263c5a5dff2e2bfff38ebcb6ab38691eb63e2be9ca514e7d00ddee8f07b69bf25922475270a525d6511a30736f37031c8230ae00c84bd23b90"
      ],
      "is_coinbase": false,
      "sequence": 4294967295
    },
    {
      "txid": "767b17e6868eb54efb3692e01fdafc2acd2bef87c0780d94d0e321104524e508",
      "vout": 4,
      "prevout": {
        "scriptpubkey": "51207297ccb59d2b74382cae2bd46312305e6b417c84a3c606236062534d1c6cce29",
        "scriptpubkey_asm": "OP_PUSHNUM_1 OP_PUSHBYTES_32 7297ccb59d2b74382cae2bd46312305e6b417c84a3c606236062534d1c6cce29",
        "scriptpubkey_type": "v1_p2tr",
        "scriptpubkey_address": "bc1pw2tuedva9d6rst9w902xxy3ste45zlyy50rqvgmqvff568rvec5s89c7tq",
        "value": 600
      },
      "scriptsig": "",
      "scriptsig_asm": "",
      "witness": [
        "0d49aa442636776220ebac47c7bde8640651e2786b55100739c393c09129b54174b5ba318f7d5b2edce065297db98ee1117e21837c7d0727d6439f79b1046012"
      ],
      "is_coinbase": false,
      "sequence": 4294967295
    },
    {
      "txid": "767b17e6868eb54efb3692e01fdafc2acd2bef87c0780d94d0e321104524e508",
      "vout": 3,
      "prevout": {
        "scriptpubkey": "51207297ccb59d2b74382cae2bd46312305e6b417c84a3c606236062534d1c6cce29",
        "scriptpubkey_asm": "OP_PUSHNUM_1 OP_PUSHBYTES_32 7297ccb59d2b74382cae2bd46312305e6b417c84a3c606236062534d1c6cce29",
        "scriptpubkey_type": "v1_p2tr",
        "scriptpubkey_address": "bc1pw2tuedva9d6rst9w902xxy3ste45zlyy50rqvgmqvff568rvec5s89c7tq",
        "value": 600
      },
      "scriptsig": "",
      "scriptsig_asm": "",
      "witness": [
        "8480873f0a7f69cd92af63711eedcc730050a9f95d5d6a3a6bbb9f5174604e8dfb76be0bf63be2aa2de21dc0e1b9c9ac73991ba31b70a8e22e01f17e517d6f2e"
      ],
      "is_coinbase": false,
      "sequence": 4294967295
    },
    {
      "txid": "0f996c295a96310b9050be2fd89d8a38c2cc11a8ffbf22ef9e786e2080d78a46",
      "vout": 0,
      "prevout": {
        "scriptpubkey": "51204e396d873ceaf43ee0b70c6e3c9a907b517f5f1047f50032e08d61deaf443f6d",
        "scriptpubkey_asm": "OP_PUSHNUM_1 OP_PUSHBYTES_32 4e396d873ceaf43ee0b70c6e3c9a907b517f5f1047f50032e08d61deaf443f6d",
        "scriptpubkey_type": "v1_p2tr",
        "scriptpubkey_address": "bc1pfcukmpeuat6rac9hp3hrex5s0dgh7hcsgl6sqvhq34saat6y8aksmmfmca",
        "value": 546
      },
      "scriptsig": "",
      "scriptsig_asm": "",
      "witness": [
        "53450b155b8dfe2924693c5f308f5c45cce22cf329ebeb6c47ffae3b54da15e83c37ce61a5aa807136677a70b444e343276a5dd8803d7c8e5f19608c2671774d83"
      ],
      "is_coinbase": false,
      "sequence": 4294967295
    },
    {
      "txid": "62fde6f9e08ed977f3f03b35f97f42700b457c50bc4d22d62ae7517fe7423bfc",
      "vout": 0,
      "prevout": {
        "scriptpubkey": "51206622d361d1a2116c32f8f8a5c67533ebc25a45639ac64b8ade0ed2cac7316da2",
        "scriptpubkey_asm": "OP_PUSHNUM_1 OP_PUSHBYTES_32 6622d361d1a2116c32f8f8a5c67533ebc25a45639ac64b8ade0ed2cac7316da2",
        "scriptpubkey_type": "v1_p2tr",
        "scriptpubkey_address": "bc1pvc3dxcw35ggkcvhclzjuvafna0p953trntryhzk7pmfv43e3dk3qhp7y08",
        "value": 546
      },
      "scriptsig": "",
      "scriptsig_asm": "",
      "witness": [
        "ce368c957e53ac8a49f6d2c5747b2d5db75be2ce10040822e8fb9146f3030516459757859a869210f0ec648b5feeb66e52de2a136624010c870c47d92af75ffd83"
      ],
      "is_coinbase": false,
      "sequence": 4294967295
    },
    {
      "txid": "74f75407229755ceb5242ab9a0decb1e7b605b6c0afa58bc909a3f1380829386",
      "vout": 0,
      "prevout": {
        "scriptpubkey": "5120f15000bafde3776ac6960ba0f56f38b7f8dac7360a62724c48a72415713a36aa",
        "scriptpubkey_asm": "OP_PUSHNUM_1 OP_PUSHBYTES_32 f15000bafde3776ac6960ba0f56f38b7f8dac7360a62724c48a72415713a36aa",
        "scriptpubkey_type": "v1_p2tr",
        "scriptpubkey_address": "bc1p79gqpwhaudmk435kpws02mecklud43ekpf38ynzg5ujp2uf6x64qtlh4eu",
        "value": 546
      },
      "scriptsig": "",
      "scriptsig_asm": "",
      "witness": [
        "a0410d672642599784e4df73801962c90198ec1b49584c2ad69c3dbd1677c3ea22fe6d4c45894806fa93dd94f6ad50aaf1cac2bfb6c5f593e02579cf7190c86383"
      ],
      "is_coinbase": false,
      "sequence": 4294967295
    },
    {
      "txid": "89ed49b703083dd2c866865e8bc0f626556708e73104c12e04b293850b5ae418",
      "vout": 2,
      "prevout": {
        "scriptpubkey": "51207297ccb59d2b74382cae2bd46312305e6b417c84a3c606236062534d1c6cce29",
        "scriptpubkey_asm": "OP_PUSHNUM_1 OP_PUSHBYTES_32 7297ccb59d2b74382cae2bd46312305e6b417c84a3c606236062534d1c6cce29",
        "scriptpubkey_type": "v1_p2tr",
        "scriptpubkey_address": "bc1pw2tuedva9d6rst9w902xxy3ste45zlyy50rqvgmqvff568rvec5s89c7tq",
        "value": 7163898
      },
      "scriptsig": "",
      "scriptsig_asm": "",
      "witness": [
        "76bcde04563ec005f5a826bcc284184b0f89fa86a55dee2c6444875c57c4d13b675d7fbfd6b235e5c936b9070ba5a3c79497bcd366548f644a29b6d12a81c689"
      ],
      "is_coinbase": false,
      "sequence": 4294967295
    }
  ],
  "vout": [
    {
      "scriptpubkey": "51207297ccb59d2b74382cae2bd46312305e6b417c84a3c606236062534d1c6cce29",
      "scriptpubkey_asm": "OP_PUSHNUM_1 OP_PUSHBYTES_32 7297ccb59d2b74382cae2bd46312305e6b417c84a3c606236062534d1c6cce29",
      "scriptpubkey_type": "v1_p2tr",
      "scriptpubkey_address": "bc1pw2tuedva9d6rst9w902xxy3ste45zlyy50rqvgmqvff568rvec5s89c7tq",
      "value": 2400
    },
    {
      "scriptpubkey": "51207297ccb59d2b74382cae2bd46312305e6b417c84a3c606236062534d1c6cce29",
      "scriptpubkey_asm": "OP_PUSHNUM_1 OP_PUSHBYTES_32 7297ccb59d2b74382cae2bd46312305e6b417c84a3c606236062534d1c6cce29",
      "scriptpubkey_type": "v1_p2tr",
      "scriptpubkey_address": "bc1pw2tuedva9d6rst9w902xxy3ste45zlyy50rqvgmqvff568rvec5s89c7tq",
      "value": 546
    },
    {
      "scriptpubkey": "51207297ccb59d2b74382cae2bd46312305e6b417c84a3c606236062534d1c6cce29",
      "scriptpubkey_asm": "OP_PUSHNUM_1 OP_PUSHBYTES_32 7297ccb59d2b74382cae2bd46312305e6b417c84a3c606236062534d1c6cce29",
      "scriptpubkey_type": "v1_p2tr",
      "scriptpubkey_address": "bc1pw2tuedva9d6rst9w902xxy3ste45zlyy50rqvgmqvff568rvec5s89c7tq",
      "value": 546
    },
    {
      "scriptpubkey": "51207297ccb59d2b74382cae2bd46312305e6b417c84a3c606236062534d1c6cce29",
      "scriptpubkey_asm": "OP_PUSHNUM_1 OP_PUSHBYTES_32 7297ccb59d2b74382cae2bd46312305e6b417c84a3c606236062534d1c6cce29",
      "scriptpubkey_type": "v1_p2tr",
      "scriptpubkey_address": "bc1pw2tuedva9d6rst9w902xxy3ste45zlyy50rqvgmqvff568rvec5s89c7tq",
      "value": 546
    },
    {
      "scriptpubkey": "51204e396d873ceaf43ee0b70c6e3c9a907b517f5f1047f50032e08d61deaf443f6d",
      "scriptpubkey_asm": "OP_PUSHNUM_1 OP_PUSHBYTES_32 4e396d873ceaf43ee0b70c6e3c9a907b517f5f1047f50032e08d61deaf443f6d",
      "scriptpubkey_type": "v1_p2tr",
      "scriptpubkey_address": "bc1pfcukmpeuat6rac9hp3hrex5s0dgh7hcsgl6sqvhq34saat6y8aksmmfmca",
      "value": 3040000
    },
    {
      "scriptpubkey": "51206622d361d1a2116c32f8f8a5c67533ebc25a45639ac64b8ade0ed2cac7316da2",
      "scriptpubkey_asm": "OP_PUSHNUM_1 OP_PUSHBYTES_32 6622d361d1a2116c32f8f8a5c67533ebc25a45639ac64b8ade0ed2cac7316da2",
      "scriptpubkey_type": "v1_p2tr",
      "scriptpubkey_address": "bc1pvc3dxcw35ggkcvhclzjuvafna0p953trntryhzk7pmfv43e3dk3qhp7y08",
      "value": 1580000
    },
    {
      "scriptpubkey": "5120f15000bafde3776ac6960ba0f56f38b7f8dac7360a62724c48a72415713a36aa",
      "scriptpubkey_asm": "OP_PUSHNUM_1 OP_PUSHBYTES_32 f15000bafde3776ac6960ba0f56f38b7f8dac7360a62724c48a72415713a36aa",
      "scriptpubkey_type": "v1_p2tr",
      "scriptpubkey_address": "bc1p79gqpwhaudmk435kpws02mecklud43ekpf38ynzg5ujp2uf6x64qtlh4eu",
      "value": 2370000
    },
    {
      "scriptpubkey": "51207297ccb59d2b74382cae2bd46312305e6b417c84a3c606236062534d1c6cce29",
      "scriptpubkey_asm": "OP_PUSHNUM_1 OP_PUSHBYTES_32 7297ccb59d2b74382cae2bd46312305e6b417c84a3c606236062534d1c6cce29",
      "scriptpubkey_type": "v1_p2tr",
      "scriptpubkey_address": "bc1pw2tuedva9d6rst9w902xxy3ste45zlyy50rqvgmqvff568rvec5s89c7tq",
      "value": 600
    },
    {
      "scriptpubkey": "51207297ccb59d2b74382cae2bd46312305e6b417c84a3c606236062534d1c6cce29",
      "scriptpubkey_asm": "OP_PUSHNUM_1 OP_PUSHBYTES_32 7297ccb59d2b74382cae2bd46312305e6b417c84a3c606236062534d1c6cce29",
      "scriptpubkey_type": "v1_p2tr",
      "scriptpubkey_address": "bc1pw2tuedva9d6rst9w902xxy3ste45zlyy50rqvgmqvff568rvec5s89c7tq",
      "value": 600
    },
    {
      "scriptpubkey": "51207297ccb59d2b74382cae2bd46312305e6b417c84a3c606236062534d1c6cce29",
      "scriptpubkey_asm": "OP_PUSHNUM_1 OP_PUSHBYTES_32 7297ccb59d2b74382cae2bd46312305e6b417c84a3c606236062534d1c6cce29",
      "scriptpubkey_type": "v1_p2tr",
      "scriptpubkey_address": "bc1pw2tuedva9d6rst9w902xxy3ste45zlyy50rqvgmqvff568rvec5s89c7tq",
      "value": 600
    },
    {
      "scriptpubkey": "51207297ccb59d2b74382cae2bd46312305e6b417c84a3c606236062534d1c6cce29",
      "scriptpubkey_asm": "OP_PUSHNUM_1 OP_PUSHBYTES_32 7297ccb59d2b74382cae2bd46312305e6b417c84a3c606236062534d1c6cce29",
      "scriptpubkey_type": "v1_p2tr",
      "scriptpubkey_address": "bc1pw2tuedva9d6rst9w902xxy3ste45zlyy50rqvgmqvff568rvec5s89c7tq",
      "value": 600
    },
    {
      "scriptpubkey": "51207297ccb59d2b74382cae2bd46312305e6b417c84a3c606236062534d1c6cce29",
      "scriptpubkey_asm": "OP_PUSHNUM_1 OP_PUSHBYTES_32 7297ccb59d2b74382cae2bd46312305e6b417c84a3c606236062534d1c6cce29",
      "scriptpubkey_type": "v1_p2tr",
      "scriptpubkey_address": "bc1pw2tuedva9d6rst9w902xxy3ste45zlyy50rqvgmqvff568rvec5s89c7tq",
      "value": 155690
    }
  ],
  "size": 1387,
  "weight": 3949,
  "fee": 15808,
  "status": {
    "confirmed": true,
    "block_height": 834638,
    "block_hash": "000000000000000000025f742c626208ac87e0b7d15054abb4a19ca2d735a54e",
    "block_time": 1710405325
  },
  "hex": "0200000000010818e45a0b8593b2042ec10431e708675526f6c08b5e8666c8d23d0803b749ed890000000000ffffffff18e45a0b8593b2042ec10431e708675526f6c08b5e8666c8d23d0803b749ed890100000000ffffffff08e524451021e3d0940d78c087ef2bcd2afcda1fe09236fb4eb58e86e6177b760400000000ffffffff08e524451021e3d0940d78c087ef2bcd2afcda1fe09236fb4eb58e86e6177b760300000000ffffffff468ad780206e789eef22bfffa811ccc2388a9dd82fbe50900b31965a296c990f0000000000fffffffffc3b42e77f51e72ad6224dbc507c450b70427ff9353bf0f377d98ee0f9e6fd620000000000ffffffff86938280133f9a90bc58fa0a6c5b607b1ecbdea0b92a24b5ce5597220754f7740000000000ffffffff18e45a0b8593b2042ec10431e708675526f6c08b5e8666c8d23d0803b749ed890200000000ffffffff0c60090000000000002251207297ccb59d2b74382cae2bd46312305e6b417c84a3c606236062534d1c6cce2922020000000000002251207297ccb59d2b74382cae2bd46312305e6b417c84a3c606236062534d1c6cce2922020000000000002251207297ccb59d2b74382cae2bd46312305e6b417c84a3c606236062534d1c6cce2922020000000000002251207297ccb59d2b74382cae2bd46312305e6b417c84a3c606236062534d1c6cce2900632e00000000002251204e396d873ceaf43ee0b70c6e3c9a907b517f5f1047f50032e08d61deaf443f6de01b1800000000002251206622d361d1a2116c32f8f8a5c67533ebc25a45639ac64b8ade0ed2cac7316da2d029240000000000225120f15000bafde3776ac6960ba0f56f38b7f8dac7360a62724c48a72415713a36aa58020000000000002251207297ccb59d2b74382cae2bd46312305e6b417c84a3c606236062534d1c6cce2958020000000000002251207297ccb59d2b74382cae2bd46312305e6b417c84a3c606236062534d1c6cce2958020000000000002251207297ccb59d2b74382cae2bd46312305e6b417c84a3c606236062534d1c6cce2958020000000000002251207297ccb59d2b74382cae2bd46312305e6b417c84a3c606236062534d1c6cce292a600200000000002251207297ccb59d2b74382cae2bd46312305e6b417c84a3c606236062534d1c6cce2901402bfd931c434be51a1e2edd294a1c5a81c1bddcd851e70f0d25d5ee5520f10a3a2f91e9d932d3c28af77ed61d63aa7cef5eb2c9563baac73de9a23765e14c47be014002acc064d4e003263c5a5dff2e2bfff38ebcb6ab38691eb63e2be9ca514e7d00ddee8f07b69bf25922475270a525d6511a30736f37031c8230ae00c84bd23b9001400d49aa442636776220ebac47c7bde8640651e2786b55100739c393c09129b54174b5ba318f7d5b2edce065297db98ee1117e21837c7d0727d6439f79b104601201408480873f0a7f69cd92af63711eedcc730050a9f95d5d6a3a6bbb9f5174604e8dfb76be0bf63be2aa2de21dc0e1b9c9ac73991ba31b70a8e22e01f17e517d6f2e014153450b155b8dfe2924693c5f308f5c45cce22cf329ebeb6c47ffae3b54da15e83c37ce61a5aa807136677a70b444e343276a5dd8803d7c8e5f19608c2671774d830141ce368c957e53ac8a49f6d2c5747b2d5db75be2ce10040822e8fb9146f3030516459757859a869210f0ec648b5feeb66e52de2a136624010c870c47d92af75ffd830141a0410d672642599784e4df73801962c90198ec1b49584c2ad69c3dbd1677c3ea22fe6d4c45894806fa93dd94f6ad50aaf1cac2bfb6c5f593e02579cf7190c86383014076bcde04563ec005f5a826bcc284184b0f89fa86a55dee2c6444875c57c4d13b675d7fbfd6b235e5c936b9070ba5a3c79497bcd366548f644a29b6d12a81c68900000000"
}