{
  "txid": "79491bdf131986fcb547be5a15e35477f30d73772ff64dc1d951e163efca472c",
  "version": 2,
  "locktime": 834018,
  "vin": [
    {
      "txid": "4e05feb0f1e4fb8acdd85465dda9f0b95a4a0ed7be646969eedcb9799d7e079b",
      "vout": 0,
      "prevout": {
        "scriptpubkey": "0014683018bac5a84ba0e66b2dd16cee4d25da8434ec",
        "scriptpubkey_asm": "OP_0 OP_PUSHBYTES_20 683018bac5a84ba0e66b2dd16cee4d25da8434ec",
        "scriptpubkey_type": "v0_p2wpkh",
        "scriptpubkey_address": "bc1qdqcp3wk94p96pent9hgkemjdyhdggd8vjf9r8d",
        "value": 10000
      },
      "scriptsig": "",
      "scriptsig_asm": "",
      "witness": [
        "3044022041647aa77a7fbcd5247eec000ed0349f9a6d41ad7f7104627621cf7c295cb718022025aa9e34e488aaa8e6ac11d9c6fd35cab1b771d900801485ff4b257b77314f3d01",
        "036eee2753d68d85bd715a4f27786f35169eca092578392a6e09559977a59249c2"
      ],
      "is_coinbase": false,
      "sequence": 4294967293
    },
    {
      "txid": "60ccb3757f339414ae90e97556e64b677ab21de08b4892247eb9e62bd50a4478",
      "vout": 0,
      "prevout": {
        "scriptpubkey": "0014683018bac5a84ba0e66b2dd16cee4d25da8434ec",
        "scriptpubkey_asm": "OP_0 OP_PUSHBYTES_20 683018bac5a84ba0e66b2dd16cee4d25da8434ec",
        "scriptpubkey_type": "v0_p2wpkh",
        "scriptpubkey_address": "bc1qdqcp3wk94p96pent9hgkemjdyhdggd8vjf9r8d",
        "value": 10000
      },
      "scriptsig": "",
      "scriptsig_asm": "",
      "witness": [
        "30440220640e47616256c398bfbf37908d795af479d8c5c51e366d6eb12ad048e886827802200ee42765e23ed871f89327321eb8478ff410089f88ddee9abad061cf69f161fc01",
        "036eee2753d68d85bd715a4f27786f35169eca092578392a6e09559977a59249c2"
      ],
      "is_coinbase": false,
      "sequence": 4294967293
    },
    {
      "txid": "dc09aac2f68f00fc8d8c50e999d08c62cc443bb25a8c0cad074d12d2c4cfbce1",
      "vout": 0,
      "prevout": {
        "scriptpubkey": "0014683018bac5a84ba0e66b2dd16cee4d25da8434ec",
        "scriptpubkey_asm": "OP_0 OP_PUSHBYTES_20 683018bac5a84ba0e66b2dd16cee4d25da8434ec",
        "scriptpubkey_type": "v0_p2wpkh",
        "scriptpubkey_address": "bc1qdqcp3wk94p96pent9hgkemjdyhdggd8vjf9r8d",
        "value": 10000
      },
      "scriptsig": "",
      "scriptsig_asm": "",
      "witness": [
        "30440220338017611401bfa81bf5d4d98987b177946c6c5972b421512db2a843093eb95d022049938eab60d6fa667b9c9ee56ce36eb7072e96dbba8515c174d36f1ed23f01d501",
        "036eee2753d68d85bd715a4f27786f35169eca092578392a6e09559977a59249c2"
      ],
      "is_coinbase": false,
      "sequence": 4294967293
    },
    {
      "txid": "39ecae13a01f182a7173d35daf8486e3c338fa3079b4ea9d52ddb26cd6024f33",
      "vout": 0,
      "prevout": {
        "scriptpubkey": "0014683018bac5a84ba0e66b2dd16cee4d25da8434ec",
        "scriptpubkey_asm": "OP_0 OP_PUSHBYTES_20 683018bac5a84ba0e66b2dd16cee4d25da8434ec",
        "scriptpubkey_type": "v0_p2wpkh",
        "scriptpubkey_address": "bc1qdqcp3wk94p96pent9hgkemjdyhdggd8vjf9r8d",
        "value": 10000
      },
      "scriptsig": "",
      "scriptsig_asm": "",
      "witness": [
        "304402200ca4133bd8040abe357006e334cd33782c2187408d1ecfdbca69483ec984ed9f02202b60a02496d9bc4a28915b6bdc7e3628c93a7ea22583f6d899d6d382efa5814301",
        "036eee2753d68d85bd715a4f27786f35169eca092578392a6e09559977a59249c2"
      ],
      "is_coinbase": false,
      "sequence": 4294967293
    },
    {
      "txid": "0fda8ccfcdc7716efe7c8797a3eb8dc2db0110504a8479f835af832e96a10b03",
      "vout": 0,
      "prevout": {
        "scriptpubkey": "00147c6099f36b81e69c793bf53d4bec62d12e938d9e",
        "scriptpubkey_asm": "OP_0 OP_PUSHBYTES_20 7c6099f36b81e69c793bf53d4bec62d12e938d9e",
        "scriptpubkey_type": "v0_p2wpkh",
        "scriptpubkey_address": "bc1q03sfnumts8nfc7fm7575hmrz6yhf8rv783qkqd",
        "value": 10000
      },
      "scriptsig": "",
      "scriptsig_asm": "",
      "witness": [
        "304402207a37bd88b49eb592ec41dfd3de39374c204c37f7030e4ec7687611b8c6054f6e022038fee5d319a1e651099892a101298e59cc094d00db03c26c7e49afe98e38a55301",
        "0286b3686203b72288470b394eaf144bea3a6952291e5596277ae67ee8b90b3555"
      ],
      "is_coinbase": false,
      "sequence": 4294967293
    },
    {
      "txid": "43cc8d7d1fedad0e474414e7b832f0cfec39b632420951ad3542e2f4eed47633",
      "vout": 0,
      "prevout": {
        "scriptpubkey": "0014d89a9a9462864f753b7dfacb38720c989d720ad3",
        "scriptpubkey_asm": "OP_0 OP_PUSHBYTES_20 d89a9a9462864f753b7dfacb38720c989d720ad3",
        "scriptpubkey_type": "v0_p2wpkh",
        "scriptpubkey_address": "bc1qmzdf49rzse8h2wmalt9nsusvnzwhyzknqnd093",
        "value": 10000
      },
      "scriptsig": "",
      "scriptsig_asm": "",
      "witness": [
        "3044022006020e0367f9f088fef8bf433ae324a0c2a20b0baa5949bdd6a883c3863fd8e102203b33aa9340e10803456c93a69e57fdb0ad3c957b37bc8dc262641f8874babbf401",
        "033c8c03dec99db3876ae2d9751ee8748131f6434ac3c487d6179ca079b312c4ca"
      ],
      "is_coinbase": false,
      "sequence": 4294967293
    },
    {
      "txid": "cedd83f845c17340716545dfc10a90a0311d6f407e7721e2c2234a461900314c",
      "vout": 0,
      "prevout": {
        "scriptpubkey": "00144cd864b8a30e9007c532c76659ea4e9ef39018ad",
        "scriptpubkey_asm": "OP_0 OP_PUSHBYTES_20 4cd864b8a30e9007c532c76659ea4e9ef39018ad",
        "scriptpubkey_type": "v0_p2wpkh",
        "scriptpubkey_address": "bc1qfnvxfw9rp6gq03fjcan9n6jwnmeeqx9dcwwnkv",
        "value": 10000
      },
      "scriptsig": "",
      "scriptsig_asm": "",
      "witness": [
        "304402200e7fc93f4abe5694052a4a727f660d4c8f7ff2052a021e5443333046e54bcf36022060da8a3779674f9b893c532d30e7f9fc287e67b0a405eebd13005db5ace51f4a01",
        "03a5aac0a8c3c140c0d9132e5e663ee494e305b92a9f232cbc40b1b21ccf80991b"
      ],
      "is_coinbase": false,
      "sequence": 4294967293
    },
    {
      "txid": "e994ec8bd17befb2356133c52abc816ea73ac16466138ed1aff19a4ea80317e8",
      "vout": 0,
      "prevout": {
        "scriptpubkey": "0014683018bac5a84ba0e66b2dd16cee4d25da8434ec",
        "scriptpubkey_asm": "OP_0 OP_PUSHBYTES_20 683018bac5a84ba0e66b2dd16cee4d25da8434ec",
        "scriptpubkey_type": "v0_p2wpkh",
        "scriptpubkey_address": "bc1qdqcp3wk94p96pent9hgkemjdyhdggd8vjf9r8d",
        "value": 10000
      },
      "scriptsig": "",
      "scriptsig_asm": "",
      "witness": [
        "30440220289f3f7e46e5f728a8fb5012f33708356a0cb445450302db36c124f368514dbc022008e07efb3d0e1067f21dd1a1023dfd15a634155c9f03776f4e6b1e823865aaae01",
        "036eee2753d68d85bd715a4f27786f35169eca092578392a6e09559977a59249c2"
      ],
      "is_coinbase": false,
      "sequence": 4294967293
    },
    {
      "txid": "aed2c175940c427c1a2110ba5d3f1e948a0d775fb50eb9098c25d3188d5092ab",
      "vout": 0,
      "prevout": {
        "scriptpubkey": "0014683018bac5a84ba0e66b2dd16cee4d25da8434ec",
        "scriptpubkey_asm": "OP_0 OP_PUSHBYTES_20 683018bac5a84ba0e66b2dd16cee4d25da8434ec",
        "scriptpubkey_type": "v0_p2wpkh",
        "scriptpubkey_address": "bc1qdqcp3wk94p96pent9hgkemjdyhdggd8vjf9r8d",
        "value": 10000
      },
      "scriptsig": "",
      "scriptsig_asm": "",
      "witness": [
        "304402206d7117deb72021f6d9dbc2433aacb358510a1e27aacf3d03aa898c611129278102207713d77fcfb0edc7cf645c42d5f84a009e4b4e14364687bfe81243871c94bdf301",
        "036eee2753d68d85bd715a4f27786f35169eca092578392a6e09559977a59249c2"
      ],
      "is_coinbase": false,
      "sequence": 4294967293
    },
    {
      "txid": "1af74d6fb035993b9ecbec03dcdeccd5d2d20b1281960ed1fba838386401b01d",
      "vout": 0,
      "prevout": {
        "scriptpubkey": "0014a4262515819189ba72319cad70866162277f0b15",
        "scriptpubkey_asm": "OP_0 OP_PUSHBYTES_20 a4262515819189ba72319cad70866162277f0b15",
        "scriptpubkey_type": "v0_p2wpkh",
        "scriptpubkey_address": "bc1q5snz29vpjxym5u33njkhppnpvgnh7zc4rm6sh9",
        "value": 10000
      },
      "scriptsig": "",
      "scriptsig_asm": "",
      "witness": [
        "304402207e5206967890ee0e065c89c5d9ea58da98003114010a0e54d78d032d487571880220405d2da69c9a4146bc4406d325204210f6ed9ba9e72d1d94abd3cf9167b7543901",
        "02f13da63f1b154887fbfed8becc7ab1de2925f0463c156de801e519a8874542ac"
      ],
      "is_coinbase": false,
      "sequence": 4294967293
    },
    {
      "txid": "f0acf902936f473ef4d74cafd18a0d83362f163dcf42ad58a6cf630b4723da3c",
      "vout": 0,
      "prevout": {
        "scriptpubkey": "0014f185ce45b830880c5d350baaa4d27e3cf545955d",
        "scriptpubkey_asm": "OP_0 OP_PUSHBYTES_20 f185ce45b830880c5d350baaa4d27e3cf545955d",
        "scriptpubkey_type": "v0_p2wpkh",
        "scriptpubkey_address": "bc1q7xzuu3dcxzyqchf4pw42f5n78n65t92a5p758g",
        "value": 10000
      },
      "scriptsig": "",
      "scriptsig_asm": "",
      "witness": [
        "304402202d7906cb4ecba1bcd0b20b540871de26f2e6707d453ce74b9b8573b616b7c5ab022030beae9d4d7e87743d5157d2cd20ded037349d928a95c138222bd12803866bd001",
        "03c0eb6b3c50dbf14a32c074bea56abdaed913ad18e9c46ced31977e2440848121"
      ],
      "is_coinbase": false,
      "sequence": 4294967293
    }
  ],
  "vout": [
    {
      "scriptpubkey": "00146cf5ad2a6582cd9630499517e818b7c77d1b16f5",
      "scriptpubkey_asm": "OP_0 OP_PUSHBYTES_20 6cf5ad2a6582cd9630499517e818b7c77d1b16f5",
      "scriptpubkey_type": "v0_p2wpkh",
      "scriptpubkey_address": "bc1qdn6662n9stxevvzfj5t7sx9hca73k9h4rfu535",
      "value": 101563
    }
  ],
  "size": 1671,
  "weight": 3147,
  "fee": 8437,
  "status": {
    "confirmed": true,
    "block_height": 834464,
    "block_hash": "0000000000000000000177a0869a911a2b65c9bdcd5a8bcb02b68f305bee848e",
    "block_time": 1710308296
  },
  "hex": "0200000000010b9b077e9d79b9dcee696964bed70e4a5ab9f0a9dd6554d8cd8afbe4f1b0fe054e0000000000fdffffff78440ad52be6b97e2492488be01db27a674be65675e990ae1494337f75b3cc600000000000fdffffffe1bccfc4d2124d07ad0c8c5ab23b44cc628cd099e9508c8dfc008ff6c2aa09dc0000000000fdffffff334f02d66cb2dd529deab47930fa38c3e38684af5dd373712a181fa013aeec390000000000fdffffff030ba1962e83af35f879844a501001dbc28deba397877cfe6e71c7cdcf8cda0f0000000000fdffffff3376d4eef4e24235ad51094232b639eccff032b8e71444470eaded1f7d8dcc430000000000fdffffff4c310019464a23c2e221777e406f1d31a0900ac1df4565714073c145f883ddce0000000000fdffffffe81703a84e9af1afd18e136664c13aa76e81bc2ac5336135b2ef7bd18bec94e90000000000fdffffffab92508d18d3258c09b90eb55f770d8a941e3f5dba10211a7c420c9475c1d2ae0000000000fdffffff1db001643838a8fbd10e9681120bd2d2d5ccdedc03eccb9e3b9935b06f4df71a0000000000fdffffff3cda23470b63cfa658ad42cf3d162f36830d8ad1af4cd7f43e476f9302f9acf00000000000fdffffff01bb8c0100000000001600146cf5ad2a6582cd9630499517e818b7c77d1b16f502473044022041647aa77a7fbcd5247eec000ed0349f9a6d41ad7f7104627621cf7c295cb718022025aa9e34e488aaa8e6ac11d9c6fd35cab1b771d900801485ff4b257b77314f3d0121036eee2753d68d85bd715a4f27786f35169eca092578392a6e09559977a59249c2024730440220640e47616256c398bfbf37908d795af479d8c5c51e366d6eb12ad048e886827802200ee42765e23ed871f89327321eb8478ff410089f88ddee9abad061cf69f161fc0121036eee2753d68d85bd715a4f27786f35169eca092578392a6e09559977a59249c2024730440220338017611401bfa81bf5d4d98987b177946c6c5972b421512db2a843093eb95d022049938eab60d6fa667b9c9ee56ce36eb7072e96dbba8515c174d36f1ed23f01d50121036eee2753d68d85bd715a4f27786f35169eca092578392a6e09559977a59249c20247304402200ca4133bd8040abe357006e334cd33782c2187408d1ecfdbca69483ec984ed9f02202b60a02496d9bc4a28915b6bdc7e3628c93a7ea22583f6d899d6d382efa581430121036eee2753d68d85bd715a4f27786f35169eca092578392a6e09559977a59249c20247304402207a37bd88b49eb592ec41dfd3de39374c204c37f7030e4ec7687611b8c6054f6e022038fee5d319a1e651099892a101298e59cc094d00db03c26c7e49afe98e38a55301210286b3686203b72288470b394eaf144bea3a6952291e5596277ae67ee8b90b355502473044022006020e0367f9f088fef8bf433ae324a0c2a20b0baa5949bdd6a883c3863fd8e102203b33aa9340e10803456c93a69e57fdb0ad3c957b37bc8dc262641f8874babbf40121033c8c03dec99db3876ae2d9751ee8748131f6434ac3c487d6179ca079b312c4ca0247304402200e7fc93f4abe5694052a4a727f660d4c8f7ff2052a021e5443333046e54bcf36022060da8a3779674f9b893c532d30e7f9fc287e67b0a405eebd13005db5ace51f4a012103a5aac0a8c3c140c0d9132e5e663ee494e305b92a9f232cbc40b1b21ccf80991b024730440220289f3f7e46e5f728a8fb5012f33708356a0cb445450302db36c124f368514dbc022008e07efb3d0e1067f21dd1a1023dfd15a634155c9f03776f4e6b1e823865aaae0121036eee2753d68d85bd715a4f27786f35169eca092578392a6e09559977a59249c20247304402206d7117deb72021f6d9dbc2433aacb358510a1e27aacf3d03aa898c611129278102207713d77fcfb0edc7cf645c42d5f84a009e4b4e14364687bfe81243871c94bdf30121036eee2753d68d85bd715a4f27786f35169eca092578392a6e09559977a59249c20247304402207e5206967890ee0e065c89c5d9ea58da98003114010a0e54d78d032d487571880220405d2da69c9a4146bc4406d325204210f6ed9ba9e72d1d94abd3cf9167b75439012102f13da63f1b154887fbfed8becc7ab1de2925f0463c156de801e519a8874542ac0247304402202d7906cb4ecba1bcd0b20b540871de26f2e6707d453ce74b9b8573b616b7c5ab022030beae9d4d7e87743d5157d2cd20ded037349d928a95c138222bd12803866bd0012103c0eb6b3c50dbf14a32c074bea56abdaed913ad18e9c46ced31977e2440848121e2b90c00"
}