{
  "txid": "7961456a8b5b93771bcfda66d1f7e694288ad65e3592ede99f3c5a0ac3c31795",
  "version": 2,
  "locktime": 0,
  "vin": [
    {
      "txid": "0297933275e9b87a592b5fe50eac2574def18b5ac071aa88b863986e7db5e3d6",
      "vout": 8,
      "prevout": {
        "scriptpubkey": "51206c56141e255df67f0ec26c12f5735aa9443de527a5394fe066e9e58f8756a7c9",
        "scriptpubkey_asm": "OP_PUSHNUM_1 OP_PUSHBYTES_32 6c56141e255df67f0ec26c12f5735aa9443de527a5394fe066e9e58f8756a7c9",
        "scriptpubkey_type": "v1_p2tr",
        "scriptpubkey_address": "bc1pd3tpg839thm87rkzdsf02u6649zrmef855u5lcrxa8jclp6k5lysjz09w4",
        "value": 3186
      },
      "scriptsig": "",
      "scriptsig_asm": "",
      "witness": [
        "1c24967b85747719c89ded8d0fbc88cb95434606d91014fae71b56feea4b317ddc94c0e54a2c04d02da898c37a6b724cf13c4d7d36954fe7ea0070ae8acd68fa",
        "209dc1fc160a8077a58a91874222b3c64dce5d785b06a9fd3b4fc35908a7a97aadac0063036f726401011e6170706c69636174696f6e2f6a736f6e3b636861727365743d7574662d38004cbf7b2270223a22706f772d3230222c226f70223a226d696e74222c227469636b223a2250455045222c22616d74223a2231303030222c22736f6c7574696f6e223a22504550453a6263317171633839726a7563797a776c77786d7761646c7763797139353668726e726b6a6833637361723a303030303030303030303030303030303030303139393431613561653132383937363539383134343239323533333030353762306461393666336465613163353a3632343837323439373734227d68",
        "c0ebc23c5cb62efa16bafbb201dcb9689a89d3be5df33e83929d6fd8751a90bb42"
      ],
      "is_coinbase": false,
      "sequence": 4294967295
    }
  ],
  "vout": [
    {
      "scriptpubkey": "0014060e51cb98209df71b6eeb7eec1005a6ae398ed2",
      "scriptpubkey_asm": "OP_0 OP_PUSHBYTES_20 060e51cb98209df71b6eeb7eec1005a6ae398ed2",
      "scriptpubkey_type": "v0_p2wpkh",
      "scriptpubkey_address": "bc1qqc89rjucyzwlwxmwadlwcyq956hrnrkjh3csar",
      "value": 546
    }
  ],
  "size": 455,
  "weight": 701,
  "fee": 2640,
  "status": {
    "confirmed": true,
    "block_height": 834460,
    "block_hash": "00000000000000000000484a79b643b2524bbce82e5d8a442013fa5b8905ed98",
    "block_time": 1710307468
  },
  "hex": "02000000000101d6e3b57d6e9863b888aa71c05a8bf1de7425ac0ee55f2b597ab8e975329397020800000000ffffffff012202000000000000160014060e51cb98209df71b6eeb7eec1005a6ae398ed203401c24967b85747719c89ded8d0fbc88cb95434606d91014fae71b56feea4b317ddc94c0e54a2c04d02da898c37a6b724cf13c4d7d36954fe7ea0070ae8acd68fafd0c01209dc1fc160a8077a58a91874222b3c64dce5d785b06a9fd3b4fc35908a7a97aadac0063036f726401011e6170706c69636174696f6e2f6a736f6e3b636861727365743d7574662d38004cbf7b2270223a22706f772d3230222c226f70223a226d696e74222c227469636b223a2250455045222c22616d74223a2231303030222c22736f6c7574696f6e223a22504550453a6263317171633839726a7563797a776c77786d7761646c7763797139353668726e726b6a6833637361723a303030303030303030303030303030303030303139393431613561653132383937363539383134343239323533333030353762306461393666336465613163353a3632343837323439373734227d6821c0ebc23c5cb62efa16bafbb201dcb9689a89d3be5df33e83929d6fd8751a90bb4200000000"
}