{
  "txid": "796154afa4abac52e7ad6818f2101a7d3bb2cadf517d8b9945d3a94b7a37bbcb",
  "version": 2,
  "locktime": 0,
  "vin": [
    {
      "txid": "edf1a5813fd40fbb31f60dd590090017e6debef9f494a388948d6335bac41585",
      "vout": 3,
      "prevout": {
        "scriptpubkey": "0014e27725ff317aa4f2011157028b93d04ae48fe2fe",
        "scriptpubkey_asm": "OP_0 OP_PUSHBYTES_20 e27725ff317aa4f2011157028b93d04ae48fe2fe",
        "scriptpubkey_type": "v0_p2wpkh",
        "scriptpubkey_address": "bc1qufmjtle302j0yqg32upghy7sftjglch7umur40",
        "value": 163482
      },
      "scriptsig": "",
      "scriptsig_asm": "",
      "witness": [
        "3045022100c0b10a39679d1ca9c7af021ee1b70ef572643a91a261512fd746ea8bb318c61d022064af53a7b71a79f14a6ef9c0a8f1e84f884da8cfb5dce4c2a7394aa4d76ed90301",
        "02fb4fee8b08d2fb0fdc68e7452dbf082aa64adb92275eb73782bfdbec4f128d68"
      ],
      "is_coinbase": false,
      "sequence": 4294967295
    }
  ],
  "vout": [
    {
      "scriptpubkey": "00145efd30dc1221e98c5d1d30aa74f88debb6a82e8e",
      "scriptpubkey_asm": "OP_0 OP_PUSHBYTES_20 5efd30dc1221e98c5d1d30aa74f88debb6a82e8e",
      "scriptpubkey_type": "v0_p2wpkh",
      "scriptpubkey_address": "bc1qtm7nphqjy85cchgaxz48f7ydawm2st5wzd95ec",
      "value": 333
    },
    {
      "scriptpubkey": "5121025c1f36f69fc3c32f8d56fc4f0aad1feb7ed5e155eb530550668fd941a9f1a9542102a43d5240d74fbb97acc4f8655374b19ba0a0a13fb7104f3a726a1469bc45940c2102020202020202020202020202020202020202020202020202020202020202020253ae",
      "scriptpubkey_asm": "OP_PUSHNUM_1 OP_PUSHBYTES_33 025c1f36f69fc3c32f8d56fc4f0aad1feb7ed5e155eb530550668fd941a9f1a954 OP_PUSHBYTES_33 02a43d5240d74fbb97acc4f8655374b19ba0a0a13fb7104f3a726a1469bc45940c OP_PUSHBYTES_33 020202020202020202020202020202020202020202020202020202020202020202 OP_PUSHNUM_3 OP_CHECKMULTISIG",
      "scriptpubkey_type": "unknown",
      "value": 801
    },
    {
      "scriptpubkey": "512103f4b6f0cbcbd9b3bdbc3da8fabfa279f5ea61615436f8adfb4fcbb978534c3747210253fb7d49515127cb0a432c319b07e1f4cec5f04e4a49c47b9e3edcc2b1d769ab2102020202020202020202020202020202020202020202020202020202020202020253ae",
      "scriptpubkey_asm": "OP_PUSHNUM_1 OP_PUSHBYTES_33 03f4b6f0cbcbd9b3bdbc3da8fabfa279f5ea61615436f8adfb4fcbb978534c3747 OP_PUSHBYTES_33 0253fb7d49515127cb0a432c319b07e1f4cec5f04e4a49c47b9e3edcc2b1d769ab OP_PUSHBYTES_33 020202020202020202020202020202020202020202020202020202020202020202 OP_PUSHNUM_3 OP_CHECKMULTISIG",
      "scriptpubkey_type": "unknown",
      "value": 801
    },
    {
      "scriptpubkey": "0014e27725ff317aa4f2011157028b93d04ae48fe2fe",
      "scriptpubkey_asm": "OP_0 OP_PUSHBYTES_20 e27725ff317aa4f2011157028b93d04ae48fe2fe",
      "scriptpubkey_type": "v0_p2wpkh",
      "scriptpubkey_address": "bc1qufmjtle302j0yqg32upghy7sftjglch7umur40",
      "value": 145333
    }
  ],
  "size": 451,
  "weight": 1474,
  "fee": 16214,
  "status": {
    "confirmed": true,
    "block_height": 834638,
    "block_hash": "000000000000000000025f742c626208ac87e0b7d15054abb4a19ca2d735a54e",
    "block_time": 1710405325
  },
  "hex": "020000000001018515c4ba35638d9488a394f4f9bedee617000990d50df631bb0fd43f81a5f1ed0300000000ffffffff044d010000000000001600145efd30dc1221e98c5d1d30aa74f88debb6a82e8e2103000000000000695121025c1f36f69fc3c32f8d56fc4f0aad1feb7ed5e155eb530550668fd941a9f1a9542102a43d5240d74fbb97acc4f8655374b19ba0a0a13fb7104f3a726a1469bc45940c2102020202020202020202020202020202020202020202020202020202020202020253ae210300000000000069512103f4b6f0cbcbd9b3bdbc3da8fabfa279f5ea61615436f8adfb4fcbb978534c3747210253fb7d49515127cb0a432c319b07e1f4cec5f04e4a49c47b9e3edcc2b1d769ab2102020202020202020202020202020202020202020202020202020202020202020253aeb537020000000000160014e27725ff317aa4f2011157028b93d04ae48fe2fe02483045022100c0b10a39679d1ca9c7af021ee1b70ef572643a91a261512fd746ea8bb318c61d022064af53a7b71a79f14a6ef9c0a8f1e84f884da8cfb5dce4c2a7394aa4d76ed903012102fb4fee8b08d2fb0fdc68e7452dbf082aa64adb92275eb73782bfdbec4f128d6800000000"
}