{
  "txid": "797c10a8a1f0b8c063798c215628e55890cdab20e6e34871fa8162a7e1c14c21",
  "version": 2,
  "locktime": 0,
  "vin": [
    {
      "txid": "dea6a5e5e0402e06ff08eba81e4fb616c7969b21fafece9c80b74098ce6bb3d9",
      "vout": 4,
      "prevout": {
        "scriptpubkey": "0014ca81a7f04b5e3cb7887d7db4b9a5d39aebc1a9b3",
        "scriptpubkey_asm": "OP_0 OP_PUSHBYTES_20 ca81a7f04b5e3cb7887d7db4b9a5d39aebc1a9b3",
        "scriptpubkey_type": "v0_p2wpkh",
        "scriptpubkey_address": "bc1qe2q60uzttc7t0zra0k6tnfwnnt4ur2dn60w6m6",
        "value": 300
      },
      "scriptsig": "",
      "scriptsig_asm": "",
      "witness": [
        "3044022068726847357a86ac3b4b8d6443437be5135eb89f5b7e540e299a29ba6942c427022053bf17f70efadee726cd40118a37091628951cb2ecc2e5db392f6d82c357b29f01",
        "021d6226519f451445fd4d6c91d81189d1a0c06eaf09e53e0c958012d3b640d3ec"
      ],
      "is_coinbase": false,
      "sequence": 4294967295
    },
    {
      "txid": "dea6a5e5e0402e06ff08eba81e4fb616c7969b21fafece9c80b74098ce6bb3d9",
      "vout": 5,
      "prevout": {
        "scriptpubkey": "0014ca81a7f04b5e3cb7887d7db4b9a5d39aebc1a9b3",
        "scriptpubkey_asm": "OP_0 OP_PUSHBYTES_20 ca81a7f04b5e3cb7887d7db4b9a5d39aebc1a9b3",
        "scriptpubkey_type": "v0_p2wpkh",
        "scriptpubkey_address": "bc1qe2q60uzttc7t0zra0k6tnfwnnt4ur2dn60w6m6",
        "value": 300
      },
      "scriptsig": "",
      "scriptsig_asm": "",
      "witness": [
        "3045022100b157716f84e848bb5a0e628c5f973ba7d0af2f68ba3714caa8ef25f34e7b936e0220700b9cb00e2ddd96ad44e848dc3c28a94824411c2034962bb71ea4451050064101",
        "021d6226519f451445fd4d6c91d81189d1a0c06eaf09e53e0c958012d3b640d3ec"
      ],
      "is_coinbase": false,
      "sequence": 4294967295
    },
    {
      "txid": "69f1f40b33e9d2e2128ea0201a656be45bc51e4505ca63faa3891c99e445496c",
      "vout": 0,
      "prevout": {
        "scriptpubkey": "0014ab35115a391095583255a887b2ee26384b70521e",
        "scriptpubkey_asm": "OP_0 OP_PUSHBYTES_20 ab35115a391095583255a887b2ee26384b70521e",
        "scriptpubkey_type": "v0_p2wpkh",
        "scriptpubkey_address": "bc1q4v63zk3ezz24svj44zrm9m3x8p9hq5s7wrjzx7",
        "value": 546
      },
      "scriptsig": "",
      "scriptsig_asm": "",
      "witness": [
        "304402204b3f667a32f9c8f1674ae7f96579e34a4a8b83c51117d70cf8156c5b2c97780e02200e7237df42905909921b19abee82dc08a5e5795fcd711c1742aa09feabde966583",
        "0371c62061e8c7df738adb5e6089379a2f9dc09d6aecbd50a051916a52c202439f"
      ],
      "is_coinbase": false,
      "sequence": 4294967295
    },
    {
      "txid": "0e10eca0e83c195db3f96783d13760e7dda777a0ff117d606cea09929f713cd8",
      "vout": 0,
      "prevout": {
        "scriptpubkey": "0014a5194cdcff718d5acf80092799998e2cb28bc1ed",
        "scriptpubkey_asm": "OP_0 OP_PUSHBYTES_20 a5194cdcff718d5acf80092799998e2cb28bc1ed",
        "scriptpubkey_type": "v0_p2wpkh",
        "scriptpubkey_address": "bc1q55v5eh8lwxx44nuqpynenxvw9jeghs0df3uphw",
        "value": 10663692
      },
      "scriptsig": "",
      "scriptsig_asm": "",
      "witness": [
        "3045022100c604189e431dd164738d6d7fa39a63e23f8e7e144915e8c4f1b02ef7fa9205960220113e121ebf03c088972902fbb32332db076934e0ae2b1a0c7c46b49d5d3925a701",
        "03a901541787ff5b9eceef9f34ece39f4c4f54b8534683ed2c283fdf5891601962"
      ],
      "is_coinbase": false,
      "sequence": 4294967295
    },
    {
      "txid": "dea6a5e5e0402e06ff08eba81e4fb616c7969b21fafece9c80b74098ce6bb3d9",
      "vout": 0,
      "prevout": {
        "scriptpubkey": "0014ca81a7f04b5e3cb7887d7db4b9a5d39aebc1a9b3",
        "scriptpubkey_asm": "OP_0 OP_PUSHBYTES_20 ca81a7f04b5e3cb7887d7db4b9a5d39aebc1a9b3",
        "scriptpubkey_type": "v0_p2wpkh",
        "scriptpubkey_address": "bc1qe2q60uzttc7t0zra0k6tnfwnnt4ur2dn60w6m6",
        "value": 600
      },
      "scriptsig": "",
      "scriptsig_asm": "",
      "witness": [
        "304402202cf6f72886f4f5b40f9d7c75cf5e23dde3d055572246361be3a995896f509ac9022021c0af6ebe148b1a105437aab56a6adad56398435ded49a55983db247298dbbe01",
        "021d6226519f451445fd4d6c91d81189d1a0c06eaf09e53e0c958012d3b640d3ec"
      ],
      "is_coinbase": false,
      "sequence": 4294967295
    }
  ],
  "vout": [
    {
      "scriptpubkey": "0014ca81a7f04b5e3cb7887d7db4b9a5d39aebc1a9b3",
      "scriptpubkey_asm": "OP_0 OP_PUSHBYTES_20 ca81a7f04b5e3cb7887d7db4b9a5d39aebc1a9b3",
      "scriptpubkey_type": "v0_p2wpkh",
      "scriptpubkey_address": "bc1qe2q60uzttc7t0zra0k6tnfwnnt4ur2dn60w6m6",
      "value": 600
    },
    {
      "scriptpubkey": "0014a5194cdcff718d5acf80092799998e2cb28bc1ed",
      "scriptpubkey_asm": "OP_0 OP_PUSHBYTES_20 a5194cdcff718d5acf80092799998e2cb28bc1ed",
      "scriptpubkey_type": "v0_p2wpkh",
      "scriptpubkey_address": "bc1q55v5eh8lwxx44nuqpynenxvw9jeghs0df3uphw",
      "value": 546
    },
    {
      "scriptpubkey": "0014ab35115a391095583255a887b2ee26384b70521e",
      "scriptpubkey_asm": "OP_0 OP_PUSHBYTES_20 ab35115a391095583255a887b2ee26384b70521e",
      "scriptpubkey_type": "v0_p2wpkh",
      "scriptpubkey_address": "bc1q4v63zk3ezz24svj44zrm9m3x8p9hq5s7wrjzx7",
      "value": 8250000
    },
    {
      "scriptpubkey": "0014a5194cdcff718d5acf80092799998e2cb28bc1ed",
      "scriptpubkey_asm": "OP_0 OP_PUSHBYTES_20 a5194cdcff718d5acf80092799998e2cb28bc1ed",
      "scriptpubkey_type": "v0_p2wpkh",
      "scriptpubkey_address": "bc1q55v5eh8lwxx44nuqpynenxvw9jeghs0df3uphw",
      "value": 2406996
    },
    {
      "scriptpubkey": "0014ca81a7f04b5e3cb7887d7db4b9a5d39aebc1a9b3",
      "scriptpubkey_asm": "OP_0 OP_PUSHBYTES_20 ca81a7f04b5e3cb7887d7db4b9a5d39aebc1a9b3",
      "scriptpubkey_type": "v0_p2wpkh",
      "scriptpubkey_address": "bc1qe2q60uzttc7t0zra0k6tnfwnnt4ur2dn60w6m6",
      "value": 300
    },
    {
      "scriptpubkey": "0014ca81a7f04b5e3cb7887d7db4b9a5d39aebc1a9b3",
      "scriptpubkey_asm": "OP_0 OP_PUSHBYTES_20 ca81a7f04b5e3cb7887d7db4b9a5d39aebc1a9b3",
      "scriptpubkey_type": "v0_p2wpkh",
      "scriptpubkey_address": "bc1qe2q60uzttc7t0zra0k6tnfwnnt4ur2dn60w6m6",
      "value": 300
    }
  ],
  "size": 940,
  "weight": 2143,
  "fee": 6696,
  "status": {
    "confirmed": true,
    "block_height": 834460,
    "block_hash": "00000000000000000000484a79b643b2524bbce82e5d8a442013fa5b8905ed98",
    "block_time": 1710307468
  },
  "hex": "02000000000105d9b36bce9840b7809ccefefa219b96c716b64f1ea8eb08ff062e40e0e5a5a6de0400000000ffffffffd9b36bce9840b7809ccefefa219b96c716b64f1ea8eb08ff062e40e0e5a5a6de0500000000ffffffff6c4945e4991c89a3fa63ca05451ec55be46b651a20a08e12e2d2e9330bf4f1690000000000ffffffffd83c719f9209ea6c607d11ffa077a7dde76037d18367f9b35d193ce8a0ec100e0000000000ffffffffd9b36bce9840b7809ccefefa219b96c716b64f1ea8eb08ff062e40e0e5a5a6de0000000000ffffffff065802000000000000160014ca81a7f04b5e3cb7887d7db4b9a5d39aebc1a9b32202000000000000160014a5194cdcff718d5acf80092799998e2cb28bc1ed90e27d0000000000160014ab35115a391095583255a887b2ee26384b70521e54ba240000000000160014a5194cdcff718d5acf80092799998e2cb28bc1ed2c01000000000000160014ca81a7f04b5e3cb7887d7db4b9a5d39aebc1a9b32c01000000000000160014ca81a7f04b5e3cb7887d7db4b9a5d39aebc1a9b302473044022068726847357a86ac3b4b8d6443437be5135eb89f5b7e540e299a29ba6942c427022053bf17f70efadee726cd40118a37091628951cb2ecc2e5db392f6d82c357b29f0121021d6226519f451445fd4d6c91d81189d1a0c06eaf09e53e0c958012d3b640d3ec02483045022100b157716f84e848bb5a0e628c5f973ba7d0af2f68ba3714caa8ef25f34e7b936e0220700b9cb00e2ddd96ad44e848dc3c28a94824411c2034962bb71ea445105006410121021d6226519f451445fd4d6c91d81189d1a0c06eaf09e53e0c958012d3b640d3ec0247304402204b3f667a32f9c8f1674ae7f96579e34a4a8b83c51117d70cf8156c5b2c97780e02200e7237df42905909921b19abee82dc08a5e5795fcd711c1742aa09feabde966583210371c62061e8c7df738adb5e6089379a2f9dc09d6aecbd50a051916a52c202439f02483045022100c604189e431dd164738d6d7fa39a63e23f8e7e144915e8c4f1b02ef7fa9205960220113e121ebf03c088972902fbb32332db076934e0ae2b1a0c7c46b49d5d3925a7012103a901541787ff5b9eceef9f34ece39f4c4f54b8534683ed2c283fdf58916019620247304402202cf6f72886f4f5b40f9d7c75cf5e23dde3d055572246361be3a995896f509ac9022021c0af6ebe148b1a105437aab56a6adad56398435ded49a55983db247298dbbe0121021d6226519f451445fd4d6c91d81189d1a0c06eaf09e53e0c958012d3b640d3ec00000000"
}