{
  "txid": "79c0002d3dfbce81fa061affe5bca46e46768bc26ea3b8d1249107cee4669148",
  "version": 1,
  "locktime": 0,
  "vin": [
    {
      "txid": "83644fdb3f5077e31b245dc62999d7a272379df802ffb9ea9811549bf825286f",
      "vout": 0,
      "prevout": {
        "scriptpubkey": "001440836c28d563b4a791f9cd54e00930589417ac1d",
        "scriptpubkey_asm": "OP_0 OP_PUSHBYTES_20 40836c28d563b4a791f9cd54e00930589417ac1d",
        "scriptpubkey_type": "v0_p2wpkh",
        "scriptpubkey_address": "bc1qgzpkc2x4vw620y0ee42wqzfstz2p0tqax80ppm",
        "value": 439752
      },
      "scriptsig": "",
      "scriptsig_asm": "",
      "witness": [
        "3045022100dabc494a85a29caaad2a2e376ad144a7c6e21ac419c91ee925125dd9fba7654602204d12a7c0b3810a70c1613a38e3c38730dc397731bc081a7b8d7af8f4ba4bfa1101",
        "0302ea65155aa074c0f84dd3528f824ebcac0963dbf4a54af84b7ad707266bea1e"
      ],
      "is_coinbase": false,
      "sequence": 4294967295
    }
  ],
  "vout": [
    {
      "scriptpubkey": "0014ea3db9479ce71799c76f8afa6fa6a080fae022db",
      "scriptpubkey_asm": "OP_0 OP_PUSHBYTES_20 ea3db9479ce71799c76f8afa6fa6a080fae022db",
      "scriptpubkey_type": "v0_p2wpkh",
      "scriptpubkey_address": "bc1qag7mj3uuuuten3m03taxlf4qsrawqgkmtzmccz",
      "value": 436860
    }
  ],
  "size": 192,
  "weight": 438,
  "fee": 2892,
  "status": {
    "confirmed": true,
    "block_height": 834638,
    "block_hash": "000000000000000000025f742c626208ac87e0b7d15054abb4a19ca2d735a54e",
    "block_time": 1710405325
  },
  "hex": "010000000001016f2825f89b541198eab9ff02f89d3772a2d79929c65d241be377503fdb4f64830000000000ffffffff017caa060000000000160014ea3db9479ce71799c76f8afa6fa6a080fae022db02483045022100dabc494a85a29caaad2a2e376ad144a7c6e21ac419c91ee925125dd9fba7654602204d12a7c0b3810a70c1613a38e3c38730dc397731bc081a7b8d7af8f4ba4bfa1101210302ea65155aa074c0f84dd3528f824ebcac0963dbf4a54af84b7ad707266bea1e00000000"
}