{
  "txid": "79c5a8ebae612f0348b78395aab01a27087e4b5892c6f93f20b14efb0ded051e",
  "version": 2,
  "locktime": 0,
  "vin": [
    {
      "txid": "48ed185388f2744fb3677ea080c6c63ba7958451cae675f92b1f047d63762dab",
      "vout": 1,
      "prevout": {
        "scriptpubkey": "a914e280d91ab0f233b9fad52069c3f496ec9990ae7087",
        "scriptpubkey_asm": "OP_HASH160 OP_PUSHBYTES_20 e280d91ab0f233b9fad52069c3f496ec9990ae70 OP_EQUAL",
        "scriptpubkey_type": "p2sh",
        "scriptpubkey_address": "3NLezRBqRYYGBvNdQSW9etkvAb5f3fr1Kp",
        "value": 12479158
      },
      "scriptsig": "1600149bf838bc3ae119819414f7f482bacb3df7d2d2e6",
      "scriptsig_asm": "OP_PUSHBYTES_22 00149bf838bc3ae119819414f7f482bacb3df7d2d2e6",
      "witness": [
        "3044022022ef34dcb9bde78c5270300a241fd995cfdc1025953274ee68701eada411f7fb02205b05e10bfff1280f08589cc301cb9c91a95959d3d32a3fe61120fca829f5de2f01",
        "036db1e1088fcd452b385461e15f1f02ffb33ceae9823be718e60c0b318883084b"
      ],
      "is_coinbase": false,
      "sequence": 4294967295,
      "inner_redeemscript_asm": "OP_0 OP_PUSHBYTES_20 9bf838bc3ae119819414f7f482bacb3df7d2d2e6"
    }
  ],
  "vout": [
    {
      "scriptpubkey": "a914e280d91ab0f233b9fad52069c3f496ec9990ae7087",
      "scriptpubkey_asm": "OP_HASH160 OP_PUSHBYTES_20 e280d91ab0f233b9fad52069c3f496ec9990ae70 OP_EQUAL",
      "scriptpubkey_type": "p2sh",
      "scriptpubkey_address": "3NLezRBqRYYGBvNdQSW9etkvAb5f3fr1Kp",
      "value": 600
    },
    {
      "scriptpubkey": "a914e280d91ab0f233b9fad52069c3f496ec9990ae7087",
      "scriptpubkey_asm": "OP_HASH160 OP_PUSHBYTES_20 e280d91ab0f233b9fad52069c3f496ec9990ae70 OP_EQUAL",
      "scriptpubkey_type": "p2sh",
      "scriptpubkey_address": "3NLezRBqRYYGBvNdQSW9etkvAb5f3fr1Kp",
      "value": 600
    },
    {
      "scriptpubkey": "a914e280d91ab0f233b9fad52069c3f496ec9990ae7087",
      "scriptpubkey_asm": "OP_HASH160 OP_PUSHBYTES_20 e280d91ab0f233b9fad52069c3f496ec9990ae70 OP_EQUAL",
      "scriptpubkey_type": "p2sh",
      "scriptpubkey_address": "3NLezRBqRYYGBvNdQSW9etkvAb5f3fr1Kp",
      "value": 600
    },
    {
      "scriptpubkey": "a914e280d91ab0f233b9fad52069c3f496ec9990ae7087",
      "scriptpubkey_asm": "OP_HASH160 OP_PUSHBYTES_20 e280d91ab0f233b9fad52069c3f496ec9990ae70 OP_EQUAL",
      "scriptpubkey_type": "p2sh",
      "scriptpubkey_address": "3NLezRBqRYYGBvNdQSW9etkvAb5f3fr1Kp",
      "value": 600
    },
    {
      "scriptpubkey": "a914e280d91ab0f233b9fad52069c3f496ec9990ae7087",
      "scriptpubkey_asm": "OP_HASH160 OP_PUSHBYTES_20 e280d91ab0f233b9fad52069c3f496ec9990ae70 OP_EQUAL",
      "scriptpubkey_type": "p2sh",
      "scriptpubkey_address": "3NLezRBqRYYGBvNdQSW9etkvAb5f3fr1Kp",
      "value": 600
    },
    {
      "scriptpubkey": "a914e280d91ab0f233b9fad52069c3f496ec9990ae7087",
      "scriptpubkey_asm": "OP_HASH160 OP_PUSHBYTES_20 e280d91ab0f233b9fad52069c3f496ec9990ae70 OP_EQUAL",
      "scriptpubkey_type": "p2sh",
      "scriptpubkey_address": "3NLezRBqRYYGBvNdQSW9etkvAb5f3fr1Kp",
      "value": 600
    },
    {
      "scriptpubkey": "a914e280d91ab0f233b9fad52069c3f496ec9990ae7087",
      "scriptpubkey_asm": "OP_HASH160 OP_PUSHBYTES_20 e280d91ab0f233b9fad52069c3f496ec9990ae70 OP_EQUAL",
      "scriptpubkey_type": "p2sh",
      "scriptpubkey_address": "3NLezRBqRYYGBvNdQSW9etkvAb5f3fr1Kp",
      "value": 600
    },
    {
      "scriptpubkey": "a914e280d91ab0f233b9fad52069c3f496ec9990ae7087",
      "scriptpubkey_asm": "OP_HASH160 OP_PUSHBYTES_20 e280d91ab0f233b9fad52069c3f496ec9990ae70 OP_EQUAL",
      "scriptpubkey_type": "p2sh",
      "scriptpubkey_address": "3NLezRBqRYYGBvNdQSW9etkvAb5f3fr1Kp",
      "value": 600
    },
    {
      "scriptpubkey": "a914e280d91ab0f233b9fad52069c3f496ec9990ae7087",
      "scriptpubkey_asm": "OP_HASH160 OP_PUSHBYTES_20 e280d91ab0f233b9fad52069c3f496ec9990ae70 OP_EQUAL",
      "scriptpubkey_type": "p2sh",
      "scriptpubkey_address": "3NLezRBqRYYGBvNdQSW9etkvAb5f3fr1Kp",
      "value": 600
    },
    {
      "scriptpubkey": "a914e280d91ab0f233b9fad52069c3f496ec9990ae7087",
      "scriptpubkey_asm": "OP_HASH160 OP_PUSHBYTES_20 e280d91ab0f233b9fad52069c3f496ec9990ae70 OP_EQUAL",
      "scriptpubkey_type": "p2sh",
      "scriptpubkey_address": "3NLezRBqRYYGBvNdQSW9etkvAb5f3fr1Kp",
      "value": 600
    },
    {
      "scriptpubkey": "a914e280d91ab0f233b9fad52069c3f496ec9990ae7087",
      "scriptpubkey_asm": "OP_HASH160 OP_PUSHBYTES_20 e280d91ab0f233b9fad52069c3f496ec9990ae70 OP_EQUAL",
      "scriptpubkey_type": "p2sh",
      "scriptpubkey_address": "3NLezRBqRYYGBvNdQSW9etkvAb5f3fr1Kp",
      "value": 12463624
    }
  ],
  "size": 535,
  "weight": 1813,
  "fee": 9534,
  "status": {
    "confirmed": true,
    "block_height": 834460,
    "block_hash": "00000000000000000000484a79b643b2524bbce82e5d8a442013fa5b8905ed98",
    "block_time": 1710307468
  },
  "hex": "02000000000101ab2d76637d041f2bf975e6ca518495a73bc6c680a07e67b34f74f2885318ed4801000000171600149bf838bc3ae119819414f7f482bacb3df7d2d2e6ffffffff0b580200000000000017a914e280d91ab0f233b9fad52069c3f496ec9990ae7087580200000000000017a914e280d91ab0f233b9fad52069c3f496ec9990ae7087580200000000000017a914e280d91ab0f233b9fad52069c3f496ec9990ae7087580200000000000017a914e280d91ab0f233b9fad52069c3f496ec9990ae7087580200000000000017a914e280d91ab0f233b9fad52069c3f496ec9990ae7087580200000000000017a914e280d91ab0f233b9fad52069c3f496ec9990ae7087580200000000000017a914e280d91ab0f233b9fad52069c3f496ec9990ae7087580200000000000017a914e280d91ab0f233b9fad52069c3f496ec9990ae7087580200000000000017a914e280d91ab0f233b9fad52069c3f496ec9990ae7087580200000000000017a914e280d91ab0f233b9fad52069c3f496ec9990ae7087082ebe000000000017a914e280d91ab0f233b9fad52069c3f496ec9990ae708702473044022022ef34dcb9bde78c5270300a241fd995cfdc1025953274ee68701eada411f7fb02205b05e10bfff1280f08589cc301cb9c91a95959d3d32a3fe61120fca829f5de2f0121036db1e1088fcd452b385461e15f1f02ffb33ceae9823be718e60c0b318883084b00000000"
}