{
  "txid": "79c5e6c08b109e1dbdf6dc45ca52bab264d99b9c9efae428f54ee24ea403ef84",
  "version": 1,
  "locktime": 0,
  "vin": [
    {
      "txid": "ae3d0489f120cab17c42fbac6525d255d12bbc9aabdf61c2516f1c198eeba498",
      "vout": 0,
      "prevout": {
        "scriptpubkey": "a914e7f9dc5bb29b0e5247ea69721a22a8bbb1fbf1b187",
        "scriptpubkey_asm": "OP_HASH160 OP_PUSHBYTES_20 e7f9dc5bb29b0e5247ea69721a22a8bbb1fbf1b1 OP_EQUAL",
        "scriptpubkey_type": "p2sh",
        "scriptpubkey_address": "3NqbLVEHUFeecgdPixZw8qxpnU4QQKFebn",
        "value": 108152934
      },
      "scriptsig": "0047304402202031b68c29e5eb61d351e40ac4b97e5af75e071400ef88ca792c66f1faa2af72022054e79c77c83d8f71165a1df1fac9dbdc578c4ea05ac79c5d8ed7580c1c54447a01473044022011f98f3fa23f77dd8bbff0529f422d1a8890478d01c599b826651bae944bfd6d022032801d853e8edffe8199efe1cc54ee789caa427bde7fd725e9f3b6be66781c9f014c69522102f872085d71ad02072adc30a5025fd3acea57c8d8f71bf010a4681a8897966c7621020d62af7456d0a63c5b12bc37c3c1dcb8c7e49b4cfc3c375efd56db148affd401210287b8de796b2b2f45cfb18eb4930d0c880e83b71bcf90e2105bbe76c394d1edf453ae",
      "scriptsig_asm": "OP_0 OP_PUSHBYTES_71 304402202031b68c29e5eb61d351e40ac4b97e5af75e071400ef88ca792c66f1faa2af72022054e79c77c83d8f71165a1df1fac9dbdc578c4ea05ac79c5d8ed7580c1c54447a01 OP_PUSHBYTES_71 3044022011f98f3fa23f77dd8bbff0529f422d1a8890478d01c599b826651bae944bfd6d022032801d853e8edffe8199efe1cc54ee789caa427bde7fd725e9f3b6be66781c9f01 OP_PUSHDATA1 522102f872085d71ad02072adc30a5025fd3acea57c8d8f71bf010a4681a8897966c7621020d62af7456d0a63c5b12bc37c3c1dcb8c7e49b4cfc3c375efd56db148affd401210287b8de796b2b2f45cfb18eb4930d0c880e83b71bcf90e2105bbe76c394d1edf453ae",
      "is_coinbase": false,
      "sequence": 4294967295,
      "inner_redeemscript_asm": "OP_PUSHNUM_2 OP_PUSHBYTES_33 02f872085d71ad02072adc30a5025fd3acea57c8d8f71bf010a4681a8897966c76 OP_PUSHBYTES_33 020d62af7456d0a63c5b12bc37c3c1dcb8c7e49b4cfc3c375efd56db148affd401 OP_PUSHBYTES_33 0287b8de796b2b2f45cfb18eb4930d0c880e83b71bcf90e2105bbe76c394d1edf4 OP_PUSHNUM_3 OP_CHECKMULTISIG"
    }
  ],
  "vout": [
    {
      "scriptpubkey": "0014f63d3a0e0f77da2cf7de0f14b3122923e678e8b8",
      "scriptpubkey_asm": "OP_0 OP_PUSHBYTES_20 f63d3a0e0f77da2cf7de0f14b3122923e678e8b8",
      "scriptpubkey_type": "v0_p2wpkh",
      "scriptpubkey_address": "bc1q7c7n5rs0wldzea77pu2txy3fy0n8369c4q06pv",
      "value": 132152
    },
    {
      "scriptpubkey": "00148c7419726ab1ed7cdcd17311ef19c2cf2af95317",
      "scriptpubkey_asm": "OP_0 OP_PUSHBYTES_20 8c7419726ab1ed7cdcd17311ef19c2cf2af95317",
      "scriptpubkey_type": "v0_p2wpkh",
      "scriptpubkey_address": "bc1q336pjun2k8khehx3wvg77xwzeu40j5chsrzqja",
      "value": 150539
    },
    {
      "scriptpubkey": "512036fdf15226dae6bb154169b55bfa50a9a328c450c13f33da982b1aa402efe07f",
      "scriptpubkey_asm": "OP_PUSHNUM_1 OP_PUSHBYTES_32 36fdf15226dae6bb154169b55bfa50a9a328c450c13f33da982b1aa402efe07f",
      "scriptpubkey_type": "v1_p2tr",
      "scriptpubkey_address": "bc1pxm7lz53xmtntk92pdx64h7js4x3j33zscyln8k5c9vd2gqh0uplsugy7s4",
      "value": 687925
    },
    {
      "scriptpubkey": "76a91437b1e9b2bd1fe856ff1d521e798e09adf0551fd188ac",
      "scriptpubkey_asm": "OP_DUP OP_HASH160 OP_PUSHBYTES_20 37b1e9b2bd1fe856ff1d521e798e09adf0551fd1 OP_EQUALVERIFY OP_CHECKSIG",
      "scriptpubkey_type": "p2pkh",
      "scriptpubkey_address": "165VJ9xsFoKJVZvFG8y4drMjiDaDsX8gzo",
      "value": 56733618
    },
    {
      "scriptpubkey": "5120a6cd798c72d61877bb909dadcb885b9eca18e1b2a4c95e1026b660f4bd69999f",
      "scriptpubkey_asm": "OP_PUSHNUM_1 OP_PUSHBYTES_32 a6cd798c72d61877bb909dadcb885b9eca18e1b2a4c95e1026b660f4bd69999f",
      "scriptpubkey_type": "v1_p2tr",
      "scriptpubkey_address": "bc1p5mxhnrrj6cv80wusnkkuhzzmnm9p3cdj5ny4uypxkes0f0tfnx0sv86a49",
      "value": 100000
    },
    {
      "scriptpubkey": "512069f372f0ee43e870f1910ef4316f939b8ffc95891757d389d3c7413280eb2e1c",
      "scriptpubkey_asm": "OP_PUSHNUM_1 OP_PUSHBYTES_32 69f372f0ee43e870f1910ef4316f939b8ffc95891757d389d3c7413280eb2e1c",
      "scriptpubkey_type": "v1_p2tr",
      "scriptpubkey_address": "bc1pd8eh9u8wg058puv3pm6rzmunnw8le9vfzata8zwncaqn9q8t9cwqayefda",
      "value": 1970000
    },
    {
      "scriptpubkey": "0014f86d4b821d248c2a9aa40d69b0094d8d8c28ce7c",
      "scriptpubkey_asm": "OP_0 OP_PUSHBYTES_20 f86d4b821d248c2a9aa40d69b0094d8d8c28ce7c",
      "scriptpubkey_type": "v0_p2wpkh",
      "scriptpubkey_address": "bc1qlpk5hqsayjxz4x4yp45mqz2d3kxz3nnuxrluq2",
      "value": 100000
    },
    {
      "scriptpubkey": "5120f47e6840914c5122127d1e46ab814eae2dfd3e4f0c0a056bd4cd74b9f139d69c",
      "scriptpubkey_asm": "OP_PUSHNUM_1 OP_PUSHBYTES_32 f47e6840914c5122127d1e46ab814eae2dfd3e4f0c0a056bd4cd74b9f139d69c",
      "scriptpubkey_type": "v1_p2tr",
      "scriptpubkey_address": "bc1p73lxssy3f3gjyynarer2hq2w4ckl60j0ps9q2675e46tnufe66wqy30ewz",
      "value": 917626
    },
    {
      "scriptpubkey": "5120963c530d15178e9cdf67c624f2eb673c6fe264a1fca7bfb8f937579f92a0572f",
      "scriptpubkey_asm": "OP_PUSHNUM_1 OP_PUSHBYTES_32 963c530d15178e9cdf67c624f2eb673c6fe264a1fca7bfb8f937579f92a0572f",
      "scriptpubkey_type": "v1_p2tr",
      "scriptpubkey_address": "bc1pjc79xrg4z78fehm8ccj096m883h7ye9pljnmlw8exately4q2uhs9s0uca",
      "value": 182484
    },
    {
      "scriptpubkey": "0020e5c7c00d174631d2d1e365d6347b016fb87b6a0c08902d8e443989cb771fa7ec",
      "scriptpubkey_asm": "OP_0 OP_PUSHBYTES_32 e5c7c00d174631d2d1e365d6347b016fb87b6a0c08902d8e443989cb771fa7ec",
      "scriptpubkey_type": "v0_p2wsh",
      "scriptpubkey_address": "bc1quhruqrghgcca950rvhtrg7cpd7u8k6svpzgzmrjy8xyukacl5lkq0r8l2d",
      "value": 47131590
    }
  ],
  "size": 688,
  "weight": 2752,
  "fee": 47000,
  "status": {
    "confirmed": true,
    "block_height": 834464,
    "block_hash": "0000000000000000000177a0869a911a2b65c9bdcd5a8bcb02b68f305bee848e",
    "block_time": 1710308296
  },
  "hex": "010000000198a4eb8e191c6f51c261dfab9abc2bd155d22565acfb427cb1ca20f189043dae00000000fc0047304402202031b68c29e5eb61d351e40ac4b97e5af75e071400ef88ca792c66f1faa2af72022054e79c77c83d8f71165a1df1fac9dbdc578c4ea05ac79c5d8ed7580c1c54447a01473044022011f98f3fa23f77dd8bbff0529f422d1a8890478d01c599b826651bae944bfd6d022032801d853e8edffe8199efe1cc54ee789caa427bde7fd725e9f3b6be66781c9f014c69522102f872085d71ad02072adc30a5025fd3acea57c8d8f71bf010a4681a8897966c7621020d62af7456d0a63c5b12bc37c3c1dcb8c7e49b4cfc3c375efd56db148affd401210287b8de796b2b2f45cfb18eb4930d0c880e83b71bcf90e2105bbe76c394d1edf453aeffffffff0a3804020000000000160014f63d3a0e0f77da2cf7de0f14b3122923e678e8b80b4c0200000000001600148c7419726ab1ed7cdcd17311ef19c2cf2af95317357f0a000000000022512036fdf15226dae6bb154169b55bfa50a9a328c450c13f33da982b1aa402efe07fb2af6103000000001976a91437b1e9b2bd1fe856ff1d521e798e09adf0551fd188aca086010000000000225120a6cd798c72d61877bb909dadcb885b9eca18e1b2a4c95e1026b660f4bd69999f500f1e000000000022512069f372f0ee43e870f1910ef4316f939b8ffc95891757d389d3c7413280eb2e1ca086010000000000160014f86d4b821d248c2a9aa40d69b0094d8d8c28ce7c7a000e0000000000225120f47e6840914c5122127d1e46ab814eae2dfd3e4f0c0a056bd4cd74b9f139d69cd4c8020000000000225120963c530d15178e9cdf67c624f2eb673c6fe264a1fca7bfb8f937579f92a0572fc62bcf0200000000220020e5c7c00d174631d2d1e365d6347b016fb87b6a0c08902d8e443989cb771fa7ec00000000"
}