{
  "txid": "7a00d22ac3ec77adab6b50aa90951d2ba7f6416386e69ffcbdae0bb85416de0b",
  "version": 2,
  "locktime": 0,
  "vin": [
    {
      "txid": "e24d488f5d3c6ff6d7f169ba59a265c082d378248d77f3c263ae31c3ab76807e",
      "vout": 5,
      "prevout": {
        "scriptpubkey": "512085e9c83467bef134e2589712ed5c33c6b5269d66c733e35a9c175cc6e0249bd4",
        "scriptpubkey_asm": "OP_PUSHNUM_1 OP_PUSHBYTES_32 85e9c83467bef134e2589712ed5c33c6b5269d66c733e35a9c175cc6e0249bd4",
        "scriptpubkey_type": "v1_p2tr",
        "scriptpubkey_address": "bc1psh5usdr8hmcnfcjcjufw6hpnc66jd8txcue7xk5uzawvdcpyn02q0e93gy",
        "value": 546
      },
      "scriptsig": "",
      "scriptsig_asm": "",
      "witness": [
        "2d0b1b43a607d410737af3845c67a16520ab8683ae761d917606872cfa37bdc03383f83527724c3398acd377a4d516b37c8d783e0d403590bf9cf05909fab10b"
      ],
      "is_coinbase": false,
      "sequence": 4294967293
    },
    {
      "txid": "e24d488f5d3c6ff6d7f169ba59a265c082d378248d77f3c263ae31c3ab76807e",
      "vout": 8,
      "prevout": {
        "scriptpubkey": "512085e9c83467bef134e2589712ed5c33c6b5269d66c733e35a9c175cc6e0249bd4",
        "scriptpubkey_asm": "OP_PUSHNUM_1 OP_PUSHBYTES_32 85e9c83467bef134e2589712ed5c33c6b5269d66c733e35a9c175cc6e0249bd4",
        "scriptpubkey_type": "v1_p2tr",
        "scriptpubkey_address": "bc1psh5usdr8hmcnfcjcjufw6hpnc66jd8txcue7xk5uzawvdcpyn02q0e93gy",
        "value": 546
      },
      "scriptsig": "",
      "scriptsig_asm": "",
      "witness": [
        "b74cd0722183135ea22f159f20f6535d6eef436036fa6fb9cf9128d79bfcc6277afa1477293b4fa0721a8cd17b8c0de00dad46c0316cfbdbbb1391d056fb26a9"
      ],
      "is_coinbase": false,
      "sequence": 4294967293
    },
    {
      "txid": "e24d488f5d3c6ff6d7f169ba59a265c082d378248d77f3c263ae31c3ab76807e",
      "vout": 2,
      "prevout": {
        "scriptpubkey": "512085e9c83467bef134e2589712ed5c33c6b5269d66c733e35a9c175cc6e0249bd4",
        "scriptpubkey_asm": "OP_PUSHNUM_1 OP_PUSHBYTES_32 85e9c83467bef134e2589712ed5c33c6b5269d66c733e35a9c175cc6e0249bd4",
        "scriptpubkey_type": "v1_p2tr",
        "scriptpubkey_address": "bc1psh5usdr8hmcnfcjcjufw6hpnc66jd8txcue7xk5uzawvdcpyn02q0e93gy",
        "value": 546
      },
      "scriptsig": "",
      "scriptsig_asm": "",
      "witness": [
        "ffa69005fe764486b658bbf30da63de6b12e841cceef6b315528d84c9fd4ff33ebed2ac4aef898feafc1eafed1f31fdfa0ae7a6c230934a8d0e3697b57fbbade"
      ],
      "is_coinbase": false,
      "sequence": 4294967293
    },
    {
      "txid": "e24d488f5d3c6ff6d7f169ba59a265c082d378248d77f3c263ae31c3ab76807e",
      "vout": 9,
      "prevout": {
        "scriptpubkey": "512085e9c83467bef134e2589712ed5c33c6b5269d66c733e35a9c175cc6e0249bd4",
        "scriptpubkey_asm": "OP_PUSHNUM_1 OP_PUSHBYTES_32 85e9c83467bef134e2589712ed5c33c6b5269d66c733e35a9c175cc6e0249bd4",
        "scriptpubkey_type": "v1_p2tr",
        "scriptpubkey_address": "bc1psh5usdr8hmcnfcjcjufw6hpnc66jd8txcue7xk5uzawvdcpyn02q0e93gy",
        "value": 546
      },
      "scriptsig": "",
      "scriptsig_asm": "",
      "witness": [
        "d1cd0b94042d96a61a0f3c75006a15bf148ae71e73bc8cf4a4076aa2cd843adb4cfa8da1062bedba80a5fa22039c70eb15ccbb5ed91a2f52b7ccce98987c30f3"
      ],
      "is_coinbase": false,
      "sequence": 4294967293
    },
    {
      "txid": "e24d488f5d3c6ff6d7f169ba59a265c082d378248d77f3c263ae31c3ab76807e",
      "vout": 6,
      "prevout": {
        "scriptpubkey": "512085e9c83467bef134e2589712ed5c33c6b5269d66c733e35a9c175cc6e0249bd4",
        "scriptpubkey_asm": "OP_PUSHNUM_1 OP_PUSHBYTES_32 85e9c83467bef134e2589712ed5c33c6b5269d66c733e35a9c175cc6e0249bd4",
        "scriptpubkey_type": "v1_p2tr",
        "scriptpubkey_address": "bc1psh5usdr8hmcnfcjcjufw6hpnc66jd8txcue7xk5uzawvdcpyn02q0e93gy",
        "value": 546
      },
      "scriptsig": "",
      "scriptsig_asm": "",
      "witness": [
        "1556d31f32a12098448f1094503d3ea79b7348d702e80beb8ba2316e2fdc504ec92845cfa7e3d03110d048b68bb39e323302382c2c80f973690a1bf5494e5ed7"
      ],
      "is_coinbase": false,
      "sequence": 4294967293
    },
    {
      "txid": "e24d488f5d3c6ff6d7f169ba59a265c082d378248d77f3c263ae31c3ab76807e",
      "vout": 10,
      "prevout": {
        "scriptpubkey": "512085e9c83467bef134e2589712ed5c33c6b5269d66c733e35a9c175cc6e0249bd4",
        "scriptpubkey_asm": "OP_PUSHNUM_1 OP_PUSHBYTES_32 85e9c83467bef134e2589712ed5c33c6b5269d66c733e35a9c175cc6e0249bd4",
        "scriptpubkey_type": "v1_p2tr",
        "scriptpubkey_address": "bc1psh5usdr8hmcnfcjcjufw6hpnc66jd8txcue7xk5uzawvdcpyn02q0e93gy",
        "value": 546
      },
      "scriptsig": "",
      "scriptsig_asm": "",
      "witness": [
        "9814b68a304158d74fa8a5e6d70c12deb51588761486d97dbad6d9de9de9ebb4baf5d2b1ff90767e9ee29b7d76824afdfe8feab8ce0de886b4fa10059663c91b"
      ],
      "is_coinbase": false,
      "sequence": 4294967293
    },
    {
      "txid": "e24d488f5d3c6ff6d7f169ba59a265c082d378248d77f3c263ae31c3ab76807e",
      "vout": 7,
      "prevout": {
        "scriptpubkey": "512085e9c83467bef134e2589712ed5c33c6b5269d66c733e35a9c175cc6e0249bd4",
        "scriptpubkey_asm": "OP_PUSHNUM_1 OP_PUSHBYTES_32 85e9c83467bef134e2589712ed5c33c6b5269d66c733e35a9c175cc6e0249bd4",
        "scriptpubkey_type": "v1_p2tr",
        "scriptpubkey_address": "bc1psh5usdr8hmcnfcjcjufw6hpnc66jd8txcue7xk5uzawvdcpyn02q0e93gy",
        "value": 546
      },
      "scriptsig": "",
      "scriptsig_asm": "",
      "witness": [
        "77ace9a3166b7f57c34f32cc139897e7264f81350c0f0f6ef615154b98f1c2672aa14ab7955890d48e421167b5a81aa9dada5c05d59081ddcd8d19ffdabd7fac"
      ],
      "is_coinbase": false,
      "sequence": 4294967293
    },
    {
      "txid": "e24d488f5d3c6ff6d7f169ba59a265c082d378248d77f3c263ae31c3ab76807e",
      "vout": 4,
      "prevout": {
        "scriptpubkey": "512085e9c83467bef134e2589712ed5c33c6b5269d66c733e35a9c175cc6e0249bd4",
        "scriptpubkey_asm": "OP_PUSHNUM_1 OP_PUSHBYTES_32 85e9c83467bef134e2589712ed5c33c6b5269d66c733e35a9c175cc6e0249bd4",
        "scriptpubkey_type": "v1_p2tr",
        "scriptpubkey_address": "bc1psh5usdr8hmcnfcjcjufw6hpnc66jd8txcue7xk5uzawvdcpyn02q0e93gy",
        "value": 546
      },
      "scriptsig": "",
      "scriptsig_asm": "",
      "witness": [
        "6d18243b4ff41008c06c76e8f99c0059a8922ebdd84bfa6f0b0cd64fb2766fb9a6f6063491d100f71b7238f39910cd95b557dc4e66f2ccd02d03c1fb8792ef49"
      ],
      "is_coinbase": false,
      "sequence": 4294967293
    },
    {
      "txid": "e24d488f5d3c6ff6d7f169ba59a265c082d378248d77f3c263ae31c3ab76807e",
      "vout": 3,
      "prevout": {
        "scriptpubkey": "512085e9c83467bef134e2589712ed5c33c6b5269d66c733e35a9c175cc6e0249bd4",
        "scriptpubkey_asm": "OP_PUSHNUM_1 OP_PUSHBYTES_32 85e9c83467bef134e2589712ed5c33c6b5269d66c733e35a9c175cc6e0249bd4",
        "scriptpubkey_type": "v1_p2tr",
        "scriptpubkey_address": "bc1psh5usdr8hmcnfcjcjufw6hpnc66jd8txcue7xk5uzawvdcpyn02q0e93gy",
        "value": 546
      },
      "scriptsig": "",
      "scriptsig_asm": "",
      "witness": [
        "4b3ed3b619a11362e5ddfd40251bd657f2c11d6368548cddef3c78343a088e57a29da4b70f87e1714acc545b6258eb47888ec794dd6e96c53b7157511df12786"
      ],
      "is_coinbase": false,
      "sequence": 4294967293
    },
    {
      "txid": "e24d488f5d3c6ff6d7f169ba59a265c082d378248d77f3c263ae31c3ab76807e",
      "vout": 1,
      "prevout": {
        "scriptpubkey": "512085e9c83467bef134e2589712ed5c33c6b5269d66c733e35a9c175cc6e0249bd4",
        "scriptpubkey_asm": "OP_PUSHNUM_1 OP_PUSHBYTES_32 85e9c83467bef134e2589712ed5c33c6b5269d66c733e35a9c175cc6e0249bd4",
        "scriptpubkey_type": "v1_p2tr",
        "scriptpubkey_address": "bc1psh5usdr8hmcnfcjcjufw6hpnc66jd8txcue7xk5uzawvdcpyn02q0e93gy",
        "value": 546
      },
      "scriptsig": "",
      "scriptsig_asm": "",
      "witness": [
        "cc8cb6353bfc4913bce87280ea282f183218838bb1955eb294305da83f2e50e51da33e4721de332e477f3a3b245f5b71e91db129bc07fe27cd30bdc32a796bfe"
      ],
      "is_coinbase": false,
      "sequence": 4294967293
    },
    {
      "txid": "e24d488f5d3c6ff6d7f169ba59a265c082d378248d77f3c263ae31c3ab76807e",
      "vout": 32,
      "prevout": {
        "scriptpubkey": "512085e9c83467bef134e2589712ed5c33c6b5269d66c733e35a9c175cc6e0249bd4",
        "scriptpubkey_asm": "OP_PUSHNUM_1 OP_PUSHBYTES_32 85e9c83467bef134e2589712ed5c33c6b5269d66c733e35a9c175cc6e0249bd4",
        "scriptpubkey_type": "v1_p2tr",
        "scriptpubkey_address": "bc1psh5usdr8hmcnfcjcjufw6hpnc66jd8txcue7xk5uzawvdcpyn02q0e93gy",
        "value": 4353367
      },
      "scriptsig": "",
      "scriptsig_asm": "",
      "witness": [
        "19a8939d98448e7d6a87dfd08d208f97382554c989204255661bee99c6f4653f23ed98aab2ae6fd5066d157ff99ea722429c6e06b5bbde045846b861c9294b83"
      ],
      "is_coinbase": false,
      "sequence": 4294967293
    }
  ],
  "vout": [
    {
      "scriptpubkey": "00140ad1c96ff6c8bd9d7ab5261629204be3e0b8f95b",
      "scriptpubkey_asm": "OP_0 OP_PUSHBYTES_20 0ad1c96ff6c8bd9d7ab5261629204be3e0b8f95b",
      "scriptpubkey_type": "v0_p2wpkh",
      "scriptpubkey_address": "bc1qptgujmlkez7e6744yctzjgztu0st372mxs6702",
      "value": 546
    },
    {
      "scriptpubkey": "00140ad1c96ff6c8bd9d7ab5261629204be3e0b8f95b",
      "scriptpubkey_asm": "OP_0 OP_PUSHBYTES_20 0ad1c96ff6c8bd9d7ab5261629204be3e0b8f95b",
      "scriptpubkey_type": "v0_p2wpkh",
      "scriptpubkey_address": "bc1qptgujmlkez7e6744yctzjgztu0st372mxs6702",
      "value": 546
    },
    {
      "scriptpubkey": "00140ad1c96ff6c8bd9d7ab5261629204be3e0b8f95b",
      "scriptpubkey_asm": "OP_0 OP_PUSHBYTES_20 0ad1c96ff6c8bd9d7ab5261629204be3e0b8f95b",
      "scriptpubkey_type": "v0_p2wpkh",
      "scriptpubkey_address": "bc1qptgujmlkez7e6744yctzjgztu0st372mxs6702",
      "value": 546
    },
    {
      "scriptpubkey": "00140ad1c96ff6c8bd9d7ab5261629204be3e0b8f95b",
      "scriptpubkey_asm": "OP_0 OP_PUSHBYTES_20 0ad1c96ff6c8bd9d7ab5261629204be3e0b8f95b",
      "scriptpubkey_type": "v0_p2wpkh",
      "scriptpubkey_address": "bc1qptgujmlkez7e6744yctzjgztu0st372mxs6702",
      "value": 546
    },
    {
      "scriptpubkey": "00140ad1c96ff6c8bd9d7ab5261629204be3e0b8f95b",
      "scriptpubkey_asm": "OP_0 OP_PUSHBYTES_20 0ad1c96ff6c8bd9d7ab5261629204be3e0b8f95b",
      "scriptpubkey_type": "v0_p2wpkh",
      "scriptpubkey_address": "bc1qptgujmlkez7e6744yctzjgztu0st372mxs6702",
      "value": 546
    },
    {
      "scriptpubkey": "00140ad1c96ff6c8bd9d7ab5261629204be3e0b8f95b",
      "scriptpubkey_asm": "OP_0 OP_PUSHBYTES_20 0ad1c96ff6c8bd9d7ab5261629204be3e0b8f95b",
      "scriptpubkey_type": "v0_p2wpkh",
      "scriptpubkey_address": "bc1qptgujmlkez7e6744yctzjgztu0st372mxs6702",
      "value": 546
    },
    {
      "scriptpubkey": "00140ad1c96ff6c8bd9d7ab5261629204be3e0b8f95b",
      "scriptpubkey_asm": "OP_0 OP_PUSHBYTES_20 0ad1c96ff6c8bd9d7ab5261629204be3e0b8f95b",
      "scriptpubkey_type": "v0_p2wpkh",
      "scriptpubkey_address": "bc1qptgujmlkez7e6744yctzjgztu0st372mxs6702",
      "value": 546
    },
    {
      "scriptpubkey": "00140ad1c96ff6c8bd9d7ab5261629204be3e0b8f95b",
      "scriptpubkey_asm": "OP_0 OP_PUSHBYTES_20 0ad1c96ff6c8bd9d7ab5261629204be3e0b8f95b",
      "scriptpubkey_type": "v0_p2wpkh",
      "scriptpubkey_address": "bc1qptgujmlkez7e6744yctzjgztu0st372mxs6702",
      "value": 546
    },
    {
      "scriptpubkey": "00140ad1c96ff6c8bd9d7ab5261629204be3e0b8f95b",
      "scriptpubkey_asm": "OP_0 OP_PUSHBYTES_20 0ad1c96ff6c8bd9d7ab5261629204be3e0b8f95b",
      "scriptpubkey_type": "v0_p2wpkh",
      "scriptpubkey_address": "bc1qptgujmlkez7e6744yctzjgztu0st372mxs6702",
      "value": 546
    },
    {
      "scriptpubkey": "00140ad1c96ff6c8bd9d7ab5261629204be3e0b8f95b",
      "scriptpubkey_asm": "OP_0 OP_PUSHBYTES_20 0ad1c96ff6c8bd9d7ab5261629204be3e0b8f95b",
      "scriptpubkey_type": "v0_p2wpkh",
      "scriptpubkey_address": "bc1qptgujmlkez7e6744yctzjgztu0st372mxs6702",
      "value": 546
    },
    {
      "scriptpubkey": "0014fb7a185fc47428a9992c09f70c6add47a5c19223",
      "scriptpubkey_asm": "OP_0 OP_PUSHBYTES_20 fb7a185fc47428a9992c09f70c6add47a5c19223",
      "scriptpubkey_type": "v0_p2wpkh",
      "scriptpubkey_address": "bc1qldapsh7yws52nxfvp8msc6kag7jury3rxrw4dm",
      "value": 30000
    },
    {
      "scriptpubkey": "512085e9c83467bef134e2589712ed5c33c6b5269d66c733e35a9c175cc6e0249bd4",
      "scriptpubkey_asm": "OP_PUSHNUM_1 OP_PUSHBYTES_32 85e9c83467bef134e2589712ed5c33c6b5269d66c733e35a9c175cc6e0249bd4",
      "scriptpubkey_type": "v1_p2tr",
      "scriptpubkey_address": "bc1psh5usdr8hmcnfcjcjufw6hpnc66jd8txcue7xk5uzawvdcpyn02q0e93gy",
      "value": 4299677
    }
  ],
  "size": 1573,
  "weight": 4108,
  "fee": 23690,
  "status": {
    "confirmed": true,
    "block_height": 834638,
    "block_hash": "000000000000000000025f742c626208ac87e0b7d15054abb4a19ca2d735a54e",
    "block_time": 1710405325
  },
  "hex": "0200000000010b7e8076abc331ae63c2f3778d2478d382c065a259ba69f1d7f66f3c5d8f484de20500000000fdffffff7e8076abc331ae63c2f3778d2478d382c065a259ba69f1d7f66f3c5d8f484de20800000000fdffffff7e8076abc331ae63c2f3778d2478d382c065a259ba69f1d7f66f3c5d8f484de20200000000fdffffff7e8076abc331ae63c2f3778d2478d382c065a259ba69f1d7f66f3c5d8f484de20900000000fdffffff7e8076abc331ae63c2f3778d2478d382c065a259ba69f1d7f66f3c5d8f484de20600000000fdffffff7e8076abc331ae63c2f3778d2478d382c065a259ba69f1d7f66f3c5d8f484de20a00000000fdffffff7e8076abc331ae63c2f3778d2478d382c065a259ba69f1d7f66f3c5d8f484de20700000000fdffffff7e8076abc331ae63c2f3778d2478d382c065a259ba69f1d7f66f3c5d8f484de20400000000fdffffff7e8076abc331ae63c2f3778d2478d382c065a259ba69f1d7f66f3c5d8f484de20300000000fdffffff7e8076abc331ae63c2f3778d2478d382c065a259ba69f1d7f66f3c5d8f484de20100000000fdffffff7e8076abc331ae63c2f3778d2478d382c065a259ba69f1d7f66f3c5d8f484de22000000000fdffffff0c22020000000000001600140ad1c96ff6c8bd9d7ab5261629204be3e0b8f95b22020000000000001600140ad1c96ff6c8bd9d7ab5261629204be3e0b8f95b22020000000000001600140ad1c96ff6c8bd9d7ab5261629204be3e0b8f95b22020000000000001600140ad1c96ff6c8bd9d7ab5261629204be3e0b8f95b22020000000000001600140ad1c96ff6c8bd9d7ab5261629204be3e0b8f95b22020000000000001600140ad1c96ff6c8bd9d7ab5261629204be3e0b8f95b22020000000000001600140ad1c96ff6c8bd9d7ab5261629204be3e0b8f95b22020000000000001600140ad1c96ff6c8bd9d7ab5261629204be3e0b8f95b22020000000000001600140ad1c96ff6c8bd9d7ab5261629204be3e0b8f95b22020000000000001600140ad1c96ff6c8bd9d7ab5261629204be3e0b8f95b3075000000000000160014fb7a185fc47428a9992c09f70c6add47a5c192239d9b41000000000022512085e9c83467bef134e2589712ed5c33c6b5269d66c733e35a9c175cc6e0249bd401402d0b1b43a607d410737af3845c67a16520ab8683ae761d917606872cfa37bdc03383f83527724c3398acd377a4d516b37c8d783e0d403590bf9cf05909fab10b0140b74cd0722183135ea22f159f20f6535d6eef436036fa6fb9cf9128d79bfcc6277afa1477293b4fa0721a8cd17b8c0de00dad46c0316cfbdbbb1391d056fb26a90140ffa69005fe764486b658bbf30da63de6b12e841cceef6b315528d84c9fd4ff33ebed2ac4aef898feafc1eafed1f31fdfa0ae7a6c230934a8d0e3697b57fbbade0140d1cd0b94042d96a61a0f3c75006a15bf148ae71e73bc8cf4a4076aa2cd843adb4cfa8da1062bedba80a5fa22039c70eb15ccbb5ed91a2f52b7ccce98987c30f301401556d31f32a12098448f1094503d3ea79b7348d702e80beb8ba2316e2fdc504ec92845cfa7e3d03110d048b68bb39e323302382c2c80f973690a1bf5494e5ed701409814b68a304158d74fa8a5e6d70c12deb51588761486d97dbad6d9de9de9ebb4baf5d2b1ff90767e9ee29b7d76824afdfe8feab8ce0de886b4fa10059663c91b014077ace9a3166b7f57c34f32cc139897e7264f81350c0f0f6ef615154b98f1c2672aa14ab7955890d48e421167b5a81aa9dada5c05d59081ddcd8d19ffdabd7fac01406d18243b4ff41008c06c76e8f99c0059a8922ebdd84bfa6f0b0cd64fb2766fb9a6f6063491d100f71b7238f39910cd95b557dc4e66f2ccd02d03c1fb8792ef4901404b3ed3b619a11362e5ddfd40251bd657f2c11d6368548cddef3c78343a088e57a29da4b70f87e1714acc545b6258eb47888ec794dd6e96c53b7157511df127860140cc8cb6353bfc4913bce87280ea282f183218838bb1955eb294305da83f2e50e51da33e4721de332e477f3a3b245f5b71e91db129bc07fe27cd30bdc32a796bfe014019a8939d98448e7d6a87dfd08d208f97382554c989204255661bee99c6f4653f23ed98aab2ae6fd5066d157ff99ea722429c6e06b5bbde045846b861c9294b8300000000"
}