{
  "txid": "7a110c127b59d231154223725d537ee13e658ff7141ef113a0b223cc675de9d9",
  "version": 1,
  "locktime": 0,
  "vin": [
    {
      "txid": "13a1c4b3ab0f8a1bc86aaab865cb4ec3988ea32a5de24e98411e23b6bf6d0520",
      "vout": 0,
      "prevout": {
        "scriptpubkey": "0020de7db46e87915e387c174ff4b87288129c5e39b976d9bb76b8e41e55fd336a13",
        "scriptpubkey_asm": "OP_0 OP_PUSHBYTES_32 de7db46e87915e387c174ff4b87288129c5e39b976d9bb76b8e41e55fd336a13",
        "scriptpubkey_type": "v0_p2wsh",
        "scriptpubkey_address": "bc1qme7mgm58j90rslqhfl6tsu5gz2w9uwdewmvmka4cus09tlfndgfsdzs070",
        "value": 59688
      },
      "scriptsig": "",
      "scriptsig_asm": "",
      "witness": [
        "9d182f4ef83d623a3e06b6b49a10837390af4536ac3cb088d8e66f4ab5209c93",
        "30440220112784c7668dbf25da5092faf5fbd12479972c0dc84c85f8b4575a3312bd253202202f0851e17fd62864358e8e60690c95c8e2e43064006625677df20be67ff4824b01",
        "3045022100fb286e2e767d2ab296fa80f81f7bb99db13da046914670cef1e901e4f58ca7e40220211d65e9192e9aa8daccabb217cc17fffcecba946ea0d84e0c3b32ab65bce11f01",
        "21021614376a302b20623a47543202a28a5de4bfe4416124d88dd7e397d9d580aa24ac6476a914e94869f3063cb609d351a6ce8ef084c822eb775988ad03acb20cb1672102d4729fcc68088900a55c60e6b1b766dc759af4eaa83879f405653bae942b8f80ad82012088a914a68124887192d28b94f7426b139329a3d971ab6c8768"
      ],
      "is_coinbase": false,
      "sequence": 4294967295,
      "inner_witnessscript_asm": "OP_PUSHBYTES_33 021614376a302b20623a47543202a28a5de4bfe4416124d88dd7e397d9d580aa24 OP_CHECKSIG OP_NOTIF OP_DUP OP_HASH160 OP_PUSHBYTES_20 e94869f3063cb609d351a6ce8ef084c822eb7759 OP_EQUALVERIFY OP_CHECKSIGVERIFY OP_PUSHBYTES_3 acb20c OP_CLTV OP_ELSE OP_PUSHBYTES_33 02d4729fcc68088900a55c60e6b1b766dc759af4eaa83879f405653bae942b8f80 OP_CHECKSIGVERIFY OP_SIZE OP_PUSHBYTES_1 20 OP_EQUALVERIFY OP_HASH160 OP_PUSHBYTES_20 a68124887192d28b94f7426b139329a3d971ab6c OP_EQUAL OP_ENDIF"
    }
  ],
  "vout": [
    {
      "scriptpubkey": "51204fc2165ecb8af8a953771a5937631b41a5d325b8a5f4865b812a846eea71d797",
      "scriptpubkey_asm": "OP_PUSHNUM_1 OP_PUSHBYTES_32 4fc2165ecb8af8a953771a5937631b41a5d325b8a5f4865b812a846eea71d797",
      "scriptpubkey_type": "v1_p2tr",
      "scriptpubkey_address": "bc1pflppvhkt3tu2j5mhrfvnwccmgxjaxfdc5h6gvkup92zxa6n367tskyerq9",
      "value": 57800
    }
  ],
  "size": 406,
  "weight": 688,
  "fee": 1888,
  "status": {
    "confirmed": true,
    "block_height": 834464,
    "block_hash": "0000000000000000000177a0869a911a2b65c9bdcd5a8bcb02b68f305bee848e",
    "block_time": 1710308296
  },
  "hex": "0100000000010120056dbfb6231e41984ee25d2aa38e98c34ecb65b8aa6ac81b8a0fabb3c4a1130000000000ffffffff01c8e10000000000002251204fc2165ecb8af8a953771a5937631b41a5d325b8a5f4865b812a846eea71d79704209d182f4ef83d623a3e06b6b49a10837390af4536ac3cb088d8e66f4ab5209c934730440220112784c7668dbf25da5092faf5fbd12479972c0dc84c85f8b4575a3312bd253202202f0851e17fd62864358e8e60690c95c8e2e43064006625677df20be67ff4824b01483045022100fb286e2e767d2ab296fa80f81f7bb99db13da046914670cef1e901e4f58ca7e40220211d65e9192e9aa8daccabb217cc17fffcecba946ea0d84e0c3b32ab65bce11f018221021614376a302b20623a47543202a28a5de4bfe4416124d88dd7e397d9d580aa24ac6476a914e94869f3063cb609d351a6ce8ef084c822eb775988ad03acb20cb1672102d4729fcc68088900a55c60e6b1b766dc759af4eaa83879f405653bae942b8f80ad82012088a914a68124887192d28b94f7426b139329a3d971ab6c876800000000"
}