{
  "txid": "7a126647dc3d67f451311abbadc653150d192284744132903c0391cdf53fb775",
  "version": 2,
  "locktime": 0,
  "vin": [
    {
      "txid": "fa7536ee10bfeddb39476855fac5b9e095821bbb6f3c5936a857cb9c57fc428b",
      "vout": 25,
      "prevout": {
        "scriptpubkey": "0014fd74a2679f7655dc7f7dfb9eeeba028ef885b2fd",
        "scriptpubkey_asm": "OP_0 OP_PUSHBYTES_20 fd74a2679f7655dc7f7dfb9eeeba028ef885b2fd",
        "scriptpubkey_type": "v0_p2wpkh",
        "scriptpubkey_address": "bc1ql462yeulwe2aclmalw0wawsz3mugtvha2tdkqk",
        "value": 21541
      },
      "scriptsig": "",
      "scriptsig_asm": "",
      "witness": [
        "3044022060615569a1e38cbd6412d964221b4e6bf1509a2ef4520a25656ba7230e7a157702203673c4124d0727b2354d6effe32fc07127b13372ab87eb54e188c9dc1098b4d701",
        "0389048429095ea1ff866d942ab989f7f3c8a32ed843b19164781dcc3a3a7b1475"
      ],
      "is_coinbase": false,
      "sequence": 4294967293
    }
  ],
  "vout": [
    {
      "scriptpubkey": "0014421293c611e6f92ebe70daba1a3c3f0b3f6081a7",
      "scriptpubkey_asm": "OP_0 OP_PUSHBYTES_20 421293c611e6f92ebe70daba1a3c3f0b3f6081a7",
      "scriptpubkey_type": "v0_p2wpkh",
      "scriptpubkey_address": "bc1qggff83s3umuja0nsm2ap50plpvlkpqd84qncva",
      "value": 18045
    }
  ],
  "size": 191,
  "weight": 437,
  "fee": 3496,
  "status": {
    "confirmed": true,
    "block_height": 834638,
    "block_hash": "000000000000000000025f742c626208ac87e0b7d15054abb4a19ca2d735a54e",
    "block_time": 1710405325
  },
  "hex": "020000000001018b42fc579ccb57a836593c6fbb1b8295e0b9c5fa55684739dbedbf10ee3675fa1900000000fdffffff017d46000000000000160014421293c611e6f92ebe70daba1a3c3f0b3f6081a702473044022060615569a1e38cbd6412d964221b4e6bf1509a2ef4520a25656ba7230e7a157702203673c4124d0727b2354d6effe32fc07127b13372ab87eb54e188c9dc1098b4d701210389048429095ea1ff866d942ab989f7f3c8a32ed843b19164781dcc3a3a7b147500000000"
}