{
  "txid": "7a1fa95f60851a09b081fcbed6098be7e4f1cafed3474c835d9d44884172d835",
  "version": 1,
  "locktime": 0,
  "vin": [
    {
      "txid": "8d039f6c2b460b563f7141026d0cc129bb8acb14833ba71eef643fb1d3d20b42",
      "vout": 0,
      "prevout": {
        "scriptpubkey": "51208281cbda8aad5f4d30c35e13809ae1d7614587eefabdc184a7ca22030d4d2cc3",
        "scriptpubkey_asm": "OP_PUSHNUM_1 OP_PUSHBYTES_32 8281cbda8aad5f4d30c35e13809ae1d7614587eefabdc184a7ca22030d4d2cc3",
        "scriptpubkey_type": "v1_p2tr",
        "scriptpubkey_address": "bc1ps2quhk5244056vxrtcfcpxhp6as5tplwl27urp98eg3qxr2d9npsvef8f4",
        "value": 766800
      },
      "scriptsig": "",
      "scriptsig_asm": "",
      "witness": [
        "23b95626c65ab9078c7eb7aef4abf580ed1b05946b30cc488acd68ab20f0ce6a6179d4fd7c9eeae31a5bc0bc66d7a8b64d89148fc5a5f94456d511e66e85c3dc01"
      ],
      "is_coinbase": false,
      "sequence": 4294967295
    },
    {
      "txid": "1f67c96fa25704711ebcdf3cfe323abfb74581be18ff4ea073fbe77386798649",
      "vout": 0,
      "prevout": {
        "scriptpubkey": "51209ec24570956dab8731a462d0584d2a38781333eaba8cfbe5a6a959d50bb0bcd8",
        "scriptpubkey_asm": "OP_PUSHNUM_1 OP_PUSHBYTES_32 9ec24570956dab8731a462d0584d2a38781333eaba8cfbe5a6a959d50bb0bcd8",
        "scriptpubkey_type": "v1_p2tr",
        "scriptpubkey_address": "bc1pnmpy2uy4dk4cwvdyvtg9snf28pupxvl2h2x0hedx49va2zashnvqp0dfx7",
        "value": 420000
      },
      "scriptsig": "",
      "scriptsig_asm": "",
      "witness": [
        "2426944cfff4fe921640485e0b85a16d0cb4eeafca10991e2a2672c1861ffdb684932b7f12f337a1c3d7d162e47457d55d88ae4f07039869973c3c837264f8b301"
      ],
      "is_coinbase": false,
      "sequence": 4294967295
    },
    {
      "txid": "610c84e615697bb8c3725fb88fd9f800ce5b3b41bd3868ffc9400c3e3eeecc4c",
      "vout": 0,
      "prevout": {
        "scriptpubkey": "5120e4a2741392dcd049b4917fed6d259caac4059ba2a46152af23afef1df5c81d77",
        "scriptpubkey_asm": "OP_PUSHNUM_1 OP_PUSHBYTES_32 e4a2741392dcd049b4917fed6d259caac4059ba2a46152af23afef1df5c81d77",
        "scriptpubkey_type": "v1_p2tr",
        "scriptpubkey_address": "bc1puj38gyujmngyndy30lkk6fvu4tzqtxaz53s49ter4lh3mawgr4ms6an5jf",
        "value": 297596
      },
      "scriptsig": "",
      "scriptsig_asm": "",
      "witness": [
        "9c885aafca523c31bdd9fd22647279b37fdf68f34d06ddd3bb561ca6ae1667cbe25452bab928572c451ad2e294616f9a28fa843cf89436a167dc69a209a2605101"
      ],
      "is_coinbase": false,
      "sequence": 4294967295
    },
    {
      "txid": "8206bb6853a506d9c7d5d1b306ae3d38498d74aa38ee7ebaf6aa3fc839c4117c",
      "vout": 0,
      "prevout": {
        "scriptpubkey": "512031f12a366fe592609a8f98042bfb5cbe6ef17b837159c0f88d70280a5d67912f",
        "scriptpubkey_asm": "OP_PUSHNUM_1 OP_PUSHBYTES_32 31f12a366fe592609a8f98042bfb5cbe6ef17b837159c0f88d70280a5d67912f",
        "scriptpubkey_type": "v1_p2tr",
        "scriptpubkey_address": "bc1px8cj5dn0ukfxpx50nqzzh76uheh0z7urw9vup7ydwq5q5ht8jyhs7h6zca",
        "value": 295288
      },
      "scriptsig": "",
      "scriptsig_asm": "",
      "witness": [
        "4afa0e076688b7f7366a5ab6ca29519b607997d46e3ee87a585495b6f6a3566d4b3d2fe0eb6dc12bb196d2b3b85ef4cddce40b2832a304715c0a1a7af4ab95f101"
      ],
      "is_coinbase": false,
      "sequence": 4294967295
    },
    {
      "txid": "539226038104aaaa0c99109fe70bef380d53ecd70922134e465f90b869a2e30c",
      "vout": 0,
      "prevout": {
        "scriptpubkey": "5120a5f2ef351032faf2545ffd6e772aec1051c45c3f9d6d373f5eac8cde8ef8865c",
        "scriptpubkey_asm": "OP_PUSHNUM_1 OP_PUSHBYTES_32 a5f2ef351032faf2545ffd6e772aec1051c45c3f9d6d373f5eac8cde8ef8865c",
        "scriptpubkey_type": "v1_p2tr",
        "scriptpubkey_address": "bc1p5hew7dgsxta0y4zll4h8w2hvzpgughpln4knw0674jxdarhcsewq2vl2me",
        "value": 164000
      },
      "scriptsig": "",
      "scriptsig_asm": "",
      "witness": [
        "05ce7c169f9a92d26062ea59247921efec31b3a6c9fa486b01c9a4edbc65d4b86a885fb073584d7b072cc756737edd7ea0299ee1b37689a36597e8d5a887083201"
      ],
      "is_coinbase": false,
      "sequence": 4294967295
    },
    {
      "txid": "62e620a4f54c77564e04301d6430cd73b40408aaa12f4627205cc7d71c5b06b5",
      "vout": 0,
      "prevout": {
        "scriptpubkey": "512090b062ffc13b3af1c6a089a007e1ae971d2fc4686b3f6049b360172fe9d16856",
        "scriptpubkey_asm": "OP_PUSHNUM_1 OP_PUSHBYTES_32 90b062ffc13b3af1c6a089a007e1ae971d2fc4686b3f6049b360172fe9d16856",
        "scriptpubkey_type": "v1_p2tr",
        "scriptpubkey_address": "bc1pjzcx9l7p8va0r34q3xsq0cdwjuwjl3rgdvlkqjdnvqtjl6w3dptq0wy644",
        "value": 96800
      },
      "scriptsig": "",
      "scriptsig_asm": "",
      "witness": [
        "4756e5d10cb16de34a044229bec031d60d2ea3f3fe13328bb44dd3528a190487cead3182b4a2bc3f7ef1cba3bf557c3a6b993ca476f13f13004b6c69c99fba7001"
      ],
      "is_coinbase": false,
      "sequence": 4294967295
    },
    {
      "txid": "3fcf13c147a2b9a1c718f67fdd375f77f6847c11ad9ad32335f839bc250d724f",
      "vout": 0,
      "prevout": {
        "scriptpubkey": "512077c8cc93fe5df47b321e3c60a0fa2650509e583a27f892881d373d0c72a6584f",
        "scriptpubkey_asm": "OP_PUSHNUM_1 OP_PUSHBYTES_32 77c8cc93fe5df47b321e3c60a0fa2650509e583a27f892881d373d0c72a6584f",
        "scriptpubkey_type": "v1_p2tr",
        "scriptpubkey_address": "bc1pwlyveyl7th68kvs783s2p73x2pgfukp6yluf9zqaxu7scu4xtp8s7w2lpe",
        "value": 5000
      },
      "scriptsig": "",
      "scriptsig_asm": "",
      "witness": [
        "621dd718e46de8a069f44843c88eaa599103463d41119ac9991fb52f53bd0c19534599bfa3032d366b702d11c8c3504a68199cf7a9af0170bb6da9db4017041001"
      ],
      "is_coinbase": false,
      "sequence": 4294967295
    },
    {
      "txid": "9795f6c30df6253d03e7e2f24070ff4fbafdb4549982226f58d73dea510d524f",
      "vout": 0,
      "prevout": {
        "scriptpubkey": "512092946b381f4d512f3323fc30174f0254bf01c1d3fa420c8151a1e45f6537ef03",
        "scriptpubkey_asm": "OP_PUSHNUM_1 OP_PUSHBYTES_32 92946b381f4d512f3323fc30174f0254bf01c1d3fa420c8151a1e45f6537ef03",
        "scriptpubkey_type": "v1_p2tr",
        "scriptpubkey_address": "bc1pj22xkwqlf4gj7verlscpwncz2jlsrswnlfpqeq2358j97efhaupsdz229n",
        "value": 1488000
      },
      "scriptsig": "",
      "scriptsig_asm": "",
      "witness": [
        "e541c1ef7dcc3e8d0661781eebd8202eb0bb034b32075d8b14bd7385f5d6d7356657e1e73be6dcfd58f4025bb46040a0e7242ff9e553f894204d4173d81251fd01"
      ],
      "is_coinbase": false,
      "sequence": 4294967295
    }
  ],
  "vout": [
    {
      "scriptpubkey": "5120c32753123e6dbcbca9b8819c616653315f84a06db687e46721da9590eafccaf3",
      "scriptpubkey_asm": "OP_PUSHNUM_1 OP_PUSHBYTES_32 c32753123e6dbcbca9b8819c616653315f84a06db687e46721da9590eafccaf3",
      "scriptpubkey_type": "v1_p2tr",
      "scriptpubkey_address": "bc1pcvn4xy37dk7te2dcsxwxzejnx90cfgrdk6r7geepm22ep6huetesnhwfgp",
      "value": 1285359
    },
    {
      "scriptpubkey": "5120762586c79b28cb1cd39c7f18c6f62f1770b033a43d9b27f7a032d38742573f22",
      "scriptpubkey_asm": "OP_PUSHNUM_1 OP_PUSHBYTES_32 762586c79b28cb1cd39c7f18c6f62f1770b033a43d9b27f7a032d38742573f22",
      "scriptpubkey_type": "v1_p2tr",
      "scriptpubkey_address": "bc1pwcjcd3um9r93e5uu0uvvda30zactqvay8kdj0aaqxtfcwsjh8u3qgyenvx",
      "value": 2242000
    }
  ],
  "size": 962,
  "weight": 2234,
  "fee": 6125,
  "status": {
    "confirmed": true,
    "block_height": 834464,
    "block_hash": "0000000000000000000177a0869a911a2b65c9bdcd5a8bcb02b68f305bee848e",
    "block_time": 1710308296
  },
  "hex": "01000000000108420bd2d3b13f64ef1ea73b8314cb8abb29c10c6d0241713f560b462b6c9f038d0000000000ffffffff4986798673e7fb73a04eff18be8145b7bf3a32fe3cdfbc1e710457a26fc9671f0000000000ffffffff4cccee3e3e0c40c9ff6838bd413b5bce00f8d98fb85f72c3b87b6915e6840c610000000000ffffffff7c11c439c83faaf6ba7eee38aa748d49383dae06b3d1d5c7d906a55368bb06820000000000ffffffff0ce3a269b8905f464e132209d7ec530d38ef0be79f10990caaaa0481032692530000000000ffffffffb5065b1cd7c75c2027462fa1aa0804b473cd30641d30044e56774cf5a420e6620000000000ffffffff4f720d25bc39f83523d39aad117c84f6775f37dd7ff618c7a1b9a247c113cf3f0000000000ffffffff4f520d51ea3dd7586f22829954b4fdba4fff7040f2e2e7033d25f60dc3f695970000000000ffffffff02ef9c130000000000225120c32753123e6dbcbca9b8819c616653315f84a06db687e46721da9590eafccaf3d035220000000000225120762586c79b28cb1cd39c7f18c6f62f1770b033a43d9b27f7a032d38742573f22014123b95626c65ab9078c7eb7aef4abf580ed1b05946b30cc488acd68ab20f0ce6a6179d4fd7c9eeae31a5bc0bc66d7a8b64d89148fc5a5f94456d511e66e85c3dc0101412426944cfff4fe921640485e0b85a16d0cb4eeafca10991e2a2672c1861ffdb684932b7f12f337a1c3d7d162e47457d55d88ae4f07039869973c3c837264f8b30101419c885aafca523c31bdd9fd22647279b37fdf68f34d06ddd3bb561ca6ae1667cbe25452bab928572c451ad2e294616f9a28fa843cf89436a167dc69a209a260510101414afa0e076688b7f7366a5ab6ca29519b607997d46e3ee87a585495b6f6a3566d4b3d2fe0eb6dc12bb196d2b3b85ef4cddce40b2832a304715c0a1a7af4ab95f101014105ce7c169f9a92d26062ea59247921efec31b3a6c9fa486b01c9a4edbc65d4b86a885fb073584d7b072cc756737edd7ea0299ee1b37689a36597e8d5a88708320101414756e5d10cb16de34a044229bec031d60d2ea3f3fe13328bb44dd3528a190487cead3182b4a2bc3f7ef1cba3bf557c3a6b993ca476f13f13004b6c69c99fba70010141621dd718e46de8a069f44843c88eaa599103463d41119ac9991fb52f53bd0c19534599bfa3032d366b702d11c8c3504a68199cf7a9af0170bb6da9db40170410010141e541c1ef7dcc3e8d0661781eebd8202eb0bb034b32075d8b14bd7385f5d6d7356657e1e73be6dcfd58f4025bb46040a0e7242ff9e553f894204d4173d81251fd0100000000"
}