{
  "txid": "7a22eb14427e9ea2e1bd93f49084f9895781f066c387de1495feb2844a4287cc",
  "version": 2,
  "locktime": 0,
  "vin": [
    {
      "txid": "3f69fae8ca9bdd774ca5294e86509449f431bb44e2206cae9f7f495b7952d9e2",
      "vout": 6,
      "prevout": {
        "scriptpubkey": "5120b08ec4ff24005b3182e1ed7cc8bdacc7f11c49581933b596feac405793767585",
        "scriptpubkey_asm": "OP_PUSHNUM_1 OP_PUSHBYTES_32 b08ec4ff24005b3182e1ed7cc8bdacc7f11c49581933b596feac405793767585",
        "scriptpubkey_type": "v1_p2tr",
        "scriptpubkey_address": "bc1pkz8vfleyqpdnrqhpa47v30dvclc3cj2cryemt9h743q90ymkwkzsmt9p45",
        "value": 2996
      },
      "scriptsig": "",
      "scriptsig_asm": "",
      "witness": [
        "6c5e08dc3c4c098b0beee93974845f95cc6ed6b1e334121293ff1a6e97fe577a5bf0dd1760e3f34531d928deb99370b9e90e8b285a142181164a7174fb96fc6c",
        "2017379531cbf39b79d44c6c2c9918a0c0e306139eec529147e11dc86e832a2e9cac0063036f726401011e6170706c69636174696f6e2f6a736f6e3b636861727365743d7574662d38004cb77b2270223a22706f772d3230222c226f70223a226d696e74222c227469636b223a2250455045222c22616d74223a2231303030222c22736f6c7574696f6e223a22504550453a334d524d3246744a42504c46315958564766504d33656556746675364446734762623a303030303030303030303030303030303030303139393431613561653132383937363539383134343239323533333030353762306461393666336465613163353a3431313838303336313631227d68",
        "c16b70a06f37e9fa1ff7e7bec8bd1210228b25051d0c17b5264cdd8c73b544f454"
      ],
      "is_coinbase": false,
      "sequence": 4294967295
    }
  ],
  "vout": [
    {
      "scriptpubkey": "a914d86bcd8c487ad519e95c6557e7463d579cce14a287",
      "scriptpubkey_asm": "OP_HASH160 OP_PUSHBYTES_20 d86bcd8c487ad519e95c6557e7463d579cce14a2 OP_EQUAL",
      "scriptpubkey_type": "p2sh",
      "scriptpubkey_address": "3MRM2FtJBPLF1YXVGfPM3eeVtfu6DFsGbb",
      "value": 546
    }
  ],
  "size": 448,
  "weight": 697,
  "fee": 2450,
  "status": {
    "confirmed": true,
    "block_height": 834460,
    "block_hash": "00000000000000000000484a79b643b2524bbce82e5d8a442013fa5b8905ed98",
    "block_time": 1710307468
  },
  "hex": "02000000000101e2d952795b497f9fae6c20e244bb31f4499450864e29a54c77dd9bcae8fa693f0600000000ffffffff01220200000000000017a914d86bcd8c487ad519e95c6557e7463d579cce14a28703406c5e08dc3c4c098b0beee93974845f95cc6ed6b1e334121293ff1a6e97fe577a5bf0dd1760e3f34531d928deb99370b9e90e8b285a142181164a7174fb96fc6cfd04012017379531cbf39b79d44c6c2c9918a0c0e306139eec529147e11dc86e832a2e9cac0063036f726401011e6170706c69636174696f6e2f6a736f6e3b636861727365743d7574662d38004cb77b2270223a22706f772d3230222c226f70223a226d696e74222c227469636b223a2250455045222c22616d74223a2231303030222c22736f6c7574696f6e223a22504550453a334d524d3246744a42504c46315958564766504d33656556746675364446734762623a303030303030303030303030303030303030303139393431613561653132383937363539383134343239323533333030353762306461393666336465613163353a3431313838303336313631227d6821c16b70a06f37e9fa1ff7e7bec8bd1210228b25051d0c17b5264cdd8c73b544f45400000000"
}