{
  "txid": "7a23806a80c95a7b346dbef40b9426409b2ccc7b6ef300cd2e21fb2681b136b8",
  "version": 2,
  "locktime": 0,
  "vin": [
    {
      "txid": "c1663fc47afde7bbb1d83e6bc0a45340fdc5a9ebdec523fef4b51e392ed21f58",
      "vout": 12,
      "prevout": {
        "scriptpubkey": "512009be5d2542f3c2cc56cc04b1db3b9c08dae375faa3a9cb6bc61f745d3fa5d2e2",
        "scriptpubkey_asm": "OP_PUSHNUM_1 OP_PUSHBYTES_32 09be5d2542f3c2cc56cc04b1db3b9c08dae375faa3a9cb6bc61f745d3fa5d2e2",
        "scriptpubkey_type": "v1_p2tr",
        "scriptpubkey_address": "bc1ppxl96f2z70pvc4kvqjcakwuuprdwxa065w5uk67xra6960a96t3qejzmm7",
        "value": 2207
      },
      "scriptsig": "",
      "scriptsig_asm": "",
      "witness": [
        "04d1a34c1356b91b975c02043517a89bc2fb5991803c35b5b5a71b18d67183997446adce42b35a5654c40800584c158157bf1adcd5d3d3ea85a4ddb863518c1a",
        "2005938bed255e4bb5f61e1f16db16410206a78447ee2aa3acd802a1ba8683aa61ac0063036f7264010118746578742f706c61696e3b636861727365743d7574662d3800357b2270223a226272632d3230222c226f70223a226d696e74222c227469636b223a22646f6765222c22616d74223a2234323030227d68",
        "c179e7bed0f3caf3813f5bc798799f48026ddc2f656deda6db0c9486dd4ef951ea"
      ],
      "is_coinbase": false,
      "sequence": 4294967295
    }
  ],
  "vout": [
    {
      "scriptpubkey": "5120d5104f8c67a3c8dcf41733f38c1be1855ad29ee4847592a882747f48f31e49bd",
      "scriptpubkey_asm": "OP_PUSHNUM_1 OP_PUSHBYTES_32 d5104f8c67a3c8dcf41733f38c1be1855ad29ee4847592a882747f48f31e49bd",
      "scriptpubkey_type": "v1_p2tr",
      "scriptpubkey_address": "bc1p65gylrr850ydeaqhx0eccxlps4dd98hys36e92yzw3l53uc7fx7spxq2f0",
      "value": 546
    }
  ],
  "size": 320,
  "weight": 602,
  "fee": 1661,
  "status": {
    "confirmed": true,
    "block_height": 834464,
    "block_hash": "0000000000000000000177a0869a911a2b65c9bdcd5a8bcb02b68f305bee848e",
    "block_time": 1710308296
  },
  "hex": "02000000000101581fd22e391eb5f4fe23c5deeba9c5fd4053a4c06b3ed8b1bbe7fd7ac43f66c10c00000000ffffffff012202000000000000225120d5104f8c67a3c8dcf41733f38c1be1855ad29ee4847592a882747f48f31e49bd034004d1a34c1356b91b975c02043517a89bc2fb5991803c35b5b5a71b18d67183997446adce42b35a5654c40800584c158157bf1adcd5d3d3ea85a4ddb863518c1a7b2005938bed255e4bb5f61e1f16db16410206a78447ee2aa3acd802a1ba8683aa61ac0063036f7264010118746578742f706c61696e3b636861727365743d7574662d3800357b2270223a226272632d3230222c226f70223a226d696e74222c227469636b223a22646f6765222c22616d74223a2234323030227d6821c179e7bed0f3caf3813f5bc798799f48026ddc2f656deda6db0c9486dd4ef951ea00000000"
}