{
  "txid": "7a2bc34ab22ef5cb8cc31970974456d4474e29708a761448cc36a7223e97fa79",
  "version": 2,
  "locktime": 0,
  "vin": [
    {
      "txid": "ebb1293804caaea1efa27015c227a95822d7519986c6a884fb7d6f1672a03f5e",
      "vout": 4,
      "prevout": {
        "scriptpubkey": "001465bb77652fe2264a198ae451ced7fb5de5718c3d",
        "scriptpubkey_asm": "OP_0 OP_PUSHBYTES_20 65bb77652fe2264a198ae451ced7fb5de5718c3d",
        "scriptpubkey_type": "v0_p2wpkh",
        "scriptpubkey_address": "bc1qvkahwef0ugny5xv2u3gua4lmthjhrrpavg05zn",
        "value": 300
      },
      "scriptsig": "",
      "scriptsig_asm": "",
      "witness": [
        "304402207ce60012bfbb87eecfe1d70fd9ef494f28e4c5371fa81f0793bfee2c90f117b102201f4e3626e4b00a4d2278f33f1a59d842c8e09e23682024f588fad7e0e096ce2d01",
        "033832152ddbd1592e851988493d3ac54a24533a0cb72d7ebb87cb87e545fd2bae"
      ],
      "is_coinbase": false,
      "sequence": 4294967295
    },
    {
      "txid": "ebb1293804caaea1efa27015c227a95822d7519986c6a884fb7d6f1672a03f5e",
      "vout": 5,
      "prevout": {
        "scriptpubkey": "001465bb77652fe2264a198ae451ced7fb5de5718c3d",
        "scriptpubkey_asm": "OP_0 OP_PUSHBYTES_20 65bb77652fe2264a198ae451ced7fb5de5718c3d",
        "scriptpubkey_type": "v0_p2wpkh",
        "scriptpubkey_address": "bc1qvkahwef0ugny5xv2u3gua4lmthjhrrpavg05zn",
        "value": 300
      },
      "scriptsig": "",
      "scriptsig_asm": "",
      "witness": [
        "3045022100cbb2e88ba30d3359900fcd55ff46d24f0a8d5f5f5debdc4320aa08accc59a2ec02207908b258807881aa34cbdcbeeacc9521580ce272a9a010c379aacb9b6f77e31101",
        "033832152ddbd1592e851988493d3ac54a24533a0cb72d7ebb87cb87e545fd2bae"
      ],
      "is_coinbase": false,
      "sequence": 4294967295
    },
    {
      "txid": "b9b0f13d64d073a976083695606a6d77e07e89349ca49b45b0921749d81dd586",
      "vout": 0,
      "prevout": {
        "scriptpubkey": "51208d20c1883d881d6fcb1e80388fe9aa1c08af5b0bca3405fc98fcaf5104740fcb",
        "scriptpubkey_asm": "OP_PUSHNUM_1 OP_PUSHBYTES_32 8d20c1883d881d6fcb1e80388fe9aa1c08af5b0bca3405fc98fcaf5104740fcb",
        "scriptpubkey_type": "v1_p2tr",
        "scriptpubkey_address": "bc1p35svrzpa3qwkljc7squgl6d2rsy27kcteg6qtlycljh4zpr5pl9saehnpf",
        "value": 330
      },
      "scriptsig": "",
      "scriptsig_asm": "",
      "witness": [
        "6e1b8cc5b87f32e47ad08491aece79d22cc7394fe753a9ff11fc29acf9c547a63222496bd26fa85beb49b4c03cce7013cf9ba55fb055f1ad1b865ec64ea35fae83"
      ],
      "is_coinbase": false,
      "sequence": 4294967295
    },
    {
      "txid": "21123f563a9c8a28916565cc4f09d15e60d3fc26e3b29efedf2494a9b10a6149",
      "vout": 4,
      "prevout": {
        "scriptpubkey": "51205f9284ffafeb86e4a03dea1a209f4b45a68792131bceac3ec8df6356f08ada46",
        "scriptpubkey_asm": "OP_PUSHNUM_1 OP_PUSHBYTES_32 5f9284ffafeb86e4a03dea1a209f4b45a68792131bceac3ec8df6356f08ada46",
        "scriptpubkey_type": "v1_p2tr",
        "scriptpubkey_address": "bc1pt7fgfla0awrwfgpaagdzp86tgkng0ysnr082c0kgma34duy2mfrqcrf9qd",
        "value": 47382677
      },
      "scriptsig": "",
      "scriptsig_asm": "",
      "witness": [
        "38abb997bc4e3ee33c13491134a65d25d83620f4b59b4d61d53b2132e04d6bca58a54f59ed4227e543bdca2976e3145c12d8a46e853d9925b8eee2f105d6b26c"
      ],
      "is_coinbase": false,
      "sequence": 4294967295
    },
    {
      "txid": "ebb1293804caaea1efa27015c227a95822d7519986c6a884fb7d6f1672a03f5e",
      "vout": 0,
      "prevout": {
        "scriptpubkey": "001465bb77652fe2264a198ae451ced7fb5de5718c3d",
        "scriptpubkey_asm": "OP_0 OP_PUSHBYTES_20 65bb77652fe2264a198ae451ced7fb5de5718c3d",
        "scriptpubkey_type": "v0_p2wpkh",
        "scriptpubkey_address": "bc1qvkahwef0ugny5xv2u3gua4lmthjhrrpavg05zn",
        "value": 600
      },
      "scriptsig": "",
      "scriptsig_asm": "",
      "witness": [
        "3045022100f689db3eab446398a6eb96a15745b79446014617445ad1fdc7a28315ba6624aa022011d6bca9bd215d0f47ca36557e2db99c258d36e4afe49b9b1cdd4fdec2feb2d701",
        "033832152ddbd1592e851988493d3ac54a24533a0cb72d7ebb87cb87e545fd2bae"
      ],
      "is_coinbase": false,
      "sequence": 4294967295
    }
  ],
  "vout": [
    {
      "scriptpubkey": "001465bb77652fe2264a198ae451ced7fb5de5718c3d",
      "scriptpubkey_asm": "OP_0 OP_PUSHBYTES_20 65bb77652fe2264a198ae451ced7fb5de5718c3d",
      "scriptpubkey_type": "v0_p2wpkh",
      "scriptpubkey_address": "bc1qvkahwef0ugny5xv2u3gua4lmthjhrrpavg05zn",
      "value": 600
    },
    {
      "scriptpubkey": "51205f9284ffafeb86e4a03dea1a209f4b45a68792131bceac3ec8df6356f08ada46",
      "scriptpubkey_asm": "OP_PUSHNUM_1 OP_PUSHBYTES_32 5f9284ffafeb86e4a03dea1a209f4b45a68792131bceac3ec8df6356f08ada46",
      "scriptpubkey_type": "v1_p2tr",
      "scriptpubkey_address": "bc1pt7fgfla0awrwfgpaagdzp86tgkng0ysnr082c0kgma34duy2mfrqcrf9qd",
      "value": 330
    },
    {
      "scriptpubkey": "51208d20c1883d881d6fcb1e80388fe9aa1c08af5b0bca3405fc98fcaf5104740fcb",
      "scriptpubkey_asm": "OP_PUSHNUM_1 OP_PUSHBYTES_32 8d20c1883d881d6fcb1e80388fe9aa1c08af5b0bca3405fc98fcaf5104740fcb",
      "scriptpubkey_type": "v1_p2tr",
      "scriptpubkey_address": "bc1p35svrzpa3qwkljc7squgl6d2rsy27kcteg6qtlycljh4zpr5pl9saehnpf",
      "value": 11980000
    },
    {
      "scriptpubkey": "00144e24da63efbedd93a28de928e54ebc01d9f73fe9",
      "scriptpubkey_asm": "OP_0 OP_PUSHBYTES_20 4e24da63efbedd93a28de928e54ebc01d9f73fe9",
      "scriptpubkey_type": "v0_p2wpkh",
      "scriptpubkey_address": "bc1qfcjd5cl0hmwe8g5day5w2n4uq8vlw0lf8zknye",
      "value": 59900
    },
    {
      "scriptpubkey": "51205f9284ffafeb86e4a03dea1a209f4b45a68792131bceac3ec8df6356f08ada46",
      "scriptpubkey_asm": "OP_PUSHNUM_1 OP_PUSHBYTES_32 5f9284ffafeb86e4a03dea1a209f4b45a68792131bceac3ec8df6356f08ada46",
      "scriptpubkey_type": "v1_p2tr",
      "scriptpubkey_address": "bc1pt7fgfla0awrwfgpaagdzp86tgkng0ysnr082c0kgma34duy2mfrqcrf9qd",
      "value": 35334032
    },
    {
      "scriptpubkey": "001465bb77652fe2264a198ae451ced7fb5de5718c3d",
      "scriptpubkey_asm": "OP_0 OP_PUSHBYTES_20 65bb77652fe2264a198ae451ced7fb5de5718c3d",
      "scriptpubkey_type": "v0_p2wpkh",
      "scriptpubkey_address": "bc1qvkahwef0ugny5xv2u3gua4lmthjhrrpavg05zn",
      "value": 300
    },
    {
      "scriptpubkey": "001465bb77652fe2264a198ae451ced7fb5de5718c3d",
      "scriptpubkey_asm": "OP_0 OP_PUSHBYTES_20 65bb77652fe2264a198ae451ced7fb5de5718c3d",
      "scriptpubkey_type": "v0_p2wpkh",
      "scriptpubkey_address": "bc1qvkahwef0ugny5xv2u3gua4lmthjhrrpavg05zn",
      "value": 300
    }
  ],
  "size": 926,
  "weight": 2330,
  "fee": 8745,
  "status": {
    "confirmed": true,
    "block_height": 834638,
    "block_hash": "000000000000000000025f742c626208ac87e0b7d15054abb4a19ca2d735a54e",
    "block_time": 1710405325
  },
  "hex": "020000000001055e3fa072166f7dfb84a8c6869951d72258a927c21570a2efa1aeca043829b1eb0400000000ffffffff5e3fa072166f7dfb84a8c6869951d72258a927c21570a2efa1aeca043829b1eb0500000000ffffffff86d51dd8491792b0459ba49c34897ee0776d6a6095360876a973d0643df1b0b90000000000ffffffff49610ab1a99424dffe9eb2e326fcd3605ed1094fcc656591288a9c3a563f12210400000000ffffffff5e3fa072166f7dfb84a8c6869951d72258a927c21570a2efa1aeca043829b1eb0000000000ffffffff07580200000000000016001465bb77652fe2264a198ae451ced7fb5de5718c3d4a010000000000002251205f9284ffafeb86e4a03dea1a209f4b45a68792131bceac3ec8df6356f08ada46e0ccb600000000002251208d20c1883d881d6fcb1e80388fe9aa1c08af5b0bca3405fc98fcaf5104740fcbfce90000000000001600144e24da63efbedd93a28de928e54ebc01d9f73fe990271b02000000002251205f9284ffafeb86e4a03dea1a209f4b45a68792131bceac3ec8df6356f08ada462c0100000000000016001465bb77652fe2264a198ae451ced7fb5de5718c3d2c0100000000000016001465bb77652fe2264a198ae451ced7fb5de5718c3d0247304402207ce60012bfbb87eecfe1d70fd9ef494f28e4c5371fa81f0793bfee2c90f117b102201f4e3626e4b00a4d2278f33f1a59d842c8e09e23682024f588fad7e0e096ce2d0121033832152ddbd1592e851988493d3ac54a24533a0cb72d7ebb87cb87e545fd2bae02483045022100cbb2e88ba30d3359900fcd55ff46d24f0a8d5f5f5debdc4320aa08accc59a2ec02207908b258807881aa34cbdcbeeacc9521580ce272a9a010c379aacb9b6f77e3110121033832152ddbd1592e851988493d3ac54a24533a0cb72d7ebb87cb87e545fd2bae01416e1b8cc5b87f32e47ad08491aece79d22cc7394fe753a9ff11fc29acf9c547a63222496bd26fa85beb49b4c03cce7013cf9ba55fb055f1ad1b865ec64ea35fae83014038abb997bc4e3ee33c13491134a65d25d83620f4b59b4d61d53b2132e04d6bca58a54f59ed4227e543bdca2976e3145c12d8a46e853d9925b8eee2f105d6b26c02483045022100f689db3eab446398a6eb96a15745b79446014617445ad1fdc7a28315ba6624aa022011d6bca9bd215d0f47ca36557e2db99c258d36e4afe49b9b1cdd4fdec2feb2d70121033832152ddbd1592e851988493d3ac54a24533a0cb72d7ebb87cb87e545fd2bae00000000"
}