{
  "txid": "7a303868654848c44973fb90d0eadf17d989112dff5512c9c5ff141041477bbe",
  "version": 1,
  "locktime": 0,
  "vin": [
    {
      "txid": "8f3015a6d6b2f41f2214040ae07c1db2ddab5c9be1b8e0a740a6eaadad985f79",
      "vout": 0,
      "prevout": {
        "scriptpubkey": "00147278209f0cf55d5443d5dddc7a23bb3bc8101967",
        "scriptpubkey_asm": "OP_0 OP_PUSHBYTES_20 7278209f0cf55d5443d5dddc7a23bb3bc8101967",
        "scriptpubkey_type": "v0_p2wpkh",
        "scriptpubkey_address": "bc1qwfuzp8cv74w4gs74mhw85gam80ypqxt89gh68s",
        "value": 43093
      },
      "scriptsig": "",
      "scriptsig_asm": "",
      "witness": [
        "3045022100a0bbb6f2df15cb790f43534a2e8b7fe64d7acbaf6e4a131c3d8d6f8f44d4b5e4022017015a668edaece9c496b9de5ea87fa7b1d4e59c964c9ac59be4a96c0d34c2b301",
        "035ee55c3ba5cac2652e6d723f2c5c54f30a3df25c0cf00c13d2690a991e53e454"
      ],
      "is_coinbase": false,
      "sequence": 4294967295
    },
    {
      "txid": "f6d5b497cb5bcee3d67a448f8bcb116a9974560545868d7ee71c163023416b72",
      "vout": 7,
      "prevout": {
        "scriptpubkey": "00147278209f0cf55d5443d5dddc7a23bb3bc8101967",
        "scriptpubkey_asm": "OP_0 OP_PUSHBYTES_20 7278209f0cf55d5443d5dddc7a23bb3bc8101967",
        "scriptpubkey_type": "v0_p2wpkh",
        "scriptpubkey_address": "bc1qwfuzp8cv74w4gs74mhw85gam80ypqxt89gh68s",
        "value": 77831
      },
      "scriptsig": "",
      "scriptsig_asm": "",
      "witness": [
        "3045022100ff602d59a26ef7eb0b526efbab4c57eada1da1a167c66f889e1513fd3dea264902202c7ce14e0a033a6a71b0d1e0bf0810f725c64697391bfb773230cb780344ff9201",
        "035ee55c3ba5cac2652e6d723f2c5c54f30a3df25c0cf00c13d2690a991e53e454"
      ],
      "is_coinbase": false,
      "sequence": 4294967295
    },
    {
      "txid": "176a80eb6c300002d00f95bfd422f15edc8895b343a337c961e540b9906fc4f0",
      "vout": 25,
      "prevout": {
        "scriptpubkey": "00147278209f0cf55d5443d5dddc7a23bb3bc8101967",
        "scriptpubkey_asm": "OP_0 OP_PUSHBYTES_20 7278209f0cf55d5443d5dddc7a23bb3bc8101967",
        "scriptpubkey_type": "v0_p2wpkh",
        "scriptpubkey_address": "bc1qwfuzp8cv74w4gs74mhw85gam80ypqxt89gh68s",
        "value": 229500
      },
      "scriptsig": "",
      "scriptsig_asm": "",
      "witness": [
        "3044022006e7d1c67028365ac97c6b6d0980a390d1bbff625e3380cbb32cf5537260f0e702203969aaba69818b6e0c0b967761a1764250af253b353a7a20b4ec3a63dbfbe7e701",
        "035ee55c3ba5cac2652e6d723f2c5c54f30a3df25c0cf00c13d2690a991e53e454"
      ],
      "is_coinbase": false,
      "sequence": 4294967295
    }
  ],
  "vout": [
    {
      "scriptpubkey": "a914a1791e1b052d5a61c003e5bc9de1964418ea2b9987",
      "scriptpubkey_asm": "OP_HASH160 OP_PUSHBYTES_20 a1791e1b052d5a61c003e5bc9de1964418ea2b99 OP_EQUAL",
      "scriptpubkey_type": "p2sh",
      "scriptpubkey_address": "3GQoopufajfcrGD2ps2QLapbfUE26x6FqN",
      "value": 343117
    }
  ],
  "size": 490,
  "weight": 985,
  "fee": 7307,
  "status": {
    "confirmed": true,
    "block_height": 834552,
    "block_hash": "00000000000000000001dd0468a70c94f619251d286585cff57aeb4bd9ede330",
    "block_time": 1710355598
  },
  "hex": "01000000000103795f98adadeaa640a7e0b8e19b5cabddb21d7ce00a0414221ff4b2d6a615308f0000000000ffffffff726b412330161ce77e8d8645055674996a11cb8b8f447ad6e3ce5bcb97b4d5f60700000000fffffffff0c46f90b940e561c937a343b39588dc5ef122d4bf950fd00200306ceb806a171900000000ffffffff014d3c05000000000017a914a1791e1b052d5a61c003e5bc9de1964418ea2b998702483045022100a0bbb6f2df15cb790f43534a2e8b7fe64d7acbaf6e4a131c3d8d6f8f44d4b5e4022017015a668edaece9c496b9de5ea87fa7b1d4e59c964c9ac59be4a96c0d34c2b30121035ee55c3ba5cac2652e6d723f2c5c54f30a3df25c0cf00c13d2690a991e53e45402483045022100ff602d59a26ef7eb0b526efbab4c57eada1da1a167c66f889e1513fd3dea264902202c7ce14e0a033a6a71b0d1e0bf0810f725c64697391bfb773230cb780344ff920121035ee55c3ba5cac2652e6d723f2c5c54f30a3df25c0cf00c13d2690a991e53e45402473044022006e7d1c67028365ac97c6b6d0980a390d1bbff625e3380cbb32cf5537260f0e702203969aaba69818b6e0c0b967761a1764250af253b353a7a20b4ec3a63dbfbe7e70121035ee55c3ba5cac2652e6d723f2c5c54f30a3df25c0cf00c13d2690a991e53e45400000000"
}