{
  "txid": "7a45b4b656d182cc8074f5e80834354c36247c29b0cef6b3f0abd61ea8b4b11c",
  "version": 2,
  "locktime": 0,
  "vin": [
    {
      "txid": "6b58d26cbfcc6cf8a53bd84b1c03c0e2573a64fa969c2cc3606494f6850a4761",
      "vout": 53,
      "prevout": {
        "scriptpubkey": "0014d994dbf89d3d1dab0eea874add9f1c357b00b534",
        "scriptpubkey_asm": "OP_0 OP_PUSHBYTES_20 d994dbf89d3d1dab0eea874add9f1c357b00b534",
        "scriptpubkey_type": "v0_p2wpkh",
        "scriptpubkey_address": "bc1qmx2dh7ya85w6krh2sa9dm8cux4aspdf58v9wpt",
        "value": 132427
      },
      "scriptsig": "",
      "scriptsig_asm": "",
      "witness": [
        "3045022100a04a26870bef5b692f4f40a9e8ff8246eed24b9475aab3af2ec6fc5f3b27da320220693ee624a0dfc42ce779af81a23c11eb4e895515cc659a2cb370ba77291bdbe501",
        "02999a6a92bd47cb54d913aebd968c2947d6ab92add9544d723c10f1f2737cfd24"
      ],
      "is_coinbase": false,
      "sequence": 4294967295
    },
    {
      "txid": "bf387c7ec7505aafc872d7d133786e9bff899a375821be214647184c580189c8",
      "vout": 29,
      "prevout": {
        "scriptpubkey": "0014ba5ee0ff911cce557ac1d0ead75781df251f376c",
        "scriptpubkey_asm": "OP_0 OP_PUSHBYTES_20 ba5ee0ff911cce557ac1d0ead75781df251f376c",
        "scriptpubkey_type": "v0_p2wpkh",
        "scriptpubkey_address": "bc1qhf0wplu3rn8927kp6r4dw4upmuj37dmv8kt9k8",
        "value": 71496
      },
      "scriptsig": "",
      "scriptsig_asm": "",
      "witness": [
        "3044022035d26ed64d70d8b4655e725220e973065e21931a6fe103db2549060c2c8baff30220122b0602b6e87f9220f51dbd97ae4cfeeee21efa045eb54736dcdbc9428e4c5301",
        "0280aba87f3c8a297473771dfa03a39f1afa4bf23c46977de9f7dd48a64446cf6d"
      ],
      "is_coinbase": false,
      "sequence": 4294967295
    },
    {
      "txid": "dcbbbf6dd8dc3aa5087f809e301daf3a4f3a2d27d30bc9b3809e500c0d228199",
      "vout": 60,
      "prevout": {
        "scriptpubkey": "0014d6685ae6ce01253f9fd831bed70bc06388cf9d29",
        "scriptpubkey_asm": "OP_0 OP_PUSHBYTES_20 d6685ae6ce01253f9fd831bed70bc06388cf9d29",
        "scriptpubkey_type": "v0_p2wpkh",
        "scriptpubkey_address": "bc1q6e594ekwqyjnl87cxxldwz7qvwyvl8ffdwgl8q",
        "value": 130332
      },
      "scriptsig": "",
      "scriptsig_asm": "",
      "witness": [
        "3045022100f17324e1cdf1248c0a3687b3fc4f9646590f9e79acae8c3b0a3b7be5ff82348802201ecdcbc2080c80ab1a386f13f1e07d52d05d1d166258572e780a97ab7105ed0c01",
        "02b0634142b53dd3ce0f0725d178c025434fed0163586417e63865d0df373197b2"
      ],
      "is_coinbase": false,
      "sequence": 4294967295
    },
    {
      "txid": "4c09bc19403002113a7ae8dbba03036c58ed926c30759897988dfcd86c6f8bf8",
      "vout": 25,
      "prevout": {
        "scriptpubkey": "0014e428dfd748f79ec19d4eac8c66dbb6dec3679d6b",
        "scriptpubkey_asm": "OP_0 OP_PUSHBYTES_20 e428dfd748f79ec19d4eac8c66dbb6dec3679d6b",
        "scriptpubkey_type": "v0_p2wpkh",
        "scriptpubkey_address": "bc1qus5dl46g770vr82w4jxxdkakmmpk08ttsf5wy0",
        "value": 199389
      },
      "scriptsig": "",
      "scriptsig_asm": "",
      "witness": [
        "3044022056e58e803c45eacaa87799ce1123d16048cabde13457d622715337a84af2be130220582629d319168b867f1baab70e51cc2f53a1f4079f9573442889964e0ed81b4b01",
        "02cb75bf664fa25dd1ed8f8685567e7d31b06caa361ab5f6af45f7a6f6e0b1a004"
      ],
      "is_coinbase": false,
      "sequence": 4294967295
    }
  ],
  "vout": [
    {
      "scriptpubkey": "00148052d7e8c3e72e16d3e090d1bc10fa7d9240ea43",
      "scriptpubkey_asm": "OP_0 OP_PUSHBYTES_20 8052d7e8c3e72e16d3e090d1bc10fa7d9240ea43",
      "scriptpubkey_type": "v0_p2wpkh",
      "scriptpubkey_address": "bc1qspfd06xruuhpd5lqjrgmcy860kfyp6jr6qgp50",
      "value": 527515
    }
  ],
  "size": 637,
  "weight": 1252,
  "fee": 6129,
  "status": {
    "confirmed": true,
    "block_height": 834638,
    "block_hash": "000000000000000000025f742c626208ac87e0b7d15054abb4a19ca2d735a54e",
    "block_time": 1710405325
  },
  "hex": "0200000000010461470a85f6946460c32c9c96fa643a57e2c0031c4bd83ba5f86cccbf6cd2586b3500000000ffffffffc88901584c18474621be2158379a89ff9b6e7833d1d772c8af5a50c77e7c38bf1d00000000ffffffff9981220d0c509e80b3c90bd3272d3a4f3aaf1d309e807f08a53adcd86dbfbbdc3c00000000fffffffff88b6f6cd8fc8d98979875306c92ed586c0303badbe87a3a1102304019bc094c1900000000ffffffff019b0c0800000000001600148052d7e8c3e72e16d3e090d1bc10fa7d9240ea4302483045022100a04a26870bef5b692f4f40a9e8ff8246eed24b9475aab3af2ec6fc5f3b27da320220693ee624a0dfc42ce779af81a23c11eb4e895515cc659a2cb370ba77291bdbe5012102999a6a92bd47cb54d913aebd968c2947d6ab92add9544d723c10f1f2737cfd2402473044022035d26ed64d70d8b4655e725220e973065e21931a6fe103db2549060c2c8baff30220122b0602b6e87f9220f51dbd97ae4cfeeee21efa045eb54736dcdbc9428e4c5301210280aba87f3c8a297473771dfa03a39f1afa4bf23c46977de9f7dd48a64446cf6d02483045022100f17324e1cdf1248c0a3687b3fc4f9646590f9e79acae8c3b0a3b7be5ff82348802201ecdcbc2080c80ab1a386f13f1e07d52d05d1d166258572e780a97ab7105ed0c012102b0634142b53dd3ce0f0725d178c025434fed0163586417e63865d0df373197b202473044022056e58e803c45eacaa87799ce1123d16048cabde13457d622715337a84af2be130220582629d319168b867f1baab70e51cc2f53a1f4079f9573442889964e0ed81b4b012102cb75bf664fa25dd1ed8f8685567e7d31b06caa361ab5f6af45f7a6f6e0b1a00400000000"
}