{
  "txid": "7a4c4d3611c1b2d8cc0fcf5b889c64fd95d2d63d65e3ee8786ccd7988cd8d5a7",
  "version": 2,
  "locktime": 0,
  "vin": [
    {
      "txid": "fe27a2d8cca2be43ad124e6cb45bde5d6851e3d2eb9702e8a3bda55f7eaa01b6",
      "vout": 0,
      "prevout": {
        "scriptpubkey": "51204d03f3d308bedbd95261cf70d764b34a1d7af59dd777b66d65e69706a46dc13a",
        "scriptpubkey_asm": "OP_PUSHNUM_1 OP_PUSHBYTES_32 4d03f3d308bedbd95261cf70d764b34a1d7af59dd777b66d65e69706a46dc13a",
        "scriptpubkey_type": "v1_p2tr",
        "scriptpubkey_address": "bc1pf5pl85cghmdaj5npeacdwe9nfgwh4ava6ammvmt9u6tsdfrdcyaqz6nt3d",
        "value": 3010
      },
      "scriptsig": "",
      "scriptsig_asm": "",
      "witness": [
        "5258d6064e1578b294cde0d339a73e1df11a8b0e0d8d95bac9a4a625284320e52f3b43d2736d4ceee7ba7354c8e254822fde0e167b0ed4b9bc98c3af4beba724",
        "20eceee3e0895d03998c44aa750d699fc3a57a168e2b79de699eb9f0ad18c7d8eeac0063036f7264010118746578742f706c61696e3b636861727365743d7574662d3800407b2270223a226272632d3230222c226f70223a227472616e73666572222c227469636b223a22f09d9b91222c22616d74223a223232323232323232323232227d68",
        "c0eceee3e0895d03998c44aa750d699fc3a57a168e2b79de699eb9f0ad18c7d8ee"
      ],
      "is_coinbase": false,
      "sequence": 4294967293
    }
  ],
  "vout": [
    {
      "scriptpubkey": "5120d826ab2636fc8fbdecaf2d73e51ed5dcc9e9e9c452a5604cd40d44ab61a2342d",
      "scriptpubkey_asm": "OP_PUSHNUM_1 OP_PUSHBYTES_32 d826ab2636fc8fbdecaf2d73e51ed5dcc9e9e9c452a5604cd40d44ab61a2342d",
      "scriptpubkey_type": "v1_p2tr",
      "scriptpubkey_address": "bc1pmqn2kf3klj8mmm9094e728k4mny7n6wy22jkqnx5p4z2kcdzxsksslj3mr",
      "value": 546
    }
  ],
  "size": 331,
  "weight": 613,
  "fee": 2464,
  "status": {
    "confirmed": true,
    "block_height": 834464,
    "block_hash": "0000000000000000000177a0869a911a2b65c9bdcd5a8bcb02b68f305bee848e",
    "block_time": 1710308296
  },
  "hex": "02000000000101b601aa7e5fa5bda3e80297ebd2e351685dde5bb46c4e12ad43bea2ccd8a227fe0000000000fdffffff012202000000000000225120d826ab2636fc8fbdecaf2d73e51ed5dcc9e9e9c452a5604cd40d44ab61a2342d03405258d6064e1578b294cde0d339a73e1df11a8b0e0d8d95bac9a4a625284320e52f3b43d2736d4ceee7ba7354c8e254822fde0e167b0ed4b9bc98c3af4beba7248620eceee3e0895d03998c44aa750d699fc3a57a168e2b79de699eb9f0ad18c7d8eeac0063036f7264010118746578742f706c61696e3b636861727365743d7574662d3800407b2270223a226272632d3230222c226f70223a227472616e73666572222c227469636b223a22f09d9b91222c22616d74223a223232323232323232323232227d6821c0eceee3e0895d03998c44aa750d699fc3a57a168e2b79de699eb9f0ad18c7d8ee00000000"
}