{
  "txid": "7a6f439af3bf16b6b4af6603b27efc7b149bf8854b7b897aabfc072127eac2da",
  "version": 1,
  "locktime": 0,
  "vin": [
    {
      "txid": "0638036e4c144a322c61475cec466b5143ba62d2752f48fc0a5a05fee421a441",
      "vout": 0,
      "prevout": {
        "scriptpubkey": "51207913effb61bde7d04b5bc5c89dea4e89b2852c8c2044c957591ce3915b1ad589",
        "scriptpubkey_asm": "OP_PUSHNUM_1 OP_PUSHBYTES_32 7913effb61bde7d04b5bc5c89dea4e89b2852c8c2044c957591ce3915b1ad589",
        "scriptpubkey_type": "v1_p2tr",
        "scriptpubkey_address": "bc1p0yf7l7mphhnaqj6mchyfm6jw3xeg2tyvypzvj46ern3ezkc66kysqrpy9v",
        "value": 448650
      },
      "scriptsig": "",
      "scriptsig_asm": "",
      "witness": [
        "19bd940bd15f5a0f99f55823016e1e0f550758802832206588dfc9bf5867ece3fef81b185f123d5425298de8147f1e59e16394f02f8031ff21f238ecb245e8d901"
      ],
      "is_coinbase": false,
      "sequence": 4294967295
    }
  ],
  "vout": [
    {
      "scriptpubkey": "51207c465328cbb7065144b5603ce06d30943906fba4b4947869b750d177de50f734",
      "scriptpubkey_asm": "OP_PUSHNUM_1 OP_PUSHBYTES_32 7c465328cbb7065144b5603ce06d30943906fba4b4947869b750d177de50f734",
      "scriptpubkey_type": "v1_p2tr",
      "scriptpubkey_address": "bc1p03r9x2xtkur9z394vq7wqmfsjsusd7aykj28s6dh2rgh0hjs7u6qv0l597",
      "value": 121595
    },
    {
      "scriptpubkey": "0014a17cf0c6052d1d145ba99dfc44a59de649e3dbd5",
      "scriptpubkey_asm": "OP_0 OP_PUSHBYTES_20 a17cf0c6052d1d145ba99dfc44a59de649e3dbd5",
      "scriptpubkey_type": "v0_p2wpkh",
      "scriptpubkey_address": "bc1q5970p3s995w3gkafnh7yffvauey78k74qr587n",
      "value": 325498
    }
  ],
  "size": 194,
  "weight": 569,
  "fee": 1557,
  "status": {
    "confirmed": true,
    "block_height": 834464,
    "block_hash": "0000000000000000000177a0869a911a2b65c9bdcd5a8bcb02b68f305bee848e",
    "block_time": 1710308296
  },
  "hex": "0100000000010141a421e4fe055a0afc482f75d262ba43516b46ec5c47612c324a144c6e0338060000000000ffffffff02fbda0100000000002251207c465328cbb7065144b5603ce06d30943906fba4b4947869b750d177de50f7347af7040000000000160014a17cf0c6052d1d145ba99dfc44a59de649e3dbd5014119bd940bd15f5a0f99f55823016e1e0f550758802832206588dfc9bf5867ece3fef81b185f123d5425298de8147f1e59e16394f02f8031ff21f238ecb245e8d90100000000"
}