{
  "txid": "7a8276889445d030876b938f30b5a3610529f2e8891e5e1215ccfe2ef5608fbd",
  "version": 2,
  "locktime": 0,
  "vin": [
    {
      "txid": "ec6470cf1262e369fbe2ac3fd92a118e8d67792cd0dd22a3e0000ca5b4c786c5",
      "vout": 0,
      "prevout": {
        "scriptpubkey": "5120340f63382f1011ffa34b48ea399af2a822890950879c2775961ef723aa932633",
        "scriptpubkey_asm": "OP_PUSHNUM_1 OP_PUSHBYTES_32 340f63382f1011ffa34b48ea399af2a822890950879c2775961ef723aa932633",
        "scriptpubkey_type": "v1_p2tr",
        "scriptpubkey_address": "bc1pxs8kxwp0zqgllg6tfr4rnxhj4q3gjz2ss7wzwavkrmmj825nycestts99d",
        "value": 22447
      },
      "scriptsig": "",
      "scriptsig_asm": "",
      "witness": [
        "98ddeaee3e6eec75ba54512cd810885af1f24b46ad9fe48579ccc9fe32156430ee79f66a16b926910c7bb0cdc368ef184243cd9627c8bea633c5a51506e658c6",
        "20f2d00e1cce0b839d2e197679cac7a15152ec244338032c7767f72c1332d49a65ac0063036f7264010109696d6167652f706e67004d080289504e470d0a1a0a0000000d4948445200000080000000800806000000c33e61cb000000097048597300000b1300000b1301009a9c1800000a2d49444154789ced9dcf8b1d4510c7ebbdbc75dddd64b31bdcc44d08fe42244a940822e241048d9a80845cf424ea4d41247f41c8510473f02078f0e0c983041554504114828807893104d490ac31e4c70bd9cd269b4db26f5f3c74556da6666a7b66debc1f335d9f4beff4f4f49be8d477aabbab6b6a00700b8c60a9f7fb068cfe620f40e0d8031038f600048e3d0081630f40e0d80310388d7edf40df68bce48a3bf7000040abf16372bbab975dd9fab61777d5734c0102a706a1cd04a2e5d76f3d080000ed751722a7376c7827727ce9d287ee8f8563ae5c3adaddfbeb31a60081138e0f30b41d0000ea6d67f9f591470000a00d510598bff067f43afa2f34e6dac3021e5744094c0102a7fa0ac096ffac2bd1f2a5d75fbfb2d1d5af73f5470f6e060080435f3b45d8bb7b2700006cdf87175444094c0102a7fa0a80b0b77f052bd6b9822c5f72fc9f5389c7079efb0b0000f67f592bf80efb832940e054771e00dffdecbd1334b39793037b4e03c06d3ec11b1f74d45fbf3105089ceafb0064f1b5ffb0ecacbbfd5f6c0500806d0f9deaaca301c1142070aaef03688cdce7cafaa82b97ceb872cdc568bbe5bbb07ed2958b27a3e76d1ec02833d5f501c83285129c78c1d5dfbf6b1a6bae6339824d0802e556a543d7aef66e617738109802044e7515805094001e5eeaacdf9116f6df5937fdc6142070aa3b0ad018df1639bc75f689c8716d7a4e9c9f483e3fff55f1f7d6074c0102a7fa3e808a8b0caa4dffe60e69bc3fb4c595ed6beefc461cf7cbf9818a600a1038e12940fd3157f2cc9f530218526604e93ce04c20fcdded3bec29a60081139e021064e1cb78bc3c9bdc8eeaa9fdfcf1aede56af3105089cea2bc0d4bec861a3b90300005a3cbc3fe20a5ef5bb987c5c31cb274c0102a77a0aa059fcf85957de83963debea574ce048b41f1ef7bf8efd9e8b9e6f1eecf85607015380c0a98e0290e5dfb81b00001af3d3ab340680495c1d24e75f9a427b47723bf97b2557025380c029ff6a604acb271f80ceb32f803466dc3bbf35f5bbab187d3edac17525834856cebf5f4c3f05610a1038e55780f1f700206ef9d2e2bdf564f992ba7393a6a6dc66c2e6cd27a3e72776265f37f75de470ea8e5fddf54ddc9c38204a600a1038e555007cf7d3385f42162dcf9302c0b018d70b1fa2b5c9c512aa964f680a400cb8129802044e79e701d06225fc2ebf71026ba20ac0168e337b3c5388a382162dfbe37601d5f209b2709f1280ecef8754edbb8d2940e0944f0178dcef0a7ea7136cf94f275ede7af429f7c729b13690f6e7e91d7ee658f444f393d5afdbe2f2147815a5c79802044ef71560fc65570e3fe04ab2d0c2e3ea0f63996cf944e38f5f00004d0802a0359eb17bb4f02677b4596997bc36d08457dc1f53c90ad0804fdd7d4d7ce32ae63e4b775f13af666b2f3005089cdefb00a404a40c5995408ed7277f76f5cbc9cdb599bfb48cd551b1363d0300000be36f2537a4d1c0e48ba9fa5b10f57c9f73bbdc31452c69964d964fab96600a60e4a0fb0a40162e7d814e958058a6b8fd0bab36e3d1c2bd7b5d79ea1000dcb60a9872343036ff51f2894e4da9eee62fc837612520cb268b27dac933a0997fb6905e8cd2d2fbb500a904846f74a0acfa11ec0b343005a83253c80c47670263fde15ac0d8e47dabf793938559dc73b888ca538fae46b20248659a3d9ad8de4601462e7a3f0ac8eb13aca13d7929bd79692143789d5086d84c62afa1fba4773afb02745f227289463f13785d4ecbe79fefe86aa3f4f46f2da0a0d1816ac164f14be23c591ce5f619c672faed68bbf31faffabb5dc3e3ddc7f635e41cff13a6008133381141bed1c11acceb8fe37e7e178e7feeea4929e478991812be835006f2ba899e8d026e9c8e9e8829c061712cd63aea9df902a600813338f1003e9f809460d88df3d5d53ce9ed53ec9ff40544fbb4a381d85a8088f94bcfc9e4ead8a860347a3c29f21df28e255300230783e303487c3e81540682ebd3cd046a3b8a341f60a11dbd1f5e2dcc88ea0348da4a4ca39c219c89fa30693105089cc1f10124697d82aa237c028e1b9871d5a4041c5104af65ebbe805b344acce02a4d080200a129c180207d021faacfa0cd5c12626d83e3066644bb8c3182a6008133f80aa0423362321af85c42dbe2c8ebf57be1790b3c2625c09cc52b446702398a98c83823680a1038e55100e90bd4d14286685480edf81dea990710741a3d9c1b39f72f952036da116b03739dedaf3005089cf2280021e303c8eb6545a0b5807cddf73a4248cf69847fa84a500ca60081533e05d090ebfd3ec857600b4bf619689cdf35ef5f6125de012b8645838214c1142070aaa30044da5540dff7fe6efe5bc8edf8fbf77ce33896cba858253205089cea29405e447c002c3fee4acc0bb030f5260014ef0ba8f9092564f914215410a60081533d0590ef4c1f4b62fe20a5126485f3029cff09fb5d7425fd1fa0dcc4b4f78fe055405c0318f2c43866c4142070aaa300d222b2ce0b48624a8239813cd9c03428234863763700dcb68ac7a396eff17741d4e37522bf21af21f83289783005089cf22b003df9e25b41a9df91734a060e959a2b7c0a23b385617e03862c58f359a87ed4c5f8b5d6633d8607c4660a6d5f809187f22b8086dc21e4db4397f21d4ad1b7446c1cafe40994ab7eb17dfe9ebd8b92957d01580ee7fb86912940e0544701e45e4022eddcbf0f8eb675456171034a3430e7085a2fda6bcac0df3832053032507e0588650fa3f172ca39f6b4c85dc45269b477af500e82fb5156f7b41c410ccd18caddc219bf67680a1038e55500fe6650f257c1184d08027a6776984d8b91969f7b4e5e66fe483edf9811ff3e9af9e3fbf0c413783005089cf22a005b5e74d76c2c234851962f570d7dfda79e59cc08ed14a2df475f6065ad205b77a60081535e05405a6b7166ae8d15b8cc0e570bfa2a175972eb62b4f4b517c4761ec9c89ed81ec0e4eb63ed4596f1ac3e892940e0944f01e4aa9f84ded19d2a005932f5a7cdd58baf97b31211b40681be899add2ca322c4dac9dcc8293105089cfe2b80b420425b278fc5fd2b6b0045237f97f622faf621f0ee5fbcbfb46b13a808b1773fe70dbc268e658651cb1062a4a07f790265848c86c892e5dbbf1fcb9881ef6eedcb207c1dad1dc8f1be924750fd3d42cbfaedcb5ceaeb47f90e027f033963c6105380c0e9bd0f20befdeb85c6dd23c95e742cd286d6d1c9a217dd4c596bad88b7972c2af518a5cb59b9b4df8bcd448a9cbf04472815134fe053361fa60081d3ff518006bffbf1182d191ad177b466996c6923e2fab4c466fe504926707d5ef824ea7e7e4d09b49845496cf551dc666c8630faed211fa6008133b80ac04fb2a8977be3f05dca3b6624e4c55f8d5a60da2f85d29745f93af1aef7fd6eea790a69b9cae825b6da277d298a10ba6c0a60a4a0f70a2073f310be19b5583bb177aeb9fafc0091d6f2657b5202197bc8edd24609730650c57b973387122dfa192d9fbf853c01a93005089cfecd04fa2266942f7d7a6702c91273ae8e751d6d2fe27a91e74c539fa27e35df81f7012097a33b962c5bb8918ac1f96650d1317445c502f68a4efffd961fc0c8c3e02880d1174c0102c71e80c0b1072070ec01081c7b0002e77ff6386b48b651d7d10000000049454e44ae426082680063036f726401011e6170706c69636174696f6e2f6a736f6e3b636861727365743d7574662d38004d60017b2270223a22766f7264222c2276223a312c227479223a22696e7363222c22636f6c223a2232386636653261633234346563653261393834356631626434626563356665626639616530393266393632653865356434626535333238343266623466616634222c22696964223a224f7264692041726d79204d656e222c227075626c223a2231455337623370636a527a4667796969714c7278484b546e43686535364c4a485937222c226e6f6e6365223a3733352c226d696e746572223a22626331706a73686e6d637777736a766b786d3264727a7039746a77667472786677777764346c36757730616465376b6c7a366438323070713078357a776e222c22736967223a224847354b486574565854706f3642674632715633596172554853675a7a4843376351767a455a437a69625139594467346a634c6b376f344e4b4d43644d507451516c6a7334586a553253334c58676379476c73397973513d227d68",
        "c0f2d00e1cce0b839d2e197679cac7a15152ec244338032c7767f72c1332d49a65675a92934efa5e4869b2432a3e00abfc6819367af43949c2edc693b32d23ac05"
      ],
      "is_coinbase": false,
      "sequence": 4294967293
    }
  ],
  "vout": [
    {
      "scriptpubkey": "5120942f3de1ce8499636d4d188255c9c958cc9739cdaff5c73fadcfadf169a753c2",
      "scriptpubkey_asm": "OP_PUSHNUM_1 OP_PUSHBYTES_32 942f3de1ce8499636d4d188255c9c958cc9739cdaff5c73fadcfadf169a753c2",
      "scriptpubkey_type": "v1_p2tr",
      "scriptpubkey_address": "bc1pjshnmcwwsjvkxm2drzp9tjwftrxfwwwd4l6uw0ade7klz6d820pq0x5zwn",
      "value": 1000
    },
    {
      "scriptpubkey": "51205cb904dc38be4352e47edf3b611d3868854fcab832b9d82f9075282b8cac5ab7",
      "scriptpubkey_asm": "OP_PUSHNUM_1 OP_PUSHBYTES_32 5cb904dc38be4352e47edf3b611d3868854fcab832b9d82f9075282b8cac5ab7",
      "scriptpubkey_type": "v1_p2tr",
      "scriptpubkey_address": "bc1ptjusfhpchep49er7muakz8fcdzz5lj4cx2uastusw55zhr9vt2msk5y7x5",
      "value": 7205
    },
    {
      "scriptpubkey": "51200705a5767db892e98125775049b1a13dd9ecdc8aea0df413cabbee683e871012",
      "scriptpubkey_asm": "OP_PUSHNUM_1 OP_PUSHBYTES_32 0705a5767db892e98125775049b1a13dd9ecdc8aea0df413cabbee683e871012",
      "scriptpubkey_type": "v1_p2tr",
      "scriptpubkey_address": "bc1pquz62anahzfwnqf9wagynvdp8hv7ehy2agxlgy72h0hxs058zqfqk8ksyq",
      "value": 3220
    }
  ],
  "size": 3467,
  "weight": 4007,
  "fee": 11022,
  "status": {
    "confirmed": true,
    "block_height": 834464,
    "block_hash": "0000000000000000000177a0869a911a2b65c9bdcd5a8bcb02b68f305bee848e",
    "block_time": 1710308296
  },
  "hex": "02000000000101c586c7b4a50c00e0a322ddd02c79678d8e112ad93face2fb69e36212cf7064ec0000000000fdffffff03e803000000000000225120942f3de1ce8499636d4d188255c9c958cc9739cdaff5c73fadcfadf169a753c2251c0000000000002251205cb904dc38be4352e47edf3b611d3868854fcab832b9d82f9075282b8cac5ab7940c0000000000002251200705a5767db892e98125775049b1a13dd9ecdc8aea0df413cabbee683e871012034098ddeaee3e6eec75ba54512cd810885af1f24b46ad9fe48579ccc9fe32156430ee79f66a16b926910c7bb0cdc368ef184243cd9627c8bea633c5a51506e658c6fd4e0c20f2d00e1cce0b839d2e197679cac7a15152ec244338032c7767f72c1332d49a65ac0063036f7264010109696d6167652f706e67004d080289504e470d0a1a0a0000000d4948445200000080000000800806000000c33e61cb000000097048597300000b1300000b1301009a9c1800000a2d49444154789ced9dcf8b1d4510c7ebbdbc75dddd64b31bdcc44d08fe42244a940822e241048d9a80845cf424ea4d41247f41c8510473f02078f0e0c983041554504114828807893104d490ac31e4c70bd9cd269b4db26f5f3c74556da6666a7b66debc1f335d9f4beff4f4f49be8d477aabbab6b6a00700b8c60a9f7fb068cfe620f40e0d8031038f600048e3d0081630f40e0d80310388d7edf40df68bce48a3bf7000040abf16372bbab975dd9fab61777d5734c0102a706a1cd04a2e5d76f3d080000ed751722a7376c7827727ce9d287ee8f8563ae5c3adaddfbeb31a60081138e0f30b41d0000ea6d67f9f591470000a00d510598bff067f43afa2f34e6dac3021e5744094c0102a7fa0ac096ffac2bd1f2a5d75fbfb2d1d5af73f5470f6e060080435f3b45d8bb7b2700006cdf87175444094c0102a7fa0a80b0b77f052bd6b9822c5f72fc9f5389c7079efb0b0000f67f592bf80efb832940e054771e00dffdecbd1334b39793037b4e03c06d3ec11b1f74d45fbf3105089ceafb0064f1b5ffb0ecacbbfd5f6c0500806d0f9deaaca301c1142070aaef03688cdce7cafaa82b97ceb872cdc568bbe5bbb07ed2958b27a3e76d1ec02833d5f501c83285129c78c1d5dfbf6b1a6bae6339824d0802e556a543d7aef66e617738109802044e7515805094001e5eeaacdf9116f6df5937fdc6142070aa3b0ad018df1639bc75f689c8716d7a4e9c9f483e3fff55f1f7d6074c0102a7fa3e808a8b0caa4dffe60e69bc3fb4c595ed6beefc461cf7cbf9818a600a1038e12940fd3157f2cc9f530218526604e93ce04c20fcdded3bec29a60081139e021064e1cb78bc3c9bdc8eeaa9fdfcf1aede56af3105089cea2bc0d4bec861a3b90300005a3cbc3fe20a5ef5bb987c5c31cb274c0102a77a0aa059fcf85957de83963debea574ce048b41f1ef7bf8efd9e8b9e6f1eecf85607015380c0a98e0290e5dfb81b00001af3d3ab340680495c1d24e75f9a427b47723bf97b2557025380c029ff6a604acb271f80ceb32f803466dc3bbf35f5bbab187d3edac17525834856cebf5f4c3f05610a1038e55780f1f700206ef9d2e2bdf564f992ba7393a6a6dc66c2e6cd27a3e72776265f37f75de470ea8e5fddf54ddc9c38204a600a1038e555007cf7d3385f42162dcf9302c0b018d70b1fa2b5c9c512aa964f680a400cb8129802044e79e701d06225fc2ebf71026ba20ac0168e337b3c5388a382162dfbe37601d5f209b2709f1280ecef8754edbb8d2940e0944f0178dcef0a7ea7136cf94f275ede7af429f7c729b13690f6e7e91d7ee658f444f393d5afdbe2f2147815a5c79802044ef71560fc65570e3fe04ab2d0c2e3ea0f63996cf944e38f5f00004d0802a0359eb17bb4f02677b4596997bc36d08457dc1f53c90ad0804fdd7d4d7ce32ae63e4b775f13af666b2f3005089cdefb00a404a40c5995408ed7277f76f5cbc9cdb599bfb48cd551b1363d0300000be36f2537a4d1c0e48ba9fa5b10f57c9f73bbdc31452c69964d964fab96600a60e4a0fb0a40162e7d814e958058a6b8fd0bab36e3d1c2bd7b5d79ea1000dcb60a9872343036ff51f2894e4da9eee62fc837612520cb268b27dac933a0997fb6905e8cd2d2fbb500a904846f74a0acfa11ec0b343005a83253c80c47670263fde15ac0d8e47dabf793938559dc73b888ca538fae46b20248659a3d9ad8de4601462e7a3f0ac8eb13aca13d7929bd79692143789d5086d84c62afa1fba4773afb02745f227289463f13785d4ecbe79fefe86aa3f4f46f2da0a0d1816ac164f14be23c591ce5f619c672faed68bbf31faffabb5dc3e3ddc7f635e41cff13a6008133381141bed1c11acceb8fe37e7e178e7feeea4929e478991812be835006f2ba899e8d026e9c8e9e8829c061712cd63aea9df902a600813338f1003e9f809460d88df3d5d53ce9ed53ec9ff40544fbb4a381d85a8088f94bcfc9e4ead8a860347a3c29f21df28e255300230783e303487c3e81540682ebd3cd046a3b8a341f60a11dbd1f5e2dcc88ea0348da4a4ca39c219c89fa30693105089cc1f10124697d82aa237c028e1b9871d5a4041c5104af65ebbe805b344acce02a4d080200a129c180207d021faacfa0cd5c12626d83e3066644bb8c3182a6008133f80aa0423362321af85c42dbe2c8ebf57be1790b3c2625c09cc52b446702398a98c83823680a1038e55100e90bd4d14286685480edf81dea990710741a3d9c1b39f72f952036da116b03739dedaf3005089cf2280021e303c8eb6545a0b5807cddf73a4248cf69847fa84a500ca60081533e05d090ebfd3ec857600b4bf619689cdf35ef5f6125de012b8645838214c1142070aaa30044da5540dff7fe6efe5bc8edf8fbf77ce33896cba858253205089cea29405e447c002c3fee4acc0bb030f5260014ef0ba8f9092564f914215410a60081533d0590ef4c1f4b62fe20a5126485f3029cff09fb5d7425fd1fa0dcc4b4f78fe055405c0318f2c43866c4142070aaa300d222b2ce0b48624a8239813cd9c03428234863763700dcb68ac7a396eff17741d4e37522bf21af21f83289783005089cf22b003df9e25b41a9df91734a060e959a2b7c0a23b385617e03862c58f359a87ed4c5f8b5d6633d8607c4660a6d5f809187f22b8086dc21e4db4397f21d4ad1b7446c1cafe40994ab7eb17dfe9ebd8b92957d01580ee7fb86912940e0544701e45e4022eddcbf0f8eb675456171034a3430e7085a2fda6bcac0df3832053032507e0588650fa3f172ca39f6b4c85dc45269b477af500e82fb5156f7b41c410ccd18caddc219bf67680a1038e55500fe6650f257c1184d08027a6776984d8b91969f7b4e5e66fe483edf9811ff3e9af9e3fbf0c413783005089cf22a005b5e74d76c2c234851962f570d7dfda79e59cc08ed14a2df475f6065ad205b77a60081535e05405a6b7166ae8d15b8cc0e570bfa2a175972eb62b4f4b517c4761ec9c89ed81ec0e4eb63ed4596f1ac3e892940e0944f01e4aa9f84ded19d2a005932f5a7cdd58baf97b31211b40681be899add2ca322c4dac9dcc8293105089cfe2b80b420425b278fc5fd2b6b0045237f97f622faf621f0ee5fbcbfb46b13a808b1773fe70dbc268e658651cb1062a4a07f790265848c86c892e5dbbf1fcb9881ef6eedcb207c1dad1dc8f1be924750fd3d42cbfaedcb5ceaeb47f90e027f033963c6105380c0e9bd0f20befdeb85c6dd23c95e742cd286d6d1c9a217dd4c596bad88b7972c2af518a5cb59b9b4df8bcd448a9cbf04472815134fe053361fa60081d3ff518006bffbf1182d191ad177b466996c6923e2fab4c466fe504926707d5ef824ea7e7e4d09b49845496cf551dc666c8630faed211fa6008133b80ac04fb2a8977be3f05dca3b6624e4c55f8d5a60da2f85d29745f93af1aef7fd6eea790a69b9cae825b6da277d298a10ba6c0a60a4a0f70a2073f310be19b5583bb177aeb9fafc0091d6f2657b5202197bc8edd24609730650c57b973387122dfa192d9fbf853c01a93005089cfecd04fa2266942f7d7a6702c91273ae8e751d6d2fe27a91e74c539fa27e35df81f7012097a33b962c5bb8918ac1f96650d1317445c502f68a4efffd961fc0c8c3e02880d1174c0102c71e80c0b1072070ec01081c7b0002e77ff6386b48b651d7d10000000049454e44ae426082680063036f726401011e6170706c69636174696f6e2f6a736f6e3b636861727365743d7574662d38004d60017b2270223a22766f7264222c2276223a312c227479223a22696e7363222c22636f6c223a2232386636653261633234346563653261393834356631626434626563356665626639616530393266393632653865356434626535333238343266623466616634222c22696964223a224f7264692041726d79204d656e222c227075626c223a2231455337623370636a527a4667796969714c7278484b546e43686535364c4a485937222c226e6f6e6365223a3733352c226d696e746572223a22626331706a73686e6d637777736a766b786d3264727a7039746a77667472786677777764346c36757730616465376b6c7a366438323070713078357a776e222c22736967223a224847354b486574565854706f3642674632715633596172554853675a7a4843376351767a455a437a69625139594467346a634c6b376f344e4b4d43644d507451516c6a7334586a553253334c58676379476c73397973513d227d6841c0f2d00e1cce0b839d2e197679cac7a15152ec244338032c7767f72c1332d49a65675a92934efa5e4869b2432a3e00abfc6819367af43949c2edc693b32d23ac0500000000"
}