{
  "txid": "7a8553f103ae032ab8bb27720928661d1e8002f8e11272123739fa88225d719a",
  "version": 2,
  "locktime": 0,
  "vin": [
    {
      "txid": "d0afbf18dddd4c4e1f9f372833d92e463b8bc5f1cc780088213ee261911bcdb3",
      "vout": 4,
      "prevout": {
        "scriptpubkey": "5120cd609e239ddb336aeadac7a1990fce921bf2c8843707a06d648040c5eb22cd63",
        "scriptpubkey_asm": "OP_PUSHNUM_1 OP_PUSHBYTES_32 cd609e239ddb336aeadac7a1990fce921bf2c8843707a06d648040c5eb22cd63",
        "scriptpubkey_type": "v1_p2tr",
        "scriptpubkey_address": "bc1pe4sfuguamvek46k6c7sejr7wjgdl9jyyxur6qmtyspqvt6eze43sgjmsuc",
        "value": 676638
      },
      "scriptsig": "",
      "scriptsig_asm": "",
      "witness": [
        "ff0c89f20bdf25cdb08ea2e539bf2d8ea8e45a52154a636b77a5428e3baae7c22ebb4429abe1ac447de8f5922a70ad5b0ed084bbf0795889da07cf27ba41eceb"
      ],
      "is_coinbase": false,
      "sequence": 4294967295
    }
  ],
  "vout": [
    {
      "scriptpubkey": "5120cd609e239ddb336aeadac7a1990fce921bf2c8843707a06d648040c5eb22cd63",
      "scriptpubkey_asm": "OP_PUSHNUM_1 OP_PUSHBYTES_32 cd609e239ddb336aeadac7a1990fce921bf2c8843707a06d648040c5eb22cd63",
      "scriptpubkey_type": "v1_p2tr",
      "scriptpubkey_address": "bc1pe4sfuguamvek46k6c7sejr7wjgdl9jyyxur6qmtyspqvt6eze43sgjmsuc",
      "value": 600
    },
    {
      "scriptpubkey": "5120cd609e239ddb336aeadac7a1990fce921bf2c8843707a06d648040c5eb22cd63",
      "scriptpubkey_asm": "OP_PUSHNUM_1 OP_PUSHBYTES_32 cd609e239ddb336aeadac7a1990fce921bf2c8843707a06d648040c5eb22cd63",
      "scriptpubkey_type": "v1_p2tr",
      "scriptpubkey_address": "bc1pe4sfuguamvek46k6c7sejr7wjgdl9jyyxur6qmtyspqvt6eze43sgjmsuc",
      "value": 600
    },
    {
      "scriptpubkey": "5120cd609e239ddb336aeadac7a1990fce921bf2c8843707a06d648040c5eb22cd63",
      "scriptpubkey_asm": "OP_PUSHNUM_1 OP_PUSHBYTES_32 cd609e239ddb336aeadac7a1990fce921bf2c8843707a06d648040c5eb22cd63",
      "scriptpubkey_type": "v1_p2tr",
      "scriptpubkey_address": "bc1pe4sfuguamvek46k6c7sejr7wjgdl9jyyxur6qmtyspqvt6eze43sgjmsuc",
      "value": 672089
    }
  ],
  "size": 248,
  "weight": 788,
  "fee": 3349,
  "status": {
    "confirmed": true,
    "block_height": 834638,
    "block_hash": "000000000000000000025f742c626208ac87e0b7d15054abb4a19ca2d735a54e",
    "block_time": 1710405325
  },
  "hex": "02000000000101b3cd1b9161e23e21880078ccf1c58b3b462ed93328379f1f4e4cdddd18bfafd00400000000ffffffff035802000000000000225120cd609e239ddb336aeadac7a1990fce921bf2c8843707a06d648040c5eb22cd635802000000000000225120cd609e239ddb336aeadac7a1990fce921bf2c8843707a06d648040c5eb22cd6359410a0000000000225120cd609e239ddb336aeadac7a1990fce921bf2c8843707a06d648040c5eb22cd630140ff0c89f20bdf25cdb08ea2e539bf2d8ea8e45a52154a636b77a5428e3baae7c22ebb4429abe1ac447de8f5922a70ad5b0ed084bbf0795889da07cf27ba41eceb00000000"
}