{
  "txid": "7a8890f086d1b76ae9adf5bf7de2230b444874e6f34185d13f011f5e523a4c11",
  "version": 2,
  "locktime": 0,
  "vin": [
    {
      "txid": "13a9166c5a586679f2433c5379472cfeca43152fd7ac94e59847090351f8b6a3",
      "vout": 1,
      "prevout": {
        "scriptpubkey": "00146e1292529b3c2135d319a5c8cb1f34bdcfd08d84",
        "scriptpubkey_asm": "OP_0 OP_PUSHBYTES_20 6e1292529b3c2135d319a5c8cb1f34bdcfd08d84",
        "scriptpubkey_type": "v0_p2wpkh",
        "scriptpubkey_address": "bc1qdcffy55m8ssnt5ce5hyvk8e5hh8aprvyg5n3md",
        "value": 671784
      },
      "scriptsig": "",
      "scriptsig_asm": "",
      "witness": [
        "3044022012662536fb8637458484d781fe1cbbe68cddc660ec7dfe3d9acd2eb53755b2d602207cd9bbceb87257f5cc19988502b8db97c38593b792276795323c30adc905d4d501",
        "03e0558ee2b1f5a5e539582e90f4c4905d94f1ca21d62c44962981a220fc0164d4"
      ],
      "is_coinbase": false,
      "sequence": 0
    },
    {
      "txid": "d0d4108de99d55610703f68ce55820f31ad88afe4b92644be6fb1a28c55501ed",
      "vout": 24,
      "prevout": {
        "scriptpubkey": "0014bff94faf05521348307e7fff8daaeee6d1522c41",
        "scriptpubkey_asm": "OP_0 OP_PUSHBYTES_20 bff94faf05521348307e7fff8daaeee6d1522c41",
        "scriptpubkey_type": "v0_p2wpkh",
        "scriptpubkey_address": "bc1qhlu5ltc92gf5svr70llcm2hwumg4ytzp8eygwl",
        "value": 2843000
      },
      "scriptsig": "",
      "scriptsig_asm": "",
      "witness": [
        "3045022100f4671b7ec6069ccef4393b6bfce8b73b89c4e3ebd2889c2cc7f25e5c78bda3e4022064ce8abe96fcfee335ed08d841fb38502a3ef09177b653254b72b34dfdf8e03c01",
        "0225aa96caecfa05f09697e23cda7d299ae36e40c0de6ad228aafad5e39e72cf1a"
      ],
      "is_coinbase": false,
      "sequence": 0
    },
    {
      "txid": "ab2f93b64c6825644e0ab8fd5239b1b9a46b3811f3bf21cb119822b172012241",
      "vout": 16,
      "prevout": {
        "scriptpubkey": "0014642879bca3af4882db7b79c9e8a55d733dbe23d1",
        "scriptpubkey_asm": "OP_0 OP_PUSHBYTES_20 642879bca3af4882db7b79c9e8a55d733dbe23d1",
        "scriptpubkey_type": "v0_p2wpkh",
        "scriptpubkey_address": "bc1qvs58n09r4ayg9kmm08y73f2awv7mug735u6sus",
        "value": 4317529
      },
      "scriptsig": "",
      "scriptsig_asm": "",
      "witness": [
        "30440220788535299a830448ed26906ab4ff4772174bcdbc51071b0644dc8fbd1cf402ba02207a6ff4dc940c725419b42aee10813573a5dc62eabc8a419524f34d14066ba7b701",
        "0379352b74f81ec741eddd09da6dfd6e9e7f3894d10722e2c895016b26d9087b82"
      ],
      "is_coinbase": false,
      "sequence": 0
    },
    {
      "txid": "2b3d42b2f333fa37b0bf19576656c5a3d5936a1b011b912cc5633680aabdaf8b",
      "vout": 1,
      "prevout": {
        "scriptpubkey": "0014faaa065ce395e0b38d71776812bc19b286a802c3",
        "scriptpubkey_asm": "OP_0 OP_PUSHBYTES_20 faaa065ce395e0b38d71776812bc19b286a802c3",
        "scriptpubkey_type": "v0_p2wpkh",
        "scriptpubkey_address": "bc1ql24qvh8rjhst8rt3wa5p90qek2r2sqkr9qgfxl",
        "value": 44371616
      },
      "scriptsig": "",
      "scriptsig_asm": "",
      "witness": [
        "304402205227a38588e3a6db61ba7fb162763765d9de5dc65e91a9465e98992ec6c2726902202cb3941075ab503c5f849b8c354d8e0e1a67229844c7b1f0cfaf606d9b12196c01",
        "03247da9c3cf6699ca3cd2a225e1426c3aae9bbdf6b1378caa67914b96ce6ab2ba"
      ],
      "is_coinbase": false,
      "sequence": 0
    }
  ],
  "vout": [
    {
      "scriptpubkey": "76a9141c92bd4020515c92f86dd1760fc6bf46dce715b788ac",
      "scriptpubkey_asm": "OP_DUP OP_HASH160 OP_PUSHBYTES_20 1c92bd4020515c92f86dd1760fc6bf46dce715b7 OP_EQUALVERIFY OP_CHECKSIG",
      "scriptpubkey_type": "p2pkh",
      "scriptpubkey_address": "13c5hze1SLRFxGj5sdT6NLrqwrHhuSpmyv",
      "value": 10000000
    },
    {
      "scriptpubkey": "00142d2141041f6c5921f29b12b863fa21cdc6198003",
      "scriptpubkey_asm": "OP_0 OP_PUSHBYTES_20 2d2141041f6c5921f29b12b863fa21cdc6198003",
      "scriptpubkey_type": "v0_p2wpkh",
      "scriptpubkey_address": "bc1q95s5zpqld3vjru5mz2ux873pehrpnqqrel20tx",
      "value": 42194533
    }
  ],
  "size": 670,
  "weight": 1387,
  "fee": 9396,
  "status": {
    "confirmed": true,
    "block_height": 834638,
    "block_hash": "000000000000000000025f742c626208ac87e0b7d15054abb4a19ca2d735a54e",
    "block_time": 1710405325
  },
  "hex": "02000000000104a3b6f85103094798e594acd72f1543cafe2c4779533c43f27966585a6c16a913010000000000000000ed0155c5281afbe64b64924bfe8ad81af32058e58cf6030761559de98d10d4d018000000000000000041220172b1229811cb21bff311386ba4b9b13952fdb80a4e6425684cb6932fab1000000000000000008bafbdaa803663c52c911b011b6a93d5a3c556665719bfb037fa33f3b2423d2b0100000000000000000280969800000000001976a9141c92bd4020515c92f86dd1760fc6bf46dce715b788ac65d68302000000001600142d2141041f6c5921f29b12b863fa21cdc619800302473044022012662536fb8637458484d781fe1cbbe68cddc660ec7dfe3d9acd2eb53755b2d602207cd9bbceb87257f5cc19988502b8db97c38593b792276795323c30adc905d4d5012103e0558ee2b1f5a5e539582e90f4c4905d94f1ca21d62c44962981a220fc0164d402483045022100f4671b7ec6069ccef4393b6bfce8b73b89c4e3ebd2889c2cc7f25e5c78bda3e4022064ce8abe96fcfee335ed08d841fb38502a3ef09177b653254b72b34dfdf8e03c01210225aa96caecfa05f09697e23cda7d299ae36e40c0de6ad228aafad5e39e72cf1a024730440220788535299a830448ed26906ab4ff4772174bcdbc51071b0644dc8fbd1cf402ba02207a6ff4dc940c725419b42aee10813573a5dc62eabc8a419524f34d14066ba7b701210379352b74f81ec741eddd09da6dfd6e9e7f3894d10722e2c895016b26d9087b820247304402205227a38588e3a6db61ba7fb162763765d9de5dc65e91a9465e98992ec6c2726902202cb3941075ab503c5f849b8c354d8e0e1a67229844c7b1f0cfaf606d9b12196c012103247da9c3cf6699ca3cd2a225e1426c3aae9bbdf6b1378caa67914b96ce6ab2ba00000000"
}