{
  "txid": "7a8e0f41d6e6dda7033f8a8e456df113d2eba6bc790742cbf67009eecb0eb580",
  "version": 1,
  "locktime": 0,
  "vin": [
    {
      "txid": "959f9236bb2423995829a4477b50fb159a389c21d8004edb6273076e50569029",
      "vout": 1,
      "prevout": {
        "scriptpubkey": "00144dabe1f73ac61d1ba41adaf29acea2eddf1bc044",
        "scriptpubkey_asm": "OP_0 OP_PUSHBYTES_20 4dabe1f73ac61d1ba41adaf29acea2eddf1bc044",
        "scriptpubkey_type": "v0_p2wpkh",
        "scriptpubkey_address": "bc1qfk47rae6ccw3hfq6mtef4n4zah03hszyz5h0mx",
        "value": 741556
      },
      "scriptsig": "",
      "scriptsig_asm": "",
      "witness": [
        "3045022100b8a38d5af90490f6f182dab7a07628f1e59d98704f1b14bb4b8be4a4bc1eaa68022076dc29ec880739f643829b2ca8dfe6c795d9c1fadd69757d2ecddcae2f7ba5f001",
        "0336c16e3b9395f95fe3e87130676da4d0ee5efc632dd3316197806b2206b48f6a"
      ],
      "is_coinbase": false,
      "sequence": 4294967295
    }
  ],
  "vout": [
    {
      "scriptpubkey": "a9148e758d272bb4d4c87583a6a41dbb39f78544c02287",
      "scriptpubkey_asm": "OP_HASH160 OP_PUSHBYTES_20 8e758d272bb4d4c87583a6a41dbb39f78544c022 OP_EQUAL",
      "scriptpubkey_type": "p2sh",
      "scriptpubkey_address": "3EgGhPxer1xiQVf5JMK5t1CHhL9A5X9fix",
      "value": 277544
    },
    {
      "scriptpubkey": "00144dabe1f73ac61d1ba41adaf29acea2eddf1bc044",
      "scriptpubkey_asm": "OP_0 OP_PUSHBYTES_20 4dabe1f73ac61d1ba41adaf29acea2eddf1bc044",
      "scriptpubkey_type": "v0_p2wpkh",
      "scriptpubkey_address": "bc1qfk47rae6ccw3hfq6mtef4n4zah03hszyz5h0mx",
      "value": 460178
    }
  ],
  "size": 224,
  "weight": 566,
  "fee": 3834,
  "status": {
    "confirmed": true,
    "block_height": 834460,
    "block_hash": "00000000000000000000484a79b643b2524bbce82e5d8a442013fa5b8905ed98",
    "block_time": 1710307468
  },
  "hex": "01000000000101299056506e077362db4e00d8219c389a15fb507b47a42958992324bb36929f950100000000ffffffff02283c04000000000017a9148e758d272bb4d4c87583a6a41dbb39f78544c0228792050700000000001600144dabe1f73ac61d1ba41adaf29acea2eddf1bc04402483045022100b8a38d5af90490f6f182dab7a07628f1e59d98704f1b14bb4b8be4a4bc1eaa68022076dc29ec880739f643829b2ca8dfe6c795d9c1fadd69757d2ecddcae2f7ba5f001210336c16e3b9395f95fe3e87130676da4d0ee5efc632dd3316197806b2206b48f6a00000000"
}