{
  "txid": "7a9e9fcfb71a5c23f8c763b8e6505fe8c17f8dc5af52b19ebeead87e078082d0",
  "version": 1,
  "locktime": 0,
  "vin": [
    {
      "txid": "417547e6abf219204327f742392e387f5900cce46d057f3858767054325cc3a1",
      "vout": 121,
      "prevout": {
        "scriptpubkey": "0014d432098c47ce4378a7b7128082bbf3655e5de97b",
        "scriptpubkey_asm": "OP_0 OP_PUSHBYTES_20 d432098c47ce4378a7b7128082bbf3655e5de97b",
        "scriptpubkey_type": "v0_p2wpkh",
        "scriptpubkey_address": "bc1q6seqnrz8eeph3fahz2qg9wlnv409m6tmaujnx3",
        "value": 167847
      },
      "scriptsig": "",
      "scriptsig_asm": "",
      "witness": [
        "304402206afdf84a8d1bfdae496b2e7dec7e68d4703c41d25fd9f480dd90cd8d5cbc5a760220014b29595ab4f334d0c5e9651d5c225af10fd506ea1d0fd839d9e80df7f20f2201",
        "02e7b6f2a209115cb118bdfc4fc0c56f3b1afecc99f8770c2088b9a0e16dcc831a"
      ],
      "is_coinbase": false,
      "sequence": 4294967295
    },
    {
      "txid": "5d5f47002297394ec189f0f6afc9ecbf9ab7810e05a0fbdc9b1e4735f833ec7a",
      "vout": 1,
      "prevout": {
        "scriptpubkey": "00144e02c194863445275506184fdeedb72362a6b165",
        "scriptpubkey_asm": "OP_0 OP_PUSHBYTES_20 4e02c194863445275506184fdeedb72362a6b165",
        "scriptpubkey_type": "v0_p2wpkh",
        "scriptpubkey_address": "bc1qfcpvr9yxx3zjw4gxrp8aamdhyd32dvt9df4ed2",
        "value": 958752
      },
      "scriptsig": "",
      "scriptsig_asm": "",
      "witness": [
        "3044022013cb8e38ccafd2936a0661d5ab4d74a9d8bbfed7002aa6426b16045f98117e7502201312f753e6fb5583c24901d12df57d2275b166e84a9c13071aba0d375e3b8bc301",
        "0217c9f49582f7206697c2ca6d7b350b859aa7b7f6f0432323b6ebc9fadfc7b2a2"
      ],
      "is_coinbase": false,
      "sequence": 4294967295
    },
    {
      "txid": "9dc4b363771200fe08b8765e4a2ff6b4a3e4919d86956c798161abbfbda6a524",
      "vout": 3,
      "prevout": {
        "scriptpubkey": "00142679211d26c7dd51a11b3bb2f0ef0798299a4ad9",
        "scriptpubkey_asm": "OP_0 OP_PUSHBYTES_20 2679211d26c7dd51a11b3bb2f0ef0798299a4ad9",
        "scriptpubkey_type": "v0_p2wpkh",
        "scriptpubkey_address": "bc1qyeujz8fxclw4rggm8we0pmc8nq5e5jkexhqmaj",
        "value": 1289360
      },
      "scriptsig": "",
      "scriptsig_asm": "",
      "witness": [
        "304402203a1ff1af2fbb9b3be7a92a076564f7d266c61a87b150a5e31383241aa3e34f6702204394362a7ccbb960731f7e30e5ce69b5e442c1125f66bbdfe75be4434560fa8201",
        "0296057880f7766a2ea0594e67d853129bc9d09f907b5c68ec6b782f174d8e0c8e"
      ],
      "is_coinbase": false,
      "sequence": 4294967295
    },
    {
      "txid": "d79d1af0730f25b4bdbed26e71f971d06e6a98677347a0c9f9c92b0ff258abd0",
      "vout": 1,
      "prevout": {
        "scriptpubkey": "0014e26c41ac2d358168c0786e4427391a94e6c78c6f",
        "scriptpubkey_asm": "OP_0 OP_PUSHBYTES_20 e26c41ac2d358168c0786e4427391a94e6c78c6f",
        "scriptpubkey_type": "v0_p2wpkh",
        "scriptpubkey_address": "bc1qufkyrtpdxkqk3srcdezzwwg6jnnv0rr08w2gxy",
        "value": 2436155
      },
      "scriptsig": "",
      "scriptsig_asm": "",
      "witness": [
        "30440220171b6c02bcb70585d73c502fbb11f8df43c63914ce323a4d27331bc744ddce3f02202ea606acbbc87a25536858ed3b790815019d54acaa663f8153fbb39edcec913801",
        "03f1511f080ed5fd7ed2ab64cce3b7a7285aab92f8965cf4ac80033de420729182"
      ],
      "is_coinbase": false,
      "sequence": 4294967295
    }
  ],
  "vout": [
    {
      "scriptpubkey": "76a9141d9b35b066dd3106e757ebdf22ebb682672d17b788ac",
      "scriptpubkey_asm": "OP_DUP OP_HASH160 OP_PUSHBYTES_20 1d9b35b066dd3106e757ebdf22ebb682672d17b7 OP_EQUALVERIFY OP_CHECKSIG",
      "scriptpubkey_type": "p2pkh",
      "scriptpubkey_address": "13hYXiyVemcDnXqUehzbBs8yiVsXtT25RD",
      "value": 4845000
    }
  ],
  "size": 638,
  "weight": 1262,
  "fee": 7114,
  "status": {
    "confirmed": true,
    "block_height": 834638,
    "block_hash": "000000000000000000025f742c626208ac87e0b7d15054abb4a19ca2d735a54e",
    "block_time": 1710405325
  },
  "hex": "01000000000104a1c35c3254707658387f056de4cc00597f382e3942f727432019f2abe64775417900000000ffffffff7aec33f835471e9bdcfba0050e81b79abfecc9aff6f089c14e39972200475f5d0100000000ffffffff24a5a6bdbfab6181796c95869d91e4a3b4f62f4a5e76b808fe00127763b3c49d0300000000ffffffffd0ab58f20f2bc9f9c9a0477367986a6ed071f9716ed2bebdb4250f73f01a9dd70100000000ffffffff01c8ed4900000000001976a9141d9b35b066dd3106e757ebdf22ebb682672d17b788ac0247304402206afdf84a8d1bfdae496b2e7dec7e68d4703c41d25fd9f480dd90cd8d5cbc5a760220014b29595ab4f334d0c5e9651d5c225af10fd506ea1d0fd839d9e80df7f20f22012102e7b6f2a209115cb118bdfc4fc0c56f3b1afecc99f8770c2088b9a0e16dcc831a02473044022013cb8e38ccafd2936a0661d5ab4d74a9d8bbfed7002aa6426b16045f98117e7502201312f753e6fb5583c24901d12df57d2275b166e84a9c13071aba0d375e3b8bc301210217c9f49582f7206697c2ca6d7b350b859aa7b7f6f0432323b6ebc9fadfc7b2a20247304402203a1ff1af2fbb9b3be7a92a076564f7d266c61a87b150a5e31383241aa3e34f6702204394362a7ccbb960731f7e30e5ce69b5e442c1125f66bbdfe75be4434560fa8201210296057880f7766a2ea0594e67d853129bc9d09f907b5c68ec6b782f174d8e0c8e024730440220171b6c02bcb70585d73c502fbb11f8df43c63914ce323a4d27331bc744ddce3f02202ea606acbbc87a25536858ed3b790815019d54acaa663f8153fbb39edcec9138012103f1511f080ed5fd7ed2ab64cce3b7a7285aab92f8965cf4ac80033de42072918200000000"
}