{
  "txid": "7aa52b08c68ca8da95b9936bdc052619e283a834622c2eee9e6cb0aa8e97f511",
  "version": 2,
  "locktime": 0,
  "vin": [
    {
      "txid": "34239c06068cd57e983e24cebd87061dbf2d8352f04335753097f1edf702c641",
      "vout": 0,
      "prevout": {
        "scriptpubkey": "0014d99e98c1e95a97abeb4dc791bbf91a4aa6f1e25a",
        "scriptpubkey_asm": "OP_0 OP_PUSHBYTES_20 d99e98c1e95a97abeb4dc791bbf91a4aa6f1e25a",
        "scriptpubkey_type": "v0_p2wpkh",
        "scriptpubkey_address": "bc1qmx0f3s0ft2t6h66dc7gmh7g6f2n0rcj698cxjr",
        "value": 843313
      },
      "scriptsig": "",
      "scriptsig_asm": "",
      "witness": [
        "30450221009c0622212349c55ecfc5884e23d491fcf305175c93a9c33f0c86753310ab580b022009165b670bfa27edfc7649d00f3a0ed5d93cf1c0ed041e9f634d1a31b5ce1eb401",
        "035e82144bf19386cdcca922a2f6d2450801625c7ae4767bae3b40802d9c243de1"
      ],
      "is_coinbase": false,
      "sequence": 4294967293
    }
  ],
  "vout": [
    {
      "scriptpubkey": "00146950e289386dc09cd67fb2948c5577db57ea42f3",
      "scriptpubkey_asm": "OP_0 OP_PUSHBYTES_20 6950e289386dc09cd67fb2948c5577db57ea42f3",
      "scriptpubkey_type": "v0_p2wpkh",
      "scriptpubkey_address": "bc1qd9gw9zfcdhqfe4nlk22gc4thmdt75shnegtmsd",
      "value": 699763
    },
    {
      "scriptpubkey": "a914dd357be5ac164b517aec1f424e13828323a9291987",
      "scriptpubkey_asm": "OP_HASH160 OP_PUSHBYTES_20 dd357be5ac164b517aec1f424e13828323a92919 OP_EQUAL",
      "scriptpubkey_type": "p2sh",
      "scriptpubkey_address": "3MrfL51MYkaBpgLxHmJWz8imAuhmtNkC4m",
      "value": 142020
    }
  ],
  "size": 224,
  "weight": 566,
  "fee": 1530,
  "status": {
    "confirmed": true,
    "block_height": 834464,
    "block_hash": "0000000000000000000177a0869a911a2b65c9bdcd5a8bcb02b68f305bee848e",
    "block_time": 1710308296
  },
  "hex": "0200000000010141c602f7edf19730753543f052832dbf1d0687bdce243e987ed58c06069c23340000000000fdffffff0273ad0a00000000001600146950e289386dc09cd67fb2948c5577db57ea42f3c42a02000000000017a914dd357be5ac164b517aec1f424e13828323a9291987024830450221009c0622212349c55ecfc5884e23d491fcf305175c93a9c33f0c86753310ab580b022009165b670bfa27edfc7649d00f3a0ed5d93cf1c0ed041e9f634d1a31b5ce1eb40121035e82144bf19386cdcca922a2f6d2450801625c7ae4767bae3b40802d9c243de100000000"
}