{
  "txid": "7ab188a5b0c7741fbb3e2c0b1f8afdaccddd93e11e3fb1ecde1c8783ccc84933",
  "version": 2,
  "locktime": 834637,
  "vin": [
    {
      "txid": "9c3cef4d0935dc769583d418d839cf819dae3676a6804e0ec4291a2ad108c5b9",
      "vout": 0,
      "prevout": {
        "scriptpubkey": "001462f9017a3a30900971604cd975f45cc5719d565f",
        "scriptpubkey_asm": "OP_0 OP_PUSHBYTES_20 62f9017a3a30900971604cd975f45cc5719d565f",
        "scriptpubkey_type": "v0_p2wpkh",
        "scriptpubkey_address": "bc1qvtusz736xzgqjutqfnvhtazuc4ce64jlk03hsg",
        "value": 5819457
      },
      "scriptsig": "",
      "scriptsig_asm": "",
      "witness": [
        "304402203b2d54526ad075c6f76ba1130beb9d84fd5f99737e6ede1427d044df036c1c0c02203e03df50dc80d96810ff5934878618ef1da31a9596893e076d6b08889a07f2ae01",
        "0319e992e5edf143e1ddc94db46d093afc951cd7cd7c65c678232ece653ba482e9"
      ],
      "is_coinbase": false,
      "sequence": 4294967293
    },
    {
      "txid": "a6ad2ee0adccef17cf68785ac30e9b196947bf79ef449caa0958480369299973",
      "vout": 1,
      "prevout": {
        "scriptpubkey": "001437779d7aaa6b89034396b4b99489c657e2a5f7ec",
        "scriptpubkey_asm": "OP_0 OP_PUSHBYTES_20 37779d7aaa6b89034396b4b99489c657e2a5f7ec",
        "scriptpubkey_type": "v0_p2wpkh",
        "scriptpubkey_address": "bc1qxame6742dwysxsukkjuefzwx2l32talvfltekt",
        "value": 2215
      },
      "scriptsig": "",
      "scriptsig_asm": "",
      "witness": [
        "304402207c60d3e6a4cb5547ffcd8195c8bca82b4f8357520feaeb7971f30ee35a4794f1022066427d72020b9368f7910ed4437e8f4748083bc0efda8ea8835fc0ada3f28ad101",
        "028ac4a68bcaa7158e1318db2c14592e3039c29149c644b8e9246c1d8d118b196d"
      ],
      "is_coinbase": false,
      "sequence": 4294967293
    }
  ],
  "vout": [
    {
      "scriptpubkey": "0014678f39de8f529147e6607686cad08d42033bd814",
      "scriptpubkey_asm": "OP_0 OP_PUSHBYTES_20 678f39de8f529147e6607686cad08d42033bd814",
      "scriptpubkey_type": "v0_p2wpkh",
      "scriptpubkey_address": "bc1qv78nnh5022g50enqw6rv45ydggpnhkq5c3xz35",
      "value": 130336
    },
    {
      "scriptpubkey": "0014551d9f6cf65f196631526a06244f10ea32087032",
      "scriptpubkey_asm": "OP_0 OP_PUSHBYTES_20 551d9f6cf65f196631526a06244f10ea32087032",
      "scriptpubkey_type": "v0_p2wpkh",
      "scriptpubkey_address": "bc1q25we7m8ktuvkvv2jdgrzgncsageqsupjdklf3e",
      "value": 5685928
    }
  ],
  "size": 370,
  "weight": 832,
  "fee": 5408,
  "status": {
    "confirmed": true,
    "block_height": 834638,
    "block_hash": "000000000000000000025f742c626208ac87e0b7d15054abb4a19ca2d735a54e",
    "block_time": 1710405325
  },
  "hex": "02000000000102b9c508d12a1a29c40e4e80a67636ae9d81cf39d818d4839576dc35094def3c9c0000000000fdffffff7399296903485809aa9c44ef79bf4769199b0ec35a7868cf17efccade02eada60100000000fdffffff0220fd010000000000160014678f39de8f529147e6607686cad08d42033bd814a8c2560000000000160014551d9f6cf65f196631526a06244f10ea320870320247304402203b2d54526ad075c6f76ba1130beb9d84fd5f99737e6ede1427d044df036c1c0c02203e03df50dc80d96810ff5934878618ef1da31a9596893e076d6b08889a07f2ae01210319e992e5edf143e1ddc94db46d093afc951cd7cd7c65c678232ece653ba482e90247304402207c60d3e6a4cb5547ffcd8195c8bca82b4f8357520feaeb7971f30ee35a4794f1022066427d72020b9368f7910ed4437e8f4748083bc0efda8ea8835fc0ada3f28ad10121028ac4a68bcaa7158e1318db2c14592e3039c29149c644b8e9246c1d8d118b196d4dbc0c00"
}