{
  "txid": "7ab4ccef3e61177373bb8f4cb731a1351aa465a71c1ecb11ba22a41d8ed4da28",
  "version": 1,
  "locktime": 0,
  "vin": [
    {
      "txid": "98aa378444f47fa97c5eabfa23cce64255533e2a2f2a9487c0ef6bf409ed7729",
      "vout": 5,
      "prevout": {
        "scriptpubkey": "00200578c805dee49222cef6167fbc7bf77024993e4153717eea29eb665851941429",
        "scriptpubkey_asm": "OP_0 OP_PUSHBYTES_32 0578c805dee49222cef6167fbc7bf77024993e4153717eea29eb665851941429",
        "scriptpubkey_type": "v0_p2wsh",
        "scriptpubkey_address": "bc1qq4uvspw7ujfz9nhkzelmc7lhwqjfj0jp2dcha63fadn9s5v5zs5sgdaa98",
        "value": 10293927
      },
      "scriptsig": "",
      "scriptsig_asm": "",
      "witness": [
        "",
        "30440220065d92d7be0dda3e92f03ba31b6815726c037c67d8c940c851fd03d11a9a8c2b02205bb8e465787813b51b1ba1b1ea16d705bbb32a42a589cc9fd84e27137fd3af2401",
        "304402206fa13d28f249b3aaaffd5a1a85a32706bd3f7e7f52e4b73b36731b175a34ccd802200ac963dd4b087f38de64808e5859036ab5825230b8b1fa273a208914d0a8047901",
        "522102bd99015edcb22822ab82cf16319ae420d02f330cdc74de9472dc600ac9178f402102bd9c36bb33a0286b9fe76c93c251db8fbda30eda3ec595a7e1c5e48dddb3357b2103d8929587c55bc57555eb4c1a9859ab1f222f0d370bfbd0917bf71b8f4e38db5653ae"
      ],
      "is_coinbase": false,
      "sequence": 4294967295,
      "inner_witnessscript_asm": "OP_PUSHNUM_2 OP_PUSHBYTES_33 02bd99015edcb22822ab82cf16319ae420d02f330cdc74de9472dc600ac9178f40 OP_PUSHBYTES_33 02bd9c36bb33a0286b9fe76c93c251db8fbda30eda3ec595a7e1c5e48dddb3357b OP_PUSHBYTES_33 03d8929587c55bc57555eb4c1a9859ab1f222f0d370bfbd0917bf71b8f4e38db56 OP_PUSHNUM_3 OP_CHECKMULTISIG"
    }
  ],
  "vout": [
    {
      "scriptpubkey": "a914271b4cb59c0113f13fb395fba9b9eec2dafe25ca87",
      "scriptpubkey_asm": "OP_HASH160 OP_PUSHBYTES_20 271b4cb59c0113f13fb395fba9b9eec2dafe25ca OP_EQUAL",
      "scriptpubkey_type": "p2sh",
      "scriptpubkey_address": "35FnyqYdv4BE1uQziprh3dQqJRFcnBDoAp",
      "value": 20073
    },
    {
      "scriptpubkey": "00148a8611aa888225c73734445c4695792875fe5041",
      "scriptpubkey_asm": "OP_0 OP_PUSHBYTES_20 8a8611aa888225c73734445c4695792875fe5041",
      "scriptpubkey_type": "v0_p2wpkh",
      "scriptpubkey_address": "bc1q32rpr25gsgjuwde5g3wyd9te9p6lu5zpzundjv",
      "value": 30726
    },
    {
      "scriptpubkey": "00144baaed64276a040577a81f84ba69fc655c393ea3",
      "scriptpubkey_asm": "OP_0 OP_PUSHBYTES_20 4baaed64276a040577a81f84ba69fc655c393ea3",
      "scriptpubkey_type": "v0_p2wpkh",
      "scriptpubkey_address": "bc1qfw4w6ep8dgzq2aagr7zt560uv4wrj04rclarlc",
      "value": 31395
    },
    {
      "scriptpubkey": "a9142e1722ac8d534b51efab1facd36dc2ba4109bedd87",
      "scriptpubkey_asm": "OP_HASH160 OP_PUSHBYTES_20 2e1722ac8d534b51efab1facd36dc2ba4109bedd OP_EQUAL",
      "scriptpubkey_type": "p2sh",
      "scriptpubkey_address": "35tiir5AgjJ9ykh9ezjTTrmxPz5pnaPn4r",
      "value": 39659
    },
    {
      "scriptpubkey": "00141d531d1ecc35e588e91a18fd1b3663efaefeb092",
      "scriptpubkey_asm": "OP_0 OP_PUSHBYTES_20 1d531d1ecc35e588e91a18fd1b3663efaefeb092",
      "scriptpubkey_type": "v0_p2wpkh",
      "scriptpubkey_address": "bc1qr4f368kvxhjc36g6rr73kdnra7h0avyjgl6zuv",
      "value": 40097
    },
    {
      "scriptpubkey": "0014485f265b7868ab7ce358fd7367d8a24a7b06331f",
      "scriptpubkey_asm": "OP_0 OP_PUSHBYTES_20 485f265b7868ab7ce358fd7367d8a24a7b06331f",
      "scriptpubkey_type": "v0_p2wpkh",
      "scriptpubkey_address": "bc1qfp0jvkmcdz4hec6cl4ek0k9zffasvvcl4853kx",
      "value": 56425
    },
    {
      "scriptpubkey": "00143d5f76ca6c0c8f9e4629e05ceb16509e36035c04",
      "scriptpubkey_asm": "OP_0 OP_PUSHBYTES_20 3d5f76ca6c0c8f9e4629e05ceb16509e36035c04",
      "scriptpubkey_type": "v0_p2wpkh",
      "scriptpubkey_address": "bc1q840hdjnvpj8eu33fupwwk9jsncmqxhqy59z4z7",
      "value": 221278
    },
    {
      "scriptpubkey": "0020794be102225b0681cb7c498669785dc13db5c1eb0b5aee092bab691b24a3db77",
      "scriptpubkey_asm": "OP_0 OP_PUSHBYTES_32 794be102225b0681cb7c498669785dc13db5c1eb0b5aee092bab691b24a3db77",
      "scriptpubkey_type": "v0_p2wsh",
      "scriptpubkey_address": "bc1q0997zq3ztvrgrjmufxrxj7zacy7mts0tpddwuzft4d53kf9rmdmsx3uqkq",
      "value": 9838790
    }
  ],
  "size": 567,
  "weight": 1506,
  "fee": 15484,
  "status": {
    "confirmed": true,
    "block_height": 834638,
    "block_hash": "000000000000000000025f742c626208ac87e0b7d15054abb4a19ca2d735a54e",
    "block_time": 1710405325
  },
  "hex": "010000000001012977ed09f46befc087942a2f2a3e535542e6cc23faab5e7ca97ff4448437aa980500000000ffffffff08694e00000000000017a914271b4cb59c0113f13fb395fba9b9eec2dafe25ca8706780000000000001600148a8611aa888225c73734445c4695792875fe5041a37a0000000000001600144baaed64276a040577a81f84ba69fc655c393ea3eb9a00000000000017a9142e1722ac8d534b51efab1facd36dc2ba4109bedd87a19c0000000000001600141d531d1ecc35e588e91a18fd1b3663efaefeb09269dc000000000000160014485f265b7868ab7ce358fd7367d8a24a7b06331f5e600300000000001600143d5f76ca6c0c8f9e4629e05ceb16509e36035c04c620960000000000220020794be102225b0681cb7c498669785dc13db5c1eb0b5aee092bab691b24a3db7704004730440220065d92d7be0dda3e92f03ba31b6815726c037c67d8c940c851fd03d11a9a8c2b02205bb8e465787813b51b1ba1b1ea16d705bbb32a42a589cc9fd84e27137fd3af240147304402206fa13d28f249b3aaaffd5a1a85a32706bd3f7e7f52e4b73b36731b175a34ccd802200ac963dd4b087f38de64808e5859036ab5825230b8b1fa273a208914d0a804790169522102bd99015edcb22822ab82cf16319ae420d02f330cdc74de9472dc600ac9178f402102bd9c36bb33a0286b9fe76c93c251db8fbda30eda3ec595a7e1c5e48dddb3357b2103d8929587c55bc57555eb4c1a9859ab1f222f0d370bfbd0917bf71b8f4e38db5653ae00000000"
}