{
  "txid": "7ab537baeb7583cbaa96ab0aad7a8ff9666e48e5f21d4a18a60384700e3ce3b0",
  "version": 2,
  "locktime": 0,
  "vin": [
    {
      "txid": "649cadb5cbf9fe6935b71b8ef5cfc57b86ce2c0d60a10635414b99e5bcd7d8ed",
      "vout": 0,
      "prevout": {
        "scriptpubkey": "a914cf7cf6923dce3c125a24f94cf154870bfa5d5c8887",
        "scriptpubkey_asm": "OP_HASH160 OP_PUSHBYTES_20 cf7cf6923dce3c125a24f94cf154870bfa5d5c88 OP_EQUAL",
        "scriptpubkey_type": "p2sh",
        "scriptpubkey_address": "3Lc7Vr1gUfnAPFRnZ9imdn9ytTczMPYvwu",
        "value": 2490398
      },
      "scriptsig": "160014d843e4d4d51e4f25d7edd10c0eebae6052afdede",
      "scriptsig_asm": "OP_PUSHBYTES_22 0014d843e4d4d51e4f25d7edd10c0eebae6052afdede",
      "witness": [
        "30440220725d8183211926d49310fa3c468834a10cf1047db4a19ef64236a0ded047e9a502200f4ee3feb0a9f63f3c9bcf4417d5aff345fb0f5baab2b556217c7b3e304a5f2101",
        "025ea77f16df37ed4c30d0c2a44a84046f0b25669924dbb00821593e7d0c32c604"
      ],
      "is_coinbase": false,
      "sequence": 4294967295,
      "inner_redeemscript_asm": "OP_0 OP_PUSHBYTES_20 d843e4d4d51e4f25d7edd10c0eebae6052afdede"
    }
  ],
  "vout": [
    {
      "scriptpubkey": "0014803d7675ebba8f27eb581d369558e8cd6d8ba7d5",
      "scriptpubkey_asm": "OP_0 OP_PUSHBYTES_20 803d7675ebba8f27eb581d369558e8cd6d8ba7d5",
      "scriptpubkey_type": "v0_p2wpkh",
      "scriptpubkey_address": "bc1qsq7hva0th28j066cr5mf2k8ge4kchf74ayne7t",
      "value": 2485748
    }
  ],
  "size": 214,
  "weight": 529,
  "fee": 4650,
  "status": {
    "confirmed": true,
    "block_height": 834638,
    "block_hash": "000000000000000000025f742c626208ac87e0b7d15054abb4a19ca2d735a54e",
    "block_time": 1710405325
  },
  "hex": "02000000000101edd8d7bce5994b413506a1600d2cce867bc5cff58e1bb73569fef9cbb5ad9c640000000017160014d843e4d4d51e4f25d7edd10c0eebae6052afdedeffffffff01f4ed250000000000160014803d7675ebba8f27eb581d369558e8cd6d8ba7d5024730440220725d8183211926d49310fa3c468834a10cf1047db4a19ef64236a0ded047e9a502200f4ee3feb0a9f63f3c9bcf4417d5aff345fb0f5baab2b556217c7b3e304a5f210121025ea77f16df37ed4c30d0c2a44a84046f0b25669924dbb00821593e7d0c32c60400000000"
}