{
  "txid": "7aba9de134daa8a077c44c67de6e6bdf64d344f80c3651995b14ef4fb402a2a5",
  "version": 2,
  "locktime": 0,
  "vin": [
    {
      "txid": "5e6197dbc25abd3a9b2af9a8e55458a9b7b7a85c4a13cfdadb9e187ce9334588",
      "vout": 3,
      "prevout": {
        "scriptpubkey": "51206738d5147ddf7d8d7737beea5615e63439cc6759385180d9b2abde2165d07b12",
        "scriptpubkey_asm": "OP_PUSHNUM_1 OP_PUSHBYTES_32 6738d5147ddf7d8d7737beea5615e63439cc6759385180d9b2abde2165d07b12",
        "scriptpubkey_type": "v1_p2tr",
        "scriptpubkey_address": "bc1pvuud29rama7c6aehhm49v90xxsuuce6e8pgcpkdj400zzews0vfqfs2xvd",
        "value": 600
      },
      "scriptsig": "",
      "scriptsig_asm": "",
      "witness": [
        "42a0928529ab59bfc67993eb2cfb1d72911fed3e8de4c560c2eab4a001cebb214401dadd2c0493efc5bdc024e9294d17dd3734cb6fc0410550da4a04186abdc4"
      ],
      "is_coinbase": false,
      "sequence": 4294967295
    },
    {
      "txid": "f9f2067be86bf9a33b82c50bfee830047811d24f94c719a3c3e5285f210f086f",
      "vout": 5,
      "prevout": {
        "scriptpubkey": "51206738d5147ddf7d8d7737beea5615e63439cc6759385180d9b2abde2165d07b12",
        "scriptpubkey_asm": "OP_PUSHNUM_1 OP_PUSHBYTES_32 6738d5147ddf7d8d7737beea5615e63439cc6759385180d9b2abde2165d07b12",
        "scriptpubkey_type": "v1_p2tr",
        "scriptpubkey_address": "bc1pvuud29rama7c6aehhm49v90xxsuuce6e8pgcpkdj400zzews0vfqfs2xvd",
        "value": 600
      },
      "scriptsig": "",
      "scriptsig_asm": "",
      "witness": [
        "b9d19c7160d923eec314c51881957fa6027da28b46cf835fed08dc80dbe94066263d962e882e43d63294ca0da9f1f26607b9693d3680f1d01352ddbcbf948828"
      ],
      "is_coinbase": false,
      "sequence": 4294967295
    },
    {
      "txid": "c89998a53471308b40f778325b8bd11eb78fa5b463138be2e9b9c793bd1e9c30",
      "vout": 1,
      "prevout": {
        "scriptpubkey": "512025a6cb1be46f9b558e86f62db73cf12dcb883450b513669c72b1799be3d719e5",
        "scriptpubkey_asm": "OP_PUSHNUM_1 OP_PUSHBYTES_32 25a6cb1be46f9b558e86f62db73cf12dcb883450b513669c72b1799be3d719e5",
        "scriptpubkey_type": "v1_p2tr",
        "scriptpubkey_address": "bc1pyknvkxlyd7d4tr5x7ckmw0839h9csdzsk5fkd8rjk9uehc7hr8jspctyvw",
        "value": 1521924
      },
      "scriptsig": "",
      "scriptsig_asm": "",
      "witness": [
        "612df80a166f44d3e17eef77386a8c95fa04535bb8b104ea0219f5406a5cfe826ecb9bea8b101de713df12dd46f103ddd5042ad041627868fa51c93b1f576f2683"
      ],
      "is_coinbase": false,
      "sequence": 4294967295
    },
    {
      "txid": "dfa57658052ba62cf2940160c6254e9b09dc6b66c7c0ceb27e1fb3335697b213",
      "vout": 0,
      "prevout": {
        "scriptpubkey": "51206738d5147ddf7d8d7737beea5615e63439cc6759385180d9b2abde2165d07b12",
        "scriptpubkey_asm": "OP_PUSHNUM_1 OP_PUSHBYTES_32 6738d5147ddf7d8d7737beea5615e63439cc6759385180d9b2abde2165d07b12",
        "scriptpubkey_type": "v1_p2tr",
        "scriptpubkey_address": "bc1pvuud29rama7c6aehhm49v90xxsuuce6e8pgcpkdj400zzews0vfqfs2xvd",
        "value": 1775944
      },
      "scriptsig": "",
      "scriptsig_asm": "",
      "witness": [
        "d44b3705971bb00c4544096ec9317d51cf38c0fdcda0306827b2c1ca3745acde15bc592c1fdcff8d20eb23095ca5a4b4aef8b4ab87048cf558b22c6f1f179fbc"
      ],
      "is_coinbase": false,
      "sequence": 4294967295
    },
    {
      "txid": "46e8e365435112ea61d4a031524a70d0b0ed436d2add67a23bb759a755aba82f",
      "vout": 2,
      "prevout": {
        "scriptpubkey": "51206738d5147ddf7d8d7737beea5615e63439cc6759385180d9b2abde2165d07b12",
        "scriptpubkey_asm": "OP_PUSHNUM_1 OP_PUSHBYTES_32 6738d5147ddf7d8d7737beea5615e63439cc6759385180d9b2abde2165d07b12",
        "scriptpubkey_type": "v1_p2tr",
        "scriptpubkey_address": "bc1pvuud29rama7c6aehhm49v90xxsuuce6e8pgcpkdj400zzews0vfqfs2xvd",
        "value": 418446
      },
      "scriptsig": "",
      "scriptsig_asm": "",
      "witness": [
        "bf450894077142b659dcafbb0b39a54f7857179fa3391ce90170a52ba885cc87be04f3029000bc13aa0851dc7abdfc772efd2e434d7c360ad2d66e39c3fc4e8e"
      ],
      "is_coinbase": false,
      "sequence": 4294967295
    }
  ],
  "vout": [
    {
      "scriptpubkey": "51206738d5147ddf7d8d7737beea5615e63439cc6759385180d9b2abde2165d07b12",
      "scriptpubkey_asm": "OP_PUSHNUM_1 OP_PUSHBYTES_32 6738d5147ddf7d8d7737beea5615e63439cc6759385180d9b2abde2165d07b12",
      "scriptpubkey_type": "v1_p2tr",
      "scriptpubkey_address": "bc1pvuud29rama7c6aehhm49v90xxsuuce6e8pgcpkdj400zzews0vfqfs2xvd",
      "value": 1200
    },
    {
      "scriptpubkey": "51206738d5147ddf7d8d7737beea5615e63439cc6759385180d9b2abde2165d07b12",
      "scriptpubkey_asm": "OP_PUSHNUM_1 OP_PUSHBYTES_32 6738d5147ddf7d8d7737beea5615e63439cc6759385180d9b2abde2165d07b12",
      "scriptpubkey_type": "v1_p2tr",
      "scriptpubkey_address": "bc1pvuud29rama7c6aehhm49v90xxsuuce6e8pgcpkdj400zzews0vfqfs2xvd",
      "value": 1521924
    },
    {
      "scriptpubkey": "0014392f28fde2dcf2cccbd05885e22d7b823fb2b5d9",
      "scriptpubkey_asm": "OP_0 OP_PUSHBYTES_20 392f28fde2dcf2cccbd05885e22d7b823fb2b5d9",
      "scriptpubkey_type": "v0_p2wpkh",
      "scriptpubkey_address": "bc1q8yhj3l0zmnevej7stzz7yttmsglm9dwehp26wh",
      "value": 1824788
    },
    {
      "scriptpubkey": "a914ea6b832a05c6ca578baa3836f3f25553d41068a587",
      "scriptpubkey_asm": "OP_HASH160 OP_PUSHBYTES_20 ea6b832a05c6ca578baa3836f3f25553d41068a5 OP_EQUAL",
      "scriptpubkey_type": "p2sh",
      "scriptpubkey_address": "3P4WqXDbSLRhzo2H6MT6YFbvBKBDPLbVtQ",
      "value": 7609
    },
    {
      "scriptpubkey": "51206738d5147ddf7d8d7737beea5615e63439cc6759385180d9b2abde2165d07b12",
      "scriptpubkey_asm": "OP_PUSHNUM_1 OP_PUSHBYTES_32 6738d5147ddf7d8d7737beea5615e63439cc6759385180d9b2abde2165d07b12",
      "scriptpubkey_type": "v1_p2tr",
      "scriptpubkey_address": "bc1pvuud29rama7c6aehhm49v90xxsuuce6e8pgcpkdj400zzews0vfqfs2xvd",
      "value": 600
    },
    {
      "scriptpubkey": "51206738d5147ddf7d8d7737beea5615e63439cc6759385180d9b2abde2165d07b12",
      "scriptpubkey_asm": "OP_PUSHNUM_1 OP_PUSHBYTES_32 6738d5147ddf7d8d7737beea5615e63439cc6759385180d9b2abde2165d07b12",
      "scriptpubkey_type": "v1_p2tr",
      "scriptpubkey_address": "bc1pvuud29rama7c6aehhm49v90xxsuuce6e8pgcpkdj400zzews0vfqfs2xvd",
      "value": 600
    },
    {
      "scriptpubkey": "51206738d5147ddf7d8d7737beea5615e63439cc6759385180d9b2abde2165d07b12",
      "scriptpubkey_asm": "OP_PUSHNUM_1 OP_PUSHBYTES_32 6738d5147ddf7d8d7737beea5615e63439cc6759385180d9b2abde2165d07b12",
      "scriptpubkey_type": "v1_p2tr",
      "scriptpubkey_address": "bc1pvuud29rama7c6aehhm49v90xxsuuce6e8pgcpkdj400zzews0vfqfs2xvd",
      "value": 352123
    }
  ],
  "size": 826,
  "weight": 2305,
  "fee": 8670,
  "status": {
    "confirmed": true,
    "block_height": 834638,
    "block_hash": "000000000000000000025f742c626208ac87e0b7d15054abb4a19ca2d735a54e",
    "block_time": 1710405325
  },
  "hex": "02000000000105884533e97c189edbdacf134a5ca8b7b7a95854e5a8f92a9b3abd5ac2db97615e0300000000ffffffff6f080f215f28e5c3a319c7944fd211780430e8fe0bc5823ba3f96be87b06f2f90500000000ffffffff309c1ebd93c7b9e9e28b1363b4a58fb71ed18b5b3278f7408b307134a59899c80100000000ffffffff13b2975633b31f7eb2cec0c7666bdc099b4e25c6600194f22ca62b055876a5df0000000000ffffffff2fa8ab55a759b73ba267dd2a6d43edb0d0704a5231a0d461ea12514365e3e8460200000000ffffffff07b0040000000000002251206738d5147ddf7d8d7737beea5615e63439cc6759385180d9b2abde2165d07b1204391700000000002251206738d5147ddf7d8d7737beea5615e63439cc6759385180d9b2abde2165d07b1214d81b0000000000160014392f28fde2dcf2cccbd05885e22d7b823fb2b5d9b91d00000000000017a914ea6b832a05c6ca578baa3836f3f25553d41068a58758020000000000002251206738d5147ddf7d8d7737beea5615e63439cc6759385180d9b2abde2165d07b1258020000000000002251206738d5147ddf7d8d7737beea5615e63439cc6759385180d9b2abde2165d07b127b5f0500000000002251206738d5147ddf7d8d7737beea5615e63439cc6759385180d9b2abde2165d07b12014042a0928529ab59bfc67993eb2cfb1d72911fed3e8de4c560c2eab4a001cebb214401dadd2c0493efc5bdc024e9294d17dd3734cb6fc0410550da4a04186abdc40140b9d19c7160d923eec314c51881957fa6027da28b46cf835fed08dc80dbe94066263d962e882e43d63294ca0da9f1f26607b9693d3680f1d01352ddbcbf9488280141612df80a166f44d3e17eef77386a8c95fa04535bb8b104ea0219f5406a5cfe826ecb9bea8b101de713df12dd46f103ddd5042ad041627868fa51c93b1f576f26830140d44b3705971bb00c4544096ec9317d51cf38c0fdcda0306827b2c1ca3745acde15bc592c1fdcff8d20eb23095ca5a4b4aef8b4ab87048cf558b22c6f1f179fbc0140bf450894077142b659dcafbb0b39a54f7857179fa3391ce90170a52ba885cc87be04f3029000bc13aa0851dc7abdfc772efd2e434d7c360ad2d66e39c3fc4e8e00000000"
}