{
  "txid": "7ac9a1a7a96e92108c1c3f755f089211b504c56b25ed59340cf57827f397b9e2",
  "version": 2,
  "locktime": 0,
  "vin": [
    {
      "txid": "83e642b6ed665fdb6cbd28f4c1342c60f92fc7e29de14f265837d0a0c023b11d",
      "vout": 1,
      "prevout": {
        "scriptpubkey": "0014192e80ed2c7c412bdc2a6c8f371d15cb90f3c85b",
        "scriptpubkey_asm": "OP_0 OP_PUSHBYTES_20 192e80ed2c7c412bdc2a6c8f371d15cb90f3c85b",
        "scriptpubkey_type": "v0_p2wpkh",
        "scriptpubkey_address": "bc1qryhgpmfv03qjhhp2dj8nw8g4ewg08jzmgy3cyx",
        "value": 398254040
      },
      "scriptsig": "",
      "scriptsig_asm": "",
      "witness": [
        "304402206acaa37ec5441dff2bc4a872d3c906988d3d3d59d91dcb56f5441f964b4aab74022025baa3251399586ab1004806bdb9ded49f5cd355055b462c6deecb0dbf001e8901",
        "03b01bd095f648ea829f000207087f16622431077bb5cc0875225ada601375c885"
      ],
      "is_coinbase": false,
      "sequence": 4294967293
    }
  ],
  "vout": [
    {
      "scriptpubkey": "0014192e80ed2c7c412bdc2a6c8f371d15cb90f3c85b",
      "scriptpubkey_asm": "OP_0 OP_PUSHBYTES_20 192e80ed2c7c412bdc2a6c8f371d15cb90f3c85b",
      "scriptpubkey_type": "v0_p2wpkh",
      "scriptpubkey_address": "bc1qryhgpmfv03qjhhp2dj8nw8g4ewg08jzmgy3cyx",
      "value": 397643057
    },
    {
      "scriptpubkey": "001465050da54ea4b4c395fd4ced6f7e43bfcfe5beb8",
      "scriptpubkey_asm": "OP_0 OP_PUSHBYTES_20 65050da54ea4b4c395fd4ced6f7e43bfcfe5beb8",
      "scriptpubkey_type": "v0_p2wpkh",
      "scriptpubkey_address": "bc1qv5zsmf2w5j6v890afnkk7ljrhl87t04c9nge3e",
      "value": 604497
    }
  ],
  "size": 222,
  "weight": 561,
  "fee": 6486,
  "status": {
    "confirmed": true,
    "block_height": 834638,
    "block_hash": "000000000000000000025f742c626208ac87e0b7d15054abb4a19ca2d735a54e",
    "block_time": 1710405325
  },
  "hex": "020000000001011db123c0a0d03758264fe19de2c72ff9602c34c1f428bd6cdb5f66edb642e6830100000000fdffffff02318db31700000000160014192e80ed2c7c412bdc2a6c8f371d15cb90f3c85b513909000000000016001465050da54ea4b4c395fd4ced6f7e43bfcfe5beb80247304402206acaa37ec5441dff2bc4a872d3c906988d3d3d59d91dcb56f5441f964b4aab74022025baa3251399586ab1004806bdb9ded49f5cd355055b462c6deecb0dbf001e89012103b01bd095f648ea829f000207087f16622431077bb5cc0875225ada601375c88500000000"
}