{
  "txid": "7acc2c68154f3c016d85743e3ea64c2325b0e4f715c09e20d15af8383b9781f4",
  "version": 2,
  "locktime": 0,
  "vin": [
    {
      "txid": "acc3ba00869acb582a3f2904ce3a11dd3779350ce234063fc7d0959246213364",
      "vout": 295,
      "prevout": {
        "scriptpubkey": "51203c405adbdbbfe25482dbe8eb65553acc9d9c74cd37736894811ad6fb4de4d4e5",
        "scriptpubkey_asm": "OP_PUSHNUM_1 OP_PUSHBYTES_32 3c405adbdbbfe25482dbe8eb65553acc9d9c74cd37736894811ad6fb4de4d4e5",
        "scriptpubkey_type": "v1_p2tr",
        "scriptpubkey_address": "bc1p83q94k7mhl39fqkmar4k24f6ejwecaxdxaek39yprtt0kn0y6njsatztd9",
        "value": 1806
      },
      "scriptsig": "",
      "scriptsig_asm": "",
      "witness": [
        "575d3bcbb1a73d5a223c51cba6e92fac4239e7496e9846a4f358842ced4412c4d7fe4d9012b3eaa61772430dac2c46ad21c3a2a75611e1d015e6c8ec45c99583",
        "20672da025b51aac39b95f6576c1650f79fc4e6fab1fca670c5247df1fa34aebe8ac0063036f726401010a746578742f706c61696e00357b2270223a226272632d3230222c226f70223a226d696e74222c227469636b223a22646f6765222c22616d74223a2234323030227d68",
        "c0672da025b51aac39b95f6576c1650f79fc4e6fab1fca670c5247df1fa34aebe8"
      ],
      "is_coinbase": false,
      "sequence": 4261412863
    }
  ],
  "vout": [
    {
      "scriptpubkey": "00147a665de7a370f4c9b372ab1fae587500a5bcbdb4",
      "scriptpubkey_asm": "OP_0 OP_PUSHBYTES_20 7a665de7a370f4c9b372ab1fae587500a5bcbdb4",
      "scriptpubkey_type": "v0_p2wpkh",
      "scriptpubkey_address": "bc1q0fn9mearwr6vnvmj4v06ukr4qzjme0d565dzcx",
      "value": 294
    }
  ],
  "size": 294,
  "weight": 540,
  "fee": 1512,
  "status": {
    "confirmed": true,
    "block_height": 834460,
    "block_hash": "00000000000000000000484a79b643b2524bbce82e5d8a442013fa5b8905ed98",
    "block_time": 1710307468
  },
  "hex": "02000000000101643321469295d0c73f0634e20c357937dd113ace04293f2a58cb9a8600bac3ac2701000000fffffffd0126010000000000001600147a665de7a370f4c9b372ab1fae587500a5bcbdb40340575d3bcbb1a73d5a223c51cba6e92fac4239e7496e9846a4f358842ced4412c4d7fe4d9012b3eaa61772430dac2c46ad21c3a2a75611e1d015e6c8ec45c995836d20672da025b51aac39b95f6576c1650f79fc4e6fab1fca670c5247df1fa34aebe8ac0063036f726401010a746578742f706c61696e00357b2270223a226272632d3230222c226f70223a226d696e74222c227469636b223a22646f6765222c22616d74223a2234323030227d6821c0672da025b51aac39b95f6576c1650f79fc4e6fab1fca670c5247df1fa34aebe800000000"
}