{
  "txid": "7aea63730475f78c5fd7ac7024422bceedc91000eba7f19e1c65aaca1b6e2254",
  "version": 2,
  "locktime": 0,
  "vin": [
    {
      "txid": "c945d096e48e572ba8b0581a38f693e11943b4a8ba4cd414d9c01399ba5535e6",
      "vout": 1,
      "prevout": {
        "scriptpubkey": "0014b9660f1af752c87e6e7a3d3f9f08a19836dc466b",
        "scriptpubkey_asm": "OP_0 OP_PUSHBYTES_20 b9660f1af752c87e6e7a3d3f9f08a19836dc466b",
        "scriptpubkey_type": "v0_p2wpkh",
        "scriptpubkey_address": "bc1qh9nq7xhh2ty8umn685le7z9pnqmdc3nta36z5q",
        "value": 170780
      },
      "scriptsig": "",
      "scriptsig_asm": "",
      "witness": [
        "30440220710c8b9b44fbcd27980900c851af1876e4b5c6b3e80d85982a1e32389eeebc9f02200b312c31ca77819f120acba0e9fd68cf66859a188084a6c15b296bdfb8f328d001",
        "02ee443a8c3c916ce54a8a8368d5683c7fd14ef48ae9102d04179945faf71da5e0"
      ],
      "is_coinbase": false,
      "sequence": 4294967295
    }
  ],
  "vout": [
    {
      "scriptpubkey": "a91481bfcd61ed5f39e82a5df8140be7232fd107e61c87",
      "scriptpubkey_asm": "OP_HASH160 OP_PUSHBYTES_20 81bfcd61ed5f39e82a5df8140be7232fd107e61c OP_EQUAL",
      "scriptpubkey_type": "p2sh",
      "scriptpubkey_address": "3DX4rwoHrMoNaFYrr5NLJUGLtJzxqR1HNp",
      "value": 100000
    },
    {
      "scriptpubkey": "0014e834384c078be7dfe124ca04af3762c76cd781b1",
      "scriptpubkey_asm": "OP_0 OP_PUSHBYTES_20 e834384c078be7dfe124ca04af3762c76cd781b1",
      "scriptpubkey_type": "v0_p2wpkh",
      "scriptpubkey_address": "bc1qaq6rsnq830nalcfyegz27dmzcakd0qd3nfg30x",
      "value": 66372
    }
  ],
  "size": 223,
  "weight": 565,
  "fee": 4408,
  "status": {
    "confirmed": true,
    "block_height": 834638,
    "block_hash": "000000000000000000025f742c626208ac87e0b7d15054abb4a19ca2d735a54e",
    "block_time": 1710405325
  },
  "hex": "02000000000101e63555ba9913c0d914d44cbaa8b44319e193f6381a58b0a82b578ee496d045c90100000000ffffffff02a08601000000000017a91481bfcd61ed5f39e82a5df8140be7232fd107e61c874403010000000000160014e834384c078be7dfe124ca04af3762c76cd781b1024730440220710c8b9b44fbcd27980900c851af1876e4b5c6b3e80d85982a1e32389eeebc9f02200b312c31ca77819f120acba0e9fd68cf66859a188084a6c15b296bdfb8f328d0012102ee443a8c3c916ce54a8a8368d5683c7fd14ef48ae9102d04179945faf71da5e000000000"
}