{
  "txid": "7af5d784ed2347849ed485aa544625cfc10da0bea977667e9c0dabed82130418",
  "version": 1,
  "locktime": 0,
  "vin": [
    {
      "txid": "5017a26ebe3716014548373ce35c1688b59fe000e0930b9c3f095f5dcf140de8",
      "vout": 1,
      "prevout": {
        "scriptpubkey": "001403d56f516b601904a4916617962a8fa6ed23056b",
        "scriptpubkey_asm": "OP_0 OP_PUSHBYTES_20 03d56f516b601904a4916617962a8fa6ed23056b",
        "scriptpubkey_type": "v0_p2wpkh",
        "scriptpubkey_address": "bc1qq02k75ttvqvsffy3vctev2505mkjxpttrgqey4",
        "value": 444349
      },
      "scriptsig": "",
      "scriptsig_asm": "",
      "witness": [
        "3045022100b17909a36fab6da6d94749c3ecee071ca8f5f63c458938e64aabd1e7d36fea2f022007bde7aa0165756d6ef8133200a9f8e59f7fa17a45a46831b0b165c80deedb9f01",
        "03eef779677661eb696e6be613abed318b6b9a759df32cf6871adb4321810a209d"
      ],
      "is_coinbase": false,
      "sequence": 4294967295
    }
  ],
  "vout": [
    {
      "scriptpubkey": "a9147e1a647f792aaeeac93df3d63d127b0fe462ea3c87",
      "scriptpubkey_asm": "OP_HASH160 OP_PUSHBYTES_20 7e1a647f792aaeeac93df3d63d127b0fe462ea3c OP_EQUAL",
      "scriptpubkey_type": "p2sh",
      "scriptpubkey_address": "3DBngW61NGh7WcvHwAxZMZAHiGzqjZ9My8",
      "value": 41789
    },
    {
      "scriptpubkey": "001403d56f516b601904a4916617962a8fa6ed23056b",
      "scriptpubkey_asm": "OP_0 OP_PUSHBYTES_20 03d56f516b601904a4916617962a8fa6ed23056b",
      "scriptpubkey_type": "v0_p2wpkh",
      "scriptpubkey_address": "bc1qq02k75ttvqvsffy3vctev2505mkjxpttrgqey4",
      "value": 398726
    }
  ],
  "size": 224,
  "weight": 566,
  "fee": 3834,
  "status": {
    "confirmed": true,
    "block_height": 834638,
    "block_hash": "000000000000000000025f742c626208ac87e0b7d15054abb4a19ca2d735a54e",
    "block_time": 1710405325
  },
  "hex": "01000000000101e80d14cf5d5f093f9c0b93e000e09fb588165ce33c374845011637be6ea217500100000000ffffffff023da300000000000017a9147e1a647f792aaeeac93df3d63d127b0fe462ea3c87861506000000000016001403d56f516b601904a4916617962a8fa6ed23056b02483045022100b17909a36fab6da6d94749c3ecee071ca8f5f63c458938e64aabd1e7d36fea2f022007bde7aa0165756d6ef8133200a9f8e59f7fa17a45a46831b0b165c80deedb9f012103eef779677661eb696e6be613abed318b6b9a759df32cf6871adb4321810a209d00000000"
}