{
  "txid": "7afc83cf5e7102ebf4c9cea2efdee3b11890bcefa0f716fc6581bbc7f4211e52",
  "version": 2,
  "locktime": 0,
  "vin": [
    {
      "txid": "acc3ba00869acb582a3f2904ce3a11dd3779350ce234063fc7d0959246213364",
      "vout": 229,
      "prevout": {
        "scriptpubkey": "5120f2573a53a5443128abb6425fa6e8430c3860f5444cb851c1e0fc8ad8d71db5a8",
        "scriptpubkey_asm": "OP_PUSHNUM_1 OP_PUSHBYTES_32 f2573a53a5443128abb6425fa6e8430c3860f5444cb851c1e0fc8ad8d71db5a8",
        "scriptpubkey_type": "v1_p2tr",
        "scriptpubkey_address": "bc1p7ftn55a9gscj32akgf06d6zrpsuxpa2yfju9rs0qlj9d34cakk5qq33575",
        "value": 1806
      },
      "scriptsig": "",
      "scriptsig_asm": "",
      "witness": [
        "9c0eb7cca7e4aede81463ff61975d108c22239f613a6e1c01776d66e1ba9702ed6a2671ef66a0eff64fd24a7f643f0b322097dd68b25d78942974fbfbb07c1db",
        "20dfb28132babc4afbde711cf991eaf5f896e74d6a02f2ceffd464426750977374ac0063036f726401010a746578742f706c61696e00357b2270223a226272632d3230222c226f70223a226d696e74222c227469636b223a22646f6765222c22616d74223a2234323030227d68",
        "c0dfb28132babc4afbde711cf991eaf5f896e74d6a02f2ceffd464426750977374"
      ],
      "is_coinbase": false,
      "sequence": 4261412863
    }
  ],
  "vout": [
    {
      "scriptpubkey": "00147a665de7a370f4c9b372ab1fae587500a5bcbdb4",
      "scriptpubkey_asm": "OP_0 OP_PUSHBYTES_20 7a665de7a370f4c9b372ab1fae587500a5bcbdb4",
      "scriptpubkey_type": "v0_p2wpkh",
      "scriptpubkey_address": "bc1q0fn9mearwr6vnvmj4v06ukr4qzjme0d565dzcx",
      "value": 294
    }
  ],
  "size": 294,
  "weight": 540,
  "fee": 1512,
  "status": {
    "confirmed": true,
    "block_height": 834460,
    "block_hash": "00000000000000000000484a79b643b2524bbce82e5d8a442013fa5b8905ed98",
    "block_time": 1710307468
  },
  "hex": "02000000000101643321469295d0c73f0634e20c357937dd113ace04293f2a58cb9a8600bac3ace500000000fffffffd0126010000000000001600147a665de7a370f4c9b372ab1fae587500a5bcbdb403409c0eb7cca7e4aede81463ff61975d108c22239f613a6e1c01776d66e1ba9702ed6a2671ef66a0eff64fd24a7f643f0b322097dd68b25d78942974fbfbb07c1db6d20dfb28132babc4afbde711cf991eaf5f896e74d6a02f2ceffd464426750977374ac0063036f726401010a746578742f706c61696e00357b2270223a226272632d3230222c226f70223a226d696e74222c227469636b223a22646f6765222c22616d74223a2234323030227d6821c0dfb28132babc4afbde711cf991eaf5f896e74d6a02f2ceffd46442675097737400000000"
}