{
  "txid": "7b12de6178f5bb7defb3c035fbeae51781472a7331ae1de31d4b0c860902e64a",
  "version": 2,
  "locktime": 0,
  "vin": [
    {
      "txid": "8486ecb4df0880316dd6e82b3971b4df187aff23765bc3a47f8d78bb53aa273c",
      "vout": 119,
      "prevout": {
        "scriptpubkey": "5120b26008db5e73a61e5cc547cc5021592c6e21e0a0163e06b4251021d90addc8c2",
        "scriptpubkey_asm": "OP_PUSHNUM_1 OP_PUSHBYTES_32 b26008db5e73a61e5cc547cc5021592c6e21e0a0163e06b4251021d90addc8c2",
        "scriptpubkey_type": "v1_p2tr",
        "scriptpubkey_address": "bc1pkfsq3k67wwnpuhx9glx9qg2e93hzrc9qzclqddp9zqsajzkaerpqrn5ntj",
        "value": 2575
      },
      "scriptsig": "",
      "scriptsig_asm": "",
      "witness": [
        "17ce36c8085c991f85565f432278f5d7f9798c4f5cbf277a2d07361cb18181038937ca9605ab11a47063fd35398ec4859c4f5e9898c4e4c9c8ea7313425a7e2e",
        "20e21d6d06332be7d6503397177a1c95c1a00af379b7135cd0ef9f8ccc3007c212ac0063036f726401010a746578742f706c61696e00367b2270223a226272632d3230222c226f70223a226d696e74222c227469636b223a2261616161222c22616d74223a223130303030227d68",
        "c1e21d6d06332be7d6503397177a1c95c1a00af379b7135cd0ef9f8ccc3007c212"
      ],
      "is_coinbase": false,
      "sequence": 4261412863
    }
  ],
  "vout": [
    {
      "scriptpubkey": "0014ddd7ef12ea6f78edcc1e8e7afa12c01ab59f3339",
      "scriptpubkey_asm": "OP_0 OP_PUSHBYTES_20 ddd7ef12ea6f78edcc1e8e7afa12c01ab59f3339",
      "scriptpubkey_type": "v0_p2wpkh",
      "scriptpubkey_address": "bc1qmht77yh2dauwmnq73ea05ykqr26e7veea8spz6",
      "value": 546
    }
  ],
  "size": 295,
  "weight": 541,
  "fee": 2029,
  "status": {
    "confirmed": true,
    "block_height": 834460,
    "block_hash": "00000000000000000000484a79b643b2524bbce82e5d8a442013fa5b8905ed98",
    "block_time": 1710307468
  },
  "hex": "020000000001013c27aa53bb788d7fa4c35b7623ff7a18dfb471392be8d66d318008dfb4ec86847700000000fffffffd012202000000000000160014ddd7ef12ea6f78edcc1e8e7afa12c01ab59f3339034017ce36c8085c991f85565f432278f5d7f9798c4f5cbf277a2d07361cb18181038937ca9605ab11a47063fd35398ec4859c4f5e9898c4e4c9c8ea7313425a7e2e6e20e21d6d06332be7d6503397177a1c95c1a00af379b7135cd0ef9f8ccc3007c212ac0063036f726401010a746578742f706c61696e00367b2270223a226272632d3230222c226f70223a226d696e74222c227469636b223a2261616161222c22616d74223a223130303030227d6821c1e21d6d06332be7d6503397177a1c95c1a00af379b7135cd0ef9f8ccc3007c21200000000"
}