{
  "txid": "7b23a22bf29c5870802b9daa3d1d8bcc08da974f59380623e196403b635f9789",
  "version": 2,
  "locktime": 0,
  "vin": [
    {
      "txid": "434a190af4c77d79979d2d21602f5142851f9bba256446dd7d31a7b311999b99",
      "vout": 1,
      "prevout": {
        "scriptpubkey": "5120eb3d5e360471c9489ef8a61263e1fe43683ad61fab64f76c9593ccba96e3d24f",
        "scriptpubkey_asm": "OP_PUSHNUM_1 OP_PUSHBYTES_32 eb3d5e360471c9489ef8a61263e1fe43683ad61fab64f76c9593ccba96e3d24f",
        "scriptpubkey_type": "v1_p2tr",
        "scriptpubkey_address": "bc1pav74udsyw8y538hc5cfx8c07gd5r44sl4dj0wmy4j0xt49hr6f8skwl94m",
        "value": 3248
      },
      "scriptsig": "",
      "scriptsig_asm": "",
      "witness": [
        "fcb7d358172217e24eb3ecc545bbaa0a80d2d62692bc463833c9574e31f71e5bb8013cab3e768dbcb185b7f00b7ac045c0c7acbe415a726933ce5d0cae29dc30",
        "2028fa9ab114000c1b776795bb3269de61406108946007fde69154a6cf9da4ea7fac0063036f726401011e6170706c69636174696f6e2f6a736f6e3b636861727365743d7574662d38004cd37b2270223a22706f772d3230222c226f70223a226d696e74222c227469636b223a2250455045222c22616d74223a2231303030222c22736f6c7574696f6e223a22504550453a6263317034346572347876306c6430706c6a3779346c6a71307536617433747936773234356c7961366173337474367578747039716c79737637327161613a303030303030303030303030303030303030303139393431613561653132383937363539383134343239323533333030353762306461393666336465613163353a3539333231313232383237227d68",
        "c1f9337ae8d846120319842204c8fa6fb30a2d36b39aa08502370b80ec3c9c59a9"
      ],
      "is_coinbase": false,
      "sequence": 4294967295
    }
  ],
  "vout": [
    {
      "scriptpubkey": "5120ad723a998ffb5e1fcbc4afe407f35d5c564d3955a7c9dd76115af5c32c2507c9",
      "scriptpubkey_asm": "OP_PUSHNUM_1 OP_PUSHBYTES_32 ad723a998ffb5e1fcbc4afe407f35d5c564d3955a7c9dd76115af5c32c2507c9",
      "scriptpubkey_type": "v1_p2tr",
      "scriptpubkey_address": "bc1p44er4xv0ld0plj7y4ljq0u6at3ty6w245lya6as3tt6uxtp9qlysv72qaa",
      "value": 546
    }
  ],
  "size": 487,
  "weight": 769,
  "fee": 2702,
  "status": {
    "confirmed": true,
    "block_height": 834460,
    "block_hash": "00000000000000000000484a79b643b2524bbce82e5d8a442013fa5b8905ed98",
    "block_time": 1710307468
  },
  "hex": "02000000000101999b9911b3a7317ddd466425ba9b1f8542512f60212d9d97797dc7f40a194a430100000000ffffffff012202000000000000225120ad723a998ffb5e1fcbc4afe407f35d5c564d3955a7c9dd76115af5c32c2507c90340fcb7d358172217e24eb3ecc545bbaa0a80d2d62692bc463833c9574e31f71e5bb8013cab3e768dbcb185b7f00b7ac045c0c7acbe415a726933ce5d0cae29dc30fd20012028fa9ab114000c1b776795bb3269de61406108946007fde69154a6cf9da4ea7fac0063036f726401011e6170706c69636174696f6e2f6a736f6e3b636861727365743d7574662d38004cd37b2270223a22706f772d3230222c226f70223a226d696e74222c227469636b223a2250455045222c22616d74223a2231303030222c22736f6c7574696f6e223a22504550453a6263317034346572347876306c6430706c6a3779346c6a71307536617433747936773234356c7961366173337474367578747039716c79737637327161613a303030303030303030303030303030303030303139393431613561653132383937363539383134343239323533333030353762306461393666336465613163353a3539333231313232383237227d6821c1f9337ae8d846120319842204c8fa6fb30a2d36b39aa08502370b80ec3c9c59a900000000"
}