{
  "txid": "7b3193d274aa9796ac5b7d33f0b0412d8b1f7ea9bb51d7ee51eed6687baa7356",
  "version": 2,
  "locktime": 0,
  "vin": [
    {
      "txid": "acc3ba00869acb582a3f2904ce3a11dd3779350ce234063fc7d0959246213364",
      "vout": 183,
      "prevout": {
        "scriptpubkey": "51201c9745b395c528970c666138da98ea41a67ee8b8d81489d28ed947d0cf40a353",
        "scriptpubkey_asm": "OP_PUSHNUM_1 OP_PUSHBYTES_32 1c9745b395c528970c666138da98ea41a67ee8b8d81489d28ed947d0cf40a353",
        "scriptpubkey_type": "v1_p2tr",
        "scriptpubkey_address": "bc1prjt5tvu4c55fwrrxvyud4x82gxn8a69cmq2gn55wm9rapn6q5dfsjwlh4n",
        "value": 1806
      },
      "scriptsig": "",
      "scriptsig_asm": "",
      "witness": [
        "cb4182c4a6ba512b98762bfd253adf2b9f48c1cecd33e932debf31f4c55a5c919fb157761b9421580b122f6820ee9d267cfd27f752d3b8afbed06a8c555eb9a7",
        "20b58512f656b78f735513956092a5f19406413a4fffed80db7d39f1cdf601497cac0063036f726401010a746578742f706c61696e00357b2270223a226272632d3230222c226f70223a226d696e74222c227469636b223a22646f6765222c22616d74223a2234323030227d68",
        "c1b58512f656b78f735513956092a5f19406413a4fffed80db7d39f1cdf601497c"
      ],
      "is_coinbase": false,
      "sequence": 4261412863
    }
  ],
  "vout": [
    {
      "scriptpubkey": "00147a665de7a370f4c9b372ab1fae587500a5bcbdb4",
      "scriptpubkey_asm": "OP_0 OP_PUSHBYTES_20 7a665de7a370f4c9b372ab1fae587500a5bcbdb4",
      "scriptpubkey_type": "v0_p2wpkh",
      "scriptpubkey_address": "bc1q0fn9mearwr6vnvmj4v06ukr4qzjme0d565dzcx",
      "value": 294
    }
  ],
  "size": 294,
  "weight": 540,
  "fee": 1512,
  "status": {
    "confirmed": true,
    "block_height": 834460,
    "block_hash": "00000000000000000000484a79b643b2524bbce82e5d8a442013fa5b8905ed98",
    "block_time": 1710307468
  },
  "hex": "02000000000101643321469295d0c73f0634e20c357937dd113ace04293f2a58cb9a8600bac3acb700000000fffffffd0126010000000000001600147a665de7a370f4c9b372ab1fae587500a5bcbdb40340cb4182c4a6ba512b98762bfd253adf2b9f48c1cecd33e932debf31f4c55a5c919fb157761b9421580b122f6820ee9d267cfd27f752d3b8afbed06a8c555eb9a76d20b58512f656b78f735513956092a5f19406413a4fffed80db7d39f1cdf601497cac0063036f726401010a746578742f706c61696e00357b2270223a226272632d3230222c226f70223a226d696e74222c227469636b223a22646f6765222c22616d74223a2234323030227d6821c1b58512f656b78f735513956092a5f19406413a4fffed80db7d39f1cdf601497c00000000"
}