{
  "txid": "7b410ab6bef4f847ed227ad0470742b425978678a22afdf3f57b2306713d64ae",
  "version": 1,
  "locktime": 0,
  "vin": [
    {
      "txid": "2636f58913d1b678930cb8a74fc38c4246959ce2ce0f03e110faa53b75d234b2",
      "vout": 1,
      "prevout": {
        "scriptpubkey": "001471ccc8c689351a22b14d00b18cbd7956de8ac83c",
        "scriptpubkey_asm": "OP_0 OP_PUSHBYTES_20 71ccc8c689351a22b14d00b18cbd7956de8ac83c",
        "scriptpubkey_type": "v0_p2wpkh",
        "scriptpubkey_address": "bc1qw8xv335fx5dz9v2dqzcce0te2m0g4jpuenwlym",
        "value": 3538308
      },
      "scriptsig": "",
      "scriptsig_asm": "",
      "witness": [
        "30440220223fb84bbd7904011c3cd872bf91bf3274037576045355aa5c4fe11edff7913e022036140b5a5cc7575588d017eee10383a58f1226cb78a4aa4d61f3926146496fd401",
        "026944ce83f4ce84d7b0dfe3b61286b3b61f4b6829534f68b26a13e1c163222e7d"
      ],
      "is_coinbase": false,
      "sequence": 4294967295
    },
    {
      "txid": "47e908e0bef1a36a68382ec011c26fc135c3dc20bc62178d063d54c2715d090c",
      "vout": 0,
      "prevout": {
        "scriptpubkey": "0014e0312e97b01f97b1bfb79dea779d797530386e47",
        "scriptpubkey_asm": "OP_0 OP_PUSHBYTES_20 e0312e97b01f97b1bfb79dea779d797530386e47",
        "scriptpubkey_type": "v0_p2wpkh",
        "scriptpubkey_address": "bc1quqcja9asr7tmr0ahnh4808tew5crsmj8emwvc3",
        "value": 5410811
      },
      "scriptsig": "",
      "scriptsig_asm": "",
      "witness": [
        "3045022100949747fbcc79ef54f7d1fa9cc11d9c2b0b990a83d790fdf52e72402e8c55ca1802200de6d057facf25dc6702f1cd0659ac18c90635590605b1de023705bd4d7683c101",
        "02e5bde70aca8e93762b84ac5126baaf7d4161fecee0b93e8f08d658a5d18d782b"
      ],
      "is_coinbase": false,
      "sequence": 4294967295
    }
  ],
  "vout": [
    {
      "scriptpubkey": "a914a8afa07169ab2750720c9870bb2578ab37ce932c87",
      "scriptpubkey_asm": "OP_HASH160 OP_PUSHBYTES_20 a8afa07169ab2750720c9870bb2578ab37ce932c OP_EQUAL",
      "scriptpubkey_type": "p2sh",
      "scriptpubkey_address": "3H4wqXid8BNDXPfYQMyqNFxwS62AiyC484",
      "value": 7183219
    },
    {
      "scriptpubkey": "0014ac7f3ddf45d126d8b45874d2e3a90265bfde4f11",
      "scriptpubkey_asm": "OP_0 OP_PUSHBYTES_20 ac7f3ddf45d126d8b45874d2e3a90265bfde4f11",
      "scriptpubkey_type": "v0_p2wpkh",
      "scriptpubkey_address": "bc1q43lnmh696ynd3dzcwnfw82gzvklaunc3l5jp7s",
      "value": 1760122
    }
  ],
  "size": 372,
  "weight": 837,
  "fee": 5778,
  "status": {
    "confirmed": true,
    "block_height": 834460,
    "block_hash": "00000000000000000000484a79b643b2524bbce82e5d8a442013fa5b8905ed98",
    "block_time": 1710307468
  },
  "hex": "01000000000102b234d2753ba5fa10e1030fcee29c9546428cc34fa7b80c9378b6d11389f536260100000000ffffffff0c095d71c2543d068d1762bc20dcc335c16fc211c02e38686aa3f1bee008e9470000000000ffffffff02739b6d000000000017a914a8afa07169ab2750720c9870bb2578ab37ce932c877adb1a0000000000160014ac7f3ddf45d126d8b45874d2e3a90265bfde4f11024730440220223fb84bbd7904011c3cd872bf91bf3274037576045355aa5c4fe11edff7913e022036140b5a5cc7575588d017eee10383a58f1226cb78a4aa4d61f3926146496fd40121026944ce83f4ce84d7b0dfe3b61286b3b61f4b6829534f68b26a13e1c163222e7d02483045022100949747fbcc79ef54f7d1fa9cc11d9c2b0b990a83d790fdf52e72402e8c55ca1802200de6d057facf25dc6702f1cd0659ac18c90635590605b1de023705bd4d7683c1012102e5bde70aca8e93762b84ac5126baaf7d4161fecee0b93e8f08d658a5d18d782b00000000"
}