{
  "txid": "7b420b54d47c42a3970ae4cd54bd60559753b87273e7aa2bfde8c1b32a7d398f",
  "version": 2,
  "locktime": 0,
  "vin": [
    {
      "txid": "f4df93cde53a456723f26ff8d8ae8375d4a01861127cd85c52516df8d0e2107e",
      "vout": 0,
      "prevout": {
        "scriptpubkey": "512010e66caf4a75cc93b4bc218d8a94e348ab771757149c92e410cd01e4a4279ee7",
        "scriptpubkey_asm": "OP_PUSHNUM_1 OP_PUSHBYTES_32 10e66caf4a75cc93b4bc218d8a94e348ab771757149c92e410cd01e4a4279ee7",
        "scriptpubkey_type": "v1_p2tr",
        "scriptpubkey_address": "bc1pzrnxet62whxf8d9uyxxc498rfz4hw96hzjwf9eqse5q7ffp8nmns0vlff2",
        "value": 546
      },
      "scriptsig": "",
      "scriptsig_asm": "",
      "witness": [
        "2c7e64bb00b49815b93d02d481ae21821c5a51091fd7ec47faccb2b750dce963623870ba8806e710ff096fc2735d0f0065c2fc278c3cbe5b07eeb9f8831fae8c"
      ],
      "is_coinbase": false,
      "sequence": 2147483649
    },
    {
      "txid": "7bfe07ae3595d8f5ba167747527d47b46a7ad8d57da1ed6c825860e90032c57c",
      "vout": 1,
      "prevout": {
        "scriptpubkey": "512010e66caf4a75cc93b4bc218d8a94e348ab771757149c92e410cd01e4a4279ee7",
        "scriptpubkey_asm": "OP_PUSHNUM_1 OP_PUSHBYTES_32 10e66caf4a75cc93b4bc218d8a94e348ab771757149c92e410cd01e4a4279ee7",
        "scriptpubkey_type": "v1_p2tr",
        "scriptpubkey_address": "bc1pzrnxet62whxf8d9uyxxc498rfz4hw96hzjwf9eqse5q7ffp8nmns0vlff2",
        "value": 68262
      },
      "scriptsig": "",
      "scriptsig_asm": "",
      "witness": [
        "34ce41cacf2c9f247dac7e1c9fe3b1a2cbd041258b28a1693560867fe09367abb911b1669554bd1277be26e38961e4f976787bd3a508641a7426d1e667cfcaa2"
      ],
      "is_coinbase": false,
      "sequence": 2147483649
    }
  ],
  "vout": [
    {
      "scriptpubkey": "5120d33318feecb4f560371c54e9d8e634952f1d66cc3d32eac0ae2c65951aa35d78",
      "scriptpubkey_asm": "OP_PUSHNUM_1 OP_PUSHBYTES_32 d33318feecb4f560371c54e9d8e634952f1d66cc3d32eac0ae2c65951aa35d78",
      "scriptpubkey_type": "v1_p2tr",
      "scriptpubkey_address": "bc1p6ve33lhvkn6kqdcu2n5a3e35j5h36ekv85ew4s9w93je2x4rt4uq7re0an",
      "value": 546
    },
    {
      "scriptpubkey": "512010e66caf4a75cc93b4bc218d8a94e348ab771757149c92e410cd01e4a4279ee7",
      "scriptpubkey_asm": "OP_PUSHNUM_1 OP_PUSHBYTES_32 10e66caf4a75cc93b4bc218d8a94e348ab771757149c92e410cd01e4a4279ee7",
      "scriptpubkey_type": "v1_p2tr",
      "scriptpubkey_address": "bc1pzrnxet62whxf8d9uyxxc498rfz4hw96hzjwf9eqse5q7ffp8nmns0vlff2",
      "value": 65519
    }
  ],
  "size": 312,
  "weight": 846,
  "fee": 2743,
  "status": {
    "confirmed": true,
    "block_height": 834460,
    "block_hash": "00000000000000000000484a79b643b2524bbce82e5d8a442013fa5b8905ed98",
    "block_time": 1710307468
  },
  "hex": "020000000001027e10e2d0f86d51525cd87c126118a0d47583aed8f86ff22367453ae5cd93dff40000000000010000807cc53200e96058826ceda17dd5d87a6ab4477d52477716baf5d89535ae07fe7b010000000001000080022202000000000000225120d33318feecb4f560371c54e9d8e634952f1d66cc3d32eac0ae2c65951aa35d78efff00000000000022512010e66caf4a75cc93b4bc218d8a94e348ab771757149c92e410cd01e4a4279ee701402c7e64bb00b49815b93d02d481ae21821c5a51091fd7ec47faccb2b750dce963623870ba8806e710ff096fc2735d0f0065c2fc278c3cbe5b07eeb9f8831fae8c014034ce41cacf2c9f247dac7e1c9fe3b1a2cbd041258b28a1693560867fe09367abb911b1669554bd1277be26e38961e4f976787bd3a508641a7426d1e667cfcaa200000000"
}