{
  "txid": "7b5d9dd24678605d75b99116f0b9e55491a2a5ee869c1cda6a8ee54769080022",
  "version": 1,
  "locktime": 0,
  "vin": [
    {
      "txid": "ff03d4d4f8176258bfeefd6bd13b0c9afe0a682afe3cdf807fe3579399a37bd5",
      "vout": 5,
      "prevout": {
        "scriptpubkey": "a91405a604126adf08a7d277e29d4ef64810b19f5a6a87",
        "scriptpubkey_asm": "OP_HASH160 OP_PUSHBYTES_20 05a604126adf08a7d277e29d4ef64810b19f5a6a OP_EQUAL",
        "scriptpubkey_type": "p2sh",
        "scriptpubkey_address": "32CtBVPYubwEyF4NhqHgcw2maRE7tQ8LHb",
        "value": 600
      },
      "scriptsig": "16001426ca2bf1f6b9a187df23e23d6b29d12fffd08313",
      "scriptsig_asm": "OP_PUSHBYTES_22 001426ca2bf1f6b9a187df23e23d6b29d12fffd08313",
      "witness": [
        "3045022100ed389e6df036f35bb6e583de448e25dbc1a9c9e4b25774dc646b1802c0949927022018dafe79f08b15e9b61e6fad37211853bc4dc2e57e981cb60a7cacb86a94a22c01",
        "03cdda6efc47415377ebb2f883ed968eead45df62880b87470b30f87c6828874bd"
      ],
      "is_coinbase": false,
      "sequence": 4294967293,
      "inner_redeemscript_asm": "OP_0 OP_PUSHBYTES_20 26ca2bf1f6b9a187df23e23d6b29d12fffd08313"
    },
    {
      "txid": "22468df189267c06e505570be5974e8b4c3de1a55dc1af65f6317fe9966db3bc",
      "vout": 44,
      "prevout": {
        "scriptpubkey": "a91405a604126adf08a7d277e29d4ef64810b19f5a6a87",
        "scriptpubkey_asm": "OP_HASH160 OP_PUSHBYTES_20 05a604126adf08a7d277e29d4ef64810b19f5a6a OP_EQUAL",
        "scriptpubkey_type": "p2sh",
        "scriptpubkey_address": "32CtBVPYubwEyF4NhqHgcw2maRE7tQ8LHb",
        "value": 600
      },
      "scriptsig": "16001426ca2bf1f6b9a187df23e23d6b29d12fffd08313",
      "scriptsig_asm": "OP_PUSHBYTES_22 001426ca2bf1f6b9a187df23e23d6b29d12fffd08313",
      "witness": [
        "3044022052f76f1527469f01ca6777561a145dc2aad2b4d3098d61d9a3ccb1ecf9e12dcd0220428837baed7b430bc434f6ed12a2b5bbba8d84dbbb7f3ee305a2802afce74fb401",
        "03cdda6efc47415377ebb2f883ed968eead45df62880b87470b30f87c6828874bd"
      ],
      "is_coinbase": false,
      "sequence": 4294967293,
      "inner_redeemscript_asm": "OP_0 OP_PUSHBYTES_20 26ca2bf1f6b9a187df23e23d6b29d12fffd08313"
    },
    {
      "txid": "45fce11e19beb6456b99ecaca2f9c21aa694ec7df140541b72fc6bed3ad0ae8b",
      "vout": 0,
      "prevout": {
        "scriptpubkey": "5120bc3a659b9e6c487ce7ac3ff7979a8857f9733305fe28db4e04a12c9012d43a4b",
        "scriptpubkey_asm": "OP_PUSHNUM_1 OP_PUSHBYTES_32 bc3a659b9e6c487ce7ac3ff7979a8857f9733305fe28db4e04a12c9012d43a4b",
        "scriptpubkey_type": "v1_p2tr",
        "scriptpubkey_address": "bc1phsaxtxu7d3y8eeav8lme0x5g2luhxvc9lc5dknsy5ykfqyk58f9s6z60qc",
        "value": 546
      },
      "scriptsig": "",
      "scriptsig_asm": "",
      "witness": [
        "b605f2d567c467f154004366a667f0c03f5314caf67378b7825f57cfdd406fba8b8ae273caa18a8324fe69a0d3ef839e9cd8d64242ec596f023ed6ede54176dd83"
      ],
      "is_coinbase": false,
      "sequence": 4294967293
    },
    {
      "txid": "c76d099b205263ae95911e2e97a6c43d14a76f8858f0de8b9f181287f1c8882b",
      "vout": 2,
      "prevout": {
        "scriptpubkey": "a91405a604126adf08a7d277e29d4ef64810b19f5a6a87",
        "scriptpubkey_asm": "OP_HASH160 OP_PUSHBYTES_20 05a604126adf08a7d277e29d4ef64810b19f5a6a OP_EQUAL",
        "scriptpubkey_type": "p2sh",
        "scriptpubkey_address": "32CtBVPYubwEyF4NhqHgcw2maRE7tQ8LHb",
        "value": 646877
      },
      "scriptsig": "16001426ca2bf1f6b9a187df23e23d6b29d12fffd08313",
      "scriptsig_asm": "OP_PUSHBYTES_22 001426ca2bf1f6b9a187df23e23d6b29d12fffd08313",
      "witness": [
        "3045022100a5bc9a4dace75e72afc2c870a9727d42396d11239b2fc77af4bd6b5547fdde0b0220477ff5791b0cc256fa5a3080fd2d776f9c501dd3ff55447aa7a11b284146113401",
        "03cdda6efc47415377ebb2f883ed968eead45df62880b87470b30f87c6828874bd"
      ],
      "is_coinbase": false,
      "sequence": 4294967293,
      "inner_redeemscript_asm": "OP_0 OP_PUSHBYTES_20 26ca2bf1f6b9a187df23e23d6b29d12fffd08313"
    }
  ],
  "vout": [
    {
      "scriptpubkey": "a91405a604126adf08a7d277e29d4ef64810b19f5a6a87",
      "scriptpubkey_asm": "OP_HASH160 OP_PUSHBYTES_20 05a604126adf08a7d277e29d4ef64810b19f5a6a OP_EQUAL",
      "scriptpubkey_type": "p2sh",
      "scriptpubkey_address": "32CtBVPYubwEyF4NhqHgcw2maRE7tQ8LHb",
      "value": 1200
    },
    {
      "scriptpubkey": "51205f1e932d8d484a4262d31cbcbe4c98db995467fb1d187c34f569193c39bb0def",
      "scriptpubkey_asm": "OP_PUSHNUM_1 OP_PUSHBYTES_32 5f1e932d8d484a4262d31cbcbe4c98db995467fb1d187c34f569193c39bb0def",
      "scriptpubkey_type": "v1_p2tr",
      "scriptpubkey_address": "bc1ptu0fxtvdfp9yycknrj7tunycmwv4gelmr5v8cd84dyvncwdmphhs8kr0h9",
      "value": 546
    },
    {
      "scriptpubkey": "5120bc3a659b9e6c487ce7ac3ff7979a8857f9733305fe28db4e04a12c9012d43a4b",
      "scriptpubkey_asm": "OP_PUSHNUM_1 OP_PUSHBYTES_32 bc3a659b9e6c487ce7ac3ff7979a8857f9733305fe28db4e04a12c9012d43a4b",
      "scriptpubkey_type": "v1_p2tr",
      "scriptpubkey_address": "bc1phsaxtxu7d3y8eeav8lme0x5g2luhxvc9lc5dknsy5ykfqyk58f9s6z60qc",
      "value": 365847
    },
    {
      "scriptpubkey": "5120d11b52ebc5e8a1d3010b1d1494ea526494e651bfe81d7e9ba3b7779623f954ba",
      "scriptpubkey_asm": "OP_PUSHNUM_1 OP_PUSHBYTES_32 d11b52ebc5e8a1d3010b1d1494ea526494e651bfe81d7e9ba3b7779623f954ba",
      "scriptpubkey_type": "v1_p2tr",
      "scriptpubkey_address": "bc1p6yd49679azsaxqgtr52ff6jjvj2wv5dlaqwhaxarkamevgle2jaqs8vlnr",
      "value": 10151
    },
    {
      "scriptpubkey": "a91405a604126adf08a7d277e29d4ef64810b19f5a6a87",
      "scriptpubkey_asm": "OP_HASH160 OP_PUSHBYTES_20 05a604126adf08a7d277e29d4ef64810b19f5a6a OP_EQUAL",
      "scriptpubkey_type": "p2sh",
      "scriptpubkey_address": "32CtBVPYubwEyF4NhqHgcw2maRE7tQ8LHb",
      "value": 262869
    }
  ],
  "size": 828,
  "weight": 2136,
  "fee": 8010,
  "status": {
    "confirmed": true,
    "block_height": 834460,
    "block_hash": "00000000000000000000484a79b643b2524bbce82e5d8a442013fa5b8905ed98",
    "block_time": 1710307468
  },
  "hex": "01000000000104d57ba3999357e37f80df3cfe2a680afe9a0c3bd16bfdeebf586217f8d4d403ff050000001716001426ca2bf1f6b9a187df23e23d6b29d12fffd08313fdffffffbcb36d96e97f31f665afc15da5e13d4c8b4e97e50b5705e5067c2689f18d46222c0000001716001426ca2bf1f6b9a187df23e23d6b29d12fffd08313fdffffff8baed03aed6bfc721b5440f17dec94a61ac2f9a2acec996b45b6be191ee1fc450000000000fdffffff2b88c8f18712189f8bdef058886fa7143dc4a6972e1e9195ae6352209b096dc7020000001716001426ca2bf1f6b9a187df23e23d6b29d12fffd08313fdffffff05b00400000000000017a91405a604126adf08a7d277e29d4ef64810b19f5a6a8722020000000000002251205f1e932d8d484a4262d31cbcbe4c98db995467fb1d187c34f569193c39bb0def1795050000000000225120bc3a659b9e6c487ce7ac3ff7979a8857f9733305fe28db4e04a12c9012d43a4ba727000000000000225120d11b52ebc5e8a1d3010b1d1494ea526494e651bfe81d7e9ba3b7779623f954bad50204000000000017a91405a604126adf08a7d277e29d4ef64810b19f5a6a8702483045022100ed389e6df036f35bb6e583de448e25dbc1a9c9e4b25774dc646b1802c0949927022018dafe79f08b15e9b61e6fad37211853bc4dc2e57e981cb60a7cacb86a94a22c012103cdda6efc47415377ebb2f883ed968eead45df62880b87470b30f87c6828874bd02473044022052f76f1527469f01ca6777561a145dc2aad2b4d3098d61d9a3ccb1ecf9e12dcd0220428837baed7b430bc434f6ed12a2b5bbba8d84dbbb7f3ee305a2802afce74fb4012103cdda6efc47415377ebb2f883ed968eead45df62880b87470b30f87c6828874bd0141b605f2d567c467f154004366a667f0c03f5314caf67378b7825f57cfdd406fba8b8ae273caa18a8324fe69a0d3ef839e9cd8d64242ec596f023ed6ede54176dd8302483045022100a5bc9a4dace75e72afc2c870a9727d42396d11239b2fc77af4bd6b5547fdde0b0220477ff5791b0cc256fa5a3080fd2d776f9c501dd3ff55447aa7a11b2841461134012103cdda6efc47415377ebb2f883ed968eead45df62880b87470b30f87c6828874bd00000000"
}