{
  "txid": "7b7592aff0fbab3503d45c895c58a279d4f15cc78076fa27f52562096b7e28a8",
  "version": 2,
  "locktime": 0,
  "vin": [
    {
      "txid": "0e9966190e2ecfb9c817fc38d2a82d95400681a383637c51b65c43df855e5e64",
      "vout": 2,
      "prevout": {
        "scriptpubkey": "5120d69c4b43d46e35d3dda1e23fd8c0241c110e25d9f81d8ab9de621452386000bf",
        "scriptpubkey_asm": "OP_PUSHNUM_1 OP_PUSHBYTES_32 d69c4b43d46e35d3dda1e23fd8c0241c110e25d9f81d8ab9de621452386000bf",
        "scriptpubkey_type": "v1_p2tr",
        "scriptpubkey_address": "bc1p66wyks75dc6a8hdpugla3spyrsgsufwelqwc4ww7vg29ywrqqzls2873cq",
        "value": 288101
      },
      "scriptsig": "",
      "scriptsig_asm": "",
      "witness": [
        "a746966a45ddca9dacfdd3dc70eb3fef8432e64d3d5b489bf9dc9a971f9879b9ede005d55129b1952a643c6d5231db2b69672e1dc01cc695e4f309362350907e"
      ],
      "is_coinbase": false,
      "sequence": 4294967295
    }
  ],
  "vout": [
    {
      "scriptpubkey": "001448dfa704897f78fdfbc2b9534055dd9b219ef5a8",
      "scriptpubkey_asm": "OP_0 OP_PUSHBYTES_20 48dfa704897f78fdfbc2b9534055dd9b219ef5a8",
      "scriptpubkey_type": "v0_p2wpkh",
      "scriptpubkey_address": "bc1qfr06wpyf0au0m77zh9f5q4wanvseaadgq9qhf9",
      "value": 12478
    },
    {
      "scriptpubkey": "5120d69c4b43d46e35d3dda1e23fd8c0241c110e25d9f81d8ab9de621452386000bf",
      "scriptpubkey_asm": "OP_PUSHNUM_1 OP_PUSHBYTES_32 d69c4b43d46e35d3dda1e23fd8c0241c110e25d9f81d8ab9de621452386000bf",
      "scriptpubkey_type": "v1_p2tr",
      "scriptpubkey_address": "bc1p66wyks75dc6a8hdpugla3spyrsgsufwelqwc4ww7vg29ywrqqzls2873cq",
      "value": 273635
    }
  ],
  "size": 193,
  "weight": 568,
  "fee": 1988,
  "status": {
    "confirmed": true,
    "block_height": 834460,
    "block_hash": "00000000000000000000484a79b643b2524bbce82e5d8a442013fa5b8905ed98",
    "block_time": 1710307468
  },
  "hex": "02000000000101645e5e85df435cb6517c6383a3810640952da8d238fc17c8b9cf2e0e1966990e0200000000ffffffff02be3000000000000016001448dfa704897f78fdfbc2b9534055dd9b219ef5a8e32c040000000000225120d69c4b43d46e35d3dda1e23fd8c0241c110e25d9f81d8ab9de621452386000bf0140a746966a45ddca9dacfdd3dc70eb3fef8432e64d3d5b489bf9dc9a971f9879b9ede005d55129b1952a643c6d5231db2b69672e1dc01cc695e4f309362350907e00000000"
}