{
  "txid": "7b8756df16cf9d6f6ca5a32eae6ad70c3a0a9d176116559380ef84393cb44e69",
  "version": 2,
  "locktime": 0,
  "vin": [
    {
      "txid": "14e2167695fd53b97ae50c0a70e65ac4ef7ad1480621c0c13d9d798945a5d5dc",
      "vout": 2,
      "prevout": {
        "scriptpubkey": "5120a2766fb00687351962dedf0b4c5a200eefe020b32107f7856ec987cd856f8dff",
        "scriptpubkey_asm": "OP_PUSHNUM_1 OP_PUSHBYTES_32 a2766fb00687351962dedf0b4c5a200eefe020b32107f7856ec987cd856f8dff",
        "scriptpubkey_type": "v1_p2tr",
        "scriptpubkey_address": "bc1p5fmxlvqxsu63jck7mu95ck3qpmh7qg9nyyrl0ptwexrumpt03hls5dz6lg",
        "value": 2862
      },
      "scriptsig": "",
      "scriptsig_asm": "",
      "witness": [
        "99b0369bf49f8dafaf44d57736ec46ae678f25cafed2928beae19d8b0c473a269ee1e53d99609419a9d3f1080fa8c8f148cd60f684117fe18d0a855d877b423c",
        "2073dea9cede660384e891cde840d0350063a999c7fc4f66ec7af9b044003c93c5ac0063036f726401011e6170706c69636174696f6e2f6a736f6e3b636861727365743d7574662d38004cd37b2270223a22706f772d3230222c226f70223a226d696e74222c227469636b223a2250455045222c22616d74223a2231303030222c22736f6c7574696f6e223a22504550453a62633170673935386e6b7a747678347271756e78676d747a6c35666e70666b633330776a323770777367396e6c706a786b796e64793671737376386c6b303a303030303030303030303030303030303030303139393431613561653132383937363539383134343239323533333030353762306461393666336465613163353a3633313331323436343734227d68",
        "c1631b34e489e80d4fba35164e5ad52a60d66865df7d7db84d2adbf53ec13ca2a1"
      ],
      "is_coinbase": false,
      "sequence": 4294967295
    }
  ],
  "vout": [
    {
      "scriptpubkey": "5120416879d84b61aa30726646d62fd1330a6d88bdd25782e820b3f8646b126d2681",
      "scriptpubkey_asm": "OP_PUSHNUM_1 OP_PUSHBYTES_32 416879d84b61aa30726646d62fd1330a6d88bdd25782e820b3f8646b126d2681",
      "scriptpubkey_type": "v1_p2tr",
      "scriptpubkey_address": "bc1pg958nkztvx4rqunxgmtzl5fnpfkc30wj27pwsg9nlpjxkyndy6qssv8lk0",
      "value": 546
    }
  ],
  "size": 487,
  "weight": 769,
  "fee": 2316,
  "status": {
    "confirmed": true,
    "block_height": 834460,
    "block_hash": "00000000000000000000484a79b643b2524bbce82e5d8a442013fa5b8905ed98",
    "block_time": 1710307468
  },
  "hex": "02000000000101dcd5a54589799d3dc1c0210648d17aefc45ae6700a0ce57ab953fd957616e2140200000000ffffffff012202000000000000225120416879d84b61aa30726646d62fd1330a6d88bdd25782e820b3f8646b126d2681034099b0369bf49f8dafaf44d57736ec46ae678f25cafed2928beae19d8b0c473a269ee1e53d99609419a9d3f1080fa8c8f148cd60f684117fe18d0a855d877b423cfd20012073dea9cede660384e891cde840d0350063a999c7fc4f66ec7af9b044003c93c5ac0063036f726401011e6170706c69636174696f6e2f6a736f6e3b636861727365743d7574662d38004cd37b2270223a22706f772d3230222c226f70223a226d696e74222c227469636b223a2250455045222c22616d74223a2231303030222c22736f6c7574696f6e223a22504550453a62633170673935386e6b7a747678347271756e78676d747a6c35666e70666b633330776a323770777367396e6c706a786b796e64793671737376386c6b303a303030303030303030303030303030303030303139393431613561653132383937363539383134343239323533333030353762306461393666336465613163353a3633313331323436343734227d6821c1631b34e489e80d4fba35164e5ad52a60d66865df7d7db84d2adbf53ec13ca2a100000000"
}