{
  "txid": "7b8f88d8379877d6555929fb15d3dee064494e36aafa49ab050f5fd5e9a8db1e",
  "version": 2,
  "locktime": 0,
  "vin": [
    {
      "txid": "210ec5916cdab97f0e8d6136070b02a0f556231d85af358a2765ffdbe60d4f9e",
      "vout": 1,
      "prevout": {
        "scriptpubkey": "0014f60834ef165253c571b11ce9fa74e46692fc5ec1",
        "scriptpubkey_asm": "OP_0 OP_PUSHBYTES_20 f60834ef165253c571b11ce9fa74e46692fc5ec1",
        "scriptpubkey_type": "v0_p2wpkh",
        "scriptpubkey_address": "bc1q7cyrfmck2ffu2ud3rn5l5a8yv6f0chkp0zpemf",
        "value": 657137526
      },
      "scriptsig": "",
      "scriptsig_asm": "",
      "witness": [
        "3045022100fba1d87b9b5aeab9bcfd9a2ed14ff764af56b5e7a40e1b78ce084c66f9c93866022031f95fef802b9fe131faab60a919031dfba626bf05af2ddcc80f973feb2e39f401",
        "026e5628506ecd33242e5ceb5fdafe4d3066b5c0f159b3c05a621ef65f177ea286"
      ],
      "is_coinbase": false,
      "sequence": 4294967293
    }
  ],
  "vout": [
    {
      "scriptpubkey": "0014864ebf2e2aa3307d74296ea75aaebfb24d9dd381",
      "scriptpubkey_asm": "OP_0 OP_PUSHBYTES_20 864ebf2e2aa3307d74296ea75aaebfb24d9dd381",
      "scriptpubkey_type": "v0_p2wpkh",
      "scriptpubkey_address": "bc1qse8t7t325vc86apfd6n44t4lkfxem5upvg0nfv",
      "value": 67680
    },
    {
      "scriptpubkey": "001462279a2a8f9da3f7a92dcd96ea8fc557530e5ae0",
      "scriptpubkey_asm": "OP_0 OP_PUSHBYTES_20 62279a2a8f9da3f7a92dcd96ea8fc557530e5ae0",
      "scriptpubkey_type": "v0_p2wpkh",
      "scriptpubkey_address": "bc1qvgne5250nk3l02fdektw4r792afsukhq4mrc5z",
      "value": 3216800
    },
    {
      "scriptpubkey": "0014f60834ef165253c571b11ce9fa74e46692fc5ec1",
      "scriptpubkey_asm": "OP_0 OP_PUSHBYTES_20 f60834ef165253c571b11ce9fa74e46692fc5ec1",
      "scriptpubkey_type": "v0_p2wpkh",
      "scriptpubkey_address": "bc1q7cyrfmck2ffu2ud3rn5l5a8yv6f0chkp0zpemf",
      "value": 653847096
    }
  ],
  "size": 254,
  "weight": 686,
  "fee": 5950,
  "status": {
    "confirmed": true,
    "block_height": 834638,
    "block_hash": "000000000000000000025f742c626208ac87e0b7d15054abb4a19ca2d735a54e",
    "block_time": 1710405325
  },
  "hex": "020000000001019e4f0de6dbff65278a35af851d2356f5a0020b0736618d0e7fb9da6c91c50e210100000000fdffffff036008010000000000160014864ebf2e2aa3307d74296ea75aaebfb24d9dd381a01531000000000016001462279a2a8f9da3f7a92dcd96ea8fc557530e5ae038eaf82600000000160014f60834ef165253c571b11ce9fa74e46692fc5ec102483045022100fba1d87b9b5aeab9bcfd9a2ed14ff764af56b5e7a40e1b78ce084c66f9c93866022031f95fef802b9fe131faab60a919031dfba626bf05af2ddcc80f973feb2e39f40121026e5628506ecd33242e5ceb5fdafe4d3066b5c0f159b3c05a621ef65f177ea28600000000"
}