{
  "txid": "7bae7db2d1505e63a559802cfac67142e16301a1b4c1f928a00545217357a5eb",
  "version": 2,
  "locktime": 0,
  "vin": [
    {
      "txid": "9255ff22433c3634297d3391e869738126510aa850133a9dd49e29fe98b9c912",
      "vout": 0,
      "prevout": {
        "scriptpubkey": "0014c02841c565bca1de77b6679c60b5d3494e6c3abe",
        "scriptpubkey_asm": "OP_0 OP_PUSHBYTES_20 c02841c565bca1de77b6679c60b5d3494e6c3abe",
        "scriptpubkey_type": "v0_p2wpkh",
        "scriptpubkey_address": "bc1qcq5yr3t9hjsauaakv7wxpdwnf98xcw47q4l7gh",
        "value": 70000
      },
      "scriptsig": "",
      "scriptsig_asm": "",
      "witness": [
        "3045022100d9d9521a479816f0946a98ee27a0dc54cd6bc893ae1d21df5b7f1669ec5599e1022063199203979e91ff65148dab07b57c7621e973a6fa09b0e6519529b0e175e27401",
        "02fadd91034e09ce936351945ef137b8bce8338ef0a4f8a6a587124e6ecf5c73d4"
      ],
      "is_coinbase": false,
      "sequence": 4294967295
    },
    {
      "txid": "caf3afdf5333de4f0c8bc8f13b428c97c863caf717879cf65b33594d8cec4496",
      "vout": 0,
      "prevout": {
        "scriptpubkey": "0014c02841c565bca1de77b6679c60b5d3494e6c3abe",
        "scriptpubkey_asm": "OP_0 OP_PUSHBYTES_20 c02841c565bca1de77b6679c60b5d3494e6c3abe",
        "scriptpubkey_type": "v0_p2wpkh",
        "scriptpubkey_address": "bc1qcq5yr3t9hjsauaakv7wxpdwnf98xcw47q4l7gh",
        "value": 70000
      },
      "scriptsig": "",
      "scriptsig_asm": "",
      "witness": [
        "3044022067c9dd01a05117ece8001fb4c557c044a5e6aafbc268cc8f3bd00621e86cd85f02201ebac057b1463890aead28bf0d72e82f768ef1b516711373c52127c3f6f5f88501",
        "02fadd91034e09ce936351945ef137b8bce8338ef0a4f8a6a587124e6ecf5c73d4"
      ],
      "is_coinbase": false,
      "sequence": 4294967295
    }
  ],
  "vout": [
    {
      "scriptpubkey": "0014419854753506f2b3e771860f36eb919d89cc890f",
      "scriptpubkey_asm": "OP_0 OP_PUSHBYTES_20 419854753506f2b3e771860f36eb919d89cc890f",
      "scriptpubkey_type": "v0_p2wpkh",
      "scriptpubkey_address": "bc1qgxv9gaf4qmet8em3sc8nd6u3nkyuezg0cg9p36",
      "value": 2222
    },
    {
      "scriptpubkey": "76a91478283a9070c5dd41f68e76594e92e2c16b6f2f4588ac",
      "scriptpubkey_asm": "OP_DUP OP_HASH160 OP_PUSHBYTES_20 78283a9070c5dd41f68e76594e92e2c16b6f2f45 OP_EQUALVERIFY OP_CHECKSIG",
      "scriptpubkey_type": "p2pkh",
      "scriptpubkey_address": "1BxLHAUWAhN2LHWgvB9nJZRi93jjK2w2rx",
      "value": 135234
    }
  ],
  "size": 374,
  "weight": 845,
  "fee": 2544,
  "status": {
    "confirmed": true,
    "block_height": 834460,
    "block_hash": "00000000000000000000484a79b643b2524bbce82e5d8a442013fa5b8905ed98",
    "block_time": 1710307468
  },
  "hex": "0200000000010212c9b998fe299ed49d3a1350a80a5126817369e891337d2934363c4322ff55920000000000ffffffff9644ec8c4d59335bf69c8717f7ca63c8978c423bf1c88b0c4fde3353dfaff3ca0000000000ffffffff02ae08000000000000160014419854753506f2b3e771860f36eb919d89cc890f42100200000000001976a91478283a9070c5dd41f68e76594e92e2c16b6f2f4588ac02483045022100d9d9521a479816f0946a98ee27a0dc54cd6bc893ae1d21df5b7f1669ec5599e1022063199203979e91ff65148dab07b57c7621e973a6fa09b0e6519529b0e175e274012102fadd91034e09ce936351945ef137b8bce8338ef0a4f8a6a587124e6ecf5c73d402473044022067c9dd01a05117ece8001fb4c557c044a5e6aafbc268cc8f3bd00621e86cd85f02201ebac057b1463890aead28bf0d72e82f768ef1b516711373c52127c3f6f5f885012102fadd91034e09ce936351945ef137b8bce8338ef0a4f8a6a587124e6ecf5c73d400000000"
}