{
  "txid": "7bbcbb0d1b1fb2fc0c9aefb98edde65797133867dcad969ceb0019b303ddfa3a",
  "version": 2,
  "locktime": 0,
  "vin": [
    {
      "txid": "acc3ba00869acb582a3f2904ce3a11dd3779350ce234063fc7d0959246213364",
      "vout": 139,
      "prevout": {
        "scriptpubkey": "5120b792841f0651e565078d2fb56ac74ba5fdb0bb4c8137a5b4a821f38674f8b9c4",
        "scriptpubkey_asm": "OP_PUSHNUM_1 OP_PUSHBYTES_32 b792841f0651e565078d2fb56ac74ba5fdb0bb4c8137a5b4a821f38674f8b9c4",
        "scriptpubkey_type": "v1_p2tr",
        "scriptpubkey_address": "bc1pk7fgg8cx28jk2pud976k436t5h7mpw6vsym6td9gy8ecva8ch8zq3ffm0c",
        "value": 1806
      },
      "scriptsig": "",
      "scriptsig_asm": "",
      "witness": [
        "c1783c99b93358847b39b147dc833007fec2c9631a794293a646d84108c15a130ac0660342c438705a21f3a377ea6d042d4d10351c199fbf01467caf3d3f61db",
        "20405384df13d043729cfd72d01e7a407a76109ff6f97be9c3c7a70923345b8577ac0063036f726401010a746578742f706c61696e00357b2270223a226272632d3230222c226f70223a226d696e74222c227469636b223a22646f6765222c22616d74223a2234323030227d68",
        "c0405384df13d043729cfd72d01e7a407a76109ff6f97be9c3c7a70923345b8577"
      ],
      "is_coinbase": false,
      "sequence": 4261412863
    }
  ],
  "vout": [
    {
      "scriptpubkey": "00147a665de7a370f4c9b372ab1fae587500a5bcbdb4",
      "scriptpubkey_asm": "OP_0 OP_PUSHBYTES_20 7a665de7a370f4c9b372ab1fae587500a5bcbdb4",
      "scriptpubkey_type": "v0_p2wpkh",
      "scriptpubkey_address": "bc1q0fn9mearwr6vnvmj4v06ukr4qzjme0d565dzcx",
      "value": 294
    }
  ],
  "size": 294,
  "weight": 540,
  "fee": 1512,
  "status": {
    "confirmed": true,
    "block_height": 834460,
    "block_hash": "00000000000000000000484a79b643b2524bbce82e5d8a442013fa5b8905ed98",
    "block_time": 1710307468
  },
  "hex": "02000000000101643321469295d0c73f0634e20c357937dd113ace04293f2a58cb9a8600bac3ac8b00000000fffffffd0126010000000000001600147a665de7a370f4c9b372ab1fae587500a5bcbdb40340c1783c99b93358847b39b147dc833007fec2c9631a794293a646d84108c15a130ac0660342c438705a21f3a377ea6d042d4d10351c199fbf01467caf3d3f61db6d20405384df13d043729cfd72d01e7a407a76109ff6f97be9c3c7a70923345b8577ac0063036f726401010a746578742f706c61696e00357b2270223a226272632d3230222c226f70223a226d696e74222c227469636b223a22646f6765222c22616d74223a2234323030227d6821c0405384df13d043729cfd72d01e7a407a76109ff6f97be9c3c7a70923345b857700000000"
}