{
  "txid": "7bd5004a318336ad0970a8377ea362d3456deff57a341754c5e98ff1456fb6e6",
  "version": 2,
  "locktime": 0,
  "vin": [
    {
      "txid": "9c63b8bb5722d84af380cd0a9d913650038903519a041807230145ae74ffe16d",
      "vout": 1,
      "prevout": {
        "scriptpubkey": "5120c8ef2b6bf8b5c941a59a042c68788bdfe655af342c8b999c1d0ddfecda04651f",
        "scriptpubkey_asm": "OP_PUSHNUM_1 OP_PUSHBYTES_32 c8ef2b6bf8b5c941a59a042c68788bdfe655af342c8b999c1d0ddfecda04651f",
        "scriptpubkey_type": "v1_p2tr",
        "scriptpubkey_address": "bc1perhjk6lckhy5rfv6qskxs7ytmln9tte59j9en8qaph07eksyv50sp6v644",
        "value": 546
      },
      "scriptsig": "",
      "scriptsig_asm": "",
      "witness": [
        "969fa2342d921975f0c2f7017f87840afa49a1f7a650ae3e297d61153259e98e9ee4901168e129ee0affea4f6234a3964ccc30a567c1d31ce05a726c44ece33901"
      ],
      "is_coinbase": false,
      "sequence": 4294967295
    },
    {
      "txid": "c35d438f7c9a8a0c16ee2c17a9b9f0306c36d6988c09d233af6afd4784facb02",
      "vout": 3,
      "prevout": {
        "scriptpubkey": "a91413fd6f3a98f8847abc205bed3c7e7994f0a91a9287",
        "scriptpubkey_asm": "OP_HASH160 OP_PUSHBYTES_20 13fd6f3a98f8847abc205bed3c7e7994f0a91a92 OP_EQUAL",
        "scriptpubkey_type": "p2sh",
        "scriptpubkey_address": "33WiN8EHR8m74r7sSYACi35ALad4Z8XYdK",
        "value": 1651934
      },
      "scriptsig": "160014091462f34af0634e4d35e204dbadb473b1bf6262",
      "scriptsig_asm": "OP_PUSHBYTES_22 0014091462f34af0634e4d35e204dbadb473b1bf6262",
      "witness": [
        "3044022020d205019d208446c17577a0c1d1e3e751c6ced1e671ca0fca59c5cd7e6fb78202205220f326ccdd09352aaa8779e4da9bf86a7046f2ad397f93b2ff8d8877f96fd101",
        "03ece829c0646d88b7f1b281ba837583904bb8ed41475774b75d144ec88c5906cb"
      ],
      "is_coinbase": false,
      "sequence": 4294967295,
      "inner_redeemscript_asm": "OP_0 OP_PUSHBYTES_20 091462f34af0634e4d35e204dbadb473b1bf6262"
    }
  ],
  "vout": [
    {
      "scriptpubkey": "5120a38729f8fb63d71f01c50e028d4e8667826f792acdb17029cc153a84724556e1",
      "scriptpubkey_asm": "OP_PUSHNUM_1 OP_PUSHBYTES_32 a38729f8fb63d71f01c50e028d4e8667826f792acdb17029cc153a84724556e1",
      "scriptpubkey_type": "v1_p2tr",
      "scriptpubkey_address": "bc1p5wrjn78mv0t37qw9pcpg6n5xv7px77f2ekchq2wvz5agguj92msszj8mkg",
      "value": 546
    },
    {
      "scriptpubkey": "a9147c50a49f527653800d698ded4c752381a40d199087",
      "scriptpubkey_asm": "OP_HASH160 OP_PUSHBYTES_20 7c50a49f527653800d698ded4c752381a40d1990 OP_EQUAL",
      "scriptpubkey_type": "p2sh",
      "scriptpubkey_address": "3D2LKWSpRji4hx4Sk4K83CCPStzDuLDhgg",
      "value": 547
    },
    {
      "scriptpubkey": "a914ea6b832a05c6ca578baa3836f3f25553d41068a587",
      "scriptpubkey_asm": "OP_HASH160 OP_PUSHBYTES_20 ea6b832a05c6ca578baa3836f3f25553d41068a5 OP_EQUAL",
      "scriptpubkey_type": "p2sh",
      "scriptpubkey_address": "3P4WqXDbSLRhzo2H6MT6YFbvBKBDPLbVtQ",
      "value": 579
    },
    {
      "scriptpubkey": "a91413fd6f3a98f8847abc205bed3c7e7994f0a91a9287",
      "scriptpubkey_asm": "OP_HASH160 OP_PUSHBYTES_20 13fd6f3a98f8847abc205bed3c7e7994f0a91a92 OP_EQUAL",
      "scriptpubkey_type": "p2sh",
      "scriptpubkey_address": "33WiN8EHR8m74r7sSYACi35ALad4Z8XYdK",
      "value": 1646323
    }
  ],
  "size": 430,
  "weight": 1192,
  "fee": 4485,
  "status": {
    "confirmed": true,
    "block_height": 834638,
    "block_hash": "000000000000000000025f742c626208ac87e0b7d15054abb4a19ca2d735a54e",
    "block_time": 1710405325
  },
  "hex": "020000000001026de1ff74ae4501230718049a510389035036919d0acd80f34ad82257bbb8639c0100000000ffffffff02cbfa8447fd6aaf33d2098c98d6366c30f0b9a9172cee160c8a9a7c8f435dc30300000017160014091462f34af0634e4d35e204dbadb473b1bf6262ffffffff042202000000000000225120a38729f8fb63d71f01c50e028d4e8667826f792acdb17029cc153a84724556e1230200000000000017a9147c50a49f527653800d698ded4c752381a40d199087430200000000000017a914ea6b832a05c6ca578baa3836f3f25553d41068a587f31e19000000000017a91413fd6f3a98f8847abc205bed3c7e7994f0a91a92870141969fa2342d921975f0c2f7017f87840afa49a1f7a650ae3e297d61153259e98e9ee4901168e129ee0affea4f6234a3964ccc30a567c1d31ce05a726c44ece3390102473044022020d205019d208446c17577a0c1d1e3e751c6ced1e671ca0fca59c5cd7e6fb78202205220f326ccdd09352aaa8779e4da9bf86a7046f2ad397f93b2ff8d8877f96fd1012103ece829c0646d88b7f1b281ba837583904bb8ed41475774b75d144ec88c5906cb00000000"
}