{
  "txid": "7be958c8be68558542213fadf2a5670838b7c45090530fb0c678e1456ecce593",
  "version": 2,
  "locktime": 0,
  "vin": [
    {
      "txid": "50d4b5399260e4c5217c77304a0e0763c4e592225b1816e4993a57f9d7c9e35f",
      "vout": 1,
      "prevout": {
        "scriptpubkey": "51200008255431089e7c1675392b385f2d5adac23fabb17d7d16dcafd5b23e787e65",
        "scriptpubkey_asm": "OP_PUSHNUM_1 OP_PUSHBYTES_32 0008255431089e7c1675392b385f2d5adac23fabb17d7d16dcafd5b23e787e65",
        "scriptpubkey_type": "v1_p2tr",
        "scriptpubkey_address": "bc1pqqyz24p3pz08c9n48y4nshedttdvy0atk97h69ku4l2my0nc0ejsv0h7gu",
        "value": 2923
      },
      "scriptsig": "",
      "scriptsig_asm": "",
      "witness": [
        "ace6ad6768c5880eb1eb5ef2043da7a76f9b22be4456aee2fdb96e3ab619fa5750b2961ba6cc6207e174a48852e30a0d32a3fe7faf45ac09fb3296dce166a008",
        "20cd2d1ff5879838a6422e21125b7d58be264786ace7087fb5a1a8da579c878852ac0063036f726401010a746578742f706c61696e004c8f7b2270223a2022746170222c20226f70223a2022646d742d6d696e74222c2022646570223a2022333962373532343338626533613435326464623731376230613635346233313662316164343661383139656234343831383933626337313331663738396539616930222c20227469636b223a20226e61746f776c73222c2022626c6b223a2022373035373631227d68",
        "c1cd2d1ff5879838a6422e21125b7d58be264786ace7087fb5a1a8da579c878852"
      ],
      "is_coinbase": false,
      "sequence": 4294967293
    }
  ],
  "vout": [
    {
      "scriptpubkey": "5120875b27e2ebaa1189ad1777eb124b8f0cd3dfe933d9a47622ffca147caaca54b5",
      "scriptpubkey_asm": "OP_PUSHNUM_1 OP_PUSHBYTES_32 875b27e2ebaa1189ad1777eb124b8f0cd3dfe933d9a47622ffca147caaca54b5",
      "scriptpubkey_type": "v1_p2tr",
      "scriptpubkey_address": "bc1psadj0cht4ggcntghwl43yju0pnfal6fnmxj8vghleg28e2k22j6s05x69l",
      "value": 546
    }
  ],
  "size": 397,
  "weight": 679,
  "fee": 2377,
  "status": {
    "confirmed": true,
    "block_height": 834460,
    "block_hash": "00000000000000000000484a79b643b2524bbce82e5d8a442013fa5b8905ed98",
    "block_time": 1710307468
  },
  "hex": "020000000001015fe3c9d7f9573a99e416185b2292e5c463070e4a30777c21c5e4609239b5d4500100000000fdffffff012202000000000000225120875b27e2ebaa1189ad1777eb124b8f0cd3dfe933d9a47622ffca147caaca54b50340ace6ad6768c5880eb1eb5ef2043da7a76f9b22be4456aee2fdb96e3ab619fa5750b2961ba6cc6207e174a48852e30a0d32a3fe7faf45ac09fb3296dce166a008c820cd2d1ff5879838a6422e21125b7d58be264786ace7087fb5a1a8da579c878852ac0063036f726401010a746578742f706c61696e004c8f7b2270223a2022746170222c20226f70223a2022646d742d6d696e74222c2022646570223a2022333962373532343338626533613435326464623731376230613635346233313662316164343661383139656234343831383933626337313331663738396539616930222c20227469636b223a20226e61746f776c73222c2022626c6b223a2022373035373631227d6821c1cd2d1ff5879838a6422e21125b7d58be264786ace7087fb5a1a8da579c87885200000000"
}