{
  "txid": "7bfdb3aa0787da35b2ec4cd4887da0c2ed737c8028bf763cb735faffec2ecab6",
  "version": 2,
  "locktime": 834637,
  "vin": [
    {
      "txid": "862937f5972ad3bbd69475cc04dc7c9eedc5bf48dd225ebb513fbf697b4d1b5f",
      "vout": 0,
      "prevout": {
        "scriptpubkey": "00143c594e0c9e42f7ac0fd98319d29119d640629066",
        "scriptpubkey_asm": "OP_0 OP_PUSHBYTES_20 3c594e0c9e42f7ac0fd98319d29119d640629066",
        "scriptpubkey_type": "v0_p2wpkh",
        "scriptpubkey_address": "bc1q83v5ury7gtm6cr7esvva9yge6eqx9yrxj7hwhg",
        "value": 249773272
      },
      "scriptsig": "",
      "scriptsig_asm": "",
      "witness": [
        "3044022059d2e63975ba92ed0ed180d226fdbd67a77cea0fe751dbbc493a19fc2d657624022004387276dc069ae56e2be130820860f345d4b99f735367affbb7108eae727c3701",
        "034400ae27b00d6e4a0877b37c1381632e79d310e8d0e9b702c688efda2a3ee0e1"
      ],
      "is_coinbase": false,
      "sequence": 4294967294
    }
  ],
  "vout": [
    {
      "scriptpubkey": "00141a9c97c912c1fb978fd1529f0ea76af5204aed0a",
      "scriptpubkey_asm": "OP_0 OP_PUSHBYTES_20 1a9c97c912c1fb978fd1529f0ea76af5204aed0a",
      "scriptpubkey_type": "v0_p2wpkh",
      "scriptpubkey_address": "bc1qr2wf0jgjc8ae0r73220safm275sy4mg22e6vqp",
      "value": 1377000
    },
    {
      "scriptpubkey": "00149040d18db0a2001f217e586a0d13efe742f2de3b",
      "scriptpubkey_asm": "OP_0 OP_PUSHBYTES_20 9040d18db0a2001f217e586a0d13efe742f2de3b",
      "scriptpubkey_type": "v0_p2wpkh",
      "scriptpubkey_address": "bc1qjpqdrrds5gqp7gt7tp4q6yl0uap09h3mq5cfwl",
      "value": 248392816
    }
  ],
  "size": 222,
  "weight": 561,
  "fee": 3456,
  "status": {
    "confirmed": true,
    "block_height": 834638,
    "block_hash": "000000000000000000025f742c626208ac87e0b7d15054abb4a19ca2d735a54e",
    "block_time": 1710405325
  },
  "hex": "020000000001015f1b4d7b69bf3f51bb5e22dd48bfc5ed9e7cdc04cc7594d6bbd32a97f53729860000000000feffffff02e8021500000000001600141a9c97c912c1fb978fd1529f0ea76af5204aed0a702cce0e000000001600149040d18db0a2001f217e586a0d13efe742f2de3b02473044022059d2e63975ba92ed0ed180d226fdbd67a77cea0fe751dbbc493a19fc2d657624022004387276dc069ae56e2be130820860f345d4b99f735367affbb7108eae727c370121034400ae27b00d6e4a0877b37c1381632e79d310e8d0e9b702c688efda2a3ee0e14dbc0c00"
}