{
  "txid": "7c00b0a48b98a763b7461ca9add215f32c48a03fb04d87788354eea4938dda3e",
  "version": 2,
  "locktime": 834447,
  "vin": [
    {
      "txid": "872f3d029b30413a24987fa727d97db37031d5f3de3c9f70932065b35e6c304d",
      "vout": 1,
      "prevout": {
        "scriptpubkey": "76a914f37da9e2f230e55757d036aafe780e666a40572e88ac",
        "scriptpubkey_asm": "OP_DUP OP_HASH160 OP_PUSHBYTES_20 f37da9e2f230e55757d036aafe780e666a40572e OP_EQUALVERIFY OP_CHECKSIG",
        "scriptpubkey_type": "p2pkh",
        "scriptpubkey_address": "1PCTjspGnckKAsUrvQp7LnoERjU2RADKEY",
        "value": 531790
      },
      "scriptsig": "473044022023867741bde4e11fc63cf06fec699efd4f4f9dd8a00a59c9b8c07ca792def86f02200ec85b8231f408e5e7f18844dc5a479e00724df31273d4952d802d881811e4090121032d72a59934bc3adba5973bfb914fb3310a0ecbcb49cd005b0fdaa8851cd88ae2",
      "scriptsig_asm": "OP_PUSHBYTES_71 3044022023867741bde4e11fc63cf06fec699efd4f4f9dd8a00a59c9b8c07ca792def86f02200ec85b8231f408e5e7f18844dc5a479e00724df31273d4952d802d881811e40901 OP_PUSHBYTES_33 032d72a59934bc3adba5973bfb914fb3310a0ecbcb49cd005b0fdaa8851cd88ae2",
      "is_coinbase": false,
      "sequence": 4294967293
    }
  ],
  "vout": [
    {
      "scriptpubkey": "0014325e5d38d5fed588b8aeee2ce0f32b4a905ab214",
      "scriptpubkey_asm": "OP_0 OP_PUSHBYTES_20 325e5d38d5fed588b8aeee2ce0f32b4a905ab214",
      "scriptpubkey_type": "v0_p2wpkh",
      "scriptpubkey_address": "bc1qxf096wx4lm2c3w9wackwpuetf2g94vs580t786",
      "value": 82000
    },
    {
      "scriptpubkey": "76a914514d430010643f95d12707be61858c58bb269f7a88ac",
      "scriptpubkey_asm": "OP_DUP OP_HASH160 OP_PUSHBYTES_20 514d430010643f95d12707be61858c58bb269f7a OP_EQUALVERIFY OP_CHECKSIG",
      "scriptpubkey_type": "p2pkh",
      "scriptpubkey_address": "18QtHn3h7H6YuDK53DrA4JxSe7zYdVRX4N",
      "value": 447300
    }
  ],
  "size": 222,
  "weight": 888,
  "fee": 2490,
  "status": {
    "confirmed": true,
    "block_height": 834460,
    "block_hash": "00000000000000000000484a79b643b2524bbce82e5d8a442013fa5b8905ed98",
    "block_time": 1710307468
  },
  "hex": "02000000014d306c5eb3652093709f3cdef3d53170b37dd927a77f98243a41309b023d2f87010000006a473044022023867741bde4e11fc63cf06fec699efd4f4f9dd8a00a59c9b8c07ca792def86f02200ec85b8231f408e5e7f18844dc5a479e00724df31273d4952d802d881811e4090121032d72a59934bc3adba5973bfb914fb3310a0ecbcb49cd005b0fdaa8851cd88ae2fdffffff025040010000000000160014325e5d38d5fed588b8aeee2ce0f32b4a905ab21444d30600000000001976a914514d430010643f95d12707be61858c58bb269f7a88ac8fbb0c00"
}