{
  "txid": "7c08140488df594d0d2c035973905ddab3566ba03455470e5059a0c7c284307f",
  "version": 2,
  "locktime": 0,
  "vin": [
    {
      "txid": "8486ecb4df0880316dd6e82b3971b4df187aff23765bc3a47f8d78bb53aa273c",
      "vout": 67,
      "prevout": {
        "scriptpubkey": "5120f1c58420fcb6c103a5d3c60cadadaed1f3b2db44d59e0dd987cf334707e56d6c",
        "scriptpubkey_asm": "OP_PUSHNUM_1 OP_PUSHBYTES_32 f1c58420fcb6c103a5d3c60cadadaed1f3b2db44d59e0dd987cf334707e56d6c",
        "scriptpubkey_type": "v1_p2tr",
        "scriptpubkey_address": "bc1p78zcgg8ukmqs8fwnccx2mtdw68em9k6y6k0qmkv8eue5wpl9d4kqldkz6n",
        "value": 2575
      },
      "scriptsig": "",
      "scriptsig_asm": "",
      "witness": [
        "37e28aa393bf0ded8af88c6f9a5f79522a8f00a410984b6b4399232185de77e8270c3c5d3d65d5bae06b982a0c7b81acb58323c53bea17b123b05e6d6885a6d2",
        "20c5cdcda9907ad967236e5112c2392bebe1498eb931900218dc4d01c470c2f42fac0063036f726401010a746578742f706c61696e00367b2270223a226272632d3230222c226f70223a226d696e74222c227469636b223a2261616161222c22616d74223a223130303030227d68",
        "c0c5cdcda9907ad967236e5112c2392bebe1498eb931900218dc4d01c470c2f42f"
      ],
      "is_coinbase": false,
      "sequence": 4261412863
    }
  ],
  "vout": [
    {
      "scriptpubkey": "0014ddd7ef12ea6f78edcc1e8e7afa12c01ab59f3339",
      "scriptpubkey_asm": "OP_0 OP_PUSHBYTES_20 ddd7ef12ea6f78edcc1e8e7afa12c01ab59f3339",
      "scriptpubkey_type": "v0_p2wpkh",
      "scriptpubkey_address": "bc1qmht77yh2dauwmnq73ea05ykqr26e7veea8spz6",
      "value": 546
    }
  ],
  "size": 295,
  "weight": 541,
  "fee": 2029,
  "status": {
    "confirmed": true,
    "block_height": 834460,
    "block_hash": "00000000000000000000484a79b643b2524bbce82e5d8a442013fa5b8905ed98",
    "block_time": 1710307468
  },
  "hex": "020000000001013c27aa53bb788d7fa4c35b7623ff7a18dfb471392be8d66d318008dfb4ec86844300000000fffffffd012202000000000000160014ddd7ef12ea6f78edcc1e8e7afa12c01ab59f3339034037e28aa393bf0ded8af88c6f9a5f79522a8f00a410984b6b4399232185de77e8270c3c5d3d65d5bae06b982a0c7b81acb58323c53bea17b123b05e6d6885a6d26e20c5cdcda9907ad967236e5112c2392bebe1498eb931900218dc4d01c470c2f42fac0063036f726401010a746578742f706c61696e00367b2270223a226272632d3230222c226f70223a226d696e74222c227469636b223a2261616161222c22616d74223a223130303030227d6821c0c5cdcda9907ad967236e5112c2392bebe1498eb931900218dc4d01c470c2f42f00000000"
}