{
  "txid": "7c13b3ac0d8d033eda4f82a9af0cf10da854d197e3d86e653b22c78367ee4c8e",
  "version": 2,
  "locktime": 0,
  "vin": [
    {
      "txid": "cb0e2ffdb432fa68b7c0046235053f3d3a339dcf1c58fbb16cd182aeca0f4734",
      "vout": 0,
      "prevout": {
        "scriptpubkey": "5120e65ff50a8f5ad3b1b8b1595fcfa84a1f7f078078135e1492d51739d12e9a089e",
        "scriptpubkey_asm": "OP_PUSHNUM_1 OP_PUSHBYTES_32 e65ff50a8f5ad3b1b8b1595fcfa84a1f7f078078135e1492d51739d12e9a089e",
        "scriptpubkey_type": "v1_p2tr",
        "scriptpubkey_address": "bc1pue0l2z50ttfmrw93t90ul2z2rals0qrczd0pfyk4zuuazt56pz0qhayk55",
        "value": 8000
      },
      "scriptsig": "",
      "scriptsig_asm": "",
      "witness": [
        "1a926a965353893797207e638008572336a2b533a9c016d062e1f7c33cf6455efe7cc492ec7465d7b48871681049e20eb611f4dd59d7e217d1ec1a41f51e2450",
        "20aca20916f790912d329bc1ecabe5db8ce2813ddee107233c8a8e1f2e21f05169ac0063036f7264010118746578742f706c61696e3b636861727365743d7574662d3800406661383739323634323531366165333538643265303461343137383434633433636234303366663438653030653665636332613530346166343665343232343068",
        "c0bd77f038ff655a93a4aa64d214edcf6c4cc6b9d956f831f1df9076365fbb32e3"
      ],
      "is_coinbase": false,
      "sequence": 4294967293
    }
  ],
  "vout": [
    {
      "scriptpubkey": "512049ae9df7e80fe2c54c0599a3e7562a7ea3468e86a1fc3bfab6f8b2e8a080657c",
      "scriptpubkey_asm": "OP_PUSHNUM_1 OP_PUSHBYTES_32 49ae9df7e80fe2c54c0599a3e7562a7ea3468e86a1fc3bfab6f8b2e8a080657c",
      "scriptpubkey_type": "v1_p2tr",
      "scriptpubkey_address": "bc1pfxhfmalgpl3v2nq9nx37w4320635dr5x587rh74klzew3gyqv47qtnpaev",
      "value": 546
    },
    {
      "scriptpubkey": "001413ed0f2f45b85baf5517ac034e95ceaafdd0b130",
      "scriptpubkey_asm": "OP_0 OP_PUSHBYTES_20 13ed0f2f45b85baf5517ac034e95ceaafdd0b130",
      "scriptpubkey_type": "v0_p2wpkh",
      "scriptpubkey_address": "bc1qz0ks7t69hpd674gh4sp5a9ww4t7apvfsey6dsh",
      "value": 1904
    }
  ],
  "size": 362,
  "weight": 737,
  "fee": 5550,
  "status": {
    "confirmed": true,
    "block_height": 834638,
    "block_hash": "000000000000000000025f742c626208ac87e0b7d15054abb4a19ca2d735a54e",
    "block_time": 1710405325
  },
  "hex": "0200000000010134470fcaae82d16cb1fb581ccf9d333a3d3f05356204c0b768fa32b4fd2f0ecb0000000000fdffffff02220200000000000022512049ae9df7e80fe2c54c0599a3e7562a7ea3468e86a1fc3bfab6f8b2e8a080657c700700000000000016001413ed0f2f45b85baf5517ac034e95ceaafdd0b13003401a926a965353893797207e638008572336a2b533a9c016d062e1f7c33cf6455efe7cc492ec7465d7b48871681049e20eb611f4dd59d7e217d1ec1a41f51e24508620aca20916f790912d329bc1ecabe5db8ce2813ddee107233c8a8e1f2e21f05169ac0063036f7264010118746578742f706c61696e3b636861727365743d7574662d380040666138373932363432353136616533353864326530346134313738343463343363623430336666343865303065366563633261353034616634366534323234306821c0bd77f038ff655a93a4aa64d214edcf6c4cc6b9d956f831f1df9076365fbb32e300000000"
}