{
  "txid": "7c3b0efd27343e1cc131a2171ecf841e665d88b52b6ca2932b7f792bae305f01",
  "version": 2,
  "locktime": 0,
  "vin": [
    {
      "txid": "43d9b6c8d4718fa262f2cab5e61dcde23237cd4f9e364411cd29284948556994",
      "vout": 1,
      "prevout": {
        "scriptpubkey": "00146dd5406c99231d5a160f2d3b702cab37decd70ac",
        "scriptpubkey_asm": "OP_0 OP_PUSHBYTES_20 6dd5406c99231d5a160f2d3b702cab37decd70ac",
        "scriptpubkey_type": "v0_p2wpkh",
        "scriptpubkey_address": "bc1qdh25qmyeyvw459s095ahqt9txl0v6u9vg5p5c6",
        "value": 1786015
      },
      "scriptsig": "",
      "scriptsig_asm": "",
      "witness": [
        "3045022100da835e2cfd124a856b96f39076f6c2fbe1f218702d90ef1c39589e1b65399a5702202a28e10aa17d76102e487676e2f67f0afc394351431b10029faffa9617d417a301",
        "032958d25abfd5b88025aaaea341d40f63c0ce7234e829aeea20f7a6425aa7c68a"
      ],
      "is_coinbase": false,
      "sequence": 4294967295
    },
    {
      "txid": "476e80a3bf46f4154d4f17a94536b1492a45f426e54ad06efdce5a666ed13561",
      "vout": 0,
      "prevout": {
        "scriptpubkey": "00146dd5406c99231d5a160f2d3b702cab37decd70ac",
        "scriptpubkey_asm": "OP_0 OP_PUSHBYTES_20 6dd5406c99231d5a160f2d3b702cab37decd70ac",
        "scriptpubkey_type": "v0_p2wpkh",
        "scriptpubkey_address": "bc1qdh25qmyeyvw459s095ahqt9txl0v6u9vg5p5c6",
        "value": 472578
      },
      "scriptsig": "",
      "scriptsig_asm": "",
      "witness": [
        "3045022100bd011cb591ebd68412b86ec99a6e622e26173e95004b96fb4f1de5618e9464260220462a44f6c63b3f7973ecdb1c4a3ba68928c023b23b616ead5e94ab0c57a8f03c01",
        "032958d25abfd5b88025aaaea341d40f63c0ce7234e829aeea20f7a6425aa7c68a"
      ],
      "is_coinbase": false,
      "sequence": 4294967295
    }
  ],
  "vout": [
    {
      "scriptpubkey": "a914101e530cfbb7937f0d756bb989efcdbec3f04e1c87",
      "scriptpubkey_asm": "OP_HASH160 OP_PUSHBYTES_20 101e530cfbb7937f0d756bb989efcdbec3f04e1c OP_EQUAL",
      "scriptpubkey_type": "p2sh",
      "scriptpubkey_address": "33AF4bCZpLn8pbTfb2saceANt4ahCPX4mm",
      "value": 1362537
    },
    {
      "scriptpubkey": "00146dd5406c99231d5a160f2d3b702cab37decd70ac",
      "scriptpubkey_asm": "OP_0 OP_PUSHBYTES_20 6dd5406c99231d5a160f2d3b702cab37decd70ac",
      "scriptpubkey_type": "v0_p2wpkh",
      "scriptpubkey_address": "bc1qdh25qmyeyvw459s095ahqt9txl0v6u9vg5p5c6",
      "value": 893039
    }
  ],
  "size": 373,
  "weight": 838,
  "fee": 3017,
  "status": {
    "confirmed": true,
    "block_height": 834638,
    "block_hash": "000000000000000000025f742c626208ac87e0b7d15054abb4a19ca2d735a54e",
    "block_time": 1710405325
  },
  "hex": "0200000000010294695548492829cd1144369e4fcd3732e2cd1de6b5caf262a28f71d4c8b6d9430100000000ffffffff6135d16e665acefd6ed04ae526f4452a49b13645a9174f4d15f446bfa3806e470000000000ffffffff0269ca14000000000017a914101e530cfbb7937f0d756bb989efcdbec3f04e1c876fa00d00000000001600146dd5406c99231d5a160f2d3b702cab37decd70ac02483045022100da835e2cfd124a856b96f39076f6c2fbe1f218702d90ef1c39589e1b65399a5702202a28e10aa17d76102e487676e2f67f0afc394351431b10029faffa9617d417a30121032958d25abfd5b88025aaaea341d40f63c0ce7234e829aeea20f7a6425aa7c68a02483045022100bd011cb591ebd68412b86ec99a6e622e26173e95004b96fb4f1de5618e9464260220462a44f6c63b3f7973ecdb1c4a3ba68928c023b23b616ead5e94ab0c57a8f03c0121032958d25abfd5b88025aaaea341d40f63c0ce7234e829aeea20f7a6425aa7c68a00000000"
}