{
  "txid": "7c5375fb3241169471150411cd1f3c34f3b7b20817b41ec80d521e88c15aca28",
  "version": 1,
  "locktime": 0,
  "vin": [
    {
      "txid": "d39e62ff7af46156c242786cb17e1414a1739e7b47cd888f0f3fe5d2aa94d86c",
      "vout": 1,
      "prevout": {
        "scriptpubkey": "0014061fb9c56d8e36eb710b830c4be7e44d99d01c3f",
        "scriptpubkey_asm": "OP_0 OP_PUSHBYTES_20 061fb9c56d8e36eb710b830c4be7e44d99d01c3f",
        "scriptpubkey_type": "v0_p2wpkh",
        "scriptpubkey_address": "bc1qqc0mn3td3cmwkugtsvxyhelyfkvaq8plyva2j7",
        "value": 580692
      },
      "scriptsig": "",
      "scriptsig_asm": "",
      "witness": [
        "3045022100f57b76719c959726208676fa0dbac1e47cdd635928923d0d20c5b534d243e86d02202a0c7b4d424895cbab5c4d5c7d9249ba8b5d7ebab01573db41c35d104605d5a301",
        "0268c0828533e2fc94bbd0b39a723614c756a0ec7c0ddce2e874968fb520761648"
      ],
      "is_coinbase": false,
      "sequence": 4294967295
    }
  ],
  "vout": [
    {
      "scriptpubkey": "0014e85fad7a2d6aee74f340537df647036ffebf9b75",
      "scriptpubkey_asm": "OP_0 OP_PUSHBYTES_20 e85fad7a2d6aee74f340537df647036ffebf9b75",
      "scriptpubkey_type": "v0_p2wpkh",
      "scriptpubkey_address": "bc1qap06673ddth8fu6q2d7lv3crdlltlxm4y9wgrm",
      "value": 200000
    },
    {
      "scriptpubkey": "0014061fb9c56d8e36eb710b830c4be7e44d99d01c3f",
      "scriptpubkey_asm": "OP_0 OP_PUSHBYTES_20 061fb9c56d8e36eb710b830c4be7e44d99d01c3f",
      "scriptpubkey_type": "v0_p2wpkh",
      "scriptpubkey_address": "bc1qqc0mn3td3cmwkugtsvxyhelyfkvaq8plyva2j7",
      "value": 376885
    }
  ],
  "size": 223,
  "weight": 562,
  "fee": 3807,
  "status": {
    "confirmed": true,
    "block_height": 834638,
    "block_hash": "000000000000000000025f742c626208ac87e0b7d15054abb4a19ca2d735a54e",
    "block_time": 1710405325
  },
  "hex": "010000000001016cd894aad2e53f0f8f88cd477b9e73a114147eb16c7842c25661f47aff629ed30100000000ffffffff02400d030000000000160014e85fad7a2d6aee74f340537df647036ffebf9b7535c0050000000000160014061fb9c56d8e36eb710b830c4be7e44d99d01c3f02483045022100f57b76719c959726208676fa0dbac1e47cdd635928923d0d20c5b534d243e86d02202a0c7b4d424895cbab5c4d5c7d9249ba8b5d7ebab01573db41c35d104605d5a301210268c0828533e2fc94bbd0b39a723614c756a0ec7c0ddce2e874968fb52076164800000000"
}