{
  "txid": "7c613e4ad5f54f7b42030b5e9f8c1c1ba403842539fe4a2c962914769fc99eb0",
  "version": 2,
  "locktime": 0,
  "vin": [
    {
      "txid": "8486ecb4df0880316dd6e82b3971b4df187aff23765bc3a47f8d78bb53aa273c",
      "vout": 60,
      "prevout": {
        "scriptpubkey": "5120884e75b1dbec03ed40cb708369fa67bafa582765f6cdcd433f9fbce63e6f0a6d",
        "scriptpubkey_asm": "OP_PUSHNUM_1 OP_PUSHBYTES_32 884e75b1dbec03ed40cb708369fa67bafa582765f6cdcd433f9fbce63e6f0a6d",
        "scriptpubkey_type": "v1_p2tr",
        "scriptpubkey_address": "bc1p3p88tvwmasp76sxtwzpkn7n8hta9sfm97mxu6seln77wv0n0pfksynyv5q",
        "value": 2575
      },
      "scriptsig": "",
      "scriptsig_asm": "",
      "witness": [
        "6417cac97c60bb9716a284fd2e75ecb8eda386b41dba3e24a8e939bc1caa96010d2a20ac3918af079d2e20d60c1ee0450455fc68ee04886ecd9842dfaaa1afa2",
        "20ead07ad7c0e21103054dd6724427d1b7c2ce10ff298e910f76a81af1e9bda2d2ac0063036f726401010a746578742f706c61696e00367b2270223a226272632d3230222c226f70223a226d696e74222c227469636b223a2261616161222c22616d74223a223130303030227d68",
        "c0ead07ad7c0e21103054dd6724427d1b7c2ce10ff298e910f76a81af1e9bda2d2"
      ],
      "is_coinbase": false,
      "sequence": 4261412863
    }
  ],
  "vout": [
    {
      "scriptpubkey": "0014ddd7ef12ea6f78edcc1e8e7afa12c01ab59f3339",
      "scriptpubkey_asm": "OP_0 OP_PUSHBYTES_20 ddd7ef12ea6f78edcc1e8e7afa12c01ab59f3339",
      "scriptpubkey_type": "v0_p2wpkh",
      "scriptpubkey_address": "bc1qmht77yh2dauwmnq73ea05ykqr26e7veea8spz6",
      "value": 546
    }
  ],
  "size": 295,
  "weight": 541,
  "fee": 2029,
  "status": {
    "confirmed": true,
    "block_height": 834460,
    "block_hash": "00000000000000000000484a79b643b2524bbce82e5d8a442013fa5b8905ed98",
    "block_time": 1710307468
  },
  "hex": "020000000001013c27aa53bb788d7fa4c35b7623ff7a18dfb471392be8d66d318008dfb4ec86843c00000000fffffffd012202000000000000160014ddd7ef12ea6f78edcc1e8e7afa12c01ab59f333903406417cac97c60bb9716a284fd2e75ecb8eda386b41dba3e24a8e939bc1caa96010d2a20ac3918af079d2e20d60c1ee0450455fc68ee04886ecd9842dfaaa1afa26e20ead07ad7c0e21103054dd6724427d1b7c2ce10ff298e910f76a81af1e9bda2d2ac0063036f726401010a746578742f706c61696e00367b2270223a226272632d3230222c226f70223a226d696e74222c227469636b223a2261616161222c22616d74223a223130303030227d6821c0ead07ad7c0e21103054dd6724427d1b7c2ce10ff298e910f76a81af1e9bda2d200000000"
}