{
  "txid": "7c7ea78d5852ddc414d1590a5e71d93a8d387e0fc79e4727894d81a762e3c922",
  "version": 1,
  "locktime": 0,
  "vin": [
    {
      "txid": "6c222078e0b8caa97bf8ba940ac77f9b496b81eb44849073d9946d32c9f6ac2e",
      "vout": 17,
      "prevout": {
        "scriptpubkey": "00145af95445476e633c191398be48b5838b8394c176",
        "scriptpubkey_asm": "OP_0 OP_PUSHBYTES_20 5af95445476e633c191398be48b5838b8394c176",
        "scriptpubkey_type": "v0_p2wpkh",
        "scriptpubkey_address": "bc1qttu4g328de3ncxgnnzly3dvr3wpefstkd7d0uk",
        "value": 21017
      },
      "scriptsig": "",
      "scriptsig_asm": "",
      "witness": [
        "3044022052fbd748cb2456c4fe9a6d0b39de6f3768d0fde43251ce5c475ac0a3064de5d502206aff453416508bd1206e0cfe7c864086ade18279037c364a0e996a0b887b6c3a01",
        "03b88cc709bc2b73428a0461b182b97f5a5053658b274cde3d32c7d0a2b66de3ae"
      ],
      "is_coinbase": false,
      "sequence": 4294967293
    },
    {
      "txid": "72abf6cda06ab9b456a67721ddbdaad5dce2404a1d201bd9eaa1f318ffc6e765",
      "vout": 87,
      "prevout": {
        "scriptpubkey": "00143ec9adfd15351cedc0e9ec08429d4de7919e7d9b",
        "scriptpubkey_asm": "OP_0 OP_PUSHBYTES_20 3ec9adfd15351cedc0e9ec08429d4de7919e7d9b",
        "scriptpubkey_type": "v0_p2wpkh",
        "scriptpubkey_address": "bc1q8my6mlg4x5wwms8fasyy982du7geulvmh7um72",
        "value": 19557
      },
      "scriptsig": "",
      "scriptsig_asm": "",
      "witness": [
        "304402204d0d5d241cbd592c689b60cec6658f7a27ab2d9f3be4259244c367c78f80892e02205742496a1aa4932657d9c94a7b312de7628d294e1afdf1c58e76abe7b74acde601",
        "027493394917df6bf5158fafce478fb35f552b1e632241b45ca239a5554fdc7686"
      ],
      "is_coinbase": false,
      "sequence": 4294967293
    },
    {
      "txid": "37eaab01a49b55b01ff7aa089724aca6eccb4a7d61dd6df41836d8b2f2598b98",
      "vout": 135,
      "prevout": {
        "scriptpubkey": "00142f7885983deff17a5fbedc4444eace7bd6330ca3",
        "scriptpubkey_asm": "OP_0 OP_PUSHBYTES_20 2f7885983deff17a5fbedc4444eace7bd6330ca3",
        "scriptpubkey_type": "v0_p2wpkh",
        "scriptpubkey_address": "bc1q9augtxpaalch5ha7m3zyf6kw00trxr9rccvdu4",
        "value": 19095
      },
      "scriptsig": "",
      "scriptsig_asm": "",
      "witness": [
        "3045022100bef65161f5e59223fa15fb0b9acd07e9d5094a55c3ff25e8eb14672d13b522c702207533ddcfd528c09d22da54a948f1f8f5c71e026929d9a8ad587e86c019566d1701",
        "02a5f5ea5ba47abf0bd5f98d3a5157097567728dc9671b531df4be94add00337f9"
      ],
      "is_coinbase": false,
      "sequence": 4294967293
    },
    {
      "txid": "72abf6cda06ab9b456a67721ddbdaad5dce2404a1d201bd9eaa1f318ffc6e765",
      "vout": 128,
      "prevout": {
        "scriptpubkey": "0014f7ffe08ef6a640e4ffa56f660e6393e69b0f3d4f",
        "scriptpubkey_asm": "OP_0 OP_PUSHBYTES_20 f7ffe08ef6a640e4ffa56f660e6393e69b0f3d4f",
        "scriptpubkey_type": "v0_p2wpkh",
        "scriptpubkey_address": "bc1q7ll7prhk5eqwfla9danqucunu6ds7020udpqda",
        "value": 17864
      },
      "scriptsig": "",
      "scriptsig_asm": "",
      "witness": [
        "3045022100def406efbee5971f1ed7bb4608bda0cc973e7f5e3d681dd88481947e4a394121022063bb586795c8aabb803e32e7815832c9b83f7d759fc70a709fda1b989c96327e01",
        "020d789cf186dc933ba4ba3df446b1f8ec6269414bd092ddc5d0fe0cc33f0f70f3"
      ],
      "is_coinbase": false,
      "sequence": 4294967293
    }
  ],
  "vout": [
    {
      "scriptpubkey": "00140589395d62cca7bcb9813d00332540a319b50b1e",
      "scriptpubkey_asm": "OP_0 OP_PUSHBYTES_20 0589395d62cca7bcb9813d00332540a319b50b1e",
      "scriptpubkey_type": "v0_p2wpkh",
      "scriptpubkey_address": "bc1qqkynjhtzejnmewvp85qrxf2q5vvm2zc7s4vy9j",
      "value": 68053
    }
  ],
  "size": 637,
  "weight": 1252,
  "fee": 9480,
  "status": {
    "confirmed": true,
    "block_height": 834638,
    "block_hash": "000000000000000000025f742c626208ac87e0b7d15054abb4a19ca2d735a54e",
    "block_time": 1710405325
  },
  "hex": "010000000001042eacf6c9326d94d973908444eb816b499b7fc70a94baf87ba9cab8e07820226c1100000000fdffffff65e7c6ff18f3a1ead91b201d4a40e2dcd5aabddd2177a656b4b96aa0cdf6ab725700000000fdffffff988b59f2b2d83618f46ddd617d4acbeca6ac249708aaf71fb0559ba401abea378700000000fdffffff65e7c6ff18f3a1ead91b201d4a40e2dcd5aabddd2177a656b4b96aa0cdf6ab728000000000fdffffff01d5090100000000001600140589395d62cca7bcb9813d00332540a319b50b1e02473044022052fbd748cb2456c4fe9a6d0b39de6f3768d0fde43251ce5c475ac0a3064de5d502206aff453416508bd1206e0cfe7c864086ade18279037c364a0e996a0b887b6c3a012103b88cc709bc2b73428a0461b182b97f5a5053658b274cde3d32c7d0a2b66de3ae0247304402204d0d5d241cbd592c689b60cec6658f7a27ab2d9f3be4259244c367c78f80892e02205742496a1aa4932657d9c94a7b312de7628d294e1afdf1c58e76abe7b74acde60121027493394917df6bf5158fafce478fb35f552b1e632241b45ca239a5554fdc768602483045022100bef65161f5e59223fa15fb0b9acd07e9d5094a55c3ff25e8eb14672d13b522c702207533ddcfd528c09d22da54a948f1f8f5c71e026929d9a8ad587e86c019566d17012102a5f5ea5ba47abf0bd5f98d3a5157097567728dc9671b531df4be94add00337f902483045022100def406efbee5971f1ed7bb4608bda0cc973e7f5e3d681dd88481947e4a394121022063bb586795c8aabb803e32e7815832c9b83f7d759fc70a709fda1b989c96327e0121020d789cf186dc933ba4ba3df446b1f8ec6269414bd092ddc5d0fe0cc33f0f70f300000000"
}