{
  "txid": "7c8017c2accb94036cbd125f954ca4a7f79fac0a2eff6bcb30ddcf04551a03df",
  "version": 2,
  "locktime": 0,
  "vin": [
    {
      "txid": "945ba8d4ae757dce36cd5e5b9cb282a5396c6e6972016ea5d78f63b2e8fe9e52",
      "vout": 17,
      "prevout": {
        "scriptpubkey": "51201df0161c41302f9e04f333830b76157d1b3143b820cb3d197c12ff2d0107c543",
        "scriptpubkey_asm": "OP_PUSHNUM_1 OP_PUSHBYTES_32 1df0161c41302f9e04f333830b76157d1b3143b820cb3d197c12ff2d0107c543",
        "scriptpubkey_type": "v1_p2tr",
        "scriptpubkey_address": "bc1prhcpv8zpxqheup8nxwpskas405dnzsacyr9n6xtuztlj6qg8c4pssn2g3x",
        "value": 2862
      },
      "scriptsig": "",
      "scriptsig_asm": "",
      "witness": [
        "1533bc802eeaacd01b41889c02b62ecad36003c9bb701d0b0490a9bbb0541cadd3a9df93ad8ef418a9e645fec57dde00d09bac7f3e4a38823c7a0949208207d9",
        "2081b72b40ff6bda8bcac51de6333ff1e5fc1575599bfd7c46d5d5bc0197899b4dac0063036f726401011e6170706c69636174696f6e2f6a736f6e3b636861727365743d7574662d38004cd37b2270223a22706f772d3230222c226f70223a226d696e74222c227469636b223a2250455045222c22616d74223a2231303030222c22736f6c7574696f6e223a22504550453a62633170367a67656779647861737432786571616535763930396434396a323636786e707a6178776634386336786b736871703766797a717734733761663a303030303030303030303030303030303030303139393431613561653132383937363539383134343239323533333030353762306461393666336465613163353a3338343638383232363430227d68",
        "c15067337a99a00666fd957e65b5c212a7b30f6b410af3fccba2d4635da920c85e"
      ],
      "is_coinbase": false,
      "sequence": 4294967295
    }
  ],
  "vout": [
    {
      "scriptpubkey": "5120d0919411a6ec16a3641dcd185795b52c95ad1a61174ce4d4f8d1ad0b803e4904",
      "scriptpubkey_asm": "OP_PUSHNUM_1 OP_PUSHBYTES_32 d0919411a6ec16a3641dcd185795b52c95ad1a61174ce4d4f8d1ad0b803e4904",
      "scriptpubkey_type": "v1_p2tr",
      "scriptpubkey_address": "bc1p6zgegydxast2xeqae5v909d49j266xnpzaxwf48c6xkshqp7fyzqw4s7af",
      "value": 546
    }
  ],
  "size": 487,
  "weight": 769,
  "fee": 2316,
  "status": {
    "confirmed": true,
    "block_height": 834460,
    "block_hash": "00000000000000000000484a79b643b2524bbce82e5d8a442013fa5b8905ed98",
    "block_time": 1710307468
  },
  "hex": "02000000000101529efee8b2638fd7a56e0172696e6c39a582b29c5b5ecd36ce7d75aed4a85b941100000000ffffffff012202000000000000225120d0919411a6ec16a3641dcd185795b52c95ad1a61174ce4d4f8d1ad0b803e490403401533bc802eeaacd01b41889c02b62ecad36003c9bb701d0b0490a9bbb0541cadd3a9df93ad8ef418a9e645fec57dde00d09bac7f3e4a38823c7a0949208207d9fd20012081b72b40ff6bda8bcac51de6333ff1e5fc1575599bfd7c46d5d5bc0197899b4dac0063036f726401011e6170706c69636174696f6e2f6a736f6e3b636861727365743d7574662d38004cd37b2270223a22706f772d3230222c226f70223a226d696e74222c227469636b223a2250455045222c22616d74223a2231303030222c22736f6c7574696f6e223a22504550453a62633170367a67656779647861737432786571616535763930396434396a323636786e707a6178776634386336786b736871703766797a717734733761663a303030303030303030303030303030303030303139393431613561653132383937363539383134343239323533333030353762306461393666336465613163353a3338343638383232363430227d6821c15067337a99a00666fd957e65b5c212a7b30f6b410af3fccba2d4635da920c85e00000000"
}