{
  "txid": "7c8d5b4f0d75bb55babf4cd2259210cd05a62e9a839ddd78c9d6745686ae53c3",
  "version": 2,
  "locktime": 834637,
  "vin": [
    {
      "txid": "91a2f03502d4fb54854bb4a85ddcd4724e4caf0545ec2dd7103bc9ee001ac49e",
      "vout": 1,
      "prevout": {
        "scriptpubkey": "00146597bf374d9d96179cbde929c8e902a887686b30",
        "scriptpubkey_asm": "OP_0 OP_PUSHBYTES_20 6597bf374d9d96179cbde929c8e902a887686b30",
        "scriptpubkey_type": "v0_p2wpkh",
        "scriptpubkey_address": "bc1qvktm7d6dnktp089aay5u36gz4zrks6eseauw3w",
        "value": 152383140
      },
      "scriptsig": "",
      "scriptsig_asm": "",
      "witness": [
        "304402201d2afa090929782f1ef63a37a68883cc7b3d3aeb0c8aea8212d150e54a3e314d02203f45020c1be92a327401e9d95d5d4cfea4b9d27287884edfee9235b40397bb4601",
        "02c02cacdd4ca360424e03df01d3b3fe639eeff4cbbf9344dc67094d59e79219f3"
      ],
      "is_coinbase": false,
      "sequence": 4294967293
    },
    {
      "txid": "fae03a1b8eadd2075e249e8ff59ddb3ac07d267b4bc54ef2e8431246c0139c94",
      "vout": 1,
      "prevout": {
        "scriptpubkey": "00146597bf374d9d96179cbde929c8e902a887686b30",
        "scriptpubkey_asm": "OP_0 OP_PUSHBYTES_20 6597bf374d9d96179cbde929c8e902a887686b30",
        "scriptpubkey_type": "v0_p2wpkh",
        "scriptpubkey_address": "bc1qvktm7d6dnktp089aay5u36gz4zrks6eseauw3w",
        "value": 195930727
      },
      "scriptsig": "",
      "scriptsig_asm": "",
      "witness": [
        "3044022049199ff167e4991e29392e7e8e6029a405309c29d068e4d4ece40ec9711bf8ba02202c5a04f78fc9c78aa6fc6f1f7e154899e71a215af50a333d6cb0cc36e8715c4201",
        "02c02cacdd4ca360424e03df01d3b3fe639eeff4cbbf9344dc67094d59e79219f3"
      ],
      "is_coinbase": false,
      "sequence": 4294967293
    }
  ],
  "vout": [
    {
      "scriptpubkey": "00149338d954b749bb66ab66b8e7f3f0067fdb7118c4",
      "scriptpubkey_asm": "OP_0 OP_PUSHBYTES_20 9338d954b749bb66ab66b8e7f3f0067fdb7118c4",
      "scriptpubkey_type": "v0_p2wpkh",
      "scriptpubkey_address": "bc1qjvudj49hfxakd2mxhrnl8uqx0ldhzxxy6cjvmc",
      "value": 437976
    },
    {
      "scriptpubkey": "0014f602cf9bb747e84025b6700402f5b738a255ca92",
      "scriptpubkey_asm": "OP_0 OP_PUSHBYTES_20 f602cf9bb747e84025b6700402f5b738a255ca92",
      "scriptpubkey_type": "v0_p2wpkh",
      "scriptpubkey_address": "bc1q7cpvlxahgl5yqfdkwqzq9adh8z39tj5j0rmdgw",
      "value": 347870248
    }
  ],
  "size": 370,
  "weight": 832,
  "fee": 5643,
  "status": {
    "confirmed": true,
    "block_height": 834638,
    "block_hash": "000000000000000000025f742c626208ac87e0b7d15054abb4a19ca2d735a54e",
    "block_time": 1710405325
  },
  "hex": "020000000001029ec41a00eec93b10d72dec4505af4c4e72d4dc5da8b44b8554fbd40235f0a2910100000000fdffffff949c13c0461243e8f24ec54b7b267dc03adb9df58f9e245e07d2ad8e1b3ae0fa0100000000fdffffff02d8ae0600000000001600149338d954b749bb66ab66b8e7f3f0067fdb7118c42814bc1400000000160014f602cf9bb747e84025b6700402f5b738a255ca920247304402201d2afa090929782f1ef63a37a68883cc7b3d3aeb0c8aea8212d150e54a3e314d02203f45020c1be92a327401e9d95d5d4cfea4b9d27287884edfee9235b40397bb46012102c02cacdd4ca360424e03df01d3b3fe639eeff4cbbf9344dc67094d59e79219f302473044022049199ff167e4991e29392e7e8e6029a405309c29d068e4d4ece40ec9711bf8ba02202c5a04f78fc9c78aa6fc6f1f7e154899e71a215af50a333d6cb0cc36e8715c42012102c02cacdd4ca360424e03df01d3b3fe639eeff4cbbf9344dc67094d59e79219f34dbc0c00"
}