{
  "txid": "7c936af2f89636ab56e1ec7065a42fdf2c82b4177d42a48326198b66cb1a0e5d",
  "version": 2,
  "locktime": 0,
  "vin": [
    {
      "txid": "0e965a73ff8f6d4fa425a176c4726cbfedb3b14673114b1792c7c3e4410b4840",
      "vout": 1,
      "prevout": {
        "scriptpubkey": "00149c0a9f112688c85fcb4417b05c8dec775e4cab36",
        "scriptpubkey_asm": "OP_0 OP_PUSHBYTES_20 9c0a9f112688c85fcb4417b05c8dec775e4cab36",
        "scriptpubkey_type": "v0_p2wpkh",
        "scriptpubkey_address": "bc1qns9f7yfx3ry9lj6yz7c9er0vwa0ye2eklpzqfw",
        "value": 511790398
      },
      "scriptsig": "",
      "scriptsig_asm": "",
      "witness": [
        "304402203a28347340a9949cc4fcb466957bba60630eaae26134dd63765895f7ffc95d5e02200e64a9a5e18331578d2c53718a6c7d4ac4f8bf95b9a352e43b760af41751451c01",
        "02616129debb96ad4f83f00ad5ef5d16ffd7878e7f5dcfb1b193451680631635ee"
      ],
      "is_coinbase": false,
      "sequence": 4294967293
    }
  ],
  "vout": [
    {
      "scriptpubkey": "00149322af7974f99134f168efe44fdecdae35d6bba2",
      "scriptpubkey_asm": "OP_0 OP_PUSHBYTES_20 9322af7974f99134f168efe44fdecdae35d6bba2",
      "scriptpubkey_type": "v0_p2wpkh",
      "scriptpubkey_address": "bc1qjv3277t5lxgnfutgaljylhkd4c6adwazd46ryu",
      "value": 72341230
    },
    {
      "scriptpubkey": "00149c0a9f112688c85fcb4417b05c8dec775e4cab36",
      "scriptpubkey_asm": "OP_0 OP_PUSHBYTES_20 9c0a9f112688c85fcb4417b05c8dec775e4cab36",
      "scriptpubkey_type": "v0_p2wpkh",
      "scriptpubkey_address": "bc1qns9f7yfx3ry9lj6yz7c9er0vwa0ye2eklpzqfw",
      "value": 439447335
    }
  ],
  "size": 222,
  "weight": 561,
  "fee": 1833,
  "status": {
    "confirmed": true,
    "block_height": 834460,
    "block_hash": "00000000000000000000484a79b643b2524bbce82e5d8a442013fa5b8905ed98",
    "block_time": 1710307468
  },
  "hex": "0200000000010140480b41e4c3c792174b117346b1b3edbf6c72c476a125a44f6d8fff735a960e0100000000fdffffff02eed64f04000000001600149322af7974f99134f168efe44fdecdae35d6bba2276f311a000000001600149c0a9f112688c85fcb4417b05c8dec775e4cab360247304402203a28347340a9949cc4fcb466957bba60630eaae26134dd63765895f7ffc95d5e02200e64a9a5e18331578d2c53718a6c7d4ac4f8bf95b9a352e43b760af41751451c012102616129debb96ad4f83f00ad5ef5d16ffd7878e7f5dcfb1b193451680631635ee00000000"
}