{
  "txid": "7c984fbf2f922cd11ddaebd62e14206306993bf5d89fa28ac073645d0d6b5bd0",
  "version": 2,
  "locktime": 0,
  "vin": [
    {
      "txid": "647eb300ea51e287778b6b648f1fa83852896dd310e760bc4fcd1dc94504fe47",
      "vout": 3,
      "prevout": {
        "scriptpubkey": "001458e5a4cc5cbda53fc9b4f25859fb5e837f344ca7",
        "scriptpubkey_asm": "OP_0 OP_PUSHBYTES_20 58e5a4cc5cbda53fc9b4f25859fb5e837f344ca7",
        "scriptpubkey_type": "v0_p2wpkh",
        "scriptpubkey_address": "bc1qtrj6fnzuhkjnljd57fv9n767sdlngn98m2hrce",
        "value": 2261835
      },
      "scriptsig": "",
      "scriptsig_asm": "",
      "witness": [
        "3044022013056fccd337fc45f4d26525504084213eea71ad638b227eb44d2f2e32181b3502205dd9b453460c9a4758cb5967a03a42f541a4c736d950a77fda6d0ad8a9b9eb8801",
        "03241e5fa93773e58cd990c251b9f198d333d3e317987bbe9ee340d59c338b637e"
      ],
      "is_coinbase": false,
      "sequence": 4294967295
    },
    {
      "txid": "d5c2663df892fcbf25395c205b6d01568473591b3fc7145ccea1c4cc82cba6b4",
      "vout": 3,
      "prevout": {
        "scriptpubkey": "001458e5a4cc5cbda53fc9b4f25859fb5e837f344ca7",
        "scriptpubkey_asm": "OP_0 OP_PUSHBYTES_20 58e5a4cc5cbda53fc9b4f25859fb5e837f344ca7",
        "scriptpubkey_type": "v0_p2wpkh",
        "scriptpubkey_address": "bc1qtrj6fnzuhkjnljd57fv9n767sdlngn98m2hrce",
        "value": 2370196
      },
      "scriptsig": "",
      "scriptsig_asm": "",
      "witness": [
        "3045022100f6bac5425284045bce4683badb1e7613fe5ca85e1e852db3ee784318079650e602202b9ce6eafa64d3d4081012e100c9c90a4afffc597bed38db24c56855becace7e01",
        "03241e5fa93773e58cd990c251b9f198d333d3e317987bbe9ee340d59c338b637e"
      ],
      "is_coinbase": false,
      "sequence": 4294967295
    },
    {
      "txid": "1a009ee3286a56e3dcb1f925e679276d954d78a66a8531cd8a8930e2f85f3612",
      "vout": 1,
      "prevout": {
        "scriptpubkey": "001458e5a4cc5cbda53fc9b4f25859fb5e837f344ca7",
        "scriptpubkey_asm": "OP_0 OP_PUSHBYTES_20 58e5a4cc5cbda53fc9b4f25859fb5e837f344ca7",
        "scriptpubkey_type": "v0_p2wpkh",
        "scriptpubkey_address": "bc1qtrj6fnzuhkjnljd57fv9n767sdlngn98m2hrce",
        "value": 3319531
      },
      "scriptsig": "",
      "scriptsig_asm": "",
      "witness": [
        "304502210092642451428da87171af02311d36beb1bca8d35e11485379c7f26f7f4e7b357e022024f9eb55ae0266f133991e1dfe2cbe54c42118a39d269f3edd66d2a8c34364fa01",
        "03241e5fa93773e58cd990c251b9f198d333d3e317987bbe9ee340d59c338b637e"
      ],
      "is_coinbase": false,
      "sequence": 4294967295
    }
  ],
  "vout": [
    {
      "scriptpubkey": "001458e5a4cc5cbda53fc9b4f25859fb5e837f344ca7",
      "scriptpubkey_asm": "OP_0 OP_PUSHBYTES_20 58e5a4cc5cbda53fc9b4f25859fb5e837f344ca7",
      "scriptpubkey_type": "v0_p2wpkh",
      "scriptpubkey_address": "bc1qtrj6fnzuhkjnljd57fv9n767sdlngn98m2hrce",
      "value": 905198
    },
    {
      "scriptpubkey": "0014a241a97761142971185a6b9a2c653b7651fec377",
      "scriptpubkey_asm": "OP_0 OP_PUSHBYTES_20 a241a97761142971185a6b9a2c653b7651fec377",
      "scriptpubkey_type": "v0_p2wpkh",
      "scriptpubkey_address": "bc1q5fq6jampzs5hzxz6dwdzcefmweglasmhypcyd9",
      "value": 1159029
    },
    {
      "scriptpubkey": "001486b7893807e5429505e4cafa5e422ee381c6ab66",
      "scriptpubkey_asm": "OP_0 OP_PUSHBYTES_20 86b7893807e5429505e4cafa5e422ee381c6ab66",
      "scriptpubkey_type": "v0_p2wpkh",
      "scriptpubkey_address": "bc1qs6mcjwq8u4pf2p0yeta9us3wuwqud2mx6wqtf0",
      "value": 5881629
    }
  ],
  "size": 551,
  "weight": 1229,
  "fee": 5706,
  "status": {
    "confirmed": true,
    "block_height": 834638,
    "block_hash": "000000000000000000025f742c626208ac87e0b7d15054abb4a19ca2d735a54e",
    "block_time": 1710405325
  },
  "hex": "0200000000010347fe0445c91dcd4fbc60e710d36d895238a81f8f646b8b7787e251ea00b37e640300000000ffffffffb4a6cb82ccc4a1ce5c14c73f1b59738456016d5b205c3925bffc92f83d66c2d50300000000ffffffff12365ff8e230898acd31856aa6784d956d2779e625f9b1dce3566a28e39e001a0100000000ffffffff03eecf0d000000000016001458e5a4cc5cbda53fc9b4f25859fb5e837f344ca775af110000000000160014a241a97761142971185a6b9a2c653b7651fec3771dbf59000000000016001486b7893807e5429505e4cafa5e422ee381c6ab6602473044022013056fccd337fc45f4d26525504084213eea71ad638b227eb44d2f2e32181b3502205dd9b453460c9a4758cb5967a03a42f541a4c736d950a77fda6d0ad8a9b9eb88012103241e5fa93773e58cd990c251b9f198d333d3e317987bbe9ee340d59c338b637e02483045022100f6bac5425284045bce4683badb1e7613fe5ca85e1e852db3ee784318079650e602202b9ce6eafa64d3d4081012e100c9c90a4afffc597bed38db24c56855becace7e012103241e5fa93773e58cd990c251b9f198d333d3e317987bbe9ee340d59c338b637e0248304502210092642451428da87171af02311d36beb1bca8d35e11485379c7f26f7f4e7b357e022024f9eb55ae0266f133991e1dfe2cbe54c42118a39d269f3edd66d2a8c34364fa012103241e5fa93773e58cd990c251b9f198d333d3e317987bbe9ee340d59c338b637e00000000"
}