{
  "txid": "7ca0200f96e830ffb47c0edd493b72ae92157eaf9eaed1502ab379e7d53c753f",
  "version": 2,
  "locktime": 834637,
  "vin": [
    {
      "txid": "146f5fdf240bb619004e02df54ed8494838f470fcac2d69eba8e202a09f0a0ca",
      "vout": 1,
      "prevout": {
        "scriptpubkey": "001443bb32e1997da917cb92868c5ccea4fbf1768b28",
        "scriptpubkey_asm": "OP_0 OP_PUSHBYTES_20 43bb32e1997da917cb92868c5ccea4fbf1768b28",
        "scriptpubkey_type": "v0_p2wpkh",
        "scriptpubkey_address": "bc1qgwan9cve0k530jujs6x9en4yl0chdzegxqg5xw",
        "value": 308216
      },
      "scriptsig": "",
      "scriptsig_asm": "",
      "witness": [
        "3044022011e41fddbc164470c70dd751adf987bb4fd96dc05023892d2051684c2dcb2dc7022046a16890453e4686647c232698d4225490ca2b4a706a46ffadfe385f626da13601",
        "03c34fc0adc3879a92c902bedb91299719c4413e86dd1d46fe1f1ca04223b54982"
      ],
      "is_coinbase": false,
      "sequence": 4294967293
    },
    {
      "txid": "de4e5c11669ed94cd07e56ba6a62ad7b1182e9d477e627e1cd9263720fe75b6e",
      "vout": 0,
      "prevout": {
        "scriptpubkey": "00149037ebd8e8d9773682ffd353ecbcc59d93f26ec3",
        "scriptpubkey_asm": "OP_0 OP_PUSHBYTES_20 9037ebd8e8d9773682ffd353ecbcc59d93f26ec3",
        "scriptpubkey_type": "v0_p2wpkh",
        "scriptpubkey_address": "bc1qjqm7hk8gm9mndqhl6df7e0x9nkflymkrnsajss",
        "value": 700561
      },
      "scriptsig": "",
      "scriptsig_asm": "",
      "witness": [
        "3044022003dd77c1813bba5209b053813af1475cc9172d9cf45c854d19b44da6990fcf330220033ec20549a876da851f54a3512d8348e7b5d2ae07f119720ca1fa8b1821418b01",
        "021ac1de6ae788dbf7da4e773b441aefda8832d28bf12f1294e45474931883fdab"
      ],
      "is_coinbase": false,
      "sequence": 4294967293
    },
    {
      "txid": "f4611d54f88bcde313073579460b2538e52871a154925bfcfe73ee03428d06df",
      "vout": 0,
      "prevout": {
        "scriptpubkey": "0014023b8bc1918f484187aca5b0671f11ecc31d5f3b",
        "scriptpubkey_asm": "OP_0 OP_PUSHBYTES_20 023b8bc1918f484187aca5b0671f11ecc31d5f3b",
        "scriptpubkey_type": "v0_p2wpkh",
        "scriptpubkey_address": "bc1qqgachsv33ayyrpav5kcxw8c3anp36hemkxf3hx",
        "value": 282150
      },
      "scriptsig": "",
      "scriptsig_asm": "",
      "witness": [
        "304402201db4b93e32a90c1324beb5094ee7477fde314e9eb513f4709b2e79333c4caae80220359b690183f901407464cb0378562fd07ffff50bcc63ab7ce34917b2c1d039d601",
        "0338078d1310d90dcdd1ad6ef2fd1a55c283633433ee960c32dac8b1b1a479281e"
      ],
      "is_coinbase": false,
      "sequence": 4294967293
    }
  ],
  "vout": [
    {
      "scriptpubkey": "001407e8490bcd8d0112e649c881767bf089007606fb",
      "scriptpubkey_asm": "OP_0 OP_PUSHBYTES_20 07e8490bcd8d0112e649c881767bf089007606fb",
      "scriptpubkey_type": "v0_p2wpkh",
      "scriptpubkey_address": "bc1qql5yjz7d35q39ejfezqhv7ls3yq8vphmgw32zk",
      "value": 259559
    },
    {
      "scriptpubkey": "001405392ca0e634cf53f7db59d1b54fbddb6703f97b",
      "scriptpubkey_asm": "OP_0 OP_PUSHBYTES_20 05392ca0e634cf53f7db59d1b54fbddb6703f97b",
      "scriptpubkey_type": "v0_p2wpkh",
      "scriptpubkey_address": "bc1qq5ujeg8xxn848a7mt8gm2naamdns87tmeq6g2u",
      "value": 1026964
    }
  ],
  "size": 518,
  "weight": 1103,
  "fee": 4404,
  "status": {
    "confirmed": true,
    "block_height": 834638,
    "block_hash": "000000000000000000025f742c626208ac87e0b7d15054abb4a19ca2d735a54e",
    "block_time": 1710405325
  },
  "hex": "02000000000103caa0f0092a208eba9ed6c2ca0f478f839484ed54df024e0019b60b24df5f6f140100000000fdffffff6e5be70f726392cde127e677d4e982117bad626aba567ed04cd99e66115c4ede0000000000fdffffffdf068d4203ee73fefc5b9254a17128e538250b4679350713e3cd8bf8541d61f40000000000fdffffff02e7f503000000000016001407e8490bcd8d0112e649c881767bf089007606fb94ab0f000000000016001405392ca0e634cf53f7db59d1b54fbddb6703f97b02473044022011e41fddbc164470c70dd751adf987bb4fd96dc05023892d2051684c2dcb2dc7022046a16890453e4686647c232698d4225490ca2b4a706a46ffadfe385f626da136012103c34fc0adc3879a92c902bedb91299719c4413e86dd1d46fe1f1ca04223b5498202473044022003dd77c1813bba5209b053813af1475cc9172d9cf45c854d19b44da6990fcf330220033ec20549a876da851f54a3512d8348e7b5d2ae07f119720ca1fa8b1821418b0121021ac1de6ae788dbf7da4e773b441aefda8832d28bf12f1294e45474931883fdab0247304402201db4b93e32a90c1324beb5094ee7477fde314e9eb513f4709b2e79333c4caae80220359b690183f901407464cb0378562fd07ffff50bcc63ab7ce34917b2c1d039d601210338078d1310d90dcdd1ad6ef2fd1a55c283633433ee960c32dac8b1b1a479281e4dbc0c00"
}