{
  "txid": "7ca89786bad85851d5c7f07c78af2a55d82d3d012630132ccbc48dac54821c93",
  "version": 1,
  "locktime": 0,
  "vin": [
    {
      "txid": "c313b1dfddbade5a77a5c6d034d970a7e088bd53a37efcefa4e1da3a891b74c1",
      "vout": 26,
      "prevout": {
        "scriptpubkey": "001489b203f7e02dea3d0f14579c9a6c40cfc10eed6c",
        "scriptpubkey_asm": "OP_0 OP_PUSHBYTES_20 89b203f7e02dea3d0f14579c9a6c40cfc10eed6c",
        "scriptpubkey_type": "v0_p2wpkh",
        "scriptpubkey_address": "bc1q3xeq8alq9h4r6rc527wf5mzqelqsamtvj7g7l9",
        "value": 121470
      },
      "scriptsig": "",
      "scriptsig_asm": "",
      "witness": [
        "304402201397be77950d1019a5596f6d0776f7396181d0048d8aca82f1a74c9b857b66e502202469038a832c8e5009d5d0275ed618e8606cbda37d3ba99b862981ee83c81d3a01",
        "03af0cd2c966a11f6d5c3daf02e2051a464dd464ccfaddadf2f91a28935aa82183"
      ],
      "is_coinbase": false,
      "sequence": 4294967295
    }
  ],
  "vout": [
    {
      "scriptpubkey": "a914f09a90c5bdf491caa8b6775c7bd05d71a9ace3cf87",
      "scriptpubkey_asm": "OP_HASH160 OP_PUSHBYTES_20 f09a90c5bdf491caa8b6775c7bd05d71a9ace3cf OP_EQUAL",
      "scriptpubkey_type": "p2sh",
      "scriptpubkey_address": "3PdDFyzeg4FhbV948qJVsLMejhNTWWx5qv",
      "value": 63000
    },
    {
      "scriptpubkey": "001489b203f7e02dea3d0f14579c9a6c40cfc10eed6c",
      "scriptpubkey_asm": "OP_0 OP_PUSHBYTES_20 89b203f7e02dea3d0f14579c9a6c40cfc10eed6c",
      "scriptpubkey_type": "v0_p2wpkh",
      "scriptpubkey_address": "bc1q3xeq8alq9h4r6rc527wf5mzqelqsamtvj7g7l9",
      "value": 54636
    }
  ],
  "size": 223,
  "weight": 565,
  "fee": 3834,
  "status": {
    "confirmed": true,
    "block_height": 834638,
    "block_hash": "000000000000000000025f742c626208ac87e0b7d15054abb4a19ca2d735a54e",
    "block_time": 1710405325
  },
  "hex": "01000000000101c1741b893adae1a4effc7ea353bd88e0a770d934d0c6a5775adebadddfb113c31a00000000ffffffff0218f600000000000017a914f09a90c5bdf491caa8b6775c7bd05d71a9ace3cf876cd500000000000016001489b203f7e02dea3d0f14579c9a6c40cfc10eed6c0247304402201397be77950d1019a5596f6d0776f7396181d0048d8aca82f1a74c9b857b66e502202469038a832c8e5009d5d0275ed618e8606cbda37d3ba99b862981ee83c81d3a012103af0cd2c966a11f6d5c3daf02e2051a464dd464ccfaddadf2f91a28935aa8218300000000"
}