{
  "txid": "7ca9e18c0a42cba9d8988fe314567054e1469d6a22c20e83f53ebd8bb6c21251",
  "version": 1,
  "locktime": 0,
  "vin": [
    {
      "txid": "6d64edf2219ddd8345cc09c0f13e9be5dac2b5a19ecfca34b5f437ddeca5b377",
      "vout": 1,
      "prevout": {
        "scriptpubkey": "76a914fb3f38d5f0ed3c5e4aa93e9972b750c640f4439a88ac",
        "scriptpubkey_asm": "OP_DUP OP_HASH160 OP_PUSHBYTES_20 fb3f38d5f0ed3c5e4aa93e9972b750c640f4439a OP_EQUALVERIFY OP_CHECKSIG",
        "scriptpubkey_type": "p2pkh",
        "scriptpubkey_address": "1PuULtjj9mhTQ3hJD3RmiWipc9vVnYoo2h",
        "value": 268606
      },
      "scriptsig": "4830450221008da504a7c070d67373736dc445c598a7cb72f33f066ff6807784d6b17a7c87de022027e575cc652531ec913aa2497ffeced4f3833283d3acfbdd5a249fdb217ee17b012102b49bf4b664c8b084fa5e71bc7b93229a4fe99841620230d96c1af6957173833c",
      "scriptsig_asm": "OP_PUSHBYTES_72 30450221008da504a7c070d67373736dc445c598a7cb72f33f066ff6807784d6b17a7c87de022027e575cc652531ec913aa2497ffeced4f3833283d3acfbdd5a249fdb217ee17b01 OP_PUSHBYTES_33 02b49bf4b664c8b084fa5e71bc7b93229a4fe99841620230d96c1af6957173833c",
      "is_coinbase": false,
      "sequence": 2147483649
    }
  ],
  "vout": [
    {
      "scriptpubkey": "a914faeeb53d64ff6dffa49e6e68712d1bd6cb0edb6787",
      "scriptpubkey_asm": "OP_HASH160 OP_PUSHBYTES_20 faeeb53d64ff6dffa49e6e68712d1bd6cb0edb67 OP_EQUAL",
      "scriptpubkey_type": "p2sh",
      "scriptpubkey_address": "3QZppDpD454GcQ5NuPQH6twPXtf56N5WUX",
      "value": 265582
    }
  ],
  "size": 190,
  "weight": 760,
  "fee": 3024,
  "status": {
    "confirmed": true,
    "block_height": 834638,
    "block_hash": "000000000000000000025f742c626208ac87e0b7d15054abb4a19ca2d735a54e",
    "block_time": 1710405325
  },
  "hex": "010000000177b3a5ecdd37f4b534cacf9ea1b5c2dae59b3ef1c009cc4583dd9d21f2ed646d010000006b4830450221008da504a7c070d67373736dc445c598a7cb72f33f066ff6807784d6b17a7c87de022027e575cc652531ec913aa2497ffeced4f3833283d3acfbdd5a249fdb217ee17b012102b49bf4b664c8b084fa5e71bc7b93229a4fe99841620230d96c1af6957173833c01000080016e0d04000000000017a914faeeb53d64ff6dffa49e6e68712d1bd6cb0edb678700000000"
}