{
  "txid": "7ca940f27837c872dd94a4223ca3c1e0e0b30e9c3db060b3ea0595120b43050e",
  "version": 2,
  "locktime": 0,
  "vin": [
    {
      "txid": "426f08fbaaacdc4b13cb6f428c89487358ea4dac9ed7948a96cfaa3f67ad9d67",
      "vout": 24,
      "prevout": {
        "scriptpubkey": "51207ee895cabe261a5e51171d8c42eb1937321fd47a18cbae15bf838129b2ffbc75",
        "scriptpubkey_asm": "OP_PUSHNUM_1 OP_PUSHBYTES_32 7ee895cabe261a5e51171d8c42eb1937321fd47a18cbae15bf838129b2ffbc75",
        "scriptpubkey_type": "v1_p2tr",
        "scriptpubkey_address": "bc1p0m5ftj47ycd9u5ghrkxy96cexuepl4r6rr96u9dlswqjnvhlh36s2e92r2",
        "value": 4599
      },
      "scriptsig": "",
      "scriptsig_asm": "",
      "witness": [
        "9716450ba0f8629161b71a7316f7cb299b9568ba52061a7b7dd6a1ea707d95daf39939262803c662ea7797f603d6c312822ef9eabd1addc57f71a78fa5ed7ee0",
        "206eecbac108e61c9a40bece85dfaecf5dccda02ae4827b966615ec9c9dd7dc86eac0063036f726401011e6170706c69636174696f6e2f6a736f6e3b636861727365743d7574662d38004cd37b2270223a22706f772d3230222c226f70223a226d696e74222c227469636b223a2250455045222c22616d74223a2231303030222c22736f6c7574696f6e223a22504550453a62633170636a65387233733875656e746d64767a6e34777337786d3836367879707535756139357371796877756835616d61677565367a73707a733637713a303030303030303030303030303030303030303139393431613561653132383937363539383134343239323533333030353762306461393666336465613163353a3233333232303234323236227d68",
        "c0039ed2fd528e891a28907036b81ec900320c2b9f26f0b27e7e5cfd0fc9102a4d"
      ],
      "is_coinbase": false,
      "sequence": 4294967295
    }
  ],
  "vout": [
    {
      "scriptpubkey": "5120c4b271c607e666bdb5829d5d0f1b67d68c40f29ce9690012eee5e9ddf51cce85",
      "scriptpubkey_asm": "OP_PUSHNUM_1 OP_PUSHBYTES_32 c4b271c607e666bdb5829d5d0f1b67d68c40f29ce9690012eee5e9ddf51cce85",
      "scriptpubkey_type": "v1_p2tr",
      "scriptpubkey_address": "bc1pcje8r3s8uentmdvzn4ws7xm866xypu5ua95sqyhwuh5amague6zspzs67q",
      "value": 546
    }
  ],
  "size": 487,
  "weight": 769,
  "fee": 4053,
  "status": {
    "confirmed": true,
    "block_height": 834460,
    "block_hash": "00000000000000000000484a79b643b2524bbce82e5d8a442013fa5b8905ed98",
    "block_time": 1710307468
  },
  "hex": "02000000000101679dad673faacf968a94d79eac4dea587348898c426fcb134bdcacaafb086f421800000000ffffffff012202000000000000225120c4b271c607e666bdb5829d5d0f1b67d68c40f29ce9690012eee5e9ddf51cce8503409716450ba0f8629161b71a7316f7cb299b9568ba52061a7b7dd6a1ea707d95daf39939262803c662ea7797f603d6c312822ef9eabd1addc57f71a78fa5ed7ee0fd2001206eecbac108e61c9a40bece85dfaecf5dccda02ae4827b966615ec9c9dd7dc86eac0063036f726401011e6170706c69636174696f6e2f6a736f6e3b636861727365743d7574662d38004cd37b2270223a22706f772d3230222c226f70223a226d696e74222c227469636b223a2250455045222c22616d74223a2231303030222c22736f6c7574696f6e223a22504550453a62633170636a65387233733875656e746d64767a6e34777337786d3836367879707535756139357371796877756835616d61677565367a73707a733637713a303030303030303030303030303030303030303139393431613561653132383937363539383134343239323533333030353762306461393666336465613163353a3233333232303234323236227d6821c0039ed2fd528e891a28907036b81ec900320c2b9f26f0b27e7e5cfd0fc9102a4d00000000"
}