{
  "txid": "7cacc89280b539ef236077903455fdacf72d9f32021867522d2ed4bc22370fba",
  "version": 2,
  "locktime": 0,
  "vin": [
    {
      "txid": "1b6c44a592cec1abb1baf1c3ca95047d7018909c34d7c437b12d1f0cd7353d01",
      "vout": 0,
      "prevout": {
        "scriptpubkey": "51206eafb6ced1450fe6a493378e7e978ae4f1dc7e4727f3a0cc0c7f27b1b0c92d82",
        "scriptpubkey_asm": "OP_PUSHNUM_1 OP_PUSHBYTES_32 6eafb6ced1450fe6a493378e7e978ae4f1dc7e4727f3a0cc0c7f27b1b0c92d82",
        "scriptpubkey_type": "v1_p2tr",
        "scriptpubkey_address": "bc1pd6hmdnk3g587dfynx788a9u2uncaclj8yle6pnqv0unmrvxf9kpq8czv73",
        "value": 2548
      },
      "scriptsig": "",
      "scriptsig_asm": "",
      "witness": [
        "a138b718eb41bf83daf51e3204ce897a2ae6e370857793df94b2a4514de3bd9f7f134e237aa54c6a271776cd2e571ef695b6dbb38bd412e36f66b4ab464f18b1",
        "201727fd825ac10e87e0de607f8f7f1a2ffdd641875cc2c4d723160bb21af16d5aac0063036f7264010118746578742f706c61696e3b636861727365743d7574662d38004caf7b2270223a2263616e2d3230222c226f70223a226d696e74222c227469636b223a2274696e222c22616d74223a2231303030222c22726f7773223a5b7b226466223a226e6f6e65222c22636f6e74656e74223a5b7b2271223a22222c2261223a22227d5d7d5d2c227072223a2266626663326232656432383935336531633064666434356432656433333331396631343334623831653333356436653639313763313930663739393663383233227d68",
        "c01727fd825ac10e87e0de607f8f7f1a2ffdd641875cc2c4d723160bb21af16d5a"
      ],
      "is_coinbase": false,
      "sequence": 4294967293
    }
  ],
  "vout": [
    {
      "scriptpubkey": "5120837311ab416aacfe4a60a70a49eebad061a8283608eab025afd4b87d8a671761",
      "scriptpubkey_asm": "OP_PUSHNUM_1 OP_PUSHBYTES_32 837311ab416aacfe4a60a70a49eebad061a8283608eab025afd4b87d8a671761",
      "scriptpubkey_type": "v1_p2tr",
      "scriptpubkey_address": "bc1psde3r26pd2k0ujnq5u9ynm466ps6s2pkpr4tqfd06ju8mzn8zass78xwc9",
      "value": 546
    }
  ],
  "size": 443,
  "weight": 725,
  "fee": 2002,
  "status": {
    "confirmed": true,
    "block_height": 834464,
    "block_hash": "0000000000000000000177a0869a911a2b65c9bdcd5a8bcb02b68f305bee848e",
    "block_time": 1710308296
  },
  "hex": "02000000000101013d35d70c1f2db137c4d7349c9018707d0495cac3f1bab1abc1ce92a5446c1b0000000000fdffffff012202000000000000225120837311ab416aacfe4a60a70a49eebad061a8283608eab025afd4b87d8a6717610340a138b718eb41bf83daf51e3204ce897a2ae6e370857793df94b2a4514de3bd9f7f134e237aa54c6a271776cd2e571ef695b6dbb38bd412e36f66b4ab464f18b1f6201727fd825ac10e87e0de607f8f7f1a2ffdd641875cc2c4d723160bb21af16d5aac0063036f7264010118746578742f706c61696e3b636861727365743d7574662d38004caf7b2270223a2263616e2d3230222c226f70223a226d696e74222c227469636b223a2274696e222c22616d74223a2231303030222c22726f7773223a5b7b226466223a226e6f6e65222c22636f6e74656e74223a5b7b2271223a22222c2261223a22227d5d7d5d2c227072223a2266626663326232656432383935336531633064666434356432656433333331396631343334623831653333356436653639313763313930663739393663383233227d6821c01727fd825ac10e87e0de607f8f7f1a2ffdd641875cc2c4d723160bb21af16d5a00000000"
}