{
  "txid": "7cae6e6ea152db0e106164f91883b2f181c636286e6aab59b6ab5e46ff692820",
  "version": 2,
  "locktime": 834459,
  "vin": [
    {
      "txid": "548ec9b7b7612a143b4ef42ad8c84a006f202a9eba614715affa8119911a610a",
      "vout": 1,
      "prevout": {
        "scriptpubkey": "0014114f34a6c93b947f894f3269670481fceb92051d",
        "scriptpubkey_asm": "OP_0 OP_PUSHBYTES_20 114f34a6c93b947f894f3269670481fceb92051d",
        "scriptpubkey_type": "v0_p2wpkh",
        "scriptpubkey_address": "bc1qz98nffkf8w28lz20xf5kwpypln4eypgauh98x5",
        "value": 1151088
      },
      "scriptsig": "",
      "scriptsig_asm": "",
      "witness": [
        "304402205eea3d6644fdbe3a772f93f65b64eb2e5b1252deded68ce9ae0b536729def7d4022079e85f0c0878428bd6f0a45bf569e1cb57ecc391fd30eebc1a737d6f4946305201",
        "0340f6dbfd8bf8b98ffa0804129587d19be3956bdaa7cc944341df63815b1a45f7"
      ],
      "is_coinbase": false,
      "sequence": 4294967294
    }
  ],
  "vout": [
    {
      "scriptpubkey": "002072c4fac1dd2d5cb41f19c720a16c0de9e1310d1d8d2f67eb8b149f732bb90f5a",
      "scriptpubkey_asm": "OP_0 OP_PUSHBYTES_32 72c4fac1dd2d5cb41f19c720a16c0de9e1310d1d8d2f67eb8b149f732bb90f5a",
      "scriptpubkey_type": "v0_p2wsh",
      "scriptpubkey_address": "bc1qwtz04swa94wtg8cecus2zmqda8snzrga35hk06utzj0hx2aepadqmjdkwx",
      "value": 130000
    },
    {
      "scriptpubkey": "0014038bc4b63b03646c0456125f7a645f258785a101",
      "scriptpubkey_asm": "OP_0 OP_PUSHBYTES_20 038bc4b63b03646c0456125f7a645f258785a101",
      "scriptpubkey_type": "v0_p2wpkh",
      "scriptpubkey_address": "bc1qqw9ufd3mqdjxcpzkzf0h5ezlykrctggpu87m43",
      "value": 1016958
    }
  ],
  "size": 234,
  "weight": 609,
  "fee": 4130,
  "status": {
    "confirmed": true,
    "block_height": 834460,
    "block_hash": "00000000000000000000484a79b643b2524bbce82e5d8a442013fa5b8905ed98",
    "block_time": 1710307468
  },
  "hex": "020000000001010a611a911981faaf154761ba9e2a206f004ac8d82af44e3b142a61b7b7c98e540100000000feffffff02d0fb01000000000022002072c4fac1dd2d5cb41f19c720a16c0de9e1310d1d8d2f67eb8b149f732bb90f5a7e840f0000000000160014038bc4b63b03646c0456125f7a645f258785a1010247304402205eea3d6644fdbe3a772f93f65b64eb2e5b1252deded68ce9ae0b536729def7d4022079e85f0c0878428bd6f0a45bf569e1cb57ecc391fd30eebc1a737d6f4946305201210340f6dbfd8bf8b98ffa0804129587d19be3956bdaa7cc944341df63815b1a45f79bbb0c00"
}