{
  "txid": "7cb1ba66844b01a9ce5b62a8f01f5f794bf8b1ca4486f1d1bdcd9b06025b9ddd",
  "version": 1,
  "locktime": 0,
  "vin": [
    {
      "txid": "13924824b2287d82e6fa0864ce000b2ed61719726485e9adc66635ec2be7a19e",
      "vout": 2,
      "prevout": {
        "scriptpubkey": "a914dddf37a13b75b2ee75c395a5a5e060b9d813849a87",
        "scriptpubkey_asm": "OP_HASH160 OP_PUSHBYTES_20 dddf37a13b75b2ee75c395a5a5e060b9d813849a OP_EQUAL",
        "scriptpubkey_type": "p2sh",
        "scriptpubkey_address": "3MvAfMATBjH3u3TtiWyMZFc1byyPoSoztN",
        "value": 10740555
      },
      "scriptsig": "1600144373c36ebcfa1f0d7ee56a2e6f6d411f18089719",
      "scriptsig_asm": "OP_PUSHBYTES_22 00144373c36ebcfa1f0d7ee56a2e6f6d411f18089719",
      "witness": [
        "3045022100d2a2260570d1776cac5c4d6424d1c9e358deb9d84d39e21204dfe8f72df575ab022050b6a794e5fdd5c86659bf051a0cbb388997bf470e4d54f0f0cef72ed5127e0901",
        "025bc614f1c185ec6e31a891ff73d71d0b240e5cc507102662d58354b4a131dd8b"
      ],
      "is_coinbase": false,
      "sequence": 4294967295,
      "inner_redeemscript_asm": "OP_0 OP_PUSHBYTES_20 4373c36ebcfa1f0d7ee56a2e6f6d411f18089719"
    }
  ],
  "vout": [
    {
      "scriptpubkey": "00203a9fcc83b2aed3476efdec1ce6468bdf3b37c113a8dc994e4737c0cdb671478d",
      "scriptpubkey_asm": "OP_0 OP_PUSHBYTES_32 3a9fcc83b2aed3476efdec1ce6468bdf3b37c113a8dc994e4737c0cdb671478d",
      "scriptpubkey_type": "v0_p2wsh",
      "scriptpubkey_address": "bc1q820ueqaj4mf5wmhaaswwv35tmuan0sgn4rwfjnj8xlqvmdn3g7xspy05r9",
      "value": 2655373
    },
    {
      "scriptpubkey": "a914dddf37a13b75b2ee75c395a5a5e060b9d813849a87",
      "scriptpubkey_asm": "OP_HASH160 OP_PUSHBYTES_20 dddf37a13b75b2ee75c395a5a5e060b9d813849a OP_EQUAL",
      "scriptpubkey_type": "p2sh",
      "scriptpubkey_address": "3MvAfMATBjH3u3TtiWyMZFc1byyPoSoztN",
      "value": 8080580
    }
  ],
  "size": 259,
  "weight": 706,
  "fee": 4602,
  "status": {
    "confirmed": true,
    "block_height": 834638,
    "block_hash": "000000000000000000025f742c626208ac87e0b7d15054abb4a19ca2d735a54e",
    "block_time": 1710405325
  },
  "hex": "010000000001019ea1e72bec3566c6ade98564721917d62e0b00ce6408fae6827d28b22448921302000000171600144373c36ebcfa1f0d7ee56a2e6f6d411f18089719ffffffff028d842800000000002200203a9fcc83b2aed3476efdec1ce6468bdf3b37c113a8dc994e4737c0cdb671478dc44c7b000000000017a914dddf37a13b75b2ee75c395a5a5e060b9d813849a8702483045022100d2a2260570d1776cac5c4d6424d1c9e358deb9d84d39e21204dfe8f72df575ab022050b6a794e5fdd5c86659bf051a0cbb388997bf470e4d54f0f0cef72ed5127e090121025bc614f1c185ec6e31a891ff73d71d0b240e5cc507102662d58354b4a131dd8b00000000"
}