{
  "txid": "7cb2a4f55245bae141a5d6ad51c08d7a9fdf2c2b905e4d97639ed80b82e69800",
  "version": 2,
  "locktime": 0,
  "vin": [
    {
      "txid": "888888888df663e6bad279d771913ef4501add3df33baf1bc887edf1fdbfa231",
      "vout": 2,
      "prevout": {
        "scriptpubkey": "a914506764a3226203d38d56914f7c27020b59602fe287",
        "scriptpubkey_asm": "OP_HASH160 OP_PUSHBYTES_20 506764a3226203d38d56914f7c27020b59602fe2 OP_EQUAL",
        "scriptpubkey_type": "p2sh",
        "scriptpubkey_address": "3929qmbYYxAST12ceKRWKxcRFwXNnrXnfE",
        "value": 2795
      },
      "scriptsig": "16001414fd7bf29cccd4d685568afb5303c99a5772d6e4",
      "scriptsig_asm": "OP_PUSHBYTES_22 001414fd7bf29cccd4d685568afb5303c99a5772d6e4",
      "witness": [
        "304402206dcede5507efa202679388cfd38f3629b62307af62ac56b65d122f6aad3be8a402205da814e55ac0eca9d43f1b803c6458f361d5fd71b2333aa5718b0c9064b14f6001",
        "021374056db26c3f35632eb16718f4f7c3e9db07a89fb2c2a3c92606e4f3a35719"
      ],
      "is_coinbase": false,
      "sequence": 4294967293,
      "inner_redeemscript_asm": "OP_0 OP_PUSHBYTES_20 14fd7bf29cccd4d685568afb5303c99a5772d6e4"
    },
    {
      "txid": "888888888abcb4c5f04cf9edb124361069edcf761e2b751d94ad78f42f12be53",
      "vout": 2,
      "prevout": {
        "scriptpubkey": "a914506764a3226203d38d56914f7c27020b59602fe287",
        "scriptpubkey_asm": "OP_HASH160 OP_PUSHBYTES_20 506764a3226203d38d56914f7c27020b59602fe2 OP_EQUAL",
        "scriptpubkey_type": "p2sh",
        "scriptpubkey_address": "3929qmbYYxAST12ceKRWKxcRFwXNnrXnfE",
        "value": 2795
      },
      "scriptsig": "16001414fd7bf29cccd4d685568afb5303c99a5772d6e4",
      "scriptsig_asm": "OP_PUSHBYTES_22 001414fd7bf29cccd4d685568afb5303c99a5772d6e4",
      "witness": [
        "30440220326e0dfbb8b2033eb05fa0a7d7d24aab8f9ed28de988c05ef9b063559682bb9a02206bad3bf55cd2ddb2e8319620af233db2e747aa2282dfc9750177b74c09ae154101",
        "021374056db26c3f35632eb16718f4f7c3e9db07a89fb2c2a3c92606e4f3a35719"
      ],
      "is_coinbase": false,
      "sequence": 4294967293,
      "inner_redeemscript_asm": "OP_0 OP_PUSHBYTES_20 14fd7bf29cccd4d685568afb5303c99a5772d6e4"
    },
    {
      "txid": "8888888888a464d91f3bec20aa461b864e27a4d37dd0373c3b4eb8ec3f2b097f",
      "vout": 2,
      "prevout": {
        "scriptpubkey": "a914506764a3226203d38d56914f7c27020b59602fe287",
        "scriptpubkey_asm": "OP_HASH160 OP_PUSHBYTES_20 506764a3226203d38d56914f7c27020b59602fe2 OP_EQUAL",
        "scriptpubkey_type": "p2sh",
        "scriptpubkey_address": "3929qmbYYxAST12ceKRWKxcRFwXNnrXnfE",
        "value": 2795
      },
      "scriptsig": "16001414fd7bf29cccd4d685568afb5303c99a5772d6e4",
      "scriptsig_asm": "OP_PUSHBYTES_22 001414fd7bf29cccd4d685568afb5303c99a5772d6e4",
      "witness": [
        "304402202baac33139475e37bc92b3abd29760fd26bd9fb95513b3322eed8aaf2d749bc50220454b9ca56ead956b8b0b4ec40a3a19654bb074e97920a60d8acd9ff0435d53c101",
        "021374056db26c3f35632eb16718f4f7c3e9db07a89fb2c2a3c92606e4f3a35719"
      ],
      "is_coinbase": false,
      "sequence": 4294967293,
      "inner_redeemscript_asm": "OP_0 OP_PUSHBYTES_20 14fd7bf29cccd4d685568afb5303c99a5772d6e4"
    },
    {
      "txid": "88888888837fcba7508d6ad407b72b3eba4a09a0a9500cbe35d8fa4cbb072e7a",
      "vout": 2,
      "prevout": {
        "scriptpubkey": "a914506764a3226203d38d56914f7c27020b59602fe287",
        "scriptpubkey_asm": "OP_HASH160 OP_PUSHBYTES_20 506764a3226203d38d56914f7c27020b59602fe2 OP_EQUAL",
        "scriptpubkey_type": "p2sh",
        "scriptpubkey_address": "3929qmbYYxAST12ceKRWKxcRFwXNnrXnfE",
        "value": 2795
      },
      "scriptsig": "16001414fd7bf29cccd4d685568afb5303c99a5772d6e4",
      "scriptsig_asm": "OP_PUSHBYTES_22 001414fd7bf29cccd4d685568afb5303c99a5772d6e4",
      "witness": [
        "30440220536d8918df2fa10b09b03a45cd8a0b3406914dd63cfbd6c535ae8770edd8fdae02204593007deb369315ab59a11609c5fd094801bd768b3f3d88fea9f3665b9284ae01",
        "021374056db26c3f35632eb16718f4f7c3e9db07a89fb2c2a3c92606e4f3a35719"
      ],
      "is_coinbase": false,
      "sequence": 4294967293,
      "inner_redeemscript_asm": "OP_0 OP_PUSHBYTES_20 14fd7bf29cccd4d685568afb5303c99a5772d6e4"
    },
    {
      "txid": "88888888860b717c2ee639d194b0de01e80272a5e9863741ed1dfb8680f5bd26",
      "vout": 2,
      "prevout": {
        "scriptpubkey": "a914506764a3226203d38d56914f7c27020b59602fe287",
        "scriptpubkey_asm": "OP_HASH160 OP_PUSHBYTES_20 506764a3226203d38d56914f7c27020b59602fe2 OP_EQUAL",
        "scriptpubkey_type": "p2sh",
        "scriptpubkey_address": "3929qmbYYxAST12ceKRWKxcRFwXNnrXnfE",
        "value": 2795
      },
      "scriptsig": "16001414fd7bf29cccd4d685568afb5303c99a5772d6e4",
      "scriptsig_asm": "OP_PUSHBYTES_22 001414fd7bf29cccd4d685568afb5303c99a5772d6e4",
      "witness": [
        "3044022063bd607ccd8f52952975cce4fa7177a819767225c9737fe3b5b8c0dc9abe9d540220386a85cdcf403c3b00897f838b9683a2cb94ccf1587c1112fda030ae3fd0967d01",
        "021374056db26c3f35632eb16718f4f7c3e9db07a89fb2c2a3c92606e4f3a35719"
      ],
      "is_coinbase": false,
      "sequence": 4294967293,
      "inner_redeemscript_asm": "OP_0 OP_PUSHBYTES_20 14fd7bf29cccd4d685568afb5303c99a5772d6e4"
    },
    {
      "txid": "888888888f54fd1ec02a48ddc42928687706a97cd1d834d6fe83334989689a44",
      "vout": 2,
      "prevout": {
        "scriptpubkey": "a914506764a3226203d38d56914f7c27020b59602fe287",
        "scriptpubkey_asm": "OP_HASH160 OP_PUSHBYTES_20 506764a3226203d38d56914f7c27020b59602fe2 OP_EQUAL",
        "scriptpubkey_type": "p2sh",
        "scriptpubkey_address": "3929qmbYYxAST12ceKRWKxcRFwXNnrXnfE",
        "value": 2795
      },
      "scriptsig": "16001414fd7bf29cccd4d685568afb5303c99a5772d6e4",
      "scriptsig_asm": "OP_PUSHBYTES_22 001414fd7bf29cccd4d685568afb5303c99a5772d6e4",
      "witness": [
        "304402203b72d92fde85019de67a1e34769c0615fbb4aede6b1234cfcca0491dfb9ffc0a022006766a761147c8ed8d2c6caa5ed89d98152f8d61896aff21352383336330fc0501",
        "021374056db26c3f35632eb16718f4f7c3e9db07a89fb2c2a3c92606e4f3a35719"
      ],
      "is_coinbase": false,
      "sequence": 4294967293,
      "inner_redeemscript_asm": "OP_0 OP_PUSHBYTES_20 14fd7bf29cccd4d685568afb5303c99a5772d6e4"
    },
    {
      "txid": "8888888884c8e729610465b8f29ddcebfcffef423fb81fa1d5e59f2ca2c26420",
      "vout": 2,
      "prevout": {
        "scriptpubkey": "a914506764a3226203d38d56914f7c27020b59602fe287",
        "scriptpubkey_asm": "OP_HASH160 OP_PUSHBYTES_20 506764a3226203d38d56914f7c27020b59602fe2 OP_EQUAL",
        "scriptpubkey_type": "p2sh",
        "scriptpubkey_address": "3929qmbYYxAST12ceKRWKxcRFwXNnrXnfE",
        "value": 2795
      },
      "scriptsig": "16001414fd7bf29cccd4d685568afb5303c99a5772d6e4",
      "scriptsig_asm": "OP_PUSHBYTES_22 001414fd7bf29cccd4d685568afb5303c99a5772d6e4",
      "witness": [
        "3044022014ca2cc382f8cb3c8caefccb16e5ec7f7b2633aaec55675bde3f4e7013a58fe70220121719d742e37db6df102710dbc2ef53c2595a9e832762da01640d1388592fb701",
        "021374056db26c3f35632eb16718f4f7c3e9db07a89fb2c2a3c92606e4f3a35719"
      ],
      "is_coinbase": false,
      "sequence": 4294967293,
      "inner_redeemscript_asm": "OP_0 OP_PUSHBYTES_20 14fd7bf29cccd4d685568afb5303c99a5772d6e4"
    },
    {
      "txid": "88888888836eb5179d02d17f7c0a92d59148dff436d6174ee142b9a2d28fa6e5",
      "vout": 2,
      "prevout": {
        "scriptpubkey": "a914506764a3226203d38d56914f7c27020b59602fe287",
        "scriptpubkey_asm": "OP_HASH160 OP_PUSHBYTES_20 506764a3226203d38d56914f7c27020b59602fe2 OP_EQUAL",
        "scriptpubkey_type": "p2sh",
        "scriptpubkey_address": "3929qmbYYxAST12ceKRWKxcRFwXNnrXnfE",
        "value": 2795
      },
      "scriptsig": "16001414fd7bf29cccd4d685568afb5303c99a5772d6e4",
      "scriptsig_asm": "OP_PUSHBYTES_22 001414fd7bf29cccd4d685568afb5303c99a5772d6e4",
      "witness": [
        "3044022059cd287535ea1af68f07131bafc02566b145216b02b51be1bf9282ad2e36545a02206420d3604865cb2bc4d5bd3497ac0f4321935b4b413e00d757cd5c74403bc88101",
        "021374056db26c3f35632eb16718f4f7c3e9db07a89fb2c2a3c92606e4f3a35719"
      ],
      "is_coinbase": false,
      "sequence": 4294967293,
      "inner_redeemscript_asm": "OP_0 OP_PUSHBYTES_20 14fd7bf29cccd4d685568afb5303c99a5772d6e4"
    },
    {
      "txid": "8888888883b57a2874748b05550a1bcb41290ec431a248470f92ebc47d4b965a",
      "vout": 2,
      "prevout": {
        "scriptpubkey": "a914506764a3226203d38d56914f7c27020b59602fe287",
        "scriptpubkey_asm": "OP_HASH160 OP_PUSHBYTES_20 506764a3226203d38d56914f7c27020b59602fe2 OP_EQUAL",
        "scriptpubkey_type": "p2sh",
        "scriptpubkey_address": "3929qmbYYxAST12ceKRWKxcRFwXNnrXnfE",
        "value": 2795
      },
      "scriptsig": "16001414fd7bf29cccd4d685568afb5303c99a5772d6e4",
      "scriptsig_asm": "OP_PUSHBYTES_22 001414fd7bf29cccd4d685568afb5303c99a5772d6e4",
      "witness": [
        "304402205d0491c55e72876d3754d73ca1bc9eacce8e11359a942ac987f421ad0838d04902200eb37df765690f39b729b439621b692566a0522e6f471aaf4ba3819c13012e7901",
        "021374056db26c3f35632eb16718f4f7c3e9db07a89fb2c2a3c92606e4f3a35719"
      ],
      "is_coinbase": false,
      "sequence": 4294967293,
      "inner_redeemscript_asm": "OP_0 OP_PUSHBYTES_20 14fd7bf29cccd4d685568afb5303c99a5772d6e4"
    },
    {
      "txid": "275f6a29f2fc1ea16c0e9d6746087616ee093e24fd97ac0565f8caabbc2397d9",
      "vout": 1,
      "prevout": {
        "scriptpubkey": "76a914cebb2851a9c7cfe2582c12ecaf7f3ff4383d1dc088ac",
        "scriptpubkey_asm": "OP_DUP OP_HASH160 OP_PUSHBYTES_20 cebb2851a9c7cfe2582c12ecaf7f3ff4383d1dc0 OP_EQUALVERIFY OP_CHECKSIG",
        "scriptpubkey_type": "p2pkh",
        "scriptpubkey_address": "1Kr6QSydW9bFQG1mXiPNNu6WpJGmUa9i1g",
        "value": 28234280078
      },
      "scriptsig": "47304402205d2a4694e4c767dbfa2610c12a8890630833a64c2fb1f9040836d627757d212702201c5e2b8eda0fd7b25279063d9d432a703d8042a9a0ed014e4c57d9604f46e2b9012103786af4b32017ec640dba2d2a7e1fd5aa4a231a658e4cbc114d51c031576e19bc",
      "scriptsig_asm": "OP_PUSHBYTES_71 304402205d2a4694e4c767dbfa2610c12a8890630833a64c2fb1f9040836d627757d212702201c5e2b8eda0fd7b25279063d9d432a703d8042a9a0ed014e4c57d9604f46e2b901 OP_PUSHBYTES_33 03786af4b32017ec640dba2d2a7e1fd5aa4a231a658e4cbc114d51c031576e19bc",
      "is_coinbase": false,
      "sequence": 4294967293
    }
  ],
  "vout": [
    {
      "scriptpubkey": "001460500b28134cd0780c9bfa1c7d5ad091dc12088c",
      "scriptpubkey_asm": "OP_0 OP_PUSHBYTES_20 60500b28134cd0780c9bfa1c7d5ad091dc12088c",
      "scriptpubkey_type": "v0_p2wpkh",
      "scriptpubkey_address": "bc1qvpgqk2qnfng8srymlgw86kksj8wpyzyvgak3sn",
      "value": 18918193
    },
    {
      "scriptpubkey": "76a914cebb2851a9c7cfe2582c12ecaf7f3ff4383d1dc088ac",
      "scriptpubkey_asm": "OP_DUP OP_HASH160 OP_PUSHBYTES_20 cebb2851a9c7cfe2582c12ecaf7f3ff4383d1dc0 OP_EQUALVERIFY OP_CHECKSIG",
      "scriptpubkey_type": "p2pkh",
      "scriptpubkey_address": "1Kr6QSydW9bFQG1mXiPNNu6WpJGmUa9i1g",
      "value": 28214923840
    }
  ],
  "size": 1764,
  "weight": 4158,
  "fee": 463200,
  "status": {
    "confirmed": true,
    "block_height": 834638,
    "block_hash": "000000000000000000025f742c626208ac87e0b7d15054abb4a19ca2d735a54e",
    "block_time": 1710405325
  },
  "hex": "0200000000010a31a2bffdf1ed87c81baf3bf33ddd1a50f43e9171d779d2bae663f68d88888888020000001716001414fd7bf29cccd4d685568afb5303c99a5772d6e4fdffffff53be122ff478ad941d752b1e76cfed69103624b1edf94cf0c5b4bc8a88888888020000001716001414fd7bf29cccd4d685568afb5303c99a5772d6e4fdffffff7f092b3fecb84e3b3c37d07dd3a4274e861b46aa20ec3b1fd964a48888888888020000001716001414fd7bf29cccd4d685568afb5303c99a5772d6e4fdffffff7a2e07bb4cfad835be0c50a9a0094aba3e2bb707d46a8d50a7cb7f8388888888020000001716001414fd7bf29cccd4d685568afb5303c99a5772d6e4fdffffff26bdf58086fb1ded413786e9a57202e801deb094d139e62e7c710b8688888888020000001716001414fd7bf29cccd4d685568afb5303c99a5772d6e4fdffffff449a6889493383fed634d8d17ca90677682829c4dd482ac01efd548f88888888020000001716001414fd7bf29cccd4d685568afb5303c99a5772d6e4fdffffff2064c2a22c9fe5d5a11fb83f42effffcebdc9df2b865046129e7c88488888888020000001716001414fd7bf29cccd4d685568afb5303c99a5772d6e4fdffffffe5a68fd2a2b942e14e17d636f4df4891d5920a7c7fd1029d17b56e8388888888020000001716001414fd7bf29cccd4d685568afb5303c99a5772d6e4fdffffff5a964b7dc4eb920f4748a231c40e2941cb1b0a55058b7474287ab58388888888020000001716001414fd7bf29cccd4d685568afb5303c99a5772d6e4fdffffffd99723bcabcaf86505ac97fd243e09ee16760846679d0e6ca11efcf2296a5f27010000006a47304402205d2a4694e4c767dbfa2610c12a8890630833a64c2fb1f9040836d627757d212702201c5e2b8eda0fd7b25279063d9d432a703d8042a9a0ed014e4c57d9604f46e2b9012103786af4b32017ec640dba2d2a7e1fd5aa4a231a658e4cbc114d51c031576e19bcfdffffff0231ab20010000000016001460500b28134cd0780c9bfa1c7d5ad091dc12088c4092bd91060000001976a914cebb2851a9c7cfe2582c12ecaf7f3ff4383d1dc088ac0247304402206dcede5507efa202679388cfd38f3629b62307af62ac56b65d122f6aad3be8a402205da814e55ac0eca9d43f1b803c6458f361d5fd71b2333aa5718b0c9064b14f600121021374056db26c3f35632eb16718f4f7c3e9db07a89fb2c2a3c92606e4f3a35719024730440220326e0dfbb8b2033eb05fa0a7d7d24aab8f9ed28de988c05ef9b063559682bb9a02206bad3bf55cd2ddb2e8319620af233db2e747aa2282dfc9750177b74c09ae15410121021374056db26c3f35632eb16718f4f7c3e9db07a89fb2c2a3c92606e4f3a357190247304402202baac33139475e37bc92b3abd29760fd26bd9fb95513b3322eed8aaf2d749bc50220454b9ca56ead956b8b0b4ec40a3a19654bb074e97920a60d8acd9ff0435d53c10121021374056db26c3f35632eb16718f4f7c3e9db07a89fb2c2a3c92606e4f3a35719024730440220536d8918df2fa10b09b03a45cd8a0b3406914dd63cfbd6c535ae8770edd8fdae02204593007deb369315ab59a11609c5fd094801bd768b3f3d88fea9f3665b9284ae0121021374056db26c3f35632eb16718f4f7c3e9db07a89fb2c2a3c92606e4f3a3571902473044022063bd607ccd8f52952975cce4fa7177a819767225c9737fe3b5b8c0dc9abe9d540220386a85cdcf403c3b00897f838b9683a2cb94ccf1587c1112fda030ae3fd0967d0121021374056db26c3f35632eb16718f4f7c3e9db07a89fb2c2a3c92606e4f3a357190247304402203b72d92fde85019de67a1e34769c0615fbb4aede6b1234cfcca0491dfb9ffc0a022006766a761147c8ed8d2c6caa5ed89d98152f8d61896aff21352383336330fc050121021374056db26c3f35632eb16718f4f7c3e9db07a89fb2c2a3c92606e4f3a3571902473044022014ca2cc382f8cb3c8caefccb16e5ec7f7b2633aaec55675bde3f4e7013a58fe70220121719d742e37db6df102710dbc2ef53c2595a9e832762da01640d1388592fb70121021374056db26c3f35632eb16718f4f7c3e9db07a89fb2c2a3c92606e4f3a3571902473044022059cd287535ea1af68f07131bafc02566b145216b02b51be1bf9282ad2e36545a02206420d3604865cb2bc4d5bd3497ac0f4321935b4b413e00d757cd5c74403bc8810121021374056db26c3f35632eb16718f4f7c3e9db07a89fb2c2a3c92606e4f3a357190247304402205d0491c55e72876d3754d73ca1bc9eacce8e11359a942ac987f421ad0838d04902200eb37df765690f39b729b439621b692566a0522e6f471aaf4ba3819c13012e790121021374056db26c3f35632eb16718f4f7c3e9db07a89fb2c2a3c92606e4f3a357190000000000"
}