{
  "txid": "7cb537397a8f371c82b503a459cb2efd310d62f1a36d3578e840e0bb59790db8",
  "version": 1,
  "locktime": 0,
  "vin": [
    {
      "txid": "54276a3f2010f2a1eb74a5dc9d3747fe16c4ac7b92c035c9d497ab03a30a44d0",
      "vout": 1,
      "prevout": {
        "scriptpubkey": "76a914edefb559f1fb09103a72fe80f5d07553c76f0c4288ac",
        "scriptpubkey_asm": "OP_DUP OP_HASH160 OP_PUSHBYTES_20 edefb559f1fb09103a72fe80f5d07553c76f0c42 OP_EQUALVERIFY OP_CHECKSIG",
        "scriptpubkey_type": "p2pkh",
        "scriptpubkey_address": "1Nh6JhMHSVwvMpzSCWARutfAKBCerSUKMS",
        "value": 21919249
      },
      "scriptsig": "4730440220241f0fa790ae7cc1ea6eea3ba6277d95868aca307b2db39c3258616d93241c9002200af22abb73d45fc326995400da429c011c09be2b2fa6eceb5c3798d9ad3a0cb00121020ef771f2417d0f672027c364f250f6324327bfbd785688bee9c270da140bf444",
      "scriptsig_asm": "OP_PUSHBYTES_71 30440220241f0fa790ae7cc1ea6eea3ba6277d95868aca307b2db39c3258616d93241c9002200af22abb73d45fc326995400da429c011c09be2b2fa6eceb5c3798d9ad3a0cb001 OP_PUSHBYTES_33 020ef771f2417d0f672027c364f250f6324327bfbd785688bee9c270da140bf444",
      "is_coinbase": false,
      "sequence": 4294967295
    }
  ],
  "vout": [
    {
      "scriptpubkey": "76a914bfa494f78ea97a0a284855acade5e564a1d0bed188ac",
      "scriptpubkey_asm": "OP_DUP OP_HASH160 OP_PUSHBYTES_20 bfa494f78ea97a0a284855acade5e564a1d0bed1 OP_EQUALVERIFY OP_CHECKSIG",
      "scriptpubkey_type": "p2pkh",
      "scriptpubkey_address": "1JUKDzTbn4c54WXo63TZMpTUuQD4GSJVx2",
      "value": 21914231
    }
  ],
  "size": 191,
  "weight": 764,
  "fee": 5018,
  "status": {
    "confirmed": true,
    "block_height": 834638,
    "block_hash": "000000000000000000025f742c626208ac87e0b7d15054abb4a19ca2d735a54e",
    "block_time": 1710405325
  },
  "hex": "0100000001d0440aa303ab97d4c935c0927bacc416fe47379ddca574eba1f210203f6a2754010000006a4730440220241f0fa790ae7cc1ea6eea3ba6277d95868aca307b2db39c3258616d93241c9002200af22abb73d45fc326995400da429c011c09be2b2fa6eceb5c3798d9ad3a0cb00121020ef771f2417d0f672027c364f250f6324327bfbd785688bee9c270da140bf444ffffffff0177624e01000000001976a914bfa494f78ea97a0a284855acade5e564a1d0bed188ac00000000"
}