{
  "txid": "7cb92ecdb39820505d2d5fac724fa131437a4e94744f962c5b232e9701347cae",
  "version": 2,
  "locktime": 0,
  "vin": [
    {
      "txid": "27ea4044d0c24613568b0355245226f595013b1930422f7ae577ca22bb286d91",
      "vout": 6,
      "prevout": {
        "scriptpubkey": "0014806af7099b9fe4b1d66828da5ae838ed25506b56",
        "scriptpubkey_asm": "OP_0 OP_PUSHBYTES_20 806af7099b9fe4b1d66828da5ae838ed25506b56",
        "scriptpubkey_type": "v0_p2wpkh",
        "scriptpubkey_address": "bc1qsp40wzvmnljtr4ng9rd946pca5j4q66k5lyq0q",
        "value": 74375525
      },
      "scriptsig": "",
      "scriptsig_asm": "",
      "witness": [
        "304402205c786f358958c16d7d3794f42715a7ef5380edd9b39f82ee64f1c0ddf24bc8b502206d67f8497c5fdca605c947efa80b4f681a2642920dc2596c661ef1e83e7fa01901",
        "03ec21a2056f7216eb29caacb419b208534d474a3221b8aae9dba171a063e2da3e"
      ],
      "is_coinbase": false,
      "sequence": 4294967295
    }
  ],
  "vout": [
    {
      "scriptpubkey": "a914bc35736ce5ac477736201c2ab77f3f86ca07146887",
      "scriptpubkey_asm": "OP_HASH160 OP_PUSHBYTES_20 bc35736ce5ac477736201c2ab77f3f86ca071468 OP_EQUAL",
      "scriptpubkey_type": "p2sh",
      "scriptpubkey_address": "3JrAzSUvCSdawJT2N1qRZb5Prj1nDNr7yK",
      "value": 10000000
    },
    {
      "scriptpubkey": "001445f1c93bb7343c7828b739026e2ed05566b102a8",
      "scriptpubkey_asm": "OP_0 OP_PUSHBYTES_20 45f1c93bb7343c7828b739026e2ed05566b102a8",
      "scriptpubkey_type": "v0_p2wpkh",
      "scriptpubkey_address": "bc1qghcujwahxs78s29h8ypxutks24ntzq4g63ccjs",
      "value": 64371704
    }
  ],
  "size": 223,
  "weight": 565,
  "fee": 3821,
  "status": {
    "confirmed": true,
    "block_height": 834638,
    "block_hash": "000000000000000000025f742c626208ac87e0b7d15054abb4a19ca2d735a54e",
    "block_time": 1710405325
  },
  "hex": "02000000000101916d28bb22ca77e57a2f4230193b0195f526522455038b561346c2d04440ea270600000000ffffffff02809698000000000017a914bc35736ce5ac477736201c2ab77f3f86ca07146887f83bd6030000000016001445f1c93bb7343c7828b739026e2ed05566b102a80247304402205c786f358958c16d7d3794f42715a7ef5380edd9b39f82ee64f1c0ddf24bc8b502206d67f8497c5fdca605c947efa80b4f681a2642920dc2596c661ef1e83e7fa019012103ec21a2056f7216eb29caacb419b208534d474a3221b8aae9dba171a063e2da3e00000000"
}