{
  "txid": "7cc4cc5dd5ec9120f5f16aac1d8edd97c9d6c9168ac5a2834325d9a924698550",
  "version": 2,
  "locktime": 0,
  "vin": [
    {
      "txid": "b13bb5512a4904c28a6b7957b88edf574e8cb23551fc1dcfe22d6b239df42cf4",
      "vout": 33,
      "prevout": {
        "scriptpubkey": "512065c57eeca7d485c08acd7b092859a314ca2c1312777b712f9ad5759914a57efa",
        "scriptpubkey_asm": "OP_PUSHNUM_1 OP_PUSHBYTES_32 65c57eeca7d485c08acd7b092859a314ca2c1312777b712f9ad5759914a57efa",
        "scriptpubkey_type": "v1_p2tr",
        "scriptpubkey_address": "bc1pvhzham986jzupzkd0vyjskdrzn9zcycjwaahztu6646ej9990maqhkh930",
        "value": 2575
      },
      "scriptsig": "",
      "scriptsig_asm": "",
      "witness": [
        "9db8e3c1f7f16373813e46d3f4363006a38474ea052a3b83169cc7e3ddb5ff5b118f34b910b0d21eb25e455bdbb9530522f8da152e980ffcc423f96933be5975",
        "207c3c1b4fbaf2a2217dc1e83e8f5888b7ce32a8e930e2c23764dbb0aaac83627cac0063036f726401010a746578742f706c61696e00367b2270223a226272632d3230222c226f70223a226d696e74222c227469636b223a2261616161222c22616d74223a223130303030227d68",
        "c17c3c1b4fbaf2a2217dc1e83e8f5888b7ce32a8e930e2c23764dbb0aaac83627c"
      ],
      "is_coinbase": false,
      "sequence": 4261412863
    }
  ],
  "vout": [
    {
      "scriptpubkey": "0014ce0b5aa0dac72397a8aa5a85d90a2cfb46f0f630",
      "scriptpubkey_asm": "OP_0 OP_PUSHBYTES_20 ce0b5aa0dac72397a8aa5a85d90a2cfb46f0f630",
      "scriptpubkey_type": "v0_p2wpkh",
      "scriptpubkey_address": "bc1qec944gx6cu3e0292t2zajz3vldr0pa3sh356d9",
      "value": 546
    }
  ],
  "size": 295,
  "weight": 541,
  "fee": 2029,
  "status": {
    "confirmed": true,
    "block_height": 834464,
    "block_hash": "0000000000000000000177a0869a911a2b65c9bdcd5a8bcb02b68f305bee848e",
    "block_time": 1710308296
  },
  "hex": "02000000000101f42cf49d236b2de2cf1dfc5135b28c4e57df8eb857796b8ac204492a51b53bb12100000000fffffffd012202000000000000160014ce0b5aa0dac72397a8aa5a85d90a2cfb46f0f63003409db8e3c1f7f16373813e46d3f4363006a38474ea052a3b83169cc7e3ddb5ff5b118f34b910b0d21eb25e455bdbb9530522f8da152e980ffcc423f96933be59756e207c3c1b4fbaf2a2217dc1e83e8f5888b7ce32a8e930e2c23764dbb0aaac83627cac0063036f726401010a746578742f706c61696e00367b2270223a226272632d3230222c226f70223a226d696e74222c227469636b223a2261616161222c22616d74223a223130303030227d6821c17c3c1b4fbaf2a2217dc1e83e8f5888b7ce32a8e930e2c23764dbb0aaac83627c00000000"
}