{
  "txid": "7ccd9daccf569a6016173298dfcf6e74a16b169b68599a853f19e516139daafd",
  "version": 2,
  "locktime": 0,
  "vin": [
    {
      "txid": "7afb1cbf59ab8fa44833ebef0248f69fcf5474fd930eb8584c07ebad01a44d08",
      "vout": 1,
      "prevout": {
        "scriptpubkey": "001476af7b9fad6ba195a2f65e0fd6538f3081c01e60",
        "scriptpubkey_asm": "OP_0 OP_PUSHBYTES_20 76af7b9fad6ba195a2f65e0fd6538f3081c01e60",
        "scriptpubkey_type": "v0_p2wpkh",
        "scriptpubkey_address": "bc1qw6hhh8addwsetghktc8av5u0xzquq8nq9mtmzl",
        "value": 197255
      },
      "scriptsig": "",
      "scriptsig_asm": "",
      "witness": [
        "3045022100910b348e9ea9e6507d16930c688a4585d5d43710583fce862b6ea961c4d96d4002206999db847e6ad1d86dfc488b430ae103592945c00ba78e0d905dfd8bdc8619f501",
        "0304171c5cab7059d82116c2fb83e7578442d9beadbf4aadf6f052ca8d3acf94fc"
      ],
      "is_coinbase": false,
      "sequence": 4294967295
    }
  ],
  "vout": [
    {
      "scriptpubkey": "001454b353fcd9071c4a2104bd9aa53b90a6493d5cc5",
      "scriptpubkey_asm": "OP_0 OP_PUSHBYTES_20 54b353fcd9071c4a2104bd9aa53b90a6493d5cc5",
      "scriptpubkey_type": "v0_p2wpkh",
      "scriptpubkey_address": "bc1q2je48lxequwy5ggyhkd22wus5eyn6hx9k3jrk2",
      "value": 195077
    }
  ],
  "size": 192,
  "weight": 438,
  "fee": 2178,
  "status": {
    "confirmed": true,
    "block_height": 834638,
    "block_hash": "000000000000000000025f742c626208ac87e0b7d15054abb4a19ca2d735a54e",
    "block_time": 1710405325
  },
  "hex": "02000000000101084da401adeb074c58b80e93fd7454cf9ff64802efeb3348a48fab59bf1cfb7a0100000000ffffffff0105fa02000000000016001454b353fcd9071c4a2104bd9aa53b90a6493d5cc502483045022100910b348e9ea9e6507d16930c688a4585d5d43710583fce862b6ea961c4d96d4002206999db847e6ad1d86dfc488b430ae103592945c00ba78e0d905dfd8bdc8619f501210304171c5cab7059d82116c2fb83e7578442d9beadbf4aadf6f052ca8d3acf94fc00000000"
}