{
  "txid": "7cdf92543f32609c353e765b012db568d05c31144d6c4964b4a713ad7bd0dcd8",
  "version": 1,
  "locktime": 0,
  "vin": [
    {
      "txid": "c80f207b630642493df2923333d4a95dcd8e2f64b4964a21ffb6efd5c2e384c7",
      "vout": 1,
      "prevout": {
        "scriptpubkey": "76a914b18bede95b451ae0ea2bef90b8af700301fe004188ac",
        "scriptpubkey_asm": "OP_DUP OP_HASH160 OP_PUSHBYTES_20 b18bede95b451ae0ea2bef90b8af700301fe0041 OP_EQUALVERIFY OP_CHECKSIG",
        "scriptpubkey_type": "p2pkh",
        "scriptpubkey_address": "1HBnER5SHwPTnzEuQ2WvBQEzrQQMuxPqaK",
        "value": 190942
      },
      "scriptsig": "483045022100845482e37f729f958f3f5e42de08620b78c7be3bff2205757a07c83ed2572b8f02204b4142f8f23926d7ad363f2abbc08a04365580e4ec28b2e8bd41f20060c2da300121032346abb5330ed65e28978c211c32c633a8d2e769616a8c8a32056830999c080b",
      "scriptsig_asm": "OP_PUSHBYTES_72 3045022100845482e37f729f958f3f5e42de08620b78c7be3bff2205757a07c83ed2572b8f02204b4142f8f23926d7ad363f2abbc08a04365580e4ec28b2e8bd41f20060c2da3001 OP_PUSHBYTES_33 032346abb5330ed65e28978c211c32c633a8d2e769616a8c8a32056830999c080b",
      "is_coinbase": false,
      "sequence": 4294967295
    },
    {
      "txid": "81b49836698d1d99f8f33a0f218e6878e9c5e40b05a667f1a4c139157c1671a8",
      "vout": 71,
      "prevout": {
        "scriptpubkey": "76a914c1dc6f6d40bfe2dad302535cfc4f41d866aa0a0f88ac",
        "scriptpubkey_asm": "OP_DUP OP_HASH160 OP_PUSHBYTES_20 c1dc6f6d40bfe2dad302535cfc4f41d866aa0a0f OP_EQUALVERIFY OP_CHECKSIG",
        "scriptpubkey_type": "p2pkh",
        "scriptpubkey_address": "1Jg3V8kmsXxSMEVf2uAdase97fAHCkfBit",
        "value": 260530
      },
      "scriptsig": "483045022100ea9ca6f91b62d2da2b7098f10847bac4004f6530f561c9b175b59d3137e0364102205fd90c6ba749acf7eb1c07db131ef0a6912e4e3e44e37e380ace30c2117c489f01210270ae9070d66058eec961131901e82b852bf8e4ae05657c15959846c04908bdc5",
      "scriptsig_asm": "OP_PUSHBYTES_72 3045022100ea9ca6f91b62d2da2b7098f10847bac4004f6530f561c9b175b59d3137e0364102205fd90c6ba749acf7eb1c07db131ef0a6912e4e3e44e37e380ace30c2117c489f01 OP_PUSHBYTES_33 0270ae9070d66058eec961131901e82b852bf8e4ae05657c15959846c04908bdc5",
      "is_coinbase": false,
      "sequence": 4294967295
    }
  ],
  "vout": [
    {
      "scriptpubkey": "00147ebe513689f0ff27a98e15255699fb4479ae9077",
      "scriptpubkey_asm": "OP_0 OP_PUSHBYTES_20 7ebe513689f0ff27a98e15255699fb4479ae9077",
      "scriptpubkey_type": "v0_p2wpkh",
      "scriptpubkey_address": "bc1q06l9zd5f7rlj02vwz5j4dx0mg3u6ayrhgmsav9",
      "value": 438271
    },
    {
      "scriptpubkey": "76a9144a549c176b5d096740253ec918df3a61b7bbfe0288ac",
      "scriptpubkey_asm": "OP_DUP OP_HASH160 OP_PUSHBYTES_20 4a549c176b5d096740253ec918df3a61b7bbfe02 OP_EQUALVERIFY OP_CHECKSIG",
      "scriptpubkey_type": "p2pkh",
      "scriptpubkey_address": "17n2Myzrrs66BFxTM1qsZ9sDXdwkDRER2b",
      "value": 958
    }
  ],
  "size": 371,
  "weight": 1484,
  "fee": 12243,
  "status": {
    "confirmed": true,
    "block_height": 834638,
    "block_hash": "000000000000000000025f742c626208ac87e0b7d15054abb4a19ca2d735a54e",
    "block_time": 1710405325
  },
  "hex": "0100000002c784e3c2d5efb6ff214a96b4642f8ecd5da9d4333392f23d494206637b200fc8010000006b483045022100845482e37f729f958f3f5e42de08620b78c7be3bff2205757a07c83ed2572b8f02204b4142f8f23926d7ad363f2abbc08a04365580e4ec28b2e8bd41f20060c2da300121032346abb5330ed65e28978c211c32c633a8d2e769616a8c8a32056830999c080bffffffffa871167c1539c1a4f167a6050be4c5e978688e210f3af3f8991d8d693698b481470000006b483045022100ea9ca6f91b62d2da2b7098f10847bac4004f6530f561c9b175b59d3137e0364102205fd90c6ba749acf7eb1c07db131ef0a6912e4e3e44e37e380ace30c2117c489f01210270ae9070d66058eec961131901e82b852bf8e4ae05657c15959846c04908bdc5ffffffff02ffaf0600000000001600147ebe513689f0ff27a98e15255699fb4479ae9077be030000000000001976a9144a549c176b5d096740253ec918df3a61b7bbfe0288ac00000000"
}