{
  "txid": "7ce153a8e9b6e5c2edf91fc7166e509122d817fb1eee02eb97f9ad78af8838e9",
  "version": 2,
  "locktime": 0,
  "vin": [
    {
      "txid": "d18ed70056c00a6cd5de0ccb10b1ae8f7dd5250f9d0f22c727aba826d03302c8",
      "vout": 16,
      "prevout": {
        "scriptpubkey": "512056e88dd4a0a198f1c1994fc68b6045a60fbbd6051a2d9048af692d63ff82cc5d",
        "scriptpubkey_asm": "OP_PUSHNUM_1 OP_PUSHBYTES_32 56e88dd4a0a198f1c1994fc68b6045a60fbbd6051a2d9048af692d63ff82cc5d",
        "scriptpubkey_type": "v1_p2tr",
        "scriptpubkey_address": "bc1p2m5gm49q5xv0rsveflrgkcz95c8mh4s9rgkeqj90dykk8luze3wsd8avr5",
        "value": 3010
      },
      "scriptsig": "",
      "scriptsig_asm": "",
      "witness": [
        "eac859b48fda34f96511c15dda66ad2530438265882b97b472866f802c207278ec33b3d6bf96a163f5c2a42bdbb1939c14203c739a0131a305a15cda7a6023b9",
        "2057cf6dc7f96e2b66ac683ddf6e2ff80e55448e4e049a469cb77cba298b97c09dac0063036f726401011e6170706c69636174696f6e2f6a736f6e3b636861727365743d7574662d38004cbf7b2270223a22706f772d3230222c226f70223a226d696e74222c227469636b223a2250455045222c22616d74223a2231303030222c22736f6c7574696f6e223a22504550453a6263317168337833756334707a796478716436757776376e3732676874787a33753937306564663078613a303030303030303030303030303030303030303139393431613561653132383937363539383134343239323533333030353762306461393666336465613163353a3333303435343134363930227d68",
        "c0e5c6b8d70510d88b341fcdd9a2aa08913e89d9e736480c530fde3fe13419cdab"
      ],
      "is_coinbase": false,
      "sequence": 4294967295
    }
  ],
  "vout": [
    {
      "scriptpubkey": "0014bc4d1e62a1111a60375c733d3f291759851e17cf",
      "scriptpubkey_asm": "OP_0 OP_PUSHBYTES_20 bc4d1e62a1111a60375c733d3f291759851e17cf",
      "scriptpubkey_type": "v0_p2wpkh",
      "scriptpubkey_address": "bc1qh3x3uc4pzydxqd6uwv7n72ghtxz3u970edf0xa",
      "value": 546
    }
  ],
  "size": 455,
  "weight": 701,
  "fee": 2464,
  "status": {
    "confirmed": true,
    "block_height": 834460,
    "block_hash": "00000000000000000000484a79b643b2524bbce82e5d8a442013fa5b8905ed98",
    "block_time": 1710307468
  },
  "hex": "02000000000101c80233d026a8ab27c7220f9d0f25d57d8faeb110cb0cded56c0ac05600d78ed11000000000ffffffff012202000000000000160014bc4d1e62a1111a60375c733d3f291759851e17cf0340eac859b48fda34f96511c15dda66ad2530438265882b97b472866f802c207278ec33b3d6bf96a163f5c2a42bdbb1939c14203c739a0131a305a15cda7a6023b9fd0c012057cf6dc7f96e2b66ac683ddf6e2ff80e55448e4e049a469cb77cba298b97c09dac0063036f726401011e6170706c69636174696f6e2f6a736f6e3b636861727365743d7574662d38004cbf7b2270223a22706f772d3230222c226f70223a226d696e74222c227469636b223a2250455045222c22616d74223a2231303030222c22736f6c7574696f6e223a22504550453a6263317168337833756334707a796478716436757776376e3732676874787a33753937306564663078613a303030303030303030303030303030303030303139393431613561653132383937363539383134343239323533333030353762306461393666336465613163353a3333303435343134363930227d6821c0e5c6b8d70510d88b341fcdd9a2aa08913e89d9e736480c530fde3fe13419cdab00000000"
}