{
  "txid": "7ce54050e29c43204e51b0660a21668683024edabcc8e0ccd985d9373a70d3aa",
  "version": 1,
  "locktime": 0,
  "vin": [
    {
      "txid": "0e5062c4d4873da03a3d3fc1bc62f19c8511b0032327c9b6791f13e4aad0d610",
      "vout": 1,
      "prevout": {
        "scriptpubkey": "76a91405fa78d1c32c0ed2daa680fea560e34fd8a625f988ac",
        "scriptpubkey_asm": "OP_DUP OP_HASH160 OP_PUSHBYTES_20 05fa78d1c32c0ed2daa680fea560e34fd8a625f9 OP_EQUALVERIFY OP_CHECKSIG",
        "scriptpubkey_type": "p2pkh",
        "scriptpubkey_address": "1YcS4DKG1QCPayT5J5N4CWvw2osUiJhAE",
        "value": 1509987
      },
      "scriptsig": "4730440220643092f4232ab8bf341045c26b5749ef4bad2d64da4027453ffaf31cb33f2c5e02201e66548dce3e85d555dde628925a1b0286c649b52810f9ebefea45eda3f1dcf2012103a433ed3b6ea03307f3f6e85697c16d31e20e2a14ea54abe235a7b4895dd3fb38",
      "scriptsig_asm": "OP_PUSHBYTES_71 30440220643092f4232ab8bf341045c26b5749ef4bad2d64da4027453ffaf31cb33f2c5e02201e66548dce3e85d555dde628925a1b0286c649b52810f9ebefea45eda3f1dcf201 OP_PUSHBYTES_33 03a433ed3b6ea03307f3f6e85697c16d31e20e2a14ea54abe235a7b4895dd3fb38",
      "is_coinbase": false,
      "sequence": 4294967295
    }
  ],
  "vout": [
    {
      "scriptpubkey": "76a914a60f0a990f564d41346d2215f02f6710e0179b9788ac",
      "scriptpubkey_asm": "OP_DUP OP_HASH160 OP_PUSHBYTES_20 a60f0a990f564d41346d2215f02f6710e0179b97 OP_EQUALVERIFY OP_CHECKSIG",
      "scriptpubkey_type": "p2pkh",
      "scriptpubkey_address": "1G93BwS8bj8YvD8butHkgDnSfWRfoWjw1x",
      "value": 39297
    },
    {
      "scriptpubkey": "76a91405fa78d1c32c0ed2daa680fea560e34fd8a625f988ac",
      "scriptpubkey_asm": "OP_DUP OP_HASH160 OP_PUSHBYTES_20 05fa78d1c32c0ed2daa680fea560e34fd8a625f9 OP_EQUALVERIFY OP_CHECKSIG",
      "scriptpubkey_type": "p2pkh",
      "scriptpubkey_address": "1YcS4DKG1QCPayT5J5N4CWvw2osUiJhAE",
      "value": 1467526
    }
  ],
  "size": 225,
  "weight": 900,
  "fee": 3164,
  "status": {
    "confirmed": true,
    "block_height": 834460,
    "block_hash": "00000000000000000000484a79b643b2524bbce82e5d8a442013fa5b8905ed98",
    "block_time": 1710307468
  },
  "hex": "010000000110d6d0aae4131f79b6c9272303b011859cf162bcc13f3d3aa03d87d4c462500e010000006a4730440220643092f4232ab8bf341045c26b5749ef4bad2d64da4027453ffaf31cb33f2c5e02201e66548dce3e85d555dde628925a1b0286c649b52810f9ebefea45eda3f1dcf2012103a433ed3b6ea03307f3f6e85697c16d31e20e2a14ea54abe235a7b4895dd3fb38ffffffff0281990000000000001976a914a60f0a990f564d41346d2215f02f6710e0179b9788ac86641600000000001976a91405fa78d1c32c0ed2daa680fea560e34fd8a625f988ac00000000"
}