{
  "txid": "7ce8142cbd3c2d269525f6fa1a5c21b80963349f0c4d21c630b7c010b57cb35e",
  "version": 2,
  "locktime": 0,
  "vin": [
    {
      "txid": "659b82bf51c32df260f3e3563d90fcbcb0098209af4d18020ca9e1a619ccc8c8",
      "vout": 17,
      "prevout": {
        "scriptpubkey": "5120c1a49f3f6194721a543c17a57236a445c727deeb0e4c2977fd8757b59a2687db",
        "scriptpubkey_asm": "OP_PUSHNUM_1 OP_PUSHBYTES_32 c1a49f3f6194721a543c17a57236a445c727deeb0e4c2977fd8757b59a2687db",
        "scriptpubkey_type": "v1_p2tr",
        "scriptpubkey_address": "bc1pcxjf70mpj3ep54puz7jhyd4yghrj0hhtpexzjalasatmtx3xslds0cgp9z",
        "value": 1931
      },
      "scriptsig": "",
      "scriptsig_asm": "",
      "witness": [
        "7806eff59ef2ef3a9b2857e5502e51b2fb88653273daf5294d01de54713c2e6f27e829677007da7566d462f6d077b7ca5f539a9d2485aea29e84aa7135a3a7df",
        "20c8c715e6cfacbb670b4259707c7f79d6e4b5981676ef96c713afdd99078aa60aac0063036f726401010a746578742f706c61696e00367b2270223a226272632d3230222c226f70223a226d696e74222c227469636b223a2261616161222c22616d74223a223130303030227d68",
        "c1c8c715e6cfacbb670b4259707c7f79d6e4b5981676ef96c713afdd99078aa60a"
      ],
      "is_coinbase": false,
      "sequence": 4261412863
    }
  ],
  "vout": [
    {
      "scriptpubkey": "0014be9f0c070a9b1bd40f5fcb06fba89738d936ceb6",
      "scriptpubkey_asm": "OP_0 OP_PUSHBYTES_20 be9f0c070a9b1bd40f5fcb06fba89738d936ceb6",
      "scriptpubkey_type": "v0_p2wpkh",
      "scriptpubkey_address": "bc1qh60scpc2nvdagr6levr0h2yh8rvndn4k4v5s9g",
      "value": 294
    }
  ],
  "size": 295,
  "weight": 541,
  "fee": 1637,
  "status": {
    "confirmed": true,
    "block_height": 834460,
    "block_hash": "00000000000000000000484a79b643b2524bbce82e5d8a442013fa5b8905ed98",
    "block_time": 1710307468
  },
  "hex": "02000000000101c8c8cc19a6e1a90c02184daf098209b0bcfc903d56e3f360f22dc351bf829b651100000000fffffffd012601000000000000160014be9f0c070a9b1bd40f5fcb06fba89738d936ceb603407806eff59ef2ef3a9b2857e5502e51b2fb88653273daf5294d01de54713c2e6f27e829677007da7566d462f6d077b7ca5f539a9d2485aea29e84aa7135a3a7df6e20c8c715e6cfacbb670b4259707c7f79d6e4b5981676ef96c713afdd99078aa60aac0063036f726401010a746578742f706c61696e00367b2270223a226272632d3230222c226f70223a226d696e74222c227469636b223a2261616161222c22616d74223a223130303030227d6821c1c8c715e6cfacbb670b4259707c7f79d6e4b5981676ef96c713afdd99078aa60a00000000"
}