{
  "txid": "7cee578215fe3083917f6cc903658b829ed48855e0bf1184ba25e4a891d7b38f",
  "version": 2,
  "locktime": 0,
  "vin": [
    {
      "txid": "d0d36a23928a96ac6f567b836b84b20c62e94588a93eba9568658ef6829fbc76",
      "vout": 2,
      "prevout": {
        "scriptpubkey": "0014f60834ef165253c571b11ce9fa74e46692fc5ec1",
        "scriptpubkey_asm": "OP_0 OP_PUSHBYTES_20 f60834ef165253c571b11ce9fa74e46692fc5ec1",
        "scriptpubkey_type": "v0_p2wpkh",
        "scriptpubkey_address": "bc1q7cyrfmck2ffu2ud3rn5l5a8yv6f0chkp0zpemf",
        "value": 970262767
      },
      "scriptsig": "",
      "scriptsig_asm": "",
      "witness": [
        "3045022100cbc37e219b1bf250d1a8249304ee3b1ae2a6cb4f3d43d5418b6e51fc5d229f91022008fb932e0842dcf3981fc99276a1da8109d12e3039e6dbb17864316828bfb21801",
        "026e5628506ecd33242e5ceb5fdafe4d3066b5c0f159b3c05a621ef65f177ea286"
      ],
      "is_coinbase": false,
      "sequence": 4294967293
    }
  ],
  "vout": [
    {
      "scriptpubkey": "a914f43e8b9043563ce153422838c0d8d106c5ce3a5287",
      "scriptpubkey_asm": "OP_HASH160 OP_PUSHBYTES_20 f43e8b9043563ce153422838c0d8d106c5ce3a52 OP_EQUAL",
      "scriptpubkey_type": "p2sh",
      "scriptpubkey_address": "3PxTj4iq86gvHgjaUZwDBbQrqcsEZgNgdi",
      "value": 899940000
    },
    {
      "scriptpubkey": "a914b8352c053a5d74199bb9f531f7e62d90e789933f87",
      "scriptpubkey_asm": "OP_HASH160 OP_PUSHBYTES_20 b8352c053a5d74199bb9f531f7e62d90e789933f OP_EQUAL",
      "scriptpubkey_type": "p2sh",
      "scriptpubkey_address": "3JV1xHw279pnuza9Y2Xsyn1jRZPruV7xxJ",
      "value": 383185
    },
    {
      "scriptpubkey": "0014f60834ef165253c571b11ce9fa74e46692fc5ec1",
      "scriptpubkey_asm": "OP_0 OP_PUSHBYTES_20 f60834ef165253c571b11ce9fa74e46692fc5ec1",
      "scriptpubkey_type": "v0_p2wpkh",
      "scriptpubkey_address": "bc1q7cyrfmck2ffu2ud3rn5l5a8yv6f0chkp0zpemf",
      "value": 69933918
    }
  ],
  "size": 256,
  "weight": 694,
  "fee": 5664,
  "status": {
    "confirmed": true,
    "block_height": 834638,
    "block_hash": "000000000000000000025f742c626208ac87e0b7d15054abb4a19ca2d735a54e",
    "block_time": 1710405325
  },
  "hex": "0200000000010176bc9f82f68e656895ba3ea98845e9620cb2846b837b566fac968a92236ad3d00200000000fdffffff03a0fea3350000000017a914f43e8b9043563ce153422838c0d8d106c5ce3a5287d1d805000000000017a914b8352c053a5d74199bb9f531f7e62d90e789933f875e1b2b0400000000160014f60834ef165253c571b11ce9fa74e46692fc5ec102483045022100cbc37e219b1bf250d1a8249304ee3b1ae2a6cb4f3d43d5418b6e51fc5d229f91022008fb932e0842dcf3981fc99276a1da8109d12e3039e6dbb17864316828bfb2180121026e5628506ecd33242e5ceb5fdafe4d3066b5c0f159b3c05a621ef65f177ea28600000000"
}