{
  "txid": "7cf3d609de6b4210d442f17c2b38bb0674fa5a0543cdef473568dd16a2b30513",
  "version": 1,
  "locktime": 0,
  "vin": [
    {
      "txid": "4db197f62b7f68bbcb7a5047955c36b028d4c909b4cf42c564447f2a219f6e35",
      "vout": 114,
      "prevout": {
        "scriptpubkey": "00141a51c2b9a1bf303735cd81f14eebe3842e9c0233",
        "scriptpubkey_asm": "OP_0 OP_PUSHBYTES_20 1a51c2b9a1bf303735cd81f14eebe3842e9c0233",
        "scriptpubkey_type": "v0_p2wpkh",
        "scriptpubkey_address": "bc1qrfgu9wdphucrwdwds8c5a6lrsshfcq3n47ny3r",
        "value": 528873
      },
      "scriptsig": "",
      "scriptsig_asm": "",
      "witness": [
        "3045022100f327cc7e4e008fded5a4d9a4f477f78eafed90920fcb925391e08ea5385f63f402203142ff0d6cecffeeebbe94040af59fbe48db844c56ca0fddd271f14c02607a8601",
        "03dc2ad6b4ad9378e292d699c0094611e8f61b3012a25ad7677e44d758c425db99"
      ],
      "is_coinbase": false,
      "sequence": 4294967295
    }
  ],
  "vout": [
    {
      "scriptpubkey": "a91490fa50ff33fb28145a9d658ca4264dd51059ab8e87",
      "scriptpubkey_asm": "OP_HASH160 OP_PUSHBYTES_20 90fa50ff33fb28145a9d658ca4264dd51059ab8e OP_EQUAL",
      "scriptpubkey_type": "p2sh",
      "scriptpubkey_address": "3Eub6TMtiAeJBgTSGZgw9kYB9kZ1mJPL9a",
      "value": 140000
    },
    {
      "scriptpubkey": "0014c115a883b77c5526b820f2a88ce4d6e34b3cfd98",
      "scriptpubkey_asm": "OP_0 OP_PUSHBYTES_20 c115a883b77c5526b820f2a88ce4d6e34b3cfd98",
      "scriptpubkey_type": "v0_p2wpkh",
      "scriptpubkey_address": "bc1qcy263qah032jdwpq725geexkud9nelvcchud0c",
      "value": 386828
    }
  ],
  "size": 224,
  "weight": 566,
  "fee": 2045,
  "status": {
    "confirmed": true,
    "block_height": 834638,
    "block_hash": "000000000000000000025f742c626208ac87e0b7d15054abb4a19ca2d735a54e",
    "block_time": 1710405325
  },
  "hex": "01000000000101356e9f212a7f4464c542cfb409c9d428b0365c9547507acbbb687f2bf697b14d7200000000ffffffff02e02202000000000017a91490fa50ff33fb28145a9d658ca4264dd51059ab8e870ce7050000000000160014c115a883b77c5526b820f2a88ce4d6e34b3cfd9802483045022100f327cc7e4e008fded5a4d9a4f477f78eafed90920fcb925391e08ea5385f63f402203142ff0d6cecffeeebbe94040af59fbe48db844c56ca0fddd271f14c02607a86012103dc2ad6b4ad9378e292d699c0094611e8f61b3012a25ad7677e44d758c425db9900000000"
}