{
  "txid": "7cfa5734a9409676983d459e2fd089585748e1b06d3b2576c6c69b5eb327b113",
  "version": 2,
  "locktime": 0,
  "vin": [
    {
      "txid": "4d45a721f141b73cbab24ab8e29cb3ff9643ed6e87b0dd34debb0d1e9cfa80ec",
      "vout": 0,
      "prevout": {
        "scriptpubkey": "0014cd414407a4807b73fb9dd46843b50ac9ab5b022a",
        "scriptpubkey_asm": "OP_0 OP_PUSHBYTES_20 cd414407a4807b73fb9dd46843b50ac9ab5b022a",
        "scriptpubkey_type": "v0_p2wpkh",
        "scriptpubkey_address": "bc1qe4q5gpayspah87ua635y8dg2ex44kq32t8m26j",
        "value": 1820
      },
      "scriptsig": "",
      "scriptsig_asm": "",
      "witness": [
        "304402205b714d325256a5eb6f23c34a78c8095ee9df17af2e03d633b1e7f34f39abef2e0220169488d37c6117fccc3eee7aeffeea00093ac57989d395667f94950fae1b98f801",
        "03b8923a453ed117452f03e552b6c6d2019f11ed2b49795faa278165ae604cde11"
      ],
      "is_coinbase": false,
      "sequence": 4294967295
    }
  ],
  "vout": [
    {
      "scriptpubkey": "00148c3e53ddb840529ce674ea39b403a07535022bd2",
      "scriptpubkey_asm": "OP_0 OP_PUSHBYTES_20 8c3e53ddb840529ce674ea39b403a07535022bd2",
      "scriptpubkey_type": "v0_p2wpkh",
      "scriptpubkey_address": "bc1q3sl98hdcgpffeen5agumgqaqw56sy27jl79l4w",
      "value": 638
    }
  ],
  "size": 191,
  "weight": 437,
  "fee": 1182,
  "status": {
    "confirmed": true,
    "block_height": 834464,
    "block_hash": "0000000000000000000177a0869a911a2b65c9bdcd5a8bcb02b68f305bee848e",
    "block_time": 1710308296
  },
  "hex": "02000000000101ec80fa9c1e0dbbde34ddb0876eed4396ffb39ce2b84ab2ba3cb741f121a7454d0000000000ffffffff017e020000000000001600148c3e53ddb840529ce674ea39b403a07535022bd20247304402205b714d325256a5eb6f23c34a78c8095ee9df17af2e03d633b1e7f34f39abef2e0220169488d37c6117fccc3eee7aeffeea00093ac57989d395667f94950fae1b98f8012103b8923a453ed117452f03e552b6c6d2019f11ed2b49795faa278165ae604cde1100000000"
}