{
  "txid": "7cff2438bc70dc2dc1266580fd98a048a0ec2c6ccffa4544f43c02e1362ae4da",
  "version": 2,
  "locktime": 834458,
  "vin": [
    {
      "txid": "ef106b9797feb8d7b7ec94037e6ceffde96e4c7f05c86d28d525331154a34996",
      "vout": 0,
      "prevout": {
        "scriptpubkey": "0014036258927a8ee599dab01a9f1386414a6d62ff59",
        "scriptpubkey_asm": "OP_0 OP_PUSHBYTES_20 036258927a8ee599dab01a9f1386414a6d62ff59",
        "scriptpubkey_type": "v0_p2wpkh",
        "scriptpubkey_address": "bc1qqd393yn63mjenk4sr2038pjpffkk9l6e38jlmc",
        "value": 607
      },
      "scriptsig": "",
      "scriptsig_asm": "",
      "witness": [
        "304402201fb3a63f2b7cc9a6eea64f71af7fbae65477f35954821720f30bba40bb38545d022064e126f5acd49551f97b3d3562162d4a9ca5851d4dcf0156a68b9cfcd520d41f01",
        "03da4f48d5533a002edf16deb982ccceea29c2e169104c56022d2e9a287fbceb4d"
      ],
      "is_coinbase": false,
      "sequence": 4294967293
    },
    {
      "txid": "ef106b9797feb8d7b7ec94037e6ceffde96e4c7f05c86d28d525331154a34996",
      "vout": 2,
      "prevout": {
        "scriptpubkey": "0014036258927a8ee599dab01a9f1386414a6d62ff59",
        "scriptpubkey_asm": "OP_0 OP_PUSHBYTES_20 036258927a8ee599dab01a9f1386414a6d62ff59",
        "scriptpubkey_type": "v0_p2wpkh",
        "scriptpubkey_address": "bc1qqd393yn63mjenk4sr2038pjpffkk9l6e38jlmc",
        "value": 664279
      },
      "scriptsig": "",
      "scriptsig_asm": "",
      "witness": [
        "3044022024b36c4e194c5784693264502e2670295b89cc7d79010eba4a87e8e57bdf0ae802204c6dd2fed05b347cfc8a1ff52be5da807e9110d7001ef5aa901d152a3116f47101",
        "03da4f48d5533a002edf16deb982ccceea29c2e169104c56022d2e9a287fbceb4d"
      ],
      "is_coinbase": false,
      "sequence": 4294967293
    }
  ],
  "vout": [
    {
      "scriptpubkey": "0014036258927a8ee599dab01a9f1386414a6d62ff59",
      "scriptpubkey_asm": "OP_0 OP_PUSHBYTES_20 036258927a8ee599dab01a9f1386414a6d62ff59",
      "scriptpubkey_type": "v0_p2wpkh",
      "scriptpubkey_address": "bc1qqd393yn63mjenk4sr2038pjpffkk9l6e38jlmc",
      "value": 606
    },
    {
      "scriptpubkey": "0014e4162a5c1e012dbe595cf4c6784b5fe7742f347b",
      "scriptpubkey_asm": "OP_0 OP_PUSHBYTES_20 e4162a5c1e012dbe595cf4c6784b5fe7742f347b",
      "scriptpubkey_type": "v0_p2wpkh",
      "scriptpubkey_address": "bc1qustz5hq7qykmuk2u7nr8sj6lua6z7drmsuees9",
      "value": 546
    },
    {
      "scriptpubkey": "0014036258927a8ee599dab01a9f1386414a6d62ff59",
      "scriptpubkey_asm": "OP_0 OP_PUSHBYTES_20 036258927a8ee599dab01a9f1386414a6d62ff59",
      "scriptpubkey_type": "v0_p2wpkh",
      "scriptpubkey_address": "bc1qqd393yn63mjenk4sr2038pjpffkk9l6e38jlmc",
      "value": 660389
    }
  ],
  "size": 401,
  "weight": 956,
  "fee": 3345,
  "status": {
    "confirmed": true,
    "block_height": 834460,
    "block_hash": "00000000000000000000484a79b643b2524bbce82e5d8a442013fa5b8905ed98",
    "block_time": 1710307468
  },
  "hex": "020000000001029649a354113325d5286dc8057f4c6ee9fdef6c7e0394ecb7d7b8fe97976b10ef0000000000fdffffff9649a354113325d5286dc8057f4c6ee9fdef6c7e0394ecb7d7b8fe97976b10ef0200000000fdffffff035e02000000000000160014036258927a8ee599dab01a9f1386414a6d62ff592202000000000000160014e4162a5c1e012dbe595cf4c6784b5fe7742f347ba5130a0000000000160014036258927a8ee599dab01a9f1386414a6d62ff590247304402201fb3a63f2b7cc9a6eea64f71af7fbae65477f35954821720f30bba40bb38545d022064e126f5acd49551f97b3d3562162d4a9ca5851d4dcf0156a68b9cfcd520d41f012103da4f48d5533a002edf16deb982ccceea29c2e169104c56022d2e9a287fbceb4d02473044022024b36c4e194c5784693264502e2670295b89cc7d79010eba4a87e8e57bdf0ae802204c6dd2fed05b347cfc8a1ff52be5da807e9110d7001ef5aa901d152a3116f471012103da4f48d5533a002edf16deb982ccceea29c2e169104c56022d2e9a287fbceb4d9abb0c00"
}