{
  "txid": "7d0060e4c98cb562b358daca31f837c090e239742f6dd7fa04afeefd6ac3257e",
  "version": 2,
  "locktime": 0,
  "vin": [
    {
      "txid": "b758ada5f8f5fc52fd0e1dc73a4c46aceca246f43b39cb8ab1da99305f7ac485",
      "vout": 2,
      "prevout": {
        "scriptpubkey": "51200157d5aaac128332b4f8e03f1ffd313317d6f6c85f9b722d0689815fdeb207d4",
        "scriptpubkey_asm": "OP_PUSHNUM_1 OP_PUSHBYTES_32 0157d5aaac128332b4f8e03f1ffd313317d6f6c85f9b722d0689815fdeb207d4",
        "scriptpubkey_type": "v1_p2tr",
        "scriptpubkey_address": "bc1pq9tat24vz2pn9d8cuql3llf3xvtadakgt7dhytgx3xq4lh4jql2qth3a7e",
        "value": 805200
      },
      "scriptsig": "",
      "scriptsig_asm": "",
      "witness": [
        "30ad1e7f5600c6d608c641027038d6a17e7c697c3bdbd61b6363ff603645d2d80a66e45e9d015ea3cab685a95ec7d351fff5bda70a8944a76a4f9ebb50d678d7"
      ],
      "is_coinbase": false,
      "sequence": 4294967293
    }
  ],
  "vout": [
    {
      "scriptpubkey": "51201cd0eb62a85658afa5d793d9b5fb5fd42fcabb6b69bc3836bdd14903d6ea6b8b",
      "scriptpubkey_asm": "OP_PUSHNUM_1 OP_PUSHBYTES_32 1cd0eb62a85658afa5d793d9b5fb5fd42fcabb6b69bc3836bdd14903d6ea6b8b",
      "scriptpubkey_type": "v1_p2tr",
      "scriptpubkey_address": "bc1prngwkc4g2ev2lfwhj0vmt76l6shu4wmtdx7rsd4a69ys84h2dw9sp2wf95",
      "value": 3130
    },
    {
      "scriptpubkey": "51200157d5aaac128332b4f8e03f1ffd313317d6f6c85f9b722d0689815fdeb207d4",
      "scriptpubkey_asm": "OP_PUSHNUM_1 OP_PUSHBYTES_32 0157d5aaac128332b4f8e03f1ffd313317d6f6c85f9b722d0689815fdeb207d4",
      "scriptpubkey_type": "v1_p2tr",
      "scriptpubkey_address": "bc1pq9tat24vz2pn9d8cuql3llf3xvtadakgt7dhytgx3xq4lh4jql2qth3a7e",
      "value": 799452
    }
  ],
  "size": 205,
  "weight": 616,
  "fee": 2618,
  "status": {
    "confirmed": true,
    "block_height": 834638,
    "block_hash": "000000000000000000025f742c626208ac87e0b7d15054abb4a19ca2d735a54e",
    "block_time": 1710405325
  },
  "hex": "0200000000010185c47a5f3099dab18acb393bf446a2ecac464c3ac71d0efd52fcf5f8a5ad58b70200000000fdffffff023a0c0000000000002251201cd0eb62a85658afa5d793d9b5fb5fd42fcabb6b69bc3836bdd14903d6ea6b8bdc320c00000000002251200157d5aaac128332b4f8e03f1ffd313317d6f6c85f9b722d0689815fdeb207d4014030ad1e7f5600c6d608c641027038d6a17e7c697c3bdbd61b6363ff603645d2d80a66e45e9d015ea3cab685a95ec7d351fff5bda70a8944a76a4f9ebb50d678d700000000"
}