{
  "txid": "7d11ba00dd419b6c810613c35150aff7c8842023f76f5aea496ee897b24df273",
  "version": 2,
  "locktime": 0,
  "vin": [
    {
      "txid": "f90c6250721ab434261896f8060a3d1c975ba22d87b497181638ee6378d043f8",
      "vout": 0,
      "prevout": {
        "scriptpubkey": "76a9146ba861153db87d2b9e43e543cd90f3041f4de9ad88ac",
        "scriptpubkey_asm": "OP_DUP OP_HASH160 OP_PUSHBYTES_20 6ba861153db87d2b9e43e543cd90f3041f4de9ad OP_EQUALVERIFY OP_CHECKSIG",
        "scriptpubkey_type": "p2pkh",
        "scriptpubkey_address": "1ApF1ikgTiKqsddud48Aa7r9fV5EaV7RDX",
        "value": 7342
      },
      "scriptsig": "47304402203d5403c42d4dc2974c291564b990d7277035a3395dca9d1496a5ae3b879baf29022043e41538be9077d68dd30c520cd778754b3286578ac5473d21bc27393def9b5d01210272d0e5b8014fa64da18c31c0cc7a89bedaaf5d933a2ef2d7926d7ebe21ed31dd",
      "scriptsig_asm": "OP_PUSHBYTES_71 304402203d5403c42d4dc2974c291564b990d7277035a3395dca9d1496a5ae3b879baf29022043e41538be9077d68dd30c520cd778754b3286578ac5473d21bc27393def9b5d01 OP_PUSHBYTES_33 0272d0e5b8014fa64da18c31c0cc7a89bedaaf5d933a2ef2d7926d7ebe21ed31dd",
      "is_coinbase": false,
      "sequence": 4294967295
    },
    {
      "txid": "f90c6250721ab434261896f8060a3d1c975ba22d87b497181638ee6378d043f8",
      "vout": 1,
      "prevout": {
        "scriptpubkey": "76a9145da5b1289a806300bcae16f2747dc072965e987e88ac",
        "scriptpubkey_asm": "OP_DUP OP_HASH160 OP_PUSHBYTES_20 5da5b1289a806300bcae16f2747dc072965e987e OP_EQUALVERIFY OP_CHECKSIG",
        "scriptpubkey_type": "p2pkh",
        "scriptpubkey_address": "19YALKnyBxYSsCm93aEAEYTvucJgDCmyM1",
        "value": 59655
      },
      "scriptsig": "483045022100b7d10c38d6c19a6f4d7e1ebf6c070ad015fe14cfe4b38be96abb8928a23b396d0220620f1b7484e5cfd9d5ab7f4cc9a7b0e024bf4327f81234255d06b9b5420235fa01210382b9fb8038bbcaab4011f2674291a81678f3233b39a326de37e9a6b4e7503b1b",
      "scriptsig_asm": "OP_PUSHBYTES_72 3045022100b7d10c38d6c19a6f4d7e1ebf6c070ad015fe14cfe4b38be96abb8928a23b396d0220620f1b7484e5cfd9d5ab7f4cc9a7b0e024bf4327f81234255d06b9b5420235fa01 OP_PUSHBYTES_33 0382b9fb8038bbcaab4011f2674291a81678f3233b39a326de37e9a6b4e7503b1b",
      "is_coinbase": false,
      "sequence": 4294967295
    }
  ],
  "vout": [
    {
      "scriptpubkey": "a914a30c50e0923d4e9ef2955f88bd0874f625a68f8e87",
      "scriptpubkey_asm": "OP_HASH160 OP_PUSHBYTES_20 a30c50e0923d4e9ef2955f88bd0874f625a68f8e OP_EQUAL",
      "scriptpubkey_type": "p2sh",
      "scriptpubkey_address": "3GZ8pY95R45c6CcXEjfnRBkvdEUZsnrE1q",
      "value": 13683
    },
    {
      "scriptpubkey": "76a914a37109bcd5c8d6589c81b83401469ba0f9e491fd88ac",
      "scriptpubkey_asm": "OP_DUP OP_HASH160 OP_PUSHBYTES_20 a37109bcd5c8d6589c81b83401469ba0f9e491fd OP_EQUALVERIFY OP_CHECKSIG",
      "scriptpubkey_type": "p2pkh",
      "scriptpubkey_address": "1FuCZHksgC9bX4q7M8GDNhDeoE2WznRhzc",
      "value": 40856
    }
  ],
  "size": 371,
  "weight": 1484,
  "fee": 12458,
  "status": {
    "confirmed": true,
    "block_height": 834638,
    "block_hash": "000000000000000000025f742c626208ac87e0b7d15054abb4a19ca2d735a54e",
    "block_time": 1710405325
  },
  "hex": "0200000002f843d07863ee38161897b4872da25b971c3d0a06f896182634b41a7250620cf9000000006a47304402203d5403c42d4dc2974c291564b990d7277035a3395dca9d1496a5ae3b879baf29022043e41538be9077d68dd30c520cd778754b3286578ac5473d21bc27393def9b5d01210272d0e5b8014fa64da18c31c0cc7a89bedaaf5d933a2ef2d7926d7ebe21ed31ddfffffffff843d07863ee38161897b4872da25b971c3d0a06f896182634b41a7250620cf9010000006b483045022100b7d10c38d6c19a6f4d7e1ebf6c070ad015fe14cfe4b38be96abb8928a23b396d0220620f1b7484e5cfd9d5ab7f4cc9a7b0e024bf4327f81234255d06b9b5420235fa01210382b9fb8038bbcaab4011f2674291a81678f3233b39a326de37e9a6b4e7503b1bffffffff02733500000000000017a914a30c50e0923d4e9ef2955f88bd0874f625a68f8e87989f0000000000001976a914a37109bcd5c8d6589c81b83401469ba0f9e491fd88ac00000000"
}