{
  "txid": "7d16302c29c3a49d65147ed57daa9bc4536e3cea9ae8cc8741ba096afc1c0c78",
  "version": 2,
  "locktime": 0,
  "vin": [
    {
      "txid": "b13bb5512a4904c28a6b7957b88edf574e8cb23551fc1dcfe22d6b239df42cf4",
      "vout": 85,
      "prevout": {
        "scriptpubkey": "5120781ff9e6aa2b7c07c7afe09f66786618a99bd315f05bfd13196b58fd9d3141eb",
        "scriptpubkey_asm": "OP_PUSHNUM_1 OP_PUSHBYTES_32 781ff9e6aa2b7c07c7afe09f66786618a99bd315f05bfd13196b58fd9d3141eb",
        "scriptpubkey_type": "v1_p2tr",
        "scriptpubkey_address": "bc1p0q0lne429d7q03a0uz0kv7rxrz5eh5c47pdl6yceddv0m8f3g84sm98xnt",
        "value": 2575
      },
      "scriptsig": "",
      "scriptsig_asm": "",
      "witness": [
        "32d128f9c2b10cd67a297ae2d8d3fcf983c2635823ec897307b2dfbbe9e1dd6d50d944ccc31ae776e1cd6d771600c9979ae4ab14e5f4e2ed4eb72af516f81e3d",
        "209775ca2c5317d9946694f8cdda3a8b1fad7173641f4f244783960d6c5fd4f559ac0063036f726401010a746578742f706c61696e00367b2270223a226272632d3230222c226f70223a226d696e74222c227469636b223a2261616161222c22616d74223a223130303030227d68",
        "c09775ca2c5317d9946694f8cdda3a8b1fad7173641f4f244783960d6c5fd4f559"
      ],
      "is_coinbase": false,
      "sequence": 4261412863
    }
  ],
  "vout": [
    {
      "scriptpubkey": "0014ce0b5aa0dac72397a8aa5a85d90a2cfb46f0f630",
      "scriptpubkey_asm": "OP_0 OP_PUSHBYTES_20 ce0b5aa0dac72397a8aa5a85d90a2cfb46f0f630",
      "scriptpubkey_type": "v0_p2wpkh",
      "scriptpubkey_address": "bc1qec944gx6cu3e0292t2zajz3vldr0pa3sh356d9",
      "value": 546
    }
  ],
  "size": 295,
  "weight": 541,
  "fee": 2029,
  "status": {
    "confirmed": true,
    "block_height": 834464,
    "block_hash": "0000000000000000000177a0869a911a2b65c9bdcd5a8bcb02b68f305bee848e",
    "block_time": 1710308296
  },
  "hex": "02000000000101f42cf49d236b2de2cf1dfc5135b28c4e57df8eb857796b8ac204492a51b53bb15500000000fffffffd012202000000000000160014ce0b5aa0dac72397a8aa5a85d90a2cfb46f0f630034032d128f9c2b10cd67a297ae2d8d3fcf983c2635823ec897307b2dfbbe9e1dd6d50d944ccc31ae776e1cd6d771600c9979ae4ab14e5f4e2ed4eb72af516f81e3d6e209775ca2c5317d9946694f8cdda3a8b1fad7173641f4f244783960d6c5fd4f559ac0063036f726401010a746578742f706c61696e00367b2270223a226272632d3230222c226f70223a226d696e74222c227469636b223a2261616161222c22616d74223a223130303030227d6821c09775ca2c5317d9946694f8cdda3a8b1fad7173641f4f244783960d6c5fd4f55900000000"
}