{
  "txid": "7d22db901c94e209bf46f3ec680b1055cf681fd74025a272990a3416cfc37728",
  "version": 2,
  "locktime": 0,
  "vin": [
    {
      "txid": "1ce5311d0ed2d64e3d1a8629784fc975c43583755fbd6dde602b3457ca564149",
      "vout": 1,
      "prevout": {
        "scriptpubkey": "0014e35617e9b44a668d723bdfc77f8820e33b29daab",
        "scriptpubkey_asm": "OP_0 OP_PUSHBYTES_20 e35617e9b44a668d723bdfc77f8820e33b29daab",
        "scriptpubkey_type": "v0_p2wpkh",
        "scriptpubkey_address": "bc1qudtp06d5ffng6u3mmlrhlzpquvajnk4tvpju94",
        "value": 28945
      },
      "scriptsig": "",
      "scriptsig_asm": "",
      "witness": [
        "3044022006629769f461b47659ba37434e57a571bb3d8e9bd74636b75744a4d66ebffda002200144030f7674da162fc96f2761453f5e363f16f0276001a7c512149a4cad5e3c01",
        "025cd02a9609b32948024b042284f51d91c47deb86482a0252411f8c2bd3530f4e"
      ],
      "is_coinbase": false,
      "sequence": 4294967295
    }
  ],
  "vout": [
    {
      "scriptpubkey": "76a914b43953fa36f92c96653ad2c4f92a88800e8ac8e088ac",
      "scriptpubkey_asm": "OP_DUP OP_HASH160 OP_PUSHBYTES_20 b43953fa36f92c96653ad2c4f92a88800e8ac8e0 OP_EQUALVERIFY OP_CHECKSIG",
      "scriptpubkey_type": "p2pkh",
      "scriptpubkey_address": "1HRwJkaNCDikTXskqsjtYLaJ6iduX4NLzs",
      "value": 6920
    },
    {
      "scriptpubkey": "0014f569e55c30614f5d952222d301eed5995d7d9f64",
      "scriptpubkey_asm": "OP_0 OP_PUSHBYTES_20 f569e55c30614f5d952222d301eed5995d7d9f64",
      "scriptpubkey_type": "v0_p2wpkh",
      "scriptpubkey_address": "bc1q74572hpsv984m9fzytfsrmk4n9whm8my7tnfh7",
      "value": 20460
    }
  ],
  "size": 225,
  "weight": 573,
  "fee": 1565,
  "status": {
    "confirmed": true,
    "block_height": 834464,
    "block_hash": "0000000000000000000177a0869a911a2b65c9bdcd5a8bcb02b68f305bee848e",
    "block_time": 1710308296
  },
  "hex": "02000000000101494156ca57342b60de6dbd5f758335c475c94f7829861a3d4ed6d20e1d31e51c0100000000ffffffff02081b0000000000001976a914b43953fa36f92c96653ad2c4f92a88800e8ac8e088acec4f000000000000160014f569e55c30614f5d952222d301eed5995d7d9f6402473044022006629769f461b47659ba37434e57a571bb3d8e9bd74636b75744a4d66ebffda002200144030f7674da162fc96f2761453f5e363f16f0276001a7c512149a4cad5e3c0121025cd02a9609b32948024b042284f51d91c47deb86482a0252411f8c2bd3530f4e00000000"
}