{
  "txid": "7d238f7bac06633852f23b44df8a96d60cdabb24233c6f2db52a4006480ddfd8",
  "version": 2,
  "locktime": 0,
  "vin": [
    {
      "txid": "f081e194d79b0318b4ac6a49a791c2b924276537bfbe5c61e02e55daf36ae2da",
      "vout": 1,
      "prevout": {
        "scriptpubkey": "00140c54eb664291b0bb9fd1c729ecbbee05c6853381",
        "scriptpubkey_asm": "OP_0 OP_PUSHBYTES_20 0c54eb664291b0bb9fd1c729ecbbee05c6853381",
        "scriptpubkey_type": "v0_p2wpkh",
        "scriptpubkey_address": "bc1qp32wkejzjxcth873cu57ewlwqhrg2vupczzlv8",
        "value": 8887598
      },
      "scriptsig": "",
      "scriptsig_asm": "",
      "witness": [
        "30440220330e56b32179dea00c7444f7ae84a2017cd5c496953657f70cf7a41d49f75f19022075d779674144537ad2125e9b57a205ca4a06c773be459b1555a6cff0109645e501",
        "036878d139fca7995cc2b2953b8407ce298b8ac9e50bd81534ae2a6383925f869f"
      ],
      "is_coinbase": false,
      "sequence": 4294967293
    }
  ],
  "vout": [
    {
      "scriptpubkey": "00140c54eb664291b0bb9fd1c729ecbbee05c6853381",
      "scriptpubkey_asm": "OP_0 OP_PUSHBYTES_20 0c54eb664291b0bb9fd1c729ecbbee05c6853381",
      "scriptpubkey_type": "v0_p2wpkh",
      "scriptpubkey_address": "bc1qp32wkejzjxcth873cu57ewlwqhrg2vupczzlv8",
      "value": 8746979
    },
    {
      "scriptpubkey": "00143b51d2fb20ed3a6d1e599fd63af93c371d6dca8f",
      "scriptpubkey_asm": "OP_0 OP_PUSHBYTES_20 3b51d2fb20ed3a6d1e599fd63af93c371d6dca8f",
      "scriptpubkey_type": "v0_p2wpkh",
      "scriptpubkey_address": "bc1q8dga97eqa5ax68jenltr47fuxuwkmj50zv5ltq",
      "value": 138530
    }
  ],
  "size": 222,
  "weight": 561,
  "fee": 2089,
  "status": {
    "confirmed": true,
    "block_height": 834460,
    "block_hash": "00000000000000000000484a79b643b2524bbce82e5d8a442013fa5b8905ed98",
    "block_time": 1710307468
  },
  "hex": "02000000000101dae26af3da552ee0615cbebf37652724b9c291a7496aacb418039bd794e181f00100000000fdffffff02e3778500000000001600140c54eb664291b0bb9fd1c729ecbbee05c6853381221d0200000000001600143b51d2fb20ed3a6d1e599fd63af93c371d6dca8f024730440220330e56b32179dea00c7444f7ae84a2017cd5c496953657f70cf7a41d49f75f19022075d779674144537ad2125e9b57a205ca4a06c773be459b1555a6cff0109645e50121036878d139fca7995cc2b2953b8407ce298b8ac9e50bd81534ae2a6383925f869f00000000"
}