{
  "txid": "7d2ec1dae96bab0f1d9e7c1f757c7e99b2ae358623a5dd38d1942f48ecef6c1a",
  "version": 2,
  "locktime": 0,
  "vin": [
    {
      "txid": "c6aa451709bb21d48631aac0cfe03e0ac53bc345608c7ea10ceecf379f797b9b",
      "vout": 0,
      "prevout": {
        "scriptpubkey": "5120d92f243295f83d4356d85c1ee3ea573683d8ab4bd7f9bebdffa77720a13048bd",
        "scriptpubkey_asm": "OP_PUSHNUM_1 OP_PUSHBYTES_32 d92f243295f83d4356d85c1ee3ea573683d8ab4bd7f9bebdffa77720a13048bd",
        "scriptpubkey_type": "v1_p2tr",
        "scriptpubkey_address": "bc1pmyhjgv54lq75x4kcts0w86jhx6pa326t6luma00l5amjpgfsfz7s4p7r92",
        "value": 5000
      },
      "scriptsig": "",
      "scriptsig_asm": "",
      "witness": [
        "1f505972080efe5e78e0860b7d2ea0caa5df81315d7a9263998d780da12afc2b824ee5b3c52f577856db885a9faa1212d29daf387e686b106741257cbc5e81b701"
      ],
      "is_coinbase": false,
      "sequence": 4294967295
    }
  ],
  "vout": [
    {
      "scriptpubkey": "00143919d928e617770c9b365142cb95d85743baba29",
      "scriptpubkey_asm": "OP_0 OP_PUSHBYTES_20 3919d928e617770c9b365142cb95d85743baba29",
      "scriptpubkey_type": "v0_p2wpkh",
      "scriptpubkey_address": "bc1q8yvaj28xzamsexek29pvh9wc2apm4w3fu7zfkh",
      "value": 3792
    }
  ],
  "size": 151,
  "weight": 397,
  "fee": 1208,
  "status": {
    "confirmed": true,
    "block_height": 834552,
    "block_hash": "00000000000000000001dd0468a70c94f619251d286585cff57aeb4bd9ede330",
    "block_time": 1710355598
  },
  "hex": "020000000001019b7b799f37cfee0ca17e8c6045c33bc50a3ee0cfc0aa3186d421bb091745aac60000000000ffffffff01d00e0000000000001600143919d928e617770c9b365142cb95d85743baba2901411f505972080efe5e78e0860b7d2ea0caa5df81315d7a9263998d780da12afc2b824ee5b3c52f577856db885a9faa1212d29daf387e686b106741257cbc5e81b70100000000"
}