{
  "txid": "7d448b068a22314ba26a38744ab35c95bd9ccce0429f425a35f97dfa06a0ff0f",
  "version": 2,
  "locktime": 0,
  "vin": [
    {
      "txid": "bd108bdf1c25ab0b0095d4a0cc24e1a46160bc446d62e50528b69387af70e5ca",
      "vout": 2,
      "prevout": {
        "scriptpubkey": "a914b321cc76fb438182ec9726943f8a46bbd02a8b8287",
        "scriptpubkey_asm": "OP_HASH160 OP_PUSHBYTES_20 b321cc76fb438182ec9726943f8a46bbd02a8b82 OP_EQUAL",
        "scriptpubkey_type": "p2sh",
        "scriptpubkey_address": "3J2BNFn3UDT6qb4MX7gj2wH1kwZZSG5aj4",
        "value": 17959
      },
      "scriptsig": "160014731ae3552a43d884678076179e7ed53669d15321",
      "scriptsig_asm": "OP_PUSHBYTES_22 0014731ae3552a43d884678076179e7ed53669d15321",
      "witness": [
        "3045022100bfd9deee2b9448e67bacf189714b203bb007b57e1b3be67967ef7c5314390c540220520c455c611349b6bb74b7378aa39680391e49c3b61fb7de10aa6853ece5825901",
        "03545cc84c0e290ceaef9f025b65e7f2c2987c30923d8169c5fea8644ad8f7b28e"
      ],
      "is_coinbase": false,
      "sequence": 4294967293,
      "inner_redeemscript_asm": "OP_0 OP_PUSHBYTES_20 731ae3552a43d884678076179e7ed53669d15321"
    },
    {
      "txid": "7cfe72520f916f5e46ecfbc0b732efdd71af307ff16bd2e2239150f008e08c61",
      "vout": 2,
      "prevout": {
        "scriptpubkey": "a914b321cc76fb438182ec9726943f8a46bbd02a8b8287",
        "scriptpubkey_asm": "OP_HASH160 OP_PUSHBYTES_20 b321cc76fb438182ec9726943f8a46bbd02a8b82 OP_EQUAL",
        "scriptpubkey_type": "p2sh",
        "scriptpubkey_address": "3J2BNFn3UDT6qb4MX7gj2wH1kwZZSG5aj4",
        "value": 69655
      },
      "scriptsig": "160014731ae3552a43d884678076179e7ed53669d15321",
      "scriptsig_asm": "OP_PUSHBYTES_22 0014731ae3552a43d884678076179e7ed53669d15321",
      "witness": [
        "304402200d857ad277886fc638d5550f58125b3a3708ed7d6bf5fe5d6be4e95da4f63a2d02205fb6ff74e551dc710e8310e99cd2106513b70953ce44d85d287bc51e63437e0a01",
        "03545cc84c0e290ceaef9f025b65e7f2c2987c30923d8169c5fea8644ad8f7b28e"
      ],
      "is_coinbase": false,
      "sequence": 4294967293,
      "inner_redeemscript_asm": "OP_0 OP_PUSHBYTES_20 731ae3552a43d884678076179e7ed53669d15321"
    }
  ],
  "vout": [
    {
      "scriptpubkey": "a91497a37a77743394091c921d3f5724a9ba08d6683987",
      "scriptpubkey_asm": "OP_HASH160 OP_PUSHBYTES_20 97a37a77743394091c921d3f5724a9ba08d66839 OP_EQUAL",
      "scriptpubkey_type": "p2sh",
      "scriptpubkey_address": "3FWooBpwv9nvAhjvWUKkQRdomAVBYguGzo",
      "value": 84239
    }
  ],
  "size": 387,
  "weight": 897,
  "fee": 3375,
  "status": {
    "confirmed": true,
    "block_height": 834638,
    "block_hash": "000000000000000000025f742c626208ac87e0b7d15054abb4a19ca2d735a54e",
    "block_time": 1710405325
  },
  "hex": "02000000000102cae570af8793b62805e5626d44bc6061a4e124cca0d495000bab251cdf8b10bd0200000017160014731ae3552a43d884678076179e7ed53669d15321fdffffff618ce008f0509123e2d26bf17f30af71ddef32b7c0fbec465e6f910f5272fe7c0200000017160014731ae3552a43d884678076179e7ed53669d15321fdffffff010f4901000000000017a91497a37a77743394091c921d3f5724a9ba08d668398702483045022100bfd9deee2b9448e67bacf189714b203bb007b57e1b3be67967ef7c5314390c540220520c455c611349b6bb74b7378aa39680391e49c3b61fb7de10aa6853ece58259012103545cc84c0e290ceaef9f025b65e7f2c2987c30923d8169c5fea8644ad8f7b28e0247304402200d857ad277886fc638d5550f58125b3a3708ed7d6bf5fe5d6be4e95da4f63a2d02205fb6ff74e551dc710e8310e99cd2106513b70953ce44d85d287bc51e63437e0a012103545cc84c0e290ceaef9f025b65e7f2c2987c30923d8169c5fea8644ad8f7b28e00000000"
}