{
  "txid": "7d5e994b2b6bd78a0405feefc8436a1563b968b4ddfeb1408220fabf8cc49c0e",
  "version": 2,
  "locktime": 834455,
  "vin": [
    {
      "txid": "1cd9d2855446b48a4ea3697ff04d6bea1b5fb3c303e729f65d25334bdf5e3ddd",
      "vout": 1,
      "prevout": {
        "scriptpubkey": "0014dd5d6ec976cca3959074f09af84935a15f111947",
        "scriptpubkey_asm": "OP_0 OP_PUSHBYTES_20 dd5d6ec976cca3959074f09af84935a15f111947",
        "scriptpubkey_type": "v0_p2wpkh",
        "scriptpubkey_address": "bc1qm4wkajtkej3etyr57zd0sjf45903zx28fcuwtn",
        "value": 122618
      },
      "scriptsig": "",
      "scriptsig_asm": "",
      "witness": [
        "304402205aae421310b22c7fcdb2eea0bd396a1337e39b2149c10d87c5732a462679f8da02202c4ad422479da36ab2bb617935ca0babe16f50906ca7e27b112a89dfe70003e401",
        "03ffedd487110864f00f926755645184ad8ccfdae9127a24eab787a0109010dc7d"
      ],
      "is_coinbase": false,
      "sequence": 4294967293
    }
  ],
  "vout": [
    {
      "scriptpubkey": "0014e232154cafb4ece5dd6c8b00ef9950dc1d056b68",
      "scriptpubkey_asm": "OP_0 OP_PUSHBYTES_20 e232154cafb4ece5dd6c8b00ef9950dc1d056b68",
      "scriptpubkey_type": "v0_p2wpkh",
      "scriptpubkey_address": "bc1qugep2n90knkwthtv3vqwlx2smsws26mgwcd6vw",
      "value": 13687
    },
    {
      "scriptpubkey": "001498d6e478cc4b1db9d9412973849659292059f0d0",
      "scriptpubkey_asm": "OP_0 OP_PUSHBYTES_20 98d6e478cc4b1db9d9412973849659292059f0d0",
      "scriptpubkey_type": "v0_p2wpkh",
      "scriptpubkey_address": "bc1qnrtwg7xvfvwmnk2p99ecf9je9ys9nuxsrnd4cv",
      "value": 103221
    }
  ],
  "size": 222,
  "weight": 561,
  "fee": 5710,
  "status": {
    "confirmed": true,
    "block_height": 834552,
    "block_hash": "00000000000000000001dd0468a70c94f619251d286585cff57aeb4bd9ede330",
    "block_time": 1710355598
  },
  "hex": "02000000000101dd3d5edf4b33255df629e703c3b35f1bea6b4df07f69a34e8ab4465485d2d91c0100000000fdffffff027735000000000000160014e232154cafb4ece5dd6c8b00ef9950dc1d056b68359301000000000016001498d6e478cc4b1db9d9412973849659292059f0d00247304402205aae421310b22c7fcdb2eea0bd396a1337e39b2149c10d87c5732a462679f8da02202c4ad422479da36ab2bb617935ca0babe16f50906ca7e27b112a89dfe70003e4012103ffedd487110864f00f926755645184ad8ccfdae9127a24eab787a0109010dc7d97bb0c00"
}