{
  "txid": "7d60d4e0f52d6bc73c1acaee6fe332f247f6e6adb84991a03122e3ac849c9250",
  "version": 2,
  "locktime": 0,
  "vin": [
    {
      "txid": "c38886544abd2740e56175dea4fc2b7c464168e03e354a2ea815613882eb13fc",
      "vout": 1,
      "prevout": {
        "scriptpubkey": "0014b2bd04c7749c35b9bf0564821b352bb24cbcfafb",
        "scriptpubkey_asm": "OP_0 OP_PUSHBYTES_20 b2bd04c7749c35b9bf0564821b352bb24cbcfafb",
        "scriptpubkey_type": "v0_p2wpkh",
        "scriptpubkey_address": "bc1qk27sf3m5ns6mn0c9vjppkdftkfxte7hm93yj4h",
        "value": 102473
      },
      "scriptsig": "",
      "scriptsig_asm": "",
      "witness": [
        "30440220146ac905689e369c6128e113b1d17cc9554bf42feacf520b1b1a36f19fbe9ce702207c847bc44537de25559cfe93bbacb8ce09a23c6792a8f42d97cb849c9434605101",
        "02b718044385e23482376dc45719923c77011953162c2696f9ceeda67b38a3dd69"
      ],
      "is_coinbase": false,
      "sequence": 4294967295
    }
  ],
  "vout": [
    {
      "scriptpubkey": "00145c811d026deb3d3bcbdf3cd632292e6798fc8e56",
      "scriptpubkey_asm": "OP_0 OP_PUSHBYTES_20 5c811d026deb3d3bcbdf3cd632292e6798fc8e56",
      "scriptpubkey_type": "v0_p2wpkh",
      "scriptpubkey_address": "bc1qtjq36qndav7nhj7l8ntry2fwv7v0erjkejymtz",
      "value": 100439
    }
  ],
  "size": 191,
  "weight": 437,
  "fee": 2034,
  "status": {
    "confirmed": true,
    "block_height": 834638,
    "block_hash": "000000000000000000025f742c626208ac87e0b7d15054abb4a19ca2d735a54e",
    "block_time": 1710405325
  },
  "hex": "02000000000101fc13eb82386115a82e4a353ee06841467c2bfca4de7561e54027bd4a548688c30100000000ffffffff0157880100000000001600145c811d026deb3d3bcbdf3cd632292e6798fc8e56024730440220146ac905689e369c6128e113b1d17cc9554bf42feacf520b1b1a36f19fbe9ce702207c847bc44537de25559cfe93bbacb8ce09a23c6792a8f42d97cb849c94346051012102b718044385e23482376dc45719923c77011953162c2696f9ceeda67b38a3dd6900000000"
}