{
  "txid": "7d6b291fa96e78287f9e664bd08ffb82e2c0e15275bfe4d54283bf5eed34d436",
  "version": 1,
  "locktime": 0,
  "vin": [
    {
      "txid": "36735dd8e3810e5fb5de57ba325f467e6613fd5adebbf858c62589ae90fda8bc",
      "vout": 1,
      "prevout": {
        "scriptpubkey": "a914ed3a684cdfb9409eb6998c8bcc67b8ec6858ce1787",
        "scriptpubkey_asm": "OP_HASH160 OP_PUSHBYTES_20 ed3a684cdfb9409eb6998c8bcc67b8ec6858ce17 OP_EQUAL",
        "scriptpubkey_type": "p2sh",
        "scriptpubkey_address": "3PKN3E64Vv79p4k4fXEmR9TXxxdqpuuehY",
        "value": 149346281
      },
      "scriptsig": "16001492ebc3b9fa0f65c21682c85796df53e0b7a730aa",
      "scriptsig_asm": "OP_PUSHBYTES_22 001492ebc3b9fa0f65c21682c85796df53e0b7a730aa",
      "witness": [
        "304402204b9acc0efbb9a1a27f2023c106f55ad3a6247379d4e6336bd38204aff65714a5022019cd2a4ede13bd8706e802720785b593a45146f15c0225a78839cb58392280aa01",
        "025574e114678c2772c1d6770fbc28f4d67c961c6e124aa6c983d89a0944acf9bd"
      ],
      "is_coinbase": false,
      "sequence": 0,
      "inner_redeemscript_asm": "OP_0 OP_PUSHBYTES_20 92ebc3b9fa0f65c21682c85796df53e0b7a730aa"
    }
  ],
  "vout": [
    {
      "scriptpubkey": "a91463210bb0f64fdb7718dfd091f0a543f110b9882e87",
      "scriptpubkey_asm": "OP_HASH160 OP_PUSHBYTES_20 63210bb0f64fdb7718dfd091f0a543f110b9882e OP_EQUAL",
      "scriptpubkey_type": "p2sh",
      "scriptpubkey_address": "3AjAQb5HkUD8D2avMAGU792BmXMzmpsDJZ",
      "value": 1745821
    },
    {
      "scriptpubkey": "a914887b6dda827a804ac452400d0fd8053ec64acc1787",
      "scriptpubkey_asm": "OP_HASH160 OP_PUSHBYTES_20 887b6dda827a804ac452400d0fd8053ec64acc17 OP_EQUAL",
      "scriptpubkey_type": "p2sh",
      "scriptpubkey_address": "3E8fgdxR5kzr8S9XNx9DK3b4TaaDcgz3KF",
      "value": 147597517
    }
  ],
  "size": 247,
  "weight": 661,
  "fee": 2943,
  "status": {
    "confirmed": true,
    "block_height": 834638,
    "block_hash": "000000000000000000025f742c626208ac87e0b7d15054abb4a19ca2d735a54e",
    "block_time": 1710405325
  },
  "hex": "01000000000101bca8fd90ae8925c658f8bbde5afd13667e465f32ba57deb55f0e81e3d85d7336010000001716001492ebc3b9fa0f65c21682c85796df53e0b7a730aa00000000029da31a000000000017a91463210bb0f64fdb7718dfd091f0a543f110b9882e87cd28cc080000000017a914887b6dda827a804ac452400d0fd8053ec64acc17870247304402204b9acc0efbb9a1a27f2023c106f55ad3a6247379d4e6336bd38204aff65714a5022019cd2a4ede13bd8706e802720785b593a45146f15c0225a78839cb58392280aa0121025574e114678c2772c1d6770fbc28f4d67c961c6e124aa6c983d89a0944acf9bd00000000"
}