{
  "txid": "7d73dbd506c024176c76d51bec6e89ae2d504f628412b53952df4298fb115081",
  "version": 2,
  "locktime": 834637,
  "vin": [
    {
      "txid": "7a5f0449f9da7818f6de5f8323a3b41cc74e9114fa525c14aaaf4f6eafeb5c17",
      "vout": 0,
      "prevout": {
        "scriptpubkey": "0014938ba0e5469838fce8d21ca33e069141cb0a211a",
        "scriptpubkey_asm": "OP_0 OP_PUSHBYTES_20 938ba0e5469838fce8d21ca33e069141cb0a211a",
        "scriptpubkey_type": "v0_p2wpkh",
        "scriptpubkey_address": "bc1qjw96pe2xnqu0e6xjrj3nup53g89s5gg60c6g8y",
        "value": 3150707
      },
      "scriptsig": "",
      "scriptsig_asm": "",
      "witness": [
        "3044022058d4053b2089203af6a40ae3f8d231d98c5fa6d1827148fda74ecfc1f4d39043022016641fc99f6d4f80ba12952cc9fc0fcb3ea9a7573cde03d55cd9aa3a6b09028e01",
        "0329686d2f1c74c46164202aad0974365a0b25d28e0389d039180744538d2f9fa3"
      ],
      "is_coinbase": false,
      "sequence": 4294967294
    }
  ],
  "vout": [
    {
      "scriptpubkey": "a914e520a50dbaf991653eae243afecd40c7970d0a6787",
      "scriptpubkey_asm": "OP_HASH160 OP_PUSHBYTES_20 e520a50dbaf991653eae243afecd40c7970d0a67 OP_EQUAL",
      "scriptpubkey_type": "p2sh",
      "scriptpubkey_address": "3NaXmfmgeonR7beV8zj8P78Eehj2xC6tfg",
      "value": 3033985
    },
    {
      "scriptpubkey": "a9145c9f185a95d537271c904bba263ece3b606306fe87",
      "scriptpubkey_asm": "OP_HASH160 OP_PUSHBYTES_20 5c9f185a95d537271c904bba263ece3b606306fe OP_EQUAL",
      "scriptpubkey_type": "p2sh",
      "scriptpubkey_address": "3A8kgKGNZYiBWvxrD7weT2uCwCTJGp63yk",
      "value": 114444
    }
  ],
  "size": 224,
  "weight": 569,
  "fee": 2278,
  "status": {
    "confirmed": true,
    "block_height": 834638,
    "block_hash": "000000000000000000025f742c626208ac87e0b7d15054abb4a19ca2d735a54e",
    "block_time": 1710405325
  },
  "hex": "02000000000101175cebaf6e4fafaa145c52fa14914ec71cb4a323835fdef61878daf949045f7a0000000000feffffff02814b2e000000000017a914e520a50dbaf991653eae243afecd40c7970d0a67870cbf01000000000017a9145c9f185a95d537271c904bba263ece3b606306fe8702473044022058d4053b2089203af6a40ae3f8d231d98c5fa6d1827148fda74ecfc1f4d39043022016641fc99f6d4f80ba12952cc9fc0fcb3ea9a7573cde03d55cd9aa3a6b09028e01210329686d2f1c74c46164202aad0974365a0b25d28e0389d039180744538d2f9fa34dbc0c00"
}