{
  "txid": "7d7be68058fb28b05626b6ac91b5c40e12f7fb36ebce6ce5fc3fd787f97e8fed",
  "version": 2,
  "locktime": 834637,
  "vin": [
    {
      "txid": "08ffd756125744c58a0f4ce68c4bb13234a22863905753848cdbc3a003d37337",
      "vout": 0,
      "prevout": {
        "scriptpubkey": "0014ee99b53209ce2e91e51c839614d32fb29a8f67e8",
        "scriptpubkey_asm": "OP_0 OP_PUSHBYTES_20 ee99b53209ce2e91e51c839614d32fb29a8f67e8",
        "scriptpubkey_type": "v0_p2wpkh",
        "scriptpubkey_address": "bc1qa6vm2vsfechfreguswtpf5e0k2dg7elgsqhsqk",
        "value": 311755
      },
      "scriptsig": "",
      "scriptsig_asm": "",
      "witness": [
        "304402200a192b73c1419f316e63a127b3448103e79fcc229549bdaa71e8d200e79105060220055c9fb351a524acd8f1bbc13d3181dc63feb254bd4f0ae1bb906ba33696b70601",
        "03ac10e4374b998934b2bebb04cb4fd5004e589fa5cbed7b7eb9020ef4416d0824"
      ],
      "is_coinbase": false,
      "sequence": 4294967293
    }
  ],
  "vout": [
    {
      "scriptpubkey": "0014b3c9cdb4297edb6ff5d881fee0520a6cc97625dc",
      "scriptpubkey_asm": "OP_0 OP_PUSHBYTES_20 b3c9cdb4297edb6ff5d881fee0520a6cc97625dc",
      "scriptpubkey_type": "v0_p2wpkh",
      "scriptpubkey_address": "bc1qk0yumdpf0mdklawcs8lwq5s2dnyhvfwu6jsrpa",
      "value": 47587
    },
    {
      "scriptpubkey": "00147039ed6e31d9f281f8ef802a6b499e4710a7bf5b",
      "scriptpubkey_asm": "OP_0 OP_PUSHBYTES_20 7039ed6e31d9f281f8ef802a6b499e4710a7bf5b",
      "scriptpubkey_type": "v0_p2wpkh",
      "scriptpubkey_address": "bc1qwqu76m33m8egr780sq4xkjv7gug2006myg9d73",
      "value": 258458
    }
  ],
  "size": 222,
  "weight": 561,
  "fee": 5710,
  "status": {
    "confirmed": true,
    "block_height": 834638,
    "block_hash": "000000000000000000025f742c626208ac87e0b7d15054abb4a19ca2d735a54e",
    "block_time": 1710405325
  },
  "hex": "020000000001013773d303a0c3db8c845357906328a23432b14b8ce64c0f8ac544571256d7ff080000000000fdffffff02e3b9000000000000160014b3c9cdb4297edb6ff5d881fee0520a6cc97625dc9af10300000000001600147039ed6e31d9f281f8ef802a6b499e4710a7bf5b0247304402200a192b73c1419f316e63a127b3448103e79fcc229549bdaa71e8d200e79105060220055c9fb351a524acd8f1bbc13d3181dc63feb254bd4f0ae1bb906ba33696b706012103ac10e4374b998934b2bebb04cb4fd5004e589fa5cbed7b7eb9020ef4416d08244dbc0c00"
}