{
  "txid": "7d817d4066a14b7bcfbf6d826c30ef103dc9af9a8c07b79fed38e47cd258411d",
  "version": 1,
  "locktime": 0,
  "vin": [
    {
      "txid": "124012f9ace406154a2490fa2aed0245aafaceda8d3d170f395edc1894d397a0",
      "vout": 0,
      "prevout": {
        "scriptpubkey": "51208cc96bb287ece57abc49200bba37c2504992d7e036b232b0529ac793cc7d6af5",
        "scriptpubkey_asm": "OP_PUSHNUM_1 OP_PUSHBYTES_32 8cc96bb287ece57abc49200bba37c2504992d7e036b232b0529ac793cc7d6af5",
        "scriptpubkey_type": "v1_p2tr",
        "scriptpubkey_address": "bc1p3nykhv58anjh40zfyq9m5d7z2pye94lqx6er9vzjntre8nradt6sldcewg",
        "value": 2463
      },
      "scriptsig": "",
      "scriptsig_asm": "",
      "witness": [
        "23398feed2c81a6b69e3b6eb6ead0bd07cf0f8fa62d7f47f2af15de89c7fb5fcf5730dd667867c9b370f59197c40fb787228acf8479ca284413229423243b4e983",
        "20be11f1d0580232188e877ef283eb5a1efd4e9e5290a2633605d666f59ad3fff2ac00630461746f6d03646d743ba16461726773a468626974776f726b6364313234306b6d696e745f7469636b657264766d7078656e6f6e63651a00782d0d6474696d651a65eadf8068",
        "c1be11f1d0580232188e877ef283eb5a1efd4e9e5290a2633605d666f59ad3fff2"
      ],
      "is_coinbase": false,
      "sequence": 4294967293
    }
  ],
  "vout": [
    {
      "scriptpubkey": "0014027bc455b49578636e080eabed6048b02ab3985f",
      "scriptpubkey_asm": "OP_0 OP_PUSHBYTES_20 027bc455b49578636e080eabed6048b02ab3985f",
      "scriptpubkey_type": "v0_p2wpkh",
      "scriptpubkey_address": "bc1qqfaug4d5j4uxxmsgp6476czgkq4t8xzl6u3zjv",
      "value": 1000
    }
  ],
  "size": 292,
  "weight": 538,
  "fee": 1463,
  "status": {
    "confirmed": true,
    "block_height": 834464,
    "block_hash": "0000000000000000000177a0869a911a2b65c9bdcd5a8bcb02b68f305bee848e",
    "block_time": 1710308296
  },
  "hex": "01000000000101a097d39418dc5e390f173d8ddacefaaa4502ed2afa90244a1506e4acf91240120000000000fdffffff01e803000000000000160014027bc455b49578636e080eabed6048b02ab3985f034123398feed2c81a6b69e3b6eb6ead0bd07cf0f8fa62d7f47f2af15de89c7fb5fcf5730dd667867c9b370f59197c40fb787228acf8479ca284413229423243b4e9836a20be11f1d0580232188e877ef283eb5a1efd4e9e5290a2633605d666f59ad3fff2ac00630461746f6d03646d743ba16461726773a468626974776f726b6364313234306b6d696e745f7469636b657264766d7078656e6f6e63651a00782d0d6474696d651a65eadf806821c1be11f1d0580232188e877ef283eb5a1efd4e9e5290a2633605d666f59ad3fff200000000"
}