{
  "txid": "7da160b6732f7dc4d06b91fe1ed58432cee4c2806889a68921692ec9d609cd89",
  "version": 2,
  "locktime": 0,
  "vin": [
    {
      "txid": "b13bb5512a4904c28a6b7957b88edf574e8cb23551fc1dcfe22d6b239df42cf4",
      "vout": 84,
      "prevout": {
        "scriptpubkey": "5120901ee8e74b4d4c5c2bb950a46b69436740ca5f0cc9674f5a5777dc135866f547",
        "scriptpubkey_asm": "OP_PUSHNUM_1 OP_PUSHBYTES_32 901ee8e74b4d4c5c2bb950a46b69436740ca5f0cc9674f5a5777dc135866f547",
        "scriptpubkey_type": "v1_p2tr",
        "scriptpubkey_address": "bc1pjq0w3e6tf4x9c2ae2zjxk62rvaqv5hcve9n57kjhwlwpxkrx74rs2kjjrn",
        "value": 2575
      },
      "scriptsig": "",
      "scriptsig_asm": "",
      "witness": [
        "ea87a21e1af61674b0744cc3980f657d592d2735edd5647c0f167d2f7c03e3f5c22b1e6789c8a1495fe52f9218ba1988158a5cc6cf67af71d4287ec733dcdc5d",
        "20e8378a19670b64c7ccb6ddf075df90297b407d6aaf961c7817cbdf4396af831aac0063036f726401010a746578742f706c61696e00367b2270223a226272632d3230222c226f70223a226d696e74222c227469636b223a2261616161222c22616d74223a223130303030227d68",
        "c0e8378a19670b64c7ccb6ddf075df90297b407d6aaf961c7817cbdf4396af831a"
      ],
      "is_coinbase": false,
      "sequence": 4261412863
    }
  ],
  "vout": [
    {
      "scriptpubkey": "0014ce0b5aa0dac72397a8aa5a85d90a2cfb46f0f630",
      "scriptpubkey_asm": "OP_0 OP_PUSHBYTES_20 ce0b5aa0dac72397a8aa5a85d90a2cfb46f0f630",
      "scriptpubkey_type": "v0_p2wpkh",
      "scriptpubkey_address": "bc1qec944gx6cu3e0292t2zajz3vldr0pa3sh356d9",
      "value": 546
    }
  ],
  "size": 295,
  "weight": 541,
  "fee": 2029,
  "status": {
    "confirmed": true,
    "block_height": 834464,
    "block_hash": "0000000000000000000177a0869a911a2b65c9bdcd5a8bcb02b68f305bee848e",
    "block_time": 1710308296
  },
  "hex": "02000000000101f42cf49d236b2de2cf1dfc5135b28c4e57df8eb857796b8ac204492a51b53bb15400000000fffffffd012202000000000000160014ce0b5aa0dac72397a8aa5a85d90a2cfb46f0f6300340ea87a21e1af61674b0744cc3980f657d592d2735edd5647c0f167d2f7c03e3f5c22b1e6789c8a1495fe52f9218ba1988158a5cc6cf67af71d4287ec733dcdc5d6e20e8378a19670b64c7ccb6ddf075df90297b407d6aaf961c7817cbdf4396af831aac0063036f726401010a746578742f706c61696e00367b2270223a226272632d3230222c226f70223a226d696e74222c227469636b223a2261616161222c22616d74223a223130303030227d6821c0e8378a19670b64c7ccb6ddf075df90297b407d6aaf961c7817cbdf4396af831a00000000"
}