{
  "txid": "7da86d47dc6df84f35e7ff46f4aec205349be5634a95d4e3f2546ae17c22df2f",
  "version": 2,
  "locktime": 0,
  "vin": [
    {
      "txid": "18fa24540b52ada8c993be31a83131d614fe33de8893732931e2504842de8b16",
      "vout": 3,
      "prevout": {
        "scriptpubkey": "512064c54a42bbff391247de58c0dc5c2485ac5e1b8e305c7c92051056f462d859e1",
        "scriptpubkey_asm": "OP_PUSHNUM_1 OP_PUSHBYTES_32 64c54a42bbff391247de58c0dc5c2485ac5e1b8e305c7c92051056f462d859e1",
        "scriptpubkey_type": "v1_p2tr",
        "scriptpubkey_address": "bc1pvnz55s4mluu3y377trqdchpyskk9uxuwxpw8eys9zpt0gckct8ss40q6p2",
        "value": 600
      },
      "scriptsig": "",
      "scriptsig_asm": "",
      "witness": [
        "ace4e26d5968c73c6000bbce39b1717bf5e6bcee7ee8b2f73465e02886f2c8114135438ae45d26f9c1a73fac9777a2844d30b2630a376d15d0630ba38f03edb5"
      ],
      "is_coinbase": false,
      "sequence": 4294967295
    },
    {
      "txid": "18fa24540b52ada8c993be31a83131d614fe33de8893732931e2504842de8b16",
      "vout": 4,
      "prevout": {
        "scriptpubkey": "512064c54a42bbff391247de58c0dc5c2485ac5e1b8e305c7c92051056f462d859e1",
        "scriptpubkey_asm": "OP_PUSHNUM_1 OP_PUSHBYTES_32 64c54a42bbff391247de58c0dc5c2485ac5e1b8e305c7c92051056f462d859e1",
        "scriptpubkey_type": "v1_p2tr",
        "scriptpubkey_address": "bc1pvnz55s4mluu3y377trqdchpyskk9uxuwxpw8eys9zpt0gckct8ss40q6p2",
        "value": 600
      },
      "scriptsig": "",
      "scriptsig_asm": "",
      "witness": [
        "a4f4cbfaf54c13f5185127b4f9a58381e95194e7fb12a38b553294b765dfd3155ea8204657405842b13baca84dd06936165a833eef004c23e822f72121079407"
      ],
      "is_coinbase": false,
      "sequence": 4294967295
    },
    {
      "txid": "3d6d93c67f9134983bda9afa8530f8601a92d7836f4419c9f59e6d82eb5977ad",
      "vout": 0,
      "prevout": {
        "scriptpubkey": "5120a53027ef7ff1bcd36f13d25e448ff789d39b7d49e75676c905ce041222bc45c4",
        "scriptpubkey_asm": "OP_PUSHNUM_1 OP_PUSHBYTES_32 a53027ef7ff1bcd36f13d25e448ff789d39b7d49e75676c905ce041222bc45c4",
        "scriptpubkey_type": "v1_p2tr",
        "scriptpubkey_address": "bc1p55cz0mml7x7dxmcn6f0yfrlh38fekl2fuat8djg9eczpyg4ughzq2u8ksu",
        "value": 546
      },
      "scriptsig": "",
      "scriptsig_asm": "",
      "witness": [
        "e2401b2a1cb664010280a517f91f5be4092121697559002ddaddddb2ffbd9404c8d17f8e6a8a8348a3c11e88be1a6496a66ecaffb58bc0003696dade9a758b8c83"
      ],
      "is_coinbase": false,
      "sequence": 4294967295
    },
    {
      "txid": "18fa24540b52ada8c993be31a83131d614fe33de8893732931e2504842de8b16",
      "vout": 5,
      "prevout": {
        "scriptpubkey": "512064c54a42bbff391247de58c0dc5c2485ac5e1b8e305c7c92051056f462d859e1",
        "scriptpubkey_asm": "OP_PUSHNUM_1 OP_PUSHBYTES_32 64c54a42bbff391247de58c0dc5c2485ac5e1b8e305c7c92051056f462d859e1",
        "scriptpubkey_type": "v1_p2tr",
        "scriptpubkey_address": "bc1pvnz55s4mluu3y377trqdchpyskk9uxuwxpw8eys9zpt0gckct8ss40q6p2",
        "value": 158396
      },
      "scriptsig": "",
      "scriptsig_asm": "",
      "witness": [
        "b154973de2e7eeea797d87cf710108037cfdd23ccc0a4b08b072da29d12b05a21e36e6f2068294da49e55c0626756bc52d02ace9f7be363e15c950137ab6fcfe"
      ],
      "is_coinbase": false,
      "sequence": 4294967295
    }
  ],
  "vout": [
    {
      "scriptpubkey": "512064c54a42bbff391247de58c0dc5c2485ac5e1b8e305c7c92051056f462d859e1",
      "scriptpubkey_asm": "OP_PUSHNUM_1 OP_PUSHBYTES_32 64c54a42bbff391247de58c0dc5c2485ac5e1b8e305c7c92051056f462d859e1",
      "scriptpubkey_type": "v1_p2tr",
      "scriptpubkey_address": "bc1pvnz55s4mluu3y377trqdchpyskk9uxuwxpw8eys9zpt0gckct8ss40q6p2",
      "value": 1200
    },
    {
      "scriptpubkey": "512064c54a42bbff391247de58c0dc5c2485ac5e1b8e305c7c92051056f462d859e1",
      "scriptpubkey_asm": "OP_PUSHNUM_1 OP_PUSHBYTES_32 64c54a42bbff391247de58c0dc5c2485ac5e1b8e305c7c92051056f462d859e1",
      "scriptpubkey_type": "v1_p2tr",
      "scriptpubkey_address": "bc1pvnz55s4mluu3y377trqdchpyskk9uxuwxpw8eys9zpt0gckct8ss40q6p2",
      "value": 546
    },
    {
      "scriptpubkey": "5120a53027ef7ff1bcd36f13d25e448ff789d39b7d49e75676c905ce041222bc45c4",
      "scriptpubkey_asm": "OP_PUSHNUM_1 OP_PUSHBYTES_32 a53027ef7ff1bcd36f13d25e448ff789d39b7d49e75676c905ce041222bc45c4",
      "scriptpubkey_type": "v1_p2tr",
      "scriptpubkey_address": "bc1p55cz0mml7x7dxmcn6f0yfrlh38fekl2fuat8djg9eczpyg4ughzq2u8ksu",
      "value": 120000
    },
    {
      "scriptpubkey": "512064c54a42bbff391247de58c0dc5c2485ac5e1b8e305c7c92051056f462d859e1",
      "scriptpubkey_asm": "OP_PUSHNUM_1 OP_PUSHBYTES_32 64c54a42bbff391247de58c0dc5c2485ac5e1b8e305c7c92051056f462d859e1",
      "scriptpubkey_type": "v1_p2tr",
      "scriptpubkey_address": "bc1pvnz55s4mluu3y377trqdchpyskk9uxuwxpw8eys9zpt0gckct8ss40q6p2",
      "value": 600
    },
    {
      "scriptpubkey": "512064c54a42bbff391247de58c0dc5c2485ac5e1b8e305c7c92051056f462d859e1",
      "scriptpubkey_asm": "OP_PUSHNUM_1 OP_PUSHBYTES_32 64c54a42bbff391247de58c0dc5c2485ac5e1b8e305c7c92051056f462d859e1",
      "scriptpubkey_type": "v1_p2tr",
      "scriptpubkey_address": "bc1pvnz55s4mluu3y377trqdchpyskk9uxuwxpw8eys9zpt0gckct8ss40q6p2",
      "value": 600
    },
    {
      "scriptpubkey": "512064c54a42bbff391247de58c0dc5c2485ac5e1b8e305c7c92051056f462d859e1",
      "scriptpubkey_asm": "OP_PUSHNUM_1 OP_PUSHBYTES_32 64c54a42bbff391247de58c0dc5c2485ac5e1b8e305c7c92051056f462d859e1",
      "scriptpubkey_type": "v1_p2tr",
      "scriptpubkey_address": "bc1pvnz55s4mluu3y377trqdchpyskk9uxuwxpw8eys9zpt0gckct8ss40q6p2",
      "value": 28713
    }
  ],
  "size": 699,
  "weight": 1995,
  "fee": 8483,
  "status": {
    "confirmed": true,
    "block_height": 834638,
    "block_hash": "000000000000000000025f742c626208ac87e0b7d15054abb4a19ca2d735a54e",
    "block_time": 1710405325
  },
  "hex": "02000000000104168bde424850e23129739388de33fe14d63131a831be93c9a8ad520b5424fa180300000000ffffffff168bde424850e23129739388de33fe14d63131a831be93c9a8ad520b5424fa180400000000ffffffffad7759eb826d9ef5c919446f83d7921a60f83085fa9ada3b9834917fc6936d3d0000000000ffffffff168bde424850e23129739388de33fe14d63131a831be93c9a8ad520b5424fa180500000000ffffffff06b00400000000000022512064c54a42bbff391247de58c0dc5c2485ac5e1b8e305c7c92051056f462d859e1220200000000000022512064c54a42bbff391247de58c0dc5c2485ac5e1b8e305c7c92051056f462d859e1c0d4010000000000225120a53027ef7ff1bcd36f13d25e448ff789d39b7d49e75676c905ce041222bc45c4580200000000000022512064c54a42bbff391247de58c0dc5c2485ac5e1b8e305c7c92051056f462d859e1580200000000000022512064c54a42bbff391247de58c0dc5c2485ac5e1b8e305c7c92051056f462d859e1297000000000000022512064c54a42bbff391247de58c0dc5c2485ac5e1b8e305c7c92051056f462d859e10140ace4e26d5968c73c6000bbce39b1717bf5e6bcee7ee8b2f73465e02886f2c8114135438ae45d26f9c1a73fac9777a2844d30b2630a376d15d0630ba38f03edb50140a4f4cbfaf54c13f5185127b4f9a58381e95194e7fb12a38b553294b765dfd3155ea8204657405842b13baca84dd06936165a833eef004c23e822f721210794070141e2401b2a1cb664010280a517f91f5be4092121697559002ddaddddb2ffbd9404c8d17f8e6a8a8348a3c11e88be1a6496a66ecaffb58bc0003696dade9a758b8c830140b154973de2e7eeea797d87cf710108037cfdd23ccc0a4b08b072da29d12b05a21e36e6f2068294da49e55c0626756bc52d02ace9f7be363e15c950137ab6fcfe00000000"
}