{
  "txid": "7dad48614024ba1e2becdcef5017e14c02b77eba6d1853b2387655853abcd728",
  "version": 2,
  "locktime": 0,
  "vin": [
    {
      "txid": "621e415b6cb6e207cecde6c8125e9f209cede18e40aa241da392ae315d40db51",
      "vout": 10,
      "prevout": {
        "scriptpubkey": "001420b60eab7b9b6c605edcb5d3716e000c669b4aa7",
        "scriptpubkey_asm": "OP_0 OP_PUSHBYTES_20 20b60eab7b9b6c605edcb5d3716e000c669b4aa7",
        "scriptpubkey_type": "v0_p2wpkh",
        "scriptpubkey_address": "bc1qyzmqa2mmndkxqhkukhfhzmsqp3nfkj48vf9p4q",
        "value": 147000
      },
      "scriptsig": "",
      "scriptsig_asm": "",
      "witness": [
        "304402202a9a2e2df2d3d2425103fd0c811a8167268e2286922c5fb223d4bd5b5b541655022066eb285d020cfad7f930630b191296a18fe646c97da9ae756810ded85c1aa1f701",
        "029edf4806cdc65a9f99fff104907fc6ef69653c42ba3af72fe4deb0de0dd1ce72"
      ],
      "is_coinbase": false,
      "sequence": 4294967295
    }
  ],
  "vout": [
    {
      "scriptpubkey": "00141b75a9175685fccbad667d15a662204f8a392408",
      "scriptpubkey_asm": "OP_0 OP_PUSHBYTES_20 1b75a9175685fccbad667d15a662204f8a392408",
      "scriptpubkey_type": "v0_p2wpkh",
      "scriptpubkey_address": "bc1qrd66j96ksh7vhttx0526vc3qf79rjfqgjeep9z",
      "value": 143058
    }
  ],
  "size": 191,
  "weight": 437,
  "fee": 3942,
  "status": {
    "confirmed": true,
    "block_height": 834638,
    "block_hash": "000000000000000000025f742c626208ac87e0b7d15054abb4a19ca2d735a54e",
    "block_time": 1710405325
  },
  "hex": "0200000000010151db405d31ae92a31d24aa408ee1ed9c209f5e12c8e6cdce07e2b66c5b411e620a00000000ffffffff01d22e0200000000001600141b75a9175685fccbad667d15a662204f8a3924080247304402202a9a2e2df2d3d2425103fd0c811a8167268e2286922c5fb223d4bd5b5b541655022066eb285d020cfad7f930630b191296a18fe646c97da9ae756810ded85c1aa1f70121029edf4806cdc65a9f99fff104907fc6ef69653c42ba3af72fe4deb0de0dd1ce7200000000"
}