{
  "txid": "7db930cf1a40d5f75ab55727271356ee2907d891bee0c29283cbb0646489efbf",
  "version": 2,
  "locktime": 0,
  "vin": [
    {
      "txid": "7cdf9102b615c7af4e32446d39d7ce00fa28a7be7223c801a9d13ca426d98451",
      "vout": 0,
      "prevout": {
        "scriptpubkey": "51205e983d63de099b223834f26238a1dbe5a3f08d12a4e57c6ac45531e50a0ab530",
        "scriptpubkey_asm": "OP_PUSHNUM_1 OP_PUSHBYTES_32 5e983d63de099b223834f26238a1dbe5a3f08d12a4e57c6ac45531e50a0ab530",
        "scriptpubkey_type": "v1_p2tr",
        "scriptpubkey_address": "bc1pt6vr6c77pxdjywp57f3r3gwmuk3lprgj5njhc6ky25c72zs2k5cqetc6sl",
        "value": 20294
      },
      "scriptsig": "",
      "scriptsig_asm": "",
      "witness": [
        "b8896838cc23fd5c0311db13c9b700ad5e009368d365bcccd160cff19a666b7b7f99bf2597f7b4cd08deba322facbf213474be3b2c9ba4518b4e6e304b81ccf6",
        "204e900291d7c01b33efaf7b6aa6183530693b7a16cf2b307d03e285008696f0f9ac0063036f726401010a746578742f706c61696e004c9c7b2270223a22746170222c226f70223a22646d742d6d696e74222c22646570223a22313334353161626334663865306339633735623266646439393235343332653063613236663064366331396661663638386339343164636162663765633239366930222c227469636b223a22544150415254203130333835372e6269746d6170203132343730323636222c22626c6b223a22383334343537227d680063036f726401010a746578742f706c61696e0102024a01004c9c7b2270223a22746170222c226f70223a22646d742d6d696e74222c22646570223a22313334353161626334663865306339633735623266646439393235343332653063613236663064366331396661663638386339343164636162663765633239366930222c227469636b223a22544150415254203130333835372e6269746d6170203132343730323636222c22626c6b223a22383334343536227d680063036f726401010a746578742f706c61696e0102029402004c9c7b2270223a22746170222c226f70223a22646d742d6d696e74222c22646570223a22313334353161626334663865306339633735623266646439393235343332653063613236663064366331396661663638386339343164636162663765633239366930222c227469636b223a22544150415254203130333835372e6269746d6170203132343730323636222c22626c6b223a22383334343531227d680063036f726401010a746578742f706c61696e010202de03004c9c7b2270223a22746170222c226f70223a22646d742d6d696e74222c22646570223a22313334353161626334663865306339633735623266646439393235343332653063613236663064366331396661663638386339343164636162663765633239366930222c227469636b223a22544150415254203130333835372e6269746d6170203132343730323636222c22626c6b223a22383334343538227d680063036f726401010a746578742f706c61696e0102022805004c9c7b2270223a22746170222c226f70223a22646d742d6d696e74222c22646570223a22313334353161626334663865306339633735623266646439393235343332653063613236663064366331396661663638386339343164636162663765633239366930222c227469636b223a22544150415254203130333835372e6269746d6170203132343730323636222c22626c6b223a22383334343533227d680063036f726401010a746578742f706c61696e0102027206004c9c7b2270223a22746170222c226f70223a22646d742d6d696e74222c22646570223a22313334353161626334663865306339633735623266646439393235343332653063613236663064366331396661663638386339343164636162663765633239366930222c227469636b223a22544150415254203130333835372e6269746d6170203132343730323636222c22626c6b223a22383334343530227d680063036f726401010a746578742f706c61696e010202bc07004c9c7b2270223a22746170222c226f70223a22646d742d6d696e74222c22646570223a22313334353161626334663865306339633735623266646439393235343332653063613236663064366331396661663638386339343164636162663765633239366930222c227469636b223a22544150415254203130333835372e6269746d6170203132343730323636222c22626c6b223a22383334343532227d680063036f726401010a746578742f706c61696e0102020609004c9c7b2270223a22746170222c226f70223a22646d742d6d696e74222c22646570223a22313334353161626334663865306339633735623266646439393235343332653063613236663064366331396661663638386339343164636162663765633239366930222c227469636b223a22544150415254203130333835372e6269746d6170203132343730323636222c22626c6b223a22383334343535227d680063036f726401010a746578742f706c61696e010202500a004c9c7b2270223a22746170222c226f70223a22646d742d6d696e74222c22646570223a22313334353161626334663865306339633735623266646439393235343332653063613236663064366331396661663638386339343164636162663765633239366930222c227469636b223a22544150415254203130333835372e6269746d6170203132343730323636222c22626c6b223a22383334343534227d680063036f726401010a746578742f706c61696e0102029a0b004c9c7b2270223a22746170222c226f70223a22646d742d6d696e74222c22646570223a22313334353161626334663865306339633735623266646439393235343332653063613236663064366331396661663638386339343164636162663765633239366930222c227469636b223a22544150415254203130333835372e6269746d6170203132343730323636222c22626c6b223a22383334343539227d68",
        "c04e900291d7c01b33efaf7b6aa6183530693b7a16cf2b307d03e285008696f0f9"
      ],
      "is_coinbase": false,
      "sequence": 4294967293
    }
  ],
  "vout": [
    {
      "scriptpubkey": "001424f1264e3dc9c59f3522f37b61da6df1de9839cc",
      "scriptpubkey_asm": "OP_0 OP_PUSHBYTES_20 24f1264e3dc9c59f3522f37b61da6df1de9839cc",
      "scriptpubkey_type": "v0_p2wpkh",
      "scriptpubkey_address": "bc1qyncjvn3ae8ze7dfz7dakrknd780fswwv5x8dxg",
      "value": 330
    },
    {
      "scriptpubkey": "001424f1264e3dc9c59f3522f37b61da6df1de9839cc",
      "scriptpubkey_asm": "OP_0 OP_PUSHBYTES_20 24f1264e3dc9c59f3522f37b61da6df1de9839cc",
      "scriptpubkey_type": "v0_p2wpkh",
      "scriptpubkey_address": "bc1qyncjvn3ae8ze7dfz7dakrknd780fswwv5x8dxg",
      "value": 330
    },
    {
      "scriptpubkey": "001424f1264e3dc9c59f3522f37b61da6df1de9839cc",
      "scriptpubkey_asm": "OP_0 OP_PUSHBYTES_20 24f1264e3dc9c59f3522f37b61da6df1de9839cc",
      "scriptpubkey_type": "v0_p2wpkh",
      "scriptpubkey_address": "bc1qyncjvn3ae8ze7dfz7dakrknd780fswwv5x8dxg",
      "value": 330
    },
    {
      "scriptpubkey": "001424f1264e3dc9c59f3522f37b61da6df1de9839cc",
      "scriptpubkey_asm": "OP_0 OP_PUSHBYTES_20 24f1264e3dc9c59f3522f37b61da6df1de9839cc",
      "scriptpubkey_type": "v0_p2wpkh",
      "scriptpubkey_address": "bc1qyncjvn3ae8ze7dfz7dakrknd780fswwv5x8dxg",
      "value": 330
    },
    {
      "scriptpubkey": "001424f1264e3dc9c59f3522f37b61da6df1de9839cc",
      "scriptpubkey_asm": "OP_0 OP_PUSHBYTES_20 24f1264e3dc9c59f3522f37b61da6df1de9839cc",
      "scriptpubkey_type": "v0_p2wpkh",
      "scriptpubkey_address": "bc1qyncjvn3ae8ze7dfz7dakrknd780fswwv5x8dxg",
      "value": 330
    },
    {
      "scriptpubkey": "001424f1264e3dc9c59f3522f37b61da6df1de9839cc",
      "scriptpubkey_asm": "OP_0 OP_PUSHBYTES_20 24f1264e3dc9c59f3522f37b61da6df1de9839cc",
      "scriptpubkey_type": "v0_p2wpkh",
      "scriptpubkey_address": "bc1qyncjvn3ae8ze7dfz7dakrknd780fswwv5x8dxg",
      "value": 330
    },
    {
      "scriptpubkey": "001424f1264e3dc9c59f3522f37b61da6df1de9839cc",
      "scriptpubkey_asm": "OP_0 OP_PUSHBYTES_20 24f1264e3dc9c59f3522f37b61da6df1de9839cc",
      "scriptpubkey_type": "v0_p2wpkh",
      "scriptpubkey_address": "bc1qyncjvn3ae8ze7dfz7dakrknd780fswwv5x8dxg",
      "value": 330
    },
    {
      "scriptpubkey": "001424f1264e3dc9c59f3522f37b61da6df1de9839cc",
      "scriptpubkey_asm": "OP_0 OP_PUSHBYTES_20 24f1264e3dc9c59f3522f37b61da6df1de9839cc",
      "scriptpubkey_type": "v0_p2wpkh",
      "scriptpubkey_address": "bc1qyncjvn3ae8ze7dfz7dakrknd780fswwv5x8dxg",
      "value": 330
    },
    {
      "scriptpubkey": "001424f1264e3dc9c59f3522f37b61da6df1de9839cc",
      "scriptpubkey_asm": "OP_0 OP_PUSHBYTES_20 24f1264e3dc9c59f3522f37b61da6df1de9839cc",
      "scriptpubkey_type": "v0_p2wpkh",
      "scriptpubkey_address": "bc1qyncjvn3ae8ze7dfz7dakrknd780fswwv5x8dxg",
      "value": 330
    },
    {
      "scriptpubkey": "001424f1264e3dc9c59f3522f37b61da6df1de9839cc",
      "scriptpubkey_asm": "OP_0 OP_PUSHBYTES_20 24f1264e3dc9c59f3522f37b61da6df1de9839cc",
      "scriptpubkey_type": "v0_p2wpkh",
      "scriptpubkey_address": "bc1qyncjvn3ae8ze7dfz7dakrknd780fswwv5x8dxg",
      "value": 330
    },
    {
      "scriptpubkey": "0014641575c29c7eecfd7499c363b3d030a3a99df0cb",
      "scriptpubkey_asm": "OP_0 OP_PUSHBYTES_20 641575c29c7eecfd7499c363b3d030a3a99df0cb",
      "scriptpubkey_type": "v0_p2wpkh",
      "scriptpubkey_address": "bc1qvs2hts5u0mk06ayecd3m85ps5w5emuxtlxeg9x",
      "value": 3704
    }
  ],
  "size": 2366,
  "weight": 3542,
  "fee": 13290,
  "status": {
    "confirmed": true,
    "block_height": 834460,
    "block_hash": "00000000000000000000484a79b643b2524bbce82e5d8a442013fa5b8905ed98",
    "block_time": 1710307468
  },
  "hex": "020000000001015184d926a43cd1a901c82372bea728fa00ced7396d44324eafc715b60291df7c0000000000fdffffff0b4a0100000000000016001424f1264e3dc9c59f3522f37b61da6df1de9839cc4a0100000000000016001424f1264e3dc9c59f3522f37b61da6df1de9839cc4a0100000000000016001424f1264e3dc9c59f3522f37b61da6df1de9839cc4a0100000000000016001424f1264e3dc9c59f3522f37b61da6df1de9839cc4a0100000000000016001424f1264e3dc9c59f3522f37b61da6df1de9839cc4a0100000000000016001424f1264e3dc9c59f3522f37b61da6df1de9839cc4a0100000000000016001424f1264e3dc9c59f3522f37b61da6df1de9839cc4a0100000000000016001424f1264e3dc9c59f3522f37b61da6df1de9839cc4a0100000000000016001424f1264e3dc9c59f3522f37b61da6df1de9839cc4a0100000000000016001424f1264e3dc9c59f3522f37b61da6df1de9839cc780e000000000000160014641575c29c7eecfd7499c363b3d030a3a99df0cb0340b8896838cc23fd5c0311db13c9b700ad5e009368d365bcccd160cff19a666b7b7f99bf2597f7b4cd08deba322facbf213474be3b2c9ba4518b4e6e304b81ccf6fd4d07204e900291d7c01b33efaf7b6aa6183530693b7a16cf2b307d03e285008696f0f9ac0063036f726401010a746578742f706c61696e004c9c7b2270223a22746170222c226f70223a22646d742d6d696e74222c22646570223a22313334353161626334663865306339633735623266646439393235343332653063613236663064366331396661663638386339343164636162663765633239366930222c227469636b223a22544150415254203130333835372e6269746d6170203132343730323636222c22626c6b223a22383334343537227d680063036f726401010a746578742f706c61696e0102024a01004c9c7b2270223a22746170222c226f70223a22646d742d6d696e74222c22646570223a22313334353161626334663865306339633735623266646439393235343332653063613236663064366331396661663638386339343164636162663765633239366930222c227469636b223a22544150415254203130333835372e6269746d6170203132343730323636222c22626c6b223a22383334343536227d680063036f726401010a746578742f706c61696e0102029402004c9c7b2270223a22746170222c226f70223a22646d742d6d696e74222c22646570223a22313334353161626334663865306339633735623266646439393235343332653063613236663064366331396661663638386339343164636162663765633239366930222c227469636b223a22544150415254203130333835372e6269746d6170203132343730323636222c22626c6b223a22383334343531227d680063036f726401010a746578742f706c61696e010202de03004c9c7b2270223a22746170222c226f70223a22646d742d6d696e74222c22646570223a22313334353161626334663865306339633735623266646439393235343332653063613236663064366331396661663638386339343164636162663765633239366930222c227469636b223a22544150415254203130333835372e6269746d6170203132343730323636222c22626c6b223a22383334343538227d680063036f726401010a746578742f706c61696e0102022805004c9c7b2270223a22746170222c226f70223a22646d742d6d696e74222c22646570223a22313334353161626334663865306339633735623266646439393235343332653063613236663064366331396661663638386339343164636162663765633239366930222c227469636b223a22544150415254203130333835372e6269746d6170203132343730323636222c22626c6b223a22383334343533227d680063036f726401010a746578742f706c61696e0102027206004c9c7b2270223a22746170222c226f70223a22646d742d6d696e74222c22646570223a22313334353161626334663865306339633735623266646439393235343332653063613236663064366331396661663638386339343164636162663765633239366930222c227469636b223a22544150415254203130333835372e6269746d6170203132343730323636222c22626c6b223a22383334343530227d680063036f726401010a746578742f706c61696e010202bc07004c9c7b2270223a22746170222c226f70223a22646d742d6d696e74222c22646570223a22313334353161626334663865306339633735623266646439393235343332653063613236663064366331396661663638386339343164636162663765633239366930222c227469636b223a22544150415254203130333835372e6269746d6170203132343730323636222c22626c6b223a22383334343532227d680063036f726401010a746578742f706c61696e0102020609004c9c7b2270223a22746170222c226f70223a22646d742d6d696e74222c22646570223a22313334353161626334663865306339633735623266646439393235343332653063613236663064366331396661663638386339343164636162663765633239366930222c227469636b223a22544150415254203130333835372e6269746d6170203132343730323636222c22626c6b223a22383334343535227d680063036f726401010a746578742f706c61696e010202500a004c9c7b2270223a22746170222c226f70223a22646d742d6d696e74222c22646570223a22313334353161626334663865306339633735623266646439393235343332653063613236663064366331396661663638386339343164636162663765633239366930222c227469636b223a22544150415254203130333835372e6269746d6170203132343730323636222c22626c6b223a22383334343534227d680063036f726401010a746578742f706c61696e0102029a0b004c9c7b2270223a22746170222c226f70223a22646d742d6d696e74222c22646570223a22313334353161626334663865306339633735623266646439393235343332653063613236663064366331396661663638386339343164636162663765633239366930222c227469636b223a22544150415254203130333835372e6269746d6170203132343730323636222c22626c6b223a22383334343539227d6821c04e900291d7c01b33efaf7b6aa6183530693b7a16cf2b307d03e285008696f0f900000000"
}