{
  "txid": "7dc4586eb503c6c3f845c498b6828276d0ace32ec440c39c71fded3339923e59",
  "version": 1,
  "locktime": 0,
  "vin": [
    {
      "txid": "ac235bcfe412fe1e434d3b1c03e1e88ca91f1a0fd132008084eb941589f5bac8",
      "vout": 10,
      "prevout": {
        "scriptpubkey": "512043bd1f664559188bf40e7580a1e06c574e75c2f3dd9c65e565fd36c9a179a603",
        "scriptpubkey_asm": "OP_PUSHNUM_1 OP_PUSHBYTES_32 43bd1f664559188bf40e7580a1e06c574e75c2f3dd9c65e565fd36c9a179a603",
        "scriptpubkey_type": "v1_p2tr",
        "scriptpubkey_address": "bc1pgw737ej9tyvghaqwwkq2rcrv2a88tshnmkwxtet9l5mvngte5cps75gt0h",
        "value": 14000
      },
      "scriptsig": "",
      "scriptsig_asm": "",
      "witness": [
        "1ac7cda64d1f08534893e7402c14acdb6fd7bf082ab11e613bc10d28c6a4011dde93dcd4aec90adff0e72c6a10fcbbe8f408a98ba9cb7b4b7262a4be0f84eb72"
      ],
      "is_coinbase": false,
      "sequence": 4294967293
    }
  ],
  "vout": [
    {
      "scriptpubkey": "5120f2b99d416fb1741d12e58d5c971a007e5d914e915af340085ad5c6faf0549870",
      "scriptpubkey_asm": "OP_PUSHNUM_1 OP_PUSHBYTES_32 f2b99d416fb1741d12e58d5c971a007e5d914e915af340085ad5c6faf0549870",
      "scriptpubkey_type": "v1_p2tr",
      "scriptpubkey_address": "bc1p72ue6st0k96p6yh934wfwxsq0ewezn53tte5qzz66hr04uz5npcqkd4rxx",
      "value": 2346
    },
    {
      "scriptpubkey": "5120f667578b85bed256c7fcb9f2cda488d5281e52ca42e7dd4bc21e95149562f09f",
      "scriptpubkey_asm": "OP_PUSHNUM_1 OP_PUSHBYTES_32 f667578b85bed256c7fcb9f2cda488d5281e52ca42e7dd4bc21e95149562f09f",
      "scriptpubkey_type": "v1_p2tr",
      "scriptpubkey_address": "bc1p7en40zu9hmf9d3luh8evmfyg655pu5k2gtna6j7zr623f9tz7z0stfnwav",
      "value": 2113
    },
    {
      "scriptpubkey": "512043bd1f664559188bf40e7580a1e06c574e75c2f3dd9c65e565fd36c9a179a603",
      "scriptpubkey_asm": "OP_PUSHNUM_1 OP_PUSHBYTES_32 43bd1f664559188bf40e7580a1e06c574e75c2f3dd9c65e565fd36c9a179a603",
      "scriptpubkey_type": "v1_p2tr",
      "scriptpubkey_address": "bc1pgw737ej9tyvghaqwwkq2rcrv2a88tshnmkwxtet9l5mvngte5cps75gt0h",
      "value": 7165
    }
  ],
  "size": 248,
  "weight": 788,
  "fee": 2376,
  "status": {
    "confirmed": true,
    "block_height": 834460,
    "block_hash": "00000000000000000000484a79b643b2524bbce82e5d8a442013fa5b8905ed98",
    "block_time": 1710307468
  },
  "hex": "01000000000101c8baf5891594eb84800032d10f1a1fa98ce8e1031c3b4d431efe12e4cf5b23ac0a00000000fdffffff032a09000000000000225120f2b99d416fb1741d12e58d5c971a007e5d914e915af340085ad5c6faf05498704108000000000000225120f667578b85bed256c7fcb9f2cda488d5281e52ca42e7dd4bc21e95149562f09ffd1b00000000000022512043bd1f664559188bf40e7580a1e06c574e75c2f3dd9c65e565fd36c9a179a60301401ac7cda64d1f08534893e7402c14acdb6fd7bf082ab11e613bc10d28c6a4011dde93dcd4aec90adff0e72c6a10fcbbe8f408a98ba9cb7b4b7262a4be0f84eb7200000000"
}