{
  "txid": "7dd522ef376dd0e96306abc1be6e1ec4eec4695fa380f30a7ce452cb358f85dc",
  "version": 1,
  "locktime": 0,
  "vin": [
    {
      "txid": "ad52afb0e77264c83b7bee0e6da78e2ae569aa0ca8f630061e370844e4cb9b71",
      "vout": 2,
      "prevout": {
        "scriptpubkey": "76a914108f6fe414d2249b7eae55acfc9c6ce74e14129b88ac",
        "scriptpubkey_asm": "OP_DUP OP_HASH160 OP_PUSHBYTES_20 108f6fe414d2249b7eae55acfc9c6ce74e14129b OP_EQUALVERIFY OP_CHECKSIG",
        "scriptpubkey_type": "p2pkh",
        "scriptpubkey_address": "12WZeFcR3HoHhnZmCDcQojCRLtTwmcT7zi",
        "value": 2443808
      },
      "scriptsig": "483045022100b56c9f21e1471467d628ee5ecbf1e3f4f7a01c7d1840c33a9da3f162a1b7ce3602205c0ea30f0284318ad099c09a054104e92ffdc9af272d07727bae02b505dab54a0121032cfef1286717f4759d25daac6c8e5dbddc3ba6e830c0cf8c77653a31f590d5c1",
      "scriptsig_asm": "OP_PUSHBYTES_72 3045022100b56c9f21e1471467d628ee5ecbf1e3f4f7a01c7d1840c33a9da3f162a1b7ce3602205c0ea30f0284318ad099c09a054104e92ffdc9af272d07727bae02b505dab54a01 OP_PUSHBYTES_33 032cfef1286717f4759d25daac6c8e5dbddc3ba6e830c0cf8c77653a31f590d5c1",
      "is_coinbase": false,
      "sequence": 4294967295
    }
  ],
  "vout": [
    {
      "scriptpubkey": "76a914fb55cc0fbb500c2fe28d2fd3821430245cbbab2d88ac",
      "scriptpubkey_asm": "OP_DUP OP_HASH160 OP_PUSHBYTES_20 fb55cc0fbb500c2fe28d2fd3821430245cbbab2d OP_EQUALVERIFY OP_CHECKSIG",
      "scriptpubkey_type": "p2pkh",
      "scriptpubkey_address": "1PuwPSNjwtS2tpKM8RJLCSfxPV2VVmoNRX",
      "value": 800000
    },
    {
      "scriptpubkey": "76a914108f6fe414d2249b7eae55acfc9c6ce74e14129b88ac",
      "scriptpubkey_asm": "OP_DUP OP_HASH160 OP_PUSHBYTES_20 108f6fe414d2249b7eae55acfc9c6ce74e14129b OP_EQUALVERIFY OP_CHECKSIG",
      "scriptpubkey_type": "p2pkh",
      "scriptpubkey_address": "12WZeFcR3HoHhnZmCDcQojCRLtTwmcT7zi",
      "value": 1639288
    }
  ],
  "size": 226,
  "weight": 904,
  "fee": 4520,
  "status": {
    "confirmed": true,
    "block_height": 834638,
    "block_hash": "000000000000000000025f742c626208ac87e0b7d15054abb4a19ca2d735a54e",
    "block_time": 1710405325
  },
  "hex": "0100000001719bcbe44408371e0630f6a80caa69e52a8ea76d0eee7b3bc86472e7b0af52ad020000006b483045022100b56c9f21e1471467d628ee5ecbf1e3f4f7a01c7d1840c33a9da3f162a1b7ce3602205c0ea30f0284318ad099c09a054104e92ffdc9af272d07727bae02b505dab54a0121032cfef1286717f4759d25daac6c8e5dbddc3ba6e830c0cf8c77653a31f590d5c1ffffffff0200350c00000000001976a914fb55cc0fbb500c2fe28d2fd3821430245cbbab2d88ac78031900000000001976a914108f6fe414d2249b7eae55acfc9c6ce74e14129b88ac00000000"
}