{
  "txid": "7de83b586212b88f72b5440a4c866b851f1378225b3c6f9c99bee08ce111cc76",
  "version": 2,
  "locktime": 0,
  "vin": [
    {
      "txid": "2dd51e9591c7babbf52128e1f43de4d7ee03c1133f3d8274257565f54c2b58ca",
      "vout": 1,
      "prevout": {
        "scriptpubkey": "0014be414e56ce077e1853760bf5ee55825c054cf7f7",
        "scriptpubkey_asm": "OP_0 OP_PUSHBYTES_20 be414e56ce077e1853760bf5ee55825c054cf7f7",
        "scriptpubkey_type": "v0_p2wpkh",
        "scriptpubkey_address": "bc1qheq5u4kwqalps5mkp067u4vztsz5ealhk97lzh",
        "value": 1230142
      },
      "scriptsig": "",
      "scriptsig_asm": "",
      "witness": [
        "3044022063cc18267b2540b47e764ebbfc5637b4a01059604e528593bcb8936300488a7202200977d246941005e220d86eb921d4cbcea2e379bcbbfead343873efef6541172a01",
        "02e3aece06293bbf33e6fbb0e4b1d6916d2ca171819dcbd397d7701d43f51f3d71"
      ],
      "is_coinbase": false,
      "sequence": 4294967293
    }
  ],
  "vout": [
    {
      "scriptpubkey": "001449b1857b4073d112aab8341c868b7afafad6ec6d",
      "scriptpubkey_asm": "OP_0 OP_PUSHBYTES_20 49b1857b4073d112aab8341c868b7afafad6ec6d",
      "scriptpubkey_type": "v0_p2wpkh",
      "scriptpubkey_address": "bc1qfxcc276qw0g3924cxswgdzm6ltaddmrdk00xer",
      "value": 18391
    },
    {
      "scriptpubkey": "0014fa951a8225d14c871a23db19c22868fe76a02756",
      "scriptpubkey_asm": "OP_0 OP_PUSHBYTES_20 fa951a8225d14c871a23db19c22868fe76a02756",
      "scriptpubkey_type": "v0_p2wpkh",
      "scriptpubkey_address": "bc1ql2234q3969xgwx3rmvvuy2rglem2qf6kyk8xqa",
      "value": 17227
    },
    {
      "scriptpubkey": "00140e07e4c8f8893f7532fb4c873ba2634728396576",
      "scriptpubkey_asm": "OP_0 OP_PUSHBYTES_20 0e07e4c8f8893f7532fb4c873ba2634728396576",
      "scriptpubkey_type": "v0_p2wpkh",
      "scriptpubkey_address": "bc1qpcr7fj8c3ylh2vhmfjrnhgnrgu5rjetkkt5f70",
      "value": 1192626
    }
  ],
  "size": 253,
  "weight": 685,
  "fee": 1898,
  "status": {
    "confirmed": true,
    "block_height": 834460,
    "block_hash": "00000000000000000000484a79b643b2524bbce82e5d8a442013fa5b8905ed98",
    "block_time": 1710307468
  },
  "hex": "02000000000101ca582b4cf565752574823d3f13c103eed7e43df4e12821f5bbbac791951ed52d0100000000fdffffff03d74700000000000016001449b1857b4073d112aab8341c868b7afafad6ec6d4b43000000000000160014fa951a8225d14c871a23db19c22868fe76a02756b2321200000000001600140e07e4c8f8893f7532fb4c873ba263472839657602473044022063cc18267b2540b47e764ebbfc5637b4a01059604e528593bcb8936300488a7202200977d246941005e220d86eb921d4cbcea2e379bcbbfead343873efef6541172a012102e3aece06293bbf33e6fbb0e4b1d6916d2ca171819dcbd397d7701d43f51f3d7100000000"
}