{
  "txid": "7df5143600a53f3e6ef3709d3833c89fc6d5beae7ecf06c1c676f47cc3fa7b71",
  "version": 2,
  "locktime": 0,
  "vin": [
    {
      "txid": "c271c114ab8d951cd499451715c1695d5db15c984f325e2feaed7428b0a5b311",
      "vout": 1,
      "prevout": {
        "scriptpubkey": "0014a22f7c76d739a6016edcea3d25a4c3fdb3a0a3ca",
        "scriptpubkey_asm": "OP_0 OP_PUSHBYTES_20 a22f7c76d739a6016edcea3d25a4c3fdb3a0a3ca",
        "scriptpubkey_type": "v0_p2wpkh",
        "scriptpubkey_address": "bc1q5ghhcakh8xnqzmkuag7jtfxrlke6pg72fxpmtk",
        "value": 85841
      },
      "scriptsig": "",
      "scriptsig_asm": "",
      "witness": [
        "30440220223ab6222244abb0fc7ed20625b0780673f12418ad3e755345043052f4f2cc2102205ca41114184de1ecc4f5b7f85540ab0ac01d68dc263927677c3e216fd048b9a801",
        "0265d8ffe080ffc4a50e087af5c2aa91f5a505f099eeba3868994e674e311919e6"
      ],
      "is_coinbase": false,
      "sequence": 4294967293
    }
  ],
  "vout": [
    {
      "scriptpubkey": "0014b65f9c47e92ea8804397f7aeb8adb04112ffdb69",
      "scriptpubkey_asm": "OP_0 OP_PUSHBYTES_20 b65f9c47e92ea8804397f7aeb8adb04112ffdb69",
      "scriptpubkey_type": "v0_p2wpkh",
      "scriptpubkey_address": "bc1qke0ec3lf965gqsuh77ht3tdsgyf0lkmf4wl2r9",
      "value": 74311
    },
    {
      "scriptpubkey": "0014877565eed3ce80bcd3427cae68ec4a844d02e871",
      "scriptpubkey_asm": "OP_0 OP_PUSHBYTES_20 877565eed3ce80bcd3427cae68ec4a844d02e871",
      "scriptpubkey_type": "v0_p2wpkh",
      "scriptpubkey_address": "bc1qsa6ktmkne6qte56z0jhx3mz2s3xs96r3y69xxa",
      "value": 10000
    }
  ],
  "size": 222,
  "weight": 561,
  "fee": 1530,
  "status": {
    "confirmed": true,
    "block_height": 834464,
    "block_hash": "0000000000000000000177a0869a911a2b65c9bdcd5a8bcb02b68f305bee848e",
    "block_time": 1710308296
  },
  "hex": "0200000000010111b3a5b02874edea2f5e324f985cb15d5d69c115174599d41c958dab14c171c20100000000fdffffff024722010000000000160014b65f9c47e92ea8804397f7aeb8adb04112ffdb691027000000000000160014877565eed3ce80bcd3427cae68ec4a844d02e871024730440220223ab6222244abb0fc7ed20625b0780673f12418ad3e755345043052f4f2cc2102205ca41114184de1ecc4f5b7f85540ab0ac01d68dc263927677c3e216fd048b9a801210265d8ffe080ffc4a50e087af5c2aa91f5a505f099eeba3868994e674e311919e600000000"
}