{
  "txid": "7e06d11c611a0cb3fe9934165cd12b254637ba624ddbfc25439e714cf6bafe0f",
  "version": 2,
  "locktime": 0,
  "vin": [
    {
      "txid": "1ec3b635d5c44bc46be92cfe2747a64d3fae0a5baca909d15d06d0e1e105bd8a",
      "vout": 1,
      "prevout": {
        "scriptpubkey": "512014cc795c55a43affa0e8db8b449ab8dd044687df910dcd855faa8b5cf3431242",
        "scriptpubkey_asm": "OP_PUSHNUM_1 OP_PUSHBYTES_32 14cc795c55a43affa0e8db8b449ab8dd044687df910dcd855faa8b5cf3431242",
        "scriptpubkey_type": "v1_p2tr",
        "scriptpubkey_address": "bc1pznx8jhz45sa0lg8gmw95fx4cm5zydp7ljyxump2l4294eu6rzfpqm6qvgk",
        "value": 506247
      },
      "scriptsig": "",
      "scriptsig_asm": "",
      "witness": [
        "44654421b7524cf0db749a381f9a9698ca6caa19a1153d5cbb4e71e8dffa83590a6d0c87ef661eaf1b0bce406e83fda26809a06064c1e96a22ca19a8bd66b044"
      ],
      "is_coinbase": false,
      "sequence": 4294967293
    }
  ],
  "vout": [
    {
      "scriptpubkey": "5120601e229dc7fb8af0d811c8ed63b4c420481645e813a955b3ddb1674d0f45c9d8",
      "scriptpubkey_asm": "OP_PUSHNUM_1 OP_PUSHBYTES_32 601e229dc7fb8af0d811c8ed63b4c420481645e813a955b3ddb1674d0f45c9d8",
      "scriptpubkey_type": "v1_p2tr",
      "scriptpubkey_address": "bc1pvq0z98w8lw90pkq3erkk8dxyypypv30gzw54tv7ak9n56r69e8vqggx94x",
      "value": 2702
    },
    {
      "scriptpubkey": "512014cc795c55a43affa0e8db8b449ab8dd044687df910dcd855faa8b5cf3431242",
      "scriptpubkey_asm": "OP_PUSHNUM_1 OP_PUSHBYTES_32 14cc795c55a43affa0e8db8b449ab8dd044687df910dcd855faa8b5cf3431242",
      "scriptpubkey_type": "v1_p2tr",
      "scriptpubkey_address": "bc1pznx8jhz45sa0lg8gmw95fx4cm5zydp7ljyxump2l4294eu6rzfpqm6qvgk",
      "value": 501389
    }
  ],
  "size": 205,
  "weight": 616,
  "fee": 2156,
  "status": {
    "confirmed": true,
    "block_height": 834460,
    "block_hash": "00000000000000000000484a79b643b2524bbce82e5d8a442013fa5b8905ed98",
    "block_time": 1710307468
  },
  "hex": "020000000001018abd05e1e1d0065dd109a9ac5b0aae3f4da64727fe2ce96bc44bc4d535b6c31e0100000000fdffffff028e0a000000000000225120601e229dc7fb8af0d811c8ed63b4c420481645e813a955b3ddb1674d0f45c9d88da607000000000022512014cc795c55a43affa0e8db8b449ab8dd044687df910dcd855faa8b5cf3431242014044654421b7524cf0db749a381f9a9698ca6caa19a1153d5cbb4e71e8dffa83590a6d0c87ef661eaf1b0bce406e83fda26809a06064c1e96a22ca19a8bd66b04400000000"
}